{
	"contracts/Pool/PoolPig.sol": {
		"WorldStepToken": {
			"abi": [
				{
					"inputs": [],
					"stateMutability": "nonpayable",
					"type": "constructor"
				},
				{
					"anonymous": false,
					"inputs": [
						{
							"indexed": true,
							"internalType": "address",
							"name": "owner",
							"type": "address"
						},
						{
							"indexed": true,
							"internalType": "address",
							"name": "spender",
							"type": "address"
						},
						{
							"indexed": false,
							"internalType": "uint256",
							"name": "value",
							"type": "uint256"
						}
					],
					"name": "Approval",
					"type": "event"
				},
				{
					"anonymous": false,
					"inputs": [
						{
							"indexed": false,
							"internalType": "uint256",
							"name": "minTokensBeforeSwap",
							"type": "uint256"
						}
					],
					"name": "MinTokensBeforeSwapUpdated",
					"type": "event"
				},
				{
					"anonymous": false,
					"inputs": [
						{
							"indexed": true,
							"internalType": "address",
							"name": "previousOwner",
							"type": "address"
						},
						{
							"indexed": true,
							"internalType": "address",
							"name": "newOwner",
							"type": "address"
						}
					],
					"name": "OwnershipTransferred",
					"type": "event"
				},
				{
					"anonymous": false,
					"inputs": [
						{
							"indexed": false,
							"internalType": "uint256",
							"name": "tokensSwapped",
							"type": "uint256"
						},
						{
							"indexed": false,
							"internalType": "uint256",
							"name": "ethReceived",
							"type": "uint256"
						},
						{
							"indexed": false,
							"internalType": "uint256",
							"name": "tokensIntoLiqudity",
							"type": "uint256"
						}
					],
					"name": "SwapAndLiquify",
					"type": "event"
				},
				{
					"anonymous": false,
					"inputs": [
						{
							"indexed": false,
							"internalType": "bool",
							"name": "enabled",
							"type": "bool"
						}
					],
					"name": "SwapAndLiquifyEnabledUpdated",
					"type": "event"
				},
				{
					"anonymous": false,
					"inputs": [
						{
							"indexed": true,
							"internalType": "address",
							"name": "from",
							"type": "address"
						},
						{
							"indexed": true,
							"internalType": "address",
							"name": "to",
							"type": "address"
						},
						{
							"indexed": false,
							"internalType": "uint256",
							"name": "value",
							"type": "uint256"
						}
					],
					"name": "Transfer",
					"type": "event"
				},
				{
					"inputs": [],
					"name": "_liquidityFee",
					"outputs": [
						{
							"internalType": "uint256",
							"name": "",
							"type": "uint256"
						}
					],
					"stateMutability": "view",
					"type": "function"
				},
				{
					"inputs": [],
					"name": "_maxTxAmount",
					"outputs": [
						{
							"internalType": "uint256",
							"name": "",
							"type": "uint256"
						}
					],
					"stateMutability": "view",
					"type": "function"
				},
				{
					"inputs": [],
					"name": "_taxFee",
					"outputs": [
						{
							"internalType": "uint256",
							"name": "",
							"type": "uint256"
						}
					],
					"stateMutability": "view",
					"type": "function"
				},
				{
					"inputs": [],
					"name": "addInitialLiquidity",
					"outputs": [],
					"stateMutability": "nonpayable",
					"type": "function"
				},
				{
					"inputs": [
						{
							"internalType": "address",
							"name": "owner",
							"type": "address"
						},
						{
							"internalType": "address",
							"name": "spender",
							"type": "address"
						}
					],
					"name": "allowance",
					"outputs": [
						{
							"internalType": "uint256",
							"name": "",
							"type": "uint256"
						}
					],
					"stateMutability": "view",
					"type": "function"
				},
				{
					"inputs": [
						{
							"internalType": "address",
							"name": "spender",
							"type": "address"
						},
						{
							"internalType": "uint256",
							"name": "amount",
							"type": "uint256"
						}
					],
					"name": "approve",
					"outputs": [
						{
							"internalType": "bool",
							"name": "",
							"type": "bool"
						}
					],
					"stateMutability": "nonpayable",
					"type": "function"
				},
				{
					"inputs": [
						{
							"internalType": "address",
							"name": "account",
							"type": "address"
						}
					],
					"name": "balanceOf",
					"outputs": [
						{
							"internalType": "uint256",
							"name": "",
							"type": "uint256"
						}
					],
					"stateMutability": "view",
					"type": "function"
				},
				{
					"inputs": [],
					"name": "decimals",
					"outputs": [
						{
							"internalType": "uint8",
							"name": "",
							"type": "uint8"
						}
					],
					"stateMutability": "view",
					"type": "function"
				},
				{
					"inputs": [
						{
							"internalType": "address",
							"name": "spender",
							"type": "address"
						},
						{
							"internalType": "uint256",
							"name": "subtractedValue",
							"type": "uint256"
						}
					],
					"name": "decreaseAllowance",
					"outputs": [
						{
							"internalType": "bool",
							"name": "",
							"type": "bool"
						}
					],
					"stateMutability": "nonpayable",
					"type": "function"
				},
				{
					"inputs": [
						{
							"internalType": "uint256",
							"name": "tAmount",
							"type": "uint256"
						}
					],
					"name": "deliver",
					"outputs": [],
					"stateMutability": "nonpayable",
					"type": "function"
				},
				{
					"inputs": [
						{
							"internalType": "address",
							"name": "account",
							"type": "address"
						}
					],
					"name": "excludeFromFee",
					"outputs": [],
					"stateMutability": "nonpayable",
					"type": "function"
				},
				{
					"inputs": [
						{
							"internalType": "address",
							"name": "account",
							"type": "address"
						}
					],
					"name": "excludeFromReward",
					"outputs": [],
					"stateMutability": "nonpayable",
					"type": "function"
				},
				{
					"inputs": [],
					"name": "geUnlockTime",
					"outputs": [
						{
							"internalType": "uint256",
							"name": "",
							"type": "uint256"
						}
					],
					"stateMutability": "view",
					"type": "function"
				},
				{
					"inputs": [
						{
							"internalType": "address",
							"name": "account",
							"type": "address"
						}
					],
					"name": "includeInFee",
					"outputs": [],
					"stateMutability": "nonpayable",
					"type": "function"
				},
				{
					"inputs": [
						{
							"internalType": "address",
							"name": "account",
							"type": "address"
						}
					],
					"name": "includeInReward",
					"outputs": [],
					"stateMutability": "nonpayable",
					"type": "function"
				},
				{
					"inputs": [
						{
							"internalType": "address",
							"name": "spender",
							"type": "address"
						},
						{
							"internalType": "uint256",
							"name": "addedValue",
							"type": "uint256"
						}
					],
					"name": "increaseAllowance",
					"outputs": [
						{
							"internalType": "bool",
							"name": "",
							"type": "bool"
						}
					],
					"stateMutability": "nonpayable",
					"type": "function"
				},
				{
					"inputs": [
						{
							"internalType": "address",
							"name": "account",
							"type": "address"
						}
					],
					"name": "isExcludedFromFee",
					"outputs": [
						{
							"internalType": "bool",
							"name": "",
							"type": "bool"
						}
					],
					"stateMutability": "view",
					"type": "function"
				},
				{
					"inputs": [
						{
							"internalType": "address",
							"name": "account",
							"type": "address"
						}
					],
					"name": "isExcludedFromReward",
					"outputs": [
						{
							"internalType": "bool",
							"name": "",
							"type": "bool"
						}
					],
					"stateMutability": "view",
					"type": "function"
				},
				{
					"inputs": [
						{
							"internalType": "uint256",
							"name": "time",
							"type": "uint256"
						}
					],
					"name": "lock",
					"outputs": [],
					"stateMutability": "nonpayable",
					"type": "function"
				},
				{
					"inputs": [],
					"name": "name",
					"outputs": [
						{
							"internalType": "string",
							"name": "",
							"type": "string"
						}
					],
					"stateMutability": "view",
					"type": "function"
				},
				{
					"inputs": [],
					"name": "owner",
					"outputs": [
						{
							"internalType": "address",
							"name": "",
							"type": "address"
						}
					],
					"stateMutability": "view",
					"type": "function"
				},
				{
					"inputs": [
						{
							"internalType": "uint256",
							"name": "tAmount",
							"type": "uint256"
						},
						{
							"internalType": "bool",
							"name": "deductTransferFee",
							"type": "bool"
						}
					],
					"name": "reflectionFromToken",
					"outputs": [
						{
							"internalType": "uint256",
							"name": "",
							"type": "uint256"
						}
					],
					"stateMutability": "view",
					"type": "function"
				},
				{
					"inputs": [],
					"name": "renounceOwnership",
					"outputs": [],
					"stateMutability": "nonpayable",
					"type": "function"
				},
				{
					"inputs": [
						{
							"internalType": "uint256",
							"name": "liquidityFee",
							"type": "uint256"
						}
					],
					"name": "setLiquidityFeePercent",
					"outputs": [],
					"stateMutability": "nonpayable",
					"type": "function"
				},
				{
					"inputs": [
						{
							"internalType": "uint256",
							"name": "maxTxPercent",
							"type": "uint256"
						}
					],
					"name": "setMaxTxPercent",
					"outputs": [],
					"stateMutability": "nonpayable",
					"type": "function"
				},
				{
					"inputs": [
						{
							"internalType": "bool",
							"name": "_enabled",
							"type": "bool"
						}
					],
					"name": "setSwapAndLiquifyEnabled",
					"outputs": [],
					"stateMutability": "nonpayable",
					"type": "function"
				},
				{
					"inputs": [
						{
							"internalType": "uint256",
							"name": "taxFee",
							"type": "uint256"
						}
					],
					"name": "setTaxFeePercent",
					"outputs": [],
					"stateMutability": "nonpayable",
					"type": "function"
				},
				{
					"inputs": [],
					"name": "swapAndLiquifyEnabled",
					"outputs": [
						{
							"internalType": "bool",
							"name": "",
							"type": "bool"
						}
					],
					"stateMutability": "view",
					"type": "function"
				},
				{
					"inputs": [],
					"name": "symbol",
					"outputs": [
						{
							"internalType": "string",
							"name": "",
							"type": "string"
						}
					],
					"stateMutability": "view",
					"type": "function"
				},
				{
					"inputs": [
						{
							"internalType": "uint256",
							"name": "rAmount",
							"type": "uint256"
						}
					],
					"name": "tokenFromReflection",
					"outputs": [
						{
							"internalType": "uint256",
							"name": "",
							"type": "uint256"
						}
					],
					"stateMutability": "view",
					"type": "function"
				},
				{
					"inputs": [],
					"name": "totalFees",
					"outputs": [
						{
							"internalType": "uint256",
							"name": "",
							"type": "uint256"
						}
					],
					"stateMutability": "view",
					"type": "function"
				},
				{
					"inputs": [],
					"name": "totalSupply",
					"outputs": [
						{
							"internalType": "uint256",
							"name": "",
							"type": "uint256"
						}
					],
					"stateMutability": "view",
					"type": "function"
				},
				{
					"inputs": [
						{
							"internalType": "address",
							"name": "recipient",
							"type": "address"
						},
						{
							"internalType": "uint256",
							"name": "amount",
							"type": "uint256"
						}
					],
					"name": "transfer",
					"outputs": [
						{
							"internalType": "bool",
							"name": "",
							"type": "bool"
						}
					],
					"stateMutability": "nonpayable",
					"type": "function"
				},
				{
					"inputs": [
						{
							"internalType": "address",
							"name": "sender",
							"type": "address"
						},
						{
							"internalType": "address",
							"name": "recipient",
							"type": "address"
						},
						{
							"internalType": "uint256",
							"name": "amount",
							"type": "uint256"
						}
					],
					"name": "transferFrom",
					"outputs": [
						{
							"internalType": "bool",
							"name": "",
							"type": "bool"
						}
					],
					"stateMutability": "nonpayable",
					"type": "function"
				},
				{
					"inputs": [
						{
							"internalType": "address",
							"name": "newOwner",
							"type": "address"
						}
					],
					"name": "transferOwnership",
					"outputs": [],
					"stateMutability": "nonpayable",
					"type": "function"
				},
				{
					"inputs": [],
					"name": "uniswapV2Pair",
					"outputs": [
						{
							"internalType": "address",
							"name": "",
							"type": "address"
						}
					],
					"stateMutability": "view",
					"type": "function"
				},
				{
					"inputs": [],
					"name": "uniswapV2Router",
					"outputs": [
						{
							"internalType": "contract IUniswapV2Router02",
							"name": "",
							"type": "address"
						}
					],
					"stateMutability": "view",
					"type": "function"
				},
				{
					"inputs": [],
					"name": "unlock",
					"outputs": [],
					"stateMutability": "nonpayable",
					"type": "function"
				},
				{
					"stateMutability": "payable",
					"type": "receive"
				}
			],
			"devdoc": {
				"kind": "dev",
				"methods": {
					"owner()": {
						"details": "Returns the address of the current owner."
					}
				},
				"version": 1
			},
			"evm": {
				"assembly": "    /* \"contracts/Pool/PoolPig.sol\":15130:33769  contract WorldStepToken is Context, IERC20, Ownable {... */\n  mstore(0x40, 0xc0)\n    /* \"contracts/Pool/PoolPig.sol\":15626:15668  0x8492cbd894686D7e98214541903c7BA6f94928D6 */\n  0x8492cbd894686d7e98214541903c7ba6f94928d6\n    /* \"contracts/Pool/PoolPig.sol\":15572:15669  address payable private _developmentAddress = payable(0x8492cbd894686D7e98214541903c7BA6f94928D6) */\n  0x09\n  exp(0x0100, 0x00)\n  dup2\n  sload\n  dup2\n  0xffffffffffffffffffffffffffffffffffffffff\n  mul\n  not\n  and\n  swap1\n  dup4\n  0xffffffffffffffffffffffffffffffffffffffff\n  and\n  mul\n  or\n  swap1\n  sstore\n  pop\n    /* \"contracts/Pool/PoolPig.sol\":15727:15769  0xa4eD7aa4eF5deB0A63e97d9Cb77445aE553feb1d */\n  0xa4ed7aa4ef5deb0a63e97d9cb77445ae553feb1d\n    /* \"contracts/Pool/PoolPig.sol\":15675:15770  address payable private _marketingAddress = payable(0xa4eD7aa4eF5deB0A63e97d9Cb77445aE553feb1d) */\n  0x0a\n  exp(0x0100, 0x00)\n  dup2\n  sload\n  dup2\n  0xffffffffffffffffffffffffffffffffffffffff\n  mul\n  not\n  and\n  swap1\n  dup4\n  0xffffffffffffffffffffffffffffffffffffffff\n  and\n  mul\n  or\n  swap1\n  sstore\n  pop\n    /* \"contracts/Pool/PoolPig.sol\":15822:15864  0xe061915592536656a92B9fd59e46b19eF920692F */\n  0xe061915592536656a92b9fd59e46b19ef920692f\n    /* \"contracts/Pool/PoolPig.sol\":15776:15865  address payable private _rewardPool = payable(0xe061915592536656a92B9fd59e46b19eF920692F) */\n  0x0b\n  exp(0x0100, 0x00)\n  dup2\n  sload\n  dup2\n  0xffffffffffffffffffffffffffffffffffffffff\n  mul\n  not\n  and\n  swap1\n  dup4\n  0xffffffffffffffffffffffffffffffffffffffff\n  and\n  mul\n  or\n  swap1\n  sstore\n  pop\n    /* \"contracts/Pool/PoolPig.sol\":15958:15976  1000000000 * 10**9 */\n  0x0de0b6b3a7640000\n    /* \"contracts/Pool/PoolPig.sol\":15915:15916  0 */\n  0x00\n    /* \"contracts/Pool/PoolPig.sol\":15906:15917  ~uint256(0) */\n  not\n    /* \"contracts/Pool/PoolPig.sol\":16016:16029  MAX % _tTotal */\n  dup2\n  tag_1\n  jumpi\n  invalid\ntag_1:\n  mod\n    /* \"contracts/Pool/PoolPig.sol\":15915:15916  0 */\n  0x00\n    /* \"contracts/Pool/PoolPig.sol\":15906:15917  ~uint256(0) */\n  not\n    /* \"contracts/Pool/PoolPig.sol\":16009:16030  MAX - (MAX % _tTotal) */\n  sub\n    /* \"contracts/Pool/PoolPig.sol\":15982:16031  uint256 private _rTotal = (MAX - (MAX % _tTotal)) */\n  0x0c\n  sstore\n    /* \"contracts/Pool/PoolPig.sol\":16070:16105  string private _name = \"World Step\" */\n  mload(0x40)\n  dup1\n  0x40\n  add\n  0x40\n  mstore\n  dup1\n  0x0a\n  dup2\n  mstore\n  0x20\n  add\n  0x576f726c64205374657000000000000000000000000000000000000000000000\n  dup2\n  mstore\n  pop\n  0x0e\n  swap1\n  dup1\n  mload\n  swap1\n  0x20\n  add\n  swap1\n  tag_2\n  swap3\n  swap2\n  swap1\n  tag_3\n  jump\t// in\ntag_2:\n  pop\n    /* \"contracts/Pool/PoolPig.sol\":16111:16141  string private _symbol = \"WSP\" */\n  mload(0x40)\n  dup1\n  0x40\n  add\n  0x40\n  mstore\n  dup1\n  0x03\n  dup2\n  mstore\n  0x20\n  add\n  0x5753500000000000000000000000000000000000000000000000000000000000\n  dup2\n  mstore\n  pop\n  0x0f\n  swap1\n  dup1\n  mload\n  swap1\n  0x20\n  add\n  swap1\n  tag_4\n  swap3\n  swap2\n  swap1\n  tag_3\n  jump\t// in\ntag_4:\n  pop\n    /* \"contracts/Pool/PoolPig.sol\":16173:16174  9 */\n  0x09\n    /* \"contracts/Pool/PoolPig.sol\":16147:16174  uint8 private _decimals = 9 */\n  0x10\n  exp(0x0100, 0x00)\n  dup2\n  sload\n  dup2\n  0xff\n  mul\n  not\n  and\n  swap1\n  dup4\n  0xff\n  and\n  mul\n  or\n  swap1\n  sstore\n  pop\n    /* \"contracts/Pool/PoolPig.sol\":16211:16212  2 */\n  0x02\n    /* \"contracts/Pool/PoolPig.sol\":16186:16212  uint256 public _taxFee = 2 */\n  0x11\n  sstore\n    /* \"contracts/Pool/PoolPig.sol\":16252:16259  _taxFee */\n  sload(0x11)\n    /* \"contracts/Pool/PoolPig.sol\":16218:16259  uint256 private _previousTaxFee = _taxFee */\n  0x12\n  sstore\n    /* \"contracts/Pool/PoolPig.sol\":16301:16302  3 */\n  0x03\n    /* \"contracts/Pool/PoolPig.sol\":16270:16302  uint256 public _liquidityFee = 3 */\n  0x13\n  sstore\n    /* \"contracts/Pool/PoolPig.sol\":16348:16361  _liquidityFee */\n  sload(0x13)\n    /* \"contracts/Pool/PoolPig.sol\":16308:16361  uint256 private _previousLiquidityFee = _liquidityFee */\n  0x14\n  sstore\n    /* \"contracts/Pool/PoolPig.sol\":16537:16541  true */\n  0x01\n    /* \"contracts/Pool/PoolPig.sol\":16501:16541  bool public swapAndLiquifyEnabled = true */\n  0x15\n  exp(0x0100, 0x01)\n  dup2\n  sload\n  dup2\n  0xff\n  mul\n  not\n  and\n  swap1\n  dup4\n  iszero\n  iszero\n  mul\n  or\n  swap1\n  sstore\n  pop\n    /* \"contracts/Pool/PoolPig.sol\":16569:16574  false */\n  0x00\n    /* \"contracts/Pool/PoolPig.sol\":16547:16574  bool initialLiqDone = false */\n  0x15\n  exp(0x0100, 0x02)\n  dup2\n  sload\n  dup2\n  0xff\n  mul\n  not\n  and\n  swap1\n  dup4\n  iszero\n  iszero\n  mul\n  or\n  swap1\n  sstore\n  pop\n    /* \"contracts/Pool/PoolPig.sol\":16615:16632  500000000 * 10**9 */\n  0x06f05b59d3b20000\n    /* \"contracts/Pool/PoolPig.sol\":16585:16632  uint256 public _maxTxAmount = 500000000 * 10**9 */\n  0x16\n  sstore\n    /* \"contracts/Pool/PoolPig.sol\":16686:16701  250000000*10**9 */\n  0x03782dace9d90000\n    /* \"contracts/Pool/PoolPig.sol\":16638:16701  uint256 private numTokensSellToAddToLiquidity = 250000000*10**9 */\n  0x17\n  sstore\n    /* \"contracts/Pool/PoolPig.sol\":17082:17850  constructor () public {... */\n  callvalue\n  dup1\n  iszero\n  tag_5\n  jumpi\n  0x00\n  dup1\n  revert\ntag_5:\n  pop\n    /* \"contracts/Pool/PoolPig.sol\":5630:5647  address msgSender */\n  0x00\n    /* \"contracts/Pool/PoolPig.sol\":5650:5662  _msgSender() */\n  tag_9\n    /* \"contracts/Pool/PoolPig.sol\":5650:5660  _msgSender */\n  shl(0x20, tag_10)\n    /* \"contracts/Pool/PoolPig.sol\":5650:5662  _msgSender() */\n  0x20\n  shr\n  jump\t// in\ntag_9:\n    /* \"contracts/Pool/PoolPig.sol\":5630:5662  address msgSender = _msgSender() */\n  swap1\n  pop\n    /* \"contracts/Pool/PoolPig.sol\":5681:5690  msgSender */\n  dup1\n    /* \"contracts/Pool/PoolPig.sol\":5672:5678  _owner */\n  0x00\n  dup1\n    /* \"contracts/Pool/PoolPig.sol\":5672:5690  _owner = msgSender */\n  0x0100\n  exp\n  dup2\n  sload\n  dup2\n  0xffffffffffffffffffffffffffffffffffffffff\n  mul\n  not\n  and\n  swap1\n  dup4\n  0xffffffffffffffffffffffffffffffffffffffff\n  and\n  mul\n  or\n  swap1\n  sstore\n  pop\n    /* \"contracts/Pool/PoolPig.sol\":5738:5747  msgSender */\n  dup1\n    /* \"contracts/Pool/PoolPig.sol\":5705:5748  OwnershipTransferred(address(0), msgSender) */\n  0xffffffffffffffffffffffffffffffffffffffff\n  and\n    /* \"contracts/Pool/PoolPig.sol\":5734:5735  0 */\n  0x00\n    /* \"contracts/Pool/PoolPig.sol\":5705:5748  OwnershipTransferred(address(0), msgSender) */\n  0xffffffffffffffffffffffffffffffffffffffff\n  and\n  0x8be0079c531659141344cd1fd0a4f28419497f9722a3daafe3b4186f6b6457e0\n  mload(0x40)\n  mload(0x40)\n  dup1\n  swap2\n  sub\n  swap1\n  log3\n    /* \"contracts/Pool/PoolPig.sol\":5596:5755  constructor () internal {... */\n  pop\n    /* \"contracts/Pool/PoolPig.sol\":17138:17145  _rTotal */\n  sload(0x0c)\n    /* \"contracts/Pool/PoolPig.sol\":17114:17121  _rOwned */\n  0x03\n    /* \"contracts/Pool/PoolPig.sol\":17114:17135  _rOwned[_msgSender()] */\n  0x00\n    /* \"contracts/Pool/PoolPig.sol\":17122:17134  _msgSender() */\n  tag_12\n    /* \"contracts/Pool/PoolPig.sol\":17122:17132  _msgSender */\n  shl(0x20, tag_10)\n    /* \"contracts/Pool/PoolPig.sol\":17122:17134  _msgSender() */\n  0x20\n  shr\n  jump\t// in\ntag_12:\n    /* \"contracts/Pool/PoolPig.sol\":17114:17135  _rOwned[_msgSender()] */\n  0xffffffffffffffffffffffffffffffffffffffff\n  and\n  0xffffffffffffffffffffffffffffffffffffffff\n  and\n  dup2\n  mstore\n  0x20\n  add\n  swap1\n  dup2\n  mstore\n  0x20\n  add\n  0x00\n  keccak256\n    /* \"contracts/Pool/PoolPig.sol\":17114:17145  _rOwned[_msgSender()] = _rTotal */\n  dup2\n  swap1\n  sstore\n  pop\n    /* \"contracts/Pool/PoolPig.sol\":17164:17199  IUniswapV2Router02 _uniswapV2Router */\n  0x00\n    /* \"contracts/Pool/PoolPig.sol\":17229:17271  0x9Ac64Cc6e4415144C455BD8E4837Fea55603e5c3 */\n  0x9ac64cc6e4415144c455bd8e4837fea55603e5c3\n    /* \"contracts/Pool/PoolPig.sol\":17164:17273  IUniswapV2Router02 _uniswapV2Router = IUniswapV2Router02(address(0x9Ac64Cc6e4415144C455BD8E4837Fea55603e5c3)) */\n  swap1\n  pop\n    /* \"contracts/Pool/PoolPig.sol\":17326:17342  _uniswapV2Router */\n  dup1\n    /* \"contracts/Pool/PoolPig.sol\":17326:17350  _uniswapV2Router.factory */\n  0xffffffffffffffffffffffffffffffffffffffff\n  and\n  0xc45a0155\n    /* \"contracts/Pool/PoolPig.sol\":17326:17352  _uniswapV2Router.factory() */\n  mload(0x40)\n  dup2\n  0xffffffff\n  and\n  0xe0\n  shl\n  dup2\n  mstore\n  0x04\n  add\n  0x20\n  mload(0x40)\n  dup1\n  dup4\n  sub\n  dup2\n  dup7\n  dup1\n  extcodesize\n  iszero\n  dup1\n  iszero\n  tag_13\n  jumpi\n  0x00\n  dup1\n  revert\ntag_13:\n  pop\n  gas\n  staticcall\n  iszero\n  dup1\n  iszero\n  tag_15\n  jumpi\n  returndatasize\n  0x00\n  dup1\n  returndatacopy\n  revert(0x00, returndatasize)\ntag_15:\n  pop\n  pop\n  pop\n  pop\n  mload(0x40)\n  returndatasize\n  0x20\n  dup2\n  lt\n  iszero\n  tag_16\n  jumpi\n  0x00\n  dup1\n  revert\ntag_16:\n  dup2\n  add\n  swap1\n  dup1\n  dup1\n  mload\n  swap1\n  0x20\n  add\n  swap1\n  swap3\n  swap2\n  swap1\n  pop\n  pop\n  pop\n    /* \"contracts/Pool/PoolPig.sol\":17308:17377  IUniswapV2Factory(_uniswapV2Router.factory())... */\n  0xffffffffffffffffffffffffffffffffffffffff\n  and\n  0xc9c65396\n    /* \"contracts/Pool/PoolPig.sol\":17386:17390  this */\n  address\n    /* \"contracts/Pool/PoolPig.sol\":17393:17409  _uniswapV2Router */\n  dup4\n    /* \"contracts/Pool/PoolPig.sol\":17393:17414  _uniswapV2Router.WETH */\n  0xffffffffffffffffffffffffffffffffffffffff\n  and\n  0xad5c4648\n    /* \"contracts/Pool/PoolPig.sol\":17393:17416  _uniswapV2Router.WETH() */\n  mload(0x40)\n  dup2\n  0xffffffff\n  and\n  0xe0\n  shl\n  dup2\n  mstore\n  0x04\n  add\n  0x20\n  mload(0x40)\n  dup1\n  dup4\n  sub\n  dup2\n  dup7\n  dup1\n  extcodesize\n  iszero\n  dup1\n  iszero\n  tag_17\n  jumpi\n  0x00\n  dup1\n  revert\ntag_17:\n  pop\n  gas\n  staticcall\n  iszero\n  dup1\n  iszero\n  tag_19\n  jumpi\n  returndatasize\n  0x00\n  dup1\n  returndatacopy\n  revert(0x00, returndatasize)\ntag_19:\n  pop\n  pop\n  pop\n  pop\n  mload(0x40)\n  returndatasize\n  0x20\n  dup2\n  lt\n  iszero\n  tag_20\n  jumpi\n  0x00\n  dup1\n  revert\ntag_20:\n  dup2\n  add\n  swap1\n  dup1\n  dup1\n  mload\n  swap1\n  0x20\n  add\n  swap1\n  swap3\n  swap2\n  swap1\n  pop\n  pop\n  pop\n    /* \"contracts/Pool/PoolPig.sol\":17308:17417  IUniswapV2Factory(_uniswapV2Router.factory())... */\n  mload(0x40)\n  dup4\n  0xffffffff\n  and\n  0xe0\n  shl\n  dup2\n  mstore\n  0x04\n  add\n  dup1\n  dup4\n  0xffffffffffffffffffffffffffffffffffffffff\n  and\n  dup2\n  mstore\n  0x20\n  add\n  dup3\n  0xffffffffffffffffffffffffffffffffffffffff\n  and\n  dup2\n  mstore\n  0x20\n  add\n  swap3\n  pop\n  pop\n  pop\n  0x20\n  mload(0x40)\n  dup1\n  dup4\n  sub\n  dup2\n  0x00\n  dup8\n  dup1\n  extcodesize\n  iszero\n  dup1\n  iszero\n  tag_21\n  jumpi\n  0x00\n  dup1\n  revert\ntag_21:\n  pop\n  gas\n  call\n  iszero\n  dup1\n  iszero\n  tag_23\n  jumpi\n  returndatasize\n  0x00\n  dup1\n  returndatacopy\n  revert(0x00, returndatasize)\ntag_23:\n  pop\n  pop\n  pop\n  pop\n  mload(0x40)\n  returndatasize\n  0x20\n  dup2\n  lt\n  iszero\n  tag_24\n  jumpi\n  0x00\n  dup1\n  revert\ntag_24:\n  dup2\n  add\n  swap1\n  dup1\n  dup1\n  mload\n  swap1\n  0x20\n  add\n  swap1\n  swap3\n  swap2\n  swap1\n  pop\n  pop\n  pop\n    /* \"contracts/Pool/PoolPig.sol\":17292:17417  uniswapV2Pair = IUniswapV2Factory(_uniswapV2Router.factory())... */\n  0xffffffffffffffffffffffffffffffffffffffff\n  and\n  0xa0\n  dup2\n  0xffffffffffffffffffffffffffffffffffffffff\n  and\n  0x60\n  shl\n  dup2\n  mstore\n  pop\n  pop\n    /* \"contracts/Pool/PoolPig.sol\":17496:17512  _uniswapV2Router */\n  dup1\n    /* \"contracts/Pool/PoolPig.sol\":17478:17512  uniswapV2Router = _uniswapV2Router */\n  0xffffffffffffffffffffffffffffffffffffffff\n  and\n  0x80\n  dup2\n  0xffffffffffffffffffffffffffffffffffffffff\n  and\n  0x60\n  shl\n  dup2\n  mstore\n  pop\n  pop\n    /* \"contracts/Pool/PoolPig.sol\":17612:17616  true */\n  0x01\n    /* \"contracts/Pool/PoolPig.sol\":17582:17600  _isExcludedFromFee */\n  0x06\n    /* \"contracts/Pool/PoolPig.sol\":17582:17609  _isExcludedFromFee[owner()] */\n  0x00\n    /* \"contracts/Pool/PoolPig.sol\":17601:17608  owner() */\n  tag_25\n    /* \"contracts/Pool/PoolPig.sol\":17601:17606  owner */\n  shl(0x20, tag_26)\n    /* \"contracts/Pool/PoolPig.sol\":17601:17608  owner() */\n  0x20\n  shr\n  jump\t// in\ntag_25:\n    /* \"contracts/Pool/PoolPig.sol\":17582:17609  _isExcludedFromFee[owner()] */\n  0xffffffffffffffffffffffffffffffffffffffff\n  and\n  0xffffffffffffffffffffffffffffffffffffffff\n  and\n  dup2\n  mstore\n  0x20\n  add\n  swap1\n  dup2\n  mstore\n  0x20\n  add\n  0x00\n  keccak256\n  0x00\n    /* \"contracts/Pool/PoolPig.sol\":17582:17616  _isExcludedFromFee[owner()] = true */\n  0x0100\n  exp\n  dup2\n  sload\n  dup2\n  0xff\n  mul\n  not\n  and\n  swap1\n  dup4\n  iszero\n  iszero\n  mul\n  or\n  swap1\n  sstore\n  pop\n    /* \"contracts/Pool/PoolPig.sol\":17662:17666  true */\n  0x01\n    /* \"contracts/Pool/PoolPig.sol\":17626:17644  _isExcludedFromFee */\n  0x06\n    /* \"contracts/Pool/PoolPig.sol\":17626:17659  _isExcludedFromFee[address(this)] */\n  0x00\n    /* \"contracts/Pool/PoolPig.sol\":17653:17657  this */\n  address\n    /* \"contracts/Pool/PoolPig.sol\":17626:17659  _isExcludedFromFee[address(this)] */\n  0xffffffffffffffffffffffffffffffffffffffff\n  and\n  0xffffffffffffffffffffffffffffffffffffffff\n  and\n  dup2\n  mstore\n  0x20\n  add\n  swap1\n  dup2\n  mstore\n  0x20\n  add\n  0x00\n  keccak256\n  0x00\n    /* \"contracts/Pool/PoolPig.sol\":17626:17666  _isExcludedFromFee[address(this)] = true */\n  0x0100\n  exp\n  dup2\n  sload\n  dup2\n  0xff\n  mul\n  not\n  and\n  swap1\n  dup4\n  iszero\n  iszero\n  mul\n  or\n  swap1\n  sstore\n  pop\n    /* \"contracts/Pool/PoolPig.sol\":17718:17722  true */\n  0x01\n    /* \"contracts/Pool/PoolPig.sol\":17676:17694  _isExcludedFromFee */\n  0x06\n    /* \"contracts/Pool/PoolPig.sol\":17676:17715  _isExcludedFromFee[_developmentAddress] */\n  0x00\n    /* \"contracts/Pool/PoolPig.sol\":17695:17714  _developmentAddress */\n  0x09\n  0x00\n  swap1\n  sload\n  swap1\n  0x0100\n  exp\n  swap1\n  div\n  0xffffffffffffffffffffffffffffffffffffffff\n  and\n    /* \"contracts/Pool/PoolPig.sol\":17676:17715  _isExcludedFromFee[_developmentAddress] */\n  0xffffffffffffffffffffffffffffffffffffffff\n  and\n  0xffffffffffffffffffffffffffffffffffffffff\n  and\n  dup2\n  mstore\n  0x20\n  add\n  swap1\n  dup2\n  mstore\n  0x20\n  add\n  0x00\n  keccak256\n  0x00\n    /* \"contracts/Pool/PoolPig.sol\":17676:17722  _isExcludedFromFee[_developmentAddress] = true */\n  0x0100\n  exp\n  dup2\n  sload\n  dup2\n  0xff\n  mul\n  not\n  and\n  swap1\n  dup4\n  iszero\n  iszero\n  mul\n  or\n  swap1\n  sstore\n  pop\n    /* \"contracts/Pool/PoolPig.sol\":17772:17776  true */\n  0x01\n    /* \"contracts/Pool/PoolPig.sol\":17732:17750  _isExcludedFromFee */\n  0x06\n    /* \"contracts/Pool/PoolPig.sol\":17732:17769  _isExcludedFromFee[_marketingAddress] */\n  0x00\n    /* \"contracts/Pool/PoolPig.sol\":17751:17768  _marketingAddress */\n  0x0a\n  0x00\n  swap1\n  sload\n  swap1\n  0x0100\n  exp\n  swap1\n  div\n  0xffffffffffffffffffffffffffffffffffffffff\n  and\n    /* \"contracts/Pool/PoolPig.sol\":17732:17769  _isExcludedFromFee[_marketingAddress] */\n  0xffffffffffffffffffffffffffffffffffffffff\n  and\n  0xffffffffffffffffffffffffffffffffffffffff\n  and\n  dup2\n  mstore\n  0x20\n  add\n  swap1\n  dup2\n  mstore\n  0x20\n  add\n  0x00\n  keccak256\n  0x00\n    /* \"contracts/Pool/PoolPig.sol\":17732:17776  _isExcludedFromFee[_marketingAddress] = true */\n  0x0100\n  exp\n  dup2\n  sload\n  dup2\n  0xff\n  mul\n  not\n  and\n  swap1\n  dup4\n  iszero\n  iszero\n  mul\n  or\n  swap1\n  sstore\n  pop\n    /* \"contracts/Pool/PoolPig.sol\":17821:17833  _msgSender() */\n  tag_27\n    /* \"contracts/Pool/PoolPig.sol\":17821:17831  _msgSender */\n  shl(0x20, tag_10)\n    /* \"contracts/Pool/PoolPig.sol\":17821:17833  _msgSender() */\n  0x20\n  shr\n  jump\t// in\ntag_27:\n    /* \"contracts/Pool/PoolPig.sol\":17800:17843  Transfer(address(0), _msgSender(), _tTotal) */\n  0xffffffffffffffffffffffffffffffffffffffff\n  and\n    /* \"contracts/Pool/PoolPig.sol\":17817:17818  0 */\n  0x00\n    /* \"contracts/Pool/PoolPig.sol\":17800:17843  Transfer(address(0), _msgSender(), _tTotal) */\n  0xffffffffffffffffffffffffffffffffffffffff\n  and\n  0xddf252ad1be2c89b69c2b068fc378daa952ba7f163c4a11628f55a4df523b3ef\n    /* \"contracts/Pool/PoolPig.sol\":15958:15976  1000000000 * 10**9 */\n  0x0de0b6b3a7640000\n    /* \"contracts/Pool/PoolPig.sol\":17800:17843  Transfer(address(0), _msgSender(), _tTotal) */\n  mload(0x40)\n  dup1\n  dup3\n  dup2\n  mstore\n  0x20\n  add\n  swap2\n  pop\n  pop\n  mload(0x40)\n  dup1\n  swap2\n  sub\n  swap1\n  log3\n    /* \"contracts/Pool/PoolPig.sol\":17082:17850  constructor () public {... */\n  pop\n    /* \"contracts/Pool/PoolPig.sol\":15130:33769  contract WorldStepToken is Context, IERC20, Ownable {... */\n  jump(tag_28)\n    /* \"contracts/Pool/PoolPig.sol\":2255:2359  function _msgSender() internal view virtual returns (address payable) {... */\ntag_10:\n    /* \"contracts/Pool/PoolPig.sol\":2308:2323  address payable */\n  0x00\n    /* \"contracts/Pool/PoolPig.sol\":2342:2352  msg.sender */\n  caller\n    /* \"contracts/Pool/PoolPig.sol\":2335:2352  return msg.sender */\n  swap1\n  pop\n    /* \"contracts/Pool/PoolPig.sol\":2255:2359  function _msgSender() internal view virtual returns (address payable) {... */\n  swap1\n  jump\t// out\n    /* \"contracts/Pool/PoolPig.sol\":5831:5908  function owner() public view returns (address) {... */\ntag_26:\n    /* \"contracts/Pool/PoolPig.sol\":5869:5876  address */\n  0x00\n    /* \"contracts/Pool/PoolPig.sol\":5895:5901  _owner */\n  dup1\n  0x00\n  swap1\n  sload\n  swap1\n  0x0100\n  exp\n  swap1\n  div\n  0xffffffffffffffffffffffffffffffffffffffff\n  and\n    /* \"contracts/Pool/PoolPig.sol\":5888:5901  return _owner */\n  swap1\n  pop\n    /* \"contracts/Pool/PoolPig.sol\":5831:5908  function owner() public view returns (address) {... */\n  swap1\n  jump\t// out\n    /* \"contracts/Pool/PoolPig.sol\":15130:33769  contract WorldStepToken is Context, IERC20, Ownable {... */\ntag_3:\n  dup3\n  dup1\n  sload\n  0x01\n  dup2\n  0x01\n  and\n  iszero\n  0x0100\n  mul\n  sub\n  and\n  0x02\n  swap1\n  div\n  swap1\n  0x00\n  mstore\n  keccak256(0x00, 0x20)\n  swap1\n  0x1f\n  add\n  0x20\n  swap1\n  div\n  dup2\n  add\n  swap3\n  dup3\n  0x1f\n  lt\n  tag_32\n  jumpi\n  dup1\n  mload\n  not(0xff)\n  and\n  dup4\n  dup1\n  add\n  or\n  dup6\n  sstore\n  jump(tag_31)\ntag_32:\n  dup3\n  dup1\n  add\n  0x01\n  add\n  dup6\n  sstore\n  dup3\n  iszero\n  tag_31\n  jumpi\n  swap2\n  dup3\n  add\ntag_33:\n  dup3\n  dup2\n  gt\n  iszero\n  tag_34\n  jumpi\n  dup3\n  mload\n  dup3\n  sstore\n  swap2\n  0x20\n  add\n  swap2\n  swap1\n  0x01\n  add\n  swap1\n  jump(tag_33)\ntag_34:\ntag_31:\n  pop\n  swap1\n  pop\n  tag_35\n  swap2\n  swap1\n  tag_36\n  jump\t// in\ntag_35:\n  pop\n  swap1\n  jump\t// out\ntag_36:\ntag_37:\n  dup1\n  dup3\n  gt\n  iszero\n  tag_38\n  jumpi\n  0x00\n  dup2\n  0x00\n  swap1\n  sstore\n  pop\n  0x01\n  add\n  jump(tag_37)\ntag_38:\n  pop\n  swap1\n  jump\t// out\ntag_28:\n  shr(0x60, mload(0x80))\n  shr(0x60, mload(0xa0))\n  codecopy(0x00, dataOffset(sub_0), dataSize(sub_0))\n  assignImmutable(\"0x56d1aacedfc7d536224f9771bf9213a087360049f74dcef1ba0633f85c459fc6\")\n  assignImmutable(\"0xdfbf0bb877c2c5ca067d8597311506e24b894aa65a6fe980502f7e7b5c70fa94\")\n  return(0x00, dataSize(sub_0))\nstop\n\nsub_0: assembly {\n        /* \"contracts/Pool/PoolPig.sol\":15130:33769  contract WorldStepToken is Context, IERC20, Ownable {... */\n      mstore(0x40, 0x80)\n      jumpi(tag_1, lt(calldatasize, 0x04))\n      shr(0xe0, calldataload(0x00))\n      dup1\n      0x5342acb4\n      gt\n      tag_41\n      jumpi\n      dup1\n      0xa457c2d7\n      gt\n      tag_42\n      jumpi\n      dup1\n      0xd543dbeb\n      gt\n      tag_43\n      jumpi\n      dup1\n      0xd543dbeb\n      eq\n      tag_36\n      jumpi\n      dup1\n      0xdd467064\n      eq\n      tag_37\n      jumpi\n      dup1\n      0xdd62ed3e\n      eq\n      tag_38\n      jumpi\n      dup1\n      0xea2f0b37\n      eq\n      tag_39\n      jumpi\n      dup1\n      0xf2fde38b\n      eq\n      tag_40\n      jumpi\n      jump(tag_2)\n    tag_43:\n      dup1\n      0xa457c2d7\n      eq\n      tag_31\n      jumpi\n      dup1\n      0xa69df4b5\n      eq\n      tag_32\n      jumpi\n      dup1\n      0xa9059cbb\n      eq\n      tag_33\n      jumpi\n      dup1\n      0xb6c52324\n      eq\n      tag_34\n      jumpi\n      dup1\n      0xc49b9a80\n      eq\n      tag_35\n      jumpi\n      jump(tag_2)\n    tag_42:\n      dup1\n      0x7d1db4a5\n      gt\n      tag_44\n      jumpi\n      dup1\n      0x7d1db4a5\n      eq\n      tag_26\n      jumpi\n      dup1\n      0x88f82020\n      eq\n      tag_27\n      jumpi\n      dup1\n      0x8da5cb5b\n      eq\n      tag_28\n      jumpi\n      dup1\n      0x8ee88c53\n      eq\n      tag_29\n      jumpi\n      dup1\n      0x95d89b41\n      eq\n      tag_30\n      jumpi\n      jump(tag_2)\n    tag_44:\n      dup1\n      0x5342acb4\n      eq\n      tag_22\n      jumpi\n      dup1\n      0x6bc87c3a\n      eq\n      tag_23\n      jumpi\n      dup1\n      0x70a08231\n      eq\n      tag_24\n      jumpi\n      dup1\n      0x715018a6\n      eq\n      tag_25\n      jumpi\n      jump(tag_2)\n    tag_41:\n      dup1\n      0x313ce567\n      gt\n      tag_45\n      jumpi\n      dup1\n      0x437823ec\n      gt\n      tag_46\n      jumpi\n      dup1\n      0x437823ec\n      eq\n      tag_17\n      jumpi\n      dup1\n      0x4549b039\n      eq\n      tag_18\n      jumpi\n      dup1\n      0x49bd5a5e\n      eq\n      tag_19\n      jumpi\n      dup1\n      0x4a74bb02\n      eq\n      tag_20\n      jumpi\n      dup1\n      0x52390c02\n      eq\n      tag_21\n      jumpi\n      jump(tag_2)\n    tag_46:\n      dup1\n      0x313ce567\n      eq\n      tag_12\n      jumpi\n      dup1\n      0x3685d419\n      eq\n      tag_13\n      jumpi\n      dup1\n      0x39509351\n      eq\n      tag_14\n      jumpi\n      dup1\n      0x3b124fe7\n      eq\n      tag_15\n      jumpi\n      dup1\n      0x3bd5d173\n      eq\n      tag_16\n      jumpi\n      jump(tag_2)\n    tag_45:\n      dup1\n      0x13114a9d\n      gt\n      tag_47\n      jumpi\n      dup1\n      0x13114a9d\n      eq\n      tag_7\n      jumpi\n      dup1\n      0x1694505e\n      eq\n      tag_8\n      jumpi\n      dup1\n      0x18160ddd\n      eq\n      tag_9\n      jumpi\n      dup1\n      0x23b872dd\n      eq\n      tag_10\n      jumpi\n      dup1\n      0x2d838119\n      eq\n      tag_11\n      jumpi\n      jump(tag_2)\n    tag_47:\n      dup1\n      0x0210a83d\n      eq\n      tag_3\n      jumpi\n      dup1\n      0x061c82d0\n      eq\n      tag_4\n      jumpi\n      dup1\n      0x06fdde03\n      eq\n      tag_5\n      jumpi\n      dup1\n      0x095ea7b3\n      eq\n      tag_6\n      jumpi\n      jump(tag_2)\n    tag_1:\n      jumpi(tag_2, calldatasize)\n      stop\n    tag_2:\n      0x00\n      dup1\n      revert\n        /* \"contracts/Pool/PoolPig.sol\":23370:23978  function addInitialLiquidity() public onlyOwner{... */\n    tag_3:\n      callvalue\n      dup1\n      iszero\n      tag_50\n      jumpi\n      0x00\n      dup1\n      revert\n    tag_50:\n      pop\n      tag_51\n      tag_52\n      jump\t// in\n    tag_51:\n      stop\n        /* \"contracts/Pool/PoolPig.sol\":22791:22887  function setTaxFeePercent(uint256 taxFee) external onlyOwner() {... */\n    tag_4:\n      callvalue\n      dup1\n      iszero\n      tag_53\n      jumpi\n      0x00\n      dup1\n      revert\n    tag_53:\n      pop\n      tag_54\n      0x04\n      dup1\n      calldatasize\n      sub\n      0x20\n      dup2\n      lt\n      iszero\n      tag_55\n      jumpi\n      0x00\n      dup1\n      revert\n    tag_55:\n      dup2\n      add\n      swap1\n      dup1\n      dup1\n      calldataload\n      swap1\n      0x20\n      add\n      swap1\n      swap3\n      swap2\n      swap1\n      pop\n      pop\n      pop\n      tag_56\n      jump\t// in\n    tag_54:\n      stop\n        /* \"contracts/Pool/PoolPig.sol\":17856:17937  function name() public view returns (string memory) {... */\n    tag_5:\n      callvalue\n      dup1\n      iszero\n      tag_57\n      jumpi\n      0x00\n      dup1\n      revert\n    tag_57:\n      pop\n      tag_58\n      tag_59\n      jump\t// in\n    tag_58:\n      mload(0x40)\n      dup1\n      dup1\n      0x20\n      add\n      dup3\n      dup2\n      sub\n      dup3\n      mstore\n      dup4\n      dup2\n      dup2\n      mload\n      dup2\n      mstore\n      0x20\n      add\n      swap2\n      pop\n      dup1\n      mload\n      swap1\n      0x20\n      add\n      swap1\n      dup1\n      dup4\n      dup4\n      0x00\n    tag_60:\n      dup4\n      dup2\n      lt\n      iszero\n      tag_62\n      jumpi\n      dup1\n      dup3\n      add\n      mload\n      dup2\n      dup5\n      add\n      mstore\n      0x20\n      dup2\n      add\n      swap1\n      pop\n      jump(tag_60)\n    tag_62:\n      pop\n      pop\n      pop\n      pop\n      swap1\n      pop\n      swap1\n      dup2\n      add\n      swap1\n      0x1f\n      and\n      dup1\n      iszero\n      tag_63\n      jumpi\n      dup1\n      dup3\n      sub\n      dup1\n      mload\n      0x01\n      dup4\n      0x20\n      sub\n      0x0100\n      exp\n      sub\n      not\n      and\n      dup2\n      mstore\n      0x20\n      add\n      swap2\n      pop\n    tag_63:\n      pop\n      swap3\n      pop\n      pop\n      pop\n      mload(0x40)\n      dup1\n      swap2\n      sub\n      swap1\n      return\n        /* \"contracts/Pool/PoolPig.sol\":18738:18896  function approve(address spender, uint256 amount) public override returns (bool) {... */\n    tag_6:\n      callvalue\n      dup1\n      iszero\n      tag_64\n      jumpi\n      0x00\n      dup1\n      revert\n    tag_64:\n      pop\n      tag_65\n      0x04\n      dup1\n      calldatasize\n      sub\n      0x40\n      dup2\n      lt\n      iszero\n      tag_66\n      jumpi\n      0x00\n      dup1\n      revert\n    tag_66:\n      dup2\n      add\n      swap1\n      dup1\n      dup1\n      calldataload\n      0xffffffffffffffffffffffffffffffffffffffff\n      and\n      swap1\n      0x20\n      add\n      swap1\n      swap3\n      swap2\n      swap1\n      dup1\n      calldataload\n      swap1\n      0x20\n      add\n      swap1\n      swap3\n      swap2\n      swap1\n      pop\n      pop\n      pop\n      tag_67\n      jump\t// in\n    tag_65:\n      mload(0x40)\n      dup1\n      dup3\n      iszero\n      iszero\n      dup2\n      mstore\n      0x20\n      add\n      swap2\n      pop\n      pop\n      mload(0x40)\n      dup1\n      swap2\n      sub\n      swap1\n      return\n        /* \"contracts/Pool/PoolPig.sol\":19834:19919  function totalFees() public view returns (uint256) {... */\n    tag_7:\n      callvalue\n      dup1\n      iszero\n      tag_68\n      jumpi\n      0x00\n      dup1\n      revert\n    tag_68:\n      pop\n      tag_69\n      tag_70\n      jump\t// in\n    tag_69:\n      mload(0x40)\n      dup1\n      dup3\n      dup2\n      mstore\n      0x20\n      add\n      swap2\n      pop\n      pop\n      mload(0x40)\n      dup1\n      swap2\n      sub\n      swap1\n      return\n        /* \"contracts/Pool/PoolPig.sol\":16368:16419  IUniswapV2Router02 public immutable uniswapV2Router */\n    tag_8:\n      callvalue\n      dup1\n      iszero\n      tag_71\n      jumpi\n      0x00\n      dup1\n      revert\n    tag_71:\n      pop\n      tag_72\n      tag_73\n      jump\t// in\n    tag_72:\n      mload(0x40)\n      dup1\n      dup3\n      0xffffffffffffffffffffffffffffffffffffffff\n      and\n      dup2\n      mstore\n      0x20\n      add\n      swap2\n      pop\n      pop\n      mload(0x40)\n      dup1\n      swap2\n      sub\n      swap1\n      return\n        /* \"contracts/Pool/PoolPig.sol\":18121:18214  function totalSupply() public view override returns (uint256) {... */\n    tag_9:\n      callvalue\n      dup1\n      iszero\n      tag_74\n      jumpi\n      0x00\n      dup1\n      revert\n    tag_74:\n      pop\n      tag_75\n      tag_76\n      jump\t// in\n    tag_75:\n      mload(0x40)\n      dup1\n      dup3\n      dup2\n      mstore\n      0x20\n      add\n      swap2\n      pop\n      pop\n      mload(0x40)\n      dup1\n      swap2\n      sub\n      swap1\n      return\n        /* \"contracts/Pool/PoolPig.sol\":18902:19211  function transferFrom(address sender, address recipient, uint256 amount) public override returns (bool) {... */\n    tag_10:\n      callvalue\n      dup1\n      iszero\n      tag_77\n      jumpi\n      0x00\n      dup1\n      revert\n    tag_77:\n      pop\n      tag_78\n      0x04\n      dup1\n      calldatasize\n      sub\n      0x60\n      dup2\n      lt\n      iszero\n      tag_79\n      jumpi\n      0x00\n      dup1\n      revert\n    tag_79:\n      dup2\n      add\n      swap1\n      dup1\n      dup1\n      calldataload\n      0xffffffffffffffffffffffffffffffffffffffff\n      and\n      swap1\n      0x20\n      add\n      swap1\n      swap3\n      swap2\n      swap1\n      dup1\n      calldataload\n      0xffffffffffffffffffffffffffffffffffffffff\n      and\n      swap1\n      0x20\n      add\n      swap1\n      swap3\n      swap2\n      swap1\n      dup1\n      calldataload\n      swap1\n      0x20\n      add\n      swap1\n      swap3\n      swap2\n      swap1\n      pop\n      pop\n      pop\n      tag_80\n      jump\t// in\n    tag_78:\n      mload(0x40)\n      dup1\n      dup3\n      iszero\n      iszero\n      dup2\n      mstore\n      0x20\n      add\n      swap2\n      pop\n      pop\n      mload(0x40)\n      dup1\n      swap2\n      sub\n      swap1\n      return\n        /* \"contracts/Pool/PoolPig.sol\":20734:20983  function tokenFromReflection(uint256 rAmount) public view returns(uint256) {... */\n    tag_11:\n      callvalue\n      dup1\n      iszero\n      tag_81\n      jumpi\n      0x00\n      dup1\n      revert\n    tag_81:\n      pop\n      tag_82\n      0x04\n      dup1\n      calldatasize\n      sub\n      0x20\n      dup2\n      lt\n      iszero\n      tag_83\n      jumpi\n      0x00\n      dup1\n      revert\n    tag_83:\n      dup2\n      add\n      swap1\n      dup1\n      dup1\n      calldataload\n      swap1\n      0x20\n      add\n      swap1\n      swap3\n      swap2\n      swap1\n      pop\n      pop\n      pop\n      tag_84\n      jump\t// in\n    tag_82:\n      mload(0x40)\n      dup1\n      dup3\n      dup2\n      mstore\n      0x20\n      add\n      swap2\n      pop\n      pop\n      mload(0x40)\n      dup1\n      swap2\n      sub\n      swap1\n      return\n        /* \"contracts/Pool/PoolPig.sol\":18034:18115  function decimals() public view returns (uint8) {... */\n    tag_12:\n      callvalue\n      dup1\n      iszero\n      tag_85\n      jumpi\n      0x00\n      dup1\n      revert\n    tag_85:\n      pop\n      tag_86\n      tag_87\n      jump\t// in\n    tag_86:\n      mload(0x40)\n      dup1\n      dup3\n      0xff\n      and\n      dup2\n      mstore\n      0x20\n      add\n      swap2\n      pop\n      pop\n      mload(0x40)\n      dup1\n      swap2\n      sub\n      swap1\n      return\n        /* \"contracts/Pool/PoolPig.sol\":21434:21902  function includeInReward(address account) external onlyOwner() {... */\n    tag_13:\n      callvalue\n      dup1\n      iszero\n      tag_88\n      jumpi\n      0x00\n      dup1\n      revert\n    tag_88:\n      pop\n      tag_89\n      0x04\n      dup1\n      calldatasize\n      sub\n      0x20\n      dup2\n      lt\n      iszero\n      tag_90\n      jumpi\n      0x00\n      dup1\n      revert\n    tag_90:\n      dup2\n      add\n      swap1\n      dup1\n      dup1\n      calldataload\n      0xffffffffffffffffffffffffffffffffffffffff\n      and\n      swap1\n      0x20\n      add\n      swap1\n      swap3\n      swap2\n      swap1\n      pop\n      pop\n      pop\n      tag_91\n      jump\t// in\n    tag_89:\n      stop\n        /* \"contracts/Pool/PoolPig.sol\":19217:19432  function increaseAllowance(address spender, uint256 addedValue) public virtual returns (bool) {... */\n    tag_14:\n      callvalue\n      dup1\n      iszero\n      tag_92\n      jumpi\n      0x00\n      dup1\n      revert\n    tag_92:\n      pop\n      tag_93\n      0x04\n      dup1\n      calldatasize\n      sub\n      0x40\n      dup2\n      lt\n      iszero\n      tag_94\n      jumpi\n      0x00\n      dup1\n      revert\n    tag_94:\n      dup2\n      add\n      swap1\n      dup1\n      dup1\n      calldataload\n      0xffffffffffffffffffffffffffffffffffffffff\n      and\n      swap1\n      0x20\n      add\n      swap1\n      swap3\n      swap2\n      swap1\n      dup1\n      calldataload\n      swap1\n      0x20\n      add\n      swap1\n      swap3\n      swap2\n      swap1\n      pop\n      pop\n      pop\n      tag_95\n      jump\t// in\n    tag_93:\n      mload(0x40)\n      dup1\n      dup3\n      iszero\n      iszero\n      dup2\n      mstore\n      0x20\n      add\n      swap2\n      pop\n      pop\n      mload(0x40)\n      dup1\n      swap2\n      sub\n      swap1\n      return\n        /* \"contracts/Pool/PoolPig.sol\":16186:16212  uint256 public _taxFee = 2 */\n    tag_15:\n      callvalue\n      dup1\n      iszero\n      tag_96\n      jumpi\n      0x00\n      dup1\n      revert\n    tag_96:\n      pop\n      tag_97\n      tag_98\n      jump\t// in\n    tag_97:\n      mload(0x40)\n      dup1\n      dup3\n      dup2\n      mstore\n      0x20\n      add\n      swap2\n      pop\n      pop\n      mload(0x40)\n      dup1\n      swap2\n      sub\n      swap1\n      return\n        /* \"contracts/Pool/PoolPig.sol\":19925:20295  function deliver(uint256 tAmount) public {... */\n    tag_16:\n      callvalue\n      dup1\n      iszero\n      tag_99\n      jumpi\n      0x00\n      dup1\n      revert\n    tag_99:\n      pop\n      tag_100\n      0x04\n      dup1\n      calldatasize\n      sub\n      0x20\n      dup2\n      lt\n      iszero\n      tag_101\n      jumpi\n      0x00\n      dup1\n      revert\n    tag_101:\n      dup2\n      add\n      swap1\n      dup1\n      dup1\n      calldataload\n      swap1\n      0x20\n      add\n      swap1\n      swap3\n      swap2\n      swap1\n      pop\n      pop\n      pop\n      tag_102\n      jump\t// in\n    tag_100:\n      stop\n        /* \"contracts/Pool/PoolPig.sol\":22554:22663  function excludeFromFee(address account) public onlyOwner {... */\n    tag_17:\n      callvalue\n      dup1\n      iszero\n      tag_103\n      jumpi\n      0x00\n      dup1\n      revert\n    tag_103:\n      pop\n      tag_104\n      0x04\n      dup1\n      calldatasize\n      sub\n      0x20\n      dup2\n      lt\n      iszero\n      tag_105\n      jumpi\n      0x00\n      dup1\n      revert\n    tag_105:\n      dup2\n      add\n      swap1\n      dup1\n      dup1\n      calldataload\n      0xffffffffffffffffffffffffffffffffffffffff\n      and\n      swap1\n      0x20\n      add\n      swap1\n      swap3\n      swap2\n      swap1\n      pop\n      pop\n      pop\n      tag_106\n      jump\t// in\n    tag_104:\n      stop\n        /* \"contracts/Pool/PoolPig.sol\":20301:20728  function reflectionFromToken(uint256 tAmount, bool deductTransferFee) public view returns(uint256) {... */\n    tag_18:\n      callvalue\n      dup1\n      iszero\n      tag_107\n      jumpi\n      0x00\n      dup1\n      revert\n    tag_107:\n      pop\n      tag_108\n      0x04\n      dup1\n      calldatasize\n      sub\n      0x40\n      dup2\n      lt\n      iszero\n      tag_109\n      jumpi\n      0x00\n      dup1\n      revert\n    tag_109:\n      dup2\n      add\n      swap1\n      dup1\n      dup1\n      calldataload\n      swap1\n      0x20\n      add\n      swap1\n      swap3\n      swap2\n      swap1\n      dup1\n      calldataload\n      iszero\n      iszero\n      swap1\n      0x20\n      add\n      swap1\n      swap3\n      swap2\n      swap1\n      pop\n      pop\n      pop\n      tag_110\n      jump\t// in\n    tag_108:\n      mload(0x40)\n      dup1\n      dup3\n      dup2\n      mstore\n      0x20\n      add\n      swap2\n      pop\n      pop\n      mload(0x40)\n      dup1\n      swap2\n      sub\n      swap1\n      return\n        /* \"contracts/Pool/PoolPig.sol\":16425:16463  address public immutable uniswapV2Pair */\n    tag_19:\n      callvalue\n      dup1\n      iszero\n      tag_111\n      jumpi\n      0x00\n      dup1\n      revert\n    tag_111:\n      pop\n      tag_112\n      tag_113\n      jump\t// in\n    tag_112:\n      mload(0x40)\n      dup1\n      dup3\n      0xffffffffffffffffffffffffffffffffffffffff\n      and\n      dup2\n      mstore\n      0x20\n      add\n      swap2\n      pop\n      pop\n      mload(0x40)\n      dup1\n      swap2\n      sub\n      swap1\n      return\n        /* \"contracts/Pool/PoolPig.sol\":16501:16541  bool public swapAndLiquifyEnabled = true */\n    tag_20:\n      callvalue\n      dup1\n      iszero\n      tag_114\n      jumpi\n      0x00\n      dup1\n      revert\n    tag_114:\n      pop\n      tag_115\n      tag_116\n      jump\t// in\n    tag_115:\n      mload(0x40)\n      dup1\n      dup3\n      iszero\n      iszero\n      dup2\n      mstore\n      0x20\n      add\n      swap2\n      pop\n      pop\n      mload(0x40)\n      dup1\n      swap2\n      sub\n      swap1\n      return\n        /* \"contracts/Pool/PoolPig.sol\":20989:21428  function excludeFromReward(address account) public onlyOwner() {... */\n    tag_21:\n      callvalue\n      dup1\n      iszero\n      tag_117\n      jumpi\n      0x00\n      dup1\n      revert\n    tag_117:\n      pop\n      tag_118\n      0x04\n      dup1\n      calldatasize\n      sub\n      0x20\n      dup2\n      lt\n      iszero\n      tag_119\n      jumpi\n      0x00\n      dup1\n      revert\n    tag_119:\n      dup2\n      add\n      swap1\n      dup1\n      dup1\n      calldataload\n      0xffffffffffffffffffffffffffffffffffffffff\n      and\n      swap1\n      0x20\n      add\n      swap1\n      swap3\n      swap2\n      swap1\n      pop\n      pop\n      pop\n      tag_120\n      jump\t// in\n    tag_118:\n      stop\n        /* \"contracts/Pool/PoolPig.sol\":27205:27326  function isExcludedFromFee(address account) public view returns(bool) {... */\n    tag_22:\n      callvalue\n      dup1\n      iszero\n      tag_121\n      jumpi\n      0x00\n      dup1\n      revert\n    tag_121:\n      pop\n      tag_122\n      0x04\n      dup1\n      calldatasize\n      sub\n      0x20\n      dup2\n      lt\n      iszero\n      tag_123\n      jumpi\n      0x00\n      dup1\n      revert\n    tag_123:\n      dup2\n      add\n      swap1\n      dup1\n      dup1\n      calldataload\n      0xffffffffffffffffffffffffffffffffffffffff\n      and\n      swap1\n      0x20\n      add\n      swap1\n      swap3\n      swap2\n      swap1\n      pop\n      pop\n      pop\n      tag_124\n      jump\t// in\n    tag_122:\n      mload(0x40)\n      dup1\n      dup3\n      iszero\n      iszero\n      dup2\n      mstore\n      0x20\n      add\n      swap2\n      pop\n      pop\n      mload(0x40)\n      dup1\n      swap2\n      sub\n      swap1\n      return\n        /* \"contracts/Pool/PoolPig.sol\":16270:16302  uint256 public _liquidityFee = 3 */\n    tag_23:\n      callvalue\n      dup1\n      iszero\n      tag_125\n      jumpi\n      0x00\n      dup1\n      revert\n    tag_125:\n      pop\n      tag_126\n      tag_127\n      jump\t// in\n    tag_126:\n      mload(0x40)\n      dup1\n      dup3\n      dup2\n      mstore\n      0x20\n      add\n      swap2\n      pop\n      pop\n      mload(0x40)\n      dup1\n      swap2\n      sub\n      swap1\n      return\n        /* \"contracts/Pool/PoolPig.sol\":18220:18415  function balanceOf(address account) public view override returns (uint256) {... */\n    tag_24:\n      callvalue\n      dup1\n      iszero\n      tag_128\n      jumpi\n      0x00\n      dup1\n      revert\n    tag_128:\n      pop\n      tag_129\n      0x04\n      dup1\n      calldatasize\n      sub\n      0x20\n      dup2\n      lt\n      iszero\n      tag_130\n      jumpi\n      0x00\n      dup1\n      revert\n    tag_130:\n      dup2\n      add\n      swap1\n      dup1\n      dup1\n      calldataload\n      0xffffffffffffffffffffffffffffffffffffffff\n      and\n      swap1\n      0x20\n      add\n      swap1\n      swap3\n      swap2\n      swap1\n      pop\n      pop\n      pop\n      tag_131\n      jump\t// in\n    tag_129:\n      mload(0x40)\n      dup1\n      dup3\n      dup2\n      mstore\n      0x20\n      add\n      swap2\n      pop\n      pop\n      mload(0x40)\n      dup1\n      swap2\n      sub\n      swap1\n      return\n        /* \"contracts/Pool/PoolPig.sol\":6118:6263  function renounceOwnership() public virtual onlyOwner {... */\n    tag_25:\n      callvalue\n      dup1\n      iszero\n      tag_132\n      jumpi\n      0x00\n      dup1\n      revert\n    tag_132:\n      pop\n      tag_133\n      tag_134\n      jump\t// in\n    tag_133:\n      stop\n        /* \"contracts/Pool/PoolPig.sol\":16585:16632  uint256 public _maxTxAmount = 500000000 * 10**9 */\n    tag_26:\n      callvalue\n      dup1\n      iszero\n      tag_135\n      jumpi\n      0x00\n      dup1\n      revert\n    tag_135:\n      pop\n      tag_136\n      tag_137\n      jump\t// in\n    tag_136:\n      mload(0x40)\n      dup1\n      dup3\n      dup2\n      mstore\n      0x20\n      add\n      swap2\n      pop\n      pop\n      mload(0x40)\n      dup1\n      swap2\n      sub\n      swap1\n      return\n        /* \"contracts/Pool/PoolPig.sol\":19710:19828  function isExcludedFromReward(address account) public view returns (bool) {... */\n    tag_27:\n      callvalue\n      dup1\n      iszero\n      tag_138\n      jumpi\n      0x00\n      dup1\n      revert\n    tag_138:\n      pop\n      tag_139\n      0x04\n      dup1\n      calldatasize\n      sub\n      0x20\n      dup2\n      lt\n      iszero\n      tag_140\n      jumpi\n      0x00\n      dup1\n      revert\n    tag_140:\n      dup2\n      add\n      swap1\n      dup1\n      dup1\n      calldataload\n      0xffffffffffffffffffffffffffffffffffffffff\n      and\n      swap1\n      0x20\n      add\n      swap1\n      swap3\n      swap2\n      swap1\n      pop\n      pop\n      pop\n      tag_141\n      jump\t// in\n    tag_139:\n      mload(0x40)\n      dup1\n      dup3\n      iszero\n      iszero\n      dup2\n      mstore\n      0x20\n      add\n      swap2\n      pop\n      pop\n      mload(0x40)\n      dup1\n      swap2\n      sub\n      swap1\n      return\n        /* \"contracts/Pool/PoolPig.sol\":5831:5908  function owner() public view returns (address) {... */\n    tag_28:\n      callvalue\n      dup1\n      iszero\n      tag_142\n      jumpi\n      0x00\n      dup1\n      revert\n    tag_142:\n      pop\n      tag_143\n      tag_144\n      jump\t// in\n    tag_143:\n      mload(0x40)\n      dup1\n      dup3\n      0xffffffffffffffffffffffffffffffffffffffff\n      and\n      dup2\n      mstore\n      0x20\n      add\n      swap2\n      pop\n      pop\n      mload(0x40)\n      dup1\n      swap2\n      sub\n      swap1\n      return\n        /* \"contracts/Pool/PoolPig.sol\":22897:23017  function setLiquidityFeePercent(uint256 liquidityFee) external onlyOwner() {... */\n    tag_29:\n      callvalue\n      dup1\n      iszero\n      tag_145\n      jumpi\n      0x00\n      dup1\n      revert\n    tag_145:\n      pop\n      tag_146\n      0x04\n      dup1\n      calldatasize\n      sub\n      0x20\n      dup2\n      lt\n      iszero\n      tag_147\n      jumpi\n      0x00\n      dup1\n      revert\n    tag_147:\n      dup2\n      add\n      swap1\n      dup1\n      dup1\n      calldataload\n      swap1\n      0x20\n      add\n      swap1\n      swap3\n      swap2\n      swap1\n      pop\n      pop\n      pop\n      tag_148\n      jump\t// in\n    tag_146:\n      stop\n        /* \"contracts/Pool/PoolPig.sol\":17943:18028  function symbol() public view returns (string memory) {... */\n    tag_30:\n      callvalue\n      dup1\n      iszero\n      tag_149\n      jumpi\n      0x00\n      dup1\n      revert\n    tag_149:\n      pop\n      tag_150\n      tag_151\n      jump\t// in\n    tag_150:\n      mload(0x40)\n      dup1\n      dup1\n      0x20\n      add\n      dup3\n      dup2\n      sub\n      dup3\n      mstore\n      dup4\n      dup2\n      dup2\n      mload\n      dup2\n      mstore\n      0x20\n      add\n      swap2\n      pop\n      dup1\n      mload\n      swap1\n      0x20\n      add\n      swap1\n      dup1\n      dup4\n      dup4\n      0x00\n    tag_152:\n      dup4\n      dup2\n      lt\n      iszero\n      tag_154\n      jumpi\n      dup1\n      dup3\n      add\n      mload\n      dup2\n      dup5\n      add\n      mstore\n      0x20\n      dup2\n      add\n      swap1\n      pop\n      jump(tag_152)\n    tag_154:\n      pop\n      pop\n      pop\n      pop\n      swap1\n      pop\n      swap1\n      dup2\n      add\n      swap1\n      0x1f\n      and\n      dup1\n      iszero\n      tag_155\n      jumpi\n      dup1\n      dup3\n      sub\n      dup1\n      mload\n      0x01\n      dup4\n      0x20\n      sub\n      0x0100\n      exp\n      sub\n      not\n      and\n      dup2\n      mstore\n      0x20\n      add\n      swap2\n      pop\n    tag_155:\n      pop\n      swap3\n      pop\n      pop\n      pop\n      mload(0x40)\n      dup1\n      swap2\n      sub\n      swap1\n      return\n        /* \"contracts/Pool/PoolPig.sol\":19438:19704  function decreaseAllowance(address spender, uint256 subtractedValue) public virtual returns (bool) {... */\n    tag_31:\n      callvalue\n      dup1\n      iszero\n      tag_156\n      jumpi\n      0x00\n      dup1\n      revert\n    tag_156:\n      pop\n      tag_157\n      0x04\n      dup1\n      calldatasize\n      sub\n      0x40\n      dup2\n      lt\n      iszero\n      tag_158\n      jumpi\n      0x00\n      dup1\n      revert\n    tag_158:\n      dup2\n      add\n      swap1\n      dup1\n      dup1\n      calldataload\n      0xffffffffffffffffffffffffffffffffffffffff\n      and\n      swap1\n      0x20\n      add\n      swap1\n      swap3\n      swap2\n      swap1\n      dup1\n      calldataload\n      swap1\n      0x20\n      add\n      swap1\n      swap3\n      swap2\n      swap1\n      pop\n      pop\n      pop\n      tag_159\n      jump\t// in\n    tag_157:\n      mload(0x40)\n      dup1\n      dup3\n      iszero\n      iszero\n      dup2\n      mstore\n      0x20\n      add\n      swap2\n      pop\n      pop\n      mload(0x40)\n      dup1\n      swap2\n      sub\n      swap1\n      return\n        /* \"contracts/Pool/PoolPig.sol\":6957:7245  function unlock() public virtual {... */\n    tag_32:\n      callvalue\n      dup1\n      iszero\n      tag_160\n      jumpi\n      0x00\n      dup1\n      revert\n    tag_160:\n      pop\n      tag_161\n      tag_162\n      jump\t// in\n    tag_161:\n      stop\n        /* \"contracts/Pool/PoolPig.sol\":18421:18585  function transfer(address recipient, uint256 amount) public override returns (bool) {... */\n    tag_33:\n      callvalue\n      dup1\n      iszero\n      tag_163\n      jumpi\n      0x00\n      dup1\n      revert\n    tag_163:\n      pop\n      tag_164\n      0x04\n      dup1\n      calldatasize\n      sub\n      0x40\n      dup2\n      lt\n      iszero\n      tag_165\n      jumpi\n      0x00\n      dup1\n      revert\n    tag_165:\n      dup2\n      add\n      swap1\n      dup1\n      dup1\n      calldataload\n      0xffffffffffffffffffffffffffffffffffffffff\n      and\n      swap1\n      0x20\n      add\n      swap1\n      swap3\n      swap2\n      swap1\n      dup1\n      calldataload\n      swap1\n      0x20\n      add\n      swap1\n      swap3\n      swap2\n      swap1\n      pop\n      pop\n      pop\n      tag_166\n      jump\t// in\n    tag_164:\n      mload(0x40)\n      dup1\n      dup3\n      iszero\n      iszero\n      dup2\n      mstore\n      0x20\n      add\n      swap2\n      pop\n      pop\n      mload(0x40)\n      dup1\n      swap2\n      sub\n      swap1\n      return\n        /* \"contracts/Pool/PoolPig.sol\":6515:6602  function geUnlockTime() public view returns (uint256) {... */\n    tag_34:\n      callvalue\n      dup1\n      iszero\n      tag_167\n      jumpi\n      0x00\n      dup1\n      revert\n    tag_167:\n      pop\n      tag_168\n      tag_169\n      jump\t// in\n    tag_168:\n      mload(0x40)\n      dup1\n      dup3\n      dup2\n      mstore\n      0x20\n      add\n      swap2\n      pop\n      pop\n      mload(0x40)\n      dup1\n      swap2\n      sub\n      swap1\n      return\n        /* \"contracts/Pool/PoolPig.sol\":23190:23358  function setSwapAndLiquifyEnabled(bool _enabled) public onlyOwner {... */\n    tag_35:\n      callvalue\n      dup1\n      iszero\n      tag_170\n      jumpi\n      0x00\n      dup1\n      revert\n    tag_170:\n      pop\n      tag_171\n      0x04\n      dup1\n      calldatasize\n      sub\n      0x20\n      dup2\n      lt\n      iszero\n      tag_172\n      jumpi\n      0x00\n      dup1\n      revert\n    tag_172:\n      dup2\n      add\n      swap1\n      dup1\n      dup1\n      calldataload\n      iszero\n      iszero\n      swap1\n      0x20\n      add\n      swap1\n      swap3\n      swap2\n      swap1\n      pop\n      pop\n      pop\n      tag_173\n      jump\t// in\n    tag_171:\n      stop\n        /* \"contracts/Pool/PoolPig.sol\":23026:23184  function setMaxTxPercent(uint256 maxTxPercent) external onlyOwner() {... */\n    tag_36:\n      callvalue\n      dup1\n      iszero\n      tag_174\n      jumpi\n      0x00\n      dup1\n      revert\n    tag_174:\n      pop\n      tag_175\n      0x04\n      dup1\n      calldatasize\n      sub\n      0x20\n      dup2\n      lt\n      iszero\n      tag_176\n      jumpi\n      0x00\n      dup1\n      revert\n    tag_176:\n      dup2\n      add\n      swap1\n      dup1\n      dup1\n      calldataload\n      swap1\n      0x20\n      add\n      swap1\n      swap3\n      swap2\n      swap1\n      pop\n      pop\n      pop\n      tag_177\n      jump\t// in\n    tag_175:\n      stop\n        /* \"contracts/Pool/PoolPig.sol\":6675:6884  function lock(uint256 time) public virtual onlyOwner {... */\n    tag_37:\n      callvalue\n      dup1\n      iszero\n      tag_178\n      jumpi\n      0x00\n      dup1\n      revert\n    tag_178:\n      pop\n      tag_179\n      0x04\n      dup1\n      calldatasize\n      sub\n      0x20\n      dup2\n      lt\n      iszero\n      tag_180\n      jumpi\n      0x00\n      dup1\n      revert\n    tag_180:\n      dup2\n      add\n      swap1\n      dup1\n      dup1\n      calldataload\n      swap1\n      0x20\n      add\n      swap1\n      swap3\n      swap2\n      swap1\n      pop\n      pop\n      pop\n      tag_181\n      jump\t// in\n    tag_179:\n      stop\n        /* \"contracts/Pool/PoolPig.sol\":18591:18732  function allowance(address owner, address spender) public view override returns (uint256) {... */\n    tag_38:\n      callvalue\n      dup1\n      iszero\n      tag_182\n      jumpi\n      0x00\n      dup1\n      revert\n    tag_182:\n      pop\n      tag_183\n      0x04\n      dup1\n      calldatasize\n      sub\n      0x40\n      dup2\n      lt\n      iszero\n      tag_184\n      jumpi\n      0x00\n      dup1\n      revert\n    tag_184:\n      dup2\n      add\n      swap1\n      dup1\n      dup1\n      calldataload\n      0xffffffffffffffffffffffffffffffffffffffff\n      and\n      swap1\n      0x20\n      add\n      swap1\n      swap3\n      swap2\n      swap1\n      dup1\n      calldataload\n      0xffffffffffffffffffffffffffffffffffffffff\n      and\n      swap1\n      0x20\n      add\n      swap1\n      swap3\n      swap2\n      swap1\n      pop\n      pop\n      pop\n      tag_185\n      jump\t// in\n    tag_183:\n      mload(0x40)\n      dup1\n      dup3\n      dup2\n      mstore\n      0x20\n      add\n      swap2\n      pop\n      pop\n      mload(0x40)\n      dup1\n      swap2\n      sub\n      swap1\n      return\n        /* \"contracts/Pool/PoolPig.sol\":22673:22781  function includeInFee(address account) public onlyOwner {... */\n    tag_39:\n      callvalue\n      dup1\n      iszero\n      tag_186\n      jumpi\n      0x00\n      dup1\n      revert\n    tag_186:\n      pop\n      tag_187\n      0x04\n      dup1\n      calldatasize\n      sub\n      0x20\n      dup2\n      lt\n      iszero\n      tag_188\n      jumpi\n      0x00\n      dup1\n      revert\n    tag_188:\n      dup2\n      add\n      swap1\n      dup1\n      dup1\n      calldataload\n      0xffffffffffffffffffffffffffffffffffffffff\n      and\n      swap1\n      0x20\n      add\n      swap1\n      swap3\n      swap2\n      swap1\n      pop\n      pop\n      pop\n      tag_189\n      jump\t// in\n    tag_187:\n      stop\n        /* \"contracts/Pool/PoolPig.sol\":6269:6509  function transferOwnership(address newOwner) public virtual onlyOwner {... */\n    tag_40:\n      callvalue\n      dup1\n      iszero\n      tag_190\n      jumpi\n      0x00\n      dup1\n      revert\n    tag_190:\n      pop\n      tag_191\n      0x04\n      dup1\n      calldatasize\n      sub\n      0x20\n      dup2\n      lt\n      iszero\n      tag_192\n      jumpi\n      0x00\n      dup1\n      revert\n    tag_192:\n      dup2\n      add\n      swap1\n      dup1\n      dup1\n      calldataload\n      0xffffffffffffffffffffffffffffffffffffffff\n      and\n      swap1\n      0x20\n      add\n      swap1\n      swap3\n      swap2\n      swap1\n      pop\n      pop\n      pop\n      tag_193\n      jump\t// in\n    tag_191:\n      stop\n        /* \"contracts/Pool/PoolPig.sol\":23370:23978  function addInitialLiquidity() public onlyOwner{... */\n    tag_52:\n        /* \"contracts/Pool/PoolPig.sol\":6045:6057  _msgSender() */\n      tag_195\n        /* \"contracts/Pool/PoolPig.sol\":6045:6055  _msgSender */\n      tag_196\n        /* \"contracts/Pool/PoolPig.sol\":6045:6057  _msgSender() */\n      jump\t// in\n    tag_195:\n        /* \"contracts/Pool/PoolPig.sol\":6035:6057  _owner == _msgSender() */\n      0xffffffffffffffffffffffffffffffffffffffff\n      and\n        /* \"contracts/Pool/PoolPig.sol\":6035:6041  _owner */\n      0x00\n      dup1\n      sload\n      swap1\n      0x0100\n      exp\n      swap1\n      div\n      0xffffffffffffffffffffffffffffffffffffffff\n      and\n        /* \"contracts/Pool/PoolPig.sol\":6035:6057  _owner == _msgSender() */\n      0xffffffffffffffffffffffffffffffffffffffff\n      and\n      eq\n        /* \"contracts/Pool/PoolPig.sol\":6027:6094  require(_owner == _msgSender(), \"Ownable: caller is not the owner\") */\n      tag_197\n      jumpi\n      mload(0x40)\n      0x08c379a000000000000000000000000000000000000000000000000000000000\n      dup2\n      mstore\n      0x04\n      add\n      dup1\n      dup1\n      0x20\n      add\n      dup3\n      dup2\n      sub\n      dup3\n      mstore\n      0x20\n      dup2\n      mstore\n      0x20\n      add\n      dup1\n      0x4f776e61626c653a2063616c6c6572206973206e6f7420746865206f776e6572\n      dup2\n      mstore\n      pop\n      0x20\n      add\n      swap2\n      pop\n      pop\n      mload(0x40)\n      dup1\n      swap2\n      sub\n      swap1\n      revert\n    tag_197:\n        /* \"contracts/Pool/PoolPig.sol\":23494:23557  _approve(address(this), address(uniswapV2Router),  ~uint256(0)) */\n      tag_199\n        /* \"contracts/Pool/PoolPig.sol\":23511:23515  this */\n      address\n        /* \"contracts/Pool/PoolPig.sol\":23526:23541  uniswapV2Router */\n      immutable(\"0xdfbf0bb877c2c5ca067d8597311506e24b894aa65a6fe980502f7e7b5c70fa94\")\n        /* \"contracts/Pool/PoolPig.sol\":23554:23555  0 */\n      0x00\n        /* \"contracts/Pool/PoolPig.sol\":23545:23556  ~uint256(0) */\n      not\n        /* \"contracts/Pool/PoolPig.sol\":23494:23502  _approve */\n      tag_200\n        /* \"contracts/Pool/PoolPig.sol\":23494:23557  _approve(address(this), address(uniswapV2Router),  ~uint256(0)) */\n      jump\t// in\n    tag_199:\n        /* \"contracts/Pool/PoolPig.sol\":23567:23628  _approve(address(this), address(uniswapV2Pair),  ~uint256(0)) */\n      tag_201\n        /* \"contracts/Pool/PoolPig.sol\":23584:23588  this */\n      address\n        /* \"contracts/Pool/PoolPig.sol\":23599:23612  uniswapV2Pair */\n      immutable(\"0x56d1aacedfc7d536224f9771bf9213a087360049f74dcef1ba0633f85c459fc6\")\n        /* \"contracts/Pool/PoolPig.sol\":23625:23626  0 */\n      0x00\n        /* \"contracts/Pool/PoolPig.sol\":23616:23627  ~uint256(0) */\n      not\n        /* \"contracts/Pool/PoolPig.sol\":23567:23575  _approve */\n      tag_200\n        /* \"contracts/Pool/PoolPig.sol\":23567:23628  _approve(address(this), address(uniswapV2Pair),  ~uint256(0)) */\n      jump\t// in\n    tag_201:\n        /* \"contracts/Pool/PoolPig.sol\":23668:23683  uniswapV2Router */\n      immutable(\"0xdfbf0bb877c2c5ca067d8597311506e24b894aa65a6fe980502f7e7b5c70fa94\")\n        /* \"contracts/Pool/PoolPig.sol\":23668:23699  uniswapV2Router.addLiquidityETH */\n      0xffffffffffffffffffffffffffffffffffffffff\n      and\n      0xf305d719\n        /* \"contracts/Pool/PoolPig.sol\":23707:23728  address(this).balance */\n      selfbalance\n        /* \"contracts/Pool/PoolPig.sol\":23751:23755  this */\n      address\n        /* \"contracts/Pool/PoolPig.sol\":23770:23794  balanceOf(address(this)) */\n      tag_202\n        /* \"contracts/Pool/PoolPig.sol\":23788:23792  this */\n      address\n        /* \"contracts/Pool/PoolPig.sol\":23770:23779  balanceOf */\n      tag_131\n        /* \"contracts/Pool/PoolPig.sol\":23770:23794  balanceOf(address(this)) */\n      jump\t// in\n    tag_202:\n        /* \"contracts/Pool/PoolPig.sol\":23808:23809  0 */\n      0x00\n        /* \"contracts/Pool/PoolPig.sol\":23850:23851  0 */\n      dup1\n        /* \"contracts/Pool/PoolPig.sol\":23892:23899  owner() */\n      tag_203\n        /* \"contracts/Pool/PoolPig.sol\":23892:23897  owner */\n      tag_144\n        /* \"contracts/Pool/PoolPig.sol\":23892:23899  owner() */\n      jump\t// in\n    tag_203:\n        /* \"contracts/Pool/PoolPig.sol\":23913:23928  block.timestamp */\n      timestamp\n        /* \"contracts/Pool/PoolPig.sol\":23668:23938  uniswapV2Router.addLiquidityETH{value: address(this).balance}(... */\n      mload(0x40)\n      dup9\n      0xffffffff\n      and\n      0xe0\n      shl\n      dup2\n      mstore\n      0x04\n      add\n      dup1\n      dup8\n      0xffffffffffffffffffffffffffffffffffffffff\n      and\n      dup2\n      mstore\n      0x20\n      add\n      dup7\n      dup2\n      mstore\n      0x20\n      add\n      dup6\n      dup2\n      mstore\n      0x20\n      add\n      dup5\n      dup2\n      mstore\n      0x20\n      add\n      dup4\n      0xffffffffffffffffffffffffffffffffffffffff\n      and\n      dup2\n      mstore\n      0x20\n      add\n      dup3\n      dup2\n      mstore\n      0x20\n      add\n      swap7\n      pop\n      pop\n      pop\n      pop\n      pop\n      pop\n      pop\n      0x60\n      mload(0x40)\n      dup1\n      dup4\n      sub\n      dup2\n      dup6\n      dup9\n      dup1\n      extcodesize\n      iszero\n      dup1\n      iszero\n      tag_204\n      jumpi\n      0x00\n      dup1\n      revert\n    tag_204:\n      pop\n      gas\n      call\n      iszero\n      dup1\n      iszero\n      tag_206\n      jumpi\n      returndatasize\n      0x00\n      dup1\n      returndatacopy\n      revert(0x00, returndatasize)\n    tag_206:\n      pop\n      pop\n      pop\n      pop\n      pop\n      mload(0x40)\n      returndatasize\n      0x60\n      dup2\n      lt\n      iszero\n      tag_207\n      jumpi\n      0x00\n      dup1\n      revert\n    tag_207:\n      dup2\n      add\n      swap1\n      dup1\n      dup1\n      mload\n      swap1\n      0x20\n      add\n      swap1\n      swap3\n      swap2\n      swap1\n      dup1\n      mload\n      swap1\n      0x20\n      add\n      swap1\n      swap3\n      swap2\n      swap1\n      dup1\n      mload\n      swap1\n      0x20\n      add\n      swap1\n      swap3\n      swap2\n      swap1\n      pop\n      pop\n      pop\n      pop\n      pop\n      pop\n        /* \"contracts/Pool/PoolPig.sol\":23966:23970  true */\n      0x01\n        /* \"contracts/Pool/PoolPig.sol\":23949:23963  initialLiqDone */\n      0x15\n      0x02\n        /* \"contracts/Pool/PoolPig.sol\":23949:23970  initialLiqDone = true */\n      0x0100\n      exp\n      dup2\n      sload\n      dup2\n      0xff\n      mul\n      not\n      and\n      swap1\n      dup4\n      iszero\n      iszero\n      mul\n      or\n      swap1\n      sstore\n      pop\n        /* \"contracts/Pool/PoolPig.sol\":23370:23978  function addInitialLiquidity() public onlyOwner{... */\n      jump\t// out\n        /* \"contracts/Pool/PoolPig.sol\":22791:22887  function setTaxFeePercent(uint256 taxFee) external onlyOwner() {... */\n    tag_56:\n        /* \"contracts/Pool/PoolPig.sol\":6045:6057  _msgSender() */\n      tag_209\n        /* \"contracts/Pool/PoolPig.sol\":6045:6055  _msgSender */\n      tag_196\n        /* \"contracts/Pool/PoolPig.sol\":6045:6057  _msgSender() */\n      jump\t// in\n    tag_209:\n        /* \"contracts/Pool/PoolPig.sol\":6035:6057  _owner == _msgSender() */\n      0xffffffffffffffffffffffffffffffffffffffff\n      and\n        /* \"contracts/Pool/PoolPig.sol\":6035:6041  _owner */\n      0x00\n      dup1\n      sload\n      swap1\n      0x0100\n      exp\n      swap1\n      div\n      0xffffffffffffffffffffffffffffffffffffffff\n      and\n        /* \"contracts/Pool/PoolPig.sol\":6035:6057  _owner == _msgSender() */\n      0xffffffffffffffffffffffffffffffffffffffff\n      and\n      eq\n        /* \"contracts/Pool/PoolPig.sol\":6027:6094  require(_owner == _msgSender(), \"Ownable: caller is not the owner\") */\n      tag_210\n      jumpi\n      mload(0x40)\n      0x08c379a000000000000000000000000000000000000000000000000000000000\n      dup2\n      mstore\n      0x04\n      add\n      dup1\n      dup1\n      0x20\n      add\n      dup3\n      dup2\n      sub\n      dup3\n      mstore\n      0x20\n      dup2\n      mstore\n      0x20\n      add\n      dup1\n      0x4f776e61626c653a2063616c6c6572206973206e6f7420746865206f776e6572\n      dup2\n      mstore\n      pop\n      0x20\n      add\n      swap2\n      pop\n      pop\n      mload(0x40)\n      dup1\n      swap2\n      sub\n      swap1\n      revert\n    tag_210:\n        /* \"contracts/Pool/PoolPig.sol\":22874:22880  taxFee */\n      dup1\n        /* \"contracts/Pool/PoolPig.sol\":22864:22871  _taxFee */\n      0x11\n        /* \"contracts/Pool/PoolPig.sol\":22864:22880  _taxFee = taxFee */\n      dup2\n      swap1\n      sstore\n      pop\n        /* \"contracts/Pool/PoolPig.sol\":22791:22887  function setTaxFeePercent(uint256 taxFee) external onlyOwner() {... */\n      pop\n      jump\t// out\n        /* \"contracts/Pool/PoolPig.sol\":17856:17937  function name() public view returns (string memory) {... */\n    tag_59:\n        /* \"contracts/Pool/PoolPig.sol\":17893:17906  string memory */\n      0x60\n        /* \"contracts/Pool/PoolPig.sol\":17925:17930  _name */\n      0x0e\n        /* \"contracts/Pool/PoolPig.sol\":17918:17930  return _name */\n      dup1\n      sload\n      0x01\n      dup2\n      0x01\n      and\n      iszero\n      0x0100\n      mul\n      sub\n      and\n      0x02\n      swap1\n      div\n      dup1\n      0x1f\n      add\n      0x20\n      dup1\n      swap2\n      div\n      mul\n      0x20\n      add\n      mload(0x40)\n      swap1\n      dup2\n      add\n      0x40\n      mstore\n      dup1\n      swap3\n      swap2\n      swap1\n      dup2\n      dup2\n      mstore\n      0x20\n      add\n      dup3\n      dup1\n      sload\n      0x01\n      dup2\n      0x01\n      and\n      iszero\n      0x0100\n      mul\n      sub\n      and\n      0x02\n      swap1\n      div\n      dup1\n      iszero\n      tag_213\n      jumpi\n      dup1\n      0x1f\n      lt\n      tag_214\n      jumpi\n      0x0100\n      dup1\n      dup4\n      sload\n      div\n      mul\n      dup4\n      mstore\n      swap2\n      0x20\n      add\n      swap2\n      jump(tag_213)\n    tag_214:\n      dup3\n      add\n      swap2\n      swap1\n      0x00\n      mstore\n      keccak256(0x00, 0x20)\n      swap1\n    tag_215:\n      dup2\n      sload\n      dup2\n      mstore\n      swap1\n      0x01\n      add\n      swap1\n      0x20\n      add\n      dup1\n      dup4\n      gt\n      tag_215\n      jumpi\n      dup3\n      swap1\n      sub\n      0x1f\n      and\n      dup3\n      add\n      swap2\n    tag_213:\n      pop\n      pop\n      pop\n      pop\n      pop\n      swap1\n      pop\n        /* \"contracts/Pool/PoolPig.sol\":17856:17937  function name() public view returns (string memory) {... */\n      swap1\n      jump\t// out\n        /* \"contracts/Pool/PoolPig.sol\":18738:18896  function approve(address spender, uint256 amount) public override returns (bool) {... */\n    tag_67:\n        /* \"contracts/Pool/PoolPig.sol\":18813:18817  bool */\n      0x00\n        /* \"contracts/Pool/PoolPig.sol\":18829:18868  _approve(_msgSender(), spender, amount) */\n      tag_217\n        /* \"contracts/Pool/PoolPig.sol\":18838:18850  _msgSender() */\n      tag_218\n        /* \"contracts/Pool/PoolPig.sol\":18838:18848  _msgSender */\n      tag_196\n        /* \"contracts/Pool/PoolPig.sol\":18838:18850  _msgSender() */\n      jump\t// in\n    tag_218:\n        /* \"contracts/Pool/PoolPig.sol\":18852:18859  spender */\n      dup5\n        /* \"contracts/Pool/PoolPig.sol\":18861:18867  amount */\n      dup5\n        /* \"contracts/Pool/PoolPig.sol\":18829:18837  _approve */\n      tag_200\n        /* \"contracts/Pool/PoolPig.sol\":18829:18868  _approve(_msgSender(), spender, amount) */\n      jump\t// in\n    tag_217:\n        /* \"contracts/Pool/PoolPig.sol\":18885:18889  true */\n      0x01\n        /* \"contracts/Pool/PoolPig.sol\":18878:18889  return true */\n      swap1\n      pop\n        /* \"contracts/Pool/PoolPig.sol\":18738:18896  function approve(address spender, uint256 amount) public override returns (bool) {... */\n      swap3\n      swap2\n      pop\n      pop\n      jump\t// out\n        /* \"contracts/Pool/PoolPig.sol\":19834:19919  function totalFees() public view returns (uint256) {... */\n    tag_70:\n        /* \"contracts/Pool/PoolPig.sol\":19876:19883  uint256 */\n      0x00\n        /* \"contracts/Pool/PoolPig.sol\":19902:19912  _tFeeTotal */\n      sload(0x0d)\n        /* \"contracts/Pool/PoolPig.sol\":19895:19912  return _tFeeTotal */\n      swap1\n      pop\n        /* \"contracts/Pool/PoolPig.sol\":19834:19919  function totalFees() public view returns (uint256) {... */\n      swap1\n      jump\t// out\n        /* \"contracts/Pool/PoolPig.sol\":16368:16419  IUniswapV2Router02 public immutable uniswapV2Router */\n    tag_73:\n      immutable(\"0xdfbf0bb877c2c5ca067d8597311506e24b894aa65a6fe980502f7e7b5c70fa94\")\n      dup2\n      jump\t// out\n        /* \"contracts/Pool/PoolPig.sol\":18121:18214  function totalSupply() public view override returns (uint256) {... */\n    tag_76:\n        /* \"contracts/Pool/PoolPig.sol\":18174:18181  uint256 */\n      0x00\n        /* \"contracts/Pool/PoolPig.sol\":15958:15976  1000000000 * 10**9 */\n      0x0de0b6b3a7640000\n        /* \"contracts/Pool/PoolPig.sol\":18193:18207  return _tTotal */\n      swap1\n      pop\n        /* \"contracts/Pool/PoolPig.sol\":18121:18214  function totalSupply() public view override returns (uint256) {... */\n      swap1\n      jump\t// out\n        /* \"contracts/Pool/PoolPig.sol\":18902:19211  function transferFrom(address sender, address recipient, uint256 amount) public override returns (bool) {... */\n    tag_80:\n        /* \"contracts/Pool/PoolPig.sol\":19000:19004  bool */\n      0x00\n        /* \"contracts/Pool/PoolPig.sol\":19016:19052  _transfer(sender, recipient, amount) */\n      tag_222\n        /* \"contracts/Pool/PoolPig.sol\":19026:19032  sender */\n      dup5\n        /* \"contracts/Pool/PoolPig.sol\":19034:19043  recipient */\n      dup5\n        /* \"contracts/Pool/PoolPig.sol\":19045:19051  amount */\n      dup5\n        /* \"contracts/Pool/PoolPig.sol\":19016:19025  _transfer */\n      tag_223\n        /* \"contracts/Pool/PoolPig.sol\":19016:19052  _transfer(sender, recipient, amount) */\n      jump\t// in\n    tag_222:\n        /* \"contracts/Pool/PoolPig.sol\":19062:19183  _approve(sender, _msgSender(), _allowances[sender][_msgSender()].sub(amount, \"ERC20: transfer amount exceeds allowance\")) */\n      tag_224\n        /* \"contracts/Pool/PoolPig.sol\":19071:19077  sender */\n      dup5\n        /* \"contracts/Pool/PoolPig.sol\":19079:19091  _msgSender() */\n      tag_225\n        /* \"contracts/Pool/PoolPig.sol\":19079:19089  _msgSender */\n      tag_196\n        /* \"contracts/Pool/PoolPig.sol\":19079:19091  _msgSender() */\n      jump\t// in\n    tag_225:\n        /* \"contracts/Pool/PoolPig.sol\":19093:19182  _allowances[sender][_msgSender()].sub(amount, \"ERC20: transfer amount exceeds allowance\") */\n      tag_226\n        /* \"contracts/Pool/PoolPig.sol\":19131:19137  amount */\n      dup6\n        /* \"contracts/Pool/PoolPig.sol\":19093:19182  _allowances[sender][_msgSender()].sub(amount, \"ERC20: transfer amount exceeds allowance\") */\n      mload(0x40)\n      dup1\n      0x60\n      add\n      0x40\n      mstore\n      dup1\n      0x28\n      dup2\n      mstore\n      0x20\n      add\n      data_974d1b4421da69cc60b481194f0dad36a5bb4e23da810da7a7fb30cdba178330\n      0x28\n      swap2\n      codecopy\n        /* \"contracts/Pool/PoolPig.sol\":19093:19104  _allowances */\n      0x05\n        /* \"contracts/Pool/PoolPig.sol\":19093:19112  _allowances[sender] */\n      0x00\n        /* \"contracts/Pool/PoolPig.sol\":19105:19111  sender */\n      dup12\n        /* \"contracts/Pool/PoolPig.sol\":19093:19112  _allowances[sender] */\n      0xffffffffffffffffffffffffffffffffffffffff\n      and\n      0xffffffffffffffffffffffffffffffffffffffff\n      and\n      dup2\n      mstore\n      0x20\n      add\n      swap1\n      dup2\n      mstore\n      0x20\n      add\n      0x00\n      keccak256\n        /* \"contracts/Pool/PoolPig.sol\":19093:19126  _allowances[sender][_msgSender()] */\n      0x00\n        /* \"contracts/Pool/PoolPig.sol\":19113:19125  _msgSender() */\n      tag_227\n        /* \"contracts/Pool/PoolPig.sol\":19113:19123  _msgSender */\n      tag_196\n        /* \"contracts/Pool/PoolPig.sol\":19113:19125  _msgSender() */\n      jump\t// in\n    tag_227:\n        /* \"contracts/Pool/PoolPig.sol\":19093:19126  _allowances[sender][_msgSender()] */\n      0xffffffffffffffffffffffffffffffffffffffff\n      and\n      0xffffffffffffffffffffffffffffffffffffffff\n      and\n      dup2\n      mstore\n      0x20\n      add\n      swap1\n      dup2\n      mstore\n      0x20\n      add\n      0x00\n      keccak256\n      sload\n        /* \"contracts/Pool/PoolPig.sol\":19093:19130  _allowances[sender][_msgSender()].sub */\n      tag_228\n      swap1\n        /* \"contracts/Pool/PoolPig.sol\":19093:19182  _allowances[sender][_msgSender()].sub(amount, \"ERC20: transfer amount exceeds allowance\") */\n      swap3\n      swap2\n      swap1\n      0xffffffff\n      and\n      jump\t// in\n    tag_226:\n        /* \"contracts/Pool/PoolPig.sol\":19062:19070  _approve */\n      tag_200\n        /* \"contracts/Pool/PoolPig.sol\":19062:19183  _approve(sender, _msgSender(), _allowances[sender][_msgSender()].sub(amount, \"ERC20: transfer amount exceeds allowance\")) */\n      jump\t// in\n    tag_224:\n        /* \"contracts/Pool/PoolPig.sol\":19200:19204  true */\n      0x01\n        /* \"contracts/Pool/PoolPig.sol\":19193:19204  return true */\n      swap1\n      pop\n        /* \"contracts/Pool/PoolPig.sol\":18902:19211  function transferFrom(address sender, address recipient, uint256 amount) public override returns (bool) {... */\n      swap4\n      swap3\n      pop\n      pop\n      pop\n      jump\t// out\n        /* \"contracts/Pool/PoolPig.sol\":20734:20983  function tokenFromReflection(uint256 rAmount) public view returns(uint256) {... */\n    tag_84:\n        /* \"contracts/Pool/PoolPig.sol\":20800:20807  uint256 */\n      0x00\n        /* \"contracts/Pool/PoolPig.sol\":20838:20845  _rTotal */\n      sload(0x0c)\n        /* \"contracts/Pool/PoolPig.sol\":20827:20834  rAmount */\n      dup3\n        /* \"contracts/Pool/PoolPig.sol\":20827:20845  rAmount <= _rTotal */\n      gt\n      iszero\n        /* \"contracts/Pool/PoolPig.sol\":20819:20892  require(rAmount <= _rTotal, \"Amount must be less than total reflections\") */\n      tag_230\n      jumpi\n      mload(0x40)\n      0x08c379a000000000000000000000000000000000000000000000000000000000\n      dup2\n      mstore\n      0x04\n      add\n      dup1\n      dup1\n      0x20\n      add\n      dup3\n      dup2\n      sub\n      dup3\n      mstore\n      0x2a\n      dup2\n      mstore\n      0x20\n      add\n      dup1\n      data_22f7af55a509c3b14f0d528f087748dec8a8bf425135e3f5dc28c6a31ec6d812\n      0x2a\n      swap2\n      codecopy\n      0x40\n      add\n      swap2\n      pop\n      pop\n      mload(0x40)\n      dup1\n      swap2\n      sub\n      swap1\n      revert\n    tag_230:\n        /* \"contracts/Pool/PoolPig.sol\":20902:20921  uint256 currentRate */\n      0x00\n        /* \"contracts/Pool/PoolPig.sol\":20925:20935  _getRate() */\n      tag_231\n        /* \"contracts/Pool/PoolPig.sol\":20925:20933  _getRate */\n      tag_232\n        /* \"contracts/Pool/PoolPig.sol\":20925:20935  _getRate() */\n      jump\t// in\n    tag_231:\n        /* \"contracts/Pool/PoolPig.sol\":20902:20935  uint256 currentRate =  _getRate() */\n      swap1\n      pop\n        /* \"contracts/Pool/PoolPig.sol\":20952:20976  rAmount.div(currentRate) */\n      tag_233\n        /* \"contracts/Pool/PoolPig.sol\":20964:20975  currentRate */\n      dup2\n        /* \"contracts/Pool/PoolPig.sol\":20952:20959  rAmount */\n      dup5\n        /* \"contracts/Pool/PoolPig.sol\":20952:20963  rAmount.div */\n      tag_234\n      swap1\n        /* \"contracts/Pool/PoolPig.sol\":20952:20976  rAmount.div(currentRate) */\n      swap2\n      swap1\n      0xffffffff\n      and\n      jump\t// in\n    tag_233:\n        /* \"contracts/Pool/PoolPig.sol\":20945:20976  return rAmount.div(currentRate) */\n      swap2\n      pop\n      pop\n        /* \"contracts/Pool/PoolPig.sol\":20734:20983  function tokenFromReflection(uint256 rAmount) public view returns(uint256) {... */\n      swap2\n      swap1\n      pop\n      jump\t// out\n        /* \"contracts/Pool/PoolPig.sol\":18034:18115  function decimals() public view returns (uint8) {... */\n    tag_87:\n        /* \"contracts/Pool/PoolPig.sol\":18075:18080  uint8 */\n      0x00\n        /* \"contracts/Pool/PoolPig.sol\":18099:18108  _decimals */\n      0x10\n      0x00\n      swap1\n      sload\n      swap1\n      0x0100\n      exp\n      swap1\n      div\n      0xff\n      and\n        /* \"contracts/Pool/PoolPig.sol\":18092:18108  return _decimals */\n      swap1\n      pop\n        /* \"contracts/Pool/PoolPig.sol\":18034:18115  function decimals() public view returns (uint8) {... */\n      swap1\n      jump\t// out\n        /* \"contracts/Pool/PoolPig.sol\":21434:21902  function includeInReward(address account) external onlyOwner() {... */\n    tag_91:\n        /* \"contracts/Pool/PoolPig.sol\":6045:6057  _msgSender() */\n      tag_237\n        /* \"contracts/Pool/PoolPig.sol\":6045:6055  _msgSender */\n      tag_196\n        /* \"contracts/Pool/PoolPig.sol\":6045:6057  _msgSender() */\n      jump\t// in\n    tag_237:\n        /* \"contracts/Pool/PoolPig.sol\":6035:6057  _owner == _msgSender() */\n      0xffffffffffffffffffffffffffffffffffffffff\n      and\n        /* \"contracts/Pool/PoolPig.sol\":6035:6041  _owner */\n      0x00\n      dup1\n      sload\n      swap1\n      0x0100\n      exp\n      swap1\n      div\n      0xffffffffffffffffffffffffffffffffffffffff\n      and\n        /* \"contracts/Pool/PoolPig.sol\":6035:6057  _owner == _msgSender() */\n      0xffffffffffffffffffffffffffffffffffffffff\n      and\n      eq\n        /* \"contracts/Pool/PoolPig.sol\":6027:6094  require(_owner == _msgSender(), \"Ownable: caller is not the owner\") */\n      tag_238\n      jumpi\n      mload(0x40)\n      0x08c379a000000000000000000000000000000000000000000000000000000000\n      dup2\n      mstore\n      0x04\n      add\n      dup1\n      dup1\n      0x20\n      add\n      dup3\n      dup2\n      sub\n      dup3\n      mstore\n      0x20\n      dup2\n      mstore\n      0x20\n      add\n      dup1\n      0x4f776e61626c653a2063616c6c6572206973206e6f7420746865206f776e6572\n      dup2\n      mstore\n      pop\n      0x20\n      add\n      swap2\n      pop\n      pop\n      mload(0x40)\n      dup1\n      swap2\n      sub\n      swap1\n      revert\n    tag_238:\n        /* \"contracts/Pool/PoolPig.sol\":21515:21526  _isExcluded */\n      0x07\n        /* \"contracts/Pool/PoolPig.sol\":21515:21535  _isExcluded[account] */\n      0x00\n        /* \"contracts/Pool/PoolPig.sol\":21527:21534  account */\n      dup3\n        /* \"contracts/Pool/PoolPig.sol\":21515:21535  _isExcluded[account] */\n      0xffffffffffffffffffffffffffffffffffffffff\n      and\n      0xffffffffffffffffffffffffffffffffffffffff\n      and\n      dup2\n      mstore\n      0x20\n      add\n      swap1\n      dup2\n      mstore\n      0x20\n      add\n      0x00\n      keccak256\n      0x00\n      swap1\n      sload\n      swap1\n      0x0100\n      exp\n      swap1\n      div\n      0xff\n      and\n        /* \"contracts/Pool/PoolPig.sol\":21507:21567  require(_isExcluded[account], \"Account is already excluded\") */\n      tag_240\n      jumpi\n      mload(0x40)\n      0x08c379a000000000000000000000000000000000000000000000000000000000\n      dup2\n      mstore\n      0x04\n      add\n      dup1\n      dup1\n      0x20\n      add\n      dup3\n      dup2\n      sub\n      dup3\n      mstore\n      0x1b\n      dup2\n      mstore\n      0x20\n      add\n      dup1\n      0x4163636f756e7420697320616c7265616479206578636c756465640000000000\n      dup2\n      mstore\n      pop\n      0x20\n      add\n      swap2\n      pop\n      pop\n      mload(0x40)\n      dup1\n      swap2\n      sub\n      swap1\n      revert\n    tag_240:\n        /* \"contracts/Pool/PoolPig.sol\":21582:21591  uint256 i */\n      0x00\n        /* \"contracts/Pool/PoolPig.sol\":21577:21896  for (uint256 i = 0; i < _excluded.length; i++) {... */\n    tag_241:\n        /* \"contracts/Pool/PoolPig.sol\":21601:21610  _excluded */\n      0x08\n        /* \"contracts/Pool/PoolPig.sol\":21601:21617  _excluded.length */\n      dup1\n      sload\n      swap1\n      pop\n        /* \"contracts/Pool/PoolPig.sol\":21597:21598  i */\n      dup2\n        /* \"contracts/Pool/PoolPig.sol\":21597:21617  i < _excluded.length */\n      lt\n        /* \"contracts/Pool/PoolPig.sol\":21577:21896  for (uint256 i = 0; i < _excluded.length; i++) {... */\n      iszero\n      tag_242\n      jumpi\n        /* \"contracts/Pool/PoolPig.sol\":21658:21665  account */\n      dup2\n        /* \"contracts/Pool/PoolPig.sol\":21642:21665  _excluded[i] == account */\n      0xffffffffffffffffffffffffffffffffffffffff\n      and\n        /* \"contracts/Pool/PoolPig.sol\":21642:21651  _excluded */\n      0x08\n        /* \"contracts/Pool/PoolPig.sol\":21652:21653  i */\n      dup3\n        /* \"contracts/Pool/PoolPig.sol\":21642:21654  _excluded[i] */\n      dup2\n      sload\n      dup2\n      lt\n      tag_244\n      jumpi\n      invalid\n    tag_244:\n      swap1\n      0x00\n      mstore\n      keccak256(0x00, 0x20)\n      add\n      0x00\n      swap1\n      sload\n      swap1\n      0x0100\n      exp\n      swap1\n      div\n      0xffffffffffffffffffffffffffffffffffffffff\n      and\n        /* \"contracts/Pool/PoolPig.sol\":21642:21665  _excluded[i] == account */\n      0xffffffffffffffffffffffffffffffffffffffff\n      and\n      eq\n        /* \"contracts/Pool/PoolPig.sol\":21638:21886  if (_excluded[i] == account) {... */\n      iszero\n      tag_246\n      jumpi\n        /* \"contracts/Pool/PoolPig.sol\":21700:21709  _excluded */\n      0x08\n        /* \"contracts/Pool/PoolPig.sol\":21729:21730  1 */\n      0x01\n        /* \"contracts/Pool/PoolPig.sol\":21710:21719  _excluded */\n      0x08\n        /* \"contracts/Pool/PoolPig.sol\":21710:21726  _excluded.length */\n      dup1\n      sload\n      swap1\n      pop\n        /* \"contracts/Pool/PoolPig.sol\":21710:21730  _excluded.length - 1 */\n      sub\n        /* \"contracts/Pool/PoolPig.sol\":21700:21731  _excluded[_excluded.length - 1] */\n      dup2\n      sload\n      dup2\n      lt\n      tag_247\n      jumpi\n      invalid\n    tag_247:\n      swap1\n      0x00\n      mstore\n      keccak256(0x00, 0x20)\n      add\n      0x00\n      swap1\n      sload\n      swap1\n      0x0100\n      exp\n      swap1\n      div\n      0xffffffffffffffffffffffffffffffffffffffff\n      and\n        /* \"contracts/Pool/PoolPig.sol\":21685:21694  _excluded */\n      0x08\n        /* \"contracts/Pool/PoolPig.sol\":21695:21696  i */\n      dup3\n        /* \"contracts/Pool/PoolPig.sol\":21685:21697  _excluded[i] */\n      dup2\n      sload\n      dup2\n      lt\n      tag_249\n      jumpi\n      invalid\n    tag_249:\n      swap1\n      0x00\n      mstore\n      keccak256(0x00, 0x20)\n      add\n      0x00\n        /* \"contracts/Pool/PoolPig.sol\":21685:21731  _excluded[i] = _excluded[_excluded.length - 1] */\n      0x0100\n      exp\n      dup2\n      sload\n      dup2\n      0xffffffffffffffffffffffffffffffffffffffff\n      mul\n      not\n      and\n      swap1\n      dup4\n      0xffffffffffffffffffffffffffffffffffffffff\n      and\n      mul\n      or\n      swap1\n      sstore\n      pop\n        /* \"contracts/Pool/PoolPig.sol\":21768:21769  0 */\n      0x00\n        /* \"contracts/Pool/PoolPig.sol\":21749:21756  _tOwned */\n      0x04\n        /* \"contracts/Pool/PoolPig.sol\":21749:21765  _tOwned[account] */\n      0x00\n        /* \"contracts/Pool/PoolPig.sol\":21757:21764  account */\n      dup5\n        /* \"contracts/Pool/PoolPig.sol\":21749:21765  _tOwned[account] */\n      0xffffffffffffffffffffffffffffffffffffffff\n      and\n      0xffffffffffffffffffffffffffffffffffffffff\n      and\n      dup2\n      mstore\n      0x20\n      add\n      swap1\n      dup2\n      mstore\n      0x20\n      add\n      0x00\n      keccak256\n        /* \"contracts/Pool/PoolPig.sol\":21749:21769  _tOwned[account] = 0 */\n      dup2\n      swap1\n      sstore\n      pop\n        /* \"contracts/Pool/PoolPig.sol\":21810:21815  false */\n      0x00\n        /* \"contracts/Pool/PoolPig.sol\":21787:21798  _isExcluded */\n      0x07\n        /* \"contracts/Pool/PoolPig.sol\":21787:21807  _isExcluded[account] */\n      0x00\n        /* \"contracts/Pool/PoolPig.sol\":21799:21806  account */\n      dup5\n        /* \"contracts/Pool/PoolPig.sol\":21787:21807  _isExcluded[account] */\n      0xffffffffffffffffffffffffffffffffffffffff\n      and\n      0xffffffffffffffffffffffffffffffffffffffff\n      and\n      dup2\n      mstore\n      0x20\n      add\n      swap1\n      dup2\n      mstore\n      0x20\n      add\n      0x00\n      keccak256\n      0x00\n        /* \"contracts/Pool/PoolPig.sol\":21787:21815  _isExcluded[account] = false */\n      0x0100\n      exp\n      dup2\n      sload\n      dup2\n      0xff\n      mul\n      not\n      and\n      swap1\n      dup4\n      iszero\n      iszero\n      mul\n      or\n      swap1\n      sstore\n      pop\n        /* \"contracts/Pool/PoolPig.sol\":21833:21842  _excluded */\n      0x08\n        /* \"contracts/Pool/PoolPig.sol\":21833:21848  _excluded.pop() */\n      dup1\n      sload\n      dup1\n      tag_251\n      jumpi\n      invalid\n    tag_251:\n      0x01\n      swap1\n      sub\n      dup2\n      dup2\n      swap1\n      0x00\n      mstore\n      keccak256(0x00, 0x20)\n      add\n      exp(0x0100, 0x00)\n      dup2\n      sload\n      swap1\n      0xffffffffffffffffffffffffffffffffffffffff\n      mul\n      not\n      and\n      swap1\n      sstore\n      swap1\n      sstore\n        /* \"contracts/Pool/PoolPig.sol\":21866:21871  break */\n      jump(tag_242)\n        /* \"contracts/Pool/PoolPig.sol\":21638:21886  if (_excluded[i] == account) {... */\n    tag_246:\n        /* \"contracts/Pool/PoolPig.sol\":21619:21622  i++ */\n      dup1\n      dup1\n      0x01\n      add\n      swap2\n      pop\n      pop\n        /* \"contracts/Pool/PoolPig.sol\":21577:21896  for (uint256 i = 0; i < _excluded.length; i++) {... */\n      jump(tag_241)\n    tag_242:\n      pop\n        /* \"contracts/Pool/PoolPig.sol\":21434:21902  function includeInReward(address account) external onlyOwner() {... */\n      pop\n      jump\t// out\n        /* \"contracts/Pool/PoolPig.sol\":19217:19432  function increaseAllowance(address spender, uint256 addedValue) public virtual returns (bool) {... */\n    tag_95:\n        /* \"contracts/Pool/PoolPig.sol\":19305:19309  bool */\n      0x00\n        /* \"contracts/Pool/PoolPig.sol\":19321:19404  _approve(_msgSender(), spender, _allowances[_msgSender()][spender].add(addedValue)) */\n      tag_254\n        /* \"contracts/Pool/PoolPig.sol\":19330:19342  _msgSender() */\n      tag_255\n        /* \"contracts/Pool/PoolPig.sol\":19330:19340  _msgSender */\n      tag_196\n        /* \"contracts/Pool/PoolPig.sol\":19330:19342  _msgSender() */\n      jump\t// in\n    tag_255:\n        /* \"contracts/Pool/PoolPig.sol\":19344:19351  spender */\n      dup5\n        /* \"contracts/Pool/PoolPig.sol\":19353:19403  _allowances[_msgSender()][spender].add(addedValue) */\n      tag_256\n        /* \"contracts/Pool/PoolPig.sol\":19392:19402  addedValue */\n      dup6\n        /* \"contracts/Pool/PoolPig.sol\":19353:19364  _allowances */\n      0x05\n        /* \"contracts/Pool/PoolPig.sol\":19353:19378  _allowances[_msgSender()] */\n      0x00\n        /* \"contracts/Pool/PoolPig.sol\":19365:19377  _msgSender() */\n      tag_257\n        /* \"contracts/Pool/PoolPig.sol\":19365:19375  _msgSender */\n      tag_196\n        /* \"contracts/Pool/PoolPig.sol\":19365:19377  _msgSender() */\n      jump\t// in\n    tag_257:\n        /* \"contracts/Pool/PoolPig.sol\":19353:19378  _allowances[_msgSender()] */\n      0xffffffffffffffffffffffffffffffffffffffff\n      and\n      0xffffffffffffffffffffffffffffffffffffffff\n      and\n      dup2\n      mstore\n      0x20\n      add\n      swap1\n      dup2\n      mstore\n      0x20\n      add\n      0x00\n      keccak256\n        /* \"contracts/Pool/PoolPig.sol\":19353:19387  _allowances[_msgSender()][spender] */\n      0x00\n        /* \"contracts/Pool/PoolPig.sol\":19379:19386  spender */\n      dup10\n        /* \"contracts/Pool/PoolPig.sol\":19353:19387  _allowances[_msgSender()][spender] */\n      0xffffffffffffffffffffffffffffffffffffffff\n      and\n      0xffffffffffffffffffffffffffffffffffffffff\n      and\n      dup2\n      mstore\n      0x20\n      add\n      swap1\n      dup2\n      mstore\n      0x20\n      add\n      0x00\n      keccak256\n      sload\n        /* \"contracts/Pool/PoolPig.sol\":19353:19391  _allowances[_msgSender()][spender].add */\n      tag_258\n      swap1\n        /* \"contracts/Pool/PoolPig.sol\":19353:19403  _allowances[_msgSender()][spender].add(addedValue) */\n      swap2\n      swap1\n      0xffffffff\n      and\n      jump\t// in\n    tag_256:\n        /* \"contracts/Pool/PoolPig.sol\":19321:19329  _approve */\n      tag_200\n        /* \"contracts/Pool/PoolPig.sol\":19321:19404  _approve(_msgSender(), spender, _allowances[_msgSender()][spender].add(addedValue)) */\n      jump\t// in\n    tag_254:\n        /* \"contracts/Pool/PoolPig.sol\":19421:19425  true */\n      0x01\n        /* \"contracts/Pool/PoolPig.sol\":19414:19425  return true */\n      swap1\n      pop\n        /* \"contracts/Pool/PoolPig.sol\":19217:19432  function increaseAllowance(address spender, uint256 addedValue) public virtual returns (bool) {... */\n      swap3\n      swap2\n      pop\n      pop\n      jump\t// out\n        /* \"contracts/Pool/PoolPig.sol\":16186:16212  uint256 public _taxFee = 2 */\n    tag_98:\n      sload(0x11)\n      dup2\n      jump\t// out\n        /* \"contracts/Pool/PoolPig.sol\":19925:20295  function deliver(uint256 tAmount) public {... */\n    tag_102:\n        /* \"contracts/Pool/PoolPig.sol\":19976:19990  address sender */\n      0x00\n        /* \"contracts/Pool/PoolPig.sol\":19993:20005  _msgSender() */\n      tag_260\n        /* \"contracts/Pool/PoolPig.sol\":19993:20003  _msgSender */\n      tag_196\n        /* \"contracts/Pool/PoolPig.sol\":19993:20005  _msgSender() */\n      jump\t// in\n    tag_260:\n        /* \"contracts/Pool/PoolPig.sol\":19976:20005  address sender = _msgSender() */\n      swap1\n      pop\n        /* \"contracts/Pool/PoolPig.sol\":20024:20035  _isExcluded */\n      0x07\n        /* \"contracts/Pool/PoolPig.sol\":20024:20043  _isExcluded[sender] */\n      0x00\n        /* \"contracts/Pool/PoolPig.sol\":20036:20042  sender */\n      dup3\n        /* \"contracts/Pool/PoolPig.sol\":20024:20043  _isExcluded[sender] */\n      0xffffffffffffffffffffffffffffffffffffffff\n      and\n      0xffffffffffffffffffffffffffffffffffffffff\n      and\n      dup2\n      mstore\n      0x20\n      add\n      swap1\n      dup2\n      mstore\n      0x20\n      add\n      0x00\n      keccak256\n      0x00\n      swap1\n      sload\n      swap1\n      0x0100\n      exp\n      swap1\n      div\n      0xff\n      and\n        /* \"contracts/Pool/PoolPig.sol\":20023:20043  !_isExcluded[sender] */\n      iszero\n        /* \"contracts/Pool/PoolPig.sol\":20015:20092  require(!_isExcluded[sender], \"Excluded addresses cannot call this function\") */\n      tag_261\n      jumpi\n      mload(0x40)\n      0x08c379a000000000000000000000000000000000000000000000000000000000\n      dup2\n      mstore\n      0x04\n      add\n      dup1\n      dup1\n      0x20\n      add\n      dup3\n      dup2\n      sub\n      dup3\n      mstore\n      0x2c\n      dup2\n      mstore\n      0x20\n      add\n      dup1\n      data_ecefcaf5fbcf9ca6dcdb02298ba1da96f4ead317b0a4779917ecb2e5e7dc3ac4\n      0x2c\n      swap2\n      codecopy\n      0x40\n      add\n      swap2\n      pop\n      pop\n      mload(0x40)\n      dup1\n      swap2\n      sub\n      swap1\n      revert\n    tag_261:\n        /* \"contracts/Pool/PoolPig.sol\":20103:20118  uint256 rAmount */\n      0x00\n        /* \"contracts/Pool/PoolPig.sol\":20127:20146  _getValues(tAmount) */\n      tag_262\n        /* \"contracts/Pool/PoolPig.sol\":20138:20145  tAmount */\n      dup4\n        /* \"contracts/Pool/PoolPig.sol\":20127:20137  _getValues */\n      tag_263\n        /* \"contracts/Pool/PoolPig.sol\":20127:20146  _getValues(tAmount) */\n      jump\t// in\n    tag_262:\n        /* \"contracts/Pool/PoolPig.sol\":20102:20146  (uint256 rAmount,,,,,) = _getValues(tAmount) */\n      pop\n      pop\n      pop\n      pop\n      pop\n      swap1\n      pop\n        /* \"contracts/Pool/PoolPig.sol\":20174:20202  _rOwned[sender].sub(rAmount) */\n      tag_264\n        /* \"contracts/Pool/PoolPig.sol\":20194:20201  rAmount */\n      dup2\n        /* \"contracts/Pool/PoolPig.sol\":20174:20181  _rOwned */\n      0x03\n        /* \"contracts/Pool/PoolPig.sol\":20174:20189  _rOwned[sender] */\n      0x00\n        /* \"contracts/Pool/PoolPig.sol\":20182:20188  sender */\n      dup6\n        /* \"contracts/Pool/PoolPig.sol\":20174:20189  _rOwned[sender] */\n      0xffffffffffffffffffffffffffffffffffffffff\n      and\n      0xffffffffffffffffffffffffffffffffffffffff\n      and\n      dup2\n      mstore\n      0x20\n      add\n      swap1\n      dup2\n      mstore\n      0x20\n      add\n      0x00\n      keccak256\n      sload\n        /* \"contracts/Pool/PoolPig.sol\":20174:20193  _rOwned[sender].sub */\n      tag_265\n      swap1\n        /* \"contracts/Pool/PoolPig.sol\":20174:20202  _rOwned[sender].sub(rAmount) */\n      swap2\n      swap1\n      0xffffffff\n      and\n      jump\t// in\n    tag_264:\n        /* \"contracts/Pool/PoolPig.sol\":20156:20163  _rOwned */\n      0x03\n        /* \"contracts/Pool/PoolPig.sol\":20156:20171  _rOwned[sender] */\n      0x00\n        /* \"contracts/Pool/PoolPig.sol\":20164:20170  sender */\n      dup5\n        /* \"contracts/Pool/PoolPig.sol\":20156:20171  _rOwned[sender] */\n      0xffffffffffffffffffffffffffffffffffffffff\n      and\n      0xffffffffffffffffffffffffffffffffffffffff\n      and\n      dup2\n      mstore\n      0x20\n      add\n      swap1\n      dup2\n      mstore\n      0x20\n      add\n      0x00\n      keccak256\n        /* \"contracts/Pool/PoolPig.sol\":20156:20202  _rOwned[sender] = _rOwned[sender].sub(rAmount) */\n      dup2\n      swap1\n      sstore\n      pop\n        /* \"contracts/Pool/PoolPig.sol\":20222:20242  _rTotal.sub(rAmount) */\n      tag_266\n        /* \"contracts/Pool/PoolPig.sol\":20234:20241  rAmount */\n      dup2\n        /* \"contracts/Pool/PoolPig.sol\":20222:20229  _rTotal */\n      sload(0x0c)\n        /* \"contracts/Pool/PoolPig.sol\":20222:20233  _rTotal.sub */\n      tag_265\n      swap1\n        /* \"contracts/Pool/PoolPig.sol\":20222:20242  _rTotal.sub(rAmount) */\n      swap2\n      swap1\n      0xffffffff\n      and\n      jump\t// in\n    tag_266:\n        /* \"contracts/Pool/PoolPig.sol\":20212:20219  _rTotal */\n      0x0c\n        /* \"contracts/Pool/PoolPig.sol\":20212:20242  _rTotal = _rTotal.sub(rAmount) */\n      dup2\n      swap1\n      sstore\n      pop\n        /* \"contracts/Pool/PoolPig.sol\":20265:20288  _tFeeTotal.add(tAmount) */\n      tag_267\n        /* \"contracts/Pool/PoolPig.sol\":20280:20287  tAmount */\n      dup4\n        /* \"contracts/Pool/PoolPig.sol\":20265:20275  _tFeeTotal */\n      sload(0x0d)\n        /* \"contracts/Pool/PoolPig.sol\":20265:20279  _tFeeTotal.add */\n      tag_258\n      swap1\n        /* \"contracts/Pool/PoolPig.sol\":20265:20288  _tFeeTotal.add(tAmount) */\n      swap2\n      swap1\n      0xffffffff\n      and\n      jump\t// in\n    tag_267:\n        /* \"contracts/Pool/PoolPig.sol\":20252:20262  _tFeeTotal */\n      0x0d\n        /* \"contracts/Pool/PoolPig.sol\":20252:20288  _tFeeTotal = _tFeeTotal.add(tAmount) */\n      dup2\n      swap1\n      sstore\n      pop\n        /* \"contracts/Pool/PoolPig.sol\":19925:20295  function deliver(uint256 tAmount) public {... */\n      pop\n      pop\n      pop\n      jump\t// out\n        /* \"contracts/Pool/PoolPig.sol\":22554:22663  function excludeFromFee(address account) public onlyOwner {... */\n    tag_106:\n        /* \"contracts/Pool/PoolPig.sol\":6045:6057  _msgSender() */\n      tag_269\n        /* \"contracts/Pool/PoolPig.sol\":6045:6055  _msgSender */\n      tag_196\n        /* \"contracts/Pool/PoolPig.sol\":6045:6057  _msgSender() */\n      jump\t// in\n    tag_269:\n        /* \"contracts/Pool/PoolPig.sol\":6035:6057  _owner == _msgSender() */\n      0xffffffffffffffffffffffffffffffffffffffff\n      and\n        /* \"contracts/Pool/PoolPig.sol\":6035:6041  _owner */\n      0x00\n      dup1\n      sload\n      swap1\n      0x0100\n      exp\n      swap1\n      div\n      0xffffffffffffffffffffffffffffffffffffffff\n      and\n        /* \"contracts/Pool/PoolPig.sol\":6035:6057  _owner == _msgSender() */\n      0xffffffffffffffffffffffffffffffffffffffff\n      and\n      eq\n        /* \"contracts/Pool/PoolPig.sol\":6027:6094  require(_owner == _msgSender(), \"Ownable: caller is not the owner\") */\n      tag_270\n      jumpi\n      mload(0x40)\n      0x08c379a000000000000000000000000000000000000000000000000000000000\n      dup2\n      mstore\n      0x04\n      add\n      dup1\n      dup1\n      0x20\n      add\n      dup3\n      dup2\n      sub\n      dup3\n      mstore\n      0x20\n      dup2\n      mstore\n      0x20\n      add\n      dup1\n      0x4f776e61626c653a2063616c6c6572206973206e6f7420746865206f776e6572\n      dup2\n      mstore\n      pop\n      0x20\n      add\n      swap2\n      pop\n      pop\n      mload(0x40)\n      dup1\n      swap2\n      sub\n      swap1\n      revert\n    tag_270:\n        /* \"contracts/Pool/PoolPig.sol\":22652:22656  true */\n      0x01\n        /* \"contracts/Pool/PoolPig.sol\":22622:22640  _isExcludedFromFee */\n      0x06\n        /* \"contracts/Pool/PoolPig.sol\":22622:22649  _isExcludedFromFee[account] */\n      0x00\n        /* \"contracts/Pool/PoolPig.sol\":22641:22648  account */\n      dup4\n        /* \"contracts/Pool/PoolPig.sol\":22622:22649  _isExcludedFromFee[account] */\n      0xffffffffffffffffffffffffffffffffffffffff\n      and\n      0xffffffffffffffffffffffffffffffffffffffff\n      and\n      dup2\n      mstore\n      0x20\n      add\n      swap1\n      dup2\n      mstore\n      0x20\n      add\n      0x00\n      keccak256\n      0x00\n        /* \"contracts/Pool/PoolPig.sol\":22622:22656  _isExcludedFromFee[account] = true */\n      0x0100\n      exp\n      dup2\n      sload\n      dup2\n      0xff\n      mul\n      not\n      and\n      swap1\n      dup4\n      iszero\n      iszero\n      mul\n      or\n      swap1\n      sstore\n      pop\n        /* \"contracts/Pool/PoolPig.sol\":22554:22663  function excludeFromFee(address account) public onlyOwner {... */\n      pop\n      jump\t// out\n        /* \"contracts/Pool/PoolPig.sol\":20301:20728  function reflectionFromToken(uint256 tAmount, bool deductTransferFee) public view returns(uint256) {... */\n    tag_110:\n        /* \"contracts/Pool/PoolPig.sol\":20391:20398  uint256 */\n      0x00\n        /* \"contracts/Pool/PoolPig.sol\":15958:15976  1000000000 * 10**9 */\n      0x0de0b6b3a7640000\n        /* \"contracts/Pool/PoolPig.sol\":20418:20425  tAmount */\n      dup4\n        /* \"contracts/Pool/PoolPig.sol\":20418:20436  tAmount <= _tTotal */\n      gt\n      iszero\n        /* \"contracts/Pool/PoolPig.sol\":20410:20472  require(tAmount <= _tTotal, \"Amount must be less than supply\") */\n      tag_273\n      jumpi\n      mload(0x40)\n      0x08c379a000000000000000000000000000000000000000000000000000000000\n      dup2\n      mstore\n      0x04\n      add\n      dup1\n      dup1\n      0x20\n      add\n      dup3\n      dup2\n      sub\n      dup3\n      mstore\n      0x1f\n      dup2\n      mstore\n      0x20\n      add\n      dup1\n      0x416d6f756e74206d757374206265206c657373207468616e20737570706c7900\n      dup2\n      mstore\n      pop\n      0x20\n      add\n      swap2\n      pop\n      pop\n      mload(0x40)\n      dup1\n      swap2\n      sub\n      swap1\n      revert\n    tag_273:\n        /* \"contracts/Pool/PoolPig.sol\":20487:20504  deductTransferFee */\n      dup2\n        /* \"contracts/Pool/PoolPig.sol\":20482:20722  if (!deductTransferFee) {... */\n      tag_274\n      jumpi\n        /* \"contracts/Pool/PoolPig.sol\":20521:20536  uint256 rAmount */\n      0x00\n        /* \"contracts/Pool/PoolPig.sol\":20545:20564  _getValues(tAmount) */\n      tag_275\n        /* \"contracts/Pool/PoolPig.sol\":20556:20563  tAmount */\n      dup5\n        /* \"contracts/Pool/PoolPig.sol\":20545:20555  _getValues */\n      tag_263\n        /* \"contracts/Pool/PoolPig.sol\":20545:20564  _getValues(tAmount) */\n      jump\t// in\n    tag_275:\n        /* \"contracts/Pool/PoolPig.sol\":20520:20564  (uint256 rAmount,,,,,) = _getValues(tAmount) */\n      pop\n      pop\n      pop\n      pop\n      pop\n      swap1\n      pop\n        /* \"contracts/Pool/PoolPig.sol\":20585:20592  rAmount */\n      dup1\n        /* \"contracts/Pool/PoolPig.sol\":20578:20592  return rAmount */\n      swap2\n      pop\n      pop\n      jump(tag_272)\n        /* \"contracts/Pool/PoolPig.sol\":20482:20722  if (!deductTransferFee) {... */\n    tag_274:\n        /* \"contracts/Pool/PoolPig.sol\":20625:20648  uint256 rTransferAmount */\n      0x00\n        /* \"contracts/Pool/PoolPig.sol\":20656:20675  _getValues(tAmount) */\n      tag_277\n        /* \"contracts/Pool/PoolPig.sol\":20667:20674  tAmount */\n      dup5\n        /* \"contracts/Pool/PoolPig.sol\":20656:20666  _getValues */\n      tag_263\n        /* \"contracts/Pool/PoolPig.sol\":20656:20675  _getValues(tAmount) */\n      jump\t// in\n    tag_277:\n        /* \"contracts/Pool/PoolPig.sol\":20623:20675  (,uint256 rTransferAmount,,,,) = _getValues(tAmount) */\n      pop\n      pop\n      pop\n      pop\n      swap2\n      pop\n      pop\n        /* \"contracts/Pool/PoolPig.sol\":20696:20711  rTransferAmount */\n      dup1\n        /* \"contracts/Pool/PoolPig.sol\":20689:20711  return rTransferAmount */\n      swap2\n      pop\n      pop\n        /* \"contracts/Pool/PoolPig.sol\":20301:20728  function reflectionFromToken(uint256 tAmount, bool deductTransferFee) public view returns(uint256) {... */\n    tag_272:\n      swap3\n      swap2\n      pop\n      pop\n      jump\t// out\n        /* \"contracts/Pool/PoolPig.sol\":16425:16463  address public immutable uniswapV2Pair */\n    tag_113:\n      immutable(\"0x56d1aacedfc7d536224f9771bf9213a087360049f74dcef1ba0633f85c459fc6\")\n      dup2\n      jump\t// out\n        /* \"contracts/Pool/PoolPig.sol\":16501:16541  bool public swapAndLiquifyEnabled = true */\n    tag_116:\n      0x15\n      0x01\n      swap1\n      sload\n      swap1\n      0x0100\n      exp\n      swap1\n      div\n      0xff\n      and\n      dup2\n      jump\t// out\n        /* \"contracts/Pool/PoolPig.sol\":20989:21428  function excludeFromReward(address account) public onlyOwner() {... */\n    tag_120:\n        /* \"contracts/Pool/PoolPig.sol\":6045:6057  _msgSender() */\n      tag_279\n        /* \"contracts/Pool/PoolPig.sol\":6045:6055  _msgSender */\n      tag_196\n        /* \"contracts/Pool/PoolPig.sol\":6045:6057  _msgSender() */\n      jump\t// in\n    tag_279:\n        /* \"contracts/Pool/PoolPig.sol\":6035:6057  _owner == _msgSender() */\n      0xffffffffffffffffffffffffffffffffffffffff\n      and\n        /* \"contracts/Pool/PoolPig.sol\":6035:6041  _owner */\n      0x00\n      dup1\n      sload\n      swap1\n      0x0100\n      exp\n      swap1\n      div\n      0xffffffffffffffffffffffffffffffffffffffff\n      and\n        /* \"contracts/Pool/PoolPig.sol\":6035:6057  _owner == _msgSender() */\n      0xffffffffffffffffffffffffffffffffffffffff\n      and\n      eq\n        /* \"contracts/Pool/PoolPig.sol\":6027:6094  require(_owner == _msgSender(), \"Ownable: caller is not the owner\") */\n      tag_280\n      jumpi\n      mload(0x40)\n      0x08c379a000000000000000000000000000000000000000000000000000000000\n      dup2\n      mstore\n      0x04\n      add\n      dup1\n      dup1\n      0x20\n      add\n      dup3\n      dup2\n      sub\n      dup3\n      mstore\n      0x20\n      dup2\n      mstore\n      0x20\n      add\n      dup1\n      0x4f776e61626c653a2063616c6c6572206973206e6f7420746865206f776e6572\n      dup2\n      mstore\n      pop\n      0x20\n      add\n      swap2\n      pop\n      pop\n      mload(0x40)\n      dup1\n      swap2\n      sub\n      swap1\n      revert\n    tag_280:\n        /* \"contracts/Pool/PoolPig.sol\":21184:21195  _isExcluded */\n      0x07\n        /* \"contracts/Pool/PoolPig.sol\":21184:21204  _isExcluded[account] */\n      0x00\n        /* \"contracts/Pool/PoolPig.sol\":21196:21203  account */\n      dup3\n        /* \"contracts/Pool/PoolPig.sol\":21184:21204  _isExcluded[account] */\n      0xffffffffffffffffffffffffffffffffffffffff\n      and\n      0xffffffffffffffffffffffffffffffffffffffff\n      and\n      dup2\n      mstore\n      0x20\n      add\n      swap1\n      dup2\n      mstore\n      0x20\n      add\n      0x00\n      keccak256\n      0x00\n      swap1\n      sload\n      swap1\n      0x0100\n      exp\n      swap1\n      div\n      0xff\n      and\n        /* \"contracts/Pool/PoolPig.sol\":21183:21204  !_isExcluded[account] */\n      iszero\n        /* \"contracts/Pool/PoolPig.sol\":21175:21236  require(!_isExcluded[account], \"Account is already excluded\") */\n      tag_282\n      jumpi\n      mload(0x40)\n      0x08c379a000000000000000000000000000000000000000000000000000000000\n      dup2\n      mstore\n      0x04\n      add\n      dup1\n      dup1\n      0x20\n      add\n      dup3\n      dup2\n      sub\n      dup3\n      mstore\n      0x1b\n      dup2\n      mstore\n      0x20\n      add\n      dup1\n      0x4163636f756e7420697320616c7265616479206578636c756465640000000000\n      dup2\n      mstore\n      pop\n      0x20\n      add\n      swap2\n      pop\n      pop\n      mload(0x40)\n      dup1\n      swap2\n      sub\n      swap1\n      revert\n    tag_282:\n        /* \"contracts/Pool/PoolPig.sol\":21268:21269  0 */\n      0x00\n        /* \"contracts/Pool/PoolPig.sol\":21249:21256  _rOwned */\n      0x03\n        /* \"contracts/Pool/PoolPig.sol\":21249:21265  _rOwned[account] */\n      0x00\n        /* \"contracts/Pool/PoolPig.sol\":21257:21264  account */\n      dup4\n        /* \"contracts/Pool/PoolPig.sol\":21249:21265  _rOwned[account] */\n      0xffffffffffffffffffffffffffffffffffffffff\n      and\n      0xffffffffffffffffffffffffffffffffffffffff\n      and\n      dup2\n      mstore\n      0x20\n      add\n      swap1\n      dup2\n      mstore\n      0x20\n      add\n      0x00\n      keccak256\n      sload\n        /* \"contracts/Pool/PoolPig.sol\":21249:21269  _rOwned[account] > 0 */\n      gt\n        /* \"contracts/Pool/PoolPig.sol\":21246:21352  if(_rOwned[account] > 0) {... */\n      iszero\n      tag_283\n      jumpi\n        /* \"contracts/Pool/PoolPig.sol\":21304:21341  tokenFromReflection(_rOwned[account]) */\n      tag_284\n        /* \"contracts/Pool/PoolPig.sol\":21324:21331  _rOwned */\n      0x03\n        /* \"contracts/Pool/PoolPig.sol\":21324:21340  _rOwned[account] */\n      0x00\n        /* \"contracts/Pool/PoolPig.sol\":21332:21339  account */\n      dup4\n        /* \"contracts/Pool/PoolPig.sol\":21324:21340  _rOwned[account] */\n      0xffffffffffffffffffffffffffffffffffffffff\n      and\n      0xffffffffffffffffffffffffffffffffffffffff\n      and\n      dup2\n      mstore\n      0x20\n      add\n      swap1\n      dup2\n      mstore\n      0x20\n      add\n      0x00\n      keccak256\n      sload\n        /* \"contracts/Pool/PoolPig.sol\":21304:21323  tokenFromReflection */\n      tag_84\n        /* \"contracts/Pool/PoolPig.sol\":21304:21341  tokenFromReflection(_rOwned[account]) */\n      jump\t// in\n    tag_284:\n        /* \"contracts/Pool/PoolPig.sol\":21285:21292  _tOwned */\n      0x04\n        /* \"contracts/Pool/PoolPig.sol\":21285:21301  _tOwned[account] */\n      0x00\n        /* \"contracts/Pool/PoolPig.sol\":21293:21300  account */\n      dup4\n        /* \"contracts/Pool/PoolPig.sol\":21285:21301  _tOwned[account] */\n      0xffffffffffffffffffffffffffffffffffffffff\n      and\n      0xffffffffffffffffffffffffffffffffffffffff\n      and\n      dup2\n      mstore\n      0x20\n      add\n      swap1\n      dup2\n      mstore\n      0x20\n      add\n      0x00\n      keccak256\n        /* \"contracts/Pool/PoolPig.sol\":21285:21341  _tOwned[account] = tokenFromReflection(_rOwned[account]) */\n      dup2\n      swap1\n      sstore\n      pop\n        /* \"contracts/Pool/PoolPig.sol\":21246:21352  if(_rOwned[account] > 0) {... */\n    tag_283:\n        /* \"contracts/Pool/PoolPig.sol\":21384:21388  true */\n      0x01\n        /* \"contracts/Pool/PoolPig.sol\":21361:21372  _isExcluded */\n      0x07\n        /* \"contracts/Pool/PoolPig.sol\":21361:21381  _isExcluded[account] */\n      0x00\n        /* \"contracts/Pool/PoolPig.sol\":21373:21380  account */\n      dup4\n        /* \"contracts/Pool/PoolPig.sol\":21361:21381  _isExcluded[account] */\n      0xffffffffffffffffffffffffffffffffffffffff\n      and\n      0xffffffffffffffffffffffffffffffffffffffff\n      and\n      dup2\n      mstore\n      0x20\n      add\n      swap1\n      dup2\n      mstore\n      0x20\n      add\n      0x00\n      keccak256\n      0x00\n        /* \"contracts/Pool/PoolPig.sol\":21361:21388  _isExcluded[account] = true */\n      0x0100\n      exp\n      dup2\n      sload\n      dup2\n      0xff\n      mul\n      not\n      and\n      swap1\n      dup4\n      iszero\n      iszero\n      mul\n      or\n      swap1\n      sstore\n      pop\n        /* \"contracts/Pool/PoolPig.sol\":21398:21407  _excluded */\n      0x08\n        /* \"contracts/Pool/PoolPig.sol\":21413:21420  account */\n      dup2\n        /* \"contracts/Pool/PoolPig.sol\":21398:21421  _excluded.push(account) */\n      swap1\n      dup1\n      0x01\n      dup2\n      sload\n      add\n      dup1\n      dup3\n      sstore\n      dup1\n      swap2\n      pop\n      pop\n      0x01\n      swap1\n      sub\n      swap1\n      0x00\n      mstore\n      keccak256(0x00, 0x20)\n      add\n      0x00\n      swap1\n      swap2\n      swap1\n      swap2\n      swap1\n      swap2\n      0x0100\n      exp\n      dup2\n      sload\n      dup2\n      0xffffffffffffffffffffffffffffffffffffffff\n      mul\n      not\n      and\n      swap1\n      dup4\n      0xffffffffffffffffffffffffffffffffffffffff\n      and\n      mul\n      or\n      swap1\n      sstore\n      pop\n        /* \"contracts/Pool/PoolPig.sol\":20989:21428  function excludeFromReward(address account) public onlyOwner() {... */\n      pop\n      jump\t// out\n        /* \"contracts/Pool/PoolPig.sol\":27205:27326  function isExcludedFromFee(address account) public view returns(bool) {... */\n    tag_124:\n        /* \"contracts/Pool/PoolPig.sol\":27269:27273  bool */\n      0x00\n        /* \"contracts/Pool/PoolPig.sol\":27292:27310  _isExcludedFromFee */\n      0x06\n        /* \"contracts/Pool/PoolPig.sol\":27292:27319  _isExcludedFromFee[account] */\n      0x00\n        /* \"contracts/Pool/PoolPig.sol\":27311:27318  account */\n      dup4\n        /* \"contracts/Pool/PoolPig.sol\":27292:27319  _isExcludedFromFee[account] */\n      0xffffffffffffffffffffffffffffffffffffffff\n      and\n      0xffffffffffffffffffffffffffffffffffffffff\n      and\n      dup2\n      mstore\n      0x20\n      add\n      swap1\n      dup2\n      mstore\n      0x20\n      add\n      0x00\n      keccak256\n      0x00\n      swap1\n      sload\n      swap1\n      0x0100\n      exp\n      swap1\n      div\n      0xff\n      and\n        /* \"contracts/Pool/PoolPig.sol\":27285:27319  return _isExcludedFromFee[account] */\n      swap1\n      pop\n        /* \"contracts/Pool/PoolPig.sol\":27205:27326  function isExcludedFromFee(address account) public view returns(bool) {... */\n      swap2\n      swap1\n      pop\n      jump\t// out\n        /* \"contracts/Pool/PoolPig.sol\":16270:16302  uint256 public _liquidityFee = 3 */\n    tag_127:\n      sload(0x13)\n      dup2\n      jump\t// out\n        /* \"contracts/Pool/PoolPig.sol\":18220:18415  function balanceOf(address account) public view override returns (uint256) {... */\n    tag_131:\n        /* \"contracts/Pool/PoolPig.sol\":18286:18293  uint256 */\n      0x00\n        /* \"contracts/Pool/PoolPig.sol\":18309:18320  _isExcluded */\n      0x07\n        /* \"contracts/Pool/PoolPig.sol\":18309:18329  _isExcluded[account] */\n      0x00\n        /* \"contracts/Pool/PoolPig.sol\":18321:18328  account */\n      dup4\n        /* \"contracts/Pool/PoolPig.sol\":18309:18329  _isExcluded[account] */\n      0xffffffffffffffffffffffffffffffffffffffff\n      and\n      0xffffffffffffffffffffffffffffffffffffffff\n      and\n      dup2\n      mstore\n      0x20\n      add\n      swap1\n      dup2\n      mstore\n      0x20\n      add\n      0x00\n      keccak256\n      0x00\n      swap1\n      sload\n      swap1\n      0x0100\n      exp\n      swap1\n      div\n      0xff\n      and\n        /* \"contracts/Pool/PoolPig.sol\":18305:18354  if (_isExcluded[account]) return _tOwned[account] */\n      iszero\n      tag_288\n      jumpi\n        /* \"contracts/Pool/PoolPig.sol\":18338:18345  _tOwned */\n      0x04\n        /* \"contracts/Pool/PoolPig.sol\":18338:18354  _tOwned[account] */\n      0x00\n        /* \"contracts/Pool/PoolPig.sol\":18346:18353  account */\n      dup4\n        /* \"contracts/Pool/PoolPig.sol\":18338:18354  _tOwned[account] */\n      0xffffffffffffffffffffffffffffffffffffffff\n      and\n      0xffffffffffffffffffffffffffffffffffffffff\n      and\n      dup2\n      mstore\n      0x20\n      add\n      swap1\n      dup2\n      mstore\n      0x20\n      add\n      0x00\n      keccak256\n      sload\n        /* \"contracts/Pool/PoolPig.sol\":18331:18354  return _tOwned[account] */\n      swap1\n      pop\n      jump(tag_287)\n        /* \"contracts/Pool/PoolPig.sol\":18305:18354  if (_isExcluded[account]) return _tOwned[account] */\n    tag_288:\n        /* \"contracts/Pool/PoolPig.sol\":18371:18408  tokenFromReflection(_rOwned[account]) */\n      tag_289\n        /* \"contracts/Pool/PoolPig.sol\":18391:18398  _rOwned */\n      0x03\n        /* \"contracts/Pool/PoolPig.sol\":18391:18407  _rOwned[account] */\n      0x00\n        /* \"contracts/Pool/PoolPig.sol\":18399:18406  account */\n      dup5\n        /* \"contracts/Pool/PoolPig.sol\":18391:18407  _rOwned[account] */\n      0xffffffffffffffffffffffffffffffffffffffff\n      and\n      0xffffffffffffffffffffffffffffffffffffffff\n      and\n      dup2\n      mstore\n      0x20\n      add\n      swap1\n      dup2\n      mstore\n      0x20\n      add\n      0x00\n      keccak256\n      sload\n        /* \"contracts/Pool/PoolPig.sol\":18371:18390  tokenFromReflection */\n      tag_84\n        /* \"contracts/Pool/PoolPig.sol\":18371:18408  tokenFromReflection(_rOwned[account]) */\n      jump\t// in\n    tag_289:\n        /* \"contracts/Pool/PoolPig.sol\":18364:18408  return tokenFromReflection(_rOwned[account]) */\n      swap1\n      pop\n        /* \"contracts/Pool/PoolPig.sol\":18220:18415  function balanceOf(address account) public view override returns (uint256) {... */\n    tag_287:\n      swap2\n      swap1\n      pop\n      jump\t// out\n        /* \"contracts/Pool/PoolPig.sol\":6118:6263  function renounceOwnership() public virtual onlyOwner {... */\n    tag_134:\n        /* \"contracts/Pool/PoolPig.sol\":6045:6057  _msgSender() */\n      tag_291\n        /* \"contracts/Pool/PoolPig.sol\":6045:6055  _msgSender */\n      tag_196\n        /* \"contracts/Pool/PoolPig.sol\":6045:6057  _msgSender() */\n      jump\t// in\n    tag_291:\n        /* \"contracts/Pool/PoolPig.sol\":6035:6057  _owner == _msgSender() */\n      0xffffffffffffffffffffffffffffffffffffffff\n      and\n        /* \"contracts/Pool/PoolPig.sol\":6035:6041  _owner */\n      0x00\n      dup1\n      sload\n      swap1\n      0x0100\n      exp\n      swap1\n      div\n      0xffffffffffffffffffffffffffffffffffffffff\n      and\n        /* \"contracts/Pool/PoolPig.sol\":6035:6057  _owner == _msgSender() */\n      0xffffffffffffffffffffffffffffffffffffffff\n      and\n      eq\n        /* \"contracts/Pool/PoolPig.sol\":6027:6094  require(_owner == _msgSender(), \"Ownable: caller is not the owner\") */\n      tag_292\n      jumpi\n      mload(0x40)\n      0x08c379a000000000000000000000000000000000000000000000000000000000\n      dup2\n      mstore\n      0x04\n      add\n      dup1\n      dup1\n      0x20\n      add\n      dup3\n      dup2\n      sub\n      dup3\n      mstore\n      0x20\n      dup2\n      mstore\n      0x20\n      add\n      dup1\n      0x4f776e61626c653a2063616c6c6572206973206e6f7420746865206f776e6572\n      dup2\n      mstore\n      pop\n      0x20\n      add\n      swap2\n      pop\n      pop\n      mload(0x40)\n      dup1\n      swap2\n      sub\n      swap1\n      revert\n    tag_292:\n        /* \"contracts/Pool/PoolPig.sol\":6224:6225  0 */\n      0x00\n        /* \"contracts/Pool/PoolPig.sol\":6187:6227  OwnershipTransferred(_owner, address(0)) */\n      0xffffffffffffffffffffffffffffffffffffffff\n      and\n        /* \"contracts/Pool/PoolPig.sol\":6208:6214  _owner */\n      0x00\n      dup1\n      sload\n      swap1\n      0x0100\n      exp\n      swap1\n      div\n      0xffffffffffffffffffffffffffffffffffffffff\n      and\n        /* \"contracts/Pool/PoolPig.sol\":6187:6227  OwnershipTransferred(_owner, address(0)) */\n      0xffffffffffffffffffffffffffffffffffffffff\n      and\n      0x8be0079c531659141344cd1fd0a4f28419497f9722a3daafe3b4186f6b6457e0\n      mload(0x40)\n      mload(0x40)\n      dup1\n      swap2\n      sub\n      swap1\n      log3\n        /* \"contracts/Pool/PoolPig.sol\":6254:6255  0 */\n      0x00\n        /* \"contracts/Pool/PoolPig.sol\":6237:6243  _owner */\n      dup1\n      0x00\n        /* \"contracts/Pool/PoolPig.sol\":6237:6256  _owner = address(0) */\n      0x0100\n      exp\n      dup2\n      sload\n      dup2\n      0xffffffffffffffffffffffffffffffffffffffff\n      mul\n      not\n      and\n      swap1\n      dup4\n      0xffffffffffffffffffffffffffffffffffffffff\n      and\n      mul\n      or\n      swap1\n      sstore\n      pop\n        /* \"contracts/Pool/PoolPig.sol\":6118:6263  function renounceOwnership() public virtual onlyOwner {... */\n      jump\t// out\n        /* \"contracts/Pool/PoolPig.sol\":16585:16632  uint256 public _maxTxAmount = 500000000 * 10**9 */\n    tag_137:\n      sload(0x16)\n      dup2\n      jump\t// out\n        /* \"contracts/Pool/PoolPig.sol\":19710:19828  function isExcludedFromReward(address account) public view returns (bool) {... */\n    tag_141:\n        /* \"contracts/Pool/PoolPig.sol\":19778:19782  bool */\n      0x00\n        /* \"contracts/Pool/PoolPig.sol\":19801:19812  _isExcluded */\n      0x07\n        /* \"contracts/Pool/PoolPig.sol\":19801:19821  _isExcluded[account] */\n      0x00\n        /* \"contracts/Pool/PoolPig.sol\":19813:19820  account */\n      dup4\n        /* \"contracts/Pool/PoolPig.sol\":19801:19821  _isExcluded[account] */\n      0xffffffffffffffffffffffffffffffffffffffff\n      and\n      0xffffffffffffffffffffffffffffffffffffffff\n      and\n      dup2\n      mstore\n      0x20\n      add\n      swap1\n      dup2\n      mstore\n      0x20\n      add\n      0x00\n      keccak256\n      0x00\n      swap1\n      sload\n      swap1\n      0x0100\n      exp\n      swap1\n      div\n      0xff\n      and\n        /* \"contracts/Pool/PoolPig.sol\":19794:19821  return _isExcluded[account] */\n      swap1\n      pop\n        /* \"contracts/Pool/PoolPig.sol\":19710:19828  function isExcludedFromReward(address account) public view returns (bool) {... */\n      swap2\n      swap1\n      pop\n      jump\t// out\n        /* \"contracts/Pool/PoolPig.sol\":5831:5908  function owner() public view returns (address) {... */\n    tag_144:\n        /* \"contracts/Pool/PoolPig.sol\":5869:5876  address */\n      0x00\n        /* \"contracts/Pool/PoolPig.sol\":5895:5901  _owner */\n      dup1\n      0x00\n      swap1\n      sload\n      swap1\n      0x0100\n      exp\n      swap1\n      div\n      0xffffffffffffffffffffffffffffffffffffffff\n      and\n        /* \"contracts/Pool/PoolPig.sol\":5888:5901  return _owner */\n      swap1\n      pop\n        /* \"contracts/Pool/PoolPig.sol\":5831:5908  function owner() public view returns (address) {... */\n      swap1\n      jump\t// out\n        /* \"contracts/Pool/PoolPig.sol\":22897:23017  function setLiquidityFeePercent(uint256 liquidityFee) external onlyOwner() {... */\n    tag_148:\n        /* \"contracts/Pool/PoolPig.sol\":6045:6057  _msgSender() */\n      tag_297\n        /* \"contracts/Pool/PoolPig.sol\":6045:6055  _msgSender */\n      tag_196\n        /* \"contracts/Pool/PoolPig.sol\":6045:6057  _msgSender() */\n      jump\t// in\n    tag_297:\n        /* \"contracts/Pool/PoolPig.sol\":6035:6057  _owner == _msgSender() */\n      0xffffffffffffffffffffffffffffffffffffffff\n      and\n        /* \"contracts/Pool/PoolPig.sol\":6035:6041  _owner */\n      0x00\n      dup1\n      sload\n      swap1\n      0x0100\n      exp\n      swap1\n      div\n      0xffffffffffffffffffffffffffffffffffffffff\n      and\n        /* \"contracts/Pool/PoolPig.sol\":6035:6057  _owner == _msgSender() */\n      0xffffffffffffffffffffffffffffffffffffffff\n      and\n      eq\n        /* \"contracts/Pool/PoolPig.sol\":6027:6094  require(_owner == _msgSender(), \"Ownable: caller is not the owner\") */\n      tag_298\n      jumpi\n      mload(0x40)\n      0x08c379a000000000000000000000000000000000000000000000000000000000\n      dup2\n      mstore\n      0x04\n      add\n      dup1\n      dup1\n      0x20\n      add\n      dup3\n      dup2\n      sub\n      dup3\n      mstore\n      0x20\n      dup2\n      mstore\n      0x20\n      add\n      dup1\n      0x4f776e61626c653a2063616c6c6572206973206e6f7420746865206f776e6572\n      dup2\n      mstore\n      pop\n      0x20\n      add\n      swap2\n      pop\n      pop\n      mload(0x40)\n      dup1\n      swap2\n      sub\n      swap1\n      revert\n    tag_298:\n        /* \"contracts/Pool/PoolPig.sol\":22998:23010  liquidityFee */\n      dup1\n        /* \"contracts/Pool/PoolPig.sol\":22982:22995  _liquidityFee */\n      0x13\n        /* \"contracts/Pool/PoolPig.sol\":22982:23010  _liquidityFee = liquidityFee */\n      dup2\n      swap1\n      sstore\n      pop\n        /* \"contracts/Pool/PoolPig.sol\":22897:23017  function setLiquidityFeePercent(uint256 liquidityFee) external onlyOwner() {... */\n      pop\n      jump\t// out\n        /* \"contracts/Pool/PoolPig.sol\":17943:18028  function symbol() public view returns (string memory) {... */\n    tag_151:\n        /* \"contracts/Pool/PoolPig.sol\":17982:17995  string memory */\n      0x60\n        /* \"contracts/Pool/PoolPig.sol\":18014:18021  _symbol */\n      0x0f\n        /* \"contracts/Pool/PoolPig.sol\":18007:18021  return _symbol */\n      dup1\n      sload\n      0x01\n      dup2\n      0x01\n      and\n      iszero\n      0x0100\n      mul\n      sub\n      and\n      0x02\n      swap1\n      div\n      dup1\n      0x1f\n      add\n      0x20\n      dup1\n      swap2\n      div\n      mul\n      0x20\n      add\n      mload(0x40)\n      swap1\n      dup2\n      add\n      0x40\n      mstore\n      dup1\n      swap3\n      swap2\n      swap1\n      dup2\n      dup2\n      mstore\n      0x20\n      add\n      dup3\n      dup1\n      sload\n      0x01\n      dup2\n      0x01\n      and\n      iszero\n      0x0100\n      mul\n      sub\n      and\n      0x02\n      swap1\n      div\n      dup1\n      iszero\n      tag_301\n      jumpi\n      dup1\n      0x1f\n      lt\n      tag_302\n      jumpi\n      0x0100\n      dup1\n      dup4\n      sload\n      div\n      mul\n      dup4\n      mstore\n      swap2\n      0x20\n      add\n      swap2\n      jump(tag_301)\n    tag_302:\n      dup3\n      add\n      swap2\n      swap1\n      0x00\n      mstore\n      keccak256(0x00, 0x20)\n      swap1\n    tag_303:\n      dup2\n      sload\n      dup2\n      mstore\n      swap1\n      0x01\n      add\n      swap1\n      0x20\n      add\n      dup1\n      dup4\n      gt\n      tag_303\n      jumpi\n      dup3\n      swap1\n      sub\n      0x1f\n      and\n      dup3\n      add\n      swap2\n    tag_301:\n      pop\n      pop\n      pop\n      pop\n      pop\n      swap1\n      pop\n        /* \"contracts/Pool/PoolPig.sol\":17943:18028  function symbol() public view returns (string memory) {... */\n      swap1\n      jump\t// out\n        /* \"contracts/Pool/PoolPig.sol\":19438:19704  function decreaseAllowance(address spender, uint256 subtractedValue) public virtual returns (bool) {... */\n    tag_159:\n        /* \"contracts/Pool/PoolPig.sol\":19531:19535  bool */\n      0x00\n        /* \"contracts/Pool/PoolPig.sol\":19547:19676  _approve(_msgSender(), spender, _allowances[_msgSender()][spender].sub(subtractedValue, \"ERC20: decreased allowance below zero\")) */\n      tag_305\n        /* \"contracts/Pool/PoolPig.sol\":19556:19568  _msgSender() */\n      tag_306\n        /* \"contracts/Pool/PoolPig.sol\":19556:19566  _msgSender */\n      tag_196\n        /* \"contracts/Pool/PoolPig.sol\":19556:19568  _msgSender() */\n      jump\t// in\n    tag_306:\n        /* \"contracts/Pool/PoolPig.sol\":19570:19577  spender */\n      dup5\n        /* \"contracts/Pool/PoolPig.sol\":19579:19675  _allowances[_msgSender()][spender].sub(subtractedValue, \"ERC20: decreased allowance below zero\") */\n      tag_307\n        /* \"contracts/Pool/PoolPig.sol\":19618:19633  subtractedValue */\n      dup6\n        /* \"contracts/Pool/PoolPig.sol\":19579:19675  _allowances[_msgSender()][spender].sub(subtractedValue, \"ERC20: decreased allowance below zero\") */\n      mload(0x40)\n      dup1\n      0x60\n      add\n      0x40\n      mstore\n      dup1\n      0x25\n      dup2\n      mstore\n      0x20\n      add\n      data_f8b476f7d28209d77d4a4ac1fe36b9f8259aa1bb6bddfa6e89de7e51615cf8a8\n      0x25\n      swap2\n      codecopy\n        /* \"contracts/Pool/PoolPig.sol\":19579:19590  _allowances */\n      0x05\n        /* \"contracts/Pool/PoolPig.sol\":19579:19604  _allowances[_msgSender()] */\n      0x00\n        /* \"contracts/Pool/PoolPig.sol\":19591:19603  _msgSender() */\n      tag_308\n        /* \"contracts/Pool/PoolPig.sol\":19591:19601  _msgSender */\n      tag_196\n        /* \"contracts/Pool/PoolPig.sol\":19591:19603  _msgSender() */\n      jump\t// in\n    tag_308:\n        /* \"contracts/Pool/PoolPig.sol\":19579:19604  _allowances[_msgSender()] */\n      0xffffffffffffffffffffffffffffffffffffffff\n      and\n      0xffffffffffffffffffffffffffffffffffffffff\n      and\n      dup2\n      mstore\n      0x20\n      add\n      swap1\n      dup2\n      mstore\n      0x20\n      add\n      0x00\n      keccak256\n        /* \"contracts/Pool/PoolPig.sol\":19579:19613  _allowances[_msgSender()][spender] */\n      0x00\n        /* \"contracts/Pool/PoolPig.sol\":19605:19612  spender */\n      dup11\n        /* \"contracts/Pool/PoolPig.sol\":19579:19613  _allowances[_msgSender()][spender] */\n      0xffffffffffffffffffffffffffffffffffffffff\n      and\n      0xffffffffffffffffffffffffffffffffffffffff\n      and\n      dup2\n      mstore\n      0x20\n      add\n      swap1\n      dup2\n      mstore\n      0x20\n      add\n      0x00\n      keccak256\n      sload\n        /* \"contracts/Pool/PoolPig.sol\":19579:19617  _allowances[_msgSender()][spender].sub */\n      tag_228\n      swap1\n        /* \"contracts/Pool/PoolPig.sol\":19579:19675  _allowances[_msgSender()][spender].sub(subtractedValue, \"ERC20: decreased allowance below zero\") */\n      swap3\n      swap2\n      swap1\n      0xffffffff\n      and\n      jump\t// in\n    tag_307:\n        /* \"contracts/Pool/PoolPig.sol\":19547:19555  _approve */\n      tag_200\n        /* \"contracts/Pool/PoolPig.sol\":19547:19676  _approve(_msgSender(), spender, _allowances[_msgSender()][spender].sub(subtractedValue, \"ERC20: decreased allowance below zero\")) */\n      jump\t// in\n    tag_305:\n        /* \"contracts/Pool/PoolPig.sol\":19693:19697  true */\n      0x01\n        /* \"contracts/Pool/PoolPig.sol\":19686:19697  return true */\n      swap1\n      pop\n        /* \"contracts/Pool/PoolPig.sol\":19438:19704  function decreaseAllowance(address spender, uint256 subtractedValue) public virtual returns (bool) {... */\n      swap3\n      swap2\n      pop\n      pop\n      jump\t// out\n        /* \"contracts/Pool/PoolPig.sol\":6957:7245  function unlock() public virtual {... */\n    tag_162:\n        /* \"contracts/Pool/PoolPig.sol\":7026:7036  msg.sender */\n      caller\n        /* \"contracts/Pool/PoolPig.sol\":7008:7036  _previousOwner == msg.sender */\n      0xffffffffffffffffffffffffffffffffffffffff\n      and\n        /* \"contracts/Pool/PoolPig.sol\":7008:7022  _previousOwner */\n      0x01\n      0x00\n      swap1\n      sload\n      swap1\n      0x0100\n      exp\n      swap1\n      div\n      0xffffffffffffffffffffffffffffffffffffffff\n      and\n        /* \"contracts/Pool/PoolPig.sol\":7008:7036  _previousOwner == msg.sender */\n      0xffffffffffffffffffffffffffffffffffffffff\n      and\n      eq\n        /* \"contracts/Pool/PoolPig.sol\":7000:7076  require(_previousOwner == msg.sender, \"You don't have permission to unlock\") */\n      tag_310\n      jumpi\n      mload(0x40)\n      0x08c379a000000000000000000000000000000000000000000000000000000000\n      dup2\n      mstore\n      0x04\n      add\n      dup1\n      dup1\n      0x20\n      add\n      dup3\n      dup2\n      sub\n      dup3\n      mstore\n      0x23\n      dup2\n      mstore\n      0x20\n      add\n      dup1\n      data_f4eb59be3df39931213d374c3658377dca3f0d2b46b7bc965af767c57c74b611\n      0x23\n      swap2\n      codecopy\n      0x40\n      add\n      swap2\n      pop\n      pop\n      mload(0x40)\n      dup1\n      swap2\n      sub\n      swap1\n      revert\n    tag_310:\n        /* \"contracts/Pool/PoolPig.sol\":7100:7109  _lockTime */\n      sload(0x02)\n        /* \"contracts/Pool/PoolPig.sol\":7094:7097  now */\n      timestamp\n        /* \"contracts/Pool/PoolPig.sol\":7094:7109  now > _lockTime */\n      gt\n        /* \"contracts/Pool/PoolPig.sol\":7086:7146  require(now > _lockTime , \"Contract is locked until 7 days\") */\n      tag_311\n      jumpi\n      mload(0x40)\n      0x08c379a000000000000000000000000000000000000000000000000000000000\n      dup2\n      mstore\n      0x04\n      add\n      dup1\n      dup1\n      0x20\n      add\n      dup3\n      dup2\n      sub\n      dup3\n      mstore\n      0x1f\n      dup2\n      mstore\n      0x20\n      add\n      dup1\n      0x436f6e7472616374206973206c6f636b656420756e74696c2037206461797300\n      dup2\n      mstore\n      pop\n      0x20\n      add\n      swap2\n      pop\n      pop\n      mload(0x40)\n      dup1\n      swap2\n      sub\n      swap1\n      revert\n    tag_311:\n        /* \"contracts/Pool/PoolPig.sol\":7190:7204  _previousOwner */\n      0x01\n      0x00\n      swap1\n      sload\n      swap1\n      0x0100\n      exp\n      swap1\n      div\n      0xffffffffffffffffffffffffffffffffffffffff\n      and\n        /* \"contracts/Pool/PoolPig.sol\":7161:7205  OwnershipTransferred(_owner, _previousOwner) */\n      0xffffffffffffffffffffffffffffffffffffffff\n      and\n        /* \"contracts/Pool/PoolPig.sol\":7182:7188  _owner */\n      0x00\n      dup1\n      sload\n      swap1\n      0x0100\n      exp\n      swap1\n      div\n      0xffffffffffffffffffffffffffffffffffffffff\n      and\n        /* \"contracts/Pool/PoolPig.sol\":7161:7205  OwnershipTransferred(_owner, _previousOwner) */\n      0xffffffffffffffffffffffffffffffffffffffff\n      and\n      0x8be0079c531659141344cd1fd0a4f28419497f9722a3daafe3b4186f6b6457e0\n      mload(0x40)\n      mload(0x40)\n      dup1\n      swap2\n      sub\n      swap1\n      log3\n        /* \"contracts/Pool/PoolPig.sol\":7224:7238  _previousOwner */\n      0x01\n      0x00\n      swap1\n      sload\n      swap1\n      0x0100\n      exp\n      swap1\n      div\n      0xffffffffffffffffffffffffffffffffffffffff\n      and\n        /* \"contracts/Pool/PoolPig.sol\":7215:7221  _owner */\n      0x00\n      dup1\n        /* \"contracts/Pool/PoolPig.sol\":7215:7238  _owner = _previousOwner */\n      0x0100\n      exp\n      dup2\n      sload\n      dup2\n      0xffffffffffffffffffffffffffffffffffffffff\n      mul\n      not\n      and\n      swap1\n      dup4\n      0xffffffffffffffffffffffffffffffffffffffff\n      and\n      mul\n      or\n      swap1\n      sstore\n      pop\n        /* \"contracts/Pool/PoolPig.sol\":6957:7245  function unlock() public virtual {... */\n      jump\t// out\n        /* \"contracts/Pool/PoolPig.sol\":18421:18585  function transfer(address recipient, uint256 amount) public override returns (bool) {... */\n    tag_166:\n        /* \"contracts/Pool/PoolPig.sol\":18499:18503  bool */\n      0x00\n        /* \"contracts/Pool/PoolPig.sol\":18515:18557  _transfer(_msgSender(), recipient, amount) */\n      tag_313\n        /* \"contracts/Pool/PoolPig.sol\":18525:18537  _msgSender() */\n      tag_314\n        /* \"contracts/Pool/PoolPig.sol\":18525:18535  _msgSender */\n      tag_196\n        /* \"contracts/Pool/PoolPig.sol\":18525:18537  _msgSender() */\n      jump\t// in\n    tag_314:\n        /* \"contracts/Pool/PoolPig.sol\":18539:18548  recipient */\n      dup5\n        /* \"contracts/Pool/PoolPig.sol\":18550:18556  amount */\n      dup5\n        /* \"contracts/Pool/PoolPig.sol\":18515:18524  _transfer */\n      tag_223\n        /* \"contracts/Pool/PoolPig.sol\":18515:18557  _transfer(_msgSender(), recipient, amount) */\n      jump\t// in\n    tag_313:\n        /* \"contracts/Pool/PoolPig.sol\":18574:18578  true */\n      0x01\n        /* \"contracts/Pool/PoolPig.sol\":18567:18578  return true */\n      swap1\n      pop\n        /* \"contracts/Pool/PoolPig.sol\":18421:18585  function transfer(address recipient, uint256 amount) public override returns (bool) {... */\n      swap3\n      swap2\n      pop\n      pop\n      jump\t// out\n        /* \"contracts/Pool/PoolPig.sol\":6515:6602  function geUnlockTime() public view returns (uint256) {... */\n    tag_169:\n        /* \"contracts/Pool/PoolPig.sol\":6560:6567  uint256 */\n      0x00\n        /* \"contracts/Pool/PoolPig.sol\":6586:6595  _lockTime */\n      sload(0x02)\n        /* \"contracts/Pool/PoolPig.sol\":6579:6595  return _lockTime */\n      swap1\n      pop\n        /* \"contracts/Pool/PoolPig.sol\":6515:6602  function geUnlockTime() public view returns (uint256) {... */\n      swap1\n      jump\t// out\n        /* \"contracts/Pool/PoolPig.sol\":23190:23358  function setSwapAndLiquifyEnabled(bool _enabled) public onlyOwner {... */\n    tag_173:\n        /* \"contracts/Pool/PoolPig.sol\":6045:6057  _msgSender() */\n      tag_317\n        /* \"contracts/Pool/PoolPig.sol\":6045:6055  _msgSender */\n      tag_196\n        /* \"contracts/Pool/PoolPig.sol\":6045:6057  _msgSender() */\n      jump\t// in\n    tag_317:\n        /* \"contracts/Pool/PoolPig.sol\":6035:6057  _owner == _msgSender() */\n      0xffffffffffffffffffffffffffffffffffffffff\n      and\n        /* \"contracts/Pool/PoolPig.sol\":6035:6041  _owner */\n      0x00\n      dup1\n      sload\n      swap1\n      0x0100\n      exp\n      swap1\n      div\n      0xffffffffffffffffffffffffffffffffffffffff\n      and\n        /* \"contracts/Pool/PoolPig.sol\":6035:6057  _owner == _msgSender() */\n      0xffffffffffffffffffffffffffffffffffffffff\n      and\n      eq\n        /* \"contracts/Pool/PoolPig.sol\":6027:6094  require(_owner == _msgSender(), \"Ownable: caller is not the owner\") */\n      tag_318\n      jumpi\n      mload(0x40)\n      0x08c379a000000000000000000000000000000000000000000000000000000000\n      dup2\n      mstore\n      0x04\n      add\n      dup1\n      dup1\n      0x20\n      add\n      dup3\n      dup2\n      sub\n      dup3\n      mstore\n      0x20\n      dup2\n      mstore\n      0x20\n      add\n      dup1\n      0x4f776e61626c653a2063616c6c6572206973206e6f7420746865206f776e6572\n      dup2\n      mstore\n      pop\n      0x20\n      add\n      swap2\n      pop\n      pop\n      mload(0x40)\n      dup1\n      swap2\n      sub\n      swap1\n      revert\n    tag_318:\n        /* \"contracts/Pool/PoolPig.sol\":23290:23298  _enabled */\n      dup1\n        /* \"contracts/Pool/PoolPig.sol\":23266:23287  swapAndLiquifyEnabled */\n      0x15\n      0x01\n        /* \"contracts/Pool/PoolPig.sol\":23266:23298  swapAndLiquifyEnabled = _enabled */\n      0x0100\n      exp\n      dup2\n      sload\n      dup2\n      0xff\n      mul\n      not\n      and\n      swap1\n      dup4\n      iszero\n      iszero\n      mul\n      or\n      swap1\n      sstore\n      pop\n        /* \"contracts/Pool/PoolPig.sol\":23313:23351  SwapAndLiquifyEnabledUpdated(_enabled) */\n      0x53726dfcaf90650aa7eb35524f4d3220f07413c8d6cb404cc8c18bf5591bc159\n        /* \"contracts/Pool/PoolPig.sol\":23342:23350  _enabled */\n      dup2\n        /* \"contracts/Pool/PoolPig.sol\":23313:23351  SwapAndLiquifyEnabledUpdated(_enabled) */\n      mload(0x40)\n      dup1\n      dup3\n      iszero\n      iszero\n      dup2\n      mstore\n      0x20\n      add\n      swap2\n      pop\n      pop\n      mload(0x40)\n      dup1\n      swap2\n      sub\n      swap1\n      log1\n        /* \"contracts/Pool/PoolPig.sol\":23190:23358  function setSwapAndLiquifyEnabled(bool _enabled) public onlyOwner {... */\n      pop\n      jump\t// out\n        /* \"contracts/Pool/PoolPig.sol\":23026:23184  function setMaxTxPercent(uint256 maxTxPercent) external onlyOwner() {... */\n    tag_177:\n        /* \"contracts/Pool/PoolPig.sol\":6045:6057  _msgSender() */\n      tag_321\n        /* \"contracts/Pool/PoolPig.sol\":6045:6055  _msgSender */\n      tag_196\n        /* \"contracts/Pool/PoolPig.sol\":6045:6057  _msgSender() */\n      jump\t// in\n    tag_321:\n        /* \"contracts/Pool/PoolPig.sol\":6035:6057  _owner == _msgSender() */\n      0xffffffffffffffffffffffffffffffffffffffff\n      and\n        /* \"contracts/Pool/PoolPig.sol\":6035:6041  _owner */\n      0x00\n      dup1\n      sload\n      swap1\n      0x0100\n      exp\n      swap1\n      div\n      0xffffffffffffffffffffffffffffffffffffffff\n      and\n        /* \"contracts/Pool/PoolPig.sol\":6035:6057  _owner == _msgSender() */\n      0xffffffffffffffffffffffffffffffffffffffff\n      and\n      eq\n        /* \"contracts/Pool/PoolPig.sol\":6027:6094  require(_owner == _msgSender(), \"Ownable: caller is not the owner\") */\n      tag_322\n      jumpi\n      mload(0x40)\n      0x08c379a000000000000000000000000000000000000000000000000000000000\n      dup2\n      mstore\n      0x04\n      add\n      dup1\n      dup1\n      0x20\n      add\n      dup3\n      dup2\n      sub\n      dup3\n      mstore\n      0x20\n      dup2\n      mstore\n      0x20\n      add\n      dup1\n      0x4f776e61626c653a2063616c6c6572206973206e6f7420746865206f776e6572\n      dup2\n      mstore\n      pop\n      0x20\n      add\n      swap2\n      pop\n      pop\n      mload(0x40)\n      dup1\n      swap2\n      sub\n      swap1\n      revert\n    tag_322:\n        /* \"contracts/Pool/PoolPig.sol\":23119:23177  _tTotal.mul(maxTxPercent).div(... */\n      tag_324\n        /* \"contracts/Pool/PoolPig.sol\":23162:23167  10**2 */\n      0x64\n        /* \"contracts/Pool/PoolPig.sol\":23119:23144  _tTotal.mul(maxTxPercent) */\n      tag_325\n        /* \"contracts/Pool/PoolPig.sol\":23131:23143  maxTxPercent */\n      dup4\n        /* \"contracts/Pool/PoolPig.sol\":15958:15976  1000000000 * 10**9 */\n      0x0de0b6b3a7640000\n        /* \"contracts/Pool/PoolPig.sol\":23119:23130  _tTotal.mul */\n      tag_326\n      swap1\n        /* \"contracts/Pool/PoolPig.sol\":23119:23144  _tTotal.mul(maxTxPercent) */\n      swap2\n      swap1\n      0xffffffff\n      and\n      jump\t// in\n    tag_325:\n        /* \"contracts/Pool/PoolPig.sol\":23119:23148  _tTotal.mul(maxTxPercent).div */\n      tag_234\n      swap1\n        /* \"contracts/Pool/PoolPig.sol\":23119:23177  _tTotal.mul(maxTxPercent).div(... */\n      swap2\n      swap1\n      0xffffffff\n      and\n      jump\t// in\n    tag_324:\n        /* \"contracts/Pool/PoolPig.sol\":23104:23116  _maxTxAmount */\n      0x16\n        /* \"contracts/Pool/PoolPig.sol\":23104:23177  _maxTxAmount = _tTotal.mul(maxTxPercent).div(... */\n      dup2\n      swap1\n      sstore\n      pop\n        /* \"contracts/Pool/PoolPig.sol\":23026:23184  function setMaxTxPercent(uint256 maxTxPercent) external onlyOwner() {... */\n      pop\n      jump\t// out\n        /* \"contracts/Pool/PoolPig.sol\":6675:6884  function lock(uint256 time) public virtual onlyOwner {... */\n    tag_181:\n        /* \"contracts/Pool/PoolPig.sol\":6045:6057  _msgSender() */\n      tag_328\n        /* \"contracts/Pool/PoolPig.sol\":6045:6055  _msgSender */\n      tag_196\n        /* \"contracts/Pool/PoolPig.sol\":6045:6057  _msgSender() */\n      jump\t// in\n    tag_328:\n        /* \"contracts/Pool/PoolPig.sol\":6035:6057  _owner == _msgSender() */\n      0xffffffffffffffffffffffffffffffffffffffff\n      and\n        /* \"contracts/Pool/PoolPig.sol\":6035:6041  _owner */\n      0x00\n      dup1\n      sload\n      swap1\n      0x0100\n      exp\n      swap1\n      div\n      0xffffffffffffffffffffffffffffffffffffffff\n      and\n        /* \"contracts/Pool/PoolPig.sol\":6035:6057  _owner == _msgSender() */\n      0xffffffffffffffffffffffffffffffffffffffff\n      and\n      eq\n        /* \"contracts/Pool/PoolPig.sol\":6027:6094  require(_owner == _msgSender(), \"Ownable: caller is not the owner\") */\n      tag_329\n      jumpi\n      mload(0x40)\n      0x08c379a000000000000000000000000000000000000000000000000000000000\n      dup2\n      mstore\n      0x04\n      add\n      dup1\n      dup1\n      0x20\n      add\n      dup3\n      dup2\n      sub\n      dup3\n      mstore\n      0x20\n      dup2\n      mstore\n      0x20\n      add\n      dup1\n      0x4f776e61626c653a2063616c6c6572206973206e6f7420746865206f776e6572\n      dup2\n      mstore\n      pop\n      0x20\n      add\n      swap2\n      pop\n      pop\n      mload(0x40)\n      dup1\n      swap2\n      sub\n      swap1\n      revert\n    tag_329:\n        /* \"contracts/Pool/PoolPig.sol\":6755:6761  _owner */\n      0x00\n      dup1\n      sload\n      swap1\n      0x0100\n      exp\n      swap1\n      div\n      0xffffffffffffffffffffffffffffffffffffffff\n      and\n        /* \"contracts/Pool/PoolPig.sol\":6738:6752  _previousOwner */\n      0x01\n      0x00\n        /* \"contracts/Pool/PoolPig.sol\":6738:6761  _previousOwner = _owner */\n      0x0100\n      exp\n      dup2\n      sload\n      dup2\n      0xffffffffffffffffffffffffffffffffffffffff\n      mul\n      not\n      and\n      swap1\n      dup4\n      0xffffffffffffffffffffffffffffffffffffffff\n      and\n      mul\n      or\n      swap1\n      sstore\n      pop\n        /* \"contracts/Pool/PoolPig.sol\":6788:6789  0 */\n      0x00\n        /* \"contracts/Pool/PoolPig.sol\":6771:6777  _owner */\n      dup1\n      0x00\n        /* \"contracts/Pool/PoolPig.sol\":6771:6790  _owner = address(0) */\n      0x0100\n      exp\n      dup2\n      sload\n      dup2\n      0xffffffffffffffffffffffffffffffffffffffff\n      mul\n      not\n      and\n      swap1\n      dup4\n      0xffffffffffffffffffffffffffffffffffffffff\n      and\n      mul\n      or\n      swap1\n      sstore\n      pop\n        /* \"contracts/Pool/PoolPig.sol\":6818:6822  time */\n      dup1\n        /* \"contracts/Pool/PoolPig.sol\":6812:6815  now */\n      timestamp\n        /* \"contracts/Pool/PoolPig.sol\":6812:6822  now + time */\n      add\n        /* \"contracts/Pool/PoolPig.sol\":6800:6809  _lockTime */\n      0x02\n        /* \"contracts/Pool/PoolPig.sol\":6800:6822  _lockTime = now + time */\n      dup2\n      swap1\n      sstore\n      pop\n        /* \"contracts/Pool/PoolPig.sol\":6874:6875  0 */\n      0x00\n        /* \"contracts/Pool/PoolPig.sol\":6837:6877  OwnershipTransferred(_owner, address(0)) */\n      0xffffffffffffffffffffffffffffffffffffffff\n      and\n        /* \"contracts/Pool/PoolPig.sol\":6858:6864  _owner */\n      0x00\n      dup1\n      sload\n      swap1\n      0x0100\n      exp\n      swap1\n      div\n      0xffffffffffffffffffffffffffffffffffffffff\n      and\n        /* \"contracts/Pool/PoolPig.sol\":6837:6877  OwnershipTransferred(_owner, address(0)) */\n      0xffffffffffffffffffffffffffffffffffffffff\n      and\n      0x8be0079c531659141344cd1fd0a4f28419497f9722a3daafe3b4186f6b6457e0\n      mload(0x40)\n      mload(0x40)\n      dup1\n      swap2\n      sub\n      swap1\n      log3\n        /* \"contracts/Pool/PoolPig.sol\":6675:6884  function lock(uint256 time) public virtual onlyOwner {... */\n      pop\n      jump\t// out\n        /* \"contracts/Pool/PoolPig.sol\":18591:18732  function allowance(address owner, address spender) public view override returns (uint256) {... */\n    tag_185:\n        /* \"contracts/Pool/PoolPig.sol\":18672:18679  uint256 */\n      0x00\n        /* \"contracts/Pool/PoolPig.sol\":18698:18709  _allowances */\n      0x05\n        /* \"contracts/Pool/PoolPig.sol\":18698:18716  _allowances[owner] */\n      0x00\n        /* \"contracts/Pool/PoolPig.sol\":18710:18715  owner */\n      dup5\n        /* \"contracts/Pool/PoolPig.sol\":18698:18716  _allowances[owner] */\n      0xffffffffffffffffffffffffffffffffffffffff\n      and\n      0xffffffffffffffffffffffffffffffffffffffff\n      and\n      dup2\n      mstore\n      0x20\n      add\n      swap1\n      dup2\n      mstore\n      0x20\n      add\n      0x00\n      keccak256\n        /* \"contracts/Pool/PoolPig.sol\":18698:18725  _allowances[owner][spender] */\n      0x00\n        /* \"contracts/Pool/PoolPig.sol\":18717:18724  spender */\n      dup4\n        /* \"contracts/Pool/PoolPig.sol\":18698:18725  _allowances[owner][spender] */\n      0xffffffffffffffffffffffffffffffffffffffff\n      and\n      0xffffffffffffffffffffffffffffffffffffffff\n      and\n      dup2\n      mstore\n      0x20\n      add\n      swap1\n      dup2\n      mstore\n      0x20\n      add\n      0x00\n      keccak256\n      sload\n        /* \"contracts/Pool/PoolPig.sol\":18691:18725  return _allowances[owner][spender] */\n      swap1\n      pop\n        /* \"contracts/Pool/PoolPig.sol\":18591:18732  function allowance(address owner, address spender) public view override returns (uint256) {... */\n      swap3\n      swap2\n      pop\n      pop\n      jump\t// out\n        /* \"contracts/Pool/PoolPig.sol\":22673:22781  function includeInFee(address account) public onlyOwner {... */\n    tag_189:\n        /* \"contracts/Pool/PoolPig.sol\":6045:6057  _msgSender() */\n      tag_333\n        /* \"contracts/Pool/PoolPig.sol\":6045:6055  _msgSender */\n      tag_196\n        /* \"contracts/Pool/PoolPig.sol\":6045:6057  _msgSender() */\n      jump\t// in\n    tag_333:\n        /* \"contracts/Pool/PoolPig.sol\":6035:6057  _owner == _msgSender() */\n      0xffffffffffffffffffffffffffffffffffffffff\n      and\n        /* \"contracts/Pool/PoolPig.sol\":6035:6041  _owner */\n      0x00\n      dup1\n      sload\n      swap1\n      0x0100\n      exp\n      swap1\n      div\n      0xffffffffffffffffffffffffffffffffffffffff\n      and\n        /* \"contracts/Pool/PoolPig.sol\":6035:6057  _owner == _msgSender() */\n      0xffffffffffffffffffffffffffffffffffffffff\n      and\n      eq\n        /* \"contracts/Pool/PoolPig.sol\":6027:6094  require(_owner == _msgSender(), \"Ownable: caller is not the owner\") */\n      tag_334\n      jumpi\n      mload(0x40)\n      0x08c379a000000000000000000000000000000000000000000000000000000000\n      dup2\n      mstore\n      0x04\n      add\n      dup1\n      dup1\n      0x20\n      add\n      dup3\n      dup2\n      sub\n      dup3\n      mstore\n      0x20\n      dup2\n      mstore\n      0x20\n      add\n      dup1\n      0x4f776e61626c653a2063616c6c6572206973206e6f7420746865206f776e6572\n      dup2\n      mstore\n      pop\n      0x20\n      add\n      swap2\n      pop\n      pop\n      mload(0x40)\n      dup1\n      swap2\n      sub\n      swap1\n      revert\n    tag_334:\n        /* \"contracts/Pool/PoolPig.sol\":22769:22774  false */\n      0x00\n        /* \"contracts/Pool/PoolPig.sol\":22739:22757  _isExcludedFromFee */\n      0x06\n        /* \"contracts/Pool/PoolPig.sol\":22739:22766  _isExcludedFromFee[account] */\n      0x00\n        /* \"contracts/Pool/PoolPig.sol\":22758:22765  account */\n      dup4\n        /* \"contracts/Pool/PoolPig.sol\":22739:22766  _isExcludedFromFee[account] */\n      0xffffffffffffffffffffffffffffffffffffffff\n      and\n      0xffffffffffffffffffffffffffffffffffffffff\n      and\n      dup2\n      mstore\n      0x20\n      add\n      swap1\n      dup2\n      mstore\n      0x20\n      add\n      0x00\n      keccak256\n      0x00\n        /* \"contracts/Pool/PoolPig.sol\":22739:22774  _isExcludedFromFee[account] = false */\n      0x0100\n      exp\n      dup2\n      sload\n      dup2\n      0xff\n      mul\n      not\n      and\n      swap1\n      dup4\n      iszero\n      iszero\n      mul\n      or\n      swap1\n      sstore\n      pop\n        /* \"contracts/Pool/PoolPig.sol\":22673:22781  function includeInFee(address account) public onlyOwner {... */\n      pop\n      jump\t// out\n        /* \"contracts/Pool/PoolPig.sol\":6269:6509  function transferOwnership(address newOwner) public virtual onlyOwner {... */\n    tag_193:\n        /* \"contracts/Pool/PoolPig.sol\":6045:6057  _msgSender() */\n      tag_337\n        /* \"contracts/Pool/PoolPig.sol\":6045:6055  _msgSender */\n      tag_196\n        /* \"contracts/Pool/PoolPig.sol\":6045:6057  _msgSender() */\n      jump\t// in\n    tag_337:\n        /* \"contracts/Pool/PoolPig.sol\":6035:6057  _owner == _msgSender() */\n      0xffffffffffffffffffffffffffffffffffffffff\n      and\n        /* \"contracts/Pool/PoolPig.sol\":6035:6041  _owner */\n      0x00\n      dup1\n      sload\n      swap1\n      0x0100\n      exp\n      swap1\n      div\n      0xffffffffffffffffffffffffffffffffffffffff\n      and\n        /* \"contracts/Pool/PoolPig.sol\":6035:6057  _owner == _msgSender() */\n      0xffffffffffffffffffffffffffffffffffffffff\n      and\n      eq\n        /* \"contracts/Pool/PoolPig.sol\":6027:6094  require(_owner == _msgSender(), \"Ownable: caller is not the owner\") */\n      tag_338\n      jumpi\n      mload(0x40)\n      0x08c379a000000000000000000000000000000000000000000000000000000000\n      dup2\n      mstore\n      0x04\n      add\n      dup1\n      dup1\n      0x20\n      add\n      dup3\n      dup2\n      sub\n      dup3\n      mstore\n      0x20\n      dup2\n      mstore\n      0x20\n      add\n      dup1\n      0x4f776e61626c653a2063616c6c6572206973206e6f7420746865206f776e6572\n      dup2\n      mstore\n      pop\n      0x20\n      add\n      swap2\n      pop\n      pop\n      mload(0x40)\n      dup1\n      swap2\n      sub\n      swap1\n      revert\n    tag_338:\n        /* \"contracts/Pool/PoolPig.sol\":6377:6378  0 */\n      0x00\n        /* \"contracts/Pool/PoolPig.sol\":6357:6379  newOwner != address(0) */\n      0xffffffffffffffffffffffffffffffffffffffff\n      and\n        /* \"contracts/Pool/PoolPig.sol\":6357:6365  newOwner */\n      dup2\n        /* \"contracts/Pool/PoolPig.sol\":6357:6379  newOwner != address(0) */\n      0xffffffffffffffffffffffffffffffffffffffff\n      and\n      eq\n      iszero\n        /* \"contracts/Pool/PoolPig.sol\":6349:6422  require(newOwner != address(0), \"Ownable: new owner is the zero address\") */\n      tag_340\n      jumpi\n      mload(0x40)\n      0x08c379a000000000000000000000000000000000000000000000000000000000\n      dup2\n      mstore\n      0x04\n      add\n      dup1\n      dup1\n      0x20\n      add\n      dup3\n      dup2\n      sub\n      dup3\n      mstore\n      0x26\n      dup2\n      mstore\n      0x20\n      add\n      dup1\n      data_245f15ff17f551913a7a18385165551503906a406f905ac1c2437281a7cd0cfe\n      0x26\n      swap2\n      codecopy\n      0x40\n      add\n      swap2\n      pop\n      pop\n      mload(0x40)\n      dup1\n      swap2\n      sub\n      swap1\n      revert\n    tag_340:\n        /* \"contracts/Pool/PoolPig.sol\":6466:6474  newOwner */\n      dup1\n        /* \"contracts/Pool/PoolPig.sol\":6437:6475  OwnershipTransferred(_owner, newOwner) */\n      0xffffffffffffffffffffffffffffffffffffffff\n      and\n        /* \"contracts/Pool/PoolPig.sol\":6458:6464  _owner */\n      0x00\n      dup1\n      sload\n      swap1\n      0x0100\n      exp\n      swap1\n      div\n      0xffffffffffffffffffffffffffffffffffffffff\n      and\n        /* \"contracts/Pool/PoolPig.sol\":6437:6475  OwnershipTransferred(_owner, newOwner) */\n      0xffffffffffffffffffffffffffffffffffffffff\n      and\n      0x8be0079c531659141344cd1fd0a4f28419497f9722a3daafe3b4186f6b6457e0\n      mload(0x40)\n      mload(0x40)\n      dup1\n      swap2\n      sub\n      swap1\n      log3\n        /* \"contracts/Pool/PoolPig.sol\":6494:6502  newOwner */\n      dup1\n        /* \"contracts/Pool/PoolPig.sol\":6485:6491  _owner */\n      0x00\n      dup1\n        /* \"contracts/Pool/PoolPig.sol\":6485:6502  _owner = newOwner */\n      0x0100\n      exp\n      dup2\n      sload\n      dup2\n      0xffffffffffffffffffffffffffffffffffffffff\n      mul\n      not\n      and\n      swap1\n      dup4\n      0xffffffffffffffffffffffffffffffffffffffff\n      and\n      mul\n      or\n      swap1\n      sstore\n      pop\n        /* \"contracts/Pool/PoolPig.sol\":6269:6509  function transferOwnership(address newOwner) public virtual onlyOwner {... */\n      pop\n      jump\t// out\n        /* \"contracts/Pool/PoolPig.sol\":2255:2359  function _msgSender() internal view virtual returns (address payable) {... */\n    tag_196:\n        /* \"contracts/Pool/PoolPig.sol\":2308:2323  address payable */\n      0x00\n        /* \"contracts/Pool/PoolPig.sol\":2342:2352  msg.sender */\n      caller\n        /* \"contracts/Pool/PoolPig.sol\":2335:2352  return msg.sender */\n      swap1\n      pop\n        /* \"contracts/Pool/PoolPig.sol\":2255:2359  function _msgSender() internal view virtual returns (address payable) {... */\n      swap1\n      jump\t// out\n        /* \"contracts/Pool/PoolPig.sol\":27332:27663  function _approve(address owner, address spender, uint256 amount) private {... */\n    tag_200:\n        /* \"contracts/Pool/PoolPig.sol\":27441:27442  0 */\n      0x00\n        /* \"contracts/Pool/PoolPig.sol\":27424:27443  owner != address(0) */\n      0xffffffffffffffffffffffffffffffffffffffff\n      and\n        /* \"contracts/Pool/PoolPig.sol\":27424:27429  owner */\n      dup4\n        /* \"contracts/Pool/PoolPig.sol\":27424:27443  owner != address(0) */\n      0xffffffffffffffffffffffffffffffffffffffff\n      and\n      eq\n      iszero\n        /* \"contracts/Pool/PoolPig.sol\":27416:27484  require(owner != address(0), \"ERC20: approve from the zero address\") */\n      tag_343\n      jumpi\n      mload(0x40)\n      0x08c379a000000000000000000000000000000000000000000000000000000000\n      dup2\n      mstore\n      0x04\n      add\n      dup1\n      dup1\n      0x20\n      add\n      dup3\n      dup2\n      sub\n      dup3\n      mstore\n      0x24\n      dup2\n      mstore\n      0x20\n      add\n      dup1\n      data_c953f4879035ed60e766b34720f656aab5c697b141d924c283124ecedb91c208\n      0x24\n      swap2\n      codecopy\n      0x40\n      add\n      swap2\n      pop\n      pop\n      mload(0x40)\n      dup1\n      swap2\n      sub\n      swap1\n      revert\n    tag_343:\n        /* \"contracts/Pool/PoolPig.sol\":27521:27522  0 */\n      0x00\n        /* \"contracts/Pool/PoolPig.sol\":27502:27523  spender != address(0) */\n      0xffffffffffffffffffffffffffffffffffffffff\n      and\n        /* \"contracts/Pool/PoolPig.sol\":27502:27509  spender */\n      dup3\n        /* \"contracts/Pool/PoolPig.sol\":27502:27523  spender != address(0) */\n      0xffffffffffffffffffffffffffffffffffffffff\n      and\n      eq\n      iszero\n        /* \"contracts/Pool/PoolPig.sol\":27494:27562  require(spender != address(0), \"ERC20: approve to the zero address\") */\n      tag_344\n      jumpi\n      mload(0x40)\n      0x08c379a000000000000000000000000000000000000000000000000000000000\n      dup2\n      mstore\n      0x04\n      add\n      dup1\n      dup1\n      0x20\n      add\n      dup3\n      dup2\n      sub\n      dup3\n      mstore\n      0x22\n      dup2\n      mstore\n      0x20\n      add\n      dup1\n      data_24883cc5fe64ace9d0df1893501ecb93c77180f0ff69cca79affb3c316dc8029\n      0x22\n      swap2\n      codecopy\n      0x40\n      add\n      swap2\n      pop\n      pop\n      mload(0x40)\n      dup1\n      swap2\n      sub\n      swap1\n      revert\n    tag_344:\n        /* \"contracts/Pool/PoolPig.sol\":27603:27609  amount */\n      dup1\n        /* \"contracts/Pool/PoolPig.sol\":27573:27584  _allowances */\n      0x05\n        /* \"contracts/Pool/PoolPig.sol\":27573:27591  _allowances[owner] */\n      0x00\n        /* \"contracts/Pool/PoolPig.sol\":27585:27590  owner */\n      dup6\n        /* \"contracts/Pool/PoolPig.sol\":27573:27591  _allowances[owner] */\n      0xffffffffffffffffffffffffffffffffffffffff\n      and\n      0xffffffffffffffffffffffffffffffffffffffff\n      and\n      dup2\n      mstore\n      0x20\n      add\n      swap1\n      dup2\n      mstore\n      0x20\n      add\n      0x00\n      keccak256\n        /* \"contracts/Pool/PoolPig.sol\":27573:27600  _allowances[owner][spender] */\n      0x00\n        /* \"contracts/Pool/PoolPig.sol\":27592:27599  spender */\n      dup5\n        /* \"contracts/Pool/PoolPig.sol\":27573:27600  _allowances[owner][spender] */\n      0xffffffffffffffffffffffffffffffffffffffff\n      and\n      0xffffffffffffffffffffffffffffffffffffffff\n      and\n      dup2\n      mstore\n      0x20\n      add\n      swap1\n      dup2\n      mstore\n      0x20\n      add\n      0x00\n      keccak256\n        /* \"contracts/Pool/PoolPig.sol\":27573:27609  _allowances[owner][spender] = amount */\n      dup2\n      swap1\n      sstore\n      pop\n        /* \"contracts/Pool/PoolPig.sol\":27640:27647  spender */\n      dup2\n        /* \"contracts/Pool/PoolPig.sol\":27624:27656  Approval(owner, spender, amount) */\n      0xffffffffffffffffffffffffffffffffffffffff\n      and\n        /* \"contracts/Pool/PoolPig.sol\":27633:27638  owner */\n      dup4\n        /* \"contracts/Pool/PoolPig.sol\":27624:27656  Approval(owner, spender, amount) */\n      0xffffffffffffffffffffffffffffffffffffffff\n      and\n      0x8c5be1e5ebec7d5bd14f71427d1e84f3dd0314c0f7b2291e5b200ac8c7c3b925\n        /* \"contracts/Pool/PoolPig.sol\":27649:27655  amount */\n      dup4\n        /* \"contracts/Pool/PoolPig.sol\":27624:27656  Approval(owner, spender, amount) */\n      mload(0x40)\n      dup1\n      dup3\n      dup2\n      mstore\n      0x20\n      add\n      swap2\n      pop\n      pop\n      mload(0x40)\n      dup1\n      swap2\n      sub\n      swap1\n      log3\n        /* \"contracts/Pool/PoolPig.sol\":27332:27663  function _approve(address owner, address spender, uint256 amount) private {... */\n      pop\n      pop\n      pop\n      jump\t// out\n        /* \"contracts/Pool/PoolPig.sol\":27669:29160  function _transfer(... */\n    tag_223:\n        /* \"contracts/Pool/PoolPig.sol\":27802:27803  0 */\n      0x00\n        /* \"contracts/Pool/PoolPig.sol\":27786:27804  from != address(0) */\n      0xffffffffffffffffffffffffffffffffffffffff\n      and\n        /* \"contracts/Pool/PoolPig.sol\":27786:27790  from */\n      dup4\n        /* \"contracts/Pool/PoolPig.sol\":27786:27804  from != address(0) */\n      0xffffffffffffffffffffffffffffffffffffffff\n      and\n      eq\n      iszero\n        /* \"contracts/Pool/PoolPig.sol\":27778:27846  require(from != address(0), \"ERC20: transfer from the zero address\") */\n      tag_346\n      jumpi\n      mload(0x40)\n      0x08c379a000000000000000000000000000000000000000000000000000000000\n      dup2\n      mstore\n      0x04\n      add\n      dup1\n      dup1\n      0x20\n      add\n      dup3\n      dup2\n      sub\n      dup3\n      mstore\n      0x25\n      dup2\n      mstore\n      0x20\n      add\n      dup1\n      data_baecc556b46f4ed0f2b4cb599d60785ac8563dd2dc0a5bf12edea1c39e5e1fea\n      0x25\n      swap2\n      codecopy\n      0x40\n      add\n      swap2\n      pop\n      pop\n      mload(0x40)\n      dup1\n      swap2\n      sub\n      swap1\n      revert\n    tag_346:\n        /* \"contracts/Pool/PoolPig.sol\":27878:27879  0 */\n      0x00\n        /* \"contracts/Pool/PoolPig.sol\":27864:27880  to != address(0) */\n      0xffffffffffffffffffffffffffffffffffffffff\n      and\n        /* \"contracts/Pool/PoolPig.sol\":27864:27866  to */\n      dup3\n        /* \"contracts/Pool/PoolPig.sol\":27864:27880  to != address(0) */\n      0xffffffffffffffffffffffffffffffffffffffff\n      and\n      eq\n      iszero\n        /* \"contracts/Pool/PoolPig.sol\":27856:27920  require(to != address(0), \"ERC20: transfer to the zero address\") */\n      tag_347\n      jumpi\n      mload(0x40)\n      0x08c379a000000000000000000000000000000000000000000000000000000000\n      dup2\n      mstore\n      0x04\n      add\n      dup1\n      dup1\n      0x20\n      add\n      dup3\n      dup2\n      sub\n      dup3\n      mstore\n      0x23\n      dup2\n      mstore\n      0x20\n      add\n      dup1\n      data_0557e210f7a69a685100a7e4e3d0a7024c546085cee28910fd17d0b081d9516f\n      0x23\n      swap2\n      codecopy\n      0x40\n      add\n      swap2\n      pop\n      pop\n      mload(0x40)\n      dup1\n      swap2\n      sub\n      swap1\n      revert\n    tag_347:\n        /* \"contracts/Pool/PoolPig.sol\":27947:27948  0 */\n      0x00\n        /* \"contracts/Pool/PoolPig.sol\":27938:27944  amount */\n      dup2\n        /* \"contracts/Pool/PoolPig.sol\":27938:27948  amount > 0 */\n      gt\n        /* \"contracts/Pool/PoolPig.sol\":27930:27994  require(amount > 0, \"Transfer amount must be greater than zero\") */\n      tag_348\n      jumpi\n      mload(0x40)\n      0x08c379a000000000000000000000000000000000000000000000000000000000\n      dup2\n      mstore\n      0x04\n      add\n      dup1\n      dup1\n      0x20\n      add\n      dup3\n      dup2\n      sub\n      dup3\n      mstore\n      0x29\n      dup2\n      mstore\n      0x20\n      add\n      dup1\n      data_9edb5ab58321f35d2386ea65721c9b107daa2c273610fc16d394af2a320ba785\n      0x29\n      swap2\n      codecopy\n      0x40\n      add\n      swap2\n      pop\n      pop\n      mload(0x40)\n      dup1\n      swap2\n      sub\n      swap1\n      revert\n    tag_348:\n        /* \"contracts/Pool/PoolPig.sol\":28015:28022  owner() */\n      tag_349\n        /* \"contracts/Pool/PoolPig.sol\":28015:28020  owner */\n      tag_144\n        /* \"contracts/Pool/PoolPig.sol\":28015:28022  owner() */\n      jump\t// in\n    tag_349:\n        /* \"contracts/Pool/PoolPig.sol\":28007:28022  from != owner() */\n      0xffffffffffffffffffffffffffffffffffffffff\n      and\n        /* \"contracts/Pool/PoolPig.sol\":28007:28011  from */\n      dup4\n        /* \"contracts/Pool/PoolPig.sol\":28007:28022  from != owner() */\n      0xffffffffffffffffffffffffffffffffffffffff\n      and\n      eq\n      iszero\n        /* \"contracts/Pool/PoolPig.sol\":28007:28039  from != owner() && to != owner() */\n      dup1\n      iszero\n      tag_350\n      jumpi\n      pop\n        /* \"contracts/Pool/PoolPig.sol\":28032:28039  owner() */\n      tag_351\n        /* \"contracts/Pool/PoolPig.sol\":28032:28037  owner */\n      tag_144\n        /* \"contracts/Pool/PoolPig.sol\":28032:28039  owner() */\n      jump\t// in\n    tag_351:\n        /* \"contracts/Pool/PoolPig.sol\":28026:28039  to != owner() */\n      0xffffffffffffffffffffffffffffffffffffffff\n      and\n        /* \"contracts/Pool/PoolPig.sol\":28026:28028  to */\n      dup3\n        /* \"contracts/Pool/PoolPig.sol\":28026:28039  to != owner() */\n      0xffffffffffffffffffffffffffffffffffffffff\n      and\n      eq\n      iszero\n        /* \"contracts/Pool/PoolPig.sol\":28007:28039  from != owner() && to != owner() */\n    tag_350:\n        /* \"contracts/Pool/PoolPig.sol\":28004:28128  if(from != owner() && to != owner())... */\n      iszero\n      tag_352\n      jumpi\n        /* \"contracts/Pool/PoolPig.sol\":28071:28083  _maxTxAmount */\n      sload(0x16)\n        /* \"contracts/Pool/PoolPig.sol\":28061:28067  amount */\n      dup2\n        /* \"contracts/Pool/PoolPig.sol\":28061:28083  amount <= _maxTxAmount */\n      gt\n      iszero\n        /* \"contracts/Pool/PoolPig.sol\":28053:28128  require(amount <= _maxTxAmount, \"Transfer amount exceeds the maxTxAmount.\") */\n      tag_353\n      jumpi\n      mload(0x40)\n      0x08c379a000000000000000000000000000000000000000000000000000000000\n      dup2\n      mstore\n      0x04\n      add\n      dup1\n      dup1\n      0x20\n      add\n      dup3\n      dup2\n      sub\n      dup3\n      mstore\n      0x28\n      dup2\n      mstore\n      0x20\n      add\n      dup1\n      data_72052210969ce5fd88e52b5e685de9548acef9bb1b6d02e29c1765d0674948dd\n      0x28\n      swap2\n      codecopy\n      0x40\n      add\n      swap2\n      pop\n      pop\n      mload(0x40)\n      dup1\n      swap2\n      sub\n      swap1\n      revert\n    tag_353:\n        /* \"contracts/Pool/PoolPig.sol\":28004:28128  if(from != owner() && to != owner())... */\n    tag_352:\n        /* \"contracts/Pool/PoolPig.sol\":28139:28167  uint256 contractTokenBalance */\n      0x00\n        /* \"contracts/Pool/PoolPig.sol\":28170:28194  balanceOf(address(this)) */\n      tag_354\n        /* \"contracts/Pool/PoolPig.sol\":28188:28192  this */\n      address\n        /* \"contracts/Pool/PoolPig.sol\":28170:28179  balanceOf */\n      tag_131\n        /* \"contracts/Pool/PoolPig.sol\":28170:28194  balanceOf(address(this)) */\n      jump\t// in\n    tag_354:\n        /* \"contracts/Pool/PoolPig.sol\":28139:28194  uint256 contractTokenBalance = balanceOf(address(this)) */\n      swap1\n      pop\n        /* \"contracts/Pool/PoolPig.sol\":28240:28252  _maxTxAmount */\n      sload(0x16)\n        /* \"contracts/Pool/PoolPig.sol\":28216:28236  contractTokenBalance */\n      dup2\n        /* \"contracts/Pool/PoolPig.sol\":28216:28252  contractTokenBalance >= _maxTxAmount */\n      lt\n        /* \"contracts/Pool/PoolPig.sol\":28213:28322  if(contractTokenBalance >= _maxTxAmount)... */\n      tag_355\n      jumpi\n        /* \"contracts/Pool/PoolPig.sol\":28299:28311  _maxTxAmount */\n      sload(0x16)\n        /* \"contracts/Pool/PoolPig.sol\":28276:28311  contractTokenBalance = _maxTxAmount */\n      swap1\n      pop\n        /* \"contracts/Pool/PoolPig.sol\":28213:28322  if(contractTokenBalance >= _maxTxAmount)... */\n    tag_355:\n        /* \"contracts/Pool/PoolPig.sol\":28340:28364  bool overMinTokenBalance */\n      0x00\n        /* \"contracts/Pool/PoolPig.sol\":28391:28420  numTokensSellToAddToLiquidity */\n      sload(0x17)\n        /* \"contracts/Pool/PoolPig.sol\":28367:28387  contractTokenBalance */\n      dup3\n        /* \"contracts/Pool/PoolPig.sol\":28367:28420  contractTokenBalance >= numTokensSellToAddToLiquidity */\n      lt\n      iszero\n        /* \"contracts/Pool/PoolPig.sol\":28340:28420  bool overMinTokenBalance = contractTokenBalance >= numTokensSellToAddToLiquidity */\n      swap1\n      pop\n        /* \"contracts/Pool/PoolPig.sol\":28447:28466  overMinTokenBalance */\n      dup1\n        /* \"contracts/Pool/PoolPig.sol\":28447:28499  overMinTokenBalance &&... */\n      dup1\n      iszero\n      tag_356\n      jumpi\n      pop\n        /* \"contracts/Pool/PoolPig.sol\":28483:28499  inSwapAndLiquify */\n      0x15\n      0x00\n      swap1\n      sload\n      swap1\n      0x0100\n      exp\n      swap1\n      div\n      0xff\n      and\n        /* \"contracts/Pool/PoolPig.sol\":28482:28499  !inSwapAndLiquify */\n      iszero\n        /* \"contracts/Pool/PoolPig.sol\":28447:28499  overMinTokenBalance &&... */\n    tag_356:\n        /* \"contracts/Pool/PoolPig.sol\":28447:28536  overMinTokenBalance &&... */\n      dup1\n      iszero\n      tag_357\n      jumpi\n      pop\n        /* \"contracts/Pool/PoolPig.sol\":28523:28536  uniswapV2Pair */\n      immutable(\"0x56d1aacedfc7d536224f9771bf9213a087360049f74dcef1ba0633f85c459fc6\")\n        /* \"contracts/Pool/PoolPig.sol\":28515:28536  from != uniswapV2Pair */\n      0xffffffffffffffffffffffffffffffffffffffff\n      and\n        /* \"contracts/Pool/PoolPig.sol\":28515:28519  from */\n      dup6\n        /* \"contracts/Pool/PoolPig.sol\":28515:28536  from != uniswapV2Pair */\n      0xffffffffffffffffffffffffffffffffffffffff\n      and\n      eq\n      iszero\n        /* \"contracts/Pool/PoolPig.sol\":28447:28536  overMinTokenBalance &&... */\n    tag_357:\n        /* \"contracts/Pool/PoolPig.sol\":28447:28573  overMinTokenBalance &&... */\n      dup1\n      iszero\n      tag_358\n      jumpi\n      pop\n        /* \"contracts/Pool/PoolPig.sol\":28552:28573  swapAndLiquifyEnabled */\n      0x15\n      0x01\n      swap1\n      sload\n      swap1\n      0x0100\n      exp\n      swap1\n      div\n      0xff\n      and\n        /* \"contracts/Pool/PoolPig.sol\":28447:28573  overMinTokenBalance &&... */\n    tag_358:\n        /* \"contracts/Pool/PoolPig.sol\":28430:28739  if (... */\n      iszero\n      tag_359\n      jumpi\n        /* \"contracts/Pool/PoolPig.sol\":28621:28650  numTokensSellToAddToLiquidity */\n      sload(0x17)\n        /* \"contracts/Pool/PoolPig.sol\":28598:28650  contractTokenBalance = numTokensSellToAddToLiquidity */\n      swap2\n      pop\n        /* \"contracts/Pool/PoolPig.sol\":28692:28728  swapAndLiquify(contractTokenBalance) */\n      tag_360\n        /* \"contracts/Pool/PoolPig.sol\":28707:28727  contractTokenBalance */\n      dup3\n        /* \"contracts/Pool/PoolPig.sol\":28692:28706  swapAndLiquify */\n      tag_361\n        /* \"contracts/Pool/PoolPig.sol\":28692:28728  swapAndLiquify(contractTokenBalance) */\n      jump\t// in\n    tag_360:\n        /* \"contracts/Pool/PoolPig.sol\":28430:28739  if (... */\n    tag_359:\n        /* \"contracts/Pool/PoolPig.sol\":28817:28829  bool takeFee */\n      0x00\n        /* \"contracts/Pool/PoolPig.sol\":28832:28836  true */\n      0x01\n        /* \"contracts/Pool/PoolPig.sol\":28817:28836  bool takeFee = true */\n      swap1\n      pop\n        /* \"contracts/Pool/PoolPig.sol\":28941:28959  _isExcludedFromFee */\n      0x06\n        /* \"contracts/Pool/PoolPig.sol\":28941:28965  _isExcludedFromFee[from] */\n      0x00\n        /* \"contracts/Pool/PoolPig.sol\":28960:28964  from */\n      dup8\n        /* \"contracts/Pool/PoolPig.sol\":28941:28965  _isExcludedFromFee[from] */\n      0xffffffffffffffffffffffffffffffffffffffff\n      and\n      0xffffffffffffffffffffffffffffffffffffffff\n      and\n      dup2\n      mstore\n      0x20\n      add\n      swap1\n      dup2\n      mstore\n      0x20\n      add\n      0x00\n      keccak256\n      0x00\n      swap1\n      sload\n      swap1\n      0x0100\n      exp\n      swap1\n      div\n      0xff\n      and\n        /* \"contracts/Pool/PoolPig.sol\":28941:28991  _isExcludedFromFee[from] || _isExcludedFromFee[to] */\n      dup1\n      tag_362\n      jumpi\n      pop\n        /* \"contracts/Pool/PoolPig.sol\":28969:28987  _isExcludedFromFee */\n      0x06\n        /* \"contracts/Pool/PoolPig.sol\":28969:28991  _isExcludedFromFee[to] */\n      0x00\n        /* \"contracts/Pool/PoolPig.sol\":28988:28990  to */\n      dup7\n        /* \"contracts/Pool/PoolPig.sol\":28969:28991  _isExcludedFromFee[to] */\n      0xffffffffffffffffffffffffffffffffffffffff\n      and\n      0xffffffffffffffffffffffffffffffffffffffff\n      and\n      dup2\n      mstore\n      0x20\n      add\n      swap1\n      dup2\n      mstore\n      0x20\n      add\n      0x00\n      keccak256\n      0x00\n      swap1\n      sload\n      swap1\n      0x0100\n      exp\n      swap1\n      div\n      0xff\n      and\n        /* \"contracts/Pool/PoolPig.sol\":28941:28991  _isExcludedFromFee[from] || _isExcludedFromFee[to] */\n    tag_362:\n        /* \"contracts/Pool/PoolPig.sol\":28938:29032  if(_isExcludedFromFee[from] || _isExcludedFromFee[to]){... */\n      iszero\n      tag_363\n      jumpi\n        /* \"contracts/Pool/PoolPig.sol\":29016:29021  false */\n      0x00\n        /* \"contracts/Pool/PoolPig.sol\":29006:29021  takeFee = false */\n      swap1\n      pop\n        /* \"contracts/Pool/PoolPig.sol\":28938:29032  if(_isExcludedFromFee[from] || _isExcludedFromFee[to]){... */\n    tag_363:\n        /* \"contracts/Pool/PoolPig.sol\":29115:29153  _tokenTransfer(from,to,amount,takeFee) */\n      tag_364\n        /* \"contracts/Pool/PoolPig.sol\":29130:29134  from */\n      dup7\n        /* \"contracts/Pool/PoolPig.sol\":29135:29137  to */\n      dup7\n        /* \"contracts/Pool/PoolPig.sol\":29138:29144  amount */\n      dup7\n        /* \"contracts/Pool/PoolPig.sol\":29145:29152  takeFee */\n      dup5\n        /* \"contracts/Pool/PoolPig.sol\":29115:29129  _tokenTransfer */\n      tag_365\n        /* \"contracts/Pool/PoolPig.sol\":29115:29153  _tokenTransfer(from,to,amount,takeFee) */\n      jump\t// in\n    tag_364:\n        /* \"contracts/Pool/PoolPig.sol\":27669:29160  function _transfer(... */\n      pop\n      pop\n      pop\n      pop\n      pop\n      pop\n      jump\t// out\n        /* \"contracts/Pool/PoolPig.sol\":1073:1260  function sub(uint256 a, uint256 b, string memory errorMessage) internal pure returns (uint256) {... */\n    tag_228:\n        /* \"contracts/Pool/PoolPig.sol\":1159:1166  uint256 */\n      0x00\n        /* \"contracts/Pool/PoolPig.sol\":1191:1192  a */\n      dup4\n        /* \"contracts/Pool/PoolPig.sol\":1186:1187  b */\n      dup4\n        /* \"contracts/Pool/PoolPig.sol\":1186:1192  b <= a */\n      gt\n      iszero\n        /* \"contracts/Pool/PoolPig.sol\":1194:1206  errorMessage */\n      dup3\n        /* \"contracts/Pool/PoolPig.sol\":1178:1207  require(b <= a, errorMessage) */\n      swap1\n      tag_367\n      jumpi\n      mload(0x40)\n      0x08c379a000000000000000000000000000000000000000000000000000000000\n      dup2\n      mstore\n      0x04\n      add\n      dup1\n      dup1\n      0x20\n      add\n      dup3\n      dup2\n      sub\n      dup3\n      mstore\n      dup4\n      dup2\n      dup2\n      mload\n      dup2\n      mstore\n      0x20\n      add\n      swap2\n      pop\n      dup1\n      mload\n      swap1\n      0x20\n      add\n      swap1\n      dup1\n      dup4\n      dup4\n      0x00\n    tag_368:\n      dup4\n      dup2\n      lt\n      iszero\n      tag_370\n      jumpi\n      dup1\n      dup3\n      add\n      mload\n      dup2\n      dup5\n      add\n      mstore\n      0x20\n      dup2\n      add\n      swap1\n      pop\n      jump(tag_368)\n    tag_370:\n      pop\n      pop\n      pop\n      pop\n      swap1\n      pop\n      swap1\n      dup2\n      add\n      swap1\n      0x1f\n      and\n      dup1\n      iszero\n      tag_371\n      jumpi\n      dup1\n      dup3\n      sub\n      dup1\n      mload\n      0x01\n      dup4\n      0x20\n      sub\n      0x0100\n      exp\n      sub\n      not\n      and\n      dup2\n      mstore\n      0x20\n      add\n      swap2\n      pop\n    tag_371:\n      pop\n      swap3\n      pop\n      pop\n      pop\n      mload(0x40)\n      dup1\n      swap2\n      sub\n      swap1\n      revert\n    tag_367:\n      pop\n        /* \"contracts/Pool/PoolPig.sol\":1217:1226  uint256 c */\n      0x00\n        /* \"contracts/Pool/PoolPig.sol\":1233:1234  b */\n      dup4\n        /* \"contracts/Pool/PoolPig.sol\":1229:1230  a */\n      dup6\n        /* \"contracts/Pool/PoolPig.sol\":1229:1234  a - b */\n      sub\n        /* \"contracts/Pool/PoolPig.sol\":1217:1234  uint256 c = a - b */\n      swap1\n      pop\n        /* \"contracts/Pool/PoolPig.sol\":1252:1253  c */\n      dup1\n        /* \"contracts/Pool/PoolPig.sol\":1245:1253  return c */\n      swap2\n      pop\n      pop\n        /* \"contracts/Pool/PoolPig.sol\":1073:1260  function sub(uint256 a, uint256 b, string memory errorMessage) internal pure returns (uint256) {... */\n      swap4\n      swap3\n      pop\n      pop\n      pop\n      jump\t// out\n        /* \"contracts/Pool/PoolPig.sol\":25407:25567  function _getRate() private view returns(uint256) {... */\n    tag_232:\n        /* \"contracts/Pool/PoolPig.sol\":25448:25455  uint256 */\n      0x00\n        /* \"contracts/Pool/PoolPig.sol\":25468:25483  uint256 rSupply */\n      dup1\n        /* \"contracts/Pool/PoolPig.sol\":25485:25500  uint256 tSupply */\n      0x00\n        /* \"contracts/Pool/PoolPig.sol\":25504:25523  _getCurrentSupply() */\n      tag_373\n        /* \"contracts/Pool/PoolPig.sol\":25504:25521  _getCurrentSupply */\n      tag_374\n        /* \"contracts/Pool/PoolPig.sol\":25504:25523  _getCurrentSupply() */\n      jump\t// in\n    tag_373:\n        /* \"contracts/Pool/PoolPig.sol\":25467:25523  (uint256 rSupply, uint256 tSupply) = _getCurrentSupply() */\n      swap2\n      pop\n      swap2\n      pop\n        /* \"contracts/Pool/PoolPig.sol\":25540:25560  rSupply.div(tSupply) */\n      tag_375\n        /* \"contracts/Pool/PoolPig.sol\":25552:25559  tSupply */\n      dup2\n        /* \"contracts/Pool/PoolPig.sol\":25540:25547  rSupply */\n      dup4\n        /* \"contracts/Pool/PoolPig.sol\":25540:25551  rSupply.div */\n      tag_234\n      swap1\n        /* \"contracts/Pool/PoolPig.sol\":25540:25560  rSupply.div(tSupply) */\n      swap2\n      swap1\n      0xffffffff\n      and\n      jump\t// in\n    tag_375:\n        /* \"contracts/Pool/PoolPig.sol\":25533:25560  return rSupply.div(tSupply) */\n      swap3\n      pop\n      pop\n      pop\n        /* \"contracts/Pool/PoolPig.sol\":25407:25567  function _getRate() private view returns(uint256) {... */\n      swap1\n      jump\t// out\n        /* \"contracts/Pool/PoolPig.sol\":1511:1641  function div(uint256 a, uint256 b) internal pure returns (uint256) {... */\n    tag_234:\n        /* \"contracts/Pool/PoolPig.sol\":1569:1576  uint256 */\n      0x00\n        /* \"contracts/Pool/PoolPig.sol\":1595:1634  div(a, b, \"SafeMath: division by zero\") */\n      tag_377\n        /* \"contracts/Pool/PoolPig.sol\":1599:1600  a */\n      dup4\n        /* \"contracts/Pool/PoolPig.sol\":1602:1603  b */\n      dup4\n        /* \"contracts/Pool/PoolPig.sol\":1595:1634  div(a, b, \"SafeMath: division by zero\") */\n      mload(0x40)\n      dup1\n      0x40\n      add\n      0x40\n      mstore\n      dup1\n      0x1a\n      dup2\n      mstore\n      0x20\n      add\n      0x536166654d6174683a206469766973696f6e206279207a65726f000000000000\n      dup2\n      mstore\n      pop\n        /* \"contracts/Pool/PoolPig.sol\":1595:1598  div */\n      tag_378\n        /* \"contracts/Pool/PoolPig.sol\":1595:1634  div(a, b, \"SafeMath: division by zero\") */\n      jump\t// in\n    tag_377:\n        /* \"contracts/Pool/PoolPig.sol\":1588:1634  return div(a, b, \"SafeMath: division by zero\") */\n      swap1\n      pop\n        /* \"contracts/Pool/PoolPig.sol\":1511:1641  function div(uint256 a, uint256 b) internal pure returns (uint256) {... */\n      swap3\n      swap2\n      pop\n      pop\n      jump\t// out\n        /* \"contracts/Pool/PoolPig.sol\":753:929  function add(uint256 a, uint256 b) internal pure returns (uint256) {... */\n    tag_258:\n        /* \"contracts/Pool/PoolPig.sol\":811:818  uint256 */\n      0x00\n        /* \"contracts/Pool/PoolPig.sol\":830:839  uint256 c */\n      dup1\n        /* \"contracts/Pool/PoolPig.sol\":846:847  b */\n      dup3\n        /* \"contracts/Pool/PoolPig.sol\":842:843  a */\n      dup5\n        /* \"contracts/Pool/PoolPig.sol\":842:847  a + b */\n      add\n        /* \"contracts/Pool/PoolPig.sol\":830:847  uint256 c = a + b */\n      swap1\n      pop\n        /* \"contracts/Pool/PoolPig.sol\":870:871  a */\n      dup4\n        /* \"contracts/Pool/PoolPig.sol\":865:866  c */\n      dup2\n        /* \"contracts/Pool/PoolPig.sol\":865:871  c >= a */\n      lt\n      iszero\n        /* \"contracts/Pool/PoolPig.sol\":857:903  require(c >= a, \"SafeMath: addition overflow\") */\n      tag_380\n      jumpi\n      mload(0x40)\n      0x08c379a000000000000000000000000000000000000000000000000000000000\n      dup2\n      mstore\n      0x04\n      add\n      dup1\n      dup1\n      0x20\n      add\n      dup3\n      dup2\n      sub\n      dup3\n      mstore\n      0x1b\n      dup2\n      mstore\n      0x20\n      add\n      dup1\n      0x536166654d6174683a206164646974696f6e206f766572666c6f770000000000\n      dup2\n      mstore\n      pop\n      0x20\n      add\n      swap2\n      pop\n      pop\n      mload(0x40)\n      dup1\n      swap2\n      sub\n      swap1\n      revert\n    tag_380:\n        /* \"contracts/Pool/PoolPig.sol\":921:922  c */\n      dup1\n        /* \"contracts/Pool/PoolPig.sol\":914:922  return c */\n      swap2\n      pop\n      pop\n        /* \"contracts/Pool/PoolPig.sol\":753:929  function add(uint256 a, uint256 b) internal pure returns (uint256) {... */\n      swap3\n      swap2\n      pop\n      pop\n      jump\t// out\n        /* \"contracts/Pool/PoolPig.sol\":24226:24641  function _getValues(uint256 tAmount) private view returns (uint256, uint256, uint256, uint256, uint256, uint256) {... */\n    tag_263:\n        /* \"contracts/Pool/PoolPig.sol\":24285:24292  uint256 */\n      0x00\n        /* \"contracts/Pool/PoolPig.sol\":24294:24301  uint256 */\n      dup1\n        /* \"contracts/Pool/PoolPig.sol\":24303:24310  uint256 */\n      0x00\n        /* \"contracts/Pool/PoolPig.sol\":24312:24319  uint256 */\n      dup1\n        /* \"contracts/Pool/PoolPig.sol\":24321:24328  uint256 */\n      0x00\n        /* \"contracts/Pool/PoolPig.sol\":24330:24337  uint256 */\n      dup1\n        /* \"contracts/Pool/PoolPig.sol\":24350:24373  uint256 tTransferAmount */\n      0x00\n        /* \"contracts/Pool/PoolPig.sol\":24375:24387  uint256 tFee */\n      dup1\n        /* \"contracts/Pool/PoolPig.sol\":24389:24407  uint256 tLiquidity */\n      0x00\n        /* \"contracts/Pool/PoolPig.sol\":24411:24431  _getTValues(tAmount) */\n      tag_382\n        /* \"contracts/Pool/PoolPig.sol\":24423:24430  tAmount */\n      dup11\n        /* \"contracts/Pool/PoolPig.sol\":24411:24422  _getTValues */\n      tag_383\n        /* \"contracts/Pool/PoolPig.sol\":24411:24431  _getTValues(tAmount) */\n      jump\t// in\n    tag_382:\n        /* \"contracts/Pool/PoolPig.sol\":24349:24431  (uint256 tTransferAmount, uint256 tFee, uint256 tLiquidity) = _getTValues(tAmount) */\n      swap3\n      pop\n      swap3\n      pop\n      swap3\n      pop\n        /* \"contracts/Pool/PoolPig.sol\":24442:24457  uint256 rAmount */\n      0x00\n        /* \"contracts/Pool/PoolPig.sol\":24459:24482  uint256 rTransferAmount */\n      dup1\n        /* \"contracts/Pool/PoolPig.sol\":24484:24496  uint256 rFee */\n      0x00\n        /* \"contracts/Pool/PoolPig.sol\":24500:24550  _getRValues(tAmount, tFee, tLiquidity, _getRate()) */\n      tag_384\n        /* \"contracts/Pool/PoolPig.sol\":24512:24519  tAmount */\n      dup14\n        /* \"contracts/Pool/PoolPig.sol\":24521:24525  tFee */\n      dup7\n        /* \"contracts/Pool/PoolPig.sol\":24527:24537  tLiquidity */\n      dup7\n        /* \"contracts/Pool/PoolPig.sol\":24539:24549  _getRate() */\n      tag_385\n        /* \"contracts/Pool/PoolPig.sol\":24539:24547  _getRate */\n      tag_232\n        /* \"contracts/Pool/PoolPig.sol\":24539:24549  _getRate() */\n      jump\t// in\n    tag_385:\n        /* \"contracts/Pool/PoolPig.sol\":24500:24511  _getRValues */\n      tag_386\n        /* \"contracts/Pool/PoolPig.sol\":24500:24550  _getRValues(tAmount, tFee, tLiquidity, _getRate()) */\n      jump\t// in\n    tag_384:\n        /* \"contracts/Pool/PoolPig.sol\":24441:24550  (uint256 rAmount, uint256 rTransferAmount, uint256 rFee) = _getRValues(tAmount, tFee, tLiquidity, _getRate()) */\n      swap3\n      pop\n      swap3\n      pop\n      swap3\n      pop\n        /* \"contracts/Pool/PoolPig.sol\":24568:24575  rAmount */\n      dup3\n        /* \"contracts/Pool/PoolPig.sol\":24577:24592  rTransferAmount */\n      dup3\n        /* \"contracts/Pool/PoolPig.sol\":24594:24598  rFee */\n      dup3\n        /* \"contracts/Pool/PoolPig.sol\":24600:24615  tTransferAmount */\n      dup9\n        /* \"contracts/Pool/PoolPig.sol\":24617:24621  tFee */\n      dup9\n        /* \"contracts/Pool/PoolPig.sol\":24623:24633  tLiquidity */\n      dup9\n        /* \"contracts/Pool/PoolPig.sol\":24560:24634  return (rAmount, rTransferAmount, rFee, tTransferAmount, tFee, tLiquidity) */\n      swap12\n      pop\n      swap12\n      pop\n      swap12\n      pop\n      swap12\n      pop\n      swap12\n      pop\n      swap12\n      pop\n      pop\n      pop\n      pop\n      pop\n      pop\n      pop\n        /* \"contracts/Pool/PoolPig.sol\":24226:24641  function _getValues(uint256 tAmount) private view returns (uint256, uint256, uint256, uint256, uint256, uint256) {... */\n      swap2\n      swap4\n      swap6\n      pop\n      swap2\n      swap4\n      swap6\n      jump\t// out\n        /* \"contracts/Pool/PoolPig.sol\":934:1068  function sub(uint256 a, uint256 b) internal pure returns (uint256) {... */\n    tag_265:\n        /* \"contracts/Pool/PoolPig.sol\":992:999  uint256 */\n      0x00\n        /* \"contracts/Pool/PoolPig.sol\":1018:1061  sub(a, b, \"SafeMath: subtraction overflow\") */\n      tag_388\n        /* \"contracts/Pool/PoolPig.sol\":1022:1023  a */\n      dup4\n        /* \"contracts/Pool/PoolPig.sol\":1025:1026  b */\n      dup4\n        /* \"contracts/Pool/PoolPig.sol\":1018:1061  sub(a, b, \"SafeMath: subtraction overflow\") */\n      mload(0x40)\n      dup1\n      0x40\n      add\n      0x40\n      mstore\n      dup1\n      0x1e\n      dup2\n      mstore\n      0x20\n      add\n      0x536166654d6174683a207375627472616374696f6e206f766572666c6f770000\n      dup2\n      mstore\n      pop\n        /* \"contracts/Pool/PoolPig.sol\":1018:1021  sub */\n      tag_228\n        /* \"contracts/Pool/PoolPig.sol\":1018:1061  sub(a, b, \"SafeMath: subtraction overflow\") */\n      jump\t// in\n    tag_388:\n        /* \"contracts/Pool/PoolPig.sol\":1011:1061  return sub(a, b, \"SafeMath: subtraction overflow\") */\n      swap1\n      pop\n        /* \"contracts/Pool/PoolPig.sol\":934:1068  function sub(uint256 a, uint256 b) internal pure returns (uint256) {... */\n      swap3\n      swap2\n      pop\n      pop\n      jump\t// out\n        /* \"contracts/Pool/PoolPig.sol\":1265:1506  function mul(uint256 a, uint256 b) internal pure returns (uint256) {... */\n    tag_326:\n        /* \"contracts/Pool/PoolPig.sol\":1323:1330  uint256 */\n      0x00\n        /* \"contracts/Pool/PoolPig.sol\":1351:1352  0 */\n      dup1\n        /* \"contracts/Pool/PoolPig.sol\":1346:1347  a */\n      dup4\n        /* \"contracts/Pool/PoolPig.sol\":1346:1352  a == 0 */\n      eq\n        /* \"contracts/Pool/PoolPig.sol\":1342:1387  if (a == 0) {... */\n      iszero\n      tag_390\n      jumpi\n        /* \"contracts/Pool/PoolPig.sol\":1375:1376  0 */\n      0x00\n        /* \"contracts/Pool/PoolPig.sol\":1368:1376  return 0 */\n      swap1\n      pop\n      jump(tag_389)\n        /* \"contracts/Pool/PoolPig.sol\":1342:1387  if (a == 0) {... */\n    tag_390:\n        /* \"contracts/Pool/PoolPig.sol\":1397:1406  uint256 c */\n      0x00\n        /* \"contracts/Pool/PoolPig.sol\":1413:1414  b */\n      dup3\n        /* \"contracts/Pool/PoolPig.sol\":1409:1410  a */\n      dup5\n        /* \"contracts/Pool/PoolPig.sol\":1409:1414  a * b */\n      mul\n        /* \"contracts/Pool/PoolPig.sol\":1397:1414  uint256 c = a * b */\n      swap1\n      pop\n        /* \"contracts/Pool/PoolPig.sol\":1441:1442  b */\n      dup3\n        /* \"contracts/Pool/PoolPig.sol\":1436:1437  a */\n      dup5\n        /* \"contracts/Pool/PoolPig.sol\":1432:1433  c */\n      dup3\n        /* \"contracts/Pool/PoolPig.sol\":1432:1437  c / a */\n      dup2\n      tag_391\n      jumpi\n      invalid\n    tag_391:\n      div\n        /* \"contracts/Pool/PoolPig.sol\":1432:1442  c / a == b */\n      eq\n        /* \"contracts/Pool/PoolPig.sol\":1424:1480  require(c / a == b, \"SafeMath: multiplication overflow\") */\n      tag_392\n      jumpi\n      mload(0x40)\n      0x08c379a000000000000000000000000000000000000000000000000000000000\n      dup2\n      mstore\n      0x04\n      add\n      dup1\n      dup1\n      0x20\n      add\n      dup3\n      dup2\n      sub\n      dup3\n      mstore\n      0x21\n      dup2\n      mstore\n      0x20\n      add\n      dup1\n      data_9113bb53c2876a3805b2c9242029423fc540a728243ce887ab24c82cf119fba3\n      0x21\n      swap2\n      codecopy\n      0x40\n      add\n      swap2\n      pop\n      pop\n      mload(0x40)\n      dup1\n      swap2\n      sub\n      swap1\n      revert\n    tag_392:\n        /* \"contracts/Pool/PoolPig.sol\":1498:1499  c */\n      dup1\n        /* \"contracts/Pool/PoolPig.sol\":1491:1499  return c */\n      swap2\n      pop\n      pop\n        /* \"contracts/Pool/PoolPig.sol\":1265:1506  function mul(uint256 a, uint256 b) internal pure returns (uint256) {... */\n    tag_389:\n      swap3\n      swap2\n      pop\n      pop\n      jump\t// out\n        /* \"contracts/Pool/PoolPig.sol\":29166:30131  function swapAndLiquify(uint256 contractTokenBalance) private lockTheSwap {... */\n    tag_361:\n        /* \"contracts/Pool/PoolPig.sol\":17016:17020  true */\n      0x01\n        /* \"contracts/Pool/PoolPig.sol\":16997:17013  inSwapAndLiquify */\n      0x15\n      0x00\n        /* \"contracts/Pool/PoolPig.sol\":16997:17020  inSwapAndLiquify = true */\n      0x0100\n      exp\n      dup2\n      sload\n      dup2\n      0xff\n      mul\n      not\n      and\n      swap1\n      dup4\n      iszero\n      iszero\n      mul\n      or\n      swap1\n      sstore\n      pop\n        /* \"contracts/Pool/PoolPig.sol\":29300:29312  uint256 half */\n      0x00\n        /* \"contracts/Pool/PoolPig.sol\":29315:29342  contractTokenBalance.div(2) */\n      tag_395\n        /* \"contracts/Pool/PoolPig.sol\":29340:29341  2 */\n      0x02\n        /* \"contracts/Pool/PoolPig.sol\":29315:29335  contractTokenBalance */\n      dup4\n        /* \"contracts/Pool/PoolPig.sol\":29315:29339  contractTokenBalance.div */\n      tag_234\n      swap1\n        /* \"contracts/Pool/PoolPig.sol\":29315:29342  contractTokenBalance.div(2) */\n      swap2\n      swap1\n      0xffffffff\n      and\n      jump\t// in\n    tag_395:\n        /* \"contracts/Pool/PoolPig.sol\":29300:29342  uint256 half = contractTokenBalance.div(2) */\n      swap1\n      pop\n        /* \"contracts/Pool/PoolPig.sol\":29352:29369  uint256 otherHalf */\n      0x00\n        /* \"contracts/Pool/PoolPig.sol\":29372:29402  contractTokenBalance.sub(half) */\n      tag_396\n        /* \"contracts/Pool/PoolPig.sol\":29397:29401  half */\n      dup3\n        /* \"contracts/Pool/PoolPig.sol\":29372:29392  contractTokenBalance */\n      dup5\n        /* \"contracts/Pool/PoolPig.sol\":29372:29396  contractTokenBalance.sub */\n      tag_265\n      swap1\n        /* \"contracts/Pool/PoolPig.sol\":29372:29402  contractTokenBalance.sub(half) */\n      swap2\n      swap1\n      0xffffffff\n      and\n      jump\t// in\n    tag_396:\n        /* \"contracts/Pool/PoolPig.sol\":29352:29402  uint256 otherHalf = contractTokenBalance.sub(half) */\n      swap1\n      pop\n        /* \"contracts/Pool/PoolPig.sol\":29674:29696  uint256 initialBalance */\n      0x00\n        /* \"contracts/Pool/PoolPig.sol\":29699:29720  address(this).balance */\n      selfbalance\n        /* \"contracts/Pool/PoolPig.sol\":29674:29720  uint256 initialBalance = address(this).balance */\n      swap1\n      pop\n        /* \"contracts/Pool/PoolPig.sol\":29762:29784  swapTokensForEth(half) */\n      tag_397\n        /* \"contracts/Pool/PoolPig.sol\":29779:29783  half */\n      dup4\n        /* \"contracts/Pool/PoolPig.sol\":29762:29778  swapTokensForEth */\n      tag_398\n        /* \"contracts/Pool/PoolPig.sol\":29762:29784  swapTokensForEth(half) */\n      jump\t// in\n    tag_397:\n        /* \"contracts/Pool/PoolPig.sol\":29912:29930  uint256 newBalance */\n      0x00\n        /* \"contracts/Pool/PoolPig.sol\":29933:29974  address(this).balance.sub(initialBalance) */\n      tag_399\n        /* \"contracts/Pool/PoolPig.sol\":29959:29973  initialBalance */\n      dup3\n        /* \"contracts/Pool/PoolPig.sol\":29933:29954  address(this).balance */\n      selfbalance\n        /* \"contracts/Pool/PoolPig.sol\":29933:29958  address(this).balance.sub */\n      tag_265\n      swap1\n        /* \"contracts/Pool/PoolPig.sol\":29933:29974  address(this).balance.sub(initialBalance) */\n      swap2\n      swap1\n      0xffffffff\n      and\n      jump\t// in\n    tag_399:\n        /* \"contracts/Pool/PoolPig.sol\":29912:29974  uint256 newBalance = address(this).balance.sub(initialBalance) */\n      swap1\n      pop\n        /* \"contracts/Pool/PoolPig.sol\":30022:30057  addLiquidity(otherHalf, newBalance) */\n      tag_400\n        /* \"contracts/Pool/PoolPig.sol\":30035:30044  otherHalf */\n      dup4\n        /* \"contracts/Pool/PoolPig.sol\":30046:30056  newBalance */\n      dup3\n        /* \"contracts/Pool/PoolPig.sol\":30022:30034  addLiquidity */\n      tag_401\n        /* \"contracts/Pool/PoolPig.sol\":30022:30057  addLiquidity(otherHalf, newBalance) */\n      jump\t// in\n    tag_400:\n        /* \"contracts/Pool/PoolPig.sol\":30081:30124  SwapAndLiquify(half, newBalance, otherHalf) */\n      0x17bbfb9a6069321b6ded73bd96327c9e6b7212a5cd51ff219cd61370acafb561\n        /* \"contracts/Pool/PoolPig.sol\":30096:30100  half */\n      dup5\n        /* \"contracts/Pool/PoolPig.sol\":30102:30112  newBalance */\n      dup3\n        /* \"contracts/Pool/PoolPig.sol\":30114:30123  otherHalf */\n      dup6\n        /* \"contracts/Pool/PoolPig.sol\":30081:30124  SwapAndLiquify(half, newBalance, otherHalf) */\n      mload(0x40)\n      dup1\n      dup5\n      dup2\n      mstore\n      0x20\n      add\n      dup4\n      dup2\n      mstore\n      0x20\n      add\n      dup3\n      dup2\n      mstore\n      0x20\n      add\n      swap4\n      pop\n      pop\n      pop\n      pop\n      mload(0x40)\n      dup1\n      swap2\n      sub\n      swap1\n      log1\n        /* \"contracts/Pool/PoolPig.sol\":17030:17031  _ */\n      pop\n      pop\n      pop\n      pop\n        /* \"contracts/Pool/PoolPig.sol\":17060:17065  false */\n      0x00\n        /* \"contracts/Pool/PoolPig.sol\":17041:17057  inSwapAndLiquify */\n      0x15\n      0x00\n        /* \"contracts/Pool/PoolPig.sol\":17041:17065  inSwapAndLiquify = false */\n      0x0100\n      exp\n      dup2\n      sload\n      dup2\n      0xff\n      mul\n      not\n      and\n      swap1\n      dup4\n      iszero\n      iszero\n      mul\n      or\n      swap1\n      sstore\n      pop\n        /* \"contracts/Pool/PoolPig.sol\":29166:30131  function swapAndLiquify(uint256 contractTokenBalance) private lockTheSwap {... */\n      pop\n      jump\t// out\n        /* \"contracts/Pool/PoolPig.sol\":31294:32110  function _tokenTransfer(address sender, address recipient, uint256 amount,bool takeFee) private {... */\n    tag_365:\n        /* \"contracts/Pool/PoolPig.sol\":31404:31411  takeFee */\n      dup1\n        /* \"contracts/Pool/PoolPig.sol\":31400:31439  if(!takeFee)... */\n      tag_403\n      jumpi\n        /* \"contracts/Pool/PoolPig.sol\":31425:31439  removeAllFee() */\n      tag_404\n        /* \"contracts/Pool/PoolPig.sol\":31425:31437  removeAllFee */\n      tag_405\n        /* \"contracts/Pool/PoolPig.sol\":31425:31439  removeAllFee() */\n      jump\t// in\n    tag_404:\n        /* \"contracts/Pool/PoolPig.sol\":31400:31439  if(!takeFee)... */\n    tag_403:\n        /* \"contracts/Pool/PoolPig.sol\":31462:31473  _isExcluded */\n      0x07\n        /* \"contracts/Pool/PoolPig.sol\":31462:31481  _isExcluded[sender] */\n      0x00\n        /* \"contracts/Pool/PoolPig.sol\":31474:31480  sender */\n      dup6\n        /* \"contracts/Pool/PoolPig.sol\":31462:31481  _isExcluded[sender] */\n      0xffffffffffffffffffffffffffffffffffffffff\n      and\n      0xffffffffffffffffffffffffffffffffffffffff\n      and\n      dup2\n      mstore\n      0x20\n      add\n      swap1\n      dup2\n      mstore\n      0x20\n      add\n      0x00\n      keccak256\n      0x00\n      swap1\n      sload\n      swap1\n      0x0100\n      exp\n      swap1\n      div\n      0xff\n      and\n        /* \"contracts/Pool/PoolPig.sol\":31462:31508  _isExcluded[sender] && !_isExcluded[recipient] */\n      dup1\n      iszero\n      tag_406\n      jumpi\n      pop\n        /* \"contracts/Pool/PoolPig.sol\":31486:31497  _isExcluded */\n      0x07\n        /* \"contracts/Pool/PoolPig.sol\":31486:31508  _isExcluded[recipient] */\n      0x00\n        /* \"contracts/Pool/PoolPig.sol\":31498:31507  recipient */\n      dup5\n        /* \"contracts/Pool/PoolPig.sol\":31486:31508  _isExcluded[recipient] */\n      0xffffffffffffffffffffffffffffffffffffffff\n      and\n      0xffffffffffffffffffffffffffffffffffffffff\n      and\n      dup2\n      mstore\n      0x20\n      add\n      swap1\n      dup2\n      mstore\n      0x20\n      add\n      0x00\n      keccak256\n      0x00\n      swap1\n      sload\n      swap1\n      0x0100\n      exp\n      swap1\n      div\n      0xff\n      and\n        /* \"contracts/Pool/PoolPig.sol\":31485:31508  !_isExcluded[recipient] */\n      iszero\n        /* \"contracts/Pool/PoolPig.sol\":31462:31508  _isExcluded[sender] && !_isExcluded[recipient] */\n    tag_406:\n        /* \"contracts/Pool/PoolPig.sol\":31458:32045  if (_isExcluded[sender] && !_isExcluded[recipient]) {... */\n      iszero\n      tag_407\n      jumpi\n        /* \"contracts/Pool/PoolPig.sol\":31524:31572  _transferFromExcluded(sender, recipient, amount) */\n      tag_408\n        /* \"contracts/Pool/PoolPig.sol\":31546:31552  sender */\n      dup5\n        /* \"contracts/Pool/PoolPig.sol\":31554:31563  recipient */\n      dup5\n        /* \"contracts/Pool/PoolPig.sol\":31565:31571  amount */\n      dup5\n        /* \"contracts/Pool/PoolPig.sol\":31524:31545  _transferFromExcluded */\n      tag_409\n        /* \"contracts/Pool/PoolPig.sol\":31524:31572  _transferFromExcluded(sender, recipient, amount) */\n      jump\t// in\n    tag_408:\n        /* \"contracts/Pool/PoolPig.sol\":31458:32045  if (_isExcluded[sender] && !_isExcluded[recipient]) {... */\n      jump(tag_410)\n    tag_407:\n        /* \"contracts/Pool/PoolPig.sol\":31594:31605  _isExcluded */\n      0x07\n        /* \"contracts/Pool/PoolPig.sol\":31594:31613  _isExcluded[sender] */\n      0x00\n        /* \"contracts/Pool/PoolPig.sol\":31606:31612  sender */\n      dup6\n        /* \"contracts/Pool/PoolPig.sol\":31594:31613  _isExcluded[sender] */\n      0xffffffffffffffffffffffffffffffffffffffff\n      and\n      0xffffffffffffffffffffffffffffffffffffffff\n      and\n      dup2\n      mstore\n      0x20\n      add\n      swap1\n      dup2\n      mstore\n      0x20\n      add\n      0x00\n      keccak256\n      0x00\n      swap1\n      sload\n      swap1\n      0x0100\n      exp\n      swap1\n      div\n      0xff\n      and\n        /* \"contracts/Pool/PoolPig.sol\":31593:31613  !_isExcluded[sender] */\n      iszero\n        /* \"contracts/Pool/PoolPig.sol\":31593:31639  !_isExcluded[sender] && _isExcluded[recipient] */\n      dup1\n      iszero\n      tag_411\n      jumpi\n      pop\n        /* \"contracts/Pool/PoolPig.sol\":31617:31628  _isExcluded */\n      0x07\n        /* \"contracts/Pool/PoolPig.sol\":31617:31639  _isExcluded[recipient] */\n      0x00\n        /* \"contracts/Pool/PoolPig.sol\":31629:31638  recipient */\n      dup5\n        /* \"contracts/Pool/PoolPig.sol\":31617:31639  _isExcluded[recipient] */\n      0xffffffffffffffffffffffffffffffffffffffff\n      and\n      0xffffffffffffffffffffffffffffffffffffffff\n      and\n      dup2\n      mstore\n      0x20\n      add\n      swap1\n      dup2\n      mstore\n      0x20\n      add\n      0x00\n      keccak256\n      0x00\n      swap1\n      sload\n      swap1\n      0x0100\n      exp\n      swap1\n      div\n      0xff\n      and\n        /* \"contracts/Pool/PoolPig.sol\":31593:31639  !_isExcluded[sender] && _isExcluded[recipient] */\n    tag_411:\n        /* \"contracts/Pool/PoolPig.sol\":31589:32045  if (!_isExcluded[sender] && _isExcluded[recipient]) {... */\n      iszero\n      tag_412\n      jumpi\n        /* \"contracts/Pool/PoolPig.sol\":31655:31701  _transferToExcluded(sender, recipient, amount) */\n      tag_413\n        /* \"contracts/Pool/PoolPig.sol\":31675:31681  sender */\n      dup5\n        /* \"contracts/Pool/PoolPig.sol\":31683:31692  recipient */\n      dup5\n        /* \"contracts/Pool/PoolPig.sol\":31694:31700  amount */\n      dup5\n        /* \"contracts/Pool/PoolPig.sol\":31655:31674  _transferToExcluded */\n      tag_414\n        /* \"contracts/Pool/PoolPig.sol\":31655:31701  _transferToExcluded(sender, recipient, amount) */\n      jump\t// in\n    tag_413:\n        /* \"contracts/Pool/PoolPig.sol\":31589:32045  if (!_isExcluded[sender] && _isExcluded[recipient]) {... */\n      jump(tag_415)\n    tag_412:\n        /* \"contracts/Pool/PoolPig.sol\":31723:31734  _isExcluded */\n      0x07\n        /* \"contracts/Pool/PoolPig.sol\":31723:31742  _isExcluded[sender] */\n      0x00\n        /* \"contracts/Pool/PoolPig.sol\":31735:31741  sender */\n      dup6\n        /* \"contracts/Pool/PoolPig.sol\":31723:31742  _isExcluded[sender] */\n      0xffffffffffffffffffffffffffffffffffffffff\n      and\n      0xffffffffffffffffffffffffffffffffffffffff\n      and\n      dup2\n      mstore\n      0x20\n      add\n      swap1\n      dup2\n      mstore\n      0x20\n      add\n      0x00\n      keccak256\n      0x00\n      swap1\n      sload\n      swap1\n      0x0100\n      exp\n      swap1\n      div\n      0xff\n      and\n        /* \"contracts/Pool/PoolPig.sol\":31722:31742  !_isExcluded[sender] */\n      iszero\n        /* \"contracts/Pool/PoolPig.sol\":31722:31769  !_isExcluded[sender] && !_isExcluded[recipient] */\n      dup1\n      iszero\n      tag_416\n      jumpi\n      pop\n        /* \"contracts/Pool/PoolPig.sol\":31747:31758  _isExcluded */\n      0x07\n        /* \"contracts/Pool/PoolPig.sol\":31747:31769  _isExcluded[recipient] */\n      0x00\n        /* \"contracts/Pool/PoolPig.sol\":31759:31768  recipient */\n      dup5\n        /* \"contracts/Pool/PoolPig.sol\":31747:31769  _isExcluded[recipient] */\n      0xffffffffffffffffffffffffffffffffffffffff\n      and\n      0xffffffffffffffffffffffffffffffffffffffff\n      and\n      dup2\n      mstore\n      0x20\n      add\n      swap1\n      dup2\n      mstore\n      0x20\n      add\n      0x00\n      keccak256\n      0x00\n      swap1\n      sload\n      swap1\n      0x0100\n      exp\n      swap1\n      div\n      0xff\n      and\n        /* \"contracts/Pool/PoolPig.sol\":31746:31769  !_isExcluded[recipient] */\n      iszero\n        /* \"contracts/Pool/PoolPig.sol\":31722:31769  !_isExcluded[sender] && !_isExcluded[recipient] */\n    tag_416:\n        /* \"contracts/Pool/PoolPig.sol\":31718:32045  if (!_isExcluded[sender] && !_isExcluded[recipient]) {... */\n      iszero\n      tag_417\n      jumpi\n        /* \"contracts/Pool/PoolPig.sol\":31785:31829  _transferStandard(sender, recipient, amount) */\n      tag_418\n        /* \"contracts/Pool/PoolPig.sol\":31803:31809  sender */\n      dup5\n        /* \"contracts/Pool/PoolPig.sol\":31811:31820  recipient */\n      dup5\n        /* \"contracts/Pool/PoolPig.sol\":31822:31828  amount */\n      dup5\n        /* \"contracts/Pool/PoolPig.sol\":31785:31802  _transferStandard */\n      tag_419\n        /* \"contracts/Pool/PoolPig.sol\":31785:31829  _transferStandard(sender, recipient, amount) */\n      jump\t// in\n    tag_418:\n        /* \"contracts/Pool/PoolPig.sol\":31718:32045  if (!_isExcluded[sender] && !_isExcluded[recipient]) {... */\n      jump(tag_420)\n    tag_417:\n        /* \"contracts/Pool/PoolPig.sol\":31850:31861  _isExcluded */\n      0x07\n        /* \"contracts/Pool/PoolPig.sol\":31850:31869  _isExcluded[sender] */\n      0x00\n        /* \"contracts/Pool/PoolPig.sol\":31862:31868  sender */\n      dup6\n        /* \"contracts/Pool/PoolPig.sol\":31850:31869  _isExcluded[sender] */\n      0xffffffffffffffffffffffffffffffffffffffff\n      and\n      0xffffffffffffffffffffffffffffffffffffffff\n      and\n      dup2\n      mstore\n      0x20\n      add\n      swap1\n      dup2\n      mstore\n      0x20\n      add\n      0x00\n      keccak256\n      0x00\n      swap1\n      sload\n      swap1\n      0x0100\n      exp\n      swap1\n      div\n      0xff\n      and\n        /* \"contracts/Pool/PoolPig.sol\":31850:31895  _isExcluded[sender] && _isExcluded[recipient] */\n      dup1\n      iszero\n      tag_421\n      jumpi\n      pop\n        /* \"contracts/Pool/PoolPig.sol\":31873:31884  _isExcluded */\n      0x07\n        /* \"contracts/Pool/PoolPig.sol\":31873:31895  _isExcluded[recipient] */\n      0x00\n        /* \"contracts/Pool/PoolPig.sol\":31885:31894  recipient */\n      dup5\n        /* \"contracts/Pool/PoolPig.sol\":31873:31895  _isExcluded[recipient] */\n      0xffffffffffffffffffffffffffffffffffffffff\n      and\n      0xffffffffffffffffffffffffffffffffffffffff\n      and\n      dup2\n      mstore\n      0x20\n      add\n      swap1\n      dup2\n      mstore\n      0x20\n      add\n      0x00\n      keccak256\n      0x00\n      swap1\n      sload\n      swap1\n      0x0100\n      exp\n      swap1\n      div\n      0xff\n      and\n        /* \"contracts/Pool/PoolPig.sol\":31850:31895  _isExcluded[sender] && _isExcluded[recipient] */\n    tag_421:\n        /* \"contracts/Pool/PoolPig.sol\":31846:32045  if (_isExcluded[sender] && _isExcluded[recipient]) {... */\n      iszero\n      tag_422\n      jumpi\n        /* \"contracts/Pool/PoolPig.sol\":31911:31959  _transferBothExcluded(sender, recipient, amount) */\n      tag_423\n        /* \"contracts/Pool/PoolPig.sol\":31933:31939  sender */\n      dup5\n        /* \"contracts/Pool/PoolPig.sol\":31941:31950  recipient */\n      dup5\n        /* \"contracts/Pool/PoolPig.sol\":31952:31958  amount */\n      dup5\n        /* \"contracts/Pool/PoolPig.sol\":31911:31932  _transferBothExcluded */\n      tag_424\n        /* \"contracts/Pool/PoolPig.sol\":31911:31959  _transferBothExcluded(sender, recipient, amount) */\n      jump\t// in\n    tag_423:\n        /* \"contracts/Pool/PoolPig.sol\":31846:32045  if (_isExcluded[sender] && _isExcluded[recipient]) {... */\n      jump(tag_425)\n    tag_422:\n        /* \"contracts/Pool/PoolPig.sol\":31990:32034  _transferStandard(sender, recipient, amount) */\n      tag_426\n        /* \"contracts/Pool/PoolPig.sol\":32008:32014  sender */\n      dup5\n        /* \"contracts/Pool/PoolPig.sol\":32016:32025  recipient */\n      dup5\n        /* \"contracts/Pool/PoolPig.sol\":32027:32033  amount */\n      dup5\n        /* \"contracts/Pool/PoolPig.sol\":31990:32007  _transferStandard */\n      tag_419\n        /* \"contracts/Pool/PoolPig.sol\":31990:32034  _transferStandard(sender, recipient, amount) */\n      jump\t// in\n    tag_426:\n        /* \"contracts/Pool/PoolPig.sol\":31846:32045  if (_isExcluded[sender] && _isExcluded[recipient]) {... */\n    tag_425:\n        /* \"contracts/Pool/PoolPig.sol\":31718:32045  if (!_isExcluded[sender] && !_isExcluded[recipient]) {... */\n    tag_420:\n        /* \"contracts/Pool/PoolPig.sol\":31589:32045  if (!_isExcluded[sender] && _isExcluded[recipient]) {... */\n    tag_415:\n        /* \"contracts/Pool/PoolPig.sol\":31458:32045  if (_isExcluded[sender] && !_isExcluded[recipient]) {... */\n    tag_410:\n        /* \"contracts/Pool/PoolPig.sol\":32067:32074  takeFee */\n      dup1\n        /* \"contracts/Pool/PoolPig.sol\":32063:32103  if(!takeFee)... */\n      tag_427\n      jumpi\n        /* \"contracts/Pool/PoolPig.sol\":32088:32103  restoreAllFee() */\n      tag_428\n        /* \"contracts/Pool/PoolPig.sol\":32088:32101  restoreAllFee */\n      tag_429\n        /* \"contracts/Pool/PoolPig.sol\":32088:32103  restoreAllFee() */\n      jump\t// in\n    tag_428:\n        /* \"contracts/Pool/PoolPig.sol\":32063:32103  if(!takeFee)... */\n    tag_427:\n        /* \"contracts/Pool/PoolPig.sol\":31294:32110  function _tokenTransfer(address sender, address recipient, uint256 amount,bool takeFee) private {... */\n      pop\n      pop\n      pop\n      pop\n      jump\t// out\n        /* \"contracts/Pool/PoolPig.sol\":25573:26124  function _getCurrentSupply() private view returns(uint256, uint256) {... */\n    tag_374:\n        /* \"contracts/Pool/PoolPig.sol\":25623:25630  uint256 */\n      0x00\n        /* \"contracts/Pool/PoolPig.sol\":25632:25639  uint256 */\n      dup1\n        /* \"contracts/Pool/PoolPig.sol\":25651:25666  uint256 rSupply */\n      0x00\n        /* \"contracts/Pool/PoolPig.sol\":25669:25676  _rTotal */\n      sload(0x0c)\n        /* \"contracts/Pool/PoolPig.sol\":25651:25676  uint256 rSupply = _rTotal */\n      swap1\n      pop\n        /* \"contracts/Pool/PoolPig.sol\":25686:25701  uint256 tSupply */\n      0x00\n        /* \"contracts/Pool/PoolPig.sol\":15958:15976  1000000000 * 10**9 */\n      0x0de0b6b3a7640000\n        /* \"contracts/Pool/PoolPig.sol\":25686:25711  uint256 tSupply = _tTotal */\n      swap1\n      pop\n        /* \"contracts/Pool/PoolPig.sol\":25732:25741  uint256 i */\n      0x00\n        /* \"contracts/Pool/PoolPig.sol\":25727:26012  for (uint256 i = 0; i < _excluded.length; i++) {... */\n    tag_431:\n        /* \"contracts/Pool/PoolPig.sol\":25751:25760  _excluded */\n      0x08\n        /* \"contracts/Pool/PoolPig.sol\":25751:25767  _excluded.length */\n      dup1\n      sload\n      swap1\n      pop\n        /* \"contracts/Pool/PoolPig.sol\":25747:25748  i */\n      dup2\n        /* \"contracts/Pool/PoolPig.sol\":25747:25767  i < _excluded.length */\n      lt\n        /* \"contracts/Pool/PoolPig.sol\":25727:26012  for (uint256 i = 0; i < _excluded.length; i++) {... */\n      iszero\n      tag_432\n      jumpi\n        /* \"contracts/Pool/PoolPig.sol\":25816:25823  rSupply */\n      dup3\n        /* \"contracts/Pool/PoolPig.sol\":25792:25799  _rOwned */\n      0x03\n        /* \"contracts/Pool/PoolPig.sol\":25792:25813  _rOwned[_excluded[i]] */\n      0x00\n        /* \"contracts/Pool/PoolPig.sol\":25800:25809  _excluded */\n      0x08\n        /* \"contracts/Pool/PoolPig.sol\":25810:25811  i */\n      dup5\n        /* \"contracts/Pool/PoolPig.sol\":25800:25812  _excluded[i] */\n      dup2\n      sload\n      dup2\n      lt\n      tag_434\n      jumpi\n      invalid\n    tag_434:\n      swap1\n      0x00\n      mstore\n      keccak256(0x00, 0x20)\n      add\n      0x00\n      swap1\n      sload\n      swap1\n      0x0100\n      exp\n      swap1\n      div\n      0xffffffffffffffffffffffffffffffffffffffff\n      and\n        /* \"contracts/Pool/PoolPig.sol\":25792:25813  _rOwned[_excluded[i]] */\n      0xffffffffffffffffffffffffffffffffffffffff\n      and\n      0xffffffffffffffffffffffffffffffffffffffff\n      and\n      dup2\n      mstore\n      0x20\n      add\n      swap1\n      dup2\n      mstore\n      0x20\n      add\n      0x00\n      keccak256\n      sload\n        /* \"contracts/Pool/PoolPig.sol\":25792:25823  _rOwned[_excluded[i]] > rSupply */\n      gt\n        /* \"contracts/Pool/PoolPig.sol\":25792:25858  _rOwned[_excluded[i]] > rSupply || _tOwned[_excluded[i]] > tSupply */\n      dup1\n      tag_436\n      jumpi\n      pop\n        /* \"contracts/Pool/PoolPig.sol\":25851:25858  tSupply */\n      dup2\n        /* \"contracts/Pool/PoolPig.sol\":25827:25834  _tOwned */\n      0x04\n        /* \"contracts/Pool/PoolPig.sol\":25827:25848  _tOwned[_excluded[i]] */\n      0x00\n        /* \"contracts/Pool/PoolPig.sol\":25835:25844  _excluded */\n      0x08\n        /* \"contracts/Pool/PoolPig.sol\":25845:25846  i */\n      dup5\n        /* \"contracts/Pool/PoolPig.sol\":25835:25847  _excluded[i] */\n      dup2\n      sload\n      dup2\n      lt\n      tag_437\n      jumpi\n      invalid\n    tag_437:\n      swap1\n      0x00\n      mstore\n      keccak256(0x00, 0x20)\n      add\n      0x00\n      swap1\n      sload\n      swap1\n      0x0100\n      exp\n      swap1\n      div\n      0xffffffffffffffffffffffffffffffffffffffff\n      and\n        /* \"contracts/Pool/PoolPig.sol\":25827:25848  _tOwned[_excluded[i]] */\n      0xffffffffffffffffffffffffffffffffffffffff\n      and\n      0xffffffffffffffffffffffffffffffffffffffff\n      and\n      dup2\n      mstore\n      0x20\n      add\n      swap1\n      dup2\n      mstore\n      0x20\n      add\n      0x00\n      keccak256\n      sload\n        /* \"contracts/Pool/PoolPig.sol\":25827:25858  _tOwned[_excluded[i]] > tSupply */\n      gt\n        /* \"contracts/Pool/PoolPig.sol\":25792:25858  _rOwned[_excluded[i]] > rSupply || _tOwned[_excluded[i]] > tSupply */\n    tag_436:\n        /* \"contracts/Pool/PoolPig.sol\":25788:25885  if (_rOwned[_excluded[i]] > rSupply || _tOwned[_excluded[i]] > tSupply) return (_rTotal, _tTotal) */\n      iszero\n      tag_439\n      jumpi\n        /* \"contracts/Pool/PoolPig.sol\":25868:25875  _rTotal */\n      sload(0x0c)\n        /* \"contracts/Pool/PoolPig.sol\":15958:15976  1000000000 * 10**9 */\n      0x0de0b6b3a7640000\n        /* \"contracts/Pool/PoolPig.sol\":25860:25885  return (_rTotal, _tTotal) */\n      swap5\n      pop\n      swap5\n      pop\n      pop\n      pop\n      pop\n      jump(tag_430)\n        /* \"contracts/Pool/PoolPig.sol\":25788:25885  if (_rOwned[_excluded[i]] > rSupply || _tOwned[_excluded[i]] > tSupply) return (_rTotal, _tTotal) */\n    tag_439:\n        /* \"contracts/Pool/PoolPig.sol\":25909:25943  rSupply.sub(_rOwned[_excluded[i]]) */\n      tag_440\n        /* \"contracts/Pool/PoolPig.sol\":25921:25928  _rOwned */\n      0x03\n        /* \"contracts/Pool/PoolPig.sol\":25921:25942  _rOwned[_excluded[i]] */\n      0x00\n        /* \"contracts/Pool/PoolPig.sol\":25929:25938  _excluded */\n      0x08\n        /* \"contracts/Pool/PoolPig.sol\":25939:25940  i */\n      dup5\n        /* \"contracts/Pool/PoolPig.sol\":25929:25941  _excluded[i] */\n      dup2\n      sload\n      dup2\n      lt\n      tag_441\n      jumpi\n      invalid\n    tag_441:\n      swap1\n      0x00\n      mstore\n      keccak256(0x00, 0x20)\n      add\n      0x00\n      swap1\n      sload\n      swap1\n      0x0100\n      exp\n      swap1\n      div\n      0xffffffffffffffffffffffffffffffffffffffff\n      and\n        /* \"contracts/Pool/PoolPig.sol\":25921:25942  _rOwned[_excluded[i]] */\n      0xffffffffffffffffffffffffffffffffffffffff\n      and\n      0xffffffffffffffffffffffffffffffffffffffff\n      and\n      dup2\n      mstore\n      0x20\n      add\n      swap1\n      dup2\n      mstore\n      0x20\n      add\n      0x00\n      keccak256\n      sload\n        /* \"contracts/Pool/PoolPig.sol\":25909:25916  rSupply */\n      dup5\n        /* \"contracts/Pool/PoolPig.sol\":25909:25920  rSupply.sub */\n      tag_265\n      swap1\n        /* \"contracts/Pool/PoolPig.sol\":25909:25943  rSupply.sub(_rOwned[_excluded[i]]) */\n      swap2\n      swap1\n      0xffffffff\n      and\n      jump\t// in\n    tag_440:\n        /* \"contracts/Pool/PoolPig.sol\":25899:25943  rSupply = rSupply.sub(_rOwned[_excluded[i]]) */\n      swap3\n      pop\n        /* \"contracts/Pool/PoolPig.sol\":25967:26001  tSupply.sub(_tOwned[_excluded[i]]) */\n      tag_443\n        /* \"contracts/Pool/PoolPig.sol\":25979:25986  _tOwned */\n      0x04\n        /* \"contracts/Pool/PoolPig.sol\":25979:26000  _tOwned[_excluded[i]] */\n      0x00\n        /* \"contracts/Pool/PoolPig.sol\":25987:25996  _excluded */\n      0x08\n        /* \"contracts/Pool/PoolPig.sol\":25997:25998  i */\n      dup5\n        /* \"contracts/Pool/PoolPig.sol\":25987:25999  _excluded[i] */\n      dup2\n      sload\n      dup2\n      lt\n      tag_444\n      jumpi\n      invalid\n    tag_444:\n      swap1\n      0x00\n      mstore\n      keccak256(0x00, 0x20)\n      add\n      0x00\n      swap1\n      sload\n      swap1\n      0x0100\n      exp\n      swap1\n      div\n      0xffffffffffffffffffffffffffffffffffffffff\n      and\n        /* \"contracts/Pool/PoolPig.sol\":25979:26000  _tOwned[_excluded[i]] */\n      0xffffffffffffffffffffffffffffffffffffffff\n      and\n      0xffffffffffffffffffffffffffffffffffffffff\n      and\n      dup2\n      mstore\n      0x20\n      add\n      swap1\n      dup2\n      mstore\n      0x20\n      add\n      0x00\n      keccak256\n      sload\n        /* \"contracts/Pool/PoolPig.sol\":25967:25974  tSupply */\n      dup4\n        /* \"contracts/Pool/PoolPig.sol\":25967:25978  tSupply.sub */\n      tag_265\n      swap1\n        /* \"contracts/Pool/PoolPig.sol\":25967:26001  tSupply.sub(_tOwned[_excluded[i]]) */\n      swap2\n      swap1\n      0xffffffff\n      and\n      jump\t// in\n    tag_443:\n        /* \"contracts/Pool/PoolPig.sol\":25957:26001  tSupply = tSupply.sub(_tOwned[_excluded[i]]) */\n      swap2\n      pop\n        /* \"contracts/Pool/PoolPig.sol\":25769:25772  i++ */\n      dup1\n      dup1\n      0x01\n      add\n      swap2\n      pop\n      pop\n        /* \"contracts/Pool/PoolPig.sol\":25727:26012  for (uint256 i = 0; i < _excluded.length; i++) {... */\n      jump(tag_431)\n    tag_432:\n      pop\n        /* \"contracts/Pool/PoolPig.sol\":26035:26055  _rTotal.div(_tTotal) */\n      tag_446\n        /* \"contracts/Pool/PoolPig.sol\":15958:15976  1000000000 * 10**9 */\n      0x0de0b6b3a7640000\n        /* \"contracts/Pool/PoolPig.sol\":26035:26042  _rTotal */\n      sload(0x0c)\n        /* \"contracts/Pool/PoolPig.sol\":26035:26046  _rTotal.div */\n      tag_234\n      swap1\n        /* \"contracts/Pool/PoolPig.sol\":26035:26055  _rTotal.div(_tTotal) */\n      swap2\n      swap1\n      0xffffffff\n      and\n      jump\t// in\n    tag_446:\n        /* \"contracts/Pool/PoolPig.sol\":26025:26032  rSupply */\n      dup3\n        /* \"contracts/Pool/PoolPig.sol\":26025:26055  rSupply < _rTotal.div(_tTotal) */\n      lt\n        /* \"contracts/Pool/PoolPig.sol\":26021:26082  if (rSupply < _rTotal.div(_tTotal)) return (_rTotal, _tTotal) */\n      iszero\n      tag_447\n      jumpi\n        /* \"contracts/Pool/PoolPig.sol\":26065:26072  _rTotal */\n      sload(0x0c)\n        /* \"contracts/Pool/PoolPig.sol\":15958:15976  1000000000 * 10**9 */\n      0x0de0b6b3a7640000\n        /* \"contracts/Pool/PoolPig.sol\":26057:26082  return (_rTotal, _tTotal) */\n      swap4\n      pop\n      swap4\n      pop\n      pop\n      pop\n      jump(tag_430)\n        /* \"contracts/Pool/PoolPig.sol\":26021:26082  if (rSupply < _rTotal.div(_tTotal)) return (_rTotal, _tTotal) */\n    tag_447:\n        /* \"contracts/Pool/PoolPig.sol\":26100:26107  rSupply */\n      dup2\n        /* \"contracts/Pool/PoolPig.sol\":26109:26116  tSupply */\n      dup2\n        /* \"contracts/Pool/PoolPig.sol\":26092:26117  return (rSupply, tSupply) */\n      swap4\n      pop\n      swap4\n      pop\n      pop\n      pop\n        /* \"contracts/Pool/PoolPig.sol\":25573:26124  function _getCurrentSupply() private view returns(uint256, uint256) {... */\n    tag_430:\n      swap1\n      swap2\n      jump\t// out\n        /* \"contracts/Pool/PoolPig.sol\":1646:1918  function div(uint256 a, uint256 b, string memory errorMessage) internal pure returns (uint256) {... */\n    tag_378:\n        /* \"contracts/Pool/PoolPig.sol\":1732:1739  uint256 */\n      0x00\n        /* \"contracts/Pool/PoolPig.sol\":1763:1764  0 */\n      dup1\n        /* \"contracts/Pool/PoolPig.sol\":1759:1760  b */\n      dup4\n        /* \"contracts/Pool/PoolPig.sol\":1759:1764  b > 0 */\n      gt\n        /* \"contracts/Pool/PoolPig.sol\":1766:1778  errorMessage */\n      dup3\n        /* \"contracts/Pool/PoolPig.sol\":1751:1779  require(b > 0, errorMessage) */\n      swap1\n      tag_449\n      jumpi\n      mload(0x40)\n      0x08c379a000000000000000000000000000000000000000000000000000000000\n      dup2\n      mstore\n      0x04\n      add\n      dup1\n      dup1\n      0x20\n      add\n      dup3\n      dup2\n      sub\n      dup3\n      mstore\n      dup4\n      dup2\n      dup2\n      mload\n      dup2\n      mstore\n      0x20\n      add\n      swap2\n      pop\n      dup1\n      mload\n      swap1\n      0x20\n      add\n      swap1\n      dup1\n      dup4\n      dup4\n      0x00\n    tag_450:\n      dup4\n      dup2\n      lt\n      iszero\n      tag_452\n      jumpi\n      dup1\n      dup3\n      add\n      mload\n      dup2\n      dup5\n      add\n      mstore\n      0x20\n      dup2\n      add\n      swap1\n      pop\n      jump(tag_450)\n    tag_452:\n      pop\n      pop\n      pop\n      pop\n      swap1\n      pop\n      swap1\n      dup2\n      add\n      swap1\n      0x1f\n      and\n      dup1\n      iszero\n      tag_453\n      jumpi\n      dup1\n      dup3\n      sub\n      dup1\n      mload\n      0x01\n      dup4\n      0x20\n      sub\n      0x0100\n      exp\n      sub\n      not\n      and\n      dup2\n      mstore\n      0x20\n      add\n      swap2\n      pop\n    tag_453:\n      pop\n      swap3\n      pop\n      pop\n      pop\n      mload(0x40)\n      dup1\n      swap2\n      sub\n      swap1\n      revert\n    tag_449:\n      pop\n        /* \"contracts/Pool/PoolPig.sol\":1789:1798  uint256 c */\n      0x00\n        /* \"contracts/Pool/PoolPig.sol\":1805:1806  b */\n      dup4\n        /* \"contracts/Pool/PoolPig.sol\":1801:1802  a */\n      dup6\n        /* \"contracts/Pool/PoolPig.sol\":1801:1806  a / b */\n      dup2\n      tag_454\n      jumpi\n      invalid\n    tag_454:\n      div\n        /* \"contracts/Pool/PoolPig.sol\":1789:1806  uint256 c = a / b */\n      swap1\n      pop\n        /* \"contracts/Pool/PoolPig.sol\":1910:1911  c */\n      dup1\n        /* \"contracts/Pool/PoolPig.sol\":1903:1911  return c */\n      swap2\n      pop\n      pop\n        /* \"contracts/Pool/PoolPig.sol\":1646:1918  function div(uint256 a, uint256 b, string memory errorMessage) internal pure returns (uint256) {... */\n      swap4\n      swap3\n      pop\n      pop\n      pop\n      jump\t// out\n        /* \"contracts/Pool/PoolPig.sol\":24647:24972  function _getTValues(uint256 tAmount) private view returns (uint256, uint256, uint256) {... */\n    tag_383:\n        /* \"contracts/Pool/PoolPig.sol\":24707:24714  uint256 */\n      0x00\n        /* \"contracts/Pool/PoolPig.sol\":24716:24723  uint256 */\n      dup1\n        /* \"contracts/Pool/PoolPig.sol\":24725:24732  uint256 */\n      0x00\n        /* \"contracts/Pool/PoolPig.sol\":24744:24756  uint256 tFee */\n      dup1\n        /* \"contracts/Pool/PoolPig.sol\":24759:24783  calculateTaxFee(tAmount) */\n      tag_456\n        /* \"contracts/Pool/PoolPig.sol\":24775:24782  tAmount */\n      dup6\n        /* \"contracts/Pool/PoolPig.sol\":24759:24774  calculateTaxFee */\n      tag_457\n        /* \"contracts/Pool/PoolPig.sol\":24759:24783  calculateTaxFee(tAmount) */\n      jump\t// in\n    tag_456:\n        /* \"contracts/Pool/PoolPig.sol\":24744:24783  uint256 tFee = calculateTaxFee(tAmount) */\n      swap1\n      pop\n        /* \"contracts/Pool/PoolPig.sol\":24793:24811  uint256 tLiquidity */\n      0x00\n        /* \"contracts/Pool/PoolPig.sol\":24814:24844  calculateLiquidityFee(tAmount) */\n      tag_458\n        /* \"contracts/Pool/PoolPig.sol\":24836:24843  tAmount */\n      dup7\n        /* \"contracts/Pool/PoolPig.sol\":24814:24835  calculateLiquidityFee */\n      tag_459\n        /* \"contracts/Pool/PoolPig.sol\":24814:24844  calculateLiquidityFee(tAmount) */\n      jump\t// in\n    tag_458:\n        /* \"contracts/Pool/PoolPig.sol\":24793:24844  uint256 tLiquidity = calculateLiquidityFee(tAmount) */\n      swap1\n      pop\n        /* \"contracts/Pool/PoolPig.sol\":24854:24877  uint256 tTransferAmount */\n      0x00\n        /* \"contracts/Pool/PoolPig.sol\":24880:24913  tAmount.sub(tFee).sub(tLiquidity) */\n      tag_460\n        /* \"contracts/Pool/PoolPig.sol\":24902:24912  tLiquidity */\n      dup3\n        /* \"contracts/Pool/PoolPig.sol\":24880:24897  tAmount.sub(tFee) */\n      tag_461\n        /* \"contracts/Pool/PoolPig.sol\":24892:24896  tFee */\n      dup6\n        /* \"contracts/Pool/PoolPig.sol\":24880:24887  tAmount */\n      dup11\n        /* \"contracts/Pool/PoolPig.sol\":24880:24891  tAmount.sub */\n      tag_265\n      swap1\n        /* \"contracts/Pool/PoolPig.sol\":24880:24897  tAmount.sub(tFee) */\n      swap2\n      swap1\n      0xffffffff\n      and\n      jump\t// in\n    tag_461:\n        /* \"contracts/Pool/PoolPig.sol\":24880:24901  tAmount.sub(tFee).sub */\n      tag_265\n      swap1\n        /* \"contracts/Pool/PoolPig.sol\":24880:24913  tAmount.sub(tFee).sub(tLiquidity) */\n      swap2\n      swap1\n      0xffffffff\n      and\n      jump\t// in\n    tag_460:\n        /* \"contracts/Pool/PoolPig.sol\":24854:24913  uint256 tTransferAmount = tAmount.sub(tFee).sub(tLiquidity) */\n      swap1\n      pop\n        /* \"contracts/Pool/PoolPig.sol\":24931:24946  tTransferAmount */\n      dup1\n        /* \"contracts/Pool/PoolPig.sol\":24948:24952  tFee */\n      dup4\n        /* \"contracts/Pool/PoolPig.sol\":24954:24964  tLiquidity */\n      dup4\n        /* \"contracts/Pool/PoolPig.sol\":24923:24965  return (tTransferAmount, tFee, tLiquidity) */\n      swap6\n      pop\n      swap6\n      pop\n      swap6\n      pop\n      pop\n      pop\n      pop\n        /* \"contracts/Pool/PoolPig.sol\":24647:24972  function _getTValues(uint256 tAmount) private view returns (uint256, uint256, uint256) {... */\n      swap2\n      swap4\n      swap1\n      swap3\n      pop\n      jump\t// out\n        /* \"contracts/Pool/PoolPig.sol\":24978:25401  function _getRValues(uint256 tAmount, uint256 tFee, uint256 tLiquidity, uint256 currentRate) private pure returns (uint256, uint256, uint256) {... */\n    tag_386:\n        /* \"contracts/Pool/PoolPig.sol\":25093:25100  uint256 */\n      0x00\n        /* \"contracts/Pool/PoolPig.sol\":25102:25109  uint256 */\n      dup1\n        /* \"contracts/Pool/PoolPig.sol\":25111:25118  uint256 */\n      0x00\n        /* \"contracts/Pool/PoolPig.sol\":25130:25145  uint256 rAmount */\n      dup1\n        /* \"contracts/Pool/PoolPig.sol\":25148:25172  tAmount.mul(currentRate) */\n      tag_463\n        /* \"contracts/Pool/PoolPig.sol\":25160:25171  currentRate */\n      dup6\n        /* \"contracts/Pool/PoolPig.sol\":25148:25155  tAmount */\n      dup10\n        /* \"contracts/Pool/PoolPig.sol\":25148:25159  tAmount.mul */\n      tag_326\n      swap1\n        /* \"contracts/Pool/PoolPig.sol\":25148:25172  tAmount.mul(currentRate) */\n      swap2\n      swap1\n      0xffffffff\n      and\n      jump\t// in\n    tag_463:\n        /* \"contracts/Pool/PoolPig.sol\":25130:25172  uint256 rAmount = tAmount.mul(currentRate) */\n      swap1\n      pop\n        /* \"contracts/Pool/PoolPig.sol\":25182:25194  uint256 rFee */\n      0x00\n        /* \"contracts/Pool/PoolPig.sol\":25197:25218  tFee.mul(currentRate) */\n      tag_464\n        /* \"contracts/Pool/PoolPig.sol\":25206:25217  currentRate */\n      dup7\n        /* \"contracts/Pool/PoolPig.sol\":25197:25201  tFee */\n      dup10\n        /* \"contracts/Pool/PoolPig.sol\":25197:25205  tFee.mul */\n      tag_326\n      swap1\n        /* \"contracts/Pool/PoolPig.sol\":25197:25218  tFee.mul(currentRate) */\n      swap2\n      swap1\n      0xffffffff\n      and\n      jump\t// in\n    tag_464:\n        /* \"contracts/Pool/PoolPig.sol\":25182:25218  uint256 rFee = tFee.mul(currentRate) */\n      swap1\n      pop\n        /* \"contracts/Pool/PoolPig.sol\":25228:25246  uint256 rLiquidity */\n      0x00\n        /* \"contracts/Pool/PoolPig.sol\":25249:25276  tLiquidity.mul(currentRate) */\n      tag_465\n        /* \"contracts/Pool/PoolPig.sol\":25264:25275  currentRate */\n      dup8\n        /* \"contracts/Pool/PoolPig.sol\":25249:25259  tLiquidity */\n      dup10\n        /* \"contracts/Pool/PoolPig.sol\":25249:25263  tLiquidity.mul */\n      tag_326\n      swap1\n        /* \"contracts/Pool/PoolPig.sol\":25249:25276  tLiquidity.mul(currentRate) */\n      swap2\n      swap1\n      0xffffffff\n      and\n      jump\t// in\n    tag_465:\n        /* \"contracts/Pool/PoolPig.sol\":25228:25276  uint256 rLiquidity = tLiquidity.mul(currentRate) */\n      swap1\n      pop\n        /* \"contracts/Pool/PoolPig.sol\":25286:25309  uint256 rTransferAmount */\n      0x00\n        /* \"contracts/Pool/PoolPig.sol\":25312:25345  rAmount.sub(rFee).sub(rLiquidity) */\n      tag_466\n        /* \"contracts/Pool/PoolPig.sol\":25334:25344  rLiquidity */\n      dup3\n        /* \"contracts/Pool/PoolPig.sol\":25312:25329  rAmount.sub(rFee) */\n      tag_467\n        /* \"contracts/Pool/PoolPig.sol\":25324:25328  rFee */\n      dup6\n        /* \"contracts/Pool/PoolPig.sol\":25312:25319  rAmount */\n      dup8\n        /* \"contracts/Pool/PoolPig.sol\":25312:25323  rAmount.sub */\n      tag_265\n      swap1\n        /* \"contracts/Pool/PoolPig.sol\":25312:25329  rAmount.sub(rFee) */\n      swap2\n      swap1\n      0xffffffff\n      and\n      jump\t// in\n    tag_467:\n        /* \"contracts/Pool/PoolPig.sol\":25312:25333  rAmount.sub(rFee).sub */\n      tag_265\n      swap1\n        /* \"contracts/Pool/PoolPig.sol\":25312:25345  rAmount.sub(rFee).sub(rLiquidity) */\n      swap2\n      swap1\n      0xffffffff\n      and\n      jump\t// in\n    tag_466:\n        /* \"contracts/Pool/PoolPig.sol\":25286:25345  uint256 rTransferAmount = rAmount.sub(rFee).sub(rLiquidity) */\n      swap1\n      pop\n        /* \"contracts/Pool/PoolPig.sol\":25363:25370  rAmount */\n      dup4\n        /* \"contracts/Pool/PoolPig.sol\":25372:25387  rTransferAmount */\n      dup2\n        /* \"contracts/Pool/PoolPig.sol\":25389:25393  rFee */\n      dup5\n        /* \"contracts/Pool/PoolPig.sol\":25355:25394  return (rAmount, rTransferAmount, rFee) */\n      swap7\n      pop\n      swap7\n      pop\n      swap7\n      pop\n      pop\n      pop\n      pop\n      pop\n        /* \"contracts/Pool/PoolPig.sol\":24978:25401  function _getRValues(uint256 tAmount, uint256 tFee, uint256 tLiquidity, uint256 currentRate) private pure returns (uint256, uint256, uint256) {... */\n      swap5\n      pop\n      swap5\n      pop\n      swap5\n      swap2\n      pop\n      pop\n      jump\t// out\n        /* \"contracts/Pool/PoolPig.sol\":30137:30710  function swapTokensForEth(uint256 tokenAmount) private {... */\n    tag_398:\n        /* \"contracts/Pool/PoolPig.sol\":30261:30282  address[] memory path */\n      0x60\n        /* \"contracts/Pool/PoolPig.sol\":30299:30300  2 */\n      0x02\n        /* \"contracts/Pool/PoolPig.sol\":30285:30301  new address[](2) */\n      0xffffffffffffffff\n      dup2\n      gt\n      dup1\n      iszero\n      tag_469\n      jumpi\n      0x00\n      dup1\n      revert\n    tag_469:\n      pop\n      mload(0x40)\n      swap1\n      dup1\n      dup3\n      mstore\n      dup1\n      0x20\n      mul\n      0x20\n      add\n      dup3\n      add\n      0x40\n      mstore\n      dup1\n      iszero\n      tag_470\n      jumpi\n      dup2\n      0x20\n      add\n      0x20\n      dup3\n      mul\n      dup1\n      calldatasize\n      dup4\n      calldatacopy\n      dup1\n      dup3\n      add\n      swap2\n      pop\n      pop\n      swap1\n      pop\n    tag_470:\n      pop\n        /* \"contracts/Pool/PoolPig.sol\":30261:30301  address[] memory path = new address[](2) */\n      swap1\n      pop\n        /* \"contracts/Pool/PoolPig.sol\":30329:30333  this */\n      address\n        /* \"contracts/Pool/PoolPig.sol\":30311:30315  path */\n      dup2\n        /* \"contracts/Pool/PoolPig.sol\":30316:30317  0 */\n      0x00\n        /* \"contracts/Pool/PoolPig.sol\":30311:30318  path[0] */\n      dup2\n      mload\n      dup2\n      lt\n      tag_471\n      jumpi\n      invalid\n    tag_471:\n      0x20\n      mul\n      0x20\n      add\n      add\n        /* \"contracts/Pool/PoolPig.sol\":30311:30334  path[0] = address(this) */\n      swap1\n      0xffffffffffffffffffffffffffffffffffffffff\n      and\n      swap1\n      dup2\n      0xffffffffffffffffffffffffffffffffffffffff\n      and\n      dup2\n      mstore\n      pop\n      pop\n        /* \"contracts/Pool/PoolPig.sol\":30354:30369  uniswapV2Router */\n      immutable(\"0xdfbf0bb877c2c5ca067d8597311506e24b894aa65a6fe980502f7e7b5c70fa94\")\n        /* \"contracts/Pool/PoolPig.sol\":30354:30374  uniswapV2Router.WETH */\n      0xffffffffffffffffffffffffffffffffffffffff\n      and\n      0xad5c4648\n        /* \"contracts/Pool/PoolPig.sol\":30354:30376  uniswapV2Router.WETH() */\n      mload(0x40)\n      dup2\n      0xffffffff\n      and\n      0xe0\n      shl\n      dup2\n      mstore\n      0x04\n      add\n      0x20\n      mload(0x40)\n      dup1\n      dup4\n      sub\n      dup2\n      dup7\n      dup1\n      extcodesize\n      iszero\n      dup1\n      iszero\n      tag_472\n      jumpi\n      0x00\n      dup1\n      revert\n    tag_472:\n      pop\n      gas\n      staticcall\n      iszero\n      dup1\n      iszero\n      tag_474\n      jumpi\n      returndatasize\n      0x00\n      dup1\n      returndatacopy\n      revert(0x00, returndatasize)\n    tag_474:\n      pop\n      pop\n      pop\n      pop\n      mload(0x40)\n      returndatasize\n      0x20\n      dup2\n      lt\n      iszero\n      tag_475\n      jumpi\n      0x00\n      dup1\n      revert\n    tag_475:\n      dup2\n      add\n      swap1\n      dup1\n      dup1\n      mload\n      swap1\n      0x20\n      add\n      swap1\n      swap3\n      swap2\n      swap1\n      pop\n      pop\n      pop\n        /* \"contracts/Pool/PoolPig.sol\":30344:30348  path */\n      dup2\n        /* \"contracts/Pool/PoolPig.sol\":30349:30350  1 */\n      0x01\n        /* \"contracts/Pool/PoolPig.sol\":30344:30351  path[1] */\n      dup2\n      mload\n      dup2\n      lt\n      tag_476\n      jumpi\n      invalid\n    tag_476:\n      0x20\n      mul\n      0x20\n      add\n      add\n        /* \"contracts/Pool/PoolPig.sol\":30344:30376  path[1] = uniswapV2Router.WETH() */\n      swap1\n      0xffffffffffffffffffffffffffffffffffffffff\n      and\n      swap1\n      dup2\n      0xffffffffffffffffffffffffffffffffffffffff\n      and\n      dup2\n      mstore\n      pop\n      pop\n        /* \"contracts/Pool/PoolPig.sol\":30387:30449  _approve(address(this), address(uniswapV2Router), tokenAmount) */\n      tag_477\n        /* \"contracts/Pool/PoolPig.sol\":30404:30408  this */\n      address\n        /* \"contracts/Pool/PoolPig.sol\":30419:30434  uniswapV2Router */\n      immutable(\"0xdfbf0bb877c2c5ca067d8597311506e24b894aa65a6fe980502f7e7b5c70fa94\")\n        /* \"contracts/Pool/PoolPig.sol\":30437:30448  tokenAmount */\n      dup5\n        /* \"contracts/Pool/PoolPig.sol\":30387:30395  _approve */\n      tag_200\n        /* \"contracts/Pool/PoolPig.sol\":30387:30449  _approve(address(this), address(uniswapV2Router), tokenAmount) */\n      jump\t// in\n    tag_477:\n        /* \"contracts/Pool/PoolPig.sol\":30485:30500  uniswapV2Router */\n      immutable(\"0xdfbf0bb877c2c5ca067d8597311506e24b894aa65a6fe980502f7e7b5c70fa94\")\n        /* \"contracts/Pool/PoolPig.sol\":30485:30551  uniswapV2Router.swapExactTokensForETHSupportingFeeOnTransferTokens */\n      0xffffffffffffffffffffffffffffffffffffffff\n      and\n      0x791ac947\n        /* \"contracts/Pool/PoolPig.sol\":30565:30576  tokenAmount */\n      dup4\n        /* \"contracts/Pool/PoolPig.sol\":30590:30591  0 */\n      0x00\n        /* \"contracts/Pool/PoolPig.sol\":30633:30637  path */\n      dup5\n        /* \"contracts/Pool/PoolPig.sol\":30659:30663  this */\n      address\n        /* \"contracts/Pool/PoolPig.sol\":30678:30693  block.timestamp */\n      timestamp\n        /* \"contracts/Pool/PoolPig.sol\":30485:30703  uniswapV2Router.swapExactTokensForETHSupportingFeeOnTransferTokens(... */\n      mload(0x40)\n      dup7\n      0xffffffff\n      and\n      0xe0\n      shl\n      dup2\n      mstore\n      0x04\n      add\n      dup1\n      dup7\n      dup2\n      mstore\n      0x20\n      add\n      dup6\n      dup2\n      mstore\n      0x20\n      add\n      dup1\n      0x20\n      add\n      dup5\n      0xffffffffffffffffffffffffffffffffffffffff\n      and\n      dup2\n      mstore\n      0x20\n      add\n      dup4\n      dup2\n      mstore\n      0x20\n      add\n      dup3\n      dup2\n      sub\n      dup3\n      mstore\n      dup6\n      dup2\n      dup2\n      mload\n      dup2\n      mstore\n      0x20\n      add\n      swap2\n      pop\n      dup1\n      mload\n      swap1\n      0x20\n      add\n      swap1\n      0x20\n      mul\n      dup1\n      dup4\n      dup4\n      0x00\n    tag_478:\n      dup4\n      dup2\n      lt\n      iszero\n      tag_480\n      jumpi\n      dup1\n      dup3\n      add\n      mload\n      dup2\n      dup5\n      add\n      mstore\n      0x20\n      dup2\n      add\n      swap1\n      pop\n      jump(tag_478)\n    tag_480:\n      pop\n      pop\n      pop\n      pop\n      swap1\n      pop\n      add\n      swap7\n      pop\n      pop\n      pop\n      pop\n      pop\n      pop\n      pop\n      0x00\n      mload(0x40)\n      dup1\n      dup4\n      sub\n      dup2\n      0x00\n      dup8\n      dup1\n      extcodesize\n      iszero\n      dup1\n      iszero\n      tag_481\n      jumpi\n      0x00\n      dup1\n      revert\n    tag_481:\n      pop\n      gas\n      call\n      iszero\n      dup1\n      iszero\n      tag_483\n      jumpi\n      returndatasize\n      0x00\n      dup1\n      returndatacopy\n      revert(0x00, returndatasize)\n    tag_483:\n      pop\n      pop\n      pop\n      pop\n        /* \"contracts/Pool/PoolPig.sol\":30137:30710  function swapTokensForEth(uint256 tokenAmount) private {... */\n      pop\n      pop\n      jump\t// out\n        /* \"contracts/Pool/PoolPig.sol\":30716:31216  function addLiquidity(uint256 tokenAmount, uint256 ethAmount) private {... */\n    tag_401:\n        /* \"contracts/Pool/PoolPig.sol\":30862:30924  _approve(address(this), address(uniswapV2Router), tokenAmount) */\n      tag_485\n        /* \"contracts/Pool/PoolPig.sol\":30879:30883  this */\n      address\n        /* \"contracts/Pool/PoolPig.sol\":30894:30909  uniswapV2Router */\n      immutable(\"0xdfbf0bb877c2c5ca067d8597311506e24b894aa65a6fe980502f7e7b5c70fa94\")\n        /* \"contracts/Pool/PoolPig.sol\":30912:30923  tokenAmount */\n      dup5\n        /* \"contracts/Pool/PoolPig.sol\":30862:30870  _approve */\n      tag_200\n        /* \"contracts/Pool/PoolPig.sol\":30862:30924  _approve(address(this), address(uniswapV2Router), tokenAmount) */\n      jump\t// in\n    tag_485:\n        /* \"contracts/Pool/PoolPig.sol\":30964:30979  uniswapV2Router */\n      immutable(\"0xdfbf0bb877c2c5ca067d8597311506e24b894aa65a6fe980502f7e7b5c70fa94\")\n        /* \"contracts/Pool/PoolPig.sol\":30964:30995  uniswapV2Router.addLiquidityETH */\n      0xffffffffffffffffffffffffffffffffffffffff\n      and\n      0xf305d719\n        /* \"contracts/Pool/PoolPig.sol\":31003:31012  ethAmount */\n      dup3\n        /* \"contracts/Pool/PoolPig.sol\":31035:31039  this */\n      address\n        /* \"contracts/Pool/PoolPig.sol\":31054:31065  tokenAmount */\n      dup6\n        /* \"contracts/Pool/PoolPig.sol\":31079:31080  0 */\n      0x00\n        /* \"contracts/Pool/PoolPig.sol\":31121:31122  0 */\n      dup1\n        /* \"contracts/Pool/PoolPig.sol\":31163:31170  owner() */\n      tag_486\n        /* \"contracts/Pool/PoolPig.sol\":31163:31168  owner */\n      tag_144\n        /* \"contracts/Pool/PoolPig.sol\":31163:31170  owner() */\n      jump\t// in\n    tag_486:\n        /* \"contracts/Pool/PoolPig.sol\":31184:31199  block.timestamp */\n      timestamp\n        /* \"contracts/Pool/PoolPig.sol\":30964:31209  uniswapV2Router.addLiquidityETH{value: ethAmount}(... */\n      mload(0x40)\n      dup9\n      0xffffffff\n      and\n      0xe0\n      shl\n      dup2\n      mstore\n      0x04\n      add\n      dup1\n      dup8\n      0xffffffffffffffffffffffffffffffffffffffff\n      and\n      dup2\n      mstore\n      0x20\n      add\n      dup7\n      dup2\n      mstore\n      0x20\n      add\n      dup6\n      dup2\n      mstore\n      0x20\n      add\n      dup5\n      dup2\n      mstore\n      0x20\n      add\n      dup4\n      0xffffffffffffffffffffffffffffffffffffffff\n      and\n      dup2\n      mstore\n      0x20\n      add\n      dup3\n      dup2\n      mstore\n      0x20\n      add\n      swap7\n      pop\n      pop\n      pop\n      pop\n      pop\n      pop\n      pop\n      0x60\n      mload(0x40)\n      dup1\n      dup4\n      sub\n      dup2\n      dup6\n      dup9\n      dup1\n      extcodesize\n      iszero\n      dup1\n      iszero\n      tag_487\n      jumpi\n      0x00\n      dup1\n      revert\n    tag_487:\n      pop\n      gas\n      call\n      iszero\n      dup1\n      iszero\n      tag_489\n      jumpi\n      returndatasize\n      0x00\n      dup1\n      returndatacopy\n      revert(0x00, returndatasize)\n    tag_489:\n      pop\n      pop\n      pop\n      pop\n      pop\n      mload(0x40)\n      returndatasize\n      0x60\n      dup2\n      lt\n      iszero\n      tag_490\n      jumpi\n      0x00\n      dup1\n      revert\n    tag_490:\n      dup2\n      add\n      swap1\n      dup1\n      dup1\n      mload\n      swap1\n      0x20\n      add\n      swap1\n      swap3\n      swap2\n      swap1\n      dup1\n      mload\n      swap1\n      0x20\n      add\n      swap1\n      swap3\n      swap2\n      swap1\n      dup1\n      mload\n      swap1\n      0x20\n      add\n      swap1\n      swap3\n      swap2\n      swap1\n      pop\n      pop\n      pop\n      pop\n      pop\n      pop\n        /* \"contracts/Pool/PoolPig.sol\":30716:31216  function addLiquidity(uint256 tokenAmount, uint256 ethAmount) private {... */\n      pop\n      pop\n      jump\t// out\n        /* \"contracts/Pool/PoolPig.sol\":26821:27063  function removeAllFee() private {... */\n    tag_405:\n        /* \"contracts/Pool/PoolPig.sol\":26877:26878  0 */\n      0x00\n        /* \"contracts/Pool/PoolPig.sol\":26866:26873  _taxFee */\n      sload(0x11)\n        /* \"contracts/Pool/PoolPig.sol\":26866:26878  _taxFee == 0 */\n      eq\n        /* \"contracts/Pool/PoolPig.sol\":26866:26900  _taxFee == 0 && _liquidityFee == 0 */\n      dup1\n      iszero\n      tag_492\n      jumpi\n      pop\n        /* \"contracts/Pool/PoolPig.sol\":26899:26900  0 */\n      0x00\n        /* \"contracts/Pool/PoolPig.sol\":26882:26895  _liquidityFee */\n      sload(0x13)\n        /* \"contracts/Pool/PoolPig.sol\":26882:26900  _liquidityFee == 0 */\n      eq\n        /* \"contracts/Pool/PoolPig.sol\":26866:26900  _taxFee == 0 && _liquidityFee == 0 */\n    tag_492:\n        /* \"contracts/Pool/PoolPig.sol\":26863:26909  if(_taxFee == 0 && _liquidityFee == 0) return; */\n      iszero\n      tag_493\n      jumpi\n        /* \"contracts/Pool/PoolPig.sol\":26902:26909  return; */\n      jump(tag_491)\n        /* \"contracts/Pool/PoolPig.sol\":26863:26909  if(_taxFee == 0 && _liquidityFee == 0) return; */\n    tag_493:\n        /* \"contracts/Pool/PoolPig.sol\":26945:26952  _taxFee */\n      sload(0x11)\n        /* \"contracts/Pool/PoolPig.sol\":26927:26942  _previousTaxFee */\n      0x12\n        /* \"contracts/Pool/PoolPig.sol\":26927:26952  _previousTaxFee = _taxFee */\n      dup2\n      swap1\n      sstore\n      pop\n        /* \"contracts/Pool/PoolPig.sol\":26986:26999  _liquidityFee */\n      sload(0x13)\n        /* \"contracts/Pool/PoolPig.sol\":26962:26983  _previousLiquidityFee */\n      0x14\n        /* \"contracts/Pool/PoolPig.sol\":26962:26999  _previousLiquidityFee = _liquidityFee */\n      dup2\n      swap1\n      sstore\n      pop\n        /* \"contracts/Pool/PoolPig.sol\":27028:27029  0 */\n      0x00\n        /* \"contracts/Pool/PoolPig.sol\":27018:27025  _taxFee */\n      0x11\n        /* \"contracts/Pool/PoolPig.sol\":27018:27029  _taxFee = 0 */\n      dup2\n      swap1\n      sstore\n      pop\n        /* \"contracts/Pool/PoolPig.sol\":27055:27056  0 */\n      0x00\n        /* \"contracts/Pool/PoolPig.sol\":27039:27052  _liquidityFee */\n      0x13\n        /* \"contracts/Pool/PoolPig.sol\":27039:27056  _liquidityFee = 0 */\n      dup2\n      swap1\n      sstore\n      pop\n        /* \"contracts/Pool/PoolPig.sol\":26821:27063  function removeAllFee() private {... */\n    tag_491:\n      jump\t// out\n        /* \"contracts/Pool/PoolPig.sol\":33201:33759  function _transferFromExcluded(address sender, address recipient, uint256 tAmount) private {... */\n    tag_409:\n        /* \"contracts/Pool/PoolPig.sol\":33303:33318  uint256 rAmount */\n      0x00\n        /* \"contracts/Pool/PoolPig.sol\":33320:33343  uint256 rTransferAmount */\n      dup1\n        /* \"contracts/Pool/PoolPig.sol\":33345:33357  uint256 rFee */\n      0x00\n        /* \"contracts/Pool/PoolPig.sol\":33359:33382  uint256 tTransferAmount */\n      dup1\n        /* \"contracts/Pool/PoolPig.sol\":33384:33396  uint256 tFee */\n      0x00\n        /* \"contracts/Pool/PoolPig.sol\":33398:33416  uint256 tLiquidity */\n      dup1\n        /* \"contracts/Pool/PoolPig.sol\":33420:33439  _getValues(tAmount) */\n      tag_495\n        /* \"contracts/Pool/PoolPig.sol\":33431:33438  tAmount */\n      dup8\n        /* \"contracts/Pool/PoolPig.sol\":33420:33430  _getValues */\n      tag_263\n        /* \"contracts/Pool/PoolPig.sol\":33420:33439  _getValues(tAmount) */\n      jump\t// in\n    tag_495:\n        /* \"contracts/Pool/PoolPig.sol\":33302:33439  (uint256 rAmount, uint256 rTransferAmount, uint256 rFee, uint256 tTransferAmount, uint256 tFee, uint256 tLiquidity) = _getValues(tAmount) */\n      swap6\n      pop\n      swap6\n      pop\n      swap6\n      pop\n      swap6\n      pop\n      swap6\n      pop\n      swap6\n      pop\n        /* \"contracts/Pool/PoolPig.sol\":33467:33495  _tOwned[sender].sub(tAmount) */\n      tag_496\n        /* \"contracts/Pool/PoolPig.sol\":33487:33494  tAmount */\n      dup8\n        /* \"contracts/Pool/PoolPig.sol\":33467:33474  _tOwned */\n      0x04\n        /* \"contracts/Pool/PoolPig.sol\":33467:33482  _tOwned[sender] */\n      0x00\n        /* \"contracts/Pool/PoolPig.sol\":33475:33481  sender */\n      dup13\n        /* \"contracts/Pool/PoolPig.sol\":33467:33482  _tOwned[sender] */\n      0xffffffffffffffffffffffffffffffffffffffff\n      and\n      0xffffffffffffffffffffffffffffffffffffffff\n      and\n      dup2\n      mstore\n      0x20\n      add\n      swap1\n      dup2\n      mstore\n      0x20\n      add\n      0x00\n      keccak256\n      sload\n        /* \"contracts/Pool/PoolPig.sol\":33467:33486  _tOwned[sender].sub */\n      tag_265\n      swap1\n        /* \"contracts/Pool/PoolPig.sol\":33467:33495  _tOwned[sender].sub(tAmount) */\n      swap2\n      swap1\n      0xffffffff\n      and\n      jump\t// in\n    tag_496:\n        /* \"contracts/Pool/PoolPig.sol\":33449:33456  _tOwned */\n      0x04\n        /* \"contracts/Pool/PoolPig.sol\":33449:33464  _tOwned[sender] */\n      0x00\n        /* \"contracts/Pool/PoolPig.sol\":33457:33463  sender */\n      dup12\n        /* \"contracts/Pool/PoolPig.sol\":33449:33464  _tOwned[sender] */\n      0xffffffffffffffffffffffffffffffffffffffff\n      and\n      0xffffffffffffffffffffffffffffffffffffffff\n      and\n      dup2\n      mstore\n      0x20\n      add\n      swap1\n      dup2\n      mstore\n      0x20\n      add\n      0x00\n      keccak256\n        /* \"contracts/Pool/PoolPig.sol\":33449:33495  _tOwned[sender] = _tOwned[sender].sub(tAmount) */\n      dup2\n      swap1\n      sstore\n      pop\n        /* \"contracts/Pool/PoolPig.sol\":33523:33551  _rOwned[sender].sub(rAmount) */\n      tag_497\n        /* \"contracts/Pool/PoolPig.sol\":33543:33550  rAmount */\n      dup7\n        /* \"contracts/Pool/PoolPig.sol\":33523:33530  _rOwned */\n      0x03\n        /* \"contracts/Pool/PoolPig.sol\":33523:33538  _rOwned[sender] */\n      0x00\n        /* \"contracts/Pool/PoolPig.sol\":33531:33537  sender */\n      dup13\n        /* \"contracts/Pool/PoolPig.sol\":33523:33538  _rOwned[sender] */\n      0xffffffffffffffffffffffffffffffffffffffff\n      and\n      0xffffffffffffffffffffffffffffffffffffffff\n      and\n      dup2\n      mstore\n      0x20\n      add\n      swap1\n      dup2\n      mstore\n      0x20\n      add\n      0x00\n      keccak256\n      sload\n        /* \"contracts/Pool/PoolPig.sol\":33523:33542  _rOwned[sender].sub */\n      tag_265\n      swap1\n        /* \"contracts/Pool/PoolPig.sol\":33523:33551  _rOwned[sender].sub(rAmount) */\n      swap2\n      swap1\n      0xffffffff\n      and\n      jump\t// in\n    tag_497:\n        /* \"contracts/Pool/PoolPig.sol\":33505:33512  _rOwned */\n      0x03\n        /* \"contracts/Pool/PoolPig.sol\":33505:33520  _rOwned[sender] */\n      0x00\n        /* \"contracts/Pool/PoolPig.sol\":33513:33519  sender */\n      dup12\n        /* \"contracts/Pool/PoolPig.sol\":33505:33520  _rOwned[sender] */\n      0xffffffffffffffffffffffffffffffffffffffff\n      and\n      0xffffffffffffffffffffffffffffffffffffffff\n      and\n      dup2\n      mstore\n      0x20\n      add\n      swap1\n      dup2\n      mstore\n      0x20\n      add\n      0x00\n      keccak256\n        /* \"contracts/Pool/PoolPig.sol\":33505:33551  _rOwned[sender] = _rOwned[sender].sub(rAmount) */\n      dup2\n      swap1\n      sstore\n      pop\n        /* \"contracts/Pool/PoolPig.sol\":33582:33621  _rOwned[recipient].add(rTransferAmount) */\n      tag_498\n        /* \"contracts/Pool/PoolPig.sol\":33605:33620  rTransferAmount */\n      dup6\n        /* \"contracts/Pool/PoolPig.sol\":33582:33589  _rOwned */\n      0x03\n        /* \"contracts/Pool/PoolPig.sol\":33582:33600  _rOwned[recipient] */\n      0x00\n        /* \"contracts/Pool/PoolPig.sol\":33590:33599  recipient */\n      dup12\n        /* \"contracts/Pool/PoolPig.sol\":33582:33600  _rOwned[recipient] */\n      0xffffffffffffffffffffffffffffffffffffffff\n      and\n      0xffffffffffffffffffffffffffffffffffffffff\n      and\n      dup2\n      mstore\n      0x20\n      add\n      swap1\n      dup2\n      mstore\n      0x20\n      add\n      0x00\n      keccak256\n      sload\n        /* \"contracts/Pool/PoolPig.sol\":33582:33604  _rOwned[recipient].add */\n      tag_258\n      swap1\n        /* \"contracts/Pool/PoolPig.sol\":33582:33621  _rOwned[recipient].add(rTransferAmount) */\n      swap2\n      swap1\n      0xffffffff\n      and\n      jump\t// in\n    tag_498:\n        /* \"contracts/Pool/PoolPig.sol\":33561:33568  _rOwned */\n      0x03\n        /* \"contracts/Pool/PoolPig.sol\":33561:33579  _rOwned[recipient] */\n      0x00\n        /* \"contracts/Pool/PoolPig.sol\":33569:33578  recipient */\n      dup11\n        /* \"contracts/Pool/PoolPig.sol\":33561:33579  _rOwned[recipient] */\n      0xffffffffffffffffffffffffffffffffffffffff\n      and\n      0xffffffffffffffffffffffffffffffffffffffff\n      and\n      dup2\n      mstore\n      0x20\n      add\n      swap1\n      dup2\n      mstore\n      0x20\n      add\n      0x00\n      keccak256\n        /* \"contracts/Pool/PoolPig.sol\":33561:33621  _rOwned[recipient] = _rOwned[recipient].add(rTransferAmount) */\n      dup2\n      swap1\n      sstore\n      pop\n        /* \"contracts/Pool/PoolPig.sol\":33634:33660  _takeLiquidity(tLiquidity) */\n      tag_499\n        /* \"contracts/Pool/PoolPig.sol\":33649:33659  tLiquidity */\n      dup2\n        /* \"contracts/Pool/PoolPig.sol\":33634:33648  _takeLiquidity */\n      tag_500\n        /* \"contracts/Pool/PoolPig.sol\":33634:33660  _takeLiquidity(tLiquidity) */\n      jump\t// in\n    tag_499:\n        /* \"contracts/Pool/PoolPig.sol\":33670:33693  _reflectFee(rFee, tFee) */\n      tag_501\n        /* \"contracts/Pool/PoolPig.sol\":33682:33686  rFee */\n      dup5\n        /* \"contracts/Pool/PoolPig.sol\":33688:33692  tFee */\n      dup4\n        /* \"contracts/Pool/PoolPig.sol\":33670:33681  _reflectFee */\n      tag_502\n        /* \"contracts/Pool/PoolPig.sol\":33670:33693  _reflectFee(rFee, tFee) */\n      jump\t// in\n    tag_501:\n        /* \"contracts/Pool/PoolPig.sol\":33725:33734  recipient */\n      dup8\n        /* \"contracts/Pool/PoolPig.sol\":33708:33752  Transfer(sender, recipient, tTransferAmount) */\n      0xffffffffffffffffffffffffffffffffffffffff\n      and\n        /* \"contracts/Pool/PoolPig.sol\":33717:33723  sender */\n      dup10\n        /* \"contracts/Pool/PoolPig.sol\":33708:33752  Transfer(sender, recipient, tTransferAmount) */\n      0xffffffffffffffffffffffffffffffffffffffff\n      and\n      0xddf252ad1be2c89b69c2b068fc378daa952ba7f163c4a11628f55a4df523b3ef\n        /* \"contracts/Pool/PoolPig.sol\":33736:33751  tTransferAmount */\n      dup6\n        /* \"contracts/Pool/PoolPig.sol\":33708:33752  Transfer(sender, recipient, tTransferAmount) */\n      mload(0x40)\n      dup1\n      dup3\n      dup2\n      mstore\n      0x20\n      add\n      swap2\n      pop\n      pop\n      mload(0x40)\n      dup1\n      swap2\n      sub\n      swap1\n      log3\n        /* \"contracts/Pool/PoolPig.sol\":33201:33759  function _transferFromExcluded(address sender, address recipient, uint256 tAmount) private {... */\n      pop\n      pop\n      pop\n      pop\n      pop\n      pop\n      pop\n      pop\n      pop\n      jump\t// out\n        /* \"contracts/Pool/PoolPig.sol\":32617:33195  function _transferToExcluded(address sender, address recipient, uint256 tAmount) private {... */\n    tag_414:\n        /* \"contracts/Pool/PoolPig.sol\":32717:32732  uint256 rAmount */\n      0x00\n        /* \"contracts/Pool/PoolPig.sol\":32734:32757  uint256 rTransferAmount */\n      dup1\n        /* \"contracts/Pool/PoolPig.sol\":32759:32771  uint256 rFee */\n      0x00\n        /* \"contracts/Pool/PoolPig.sol\":32773:32796  uint256 tTransferAmount */\n      dup1\n        /* \"contracts/Pool/PoolPig.sol\":32798:32810  uint256 tFee */\n      0x00\n        /* \"contracts/Pool/PoolPig.sol\":32812:32830  uint256 tLiquidity */\n      dup1\n        /* \"contracts/Pool/PoolPig.sol\":32834:32853  _getValues(tAmount) */\n      tag_504\n        /* \"contracts/Pool/PoolPig.sol\":32845:32852  tAmount */\n      dup8\n        /* \"contracts/Pool/PoolPig.sol\":32834:32844  _getValues */\n      tag_263\n        /* \"contracts/Pool/PoolPig.sol\":32834:32853  _getValues(tAmount) */\n      jump\t// in\n    tag_504:\n        /* \"contracts/Pool/PoolPig.sol\":32716:32853  (uint256 rAmount, uint256 rTransferAmount, uint256 rFee, uint256 tTransferAmount, uint256 tFee, uint256 tLiquidity) = _getValues(tAmount) */\n      swap6\n      pop\n      swap6\n      pop\n      swap6\n      pop\n      swap6\n      pop\n      swap6\n      pop\n      swap6\n      pop\n        /* \"contracts/Pool/PoolPig.sol\":32881:32909  _rOwned[sender].sub(rAmount) */\n      tag_505\n        /* \"contracts/Pool/PoolPig.sol\":32901:32908  rAmount */\n      dup7\n        /* \"contracts/Pool/PoolPig.sol\":32881:32888  _rOwned */\n      0x03\n        /* \"contracts/Pool/PoolPig.sol\":32881:32896  _rOwned[sender] */\n      0x00\n        /* \"contracts/Pool/PoolPig.sol\":32889:32895  sender */\n      dup13\n        /* \"contracts/Pool/PoolPig.sol\":32881:32896  _rOwned[sender] */\n      0xffffffffffffffffffffffffffffffffffffffff\n      and\n      0xffffffffffffffffffffffffffffffffffffffff\n      and\n      dup2\n      mstore\n      0x20\n      add\n      swap1\n      dup2\n      mstore\n      0x20\n      add\n      0x00\n      keccak256\n      sload\n        /* \"contracts/Pool/PoolPig.sol\":32881:32900  _rOwned[sender].sub */\n      tag_265\n      swap1\n        /* \"contracts/Pool/PoolPig.sol\":32881:32909  _rOwned[sender].sub(rAmount) */\n      swap2\n      swap1\n      0xffffffff\n      and\n      jump\t// in\n    tag_505:\n        /* \"contracts/Pool/PoolPig.sol\":32863:32870  _rOwned */\n      0x03\n        /* \"contracts/Pool/PoolPig.sol\":32863:32878  _rOwned[sender] */\n      0x00\n        /* \"contracts/Pool/PoolPig.sol\":32871:32877  sender */\n      dup12\n        /* \"contracts/Pool/PoolPig.sol\":32863:32878  _rOwned[sender] */\n      0xffffffffffffffffffffffffffffffffffffffff\n      and\n      0xffffffffffffffffffffffffffffffffffffffff\n      and\n      dup2\n      mstore\n      0x20\n      add\n      swap1\n      dup2\n      mstore\n      0x20\n      add\n      0x00\n      keccak256\n        /* \"contracts/Pool/PoolPig.sol\":32863:32909  _rOwned[sender] = _rOwned[sender].sub(rAmount) */\n      dup2\n      swap1\n      sstore\n      pop\n        /* \"contracts/Pool/PoolPig.sol\":32940:32979  _tOwned[recipient].add(tTransferAmount) */\n      tag_506\n        /* \"contracts/Pool/PoolPig.sol\":32963:32978  tTransferAmount */\n      dup4\n        /* \"contracts/Pool/PoolPig.sol\":32940:32947  _tOwned */\n      0x04\n        /* \"contracts/Pool/PoolPig.sol\":32940:32958  _tOwned[recipient] */\n      0x00\n        /* \"contracts/Pool/PoolPig.sol\":32948:32957  recipient */\n      dup12\n        /* \"contracts/Pool/PoolPig.sol\":32940:32958  _tOwned[recipient] */\n      0xffffffffffffffffffffffffffffffffffffffff\n      and\n      0xffffffffffffffffffffffffffffffffffffffff\n      and\n      dup2\n      mstore\n      0x20\n      add\n      swap1\n      dup2\n      mstore\n      0x20\n      add\n      0x00\n      keccak256\n      sload\n        /* \"contracts/Pool/PoolPig.sol\":32940:32962  _tOwned[recipient].add */\n      tag_258\n      swap1\n        /* \"contracts/Pool/PoolPig.sol\":32940:32979  _tOwned[recipient].add(tTransferAmount) */\n      swap2\n      swap1\n      0xffffffff\n      and\n      jump\t// in\n    tag_506:\n        /* \"contracts/Pool/PoolPig.sol\":32919:32926  _tOwned */\n      0x04\n        /* \"contracts/Pool/PoolPig.sol\":32919:32937  _tOwned[recipient] */\n      0x00\n        /* \"contracts/Pool/PoolPig.sol\":32927:32936  recipient */\n      dup11\n        /* \"contracts/Pool/PoolPig.sol\":32919:32937  _tOwned[recipient] */\n      0xffffffffffffffffffffffffffffffffffffffff\n      and\n      0xffffffffffffffffffffffffffffffffffffffff\n      and\n      dup2\n      mstore\n      0x20\n      add\n      swap1\n      dup2\n      mstore\n      0x20\n      add\n      0x00\n      keccak256\n        /* \"contracts/Pool/PoolPig.sol\":32919:32979  _tOwned[recipient] = _tOwned[recipient].add(tTransferAmount) */\n      dup2\n      swap1\n      sstore\n      pop\n        /* \"contracts/Pool/PoolPig.sol\":33010:33049  _rOwned[recipient].add(rTransferAmount) */\n      tag_507\n        /* \"contracts/Pool/PoolPig.sol\":33033:33048  rTransferAmount */\n      dup6\n        /* \"contracts/Pool/PoolPig.sol\":33010:33017  _rOwned */\n      0x03\n        /* \"contracts/Pool/PoolPig.sol\":33010:33028  _rOwned[recipient] */\n      0x00\n        /* \"contracts/Pool/PoolPig.sol\":33018:33027  recipient */\n      dup12\n        /* \"contracts/Pool/PoolPig.sol\":33010:33028  _rOwned[recipient] */\n      0xffffffffffffffffffffffffffffffffffffffff\n      and\n      0xffffffffffffffffffffffffffffffffffffffff\n      and\n      dup2\n      mstore\n      0x20\n      add\n      swap1\n      dup2\n      mstore\n      0x20\n      add\n      0x00\n      keccak256\n      sload\n        /* \"contracts/Pool/PoolPig.sol\":33010:33032  _rOwned[recipient].add */\n      tag_258\n      swap1\n        /* \"contracts/Pool/PoolPig.sol\":33010:33049  _rOwned[recipient].add(rTransferAmount) */\n      swap2\n      swap1\n      0xffffffff\n      and\n      jump\t// in\n    tag_507:\n        /* \"contracts/Pool/PoolPig.sol\":32989:32996  _rOwned */\n      0x03\n        /* \"contracts/Pool/PoolPig.sol\":32989:33007  _rOwned[recipient] */\n      0x00\n        /* \"contracts/Pool/PoolPig.sol\":32997:33006  recipient */\n      dup11\n        /* \"contracts/Pool/PoolPig.sol\":32989:33007  _rOwned[recipient] */\n      0xffffffffffffffffffffffffffffffffffffffff\n      and\n      0xffffffffffffffffffffffffffffffffffffffff\n      and\n      dup2\n      mstore\n      0x20\n      add\n      swap1\n      dup2\n      mstore\n      0x20\n      add\n      0x00\n      keccak256\n        /* \"contracts/Pool/PoolPig.sol\":32989:33049  _rOwned[recipient] = _rOwned[recipient].add(rTransferAmount) */\n      dup2\n      swap1\n      sstore\n      pop\n        /* \"contracts/Pool/PoolPig.sol\":33070:33096  _takeLiquidity(tLiquidity) */\n      tag_508\n        /* \"contracts/Pool/PoolPig.sol\":33085:33095  tLiquidity */\n      dup2\n        /* \"contracts/Pool/PoolPig.sol\":33070:33084  _takeLiquidity */\n      tag_500\n        /* \"contracts/Pool/PoolPig.sol\":33070:33096  _takeLiquidity(tLiquidity) */\n      jump\t// in\n    tag_508:\n        /* \"contracts/Pool/PoolPig.sol\":33106:33129  _reflectFee(rFee, tFee) */\n      tag_509\n        /* \"contracts/Pool/PoolPig.sol\":33118:33122  rFee */\n      dup5\n        /* \"contracts/Pool/PoolPig.sol\":33124:33128  tFee */\n      dup4\n        /* \"contracts/Pool/PoolPig.sol\":33106:33117  _reflectFee */\n      tag_502\n        /* \"contracts/Pool/PoolPig.sol\":33106:33129  _reflectFee(rFee, tFee) */\n      jump\t// in\n    tag_509:\n        /* \"contracts/Pool/PoolPig.sol\":33161:33170  recipient */\n      dup8\n        /* \"contracts/Pool/PoolPig.sol\":33144:33188  Transfer(sender, recipient, tTransferAmount) */\n      0xffffffffffffffffffffffffffffffffffffffff\n      and\n        /* \"contracts/Pool/PoolPig.sol\":33153:33159  sender */\n      dup10\n        /* \"contracts/Pool/PoolPig.sol\":33144:33188  Transfer(sender, recipient, tTransferAmount) */\n      0xffffffffffffffffffffffffffffffffffffffff\n      and\n      0xddf252ad1be2c89b69c2b068fc378daa952ba7f163c4a11628f55a4df523b3ef\n        /* \"contracts/Pool/PoolPig.sol\":33172:33187  tTransferAmount */\n      dup6\n        /* \"contracts/Pool/PoolPig.sol\":33144:33188  Transfer(sender, recipient, tTransferAmount) */\n      mload(0x40)\n      dup1\n      dup3\n      dup2\n      mstore\n      0x20\n      add\n      swap2\n      pop\n      pop\n      mload(0x40)\n      dup1\n      swap2\n      sub\n      swap1\n      log3\n        /* \"contracts/Pool/PoolPig.sol\":32617:33195  function _transferToExcluded(address sender, address recipient, uint256 tAmount) private {... */\n      pop\n      pop\n      pop\n      pop\n      pop\n      pop\n      pop\n      pop\n      pop\n      jump\t// out\n        /* \"contracts/Pool/PoolPig.sol\":32116:32611  function _transferStandard(address sender, address recipient, uint256 tAmount) private {... */\n    tag_419:\n        /* \"contracts/Pool/PoolPig.sol\":32214:32229  uint256 rAmount */\n      0x00\n        /* \"contracts/Pool/PoolPig.sol\":32231:32254  uint256 rTransferAmount */\n      dup1\n        /* \"contracts/Pool/PoolPig.sol\":32256:32268  uint256 rFee */\n      0x00\n        /* \"contracts/Pool/PoolPig.sol\":32270:32293  uint256 tTransferAmount */\n      dup1\n        /* \"contracts/Pool/PoolPig.sol\":32295:32307  uint256 tFee */\n      0x00\n        /* \"contracts/Pool/PoolPig.sol\":32309:32327  uint256 tLiquidity */\n      dup1\n        /* \"contracts/Pool/PoolPig.sol\":32331:32350  _getValues(tAmount) */\n      tag_511\n        /* \"contracts/Pool/PoolPig.sol\":32342:32349  tAmount */\n      dup8\n        /* \"contracts/Pool/PoolPig.sol\":32331:32341  _getValues */\n      tag_263\n        /* \"contracts/Pool/PoolPig.sol\":32331:32350  _getValues(tAmount) */\n      jump\t// in\n    tag_511:\n        /* \"contracts/Pool/PoolPig.sol\":32213:32350  (uint256 rAmount, uint256 rTransferAmount, uint256 rFee, uint256 tTransferAmount, uint256 tFee, uint256 tLiquidity) = _getValues(tAmount) */\n      swap6\n      pop\n      swap6\n      pop\n      swap6\n      pop\n      swap6\n      pop\n      swap6\n      pop\n      swap6\n      pop\n        /* \"contracts/Pool/PoolPig.sol\":32378:32406  _rOwned[sender].sub(rAmount) */\n      tag_512\n        /* \"contracts/Pool/PoolPig.sol\":32398:32405  rAmount */\n      dup7\n        /* \"contracts/Pool/PoolPig.sol\":32378:32385  _rOwned */\n      0x03\n        /* \"contracts/Pool/PoolPig.sol\":32378:32393  _rOwned[sender] */\n      0x00\n        /* \"contracts/Pool/PoolPig.sol\":32386:32392  sender */\n      dup13\n        /* \"contracts/Pool/PoolPig.sol\":32378:32393  _rOwned[sender] */\n      0xffffffffffffffffffffffffffffffffffffffff\n      and\n      0xffffffffffffffffffffffffffffffffffffffff\n      and\n      dup2\n      mstore\n      0x20\n      add\n      swap1\n      dup2\n      mstore\n      0x20\n      add\n      0x00\n      keccak256\n      sload\n        /* \"contracts/Pool/PoolPig.sol\":32378:32397  _rOwned[sender].sub */\n      tag_265\n      swap1\n        /* \"contracts/Pool/PoolPig.sol\":32378:32406  _rOwned[sender].sub(rAmount) */\n      swap2\n      swap1\n      0xffffffff\n      and\n      jump\t// in\n    tag_512:\n        /* \"contracts/Pool/PoolPig.sol\":32360:32367  _rOwned */\n      0x03\n        /* \"contracts/Pool/PoolPig.sol\":32360:32375  _rOwned[sender] */\n      0x00\n        /* \"contracts/Pool/PoolPig.sol\":32368:32374  sender */\n      dup12\n        /* \"contracts/Pool/PoolPig.sol\":32360:32375  _rOwned[sender] */\n      0xffffffffffffffffffffffffffffffffffffffff\n      and\n      0xffffffffffffffffffffffffffffffffffffffff\n      and\n      dup2\n      mstore\n      0x20\n      add\n      swap1\n      dup2\n      mstore\n      0x20\n      add\n      0x00\n      keccak256\n        /* \"contracts/Pool/PoolPig.sol\":32360:32406  _rOwned[sender] = _rOwned[sender].sub(rAmount) */\n      dup2\n      swap1\n      sstore\n      pop\n        /* \"contracts/Pool/PoolPig.sol\":32437:32476  _rOwned[recipient].add(rTransferAmount) */\n      tag_513\n        /* \"contracts/Pool/PoolPig.sol\":32460:32475  rTransferAmount */\n      dup6\n        /* \"contracts/Pool/PoolPig.sol\":32437:32444  _rOwned */\n      0x03\n        /* \"contracts/Pool/PoolPig.sol\":32437:32455  _rOwned[recipient] */\n      0x00\n        /* \"contracts/Pool/PoolPig.sol\":32445:32454  recipient */\n      dup12\n        /* \"contracts/Pool/PoolPig.sol\":32437:32455  _rOwned[recipient] */\n      0xffffffffffffffffffffffffffffffffffffffff\n      and\n      0xffffffffffffffffffffffffffffffffffffffff\n      and\n      dup2\n      mstore\n      0x20\n      add\n      swap1\n      dup2\n      mstore\n      0x20\n      add\n      0x00\n      keccak256\n      sload\n        /* \"contracts/Pool/PoolPig.sol\":32437:32459  _rOwned[recipient].add */\n      tag_258\n      swap1\n        /* \"contracts/Pool/PoolPig.sol\":32437:32476  _rOwned[recipient].add(rTransferAmount) */\n      swap2\n      swap1\n      0xffffffff\n      and\n      jump\t// in\n    tag_513:\n        /* \"contracts/Pool/PoolPig.sol\":32416:32423  _rOwned */\n      0x03\n        /* \"contracts/Pool/PoolPig.sol\":32416:32434  _rOwned[recipient] */\n      0x00\n        /* \"contracts/Pool/PoolPig.sol\":32424:32433  recipient */\n      dup11\n        /* \"contracts/Pool/PoolPig.sol\":32416:32434  _rOwned[recipient] */\n      0xffffffffffffffffffffffffffffffffffffffff\n      and\n      0xffffffffffffffffffffffffffffffffffffffff\n      and\n      dup2\n      mstore\n      0x20\n      add\n      swap1\n      dup2\n      mstore\n      0x20\n      add\n      0x00\n      keccak256\n        /* \"contracts/Pool/PoolPig.sol\":32416:32476  _rOwned[recipient] = _rOwned[recipient].add(rTransferAmount) */\n      dup2\n      swap1\n      sstore\n      pop\n        /* \"contracts/Pool/PoolPig.sol\":32486:32512  _takeLiquidity(tLiquidity) */\n      tag_514\n        /* \"contracts/Pool/PoolPig.sol\":32501:32511  tLiquidity */\n      dup2\n        /* \"contracts/Pool/PoolPig.sol\":32486:32500  _takeLiquidity */\n      tag_500\n        /* \"contracts/Pool/PoolPig.sol\":32486:32512  _takeLiquidity(tLiquidity) */\n      jump\t// in\n    tag_514:\n        /* \"contracts/Pool/PoolPig.sol\":32522:32545  _reflectFee(rFee, tFee) */\n      tag_515\n        /* \"contracts/Pool/PoolPig.sol\":32534:32538  rFee */\n      dup5\n        /* \"contracts/Pool/PoolPig.sol\":32540:32544  tFee */\n      dup4\n        /* \"contracts/Pool/PoolPig.sol\":32522:32533  _reflectFee */\n      tag_502\n        /* \"contracts/Pool/PoolPig.sol\":32522:32545  _reflectFee(rFee, tFee) */\n      jump\t// in\n    tag_515:\n        /* \"contracts/Pool/PoolPig.sol\":32577:32586  recipient */\n      dup8\n        /* \"contracts/Pool/PoolPig.sol\":32560:32604  Transfer(sender, recipient, tTransferAmount) */\n      0xffffffffffffffffffffffffffffffffffffffff\n      and\n        /* \"contracts/Pool/PoolPig.sol\":32569:32575  sender */\n      dup10\n        /* \"contracts/Pool/PoolPig.sol\":32560:32604  Transfer(sender, recipient, tTransferAmount) */\n      0xffffffffffffffffffffffffffffffffffffffff\n      and\n      0xddf252ad1be2c89b69c2b068fc378daa952ba7f163c4a11628f55a4df523b3ef\n        /* \"contracts/Pool/PoolPig.sol\":32588:32603  tTransferAmount */\n      dup6\n        /* \"contracts/Pool/PoolPig.sol\":32560:32604  Transfer(sender, recipient, tTransferAmount) */\n      mload(0x40)\n      dup1\n      dup3\n      dup2\n      mstore\n      0x20\n      add\n      swap2\n      pop\n      pop\n      mload(0x40)\n      dup1\n      swap2\n      sub\n      swap1\n      log3\n        /* \"contracts/Pool/PoolPig.sol\":32116:32611  function _transferStandard(address sender, address recipient, uint256 tAmount) private {... */\n      pop\n      pop\n      pop\n      pop\n      pop\n      pop\n      pop\n      pop\n      pop\n      jump\t// out\n        /* \"contracts/Pool/PoolPig.sol\":21907:22540  function _transferBothExcluded(address sender, address recipient, uint256 tAmount) private {... */\n    tag_424:\n        /* \"contracts/Pool/PoolPig.sol\":22009:22024  uint256 rAmount */\n      0x00\n        /* \"contracts/Pool/PoolPig.sol\":22026:22049  uint256 rTransferAmount */\n      dup1\n        /* \"contracts/Pool/PoolPig.sol\":22051:22063  uint256 rFee */\n      0x00\n        /* \"contracts/Pool/PoolPig.sol\":22065:22088  uint256 tTransferAmount */\n      dup1\n        /* \"contracts/Pool/PoolPig.sol\":22090:22102  uint256 tFee */\n      0x00\n        /* \"contracts/Pool/PoolPig.sol\":22104:22122  uint256 tLiquidity */\n      dup1\n        /* \"contracts/Pool/PoolPig.sol\":22126:22145  _getValues(tAmount) */\n      tag_517\n        /* \"contracts/Pool/PoolPig.sol\":22137:22144  tAmount */\n      dup8\n        /* \"contracts/Pool/PoolPig.sol\":22126:22136  _getValues */\n      tag_263\n        /* \"contracts/Pool/PoolPig.sol\":22126:22145  _getValues(tAmount) */\n      jump\t// in\n    tag_517:\n        /* \"contracts/Pool/PoolPig.sol\":22008:22145  (uint256 rAmount, uint256 rTransferAmount, uint256 rFee, uint256 tTransferAmount, uint256 tFee, uint256 tLiquidity) = _getValues(tAmount) */\n      swap6\n      pop\n      swap6\n      pop\n      swap6\n      pop\n      swap6\n      pop\n      swap6\n      pop\n      swap6\n      pop\n        /* \"contracts/Pool/PoolPig.sol\":22173:22201  _tOwned[sender].sub(tAmount) */\n      tag_518\n        /* \"contracts/Pool/PoolPig.sol\":22193:22200  tAmount */\n      dup8\n        /* \"contracts/Pool/PoolPig.sol\":22173:22180  _tOwned */\n      0x04\n        /* \"contracts/Pool/PoolPig.sol\":22173:22188  _tOwned[sender] */\n      0x00\n        /* \"contracts/Pool/PoolPig.sol\":22181:22187  sender */\n      dup13\n        /* \"contracts/Pool/PoolPig.sol\":22173:22188  _tOwned[sender] */\n      0xffffffffffffffffffffffffffffffffffffffff\n      and\n      0xffffffffffffffffffffffffffffffffffffffff\n      and\n      dup2\n      mstore\n      0x20\n      add\n      swap1\n      dup2\n      mstore\n      0x20\n      add\n      0x00\n      keccak256\n      sload\n        /* \"contracts/Pool/PoolPig.sol\":22173:22192  _tOwned[sender].sub */\n      tag_265\n      swap1\n        /* \"contracts/Pool/PoolPig.sol\":22173:22201  _tOwned[sender].sub(tAmount) */\n      swap2\n      swap1\n      0xffffffff\n      and\n      jump\t// in\n    tag_518:\n        /* \"contracts/Pool/PoolPig.sol\":22155:22162  _tOwned */\n      0x04\n        /* \"contracts/Pool/PoolPig.sol\":22155:22170  _tOwned[sender] */\n      0x00\n        /* \"contracts/Pool/PoolPig.sol\":22163:22169  sender */\n      dup12\n        /* \"contracts/Pool/PoolPig.sol\":22155:22170  _tOwned[sender] */\n      0xffffffffffffffffffffffffffffffffffffffff\n      and\n      0xffffffffffffffffffffffffffffffffffffffff\n      and\n      dup2\n      mstore\n      0x20\n      add\n      swap1\n      dup2\n      mstore\n      0x20\n      add\n      0x00\n      keccak256\n        /* \"contracts/Pool/PoolPig.sol\":22155:22201  _tOwned[sender] = _tOwned[sender].sub(tAmount) */\n      dup2\n      swap1\n      sstore\n      pop\n        /* \"contracts/Pool/PoolPig.sol\":22229:22257  _rOwned[sender].sub(rAmount) */\n      tag_519\n        /* \"contracts/Pool/PoolPig.sol\":22249:22256  rAmount */\n      dup7\n        /* \"contracts/Pool/PoolPig.sol\":22229:22236  _rOwned */\n      0x03\n        /* \"contracts/Pool/PoolPig.sol\":22229:22244  _rOwned[sender] */\n      0x00\n        /* \"contracts/Pool/PoolPig.sol\":22237:22243  sender */\n      dup13\n        /* \"contracts/Pool/PoolPig.sol\":22229:22244  _rOwned[sender] */\n      0xffffffffffffffffffffffffffffffffffffffff\n      and\n      0xffffffffffffffffffffffffffffffffffffffff\n      and\n      dup2\n      mstore\n      0x20\n      add\n      swap1\n      dup2\n      mstore\n      0x20\n      add\n      0x00\n      keccak256\n      sload\n        /* \"contracts/Pool/PoolPig.sol\":22229:22248  _rOwned[sender].sub */\n      tag_265\n      swap1\n        /* \"contracts/Pool/PoolPig.sol\":22229:22257  _rOwned[sender].sub(rAmount) */\n      swap2\n      swap1\n      0xffffffff\n      and\n      jump\t// in\n    tag_519:\n        /* \"contracts/Pool/PoolPig.sol\":22211:22218  _rOwned */\n      0x03\n        /* \"contracts/Pool/PoolPig.sol\":22211:22226  _rOwned[sender] */\n      0x00\n        /* \"contracts/Pool/PoolPig.sol\":22219:22225  sender */\n      dup12\n        /* \"contracts/Pool/PoolPig.sol\":22211:22226  _rOwned[sender] */\n      0xffffffffffffffffffffffffffffffffffffffff\n      and\n      0xffffffffffffffffffffffffffffffffffffffff\n      and\n      dup2\n      mstore\n      0x20\n      add\n      swap1\n      dup2\n      mstore\n      0x20\n      add\n      0x00\n      keccak256\n        /* \"contracts/Pool/PoolPig.sol\":22211:22257  _rOwned[sender] = _rOwned[sender].sub(rAmount) */\n      dup2\n      swap1\n      sstore\n      pop\n        /* \"contracts/Pool/PoolPig.sol\":22288:22327  _tOwned[recipient].add(tTransferAmount) */\n      tag_520\n        /* \"contracts/Pool/PoolPig.sol\":22311:22326  tTransferAmount */\n      dup4\n        /* \"contracts/Pool/PoolPig.sol\":22288:22295  _tOwned */\n      0x04\n        /* \"contracts/Pool/PoolPig.sol\":22288:22306  _tOwned[recipient] */\n      0x00\n        /* \"contracts/Pool/PoolPig.sol\":22296:22305  recipient */\n      dup12\n        /* \"contracts/Pool/PoolPig.sol\":22288:22306  _tOwned[recipient] */\n      0xffffffffffffffffffffffffffffffffffffffff\n      and\n      0xffffffffffffffffffffffffffffffffffffffff\n      and\n      dup2\n      mstore\n      0x20\n      add\n      swap1\n      dup2\n      mstore\n      0x20\n      add\n      0x00\n      keccak256\n      sload\n        /* \"contracts/Pool/PoolPig.sol\":22288:22310  _tOwned[recipient].add */\n      tag_258\n      swap1\n        /* \"contracts/Pool/PoolPig.sol\":22288:22327  _tOwned[recipient].add(tTransferAmount) */\n      swap2\n      swap1\n      0xffffffff\n      and\n      jump\t// in\n    tag_520:\n        /* \"contracts/Pool/PoolPig.sol\":22267:22274  _tOwned */\n      0x04\n        /* \"contracts/Pool/PoolPig.sol\":22267:22285  _tOwned[recipient] */\n      0x00\n        /* \"contracts/Pool/PoolPig.sol\":22275:22284  recipient */\n      dup11\n        /* \"contracts/Pool/PoolPig.sol\":22267:22285  _tOwned[recipient] */\n      0xffffffffffffffffffffffffffffffffffffffff\n      and\n      0xffffffffffffffffffffffffffffffffffffffff\n      and\n      dup2\n      mstore\n      0x20\n      add\n      swap1\n      dup2\n      mstore\n      0x20\n      add\n      0x00\n      keccak256\n        /* \"contracts/Pool/PoolPig.sol\":22267:22327  _tOwned[recipient] = _tOwned[recipient].add(tTransferAmount) */\n      dup2\n      swap1\n      sstore\n      pop\n        /* \"contracts/Pool/PoolPig.sol\":22358:22397  _rOwned[recipient].add(rTransferAmount) */\n      tag_521\n        /* \"contracts/Pool/PoolPig.sol\":22381:22396  rTransferAmount */\n      dup6\n        /* \"contracts/Pool/PoolPig.sol\":22358:22365  _rOwned */\n      0x03\n        /* \"contracts/Pool/PoolPig.sol\":22358:22376  _rOwned[recipient] */\n      0x00\n        /* \"contracts/Pool/PoolPig.sol\":22366:22375  recipient */\n      dup12\n        /* \"contracts/Pool/PoolPig.sol\":22358:22376  _rOwned[recipient] */\n      0xffffffffffffffffffffffffffffffffffffffff\n      and\n      0xffffffffffffffffffffffffffffffffffffffff\n      and\n      dup2\n      mstore\n      0x20\n      add\n      swap1\n      dup2\n      mstore\n      0x20\n      add\n      0x00\n      keccak256\n      sload\n        /* \"contracts/Pool/PoolPig.sol\":22358:22380  _rOwned[recipient].add */\n      tag_258\n      swap1\n        /* \"contracts/Pool/PoolPig.sol\":22358:22397  _rOwned[recipient].add(rTransferAmount) */\n      swap2\n      swap1\n      0xffffffff\n      and\n      jump\t// in\n    tag_521:\n        /* \"contracts/Pool/PoolPig.sol\":22337:22344  _rOwned */\n      0x03\n        /* \"contracts/Pool/PoolPig.sol\":22337:22355  _rOwned[recipient] */\n      0x00\n        /* \"contracts/Pool/PoolPig.sol\":22345:22354  recipient */\n      dup11\n        /* \"contracts/Pool/PoolPig.sol\":22337:22355  _rOwned[recipient] */\n      0xffffffffffffffffffffffffffffffffffffffff\n      and\n      0xffffffffffffffffffffffffffffffffffffffff\n      and\n      dup2\n      mstore\n      0x20\n      add\n      swap1\n      dup2\n      mstore\n      0x20\n      add\n      0x00\n      keccak256\n        /* \"contracts/Pool/PoolPig.sol\":22337:22397  _rOwned[recipient] = _rOwned[recipient].add(rTransferAmount) */\n      dup2\n      swap1\n      sstore\n      pop\n        /* \"contracts/Pool/PoolPig.sol\":22415:22441  _takeLiquidity(tLiquidity) */\n      tag_522\n        /* \"contracts/Pool/PoolPig.sol\":22430:22440  tLiquidity */\n      dup2\n        /* \"contracts/Pool/PoolPig.sol\":22415:22429  _takeLiquidity */\n      tag_500\n        /* \"contracts/Pool/PoolPig.sol\":22415:22441  _takeLiquidity(tLiquidity) */\n      jump\t// in\n    tag_522:\n        /* \"contracts/Pool/PoolPig.sol\":22451:22474  _reflectFee(rFee, tFee) */\n      tag_523\n        /* \"contracts/Pool/PoolPig.sol\":22463:22467  rFee */\n      dup5\n        /* \"contracts/Pool/PoolPig.sol\":22469:22473  tFee */\n      dup4\n        /* \"contracts/Pool/PoolPig.sol\":22451:22462  _reflectFee */\n      tag_502\n        /* \"contracts/Pool/PoolPig.sol\":22451:22474  _reflectFee(rFee, tFee) */\n      jump\t// in\n    tag_523:\n        /* \"contracts/Pool/PoolPig.sol\":22506:22515  recipient */\n      dup8\n        /* \"contracts/Pool/PoolPig.sol\":22489:22533  Transfer(sender, recipient, tTransferAmount) */\n      0xffffffffffffffffffffffffffffffffffffffff\n      and\n        /* \"contracts/Pool/PoolPig.sol\":22498:22504  sender */\n      dup10\n        /* \"contracts/Pool/PoolPig.sol\":22489:22533  Transfer(sender, recipient, tTransferAmount) */\n      0xffffffffffffffffffffffffffffffffffffffff\n      and\n      0xddf252ad1be2c89b69c2b068fc378daa952ba7f163c4a11628f55a4df523b3ef\n        /* \"contracts/Pool/PoolPig.sol\":22517:22532  tTransferAmount */\n      dup6\n        /* \"contracts/Pool/PoolPig.sol\":22489:22533  Transfer(sender, recipient, tTransferAmount) */\n      mload(0x40)\n      dup1\n      dup3\n      dup2\n      mstore\n      0x20\n      add\n      swap2\n      pop\n      pop\n      mload(0x40)\n      dup1\n      swap2\n      sub\n      swap1\n      log3\n        /* \"contracts/Pool/PoolPig.sol\":21907:22540  function _transferBothExcluded(address sender, address recipient, uint256 tAmount) private {... */\n      pop\n      pop\n      pop\n      pop\n      pop\n      pop\n      pop\n      pop\n      pop\n      jump\t// out\n        /* \"contracts/Pool/PoolPig.sol\":27073:27195  function restoreAllFee() private {... */\n    tag_429:\n        /* \"contracts/Pool/PoolPig.sol\":27126:27141  _previousTaxFee */\n      sload(0x12)\n        /* \"contracts/Pool/PoolPig.sol\":27116:27123  _taxFee */\n      0x11\n        /* \"contracts/Pool/PoolPig.sol\":27116:27141  _taxFee = _previousTaxFee */\n      dup2\n      swap1\n      sstore\n      pop\n        /* \"contracts/Pool/PoolPig.sol\":27167:27188  _previousLiquidityFee */\n      sload(0x14)\n        /* \"contracts/Pool/PoolPig.sol\":27151:27164  _liquidityFee */\n      0x13\n        /* \"contracts/Pool/PoolPig.sol\":27151:27188  _liquidityFee = _previousLiquidityFee */\n      dup2\n      swap1\n      sstore\n      pop\n        /* \"contracts/Pool/PoolPig.sol\":27073:27195  function restoreAllFee() private {... */\n      jump\t// out\n        /* \"contracts/Pool/PoolPig.sol\":26493:26643  function calculateTaxFee(uint256 _amount) private view returns (uint256) {... */\n    tag_457:\n        /* \"contracts/Pool/PoolPig.sol\":26557:26564  uint256 */\n      0x00\n        /* \"contracts/Pool/PoolPig.sol\":26583:26636  _amount.mul(_taxFee).div(... */\n      tag_526\n        /* \"contracts/Pool/PoolPig.sol\":26621:26626  10**2 */\n      0x64\n        /* \"contracts/Pool/PoolPig.sol\":26583:26603  _amount.mul(_taxFee) */\n      tag_527\n        /* \"contracts/Pool/PoolPig.sol\":26595:26602  _taxFee */\n      sload(0x11)\n        /* \"contracts/Pool/PoolPig.sol\":26583:26590  _amount */\n      dup6\n        /* \"contracts/Pool/PoolPig.sol\":26583:26594  _amount.mul */\n      tag_326\n      swap1\n        /* \"contracts/Pool/PoolPig.sol\":26583:26603  _amount.mul(_taxFee) */\n      swap2\n      swap1\n      0xffffffff\n      and\n      jump\t// in\n    tag_527:\n        /* \"contracts/Pool/PoolPig.sol\":26583:26607  _amount.mul(_taxFee).div */\n      tag_234\n      swap1\n        /* \"contracts/Pool/PoolPig.sol\":26583:26636  _amount.mul(_taxFee).div(... */\n      swap2\n      swap1\n      0xffffffff\n      and\n      jump\t// in\n    tag_526:\n        /* \"contracts/Pool/PoolPig.sol\":26576:26636  return _amount.mul(_taxFee).div(... */\n      swap1\n      pop\n        /* \"contracts/Pool/PoolPig.sol\":26493:26643  function calculateTaxFee(uint256 _amount) private view returns (uint256) {... */\n      swap2\n      swap1\n      pop\n      jump\t// out\n        /* \"contracts/Pool/PoolPig.sol\":26649:26811  function calculateLiquidityFee(uint256 _amount) private view returns (uint256) {... */\n    tag_459:\n        /* \"contracts/Pool/PoolPig.sol\":26719:26726  uint256 */\n      0x00\n        /* \"contracts/Pool/PoolPig.sol\":26745:26804  _amount.mul(_liquidityFee).div(... */\n      tag_529\n        /* \"contracts/Pool/PoolPig.sol\":26789:26794  10**2 */\n      0x64\n        /* \"contracts/Pool/PoolPig.sol\":26745:26771  _amount.mul(_liquidityFee) */\n      tag_530\n        /* \"contracts/Pool/PoolPig.sol\":26757:26770  _liquidityFee */\n      sload(0x13)\n        /* \"contracts/Pool/PoolPig.sol\":26745:26752  _amount */\n      dup6\n        /* \"contracts/Pool/PoolPig.sol\":26745:26756  _amount.mul */\n      tag_326\n      swap1\n        /* \"contracts/Pool/PoolPig.sol\":26745:26771  _amount.mul(_liquidityFee) */\n      swap2\n      swap1\n      0xffffffff\n      and\n      jump\t// in\n    tag_530:\n        /* \"contracts/Pool/PoolPig.sol\":26745:26775  _amount.mul(_liquidityFee).div */\n      tag_234\n      swap1\n        /* \"contracts/Pool/PoolPig.sol\":26745:26804  _amount.mul(_liquidityFee).div(... */\n      swap2\n      swap1\n      0xffffffff\n      and\n      jump\t// in\n    tag_529:\n        /* \"contracts/Pool/PoolPig.sol\":26738:26804  return _amount.mul(_liquidityFee).div(... */\n      swap1\n      pop\n        /* \"contracts/Pool/PoolPig.sol\":26649:26811  function calculateLiquidityFee(uint256 _amount) private view returns (uint256) {... */\n      swap2\n      swap1\n      pop\n      jump\t// out\n        /* \"contracts/Pool/PoolPig.sol\":26134:26483  function _takeLiquidity(uint256 tLiquidity) private {... */\n    tag_500:\n        /* \"contracts/Pool/PoolPig.sol\":26196:26215  uint256 currentRate */\n      0x00\n        /* \"contracts/Pool/PoolPig.sol\":26219:26229  _getRate() */\n      tag_532\n        /* \"contracts/Pool/PoolPig.sol\":26219:26227  _getRate */\n      tag_232\n        /* \"contracts/Pool/PoolPig.sol\":26219:26229  _getRate() */\n      jump\t// in\n    tag_532:\n        /* \"contracts/Pool/PoolPig.sol\":26196:26229  uint256 currentRate =  _getRate() */\n      swap1\n      pop\n        /* \"contracts/Pool/PoolPig.sol\":26239:26257  uint256 rLiquidity */\n      0x00\n        /* \"contracts/Pool/PoolPig.sol\":26260:26287  tLiquidity.mul(currentRate) */\n      tag_533\n        /* \"contracts/Pool/PoolPig.sol\":26275:26286  currentRate */\n      dup3\n        /* \"contracts/Pool/PoolPig.sol\":26260:26270  tLiquidity */\n      dup5\n        /* \"contracts/Pool/PoolPig.sol\":26260:26274  tLiquidity.mul */\n      tag_326\n      swap1\n        /* \"contracts/Pool/PoolPig.sol\":26260:26287  tLiquidity.mul(currentRate) */\n      swap2\n      swap1\n      0xffffffff\n      and\n      jump\t// in\n    tag_533:\n        /* \"contracts/Pool/PoolPig.sol\":26239:26287  uint256 rLiquidity = tLiquidity.mul(currentRate) */\n      swap1\n      pop\n        /* \"contracts/Pool/PoolPig.sol\":26322:26360  _rOwned[address(this)].add(rLiquidity) */\n      tag_534\n        /* \"contracts/Pool/PoolPig.sol\":26349:26359  rLiquidity */\n      dup2\n        /* \"contracts/Pool/PoolPig.sol\":26322:26329  _rOwned */\n      0x03\n        /* \"contracts/Pool/PoolPig.sol\":26322:26344  _rOwned[address(this)] */\n      0x00\n        /* \"contracts/Pool/PoolPig.sol\":26338:26342  this */\n      address\n        /* \"contracts/Pool/PoolPig.sol\":26322:26344  _rOwned[address(this)] */\n      0xffffffffffffffffffffffffffffffffffffffff\n      and\n      0xffffffffffffffffffffffffffffffffffffffff\n      and\n      dup2\n      mstore\n      0x20\n      add\n      swap1\n      dup2\n      mstore\n      0x20\n      add\n      0x00\n      keccak256\n      sload\n        /* \"contracts/Pool/PoolPig.sol\":26322:26348  _rOwned[address(this)].add */\n      tag_258\n      swap1\n        /* \"contracts/Pool/PoolPig.sol\":26322:26360  _rOwned[address(this)].add(rLiquidity) */\n      swap2\n      swap1\n      0xffffffff\n      and\n      jump\t// in\n    tag_534:\n        /* \"contracts/Pool/PoolPig.sol\":26297:26304  _rOwned */\n      0x03\n        /* \"contracts/Pool/PoolPig.sol\":26297:26319  _rOwned[address(this)] */\n      0x00\n        /* \"contracts/Pool/PoolPig.sol\":26313:26317  this */\n      address\n        /* \"contracts/Pool/PoolPig.sol\":26297:26319  _rOwned[address(this)] */\n      0xffffffffffffffffffffffffffffffffffffffff\n      and\n      0xffffffffffffffffffffffffffffffffffffffff\n      and\n      dup2\n      mstore\n      0x20\n      add\n      swap1\n      dup2\n      mstore\n      0x20\n      add\n      0x00\n      keccak256\n        /* \"contracts/Pool/PoolPig.sol\":26297:26360  _rOwned[address(this)] = _rOwned[address(this)].add(rLiquidity) */\n      dup2\n      swap1\n      sstore\n      pop\n        /* \"contracts/Pool/PoolPig.sol\":26373:26384  _isExcluded */\n      0x07\n        /* \"contracts/Pool/PoolPig.sol\":26373:26399  _isExcluded[address(this)] */\n      0x00\n        /* \"contracts/Pool/PoolPig.sol\":26393:26397  this */\n      address\n        /* \"contracts/Pool/PoolPig.sol\":26373:26399  _isExcluded[address(this)] */\n      0xffffffffffffffffffffffffffffffffffffffff\n      and\n      0xffffffffffffffffffffffffffffffffffffffff\n      and\n      dup2\n      mstore\n      0x20\n      add\n      swap1\n      dup2\n      mstore\n      0x20\n      add\n      0x00\n      keccak256\n      0x00\n      swap1\n      sload\n      swap1\n      0x0100\n      exp\n      swap1\n      div\n      0xff\n      and\n        /* \"contracts/Pool/PoolPig.sol\":26370:26476  if(_isExcluded[address(this)])... */\n      iszero\n      tag_535\n      jumpi\n        /* \"contracts/Pool/PoolPig.sol\":26438:26476  _tOwned[address(this)].add(tLiquidity) */\n      tag_536\n        /* \"contracts/Pool/PoolPig.sol\":26465:26475  tLiquidity */\n      dup4\n        /* \"contracts/Pool/PoolPig.sol\":26438:26445  _tOwned */\n      0x04\n        /* \"contracts/Pool/PoolPig.sol\":26438:26460  _tOwned[address(this)] */\n      0x00\n        /* \"contracts/Pool/PoolPig.sol\":26454:26458  this */\n      address\n        /* \"contracts/Pool/PoolPig.sol\":26438:26460  _tOwned[address(this)] */\n      0xffffffffffffffffffffffffffffffffffffffff\n      and\n      0xffffffffffffffffffffffffffffffffffffffff\n      and\n      dup2\n      mstore\n      0x20\n      add\n      swap1\n      dup2\n      mstore\n      0x20\n      add\n      0x00\n      keccak256\n      sload\n        /* \"contracts/Pool/PoolPig.sol\":26438:26464  _tOwned[address(this)].add */\n      tag_258\n      swap1\n        /* \"contracts/Pool/PoolPig.sol\":26438:26476  _tOwned[address(this)].add(tLiquidity) */\n      swap2\n      swap1\n      0xffffffff\n      and\n      jump\t// in\n    tag_536:\n        /* \"contracts/Pool/PoolPig.sol\":26413:26420  _tOwned */\n      0x04\n        /* \"contracts/Pool/PoolPig.sol\":26413:26435  _tOwned[address(this)] */\n      0x00\n        /* \"contracts/Pool/PoolPig.sol\":26429:26433  this */\n      address\n        /* \"contracts/Pool/PoolPig.sol\":26413:26435  _tOwned[address(this)] */\n      0xffffffffffffffffffffffffffffffffffffffff\n      and\n      0xffffffffffffffffffffffffffffffffffffffff\n      and\n      dup2\n      mstore\n      0x20\n      add\n      swap1\n      dup2\n      mstore\n      0x20\n      add\n      0x00\n      keccak256\n        /* \"contracts/Pool/PoolPig.sol\":26413:26476  _tOwned[address(this)] = _tOwned[address(this)].add(tLiquidity) */\n      dup2\n      swap1\n      sstore\n      pop\n        /* \"contracts/Pool/PoolPig.sol\":26370:26476  if(_isExcluded[address(this)])... */\n    tag_535:\n        /* \"contracts/Pool/PoolPig.sol\":26134:26483  function _takeLiquidity(uint256 tLiquidity) private {... */\n      pop\n      pop\n      pop\n      jump\t// out\n        /* \"contracts/Pool/PoolPig.sol\":24076:24220  function _reflectFee(uint256 rFee, uint256 tFee) private {... */\n    tag_502:\n        /* \"contracts/Pool/PoolPig.sol\":24153:24170  _rTotal.sub(rFee) */\n      tag_538\n        /* \"contracts/Pool/PoolPig.sol\":24165:24169  rFee */\n      dup3\n        /* \"contracts/Pool/PoolPig.sol\":24153:24160  _rTotal */\n      sload(0x0c)\n        /* \"contracts/Pool/PoolPig.sol\":24153:24164  _rTotal.sub */\n      tag_265\n      swap1\n        /* \"contracts/Pool/PoolPig.sol\":24153:24170  _rTotal.sub(rFee) */\n      swap2\n      swap1\n      0xffffffff\n      and\n      jump\t// in\n    tag_538:\n        /* \"contracts/Pool/PoolPig.sol\":24143:24150  _rTotal */\n      0x0c\n        /* \"contracts/Pool/PoolPig.sol\":24143:24170  _rTotal = _rTotal.sub(rFee) */\n      dup2\n      swap1\n      sstore\n      pop\n        /* \"contracts/Pool/PoolPig.sol\":24193:24213  _tFeeTotal.add(tFee) */\n      tag_539\n        /* \"contracts/Pool/PoolPig.sol\":24208:24212  tFee */\n      dup2\n        /* \"contracts/Pool/PoolPig.sol\":24193:24203  _tFeeTotal */\n      sload(0x0d)\n        /* \"contracts/Pool/PoolPig.sol\":24193:24207  _tFeeTotal.add */\n      tag_258\n      swap1\n        /* \"contracts/Pool/PoolPig.sol\":24193:24213  _tFeeTotal.add(tFee) */\n      swap2\n      swap1\n      0xffffffff\n      and\n      jump\t// in\n    tag_539:\n        /* \"contracts/Pool/PoolPig.sol\":24180:24190  _tFeeTotal */\n      0x0d\n        /* \"contracts/Pool/PoolPig.sol\":24180:24213  _tFeeTotal = _tFeeTotal.add(tFee) */\n      dup2\n      swap1\n      sstore\n      pop\n        /* \"contracts/Pool/PoolPig.sol\":24076:24220  function _reflectFee(uint256 rFee, uint256 tFee) private {... */\n      pop\n      pop\n      jump\t// out\n    stop\n    data_0557e210f7a69a685100a7e4e3d0a7024c546085cee28910fd17d0b081d9516f 45524332303a207472616e7366657220746f20746865207a65726f2061646472657373\n    data_22f7af55a509c3b14f0d528f087748dec8a8bf425135e3f5dc28c6a31ec6d812 416d6f756e74206d757374206265206c657373207468616e20746f74616c207265666c656374696f6e73\n    data_245f15ff17f551913a7a18385165551503906a406f905ac1c2437281a7cd0cfe 4f776e61626c653a206e6577206f776e657220697320746865207a65726f2061646472657373\n    data_24883cc5fe64ace9d0df1893501ecb93c77180f0ff69cca79affb3c316dc8029 45524332303a20617070726f766520746f20746865207a65726f2061646472657373\n    data_72052210969ce5fd88e52b5e685de9548acef9bb1b6d02e29c1765d0674948dd 5472616e7366657220616d6f756e74206578636565647320746865206d61785478416d6f756e742e\n    data_9113bb53c2876a3805b2c9242029423fc540a728243ce887ab24c82cf119fba3 536166654d6174683a206d756c7469706c69636174696f6e206f766572666c6f77\n    data_974d1b4421da69cc60b481194f0dad36a5bb4e23da810da7a7fb30cdba178330 45524332303a207472616e7366657220616d6f756e74206578636565647320616c6c6f77616e6365\n    data_9edb5ab58321f35d2386ea65721c9b107daa2c273610fc16d394af2a320ba785 5472616e7366657220616d6f756e74206d7573742062652067726561746572207468616e207a65726f\n    data_baecc556b46f4ed0f2b4cb599d60785ac8563dd2dc0a5bf12edea1c39e5e1fea 45524332303a207472616e736665722066726f6d20746865207a65726f2061646472657373\n    data_c953f4879035ed60e766b34720f656aab5c697b141d924c283124ecedb91c208 45524332303a20617070726f76652066726f6d20746865207a65726f2061646472657373\n    data_ecefcaf5fbcf9ca6dcdb02298ba1da96f4ead317b0a4779917ecb2e5e7dc3ac4 4578636c75646564206164647265737365732063616e6e6f742063616c6c20746869732066756e6374696f6e\n    data_f4eb59be3df39931213d374c3658377dca3f0d2b46b7bc965af767c57c74b611 596f7520646f6e27742068617665207065726d697373696f6e20746f20756e6c6f636b\n    data_f8b476f7d28209d77d4a4ac1fe36b9f8259aa1bb6bddfa6e89de7e51615cf8a8 45524332303a2064656372656173656420616c6c6f77616e63652062656c6f77207a65726f\n\n    auxdata: 0xa26469706673582212203f6ee34869941b0c7b64cbad90fbed79a22ff3bda7dd54942fac8780cd85d1c464736f6c634300060c0033\n}\n",
				"bytecode": {
					"linkReferences": {},
					"object": "60c0604052738492cbd894686d7e98214541903c7ba6f94928d6600960006101000a81548173ffffffffffffffffffffffffffffffffffffffff021916908373ffffffffffffffffffffffffffffffffffffffff16021790555073a4ed7aa4ef5deb0a63e97d9cb77445ae553feb1d600a60006101000a81548173ffffffffffffffffffffffffffffffffffffffff021916908373ffffffffffffffffffffffffffffffffffffffff16021790555073e061915592536656a92b9fd59e46b19ef920692f600b60006101000a81548173ffffffffffffffffffffffffffffffffffffffff021916908373ffffffffffffffffffffffffffffffffffffffff160217905550670de0b6b3a7640000600019816200011757fe5b0660001903600c556040518060400160405280600a81526020017f576f726c64205374657000000000000000000000000000000000000000000000815250600e90805190602001906200016c92919062000807565b506040518060400160405280600381526020017f5753500000000000000000000000000000000000000000000000000000000000815250600f9080519060200190620001ba92919062000807565b506009601060006101000a81548160ff021916908360ff160217905550600260115560115460125560036013556013546014556001601560016101000a81548160ff0219169083151502179055506000601560026101000a81548160ff0219169083151502179055506706f05b59d3b200006016556703782dace9d900006017553480156200024857600080fd5b5060006200025b620007d660201b60201c565b9050806000806101000a81548173ffffffffffffffffffffffffffffffffffffffff021916908373ffffffffffffffffffffffffffffffffffffffff1602179055508073ffffffffffffffffffffffffffffffffffffffff16600073ffffffffffffffffffffffffffffffffffffffff167f8be0079c531659141344cd1fd0a4f28419497f9722a3daafe3b4186f6b6457e060405160405180910390a350600c546003600062000310620007d660201b60201c565b73ffffffffffffffffffffffffffffffffffffffff1673ffffffffffffffffffffffffffffffffffffffff168152602001908152602001600020819055506000739ac64cc6e4415144c455bd8e4837fea55603e5c390508073ffffffffffffffffffffffffffffffffffffffff1663c45a01556040518163ffffffff1660e01b815260040160206040518083038186803b158015620003ae57600080fd5b505afa158015620003c3573d6000803e3d6000fd5b505050506040513d6020811015620003da57600080fd5b810190808051906020019092919050505073ffffffffffffffffffffffffffffffffffffffff1663c9c65396308373ffffffffffffffffffffffffffffffffffffffff1663ad5c46486040518163ffffffff1660e01b815260040160206040518083038186803b1580156200044e57600080fd5b505afa15801562000463573d6000803e3d6000fd5b505050506040513d60208110156200047a57600080fd5b81019080805190602001909291905050506040518363ffffffff1660e01b8152600401808373ffffffffffffffffffffffffffffffffffffffff1681526020018273ffffffffffffffffffffffffffffffffffffffff16815260200192505050602060405180830381600087803b158015620004f557600080fd5b505af11580156200050a573d6000803e3d6000fd5b505050506040513d60208110156200052157600080fd5b810190808051906020019092919050505073ffffffffffffffffffffffffffffffffffffffff1660a08173ffffffffffffffffffffffffffffffffffffffff1660601b815250508073ffffffffffffffffffffffffffffffffffffffff1660808173ffffffffffffffffffffffffffffffffffffffff1660601b81525050600160066000620005b5620007de60201b60201c565b73ffffffffffffffffffffffffffffffffffffffff1673ffffffffffffffffffffffffffffffffffffffff16815260200190815260200160002060006101000a81548160ff0219169083151502179055506001600660003073ffffffffffffffffffffffffffffffffffffffff1673ffffffffffffffffffffffffffffffffffffffff16815260200190815260200160002060006101000a81548160ff021916908315150217905550600160066000600960009054906101000a900473ffffffffffffffffffffffffffffffffffffffff1673ffffffffffffffffffffffffffffffffffffffff1673ffffffffffffffffffffffffffffffffffffffff16815260200190815260200160002060006101000a81548160ff021916908315150217905550600160066000600a60009054906101000a900473ffffffffffffffffffffffffffffffffffffffff1673ffffffffffffffffffffffffffffffffffffffff1673ffffffffffffffffffffffffffffffffffffffff16815260200190815260200160002060006101000a81548160ff02191690831515021790555062000762620007d660201b60201c565b73ffffffffffffffffffffffffffffffffffffffff16600073ffffffffffffffffffffffffffffffffffffffff167fddf252ad1be2c89b69c2b068fc378daa952ba7f163c4a11628f55a4df523b3ef670de0b6b3a76400006040518082815260200191505060405180910390a350620008ad565b600033905090565b60008060009054906101000a900473ffffffffffffffffffffffffffffffffffffffff16905090565b828054600181600116156101000203166002900490600052602060002090601f016020900481019282601f106200084a57805160ff19168380011785556200087b565b828001600101855582156200087b579182015b828111156200087a5782518255916020019190600101906200085d565b5b5090506200088a91906200088e565b5090565b5b80821115620008a95760008160009055506001016200088f565b5090565b60805160601c60a05160601c6150e26200090460003980610e655280611acd528061323b525080610e385280610e8e52806111715280613f3f528061402b5280614052528061415d528061418452506150e26000f3fe6080604052600436106102295760003560e01c80635342acb411610123578063a457c2d7116100ab578063d543dbeb1161006f578063d543dbeb14610bcd578063dd46706414610c08578063dd62ed3e14610c43578063ea2f0b3714610cc8578063f2fde38b14610d1957610230565b8063a457c2d714610a6c578063a69df4b514610add578063a9059cbb14610af4578063b6c5232414610b65578063c49b9a8014610b9057610230565b80637d1db4a5116100f25780637d1db4a5146108ce57806388f82020146108f95780638da5cb5b146109605780638ee88c53146109a157806395d89b41146109dc57610230565b80635342acb4146107c05780636bc87c3a1461082757806370a0823114610852578063715018a6146108b757610230565b8063313ce567116101b1578063437823ec11610175578063437823ec146106555780634549b039146106a657806349bd5a5e146107015780634a74bb021461074257806352390c021461076f57610230565b8063313ce567146104ff5780633685d4191461052d578063395093511461057e5780633b124fe7146105ef5780633bd5d1731461061a57610230565b806313114a9d116101f857806313114a9d146103885780631694505e146103b357806318160ddd146103f457806323b872dd1461041f5780632d838119146104b057610230565b80630210a83d14610235578063061c82d01461024c57806306fdde0314610287578063095ea7b31461031757610230565b3661023057005b600080fd5b34801561024157600080fd5b5061024a610d6a565b005b34801561025857600080fd5b506102856004803603602081101561026f57600080fd5b8101908080359060200190929190505050610fd3565b005b34801561029357600080fd5b5061029c6110a5565b6040518080602001828103825283818151815260200191508051906020019080838360005b838110156102dc5780820151818401526020810190506102c1565b50505050905090810190601f1680156103095780820380516001836020036101000a031916815260200191505b509250505060405180910390f35b34801561032357600080fd5b506103706004803603604081101561033a57600080fd5b81019080803573ffffffffffffffffffffffffffffffffffffffff16906020019092919080359060200190929190505050611147565b60405180821515815260200191505060405180910390f35b34801561039457600080fd5b5061039d611165565b6040518082815260200191505060405180910390f35b3480156103bf57600080fd5b506103c861116f565b604051808273ffffffffffffffffffffffffffffffffffffffff16815260200191505060405180910390f35b34801561040057600080fd5b50610409611193565b6040518082815260200191505060405180910390f35b34801561042b57600080fd5b506104986004803603606081101561044257600080fd5b81019080803573ffffffffffffffffffffffffffffffffffffffff169060200190929190803573ffffffffffffffffffffffffffffffffffffffff169060200190929190803590602001909291905050506111a3565b60405180821515815260200191505060405180910390f35b3480156104bc57600080fd5b506104e9600480360360208110156104d357600080fd5b810190808035906020019092919050505061127c565b6040518082815260200191505060405180910390f35b34801561050b57600080fd5b50610514611300565b604051808260ff16815260200191505060405180910390f35b34801561053957600080fd5b5061057c6004803603602081101561055057600080fd5b81019080803573ffffffffffffffffffffffffffffffffffffffff169060200190929190505050611317565b005b34801561058a57600080fd5b506105d7600480360360408110156105a157600080fd5b81019080803573ffffffffffffffffffffffffffffffffffffffff169060200190929190803590602001909291905050506116a1565b60405180821515815260200191505060405180910390f35b3480156105fb57600080fd5b50610604611754565b6040518082815260200191505060405180910390f35b34801561062657600080fd5b506106536004803603602081101561063d57600080fd5b810190808035906020019092919050505061175a565b005b34801561066157600080fd5b506106a46004803603602081101561067857600080fd5b81019080803573ffffffffffffffffffffffffffffffffffffffff1690602001909291905050506118eb565b005b3480156106b257600080fd5b506106eb600480360360408110156106c957600080fd5b8101908080359060200190929190803515159060200190929190505050611a0e565b6040518082815260200191505060405180910390f35b34801561070d57600080fd5b50610716611acb565b604051808273ffffffffffffffffffffffffffffffffffffffff16815260200191505060405180910390f35b34801561074e57600080fd5b50610757611aef565b60405180821515815260200191505060405180910390f35b34801561077b57600080fd5b506107be6004803603602081101561079257600080fd5b81019080803573ffffffffffffffffffffffffffffffffffffffff169060200190929190505050611b02565b005b3480156107cc57600080fd5b5061080f600480360360208110156107e357600080fd5b81019080803573ffffffffffffffffffffffffffffffffffffffff169060200190929190505050611e1c565b60405180821515815260200191505060405180910390f35b34801561083357600080fd5b5061083c611e72565b6040518082815260200191505060405180910390f35b34801561085e57600080fd5b506108a16004803603602081101561087557600080fd5b81019080803573ffffffffffffffffffffffffffffffffffffffff169060200190929190505050611e78565b6040518082815260200191505060405180910390f35b3480156108c357600080fd5b506108cc611f63565b005b3480156108da57600080fd5b506108e36120e9565b6040518082815260200191505060405180910390f35b34801561090557600080fd5b506109486004803603602081101561091c57600080fd5b81019080803573ffffffffffffffffffffffffffffffffffffffff1690602001909291905050506120ef565b60405180821515815260200191505060405180910390f35b34801561096c57600080fd5b50610975612145565b604051808273ffffffffffffffffffffffffffffffffffffffff16815260200191505060405180910390f35b3480156109ad57600080fd5b506109da600480360360208110156109c457600080fd5b810190808035906020019092919050505061216e565b005b3480156109e857600080fd5b506109f1612240565b6040518080602001828103825283818151815260200191508051906020019080838360005b83811015610a31578082015181840152602081019050610a16565b50505050905090810190601f168015610a5e5780820380516001836020036101000a031916815260200191505b509250505060405180910390f35b348015610a7857600080fd5b50610ac560048036036040811015610a8f57600080fd5b81019080803573ffffffffffffffffffffffffffffffffffffffff169060200190929190803590602001909291905050506122e2565b60405180821515815260200191505060405180910390f35b348015610ae957600080fd5b50610af26123af565b005b348015610b0057600080fd5b50610b4d60048036036040811015610b1757600080fd5b81019080803573ffffffffffffffffffffffffffffffffffffffff169060200190929190803590602001909291905050506125cc565b60405180821515815260200191505060405180910390f35b348015610b7157600080fd5b50610b7a6125ea565b6040518082815260200191505060405180910390f35b348015610b9c57600080fd5b50610bcb60048036036020811015610bb357600080fd5b810190808035151590602001909291905050506125f4565b005b348015610bd957600080fd5b50610c0660048036036020811015610bf057600080fd5b8101908080359060200190929190505050612712565b005b348015610c1457600080fd5b50610c4160048036036020811015610c2b57600080fd5b8101908080359060200190929190505050612811565b005b348015610c4f57600080fd5b50610cb260048036036040811015610c6657600080fd5b81019080803573ffffffffffffffffffffffffffffffffffffffff169060200190929190803573ffffffffffffffffffffffffffffffffffffffff169060200190929190505050612a02565b6040518082815260200191505060405180910390f35b348015610cd457600080fd5b50610d1760048036036020811015610ceb57600080fd5b81019080803573ffffffffffffffffffffffffffffffffffffffff169060200190929190505050612a89565b005b348015610d2557600080fd5b50610d6860048036036020811015610d3c57600080fd5b81019080803573ffffffffffffffffffffffffffffffffffffffff169060200190929190505050612bac565b005b610d72612db7565b73ffffffffffffffffffffffffffffffffffffffff1660008054906101000a900473ffffffffffffffffffffffffffffffffffffffff1673ffffffffffffffffffffffffffffffffffffffff1614610e32576040517f08c379a00000000000000000000000000000000000000000000000000000000081526004018080602001828103825260208152602001807f4f776e61626c653a2063616c6c6572206973206e6f7420746865206f776e657281525060200191505060405180910390fd5b610e5f307f0000000000000000000000000000000000000000000000000000000000000000600019612dbf565b610e8c307f0000000000000000000000000000000000000000000000000000000000000000600019612dbf565b7f000000000000000000000000000000000000000000000000000000000000000073ffffffffffffffffffffffffffffffffffffffff1663f305d7194730610ed330611e78565b600080610ede612145565b426040518863ffffffff1660e01b8152600401808773ffffffffffffffffffffffffffffffffffffffff1681526020018681526020018581526020018481526020018373ffffffffffffffffffffffffffffffffffffffff16815260200182815260200196505050505050506060604051808303818588803b158015610f6357600080fd5b505af1158015610f77573d6000803e3d6000fd5b50505050506040513d6060811015610f8e57600080fd5b810190808051906020019092919080519060200190929190805190602001909291905050505050506001601560026101000a81548160ff021916908315150217905550565b610fdb612db7565b73ffffffffffffffffffffffffffffffffffffffff1660008054906101000a900473ffffffffffffffffffffffffffffffffffffffff1673ffffffffffffffffffffffffffffffffffffffff161461109b576040517f08c379a00000000000000000000000000000000000000000000000000000000081526004018080602001828103825260208152602001807f4f776e61626c653a2063616c6c6572206973206e6f7420746865206f776e657281525060200191505060405180910390fd5b8060118190555050565b6060600e8054600181600116156101000203166002900480601f01602080910402602001604051908101604052809291908181526020018280546001816001161561010002031660029004801561113d5780601f106111125761010080835404028352916020019161113d565b820191906000526020600020905b81548152906001019060200180831161112057829003601f168201915b5050505050905090565b600061115b611154612db7565b8484612dbf565b6001905092915050565b6000600d54905090565b7f000000000000000000000000000000000000000000000000000000000000000081565b6000670de0b6b3a7640000905090565b60006111b0848484612fb6565b611271846111bc612db7565b61126c85604051806060016040528060288152602001614f9f60289139600560008b73ffffffffffffffffffffffffffffffffffffffff1673ffffffffffffffffffffffffffffffffffffffff1681526020019081526020016000206000611222612db7565b73ffffffffffffffffffffffffffffffffffffffff1673ffffffffffffffffffffffffffffffffffffffff1681526020019081526020016000205461337b9092919063ffffffff16565b612dbf565b600190509392505050565b6000600c548211156112d9576040517f08c379a000000000000000000000000000000000000000000000000000000000815260040180806020018281038252602a815260200180614ee4602a913960400191505060405180910390fd5b60006112e361343b565b90506112f8818461346690919063ffffffff16565b915050919050565b6000601060009054906101000a900460ff16905090565b61131f612db7565b73ffffffffffffffffffffffffffffffffffffffff1660008054906101000a900473ffffffffffffffffffffffffffffffffffffffff1673ffffffffffffffffffffffffffffffffffffffff16146113df576040517f08c379a00000000000000000000000000000000000000000000000000000000081526004018080602001828103825260208152602001807f4f776e61626c653a2063616c6c6572206973206e6f7420746865206f776e657281525060200191505060405180910390fd5b600760008273ffffffffffffffffffffffffffffffffffffffff1673ffffffffffffffffffffffffffffffffffffffff16815260200190815260200160002060009054906101000a900460ff1661149e576040517f08c379a000000000000000000000000000000000000000000000000000000000815260040180806020018281038252601b8152602001807f4163636f756e7420697320616c7265616479206578636c75646564000000000081525060200191505060405180910390fd5b60005b60088054905081101561169d578173ffffffffffffffffffffffffffffffffffffffff16600882815481106114d257fe5b9060005260206000200160009054906101000a900473ffffffffffffffffffffffffffffffffffffffff1673ffffffffffffffffffffffffffffffffffffffff1614156116905760086001600880549050038154811061152e57fe5b9060005260206000200160009054906101000a900473ffffffffffffffffffffffffffffffffffffffff166008828154811061156657fe5b9060005260206000200160006101000a81548173ffffffffffffffffffffffffffffffffffffffff021916908373ffffffffffffffffffffffffffffffffffffffff1602179055506000600460008473ffffffffffffffffffffffffffffffffffffffff1673ffffffffffffffffffffffffffffffffffffffff168152602001908152602001600020819055506000600760008473ffffffffffffffffffffffffffffffffffffffff1673ffffffffffffffffffffffffffffffffffffffff16815260200190815260200160002060006101000a81548160ff021916908315150217905550600880548061165657fe5b6001900381819060005260206000200160006101000a81549073ffffffffffffffffffffffffffffffffffffffff0219169055905561169d565b80806001019150506114a1565b5050565b600061174a6116ae612db7565b8461174585600560006116bf612db7565b73ffffffffffffffffffffffffffffffffffffffff1673ffffffffffffffffffffffffffffffffffffffff16815260200190815260200160002060008973ffffffffffffffffffffffffffffffffffffffff1673ffffffffffffffffffffffffffffffffffffffff168152602001908152602001600020546134b090919063ffffffff16565b612dbf565b6001905092915050565b60115481565b6000611764612db7565b9050600760008273ffffffffffffffffffffffffffffffffffffffff1673ffffffffffffffffffffffffffffffffffffffff16815260200190815260200160002060009054906101000a900460ff1615611809576040517f08c379a000000000000000000000000000000000000000000000000000000000815260040180806020018281038252602c815260200180615039602c913960400191505060405180910390fd5b600061181483613538565b5050505050905061186d81600360008573ffffffffffffffffffffffffffffffffffffffff1673ffffffffffffffffffffffffffffffffffffffff1681526020019081526020016000205461359490919063ffffffff16565b600360008473ffffffffffffffffffffffffffffffffffffffff1673ffffffffffffffffffffffffffffffffffffffff168152602001908152602001600020819055506118c581600c5461359490919063ffffffff16565b600c819055506118e083600d546134b090919063ffffffff16565b600d81905550505050565b6118f3612db7565b73ffffffffffffffffffffffffffffffffffffffff1660008054906101000a900473ffffffffffffffffffffffffffffffffffffffff1673ffffffffffffffffffffffffffffffffffffffff16146119b3576040517f08c379a00000000000000000000000000000000000000000000000000000000081526004018080602001828103825260208152602001807f4f776e61626c653a2063616c6c6572206973206e6f7420746865206f776e657281525060200191505060405180910390fd5b6001600660008373ffffffffffffffffffffffffffffffffffffffff1673ffffffffffffffffffffffffffffffffffffffff16815260200190815260200160002060006101000a81548160ff02191690831515021790555050565b6000670de0b6b3a7640000831115611a8e576040517f08c379a000000000000000000000000000000000000000000000000000000000815260040180806020018281038252601f8152602001807f416d6f756e74206d757374206265206c657373207468616e20737570706c790081525060200191505060405180910390fd5b81611aae576000611a9e84613538565b5050505050905080915050611ac5565b6000611ab984613538565b50505050915050809150505b92915050565b7f000000000000000000000000000000000000000000000000000000000000000081565b601560019054906101000a900460ff1681565b611b0a612db7565b73ffffffffffffffffffffffffffffffffffffffff1660008054906101000a900473ffffffffffffffffffffffffffffffffffffffff1673ffffffffffffffffffffffffffffffffffffffff1614611bca576040517f08c379a00000000000000000000000000000000000000000000000000000000081526004018080602001828103825260208152602001807f4f776e61626c653a2063616c6c6572206973206e6f7420746865206f776e657281525060200191505060405180910390fd5b600760008273ffffffffffffffffffffffffffffffffffffffff1673ffffffffffffffffffffffffffffffffffffffff16815260200190815260200160002060009054906101000a900460ff1615611c8a576040517f08c379a000000000000000000000000000000000000000000000000000000000815260040180806020018281038252601b8152602001807f4163636f756e7420697320616c7265616479206578636c75646564000000000081525060200191505060405180910390fd5b6000600360008373ffffffffffffffffffffffffffffffffffffffff1673ffffffffffffffffffffffffffffffffffffffff168152602001908152602001600020541115611d5e57611d1a600360008373ffffffffffffffffffffffffffffffffffffffff1673ffffffffffffffffffffffffffffffffffffffff1681526020019081526020016000205461127c565b600460008373ffffffffffffffffffffffffffffffffffffffff1673ffffffffffffffffffffffffffffffffffffffff168152602001908152602001600020819055505b6001600760008373ffffffffffffffffffffffffffffffffffffffff1673ffffffffffffffffffffffffffffffffffffffff16815260200190815260200160002060006101000a81548160ff0219169083151502179055506008819080600181540180825580915050600190039060005260206000200160009091909190916101000a81548173ffffffffffffffffffffffffffffffffffffffff021916908373ffffffffffffffffffffffffffffffffffffffff16021790555050565b6000600660008373ffffffffffffffffffffffffffffffffffffffff1673ffffffffffffffffffffffffffffffffffffffff16815260200190815260200160002060009054906101000a900460ff169050919050565b60135481565b6000600760008373ffffffffffffffffffffffffffffffffffffffff1673ffffffffffffffffffffffffffffffffffffffff16815260200190815260200160002060009054906101000a900460ff1615611f1357600460008373ffffffffffffffffffffffffffffffffffffffff1673ffffffffffffffffffffffffffffffffffffffff168152602001908152602001600020549050611f5e565b611f5b600360008473ffffffffffffffffffffffffffffffffffffffff1673ffffffffffffffffffffffffffffffffffffffff1681526020019081526020016000205461127c565b90505b919050565b611f6b612db7565b73ffffffffffffffffffffffffffffffffffffffff1660008054906101000a900473ffffffffffffffffffffffffffffffffffffffff1673ffffffffffffffffffffffffffffffffffffffff161461202b576040517f08c379a00000000000000000000000000000000000000000000000000000000081526004018080602001828103825260208152602001807f4f776e61626c653a2063616c6c6572206973206e6f7420746865206f776e657281525060200191505060405180910390fd5b600073ffffffffffffffffffffffffffffffffffffffff1660008054906101000a900473ffffffffffffffffffffffffffffffffffffffff1673ffffffffffffffffffffffffffffffffffffffff167f8be0079c531659141344cd1fd0a4f28419497f9722a3daafe3b4186f6b6457e060405160405180910390a360008060006101000a81548173ffffffffffffffffffffffffffffffffffffffff021916908373ffffffffffffffffffffffffffffffffffffffff160217905550565b60165481565b6000600760008373ffffffffffffffffffffffffffffffffffffffff1673ffffffffffffffffffffffffffffffffffffffff16815260200190815260200160002060009054906101000a900460ff169050919050565b60008060009054906101000a900473ffffffffffffffffffffffffffffffffffffffff16905090565b612176612db7565b73ffffffffffffffffffffffffffffffffffffffff1660008054906101000a900473ffffffffffffffffffffffffffffffffffffffff1673ffffffffffffffffffffffffffffffffffffffff1614612236576040517f08c379a00000000000000000000000000000000000000000000000000000000081526004018080602001828103825260208152602001807f4f776e61626c653a2063616c6c6572206973206e6f7420746865206f776e657281525060200191505060405180910390fd5b8060138190555050565b6060600f8054600181600116156101000203166002900480601f0160208091040260200160405190810160405280929190818152602001828054600181600116156101000203166002900480156122d85780601f106122ad576101008083540402835291602001916122d8565b820191906000526020600020905b8154815290600101906020018083116122bb57829003601f168201915b5050505050905090565b60006123a56122ef612db7565b846123a0856040518060600160405280602581526020016150886025913960056000612319612db7565b73ffffffffffffffffffffffffffffffffffffffff1673ffffffffffffffffffffffffffffffffffffffff16815260200190815260200160002060008a73ffffffffffffffffffffffffffffffffffffffff1673ffffffffffffffffffffffffffffffffffffffff1681526020019081526020016000205461337b9092919063ffffffff16565b612dbf565b6001905092915050565b3373ffffffffffffffffffffffffffffffffffffffff16600160009054906101000a900473ffffffffffffffffffffffffffffffffffffffff1673ffffffffffffffffffffffffffffffffffffffff1614612455576040517f08c379a00000000000000000000000000000000000000000000000000000000081526004018080602001828103825260238152602001806150656023913960400191505060405180910390fd5b60025442116124cc576040517f08c379a000000000000000000000000000000000000000000000000000000000815260040180806020018281038252601f8152602001807f436f6e7472616374206973206c6f636b656420756e74696c203720646179730081525060200191505060405180910390fd5b600160009054906101000a900473ffffffffffffffffffffffffffffffffffffffff1673ffffffffffffffffffffffffffffffffffffffff1660008054906101000a900473ffffffffffffffffffffffffffffffffffffffff1673ffffffffffffffffffffffffffffffffffffffff167f8be0079c531659141344cd1fd0a4f28419497f9722a3daafe3b4186f6b6457e060405160405180910390a3600160009054906101000a900473ffffffffffffffffffffffffffffffffffffffff166000806101000a81548173ffffffffffffffffffffffffffffffffffffffff021916908373ffffffffffffffffffffffffffffffffffffffff160217905550565b60006125e06125d9612db7565b8484612fb6565b6001905092915050565b6000600254905090565b6125fc612db7565b73ffffffffffffffffffffffffffffffffffffffff1660008054906101000a900473ffffffffffffffffffffffffffffffffffffffff1673ffffffffffffffffffffffffffffffffffffffff16146126bc576040517f08c379a00000000000000000000000000000000000000000000000000000000081526004018080602001828103825260208152602001807f4f776e61626c653a2063616c6c6572206973206e6f7420746865206f776e657281525060200191505060405180910390fd5b80601560016101000a81548160ff0219169083151502179055507f53726dfcaf90650aa7eb35524f4d3220f07413c8d6cb404cc8c18bf5591bc1598160405180821515815260200191505060405180910390a150565b61271a612db7565b73ffffffffffffffffffffffffffffffffffffffff1660008054906101000a900473ffffffffffffffffffffffffffffffffffffffff1673ffffffffffffffffffffffffffffffffffffffff16146127da576040517f08c379a00000000000000000000000000000000000000000000000000000000081526004018080602001828103825260208152602001807f4f776e61626c653a2063616c6c6572206973206e6f7420746865206f776e657281525060200191505060405180910390fd5b61280860646127fa83670de0b6b3a76400006135de90919063ffffffff16565b61346690919063ffffffff16565b60168190555050565b612819612db7565b73ffffffffffffffffffffffffffffffffffffffff1660008054906101000a900473ffffffffffffffffffffffffffffffffffffffff1673ffffffffffffffffffffffffffffffffffffffff16146128d9576040517f08c379a00000000000000000000000000000000000000000000000000000000081526004018080602001828103825260208152602001807f4f776e61626c653a2063616c6c6572206973206e6f7420746865206f776e657281525060200191505060405180910390fd5b60008054906101000a900473ffffffffffffffffffffffffffffffffffffffff16600160006101000a81548173ffffffffffffffffffffffffffffffffffffffff021916908373ffffffffffffffffffffffffffffffffffffffff16021790555060008060006101000a81548173ffffffffffffffffffffffffffffffffffffffff021916908373ffffffffffffffffffffffffffffffffffffffff160217905550804201600281905550600073ffffffffffffffffffffffffffffffffffffffff1660008054906101000a900473ffffffffffffffffffffffffffffffffffffffff1673ffffffffffffffffffffffffffffffffffffffff167f8be0079c531659141344cd1fd0a4f28419497f9722a3daafe3b4186f6b6457e060405160405180910390a350565b6000600560008473ffffffffffffffffffffffffffffffffffffffff1673ffffffffffffffffffffffffffffffffffffffff16815260200190815260200160002060008373ffffffffffffffffffffffffffffffffffffffff1673ffffffffffffffffffffffffffffffffffffffff16815260200190815260200160002054905092915050565b612a91612db7565b73ffffffffffffffffffffffffffffffffffffffff1660008054906101000a900473ffffffffffffffffffffffffffffffffffffffff1673ffffffffffffffffffffffffffffffffffffffff1614612b51576040517f08c379a00000000000000000000000000000000000000000000000000000000081526004018080602001828103825260208152602001807f4f776e61626c653a2063616c6c6572206973206e6f7420746865206f776e657281525060200191505060405180910390fd5b6000600660008373ffffffffffffffffffffffffffffffffffffffff1673ffffffffffffffffffffffffffffffffffffffff16815260200190815260200160002060006101000a81548160ff02191690831515021790555050565b612bb4612db7565b73ffffffffffffffffffffffffffffffffffffffff1660008054906101000a900473ffffffffffffffffffffffffffffffffffffffff1673ffffffffffffffffffffffffffffffffffffffff1614612c74576040517f08c379a00000000000000000000000000000000000000000000000000000000081526004018080602001828103825260208152602001807f4f776e61626c653a2063616c6c6572206973206e6f7420746865206f776e657281525060200191505060405180910390fd5b600073ffffffffffffffffffffffffffffffffffffffff168173ffffffffffffffffffffffffffffffffffffffff161415612cfa576040517f08c379a0000000000000000000000000000000000000000000000000000000008152600401808060200182810382526026815260200180614f0e6026913960400191505060405180910390fd5b8073ffffffffffffffffffffffffffffffffffffffff1660008054906101000a900473ffffffffffffffffffffffffffffffffffffffff1673ffffffffffffffffffffffffffffffffffffffff167f8be0079c531659141344cd1fd0a4f28419497f9722a3daafe3b4186f6b6457e060405160405180910390a3806000806101000a81548173ffffffffffffffffffffffffffffffffffffffff021916908373ffffffffffffffffffffffffffffffffffffffff16021790555050565b600033905090565b600073ffffffffffffffffffffffffffffffffffffffff168373ffffffffffffffffffffffffffffffffffffffff161415612e45576040517f08c379a00000000000000000000000000000000000000000000000000000000081526004018080602001828103825260248152602001806150156024913960400191505060405180910390fd5b600073ffffffffffffffffffffffffffffffffffffffff168273ffffffffffffffffffffffffffffffffffffffff161415612ecb576040517f08c379a0000000000000000000000000000000000000000000000000000000008152600401808060200182810382526022815260200180614f346022913960400191505060405180910390fd5b80600560008573ffffffffffffffffffffffffffffffffffffffff1673ffffffffffffffffffffffffffffffffffffffff16815260200190815260200160002060008473ffffffffffffffffffffffffffffffffffffffff1673ffffffffffffffffffffffffffffffffffffffff168152602001908152602001600020819055508173ffffffffffffffffffffffffffffffffffffffff168373ffffffffffffffffffffffffffffffffffffffff167f8c5be1e5ebec7d5bd14f71427d1e84f3dd0314c0f7b2291e5b200ac8c7c3b925836040518082815260200191505060405180910390a3505050565b600073ffffffffffffffffffffffffffffffffffffffff168373ffffffffffffffffffffffffffffffffffffffff16141561303c576040517f08c379a0000000000000000000000000000000000000000000000000000000008152600401808060200182810382526025815260200180614ff06025913960400191505060405180910390fd5b600073ffffffffffffffffffffffffffffffffffffffff168273ffffffffffffffffffffffffffffffffffffffff1614156130c2576040517f08c379a0000000000000000000000000000000000000000000000000000000008152600401808060200182810382526023815260200180614ec16023913960400191505060405180910390fd5b6000811161311b576040517f08c379a0000000000000000000000000000000000000000000000000000000008152600401808060200182810382526029815260200180614fc76029913960400191505060405180910390fd5b613123612145565b73ffffffffffffffffffffffffffffffffffffffff168373ffffffffffffffffffffffffffffffffffffffff16141580156131915750613161612145565b73ffffffffffffffffffffffffffffffffffffffff168273ffffffffffffffffffffffffffffffffffffffff1614155b156131f2576016548111156131f1576040517f08c379a0000000000000000000000000000000000000000000000000000000008152600401808060200182810382526028815260200180614f566028913960400191505060405180910390fd5b5b60006131fd30611e78565b9050601654811061320e5760165490505b600060175482101590508080156132325750601560009054906101000a900460ff16155b801561328a57507f000000000000000000000000000000000000000000000000000000000000000073ffffffffffffffffffffffffffffffffffffffff168573ffffffffffffffffffffffffffffffffffffffff1614155b80156132a25750601560019054906101000a900460ff165b156132b65760175491506132b582613664565b5b600060019050600660008773ffffffffffffffffffffffffffffffffffffffff1673ffffffffffffffffffffffffffffffffffffffff16815260200190815260200160002060009054906101000a900460ff168061335d5750600660008673ffffffffffffffffffffffffffffffffffffffff1673ffffffffffffffffffffffffffffffffffffffff16815260200190815260200160002060009054906101000a900460ff165b1561336757600090505b61337386868684613746565b505050505050565b6000838311158290613428576040517f08c379a00000000000000000000000000000000000000000000000000000000081526004018080602001828103825283818151815260200191508051906020019080838360005b838110156133ed5780820151818401526020810190506133d2565b50505050905090810190601f16801561341a5780820380516001836020036101000a031916815260200191505b509250505060405180910390fd5b5060008385039050809150509392505050565b6000806000613448613a57565b9150915061345f818361346690919063ffffffff16565b9250505090565b60006134a883836040518060400160405280601a81526020017f536166654d6174683a206469766973696f6e206279207a65726f000000000000815250613d00565b905092915050565b60008082840190508381101561352e576040517f08c379a000000000000000000000000000000000000000000000000000000000815260040180806020018281038252601b8152602001807f536166654d6174683a206164646974696f6e206f766572666c6f77000000000081525060200191505060405180910390fd5b8091505092915050565b600080600080600080600080600061354f8a613dc6565b925092509250600080600061356d8d868661356861343b565b613e20565b9250925092508282828888889b509b509b509b509b509b5050505050505091939550919395565b60006135d683836040518060400160405280601e81526020017f536166654d6174683a207375627472616374696f6e206f766572666c6f77000081525061337b565b905092915050565b6000808314156135f1576000905061365e565b600082840290508284828161360257fe5b0414613659576040517f08c379a0000000000000000000000000000000000000000000000000000000008152600401808060200182810382526021815260200180614f7e6021913960400191505060405180910390fd5b809150505b92915050565b6001601560006101000a81548160ff021916908315150217905550600061369560028361346690919063ffffffff16565b905060006136ac828461359490919063ffffffff16565b905060004790506136bc83613ea9565b60006136d1824761359490919063ffffffff16565b90506136dd8382614157565b7f17bbfb9a6069321b6ded73bd96327c9e6b7212a5cd51ff219cd61370acafb56184828560405180848152602001838152602001828152602001935050505060405180910390a1505050506000601560006101000a81548160ff02191690831515021790555050565b80613754576137536142a8565b5b600760008573ffffffffffffffffffffffffffffffffffffffff1673ffffffffffffffffffffffffffffffffffffffff16815260200190815260200160002060009054906101000a900460ff1680156137f75750600760008473ffffffffffffffffffffffffffffffffffffffff1673ffffffffffffffffffffffffffffffffffffffff16815260200190815260200160002060009054906101000a900460ff16155b1561380c576138078484846142eb565b613a43565b600760008573ffffffffffffffffffffffffffffffffffffffff1673ffffffffffffffffffffffffffffffffffffffff16815260200190815260200160002060009054906101000a900460ff161580156138af5750600760008473ffffffffffffffffffffffffffffffffffffffff1673ffffffffffffffffffffffffffffffffffffffff16815260200190815260200160002060009054906101000a900460ff165b156138c4576138bf84848461454b565b613a42565b600760008573ffffffffffffffffffffffffffffffffffffffff1673ffffffffffffffffffffffffffffffffffffffff16815260200190815260200160002060009054906101000a900460ff161580156139685750600760008473ffffffffffffffffffffffffffffffffffffffff1673ffffffffffffffffffffffffffffffffffffffff16815260200190815260200160002060009054906101000a900460ff16155b1561397d576139788484846147ab565b613a41565b600760008573ffffffffffffffffffffffffffffffffffffffff1673ffffffffffffffffffffffffffffffffffffffff16815260200190815260200160002060009054906101000a900460ff168015613a1f5750600760008473ffffffffffffffffffffffffffffffffffffffff1673ffffffffffffffffffffffffffffffffffffffff16815260200190815260200160002060009054906101000a900460ff165b15613a3457613a2f848484614976565b613a40565b613a3f8484846147ab565b5b5b5b5b80613a5157613a50614c6b565b5b50505050565b6000806000600c5490506000670de0b6b3a7640000905060005b600880549050811015613cb757826003600060088481548110613a9057fe5b9060005260206000200160009054906101000a900473ffffffffffffffffffffffffffffffffffffffff1673ffffffffffffffffffffffffffffffffffffffff1673ffffffffffffffffffffffffffffffffffffffff168152602001908152602001600020541180613b775750816004600060088481548110613b0f57fe5b9060005260206000200160009054906101000a900473ffffffffffffffffffffffffffffffffffffffff1673ffffffffffffffffffffffffffffffffffffffff1673ffffffffffffffffffffffffffffffffffffffff16815260200190815260200160002054115b15613b9457600c54670de0b6b3a764000094509450505050613cfc565b613c1d6003600060088481548110613ba857fe5b9060005260206000200160009054906101000a900473ffffffffffffffffffffffffffffffffffffffff1673ffffffffffffffffffffffffffffffffffffffff1673ffffffffffffffffffffffffffffffffffffffff168152602001908152602001600020548461359490919063ffffffff16565b9250613ca86004600060088481548110613c3357fe5b9060005260206000200160009054906101000a900473ffffffffffffffffffffffffffffffffffffffff1673ffffffffffffffffffffffffffffffffffffffff1673ffffffffffffffffffffffffffffffffffffffff168152602001908152602001600020548361359490919063ffffffff16565b91508080600101915050613a71565b50613cd5670de0b6b3a7640000600c5461346690919063ffffffff16565b821015613cf357600c54670de0b6b3a7640000935093505050613cfc565b81819350935050505b9091565b60008083118290613dac576040517f08c379a00000000000000000000000000000000000000000000000000000000081526004018080602001828103825283818151815260200191508051906020019080838360005b83811015613d71578082015181840152602081019050613d56565b50505050905090810190601f168015613d9e5780820380516001836020036101000a031916815260200191505b509250505060405180910390fd5b506000838581613db857fe5b049050809150509392505050565b600080600080613dd585614c7f565b90506000613de286614cb0565b90506000613e0b82613dfd858a61359490919063ffffffff16565b61359490919063ffffffff16565b90508083839550955095505050509193909250565b600080600080613e3985896135de90919063ffffffff16565b90506000613e5086896135de90919063ffffffff16565b90506000613e6787896135de90919063ffffffff16565b90506000613e9082613e82858761359490919063ffffffff16565b61359490919063ffffffff16565b9050838184965096509650505050509450945094915050565b6060600267ffffffffffffffff81118015613ec357600080fd5b50604051908082528060200260200182016040528015613ef25781602001602082028036833780820191505090505b5090503081600081518110613f0357fe5b602002602001019073ffffffffffffffffffffffffffffffffffffffff16908173ffffffffffffffffffffffffffffffffffffffff16815250507f000000000000000000000000000000000000000000000000000000000000000073ffffffffffffffffffffffffffffffffffffffff1663ad5c46486040518163ffffffff1660e01b815260040160206040518083038186803b158015613fa357600080fd5b505afa158015613fb7573d6000803e3d6000fd5b505050506040513d6020811015613fcd57600080fd5b810190808051906020019092919050505081600181518110613feb57fe5b602002602001019073ffffffffffffffffffffffffffffffffffffffff16908173ffffffffffffffffffffffffffffffffffffffff1681525050614050307f000000000000000000000000000000000000000000000000000000000000000084612dbf565b7f000000000000000000000000000000000000000000000000000000000000000073ffffffffffffffffffffffffffffffffffffffff1663791ac9478360008430426040518663ffffffff1660e01b815260040180868152602001858152602001806020018473ffffffffffffffffffffffffffffffffffffffff168152602001838152602001828103825285818151815260200191508051906020019060200280838360005b838110156141125780820151818401526020810190506140f7565b505050509050019650505050505050600060405180830381600087803b15801561413b57600080fd5b505af115801561414f573d6000803e3d6000fd5b505050505050565b614182307f000000000000000000000000000000000000000000000000000000000000000084612dbf565b7f000000000000000000000000000000000000000000000000000000000000000073ffffffffffffffffffffffffffffffffffffffff1663f305d7198230856000806141cc612145565b426040518863ffffffff1660e01b8152600401808773ffffffffffffffffffffffffffffffffffffffff1681526020018681526020018581526020018481526020018373ffffffffffffffffffffffffffffffffffffffff16815260200182815260200196505050505050506060604051808303818588803b15801561425157600080fd5b505af1158015614265573d6000803e3d6000fd5b50505050506040513d606081101561427c57600080fd5b810190808051906020019092919080519060200190929190805190602001909291905050505050505050565b60006011541480156142bc57506000601354145b156142c6576142e9565b601154601281905550601354601481905550600060118190555060006013819055505b565b6000806000806000806142fd87613538565b95509550955095509550955061435b87600460008c73ffffffffffffffffffffffffffffffffffffffff1673ffffffffffffffffffffffffffffffffffffffff1681526020019081526020016000205461359490919063ffffffff16565b600460008b73ffffffffffffffffffffffffffffffffffffffff1673ffffffffffffffffffffffffffffffffffffffff168152602001908152602001600020819055506143f086600360008c73ffffffffffffffffffffffffffffffffffffffff1673ffffffffffffffffffffffffffffffffffffffff1681526020019081526020016000205461359490919063ffffffff16565b600360008b73ffffffffffffffffffffffffffffffffffffffff1673ffffffffffffffffffffffffffffffffffffffff1681526020019081526020016000208190555061448585600360008b73ffffffffffffffffffffffffffffffffffffffff1673ffffffffffffffffffffffffffffffffffffffff168152602001908152602001600020546134b090919063ffffffff16565b600360008a73ffffffffffffffffffffffffffffffffffffffff1673ffffffffffffffffffffffffffffffffffffffff168152602001908152602001600020819055506144d181614ce1565b6144db8483614e86565b8773ffffffffffffffffffffffffffffffffffffffff168973ffffffffffffffffffffffffffffffffffffffff167fddf252ad1be2c89b69c2b068fc378daa952ba7f163c4a11628f55a4df523b3ef856040518082815260200191505060405180910390a3505050505050505050565b60008060008060008061455d87613538565b9550955095509550955095506145bb86600360008c73ffffffffffffffffffffffffffffffffffffffff1673ffffffffffffffffffffffffffffffffffffffff1681526020019081526020016000205461359490919063ffffffff16565b600360008b73ffffffffffffffffffffffffffffffffffffffff1673ffffffffffffffffffffffffffffffffffffffff1681526020019081526020016000208190555061465083600460008b73ffffffffffffffffffffffffffffffffffffffff1673ffffffffffffffffffffffffffffffffffffffff168152602001908152602001600020546134b090919063ffffffff16565b600460008a73ffffffffffffffffffffffffffffffffffffffff1673ffffffffffffffffffffffffffffffffffffffff168152602001908152602001600020819055506146e585600360008b73ffffffffffffffffffffffffffffffffffffffff1673ffffffffffffffffffffffffffffffffffffffff168152602001908152602001600020546134b090919063ffffffff16565b600360008a73ffffffffffffffffffffffffffffffffffffffff1673ffffffffffffffffffffffffffffffffffffffff1681526020019081526020016000208190555061473181614ce1565b61473b8483614e86565b8773ffffffffffffffffffffffffffffffffffffffff168973ffffffffffffffffffffffffffffffffffffffff167fddf252ad1be2c89b69c2b068fc378daa952ba7f163c4a11628f55a4df523b3ef856040518082815260200191505060405180910390a3505050505050505050565b6000806000806000806147bd87613538565b95509550955095509550955061481b86600360008c73ffffffffffffffffffffffffffffffffffffffff1673ffffffffffffffffffffffffffffffffffffffff1681526020019081526020016000205461359490919063ffffffff16565b600360008b73ffffffffffffffffffffffffffffffffffffffff1673ffffffffffffffffffffffffffffffffffffffff168152602001908152602001600020819055506148b085600360008b73ffffffffffffffffffffffffffffffffffffffff1673ffffffffffffffffffffffffffffffffffffffff168152602001908152602001600020546134b090919063ffffffff16565b600360008a73ffffffffffffffffffffffffffffffffffffffff1673ffffffffffffffffffffffffffffffffffffffff168152602001908152602001600020819055506148fc81614ce1565b6149068483614e86565b8773ffffffffffffffffffffffffffffffffffffffff168973ffffffffffffffffffffffffffffffffffffffff167fddf252ad1be2c89b69c2b068fc378daa952ba7f163c4a11628f55a4df523b3ef856040518082815260200191505060405180910390a3505050505050505050565b60008060008060008061498887613538565b9550955095509550955095506149e687600460008c73ffffffffffffffffffffffffffffffffffffffff1673ffffffffffffffffffffffffffffffffffffffff1681526020019081526020016000205461359490919063ffffffff16565b600460008b73ffffffffffffffffffffffffffffffffffffffff1673ffffffffffffffffffffffffffffffffffffffff16815260200190815260200160002081905550614a7b86600360008c73ffffffffffffffffffffffffffffffffffffffff1673ffffffffffffffffffffffffffffffffffffffff1681526020019081526020016000205461359490919063ffffffff16565b600360008b73ffffffffffffffffffffffffffffffffffffffff1673ffffffffffffffffffffffffffffffffffffffff16815260200190815260200160002081905550614b1083600460008b73ffffffffffffffffffffffffffffffffffffffff1673ffffffffffffffffffffffffffffffffffffffff168152602001908152602001600020546134b090919063ffffffff16565b600460008a73ffffffffffffffffffffffffffffffffffffffff1673ffffffffffffffffffffffffffffffffffffffff16815260200190815260200160002081905550614ba585600360008b73ffffffffffffffffffffffffffffffffffffffff1673ffffffffffffffffffffffffffffffffffffffff168152602001908152602001600020546134b090919063ffffffff16565b600360008a73ffffffffffffffffffffffffffffffffffffffff1673ffffffffffffffffffffffffffffffffffffffff16815260200190815260200160002081905550614bf181614ce1565b614bfb8483614e86565b8773ffffffffffffffffffffffffffffffffffffffff168973ffffffffffffffffffffffffffffffffffffffff167fddf252ad1be2c89b69c2b068fc378daa952ba7f163c4a11628f55a4df523b3ef856040518082815260200191505060405180910390a3505050505050505050565b601254601181905550601454601381905550565b6000614ca96064614c9b601154856135de90919063ffffffff16565b61346690919063ffffffff16565b9050919050565b6000614cda6064614ccc601354856135de90919063ffffffff16565b61346690919063ffffffff16565b9050919050565b6000614ceb61343b565b90506000614d0282846135de90919063ffffffff16565b9050614d5681600360003073ffffffffffffffffffffffffffffffffffffffff1673ffffffffffffffffffffffffffffffffffffffff168152602001908152602001600020546134b090919063ffffffff16565b600360003073ffffffffffffffffffffffffffffffffffffffff1673ffffffffffffffffffffffffffffffffffffffff16815260200190815260200160002081905550600760003073ffffffffffffffffffffffffffffffffffffffff1673ffffffffffffffffffffffffffffffffffffffff16815260200190815260200160002060009054906101000a900460ff1615614e8157614e3d83600460003073ffffffffffffffffffffffffffffffffffffffff1673ffffffffffffffffffffffffffffffffffffffff168152602001908152602001600020546134b090919063ffffffff16565b600460003073ffffffffffffffffffffffffffffffffffffffff1673ffffffffffffffffffffffffffffffffffffffff168152602001908152602001600020819055505b505050565b614e9b82600c5461359490919063ffffffff16565b600c81905550614eb681600d546134b090919063ffffffff16565b600d81905550505056fe45524332303a207472616e7366657220746f20746865207a65726f2061646472657373416d6f756e74206d757374206265206c657373207468616e20746f74616c207265666c656374696f6e734f776e61626c653a206e6577206f776e657220697320746865207a65726f206164647265737345524332303a20617070726f766520746f20746865207a65726f20616464726573735472616e7366657220616d6f756e74206578636565647320746865206d61785478416d6f756e742e536166654d6174683a206d756c7469706c69636174696f6e206f766572666c6f7745524332303a207472616e7366657220616d6f756e74206578636565647320616c6c6f77616e63655472616e7366657220616d6f756e74206d7573742062652067726561746572207468616e207a65726f45524332303a207472616e736665722066726f6d20746865207a65726f206164647265737345524332303a20617070726f76652066726f6d20746865207a65726f20616464726573734578636c75646564206164647265737365732063616e6e6f742063616c6c20746869732066756e6374696f6e596f7520646f6e27742068617665207065726d697373696f6e20746f20756e6c6f636b45524332303a2064656372656173656420616c6c6f77616e63652062656c6f77207a65726fa26469706673582212203f6ee34869941b0c7b64cbad90fbed79a22ff3bda7dd54942fac8780cd85d1c464736f6c634300060c0033",
					"opcodes": "PUSH1 0xC0 PUSH1 0x40 MSTORE PUSH20 0x8492CBD894686D7E98214541903C7BA6F94928D6 PUSH1 0x9 PUSH1 0x0 PUSH2 0x100 EXP DUP2 SLOAD DUP2 PUSH20 0xFFFFFFFFFFFFFFFFFFFFFFFFFFFFFFFFFFFFFFFF MUL NOT AND SWAP1 DUP4 PUSH20 0xFFFFFFFFFFFFFFFFFFFFFFFFFFFFFFFFFFFFFFFF AND MUL OR SWAP1 SSTORE POP PUSH20 0xA4ED7AA4EF5DEB0A63E97D9CB77445AE553FEB1D PUSH1 0xA PUSH1 0x0 PUSH2 0x100 EXP DUP2 SLOAD DUP2 PUSH20 0xFFFFFFFFFFFFFFFFFFFFFFFFFFFFFFFFFFFFFFFF MUL NOT AND SWAP1 DUP4 PUSH20 0xFFFFFFFFFFFFFFFFFFFFFFFFFFFFFFFFFFFFFFFF AND MUL OR SWAP1 SSTORE POP PUSH20 0xE061915592536656A92B9FD59E46B19EF920692F PUSH1 0xB PUSH1 0x0 PUSH2 0x100 EXP DUP2 SLOAD DUP2 PUSH20 0xFFFFFFFFFFFFFFFFFFFFFFFFFFFFFFFFFFFFFFFF MUL NOT AND SWAP1 DUP4 PUSH20 0xFFFFFFFFFFFFFFFFFFFFFFFFFFFFFFFFFFFFFFFF AND MUL OR SWAP1 SSTORE POP PUSH8 0xDE0B6B3A7640000 PUSH1 0x0 NOT DUP2 PUSH3 0x117 JUMPI INVALID JUMPDEST MOD PUSH1 0x0 NOT SUB PUSH1 0xC SSTORE PUSH1 0x40 MLOAD DUP1 PUSH1 0x40 ADD PUSH1 0x40 MSTORE DUP1 PUSH1 0xA DUP2 MSTORE PUSH1 0x20 ADD PUSH32 0x576F726C64205374657000000000000000000000000000000000000000000000 DUP2 MSTORE POP PUSH1 0xE SWAP1 DUP1 MLOAD SWAP1 PUSH1 0x20 ADD SWAP1 PUSH3 0x16C SWAP3 SWAP2 SWAP1 PUSH3 0x807 JUMP JUMPDEST POP PUSH1 0x40 MLOAD DUP1 PUSH1 0x40 ADD PUSH1 0x40 MSTORE DUP1 PUSH1 0x3 DUP2 MSTORE PUSH1 0x20 ADD PUSH32 0x5753500000000000000000000000000000000000000000000000000000000000 DUP2 MSTORE POP PUSH1 0xF SWAP1 DUP1 MLOAD SWAP1 PUSH1 0x20 ADD SWAP1 PUSH3 0x1BA SWAP3 SWAP2 SWAP1 PUSH3 0x807 JUMP JUMPDEST POP PUSH1 0x9 PUSH1 0x10 PUSH1 0x0 PUSH2 0x100 EXP DUP2 SLOAD DUP2 PUSH1 0xFF MUL NOT AND SWAP1 DUP4 PUSH1 0xFF AND MUL OR SWAP1 SSTORE POP PUSH1 0x2 PUSH1 0x11 SSTORE PUSH1 0x11 SLOAD PUSH1 0x12 SSTORE PUSH1 0x3 PUSH1 0x13 SSTORE PUSH1 0x13 SLOAD PUSH1 0x14 SSTORE PUSH1 0x1 PUSH1 0x15 PUSH1 0x1 PUSH2 0x100 EXP DUP2 SLOAD DUP2 PUSH1 0xFF MUL NOT AND SWAP1 DUP4 ISZERO ISZERO MUL OR SWAP1 SSTORE POP PUSH1 0x0 PUSH1 0x15 PUSH1 0x2 PUSH2 0x100 EXP DUP2 SLOAD DUP2 PUSH1 0xFF MUL NOT AND SWAP1 DUP4 ISZERO ISZERO MUL OR SWAP1 SSTORE POP PUSH8 0x6F05B59D3B20000 PUSH1 0x16 SSTORE PUSH8 0x3782DACE9D90000 PUSH1 0x17 SSTORE CALLVALUE DUP1 ISZERO PUSH3 0x248 JUMPI PUSH1 0x0 DUP1 REVERT JUMPDEST POP PUSH1 0x0 PUSH3 0x25B PUSH3 0x7D6 PUSH1 0x20 SHL PUSH1 0x20 SHR JUMP JUMPDEST SWAP1 POP DUP1 PUSH1 0x0 DUP1 PUSH2 0x100 EXP DUP2 SLOAD DUP2 PUSH20 0xFFFFFFFFFFFFFFFFFFFFFFFFFFFFFFFFFFFFFFFF MUL NOT AND SWAP1 DUP4 PUSH20 0xFFFFFFFFFFFFFFFFFFFFFFFFFFFFFFFFFFFFFFFF AND MUL OR SWAP1 SSTORE POP DUP1 PUSH20 0xFFFFFFFFFFFFFFFFFFFFFFFFFFFFFFFFFFFFFFFF AND PUSH1 0x0 PUSH20 0xFFFFFFFFFFFFFFFFFFFFFFFFFFFFFFFFFFFFFFFF AND PUSH32 0x8BE0079C531659141344CD1FD0A4F28419497F9722A3DAAFE3B4186F6B6457E0 PUSH1 0x40 MLOAD PUSH1 0x40 MLOAD DUP1 SWAP2 SUB SWAP1 LOG3 POP PUSH1 0xC SLOAD PUSH1 0x3 PUSH1 0x0 PUSH3 0x310 PUSH3 0x7D6 PUSH1 0x20 SHL PUSH1 0x20 SHR JUMP JUMPDEST PUSH20 0xFFFFFFFFFFFFFFFFFFFFFFFFFFFFFFFFFFFFFFFF AND PUSH20 0xFFFFFFFFFFFFFFFFFFFFFFFFFFFFFFFFFFFFFFFF AND DUP2 MSTORE PUSH1 0x20 ADD SWAP1 DUP2 MSTORE PUSH1 0x20 ADD PUSH1 0x0 KECCAK256 DUP2 SWAP1 SSTORE POP PUSH1 0x0 PUSH20 0x9AC64CC6E4415144C455BD8E4837FEA55603E5C3 SWAP1 POP DUP1 PUSH20 0xFFFFFFFFFFFFFFFFFFFFFFFFFFFFFFFFFFFFFFFF AND PUSH4 0xC45A0155 PUSH1 0x40 MLOAD DUP2 PUSH4 0xFFFFFFFF AND PUSH1 0xE0 SHL DUP2 MSTORE PUSH1 0x4 ADD PUSH1 0x20 PUSH1 0x40 MLOAD DUP1 DUP4 SUB DUP2 DUP7 DUP1 EXTCODESIZE ISZERO DUP1 ISZERO PUSH3 0x3AE JUMPI PUSH1 0x0 DUP1 REVERT JUMPDEST POP GAS STATICCALL ISZERO DUP1 ISZERO PUSH3 0x3C3 JUMPI RETURNDATASIZE PUSH1 0x0 DUP1 RETURNDATACOPY RETURNDATASIZE PUSH1 0x0 REVERT JUMPDEST POP POP POP POP PUSH1 0x40 MLOAD RETURNDATASIZE PUSH1 0x20 DUP2 LT ISZERO PUSH3 0x3DA JUMPI PUSH1 0x0 DUP1 REVERT JUMPDEST DUP2 ADD SWAP1 DUP1 DUP1 MLOAD SWAP1 PUSH1 0x20 ADD SWAP1 SWAP3 SWAP2 SWAP1 POP POP POP PUSH20 0xFFFFFFFFFFFFFFFFFFFFFFFFFFFFFFFFFFFFFFFF AND PUSH4 0xC9C65396 ADDRESS DUP4 PUSH20 0xFFFFFFFFFFFFFFFFFFFFFFFFFFFFFFFFFFFFFFFF AND PUSH4 0xAD5C4648 PUSH1 0x40 MLOAD DUP2 PUSH4 0xFFFFFFFF AND PUSH1 0xE0 SHL DUP2 MSTORE PUSH1 0x4 ADD PUSH1 0x20 PUSH1 0x40 MLOAD DUP1 DUP4 SUB DUP2 DUP7 DUP1 EXTCODESIZE ISZERO DUP1 ISZERO PUSH3 0x44E JUMPI PUSH1 0x0 DUP1 REVERT JUMPDEST POP GAS STATICCALL ISZERO DUP1 ISZERO PUSH3 0x463 JUMPI RETURNDATASIZE PUSH1 0x0 DUP1 RETURNDATACOPY RETURNDATASIZE PUSH1 0x0 REVERT JUMPDEST POP POP POP POP PUSH1 0x40 MLOAD RETURNDATASIZE PUSH1 0x20 DUP2 LT ISZERO PUSH3 0x47A JUMPI PUSH1 0x0 DUP1 REVERT JUMPDEST DUP2 ADD SWAP1 DUP1 DUP1 MLOAD SWAP1 PUSH1 0x20 ADD SWAP1 SWAP3 SWAP2 SWAP1 POP POP POP PUSH1 0x40 MLOAD DUP4 PUSH4 0xFFFFFFFF AND PUSH1 0xE0 SHL DUP2 MSTORE PUSH1 0x4 ADD DUP1 DUP4 PUSH20 0xFFFFFFFFFFFFFFFFFFFFFFFFFFFFFFFFFFFFFFFF AND DUP2 MSTORE PUSH1 0x20 ADD DUP3 PUSH20 0xFFFFFFFFFFFFFFFFFFFFFFFFFFFFFFFFFFFFFFFF AND DUP2 MSTORE PUSH1 0x20 ADD SWAP3 POP POP POP PUSH1 0x20 PUSH1 0x40 MLOAD DUP1 DUP4 SUB DUP2 PUSH1 0x0 DUP8 DUP1 EXTCODESIZE ISZERO DUP1 ISZERO PUSH3 0x4F5 JUMPI PUSH1 0x0 DUP1 REVERT JUMPDEST POP GAS CALL ISZERO DUP1 ISZERO PUSH3 0x50A JUMPI RETURNDATASIZE PUSH1 0x0 DUP1 RETURNDATACOPY RETURNDATASIZE PUSH1 0x0 REVERT JUMPDEST POP POP POP POP PUSH1 0x40 MLOAD RETURNDATASIZE PUSH1 0x20 DUP2 LT ISZERO PUSH3 0x521 JUMPI PUSH1 0x0 DUP1 REVERT JUMPDEST DUP2 ADD SWAP1 DUP1 DUP1 MLOAD SWAP1 PUSH1 0x20 ADD SWAP1 SWAP3 SWAP2 SWAP1 POP POP POP PUSH20 0xFFFFFFFFFFFFFFFFFFFFFFFFFFFFFFFFFFFFFFFF AND PUSH1 0xA0 DUP2 PUSH20 0xFFFFFFFFFFFFFFFFFFFFFFFFFFFFFFFFFFFFFFFF AND PUSH1 0x60 SHL DUP2 MSTORE POP POP DUP1 PUSH20 0xFFFFFFFFFFFFFFFFFFFFFFFFFFFFFFFFFFFFFFFF AND PUSH1 0x80 DUP2 PUSH20 0xFFFFFFFFFFFFFFFFFFFFFFFFFFFFFFFFFFFFFFFF AND PUSH1 0x60 SHL DUP2 MSTORE POP POP PUSH1 0x1 PUSH1 0x6 PUSH1 0x0 PUSH3 0x5B5 PUSH3 0x7DE PUSH1 0x20 SHL PUSH1 0x20 SHR JUMP JUMPDEST PUSH20 0xFFFFFFFFFFFFFFFFFFFFFFFFFFFFFFFFFFFFFFFF AND PUSH20 0xFFFFFFFFFFFFFFFFFFFFFFFFFFFFFFFFFFFFFFFF AND DUP2 MSTORE PUSH1 0x20 ADD SWAP1 DUP2 MSTORE PUSH1 0x20 ADD PUSH1 0x0 KECCAK256 PUSH1 0x0 PUSH2 0x100 EXP DUP2 SLOAD DUP2 PUSH1 0xFF MUL NOT AND SWAP1 DUP4 ISZERO ISZERO MUL OR SWAP1 SSTORE POP PUSH1 0x1 PUSH1 0x6 PUSH1 0x0 ADDRESS PUSH20 0xFFFFFFFFFFFFFFFFFFFFFFFFFFFFFFFFFFFFFFFF AND PUSH20 0xFFFFFFFFFFFFFFFFFFFFFFFFFFFFFFFFFFFFFFFF AND DUP2 MSTORE PUSH1 0x20 ADD SWAP1 DUP2 MSTORE PUSH1 0x20 ADD PUSH1 0x0 KECCAK256 PUSH1 0x0 PUSH2 0x100 EXP DUP2 SLOAD DUP2 PUSH1 0xFF MUL NOT AND SWAP1 DUP4 ISZERO ISZERO MUL OR SWAP1 SSTORE POP PUSH1 0x1 PUSH1 0x6 PUSH1 0x0 PUSH1 0x9 PUSH1 0x0 SWAP1 SLOAD SWAP1 PUSH2 0x100 EXP SWAP1 DIV PUSH20 0xFFFFFFFFFFFFFFFFFFFFFFFFFFFFFFFFFFFFFFFF AND PUSH20 0xFFFFFFFFFFFFFFFFFFFFFFFFFFFFFFFFFFFFFFFF AND PUSH20 0xFFFFFFFFFFFFFFFFFFFFFFFFFFFFFFFFFFFFFFFF AND DUP2 MSTORE PUSH1 0x20 ADD SWAP1 DUP2 MSTORE PUSH1 0x20 ADD PUSH1 0x0 KECCAK256 PUSH1 0x0 PUSH2 0x100 EXP DUP2 SLOAD DUP2 PUSH1 0xFF MUL NOT AND SWAP1 DUP4 ISZERO ISZERO MUL OR SWAP1 SSTORE POP PUSH1 0x1 PUSH1 0x6 PUSH1 0x0 PUSH1 0xA PUSH1 0x0 SWAP1 SLOAD SWAP1 PUSH2 0x100 EXP SWAP1 DIV PUSH20 0xFFFFFFFFFFFFFFFFFFFFFFFFFFFFFFFFFFFFFFFF AND PUSH20 0xFFFFFFFFFFFFFFFFFFFFFFFFFFFFFFFFFFFFFFFF AND PUSH20 0xFFFFFFFFFFFFFFFFFFFFFFFFFFFFFFFFFFFFFFFF AND DUP2 MSTORE PUSH1 0x20 ADD SWAP1 DUP2 MSTORE PUSH1 0x20 ADD PUSH1 0x0 KECCAK256 PUSH1 0x0 PUSH2 0x100 EXP DUP2 SLOAD DUP2 PUSH1 0xFF MUL NOT AND SWAP1 DUP4 ISZERO ISZERO MUL OR SWAP1 SSTORE POP PUSH3 0x762 PUSH3 0x7D6 PUSH1 0x20 SHL PUSH1 0x20 SHR JUMP JUMPDEST PUSH20 0xFFFFFFFFFFFFFFFFFFFFFFFFFFFFFFFFFFFFFFFF AND PUSH1 0x0 PUSH20 0xFFFFFFFFFFFFFFFFFFFFFFFFFFFFFFFFFFFFFFFF AND PUSH32 0xDDF252AD1BE2C89B69C2B068FC378DAA952BA7F163C4A11628F55A4DF523B3EF PUSH8 0xDE0B6B3A7640000 PUSH1 0x40 MLOAD DUP1 DUP3 DUP2 MSTORE PUSH1 0x20 ADD SWAP2 POP POP PUSH1 0x40 MLOAD DUP1 SWAP2 SUB SWAP1 LOG3 POP PUSH3 0x8AD JUMP JUMPDEST PUSH1 0x0 CALLER SWAP1 POP SWAP1 JUMP JUMPDEST PUSH1 0x0 DUP1 PUSH1 0x0 SWAP1 SLOAD SWAP1 PUSH2 0x100 EXP SWAP1 DIV PUSH20 0xFFFFFFFFFFFFFFFFFFFFFFFFFFFFFFFFFFFFFFFF AND SWAP1 POP SWAP1 JUMP JUMPDEST DUP3 DUP1 SLOAD PUSH1 0x1 DUP2 PUSH1 0x1 AND ISZERO PUSH2 0x100 MUL SUB AND PUSH1 0x2 SWAP1 DIV SWAP1 PUSH1 0x0 MSTORE PUSH1 0x20 PUSH1 0x0 KECCAK256 SWAP1 PUSH1 0x1F ADD PUSH1 0x20 SWAP1 DIV DUP2 ADD SWAP3 DUP3 PUSH1 0x1F LT PUSH3 0x84A JUMPI DUP1 MLOAD PUSH1 0xFF NOT AND DUP4 DUP1 ADD OR DUP6 SSTORE PUSH3 0x87B JUMP JUMPDEST DUP3 DUP1 ADD PUSH1 0x1 ADD DUP6 SSTORE DUP3 ISZERO PUSH3 0x87B JUMPI SWAP2 DUP3 ADD JUMPDEST DUP3 DUP2 GT ISZERO PUSH3 0x87A JUMPI DUP3 MLOAD DUP3 SSTORE SWAP2 PUSH1 0x20 ADD SWAP2 SWAP1 PUSH1 0x1 ADD SWAP1 PUSH3 0x85D JUMP JUMPDEST JUMPDEST POP SWAP1 POP PUSH3 0x88A SWAP2 SWAP1 PUSH3 0x88E JUMP JUMPDEST POP SWAP1 JUMP JUMPDEST JUMPDEST DUP1 DUP3 GT ISZERO PUSH3 0x8A9 JUMPI PUSH1 0x0 DUP2 PUSH1 0x0 SWAP1 SSTORE POP PUSH1 0x1 ADD PUSH3 0x88F JUMP JUMPDEST POP SWAP1 JUMP JUMPDEST PUSH1 0x80 MLOAD PUSH1 0x60 SHR PUSH1 0xA0 MLOAD PUSH1 0x60 SHR PUSH2 0x50E2 PUSH3 0x904 PUSH1 0x0 CODECOPY DUP1 PUSH2 0xE65 MSTORE DUP1 PUSH2 0x1ACD MSTORE DUP1 PUSH2 0x323B MSTORE POP DUP1 PUSH2 0xE38 MSTORE DUP1 PUSH2 0xE8E MSTORE DUP1 PUSH2 0x1171 MSTORE DUP1 PUSH2 0x3F3F MSTORE DUP1 PUSH2 0x402B MSTORE DUP1 PUSH2 0x4052 MSTORE DUP1 PUSH2 0x415D MSTORE DUP1 PUSH2 0x4184 MSTORE POP PUSH2 0x50E2 PUSH1 0x0 RETURN INVALID PUSH1 0x80 PUSH1 0x40 MSTORE PUSH1 0x4 CALLDATASIZE LT PUSH2 0x229 JUMPI PUSH1 0x0 CALLDATALOAD PUSH1 0xE0 SHR DUP1 PUSH4 0x5342ACB4 GT PUSH2 0x123 JUMPI DUP1 PUSH4 0xA457C2D7 GT PUSH2 0xAB JUMPI DUP1 PUSH4 0xD543DBEB GT PUSH2 0x6F JUMPI DUP1 PUSH4 0xD543DBEB EQ PUSH2 0xBCD JUMPI DUP1 PUSH4 0xDD467064 EQ PUSH2 0xC08 JUMPI DUP1 PUSH4 0xDD62ED3E EQ PUSH2 0xC43 JUMPI DUP1 PUSH4 0xEA2F0B37 EQ PUSH2 0xCC8 JUMPI DUP1 PUSH4 0xF2FDE38B EQ PUSH2 0xD19 JUMPI PUSH2 0x230 JUMP JUMPDEST DUP1 PUSH4 0xA457C2D7 EQ PUSH2 0xA6C JUMPI DUP1 PUSH4 0xA69DF4B5 EQ PUSH2 0xADD JUMPI DUP1 PUSH4 0xA9059CBB EQ PUSH2 0xAF4 JUMPI DUP1 PUSH4 0xB6C52324 EQ PUSH2 0xB65 JUMPI DUP1 PUSH4 0xC49B9A80 EQ PUSH2 0xB90 JUMPI PUSH2 0x230 JUMP JUMPDEST DUP1 PUSH4 0x7D1DB4A5 GT PUSH2 0xF2 JUMPI DUP1 PUSH4 0x7D1DB4A5 EQ PUSH2 0x8CE JUMPI DUP1 PUSH4 0x88F82020 EQ PUSH2 0x8F9 JUMPI DUP1 PUSH4 0x8DA5CB5B EQ PUSH2 0x960 JUMPI DUP1 PUSH4 0x8EE88C53 EQ PUSH2 0x9A1 JUMPI DUP1 PUSH4 0x95D89B41 EQ PUSH2 0x9DC JUMPI PUSH2 0x230 JUMP JUMPDEST DUP1 PUSH4 0x5342ACB4 EQ PUSH2 0x7C0 JUMPI DUP1 PUSH4 0x6BC87C3A EQ PUSH2 0x827 JUMPI DUP1 PUSH4 0x70A08231 EQ PUSH2 0x852 JUMPI DUP1 PUSH4 0x715018A6 EQ PUSH2 0x8B7 JUMPI PUSH2 0x230 JUMP JUMPDEST DUP1 PUSH4 0x313CE567 GT PUSH2 0x1B1 JUMPI DUP1 PUSH4 0x437823EC GT PUSH2 0x175 JUMPI DUP1 PUSH4 0x437823EC EQ PUSH2 0x655 JUMPI DUP1 PUSH4 0x4549B039 EQ PUSH2 0x6A6 JUMPI DUP1 PUSH4 0x49BD5A5E EQ PUSH2 0x701 JUMPI DUP1 PUSH4 0x4A74BB02 EQ PUSH2 0x742 JUMPI DUP1 PUSH4 0x52390C02 EQ PUSH2 0x76F JUMPI PUSH2 0x230 JUMP JUMPDEST DUP1 PUSH4 0x313CE567 EQ PUSH2 0x4FF JUMPI DUP1 PUSH4 0x3685D419 EQ PUSH2 0x52D JUMPI DUP1 PUSH4 0x39509351 EQ PUSH2 0x57E JUMPI DUP1 PUSH4 0x3B124FE7 EQ PUSH2 0x5EF JUMPI DUP1 PUSH4 0x3BD5D173 EQ PUSH2 0x61A JUMPI PUSH2 0x230 JUMP JUMPDEST DUP1 PUSH4 0x13114A9D GT PUSH2 0x1F8 JUMPI DUP1 PUSH4 0x13114A9D EQ PUSH2 0x388 JUMPI DUP1 PUSH4 0x1694505E EQ PUSH2 0x3B3 JUMPI DUP1 PUSH4 0x18160DDD EQ PUSH2 0x3F4 JUMPI DUP1 PUSH4 0x23B872DD EQ PUSH2 0x41F JUMPI DUP1 PUSH4 0x2D838119 EQ PUSH2 0x4B0 JUMPI PUSH2 0x230 JUMP JUMPDEST DUP1 PUSH4 0x210A83D EQ PUSH2 0x235 JUMPI DUP1 PUSH4 0x61C82D0 EQ PUSH2 0x24C JUMPI DUP1 PUSH4 0x6FDDE03 EQ PUSH2 0x287 JUMPI DUP1 PUSH4 0x95EA7B3 EQ PUSH2 0x317 JUMPI PUSH2 0x230 JUMP JUMPDEST CALLDATASIZE PUSH2 0x230 JUMPI STOP JUMPDEST PUSH1 0x0 DUP1 REVERT JUMPDEST CALLVALUE DUP1 ISZERO PUSH2 0x241 JUMPI PUSH1 0x0 DUP1 REVERT JUMPDEST POP PUSH2 0x24A PUSH2 0xD6A JUMP JUMPDEST STOP JUMPDEST CALLVALUE DUP1 ISZERO PUSH2 0x258 JUMPI PUSH1 0x0 DUP1 REVERT JUMPDEST POP PUSH2 0x285 PUSH1 0x4 DUP1 CALLDATASIZE SUB PUSH1 0x20 DUP2 LT ISZERO PUSH2 0x26F JUMPI PUSH1 0x0 DUP1 REVERT JUMPDEST DUP2 ADD SWAP1 DUP1 DUP1 CALLDATALOAD SWAP1 PUSH1 0x20 ADD SWAP1 SWAP3 SWAP2 SWAP1 POP POP POP PUSH2 0xFD3 JUMP JUMPDEST STOP JUMPDEST CALLVALUE DUP1 ISZERO PUSH2 0x293 JUMPI PUSH1 0x0 DUP1 REVERT JUMPDEST POP PUSH2 0x29C PUSH2 0x10A5 JUMP JUMPDEST PUSH1 0x40 MLOAD DUP1 DUP1 PUSH1 0x20 ADD DUP3 DUP2 SUB DUP3 MSTORE DUP4 DUP2 DUP2 MLOAD DUP2 MSTORE PUSH1 0x20 ADD SWAP2 POP DUP1 MLOAD SWAP1 PUSH1 0x20 ADD SWAP1 DUP1 DUP4 DUP4 PUSH1 0x0 JUMPDEST DUP4 DUP2 LT ISZERO PUSH2 0x2DC JUMPI DUP1 DUP3 ADD MLOAD DUP2 DUP5 ADD MSTORE PUSH1 0x20 DUP2 ADD SWAP1 POP PUSH2 0x2C1 JUMP JUMPDEST POP POP POP POP SWAP1 POP SWAP1 DUP2 ADD SWAP1 PUSH1 0x1F AND DUP1 ISZERO PUSH2 0x309 JUMPI DUP1 DUP3 SUB DUP1 MLOAD PUSH1 0x1 DUP4 PUSH1 0x20 SUB PUSH2 0x100 EXP SUB NOT AND DUP2 MSTORE PUSH1 0x20 ADD SWAP2 POP JUMPDEST POP SWAP3 POP POP POP PUSH1 0x40 MLOAD DUP1 SWAP2 SUB SWAP1 RETURN JUMPDEST CALLVALUE DUP1 ISZERO PUSH2 0x323 JUMPI PUSH1 0x0 DUP1 REVERT JUMPDEST POP PUSH2 0x370 PUSH1 0x4 DUP1 CALLDATASIZE SUB PUSH1 0x40 DUP2 LT ISZERO PUSH2 0x33A JUMPI PUSH1 0x0 DUP1 REVERT JUMPDEST DUP2 ADD SWAP1 DUP1 DUP1 CALLDATALOAD PUSH20 0xFFFFFFFFFFFFFFFFFFFFFFFFFFFFFFFFFFFFFFFF AND SWAP1 PUSH1 0x20 ADD SWAP1 SWAP3 SWAP2 SWAP1 DUP1 CALLDATALOAD SWAP1 PUSH1 0x20 ADD SWAP1 SWAP3 SWAP2 SWAP1 POP POP POP PUSH2 0x1147 JUMP JUMPDEST PUSH1 0x40 MLOAD DUP1 DUP3 ISZERO ISZERO DUP2 MSTORE PUSH1 0x20 ADD SWAP2 POP POP PUSH1 0x40 MLOAD DUP1 SWAP2 SUB SWAP1 RETURN JUMPDEST CALLVALUE DUP1 ISZERO PUSH2 0x394 JUMPI PUSH1 0x0 DUP1 REVERT JUMPDEST POP PUSH2 0x39D PUSH2 0x1165 JUMP JUMPDEST PUSH1 0x40 MLOAD DUP1 DUP3 DUP2 MSTORE PUSH1 0x20 ADD SWAP2 POP POP PUSH1 0x40 MLOAD DUP1 SWAP2 SUB SWAP1 RETURN JUMPDEST CALLVALUE DUP1 ISZERO PUSH2 0x3BF JUMPI PUSH1 0x0 DUP1 REVERT JUMPDEST POP PUSH2 0x3C8 PUSH2 0x116F JUMP JUMPDEST PUSH1 0x40 MLOAD DUP1 DUP3 PUSH20 0xFFFFFFFFFFFFFFFFFFFFFFFFFFFFFFFFFFFFFFFF AND DUP2 MSTORE PUSH1 0x20 ADD SWAP2 POP POP PUSH1 0x40 MLOAD DUP1 SWAP2 SUB SWAP1 RETURN JUMPDEST CALLVALUE DUP1 ISZERO PUSH2 0x400 JUMPI PUSH1 0x0 DUP1 REVERT JUMPDEST POP PUSH2 0x409 PUSH2 0x1193 JUMP JUMPDEST PUSH1 0x40 MLOAD DUP1 DUP3 DUP2 MSTORE PUSH1 0x20 ADD SWAP2 POP POP PUSH1 0x40 MLOAD DUP1 SWAP2 SUB SWAP1 RETURN JUMPDEST CALLVALUE DUP1 ISZERO PUSH2 0x42B JUMPI PUSH1 0x0 DUP1 REVERT JUMPDEST POP PUSH2 0x498 PUSH1 0x4 DUP1 CALLDATASIZE SUB PUSH1 0x60 DUP2 LT ISZERO PUSH2 0x442 JUMPI PUSH1 0x0 DUP1 REVERT JUMPDEST DUP2 ADD SWAP1 DUP1 DUP1 CALLDATALOAD PUSH20 0xFFFFFFFFFFFFFFFFFFFFFFFFFFFFFFFFFFFFFFFF AND SWAP1 PUSH1 0x20 ADD SWAP1 SWAP3 SWAP2 SWAP1 DUP1 CALLDATALOAD PUSH20 0xFFFFFFFFFFFFFFFFFFFFFFFFFFFFFFFFFFFFFFFF AND SWAP1 PUSH1 0x20 ADD SWAP1 SWAP3 SWAP2 SWAP1 DUP1 CALLDATALOAD SWAP1 PUSH1 0x20 ADD SWAP1 SWAP3 SWAP2 SWAP1 POP POP POP PUSH2 0x11A3 JUMP JUMPDEST PUSH1 0x40 MLOAD DUP1 DUP3 ISZERO ISZERO DUP2 MSTORE PUSH1 0x20 ADD SWAP2 POP POP PUSH1 0x40 MLOAD DUP1 SWAP2 SUB SWAP1 RETURN JUMPDEST CALLVALUE DUP1 ISZERO PUSH2 0x4BC JUMPI PUSH1 0x0 DUP1 REVERT JUMPDEST POP PUSH2 0x4E9 PUSH1 0x4 DUP1 CALLDATASIZE SUB PUSH1 0x20 DUP2 LT ISZERO PUSH2 0x4D3 JUMPI PUSH1 0x0 DUP1 REVERT JUMPDEST DUP2 ADD SWAP1 DUP1 DUP1 CALLDATALOAD SWAP1 PUSH1 0x20 ADD SWAP1 SWAP3 SWAP2 SWAP1 POP POP POP PUSH2 0x127C JUMP JUMPDEST PUSH1 0x40 MLOAD DUP1 DUP3 DUP2 MSTORE PUSH1 0x20 ADD SWAP2 POP POP PUSH1 0x40 MLOAD DUP1 SWAP2 SUB SWAP1 RETURN JUMPDEST CALLVALUE DUP1 ISZERO PUSH2 0x50B JUMPI PUSH1 0x0 DUP1 REVERT JUMPDEST POP PUSH2 0x514 PUSH2 0x1300 JUMP JUMPDEST PUSH1 0x40 MLOAD DUP1 DUP3 PUSH1 0xFF AND DUP2 MSTORE PUSH1 0x20 ADD SWAP2 POP POP PUSH1 0x40 MLOAD DUP1 SWAP2 SUB SWAP1 RETURN JUMPDEST CALLVALUE DUP1 ISZERO PUSH2 0x539 JUMPI PUSH1 0x0 DUP1 REVERT JUMPDEST POP PUSH2 0x57C PUSH1 0x4 DUP1 CALLDATASIZE SUB PUSH1 0x20 DUP2 LT ISZERO PUSH2 0x550 JUMPI PUSH1 0x0 DUP1 REVERT JUMPDEST DUP2 ADD SWAP1 DUP1 DUP1 CALLDATALOAD PUSH20 0xFFFFFFFFFFFFFFFFFFFFFFFFFFFFFFFFFFFFFFFF AND SWAP1 PUSH1 0x20 ADD SWAP1 SWAP3 SWAP2 SWAP1 POP POP POP PUSH2 0x1317 JUMP JUMPDEST STOP JUMPDEST CALLVALUE DUP1 ISZERO PUSH2 0x58A JUMPI PUSH1 0x0 DUP1 REVERT JUMPDEST POP PUSH2 0x5D7 PUSH1 0x4 DUP1 CALLDATASIZE SUB PUSH1 0x40 DUP2 LT ISZERO PUSH2 0x5A1 JUMPI PUSH1 0x0 DUP1 REVERT JUMPDEST DUP2 ADD SWAP1 DUP1 DUP1 CALLDATALOAD PUSH20 0xFFFFFFFFFFFFFFFFFFFFFFFFFFFFFFFFFFFFFFFF AND SWAP1 PUSH1 0x20 ADD SWAP1 SWAP3 SWAP2 SWAP1 DUP1 CALLDATALOAD SWAP1 PUSH1 0x20 ADD SWAP1 SWAP3 SWAP2 SWAP1 POP POP POP PUSH2 0x16A1 JUMP JUMPDEST PUSH1 0x40 MLOAD DUP1 DUP3 ISZERO ISZERO DUP2 MSTORE PUSH1 0x20 ADD SWAP2 POP POP PUSH1 0x40 MLOAD DUP1 SWAP2 SUB SWAP1 RETURN JUMPDEST CALLVALUE DUP1 ISZERO PUSH2 0x5FB JUMPI PUSH1 0x0 DUP1 REVERT JUMPDEST POP PUSH2 0x604 PUSH2 0x1754 JUMP JUMPDEST PUSH1 0x40 MLOAD DUP1 DUP3 DUP2 MSTORE PUSH1 0x20 ADD SWAP2 POP POP PUSH1 0x40 MLOAD DUP1 SWAP2 SUB SWAP1 RETURN JUMPDEST CALLVALUE DUP1 ISZERO PUSH2 0x626 JUMPI PUSH1 0x0 DUP1 REVERT JUMPDEST POP PUSH2 0x653 PUSH1 0x4 DUP1 CALLDATASIZE SUB PUSH1 0x20 DUP2 LT ISZERO PUSH2 0x63D JUMPI PUSH1 0x0 DUP1 REVERT JUMPDEST DUP2 ADD SWAP1 DUP1 DUP1 CALLDATALOAD SWAP1 PUSH1 0x20 ADD SWAP1 SWAP3 SWAP2 SWAP1 POP POP POP PUSH2 0x175A JUMP JUMPDEST STOP JUMPDEST CALLVALUE DUP1 ISZERO PUSH2 0x661 JUMPI PUSH1 0x0 DUP1 REVERT JUMPDEST POP PUSH2 0x6A4 PUSH1 0x4 DUP1 CALLDATASIZE SUB PUSH1 0x20 DUP2 LT ISZERO PUSH2 0x678 JUMPI PUSH1 0x0 DUP1 REVERT JUMPDEST DUP2 ADD SWAP1 DUP1 DUP1 CALLDATALOAD PUSH20 0xFFFFFFFFFFFFFFFFFFFFFFFFFFFFFFFFFFFFFFFF AND SWAP1 PUSH1 0x20 ADD SWAP1 SWAP3 SWAP2 SWAP1 POP POP POP PUSH2 0x18EB JUMP JUMPDEST STOP JUMPDEST CALLVALUE DUP1 ISZERO PUSH2 0x6B2 JUMPI PUSH1 0x0 DUP1 REVERT JUMPDEST POP PUSH2 0x6EB PUSH1 0x4 DUP1 CALLDATASIZE SUB PUSH1 0x40 DUP2 LT ISZERO PUSH2 0x6C9 JUMPI PUSH1 0x0 DUP1 REVERT JUMPDEST DUP2 ADD SWAP1 DUP1 DUP1 CALLDATALOAD SWAP1 PUSH1 0x20 ADD SWAP1 SWAP3 SWAP2 SWAP1 DUP1 CALLDATALOAD ISZERO ISZERO SWAP1 PUSH1 0x20 ADD SWAP1 SWAP3 SWAP2 SWAP1 POP POP POP PUSH2 0x1A0E JUMP JUMPDEST PUSH1 0x40 MLOAD DUP1 DUP3 DUP2 MSTORE PUSH1 0x20 ADD SWAP2 POP POP PUSH1 0x40 MLOAD DUP1 SWAP2 SUB SWAP1 RETURN JUMPDEST CALLVALUE DUP1 ISZERO PUSH2 0x70D JUMPI PUSH1 0x0 DUP1 REVERT JUMPDEST POP PUSH2 0x716 PUSH2 0x1ACB JUMP JUMPDEST PUSH1 0x40 MLOAD DUP1 DUP3 PUSH20 0xFFFFFFFFFFFFFFFFFFFFFFFFFFFFFFFFFFFFFFFF AND DUP2 MSTORE PUSH1 0x20 ADD SWAP2 POP POP PUSH1 0x40 MLOAD DUP1 SWAP2 SUB SWAP1 RETURN JUMPDEST CALLVALUE DUP1 ISZERO PUSH2 0x74E JUMPI PUSH1 0x0 DUP1 REVERT JUMPDEST POP PUSH2 0x757 PUSH2 0x1AEF JUMP JUMPDEST PUSH1 0x40 MLOAD DUP1 DUP3 ISZERO ISZERO DUP2 MSTORE PUSH1 0x20 ADD SWAP2 POP POP PUSH1 0x40 MLOAD DUP1 SWAP2 SUB SWAP1 RETURN JUMPDEST CALLVALUE DUP1 ISZERO PUSH2 0x77B JUMPI PUSH1 0x0 DUP1 REVERT JUMPDEST POP PUSH2 0x7BE PUSH1 0x4 DUP1 CALLDATASIZE SUB PUSH1 0x20 DUP2 LT ISZERO PUSH2 0x792 JUMPI PUSH1 0x0 DUP1 REVERT JUMPDEST DUP2 ADD SWAP1 DUP1 DUP1 CALLDATALOAD PUSH20 0xFFFFFFFFFFFFFFFFFFFFFFFFFFFFFFFFFFFFFFFF AND SWAP1 PUSH1 0x20 ADD SWAP1 SWAP3 SWAP2 SWAP1 POP POP POP PUSH2 0x1B02 JUMP JUMPDEST STOP JUMPDEST CALLVALUE DUP1 ISZERO PUSH2 0x7CC JUMPI PUSH1 0x0 DUP1 REVERT JUMPDEST POP PUSH2 0x80F PUSH1 0x4 DUP1 CALLDATASIZE SUB PUSH1 0x20 DUP2 LT ISZERO PUSH2 0x7E3 JUMPI PUSH1 0x0 DUP1 REVERT JUMPDEST DUP2 ADD SWAP1 DUP1 DUP1 CALLDATALOAD PUSH20 0xFFFFFFFFFFFFFFFFFFFFFFFFFFFFFFFFFFFFFFFF AND SWAP1 PUSH1 0x20 ADD SWAP1 SWAP3 SWAP2 SWAP1 POP POP POP PUSH2 0x1E1C JUMP JUMPDEST PUSH1 0x40 MLOAD DUP1 DUP3 ISZERO ISZERO DUP2 MSTORE PUSH1 0x20 ADD SWAP2 POP POP PUSH1 0x40 MLOAD DUP1 SWAP2 SUB SWAP1 RETURN JUMPDEST CALLVALUE DUP1 ISZERO PUSH2 0x833 JUMPI PUSH1 0x0 DUP1 REVERT JUMPDEST POP PUSH2 0x83C PUSH2 0x1E72 JUMP JUMPDEST PUSH1 0x40 MLOAD DUP1 DUP3 DUP2 MSTORE PUSH1 0x20 ADD SWAP2 POP POP PUSH1 0x40 MLOAD DUP1 SWAP2 SUB SWAP1 RETURN JUMPDEST CALLVALUE DUP1 ISZERO PUSH2 0x85E JUMPI PUSH1 0x0 DUP1 REVERT JUMPDEST POP PUSH2 0x8A1 PUSH1 0x4 DUP1 CALLDATASIZE SUB PUSH1 0x20 DUP2 LT ISZERO PUSH2 0x875 JUMPI PUSH1 0x0 DUP1 REVERT JUMPDEST DUP2 ADD SWAP1 DUP1 DUP1 CALLDATALOAD PUSH20 0xFFFFFFFFFFFFFFFFFFFFFFFFFFFFFFFFFFFFFFFF AND SWAP1 PUSH1 0x20 ADD SWAP1 SWAP3 SWAP2 SWAP1 POP POP POP PUSH2 0x1E78 JUMP JUMPDEST PUSH1 0x40 MLOAD DUP1 DUP3 DUP2 MSTORE PUSH1 0x20 ADD SWAP2 POP POP PUSH1 0x40 MLOAD DUP1 SWAP2 SUB SWAP1 RETURN JUMPDEST CALLVALUE DUP1 ISZERO PUSH2 0x8C3 JUMPI PUSH1 0x0 DUP1 REVERT JUMPDEST POP PUSH2 0x8CC PUSH2 0x1F63 JUMP JUMPDEST STOP JUMPDEST CALLVALUE DUP1 ISZERO PUSH2 0x8DA JUMPI PUSH1 0x0 DUP1 REVERT JUMPDEST POP PUSH2 0x8E3 PUSH2 0x20E9 JUMP JUMPDEST PUSH1 0x40 MLOAD DUP1 DUP3 DUP2 MSTORE PUSH1 0x20 ADD SWAP2 POP POP PUSH1 0x40 MLOAD DUP1 SWAP2 SUB SWAP1 RETURN JUMPDEST CALLVALUE DUP1 ISZERO PUSH2 0x905 JUMPI PUSH1 0x0 DUP1 REVERT JUMPDEST POP PUSH2 0x948 PUSH1 0x4 DUP1 CALLDATASIZE SUB PUSH1 0x20 DUP2 LT ISZERO PUSH2 0x91C JUMPI PUSH1 0x0 DUP1 REVERT JUMPDEST DUP2 ADD SWAP1 DUP1 DUP1 CALLDATALOAD PUSH20 0xFFFFFFFFFFFFFFFFFFFFFFFFFFFFFFFFFFFFFFFF AND SWAP1 PUSH1 0x20 ADD SWAP1 SWAP3 SWAP2 SWAP1 POP POP POP PUSH2 0x20EF JUMP JUMPDEST PUSH1 0x40 MLOAD DUP1 DUP3 ISZERO ISZERO DUP2 MSTORE PUSH1 0x20 ADD SWAP2 POP POP PUSH1 0x40 MLOAD DUP1 SWAP2 SUB SWAP1 RETURN JUMPDEST CALLVALUE DUP1 ISZERO PUSH2 0x96C JUMPI PUSH1 0x0 DUP1 REVERT JUMPDEST POP PUSH2 0x975 PUSH2 0x2145 JUMP JUMPDEST PUSH1 0x40 MLOAD DUP1 DUP3 PUSH20 0xFFFFFFFFFFFFFFFFFFFFFFFFFFFFFFFFFFFFFFFF AND DUP2 MSTORE PUSH1 0x20 ADD SWAP2 POP POP PUSH1 0x40 MLOAD DUP1 SWAP2 SUB SWAP1 RETURN JUMPDEST CALLVALUE DUP1 ISZERO PUSH2 0x9AD JUMPI PUSH1 0x0 DUP1 REVERT JUMPDEST POP PUSH2 0x9DA PUSH1 0x4 DUP1 CALLDATASIZE SUB PUSH1 0x20 DUP2 LT ISZERO PUSH2 0x9C4 JUMPI PUSH1 0x0 DUP1 REVERT JUMPDEST DUP2 ADD SWAP1 DUP1 DUP1 CALLDATALOAD SWAP1 PUSH1 0x20 ADD SWAP1 SWAP3 SWAP2 SWAP1 POP POP POP PUSH2 0x216E JUMP JUMPDEST STOP JUMPDEST CALLVALUE DUP1 ISZERO PUSH2 0x9E8 JUMPI PUSH1 0x0 DUP1 REVERT JUMPDEST POP PUSH2 0x9F1 PUSH2 0x2240 JUMP JUMPDEST PUSH1 0x40 MLOAD DUP1 DUP1 PUSH1 0x20 ADD DUP3 DUP2 SUB DUP3 MSTORE DUP4 DUP2 DUP2 MLOAD DUP2 MSTORE PUSH1 0x20 ADD SWAP2 POP DUP1 MLOAD SWAP1 PUSH1 0x20 ADD SWAP1 DUP1 DUP4 DUP4 PUSH1 0x0 JUMPDEST DUP4 DUP2 LT ISZERO PUSH2 0xA31 JUMPI DUP1 DUP3 ADD MLOAD DUP2 DUP5 ADD MSTORE PUSH1 0x20 DUP2 ADD SWAP1 POP PUSH2 0xA16 JUMP JUMPDEST POP POP POP POP SWAP1 POP SWAP1 DUP2 ADD SWAP1 PUSH1 0x1F AND DUP1 ISZERO PUSH2 0xA5E JUMPI DUP1 DUP3 SUB DUP1 MLOAD PUSH1 0x1 DUP4 PUSH1 0x20 SUB PUSH2 0x100 EXP SUB NOT AND DUP2 MSTORE PUSH1 0x20 ADD SWAP2 POP JUMPDEST POP SWAP3 POP POP POP PUSH1 0x40 MLOAD DUP1 SWAP2 SUB SWAP1 RETURN JUMPDEST CALLVALUE DUP1 ISZERO PUSH2 0xA78 JUMPI PUSH1 0x0 DUP1 REVERT JUMPDEST POP PUSH2 0xAC5 PUSH1 0x4 DUP1 CALLDATASIZE SUB PUSH1 0x40 DUP2 LT ISZERO PUSH2 0xA8F JUMPI PUSH1 0x0 DUP1 REVERT JUMPDEST DUP2 ADD SWAP1 DUP1 DUP1 CALLDATALOAD PUSH20 0xFFFFFFFFFFFFFFFFFFFFFFFFFFFFFFFFFFFFFFFF AND SWAP1 PUSH1 0x20 ADD SWAP1 SWAP3 SWAP2 SWAP1 DUP1 CALLDATALOAD SWAP1 PUSH1 0x20 ADD SWAP1 SWAP3 SWAP2 SWAP1 POP POP POP PUSH2 0x22E2 JUMP JUMPDEST PUSH1 0x40 MLOAD DUP1 DUP3 ISZERO ISZERO DUP2 MSTORE PUSH1 0x20 ADD SWAP2 POP POP PUSH1 0x40 MLOAD DUP1 SWAP2 SUB SWAP1 RETURN JUMPDEST CALLVALUE DUP1 ISZERO PUSH2 0xAE9 JUMPI PUSH1 0x0 DUP1 REVERT JUMPDEST POP PUSH2 0xAF2 PUSH2 0x23AF JUMP JUMPDEST STOP JUMPDEST CALLVALUE DUP1 ISZERO PUSH2 0xB00 JUMPI PUSH1 0x0 DUP1 REVERT JUMPDEST POP PUSH2 0xB4D PUSH1 0x4 DUP1 CALLDATASIZE SUB PUSH1 0x40 DUP2 LT ISZERO PUSH2 0xB17 JUMPI PUSH1 0x0 DUP1 REVERT JUMPDEST DUP2 ADD SWAP1 DUP1 DUP1 CALLDATALOAD PUSH20 0xFFFFFFFFFFFFFFFFFFFFFFFFFFFFFFFFFFFFFFFF AND SWAP1 PUSH1 0x20 ADD SWAP1 SWAP3 SWAP2 SWAP1 DUP1 CALLDATALOAD SWAP1 PUSH1 0x20 ADD SWAP1 SWAP3 SWAP2 SWAP1 POP POP POP PUSH2 0x25CC JUMP JUMPDEST PUSH1 0x40 MLOAD DUP1 DUP3 ISZERO ISZERO DUP2 MSTORE PUSH1 0x20 ADD SWAP2 POP POP PUSH1 0x40 MLOAD DUP1 SWAP2 SUB SWAP1 RETURN JUMPDEST CALLVALUE DUP1 ISZERO PUSH2 0xB71 JUMPI PUSH1 0x0 DUP1 REVERT JUMPDEST POP PUSH2 0xB7A PUSH2 0x25EA JUMP JUMPDEST PUSH1 0x40 MLOAD DUP1 DUP3 DUP2 MSTORE PUSH1 0x20 ADD SWAP2 POP POP PUSH1 0x40 MLOAD DUP1 SWAP2 SUB SWAP1 RETURN JUMPDEST CALLVALUE DUP1 ISZERO PUSH2 0xB9C JUMPI PUSH1 0x0 DUP1 REVERT JUMPDEST POP PUSH2 0xBCB PUSH1 0x4 DUP1 CALLDATASIZE SUB PUSH1 0x20 DUP2 LT ISZERO PUSH2 0xBB3 JUMPI PUSH1 0x0 DUP1 REVERT JUMPDEST DUP2 ADD SWAP1 DUP1 DUP1 CALLDATALOAD ISZERO ISZERO SWAP1 PUSH1 0x20 ADD SWAP1 SWAP3 SWAP2 SWAP1 POP POP POP PUSH2 0x25F4 JUMP JUMPDEST STOP JUMPDEST CALLVALUE DUP1 ISZERO PUSH2 0xBD9 JUMPI PUSH1 0x0 DUP1 REVERT JUMPDEST POP PUSH2 0xC06 PUSH1 0x4 DUP1 CALLDATASIZE SUB PUSH1 0x20 DUP2 LT ISZERO PUSH2 0xBF0 JUMPI PUSH1 0x0 DUP1 REVERT JUMPDEST DUP2 ADD SWAP1 DUP1 DUP1 CALLDATALOAD SWAP1 PUSH1 0x20 ADD SWAP1 SWAP3 SWAP2 SWAP1 POP POP POP PUSH2 0x2712 JUMP JUMPDEST STOP JUMPDEST CALLVALUE DUP1 ISZERO PUSH2 0xC14 JUMPI PUSH1 0x0 DUP1 REVERT JUMPDEST POP PUSH2 0xC41 PUSH1 0x4 DUP1 CALLDATASIZE SUB PUSH1 0x20 DUP2 LT ISZERO PUSH2 0xC2B JUMPI PUSH1 0x0 DUP1 REVERT JUMPDEST DUP2 ADD SWAP1 DUP1 DUP1 CALLDATALOAD SWAP1 PUSH1 0x20 ADD SWAP1 SWAP3 SWAP2 SWAP1 POP POP POP PUSH2 0x2811 JUMP JUMPDEST STOP JUMPDEST CALLVALUE DUP1 ISZERO PUSH2 0xC4F JUMPI PUSH1 0x0 DUP1 REVERT JUMPDEST POP PUSH2 0xCB2 PUSH1 0x4 DUP1 CALLDATASIZE SUB PUSH1 0x40 DUP2 LT ISZERO PUSH2 0xC66 JUMPI PUSH1 0x0 DUP1 REVERT JUMPDEST DUP2 ADD SWAP1 DUP1 DUP1 CALLDATALOAD PUSH20 0xFFFFFFFFFFFFFFFFFFFFFFFFFFFFFFFFFFFFFFFF AND SWAP1 PUSH1 0x20 ADD SWAP1 SWAP3 SWAP2 SWAP1 DUP1 CALLDATALOAD PUSH20 0xFFFFFFFFFFFFFFFFFFFFFFFFFFFFFFFFFFFFFFFF AND SWAP1 PUSH1 0x20 ADD SWAP1 SWAP3 SWAP2 SWAP1 POP POP POP PUSH2 0x2A02 JUMP JUMPDEST PUSH1 0x40 MLOAD DUP1 DUP3 DUP2 MSTORE PUSH1 0x20 ADD SWAP2 POP POP PUSH1 0x40 MLOAD DUP1 SWAP2 SUB SWAP1 RETURN JUMPDEST CALLVALUE DUP1 ISZERO PUSH2 0xCD4 JUMPI PUSH1 0x0 DUP1 REVERT JUMPDEST POP PUSH2 0xD17 PUSH1 0x4 DUP1 CALLDATASIZE SUB PUSH1 0x20 DUP2 LT ISZERO PUSH2 0xCEB JUMPI PUSH1 0x0 DUP1 REVERT JUMPDEST DUP2 ADD SWAP1 DUP1 DUP1 CALLDATALOAD PUSH20 0xFFFFFFFFFFFFFFFFFFFFFFFFFFFFFFFFFFFFFFFF AND SWAP1 PUSH1 0x20 ADD SWAP1 SWAP3 SWAP2 SWAP1 POP POP POP PUSH2 0x2A89 JUMP JUMPDEST STOP JUMPDEST CALLVALUE DUP1 ISZERO PUSH2 0xD25 JUMPI PUSH1 0x0 DUP1 REVERT JUMPDEST POP PUSH2 0xD68 PUSH1 0x4 DUP1 CALLDATASIZE SUB PUSH1 0x20 DUP2 LT ISZERO PUSH2 0xD3C JUMPI PUSH1 0x0 DUP1 REVERT JUMPDEST DUP2 ADD SWAP1 DUP1 DUP1 CALLDATALOAD PUSH20 0xFFFFFFFFFFFFFFFFFFFFFFFFFFFFFFFFFFFFFFFF AND SWAP1 PUSH1 0x20 ADD SWAP1 SWAP3 SWAP2 SWAP1 POP POP POP PUSH2 0x2BAC JUMP JUMPDEST STOP JUMPDEST PUSH2 0xD72 PUSH2 0x2DB7 JUMP JUMPDEST PUSH20 0xFFFFFFFFFFFFFFFFFFFFFFFFFFFFFFFFFFFFFFFF AND PUSH1 0x0 DUP1 SLOAD SWAP1 PUSH2 0x100 EXP SWAP1 DIV PUSH20 0xFFFFFFFFFFFFFFFFFFFFFFFFFFFFFFFFFFFFFFFF AND PUSH20 0xFFFFFFFFFFFFFFFFFFFFFFFFFFFFFFFFFFFFFFFF AND EQ PUSH2 0xE32 JUMPI PUSH1 0x40 MLOAD PUSH32 0x8C379A000000000000000000000000000000000000000000000000000000000 DUP2 MSTORE PUSH1 0x4 ADD DUP1 DUP1 PUSH1 0x20 ADD DUP3 DUP2 SUB DUP3 MSTORE PUSH1 0x20 DUP2 MSTORE PUSH1 0x20 ADD DUP1 PUSH32 0x4F776E61626C653A2063616C6C6572206973206E6F7420746865206F776E6572 DUP2 MSTORE POP PUSH1 0x20 ADD SWAP2 POP POP PUSH1 0x40 MLOAD DUP1 SWAP2 SUB SWAP1 REVERT JUMPDEST PUSH2 0xE5F ADDRESS PUSH32 0x0 PUSH1 0x0 NOT PUSH2 0x2DBF JUMP JUMPDEST PUSH2 0xE8C ADDRESS PUSH32 0x0 PUSH1 0x0 NOT PUSH2 0x2DBF JUMP JUMPDEST PUSH32 0x0 PUSH20 0xFFFFFFFFFFFFFFFFFFFFFFFFFFFFFFFFFFFFFFFF AND PUSH4 0xF305D719 SELFBALANCE ADDRESS PUSH2 0xED3 ADDRESS PUSH2 0x1E78 JUMP JUMPDEST PUSH1 0x0 DUP1 PUSH2 0xEDE PUSH2 0x2145 JUMP JUMPDEST TIMESTAMP PUSH1 0x40 MLOAD DUP9 PUSH4 0xFFFFFFFF AND PUSH1 0xE0 SHL DUP2 MSTORE PUSH1 0x4 ADD DUP1 DUP8 PUSH20 0xFFFFFFFFFFFFFFFFFFFFFFFFFFFFFFFFFFFFFFFF AND DUP2 MSTORE PUSH1 0x20 ADD DUP7 DUP2 MSTORE PUSH1 0x20 ADD DUP6 DUP2 MSTORE PUSH1 0x20 ADD DUP5 DUP2 MSTORE PUSH1 0x20 ADD DUP4 PUSH20 0xFFFFFFFFFFFFFFFFFFFFFFFFFFFFFFFFFFFFFFFF AND DUP2 MSTORE PUSH1 0x20 ADD DUP3 DUP2 MSTORE PUSH1 0x20 ADD SWAP7 POP POP POP POP POP POP POP PUSH1 0x60 PUSH1 0x40 MLOAD DUP1 DUP4 SUB DUP2 DUP6 DUP9 DUP1 EXTCODESIZE ISZERO DUP1 ISZERO PUSH2 0xF63 JUMPI PUSH1 0x0 DUP1 REVERT JUMPDEST POP GAS CALL ISZERO DUP1 ISZERO PUSH2 0xF77 JUMPI RETURNDATASIZE PUSH1 0x0 DUP1 RETURNDATACOPY RETURNDATASIZE PUSH1 0x0 REVERT JUMPDEST POP POP POP POP POP PUSH1 0x40 MLOAD RETURNDATASIZE PUSH1 0x60 DUP2 LT ISZERO PUSH2 0xF8E JUMPI PUSH1 0x0 DUP1 REVERT JUMPDEST DUP2 ADD SWAP1 DUP1 DUP1 MLOAD SWAP1 PUSH1 0x20 ADD SWAP1 SWAP3 SWAP2 SWAP1 DUP1 MLOAD SWAP1 PUSH1 0x20 ADD SWAP1 SWAP3 SWAP2 SWAP1 DUP1 MLOAD SWAP1 PUSH1 0x20 ADD SWAP1 SWAP3 SWAP2 SWAP1 POP POP POP POP POP POP PUSH1 0x1 PUSH1 0x15 PUSH1 0x2 PUSH2 0x100 EXP DUP2 SLOAD DUP2 PUSH1 0xFF MUL NOT AND SWAP1 DUP4 ISZERO ISZERO MUL OR SWAP1 SSTORE POP JUMP JUMPDEST PUSH2 0xFDB PUSH2 0x2DB7 JUMP JUMPDEST PUSH20 0xFFFFFFFFFFFFFFFFFFFFFFFFFFFFFFFFFFFFFFFF AND PUSH1 0x0 DUP1 SLOAD SWAP1 PUSH2 0x100 EXP SWAP1 DIV PUSH20 0xFFFFFFFFFFFFFFFFFFFFFFFFFFFFFFFFFFFFFFFF AND PUSH20 0xFFFFFFFFFFFFFFFFFFFFFFFFFFFFFFFFFFFFFFFF AND EQ PUSH2 0x109B JUMPI PUSH1 0x40 MLOAD PUSH32 0x8C379A000000000000000000000000000000000000000000000000000000000 DUP2 MSTORE PUSH1 0x4 ADD DUP1 DUP1 PUSH1 0x20 ADD DUP3 DUP2 SUB DUP3 MSTORE PUSH1 0x20 DUP2 MSTORE PUSH1 0x20 ADD DUP1 PUSH32 0x4F776E61626C653A2063616C6C6572206973206E6F7420746865206F776E6572 DUP2 MSTORE POP PUSH1 0x20 ADD SWAP2 POP POP PUSH1 0x40 MLOAD DUP1 SWAP2 SUB SWAP1 REVERT JUMPDEST DUP1 PUSH1 0x11 DUP2 SWAP1 SSTORE POP POP JUMP JUMPDEST PUSH1 0x60 PUSH1 0xE DUP1 SLOAD PUSH1 0x1 DUP2 PUSH1 0x1 AND ISZERO PUSH2 0x100 MUL SUB AND PUSH1 0x2 SWAP1 DIV DUP1 PUSH1 0x1F ADD PUSH1 0x20 DUP1 SWAP2 DIV MUL PUSH1 0x20 ADD PUSH1 0x40 MLOAD SWAP1 DUP2 ADD PUSH1 0x40 MSTORE DUP1 SWAP3 SWAP2 SWAP1 DUP2 DUP2 MSTORE PUSH1 0x20 ADD DUP3 DUP1 SLOAD PUSH1 0x1 DUP2 PUSH1 0x1 AND ISZERO PUSH2 0x100 MUL SUB AND PUSH1 0x2 SWAP1 DIV DUP1 ISZERO PUSH2 0x113D JUMPI DUP1 PUSH1 0x1F LT PUSH2 0x1112 JUMPI PUSH2 0x100 DUP1 DUP4 SLOAD DIV MUL DUP4 MSTORE SWAP2 PUSH1 0x20 ADD SWAP2 PUSH2 0x113D JUMP JUMPDEST DUP3 ADD SWAP2 SWAP1 PUSH1 0x0 MSTORE PUSH1 0x20 PUSH1 0x0 KECCAK256 SWAP1 JUMPDEST DUP2 SLOAD DUP2 MSTORE SWAP1 PUSH1 0x1 ADD SWAP1 PUSH1 0x20 ADD DUP1 DUP4 GT PUSH2 0x1120 JUMPI DUP3 SWAP1 SUB PUSH1 0x1F AND DUP3 ADD SWAP2 JUMPDEST POP POP POP POP POP SWAP1 POP SWAP1 JUMP JUMPDEST PUSH1 0x0 PUSH2 0x115B PUSH2 0x1154 PUSH2 0x2DB7 JUMP JUMPDEST DUP5 DUP5 PUSH2 0x2DBF JUMP JUMPDEST PUSH1 0x1 SWAP1 POP SWAP3 SWAP2 POP POP JUMP JUMPDEST PUSH1 0x0 PUSH1 0xD SLOAD SWAP1 POP SWAP1 JUMP JUMPDEST PUSH32 0x0 DUP2 JUMP JUMPDEST PUSH1 0x0 PUSH8 0xDE0B6B3A7640000 SWAP1 POP SWAP1 JUMP JUMPDEST PUSH1 0x0 PUSH2 0x11B0 DUP5 DUP5 DUP5 PUSH2 0x2FB6 JUMP JUMPDEST PUSH2 0x1271 DUP5 PUSH2 0x11BC PUSH2 0x2DB7 JUMP JUMPDEST PUSH2 0x126C DUP6 PUSH1 0x40 MLOAD DUP1 PUSH1 0x60 ADD PUSH1 0x40 MSTORE DUP1 PUSH1 0x28 DUP2 MSTORE PUSH1 0x20 ADD PUSH2 0x4F9F PUSH1 0x28 SWAP2 CODECOPY PUSH1 0x5 PUSH1 0x0 DUP12 PUSH20 0xFFFFFFFFFFFFFFFFFFFFFFFFFFFFFFFFFFFFFFFF AND PUSH20 0xFFFFFFFFFFFFFFFFFFFFFFFFFFFFFFFFFFFFFFFF AND DUP2 MSTORE PUSH1 0x20 ADD SWAP1 DUP2 MSTORE PUSH1 0x20 ADD PUSH1 0x0 KECCAK256 PUSH1 0x0 PUSH2 0x1222 PUSH2 0x2DB7 JUMP JUMPDEST PUSH20 0xFFFFFFFFFFFFFFFFFFFFFFFFFFFFFFFFFFFFFFFF AND PUSH20 0xFFFFFFFFFFFFFFFFFFFFFFFFFFFFFFFFFFFFFFFF AND DUP2 MSTORE PUSH1 0x20 ADD SWAP1 DUP2 MSTORE PUSH1 0x20 ADD PUSH1 0x0 KECCAK256 SLOAD PUSH2 0x337B SWAP1 SWAP3 SWAP2 SWAP1 PUSH4 0xFFFFFFFF AND JUMP JUMPDEST PUSH2 0x2DBF JUMP JUMPDEST PUSH1 0x1 SWAP1 POP SWAP4 SWAP3 POP POP POP JUMP JUMPDEST PUSH1 0x0 PUSH1 0xC SLOAD DUP3 GT ISZERO PUSH2 0x12D9 JUMPI PUSH1 0x40 MLOAD PUSH32 0x8C379A000000000000000000000000000000000000000000000000000000000 DUP2 MSTORE PUSH1 0x4 ADD DUP1 DUP1 PUSH1 0x20 ADD DUP3 DUP2 SUB DUP3 MSTORE PUSH1 0x2A DUP2 MSTORE PUSH1 0x20 ADD DUP1 PUSH2 0x4EE4 PUSH1 0x2A SWAP2 CODECOPY PUSH1 0x40 ADD SWAP2 POP POP PUSH1 0x40 MLOAD DUP1 SWAP2 SUB SWAP1 REVERT JUMPDEST PUSH1 0x0 PUSH2 0x12E3 PUSH2 0x343B JUMP JUMPDEST SWAP1 POP PUSH2 0x12F8 DUP2 DUP5 PUSH2 0x3466 SWAP1 SWAP2 SWAP1 PUSH4 0xFFFFFFFF AND JUMP JUMPDEST SWAP2 POP POP SWAP2 SWAP1 POP JUMP JUMPDEST PUSH1 0x0 PUSH1 0x10 PUSH1 0x0 SWAP1 SLOAD SWAP1 PUSH2 0x100 EXP SWAP1 DIV PUSH1 0xFF AND SWAP1 POP SWAP1 JUMP JUMPDEST PUSH2 0x131F PUSH2 0x2DB7 JUMP JUMPDEST PUSH20 0xFFFFFFFFFFFFFFFFFFFFFFFFFFFFFFFFFFFFFFFF AND PUSH1 0x0 DUP1 SLOAD SWAP1 PUSH2 0x100 EXP SWAP1 DIV PUSH20 0xFFFFFFFFFFFFFFFFFFFFFFFFFFFFFFFFFFFFFFFF AND PUSH20 0xFFFFFFFFFFFFFFFFFFFFFFFFFFFFFFFFFFFFFFFF AND EQ PUSH2 0x13DF JUMPI PUSH1 0x40 MLOAD PUSH32 0x8C379A000000000000000000000000000000000000000000000000000000000 DUP2 MSTORE PUSH1 0x4 ADD DUP1 DUP1 PUSH1 0x20 ADD DUP3 DUP2 SUB DUP3 MSTORE PUSH1 0x20 DUP2 MSTORE PUSH1 0x20 ADD DUP1 PUSH32 0x4F776E61626C653A2063616C6C6572206973206E6F7420746865206F776E6572 DUP2 MSTORE POP PUSH1 0x20 ADD SWAP2 POP POP PUSH1 0x40 MLOAD DUP1 SWAP2 SUB SWAP1 REVERT JUMPDEST PUSH1 0x7 PUSH1 0x0 DUP3 PUSH20 0xFFFFFFFFFFFFFFFFFFFFFFFFFFFFFFFFFFFFFFFF AND PUSH20 0xFFFFFFFFFFFFFFFFFFFFFFFFFFFFFFFFFFFFFFFF AND DUP2 MSTORE PUSH1 0x20 ADD SWAP1 DUP2 MSTORE PUSH1 0x20 ADD PUSH1 0x0 KECCAK256 PUSH1 0x0 SWAP1 SLOAD SWAP1 PUSH2 0x100 EXP SWAP1 DIV PUSH1 0xFF AND PUSH2 0x149E JUMPI PUSH1 0x40 MLOAD PUSH32 0x8C379A000000000000000000000000000000000000000000000000000000000 DUP2 MSTORE PUSH1 0x4 ADD DUP1 DUP1 PUSH1 0x20 ADD DUP3 DUP2 SUB DUP3 MSTORE PUSH1 0x1B DUP2 MSTORE PUSH1 0x20 ADD DUP1 PUSH32 0x4163636F756E7420697320616C7265616479206578636C756465640000000000 DUP2 MSTORE POP PUSH1 0x20 ADD SWAP2 POP POP PUSH1 0x40 MLOAD DUP1 SWAP2 SUB SWAP1 REVERT JUMPDEST PUSH1 0x0 JUMPDEST PUSH1 0x8 DUP1 SLOAD SWAP1 POP DUP2 LT ISZERO PUSH2 0x169D JUMPI DUP2 PUSH20 0xFFFFFFFFFFFFFFFFFFFFFFFFFFFFFFFFFFFFFFFF AND PUSH1 0x8 DUP3 DUP2 SLOAD DUP2 LT PUSH2 0x14D2 JUMPI INVALID JUMPDEST SWAP1 PUSH1 0x0 MSTORE PUSH1 0x20 PUSH1 0x0 KECCAK256 ADD PUSH1 0x0 SWAP1 SLOAD SWAP1 PUSH2 0x100 EXP SWAP1 DIV PUSH20 0xFFFFFFFFFFFFFFFFFFFFFFFFFFFFFFFFFFFFFFFF AND PUSH20 0xFFFFFFFFFFFFFFFFFFFFFFFFFFFFFFFFFFFFFFFF AND EQ ISZERO PUSH2 0x1690 JUMPI PUSH1 0x8 PUSH1 0x1 PUSH1 0x8 DUP1 SLOAD SWAP1 POP SUB DUP2 SLOAD DUP2 LT PUSH2 0x152E JUMPI INVALID JUMPDEST SWAP1 PUSH1 0x0 MSTORE PUSH1 0x20 PUSH1 0x0 KECCAK256 ADD PUSH1 0x0 SWAP1 SLOAD SWAP1 PUSH2 0x100 EXP SWAP1 DIV PUSH20 0xFFFFFFFFFFFFFFFFFFFFFFFFFFFFFFFFFFFFFFFF AND PUSH1 0x8 DUP3 DUP2 SLOAD DUP2 LT PUSH2 0x1566 JUMPI INVALID JUMPDEST SWAP1 PUSH1 0x0 MSTORE PUSH1 0x20 PUSH1 0x0 KECCAK256 ADD PUSH1 0x0 PUSH2 0x100 EXP DUP2 SLOAD DUP2 PUSH20 0xFFFFFFFFFFFFFFFFFFFFFFFFFFFFFFFFFFFFFFFF MUL NOT AND SWAP1 DUP4 PUSH20 0xFFFFFFFFFFFFFFFFFFFFFFFFFFFFFFFFFFFFFFFF AND MUL OR SWAP1 SSTORE POP PUSH1 0x0 PUSH1 0x4 PUSH1 0x0 DUP5 PUSH20 0xFFFFFFFFFFFFFFFFFFFFFFFFFFFFFFFFFFFFFFFF AND PUSH20 0xFFFFFFFFFFFFFFFFFFFFFFFFFFFFFFFFFFFFFFFF AND DUP2 MSTORE PUSH1 0x20 ADD SWAP1 DUP2 MSTORE PUSH1 0x20 ADD PUSH1 0x0 KECCAK256 DUP2 SWAP1 SSTORE POP PUSH1 0x0 PUSH1 0x7 PUSH1 0x0 DUP5 PUSH20 0xFFFFFFFFFFFFFFFFFFFFFFFFFFFFFFFFFFFFFFFF AND PUSH20 0xFFFFFFFFFFFFFFFFFFFFFFFFFFFFFFFFFFFFFFFF AND DUP2 MSTORE PUSH1 0x20 ADD SWAP1 DUP2 MSTORE PUSH1 0x20 ADD PUSH1 0x0 KECCAK256 PUSH1 0x0 PUSH2 0x100 EXP DUP2 SLOAD DUP2 PUSH1 0xFF MUL NOT AND SWAP1 DUP4 ISZERO ISZERO MUL OR SWAP1 SSTORE POP PUSH1 0x8 DUP1 SLOAD DUP1 PUSH2 0x1656 JUMPI INVALID JUMPDEST PUSH1 0x1 SWAP1 SUB DUP2 DUP2 SWAP1 PUSH1 0x0 MSTORE PUSH1 0x20 PUSH1 0x0 KECCAK256 ADD PUSH1 0x0 PUSH2 0x100 EXP DUP2 SLOAD SWAP1 PUSH20 0xFFFFFFFFFFFFFFFFFFFFFFFFFFFFFFFFFFFFFFFF MUL NOT AND SWAP1 SSTORE SWAP1 SSTORE PUSH2 0x169D JUMP JUMPDEST DUP1 DUP1 PUSH1 0x1 ADD SWAP2 POP POP PUSH2 0x14A1 JUMP JUMPDEST POP POP JUMP JUMPDEST PUSH1 0x0 PUSH2 0x174A PUSH2 0x16AE PUSH2 0x2DB7 JUMP JUMPDEST DUP5 PUSH2 0x1745 DUP6 PUSH1 0x5 PUSH1 0x0 PUSH2 0x16BF PUSH2 0x2DB7 JUMP JUMPDEST PUSH20 0xFFFFFFFFFFFFFFFFFFFFFFFFFFFFFFFFFFFFFFFF AND PUSH20 0xFFFFFFFFFFFFFFFFFFFFFFFFFFFFFFFFFFFFFFFF AND DUP2 MSTORE PUSH1 0x20 ADD SWAP1 DUP2 MSTORE PUSH1 0x20 ADD PUSH1 0x0 KECCAK256 PUSH1 0x0 DUP10 PUSH20 0xFFFFFFFFFFFFFFFFFFFFFFFFFFFFFFFFFFFFFFFF AND PUSH20 0xFFFFFFFFFFFFFFFFFFFFFFFFFFFFFFFFFFFFFFFF AND DUP2 MSTORE PUSH1 0x20 ADD SWAP1 DUP2 MSTORE PUSH1 0x20 ADD PUSH1 0x0 KECCAK256 SLOAD PUSH2 0x34B0 SWAP1 SWAP2 SWAP1 PUSH4 0xFFFFFFFF AND JUMP JUMPDEST PUSH2 0x2DBF JUMP JUMPDEST PUSH1 0x1 SWAP1 POP SWAP3 SWAP2 POP POP JUMP JUMPDEST PUSH1 0x11 SLOAD DUP2 JUMP JUMPDEST PUSH1 0x0 PUSH2 0x1764 PUSH2 0x2DB7 JUMP JUMPDEST SWAP1 POP PUSH1 0x7 PUSH1 0x0 DUP3 PUSH20 0xFFFFFFFFFFFFFFFFFFFFFFFFFFFFFFFFFFFFFFFF AND PUSH20 0xFFFFFFFFFFFFFFFFFFFFFFFFFFFFFFFFFFFFFFFF AND DUP2 MSTORE PUSH1 0x20 ADD SWAP1 DUP2 MSTORE PUSH1 0x20 ADD PUSH1 0x0 KECCAK256 PUSH1 0x0 SWAP1 SLOAD SWAP1 PUSH2 0x100 EXP SWAP1 DIV PUSH1 0xFF AND ISZERO PUSH2 0x1809 JUMPI PUSH1 0x40 MLOAD PUSH32 0x8C379A000000000000000000000000000000000000000000000000000000000 DUP2 MSTORE PUSH1 0x4 ADD DUP1 DUP1 PUSH1 0x20 ADD DUP3 DUP2 SUB DUP3 MSTORE PUSH1 0x2C DUP2 MSTORE PUSH1 0x20 ADD DUP1 PUSH2 0x5039 PUSH1 0x2C SWAP2 CODECOPY PUSH1 0x40 ADD SWAP2 POP POP PUSH1 0x40 MLOAD DUP1 SWAP2 SUB SWAP1 REVERT JUMPDEST PUSH1 0x0 PUSH2 0x1814 DUP4 PUSH2 0x3538 JUMP JUMPDEST POP POP POP POP POP SWAP1 POP PUSH2 0x186D DUP2 PUSH1 0x3 PUSH1 0x0 DUP6 PUSH20 0xFFFFFFFFFFFFFFFFFFFFFFFFFFFFFFFFFFFFFFFF AND PUSH20 0xFFFFFFFFFFFFFFFFFFFFFFFFFFFFFFFFFFFFFFFF AND DUP2 MSTORE PUSH1 0x20 ADD SWAP1 DUP2 MSTORE PUSH1 0x20 ADD PUSH1 0x0 KECCAK256 SLOAD PUSH2 0x3594 SWAP1 SWAP2 SWAP1 PUSH4 0xFFFFFFFF AND JUMP JUMPDEST PUSH1 0x3 PUSH1 0x0 DUP5 PUSH20 0xFFFFFFFFFFFFFFFFFFFFFFFFFFFFFFFFFFFFFFFF AND PUSH20 0xFFFFFFFFFFFFFFFFFFFFFFFFFFFFFFFFFFFFFFFF AND DUP2 MSTORE PUSH1 0x20 ADD SWAP1 DUP2 MSTORE PUSH1 0x20 ADD PUSH1 0x0 KECCAK256 DUP2 SWAP1 SSTORE POP PUSH2 0x18C5 DUP2 PUSH1 0xC SLOAD PUSH2 0x3594 SWAP1 SWAP2 SWAP1 PUSH4 0xFFFFFFFF AND JUMP JUMPDEST PUSH1 0xC DUP2 SWAP1 SSTORE POP PUSH2 0x18E0 DUP4 PUSH1 0xD SLOAD PUSH2 0x34B0 SWAP1 SWAP2 SWAP1 PUSH4 0xFFFFFFFF AND JUMP JUMPDEST PUSH1 0xD DUP2 SWAP1 SSTORE POP POP POP POP JUMP JUMPDEST PUSH2 0x18F3 PUSH2 0x2DB7 JUMP JUMPDEST PUSH20 0xFFFFFFFFFFFFFFFFFFFFFFFFFFFFFFFFFFFFFFFF AND PUSH1 0x0 DUP1 SLOAD SWAP1 PUSH2 0x100 EXP SWAP1 DIV PUSH20 0xFFFFFFFFFFFFFFFFFFFFFFFFFFFFFFFFFFFFFFFF AND PUSH20 0xFFFFFFFFFFFFFFFFFFFFFFFFFFFFFFFFFFFFFFFF AND EQ PUSH2 0x19B3 JUMPI PUSH1 0x40 MLOAD PUSH32 0x8C379A000000000000000000000000000000000000000000000000000000000 DUP2 MSTORE PUSH1 0x4 ADD DUP1 DUP1 PUSH1 0x20 ADD DUP3 DUP2 SUB DUP3 MSTORE PUSH1 0x20 DUP2 MSTORE PUSH1 0x20 ADD DUP1 PUSH32 0x4F776E61626C653A2063616C6C6572206973206E6F7420746865206F776E6572 DUP2 MSTORE POP PUSH1 0x20 ADD SWAP2 POP POP PUSH1 0x40 MLOAD DUP1 SWAP2 SUB SWAP1 REVERT JUMPDEST PUSH1 0x1 PUSH1 0x6 PUSH1 0x0 DUP4 PUSH20 0xFFFFFFFFFFFFFFFFFFFFFFFFFFFFFFFFFFFFFFFF AND PUSH20 0xFFFFFFFFFFFFFFFFFFFFFFFFFFFFFFFFFFFFFFFF AND DUP2 MSTORE PUSH1 0x20 ADD SWAP1 DUP2 MSTORE PUSH1 0x20 ADD PUSH1 0x0 KECCAK256 PUSH1 0x0 PUSH2 0x100 EXP DUP2 SLOAD DUP2 PUSH1 0xFF MUL NOT AND SWAP1 DUP4 ISZERO ISZERO MUL OR SWAP1 SSTORE POP POP JUMP JUMPDEST PUSH1 0x0 PUSH8 0xDE0B6B3A7640000 DUP4 GT ISZERO PUSH2 0x1A8E JUMPI PUSH1 0x40 MLOAD PUSH32 0x8C379A000000000000000000000000000000000000000000000000000000000 DUP2 MSTORE PUSH1 0x4 ADD DUP1 DUP1 PUSH1 0x20 ADD DUP3 DUP2 SUB DUP3 MSTORE PUSH1 0x1F DUP2 MSTORE PUSH1 0x20 ADD DUP1 PUSH32 0x416D6F756E74206D757374206265206C657373207468616E20737570706C7900 DUP2 MSTORE POP PUSH1 0x20 ADD SWAP2 POP POP PUSH1 0x40 MLOAD DUP1 SWAP2 SUB SWAP1 REVERT JUMPDEST DUP2 PUSH2 0x1AAE JUMPI PUSH1 0x0 PUSH2 0x1A9E DUP5 PUSH2 0x3538 JUMP JUMPDEST POP POP POP POP POP SWAP1 POP DUP1 SWAP2 POP POP PUSH2 0x1AC5 JUMP JUMPDEST PUSH1 0x0 PUSH2 0x1AB9 DUP5 PUSH2 0x3538 JUMP JUMPDEST POP POP POP POP SWAP2 POP POP DUP1 SWAP2 POP POP JUMPDEST SWAP3 SWAP2 POP POP JUMP JUMPDEST PUSH32 0x0 DUP2 JUMP JUMPDEST PUSH1 0x15 PUSH1 0x1 SWAP1 SLOAD SWAP1 PUSH2 0x100 EXP SWAP1 DIV PUSH1 0xFF AND DUP2 JUMP JUMPDEST PUSH2 0x1B0A PUSH2 0x2DB7 JUMP JUMPDEST PUSH20 0xFFFFFFFFFFFFFFFFFFFFFFFFFFFFFFFFFFFFFFFF AND PUSH1 0x0 DUP1 SLOAD SWAP1 PUSH2 0x100 EXP SWAP1 DIV PUSH20 0xFFFFFFFFFFFFFFFFFFFFFFFFFFFFFFFFFFFFFFFF AND PUSH20 0xFFFFFFFFFFFFFFFFFFFFFFFFFFFFFFFFFFFFFFFF AND EQ PUSH2 0x1BCA JUMPI PUSH1 0x40 MLOAD PUSH32 0x8C379A000000000000000000000000000000000000000000000000000000000 DUP2 MSTORE PUSH1 0x4 ADD DUP1 DUP1 PUSH1 0x20 ADD DUP3 DUP2 SUB DUP3 MSTORE PUSH1 0x20 DUP2 MSTORE PUSH1 0x20 ADD DUP1 PUSH32 0x4F776E61626C653A2063616C6C6572206973206E6F7420746865206F776E6572 DUP2 MSTORE POP PUSH1 0x20 ADD SWAP2 POP POP PUSH1 0x40 MLOAD DUP1 SWAP2 SUB SWAP1 REVERT JUMPDEST PUSH1 0x7 PUSH1 0x0 DUP3 PUSH20 0xFFFFFFFFFFFFFFFFFFFFFFFFFFFFFFFFFFFFFFFF AND PUSH20 0xFFFFFFFFFFFFFFFFFFFFFFFFFFFFFFFFFFFFFFFF AND DUP2 MSTORE PUSH1 0x20 ADD SWAP1 DUP2 MSTORE PUSH1 0x20 ADD PUSH1 0x0 KECCAK256 PUSH1 0x0 SWAP1 SLOAD SWAP1 PUSH2 0x100 EXP SWAP1 DIV PUSH1 0xFF AND ISZERO PUSH2 0x1C8A JUMPI PUSH1 0x40 MLOAD PUSH32 0x8C379A000000000000000000000000000000000000000000000000000000000 DUP2 MSTORE PUSH1 0x4 ADD DUP1 DUP1 PUSH1 0x20 ADD DUP3 DUP2 SUB DUP3 MSTORE PUSH1 0x1B DUP2 MSTORE PUSH1 0x20 ADD DUP1 PUSH32 0x4163636F756E7420697320616C7265616479206578636C756465640000000000 DUP2 MSTORE POP PUSH1 0x20 ADD SWAP2 POP POP PUSH1 0x40 MLOAD DUP1 SWAP2 SUB SWAP1 REVERT JUMPDEST PUSH1 0x0 PUSH1 0x3 PUSH1 0x0 DUP4 PUSH20 0xFFFFFFFFFFFFFFFFFFFFFFFFFFFFFFFFFFFFFFFF AND PUSH20 0xFFFFFFFFFFFFFFFFFFFFFFFFFFFFFFFFFFFFFFFF AND DUP2 MSTORE PUSH1 0x20 ADD SWAP1 DUP2 MSTORE PUSH1 0x20 ADD PUSH1 0x0 KECCAK256 SLOAD GT ISZERO PUSH2 0x1D5E JUMPI PUSH2 0x1D1A PUSH1 0x3 PUSH1 0x0 DUP4 PUSH20 0xFFFFFFFFFFFFFFFFFFFFFFFFFFFFFFFFFFFFFFFF AND PUSH20 0xFFFFFFFFFFFFFFFFFFFFFFFFFFFFFFFFFFFFFFFF AND DUP2 MSTORE PUSH1 0x20 ADD SWAP1 DUP2 MSTORE PUSH1 0x20 ADD PUSH1 0x0 KECCAK256 SLOAD PUSH2 0x127C JUMP JUMPDEST PUSH1 0x4 PUSH1 0x0 DUP4 PUSH20 0xFFFFFFFFFFFFFFFFFFFFFFFFFFFFFFFFFFFFFFFF AND PUSH20 0xFFFFFFFFFFFFFFFFFFFFFFFFFFFFFFFFFFFFFFFF AND DUP2 MSTORE PUSH1 0x20 ADD SWAP1 DUP2 MSTORE PUSH1 0x20 ADD PUSH1 0x0 KECCAK256 DUP2 SWAP1 SSTORE POP JUMPDEST PUSH1 0x1 PUSH1 0x7 PUSH1 0x0 DUP4 PUSH20 0xFFFFFFFFFFFFFFFFFFFFFFFFFFFFFFFFFFFFFFFF AND PUSH20 0xFFFFFFFFFFFFFFFFFFFFFFFFFFFFFFFFFFFFFFFF AND DUP2 MSTORE PUSH1 0x20 ADD SWAP1 DUP2 MSTORE PUSH1 0x20 ADD PUSH1 0x0 KECCAK256 PUSH1 0x0 PUSH2 0x100 EXP DUP2 SLOAD DUP2 PUSH1 0xFF MUL NOT AND SWAP1 DUP4 ISZERO ISZERO MUL OR SWAP1 SSTORE POP PUSH1 0x8 DUP2 SWAP1 DUP1 PUSH1 0x1 DUP2 SLOAD ADD DUP1 DUP3 SSTORE DUP1 SWAP2 POP POP PUSH1 0x1 SWAP1 SUB SWAP1 PUSH1 0x0 MSTORE PUSH1 0x20 PUSH1 0x0 KECCAK256 ADD PUSH1 0x0 SWAP1 SWAP2 SWAP1 SWAP2 SWAP1 SWAP2 PUSH2 0x100 EXP DUP2 SLOAD DUP2 PUSH20 0xFFFFFFFFFFFFFFFFFFFFFFFFFFFFFFFFFFFFFFFF MUL NOT AND SWAP1 DUP4 PUSH20 0xFFFFFFFFFFFFFFFFFFFFFFFFFFFFFFFFFFFFFFFF AND MUL OR SWAP1 SSTORE POP POP JUMP JUMPDEST PUSH1 0x0 PUSH1 0x6 PUSH1 0x0 DUP4 PUSH20 0xFFFFFFFFFFFFFFFFFFFFFFFFFFFFFFFFFFFFFFFF AND PUSH20 0xFFFFFFFFFFFFFFFFFFFFFFFFFFFFFFFFFFFFFFFF AND DUP2 MSTORE PUSH1 0x20 ADD SWAP1 DUP2 MSTORE PUSH1 0x20 ADD PUSH1 0x0 KECCAK256 PUSH1 0x0 SWAP1 SLOAD SWAP1 PUSH2 0x100 EXP SWAP1 DIV PUSH1 0xFF AND SWAP1 POP SWAP2 SWAP1 POP JUMP JUMPDEST PUSH1 0x13 SLOAD DUP2 JUMP JUMPDEST PUSH1 0x0 PUSH1 0x7 PUSH1 0x0 DUP4 PUSH20 0xFFFFFFFFFFFFFFFFFFFFFFFFFFFFFFFFFFFFFFFF AND PUSH20 0xFFFFFFFFFFFFFFFFFFFFFFFFFFFFFFFFFFFFFFFF AND DUP2 MSTORE PUSH1 0x20 ADD SWAP1 DUP2 MSTORE PUSH1 0x20 ADD PUSH1 0x0 KECCAK256 PUSH1 0x0 SWAP1 SLOAD SWAP1 PUSH2 0x100 EXP SWAP1 DIV PUSH1 0xFF AND ISZERO PUSH2 0x1F13 JUMPI PUSH1 0x4 PUSH1 0x0 DUP4 PUSH20 0xFFFFFFFFFFFFFFFFFFFFFFFFFFFFFFFFFFFFFFFF AND PUSH20 0xFFFFFFFFFFFFFFFFFFFFFFFFFFFFFFFFFFFFFFFF AND DUP2 MSTORE PUSH1 0x20 ADD SWAP1 DUP2 MSTORE PUSH1 0x20 ADD PUSH1 0x0 KECCAK256 SLOAD SWAP1 POP PUSH2 0x1F5E JUMP JUMPDEST PUSH2 0x1F5B PUSH1 0x3 PUSH1 0x0 DUP5 PUSH20 0xFFFFFFFFFFFFFFFFFFFFFFFFFFFFFFFFFFFFFFFF AND PUSH20 0xFFFFFFFFFFFFFFFFFFFFFFFFFFFFFFFFFFFFFFFF AND DUP2 MSTORE PUSH1 0x20 ADD SWAP1 DUP2 MSTORE PUSH1 0x20 ADD PUSH1 0x0 KECCAK256 SLOAD PUSH2 0x127C JUMP JUMPDEST SWAP1 POP JUMPDEST SWAP2 SWAP1 POP JUMP JUMPDEST PUSH2 0x1F6B PUSH2 0x2DB7 JUMP JUMPDEST PUSH20 0xFFFFFFFFFFFFFFFFFFFFFFFFFFFFFFFFFFFFFFFF AND PUSH1 0x0 DUP1 SLOAD SWAP1 PUSH2 0x100 EXP SWAP1 DIV PUSH20 0xFFFFFFFFFFFFFFFFFFFFFFFFFFFFFFFFFFFFFFFF AND PUSH20 0xFFFFFFFFFFFFFFFFFFFFFFFFFFFFFFFFFFFFFFFF AND EQ PUSH2 0x202B JUMPI PUSH1 0x40 MLOAD PUSH32 0x8C379A000000000000000000000000000000000000000000000000000000000 DUP2 MSTORE PUSH1 0x4 ADD DUP1 DUP1 PUSH1 0x20 ADD DUP3 DUP2 SUB DUP3 MSTORE PUSH1 0x20 DUP2 MSTORE PUSH1 0x20 ADD DUP1 PUSH32 0x4F776E61626C653A2063616C6C6572206973206E6F7420746865206F776E6572 DUP2 MSTORE POP PUSH1 0x20 ADD SWAP2 POP POP PUSH1 0x40 MLOAD DUP1 SWAP2 SUB SWAP1 REVERT JUMPDEST PUSH1 0x0 PUSH20 0xFFFFFFFFFFFFFFFFFFFFFFFFFFFFFFFFFFFFFFFF AND PUSH1 0x0 DUP1 SLOAD SWAP1 PUSH2 0x100 EXP SWAP1 DIV PUSH20 0xFFFFFFFFFFFFFFFFFFFFFFFFFFFFFFFFFFFFFFFF AND PUSH20 0xFFFFFFFFFFFFFFFFFFFFFFFFFFFFFFFFFFFFFFFF AND PUSH32 0x8BE0079C531659141344CD1FD0A4F28419497F9722A3DAAFE3B4186F6B6457E0 PUSH1 0x40 MLOAD PUSH1 0x40 MLOAD DUP1 SWAP2 SUB SWAP1 LOG3 PUSH1 0x0 DUP1 PUSH1 0x0 PUSH2 0x100 EXP DUP2 SLOAD DUP2 PUSH20 0xFFFFFFFFFFFFFFFFFFFFFFFFFFFFFFFFFFFFFFFF MUL NOT AND SWAP1 DUP4 PUSH20 0xFFFFFFFFFFFFFFFFFFFFFFFFFFFFFFFFFFFFFFFF AND MUL OR SWAP1 SSTORE POP JUMP JUMPDEST PUSH1 0x16 SLOAD DUP2 JUMP JUMPDEST PUSH1 0x0 PUSH1 0x7 PUSH1 0x0 DUP4 PUSH20 0xFFFFFFFFFFFFFFFFFFFFFFFFFFFFFFFFFFFFFFFF AND PUSH20 0xFFFFFFFFFFFFFFFFFFFFFFFFFFFFFFFFFFFFFFFF AND DUP2 MSTORE PUSH1 0x20 ADD SWAP1 DUP2 MSTORE PUSH1 0x20 ADD PUSH1 0x0 KECCAK256 PUSH1 0x0 SWAP1 SLOAD SWAP1 PUSH2 0x100 EXP SWAP1 DIV PUSH1 0xFF AND SWAP1 POP SWAP2 SWAP1 POP JUMP JUMPDEST PUSH1 0x0 DUP1 PUSH1 0x0 SWAP1 SLOAD SWAP1 PUSH2 0x100 EXP SWAP1 DIV PUSH20 0xFFFFFFFFFFFFFFFFFFFFFFFFFFFFFFFFFFFFFFFF AND SWAP1 POP SWAP1 JUMP JUMPDEST PUSH2 0x2176 PUSH2 0x2DB7 JUMP JUMPDEST PUSH20 0xFFFFFFFFFFFFFFFFFFFFFFFFFFFFFFFFFFFFFFFF AND PUSH1 0x0 DUP1 SLOAD SWAP1 PUSH2 0x100 EXP SWAP1 DIV PUSH20 0xFFFFFFFFFFFFFFFFFFFFFFFFFFFFFFFFFFFFFFFF AND PUSH20 0xFFFFFFFFFFFFFFFFFFFFFFFFFFFFFFFFFFFFFFFF AND EQ PUSH2 0x2236 JUMPI PUSH1 0x40 MLOAD PUSH32 0x8C379A000000000000000000000000000000000000000000000000000000000 DUP2 MSTORE PUSH1 0x4 ADD DUP1 DUP1 PUSH1 0x20 ADD DUP3 DUP2 SUB DUP3 MSTORE PUSH1 0x20 DUP2 MSTORE PUSH1 0x20 ADD DUP1 PUSH32 0x4F776E61626C653A2063616C6C6572206973206E6F7420746865206F776E6572 DUP2 MSTORE POP PUSH1 0x20 ADD SWAP2 POP POP PUSH1 0x40 MLOAD DUP1 SWAP2 SUB SWAP1 REVERT JUMPDEST DUP1 PUSH1 0x13 DUP2 SWAP1 SSTORE POP POP JUMP JUMPDEST PUSH1 0x60 PUSH1 0xF DUP1 SLOAD PUSH1 0x1 DUP2 PUSH1 0x1 AND ISZERO PUSH2 0x100 MUL SUB AND PUSH1 0x2 SWAP1 DIV DUP1 PUSH1 0x1F ADD PUSH1 0x20 DUP1 SWAP2 DIV MUL PUSH1 0x20 ADD PUSH1 0x40 MLOAD SWAP1 DUP2 ADD PUSH1 0x40 MSTORE DUP1 SWAP3 SWAP2 SWAP1 DUP2 DUP2 MSTORE PUSH1 0x20 ADD DUP3 DUP1 SLOAD PUSH1 0x1 DUP2 PUSH1 0x1 AND ISZERO PUSH2 0x100 MUL SUB AND PUSH1 0x2 SWAP1 DIV DUP1 ISZERO PUSH2 0x22D8 JUMPI DUP1 PUSH1 0x1F LT PUSH2 0x22AD JUMPI PUSH2 0x100 DUP1 DUP4 SLOAD DIV MUL DUP4 MSTORE SWAP2 PUSH1 0x20 ADD SWAP2 PUSH2 0x22D8 JUMP JUMPDEST DUP3 ADD SWAP2 SWAP1 PUSH1 0x0 MSTORE PUSH1 0x20 PUSH1 0x0 KECCAK256 SWAP1 JUMPDEST DUP2 SLOAD DUP2 MSTORE SWAP1 PUSH1 0x1 ADD SWAP1 PUSH1 0x20 ADD DUP1 DUP4 GT PUSH2 0x22BB JUMPI DUP3 SWAP1 SUB PUSH1 0x1F AND DUP3 ADD SWAP2 JUMPDEST POP POP POP POP POP SWAP1 POP SWAP1 JUMP JUMPDEST PUSH1 0x0 PUSH2 0x23A5 PUSH2 0x22EF PUSH2 0x2DB7 JUMP JUMPDEST DUP5 PUSH2 0x23A0 DUP6 PUSH1 0x40 MLOAD DUP1 PUSH1 0x60 ADD PUSH1 0x40 MSTORE DUP1 PUSH1 0x25 DUP2 MSTORE PUSH1 0x20 ADD PUSH2 0x5088 PUSH1 0x25 SWAP2 CODECOPY PUSH1 0x5 PUSH1 0x0 PUSH2 0x2319 PUSH2 0x2DB7 JUMP JUMPDEST PUSH20 0xFFFFFFFFFFFFFFFFFFFFFFFFFFFFFFFFFFFFFFFF AND PUSH20 0xFFFFFFFFFFFFFFFFFFFFFFFFFFFFFFFFFFFFFFFF AND DUP2 MSTORE PUSH1 0x20 ADD SWAP1 DUP2 MSTORE PUSH1 0x20 ADD PUSH1 0x0 KECCAK256 PUSH1 0x0 DUP11 PUSH20 0xFFFFFFFFFFFFFFFFFFFFFFFFFFFFFFFFFFFFFFFF AND PUSH20 0xFFFFFFFFFFFFFFFFFFFFFFFFFFFFFFFFFFFFFFFF AND DUP2 MSTORE PUSH1 0x20 ADD SWAP1 DUP2 MSTORE PUSH1 0x20 ADD PUSH1 0x0 KECCAK256 SLOAD PUSH2 0x337B SWAP1 SWAP3 SWAP2 SWAP1 PUSH4 0xFFFFFFFF AND JUMP JUMPDEST PUSH2 0x2DBF JUMP JUMPDEST PUSH1 0x1 SWAP1 POP SWAP3 SWAP2 POP POP JUMP JUMPDEST CALLER PUSH20 0xFFFFFFFFFFFFFFFFFFFFFFFFFFFFFFFFFFFFFFFF AND PUSH1 0x1 PUSH1 0x0 SWAP1 SLOAD SWAP1 PUSH2 0x100 EXP SWAP1 DIV PUSH20 0xFFFFFFFFFFFFFFFFFFFFFFFFFFFFFFFFFFFFFFFF AND PUSH20 0xFFFFFFFFFFFFFFFFFFFFFFFFFFFFFFFFFFFFFFFF AND EQ PUSH2 0x2455 JUMPI PUSH1 0x40 MLOAD PUSH32 0x8C379A000000000000000000000000000000000000000000000000000000000 DUP2 MSTORE PUSH1 0x4 ADD DUP1 DUP1 PUSH1 0x20 ADD DUP3 DUP2 SUB DUP3 MSTORE PUSH1 0x23 DUP2 MSTORE PUSH1 0x20 ADD DUP1 PUSH2 0x5065 PUSH1 0x23 SWAP2 CODECOPY PUSH1 0x40 ADD SWAP2 POP POP PUSH1 0x40 MLOAD DUP1 SWAP2 SUB SWAP1 REVERT JUMPDEST PUSH1 0x2 SLOAD TIMESTAMP GT PUSH2 0x24CC JUMPI PUSH1 0x40 MLOAD PUSH32 0x8C379A000000000000000000000000000000000000000000000000000000000 DUP2 MSTORE PUSH1 0x4 ADD DUP1 DUP1 PUSH1 0x20 ADD DUP3 DUP2 SUB DUP3 MSTORE PUSH1 0x1F DUP2 MSTORE PUSH1 0x20 ADD DUP1 PUSH32 0x436F6E7472616374206973206C6F636B656420756E74696C2037206461797300 DUP2 MSTORE POP PUSH1 0x20 ADD SWAP2 POP POP PUSH1 0x40 MLOAD DUP1 SWAP2 SUB SWAP1 REVERT JUMPDEST PUSH1 0x1 PUSH1 0x0 SWAP1 SLOAD SWAP1 PUSH2 0x100 EXP SWAP1 DIV PUSH20 0xFFFFFFFFFFFFFFFFFFFFFFFFFFFFFFFFFFFFFFFF AND PUSH20 0xFFFFFFFFFFFFFFFFFFFFFFFFFFFFFFFFFFFFFFFF AND PUSH1 0x0 DUP1 SLOAD SWAP1 PUSH2 0x100 EXP SWAP1 DIV PUSH20 0xFFFFFFFFFFFFFFFFFFFFFFFFFFFFFFFFFFFFFFFF AND PUSH20 0xFFFFFFFFFFFFFFFFFFFFFFFFFFFFFFFFFFFFFFFF AND PUSH32 0x8BE0079C531659141344CD1FD0A4F28419497F9722A3DAAFE3B4186F6B6457E0 PUSH1 0x40 MLOAD PUSH1 0x40 MLOAD DUP1 SWAP2 SUB SWAP1 LOG3 PUSH1 0x1 PUSH1 0x0 SWAP1 SLOAD SWAP1 PUSH2 0x100 EXP SWAP1 DIV PUSH20 0xFFFFFFFFFFFFFFFFFFFFFFFFFFFFFFFFFFFFFFFF AND PUSH1 0x0 DUP1 PUSH2 0x100 EXP DUP2 SLOAD DUP2 PUSH20 0xFFFFFFFFFFFFFFFFFFFFFFFFFFFFFFFFFFFFFFFF MUL NOT AND SWAP1 DUP4 PUSH20 0xFFFFFFFFFFFFFFFFFFFFFFFFFFFFFFFFFFFFFFFF AND MUL OR SWAP1 SSTORE POP JUMP JUMPDEST PUSH1 0x0 PUSH2 0x25E0 PUSH2 0x25D9 PUSH2 0x2DB7 JUMP JUMPDEST DUP5 DUP5 PUSH2 0x2FB6 JUMP JUMPDEST PUSH1 0x1 SWAP1 POP SWAP3 SWAP2 POP POP JUMP JUMPDEST PUSH1 0x0 PUSH1 0x2 SLOAD SWAP1 POP SWAP1 JUMP JUMPDEST PUSH2 0x25FC PUSH2 0x2DB7 JUMP JUMPDEST PUSH20 0xFFFFFFFFFFFFFFFFFFFFFFFFFFFFFFFFFFFFFFFF AND PUSH1 0x0 DUP1 SLOAD SWAP1 PUSH2 0x100 EXP SWAP1 DIV PUSH20 0xFFFFFFFFFFFFFFFFFFFFFFFFFFFFFFFFFFFFFFFF AND PUSH20 0xFFFFFFFFFFFFFFFFFFFFFFFFFFFFFFFFFFFFFFFF AND EQ PUSH2 0x26BC JUMPI PUSH1 0x40 MLOAD PUSH32 0x8C379A000000000000000000000000000000000000000000000000000000000 DUP2 MSTORE PUSH1 0x4 ADD DUP1 DUP1 PUSH1 0x20 ADD DUP3 DUP2 SUB DUP3 MSTORE PUSH1 0x20 DUP2 MSTORE PUSH1 0x20 ADD DUP1 PUSH32 0x4F776E61626C653A2063616C6C6572206973206E6F7420746865206F776E6572 DUP2 MSTORE POP PUSH1 0x20 ADD SWAP2 POP POP PUSH1 0x40 MLOAD DUP1 SWAP2 SUB SWAP1 REVERT JUMPDEST DUP1 PUSH1 0x15 PUSH1 0x1 PUSH2 0x100 EXP DUP2 SLOAD DUP2 PUSH1 0xFF MUL NOT AND SWAP1 DUP4 ISZERO ISZERO MUL OR SWAP1 SSTORE POP PUSH32 0x53726DFCAF90650AA7EB35524F4D3220F07413C8D6CB404CC8C18BF5591BC159 DUP2 PUSH1 0x40 MLOAD DUP1 DUP3 ISZERO ISZERO DUP2 MSTORE PUSH1 0x20 ADD SWAP2 POP POP PUSH1 0x40 MLOAD DUP1 SWAP2 SUB SWAP1 LOG1 POP JUMP JUMPDEST PUSH2 0x271A PUSH2 0x2DB7 JUMP JUMPDEST PUSH20 0xFFFFFFFFFFFFFFFFFFFFFFFFFFFFFFFFFFFFFFFF AND PUSH1 0x0 DUP1 SLOAD SWAP1 PUSH2 0x100 EXP SWAP1 DIV PUSH20 0xFFFFFFFFFFFFFFFFFFFFFFFFFFFFFFFFFFFFFFFF AND PUSH20 0xFFFFFFFFFFFFFFFFFFFFFFFFFFFFFFFFFFFFFFFF AND EQ PUSH2 0x27DA JUMPI PUSH1 0x40 MLOAD PUSH32 0x8C379A000000000000000000000000000000000000000000000000000000000 DUP2 MSTORE PUSH1 0x4 ADD DUP1 DUP1 PUSH1 0x20 ADD DUP3 DUP2 SUB DUP3 MSTORE PUSH1 0x20 DUP2 MSTORE PUSH1 0x20 ADD DUP1 PUSH32 0x4F776E61626C653A2063616C6C6572206973206E6F7420746865206F776E6572 DUP2 MSTORE POP PUSH1 0x20 ADD SWAP2 POP POP PUSH1 0x40 MLOAD DUP1 SWAP2 SUB SWAP1 REVERT JUMPDEST PUSH2 0x2808 PUSH1 0x64 PUSH2 0x27FA DUP4 PUSH8 0xDE0B6B3A7640000 PUSH2 0x35DE SWAP1 SWAP2 SWAP1 PUSH4 0xFFFFFFFF AND JUMP JUMPDEST PUSH2 0x3466 SWAP1 SWAP2 SWAP1 PUSH4 0xFFFFFFFF AND JUMP JUMPDEST PUSH1 0x16 DUP2 SWAP1 SSTORE POP POP JUMP JUMPDEST PUSH2 0x2819 PUSH2 0x2DB7 JUMP JUMPDEST PUSH20 0xFFFFFFFFFFFFFFFFFFFFFFFFFFFFFFFFFFFFFFFF AND PUSH1 0x0 DUP1 SLOAD SWAP1 PUSH2 0x100 EXP SWAP1 DIV PUSH20 0xFFFFFFFFFFFFFFFFFFFFFFFFFFFFFFFFFFFFFFFF AND PUSH20 0xFFFFFFFFFFFFFFFFFFFFFFFFFFFFFFFFFFFFFFFF AND EQ PUSH2 0x28D9 JUMPI PUSH1 0x40 MLOAD PUSH32 0x8C379A000000000000000000000000000000000000000000000000000000000 DUP2 MSTORE PUSH1 0x4 ADD DUP1 DUP1 PUSH1 0x20 ADD DUP3 DUP2 SUB DUP3 MSTORE PUSH1 0x20 DUP2 MSTORE PUSH1 0x20 ADD DUP1 PUSH32 0x4F776E61626C653A2063616C6C6572206973206E6F7420746865206F776E6572 DUP2 MSTORE POP PUSH1 0x20 ADD SWAP2 POP POP PUSH1 0x40 MLOAD DUP1 SWAP2 SUB SWAP1 REVERT JUMPDEST PUSH1 0x0 DUP1 SLOAD SWAP1 PUSH2 0x100 EXP SWAP1 DIV PUSH20 0xFFFFFFFFFFFFFFFFFFFFFFFFFFFFFFFFFFFFFFFF AND PUSH1 0x1 PUSH1 0x0 PUSH2 0x100 EXP DUP2 SLOAD DUP2 PUSH20 0xFFFFFFFFFFFFFFFFFFFFFFFFFFFFFFFFFFFFFFFF MUL NOT AND SWAP1 DUP4 PUSH20 0xFFFFFFFFFFFFFFFFFFFFFFFFFFFFFFFFFFFFFFFF AND MUL OR SWAP1 SSTORE POP PUSH1 0x0 DUP1 PUSH1 0x0 PUSH2 0x100 EXP DUP2 SLOAD DUP2 PUSH20 0xFFFFFFFFFFFFFFFFFFFFFFFFFFFFFFFFFFFFFFFF MUL NOT AND SWAP1 DUP4 PUSH20 0xFFFFFFFFFFFFFFFFFFFFFFFFFFFFFFFFFFFFFFFF AND MUL OR SWAP1 SSTORE POP DUP1 TIMESTAMP ADD PUSH1 0x2 DUP2 SWAP1 SSTORE POP PUSH1 0x0 PUSH20 0xFFFFFFFFFFFFFFFFFFFFFFFFFFFFFFFFFFFFFFFF AND PUSH1 0x0 DUP1 SLOAD SWAP1 PUSH2 0x100 EXP SWAP1 DIV PUSH20 0xFFFFFFFFFFFFFFFFFFFFFFFFFFFFFFFFFFFFFFFF AND PUSH20 0xFFFFFFFFFFFFFFFFFFFFFFFFFFFFFFFFFFFFFFFF AND PUSH32 0x8BE0079C531659141344CD1FD0A4F28419497F9722A3DAAFE3B4186F6B6457E0 PUSH1 0x40 MLOAD PUSH1 0x40 MLOAD DUP1 SWAP2 SUB SWAP1 LOG3 POP JUMP JUMPDEST PUSH1 0x0 PUSH1 0x5 PUSH1 0x0 DUP5 PUSH20 0xFFFFFFFFFFFFFFFFFFFFFFFFFFFFFFFFFFFFFFFF AND PUSH20 0xFFFFFFFFFFFFFFFFFFFFFFFFFFFFFFFFFFFFFFFF AND DUP2 MSTORE PUSH1 0x20 ADD SWAP1 DUP2 MSTORE PUSH1 0x20 ADD PUSH1 0x0 KECCAK256 PUSH1 0x0 DUP4 PUSH20 0xFFFFFFFFFFFFFFFFFFFFFFFFFFFFFFFFFFFFFFFF AND PUSH20 0xFFFFFFFFFFFFFFFFFFFFFFFFFFFFFFFFFFFFFFFF AND DUP2 MSTORE PUSH1 0x20 ADD SWAP1 DUP2 MSTORE PUSH1 0x20 ADD PUSH1 0x0 KECCAK256 SLOAD SWAP1 POP SWAP3 SWAP2 POP POP JUMP JUMPDEST PUSH2 0x2A91 PUSH2 0x2DB7 JUMP JUMPDEST PUSH20 0xFFFFFFFFFFFFFFFFFFFFFFFFFFFFFFFFFFFFFFFF AND PUSH1 0x0 DUP1 SLOAD SWAP1 PUSH2 0x100 EXP SWAP1 DIV PUSH20 0xFFFFFFFFFFFFFFFFFFFFFFFFFFFFFFFFFFFFFFFF AND PUSH20 0xFFFFFFFFFFFFFFFFFFFFFFFFFFFFFFFFFFFFFFFF AND EQ PUSH2 0x2B51 JUMPI PUSH1 0x40 MLOAD PUSH32 0x8C379A000000000000000000000000000000000000000000000000000000000 DUP2 MSTORE PUSH1 0x4 ADD DUP1 DUP1 PUSH1 0x20 ADD DUP3 DUP2 SUB DUP3 MSTORE PUSH1 0x20 DUP2 MSTORE PUSH1 0x20 ADD DUP1 PUSH32 0x4F776E61626C653A2063616C6C6572206973206E6F7420746865206F776E6572 DUP2 MSTORE POP PUSH1 0x20 ADD SWAP2 POP POP PUSH1 0x40 MLOAD DUP1 SWAP2 SUB SWAP1 REVERT JUMPDEST PUSH1 0x0 PUSH1 0x6 PUSH1 0x0 DUP4 PUSH20 0xFFFFFFFFFFFFFFFFFFFFFFFFFFFFFFFFFFFFFFFF AND PUSH20 0xFFFFFFFFFFFFFFFFFFFFFFFFFFFFFFFFFFFFFFFF AND DUP2 MSTORE PUSH1 0x20 ADD SWAP1 DUP2 MSTORE PUSH1 0x20 ADD PUSH1 0x0 KECCAK256 PUSH1 0x0 PUSH2 0x100 EXP DUP2 SLOAD DUP2 PUSH1 0xFF MUL NOT AND SWAP1 DUP4 ISZERO ISZERO MUL OR SWAP1 SSTORE POP POP JUMP JUMPDEST PUSH2 0x2BB4 PUSH2 0x2DB7 JUMP JUMPDEST PUSH20 0xFFFFFFFFFFFFFFFFFFFFFFFFFFFFFFFFFFFFFFFF AND PUSH1 0x0 DUP1 SLOAD SWAP1 PUSH2 0x100 EXP SWAP1 DIV PUSH20 0xFFFFFFFFFFFFFFFFFFFFFFFFFFFFFFFFFFFFFFFF AND PUSH20 0xFFFFFFFFFFFFFFFFFFFFFFFFFFFFFFFFFFFFFFFF AND EQ PUSH2 0x2C74 JUMPI PUSH1 0x40 MLOAD PUSH32 0x8C379A000000000000000000000000000000000000000000000000000000000 DUP2 MSTORE PUSH1 0x4 ADD DUP1 DUP1 PUSH1 0x20 ADD DUP3 DUP2 SUB DUP3 MSTORE PUSH1 0x20 DUP2 MSTORE PUSH1 0x20 ADD DUP1 PUSH32 0x4F776E61626C653A2063616C6C6572206973206E6F7420746865206F776E6572 DUP2 MSTORE POP PUSH1 0x20 ADD SWAP2 POP POP PUSH1 0x40 MLOAD DUP1 SWAP2 SUB SWAP1 REVERT JUMPDEST PUSH1 0x0 PUSH20 0xFFFFFFFFFFFFFFFFFFFFFFFFFFFFFFFFFFFFFFFF AND DUP2 PUSH20 0xFFFFFFFFFFFFFFFFFFFFFFFFFFFFFFFFFFFFFFFF AND EQ ISZERO PUSH2 0x2CFA JUMPI PUSH1 0x40 MLOAD PUSH32 0x8C379A000000000000000000000000000000000000000000000000000000000 DUP2 MSTORE PUSH1 0x4 ADD DUP1 DUP1 PUSH1 0x20 ADD DUP3 DUP2 SUB DUP3 MSTORE PUSH1 0x26 DUP2 MSTORE PUSH1 0x20 ADD DUP1 PUSH2 0x4F0E PUSH1 0x26 SWAP2 CODECOPY PUSH1 0x40 ADD SWAP2 POP POP PUSH1 0x40 MLOAD DUP1 SWAP2 SUB SWAP1 REVERT JUMPDEST DUP1 PUSH20 0xFFFFFFFFFFFFFFFFFFFFFFFFFFFFFFFFFFFFFFFF AND PUSH1 0x0 DUP1 SLOAD SWAP1 PUSH2 0x100 EXP SWAP1 DIV PUSH20 0xFFFFFFFFFFFFFFFFFFFFFFFFFFFFFFFFFFFFFFFF AND PUSH20 0xFFFFFFFFFFFFFFFFFFFFFFFFFFFFFFFFFFFFFFFF AND PUSH32 0x8BE0079C531659141344CD1FD0A4F28419497F9722A3DAAFE3B4186F6B6457E0 PUSH1 0x40 MLOAD PUSH1 0x40 MLOAD DUP1 SWAP2 SUB SWAP1 LOG3 DUP1 PUSH1 0x0 DUP1 PUSH2 0x100 EXP DUP2 SLOAD DUP2 PUSH20 0xFFFFFFFFFFFFFFFFFFFFFFFFFFFFFFFFFFFFFFFF MUL NOT AND SWAP1 DUP4 PUSH20 0xFFFFFFFFFFFFFFFFFFFFFFFFFFFFFFFFFFFFFFFF AND MUL OR SWAP1 SSTORE POP POP JUMP JUMPDEST PUSH1 0x0 CALLER SWAP1 POP SWAP1 JUMP JUMPDEST PUSH1 0x0 PUSH20 0xFFFFFFFFFFFFFFFFFFFFFFFFFFFFFFFFFFFFFFFF AND DUP4 PUSH20 0xFFFFFFFFFFFFFFFFFFFFFFFFFFFFFFFFFFFFFFFF AND EQ ISZERO PUSH2 0x2E45 JUMPI PUSH1 0x40 MLOAD PUSH32 0x8C379A000000000000000000000000000000000000000000000000000000000 DUP2 MSTORE PUSH1 0x4 ADD DUP1 DUP1 PUSH1 0x20 ADD DUP3 DUP2 SUB DUP3 MSTORE PUSH1 0x24 DUP2 MSTORE PUSH1 0x20 ADD DUP1 PUSH2 0x5015 PUSH1 0x24 SWAP2 CODECOPY PUSH1 0x40 ADD SWAP2 POP POP PUSH1 0x40 MLOAD DUP1 SWAP2 SUB SWAP1 REVERT JUMPDEST PUSH1 0x0 PUSH20 0xFFFFFFFFFFFFFFFFFFFFFFFFFFFFFFFFFFFFFFFF AND DUP3 PUSH20 0xFFFFFFFFFFFFFFFFFFFFFFFFFFFFFFFFFFFFFFFF AND EQ ISZERO PUSH2 0x2ECB JUMPI PUSH1 0x40 MLOAD PUSH32 0x8C379A000000000000000000000000000000000000000000000000000000000 DUP2 MSTORE PUSH1 0x4 ADD DUP1 DUP1 PUSH1 0x20 ADD DUP3 DUP2 SUB DUP3 MSTORE PUSH1 0x22 DUP2 MSTORE PUSH1 0x20 ADD DUP1 PUSH2 0x4F34 PUSH1 0x22 SWAP2 CODECOPY PUSH1 0x40 ADD SWAP2 POP POP PUSH1 0x40 MLOAD DUP1 SWAP2 SUB SWAP1 REVERT JUMPDEST DUP1 PUSH1 0x5 PUSH1 0x0 DUP6 PUSH20 0xFFFFFFFFFFFFFFFFFFFFFFFFFFFFFFFFFFFFFFFF AND PUSH20 0xFFFFFFFFFFFFFFFFFFFFFFFFFFFFFFFFFFFFFFFF AND DUP2 MSTORE PUSH1 0x20 ADD SWAP1 DUP2 MSTORE PUSH1 0x20 ADD PUSH1 0x0 KECCAK256 PUSH1 0x0 DUP5 PUSH20 0xFFFFFFFFFFFFFFFFFFFFFFFFFFFFFFFFFFFFFFFF AND PUSH20 0xFFFFFFFFFFFFFFFFFFFFFFFFFFFFFFFFFFFFFFFF AND DUP2 MSTORE PUSH1 0x20 ADD SWAP1 DUP2 MSTORE PUSH1 0x20 ADD PUSH1 0x0 KECCAK256 DUP2 SWAP1 SSTORE POP DUP2 PUSH20 0xFFFFFFFFFFFFFFFFFFFFFFFFFFFFFFFFFFFFFFFF AND DUP4 PUSH20 0xFFFFFFFFFFFFFFFFFFFFFFFFFFFFFFFFFFFFFFFF AND PUSH32 0x8C5BE1E5EBEC7D5BD14F71427D1E84F3DD0314C0F7B2291E5B200AC8C7C3B925 DUP4 PUSH1 0x40 MLOAD DUP1 DUP3 DUP2 MSTORE PUSH1 0x20 ADD SWAP2 POP POP PUSH1 0x40 MLOAD DUP1 SWAP2 SUB SWAP1 LOG3 POP POP POP JUMP JUMPDEST PUSH1 0x0 PUSH20 0xFFFFFFFFFFFFFFFFFFFFFFFFFFFFFFFFFFFFFFFF AND DUP4 PUSH20 0xFFFFFFFFFFFFFFFFFFFFFFFFFFFFFFFFFFFFFFFF AND EQ ISZERO PUSH2 0x303C JUMPI PUSH1 0x40 MLOAD PUSH32 0x8C379A000000000000000000000000000000000000000000000000000000000 DUP2 MSTORE PUSH1 0x4 ADD DUP1 DUP1 PUSH1 0x20 ADD DUP3 DUP2 SUB DUP3 MSTORE PUSH1 0x25 DUP2 MSTORE PUSH1 0x20 ADD DUP1 PUSH2 0x4FF0 PUSH1 0x25 SWAP2 CODECOPY PUSH1 0x40 ADD SWAP2 POP POP PUSH1 0x40 MLOAD DUP1 SWAP2 SUB SWAP1 REVERT JUMPDEST PUSH1 0x0 PUSH20 0xFFFFFFFFFFFFFFFFFFFFFFFFFFFFFFFFFFFFFFFF AND DUP3 PUSH20 0xFFFFFFFFFFFFFFFFFFFFFFFFFFFFFFFFFFFFFFFF AND EQ ISZERO PUSH2 0x30C2 JUMPI PUSH1 0x40 MLOAD PUSH32 0x8C379A000000000000000000000000000000000000000000000000000000000 DUP2 MSTORE PUSH1 0x4 ADD DUP1 DUP1 PUSH1 0x20 ADD DUP3 DUP2 SUB DUP3 MSTORE PUSH1 0x23 DUP2 MSTORE PUSH1 0x20 ADD DUP1 PUSH2 0x4EC1 PUSH1 0x23 SWAP2 CODECOPY PUSH1 0x40 ADD SWAP2 POP POP PUSH1 0x40 MLOAD DUP1 SWAP2 SUB SWAP1 REVERT JUMPDEST PUSH1 0x0 DUP2 GT PUSH2 0x311B JUMPI PUSH1 0x40 MLOAD PUSH32 0x8C379A000000000000000000000000000000000000000000000000000000000 DUP2 MSTORE PUSH1 0x4 ADD DUP1 DUP1 PUSH1 0x20 ADD DUP3 DUP2 SUB DUP3 MSTORE PUSH1 0x29 DUP2 MSTORE PUSH1 0x20 ADD DUP1 PUSH2 0x4FC7 PUSH1 0x29 SWAP2 CODECOPY PUSH1 0x40 ADD SWAP2 POP POP PUSH1 0x40 MLOAD DUP1 SWAP2 SUB SWAP1 REVERT JUMPDEST PUSH2 0x3123 PUSH2 0x2145 JUMP JUMPDEST PUSH20 0xFFFFFFFFFFFFFFFFFFFFFFFFFFFFFFFFFFFFFFFF AND DUP4 PUSH20 0xFFFFFFFFFFFFFFFFFFFFFFFFFFFFFFFFFFFFFFFF AND EQ ISZERO DUP1 ISZERO PUSH2 0x3191 JUMPI POP PUSH2 0x3161 PUSH2 0x2145 JUMP JUMPDEST PUSH20 0xFFFFFFFFFFFFFFFFFFFFFFFFFFFFFFFFFFFFFFFF AND DUP3 PUSH20 0xFFFFFFFFFFFFFFFFFFFFFFFFFFFFFFFFFFFFFFFF AND EQ ISZERO JUMPDEST ISZERO PUSH2 0x31F2 JUMPI PUSH1 0x16 SLOAD DUP2 GT ISZERO PUSH2 0x31F1 JUMPI PUSH1 0x40 MLOAD PUSH32 0x8C379A000000000000000000000000000000000000000000000000000000000 DUP2 MSTORE PUSH1 0x4 ADD DUP1 DUP1 PUSH1 0x20 ADD DUP3 DUP2 SUB DUP3 MSTORE PUSH1 0x28 DUP2 MSTORE PUSH1 0x20 ADD DUP1 PUSH2 0x4F56 PUSH1 0x28 SWAP2 CODECOPY PUSH1 0x40 ADD SWAP2 POP POP PUSH1 0x40 MLOAD DUP1 SWAP2 SUB SWAP1 REVERT JUMPDEST JUMPDEST PUSH1 0x0 PUSH2 0x31FD ADDRESS PUSH2 0x1E78 JUMP JUMPDEST SWAP1 POP PUSH1 0x16 SLOAD DUP2 LT PUSH2 0x320E JUMPI PUSH1 0x16 SLOAD SWAP1 POP JUMPDEST PUSH1 0x0 PUSH1 0x17 SLOAD DUP3 LT ISZERO SWAP1 POP DUP1 DUP1 ISZERO PUSH2 0x3232 JUMPI POP PUSH1 0x15 PUSH1 0x0 SWAP1 SLOAD SWAP1 PUSH2 0x100 EXP SWAP1 DIV PUSH1 0xFF AND ISZERO JUMPDEST DUP1 ISZERO PUSH2 0x328A JUMPI POP PUSH32 0x0 PUSH20 0xFFFFFFFFFFFFFFFFFFFFFFFFFFFFFFFFFFFFFFFF AND DUP6 PUSH20 0xFFFFFFFFFFFFFFFFFFFFFFFFFFFFFFFFFFFFFFFF AND EQ ISZERO JUMPDEST DUP1 ISZERO PUSH2 0x32A2 JUMPI POP PUSH1 0x15 PUSH1 0x1 SWAP1 SLOAD SWAP1 PUSH2 0x100 EXP SWAP1 DIV PUSH1 0xFF AND JUMPDEST ISZERO PUSH2 0x32B6 JUMPI PUSH1 0x17 SLOAD SWAP2 POP PUSH2 0x32B5 DUP3 PUSH2 0x3664 JUMP JUMPDEST JUMPDEST PUSH1 0x0 PUSH1 0x1 SWAP1 POP PUSH1 0x6 PUSH1 0x0 DUP8 PUSH20 0xFFFFFFFFFFFFFFFFFFFFFFFFFFFFFFFFFFFFFFFF AND PUSH20 0xFFFFFFFFFFFFFFFFFFFFFFFFFFFFFFFFFFFFFFFF AND DUP2 MSTORE PUSH1 0x20 ADD SWAP1 DUP2 MSTORE PUSH1 0x20 ADD PUSH1 0x0 KECCAK256 PUSH1 0x0 SWAP1 SLOAD SWAP1 PUSH2 0x100 EXP SWAP1 DIV PUSH1 0xFF AND DUP1 PUSH2 0x335D JUMPI POP PUSH1 0x6 PUSH1 0x0 DUP7 PUSH20 0xFFFFFFFFFFFFFFFFFFFFFFFFFFFFFFFFFFFFFFFF AND PUSH20 0xFFFFFFFFFFFFFFFFFFFFFFFFFFFFFFFFFFFFFFFF AND DUP2 MSTORE PUSH1 0x20 ADD SWAP1 DUP2 MSTORE PUSH1 0x20 ADD PUSH1 0x0 KECCAK256 PUSH1 0x0 SWAP1 SLOAD SWAP1 PUSH2 0x100 EXP SWAP1 DIV PUSH1 0xFF AND JUMPDEST ISZERO PUSH2 0x3367 JUMPI PUSH1 0x0 SWAP1 POP JUMPDEST PUSH2 0x3373 DUP7 DUP7 DUP7 DUP5 PUSH2 0x3746 JUMP JUMPDEST POP POP POP POP POP POP JUMP JUMPDEST PUSH1 0x0 DUP4 DUP4 GT ISZERO DUP3 SWAP1 PUSH2 0x3428 JUMPI PUSH1 0x40 MLOAD PUSH32 0x8C379A000000000000000000000000000000000000000000000000000000000 DUP2 MSTORE PUSH1 0x4 ADD DUP1 DUP1 PUSH1 0x20 ADD DUP3 DUP2 SUB DUP3 MSTORE DUP4 DUP2 DUP2 MLOAD DUP2 MSTORE PUSH1 0x20 ADD SWAP2 POP DUP1 MLOAD SWAP1 PUSH1 0x20 ADD SWAP1 DUP1 DUP4 DUP4 PUSH1 0x0 JUMPDEST DUP4 DUP2 LT ISZERO PUSH2 0x33ED JUMPI DUP1 DUP3 ADD MLOAD DUP2 DUP5 ADD MSTORE PUSH1 0x20 DUP2 ADD SWAP1 POP PUSH2 0x33D2 JUMP JUMPDEST POP POP POP POP SWAP1 POP SWAP1 DUP2 ADD SWAP1 PUSH1 0x1F AND DUP1 ISZERO PUSH2 0x341A JUMPI DUP1 DUP3 SUB DUP1 MLOAD PUSH1 0x1 DUP4 PUSH1 0x20 SUB PUSH2 0x100 EXP SUB NOT AND DUP2 MSTORE PUSH1 0x20 ADD SWAP2 POP JUMPDEST POP SWAP3 POP POP POP PUSH1 0x40 MLOAD DUP1 SWAP2 SUB SWAP1 REVERT JUMPDEST POP PUSH1 0x0 DUP4 DUP6 SUB SWAP1 POP DUP1 SWAP2 POP POP SWAP4 SWAP3 POP POP POP JUMP JUMPDEST PUSH1 0x0 DUP1 PUSH1 0x0 PUSH2 0x3448 PUSH2 0x3A57 JUMP JUMPDEST SWAP2 POP SWAP2 POP PUSH2 0x345F DUP2 DUP4 PUSH2 0x3466 SWAP1 SWAP2 SWAP1 PUSH4 0xFFFFFFFF AND JUMP JUMPDEST SWAP3 POP POP POP SWAP1 JUMP JUMPDEST PUSH1 0x0 PUSH2 0x34A8 DUP4 DUP4 PUSH1 0x40 MLOAD DUP1 PUSH1 0x40 ADD PUSH1 0x40 MSTORE DUP1 PUSH1 0x1A DUP2 MSTORE PUSH1 0x20 ADD PUSH32 0x536166654D6174683A206469766973696F6E206279207A65726F000000000000 DUP2 MSTORE POP PUSH2 0x3D00 JUMP JUMPDEST SWAP1 POP SWAP3 SWAP2 POP POP JUMP JUMPDEST PUSH1 0x0 DUP1 DUP3 DUP5 ADD SWAP1 POP DUP4 DUP2 LT ISZERO PUSH2 0x352E JUMPI PUSH1 0x40 MLOAD PUSH32 0x8C379A000000000000000000000000000000000000000000000000000000000 DUP2 MSTORE PUSH1 0x4 ADD DUP1 DUP1 PUSH1 0x20 ADD DUP3 DUP2 SUB DUP3 MSTORE PUSH1 0x1B DUP2 MSTORE PUSH1 0x20 ADD DUP1 PUSH32 0x536166654D6174683A206164646974696F6E206F766572666C6F770000000000 DUP2 MSTORE POP PUSH1 0x20 ADD SWAP2 POP POP PUSH1 0x40 MLOAD DUP1 SWAP2 SUB SWAP1 REVERT JUMPDEST DUP1 SWAP2 POP POP SWAP3 SWAP2 POP POP JUMP JUMPDEST PUSH1 0x0 DUP1 PUSH1 0x0 DUP1 PUSH1 0x0 DUP1 PUSH1 0x0 DUP1 PUSH1 0x0 PUSH2 0x354F DUP11 PUSH2 0x3DC6 JUMP JUMPDEST SWAP3 POP SWAP3 POP SWAP3 POP PUSH1 0x0 DUP1 PUSH1 0x0 PUSH2 0x356D DUP14 DUP7 DUP7 PUSH2 0x3568 PUSH2 0x343B JUMP JUMPDEST PUSH2 0x3E20 JUMP JUMPDEST SWAP3 POP SWAP3 POP SWAP3 POP DUP3 DUP3 DUP3 DUP9 DUP9 DUP9 SWAP12 POP SWAP12 POP SWAP12 POP SWAP12 POP SWAP12 POP SWAP12 POP POP POP POP POP POP POP SWAP2 SWAP4 SWAP6 POP SWAP2 SWAP4 SWAP6 JUMP JUMPDEST PUSH1 0x0 PUSH2 0x35D6 DUP4 DUP4 PUSH1 0x40 MLOAD DUP1 PUSH1 0x40 ADD PUSH1 0x40 MSTORE DUP1 PUSH1 0x1E DUP2 MSTORE PUSH1 0x20 ADD PUSH32 0x536166654D6174683A207375627472616374696F6E206F766572666C6F770000 DUP2 MSTORE POP PUSH2 0x337B JUMP JUMPDEST SWAP1 POP SWAP3 SWAP2 POP POP JUMP JUMPDEST PUSH1 0x0 DUP1 DUP4 EQ ISZERO PUSH2 0x35F1 JUMPI PUSH1 0x0 SWAP1 POP PUSH2 0x365E JUMP JUMPDEST PUSH1 0x0 DUP3 DUP5 MUL SWAP1 POP DUP3 DUP5 DUP3 DUP2 PUSH2 0x3602 JUMPI INVALID JUMPDEST DIV EQ PUSH2 0x3659 JUMPI PUSH1 0x40 MLOAD PUSH32 0x8C379A000000000000000000000000000000000000000000000000000000000 DUP2 MSTORE PUSH1 0x4 ADD DUP1 DUP1 PUSH1 0x20 ADD DUP3 DUP2 SUB DUP3 MSTORE PUSH1 0x21 DUP2 MSTORE PUSH1 0x20 ADD DUP1 PUSH2 0x4F7E PUSH1 0x21 SWAP2 CODECOPY PUSH1 0x40 ADD SWAP2 POP POP PUSH1 0x40 MLOAD DUP1 SWAP2 SUB SWAP1 REVERT JUMPDEST DUP1 SWAP2 POP POP JUMPDEST SWAP3 SWAP2 POP POP JUMP JUMPDEST PUSH1 0x1 PUSH1 0x15 PUSH1 0x0 PUSH2 0x100 EXP DUP2 SLOAD DUP2 PUSH1 0xFF MUL NOT AND SWAP1 DUP4 ISZERO ISZERO MUL OR SWAP1 SSTORE POP PUSH1 0x0 PUSH2 0x3695 PUSH1 0x2 DUP4 PUSH2 0x3466 SWAP1 SWAP2 SWAP1 PUSH4 0xFFFFFFFF AND JUMP JUMPDEST SWAP1 POP PUSH1 0x0 PUSH2 0x36AC DUP3 DUP5 PUSH2 0x3594 SWAP1 SWAP2 SWAP1 PUSH4 0xFFFFFFFF AND JUMP JUMPDEST SWAP1 POP PUSH1 0x0 SELFBALANCE SWAP1 POP PUSH2 0x36BC DUP4 PUSH2 0x3EA9 JUMP JUMPDEST PUSH1 0x0 PUSH2 0x36D1 DUP3 SELFBALANCE PUSH2 0x3594 SWAP1 SWAP2 SWAP1 PUSH4 0xFFFFFFFF AND JUMP JUMPDEST SWAP1 POP PUSH2 0x36DD DUP4 DUP3 PUSH2 0x4157 JUMP JUMPDEST PUSH32 0x17BBFB9A6069321B6DED73BD96327C9E6B7212A5CD51FF219CD61370ACAFB561 DUP5 DUP3 DUP6 PUSH1 0x40 MLOAD DUP1 DUP5 DUP2 MSTORE PUSH1 0x20 ADD DUP4 DUP2 MSTORE PUSH1 0x20 ADD DUP3 DUP2 MSTORE PUSH1 0x20 ADD SWAP4 POP POP POP POP PUSH1 0x40 MLOAD DUP1 SWAP2 SUB SWAP1 LOG1 POP POP POP POP PUSH1 0x0 PUSH1 0x15 PUSH1 0x0 PUSH2 0x100 EXP DUP2 SLOAD DUP2 PUSH1 0xFF MUL NOT AND SWAP1 DUP4 ISZERO ISZERO MUL OR SWAP1 SSTORE POP POP JUMP JUMPDEST DUP1 PUSH2 0x3754 JUMPI PUSH2 0x3753 PUSH2 0x42A8 JUMP JUMPDEST JUMPDEST PUSH1 0x7 PUSH1 0x0 DUP6 PUSH20 0xFFFFFFFFFFFFFFFFFFFFFFFFFFFFFFFFFFFFFFFF AND PUSH20 0xFFFFFFFFFFFFFFFFFFFFFFFFFFFFFFFFFFFFFFFF AND DUP2 MSTORE PUSH1 0x20 ADD SWAP1 DUP2 MSTORE PUSH1 0x20 ADD PUSH1 0x0 KECCAK256 PUSH1 0x0 SWAP1 SLOAD SWAP1 PUSH2 0x100 EXP SWAP1 DIV PUSH1 0xFF AND DUP1 ISZERO PUSH2 0x37F7 JUMPI POP PUSH1 0x7 PUSH1 0x0 DUP5 PUSH20 0xFFFFFFFFFFFFFFFFFFFFFFFFFFFFFFFFFFFFFFFF AND PUSH20 0xFFFFFFFFFFFFFFFFFFFFFFFFFFFFFFFFFFFFFFFF AND DUP2 MSTORE PUSH1 0x20 ADD SWAP1 DUP2 MSTORE PUSH1 0x20 ADD PUSH1 0x0 KECCAK256 PUSH1 0x0 SWAP1 SLOAD SWAP1 PUSH2 0x100 EXP SWAP1 DIV PUSH1 0xFF AND ISZERO JUMPDEST ISZERO PUSH2 0x380C JUMPI PUSH2 0x3807 DUP5 DUP5 DUP5 PUSH2 0x42EB JUMP JUMPDEST PUSH2 0x3A43 JUMP JUMPDEST PUSH1 0x7 PUSH1 0x0 DUP6 PUSH20 0xFFFFFFFFFFFFFFFFFFFFFFFFFFFFFFFFFFFFFFFF AND PUSH20 0xFFFFFFFFFFFFFFFFFFFFFFFFFFFFFFFFFFFFFFFF AND DUP2 MSTORE PUSH1 0x20 ADD SWAP1 DUP2 MSTORE PUSH1 0x20 ADD PUSH1 0x0 KECCAK256 PUSH1 0x0 SWAP1 SLOAD SWAP1 PUSH2 0x100 EXP SWAP1 DIV PUSH1 0xFF AND ISZERO DUP1 ISZERO PUSH2 0x38AF JUMPI POP PUSH1 0x7 PUSH1 0x0 DUP5 PUSH20 0xFFFFFFFFFFFFFFFFFFFFFFFFFFFFFFFFFFFFFFFF AND PUSH20 0xFFFFFFFFFFFFFFFFFFFFFFFFFFFFFFFFFFFFFFFF AND DUP2 MSTORE PUSH1 0x20 ADD SWAP1 DUP2 MSTORE PUSH1 0x20 ADD PUSH1 0x0 KECCAK256 PUSH1 0x0 SWAP1 SLOAD SWAP1 PUSH2 0x100 EXP SWAP1 DIV PUSH1 0xFF AND JUMPDEST ISZERO PUSH2 0x38C4 JUMPI PUSH2 0x38BF DUP5 DUP5 DUP5 PUSH2 0x454B JUMP JUMPDEST PUSH2 0x3A42 JUMP JUMPDEST PUSH1 0x7 PUSH1 0x0 DUP6 PUSH20 0xFFFFFFFFFFFFFFFFFFFFFFFFFFFFFFFFFFFFFFFF AND PUSH20 0xFFFFFFFFFFFFFFFFFFFFFFFFFFFFFFFFFFFFFFFF AND DUP2 MSTORE PUSH1 0x20 ADD SWAP1 DUP2 MSTORE PUSH1 0x20 ADD PUSH1 0x0 KECCAK256 PUSH1 0x0 SWAP1 SLOAD SWAP1 PUSH2 0x100 EXP SWAP1 DIV PUSH1 0xFF AND ISZERO DUP1 ISZERO PUSH2 0x3968 JUMPI POP PUSH1 0x7 PUSH1 0x0 DUP5 PUSH20 0xFFFFFFFFFFFFFFFFFFFFFFFFFFFFFFFFFFFFFFFF AND PUSH20 0xFFFFFFFFFFFFFFFFFFFFFFFFFFFFFFFFFFFFFFFF AND DUP2 MSTORE PUSH1 0x20 ADD SWAP1 DUP2 MSTORE PUSH1 0x20 ADD PUSH1 0x0 KECCAK256 PUSH1 0x0 SWAP1 SLOAD SWAP1 PUSH2 0x100 EXP SWAP1 DIV PUSH1 0xFF AND ISZERO JUMPDEST ISZERO PUSH2 0x397D JUMPI PUSH2 0x3978 DUP5 DUP5 DUP5 PUSH2 0x47AB JUMP JUMPDEST PUSH2 0x3A41 JUMP JUMPDEST PUSH1 0x7 PUSH1 0x0 DUP6 PUSH20 0xFFFFFFFFFFFFFFFFFFFFFFFFFFFFFFFFFFFFFFFF AND PUSH20 0xFFFFFFFFFFFFFFFFFFFFFFFFFFFFFFFFFFFFFFFF AND DUP2 MSTORE PUSH1 0x20 ADD SWAP1 DUP2 MSTORE PUSH1 0x20 ADD PUSH1 0x0 KECCAK256 PUSH1 0x0 SWAP1 SLOAD SWAP1 PUSH2 0x100 EXP SWAP1 DIV PUSH1 0xFF AND DUP1 ISZERO PUSH2 0x3A1F JUMPI POP PUSH1 0x7 PUSH1 0x0 DUP5 PUSH20 0xFFFFFFFFFFFFFFFFFFFFFFFFFFFFFFFFFFFFFFFF AND PUSH20 0xFFFFFFFFFFFFFFFFFFFFFFFFFFFFFFFFFFFFFFFF AND DUP2 MSTORE PUSH1 0x20 ADD SWAP1 DUP2 MSTORE PUSH1 0x20 ADD PUSH1 0x0 KECCAK256 PUSH1 0x0 SWAP1 SLOAD SWAP1 PUSH2 0x100 EXP SWAP1 DIV PUSH1 0xFF AND JUMPDEST ISZERO PUSH2 0x3A34 JUMPI PUSH2 0x3A2F DUP5 DUP5 DUP5 PUSH2 0x4976 JUMP JUMPDEST PUSH2 0x3A40 JUMP JUMPDEST PUSH2 0x3A3F DUP5 DUP5 DUP5 PUSH2 0x47AB JUMP JUMPDEST JUMPDEST JUMPDEST JUMPDEST JUMPDEST DUP1 PUSH2 0x3A51 JUMPI PUSH2 0x3A50 PUSH2 0x4C6B JUMP JUMPDEST JUMPDEST POP POP POP POP JUMP JUMPDEST PUSH1 0x0 DUP1 PUSH1 0x0 PUSH1 0xC SLOAD SWAP1 POP PUSH1 0x0 PUSH8 0xDE0B6B3A7640000 SWAP1 POP PUSH1 0x0 JUMPDEST PUSH1 0x8 DUP1 SLOAD SWAP1 POP DUP2 LT ISZERO PUSH2 0x3CB7 JUMPI DUP3 PUSH1 0x3 PUSH1 0x0 PUSH1 0x8 DUP5 DUP2 SLOAD DUP2 LT PUSH2 0x3A90 JUMPI INVALID JUMPDEST SWAP1 PUSH1 0x0 MSTORE PUSH1 0x20 PUSH1 0x0 KECCAK256 ADD PUSH1 0x0 SWAP1 SLOAD SWAP1 PUSH2 0x100 EXP SWAP1 DIV PUSH20 0xFFFFFFFFFFFFFFFFFFFFFFFFFFFFFFFFFFFFFFFF AND PUSH20 0xFFFFFFFFFFFFFFFFFFFFFFFFFFFFFFFFFFFFFFFF AND PUSH20 0xFFFFFFFFFFFFFFFFFFFFFFFFFFFFFFFFFFFFFFFF AND DUP2 MSTORE PUSH1 0x20 ADD SWAP1 DUP2 MSTORE PUSH1 0x20 ADD PUSH1 0x0 KECCAK256 SLOAD GT DUP1 PUSH2 0x3B77 JUMPI POP DUP2 PUSH1 0x4 PUSH1 0x0 PUSH1 0x8 DUP5 DUP2 SLOAD DUP2 LT PUSH2 0x3B0F JUMPI INVALID JUMPDEST SWAP1 PUSH1 0x0 MSTORE PUSH1 0x20 PUSH1 0x0 KECCAK256 ADD PUSH1 0x0 SWAP1 SLOAD SWAP1 PUSH2 0x100 EXP SWAP1 DIV PUSH20 0xFFFFFFFFFFFFFFFFFFFFFFFFFFFFFFFFFFFFFFFF AND PUSH20 0xFFFFFFFFFFFFFFFFFFFFFFFFFFFFFFFFFFFFFFFF AND PUSH20 0xFFFFFFFFFFFFFFFFFFFFFFFFFFFFFFFFFFFFFFFF AND DUP2 MSTORE PUSH1 0x20 ADD SWAP1 DUP2 MSTORE PUSH1 0x20 ADD PUSH1 0x0 KECCAK256 SLOAD GT JUMPDEST ISZERO PUSH2 0x3B94 JUMPI PUSH1 0xC SLOAD PUSH8 0xDE0B6B3A7640000 SWAP5 POP SWAP5 POP POP POP POP PUSH2 0x3CFC JUMP JUMPDEST PUSH2 0x3C1D PUSH1 0x3 PUSH1 0x0 PUSH1 0x8 DUP5 DUP2 SLOAD DUP2 LT PUSH2 0x3BA8 JUMPI INVALID JUMPDEST SWAP1 PUSH1 0x0 MSTORE PUSH1 0x20 PUSH1 0x0 KECCAK256 ADD PUSH1 0x0 SWAP1 SLOAD SWAP1 PUSH2 0x100 EXP SWAP1 DIV PUSH20 0xFFFFFFFFFFFFFFFFFFFFFFFFFFFFFFFFFFFFFFFF AND PUSH20 0xFFFFFFFFFFFFFFFFFFFFFFFFFFFFFFFFFFFFFFFF AND PUSH20 0xFFFFFFFFFFFFFFFFFFFFFFFFFFFFFFFFFFFFFFFF AND DUP2 MSTORE PUSH1 0x20 ADD SWAP1 DUP2 MSTORE PUSH1 0x20 ADD PUSH1 0x0 KECCAK256 SLOAD DUP5 PUSH2 0x3594 SWAP1 SWAP2 SWAP1 PUSH4 0xFFFFFFFF AND JUMP JUMPDEST SWAP3 POP PUSH2 0x3CA8 PUSH1 0x4 PUSH1 0x0 PUSH1 0x8 DUP5 DUP2 SLOAD DUP2 LT PUSH2 0x3C33 JUMPI INVALID JUMPDEST SWAP1 PUSH1 0x0 MSTORE PUSH1 0x20 PUSH1 0x0 KECCAK256 ADD PUSH1 0x0 SWAP1 SLOAD SWAP1 PUSH2 0x100 EXP SWAP1 DIV PUSH20 0xFFFFFFFFFFFFFFFFFFFFFFFFFFFFFFFFFFFFFFFF AND PUSH20 0xFFFFFFFFFFFFFFFFFFFFFFFFFFFFFFFFFFFFFFFF AND PUSH20 0xFFFFFFFFFFFFFFFFFFFFFFFFFFFFFFFFFFFFFFFF AND DUP2 MSTORE PUSH1 0x20 ADD SWAP1 DUP2 MSTORE PUSH1 0x20 ADD PUSH1 0x0 KECCAK256 SLOAD DUP4 PUSH2 0x3594 SWAP1 SWAP2 SWAP1 PUSH4 0xFFFFFFFF AND JUMP JUMPDEST SWAP2 POP DUP1 DUP1 PUSH1 0x1 ADD SWAP2 POP POP PUSH2 0x3A71 JUMP JUMPDEST POP PUSH2 0x3CD5 PUSH8 0xDE0B6B3A7640000 PUSH1 0xC SLOAD PUSH2 0x3466 SWAP1 SWAP2 SWAP1 PUSH4 0xFFFFFFFF AND JUMP JUMPDEST DUP3 LT ISZERO PUSH2 0x3CF3 JUMPI PUSH1 0xC SLOAD PUSH8 0xDE0B6B3A7640000 SWAP4 POP SWAP4 POP POP POP PUSH2 0x3CFC JUMP JUMPDEST DUP2 DUP2 SWAP4 POP SWAP4 POP POP POP JUMPDEST SWAP1 SWAP2 JUMP JUMPDEST PUSH1 0x0 DUP1 DUP4 GT DUP3 SWAP1 PUSH2 0x3DAC JUMPI PUSH1 0x40 MLOAD PUSH32 0x8C379A000000000000000000000000000000000000000000000000000000000 DUP2 MSTORE PUSH1 0x4 ADD DUP1 DUP1 PUSH1 0x20 ADD DUP3 DUP2 SUB DUP3 MSTORE DUP4 DUP2 DUP2 MLOAD DUP2 MSTORE PUSH1 0x20 ADD SWAP2 POP DUP1 MLOAD SWAP1 PUSH1 0x20 ADD SWAP1 DUP1 DUP4 DUP4 PUSH1 0x0 JUMPDEST DUP4 DUP2 LT ISZERO PUSH2 0x3D71 JUMPI DUP1 DUP3 ADD MLOAD DUP2 DUP5 ADD MSTORE PUSH1 0x20 DUP2 ADD SWAP1 POP PUSH2 0x3D56 JUMP JUMPDEST POP POP POP POP SWAP1 POP SWAP1 DUP2 ADD SWAP1 PUSH1 0x1F AND DUP1 ISZERO PUSH2 0x3D9E JUMPI DUP1 DUP3 SUB DUP1 MLOAD PUSH1 0x1 DUP4 PUSH1 0x20 SUB PUSH2 0x100 EXP SUB NOT AND DUP2 MSTORE PUSH1 0x20 ADD SWAP2 POP JUMPDEST POP SWAP3 POP POP POP PUSH1 0x40 MLOAD DUP1 SWAP2 SUB SWAP1 REVERT JUMPDEST POP PUSH1 0x0 DUP4 DUP6 DUP2 PUSH2 0x3DB8 JUMPI INVALID JUMPDEST DIV SWAP1 POP DUP1 SWAP2 POP POP SWAP4 SWAP3 POP POP POP JUMP JUMPDEST PUSH1 0x0 DUP1 PUSH1 0x0 DUP1 PUSH2 0x3DD5 DUP6 PUSH2 0x4C7F JUMP JUMPDEST SWAP1 POP PUSH1 0x0 PUSH2 0x3DE2 DUP7 PUSH2 0x4CB0 JUMP JUMPDEST SWAP1 POP PUSH1 0x0 PUSH2 0x3E0B DUP3 PUSH2 0x3DFD DUP6 DUP11 PUSH2 0x3594 SWAP1 SWAP2 SWAP1 PUSH4 0xFFFFFFFF AND JUMP JUMPDEST PUSH2 0x3594 SWAP1 SWAP2 SWAP1 PUSH4 0xFFFFFFFF AND JUMP JUMPDEST SWAP1 POP DUP1 DUP4 DUP4 SWAP6 POP SWAP6 POP SWAP6 POP POP POP POP SWAP2 SWAP4 SWAP1 SWAP3 POP JUMP JUMPDEST PUSH1 0x0 DUP1 PUSH1 0x0 DUP1 PUSH2 0x3E39 DUP6 DUP10 PUSH2 0x35DE SWAP1 SWAP2 SWAP1 PUSH4 0xFFFFFFFF AND JUMP JUMPDEST SWAP1 POP PUSH1 0x0 PUSH2 0x3E50 DUP7 DUP10 PUSH2 0x35DE SWAP1 SWAP2 SWAP1 PUSH4 0xFFFFFFFF AND JUMP JUMPDEST SWAP1 POP PUSH1 0x0 PUSH2 0x3E67 DUP8 DUP10 PUSH2 0x35DE SWAP1 SWAP2 SWAP1 PUSH4 0xFFFFFFFF AND JUMP JUMPDEST SWAP1 POP PUSH1 0x0 PUSH2 0x3E90 DUP3 PUSH2 0x3E82 DUP6 DUP8 PUSH2 0x3594 SWAP1 SWAP2 SWAP1 PUSH4 0xFFFFFFFF AND JUMP JUMPDEST PUSH2 0x3594 SWAP1 SWAP2 SWAP1 PUSH4 0xFFFFFFFF AND JUMP JUMPDEST SWAP1 POP DUP4 DUP2 DUP5 SWAP7 POP SWAP7 POP SWAP7 POP POP POP POP POP SWAP5 POP SWAP5 POP SWAP5 SWAP2 POP POP JUMP JUMPDEST PUSH1 0x60 PUSH1 0x2 PUSH8 0xFFFFFFFFFFFFFFFF DUP2 GT DUP1 ISZERO PUSH2 0x3EC3 JUMPI PUSH1 0x0 DUP1 REVERT JUMPDEST POP PUSH1 0x40 MLOAD SWAP1 DUP1 DUP3 MSTORE DUP1 PUSH1 0x20 MUL PUSH1 0x20 ADD DUP3 ADD PUSH1 0x40 MSTORE DUP1 ISZERO PUSH2 0x3EF2 JUMPI DUP2 PUSH1 0x20 ADD PUSH1 0x20 DUP3 MUL DUP1 CALLDATASIZE DUP4 CALLDATACOPY DUP1 DUP3 ADD SWAP2 POP POP SWAP1 POP JUMPDEST POP SWAP1 POP ADDRESS DUP2 PUSH1 0x0 DUP2 MLOAD DUP2 LT PUSH2 0x3F03 JUMPI INVALID JUMPDEST PUSH1 0x20 MUL PUSH1 0x20 ADD ADD SWAP1 PUSH20 0xFFFFFFFFFFFFFFFFFFFFFFFFFFFFFFFFFFFFFFFF AND SWAP1 DUP2 PUSH20 0xFFFFFFFFFFFFFFFFFFFFFFFFFFFFFFFFFFFFFFFF AND DUP2 MSTORE POP POP PUSH32 0x0 PUSH20 0xFFFFFFFFFFFFFFFFFFFFFFFFFFFFFFFFFFFFFFFF AND PUSH4 0xAD5C4648 PUSH1 0x40 MLOAD DUP2 PUSH4 0xFFFFFFFF AND PUSH1 0xE0 SHL DUP2 MSTORE PUSH1 0x4 ADD PUSH1 0x20 PUSH1 0x40 MLOAD DUP1 DUP4 SUB DUP2 DUP7 DUP1 EXTCODESIZE ISZERO DUP1 ISZERO PUSH2 0x3FA3 JUMPI PUSH1 0x0 DUP1 REVERT JUMPDEST POP GAS STATICCALL ISZERO DUP1 ISZERO PUSH2 0x3FB7 JUMPI RETURNDATASIZE PUSH1 0x0 DUP1 RETURNDATACOPY RETURNDATASIZE PUSH1 0x0 REVERT JUMPDEST POP POP POP POP PUSH1 0x40 MLOAD RETURNDATASIZE PUSH1 0x20 DUP2 LT ISZERO PUSH2 0x3FCD JUMPI PUSH1 0x0 DUP1 REVERT JUMPDEST DUP2 ADD SWAP1 DUP1 DUP1 MLOAD SWAP1 PUSH1 0x20 ADD SWAP1 SWAP3 SWAP2 SWAP1 POP POP POP DUP2 PUSH1 0x1 DUP2 MLOAD DUP2 LT PUSH2 0x3FEB JUMPI INVALID JUMPDEST PUSH1 0x20 MUL PUSH1 0x20 ADD ADD SWAP1 PUSH20 0xFFFFFFFFFFFFFFFFFFFFFFFFFFFFFFFFFFFFFFFF AND SWAP1 DUP2 PUSH20 0xFFFFFFFFFFFFFFFFFFFFFFFFFFFFFFFFFFFFFFFF AND DUP2 MSTORE POP POP PUSH2 0x4050 ADDRESS PUSH32 0x0 DUP5 PUSH2 0x2DBF JUMP JUMPDEST PUSH32 0x0 PUSH20 0xFFFFFFFFFFFFFFFFFFFFFFFFFFFFFFFFFFFFFFFF AND PUSH4 0x791AC947 DUP4 PUSH1 0x0 DUP5 ADDRESS TIMESTAMP PUSH1 0x40 MLOAD DUP7 PUSH4 0xFFFFFFFF AND PUSH1 0xE0 SHL DUP2 MSTORE PUSH1 0x4 ADD DUP1 DUP7 DUP2 MSTORE PUSH1 0x20 ADD DUP6 DUP2 MSTORE PUSH1 0x20 ADD DUP1 PUSH1 0x20 ADD DUP5 PUSH20 0xFFFFFFFFFFFFFFFFFFFFFFFFFFFFFFFFFFFFFFFF AND DUP2 MSTORE PUSH1 0x20 ADD DUP4 DUP2 MSTORE PUSH1 0x20 ADD DUP3 DUP2 SUB DUP3 MSTORE DUP6 DUP2 DUP2 MLOAD DUP2 MSTORE PUSH1 0x20 ADD SWAP2 POP DUP1 MLOAD SWAP1 PUSH1 0x20 ADD SWAP1 PUSH1 0x20 MUL DUP1 DUP4 DUP4 PUSH1 0x0 JUMPDEST DUP4 DUP2 LT ISZERO PUSH2 0x4112 JUMPI DUP1 DUP3 ADD MLOAD DUP2 DUP5 ADD MSTORE PUSH1 0x20 DUP2 ADD SWAP1 POP PUSH2 0x40F7 JUMP JUMPDEST POP POP POP POP SWAP1 POP ADD SWAP7 POP POP POP POP POP POP POP PUSH1 0x0 PUSH1 0x40 MLOAD DUP1 DUP4 SUB DUP2 PUSH1 0x0 DUP8 DUP1 EXTCODESIZE ISZERO DUP1 ISZERO PUSH2 0x413B JUMPI PUSH1 0x0 DUP1 REVERT JUMPDEST POP GAS CALL ISZERO DUP1 ISZERO PUSH2 0x414F JUMPI RETURNDATASIZE PUSH1 0x0 DUP1 RETURNDATACOPY RETURNDATASIZE PUSH1 0x0 REVERT JUMPDEST POP POP POP POP POP POP JUMP JUMPDEST PUSH2 0x4182 ADDRESS PUSH32 0x0 DUP5 PUSH2 0x2DBF JUMP JUMPDEST PUSH32 0x0 PUSH20 0xFFFFFFFFFFFFFFFFFFFFFFFFFFFFFFFFFFFFFFFF AND PUSH4 0xF305D719 DUP3 ADDRESS DUP6 PUSH1 0x0 DUP1 PUSH2 0x41CC PUSH2 0x2145 JUMP JUMPDEST TIMESTAMP PUSH1 0x40 MLOAD DUP9 PUSH4 0xFFFFFFFF AND PUSH1 0xE0 SHL DUP2 MSTORE PUSH1 0x4 ADD DUP1 DUP8 PUSH20 0xFFFFFFFFFFFFFFFFFFFFFFFFFFFFFFFFFFFFFFFF AND DUP2 MSTORE PUSH1 0x20 ADD DUP7 DUP2 MSTORE PUSH1 0x20 ADD DUP6 DUP2 MSTORE PUSH1 0x20 ADD DUP5 DUP2 MSTORE PUSH1 0x20 ADD DUP4 PUSH20 0xFFFFFFFFFFFFFFFFFFFFFFFFFFFFFFFFFFFFFFFF AND DUP2 MSTORE PUSH1 0x20 ADD DUP3 DUP2 MSTORE PUSH1 0x20 ADD SWAP7 POP POP POP POP POP POP POP PUSH1 0x60 PUSH1 0x40 MLOAD DUP1 DUP4 SUB DUP2 DUP6 DUP9 DUP1 EXTCODESIZE ISZERO DUP1 ISZERO PUSH2 0x4251 JUMPI PUSH1 0x0 DUP1 REVERT JUMPDEST POP GAS CALL ISZERO DUP1 ISZERO PUSH2 0x4265 JUMPI RETURNDATASIZE PUSH1 0x0 DUP1 RETURNDATACOPY RETURNDATASIZE PUSH1 0x0 REVERT JUMPDEST POP POP POP POP POP PUSH1 0x40 MLOAD RETURNDATASIZE PUSH1 0x60 DUP2 LT ISZERO PUSH2 0x427C JUMPI PUSH1 0x0 DUP1 REVERT JUMPDEST DUP2 ADD SWAP1 DUP1 DUP1 MLOAD SWAP1 PUSH1 0x20 ADD SWAP1 SWAP3 SWAP2 SWAP1 DUP1 MLOAD SWAP1 PUSH1 0x20 ADD SWAP1 SWAP3 SWAP2 SWAP1 DUP1 MLOAD SWAP1 PUSH1 0x20 ADD SWAP1 SWAP3 SWAP2 SWAP1 POP POP POP POP POP POP POP POP JUMP JUMPDEST PUSH1 0x0 PUSH1 0x11 SLOAD EQ DUP1 ISZERO PUSH2 0x42BC JUMPI POP PUSH1 0x0 PUSH1 0x13 SLOAD EQ JUMPDEST ISZERO PUSH2 0x42C6 JUMPI PUSH2 0x42E9 JUMP JUMPDEST PUSH1 0x11 SLOAD PUSH1 0x12 DUP2 SWAP1 SSTORE POP PUSH1 0x13 SLOAD PUSH1 0x14 DUP2 SWAP1 SSTORE POP PUSH1 0x0 PUSH1 0x11 DUP2 SWAP1 SSTORE POP PUSH1 0x0 PUSH1 0x13 DUP2 SWAP1 SSTORE POP JUMPDEST JUMP JUMPDEST PUSH1 0x0 DUP1 PUSH1 0x0 DUP1 PUSH1 0x0 DUP1 PUSH2 0x42FD DUP8 PUSH2 0x3538 JUMP JUMPDEST SWAP6 POP SWAP6 POP SWAP6 POP SWAP6 POP SWAP6 POP SWAP6 POP PUSH2 0x435B DUP8 PUSH1 0x4 PUSH1 0x0 DUP13 PUSH20 0xFFFFFFFFFFFFFFFFFFFFFFFFFFFFFFFFFFFFFFFF AND PUSH20 0xFFFFFFFFFFFFFFFFFFFFFFFFFFFFFFFFFFFFFFFF AND DUP2 MSTORE PUSH1 0x20 ADD SWAP1 DUP2 MSTORE PUSH1 0x20 ADD PUSH1 0x0 KECCAK256 SLOAD PUSH2 0x3594 SWAP1 SWAP2 SWAP1 PUSH4 0xFFFFFFFF AND JUMP JUMPDEST PUSH1 0x4 PUSH1 0x0 DUP12 PUSH20 0xFFFFFFFFFFFFFFFFFFFFFFFFFFFFFFFFFFFFFFFF AND PUSH20 0xFFFFFFFFFFFFFFFFFFFFFFFFFFFFFFFFFFFFFFFF AND DUP2 MSTORE PUSH1 0x20 ADD SWAP1 DUP2 MSTORE PUSH1 0x20 ADD PUSH1 0x0 KECCAK256 DUP2 SWAP1 SSTORE POP PUSH2 0x43F0 DUP7 PUSH1 0x3 PUSH1 0x0 DUP13 PUSH20 0xFFFFFFFFFFFFFFFFFFFFFFFFFFFFFFFFFFFFFFFF AND PUSH20 0xFFFFFFFFFFFFFFFFFFFFFFFFFFFFFFFFFFFFFFFF AND DUP2 MSTORE PUSH1 0x20 ADD SWAP1 DUP2 MSTORE PUSH1 0x20 ADD PUSH1 0x0 KECCAK256 SLOAD PUSH2 0x3594 SWAP1 SWAP2 SWAP1 PUSH4 0xFFFFFFFF AND JUMP JUMPDEST PUSH1 0x3 PUSH1 0x0 DUP12 PUSH20 0xFFFFFFFFFFFFFFFFFFFFFFFFFFFFFFFFFFFFFFFF AND PUSH20 0xFFFFFFFFFFFFFFFFFFFFFFFFFFFFFFFFFFFFFFFF AND DUP2 MSTORE PUSH1 0x20 ADD SWAP1 DUP2 MSTORE PUSH1 0x20 ADD PUSH1 0x0 KECCAK256 DUP2 SWAP1 SSTORE POP PUSH2 0x4485 DUP6 PUSH1 0x3 PUSH1 0x0 DUP12 PUSH20 0xFFFFFFFFFFFFFFFFFFFFFFFFFFFFFFFFFFFFFFFF AND PUSH20 0xFFFFFFFFFFFFFFFFFFFFFFFFFFFFFFFFFFFFFFFF AND DUP2 MSTORE PUSH1 0x20 ADD SWAP1 DUP2 MSTORE PUSH1 0x20 ADD PUSH1 0x0 KECCAK256 SLOAD PUSH2 0x34B0 SWAP1 SWAP2 SWAP1 PUSH4 0xFFFFFFFF AND JUMP JUMPDEST PUSH1 0x3 PUSH1 0x0 DUP11 PUSH20 0xFFFFFFFFFFFFFFFFFFFFFFFFFFFFFFFFFFFFFFFF AND PUSH20 0xFFFFFFFFFFFFFFFFFFFFFFFFFFFFFFFFFFFFFFFF AND DUP2 MSTORE PUSH1 0x20 ADD SWAP1 DUP2 MSTORE PUSH1 0x20 ADD PUSH1 0x0 KECCAK256 DUP2 SWAP1 SSTORE POP PUSH2 0x44D1 DUP2 PUSH2 0x4CE1 JUMP JUMPDEST PUSH2 0x44DB DUP5 DUP4 PUSH2 0x4E86 JUMP JUMPDEST DUP8 PUSH20 0xFFFFFFFFFFFFFFFFFFFFFFFFFFFFFFFFFFFFFFFF AND DUP10 PUSH20 0xFFFFFFFFFFFFFFFFFFFFFFFFFFFFFFFFFFFFFFFF AND PUSH32 0xDDF252AD1BE2C89B69C2B068FC378DAA952BA7F163C4A11628F55A4DF523B3EF DUP6 PUSH1 0x40 MLOAD DUP1 DUP3 DUP2 MSTORE PUSH1 0x20 ADD SWAP2 POP POP PUSH1 0x40 MLOAD DUP1 SWAP2 SUB SWAP1 LOG3 POP POP POP POP POP POP POP POP POP JUMP JUMPDEST PUSH1 0x0 DUP1 PUSH1 0x0 DUP1 PUSH1 0x0 DUP1 PUSH2 0x455D DUP8 PUSH2 0x3538 JUMP JUMPDEST SWAP6 POP SWAP6 POP SWAP6 POP SWAP6 POP SWAP6 POP SWAP6 POP PUSH2 0x45BB DUP7 PUSH1 0x3 PUSH1 0x0 DUP13 PUSH20 0xFFFFFFFFFFFFFFFFFFFFFFFFFFFFFFFFFFFFFFFF AND PUSH20 0xFFFFFFFFFFFFFFFFFFFFFFFFFFFFFFFFFFFFFFFF AND DUP2 MSTORE PUSH1 0x20 ADD SWAP1 DUP2 MSTORE PUSH1 0x20 ADD PUSH1 0x0 KECCAK256 SLOAD PUSH2 0x3594 SWAP1 SWAP2 SWAP1 PUSH4 0xFFFFFFFF AND JUMP JUMPDEST PUSH1 0x3 PUSH1 0x0 DUP12 PUSH20 0xFFFFFFFFFFFFFFFFFFFFFFFFFFFFFFFFFFFFFFFF AND PUSH20 0xFFFFFFFFFFFFFFFFFFFFFFFFFFFFFFFFFFFFFFFF AND DUP2 MSTORE PUSH1 0x20 ADD SWAP1 DUP2 MSTORE PUSH1 0x20 ADD PUSH1 0x0 KECCAK256 DUP2 SWAP1 SSTORE POP PUSH2 0x4650 DUP4 PUSH1 0x4 PUSH1 0x0 DUP12 PUSH20 0xFFFFFFFFFFFFFFFFFFFFFFFFFFFFFFFFFFFFFFFF AND PUSH20 0xFFFFFFFFFFFFFFFFFFFFFFFFFFFFFFFFFFFFFFFF AND DUP2 MSTORE PUSH1 0x20 ADD SWAP1 DUP2 MSTORE PUSH1 0x20 ADD PUSH1 0x0 KECCAK256 SLOAD PUSH2 0x34B0 SWAP1 SWAP2 SWAP1 PUSH4 0xFFFFFFFF AND JUMP JUMPDEST PUSH1 0x4 PUSH1 0x0 DUP11 PUSH20 0xFFFFFFFFFFFFFFFFFFFFFFFFFFFFFFFFFFFFFFFF AND PUSH20 0xFFFFFFFFFFFFFFFFFFFFFFFFFFFFFFFFFFFFFFFF AND DUP2 MSTORE PUSH1 0x20 ADD SWAP1 DUP2 MSTORE PUSH1 0x20 ADD PUSH1 0x0 KECCAK256 DUP2 SWAP1 SSTORE POP PUSH2 0x46E5 DUP6 PUSH1 0x3 PUSH1 0x0 DUP12 PUSH20 0xFFFFFFFFFFFFFFFFFFFFFFFFFFFFFFFFFFFFFFFF AND PUSH20 0xFFFFFFFFFFFFFFFFFFFFFFFFFFFFFFFFFFFFFFFF AND DUP2 MSTORE PUSH1 0x20 ADD SWAP1 DUP2 MSTORE PUSH1 0x20 ADD PUSH1 0x0 KECCAK256 SLOAD PUSH2 0x34B0 SWAP1 SWAP2 SWAP1 PUSH4 0xFFFFFFFF AND JUMP JUMPDEST PUSH1 0x3 PUSH1 0x0 DUP11 PUSH20 0xFFFFFFFFFFFFFFFFFFFFFFFFFFFFFFFFFFFFFFFF AND PUSH20 0xFFFFFFFFFFFFFFFFFFFFFFFFFFFFFFFFFFFFFFFF AND DUP2 MSTORE PUSH1 0x20 ADD SWAP1 DUP2 MSTORE PUSH1 0x20 ADD PUSH1 0x0 KECCAK256 DUP2 SWAP1 SSTORE POP PUSH2 0x4731 DUP2 PUSH2 0x4CE1 JUMP JUMPDEST PUSH2 0x473B DUP5 DUP4 PUSH2 0x4E86 JUMP JUMPDEST DUP8 PUSH20 0xFFFFFFFFFFFFFFFFFFFFFFFFFFFFFFFFFFFFFFFF AND DUP10 PUSH20 0xFFFFFFFFFFFFFFFFFFFFFFFFFFFFFFFFFFFFFFFF AND PUSH32 0xDDF252AD1BE2C89B69C2B068FC378DAA952BA7F163C4A11628F55A4DF523B3EF DUP6 PUSH1 0x40 MLOAD DUP1 DUP3 DUP2 MSTORE PUSH1 0x20 ADD SWAP2 POP POP PUSH1 0x40 MLOAD DUP1 SWAP2 SUB SWAP1 LOG3 POP POP POP POP POP POP POP POP POP JUMP JUMPDEST PUSH1 0x0 DUP1 PUSH1 0x0 DUP1 PUSH1 0x0 DUP1 PUSH2 0x47BD DUP8 PUSH2 0x3538 JUMP JUMPDEST SWAP6 POP SWAP6 POP SWAP6 POP SWAP6 POP SWAP6 POP SWAP6 POP PUSH2 0x481B DUP7 PUSH1 0x3 PUSH1 0x0 DUP13 PUSH20 0xFFFFFFFFFFFFFFFFFFFFFFFFFFFFFFFFFFFFFFFF AND PUSH20 0xFFFFFFFFFFFFFFFFFFFFFFFFFFFFFFFFFFFFFFFF AND DUP2 MSTORE PUSH1 0x20 ADD SWAP1 DUP2 MSTORE PUSH1 0x20 ADD PUSH1 0x0 KECCAK256 SLOAD PUSH2 0x3594 SWAP1 SWAP2 SWAP1 PUSH4 0xFFFFFFFF AND JUMP JUMPDEST PUSH1 0x3 PUSH1 0x0 DUP12 PUSH20 0xFFFFFFFFFFFFFFFFFFFFFFFFFFFFFFFFFFFFFFFF AND PUSH20 0xFFFFFFFFFFFFFFFFFFFFFFFFFFFFFFFFFFFFFFFF AND DUP2 MSTORE PUSH1 0x20 ADD SWAP1 DUP2 MSTORE PUSH1 0x20 ADD PUSH1 0x0 KECCAK256 DUP2 SWAP1 SSTORE POP PUSH2 0x48B0 DUP6 PUSH1 0x3 PUSH1 0x0 DUP12 PUSH20 0xFFFFFFFFFFFFFFFFFFFFFFFFFFFFFFFFFFFFFFFF AND PUSH20 0xFFFFFFFFFFFFFFFFFFFFFFFFFFFFFFFFFFFFFFFF AND DUP2 MSTORE PUSH1 0x20 ADD SWAP1 DUP2 MSTORE PUSH1 0x20 ADD PUSH1 0x0 KECCAK256 SLOAD PUSH2 0x34B0 SWAP1 SWAP2 SWAP1 PUSH4 0xFFFFFFFF AND JUMP JUMPDEST PUSH1 0x3 PUSH1 0x0 DUP11 PUSH20 0xFFFFFFFFFFFFFFFFFFFFFFFFFFFFFFFFFFFFFFFF AND PUSH20 0xFFFFFFFFFFFFFFFFFFFFFFFFFFFFFFFFFFFFFFFF AND DUP2 MSTORE PUSH1 0x20 ADD SWAP1 DUP2 MSTORE PUSH1 0x20 ADD PUSH1 0x0 KECCAK256 DUP2 SWAP1 SSTORE POP PUSH2 0x48FC DUP2 PUSH2 0x4CE1 JUMP JUMPDEST PUSH2 0x4906 DUP5 DUP4 PUSH2 0x4E86 JUMP JUMPDEST DUP8 PUSH20 0xFFFFFFFFFFFFFFFFFFFFFFFFFFFFFFFFFFFFFFFF AND DUP10 PUSH20 0xFFFFFFFFFFFFFFFFFFFFFFFFFFFFFFFFFFFFFFFF AND PUSH32 0xDDF252AD1BE2C89B69C2B068FC378DAA952BA7F163C4A11628F55A4DF523B3EF DUP6 PUSH1 0x40 MLOAD DUP1 DUP3 DUP2 MSTORE PUSH1 0x20 ADD SWAP2 POP POP PUSH1 0x40 MLOAD DUP1 SWAP2 SUB SWAP1 LOG3 POP POP POP POP POP POP POP POP POP JUMP JUMPDEST PUSH1 0x0 DUP1 PUSH1 0x0 DUP1 PUSH1 0x0 DUP1 PUSH2 0x4988 DUP8 PUSH2 0x3538 JUMP JUMPDEST SWAP6 POP SWAP6 POP SWAP6 POP SWAP6 POP SWAP6 POP SWAP6 POP PUSH2 0x49E6 DUP8 PUSH1 0x4 PUSH1 0x0 DUP13 PUSH20 0xFFFFFFFFFFFFFFFFFFFFFFFFFFFFFFFFFFFFFFFF AND PUSH20 0xFFFFFFFFFFFFFFFFFFFFFFFFFFFFFFFFFFFFFFFF AND DUP2 MSTORE PUSH1 0x20 ADD SWAP1 DUP2 MSTORE PUSH1 0x20 ADD PUSH1 0x0 KECCAK256 SLOAD PUSH2 0x3594 SWAP1 SWAP2 SWAP1 PUSH4 0xFFFFFFFF AND JUMP JUMPDEST PUSH1 0x4 PUSH1 0x0 DUP12 PUSH20 0xFFFFFFFFFFFFFFFFFFFFFFFFFFFFFFFFFFFFFFFF AND PUSH20 0xFFFFFFFFFFFFFFFFFFFFFFFFFFFFFFFFFFFFFFFF AND DUP2 MSTORE PUSH1 0x20 ADD SWAP1 DUP2 MSTORE PUSH1 0x20 ADD PUSH1 0x0 KECCAK256 DUP2 SWAP1 SSTORE POP PUSH2 0x4A7B DUP7 PUSH1 0x3 PUSH1 0x0 DUP13 PUSH20 0xFFFFFFFFFFFFFFFFFFFFFFFFFFFFFFFFFFFFFFFF AND PUSH20 0xFFFFFFFFFFFFFFFFFFFFFFFFFFFFFFFFFFFFFFFF AND DUP2 MSTORE PUSH1 0x20 ADD SWAP1 DUP2 MSTORE PUSH1 0x20 ADD PUSH1 0x0 KECCAK256 SLOAD PUSH2 0x3594 SWAP1 SWAP2 SWAP1 PUSH4 0xFFFFFFFF AND JUMP JUMPDEST PUSH1 0x3 PUSH1 0x0 DUP12 PUSH20 0xFFFFFFFFFFFFFFFFFFFFFFFFFFFFFFFFFFFFFFFF AND PUSH20 0xFFFFFFFFFFFFFFFFFFFFFFFFFFFFFFFFFFFFFFFF AND DUP2 MSTORE PUSH1 0x20 ADD SWAP1 DUP2 MSTORE PUSH1 0x20 ADD PUSH1 0x0 KECCAK256 DUP2 SWAP1 SSTORE POP PUSH2 0x4B10 DUP4 PUSH1 0x4 PUSH1 0x0 DUP12 PUSH20 0xFFFFFFFFFFFFFFFFFFFFFFFFFFFFFFFFFFFFFFFF AND PUSH20 0xFFFFFFFFFFFFFFFFFFFFFFFFFFFFFFFFFFFFFFFF AND DUP2 MSTORE PUSH1 0x20 ADD SWAP1 DUP2 MSTORE PUSH1 0x20 ADD PUSH1 0x0 KECCAK256 SLOAD PUSH2 0x34B0 SWAP1 SWAP2 SWAP1 PUSH4 0xFFFFFFFF AND JUMP JUMPDEST PUSH1 0x4 PUSH1 0x0 DUP11 PUSH20 0xFFFFFFFFFFFFFFFFFFFFFFFFFFFFFFFFFFFFFFFF AND PUSH20 0xFFFFFFFFFFFFFFFFFFFFFFFFFFFFFFFFFFFFFFFF AND DUP2 MSTORE PUSH1 0x20 ADD SWAP1 DUP2 MSTORE PUSH1 0x20 ADD PUSH1 0x0 KECCAK256 DUP2 SWAP1 SSTORE POP PUSH2 0x4BA5 DUP6 PUSH1 0x3 PUSH1 0x0 DUP12 PUSH20 0xFFFFFFFFFFFFFFFFFFFFFFFFFFFFFFFFFFFFFFFF AND PUSH20 0xFFFFFFFFFFFFFFFFFFFFFFFFFFFFFFFFFFFFFFFF AND DUP2 MSTORE PUSH1 0x20 ADD SWAP1 DUP2 MSTORE PUSH1 0x20 ADD PUSH1 0x0 KECCAK256 SLOAD PUSH2 0x34B0 SWAP1 SWAP2 SWAP1 PUSH4 0xFFFFFFFF AND JUMP JUMPDEST PUSH1 0x3 PUSH1 0x0 DUP11 PUSH20 0xFFFFFFFFFFFFFFFFFFFFFFFFFFFFFFFFFFFFFFFF AND PUSH20 0xFFFFFFFFFFFFFFFFFFFFFFFFFFFFFFFFFFFFFFFF AND DUP2 MSTORE PUSH1 0x20 ADD SWAP1 DUP2 MSTORE PUSH1 0x20 ADD PUSH1 0x0 KECCAK256 DUP2 SWAP1 SSTORE POP PUSH2 0x4BF1 DUP2 PUSH2 0x4CE1 JUMP JUMPDEST PUSH2 0x4BFB DUP5 DUP4 PUSH2 0x4E86 JUMP JUMPDEST DUP8 PUSH20 0xFFFFFFFFFFFFFFFFFFFFFFFFFFFFFFFFFFFFFFFF AND DUP10 PUSH20 0xFFFFFFFFFFFFFFFFFFFFFFFFFFFFFFFFFFFFFFFF AND PUSH32 0xDDF252AD1BE2C89B69C2B068FC378DAA952BA7F163C4A11628F55A4DF523B3EF DUP6 PUSH1 0x40 MLOAD DUP1 DUP3 DUP2 MSTORE PUSH1 0x20 ADD SWAP2 POP POP PUSH1 0x40 MLOAD DUP1 SWAP2 SUB SWAP1 LOG3 POP POP POP POP POP POP POP POP POP JUMP JUMPDEST PUSH1 0x12 SLOAD PUSH1 0x11 DUP2 SWAP1 SSTORE POP PUSH1 0x14 SLOAD PUSH1 0x13 DUP2 SWAP1 SSTORE POP JUMP JUMPDEST PUSH1 0x0 PUSH2 0x4CA9 PUSH1 0x64 PUSH2 0x4C9B PUSH1 0x11 SLOAD DUP6 PUSH2 0x35DE SWAP1 SWAP2 SWAP1 PUSH4 0xFFFFFFFF AND JUMP JUMPDEST PUSH2 0x3466 SWAP1 SWAP2 SWAP1 PUSH4 0xFFFFFFFF AND JUMP JUMPDEST SWAP1 POP SWAP2 SWAP1 POP JUMP JUMPDEST PUSH1 0x0 PUSH2 0x4CDA PUSH1 0x64 PUSH2 0x4CCC PUSH1 0x13 SLOAD DUP6 PUSH2 0x35DE SWAP1 SWAP2 SWAP1 PUSH4 0xFFFFFFFF AND JUMP JUMPDEST PUSH2 0x3466 SWAP1 SWAP2 SWAP1 PUSH4 0xFFFFFFFF AND JUMP JUMPDEST SWAP1 POP SWAP2 SWAP1 POP JUMP JUMPDEST PUSH1 0x0 PUSH2 0x4CEB PUSH2 0x343B JUMP JUMPDEST SWAP1 POP PUSH1 0x0 PUSH2 0x4D02 DUP3 DUP5 PUSH2 0x35DE SWAP1 SWAP2 SWAP1 PUSH4 0xFFFFFFFF AND JUMP JUMPDEST SWAP1 POP PUSH2 0x4D56 DUP2 PUSH1 0x3 PUSH1 0x0 ADDRESS PUSH20 0xFFFFFFFFFFFFFFFFFFFFFFFFFFFFFFFFFFFFFFFF AND PUSH20 0xFFFFFFFFFFFFFFFFFFFFFFFFFFFFFFFFFFFFFFFF AND DUP2 MSTORE PUSH1 0x20 ADD SWAP1 DUP2 MSTORE PUSH1 0x20 ADD PUSH1 0x0 KECCAK256 SLOAD PUSH2 0x34B0 SWAP1 SWAP2 SWAP1 PUSH4 0xFFFFFFFF AND JUMP JUMPDEST PUSH1 0x3 PUSH1 0x0 ADDRESS PUSH20 0xFFFFFFFFFFFFFFFFFFFFFFFFFFFFFFFFFFFFFFFF AND PUSH20 0xFFFFFFFFFFFFFFFFFFFFFFFFFFFFFFFFFFFFFFFF AND DUP2 MSTORE PUSH1 0x20 ADD SWAP1 DUP2 MSTORE PUSH1 0x20 ADD PUSH1 0x0 KECCAK256 DUP2 SWAP1 SSTORE POP PUSH1 0x7 PUSH1 0x0 ADDRESS PUSH20 0xFFFFFFFFFFFFFFFFFFFFFFFFFFFFFFFFFFFFFFFF AND PUSH20 0xFFFFFFFFFFFFFFFFFFFFFFFFFFFFFFFFFFFFFFFF AND DUP2 MSTORE PUSH1 0x20 ADD SWAP1 DUP2 MSTORE PUSH1 0x20 ADD PUSH1 0x0 KECCAK256 PUSH1 0x0 SWAP1 SLOAD SWAP1 PUSH2 0x100 EXP SWAP1 DIV PUSH1 0xFF AND ISZERO PUSH2 0x4E81 JUMPI PUSH2 0x4E3D DUP4 PUSH1 0x4 PUSH1 0x0 ADDRESS PUSH20 0xFFFFFFFFFFFFFFFFFFFFFFFFFFFFFFFFFFFFFFFF AND PUSH20 0xFFFFFFFFFFFFFFFFFFFFFFFFFFFFFFFFFFFFFFFF AND DUP2 MSTORE PUSH1 0x20 ADD SWAP1 DUP2 MSTORE PUSH1 0x20 ADD PUSH1 0x0 KECCAK256 SLOAD PUSH2 0x34B0 SWAP1 SWAP2 SWAP1 PUSH4 0xFFFFFFFF AND JUMP JUMPDEST PUSH1 0x4 PUSH1 0x0 ADDRESS PUSH20 0xFFFFFFFFFFFFFFFFFFFFFFFFFFFFFFFFFFFFFFFF AND PUSH20 0xFFFFFFFFFFFFFFFFFFFFFFFFFFFFFFFFFFFFFFFF AND DUP2 MSTORE PUSH1 0x20 ADD SWAP1 DUP2 MSTORE PUSH1 0x20 ADD PUSH1 0x0 KECCAK256 DUP2 SWAP1 SSTORE POP JUMPDEST POP POP POP JUMP JUMPDEST PUSH2 0x4E9B DUP3 PUSH1 0xC SLOAD PUSH2 0x3594 SWAP1 SWAP2 SWAP1 PUSH4 0xFFFFFFFF AND JUMP JUMPDEST PUSH1 0xC DUP2 SWAP1 SSTORE POP PUSH2 0x4EB6 DUP2 PUSH1 0xD SLOAD PUSH2 0x34B0 SWAP1 SWAP2 SWAP1 PUSH4 0xFFFFFFFF AND JUMP JUMPDEST PUSH1 0xD DUP2 SWAP1 SSTORE POP POP POP JUMP INVALID GASLIMIT MSTORE NUMBER ORIGIN ADDRESS GASPRICE KECCAK256 PUSH21 0x72616E7366657220746F20746865207A65726F2061 PUSH5 0x6472657373 COINBASE PUSH14 0x6F756E74206D757374206265206C PUSH6 0x737320746861 PUSH15 0x20746F74616C207265666C65637469 PUSH16 0x6E734F776E61626C653A206E6577206F PUSH24 0x6E657220697320746865207A65726F206164647265737345 MSTORE NUMBER ORIGIN ADDRESS GASPRICE KECCAK256 PUSH2 0x7070 PUSH19 0x6F766520746F20746865207A65726F20616464 PUSH19 0x6573735472616E7366657220616D6F756E7420 PUSH6 0x786365656473 KECCAK256 PUSH21 0x6865206D61785478416D6F756E742E536166654D61 PUSH21 0x683A206D756C7469706C69636174696F6E206F7665 PUSH19 0x666C6F7745524332303A207472616E73666572 KECCAK256 PUSH2 0x6D6F PUSH22 0x6E74206578636565647320616C6C6F77616E63655472 PUSH2 0x6E73 PUSH7 0x657220616D6F75 PUSH15 0x74206D757374206265206772656174 PUSH6 0x72207468616E KECCAK256 PUSH27 0x65726F45524332303A207472616E736665722066726F6D20746865 KECCAK256 PUSH27 0x65726F206164647265737345524332303A20617070726F76652066 PUSH19 0x6F6D20746865207A65726F2061646472657373 GASLIMIT PUSH25 0x636C75646564206164647265737365732063616E6E6F742063 PUSH2 0x6C6C KECCAK256 PUSH21 0x6869732066756E6374696F6E596F7520646F6E2774 KECCAK256 PUSH9 0x617665207065726D69 PUSH20 0x73696F6E20746F20756E6C6F636B45524332303A KECCAK256 PUSH5 0x6563726561 PUSH20 0x656420616C6C6F77616E63652062656C6F77207A PUSH6 0x726FA2646970 PUSH7 0x73582212203F6E 0xE3 0x48 PUSH10 0x941B0C7B64CBAD90FBED PUSH26 0xA22FF3BDA7DD54942FAC8780CD85D1C464736F6C634300060C00 CALLER "
				},
				"gasEstimates": {
					"creation": {
						"codeDepositCost": "4141200",
						"executionCost": "infinite",
						"totalCost": "infinite"
					},
					"external": {
						"_liquidityFee()": "1073",
						"_maxTxAmount()": "1050",
						"_taxFee()": "1117",
						"addInitialLiquidity()": "infinite",
						"allowance(address,address)": "1409",
						"approve(address,uint256)": "infinite",
						"balanceOf(address)": "infinite",
						"decimals()": "1101",
						"decreaseAllowance(address,uint256)": "infinite",
						"deliver(uint256)": "infinite",
						"excludeFromFee(address)": "22138",
						"excludeFromReward(address)": "infinite",
						"geUnlockTime()": "1124",
						"includeInFee(address)": "22203",
						"includeInReward(address)": "infinite",
						"increaseAllowance(address,uint256)": "infinite",
						"isExcludedFromFee(address)": "1284",
						"isExcludedFromReward(address)": "1305",
						"lock(uint256)": "66160",
						"name()": "infinite",
						"owner()": "1144",
						"reflectionFromToken(uint256,bool)": "infinite",
						"renounceOwnership()": "24403",
						"setLiquidityFeePercent(uint256)": "21255",
						"setMaxTxPercent(uint256)": "infinite",
						"setSwapAndLiquifyEnabled(bool)": "23259",
						"setTaxFeePercent(uint256)": "21213",
						"swapAndLiquifyEnabled()": "1208",
						"symbol()": "infinite",
						"tokenFromReflection(uint256)": "infinite",
						"totalFees()": "1059",
						"totalSupply()": "303",
						"transfer(address,uint256)": "infinite",
						"transferFrom(address,address,uint256)": "infinite",
						"transferOwnership(address)": "infinite",
						"uniswapV2Pair()": "infinite",
						"uniswapV2Router()": "infinite",
						"unlock()": "infinite"
					},
					"internal": {
						"_approve(address,address,uint256)": "infinite",
						"_getCurrentSupply()": "infinite",
						"_getRValues(uint256,uint256,uint256,uint256)": "infinite",
						"_getRate()": "infinite",
						"_getTValues(uint256)": "infinite",
						"_getValues(uint256)": "infinite",
						"_reflectFee(uint256,uint256)": "infinite",
						"_takeLiquidity(uint256)": "infinite",
						"_tokenTransfer(address,address,uint256,bool)": "infinite",
						"_transfer(address,address,uint256)": "infinite",
						"_transferBothExcluded(address,address,uint256)": "infinite",
						"_transferFromExcluded(address,address,uint256)": "infinite",
						"_transferStandard(address,address,uint256)": "infinite",
						"_transferToExcluded(address,address,uint256)": "infinite",
						"addLiquidity(uint256,uint256)": "infinite",
						"calculateLiquidityFee(uint256)": "infinite",
						"calculateTaxFee(uint256)": "infinite",
						"removeAllFee()": "53323",
						"restoreAllFee()": "41637",
						"swapAndLiquify(uint256)": "infinite",
						"swapTokensForEth(uint256)": "infinite"
					}
				},
				"methodIdentifiers": {
					"_liquidityFee()": "6bc87c3a",
					"_maxTxAmount()": "7d1db4a5",
					"_taxFee()": "3b124fe7",
					"addInitialLiquidity()": "0210a83d",
					"allowance(address,address)": "dd62ed3e",
					"approve(address,uint256)": "095ea7b3",
					"balanceOf(address)": "70a08231",
					"decimals()": "313ce567",
					"decreaseAllowance(address,uint256)": "a457c2d7",
					"deliver(uint256)": "3bd5d173",
					"excludeFromFee(address)": "437823ec",
					"excludeFromReward(address)": "52390c02",
					"geUnlockTime()": "b6c52324",
					"includeInFee(address)": "ea2f0b37",
					"includeInReward(address)": "3685d419",
					"increaseAllowance(address,uint256)": "39509351",
					"isExcludedFromFee(address)": "5342acb4",
					"isExcludedFromReward(address)": "88f82020",
					"lock(uint256)": "dd467064",
					"name()": "06fdde03",
					"owner()": "8da5cb5b",
					"reflectionFromToken(uint256,bool)": "4549b039",
					"renounceOwnership()": "715018a6",
					"setLiquidityFeePercent(uint256)": "8ee88c53",
					"setMaxTxPercent(uint256)": "d543dbeb",
					"setSwapAndLiquifyEnabled(bool)": "c49b9a80",
					"setTaxFeePercent(uint256)": "061c82d0",
					"swapAndLiquifyEnabled()": "4a74bb02",
					"symbol()": "95d89b41",
					"tokenFromReflection(uint256)": "2d838119",
					"totalFees()": "13114a9d",
					"totalSupply()": "18160ddd",
					"transfer(address,uint256)": "a9059cbb",
					"transferFrom(address,address,uint256)": "23b872dd",
					"transferOwnership(address)": "f2fde38b",
					"uniswapV2Pair()": "49bd5a5e",
					"uniswapV2Router()": "1694505e",
					"unlock()": "a69df4b5"
				}
			},
			"storageLayout": {
				"storage": [
					{
						"astId": 473,
						"contract": "contracts/Pool/PoolPig.sol:WorldStepToken",
						"label": "_owner",
						"offset": 0,
						"slot": "0",
						"type": "t_address"
					},
					{
						"astId": 475,
						"contract": "contracts/Pool/PoolPig.sol:WorldStepToken",
						"label": "_previousOwner",
						"offset": 0,
						"slot": "1",
						"type": "t_address"
					},
					{
						"astId": 477,
						"contract": "contracts/Pool/PoolPig.sol:WorldStepToken",
						"label": "_lockTime",
						"offset": 0,
						"slot": "2",
						"type": "t_uint256"
					},
					{
						"astId": 1353,
						"contract": "contracts/Pool/PoolPig.sol:WorldStepToken",
						"label": "_rOwned",
						"offset": 0,
						"slot": "3",
						"type": "t_mapping(t_address,t_uint256)"
					},
					{
						"astId": 1357,
						"contract": "contracts/Pool/PoolPig.sol:WorldStepToken",
						"label": "_tOwned",
						"offset": 0,
						"slot": "4",
						"type": "t_mapping(t_address,t_uint256)"
					},
					{
						"astId": 1363,
						"contract": "contracts/Pool/PoolPig.sol:WorldStepToken",
						"label": "_allowances",
						"offset": 0,
						"slot": "5",
						"type": "t_mapping(t_address,t_mapping(t_address,t_uint256))"
					},
					{
						"astId": 1367,
						"contract": "contracts/Pool/PoolPig.sol:WorldStepToken",
						"label": "_isExcludedFromFee",
						"offset": 0,
						"slot": "6",
						"type": "t_mapping(t_address,t_bool)"
					},
					{
						"astId": 1371,
						"contract": "contracts/Pool/PoolPig.sol:WorldStepToken",
						"label": "_isExcluded",
						"offset": 0,
						"slot": "7",
						"type": "t_mapping(t_address,t_bool)"
					},
					{
						"astId": 1374,
						"contract": "contracts/Pool/PoolPig.sol:WorldStepToken",
						"label": "_excluded",
						"offset": 0,
						"slot": "8",
						"type": "t_array(t_address)dyn_storage"
					},
					{
						"astId": 1380,
						"contract": "contracts/Pool/PoolPig.sol:WorldStepToken",
						"label": "_developmentAddress",
						"offset": 0,
						"slot": "9",
						"type": "t_address_payable"
					},
					{
						"astId": 1386,
						"contract": "contracts/Pool/PoolPig.sol:WorldStepToken",
						"label": "_marketingAddress",
						"offset": 0,
						"slot": "10",
						"type": "t_address_payable"
					},
					{
						"astId": 1392,
						"contract": "contracts/Pool/PoolPig.sol:WorldStepToken",
						"label": "_rewardPool",
						"offset": 0,
						"slot": "11",
						"type": "t_address_payable"
					},
					{
						"astId": 1415,
						"contract": "contracts/Pool/PoolPig.sol:WorldStepToken",
						"label": "_rTotal",
						"offset": 0,
						"slot": "12",
						"type": "t_uint256"
					},
					{
						"astId": 1417,
						"contract": "contracts/Pool/PoolPig.sol:WorldStepToken",
						"label": "_tFeeTotal",
						"offset": 0,
						"slot": "13",
						"type": "t_uint256"
					},
					{
						"astId": 1420,
						"contract": "contracts/Pool/PoolPig.sol:WorldStepToken",
						"label": "_name",
						"offset": 0,
						"slot": "14",
						"type": "t_string_storage"
					},
					{
						"astId": 1423,
						"contract": "contracts/Pool/PoolPig.sol:WorldStepToken",
						"label": "_symbol",
						"offset": 0,
						"slot": "15",
						"type": "t_string_storage"
					},
					{
						"astId": 1426,
						"contract": "contracts/Pool/PoolPig.sol:WorldStepToken",
						"label": "_decimals",
						"offset": 0,
						"slot": "16",
						"type": "t_uint8"
					},
					{
						"astId": 1429,
						"contract": "contracts/Pool/PoolPig.sol:WorldStepToken",
						"label": "_taxFee",
						"offset": 0,
						"slot": "17",
						"type": "t_uint256"
					},
					{
						"astId": 1432,
						"contract": "contracts/Pool/PoolPig.sol:WorldStepToken",
						"label": "_previousTaxFee",
						"offset": 0,
						"slot": "18",
						"type": "t_uint256"
					},
					{
						"astId": 1435,
						"contract": "contracts/Pool/PoolPig.sol:WorldStepToken",
						"label": "_liquidityFee",
						"offset": 0,
						"slot": "19",
						"type": "t_uint256"
					},
					{
						"astId": 1438,
						"contract": "contracts/Pool/PoolPig.sol:WorldStepToken",
						"label": "_previousLiquidityFee",
						"offset": 0,
						"slot": "20",
						"type": "t_uint256"
					},
					{
						"astId": 1444,
						"contract": "contracts/Pool/PoolPig.sol:WorldStepToken",
						"label": "inSwapAndLiquify",
						"offset": 0,
						"slot": "21",
						"type": "t_bool"
					},
					{
						"astId": 1447,
						"contract": "contracts/Pool/PoolPig.sol:WorldStepToken",
						"label": "swapAndLiquifyEnabled",
						"offset": 1,
						"slot": "21",
						"type": "t_bool"
					},
					{
						"astId": 1450,
						"contract": "contracts/Pool/PoolPig.sol:WorldStepToken",
						"label": "initialLiqDone",
						"offset": 2,
						"slot": "21",
						"type": "t_bool"
					},
					{
						"astId": 1457,
						"contract": "contracts/Pool/PoolPig.sol:WorldStepToken",
						"label": "_maxTxAmount",
						"offset": 0,
						"slot": "22",
						"type": "t_uint256"
					},
					{
						"astId": 1464,
						"contract": "contracts/Pool/PoolPig.sol:WorldStepToken",
						"label": "numTokensSellToAddToLiquidity",
						"offset": 0,
						"slot": "23",
						"type": "t_uint256"
					}
				],
				"types": {
					"t_address": {
						"encoding": "inplace",
						"label": "address",
						"numberOfBytes": "20"
					},
					"t_address_payable": {
						"encoding": "inplace",
						"label": "address payable",
						"numberOfBytes": "20"
					},
					"t_array(t_address)dyn_storage": {
						"base": "t_address",
						"encoding": "dynamic_array",
						"label": "address[]",
						"numberOfBytes": "32"
					},
					"t_bool": {
						"encoding": "inplace",
						"label": "bool",
						"numberOfBytes": "1"
					},
					"t_mapping(t_address,t_bool)": {
						"encoding": "mapping",
						"key": "t_address",
						"label": "mapping(address => bool)",
						"numberOfBytes": "32",
						"value": "t_bool"
					},
					"t_mapping(t_address,t_mapping(t_address,t_uint256))": {
						"encoding": "mapping",
						"key": "t_address",
						"label": "mapping(address => mapping(address => uint256))",
						"numberOfBytes": "32",
						"value": "t_mapping(t_address,t_uint256)"
					},
					"t_mapping(t_address,t_uint256)": {
						"encoding": "mapping",
						"key": "t_address",
						"label": "mapping(address => uint256)",
						"numberOfBytes": "32",
						"value": "t_uint256"
					},
					"t_string_storage": {
						"encoding": "bytes",
						"label": "string",
						"numberOfBytes": "32"
					},
					"t_uint256": {
						"encoding": "inplace",
						"label": "uint256",
						"numberOfBytes": "32"
					},
					"t_uint8": {
						"encoding": "inplace",
						"label": "uint8",
						"numberOfBytes": "1"
					}
				}
			},
			"userdoc": {
				"kind": "user",
				"methods": {},
				"version": 1
			}
		}
	}
}