{
	"contracts/Pool/Pool.sol": {
		"World_Step": {
			"abi": [
				{
					"inputs": [],
					"stateMutability": "nonpayable",
					"type": "constructor"
				},
				{
					"anonymous": false,
					"inputs": [
						{
							"indexed": true,
							"internalType": "address",
							"name": "owner",
							"type": "address"
						},
						{
							"indexed": true,
							"internalType": "address",
							"name": "spender",
							"type": "address"
						},
						{
							"indexed": false,
							"internalType": "uint256",
							"name": "value",
							"type": "uint256"
						}
					],
					"name": "Approval",
					"type": "event"
				},
				{
					"anonymous": false,
					"inputs": [
						{
							"indexed": true,
							"internalType": "address",
							"name": "previousOwner",
							"type": "address"
						},
						{
							"indexed": true,
							"internalType": "address",
							"name": "newOwner",
							"type": "address"
						}
					],
					"name": "OwnershipTransferred",
					"type": "event"
				},
				{
					"anonymous": false,
					"inputs": [
						{
							"indexed": true,
							"internalType": "address",
							"name": "from",
							"type": "address"
						},
						{
							"indexed": true,
							"internalType": "address",
							"name": "to",
							"type": "address"
						},
						{
							"indexed": false,
							"internalType": "uint256",
							"name": "value",
							"type": "uint256"
						}
					],
					"name": "Transfer",
					"type": "event"
				},
				{
					"anonymous": false,
					"inputs": [
						{
							"indexed": true,
							"internalType": "address",
							"name": "previous",
							"type": "address"
						},
						{
							"indexed": true,
							"internalType": "address",
							"name": "adr",
							"type": "address"
						}
					],
					"name": "devAddressUpdated",
					"type": "event"
				},
				{
					"anonymous": false,
					"inputs": [
						{
							"indexed": true,
							"internalType": "address",
							"name": "previous",
							"type": "address"
						},
						{
							"indexed": true,
							"internalType": "address",
							"name": "adr",
							"type": "address"
						}
					],
					"name": "marketingAddressUpdated",
					"type": "event"
				},
				{
					"anonymous": false,
					"inputs": [
						{
							"indexed": true,
							"internalType": "address",
							"name": "token",
							"type": "address"
						},
						{
							"indexed": true,
							"internalType": "address",
							"name": "to",
							"type": "address"
						},
						{
							"indexed": false,
							"internalType": "uint256",
							"name": "amount",
							"type": "uint256"
						}
					],
					"name": "tokensRescued",
					"type": "event"
				},
				{
					"inputs": [
						{
							"internalType": "address",
							"name": "owner",
							"type": "address"
						},
						{
							"internalType": "address",
							"name": "spender",
							"type": "address"
						}
					],
					"name": "allowance",
					"outputs": [
						{
							"internalType": "uint256",
							"name": "",
							"type": "uint256"
						}
					],
					"stateMutability": "view",
					"type": "function"
				},
				{
					"inputs": [
						{
							"internalType": "address",
							"name": "spender",
							"type": "address"
						},
						{
							"internalType": "uint256",
							"name": "amount",
							"type": "uint256"
						}
					],
					"name": "approve",
					"outputs": [
						{
							"internalType": "bool",
							"name": "",
							"type": "bool"
						}
					],
					"stateMutability": "nonpayable",
					"type": "function"
				},
				{
					"inputs": [
						{
							"internalType": "address",
							"name": "account",
							"type": "address"
						}
					],
					"name": "balanceOf",
					"outputs": [
						{
							"internalType": "uint256",
							"name": "",
							"type": "uint256"
						}
					],
					"stateMutability": "view",
					"type": "function"
				},
				{
					"inputs": [],
					"name": "decimals",
					"outputs": [
						{
							"internalType": "uint8",
							"name": "",
							"type": "uint8"
						}
					],
					"stateMutability": "pure",
					"type": "function"
				},
				{
					"inputs": [
						{
							"internalType": "address[]",
							"name": "accounts",
							"type": "address[]"
						},
						{
							"internalType": "bool",
							"name": "excluded",
							"type": "bool"
						}
					],
					"name": "excludeMultipleAccountsFromFees",
					"outputs": [],
					"stateMutability": "nonpayable",
					"type": "function"
				},
				{
					"inputs": [],
					"name": "manualsend",
					"outputs": [],
					"stateMutability": "nonpayable",
					"type": "function"
				},
				{
					"inputs": [],
					"name": "manualswap",
					"outputs": [],
					"stateMutability": "nonpayable",
					"type": "function"
				},
				{
					"inputs": [],
					"name": "name",
					"outputs": [
						{
							"internalType": "string",
							"name": "",
							"type": "string"
						}
					],
					"stateMutability": "pure",
					"type": "function"
				},
				{
					"inputs": [],
					"name": "owner",
					"outputs": [
						{
							"internalType": "address",
							"name": "",
							"type": "address"
						}
					],
					"stateMutability": "view",
					"type": "function"
				},
				{
					"inputs": [],
					"name": "renounceOwnership",
					"outputs": [],
					"stateMutability": "nonpayable",
					"type": "function"
				},
				{
					"inputs": [
						{
							"internalType": "address",
							"name": "_tokenAddr",
							"type": "address"
						},
						{
							"internalType": "address",
							"name": "_to",
							"type": "address"
						},
						{
							"internalType": "uint256",
							"name": "_amount",
							"type": "uint256"
						}
					],
					"name": "rescueForeignTokens",
					"outputs": [],
					"stateMutability": "nonpayable",
					"type": "function"
				},
				{
					"inputs": [
						{
							"internalType": "uint256",
							"name": "redisFeeOnBuy",
							"type": "uint256"
						},
						{
							"internalType": "uint256",
							"name": "redisFeeOnSell",
							"type": "uint256"
						},
						{
							"internalType": "uint256",
							"name": "taxFeeOnBuy",
							"type": "uint256"
						},
						{
							"internalType": "uint256",
							"name": "taxFeeOnSell",
							"type": "uint256"
						}
					],
					"name": "setFee",
					"outputs": [],
					"stateMutability": "nonpayable",
					"type": "function"
				},
				{
					"inputs": [
						{
							"internalType": "address payable",
							"name": "dev",
							"type": "address"
						}
					],
					"name": "setNewDevAddress",
					"outputs": [],
					"stateMutability": "nonpayable",
					"type": "function"
				},
				{
					"inputs": [
						{
							"internalType": "address payable",
							"name": "markt",
							"type": "address"
						}
					],
					"name": "setNewMarketingAddress",
					"outputs": [],
					"stateMutability": "nonpayable",
					"type": "function"
				},
				{
					"inputs": [],
					"name": "settingPair",
					"outputs": [],
					"stateMutability": "nonpayable",
					"type": "function"
				},
				{
					"inputs": [],
					"name": "symbol",
					"outputs": [
						{
							"internalType": "string",
							"name": "",
							"type": "string"
						}
					],
					"stateMutability": "pure",
					"type": "function"
				},
				{
					"inputs": [
						{
							"internalType": "bool",
							"name": "_swapEnabled",
							"type": "bool"
						}
					],
					"name": "toggleSwap",
					"outputs": [],
					"stateMutability": "nonpayable",
					"type": "function"
				},
				{
					"inputs": [],
					"name": "totalSupply",
					"outputs": [
						{
							"internalType": "uint256",
							"name": "",
							"type": "uint256"
						}
					],
					"stateMutability": "pure",
					"type": "function"
				},
				{
					"inputs": [
						{
							"internalType": "address",
							"name": "recipient",
							"type": "address"
						},
						{
							"internalType": "uint256",
							"name": "amount",
							"type": "uint256"
						}
					],
					"name": "transfer",
					"outputs": [
						{
							"internalType": "bool",
							"name": "",
							"type": "bool"
						}
					],
					"stateMutability": "nonpayable",
					"type": "function"
				},
				{
					"inputs": [
						{
							"internalType": "address",
							"name": "sender",
							"type": "address"
						},
						{
							"internalType": "address",
							"name": "recipient",
							"type": "address"
						},
						{
							"internalType": "uint256",
							"name": "amount",
							"type": "uint256"
						}
					],
					"name": "transferFrom",
					"outputs": [
						{
							"internalType": "bool",
							"name": "",
							"type": "bool"
						}
					],
					"stateMutability": "nonpayable",
					"type": "function"
				},
				{
					"inputs": [
						{
							"internalType": "address",
							"name": "newOwner",
							"type": "address"
						}
					],
					"name": "transferOwnership",
					"outputs": [],
					"stateMutability": "nonpayable",
					"type": "function"
				},
				{
					"inputs": [],
					"name": "uniswapV2Factory",
					"outputs": [
						{
							"internalType": "contract IUniswapV2Factory",
							"name": "",
							"type": "address"
						}
					],
					"stateMutability": "view",
					"type": "function"
				},
				{
					"inputs": [],
					"name": "uniswapV2Pair",
					"outputs": [
						{
							"internalType": "address",
							"name": "",
							"type": "address"
						}
					],
					"stateMutability": "view",
					"type": "function"
				},
				{
					"inputs": [],
					"name": "uniswapV2Router",
					"outputs": [
						{
							"internalType": "contract IUniswapV2Router02",
							"name": "",
							"type": "address"
						}
					],
					"stateMutability": "view",
					"type": "function"
				},
				{
					"stateMutability": "payable",
					"type": "receive"
				}
			],
			"devdoc": {
				"kind": "dev",
				"methods": {},
				"version": 1
			},
			"evm": {
				"assembly": "    /* \"contracts/Pool/Pool.sol\":3787:15323  contract World_Step is Context, IERC20, Ownable {... */\n  mstore(0x40, 0x80)\n    /* \"contracts/Pool/Pool.sol\":4200:4213  1*10**9*10**9 */\n  0x0de0b6b3a7640000\n    /* \"contracts/Pool/Pool.sol\":4147:4159  1*10**9*10*9 */\n  0x14f46b0400\n    /* \"contracts/Pool/Pool.sol\":4253:4266  MAX % _tTotal */\n  tag_1\n  swap2\n  swap1\n  tag_2\n  jump\t// in\ntag_1:\n    /* \"contracts/Pool/Pool.sol\":4147:4159  1*10**9*10*9 */\n  0x14f46b0400\n    /* \"contracts/Pool/Pool.sol\":4246:4267  MAX - (MAX % _tTotal) */\n  tag_3\n  swap2\n  swap1\n  tag_4\n  jump\t// in\ntag_3:\n    /* \"contracts/Pool/Pool.sol\":4219:4268  uint256 private _rTotal = (MAX - (MAX % _tTotal)) */\n  0x06\n  sstore\n    /* \"contracts/Pool/Pool.sol\":4344:4345  1 */\n  0x01\n    /* \"contracts/Pool/Pool.sol\":4311:4345  uint256 private _redisFeeOnBuy = 1 */\n  0x08\n  sstore\n    /* \"contracts/Pool/Pool.sol\":4382:4383  4 */\n  0x04\n    /* \"contracts/Pool/Pool.sol\":4351:4383  uint256 private _taxFeeOnBuy = 4 */\n  0x09\n  sstore\n    /* \"contracts/Pool/Pool.sol\":4428:4429  1 */\n  0x01\n    /* \"contracts/Pool/Pool.sol\":4394:4429  uint256 private _redisFeeOnSell = 1 */\n  0x0a\n  sstore\n    /* \"contracts/Pool/Pool.sol\":4467:4468  1 */\n  0x01\n    /* \"contracts/Pool/Pool.sol\":4435:4468  uint256 private _taxFeeOnSell = 1 */\n  0x0b\n  sstore\n    /* \"contracts/Pool/Pool.sol\":4740:4782  0x8492cbd894686D7e98214541903c7BA6f94928D6 */\n  0x8492cbd894686d7e98214541903c7ba6f94928d6\n    /* \"contracts/Pool/Pool.sol\":4686:4783  address payable private _developmentAddress = payable(0x8492cbd894686D7e98214541903c7BA6f94928D6) */\n  0x0e\n  exp(0x0100, 0x00)\n  dup2\n  sload\n  dup2\n  0xffffffffffffffffffffffffffffffffffffffff\n  mul\n  not\n  and\n  swap1\n  dup4\n  0xffffffffffffffffffffffffffffffffffffffff\n  and\n  mul\n  or\n  swap1\n  sstore\n  pop\n    /* \"contracts/Pool/Pool.sol\":4841:4883  0xa4eD7aa4eF5deB0A63e97d9Cb77445aE553feb1d */\n  0xa4ed7aa4ef5deb0a63e97d9cb77445ae553feb1d\n    /* \"contracts/Pool/Pool.sol\":4789:4884  address payable private _marketingAddress = payable(0xa4eD7aa4eF5deB0A63e97d9Cb77445aE553feb1d) */\n  0x0f\n  exp(0x0100, 0x00)\n  dup2\n  sload\n  dup2\n  0xffffffffffffffffffffffffffffffffffffffff\n  mul\n  not\n  and\n  swap1\n  dup4\n  0xffffffffffffffffffffffffffffffffffffffff\n  and\n  mul\n  or\n  swap1\n  sstore\n  pop\n    /* \"contracts/Pool/Pool.sol\":5047:5052  false */\n  0x00\n    /* \"contracts/Pool/Pool.sol\":5025:5052  bool private inSwap = false */\n  0x12\n  exp(0x0100, 0x14)\n  dup2\n  sload\n  dup2\n  0xff\n  mul\n  not\n  and\n  swap1\n  dup4\n  iszero\n  iszero\n  mul\n  or\n  swap1\n  sstore\n  pop\n    /* \"contracts/Pool/Pool.sol\":5085:5089  true */\n  0x01\n    /* \"contracts/Pool/Pool.sol\":5058:5089  bool private swapEnabled = true */\n  0x12\n  exp(0x0100, 0x15)\n  dup2\n  sload\n  dup2\n  0xff\n  mul\n  not\n  and\n  swap1\n  dup4\n  iszero\n  iszero\n  mul\n  or\n  swap1\n  sstore\n  pop\n    /* \"contracts/Pool/Pool.sol\":5191:6031  constructor () {... */\n  callvalue\n  dup1\n  iszero\n  tag_5\n  jumpi\n  0x00\n  dup1\n  revert\ntag_5:\n  pop\n    /* \"contracts/Pool/Pool.sol\":3054:3071  address msgSender */\n  0x00\n    /* \"contracts/Pool/Pool.sol\":3074:3086  _msgSender() */\n  tag_9\n    /* \"contracts/Pool/Pool.sol\":3074:3084  _msgSender */\n  shl(0x20, tag_10)\n    /* \"contracts/Pool/Pool.sol\":3074:3086  _msgSender() */\n  0x20\n  shr\n  jump\t// in\ntag_9:\n    /* \"contracts/Pool/Pool.sol\":3054:3086  address msgSender = _msgSender() */\n  swap1\n  pop\n    /* \"contracts/Pool/Pool.sol\":3105:3114  msgSender */\n  dup1\n    /* \"contracts/Pool/Pool.sol\":3096:3102  _owner */\n  0x00\n  dup1\n    /* \"contracts/Pool/Pool.sol\":3096:3114  _owner = msgSender */\n  0x0100\n  exp\n  dup2\n  sload\n  dup2\n  0xffffffffffffffffffffffffffffffffffffffff\n  mul\n  not\n  and\n  swap1\n  dup4\n  0xffffffffffffffffffffffffffffffffffffffff\n  and\n  mul\n  or\n  swap1\n  sstore\n  pop\n    /* \"contracts/Pool/Pool.sol\":3162:3171  msgSender */\n  dup1\n    /* \"contracts/Pool/Pool.sol\":3129:3172  OwnershipTransferred(address(0), msgSender) */\n  0xffffffffffffffffffffffffffffffffffffffff\n  and\n    /* \"contracts/Pool/Pool.sol\":3158:3159  0 */\n  0x00\n    /* \"contracts/Pool/Pool.sol\":3129:3172  OwnershipTransferred(address(0), msgSender) */\n  0xffffffffffffffffffffffffffffffffffffffff\n  and\n  0x8be0079c531659141344cd1fd0a4f28419497f9722a3daafe3b4186f6b6457e0\n  mload(0x40)\n  mload(0x40)\n  dup1\n  swap2\n  sub\n  swap1\n  log3\n    /* \"contracts/Pool/Pool.sol\":3044:3179  {... */\n  pop\n    /* \"contracts/Pool/Pool.sol\":5240:5247  _rTotal */\n  sload(0x06)\n    /* \"contracts/Pool/Pool.sol\":5216:5223  _rOwned */\n  0x02\n    /* \"contracts/Pool/Pool.sol\":5216:5237  _rOwned[_msgSender()] */\n  0x00\n    /* \"contracts/Pool/Pool.sol\":5224:5236  _msgSender() */\n  tag_12\n    /* \"contracts/Pool/Pool.sol\":5224:5234  _msgSender */\n  shl(0x20, tag_10)\n    /* \"contracts/Pool/Pool.sol\":5224:5236  _msgSender() */\n  0x20\n  shr\n  jump\t// in\ntag_12:\n    /* \"contracts/Pool/Pool.sol\":5216:5237  _rOwned[_msgSender()] */\n  0xffffffffffffffffffffffffffffffffffffffff\n  and\n  0xffffffffffffffffffffffffffffffffffffffff\n  and\n  dup2\n  mstore\n  0x20\n  add\n  swap1\n  dup2\n  mstore\n  0x20\n  add\n  0x00\n  keccak256\n    /* \"contracts/Pool/Pool.sol\":5216:5247  _rOwned[_msgSender()] = _rTotal */\n  dup2\n  swap1\n  sstore\n  pop\n    /* \"contracts/Pool/Pool.sol\":5266:5301  IUniswapV2Router02 _uniswapV2Router */\n  0x00\n    /* \"contracts/Pool/Pool.sol\":5331:5373  0x10ED43C718714eb63d5aA57B78B54704E256024E */\n  0x10ed43c718714eb63d5aa57b78b54704e256024e\n    /* \"contracts/Pool/Pool.sol\":5266:5375  IUniswapV2Router02 _uniswapV2Router = IUniswapV2Router02(address(0x10ED43C718714eb63d5aA57B78B54704E256024E)) */\n  swap1\n  pop\n    /* \"contracts/Pool/Pool.sol\":5403:5419  _uniswapV2Router */\n  dup1\n    /* \"contracts/Pool/Pool.sol\":5385:5400  uniswapV2Router */\n  0x10\n  0x00\n    /* \"contracts/Pool/Pool.sol\":5385:5419  uniswapV2Router = _uniswapV2Router */\n  0x0100\n  exp\n  dup2\n  sload\n  dup2\n  0xffffffffffffffffffffffffffffffffffffffff\n  mul\n  not\n  and\n  swap1\n  dup4\n  0xffffffffffffffffffffffffffffffffffffffff\n  and\n  mul\n  or\n  swap1\n  sstore\n  pop\n    /* \"contracts/Pool/Pool.sol\":5661:5677  _uniswapV2Router */\n  dup1\n    /* \"contracts/Pool/Pool.sol\":5661:5685  _uniswapV2Router.factory */\n  0xffffffffffffffffffffffffffffffffffffffff\n  and\n  0xc45a0155\n    /* \"contracts/Pool/Pool.sol\":5661:5687  _uniswapV2Router.factory() */\n  mload(0x40)\n  dup2\n  0xffffffff\n  and\n  0xe0\n  shl\n  dup2\n  mstore\n  0x04\n  add\n  0x20\n  mload(0x40)\n  dup1\n  dup4\n  sub\n  dup2\n  dup7\n  gas\n  staticcall\n  iszero\n  dup1\n  iszero\n  tag_14\n  jumpi\n  returndatasize\n  0x00\n  dup1\n  returndatacopy\n  revert(0x00, returndatasize)\ntag_14:\n  pop\n  pop\n  pop\n  pop\n  mload(0x40)\n  returndatasize\n  not(0x1f)\n  0x1f\n  dup3\n  add\n  and\n  dup3\n  add\n  dup1\n  0x40\n  mstore\n  pop\n  dup2\n  add\n  swap1\n  tag_15\n  swap2\n  swap1\n  tag_16\n  jump\t// in\ntag_15:\n    /* \"contracts/Pool/Pool.sol\":5643:5712  IUniswapV2Factory(_uniswapV2Router.factory())... */\n  0xffffffffffffffffffffffffffffffffffffffff\n  and\n  0xc9c65396\n    /* \"contracts/Pool/Pool.sol\":5721:5725  this */\n  address\n    /* \"contracts/Pool/Pool.sol\":5728:5744  _uniswapV2Router */\n  dup4\n    /* \"contracts/Pool/Pool.sol\":5728:5749  _uniswapV2Router.WETH */\n  0xffffffffffffffffffffffffffffffffffffffff\n  and\n  0xad5c4648\n    /* \"contracts/Pool/Pool.sol\":5728:5751  _uniswapV2Router.WETH() */\n  mload(0x40)\n  dup2\n  0xffffffff\n  and\n  0xe0\n  shl\n  dup2\n  mstore\n  0x04\n  add\n  0x20\n  mload(0x40)\n  dup1\n  dup4\n  sub\n  dup2\n  dup7\n  gas\n  staticcall\n  iszero\n  dup1\n  iszero\n  tag_18\n  jumpi\n  returndatasize\n  0x00\n  dup1\n  returndatacopy\n  revert(0x00, returndatasize)\ntag_18:\n  pop\n  pop\n  pop\n  pop\n  mload(0x40)\n  returndatasize\n  not(0x1f)\n  0x1f\n  dup3\n  add\n  and\n  dup3\n  add\n  dup1\n  0x40\n  mstore\n  pop\n  dup2\n  add\n  swap1\n  tag_19\n  swap2\n  swap1\n  tag_16\n  jump\t// in\ntag_19:\n    /* \"contracts/Pool/Pool.sol\":5643:5753  IUniswapV2Factory(_uniswapV2Router.factory())... */\n  mload(0x40)\n  dup4\n  0xffffffff\n  and\n  0xe0\n  shl\n  dup2\n  mstore\n  0x04\n  add\n  tag_20\n  swap3\n  swap2\n  swap1\n  tag_21\n  jump\t// in\ntag_20:\n  0x20\n  mload(0x40)\n  dup1\n  dup4\n  sub\n  dup2\n  0x00\n  dup8\n  gas\n  call\n  iszero\n  dup1\n  iszero\n  tag_23\n  jumpi\n  returndatasize\n  0x00\n  dup1\n  returndatacopy\n  revert(0x00, returndatasize)\ntag_23:\n  pop\n  pop\n  pop\n  pop\n  mload(0x40)\n  returndatasize\n  not(0x1f)\n  0x1f\n  dup3\n  add\n  and\n  dup3\n  add\n  dup1\n  0x40\n  mstore\n  pop\n  dup2\n  add\n  swap1\n  tag_24\n  swap2\n  swap1\n  tag_16\n  jump\t// in\ntag_24:\n    /* \"contracts/Pool/Pool.sol\":5627:5640  uniswapV2Pair */\n  0x12\n  0x00\n    /* \"contracts/Pool/Pool.sol\":5627:5753  uniswapV2Pair = IUniswapV2Factory(_uniswapV2Router.factory())... */\n  0x0100\n  exp\n  dup2\n  sload\n  dup2\n  0xffffffffffffffffffffffffffffffffffffffff\n  mul\n  not\n  and\n  swap1\n  dup4\n  0xffffffffffffffffffffffffffffffffffffffff\n  and\n  mul\n  or\n  swap1\n  sstore\n  pop\n    /* \"contracts/Pool/Pool.sol\":5793:5797  true */\n  0x01\n    /* \"contracts/Pool/Pool.sol\":5763:5781  _isExcludedFromFee */\n  0x05\n    /* \"contracts/Pool/Pool.sol\":5763:5790  _isExcludedFromFee[owner()] */\n  0x00\n    /* \"contracts/Pool/Pool.sol\":5782:5789  owner() */\n  tag_25\n    /* \"contracts/Pool/Pool.sol\":5782:5787  owner */\n  shl(0x20, tag_26)\n    /* \"contracts/Pool/Pool.sol\":5782:5789  owner() */\n  0x20\n  shr\n  jump\t// in\ntag_25:\n    /* \"contracts/Pool/Pool.sol\":5763:5790  _isExcludedFromFee[owner()] */\n  0xffffffffffffffffffffffffffffffffffffffff\n  and\n  0xffffffffffffffffffffffffffffffffffffffff\n  and\n  dup2\n  mstore\n  0x20\n  add\n  swap1\n  dup2\n  mstore\n  0x20\n  add\n  0x00\n  keccak256\n  0x00\n    /* \"contracts/Pool/Pool.sol\":5763:5797  _isExcludedFromFee[owner()] = true */\n  0x0100\n  exp\n  dup2\n  sload\n  dup2\n  0xff\n  mul\n  not\n  and\n  swap1\n  dup4\n  iszero\n  iszero\n  mul\n  or\n  swap1\n  sstore\n  pop\n    /* \"contracts/Pool/Pool.sol\":5843:5847  true */\n  0x01\n    /* \"contracts/Pool/Pool.sol\":5807:5825  _isExcludedFromFee */\n  0x05\n    /* \"contracts/Pool/Pool.sol\":5807:5840  _isExcludedFromFee[address(this)] */\n  0x00\n    /* \"contracts/Pool/Pool.sol\":5834:5838  this */\n  address\n    /* \"contracts/Pool/Pool.sol\":5807:5840  _isExcludedFromFee[address(this)] */\n  0xffffffffffffffffffffffffffffffffffffffff\n  and\n  0xffffffffffffffffffffffffffffffffffffffff\n  and\n  dup2\n  mstore\n  0x20\n  add\n  swap1\n  dup2\n  mstore\n  0x20\n  add\n  0x00\n  keccak256\n  0x00\n    /* \"contracts/Pool/Pool.sol\":5807:5847  _isExcludedFromFee[address(this)] = true */\n  0x0100\n  exp\n  dup2\n  sload\n  dup2\n  0xff\n  mul\n  not\n  and\n  swap1\n  dup4\n  iszero\n  iszero\n  mul\n  or\n  swap1\n  sstore\n  pop\n    /* \"contracts/Pool/Pool.sol\":5899:5903  true */\n  0x01\n    /* \"contracts/Pool/Pool.sol\":5857:5875  _isExcludedFromFee */\n  0x05\n    /* \"contracts/Pool/Pool.sol\":5857:5896  _isExcludedFromFee[_developmentAddress] */\n  0x00\n    /* \"contracts/Pool/Pool.sol\":5876:5895  _developmentAddress */\n  0x0e\n  0x00\n  swap1\n  sload\n  swap1\n  0x0100\n  exp\n  swap1\n  div\n  0xffffffffffffffffffffffffffffffffffffffff\n  and\n    /* \"contracts/Pool/Pool.sol\":5857:5896  _isExcludedFromFee[_developmentAddress] */\n  0xffffffffffffffffffffffffffffffffffffffff\n  and\n  0xffffffffffffffffffffffffffffffffffffffff\n  and\n  dup2\n  mstore\n  0x20\n  add\n  swap1\n  dup2\n  mstore\n  0x20\n  add\n  0x00\n  keccak256\n  0x00\n    /* \"contracts/Pool/Pool.sol\":5857:5903  _isExcludedFromFee[_developmentAddress] = true */\n  0x0100\n  exp\n  dup2\n  sload\n  dup2\n  0xff\n  mul\n  not\n  and\n  swap1\n  dup4\n  iszero\n  iszero\n  mul\n  or\n  swap1\n  sstore\n  pop\n    /* \"contracts/Pool/Pool.sol\":5953:5957  true */\n  0x01\n    /* \"contracts/Pool/Pool.sol\":5913:5931  _isExcludedFromFee */\n  0x05\n    /* \"contracts/Pool/Pool.sol\":5913:5950  _isExcludedFromFee[_marketingAddress] */\n  0x00\n    /* \"contracts/Pool/Pool.sol\":5932:5949  _marketingAddress */\n  0x0f\n  0x00\n  swap1\n  sload\n  swap1\n  0x0100\n  exp\n  swap1\n  div\n  0xffffffffffffffffffffffffffffffffffffffff\n  and\n    /* \"contracts/Pool/Pool.sol\":5913:5950  _isExcludedFromFee[_marketingAddress] */\n  0xffffffffffffffffffffffffffffffffffffffff\n  and\n  0xffffffffffffffffffffffffffffffffffffffff\n  and\n  dup2\n  mstore\n  0x20\n  add\n  swap1\n  dup2\n  mstore\n  0x20\n  add\n  0x00\n  keccak256\n  0x00\n    /* \"contracts/Pool/Pool.sol\":5913:5957  _isExcludedFromFee[_marketingAddress] = true */\n  0x0100\n  exp\n  dup2\n  sload\n  dup2\n  0xff\n  mul\n  not\n  and\n  swap1\n  dup4\n  iszero\n  iszero\n  mul\n  or\n  swap1\n  sstore\n  pop\n    /* \"contracts/Pool/Pool.sol\":6002:6014  _msgSender() */\n  tag_27\n    /* \"contracts/Pool/Pool.sol\":6002:6012  _msgSender */\n  shl(0x20, tag_10)\n    /* \"contracts/Pool/Pool.sol\":6002:6014  _msgSender() */\n  0x20\n  shr\n  jump\t// in\ntag_27:\n    /* \"contracts/Pool/Pool.sol\":5981:6024  Transfer(address(0), _msgSender(), _tTotal) */\n  0xffffffffffffffffffffffffffffffffffffffff\n  and\n    /* \"contracts/Pool/Pool.sol\":5998:5999  0 */\n  0x00\n    /* \"contracts/Pool/Pool.sol\":5981:6024  Transfer(address(0), _msgSender(), _tTotal) */\n  0xffffffffffffffffffffffffffffffffffffffff\n  and\n  0xddf252ad1be2c89b69c2b068fc378daa952ba7f163c4a11628f55a4df523b3ef\n    /* \"contracts/Pool/Pool.sol\":4200:4213  1*10**9*10**9 */\n  0x0de0b6b3a7640000\n    /* \"contracts/Pool/Pool.sol\":5981:6024  Transfer(address(0), _msgSender(), _tTotal) */\n  mload(0x40)\n  tag_28\n  swap2\n  swap1\n  tag_29\n  jump\t// in\ntag_28:\n  mload(0x40)\n  dup1\n  swap2\n  sub\n  swap1\n  log3\n    /* \"contracts/Pool/Pool.sol\":5206:6031  {... */\n  pop\n    /* \"contracts/Pool/Pool.sol\":3787:15323  contract World_Step is Context, IERC20, Ownable {... */\n  jump(tag_30)\n    /* \"contracts/Pool/Pool.sol\":1721:1817  function _msgSender() internal view virtual returns (address) {... */\ntag_10:\n    /* \"contracts/Pool/Pool.sol\":1774:1781  address */\n  0x00\n    /* \"contracts/Pool/Pool.sol\":1800:1810  msg.sender */\n  caller\n    /* \"contracts/Pool/Pool.sol\":1793:1810  return msg.sender */\n  swap1\n  pop\n    /* \"contracts/Pool/Pool.sol\":1721:1817  function _msgSender() internal view virtual returns (address) {... */\n  swap1\n  jump\t// out\n    /* \"contracts/Pool/Pool.sol\":3185:3262  function owner() public view returns (address) {... */\ntag_26:\n    /* \"contracts/Pool/Pool.sol\":3223:3230  address */\n  0x00\n    /* \"contracts/Pool/Pool.sol\":3249:3255  _owner */\n  dup1\n  0x00\n  swap1\n  sload\n  swap1\n  0x0100\n  exp\n  swap1\n  div\n  0xffffffffffffffffffffffffffffffffffffffff\n  and\n    /* \"contracts/Pool/Pool.sol\":3242:3255  return _owner */\n  swap1\n  pop\n    /* \"contracts/Pool/Pool.sol\":3185:3262  function owner() public view returns (address) {... */\n  swap1\n  jump\t// out\n    /* \"#utility.yul\":7:84   */\ntag_33:\n    /* \"#utility.yul\":44:51   */\n  0x00\n    /* \"#utility.yul\":73:78   */\n  dup2\n    /* \"#utility.yul\":62:78   */\n  swap1\n  pop\n    /* \"#utility.yul\":7:84   */\n  swap2\n  swap1\n  pop\n  jump\t// out\n    /* \"#utility.yul\":90:270   */\ntag_34:\n    /* \"#utility.yul\":138:215   */\n  0x4e487b7100000000000000000000000000000000000000000000000000000000\n    /* \"#utility.yul\":135:136   */\n  0x00\n    /* \"#utility.yul\":128:216   */\n  mstore\n    /* \"#utility.yul\":235:239   */\n  0x12\n    /* \"#utility.yul\":232:233   */\n  0x04\n    /* \"#utility.yul\":225:240   */\n  mstore\n    /* \"#utility.yul\":259:263   */\n  0x24\n    /* \"#utility.yul\":256:257   */\n  0x00\n    /* \"#utility.yul\":249:264   */\n  revert\n    /* \"#utility.yul\":276:452   */\ntag_2:\n    /* \"#utility.yul\":308:309   */\n  0x00\n    /* \"#utility.yul\":325:345   */\n  tag_49\n    /* \"#utility.yul\":343:344   */\n  dup3\n    /* \"#utility.yul\":325:345   */\n  tag_33\n  jump\t// in\ntag_49:\n    /* \"#utility.yul\":320:345   */\n  swap2\n  pop\n    /* \"#utility.yul\":359:379   */\n  tag_50\n    /* \"#utility.yul\":377:378   */\n  dup4\n    /* \"#utility.yul\":359:379   */\n  tag_33\n  jump\t// in\ntag_50:\n    /* \"#utility.yul\":354:379   */\n  swap3\n  pop\n    /* \"#utility.yul\":398:399   */\n  dup3\n    /* \"#utility.yul\":388:423   */\n  tag_51\n  jumpi\n    /* \"#utility.yul\":403:421   */\n  tag_52\n  tag_34\n  jump\t// in\ntag_52:\n    /* \"#utility.yul\":388:423   */\ntag_51:\n    /* \"#utility.yul\":444:445   */\n  dup3\n    /* \"#utility.yul\":441:442   */\n  dup3\n    /* \"#utility.yul\":437:446   */\n  mod\n    /* \"#utility.yul\":432:446   */\n  swap1\n  pop\n    /* \"#utility.yul\":276:452   */\n  swap3\n  swap2\n  pop\n  pop\n  jump\t// out\n    /* \"#utility.yul\":458:638   */\ntag_35:\n    /* \"#utility.yul\":506:583   */\n  0x4e487b7100000000000000000000000000000000000000000000000000000000\n    /* \"#utility.yul\":503:504   */\n  0x00\n    /* \"#utility.yul\":496:584   */\n  mstore\n    /* \"#utility.yul\":603:607   */\n  0x11\n    /* \"#utility.yul\":600:601   */\n  0x04\n    /* \"#utility.yul\":593:608   */\n  mstore\n    /* \"#utility.yul\":627:631   */\n  0x24\n    /* \"#utility.yul\":624:625   */\n  0x00\n    /* \"#utility.yul\":617:632   */\n  revert\n    /* \"#utility.yul\":644:835   */\ntag_4:\n    /* \"#utility.yul\":684:688   */\n  0x00\n    /* \"#utility.yul\":704:724   */\n  tag_55\n    /* \"#utility.yul\":722:723   */\n  dup3\n    /* \"#utility.yul\":704:724   */\n  tag_33\n  jump\t// in\ntag_55:\n    /* \"#utility.yul\":699:724   */\n  swap2\n  pop\n    /* \"#utility.yul\":738:758   */\n  tag_56\n    /* \"#utility.yul\":756:757   */\n  dup4\n    /* \"#utility.yul\":738:758   */\n  tag_33\n  jump\t// in\ntag_56:\n    /* \"#utility.yul\":733:758   */\n  swap3\n  pop\n    /* \"#utility.yul\":777:778   */\n  dup3\n    /* \"#utility.yul\":774:775   */\n  dup3\n    /* \"#utility.yul\":771:779   */\n  lt\n    /* \"#utility.yul\":768:802   */\n  iszero\n  tag_57\n  jumpi\n    /* \"#utility.yul\":782:800   */\n  tag_58\n  tag_35\n  jump\t// in\ntag_58:\n    /* \"#utility.yul\":768:802   */\ntag_57:\n    /* \"#utility.yul\":827:828   */\n  dup3\n    /* \"#utility.yul\":824:825   */\n  dup3\n    /* \"#utility.yul\":820:829   */\n  sub\n    /* \"#utility.yul\":812:829   */\n  swap1\n  pop\n    /* \"#utility.yul\":644:835   */\n  swap3\n  swap2\n  pop\n  pop\n  jump\t// out\n    /* \"#utility.yul\":922:1039   */\ntag_37:\n    /* \"#utility.yul\":1031:1032   */\n  0x00\n    /* \"#utility.yul\":1028:1029   */\n  dup1\n    /* \"#utility.yul\":1021:1033   */\n  revert\n    /* \"#utility.yul\":1168:1294   */\ntag_39:\n    /* \"#utility.yul\":1205:1212   */\n  0x00\n    /* \"#utility.yul\":1245:1287   */\n  0xffffffffffffffffffffffffffffffffffffffff\n    /* \"#utility.yul\":1238:1243   */\n  dup3\n    /* \"#utility.yul\":1234:1288   */\n  and\n    /* \"#utility.yul\":1223:1288   */\n  swap1\n  pop\n    /* \"#utility.yul\":1168:1294   */\n  swap2\n  swap1\n  pop\n  jump\t// out\n    /* \"#utility.yul\":1300:1396   */\ntag_40:\n    /* \"#utility.yul\":1337:1344   */\n  0x00\n    /* \"#utility.yul\":1366:1390   */\n  tag_64\n    /* \"#utility.yul\":1384:1389   */\n  dup3\n    /* \"#utility.yul\":1366:1390   */\n  tag_39\n  jump\t// in\ntag_64:\n    /* \"#utility.yul\":1355:1390   */\n  swap1\n  pop\n    /* \"#utility.yul\":1300:1396   */\n  swap2\n  swap1\n  pop\n  jump\t// out\n    /* \"#utility.yul\":1402:1524   */\ntag_41:\n    /* \"#utility.yul\":1475:1499   */\n  tag_66\n    /* \"#utility.yul\":1493:1498   */\n  dup2\n    /* \"#utility.yul\":1475:1499   */\n  tag_40\n  jump\t// in\ntag_66:\n    /* \"#utility.yul\":1468:1473   */\n  dup2\n    /* \"#utility.yul\":1465:1500   */\n  eq\n    /* \"#utility.yul\":1455:1518   */\n  tag_67\n  jumpi\n    /* \"#utility.yul\":1514:1515   */\n  0x00\n    /* \"#utility.yul\":1511:1512   */\n  dup1\n    /* \"#utility.yul\":1504:1516   */\n  revert\n    /* \"#utility.yul\":1455:1518   */\ntag_67:\n    /* \"#utility.yul\":1402:1524   */\n  pop\n  jump\t// out\n    /* \"#utility.yul\":1530:1673   */\ntag_42:\n    /* \"#utility.yul\":1587:1592   */\n  0x00\n    /* \"#utility.yul\":1618:1624   */\n  dup2\n    /* \"#utility.yul\":1612:1625   */\n  mload\n    /* \"#utility.yul\":1603:1625   */\n  swap1\n  pop\n    /* \"#utility.yul\":1634:1667   */\n  tag_69\n    /* \"#utility.yul\":1661:1666   */\n  dup2\n    /* \"#utility.yul\":1634:1667   */\n  tag_41\n  jump\t// in\ntag_69:\n    /* \"#utility.yul\":1530:1673   */\n  swap3\n  swap2\n  pop\n  pop\n  jump\t// out\n    /* \"#utility.yul\":1679:2030   */\ntag_16:\n    /* \"#utility.yul\":1749:1755   */\n  0x00\n    /* \"#utility.yul\":1798:1800   */\n  0x20\n    /* \"#utility.yul\":1786:1795   */\n  dup3\n    /* \"#utility.yul\":1777:1784   */\n  dup5\n    /* \"#utility.yul\":1773:1796   */\n  sub\n    /* \"#utility.yul\":1769:1801   */\n  slt\n    /* \"#utility.yul\":1766:1885   */\n  iszero\n  tag_71\n  jumpi\n    /* \"#utility.yul\":1804:1883   */\n  tag_72\n  tag_37\n  jump\t// in\ntag_72:\n    /* \"#utility.yul\":1766:1885   */\ntag_71:\n    /* \"#utility.yul\":1924:1925   */\n  0x00\n    /* \"#utility.yul\":1949:2013   */\n  tag_73\n    /* \"#utility.yul\":2005:2012   */\n  dup5\n    /* \"#utility.yul\":1996:2002   */\n  dup3\n    /* \"#utility.yul\":1985:1994   */\n  dup6\n    /* \"#utility.yul\":1981:2003   */\n  add\n    /* \"#utility.yul\":1949:2013   */\n  tag_42\n  jump\t// in\ntag_73:\n    /* \"#utility.yul\":1939:2013   */\n  swap2\n  pop\n    /* \"#utility.yul\":1895:2023   */\n  pop\n    /* \"#utility.yul\":1679:2030   */\n  swap3\n  swap2\n  pop\n  pop\n  jump\t// out\n    /* \"#utility.yul\":2036:2154   */\ntag_43:\n    /* \"#utility.yul\":2123:2147   */\n  tag_75\n    /* \"#utility.yul\":2141:2146   */\n  dup2\n    /* \"#utility.yul\":2123:2147   */\n  tag_40\n  jump\t// in\ntag_75:\n    /* \"#utility.yul\":2118:2121   */\n  dup3\n    /* \"#utility.yul\":2111:2148   */\n  mstore\n    /* \"#utility.yul\":2036:2154   */\n  pop\n  pop\n  jump\t// out\n    /* \"#utility.yul\":2160:2492   */\ntag_21:\n    /* \"#utility.yul\":2281:2285   */\n  0x00\n    /* \"#utility.yul\":2319:2321   */\n  0x40\n    /* \"#utility.yul\":2308:2317   */\n  dup3\n    /* \"#utility.yul\":2304:2322   */\n  add\n    /* \"#utility.yul\":2296:2322   */\n  swap1\n  pop\n    /* \"#utility.yul\":2332:2403   */\n  tag_77\n    /* \"#utility.yul\":2400:2401   */\n  0x00\n    /* \"#utility.yul\":2389:2398   */\n  dup4\n    /* \"#utility.yul\":2385:2402   */\n  add\n    /* \"#utility.yul\":2376:2382   */\n  dup6\n    /* \"#utility.yul\":2332:2403   */\n  tag_43\n  jump\t// in\ntag_77:\n    /* \"#utility.yul\":2413:2485   */\n  tag_78\n    /* \"#utility.yul\":2481:2483   */\n  0x20\n    /* \"#utility.yul\":2470:2479   */\n  dup4\n    /* \"#utility.yul\":2466:2484   */\n  add\n    /* \"#utility.yul\":2457:2463   */\n  dup5\n    /* \"#utility.yul\":2413:2485   */\n  tag_43\n  jump\t// in\ntag_78:\n    /* \"#utility.yul\":2160:2492   */\n  swap4\n  swap3\n  pop\n  pop\n  pop\n  jump\t// out\n    /* \"#utility.yul\":2498:2616   */\ntag_44:\n    /* \"#utility.yul\":2585:2609   */\n  tag_80\n    /* \"#utility.yul\":2603:2608   */\n  dup2\n    /* \"#utility.yul\":2585:2609   */\n  tag_33\n  jump\t// in\ntag_80:\n    /* \"#utility.yul\":2580:2583   */\n  dup3\n    /* \"#utility.yul\":2573:2610   */\n  mstore\n    /* \"#utility.yul\":2498:2616   */\n  pop\n  pop\n  jump\t// out\n    /* \"#utility.yul\":2622:2844   */\ntag_29:\n    /* \"#utility.yul\":2715:2719   */\n  0x00\n    /* \"#utility.yul\":2753:2755   */\n  0x20\n    /* \"#utility.yul\":2742:2751   */\n  dup3\n    /* \"#utility.yul\":2738:2756   */\n  add\n    /* \"#utility.yul\":2730:2756   */\n  swap1\n  pop\n    /* \"#utility.yul\":2766:2837   */\n  tag_82\n    /* \"#utility.yul\":2834:2835   */\n  0x00\n    /* \"#utility.yul\":2823:2832   */\n  dup4\n    /* \"#utility.yul\":2819:2836   */\n  add\n    /* \"#utility.yul\":2810:2816   */\n  dup5\n    /* \"#utility.yul\":2766:2837   */\n  tag_44\n  jump\t// in\ntag_82:\n    /* \"#utility.yul\":2622:2844   */\n  swap3\n  swap2\n  pop\n  pop\n  jump\t// out\n    /* \"contracts/Pool/Pool.sol\":3787:15323  contract World_Step is Context, IERC20, Ownable {... */\ntag_30:\n  dataSize(sub_0)\n  dup1\n  dataOffset(sub_0)\n  0x00\n  codecopy\n  0x00\n  return\nstop\n\nsub_0: assembly {\n        /* \"contracts/Pool/Pool.sol\":3787:15323  contract World_Step is Context, IERC20, Ownable {... */\n      mstore(0x40, 0x80)\n      jumpi(tag_1, lt(calldatasize, 0x04))\n      shr(0xe0, calldataload(0x00))\n      dup1\n      0x715018a6\n      gt\n      tag_27\n      jumpi\n      dup1\n      0xaad5c023\n      gt\n      tag_28\n      jumpi\n      dup1\n      0xaad5c023\n      eq\n      tag_21\n      jumpi\n      dup1\n      0xc3c8cd80\n      eq\n      tag_22\n      jumpi\n      dup1\n      0xc492f046\n      eq\n      tag_23\n      jumpi\n      dup1\n      0xdd62ed3e\n      eq\n      tag_24\n      jumpi\n      dup1\n      0xe293d316\n      eq\n      tag_25\n      jumpi\n      dup1\n      0xf2fde38b\n      eq\n      tag_26\n      jumpi\n      jump(tag_2)\n    tag_28:\n      dup1\n      0x715018a6\n      eq\n      tag_15\n      jumpi\n      dup1\n      0x758dbe03\n      eq\n      tag_16\n      jumpi\n      dup1\n      0x8da5cb5b\n      eq\n      tag_17\n      jumpi\n      dup1\n      0x95d89b41\n      eq\n      tag_18\n      jumpi\n      dup1\n      0xa2a957bb\n      eq\n      tag_19\n      jumpi\n      dup1\n      0xa9059cbb\n      eq\n      tag_20\n      jumpi\n      jump(tag_2)\n    tag_27:\n      dup1\n      0x313ce567\n      gt\n      tag_29\n      jumpi\n      dup1\n      0x313ce567\n      eq\n      tag_9\n      jumpi\n      dup1\n      0x49bd5a5e\n      eq\n      tag_10\n      jumpi\n      dup1\n      0x59d0f713\n      eq\n      tag_11\n      jumpi\n      dup1\n      0x6d8aa8f8\n      eq\n      tag_12\n      jumpi\n      dup1\n      0x6fc3eaec\n      eq\n      tag_13\n      jumpi\n      dup1\n      0x70a08231\n      eq\n      tag_14\n      jumpi\n      jump(tag_2)\n    tag_29:\n      dup1\n      0x05a272ea\n      eq\n      tag_3\n      jumpi\n      dup1\n      0x06fdde03\n      eq\n      tag_4\n      jumpi\n      dup1\n      0x095ea7b3\n      eq\n      tag_5\n      jumpi\n      dup1\n      0x1694505e\n      eq\n      tag_6\n      jumpi\n      dup1\n      0x18160ddd\n      eq\n      tag_7\n      jumpi\n      dup1\n      0x23b872dd\n      eq\n      tag_8\n      jumpi\n      jump(tag_2)\n    tag_1:\n      jumpi(tag_2, calldatasize)\n      stop\n    tag_2:\n      0x00\n      dup1\n      revert\n        /* \"contracts/Pool/Pool.sol\":9574:9623  function settingPair() public onlyOwner { ... */\n    tag_3:\n      callvalue\n      dup1\n      iszero\n      tag_32\n      jumpi\n      0x00\n      dup1\n      revert\n    tag_32:\n      pop\n      tag_33\n      tag_34\n      jump\t// in\n    tag_33:\n      stop\n        /* \"contracts/Pool/Pool.sol\":6189:6270  function name() public pure returns (string memory) {... */\n    tag_4:\n      callvalue\n      dup1\n      iszero\n      tag_35\n      jumpi\n      0x00\n      dup1\n      revert\n    tag_35:\n      pop\n      tag_36\n      tag_37\n      jump\t// in\n    tag_36:\n      mload(0x40)\n      tag_38\n      swap2\n      swap1\n      tag_39\n      jump\t// in\n    tag_38:\n      mload(0x40)\n      dup1\n      swap2\n      sub\n      swap1\n      return\n        /* \"contracts/Pool/Pool.sol\":7012:7170  function approve(address spender, uint256 amount) public override returns (bool) {... */\n    tag_5:\n      callvalue\n      dup1\n      iszero\n      tag_40\n      jumpi\n      0x00\n      dup1\n      revert\n    tag_40:\n      pop\n      tag_41\n      0x04\n      dup1\n      calldatasize\n      sub\n      dup2\n      add\n      swap1\n      tag_42\n      swap2\n      swap1\n      tag_43\n      jump\t// in\n    tag_42:\n      tag_44\n      jump\t// in\n    tag_41:\n      mload(0x40)\n      tag_45\n      swap2\n      swap1\n      tag_46\n      jump\t// in\n    tag_45:\n      mload(0x40)\n      dup1\n      swap2\n      sub\n      swap1\n      return\n        /* \"contracts/Pool/Pool.sol\":4891:4932  IUniswapV2Router02 public uniswapV2Router */\n    tag_6:\n      callvalue\n      dup1\n      iszero\n      tag_47\n      jumpi\n      0x00\n      dup1\n      revert\n    tag_47:\n      pop\n      tag_48\n      tag_49\n      jump\t// in\n    tag_48:\n      mload(0x40)\n      tag_50\n      swap2\n      swap1\n      tag_51\n      jump\t// in\n    tag_50:\n      mload(0x40)\n      dup1\n      swap2\n      sub\n      swap1\n      return\n        /* \"contracts/Pool/Pool.sol\":6454:6547  function totalSupply() public pure override returns (uint256) {... */\n    tag_7:\n      callvalue\n      dup1\n      iszero\n      tag_52\n      jumpi\n      0x00\n      dup1\n      revert\n    tag_52:\n      pop\n      tag_53\n      tag_54\n      jump\t// in\n    tag_53:\n      mload(0x40)\n      tag_55\n      swap2\n      swap1\n      tag_56\n      jump\t// in\n    tag_55:\n      mload(0x40)\n      dup1\n      swap2\n      sub\n      swap1\n      return\n        /* \"contracts/Pool/Pool.sol\":7176:7485  function transferFrom(address sender, address recipient, uint256 amount) public override returns (bool) {... */\n    tag_8:\n      callvalue\n      dup1\n      iszero\n      tag_57\n      jumpi\n      0x00\n      dup1\n      revert\n    tag_57:\n      pop\n      tag_58\n      0x04\n      dup1\n      calldatasize\n      sub\n      dup2\n      add\n      swap1\n      tag_59\n      swap2\n      swap1\n      tag_60\n      jump\t// in\n    tag_59:\n      tag_61\n      jump\t// in\n    tag_58:\n      mload(0x40)\n      tag_62\n      swap2\n      swap1\n      tag_46\n      jump\t// in\n    tag_62:\n      mload(0x40)\n      dup1\n      swap2\n      sub\n      swap1\n      return\n        /* \"contracts/Pool/Pool.sol\":6367:6448  function decimals() public pure returns (uint8) {... */\n    tag_9:\n      callvalue\n      dup1\n      iszero\n      tag_63\n      jumpi\n      0x00\n      dup1\n      revert\n    tag_63:\n      pop\n      tag_64\n      tag_65\n      jump\t// in\n    tag_64:\n      mload(0x40)\n      tag_66\n      swap2\n      swap1\n      tag_67\n      jump\t// in\n    tag_66:\n      mload(0x40)\n      dup1\n      swap2\n      sub\n      swap1\n      return\n        /* \"contracts/Pool/Pool.sol\":4986:5014  address public uniswapV2Pair */\n    tag_10:\n      callvalue\n      dup1\n      iszero\n      tag_68\n      jumpi\n      0x00\n      dup1\n      revert\n    tag_68:\n      pop\n      tag_69\n      tag_70\n      jump\t// in\n    tag_69:\n      mload(0x40)\n      tag_71\n      swap2\n      swap1\n      tag_72\n      jump\t// in\n    tag_71:\n      mload(0x40)\n      dup1\n      swap2\n      sub\n      swap1\n      return\n        /* \"contracts/Pool/Pool.sol\":4938:4979  IUniswapV2Factory public uniswapV2Factory */\n    tag_11:\n      callvalue\n      dup1\n      iszero\n      tag_73\n      jumpi\n      0x00\n      dup1\n      revert\n    tag_73:\n      pop\n      tag_74\n      tag_75\n      jump\t// in\n    tag_74:\n      mload(0x40)\n      tag_76\n      swap2\n      swap1\n      tag_77\n      jump\t// in\n    tag_76:\n      mload(0x40)\n      dup1\n      swap2\n      sub\n      swap1\n      return\n        /* \"contracts/Pool/Pool.sol\":14988:15085  function toggleSwap(bool _swapEnabled) public onlyDev {... */\n    tag_12:\n      callvalue\n      dup1\n      iszero\n      tag_78\n      jumpi\n      0x00\n      dup1\n      revert\n    tag_78:\n      pop\n      tag_79\n      0x04\n      dup1\n      calldatasize\n      sub\n      dup2\n      add\n      swap1\n      tag_80\n      swap2\n      swap1\n      tag_81\n      jump\t// in\n    tag_80:\n      tag_82\n      jump\t// in\n    tag_79:\n      stop\n        /* \"contracts/Pool/Pool.sol\":14168:14426  function manualsend() external {... */\n    tag_13:\n      callvalue\n      dup1\n      iszero\n      tag_83\n      jumpi\n      0x00\n      dup1\n      revert\n    tag_83:\n      pop\n      tag_84\n      tag_85\n      jump\t// in\n    tag_84:\n      stop\n        /* \"contracts/Pool/Pool.sol\":6553:6689  function balanceOf(address account) public view override returns (uint256) {... */\n    tag_14:\n      callvalue\n      dup1\n      iszero\n      tag_86\n      jumpi\n      0x00\n      dup1\n      revert\n    tag_86:\n      pop\n      tag_87\n      0x04\n      dup1\n      calldatasize\n      sub\n      dup2\n      add\n      swap1\n      tag_88\n      swap2\n      swap1\n      tag_89\n      jump\t// in\n    tag_88:\n      tag_90\n      jump\t// in\n    tag_87:\n      mload(0x40)\n      tag_91\n      swap2\n      swap1\n      tag_56\n      jump\t// in\n    tag_91:\n      mload(0x40)\n      dup1\n      swap2\n      sub\n      swap1\n      return\n        /* \"contracts/Pool/Pool.sol\":3381:3526  function renounceOwnership() public virtual onlyOwner {... */\n    tag_15:\n      callvalue\n      dup1\n      iszero\n      tag_92\n      jumpi\n      0x00\n      dup1\n      revert\n    tag_92:\n      pop\n      tag_93\n      tag_94\n      jump\t// in\n    tag_93:\n      stop\n        /* \"contracts/Pool/Pool.sol\":11117:11350  function setNewMarketingAddress(address payable markt) public onlyDev() {... */\n    tag_16:\n      callvalue\n      dup1\n      iszero\n      tag_95\n      jumpi\n      0x00\n      dup1\n      revert\n    tag_95:\n      pop\n      tag_96\n      0x04\n      dup1\n      calldatasize\n      sub\n      dup2\n      add\n      swap1\n      tag_97\n      swap2\n      swap1\n      tag_98\n      jump\t// in\n    tag_97:\n      tag_99\n      jump\t// in\n    tag_96:\n      stop\n        /* \"contracts/Pool/Pool.sol\":3185:3262  function owner() public view returns (address) {... */\n    tag_17:\n      callvalue\n      dup1\n      iszero\n      tag_100\n      jumpi\n      0x00\n      dup1\n      revert\n    tag_100:\n      pop\n      tag_101\n      tag_102\n      jump\t// in\n    tag_101:\n      mload(0x40)\n      tag_103\n      swap2\n      swap1\n      tag_72\n      jump\t// in\n    tag_103:\n      mload(0x40)\n      dup1\n      swap2\n      sub\n      swap1\n      return\n        /* \"contracts/Pool/Pool.sol\":6276:6361  function symbol() public pure returns (string memory) {... */\n    tag_18:\n      callvalue\n      dup1\n      iszero\n      tag_104\n      jumpi\n      0x00\n      dup1\n      revert\n    tag_104:\n      pop\n      tag_105\n      tag_106\n      jump\t// in\n    tag_105:\n      mload(0x40)\n      tag_107\n      swap2\n      swap1\n      tag_39\n      jump\t// in\n    tag_107:\n      mload(0x40)\n      dup1\n      swap2\n      sub\n      swap1\n      return\n        /* \"contracts/Pool/Pool.sol\":14436:14978  function setFee(uint256 redisFeeOnBuy, uint256 redisFeeOnSell, uint256 taxFeeOnBuy, uint256 taxFeeOnSell) public onlyDev {... */\n    tag_19:\n      callvalue\n      dup1\n      iszero\n      tag_108\n      jumpi\n      0x00\n      dup1\n      revert\n    tag_108:\n      pop\n      tag_109\n      0x04\n      dup1\n      calldatasize\n      sub\n      dup2\n      add\n      swap1\n      tag_110\n      swap2\n      swap1\n      tag_111\n      jump\t// in\n    tag_110:\n      tag_112\n      jump\t// in\n    tag_109:\n      stop\n        /* \"contracts/Pool/Pool.sol\":6695:6859  function transfer(address recipient, uint256 amount) public override returns (bool) {... */\n    tag_20:\n      callvalue\n      dup1\n      iszero\n      tag_113\n      jumpi\n      0x00\n      dup1\n      revert\n    tag_113:\n      pop\n      tag_114\n      0x04\n      dup1\n      calldatasize\n      sub\n      dup2\n      add\n      swap1\n      tag_115\n      swap2\n      swap1\n      tag_43\n      jump\t// in\n    tag_115:\n      tag_116\n      jump\t// in\n    tag_114:\n      mload(0x40)\n      tag_117\n      swap2\n      swap1\n      tag_46\n      jump\t// in\n    tag_117:\n      mload(0x40)\n      dup1\n      swap2\n      sub\n      swap1\n      return\n        /* \"contracts/Pool/Pool.sol\":10804:11025  function setNewDevAddress(address payable dev) public onlyDev() {... */\n    tag_21:\n      callvalue\n      dup1\n      iszero\n      tag_118\n      jumpi\n      0x00\n      dup1\n      revert\n    tag_118:\n      pop\n      tag_119\n      0x04\n      dup1\n      calldatasize\n      sub\n      dup2\n      add\n      swap1\n      tag_120\n      swap2\n      swap1\n      tag_98\n      jump\t// in\n    tag_120:\n      tag_121\n      jump\t// in\n    tag_119:\n      stop\n        /* \"contracts/Pool/Pool.sol\":13903:14162  function manualswap() external {... */\n    tag_22:\n      callvalue\n      dup1\n      iszero\n      tag_122\n      jumpi\n      0x00\n      dup1\n      revert\n    tag_122:\n      pop\n      tag_123\n      tag_124\n      jump\t// in\n    tag_123:\n      stop\n        /* \"contracts/Pool/Pool.sol\":15091:15321  function excludeMultipleAccountsFromFees(address[] calldata accounts, bool excluded) public onlyOwner {... */\n    tag_23:\n      callvalue\n      dup1\n      iszero\n      tag_125\n      jumpi\n      0x00\n      dup1\n      revert\n    tag_125:\n      pop\n      tag_126\n      0x04\n      dup1\n      calldatasize\n      sub\n      dup2\n      add\n      swap1\n      tag_127\n      swap2\n      swap1\n      tag_128\n      jump\t// in\n    tag_127:\n      tag_129\n      jump\t// in\n    tag_126:\n      stop\n        /* \"contracts/Pool/Pool.sol\":6865:7006  function allowance(address owner, address spender) public view override returns (uint256) {... */\n    tag_24:\n      callvalue\n      dup1\n      iszero\n      tag_130\n      jumpi\n      0x00\n      dup1\n      revert\n    tag_130:\n      pop\n      tag_131\n      0x04\n      dup1\n      calldatasize\n      sub\n      dup2\n      add\n      swap1\n      tag_132\n      swap2\n      swap1\n      tag_133\n      jump\t// in\n    tag_132:\n      tag_134\n      jump\t// in\n    tag_131:\n      mload(0x40)\n      tag_135\n      swap2\n      swap1\n      tag_56\n      jump\t// in\n    tag_135:\n      mload(0x40)\n      dup1\n      swap2\n      sub\n      swap1\n      return\n        /* \"contracts/Pool/Pool.sol\":10513:10718  function rescueForeignTokens(address _tokenAddr, address _to, uint _amount) public onlyDev() {... */\n    tag_25:\n      callvalue\n      dup1\n      iszero\n      tag_136\n      jumpi\n      0x00\n      dup1\n      revert\n    tag_136:\n      pop\n      tag_137\n      0x04\n      dup1\n      calldatasize\n      sub\n      dup2\n      add\n      swap1\n      tag_138\n      swap2\n      swap1\n      tag_60\n      jump\t// in\n    tag_138:\n      tag_139\n      jump\t// in\n    tag_137:\n      stop\n        /* \"contracts/Pool/Pool.sol\":3625:3782  function transferOwnership(address newOwner) public virtual onlyOwner {... */\n    tag_26:\n      callvalue\n      dup1\n      iszero\n      tag_140\n      jumpi\n      0x00\n      dup1\n      revert\n    tag_140:\n      pop\n      tag_141\n      0x04\n      dup1\n      calldatasize\n      sub\n      dup2\n      add\n      swap1\n      tag_142\n      swap2\n      swap1\n      tag_89\n      jump\t// in\n    tag_142:\n      tag_143\n      jump\t// in\n    tag_141:\n      stop\n        /* \"contracts/Pool/Pool.sol\":9574:9623  function settingPair() public onlyOwner { ... */\n    tag_34:\n        /* \"contracts/Pool/Pool.sol\":3317:3329  _msgSender() */\n      tag_145\n        /* \"contracts/Pool/Pool.sol\":3317:3327  _msgSender */\n      tag_146\n        /* \"contracts/Pool/Pool.sol\":3317:3329  _msgSender() */\n      jump\t// in\n    tag_145:\n        /* \"contracts/Pool/Pool.sol\":3307:3329  _owner == _msgSender() */\n      0xffffffffffffffffffffffffffffffffffffffff\n      and\n        /* \"contracts/Pool/Pool.sol\":3307:3313  _owner */\n      0x00\n      dup1\n      sload\n      swap1\n      0x0100\n      exp\n      swap1\n      div\n      0xffffffffffffffffffffffffffffffffffffffff\n      and\n        /* \"contracts/Pool/Pool.sol\":3307:3329  _owner == _msgSender() */\n      0xffffffffffffffffffffffffffffffffffffffff\n      and\n      eq\n        /* \"contracts/Pool/Pool.sol\":3299:3357  require(_owner == _msgSender(), \"Caller is not the owner\") */\n      tag_147\n      jumpi\n      mload(0x40)\n      0x08c379a000000000000000000000000000000000000000000000000000000000\n      dup2\n      mstore\n      0x04\n      add\n      tag_148\n      swap1\n      tag_149\n      jump\t// in\n    tag_148:\n      mload(0x40)\n      dup1\n      swap2\n      sub\n      swap1\n      revert\n    tag_147:\n        /* \"contracts/Pool/Pool.sol\":9574:9623  function settingPair() public onlyOwner { ... */\n      jump\t// out\n        /* \"contracts/Pool/Pool.sol\":6189:6270  function name() public pure returns (string memory) {... */\n    tag_37:\n        /* \"contracts/Pool/Pool.sol\":6226:6239  string memory */\n      0x60\n        /* \"contracts/Pool/Pool.sol\":6258:6263  _name */\n      mload(0x40)\n      dup1\n      0x40\n      add\n      0x40\n      mstore\n      dup1\n      0x0a\n      dup2\n      mstore\n      0x20\n      add\n      0x576f726c64205374657000000000000000000000000000000000000000000000\n      dup2\n      mstore\n      pop\n        /* \"contracts/Pool/Pool.sol\":6251:6263  return _name */\n      swap1\n      pop\n        /* \"contracts/Pool/Pool.sol\":6189:6270  function name() public pure returns (string memory) {... */\n      swap1\n      jump\t// out\n        /* \"contracts/Pool/Pool.sol\":7012:7170  function approve(address spender, uint256 amount) public override returns (bool) {... */\n    tag_44:\n        /* \"contracts/Pool/Pool.sol\":7087:7091  bool */\n      0x00\n        /* \"contracts/Pool/Pool.sol\":7103:7142  _approve(_msgSender(), spender, amount) */\n      tag_153\n        /* \"contracts/Pool/Pool.sol\":7112:7124  _msgSender() */\n      tag_154\n        /* \"contracts/Pool/Pool.sol\":7112:7122  _msgSender */\n      tag_146\n        /* \"contracts/Pool/Pool.sol\":7112:7124  _msgSender() */\n      jump\t// in\n    tag_154:\n        /* \"contracts/Pool/Pool.sol\":7126:7133  spender */\n      dup5\n        /* \"contracts/Pool/Pool.sol\":7135:7141  amount */\n      dup5\n        /* \"contracts/Pool/Pool.sol\":7103:7111  _approve */\n      tag_155\n        /* \"contracts/Pool/Pool.sol\":7103:7142  _approve(_msgSender(), spender, amount) */\n      jump\t// in\n    tag_153:\n        /* \"contracts/Pool/Pool.sol\":7159:7163  true */\n      0x01\n        /* \"contracts/Pool/Pool.sol\":7152:7163  return true */\n      swap1\n      pop\n        /* \"contracts/Pool/Pool.sol\":7012:7170  function approve(address spender, uint256 amount) public override returns (bool) {... */\n      swap3\n      swap2\n      pop\n      pop\n      jump\t// out\n        /* \"contracts/Pool/Pool.sol\":4891:4932  IUniswapV2Router02 public uniswapV2Router */\n    tag_49:\n      0x10\n      0x00\n      swap1\n      sload\n      swap1\n      0x0100\n      exp\n      swap1\n      div\n      0xffffffffffffffffffffffffffffffffffffffff\n      and\n      dup2\n      jump\t// out\n        /* \"contracts/Pool/Pool.sol\":6454:6547  function totalSupply() public pure override returns (uint256) {... */\n    tag_54:\n        /* \"contracts/Pool/Pool.sol\":6507:6514  uint256 */\n      0x00\n        /* \"contracts/Pool/Pool.sol\":4200:4213  1*10**9*10**9 */\n      0x0de0b6b3a7640000\n        /* \"contracts/Pool/Pool.sol\":6526:6540  return _tTotal */\n      swap1\n      pop\n        /* \"contracts/Pool/Pool.sol\":6454:6547  function totalSupply() public pure override returns (uint256) {... */\n      swap1\n      jump\t// out\n        /* \"contracts/Pool/Pool.sol\":7176:7485  function transferFrom(address sender, address recipient, uint256 amount) public override returns (bool) {... */\n    tag_61:\n        /* \"contracts/Pool/Pool.sol\":7274:7278  bool */\n      0x00\n        /* \"contracts/Pool/Pool.sol\":7290:7326  _transfer(sender, recipient, amount) */\n      tag_158\n        /* \"contracts/Pool/Pool.sol\":7300:7306  sender */\n      dup5\n        /* \"contracts/Pool/Pool.sol\":7308:7317  recipient */\n      dup5\n        /* \"contracts/Pool/Pool.sol\":7319:7325  amount */\n      dup5\n        /* \"contracts/Pool/Pool.sol\":7290:7299  _transfer */\n      tag_159\n        /* \"contracts/Pool/Pool.sol\":7290:7326  _transfer(sender, recipient, amount) */\n      jump\t// in\n    tag_158:\n        /* \"contracts/Pool/Pool.sol\":7336:7457  _approve(sender, _msgSender(), _allowances[sender][_msgSender()].sub(amount, \"ERC20: transfer amount exceeds allowance\")) */\n      tag_160\n        /* \"contracts/Pool/Pool.sol\":7345:7351  sender */\n      dup5\n        /* \"contracts/Pool/Pool.sol\":7353:7365  _msgSender() */\n      tag_161\n        /* \"contracts/Pool/Pool.sol\":7353:7363  _msgSender */\n      tag_146\n        /* \"contracts/Pool/Pool.sol\":7353:7365  _msgSender() */\n      jump\t// in\n    tag_161:\n        /* \"contracts/Pool/Pool.sol\":7367:7456  _allowances[sender][_msgSender()].sub(amount, \"ERC20: transfer amount exceeds allowance\") */\n      tag_162\n        /* \"contracts/Pool/Pool.sol\":7405:7411  amount */\n      dup6\n        /* \"contracts/Pool/Pool.sol\":7367:7456  _allowances[sender][_msgSender()].sub(amount, \"ERC20: transfer amount exceeds allowance\") */\n      mload(0x40)\n      dup1\n      0x60\n      add\n      0x40\n      mstore\n      dup1\n      0x28\n      dup2\n      mstore\n      0x20\n      add\n      data_974d1b4421da69cc60b481194f0dad36a5bb4e23da810da7a7fb30cdba178330\n      0x28\n      swap2\n      codecopy\n        /* \"contracts/Pool/Pool.sol\":7367:7378  _allowances */\n      0x04\n        /* \"contracts/Pool/Pool.sol\":7367:7386  _allowances[sender] */\n      0x00\n        /* \"contracts/Pool/Pool.sol\":7379:7385  sender */\n      dup12\n        /* \"contracts/Pool/Pool.sol\":7367:7386  _allowances[sender] */\n      0xffffffffffffffffffffffffffffffffffffffff\n      and\n      0xffffffffffffffffffffffffffffffffffffffff\n      and\n      dup2\n      mstore\n      0x20\n      add\n      swap1\n      dup2\n      mstore\n      0x20\n      add\n      0x00\n      keccak256\n        /* \"contracts/Pool/Pool.sol\":7367:7400  _allowances[sender][_msgSender()] */\n      0x00\n        /* \"contracts/Pool/Pool.sol\":7387:7399  _msgSender() */\n      tag_163\n        /* \"contracts/Pool/Pool.sol\":7387:7397  _msgSender */\n      tag_146\n        /* \"contracts/Pool/Pool.sol\":7387:7399  _msgSender() */\n      jump\t// in\n    tag_163:\n        /* \"contracts/Pool/Pool.sol\":7367:7400  _allowances[sender][_msgSender()] */\n      0xffffffffffffffffffffffffffffffffffffffff\n      and\n      0xffffffffffffffffffffffffffffffffffffffff\n      and\n      dup2\n      mstore\n      0x20\n      add\n      swap1\n      dup2\n      mstore\n      0x20\n      add\n      0x00\n      keccak256\n      sload\n        /* \"contracts/Pool/Pool.sol\":7367:7404  _allowances[sender][_msgSender()].sub */\n      tag_164\n      swap1\n        /* \"contracts/Pool/Pool.sol\":7367:7456  _allowances[sender][_msgSender()].sub(amount, \"ERC20: transfer amount exceeds allowance\") */\n      swap3\n      swap2\n      swap1\n      0xffffffff\n      and\n      jump\t// in\n    tag_162:\n        /* \"contracts/Pool/Pool.sol\":7336:7344  _approve */\n      tag_155\n        /* \"contracts/Pool/Pool.sol\":7336:7457  _approve(sender, _msgSender(), _allowances[sender][_msgSender()].sub(amount, \"ERC20: transfer amount exceeds allowance\")) */\n      jump\t// in\n    tag_160:\n        /* \"contracts/Pool/Pool.sol\":7474:7478  true */\n      0x01\n        /* \"contracts/Pool/Pool.sol\":7467:7478  return true */\n      swap1\n      pop\n        /* \"contracts/Pool/Pool.sol\":7176:7485  function transferFrom(address sender, address recipient, uint256 amount) public override returns (bool) {... */\n      swap4\n      swap3\n      pop\n      pop\n      pop\n      jump\t// out\n        /* \"contracts/Pool/Pool.sol\":6367:6448  function decimals() public pure returns (uint8) {... */\n    tag_65:\n        /* \"contracts/Pool/Pool.sol\":6408:6413  uint8 */\n      0x00\n        /* \"contracts/Pool/Pool.sol\":4674:4675  9 */\n      0x09\n        /* \"contracts/Pool/Pool.sol\":6425:6441  return _decimals */\n      swap1\n      pop\n        /* \"contracts/Pool/Pool.sol\":6367:6448  function decimals() public pure returns (uint8) {... */\n      swap1\n      jump\t// out\n        /* \"contracts/Pool/Pool.sol\":4986:5014  address public uniswapV2Pair */\n    tag_70:\n      0x12\n      0x00\n      swap1\n      sload\n      swap1\n      0x0100\n      exp\n      swap1\n      div\n      0xffffffffffffffffffffffffffffffffffffffff\n      and\n      dup2\n      jump\t// out\n        /* \"contracts/Pool/Pool.sol\":4938:4979  IUniswapV2Factory public uniswapV2Factory */\n    tag_75:\n      0x11\n      0x00\n      swap1\n      sload\n      swap1\n      0x0100\n      exp\n      swap1\n      div\n      0xffffffffffffffffffffffffffffffffffffffff\n      and\n      dup2\n      jump\t// out\n        /* \"contracts/Pool/Pool.sol\":14988:15085  function toggleSwap(bool _swapEnabled) public onlyDev {... */\n    tag_82:\n        /* \"contracts/Pool/Pool.sol\":6086:6098  _msgSender() */\n      tag_167\n        /* \"contracts/Pool/Pool.sol\":6086:6096  _msgSender */\n      tag_146\n        /* \"contracts/Pool/Pool.sol\":6086:6098  _msgSender() */\n      jump\t// in\n    tag_167:\n        /* \"contracts/Pool/Pool.sol\":6075:6098  owner() == _msgSender() */\n      0xffffffffffffffffffffffffffffffffffffffff\n      and\n        /* \"contracts/Pool/Pool.sol\":6075:6082  owner() */\n      tag_168\n        /* \"contracts/Pool/Pool.sol\":6075:6080  owner */\n      tag_102\n        /* \"contracts/Pool/Pool.sol\":6075:6082  owner() */\n      jump\t// in\n    tag_168:\n        /* \"contracts/Pool/Pool.sol\":6075:6098  owner() == _msgSender() */\n      0xffffffffffffffffffffffffffffffffffffffff\n      and\n      eq\n        /* \"contracts/Pool/Pool.sol\":6075:6137  owner() == _msgSender() || _developmentAddress == _msgSender() */\n      dup1\n      tag_169\n      jumpi\n      pop\n        /* \"contracts/Pool/Pool.sol\":6125:6137  _msgSender() */\n      tag_170\n        /* \"contracts/Pool/Pool.sol\":6125:6135  _msgSender */\n      tag_146\n        /* \"contracts/Pool/Pool.sol\":6125:6137  _msgSender() */\n      jump\t// in\n    tag_170:\n        /* \"contracts/Pool/Pool.sol\":6102:6137  _developmentAddress == _msgSender() */\n      0xffffffffffffffffffffffffffffffffffffffff\n      and\n        /* \"contracts/Pool/Pool.sol\":6102:6121  _developmentAddress */\n      0x0e\n      0x00\n      swap1\n      sload\n      swap1\n      0x0100\n      exp\n      swap1\n      div\n      0xffffffffffffffffffffffffffffffffffffffff\n      and\n        /* \"contracts/Pool/Pool.sol\":6102:6137  _developmentAddress == _msgSender() */\n      0xffffffffffffffffffffffffffffffffffffffff\n      and\n      eq\n        /* \"contracts/Pool/Pool.sol\":6075:6137  owner() == _msgSender() || _developmentAddress == _msgSender() */\n    tag_169:\n        /* \"contracts/Pool/Pool.sol\":6067:6163  require(owner() == _msgSender() || _developmentAddress == _msgSender(), \"Caller is not the dev\") */\n      tag_171\n      jumpi\n      mload(0x40)\n      0x08c379a000000000000000000000000000000000000000000000000000000000\n      dup2\n      mstore\n      0x04\n      add\n      tag_172\n      swap1\n      tag_173\n      jump\t// in\n    tag_172:\n      mload(0x40)\n      dup1\n      swap2\n      sub\n      swap1\n      revert\n    tag_171:\n        /* \"contracts/Pool/Pool.sol\":15066:15078  _swapEnabled */\n      dup1\n        /* \"contracts/Pool/Pool.sol\":15052:15063  swapEnabled */\n      0x12\n      0x15\n        /* \"contracts/Pool/Pool.sol\":15052:15078  swapEnabled = _swapEnabled */\n      0x0100\n      exp\n      dup2\n      sload\n      dup2\n      0xff\n      mul\n      not\n      and\n      swap1\n      dup4\n      iszero\n      iszero\n      mul\n      or\n      swap1\n      sstore\n      pop\n        /* \"contracts/Pool/Pool.sol\":14988:15085  function toggleSwap(bool _swapEnabled) public onlyDev {... */\n      pop\n      jump\t// out\n        /* \"contracts/Pool/Pool.sol\":14168:14426  function manualsend() external {... */\n    tag_85:\n        /* \"contracts/Pool/Pool.sol\":14233:14252  _developmentAddress */\n      0x0e\n      0x00\n      swap1\n      sload\n      swap1\n      0x0100\n      exp\n      swap1\n      div\n      0xffffffffffffffffffffffffffffffffffffffff\n      and\n        /* \"contracts/Pool/Pool.sol\":14217:14252  _msgSender() == _developmentAddress */\n      0xffffffffffffffffffffffffffffffffffffffff\n      and\n        /* \"contracts/Pool/Pool.sol\":14217:14229  _msgSender() */\n      tag_176\n        /* \"contracts/Pool/Pool.sol\":14217:14227  _msgSender */\n      tag_146\n        /* \"contracts/Pool/Pool.sol\":14217:14229  _msgSender() */\n      jump\t// in\n    tag_176:\n        /* \"contracts/Pool/Pool.sol\":14217:14252  _msgSender() == _developmentAddress */\n      0xffffffffffffffffffffffffffffffffffffffff\n      and\n      eq\n        /* \"contracts/Pool/Pool.sol\":14217:14289  _msgSender() == _developmentAddress || _msgSender() == _marketingAddress */\n      dup1\n      tag_177\n      jumpi\n      pop\n        /* \"contracts/Pool/Pool.sol\":14272:14289  _marketingAddress */\n      0x0f\n      0x00\n      swap1\n      sload\n      swap1\n      0x0100\n      exp\n      swap1\n      div\n      0xffffffffffffffffffffffffffffffffffffffff\n      and\n        /* \"contracts/Pool/Pool.sol\":14256:14289  _msgSender() == _marketingAddress */\n      0xffffffffffffffffffffffffffffffffffffffff\n      and\n        /* \"contracts/Pool/Pool.sol\":14256:14268  _msgSender() */\n      tag_178\n        /* \"contracts/Pool/Pool.sol\":14256:14266  _msgSender */\n      tag_146\n        /* \"contracts/Pool/Pool.sol\":14256:14268  _msgSender() */\n      jump\t// in\n    tag_178:\n        /* \"contracts/Pool/Pool.sol\":14256:14289  _msgSender() == _marketingAddress */\n      0xffffffffffffffffffffffffffffffffffffffff\n      and\n      eq\n        /* \"contracts/Pool/Pool.sol\":14217:14289  _msgSender() == _developmentAddress || _msgSender() == _marketingAddress */\n    tag_177:\n        /* \"contracts/Pool/Pool.sol\":14217:14316  _msgSender() == _developmentAddress || _msgSender() == _marketingAddress || _msgSender() == owner() */\n      dup1\n      tag_179\n      jumpi\n      pop\n        /* \"contracts/Pool/Pool.sol\":14309:14316  owner() */\n      tag_180\n        /* \"contracts/Pool/Pool.sol\":14309:14314  owner */\n      tag_102\n        /* \"contracts/Pool/Pool.sol\":14309:14316  owner() */\n      jump\t// in\n    tag_180:\n        /* \"contracts/Pool/Pool.sol\":14293:14316  _msgSender() == owner() */\n      0xffffffffffffffffffffffffffffffffffffffff\n      and\n        /* \"contracts/Pool/Pool.sol\":14293:14305  _msgSender() */\n      tag_181\n        /* \"contracts/Pool/Pool.sol\":14293:14303  _msgSender */\n      tag_146\n        /* \"contracts/Pool/Pool.sol\":14293:14305  _msgSender() */\n      jump\t// in\n    tag_181:\n        /* \"contracts/Pool/Pool.sol\":14293:14316  _msgSender() == owner() */\n      0xffffffffffffffffffffffffffffffffffffffff\n      and\n      eq\n        /* \"contracts/Pool/Pool.sol\":14217:14316  _msgSender() == _developmentAddress || _msgSender() == _marketingAddress || _msgSender() == owner() */\n    tag_179:\n        /* \"contracts/Pool/Pool.sol\":14209:14317  require(_msgSender() == _developmentAddress || _msgSender() == _marketingAddress || _msgSender() == owner()) */\n      tag_182\n      jumpi\n      0x00\n      dup1\n      revert\n    tag_182:\n        /* \"contracts/Pool/Pool.sol\":14327:14353  uint256 contractETHBalance */\n      0x00\n        /* \"contracts/Pool/Pool.sol\":14356:14377  address(this).balance */\n      selfbalance\n        /* \"contracts/Pool/Pool.sol\":14327:14377  uint256 contractETHBalance = address(this).balance */\n      swap1\n      pop\n        /* \"contracts/Pool/Pool.sol\":14387:14419  sendETHToFee(contractETHBalance) */\n      tag_183\n        /* \"contracts/Pool/Pool.sol\":14400:14418  contractETHBalance */\n      dup2\n        /* \"contracts/Pool/Pool.sol\":14387:14399  sendETHToFee */\n      tag_184\n        /* \"contracts/Pool/Pool.sol\":14387:14419  sendETHToFee(contractETHBalance) */\n      jump\t// in\n    tag_183:\n        /* \"contracts/Pool/Pool.sol\":14199:14426  {... */\n      pop\n        /* \"contracts/Pool/Pool.sol\":14168:14426  function manualsend() external {... */\n      jump\t// out\n        /* \"contracts/Pool/Pool.sol\":6553:6689  function balanceOf(address account) public view override returns (uint256) {... */\n    tag_90:\n        /* \"contracts/Pool/Pool.sol\":6619:6626  uint256 */\n      0x00\n        /* \"contracts/Pool/Pool.sol\":6645:6682  tokenFromReflection(_rOwned[account]) */\n      tag_186\n        /* \"contracts/Pool/Pool.sol\":6665:6672  _rOwned */\n      0x02\n        /* \"contracts/Pool/Pool.sol\":6665:6681  _rOwned[account] */\n      0x00\n        /* \"contracts/Pool/Pool.sol\":6673:6680  account */\n      dup5\n        /* \"contracts/Pool/Pool.sol\":6665:6681  _rOwned[account] */\n      0xffffffffffffffffffffffffffffffffffffffff\n      and\n      0xffffffffffffffffffffffffffffffffffffffff\n      and\n      dup2\n      mstore\n      0x20\n      add\n      swap1\n      dup2\n      mstore\n      0x20\n      add\n      0x00\n      keccak256\n      sload\n        /* \"contracts/Pool/Pool.sol\":6645:6664  tokenFromReflection */\n      tag_187\n        /* \"contracts/Pool/Pool.sol\":6645:6682  tokenFromReflection(_rOwned[account]) */\n      jump\t// in\n    tag_186:\n        /* \"contracts/Pool/Pool.sol\":6638:6682  return tokenFromReflection(_rOwned[account]) */\n      swap1\n      pop\n        /* \"contracts/Pool/Pool.sol\":6553:6689  function balanceOf(address account) public view override returns (uint256) {... */\n      swap2\n      swap1\n      pop\n      jump\t// out\n        /* \"contracts/Pool/Pool.sol\":3381:3526  function renounceOwnership() public virtual onlyOwner {... */\n    tag_94:\n        /* \"contracts/Pool/Pool.sol\":3317:3329  _msgSender() */\n      tag_189\n        /* \"contracts/Pool/Pool.sol\":3317:3327  _msgSender */\n      tag_146\n        /* \"contracts/Pool/Pool.sol\":3317:3329  _msgSender() */\n      jump\t// in\n    tag_189:\n        /* \"contracts/Pool/Pool.sol\":3307:3329  _owner == _msgSender() */\n      0xffffffffffffffffffffffffffffffffffffffff\n      and\n        /* \"contracts/Pool/Pool.sol\":3307:3313  _owner */\n      0x00\n      dup1\n      sload\n      swap1\n      0x0100\n      exp\n      swap1\n      div\n      0xffffffffffffffffffffffffffffffffffffffff\n      and\n        /* \"contracts/Pool/Pool.sol\":3307:3329  _owner == _msgSender() */\n      0xffffffffffffffffffffffffffffffffffffffff\n      and\n      eq\n        /* \"contracts/Pool/Pool.sol\":3299:3357  require(_owner == _msgSender(), \"Caller is not the owner\") */\n      tag_190\n      jumpi\n      mload(0x40)\n      0x08c379a000000000000000000000000000000000000000000000000000000000\n      dup2\n      mstore\n      0x04\n      add\n      tag_191\n      swap1\n      tag_149\n      jump\t// in\n    tag_191:\n      mload(0x40)\n      dup1\n      swap2\n      sub\n      swap1\n      revert\n    tag_190:\n        /* \"contracts/Pool/Pool.sol\":3487:3488  0 */\n      0x00\n        /* \"contracts/Pool/Pool.sol\":3450:3490  OwnershipTransferred(_owner, address(0)) */\n      0xffffffffffffffffffffffffffffffffffffffff\n      and\n        /* \"contracts/Pool/Pool.sol\":3471:3477  _owner */\n      0x00\n      dup1\n      sload\n      swap1\n      0x0100\n      exp\n      swap1\n      div\n      0xffffffffffffffffffffffffffffffffffffffff\n      and\n        /* \"contracts/Pool/Pool.sol\":3450:3490  OwnershipTransferred(_owner, address(0)) */\n      0xffffffffffffffffffffffffffffffffffffffff\n      and\n      0x8be0079c531659141344cd1fd0a4f28419497f9722a3daafe3b4186f6b6457e0\n      mload(0x40)\n      mload(0x40)\n      dup1\n      swap2\n      sub\n      swap1\n      log3\n        /* \"contracts/Pool/Pool.sol\":3517:3518  0 */\n      0x00\n        /* \"contracts/Pool/Pool.sol\":3500:3506  _owner */\n      dup1\n      0x00\n        /* \"contracts/Pool/Pool.sol\":3500:3519  _owner = address(0) */\n      0x0100\n      exp\n      dup2\n      sload\n      dup2\n      0xffffffffffffffffffffffffffffffffffffffff\n      mul\n      not\n      and\n      swap1\n      dup4\n      0xffffffffffffffffffffffffffffffffffffffff\n      and\n      mul\n      or\n      swap1\n      sstore\n      pop\n        /* \"contracts/Pool/Pool.sol\":3381:3526  function renounceOwnership() public virtual onlyOwner {... */\n      jump\t// out\n        /* \"contracts/Pool/Pool.sol\":11117:11350  function setNewMarketingAddress(address payable markt) public onlyDev() {... */\n    tag_99:\n        /* \"contracts/Pool/Pool.sol\":6086:6098  _msgSender() */\n      tag_194\n        /* \"contracts/Pool/Pool.sol\":6086:6096  _msgSender */\n      tag_146\n        /* \"contracts/Pool/Pool.sol\":6086:6098  _msgSender() */\n      jump\t// in\n    tag_194:\n        /* \"contracts/Pool/Pool.sol\":6075:6098  owner() == _msgSender() */\n      0xffffffffffffffffffffffffffffffffffffffff\n      and\n        /* \"contracts/Pool/Pool.sol\":6075:6082  owner() */\n      tag_195\n        /* \"contracts/Pool/Pool.sol\":6075:6080  owner */\n      tag_102\n        /* \"contracts/Pool/Pool.sol\":6075:6082  owner() */\n      jump\t// in\n    tag_195:\n        /* \"contracts/Pool/Pool.sol\":6075:6098  owner() == _msgSender() */\n      0xffffffffffffffffffffffffffffffffffffffff\n      and\n      eq\n        /* \"contracts/Pool/Pool.sol\":6075:6137  owner() == _msgSender() || _developmentAddress == _msgSender() */\n      dup1\n      tag_196\n      jumpi\n      pop\n        /* \"contracts/Pool/Pool.sol\":6125:6137  _msgSender() */\n      tag_197\n        /* \"contracts/Pool/Pool.sol\":6125:6135  _msgSender */\n      tag_146\n        /* \"contracts/Pool/Pool.sol\":6125:6137  _msgSender() */\n      jump\t// in\n    tag_197:\n        /* \"contracts/Pool/Pool.sol\":6102:6137  _developmentAddress == _msgSender() */\n      0xffffffffffffffffffffffffffffffffffffffff\n      and\n        /* \"contracts/Pool/Pool.sol\":6102:6121  _developmentAddress */\n      0x0e\n      0x00\n      swap1\n      sload\n      swap1\n      0x0100\n      exp\n      swap1\n      div\n      0xffffffffffffffffffffffffffffffffffffffff\n      and\n        /* \"contracts/Pool/Pool.sol\":6102:6137  _developmentAddress == _msgSender() */\n      0xffffffffffffffffffffffffffffffffffffffff\n      and\n      eq\n        /* \"contracts/Pool/Pool.sol\":6075:6137  owner() == _msgSender() || _developmentAddress == _msgSender() */\n    tag_196:\n        /* \"contracts/Pool/Pool.sol\":6067:6163  require(owner() == _msgSender() || _developmentAddress == _msgSender(), \"Caller is not the dev\") */\n      tag_198\n      jumpi\n      mload(0x40)\n      0x08c379a000000000000000000000000000000000000000000000000000000000\n      dup2\n      mstore\n      0x04\n      add\n      tag_199\n      swap1\n      tag_173\n      jump\t// in\n    tag_199:\n      mload(0x40)\n      dup1\n      swap2\n      sub\n      swap1\n      revert\n    tag_198:\n        /* \"contracts/Pool/Pool.sol\":11247:11252  markt */\n      dup1\n        /* \"contracts/Pool/Pool.sol\":11204:11253  marketingAddressUpdated(_marketingAddress, markt) */\n      0xffffffffffffffffffffffffffffffffffffffff\n      and\n        /* \"contracts/Pool/Pool.sol\":11228:11245  _marketingAddress */\n      0x0f\n      0x00\n      swap1\n      sload\n      swap1\n      0x0100\n      exp\n      swap1\n      div\n      0xffffffffffffffffffffffffffffffffffffffff\n      and\n        /* \"contracts/Pool/Pool.sol\":11204:11253  marketingAddressUpdated(_marketingAddress, markt) */\n      0xffffffffffffffffffffffffffffffffffffffff\n      and\n      0xa64373a629bc0c09eacf8a9cc2c7b070fa0a8b7e2e9b8aaee408a3c02eb1676b\n      mload(0x40)\n      mload(0x40)\n      dup1\n      swap2\n      sub\n      swap1\n      log3\n        /* \"contracts/Pool/Pool.sol\":11284:11289  markt */\n      dup1\n        /* \"contracts/Pool/Pool.sol\":11264:11281  _marketingAddress */\n      0x0f\n      0x00\n        /* \"contracts/Pool/Pool.sol\":11264:11289  _marketingAddress = markt */\n      0x0100\n      exp\n      dup2\n      sload\n      dup2\n      0xffffffffffffffffffffffffffffffffffffffff\n      mul\n      not\n      and\n      swap1\n      dup4\n      0xffffffffffffffffffffffffffffffffffffffff\n      and\n      mul\n      or\n      swap1\n      sstore\n      pop\n        /* \"contracts/Pool/Pool.sol\":11339:11343  true */\n      0x01\n        /* \"contracts/Pool/Pool.sol\":11299:11317  _isExcludedFromFee */\n      0x05\n        /* \"contracts/Pool/Pool.sol\":11299:11336  _isExcludedFromFee[_marketingAddress] */\n      0x00\n        /* \"contracts/Pool/Pool.sol\":11318:11335  _marketingAddress */\n      0x0f\n      0x00\n      swap1\n      sload\n      swap1\n      0x0100\n      exp\n      swap1\n      div\n      0xffffffffffffffffffffffffffffffffffffffff\n      and\n        /* \"contracts/Pool/Pool.sol\":11299:11336  _isExcludedFromFee[_marketingAddress] */\n      0xffffffffffffffffffffffffffffffffffffffff\n      and\n      0xffffffffffffffffffffffffffffffffffffffff\n      and\n      dup2\n      mstore\n      0x20\n      add\n      swap1\n      dup2\n      mstore\n      0x20\n      add\n      0x00\n      keccak256\n      0x00\n        /* \"contracts/Pool/Pool.sol\":11299:11343  _isExcludedFromFee[_marketingAddress] = true */\n      0x0100\n      exp\n      dup2\n      sload\n      dup2\n      0xff\n      mul\n      not\n      and\n      swap1\n      dup4\n      iszero\n      iszero\n      mul\n      or\n      swap1\n      sstore\n      pop\n        /* \"contracts/Pool/Pool.sol\":11117:11350  function setNewMarketingAddress(address payable markt) public onlyDev() {... */\n      pop\n      jump\t// out\n        /* \"contracts/Pool/Pool.sol\":3185:3262  function owner() public view returns (address) {... */\n    tag_102:\n        /* \"contracts/Pool/Pool.sol\":3223:3230  address */\n      0x00\n        /* \"contracts/Pool/Pool.sol\":3249:3255  _owner */\n      dup1\n      0x00\n      swap1\n      sload\n      swap1\n      0x0100\n      exp\n      swap1\n      div\n      0xffffffffffffffffffffffffffffffffffffffff\n      and\n        /* \"contracts/Pool/Pool.sol\":3242:3255  return _owner */\n      swap1\n      pop\n        /* \"contracts/Pool/Pool.sol\":3185:3262  function owner() public view returns (address) {... */\n      swap1\n      jump\t// out\n        /* \"contracts/Pool/Pool.sol\":6276:6361  function symbol() public pure returns (string memory) {... */\n    tag_106:\n        /* \"contracts/Pool/Pool.sol\":6315:6328  string memory */\n      0x60\n        /* \"contracts/Pool/Pool.sol\":6347:6354  _symbol */\n      mload(0x40)\n      dup1\n      0x40\n      add\n      0x40\n      mstore\n      dup1\n      0x03\n      dup2\n      mstore\n      0x20\n      add\n      0x5753500000000000000000000000000000000000000000000000000000000000\n      dup2\n      mstore\n      pop\n        /* \"contracts/Pool/Pool.sol\":6340:6354  return _symbol */\n      swap1\n      pop\n        /* \"contracts/Pool/Pool.sol\":6276:6361  function symbol() public pure returns (string memory) {... */\n      swap1\n      jump\t// out\n        /* \"contracts/Pool/Pool.sol\":14436:14978  function setFee(uint256 redisFeeOnBuy, uint256 redisFeeOnSell, uint256 taxFeeOnBuy, uint256 taxFeeOnSell) public onlyDev {... */\n    tag_112:\n        /* \"contracts/Pool/Pool.sol\":6086:6098  _msgSender() */\n      tag_204\n        /* \"contracts/Pool/Pool.sol\":6086:6096  _msgSender */\n      tag_146\n        /* \"contracts/Pool/Pool.sol\":6086:6098  _msgSender() */\n      jump\t// in\n    tag_204:\n        /* \"contracts/Pool/Pool.sol\":6075:6098  owner() == _msgSender() */\n      0xffffffffffffffffffffffffffffffffffffffff\n      and\n        /* \"contracts/Pool/Pool.sol\":6075:6082  owner() */\n      tag_205\n        /* \"contracts/Pool/Pool.sol\":6075:6080  owner */\n      tag_102\n        /* \"contracts/Pool/Pool.sol\":6075:6082  owner() */\n      jump\t// in\n    tag_205:\n        /* \"contracts/Pool/Pool.sol\":6075:6098  owner() == _msgSender() */\n      0xffffffffffffffffffffffffffffffffffffffff\n      and\n      eq\n        /* \"contracts/Pool/Pool.sol\":6075:6137  owner() == _msgSender() || _developmentAddress == _msgSender() */\n      dup1\n      tag_206\n      jumpi\n      pop\n        /* \"contracts/Pool/Pool.sol\":6125:6137  _msgSender() */\n      tag_207\n        /* \"contracts/Pool/Pool.sol\":6125:6135  _msgSender */\n      tag_146\n        /* \"contracts/Pool/Pool.sol\":6125:6137  _msgSender() */\n      jump\t// in\n    tag_207:\n        /* \"contracts/Pool/Pool.sol\":6102:6137  _developmentAddress == _msgSender() */\n      0xffffffffffffffffffffffffffffffffffffffff\n      and\n        /* \"contracts/Pool/Pool.sol\":6102:6121  _developmentAddress */\n      0x0e\n      0x00\n      swap1\n      sload\n      swap1\n      0x0100\n      exp\n      swap1\n      div\n      0xffffffffffffffffffffffffffffffffffffffff\n      and\n        /* \"contracts/Pool/Pool.sol\":6102:6137  _developmentAddress == _msgSender() */\n      0xffffffffffffffffffffffffffffffffffffffff\n      and\n      eq\n        /* \"contracts/Pool/Pool.sol\":6075:6137  owner() == _msgSender() || _developmentAddress == _msgSender() */\n    tag_206:\n        /* \"contracts/Pool/Pool.sol\":6067:6163  require(owner() == _msgSender() || _developmentAddress == _msgSender(), \"Caller is not the dev\") */\n      tag_208\n      jumpi\n      mload(0x40)\n      0x08c379a000000000000000000000000000000000000000000000000000000000\n      dup2\n      mstore\n      0x04\n      add\n      tag_209\n      swap1\n      tag_173\n      jump\t// in\n    tag_209:\n      mload(0x40)\n      dup1\n      swap2\n      sub\n      swap1\n      revert\n    tag_208:\n        /* \"contracts/Pool/Pool.sol\":14588:14590  11 */\n      0x0b\n        /* \"contracts/Pool/Pool.sol\":14572:14585  redisFeeOnBuy */\n      dup5\n        /* \"contracts/Pool/Pool.sol\":14572:14590  redisFeeOnBuy < 11 */\n      lt\n        /* \"contracts/Pool/Pool.sol\":14564:14624  require(redisFeeOnBuy < 11, \"Redis cannot be more than 10.\") */\n      tag_211\n      jumpi\n      mload(0x40)\n      0x08c379a000000000000000000000000000000000000000000000000000000000\n      dup2\n      mstore\n      0x04\n      add\n      tag_212\n      swap1\n      tag_213\n      jump\t// in\n    tag_212:\n      mload(0x40)\n      dup1\n      swap2\n      sub\n      swap1\n      revert\n    tag_211:\n        /* \"contracts/Pool/Pool.sol\":14656:14658  11 */\n      0x0b\n        /* \"contracts/Pool/Pool.sol\":14639:14653  redisFeeOnSell */\n      dup4\n        /* \"contracts/Pool/Pool.sol\":14639:14658  redisFeeOnSell < 11 */\n      lt\n        /* \"contracts/Pool/Pool.sol\":14631:14692  require(redisFeeOnSell < 11, \"Redis cannot be more than 10.\") */\n      tag_214\n      jumpi\n      mload(0x40)\n      0x08c379a000000000000000000000000000000000000000000000000000000000\n      dup2\n      mstore\n      0x04\n      add\n      tag_215\n      swap1\n      tag_213\n      jump\t// in\n    tag_215:\n      mload(0x40)\n      dup1\n      swap2\n      sub\n      swap1\n      revert\n    tag_214:\n        /* \"contracts/Pool/Pool.sol\":14721:14722  7 */\n      0x07\n        /* \"contracts/Pool/Pool.sol\":14707:14718  taxFeeOnBuy */\n      dup3\n        /* \"contracts/Pool/Pool.sol\":14707:14722  taxFeeOnBuy < 7 */\n      lt\n        /* \"contracts/Pool/Pool.sol\":14699:14753  require(taxFeeOnBuy < 7, \"Tax cannot be more than 6.\") */\n      tag_216\n      jumpi\n      mload(0x40)\n      0x08c379a000000000000000000000000000000000000000000000000000000000\n      dup2\n      mstore\n      0x04\n      add\n      tag_217\n      swap1\n      tag_218\n      jump\t// in\n    tag_217:\n      mload(0x40)\n      dup1\n      swap2\n      sub\n      swap1\n      revert\n    tag_216:\n        /* \"contracts/Pool/Pool.sol\":14783:14784  7 */\n      0x07\n        /* \"contracts/Pool/Pool.sol\":14768:14780  taxFeeOnSell */\n      dup2\n        /* \"contracts/Pool/Pool.sol\":14768:14784  taxFeeOnSell < 7 */\n      lt\n        /* \"contracts/Pool/Pool.sol\":14760:14815  require(taxFeeOnSell < 7, \"Tax cannot be more than 6.\") */\n      tag_219\n      jumpi\n      mload(0x40)\n      0x08c379a000000000000000000000000000000000000000000000000000000000\n      dup2\n      mstore\n      0x04\n      add\n      tag_220\n      swap1\n      tag_218\n      jump\t// in\n    tag_220:\n      mload(0x40)\n      dup1\n      swap2\n      sub\n      swap1\n      revert\n    tag_219:\n        /* \"contracts/Pool/Pool.sol\":14842:14855  redisFeeOnBuy */\n      dup4\n        /* \"contracts/Pool/Pool.sol\":14825:14839  _redisFeeOnBuy */\n      0x08\n        /* \"contracts/Pool/Pool.sol\":14825:14855  _redisFeeOnBuy = redisFeeOnBuy */\n      dup2\n      swap1\n      sstore\n      pop\n        /* \"contracts/Pool/Pool.sol\":14883:14897  redisFeeOnSell */\n      dup3\n        /* \"contracts/Pool/Pool.sol\":14865:14880  _redisFeeOnSell */\n      0x0a\n        /* \"contracts/Pool/Pool.sol\":14865:14897  _redisFeeOnSell = redisFeeOnSell */\n      dup2\n      swap1\n      sstore\n      pop\n        /* \"contracts/Pool/Pool.sol\":14922:14933  taxFeeOnBuy */\n      dup2\n        /* \"contracts/Pool/Pool.sol\":14907:14919  _taxFeeOnBuy */\n      0x09\n        /* \"contracts/Pool/Pool.sol\":14907:14933  _taxFeeOnBuy = taxFeeOnBuy */\n      dup2\n      swap1\n      sstore\n      pop\n        /* \"contracts/Pool/Pool.sol\":14959:14971  taxFeeOnSell */\n      dup1\n        /* \"contracts/Pool/Pool.sol\":14943:14956  _taxFeeOnSell */\n      0x0b\n        /* \"contracts/Pool/Pool.sol\":14943:14971  _taxFeeOnSell = taxFeeOnSell */\n      dup2\n      swap1\n      sstore\n      pop\n        /* \"contracts/Pool/Pool.sol\":14436:14978  function setFee(uint256 redisFeeOnBuy, uint256 redisFeeOnSell, uint256 taxFeeOnBuy, uint256 taxFeeOnSell) public onlyDev {... */\n      pop\n      pop\n      pop\n      pop\n      jump\t// out\n        /* \"contracts/Pool/Pool.sol\":6695:6859  function transfer(address recipient, uint256 amount) public override returns (bool) {... */\n    tag_116:\n        /* \"contracts/Pool/Pool.sol\":6773:6777  bool */\n      0x00\n        /* \"contracts/Pool/Pool.sol\":6789:6831  _transfer(_msgSender(), recipient, amount) */\n      tag_222\n        /* \"contracts/Pool/Pool.sol\":6799:6811  _msgSender() */\n      tag_223\n        /* \"contracts/Pool/Pool.sol\":6799:6809  _msgSender */\n      tag_146\n        /* \"contracts/Pool/Pool.sol\":6799:6811  _msgSender() */\n      jump\t// in\n    tag_223:\n        /* \"contracts/Pool/Pool.sol\":6813:6822  recipient */\n      dup5\n        /* \"contracts/Pool/Pool.sol\":6824:6830  amount */\n      dup5\n        /* \"contracts/Pool/Pool.sol\":6789:6798  _transfer */\n      tag_159\n        /* \"contracts/Pool/Pool.sol\":6789:6831  _transfer(_msgSender(), recipient, amount) */\n      jump\t// in\n    tag_222:\n        /* \"contracts/Pool/Pool.sol\":6848:6852  true */\n      0x01\n        /* \"contracts/Pool/Pool.sol\":6841:6852  return true */\n      swap1\n      pop\n        /* \"contracts/Pool/Pool.sol\":6695:6859  function transfer(address recipient, uint256 amount) public override returns (bool) {... */\n      swap3\n      swap2\n      pop\n      pop\n      jump\t// out\n        /* \"contracts/Pool/Pool.sol\":10804:11025  function setNewDevAddress(address payable dev) public onlyDev() {... */\n    tag_121:\n        /* \"contracts/Pool/Pool.sol\":6086:6098  _msgSender() */\n      tag_225\n        /* \"contracts/Pool/Pool.sol\":6086:6096  _msgSender */\n      tag_146\n        /* \"contracts/Pool/Pool.sol\":6086:6098  _msgSender() */\n      jump\t// in\n    tag_225:\n        /* \"contracts/Pool/Pool.sol\":6075:6098  owner() == _msgSender() */\n      0xffffffffffffffffffffffffffffffffffffffff\n      and\n        /* \"contracts/Pool/Pool.sol\":6075:6082  owner() */\n      tag_226\n        /* \"contracts/Pool/Pool.sol\":6075:6080  owner */\n      tag_102\n        /* \"contracts/Pool/Pool.sol\":6075:6082  owner() */\n      jump\t// in\n    tag_226:\n        /* \"contracts/Pool/Pool.sol\":6075:6098  owner() == _msgSender() */\n      0xffffffffffffffffffffffffffffffffffffffff\n      and\n      eq\n        /* \"contracts/Pool/Pool.sol\":6075:6137  owner() == _msgSender() || _developmentAddress == _msgSender() */\n      dup1\n      tag_227\n      jumpi\n      pop\n        /* \"contracts/Pool/Pool.sol\":6125:6137  _msgSender() */\n      tag_228\n        /* \"contracts/Pool/Pool.sol\":6125:6135  _msgSender */\n      tag_146\n        /* \"contracts/Pool/Pool.sol\":6125:6137  _msgSender() */\n      jump\t// in\n    tag_228:\n        /* \"contracts/Pool/Pool.sol\":6102:6137  _developmentAddress == _msgSender() */\n      0xffffffffffffffffffffffffffffffffffffffff\n      and\n        /* \"contracts/Pool/Pool.sol\":6102:6121  _developmentAddress */\n      0x0e\n      0x00\n      swap1\n      sload\n      swap1\n      0x0100\n      exp\n      swap1\n      div\n      0xffffffffffffffffffffffffffffffffffffffff\n      and\n        /* \"contracts/Pool/Pool.sol\":6102:6137  _developmentAddress == _msgSender() */\n      0xffffffffffffffffffffffffffffffffffffffff\n      and\n      eq\n        /* \"contracts/Pool/Pool.sol\":6075:6137  owner() == _msgSender() || _developmentAddress == _msgSender() */\n    tag_227:\n        /* \"contracts/Pool/Pool.sol\":6067:6163  require(owner() == _msgSender() || _developmentAddress == _msgSender(), \"Caller is not the dev\") */\n      tag_229\n      jumpi\n      mload(0x40)\n      0x08c379a000000000000000000000000000000000000000000000000000000000\n      dup2\n      mstore\n      0x04\n      add\n      tag_230\n      swap1\n      tag_173\n      jump\t// in\n    tag_230:\n      mload(0x40)\n      dup1\n      swap2\n      sub\n      swap1\n      revert\n    tag_229:\n        /* \"contracts/Pool/Pool.sol\":10922:10925  dev */\n      dup1\n        /* \"contracts/Pool/Pool.sol\":10883:10926  devAddressUpdated(_developmentAddress, dev) */\n      0xffffffffffffffffffffffffffffffffffffffff\n      and\n        /* \"contracts/Pool/Pool.sol\":10901:10920  _developmentAddress */\n      0x0e\n      0x00\n      swap1\n      sload\n      swap1\n      0x0100\n      exp\n      swap1\n      div\n      0xffffffffffffffffffffffffffffffffffffffff\n      and\n        /* \"contracts/Pool/Pool.sol\":10883:10926  devAddressUpdated(_developmentAddress, dev) */\n      0xffffffffffffffffffffffffffffffffffffffff\n      and\n      0xfbbc329437e8c79f847e170730ad6dd04106b7511cad70d06d635886d92de83c\n      mload(0x40)\n      mload(0x40)\n      dup1\n      swap2\n      sub\n      swap1\n      log3\n        /* \"contracts/Pool/Pool.sol\":10959:10962  dev */\n      dup1\n        /* \"contracts/Pool/Pool.sol\":10937:10956  _developmentAddress */\n      0x0e\n      0x00\n        /* \"contracts/Pool/Pool.sol\":10937:10962  _developmentAddress = dev */\n      0x0100\n      exp\n      dup2\n      sload\n      dup2\n      0xffffffffffffffffffffffffffffffffffffffff\n      mul\n      not\n      and\n      swap1\n      dup4\n      0xffffffffffffffffffffffffffffffffffffffff\n      and\n      mul\n      or\n      swap1\n      sstore\n      pop\n        /* \"contracts/Pool/Pool.sol\":11014:11018  true */\n      0x01\n        /* \"contracts/Pool/Pool.sol\":10972:10990  _isExcludedFromFee */\n      0x05\n        /* \"contracts/Pool/Pool.sol\":10972:11011  _isExcludedFromFee[_developmentAddress] */\n      0x00\n        /* \"contracts/Pool/Pool.sol\":10991:11010  _developmentAddress */\n      0x0e\n      0x00\n      swap1\n      sload\n      swap1\n      0x0100\n      exp\n      swap1\n      div\n      0xffffffffffffffffffffffffffffffffffffffff\n      and\n        /* \"contracts/Pool/Pool.sol\":10972:11011  _isExcludedFromFee[_developmentAddress] */\n      0xffffffffffffffffffffffffffffffffffffffff\n      and\n      0xffffffffffffffffffffffffffffffffffffffff\n      and\n      dup2\n      mstore\n      0x20\n      add\n      swap1\n      dup2\n      mstore\n      0x20\n      add\n      0x00\n      keccak256\n      0x00\n        /* \"contracts/Pool/Pool.sol\":10972:11018  _isExcludedFromFee[_developmentAddress] = true */\n      0x0100\n      exp\n      dup2\n      sload\n      dup2\n      0xff\n      mul\n      not\n      and\n      swap1\n      dup4\n      iszero\n      iszero\n      mul\n      or\n      swap1\n      sstore\n      pop\n        /* \"contracts/Pool/Pool.sol\":10804:11025  function setNewDevAddress(address payable dev) public onlyDev() {... */\n      pop\n      jump\t// out\n        /* \"contracts/Pool/Pool.sol\":13903:14162  function manualswap() external {... */\n    tag_124:\n        /* \"contracts/Pool/Pool.sol\":13968:13987  _developmentAddress */\n      0x0e\n      0x00\n      swap1\n      sload\n      swap1\n      0x0100\n      exp\n      swap1\n      div\n      0xffffffffffffffffffffffffffffffffffffffff\n      and\n        /* \"contracts/Pool/Pool.sol\":13952:13987  _msgSender() == _developmentAddress */\n      0xffffffffffffffffffffffffffffffffffffffff\n      and\n        /* \"contracts/Pool/Pool.sol\":13952:13964  _msgSender() */\n      tag_233\n        /* \"contracts/Pool/Pool.sol\":13952:13962  _msgSender */\n      tag_146\n        /* \"contracts/Pool/Pool.sol\":13952:13964  _msgSender() */\n      jump\t// in\n    tag_233:\n        /* \"contracts/Pool/Pool.sol\":13952:13987  _msgSender() == _developmentAddress */\n      0xffffffffffffffffffffffffffffffffffffffff\n      and\n      eq\n        /* \"contracts/Pool/Pool.sol\":13952:14024  _msgSender() == _developmentAddress || _msgSender() == _marketingAddress */\n      dup1\n      tag_234\n      jumpi\n      pop\n        /* \"contracts/Pool/Pool.sol\":14007:14024  _marketingAddress */\n      0x0f\n      0x00\n      swap1\n      sload\n      swap1\n      0x0100\n      exp\n      swap1\n      div\n      0xffffffffffffffffffffffffffffffffffffffff\n      and\n        /* \"contracts/Pool/Pool.sol\":13991:14024  _msgSender() == _marketingAddress */\n      0xffffffffffffffffffffffffffffffffffffffff\n      and\n        /* \"contracts/Pool/Pool.sol\":13991:14003  _msgSender() */\n      tag_235\n        /* \"contracts/Pool/Pool.sol\":13991:14001  _msgSender */\n      tag_146\n        /* \"contracts/Pool/Pool.sol\":13991:14003  _msgSender() */\n      jump\t// in\n    tag_235:\n        /* \"contracts/Pool/Pool.sol\":13991:14024  _msgSender() == _marketingAddress */\n      0xffffffffffffffffffffffffffffffffffffffff\n      and\n      eq\n        /* \"contracts/Pool/Pool.sol\":13952:14024  _msgSender() == _developmentAddress || _msgSender() == _marketingAddress */\n    tag_234:\n        /* \"contracts/Pool/Pool.sol\":13952:14051  _msgSender() == _developmentAddress || _msgSender() == _marketingAddress || _msgSender() == owner() */\n      dup1\n      tag_236\n      jumpi\n      pop\n        /* \"contracts/Pool/Pool.sol\":14044:14051  owner() */\n      tag_237\n        /* \"contracts/Pool/Pool.sol\":14044:14049  owner */\n      tag_102\n        /* \"contracts/Pool/Pool.sol\":14044:14051  owner() */\n      jump\t// in\n    tag_237:\n        /* \"contracts/Pool/Pool.sol\":14028:14051  _msgSender() == owner() */\n      0xffffffffffffffffffffffffffffffffffffffff\n      and\n        /* \"contracts/Pool/Pool.sol\":14028:14040  _msgSender() */\n      tag_238\n        /* \"contracts/Pool/Pool.sol\":14028:14038  _msgSender */\n      tag_146\n        /* \"contracts/Pool/Pool.sol\":14028:14040  _msgSender() */\n      jump\t// in\n    tag_238:\n        /* \"contracts/Pool/Pool.sol\":14028:14051  _msgSender() == owner() */\n      0xffffffffffffffffffffffffffffffffffffffff\n      and\n      eq\n        /* \"contracts/Pool/Pool.sol\":13952:14051  _msgSender() == _developmentAddress || _msgSender() == _marketingAddress || _msgSender() == owner() */\n    tag_236:\n        /* \"contracts/Pool/Pool.sol\":13944:14052  require(_msgSender() == _developmentAddress || _msgSender() == _marketingAddress || _msgSender() == owner()) */\n      tag_239\n      jumpi\n      0x00\n      dup1\n      revert\n    tag_239:\n        /* \"contracts/Pool/Pool.sol\":14062:14085  uint256 contractBalance */\n      0x00\n        /* \"contracts/Pool/Pool.sol\":14088:14112  balanceOf(address(this)) */\n      tag_240\n        /* \"contracts/Pool/Pool.sol\":14106:14110  this */\n      address\n        /* \"contracts/Pool/Pool.sol\":14088:14097  balanceOf */\n      tag_90\n        /* \"contracts/Pool/Pool.sol\":14088:14112  balanceOf(address(this)) */\n      jump\t// in\n    tag_240:\n        /* \"contracts/Pool/Pool.sol\":14062:14112  uint256 contractBalance = balanceOf(address(this)) */\n      swap1\n      pop\n        /* \"contracts/Pool/Pool.sol\":14122:14155  swapTokensForEth(contractBalance) */\n      tag_241\n        /* \"contracts/Pool/Pool.sol\":14139:14154  contractBalance */\n      dup2\n        /* \"contracts/Pool/Pool.sol\":14122:14138  swapTokensForEth */\n      tag_242\n        /* \"contracts/Pool/Pool.sol\":14122:14155  swapTokensForEth(contractBalance) */\n      jump\t// in\n    tag_241:\n        /* \"contracts/Pool/Pool.sol\":13934:14162  {... */\n      pop\n        /* \"contracts/Pool/Pool.sol\":13903:14162  function manualswap() external {... */\n      jump\t// out\n        /* \"contracts/Pool/Pool.sol\":15091:15321  function excludeMultipleAccountsFromFees(address[] calldata accounts, bool excluded) public onlyOwner {... */\n    tag_129:\n        /* \"contracts/Pool/Pool.sol\":3317:3329  _msgSender() */\n      tag_244\n        /* \"contracts/Pool/Pool.sol\":3317:3327  _msgSender */\n      tag_146\n        /* \"contracts/Pool/Pool.sol\":3317:3329  _msgSender() */\n      jump\t// in\n    tag_244:\n        /* \"contracts/Pool/Pool.sol\":3307:3329  _owner == _msgSender() */\n      0xffffffffffffffffffffffffffffffffffffffff\n      and\n        /* \"contracts/Pool/Pool.sol\":3307:3313  _owner */\n      0x00\n      dup1\n      sload\n      swap1\n      0x0100\n      exp\n      swap1\n      div\n      0xffffffffffffffffffffffffffffffffffffffff\n      and\n        /* \"contracts/Pool/Pool.sol\":3307:3329  _owner == _msgSender() */\n      0xffffffffffffffffffffffffffffffffffffffff\n      and\n      eq\n        /* \"contracts/Pool/Pool.sol\":3299:3357  require(_owner == _msgSender(), \"Caller is not the owner\") */\n      tag_245\n      jumpi\n      mload(0x40)\n      0x08c379a000000000000000000000000000000000000000000000000000000000\n      dup2\n      mstore\n      0x04\n      add\n      tag_246\n      swap1\n      tag_149\n      jump\t// in\n    tag_246:\n      mload(0x40)\n      dup1\n      swap2\n      sub\n      swap1\n      revert\n    tag_245:\n        /* \"contracts/Pool/Pool.sol\":15207:15216  uint256 i */\n      0x00\n        /* \"contracts/Pool/Pool.sol\":15203:15315  for(uint256 i = 0; i < accounts.length; i++) {... */\n    tag_248:\n        /* \"contracts/Pool/Pool.sol\":15226:15234  accounts */\n      dup4\n      dup4\n        /* \"contracts/Pool/Pool.sol\":15226:15241  accounts.length */\n      swap1\n      pop\n        /* \"contracts/Pool/Pool.sol\":15222:15223  i */\n      dup2\n        /* \"contracts/Pool/Pool.sol\":15222:15241  i < accounts.length */\n      lt\n        /* \"contracts/Pool/Pool.sol\":15203:15315  for(uint256 i = 0; i < accounts.length; i++) {... */\n      iszero\n      tag_249\n      jumpi\n        /* \"contracts/Pool/Pool.sol\":15296:15304  excluded */\n      dup2\n        /* \"contracts/Pool/Pool.sol\":15262:15280  _isExcludedFromFee */\n      0x05\n        /* \"contracts/Pool/Pool.sol\":15262:15293  _isExcludedFromFee[accounts[i]] */\n      0x00\n        /* \"contracts/Pool/Pool.sol\":15281:15289  accounts */\n      dup7\n      dup7\n        /* \"contracts/Pool/Pool.sol\":15290:15291  i */\n      dup6\n        /* \"contracts/Pool/Pool.sol\":15281:15292  accounts[i] */\n      dup2\n      dup2\n      lt\n      tag_251\n      jumpi\n      tag_252\n      tag_253\n      jump\t// in\n    tag_252:\n    tag_251:\n      swap1\n      pop\n      0x20\n      mul\n      add\n      0x20\n      dup2\n      add\n      swap1\n      tag_254\n      swap2\n      swap1\n      tag_89\n      jump\t// in\n    tag_254:\n        /* \"contracts/Pool/Pool.sol\":15262:15293  _isExcludedFromFee[accounts[i]] */\n      0xffffffffffffffffffffffffffffffffffffffff\n      and\n      0xffffffffffffffffffffffffffffffffffffffff\n      and\n      dup2\n      mstore\n      0x20\n      add\n      swap1\n      dup2\n      mstore\n      0x20\n      add\n      0x00\n      keccak256\n      0x00\n        /* \"contracts/Pool/Pool.sol\":15262:15304  _isExcludedFromFee[accounts[i]] = excluded */\n      0x0100\n      exp\n      dup2\n      sload\n      dup2\n      0xff\n      mul\n      not\n      and\n      swap1\n      dup4\n      iszero\n      iszero\n      mul\n      or\n      swap1\n      sstore\n      pop\n        /* \"contracts/Pool/Pool.sol\":15243:15246  i++ */\n      dup1\n      dup1\n      tag_255\n      swap1\n      tag_256\n      jump\t// in\n    tag_255:\n      swap2\n      pop\n      pop\n        /* \"contracts/Pool/Pool.sol\":15203:15315  for(uint256 i = 0; i < accounts.length; i++) {... */\n      jump(tag_248)\n    tag_249:\n      pop\n        /* \"contracts/Pool/Pool.sol\":15091:15321  function excludeMultipleAccountsFromFees(address[] calldata accounts, bool excluded) public onlyOwner {... */\n      pop\n      pop\n      pop\n      jump\t// out\n        /* \"contracts/Pool/Pool.sol\":6865:7006  function allowance(address owner, address spender) public view override returns (uint256) {... */\n    tag_134:\n        /* \"contracts/Pool/Pool.sol\":6946:6953  uint256 */\n      0x00\n        /* \"contracts/Pool/Pool.sol\":6972:6983  _allowances */\n      0x04\n        /* \"contracts/Pool/Pool.sol\":6972:6990  _allowances[owner] */\n      0x00\n        /* \"contracts/Pool/Pool.sol\":6984:6989  owner */\n      dup5\n        /* \"contracts/Pool/Pool.sol\":6972:6990  _allowances[owner] */\n      0xffffffffffffffffffffffffffffffffffffffff\n      and\n      0xffffffffffffffffffffffffffffffffffffffff\n      and\n      dup2\n      mstore\n      0x20\n      add\n      swap1\n      dup2\n      mstore\n      0x20\n      add\n      0x00\n      keccak256\n        /* \"contracts/Pool/Pool.sol\":6972:6999  _allowances[owner][spender] */\n      0x00\n        /* \"contracts/Pool/Pool.sol\":6991:6998  spender */\n      dup4\n        /* \"contracts/Pool/Pool.sol\":6972:6999  _allowances[owner][spender] */\n      0xffffffffffffffffffffffffffffffffffffffff\n      and\n      0xffffffffffffffffffffffffffffffffffffffff\n      and\n      dup2\n      mstore\n      0x20\n      add\n      swap1\n      dup2\n      mstore\n      0x20\n      add\n      0x00\n      keccak256\n      sload\n        /* \"contracts/Pool/Pool.sol\":6965:6999  return _allowances[owner][spender] */\n      swap1\n      pop\n        /* \"contracts/Pool/Pool.sol\":6865:7006  function allowance(address owner, address spender) public view override returns (uint256) {... */\n      swap3\n      swap2\n      pop\n      pop\n      jump\t// out\n        /* \"contracts/Pool/Pool.sol\":10513:10718  function rescueForeignTokens(address _tokenAddr, address _to, uint _amount) public onlyDev() {... */\n    tag_139:\n        /* \"contracts/Pool/Pool.sol\":6086:6098  _msgSender() */\n      tag_259\n        /* \"contracts/Pool/Pool.sol\":6086:6096  _msgSender */\n      tag_146\n        /* \"contracts/Pool/Pool.sol\":6086:6098  _msgSender() */\n      jump\t// in\n    tag_259:\n        /* \"contracts/Pool/Pool.sol\":6075:6098  owner() == _msgSender() */\n      0xffffffffffffffffffffffffffffffffffffffff\n      and\n        /* \"contracts/Pool/Pool.sol\":6075:6082  owner() */\n      tag_260\n        /* \"contracts/Pool/Pool.sol\":6075:6080  owner */\n      tag_102\n        /* \"contracts/Pool/Pool.sol\":6075:6082  owner() */\n      jump\t// in\n    tag_260:\n        /* \"contracts/Pool/Pool.sol\":6075:6098  owner() == _msgSender() */\n      0xffffffffffffffffffffffffffffffffffffffff\n      and\n      eq\n        /* \"contracts/Pool/Pool.sol\":6075:6137  owner() == _msgSender() || _developmentAddress == _msgSender() */\n      dup1\n      tag_261\n      jumpi\n      pop\n        /* \"contracts/Pool/Pool.sol\":6125:6137  _msgSender() */\n      tag_262\n        /* \"contracts/Pool/Pool.sol\":6125:6135  _msgSender */\n      tag_146\n        /* \"contracts/Pool/Pool.sol\":6125:6137  _msgSender() */\n      jump\t// in\n    tag_262:\n        /* \"contracts/Pool/Pool.sol\":6102:6137  _developmentAddress == _msgSender() */\n      0xffffffffffffffffffffffffffffffffffffffff\n      and\n        /* \"contracts/Pool/Pool.sol\":6102:6121  _developmentAddress */\n      0x0e\n      0x00\n      swap1\n      sload\n      swap1\n      0x0100\n      exp\n      swap1\n      div\n      0xffffffffffffffffffffffffffffffffffffffff\n      and\n        /* \"contracts/Pool/Pool.sol\":6102:6137  _developmentAddress == _msgSender() */\n      0xffffffffffffffffffffffffffffffffffffffff\n      and\n      eq\n        /* \"contracts/Pool/Pool.sol\":6075:6137  owner() == _msgSender() || _developmentAddress == _msgSender() */\n    tag_261:\n        /* \"contracts/Pool/Pool.sol\":6067:6163  require(owner() == _msgSender() || _developmentAddress == _msgSender(), \"Caller is not the dev\") */\n      tag_263\n      jumpi\n      mload(0x40)\n      0x08c379a000000000000000000000000000000000000000000000000000000000\n      dup2\n      mstore\n      0x04\n      add\n      tag_264\n      swap1\n      tag_173\n      jump\t// in\n    tag_264:\n      mload(0x40)\n      dup1\n      swap2\n      sub\n      swap1\n      revert\n    tag_263:\n        /* \"contracts/Pool/Pool.sol\":10647:10650  _to */\n      dup2\n        /* \"contracts/Pool/Pool.sol\":10621:10660  tokensRescued(_tokenAddr, _to, _amount) */\n      0xffffffffffffffffffffffffffffffffffffffff\n      and\n        /* \"contracts/Pool/Pool.sol\":10635:10645  _tokenAddr */\n      dup4\n        /* \"contracts/Pool/Pool.sol\":10621:10660  tokensRescued(_tokenAddr, _to, _amount) */\n      0xffffffffffffffffffffffffffffffffffffffff\n      and\n      0x47c33aa230eb5fd181505aa7befeaddd9b8a6f983989cea73a7868448c3a9ed9\n        /* \"contracts/Pool/Pool.sol\":10652:10659  _amount */\n      dup4\n        /* \"contracts/Pool/Pool.sol\":10621:10660  tokensRescued(_tokenAddr, _to, _amount) */\n      mload(0x40)\n      tag_266\n      swap2\n      swap1\n      tag_56\n      jump\t// in\n    tag_266:\n      mload(0x40)\n      dup1\n      swap2\n      sub\n      swap1\n      log3\n        /* \"contracts/Pool/Pool.sol\":10677:10687  _tokenAddr */\n      dup3\n        /* \"contracts/Pool/Pool.sol\":10671:10697  Token(_tokenAddr).transfer */\n      0xffffffffffffffffffffffffffffffffffffffff\n      and\n      0xa9059cbb\n        /* \"contracts/Pool/Pool.sol\":10698:10701  _to */\n      dup4\n        /* \"contracts/Pool/Pool.sol\":10703:10710  _amount */\n      dup4\n        /* \"contracts/Pool/Pool.sol\":10671:10711  Token(_tokenAddr).transfer(_to, _amount) */\n      mload(0x40)\n      dup4\n      0xffffffff\n      and\n      0xe0\n      shl\n      dup2\n      mstore\n      0x04\n      add\n      tag_267\n      swap3\n      swap2\n      swap1\n      tag_268\n      jump\t// in\n    tag_267:\n      0x20\n      mload(0x40)\n      dup1\n      dup4\n      sub\n      dup2\n      0x00\n      dup8\n      gas\n      call\n      iszero\n      dup1\n      iszero\n      tag_270\n      jumpi\n      returndatasize\n      0x00\n      dup1\n      returndatacopy\n      revert(0x00, returndatasize)\n    tag_270:\n      pop\n      pop\n      pop\n      pop\n      mload(0x40)\n      returndatasize\n      not(0x1f)\n      0x1f\n      dup3\n      add\n      and\n      dup3\n      add\n      dup1\n      0x40\n      mstore\n      pop\n      dup2\n      add\n      swap1\n      tag_271\n      swap2\n      swap1\n      tag_272\n      jump\t// in\n    tag_271:\n      pop\n        /* \"contracts/Pool/Pool.sol\":10513:10718  function rescueForeignTokens(address _tokenAddr, address _to, uint _amount) public onlyDev() {... */\n      pop\n      pop\n      pop\n      jump\t// out\n        /* \"contracts/Pool/Pool.sol\":3625:3782  function transferOwnership(address newOwner) public virtual onlyOwner {... */\n    tag_143:\n        /* \"contracts/Pool/Pool.sol\":3317:3329  _msgSender() */\n      tag_274\n        /* \"contracts/Pool/Pool.sol\":3317:3327  _msgSender */\n      tag_146\n        /* \"contracts/Pool/Pool.sol\":3317:3329  _msgSender() */\n      jump\t// in\n    tag_274:\n        /* \"contracts/Pool/Pool.sol\":3307:3329  _owner == _msgSender() */\n      0xffffffffffffffffffffffffffffffffffffffff\n      and\n        /* \"contracts/Pool/Pool.sol\":3307:3313  _owner */\n      0x00\n      dup1\n      sload\n      swap1\n      0x0100\n      exp\n      swap1\n      div\n      0xffffffffffffffffffffffffffffffffffffffff\n      and\n        /* \"contracts/Pool/Pool.sol\":3307:3329  _owner == _msgSender() */\n      0xffffffffffffffffffffffffffffffffffffffff\n      and\n      eq\n        /* \"contracts/Pool/Pool.sol\":3299:3357  require(_owner == _msgSender(), \"Caller is not the owner\") */\n      tag_275\n      jumpi\n      mload(0x40)\n      0x08c379a000000000000000000000000000000000000000000000000000000000\n      dup2\n      mstore\n      0x04\n      add\n      tag_276\n      swap1\n      tag_149\n      jump\t// in\n    tag_276:\n      mload(0x40)\n      dup1\n      swap2\n      sub\n      swap1\n      revert\n    tag_275:\n        /* \"contracts/Pool/Pool.sol\":3739:3747  newOwner */\n      dup1\n        /* \"contracts/Pool/Pool.sol\":3710:3748  OwnershipTransferred(_owner, newOwner) */\n      0xffffffffffffffffffffffffffffffffffffffff\n      and\n        /* \"contracts/Pool/Pool.sol\":3731:3737  _owner */\n      0x00\n      dup1\n      sload\n      swap1\n      0x0100\n      exp\n      swap1\n      div\n      0xffffffffffffffffffffffffffffffffffffffff\n      and\n        /* \"contracts/Pool/Pool.sol\":3710:3748  OwnershipTransferred(_owner, newOwner) */\n      0xffffffffffffffffffffffffffffffffffffffff\n      and\n      0x8be0079c531659141344cd1fd0a4f28419497f9722a3daafe3b4186f6b6457e0\n      mload(0x40)\n      mload(0x40)\n      dup1\n      swap2\n      sub\n      swap1\n      log3\n        /* \"contracts/Pool/Pool.sol\":3767:3775  newOwner */\n      dup1\n        /* \"contracts/Pool/Pool.sol\":3758:3764  _owner */\n      0x00\n      dup1\n        /* \"contracts/Pool/Pool.sol\":3758:3775  _owner = newOwner */\n      0x0100\n      exp\n      dup2\n      sload\n      dup2\n      0xffffffffffffffffffffffffffffffffffffffff\n      mul\n      not\n      and\n      swap1\n      dup4\n      0xffffffffffffffffffffffffffffffffffffffff\n      and\n      mul\n      or\n      swap1\n      sstore\n      pop\n        /* \"contracts/Pool/Pool.sol\":3625:3782  function transferOwnership(address newOwner) public virtual onlyOwner {... */\n      pop\n      jump\t// out\n        /* \"contracts/Pool/Pool.sol\":1721:1817  function _msgSender() internal view virtual returns (address) {... */\n    tag_146:\n        /* \"contracts/Pool/Pool.sol\":1774:1781  address */\n      0x00\n        /* \"contracts/Pool/Pool.sol\":1800:1810  msg.sender */\n      caller\n        /* \"contracts/Pool/Pool.sol\":1793:1810  return msg.sender */\n      swap1\n      pop\n        /* \"contracts/Pool/Pool.sol\":1721:1817  function _msgSender() internal view virtual returns (address) {... */\n      swap1\n      jump\t// out\n        /* \"contracts/Pool/Pool.sol\":7747:8077  function _approve(address owner, address spender, uint256 amount) private {... */\n    tag_155:\n        /* \"contracts/Pool/Pool.sol\":7856:7857  0 */\n      0x00\n        /* \"contracts/Pool/Pool.sol\":7839:7858  owner != address(0) */\n      0xffffffffffffffffffffffffffffffffffffffff\n      and\n        /* \"contracts/Pool/Pool.sol\":7839:7844  owner */\n      dup4\n        /* \"contracts/Pool/Pool.sol\":7839:7858  owner != address(0) */\n      0xffffffffffffffffffffffffffffffffffffffff\n      and\n      sub\n        /* \"contracts/Pool/Pool.sol\":7831:7899  require(owner != address(0), \"ERC20: approve from the zero address\") */\n      tag_280\n      jumpi\n      mload(0x40)\n      0x08c379a000000000000000000000000000000000000000000000000000000000\n      dup2\n      mstore\n      0x04\n      add\n      tag_281\n      swap1\n      tag_282\n      jump\t// in\n    tag_281:\n      mload(0x40)\n      dup1\n      swap2\n      sub\n      swap1\n      revert\n    tag_280:\n        /* \"contracts/Pool/Pool.sol\":7936:7937  0 */\n      0x00\n        /* \"contracts/Pool/Pool.sol\":7917:7938  spender != address(0) */\n      0xffffffffffffffffffffffffffffffffffffffff\n      and\n        /* \"contracts/Pool/Pool.sol\":7917:7924  spender */\n      dup3\n        /* \"contracts/Pool/Pool.sol\":7917:7938  spender != address(0) */\n      0xffffffffffffffffffffffffffffffffffffffff\n      and\n      sub\n        /* \"contracts/Pool/Pool.sol\":7909:7977  require(spender != address(0), \"ERC20: approve to the zero address\") */\n      tag_283\n      jumpi\n      mload(0x40)\n      0x08c379a000000000000000000000000000000000000000000000000000000000\n      dup2\n      mstore\n      0x04\n      add\n      tag_284\n      swap1\n      tag_285\n      jump\t// in\n    tag_284:\n      mload(0x40)\n      dup1\n      swap2\n      sub\n      swap1\n      revert\n    tag_283:\n        /* \"contracts/Pool/Pool.sol\":8017:8023  amount */\n      dup1\n        /* \"contracts/Pool/Pool.sol\":7987:7998  _allowances */\n      0x04\n        /* \"contracts/Pool/Pool.sol\":7987:8005  _allowances[owner] */\n      0x00\n        /* \"contracts/Pool/Pool.sol\":7999:8004  owner */\n      dup6\n        /* \"contracts/Pool/Pool.sol\":7987:8005  _allowances[owner] */\n      0xffffffffffffffffffffffffffffffffffffffff\n      and\n      0xffffffffffffffffffffffffffffffffffffffff\n      and\n      dup2\n      mstore\n      0x20\n      add\n      swap1\n      dup2\n      mstore\n      0x20\n      add\n      0x00\n      keccak256\n        /* \"contracts/Pool/Pool.sol\":7987:8014  _allowances[owner][spender] */\n      0x00\n        /* \"contracts/Pool/Pool.sol\":8006:8013  spender */\n      dup5\n        /* \"contracts/Pool/Pool.sol\":7987:8014  _allowances[owner][spender] */\n      0xffffffffffffffffffffffffffffffffffffffff\n      and\n      0xffffffffffffffffffffffffffffffffffffffff\n      and\n      dup2\n      mstore\n      0x20\n      add\n      swap1\n      dup2\n      mstore\n      0x20\n      add\n      0x00\n      keccak256\n        /* \"contracts/Pool/Pool.sol\":7987:8023  _allowances[owner][spender] = amount */\n      dup2\n      swap1\n      sstore\n      pop\n        /* \"contracts/Pool/Pool.sol\":8054:8061  spender */\n      dup2\n        /* \"contracts/Pool/Pool.sol\":8038:8070  Approval(owner, spender, amount) */\n      0xffffffffffffffffffffffffffffffffffffffff\n      and\n        /* \"contracts/Pool/Pool.sol\":8047:8052  owner */\n      dup4\n        /* \"contracts/Pool/Pool.sol\":8038:8070  Approval(owner, spender, amount) */\n      0xffffffffffffffffffffffffffffffffffffffff\n      and\n      0x8c5be1e5ebec7d5bd14f71427d1e84f3dd0314c0f7b2291e5b200ac8c7c3b925\n        /* \"contracts/Pool/Pool.sol\":8063:8069  amount */\n      dup4\n        /* \"contracts/Pool/Pool.sol\":8038:8070  Approval(owner, spender, amount) */\n      mload(0x40)\n      tag_286\n      swap2\n      swap1\n      tag_56\n      jump\t// in\n    tag_286:\n      mload(0x40)\n      dup1\n      swap2\n      sub\n      swap1\n      log3\n        /* \"contracts/Pool/Pool.sol\":7747:8077  function _approve(address owner, address spender, uint256 amount) private {... */\n      pop\n      pop\n      pop\n      jump\t// out\n        /* \"contracts/Pool/Pool.sol\":8083:9568  function _transfer(address from, address to, uint256 amount) private {... */\n    tag_159:\n        /* \"contracts/Pool/Pool.sol\":8186:8187  0 */\n      0x00\n        /* \"contracts/Pool/Pool.sol\":8170:8188  from != address(0) */\n      0xffffffffffffffffffffffffffffffffffffffff\n      and\n        /* \"contracts/Pool/Pool.sol\":8170:8174  from */\n      dup4\n        /* \"contracts/Pool/Pool.sol\":8170:8188  from != address(0) */\n      0xffffffffffffffffffffffffffffffffffffffff\n      and\n      sub\n        /* \"contracts/Pool/Pool.sol\":8162:8230  require(from != address(0), \"ERC20: transfer from the zero address\") */\n      tag_288\n      jumpi\n      mload(0x40)\n      0x08c379a000000000000000000000000000000000000000000000000000000000\n      dup2\n      mstore\n      0x04\n      add\n      tag_289\n      swap1\n      tag_290\n      jump\t// in\n    tag_289:\n      mload(0x40)\n      dup1\n      swap2\n      sub\n      swap1\n      revert\n    tag_288:\n        /* \"contracts/Pool/Pool.sol\":8262:8263  0 */\n      0x00\n        /* \"contracts/Pool/Pool.sol\":8248:8264  to != address(0) */\n      0xffffffffffffffffffffffffffffffffffffffff\n      and\n        /* \"contracts/Pool/Pool.sol\":8248:8250  to */\n      dup3\n        /* \"contracts/Pool/Pool.sol\":8248:8264  to != address(0) */\n      0xffffffffffffffffffffffffffffffffffffffff\n      and\n      sub\n        /* \"contracts/Pool/Pool.sol\":8240:8304  require(to != address(0), \"ERC20: transfer to the zero address\") */\n      tag_291\n      jumpi\n      mload(0x40)\n      0x08c379a000000000000000000000000000000000000000000000000000000000\n      dup2\n      mstore\n      0x04\n      add\n      tag_292\n      swap1\n      tag_293\n      jump\t// in\n    tag_292:\n      mload(0x40)\n      dup1\n      swap2\n      sub\n      swap1\n      revert\n    tag_291:\n        /* \"contracts/Pool/Pool.sol\":8331:8332  0 */\n      0x00\n        /* \"contracts/Pool/Pool.sol\":8322:8328  amount */\n      dup2\n        /* \"contracts/Pool/Pool.sol\":8322:8332  amount > 0 */\n      gt\n        /* \"contracts/Pool/Pool.sol\":8314:8378  require(amount > 0, \"Transfer amount must be greater than zero\") */\n      tag_294\n      jumpi\n      mload(0x40)\n      0x08c379a000000000000000000000000000000000000000000000000000000000\n      dup2\n      mstore\n      0x04\n      add\n      tag_295\n      swap1\n      tag_296\n      jump\t// in\n    tag_295:\n      mload(0x40)\n      dup1\n      swap2\n      sub\n      swap1\n      revert\n    tag_294:\n        /* \"contracts/Pool/Pool.sol\":8409:8410  0 */\n      0x00\n        /* \"contracts/Pool/Pool.sol\":8397:8406  _redisFee */\n      0x0c\n        /* \"contracts/Pool/Pool.sol\":8397:8410  _redisFee = 0 */\n      dup2\n      swap1\n      sstore\n      pop\n        /* \"contracts/Pool/Pool.sol\":8430:8431  0 */\n      0x00\n        /* \"contracts/Pool/Pool.sol\":8420:8427  _taxFee */\n      0x0d\n        /* \"contracts/Pool/Pool.sol\":8420:8431  _taxFee = 0 */\n      dup2\n      swap1\n      sstore\n      pop\n        /* \"contracts/Pool/Pool.sol\":8462:8469  owner() */\n      tag_297\n        /* \"contracts/Pool/Pool.sol\":8462:8467  owner */\n      tag_102\n        /* \"contracts/Pool/Pool.sol\":8462:8469  owner() */\n      jump\t// in\n    tag_297:\n        /* \"contracts/Pool/Pool.sol\":8454:8469  from != owner() */\n      0xffffffffffffffffffffffffffffffffffffffff\n      and\n        /* \"contracts/Pool/Pool.sol\":8454:8458  from */\n      dup4\n        /* \"contracts/Pool/Pool.sol\":8454:8469  from != owner() */\n      0xffffffffffffffffffffffffffffffffffffffff\n      and\n      eq\n      iszero\n        /* \"contracts/Pool/Pool.sol\":8454:8486  from != owner() && to != owner() */\n      dup1\n      iszero\n      tag_298\n      jumpi\n      pop\n        /* \"contracts/Pool/Pool.sol\":8479:8486  owner() */\n      tag_299\n        /* \"contracts/Pool/Pool.sol\":8479:8484  owner */\n      tag_102\n        /* \"contracts/Pool/Pool.sol\":8479:8486  owner() */\n      jump\t// in\n    tag_299:\n        /* \"contracts/Pool/Pool.sol\":8473:8486  to != owner() */\n      0xffffffffffffffffffffffffffffffffffffffff\n      and\n        /* \"contracts/Pool/Pool.sol\":8473:8475  to */\n      dup3\n        /* \"contracts/Pool/Pool.sol\":8473:8486  to != owner() */\n      0xffffffffffffffffffffffffffffffffffffffff\n      and\n      eq\n      iszero\n        /* \"contracts/Pool/Pool.sol\":8454:8486  from != owner() && to != owner() */\n    tag_298:\n        /* \"contracts/Pool/Pool.sol\":8450:9521  if (from != owner() && to != owner()) {... */\n      iszero\n      tag_300\n      jumpi\n        /* \"contracts/Pool/Pool.sol\":8515:8543  uint256 contractTokenBalance */\n      0x00\n        /* \"contracts/Pool/Pool.sol\":8546:8570  balanceOf(address(this)) */\n      tag_301\n        /* \"contracts/Pool/Pool.sol\":8564:8568  this */\n      address\n        /* \"contracts/Pool/Pool.sol\":8546:8555  balanceOf */\n      tag_90\n        /* \"contracts/Pool/Pool.sol\":8546:8570  balanceOf(address(this)) */\n      jump\t// in\n    tag_301:\n        /* \"contracts/Pool/Pool.sol\":8515:8570  uint256 contractTokenBalance = balanceOf(address(this)) */\n      swap1\n      pop\n        /* \"contracts/Pool/Pool.sol\":8589:8595  inSwap */\n      0x12\n      0x14\n      swap1\n      sload\n      swap1\n      0x0100\n      exp\n      swap1\n      div\n      0xff\n      and\n        /* \"contracts/Pool/Pool.sol\":8588:8595  !inSwap */\n      iszero\n        /* \"contracts/Pool/Pool.sol\":8588:8620  !inSwap && from != uniswapV2Pair */\n      dup1\n      iszero\n      tag_302\n      jumpi\n      pop\n        /* \"contracts/Pool/Pool.sol\":8607:8620  uniswapV2Pair */\n      0x12\n      0x00\n      swap1\n      sload\n      swap1\n      0x0100\n      exp\n      swap1\n      div\n      0xffffffffffffffffffffffffffffffffffffffff\n      and\n        /* \"contracts/Pool/Pool.sol\":8599:8620  from != uniswapV2Pair */\n      0xffffffffffffffffffffffffffffffffffffffff\n      and\n        /* \"contracts/Pool/Pool.sol\":8599:8603  from */\n      dup5\n        /* \"contracts/Pool/Pool.sol\":8599:8620  from != uniswapV2Pair */\n      0xffffffffffffffffffffffffffffffffffffffff\n      and\n      eq\n      iszero\n        /* \"contracts/Pool/Pool.sol\":8588:8620  !inSwap && from != uniswapV2Pair */\n    tag_302:\n        /* \"contracts/Pool/Pool.sol\":8588:8635  !inSwap && from != uniswapV2Pair && swapEnabled */\n      dup1\n      iszero\n      tag_303\n      jumpi\n      pop\n        /* \"contracts/Pool/Pool.sol\":8624:8635  swapEnabled */\n      0x12\n      0x15\n      swap1\n      sload\n      swap1\n      0x0100\n      exp\n      swap1\n      div\n      0xff\n      and\n        /* \"contracts/Pool/Pool.sol\":8588:8635  !inSwap && from != uniswapV2Pair && swapEnabled */\n    tag_303:\n        /* \"contracts/Pool/Pool.sol\":8588:8663  !inSwap && from != uniswapV2Pair && swapEnabled && contractTokenBalance > 0 */\n      dup1\n      iszero\n      tag_304\n      jumpi\n      pop\n        /* \"contracts/Pool/Pool.sol\":8662:8663  0 */\n      0x00\n        /* \"contracts/Pool/Pool.sol\":8639:8659  contractTokenBalance */\n      dup2\n        /* \"contracts/Pool/Pool.sol\":8639:8663  contractTokenBalance > 0 */\n      gt\n        /* \"contracts/Pool/Pool.sol\":8588:8663  !inSwap && from != uniswapV2Pair && swapEnabled && contractTokenBalance > 0 */\n    tag_304:\n        /* \"contracts/Pool/Pool.sol\":8584:8924  if (!inSwap && from != uniswapV2Pair && swapEnabled && contractTokenBalance > 0) {... */\n      iszero\n      tag_305\n      jumpi\n        /* \"contracts/Pool/Pool.sol\":8683:8721  swapTokensForEth(contractTokenBalance) */\n      tag_306\n        /* \"contracts/Pool/Pool.sol\":8700:8720  contractTokenBalance */\n      dup2\n        /* \"contracts/Pool/Pool.sol\":8683:8699  swapTokensForEth */\n      tag_242\n        /* \"contracts/Pool/Pool.sol\":8683:8721  swapTokensForEth(contractTokenBalance) */\n      jump\t// in\n    tag_306:\n        /* \"contracts/Pool/Pool.sol\":8739:8765  uint256 contractETHBalance */\n      0x00\n        /* \"contracts/Pool/Pool.sol\":8768:8789  address(this).balance */\n      selfbalance\n        /* \"contracts/Pool/Pool.sol\":8739:8789  uint256 contractETHBalance = address(this).balance */\n      swap1\n      pop\n        /* \"contracts/Pool/Pool.sol\":8831:8832  0 */\n      0x00\n        /* \"contracts/Pool/Pool.sol\":8810:8828  contractETHBalance */\n      dup2\n        /* \"contracts/Pool/Pool.sol\":8810:8832  contractETHBalance > 0 */\n      gt\n        /* \"contracts/Pool/Pool.sol\":8807:8910  if(contractETHBalance > 0) {... */\n      iszero\n      tag_307\n      jumpi\n        /* \"contracts/Pool/Pool.sol\":8856:8891  sendETHToFee(address(this).balance) */\n      tag_308\n        /* \"contracts/Pool/Pool.sol\":8869:8890  address(this).balance */\n      selfbalance\n        /* \"contracts/Pool/Pool.sol\":8856:8868  sendETHToFee */\n      tag_184\n        /* \"contracts/Pool/Pool.sol\":8856:8891  sendETHToFee(address(this).balance) */\n      jump\t// in\n    tag_308:\n        /* \"contracts/Pool/Pool.sol\":8807:8910  if(contractETHBalance > 0) {... */\n    tag_307:\n        /* \"contracts/Pool/Pool.sol\":8665:8924  {... */\n      pop\n        /* \"contracts/Pool/Pool.sol\":8584:8924  if (!inSwap && from != uniswapV2Pair && swapEnabled && contractTokenBalance > 0) {... */\n    tag_305:\n        /* \"contracts/Pool/Pool.sol\":8961:8974  uniswapV2Pair */\n      0x12\n      0x00\n      swap1\n      sload\n      swap1\n      0x0100\n      exp\n      swap1\n      div\n      0xffffffffffffffffffffffffffffffffffffffff\n      and\n        /* \"contracts/Pool/Pool.sol\":8953:8974  from == uniswapV2Pair */\n      0xffffffffffffffffffffffffffffffffffffffff\n      and\n        /* \"contracts/Pool/Pool.sol\":8953:8957  from */\n      dup5\n        /* \"contracts/Pool/Pool.sol\":8953:8974  from == uniswapV2Pair */\n      0xffffffffffffffffffffffffffffffffffffffff\n      and\n      eq\n        /* \"contracts/Pool/Pool.sol\":8953:9008  from == uniswapV2Pair && to != address(uniswapV2Router) */\n      dup1\n      iszero\n      tag_309\n      jumpi\n      pop\n        /* \"contracts/Pool/Pool.sol\":8992:9007  uniswapV2Router */\n      0x10\n      0x00\n      swap1\n      sload\n      swap1\n      0x0100\n      exp\n      swap1\n      div\n      0xffffffffffffffffffffffffffffffffffffffff\n      and\n        /* \"contracts/Pool/Pool.sol\":8978:9008  to != address(uniswapV2Router) */\n      0xffffffffffffffffffffffffffffffffffffffff\n      and\n        /* \"contracts/Pool/Pool.sol\":8978:8980  to */\n      dup4\n        /* \"contracts/Pool/Pool.sol\":8978:9008  to != address(uniswapV2Router) */\n      0xffffffffffffffffffffffffffffffffffffffff\n      and\n      eq\n      iszero\n        /* \"contracts/Pool/Pool.sol\":8953:9008  from == uniswapV2Pair && to != address(uniswapV2Router) */\n    tag_309:\n        /* \"contracts/Pool/Pool.sol\":8950:9109  if(from == uniswapV2Pair && to != address(uniswapV2Router)) {... */\n      iszero\n      tag_310\n      jumpi\n        /* \"contracts/Pool/Pool.sol\":9040:9054  _redisFeeOnBuy */\n      sload(0x08)\n        /* \"contracts/Pool/Pool.sol\":9028:9037  _redisFee */\n      0x0c\n        /* \"contracts/Pool/Pool.sol\":9028:9054  _redisFee = _redisFeeOnBuy */\n      dup2\n      swap1\n      sstore\n      pop\n        /* \"contracts/Pool/Pool.sol\":9082:9094  _taxFeeOnBuy */\n      sload(0x09)\n        /* \"contracts/Pool/Pool.sol\":9072:9079  _taxFee */\n      0x0d\n        /* \"contracts/Pool/Pool.sol\":9072:9094  _taxFee = _taxFeeOnBuy */\n      dup2\n      swap1\n      sstore\n      pop\n        /* \"contracts/Pool/Pool.sol\":8950:9109  if(from == uniswapV2Pair && to != address(uniswapV2Router)) {... */\n    tag_310:\n        /* \"contracts/Pool/Pool.sol\":9137:9150  uniswapV2Pair */\n      0x12\n      0x00\n      swap1\n      sload\n      swap1\n      0x0100\n      exp\n      swap1\n      div\n      0xffffffffffffffffffffffffffffffffffffffff\n      and\n        /* \"contracts/Pool/Pool.sol\":9131:9150  to == uniswapV2Pair */\n      0xffffffffffffffffffffffffffffffffffffffff\n      and\n        /* \"contracts/Pool/Pool.sol\":9131:9133  to */\n      dup4\n        /* \"contracts/Pool/Pool.sol\":9131:9150  to == uniswapV2Pair */\n      0xffffffffffffffffffffffffffffffffffffffff\n      and\n      eq\n        /* \"contracts/Pool/Pool.sol\":9131:9186  to == uniswapV2Pair && from != address(uniswapV2Router) */\n      dup1\n      iszero\n      tag_311\n      jumpi\n      pop\n        /* \"contracts/Pool/Pool.sol\":9170:9185  uniswapV2Router */\n      0x10\n      0x00\n      swap1\n      sload\n      swap1\n      0x0100\n      exp\n      swap1\n      div\n      0xffffffffffffffffffffffffffffffffffffffff\n      and\n        /* \"contracts/Pool/Pool.sol\":9154:9186  from != address(uniswapV2Router) */\n      0xffffffffffffffffffffffffffffffffffffffff\n      and\n        /* \"contracts/Pool/Pool.sol\":9154:9158  from */\n      dup5\n        /* \"contracts/Pool/Pool.sol\":9154:9186  from != address(uniswapV2Router) */\n      0xffffffffffffffffffffffffffffffffffffffff\n      and\n      eq\n      iszero\n        /* \"contracts/Pool/Pool.sol\":9131:9186  to == uniswapV2Pair && from != address(uniswapV2Router) */\n    tag_311:\n        /* \"contracts/Pool/Pool.sol\":9127:9289  if (to == uniswapV2Pair && from != address(uniswapV2Router)) {... */\n      iszero\n      tag_312\n      jumpi\n        /* \"contracts/Pool/Pool.sol\":9218:9233  _redisFeeOnSell */\n      sload(0x0a)\n        /* \"contracts/Pool/Pool.sol\":9206:9215  _redisFee */\n      0x0c\n        /* \"contracts/Pool/Pool.sol\":9206:9233  _redisFee = _redisFeeOnSell */\n      dup2\n      swap1\n      sstore\n      pop\n        /* \"contracts/Pool/Pool.sol\":9261:9274  _taxFeeOnSell */\n      sload(0x0b)\n        /* \"contracts/Pool/Pool.sol\":9251:9258  _taxFee */\n      0x0d\n        /* \"contracts/Pool/Pool.sol\":9251:9274  _taxFee = _taxFeeOnSell */\n      dup2\n      swap1\n      sstore\n      pop\n        /* \"contracts/Pool/Pool.sol\":9127:9289  if (to == uniswapV2Pair && from != address(uniswapV2Router)) {... */\n    tag_312:\n        /* \"contracts/Pool/Pool.sol\":9320:9338  _isExcludedFromFee */\n      0x05\n        /* \"contracts/Pool/Pool.sol\":9320:9344  _isExcludedFromFee[from] */\n      0x00\n        /* \"contracts/Pool/Pool.sol\":9339:9343  from */\n      dup6\n        /* \"contracts/Pool/Pool.sol\":9320:9344  _isExcludedFromFee[from] */\n      0xffffffffffffffffffffffffffffffffffffffff\n      and\n      0xffffffffffffffffffffffffffffffffffffffff\n      and\n      dup2\n      mstore\n      0x20\n      add\n      swap1\n      dup2\n      mstore\n      0x20\n      add\n      0x00\n      keccak256\n      0x00\n      swap1\n      sload\n      swap1\n      0x0100\n      exp\n      swap1\n      div\n      0xff\n      and\n        /* \"contracts/Pool/Pool.sol\":9320:9370  _isExcludedFromFee[from] || _isExcludedFromFee[to] */\n      dup1\n      tag_313\n      jumpi\n      pop\n        /* \"contracts/Pool/Pool.sol\":9348:9366  _isExcludedFromFee */\n      0x05\n        /* \"contracts/Pool/Pool.sol\":9348:9370  _isExcludedFromFee[to] */\n      0x00\n        /* \"contracts/Pool/Pool.sol\":9367:9369  to */\n      dup5\n        /* \"contracts/Pool/Pool.sol\":9348:9370  _isExcludedFromFee[to] */\n      0xffffffffffffffffffffffffffffffffffffffff\n      and\n      0xffffffffffffffffffffffffffffffffffffffff\n      and\n      dup2\n      mstore\n      0x20\n      add\n      swap1\n      dup2\n      mstore\n      0x20\n      add\n      0x00\n      keccak256\n      0x00\n      swap1\n      sload\n      swap1\n      0x0100\n      exp\n      swap1\n      div\n      0xff\n      and\n        /* \"contracts/Pool/Pool.sol\":9320:9370  _isExcludedFromFee[from] || _isExcludedFromFee[to] */\n    tag_313:\n        /* \"contracts/Pool/Pool.sol\":9319:9421  (_isExcludedFromFee[from] || _isExcludedFromFee[to]) || (from != uniswapV2Pair && to != uniswapV2Pair) */\n      dup1\n      tag_314\n      jumpi\n      pop\n        /* \"contracts/Pool/Pool.sol\":9384:9397  uniswapV2Pair */\n      0x12\n      0x00\n      swap1\n      sload\n      swap1\n      0x0100\n      exp\n      swap1\n      div\n      0xffffffffffffffffffffffffffffffffffffffff\n      and\n        /* \"contracts/Pool/Pool.sol\":9376:9397  from != uniswapV2Pair */\n      0xffffffffffffffffffffffffffffffffffffffff\n      and\n        /* \"contracts/Pool/Pool.sol\":9376:9380  from */\n      dup5\n        /* \"contracts/Pool/Pool.sol\":9376:9397  from != uniswapV2Pair */\n      0xffffffffffffffffffffffffffffffffffffffff\n      and\n      eq\n      iszero\n        /* \"contracts/Pool/Pool.sol\":9376:9420  from != uniswapV2Pair && to != uniswapV2Pair */\n      dup1\n      iszero\n      tag_315\n      jumpi\n      pop\n        /* \"contracts/Pool/Pool.sol\":9407:9420  uniswapV2Pair */\n      0x12\n      0x00\n      swap1\n      sload\n      swap1\n      0x0100\n      exp\n      swap1\n      div\n      0xffffffffffffffffffffffffffffffffffffffff\n      and\n        /* \"contracts/Pool/Pool.sol\":9401:9420  to != uniswapV2Pair */\n      0xffffffffffffffffffffffffffffffffffffffff\n      and\n        /* \"contracts/Pool/Pool.sol\":9401:9403  to */\n      dup4\n        /* \"contracts/Pool/Pool.sol\":9401:9420  to != uniswapV2Pair */\n      0xffffffffffffffffffffffffffffffffffffffff\n      and\n      eq\n      iszero\n        /* \"contracts/Pool/Pool.sol\":9376:9420  from != uniswapV2Pair && to != uniswapV2Pair */\n    tag_315:\n        /* \"contracts/Pool/Pool.sol\":9319:9421  (_isExcludedFromFee[from] || _isExcludedFromFee[to]) || (from != uniswapV2Pair && to != uniswapV2Pair) */\n    tag_314:\n        /* \"contracts/Pool/Pool.sol\":9315:9498  if ((_isExcludedFromFee[from] || _isExcludedFromFee[to]) || (from != uniswapV2Pair && to != uniswapV2Pair)) {... */\n      iszero\n      tag_316\n      jumpi\n        /* \"contracts/Pool/Pool.sol\":9453:9454  0 */\n      0x00\n        /* \"contracts/Pool/Pool.sol\":9441:9450  _redisFee */\n      0x0c\n        /* \"contracts/Pool/Pool.sol\":9441:9454  _redisFee = 0 */\n      dup2\n      swap1\n      sstore\n      pop\n        /* \"contracts/Pool/Pool.sol\":9482:9483  0 */\n      0x00\n        /* \"contracts/Pool/Pool.sol\":9472:9479  _taxFee */\n      0x0d\n        /* \"contracts/Pool/Pool.sol\":9472:9483  _taxFee = 0 */\n      dup2\n      swap1\n      sstore\n      pop\n        /* \"contracts/Pool/Pool.sol\":9315:9498  if ((_isExcludedFromFee[from] || _isExcludedFromFee[to]) || (from != uniswapV2Pair && to != uniswapV2Pair)) {... */\n    tag_316:\n        /* \"contracts/Pool/Pool.sol\":8488:9521  {... */\n      pop\n        /* \"contracts/Pool/Pool.sol\":8450:9521  if (from != owner() && to != owner()) {... */\n    tag_300:\n        /* \"contracts/Pool/Pool.sol\":9531:9561  _tokenTransfer(from,to,amount) */\n      tag_317\n        /* \"contracts/Pool/Pool.sol\":9546:9550  from */\n      dup4\n        /* \"contracts/Pool/Pool.sol\":9551:9553  to */\n      dup4\n        /* \"contracts/Pool/Pool.sol\":9554:9560  amount */\n      dup4\n        /* \"contracts/Pool/Pool.sol\":9531:9545  _tokenTransfer */\n      tag_318\n        /* \"contracts/Pool/Pool.sol\":9531:9561  _tokenTransfer(from,to,amount) */\n      jump\t// in\n    tag_317:\n        /* \"contracts/Pool/Pool.sol\":8083:9568  function _transfer(address from, address to, uint256 amount) private {... */\n      pop\n      pop\n      pop\n      jump\t// out\n        /* \"contracts/Pool/Pool.sol\":2167:2353  function sub(uint256 a, uint256 b, string memory errorMessage) internal pure returns (uint256) {... */\n    tag_164:\n        /* \"contracts/Pool/Pool.sol\":2253:2260  uint256 */\n      0x00\n        /* \"contracts/Pool/Pool.sol\":2285:2286  a */\n      dup4\n        /* \"contracts/Pool/Pool.sol\":2280:2281  b */\n      dup4\n        /* \"contracts/Pool/Pool.sol\":2280:2286  b <= a */\n      gt\n      iszero\n        /* \"contracts/Pool/Pool.sol\":2288:2300  errorMessage */\n      dup3\n        /* \"contracts/Pool/Pool.sol\":2272:2301  require(b <= a, errorMessage) */\n      swap1\n      tag_320\n      jumpi\n      mload(0x40)\n      0x08c379a000000000000000000000000000000000000000000000000000000000\n      dup2\n      mstore\n      0x04\n      add\n      tag_321\n      swap2\n      swap1\n      tag_39\n      jump\t// in\n    tag_321:\n      mload(0x40)\n      dup1\n      swap2\n      sub\n      swap1\n      revert\n    tag_320:\n      pop\n        /* \"contracts/Pool/Pool.sol\":2311:2320  uint256 c */\n      0x00\n        /* \"contracts/Pool/Pool.sol\":2327:2328  b */\n      dup4\n        /* \"contracts/Pool/Pool.sol\":2323:2324  a */\n      dup6\n        /* \"contracts/Pool/Pool.sol\":2323:2328  a - b */\n      tag_322\n      swap2\n      swap1\n      tag_323\n      jump\t// in\n    tag_322:\n        /* \"contracts/Pool/Pool.sol\":2311:2328  uint256 c = a - b */\n      swap1\n      pop\n        /* \"contracts/Pool/Pool.sol\":2345:2346  c */\n      dup1\n        /* \"contracts/Pool/Pool.sol\":2338:2346  return c */\n      swap2\n      pop\n      pop\n        /* \"contracts/Pool/Pool.sol\":2167:2353  function sub(uint256 a, uint256 b, string memory errorMessage) internal pure returns (uint256) {... */\n      swap4\n      swap3\n      pop\n      pop\n      pop\n      jump\t// out\n        /* \"contracts/Pool/Pool.sol\":10115:10272  function sendETHToFee(uint256 amount) private {... */\n    tag_184:\n        /* \"contracts/Pool/Pool.sol\":10171:10190  _developmentAddress */\n      0x0e\n      0x00\n      swap1\n      sload\n      swap1\n      0x0100\n      exp\n      swap1\n      div\n      0xffffffffffffffffffffffffffffffffffffffff\n      and\n        /* \"contracts/Pool/Pool.sol\":10171:10199  _developmentAddress.transfer */\n      0xffffffffffffffffffffffffffffffffffffffff\n      and\n        /* \"contracts/Pool/Pool.sol\":10171:10214  _developmentAddress.transfer(amount.div(2)) */\n      0x08fc\n        /* \"contracts/Pool/Pool.sol\":10200:10213  amount.div(2) */\n      tag_325\n        /* \"contracts/Pool/Pool.sol\":10211:10212  2 */\n      0x02\n        /* \"contracts/Pool/Pool.sol\":10200:10206  amount */\n      dup5\n        /* \"contracts/Pool/Pool.sol\":10200:10210  amount.div */\n      tag_326\n      swap1\n        /* \"contracts/Pool/Pool.sol\":10200:10213  amount.div(2) */\n      swap2\n      swap1\n      0xffffffff\n      and\n      jump\t// in\n    tag_325:\n        /* \"contracts/Pool/Pool.sol\":10171:10214  _developmentAddress.transfer(amount.div(2)) */\n      swap1\n      dup2\n      iszero\n      mul\n      swap1\n      mload(0x40)\n      0x00\n      mload(0x40)\n      dup1\n      dup4\n      sub\n      dup2\n      dup6\n      dup9\n      dup9\n      call\n      swap4\n      pop\n      pop\n      pop\n      pop\n      iszero\n      dup1\n      iszero\n      tag_328\n      jumpi\n      returndatasize\n      0x00\n      dup1\n      returndatacopy\n      revert(0x00, returndatasize)\n    tag_328:\n      pop\n        /* \"contracts/Pool/Pool.sol\":10224:10241  _marketingAddress */\n      0x0f\n      0x00\n      swap1\n      sload\n      swap1\n      0x0100\n      exp\n      swap1\n      div\n      0xffffffffffffffffffffffffffffffffffffffff\n      and\n        /* \"contracts/Pool/Pool.sol\":10224:10250  _marketingAddress.transfer */\n      0xffffffffffffffffffffffffffffffffffffffff\n      and\n        /* \"contracts/Pool/Pool.sol\":10224:10265  _marketingAddress.transfer(amount.div(2)) */\n      0x08fc\n        /* \"contracts/Pool/Pool.sol\":10251:10264  amount.div(2) */\n      tag_329\n        /* \"contracts/Pool/Pool.sol\":10262:10263  2 */\n      0x02\n        /* \"contracts/Pool/Pool.sol\":10251:10257  amount */\n      dup5\n        /* \"contracts/Pool/Pool.sol\":10251:10261  amount.div */\n      tag_326\n      swap1\n        /* \"contracts/Pool/Pool.sol\":10251:10264  amount.div(2) */\n      swap2\n      swap1\n      0xffffffff\n      and\n      jump\t// in\n    tag_329:\n        /* \"contracts/Pool/Pool.sol\":10224:10265  _marketingAddress.transfer(amount.div(2)) */\n      swap1\n      dup2\n      iszero\n      mul\n      swap1\n      mload(0x40)\n      0x00\n      mload(0x40)\n      dup1\n      dup4\n      sub\n      dup2\n      dup6\n      dup9\n      dup9\n      call\n      swap4\n      pop\n      pop\n      pop\n      pop\n      iszero\n      dup1\n      iszero\n      tag_331\n      jumpi\n      returndatasize\n      0x00\n      dup1\n      returndatacopy\n      revert(0x00, returndatasize)\n    tag_331:\n      pop\n        /* \"contracts/Pool/Pool.sol\":10115:10272  function sendETHToFee(uint256 amount) private {... */\n      pop\n      jump\t// out\n        /* \"contracts/Pool/Pool.sol\":7491:7741  function tokenFromReflection(uint256 rAmount) private view returns(uint256) {... */\n    tag_187:\n        /* \"contracts/Pool/Pool.sol\":7558:7565  uint256 */\n      0x00\n        /* \"contracts/Pool/Pool.sol\":7596:7603  _rTotal */\n      sload(0x06)\n        /* \"contracts/Pool/Pool.sol\":7585:7592  rAmount */\n      dup3\n        /* \"contracts/Pool/Pool.sol\":7585:7603  rAmount <= _rTotal */\n      gt\n      iszero\n        /* \"contracts/Pool/Pool.sol\":7577:7650  require(rAmount <= _rTotal, \"Amount must be less than total reflections\") */\n      tag_333\n      jumpi\n      mload(0x40)\n      0x08c379a000000000000000000000000000000000000000000000000000000000\n      dup2\n      mstore\n      0x04\n      add\n      tag_334\n      swap1\n      tag_335\n      jump\t// in\n    tag_334:\n      mload(0x40)\n      dup1\n      swap2\n      sub\n      swap1\n      revert\n    tag_333:\n        /* \"contracts/Pool/Pool.sol\":7660:7679  uint256 currentRate */\n      0x00\n        /* \"contracts/Pool/Pool.sol\":7683:7693  _getRate() */\n      tag_336\n        /* \"contracts/Pool/Pool.sol\":7683:7691  _getRate */\n      tag_337\n        /* \"contracts/Pool/Pool.sol\":7683:7693  _getRate() */\n      jump\t// in\n    tag_336:\n        /* \"contracts/Pool/Pool.sol\":7660:7693  uint256 currentRate =  _getRate() */\n      swap1\n      pop\n        /* \"contracts/Pool/Pool.sol\":7710:7734  rAmount.div(currentRate) */\n      tag_338\n        /* \"contracts/Pool/Pool.sol\":7722:7733  currentRate */\n      dup2\n        /* \"contracts/Pool/Pool.sol\":7710:7717  rAmount */\n      dup5\n        /* \"contracts/Pool/Pool.sol\":7710:7721  rAmount.div */\n      tag_326\n      swap1\n        /* \"contracts/Pool/Pool.sol\":7710:7734  rAmount.div(currentRate) */\n      swap2\n      swap1\n      0xffffffff\n      and\n      jump\t// in\n    tag_338:\n        /* \"contracts/Pool/Pool.sol\":7703:7734  return rAmount.div(currentRate) */\n      swap2\n      pop\n      pop\n        /* \"contracts/Pool/Pool.sol\":7491:7741  function tokenFromReflection(uint256 rAmount) private view returns(uint256) {... */\n      swap2\n      swap1\n      pop\n      jump\t// out\n        /* \"contracts/Pool/Pool.sol\":9630:10101  function swapTokensForEth(uint256 tokenAmount) private lockTheSwap {... */\n    tag_242:\n        /* \"contracts/Pool/Pool.sol\":5140:5144  true */\n      0x01\n        /* \"contracts/Pool/Pool.sol\":5131:5137  inSwap */\n      0x12\n      0x14\n        /* \"contracts/Pool/Pool.sol\":5131:5144  inSwap = true */\n      0x0100\n      exp\n      dup2\n      sload\n      dup2\n      0xff\n      mul\n      not\n      and\n      swap1\n      dup4\n      iszero\n      iszero\n      mul\n      or\n      swap1\n      sstore\n      pop\n        /* \"contracts/Pool/Pool.sol\":9707:9728  address[] memory path */\n      0x00\n        /* \"contracts/Pool/Pool.sol\":9745:9746  2 */\n      0x02\n        /* \"contracts/Pool/Pool.sol\":9731:9747  new address[](2) */\n      0xffffffffffffffff\n      dup2\n      gt\n      iszero\n      tag_341\n      jumpi\n      tag_342\n      tag_343\n      jump\t// in\n    tag_342:\n    tag_341:\n      mload(0x40)\n      swap1\n      dup1\n      dup3\n      mstore\n      dup1\n      0x20\n      mul\n      0x20\n      add\n      dup3\n      add\n      0x40\n      mstore\n      dup1\n      iszero\n      tag_344\n      jumpi\n      dup2\n      0x20\n      add\n      0x20\n      dup3\n      mul\n      dup1\n      calldatasize\n      dup4\n      calldatacopy\n      dup1\n      dup3\n      add\n      swap2\n      pop\n      pop\n      swap1\n      pop\n    tag_344:\n      pop\n        /* \"contracts/Pool/Pool.sol\":9707:9747  address[] memory path = new address[](2) */\n      swap1\n      pop\n        /* \"contracts/Pool/Pool.sol\":9775:9779  this */\n      address\n        /* \"contracts/Pool/Pool.sol\":9757:9761  path */\n      dup2\n        /* \"contracts/Pool/Pool.sol\":9762:9763  0 */\n      0x00\n        /* \"contracts/Pool/Pool.sol\":9757:9764  path[0] */\n      dup2\n      mload\n      dup2\n      lt\n      tag_345\n      jumpi\n      tag_346\n      tag_253\n      jump\t// in\n    tag_346:\n    tag_345:\n      0x20\n      mul\n      0x20\n      add\n      add\n        /* \"contracts/Pool/Pool.sol\":9757:9780  path[0] = address(this) */\n      swap1\n      0xffffffffffffffffffffffffffffffffffffffff\n      and\n      swap1\n      dup2\n      0xffffffffffffffffffffffffffffffffffffffff\n      and\n      dup2\n      mstore\n      pop\n      pop\n        /* \"contracts/Pool/Pool.sol\":9800:9815  uniswapV2Router */\n      0x10\n      0x00\n      swap1\n      sload\n      swap1\n      0x0100\n      exp\n      swap1\n      div\n      0xffffffffffffffffffffffffffffffffffffffff\n      and\n        /* \"contracts/Pool/Pool.sol\":9800:9820  uniswapV2Router.WETH */\n      0xffffffffffffffffffffffffffffffffffffffff\n      and\n      0xad5c4648\n        /* \"contracts/Pool/Pool.sol\":9800:9822  uniswapV2Router.WETH() */\n      mload(0x40)\n      dup2\n      0xffffffff\n      and\n      0xe0\n      shl\n      dup2\n      mstore\n      0x04\n      add\n      0x20\n      mload(0x40)\n      dup1\n      dup4\n      sub\n      dup2\n      dup7\n      gas\n      staticcall\n      iszero\n      dup1\n      iszero\n      tag_348\n      jumpi\n      returndatasize\n      0x00\n      dup1\n      returndatacopy\n      revert(0x00, returndatasize)\n    tag_348:\n      pop\n      pop\n      pop\n      pop\n      mload(0x40)\n      returndatasize\n      not(0x1f)\n      0x1f\n      dup3\n      add\n      and\n      dup3\n      add\n      dup1\n      0x40\n      mstore\n      pop\n      dup2\n      add\n      swap1\n      tag_349\n      swap2\n      swap1\n      tag_350\n      jump\t// in\n    tag_349:\n        /* \"contracts/Pool/Pool.sol\":9790:9794  path */\n      dup2\n        /* \"contracts/Pool/Pool.sol\":9795:9796  1 */\n      0x01\n        /* \"contracts/Pool/Pool.sol\":9790:9797  path[1] */\n      dup2\n      mload\n      dup2\n      lt\n      tag_351\n      jumpi\n      tag_352\n      tag_253\n      jump\t// in\n    tag_352:\n    tag_351:\n      0x20\n      mul\n      0x20\n      add\n      add\n        /* \"contracts/Pool/Pool.sol\":9790:9822  path[1] = uniswapV2Router.WETH() */\n      swap1\n      0xffffffffffffffffffffffffffffffffffffffff\n      and\n      swap1\n      dup2\n      0xffffffffffffffffffffffffffffffffffffffff\n      and\n      dup2\n      mstore\n      pop\n      pop\n        /* \"contracts/Pool/Pool.sol\":9832:9894  _approve(address(this), address(uniswapV2Router), tokenAmount) */\n      tag_353\n        /* \"contracts/Pool/Pool.sol\":9849:9853  this */\n      address\n        /* \"contracts/Pool/Pool.sol\":9864:9879  uniswapV2Router */\n      0x10\n      0x00\n      swap1\n      sload\n      swap1\n      0x0100\n      exp\n      swap1\n      div\n      0xffffffffffffffffffffffffffffffffffffffff\n      and\n        /* \"contracts/Pool/Pool.sol\":9882:9893  tokenAmount */\n      dup5\n        /* \"contracts/Pool/Pool.sol\":9832:9840  _approve */\n      tag_155\n        /* \"contracts/Pool/Pool.sol\":9832:9894  _approve(address(this), address(uniswapV2Router), tokenAmount) */\n      jump\t// in\n    tag_353:\n        /* \"contracts/Pool/Pool.sol\":9904:9919  uniswapV2Router */\n      0x10\n      0x00\n      swap1\n      sload\n      swap1\n      0x0100\n      exp\n      swap1\n      div\n      0xffffffffffffffffffffffffffffffffffffffff\n      and\n        /* \"contracts/Pool/Pool.sol\":9904:9970  uniswapV2Router.swapExactTokensForETHSupportingFeeOnTransferTokens */\n      0xffffffffffffffffffffffffffffffffffffffff\n      and\n      0x791ac947\n        /* \"contracts/Pool/Pool.sol\":9984:9995  tokenAmount */\n      dup4\n        /* \"contracts/Pool/Pool.sol\":10009:10010  0 */\n      0x00\n        /* \"contracts/Pool/Pool.sol\":10024:10028  path */\n      dup5\n        /* \"contracts/Pool/Pool.sol\":10050:10054  this */\n      address\n        /* \"contracts/Pool/Pool.sol\":10069:10084  block.timestamp */\n      timestamp\n        /* \"contracts/Pool/Pool.sol\":9904:10094  uniswapV2Router.swapExactTokensForETHSupportingFeeOnTransferTokens(... */\n      mload(0x40)\n      dup7\n      0xffffffff\n      and\n      0xe0\n      shl\n      dup2\n      mstore\n      0x04\n      add\n      tag_354\n      swap6\n      swap5\n      swap4\n      swap3\n      swap2\n      swap1\n      tag_355\n      jump\t// in\n    tag_354:\n      0x00\n      mload(0x40)\n      dup1\n      dup4\n      sub\n      dup2\n      0x00\n      dup8\n      dup1\n      extcodesize\n      iszero\n      dup1\n      iszero\n      tag_356\n      jumpi\n      0x00\n      dup1\n      revert\n    tag_356:\n      pop\n      gas\n      call\n      iszero\n      dup1\n      iszero\n      tag_358\n      jumpi\n      returndatasize\n      0x00\n      dup1\n      returndatacopy\n      revert(0x00, returndatasize)\n    tag_358:\n      pop\n      pop\n      pop\n      pop\n        /* \"contracts/Pool/Pool.sol\":9697:10101  {... */\n      pop\n        /* \"contracts/Pool/Pool.sol\":5174:5179  false */\n      0x00\n        /* \"contracts/Pool/Pool.sol\":5165:5171  inSwap */\n      0x12\n      0x14\n        /* \"contracts/Pool/Pool.sol\":5165:5179  inSwap = false */\n      0x0100\n      exp\n      dup2\n      sload\n      dup2\n      0xff\n      mul\n      not\n      and\n      swap1\n      dup4\n      iszero\n      iszero\n      mul\n      or\n      swap1\n      sstore\n      pop\n        /* \"contracts/Pool/Pool.sol\":9630:10101  function swapTokensForEth(uint256 tokenAmount) private lockTheSwap {... */\n      pop\n      jump\t// out\n        /* \"contracts/Pool/Pool.sol\":10282:10426  function _tokenTransfer(address sender, address recipient, uint256 amount) private {... */\n    tag_318:\n        /* \"contracts/Pool/Pool.sol\":10375:10419  _transferStandard(sender, recipient, amount) */\n      tag_360\n        /* \"contracts/Pool/Pool.sol\":10393:10399  sender */\n      dup4\n        /* \"contracts/Pool/Pool.sol\":10401:10410  recipient */\n      dup4\n        /* \"contracts/Pool/Pool.sol\":10412:10418  amount */\n      dup4\n        /* \"contracts/Pool/Pool.sol\":10375:10392  _transferStandard */\n      tag_361\n        /* \"contracts/Pool/Pool.sol\":10375:10419  _transferStandard(sender, recipient, amount) */\n      jump\t// in\n    tag_360:\n        /* \"contracts/Pool/Pool.sol\":10282:10426  function _tokenTransfer(address sender, address recipient, uint256 amount) private {... */\n      pop\n      pop\n      pop\n      jump\t// out\n        /* \"contracts/Pool/Pool.sol\":2604:2734  function div(uint256 a, uint256 b) internal pure returns (uint256) {... */\n    tag_326:\n        /* \"contracts/Pool/Pool.sol\":2662:2669  uint256 */\n      0x00\n        /* \"contracts/Pool/Pool.sol\":2688:2727  div(a, b, \"SafeMath: division by zero\") */\n      tag_363\n        /* \"contracts/Pool/Pool.sol\":2692:2693  a */\n      dup4\n        /* \"contracts/Pool/Pool.sol\":2695:2696  b */\n      dup4\n        /* \"contracts/Pool/Pool.sol\":2688:2727  div(a, b, \"SafeMath: division by zero\") */\n      mload(0x40)\n      dup1\n      0x40\n      add\n      0x40\n      mstore\n      dup1\n      0x1a\n      dup2\n      mstore\n      0x20\n      add\n      0x536166654d6174683a206469766973696f6e206279207a65726f000000000000\n      dup2\n      mstore\n      pop\n        /* \"contracts/Pool/Pool.sol\":2688:2691  div */\n      tag_364\n        /* \"contracts/Pool/Pool.sol\":2688:2727  div(a, b, \"SafeMath: division by zero\") */\n      jump\t// in\n    tag_363:\n        /* \"contracts/Pool/Pool.sol\":2681:2727  return div(a, b, \"SafeMath: division by zero\") */\n      swap1\n      pop\n        /* \"contracts/Pool/Pool.sol\":2604:2734  function div(uint256 a, uint256 b) internal pure returns (uint256) {... */\n      swap3\n      swap2\n      pop\n      pop\n      jump\t// out\n        /* \"contracts/Pool/Pool.sol\":13474:13634  function _getRate() private view returns(uint256) {... */\n    tag_337:\n        /* \"contracts/Pool/Pool.sol\":13515:13522  uint256 */\n      0x00\n        /* \"contracts/Pool/Pool.sol\":13535:13550  uint256 rSupply */\n      dup1\n        /* \"contracts/Pool/Pool.sol\":13552:13567  uint256 tSupply */\n      0x00\n        /* \"contracts/Pool/Pool.sol\":13571:13590  _getCurrentSupply() */\n      tag_366\n        /* \"contracts/Pool/Pool.sol\":13571:13588  _getCurrentSupply */\n      tag_367\n        /* \"contracts/Pool/Pool.sol\":13571:13590  _getCurrentSupply() */\n      jump\t// in\n    tag_366:\n        /* \"contracts/Pool/Pool.sol\":13534:13590  (uint256 rSupply, uint256 tSupply) = _getCurrentSupply() */\n      swap2\n      pop\n      swap2\n      pop\n        /* \"contracts/Pool/Pool.sol\":13607:13627  rSupply.div(tSupply) */\n      tag_368\n        /* \"contracts/Pool/Pool.sol\":13619:13626  tSupply */\n      dup2\n        /* \"contracts/Pool/Pool.sol\":13607:13614  rSupply */\n      dup4\n        /* \"contracts/Pool/Pool.sol\":13607:13618  rSupply.div */\n      tag_326\n      swap1\n        /* \"contracts/Pool/Pool.sol\":13607:13627  rSupply.div(tSupply) */\n      swap2\n      swap1\n      0xffffffff\n      and\n      jump\t// in\n    tag_368:\n        /* \"contracts/Pool/Pool.sol\":13600:13627  return rSupply.div(tSupply) */\n      swap3\n      pop\n      pop\n      pop\n        /* \"contracts/Pool/Pool.sol\":13474:13634  function _getRate() private view returns(uint256) {... */\n      swap1\n      jump\t// out\n        /* \"contracts/Pool/Pool.sol\":11356:11837  function _transferStandard(address sender, address recipient, uint256 tAmount) private {... */\n    tag_361:\n        /* \"contracts/Pool/Pool.sol\":11454:11469  uint256 rAmount */\n      0x00\n        /* \"contracts/Pool/Pool.sol\":11471:11494  uint256 rTransferAmount */\n      dup1\n        /* \"contracts/Pool/Pool.sol\":11496:11508  uint256 rFee */\n      0x00\n        /* \"contracts/Pool/Pool.sol\":11510:11533  uint256 tTransferAmount */\n      dup1\n        /* \"contracts/Pool/Pool.sol\":11535:11547  uint256 tFee */\n      0x00\n        /* \"contracts/Pool/Pool.sol\":11549:11562  uint256 tTeam */\n      dup1\n        /* \"contracts/Pool/Pool.sol\":11566:11585  _getValues(tAmount) */\n      tag_370\n        /* \"contracts/Pool/Pool.sol\":11577:11584  tAmount */\n      dup8\n        /* \"contracts/Pool/Pool.sol\":11566:11576  _getValues */\n      tag_371\n        /* \"contracts/Pool/Pool.sol\":11566:11585  _getValues(tAmount) */\n      jump\t// in\n    tag_370:\n        /* \"contracts/Pool/Pool.sol\":11453:11585  (uint256 rAmount, uint256 rTransferAmount, uint256 rFee, uint256 tTransferAmount, uint256 tFee, uint256 tTeam) = _getValues(tAmount) */\n      swap6\n      pop\n      swap6\n      pop\n      swap6\n      pop\n      swap6\n      pop\n      swap6\n      pop\n      swap6\n      pop\n        /* \"contracts/Pool/Pool.sol\":11613:11641  _rOwned[sender].sub(rAmount) */\n      tag_372\n        /* \"contracts/Pool/Pool.sol\":11633:11640  rAmount */\n      dup7\n        /* \"contracts/Pool/Pool.sol\":11613:11620  _rOwned */\n      0x02\n        /* \"contracts/Pool/Pool.sol\":11613:11628  _rOwned[sender] */\n      0x00\n        /* \"contracts/Pool/Pool.sol\":11621:11627  sender */\n      dup13\n        /* \"contracts/Pool/Pool.sol\":11613:11628  _rOwned[sender] */\n      0xffffffffffffffffffffffffffffffffffffffff\n      and\n      0xffffffffffffffffffffffffffffffffffffffff\n      and\n      dup2\n      mstore\n      0x20\n      add\n      swap1\n      dup2\n      mstore\n      0x20\n      add\n      0x00\n      keccak256\n      sload\n        /* \"contracts/Pool/Pool.sol\":11613:11632  _rOwned[sender].sub */\n      tag_373\n      swap1\n        /* \"contracts/Pool/Pool.sol\":11613:11641  _rOwned[sender].sub(rAmount) */\n      swap2\n      swap1\n      0xffffffff\n      and\n      jump\t// in\n    tag_372:\n        /* \"contracts/Pool/Pool.sol\":11595:11602  _rOwned */\n      0x02\n        /* \"contracts/Pool/Pool.sol\":11595:11610  _rOwned[sender] */\n      0x00\n        /* \"contracts/Pool/Pool.sol\":11603:11609  sender */\n      dup12\n        /* \"contracts/Pool/Pool.sol\":11595:11610  _rOwned[sender] */\n      0xffffffffffffffffffffffffffffffffffffffff\n      and\n      0xffffffffffffffffffffffffffffffffffffffff\n      and\n      dup2\n      mstore\n      0x20\n      add\n      swap1\n      dup2\n      mstore\n      0x20\n      add\n      0x00\n      keccak256\n        /* \"contracts/Pool/Pool.sol\":11595:11641  _rOwned[sender] = _rOwned[sender].sub(rAmount) */\n      dup2\n      swap1\n      sstore\n      pop\n        /* \"contracts/Pool/Pool.sol\":11672:11711  _rOwned[recipient].add(rTransferAmount) */\n      tag_374\n        /* \"contracts/Pool/Pool.sol\":11695:11710  rTransferAmount */\n      dup6\n        /* \"contracts/Pool/Pool.sol\":11672:11679  _rOwned */\n      0x02\n        /* \"contracts/Pool/Pool.sol\":11672:11690  _rOwned[recipient] */\n      0x00\n        /* \"contracts/Pool/Pool.sol\":11680:11689  recipient */\n      dup12\n        /* \"contracts/Pool/Pool.sol\":11672:11690  _rOwned[recipient] */\n      0xffffffffffffffffffffffffffffffffffffffff\n      and\n      0xffffffffffffffffffffffffffffffffffffffff\n      and\n      dup2\n      mstore\n      0x20\n      add\n      swap1\n      dup2\n      mstore\n      0x20\n      add\n      0x00\n      keccak256\n      sload\n        /* \"contracts/Pool/Pool.sol\":11672:11694  _rOwned[recipient].add */\n      tag_375\n      swap1\n        /* \"contracts/Pool/Pool.sol\":11672:11711  _rOwned[recipient].add(rTransferAmount) */\n      swap2\n      swap1\n      0xffffffff\n      and\n      jump\t// in\n    tag_374:\n        /* \"contracts/Pool/Pool.sol\":11651:11658  _rOwned */\n      0x02\n        /* \"contracts/Pool/Pool.sol\":11651:11669  _rOwned[recipient] */\n      0x00\n        /* \"contracts/Pool/Pool.sol\":11659:11668  recipient */\n      dup11\n        /* \"contracts/Pool/Pool.sol\":11651:11669  _rOwned[recipient] */\n      0xffffffffffffffffffffffffffffffffffffffff\n      and\n      0xffffffffffffffffffffffffffffffffffffffff\n      and\n      dup2\n      mstore\n      0x20\n      add\n      swap1\n      dup2\n      mstore\n      0x20\n      add\n      0x00\n      keccak256\n        /* \"contracts/Pool/Pool.sol\":11651:11711  _rOwned[recipient] = _rOwned[recipient].add(rTransferAmount) */\n      dup2\n      swap1\n      sstore\n      pop\n        /* \"contracts/Pool/Pool.sol\":11722:11738  _takeTeam(tTeam) */\n      tag_376\n        /* \"contracts/Pool/Pool.sol\":11732:11737  tTeam */\n      dup2\n        /* \"contracts/Pool/Pool.sol\":11722:11731  _takeTeam */\n      tag_377\n        /* \"contracts/Pool/Pool.sol\":11722:11738  _takeTeam(tTeam) */\n      jump\t// in\n    tag_376:\n        /* \"contracts/Pool/Pool.sol\":11748:11771  _reflectFee(rFee, tFee) */\n      tag_378\n        /* \"contracts/Pool/Pool.sol\":11760:11764  rFee */\n      dup5\n        /* \"contracts/Pool/Pool.sol\":11766:11770  tFee */\n      dup4\n        /* \"contracts/Pool/Pool.sol\":11748:11759  _reflectFee */\n      tag_379\n        /* \"contracts/Pool/Pool.sol\":11748:11771  _reflectFee(rFee, tFee) */\n      jump\t// in\n    tag_378:\n        /* \"contracts/Pool/Pool.sol\":11803:11812  recipient */\n      dup8\n        /* \"contracts/Pool/Pool.sol\":11786:11830  Transfer(sender, recipient, tTransferAmount) */\n      0xffffffffffffffffffffffffffffffffffffffff\n      and\n        /* \"contracts/Pool/Pool.sol\":11795:11801  sender */\n      dup10\n        /* \"contracts/Pool/Pool.sol\":11786:11830  Transfer(sender, recipient, tTransferAmount) */\n      0xffffffffffffffffffffffffffffffffffffffff\n      and\n      0xddf252ad1be2c89b69c2b068fc378daa952ba7f163c4a11628f55a4df523b3ef\n        /* \"contracts/Pool/Pool.sol\":11814:11829  tTransferAmount */\n      dup6\n        /* \"contracts/Pool/Pool.sol\":11786:11830  Transfer(sender, recipient, tTransferAmount) */\n      mload(0x40)\n      tag_380\n      swap2\n      swap1\n      tag_56\n      jump\t// in\n    tag_380:\n      mload(0x40)\n      dup1\n      swap2\n      sub\n      swap1\n      log3\n        /* \"contracts/Pool/Pool.sol\":11443:11837  {... */\n      pop\n      pop\n      pop\n      pop\n      pop\n      pop\n        /* \"contracts/Pool/Pool.sol\":11356:11837  function _transferStandard(address sender, address recipient, uint256 tAmount) private {... */\n      pop\n      pop\n      pop\n      jump\t// out\n        /* \"contracts/Pool/Pool.sol\":2740:2925  function div(uint256 a, uint256 b, string memory errorMessage) internal pure returns (uint256) {... */\n    tag_364:\n        /* \"contracts/Pool/Pool.sol\":2826:2833  uint256 */\n      0x00\n        /* \"contracts/Pool/Pool.sol\":2857:2858  0 */\n      dup1\n        /* \"contracts/Pool/Pool.sol\":2853:2854  b */\n      dup4\n        /* \"contracts/Pool/Pool.sol\":2853:2858  b > 0 */\n      gt\n        /* \"contracts/Pool/Pool.sol\":2860:2872  errorMessage */\n      dup3\n        /* \"contracts/Pool/Pool.sol\":2845:2873  require(b > 0, errorMessage) */\n      swap1\n      tag_382\n      jumpi\n      mload(0x40)\n      0x08c379a000000000000000000000000000000000000000000000000000000000\n      dup2\n      mstore\n      0x04\n      add\n      tag_383\n      swap2\n      swap1\n      tag_39\n      jump\t// in\n    tag_383:\n      mload(0x40)\n      dup1\n      swap2\n      sub\n      swap1\n      revert\n    tag_382:\n      pop\n        /* \"contracts/Pool/Pool.sol\":2883:2892  uint256 c */\n      0x00\n        /* \"contracts/Pool/Pool.sol\":2899:2900  b */\n      dup4\n        /* \"contracts/Pool/Pool.sol\":2895:2896  a */\n      dup6\n        /* \"contracts/Pool/Pool.sol\":2895:2900  a / b */\n      tag_384\n      swap2\n      swap1\n      tag_385\n      jump\t// in\n    tag_384:\n        /* \"contracts/Pool/Pool.sol\":2883:2900  uint256 c = a / b */\n      swap1\n      pop\n        /* \"contracts/Pool/Pool.sol\":2917:2918  c */\n      dup1\n        /* \"contracts/Pool/Pool.sol\":2910:2918  return c */\n      swap2\n      pop\n      pop\n        /* \"contracts/Pool/Pool.sol\":2740:2925  function div(uint256 a, uint256 b, string memory errorMessage) internal pure returns (uint256) {... */\n      swap4\n      swap3\n      pop\n      pop\n      pop\n      jump\t// out\n        /* \"contracts/Pool/Pool.sol\":13640:13897  function _getCurrentSupply() private view returns(uint256, uint256) {... */\n    tag_367:\n        /* \"contracts/Pool/Pool.sol\":13690:13697  uint256 */\n      0x00\n        /* \"contracts/Pool/Pool.sol\":13699:13706  uint256 */\n      dup1\n        /* \"contracts/Pool/Pool.sol\":13718:13733  uint256 rSupply */\n      0x00\n        /* \"contracts/Pool/Pool.sol\":13736:13743  _rTotal */\n      sload(0x06)\n        /* \"contracts/Pool/Pool.sol\":13718:13743  uint256 rSupply = _rTotal */\n      swap1\n      pop\n        /* \"contracts/Pool/Pool.sol\":13753:13768  uint256 tSupply */\n      0x00\n        /* \"contracts/Pool/Pool.sol\":4200:4213  1*10**9*10**9 */\n      0x0de0b6b3a7640000\n        /* \"contracts/Pool/Pool.sol\":13753:13778  uint256 tSupply = _tTotal */\n      swap1\n      pop\n        /* \"contracts/Pool/Pool.sol\":13808:13828  _rTotal.div(_tTotal) */\n      tag_387\n        /* \"contracts/Pool/Pool.sol\":4200:4213  1*10**9*10**9 */\n      0x0de0b6b3a7640000\n        /* \"contracts/Pool/Pool.sol\":13808:13815  _rTotal */\n      sload(0x06)\n        /* \"contracts/Pool/Pool.sol\":13808:13819  _rTotal.div */\n      tag_326\n      swap1\n        /* \"contracts/Pool/Pool.sol\":13808:13828  _rTotal.div(_tTotal) */\n      swap2\n      swap1\n      0xffffffff\n      and\n      jump\t// in\n    tag_387:\n        /* \"contracts/Pool/Pool.sol\":13798:13805  rSupply */\n      dup3\n        /* \"contracts/Pool/Pool.sol\":13798:13828  rSupply < _rTotal.div(_tTotal) */\n      lt\n        /* \"contracts/Pool/Pool.sol\":13794:13855  if (rSupply < _rTotal.div(_tTotal)) return (_rTotal, _tTotal) */\n      iszero\n      tag_388\n      jumpi\n        /* \"contracts/Pool/Pool.sol\":13838:13845  _rTotal */\n      sload(0x06)\n        /* \"contracts/Pool/Pool.sol\":4200:4213  1*10**9*10**9 */\n      0x0de0b6b3a7640000\n        /* \"contracts/Pool/Pool.sol\":13830:13855  return (_rTotal, _tTotal) */\n      swap4\n      pop\n      swap4\n      pop\n      pop\n      pop\n      jump(tag_386)\n        /* \"contracts/Pool/Pool.sol\":13794:13855  if (rSupply < _rTotal.div(_tTotal)) return (_rTotal, _tTotal) */\n    tag_388:\n        /* \"contracts/Pool/Pool.sol\":13873:13880  rSupply */\n      dup2\n        /* \"contracts/Pool/Pool.sol\":13882:13889  tSupply */\n      dup2\n        /* \"contracts/Pool/Pool.sol\":13865:13890  return (rSupply, tSupply) */\n      swap4\n      pop\n      swap4\n      pop\n      pop\n      pop\n        /* \"contracts/Pool/Pool.sol\":13640:13897  function _getCurrentSupply() private view returns(uint256, uint256) {... */\n    tag_386:\n      swap1\n      swap2\n      jump\t// out\n        /* \"contracts/Pool/Pool.sol\":12246:12710  function _getValues(uint256 tAmount) private view returns (uint256, uint256, uint256, uint256, uint256, uint256) {... */\n    tag_371:\n        /* \"contracts/Pool/Pool.sol\":12305:12312  uint256 */\n      0x00\n        /* \"contracts/Pool/Pool.sol\":12314:12321  uint256 */\n      dup1\n        /* \"contracts/Pool/Pool.sol\":12323:12330  uint256 */\n      0x00\n        /* \"contracts/Pool/Pool.sol\":12332:12339  uint256 */\n      dup1\n        /* \"contracts/Pool/Pool.sol\":12341:12348  uint256 */\n      0x00\n        /* \"contracts/Pool/Pool.sol\":12350:12357  uint256 */\n      dup1\n        /* \"contracts/Pool/Pool.sol\":12370:12393  uint256 tTransferAmount */\n      0x00\n        /* \"contracts/Pool/Pool.sol\":12395:12407  uint256 tFee */\n      dup1\n        /* \"contracts/Pool/Pool.sol\":12409:12422  uint256 tTeam */\n      0x00\n        /* \"contracts/Pool/Pool.sol\":12426:12466  _getTValues(tAmount, _redisFee, _taxFee) */\n      tag_390\n        /* \"contracts/Pool/Pool.sol\":12438:12445  tAmount */\n      dup11\n        /* \"contracts/Pool/Pool.sol\":12447:12456  _redisFee */\n      sload(0x0c)\n        /* \"contracts/Pool/Pool.sol\":12458:12465  _taxFee */\n      sload(0x0d)\n        /* \"contracts/Pool/Pool.sol\":12426:12437  _getTValues */\n      tag_391\n        /* \"contracts/Pool/Pool.sol\":12426:12466  _getTValues(tAmount, _redisFee, _taxFee) */\n      jump\t// in\n    tag_390:\n        /* \"contracts/Pool/Pool.sol\":12369:12466  (uint256 tTransferAmount, uint256 tFee, uint256 tTeam) = _getTValues(tAmount, _redisFee, _taxFee) */\n      swap3\n      pop\n      swap3\n      pop\n      swap3\n      pop\n        /* \"contracts/Pool/Pool.sol\":12476:12495  uint256 currentRate */\n      0x00\n        /* \"contracts/Pool/Pool.sol\":12499:12509  _getRate() */\n      tag_392\n        /* \"contracts/Pool/Pool.sol\":12499:12507  _getRate */\n      tag_337\n        /* \"contracts/Pool/Pool.sol\":12499:12509  _getRate() */\n      jump\t// in\n    tag_392:\n        /* \"contracts/Pool/Pool.sol\":12476:12509  uint256 currentRate =  _getRate() */\n      swap1\n      pop\n        /* \"contracts/Pool/Pool.sol\":12520:12535  uint256 rAmount */\n      0x00\n        /* \"contracts/Pool/Pool.sol\":12537:12560  uint256 rTransferAmount */\n      dup1\n        /* \"contracts/Pool/Pool.sol\":12562:12574  uint256 rFee */\n      0x00\n        /* \"contracts/Pool/Pool.sol\":12578:12624  _getRValues(tAmount, tFee, tTeam, currentRate) */\n      tag_393\n        /* \"contracts/Pool/Pool.sol\":12590:12597  tAmount */\n      dup15\n        /* \"contracts/Pool/Pool.sol\":12599:12603  tFee */\n      dup8\n        /* \"contracts/Pool/Pool.sol\":12605:12610  tTeam */\n      dup8\n        /* \"contracts/Pool/Pool.sol\":12612:12623  currentRate */\n      dup8\n        /* \"contracts/Pool/Pool.sol\":12578:12589  _getRValues */\n      tag_394\n        /* \"contracts/Pool/Pool.sol\":12578:12624  _getRValues(tAmount, tFee, tTeam, currentRate) */\n      jump\t// in\n    tag_393:\n        /* \"contracts/Pool/Pool.sol\":12519:12624  (uint256 rAmount, uint256 rTransferAmount, uint256 rFee) = _getRValues(tAmount, tFee, tTeam, currentRate) */\n      swap3\n      pop\n      swap3\n      pop\n      swap3\n      pop\n        /* \"contracts/Pool/Pool.sol\":12642:12649  rAmount */\n      dup3\n        /* \"contracts/Pool/Pool.sol\":12651:12666  rTransferAmount */\n      dup3\n        /* \"contracts/Pool/Pool.sol\":12668:12672  rFee */\n      dup3\n        /* \"contracts/Pool/Pool.sol\":12674:12689  tTransferAmount */\n      dup10\n        /* \"contracts/Pool/Pool.sol\":12691:12695  tFee */\n      dup10\n        /* \"contracts/Pool/Pool.sol\":12697:12702  tTeam */\n      dup10\n        /* \"contracts/Pool/Pool.sol\":12634:12703  return (rAmount, rTransferAmount, rFee, tTransferAmount, tFee, tTeam) */\n      swap13\n      pop\n      swap13\n      pop\n      swap13\n      pop\n      swap13\n      pop\n      swap13\n      pop\n      swap13\n      pop\n      pop\n      pop\n      pop\n      pop\n      pop\n      pop\n      pop\n        /* \"contracts/Pool/Pool.sol\":12246:12710  function _getValues(uint256 tAmount) private view returns (uint256, uint256, uint256, uint256, uint256, uint256) {... */\n      swap2\n      swap4\n      swap6\n      pop\n      swap2\n      swap4\n      swap6\n      jump\t// out\n        /* \"contracts/Pool/Pool.sol\":2027:2161  function sub(uint256 a, uint256 b) internal pure returns (uint256) {... */\n    tag_373:\n        /* \"contracts/Pool/Pool.sol\":2085:2092  uint256 */\n      0x00\n        /* \"contracts/Pool/Pool.sol\":2111:2154  sub(a, b, \"SafeMath: subtraction overflow\") */\n      tag_396\n        /* \"contracts/Pool/Pool.sol\":2115:2116  a */\n      dup4\n        /* \"contracts/Pool/Pool.sol\":2118:2119  b */\n      dup4\n        /* \"contracts/Pool/Pool.sol\":2111:2154  sub(a, b, \"SafeMath: subtraction overflow\") */\n      mload(0x40)\n      dup1\n      0x40\n      add\n      0x40\n      mstore\n      dup1\n      0x1e\n      dup2\n      mstore\n      0x20\n      add\n      0x536166654d6174683a207375627472616374696f6e206f766572666c6f770000\n      dup2\n      mstore\n      pop\n        /* \"contracts/Pool/Pool.sol\":2111:2114  sub */\n      tag_164\n        /* \"contracts/Pool/Pool.sol\":2111:2154  sub(a, b, \"SafeMath: subtraction overflow\") */\n      jump\t// in\n    tag_396:\n        /* \"contracts/Pool/Pool.sol\":2104:2154  return sub(a, b, \"SafeMath: subtraction overflow\") */\n      swap1\n      pop\n        /* \"contracts/Pool/Pool.sol\":2027:2161  function sub(uint256 a, uint256 b) internal pure returns (uint256) {... */\n      swap3\n      swap2\n      pop\n      pop\n      jump\t// out\n        /* \"contracts/Pool/Pool.sol\":1846:2021  function add(uint256 a, uint256 b) internal pure returns (uint256) {... */\n    tag_375:\n        /* \"contracts/Pool/Pool.sol\":1904:1911  uint256 */\n      0x00\n        /* \"contracts/Pool/Pool.sol\":1923:1932  uint256 c */\n      dup1\n        /* \"contracts/Pool/Pool.sol\":1939:1940  b */\n      dup3\n        /* \"contracts/Pool/Pool.sol\":1935:1936  a */\n      dup5\n        /* \"contracts/Pool/Pool.sol\":1935:1940  a + b */\n      tag_398\n      swap2\n      swap1\n      tag_399\n      jump\t// in\n    tag_398:\n        /* \"contracts/Pool/Pool.sol\":1923:1940  uint256 c = a + b */\n      swap1\n      pop\n        /* \"contracts/Pool/Pool.sol\":1963:1964  a */\n      dup4\n        /* \"contracts/Pool/Pool.sol\":1958:1959  c */\n      dup2\n        /* \"contracts/Pool/Pool.sol\":1958:1964  c >= a */\n      lt\n      iszero\n        /* \"contracts/Pool/Pool.sol\":1950:1996  require(c >= a, \"SafeMath: addition overflow\") */\n      tag_400\n      jumpi\n      mload(0x40)\n      0x08c379a000000000000000000000000000000000000000000000000000000000\n      dup2\n      mstore\n      0x04\n      add\n      tag_401\n      swap1\n      tag_402\n      jump\t// in\n    tag_401:\n      mload(0x40)\n      dup1\n      swap2\n      sub\n      swap1\n      revert\n    tag_400:\n        /* \"contracts/Pool/Pool.sol\":2013:2014  c */\n      dup1\n        /* \"contracts/Pool/Pool.sol\":2006:2014  return c */\n      swap2\n      pop\n      pop\n        /* \"contracts/Pool/Pool.sol\":1846:2021  function add(uint256 a, uint256 b) internal pure returns (uint256) {... */\n      swap3\n      swap2\n      pop\n      pop\n      jump\t// out\n        /* \"contracts/Pool/Pool.sol\":11843:12051  function _takeTeam(uint256 tTeam) private {... */\n    tag_377:\n        /* \"contracts/Pool/Pool.sol\":11895:11914  uint256 currentRate */\n      0x00\n        /* \"contracts/Pool/Pool.sol\":11918:11928  _getRate() */\n      tag_404\n        /* \"contracts/Pool/Pool.sol\":11918:11926  _getRate */\n      tag_337\n        /* \"contracts/Pool/Pool.sol\":11918:11928  _getRate() */\n      jump\t// in\n    tag_404:\n        /* \"contracts/Pool/Pool.sol\":11895:11928  uint256 currentRate =  _getRate() */\n      swap1\n      pop\n        /* \"contracts/Pool/Pool.sol\":11938:11951  uint256 rTeam */\n      0x00\n        /* \"contracts/Pool/Pool.sol\":11954:11976  tTeam.mul(currentRate) */\n      tag_405\n        /* \"contracts/Pool/Pool.sol\":11964:11975  currentRate */\n      dup3\n        /* \"contracts/Pool/Pool.sol\":11954:11959  tTeam */\n      dup5\n        /* \"contracts/Pool/Pool.sol\":11954:11963  tTeam.mul */\n      tag_406\n      swap1\n        /* \"contracts/Pool/Pool.sol\":11954:11976  tTeam.mul(currentRate) */\n      swap2\n      swap1\n      0xffffffff\n      and\n      jump\t// in\n    tag_405:\n        /* \"contracts/Pool/Pool.sol\":11938:11976  uint256 rTeam = tTeam.mul(currentRate) */\n      swap1\n      pop\n        /* \"contracts/Pool/Pool.sol\":12011:12044  _rOwned[address(this)].add(rTeam) */\n      tag_407\n        /* \"contracts/Pool/Pool.sol\":12038:12043  rTeam */\n      dup2\n        /* \"contracts/Pool/Pool.sol\":12011:12018  _rOwned */\n      0x02\n        /* \"contracts/Pool/Pool.sol\":12011:12033  _rOwned[address(this)] */\n      0x00\n        /* \"contracts/Pool/Pool.sol\":12027:12031  this */\n      address\n        /* \"contracts/Pool/Pool.sol\":12011:12033  _rOwned[address(this)] */\n      0xffffffffffffffffffffffffffffffffffffffff\n      and\n      0xffffffffffffffffffffffffffffffffffffffff\n      and\n      dup2\n      mstore\n      0x20\n      add\n      swap1\n      dup2\n      mstore\n      0x20\n      add\n      0x00\n      keccak256\n      sload\n        /* \"contracts/Pool/Pool.sol\":12011:12037  _rOwned[address(this)].add */\n      tag_375\n      swap1\n        /* \"contracts/Pool/Pool.sol\":12011:12044  _rOwned[address(this)].add(rTeam) */\n      swap2\n      swap1\n      0xffffffff\n      and\n      jump\t// in\n    tag_407:\n        /* \"contracts/Pool/Pool.sol\":11986:11993  _rOwned */\n      0x02\n        /* \"contracts/Pool/Pool.sol\":11986:12008  _rOwned[address(this)] */\n      0x00\n        /* \"contracts/Pool/Pool.sol\":12002:12006  this */\n      address\n        /* \"contracts/Pool/Pool.sol\":11986:12008  _rOwned[address(this)] */\n      0xffffffffffffffffffffffffffffffffffffffff\n      and\n      0xffffffffffffffffffffffffffffffffffffffff\n      and\n      dup2\n      mstore\n      0x20\n      add\n      swap1\n      dup2\n      mstore\n      0x20\n      add\n      0x00\n      keccak256\n        /* \"contracts/Pool/Pool.sol\":11986:12044  _rOwned[address(this)] = _rOwned[address(this)].add(rTeam) */\n      dup2\n      swap1\n      sstore\n      pop\n        /* \"contracts/Pool/Pool.sol\":11885:12051  {... */\n      pop\n      pop\n        /* \"contracts/Pool/Pool.sol\":11843:12051  function _takeTeam(uint256 tTeam) private {... */\n      pop\n      jump\t// out\n        /* \"contracts/Pool/Pool.sol\":12057:12201  function _reflectFee(uint256 rFee, uint256 tFee) private {... */\n    tag_379:\n        /* \"contracts/Pool/Pool.sol\":12134:12151  _rTotal.sub(rFee) */\n      tag_409\n        /* \"contracts/Pool/Pool.sol\":12146:12150  rFee */\n      dup3\n        /* \"contracts/Pool/Pool.sol\":12134:12141  _rTotal */\n      sload(0x06)\n        /* \"contracts/Pool/Pool.sol\":12134:12145  _rTotal.sub */\n      tag_373\n      swap1\n        /* \"contracts/Pool/Pool.sol\":12134:12151  _rTotal.sub(rFee) */\n      swap2\n      swap1\n      0xffffffff\n      and\n      jump\t// in\n    tag_409:\n        /* \"contracts/Pool/Pool.sol\":12124:12131  _rTotal */\n      0x06\n        /* \"contracts/Pool/Pool.sol\":12124:12151  _rTotal = _rTotal.sub(rFee) */\n      dup2\n      swap1\n      sstore\n      pop\n        /* \"contracts/Pool/Pool.sol\":12174:12194  _tFeeTotal.add(tFee) */\n      tag_410\n        /* \"contracts/Pool/Pool.sol\":12189:12193  tFee */\n      dup2\n        /* \"contracts/Pool/Pool.sol\":12174:12184  _tFeeTotal */\n      sload(0x07)\n        /* \"contracts/Pool/Pool.sol\":12174:12188  _tFeeTotal.add */\n      tag_375\n      swap1\n        /* \"contracts/Pool/Pool.sol\":12174:12194  _tFeeTotal.add(tFee) */\n      swap2\n      swap1\n      0xffffffff\n      and\n      jump\t// in\n    tag_410:\n        /* \"contracts/Pool/Pool.sol\":12161:12171  _tFeeTotal */\n      0x07\n        /* \"contracts/Pool/Pool.sol\":12161:12194  _tFeeTotal = _tFeeTotal.add(tFee) */\n      dup2\n      swap1\n      sstore\n      pop\n        /* \"contracts/Pool/Pool.sol\":12057:12201  function _reflectFee(uint256 rFee, uint256 tFee) private {... */\n      pop\n      pop\n      jump\t// out\n        /* \"contracts/Pool/Pool.sol\":12716:13062  function _getTValues(uint256 tAmount, uint256 taxFee, uint256 TeamFee) private pure returns (uint256, uint256, uint256) {... */\n    tag_391:\n        /* \"contracts/Pool/Pool.sol\":12809:12816  uint256 */\n      0x00\n        /* \"contracts/Pool/Pool.sol\":12818:12825  uint256 */\n      dup1\n        /* \"contracts/Pool/Pool.sol\":12827:12834  uint256 */\n      0x00\n        /* \"contracts/Pool/Pool.sol\":12846:12858  uint256 tFee */\n      dup1\n        /* \"contracts/Pool/Pool.sol\":12861:12889  tAmount.mul(taxFee).div(100) */\n      tag_412\n        /* \"contracts/Pool/Pool.sol\":12885:12888  100 */\n      0x64\n        /* \"contracts/Pool/Pool.sol\":12861:12880  tAmount.mul(taxFee) */\n      tag_413\n        /* \"contracts/Pool/Pool.sol\":12873:12879  taxFee */\n      dup9\n        /* \"contracts/Pool/Pool.sol\":12861:12868  tAmount */\n      dup11\n        /* \"contracts/Pool/Pool.sol\":12861:12872  tAmount.mul */\n      tag_406\n      swap1\n        /* \"contracts/Pool/Pool.sol\":12861:12880  tAmount.mul(taxFee) */\n      swap2\n      swap1\n      0xffffffff\n      and\n      jump\t// in\n    tag_413:\n        /* \"contracts/Pool/Pool.sol\":12861:12884  tAmount.mul(taxFee).div */\n      tag_326\n      swap1\n        /* \"contracts/Pool/Pool.sol\":12861:12889  tAmount.mul(taxFee).div(100) */\n      swap2\n      swap1\n      0xffffffff\n      and\n      jump\t// in\n    tag_412:\n        /* \"contracts/Pool/Pool.sol\":12846:12889  uint256 tFee = tAmount.mul(taxFee).div(100) */\n      swap1\n      pop\n        /* \"contracts/Pool/Pool.sol\":12899:12912  uint256 tTeam */\n      0x00\n        /* \"contracts/Pool/Pool.sol\":12915:12944  tAmount.mul(TeamFee).div(100) */\n      tag_414\n        /* \"contracts/Pool/Pool.sol\":12940:12943  100 */\n      0x64\n        /* \"contracts/Pool/Pool.sol\":12915:12935  tAmount.mul(TeamFee) */\n      tag_415\n        /* \"contracts/Pool/Pool.sol\":12927:12934  TeamFee */\n      dup9\n        /* \"contracts/Pool/Pool.sol\":12915:12922  tAmount */\n      dup12\n        /* \"contracts/Pool/Pool.sol\":12915:12926  tAmount.mul */\n      tag_406\n      swap1\n        /* \"contracts/Pool/Pool.sol\":12915:12935  tAmount.mul(TeamFee) */\n      swap2\n      swap1\n      0xffffffff\n      and\n      jump\t// in\n    tag_415:\n        /* \"contracts/Pool/Pool.sol\":12915:12939  tAmount.mul(TeamFee).div */\n      tag_326\n      swap1\n        /* \"contracts/Pool/Pool.sol\":12915:12944  tAmount.mul(TeamFee).div(100) */\n      swap2\n      swap1\n      0xffffffff\n      and\n      jump\t// in\n    tag_414:\n        /* \"contracts/Pool/Pool.sol\":12899:12944  uint256 tTeam = tAmount.mul(TeamFee).div(100) */\n      swap1\n      pop\n        /* \"contracts/Pool/Pool.sol\":12954:12977  uint256 tTransferAmount */\n      0x00\n        /* \"contracts/Pool/Pool.sol\":12980:13008  tAmount.sub(tFee).sub(tTeam) */\n      tag_416\n        /* \"contracts/Pool/Pool.sol\":13002:13007  tTeam */\n      dup3\n        /* \"contracts/Pool/Pool.sol\":12980:12997  tAmount.sub(tFee) */\n      tag_417\n        /* \"contracts/Pool/Pool.sol\":12992:12996  tFee */\n      dup6\n        /* \"contracts/Pool/Pool.sol\":12980:12987  tAmount */\n      dup13\n        /* \"contracts/Pool/Pool.sol\":12980:12991  tAmount.sub */\n      tag_373\n      swap1\n        /* \"contracts/Pool/Pool.sol\":12980:12997  tAmount.sub(tFee) */\n      swap2\n      swap1\n      0xffffffff\n      and\n      jump\t// in\n    tag_417:\n        /* \"contracts/Pool/Pool.sol\":12980:13001  tAmount.sub(tFee).sub */\n      tag_373\n      swap1\n        /* \"contracts/Pool/Pool.sol\":12980:13008  tAmount.sub(tFee).sub(tTeam) */\n      swap2\n      swap1\n      0xffffffff\n      and\n      jump\t// in\n    tag_416:\n        /* \"contracts/Pool/Pool.sol\":12954:13008  uint256 tTransferAmount = tAmount.sub(tFee).sub(tTeam) */\n      swap1\n      pop\n        /* \"contracts/Pool/Pool.sol\":13026:13041  tTransferAmount */\n      dup1\n        /* \"contracts/Pool/Pool.sol\":13043:13047  tFee */\n      dup4\n        /* \"contracts/Pool/Pool.sol\":13049:13054  tTeam */\n      dup4\n        /* \"contracts/Pool/Pool.sol\":13018:13055  return (tTransferAmount, tFee, tTeam) */\n      swap6\n      pop\n      swap6\n      pop\n      swap6\n      pop\n      pop\n      pop\n      pop\n        /* \"contracts/Pool/Pool.sol\":12716:13062  function _getTValues(uint256 tAmount, uint256 taxFee, uint256 TeamFee) private pure returns (uint256, uint256, uint256) {... */\n      swap4\n      pop\n      swap4\n      pop\n      swap4\n      swap1\n      pop\n      jump\t// out\n        /* \"contracts/Pool/Pool.sol\":13068:13471  function _getRValues(uint256 tAmount, uint256 tFee, uint256 tTeam, uint256 currentRate) private pure returns (uint256, uint256, uint256) {... */\n    tag_394:\n        /* \"contracts/Pool/Pool.sol\":13178:13185  uint256 */\n      0x00\n        /* \"contracts/Pool/Pool.sol\":13187:13194  uint256 */\n      dup1\n        /* \"contracts/Pool/Pool.sol\":13196:13203  uint256 */\n      0x00\n        /* \"contracts/Pool/Pool.sol\":13215:13230  uint256 rAmount */\n      dup1\n        /* \"contracts/Pool/Pool.sol\":13233:13257  tAmount.mul(currentRate) */\n      tag_419\n        /* \"contracts/Pool/Pool.sol\":13245:13256  currentRate */\n      dup6\n        /* \"contracts/Pool/Pool.sol\":13233:13240  tAmount */\n      dup10\n        /* \"contracts/Pool/Pool.sol\":13233:13244  tAmount.mul */\n      tag_406\n      swap1\n        /* \"contracts/Pool/Pool.sol\":13233:13257  tAmount.mul(currentRate) */\n      swap2\n      swap1\n      0xffffffff\n      and\n      jump\t// in\n    tag_419:\n        /* \"contracts/Pool/Pool.sol\":13215:13257  uint256 rAmount = tAmount.mul(currentRate) */\n      swap1\n      pop\n        /* \"contracts/Pool/Pool.sol\":13267:13279  uint256 rFee */\n      0x00\n        /* \"contracts/Pool/Pool.sol\":13282:13303  tFee.mul(currentRate) */\n      tag_420\n        /* \"contracts/Pool/Pool.sol\":13291:13302  currentRate */\n      dup7\n        /* \"contracts/Pool/Pool.sol\":13282:13286  tFee */\n      dup10\n        /* \"contracts/Pool/Pool.sol\":13282:13290  tFee.mul */\n      tag_406\n      swap1\n        /* \"contracts/Pool/Pool.sol\":13282:13303  tFee.mul(currentRate) */\n      swap2\n      swap1\n      0xffffffff\n      and\n      jump\t// in\n    tag_420:\n        /* \"contracts/Pool/Pool.sol\":13267:13303  uint256 rFee = tFee.mul(currentRate) */\n      swap1\n      pop\n        /* \"contracts/Pool/Pool.sol\":13313:13326  uint256 rTeam */\n      0x00\n        /* \"contracts/Pool/Pool.sol\":13329:13351  tTeam.mul(currentRate) */\n      tag_421\n        /* \"contracts/Pool/Pool.sol\":13339:13350  currentRate */\n      dup8\n        /* \"contracts/Pool/Pool.sol\":13329:13334  tTeam */\n      dup10\n        /* \"contracts/Pool/Pool.sol\":13329:13338  tTeam.mul */\n      tag_406\n      swap1\n        /* \"contracts/Pool/Pool.sol\":13329:13351  tTeam.mul(currentRate) */\n      swap2\n      swap1\n      0xffffffff\n      and\n      jump\t// in\n    tag_421:\n        /* \"contracts/Pool/Pool.sol\":13313:13351  uint256 rTeam = tTeam.mul(currentRate) */\n      swap1\n      pop\n        /* \"contracts/Pool/Pool.sol\":13361:13384  uint256 rTransferAmount */\n      0x00\n        /* \"contracts/Pool/Pool.sol\":13387:13415  rAmount.sub(rFee).sub(rTeam) */\n      tag_422\n        /* \"contracts/Pool/Pool.sol\":13409:13414  rTeam */\n      dup3\n        /* \"contracts/Pool/Pool.sol\":13387:13404  rAmount.sub(rFee) */\n      tag_423\n        /* \"contracts/Pool/Pool.sol\":13399:13403  rFee */\n      dup6\n        /* \"contracts/Pool/Pool.sol\":13387:13394  rAmount */\n      dup8\n        /* \"contracts/Pool/Pool.sol\":13387:13398  rAmount.sub */\n      tag_373\n      swap1\n        /* \"contracts/Pool/Pool.sol\":13387:13404  rAmount.sub(rFee) */\n      swap2\n      swap1\n      0xffffffff\n      and\n      jump\t// in\n    tag_423:\n        /* \"contracts/Pool/Pool.sol\":13387:13408  rAmount.sub(rFee).sub */\n      tag_373\n      swap1\n        /* \"contracts/Pool/Pool.sol\":13387:13415  rAmount.sub(rFee).sub(rTeam) */\n      swap2\n      swap1\n      0xffffffff\n      and\n      jump\t// in\n    tag_422:\n        /* \"contracts/Pool/Pool.sol\":13361:13415  uint256 rTransferAmount = rAmount.sub(rFee).sub(rTeam) */\n      swap1\n      pop\n        /* \"contracts/Pool/Pool.sol\":13433:13440  rAmount */\n      dup4\n        /* \"contracts/Pool/Pool.sol\":13442:13457  rTransferAmount */\n      dup2\n        /* \"contracts/Pool/Pool.sol\":13459:13463  rFee */\n      dup5\n        /* \"contracts/Pool/Pool.sol\":13425:13464  return (rAmount, rTransferAmount, rFee) */\n      swap7\n      pop\n      swap7\n      pop\n      swap7\n      pop\n      pop\n      pop\n      pop\n      pop\n        /* \"contracts/Pool/Pool.sol\":13068:13471  function _getRValues(uint256 tAmount, uint256 tFee, uint256 tTeam, uint256 currentRate) private pure returns (uint256, uint256, uint256) {... */\n      swap5\n      pop\n      swap5\n      pop\n      swap5\n      swap2\n      pop\n      pop\n      jump\t// out\n        /* \"contracts/Pool/Pool.sol\":2359:2598  function mul(uint256 a, uint256 b) internal pure returns (uint256) {... */\n    tag_406:\n        /* \"contracts/Pool/Pool.sol\":2417:2424  uint256 */\n      0x00\n        /* \"contracts/Pool/Pool.sol\":2445:2446  0 */\n      dup1\n        /* \"contracts/Pool/Pool.sol\":2440:2441  a */\n      dup4\n        /* \"contracts/Pool/Pool.sol\":2440:2446  a == 0 */\n      sub\n        /* \"contracts/Pool/Pool.sol\":2436:2481  if (a == 0) {... */\n      tag_425\n      jumpi\n        /* \"contracts/Pool/Pool.sol\":2469:2470  0 */\n      0x00\n        /* \"contracts/Pool/Pool.sol\":2462:2470  return 0 */\n      swap1\n      pop\n      jump(tag_424)\n        /* \"contracts/Pool/Pool.sol\":2436:2481  if (a == 0) {... */\n    tag_425:\n        /* \"contracts/Pool/Pool.sol\":2490:2499  uint256 c */\n      0x00\n        /* \"contracts/Pool/Pool.sol\":2506:2507  b */\n      dup3\n        /* \"contracts/Pool/Pool.sol\":2502:2503  a */\n      dup5\n        /* \"contracts/Pool/Pool.sol\":2502:2507  a * b */\n      tag_426\n      swap2\n      swap1\n      tag_427\n      jump\t// in\n    tag_426:\n        /* \"contracts/Pool/Pool.sol\":2490:2507  uint256 c = a * b */\n      swap1\n      pop\n        /* \"contracts/Pool/Pool.sol\":2534:2535  b */\n      dup3\n        /* \"contracts/Pool/Pool.sol\":2529:2530  a */\n      dup5\n        /* \"contracts/Pool/Pool.sol\":2525:2526  c */\n      dup3\n        /* \"contracts/Pool/Pool.sol\":2525:2530  c / a */\n      tag_428\n      swap2\n      swap1\n      tag_385\n      jump\t// in\n    tag_428:\n        /* \"contracts/Pool/Pool.sol\":2525:2535  c / a == b */\n      eq\n        /* \"contracts/Pool/Pool.sol\":2517:2573  require(c / a == b, \"SafeMath: multiplication overflow\") */\n      tag_429\n      jumpi\n      mload(0x40)\n      0x08c379a000000000000000000000000000000000000000000000000000000000\n      dup2\n      mstore\n      0x04\n      add\n      tag_430\n      swap1\n      tag_431\n      jump\t// in\n    tag_430:\n      mload(0x40)\n      dup1\n      swap2\n      sub\n      swap1\n      revert\n    tag_429:\n        /* \"contracts/Pool/Pool.sol\":2590:2591  c */\n      dup1\n        /* \"contracts/Pool/Pool.sol\":2583:2591  return c */\n      swap2\n      pop\n      pop\n        /* \"contracts/Pool/Pool.sol\":2359:2598  function mul(uint256 a, uint256 b) internal pure returns (uint256) {... */\n    tag_424:\n      swap3\n      swap2\n      pop\n      pop\n      jump\t// out\n        /* \"#utility.yul\":7:106   */\n    tag_432:\n        /* \"#utility.yul\":59:65   */\n      0x00\n        /* \"#utility.yul\":93:98   */\n      dup2\n        /* \"#utility.yul\":87:99   */\n      mload\n        /* \"#utility.yul\":77:99   */\n      swap1\n      pop\n        /* \"#utility.yul\":7:106   */\n      swap2\n      swap1\n      pop\n      jump\t// out\n        /* \"#utility.yul\":112:281   */\n    tag_433:\n        /* \"#utility.yul\":196:207   */\n      0x00\n        /* \"#utility.yul\":230:236   */\n      dup3\n        /* \"#utility.yul\":225:228   */\n      dup3\n        /* \"#utility.yul\":218:237   */\n      mstore\n        /* \"#utility.yul\":270:274   */\n      0x20\n        /* \"#utility.yul\":265:268   */\n      dup3\n        /* \"#utility.yul\":261:275   */\n      add\n        /* \"#utility.yul\":246:275   */\n      swap1\n      pop\n        /* \"#utility.yul\":112:281   */\n      swap3\n      swap2\n      pop\n      pop\n      jump\t// out\n        /* \"#utility.yul\":287:594   */\n    tag_434:\n        /* \"#utility.yul\":355:356   */\n      0x00\n        /* \"#utility.yul\":365:478   */\n    tag_511:\n        /* \"#utility.yul\":379:385   */\n      dup4\n        /* \"#utility.yul\":376:377   */\n      dup2\n        /* \"#utility.yul\":373:386   */\n      lt\n        /* \"#utility.yul\":365:478   */\n      iszero\n      tag_513\n      jumpi\n        /* \"#utility.yul\":464:465   */\n      dup1\n        /* \"#utility.yul\":459:462   */\n      dup3\n        /* \"#utility.yul\":455:466   */\n      add\n        /* \"#utility.yul\":449:467   */\n      mload\n        /* \"#utility.yul\":445:446   */\n      dup2\n        /* \"#utility.yul\":440:443   */\n      dup5\n        /* \"#utility.yul\":436:447   */\n      add\n        /* \"#utility.yul\":429:468   */\n      mstore\n        /* \"#utility.yul\":401:403   */\n      0x20\n        /* \"#utility.yul\":398:399   */\n      dup2\n        /* \"#utility.yul\":394:404   */\n      add\n        /* \"#utility.yul\":389:404   */\n      swap1\n      pop\n        /* \"#utility.yul\":365:478   */\n      jump(tag_511)\n    tag_513:\n        /* \"#utility.yul\":496:502   */\n      dup4\n        /* \"#utility.yul\":493:494   */\n      dup2\n        /* \"#utility.yul\":490:503   */\n      gt\n        /* \"#utility.yul\":487:588   */\n      iszero\n      tag_514\n      jumpi\n        /* \"#utility.yul\":576:577   */\n      0x00\n        /* \"#utility.yul\":567:573   */\n      dup5\n        /* \"#utility.yul\":562:565   */\n      dup5\n        /* \"#utility.yul\":558:574   */\n      add\n        /* \"#utility.yul\":551:578   */\n      mstore\n        /* \"#utility.yul\":487:588   */\n    tag_514:\n        /* \"#utility.yul\":336:594   */\n      pop\n        /* \"#utility.yul\":287:594   */\n      pop\n      pop\n      pop\n      jump\t// out\n        /* \"#utility.yul\":600:702   */\n    tag_435:\n        /* \"#utility.yul\":641:647   */\n      0x00\n        /* \"#utility.yul\":692:694   */\n      0x1f\n        /* \"#utility.yul\":688:695   */\n      not\n        /* \"#utility.yul\":683:685   */\n      0x1f\n        /* \"#utility.yul\":676:681   */\n      dup4\n        /* \"#utility.yul\":672:686   */\n      add\n        /* \"#utility.yul\":668:696   */\n      and\n        /* \"#utility.yul\":658:696   */\n      swap1\n      pop\n        /* \"#utility.yul\":600:702   */\n      swap2\n      swap1\n      pop\n      jump\t// out\n        /* \"#utility.yul\":708:1072   */\n    tag_436:\n        /* \"#utility.yul\":796:799   */\n      0x00\n        /* \"#utility.yul\":824:863   */\n      tag_517\n        /* \"#utility.yul\":857:862   */\n      dup3\n        /* \"#utility.yul\":824:863   */\n      tag_432\n      jump\t// in\n    tag_517:\n        /* \"#utility.yul\":879:950   */\n      tag_518\n        /* \"#utility.yul\":943:949   */\n      dup2\n        /* \"#utility.yul\":938:941   */\n      dup6\n        /* \"#utility.yul\":879:950   */\n      tag_433\n      jump\t// in\n    tag_518:\n        /* \"#utility.yul\":872:950   */\n      swap4\n      pop\n        /* \"#utility.yul\":959:1011   */\n      tag_519\n        /* \"#utility.yul\":1004:1010   */\n      dup2\n        /* \"#utility.yul\":999:1002   */\n      dup6\n        /* \"#utility.yul\":992:996   */\n      0x20\n        /* \"#utility.yul\":985:990   */\n      dup7\n        /* \"#utility.yul\":981:997   */\n      add\n        /* \"#utility.yul\":959:1011   */\n      tag_434\n      jump\t// in\n    tag_519:\n        /* \"#utility.yul\":1036:1065   */\n      tag_520\n        /* \"#utility.yul\":1058:1064   */\n      dup2\n        /* \"#utility.yul\":1036:1065   */\n      tag_435\n      jump\t// in\n    tag_520:\n        /* \"#utility.yul\":1031:1034   */\n      dup5\n        /* \"#utility.yul\":1027:1066   */\n      add\n        /* \"#utility.yul\":1020:1066   */\n      swap2\n      pop\n        /* \"#utility.yul\":800:1072   */\n      pop\n        /* \"#utility.yul\":708:1072   */\n      swap3\n      swap2\n      pop\n      pop\n      jump\t// out\n        /* \"#utility.yul\":1078:1391   */\n    tag_39:\n        /* \"#utility.yul\":1191:1195   */\n      0x00\n        /* \"#utility.yul\":1229:1231   */\n      0x20\n        /* \"#utility.yul\":1218:1227   */\n      dup3\n        /* \"#utility.yul\":1214:1232   */\n      add\n        /* \"#utility.yul\":1206:1232   */\n      swap1\n      pop\n        /* \"#utility.yul\":1278:1287   */\n      dup2\n        /* \"#utility.yul\":1272:1276   */\n      dup2\n        /* \"#utility.yul\":1268:1288   */\n      sub\n        /* \"#utility.yul\":1264:1265   */\n      0x00\n        /* \"#utility.yul\":1253:1262   */\n      dup4\n        /* \"#utility.yul\":1249:1266   */\n      add\n        /* \"#utility.yul\":1242:1289   */\n      mstore\n        /* \"#utility.yul\":1306:1384   */\n      tag_522\n        /* \"#utility.yul\":1379:1383   */\n      dup2\n        /* \"#utility.yul\":1370:1376   */\n      dup5\n        /* \"#utility.yul\":1306:1384   */\n      tag_436\n      jump\t// in\n    tag_522:\n        /* \"#utility.yul\":1298:1384   */\n      swap1\n      pop\n        /* \"#utility.yul\":1078:1391   */\n      swap3\n      swap2\n      pop\n      pop\n      jump\t// out\n        /* \"#utility.yul\":1478:1595   */\n    tag_438:\n        /* \"#utility.yul\":1587:1588   */\n      0x00\n        /* \"#utility.yul\":1584:1585   */\n      dup1\n        /* \"#utility.yul\":1577:1589   */\n      revert\n        /* \"#utility.yul\":1601:1718   */\n    tag_439:\n        /* \"#utility.yul\":1710:1711   */\n      0x00\n        /* \"#utility.yul\":1707:1708   */\n      dup1\n        /* \"#utility.yul\":1700:1712   */\n      revert\n        /* \"#utility.yul\":1724:1850   */\n    tag_440:\n        /* \"#utility.yul\":1761:1768   */\n      0x00\n        /* \"#utility.yul\":1801:1843   */\n      0xffffffffffffffffffffffffffffffffffffffff\n        /* \"#utility.yul\":1794:1799   */\n      dup3\n        /* \"#utility.yul\":1790:1844   */\n      and\n        /* \"#utility.yul\":1779:1844   */\n      swap1\n      pop\n        /* \"#utility.yul\":1724:1850   */\n      swap2\n      swap1\n      pop\n      jump\t// out\n        /* \"#utility.yul\":1856:1952   */\n    tag_441:\n        /* \"#utility.yul\":1893:1900   */\n      0x00\n        /* \"#utility.yul\":1922:1946   */\n      tag_528\n        /* \"#utility.yul\":1940:1945   */\n      dup3\n        /* \"#utility.yul\":1922:1946   */\n      tag_440\n      jump\t// in\n    tag_528:\n        /* \"#utility.yul\":1911:1946   */\n      swap1\n      pop\n        /* \"#utility.yul\":1856:1952   */\n      swap2\n      swap1\n      pop\n      jump\t// out\n        /* \"#utility.yul\":1958:2080   */\n    tag_442:\n        /* \"#utility.yul\":2031:2055   */\n      tag_530\n        /* \"#utility.yul\":2049:2054   */\n      dup2\n        /* \"#utility.yul\":2031:2055   */\n      tag_441\n      jump\t// in\n    tag_530:\n        /* \"#utility.yul\":2024:2029   */\n      dup2\n        /* \"#utility.yul\":2021:2056   */\n      eq\n        /* \"#utility.yul\":2011:2074   */\n      tag_531\n      jumpi\n        /* \"#utility.yul\":2070:2071   */\n      0x00\n        /* \"#utility.yul\":2067:2068   */\n      dup1\n        /* \"#utility.yul\":2060:2072   */\n      revert\n        /* \"#utility.yul\":2011:2074   */\n    tag_531:\n        /* \"#utility.yul\":1958:2080   */\n      pop\n      jump\t// out\n        /* \"#utility.yul\":2086:2225   */\n    tag_443:\n        /* \"#utility.yul\":2132:2137   */\n      0x00\n        /* \"#utility.yul\":2170:2176   */\n      dup2\n        /* \"#utility.yul\":2157:2177   */\n      calldataload\n        /* \"#utility.yul\":2148:2177   */\n      swap1\n      pop\n        /* \"#utility.yul\":2186:2219   */\n      tag_533\n        /* \"#utility.yul\":2213:2218   */\n      dup2\n        /* \"#utility.yul\":2186:2219   */\n      tag_442\n      jump\t// in\n    tag_533:\n        /* \"#utility.yul\":2086:2225   */\n      swap3\n      swap2\n      pop\n      pop\n      jump\t// out\n        /* \"#utility.yul\":2231:2308   */\n    tag_444:\n        /* \"#utility.yul\":2268:2275   */\n      0x00\n        /* \"#utility.yul\":2297:2302   */\n      dup2\n        /* \"#utility.yul\":2286:2302   */\n      swap1\n      pop\n        /* \"#utility.yul\":2231:2308   */\n      swap2\n      swap1\n      pop\n      jump\t// out\n        /* \"#utility.yul\":2314:2436   */\n    tag_445:\n        /* \"#utility.yul\":2387:2411   */\n      tag_536\n        /* \"#utility.yul\":2405:2410   */\n      dup2\n        /* \"#utility.yul\":2387:2411   */\n      tag_444\n      jump\t// in\n    tag_536:\n        /* \"#utility.yul\":2380:2385   */\n      dup2\n        /* \"#utility.yul\":2377:2412   */\n      eq\n        /* \"#utility.yul\":2367:2430   */\n      tag_537\n      jumpi\n        /* \"#utility.yul\":2426:2427   */\n      0x00\n        /* \"#utility.yul\":2423:2424   */\n      dup1\n        /* \"#utility.yul\":2416:2428   */\n      revert\n        /* \"#utility.yul\":2367:2430   */\n    tag_537:\n        /* \"#utility.yul\":2314:2436   */\n      pop\n      jump\t// out\n        /* \"#utility.yul\":2442:2581   */\n    tag_446:\n        /* \"#utility.yul\":2488:2493   */\n      0x00\n        /* \"#utility.yul\":2526:2532   */\n      dup2\n        /* \"#utility.yul\":2513:2533   */\n      calldataload\n        /* \"#utility.yul\":2504:2533   */\n      swap1\n      pop\n        /* \"#utility.yul\":2542:2575   */\n      tag_539\n        /* \"#utility.yul\":2569:2574   */\n      dup2\n        /* \"#utility.yul\":2542:2575   */\n      tag_445\n      jump\t// in\n    tag_539:\n        /* \"#utility.yul\":2442:2581   */\n      swap3\n      swap2\n      pop\n      pop\n      jump\t// out\n        /* \"#utility.yul\":2587:3061   */\n    tag_43:\n        /* \"#utility.yul\":2655:2661   */\n      0x00\n        /* \"#utility.yul\":2663:2669   */\n      dup1\n        /* \"#utility.yul\":2712:2714   */\n      0x40\n        /* \"#utility.yul\":2700:2709   */\n      dup4\n        /* \"#utility.yul\":2691:2698   */\n      dup6\n        /* \"#utility.yul\":2687:2710   */\n      sub\n        /* \"#utility.yul\":2683:2715   */\n      slt\n        /* \"#utility.yul\":2680:2799   */\n      iszero\n      tag_541\n      jumpi\n        /* \"#utility.yul\":2718:2797   */\n      tag_542\n      tag_438\n      jump\t// in\n    tag_542:\n        /* \"#utility.yul\":2680:2799   */\n    tag_541:\n        /* \"#utility.yul\":2838:2839   */\n      0x00\n        /* \"#utility.yul\":2863:2916   */\n      tag_543\n        /* \"#utility.yul\":2908:2915   */\n      dup6\n        /* \"#utility.yul\":2899:2905   */\n      dup3\n        /* \"#utility.yul\":2888:2897   */\n      dup7\n        /* \"#utility.yul\":2884:2906   */\n      add\n        /* \"#utility.yul\":2863:2916   */\n      tag_443\n      jump\t// in\n    tag_543:\n        /* \"#utility.yul\":2853:2916   */\n      swap3\n      pop\n        /* \"#utility.yul\":2809:2926   */\n      pop\n        /* \"#utility.yul\":2965:2967   */\n      0x20\n        /* \"#utility.yul\":2991:3044   */\n      tag_544\n        /* \"#utility.yul\":3036:3043   */\n      dup6\n        /* \"#utility.yul\":3027:3033   */\n      dup3\n        /* \"#utility.yul\":3016:3025   */\n      dup7\n        /* \"#utility.yul\":3012:3034   */\n      add\n        /* \"#utility.yul\":2991:3044   */\n      tag_446\n      jump\t// in\n    tag_544:\n        /* \"#utility.yul\":2981:3044   */\n      swap2\n      pop\n        /* \"#utility.yul\":2936:3054   */\n      pop\n        /* \"#utility.yul\":2587:3061   */\n      swap3\n      pop\n      swap3\n      swap1\n      pop\n      jump\t// out\n        /* \"#utility.yul\":3067:3157   */\n    tag_447:\n        /* \"#utility.yul\":3101:3108   */\n      0x00\n        /* \"#utility.yul\":3144:3149   */\n      dup2\n        /* \"#utility.yul\":3137:3150   */\n      iszero\n        /* \"#utility.yul\":3130:3151   */\n      iszero\n        /* \"#utility.yul\":3119:3151   */\n      swap1\n      pop\n        /* \"#utility.yul\":3067:3157   */\n      swap2\n      swap1\n      pop\n      jump\t// out\n        /* \"#utility.yul\":3163:3272   */\n    tag_448:\n        /* \"#utility.yul\":3244:3265   */\n      tag_547\n        /* \"#utility.yul\":3259:3264   */\n      dup2\n        /* \"#utility.yul\":3244:3265   */\n      tag_447\n      jump\t// in\n    tag_547:\n        /* \"#utility.yul\":3239:3242   */\n      dup3\n        /* \"#utility.yul\":3232:3266   */\n      mstore\n        /* \"#utility.yul\":3163:3272   */\n      pop\n      pop\n      jump\t// out\n        /* \"#utility.yul\":3278:3488   */\n    tag_46:\n        /* \"#utility.yul\":3365:3369   */\n      0x00\n        /* \"#utility.yul\":3403:3405   */\n      0x20\n        /* \"#utility.yul\":3392:3401   */\n      dup3\n        /* \"#utility.yul\":3388:3406   */\n      add\n        /* \"#utility.yul\":3380:3406   */\n      swap1\n      pop\n        /* \"#utility.yul\":3416:3481   */\n      tag_549\n        /* \"#utility.yul\":3478:3479   */\n      0x00\n        /* \"#utility.yul\":3467:3476   */\n      dup4\n        /* \"#utility.yul\":3463:3480   */\n      add\n        /* \"#utility.yul\":3454:3460   */\n      dup5\n        /* \"#utility.yul\":3416:3481   */\n      tag_448\n      jump\t// in\n    tag_549:\n        /* \"#utility.yul\":3278:3488   */\n      swap3\n      swap2\n      pop\n      pop\n      jump\t// out\n        /* \"#utility.yul\":3494:3554   */\n    tag_449:\n        /* \"#utility.yul\":3522:3525   */\n      0x00\n        /* \"#utility.yul\":3543:3548   */\n      dup2\n        /* \"#utility.yul\":3536:3548   */\n      swap1\n      pop\n        /* \"#utility.yul\":3494:3554   */\n      swap2\n      swap1\n      pop\n      jump\t// out\n        /* \"#utility.yul\":3560:3702   */\n    tag_450:\n        /* \"#utility.yul\":3610:3619   */\n      0x00\n        /* \"#utility.yul\":3643:3696   */\n      tag_552\n        /* \"#utility.yul\":3661:3695   */\n      tag_553\n        /* \"#utility.yul\":3670:3694   */\n      tag_554\n        /* \"#utility.yul\":3688:3693   */\n      dup5\n        /* \"#utility.yul\":3670:3694   */\n      tag_440\n      jump\t// in\n    tag_554:\n        /* \"#utility.yul\":3661:3695   */\n      tag_449\n      jump\t// in\n    tag_553:\n        /* \"#utility.yul\":3643:3696   */\n      tag_440\n      jump\t// in\n    tag_552:\n        /* \"#utility.yul\":3630:3696   */\n      swap1\n      pop\n        /* \"#utility.yul\":3560:3702   */\n      swap2\n      swap1\n      pop\n      jump\t// out\n        /* \"#utility.yul\":3708:3834   */\n    tag_451:\n        /* \"#utility.yul\":3758:3767   */\n      0x00\n        /* \"#utility.yul\":3791:3828   */\n      tag_556\n        /* \"#utility.yul\":3822:3827   */\n      dup3\n        /* \"#utility.yul\":3791:3828   */\n      tag_450\n      jump\t// in\n    tag_556:\n        /* \"#utility.yul\":3778:3828   */\n      swap1\n      pop\n        /* \"#utility.yul\":3708:3834   */\n      swap2\n      swap1\n      pop\n      jump\t// out\n        /* \"#utility.yul\":3840:3992   */\n    tag_452:\n        /* \"#utility.yul\":3916:3925   */\n      0x00\n        /* \"#utility.yul\":3949:3986   */\n      tag_558\n        /* \"#utility.yul\":3980:3985   */\n      dup3\n        /* \"#utility.yul\":3949:3986   */\n      tag_451\n      jump\t// in\n    tag_558:\n        /* \"#utility.yul\":3936:3986   */\n      swap1\n      pop\n        /* \"#utility.yul\":3840:3992   */\n      swap2\n      swap1\n      pop\n      jump\t// out\n        /* \"#utility.yul\":3998:4181   */\n    tag_453:\n        /* \"#utility.yul\":4111:4174   */\n      tag_560\n        /* \"#utility.yul\":4168:4173   */\n      dup2\n        /* \"#utility.yul\":4111:4174   */\n      tag_452\n      jump\t// in\n    tag_560:\n        /* \"#utility.yul\":4106:4109   */\n      dup3\n        /* \"#utility.yul\":4099:4175   */\n      mstore\n        /* \"#utility.yul\":3998:4181   */\n      pop\n      pop\n      jump\t// out\n        /* \"#utility.yul\":4187:4461   */\n    tag_51:\n        /* \"#utility.yul\":4306:4310   */\n      0x00\n        /* \"#utility.yul\":4344:4346   */\n      0x20\n        /* \"#utility.yul\":4333:4342   */\n      dup3\n        /* \"#utility.yul\":4329:4347   */\n      add\n        /* \"#utility.yul\":4321:4347   */\n      swap1\n      pop\n        /* \"#utility.yul\":4357:4454   */\n      tag_562\n        /* \"#utility.yul\":4451:4452   */\n      0x00\n        /* \"#utility.yul\":4440:4449   */\n      dup4\n        /* \"#utility.yul\":4436:4453   */\n      add\n        /* \"#utility.yul\":4427:4433   */\n      dup5\n        /* \"#utility.yul\":4357:4454   */\n      tag_453\n      jump\t// in\n    tag_562:\n        /* \"#utility.yul\":4187:4461   */\n      swap3\n      swap2\n      pop\n      pop\n      jump\t// out\n        /* \"#utility.yul\":4467:4585   */\n    tag_454:\n        /* \"#utility.yul\":4554:4578   */\n      tag_564\n        /* \"#utility.yul\":4572:4577   */\n      dup2\n        /* \"#utility.yul\":4554:4578   */\n      tag_444\n      jump\t// in\n    tag_564:\n        /* \"#utility.yul\":4549:4552   */\n      dup3\n        /* \"#utility.yul\":4542:4579   */\n      mstore\n        /* \"#utility.yul\":4467:4585   */\n      pop\n      pop\n      jump\t// out\n        /* \"#utility.yul\":4591:4813   */\n    tag_56:\n        /* \"#utility.yul\":4684:4688   */\n      0x00\n        /* \"#utility.yul\":4722:4724   */\n      0x20\n        /* \"#utility.yul\":4711:4720   */\n      dup3\n        /* \"#utility.yul\":4707:4725   */\n      add\n        /* \"#utility.yul\":4699:4725   */\n      swap1\n      pop\n        /* \"#utility.yul\":4735:4806   */\n      tag_566\n        /* \"#utility.yul\":4803:4804   */\n      0x00\n        /* \"#utility.yul\":4792:4801   */\n      dup4\n        /* \"#utility.yul\":4788:4805   */\n      add\n        /* \"#utility.yul\":4779:4785   */\n      dup5\n        /* \"#utility.yul\":4735:4806   */\n      tag_454\n      jump\t// in\n    tag_566:\n        /* \"#utility.yul\":4591:4813   */\n      swap3\n      swap2\n      pop\n      pop\n      jump\t// out\n        /* \"#utility.yul\":4819:5438   */\n    tag_60:\n        /* \"#utility.yul\":4896:4902   */\n      0x00\n        /* \"#utility.yul\":4904:4910   */\n      dup1\n        /* \"#utility.yul\":4912:4918   */\n      0x00\n        /* \"#utility.yul\":4961:4963   */\n      0x60\n        /* \"#utility.yul\":4949:4958   */\n      dup5\n        /* \"#utility.yul\":4940:4947   */\n      dup7\n        /* \"#utility.yul\":4936:4959   */\n      sub\n        /* \"#utility.yul\":4932:4964   */\n      slt\n        /* \"#utility.yul\":4929:5048   */\n      iszero\n      tag_568\n      jumpi\n        /* \"#utility.yul\":4967:5046   */\n      tag_569\n      tag_438\n      jump\t// in\n    tag_569:\n        /* \"#utility.yul\":4929:5048   */\n    tag_568:\n        /* \"#utility.yul\":5087:5088   */\n      0x00\n        /* \"#utility.yul\":5112:5165   */\n      tag_570\n        /* \"#utility.yul\":5157:5164   */\n      dup7\n        /* \"#utility.yul\":5148:5154   */\n      dup3\n        /* \"#utility.yul\":5137:5146   */\n      dup8\n        /* \"#utility.yul\":5133:5155   */\n      add\n        /* \"#utility.yul\":5112:5165   */\n      tag_443\n      jump\t// in\n    tag_570:\n        /* \"#utility.yul\":5102:5165   */\n      swap4\n      pop\n        /* \"#utility.yul\":5058:5175   */\n      pop\n        /* \"#utility.yul\":5214:5216   */\n      0x20\n        /* \"#utility.yul\":5240:5293   */\n      tag_571\n        /* \"#utility.yul\":5285:5292   */\n      dup7\n        /* \"#utility.yul\":5276:5282   */\n      dup3\n        /* \"#utility.yul\":5265:5274   */\n      dup8\n        /* \"#utility.yul\":5261:5283   */\n      add\n        /* \"#utility.yul\":5240:5293   */\n      tag_443\n      jump\t// in\n    tag_571:\n        /* \"#utility.yul\":5230:5293   */\n      swap3\n      pop\n        /* \"#utility.yul\":5185:5303   */\n      pop\n        /* \"#utility.yul\":5342:5344   */\n      0x40\n        /* \"#utility.yul\":5368:5421   */\n      tag_572\n        /* \"#utility.yul\":5413:5420   */\n      dup7\n        /* \"#utility.yul\":5404:5410   */\n      dup3\n        /* \"#utility.yul\":5393:5402   */\n      dup8\n        /* \"#utility.yul\":5389:5411   */\n      add\n        /* \"#utility.yul\":5368:5421   */\n      tag_446\n      jump\t// in\n    tag_572:\n        /* \"#utility.yul\":5358:5421   */\n      swap2\n      pop\n        /* \"#utility.yul\":5313:5431   */\n      pop\n        /* \"#utility.yul\":4819:5438   */\n      swap3\n      pop\n      swap3\n      pop\n      swap3\n      jump\t// out\n        /* \"#utility.yul\":5444:5530   */\n    tag_455:\n        /* \"#utility.yul\":5479:5486   */\n      0x00\n        /* \"#utility.yul\":5519:5523   */\n      0xff\n        /* \"#utility.yul\":5512:5517   */\n      dup3\n        /* \"#utility.yul\":5508:5524   */\n      and\n        /* \"#utility.yul\":5497:5524   */\n      swap1\n      pop\n        /* \"#utility.yul\":5444:5530   */\n      swap2\n      swap1\n      pop\n      jump\t// out\n        /* \"#utility.yul\":5536:5648   */\n    tag_456:\n        /* \"#utility.yul\":5619:5641   */\n      tag_575\n        /* \"#utility.yul\":5635:5640   */\n      dup2\n        /* \"#utility.yul\":5619:5641   */\n      tag_455\n      jump\t// in\n    tag_575:\n        /* \"#utility.yul\":5614:5617   */\n      dup3\n        /* \"#utility.yul\":5607:5642   */\n      mstore\n        /* \"#utility.yul\":5536:5648   */\n      pop\n      pop\n      jump\t// out\n        /* \"#utility.yul\":5654:5868   */\n    tag_67:\n        /* \"#utility.yul\":5743:5747   */\n      0x00\n        /* \"#utility.yul\":5781:5783   */\n      0x20\n        /* \"#utility.yul\":5770:5779   */\n      dup3\n        /* \"#utility.yul\":5766:5784   */\n      add\n        /* \"#utility.yul\":5758:5784   */\n      swap1\n      pop\n        /* \"#utility.yul\":5794:5861   */\n      tag_577\n        /* \"#utility.yul\":5858:5859   */\n      0x00\n        /* \"#utility.yul\":5847:5856   */\n      dup4\n        /* \"#utility.yul\":5843:5860   */\n      add\n        /* \"#utility.yul\":5834:5840   */\n      dup5\n        /* \"#utility.yul\":5794:5861   */\n      tag_456\n      jump\t// in\n    tag_577:\n        /* \"#utility.yul\":5654:5868   */\n      swap3\n      swap2\n      pop\n      pop\n      jump\t// out\n        /* \"#utility.yul\":5874:5992   */\n    tag_457:\n        /* \"#utility.yul\":5961:5985   */\n      tag_579\n        /* \"#utility.yul\":5979:5984   */\n      dup2\n        /* \"#utility.yul\":5961:5985   */\n      tag_441\n      jump\t// in\n    tag_579:\n        /* \"#utility.yul\":5956:5959   */\n      dup3\n        /* \"#utility.yul\":5949:5986   */\n      mstore\n        /* \"#utility.yul\":5874:5992   */\n      pop\n      pop\n      jump\t// out\n        /* \"#utility.yul\":5998:6220   */\n    tag_72:\n        /* \"#utility.yul\":6091:6095   */\n      0x00\n        /* \"#utility.yul\":6129:6131   */\n      0x20\n        /* \"#utility.yul\":6118:6127   */\n      dup3\n        /* \"#utility.yul\":6114:6132   */\n      add\n        /* \"#utility.yul\":6106:6132   */\n      swap1\n      pop\n        /* \"#utility.yul\":6142:6213   */\n      tag_581\n        /* \"#utility.yul\":6210:6211   */\n      0x00\n        /* \"#utility.yul\":6199:6208   */\n      dup4\n        /* \"#utility.yul\":6195:6212   */\n      add\n        /* \"#utility.yul\":6186:6192   */\n      dup5\n        /* \"#utility.yul\":6142:6213   */\n      tag_457\n      jump\t// in\n    tag_581:\n        /* \"#utility.yul\":5998:6220   */\n      swap3\n      swap2\n      pop\n      pop\n      jump\t// out\n        /* \"#utility.yul\":6226:6376   */\n    tag_458:\n        /* \"#utility.yul\":6300:6309   */\n      0x00\n        /* \"#utility.yul\":6333:6370   */\n      tag_583\n        /* \"#utility.yul\":6364:6369   */\n      dup3\n        /* \"#utility.yul\":6333:6370   */\n      tag_451\n      jump\t// in\n    tag_583:\n        /* \"#utility.yul\":6320:6370   */\n      swap1\n      pop\n        /* \"#utility.yul\":6226:6376   */\n      swap2\n      swap1\n      pop\n      jump\t// out\n        /* \"#utility.yul\":6382:6561   */\n    tag_459:\n        /* \"#utility.yul\":6493:6554   */\n      tag_585\n        /* \"#utility.yul\":6548:6553   */\n      dup2\n        /* \"#utility.yul\":6493:6554   */\n      tag_458\n      jump\t// in\n    tag_585:\n        /* \"#utility.yul\":6488:6491   */\n      dup3\n        /* \"#utility.yul\":6481:6555   */\n      mstore\n        /* \"#utility.yul\":6382:6561   */\n      pop\n      pop\n      jump\t// out\n        /* \"#utility.yul\":6567:6837   */\n    tag_77:\n        /* \"#utility.yul\":6684:6688   */\n      0x00\n        /* \"#utility.yul\":6722:6724   */\n      0x20\n        /* \"#utility.yul\":6711:6720   */\n      dup3\n        /* \"#utility.yul\":6707:6725   */\n      add\n        /* \"#utility.yul\":6699:6725   */\n      swap1\n      pop\n        /* \"#utility.yul\":6735:6830   */\n      tag_587\n        /* \"#utility.yul\":6827:6828   */\n      0x00\n        /* \"#utility.yul\":6816:6825   */\n      dup4\n        /* \"#utility.yul\":6812:6829   */\n      add\n        /* \"#utility.yul\":6803:6809   */\n      dup5\n        /* \"#utility.yul\":6735:6830   */\n      tag_459\n      jump\t// in\n    tag_587:\n        /* \"#utility.yul\":6567:6837   */\n      swap3\n      swap2\n      pop\n      pop\n      jump\t// out\n        /* \"#utility.yul\":6843:6959   */\n    tag_460:\n        /* \"#utility.yul\":6913:6934   */\n      tag_589\n        /* \"#utility.yul\":6928:6933   */\n      dup2\n        /* \"#utility.yul\":6913:6934   */\n      tag_447\n      jump\t// in\n    tag_589:\n        /* \"#utility.yul\":6906:6911   */\n      dup2\n        /* \"#utility.yul\":6903:6935   */\n      eq\n        /* \"#utility.yul\":6893:6953   */\n      tag_590\n      jumpi\n        /* \"#utility.yul\":6949:6950   */\n      0x00\n        /* \"#utility.yul\":6946:6947   */\n      dup1\n        /* \"#utility.yul\":6939:6951   */\n      revert\n        /* \"#utility.yul\":6893:6953   */\n    tag_590:\n        /* \"#utility.yul\":6843:6959   */\n      pop\n      jump\t// out\n        /* \"#utility.yul\":6965:7098   */\n    tag_461:\n        /* \"#utility.yul\":7008:7013   */\n      0x00\n        /* \"#utility.yul\":7046:7052   */\n      dup2\n        /* \"#utility.yul\":7033:7053   */\n      calldataload\n        /* \"#utility.yul\":7024:7053   */\n      swap1\n      pop\n        /* \"#utility.yul\":7062:7092   */\n      tag_592\n        /* \"#utility.yul\":7086:7091   */\n      dup2\n        /* \"#utility.yul\":7062:7092   */\n      tag_460\n      jump\t// in\n    tag_592:\n        /* \"#utility.yul\":6965:7098   */\n      swap3\n      swap2\n      pop\n      pop\n      jump\t// out\n        /* \"#utility.yul\":7104:7427   */\n    tag_81:\n        /* \"#utility.yul\":7160:7166   */\n      0x00\n        /* \"#utility.yul\":7209:7211   */\n      0x20\n        /* \"#utility.yul\":7197:7206   */\n      dup3\n        /* \"#utility.yul\":7188:7195   */\n      dup5\n        /* \"#utility.yul\":7184:7207   */\n      sub\n        /* \"#utility.yul\":7180:7212   */\n      slt\n        /* \"#utility.yul\":7177:7296   */\n      iszero\n      tag_594\n      jumpi\n        /* \"#utility.yul\":7215:7294   */\n      tag_595\n      tag_438\n      jump\t// in\n    tag_595:\n        /* \"#utility.yul\":7177:7296   */\n    tag_594:\n        /* \"#utility.yul\":7335:7336   */\n      0x00\n        /* \"#utility.yul\":7360:7410   */\n      tag_596\n        /* \"#utility.yul\":7402:7409   */\n      dup5\n        /* \"#utility.yul\":7393:7399   */\n      dup3\n        /* \"#utility.yul\":7382:7391   */\n      dup6\n        /* \"#utility.yul\":7378:7400   */\n      add\n        /* \"#utility.yul\":7360:7410   */\n      tag_461\n      jump\t// in\n    tag_596:\n        /* \"#utility.yul\":7350:7410   */\n      swap2\n      pop\n        /* \"#utility.yul\":7306:7420   */\n      pop\n        /* \"#utility.yul\":7104:7427   */\n      swap3\n      swap2\n      pop\n      pop\n      jump\t// out\n        /* \"#utility.yul\":7433:7762   */\n    tag_89:\n        /* \"#utility.yul\":7492:7498   */\n      0x00\n        /* \"#utility.yul\":7541:7543   */\n      0x20\n        /* \"#utility.yul\":7529:7538   */\n      dup3\n        /* \"#utility.yul\":7520:7527   */\n      dup5\n        /* \"#utility.yul\":7516:7539   */\n      sub\n        /* \"#utility.yul\":7512:7544   */\n      slt\n        /* \"#utility.yul\":7509:7628   */\n      iszero\n      tag_598\n      jumpi\n        /* \"#utility.yul\":7547:7626   */\n      tag_599\n      tag_438\n      jump\t// in\n    tag_599:\n        /* \"#utility.yul\":7509:7628   */\n    tag_598:\n        /* \"#utility.yul\":7667:7668   */\n      0x00\n        /* \"#utility.yul\":7692:7745   */\n      tag_600\n        /* \"#utility.yul\":7737:7744   */\n      dup5\n        /* \"#utility.yul\":7728:7734   */\n      dup3\n        /* \"#utility.yul\":7717:7726   */\n      dup6\n        /* \"#utility.yul\":7713:7735   */\n      add\n        /* \"#utility.yul\":7692:7745   */\n      tag_443\n      jump\t// in\n    tag_600:\n        /* \"#utility.yul\":7682:7745   */\n      swap2\n      pop\n        /* \"#utility.yul\":7638:7755   */\n      pop\n        /* \"#utility.yul\":7433:7762   */\n      swap3\n      swap2\n      pop\n      pop\n      jump\t// out\n        /* \"#utility.yul\":7768:7872   */\n    tag_462:\n        /* \"#utility.yul\":7813:7820   */\n      0x00\n        /* \"#utility.yul\":7842:7866   */\n      tag_602\n        /* \"#utility.yul\":7860:7865   */\n      dup3\n        /* \"#utility.yul\":7842:7866   */\n      tag_440\n      jump\t// in\n    tag_602:\n        /* \"#utility.yul\":7831:7866   */\n      swap1\n      pop\n        /* \"#utility.yul\":7768:7872   */\n      swap2\n      swap1\n      pop\n      jump\t// out\n        /* \"#utility.yul\":7878:8016   */\n    tag_463:\n        /* \"#utility.yul\":7959:7991   */\n      tag_604\n        /* \"#utility.yul\":7985:7990   */\n      dup2\n        /* \"#utility.yul\":7959:7991   */\n      tag_462\n      jump\t// in\n    tag_604:\n        /* \"#utility.yul\":7952:7957   */\n      dup2\n        /* \"#utility.yul\":7949:7992   */\n      eq\n        /* \"#utility.yul\":7939:8010   */\n      tag_605\n      jumpi\n        /* \"#utility.yul\":8006:8007   */\n      0x00\n        /* \"#utility.yul\":8003:8004   */\n      dup1\n        /* \"#utility.yul\":7996:8008   */\n      revert\n        /* \"#utility.yul\":7939:8010   */\n    tag_605:\n        /* \"#utility.yul\":7878:8016   */\n      pop\n      jump\t// out\n        /* \"#utility.yul\":8022:8177   */\n    tag_464:\n        /* \"#utility.yul\":8076:8081   */\n      0x00\n        /* \"#utility.yul\":8114:8120   */\n      dup2\n        /* \"#utility.yul\":8101:8121   */\n      calldataload\n        /* \"#utility.yul\":8092:8121   */\n      swap1\n      pop\n        /* \"#utility.yul\":8130:8171   */\n      tag_607\n        /* \"#utility.yul\":8165:8170   */\n      dup2\n        /* \"#utility.yul\":8130:8171   */\n      tag_463\n      jump\t// in\n    tag_607:\n        /* \"#utility.yul\":8022:8177   */\n      swap3\n      swap2\n      pop\n      pop\n      jump\t// out\n        /* \"#utility.yul\":8183:8528   */\n    tag_98:\n        /* \"#utility.yul\":8250:8256   */\n      0x00\n        /* \"#utility.yul\":8299:8301   */\n      0x20\n        /* \"#utility.yul\":8287:8296   */\n      dup3\n        /* \"#utility.yul\":8278:8285   */\n      dup5\n        /* \"#utility.yul\":8274:8297   */\n      sub\n        /* \"#utility.yul\":8270:8302   */\n      slt\n        /* \"#utility.yul\":8267:8386   */\n      iszero\n      tag_609\n      jumpi\n        /* \"#utility.yul\":8305:8384   */\n      tag_610\n      tag_438\n      jump\t// in\n    tag_610:\n        /* \"#utility.yul\":8267:8386   */\n    tag_609:\n        /* \"#utility.yul\":8425:8426   */\n      0x00\n        /* \"#utility.yul\":8450:8511   */\n      tag_611\n        /* \"#utility.yul\":8503:8510   */\n      dup5\n        /* \"#utility.yul\":8494:8500   */\n      dup3\n        /* \"#utility.yul\":8483:8492   */\n      dup6\n        /* \"#utility.yul\":8479:8501   */\n      add\n        /* \"#utility.yul\":8450:8511   */\n      tag_464\n      jump\t// in\n    tag_611:\n        /* \"#utility.yul\":8440:8511   */\n      swap2\n      pop\n        /* \"#utility.yul\":8396:8521   */\n      pop\n        /* \"#utility.yul\":8183:8528   */\n      swap3\n      swap2\n      pop\n      pop\n      jump\t// out\n        /* \"#utility.yul\":8534:9299   */\n    tag_111:\n        /* \"#utility.yul\":8620:8626   */\n      0x00\n        /* \"#utility.yul\":8628:8634   */\n      dup1\n        /* \"#utility.yul\":8636:8642   */\n      0x00\n        /* \"#utility.yul\":8644:8650   */\n      dup1\n        /* \"#utility.yul\":8693:8696   */\n      0x80\n        /* \"#utility.yul\":8681:8690   */\n      dup6\n        /* \"#utility.yul\":8672:8679   */\n      dup8\n        /* \"#utility.yul\":8668:8691   */\n      sub\n        /* \"#utility.yul\":8664:8697   */\n      slt\n        /* \"#utility.yul\":8661:8781   */\n      iszero\n      tag_613\n      jumpi\n        /* \"#utility.yul\":8700:8779   */\n      tag_614\n      tag_438\n      jump\t// in\n    tag_614:\n        /* \"#utility.yul\":8661:8781   */\n    tag_613:\n        /* \"#utility.yul\":8820:8821   */\n      0x00\n        /* \"#utility.yul\":8845:8898   */\n      tag_615\n        /* \"#utility.yul\":8890:8897   */\n      dup8\n        /* \"#utility.yul\":8881:8887   */\n      dup3\n        /* \"#utility.yul\":8870:8879   */\n      dup9\n        /* \"#utility.yul\":8866:8888   */\n      add\n        /* \"#utility.yul\":8845:8898   */\n      tag_446\n      jump\t// in\n    tag_615:\n        /* \"#utility.yul\":8835:8898   */\n      swap5\n      pop\n        /* \"#utility.yul\":8791:8908   */\n      pop\n        /* \"#utility.yul\":8947:8949   */\n      0x20\n        /* \"#utility.yul\":8973:9026   */\n      tag_616\n        /* \"#utility.yul\":9018:9025   */\n      dup8\n        /* \"#utility.yul\":9009:9015   */\n      dup3\n        /* \"#utility.yul\":8998:9007   */\n      dup9\n        /* \"#utility.yul\":8994:9016   */\n      add\n        /* \"#utility.yul\":8973:9026   */\n      tag_446\n      jump\t// in\n    tag_616:\n        /* \"#utility.yul\":8963:9026   */\n      swap4\n      pop\n        /* \"#utility.yul\":8918:9036   */\n      pop\n        /* \"#utility.yul\":9075:9077   */\n      0x40\n        /* \"#utility.yul\":9101:9154   */\n      tag_617\n        /* \"#utility.yul\":9146:9153   */\n      dup8\n        /* \"#utility.yul\":9137:9143   */\n      dup3\n        /* \"#utility.yul\":9126:9135   */\n      dup9\n        /* \"#utility.yul\":9122:9144   */\n      add\n        /* \"#utility.yul\":9101:9154   */\n      tag_446\n      jump\t// in\n    tag_617:\n        /* \"#utility.yul\":9091:9154   */\n      swap3\n      pop\n        /* \"#utility.yul\":9046:9164   */\n      pop\n        /* \"#utility.yul\":9203:9205   */\n      0x60\n        /* \"#utility.yul\":9229:9282   */\n      tag_618\n        /* \"#utility.yul\":9274:9281   */\n      dup8\n        /* \"#utility.yul\":9265:9271   */\n      dup3\n        /* \"#utility.yul\":9254:9263   */\n      dup9\n        /* \"#utility.yul\":9250:9272   */\n      add\n        /* \"#utility.yul\":9229:9282   */\n      tag_446\n      jump\t// in\n    tag_618:\n        /* \"#utility.yul\":9219:9282   */\n      swap2\n      pop\n        /* \"#utility.yul\":9174:9292   */\n      pop\n        /* \"#utility.yul\":8534:9299   */\n      swap3\n      swap6\n      swap2\n      swap5\n      pop\n      swap3\n      pop\n      jump\t// out\n        /* \"#utility.yul\":9305:9422   */\n    tag_465:\n        /* \"#utility.yul\":9414:9415   */\n      0x00\n        /* \"#utility.yul\":9411:9412   */\n      dup1\n        /* \"#utility.yul\":9404:9416   */\n      revert\n        /* \"#utility.yul\":9428:9545   */\n    tag_466:\n        /* \"#utility.yul\":9537:9538   */\n      0x00\n        /* \"#utility.yul\":9534:9535   */\n      dup1\n        /* \"#utility.yul\":9527:9539   */\n      revert\n        /* \"#utility.yul\":9551:9668   */\n    tag_467:\n        /* \"#utility.yul\":9660:9661   */\n      0x00\n        /* \"#utility.yul\":9657:9658   */\n      dup1\n        /* \"#utility.yul\":9650:9662   */\n      revert\n        /* \"#utility.yul\":9691:10259   */\n    tag_468:\n        /* \"#utility.yul\":9764:9772   */\n      0x00\n        /* \"#utility.yul\":9774:9780   */\n      dup1\n        /* \"#utility.yul\":9824:9827   */\n      dup4\n        /* \"#utility.yul\":9817:9821   */\n      0x1f\n        /* \"#utility.yul\":9809:9815   */\n      dup5\n        /* \"#utility.yul\":9805:9822   */\n      add\n        /* \"#utility.yul\":9801:9828   */\n      slt\n        /* \"#utility.yul\":9791:9913   */\n      tag_623\n      jumpi\n        /* \"#utility.yul\":9832:9911   */\n      tag_624\n      tag_465\n      jump\t// in\n    tag_624:\n        /* \"#utility.yul\":9791:9913   */\n    tag_623:\n        /* \"#utility.yul\":9945:9951   */\n      dup3\n        /* \"#utility.yul\":9932:9952   */\n      calldataload\n        /* \"#utility.yul\":9922:9952   */\n      swap1\n      pop\n        /* \"#utility.yul\":9975:9993   */\n      0xffffffffffffffff\n        /* \"#utility.yul\":9967:9973   */\n      dup2\n        /* \"#utility.yul\":9964:9994   */\n      gt\n        /* \"#utility.yul\":9961:10078   */\n      iszero\n      tag_625\n      jumpi\n        /* \"#utility.yul\":9997:10076   */\n      tag_626\n      tag_466\n      jump\t// in\n    tag_626:\n        /* \"#utility.yul\":9961:10078   */\n    tag_625:\n        /* \"#utility.yul\":10111:10115   */\n      0x20\n        /* \"#utility.yul\":10103:10109   */\n      dup4\n        /* \"#utility.yul\":10099:10116   */\n      add\n        /* \"#utility.yul\":10087:10116   */\n      swap2\n      pop\n        /* \"#utility.yul\":10165:10168   */\n      dup4\n        /* \"#utility.yul\":10157:10161   */\n      0x20\n        /* \"#utility.yul\":10149:10155   */\n      dup3\n        /* \"#utility.yul\":10145:10162   */\n      mul\n        /* \"#utility.yul\":10135:10143   */\n      dup4\n        /* \"#utility.yul\":10131:10163   */\n      add\n        /* \"#utility.yul\":10128:10169   */\n      gt\n        /* \"#utility.yul\":10125:10253   */\n      iszero\n      tag_627\n      jumpi\n        /* \"#utility.yul\":10172:10251   */\n      tag_628\n      tag_467\n      jump\t// in\n    tag_628:\n        /* \"#utility.yul\":10125:10253   */\n    tag_627:\n        /* \"#utility.yul\":9691:10259   */\n      swap3\n      pop\n      swap3\n      swap1\n      pop\n      jump\t// out\n        /* \"#utility.yul\":10265:10963   */\n    tag_128:\n        /* \"#utility.yul\":10357:10363   */\n      0x00\n        /* \"#utility.yul\":10365:10371   */\n      dup1\n        /* \"#utility.yul\":10373:10379   */\n      0x00\n        /* \"#utility.yul\":10422:10424   */\n      0x40\n        /* \"#utility.yul\":10410:10419   */\n      dup5\n        /* \"#utility.yul\":10401:10408   */\n      dup7\n        /* \"#utility.yul\":10397:10420   */\n      sub\n        /* \"#utility.yul\":10393:10425   */\n      slt\n        /* \"#utility.yul\":10390:10509   */\n      iszero\n      tag_630\n      jumpi\n        /* \"#utility.yul\":10428:10507   */\n      tag_631\n      tag_438\n      jump\t// in\n    tag_631:\n        /* \"#utility.yul\":10390:10509   */\n    tag_630:\n        /* \"#utility.yul\":10576:10577   */\n      0x00\n        /* \"#utility.yul\":10565:10574   */\n      dup5\n        /* \"#utility.yul\":10561:10578   */\n      add\n        /* \"#utility.yul\":10548:10579   */\n      calldataload\n        /* \"#utility.yul\":10606:10624   */\n      0xffffffffffffffff\n        /* \"#utility.yul\":10598:10604   */\n      dup2\n        /* \"#utility.yul\":10595:10625   */\n      gt\n        /* \"#utility.yul\":10592:10709   */\n      iszero\n      tag_632\n      jumpi\n        /* \"#utility.yul\":10628:10707   */\n      tag_633\n      tag_439\n      jump\t// in\n    tag_633:\n        /* \"#utility.yul\":10592:10709   */\n    tag_632:\n        /* \"#utility.yul\":10741:10821   */\n      tag_634\n        /* \"#utility.yul\":10813:10820   */\n      dup7\n        /* \"#utility.yul\":10804:10810   */\n      dup3\n        /* \"#utility.yul\":10793:10802   */\n      dup8\n        /* \"#utility.yul\":10789:10811   */\n      add\n        /* \"#utility.yul\":10741:10821   */\n      tag_468\n      jump\t// in\n    tag_634:\n        /* \"#utility.yul\":10723:10821   */\n      swap4\n      pop\n      swap4\n      pop\n        /* \"#utility.yul\":10519:10831   */\n      pop\n        /* \"#utility.yul\":10870:10872   */\n      0x20\n        /* \"#utility.yul\":10896:10946   */\n      tag_635\n        /* \"#utility.yul\":10938:10945   */\n      dup7\n        /* \"#utility.yul\":10929:10935   */\n      dup3\n        /* \"#utility.yul\":10918:10927   */\n      dup8\n        /* \"#utility.yul\":10914:10936   */\n      add\n        /* \"#utility.yul\":10896:10946   */\n      tag_461\n      jump\t// in\n    tag_635:\n        /* \"#utility.yul\":10886:10946   */\n      swap2\n      pop\n        /* \"#utility.yul\":10841:10956   */\n      pop\n        /* \"#utility.yul\":10265:10963   */\n      swap3\n      pop\n      swap3\n      pop\n      swap3\n      jump\t// out\n        /* \"#utility.yul\":10969:11443   */\n    tag_133:\n        /* \"#utility.yul\":11037:11043   */\n      0x00\n        /* \"#utility.yul\":11045:11051   */\n      dup1\n        /* \"#utility.yul\":11094:11096   */\n      0x40\n        /* \"#utility.yul\":11082:11091   */\n      dup4\n        /* \"#utility.yul\":11073:11080   */\n      dup6\n        /* \"#utility.yul\":11069:11092   */\n      sub\n        /* \"#utility.yul\":11065:11097   */\n      slt\n        /* \"#utility.yul\":11062:11181   */\n      iszero\n      tag_637\n      jumpi\n        /* \"#utility.yul\":11100:11179   */\n      tag_638\n      tag_438\n      jump\t// in\n    tag_638:\n        /* \"#utility.yul\":11062:11181   */\n    tag_637:\n        /* \"#utility.yul\":11220:11221   */\n      0x00\n        /* \"#utility.yul\":11245:11298   */\n      tag_639\n        /* \"#utility.yul\":11290:11297   */\n      dup6\n        /* \"#utility.yul\":11281:11287   */\n      dup3\n        /* \"#utility.yul\":11270:11279   */\n      dup7\n        /* \"#utility.yul\":11266:11288   */\n      add\n        /* \"#utility.yul\":11245:11298   */\n      tag_443\n      jump\t// in\n    tag_639:\n        /* \"#utility.yul\":11235:11298   */\n      swap3\n      pop\n        /* \"#utility.yul\":11191:11308   */\n      pop\n        /* \"#utility.yul\":11347:11349   */\n      0x20\n        /* \"#utility.yul\":11373:11426   */\n      tag_640\n        /* \"#utility.yul\":11418:11425   */\n      dup6\n        /* \"#utility.yul\":11409:11415   */\n      dup3\n        /* \"#utility.yul\":11398:11407   */\n      dup7\n        /* \"#utility.yul\":11394:11416   */\n      add\n        /* \"#utility.yul\":11373:11426   */\n      tag_443\n      jump\t// in\n    tag_640:\n        /* \"#utility.yul\":11363:11426   */\n      swap2\n      pop\n        /* \"#utility.yul\":11318:11436   */\n      pop\n        /* \"#utility.yul\":10969:11443   */\n      swap3\n      pop\n      swap3\n      swap1\n      pop\n      jump\t// out\n        /* \"#utility.yul\":11449:11622   */\n    tag_469:\n        /* \"#utility.yul\":11589:11614   */\n      0x43616c6c6572206973206e6f7420746865206f776e6572000000000000000000\n        /* \"#utility.yul\":11585:11586   */\n      0x00\n        /* \"#utility.yul\":11577:11583   */\n      dup3\n        /* \"#utility.yul\":11573:11587   */\n      add\n        /* \"#utility.yul\":11566:11615   */\n      mstore\n        /* \"#utility.yul\":11449:11622   */\n      pop\n      jump\t// out\n        /* \"#utility.yul\":11628:11994   */\n    tag_470:\n        /* \"#utility.yul\":11770:11773   */\n      0x00\n        /* \"#utility.yul\":11791:11858   */\n      tag_643\n        /* \"#utility.yul\":11855:11857   */\n      0x17\n        /* \"#utility.yul\":11850:11853   */\n      dup4\n        /* \"#utility.yul\":11791:11858   */\n      tag_433\n      jump\t// in\n    tag_643:\n        /* \"#utility.yul\":11784:11858   */\n      swap2\n      pop\n        /* \"#utility.yul\":11867:11960   */\n      tag_644\n        /* \"#utility.yul\":11956:11959   */\n      dup3\n        /* \"#utility.yul\":11867:11960   */\n      tag_469\n      jump\t// in\n    tag_644:\n        /* \"#utility.yul\":11985:11987   */\n      0x20\n        /* \"#utility.yul\":11980:11983   */\n      dup3\n        /* \"#utility.yul\":11976:11988   */\n      add\n        /* \"#utility.yul\":11969:11988   */\n      swap1\n      pop\n        /* \"#utility.yul\":11628:11994   */\n      swap2\n      swap1\n      pop\n      jump\t// out\n        /* \"#utility.yul\":12000:12419   */\n    tag_149:\n        /* \"#utility.yul\":12166:12170   */\n      0x00\n        /* \"#utility.yul\":12204:12206   */\n      0x20\n        /* \"#utility.yul\":12193:12202   */\n      dup3\n        /* \"#utility.yul\":12189:12207   */\n      add\n        /* \"#utility.yul\":12181:12207   */\n      swap1\n      pop\n        /* \"#utility.yul\":12253:12262   */\n      dup2\n        /* \"#utility.yul\":12247:12251   */\n      dup2\n        /* \"#utility.yul\":12243:12263   */\n      sub\n        /* \"#utility.yul\":12239:12240   */\n      0x00\n        /* \"#utility.yul\":12228:12237   */\n      dup4\n        /* \"#utility.yul\":12224:12241   */\n      add\n        /* \"#utility.yul\":12217:12264   */\n      mstore\n        /* \"#utility.yul\":12281:12412   */\n      tag_646\n        /* \"#utility.yul\":12407:12411   */\n      dup2\n        /* \"#utility.yul\":12281:12412   */\n      tag_470\n      jump\t// in\n    tag_646:\n        /* \"#utility.yul\":12273:12412   */\n      swap1\n      pop\n        /* \"#utility.yul\":12000:12419   */\n      swap2\n      swap1\n      pop\n      jump\t// out\n        /* \"#utility.yul\":12425:12596   */\n    tag_471:\n        /* \"#utility.yul\":12565:12588   */\n      0x43616c6c6572206973206e6f7420746865206465760000000000000000000000\n        /* \"#utility.yul\":12561:12562   */\n      0x00\n        /* \"#utility.yul\":12553:12559   */\n      dup3\n        /* \"#utility.yul\":12549:12563   */\n      add\n        /* \"#utility.yul\":12542:12589   */\n      mstore\n        /* \"#utility.yul\":12425:12596   */\n      pop\n      jump\t// out\n        /* \"#utility.yul\":12602:12968   */\n    tag_472:\n        /* \"#utility.yul\":12744:12747   */\n      0x00\n        /* \"#utility.yul\":12765:12832   */\n      tag_649\n        /* \"#utility.yul\":12829:12831   */\n      0x15\n        /* \"#utility.yul\":12824:12827   */\n      dup4\n        /* \"#utility.yul\":12765:12832   */\n      tag_433\n      jump\t// in\n    tag_649:\n        /* \"#utility.yul\":12758:12832   */\n      swap2\n      pop\n        /* \"#utility.yul\":12841:12934   */\n      tag_650\n        /* \"#utility.yul\":12930:12933   */\n      dup3\n        /* \"#utility.yul\":12841:12934   */\n      tag_471\n      jump\t// in\n    tag_650:\n        /* \"#utility.yul\":12959:12961   */\n      0x20\n        /* \"#utility.yul\":12954:12957   */\n      dup3\n        /* \"#utility.yul\":12950:12962   */\n      add\n        /* \"#utility.yul\":12943:12962   */\n      swap1\n      pop\n        /* \"#utility.yul\":12602:12968   */\n      swap2\n      swap1\n      pop\n      jump\t// out\n        /* \"#utility.yul\":12974:13393   */\n    tag_173:\n        /* \"#utility.yul\":13140:13144   */\n      0x00\n        /* \"#utility.yul\":13178:13180   */\n      0x20\n        /* \"#utility.yul\":13167:13176   */\n      dup3\n        /* \"#utility.yul\":13163:13181   */\n      add\n        /* \"#utility.yul\":13155:13181   */\n      swap1\n      pop\n        /* \"#utility.yul\":13227:13236   */\n      dup2\n        /* \"#utility.yul\":13221:13225   */\n      dup2\n        /* \"#utility.yul\":13217:13237   */\n      sub\n        /* \"#utility.yul\":13213:13214   */\n      0x00\n        /* \"#utility.yul\":13202:13211   */\n      dup4\n        /* \"#utility.yul\":13198:13215   */\n      add\n        /* \"#utility.yul\":13191:13238   */\n      mstore\n        /* \"#utility.yul\":13255:13386   */\n      tag_652\n        /* \"#utility.yul\":13381:13385   */\n      dup2\n        /* \"#utility.yul\":13255:13386   */\n      tag_472\n      jump\t// in\n    tag_652:\n        /* \"#utility.yul\":13247:13386   */\n      swap1\n      pop\n        /* \"#utility.yul\":12974:13393   */\n      swap2\n      swap1\n      pop\n      jump\t// out\n        /* \"#utility.yul\":13399:13578   */\n    tag_473:\n        /* \"#utility.yul\":13539:13570   */\n      0x52656469732063616e6e6f74206265206d6f7265207468616e2031302e000000\n        /* \"#utility.yul\":13535:13536   */\n      0x00\n        /* \"#utility.yul\":13527:13533   */\n      dup3\n        /* \"#utility.yul\":13523:13537   */\n      add\n        /* \"#utility.yul\":13516:13571   */\n      mstore\n        /* \"#utility.yul\":13399:13578   */\n      pop\n      jump\t// out\n        /* \"#utility.yul\":13584:13950   */\n    tag_474:\n        /* \"#utility.yul\":13726:13729   */\n      0x00\n        /* \"#utility.yul\":13747:13814   */\n      tag_655\n        /* \"#utility.yul\":13811:13813   */\n      0x1d\n        /* \"#utility.yul\":13806:13809   */\n      dup4\n        /* \"#utility.yul\":13747:13814   */\n      tag_433\n      jump\t// in\n    tag_655:\n        /* \"#utility.yul\":13740:13814   */\n      swap2\n      pop\n        /* \"#utility.yul\":13823:13916   */\n      tag_656\n        /* \"#utility.yul\":13912:13915   */\n      dup3\n        /* \"#utility.yul\":13823:13916   */\n      tag_473\n      jump\t// in\n    tag_656:\n        /* \"#utility.yul\":13941:13943   */\n      0x20\n        /* \"#utility.yul\":13936:13939   */\n      dup3\n        /* \"#utility.yul\":13932:13944   */\n      add\n        /* \"#utility.yul\":13925:13944   */\n      swap1\n      pop\n        /* \"#utility.yul\":13584:13950   */\n      swap2\n      swap1\n      pop\n      jump\t// out\n        /* \"#utility.yul\":13956:14375   */\n    tag_213:\n        /* \"#utility.yul\":14122:14126   */\n      0x00\n        /* \"#utility.yul\":14160:14162   */\n      0x20\n        /* \"#utility.yul\":14149:14158   */\n      dup3\n        /* \"#utility.yul\":14145:14163   */\n      add\n        /* \"#utility.yul\":14137:14163   */\n      swap1\n      pop\n        /* \"#utility.yul\":14209:14218   */\n      dup2\n        /* \"#utility.yul\":14203:14207   */\n      dup2\n        /* \"#utility.yul\":14199:14219   */\n      sub\n        /* \"#utility.yul\":14195:14196   */\n      0x00\n        /* \"#utility.yul\":14184:14193   */\n      dup4\n        /* \"#utility.yul\":14180:14197   */\n      add\n        /* \"#utility.yul\":14173:14220   */\n      mstore\n        /* \"#utility.yul\":14237:14368   */\n      tag_658\n        /* \"#utility.yul\":14363:14367   */\n      dup2\n        /* \"#utility.yul\":14237:14368   */\n      tag_474\n      jump\t// in\n    tag_658:\n        /* \"#utility.yul\":14229:14368   */\n      swap1\n      pop\n        /* \"#utility.yul\":13956:14375   */\n      swap2\n      swap1\n      pop\n      jump\t// out\n        /* \"#utility.yul\":14381:14557   */\n    tag_475:\n        /* \"#utility.yul\":14521:14549   */\n      0x5461782063616e6e6f74206265206d6f7265207468616e20362e000000000000\n        /* \"#utility.yul\":14517:14518   */\n      0x00\n        /* \"#utility.yul\":14509:14515   */\n      dup3\n        /* \"#utility.yul\":14505:14519   */\n      add\n        /* \"#utility.yul\":14498:14550   */\n      mstore\n        /* \"#utility.yul\":14381:14557   */\n      pop\n      jump\t// out\n        /* \"#utility.yul\":14563:14929   */\n    tag_476:\n        /* \"#utility.yul\":14705:14708   */\n      0x00\n        /* \"#utility.yul\":14726:14793   */\n      tag_661\n        /* \"#utility.yul\":14790:14792   */\n      0x1a\n        /* \"#utility.yul\":14785:14788   */\n      dup4\n        /* \"#utility.yul\":14726:14793   */\n      tag_433\n      jump\t// in\n    tag_661:\n        /* \"#utility.yul\":14719:14793   */\n      swap2\n      pop\n        /* \"#utility.yul\":14802:14895   */\n      tag_662\n        /* \"#utility.yul\":14891:14894   */\n      dup3\n        /* \"#utility.yul\":14802:14895   */\n      tag_475\n      jump\t// in\n    tag_662:\n        /* \"#utility.yul\":14920:14922   */\n      0x20\n        /* \"#utility.yul\":14915:14918   */\n      dup3\n        /* \"#utility.yul\":14911:14923   */\n      add\n        /* \"#utility.yul\":14904:14923   */\n      swap1\n      pop\n        /* \"#utility.yul\":14563:14929   */\n      swap2\n      swap1\n      pop\n      jump\t// out\n        /* \"#utility.yul\":14935:15354   */\n    tag_218:\n        /* \"#utility.yul\":15101:15105   */\n      0x00\n        /* \"#utility.yul\":15139:15141   */\n      0x20\n        /* \"#utility.yul\":15128:15137   */\n      dup3\n        /* \"#utility.yul\":15124:15142   */\n      add\n        /* \"#utility.yul\":15116:15142   */\n      swap1\n      pop\n        /* \"#utility.yul\":15188:15197   */\n      dup2\n        /* \"#utility.yul\":15182:15186   */\n      dup2\n        /* \"#utility.yul\":15178:15198   */\n      sub\n        /* \"#utility.yul\":15174:15175   */\n      0x00\n        /* \"#utility.yul\":15163:15172   */\n      dup4\n        /* \"#utility.yul\":15159:15176   */\n      add\n        /* \"#utility.yul\":15152:15199   */\n      mstore\n        /* \"#utility.yul\":15216:15347   */\n      tag_664\n        /* \"#utility.yul\":15342:15346   */\n      dup2\n        /* \"#utility.yul\":15216:15347   */\n      tag_476\n      jump\t// in\n    tag_664:\n        /* \"#utility.yul\":15208:15347   */\n      swap1\n      pop\n        /* \"#utility.yul\":14935:15354   */\n      swap2\n      swap1\n      pop\n      jump\t// out\n        /* \"#utility.yul\":15360:15540   */\n    tag_253:\n        /* \"#utility.yul\":15408:15485   */\n      0x4e487b7100000000000000000000000000000000000000000000000000000000\n        /* \"#utility.yul\":15405:15406   */\n      0x00\n        /* \"#utility.yul\":15398:15486   */\n      mstore\n        /* \"#utility.yul\":15505:15509   */\n      0x32\n        /* \"#utility.yul\":15502:15503   */\n      0x04\n        /* \"#utility.yul\":15495:15510   */\n      mstore\n        /* \"#utility.yul\":15529:15533   */\n      0x24\n        /* \"#utility.yul\":15526:15527   */\n      0x00\n        /* \"#utility.yul\":15519:15534   */\n      revert\n        /* \"#utility.yul\":15546:15726   */\n    tag_477:\n        /* \"#utility.yul\":15594:15671   */\n      0x4e487b7100000000000000000000000000000000000000000000000000000000\n        /* \"#utility.yul\":15591:15592   */\n      0x00\n        /* \"#utility.yul\":15584:15672   */\n      mstore\n        /* \"#utility.yul\":15691:15695   */\n      0x11\n        /* \"#utility.yul\":15688:15689   */\n      0x04\n        /* \"#utility.yul\":15681:15696   */\n      mstore\n        /* \"#utility.yul\":15715:15719   */\n      0x24\n        /* \"#utility.yul\":15712:15713   */\n      0x00\n        /* \"#utility.yul\":15705:15720   */\n      revert\n        /* \"#utility.yul\":15732:15965   */\n    tag_256:\n        /* \"#utility.yul\":15771:15774   */\n      0x00\n        /* \"#utility.yul\":15794:15818   */\n      tag_668\n        /* \"#utility.yul\":15812:15817   */\n      dup3\n        /* \"#utility.yul\":15794:15818   */\n      tag_444\n      jump\t// in\n    tag_668:\n        /* \"#utility.yul\":15785:15818   */\n      swap2\n      pop\n        /* \"#utility.yul\":15840:15906   */\n      0xffffffffffffffffffffffffffffffffffffffffffffffffffffffffffffffff\n        /* \"#utility.yul\":15833:15838   */\n      dup3\n        /* \"#utility.yul\":15830:15907   */\n      sub\n        /* \"#utility.yul\":15827:15930   */\n      tag_669\n      jumpi\n        /* \"#utility.yul\":15910:15928   */\n      tag_670\n      tag_477\n      jump\t// in\n    tag_670:\n        /* \"#utility.yul\":15827:15930   */\n    tag_669:\n        /* \"#utility.yul\":15957:15958   */\n      0x01\n        /* \"#utility.yul\":15950:15955   */\n      dup3\n        /* \"#utility.yul\":15946:15959   */\n      add\n        /* \"#utility.yul\":15939:15959   */\n      swap1\n      pop\n        /* \"#utility.yul\":15732:15965   */\n      swap2\n      swap1\n      pop\n      jump\t// out\n        /* \"#utility.yul\":15971:16303   */\n    tag_268:\n        /* \"#utility.yul\":16092:16096   */\n      0x00\n        /* \"#utility.yul\":16130:16132   */\n      0x40\n        /* \"#utility.yul\":16119:16128   */\n      dup3\n        /* \"#utility.yul\":16115:16133   */\n      add\n        /* \"#utility.yul\":16107:16133   */\n      swap1\n      pop\n        /* \"#utility.yul\":16143:16214   */\n      tag_672\n        /* \"#utility.yul\":16211:16212   */\n      0x00\n        /* \"#utility.yul\":16200:16209   */\n      dup4\n        /* \"#utility.yul\":16196:16213   */\n      add\n        /* \"#utility.yul\":16187:16193   */\n      dup6\n        /* \"#utility.yul\":16143:16214   */\n      tag_457\n      jump\t// in\n    tag_672:\n        /* \"#utility.yul\":16224:16296   */\n      tag_673\n        /* \"#utility.yul\":16292:16294   */\n      0x20\n        /* \"#utility.yul\":16281:16290   */\n      dup4\n        /* \"#utility.yul\":16277:16295   */\n      add\n        /* \"#utility.yul\":16268:16274   */\n      dup5\n        /* \"#utility.yul\":16224:16296   */\n      tag_454\n      jump\t// in\n    tag_673:\n        /* \"#utility.yul\":15971:16303   */\n      swap4\n      swap3\n      pop\n      pop\n      pop\n      jump\t// out\n        /* \"#utility.yul\":16309:16446   */\n    tag_478:\n        /* \"#utility.yul\":16363:16368   */\n      0x00\n        /* \"#utility.yul\":16394:16400   */\n      dup2\n        /* \"#utility.yul\":16388:16401   */\n      mload\n        /* \"#utility.yul\":16379:16401   */\n      swap1\n      pop\n        /* \"#utility.yul\":16410:16440   */\n      tag_675\n        /* \"#utility.yul\":16434:16439   */\n      dup2\n        /* \"#utility.yul\":16410:16440   */\n      tag_460\n      jump\t// in\n    tag_675:\n        /* \"#utility.yul\":16309:16446   */\n      swap3\n      swap2\n      pop\n      pop\n      jump\t// out\n        /* \"#utility.yul\":16452:16797   */\n    tag_272:\n        /* \"#utility.yul\":16519:16525   */\n      0x00\n        /* \"#utility.yul\":16568:16570   */\n      0x20\n        /* \"#utility.yul\":16556:16565   */\n      dup3\n        /* \"#utility.yul\":16547:16554   */\n      dup5\n        /* \"#utility.yul\":16543:16566   */\n      sub\n        /* \"#utility.yul\":16539:16571   */\n      slt\n        /* \"#utility.yul\":16536:16655   */\n      iszero\n      tag_677\n      jumpi\n        /* \"#utility.yul\":16574:16653   */\n      tag_678\n      tag_438\n      jump\t// in\n    tag_678:\n        /* \"#utility.yul\":16536:16655   */\n    tag_677:\n        /* \"#utility.yul\":16694:16695   */\n      0x00\n        /* \"#utility.yul\":16719:16780   */\n      tag_679\n        /* \"#utility.yul\":16772:16779   */\n      dup5\n        /* \"#utility.yul\":16763:16769   */\n      dup3\n        /* \"#utility.yul\":16752:16761   */\n      dup6\n        /* \"#utility.yul\":16748:16770   */\n      add\n        /* \"#utility.yul\":16719:16780   */\n      tag_478\n      jump\t// in\n    tag_679:\n        /* \"#utility.yul\":16709:16780   */\n      swap2\n      pop\n        /* \"#utility.yul\":16665:16790   */\n      pop\n        /* \"#utility.yul\":16452:16797   */\n      swap3\n      swap2\n      pop\n      pop\n      jump\t// out\n        /* \"#utility.yul\":16803:17026   */\n    tag_479:\n        /* \"#utility.yul\":16943:16977   */\n      0x45524332303a20617070726f76652066726f6d20746865207a65726f20616464\n        /* \"#utility.yul\":16939:16940   */\n      0x00\n        /* \"#utility.yul\":16931:16937   */\n      dup3\n        /* \"#utility.yul\":16927:16941   */\n      add\n        /* \"#utility.yul\":16920:16978   */\n      mstore\n        /* \"#utility.yul\":17012:17018   */\n      0x7265737300000000000000000000000000000000000000000000000000000000\n        /* \"#utility.yul\":17007:17009   */\n      0x20\n        /* \"#utility.yul\":16999:17005   */\n      dup3\n        /* \"#utility.yul\":16995:17010   */\n      add\n        /* \"#utility.yul\":16988:17019   */\n      mstore\n        /* \"#utility.yul\":16803:17026   */\n      pop\n      jump\t// out\n        /* \"#utility.yul\":17032:17398   */\n    tag_480:\n        /* \"#utility.yul\":17174:17177   */\n      0x00\n        /* \"#utility.yul\":17195:17262   */\n      tag_682\n        /* \"#utility.yul\":17259:17261   */\n      0x24\n        /* \"#utility.yul\":17254:17257   */\n      dup4\n        /* \"#utility.yul\":17195:17262   */\n      tag_433\n      jump\t// in\n    tag_682:\n        /* \"#utility.yul\":17188:17262   */\n      swap2\n      pop\n        /* \"#utility.yul\":17271:17364   */\n      tag_683\n        /* \"#utility.yul\":17360:17363   */\n      dup3\n        /* \"#utility.yul\":17271:17364   */\n      tag_479\n      jump\t// in\n    tag_683:\n        /* \"#utility.yul\":17389:17391   */\n      0x40\n        /* \"#utility.yul\":17384:17387   */\n      dup3\n        /* \"#utility.yul\":17380:17392   */\n      add\n        /* \"#utility.yul\":17373:17392   */\n      swap1\n      pop\n        /* \"#utility.yul\":17032:17398   */\n      swap2\n      swap1\n      pop\n      jump\t// out\n        /* \"#utility.yul\":17404:17823   */\n    tag_282:\n        /* \"#utility.yul\":17570:17574   */\n      0x00\n        /* \"#utility.yul\":17608:17610   */\n      0x20\n        /* \"#utility.yul\":17597:17606   */\n      dup3\n        /* \"#utility.yul\":17593:17611   */\n      add\n        /* \"#utility.yul\":17585:17611   */\n      swap1\n      pop\n        /* \"#utility.yul\":17657:17666   */\n      dup2\n        /* \"#utility.yul\":17651:17655   */\n      dup2\n        /* \"#utility.yul\":17647:17667   */\n      sub\n        /* \"#utility.yul\":17643:17644   */\n      0x00\n        /* \"#utility.yul\":17632:17641   */\n      dup4\n        /* \"#utility.yul\":17628:17645   */\n      add\n        /* \"#utility.yul\":17621:17668   */\n      mstore\n        /* \"#utility.yul\":17685:17816   */\n      tag_685\n        /* \"#utility.yul\":17811:17815   */\n      dup2\n        /* \"#utility.yul\":17685:17816   */\n      tag_480\n      jump\t// in\n    tag_685:\n        /* \"#utility.yul\":17677:17816   */\n      swap1\n      pop\n        /* \"#utility.yul\":17404:17823   */\n      swap2\n      swap1\n      pop\n      jump\t// out\n        /* \"#utility.yul\":17829:18050   */\n    tag_481:\n        /* \"#utility.yul\":17969:18003   */\n      0x45524332303a20617070726f766520746f20746865207a65726f206164647265\n        /* \"#utility.yul\":17965:17966   */\n      0x00\n        /* \"#utility.yul\":17957:17963   */\n      dup3\n        /* \"#utility.yul\":17953:17967   */\n      add\n        /* \"#utility.yul\":17946:18004   */\n      mstore\n        /* \"#utility.yul\":18038:18042   */\n      0x7373000000000000000000000000000000000000000000000000000000000000\n        /* \"#utility.yul\":18033:18035   */\n      0x20\n        /* \"#utility.yul\":18025:18031   */\n      dup3\n        /* \"#utility.yul\":18021:18036   */\n      add\n        /* \"#utility.yul\":18014:18043   */\n      mstore\n        /* \"#utility.yul\":17829:18050   */\n      pop\n      jump\t// out\n        /* \"#utility.yul\":18056:18422   */\n    tag_482:\n        /* \"#utility.yul\":18198:18201   */\n      0x00\n        /* \"#utility.yul\":18219:18286   */\n      tag_688\n        /* \"#utility.yul\":18283:18285   */\n      0x22\n        /* \"#utility.yul\":18278:18281   */\n      dup4\n        /* \"#utility.yul\":18219:18286   */\n      tag_433\n      jump\t// in\n    tag_688:\n        /* \"#utility.yul\":18212:18286   */\n      swap2\n      pop\n        /* \"#utility.yul\":18295:18388   */\n      tag_689\n        /* \"#utility.yul\":18384:18387   */\n      dup3\n        /* \"#utility.yul\":18295:18388   */\n      tag_481\n      jump\t// in\n    tag_689:\n        /* \"#utility.yul\":18413:18415   */\n      0x40\n        /* \"#utility.yul\":18408:18411   */\n      dup3\n        /* \"#utility.yul\":18404:18416   */\n      add\n        /* \"#utility.yul\":18397:18416   */\n      swap1\n      pop\n        /* \"#utility.yul\":18056:18422   */\n      swap2\n      swap1\n      pop\n      jump\t// out\n        /* \"#utility.yul\":18428:18847   */\n    tag_285:\n        /* \"#utility.yul\":18594:18598   */\n      0x00\n        /* \"#utility.yul\":18632:18634   */\n      0x20\n        /* \"#utility.yul\":18621:18630   */\n      dup3\n        /* \"#utility.yul\":18617:18635   */\n      add\n        /* \"#utility.yul\":18609:18635   */\n      swap1\n      pop\n        /* \"#utility.yul\":18681:18690   */\n      dup2\n        /* \"#utility.yul\":18675:18679   */\n      dup2\n        /* \"#utility.yul\":18671:18691   */\n      sub\n        /* \"#utility.yul\":18667:18668   */\n      0x00\n        /* \"#utility.yul\":18656:18665   */\n      dup4\n        /* \"#utility.yul\":18652:18669   */\n      add\n        /* \"#utility.yul\":18645:18692   */\n      mstore\n        /* \"#utility.yul\":18709:18840   */\n      tag_691\n        /* \"#utility.yul\":18835:18839   */\n      dup2\n        /* \"#utility.yul\":18709:18840   */\n      tag_482\n      jump\t// in\n    tag_691:\n        /* \"#utility.yul\":18701:18840   */\n      swap1\n      pop\n        /* \"#utility.yul\":18428:18847   */\n      swap2\n      swap1\n      pop\n      jump\t// out\n        /* \"#utility.yul\":18853:19077   */\n    tag_483:\n        /* \"#utility.yul\":18993:19027   */\n      0x45524332303a207472616e736665722066726f6d20746865207a65726f206164\n        /* \"#utility.yul\":18989:18990   */\n      0x00\n        /* \"#utility.yul\":18981:18987   */\n      dup3\n        /* \"#utility.yul\":18977:18991   */\n      add\n        /* \"#utility.yul\":18970:19028   */\n      mstore\n        /* \"#utility.yul\":19062:19069   */\n      0x6472657373000000000000000000000000000000000000000000000000000000\n        /* \"#utility.yul\":19057:19059   */\n      0x20\n        /* \"#utility.yul\":19049:19055   */\n      dup3\n        /* \"#utility.yul\":19045:19060   */\n      add\n        /* \"#utility.yul\":19038:19070   */\n      mstore\n        /* \"#utility.yul\":18853:19077   */\n      pop\n      jump\t// out\n        /* \"#utility.yul\":19083:19449   */\n    tag_484:\n        /* \"#utility.yul\":19225:19228   */\n      0x00\n        /* \"#utility.yul\":19246:19313   */\n      tag_694\n        /* \"#utility.yul\":19310:19312   */\n      0x25\n        /* \"#utility.yul\":19305:19308   */\n      dup4\n        /* \"#utility.yul\":19246:19313   */\n      tag_433\n      jump\t// in\n    tag_694:\n        /* \"#utility.yul\":19239:19313   */\n      swap2\n      pop\n        /* \"#utility.yul\":19322:19415   */\n      tag_695\n        /* \"#utility.yul\":19411:19414   */\n      dup3\n        /* \"#utility.yul\":19322:19415   */\n      tag_483\n      jump\t// in\n    tag_695:\n        /* \"#utility.yul\":19440:19442   */\n      0x40\n        /* \"#utility.yul\":19435:19438   */\n      dup3\n        /* \"#utility.yul\":19431:19443   */\n      add\n        /* \"#utility.yul\":19424:19443   */\n      swap1\n      pop\n        /* \"#utility.yul\":19083:19449   */\n      swap2\n      swap1\n      pop\n      jump\t// out\n        /* \"#utility.yul\":19455:19874   */\n    tag_290:\n        /* \"#utility.yul\":19621:19625   */\n      0x00\n        /* \"#utility.yul\":19659:19661   */\n      0x20\n        /* \"#utility.yul\":19648:19657   */\n      dup3\n        /* \"#utility.yul\":19644:19662   */\n      add\n        /* \"#utility.yul\":19636:19662   */\n      swap1\n      pop\n        /* \"#utility.yul\":19708:19717   */\n      dup2\n        /* \"#utility.yul\":19702:19706   */\n      dup2\n        /* \"#utility.yul\":19698:19718   */\n      sub\n        /* \"#utility.yul\":19694:19695   */\n      0x00\n        /* \"#utility.yul\":19683:19692   */\n      dup4\n        /* \"#utility.yul\":19679:19696   */\n      add\n        /* \"#utility.yul\":19672:19719   */\n      mstore\n        /* \"#utility.yul\":19736:19867   */\n      tag_697\n        /* \"#utility.yul\":19862:19866   */\n      dup2\n        /* \"#utility.yul\":19736:19867   */\n      tag_484\n      jump\t// in\n    tag_697:\n        /* \"#utility.yul\":19728:19867   */\n      swap1\n      pop\n        /* \"#utility.yul\":19455:19874   */\n      swap2\n      swap1\n      pop\n      jump\t// out\n        /* \"#utility.yul\":19880:20102   */\n    tag_485:\n        /* \"#utility.yul\":20020:20054   */\n      0x45524332303a207472616e7366657220746f20746865207a65726f2061646472\n        /* \"#utility.yul\":20016:20017   */\n      0x00\n        /* \"#utility.yul\":20008:20014   */\n      dup3\n        /* \"#utility.yul\":20004:20018   */\n      add\n        /* \"#utility.yul\":19997:20055   */\n      mstore\n        /* \"#utility.yul\":20089:20094   */\n      0x6573730000000000000000000000000000000000000000000000000000000000\n        /* \"#utility.yul\":20084:20086   */\n      0x20\n        /* \"#utility.yul\":20076:20082   */\n      dup3\n        /* \"#utility.yul\":20072:20087   */\n      add\n        /* \"#utility.yul\":20065:20095   */\n      mstore\n        /* \"#utility.yul\":19880:20102   */\n      pop\n      jump\t// out\n        /* \"#utility.yul\":20108:20474   */\n    tag_486:\n        /* \"#utility.yul\":20250:20253   */\n      0x00\n        /* \"#utility.yul\":20271:20338   */\n      tag_700\n        /* \"#utility.yul\":20335:20337   */\n      0x23\n        /* \"#utility.yul\":20330:20333   */\n      dup4\n        /* \"#utility.yul\":20271:20338   */\n      tag_433\n      jump\t// in\n    tag_700:\n        /* \"#utility.yul\":20264:20338   */\n      swap2\n      pop\n        /* \"#utility.yul\":20347:20440   */\n      tag_701\n        /* \"#utility.yul\":20436:20439   */\n      dup3\n        /* \"#utility.yul\":20347:20440   */\n      tag_485\n      jump\t// in\n    tag_701:\n        /* \"#utility.yul\":20465:20467   */\n      0x40\n        /* \"#utility.yul\":20460:20463   */\n      dup3\n        /* \"#utility.yul\":20456:20468   */\n      add\n        /* \"#utility.yul\":20449:20468   */\n      swap1\n      pop\n        /* \"#utility.yul\":20108:20474   */\n      swap2\n      swap1\n      pop\n      jump\t// out\n        /* \"#utility.yul\":20480:20899   */\n    tag_293:\n        /* \"#utility.yul\":20646:20650   */\n      0x00\n        /* \"#utility.yul\":20684:20686   */\n      0x20\n        /* \"#utility.yul\":20673:20682   */\n      dup3\n        /* \"#utility.yul\":20669:20687   */\n      add\n        /* \"#utility.yul\":20661:20687   */\n      swap1\n      pop\n        /* \"#utility.yul\":20733:20742   */\n      dup2\n        /* \"#utility.yul\":20727:20731   */\n      dup2\n        /* \"#utility.yul\":20723:20743   */\n      sub\n        /* \"#utility.yul\":20719:20720   */\n      0x00\n        /* \"#utility.yul\":20708:20717   */\n      dup4\n        /* \"#utility.yul\":20704:20721   */\n      add\n        /* \"#utility.yul\":20697:20744   */\n      mstore\n        /* \"#utility.yul\":20761:20892   */\n      tag_703\n        /* \"#utility.yul\":20887:20891   */\n      dup2\n        /* \"#utility.yul\":20761:20892   */\n      tag_486\n      jump\t// in\n    tag_703:\n        /* \"#utility.yul\":20753:20892   */\n      swap1\n      pop\n        /* \"#utility.yul\":20480:20899   */\n      swap2\n      swap1\n      pop\n      jump\t// out\n        /* \"#utility.yul\":20905:21133   */\n    tag_487:\n        /* \"#utility.yul\":21045:21079   */\n      0x5472616e7366657220616d6f756e74206d757374206265206772656174657220\n        /* \"#utility.yul\":21041:21042   */\n      0x00\n        /* \"#utility.yul\":21033:21039   */\n      dup3\n        /* \"#utility.yul\":21029:21043   */\n      add\n        /* \"#utility.yul\":21022:21080   */\n      mstore\n        /* \"#utility.yul\":21114:21125   */\n      0x7468616e207a65726f0000000000000000000000000000000000000000000000\n        /* \"#utility.yul\":21109:21111   */\n      0x20\n        /* \"#utility.yul\":21101:21107   */\n      dup3\n        /* \"#utility.yul\":21097:21112   */\n      add\n        /* \"#utility.yul\":21090:21126   */\n      mstore\n        /* \"#utility.yul\":20905:21133   */\n      pop\n      jump\t// out\n        /* \"#utility.yul\":21139:21505   */\n    tag_488:\n        /* \"#utility.yul\":21281:21284   */\n      0x00\n        /* \"#utility.yul\":21302:21369   */\n      tag_706\n        /* \"#utility.yul\":21366:21368   */\n      0x29\n        /* \"#utility.yul\":21361:21364   */\n      dup4\n        /* \"#utility.yul\":21302:21369   */\n      tag_433\n      jump\t// in\n    tag_706:\n        /* \"#utility.yul\":21295:21369   */\n      swap2\n      pop\n        /* \"#utility.yul\":21378:21471   */\n      tag_707\n        /* \"#utility.yul\":21467:21470   */\n      dup3\n        /* \"#utility.yul\":21378:21471   */\n      tag_487\n      jump\t// in\n    tag_707:\n        /* \"#utility.yul\":21496:21498   */\n      0x40\n        /* \"#utility.yul\":21491:21494   */\n      dup3\n        /* \"#utility.yul\":21487:21499   */\n      add\n        /* \"#utility.yul\":21480:21499   */\n      swap1\n      pop\n        /* \"#utility.yul\":21139:21505   */\n      swap2\n      swap1\n      pop\n      jump\t// out\n        /* \"#utility.yul\":21511:21930   */\n    tag_296:\n        /* \"#utility.yul\":21677:21681   */\n      0x00\n        /* \"#utility.yul\":21715:21717   */\n      0x20\n        /* \"#utility.yul\":21704:21713   */\n      dup3\n        /* \"#utility.yul\":21700:21718   */\n      add\n        /* \"#utility.yul\":21692:21718   */\n      swap1\n      pop\n        /* \"#utility.yul\":21764:21773   */\n      dup2\n        /* \"#utility.yul\":21758:21762   */\n      dup2\n        /* \"#utility.yul\":21754:21774   */\n      sub\n        /* \"#utility.yul\":21750:21751   */\n      0x00\n        /* \"#utility.yul\":21739:21748   */\n      dup4\n        /* \"#utility.yul\":21735:21752   */\n      add\n        /* \"#utility.yul\":21728:21775   */\n      mstore\n        /* \"#utility.yul\":21792:21923   */\n      tag_709\n        /* \"#utility.yul\":21918:21922   */\n      dup2\n        /* \"#utility.yul\":21792:21923   */\n      tag_488\n      jump\t// in\n    tag_709:\n        /* \"#utility.yul\":21784:21923   */\n      swap1\n      pop\n        /* \"#utility.yul\":21511:21930   */\n      swap2\n      swap1\n      pop\n      jump\t// out\n        /* \"#utility.yul\":21936:22127   */\n    tag_323:\n        /* \"#utility.yul\":21976:21980   */\n      0x00\n        /* \"#utility.yul\":21996:22016   */\n      tag_711\n        /* \"#utility.yul\":22014:22015   */\n      dup3\n        /* \"#utility.yul\":21996:22016   */\n      tag_444\n      jump\t// in\n    tag_711:\n        /* \"#utility.yul\":21991:22016   */\n      swap2\n      pop\n        /* \"#utility.yul\":22030:22050   */\n      tag_712\n        /* \"#utility.yul\":22048:22049   */\n      dup4\n        /* \"#utility.yul\":22030:22050   */\n      tag_444\n      jump\t// in\n    tag_712:\n        /* \"#utility.yul\":22025:22050   */\n      swap3\n      pop\n        /* \"#utility.yul\":22069:22070   */\n      dup3\n        /* \"#utility.yul\":22066:22067   */\n      dup3\n        /* \"#utility.yul\":22063:22071   */\n      lt\n        /* \"#utility.yul\":22060:22094   */\n      iszero\n      tag_713\n      jumpi\n        /* \"#utility.yul\":22074:22092   */\n      tag_714\n      tag_477\n      jump\t// in\n    tag_714:\n        /* \"#utility.yul\":22060:22094   */\n    tag_713:\n        /* \"#utility.yul\":22119:22120   */\n      dup3\n        /* \"#utility.yul\":22116:22117   */\n      dup3\n        /* \"#utility.yul\":22112:22121   */\n      sub\n        /* \"#utility.yul\":22104:22121   */\n      swap1\n      pop\n        /* \"#utility.yul\":21936:22127   */\n      swap3\n      swap2\n      pop\n      pop\n      jump\t// out\n        /* \"#utility.yul\":22133:22362   */\n    tag_489:\n        /* \"#utility.yul\":22273:22307   */\n      0x416d6f756e74206d757374206265206c657373207468616e20746f74616c2072\n        /* \"#utility.yul\":22269:22270   */\n      0x00\n        /* \"#utility.yul\":22261:22267   */\n      dup3\n        /* \"#utility.yul\":22257:22271   */\n      add\n        /* \"#utility.yul\":22250:22308   */\n      mstore\n        /* \"#utility.yul\":22342:22354   */\n      0x65666c656374696f6e7300000000000000000000000000000000000000000000\n        /* \"#utility.yul\":22337:22339   */\n      0x20\n        /* \"#utility.yul\":22329:22335   */\n      dup3\n        /* \"#utility.yul\":22325:22340   */\n      add\n        /* \"#utility.yul\":22318:22355   */\n      mstore\n        /* \"#utility.yul\":22133:22362   */\n      pop\n      jump\t// out\n        /* \"#utility.yul\":22368:22734   */\n    tag_490:\n        /* \"#utility.yul\":22510:22513   */\n      0x00\n        /* \"#utility.yul\":22531:22598   */\n      tag_717\n        /* \"#utility.yul\":22595:22597   */\n      0x2a\n        /* \"#utility.yul\":22590:22593   */\n      dup4\n        /* \"#utility.yul\":22531:22598   */\n      tag_433\n      jump\t// in\n    tag_717:\n        /* \"#utility.yul\":22524:22598   */\n      swap2\n      pop\n        /* \"#utility.yul\":22607:22700   */\n      tag_718\n        /* \"#utility.yul\":22696:22699   */\n      dup3\n        /* \"#utility.yul\":22607:22700   */\n      tag_489\n      jump\t// in\n    tag_718:\n        /* \"#utility.yul\":22725:22727   */\n      0x40\n        /* \"#utility.yul\":22720:22723   */\n      dup3\n        /* \"#utility.yul\":22716:22728   */\n      add\n        /* \"#utility.yul\":22709:22728   */\n      swap1\n      pop\n        /* \"#utility.yul\":22368:22734   */\n      swap2\n      swap1\n      pop\n      jump\t// out\n        /* \"#utility.yul\":22740:23159   */\n    tag_335:\n        /* \"#utility.yul\":22906:22910   */\n      0x00\n        /* \"#utility.yul\":22944:22946   */\n      0x20\n        /* \"#utility.yul\":22933:22942   */\n      dup3\n        /* \"#utility.yul\":22929:22947   */\n      add\n        /* \"#utility.yul\":22921:22947   */\n      swap1\n      pop\n        /* \"#utility.yul\":22993:23002   */\n      dup2\n        /* \"#utility.yul\":22987:22991   */\n      dup2\n        /* \"#utility.yul\":22983:23003   */\n      sub\n        /* \"#utility.yul\":22979:22980   */\n      0x00\n        /* \"#utility.yul\":22968:22977   */\n      dup4\n        /* \"#utility.yul\":22964:22981   */\n      add\n        /* \"#utility.yul\":22957:23004   */\n      mstore\n        /* \"#utility.yul\":23021:23152   */\n      tag_720\n        /* \"#utility.yul\":23147:23151   */\n      dup2\n        /* \"#utility.yul\":23021:23152   */\n      tag_490\n      jump\t// in\n    tag_720:\n        /* \"#utility.yul\":23013:23152   */\n      swap1\n      pop\n        /* \"#utility.yul\":22740:23159   */\n      swap2\n      swap1\n      pop\n      jump\t// out\n        /* \"#utility.yul\":23165:23345   */\n    tag_343:\n        /* \"#utility.yul\":23213:23290   */\n      0x4e487b7100000000000000000000000000000000000000000000000000000000\n        /* \"#utility.yul\":23210:23211   */\n      0x00\n        /* \"#utility.yul\":23203:23291   */\n      mstore\n        /* \"#utility.yul\":23310:23314   */\n      0x41\n        /* \"#utility.yul\":23307:23308   */\n      0x04\n        /* \"#utility.yul\":23300:23315   */\n      mstore\n        /* \"#utility.yul\":23334:23338   */\n      0x24\n        /* \"#utility.yul\":23331:23332   */\n      0x00\n        /* \"#utility.yul\":23324:23339   */\n      revert\n        /* \"#utility.yul\":23351:23494   */\n    tag_491:\n        /* \"#utility.yul\":23408:23413   */\n      0x00\n        /* \"#utility.yul\":23439:23445   */\n      dup2\n        /* \"#utility.yul\":23433:23446   */\n      mload\n        /* \"#utility.yul\":23424:23446   */\n      swap1\n      pop\n        /* \"#utility.yul\":23455:23488   */\n      tag_723\n        /* \"#utility.yul\":23482:23487   */\n      dup2\n        /* \"#utility.yul\":23455:23488   */\n      tag_442\n      jump\t// in\n    tag_723:\n        /* \"#utility.yul\":23351:23494   */\n      swap3\n      swap2\n      pop\n      pop\n      jump\t// out\n        /* \"#utility.yul\":23500:23851   */\n    tag_350:\n        /* \"#utility.yul\":23570:23576   */\n      0x00\n        /* \"#utility.yul\":23619:23621   */\n      0x20\n        /* \"#utility.yul\":23607:23616   */\n      dup3\n        /* \"#utility.yul\":23598:23605   */\n      dup5\n        /* \"#utility.yul\":23594:23617   */\n      sub\n        /* \"#utility.yul\":23590:23622   */\n      slt\n        /* \"#utility.yul\":23587:23706   */\n      iszero\n      tag_725\n      jumpi\n        /* \"#utility.yul\":23625:23704   */\n      tag_726\n      tag_438\n      jump\t// in\n    tag_726:\n        /* \"#utility.yul\":23587:23706   */\n    tag_725:\n        /* \"#utility.yul\":23745:23746   */\n      0x00\n        /* \"#utility.yul\":23770:23834   */\n      tag_727\n        /* \"#utility.yul\":23826:23833   */\n      dup5\n        /* \"#utility.yul\":23817:23823   */\n      dup3\n        /* \"#utility.yul\":23806:23815   */\n      dup6\n        /* \"#utility.yul\":23802:23824   */\n      add\n        /* \"#utility.yul\":23770:23834   */\n      tag_491\n      jump\t// in\n    tag_727:\n        /* \"#utility.yul\":23760:23834   */\n      swap2\n      pop\n        /* \"#utility.yul\":23716:23844   */\n      pop\n        /* \"#utility.yul\":23500:23851   */\n      swap3\n      swap2\n      pop\n      pop\n      jump\t// out\n        /* \"#utility.yul\":23857:23942   */\n    tag_492:\n        /* \"#utility.yul\":23902:23909   */\n      0x00\n        /* \"#utility.yul\":23931:23936   */\n      dup2\n        /* \"#utility.yul\":23920:23936   */\n      swap1\n      pop\n        /* \"#utility.yul\":23857:23942   */\n      swap2\n      swap1\n      pop\n      jump\t// out\n        /* \"#utility.yul\":23948:24106   */\n    tag_493:\n        /* \"#utility.yul\":24006:24015   */\n      0x00\n        /* \"#utility.yul\":24039:24100   */\n      tag_730\n        /* \"#utility.yul\":24057:24099   */\n      tag_731\n        /* \"#utility.yul\":24066:24098   */\n      tag_732\n        /* \"#utility.yul\":24092:24097   */\n      dup5\n        /* \"#utility.yul\":24066:24098   */\n      tag_492\n      jump\t// in\n    tag_732:\n        /* \"#utility.yul\":24057:24099   */\n      tag_449\n      jump\t// in\n    tag_731:\n        /* \"#utility.yul\":24039:24100   */\n      tag_444\n      jump\t// in\n    tag_730:\n        /* \"#utility.yul\":24026:24100   */\n      swap1\n      pop\n        /* \"#utility.yul\":23948:24106   */\n      swap2\n      swap1\n      pop\n      jump\t// out\n        /* \"#utility.yul\":24112:24259   */\n    tag_494:\n        /* \"#utility.yul\":24207:24252   */\n      tag_734\n        /* \"#utility.yul\":24246:24251   */\n      dup2\n        /* \"#utility.yul\":24207:24252   */\n      tag_493\n      jump\t// in\n    tag_734:\n        /* \"#utility.yul\":24202:24205   */\n      dup3\n        /* \"#utility.yul\":24195:24253   */\n      mstore\n        /* \"#utility.yul\":24112:24259   */\n      pop\n      pop\n      jump\t// out\n        /* \"#utility.yul\":24265:24379   */\n    tag_495:\n        /* \"#utility.yul\":24332:24338   */\n      0x00\n        /* \"#utility.yul\":24366:24371   */\n      dup2\n        /* \"#utility.yul\":24360:24372   */\n      mload\n        /* \"#utility.yul\":24350:24372   */\n      swap1\n      pop\n        /* \"#utility.yul\":24265:24379   */\n      swap2\n      swap1\n      pop\n      jump\t// out\n        /* \"#utility.yul\":24385:24569   */\n    tag_496:\n        /* \"#utility.yul\":24484:24495   */\n      0x00\n        /* \"#utility.yul\":24518:24524   */\n      dup3\n        /* \"#utility.yul\":24513:24516   */\n      dup3\n        /* \"#utility.yul\":24506:24525   */\n      mstore\n        /* \"#utility.yul\":24558:24562   */\n      0x20\n        /* \"#utility.yul\":24553:24556   */\n      dup3\n        /* \"#utility.yul\":24549:24563   */\n      add\n        /* \"#utility.yul\":24534:24563   */\n      swap1\n      pop\n        /* \"#utility.yul\":24385:24569   */\n      swap3\n      swap2\n      pop\n      pop\n      jump\t// out\n        /* \"#utility.yul\":24575:24707   */\n    tag_497:\n        /* \"#utility.yul\":24642:24646   */\n      0x00\n        /* \"#utility.yul\":24665:24668   */\n      dup2\n        /* \"#utility.yul\":24657:24668   */\n      swap1\n      pop\n        /* \"#utility.yul\":24695:24699   */\n      0x20\n        /* \"#utility.yul\":24690:24693   */\n      dup3\n        /* \"#utility.yul\":24686:24700   */\n      add\n        /* \"#utility.yul\":24678:24700   */\n      swap1\n      pop\n        /* \"#utility.yul\":24575:24707   */\n      swap2\n      swap1\n      pop\n      jump\t// out\n        /* \"#utility.yul\":24713:24821   */\n    tag_498:\n        /* \"#utility.yul\":24790:24814   */\n      tag_739\n        /* \"#utility.yul\":24808:24813   */\n      dup2\n        /* \"#utility.yul\":24790:24814   */\n      tag_441\n      jump\t// in\n    tag_739:\n        /* \"#utility.yul\":24785:24788   */\n      dup3\n        /* \"#utility.yul\":24778:24815   */\n      mstore\n        /* \"#utility.yul\":24713:24821   */\n      pop\n      pop\n      jump\t// out\n        /* \"#utility.yul\":24827:25006   */\n    tag_499:\n        /* \"#utility.yul\":24896:24906   */\n      0x00\n        /* \"#utility.yul\":24917:24963   */\n      tag_741\n        /* \"#utility.yul\":24959:24962   */\n      dup4\n        /* \"#utility.yul\":24951:24957   */\n      dup4\n        /* \"#utility.yul\":24917:24963   */\n      tag_498\n      jump\t// in\n    tag_741:\n        /* \"#utility.yul\":24995:24999   */\n      0x20\n        /* \"#utility.yul\":24990:24993   */\n      dup4\n        /* \"#utility.yul\":24986:25000   */\n      add\n        /* \"#utility.yul\":24972:25000   */\n      swap1\n      pop\n        /* \"#utility.yul\":24827:25006   */\n      swap3\n      swap2\n      pop\n      pop\n      jump\t// out\n        /* \"#utility.yul\":25012:25125   */\n    tag_500:\n        /* \"#utility.yul\":25082:25086   */\n      0x00\n        /* \"#utility.yul\":25114:25118   */\n      0x20\n        /* \"#utility.yul\":25109:25112   */\n      dup3\n        /* \"#utility.yul\":25105:25119   */\n      add\n        /* \"#utility.yul\":25097:25119   */\n      swap1\n      pop\n        /* \"#utility.yul\":25012:25125   */\n      swap2\n      swap1\n      pop\n      jump\t// out\n        /* \"#utility.yul\":25161:25893   */\n    tag_501:\n        /* \"#utility.yul\":25280:25283   */\n      0x00\n        /* \"#utility.yul\":25309:25363   */\n      tag_744\n        /* \"#utility.yul\":25357:25362   */\n      dup3\n        /* \"#utility.yul\":25309:25363   */\n      tag_495\n      jump\t// in\n    tag_744:\n        /* \"#utility.yul\":25379:25465   */\n      tag_745\n        /* \"#utility.yul\":25458:25464   */\n      dup2\n        /* \"#utility.yul\":25453:25456   */\n      dup6\n        /* \"#utility.yul\":25379:25465   */\n      tag_496\n      jump\t// in\n    tag_745:\n        /* \"#utility.yul\":25372:25465   */\n      swap4\n      pop\n        /* \"#utility.yul\":25489:25545   */\n      tag_746\n        /* \"#utility.yul\":25539:25544   */\n      dup4\n        /* \"#utility.yul\":25489:25545   */\n      tag_497\n      jump\t// in\n    tag_746:\n        /* \"#utility.yul\":25568:25575   */\n      dup1\n        /* \"#utility.yul\":25599:25600   */\n      0x00\n        /* \"#utility.yul\":25584:25868   */\n    tag_747:\n        /* \"#utility.yul\":25609:25615   */\n      dup4\n        /* \"#utility.yul\":25606:25607   */\n      dup2\n        /* \"#utility.yul\":25603:25616   */\n      lt\n        /* \"#utility.yul\":25584:25868   */\n      iszero\n      tag_749\n      jumpi\n        /* \"#utility.yul\":25685:25691   */\n      dup2\n        /* \"#utility.yul\":25679:25692   */\n      mload\n        /* \"#utility.yul\":25712:25775   */\n      tag_750\n        /* \"#utility.yul\":25771:25774   */\n      dup9\n        /* \"#utility.yul\":25756:25769   */\n      dup3\n        /* \"#utility.yul\":25712:25775   */\n      tag_499\n      jump\t// in\n    tag_750:\n        /* \"#utility.yul\":25705:25775   */\n      swap8\n      pop\n        /* \"#utility.yul\":25798:25858   */\n      tag_751\n        /* \"#utility.yul\":25851:25857   */\n      dup4\n        /* \"#utility.yul\":25798:25858   */\n      tag_500\n      jump\t// in\n    tag_751:\n        /* \"#utility.yul\":25788:25858   */\n      swap3\n      pop\n        /* \"#utility.yul\":25644:25868   */\n      pop\n        /* \"#utility.yul\":25631:25632   */\n      0x01\n        /* \"#utility.yul\":25628:25629   */\n      dup2\n        /* \"#utility.yul\":25624:25633   */\n      add\n        /* \"#utility.yul\":25619:25633   */\n      swap1\n      pop\n        /* \"#utility.yul\":25584:25868   */\n      jump(tag_747)\n    tag_749:\n        /* \"#utility.yul\":25588:25602   */\n      pop\n        /* \"#utility.yul\":25884:25887   */\n      dup6\n        /* \"#utility.yul\":25877:25887   */\n      swap4\n      pop\n        /* \"#utility.yul\":25285:25893   */\n      pop\n      pop\n      pop\n        /* \"#utility.yul\":25161:25893   */\n      swap3\n      swap2\n      pop\n      pop\n      jump\t// out\n        /* \"#utility.yul\":25899:26730   */\n    tag_355:\n        /* \"#utility.yul\":26162:26166   */\n      0x00\n        /* \"#utility.yul\":26200:26203   */\n      0xa0\n        /* \"#utility.yul\":26189:26198   */\n      dup3\n        /* \"#utility.yul\":26185:26204   */\n      add\n        /* \"#utility.yul\":26177:26204   */\n      swap1\n      pop\n        /* \"#utility.yul\":26214:26285   */\n      tag_753\n        /* \"#utility.yul\":26282:26283   */\n      0x00\n        /* \"#utility.yul\":26271:26280   */\n      dup4\n        /* \"#utility.yul\":26267:26284   */\n      add\n        /* \"#utility.yul\":26258:26264   */\n      dup9\n        /* \"#utility.yul\":26214:26285   */\n      tag_454\n      jump\t// in\n    tag_753:\n        /* \"#utility.yul\":26295:26375   */\n      tag_754\n        /* \"#utility.yul\":26371:26373   */\n      0x20\n        /* \"#utility.yul\":26360:26369   */\n      dup4\n        /* \"#utility.yul\":26356:26374   */\n      add\n        /* \"#utility.yul\":26347:26353   */\n      dup8\n        /* \"#utility.yul\":26295:26375   */\n      tag_494\n      jump\t// in\n    tag_754:\n        /* \"#utility.yul\":26422:26431   */\n      dup2\n        /* \"#utility.yul\":26416:26420   */\n      dup2\n        /* \"#utility.yul\":26412:26432   */\n      sub\n        /* \"#utility.yul\":26407:26409   */\n      0x40\n        /* \"#utility.yul\":26396:26405   */\n      dup4\n        /* \"#utility.yul\":26392:26410   */\n      add\n        /* \"#utility.yul\":26385:26433   */\n      mstore\n        /* \"#utility.yul\":26450:26558   */\n      tag_755\n        /* \"#utility.yul\":26553:26557   */\n      dup2\n        /* \"#utility.yul\":26544:26550   */\n      dup7\n        /* \"#utility.yul\":26450:26558   */\n      tag_501\n      jump\t// in\n    tag_755:\n        /* \"#utility.yul\":26442:26558   */\n      swap1\n      pop\n        /* \"#utility.yul\":26568:26640   */\n      tag_756\n        /* \"#utility.yul\":26636:26638   */\n      0x60\n        /* \"#utility.yul\":26625:26634   */\n      dup4\n        /* \"#utility.yul\":26621:26639   */\n      add\n        /* \"#utility.yul\":26612:26618   */\n      dup6\n        /* \"#utility.yul\":26568:26640   */\n      tag_457\n      jump\t// in\n    tag_756:\n        /* \"#utility.yul\":26650:26723   */\n      tag_757\n        /* \"#utility.yul\":26718:26721   */\n      0x80\n        /* \"#utility.yul\":26707:26716   */\n      dup4\n        /* \"#utility.yul\":26703:26722   */\n      add\n        /* \"#utility.yul\":26694:26700   */\n      dup5\n        /* \"#utility.yul\":26650:26723   */\n      tag_454\n      jump\t// in\n    tag_757:\n        /* \"#utility.yul\":25899:26730   */\n      swap7\n      swap6\n      pop\n      pop\n      pop\n      pop\n      pop\n      pop\n      jump\t// out\n        /* \"#utility.yul\":26736:26916   */\n    tag_502:\n        /* \"#utility.yul\":26784:26861   */\n      0x4e487b7100000000000000000000000000000000000000000000000000000000\n        /* \"#utility.yul\":26781:26782   */\n      0x00\n        /* \"#utility.yul\":26774:26862   */\n      mstore\n        /* \"#utility.yul\":26881:26885   */\n      0x12\n        /* \"#utility.yul\":26878:26879   */\n      0x04\n        /* \"#utility.yul\":26871:26886   */\n      mstore\n        /* \"#utility.yul\":26905:26909   */\n      0x24\n        /* \"#utility.yul\":26902:26903   */\n      0x00\n        /* \"#utility.yul\":26895:26910   */\n      revert\n        /* \"#utility.yul\":26922:27107   */\n    tag_385:\n        /* \"#utility.yul\":26962:26963   */\n      0x00\n        /* \"#utility.yul\":26979:26999   */\n      tag_760\n        /* \"#utility.yul\":26997:26998   */\n      dup3\n        /* \"#utility.yul\":26979:26999   */\n      tag_444\n      jump\t// in\n    tag_760:\n        /* \"#utility.yul\":26974:26999   */\n      swap2\n      pop\n        /* \"#utility.yul\":27013:27033   */\n      tag_761\n        /* \"#utility.yul\":27031:27032   */\n      dup4\n        /* \"#utility.yul\":27013:27033   */\n      tag_444\n      jump\t// in\n    tag_761:\n        /* \"#utility.yul\":27008:27033   */\n      swap3\n      pop\n        /* \"#utility.yul\":27052:27053   */\n      dup3\n        /* \"#utility.yul\":27042:27077   */\n      tag_762\n      jumpi\n        /* \"#utility.yul\":27057:27075   */\n      tag_763\n      tag_502\n      jump\t// in\n    tag_763:\n        /* \"#utility.yul\":27042:27077   */\n    tag_762:\n        /* \"#utility.yul\":27099:27100   */\n      dup3\n        /* \"#utility.yul\":27096:27097   */\n      dup3\n        /* \"#utility.yul\":27092:27101   */\n      div\n        /* \"#utility.yul\":27087:27101   */\n      swap1\n      pop\n        /* \"#utility.yul\":26922:27107   */\n      swap3\n      swap2\n      pop\n      pop\n      jump\t// out\n        /* \"#utility.yul\":27113:27418   */\n    tag_399:\n        /* \"#utility.yul\":27153:27156   */\n      0x00\n        /* \"#utility.yul\":27172:27192   */\n      tag_765\n        /* \"#utility.yul\":27190:27191   */\n      dup3\n        /* \"#utility.yul\":27172:27192   */\n      tag_444\n      jump\t// in\n    tag_765:\n        /* \"#utility.yul\":27167:27192   */\n      swap2\n      pop\n        /* \"#utility.yul\":27206:27226   */\n      tag_766\n        /* \"#utility.yul\":27224:27225   */\n      dup4\n        /* \"#utility.yul\":27206:27226   */\n      tag_444\n      jump\t// in\n    tag_766:\n        /* \"#utility.yul\":27201:27226   */\n      swap3\n      pop\n        /* \"#utility.yul\":27360:27361   */\n      dup3\n        /* \"#utility.yul\":27292:27358   */\n      0xffffffffffffffffffffffffffffffffffffffffffffffffffffffffffffffff\n        /* \"#utility.yul\":27288:27362   */\n      sub\n        /* \"#utility.yul\":27285:27286   */\n      dup3\n        /* \"#utility.yul\":27282:27363   */\n      gt\n        /* \"#utility.yul\":27279:27386   */\n      iszero\n      tag_767\n      jumpi\n        /* \"#utility.yul\":27366:27384   */\n      tag_768\n      tag_477\n      jump\t// in\n    tag_768:\n        /* \"#utility.yul\":27279:27386   */\n    tag_767:\n        /* \"#utility.yul\":27410:27411   */\n      dup3\n        /* \"#utility.yul\":27407:27408   */\n      dup3\n        /* \"#utility.yul\":27403:27412   */\n      add\n        /* \"#utility.yul\":27396:27412   */\n      swap1\n      pop\n        /* \"#utility.yul\":27113:27418   */\n      swap3\n      swap2\n      pop\n      pop\n      jump\t// out\n        /* \"#utility.yul\":27424:27601   */\n    tag_503:\n        /* \"#utility.yul\":27564:27593   */\n      0x536166654d6174683a206164646974696f6e206f766572666c6f770000000000\n        /* \"#utility.yul\":27560:27561   */\n      0x00\n        /* \"#utility.yul\":27552:27558   */\n      dup3\n        /* \"#utility.yul\":27548:27562   */\n      add\n        /* \"#utility.yul\":27541:27594   */\n      mstore\n        /* \"#utility.yul\":27424:27601   */\n      pop\n      jump\t// out\n        /* \"#utility.yul\":27607:27973   */\n    tag_504:\n        /* \"#utility.yul\":27749:27752   */\n      0x00\n        /* \"#utility.yul\":27770:27837   */\n      tag_771\n        /* \"#utility.yul\":27834:27836   */\n      0x1b\n        /* \"#utility.yul\":27829:27832   */\n      dup4\n        /* \"#utility.yul\":27770:27837   */\n      tag_433\n      jump\t// in\n    tag_771:\n        /* \"#utility.yul\":27763:27837   */\n      swap2\n      pop\n        /* \"#utility.yul\":27846:27939   */\n      tag_772\n        /* \"#utility.yul\":27935:27938   */\n      dup3\n        /* \"#utility.yul\":27846:27939   */\n      tag_503\n      jump\t// in\n    tag_772:\n        /* \"#utility.yul\":27964:27966   */\n      0x20\n        /* \"#utility.yul\":27959:27962   */\n      dup3\n        /* \"#utility.yul\":27955:27967   */\n      add\n        /* \"#utility.yul\":27948:27967   */\n      swap1\n      pop\n        /* \"#utility.yul\":27607:27973   */\n      swap2\n      swap1\n      pop\n      jump\t// out\n        /* \"#utility.yul\":27979:28398   */\n    tag_402:\n        /* \"#utility.yul\":28145:28149   */\n      0x00\n        /* \"#utility.yul\":28183:28185   */\n      0x20\n        /* \"#utility.yul\":28172:28181   */\n      dup3\n        /* \"#utility.yul\":28168:28186   */\n      add\n        /* \"#utility.yul\":28160:28186   */\n      swap1\n      pop\n        /* \"#utility.yul\":28232:28241   */\n      dup2\n        /* \"#utility.yul\":28226:28230   */\n      dup2\n        /* \"#utility.yul\":28222:28242   */\n      sub\n        /* \"#utility.yul\":28218:28219   */\n      0x00\n        /* \"#utility.yul\":28207:28216   */\n      dup4\n        /* \"#utility.yul\":28203:28220   */\n      add\n        /* \"#utility.yul\":28196:28243   */\n      mstore\n        /* \"#utility.yul\":28260:28391   */\n      tag_774\n        /* \"#utility.yul\":28386:28390   */\n      dup2\n        /* \"#utility.yul\":28260:28391   */\n      tag_504\n      jump\t// in\n    tag_774:\n        /* \"#utility.yul\":28252:28391   */\n      swap1\n      pop\n        /* \"#utility.yul\":27979:28398   */\n      swap2\n      swap1\n      pop\n      jump\t// out\n        /* \"#utility.yul\":28404:28752   */\n    tag_427:\n        /* \"#utility.yul\":28444:28451   */\n      0x00\n        /* \"#utility.yul\":28467:28487   */\n      tag_776\n        /* \"#utility.yul\":28485:28486   */\n      dup3\n        /* \"#utility.yul\":28467:28487   */\n      tag_444\n      jump\t// in\n    tag_776:\n        /* \"#utility.yul\":28462:28487   */\n      swap2\n      pop\n        /* \"#utility.yul\":28501:28521   */\n      tag_777\n        /* \"#utility.yul\":28519:28520   */\n      dup4\n        /* \"#utility.yul\":28501:28521   */\n      tag_444\n      jump\t// in\n    tag_777:\n        /* \"#utility.yul\":28496:28521   */\n      swap3\n      pop\n        /* \"#utility.yul\":28689:28690   */\n      dup2\n        /* \"#utility.yul\":28621:28687   */\n      0xffffffffffffffffffffffffffffffffffffffffffffffffffffffffffffffff\n        /* \"#utility.yul\":28617:28691   */\n      div\n        /* \"#utility.yul\":28614:28615   */\n      dup4\n        /* \"#utility.yul\":28611:28692   */\n      gt\n        /* \"#utility.yul\":28606:28607   */\n      dup3\n        /* \"#utility.yul\":28599:28608   */\n      iszero\n        /* \"#utility.yul\":28592:28609   */\n      iszero\n        /* \"#utility.yul\":28588:28693   */\n      and\n        /* \"#utility.yul\":28585:28716   */\n      iszero\n      tag_778\n      jumpi\n        /* \"#utility.yul\":28696:28714   */\n      tag_779\n      tag_477\n      jump\t// in\n    tag_779:\n        /* \"#utility.yul\":28585:28716   */\n    tag_778:\n        /* \"#utility.yul\":28744:28745   */\n      dup3\n        /* \"#utility.yul\":28741:28742   */\n      dup3\n        /* \"#utility.yul\":28737:28746   */\n      mul\n        /* \"#utility.yul\":28726:28746   */\n      swap1\n      pop\n        /* \"#utility.yul\":28404:28752   */\n      swap3\n      swap2\n      pop\n      pop\n      jump\t// out\n        /* \"#utility.yul\":28758:28978   */\n    tag_505:\n        /* \"#utility.yul\":28898:28932   */\n      0x536166654d6174683a206d756c7469706c69636174696f6e206f766572666c6f\n        /* \"#utility.yul\":28894:28895   */\n      0x00\n        /* \"#utility.yul\":28886:28892   */\n      dup3\n        /* \"#utility.yul\":28882:28896   */\n      add\n        /* \"#utility.yul\":28875:28933   */\n      mstore\n        /* \"#utility.yul\":28967:28970   */\n      0x7700000000000000000000000000000000000000000000000000000000000000\n        /* \"#utility.yul\":28962:28964   */\n      0x20\n        /* \"#utility.yul\":28954:28960   */\n      dup3\n        /* \"#utility.yul\":28950:28965   */\n      add\n        /* \"#utility.yul\":28943:28971   */\n      mstore\n        /* \"#utility.yul\":28758:28978   */\n      pop\n      jump\t// out\n        /* \"#utility.yul\":28984:29350   */\n    tag_506:\n        /* \"#utility.yul\":29126:29129   */\n      0x00\n        /* \"#utility.yul\":29147:29214   */\n      tag_782\n        /* \"#utility.yul\":29211:29213   */\n      0x21\n        /* \"#utility.yul\":29206:29209   */\n      dup4\n        /* \"#utility.yul\":29147:29214   */\n      tag_433\n      jump\t// in\n    tag_782:\n        /* \"#utility.yul\":29140:29214   */\n      swap2\n      pop\n        /* \"#utility.yul\":29223:29316   */\n      tag_783\n        /* \"#utility.yul\":29312:29315   */\n      dup3\n        /* \"#utility.yul\":29223:29316   */\n      tag_505\n      jump\t// in\n    tag_783:\n        /* \"#utility.yul\":29341:29343   */\n      0x40\n        /* \"#utility.yul\":29336:29339   */\n      dup3\n        /* \"#utility.yul\":29332:29344   */\n      add\n        /* \"#utility.yul\":29325:29344   */\n      swap1\n      pop\n        /* \"#utility.yul\":28984:29350   */\n      swap2\n      swap1\n      pop\n      jump\t// out\n        /* \"#utility.yul\":29356:29775   */\n    tag_431:\n        /* \"#utility.yul\":29522:29526   */\n      0x00\n        /* \"#utility.yul\":29560:29562   */\n      0x20\n        /* \"#utility.yul\":29549:29558   */\n      dup3\n        /* \"#utility.yul\":29545:29563   */\n      add\n        /* \"#utility.yul\":29537:29563   */\n      swap1\n      pop\n        /* \"#utility.yul\":29609:29618   */\n      dup2\n        /* \"#utility.yul\":29603:29607   */\n      dup2\n        /* \"#utility.yul\":29599:29619   */\n      sub\n        /* \"#utility.yul\":29595:29596   */\n      0x00\n        /* \"#utility.yul\":29584:29593   */\n      dup4\n        /* \"#utility.yul\":29580:29597   */\n      add\n        /* \"#utility.yul\":29573:29620   */\n      mstore\n        /* \"#utility.yul\":29637:29768   */\n      tag_785\n        /* \"#utility.yul\":29763:29767   */\n      dup2\n        /* \"#utility.yul\":29637:29768   */\n      tag_506\n      jump\t// in\n    tag_785:\n        /* \"#utility.yul\":29629:29768   */\n      swap1\n      pop\n        /* \"#utility.yul\":29356:29775   */\n      swap2\n      swap1\n      pop\n      jump\t// out\n    stop\n    data_974d1b4421da69cc60b481194f0dad36a5bb4e23da810da7a7fb30cdba178330 45524332303a207472616e7366657220616d6f756e74206578636565647320616c6c6f77616e6365\n\n    auxdata: 0xa26469706673582212204f1e02526085d9da759c6ca6a7429b9048d64a1431f7e262c23e32e6ac8e6baf64736f6c634300080d0033\n}\n",
				"bytecode": {
					"linkReferences": {},
					"object": "6080604052670de0b6b3a76400006414f46b04006200001f9190620006dd565b6414f46b040062000031919062000744565b600655600160085560046009556001600a556001600b55738492cbd894686d7e98214541903c7ba6f94928d6600e60006101000a81548173ffffffffffffffffffffffffffffffffffffffff021916908373ffffffffffffffffffffffffffffffffffffffff16021790555073a4ed7aa4ef5deb0a63e97d9cb77445ae553feb1d600f60006101000a81548173ffffffffffffffffffffffffffffffffffffffff021916908373ffffffffffffffffffffffffffffffffffffffff1602179055506000601260146101000a81548160ff0219169083151502179055506001601260156101000a81548160ff0219169083151502179055503480156200013557600080fd5b506000620001486200067360201b60201c565b9050806000806101000a81548173ffffffffffffffffffffffffffffffffffffffff021916908373ffffffffffffffffffffffffffffffffffffffff1602179055508073ffffffffffffffffffffffffffffffffffffffff16600073ffffffffffffffffffffffffffffffffffffffff167f8be0079c531659141344cd1fd0a4f28419497f9722a3daafe3b4186f6b6457e060405160405180910390a35060065460026000620001fd6200067360201b60201c565b73ffffffffffffffffffffffffffffffffffffffff1673ffffffffffffffffffffffffffffffffffffffff1681526020019081526020016000208190555060007310ed43c718714eb63d5aa57b78b54704e256024e905080601060006101000a81548173ffffffffffffffffffffffffffffffffffffffff021916908373ffffffffffffffffffffffffffffffffffffffff1602179055508073ffffffffffffffffffffffffffffffffffffffff1663c45a01556040518163ffffffff1660e01b8152600401602060405180830381865afa158015620002e1573d6000803e3d6000fd5b505050506040513d601f19601f82011682018060405250810190620003079190620007e9565b73ffffffffffffffffffffffffffffffffffffffff1663c9c65396308373ffffffffffffffffffffffffffffffffffffffff1663ad5c46486040518163ffffffff1660e01b8152600401602060405180830381865afa1580156200036f573d6000803e3d6000fd5b505050506040513d601f19601f82011682018060405250810190620003959190620007e9565b6040518363ffffffff1660e01b8152600401620003b49291906200082c565b6020604051808303816000875af1158015620003d4573d6000803e3d6000fd5b505050506040513d601f19601f82011682018060405250810190620003fa9190620007e9565b601260006101000a81548173ffffffffffffffffffffffffffffffffffffffff021916908373ffffffffffffffffffffffffffffffffffffffff160217905550600160056000620004506200067b60201b60201c565b73ffffffffffffffffffffffffffffffffffffffff1673ffffffffffffffffffffffffffffffffffffffff16815260200190815260200160002060006101000a81548160ff0219169083151502179055506001600560003073ffffffffffffffffffffffffffffffffffffffff1673ffffffffffffffffffffffffffffffffffffffff16815260200190815260200160002060006101000a81548160ff021916908315150217905550600160056000600e60009054906101000a900473ffffffffffffffffffffffffffffffffffffffff1673ffffffffffffffffffffffffffffffffffffffff1673ffffffffffffffffffffffffffffffffffffffff16815260200190815260200160002060006101000a81548160ff021916908315150217905550600160056000600f60009054906101000a900473ffffffffffffffffffffffffffffffffffffffff1673ffffffffffffffffffffffffffffffffffffffff1673ffffffffffffffffffffffffffffffffffffffff16815260200190815260200160002060006101000a81548160ff021916908315150217905550620005fd6200067360201b60201c565b73ffffffffffffffffffffffffffffffffffffffff16600073ffffffffffffffffffffffffffffffffffffffff167fddf252ad1be2c89b69c2b068fc378daa952ba7f163c4a11628f55a4df523b3ef670de0b6b3a76400006040516200066491906200086a565b60405180910390a35062000887565b600033905090565b60008060009054906101000a900473ffffffffffffffffffffffffffffffffffffffff16905090565b6000819050919050565b7f4e487b7100000000000000000000000000000000000000000000000000000000600052601260045260246000fd5b6000620006ea82620006a4565b9150620006f783620006a4565b9250826200070a5762000709620006ae565b5b828206905092915050565b7f4e487b7100000000000000000000000000000000000000000000000000000000600052601160045260246000fd5b60006200075182620006a4565b91506200075e83620006a4565b92508282101562000774576200077362000715565b5b828203905092915050565b600080fd5b600073ffffffffffffffffffffffffffffffffffffffff82169050919050565b6000620007b18262000784565b9050919050565b620007c381620007a4565b8114620007cf57600080fd5b50565b600081519050620007e381620007b8565b92915050565b6000602082840312156200080257620008016200077f565b5b60006200081284828501620007d2565b91505092915050565b6200082681620007a4565b82525050565b60006040820190506200084360008301856200081b565b6200085260208301846200081b565b9392505050565b6200086481620006a4565b82525050565b600060208201905062000881600083018462000859565b92915050565b613a9d80620008976000396000f3fe60806040526004361061014f5760003560e01c8063715018a6116100b6578063aad5c0231161006f578063aad5c02314610467578063c3c8cd8014610490578063c492f046146104a7578063dd62ed3e146104d0578063e293d3161461050d578063f2fde38b1461053657610156565b8063715018a61461036b578063758dbe03146103825780638da5cb5b146103ab57806395d89b41146103d6578063a2a957bb14610401578063a9059cbb1461042a57610156565b8063313ce56711610108578063313ce5671461026d57806349bd5a5e1461029857806359d0f713146102c35780636d8aa8f8146102ee5780636fc3eaec1461031757806370a082311461032e57610156565b806305a272ea1461015b57806306fdde0314610172578063095ea7b31461019d5780631694505e146101da57806318160ddd1461020557806323b872dd1461023057610156565b3661015657005b600080fd5b34801561016757600080fd5b5061017061055f565b005b34801561017e57600080fd5b506101876105f6565b6040516101949190612ae5565b60405180910390f35b3480156101a957600080fd5b506101c460048036038101906101bf9190612ba5565b610633565b6040516101d19190612c00565b60405180910390f35b3480156101e657600080fd5b506101ef610651565b6040516101fc9190612c7a565b60405180910390f35b34801561021157600080fd5b5061021a610677565b6040516102279190612ca4565b60405180910390f35b34801561023c57600080fd5b5061025760048036038101906102529190612cbf565b610687565b6040516102649190612c00565b60405180910390f35b34801561027957600080fd5b50610282610760565b60405161028f9190612d2e565b60405180910390f35b3480156102a457600080fd5b506102ad610769565b6040516102ba9190612d58565b60405180910390f35b3480156102cf57600080fd5b506102d861078f565b6040516102e59190612d94565b60405180910390f35b3480156102fa57600080fd5b5061031560048036038101906103109190612ddb565b6107b5565b005b34801561032357600080fd5b5061032c6108ad565b005b34801561033a57600080fd5b5061035560048036038101906103509190612e08565b6109c2565b6040516103629190612ca4565b60405180910390f35b34801561037757600080fd5b50610380610a13565b005b34801561038e57600080fd5b506103a960048036038101906103a49190612e73565b610b66565b005b3480156103b757600080fd5b506103c0610d7b565b6040516103cd9190612d58565b60405180910390f35b3480156103e257600080fd5b506103eb610da4565b6040516103f89190612ae5565b60405180910390f35b34801561040d57600080fd5b5061042860048036038101906104239190612ea0565b610de1565b005b34801561043657600080fd5b50610451600480360381019061044c9190612ba5565b610fea565b60405161045e9190612c00565b60405180910390f35b34801561047357600080fd5b5061048e60048036038101906104899190612e73565b611008565b005b34801561049c57600080fd5b506104a561121d565b005b3480156104b357600080fd5b506104ce60048036038101906104c99190612f6c565b61133a565b005b3480156104dc57600080fd5b506104f760048036038101906104f29190612fcc565b611474565b6040516105049190612ca4565b60405180910390f35b34801561051957600080fd5b50610534600480360381019061052f9190612cbf565b6114fb565b005b34801561054257600080fd5b5061055d60048036038101906105589190612e08565b6116bf565b005b610567611811565b73ffffffffffffffffffffffffffffffffffffffff1660008054906101000a900473ffffffffffffffffffffffffffffffffffffffff1673ffffffffffffffffffffffffffffffffffffffff16146105f4576040517f08c379a00000000000000000000000000000000000000000000000000000000081526004016105eb90613058565b60405180910390fd5b565b60606040518060400160405280600a81526020017f576f726c64205374657000000000000000000000000000000000000000000000815250905090565b6000610647610640611811565b8484611819565b6001905092915050565b601060009054906101000a900473ffffffffffffffffffffffffffffffffffffffff1681565b6000670de0b6b3a7640000905090565b60006106948484846119e2565b610755846106a0611811565b61075085604051806060016040528060288152602001613a4060289139600460008b73ffffffffffffffffffffffffffffffffffffffff1673ffffffffffffffffffffffffffffffffffffffff1681526020019081526020016000206000610706611811565b73ffffffffffffffffffffffffffffffffffffffff1673ffffffffffffffffffffffffffffffffffffffff16815260200190815260200160002054611f549092919063ffffffff16565b611819565b600190509392505050565b60006009905090565b601260009054906101000a900473ffffffffffffffffffffffffffffffffffffffff1681565b601160009054906101000a900473ffffffffffffffffffffffffffffffffffffffff1681565b6107bd611811565b73ffffffffffffffffffffffffffffffffffffffff166107db610d7b565b73ffffffffffffffffffffffffffffffffffffffff1614806108515750610800611811565b73ffffffffffffffffffffffffffffffffffffffff16600e60009054906101000a900473ffffffffffffffffffffffffffffffffffffffff1673ffffffffffffffffffffffffffffffffffffffff16145b610890576040517f08c379a0000000000000000000000000000000000000000000000000000000008152600401610887906130c4565b60405180910390fd5b80601260156101000a81548160ff02191690831515021790555050565b600e60009054906101000a900473ffffffffffffffffffffffffffffffffffffffff1673ffffffffffffffffffffffffffffffffffffffff166108ee611811565b73ffffffffffffffffffffffffffffffffffffffff1614806109645750600f60009054906101000a900473ffffffffffffffffffffffffffffffffffffffff1673ffffffffffffffffffffffffffffffffffffffff1661094c611811565b73ffffffffffffffffffffffffffffffffffffffff16145b806109a85750610972610d7b565b73ffffffffffffffffffffffffffffffffffffffff16610990611811565b73ffffffffffffffffffffffffffffffffffffffff16145b6109b157600080fd5b60004790506109bf81611fb8565b50565b6000610a0c600260008473ffffffffffffffffffffffffffffffffffffffff1673ffffffffffffffffffffffffffffffffffffffff168152602001908152602001600020546120b3565b9050919050565b610a1b611811565b73ffffffffffffffffffffffffffffffffffffffff1660008054906101000a900473ffffffffffffffffffffffffffffffffffffffff1673ffffffffffffffffffffffffffffffffffffffff1614610aa8576040517f08c379a0000000000000000000000000000000000000000000000000000000008152600401610a9f90613058565b60405180910390fd5b600073ffffffffffffffffffffffffffffffffffffffff1660008054906101000a900473ffffffffffffffffffffffffffffffffffffffff1673ffffffffffffffffffffffffffffffffffffffff167f8be0079c531659141344cd1fd0a4f28419497f9722a3daafe3b4186f6b6457e060405160405180910390a360008060006101000a81548173ffffffffffffffffffffffffffffffffffffffff021916908373ffffffffffffffffffffffffffffffffffffffff160217905550565b610b6e611811565b73ffffffffffffffffffffffffffffffffffffffff16610b8c610d7b565b73ffffffffffffffffffffffffffffffffffffffff161480610c025750610bb1611811565b73ffffffffffffffffffffffffffffffffffffffff16600e60009054906101000a900473ffffffffffffffffffffffffffffffffffffffff1673ffffffffffffffffffffffffffffffffffffffff16145b610c41576040517f08c379a0000000000000000000000000000000000000000000000000000000008152600401610c38906130c4565b60405180910390fd5b8073ffffffffffffffffffffffffffffffffffffffff16600f60009054906101000a900473ffffffffffffffffffffffffffffffffffffffff1673ffffffffffffffffffffffffffffffffffffffff167fa64373a629bc0c09eacf8a9cc2c7b070fa0a8b7e2e9b8aaee408a3c02eb1676b60405160405180910390a380600f60006101000a81548173ffffffffffffffffffffffffffffffffffffffff021916908373ffffffffffffffffffffffffffffffffffffffff160217905550600160056000600f60009054906101000a900473ffffffffffffffffffffffffffffffffffffffff1673ffffffffffffffffffffffffffffffffffffffff1673ffffffffffffffffffffffffffffffffffffffff16815260200190815260200160002060006101000a81548160ff02191690831515021790555050565b60008060009054906101000a900473ffffffffffffffffffffffffffffffffffffffff16905090565b60606040518060400160405280600381526020017f5753500000000000000000000000000000000000000000000000000000000000815250905090565b610de9611811565b73ffffffffffffffffffffffffffffffffffffffff16610e07610d7b565b73ffffffffffffffffffffffffffffffffffffffff161480610e7d5750610e2c611811565b73ffffffffffffffffffffffffffffffffffffffff16600e60009054906101000a900473ffffffffffffffffffffffffffffffffffffffff1673ffffffffffffffffffffffffffffffffffffffff16145b610ebc576040517f08c379a0000000000000000000000000000000000000000000000000000000008152600401610eb3906130c4565b60405180910390fd5b600b8410610eff576040517f08c379a0000000000000000000000000000000000000000000000000000000008152600401610ef690613130565b60405180910390fd5b600b8310610f42576040517f08c379a0000000000000000000000000000000000000000000000000000000008152600401610f3990613130565b60405180910390fd5b60078210610f85576040517f08c379a0000000000000000000000000000000000000000000000000000000008152600401610f7c9061319c565b60405180910390fd5b60078110610fc8576040517f08c379a0000000000000000000000000000000000000000000000000000000008152600401610fbf9061319c565b60405180910390fd5b8360088190555082600a819055508160098190555080600b8190555050505050565b6000610ffe610ff7611811565b84846119e2565b6001905092915050565b611010611811565b73ffffffffffffffffffffffffffffffffffffffff1661102e610d7b565b73ffffffffffffffffffffffffffffffffffffffff1614806110a45750611053611811565b73ffffffffffffffffffffffffffffffffffffffff16600e60009054906101000a900473ffffffffffffffffffffffffffffffffffffffff1673ffffffffffffffffffffffffffffffffffffffff16145b6110e3576040517f08c379a00000000000000000000000000000000000000000000000000000000081526004016110da906130c4565b60405180910390fd5b8073ffffffffffffffffffffffffffffffffffffffff16600e60009054906101000a900473ffffffffffffffffffffffffffffffffffffffff1673ffffffffffffffffffffffffffffffffffffffff167ffbbc329437e8c79f847e170730ad6dd04106b7511cad70d06d635886d92de83c60405160405180910390a380600e60006101000a81548173ffffffffffffffffffffffffffffffffffffffff021916908373ffffffffffffffffffffffffffffffffffffffff160217905550600160056000600e60009054906101000a900473ffffffffffffffffffffffffffffffffffffffff1673ffffffffffffffffffffffffffffffffffffffff1673ffffffffffffffffffffffffffffffffffffffff16815260200190815260200160002060006101000a81548160ff02191690831515021790555050565b600e60009054906101000a900473ffffffffffffffffffffffffffffffffffffffff1673ffffffffffffffffffffffffffffffffffffffff1661125e611811565b73ffffffffffffffffffffffffffffffffffffffff1614806112d45750600f60009054906101000a900473ffffffffffffffffffffffffffffffffffffffff1673ffffffffffffffffffffffffffffffffffffffff166112bc611811565b73ffffffffffffffffffffffffffffffffffffffff16145b8061131857506112e2610d7b565b73ffffffffffffffffffffffffffffffffffffffff16611300611811565b73ffffffffffffffffffffffffffffffffffffffff16145b61132157600080fd5b600061132c306109c2565b905061133781612121565b50565b611342611811565b73ffffffffffffffffffffffffffffffffffffffff1660008054906101000a900473ffffffffffffffffffffffffffffffffffffffff1673ffffffffffffffffffffffffffffffffffffffff16146113cf576040517f08c379a00000000000000000000000000000000000000000000000000000000081526004016113c690613058565b60405180910390fd5b60005b8383905081101561146e5781600560008686858181106113f5576113f46131bc565b5b905060200201602081019061140a9190612e08565b73ffffffffffffffffffffffffffffffffffffffff1673ffffffffffffffffffffffffffffffffffffffff16815260200190815260200160002060006101000a81548160ff02191690831515021790555080806114669061321a565b9150506113d2565b50505050565b6000600460008473ffffffffffffffffffffffffffffffffffffffff1673ffffffffffffffffffffffffffffffffffffffff16815260200190815260200160002060008373ffffffffffffffffffffffffffffffffffffffff1673ffffffffffffffffffffffffffffffffffffffff16815260200190815260200160002054905092915050565b611503611811565b73ffffffffffffffffffffffffffffffffffffffff16611521610d7b565b73ffffffffffffffffffffffffffffffffffffffff1614806115975750611546611811565b73ffffffffffffffffffffffffffffffffffffffff16600e60009054906101000a900473ffffffffffffffffffffffffffffffffffffffff1673ffffffffffffffffffffffffffffffffffffffff16145b6115d6576040517f08c379a00000000000000000000000000000000000000000000000000000000081526004016115cd906130c4565b60405180910390fd5b8173ffffffffffffffffffffffffffffffffffffffff168373ffffffffffffffffffffffffffffffffffffffff167f47c33aa230eb5fd181505aa7befeaddd9b8a6f983989cea73a7868448c3a9ed9836040516116339190612ca4565b60405180910390a38273ffffffffffffffffffffffffffffffffffffffff1663a9059cbb83836040518363ffffffff1660e01b8152600401611676929190613262565b6020604051808303816000875af1158015611695573d6000803e3d6000fd5b505050506040513d601f19601f820116820180604052508101906116b991906132a0565b50505050565b6116c7611811565b73ffffffffffffffffffffffffffffffffffffffff1660008054906101000a900473ffffffffffffffffffffffffffffffffffffffff1673ffffffffffffffffffffffffffffffffffffffff1614611754576040517f08c379a000000000000000000000000000000000000000000000000000000000815260040161174b90613058565b60405180910390fd5b8073ffffffffffffffffffffffffffffffffffffffff1660008054906101000a900473ffffffffffffffffffffffffffffffffffffffff1673ffffffffffffffffffffffffffffffffffffffff167f8be0079c531659141344cd1fd0a4f28419497f9722a3daafe3b4186f6b6457e060405160405180910390a3806000806101000a81548173ffffffffffffffffffffffffffffffffffffffff021916908373ffffffffffffffffffffffffffffffffffffffff16021790555050565b600033905090565b600073ffffffffffffffffffffffffffffffffffffffff168373ffffffffffffffffffffffffffffffffffffffff1603611888576040517f08c379a000000000000000000000000000000000000000000000000000000000815260040161187f9061333f565b60405180910390fd5b600073ffffffffffffffffffffffffffffffffffffffff168273ffffffffffffffffffffffffffffffffffffffff16036118f7576040517f08c379a00000000000000000000000000000000000000000000000000000000081526004016118ee906133d1565b60405180910390fd5b80600460008573ffffffffffffffffffffffffffffffffffffffff1673ffffffffffffffffffffffffffffffffffffffff16815260200190815260200160002060008473ffffffffffffffffffffffffffffffffffffffff1673ffffffffffffffffffffffffffffffffffffffff168152602001908152602001600020819055508173ffffffffffffffffffffffffffffffffffffffff168373ffffffffffffffffffffffffffffffffffffffff167f8c5be1e5ebec7d5bd14f71427d1e84f3dd0314c0f7b2291e5b200ac8c7c3b925836040516119d59190612ca4565b60405180910390a3505050565b600073ffffffffffffffffffffffffffffffffffffffff168373ffffffffffffffffffffffffffffffffffffffff1603611a51576040517f08c379a0000000000000000000000000000000000000000000000000000000008152600401611a4890613463565b60405180910390fd5b600073ffffffffffffffffffffffffffffffffffffffff168273ffffffffffffffffffffffffffffffffffffffff1603611ac0576040517f08c379a0000000000000000000000000000000000000000000000000000000008152600401611ab7906134f5565b60405180910390fd5b60008111611b03576040517f08c379a0000000000000000000000000000000000000000000000000000000008152600401611afa90613587565b60405180910390fd5b6000600c819055506000600d81905550611b1b610d7b565b73ffffffffffffffffffffffffffffffffffffffff168373ffffffffffffffffffffffffffffffffffffffff1614158015611b895750611b59610d7b565b73ffffffffffffffffffffffffffffffffffffffff168273ffffffffffffffffffffffffffffffffffffffff1614155b15611f44576000611b99306109c2565b9050601260149054906101000a900460ff16158015611c065750601260009054906101000a900473ffffffffffffffffffffffffffffffffffffffff1673ffffffffffffffffffffffffffffffffffffffff168473ffffffffffffffffffffffffffffffffffffffff1614155b8015611c1e5750601260159054906101000a900460ff165b8015611c2a5750600081115b15611c5257611c3881612121565b60004790506000811115611c5057611c4f47611fb8565b5b505b601260009054906101000a900473ffffffffffffffffffffffffffffffffffffffff1673ffffffffffffffffffffffffffffffffffffffff168473ffffffffffffffffffffffffffffffffffffffff16148015611cfd5750601060009054906101000a900473ffffffffffffffffffffffffffffffffffffffff1673ffffffffffffffffffffffffffffffffffffffff168373ffffffffffffffffffffffffffffffffffffffff1614155b15611d1557600854600c81905550600954600d819055505b601260009054906101000a900473ffffffffffffffffffffffffffffffffffffffff1673ffffffffffffffffffffffffffffffffffffffff168373ffffffffffffffffffffffffffffffffffffffff16148015611dc05750601060009054906101000a900473ffffffffffffffffffffffffffffffffffffffff1673ffffffffffffffffffffffffffffffffffffffff168473ffffffffffffffffffffffffffffffffffffffff1614155b15611dd857600a54600c81905550600b54600d819055505b600560008573ffffffffffffffffffffffffffffffffffffffff1673ffffffffffffffffffffffffffffffffffffffff16815260200190815260200160002060009054906101000a900460ff1680611e795750600560008473ffffffffffffffffffffffffffffffffffffffff1673ffffffffffffffffffffffffffffffffffffffff16815260200190815260200160002060009054906101000a900460ff165b80611f2c5750601260009054906101000a900473ffffffffffffffffffffffffffffffffffffffff1673ffffffffffffffffffffffffffffffffffffffff168473ffffffffffffffffffffffffffffffffffffffff1614158015611f2b5750601260009054906101000a900473ffffffffffffffffffffffffffffffffffffffff1673ffffffffffffffffffffffffffffffffffffffff168373ffffffffffffffffffffffffffffffffffffffff1614155b5b15611f42576000600c819055506000600d819055505b505b611f4f83838361239a565b505050565b6000838311158290611f9c576040517f08c379a0000000000000000000000000000000000000000000000000000000008152600401611f939190612ae5565b60405180910390fd5b5060008385611fab91906135a7565b9050809150509392505050565b600e60009054906101000a900473ffffffffffffffffffffffffffffffffffffffff1673ffffffffffffffffffffffffffffffffffffffff166108fc6120086002846123aa90919063ffffffff16565b9081150290604051600060405180830381858888f19350505050158015612033573d6000803e3d6000fd5b50600f60009054906101000a900473ffffffffffffffffffffffffffffffffffffffff1673ffffffffffffffffffffffffffffffffffffffff166108fc6120846002846123aa90919063ffffffff16565b9081150290604051600060405180830381858888f193505050501580156120af573d6000803e3d6000fd5b5050565b60006006548211156120fa576040517f08c379a00000000000000000000000000000000000000000000000000000000081526004016120f19061364d565b60405180910390fd5b60006121046123f4565b905061211981846123aa90919063ffffffff16565b915050919050565b6001601260146101000a81548160ff0219169083151502179055506000600267ffffffffffffffff8111156121595761215861366d565b5b6040519080825280602002602001820160405280156121875781602001602082028036833780820191505090505b509050308160008151811061219f5761219e6131bc565b5b602002602001019073ffffffffffffffffffffffffffffffffffffffff16908173ffffffffffffffffffffffffffffffffffffffff1681525050601060009054906101000a900473ffffffffffffffffffffffffffffffffffffffff1673ffffffffffffffffffffffffffffffffffffffff1663ad5c46486040518163ffffffff1660e01b8152600401602060405180830381865afa158015612246573d6000803e3d6000fd5b505050506040513d601f19601f8201168201806040525081019061226a91906136b1565b8160018151811061227e5761227d6131bc565b5b602002602001019073ffffffffffffffffffffffffffffffffffffffff16908173ffffffffffffffffffffffffffffffffffffffff16815250506122e530601060009054906101000a900473ffffffffffffffffffffffffffffffffffffffff1684611819565b601060009054906101000a900473ffffffffffffffffffffffffffffffffffffffff1673ffffffffffffffffffffffffffffffffffffffff1663791ac9478360008430426040518663ffffffff1660e01b81526004016123499594939291906137d7565b600060405180830381600087803b15801561236357600080fd5b505af1158015612377573d6000803e3d6000fd5b50505050506000601260146101000a81548160ff02191690831515021790555050565b6123a583838361241f565b505050565b60006123ec83836040518060400160405280601a81526020017f536166654d6174683a206469766973696f6e206279207a65726f0000000000008152506125ea565b905092915050565b600080600061240161264d565b9150915061241881836123aa90919063ffffffff16565b9250505090565b600080600080600080612431876126ac565b95509550955095509550955061248f86600260008c73ffffffffffffffffffffffffffffffffffffffff1673ffffffffffffffffffffffffffffffffffffffff1681526020019081526020016000205461271490919063ffffffff16565b600260008b73ffffffffffffffffffffffffffffffffffffffff1673ffffffffffffffffffffffffffffffffffffffff1681526020019081526020016000208190555061252485600260008b73ffffffffffffffffffffffffffffffffffffffff1673ffffffffffffffffffffffffffffffffffffffff1681526020019081526020016000205461275e90919063ffffffff16565b600260008a73ffffffffffffffffffffffffffffffffffffffff1673ffffffffffffffffffffffffffffffffffffffff16815260200190815260200160002081905550612570816127bc565b61257a8483612879565b8773ffffffffffffffffffffffffffffffffffffffff168973ffffffffffffffffffffffffffffffffffffffff167fddf252ad1be2c89b69c2b068fc378daa952ba7f163c4a11628f55a4df523b3ef856040516125d79190612ca4565b60405180910390a3505050505050505050565b60008083118290612631576040517f08c379a00000000000000000000000000000000000000000000000000000000081526004016126289190612ae5565b60405180910390fd5b50600083856126409190613860565b9050809150509392505050565b600080600060065490506000670de0b6b3a76400009050612681670de0b6b3a76400006006546123aa90919063ffffffff16565b82101561269f57600654670de0b6b3a76400009350935050506126a8565b81819350935050505b9091565b60008060008060008060008060006126c98a600c54600d546128b3565b92509250925060006126d96123f4565b905060008060006126ec8e878787612949565b9250925092508282828989899c509c509c509c509c509c505050505050505091939550919395565b600061275683836040518060400160405280601e81526020017f536166654d6174683a207375627472616374696f6e206f766572666c6f770000815250611f54565b905092915050565b600080828461276d9190613891565b9050838110156127b2576040517f08c379a00000000000000000000000000000000000000000000000000000000081526004016127a990613933565b60405180910390fd5b8091505092915050565b60006127c66123f4565b905060006127dd82846129d290919063ffffffff16565b905061283181600260003073ffffffffffffffffffffffffffffffffffffffff1673ffffffffffffffffffffffffffffffffffffffff1681526020019081526020016000205461275e90919063ffffffff16565b600260003073ffffffffffffffffffffffffffffffffffffffff1673ffffffffffffffffffffffffffffffffffffffff16815260200190815260200160002081905550505050565b61288e8260065461271490919063ffffffff16565b6006819055506128a98160075461275e90919063ffffffff16565b6007819055505050565b6000806000806128df60646128d1888a6129d290919063ffffffff16565b6123aa90919063ffffffff16565b9050600061290960646128fb888b6129d290919063ffffffff16565b6123aa90919063ffffffff16565b9050600061293282612924858c61271490919063ffffffff16565b61271490919063ffffffff16565b905080838395509550955050505093509350939050565b60008060008061296285896129d290919063ffffffff16565b9050600061297986896129d290919063ffffffff16565b9050600061299087896129d290919063ffffffff16565b905060006129b9826129ab858761271490919063ffffffff16565b61271490919063ffffffff16565b9050838184965096509650505050509450945094915050565b60008083036129e45760009050612a46565b600082846129f29190613953565b9050828482612a019190613860565b14612a41576040517f08c379a0000000000000000000000000000000000000000000000000000000008152600401612a3890613a1f565b60405180910390fd5b809150505b92915050565b600081519050919050565b600082825260208201905092915050565b60005b83811015612a86578082015181840152602081019050612a6b565b83811115612a95576000848401525b50505050565b6000601f19601f8301169050919050565b6000612ab782612a4c565b612ac18185612a57565b9350612ad1818560208601612a68565b612ada81612a9b565b840191505092915050565b60006020820190508181036000830152612aff8184612aac565b905092915050565b600080fd5b600080fd5b600073ffffffffffffffffffffffffffffffffffffffff82169050919050565b6000612b3c82612b11565b9050919050565b612b4c81612b31565b8114612b5757600080fd5b50565b600081359050612b6981612b43565b92915050565b6000819050919050565b612b8281612b6f565b8114612b8d57600080fd5b50565b600081359050612b9f81612b79565b92915050565b60008060408385031215612bbc57612bbb612b07565b5b6000612bca85828601612b5a565b9250506020612bdb85828601612b90565b9150509250929050565b60008115159050919050565b612bfa81612be5565b82525050565b6000602082019050612c156000830184612bf1565b92915050565b6000819050919050565b6000612c40612c3b612c3684612b11565b612c1b565b612b11565b9050919050565b6000612c5282612c25565b9050919050565b6000612c6482612c47565b9050919050565b612c7481612c59565b82525050565b6000602082019050612c8f6000830184612c6b565b92915050565b612c9e81612b6f565b82525050565b6000602082019050612cb96000830184612c95565b92915050565b600080600060608486031215612cd857612cd7612b07565b5b6000612ce686828701612b5a565b9350506020612cf786828701612b5a565b9250506040612d0886828701612b90565b9150509250925092565b600060ff82169050919050565b612d2881612d12565b82525050565b6000602082019050612d436000830184612d1f565b92915050565b612d5281612b31565b82525050565b6000602082019050612d6d6000830184612d49565b92915050565b6000612d7e82612c47565b9050919050565b612d8e81612d73565b82525050565b6000602082019050612da96000830184612d85565b92915050565b612db881612be5565b8114612dc357600080fd5b50565b600081359050612dd581612daf565b92915050565b600060208284031215612df157612df0612b07565b5b6000612dff84828501612dc6565b91505092915050565b600060208284031215612e1e57612e1d612b07565b5b6000612e2c84828501612b5a565b91505092915050565b6000612e4082612b11565b9050919050565b612e5081612e35565b8114612e5b57600080fd5b50565b600081359050612e6d81612e47565b92915050565b600060208284031215612e8957612e88612b07565b5b6000612e9784828501612e5e565b91505092915050565b60008060008060808587031215612eba57612eb9612b07565b5b6000612ec887828801612b90565b9450506020612ed987828801612b90565b9350506040612eea87828801612b90565b9250506060612efb87828801612b90565b91505092959194509250565b600080fd5b600080fd5b600080fd5b60008083601f840112612f2c57612f2b612f07565b5b8235905067ffffffffffffffff811115612f4957612f48612f0c565b5b602083019150836020820283011115612f6557612f64612f11565b5b9250929050565b600080600060408486031215612f8557612f84612b07565b5b600084013567ffffffffffffffff811115612fa357612fa2612b0c565b5b612faf86828701612f16565b93509350506020612fc286828701612dc6565b9150509250925092565b60008060408385031215612fe357612fe2612b07565b5b6000612ff185828601612b5a565b925050602061300285828601612b5a565b9150509250929050565b7f43616c6c6572206973206e6f7420746865206f776e6572000000000000000000600082015250565b6000613042601783612a57565b915061304d8261300c565b602082019050919050565b6000602082019050818103600083015261307181613035565b9050919050565b7f43616c6c6572206973206e6f7420746865206465760000000000000000000000600082015250565b60006130ae601583612a57565b91506130b982613078565b602082019050919050565b600060208201905081810360008301526130dd816130a1565b9050919050565b7f52656469732063616e6e6f74206265206d6f7265207468616e2031302e000000600082015250565b600061311a601d83612a57565b9150613125826130e4565b602082019050919050565b600060208201905081810360008301526131498161310d565b9050919050565b7f5461782063616e6e6f74206265206d6f7265207468616e20362e000000000000600082015250565b6000613186601a83612a57565b915061319182613150565b602082019050919050565b600060208201905081810360008301526131b581613179565b9050919050565b7f4e487b7100000000000000000000000000000000000000000000000000000000600052603260045260246000fd5b7f4e487b7100000000000000000000000000000000000000000000000000000000600052601160045260246000fd5b600061322582612b6f565b91507fffffffffffffffffffffffffffffffffffffffffffffffffffffffffffffffff8203613257576132566131eb565b5b600182019050919050565b60006040820190506132776000830185612d49565b6132846020830184612c95565b9392505050565b60008151905061329a81612daf565b92915050565b6000602082840312156132b6576132b5612b07565b5b60006132c48482850161328b565b91505092915050565b7f45524332303a20617070726f76652066726f6d20746865207a65726f2061646460008201527f7265737300000000000000000000000000000000000000000000000000000000602082015250565b6000613329602483612a57565b9150613334826132cd565b604082019050919050565b600060208201905081810360008301526133588161331c565b9050919050565b7f45524332303a20617070726f766520746f20746865207a65726f20616464726560008201527f7373000000000000000000000000000000000000000000000000000000000000602082015250565b60006133bb602283612a57565b91506133c68261335f565b604082019050919050565b600060208201905081810360008301526133ea816133ae565b9050919050565b7f45524332303a207472616e736665722066726f6d20746865207a65726f20616460008201527f6472657373000000000000000000000000000000000000000000000000000000602082015250565b600061344d602583612a57565b9150613458826133f1565b604082019050919050565b6000602082019050818103600083015261347c81613440565b9050919050565b7f45524332303a207472616e7366657220746f20746865207a65726f206164647260008201527f6573730000000000000000000000000000000000000000000000000000000000602082015250565b60006134df602383612a57565b91506134ea82613483565b604082019050919050565b6000602082019050818103600083015261350e816134d2565b9050919050565b7f5472616e7366657220616d6f756e74206d75737420626520677265617465722060008201527f7468616e207a65726f0000000000000000000000000000000000000000000000602082015250565b6000613571602983612a57565b915061357c82613515565b604082019050919050565b600060208201905081810360008301526135a081613564565b9050919050565b60006135b282612b6f565b91506135bd83612b6f565b9250828210156135d0576135cf6131eb565b5b828203905092915050565b7f416d6f756e74206d757374206265206c657373207468616e20746f74616c207260008201527f65666c656374696f6e7300000000000000000000000000000000000000000000602082015250565b6000613637602a83612a57565b9150613642826135db565b604082019050919050565b600060208201905081810360008301526136668161362a565b9050919050565b7f4e487b7100000000000000000000000000000000000000000000000000000000600052604160045260246000fd5b6000815190506136ab81612b43565b92915050565b6000602082840312156136c7576136c6612b07565b5b60006136d58482850161369c565b91505092915050565b6000819050919050565b60006137036136fe6136f9846136de565b612c1b565b612b6f565b9050919050565b613713816136e8565b82525050565b600081519050919050565b600082825260208201905092915050565b6000819050602082019050919050565b61374e81612b31565b82525050565b60006137608383613745565b60208301905092915050565b6000602082019050919050565b600061378482613719565b61378e8185613724565b935061379983613735565b8060005b838110156137ca5781516137b18882613754565b97506137bc8361376c565b92505060018101905061379d565b5085935050505092915050565b600060a0820190506137ec6000830188612c95565b6137f9602083018761370a565b818103604083015261380b8186613779565b905061381a6060830185612d49565b6138276080830184612c95565b9695505050505050565b7f4e487b7100000000000000000000000000000000000000000000000000000000600052601260045260246000fd5b600061386b82612b6f565b915061387683612b6f565b92508261388657613885613831565b5b828204905092915050565b600061389c82612b6f565b91506138a783612b6f565b9250827fffffffffffffffffffffffffffffffffffffffffffffffffffffffffffffffff038211156138dc576138db6131eb565b5b828201905092915050565b7f536166654d6174683a206164646974696f6e206f766572666c6f770000000000600082015250565b600061391d601b83612a57565b9150613928826138e7565b602082019050919050565b6000602082019050818103600083015261394c81613910565b9050919050565b600061395e82612b6f565b915061396983612b6f565b9250817fffffffffffffffffffffffffffffffffffffffffffffffffffffffffffffffff04831182151516156139a2576139a16131eb565b5b828202905092915050565b7f536166654d6174683a206d756c7469706c69636174696f6e206f766572666c6f60008201527f7700000000000000000000000000000000000000000000000000000000000000602082015250565b6000613a09602183612a57565b9150613a14826139ad565b604082019050919050565b60006020820190508181036000830152613a38816139fc565b905091905056fe45524332303a207472616e7366657220616d6f756e74206578636565647320616c6c6f77616e6365a26469706673582212204f1e02526085d9da759c6ca6a7429b9048d64a1431f7e262c23e32e6ac8e6baf64736f6c634300080d0033",
					"opcodes": "PUSH1 0x80 PUSH1 0x40 MSTORE PUSH8 0xDE0B6B3A7640000 PUSH5 0x14F46B0400 PUSH3 0x1F SWAP2 SWAP1 PUSH3 0x6DD JUMP JUMPDEST PUSH5 0x14F46B0400 PUSH3 0x31 SWAP2 SWAP1 PUSH3 0x744 JUMP JUMPDEST PUSH1 0x6 SSTORE PUSH1 0x1 PUSH1 0x8 SSTORE PUSH1 0x4 PUSH1 0x9 SSTORE PUSH1 0x1 PUSH1 0xA SSTORE PUSH1 0x1 PUSH1 0xB SSTORE PUSH20 0x8492CBD894686D7E98214541903C7BA6F94928D6 PUSH1 0xE PUSH1 0x0 PUSH2 0x100 EXP DUP2 SLOAD DUP2 PUSH20 0xFFFFFFFFFFFFFFFFFFFFFFFFFFFFFFFFFFFFFFFF MUL NOT AND SWAP1 DUP4 PUSH20 0xFFFFFFFFFFFFFFFFFFFFFFFFFFFFFFFFFFFFFFFF AND MUL OR SWAP1 SSTORE POP PUSH20 0xA4ED7AA4EF5DEB0A63E97D9CB77445AE553FEB1D PUSH1 0xF PUSH1 0x0 PUSH2 0x100 EXP DUP2 SLOAD DUP2 PUSH20 0xFFFFFFFFFFFFFFFFFFFFFFFFFFFFFFFFFFFFFFFF MUL NOT AND SWAP1 DUP4 PUSH20 0xFFFFFFFFFFFFFFFFFFFFFFFFFFFFFFFFFFFFFFFF AND MUL OR SWAP1 SSTORE POP PUSH1 0x0 PUSH1 0x12 PUSH1 0x14 PUSH2 0x100 EXP DUP2 SLOAD DUP2 PUSH1 0xFF MUL NOT AND SWAP1 DUP4 ISZERO ISZERO MUL OR SWAP1 SSTORE POP PUSH1 0x1 PUSH1 0x12 PUSH1 0x15 PUSH2 0x100 EXP DUP2 SLOAD DUP2 PUSH1 0xFF MUL NOT AND SWAP1 DUP4 ISZERO ISZERO MUL OR SWAP1 SSTORE POP CALLVALUE DUP1 ISZERO PUSH3 0x135 JUMPI PUSH1 0x0 DUP1 REVERT JUMPDEST POP PUSH1 0x0 PUSH3 0x148 PUSH3 0x673 PUSH1 0x20 SHL PUSH1 0x20 SHR JUMP JUMPDEST SWAP1 POP DUP1 PUSH1 0x0 DUP1 PUSH2 0x100 EXP DUP2 SLOAD DUP2 PUSH20 0xFFFFFFFFFFFFFFFFFFFFFFFFFFFFFFFFFFFFFFFF MUL NOT AND SWAP1 DUP4 PUSH20 0xFFFFFFFFFFFFFFFFFFFFFFFFFFFFFFFFFFFFFFFF AND MUL OR SWAP1 SSTORE POP DUP1 PUSH20 0xFFFFFFFFFFFFFFFFFFFFFFFFFFFFFFFFFFFFFFFF AND PUSH1 0x0 PUSH20 0xFFFFFFFFFFFFFFFFFFFFFFFFFFFFFFFFFFFFFFFF AND PUSH32 0x8BE0079C531659141344CD1FD0A4F28419497F9722A3DAAFE3B4186F6B6457E0 PUSH1 0x40 MLOAD PUSH1 0x40 MLOAD DUP1 SWAP2 SUB SWAP1 LOG3 POP PUSH1 0x6 SLOAD PUSH1 0x2 PUSH1 0x0 PUSH3 0x1FD PUSH3 0x673 PUSH1 0x20 SHL PUSH1 0x20 SHR JUMP JUMPDEST PUSH20 0xFFFFFFFFFFFFFFFFFFFFFFFFFFFFFFFFFFFFFFFF AND PUSH20 0xFFFFFFFFFFFFFFFFFFFFFFFFFFFFFFFFFFFFFFFF AND DUP2 MSTORE PUSH1 0x20 ADD SWAP1 DUP2 MSTORE PUSH1 0x20 ADD PUSH1 0x0 KECCAK256 DUP2 SWAP1 SSTORE POP PUSH1 0x0 PUSH20 0x10ED43C718714EB63D5AA57B78B54704E256024E SWAP1 POP DUP1 PUSH1 0x10 PUSH1 0x0 PUSH2 0x100 EXP DUP2 SLOAD DUP2 PUSH20 0xFFFFFFFFFFFFFFFFFFFFFFFFFFFFFFFFFFFFFFFF MUL NOT AND SWAP1 DUP4 PUSH20 0xFFFFFFFFFFFFFFFFFFFFFFFFFFFFFFFFFFFFFFFF AND MUL OR SWAP1 SSTORE POP DUP1 PUSH20 0xFFFFFFFFFFFFFFFFFFFFFFFFFFFFFFFFFFFFFFFF AND PUSH4 0xC45A0155 PUSH1 0x40 MLOAD DUP2 PUSH4 0xFFFFFFFF AND PUSH1 0xE0 SHL DUP2 MSTORE PUSH1 0x4 ADD PUSH1 0x20 PUSH1 0x40 MLOAD DUP1 DUP4 SUB DUP2 DUP7 GAS STATICCALL ISZERO DUP1 ISZERO PUSH3 0x2E1 JUMPI RETURNDATASIZE PUSH1 0x0 DUP1 RETURNDATACOPY RETURNDATASIZE PUSH1 0x0 REVERT JUMPDEST POP POP POP POP PUSH1 0x40 MLOAD RETURNDATASIZE PUSH1 0x1F NOT PUSH1 0x1F DUP3 ADD AND DUP3 ADD DUP1 PUSH1 0x40 MSTORE POP DUP2 ADD SWAP1 PUSH3 0x307 SWAP2 SWAP1 PUSH3 0x7E9 JUMP JUMPDEST PUSH20 0xFFFFFFFFFFFFFFFFFFFFFFFFFFFFFFFFFFFFFFFF AND PUSH4 0xC9C65396 ADDRESS DUP4 PUSH20 0xFFFFFFFFFFFFFFFFFFFFFFFFFFFFFFFFFFFFFFFF AND PUSH4 0xAD5C4648 PUSH1 0x40 MLOAD DUP2 PUSH4 0xFFFFFFFF AND PUSH1 0xE0 SHL DUP2 MSTORE PUSH1 0x4 ADD PUSH1 0x20 PUSH1 0x40 MLOAD DUP1 DUP4 SUB DUP2 DUP7 GAS STATICCALL ISZERO DUP1 ISZERO PUSH3 0x36F JUMPI RETURNDATASIZE PUSH1 0x0 DUP1 RETURNDATACOPY RETURNDATASIZE PUSH1 0x0 REVERT JUMPDEST POP POP POP POP PUSH1 0x40 MLOAD RETURNDATASIZE PUSH1 0x1F NOT PUSH1 0x1F DUP3 ADD AND DUP3 ADD DUP1 PUSH1 0x40 MSTORE POP DUP2 ADD SWAP1 PUSH3 0x395 SWAP2 SWAP1 PUSH3 0x7E9 JUMP JUMPDEST PUSH1 0x40 MLOAD DUP4 PUSH4 0xFFFFFFFF AND PUSH1 0xE0 SHL DUP2 MSTORE PUSH1 0x4 ADD PUSH3 0x3B4 SWAP3 SWAP2 SWAP1 PUSH3 0x82C JUMP JUMPDEST PUSH1 0x20 PUSH1 0x40 MLOAD DUP1 DUP4 SUB DUP2 PUSH1 0x0 DUP8 GAS CALL ISZERO DUP1 ISZERO PUSH3 0x3D4 JUMPI RETURNDATASIZE PUSH1 0x0 DUP1 RETURNDATACOPY RETURNDATASIZE PUSH1 0x0 REVERT JUMPDEST POP POP POP POP PUSH1 0x40 MLOAD RETURNDATASIZE PUSH1 0x1F NOT PUSH1 0x1F DUP3 ADD AND DUP3 ADD DUP1 PUSH1 0x40 MSTORE POP DUP2 ADD SWAP1 PUSH3 0x3FA SWAP2 SWAP1 PUSH3 0x7E9 JUMP JUMPDEST PUSH1 0x12 PUSH1 0x0 PUSH2 0x100 EXP DUP2 SLOAD DUP2 PUSH20 0xFFFFFFFFFFFFFFFFFFFFFFFFFFFFFFFFFFFFFFFF MUL NOT AND SWAP1 DUP4 PUSH20 0xFFFFFFFFFFFFFFFFFFFFFFFFFFFFFFFFFFFFFFFF AND MUL OR SWAP1 SSTORE POP PUSH1 0x1 PUSH1 0x5 PUSH1 0x0 PUSH3 0x450 PUSH3 0x67B PUSH1 0x20 SHL PUSH1 0x20 SHR JUMP JUMPDEST PUSH20 0xFFFFFFFFFFFFFFFFFFFFFFFFFFFFFFFFFFFFFFFF AND PUSH20 0xFFFFFFFFFFFFFFFFFFFFFFFFFFFFFFFFFFFFFFFF AND DUP2 MSTORE PUSH1 0x20 ADD SWAP1 DUP2 MSTORE PUSH1 0x20 ADD PUSH1 0x0 KECCAK256 PUSH1 0x0 PUSH2 0x100 EXP DUP2 SLOAD DUP2 PUSH1 0xFF MUL NOT AND SWAP1 DUP4 ISZERO ISZERO MUL OR SWAP1 SSTORE POP PUSH1 0x1 PUSH1 0x5 PUSH1 0x0 ADDRESS PUSH20 0xFFFFFFFFFFFFFFFFFFFFFFFFFFFFFFFFFFFFFFFF AND PUSH20 0xFFFFFFFFFFFFFFFFFFFFFFFFFFFFFFFFFFFFFFFF AND DUP2 MSTORE PUSH1 0x20 ADD SWAP1 DUP2 MSTORE PUSH1 0x20 ADD PUSH1 0x0 KECCAK256 PUSH1 0x0 PUSH2 0x100 EXP DUP2 SLOAD DUP2 PUSH1 0xFF MUL NOT AND SWAP1 DUP4 ISZERO ISZERO MUL OR SWAP1 SSTORE POP PUSH1 0x1 PUSH1 0x5 PUSH1 0x0 PUSH1 0xE PUSH1 0x0 SWAP1 SLOAD SWAP1 PUSH2 0x100 EXP SWAP1 DIV PUSH20 0xFFFFFFFFFFFFFFFFFFFFFFFFFFFFFFFFFFFFFFFF AND PUSH20 0xFFFFFFFFFFFFFFFFFFFFFFFFFFFFFFFFFFFFFFFF AND PUSH20 0xFFFFFFFFFFFFFFFFFFFFFFFFFFFFFFFFFFFFFFFF AND DUP2 MSTORE PUSH1 0x20 ADD SWAP1 DUP2 MSTORE PUSH1 0x20 ADD PUSH1 0x0 KECCAK256 PUSH1 0x0 PUSH2 0x100 EXP DUP2 SLOAD DUP2 PUSH1 0xFF MUL NOT AND SWAP1 DUP4 ISZERO ISZERO MUL OR SWAP1 SSTORE POP PUSH1 0x1 PUSH1 0x5 PUSH1 0x0 PUSH1 0xF PUSH1 0x0 SWAP1 SLOAD SWAP1 PUSH2 0x100 EXP SWAP1 DIV PUSH20 0xFFFFFFFFFFFFFFFFFFFFFFFFFFFFFFFFFFFFFFFF AND PUSH20 0xFFFFFFFFFFFFFFFFFFFFFFFFFFFFFFFFFFFFFFFF AND PUSH20 0xFFFFFFFFFFFFFFFFFFFFFFFFFFFFFFFFFFFFFFFF AND DUP2 MSTORE PUSH1 0x20 ADD SWAP1 DUP2 MSTORE PUSH1 0x20 ADD PUSH1 0x0 KECCAK256 PUSH1 0x0 PUSH2 0x100 EXP DUP2 SLOAD DUP2 PUSH1 0xFF MUL NOT AND SWAP1 DUP4 ISZERO ISZERO MUL OR SWAP1 SSTORE POP PUSH3 0x5FD PUSH3 0x673 PUSH1 0x20 SHL PUSH1 0x20 SHR JUMP JUMPDEST PUSH20 0xFFFFFFFFFFFFFFFFFFFFFFFFFFFFFFFFFFFFFFFF AND PUSH1 0x0 PUSH20 0xFFFFFFFFFFFFFFFFFFFFFFFFFFFFFFFFFFFFFFFF AND PUSH32 0xDDF252AD1BE2C89B69C2B068FC378DAA952BA7F163C4A11628F55A4DF523B3EF PUSH8 0xDE0B6B3A7640000 PUSH1 0x40 MLOAD PUSH3 0x664 SWAP2 SWAP1 PUSH3 0x86A JUMP JUMPDEST PUSH1 0x40 MLOAD DUP1 SWAP2 SUB SWAP1 LOG3 POP PUSH3 0x887 JUMP JUMPDEST PUSH1 0x0 CALLER SWAP1 POP SWAP1 JUMP JUMPDEST PUSH1 0x0 DUP1 PUSH1 0x0 SWAP1 SLOAD SWAP1 PUSH2 0x100 EXP SWAP1 DIV PUSH20 0xFFFFFFFFFFFFFFFFFFFFFFFFFFFFFFFFFFFFFFFF AND SWAP1 POP SWAP1 JUMP JUMPDEST PUSH1 0x0 DUP2 SWAP1 POP SWAP2 SWAP1 POP JUMP JUMPDEST PUSH32 0x4E487B7100000000000000000000000000000000000000000000000000000000 PUSH1 0x0 MSTORE PUSH1 0x12 PUSH1 0x4 MSTORE PUSH1 0x24 PUSH1 0x0 REVERT JUMPDEST PUSH1 0x0 PUSH3 0x6EA DUP3 PUSH3 0x6A4 JUMP JUMPDEST SWAP2 POP PUSH3 0x6F7 DUP4 PUSH3 0x6A4 JUMP JUMPDEST SWAP3 POP DUP3 PUSH3 0x70A JUMPI PUSH3 0x709 PUSH3 0x6AE JUMP JUMPDEST JUMPDEST DUP3 DUP3 MOD SWAP1 POP SWAP3 SWAP2 POP POP JUMP JUMPDEST PUSH32 0x4E487B7100000000000000000000000000000000000000000000000000000000 PUSH1 0x0 MSTORE PUSH1 0x11 PUSH1 0x4 MSTORE PUSH1 0x24 PUSH1 0x0 REVERT JUMPDEST PUSH1 0x0 PUSH3 0x751 DUP3 PUSH3 0x6A4 JUMP JUMPDEST SWAP2 POP PUSH3 0x75E DUP4 PUSH3 0x6A4 JUMP JUMPDEST SWAP3 POP DUP3 DUP3 LT ISZERO PUSH3 0x774 JUMPI PUSH3 0x773 PUSH3 0x715 JUMP JUMPDEST JUMPDEST DUP3 DUP3 SUB SWAP1 POP SWAP3 SWAP2 POP POP JUMP JUMPDEST PUSH1 0x0 DUP1 REVERT JUMPDEST PUSH1 0x0 PUSH20 0xFFFFFFFFFFFFFFFFFFFFFFFFFFFFFFFFFFFFFFFF DUP3 AND SWAP1 POP SWAP2 SWAP1 POP JUMP JUMPDEST PUSH1 0x0 PUSH3 0x7B1 DUP3 PUSH3 0x784 JUMP JUMPDEST SWAP1 POP SWAP2 SWAP1 POP JUMP JUMPDEST PUSH3 0x7C3 DUP2 PUSH3 0x7A4 JUMP JUMPDEST DUP2 EQ PUSH3 0x7CF JUMPI PUSH1 0x0 DUP1 REVERT JUMPDEST POP JUMP JUMPDEST PUSH1 0x0 DUP2 MLOAD SWAP1 POP PUSH3 0x7E3 DUP2 PUSH3 0x7B8 JUMP JUMPDEST SWAP3 SWAP2 POP POP JUMP JUMPDEST PUSH1 0x0 PUSH1 0x20 DUP3 DUP5 SUB SLT ISZERO PUSH3 0x802 JUMPI PUSH3 0x801 PUSH3 0x77F JUMP JUMPDEST JUMPDEST PUSH1 0x0 PUSH3 0x812 DUP5 DUP3 DUP6 ADD PUSH3 0x7D2 JUMP JUMPDEST SWAP2 POP POP SWAP3 SWAP2 POP POP JUMP JUMPDEST PUSH3 0x826 DUP2 PUSH3 0x7A4 JUMP JUMPDEST DUP3 MSTORE POP POP JUMP JUMPDEST PUSH1 0x0 PUSH1 0x40 DUP3 ADD SWAP1 POP PUSH3 0x843 PUSH1 0x0 DUP4 ADD DUP6 PUSH3 0x81B JUMP JUMPDEST PUSH3 0x852 PUSH1 0x20 DUP4 ADD DUP5 PUSH3 0x81B JUMP JUMPDEST SWAP4 SWAP3 POP POP POP JUMP JUMPDEST PUSH3 0x864 DUP2 PUSH3 0x6A4 JUMP JUMPDEST DUP3 MSTORE POP POP JUMP JUMPDEST PUSH1 0x0 PUSH1 0x20 DUP3 ADD SWAP1 POP PUSH3 0x881 PUSH1 0x0 DUP4 ADD DUP5 PUSH3 0x859 JUMP JUMPDEST SWAP3 SWAP2 POP POP JUMP JUMPDEST PUSH2 0x3A9D DUP1 PUSH3 0x897 PUSH1 0x0 CODECOPY PUSH1 0x0 RETURN INVALID PUSH1 0x80 PUSH1 0x40 MSTORE PUSH1 0x4 CALLDATASIZE LT PUSH2 0x14F JUMPI PUSH1 0x0 CALLDATALOAD PUSH1 0xE0 SHR DUP1 PUSH4 0x715018A6 GT PUSH2 0xB6 JUMPI DUP1 PUSH4 0xAAD5C023 GT PUSH2 0x6F JUMPI DUP1 PUSH4 0xAAD5C023 EQ PUSH2 0x467 JUMPI DUP1 PUSH4 0xC3C8CD80 EQ PUSH2 0x490 JUMPI DUP1 PUSH4 0xC492F046 EQ PUSH2 0x4A7 JUMPI DUP1 PUSH4 0xDD62ED3E EQ PUSH2 0x4D0 JUMPI DUP1 PUSH4 0xE293D316 EQ PUSH2 0x50D JUMPI DUP1 PUSH4 0xF2FDE38B EQ PUSH2 0x536 JUMPI PUSH2 0x156 JUMP JUMPDEST DUP1 PUSH4 0x715018A6 EQ PUSH2 0x36B JUMPI DUP1 PUSH4 0x758DBE03 EQ PUSH2 0x382 JUMPI DUP1 PUSH4 0x8DA5CB5B EQ PUSH2 0x3AB JUMPI DUP1 PUSH4 0x95D89B41 EQ PUSH2 0x3D6 JUMPI DUP1 PUSH4 0xA2A957BB EQ PUSH2 0x401 JUMPI DUP1 PUSH4 0xA9059CBB EQ PUSH2 0x42A JUMPI PUSH2 0x156 JUMP JUMPDEST DUP1 PUSH4 0x313CE567 GT PUSH2 0x108 JUMPI DUP1 PUSH4 0x313CE567 EQ PUSH2 0x26D JUMPI DUP1 PUSH4 0x49BD5A5E EQ PUSH2 0x298 JUMPI DUP1 PUSH4 0x59D0F713 EQ PUSH2 0x2C3 JUMPI DUP1 PUSH4 0x6D8AA8F8 EQ PUSH2 0x2EE JUMPI DUP1 PUSH4 0x6FC3EAEC EQ PUSH2 0x317 JUMPI DUP1 PUSH4 0x70A08231 EQ PUSH2 0x32E JUMPI PUSH2 0x156 JUMP JUMPDEST DUP1 PUSH4 0x5A272EA EQ PUSH2 0x15B JUMPI DUP1 PUSH4 0x6FDDE03 EQ PUSH2 0x172 JUMPI DUP1 PUSH4 0x95EA7B3 EQ PUSH2 0x19D JUMPI DUP1 PUSH4 0x1694505E EQ PUSH2 0x1DA JUMPI DUP1 PUSH4 0x18160DDD EQ PUSH2 0x205 JUMPI DUP1 PUSH4 0x23B872DD EQ PUSH2 0x230 JUMPI PUSH2 0x156 JUMP JUMPDEST CALLDATASIZE PUSH2 0x156 JUMPI STOP JUMPDEST PUSH1 0x0 DUP1 REVERT JUMPDEST CALLVALUE DUP1 ISZERO PUSH2 0x167 JUMPI PUSH1 0x0 DUP1 REVERT JUMPDEST POP PUSH2 0x170 PUSH2 0x55F JUMP JUMPDEST STOP JUMPDEST CALLVALUE DUP1 ISZERO PUSH2 0x17E JUMPI PUSH1 0x0 DUP1 REVERT JUMPDEST POP PUSH2 0x187 PUSH2 0x5F6 JUMP JUMPDEST PUSH1 0x40 MLOAD PUSH2 0x194 SWAP2 SWAP1 PUSH2 0x2AE5 JUMP JUMPDEST PUSH1 0x40 MLOAD DUP1 SWAP2 SUB SWAP1 RETURN JUMPDEST CALLVALUE DUP1 ISZERO PUSH2 0x1A9 JUMPI PUSH1 0x0 DUP1 REVERT JUMPDEST POP PUSH2 0x1C4 PUSH1 0x4 DUP1 CALLDATASIZE SUB DUP2 ADD SWAP1 PUSH2 0x1BF SWAP2 SWAP1 PUSH2 0x2BA5 JUMP JUMPDEST PUSH2 0x633 JUMP JUMPDEST PUSH1 0x40 MLOAD PUSH2 0x1D1 SWAP2 SWAP1 PUSH2 0x2C00 JUMP JUMPDEST PUSH1 0x40 MLOAD DUP1 SWAP2 SUB SWAP1 RETURN JUMPDEST CALLVALUE DUP1 ISZERO PUSH2 0x1E6 JUMPI PUSH1 0x0 DUP1 REVERT JUMPDEST POP PUSH2 0x1EF PUSH2 0x651 JUMP JUMPDEST PUSH1 0x40 MLOAD PUSH2 0x1FC SWAP2 SWAP1 PUSH2 0x2C7A JUMP JUMPDEST PUSH1 0x40 MLOAD DUP1 SWAP2 SUB SWAP1 RETURN JUMPDEST CALLVALUE DUP1 ISZERO PUSH2 0x211 JUMPI PUSH1 0x0 DUP1 REVERT JUMPDEST POP PUSH2 0x21A PUSH2 0x677 JUMP JUMPDEST PUSH1 0x40 MLOAD PUSH2 0x227 SWAP2 SWAP1 PUSH2 0x2CA4 JUMP JUMPDEST PUSH1 0x40 MLOAD DUP1 SWAP2 SUB SWAP1 RETURN JUMPDEST CALLVALUE DUP1 ISZERO PUSH2 0x23C JUMPI PUSH1 0x0 DUP1 REVERT JUMPDEST POP PUSH2 0x257 PUSH1 0x4 DUP1 CALLDATASIZE SUB DUP2 ADD SWAP1 PUSH2 0x252 SWAP2 SWAP1 PUSH2 0x2CBF JUMP JUMPDEST PUSH2 0x687 JUMP JUMPDEST PUSH1 0x40 MLOAD PUSH2 0x264 SWAP2 SWAP1 PUSH2 0x2C00 JUMP JUMPDEST PUSH1 0x40 MLOAD DUP1 SWAP2 SUB SWAP1 RETURN JUMPDEST CALLVALUE DUP1 ISZERO PUSH2 0x279 JUMPI PUSH1 0x0 DUP1 REVERT JUMPDEST POP PUSH2 0x282 PUSH2 0x760 JUMP JUMPDEST PUSH1 0x40 MLOAD PUSH2 0x28F SWAP2 SWAP1 PUSH2 0x2D2E JUMP JUMPDEST PUSH1 0x40 MLOAD DUP1 SWAP2 SUB SWAP1 RETURN JUMPDEST CALLVALUE DUP1 ISZERO PUSH2 0x2A4 JUMPI PUSH1 0x0 DUP1 REVERT JUMPDEST POP PUSH2 0x2AD PUSH2 0x769 JUMP JUMPDEST PUSH1 0x40 MLOAD PUSH2 0x2BA SWAP2 SWAP1 PUSH2 0x2D58 JUMP JUMPDEST PUSH1 0x40 MLOAD DUP1 SWAP2 SUB SWAP1 RETURN JUMPDEST CALLVALUE DUP1 ISZERO PUSH2 0x2CF JUMPI PUSH1 0x0 DUP1 REVERT JUMPDEST POP PUSH2 0x2D8 PUSH2 0x78F JUMP JUMPDEST PUSH1 0x40 MLOAD PUSH2 0x2E5 SWAP2 SWAP1 PUSH2 0x2D94 JUMP JUMPDEST PUSH1 0x40 MLOAD DUP1 SWAP2 SUB SWAP1 RETURN JUMPDEST CALLVALUE DUP1 ISZERO PUSH2 0x2FA JUMPI PUSH1 0x0 DUP1 REVERT JUMPDEST POP PUSH2 0x315 PUSH1 0x4 DUP1 CALLDATASIZE SUB DUP2 ADD SWAP1 PUSH2 0x310 SWAP2 SWAP1 PUSH2 0x2DDB JUMP JUMPDEST PUSH2 0x7B5 JUMP JUMPDEST STOP JUMPDEST CALLVALUE DUP1 ISZERO PUSH2 0x323 JUMPI PUSH1 0x0 DUP1 REVERT JUMPDEST POP PUSH2 0x32C PUSH2 0x8AD JUMP JUMPDEST STOP JUMPDEST CALLVALUE DUP1 ISZERO PUSH2 0x33A JUMPI PUSH1 0x0 DUP1 REVERT JUMPDEST POP PUSH2 0x355 PUSH1 0x4 DUP1 CALLDATASIZE SUB DUP2 ADD SWAP1 PUSH2 0x350 SWAP2 SWAP1 PUSH2 0x2E08 JUMP JUMPDEST PUSH2 0x9C2 JUMP JUMPDEST PUSH1 0x40 MLOAD PUSH2 0x362 SWAP2 SWAP1 PUSH2 0x2CA4 JUMP JUMPDEST PUSH1 0x40 MLOAD DUP1 SWAP2 SUB SWAP1 RETURN JUMPDEST CALLVALUE DUP1 ISZERO PUSH2 0x377 JUMPI PUSH1 0x0 DUP1 REVERT JUMPDEST POP PUSH2 0x380 PUSH2 0xA13 JUMP JUMPDEST STOP JUMPDEST CALLVALUE DUP1 ISZERO PUSH2 0x38E JUMPI PUSH1 0x0 DUP1 REVERT JUMPDEST POP PUSH2 0x3A9 PUSH1 0x4 DUP1 CALLDATASIZE SUB DUP2 ADD SWAP1 PUSH2 0x3A4 SWAP2 SWAP1 PUSH2 0x2E73 JUMP JUMPDEST PUSH2 0xB66 JUMP JUMPDEST STOP JUMPDEST CALLVALUE DUP1 ISZERO PUSH2 0x3B7 JUMPI PUSH1 0x0 DUP1 REVERT JUMPDEST POP PUSH2 0x3C0 PUSH2 0xD7B JUMP JUMPDEST PUSH1 0x40 MLOAD PUSH2 0x3CD SWAP2 SWAP1 PUSH2 0x2D58 JUMP JUMPDEST PUSH1 0x40 MLOAD DUP1 SWAP2 SUB SWAP1 RETURN JUMPDEST CALLVALUE DUP1 ISZERO PUSH2 0x3E2 JUMPI PUSH1 0x0 DUP1 REVERT JUMPDEST POP PUSH2 0x3EB PUSH2 0xDA4 JUMP JUMPDEST PUSH1 0x40 MLOAD PUSH2 0x3F8 SWAP2 SWAP1 PUSH2 0x2AE5 JUMP JUMPDEST PUSH1 0x40 MLOAD DUP1 SWAP2 SUB SWAP1 RETURN JUMPDEST CALLVALUE DUP1 ISZERO PUSH2 0x40D JUMPI PUSH1 0x0 DUP1 REVERT JUMPDEST POP PUSH2 0x428 PUSH1 0x4 DUP1 CALLDATASIZE SUB DUP2 ADD SWAP1 PUSH2 0x423 SWAP2 SWAP1 PUSH2 0x2EA0 JUMP JUMPDEST PUSH2 0xDE1 JUMP JUMPDEST STOP JUMPDEST CALLVALUE DUP1 ISZERO PUSH2 0x436 JUMPI PUSH1 0x0 DUP1 REVERT JUMPDEST POP PUSH2 0x451 PUSH1 0x4 DUP1 CALLDATASIZE SUB DUP2 ADD SWAP1 PUSH2 0x44C SWAP2 SWAP1 PUSH2 0x2BA5 JUMP JUMPDEST PUSH2 0xFEA JUMP JUMPDEST PUSH1 0x40 MLOAD PUSH2 0x45E SWAP2 SWAP1 PUSH2 0x2C00 JUMP JUMPDEST PUSH1 0x40 MLOAD DUP1 SWAP2 SUB SWAP1 RETURN JUMPDEST CALLVALUE DUP1 ISZERO PUSH2 0x473 JUMPI PUSH1 0x0 DUP1 REVERT JUMPDEST POP PUSH2 0x48E PUSH1 0x4 DUP1 CALLDATASIZE SUB DUP2 ADD SWAP1 PUSH2 0x489 SWAP2 SWAP1 PUSH2 0x2E73 JUMP JUMPDEST PUSH2 0x1008 JUMP JUMPDEST STOP JUMPDEST CALLVALUE DUP1 ISZERO PUSH2 0x49C JUMPI PUSH1 0x0 DUP1 REVERT JUMPDEST POP PUSH2 0x4A5 PUSH2 0x121D JUMP JUMPDEST STOP JUMPDEST CALLVALUE DUP1 ISZERO PUSH2 0x4B3 JUMPI PUSH1 0x0 DUP1 REVERT JUMPDEST POP PUSH2 0x4CE PUSH1 0x4 DUP1 CALLDATASIZE SUB DUP2 ADD SWAP1 PUSH2 0x4C9 SWAP2 SWAP1 PUSH2 0x2F6C JUMP JUMPDEST PUSH2 0x133A JUMP JUMPDEST STOP JUMPDEST CALLVALUE DUP1 ISZERO PUSH2 0x4DC JUMPI PUSH1 0x0 DUP1 REVERT JUMPDEST POP PUSH2 0x4F7 PUSH1 0x4 DUP1 CALLDATASIZE SUB DUP2 ADD SWAP1 PUSH2 0x4F2 SWAP2 SWAP1 PUSH2 0x2FCC JUMP JUMPDEST PUSH2 0x1474 JUMP JUMPDEST PUSH1 0x40 MLOAD PUSH2 0x504 SWAP2 SWAP1 PUSH2 0x2CA4 JUMP JUMPDEST PUSH1 0x40 MLOAD DUP1 SWAP2 SUB SWAP1 RETURN JUMPDEST CALLVALUE DUP1 ISZERO PUSH2 0x519 JUMPI PUSH1 0x0 DUP1 REVERT JUMPDEST POP PUSH2 0x534 PUSH1 0x4 DUP1 CALLDATASIZE SUB DUP2 ADD SWAP1 PUSH2 0x52F SWAP2 SWAP1 PUSH2 0x2CBF JUMP JUMPDEST PUSH2 0x14FB JUMP JUMPDEST STOP JUMPDEST CALLVALUE DUP1 ISZERO PUSH2 0x542 JUMPI PUSH1 0x0 DUP1 REVERT JUMPDEST POP PUSH2 0x55D PUSH1 0x4 DUP1 CALLDATASIZE SUB DUP2 ADD SWAP1 PUSH2 0x558 SWAP2 SWAP1 PUSH2 0x2E08 JUMP JUMPDEST PUSH2 0x16BF JUMP JUMPDEST STOP JUMPDEST PUSH2 0x567 PUSH2 0x1811 JUMP JUMPDEST PUSH20 0xFFFFFFFFFFFFFFFFFFFFFFFFFFFFFFFFFFFFFFFF AND PUSH1 0x0 DUP1 SLOAD SWAP1 PUSH2 0x100 EXP SWAP1 DIV PUSH20 0xFFFFFFFFFFFFFFFFFFFFFFFFFFFFFFFFFFFFFFFF AND PUSH20 0xFFFFFFFFFFFFFFFFFFFFFFFFFFFFFFFFFFFFFFFF AND EQ PUSH2 0x5F4 JUMPI PUSH1 0x40 MLOAD PUSH32 0x8C379A000000000000000000000000000000000000000000000000000000000 DUP2 MSTORE PUSH1 0x4 ADD PUSH2 0x5EB SWAP1 PUSH2 0x3058 JUMP JUMPDEST PUSH1 0x40 MLOAD DUP1 SWAP2 SUB SWAP1 REVERT JUMPDEST JUMP JUMPDEST PUSH1 0x60 PUSH1 0x40 MLOAD DUP1 PUSH1 0x40 ADD PUSH1 0x40 MSTORE DUP1 PUSH1 0xA DUP2 MSTORE PUSH1 0x20 ADD PUSH32 0x576F726C64205374657000000000000000000000000000000000000000000000 DUP2 MSTORE POP SWAP1 POP SWAP1 JUMP JUMPDEST PUSH1 0x0 PUSH2 0x647 PUSH2 0x640 PUSH2 0x1811 JUMP JUMPDEST DUP5 DUP5 PUSH2 0x1819 JUMP JUMPDEST PUSH1 0x1 SWAP1 POP SWAP3 SWAP2 POP POP JUMP JUMPDEST PUSH1 0x10 PUSH1 0x0 SWAP1 SLOAD SWAP1 PUSH2 0x100 EXP SWAP1 DIV PUSH20 0xFFFFFFFFFFFFFFFFFFFFFFFFFFFFFFFFFFFFFFFF AND DUP2 JUMP JUMPDEST PUSH1 0x0 PUSH8 0xDE0B6B3A7640000 SWAP1 POP SWAP1 JUMP JUMPDEST PUSH1 0x0 PUSH2 0x694 DUP5 DUP5 DUP5 PUSH2 0x19E2 JUMP JUMPDEST PUSH2 0x755 DUP5 PUSH2 0x6A0 PUSH2 0x1811 JUMP JUMPDEST PUSH2 0x750 DUP6 PUSH1 0x40 MLOAD DUP1 PUSH1 0x60 ADD PUSH1 0x40 MSTORE DUP1 PUSH1 0x28 DUP2 MSTORE PUSH1 0x20 ADD PUSH2 0x3A40 PUSH1 0x28 SWAP2 CODECOPY PUSH1 0x4 PUSH1 0x0 DUP12 PUSH20 0xFFFFFFFFFFFFFFFFFFFFFFFFFFFFFFFFFFFFFFFF AND PUSH20 0xFFFFFFFFFFFFFFFFFFFFFFFFFFFFFFFFFFFFFFFF AND DUP2 MSTORE PUSH1 0x20 ADD SWAP1 DUP2 MSTORE PUSH1 0x20 ADD PUSH1 0x0 KECCAK256 PUSH1 0x0 PUSH2 0x706 PUSH2 0x1811 JUMP JUMPDEST PUSH20 0xFFFFFFFFFFFFFFFFFFFFFFFFFFFFFFFFFFFFFFFF AND PUSH20 0xFFFFFFFFFFFFFFFFFFFFFFFFFFFFFFFFFFFFFFFF AND DUP2 MSTORE PUSH1 0x20 ADD SWAP1 DUP2 MSTORE PUSH1 0x20 ADD PUSH1 0x0 KECCAK256 SLOAD PUSH2 0x1F54 SWAP1 SWAP3 SWAP2 SWAP1 PUSH4 0xFFFFFFFF AND JUMP JUMPDEST PUSH2 0x1819 JUMP JUMPDEST PUSH1 0x1 SWAP1 POP SWAP4 SWAP3 POP POP POP JUMP JUMPDEST PUSH1 0x0 PUSH1 0x9 SWAP1 POP SWAP1 JUMP JUMPDEST PUSH1 0x12 PUSH1 0x0 SWAP1 SLOAD SWAP1 PUSH2 0x100 EXP SWAP1 DIV PUSH20 0xFFFFFFFFFFFFFFFFFFFFFFFFFFFFFFFFFFFFFFFF AND DUP2 JUMP JUMPDEST PUSH1 0x11 PUSH1 0x0 SWAP1 SLOAD SWAP1 PUSH2 0x100 EXP SWAP1 DIV PUSH20 0xFFFFFFFFFFFFFFFFFFFFFFFFFFFFFFFFFFFFFFFF AND DUP2 JUMP JUMPDEST PUSH2 0x7BD PUSH2 0x1811 JUMP JUMPDEST PUSH20 0xFFFFFFFFFFFFFFFFFFFFFFFFFFFFFFFFFFFFFFFF AND PUSH2 0x7DB PUSH2 0xD7B JUMP JUMPDEST PUSH20 0xFFFFFFFFFFFFFFFFFFFFFFFFFFFFFFFFFFFFFFFF AND EQ DUP1 PUSH2 0x851 JUMPI POP PUSH2 0x800 PUSH2 0x1811 JUMP JUMPDEST PUSH20 0xFFFFFFFFFFFFFFFFFFFFFFFFFFFFFFFFFFFFFFFF AND PUSH1 0xE PUSH1 0x0 SWAP1 SLOAD SWAP1 PUSH2 0x100 EXP SWAP1 DIV PUSH20 0xFFFFFFFFFFFFFFFFFFFFFFFFFFFFFFFFFFFFFFFF AND PUSH20 0xFFFFFFFFFFFFFFFFFFFFFFFFFFFFFFFFFFFFFFFF AND EQ JUMPDEST PUSH2 0x890 JUMPI PUSH1 0x40 MLOAD PUSH32 0x8C379A000000000000000000000000000000000000000000000000000000000 DUP2 MSTORE PUSH1 0x4 ADD PUSH2 0x887 SWAP1 PUSH2 0x30C4 JUMP JUMPDEST PUSH1 0x40 MLOAD DUP1 SWAP2 SUB SWAP1 REVERT JUMPDEST DUP1 PUSH1 0x12 PUSH1 0x15 PUSH2 0x100 EXP DUP2 SLOAD DUP2 PUSH1 0xFF MUL NOT AND SWAP1 DUP4 ISZERO ISZERO MUL OR SWAP1 SSTORE POP POP JUMP JUMPDEST PUSH1 0xE PUSH1 0x0 SWAP1 SLOAD SWAP1 PUSH2 0x100 EXP SWAP1 DIV PUSH20 0xFFFFFFFFFFFFFFFFFFFFFFFFFFFFFFFFFFFFFFFF AND PUSH20 0xFFFFFFFFFFFFFFFFFFFFFFFFFFFFFFFFFFFFFFFF AND PUSH2 0x8EE PUSH2 0x1811 JUMP JUMPDEST PUSH20 0xFFFFFFFFFFFFFFFFFFFFFFFFFFFFFFFFFFFFFFFF AND EQ DUP1 PUSH2 0x964 JUMPI POP PUSH1 0xF PUSH1 0x0 SWAP1 SLOAD SWAP1 PUSH2 0x100 EXP SWAP1 DIV PUSH20 0xFFFFFFFFFFFFFFFFFFFFFFFFFFFFFFFFFFFFFFFF AND PUSH20 0xFFFFFFFFFFFFFFFFFFFFFFFFFFFFFFFFFFFFFFFF AND PUSH2 0x94C PUSH2 0x1811 JUMP JUMPDEST PUSH20 0xFFFFFFFFFFFFFFFFFFFFFFFFFFFFFFFFFFFFFFFF AND EQ JUMPDEST DUP1 PUSH2 0x9A8 JUMPI POP PUSH2 0x972 PUSH2 0xD7B JUMP JUMPDEST PUSH20 0xFFFFFFFFFFFFFFFFFFFFFFFFFFFFFFFFFFFFFFFF AND PUSH2 0x990 PUSH2 0x1811 JUMP JUMPDEST PUSH20 0xFFFFFFFFFFFFFFFFFFFFFFFFFFFFFFFFFFFFFFFF AND EQ JUMPDEST PUSH2 0x9B1 JUMPI PUSH1 0x0 DUP1 REVERT JUMPDEST PUSH1 0x0 SELFBALANCE SWAP1 POP PUSH2 0x9BF DUP2 PUSH2 0x1FB8 JUMP JUMPDEST POP JUMP JUMPDEST PUSH1 0x0 PUSH2 0xA0C PUSH1 0x2 PUSH1 0x0 DUP5 PUSH20 0xFFFFFFFFFFFFFFFFFFFFFFFFFFFFFFFFFFFFFFFF AND PUSH20 0xFFFFFFFFFFFFFFFFFFFFFFFFFFFFFFFFFFFFFFFF AND DUP2 MSTORE PUSH1 0x20 ADD SWAP1 DUP2 MSTORE PUSH1 0x20 ADD PUSH1 0x0 KECCAK256 SLOAD PUSH2 0x20B3 JUMP JUMPDEST SWAP1 POP SWAP2 SWAP1 POP JUMP JUMPDEST PUSH2 0xA1B PUSH2 0x1811 JUMP JUMPDEST PUSH20 0xFFFFFFFFFFFFFFFFFFFFFFFFFFFFFFFFFFFFFFFF AND PUSH1 0x0 DUP1 SLOAD SWAP1 PUSH2 0x100 EXP SWAP1 DIV PUSH20 0xFFFFFFFFFFFFFFFFFFFFFFFFFFFFFFFFFFFFFFFF AND PUSH20 0xFFFFFFFFFFFFFFFFFFFFFFFFFFFFFFFFFFFFFFFF AND EQ PUSH2 0xAA8 JUMPI PUSH1 0x40 MLOAD PUSH32 0x8C379A000000000000000000000000000000000000000000000000000000000 DUP2 MSTORE PUSH1 0x4 ADD PUSH2 0xA9F SWAP1 PUSH2 0x3058 JUMP JUMPDEST PUSH1 0x40 MLOAD DUP1 SWAP2 SUB SWAP1 REVERT JUMPDEST PUSH1 0x0 PUSH20 0xFFFFFFFFFFFFFFFFFFFFFFFFFFFFFFFFFFFFFFFF AND PUSH1 0x0 DUP1 SLOAD SWAP1 PUSH2 0x100 EXP SWAP1 DIV PUSH20 0xFFFFFFFFFFFFFFFFFFFFFFFFFFFFFFFFFFFFFFFF AND PUSH20 0xFFFFFFFFFFFFFFFFFFFFFFFFFFFFFFFFFFFFFFFF AND PUSH32 0x8BE0079C531659141344CD1FD0A4F28419497F9722A3DAAFE3B4186F6B6457E0 PUSH1 0x40 MLOAD PUSH1 0x40 MLOAD DUP1 SWAP2 SUB SWAP1 LOG3 PUSH1 0x0 DUP1 PUSH1 0x0 PUSH2 0x100 EXP DUP2 SLOAD DUP2 PUSH20 0xFFFFFFFFFFFFFFFFFFFFFFFFFFFFFFFFFFFFFFFF MUL NOT AND SWAP1 DUP4 PUSH20 0xFFFFFFFFFFFFFFFFFFFFFFFFFFFFFFFFFFFFFFFF AND MUL OR SWAP1 SSTORE POP JUMP JUMPDEST PUSH2 0xB6E PUSH2 0x1811 JUMP JUMPDEST PUSH20 0xFFFFFFFFFFFFFFFFFFFFFFFFFFFFFFFFFFFFFFFF AND PUSH2 0xB8C PUSH2 0xD7B JUMP JUMPDEST PUSH20 0xFFFFFFFFFFFFFFFFFFFFFFFFFFFFFFFFFFFFFFFF AND EQ DUP1 PUSH2 0xC02 JUMPI POP PUSH2 0xBB1 PUSH2 0x1811 JUMP JUMPDEST PUSH20 0xFFFFFFFFFFFFFFFFFFFFFFFFFFFFFFFFFFFFFFFF AND PUSH1 0xE PUSH1 0x0 SWAP1 SLOAD SWAP1 PUSH2 0x100 EXP SWAP1 DIV PUSH20 0xFFFFFFFFFFFFFFFFFFFFFFFFFFFFFFFFFFFFFFFF AND PUSH20 0xFFFFFFFFFFFFFFFFFFFFFFFFFFFFFFFFFFFFFFFF AND EQ JUMPDEST PUSH2 0xC41 JUMPI PUSH1 0x40 MLOAD PUSH32 0x8C379A000000000000000000000000000000000000000000000000000000000 DUP2 MSTORE PUSH1 0x4 ADD PUSH2 0xC38 SWAP1 PUSH2 0x30C4 JUMP JUMPDEST PUSH1 0x40 MLOAD DUP1 SWAP2 SUB SWAP1 REVERT JUMPDEST DUP1 PUSH20 0xFFFFFFFFFFFFFFFFFFFFFFFFFFFFFFFFFFFFFFFF AND PUSH1 0xF PUSH1 0x0 SWAP1 SLOAD SWAP1 PUSH2 0x100 EXP SWAP1 DIV PUSH20 0xFFFFFFFFFFFFFFFFFFFFFFFFFFFFFFFFFFFFFFFF AND PUSH20 0xFFFFFFFFFFFFFFFFFFFFFFFFFFFFFFFFFFFFFFFF AND PUSH32 0xA64373A629BC0C09EACF8A9CC2C7B070FA0A8B7E2E9B8AAEE408A3C02EB1676B PUSH1 0x40 MLOAD PUSH1 0x40 MLOAD DUP1 SWAP2 SUB SWAP1 LOG3 DUP1 PUSH1 0xF PUSH1 0x0 PUSH2 0x100 EXP DUP2 SLOAD DUP2 PUSH20 0xFFFFFFFFFFFFFFFFFFFFFFFFFFFFFFFFFFFFFFFF MUL NOT AND SWAP1 DUP4 PUSH20 0xFFFFFFFFFFFFFFFFFFFFFFFFFFFFFFFFFFFFFFFF AND MUL OR SWAP1 SSTORE POP PUSH1 0x1 PUSH1 0x5 PUSH1 0x0 PUSH1 0xF PUSH1 0x0 SWAP1 SLOAD SWAP1 PUSH2 0x100 EXP SWAP1 DIV PUSH20 0xFFFFFFFFFFFFFFFFFFFFFFFFFFFFFFFFFFFFFFFF AND PUSH20 0xFFFFFFFFFFFFFFFFFFFFFFFFFFFFFFFFFFFFFFFF AND PUSH20 0xFFFFFFFFFFFFFFFFFFFFFFFFFFFFFFFFFFFFFFFF AND DUP2 MSTORE PUSH1 0x20 ADD SWAP1 DUP2 MSTORE PUSH1 0x20 ADD PUSH1 0x0 KECCAK256 PUSH1 0x0 PUSH2 0x100 EXP DUP2 SLOAD DUP2 PUSH1 0xFF MUL NOT AND SWAP1 DUP4 ISZERO ISZERO MUL OR SWAP1 SSTORE POP POP JUMP JUMPDEST PUSH1 0x0 DUP1 PUSH1 0x0 SWAP1 SLOAD SWAP1 PUSH2 0x100 EXP SWAP1 DIV PUSH20 0xFFFFFFFFFFFFFFFFFFFFFFFFFFFFFFFFFFFFFFFF AND SWAP1 POP SWAP1 JUMP JUMPDEST PUSH1 0x60 PUSH1 0x40 MLOAD DUP1 PUSH1 0x40 ADD PUSH1 0x40 MSTORE DUP1 PUSH1 0x3 DUP2 MSTORE PUSH1 0x20 ADD PUSH32 0x5753500000000000000000000000000000000000000000000000000000000000 DUP2 MSTORE POP SWAP1 POP SWAP1 JUMP JUMPDEST PUSH2 0xDE9 PUSH2 0x1811 JUMP JUMPDEST PUSH20 0xFFFFFFFFFFFFFFFFFFFFFFFFFFFFFFFFFFFFFFFF AND PUSH2 0xE07 PUSH2 0xD7B JUMP JUMPDEST PUSH20 0xFFFFFFFFFFFFFFFFFFFFFFFFFFFFFFFFFFFFFFFF AND EQ DUP1 PUSH2 0xE7D JUMPI POP PUSH2 0xE2C PUSH2 0x1811 JUMP JUMPDEST PUSH20 0xFFFFFFFFFFFFFFFFFFFFFFFFFFFFFFFFFFFFFFFF AND PUSH1 0xE PUSH1 0x0 SWAP1 SLOAD SWAP1 PUSH2 0x100 EXP SWAP1 DIV PUSH20 0xFFFFFFFFFFFFFFFFFFFFFFFFFFFFFFFFFFFFFFFF AND PUSH20 0xFFFFFFFFFFFFFFFFFFFFFFFFFFFFFFFFFFFFFFFF AND EQ JUMPDEST PUSH2 0xEBC JUMPI PUSH1 0x40 MLOAD PUSH32 0x8C379A000000000000000000000000000000000000000000000000000000000 DUP2 MSTORE PUSH1 0x4 ADD PUSH2 0xEB3 SWAP1 PUSH2 0x30C4 JUMP JUMPDEST PUSH1 0x40 MLOAD DUP1 SWAP2 SUB SWAP1 REVERT JUMPDEST PUSH1 0xB DUP5 LT PUSH2 0xEFF JUMPI PUSH1 0x40 MLOAD PUSH32 0x8C379A000000000000000000000000000000000000000000000000000000000 DUP2 MSTORE PUSH1 0x4 ADD PUSH2 0xEF6 SWAP1 PUSH2 0x3130 JUMP JUMPDEST PUSH1 0x40 MLOAD DUP1 SWAP2 SUB SWAP1 REVERT JUMPDEST PUSH1 0xB DUP4 LT PUSH2 0xF42 JUMPI PUSH1 0x40 MLOAD PUSH32 0x8C379A000000000000000000000000000000000000000000000000000000000 DUP2 MSTORE PUSH1 0x4 ADD PUSH2 0xF39 SWAP1 PUSH2 0x3130 JUMP JUMPDEST PUSH1 0x40 MLOAD DUP1 SWAP2 SUB SWAP1 REVERT JUMPDEST PUSH1 0x7 DUP3 LT PUSH2 0xF85 JUMPI PUSH1 0x40 MLOAD PUSH32 0x8C379A000000000000000000000000000000000000000000000000000000000 DUP2 MSTORE PUSH1 0x4 ADD PUSH2 0xF7C SWAP1 PUSH2 0x319C JUMP JUMPDEST PUSH1 0x40 MLOAD DUP1 SWAP2 SUB SWAP1 REVERT JUMPDEST PUSH1 0x7 DUP2 LT PUSH2 0xFC8 JUMPI PUSH1 0x40 MLOAD PUSH32 0x8C379A000000000000000000000000000000000000000000000000000000000 DUP2 MSTORE PUSH1 0x4 ADD PUSH2 0xFBF SWAP1 PUSH2 0x319C JUMP JUMPDEST PUSH1 0x40 MLOAD DUP1 SWAP2 SUB SWAP1 REVERT JUMPDEST DUP4 PUSH1 0x8 DUP2 SWAP1 SSTORE POP DUP3 PUSH1 0xA DUP2 SWAP1 SSTORE POP DUP2 PUSH1 0x9 DUP2 SWAP1 SSTORE POP DUP1 PUSH1 0xB DUP2 SWAP1 SSTORE POP POP POP POP POP JUMP JUMPDEST PUSH1 0x0 PUSH2 0xFFE PUSH2 0xFF7 PUSH2 0x1811 JUMP JUMPDEST DUP5 DUP5 PUSH2 0x19E2 JUMP JUMPDEST PUSH1 0x1 SWAP1 POP SWAP3 SWAP2 POP POP JUMP JUMPDEST PUSH2 0x1010 PUSH2 0x1811 JUMP JUMPDEST PUSH20 0xFFFFFFFFFFFFFFFFFFFFFFFFFFFFFFFFFFFFFFFF AND PUSH2 0x102E PUSH2 0xD7B JUMP JUMPDEST PUSH20 0xFFFFFFFFFFFFFFFFFFFFFFFFFFFFFFFFFFFFFFFF AND EQ DUP1 PUSH2 0x10A4 JUMPI POP PUSH2 0x1053 PUSH2 0x1811 JUMP JUMPDEST PUSH20 0xFFFFFFFFFFFFFFFFFFFFFFFFFFFFFFFFFFFFFFFF AND PUSH1 0xE PUSH1 0x0 SWAP1 SLOAD SWAP1 PUSH2 0x100 EXP SWAP1 DIV PUSH20 0xFFFFFFFFFFFFFFFFFFFFFFFFFFFFFFFFFFFFFFFF AND PUSH20 0xFFFFFFFFFFFFFFFFFFFFFFFFFFFFFFFFFFFFFFFF AND EQ JUMPDEST PUSH2 0x10E3 JUMPI PUSH1 0x40 MLOAD PUSH32 0x8C379A000000000000000000000000000000000000000000000000000000000 DUP2 MSTORE PUSH1 0x4 ADD PUSH2 0x10DA SWAP1 PUSH2 0x30C4 JUMP JUMPDEST PUSH1 0x40 MLOAD DUP1 SWAP2 SUB SWAP1 REVERT JUMPDEST DUP1 PUSH20 0xFFFFFFFFFFFFFFFFFFFFFFFFFFFFFFFFFFFFFFFF AND PUSH1 0xE PUSH1 0x0 SWAP1 SLOAD SWAP1 PUSH2 0x100 EXP SWAP1 DIV PUSH20 0xFFFFFFFFFFFFFFFFFFFFFFFFFFFFFFFFFFFFFFFF AND PUSH20 0xFFFFFFFFFFFFFFFFFFFFFFFFFFFFFFFFFFFFFFFF AND PUSH32 0xFBBC329437E8C79F847E170730AD6DD04106B7511CAD70D06D635886D92DE83C PUSH1 0x40 MLOAD PUSH1 0x40 MLOAD DUP1 SWAP2 SUB SWAP1 LOG3 DUP1 PUSH1 0xE PUSH1 0x0 PUSH2 0x100 EXP DUP2 SLOAD DUP2 PUSH20 0xFFFFFFFFFFFFFFFFFFFFFFFFFFFFFFFFFFFFFFFF MUL NOT AND SWAP1 DUP4 PUSH20 0xFFFFFFFFFFFFFFFFFFFFFFFFFFFFFFFFFFFFFFFF AND MUL OR SWAP1 SSTORE POP PUSH1 0x1 PUSH1 0x5 PUSH1 0x0 PUSH1 0xE PUSH1 0x0 SWAP1 SLOAD SWAP1 PUSH2 0x100 EXP SWAP1 DIV PUSH20 0xFFFFFFFFFFFFFFFFFFFFFFFFFFFFFFFFFFFFFFFF AND PUSH20 0xFFFFFFFFFFFFFFFFFFFFFFFFFFFFFFFFFFFFFFFF AND PUSH20 0xFFFFFFFFFFFFFFFFFFFFFFFFFFFFFFFFFFFFFFFF AND DUP2 MSTORE PUSH1 0x20 ADD SWAP1 DUP2 MSTORE PUSH1 0x20 ADD PUSH1 0x0 KECCAK256 PUSH1 0x0 PUSH2 0x100 EXP DUP2 SLOAD DUP2 PUSH1 0xFF MUL NOT AND SWAP1 DUP4 ISZERO ISZERO MUL OR SWAP1 SSTORE POP POP JUMP JUMPDEST PUSH1 0xE PUSH1 0x0 SWAP1 SLOAD SWAP1 PUSH2 0x100 EXP SWAP1 DIV PUSH20 0xFFFFFFFFFFFFFFFFFFFFFFFFFFFFFFFFFFFFFFFF AND PUSH20 0xFFFFFFFFFFFFFFFFFFFFFFFFFFFFFFFFFFFFFFFF AND PUSH2 0x125E PUSH2 0x1811 JUMP JUMPDEST PUSH20 0xFFFFFFFFFFFFFFFFFFFFFFFFFFFFFFFFFFFFFFFF AND EQ DUP1 PUSH2 0x12D4 JUMPI POP PUSH1 0xF PUSH1 0x0 SWAP1 SLOAD SWAP1 PUSH2 0x100 EXP SWAP1 DIV PUSH20 0xFFFFFFFFFFFFFFFFFFFFFFFFFFFFFFFFFFFFFFFF AND PUSH20 0xFFFFFFFFFFFFFFFFFFFFFFFFFFFFFFFFFFFFFFFF AND PUSH2 0x12BC PUSH2 0x1811 JUMP JUMPDEST PUSH20 0xFFFFFFFFFFFFFFFFFFFFFFFFFFFFFFFFFFFFFFFF AND EQ JUMPDEST DUP1 PUSH2 0x1318 JUMPI POP PUSH2 0x12E2 PUSH2 0xD7B JUMP JUMPDEST PUSH20 0xFFFFFFFFFFFFFFFFFFFFFFFFFFFFFFFFFFFFFFFF AND PUSH2 0x1300 PUSH2 0x1811 JUMP JUMPDEST PUSH20 0xFFFFFFFFFFFFFFFFFFFFFFFFFFFFFFFFFFFFFFFF AND EQ JUMPDEST PUSH2 0x1321 JUMPI PUSH1 0x0 DUP1 REVERT JUMPDEST PUSH1 0x0 PUSH2 0x132C ADDRESS PUSH2 0x9C2 JUMP JUMPDEST SWAP1 POP PUSH2 0x1337 DUP2 PUSH2 0x2121 JUMP JUMPDEST POP JUMP JUMPDEST PUSH2 0x1342 PUSH2 0x1811 JUMP JUMPDEST PUSH20 0xFFFFFFFFFFFFFFFFFFFFFFFFFFFFFFFFFFFFFFFF AND PUSH1 0x0 DUP1 SLOAD SWAP1 PUSH2 0x100 EXP SWAP1 DIV PUSH20 0xFFFFFFFFFFFFFFFFFFFFFFFFFFFFFFFFFFFFFFFF AND PUSH20 0xFFFFFFFFFFFFFFFFFFFFFFFFFFFFFFFFFFFFFFFF AND EQ PUSH2 0x13CF JUMPI PUSH1 0x40 MLOAD PUSH32 0x8C379A000000000000000000000000000000000000000000000000000000000 DUP2 MSTORE PUSH1 0x4 ADD PUSH2 0x13C6 SWAP1 PUSH2 0x3058 JUMP JUMPDEST PUSH1 0x40 MLOAD DUP1 SWAP2 SUB SWAP1 REVERT JUMPDEST PUSH1 0x0 JUMPDEST DUP4 DUP4 SWAP1 POP DUP2 LT ISZERO PUSH2 0x146E JUMPI DUP2 PUSH1 0x5 PUSH1 0x0 DUP7 DUP7 DUP6 DUP2 DUP2 LT PUSH2 0x13F5 JUMPI PUSH2 0x13F4 PUSH2 0x31BC JUMP JUMPDEST JUMPDEST SWAP1 POP PUSH1 0x20 MUL ADD PUSH1 0x20 DUP2 ADD SWAP1 PUSH2 0x140A SWAP2 SWAP1 PUSH2 0x2E08 JUMP JUMPDEST PUSH20 0xFFFFFFFFFFFFFFFFFFFFFFFFFFFFFFFFFFFFFFFF AND PUSH20 0xFFFFFFFFFFFFFFFFFFFFFFFFFFFFFFFFFFFFFFFF AND DUP2 MSTORE PUSH1 0x20 ADD SWAP1 DUP2 MSTORE PUSH1 0x20 ADD PUSH1 0x0 KECCAK256 PUSH1 0x0 PUSH2 0x100 EXP DUP2 SLOAD DUP2 PUSH1 0xFF MUL NOT AND SWAP1 DUP4 ISZERO ISZERO MUL OR SWAP1 SSTORE POP DUP1 DUP1 PUSH2 0x1466 SWAP1 PUSH2 0x321A JUMP JUMPDEST SWAP2 POP POP PUSH2 0x13D2 JUMP JUMPDEST POP POP POP POP JUMP JUMPDEST PUSH1 0x0 PUSH1 0x4 PUSH1 0x0 DUP5 PUSH20 0xFFFFFFFFFFFFFFFFFFFFFFFFFFFFFFFFFFFFFFFF AND PUSH20 0xFFFFFFFFFFFFFFFFFFFFFFFFFFFFFFFFFFFFFFFF AND DUP2 MSTORE PUSH1 0x20 ADD SWAP1 DUP2 MSTORE PUSH1 0x20 ADD PUSH1 0x0 KECCAK256 PUSH1 0x0 DUP4 PUSH20 0xFFFFFFFFFFFFFFFFFFFFFFFFFFFFFFFFFFFFFFFF AND PUSH20 0xFFFFFFFFFFFFFFFFFFFFFFFFFFFFFFFFFFFFFFFF AND DUP2 MSTORE PUSH1 0x20 ADD SWAP1 DUP2 MSTORE PUSH1 0x20 ADD PUSH1 0x0 KECCAK256 SLOAD SWAP1 POP SWAP3 SWAP2 POP POP JUMP JUMPDEST PUSH2 0x1503 PUSH2 0x1811 JUMP JUMPDEST PUSH20 0xFFFFFFFFFFFFFFFFFFFFFFFFFFFFFFFFFFFFFFFF AND PUSH2 0x1521 PUSH2 0xD7B JUMP JUMPDEST PUSH20 0xFFFFFFFFFFFFFFFFFFFFFFFFFFFFFFFFFFFFFFFF AND EQ DUP1 PUSH2 0x1597 JUMPI POP PUSH2 0x1546 PUSH2 0x1811 JUMP JUMPDEST PUSH20 0xFFFFFFFFFFFFFFFFFFFFFFFFFFFFFFFFFFFFFFFF AND PUSH1 0xE PUSH1 0x0 SWAP1 SLOAD SWAP1 PUSH2 0x100 EXP SWAP1 DIV PUSH20 0xFFFFFFFFFFFFFFFFFFFFFFFFFFFFFFFFFFFFFFFF AND PUSH20 0xFFFFFFFFFFFFFFFFFFFFFFFFFFFFFFFFFFFFFFFF AND EQ JUMPDEST PUSH2 0x15D6 JUMPI PUSH1 0x40 MLOAD PUSH32 0x8C379A000000000000000000000000000000000000000000000000000000000 DUP2 MSTORE PUSH1 0x4 ADD PUSH2 0x15CD SWAP1 PUSH2 0x30C4 JUMP JUMPDEST PUSH1 0x40 MLOAD DUP1 SWAP2 SUB SWAP1 REVERT JUMPDEST DUP2 PUSH20 0xFFFFFFFFFFFFFFFFFFFFFFFFFFFFFFFFFFFFFFFF AND DUP4 PUSH20 0xFFFFFFFFFFFFFFFFFFFFFFFFFFFFFFFFFFFFFFFF AND PUSH32 0x47C33AA230EB5FD181505AA7BEFEADDD9B8A6F983989CEA73A7868448C3A9ED9 DUP4 PUSH1 0x40 MLOAD PUSH2 0x1633 SWAP2 SWAP1 PUSH2 0x2CA4 JUMP JUMPDEST PUSH1 0x40 MLOAD DUP1 SWAP2 SUB SWAP1 LOG3 DUP3 PUSH20 0xFFFFFFFFFFFFFFFFFFFFFFFFFFFFFFFFFFFFFFFF AND PUSH4 0xA9059CBB DUP4 DUP4 PUSH1 0x40 MLOAD DUP4 PUSH4 0xFFFFFFFF AND PUSH1 0xE0 SHL DUP2 MSTORE PUSH1 0x4 ADD PUSH2 0x1676 SWAP3 SWAP2 SWAP1 PUSH2 0x3262 JUMP JUMPDEST PUSH1 0x20 PUSH1 0x40 MLOAD DUP1 DUP4 SUB DUP2 PUSH1 0x0 DUP8 GAS CALL ISZERO DUP1 ISZERO PUSH2 0x1695 JUMPI RETURNDATASIZE PUSH1 0x0 DUP1 RETURNDATACOPY RETURNDATASIZE PUSH1 0x0 REVERT JUMPDEST POP POP POP POP PUSH1 0x40 MLOAD RETURNDATASIZE PUSH1 0x1F NOT PUSH1 0x1F DUP3 ADD AND DUP3 ADD DUP1 PUSH1 0x40 MSTORE POP DUP2 ADD SWAP1 PUSH2 0x16B9 SWAP2 SWAP1 PUSH2 0x32A0 JUMP JUMPDEST POP POP POP POP JUMP JUMPDEST PUSH2 0x16C7 PUSH2 0x1811 JUMP JUMPDEST PUSH20 0xFFFFFFFFFFFFFFFFFFFFFFFFFFFFFFFFFFFFFFFF AND PUSH1 0x0 DUP1 SLOAD SWAP1 PUSH2 0x100 EXP SWAP1 DIV PUSH20 0xFFFFFFFFFFFFFFFFFFFFFFFFFFFFFFFFFFFFFFFF AND PUSH20 0xFFFFFFFFFFFFFFFFFFFFFFFFFFFFFFFFFFFFFFFF AND EQ PUSH2 0x1754 JUMPI PUSH1 0x40 MLOAD PUSH32 0x8C379A000000000000000000000000000000000000000000000000000000000 DUP2 MSTORE PUSH1 0x4 ADD PUSH2 0x174B SWAP1 PUSH2 0x3058 JUMP JUMPDEST PUSH1 0x40 MLOAD DUP1 SWAP2 SUB SWAP1 REVERT JUMPDEST DUP1 PUSH20 0xFFFFFFFFFFFFFFFFFFFFFFFFFFFFFFFFFFFFFFFF AND PUSH1 0x0 DUP1 SLOAD SWAP1 PUSH2 0x100 EXP SWAP1 DIV PUSH20 0xFFFFFFFFFFFFFFFFFFFFFFFFFFFFFFFFFFFFFFFF AND PUSH20 0xFFFFFFFFFFFFFFFFFFFFFFFFFFFFFFFFFFFFFFFF AND PUSH32 0x8BE0079C531659141344CD1FD0A4F28419497F9722A3DAAFE3B4186F6B6457E0 PUSH1 0x40 MLOAD PUSH1 0x40 MLOAD DUP1 SWAP2 SUB SWAP1 LOG3 DUP1 PUSH1 0x0 DUP1 PUSH2 0x100 EXP DUP2 SLOAD DUP2 PUSH20 0xFFFFFFFFFFFFFFFFFFFFFFFFFFFFFFFFFFFFFFFF MUL NOT AND SWAP1 DUP4 PUSH20 0xFFFFFFFFFFFFFFFFFFFFFFFFFFFFFFFFFFFFFFFF AND MUL OR SWAP1 SSTORE POP POP JUMP JUMPDEST PUSH1 0x0 CALLER SWAP1 POP SWAP1 JUMP JUMPDEST PUSH1 0x0 PUSH20 0xFFFFFFFFFFFFFFFFFFFFFFFFFFFFFFFFFFFFFFFF AND DUP4 PUSH20 0xFFFFFFFFFFFFFFFFFFFFFFFFFFFFFFFFFFFFFFFF AND SUB PUSH2 0x1888 JUMPI PUSH1 0x40 MLOAD PUSH32 0x8C379A000000000000000000000000000000000000000000000000000000000 DUP2 MSTORE PUSH1 0x4 ADD PUSH2 0x187F SWAP1 PUSH2 0x333F JUMP JUMPDEST PUSH1 0x40 MLOAD DUP1 SWAP2 SUB SWAP1 REVERT JUMPDEST PUSH1 0x0 PUSH20 0xFFFFFFFFFFFFFFFFFFFFFFFFFFFFFFFFFFFFFFFF AND DUP3 PUSH20 0xFFFFFFFFFFFFFFFFFFFFFFFFFFFFFFFFFFFFFFFF AND SUB PUSH2 0x18F7 JUMPI PUSH1 0x40 MLOAD PUSH32 0x8C379A000000000000000000000000000000000000000000000000000000000 DUP2 MSTORE PUSH1 0x4 ADD PUSH2 0x18EE SWAP1 PUSH2 0x33D1 JUMP JUMPDEST PUSH1 0x40 MLOAD DUP1 SWAP2 SUB SWAP1 REVERT JUMPDEST DUP1 PUSH1 0x4 PUSH1 0x0 DUP6 PUSH20 0xFFFFFFFFFFFFFFFFFFFFFFFFFFFFFFFFFFFFFFFF AND PUSH20 0xFFFFFFFFFFFFFFFFFFFFFFFFFFFFFFFFFFFFFFFF AND DUP2 MSTORE PUSH1 0x20 ADD SWAP1 DUP2 MSTORE PUSH1 0x20 ADD PUSH1 0x0 KECCAK256 PUSH1 0x0 DUP5 PUSH20 0xFFFFFFFFFFFFFFFFFFFFFFFFFFFFFFFFFFFFFFFF AND PUSH20 0xFFFFFFFFFFFFFFFFFFFFFFFFFFFFFFFFFFFFFFFF AND DUP2 MSTORE PUSH1 0x20 ADD SWAP1 DUP2 MSTORE PUSH1 0x20 ADD PUSH1 0x0 KECCAK256 DUP2 SWAP1 SSTORE POP DUP2 PUSH20 0xFFFFFFFFFFFFFFFFFFFFFFFFFFFFFFFFFFFFFFFF AND DUP4 PUSH20 0xFFFFFFFFFFFFFFFFFFFFFFFFFFFFFFFFFFFFFFFF AND PUSH32 0x8C5BE1E5EBEC7D5BD14F71427D1E84F3DD0314C0F7B2291E5B200AC8C7C3B925 DUP4 PUSH1 0x40 MLOAD PUSH2 0x19D5 SWAP2 SWAP1 PUSH2 0x2CA4 JUMP JUMPDEST PUSH1 0x40 MLOAD DUP1 SWAP2 SUB SWAP1 LOG3 POP POP POP JUMP JUMPDEST PUSH1 0x0 PUSH20 0xFFFFFFFFFFFFFFFFFFFFFFFFFFFFFFFFFFFFFFFF AND DUP4 PUSH20 0xFFFFFFFFFFFFFFFFFFFFFFFFFFFFFFFFFFFFFFFF AND SUB PUSH2 0x1A51 JUMPI PUSH1 0x40 MLOAD PUSH32 0x8C379A000000000000000000000000000000000000000000000000000000000 DUP2 MSTORE PUSH1 0x4 ADD PUSH2 0x1A48 SWAP1 PUSH2 0x3463 JUMP JUMPDEST PUSH1 0x40 MLOAD DUP1 SWAP2 SUB SWAP1 REVERT JUMPDEST PUSH1 0x0 PUSH20 0xFFFFFFFFFFFFFFFFFFFFFFFFFFFFFFFFFFFFFFFF AND DUP3 PUSH20 0xFFFFFFFFFFFFFFFFFFFFFFFFFFFFFFFFFFFFFFFF AND SUB PUSH2 0x1AC0 JUMPI PUSH1 0x40 MLOAD PUSH32 0x8C379A000000000000000000000000000000000000000000000000000000000 DUP2 MSTORE PUSH1 0x4 ADD PUSH2 0x1AB7 SWAP1 PUSH2 0x34F5 JUMP JUMPDEST PUSH1 0x40 MLOAD DUP1 SWAP2 SUB SWAP1 REVERT JUMPDEST PUSH1 0x0 DUP2 GT PUSH2 0x1B03 JUMPI PUSH1 0x40 MLOAD PUSH32 0x8C379A000000000000000000000000000000000000000000000000000000000 DUP2 MSTORE PUSH1 0x4 ADD PUSH2 0x1AFA SWAP1 PUSH2 0x3587 JUMP JUMPDEST PUSH1 0x40 MLOAD DUP1 SWAP2 SUB SWAP1 REVERT JUMPDEST PUSH1 0x0 PUSH1 0xC DUP2 SWAP1 SSTORE POP PUSH1 0x0 PUSH1 0xD DUP2 SWAP1 SSTORE POP PUSH2 0x1B1B PUSH2 0xD7B JUMP JUMPDEST PUSH20 0xFFFFFFFFFFFFFFFFFFFFFFFFFFFFFFFFFFFFFFFF AND DUP4 PUSH20 0xFFFFFFFFFFFFFFFFFFFFFFFFFFFFFFFFFFFFFFFF AND EQ ISZERO DUP1 ISZERO PUSH2 0x1B89 JUMPI POP PUSH2 0x1B59 PUSH2 0xD7B JUMP JUMPDEST PUSH20 0xFFFFFFFFFFFFFFFFFFFFFFFFFFFFFFFFFFFFFFFF AND DUP3 PUSH20 0xFFFFFFFFFFFFFFFFFFFFFFFFFFFFFFFFFFFFFFFF AND EQ ISZERO JUMPDEST ISZERO PUSH2 0x1F44 JUMPI PUSH1 0x0 PUSH2 0x1B99 ADDRESS PUSH2 0x9C2 JUMP JUMPDEST SWAP1 POP PUSH1 0x12 PUSH1 0x14 SWAP1 SLOAD SWAP1 PUSH2 0x100 EXP SWAP1 DIV PUSH1 0xFF AND ISZERO DUP1 ISZERO PUSH2 0x1C06 JUMPI POP PUSH1 0x12 PUSH1 0x0 SWAP1 SLOAD SWAP1 PUSH2 0x100 EXP SWAP1 DIV PUSH20 0xFFFFFFFFFFFFFFFFFFFFFFFFFFFFFFFFFFFFFFFF AND PUSH20 0xFFFFFFFFFFFFFFFFFFFFFFFFFFFFFFFFFFFFFFFF AND DUP5 PUSH20 0xFFFFFFFFFFFFFFFFFFFFFFFFFFFFFFFFFFFFFFFF AND EQ ISZERO JUMPDEST DUP1 ISZERO PUSH2 0x1C1E JUMPI POP PUSH1 0x12 PUSH1 0x15 SWAP1 SLOAD SWAP1 PUSH2 0x100 EXP SWAP1 DIV PUSH1 0xFF AND JUMPDEST DUP1 ISZERO PUSH2 0x1C2A JUMPI POP PUSH1 0x0 DUP2 GT JUMPDEST ISZERO PUSH2 0x1C52 JUMPI PUSH2 0x1C38 DUP2 PUSH2 0x2121 JUMP JUMPDEST PUSH1 0x0 SELFBALANCE SWAP1 POP PUSH1 0x0 DUP2 GT ISZERO PUSH2 0x1C50 JUMPI PUSH2 0x1C4F SELFBALANCE PUSH2 0x1FB8 JUMP JUMPDEST JUMPDEST POP JUMPDEST PUSH1 0x12 PUSH1 0x0 SWAP1 SLOAD SWAP1 PUSH2 0x100 EXP SWAP1 DIV PUSH20 0xFFFFFFFFFFFFFFFFFFFFFFFFFFFFFFFFFFFFFFFF AND PUSH20 0xFFFFFFFFFFFFFFFFFFFFFFFFFFFFFFFFFFFFFFFF AND DUP5 PUSH20 0xFFFFFFFFFFFFFFFFFFFFFFFFFFFFFFFFFFFFFFFF AND EQ DUP1 ISZERO PUSH2 0x1CFD JUMPI POP PUSH1 0x10 PUSH1 0x0 SWAP1 SLOAD SWAP1 PUSH2 0x100 EXP SWAP1 DIV PUSH20 0xFFFFFFFFFFFFFFFFFFFFFFFFFFFFFFFFFFFFFFFF AND PUSH20 0xFFFFFFFFFFFFFFFFFFFFFFFFFFFFFFFFFFFFFFFF AND DUP4 PUSH20 0xFFFFFFFFFFFFFFFFFFFFFFFFFFFFFFFFFFFFFFFF AND EQ ISZERO JUMPDEST ISZERO PUSH2 0x1D15 JUMPI PUSH1 0x8 SLOAD PUSH1 0xC DUP2 SWAP1 SSTORE POP PUSH1 0x9 SLOAD PUSH1 0xD DUP2 SWAP1 SSTORE POP JUMPDEST PUSH1 0x12 PUSH1 0x0 SWAP1 SLOAD SWAP1 PUSH2 0x100 EXP SWAP1 DIV PUSH20 0xFFFFFFFFFFFFFFFFFFFFFFFFFFFFFFFFFFFFFFFF AND PUSH20 0xFFFFFFFFFFFFFFFFFFFFFFFFFFFFFFFFFFFFFFFF AND DUP4 PUSH20 0xFFFFFFFFFFFFFFFFFFFFFFFFFFFFFFFFFFFFFFFF AND EQ DUP1 ISZERO PUSH2 0x1DC0 JUMPI POP PUSH1 0x10 PUSH1 0x0 SWAP1 SLOAD SWAP1 PUSH2 0x100 EXP SWAP1 DIV PUSH20 0xFFFFFFFFFFFFFFFFFFFFFFFFFFFFFFFFFFFFFFFF AND PUSH20 0xFFFFFFFFFFFFFFFFFFFFFFFFFFFFFFFFFFFFFFFF AND DUP5 PUSH20 0xFFFFFFFFFFFFFFFFFFFFFFFFFFFFFFFFFFFFFFFF AND EQ ISZERO JUMPDEST ISZERO PUSH2 0x1DD8 JUMPI PUSH1 0xA SLOAD PUSH1 0xC DUP2 SWAP1 SSTORE POP PUSH1 0xB SLOAD PUSH1 0xD DUP2 SWAP1 SSTORE POP JUMPDEST PUSH1 0x5 PUSH1 0x0 DUP6 PUSH20 0xFFFFFFFFFFFFFFFFFFFFFFFFFFFFFFFFFFFFFFFF AND PUSH20 0xFFFFFFFFFFFFFFFFFFFFFFFFFFFFFFFFFFFFFFFF AND DUP2 MSTORE PUSH1 0x20 ADD SWAP1 DUP2 MSTORE PUSH1 0x20 ADD PUSH1 0x0 KECCAK256 PUSH1 0x0 SWAP1 SLOAD SWAP1 PUSH2 0x100 EXP SWAP1 DIV PUSH1 0xFF AND DUP1 PUSH2 0x1E79 JUMPI POP PUSH1 0x5 PUSH1 0x0 DUP5 PUSH20 0xFFFFFFFFFFFFFFFFFFFFFFFFFFFFFFFFFFFFFFFF AND PUSH20 0xFFFFFFFFFFFFFFFFFFFFFFFFFFFFFFFFFFFFFFFF AND DUP2 MSTORE PUSH1 0x20 ADD SWAP1 DUP2 MSTORE PUSH1 0x20 ADD PUSH1 0x0 KECCAK256 PUSH1 0x0 SWAP1 SLOAD SWAP1 PUSH2 0x100 EXP SWAP1 DIV PUSH1 0xFF AND JUMPDEST DUP1 PUSH2 0x1F2C JUMPI POP PUSH1 0x12 PUSH1 0x0 SWAP1 SLOAD SWAP1 PUSH2 0x100 EXP SWAP1 DIV PUSH20 0xFFFFFFFFFFFFFFFFFFFFFFFFFFFFFFFFFFFFFFFF AND PUSH20 0xFFFFFFFFFFFFFFFFFFFFFFFFFFFFFFFFFFFFFFFF AND DUP5 PUSH20 0xFFFFFFFFFFFFFFFFFFFFFFFFFFFFFFFFFFFFFFFF AND EQ ISZERO DUP1 ISZERO PUSH2 0x1F2B JUMPI POP PUSH1 0x12 PUSH1 0x0 SWAP1 SLOAD SWAP1 PUSH2 0x100 EXP SWAP1 DIV PUSH20 0xFFFFFFFFFFFFFFFFFFFFFFFFFFFFFFFFFFFFFFFF AND PUSH20 0xFFFFFFFFFFFFFFFFFFFFFFFFFFFFFFFFFFFFFFFF AND DUP4 PUSH20 0xFFFFFFFFFFFFFFFFFFFFFFFFFFFFFFFFFFFFFFFF AND EQ ISZERO JUMPDEST JUMPDEST ISZERO PUSH2 0x1F42 JUMPI PUSH1 0x0 PUSH1 0xC DUP2 SWAP1 SSTORE POP PUSH1 0x0 PUSH1 0xD DUP2 SWAP1 SSTORE POP JUMPDEST POP JUMPDEST PUSH2 0x1F4F DUP4 DUP4 DUP4 PUSH2 0x239A JUMP JUMPDEST POP POP POP JUMP JUMPDEST PUSH1 0x0 DUP4 DUP4 GT ISZERO DUP3 SWAP1 PUSH2 0x1F9C JUMPI PUSH1 0x40 MLOAD PUSH32 0x8C379A000000000000000000000000000000000000000000000000000000000 DUP2 MSTORE PUSH1 0x4 ADD PUSH2 0x1F93 SWAP2 SWAP1 PUSH2 0x2AE5 JUMP JUMPDEST PUSH1 0x40 MLOAD DUP1 SWAP2 SUB SWAP1 REVERT JUMPDEST POP PUSH1 0x0 DUP4 DUP6 PUSH2 0x1FAB SWAP2 SWAP1 PUSH2 0x35A7 JUMP JUMPDEST SWAP1 POP DUP1 SWAP2 POP POP SWAP4 SWAP3 POP POP POP JUMP JUMPDEST PUSH1 0xE PUSH1 0x0 SWAP1 SLOAD SWAP1 PUSH2 0x100 EXP SWAP1 DIV PUSH20 0xFFFFFFFFFFFFFFFFFFFFFFFFFFFFFFFFFFFFFFFF AND PUSH20 0xFFFFFFFFFFFFFFFFFFFFFFFFFFFFFFFFFFFFFFFF AND PUSH2 0x8FC PUSH2 0x2008 PUSH1 0x2 DUP5 PUSH2 0x23AA SWAP1 SWAP2 SWAP1 PUSH4 0xFFFFFFFF AND JUMP JUMPDEST SWAP1 DUP2 ISZERO MUL SWAP1 PUSH1 0x40 MLOAD PUSH1 0x0 PUSH1 0x40 MLOAD DUP1 DUP4 SUB DUP2 DUP6 DUP9 DUP9 CALL SWAP4 POP POP POP POP ISZERO DUP1 ISZERO PUSH2 0x2033 JUMPI RETURNDATASIZE PUSH1 0x0 DUP1 RETURNDATACOPY RETURNDATASIZE PUSH1 0x0 REVERT JUMPDEST POP PUSH1 0xF PUSH1 0x0 SWAP1 SLOAD SWAP1 PUSH2 0x100 EXP SWAP1 DIV PUSH20 0xFFFFFFFFFFFFFFFFFFFFFFFFFFFFFFFFFFFFFFFF AND PUSH20 0xFFFFFFFFFFFFFFFFFFFFFFFFFFFFFFFFFFFFFFFF AND PUSH2 0x8FC PUSH2 0x2084 PUSH1 0x2 DUP5 PUSH2 0x23AA SWAP1 SWAP2 SWAP1 PUSH4 0xFFFFFFFF AND JUMP JUMPDEST SWAP1 DUP2 ISZERO MUL SWAP1 PUSH1 0x40 MLOAD PUSH1 0x0 PUSH1 0x40 MLOAD DUP1 DUP4 SUB DUP2 DUP6 DUP9 DUP9 CALL SWAP4 POP POP POP POP ISZERO DUP1 ISZERO PUSH2 0x20AF JUMPI RETURNDATASIZE PUSH1 0x0 DUP1 RETURNDATACOPY RETURNDATASIZE PUSH1 0x0 REVERT JUMPDEST POP POP JUMP JUMPDEST PUSH1 0x0 PUSH1 0x6 SLOAD DUP3 GT ISZERO PUSH2 0x20FA JUMPI PUSH1 0x40 MLOAD PUSH32 0x8C379A000000000000000000000000000000000000000000000000000000000 DUP2 MSTORE PUSH1 0x4 ADD PUSH2 0x20F1 SWAP1 PUSH2 0x364D JUMP JUMPDEST PUSH1 0x40 MLOAD DUP1 SWAP2 SUB SWAP1 REVERT JUMPDEST PUSH1 0x0 PUSH2 0x2104 PUSH2 0x23F4 JUMP JUMPDEST SWAP1 POP PUSH2 0x2119 DUP2 DUP5 PUSH2 0x23AA SWAP1 SWAP2 SWAP1 PUSH4 0xFFFFFFFF AND JUMP JUMPDEST SWAP2 POP POP SWAP2 SWAP1 POP JUMP JUMPDEST PUSH1 0x1 PUSH1 0x12 PUSH1 0x14 PUSH2 0x100 EXP DUP2 SLOAD DUP2 PUSH1 0xFF MUL NOT AND SWAP1 DUP4 ISZERO ISZERO MUL OR SWAP1 SSTORE POP PUSH1 0x0 PUSH1 0x2 PUSH8 0xFFFFFFFFFFFFFFFF DUP2 GT ISZERO PUSH2 0x2159 JUMPI PUSH2 0x2158 PUSH2 0x366D JUMP JUMPDEST JUMPDEST PUSH1 0x40 MLOAD SWAP1 DUP1 DUP3 MSTORE DUP1 PUSH1 0x20 MUL PUSH1 0x20 ADD DUP3 ADD PUSH1 0x40 MSTORE DUP1 ISZERO PUSH2 0x2187 JUMPI DUP2 PUSH1 0x20 ADD PUSH1 0x20 DUP3 MUL DUP1 CALLDATASIZE DUP4 CALLDATACOPY DUP1 DUP3 ADD SWAP2 POP POP SWAP1 POP JUMPDEST POP SWAP1 POP ADDRESS DUP2 PUSH1 0x0 DUP2 MLOAD DUP2 LT PUSH2 0x219F JUMPI PUSH2 0x219E PUSH2 0x31BC JUMP JUMPDEST JUMPDEST PUSH1 0x20 MUL PUSH1 0x20 ADD ADD SWAP1 PUSH20 0xFFFFFFFFFFFFFFFFFFFFFFFFFFFFFFFFFFFFFFFF AND SWAP1 DUP2 PUSH20 0xFFFFFFFFFFFFFFFFFFFFFFFFFFFFFFFFFFFFFFFF AND DUP2 MSTORE POP POP PUSH1 0x10 PUSH1 0x0 SWAP1 SLOAD SWAP1 PUSH2 0x100 EXP SWAP1 DIV PUSH20 0xFFFFFFFFFFFFFFFFFFFFFFFFFFFFFFFFFFFFFFFF AND PUSH20 0xFFFFFFFFFFFFFFFFFFFFFFFFFFFFFFFFFFFFFFFF AND PUSH4 0xAD5C4648 PUSH1 0x40 MLOAD DUP2 PUSH4 0xFFFFFFFF AND PUSH1 0xE0 SHL DUP2 MSTORE PUSH1 0x4 ADD PUSH1 0x20 PUSH1 0x40 MLOAD DUP1 DUP4 SUB DUP2 DUP7 GAS STATICCALL ISZERO DUP1 ISZERO PUSH2 0x2246 JUMPI RETURNDATASIZE PUSH1 0x0 DUP1 RETURNDATACOPY RETURNDATASIZE PUSH1 0x0 REVERT JUMPDEST POP POP POP POP PUSH1 0x40 MLOAD RETURNDATASIZE PUSH1 0x1F NOT PUSH1 0x1F DUP3 ADD AND DUP3 ADD DUP1 PUSH1 0x40 MSTORE POP DUP2 ADD SWAP1 PUSH2 0x226A SWAP2 SWAP1 PUSH2 0x36B1 JUMP JUMPDEST DUP2 PUSH1 0x1 DUP2 MLOAD DUP2 LT PUSH2 0x227E JUMPI PUSH2 0x227D PUSH2 0x31BC JUMP JUMPDEST JUMPDEST PUSH1 0x20 MUL PUSH1 0x20 ADD ADD SWAP1 PUSH20 0xFFFFFFFFFFFFFFFFFFFFFFFFFFFFFFFFFFFFFFFF AND SWAP1 DUP2 PUSH20 0xFFFFFFFFFFFFFFFFFFFFFFFFFFFFFFFFFFFFFFFF AND DUP2 MSTORE POP POP PUSH2 0x22E5 ADDRESS PUSH1 0x10 PUSH1 0x0 SWAP1 SLOAD SWAP1 PUSH2 0x100 EXP SWAP1 DIV PUSH20 0xFFFFFFFFFFFFFFFFFFFFFFFFFFFFFFFFFFFFFFFF AND DUP5 PUSH2 0x1819 JUMP JUMPDEST PUSH1 0x10 PUSH1 0x0 SWAP1 SLOAD SWAP1 PUSH2 0x100 EXP SWAP1 DIV PUSH20 0xFFFFFFFFFFFFFFFFFFFFFFFFFFFFFFFFFFFFFFFF AND PUSH20 0xFFFFFFFFFFFFFFFFFFFFFFFFFFFFFFFFFFFFFFFF AND PUSH4 0x791AC947 DUP4 PUSH1 0x0 DUP5 ADDRESS TIMESTAMP PUSH1 0x40 MLOAD DUP7 PUSH4 0xFFFFFFFF AND PUSH1 0xE0 SHL DUP2 MSTORE PUSH1 0x4 ADD PUSH2 0x2349 SWAP6 SWAP5 SWAP4 SWAP3 SWAP2 SWAP1 PUSH2 0x37D7 JUMP JUMPDEST PUSH1 0x0 PUSH1 0x40 MLOAD DUP1 DUP4 SUB DUP2 PUSH1 0x0 DUP8 DUP1 EXTCODESIZE ISZERO DUP1 ISZERO PUSH2 0x2363 JUMPI PUSH1 0x0 DUP1 REVERT JUMPDEST POP GAS CALL ISZERO DUP1 ISZERO PUSH2 0x2377 JUMPI RETURNDATASIZE PUSH1 0x0 DUP1 RETURNDATACOPY RETURNDATASIZE PUSH1 0x0 REVERT JUMPDEST POP POP POP POP POP PUSH1 0x0 PUSH1 0x12 PUSH1 0x14 PUSH2 0x100 EXP DUP2 SLOAD DUP2 PUSH1 0xFF MUL NOT AND SWAP1 DUP4 ISZERO ISZERO MUL OR SWAP1 SSTORE POP POP JUMP JUMPDEST PUSH2 0x23A5 DUP4 DUP4 DUP4 PUSH2 0x241F JUMP JUMPDEST POP POP POP JUMP JUMPDEST PUSH1 0x0 PUSH2 0x23EC DUP4 DUP4 PUSH1 0x40 MLOAD DUP1 PUSH1 0x40 ADD PUSH1 0x40 MSTORE DUP1 PUSH1 0x1A DUP2 MSTORE PUSH1 0x20 ADD PUSH32 0x536166654D6174683A206469766973696F6E206279207A65726F000000000000 DUP2 MSTORE POP PUSH2 0x25EA JUMP JUMPDEST SWAP1 POP SWAP3 SWAP2 POP POP JUMP JUMPDEST PUSH1 0x0 DUP1 PUSH1 0x0 PUSH2 0x2401 PUSH2 0x264D JUMP JUMPDEST SWAP2 POP SWAP2 POP PUSH2 0x2418 DUP2 DUP4 PUSH2 0x23AA SWAP1 SWAP2 SWAP1 PUSH4 0xFFFFFFFF AND JUMP JUMPDEST SWAP3 POP POP POP SWAP1 JUMP JUMPDEST PUSH1 0x0 DUP1 PUSH1 0x0 DUP1 PUSH1 0x0 DUP1 PUSH2 0x2431 DUP8 PUSH2 0x26AC JUMP JUMPDEST SWAP6 POP SWAP6 POP SWAP6 POP SWAP6 POP SWAP6 POP SWAP6 POP PUSH2 0x248F DUP7 PUSH1 0x2 PUSH1 0x0 DUP13 PUSH20 0xFFFFFFFFFFFFFFFFFFFFFFFFFFFFFFFFFFFFFFFF AND PUSH20 0xFFFFFFFFFFFFFFFFFFFFFFFFFFFFFFFFFFFFFFFF AND DUP2 MSTORE PUSH1 0x20 ADD SWAP1 DUP2 MSTORE PUSH1 0x20 ADD PUSH1 0x0 KECCAK256 SLOAD PUSH2 0x2714 SWAP1 SWAP2 SWAP1 PUSH4 0xFFFFFFFF AND JUMP JUMPDEST PUSH1 0x2 PUSH1 0x0 DUP12 PUSH20 0xFFFFFFFFFFFFFFFFFFFFFFFFFFFFFFFFFFFFFFFF AND PUSH20 0xFFFFFFFFFFFFFFFFFFFFFFFFFFFFFFFFFFFFFFFF AND DUP2 MSTORE PUSH1 0x20 ADD SWAP1 DUP2 MSTORE PUSH1 0x20 ADD PUSH1 0x0 KECCAK256 DUP2 SWAP1 SSTORE POP PUSH2 0x2524 DUP6 PUSH1 0x2 PUSH1 0x0 DUP12 PUSH20 0xFFFFFFFFFFFFFFFFFFFFFFFFFFFFFFFFFFFFFFFF AND PUSH20 0xFFFFFFFFFFFFFFFFFFFFFFFFFFFFFFFFFFFFFFFF AND DUP2 MSTORE PUSH1 0x20 ADD SWAP1 DUP2 MSTORE PUSH1 0x20 ADD PUSH1 0x0 KECCAK256 SLOAD PUSH2 0x275E SWAP1 SWAP2 SWAP1 PUSH4 0xFFFFFFFF AND JUMP JUMPDEST PUSH1 0x2 PUSH1 0x0 DUP11 PUSH20 0xFFFFFFFFFFFFFFFFFFFFFFFFFFFFFFFFFFFFFFFF AND PUSH20 0xFFFFFFFFFFFFFFFFFFFFFFFFFFFFFFFFFFFFFFFF AND DUP2 MSTORE PUSH1 0x20 ADD SWAP1 DUP2 MSTORE PUSH1 0x20 ADD PUSH1 0x0 KECCAK256 DUP2 SWAP1 SSTORE POP PUSH2 0x2570 DUP2 PUSH2 0x27BC JUMP JUMPDEST PUSH2 0x257A DUP5 DUP4 PUSH2 0x2879 JUMP JUMPDEST DUP8 PUSH20 0xFFFFFFFFFFFFFFFFFFFFFFFFFFFFFFFFFFFFFFFF AND DUP10 PUSH20 0xFFFFFFFFFFFFFFFFFFFFFFFFFFFFFFFFFFFFFFFF AND PUSH32 0xDDF252AD1BE2C89B69C2B068FC378DAA952BA7F163C4A11628F55A4DF523B3EF DUP6 PUSH1 0x40 MLOAD PUSH2 0x25D7 SWAP2 SWAP1 PUSH2 0x2CA4 JUMP JUMPDEST PUSH1 0x40 MLOAD DUP1 SWAP2 SUB SWAP1 LOG3 POP POP POP POP POP POP POP POP POP JUMP JUMPDEST PUSH1 0x0 DUP1 DUP4 GT DUP3 SWAP1 PUSH2 0x2631 JUMPI PUSH1 0x40 MLOAD PUSH32 0x8C379A000000000000000000000000000000000000000000000000000000000 DUP2 MSTORE PUSH1 0x4 ADD PUSH2 0x2628 SWAP2 SWAP1 PUSH2 0x2AE5 JUMP JUMPDEST PUSH1 0x40 MLOAD DUP1 SWAP2 SUB SWAP1 REVERT JUMPDEST POP PUSH1 0x0 DUP4 DUP6 PUSH2 0x2640 SWAP2 SWAP1 PUSH2 0x3860 JUMP JUMPDEST SWAP1 POP DUP1 SWAP2 POP POP SWAP4 SWAP3 POP POP POP JUMP JUMPDEST PUSH1 0x0 DUP1 PUSH1 0x0 PUSH1 0x6 SLOAD SWAP1 POP PUSH1 0x0 PUSH8 0xDE0B6B3A7640000 SWAP1 POP PUSH2 0x2681 PUSH8 0xDE0B6B3A7640000 PUSH1 0x6 SLOAD PUSH2 0x23AA SWAP1 SWAP2 SWAP1 PUSH4 0xFFFFFFFF AND JUMP JUMPDEST DUP3 LT ISZERO PUSH2 0x269F JUMPI PUSH1 0x6 SLOAD PUSH8 0xDE0B6B3A7640000 SWAP4 POP SWAP4 POP POP POP PUSH2 0x26A8 JUMP JUMPDEST DUP2 DUP2 SWAP4 POP SWAP4 POP POP POP JUMPDEST SWAP1 SWAP2 JUMP JUMPDEST PUSH1 0x0 DUP1 PUSH1 0x0 DUP1 PUSH1 0x0 DUP1 PUSH1 0x0 DUP1 PUSH1 0x0 PUSH2 0x26C9 DUP11 PUSH1 0xC SLOAD PUSH1 0xD SLOAD PUSH2 0x28B3 JUMP JUMPDEST SWAP3 POP SWAP3 POP SWAP3 POP PUSH1 0x0 PUSH2 0x26D9 PUSH2 0x23F4 JUMP JUMPDEST SWAP1 POP PUSH1 0x0 DUP1 PUSH1 0x0 PUSH2 0x26EC DUP15 DUP8 DUP8 DUP8 PUSH2 0x2949 JUMP JUMPDEST SWAP3 POP SWAP3 POP SWAP3 POP DUP3 DUP3 DUP3 DUP10 DUP10 DUP10 SWAP13 POP SWAP13 POP SWAP13 POP SWAP13 POP SWAP13 POP SWAP13 POP POP POP POP POP POP POP POP SWAP2 SWAP4 SWAP6 POP SWAP2 SWAP4 SWAP6 JUMP JUMPDEST PUSH1 0x0 PUSH2 0x2756 DUP4 DUP4 PUSH1 0x40 MLOAD DUP1 PUSH1 0x40 ADD PUSH1 0x40 MSTORE DUP1 PUSH1 0x1E DUP2 MSTORE PUSH1 0x20 ADD PUSH32 0x536166654D6174683A207375627472616374696F6E206F766572666C6F770000 DUP2 MSTORE POP PUSH2 0x1F54 JUMP JUMPDEST SWAP1 POP SWAP3 SWAP2 POP POP JUMP JUMPDEST PUSH1 0x0 DUP1 DUP3 DUP5 PUSH2 0x276D SWAP2 SWAP1 PUSH2 0x3891 JUMP JUMPDEST SWAP1 POP DUP4 DUP2 LT ISZERO PUSH2 0x27B2 JUMPI PUSH1 0x40 MLOAD PUSH32 0x8C379A000000000000000000000000000000000000000000000000000000000 DUP2 MSTORE PUSH1 0x4 ADD PUSH2 0x27A9 SWAP1 PUSH2 0x3933 JUMP JUMPDEST PUSH1 0x40 MLOAD DUP1 SWAP2 SUB SWAP1 REVERT JUMPDEST DUP1 SWAP2 POP POP SWAP3 SWAP2 POP POP JUMP JUMPDEST PUSH1 0x0 PUSH2 0x27C6 PUSH2 0x23F4 JUMP JUMPDEST SWAP1 POP PUSH1 0x0 PUSH2 0x27DD DUP3 DUP5 PUSH2 0x29D2 SWAP1 SWAP2 SWAP1 PUSH4 0xFFFFFFFF AND JUMP JUMPDEST SWAP1 POP PUSH2 0x2831 DUP2 PUSH1 0x2 PUSH1 0x0 ADDRESS PUSH20 0xFFFFFFFFFFFFFFFFFFFFFFFFFFFFFFFFFFFFFFFF AND PUSH20 0xFFFFFFFFFFFFFFFFFFFFFFFFFFFFFFFFFFFFFFFF AND DUP2 MSTORE PUSH1 0x20 ADD SWAP1 DUP2 MSTORE PUSH1 0x20 ADD PUSH1 0x0 KECCAK256 SLOAD PUSH2 0x275E SWAP1 SWAP2 SWAP1 PUSH4 0xFFFFFFFF AND JUMP JUMPDEST PUSH1 0x2 PUSH1 0x0 ADDRESS PUSH20 0xFFFFFFFFFFFFFFFFFFFFFFFFFFFFFFFFFFFFFFFF AND PUSH20 0xFFFFFFFFFFFFFFFFFFFFFFFFFFFFFFFFFFFFFFFF AND DUP2 MSTORE PUSH1 0x20 ADD SWAP1 DUP2 MSTORE PUSH1 0x20 ADD PUSH1 0x0 KECCAK256 DUP2 SWAP1 SSTORE POP POP POP POP JUMP JUMPDEST PUSH2 0x288E DUP3 PUSH1 0x6 SLOAD PUSH2 0x2714 SWAP1 SWAP2 SWAP1 PUSH4 0xFFFFFFFF AND JUMP JUMPDEST PUSH1 0x6 DUP2 SWAP1 SSTORE POP PUSH2 0x28A9 DUP2 PUSH1 0x7 SLOAD PUSH2 0x275E SWAP1 SWAP2 SWAP1 PUSH4 0xFFFFFFFF AND JUMP JUMPDEST PUSH1 0x7 DUP2 SWAP1 SSTORE POP POP POP JUMP JUMPDEST PUSH1 0x0 DUP1 PUSH1 0x0 DUP1 PUSH2 0x28DF PUSH1 0x64 PUSH2 0x28D1 DUP9 DUP11 PUSH2 0x29D2 SWAP1 SWAP2 SWAP1 PUSH4 0xFFFFFFFF AND JUMP JUMPDEST PUSH2 0x23AA SWAP1 SWAP2 SWAP1 PUSH4 0xFFFFFFFF AND JUMP JUMPDEST SWAP1 POP PUSH1 0x0 PUSH2 0x2909 PUSH1 0x64 PUSH2 0x28FB DUP9 DUP12 PUSH2 0x29D2 SWAP1 SWAP2 SWAP1 PUSH4 0xFFFFFFFF AND JUMP JUMPDEST PUSH2 0x23AA SWAP1 SWAP2 SWAP1 PUSH4 0xFFFFFFFF AND JUMP JUMPDEST SWAP1 POP PUSH1 0x0 PUSH2 0x2932 DUP3 PUSH2 0x2924 DUP6 DUP13 PUSH2 0x2714 SWAP1 SWAP2 SWAP1 PUSH4 0xFFFFFFFF AND JUMP JUMPDEST PUSH2 0x2714 SWAP1 SWAP2 SWAP1 PUSH4 0xFFFFFFFF AND JUMP JUMPDEST SWAP1 POP DUP1 DUP4 DUP4 SWAP6 POP SWAP6 POP SWAP6 POP POP POP POP SWAP4 POP SWAP4 POP SWAP4 SWAP1 POP JUMP JUMPDEST PUSH1 0x0 DUP1 PUSH1 0x0 DUP1 PUSH2 0x2962 DUP6 DUP10 PUSH2 0x29D2 SWAP1 SWAP2 SWAP1 PUSH4 0xFFFFFFFF AND JUMP JUMPDEST SWAP1 POP PUSH1 0x0 PUSH2 0x2979 DUP7 DUP10 PUSH2 0x29D2 SWAP1 SWAP2 SWAP1 PUSH4 0xFFFFFFFF AND JUMP JUMPDEST SWAP1 POP PUSH1 0x0 PUSH2 0x2990 DUP8 DUP10 PUSH2 0x29D2 SWAP1 SWAP2 SWAP1 PUSH4 0xFFFFFFFF AND JUMP JUMPDEST SWAP1 POP PUSH1 0x0 PUSH2 0x29B9 DUP3 PUSH2 0x29AB DUP6 DUP8 PUSH2 0x2714 SWAP1 SWAP2 SWAP1 PUSH4 0xFFFFFFFF AND JUMP JUMPDEST PUSH2 0x2714 SWAP1 SWAP2 SWAP1 PUSH4 0xFFFFFFFF AND JUMP JUMPDEST SWAP1 POP DUP4 DUP2 DUP5 SWAP7 POP SWAP7 POP SWAP7 POP POP POP POP POP SWAP5 POP SWAP5 POP SWAP5 SWAP2 POP POP JUMP JUMPDEST PUSH1 0x0 DUP1 DUP4 SUB PUSH2 0x29E4 JUMPI PUSH1 0x0 SWAP1 POP PUSH2 0x2A46 JUMP JUMPDEST PUSH1 0x0 DUP3 DUP5 PUSH2 0x29F2 SWAP2 SWAP1 PUSH2 0x3953 JUMP JUMPDEST SWAP1 POP DUP3 DUP5 DUP3 PUSH2 0x2A01 SWAP2 SWAP1 PUSH2 0x3860 JUMP JUMPDEST EQ PUSH2 0x2A41 JUMPI PUSH1 0x40 MLOAD PUSH32 0x8C379A000000000000000000000000000000000000000000000000000000000 DUP2 MSTORE PUSH1 0x4 ADD PUSH2 0x2A38 SWAP1 PUSH2 0x3A1F JUMP JUMPDEST PUSH1 0x40 MLOAD DUP1 SWAP2 SUB SWAP1 REVERT JUMPDEST DUP1 SWAP2 POP POP JUMPDEST SWAP3 SWAP2 POP POP JUMP JUMPDEST PUSH1 0x0 DUP2 MLOAD SWAP1 POP SWAP2 SWAP1 POP JUMP JUMPDEST PUSH1 0x0 DUP3 DUP3 MSTORE PUSH1 0x20 DUP3 ADD SWAP1 POP SWAP3 SWAP2 POP POP JUMP JUMPDEST PUSH1 0x0 JUMPDEST DUP4 DUP2 LT ISZERO PUSH2 0x2A86 JUMPI DUP1 DUP3 ADD MLOAD DUP2 DUP5 ADD MSTORE PUSH1 0x20 DUP2 ADD SWAP1 POP PUSH2 0x2A6B JUMP JUMPDEST DUP4 DUP2 GT ISZERO PUSH2 0x2A95 JUMPI PUSH1 0x0 DUP5 DUP5 ADD MSTORE JUMPDEST POP POP POP POP JUMP JUMPDEST PUSH1 0x0 PUSH1 0x1F NOT PUSH1 0x1F DUP4 ADD AND SWAP1 POP SWAP2 SWAP1 POP JUMP JUMPDEST PUSH1 0x0 PUSH2 0x2AB7 DUP3 PUSH2 0x2A4C JUMP JUMPDEST PUSH2 0x2AC1 DUP2 DUP6 PUSH2 0x2A57 JUMP JUMPDEST SWAP4 POP PUSH2 0x2AD1 DUP2 DUP6 PUSH1 0x20 DUP7 ADD PUSH2 0x2A68 JUMP JUMPDEST PUSH2 0x2ADA DUP2 PUSH2 0x2A9B JUMP JUMPDEST DUP5 ADD SWAP2 POP POP SWAP3 SWAP2 POP POP JUMP JUMPDEST PUSH1 0x0 PUSH1 0x20 DUP3 ADD SWAP1 POP DUP2 DUP2 SUB PUSH1 0x0 DUP4 ADD MSTORE PUSH2 0x2AFF DUP2 DUP5 PUSH2 0x2AAC JUMP JUMPDEST SWAP1 POP SWAP3 SWAP2 POP POP JUMP JUMPDEST PUSH1 0x0 DUP1 REVERT JUMPDEST PUSH1 0x0 DUP1 REVERT JUMPDEST PUSH1 0x0 PUSH20 0xFFFFFFFFFFFFFFFFFFFFFFFFFFFFFFFFFFFFFFFF DUP3 AND SWAP1 POP SWAP2 SWAP1 POP JUMP JUMPDEST PUSH1 0x0 PUSH2 0x2B3C DUP3 PUSH2 0x2B11 JUMP JUMPDEST SWAP1 POP SWAP2 SWAP1 POP JUMP JUMPDEST PUSH2 0x2B4C DUP2 PUSH2 0x2B31 JUMP JUMPDEST DUP2 EQ PUSH2 0x2B57 JUMPI PUSH1 0x0 DUP1 REVERT JUMPDEST POP JUMP JUMPDEST PUSH1 0x0 DUP2 CALLDATALOAD SWAP1 POP PUSH2 0x2B69 DUP2 PUSH2 0x2B43 JUMP JUMPDEST SWAP3 SWAP2 POP POP JUMP JUMPDEST PUSH1 0x0 DUP2 SWAP1 POP SWAP2 SWAP1 POP JUMP JUMPDEST PUSH2 0x2B82 DUP2 PUSH2 0x2B6F JUMP JUMPDEST DUP2 EQ PUSH2 0x2B8D JUMPI PUSH1 0x0 DUP1 REVERT JUMPDEST POP JUMP JUMPDEST PUSH1 0x0 DUP2 CALLDATALOAD SWAP1 POP PUSH2 0x2B9F DUP2 PUSH2 0x2B79 JUMP JUMPDEST SWAP3 SWAP2 POP POP JUMP JUMPDEST PUSH1 0x0 DUP1 PUSH1 0x40 DUP4 DUP6 SUB SLT ISZERO PUSH2 0x2BBC JUMPI PUSH2 0x2BBB PUSH2 0x2B07 JUMP JUMPDEST JUMPDEST PUSH1 0x0 PUSH2 0x2BCA DUP6 DUP3 DUP7 ADD PUSH2 0x2B5A JUMP JUMPDEST SWAP3 POP POP PUSH1 0x20 PUSH2 0x2BDB DUP6 DUP3 DUP7 ADD PUSH2 0x2B90 JUMP JUMPDEST SWAP2 POP POP SWAP3 POP SWAP3 SWAP1 POP JUMP JUMPDEST PUSH1 0x0 DUP2 ISZERO ISZERO SWAP1 POP SWAP2 SWAP1 POP JUMP JUMPDEST PUSH2 0x2BFA DUP2 PUSH2 0x2BE5 JUMP JUMPDEST DUP3 MSTORE POP POP JUMP JUMPDEST PUSH1 0x0 PUSH1 0x20 DUP3 ADD SWAP1 POP PUSH2 0x2C15 PUSH1 0x0 DUP4 ADD DUP5 PUSH2 0x2BF1 JUMP JUMPDEST SWAP3 SWAP2 POP POP JUMP JUMPDEST PUSH1 0x0 DUP2 SWAP1 POP SWAP2 SWAP1 POP JUMP JUMPDEST PUSH1 0x0 PUSH2 0x2C40 PUSH2 0x2C3B PUSH2 0x2C36 DUP5 PUSH2 0x2B11 JUMP JUMPDEST PUSH2 0x2C1B JUMP JUMPDEST PUSH2 0x2B11 JUMP JUMPDEST SWAP1 POP SWAP2 SWAP1 POP JUMP JUMPDEST PUSH1 0x0 PUSH2 0x2C52 DUP3 PUSH2 0x2C25 JUMP JUMPDEST SWAP1 POP SWAP2 SWAP1 POP JUMP JUMPDEST PUSH1 0x0 PUSH2 0x2C64 DUP3 PUSH2 0x2C47 JUMP JUMPDEST SWAP1 POP SWAP2 SWAP1 POP JUMP JUMPDEST PUSH2 0x2C74 DUP2 PUSH2 0x2C59 JUMP JUMPDEST DUP3 MSTORE POP POP JUMP JUMPDEST PUSH1 0x0 PUSH1 0x20 DUP3 ADD SWAP1 POP PUSH2 0x2C8F PUSH1 0x0 DUP4 ADD DUP5 PUSH2 0x2C6B JUMP JUMPDEST SWAP3 SWAP2 POP POP JUMP JUMPDEST PUSH2 0x2C9E DUP2 PUSH2 0x2B6F JUMP JUMPDEST DUP3 MSTORE POP POP JUMP JUMPDEST PUSH1 0x0 PUSH1 0x20 DUP3 ADD SWAP1 POP PUSH2 0x2CB9 PUSH1 0x0 DUP4 ADD DUP5 PUSH2 0x2C95 JUMP JUMPDEST SWAP3 SWAP2 POP POP JUMP JUMPDEST PUSH1 0x0 DUP1 PUSH1 0x0 PUSH1 0x60 DUP5 DUP7 SUB SLT ISZERO PUSH2 0x2CD8 JUMPI PUSH2 0x2CD7 PUSH2 0x2B07 JUMP JUMPDEST JUMPDEST PUSH1 0x0 PUSH2 0x2CE6 DUP7 DUP3 DUP8 ADD PUSH2 0x2B5A JUMP JUMPDEST SWAP4 POP POP PUSH1 0x20 PUSH2 0x2CF7 DUP7 DUP3 DUP8 ADD PUSH2 0x2B5A JUMP JUMPDEST SWAP3 POP POP PUSH1 0x40 PUSH2 0x2D08 DUP7 DUP3 DUP8 ADD PUSH2 0x2B90 JUMP JUMPDEST SWAP2 POP POP SWAP3 POP SWAP3 POP SWAP3 JUMP JUMPDEST PUSH1 0x0 PUSH1 0xFF DUP3 AND SWAP1 POP SWAP2 SWAP1 POP JUMP JUMPDEST PUSH2 0x2D28 DUP2 PUSH2 0x2D12 JUMP JUMPDEST DUP3 MSTORE POP POP JUMP JUMPDEST PUSH1 0x0 PUSH1 0x20 DUP3 ADD SWAP1 POP PUSH2 0x2D43 PUSH1 0x0 DUP4 ADD DUP5 PUSH2 0x2D1F JUMP JUMPDEST SWAP3 SWAP2 POP POP JUMP JUMPDEST PUSH2 0x2D52 DUP2 PUSH2 0x2B31 JUMP JUMPDEST DUP3 MSTORE POP POP JUMP JUMPDEST PUSH1 0x0 PUSH1 0x20 DUP3 ADD SWAP1 POP PUSH2 0x2D6D PUSH1 0x0 DUP4 ADD DUP5 PUSH2 0x2D49 JUMP JUMPDEST SWAP3 SWAP2 POP POP JUMP JUMPDEST PUSH1 0x0 PUSH2 0x2D7E DUP3 PUSH2 0x2C47 JUMP JUMPDEST SWAP1 POP SWAP2 SWAP1 POP JUMP JUMPDEST PUSH2 0x2D8E DUP2 PUSH2 0x2D73 JUMP JUMPDEST DUP3 MSTORE POP POP JUMP JUMPDEST PUSH1 0x0 PUSH1 0x20 DUP3 ADD SWAP1 POP PUSH2 0x2DA9 PUSH1 0x0 DUP4 ADD DUP5 PUSH2 0x2D85 JUMP JUMPDEST SWAP3 SWAP2 POP POP JUMP JUMPDEST PUSH2 0x2DB8 DUP2 PUSH2 0x2BE5 JUMP JUMPDEST DUP2 EQ PUSH2 0x2DC3 JUMPI PUSH1 0x0 DUP1 REVERT JUMPDEST POP JUMP JUMPDEST PUSH1 0x0 DUP2 CALLDATALOAD SWAP1 POP PUSH2 0x2DD5 DUP2 PUSH2 0x2DAF JUMP JUMPDEST SWAP3 SWAP2 POP POP JUMP JUMPDEST PUSH1 0x0 PUSH1 0x20 DUP3 DUP5 SUB SLT ISZERO PUSH2 0x2DF1 JUMPI PUSH2 0x2DF0 PUSH2 0x2B07 JUMP JUMPDEST JUMPDEST PUSH1 0x0 PUSH2 0x2DFF DUP5 DUP3 DUP6 ADD PUSH2 0x2DC6 JUMP JUMPDEST SWAP2 POP POP SWAP3 SWAP2 POP POP JUMP JUMPDEST PUSH1 0x0 PUSH1 0x20 DUP3 DUP5 SUB SLT ISZERO PUSH2 0x2E1E JUMPI PUSH2 0x2E1D PUSH2 0x2B07 JUMP JUMPDEST JUMPDEST PUSH1 0x0 PUSH2 0x2E2C DUP5 DUP3 DUP6 ADD PUSH2 0x2B5A JUMP JUMPDEST SWAP2 POP POP SWAP3 SWAP2 POP POP JUMP JUMPDEST PUSH1 0x0 PUSH2 0x2E40 DUP3 PUSH2 0x2B11 JUMP JUMPDEST SWAP1 POP SWAP2 SWAP1 POP JUMP JUMPDEST PUSH2 0x2E50 DUP2 PUSH2 0x2E35 JUMP JUMPDEST DUP2 EQ PUSH2 0x2E5B JUMPI PUSH1 0x0 DUP1 REVERT JUMPDEST POP JUMP JUMPDEST PUSH1 0x0 DUP2 CALLDATALOAD SWAP1 POP PUSH2 0x2E6D DUP2 PUSH2 0x2E47 JUMP JUMPDEST SWAP3 SWAP2 POP POP JUMP JUMPDEST PUSH1 0x0 PUSH1 0x20 DUP3 DUP5 SUB SLT ISZERO PUSH2 0x2E89 JUMPI PUSH2 0x2E88 PUSH2 0x2B07 JUMP JUMPDEST JUMPDEST PUSH1 0x0 PUSH2 0x2E97 DUP5 DUP3 DUP6 ADD PUSH2 0x2E5E JUMP JUMPDEST SWAP2 POP POP SWAP3 SWAP2 POP POP JUMP JUMPDEST PUSH1 0x0 DUP1 PUSH1 0x0 DUP1 PUSH1 0x80 DUP6 DUP8 SUB SLT ISZERO PUSH2 0x2EBA JUMPI PUSH2 0x2EB9 PUSH2 0x2B07 JUMP JUMPDEST JUMPDEST PUSH1 0x0 PUSH2 0x2EC8 DUP8 DUP3 DUP9 ADD PUSH2 0x2B90 JUMP JUMPDEST SWAP5 POP POP PUSH1 0x20 PUSH2 0x2ED9 DUP8 DUP3 DUP9 ADD PUSH2 0x2B90 JUMP JUMPDEST SWAP4 POP POP PUSH1 0x40 PUSH2 0x2EEA DUP8 DUP3 DUP9 ADD PUSH2 0x2B90 JUMP JUMPDEST SWAP3 POP POP PUSH1 0x60 PUSH2 0x2EFB DUP8 DUP3 DUP9 ADD PUSH2 0x2B90 JUMP JUMPDEST SWAP2 POP POP SWAP3 SWAP6 SWAP2 SWAP5 POP SWAP3 POP JUMP JUMPDEST PUSH1 0x0 DUP1 REVERT JUMPDEST PUSH1 0x0 DUP1 REVERT JUMPDEST PUSH1 0x0 DUP1 REVERT JUMPDEST PUSH1 0x0 DUP1 DUP4 PUSH1 0x1F DUP5 ADD SLT PUSH2 0x2F2C JUMPI PUSH2 0x2F2B PUSH2 0x2F07 JUMP JUMPDEST JUMPDEST DUP3 CALLDATALOAD SWAP1 POP PUSH8 0xFFFFFFFFFFFFFFFF DUP2 GT ISZERO PUSH2 0x2F49 JUMPI PUSH2 0x2F48 PUSH2 0x2F0C JUMP JUMPDEST JUMPDEST PUSH1 0x20 DUP4 ADD SWAP2 POP DUP4 PUSH1 0x20 DUP3 MUL DUP4 ADD GT ISZERO PUSH2 0x2F65 JUMPI PUSH2 0x2F64 PUSH2 0x2F11 JUMP JUMPDEST JUMPDEST SWAP3 POP SWAP3 SWAP1 POP JUMP JUMPDEST PUSH1 0x0 DUP1 PUSH1 0x0 PUSH1 0x40 DUP5 DUP7 SUB SLT ISZERO PUSH2 0x2F85 JUMPI PUSH2 0x2F84 PUSH2 0x2B07 JUMP JUMPDEST JUMPDEST PUSH1 0x0 DUP5 ADD CALLDATALOAD PUSH8 0xFFFFFFFFFFFFFFFF DUP2 GT ISZERO PUSH2 0x2FA3 JUMPI PUSH2 0x2FA2 PUSH2 0x2B0C JUMP JUMPDEST JUMPDEST PUSH2 0x2FAF DUP7 DUP3 DUP8 ADD PUSH2 0x2F16 JUMP JUMPDEST SWAP4 POP SWAP4 POP POP PUSH1 0x20 PUSH2 0x2FC2 DUP7 DUP3 DUP8 ADD PUSH2 0x2DC6 JUMP JUMPDEST SWAP2 POP POP SWAP3 POP SWAP3 POP SWAP3 JUMP JUMPDEST PUSH1 0x0 DUP1 PUSH1 0x40 DUP4 DUP6 SUB SLT ISZERO PUSH2 0x2FE3 JUMPI PUSH2 0x2FE2 PUSH2 0x2B07 JUMP JUMPDEST JUMPDEST PUSH1 0x0 PUSH2 0x2FF1 DUP6 DUP3 DUP7 ADD PUSH2 0x2B5A JUMP JUMPDEST SWAP3 POP POP PUSH1 0x20 PUSH2 0x3002 DUP6 DUP3 DUP7 ADD PUSH2 0x2B5A JUMP JUMPDEST SWAP2 POP POP SWAP3 POP SWAP3 SWAP1 POP JUMP JUMPDEST PUSH32 0x43616C6C6572206973206E6F7420746865206F776E6572000000000000000000 PUSH1 0x0 DUP3 ADD MSTORE POP JUMP JUMPDEST PUSH1 0x0 PUSH2 0x3042 PUSH1 0x17 DUP4 PUSH2 0x2A57 JUMP JUMPDEST SWAP2 POP PUSH2 0x304D DUP3 PUSH2 0x300C JUMP JUMPDEST PUSH1 0x20 DUP3 ADD SWAP1 POP SWAP2 SWAP1 POP JUMP JUMPDEST PUSH1 0x0 PUSH1 0x20 DUP3 ADD SWAP1 POP DUP2 DUP2 SUB PUSH1 0x0 DUP4 ADD MSTORE PUSH2 0x3071 DUP2 PUSH2 0x3035 JUMP JUMPDEST SWAP1 POP SWAP2 SWAP1 POP JUMP JUMPDEST PUSH32 0x43616C6C6572206973206E6F7420746865206465760000000000000000000000 PUSH1 0x0 DUP3 ADD MSTORE POP JUMP JUMPDEST PUSH1 0x0 PUSH2 0x30AE PUSH1 0x15 DUP4 PUSH2 0x2A57 JUMP JUMPDEST SWAP2 POP PUSH2 0x30B9 DUP3 PUSH2 0x3078 JUMP JUMPDEST PUSH1 0x20 DUP3 ADD SWAP1 POP SWAP2 SWAP1 POP JUMP JUMPDEST PUSH1 0x0 PUSH1 0x20 DUP3 ADD SWAP1 POP DUP2 DUP2 SUB PUSH1 0x0 DUP4 ADD MSTORE PUSH2 0x30DD DUP2 PUSH2 0x30A1 JUMP JUMPDEST SWAP1 POP SWAP2 SWAP1 POP JUMP JUMPDEST PUSH32 0x52656469732063616E6E6F74206265206D6F7265207468616E2031302E000000 PUSH1 0x0 DUP3 ADD MSTORE POP JUMP JUMPDEST PUSH1 0x0 PUSH2 0x311A PUSH1 0x1D DUP4 PUSH2 0x2A57 JUMP JUMPDEST SWAP2 POP PUSH2 0x3125 DUP3 PUSH2 0x30E4 JUMP JUMPDEST PUSH1 0x20 DUP3 ADD SWAP1 POP SWAP2 SWAP1 POP JUMP JUMPDEST PUSH1 0x0 PUSH1 0x20 DUP3 ADD SWAP1 POP DUP2 DUP2 SUB PUSH1 0x0 DUP4 ADD MSTORE PUSH2 0x3149 DUP2 PUSH2 0x310D JUMP JUMPDEST SWAP1 POP SWAP2 SWAP1 POP JUMP JUMPDEST PUSH32 0x5461782063616E6E6F74206265206D6F7265207468616E20362E000000000000 PUSH1 0x0 DUP3 ADD MSTORE POP JUMP JUMPDEST PUSH1 0x0 PUSH2 0x3186 PUSH1 0x1A DUP4 PUSH2 0x2A57 JUMP JUMPDEST SWAP2 POP PUSH2 0x3191 DUP3 PUSH2 0x3150 JUMP JUMPDEST PUSH1 0x20 DUP3 ADD SWAP1 POP SWAP2 SWAP1 POP JUMP JUMPDEST PUSH1 0x0 PUSH1 0x20 DUP3 ADD SWAP1 POP DUP2 DUP2 SUB PUSH1 0x0 DUP4 ADD MSTORE PUSH2 0x31B5 DUP2 PUSH2 0x3179 JUMP JUMPDEST SWAP1 POP SWAP2 SWAP1 POP JUMP JUMPDEST PUSH32 0x4E487B7100000000000000000000000000000000000000000000000000000000 PUSH1 0x0 MSTORE PUSH1 0x32 PUSH1 0x4 MSTORE PUSH1 0x24 PUSH1 0x0 REVERT JUMPDEST PUSH32 0x4E487B7100000000000000000000000000000000000000000000000000000000 PUSH1 0x0 MSTORE PUSH1 0x11 PUSH1 0x4 MSTORE PUSH1 0x24 PUSH1 0x0 REVERT JUMPDEST PUSH1 0x0 PUSH2 0x3225 DUP3 PUSH2 0x2B6F JUMP JUMPDEST SWAP2 POP PUSH32 0xFFFFFFFFFFFFFFFFFFFFFFFFFFFFFFFFFFFFFFFFFFFFFFFFFFFFFFFFFFFFFFFF DUP3 SUB PUSH2 0x3257 JUMPI PUSH2 0x3256 PUSH2 0x31EB JUMP JUMPDEST JUMPDEST PUSH1 0x1 DUP3 ADD SWAP1 POP SWAP2 SWAP1 POP JUMP JUMPDEST PUSH1 0x0 PUSH1 0x40 DUP3 ADD SWAP1 POP PUSH2 0x3277 PUSH1 0x0 DUP4 ADD DUP6 PUSH2 0x2D49 JUMP JUMPDEST PUSH2 0x3284 PUSH1 0x20 DUP4 ADD DUP5 PUSH2 0x2C95 JUMP JUMPDEST SWAP4 SWAP3 POP POP POP JUMP JUMPDEST PUSH1 0x0 DUP2 MLOAD SWAP1 POP PUSH2 0x329A DUP2 PUSH2 0x2DAF JUMP JUMPDEST SWAP3 SWAP2 POP POP JUMP JUMPDEST PUSH1 0x0 PUSH1 0x20 DUP3 DUP5 SUB SLT ISZERO PUSH2 0x32B6 JUMPI PUSH2 0x32B5 PUSH2 0x2B07 JUMP JUMPDEST JUMPDEST PUSH1 0x0 PUSH2 0x32C4 DUP5 DUP3 DUP6 ADD PUSH2 0x328B JUMP JUMPDEST SWAP2 POP POP SWAP3 SWAP2 POP POP JUMP JUMPDEST PUSH32 0x45524332303A20617070726F76652066726F6D20746865207A65726F20616464 PUSH1 0x0 DUP3 ADD MSTORE PUSH32 0x7265737300000000000000000000000000000000000000000000000000000000 PUSH1 0x20 DUP3 ADD MSTORE POP JUMP JUMPDEST PUSH1 0x0 PUSH2 0x3329 PUSH1 0x24 DUP4 PUSH2 0x2A57 JUMP JUMPDEST SWAP2 POP PUSH2 0x3334 DUP3 PUSH2 0x32CD JUMP JUMPDEST PUSH1 0x40 DUP3 ADD SWAP1 POP SWAP2 SWAP1 POP JUMP JUMPDEST PUSH1 0x0 PUSH1 0x20 DUP3 ADD SWAP1 POP DUP2 DUP2 SUB PUSH1 0x0 DUP4 ADD MSTORE PUSH2 0x3358 DUP2 PUSH2 0x331C JUMP JUMPDEST SWAP1 POP SWAP2 SWAP1 POP JUMP JUMPDEST PUSH32 0x45524332303A20617070726F766520746F20746865207A65726F206164647265 PUSH1 0x0 DUP3 ADD MSTORE PUSH32 0x7373000000000000000000000000000000000000000000000000000000000000 PUSH1 0x20 DUP3 ADD MSTORE POP JUMP JUMPDEST PUSH1 0x0 PUSH2 0x33BB PUSH1 0x22 DUP4 PUSH2 0x2A57 JUMP JUMPDEST SWAP2 POP PUSH2 0x33C6 DUP3 PUSH2 0x335F JUMP JUMPDEST PUSH1 0x40 DUP3 ADD SWAP1 POP SWAP2 SWAP1 POP JUMP JUMPDEST PUSH1 0x0 PUSH1 0x20 DUP3 ADD SWAP1 POP DUP2 DUP2 SUB PUSH1 0x0 DUP4 ADD MSTORE PUSH2 0x33EA DUP2 PUSH2 0x33AE JUMP JUMPDEST SWAP1 POP SWAP2 SWAP1 POP JUMP JUMPDEST PUSH32 0x45524332303A207472616E736665722066726F6D20746865207A65726F206164 PUSH1 0x0 DUP3 ADD MSTORE PUSH32 0x6472657373000000000000000000000000000000000000000000000000000000 PUSH1 0x20 DUP3 ADD MSTORE POP JUMP JUMPDEST PUSH1 0x0 PUSH2 0x344D PUSH1 0x25 DUP4 PUSH2 0x2A57 JUMP JUMPDEST SWAP2 POP PUSH2 0x3458 DUP3 PUSH2 0x33F1 JUMP JUMPDEST PUSH1 0x40 DUP3 ADD SWAP1 POP SWAP2 SWAP1 POP JUMP JUMPDEST PUSH1 0x0 PUSH1 0x20 DUP3 ADD SWAP1 POP DUP2 DUP2 SUB PUSH1 0x0 DUP4 ADD MSTORE PUSH2 0x347C DUP2 PUSH2 0x3440 JUMP JUMPDEST SWAP1 POP SWAP2 SWAP1 POP JUMP JUMPDEST PUSH32 0x45524332303A207472616E7366657220746F20746865207A65726F2061646472 PUSH1 0x0 DUP3 ADD MSTORE PUSH32 0x6573730000000000000000000000000000000000000000000000000000000000 PUSH1 0x20 DUP3 ADD MSTORE POP JUMP JUMPDEST PUSH1 0x0 PUSH2 0x34DF PUSH1 0x23 DUP4 PUSH2 0x2A57 JUMP JUMPDEST SWAP2 POP PUSH2 0x34EA DUP3 PUSH2 0x3483 JUMP JUMPDEST PUSH1 0x40 DUP3 ADD SWAP1 POP SWAP2 SWAP1 POP JUMP JUMPDEST PUSH1 0x0 PUSH1 0x20 DUP3 ADD SWAP1 POP DUP2 DUP2 SUB PUSH1 0x0 DUP4 ADD MSTORE PUSH2 0x350E DUP2 PUSH2 0x34D2 JUMP JUMPDEST SWAP1 POP SWAP2 SWAP1 POP JUMP JUMPDEST PUSH32 0x5472616E7366657220616D6F756E74206D757374206265206772656174657220 PUSH1 0x0 DUP3 ADD MSTORE PUSH32 0x7468616E207A65726F0000000000000000000000000000000000000000000000 PUSH1 0x20 DUP3 ADD MSTORE POP JUMP JUMPDEST PUSH1 0x0 PUSH2 0x3571 PUSH1 0x29 DUP4 PUSH2 0x2A57 JUMP JUMPDEST SWAP2 POP PUSH2 0x357C DUP3 PUSH2 0x3515 JUMP JUMPDEST PUSH1 0x40 DUP3 ADD SWAP1 POP SWAP2 SWAP1 POP JUMP JUMPDEST PUSH1 0x0 PUSH1 0x20 DUP3 ADD SWAP1 POP DUP2 DUP2 SUB PUSH1 0x0 DUP4 ADD MSTORE PUSH2 0x35A0 DUP2 PUSH2 0x3564 JUMP JUMPDEST SWAP1 POP SWAP2 SWAP1 POP JUMP JUMPDEST PUSH1 0x0 PUSH2 0x35B2 DUP3 PUSH2 0x2B6F JUMP JUMPDEST SWAP2 POP PUSH2 0x35BD DUP4 PUSH2 0x2B6F JUMP JUMPDEST SWAP3 POP DUP3 DUP3 LT ISZERO PUSH2 0x35D0 JUMPI PUSH2 0x35CF PUSH2 0x31EB JUMP JUMPDEST JUMPDEST DUP3 DUP3 SUB SWAP1 POP SWAP3 SWAP2 POP POP JUMP JUMPDEST PUSH32 0x416D6F756E74206D757374206265206C657373207468616E20746F74616C2072 PUSH1 0x0 DUP3 ADD MSTORE PUSH32 0x65666C656374696F6E7300000000000000000000000000000000000000000000 PUSH1 0x20 DUP3 ADD MSTORE POP JUMP JUMPDEST PUSH1 0x0 PUSH2 0x3637 PUSH1 0x2A DUP4 PUSH2 0x2A57 JUMP JUMPDEST SWAP2 POP PUSH2 0x3642 DUP3 PUSH2 0x35DB JUMP JUMPDEST PUSH1 0x40 DUP3 ADD SWAP1 POP SWAP2 SWAP1 POP JUMP JUMPDEST PUSH1 0x0 PUSH1 0x20 DUP3 ADD SWAP1 POP DUP2 DUP2 SUB PUSH1 0x0 DUP4 ADD MSTORE PUSH2 0x3666 DUP2 PUSH2 0x362A JUMP JUMPDEST SWAP1 POP SWAP2 SWAP1 POP JUMP JUMPDEST PUSH32 0x4E487B7100000000000000000000000000000000000000000000000000000000 PUSH1 0x0 MSTORE PUSH1 0x41 PUSH1 0x4 MSTORE PUSH1 0x24 PUSH1 0x0 REVERT JUMPDEST PUSH1 0x0 DUP2 MLOAD SWAP1 POP PUSH2 0x36AB DUP2 PUSH2 0x2B43 JUMP JUMPDEST SWAP3 SWAP2 POP POP JUMP JUMPDEST PUSH1 0x0 PUSH1 0x20 DUP3 DUP5 SUB SLT ISZERO PUSH2 0x36C7 JUMPI PUSH2 0x36C6 PUSH2 0x2B07 JUMP JUMPDEST JUMPDEST PUSH1 0x0 PUSH2 0x36D5 DUP5 DUP3 DUP6 ADD PUSH2 0x369C JUMP JUMPDEST SWAP2 POP POP SWAP3 SWAP2 POP POP JUMP JUMPDEST PUSH1 0x0 DUP2 SWAP1 POP SWAP2 SWAP1 POP JUMP JUMPDEST PUSH1 0x0 PUSH2 0x3703 PUSH2 0x36FE PUSH2 0x36F9 DUP5 PUSH2 0x36DE JUMP JUMPDEST PUSH2 0x2C1B JUMP JUMPDEST PUSH2 0x2B6F JUMP JUMPDEST SWAP1 POP SWAP2 SWAP1 POP JUMP JUMPDEST PUSH2 0x3713 DUP2 PUSH2 0x36E8 JUMP JUMPDEST DUP3 MSTORE POP POP JUMP JUMPDEST PUSH1 0x0 DUP2 MLOAD SWAP1 POP SWAP2 SWAP1 POP JUMP JUMPDEST PUSH1 0x0 DUP3 DUP3 MSTORE PUSH1 0x20 DUP3 ADD SWAP1 POP SWAP3 SWAP2 POP POP JUMP JUMPDEST PUSH1 0x0 DUP2 SWAP1 POP PUSH1 0x20 DUP3 ADD SWAP1 POP SWAP2 SWAP1 POP JUMP JUMPDEST PUSH2 0x374E DUP2 PUSH2 0x2B31 JUMP JUMPDEST DUP3 MSTORE POP POP JUMP JUMPDEST PUSH1 0x0 PUSH2 0x3760 DUP4 DUP4 PUSH2 0x3745 JUMP JUMPDEST PUSH1 0x20 DUP4 ADD SWAP1 POP SWAP3 SWAP2 POP POP JUMP JUMPDEST PUSH1 0x0 PUSH1 0x20 DUP3 ADD SWAP1 POP SWAP2 SWAP1 POP JUMP JUMPDEST PUSH1 0x0 PUSH2 0x3784 DUP3 PUSH2 0x3719 JUMP JUMPDEST PUSH2 0x378E DUP2 DUP6 PUSH2 0x3724 JUMP JUMPDEST SWAP4 POP PUSH2 0x3799 DUP4 PUSH2 0x3735 JUMP JUMPDEST DUP1 PUSH1 0x0 JUMPDEST DUP4 DUP2 LT ISZERO PUSH2 0x37CA JUMPI DUP2 MLOAD PUSH2 0x37B1 DUP9 DUP3 PUSH2 0x3754 JUMP JUMPDEST SWAP8 POP PUSH2 0x37BC DUP4 PUSH2 0x376C JUMP JUMPDEST SWAP3 POP POP PUSH1 0x1 DUP2 ADD SWAP1 POP PUSH2 0x379D JUMP JUMPDEST POP DUP6 SWAP4 POP POP POP POP SWAP3 SWAP2 POP POP JUMP JUMPDEST PUSH1 0x0 PUSH1 0xA0 DUP3 ADD SWAP1 POP PUSH2 0x37EC PUSH1 0x0 DUP4 ADD DUP9 PUSH2 0x2C95 JUMP JUMPDEST PUSH2 0x37F9 PUSH1 0x20 DUP4 ADD DUP8 PUSH2 0x370A JUMP JUMPDEST DUP2 DUP2 SUB PUSH1 0x40 DUP4 ADD MSTORE PUSH2 0x380B DUP2 DUP7 PUSH2 0x3779 JUMP JUMPDEST SWAP1 POP PUSH2 0x381A PUSH1 0x60 DUP4 ADD DUP6 PUSH2 0x2D49 JUMP JUMPDEST PUSH2 0x3827 PUSH1 0x80 DUP4 ADD DUP5 PUSH2 0x2C95 JUMP JUMPDEST SWAP7 SWAP6 POP POP POP POP POP POP JUMP JUMPDEST PUSH32 0x4E487B7100000000000000000000000000000000000000000000000000000000 PUSH1 0x0 MSTORE PUSH1 0x12 PUSH1 0x4 MSTORE PUSH1 0x24 PUSH1 0x0 REVERT JUMPDEST PUSH1 0x0 PUSH2 0x386B DUP3 PUSH2 0x2B6F JUMP JUMPDEST SWAP2 POP PUSH2 0x3876 DUP4 PUSH2 0x2B6F JUMP JUMPDEST SWAP3 POP DUP3 PUSH2 0x3886 JUMPI PUSH2 0x3885 PUSH2 0x3831 JUMP JUMPDEST JUMPDEST DUP3 DUP3 DIV SWAP1 POP SWAP3 SWAP2 POP POP JUMP JUMPDEST PUSH1 0x0 PUSH2 0x389C DUP3 PUSH2 0x2B6F JUMP JUMPDEST SWAP2 POP PUSH2 0x38A7 DUP4 PUSH2 0x2B6F JUMP JUMPDEST SWAP3 POP DUP3 PUSH32 0xFFFFFFFFFFFFFFFFFFFFFFFFFFFFFFFFFFFFFFFFFFFFFFFFFFFFFFFFFFFFFFFF SUB DUP3 GT ISZERO PUSH2 0x38DC JUMPI PUSH2 0x38DB PUSH2 0x31EB JUMP JUMPDEST JUMPDEST DUP3 DUP3 ADD SWAP1 POP SWAP3 SWAP2 POP POP JUMP JUMPDEST PUSH32 0x536166654D6174683A206164646974696F6E206F766572666C6F770000000000 PUSH1 0x0 DUP3 ADD MSTORE POP JUMP JUMPDEST PUSH1 0x0 PUSH2 0x391D PUSH1 0x1B DUP4 PUSH2 0x2A57 JUMP JUMPDEST SWAP2 POP PUSH2 0x3928 DUP3 PUSH2 0x38E7 JUMP JUMPDEST PUSH1 0x20 DUP3 ADD SWAP1 POP SWAP2 SWAP1 POP JUMP JUMPDEST PUSH1 0x0 PUSH1 0x20 DUP3 ADD SWAP1 POP DUP2 DUP2 SUB PUSH1 0x0 DUP4 ADD MSTORE PUSH2 0x394C DUP2 PUSH2 0x3910 JUMP JUMPDEST SWAP1 POP SWAP2 SWAP1 POP JUMP JUMPDEST PUSH1 0x0 PUSH2 0x395E DUP3 PUSH2 0x2B6F JUMP JUMPDEST SWAP2 POP PUSH2 0x3969 DUP4 PUSH2 0x2B6F JUMP JUMPDEST SWAP3 POP DUP2 PUSH32 0xFFFFFFFFFFFFFFFFFFFFFFFFFFFFFFFFFFFFFFFFFFFFFFFFFFFFFFFFFFFFFFFF DIV DUP4 GT DUP3 ISZERO ISZERO AND ISZERO PUSH2 0x39A2 JUMPI PUSH2 0x39A1 PUSH2 0x31EB JUMP JUMPDEST JUMPDEST DUP3 DUP3 MUL SWAP1 POP SWAP3 SWAP2 POP POP JUMP JUMPDEST PUSH32 0x536166654D6174683A206D756C7469706C69636174696F6E206F766572666C6F PUSH1 0x0 DUP3 ADD MSTORE PUSH32 0x7700000000000000000000000000000000000000000000000000000000000000 PUSH1 0x20 DUP3 ADD MSTORE POP JUMP JUMPDEST PUSH1 0x0 PUSH2 0x3A09 PUSH1 0x21 DUP4 PUSH2 0x2A57 JUMP JUMPDEST SWAP2 POP PUSH2 0x3A14 DUP3 PUSH2 0x39AD JUMP JUMPDEST PUSH1 0x40 DUP3 ADD SWAP1 POP SWAP2 SWAP1 POP JUMP JUMPDEST PUSH1 0x0 PUSH1 0x20 DUP3 ADD SWAP1 POP DUP2 DUP2 SUB PUSH1 0x0 DUP4 ADD MSTORE PUSH2 0x3A38 DUP2 PUSH2 0x39FC JUMP JUMPDEST SWAP1 POP SWAP2 SWAP1 POP JUMP INVALID GASLIMIT MSTORE NUMBER ORIGIN ADDRESS GASPRICE KECCAK256 PUSH21 0x72616E7366657220616D6F756E7420657863656564 PUSH20 0x20616C6C6F77616E6365A2646970667358221220 0x4F 0x1E MUL MSTORE PUSH1 0x85 0xD9 0xDA PUSH22 0x9C6CA6A7429B9048D64A1431F7E262C23E32E6AC8E6B 0xAF PUSH5 0x736F6C6343 STOP ADDMOD 0xD STOP CALLER "
				},
				"gasEstimates": {
					"creation": {
						"codeDepositCost": "3001000",
						"executionCost": "infinite",
						"totalCost": "infinite"
					},
					"external": {
						"allowance(address,address)": "infinite",
						"approve(address,uint256)": "infinite",
						"balanceOf(address)": "infinite",
						"decimals()": "366",
						"excludeMultipleAccountsFromFees(address[],bool)": "infinite",
						"manualsend()": "infinite",
						"manualswap()": "infinite",
						"name()": "infinite",
						"owner()": "2589",
						"renounceOwnership()": "30314",
						"rescueForeignTokens(address,address,uint256)": "infinite",
						"setFee(uint256,uint256,uint256,uint256)": "infinite",
						"setNewDevAddress(address)": "infinite",
						"setNewMarketingAddress(address)": "infinite",
						"settingPair()": "2659",
						"symbol()": "infinite",
						"toggleSwap(bool)": "infinite",
						"totalSupply()": "449",
						"transfer(address,uint256)": "infinite",
						"transferFrom(address,address,uint256)": "infinite",
						"transferOwnership(address)": "30734",
						"uniswapV2Factory()": "infinite",
						"uniswapV2Pair()": "2559",
						"uniswapV2Router()": "infinite"
					},
					"internal": {
						"_approve(address,address,uint256)": "infinite",
						"_getCurrentSupply()": "infinite",
						"_getRValues(uint256,uint256,uint256,uint256)": "infinite",
						"_getRate()": "infinite",
						"_getTValues(uint256,uint256,uint256)": "infinite",
						"_getValues(uint256)": "infinite",
						"_reflectFee(uint256,uint256)": "infinite",
						"_takeTeam(uint256)": "infinite",
						"_tokenTransfer(address,address,uint256)": "infinite",
						"_transfer(address,address,uint256)": "infinite",
						"_transferStandard(address,address,uint256)": "infinite",
						"sendETHToFee(uint256)": "infinite",
						"swapTokensForEth(uint256)": "infinite",
						"tokenFromReflection(uint256)": "infinite"
					}
				},
				"methodIdentifiers": {
					"allowance(address,address)": "dd62ed3e",
					"approve(address,uint256)": "095ea7b3",
					"balanceOf(address)": "70a08231",
					"decimals()": "313ce567",
					"excludeMultipleAccountsFromFees(address[],bool)": "c492f046",
					"manualsend()": "6fc3eaec",
					"manualswap()": "c3c8cd80",
					"name()": "06fdde03",
					"owner()": "8da5cb5b",
					"renounceOwnership()": "715018a6",
					"rescueForeignTokens(address,address,uint256)": "e293d316",
					"setFee(uint256,uint256,uint256,uint256)": "a2a957bb",
					"setNewDevAddress(address)": "aad5c023",
					"setNewMarketingAddress(address)": "758dbe03",
					"settingPair()": "05a272ea",
					"symbol()": "95d89b41",
					"toggleSwap(bool)": "6d8aa8f8",
					"totalSupply()": "18160ddd",
					"transfer(address,uint256)": "a9059cbb",
					"transferFrom(address,address,uint256)": "23b872dd",
					"transferOwnership(address)": "f2fde38b",
					"uniswapV2Factory()": "59d0f713",
					"uniswapV2Pair()": "49bd5a5e",
					"uniswapV2Router()": "1694505e"
				}
			},
			"storageLayout": {
				"storage": [
					{
						"astId": 305,
						"contract": "contracts/Pool/Pool.sol:World_Step",
						"label": "_owner",
						"offset": 0,
						"slot": "0",
						"type": "t_address"
					},
					{
						"astId": 307,
						"contract": "contracts/Pool/Pool.sol:World_Step",
						"label": "_previousOwner",
						"offset": 0,
						"slot": "1",
						"type": "t_address"
					},
					{
						"astId": 406,
						"contract": "contracts/Pool/Pool.sol:World_Step",
						"label": "_rOwned",
						"offset": 0,
						"slot": "2",
						"type": "t_mapping(t_address,t_uint256)"
					},
					{
						"astId": 410,
						"contract": "contracts/Pool/Pool.sol:World_Step",
						"label": "_tOwned",
						"offset": 0,
						"slot": "3",
						"type": "t_mapping(t_address,t_uint256)"
					},
					{
						"astId": 416,
						"contract": "contracts/Pool/Pool.sol:World_Step",
						"label": "_allowances",
						"offset": 0,
						"slot": "4",
						"type": "t_mapping(t_address,t_mapping(t_address,t_uint256))"
					},
					{
						"astId": 420,
						"contract": "contracts/Pool/Pool.sol:World_Step",
						"label": "_isExcludedFromFee",
						"offset": 0,
						"slot": "5",
						"type": "t_mapping(t_address,t_bool)"
					},
					{
						"astId": 451,
						"contract": "contracts/Pool/Pool.sol:World_Step",
						"label": "_rTotal",
						"offset": 0,
						"slot": "6",
						"type": "t_uint256"
					},
					{
						"astId": 453,
						"contract": "contracts/Pool/Pool.sol:World_Step",
						"label": "_tFeeTotal",
						"offset": 0,
						"slot": "7",
						"type": "t_uint256"
					},
					{
						"astId": 456,
						"contract": "contracts/Pool/Pool.sol:World_Step",
						"label": "_redisFeeOnBuy",
						"offset": 0,
						"slot": "8",
						"type": "t_uint256"
					},
					{
						"astId": 459,
						"contract": "contracts/Pool/Pool.sol:World_Step",
						"label": "_taxFeeOnBuy",
						"offset": 0,
						"slot": "9",
						"type": "t_uint256"
					},
					{
						"astId": 462,
						"contract": "contracts/Pool/Pool.sol:World_Step",
						"label": "_redisFeeOnSell",
						"offset": 0,
						"slot": "10",
						"type": "t_uint256"
					},
					{
						"astId": 465,
						"contract": "contracts/Pool/Pool.sol:World_Step",
						"label": "_taxFeeOnSell",
						"offset": 0,
						"slot": "11",
						"type": "t_uint256"
					},
					{
						"astId": 467,
						"contract": "contracts/Pool/Pool.sol:World_Step",
						"label": "_redisFee",
						"offset": 0,
						"slot": "12",
						"type": "t_uint256"
					},
					{
						"astId": 469,
						"contract": "contracts/Pool/Pool.sol:World_Step",
						"label": "_taxFee",
						"offset": 0,
						"slot": "13",
						"type": "t_uint256"
					},
					{
						"astId": 484,
						"contract": "contracts/Pool/Pool.sol:World_Step",
						"label": "_developmentAddress",
						"offset": 0,
						"slot": "14",
						"type": "t_address_payable"
					},
					{
						"astId": 490,
						"contract": "contracts/Pool/Pool.sol:World_Step",
						"label": "_marketingAddress",
						"offset": 0,
						"slot": "15",
						"type": "t_address_payable"
					},
					{
						"astId": 493,
						"contract": "contracts/Pool/Pool.sol:World_Step",
						"label": "uniswapV2Router",
						"offset": 0,
						"slot": "16",
						"type": "t_contract(IUniswapV2Router02)145"
					},
					{
						"astId": 496,
						"contract": "contracts/Pool/Pool.sol:World_Step",
						"label": "uniswapV2Factory",
						"offset": 0,
						"slot": "17",
						"type": "t_contract(IUniswapV2Factory)99"
					},
					{
						"astId": 498,
						"contract": "contracts/Pool/Pool.sol:World_Step",
						"label": "uniswapV2Pair",
						"offset": 0,
						"slot": "18",
						"type": "t_address"
					},
					{
						"astId": 501,
						"contract": "contracts/Pool/Pool.sol:World_Step",
						"label": "inSwap",
						"offset": 20,
						"slot": "18",
						"type": "t_bool"
					},
					{
						"astId": 504,
						"contract": "contracts/Pool/Pool.sol:World_Step",
						"label": "swapEnabled",
						"offset": 21,
						"slot": "18",
						"type": "t_bool"
					}
				],
				"types": {
					"t_address": {
						"encoding": "inplace",
						"label": "address",
						"numberOfBytes": "20"
					},
					"t_address_payable": {
						"encoding": "inplace",
						"label": "address payable",
						"numberOfBytes": "20"
					},
					"t_bool": {
						"encoding": "inplace",
						"label": "bool",
						"numberOfBytes": "1"
					},
					"t_contract(IUniswapV2Factory)99": {
						"encoding": "inplace",
						"label": "contract IUniswapV2Factory",
						"numberOfBytes": "20"
					},
					"t_contract(IUniswapV2Router02)145": {
						"encoding": "inplace",
						"label": "contract IUniswapV2Router02",
						"numberOfBytes": "20"
					},
					"t_mapping(t_address,t_bool)": {
						"encoding": "mapping",
						"key": "t_address",
						"label": "mapping(address => bool)",
						"numberOfBytes": "32",
						"value": "t_bool"
					},
					"t_mapping(t_address,t_mapping(t_address,t_uint256))": {
						"encoding": "mapping",
						"key": "t_address",
						"label": "mapping(address => mapping(address => uint256))",
						"numberOfBytes": "32",
						"value": "t_mapping(t_address,t_uint256)"
					},
					"t_mapping(t_address,t_uint256)": {
						"encoding": "mapping",
						"key": "t_address",
						"label": "mapping(address => uint256)",
						"numberOfBytes": "32",
						"value": "t_uint256"
					},
					"t_uint256": {
						"encoding": "inplace",
						"label": "uint256",
						"numberOfBytes": "32"
					}
				}
			},
			"userdoc": {
				"kind": "user",
				"methods": {},
				"version": 1
			}
		}
	}
}