{
	"contracts/Pool/Pool.sol": {
		"World_Step": {
			"abi": [
				{
					"inputs": [],
					"stateMutability": "nonpayable",
					"type": "constructor"
				},
				{
					"anonymous": false,
					"inputs": [
						{
							"indexed": true,
							"internalType": "address",
							"name": "owner",
							"type": "address"
						},
						{
							"indexed": true,
							"internalType": "address",
							"name": "spender",
							"type": "address"
						},
						{
							"indexed": false,
							"internalType": "uint256",
							"name": "value",
							"type": "uint256"
						}
					],
					"name": "Approval",
					"type": "event"
				},
				{
					"anonymous": false,
					"inputs": [
						{
							"indexed": true,
							"internalType": "address",
							"name": "previousOwner",
							"type": "address"
						},
						{
							"indexed": true,
							"internalType": "address",
							"name": "newOwner",
							"type": "address"
						}
					],
					"name": "OwnershipTransferred",
					"type": "event"
				},
				{
					"anonymous": false,
					"inputs": [
						{
							"indexed": true,
							"internalType": "address",
							"name": "from",
							"type": "address"
						},
						{
							"indexed": true,
							"internalType": "address",
							"name": "to",
							"type": "address"
						},
						{
							"indexed": false,
							"internalType": "uint256",
							"name": "value",
							"type": "uint256"
						}
					],
					"name": "Transfer",
					"type": "event"
				},
				{
					"anonymous": false,
					"inputs": [
						{
							"indexed": true,
							"internalType": "address",
							"name": "previous",
							"type": "address"
						},
						{
							"indexed": true,
							"internalType": "address",
							"name": "adr",
							"type": "address"
						}
					],
					"name": "devAddressUpdated",
					"type": "event"
				},
				{
					"anonymous": false,
					"inputs": [
						{
							"indexed": true,
							"internalType": "address",
							"name": "previous",
							"type": "address"
						},
						{
							"indexed": true,
							"internalType": "address",
							"name": "adr",
							"type": "address"
						}
					],
					"name": "marketingAddressUpdated",
					"type": "event"
				},
				{
					"anonymous": false,
					"inputs": [
						{
							"indexed": true,
							"internalType": "address",
							"name": "token",
							"type": "address"
						},
						{
							"indexed": true,
							"internalType": "address",
							"name": "to",
							"type": "address"
						},
						{
							"indexed": false,
							"internalType": "uint256",
							"name": "amount",
							"type": "uint256"
						}
					],
					"name": "tokensRescued",
					"type": "event"
				},
				{
					"inputs": [],
					"name": "_factory",
					"outputs": [
						{
							"internalType": "address",
							"name": "",
							"type": "address"
						}
					],
					"stateMutability": "view",
					"type": "function"
				},
				{
					"inputs": [
						{
							"internalType": "address",
							"name": "owner",
							"type": "address"
						},
						{
							"internalType": "address",
							"name": "spender",
							"type": "address"
						}
					],
					"name": "allowance",
					"outputs": [
						{
							"internalType": "uint256",
							"name": "",
							"type": "uint256"
						}
					],
					"stateMutability": "view",
					"type": "function"
				},
				{
					"inputs": [
						{
							"internalType": "address",
							"name": "spender",
							"type": "address"
						},
						{
							"internalType": "uint256",
							"name": "amount",
							"type": "uint256"
						}
					],
					"name": "approve",
					"outputs": [
						{
							"internalType": "bool",
							"name": "",
							"type": "bool"
						}
					],
					"stateMutability": "nonpayable",
					"type": "function"
				},
				{
					"inputs": [
						{
							"internalType": "address",
							"name": "account",
							"type": "address"
						}
					],
					"name": "balanceOf",
					"outputs": [
						{
							"internalType": "uint256",
							"name": "",
							"type": "uint256"
						}
					],
					"stateMutability": "view",
					"type": "function"
				},
				{
					"inputs": [],
					"name": "decimals",
					"outputs": [
						{
							"internalType": "uint8",
							"name": "",
							"type": "uint8"
						}
					],
					"stateMutability": "pure",
					"type": "function"
				},
				{
					"inputs": [
						{
							"internalType": "address[]",
							"name": "accounts",
							"type": "address[]"
						},
						{
							"internalType": "bool",
							"name": "excluded",
							"type": "bool"
						}
					],
					"name": "excludeMultipleAccountsFromFees",
					"outputs": [],
					"stateMutability": "nonpayable",
					"type": "function"
				},
				{
					"inputs": [],
					"name": "manualsend",
					"outputs": [],
					"stateMutability": "nonpayable",
					"type": "function"
				},
				{
					"inputs": [],
					"name": "manualswap",
					"outputs": [],
					"stateMutability": "nonpayable",
					"type": "function"
				},
				{
					"inputs": [],
					"name": "name",
					"outputs": [
						{
							"internalType": "string",
							"name": "",
							"type": "string"
						}
					],
					"stateMutability": "pure",
					"type": "function"
				},
				{
					"inputs": [],
					"name": "owner",
					"outputs": [
						{
							"internalType": "address",
							"name": "",
							"type": "address"
						}
					],
					"stateMutability": "view",
					"type": "function"
				},
				{
					"inputs": [],
					"name": "renounceOwnership",
					"outputs": [],
					"stateMutability": "nonpayable",
					"type": "function"
				},
				{
					"inputs": [
						{
							"internalType": "address",
							"name": "_tokenAddr",
							"type": "address"
						},
						{
							"internalType": "address",
							"name": "_to",
							"type": "address"
						},
						{
							"internalType": "uint256",
							"name": "_amount",
							"type": "uint256"
						}
					],
					"name": "rescueForeignTokens",
					"outputs": [],
					"stateMutability": "nonpayable",
					"type": "function"
				},
				{
					"inputs": [
						{
							"internalType": "uint256",
							"name": "redisFeeOnBuy",
							"type": "uint256"
						},
						{
							"internalType": "uint256",
							"name": "redisFeeOnSell",
							"type": "uint256"
						},
						{
							"internalType": "uint256",
							"name": "taxFeeOnBuy",
							"type": "uint256"
						},
						{
							"internalType": "uint256",
							"name": "taxFeeOnSell",
							"type": "uint256"
						}
					],
					"name": "setFee",
					"outputs": [],
					"stateMutability": "nonpayable",
					"type": "function"
				},
				{
					"inputs": [
						{
							"internalType": "address payable",
							"name": "dev",
							"type": "address"
						}
					],
					"name": "setNewDevAddress",
					"outputs": [],
					"stateMutability": "nonpayable",
					"type": "function"
				},
				{
					"inputs": [
						{
							"internalType": "address payable",
							"name": "markt",
							"type": "address"
						}
					],
					"name": "setNewMarketingAddress",
					"outputs": [],
					"stateMutability": "nonpayable",
					"type": "function"
				},
				{
					"inputs": [
						{
							"internalType": "address",
							"name": "tokenB",
							"type": "address"
						}
					],
					"name": "settingPair",
					"outputs": [],
					"stateMutability": "nonpayable",
					"type": "function"
				},
				{
					"inputs": [],
					"name": "symbol",
					"outputs": [
						{
							"internalType": "string",
							"name": "",
							"type": "string"
						}
					],
					"stateMutability": "pure",
					"type": "function"
				},
				{
					"inputs": [
						{
							"internalType": "bool",
							"name": "_swapEnabled",
							"type": "bool"
						}
					],
					"name": "toggleSwap",
					"outputs": [],
					"stateMutability": "nonpayable",
					"type": "function"
				},
				{
					"inputs": [],
					"name": "totalSupply",
					"outputs": [
						{
							"internalType": "uint256",
							"name": "",
							"type": "uint256"
						}
					],
					"stateMutability": "pure",
					"type": "function"
				},
				{
					"inputs": [
						{
							"internalType": "address",
							"name": "recipient",
							"type": "address"
						},
						{
							"internalType": "uint256",
							"name": "amount",
							"type": "uint256"
						}
					],
					"name": "transfer",
					"outputs": [
						{
							"internalType": "bool",
							"name": "",
							"type": "bool"
						}
					],
					"stateMutability": "nonpayable",
					"type": "function"
				},
				{
					"inputs": [
						{
							"internalType": "address",
							"name": "sender",
							"type": "address"
						},
						{
							"internalType": "address",
							"name": "recipient",
							"type": "address"
						},
						{
							"internalType": "uint256",
							"name": "amount",
							"type": "uint256"
						}
					],
					"name": "transferFrom",
					"outputs": [
						{
							"internalType": "bool",
							"name": "",
							"type": "bool"
						}
					],
					"stateMutability": "nonpayable",
					"type": "function"
				},
				{
					"inputs": [
						{
							"internalType": "address",
							"name": "newOwner",
							"type": "address"
						}
					],
					"name": "transferOwnership",
					"outputs": [],
					"stateMutability": "nonpayable",
					"type": "function"
				},
				{
					"inputs": [],
					"name": "uniswapV2Factory",
					"outputs": [
						{
							"internalType": "contract IUniswapV2Factory",
							"name": "",
							"type": "address"
						}
					],
					"stateMutability": "view",
					"type": "function"
				},
				{
					"inputs": [],
					"name": "uniswapV2Pair",
					"outputs": [
						{
							"internalType": "address",
							"name": "",
							"type": "address"
						}
					],
					"stateMutability": "view",
					"type": "function"
				},
				{
					"inputs": [],
					"name": "uniswapV2Router",
					"outputs": [
						{
							"internalType": "contract IUniswapV2Router02",
							"name": "",
							"type": "address"
						}
					],
					"stateMutability": "view",
					"type": "function"
				},
				{
					"stateMutability": "payable",
					"type": "receive"
				}
			],
			"devdoc": {
				"kind": "dev",
				"methods": {},
				"version": 1
			},
			"evm": {
				"assembly": "    /* \"contracts/Pool/Pool.sol\":3787:15545  contract World_Step is Context, IERC20, Ownable {... */\n  mstore(0x40, 0x80)\n    /* \"contracts/Pool/Pool.sol\":4200:4213  1*10**9*10**9 */\n  0x0de0b6b3a7640000\n    /* \"contracts/Pool/Pool.sol\":4147:4159  1*10**9*10*9 */\n  0x14f46b0400\n    /* \"contracts/Pool/Pool.sol\":4253:4266  MAX % _tTotal */\n  tag_1\n  swap2\n  swap1\n  tag_2\n  jump\t// in\ntag_1:\n    /* \"contracts/Pool/Pool.sol\":4147:4159  1*10**9*10*9 */\n  0x14f46b0400\n    /* \"contracts/Pool/Pool.sol\":4246:4267  MAX - (MAX % _tTotal) */\n  tag_3\n  swap2\n  swap1\n  tag_4\n  jump\t// in\ntag_3:\n    /* \"contracts/Pool/Pool.sol\":4219:4268  uint256 private _rTotal = (MAX - (MAX % _tTotal)) */\n  0x06\n  sstore\n    /* \"contracts/Pool/Pool.sol\":4344:4345  1 */\n  0x01\n    /* \"contracts/Pool/Pool.sol\":4311:4345  uint256 private _redisFeeOnBuy = 1 */\n  0x08\n  sstore\n    /* \"contracts/Pool/Pool.sol\":4382:4383  4 */\n  0x04\n    /* \"contracts/Pool/Pool.sol\":4351:4383  uint256 private _taxFeeOnBuy = 4 */\n  0x09\n  sstore\n    /* \"contracts/Pool/Pool.sol\":4428:4429  1 */\n  0x01\n    /* \"contracts/Pool/Pool.sol\":4394:4429  uint256 private _redisFeeOnSell = 1 */\n  0x0a\n  sstore\n    /* \"contracts/Pool/Pool.sol\":4467:4468  1 */\n  0x01\n    /* \"contracts/Pool/Pool.sol\":4435:4468  uint256 private _taxFeeOnSell = 1 */\n  0x0b\n  sstore\n    /* \"contracts/Pool/Pool.sol\":4567:4572  false */\n  0x00\n    /* \"contracts/Pool/Pool.sol\":4540:4572  bool private _activePair = false */\n  0x0e\n  exp(0x0100, 0x00)\n  dup2\n  sload\n  dup2\n  0xff\n  mul\n  not\n  and\n  swap1\n  dup4\n  iszero\n  iszero\n  mul\n  or\n  swap1\n  sstore\n  pop\n    /* \"contracts/Pool/Pool.sol\":4779:4821  0x8492cbd894686D7e98214541903c7BA6f94928D6 */\n  0x8492cbd894686d7e98214541903c7ba6f94928d6\n    /* \"contracts/Pool/Pool.sol\":4725:4822  address payable private _developmentAddress = payable(0x8492cbd894686D7e98214541903c7BA6f94928D6) */\n  0x0e\n  exp(0x0100, 0x01)\n  dup2\n  sload\n  dup2\n  0xffffffffffffffffffffffffffffffffffffffff\n  mul\n  not\n  and\n  swap1\n  dup4\n  0xffffffffffffffffffffffffffffffffffffffff\n  and\n  mul\n  or\n  swap1\n  sstore\n  pop\n    /* \"contracts/Pool/Pool.sol\":4880:4922  0xa4eD7aa4eF5deB0A63e97d9Cb77445aE553feb1d */\n  0xa4ed7aa4ef5deb0a63e97d9cb77445ae553feb1d\n    /* \"contracts/Pool/Pool.sol\":4828:4923  address payable private _marketingAddress = payable(0xa4eD7aa4eF5deB0A63e97d9Cb77445aE553feb1d) */\n  0x0f\n  exp(0x0100, 0x00)\n  dup2\n  sload\n  dup2\n  0xffffffffffffffffffffffffffffffffffffffff\n  mul\n  not\n  and\n  swap1\n  dup4\n  0xffffffffffffffffffffffffffffffffffffffff\n  and\n  mul\n  or\n  swap1\n  sstore\n  pop\n    /* \"contracts/Pool/Pool.sol\":5115:5120  false */\n  0x00\n    /* \"contracts/Pool/Pool.sol\":5093:5120  bool private inSwap = false */\n  0x13\n  exp(0x0100, 0x14)\n  dup2\n  sload\n  dup2\n  0xff\n  mul\n  not\n  and\n  swap1\n  dup4\n  iszero\n  iszero\n  mul\n  or\n  swap1\n  sstore\n  pop\n    /* \"contracts/Pool/Pool.sol\":5153:5157  true */\n  0x01\n    /* \"contracts/Pool/Pool.sol\":5126:5157  bool private swapEnabled = true */\n  0x13\n  exp(0x0100, 0x15)\n  dup2\n  sload\n  dup2\n  0xff\n  mul\n  not\n  and\n  swap1\n  dup4\n  iszero\n  iszero\n  mul\n  or\n  swap1\n  sstore\n  pop\n    /* \"contracts/Pool/Pool.sol\":5259:6102  constructor () {... */\n  callvalue\n  dup1\n  iszero\n  tag_5\n  jumpi\n  0x00\n  dup1\n  revert\ntag_5:\n  pop\n    /* \"contracts/Pool/Pool.sol\":3054:3071  address msgSender */\n  0x00\n    /* \"contracts/Pool/Pool.sol\":3074:3086  _msgSender() */\n  tag_9\n    /* \"contracts/Pool/Pool.sol\":3074:3084  _msgSender */\n  shl(0x20, tag_10)\n    /* \"contracts/Pool/Pool.sol\":3074:3086  _msgSender() */\n  0x20\n  shr\n  jump\t// in\ntag_9:\n    /* \"contracts/Pool/Pool.sol\":3054:3086  address msgSender = _msgSender() */\n  swap1\n  pop\n    /* \"contracts/Pool/Pool.sol\":3105:3114  msgSender */\n  dup1\n    /* \"contracts/Pool/Pool.sol\":3096:3102  _owner */\n  0x00\n  dup1\n    /* \"contracts/Pool/Pool.sol\":3096:3114  _owner = msgSender */\n  0x0100\n  exp\n  dup2\n  sload\n  dup2\n  0xffffffffffffffffffffffffffffffffffffffff\n  mul\n  not\n  and\n  swap1\n  dup4\n  0xffffffffffffffffffffffffffffffffffffffff\n  and\n  mul\n  or\n  swap1\n  sstore\n  pop\n    /* \"contracts/Pool/Pool.sol\":3162:3171  msgSender */\n  dup1\n    /* \"contracts/Pool/Pool.sol\":3129:3172  OwnershipTransferred(address(0), msgSender) */\n  0xffffffffffffffffffffffffffffffffffffffff\n  and\n    /* \"contracts/Pool/Pool.sol\":3158:3159  0 */\n  0x00\n    /* \"contracts/Pool/Pool.sol\":3129:3172  OwnershipTransferred(address(0), msgSender) */\n  0xffffffffffffffffffffffffffffffffffffffff\n  and\n  0x8be0079c531659141344cd1fd0a4f28419497f9722a3daafe3b4186f6b6457e0\n  mload(0x40)\n  mload(0x40)\n  dup1\n  swap2\n  sub\n  swap1\n  log3\n    /* \"contracts/Pool/Pool.sol\":3044:3179  {... */\n  pop\n    /* \"contracts/Pool/Pool.sol\":5308:5315  _rTotal */\n  sload(0x06)\n    /* \"contracts/Pool/Pool.sol\":5284:5291  _rOwned */\n  0x02\n    /* \"contracts/Pool/Pool.sol\":5284:5305  _rOwned[_msgSender()] */\n  0x00\n    /* \"contracts/Pool/Pool.sol\":5292:5304  _msgSender() */\n  tag_12\n    /* \"contracts/Pool/Pool.sol\":5292:5302  _msgSender */\n  shl(0x20, tag_10)\n    /* \"contracts/Pool/Pool.sol\":5292:5304  _msgSender() */\n  0x20\n  shr\n  jump\t// in\ntag_12:\n    /* \"contracts/Pool/Pool.sol\":5284:5305  _rOwned[_msgSender()] */\n  0xffffffffffffffffffffffffffffffffffffffff\n  and\n  0xffffffffffffffffffffffffffffffffffffffff\n  and\n  dup2\n  mstore\n  0x20\n  add\n  swap1\n  dup2\n  mstore\n  0x20\n  add\n  0x00\n  keccak256\n    /* \"contracts/Pool/Pool.sol\":5284:5315  _rOwned[_msgSender()] = _rTotal */\n  dup2\n  swap1\n  sstore\n  pop\n    /* \"contracts/Pool/Pool.sol\":5334:5369  IUniswapV2Router02 _uniswapV2Router */\n  0x00\n    /* \"contracts/Pool/Pool.sol\":5399:5441  0x10ED43C718714eb63d5aA57B78B54704E256024E */\n  0x10ed43c718714eb63d5aa57b78b54704e256024e\n    /* \"contracts/Pool/Pool.sol\":5334:5443  IUniswapV2Router02 _uniswapV2Router = IUniswapV2Router02(address(0x10ED43C718714eb63d5aA57B78B54704E256024E)) */\n  swap1\n  pop\n    /* \"contracts/Pool/Pool.sol\":5471:5487  _uniswapV2Router */\n  dup1\n    /* \"contracts/Pool/Pool.sol\":5453:5468  uniswapV2Router */\n  0x10\n  0x00\n    /* \"contracts/Pool/Pool.sol\":5453:5487  uniswapV2Router = _uniswapV2Router */\n  0x0100\n  exp\n  dup2\n  sload\n  dup2\n  0xffffffffffffffffffffffffffffffffffffffff\n  mul\n  not\n  and\n  swap1\n  dup4\n  0xffffffffffffffffffffffffffffffffffffffff\n  and\n  mul\n  or\n  swap1\n  sstore\n  pop\n    /* \"contracts/Pool/Pool.sol\":5542:5584  0xcA143Ce32Fe78f1f7019d7d551a6402fC5350c73 */\n  0xca143ce32fe78f1f7019d7d551a6402fc5350c73\n    /* \"contracts/Pool/Pool.sol\":5497:5513  uniswapV2Factory */\n  0x11\n  0x00\n    /* \"contracts/Pool/Pool.sol\":5497:5586  uniswapV2Factory = IUniswapV2Factory(address(0xcA143Ce32Fe78f1f7019d7d551a6402fC5350c73)) */\n  0x0100\n  exp\n  dup2\n  sload\n  dup2\n  0xffffffffffffffffffffffffffffffffffffffff\n  mul\n  not\n  and\n  swap1\n  dup4\n  0xffffffffffffffffffffffffffffffffffffffff\n  and\n  mul\n  or\n  swap1\n  sstore\n  pop\n    /* \"contracts/Pool/Pool.sol\":5864:5868  true */\n  0x01\n    /* \"contracts/Pool/Pool.sol\":5834:5852  _isExcludedFromFee */\n  0x05\n    /* \"contracts/Pool/Pool.sol\":5834:5861  _isExcludedFromFee[owner()] */\n  0x00\n    /* \"contracts/Pool/Pool.sol\":5853:5860  owner() */\n  tag_13\n    /* \"contracts/Pool/Pool.sol\":5853:5858  owner */\n  shl(0x20, tag_14)\n    /* \"contracts/Pool/Pool.sol\":5853:5860  owner() */\n  0x20\n  shr\n  jump\t// in\ntag_13:\n    /* \"contracts/Pool/Pool.sol\":5834:5861  _isExcludedFromFee[owner()] */\n  0xffffffffffffffffffffffffffffffffffffffff\n  and\n  0xffffffffffffffffffffffffffffffffffffffff\n  and\n  dup2\n  mstore\n  0x20\n  add\n  swap1\n  dup2\n  mstore\n  0x20\n  add\n  0x00\n  keccak256\n  0x00\n    /* \"contracts/Pool/Pool.sol\":5834:5868  _isExcludedFromFee[owner()] = true */\n  0x0100\n  exp\n  dup2\n  sload\n  dup2\n  0xff\n  mul\n  not\n  and\n  swap1\n  dup4\n  iszero\n  iszero\n  mul\n  or\n  swap1\n  sstore\n  pop\n    /* \"contracts/Pool/Pool.sol\":5914:5918  true */\n  0x01\n    /* \"contracts/Pool/Pool.sol\":5878:5896  _isExcludedFromFee */\n  0x05\n    /* \"contracts/Pool/Pool.sol\":5878:5911  _isExcludedFromFee[address(this)] */\n  0x00\n    /* \"contracts/Pool/Pool.sol\":5905:5909  this */\n  address\n    /* \"contracts/Pool/Pool.sol\":5878:5911  _isExcludedFromFee[address(this)] */\n  0xffffffffffffffffffffffffffffffffffffffff\n  and\n  0xffffffffffffffffffffffffffffffffffffffff\n  and\n  dup2\n  mstore\n  0x20\n  add\n  swap1\n  dup2\n  mstore\n  0x20\n  add\n  0x00\n  keccak256\n  0x00\n    /* \"contracts/Pool/Pool.sol\":5878:5918  _isExcludedFromFee[address(this)] = true */\n  0x0100\n  exp\n  dup2\n  sload\n  dup2\n  0xff\n  mul\n  not\n  and\n  swap1\n  dup4\n  iszero\n  iszero\n  mul\n  or\n  swap1\n  sstore\n  pop\n    /* \"contracts/Pool/Pool.sol\":5970:5974  true */\n  0x01\n    /* \"contracts/Pool/Pool.sol\":5928:5946  _isExcludedFromFee */\n  0x05\n    /* \"contracts/Pool/Pool.sol\":5928:5967  _isExcludedFromFee[_developmentAddress] */\n  0x00\n    /* \"contracts/Pool/Pool.sol\":5947:5966  _developmentAddress */\n  0x0e\n  0x01\n  swap1\n  sload\n  swap1\n  0x0100\n  exp\n  swap1\n  div\n  0xffffffffffffffffffffffffffffffffffffffff\n  and\n    /* \"contracts/Pool/Pool.sol\":5928:5967  _isExcludedFromFee[_developmentAddress] */\n  0xffffffffffffffffffffffffffffffffffffffff\n  and\n  0xffffffffffffffffffffffffffffffffffffffff\n  and\n  dup2\n  mstore\n  0x20\n  add\n  swap1\n  dup2\n  mstore\n  0x20\n  add\n  0x00\n  keccak256\n  0x00\n    /* \"contracts/Pool/Pool.sol\":5928:5974  _isExcludedFromFee[_developmentAddress] = true */\n  0x0100\n  exp\n  dup2\n  sload\n  dup2\n  0xff\n  mul\n  not\n  and\n  swap1\n  dup4\n  iszero\n  iszero\n  mul\n  or\n  swap1\n  sstore\n  pop\n    /* \"contracts/Pool/Pool.sol\":6024:6028  true */\n  0x01\n    /* \"contracts/Pool/Pool.sol\":5984:6002  _isExcludedFromFee */\n  0x05\n    /* \"contracts/Pool/Pool.sol\":5984:6021  _isExcludedFromFee[_marketingAddress] */\n  0x00\n    /* \"contracts/Pool/Pool.sol\":6003:6020  _marketingAddress */\n  0x0f\n  0x00\n  swap1\n  sload\n  swap1\n  0x0100\n  exp\n  swap1\n  div\n  0xffffffffffffffffffffffffffffffffffffffff\n  and\n    /* \"contracts/Pool/Pool.sol\":5984:6021  _isExcludedFromFee[_marketingAddress] */\n  0xffffffffffffffffffffffffffffffffffffffff\n  and\n  0xffffffffffffffffffffffffffffffffffffffff\n  and\n  dup2\n  mstore\n  0x20\n  add\n  swap1\n  dup2\n  mstore\n  0x20\n  add\n  0x00\n  keccak256\n  0x00\n    /* \"contracts/Pool/Pool.sol\":5984:6028  _isExcludedFromFee[_marketingAddress] = true */\n  0x0100\n  exp\n  dup2\n  sload\n  dup2\n  0xff\n  mul\n  not\n  and\n  swap1\n  dup4\n  iszero\n  iszero\n  mul\n  or\n  swap1\n  sstore\n  pop\n    /* \"contracts/Pool/Pool.sol\":6073:6085  _msgSender() */\n  tag_15\n    /* \"contracts/Pool/Pool.sol\":6073:6083  _msgSender */\n  shl(0x20, tag_10)\n    /* \"contracts/Pool/Pool.sol\":6073:6085  _msgSender() */\n  0x20\n  shr\n  jump\t// in\ntag_15:\n    /* \"contracts/Pool/Pool.sol\":6052:6095  Transfer(address(0), _msgSender(), _tTotal) */\n  0xffffffffffffffffffffffffffffffffffffffff\n  and\n    /* \"contracts/Pool/Pool.sol\":6069:6070  0 */\n  0x00\n    /* \"contracts/Pool/Pool.sol\":6052:6095  Transfer(address(0), _msgSender(), _tTotal) */\n  0xffffffffffffffffffffffffffffffffffffffff\n  and\n  0xddf252ad1be2c89b69c2b068fc378daa952ba7f163c4a11628f55a4df523b3ef\n    /* \"contracts/Pool/Pool.sol\":4200:4213  1*10**9*10**9 */\n  0x0de0b6b3a7640000\n    /* \"contracts/Pool/Pool.sol\":6052:6095  Transfer(address(0), _msgSender(), _tTotal) */\n  mload(0x40)\n  tag_16\n  swap2\n  swap1\n  tag_17\n  jump\t// in\ntag_16:\n  mload(0x40)\n  dup1\n  swap2\n  sub\n  swap1\n  log3\n    /* \"contracts/Pool/Pool.sol\":5274:6102  {... */\n  pop\n    /* \"contracts/Pool/Pool.sol\":3787:15545  contract World_Step is Context, IERC20, Ownable {... */\n  jump(tag_18)\n    /* \"contracts/Pool/Pool.sol\":1721:1817  function _msgSender() internal view virtual returns (address) {... */\ntag_10:\n    /* \"contracts/Pool/Pool.sol\":1774:1781  address */\n  0x00\n    /* \"contracts/Pool/Pool.sol\":1800:1810  msg.sender */\n  caller\n    /* \"contracts/Pool/Pool.sol\":1793:1810  return msg.sender */\n  swap1\n  pop\n    /* \"contracts/Pool/Pool.sol\":1721:1817  function _msgSender() internal view virtual returns (address) {... */\n  swap1\n  jump\t// out\n    /* \"contracts/Pool/Pool.sol\":3185:3262  function owner() public view returns (address) {... */\ntag_14:\n    /* \"contracts/Pool/Pool.sol\":3223:3230  address */\n  0x00\n    /* \"contracts/Pool/Pool.sol\":3249:3255  _owner */\n  dup1\n  0x00\n  swap1\n  sload\n  swap1\n  0x0100\n  exp\n  swap1\n  div\n  0xffffffffffffffffffffffffffffffffffffffff\n  and\n    /* \"contracts/Pool/Pool.sol\":3242:3255  return _owner */\n  swap1\n  pop\n    /* \"contracts/Pool/Pool.sol\":3185:3262  function owner() public view returns (address) {... */\n  swap1\n  jump\t// out\n    /* \"#utility.yul\":7:84   */\ntag_21:\n    /* \"#utility.yul\":44:51   */\n  0x00\n    /* \"#utility.yul\":73:78   */\n  dup2\n    /* \"#utility.yul\":62:78   */\n  swap1\n  pop\n    /* \"#utility.yul\":7:84   */\n  swap2\n  swap1\n  pop\n  jump\t// out\n    /* \"#utility.yul\":90:270   */\ntag_22:\n    /* \"#utility.yul\":138:215   */\n  0x4e487b7100000000000000000000000000000000000000000000000000000000\n    /* \"#utility.yul\":135:136   */\n  0x00\n    /* \"#utility.yul\":128:216   */\n  mstore\n    /* \"#utility.yul\":235:239   */\n  0x12\n    /* \"#utility.yul\":232:233   */\n  0x04\n    /* \"#utility.yul\":225:240   */\n  mstore\n    /* \"#utility.yul\":259:263   */\n  0x24\n    /* \"#utility.yul\":256:257   */\n  0x00\n    /* \"#utility.yul\":249:264   */\n  revert\n    /* \"#utility.yul\":276:452   */\ntag_2:\n    /* \"#utility.yul\":308:309   */\n  0x00\n    /* \"#utility.yul\":325:345   */\n  tag_29\n    /* \"#utility.yul\":343:344   */\n  dup3\n    /* \"#utility.yul\":325:345   */\n  tag_21\n  jump\t// in\ntag_29:\n    /* \"#utility.yul\":320:345   */\n  swap2\n  pop\n    /* \"#utility.yul\":359:379   */\n  tag_30\n    /* \"#utility.yul\":377:378   */\n  dup4\n    /* \"#utility.yul\":359:379   */\n  tag_21\n  jump\t// in\ntag_30:\n    /* \"#utility.yul\":354:379   */\n  swap3\n  pop\n    /* \"#utility.yul\":398:399   */\n  dup3\n    /* \"#utility.yul\":388:423   */\n  tag_31\n  jumpi\n    /* \"#utility.yul\":403:421   */\n  tag_32\n  tag_22\n  jump\t// in\ntag_32:\n    /* \"#utility.yul\":388:423   */\ntag_31:\n    /* \"#utility.yul\":444:445   */\n  dup3\n    /* \"#utility.yul\":441:442   */\n  dup3\n    /* \"#utility.yul\":437:446   */\n  mod\n    /* \"#utility.yul\":432:446   */\n  swap1\n  pop\n    /* \"#utility.yul\":276:452   */\n  swap3\n  swap2\n  pop\n  pop\n  jump\t// out\n    /* \"#utility.yul\":458:638   */\ntag_23:\n    /* \"#utility.yul\":506:583   */\n  0x4e487b7100000000000000000000000000000000000000000000000000000000\n    /* \"#utility.yul\":503:504   */\n  0x00\n    /* \"#utility.yul\":496:584   */\n  mstore\n    /* \"#utility.yul\":603:607   */\n  0x11\n    /* \"#utility.yul\":600:601   */\n  0x04\n    /* \"#utility.yul\":593:608   */\n  mstore\n    /* \"#utility.yul\":627:631   */\n  0x24\n    /* \"#utility.yul\":624:625   */\n  0x00\n    /* \"#utility.yul\":617:632   */\n  revert\n    /* \"#utility.yul\":644:835   */\ntag_4:\n    /* \"#utility.yul\":684:688   */\n  0x00\n    /* \"#utility.yul\":704:724   */\n  tag_35\n    /* \"#utility.yul\":722:723   */\n  dup3\n    /* \"#utility.yul\":704:724   */\n  tag_21\n  jump\t// in\ntag_35:\n    /* \"#utility.yul\":699:724   */\n  swap2\n  pop\n    /* \"#utility.yul\":738:758   */\n  tag_36\n    /* \"#utility.yul\":756:757   */\n  dup4\n    /* \"#utility.yul\":738:758   */\n  tag_21\n  jump\t// in\ntag_36:\n    /* \"#utility.yul\":733:758   */\n  swap3\n  pop\n    /* \"#utility.yul\":777:778   */\n  dup3\n    /* \"#utility.yul\":774:775   */\n  dup3\n    /* \"#utility.yul\":771:779   */\n  lt\n    /* \"#utility.yul\":768:802   */\n  iszero\n  tag_37\n  jumpi\n    /* \"#utility.yul\":782:800   */\n  tag_38\n  tag_23\n  jump\t// in\ntag_38:\n    /* \"#utility.yul\":768:802   */\ntag_37:\n    /* \"#utility.yul\":827:828   */\n  dup3\n    /* \"#utility.yul\":824:825   */\n  dup3\n    /* \"#utility.yul\":820:829   */\n  sub\n    /* \"#utility.yul\":812:829   */\n  swap1\n  pop\n    /* \"#utility.yul\":644:835   */\n  swap3\n  swap2\n  pop\n  pop\n  jump\t// out\n    /* \"#utility.yul\":841:959   */\ntag_24:\n    /* \"#utility.yul\":928:952   */\n  tag_40\n    /* \"#utility.yul\":946:951   */\n  dup2\n    /* \"#utility.yul\":928:952   */\n  tag_21\n  jump\t// in\ntag_40:\n    /* \"#utility.yul\":923:926   */\n  dup3\n    /* \"#utility.yul\":916:953   */\n  mstore\n    /* \"#utility.yul\":841:959   */\n  pop\n  pop\n  jump\t// out\n    /* \"#utility.yul\":965:1187   */\ntag_17:\n    /* \"#utility.yul\":1058:1062   */\n  0x00\n    /* \"#utility.yul\":1096:1098   */\n  0x20\n    /* \"#utility.yul\":1085:1094   */\n  dup3\n    /* \"#utility.yul\":1081:1099   */\n  add\n    /* \"#utility.yul\":1073:1099   */\n  swap1\n  pop\n    /* \"#utility.yul\":1109:1180   */\n  tag_42\n    /* \"#utility.yul\":1177:1178   */\n  0x00\n    /* \"#utility.yul\":1166:1175   */\n  dup4\n    /* \"#utility.yul\":1162:1179   */\n  add\n    /* \"#utility.yul\":1153:1159   */\n  dup5\n    /* \"#utility.yul\":1109:1180   */\n  tag_24\n  jump\t// in\ntag_42:\n    /* \"#utility.yul\":965:1187   */\n  swap3\n  swap2\n  pop\n  pop\n  jump\t// out\n    /* \"contracts/Pool/Pool.sol\":3787:15545  contract World_Step is Context, IERC20, Ownable {... */\ntag_18:\n  dataSize(sub_0)\n  dup1\n  dataOffset(sub_0)\n  0x00\n  codecopy\n  0x00\n  return\nstop\n\nsub_0: assembly {\n        /* \"contracts/Pool/Pool.sol\":3787:15545  contract World_Step is Context, IERC20, Ownable {... */\n      mstore(0x40, 0x80)\n      jumpi(tag_1, lt(calldatasize, 0x04))\n      shr(0xe0, calldataload(0x00))\n      dup1\n      0x758dbe03\n      gt\n      tag_28\n      jumpi\n      dup1\n      0xc3c8cd80\n      gt\n      tag_29\n      jumpi\n      dup1\n      0xce4224c5\n      gt\n      tag_30\n      jumpi\n      dup1\n      0xce4224c5\n      eq\n      tag_24\n      jumpi\n      dup1\n      0xdd62ed3e\n      eq\n      tag_25\n      jumpi\n      dup1\n      0xe293d316\n      eq\n      tag_26\n      jumpi\n      dup1\n      0xf2fde38b\n      eq\n      tag_27\n      jumpi\n      jump(tag_2)\n    tag_30:\n      dup1\n      0xc3c8cd80\n      eq\n      tag_21\n      jumpi\n      dup1\n      0xc492f046\n      eq\n      tag_22\n      jumpi\n      dup1\n      0xc5cc6b6a\n      eq\n      tag_23\n      jumpi\n      jump(tag_2)\n    tag_29:\n      dup1\n      0x758dbe03\n      eq\n      tag_15\n      jumpi\n      dup1\n      0x8da5cb5b\n      eq\n      tag_16\n      jumpi\n      dup1\n      0x95d89b41\n      eq\n      tag_17\n      jumpi\n      dup1\n      0xa2a957bb\n      eq\n      tag_18\n      jumpi\n      dup1\n      0xa9059cbb\n      eq\n      tag_19\n      jumpi\n      dup1\n      0xaad5c023\n      eq\n      tag_20\n      jumpi\n      jump(tag_2)\n    tag_28:\n      dup1\n      0x49bd5a5e\n      gt\n      tag_31\n      jumpi\n      dup1\n      0x49bd5a5e\n      eq\n      tag_9\n      jumpi\n      dup1\n      0x59d0f713\n      eq\n      tag_10\n      jumpi\n      dup1\n      0x6d8aa8f8\n      eq\n      tag_11\n      jumpi\n      dup1\n      0x6fc3eaec\n      eq\n      tag_12\n      jumpi\n      dup1\n      0x70a08231\n      eq\n      tag_13\n      jumpi\n      dup1\n      0x715018a6\n      eq\n      tag_14\n      jumpi\n      jump(tag_2)\n    tag_31:\n      dup1\n      0x06fdde03\n      eq\n      tag_3\n      jumpi\n      dup1\n      0x095ea7b3\n      eq\n      tag_4\n      jumpi\n      dup1\n      0x1694505e\n      eq\n      tag_5\n      jumpi\n      dup1\n      0x18160ddd\n      eq\n      tag_6\n      jumpi\n      dup1\n      0x23b872dd\n      eq\n      tag_7\n      jumpi\n      dup1\n      0x313ce567\n      eq\n      tag_8\n      jumpi\n      jump(tag_2)\n    tag_1:\n      jumpi(tag_2, calldatasize)\n      stop\n    tag_2:\n      0x00\n      dup1\n      revert\n        /* \"contracts/Pool/Pool.sol\":6260:6341  function name() public pure returns (string memory) {... */\n    tag_3:\n      callvalue\n      dup1\n      iszero\n      tag_34\n      jumpi\n      0x00\n      dup1\n      revert\n    tag_34:\n      pop\n      tag_35\n      tag_36\n      jump\t// in\n    tag_35:\n      mload(0x40)\n      tag_37\n      swap2\n      swap1\n      tag_38\n      jump\t// in\n    tag_37:\n      mload(0x40)\n      dup1\n      swap2\n      sub\n      swap1\n      return\n        /* \"contracts/Pool/Pool.sol\":7083:7241  function approve(address spender, uint256 amount) public override returns (bool) {... */\n    tag_4:\n      callvalue\n      dup1\n      iszero\n      tag_39\n      jumpi\n      0x00\n      dup1\n      revert\n    tag_39:\n      pop\n      tag_40\n      0x04\n      dup1\n      calldatasize\n      sub\n      dup2\n      add\n      swap1\n      tag_41\n      swap2\n      swap1\n      tag_42\n      jump\t// in\n    tag_41:\n      tag_43\n      jump\t// in\n    tag_40:\n      mload(0x40)\n      tag_44\n      swap2\n      swap1\n      tag_45\n      jump\t// in\n    tag_44:\n      mload(0x40)\n      dup1\n      swap2\n      sub\n      swap1\n      return\n        /* \"contracts/Pool/Pool.sol\":4930:4971  IUniswapV2Router02 public uniswapV2Router */\n    tag_5:\n      callvalue\n      dup1\n      iszero\n      tag_46\n      jumpi\n      0x00\n      dup1\n      revert\n    tag_46:\n      pop\n      tag_47\n      tag_48\n      jump\t// in\n    tag_47:\n      mload(0x40)\n      tag_49\n      swap2\n      swap1\n      tag_50\n      jump\t// in\n    tag_49:\n      mload(0x40)\n      dup1\n      swap2\n      sub\n      swap1\n      return\n        /* \"contracts/Pool/Pool.sol\":6525:6618  function totalSupply() public pure override returns (uint256) {... */\n    tag_6:\n      callvalue\n      dup1\n      iszero\n      tag_51\n      jumpi\n      0x00\n      dup1\n      revert\n    tag_51:\n      pop\n      tag_52\n      tag_53\n      jump\t// in\n    tag_52:\n      mload(0x40)\n      tag_54\n      swap2\n      swap1\n      tag_55\n      jump\t// in\n    tag_54:\n      mload(0x40)\n      dup1\n      swap2\n      sub\n      swap1\n      return\n        /* \"contracts/Pool/Pool.sol\":7247:7556  function transferFrom(address sender, address recipient, uint256 amount) public override returns (bool) {... */\n    tag_7:\n      callvalue\n      dup1\n      iszero\n      tag_56\n      jumpi\n      0x00\n      dup1\n      revert\n    tag_56:\n      pop\n      tag_57\n      0x04\n      dup1\n      calldatasize\n      sub\n      dup2\n      add\n      swap1\n      tag_58\n      swap2\n      swap1\n      tag_59\n      jump\t// in\n    tag_58:\n      tag_60\n      jump\t// in\n    tag_57:\n      mload(0x40)\n      tag_61\n      swap2\n      swap1\n      tag_45\n      jump\t// in\n    tag_61:\n      mload(0x40)\n      dup1\n      swap2\n      sub\n      swap1\n      return\n        /* \"contracts/Pool/Pool.sol\":6438:6519  function decimals() public pure returns (uint8) {... */\n    tag_8:\n      callvalue\n      dup1\n      iszero\n      tag_62\n      jumpi\n      0x00\n      dup1\n      revert\n    tag_62:\n      pop\n      tag_63\n      tag_64\n      jump\t// in\n    tag_63:\n      mload(0x40)\n      tag_65\n      swap2\n      swap1\n      tag_66\n      jump\t// in\n    tag_65:\n      mload(0x40)\n      dup1\n      swap2\n      sub\n      swap1\n      return\n        /* \"contracts/Pool/Pool.sol\":5054:5082  address public uniswapV2Pair */\n    tag_9:\n      callvalue\n      dup1\n      iszero\n      tag_67\n      jumpi\n      0x00\n      dup1\n      revert\n    tag_67:\n      pop\n      tag_68\n      tag_69\n      jump\t// in\n    tag_68:\n      mload(0x40)\n      tag_70\n      swap2\n      swap1\n      tag_71\n      jump\t// in\n    tag_70:\n      mload(0x40)\n      dup1\n      swap2\n      sub\n      swap1\n      return\n        /* \"contracts/Pool/Pool.sol\":4977:5018  IUniswapV2Factory public uniswapV2Factory */\n    tag_10:\n      callvalue\n      dup1\n      iszero\n      tag_72\n      jumpi\n      0x00\n      dup1\n      revert\n    tag_72:\n      pop\n      tag_73\n      tag_74\n      jump\t// in\n    tag_73:\n      mload(0x40)\n      tag_75\n      swap2\n      swap1\n      tag_76\n      jump\t// in\n    tag_75:\n      mload(0x40)\n      dup1\n      swap2\n      sub\n      swap1\n      return\n        /* \"contracts/Pool/Pool.sol\":15210:15307  function toggleSwap(bool _swapEnabled) public onlyDev {... */\n    tag_11:\n      callvalue\n      dup1\n      iszero\n      tag_77\n      jumpi\n      0x00\n      dup1\n      revert\n    tag_77:\n      pop\n      tag_78\n      0x04\n      dup1\n      calldatasize\n      sub\n      dup2\n      add\n      swap1\n      tag_79\n      swap2\n      swap1\n      tag_80\n      jump\t// in\n    tag_79:\n      tag_81\n      jump\t// in\n    tag_78:\n      stop\n        /* \"contracts/Pool/Pool.sol\":14390:14648  function manualsend() external {... */\n    tag_12:\n      callvalue\n      dup1\n      iszero\n      tag_82\n      jumpi\n      0x00\n      dup1\n      revert\n    tag_82:\n      pop\n      tag_83\n      tag_84\n      jump\t// in\n    tag_83:\n      stop\n        /* \"contracts/Pool/Pool.sol\":6624:6760  function balanceOf(address account) public view override returns (uint256) {... */\n    tag_13:\n      callvalue\n      dup1\n      iszero\n      tag_85\n      jumpi\n      0x00\n      dup1\n      revert\n    tag_85:\n      pop\n      tag_86\n      0x04\n      dup1\n      calldatasize\n      sub\n      dup2\n      add\n      swap1\n      tag_87\n      swap2\n      swap1\n      tag_88\n      jump\t// in\n    tag_87:\n      tag_89\n      jump\t// in\n    tag_86:\n      mload(0x40)\n      tag_90\n      swap2\n      swap1\n      tag_55\n      jump\t// in\n    tag_90:\n      mload(0x40)\n      dup1\n      swap2\n      sub\n      swap1\n      return\n        /* \"contracts/Pool/Pool.sol\":3381:3526  function renounceOwnership() public virtual onlyOwner {... */\n    tag_14:\n      callvalue\n      dup1\n      iszero\n      tag_91\n      jumpi\n      0x00\n      dup1\n      revert\n    tag_91:\n      pop\n      tag_92\n      tag_93\n      jump\t// in\n    tag_92:\n      stop\n        /* \"contracts/Pool/Pool.sol\":11339:11572  function setNewMarketingAddress(address payable markt) public onlyDev() {... */\n    tag_15:\n      callvalue\n      dup1\n      iszero\n      tag_94\n      jumpi\n      0x00\n      dup1\n      revert\n    tag_94:\n      pop\n      tag_95\n      0x04\n      dup1\n      calldatasize\n      sub\n      dup2\n      add\n      swap1\n      tag_96\n      swap2\n      swap1\n      tag_97\n      jump\t// in\n    tag_96:\n      tag_98\n      jump\t// in\n    tag_95:\n      stop\n        /* \"contracts/Pool/Pool.sol\":3185:3262  function owner() public view returns (address) {... */\n    tag_16:\n      callvalue\n      dup1\n      iszero\n      tag_99\n      jumpi\n      0x00\n      dup1\n      revert\n    tag_99:\n      pop\n      tag_100\n      tag_101\n      jump\t// in\n    tag_100:\n      mload(0x40)\n      tag_102\n      swap2\n      swap1\n      tag_71\n      jump\t// in\n    tag_102:\n      mload(0x40)\n      dup1\n      swap2\n      sub\n      swap1\n      return\n        /* \"contracts/Pool/Pool.sol\":6347:6432  function symbol() public pure returns (string memory) {... */\n    tag_17:\n      callvalue\n      dup1\n      iszero\n      tag_103\n      jumpi\n      0x00\n      dup1\n      revert\n    tag_103:\n      pop\n      tag_104\n      tag_105\n      jump\t// in\n    tag_104:\n      mload(0x40)\n      tag_106\n      swap2\n      swap1\n      tag_38\n      jump\t// in\n    tag_106:\n      mload(0x40)\n      dup1\n      swap2\n      sub\n      swap1\n      return\n        /* \"contracts/Pool/Pool.sol\":14658:15200  function setFee(uint256 redisFeeOnBuy, uint256 redisFeeOnSell, uint256 taxFeeOnBuy, uint256 taxFeeOnSell) public onlyDev {... */\n    tag_18:\n      callvalue\n      dup1\n      iszero\n      tag_107\n      jumpi\n      0x00\n      dup1\n      revert\n    tag_107:\n      pop\n      tag_108\n      0x04\n      dup1\n      calldatasize\n      sub\n      dup2\n      add\n      swap1\n      tag_109\n      swap2\n      swap1\n      tag_110\n      jump\t// in\n    tag_109:\n      tag_111\n      jump\t// in\n    tag_108:\n      stop\n        /* \"contracts/Pool/Pool.sol\":6766:6930  function transfer(address recipient, uint256 amount) public override returns (bool) {... */\n    tag_19:\n      callvalue\n      dup1\n      iszero\n      tag_112\n      jumpi\n      0x00\n      dup1\n      revert\n    tag_112:\n      pop\n      tag_113\n      0x04\n      dup1\n      calldatasize\n      sub\n      dup2\n      add\n      swap1\n      tag_114\n      swap2\n      swap1\n      tag_42\n      jump\t// in\n    tag_114:\n      tag_115\n      jump\t// in\n    tag_113:\n      mload(0x40)\n      tag_116\n      swap2\n      swap1\n      tag_45\n      jump\t// in\n    tag_116:\n      mload(0x40)\n      dup1\n      swap2\n      sub\n      swap1\n      return\n        /* \"contracts/Pool/Pool.sol\":11026:11247  function setNewDevAddress(address payable dev) public onlyDev() {... */\n    tag_20:\n      callvalue\n      dup1\n      iszero\n      tag_117\n      jumpi\n      0x00\n      dup1\n      revert\n    tag_117:\n      pop\n      tag_118\n      0x04\n      dup1\n      calldatasize\n      sub\n      dup2\n      add\n      swap1\n      tag_119\n      swap2\n      swap1\n      tag_97\n      jump\t// in\n    tag_119:\n      tag_120\n      jump\t// in\n    tag_118:\n      stop\n        /* \"contracts/Pool/Pool.sol\":14125:14384  function manualswap() external {... */\n    tag_21:\n      callvalue\n      dup1\n      iszero\n      tag_121\n      jumpi\n      0x00\n      dup1\n      revert\n    tag_121:\n      pop\n      tag_122\n      tag_123\n      jump\t// in\n    tag_122:\n      stop\n        /* \"contracts/Pool/Pool.sol\":15313:15543  function excludeMultipleAccountsFromFees(address[] calldata accounts, bool excluded) public onlyOwner {... */\n    tag_22:\n      callvalue\n      dup1\n      iszero\n      tag_124\n      jumpi\n      0x00\n      dup1\n      revert\n    tag_124:\n      pop\n      tag_125\n      0x04\n      dup1\n      calldatasize\n      sub\n      dup2\n      add\n      swap1\n      tag_126\n      swap2\n      swap1\n      tag_127\n      jump\t// in\n    tag_126:\n      tag_128\n      jump\t// in\n    tag_125:\n      stop\n        /* \"contracts/Pool/Pool.sol\":5025:5048  address public _factory */\n    tag_23:\n      callvalue\n      dup1\n      iszero\n      tag_129\n      jumpi\n      0x00\n      dup1\n      revert\n    tag_129:\n      pop\n      tag_130\n      tag_131\n      jump\t// in\n    tag_130:\n      mload(0x40)\n      tag_132\n      swap2\n      swap1\n      tag_71\n      jump\t// in\n    tag_132:\n      mload(0x40)\n      dup1\n      swap2\n      sub\n      swap1\n      return\n        /* \"contracts/Pool/Pool.sol\":9645:9846  function settingPair(address tokenB) public onlyOwner { ... */\n    tag_24:\n      callvalue\n      dup1\n      iszero\n      tag_133\n      jumpi\n      0x00\n      dup1\n      revert\n    tag_133:\n      pop\n      tag_134\n      0x04\n      dup1\n      calldatasize\n      sub\n      dup2\n      add\n      swap1\n      tag_135\n      swap2\n      swap1\n      tag_88\n      jump\t// in\n    tag_135:\n      tag_136\n      jump\t// in\n    tag_134:\n      stop\n        /* \"contracts/Pool/Pool.sol\":6936:7077  function allowance(address owner, address spender) public view override returns (uint256) {... */\n    tag_25:\n      callvalue\n      dup1\n      iszero\n      tag_137\n      jumpi\n      0x00\n      dup1\n      revert\n    tag_137:\n      pop\n      tag_138\n      0x04\n      dup1\n      calldatasize\n      sub\n      dup2\n      add\n      swap1\n      tag_139\n      swap2\n      swap1\n      tag_140\n      jump\t// in\n    tag_139:\n      tag_141\n      jump\t// in\n    tag_138:\n      mload(0x40)\n      tag_142\n      swap2\n      swap1\n      tag_55\n      jump\t// in\n    tag_142:\n      mload(0x40)\n      dup1\n      swap2\n      sub\n      swap1\n      return\n        /* \"contracts/Pool/Pool.sol\":10735:10940  function rescueForeignTokens(address _tokenAddr, address _to, uint _amount) public onlyDev() {... */\n    tag_26:\n      callvalue\n      dup1\n      iszero\n      tag_143\n      jumpi\n      0x00\n      dup1\n      revert\n    tag_143:\n      pop\n      tag_144\n      0x04\n      dup1\n      calldatasize\n      sub\n      dup2\n      add\n      swap1\n      tag_145\n      swap2\n      swap1\n      tag_59\n      jump\t// in\n    tag_145:\n      tag_146\n      jump\t// in\n    tag_144:\n      stop\n        /* \"contracts/Pool/Pool.sol\":3625:3782  function transferOwnership(address newOwner) public virtual onlyOwner {... */\n    tag_27:\n      callvalue\n      dup1\n      iszero\n      tag_147\n      jumpi\n      0x00\n      dup1\n      revert\n    tag_147:\n      pop\n      tag_148\n      0x04\n      dup1\n      calldatasize\n      sub\n      dup2\n      add\n      swap1\n      tag_149\n      swap2\n      swap1\n      tag_88\n      jump\t// in\n    tag_149:\n      tag_150\n      jump\t// in\n    tag_148:\n      stop\n        /* \"contracts/Pool/Pool.sol\":6260:6341  function name() public pure returns (string memory) {... */\n    tag_36:\n        /* \"contracts/Pool/Pool.sol\":6297:6310  string memory */\n      0x60\n        /* \"contracts/Pool/Pool.sol\":6329:6334  _name */\n      mload(0x40)\n      dup1\n      0x40\n      add\n      0x40\n      mstore\n      dup1\n      0x0a\n      dup2\n      mstore\n      0x20\n      add\n      0x576f726c64205374657000000000000000000000000000000000000000000000\n      dup2\n      mstore\n      pop\n        /* \"contracts/Pool/Pool.sol\":6322:6334  return _name */\n      swap1\n      pop\n        /* \"contracts/Pool/Pool.sol\":6260:6341  function name() public pure returns (string memory) {... */\n      swap1\n      jump\t// out\n        /* \"contracts/Pool/Pool.sol\":7083:7241  function approve(address spender, uint256 amount) public override returns (bool) {... */\n    tag_43:\n        /* \"contracts/Pool/Pool.sol\":7158:7162  bool */\n      0x00\n        /* \"contracts/Pool/Pool.sol\":7174:7213  _approve(_msgSender(), spender, amount) */\n      tag_153\n        /* \"contracts/Pool/Pool.sol\":7183:7195  _msgSender() */\n      tag_154\n        /* \"contracts/Pool/Pool.sol\":7183:7193  _msgSender */\n      tag_155\n        /* \"contracts/Pool/Pool.sol\":7183:7195  _msgSender() */\n      jump\t// in\n    tag_154:\n        /* \"contracts/Pool/Pool.sol\":7197:7204  spender */\n      dup5\n        /* \"contracts/Pool/Pool.sol\":7206:7212  amount */\n      dup5\n        /* \"contracts/Pool/Pool.sol\":7174:7182  _approve */\n      tag_156\n        /* \"contracts/Pool/Pool.sol\":7174:7213  _approve(_msgSender(), spender, amount) */\n      jump\t// in\n    tag_153:\n        /* \"contracts/Pool/Pool.sol\":7230:7234  true */\n      0x01\n        /* \"contracts/Pool/Pool.sol\":7223:7234  return true */\n      swap1\n      pop\n        /* \"contracts/Pool/Pool.sol\":7083:7241  function approve(address spender, uint256 amount) public override returns (bool) {... */\n      swap3\n      swap2\n      pop\n      pop\n      jump\t// out\n        /* \"contracts/Pool/Pool.sol\":4930:4971  IUniswapV2Router02 public uniswapV2Router */\n    tag_48:\n      0x10\n      0x00\n      swap1\n      sload\n      swap1\n      0x0100\n      exp\n      swap1\n      div\n      0xffffffffffffffffffffffffffffffffffffffff\n      and\n      dup2\n      jump\t// out\n        /* \"contracts/Pool/Pool.sol\":6525:6618  function totalSupply() public pure override returns (uint256) {... */\n    tag_53:\n        /* \"contracts/Pool/Pool.sol\":6578:6585  uint256 */\n      0x00\n        /* \"contracts/Pool/Pool.sol\":4200:4213  1*10**9*10**9 */\n      0x0de0b6b3a7640000\n        /* \"contracts/Pool/Pool.sol\":6597:6611  return _tTotal */\n      swap1\n      pop\n        /* \"contracts/Pool/Pool.sol\":6525:6618  function totalSupply() public pure override returns (uint256) {... */\n      swap1\n      jump\t// out\n        /* \"contracts/Pool/Pool.sol\":7247:7556  function transferFrom(address sender, address recipient, uint256 amount) public override returns (bool) {... */\n    tag_60:\n        /* \"contracts/Pool/Pool.sol\":7345:7349  bool */\n      0x00\n        /* \"contracts/Pool/Pool.sol\":7361:7397  _transfer(sender, recipient, amount) */\n      tag_159\n        /* \"contracts/Pool/Pool.sol\":7371:7377  sender */\n      dup5\n        /* \"contracts/Pool/Pool.sol\":7379:7388  recipient */\n      dup5\n        /* \"contracts/Pool/Pool.sol\":7390:7396  amount */\n      dup5\n        /* \"contracts/Pool/Pool.sol\":7361:7370  _transfer */\n      tag_160\n        /* \"contracts/Pool/Pool.sol\":7361:7397  _transfer(sender, recipient, amount) */\n      jump\t// in\n    tag_159:\n        /* \"contracts/Pool/Pool.sol\":7407:7528  _approve(sender, _msgSender(), _allowances[sender][_msgSender()].sub(amount, \"ERC20: transfer amount exceeds allowance\")) */\n      tag_161\n        /* \"contracts/Pool/Pool.sol\":7416:7422  sender */\n      dup5\n        /* \"contracts/Pool/Pool.sol\":7424:7436  _msgSender() */\n      tag_162\n        /* \"contracts/Pool/Pool.sol\":7424:7434  _msgSender */\n      tag_155\n        /* \"contracts/Pool/Pool.sol\":7424:7436  _msgSender() */\n      jump\t// in\n    tag_162:\n        /* \"contracts/Pool/Pool.sol\":7438:7527  _allowances[sender][_msgSender()].sub(amount, \"ERC20: transfer amount exceeds allowance\") */\n      tag_163\n        /* \"contracts/Pool/Pool.sol\":7476:7482  amount */\n      dup6\n        /* \"contracts/Pool/Pool.sol\":7438:7527  _allowances[sender][_msgSender()].sub(amount, \"ERC20: transfer amount exceeds allowance\") */\n      mload(0x40)\n      dup1\n      0x60\n      add\n      0x40\n      mstore\n      dup1\n      0x28\n      dup2\n      mstore\n      0x20\n      add\n      data_974d1b4421da69cc60b481194f0dad36a5bb4e23da810da7a7fb30cdba178330\n      0x28\n      swap2\n      codecopy\n        /* \"contracts/Pool/Pool.sol\":7438:7449  _allowances */\n      0x04\n        /* \"contracts/Pool/Pool.sol\":7438:7457  _allowances[sender] */\n      0x00\n        /* \"contracts/Pool/Pool.sol\":7450:7456  sender */\n      dup12\n        /* \"contracts/Pool/Pool.sol\":7438:7457  _allowances[sender] */\n      0xffffffffffffffffffffffffffffffffffffffff\n      and\n      0xffffffffffffffffffffffffffffffffffffffff\n      and\n      dup2\n      mstore\n      0x20\n      add\n      swap1\n      dup2\n      mstore\n      0x20\n      add\n      0x00\n      keccak256\n        /* \"contracts/Pool/Pool.sol\":7438:7471  _allowances[sender][_msgSender()] */\n      0x00\n        /* \"contracts/Pool/Pool.sol\":7458:7470  _msgSender() */\n      tag_164\n        /* \"contracts/Pool/Pool.sol\":7458:7468  _msgSender */\n      tag_155\n        /* \"contracts/Pool/Pool.sol\":7458:7470  _msgSender() */\n      jump\t// in\n    tag_164:\n        /* \"contracts/Pool/Pool.sol\":7438:7471  _allowances[sender][_msgSender()] */\n      0xffffffffffffffffffffffffffffffffffffffff\n      and\n      0xffffffffffffffffffffffffffffffffffffffff\n      and\n      dup2\n      mstore\n      0x20\n      add\n      swap1\n      dup2\n      mstore\n      0x20\n      add\n      0x00\n      keccak256\n      sload\n        /* \"contracts/Pool/Pool.sol\":7438:7475  _allowances[sender][_msgSender()].sub */\n      tag_165\n      swap1\n        /* \"contracts/Pool/Pool.sol\":7438:7527  _allowances[sender][_msgSender()].sub(amount, \"ERC20: transfer amount exceeds allowance\") */\n      swap3\n      swap2\n      swap1\n      0xffffffff\n      and\n      jump\t// in\n    tag_163:\n        /* \"contracts/Pool/Pool.sol\":7407:7415  _approve */\n      tag_156\n        /* \"contracts/Pool/Pool.sol\":7407:7528  _approve(sender, _msgSender(), _allowances[sender][_msgSender()].sub(amount, \"ERC20: transfer amount exceeds allowance\")) */\n      jump\t// in\n    tag_161:\n        /* \"contracts/Pool/Pool.sol\":7545:7549  true */\n      0x01\n        /* \"contracts/Pool/Pool.sol\":7538:7549  return true */\n      swap1\n      pop\n        /* \"contracts/Pool/Pool.sol\":7247:7556  function transferFrom(address sender, address recipient, uint256 amount) public override returns (bool) {... */\n      swap4\n      swap3\n      pop\n      pop\n      pop\n      jump\t// out\n        /* \"contracts/Pool/Pool.sol\":6438:6519  function decimals() public pure returns (uint8) {... */\n    tag_64:\n        /* \"contracts/Pool/Pool.sol\":6479:6484  uint8 */\n      0x00\n        /* \"contracts/Pool/Pool.sol\":4713:4714  9 */\n      0x09\n        /* \"contracts/Pool/Pool.sol\":6496:6512  return _decimals */\n      swap1\n      pop\n        /* \"contracts/Pool/Pool.sol\":6438:6519  function decimals() public pure returns (uint8) {... */\n      swap1\n      jump\t// out\n        /* \"contracts/Pool/Pool.sol\":5054:5082  address public uniswapV2Pair */\n    tag_69:\n      0x13\n      0x00\n      swap1\n      sload\n      swap1\n      0x0100\n      exp\n      swap1\n      div\n      0xffffffffffffffffffffffffffffffffffffffff\n      and\n      dup2\n      jump\t// out\n        /* \"contracts/Pool/Pool.sol\":4977:5018  IUniswapV2Factory public uniswapV2Factory */\n    tag_74:\n      0x11\n      0x00\n      swap1\n      sload\n      swap1\n      0x0100\n      exp\n      swap1\n      div\n      0xffffffffffffffffffffffffffffffffffffffff\n      and\n      dup2\n      jump\t// out\n        /* \"contracts/Pool/Pool.sol\":15210:15307  function toggleSwap(bool _swapEnabled) public onlyDev {... */\n    tag_81:\n        /* \"contracts/Pool/Pool.sol\":6157:6169  _msgSender() */\n      tag_168\n        /* \"contracts/Pool/Pool.sol\":6157:6167  _msgSender */\n      tag_155\n        /* \"contracts/Pool/Pool.sol\":6157:6169  _msgSender() */\n      jump\t// in\n    tag_168:\n        /* \"contracts/Pool/Pool.sol\":6146:6169  owner() == _msgSender() */\n      0xffffffffffffffffffffffffffffffffffffffff\n      and\n        /* \"contracts/Pool/Pool.sol\":6146:6153  owner() */\n      tag_169\n        /* \"contracts/Pool/Pool.sol\":6146:6151  owner */\n      tag_101\n        /* \"contracts/Pool/Pool.sol\":6146:6153  owner() */\n      jump\t// in\n    tag_169:\n        /* \"contracts/Pool/Pool.sol\":6146:6169  owner() == _msgSender() */\n      0xffffffffffffffffffffffffffffffffffffffff\n      and\n      eq\n        /* \"contracts/Pool/Pool.sol\":6146:6208  owner() == _msgSender() || _developmentAddress == _msgSender() */\n      dup1\n      tag_170\n      jumpi\n      pop\n        /* \"contracts/Pool/Pool.sol\":6196:6208  _msgSender() */\n      tag_171\n        /* \"contracts/Pool/Pool.sol\":6196:6206  _msgSender */\n      tag_155\n        /* \"contracts/Pool/Pool.sol\":6196:6208  _msgSender() */\n      jump\t// in\n    tag_171:\n        /* \"contracts/Pool/Pool.sol\":6173:6208  _developmentAddress == _msgSender() */\n      0xffffffffffffffffffffffffffffffffffffffff\n      and\n        /* \"contracts/Pool/Pool.sol\":6173:6192  _developmentAddress */\n      0x0e\n      0x01\n      swap1\n      sload\n      swap1\n      0x0100\n      exp\n      swap1\n      div\n      0xffffffffffffffffffffffffffffffffffffffff\n      and\n        /* \"contracts/Pool/Pool.sol\":6173:6208  _developmentAddress == _msgSender() */\n      0xffffffffffffffffffffffffffffffffffffffff\n      and\n      eq\n        /* \"contracts/Pool/Pool.sol\":6146:6208  owner() == _msgSender() || _developmentAddress == _msgSender() */\n    tag_170:\n        /* \"contracts/Pool/Pool.sol\":6138:6234  require(owner() == _msgSender() || _developmentAddress == _msgSender(), \"Caller is not the dev\") */\n      tag_172\n      jumpi\n      mload(0x40)\n      0x08c379a000000000000000000000000000000000000000000000000000000000\n      dup2\n      mstore\n      0x04\n      add\n      tag_173\n      swap1\n      tag_174\n      jump\t// in\n    tag_173:\n      mload(0x40)\n      dup1\n      swap2\n      sub\n      swap1\n      revert\n    tag_172:\n        /* \"contracts/Pool/Pool.sol\":15288:15300  _swapEnabled */\n      dup1\n        /* \"contracts/Pool/Pool.sol\":15274:15285  swapEnabled */\n      0x13\n      0x15\n        /* \"contracts/Pool/Pool.sol\":15274:15300  swapEnabled = _swapEnabled */\n      0x0100\n      exp\n      dup2\n      sload\n      dup2\n      0xff\n      mul\n      not\n      and\n      swap1\n      dup4\n      iszero\n      iszero\n      mul\n      or\n      swap1\n      sstore\n      pop\n        /* \"contracts/Pool/Pool.sol\":15210:15307  function toggleSwap(bool _swapEnabled) public onlyDev {... */\n      pop\n      jump\t// out\n        /* \"contracts/Pool/Pool.sol\":14390:14648  function manualsend() external {... */\n    tag_84:\n        /* \"contracts/Pool/Pool.sol\":14455:14474  _developmentAddress */\n      0x0e\n      0x01\n      swap1\n      sload\n      swap1\n      0x0100\n      exp\n      swap1\n      div\n      0xffffffffffffffffffffffffffffffffffffffff\n      and\n        /* \"contracts/Pool/Pool.sol\":14439:14474  _msgSender() == _developmentAddress */\n      0xffffffffffffffffffffffffffffffffffffffff\n      and\n        /* \"contracts/Pool/Pool.sol\":14439:14451  _msgSender() */\n      tag_177\n        /* \"contracts/Pool/Pool.sol\":14439:14449  _msgSender */\n      tag_155\n        /* \"contracts/Pool/Pool.sol\":14439:14451  _msgSender() */\n      jump\t// in\n    tag_177:\n        /* \"contracts/Pool/Pool.sol\":14439:14474  _msgSender() == _developmentAddress */\n      0xffffffffffffffffffffffffffffffffffffffff\n      and\n      eq\n        /* \"contracts/Pool/Pool.sol\":14439:14511  _msgSender() == _developmentAddress || _msgSender() == _marketingAddress */\n      dup1\n      tag_178\n      jumpi\n      pop\n        /* \"contracts/Pool/Pool.sol\":14494:14511  _marketingAddress */\n      0x0f\n      0x00\n      swap1\n      sload\n      swap1\n      0x0100\n      exp\n      swap1\n      div\n      0xffffffffffffffffffffffffffffffffffffffff\n      and\n        /* \"contracts/Pool/Pool.sol\":14478:14511  _msgSender() == _marketingAddress */\n      0xffffffffffffffffffffffffffffffffffffffff\n      and\n        /* \"contracts/Pool/Pool.sol\":14478:14490  _msgSender() */\n      tag_179\n        /* \"contracts/Pool/Pool.sol\":14478:14488  _msgSender */\n      tag_155\n        /* \"contracts/Pool/Pool.sol\":14478:14490  _msgSender() */\n      jump\t// in\n    tag_179:\n        /* \"contracts/Pool/Pool.sol\":14478:14511  _msgSender() == _marketingAddress */\n      0xffffffffffffffffffffffffffffffffffffffff\n      and\n      eq\n        /* \"contracts/Pool/Pool.sol\":14439:14511  _msgSender() == _developmentAddress || _msgSender() == _marketingAddress */\n    tag_178:\n        /* \"contracts/Pool/Pool.sol\":14439:14538  _msgSender() == _developmentAddress || _msgSender() == _marketingAddress || _msgSender() == owner() */\n      dup1\n      tag_180\n      jumpi\n      pop\n        /* \"contracts/Pool/Pool.sol\":14531:14538  owner() */\n      tag_181\n        /* \"contracts/Pool/Pool.sol\":14531:14536  owner */\n      tag_101\n        /* \"contracts/Pool/Pool.sol\":14531:14538  owner() */\n      jump\t// in\n    tag_181:\n        /* \"contracts/Pool/Pool.sol\":14515:14538  _msgSender() == owner() */\n      0xffffffffffffffffffffffffffffffffffffffff\n      and\n        /* \"contracts/Pool/Pool.sol\":14515:14527  _msgSender() */\n      tag_182\n        /* \"contracts/Pool/Pool.sol\":14515:14525  _msgSender */\n      tag_155\n        /* \"contracts/Pool/Pool.sol\":14515:14527  _msgSender() */\n      jump\t// in\n    tag_182:\n        /* \"contracts/Pool/Pool.sol\":14515:14538  _msgSender() == owner() */\n      0xffffffffffffffffffffffffffffffffffffffff\n      and\n      eq\n        /* \"contracts/Pool/Pool.sol\":14439:14538  _msgSender() == _developmentAddress || _msgSender() == _marketingAddress || _msgSender() == owner() */\n    tag_180:\n        /* \"contracts/Pool/Pool.sol\":14431:14539  require(_msgSender() == _developmentAddress || _msgSender() == _marketingAddress || _msgSender() == owner()) */\n      tag_183\n      jumpi\n      0x00\n      dup1\n      revert\n    tag_183:\n        /* \"contracts/Pool/Pool.sol\":14549:14575  uint256 contractETHBalance */\n      0x00\n        /* \"contracts/Pool/Pool.sol\":14578:14599  address(this).balance */\n      selfbalance\n        /* \"contracts/Pool/Pool.sol\":14549:14599  uint256 contractETHBalance = address(this).balance */\n      swap1\n      pop\n        /* \"contracts/Pool/Pool.sol\":14609:14641  sendETHToFee(contractETHBalance) */\n      tag_184\n        /* \"contracts/Pool/Pool.sol\":14622:14640  contractETHBalance */\n      dup2\n        /* \"contracts/Pool/Pool.sol\":14609:14621  sendETHToFee */\n      tag_185\n        /* \"contracts/Pool/Pool.sol\":14609:14641  sendETHToFee(contractETHBalance) */\n      jump\t// in\n    tag_184:\n        /* \"contracts/Pool/Pool.sol\":14421:14648  {... */\n      pop\n        /* \"contracts/Pool/Pool.sol\":14390:14648  function manualsend() external {... */\n      jump\t// out\n        /* \"contracts/Pool/Pool.sol\":6624:6760  function balanceOf(address account) public view override returns (uint256) {... */\n    tag_89:\n        /* \"contracts/Pool/Pool.sol\":6690:6697  uint256 */\n      0x00\n        /* \"contracts/Pool/Pool.sol\":6716:6753  tokenFromReflection(_rOwned[account]) */\n      tag_187\n        /* \"contracts/Pool/Pool.sol\":6736:6743  _rOwned */\n      0x02\n        /* \"contracts/Pool/Pool.sol\":6736:6752  _rOwned[account] */\n      0x00\n        /* \"contracts/Pool/Pool.sol\":6744:6751  account */\n      dup5\n        /* \"contracts/Pool/Pool.sol\":6736:6752  _rOwned[account] */\n      0xffffffffffffffffffffffffffffffffffffffff\n      and\n      0xffffffffffffffffffffffffffffffffffffffff\n      and\n      dup2\n      mstore\n      0x20\n      add\n      swap1\n      dup2\n      mstore\n      0x20\n      add\n      0x00\n      keccak256\n      sload\n        /* \"contracts/Pool/Pool.sol\":6716:6735  tokenFromReflection */\n      tag_188\n        /* \"contracts/Pool/Pool.sol\":6716:6753  tokenFromReflection(_rOwned[account]) */\n      jump\t// in\n    tag_187:\n        /* \"contracts/Pool/Pool.sol\":6709:6753  return tokenFromReflection(_rOwned[account]) */\n      swap1\n      pop\n        /* \"contracts/Pool/Pool.sol\":6624:6760  function balanceOf(address account) public view override returns (uint256) {... */\n      swap2\n      swap1\n      pop\n      jump\t// out\n        /* \"contracts/Pool/Pool.sol\":3381:3526  function renounceOwnership() public virtual onlyOwner {... */\n    tag_93:\n        /* \"contracts/Pool/Pool.sol\":3317:3329  _msgSender() */\n      tag_190\n        /* \"contracts/Pool/Pool.sol\":3317:3327  _msgSender */\n      tag_155\n        /* \"contracts/Pool/Pool.sol\":3317:3329  _msgSender() */\n      jump\t// in\n    tag_190:\n        /* \"contracts/Pool/Pool.sol\":3307:3329  _owner == _msgSender() */\n      0xffffffffffffffffffffffffffffffffffffffff\n      and\n        /* \"contracts/Pool/Pool.sol\":3307:3313  _owner */\n      0x00\n      dup1\n      sload\n      swap1\n      0x0100\n      exp\n      swap1\n      div\n      0xffffffffffffffffffffffffffffffffffffffff\n      and\n        /* \"contracts/Pool/Pool.sol\":3307:3329  _owner == _msgSender() */\n      0xffffffffffffffffffffffffffffffffffffffff\n      and\n      eq\n        /* \"contracts/Pool/Pool.sol\":3299:3357  require(_owner == _msgSender(), \"Caller is not the owner\") */\n      tag_191\n      jumpi\n      mload(0x40)\n      0x08c379a000000000000000000000000000000000000000000000000000000000\n      dup2\n      mstore\n      0x04\n      add\n      tag_192\n      swap1\n      tag_193\n      jump\t// in\n    tag_192:\n      mload(0x40)\n      dup1\n      swap2\n      sub\n      swap1\n      revert\n    tag_191:\n        /* \"contracts/Pool/Pool.sol\":3487:3488  0 */\n      0x00\n        /* \"contracts/Pool/Pool.sol\":3450:3490  OwnershipTransferred(_owner, address(0)) */\n      0xffffffffffffffffffffffffffffffffffffffff\n      and\n        /* \"contracts/Pool/Pool.sol\":3471:3477  _owner */\n      0x00\n      dup1\n      sload\n      swap1\n      0x0100\n      exp\n      swap1\n      div\n      0xffffffffffffffffffffffffffffffffffffffff\n      and\n        /* \"contracts/Pool/Pool.sol\":3450:3490  OwnershipTransferred(_owner, address(0)) */\n      0xffffffffffffffffffffffffffffffffffffffff\n      and\n      0x8be0079c531659141344cd1fd0a4f28419497f9722a3daafe3b4186f6b6457e0\n      mload(0x40)\n      mload(0x40)\n      dup1\n      swap2\n      sub\n      swap1\n      log3\n        /* \"contracts/Pool/Pool.sol\":3517:3518  0 */\n      0x00\n        /* \"contracts/Pool/Pool.sol\":3500:3506  _owner */\n      dup1\n      0x00\n        /* \"contracts/Pool/Pool.sol\":3500:3519  _owner = address(0) */\n      0x0100\n      exp\n      dup2\n      sload\n      dup2\n      0xffffffffffffffffffffffffffffffffffffffff\n      mul\n      not\n      and\n      swap1\n      dup4\n      0xffffffffffffffffffffffffffffffffffffffff\n      and\n      mul\n      or\n      swap1\n      sstore\n      pop\n        /* \"contracts/Pool/Pool.sol\":3381:3526  function renounceOwnership() public virtual onlyOwner {... */\n      jump\t// out\n        /* \"contracts/Pool/Pool.sol\":11339:11572  function setNewMarketingAddress(address payable markt) public onlyDev() {... */\n    tag_98:\n        /* \"contracts/Pool/Pool.sol\":6157:6169  _msgSender() */\n      tag_196\n        /* \"contracts/Pool/Pool.sol\":6157:6167  _msgSender */\n      tag_155\n        /* \"contracts/Pool/Pool.sol\":6157:6169  _msgSender() */\n      jump\t// in\n    tag_196:\n        /* \"contracts/Pool/Pool.sol\":6146:6169  owner() == _msgSender() */\n      0xffffffffffffffffffffffffffffffffffffffff\n      and\n        /* \"contracts/Pool/Pool.sol\":6146:6153  owner() */\n      tag_197\n        /* \"contracts/Pool/Pool.sol\":6146:6151  owner */\n      tag_101\n        /* \"contracts/Pool/Pool.sol\":6146:6153  owner() */\n      jump\t// in\n    tag_197:\n        /* \"contracts/Pool/Pool.sol\":6146:6169  owner() == _msgSender() */\n      0xffffffffffffffffffffffffffffffffffffffff\n      and\n      eq\n        /* \"contracts/Pool/Pool.sol\":6146:6208  owner() == _msgSender() || _developmentAddress == _msgSender() */\n      dup1\n      tag_198\n      jumpi\n      pop\n        /* \"contracts/Pool/Pool.sol\":6196:6208  _msgSender() */\n      tag_199\n        /* \"contracts/Pool/Pool.sol\":6196:6206  _msgSender */\n      tag_155\n        /* \"contracts/Pool/Pool.sol\":6196:6208  _msgSender() */\n      jump\t// in\n    tag_199:\n        /* \"contracts/Pool/Pool.sol\":6173:6208  _developmentAddress == _msgSender() */\n      0xffffffffffffffffffffffffffffffffffffffff\n      and\n        /* \"contracts/Pool/Pool.sol\":6173:6192  _developmentAddress */\n      0x0e\n      0x01\n      swap1\n      sload\n      swap1\n      0x0100\n      exp\n      swap1\n      div\n      0xffffffffffffffffffffffffffffffffffffffff\n      and\n        /* \"contracts/Pool/Pool.sol\":6173:6208  _developmentAddress == _msgSender() */\n      0xffffffffffffffffffffffffffffffffffffffff\n      and\n      eq\n        /* \"contracts/Pool/Pool.sol\":6146:6208  owner() == _msgSender() || _developmentAddress == _msgSender() */\n    tag_198:\n        /* \"contracts/Pool/Pool.sol\":6138:6234  require(owner() == _msgSender() || _developmentAddress == _msgSender(), \"Caller is not the dev\") */\n      tag_200\n      jumpi\n      mload(0x40)\n      0x08c379a000000000000000000000000000000000000000000000000000000000\n      dup2\n      mstore\n      0x04\n      add\n      tag_201\n      swap1\n      tag_174\n      jump\t// in\n    tag_201:\n      mload(0x40)\n      dup1\n      swap2\n      sub\n      swap1\n      revert\n    tag_200:\n        /* \"contracts/Pool/Pool.sol\":11469:11474  markt */\n      dup1\n        /* \"contracts/Pool/Pool.sol\":11426:11475  marketingAddressUpdated(_marketingAddress, markt) */\n      0xffffffffffffffffffffffffffffffffffffffff\n      and\n        /* \"contracts/Pool/Pool.sol\":11450:11467  _marketingAddress */\n      0x0f\n      0x00\n      swap1\n      sload\n      swap1\n      0x0100\n      exp\n      swap1\n      div\n      0xffffffffffffffffffffffffffffffffffffffff\n      and\n        /* \"contracts/Pool/Pool.sol\":11426:11475  marketingAddressUpdated(_marketingAddress, markt) */\n      0xffffffffffffffffffffffffffffffffffffffff\n      and\n      0xa64373a629bc0c09eacf8a9cc2c7b070fa0a8b7e2e9b8aaee408a3c02eb1676b\n      mload(0x40)\n      mload(0x40)\n      dup1\n      swap2\n      sub\n      swap1\n      log3\n        /* \"contracts/Pool/Pool.sol\":11506:11511  markt */\n      dup1\n        /* \"contracts/Pool/Pool.sol\":11486:11503  _marketingAddress */\n      0x0f\n      0x00\n        /* \"contracts/Pool/Pool.sol\":11486:11511  _marketingAddress = markt */\n      0x0100\n      exp\n      dup2\n      sload\n      dup2\n      0xffffffffffffffffffffffffffffffffffffffff\n      mul\n      not\n      and\n      swap1\n      dup4\n      0xffffffffffffffffffffffffffffffffffffffff\n      and\n      mul\n      or\n      swap1\n      sstore\n      pop\n        /* \"contracts/Pool/Pool.sol\":11561:11565  true */\n      0x01\n        /* \"contracts/Pool/Pool.sol\":11521:11539  _isExcludedFromFee */\n      0x05\n        /* \"contracts/Pool/Pool.sol\":11521:11558  _isExcludedFromFee[_marketingAddress] */\n      0x00\n        /* \"contracts/Pool/Pool.sol\":11540:11557  _marketingAddress */\n      0x0f\n      0x00\n      swap1\n      sload\n      swap1\n      0x0100\n      exp\n      swap1\n      div\n      0xffffffffffffffffffffffffffffffffffffffff\n      and\n        /* \"contracts/Pool/Pool.sol\":11521:11558  _isExcludedFromFee[_marketingAddress] */\n      0xffffffffffffffffffffffffffffffffffffffff\n      and\n      0xffffffffffffffffffffffffffffffffffffffff\n      and\n      dup2\n      mstore\n      0x20\n      add\n      swap1\n      dup2\n      mstore\n      0x20\n      add\n      0x00\n      keccak256\n      0x00\n        /* \"contracts/Pool/Pool.sol\":11521:11565  _isExcludedFromFee[_marketingAddress] = true */\n      0x0100\n      exp\n      dup2\n      sload\n      dup2\n      0xff\n      mul\n      not\n      and\n      swap1\n      dup4\n      iszero\n      iszero\n      mul\n      or\n      swap1\n      sstore\n      pop\n        /* \"contracts/Pool/Pool.sol\":11339:11572  function setNewMarketingAddress(address payable markt) public onlyDev() {... */\n      pop\n      jump\t// out\n        /* \"contracts/Pool/Pool.sol\":3185:3262  function owner() public view returns (address) {... */\n    tag_101:\n        /* \"contracts/Pool/Pool.sol\":3223:3230  address */\n      0x00\n        /* \"contracts/Pool/Pool.sol\":3249:3255  _owner */\n      dup1\n      0x00\n      swap1\n      sload\n      swap1\n      0x0100\n      exp\n      swap1\n      div\n      0xffffffffffffffffffffffffffffffffffffffff\n      and\n        /* \"contracts/Pool/Pool.sol\":3242:3255  return _owner */\n      swap1\n      pop\n        /* \"contracts/Pool/Pool.sol\":3185:3262  function owner() public view returns (address) {... */\n      swap1\n      jump\t// out\n        /* \"contracts/Pool/Pool.sol\":6347:6432  function symbol() public pure returns (string memory) {... */\n    tag_105:\n        /* \"contracts/Pool/Pool.sol\":6386:6399  string memory */\n      0x60\n        /* \"contracts/Pool/Pool.sol\":6418:6425  _symbol */\n      mload(0x40)\n      dup1\n      0x40\n      add\n      0x40\n      mstore\n      dup1\n      0x03\n      dup2\n      mstore\n      0x20\n      add\n      0x5753500000000000000000000000000000000000000000000000000000000000\n      dup2\n      mstore\n      pop\n        /* \"contracts/Pool/Pool.sol\":6411:6425  return _symbol */\n      swap1\n      pop\n        /* \"contracts/Pool/Pool.sol\":6347:6432  function symbol() public pure returns (string memory) {... */\n      swap1\n      jump\t// out\n        /* \"contracts/Pool/Pool.sol\":14658:15200  function setFee(uint256 redisFeeOnBuy, uint256 redisFeeOnSell, uint256 taxFeeOnBuy, uint256 taxFeeOnSell) public onlyDev {... */\n    tag_111:\n        /* \"contracts/Pool/Pool.sol\":6157:6169  _msgSender() */\n      tag_206\n        /* \"contracts/Pool/Pool.sol\":6157:6167  _msgSender */\n      tag_155\n        /* \"contracts/Pool/Pool.sol\":6157:6169  _msgSender() */\n      jump\t// in\n    tag_206:\n        /* \"contracts/Pool/Pool.sol\":6146:6169  owner() == _msgSender() */\n      0xffffffffffffffffffffffffffffffffffffffff\n      and\n        /* \"contracts/Pool/Pool.sol\":6146:6153  owner() */\n      tag_207\n        /* \"contracts/Pool/Pool.sol\":6146:6151  owner */\n      tag_101\n        /* \"contracts/Pool/Pool.sol\":6146:6153  owner() */\n      jump\t// in\n    tag_207:\n        /* \"contracts/Pool/Pool.sol\":6146:6169  owner() == _msgSender() */\n      0xffffffffffffffffffffffffffffffffffffffff\n      and\n      eq\n        /* \"contracts/Pool/Pool.sol\":6146:6208  owner() == _msgSender() || _developmentAddress == _msgSender() */\n      dup1\n      tag_208\n      jumpi\n      pop\n        /* \"contracts/Pool/Pool.sol\":6196:6208  _msgSender() */\n      tag_209\n        /* \"contracts/Pool/Pool.sol\":6196:6206  _msgSender */\n      tag_155\n        /* \"contracts/Pool/Pool.sol\":6196:6208  _msgSender() */\n      jump\t// in\n    tag_209:\n        /* \"contracts/Pool/Pool.sol\":6173:6208  _developmentAddress == _msgSender() */\n      0xffffffffffffffffffffffffffffffffffffffff\n      and\n        /* \"contracts/Pool/Pool.sol\":6173:6192  _developmentAddress */\n      0x0e\n      0x01\n      swap1\n      sload\n      swap1\n      0x0100\n      exp\n      swap1\n      div\n      0xffffffffffffffffffffffffffffffffffffffff\n      and\n        /* \"contracts/Pool/Pool.sol\":6173:6208  _developmentAddress == _msgSender() */\n      0xffffffffffffffffffffffffffffffffffffffff\n      and\n      eq\n        /* \"contracts/Pool/Pool.sol\":6146:6208  owner() == _msgSender() || _developmentAddress == _msgSender() */\n    tag_208:\n        /* \"contracts/Pool/Pool.sol\":6138:6234  require(owner() == _msgSender() || _developmentAddress == _msgSender(), \"Caller is not the dev\") */\n      tag_210\n      jumpi\n      mload(0x40)\n      0x08c379a000000000000000000000000000000000000000000000000000000000\n      dup2\n      mstore\n      0x04\n      add\n      tag_211\n      swap1\n      tag_174\n      jump\t// in\n    tag_211:\n      mload(0x40)\n      dup1\n      swap2\n      sub\n      swap1\n      revert\n    tag_210:\n        /* \"contracts/Pool/Pool.sol\":14810:14812  11 */\n      0x0b\n        /* \"contracts/Pool/Pool.sol\":14794:14807  redisFeeOnBuy */\n      dup5\n        /* \"contracts/Pool/Pool.sol\":14794:14812  redisFeeOnBuy < 11 */\n      lt\n        /* \"contracts/Pool/Pool.sol\":14786:14846  require(redisFeeOnBuy < 11, \"Redis cannot be more than 10.\") */\n      tag_213\n      jumpi\n      mload(0x40)\n      0x08c379a000000000000000000000000000000000000000000000000000000000\n      dup2\n      mstore\n      0x04\n      add\n      tag_214\n      swap1\n      tag_215\n      jump\t// in\n    tag_214:\n      mload(0x40)\n      dup1\n      swap2\n      sub\n      swap1\n      revert\n    tag_213:\n        /* \"contracts/Pool/Pool.sol\":14878:14880  11 */\n      0x0b\n        /* \"contracts/Pool/Pool.sol\":14861:14875  redisFeeOnSell */\n      dup4\n        /* \"contracts/Pool/Pool.sol\":14861:14880  redisFeeOnSell < 11 */\n      lt\n        /* \"contracts/Pool/Pool.sol\":14853:14914  require(redisFeeOnSell < 11, \"Redis cannot be more than 10.\") */\n      tag_216\n      jumpi\n      mload(0x40)\n      0x08c379a000000000000000000000000000000000000000000000000000000000\n      dup2\n      mstore\n      0x04\n      add\n      tag_217\n      swap1\n      tag_215\n      jump\t// in\n    tag_217:\n      mload(0x40)\n      dup1\n      swap2\n      sub\n      swap1\n      revert\n    tag_216:\n        /* \"contracts/Pool/Pool.sol\":14943:14944  7 */\n      0x07\n        /* \"contracts/Pool/Pool.sol\":14929:14940  taxFeeOnBuy */\n      dup3\n        /* \"contracts/Pool/Pool.sol\":14929:14944  taxFeeOnBuy < 7 */\n      lt\n        /* \"contracts/Pool/Pool.sol\":14921:14975  require(taxFeeOnBuy < 7, \"Tax cannot be more than 6.\") */\n      tag_218\n      jumpi\n      mload(0x40)\n      0x08c379a000000000000000000000000000000000000000000000000000000000\n      dup2\n      mstore\n      0x04\n      add\n      tag_219\n      swap1\n      tag_220\n      jump\t// in\n    tag_219:\n      mload(0x40)\n      dup1\n      swap2\n      sub\n      swap1\n      revert\n    tag_218:\n        /* \"contracts/Pool/Pool.sol\":15005:15006  7 */\n      0x07\n        /* \"contracts/Pool/Pool.sol\":14990:15002  taxFeeOnSell */\n      dup2\n        /* \"contracts/Pool/Pool.sol\":14990:15006  taxFeeOnSell < 7 */\n      lt\n        /* \"contracts/Pool/Pool.sol\":14982:15037  require(taxFeeOnSell < 7, \"Tax cannot be more than 6.\") */\n      tag_221\n      jumpi\n      mload(0x40)\n      0x08c379a000000000000000000000000000000000000000000000000000000000\n      dup2\n      mstore\n      0x04\n      add\n      tag_222\n      swap1\n      tag_220\n      jump\t// in\n    tag_222:\n      mload(0x40)\n      dup1\n      swap2\n      sub\n      swap1\n      revert\n    tag_221:\n        /* \"contracts/Pool/Pool.sol\":15064:15077  redisFeeOnBuy */\n      dup4\n        /* \"contracts/Pool/Pool.sol\":15047:15061  _redisFeeOnBuy */\n      0x08\n        /* \"contracts/Pool/Pool.sol\":15047:15077  _redisFeeOnBuy = redisFeeOnBuy */\n      dup2\n      swap1\n      sstore\n      pop\n        /* \"contracts/Pool/Pool.sol\":15105:15119  redisFeeOnSell */\n      dup3\n        /* \"contracts/Pool/Pool.sol\":15087:15102  _redisFeeOnSell */\n      0x0a\n        /* \"contracts/Pool/Pool.sol\":15087:15119  _redisFeeOnSell = redisFeeOnSell */\n      dup2\n      swap1\n      sstore\n      pop\n        /* \"contracts/Pool/Pool.sol\":15144:15155  taxFeeOnBuy */\n      dup2\n        /* \"contracts/Pool/Pool.sol\":15129:15141  _taxFeeOnBuy */\n      0x09\n        /* \"contracts/Pool/Pool.sol\":15129:15155  _taxFeeOnBuy = taxFeeOnBuy */\n      dup2\n      swap1\n      sstore\n      pop\n        /* \"contracts/Pool/Pool.sol\":15181:15193  taxFeeOnSell */\n      dup1\n        /* \"contracts/Pool/Pool.sol\":15165:15178  _taxFeeOnSell */\n      0x0b\n        /* \"contracts/Pool/Pool.sol\":15165:15193  _taxFeeOnSell = taxFeeOnSell */\n      dup2\n      swap1\n      sstore\n      pop\n        /* \"contracts/Pool/Pool.sol\":14658:15200  function setFee(uint256 redisFeeOnBuy, uint256 redisFeeOnSell, uint256 taxFeeOnBuy, uint256 taxFeeOnSell) public onlyDev {... */\n      pop\n      pop\n      pop\n      pop\n      jump\t// out\n        /* \"contracts/Pool/Pool.sol\":6766:6930  function transfer(address recipient, uint256 amount) public override returns (bool) {... */\n    tag_115:\n        /* \"contracts/Pool/Pool.sol\":6844:6848  bool */\n      0x00\n        /* \"contracts/Pool/Pool.sol\":6860:6902  _transfer(_msgSender(), recipient, amount) */\n      tag_224\n        /* \"contracts/Pool/Pool.sol\":6870:6882  _msgSender() */\n      tag_225\n        /* \"contracts/Pool/Pool.sol\":6870:6880  _msgSender */\n      tag_155\n        /* \"contracts/Pool/Pool.sol\":6870:6882  _msgSender() */\n      jump\t// in\n    tag_225:\n        /* \"contracts/Pool/Pool.sol\":6884:6893  recipient */\n      dup5\n        /* \"contracts/Pool/Pool.sol\":6895:6901  amount */\n      dup5\n        /* \"contracts/Pool/Pool.sol\":6860:6869  _transfer */\n      tag_160\n        /* \"contracts/Pool/Pool.sol\":6860:6902  _transfer(_msgSender(), recipient, amount) */\n      jump\t// in\n    tag_224:\n        /* \"contracts/Pool/Pool.sol\":6919:6923  true */\n      0x01\n        /* \"contracts/Pool/Pool.sol\":6912:6923  return true */\n      swap1\n      pop\n        /* \"contracts/Pool/Pool.sol\":6766:6930  function transfer(address recipient, uint256 amount) public override returns (bool) {... */\n      swap3\n      swap2\n      pop\n      pop\n      jump\t// out\n        /* \"contracts/Pool/Pool.sol\":11026:11247  function setNewDevAddress(address payable dev) public onlyDev() {... */\n    tag_120:\n        /* \"contracts/Pool/Pool.sol\":6157:6169  _msgSender() */\n      tag_227\n        /* \"contracts/Pool/Pool.sol\":6157:6167  _msgSender */\n      tag_155\n        /* \"contracts/Pool/Pool.sol\":6157:6169  _msgSender() */\n      jump\t// in\n    tag_227:\n        /* \"contracts/Pool/Pool.sol\":6146:6169  owner() == _msgSender() */\n      0xffffffffffffffffffffffffffffffffffffffff\n      and\n        /* \"contracts/Pool/Pool.sol\":6146:6153  owner() */\n      tag_228\n        /* \"contracts/Pool/Pool.sol\":6146:6151  owner */\n      tag_101\n        /* \"contracts/Pool/Pool.sol\":6146:6153  owner() */\n      jump\t// in\n    tag_228:\n        /* \"contracts/Pool/Pool.sol\":6146:6169  owner() == _msgSender() */\n      0xffffffffffffffffffffffffffffffffffffffff\n      and\n      eq\n        /* \"contracts/Pool/Pool.sol\":6146:6208  owner() == _msgSender() || _developmentAddress == _msgSender() */\n      dup1\n      tag_229\n      jumpi\n      pop\n        /* \"contracts/Pool/Pool.sol\":6196:6208  _msgSender() */\n      tag_230\n        /* \"contracts/Pool/Pool.sol\":6196:6206  _msgSender */\n      tag_155\n        /* \"contracts/Pool/Pool.sol\":6196:6208  _msgSender() */\n      jump\t// in\n    tag_230:\n        /* \"contracts/Pool/Pool.sol\":6173:6208  _developmentAddress == _msgSender() */\n      0xffffffffffffffffffffffffffffffffffffffff\n      and\n        /* \"contracts/Pool/Pool.sol\":6173:6192  _developmentAddress */\n      0x0e\n      0x01\n      swap1\n      sload\n      swap1\n      0x0100\n      exp\n      swap1\n      div\n      0xffffffffffffffffffffffffffffffffffffffff\n      and\n        /* \"contracts/Pool/Pool.sol\":6173:6208  _developmentAddress == _msgSender() */\n      0xffffffffffffffffffffffffffffffffffffffff\n      and\n      eq\n        /* \"contracts/Pool/Pool.sol\":6146:6208  owner() == _msgSender() || _developmentAddress == _msgSender() */\n    tag_229:\n        /* \"contracts/Pool/Pool.sol\":6138:6234  require(owner() == _msgSender() || _developmentAddress == _msgSender(), \"Caller is not the dev\") */\n      tag_231\n      jumpi\n      mload(0x40)\n      0x08c379a000000000000000000000000000000000000000000000000000000000\n      dup2\n      mstore\n      0x04\n      add\n      tag_232\n      swap1\n      tag_174\n      jump\t// in\n    tag_232:\n      mload(0x40)\n      dup1\n      swap2\n      sub\n      swap1\n      revert\n    tag_231:\n        /* \"contracts/Pool/Pool.sol\":11144:11147  dev */\n      dup1\n        /* \"contracts/Pool/Pool.sol\":11105:11148  devAddressUpdated(_developmentAddress, dev) */\n      0xffffffffffffffffffffffffffffffffffffffff\n      and\n        /* \"contracts/Pool/Pool.sol\":11123:11142  _developmentAddress */\n      0x0e\n      0x01\n      swap1\n      sload\n      swap1\n      0x0100\n      exp\n      swap1\n      div\n      0xffffffffffffffffffffffffffffffffffffffff\n      and\n        /* \"contracts/Pool/Pool.sol\":11105:11148  devAddressUpdated(_developmentAddress, dev) */\n      0xffffffffffffffffffffffffffffffffffffffff\n      and\n      0xfbbc329437e8c79f847e170730ad6dd04106b7511cad70d06d635886d92de83c\n      mload(0x40)\n      mload(0x40)\n      dup1\n      swap2\n      sub\n      swap1\n      log3\n        /* \"contracts/Pool/Pool.sol\":11181:11184  dev */\n      dup1\n        /* \"contracts/Pool/Pool.sol\":11159:11178  _developmentAddress */\n      0x0e\n      0x01\n        /* \"contracts/Pool/Pool.sol\":11159:11184  _developmentAddress = dev */\n      0x0100\n      exp\n      dup2\n      sload\n      dup2\n      0xffffffffffffffffffffffffffffffffffffffff\n      mul\n      not\n      and\n      swap1\n      dup4\n      0xffffffffffffffffffffffffffffffffffffffff\n      and\n      mul\n      or\n      swap1\n      sstore\n      pop\n        /* \"contracts/Pool/Pool.sol\":11236:11240  true */\n      0x01\n        /* \"contracts/Pool/Pool.sol\":11194:11212  _isExcludedFromFee */\n      0x05\n        /* \"contracts/Pool/Pool.sol\":11194:11233  _isExcludedFromFee[_developmentAddress] */\n      0x00\n        /* \"contracts/Pool/Pool.sol\":11213:11232  _developmentAddress */\n      0x0e\n      0x01\n      swap1\n      sload\n      swap1\n      0x0100\n      exp\n      swap1\n      div\n      0xffffffffffffffffffffffffffffffffffffffff\n      and\n        /* \"contracts/Pool/Pool.sol\":11194:11233  _isExcludedFromFee[_developmentAddress] */\n      0xffffffffffffffffffffffffffffffffffffffff\n      and\n      0xffffffffffffffffffffffffffffffffffffffff\n      and\n      dup2\n      mstore\n      0x20\n      add\n      swap1\n      dup2\n      mstore\n      0x20\n      add\n      0x00\n      keccak256\n      0x00\n        /* \"contracts/Pool/Pool.sol\":11194:11240  _isExcludedFromFee[_developmentAddress] = true */\n      0x0100\n      exp\n      dup2\n      sload\n      dup2\n      0xff\n      mul\n      not\n      and\n      swap1\n      dup4\n      iszero\n      iszero\n      mul\n      or\n      swap1\n      sstore\n      pop\n        /* \"contracts/Pool/Pool.sol\":11026:11247  function setNewDevAddress(address payable dev) public onlyDev() {... */\n      pop\n      jump\t// out\n        /* \"contracts/Pool/Pool.sol\":14125:14384  function manualswap() external {... */\n    tag_123:\n        /* \"contracts/Pool/Pool.sol\":14190:14209  _developmentAddress */\n      0x0e\n      0x01\n      swap1\n      sload\n      swap1\n      0x0100\n      exp\n      swap1\n      div\n      0xffffffffffffffffffffffffffffffffffffffff\n      and\n        /* \"contracts/Pool/Pool.sol\":14174:14209  _msgSender() == _developmentAddress */\n      0xffffffffffffffffffffffffffffffffffffffff\n      and\n        /* \"contracts/Pool/Pool.sol\":14174:14186  _msgSender() */\n      tag_235\n        /* \"contracts/Pool/Pool.sol\":14174:14184  _msgSender */\n      tag_155\n        /* \"contracts/Pool/Pool.sol\":14174:14186  _msgSender() */\n      jump\t// in\n    tag_235:\n        /* \"contracts/Pool/Pool.sol\":14174:14209  _msgSender() == _developmentAddress */\n      0xffffffffffffffffffffffffffffffffffffffff\n      and\n      eq\n        /* \"contracts/Pool/Pool.sol\":14174:14246  _msgSender() == _developmentAddress || _msgSender() == _marketingAddress */\n      dup1\n      tag_236\n      jumpi\n      pop\n        /* \"contracts/Pool/Pool.sol\":14229:14246  _marketingAddress */\n      0x0f\n      0x00\n      swap1\n      sload\n      swap1\n      0x0100\n      exp\n      swap1\n      div\n      0xffffffffffffffffffffffffffffffffffffffff\n      and\n        /* \"contracts/Pool/Pool.sol\":14213:14246  _msgSender() == _marketingAddress */\n      0xffffffffffffffffffffffffffffffffffffffff\n      and\n        /* \"contracts/Pool/Pool.sol\":14213:14225  _msgSender() */\n      tag_237\n        /* \"contracts/Pool/Pool.sol\":14213:14223  _msgSender */\n      tag_155\n        /* \"contracts/Pool/Pool.sol\":14213:14225  _msgSender() */\n      jump\t// in\n    tag_237:\n        /* \"contracts/Pool/Pool.sol\":14213:14246  _msgSender() == _marketingAddress */\n      0xffffffffffffffffffffffffffffffffffffffff\n      and\n      eq\n        /* \"contracts/Pool/Pool.sol\":14174:14246  _msgSender() == _developmentAddress || _msgSender() == _marketingAddress */\n    tag_236:\n        /* \"contracts/Pool/Pool.sol\":14174:14273  _msgSender() == _developmentAddress || _msgSender() == _marketingAddress || _msgSender() == owner() */\n      dup1\n      tag_238\n      jumpi\n      pop\n        /* \"contracts/Pool/Pool.sol\":14266:14273  owner() */\n      tag_239\n        /* \"contracts/Pool/Pool.sol\":14266:14271  owner */\n      tag_101\n        /* \"contracts/Pool/Pool.sol\":14266:14273  owner() */\n      jump\t// in\n    tag_239:\n        /* \"contracts/Pool/Pool.sol\":14250:14273  _msgSender() == owner() */\n      0xffffffffffffffffffffffffffffffffffffffff\n      and\n        /* \"contracts/Pool/Pool.sol\":14250:14262  _msgSender() */\n      tag_240\n        /* \"contracts/Pool/Pool.sol\":14250:14260  _msgSender */\n      tag_155\n        /* \"contracts/Pool/Pool.sol\":14250:14262  _msgSender() */\n      jump\t// in\n    tag_240:\n        /* \"contracts/Pool/Pool.sol\":14250:14273  _msgSender() == owner() */\n      0xffffffffffffffffffffffffffffffffffffffff\n      and\n      eq\n        /* \"contracts/Pool/Pool.sol\":14174:14273  _msgSender() == _developmentAddress || _msgSender() == _marketingAddress || _msgSender() == owner() */\n    tag_238:\n        /* \"contracts/Pool/Pool.sol\":14166:14274  require(_msgSender() == _developmentAddress || _msgSender() == _marketingAddress || _msgSender() == owner()) */\n      tag_241\n      jumpi\n      0x00\n      dup1\n      revert\n    tag_241:\n        /* \"contracts/Pool/Pool.sol\":14284:14307  uint256 contractBalance */\n      0x00\n        /* \"contracts/Pool/Pool.sol\":14310:14334  balanceOf(address(this)) */\n      tag_242\n        /* \"contracts/Pool/Pool.sol\":14328:14332  this */\n      address\n        /* \"contracts/Pool/Pool.sol\":14310:14319  balanceOf */\n      tag_89\n        /* \"contracts/Pool/Pool.sol\":14310:14334  balanceOf(address(this)) */\n      jump\t// in\n    tag_242:\n        /* \"contracts/Pool/Pool.sol\":14284:14334  uint256 contractBalance = balanceOf(address(this)) */\n      swap1\n      pop\n        /* \"contracts/Pool/Pool.sol\":14344:14377  swapTokensForEth(contractBalance) */\n      tag_243\n        /* \"contracts/Pool/Pool.sol\":14361:14376  contractBalance */\n      dup2\n        /* \"contracts/Pool/Pool.sol\":14344:14360  swapTokensForEth */\n      tag_244\n        /* \"contracts/Pool/Pool.sol\":14344:14377  swapTokensForEth(contractBalance) */\n      jump\t// in\n    tag_243:\n        /* \"contracts/Pool/Pool.sol\":14156:14384  {... */\n      pop\n        /* \"contracts/Pool/Pool.sol\":14125:14384  function manualswap() external {... */\n      jump\t// out\n        /* \"contracts/Pool/Pool.sol\":15313:15543  function excludeMultipleAccountsFromFees(address[] calldata accounts, bool excluded) public onlyOwner {... */\n    tag_128:\n        /* \"contracts/Pool/Pool.sol\":3317:3329  _msgSender() */\n      tag_246\n        /* \"contracts/Pool/Pool.sol\":3317:3327  _msgSender */\n      tag_155\n        /* \"contracts/Pool/Pool.sol\":3317:3329  _msgSender() */\n      jump\t// in\n    tag_246:\n        /* \"contracts/Pool/Pool.sol\":3307:3329  _owner == _msgSender() */\n      0xffffffffffffffffffffffffffffffffffffffff\n      and\n        /* \"contracts/Pool/Pool.sol\":3307:3313  _owner */\n      0x00\n      dup1\n      sload\n      swap1\n      0x0100\n      exp\n      swap1\n      div\n      0xffffffffffffffffffffffffffffffffffffffff\n      and\n        /* \"contracts/Pool/Pool.sol\":3307:3329  _owner == _msgSender() */\n      0xffffffffffffffffffffffffffffffffffffffff\n      and\n      eq\n        /* \"contracts/Pool/Pool.sol\":3299:3357  require(_owner == _msgSender(), \"Caller is not the owner\") */\n      tag_247\n      jumpi\n      mload(0x40)\n      0x08c379a000000000000000000000000000000000000000000000000000000000\n      dup2\n      mstore\n      0x04\n      add\n      tag_248\n      swap1\n      tag_193\n      jump\t// in\n    tag_248:\n      mload(0x40)\n      dup1\n      swap2\n      sub\n      swap1\n      revert\n    tag_247:\n        /* \"contracts/Pool/Pool.sol\":15429:15438  uint256 i */\n      0x00\n        /* \"contracts/Pool/Pool.sol\":15425:15537  for(uint256 i = 0; i < accounts.length; i++) {... */\n    tag_250:\n        /* \"contracts/Pool/Pool.sol\":15448:15456  accounts */\n      dup4\n      dup4\n        /* \"contracts/Pool/Pool.sol\":15448:15463  accounts.length */\n      swap1\n      pop\n        /* \"contracts/Pool/Pool.sol\":15444:15445  i */\n      dup2\n        /* \"contracts/Pool/Pool.sol\":15444:15463  i < accounts.length */\n      lt\n        /* \"contracts/Pool/Pool.sol\":15425:15537  for(uint256 i = 0; i < accounts.length; i++) {... */\n      iszero\n      tag_251\n      jumpi\n        /* \"contracts/Pool/Pool.sol\":15518:15526  excluded */\n      dup2\n        /* \"contracts/Pool/Pool.sol\":15484:15502  _isExcludedFromFee */\n      0x05\n        /* \"contracts/Pool/Pool.sol\":15484:15515  _isExcludedFromFee[accounts[i]] */\n      0x00\n        /* \"contracts/Pool/Pool.sol\":15503:15511  accounts */\n      dup7\n      dup7\n        /* \"contracts/Pool/Pool.sol\":15512:15513  i */\n      dup6\n        /* \"contracts/Pool/Pool.sol\":15503:15514  accounts[i] */\n      dup2\n      dup2\n      lt\n      tag_253\n      jumpi\n      tag_254\n      tag_255\n      jump\t// in\n    tag_254:\n    tag_253:\n      swap1\n      pop\n      0x20\n      mul\n      add\n      0x20\n      dup2\n      add\n      swap1\n      tag_256\n      swap2\n      swap1\n      tag_88\n      jump\t// in\n    tag_256:\n        /* \"contracts/Pool/Pool.sol\":15484:15515  _isExcludedFromFee[accounts[i]] */\n      0xffffffffffffffffffffffffffffffffffffffff\n      and\n      0xffffffffffffffffffffffffffffffffffffffff\n      and\n      dup2\n      mstore\n      0x20\n      add\n      swap1\n      dup2\n      mstore\n      0x20\n      add\n      0x00\n      keccak256\n      0x00\n        /* \"contracts/Pool/Pool.sol\":15484:15526  _isExcludedFromFee[accounts[i]] = excluded */\n      0x0100\n      exp\n      dup2\n      sload\n      dup2\n      0xff\n      mul\n      not\n      and\n      swap1\n      dup4\n      iszero\n      iszero\n      mul\n      or\n      swap1\n      sstore\n      pop\n        /* \"contracts/Pool/Pool.sol\":15465:15468  i++ */\n      dup1\n      dup1\n      tag_257\n      swap1\n      tag_258\n      jump\t// in\n    tag_257:\n      swap2\n      pop\n      pop\n        /* \"contracts/Pool/Pool.sol\":15425:15537  for(uint256 i = 0; i < accounts.length; i++) {... */\n      jump(tag_250)\n    tag_251:\n      pop\n        /* \"contracts/Pool/Pool.sol\":15313:15543  function excludeMultipleAccountsFromFees(address[] calldata accounts, bool excluded) public onlyOwner {... */\n      pop\n      pop\n      pop\n      jump\t// out\n        /* \"contracts/Pool/Pool.sol\":5025:5048  address public _factory */\n    tag_131:\n      0x12\n      0x00\n      swap1\n      sload\n      swap1\n      0x0100\n      exp\n      swap1\n      div\n      0xffffffffffffffffffffffffffffffffffffffff\n      and\n      dup2\n      jump\t// out\n        /* \"contracts/Pool/Pool.sol\":9645:9846  function settingPair(address tokenB) public onlyOwner { ... */\n    tag_136:\n        /* \"contracts/Pool/Pool.sol\":3317:3329  _msgSender() */\n      tag_260\n        /* \"contracts/Pool/Pool.sol\":3317:3327  _msgSender */\n      tag_155\n        /* \"contracts/Pool/Pool.sol\":3317:3329  _msgSender() */\n      jump\t// in\n    tag_260:\n        /* \"contracts/Pool/Pool.sol\":3307:3329  _owner == _msgSender() */\n      0xffffffffffffffffffffffffffffffffffffffff\n      and\n        /* \"contracts/Pool/Pool.sol\":3307:3313  _owner */\n      0x00\n      dup1\n      sload\n      swap1\n      0x0100\n      exp\n      swap1\n      div\n      0xffffffffffffffffffffffffffffffffffffffff\n      and\n        /* \"contracts/Pool/Pool.sol\":3307:3329  _owner == _msgSender() */\n      0xffffffffffffffffffffffffffffffffffffffff\n      and\n      eq\n        /* \"contracts/Pool/Pool.sol\":3299:3357  require(_owner == _msgSender(), \"Caller is not the owner\") */\n      tag_261\n      jumpi\n      mload(0x40)\n      0x08c379a000000000000000000000000000000000000000000000000000000000\n      dup2\n      mstore\n      0x04\n      add\n      tag_262\n      swap1\n      tag_193\n      jump\t// in\n    tag_262:\n      mload(0x40)\n      dup1\n      swap2\n      sub\n      swap1\n      revert\n    tag_261:\n        /* \"contracts/Pool/Pool.sol\":9733:9738  false */\n      0x00\n        /* \"contracts/Pool/Pool.sol\":9718:9738  _activePair == false */\n      iszero\n      iszero\n        /* \"contracts/Pool/Pool.sol\":9718:9729  _activePair */\n      0x0e\n      0x00\n      swap1\n      sload\n      swap1\n      0x0100\n      exp\n      swap1\n      div\n      0xff\n      and\n        /* \"contracts/Pool/Pool.sol\":9718:9738  _activePair == false */\n      iszero\n      iszero\n      eq\n        /* \"contracts/Pool/Pool.sol\":9710:9755  require(_activePair == false, \"Actived pair\") */\n      tag_264\n      jumpi\n      mload(0x40)\n      0x08c379a000000000000000000000000000000000000000000000000000000000\n      dup2\n      mstore\n      0x04\n      add\n      tag_265\n      swap1\n      tag_266\n      jump\t// in\n    tag_265:\n      mload(0x40)\n      dup1\n      swap2\n      sub\n      swap1\n      revert\n    tag_264:\n        /* \"contracts/Pool/Pool.sol\":9781:9797  uniswapV2Factory */\n      0x11\n      0x00\n      swap1\n      sload\n      swap1\n      0x0100\n      exp\n      swap1\n      div\n      0xffffffffffffffffffffffffffffffffffffffff\n      and\n        /* \"contracts/Pool/Pool.sol\":9781:9808  uniswapV2Factory.createPair */\n      0xffffffffffffffffffffffffffffffffffffffff\n      and\n      0xc9c65396\n        /* \"contracts/Pool/Pool.sol\":9817:9821  this */\n      address\n        /* \"contracts/Pool/Pool.sol\":9831:9837  tokenB */\n      dup4\n        /* \"contracts/Pool/Pool.sol\":9781:9839  uniswapV2Factory.createPair(address(this),address(tokenB)) */\n      mload(0x40)\n      dup4\n      0xffffffff\n      and\n      0xe0\n      shl\n      dup2\n      mstore\n      0x04\n      add\n      tag_267\n      swap3\n      swap2\n      swap1\n      tag_268\n      jump\t// in\n    tag_267:\n      0x20\n      mload(0x40)\n      dup1\n      dup4\n      sub\n      dup2\n      0x00\n      dup8\n      gas\n      call\n      iszero\n      dup1\n      iszero\n      tag_270\n      jumpi\n      returndatasize\n      0x00\n      dup1\n      returndatacopy\n      revert(0x00, returndatasize)\n    tag_270:\n      pop\n      pop\n      pop\n      pop\n      mload(0x40)\n      returndatasize\n      not(0x1f)\n      0x1f\n      dup3\n      add\n      and\n      dup3\n      add\n      dup1\n      0x40\n      mstore\n      pop\n      dup2\n      add\n      swap1\n      tag_271\n      swap2\n      swap1\n      tag_272\n      jump\t// in\n    tag_271:\n        /* \"contracts/Pool/Pool.sol\":9765:9778  uniswapV2Pair */\n      0x13\n      0x00\n        /* \"contracts/Pool/Pool.sol\":9765:9839  uniswapV2Pair = uniswapV2Factory.createPair(address(this),address(tokenB)) */\n      0x0100\n      exp\n      dup2\n      sload\n      dup2\n      0xffffffffffffffffffffffffffffffffffffffff\n      mul\n      not\n      and\n      swap1\n      dup4\n      0xffffffffffffffffffffffffffffffffffffffff\n      and\n      mul\n      or\n      swap1\n      sstore\n      pop\n        /* \"contracts/Pool/Pool.sol\":9645:9846  function settingPair(address tokenB) public onlyOwner { ... */\n      pop\n      jump\t// out\n        /* \"contracts/Pool/Pool.sol\":6936:7077  function allowance(address owner, address spender) public view override returns (uint256) {... */\n    tag_141:\n        /* \"contracts/Pool/Pool.sol\":7017:7024  uint256 */\n      0x00\n        /* \"contracts/Pool/Pool.sol\":7043:7054  _allowances */\n      0x04\n        /* \"contracts/Pool/Pool.sol\":7043:7061  _allowances[owner] */\n      0x00\n        /* \"contracts/Pool/Pool.sol\":7055:7060  owner */\n      dup5\n        /* \"contracts/Pool/Pool.sol\":7043:7061  _allowances[owner] */\n      0xffffffffffffffffffffffffffffffffffffffff\n      and\n      0xffffffffffffffffffffffffffffffffffffffff\n      and\n      dup2\n      mstore\n      0x20\n      add\n      swap1\n      dup2\n      mstore\n      0x20\n      add\n      0x00\n      keccak256\n        /* \"contracts/Pool/Pool.sol\":7043:7070  _allowances[owner][spender] */\n      0x00\n        /* \"contracts/Pool/Pool.sol\":7062:7069  spender */\n      dup4\n        /* \"contracts/Pool/Pool.sol\":7043:7070  _allowances[owner][spender] */\n      0xffffffffffffffffffffffffffffffffffffffff\n      and\n      0xffffffffffffffffffffffffffffffffffffffff\n      and\n      dup2\n      mstore\n      0x20\n      add\n      swap1\n      dup2\n      mstore\n      0x20\n      add\n      0x00\n      keccak256\n      sload\n        /* \"contracts/Pool/Pool.sol\":7036:7070  return _allowances[owner][spender] */\n      swap1\n      pop\n        /* \"contracts/Pool/Pool.sol\":6936:7077  function allowance(address owner, address spender) public view override returns (uint256) {... */\n      swap3\n      swap2\n      pop\n      pop\n      jump\t// out\n        /* \"contracts/Pool/Pool.sol\":10735:10940  function rescueForeignTokens(address _tokenAddr, address _to, uint _amount) public onlyDev() {... */\n    tag_146:\n        /* \"contracts/Pool/Pool.sol\":6157:6169  _msgSender() */\n      tag_275\n        /* \"contracts/Pool/Pool.sol\":6157:6167  _msgSender */\n      tag_155\n        /* \"contracts/Pool/Pool.sol\":6157:6169  _msgSender() */\n      jump\t// in\n    tag_275:\n        /* \"contracts/Pool/Pool.sol\":6146:6169  owner() == _msgSender() */\n      0xffffffffffffffffffffffffffffffffffffffff\n      and\n        /* \"contracts/Pool/Pool.sol\":6146:6153  owner() */\n      tag_276\n        /* \"contracts/Pool/Pool.sol\":6146:6151  owner */\n      tag_101\n        /* \"contracts/Pool/Pool.sol\":6146:6153  owner() */\n      jump\t// in\n    tag_276:\n        /* \"contracts/Pool/Pool.sol\":6146:6169  owner() == _msgSender() */\n      0xffffffffffffffffffffffffffffffffffffffff\n      and\n      eq\n        /* \"contracts/Pool/Pool.sol\":6146:6208  owner() == _msgSender() || _developmentAddress == _msgSender() */\n      dup1\n      tag_277\n      jumpi\n      pop\n        /* \"contracts/Pool/Pool.sol\":6196:6208  _msgSender() */\n      tag_278\n        /* \"contracts/Pool/Pool.sol\":6196:6206  _msgSender */\n      tag_155\n        /* \"contracts/Pool/Pool.sol\":6196:6208  _msgSender() */\n      jump\t// in\n    tag_278:\n        /* \"contracts/Pool/Pool.sol\":6173:6208  _developmentAddress == _msgSender() */\n      0xffffffffffffffffffffffffffffffffffffffff\n      and\n        /* \"contracts/Pool/Pool.sol\":6173:6192  _developmentAddress */\n      0x0e\n      0x01\n      swap1\n      sload\n      swap1\n      0x0100\n      exp\n      swap1\n      div\n      0xffffffffffffffffffffffffffffffffffffffff\n      and\n        /* \"contracts/Pool/Pool.sol\":6173:6208  _developmentAddress == _msgSender() */\n      0xffffffffffffffffffffffffffffffffffffffff\n      and\n      eq\n        /* \"contracts/Pool/Pool.sol\":6146:6208  owner() == _msgSender() || _developmentAddress == _msgSender() */\n    tag_277:\n        /* \"contracts/Pool/Pool.sol\":6138:6234  require(owner() == _msgSender() || _developmentAddress == _msgSender(), \"Caller is not the dev\") */\n      tag_279\n      jumpi\n      mload(0x40)\n      0x08c379a000000000000000000000000000000000000000000000000000000000\n      dup2\n      mstore\n      0x04\n      add\n      tag_280\n      swap1\n      tag_174\n      jump\t// in\n    tag_280:\n      mload(0x40)\n      dup1\n      swap2\n      sub\n      swap1\n      revert\n    tag_279:\n        /* \"contracts/Pool/Pool.sol\":10869:10872  _to */\n      dup2\n        /* \"contracts/Pool/Pool.sol\":10843:10882  tokensRescued(_tokenAddr, _to, _amount) */\n      0xffffffffffffffffffffffffffffffffffffffff\n      and\n        /* \"contracts/Pool/Pool.sol\":10857:10867  _tokenAddr */\n      dup4\n        /* \"contracts/Pool/Pool.sol\":10843:10882  tokensRescued(_tokenAddr, _to, _amount) */\n      0xffffffffffffffffffffffffffffffffffffffff\n      and\n      0x47c33aa230eb5fd181505aa7befeaddd9b8a6f983989cea73a7868448c3a9ed9\n        /* \"contracts/Pool/Pool.sol\":10874:10881  _amount */\n      dup4\n        /* \"contracts/Pool/Pool.sol\":10843:10882  tokensRescued(_tokenAddr, _to, _amount) */\n      mload(0x40)\n      tag_282\n      swap2\n      swap1\n      tag_55\n      jump\t// in\n    tag_282:\n      mload(0x40)\n      dup1\n      swap2\n      sub\n      swap1\n      log3\n        /* \"contracts/Pool/Pool.sol\":10899:10909  _tokenAddr */\n      dup3\n        /* \"contracts/Pool/Pool.sol\":10893:10919  Token(_tokenAddr).transfer */\n      0xffffffffffffffffffffffffffffffffffffffff\n      and\n      0xa9059cbb\n        /* \"contracts/Pool/Pool.sol\":10920:10923  _to */\n      dup4\n        /* \"contracts/Pool/Pool.sol\":10925:10932  _amount */\n      dup4\n        /* \"contracts/Pool/Pool.sol\":10893:10933  Token(_tokenAddr).transfer(_to, _amount) */\n      mload(0x40)\n      dup4\n      0xffffffff\n      and\n      0xe0\n      shl\n      dup2\n      mstore\n      0x04\n      add\n      tag_283\n      swap3\n      swap2\n      swap1\n      tag_284\n      jump\t// in\n    tag_283:\n      0x20\n      mload(0x40)\n      dup1\n      dup4\n      sub\n      dup2\n      0x00\n      dup8\n      gas\n      call\n      iszero\n      dup1\n      iszero\n      tag_286\n      jumpi\n      returndatasize\n      0x00\n      dup1\n      returndatacopy\n      revert(0x00, returndatasize)\n    tag_286:\n      pop\n      pop\n      pop\n      pop\n      mload(0x40)\n      returndatasize\n      not(0x1f)\n      0x1f\n      dup3\n      add\n      and\n      dup3\n      add\n      dup1\n      0x40\n      mstore\n      pop\n      dup2\n      add\n      swap1\n      tag_287\n      swap2\n      swap1\n      tag_288\n      jump\t// in\n    tag_287:\n      pop\n        /* \"contracts/Pool/Pool.sol\":10735:10940  function rescueForeignTokens(address _tokenAddr, address _to, uint _amount) public onlyDev() {... */\n      pop\n      pop\n      pop\n      jump\t// out\n        /* \"contracts/Pool/Pool.sol\":3625:3782  function transferOwnership(address newOwner) public virtual onlyOwner {... */\n    tag_150:\n        /* \"contracts/Pool/Pool.sol\":3317:3329  _msgSender() */\n      tag_290\n        /* \"contracts/Pool/Pool.sol\":3317:3327  _msgSender */\n      tag_155\n        /* \"contracts/Pool/Pool.sol\":3317:3329  _msgSender() */\n      jump\t// in\n    tag_290:\n        /* \"contracts/Pool/Pool.sol\":3307:3329  _owner == _msgSender() */\n      0xffffffffffffffffffffffffffffffffffffffff\n      and\n        /* \"contracts/Pool/Pool.sol\":3307:3313  _owner */\n      0x00\n      dup1\n      sload\n      swap1\n      0x0100\n      exp\n      swap1\n      div\n      0xffffffffffffffffffffffffffffffffffffffff\n      and\n        /* \"contracts/Pool/Pool.sol\":3307:3329  _owner == _msgSender() */\n      0xffffffffffffffffffffffffffffffffffffffff\n      and\n      eq\n        /* \"contracts/Pool/Pool.sol\":3299:3357  require(_owner == _msgSender(), \"Caller is not the owner\") */\n      tag_291\n      jumpi\n      mload(0x40)\n      0x08c379a000000000000000000000000000000000000000000000000000000000\n      dup2\n      mstore\n      0x04\n      add\n      tag_292\n      swap1\n      tag_193\n      jump\t// in\n    tag_292:\n      mload(0x40)\n      dup1\n      swap2\n      sub\n      swap1\n      revert\n    tag_291:\n        /* \"contracts/Pool/Pool.sol\":3739:3747  newOwner */\n      dup1\n        /* \"contracts/Pool/Pool.sol\":3710:3748  OwnershipTransferred(_owner, newOwner) */\n      0xffffffffffffffffffffffffffffffffffffffff\n      and\n        /* \"contracts/Pool/Pool.sol\":3731:3737  _owner */\n      0x00\n      dup1\n      sload\n      swap1\n      0x0100\n      exp\n      swap1\n      div\n      0xffffffffffffffffffffffffffffffffffffffff\n      and\n        /* \"contracts/Pool/Pool.sol\":3710:3748  OwnershipTransferred(_owner, newOwner) */\n      0xffffffffffffffffffffffffffffffffffffffff\n      and\n      0x8be0079c531659141344cd1fd0a4f28419497f9722a3daafe3b4186f6b6457e0\n      mload(0x40)\n      mload(0x40)\n      dup1\n      swap2\n      sub\n      swap1\n      log3\n        /* \"contracts/Pool/Pool.sol\":3767:3775  newOwner */\n      dup1\n        /* \"contracts/Pool/Pool.sol\":3758:3764  _owner */\n      0x00\n      dup1\n        /* \"contracts/Pool/Pool.sol\":3758:3775  _owner = newOwner */\n      0x0100\n      exp\n      dup2\n      sload\n      dup2\n      0xffffffffffffffffffffffffffffffffffffffff\n      mul\n      not\n      and\n      swap1\n      dup4\n      0xffffffffffffffffffffffffffffffffffffffff\n      and\n      mul\n      or\n      swap1\n      sstore\n      pop\n        /* \"contracts/Pool/Pool.sol\":3625:3782  function transferOwnership(address newOwner) public virtual onlyOwner {... */\n      pop\n      jump\t// out\n        /* \"contracts/Pool/Pool.sol\":1721:1817  function _msgSender() internal view virtual returns (address) {... */\n    tag_155:\n        /* \"contracts/Pool/Pool.sol\":1774:1781  address */\n      0x00\n        /* \"contracts/Pool/Pool.sol\":1800:1810  msg.sender */\n      caller\n        /* \"contracts/Pool/Pool.sol\":1793:1810  return msg.sender */\n      swap1\n      pop\n        /* \"contracts/Pool/Pool.sol\":1721:1817  function _msgSender() internal view virtual returns (address) {... */\n      swap1\n      jump\t// out\n        /* \"contracts/Pool/Pool.sol\":7818:8148  function _approve(address owner, address spender, uint256 amount) private {... */\n    tag_156:\n        /* \"contracts/Pool/Pool.sol\":7927:7928  0 */\n      0x00\n        /* \"contracts/Pool/Pool.sol\":7910:7929  owner != address(0) */\n      0xffffffffffffffffffffffffffffffffffffffff\n      and\n        /* \"contracts/Pool/Pool.sol\":7910:7915  owner */\n      dup4\n        /* \"contracts/Pool/Pool.sol\":7910:7929  owner != address(0) */\n      0xffffffffffffffffffffffffffffffffffffffff\n      and\n      sub\n        /* \"contracts/Pool/Pool.sol\":7902:7970  require(owner != address(0), \"ERC20: approve from the zero address\") */\n      tag_296\n      jumpi\n      mload(0x40)\n      0x08c379a000000000000000000000000000000000000000000000000000000000\n      dup2\n      mstore\n      0x04\n      add\n      tag_297\n      swap1\n      tag_298\n      jump\t// in\n    tag_297:\n      mload(0x40)\n      dup1\n      swap2\n      sub\n      swap1\n      revert\n    tag_296:\n        /* \"contracts/Pool/Pool.sol\":8007:8008  0 */\n      0x00\n        /* \"contracts/Pool/Pool.sol\":7988:8009  spender != address(0) */\n      0xffffffffffffffffffffffffffffffffffffffff\n      and\n        /* \"contracts/Pool/Pool.sol\":7988:7995  spender */\n      dup3\n        /* \"contracts/Pool/Pool.sol\":7988:8009  spender != address(0) */\n      0xffffffffffffffffffffffffffffffffffffffff\n      and\n      sub\n        /* \"contracts/Pool/Pool.sol\":7980:8048  require(spender != address(0), \"ERC20: approve to the zero address\") */\n      tag_299\n      jumpi\n      mload(0x40)\n      0x08c379a000000000000000000000000000000000000000000000000000000000\n      dup2\n      mstore\n      0x04\n      add\n      tag_300\n      swap1\n      tag_301\n      jump\t// in\n    tag_300:\n      mload(0x40)\n      dup1\n      swap2\n      sub\n      swap1\n      revert\n    tag_299:\n        /* \"contracts/Pool/Pool.sol\":8088:8094  amount */\n      dup1\n        /* \"contracts/Pool/Pool.sol\":8058:8069  _allowances */\n      0x04\n        /* \"contracts/Pool/Pool.sol\":8058:8076  _allowances[owner] */\n      0x00\n        /* \"contracts/Pool/Pool.sol\":8070:8075  owner */\n      dup6\n        /* \"contracts/Pool/Pool.sol\":8058:8076  _allowances[owner] */\n      0xffffffffffffffffffffffffffffffffffffffff\n      and\n      0xffffffffffffffffffffffffffffffffffffffff\n      and\n      dup2\n      mstore\n      0x20\n      add\n      swap1\n      dup2\n      mstore\n      0x20\n      add\n      0x00\n      keccak256\n        /* \"contracts/Pool/Pool.sol\":8058:8085  _allowances[owner][spender] */\n      0x00\n        /* \"contracts/Pool/Pool.sol\":8077:8084  spender */\n      dup5\n        /* \"contracts/Pool/Pool.sol\":8058:8085  _allowances[owner][spender] */\n      0xffffffffffffffffffffffffffffffffffffffff\n      and\n      0xffffffffffffffffffffffffffffffffffffffff\n      and\n      dup2\n      mstore\n      0x20\n      add\n      swap1\n      dup2\n      mstore\n      0x20\n      add\n      0x00\n      keccak256\n        /* \"contracts/Pool/Pool.sol\":8058:8094  _allowances[owner][spender] = amount */\n      dup2\n      swap1\n      sstore\n      pop\n        /* \"contracts/Pool/Pool.sol\":8125:8132  spender */\n      dup2\n        /* \"contracts/Pool/Pool.sol\":8109:8141  Approval(owner, spender, amount) */\n      0xffffffffffffffffffffffffffffffffffffffff\n      and\n        /* \"contracts/Pool/Pool.sol\":8118:8123  owner */\n      dup4\n        /* \"contracts/Pool/Pool.sol\":8109:8141  Approval(owner, spender, amount) */\n      0xffffffffffffffffffffffffffffffffffffffff\n      and\n      0x8c5be1e5ebec7d5bd14f71427d1e84f3dd0314c0f7b2291e5b200ac8c7c3b925\n        /* \"contracts/Pool/Pool.sol\":8134:8140  amount */\n      dup4\n        /* \"contracts/Pool/Pool.sol\":8109:8141  Approval(owner, spender, amount) */\n      mload(0x40)\n      tag_302\n      swap2\n      swap1\n      tag_55\n      jump\t// in\n    tag_302:\n      mload(0x40)\n      dup1\n      swap2\n      sub\n      swap1\n      log3\n        /* \"contracts/Pool/Pool.sol\":7818:8148  function _approve(address owner, address spender, uint256 amount) private {... */\n      pop\n      pop\n      pop\n      jump\t// out\n        /* \"contracts/Pool/Pool.sol\":8154:9639  function _transfer(address from, address to, uint256 amount) private {... */\n    tag_160:\n        /* \"contracts/Pool/Pool.sol\":8257:8258  0 */\n      0x00\n        /* \"contracts/Pool/Pool.sol\":8241:8259  from != address(0) */\n      0xffffffffffffffffffffffffffffffffffffffff\n      and\n        /* \"contracts/Pool/Pool.sol\":8241:8245  from */\n      dup4\n        /* \"contracts/Pool/Pool.sol\":8241:8259  from != address(0) */\n      0xffffffffffffffffffffffffffffffffffffffff\n      and\n      sub\n        /* \"contracts/Pool/Pool.sol\":8233:8301  require(from != address(0), \"ERC20: transfer from the zero address\") */\n      tag_304\n      jumpi\n      mload(0x40)\n      0x08c379a000000000000000000000000000000000000000000000000000000000\n      dup2\n      mstore\n      0x04\n      add\n      tag_305\n      swap1\n      tag_306\n      jump\t// in\n    tag_305:\n      mload(0x40)\n      dup1\n      swap2\n      sub\n      swap1\n      revert\n    tag_304:\n        /* \"contracts/Pool/Pool.sol\":8333:8334  0 */\n      0x00\n        /* \"contracts/Pool/Pool.sol\":8319:8335  to != address(0) */\n      0xffffffffffffffffffffffffffffffffffffffff\n      and\n        /* \"contracts/Pool/Pool.sol\":8319:8321  to */\n      dup3\n        /* \"contracts/Pool/Pool.sol\":8319:8335  to != address(0) */\n      0xffffffffffffffffffffffffffffffffffffffff\n      and\n      sub\n        /* \"contracts/Pool/Pool.sol\":8311:8375  require(to != address(0), \"ERC20: transfer to the zero address\") */\n      tag_307\n      jumpi\n      mload(0x40)\n      0x08c379a000000000000000000000000000000000000000000000000000000000\n      dup2\n      mstore\n      0x04\n      add\n      tag_308\n      swap1\n      tag_309\n      jump\t// in\n    tag_308:\n      mload(0x40)\n      dup1\n      swap2\n      sub\n      swap1\n      revert\n    tag_307:\n        /* \"contracts/Pool/Pool.sol\":8402:8403  0 */\n      0x00\n        /* \"contracts/Pool/Pool.sol\":8393:8399  amount */\n      dup2\n        /* \"contracts/Pool/Pool.sol\":8393:8403  amount > 0 */\n      gt\n        /* \"contracts/Pool/Pool.sol\":8385:8449  require(amount > 0, \"Transfer amount must be greater than zero\") */\n      tag_310\n      jumpi\n      mload(0x40)\n      0x08c379a000000000000000000000000000000000000000000000000000000000\n      dup2\n      mstore\n      0x04\n      add\n      tag_311\n      swap1\n      tag_312\n      jump\t// in\n    tag_311:\n      mload(0x40)\n      dup1\n      swap2\n      sub\n      swap1\n      revert\n    tag_310:\n        /* \"contracts/Pool/Pool.sol\":8480:8481  0 */\n      0x00\n        /* \"contracts/Pool/Pool.sol\":8468:8477  _redisFee */\n      0x0c\n        /* \"contracts/Pool/Pool.sol\":8468:8481  _redisFee = 0 */\n      dup2\n      swap1\n      sstore\n      pop\n        /* \"contracts/Pool/Pool.sol\":8501:8502  0 */\n      0x00\n        /* \"contracts/Pool/Pool.sol\":8491:8498  _taxFee */\n      0x0d\n        /* \"contracts/Pool/Pool.sol\":8491:8502  _taxFee = 0 */\n      dup2\n      swap1\n      sstore\n      pop\n        /* \"contracts/Pool/Pool.sol\":8533:8540  owner() */\n      tag_313\n        /* \"contracts/Pool/Pool.sol\":8533:8538  owner */\n      tag_101\n        /* \"contracts/Pool/Pool.sol\":8533:8540  owner() */\n      jump\t// in\n    tag_313:\n        /* \"contracts/Pool/Pool.sol\":8525:8540  from != owner() */\n      0xffffffffffffffffffffffffffffffffffffffff\n      and\n        /* \"contracts/Pool/Pool.sol\":8525:8529  from */\n      dup4\n        /* \"contracts/Pool/Pool.sol\":8525:8540  from != owner() */\n      0xffffffffffffffffffffffffffffffffffffffff\n      and\n      eq\n      iszero\n        /* \"contracts/Pool/Pool.sol\":8525:8557  from != owner() && to != owner() */\n      dup1\n      iszero\n      tag_314\n      jumpi\n      pop\n        /* \"contracts/Pool/Pool.sol\":8550:8557  owner() */\n      tag_315\n        /* \"contracts/Pool/Pool.sol\":8550:8555  owner */\n      tag_101\n        /* \"contracts/Pool/Pool.sol\":8550:8557  owner() */\n      jump\t// in\n    tag_315:\n        /* \"contracts/Pool/Pool.sol\":8544:8557  to != owner() */\n      0xffffffffffffffffffffffffffffffffffffffff\n      and\n        /* \"contracts/Pool/Pool.sol\":8544:8546  to */\n      dup3\n        /* \"contracts/Pool/Pool.sol\":8544:8557  to != owner() */\n      0xffffffffffffffffffffffffffffffffffffffff\n      and\n      eq\n      iszero\n        /* \"contracts/Pool/Pool.sol\":8525:8557  from != owner() && to != owner() */\n    tag_314:\n        /* \"contracts/Pool/Pool.sol\":8521:9592  if (from != owner() && to != owner()) {... */\n      iszero\n      tag_316\n      jumpi\n        /* \"contracts/Pool/Pool.sol\":8586:8614  uint256 contractTokenBalance */\n      0x00\n        /* \"contracts/Pool/Pool.sol\":8617:8641  balanceOf(address(this)) */\n      tag_317\n        /* \"contracts/Pool/Pool.sol\":8635:8639  this */\n      address\n        /* \"contracts/Pool/Pool.sol\":8617:8626  balanceOf */\n      tag_89\n        /* \"contracts/Pool/Pool.sol\":8617:8641  balanceOf(address(this)) */\n      jump\t// in\n    tag_317:\n        /* \"contracts/Pool/Pool.sol\":8586:8641  uint256 contractTokenBalance = balanceOf(address(this)) */\n      swap1\n      pop\n        /* \"contracts/Pool/Pool.sol\":8660:8666  inSwap */\n      0x13\n      0x14\n      swap1\n      sload\n      swap1\n      0x0100\n      exp\n      swap1\n      div\n      0xff\n      and\n        /* \"contracts/Pool/Pool.sol\":8659:8666  !inSwap */\n      iszero\n        /* \"contracts/Pool/Pool.sol\":8659:8691  !inSwap && from != uniswapV2Pair */\n      dup1\n      iszero\n      tag_318\n      jumpi\n      pop\n        /* \"contracts/Pool/Pool.sol\":8678:8691  uniswapV2Pair */\n      0x13\n      0x00\n      swap1\n      sload\n      swap1\n      0x0100\n      exp\n      swap1\n      div\n      0xffffffffffffffffffffffffffffffffffffffff\n      and\n        /* \"contracts/Pool/Pool.sol\":8670:8691  from != uniswapV2Pair */\n      0xffffffffffffffffffffffffffffffffffffffff\n      and\n        /* \"contracts/Pool/Pool.sol\":8670:8674  from */\n      dup5\n        /* \"contracts/Pool/Pool.sol\":8670:8691  from != uniswapV2Pair */\n      0xffffffffffffffffffffffffffffffffffffffff\n      and\n      eq\n      iszero\n        /* \"contracts/Pool/Pool.sol\":8659:8691  !inSwap && from != uniswapV2Pair */\n    tag_318:\n        /* \"contracts/Pool/Pool.sol\":8659:8706  !inSwap && from != uniswapV2Pair && swapEnabled */\n      dup1\n      iszero\n      tag_319\n      jumpi\n      pop\n        /* \"contracts/Pool/Pool.sol\":8695:8706  swapEnabled */\n      0x13\n      0x15\n      swap1\n      sload\n      swap1\n      0x0100\n      exp\n      swap1\n      div\n      0xff\n      and\n        /* \"contracts/Pool/Pool.sol\":8659:8706  !inSwap && from != uniswapV2Pair && swapEnabled */\n    tag_319:\n        /* \"contracts/Pool/Pool.sol\":8659:8734  !inSwap && from != uniswapV2Pair && swapEnabled && contractTokenBalance > 0 */\n      dup1\n      iszero\n      tag_320\n      jumpi\n      pop\n        /* \"contracts/Pool/Pool.sol\":8733:8734  0 */\n      0x00\n        /* \"contracts/Pool/Pool.sol\":8710:8730  contractTokenBalance */\n      dup2\n        /* \"contracts/Pool/Pool.sol\":8710:8734  contractTokenBalance > 0 */\n      gt\n        /* \"contracts/Pool/Pool.sol\":8659:8734  !inSwap && from != uniswapV2Pair && swapEnabled && contractTokenBalance > 0 */\n    tag_320:\n        /* \"contracts/Pool/Pool.sol\":8655:8995  if (!inSwap && from != uniswapV2Pair && swapEnabled && contractTokenBalance > 0) {... */\n      iszero\n      tag_321\n      jumpi\n        /* \"contracts/Pool/Pool.sol\":8754:8792  swapTokensForEth(contractTokenBalance) */\n      tag_322\n        /* \"contracts/Pool/Pool.sol\":8771:8791  contractTokenBalance */\n      dup2\n        /* \"contracts/Pool/Pool.sol\":8754:8770  swapTokensForEth */\n      tag_244\n        /* \"contracts/Pool/Pool.sol\":8754:8792  swapTokensForEth(contractTokenBalance) */\n      jump\t// in\n    tag_322:\n        /* \"contracts/Pool/Pool.sol\":8810:8836  uint256 contractETHBalance */\n      0x00\n        /* \"contracts/Pool/Pool.sol\":8839:8860  address(this).balance */\n      selfbalance\n        /* \"contracts/Pool/Pool.sol\":8810:8860  uint256 contractETHBalance = address(this).balance */\n      swap1\n      pop\n        /* \"contracts/Pool/Pool.sol\":8902:8903  0 */\n      0x00\n        /* \"contracts/Pool/Pool.sol\":8881:8899  contractETHBalance */\n      dup2\n        /* \"contracts/Pool/Pool.sol\":8881:8903  contractETHBalance > 0 */\n      gt\n        /* \"contracts/Pool/Pool.sol\":8878:8981  if(contractETHBalance > 0) {... */\n      iszero\n      tag_323\n      jumpi\n        /* \"contracts/Pool/Pool.sol\":8927:8962  sendETHToFee(address(this).balance) */\n      tag_324\n        /* \"contracts/Pool/Pool.sol\":8940:8961  address(this).balance */\n      selfbalance\n        /* \"contracts/Pool/Pool.sol\":8927:8939  sendETHToFee */\n      tag_185\n        /* \"contracts/Pool/Pool.sol\":8927:8962  sendETHToFee(address(this).balance) */\n      jump\t// in\n    tag_324:\n        /* \"contracts/Pool/Pool.sol\":8878:8981  if(contractETHBalance > 0) {... */\n    tag_323:\n        /* \"contracts/Pool/Pool.sol\":8736:8995  {... */\n      pop\n        /* \"contracts/Pool/Pool.sol\":8655:8995  if (!inSwap && from != uniswapV2Pair && swapEnabled && contractTokenBalance > 0) {... */\n    tag_321:\n        /* \"contracts/Pool/Pool.sol\":9032:9045  uniswapV2Pair */\n      0x13\n      0x00\n      swap1\n      sload\n      swap1\n      0x0100\n      exp\n      swap1\n      div\n      0xffffffffffffffffffffffffffffffffffffffff\n      and\n        /* \"contracts/Pool/Pool.sol\":9024:9045  from == uniswapV2Pair */\n      0xffffffffffffffffffffffffffffffffffffffff\n      and\n        /* \"contracts/Pool/Pool.sol\":9024:9028  from */\n      dup5\n        /* \"contracts/Pool/Pool.sol\":9024:9045  from == uniswapV2Pair */\n      0xffffffffffffffffffffffffffffffffffffffff\n      and\n      eq\n        /* \"contracts/Pool/Pool.sol\":9024:9079  from == uniswapV2Pair && to != address(uniswapV2Router) */\n      dup1\n      iszero\n      tag_325\n      jumpi\n      pop\n        /* \"contracts/Pool/Pool.sol\":9063:9078  uniswapV2Router */\n      0x10\n      0x00\n      swap1\n      sload\n      swap1\n      0x0100\n      exp\n      swap1\n      div\n      0xffffffffffffffffffffffffffffffffffffffff\n      and\n        /* \"contracts/Pool/Pool.sol\":9049:9079  to != address(uniswapV2Router) */\n      0xffffffffffffffffffffffffffffffffffffffff\n      and\n        /* \"contracts/Pool/Pool.sol\":9049:9051  to */\n      dup4\n        /* \"contracts/Pool/Pool.sol\":9049:9079  to != address(uniswapV2Router) */\n      0xffffffffffffffffffffffffffffffffffffffff\n      and\n      eq\n      iszero\n        /* \"contracts/Pool/Pool.sol\":9024:9079  from == uniswapV2Pair && to != address(uniswapV2Router) */\n    tag_325:\n        /* \"contracts/Pool/Pool.sol\":9021:9180  if(from == uniswapV2Pair && to != address(uniswapV2Router)) {... */\n      iszero\n      tag_326\n      jumpi\n        /* \"contracts/Pool/Pool.sol\":9111:9125  _redisFeeOnBuy */\n      sload(0x08)\n        /* \"contracts/Pool/Pool.sol\":9099:9108  _redisFee */\n      0x0c\n        /* \"contracts/Pool/Pool.sol\":9099:9125  _redisFee = _redisFeeOnBuy */\n      dup2\n      swap1\n      sstore\n      pop\n        /* \"contracts/Pool/Pool.sol\":9153:9165  _taxFeeOnBuy */\n      sload(0x09)\n        /* \"contracts/Pool/Pool.sol\":9143:9150  _taxFee */\n      0x0d\n        /* \"contracts/Pool/Pool.sol\":9143:9165  _taxFee = _taxFeeOnBuy */\n      dup2\n      swap1\n      sstore\n      pop\n        /* \"contracts/Pool/Pool.sol\":9021:9180  if(from == uniswapV2Pair && to != address(uniswapV2Router)) {... */\n    tag_326:\n        /* \"contracts/Pool/Pool.sol\":9208:9221  uniswapV2Pair */\n      0x13\n      0x00\n      swap1\n      sload\n      swap1\n      0x0100\n      exp\n      swap1\n      div\n      0xffffffffffffffffffffffffffffffffffffffff\n      and\n        /* \"contracts/Pool/Pool.sol\":9202:9221  to == uniswapV2Pair */\n      0xffffffffffffffffffffffffffffffffffffffff\n      and\n        /* \"contracts/Pool/Pool.sol\":9202:9204  to */\n      dup4\n        /* \"contracts/Pool/Pool.sol\":9202:9221  to == uniswapV2Pair */\n      0xffffffffffffffffffffffffffffffffffffffff\n      and\n      eq\n        /* \"contracts/Pool/Pool.sol\":9202:9257  to == uniswapV2Pair && from != address(uniswapV2Router) */\n      dup1\n      iszero\n      tag_327\n      jumpi\n      pop\n        /* \"contracts/Pool/Pool.sol\":9241:9256  uniswapV2Router */\n      0x10\n      0x00\n      swap1\n      sload\n      swap1\n      0x0100\n      exp\n      swap1\n      div\n      0xffffffffffffffffffffffffffffffffffffffff\n      and\n        /* \"contracts/Pool/Pool.sol\":9225:9257  from != address(uniswapV2Router) */\n      0xffffffffffffffffffffffffffffffffffffffff\n      and\n        /* \"contracts/Pool/Pool.sol\":9225:9229  from */\n      dup5\n        /* \"contracts/Pool/Pool.sol\":9225:9257  from != address(uniswapV2Router) */\n      0xffffffffffffffffffffffffffffffffffffffff\n      and\n      eq\n      iszero\n        /* \"contracts/Pool/Pool.sol\":9202:9257  to == uniswapV2Pair && from != address(uniswapV2Router) */\n    tag_327:\n        /* \"contracts/Pool/Pool.sol\":9198:9360  if (to == uniswapV2Pair && from != address(uniswapV2Router)) {... */\n      iszero\n      tag_328\n      jumpi\n        /* \"contracts/Pool/Pool.sol\":9289:9304  _redisFeeOnSell */\n      sload(0x0a)\n        /* \"contracts/Pool/Pool.sol\":9277:9286  _redisFee */\n      0x0c\n        /* \"contracts/Pool/Pool.sol\":9277:9304  _redisFee = _redisFeeOnSell */\n      dup2\n      swap1\n      sstore\n      pop\n        /* \"contracts/Pool/Pool.sol\":9332:9345  _taxFeeOnSell */\n      sload(0x0b)\n        /* \"contracts/Pool/Pool.sol\":9322:9329  _taxFee */\n      0x0d\n        /* \"contracts/Pool/Pool.sol\":9322:9345  _taxFee = _taxFeeOnSell */\n      dup2\n      swap1\n      sstore\n      pop\n        /* \"contracts/Pool/Pool.sol\":9198:9360  if (to == uniswapV2Pair && from != address(uniswapV2Router)) {... */\n    tag_328:\n        /* \"contracts/Pool/Pool.sol\":9391:9409  _isExcludedFromFee */\n      0x05\n        /* \"contracts/Pool/Pool.sol\":9391:9415  _isExcludedFromFee[from] */\n      0x00\n        /* \"contracts/Pool/Pool.sol\":9410:9414  from */\n      dup6\n        /* \"contracts/Pool/Pool.sol\":9391:9415  _isExcludedFromFee[from] */\n      0xffffffffffffffffffffffffffffffffffffffff\n      and\n      0xffffffffffffffffffffffffffffffffffffffff\n      and\n      dup2\n      mstore\n      0x20\n      add\n      swap1\n      dup2\n      mstore\n      0x20\n      add\n      0x00\n      keccak256\n      0x00\n      swap1\n      sload\n      swap1\n      0x0100\n      exp\n      swap1\n      div\n      0xff\n      and\n        /* \"contracts/Pool/Pool.sol\":9391:9441  _isExcludedFromFee[from] || _isExcludedFromFee[to] */\n      dup1\n      tag_329\n      jumpi\n      pop\n        /* \"contracts/Pool/Pool.sol\":9419:9437  _isExcludedFromFee */\n      0x05\n        /* \"contracts/Pool/Pool.sol\":9419:9441  _isExcludedFromFee[to] */\n      0x00\n        /* \"contracts/Pool/Pool.sol\":9438:9440  to */\n      dup5\n        /* \"contracts/Pool/Pool.sol\":9419:9441  _isExcludedFromFee[to] */\n      0xffffffffffffffffffffffffffffffffffffffff\n      and\n      0xffffffffffffffffffffffffffffffffffffffff\n      and\n      dup2\n      mstore\n      0x20\n      add\n      swap1\n      dup2\n      mstore\n      0x20\n      add\n      0x00\n      keccak256\n      0x00\n      swap1\n      sload\n      swap1\n      0x0100\n      exp\n      swap1\n      div\n      0xff\n      and\n        /* \"contracts/Pool/Pool.sol\":9391:9441  _isExcludedFromFee[from] || _isExcludedFromFee[to] */\n    tag_329:\n        /* \"contracts/Pool/Pool.sol\":9390:9492  (_isExcludedFromFee[from] || _isExcludedFromFee[to]) || (from != uniswapV2Pair && to != uniswapV2Pair) */\n      dup1\n      tag_330\n      jumpi\n      pop\n        /* \"contracts/Pool/Pool.sol\":9455:9468  uniswapV2Pair */\n      0x13\n      0x00\n      swap1\n      sload\n      swap1\n      0x0100\n      exp\n      swap1\n      div\n      0xffffffffffffffffffffffffffffffffffffffff\n      and\n        /* \"contracts/Pool/Pool.sol\":9447:9468  from != uniswapV2Pair */\n      0xffffffffffffffffffffffffffffffffffffffff\n      and\n        /* \"contracts/Pool/Pool.sol\":9447:9451  from */\n      dup5\n        /* \"contracts/Pool/Pool.sol\":9447:9468  from != uniswapV2Pair */\n      0xffffffffffffffffffffffffffffffffffffffff\n      and\n      eq\n      iszero\n        /* \"contracts/Pool/Pool.sol\":9447:9491  from != uniswapV2Pair && to != uniswapV2Pair */\n      dup1\n      iszero\n      tag_331\n      jumpi\n      pop\n        /* \"contracts/Pool/Pool.sol\":9478:9491  uniswapV2Pair */\n      0x13\n      0x00\n      swap1\n      sload\n      swap1\n      0x0100\n      exp\n      swap1\n      div\n      0xffffffffffffffffffffffffffffffffffffffff\n      and\n        /* \"contracts/Pool/Pool.sol\":9472:9491  to != uniswapV2Pair */\n      0xffffffffffffffffffffffffffffffffffffffff\n      and\n        /* \"contracts/Pool/Pool.sol\":9472:9474  to */\n      dup4\n        /* \"contracts/Pool/Pool.sol\":9472:9491  to != uniswapV2Pair */\n      0xffffffffffffffffffffffffffffffffffffffff\n      and\n      eq\n      iszero\n        /* \"contracts/Pool/Pool.sol\":9447:9491  from != uniswapV2Pair && to != uniswapV2Pair */\n    tag_331:\n        /* \"contracts/Pool/Pool.sol\":9390:9492  (_isExcludedFromFee[from] || _isExcludedFromFee[to]) || (from != uniswapV2Pair && to != uniswapV2Pair) */\n    tag_330:\n        /* \"contracts/Pool/Pool.sol\":9386:9569  if ((_isExcludedFromFee[from] || _isExcludedFromFee[to]) || (from != uniswapV2Pair && to != uniswapV2Pair)) {... */\n      iszero\n      tag_332\n      jumpi\n        /* \"contracts/Pool/Pool.sol\":9524:9525  0 */\n      0x00\n        /* \"contracts/Pool/Pool.sol\":9512:9521  _redisFee */\n      0x0c\n        /* \"contracts/Pool/Pool.sol\":9512:9525  _redisFee = 0 */\n      dup2\n      swap1\n      sstore\n      pop\n        /* \"contracts/Pool/Pool.sol\":9553:9554  0 */\n      0x00\n        /* \"contracts/Pool/Pool.sol\":9543:9550  _taxFee */\n      0x0d\n        /* \"contracts/Pool/Pool.sol\":9543:9554  _taxFee = 0 */\n      dup2\n      swap1\n      sstore\n      pop\n        /* \"contracts/Pool/Pool.sol\":9386:9569  if ((_isExcludedFromFee[from] || _isExcludedFromFee[to]) || (from != uniswapV2Pair && to != uniswapV2Pair)) {... */\n    tag_332:\n        /* \"contracts/Pool/Pool.sol\":8559:9592  {... */\n      pop\n        /* \"contracts/Pool/Pool.sol\":8521:9592  if (from != owner() && to != owner()) {... */\n    tag_316:\n        /* \"contracts/Pool/Pool.sol\":9602:9632  _tokenTransfer(from,to,amount) */\n      tag_333\n        /* \"contracts/Pool/Pool.sol\":9617:9621  from */\n      dup4\n        /* \"contracts/Pool/Pool.sol\":9622:9624  to */\n      dup4\n        /* \"contracts/Pool/Pool.sol\":9625:9631  amount */\n      dup4\n        /* \"contracts/Pool/Pool.sol\":9602:9616  _tokenTransfer */\n      tag_334\n        /* \"contracts/Pool/Pool.sol\":9602:9632  _tokenTransfer(from,to,amount) */\n      jump\t// in\n    tag_333:\n        /* \"contracts/Pool/Pool.sol\":8154:9639  function _transfer(address from, address to, uint256 amount) private {... */\n      pop\n      pop\n      pop\n      jump\t// out\n        /* \"contracts/Pool/Pool.sol\":2167:2353  function sub(uint256 a, uint256 b, string memory errorMessage) internal pure returns (uint256) {... */\n    tag_165:\n        /* \"contracts/Pool/Pool.sol\":2253:2260  uint256 */\n      0x00\n        /* \"contracts/Pool/Pool.sol\":2285:2286  a */\n      dup4\n        /* \"contracts/Pool/Pool.sol\":2280:2281  b */\n      dup4\n        /* \"contracts/Pool/Pool.sol\":2280:2286  b <= a */\n      gt\n      iszero\n        /* \"contracts/Pool/Pool.sol\":2288:2300  errorMessage */\n      dup3\n        /* \"contracts/Pool/Pool.sol\":2272:2301  require(b <= a, errorMessage) */\n      swap1\n      tag_336\n      jumpi\n      mload(0x40)\n      0x08c379a000000000000000000000000000000000000000000000000000000000\n      dup2\n      mstore\n      0x04\n      add\n      tag_337\n      swap2\n      swap1\n      tag_38\n      jump\t// in\n    tag_337:\n      mload(0x40)\n      dup1\n      swap2\n      sub\n      swap1\n      revert\n    tag_336:\n      pop\n        /* \"contracts/Pool/Pool.sol\":2311:2320  uint256 c */\n      0x00\n        /* \"contracts/Pool/Pool.sol\":2327:2328  b */\n      dup4\n        /* \"contracts/Pool/Pool.sol\":2323:2324  a */\n      dup6\n        /* \"contracts/Pool/Pool.sol\":2323:2328  a - b */\n      tag_338\n      swap2\n      swap1\n      tag_339\n      jump\t// in\n    tag_338:\n        /* \"contracts/Pool/Pool.sol\":2311:2328  uint256 c = a - b */\n      swap1\n      pop\n        /* \"contracts/Pool/Pool.sol\":2345:2346  c */\n      dup1\n        /* \"contracts/Pool/Pool.sol\":2338:2346  return c */\n      swap2\n      pop\n      pop\n        /* \"contracts/Pool/Pool.sol\":2167:2353  function sub(uint256 a, uint256 b, string memory errorMessage) internal pure returns (uint256) {... */\n      swap4\n      swap3\n      pop\n      pop\n      pop\n      jump\t// out\n        /* \"contracts/Pool/Pool.sol\":10337:10494  function sendETHToFee(uint256 amount) private {... */\n    tag_185:\n        /* \"contracts/Pool/Pool.sol\":10393:10412  _developmentAddress */\n      0x0e\n      0x01\n      swap1\n      sload\n      swap1\n      0x0100\n      exp\n      swap1\n      div\n      0xffffffffffffffffffffffffffffffffffffffff\n      and\n        /* \"contracts/Pool/Pool.sol\":10393:10421  _developmentAddress.transfer */\n      0xffffffffffffffffffffffffffffffffffffffff\n      and\n        /* \"contracts/Pool/Pool.sol\":10393:10436  _developmentAddress.transfer(amount.div(2)) */\n      0x08fc\n        /* \"contracts/Pool/Pool.sol\":10422:10435  amount.div(2) */\n      tag_341\n        /* \"contracts/Pool/Pool.sol\":10433:10434  2 */\n      0x02\n        /* \"contracts/Pool/Pool.sol\":10422:10428  amount */\n      dup5\n        /* \"contracts/Pool/Pool.sol\":10422:10432  amount.div */\n      tag_342\n      swap1\n        /* \"contracts/Pool/Pool.sol\":10422:10435  amount.div(2) */\n      swap2\n      swap1\n      0xffffffff\n      and\n      jump\t// in\n    tag_341:\n        /* \"contracts/Pool/Pool.sol\":10393:10436  _developmentAddress.transfer(amount.div(2)) */\n      swap1\n      dup2\n      iszero\n      mul\n      swap1\n      mload(0x40)\n      0x00\n      mload(0x40)\n      dup1\n      dup4\n      sub\n      dup2\n      dup6\n      dup9\n      dup9\n      call\n      swap4\n      pop\n      pop\n      pop\n      pop\n      iszero\n      dup1\n      iszero\n      tag_344\n      jumpi\n      returndatasize\n      0x00\n      dup1\n      returndatacopy\n      revert(0x00, returndatasize)\n    tag_344:\n      pop\n        /* \"contracts/Pool/Pool.sol\":10446:10463  _marketingAddress */\n      0x0f\n      0x00\n      swap1\n      sload\n      swap1\n      0x0100\n      exp\n      swap1\n      div\n      0xffffffffffffffffffffffffffffffffffffffff\n      and\n        /* \"contracts/Pool/Pool.sol\":10446:10472  _marketingAddress.transfer */\n      0xffffffffffffffffffffffffffffffffffffffff\n      and\n        /* \"contracts/Pool/Pool.sol\":10446:10487  _marketingAddress.transfer(amount.div(2)) */\n      0x08fc\n        /* \"contracts/Pool/Pool.sol\":10473:10486  amount.div(2) */\n      tag_345\n        /* \"contracts/Pool/Pool.sol\":10484:10485  2 */\n      0x02\n        /* \"contracts/Pool/Pool.sol\":10473:10479  amount */\n      dup5\n        /* \"contracts/Pool/Pool.sol\":10473:10483  amount.div */\n      tag_342\n      swap1\n        /* \"contracts/Pool/Pool.sol\":10473:10486  amount.div(2) */\n      swap2\n      swap1\n      0xffffffff\n      and\n      jump\t// in\n    tag_345:\n        /* \"contracts/Pool/Pool.sol\":10446:10487  _marketingAddress.transfer(amount.div(2)) */\n      swap1\n      dup2\n      iszero\n      mul\n      swap1\n      mload(0x40)\n      0x00\n      mload(0x40)\n      dup1\n      dup4\n      sub\n      dup2\n      dup6\n      dup9\n      dup9\n      call\n      swap4\n      pop\n      pop\n      pop\n      pop\n      iszero\n      dup1\n      iszero\n      tag_347\n      jumpi\n      returndatasize\n      0x00\n      dup1\n      returndatacopy\n      revert(0x00, returndatasize)\n    tag_347:\n      pop\n        /* \"contracts/Pool/Pool.sol\":10337:10494  function sendETHToFee(uint256 amount) private {... */\n      pop\n      jump\t// out\n        /* \"contracts/Pool/Pool.sol\":7562:7812  function tokenFromReflection(uint256 rAmount) private view returns(uint256) {... */\n    tag_188:\n        /* \"contracts/Pool/Pool.sol\":7629:7636  uint256 */\n      0x00\n        /* \"contracts/Pool/Pool.sol\":7667:7674  _rTotal */\n      sload(0x06)\n        /* \"contracts/Pool/Pool.sol\":7656:7663  rAmount */\n      dup3\n        /* \"contracts/Pool/Pool.sol\":7656:7674  rAmount <= _rTotal */\n      gt\n      iszero\n        /* \"contracts/Pool/Pool.sol\":7648:7721  require(rAmount <= _rTotal, \"Amount must be less than total reflections\") */\n      tag_349\n      jumpi\n      mload(0x40)\n      0x08c379a000000000000000000000000000000000000000000000000000000000\n      dup2\n      mstore\n      0x04\n      add\n      tag_350\n      swap1\n      tag_351\n      jump\t// in\n    tag_350:\n      mload(0x40)\n      dup1\n      swap2\n      sub\n      swap1\n      revert\n    tag_349:\n        /* \"contracts/Pool/Pool.sol\":7731:7750  uint256 currentRate */\n      0x00\n        /* \"contracts/Pool/Pool.sol\":7754:7764  _getRate() */\n      tag_352\n        /* \"contracts/Pool/Pool.sol\":7754:7762  _getRate */\n      tag_353\n        /* \"contracts/Pool/Pool.sol\":7754:7764  _getRate() */\n      jump\t// in\n    tag_352:\n        /* \"contracts/Pool/Pool.sol\":7731:7764  uint256 currentRate =  _getRate() */\n      swap1\n      pop\n        /* \"contracts/Pool/Pool.sol\":7781:7805  rAmount.div(currentRate) */\n      tag_354\n        /* \"contracts/Pool/Pool.sol\":7793:7804  currentRate */\n      dup2\n        /* \"contracts/Pool/Pool.sol\":7781:7788  rAmount */\n      dup5\n        /* \"contracts/Pool/Pool.sol\":7781:7792  rAmount.div */\n      tag_342\n      swap1\n        /* \"contracts/Pool/Pool.sol\":7781:7805  rAmount.div(currentRate) */\n      swap2\n      swap1\n      0xffffffff\n      and\n      jump\t// in\n    tag_354:\n        /* \"contracts/Pool/Pool.sol\":7774:7805  return rAmount.div(currentRate) */\n      swap2\n      pop\n      pop\n        /* \"contracts/Pool/Pool.sol\":7562:7812  function tokenFromReflection(uint256 rAmount) private view returns(uint256) {... */\n      swap2\n      swap1\n      pop\n      jump\t// out\n        /* \"contracts/Pool/Pool.sol\":9852:10323  function swapTokensForEth(uint256 tokenAmount) private lockTheSwap {... */\n    tag_244:\n        /* \"contracts/Pool/Pool.sol\":5208:5212  true */\n      0x01\n        /* \"contracts/Pool/Pool.sol\":5199:5205  inSwap */\n      0x13\n      0x14\n        /* \"contracts/Pool/Pool.sol\":5199:5212  inSwap = true */\n      0x0100\n      exp\n      dup2\n      sload\n      dup2\n      0xff\n      mul\n      not\n      and\n      swap1\n      dup4\n      iszero\n      iszero\n      mul\n      or\n      swap1\n      sstore\n      pop\n        /* \"contracts/Pool/Pool.sol\":9929:9950  address[] memory path */\n      0x00\n        /* \"contracts/Pool/Pool.sol\":9967:9968  2 */\n      0x02\n        /* \"contracts/Pool/Pool.sol\":9953:9969  new address[](2) */\n      0xffffffffffffffff\n      dup2\n      gt\n      iszero\n      tag_357\n      jumpi\n      tag_358\n      tag_359\n      jump\t// in\n    tag_358:\n    tag_357:\n      mload(0x40)\n      swap1\n      dup1\n      dup3\n      mstore\n      dup1\n      0x20\n      mul\n      0x20\n      add\n      dup3\n      add\n      0x40\n      mstore\n      dup1\n      iszero\n      tag_360\n      jumpi\n      dup2\n      0x20\n      add\n      0x20\n      dup3\n      mul\n      dup1\n      calldatasize\n      dup4\n      calldatacopy\n      dup1\n      dup3\n      add\n      swap2\n      pop\n      pop\n      swap1\n      pop\n    tag_360:\n      pop\n        /* \"contracts/Pool/Pool.sol\":9929:9969  address[] memory path = new address[](2) */\n      swap1\n      pop\n        /* \"contracts/Pool/Pool.sol\":9997:10001  this */\n      address\n        /* \"contracts/Pool/Pool.sol\":9979:9983  path */\n      dup2\n        /* \"contracts/Pool/Pool.sol\":9984:9985  0 */\n      0x00\n        /* \"contracts/Pool/Pool.sol\":9979:9986  path[0] */\n      dup2\n      mload\n      dup2\n      lt\n      tag_361\n      jumpi\n      tag_362\n      tag_255\n      jump\t// in\n    tag_362:\n    tag_361:\n      0x20\n      mul\n      0x20\n      add\n      add\n        /* \"contracts/Pool/Pool.sol\":9979:10002  path[0] = address(this) */\n      swap1\n      0xffffffffffffffffffffffffffffffffffffffff\n      and\n      swap1\n      dup2\n      0xffffffffffffffffffffffffffffffffffffffff\n      and\n      dup2\n      mstore\n      pop\n      pop\n        /* \"contracts/Pool/Pool.sol\":10022:10037  uniswapV2Router */\n      0x10\n      0x00\n      swap1\n      sload\n      swap1\n      0x0100\n      exp\n      swap1\n      div\n      0xffffffffffffffffffffffffffffffffffffffff\n      and\n        /* \"contracts/Pool/Pool.sol\":10022:10042  uniswapV2Router.WETH */\n      0xffffffffffffffffffffffffffffffffffffffff\n      and\n      0xad5c4648\n        /* \"contracts/Pool/Pool.sol\":10022:10044  uniswapV2Router.WETH() */\n      mload(0x40)\n      dup2\n      0xffffffff\n      and\n      0xe0\n      shl\n      dup2\n      mstore\n      0x04\n      add\n      0x20\n      mload(0x40)\n      dup1\n      dup4\n      sub\n      dup2\n      dup7\n      gas\n      staticcall\n      iszero\n      dup1\n      iszero\n      tag_364\n      jumpi\n      returndatasize\n      0x00\n      dup1\n      returndatacopy\n      revert(0x00, returndatasize)\n    tag_364:\n      pop\n      pop\n      pop\n      pop\n      mload(0x40)\n      returndatasize\n      not(0x1f)\n      0x1f\n      dup3\n      add\n      and\n      dup3\n      add\n      dup1\n      0x40\n      mstore\n      pop\n      dup2\n      add\n      swap1\n      tag_365\n      swap2\n      swap1\n      tag_272\n      jump\t// in\n    tag_365:\n        /* \"contracts/Pool/Pool.sol\":10012:10016  path */\n      dup2\n        /* \"contracts/Pool/Pool.sol\":10017:10018  1 */\n      0x01\n        /* \"contracts/Pool/Pool.sol\":10012:10019  path[1] */\n      dup2\n      mload\n      dup2\n      lt\n      tag_366\n      jumpi\n      tag_367\n      tag_255\n      jump\t// in\n    tag_367:\n    tag_366:\n      0x20\n      mul\n      0x20\n      add\n      add\n        /* \"contracts/Pool/Pool.sol\":10012:10044  path[1] = uniswapV2Router.WETH() */\n      swap1\n      0xffffffffffffffffffffffffffffffffffffffff\n      and\n      swap1\n      dup2\n      0xffffffffffffffffffffffffffffffffffffffff\n      and\n      dup2\n      mstore\n      pop\n      pop\n        /* \"contracts/Pool/Pool.sol\":10054:10116  _approve(address(this), address(uniswapV2Router), tokenAmount) */\n      tag_368\n        /* \"contracts/Pool/Pool.sol\":10071:10075  this */\n      address\n        /* \"contracts/Pool/Pool.sol\":10086:10101  uniswapV2Router */\n      0x10\n      0x00\n      swap1\n      sload\n      swap1\n      0x0100\n      exp\n      swap1\n      div\n      0xffffffffffffffffffffffffffffffffffffffff\n      and\n        /* \"contracts/Pool/Pool.sol\":10104:10115  tokenAmount */\n      dup5\n        /* \"contracts/Pool/Pool.sol\":10054:10062  _approve */\n      tag_156\n        /* \"contracts/Pool/Pool.sol\":10054:10116  _approve(address(this), address(uniswapV2Router), tokenAmount) */\n      jump\t// in\n    tag_368:\n        /* \"contracts/Pool/Pool.sol\":10126:10141  uniswapV2Router */\n      0x10\n      0x00\n      swap1\n      sload\n      swap1\n      0x0100\n      exp\n      swap1\n      div\n      0xffffffffffffffffffffffffffffffffffffffff\n      and\n        /* \"contracts/Pool/Pool.sol\":10126:10192  uniswapV2Router.swapExactTokensForETHSupportingFeeOnTransferTokens */\n      0xffffffffffffffffffffffffffffffffffffffff\n      and\n      0x791ac947\n        /* \"contracts/Pool/Pool.sol\":10206:10217  tokenAmount */\n      dup4\n        /* \"contracts/Pool/Pool.sol\":10231:10232  0 */\n      0x00\n        /* \"contracts/Pool/Pool.sol\":10246:10250  path */\n      dup5\n        /* \"contracts/Pool/Pool.sol\":10272:10276  this */\n      address\n        /* \"contracts/Pool/Pool.sol\":10291:10306  block.timestamp */\n      timestamp\n        /* \"contracts/Pool/Pool.sol\":10126:10316  uniswapV2Router.swapExactTokensForETHSupportingFeeOnTransferTokens(... */\n      mload(0x40)\n      dup7\n      0xffffffff\n      and\n      0xe0\n      shl\n      dup2\n      mstore\n      0x04\n      add\n      tag_369\n      swap6\n      swap5\n      swap4\n      swap3\n      swap2\n      swap1\n      tag_370\n      jump\t// in\n    tag_369:\n      0x00\n      mload(0x40)\n      dup1\n      dup4\n      sub\n      dup2\n      0x00\n      dup8\n      dup1\n      extcodesize\n      iszero\n      dup1\n      iszero\n      tag_371\n      jumpi\n      0x00\n      dup1\n      revert\n    tag_371:\n      pop\n      gas\n      call\n      iszero\n      dup1\n      iszero\n      tag_373\n      jumpi\n      returndatasize\n      0x00\n      dup1\n      returndatacopy\n      revert(0x00, returndatasize)\n    tag_373:\n      pop\n      pop\n      pop\n      pop\n        /* \"contracts/Pool/Pool.sol\":9919:10323  {... */\n      pop\n        /* \"contracts/Pool/Pool.sol\":5242:5247  false */\n      0x00\n        /* \"contracts/Pool/Pool.sol\":5233:5239  inSwap */\n      0x13\n      0x14\n        /* \"contracts/Pool/Pool.sol\":5233:5247  inSwap = false */\n      0x0100\n      exp\n      dup2\n      sload\n      dup2\n      0xff\n      mul\n      not\n      and\n      swap1\n      dup4\n      iszero\n      iszero\n      mul\n      or\n      swap1\n      sstore\n      pop\n        /* \"contracts/Pool/Pool.sol\":9852:10323  function swapTokensForEth(uint256 tokenAmount) private lockTheSwap {... */\n      pop\n      jump\t// out\n        /* \"contracts/Pool/Pool.sol\":10504:10648  function _tokenTransfer(address sender, address recipient, uint256 amount) private {... */\n    tag_334:\n        /* \"contracts/Pool/Pool.sol\":10597:10641  _transferStandard(sender, recipient, amount) */\n      tag_375\n        /* \"contracts/Pool/Pool.sol\":10615:10621  sender */\n      dup4\n        /* \"contracts/Pool/Pool.sol\":10623:10632  recipient */\n      dup4\n        /* \"contracts/Pool/Pool.sol\":10634:10640  amount */\n      dup4\n        /* \"contracts/Pool/Pool.sol\":10597:10614  _transferStandard */\n      tag_376\n        /* \"contracts/Pool/Pool.sol\":10597:10641  _transferStandard(sender, recipient, amount) */\n      jump\t// in\n    tag_375:\n        /* \"contracts/Pool/Pool.sol\":10504:10648  function _tokenTransfer(address sender, address recipient, uint256 amount) private {... */\n      pop\n      pop\n      pop\n      jump\t// out\n        /* \"contracts/Pool/Pool.sol\":2604:2734  function div(uint256 a, uint256 b) internal pure returns (uint256) {... */\n    tag_342:\n        /* \"contracts/Pool/Pool.sol\":2662:2669  uint256 */\n      0x00\n        /* \"contracts/Pool/Pool.sol\":2688:2727  div(a, b, \"SafeMath: division by zero\") */\n      tag_378\n        /* \"contracts/Pool/Pool.sol\":2692:2693  a */\n      dup4\n        /* \"contracts/Pool/Pool.sol\":2695:2696  b */\n      dup4\n        /* \"contracts/Pool/Pool.sol\":2688:2727  div(a, b, \"SafeMath: division by zero\") */\n      mload(0x40)\n      dup1\n      0x40\n      add\n      0x40\n      mstore\n      dup1\n      0x1a\n      dup2\n      mstore\n      0x20\n      add\n      0x536166654d6174683a206469766973696f6e206279207a65726f000000000000\n      dup2\n      mstore\n      pop\n        /* \"contracts/Pool/Pool.sol\":2688:2691  div */\n      tag_379\n        /* \"contracts/Pool/Pool.sol\":2688:2727  div(a, b, \"SafeMath: division by zero\") */\n      jump\t// in\n    tag_378:\n        /* \"contracts/Pool/Pool.sol\":2681:2727  return div(a, b, \"SafeMath: division by zero\") */\n      swap1\n      pop\n        /* \"contracts/Pool/Pool.sol\":2604:2734  function div(uint256 a, uint256 b) internal pure returns (uint256) {... */\n      swap3\n      swap2\n      pop\n      pop\n      jump\t// out\n        /* \"contracts/Pool/Pool.sol\":13696:13856  function _getRate() private view returns(uint256) {... */\n    tag_353:\n        /* \"contracts/Pool/Pool.sol\":13737:13744  uint256 */\n      0x00\n        /* \"contracts/Pool/Pool.sol\":13757:13772  uint256 rSupply */\n      dup1\n        /* \"contracts/Pool/Pool.sol\":13774:13789  uint256 tSupply */\n      0x00\n        /* \"contracts/Pool/Pool.sol\":13793:13812  _getCurrentSupply() */\n      tag_381\n        /* \"contracts/Pool/Pool.sol\":13793:13810  _getCurrentSupply */\n      tag_382\n        /* \"contracts/Pool/Pool.sol\":13793:13812  _getCurrentSupply() */\n      jump\t// in\n    tag_381:\n        /* \"contracts/Pool/Pool.sol\":13756:13812  (uint256 rSupply, uint256 tSupply) = _getCurrentSupply() */\n      swap2\n      pop\n      swap2\n      pop\n        /* \"contracts/Pool/Pool.sol\":13829:13849  rSupply.div(tSupply) */\n      tag_383\n        /* \"contracts/Pool/Pool.sol\":13841:13848  tSupply */\n      dup2\n        /* \"contracts/Pool/Pool.sol\":13829:13836  rSupply */\n      dup4\n        /* \"contracts/Pool/Pool.sol\":13829:13840  rSupply.div */\n      tag_342\n      swap1\n        /* \"contracts/Pool/Pool.sol\":13829:13849  rSupply.div(tSupply) */\n      swap2\n      swap1\n      0xffffffff\n      and\n      jump\t// in\n    tag_383:\n        /* \"contracts/Pool/Pool.sol\":13822:13849  return rSupply.div(tSupply) */\n      swap3\n      pop\n      pop\n      pop\n        /* \"contracts/Pool/Pool.sol\":13696:13856  function _getRate() private view returns(uint256) {... */\n      swap1\n      jump\t// out\n        /* \"contracts/Pool/Pool.sol\":11578:12059  function _transferStandard(address sender, address recipient, uint256 tAmount) private {... */\n    tag_376:\n        /* \"contracts/Pool/Pool.sol\":11676:11691  uint256 rAmount */\n      0x00\n        /* \"contracts/Pool/Pool.sol\":11693:11716  uint256 rTransferAmount */\n      dup1\n        /* \"contracts/Pool/Pool.sol\":11718:11730  uint256 rFee */\n      0x00\n        /* \"contracts/Pool/Pool.sol\":11732:11755  uint256 tTransferAmount */\n      dup1\n        /* \"contracts/Pool/Pool.sol\":11757:11769  uint256 tFee */\n      0x00\n        /* \"contracts/Pool/Pool.sol\":11771:11784  uint256 tTeam */\n      dup1\n        /* \"contracts/Pool/Pool.sol\":11788:11807  _getValues(tAmount) */\n      tag_385\n        /* \"contracts/Pool/Pool.sol\":11799:11806  tAmount */\n      dup8\n        /* \"contracts/Pool/Pool.sol\":11788:11798  _getValues */\n      tag_386\n        /* \"contracts/Pool/Pool.sol\":11788:11807  _getValues(tAmount) */\n      jump\t// in\n    tag_385:\n        /* \"contracts/Pool/Pool.sol\":11675:11807  (uint256 rAmount, uint256 rTransferAmount, uint256 rFee, uint256 tTransferAmount, uint256 tFee, uint256 tTeam) = _getValues(tAmount) */\n      swap6\n      pop\n      swap6\n      pop\n      swap6\n      pop\n      swap6\n      pop\n      swap6\n      pop\n      swap6\n      pop\n        /* \"contracts/Pool/Pool.sol\":11835:11863  _rOwned[sender].sub(rAmount) */\n      tag_387\n        /* \"contracts/Pool/Pool.sol\":11855:11862  rAmount */\n      dup7\n        /* \"contracts/Pool/Pool.sol\":11835:11842  _rOwned */\n      0x02\n        /* \"contracts/Pool/Pool.sol\":11835:11850  _rOwned[sender] */\n      0x00\n        /* \"contracts/Pool/Pool.sol\":11843:11849  sender */\n      dup13\n        /* \"contracts/Pool/Pool.sol\":11835:11850  _rOwned[sender] */\n      0xffffffffffffffffffffffffffffffffffffffff\n      and\n      0xffffffffffffffffffffffffffffffffffffffff\n      and\n      dup2\n      mstore\n      0x20\n      add\n      swap1\n      dup2\n      mstore\n      0x20\n      add\n      0x00\n      keccak256\n      sload\n        /* \"contracts/Pool/Pool.sol\":11835:11854  _rOwned[sender].sub */\n      tag_388\n      swap1\n        /* \"contracts/Pool/Pool.sol\":11835:11863  _rOwned[sender].sub(rAmount) */\n      swap2\n      swap1\n      0xffffffff\n      and\n      jump\t// in\n    tag_387:\n        /* \"contracts/Pool/Pool.sol\":11817:11824  _rOwned */\n      0x02\n        /* \"contracts/Pool/Pool.sol\":11817:11832  _rOwned[sender] */\n      0x00\n        /* \"contracts/Pool/Pool.sol\":11825:11831  sender */\n      dup12\n        /* \"contracts/Pool/Pool.sol\":11817:11832  _rOwned[sender] */\n      0xffffffffffffffffffffffffffffffffffffffff\n      and\n      0xffffffffffffffffffffffffffffffffffffffff\n      and\n      dup2\n      mstore\n      0x20\n      add\n      swap1\n      dup2\n      mstore\n      0x20\n      add\n      0x00\n      keccak256\n        /* \"contracts/Pool/Pool.sol\":11817:11863  _rOwned[sender] = _rOwned[sender].sub(rAmount) */\n      dup2\n      swap1\n      sstore\n      pop\n        /* \"contracts/Pool/Pool.sol\":11894:11933  _rOwned[recipient].add(rTransferAmount) */\n      tag_389\n        /* \"contracts/Pool/Pool.sol\":11917:11932  rTransferAmount */\n      dup6\n        /* \"contracts/Pool/Pool.sol\":11894:11901  _rOwned */\n      0x02\n        /* \"contracts/Pool/Pool.sol\":11894:11912  _rOwned[recipient] */\n      0x00\n        /* \"contracts/Pool/Pool.sol\":11902:11911  recipient */\n      dup12\n        /* \"contracts/Pool/Pool.sol\":11894:11912  _rOwned[recipient] */\n      0xffffffffffffffffffffffffffffffffffffffff\n      and\n      0xffffffffffffffffffffffffffffffffffffffff\n      and\n      dup2\n      mstore\n      0x20\n      add\n      swap1\n      dup2\n      mstore\n      0x20\n      add\n      0x00\n      keccak256\n      sload\n        /* \"contracts/Pool/Pool.sol\":11894:11916  _rOwned[recipient].add */\n      tag_390\n      swap1\n        /* \"contracts/Pool/Pool.sol\":11894:11933  _rOwned[recipient].add(rTransferAmount) */\n      swap2\n      swap1\n      0xffffffff\n      and\n      jump\t// in\n    tag_389:\n        /* \"contracts/Pool/Pool.sol\":11873:11880  _rOwned */\n      0x02\n        /* \"contracts/Pool/Pool.sol\":11873:11891  _rOwned[recipient] */\n      0x00\n        /* \"contracts/Pool/Pool.sol\":11881:11890  recipient */\n      dup11\n        /* \"contracts/Pool/Pool.sol\":11873:11891  _rOwned[recipient] */\n      0xffffffffffffffffffffffffffffffffffffffff\n      and\n      0xffffffffffffffffffffffffffffffffffffffff\n      and\n      dup2\n      mstore\n      0x20\n      add\n      swap1\n      dup2\n      mstore\n      0x20\n      add\n      0x00\n      keccak256\n        /* \"contracts/Pool/Pool.sol\":11873:11933  _rOwned[recipient] = _rOwned[recipient].add(rTransferAmount) */\n      dup2\n      swap1\n      sstore\n      pop\n        /* \"contracts/Pool/Pool.sol\":11944:11960  _takeTeam(tTeam) */\n      tag_391\n        /* \"contracts/Pool/Pool.sol\":11954:11959  tTeam */\n      dup2\n        /* \"contracts/Pool/Pool.sol\":11944:11953  _takeTeam */\n      tag_392\n        /* \"contracts/Pool/Pool.sol\":11944:11960  _takeTeam(tTeam) */\n      jump\t// in\n    tag_391:\n        /* \"contracts/Pool/Pool.sol\":11970:11993  _reflectFee(rFee, tFee) */\n      tag_393\n        /* \"contracts/Pool/Pool.sol\":11982:11986  rFee */\n      dup5\n        /* \"contracts/Pool/Pool.sol\":11988:11992  tFee */\n      dup4\n        /* \"contracts/Pool/Pool.sol\":11970:11981  _reflectFee */\n      tag_394\n        /* \"contracts/Pool/Pool.sol\":11970:11993  _reflectFee(rFee, tFee) */\n      jump\t// in\n    tag_393:\n        /* \"contracts/Pool/Pool.sol\":12025:12034  recipient */\n      dup8\n        /* \"contracts/Pool/Pool.sol\":12008:12052  Transfer(sender, recipient, tTransferAmount) */\n      0xffffffffffffffffffffffffffffffffffffffff\n      and\n        /* \"contracts/Pool/Pool.sol\":12017:12023  sender */\n      dup10\n        /* \"contracts/Pool/Pool.sol\":12008:12052  Transfer(sender, recipient, tTransferAmount) */\n      0xffffffffffffffffffffffffffffffffffffffff\n      and\n      0xddf252ad1be2c89b69c2b068fc378daa952ba7f163c4a11628f55a4df523b3ef\n        /* \"contracts/Pool/Pool.sol\":12036:12051  tTransferAmount */\n      dup6\n        /* \"contracts/Pool/Pool.sol\":12008:12052  Transfer(sender, recipient, tTransferAmount) */\n      mload(0x40)\n      tag_395\n      swap2\n      swap1\n      tag_55\n      jump\t// in\n    tag_395:\n      mload(0x40)\n      dup1\n      swap2\n      sub\n      swap1\n      log3\n        /* \"contracts/Pool/Pool.sol\":11665:12059  {... */\n      pop\n      pop\n      pop\n      pop\n      pop\n      pop\n        /* \"contracts/Pool/Pool.sol\":11578:12059  function _transferStandard(address sender, address recipient, uint256 tAmount) private {... */\n      pop\n      pop\n      pop\n      jump\t// out\n        /* \"contracts/Pool/Pool.sol\":2740:2925  function div(uint256 a, uint256 b, string memory errorMessage) internal pure returns (uint256) {... */\n    tag_379:\n        /* \"contracts/Pool/Pool.sol\":2826:2833  uint256 */\n      0x00\n        /* \"contracts/Pool/Pool.sol\":2857:2858  0 */\n      dup1\n        /* \"contracts/Pool/Pool.sol\":2853:2854  b */\n      dup4\n        /* \"contracts/Pool/Pool.sol\":2853:2858  b > 0 */\n      gt\n        /* \"contracts/Pool/Pool.sol\":2860:2872  errorMessage */\n      dup3\n        /* \"contracts/Pool/Pool.sol\":2845:2873  require(b > 0, errorMessage) */\n      swap1\n      tag_397\n      jumpi\n      mload(0x40)\n      0x08c379a000000000000000000000000000000000000000000000000000000000\n      dup2\n      mstore\n      0x04\n      add\n      tag_398\n      swap2\n      swap1\n      tag_38\n      jump\t// in\n    tag_398:\n      mload(0x40)\n      dup1\n      swap2\n      sub\n      swap1\n      revert\n    tag_397:\n      pop\n        /* \"contracts/Pool/Pool.sol\":2883:2892  uint256 c */\n      0x00\n        /* \"contracts/Pool/Pool.sol\":2899:2900  b */\n      dup4\n        /* \"contracts/Pool/Pool.sol\":2895:2896  a */\n      dup6\n        /* \"contracts/Pool/Pool.sol\":2895:2900  a / b */\n      tag_399\n      swap2\n      swap1\n      tag_400\n      jump\t// in\n    tag_399:\n        /* \"contracts/Pool/Pool.sol\":2883:2900  uint256 c = a / b */\n      swap1\n      pop\n        /* \"contracts/Pool/Pool.sol\":2917:2918  c */\n      dup1\n        /* \"contracts/Pool/Pool.sol\":2910:2918  return c */\n      swap2\n      pop\n      pop\n        /* \"contracts/Pool/Pool.sol\":2740:2925  function div(uint256 a, uint256 b, string memory errorMessage) internal pure returns (uint256) {... */\n      swap4\n      swap3\n      pop\n      pop\n      pop\n      jump\t// out\n        /* \"contracts/Pool/Pool.sol\":13862:14119  function _getCurrentSupply() private view returns(uint256, uint256) {... */\n    tag_382:\n        /* \"contracts/Pool/Pool.sol\":13912:13919  uint256 */\n      0x00\n        /* \"contracts/Pool/Pool.sol\":13921:13928  uint256 */\n      dup1\n        /* \"contracts/Pool/Pool.sol\":13940:13955  uint256 rSupply */\n      0x00\n        /* \"contracts/Pool/Pool.sol\":13958:13965  _rTotal */\n      sload(0x06)\n        /* \"contracts/Pool/Pool.sol\":13940:13965  uint256 rSupply = _rTotal */\n      swap1\n      pop\n        /* \"contracts/Pool/Pool.sol\":13975:13990  uint256 tSupply */\n      0x00\n        /* \"contracts/Pool/Pool.sol\":4200:4213  1*10**9*10**9 */\n      0x0de0b6b3a7640000\n        /* \"contracts/Pool/Pool.sol\":13975:14000  uint256 tSupply = _tTotal */\n      swap1\n      pop\n        /* \"contracts/Pool/Pool.sol\":14030:14050  _rTotal.div(_tTotal) */\n      tag_402\n        /* \"contracts/Pool/Pool.sol\":4200:4213  1*10**9*10**9 */\n      0x0de0b6b3a7640000\n        /* \"contracts/Pool/Pool.sol\":14030:14037  _rTotal */\n      sload(0x06)\n        /* \"contracts/Pool/Pool.sol\":14030:14041  _rTotal.div */\n      tag_342\n      swap1\n        /* \"contracts/Pool/Pool.sol\":14030:14050  _rTotal.div(_tTotal) */\n      swap2\n      swap1\n      0xffffffff\n      and\n      jump\t// in\n    tag_402:\n        /* \"contracts/Pool/Pool.sol\":14020:14027  rSupply */\n      dup3\n        /* \"contracts/Pool/Pool.sol\":14020:14050  rSupply < _rTotal.div(_tTotal) */\n      lt\n        /* \"contracts/Pool/Pool.sol\":14016:14077  if (rSupply < _rTotal.div(_tTotal)) return (_rTotal, _tTotal) */\n      iszero\n      tag_403\n      jumpi\n        /* \"contracts/Pool/Pool.sol\":14060:14067  _rTotal */\n      sload(0x06)\n        /* \"contracts/Pool/Pool.sol\":4200:4213  1*10**9*10**9 */\n      0x0de0b6b3a7640000\n        /* \"contracts/Pool/Pool.sol\":14052:14077  return (_rTotal, _tTotal) */\n      swap4\n      pop\n      swap4\n      pop\n      pop\n      pop\n      jump(tag_401)\n        /* \"contracts/Pool/Pool.sol\":14016:14077  if (rSupply < _rTotal.div(_tTotal)) return (_rTotal, _tTotal) */\n    tag_403:\n        /* \"contracts/Pool/Pool.sol\":14095:14102  rSupply */\n      dup2\n        /* \"contracts/Pool/Pool.sol\":14104:14111  tSupply */\n      dup2\n        /* \"contracts/Pool/Pool.sol\":14087:14112  return (rSupply, tSupply) */\n      swap4\n      pop\n      swap4\n      pop\n      pop\n      pop\n        /* \"contracts/Pool/Pool.sol\":13862:14119  function _getCurrentSupply() private view returns(uint256, uint256) {... */\n    tag_401:\n      swap1\n      swap2\n      jump\t// out\n        /* \"contracts/Pool/Pool.sol\":12468:12932  function _getValues(uint256 tAmount) private view returns (uint256, uint256, uint256, uint256, uint256, uint256) {... */\n    tag_386:\n        /* \"contracts/Pool/Pool.sol\":12527:12534  uint256 */\n      0x00\n        /* \"contracts/Pool/Pool.sol\":12536:12543  uint256 */\n      dup1\n        /* \"contracts/Pool/Pool.sol\":12545:12552  uint256 */\n      0x00\n        /* \"contracts/Pool/Pool.sol\":12554:12561  uint256 */\n      dup1\n        /* \"contracts/Pool/Pool.sol\":12563:12570  uint256 */\n      0x00\n        /* \"contracts/Pool/Pool.sol\":12572:12579  uint256 */\n      dup1\n        /* \"contracts/Pool/Pool.sol\":12592:12615  uint256 tTransferAmount */\n      0x00\n        /* \"contracts/Pool/Pool.sol\":12617:12629  uint256 tFee */\n      dup1\n        /* \"contracts/Pool/Pool.sol\":12631:12644  uint256 tTeam */\n      0x00\n        /* \"contracts/Pool/Pool.sol\":12648:12688  _getTValues(tAmount, _redisFee, _taxFee) */\n      tag_405\n        /* \"contracts/Pool/Pool.sol\":12660:12667  tAmount */\n      dup11\n        /* \"contracts/Pool/Pool.sol\":12669:12678  _redisFee */\n      sload(0x0c)\n        /* \"contracts/Pool/Pool.sol\":12680:12687  _taxFee */\n      sload(0x0d)\n        /* \"contracts/Pool/Pool.sol\":12648:12659  _getTValues */\n      tag_406\n        /* \"contracts/Pool/Pool.sol\":12648:12688  _getTValues(tAmount, _redisFee, _taxFee) */\n      jump\t// in\n    tag_405:\n        /* \"contracts/Pool/Pool.sol\":12591:12688  (uint256 tTransferAmount, uint256 tFee, uint256 tTeam) = _getTValues(tAmount, _redisFee, _taxFee) */\n      swap3\n      pop\n      swap3\n      pop\n      swap3\n      pop\n        /* \"contracts/Pool/Pool.sol\":12698:12717  uint256 currentRate */\n      0x00\n        /* \"contracts/Pool/Pool.sol\":12721:12731  _getRate() */\n      tag_407\n        /* \"contracts/Pool/Pool.sol\":12721:12729  _getRate */\n      tag_353\n        /* \"contracts/Pool/Pool.sol\":12721:12731  _getRate() */\n      jump\t// in\n    tag_407:\n        /* \"contracts/Pool/Pool.sol\":12698:12731  uint256 currentRate =  _getRate() */\n      swap1\n      pop\n        /* \"contracts/Pool/Pool.sol\":12742:12757  uint256 rAmount */\n      0x00\n        /* \"contracts/Pool/Pool.sol\":12759:12782  uint256 rTransferAmount */\n      dup1\n        /* \"contracts/Pool/Pool.sol\":12784:12796  uint256 rFee */\n      0x00\n        /* \"contracts/Pool/Pool.sol\":12800:12846  _getRValues(tAmount, tFee, tTeam, currentRate) */\n      tag_408\n        /* \"contracts/Pool/Pool.sol\":12812:12819  tAmount */\n      dup15\n        /* \"contracts/Pool/Pool.sol\":12821:12825  tFee */\n      dup8\n        /* \"contracts/Pool/Pool.sol\":12827:12832  tTeam */\n      dup8\n        /* \"contracts/Pool/Pool.sol\":12834:12845  currentRate */\n      dup8\n        /* \"contracts/Pool/Pool.sol\":12800:12811  _getRValues */\n      tag_409\n        /* \"contracts/Pool/Pool.sol\":12800:12846  _getRValues(tAmount, tFee, tTeam, currentRate) */\n      jump\t// in\n    tag_408:\n        /* \"contracts/Pool/Pool.sol\":12741:12846  (uint256 rAmount, uint256 rTransferAmount, uint256 rFee) = _getRValues(tAmount, tFee, tTeam, currentRate) */\n      swap3\n      pop\n      swap3\n      pop\n      swap3\n      pop\n        /* \"contracts/Pool/Pool.sol\":12864:12871  rAmount */\n      dup3\n        /* \"contracts/Pool/Pool.sol\":12873:12888  rTransferAmount */\n      dup3\n        /* \"contracts/Pool/Pool.sol\":12890:12894  rFee */\n      dup3\n        /* \"contracts/Pool/Pool.sol\":12896:12911  tTransferAmount */\n      dup10\n        /* \"contracts/Pool/Pool.sol\":12913:12917  tFee */\n      dup10\n        /* \"contracts/Pool/Pool.sol\":12919:12924  tTeam */\n      dup10\n        /* \"contracts/Pool/Pool.sol\":12856:12925  return (rAmount, rTransferAmount, rFee, tTransferAmount, tFee, tTeam) */\n      swap13\n      pop\n      swap13\n      pop\n      swap13\n      pop\n      swap13\n      pop\n      swap13\n      pop\n      swap13\n      pop\n      pop\n      pop\n      pop\n      pop\n      pop\n      pop\n      pop\n        /* \"contracts/Pool/Pool.sol\":12468:12932  function _getValues(uint256 tAmount) private view returns (uint256, uint256, uint256, uint256, uint256, uint256) {... */\n      swap2\n      swap4\n      swap6\n      pop\n      swap2\n      swap4\n      swap6\n      jump\t// out\n        /* \"contracts/Pool/Pool.sol\":2027:2161  function sub(uint256 a, uint256 b) internal pure returns (uint256) {... */\n    tag_388:\n        /* \"contracts/Pool/Pool.sol\":2085:2092  uint256 */\n      0x00\n        /* \"contracts/Pool/Pool.sol\":2111:2154  sub(a, b, \"SafeMath: subtraction overflow\") */\n      tag_411\n        /* \"contracts/Pool/Pool.sol\":2115:2116  a */\n      dup4\n        /* \"contracts/Pool/Pool.sol\":2118:2119  b */\n      dup4\n        /* \"contracts/Pool/Pool.sol\":2111:2154  sub(a, b, \"SafeMath: subtraction overflow\") */\n      mload(0x40)\n      dup1\n      0x40\n      add\n      0x40\n      mstore\n      dup1\n      0x1e\n      dup2\n      mstore\n      0x20\n      add\n      0x536166654d6174683a207375627472616374696f6e206f766572666c6f770000\n      dup2\n      mstore\n      pop\n        /* \"contracts/Pool/Pool.sol\":2111:2114  sub */\n      tag_165\n        /* \"contracts/Pool/Pool.sol\":2111:2154  sub(a, b, \"SafeMath: subtraction overflow\") */\n      jump\t// in\n    tag_411:\n        /* \"contracts/Pool/Pool.sol\":2104:2154  return sub(a, b, \"SafeMath: subtraction overflow\") */\n      swap1\n      pop\n        /* \"contracts/Pool/Pool.sol\":2027:2161  function sub(uint256 a, uint256 b) internal pure returns (uint256) {... */\n      swap3\n      swap2\n      pop\n      pop\n      jump\t// out\n        /* \"contracts/Pool/Pool.sol\":1846:2021  function add(uint256 a, uint256 b) internal pure returns (uint256) {... */\n    tag_390:\n        /* \"contracts/Pool/Pool.sol\":1904:1911  uint256 */\n      0x00\n        /* \"contracts/Pool/Pool.sol\":1923:1932  uint256 c */\n      dup1\n        /* \"contracts/Pool/Pool.sol\":1939:1940  b */\n      dup3\n        /* \"contracts/Pool/Pool.sol\":1935:1936  a */\n      dup5\n        /* \"contracts/Pool/Pool.sol\":1935:1940  a + b */\n      tag_413\n      swap2\n      swap1\n      tag_414\n      jump\t// in\n    tag_413:\n        /* \"contracts/Pool/Pool.sol\":1923:1940  uint256 c = a + b */\n      swap1\n      pop\n        /* \"contracts/Pool/Pool.sol\":1963:1964  a */\n      dup4\n        /* \"contracts/Pool/Pool.sol\":1958:1959  c */\n      dup2\n        /* \"contracts/Pool/Pool.sol\":1958:1964  c >= a */\n      lt\n      iszero\n        /* \"contracts/Pool/Pool.sol\":1950:1996  require(c >= a, \"SafeMath: addition overflow\") */\n      tag_415\n      jumpi\n      mload(0x40)\n      0x08c379a000000000000000000000000000000000000000000000000000000000\n      dup2\n      mstore\n      0x04\n      add\n      tag_416\n      swap1\n      tag_417\n      jump\t// in\n    tag_416:\n      mload(0x40)\n      dup1\n      swap2\n      sub\n      swap1\n      revert\n    tag_415:\n        /* \"contracts/Pool/Pool.sol\":2013:2014  c */\n      dup1\n        /* \"contracts/Pool/Pool.sol\":2006:2014  return c */\n      swap2\n      pop\n      pop\n        /* \"contracts/Pool/Pool.sol\":1846:2021  function add(uint256 a, uint256 b) internal pure returns (uint256) {... */\n      swap3\n      swap2\n      pop\n      pop\n      jump\t// out\n        /* \"contracts/Pool/Pool.sol\":12065:12273  function _takeTeam(uint256 tTeam) private {... */\n    tag_392:\n        /* \"contracts/Pool/Pool.sol\":12117:12136  uint256 currentRate */\n      0x00\n        /* \"contracts/Pool/Pool.sol\":12140:12150  _getRate() */\n      tag_419\n        /* \"contracts/Pool/Pool.sol\":12140:12148  _getRate */\n      tag_353\n        /* \"contracts/Pool/Pool.sol\":12140:12150  _getRate() */\n      jump\t// in\n    tag_419:\n        /* \"contracts/Pool/Pool.sol\":12117:12150  uint256 currentRate =  _getRate() */\n      swap1\n      pop\n        /* \"contracts/Pool/Pool.sol\":12160:12173  uint256 rTeam */\n      0x00\n        /* \"contracts/Pool/Pool.sol\":12176:12198  tTeam.mul(currentRate) */\n      tag_420\n        /* \"contracts/Pool/Pool.sol\":12186:12197  currentRate */\n      dup3\n        /* \"contracts/Pool/Pool.sol\":12176:12181  tTeam */\n      dup5\n        /* \"contracts/Pool/Pool.sol\":12176:12185  tTeam.mul */\n      tag_421\n      swap1\n        /* \"contracts/Pool/Pool.sol\":12176:12198  tTeam.mul(currentRate) */\n      swap2\n      swap1\n      0xffffffff\n      and\n      jump\t// in\n    tag_420:\n        /* \"contracts/Pool/Pool.sol\":12160:12198  uint256 rTeam = tTeam.mul(currentRate) */\n      swap1\n      pop\n        /* \"contracts/Pool/Pool.sol\":12233:12266  _rOwned[address(this)].add(rTeam) */\n      tag_422\n        /* \"contracts/Pool/Pool.sol\":12260:12265  rTeam */\n      dup2\n        /* \"contracts/Pool/Pool.sol\":12233:12240  _rOwned */\n      0x02\n        /* \"contracts/Pool/Pool.sol\":12233:12255  _rOwned[address(this)] */\n      0x00\n        /* \"contracts/Pool/Pool.sol\":12249:12253  this */\n      address\n        /* \"contracts/Pool/Pool.sol\":12233:12255  _rOwned[address(this)] */\n      0xffffffffffffffffffffffffffffffffffffffff\n      and\n      0xffffffffffffffffffffffffffffffffffffffff\n      and\n      dup2\n      mstore\n      0x20\n      add\n      swap1\n      dup2\n      mstore\n      0x20\n      add\n      0x00\n      keccak256\n      sload\n        /* \"contracts/Pool/Pool.sol\":12233:12259  _rOwned[address(this)].add */\n      tag_390\n      swap1\n        /* \"contracts/Pool/Pool.sol\":12233:12266  _rOwned[address(this)].add(rTeam) */\n      swap2\n      swap1\n      0xffffffff\n      and\n      jump\t// in\n    tag_422:\n        /* \"contracts/Pool/Pool.sol\":12208:12215  _rOwned */\n      0x02\n        /* \"contracts/Pool/Pool.sol\":12208:12230  _rOwned[address(this)] */\n      0x00\n        /* \"contracts/Pool/Pool.sol\":12224:12228  this */\n      address\n        /* \"contracts/Pool/Pool.sol\":12208:12230  _rOwned[address(this)] */\n      0xffffffffffffffffffffffffffffffffffffffff\n      and\n      0xffffffffffffffffffffffffffffffffffffffff\n      and\n      dup2\n      mstore\n      0x20\n      add\n      swap1\n      dup2\n      mstore\n      0x20\n      add\n      0x00\n      keccak256\n        /* \"contracts/Pool/Pool.sol\":12208:12266  _rOwned[address(this)] = _rOwned[address(this)].add(rTeam) */\n      dup2\n      swap1\n      sstore\n      pop\n        /* \"contracts/Pool/Pool.sol\":12107:12273  {... */\n      pop\n      pop\n        /* \"contracts/Pool/Pool.sol\":12065:12273  function _takeTeam(uint256 tTeam) private {... */\n      pop\n      jump\t// out\n        /* \"contracts/Pool/Pool.sol\":12279:12423  function _reflectFee(uint256 rFee, uint256 tFee) private {... */\n    tag_394:\n        /* \"contracts/Pool/Pool.sol\":12356:12373  _rTotal.sub(rFee) */\n      tag_424\n        /* \"contracts/Pool/Pool.sol\":12368:12372  rFee */\n      dup3\n        /* \"contracts/Pool/Pool.sol\":12356:12363  _rTotal */\n      sload(0x06)\n        /* \"contracts/Pool/Pool.sol\":12356:12367  _rTotal.sub */\n      tag_388\n      swap1\n        /* \"contracts/Pool/Pool.sol\":12356:12373  _rTotal.sub(rFee) */\n      swap2\n      swap1\n      0xffffffff\n      and\n      jump\t// in\n    tag_424:\n        /* \"contracts/Pool/Pool.sol\":12346:12353  _rTotal */\n      0x06\n        /* \"contracts/Pool/Pool.sol\":12346:12373  _rTotal = _rTotal.sub(rFee) */\n      dup2\n      swap1\n      sstore\n      pop\n        /* \"contracts/Pool/Pool.sol\":12396:12416  _tFeeTotal.add(tFee) */\n      tag_425\n        /* \"contracts/Pool/Pool.sol\":12411:12415  tFee */\n      dup2\n        /* \"contracts/Pool/Pool.sol\":12396:12406  _tFeeTotal */\n      sload(0x07)\n        /* \"contracts/Pool/Pool.sol\":12396:12410  _tFeeTotal.add */\n      tag_390\n      swap1\n        /* \"contracts/Pool/Pool.sol\":12396:12416  _tFeeTotal.add(tFee) */\n      swap2\n      swap1\n      0xffffffff\n      and\n      jump\t// in\n    tag_425:\n        /* \"contracts/Pool/Pool.sol\":12383:12393  _tFeeTotal */\n      0x07\n        /* \"contracts/Pool/Pool.sol\":12383:12416  _tFeeTotal = _tFeeTotal.add(tFee) */\n      dup2\n      swap1\n      sstore\n      pop\n        /* \"contracts/Pool/Pool.sol\":12279:12423  function _reflectFee(uint256 rFee, uint256 tFee) private {... */\n      pop\n      pop\n      jump\t// out\n        /* \"contracts/Pool/Pool.sol\":12938:13284  function _getTValues(uint256 tAmount, uint256 taxFee, uint256 TeamFee) private pure returns (uint256, uint256, uint256) {... */\n    tag_406:\n        /* \"contracts/Pool/Pool.sol\":13031:13038  uint256 */\n      0x00\n        /* \"contracts/Pool/Pool.sol\":13040:13047  uint256 */\n      dup1\n        /* \"contracts/Pool/Pool.sol\":13049:13056  uint256 */\n      0x00\n        /* \"contracts/Pool/Pool.sol\":13068:13080  uint256 tFee */\n      dup1\n        /* \"contracts/Pool/Pool.sol\":13083:13111  tAmount.mul(taxFee).div(100) */\n      tag_427\n        /* \"contracts/Pool/Pool.sol\":13107:13110  100 */\n      0x64\n        /* \"contracts/Pool/Pool.sol\":13083:13102  tAmount.mul(taxFee) */\n      tag_428\n        /* \"contracts/Pool/Pool.sol\":13095:13101  taxFee */\n      dup9\n        /* \"contracts/Pool/Pool.sol\":13083:13090  tAmount */\n      dup11\n        /* \"contracts/Pool/Pool.sol\":13083:13094  tAmount.mul */\n      tag_421\n      swap1\n        /* \"contracts/Pool/Pool.sol\":13083:13102  tAmount.mul(taxFee) */\n      swap2\n      swap1\n      0xffffffff\n      and\n      jump\t// in\n    tag_428:\n        /* \"contracts/Pool/Pool.sol\":13083:13106  tAmount.mul(taxFee).div */\n      tag_342\n      swap1\n        /* \"contracts/Pool/Pool.sol\":13083:13111  tAmount.mul(taxFee).div(100) */\n      swap2\n      swap1\n      0xffffffff\n      and\n      jump\t// in\n    tag_427:\n        /* \"contracts/Pool/Pool.sol\":13068:13111  uint256 tFee = tAmount.mul(taxFee).div(100) */\n      swap1\n      pop\n        /* \"contracts/Pool/Pool.sol\":13121:13134  uint256 tTeam */\n      0x00\n        /* \"contracts/Pool/Pool.sol\":13137:13166  tAmount.mul(TeamFee).div(100) */\n      tag_429\n        /* \"contracts/Pool/Pool.sol\":13162:13165  100 */\n      0x64\n        /* \"contracts/Pool/Pool.sol\":13137:13157  tAmount.mul(TeamFee) */\n      tag_430\n        /* \"contracts/Pool/Pool.sol\":13149:13156  TeamFee */\n      dup9\n        /* \"contracts/Pool/Pool.sol\":13137:13144  tAmount */\n      dup12\n        /* \"contracts/Pool/Pool.sol\":13137:13148  tAmount.mul */\n      tag_421\n      swap1\n        /* \"contracts/Pool/Pool.sol\":13137:13157  tAmount.mul(TeamFee) */\n      swap2\n      swap1\n      0xffffffff\n      and\n      jump\t// in\n    tag_430:\n        /* \"contracts/Pool/Pool.sol\":13137:13161  tAmount.mul(TeamFee).div */\n      tag_342\n      swap1\n        /* \"contracts/Pool/Pool.sol\":13137:13166  tAmount.mul(TeamFee).div(100) */\n      swap2\n      swap1\n      0xffffffff\n      and\n      jump\t// in\n    tag_429:\n        /* \"contracts/Pool/Pool.sol\":13121:13166  uint256 tTeam = tAmount.mul(TeamFee).div(100) */\n      swap1\n      pop\n        /* \"contracts/Pool/Pool.sol\":13176:13199  uint256 tTransferAmount */\n      0x00\n        /* \"contracts/Pool/Pool.sol\":13202:13230  tAmount.sub(tFee).sub(tTeam) */\n      tag_431\n        /* \"contracts/Pool/Pool.sol\":13224:13229  tTeam */\n      dup3\n        /* \"contracts/Pool/Pool.sol\":13202:13219  tAmount.sub(tFee) */\n      tag_432\n        /* \"contracts/Pool/Pool.sol\":13214:13218  tFee */\n      dup6\n        /* \"contracts/Pool/Pool.sol\":13202:13209  tAmount */\n      dup13\n        /* \"contracts/Pool/Pool.sol\":13202:13213  tAmount.sub */\n      tag_388\n      swap1\n        /* \"contracts/Pool/Pool.sol\":13202:13219  tAmount.sub(tFee) */\n      swap2\n      swap1\n      0xffffffff\n      and\n      jump\t// in\n    tag_432:\n        /* \"contracts/Pool/Pool.sol\":13202:13223  tAmount.sub(tFee).sub */\n      tag_388\n      swap1\n        /* \"contracts/Pool/Pool.sol\":13202:13230  tAmount.sub(tFee).sub(tTeam) */\n      swap2\n      swap1\n      0xffffffff\n      and\n      jump\t// in\n    tag_431:\n        /* \"contracts/Pool/Pool.sol\":13176:13230  uint256 tTransferAmount = tAmount.sub(tFee).sub(tTeam) */\n      swap1\n      pop\n        /* \"contracts/Pool/Pool.sol\":13248:13263  tTransferAmount */\n      dup1\n        /* \"contracts/Pool/Pool.sol\":13265:13269  tFee */\n      dup4\n        /* \"contracts/Pool/Pool.sol\":13271:13276  tTeam */\n      dup4\n        /* \"contracts/Pool/Pool.sol\":13240:13277  return (tTransferAmount, tFee, tTeam) */\n      swap6\n      pop\n      swap6\n      pop\n      swap6\n      pop\n      pop\n      pop\n      pop\n        /* \"contracts/Pool/Pool.sol\":12938:13284  function _getTValues(uint256 tAmount, uint256 taxFee, uint256 TeamFee) private pure returns (uint256, uint256, uint256) {... */\n      swap4\n      pop\n      swap4\n      pop\n      swap4\n      swap1\n      pop\n      jump\t// out\n        /* \"contracts/Pool/Pool.sol\":13290:13693  function _getRValues(uint256 tAmount, uint256 tFee, uint256 tTeam, uint256 currentRate) private pure returns (uint256, uint256, uint256) {... */\n    tag_409:\n        /* \"contracts/Pool/Pool.sol\":13400:13407  uint256 */\n      0x00\n        /* \"contracts/Pool/Pool.sol\":13409:13416  uint256 */\n      dup1\n        /* \"contracts/Pool/Pool.sol\":13418:13425  uint256 */\n      0x00\n        /* \"contracts/Pool/Pool.sol\":13437:13452  uint256 rAmount */\n      dup1\n        /* \"contracts/Pool/Pool.sol\":13455:13479  tAmount.mul(currentRate) */\n      tag_434\n        /* \"contracts/Pool/Pool.sol\":13467:13478  currentRate */\n      dup6\n        /* \"contracts/Pool/Pool.sol\":13455:13462  tAmount */\n      dup10\n        /* \"contracts/Pool/Pool.sol\":13455:13466  tAmount.mul */\n      tag_421\n      swap1\n        /* \"contracts/Pool/Pool.sol\":13455:13479  tAmount.mul(currentRate) */\n      swap2\n      swap1\n      0xffffffff\n      and\n      jump\t// in\n    tag_434:\n        /* \"contracts/Pool/Pool.sol\":13437:13479  uint256 rAmount = tAmount.mul(currentRate) */\n      swap1\n      pop\n        /* \"contracts/Pool/Pool.sol\":13489:13501  uint256 rFee */\n      0x00\n        /* \"contracts/Pool/Pool.sol\":13504:13525  tFee.mul(currentRate) */\n      tag_435\n        /* \"contracts/Pool/Pool.sol\":13513:13524  currentRate */\n      dup7\n        /* \"contracts/Pool/Pool.sol\":13504:13508  tFee */\n      dup10\n        /* \"contracts/Pool/Pool.sol\":13504:13512  tFee.mul */\n      tag_421\n      swap1\n        /* \"contracts/Pool/Pool.sol\":13504:13525  tFee.mul(currentRate) */\n      swap2\n      swap1\n      0xffffffff\n      and\n      jump\t// in\n    tag_435:\n        /* \"contracts/Pool/Pool.sol\":13489:13525  uint256 rFee = tFee.mul(currentRate) */\n      swap1\n      pop\n        /* \"contracts/Pool/Pool.sol\":13535:13548  uint256 rTeam */\n      0x00\n        /* \"contracts/Pool/Pool.sol\":13551:13573  tTeam.mul(currentRate) */\n      tag_436\n        /* \"contracts/Pool/Pool.sol\":13561:13572  currentRate */\n      dup8\n        /* \"contracts/Pool/Pool.sol\":13551:13556  tTeam */\n      dup10\n        /* \"contracts/Pool/Pool.sol\":13551:13560  tTeam.mul */\n      tag_421\n      swap1\n        /* \"contracts/Pool/Pool.sol\":13551:13573  tTeam.mul(currentRate) */\n      swap2\n      swap1\n      0xffffffff\n      and\n      jump\t// in\n    tag_436:\n        /* \"contracts/Pool/Pool.sol\":13535:13573  uint256 rTeam = tTeam.mul(currentRate) */\n      swap1\n      pop\n        /* \"contracts/Pool/Pool.sol\":13583:13606  uint256 rTransferAmount */\n      0x00\n        /* \"contracts/Pool/Pool.sol\":13609:13637  rAmount.sub(rFee).sub(rTeam) */\n      tag_437\n        /* \"contracts/Pool/Pool.sol\":13631:13636  rTeam */\n      dup3\n        /* \"contracts/Pool/Pool.sol\":13609:13626  rAmount.sub(rFee) */\n      tag_438\n        /* \"contracts/Pool/Pool.sol\":13621:13625  rFee */\n      dup6\n        /* \"contracts/Pool/Pool.sol\":13609:13616  rAmount */\n      dup8\n        /* \"contracts/Pool/Pool.sol\":13609:13620  rAmount.sub */\n      tag_388\n      swap1\n        /* \"contracts/Pool/Pool.sol\":13609:13626  rAmount.sub(rFee) */\n      swap2\n      swap1\n      0xffffffff\n      and\n      jump\t// in\n    tag_438:\n        /* \"contracts/Pool/Pool.sol\":13609:13630  rAmount.sub(rFee).sub */\n      tag_388\n      swap1\n        /* \"contracts/Pool/Pool.sol\":13609:13637  rAmount.sub(rFee).sub(rTeam) */\n      swap2\n      swap1\n      0xffffffff\n      and\n      jump\t// in\n    tag_437:\n        /* \"contracts/Pool/Pool.sol\":13583:13637  uint256 rTransferAmount = rAmount.sub(rFee).sub(rTeam) */\n      swap1\n      pop\n        /* \"contracts/Pool/Pool.sol\":13655:13662  rAmount */\n      dup4\n        /* \"contracts/Pool/Pool.sol\":13664:13679  rTransferAmount */\n      dup2\n        /* \"contracts/Pool/Pool.sol\":13681:13685  rFee */\n      dup5\n        /* \"contracts/Pool/Pool.sol\":13647:13686  return (rAmount, rTransferAmount, rFee) */\n      swap7\n      pop\n      swap7\n      pop\n      swap7\n      pop\n      pop\n      pop\n      pop\n      pop\n        /* \"contracts/Pool/Pool.sol\":13290:13693  function _getRValues(uint256 tAmount, uint256 tFee, uint256 tTeam, uint256 currentRate) private pure returns (uint256, uint256, uint256) {... */\n      swap5\n      pop\n      swap5\n      pop\n      swap5\n      swap2\n      pop\n      pop\n      jump\t// out\n        /* \"contracts/Pool/Pool.sol\":2359:2598  function mul(uint256 a, uint256 b) internal pure returns (uint256) {... */\n    tag_421:\n        /* \"contracts/Pool/Pool.sol\":2417:2424  uint256 */\n      0x00\n        /* \"contracts/Pool/Pool.sol\":2445:2446  0 */\n      dup1\n        /* \"contracts/Pool/Pool.sol\":2440:2441  a */\n      dup4\n        /* \"contracts/Pool/Pool.sol\":2440:2446  a == 0 */\n      sub\n        /* \"contracts/Pool/Pool.sol\":2436:2481  if (a == 0) {... */\n      tag_440\n      jumpi\n        /* \"contracts/Pool/Pool.sol\":2469:2470  0 */\n      0x00\n        /* \"contracts/Pool/Pool.sol\":2462:2470  return 0 */\n      swap1\n      pop\n      jump(tag_439)\n        /* \"contracts/Pool/Pool.sol\":2436:2481  if (a == 0) {... */\n    tag_440:\n        /* \"contracts/Pool/Pool.sol\":2490:2499  uint256 c */\n      0x00\n        /* \"contracts/Pool/Pool.sol\":2506:2507  b */\n      dup3\n        /* \"contracts/Pool/Pool.sol\":2502:2503  a */\n      dup5\n        /* \"contracts/Pool/Pool.sol\":2502:2507  a * b */\n      tag_441\n      swap2\n      swap1\n      tag_442\n      jump\t// in\n    tag_441:\n        /* \"contracts/Pool/Pool.sol\":2490:2507  uint256 c = a * b */\n      swap1\n      pop\n        /* \"contracts/Pool/Pool.sol\":2534:2535  b */\n      dup3\n        /* \"contracts/Pool/Pool.sol\":2529:2530  a */\n      dup5\n        /* \"contracts/Pool/Pool.sol\":2525:2526  c */\n      dup3\n        /* \"contracts/Pool/Pool.sol\":2525:2530  c / a */\n      tag_443\n      swap2\n      swap1\n      tag_400\n      jump\t// in\n    tag_443:\n        /* \"contracts/Pool/Pool.sol\":2525:2535  c / a == b */\n      eq\n        /* \"contracts/Pool/Pool.sol\":2517:2573  require(c / a == b, \"SafeMath: multiplication overflow\") */\n      tag_444\n      jumpi\n      mload(0x40)\n      0x08c379a000000000000000000000000000000000000000000000000000000000\n      dup2\n      mstore\n      0x04\n      add\n      tag_445\n      swap1\n      tag_446\n      jump\t// in\n    tag_445:\n      mload(0x40)\n      dup1\n      swap2\n      sub\n      swap1\n      revert\n    tag_444:\n        /* \"contracts/Pool/Pool.sol\":2590:2591  c */\n      dup1\n        /* \"contracts/Pool/Pool.sol\":2583:2591  return c */\n      swap2\n      pop\n      pop\n        /* \"contracts/Pool/Pool.sol\":2359:2598  function mul(uint256 a, uint256 b) internal pure returns (uint256) {... */\n    tag_439:\n      swap3\n      swap2\n      pop\n      pop\n      jump\t// out\n        /* \"#utility.yul\":7:106   */\n    tag_447:\n        /* \"#utility.yul\":59:65   */\n      0x00\n        /* \"#utility.yul\":93:98   */\n      dup2\n        /* \"#utility.yul\":87:99   */\n      mload\n        /* \"#utility.yul\":77:99   */\n      swap1\n      pop\n        /* \"#utility.yul\":7:106   */\n      swap2\n      swap1\n      pop\n      jump\t// out\n        /* \"#utility.yul\":112:281   */\n    tag_448:\n        /* \"#utility.yul\":196:207   */\n      0x00\n        /* \"#utility.yul\":230:236   */\n      dup3\n        /* \"#utility.yul\":225:228   */\n      dup3\n        /* \"#utility.yul\":218:237   */\n      mstore\n        /* \"#utility.yul\":270:274   */\n      0x20\n        /* \"#utility.yul\":265:268   */\n      dup3\n        /* \"#utility.yul\":261:275   */\n      add\n        /* \"#utility.yul\":246:275   */\n      swap1\n      pop\n        /* \"#utility.yul\":112:281   */\n      swap3\n      swap2\n      pop\n      pop\n      jump\t// out\n        /* \"#utility.yul\":287:594   */\n    tag_449:\n        /* \"#utility.yul\":355:356   */\n      0x00\n        /* \"#utility.yul\":365:478   */\n    tag_528:\n        /* \"#utility.yul\":379:385   */\n      dup4\n        /* \"#utility.yul\":376:377   */\n      dup2\n        /* \"#utility.yul\":373:386   */\n      lt\n        /* \"#utility.yul\":365:478   */\n      iszero\n      tag_530\n      jumpi\n        /* \"#utility.yul\":464:465   */\n      dup1\n        /* \"#utility.yul\":459:462   */\n      dup3\n        /* \"#utility.yul\":455:466   */\n      add\n        /* \"#utility.yul\":449:467   */\n      mload\n        /* \"#utility.yul\":445:446   */\n      dup2\n        /* \"#utility.yul\":440:443   */\n      dup5\n        /* \"#utility.yul\":436:447   */\n      add\n        /* \"#utility.yul\":429:468   */\n      mstore\n        /* \"#utility.yul\":401:403   */\n      0x20\n        /* \"#utility.yul\":398:399   */\n      dup2\n        /* \"#utility.yul\":394:404   */\n      add\n        /* \"#utility.yul\":389:404   */\n      swap1\n      pop\n        /* \"#utility.yul\":365:478   */\n      jump(tag_528)\n    tag_530:\n        /* \"#utility.yul\":496:502   */\n      dup4\n        /* \"#utility.yul\":493:494   */\n      dup2\n        /* \"#utility.yul\":490:503   */\n      gt\n        /* \"#utility.yul\":487:588   */\n      iszero\n      tag_531\n      jumpi\n        /* \"#utility.yul\":576:577   */\n      0x00\n        /* \"#utility.yul\":567:573   */\n      dup5\n        /* \"#utility.yul\":562:565   */\n      dup5\n        /* \"#utility.yul\":558:574   */\n      add\n        /* \"#utility.yul\":551:578   */\n      mstore\n        /* \"#utility.yul\":487:588   */\n    tag_531:\n        /* \"#utility.yul\":336:594   */\n      pop\n        /* \"#utility.yul\":287:594   */\n      pop\n      pop\n      pop\n      jump\t// out\n        /* \"#utility.yul\":600:702   */\n    tag_450:\n        /* \"#utility.yul\":641:647   */\n      0x00\n        /* \"#utility.yul\":692:694   */\n      0x1f\n        /* \"#utility.yul\":688:695   */\n      not\n        /* \"#utility.yul\":683:685   */\n      0x1f\n        /* \"#utility.yul\":676:681   */\n      dup4\n        /* \"#utility.yul\":672:686   */\n      add\n        /* \"#utility.yul\":668:696   */\n      and\n        /* \"#utility.yul\":658:696   */\n      swap1\n      pop\n        /* \"#utility.yul\":600:702   */\n      swap2\n      swap1\n      pop\n      jump\t// out\n        /* \"#utility.yul\":708:1072   */\n    tag_451:\n        /* \"#utility.yul\":796:799   */\n      0x00\n        /* \"#utility.yul\":824:863   */\n      tag_534\n        /* \"#utility.yul\":857:862   */\n      dup3\n        /* \"#utility.yul\":824:863   */\n      tag_447\n      jump\t// in\n    tag_534:\n        /* \"#utility.yul\":879:950   */\n      tag_535\n        /* \"#utility.yul\":943:949   */\n      dup2\n        /* \"#utility.yul\":938:941   */\n      dup6\n        /* \"#utility.yul\":879:950   */\n      tag_448\n      jump\t// in\n    tag_535:\n        /* \"#utility.yul\":872:950   */\n      swap4\n      pop\n        /* \"#utility.yul\":959:1011   */\n      tag_536\n        /* \"#utility.yul\":1004:1010   */\n      dup2\n        /* \"#utility.yul\":999:1002   */\n      dup6\n        /* \"#utility.yul\":992:996   */\n      0x20\n        /* \"#utility.yul\":985:990   */\n      dup7\n        /* \"#utility.yul\":981:997   */\n      add\n        /* \"#utility.yul\":959:1011   */\n      tag_449\n      jump\t// in\n    tag_536:\n        /* \"#utility.yul\":1036:1065   */\n      tag_537\n        /* \"#utility.yul\":1058:1064   */\n      dup2\n        /* \"#utility.yul\":1036:1065   */\n      tag_450\n      jump\t// in\n    tag_537:\n        /* \"#utility.yul\":1031:1034   */\n      dup5\n        /* \"#utility.yul\":1027:1066   */\n      add\n        /* \"#utility.yul\":1020:1066   */\n      swap2\n      pop\n        /* \"#utility.yul\":800:1072   */\n      pop\n        /* \"#utility.yul\":708:1072   */\n      swap3\n      swap2\n      pop\n      pop\n      jump\t// out\n        /* \"#utility.yul\":1078:1391   */\n    tag_38:\n        /* \"#utility.yul\":1191:1195   */\n      0x00\n        /* \"#utility.yul\":1229:1231   */\n      0x20\n        /* \"#utility.yul\":1218:1227   */\n      dup3\n        /* \"#utility.yul\":1214:1232   */\n      add\n        /* \"#utility.yul\":1206:1232   */\n      swap1\n      pop\n        /* \"#utility.yul\":1278:1287   */\n      dup2\n        /* \"#utility.yul\":1272:1276   */\n      dup2\n        /* \"#utility.yul\":1268:1288   */\n      sub\n        /* \"#utility.yul\":1264:1265   */\n      0x00\n        /* \"#utility.yul\":1253:1262   */\n      dup4\n        /* \"#utility.yul\":1249:1266   */\n      add\n        /* \"#utility.yul\":1242:1289   */\n      mstore\n        /* \"#utility.yul\":1306:1384   */\n      tag_539\n        /* \"#utility.yul\":1379:1383   */\n      dup2\n        /* \"#utility.yul\":1370:1376   */\n      dup5\n        /* \"#utility.yul\":1306:1384   */\n      tag_451\n      jump\t// in\n    tag_539:\n        /* \"#utility.yul\":1298:1384   */\n      swap1\n      pop\n        /* \"#utility.yul\":1078:1391   */\n      swap3\n      swap2\n      pop\n      pop\n      jump\t// out\n        /* \"#utility.yul\":1478:1595   */\n    tag_453:\n        /* \"#utility.yul\":1587:1588   */\n      0x00\n        /* \"#utility.yul\":1584:1585   */\n      dup1\n        /* \"#utility.yul\":1577:1589   */\n      revert\n        /* \"#utility.yul\":1601:1718   */\n    tag_454:\n        /* \"#utility.yul\":1710:1711   */\n      0x00\n        /* \"#utility.yul\":1707:1708   */\n      dup1\n        /* \"#utility.yul\":1700:1712   */\n      revert\n        /* \"#utility.yul\":1724:1850   */\n    tag_455:\n        /* \"#utility.yul\":1761:1768   */\n      0x00\n        /* \"#utility.yul\":1801:1843   */\n      0xffffffffffffffffffffffffffffffffffffffff\n        /* \"#utility.yul\":1794:1799   */\n      dup3\n        /* \"#utility.yul\":1790:1844   */\n      and\n        /* \"#utility.yul\":1779:1844   */\n      swap1\n      pop\n        /* \"#utility.yul\":1724:1850   */\n      swap2\n      swap1\n      pop\n      jump\t// out\n        /* \"#utility.yul\":1856:1952   */\n    tag_456:\n        /* \"#utility.yul\":1893:1900   */\n      0x00\n        /* \"#utility.yul\":1922:1946   */\n      tag_545\n        /* \"#utility.yul\":1940:1945   */\n      dup3\n        /* \"#utility.yul\":1922:1946   */\n      tag_455\n      jump\t// in\n    tag_545:\n        /* \"#utility.yul\":1911:1946   */\n      swap1\n      pop\n        /* \"#utility.yul\":1856:1952   */\n      swap2\n      swap1\n      pop\n      jump\t// out\n        /* \"#utility.yul\":1958:2080   */\n    tag_457:\n        /* \"#utility.yul\":2031:2055   */\n      tag_547\n        /* \"#utility.yul\":2049:2054   */\n      dup2\n        /* \"#utility.yul\":2031:2055   */\n      tag_456\n      jump\t// in\n    tag_547:\n        /* \"#utility.yul\":2024:2029   */\n      dup2\n        /* \"#utility.yul\":2021:2056   */\n      eq\n        /* \"#utility.yul\":2011:2074   */\n      tag_548\n      jumpi\n        /* \"#utility.yul\":2070:2071   */\n      0x00\n        /* \"#utility.yul\":2067:2068   */\n      dup1\n        /* \"#utility.yul\":2060:2072   */\n      revert\n        /* \"#utility.yul\":2011:2074   */\n    tag_548:\n        /* \"#utility.yul\":1958:2080   */\n      pop\n      jump\t// out\n        /* \"#utility.yul\":2086:2225   */\n    tag_458:\n        /* \"#utility.yul\":2132:2137   */\n      0x00\n        /* \"#utility.yul\":2170:2176   */\n      dup2\n        /* \"#utility.yul\":2157:2177   */\n      calldataload\n        /* \"#utility.yul\":2148:2177   */\n      swap1\n      pop\n        /* \"#utility.yul\":2186:2219   */\n      tag_550\n        /* \"#utility.yul\":2213:2218   */\n      dup2\n        /* \"#utility.yul\":2186:2219   */\n      tag_457\n      jump\t// in\n    tag_550:\n        /* \"#utility.yul\":2086:2225   */\n      swap3\n      swap2\n      pop\n      pop\n      jump\t// out\n        /* \"#utility.yul\":2231:2308   */\n    tag_459:\n        /* \"#utility.yul\":2268:2275   */\n      0x00\n        /* \"#utility.yul\":2297:2302   */\n      dup2\n        /* \"#utility.yul\":2286:2302   */\n      swap1\n      pop\n        /* \"#utility.yul\":2231:2308   */\n      swap2\n      swap1\n      pop\n      jump\t// out\n        /* \"#utility.yul\":2314:2436   */\n    tag_460:\n        /* \"#utility.yul\":2387:2411   */\n      tag_553\n        /* \"#utility.yul\":2405:2410   */\n      dup2\n        /* \"#utility.yul\":2387:2411   */\n      tag_459\n      jump\t// in\n    tag_553:\n        /* \"#utility.yul\":2380:2385   */\n      dup2\n        /* \"#utility.yul\":2377:2412   */\n      eq\n        /* \"#utility.yul\":2367:2430   */\n      tag_554\n      jumpi\n        /* \"#utility.yul\":2426:2427   */\n      0x00\n        /* \"#utility.yul\":2423:2424   */\n      dup1\n        /* \"#utility.yul\":2416:2428   */\n      revert\n        /* \"#utility.yul\":2367:2430   */\n    tag_554:\n        /* \"#utility.yul\":2314:2436   */\n      pop\n      jump\t// out\n        /* \"#utility.yul\":2442:2581   */\n    tag_461:\n        /* \"#utility.yul\":2488:2493   */\n      0x00\n        /* \"#utility.yul\":2526:2532   */\n      dup2\n        /* \"#utility.yul\":2513:2533   */\n      calldataload\n        /* \"#utility.yul\":2504:2533   */\n      swap1\n      pop\n        /* \"#utility.yul\":2542:2575   */\n      tag_556\n        /* \"#utility.yul\":2569:2574   */\n      dup2\n        /* \"#utility.yul\":2542:2575   */\n      tag_460\n      jump\t// in\n    tag_556:\n        /* \"#utility.yul\":2442:2581   */\n      swap3\n      swap2\n      pop\n      pop\n      jump\t// out\n        /* \"#utility.yul\":2587:3061   */\n    tag_42:\n        /* \"#utility.yul\":2655:2661   */\n      0x00\n        /* \"#utility.yul\":2663:2669   */\n      dup1\n        /* \"#utility.yul\":2712:2714   */\n      0x40\n        /* \"#utility.yul\":2700:2709   */\n      dup4\n        /* \"#utility.yul\":2691:2698   */\n      dup6\n        /* \"#utility.yul\":2687:2710   */\n      sub\n        /* \"#utility.yul\":2683:2715   */\n      slt\n        /* \"#utility.yul\":2680:2799   */\n      iszero\n      tag_558\n      jumpi\n        /* \"#utility.yul\":2718:2797   */\n      tag_559\n      tag_453\n      jump\t// in\n    tag_559:\n        /* \"#utility.yul\":2680:2799   */\n    tag_558:\n        /* \"#utility.yul\":2838:2839   */\n      0x00\n        /* \"#utility.yul\":2863:2916   */\n      tag_560\n        /* \"#utility.yul\":2908:2915   */\n      dup6\n        /* \"#utility.yul\":2899:2905   */\n      dup3\n        /* \"#utility.yul\":2888:2897   */\n      dup7\n        /* \"#utility.yul\":2884:2906   */\n      add\n        /* \"#utility.yul\":2863:2916   */\n      tag_458\n      jump\t// in\n    tag_560:\n        /* \"#utility.yul\":2853:2916   */\n      swap3\n      pop\n        /* \"#utility.yul\":2809:2926   */\n      pop\n        /* \"#utility.yul\":2965:2967   */\n      0x20\n        /* \"#utility.yul\":2991:3044   */\n      tag_561\n        /* \"#utility.yul\":3036:3043   */\n      dup6\n        /* \"#utility.yul\":3027:3033   */\n      dup3\n        /* \"#utility.yul\":3016:3025   */\n      dup7\n        /* \"#utility.yul\":3012:3034   */\n      add\n        /* \"#utility.yul\":2991:3044   */\n      tag_461\n      jump\t// in\n    tag_561:\n        /* \"#utility.yul\":2981:3044   */\n      swap2\n      pop\n        /* \"#utility.yul\":2936:3054   */\n      pop\n        /* \"#utility.yul\":2587:3061   */\n      swap3\n      pop\n      swap3\n      swap1\n      pop\n      jump\t// out\n        /* \"#utility.yul\":3067:3157   */\n    tag_462:\n        /* \"#utility.yul\":3101:3108   */\n      0x00\n        /* \"#utility.yul\":3144:3149   */\n      dup2\n        /* \"#utility.yul\":3137:3150   */\n      iszero\n        /* \"#utility.yul\":3130:3151   */\n      iszero\n        /* \"#utility.yul\":3119:3151   */\n      swap1\n      pop\n        /* \"#utility.yul\":3067:3157   */\n      swap2\n      swap1\n      pop\n      jump\t// out\n        /* \"#utility.yul\":3163:3272   */\n    tag_463:\n        /* \"#utility.yul\":3244:3265   */\n      tag_564\n        /* \"#utility.yul\":3259:3264   */\n      dup2\n        /* \"#utility.yul\":3244:3265   */\n      tag_462\n      jump\t// in\n    tag_564:\n        /* \"#utility.yul\":3239:3242   */\n      dup3\n        /* \"#utility.yul\":3232:3266   */\n      mstore\n        /* \"#utility.yul\":3163:3272   */\n      pop\n      pop\n      jump\t// out\n        /* \"#utility.yul\":3278:3488   */\n    tag_45:\n        /* \"#utility.yul\":3365:3369   */\n      0x00\n        /* \"#utility.yul\":3403:3405   */\n      0x20\n        /* \"#utility.yul\":3392:3401   */\n      dup3\n        /* \"#utility.yul\":3388:3406   */\n      add\n        /* \"#utility.yul\":3380:3406   */\n      swap1\n      pop\n        /* \"#utility.yul\":3416:3481   */\n      tag_566\n        /* \"#utility.yul\":3478:3479   */\n      0x00\n        /* \"#utility.yul\":3467:3476   */\n      dup4\n        /* \"#utility.yul\":3463:3480   */\n      add\n        /* \"#utility.yul\":3454:3460   */\n      dup5\n        /* \"#utility.yul\":3416:3481   */\n      tag_463\n      jump\t// in\n    tag_566:\n        /* \"#utility.yul\":3278:3488   */\n      swap3\n      swap2\n      pop\n      pop\n      jump\t// out\n        /* \"#utility.yul\":3494:3554   */\n    tag_464:\n        /* \"#utility.yul\":3522:3525   */\n      0x00\n        /* \"#utility.yul\":3543:3548   */\n      dup2\n        /* \"#utility.yul\":3536:3548   */\n      swap1\n      pop\n        /* \"#utility.yul\":3494:3554   */\n      swap2\n      swap1\n      pop\n      jump\t// out\n        /* \"#utility.yul\":3560:3702   */\n    tag_465:\n        /* \"#utility.yul\":3610:3619   */\n      0x00\n        /* \"#utility.yul\":3643:3696   */\n      tag_569\n        /* \"#utility.yul\":3661:3695   */\n      tag_570\n        /* \"#utility.yul\":3670:3694   */\n      tag_571\n        /* \"#utility.yul\":3688:3693   */\n      dup5\n        /* \"#utility.yul\":3670:3694   */\n      tag_455\n      jump\t// in\n    tag_571:\n        /* \"#utility.yul\":3661:3695   */\n      tag_464\n      jump\t// in\n    tag_570:\n        /* \"#utility.yul\":3643:3696   */\n      tag_455\n      jump\t// in\n    tag_569:\n        /* \"#utility.yul\":3630:3696   */\n      swap1\n      pop\n        /* \"#utility.yul\":3560:3702   */\n      swap2\n      swap1\n      pop\n      jump\t// out\n        /* \"#utility.yul\":3708:3834   */\n    tag_466:\n        /* \"#utility.yul\":3758:3767   */\n      0x00\n        /* \"#utility.yul\":3791:3828   */\n      tag_573\n        /* \"#utility.yul\":3822:3827   */\n      dup3\n        /* \"#utility.yul\":3791:3828   */\n      tag_465\n      jump\t// in\n    tag_573:\n        /* \"#utility.yul\":3778:3828   */\n      swap1\n      pop\n        /* \"#utility.yul\":3708:3834   */\n      swap2\n      swap1\n      pop\n      jump\t// out\n        /* \"#utility.yul\":3840:3992   */\n    tag_467:\n        /* \"#utility.yul\":3916:3925   */\n      0x00\n        /* \"#utility.yul\":3949:3986   */\n      tag_575\n        /* \"#utility.yul\":3980:3985   */\n      dup3\n        /* \"#utility.yul\":3949:3986   */\n      tag_466\n      jump\t// in\n    tag_575:\n        /* \"#utility.yul\":3936:3986   */\n      swap1\n      pop\n        /* \"#utility.yul\":3840:3992   */\n      swap2\n      swap1\n      pop\n      jump\t// out\n        /* \"#utility.yul\":3998:4181   */\n    tag_468:\n        /* \"#utility.yul\":4111:4174   */\n      tag_577\n        /* \"#utility.yul\":4168:4173   */\n      dup2\n        /* \"#utility.yul\":4111:4174   */\n      tag_467\n      jump\t// in\n    tag_577:\n        /* \"#utility.yul\":4106:4109   */\n      dup3\n        /* \"#utility.yul\":4099:4175   */\n      mstore\n        /* \"#utility.yul\":3998:4181   */\n      pop\n      pop\n      jump\t// out\n        /* \"#utility.yul\":4187:4461   */\n    tag_50:\n        /* \"#utility.yul\":4306:4310   */\n      0x00\n        /* \"#utility.yul\":4344:4346   */\n      0x20\n        /* \"#utility.yul\":4333:4342   */\n      dup3\n        /* \"#utility.yul\":4329:4347   */\n      add\n        /* \"#utility.yul\":4321:4347   */\n      swap1\n      pop\n        /* \"#utility.yul\":4357:4454   */\n      tag_579\n        /* \"#utility.yul\":4451:4452   */\n      0x00\n        /* \"#utility.yul\":4440:4449   */\n      dup4\n        /* \"#utility.yul\":4436:4453   */\n      add\n        /* \"#utility.yul\":4427:4433   */\n      dup5\n        /* \"#utility.yul\":4357:4454   */\n      tag_468\n      jump\t// in\n    tag_579:\n        /* \"#utility.yul\":4187:4461   */\n      swap3\n      swap2\n      pop\n      pop\n      jump\t// out\n        /* \"#utility.yul\":4467:4585   */\n    tag_469:\n        /* \"#utility.yul\":4554:4578   */\n      tag_581\n        /* \"#utility.yul\":4572:4577   */\n      dup2\n        /* \"#utility.yul\":4554:4578   */\n      tag_459\n      jump\t// in\n    tag_581:\n        /* \"#utility.yul\":4549:4552   */\n      dup3\n        /* \"#utility.yul\":4542:4579   */\n      mstore\n        /* \"#utility.yul\":4467:4585   */\n      pop\n      pop\n      jump\t// out\n        /* \"#utility.yul\":4591:4813   */\n    tag_55:\n        /* \"#utility.yul\":4684:4688   */\n      0x00\n        /* \"#utility.yul\":4722:4724   */\n      0x20\n        /* \"#utility.yul\":4711:4720   */\n      dup3\n        /* \"#utility.yul\":4707:4725   */\n      add\n        /* \"#utility.yul\":4699:4725   */\n      swap1\n      pop\n        /* \"#utility.yul\":4735:4806   */\n      tag_583\n        /* \"#utility.yul\":4803:4804   */\n      0x00\n        /* \"#utility.yul\":4792:4801   */\n      dup4\n        /* \"#utility.yul\":4788:4805   */\n      add\n        /* \"#utility.yul\":4779:4785   */\n      dup5\n        /* \"#utility.yul\":4735:4806   */\n      tag_469\n      jump\t// in\n    tag_583:\n        /* \"#utility.yul\":4591:4813   */\n      swap3\n      swap2\n      pop\n      pop\n      jump\t// out\n        /* \"#utility.yul\":4819:5438   */\n    tag_59:\n        /* \"#utility.yul\":4896:4902   */\n      0x00\n        /* \"#utility.yul\":4904:4910   */\n      dup1\n        /* \"#utility.yul\":4912:4918   */\n      0x00\n        /* \"#utility.yul\":4961:4963   */\n      0x60\n        /* \"#utility.yul\":4949:4958   */\n      dup5\n        /* \"#utility.yul\":4940:4947   */\n      dup7\n        /* \"#utility.yul\":4936:4959   */\n      sub\n        /* \"#utility.yul\":4932:4964   */\n      slt\n        /* \"#utility.yul\":4929:5048   */\n      iszero\n      tag_585\n      jumpi\n        /* \"#utility.yul\":4967:5046   */\n      tag_586\n      tag_453\n      jump\t// in\n    tag_586:\n        /* \"#utility.yul\":4929:5048   */\n    tag_585:\n        /* \"#utility.yul\":5087:5088   */\n      0x00\n        /* \"#utility.yul\":5112:5165   */\n      tag_587\n        /* \"#utility.yul\":5157:5164   */\n      dup7\n        /* \"#utility.yul\":5148:5154   */\n      dup3\n        /* \"#utility.yul\":5137:5146   */\n      dup8\n        /* \"#utility.yul\":5133:5155   */\n      add\n        /* \"#utility.yul\":5112:5165   */\n      tag_458\n      jump\t// in\n    tag_587:\n        /* \"#utility.yul\":5102:5165   */\n      swap4\n      pop\n        /* \"#utility.yul\":5058:5175   */\n      pop\n        /* \"#utility.yul\":5214:5216   */\n      0x20\n        /* \"#utility.yul\":5240:5293   */\n      tag_588\n        /* \"#utility.yul\":5285:5292   */\n      dup7\n        /* \"#utility.yul\":5276:5282   */\n      dup3\n        /* \"#utility.yul\":5265:5274   */\n      dup8\n        /* \"#utility.yul\":5261:5283   */\n      add\n        /* \"#utility.yul\":5240:5293   */\n      tag_458\n      jump\t// in\n    tag_588:\n        /* \"#utility.yul\":5230:5293   */\n      swap3\n      pop\n        /* \"#utility.yul\":5185:5303   */\n      pop\n        /* \"#utility.yul\":5342:5344   */\n      0x40\n        /* \"#utility.yul\":5368:5421   */\n      tag_589\n        /* \"#utility.yul\":5413:5420   */\n      dup7\n        /* \"#utility.yul\":5404:5410   */\n      dup3\n        /* \"#utility.yul\":5393:5402   */\n      dup8\n        /* \"#utility.yul\":5389:5411   */\n      add\n        /* \"#utility.yul\":5368:5421   */\n      tag_461\n      jump\t// in\n    tag_589:\n        /* \"#utility.yul\":5358:5421   */\n      swap2\n      pop\n        /* \"#utility.yul\":5313:5431   */\n      pop\n        /* \"#utility.yul\":4819:5438   */\n      swap3\n      pop\n      swap3\n      pop\n      swap3\n      jump\t// out\n        /* \"#utility.yul\":5444:5530   */\n    tag_470:\n        /* \"#utility.yul\":5479:5486   */\n      0x00\n        /* \"#utility.yul\":5519:5523   */\n      0xff\n        /* \"#utility.yul\":5512:5517   */\n      dup3\n        /* \"#utility.yul\":5508:5524   */\n      and\n        /* \"#utility.yul\":5497:5524   */\n      swap1\n      pop\n        /* \"#utility.yul\":5444:5530   */\n      swap2\n      swap1\n      pop\n      jump\t// out\n        /* \"#utility.yul\":5536:5648   */\n    tag_471:\n        /* \"#utility.yul\":5619:5641   */\n      tag_592\n        /* \"#utility.yul\":5635:5640   */\n      dup2\n        /* \"#utility.yul\":5619:5641   */\n      tag_470\n      jump\t// in\n    tag_592:\n        /* \"#utility.yul\":5614:5617   */\n      dup3\n        /* \"#utility.yul\":5607:5642   */\n      mstore\n        /* \"#utility.yul\":5536:5648   */\n      pop\n      pop\n      jump\t// out\n        /* \"#utility.yul\":5654:5868   */\n    tag_66:\n        /* \"#utility.yul\":5743:5747   */\n      0x00\n        /* \"#utility.yul\":5781:5783   */\n      0x20\n        /* \"#utility.yul\":5770:5779   */\n      dup3\n        /* \"#utility.yul\":5766:5784   */\n      add\n        /* \"#utility.yul\":5758:5784   */\n      swap1\n      pop\n        /* \"#utility.yul\":5794:5861   */\n      tag_594\n        /* \"#utility.yul\":5858:5859   */\n      0x00\n        /* \"#utility.yul\":5847:5856   */\n      dup4\n        /* \"#utility.yul\":5843:5860   */\n      add\n        /* \"#utility.yul\":5834:5840   */\n      dup5\n        /* \"#utility.yul\":5794:5861   */\n      tag_471\n      jump\t// in\n    tag_594:\n        /* \"#utility.yul\":5654:5868   */\n      swap3\n      swap2\n      pop\n      pop\n      jump\t// out\n        /* \"#utility.yul\":5874:5992   */\n    tag_472:\n        /* \"#utility.yul\":5961:5985   */\n      tag_596\n        /* \"#utility.yul\":5979:5984   */\n      dup2\n        /* \"#utility.yul\":5961:5985   */\n      tag_456\n      jump\t// in\n    tag_596:\n        /* \"#utility.yul\":5956:5959   */\n      dup3\n        /* \"#utility.yul\":5949:5986   */\n      mstore\n        /* \"#utility.yul\":5874:5992   */\n      pop\n      pop\n      jump\t// out\n        /* \"#utility.yul\":5998:6220   */\n    tag_71:\n        /* \"#utility.yul\":6091:6095   */\n      0x00\n        /* \"#utility.yul\":6129:6131   */\n      0x20\n        /* \"#utility.yul\":6118:6127   */\n      dup3\n        /* \"#utility.yul\":6114:6132   */\n      add\n        /* \"#utility.yul\":6106:6132   */\n      swap1\n      pop\n        /* \"#utility.yul\":6142:6213   */\n      tag_598\n        /* \"#utility.yul\":6210:6211   */\n      0x00\n        /* \"#utility.yul\":6199:6208   */\n      dup4\n        /* \"#utility.yul\":6195:6212   */\n      add\n        /* \"#utility.yul\":6186:6192   */\n      dup5\n        /* \"#utility.yul\":6142:6213   */\n      tag_472\n      jump\t// in\n    tag_598:\n        /* \"#utility.yul\":5998:6220   */\n      swap3\n      swap2\n      pop\n      pop\n      jump\t// out\n        /* \"#utility.yul\":6226:6376   */\n    tag_473:\n        /* \"#utility.yul\":6300:6309   */\n      0x00\n        /* \"#utility.yul\":6333:6370   */\n      tag_600\n        /* \"#utility.yul\":6364:6369   */\n      dup3\n        /* \"#utility.yul\":6333:6370   */\n      tag_466\n      jump\t// in\n    tag_600:\n        /* \"#utility.yul\":6320:6370   */\n      swap1\n      pop\n        /* \"#utility.yul\":6226:6376   */\n      swap2\n      swap1\n      pop\n      jump\t// out\n        /* \"#utility.yul\":6382:6561   */\n    tag_474:\n        /* \"#utility.yul\":6493:6554   */\n      tag_602\n        /* \"#utility.yul\":6548:6553   */\n      dup2\n        /* \"#utility.yul\":6493:6554   */\n      tag_473\n      jump\t// in\n    tag_602:\n        /* \"#utility.yul\":6488:6491   */\n      dup3\n        /* \"#utility.yul\":6481:6555   */\n      mstore\n        /* \"#utility.yul\":6382:6561   */\n      pop\n      pop\n      jump\t// out\n        /* \"#utility.yul\":6567:6837   */\n    tag_76:\n        /* \"#utility.yul\":6684:6688   */\n      0x00\n        /* \"#utility.yul\":6722:6724   */\n      0x20\n        /* \"#utility.yul\":6711:6720   */\n      dup3\n        /* \"#utility.yul\":6707:6725   */\n      add\n        /* \"#utility.yul\":6699:6725   */\n      swap1\n      pop\n        /* \"#utility.yul\":6735:6830   */\n      tag_604\n        /* \"#utility.yul\":6827:6828   */\n      0x00\n        /* \"#utility.yul\":6816:6825   */\n      dup4\n        /* \"#utility.yul\":6812:6829   */\n      add\n        /* \"#utility.yul\":6803:6809   */\n      dup5\n        /* \"#utility.yul\":6735:6830   */\n      tag_474\n      jump\t// in\n    tag_604:\n        /* \"#utility.yul\":6567:6837   */\n      swap3\n      swap2\n      pop\n      pop\n      jump\t// out\n        /* \"#utility.yul\":6843:6959   */\n    tag_475:\n        /* \"#utility.yul\":6913:6934   */\n      tag_606\n        /* \"#utility.yul\":6928:6933   */\n      dup2\n        /* \"#utility.yul\":6913:6934   */\n      tag_462\n      jump\t// in\n    tag_606:\n        /* \"#utility.yul\":6906:6911   */\n      dup2\n        /* \"#utility.yul\":6903:6935   */\n      eq\n        /* \"#utility.yul\":6893:6953   */\n      tag_607\n      jumpi\n        /* \"#utility.yul\":6949:6950   */\n      0x00\n        /* \"#utility.yul\":6946:6947   */\n      dup1\n        /* \"#utility.yul\":6939:6951   */\n      revert\n        /* \"#utility.yul\":6893:6953   */\n    tag_607:\n        /* \"#utility.yul\":6843:6959   */\n      pop\n      jump\t// out\n        /* \"#utility.yul\":6965:7098   */\n    tag_476:\n        /* \"#utility.yul\":7008:7013   */\n      0x00\n        /* \"#utility.yul\":7046:7052   */\n      dup2\n        /* \"#utility.yul\":7033:7053   */\n      calldataload\n        /* \"#utility.yul\":7024:7053   */\n      swap1\n      pop\n        /* \"#utility.yul\":7062:7092   */\n      tag_609\n        /* \"#utility.yul\":7086:7091   */\n      dup2\n        /* \"#utility.yul\":7062:7092   */\n      tag_475\n      jump\t// in\n    tag_609:\n        /* \"#utility.yul\":6965:7098   */\n      swap3\n      swap2\n      pop\n      pop\n      jump\t// out\n        /* \"#utility.yul\":7104:7427   */\n    tag_80:\n        /* \"#utility.yul\":7160:7166   */\n      0x00\n        /* \"#utility.yul\":7209:7211   */\n      0x20\n        /* \"#utility.yul\":7197:7206   */\n      dup3\n        /* \"#utility.yul\":7188:7195   */\n      dup5\n        /* \"#utility.yul\":7184:7207   */\n      sub\n        /* \"#utility.yul\":7180:7212   */\n      slt\n        /* \"#utility.yul\":7177:7296   */\n      iszero\n      tag_611\n      jumpi\n        /* \"#utility.yul\":7215:7294   */\n      tag_612\n      tag_453\n      jump\t// in\n    tag_612:\n        /* \"#utility.yul\":7177:7296   */\n    tag_611:\n        /* \"#utility.yul\":7335:7336   */\n      0x00\n        /* \"#utility.yul\":7360:7410   */\n      tag_613\n        /* \"#utility.yul\":7402:7409   */\n      dup5\n        /* \"#utility.yul\":7393:7399   */\n      dup3\n        /* \"#utility.yul\":7382:7391   */\n      dup6\n        /* \"#utility.yul\":7378:7400   */\n      add\n        /* \"#utility.yul\":7360:7410   */\n      tag_476\n      jump\t// in\n    tag_613:\n        /* \"#utility.yul\":7350:7410   */\n      swap2\n      pop\n        /* \"#utility.yul\":7306:7420   */\n      pop\n        /* \"#utility.yul\":7104:7427   */\n      swap3\n      swap2\n      pop\n      pop\n      jump\t// out\n        /* \"#utility.yul\":7433:7762   */\n    tag_88:\n        /* \"#utility.yul\":7492:7498   */\n      0x00\n        /* \"#utility.yul\":7541:7543   */\n      0x20\n        /* \"#utility.yul\":7529:7538   */\n      dup3\n        /* \"#utility.yul\":7520:7527   */\n      dup5\n        /* \"#utility.yul\":7516:7539   */\n      sub\n        /* \"#utility.yul\":7512:7544   */\n      slt\n        /* \"#utility.yul\":7509:7628   */\n      iszero\n      tag_615\n      jumpi\n        /* \"#utility.yul\":7547:7626   */\n      tag_616\n      tag_453\n      jump\t// in\n    tag_616:\n        /* \"#utility.yul\":7509:7628   */\n    tag_615:\n        /* \"#utility.yul\":7667:7668   */\n      0x00\n        /* \"#utility.yul\":7692:7745   */\n      tag_617\n        /* \"#utility.yul\":7737:7744   */\n      dup5\n        /* \"#utility.yul\":7728:7734   */\n      dup3\n        /* \"#utility.yul\":7717:7726   */\n      dup6\n        /* \"#utility.yul\":7713:7735   */\n      add\n        /* \"#utility.yul\":7692:7745   */\n      tag_458\n      jump\t// in\n    tag_617:\n        /* \"#utility.yul\":7682:7745   */\n      swap2\n      pop\n        /* \"#utility.yul\":7638:7755   */\n      pop\n        /* \"#utility.yul\":7433:7762   */\n      swap3\n      swap2\n      pop\n      pop\n      jump\t// out\n        /* \"#utility.yul\":7768:7872   */\n    tag_477:\n        /* \"#utility.yul\":7813:7820   */\n      0x00\n        /* \"#utility.yul\":7842:7866   */\n      tag_619\n        /* \"#utility.yul\":7860:7865   */\n      dup3\n        /* \"#utility.yul\":7842:7866   */\n      tag_455\n      jump\t// in\n    tag_619:\n        /* \"#utility.yul\":7831:7866   */\n      swap1\n      pop\n        /* \"#utility.yul\":7768:7872   */\n      swap2\n      swap1\n      pop\n      jump\t// out\n        /* \"#utility.yul\":7878:8016   */\n    tag_478:\n        /* \"#utility.yul\":7959:7991   */\n      tag_621\n        /* \"#utility.yul\":7985:7990   */\n      dup2\n        /* \"#utility.yul\":7959:7991   */\n      tag_477\n      jump\t// in\n    tag_621:\n        /* \"#utility.yul\":7952:7957   */\n      dup2\n        /* \"#utility.yul\":7949:7992   */\n      eq\n        /* \"#utility.yul\":7939:8010   */\n      tag_622\n      jumpi\n        /* \"#utility.yul\":8006:8007   */\n      0x00\n        /* \"#utility.yul\":8003:8004   */\n      dup1\n        /* \"#utility.yul\":7996:8008   */\n      revert\n        /* \"#utility.yul\":7939:8010   */\n    tag_622:\n        /* \"#utility.yul\":7878:8016   */\n      pop\n      jump\t// out\n        /* \"#utility.yul\":8022:8177   */\n    tag_479:\n        /* \"#utility.yul\":8076:8081   */\n      0x00\n        /* \"#utility.yul\":8114:8120   */\n      dup2\n        /* \"#utility.yul\":8101:8121   */\n      calldataload\n        /* \"#utility.yul\":8092:8121   */\n      swap1\n      pop\n        /* \"#utility.yul\":8130:8171   */\n      tag_624\n        /* \"#utility.yul\":8165:8170   */\n      dup2\n        /* \"#utility.yul\":8130:8171   */\n      tag_478\n      jump\t// in\n    tag_624:\n        /* \"#utility.yul\":8022:8177   */\n      swap3\n      swap2\n      pop\n      pop\n      jump\t// out\n        /* \"#utility.yul\":8183:8528   */\n    tag_97:\n        /* \"#utility.yul\":8250:8256   */\n      0x00\n        /* \"#utility.yul\":8299:8301   */\n      0x20\n        /* \"#utility.yul\":8287:8296   */\n      dup3\n        /* \"#utility.yul\":8278:8285   */\n      dup5\n        /* \"#utility.yul\":8274:8297   */\n      sub\n        /* \"#utility.yul\":8270:8302   */\n      slt\n        /* \"#utility.yul\":8267:8386   */\n      iszero\n      tag_626\n      jumpi\n        /* \"#utility.yul\":8305:8384   */\n      tag_627\n      tag_453\n      jump\t// in\n    tag_627:\n        /* \"#utility.yul\":8267:8386   */\n    tag_626:\n        /* \"#utility.yul\":8425:8426   */\n      0x00\n        /* \"#utility.yul\":8450:8511   */\n      tag_628\n        /* \"#utility.yul\":8503:8510   */\n      dup5\n        /* \"#utility.yul\":8494:8500   */\n      dup3\n        /* \"#utility.yul\":8483:8492   */\n      dup6\n        /* \"#utility.yul\":8479:8501   */\n      add\n        /* \"#utility.yul\":8450:8511   */\n      tag_479\n      jump\t// in\n    tag_628:\n        /* \"#utility.yul\":8440:8511   */\n      swap2\n      pop\n        /* \"#utility.yul\":8396:8521   */\n      pop\n        /* \"#utility.yul\":8183:8528   */\n      swap3\n      swap2\n      pop\n      pop\n      jump\t// out\n        /* \"#utility.yul\":8534:9299   */\n    tag_110:\n        /* \"#utility.yul\":8620:8626   */\n      0x00\n        /* \"#utility.yul\":8628:8634   */\n      dup1\n        /* \"#utility.yul\":8636:8642   */\n      0x00\n        /* \"#utility.yul\":8644:8650   */\n      dup1\n        /* \"#utility.yul\":8693:8696   */\n      0x80\n        /* \"#utility.yul\":8681:8690   */\n      dup6\n        /* \"#utility.yul\":8672:8679   */\n      dup8\n        /* \"#utility.yul\":8668:8691   */\n      sub\n        /* \"#utility.yul\":8664:8697   */\n      slt\n        /* \"#utility.yul\":8661:8781   */\n      iszero\n      tag_630\n      jumpi\n        /* \"#utility.yul\":8700:8779   */\n      tag_631\n      tag_453\n      jump\t// in\n    tag_631:\n        /* \"#utility.yul\":8661:8781   */\n    tag_630:\n        /* \"#utility.yul\":8820:8821   */\n      0x00\n        /* \"#utility.yul\":8845:8898   */\n      tag_632\n        /* \"#utility.yul\":8890:8897   */\n      dup8\n        /* \"#utility.yul\":8881:8887   */\n      dup3\n        /* \"#utility.yul\":8870:8879   */\n      dup9\n        /* \"#utility.yul\":8866:8888   */\n      add\n        /* \"#utility.yul\":8845:8898   */\n      tag_461\n      jump\t// in\n    tag_632:\n        /* \"#utility.yul\":8835:8898   */\n      swap5\n      pop\n        /* \"#utility.yul\":8791:8908   */\n      pop\n        /* \"#utility.yul\":8947:8949   */\n      0x20\n        /* \"#utility.yul\":8973:9026   */\n      tag_633\n        /* \"#utility.yul\":9018:9025   */\n      dup8\n        /* \"#utility.yul\":9009:9015   */\n      dup3\n        /* \"#utility.yul\":8998:9007   */\n      dup9\n        /* \"#utility.yul\":8994:9016   */\n      add\n        /* \"#utility.yul\":8973:9026   */\n      tag_461\n      jump\t// in\n    tag_633:\n        /* \"#utility.yul\":8963:9026   */\n      swap4\n      pop\n        /* \"#utility.yul\":8918:9036   */\n      pop\n        /* \"#utility.yul\":9075:9077   */\n      0x40\n        /* \"#utility.yul\":9101:9154   */\n      tag_634\n        /* \"#utility.yul\":9146:9153   */\n      dup8\n        /* \"#utility.yul\":9137:9143   */\n      dup3\n        /* \"#utility.yul\":9126:9135   */\n      dup9\n        /* \"#utility.yul\":9122:9144   */\n      add\n        /* \"#utility.yul\":9101:9154   */\n      tag_461\n      jump\t// in\n    tag_634:\n        /* \"#utility.yul\":9091:9154   */\n      swap3\n      pop\n        /* \"#utility.yul\":9046:9164   */\n      pop\n        /* \"#utility.yul\":9203:9205   */\n      0x60\n        /* \"#utility.yul\":9229:9282   */\n      tag_635\n        /* \"#utility.yul\":9274:9281   */\n      dup8\n        /* \"#utility.yul\":9265:9271   */\n      dup3\n        /* \"#utility.yul\":9254:9263   */\n      dup9\n        /* \"#utility.yul\":9250:9272   */\n      add\n        /* \"#utility.yul\":9229:9282   */\n      tag_461\n      jump\t// in\n    tag_635:\n        /* \"#utility.yul\":9219:9282   */\n      swap2\n      pop\n        /* \"#utility.yul\":9174:9292   */\n      pop\n        /* \"#utility.yul\":8534:9299   */\n      swap3\n      swap6\n      swap2\n      swap5\n      pop\n      swap3\n      pop\n      jump\t// out\n        /* \"#utility.yul\":9305:9422   */\n    tag_480:\n        /* \"#utility.yul\":9414:9415   */\n      0x00\n        /* \"#utility.yul\":9411:9412   */\n      dup1\n        /* \"#utility.yul\":9404:9416   */\n      revert\n        /* \"#utility.yul\":9428:9545   */\n    tag_481:\n        /* \"#utility.yul\":9537:9538   */\n      0x00\n        /* \"#utility.yul\":9534:9535   */\n      dup1\n        /* \"#utility.yul\":9527:9539   */\n      revert\n        /* \"#utility.yul\":9551:9668   */\n    tag_482:\n        /* \"#utility.yul\":9660:9661   */\n      0x00\n        /* \"#utility.yul\":9657:9658   */\n      dup1\n        /* \"#utility.yul\":9650:9662   */\n      revert\n        /* \"#utility.yul\":9691:10259   */\n    tag_483:\n        /* \"#utility.yul\":9764:9772   */\n      0x00\n        /* \"#utility.yul\":9774:9780   */\n      dup1\n        /* \"#utility.yul\":9824:9827   */\n      dup4\n        /* \"#utility.yul\":9817:9821   */\n      0x1f\n        /* \"#utility.yul\":9809:9815   */\n      dup5\n        /* \"#utility.yul\":9805:9822   */\n      add\n        /* \"#utility.yul\":9801:9828   */\n      slt\n        /* \"#utility.yul\":9791:9913   */\n      tag_640\n      jumpi\n        /* \"#utility.yul\":9832:9911   */\n      tag_641\n      tag_480\n      jump\t// in\n    tag_641:\n        /* \"#utility.yul\":9791:9913   */\n    tag_640:\n        /* \"#utility.yul\":9945:9951   */\n      dup3\n        /* \"#utility.yul\":9932:9952   */\n      calldataload\n        /* \"#utility.yul\":9922:9952   */\n      swap1\n      pop\n        /* \"#utility.yul\":9975:9993   */\n      0xffffffffffffffff\n        /* \"#utility.yul\":9967:9973   */\n      dup2\n        /* \"#utility.yul\":9964:9994   */\n      gt\n        /* \"#utility.yul\":9961:10078   */\n      iszero\n      tag_642\n      jumpi\n        /* \"#utility.yul\":9997:10076   */\n      tag_643\n      tag_481\n      jump\t// in\n    tag_643:\n        /* \"#utility.yul\":9961:10078   */\n    tag_642:\n        /* \"#utility.yul\":10111:10115   */\n      0x20\n        /* \"#utility.yul\":10103:10109   */\n      dup4\n        /* \"#utility.yul\":10099:10116   */\n      add\n        /* \"#utility.yul\":10087:10116   */\n      swap2\n      pop\n        /* \"#utility.yul\":10165:10168   */\n      dup4\n        /* \"#utility.yul\":10157:10161   */\n      0x20\n        /* \"#utility.yul\":10149:10155   */\n      dup3\n        /* \"#utility.yul\":10145:10162   */\n      mul\n        /* \"#utility.yul\":10135:10143   */\n      dup4\n        /* \"#utility.yul\":10131:10163   */\n      add\n        /* \"#utility.yul\":10128:10169   */\n      gt\n        /* \"#utility.yul\":10125:10253   */\n      iszero\n      tag_644\n      jumpi\n        /* \"#utility.yul\":10172:10251   */\n      tag_645\n      tag_482\n      jump\t// in\n    tag_645:\n        /* \"#utility.yul\":10125:10253   */\n    tag_644:\n        /* \"#utility.yul\":9691:10259   */\n      swap3\n      pop\n      swap3\n      swap1\n      pop\n      jump\t// out\n        /* \"#utility.yul\":10265:10963   */\n    tag_127:\n        /* \"#utility.yul\":10357:10363   */\n      0x00\n        /* \"#utility.yul\":10365:10371   */\n      dup1\n        /* \"#utility.yul\":10373:10379   */\n      0x00\n        /* \"#utility.yul\":10422:10424   */\n      0x40\n        /* \"#utility.yul\":10410:10419   */\n      dup5\n        /* \"#utility.yul\":10401:10408   */\n      dup7\n        /* \"#utility.yul\":10397:10420   */\n      sub\n        /* \"#utility.yul\":10393:10425   */\n      slt\n        /* \"#utility.yul\":10390:10509   */\n      iszero\n      tag_647\n      jumpi\n        /* \"#utility.yul\":10428:10507   */\n      tag_648\n      tag_453\n      jump\t// in\n    tag_648:\n        /* \"#utility.yul\":10390:10509   */\n    tag_647:\n        /* \"#utility.yul\":10576:10577   */\n      0x00\n        /* \"#utility.yul\":10565:10574   */\n      dup5\n        /* \"#utility.yul\":10561:10578   */\n      add\n        /* \"#utility.yul\":10548:10579   */\n      calldataload\n        /* \"#utility.yul\":10606:10624   */\n      0xffffffffffffffff\n        /* \"#utility.yul\":10598:10604   */\n      dup2\n        /* \"#utility.yul\":10595:10625   */\n      gt\n        /* \"#utility.yul\":10592:10709   */\n      iszero\n      tag_649\n      jumpi\n        /* \"#utility.yul\":10628:10707   */\n      tag_650\n      tag_454\n      jump\t// in\n    tag_650:\n        /* \"#utility.yul\":10592:10709   */\n    tag_649:\n        /* \"#utility.yul\":10741:10821   */\n      tag_651\n        /* \"#utility.yul\":10813:10820   */\n      dup7\n        /* \"#utility.yul\":10804:10810   */\n      dup3\n        /* \"#utility.yul\":10793:10802   */\n      dup8\n        /* \"#utility.yul\":10789:10811   */\n      add\n        /* \"#utility.yul\":10741:10821   */\n      tag_483\n      jump\t// in\n    tag_651:\n        /* \"#utility.yul\":10723:10821   */\n      swap4\n      pop\n      swap4\n      pop\n        /* \"#utility.yul\":10519:10831   */\n      pop\n        /* \"#utility.yul\":10870:10872   */\n      0x20\n        /* \"#utility.yul\":10896:10946   */\n      tag_652\n        /* \"#utility.yul\":10938:10945   */\n      dup7\n        /* \"#utility.yul\":10929:10935   */\n      dup3\n        /* \"#utility.yul\":10918:10927   */\n      dup8\n        /* \"#utility.yul\":10914:10936   */\n      add\n        /* \"#utility.yul\":10896:10946   */\n      tag_476\n      jump\t// in\n    tag_652:\n        /* \"#utility.yul\":10886:10946   */\n      swap2\n      pop\n        /* \"#utility.yul\":10841:10956   */\n      pop\n        /* \"#utility.yul\":10265:10963   */\n      swap3\n      pop\n      swap3\n      pop\n      swap3\n      jump\t// out\n        /* \"#utility.yul\":10969:11443   */\n    tag_140:\n        /* \"#utility.yul\":11037:11043   */\n      0x00\n        /* \"#utility.yul\":11045:11051   */\n      dup1\n        /* \"#utility.yul\":11094:11096   */\n      0x40\n        /* \"#utility.yul\":11082:11091   */\n      dup4\n        /* \"#utility.yul\":11073:11080   */\n      dup6\n        /* \"#utility.yul\":11069:11092   */\n      sub\n        /* \"#utility.yul\":11065:11097   */\n      slt\n        /* \"#utility.yul\":11062:11181   */\n      iszero\n      tag_654\n      jumpi\n        /* \"#utility.yul\":11100:11179   */\n      tag_655\n      tag_453\n      jump\t// in\n    tag_655:\n        /* \"#utility.yul\":11062:11181   */\n    tag_654:\n        /* \"#utility.yul\":11220:11221   */\n      0x00\n        /* \"#utility.yul\":11245:11298   */\n      tag_656\n        /* \"#utility.yul\":11290:11297   */\n      dup6\n        /* \"#utility.yul\":11281:11287   */\n      dup3\n        /* \"#utility.yul\":11270:11279   */\n      dup7\n        /* \"#utility.yul\":11266:11288   */\n      add\n        /* \"#utility.yul\":11245:11298   */\n      tag_458\n      jump\t// in\n    tag_656:\n        /* \"#utility.yul\":11235:11298   */\n      swap3\n      pop\n        /* \"#utility.yul\":11191:11308   */\n      pop\n        /* \"#utility.yul\":11347:11349   */\n      0x20\n        /* \"#utility.yul\":11373:11426   */\n      tag_657\n        /* \"#utility.yul\":11418:11425   */\n      dup6\n        /* \"#utility.yul\":11409:11415   */\n      dup3\n        /* \"#utility.yul\":11398:11407   */\n      dup7\n        /* \"#utility.yul\":11394:11416   */\n      add\n        /* \"#utility.yul\":11373:11426   */\n      tag_458\n      jump\t// in\n    tag_657:\n        /* \"#utility.yul\":11363:11426   */\n      swap2\n      pop\n        /* \"#utility.yul\":11318:11436   */\n      pop\n        /* \"#utility.yul\":10969:11443   */\n      swap3\n      pop\n      swap3\n      swap1\n      pop\n      jump\t// out\n        /* \"#utility.yul\":11449:11620   */\n    tag_484:\n        /* \"#utility.yul\":11589:11612   */\n      0x43616c6c6572206973206e6f7420746865206465760000000000000000000000\n        /* \"#utility.yul\":11585:11586   */\n      0x00\n        /* \"#utility.yul\":11577:11583   */\n      dup3\n        /* \"#utility.yul\":11573:11587   */\n      add\n        /* \"#utility.yul\":11566:11613   */\n      mstore\n        /* \"#utility.yul\":11449:11620   */\n      pop\n      jump\t// out\n        /* \"#utility.yul\":11626:11992   */\n    tag_485:\n        /* \"#utility.yul\":11768:11771   */\n      0x00\n        /* \"#utility.yul\":11789:11856   */\n      tag_660\n        /* \"#utility.yul\":11853:11855   */\n      0x15\n        /* \"#utility.yul\":11848:11851   */\n      dup4\n        /* \"#utility.yul\":11789:11856   */\n      tag_448\n      jump\t// in\n    tag_660:\n        /* \"#utility.yul\":11782:11856   */\n      swap2\n      pop\n        /* \"#utility.yul\":11865:11958   */\n      tag_661\n        /* \"#utility.yul\":11954:11957   */\n      dup3\n        /* \"#utility.yul\":11865:11958   */\n      tag_484\n      jump\t// in\n    tag_661:\n        /* \"#utility.yul\":11983:11985   */\n      0x20\n        /* \"#utility.yul\":11978:11981   */\n      dup3\n        /* \"#utility.yul\":11974:11986   */\n      add\n        /* \"#utility.yul\":11967:11986   */\n      swap1\n      pop\n        /* \"#utility.yul\":11626:11992   */\n      swap2\n      swap1\n      pop\n      jump\t// out\n        /* \"#utility.yul\":11998:12417   */\n    tag_174:\n        /* \"#utility.yul\":12164:12168   */\n      0x00\n        /* \"#utility.yul\":12202:12204   */\n      0x20\n        /* \"#utility.yul\":12191:12200   */\n      dup3\n        /* \"#utility.yul\":12187:12205   */\n      add\n        /* \"#utility.yul\":12179:12205   */\n      swap1\n      pop\n        /* \"#utility.yul\":12251:12260   */\n      dup2\n        /* \"#utility.yul\":12245:12249   */\n      dup2\n        /* \"#utility.yul\":12241:12261   */\n      sub\n        /* \"#utility.yul\":12237:12238   */\n      0x00\n        /* \"#utility.yul\":12226:12235   */\n      dup4\n        /* \"#utility.yul\":12222:12239   */\n      add\n        /* \"#utility.yul\":12215:12262   */\n      mstore\n        /* \"#utility.yul\":12279:12410   */\n      tag_663\n        /* \"#utility.yul\":12405:12409   */\n      dup2\n        /* \"#utility.yul\":12279:12410   */\n      tag_485\n      jump\t// in\n    tag_663:\n        /* \"#utility.yul\":12271:12410   */\n      swap1\n      pop\n        /* \"#utility.yul\":11998:12417   */\n      swap2\n      swap1\n      pop\n      jump\t// out\n        /* \"#utility.yul\":12423:12596   */\n    tag_486:\n        /* \"#utility.yul\":12563:12588   */\n      0x43616c6c6572206973206e6f7420746865206f776e6572000000000000000000\n        /* \"#utility.yul\":12559:12560   */\n      0x00\n        /* \"#utility.yul\":12551:12557   */\n      dup3\n        /* \"#utility.yul\":12547:12561   */\n      add\n        /* \"#utility.yul\":12540:12589   */\n      mstore\n        /* \"#utility.yul\":12423:12596   */\n      pop\n      jump\t// out\n        /* \"#utility.yul\":12602:12968   */\n    tag_487:\n        /* \"#utility.yul\":12744:12747   */\n      0x00\n        /* \"#utility.yul\":12765:12832   */\n      tag_666\n        /* \"#utility.yul\":12829:12831   */\n      0x17\n        /* \"#utility.yul\":12824:12827   */\n      dup4\n        /* \"#utility.yul\":12765:12832   */\n      tag_448\n      jump\t// in\n    tag_666:\n        /* \"#utility.yul\":12758:12832   */\n      swap2\n      pop\n        /* \"#utility.yul\":12841:12934   */\n      tag_667\n        /* \"#utility.yul\":12930:12933   */\n      dup3\n        /* \"#utility.yul\":12841:12934   */\n      tag_486\n      jump\t// in\n    tag_667:\n        /* \"#utility.yul\":12959:12961   */\n      0x20\n        /* \"#utility.yul\":12954:12957   */\n      dup3\n        /* \"#utility.yul\":12950:12962   */\n      add\n        /* \"#utility.yul\":12943:12962   */\n      swap1\n      pop\n        /* \"#utility.yul\":12602:12968   */\n      swap2\n      swap1\n      pop\n      jump\t// out\n        /* \"#utility.yul\":12974:13393   */\n    tag_193:\n        /* \"#utility.yul\":13140:13144   */\n      0x00\n        /* \"#utility.yul\":13178:13180   */\n      0x20\n        /* \"#utility.yul\":13167:13176   */\n      dup3\n        /* \"#utility.yul\":13163:13181   */\n      add\n        /* \"#utility.yul\":13155:13181   */\n      swap1\n      pop\n        /* \"#utility.yul\":13227:13236   */\n      dup2\n        /* \"#utility.yul\":13221:13225   */\n      dup2\n        /* \"#utility.yul\":13217:13237   */\n      sub\n        /* \"#utility.yul\":13213:13214   */\n      0x00\n        /* \"#utility.yul\":13202:13211   */\n      dup4\n        /* \"#utility.yul\":13198:13215   */\n      add\n        /* \"#utility.yul\":13191:13238   */\n      mstore\n        /* \"#utility.yul\":13255:13386   */\n      tag_669\n        /* \"#utility.yul\":13381:13385   */\n      dup2\n        /* \"#utility.yul\":13255:13386   */\n      tag_487\n      jump\t// in\n    tag_669:\n        /* \"#utility.yul\":13247:13386   */\n      swap1\n      pop\n        /* \"#utility.yul\":12974:13393   */\n      swap2\n      swap1\n      pop\n      jump\t// out\n        /* \"#utility.yul\":13399:13578   */\n    tag_488:\n        /* \"#utility.yul\":13539:13570   */\n      0x52656469732063616e6e6f74206265206d6f7265207468616e2031302e000000\n        /* \"#utility.yul\":13535:13536   */\n      0x00\n        /* \"#utility.yul\":13527:13533   */\n      dup3\n        /* \"#utility.yul\":13523:13537   */\n      add\n        /* \"#utility.yul\":13516:13571   */\n      mstore\n        /* \"#utility.yul\":13399:13578   */\n      pop\n      jump\t// out\n        /* \"#utility.yul\":13584:13950   */\n    tag_489:\n        /* \"#utility.yul\":13726:13729   */\n      0x00\n        /* \"#utility.yul\":13747:13814   */\n      tag_672\n        /* \"#utility.yul\":13811:13813   */\n      0x1d\n        /* \"#utility.yul\":13806:13809   */\n      dup4\n        /* \"#utility.yul\":13747:13814   */\n      tag_448\n      jump\t// in\n    tag_672:\n        /* \"#utility.yul\":13740:13814   */\n      swap2\n      pop\n        /* \"#utility.yul\":13823:13916   */\n      tag_673\n        /* \"#utility.yul\":13912:13915   */\n      dup3\n        /* \"#utility.yul\":13823:13916   */\n      tag_488\n      jump\t// in\n    tag_673:\n        /* \"#utility.yul\":13941:13943   */\n      0x20\n        /* \"#utility.yul\":13936:13939   */\n      dup3\n        /* \"#utility.yul\":13932:13944   */\n      add\n        /* \"#utility.yul\":13925:13944   */\n      swap1\n      pop\n        /* \"#utility.yul\":13584:13950   */\n      swap2\n      swap1\n      pop\n      jump\t// out\n        /* \"#utility.yul\":13956:14375   */\n    tag_215:\n        /* \"#utility.yul\":14122:14126   */\n      0x00\n        /* \"#utility.yul\":14160:14162   */\n      0x20\n        /* \"#utility.yul\":14149:14158   */\n      dup3\n        /* \"#utility.yul\":14145:14163   */\n      add\n        /* \"#utility.yul\":14137:14163   */\n      swap1\n      pop\n        /* \"#utility.yul\":14209:14218   */\n      dup2\n        /* \"#utility.yul\":14203:14207   */\n      dup2\n        /* \"#utility.yul\":14199:14219   */\n      sub\n        /* \"#utility.yul\":14195:14196   */\n      0x00\n        /* \"#utility.yul\":14184:14193   */\n      dup4\n        /* \"#utility.yul\":14180:14197   */\n      add\n        /* \"#utility.yul\":14173:14220   */\n      mstore\n        /* \"#utility.yul\":14237:14368   */\n      tag_675\n        /* \"#utility.yul\":14363:14367   */\n      dup2\n        /* \"#utility.yul\":14237:14368   */\n      tag_489\n      jump\t// in\n    tag_675:\n        /* \"#utility.yul\":14229:14368   */\n      swap1\n      pop\n        /* \"#utility.yul\":13956:14375   */\n      swap2\n      swap1\n      pop\n      jump\t// out\n        /* \"#utility.yul\":14381:14557   */\n    tag_490:\n        /* \"#utility.yul\":14521:14549   */\n      0x5461782063616e6e6f74206265206d6f7265207468616e20362e000000000000\n        /* \"#utility.yul\":14517:14518   */\n      0x00\n        /* \"#utility.yul\":14509:14515   */\n      dup3\n        /* \"#utility.yul\":14505:14519   */\n      add\n        /* \"#utility.yul\":14498:14550   */\n      mstore\n        /* \"#utility.yul\":14381:14557   */\n      pop\n      jump\t// out\n        /* \"#utility.yul\":14563:14929   */\n    tag_491:\n        /* \"#utility.yul\":14705:14708   */\n      0x00\n        /* \"#utility.yul\":14726:14793   */\n      tag_678\n        /* \"#utility.yul\":14790:14792   */\n      0x1a\n        /* \"#utility.yul\":14785:14788   */\n      dup4\n        /* \"#utility.yul\":14726:14793   */\n      tag_448\n      jump\t// in\n    tag_678:\n        /* \"#utility.yul\":14719:14793   */\n      swap2\n      pop\n        /* \"#utility.yul\":14802:14895   */\n      tag_679\n        /* \"#utility.yul\":14891:14894   */\n      dup3\n        /* \"#utility.yul\":14802:14895   */\n      tag_490\n      jump\t// in\n    tag_679:\n        /* \"#utility.yul\":14920:14922   */\n      0x20\n        /* \"#utility.yul\":14915:14918   */\n      dup3\n        /* \"#utility.yul\":14911:14923   */\n      add\n        /* \"#utility.yul\":14904:14923   */\n      swap1\n      pop\n        /* \"#utility.yul\":14563:14929   */\n      swap2\n      swap1\n      pop\n      jump\t// out\n        /* \"#utility.yul\":14935:15354   */\n    tag_220:\n        /* \"#utility.yul\":15101:15105   */\n      0x00\n        /* \"#utility.yul\":15139:15141   */\n      0x20\n        /* \"#utility.yul\":15128:15137   */\n      dup3\n        /* \"#utility.yul\":15124:15142   */\n      add\n        /* \"#utility.yul\":15116:15142   */\n      swap1\n      pop\n        /* \"#utility.yul\":15188:15197   */\n      dup2\n        /* \"#utility.yul\":15182:15186   */\n      dup2\n        /* \"#utility.yul\":15178:15198   */\n      sub\n        /* \"#utility.yul\":15174:15175   */\n      0x00\n        /* \"#utility.yul\":15163:15172   */\n      dup4\n        /* \"#utility.yul\":15159:15176   */\n      add\n        /* \"#utility.yul\":15152:15199   */\n      mstore\n        /* \"#utility.yul\":15216:15347   */\n      tag_681\n        /* \"#utility.yul\":15342:15346   */\n      dup2\n        /* \"#utility.yul\":15216:15347   */\n      tag_491\n      jump\t// in\n    tag_681:\n        /* \"#utility.yul\":15208:15347   */\n      swap1\n      pop\n        /* \"#utility.yul\":14935:15354   */\n      swap2\n      swap1\n      pop\n      jump\t// out\n        /* \"#utility.yul\":15360:15540   */\n    tag_255:\n        /* \"#utility.yul\":15408:15485   */\n      0x4e487b7100000000000000000000000000000000000000000000000000000000\n        /* \"#utility.yul\":15405:15406   */\n      0x00\n        /* \"#utility.yul\":15398:15486   */\n      mstore\n        /* \"#utility.yul\":15505:15509   */\n      0x32\n        /* \"#utility.yul\":15502:15503   */\n      0x04\n        /* \"#utility.yul\":15495:15510   */\n      mstore\n        /* \"#utility.yul\":15529:15533   */\n      0x24\n        /* \"#utility.yul\":15526:15527   */\n      0x00\n        /* \"#utility.yul\":15519:15534   */\n      revert\n        /* \"#utility.yul\":15546:15726   */\n    tag_492:\n        /* \"#utility.yul\":15594:15671   */\n      0x4e487b7100000000000000000000000000000000000000000000000000000000\n        /* \"#utility.yul\":15591:15592   */\n      0x00\n        /* \"#utility.yul\":15584:15672   */\n      mstore\n        /* \"#utility.yul\":15691:15695   */\n      0x11\n        /* \"#utility.yul\":15688:15689   */\n      0x04\n        /* \"#utility.yul\":15681:15696   */\n      mstore\n        /* \"#utility.yul\":15715:15719   */\n      0x24\n        /* \"#utility.yul\":15712:15713   */\n      0x00\n        /* \"#utility.yul\":15705:15720   */\n      revert\n        /* \"#utility.yul\":15732:15965   */\n    tag_258:\n        /* \"#utility.yul\":15771:15774   */\n      0x00\n        /* \"#utility.yul\":15794:15818   */\n      tag_685\n        /* \"#utility.yul\":15812:15817   */\n      dup3\n        /* \"#utility.yul\":15794:15818   */\n      tag_459\n      jump\t// in\n    tag_685:\n        /* \"#utility.yul\":15785:15818   */\n      swap2\n      pop\n        /* \"#utility.yul\":15840:15906   */\n      0xffffffffffffffffffffffffffffffffffffffffffffffffffffffffffffffff\n        /* \"#utility.yul\":15833:15838   */\n      dup3\n        /* \"#utility.yul\":15830:15907   */\n      sub\n        /* \"#utility.yul\":15827:15930   */\n      tag_686\n      jumpi\n        /* \"#utility.yul\":15910:15928   */\n      tag_687\n      tag_492\n      jump\t// in\n    tag_687:\n        /* \"#utility.yul\":15827:15930   */\n    tag_686:\n        /* \"#utility.yul\":15957:15958   */\n      0x01\n        /* \"#utility.yul\":15950:15955   */\n      dup3\n        /* \"#utility.yul\":15946:15959   */\n      add\n        /* \"#utility.yul\":15939:15959   */\n      swap1\n      pop\n        /* \"#utility.yul\":15732:15965   */\n      swap2\n      swap1\n      pop\n      jump\t// out\n        /* \"#utility.yul\":15971:16133   */\n    tag_493:\n        /* \"#utility.yul\":16111:16125   */\n      0x4163746976656420706169720000000000000000000000000000000000000000\n        /* \"#utility.yul\":16107:16108   */\n      0x00\n        /* \"#utility.yul\":16099:16105   */\n      dup3\n        /* \"#utility.yul\":16095:16109   */\n      add\n        /* \"#utility.yul\":16088:16126   */\n      mstore\n        /* \"#utility.yul\":15971:16133   */\n      pop\n      jump\t// out\n        /* \"#utility.yul\":16139:16505   */\n    tag_494:\n        /* \"#utility.yul\":16281:16284   */\n      0x00\n        /* \"#utility.yul\":16302:16369   */\n      tag_690\n        /* \"#utility.yul\":16366:16368   */\n      0x0c\n        /* \"#utility.yul\":16361:16364   */\n      dup4\n        /* \"#utility.yul\":16302:16369   */\n      tag_448\n      jump\t// in\n    tag_690:\n        /* \"#utility.yul\":16295:16369   */\n      swap2\n      pop\n        /* \"#utility.yul\":16378:16471   */\n      tag_691\n        /* \"#utility.yul\":16467:16470   */\n      dup3\n        /* \"#utility.yul\":16378:16471   */\n      tag_493\n      jump\t// in\n    tag_691:\n        /* \"#utility.yul\":16496:16498   */\n      0x20\n        /* \"#utility.yul\":16491:16494   */\n      dup3\n        /* \"#utility.yul\":16487:16499   */\n      add\n        /* \"#utility.yul\":16480:16499   */\n      swap1\n      pop\n        /* \"#utility.yul\":16139:16505   */\n      swap2\n      swap1\n      pop\n      jump\t// out\n        /* \"#utility.yul\":16511:16930   */\n    tag_266:\n        /* \"#utility.yul\":16677:16681   */\n      0x00\n        /* \"#utility.yul\":16715:16717   */\n      0x20\n        /* \"#utility.yul\":16704:16713   */\n      dup3\n        /* \"#utility.yul\":16700:16718   */\n      add\n        /* \"#utility.yul\":16692:16718   */\n      swap1\n      pop\n        /* \"#utility.yul\":16764:16773   */\n      dup2\n        /* \"#utility.yul\":16758:16762   */\n      dup2\n        /* \"#utility.yul\":16754:16774   */\n      sub\n        /* \"#utility.yul\":16750:16751   */\n      0x00\n        /* \"#utility.yul\":16739:16748   */\n      dup4\n        /* \"#utility.yul\":16735:16752   */\n      add\n        /* \"#utility.yul\":16728:16775   */\n      mstore\n        /* \"#utility.yul\":16792:16923   */\n      tag_693\n        /* \"#utility.yul\":16918:16922   */\n      dup2\n        /* \"#utility.yul\":16792:16923   */\n      tag_494\n      jump\t// in\n    tag_693:\n        /* \"#utility.yul\":16784:16923   */\n      swap1\n      pop\n        /* \"#utility.yul\":16511:16930   */\n      swap2\n      swap1\n      pop\n      jump\t// out\n        /* \"#utility.yul\":16936:17268   */\n    tag_268:\n        /* \"#utility.yul\":17057:17061   */\n      0x00\n        /* \"#utility.yul\":17095:17097   */\n      0x40\n        /* \"#utility.yul\":17084:17093   */\n      dup3\n        /* \"#utility.yul\":17080:17098   */\n      add\n        /* \"#utility.yul\":17072:17098   */\n      swap1\n      pop\n        /* \"#utility.yul\":17108:17179   */\n      tag_695\n        /* \"#utility.yul\":17176:17177   */\n      0x00\n        /* \"#utility.yul\":17165:17174   */\n      dup4\n        /* \"#utility.yul\":17161:17178   */\n      add\n        /* \"#utility.yul\":17152:17158   */\n      dup6\n        /* \"#utility.yul\":17108:17179   */\n      tag_472\n      jump\t// in\n    tag_695:\n        /* \"#utility.yul\":17189:17261   */\n      tag_696\n        /* \"#utility.yul\":17257:17259   */\n      0x20\n        /* \"#utility.yul\":17246:17255   */\n      dup4\n        /* \"#utility.yul\":17242:17260   */\n      add\n        /* \"#utility.yul\":17233:17239   */\n      dup5\n        /* \"#utility.yul\":17189:17261   */\n      tag_472\n      jump\t// in\n    tag_696:\n        /* \"#utility.yul\":16936:17268   */\n      swap4\n      swap3\n      pop\n      pop\n      pop\n      jump\t// out\n        /* \"#utility.yul\":17274:17417   */\n    tag_495:\n        /* \"#utility.yul\":17331:17336   */\n      0x00\n        /* \"#utility.yul\":17362:17368   */\n      dup2\n        /* \"#utility.yul\":17356:17369   */\n      mload\n        /* \"#utility.yul\":17347:17369   */\n      swap1\n      pop\n        /* \"#utility.yul\":17378:17411   */\n      tag_698\n        /* \"#utility.yul\":17405:17410   */\n      dup2\n        /* \"#utility.yul\":17378:17411   */\n      tag_457\n      jump\t// in\n    tag_698:\n        /* \"#utility.yul\":17274:17417   */\n      swap3\n      swap2\n      pop\n      pop\n      jump\t// out\n        /* \"#utility.yul\":17423:17774   */\n    tag_272:\n        /* \"#utility.yul\":17493:17499   */\n      0x00\n        /* \"#utility.yul\":17542:17544   */\n      0x20\n        /* \"#utility.yul\":17530:17539   */\n      dup3\n        /* \"#utility.yul\":17521:17528   */\n      dup5\n        /* \"#utility.yul\":17517:17540   */\n      sub\n        /* \"#utility.yul\":17513:17545   */\n      slt\n        /* \"#utility.yul\":17510:17629   */\n      iszero\n      tag_700\n      jumpi\n        /* \"#utility.yul\":17548:17627   */\n      tag_701\n      tag_453\n      jump\t// in\n    tag_701:\n        /* \"#utility.yul\":17510:17629   */\n    tag_700:\n        /* \"#utility.yul\":17668:17669   */\n      0x00\n        /* \"#utility.yul\":17693:17757   */\n      tag_702\n        /* \"#utility.yul\":17749:17756   */\n      dup5\n        /* \"#utility.yul\":17740:17746   */\n      dup3\n        /* \"#utility.yul\":17729:17738   */\n      dup6\n        /* \"#utility.yul\":17725:17747   */\n      add\n        /* \"#utility.yul\":17693:17757   */\n      tag_495\n      jump\t// in\n    tag_702:\n        /* \"#utility.yul\":17683:17757   */\n      swap2\n      pop\n        /* \"#utility.yul\":17639:17767   */\n      pop\n        /* \"#utility.yul\":17423:17774   */\n      swap3\n      swap2\n      pop\n      pop\n      jump\t// out\n        /* \"#utility.yul\":17780:18112   */\n    tag_284:\n        /* \"#utility.yul\":17901:17905   */\n      0x00\n        /* \"#utility.yul\":17939:17941   */\n      0x40\n        /* \"#utility.yul\":17928:17937   */\n      dup3\n        /* \"#utility.yul\":17924:17942   */\n      add\n        /* \"#utility.yul\":17916:17942   */\n      swap1\n      pop\n        /* \"#utility.yul\":17952:18023   */\n      tag_704\n        /* \"#utility.yul\":18020:18021   */\n      0x00\n        /* \"#utility.yul\":18009:18018   */\n      dup4\n        /* \"#utility.yul\":18005:18022   */\n      add\n        /* \"#utility.yul\":17996:18002   */\n      dup6\n        /* \"#utility.yul\":17952:18023   */\n      tag_472\n      jump\t// in\n    tag_704:\n        /* \"#utility.yul\":18033:18105   */\n      tag_705\n        /* \"#utility.yul\":18101:18103   */\n      0x20\n        /* \"#utility.yul\":18090:18099   */\n      dup4\n        /* \"#utility.yul\":18086:18104   */\n      add\n        /* \"#utility.yul\":18077:18083   */\n      dup5\n        /* \"#utility.yul\":18033:18105   */\n      tag_469\n      jump\t// in\n    tag_705:\n        /* \"#utility.yul\":17780:18112   */\n      swap4\n      swap3\n      pop\n      pop\n      pop\n      jump\t// out\n        /* \"#utility.yul\":18118:18255   */\n    tag_496:\n        /* \"#utility.yul\":18172:18177   */\n      0x00\n        /* \"#utility.yul\":18203:18209   */\n      dup2\n        /* \"#utility.yul\":18197:18210   */\n      mload\n        /* \"#utility.yul\":18188:18210   */\n      swap1\n      pop\n        /* \"#utility.yul\":18219:18249   */\n      tag_707\n        /* \"#utility.yul\":18243:18248   */\n      dup2\n        /* \"#utility.yul\":18219:18249   */\n      tag_475\n      jump\t// in\n    tag_707:\n        /* \"#utility.yul\":18118:18255   */\n      swap3\n      swap2\n      pop\n      pop\n      jump\t// out\n        /* \"#utility.yul\":18261:18606   */\n    tag_288:\n        /* \"#utility.yul\":18328:18334   */\n      0x00\n        /* \"#utility.yul\":18377:18379   */\n      0x20\n        /* \"#utility.yul\":18365:18374   */\n      dup3\n        /* \"#utility.yul\":18356:18363   */\n      dup5\n        /* \"#utility.yul\":18352:18375   */\n      sub\n        /* \"#utility.yul\":18348:18380   */\n      slt\n        /* \"#utility.yul\":18345:18464   */\n      iszero\n      tag_709\n      jumpi\n        /* \"#utility.yul\":18383:18462   */\n      tag_710\n      tag_453\n      jump\t// in\n    tag_710:\n        /* \"#utility.yul\":18345:18464   */\n    tag_709:\n        /* \"#utility.yul\":18503:18504   */\n      0x00\n        /* \"#utility.yul\":18528:18589   */\n      tag_711\n        /* \"#utility.yul\":18581:18588   */\n      dup5\n        /* \"#utility.yul\":18572:18578   */\n      dup3\n        /* \"#utility.yul\":18561:18570   */\n      dup6\n        /* \"#utility.yul\":18557:18579   */\n      add\n        /* \"#utility.yul\":18528:18589   */\n      tag_496\n      jump\t// in\n    tag_711:\n        /* \"#utility.yul\":18518:18589   */\n      swap2\n      pop\n        /* \"#utility.yul\":18474:18599   */\n      pop\n        /* \"#utility.yul\":18261:18606   */\n      swap3\n      swap2\n      pop\n      pop\n      jump\t// out\n        /* \"#utility.yul\":18612:18835   */\n    tag_497:\n        /* \"#utility.yul\":18752:18786   */\n      0x45524332303a20617070726f76652066726f6d20746865207a65726f20616464\n        /* \"#utility.yul\":18748:18749   */\n      0x00\n        /* \"#utility.yul\":18740:18746   */\n      dup3\n        /* \"#utility.yul\":18736:18750   */\n      add\n        /* \"#utility.yul\":18729:18787   */\n      mstore\n        /* \"#utility.yul\":18821:18827   */\n      0x7265737300000000000000000000000000000000000000000000000000000000\n        /* \"#utility.yul\":18816:18818   */\n      0x20\n        /* \"#utility.yul\":18808:18814   */\n      dup3\n        /* \"#utility.yul\":18804:18819   */\n      add\n        /* \"#utility.yul\":18797:18828   */\n      mstore\n        /* \"#utility.yul\":18612:18835   */\n      pop\n      jump\t// out\n        /* \"#utility.yul\":18841:19207   */\n    tag_498:\n        /* \"#utility.yul\":18983:18986   */\n      0x00\n        /* \"#utility.yul\":19004:19071   */\n      tag_714\n        /* \"#utility.yul\":19068:19070   */\n      0x24\n        /* \"#utility.yul\":19063:19066   */\n      dup4\n        /* \"#utility.yul\":19004:19071   */\n      tag_448\n      jump\t// in\n    tag_714:\n        /* \"#utility.yul\":18997:19071   */\n      swap2\n      pop\n        /* \"#utility.yul\":19080:19173   */\n      tag_715\n        /* \"#utility.yul\":19169:19172   */\n      dup3\n        /* \"#utility.yul\":19080:19173   */\n      tag_497\n      jump\t// in\n    tag_715:\n        /* \"#utility.yul\":19198:19200   */\n      0x40\n        /* \"#utility.yul\":19193:19196   */\n      dup3\n        /* \"#utility.yul\":19189:19201   */\n      add\n        /* \"#utility.yul\":19182:19201   */\n      swap1\n      pop\n        /* \"#utility.yul\":18841:19207   */\n      swap2\n      swap1\n      pop\n      jump\t// out\n        /* \"#utility.yul\":19213:19632   */\n    tag_298:\n        /* \"#utility.yul\":19379:19383   */\n      0x00\n        /* \"#utility.yul\":19417:19419   */\n      0x20\n        /* \"#utility.yul\":19406:19415   */\n      dup3\n        /* \"#utility.yul\":19402:19420   */\n      add\n        /* \"#utility.yul\":19394:19420   */\n      swap1\n      pop\n        /* \"#utility.yul\":19466:19475   */\n      dup2\n        /* \"#utility.yul\":19460:19464   */\n      dup2\n        /* \"#utility.yul\":19456:19476   */\n      sub\n        /* \"#utility.yul\":19452:19453   */\n      0x00\n        /* \"#utility.yul\":19441:19450   */\n      dup4\n        /* \"#utility.yul\":19437:19454   */\n      add\n        /* \"#utility.yul\":19430:19477   */\n      mstore\n        /* \"#utility.yul\":19494:19625   */\n      tag_717\n        /* \"#utility.yul\":19620:19624   */\n      dup2\n        /* \"#utility.yul\":19494:19625   */\n      tag_498\n      jump\t// in\n    tag_717:\n        /* \"#utility.yul\":19486:19625   */\n      swap1\n      pop\n        /* \"#utility.yul\":19213:19632   */\n      swap2\n      swap1\n      pop\n      jump\t// out\n        /* \"#utility.yul\":19638:19859   */\n    tag_499:\n        /* \"#utility.yul\":19778:19812   */\n      0x45524332303a20617070726f766520746f20746865207a65726f206164647265\n        /* \"#utility.yul\":19774:19775   */\n      0x00\n        /* \"#utility.yul\":19766:19772   */\n      dup3\n        /* \"#utility.yul\":19762:19776   */\n      add\n        /* \"#utility.yul\":19755:19813   */\n      mstore\n        /* \"#utility.yul\":19847:19851   */\n      0x7373000000000000000000000000000000000000000000000000000000000000\n        /* \"#utility.yul\":19842:19844   */\n      0x20\n        /* \"#utility.yul\":19834:19840   */\n      dup3\n        /* \"#utility.yul\":19830:19845   */\n      add\n        /* \"#utility.yul\":19823:19852   */\n      mstore\n        /* \"#utility.yul\":19638:19859   */\n      pop\n      jump\t// out\n        /* \"#utility.yul\":19865:20231   */\n    tag_500:\n        /* \"#utility.yul\":20007:20010   */\n      0x00\n        /* \"#utility.yul\":20028:20095   */\n      tag_720\n        /* \"#utility.yul\":20092:20094   */\n      0x22\n        /* \"#utility.yul\":20087:20090   */\n      dup4\n        /* \"#utility.yul\":20028:20095   */\n      tag_448\n      jump\t// in\n    tag_720:\n        /* \"#utility.yul\":20021:20095   */\n      swap2\n      pop\n        /* \"#utility.yul\":20104:20197   */\n      tag_721\n        /* \"#utility.yul\":20193:20196   */\n      dup3\n        /* \"#utility.yul\":20104:20197   */\n      tag_499\n      jump\t// in\n    tag_721:\n        /* \"#utility.yul\":20222:20224   */\n      0x40\n        /* \"#utility.yul\":20217:20220   */\n      dup3\n        /* \"#utility.yul\":20213:20225   */\n      add\n        /* \"#utility.yul\":20206:20225   */\n      swap1\n      pop\n        /* \"#utility.yul\":19865:20231   */\n      swap2\n      swap1\n      pop\n      jump\t// out\n        /* \"#utility.yul\":20237:20656   */\n    tag_301:\n        /* \"#utility.yul\":20403:20407   */\n      0x00\n        /* \"#utility.yul\":20441:20443   */\n      0x20\n        /* \"#utility.yul\":20430:20439   */\n      dup3\n        /* \"#utility.yul\":20426:20444   */\n      add\n        /* \"#utility.yul\":20418:20444   */\n      swap1\n      pop\n        /* \"#utility.yul\":20490:20499   */\n      dup2\n        /* \"#utility.yul\":20484:20488   */\n      dup2\n        /* \"#utility.yul\":20480:20500   */\n      sub\n        /* \"#utility.yul\":20476:20477   */\n      0x00\n        /* \"#utility.yul\":20465:20474   */\n      dup4\n        /* \"#utility.yul\":20461:20478   */\n      add\n        /* \"#utility.yul\":20454:20501   */\n      mstore\n        /* \"#utility.yul\":20518:20649   */\n      tag_723\n        /* \"#utility.yul\":20644:20648   */\n      dup2\n        /* \"#utility.yul\":20518:20649   */\n      tag_500\n      jump\t// in\n    tag_723:\n        /* \"#utility.yul\":20510:20649   */\n      swap1\n      pop\n        /* \"#utility.yul\":20237:20656   */\n      swap2\n      swap1\n      pop\n      jump\t// out\n        /* \"#utility.yul\":20662:20886   */\n    tag_501:\n        /* \"#utility.yul\":20802:20836   */\n      0x45524332303a207472616e736665722066726f6d20746865207a65726f206164\n        /* \"#utility.yul\":20798:20799   */\n      0x00\n        /* \"#utility.yul\":20790:20796   */\n      dup3\n        /* \"#utility.yul\":20786:20800   */\n      add\n        /* \"#utility.yul\":20779:20837   */\n      mstore\n        /* \"#utility.yul\":20871:20878   */\n      0x6472657373000000000000000000000000000000000000000000000000000000\n        /* \"#utility.yul\":20866:20868   */\n      0x20\n        /* \"#utility.yul\":20858:20864   */\n      dup3\n        /* \"#utility.yul\":20854:20869   */\n      add\n        /* \"#utility.yul\":20847:20879   */\n      mstore\n        /* \"#utility.yul\":20662:20886   */\n      pop\n      jump\t// out\n        /* \"#utility.yul\":20892:21258   */\n    tag_502:\n        /* \"#utility.yul\":21034:21037   */\n      0x00\n        /* \"#utility.yul\":21055:21122   */\n      tag_726\n        /* \"#utility.yul\":21119:21121   */\n      0x25\n        /* \"#utility.yul\":21114:21117   */\n      dup4\n        /* \"#utility.yul\":21055:21122   */\n      tag_448\n      jump\t// in\n    tag_726:\n        /* \"#utility.yul\":21048:21122   */\n      swap2\n      pop\n        /* \"#utility.yul\":21131:21224   */\n      tag_727\n        /* \"#utility.yul\":21220:21223   */\n      dup3\n        /* \"#utility.yul\":21131:21224   */\n      tag_501\n      jump\t// in\n    tag_727:\n        /* \"#utility.yul\":21249:21251   */\n      0x40\n        /* \"#utility.yul\":21244:21247   */\n      dup3\n        /* \"#utility.yul\":21240:21252   */\n      add\n        /* \"#utility.yul\":21233:21252   */\n      swap1\n      pop\n        /* \"#utility.yul\":20892:21258   */\n      swap2\n      swap1\n      pop\n      jump\t// out\n        /* \"#utility.yul\":21264:21683   */\n    tag_306:\n        /* \"#utility.yul\":21430:21434   */\n      0x00\n        /* \"#utility.yul\":21468:21470   */\n      0x20\n        /* \"#utility.yul\":21457:21466   */\n      dup3\n        /* \"#utility.yul\":21453:21471   */\n      add\n        /* \"#utility.yul\":21445:21471   */\n      swap1\n      pop\n        /* \"#utility.yul\":21517:21526   */\n      dup2\n        /* \"#utility.yul\":21511:21515   */\n      dup2\n        /* \"#utility.yul\":21507:21527   */\n      sub\n        /* \"#utility.yul\":21503:21504   */\n      0x00\n        /* \"#utility.yul\":21492:21501   */\n      dup4\n        /* \"#utility.yul\":21488:21505   */\n      add\n        /* \"#utility.yul\":21481:21528   */\n      mstore\n        /* \"#utility.yul\":21545:21676   */\n      tag_729\n        /* \"#utility.yul\":21671:21675   */\n      dup2\n        /* \"#utility.yul\":21545:21676   */\n      tag_502\n      jump\t// in\n    tag_729:\n        /* \"#utility.yul\":21537:21676   */\n      swap1\n      pop\n        /* \"#utility.yul\":21264:21683   */\n      swap2\n      swap1\n      pop\n      jump\t// out\n        /* \"#utility.yul\":21689:21911   */\n    tag_503:\n        /* \"#utility.yul\":21829:21863   */\n      0x45524332303a207472616e7366657220746f20746865207a65726f2061646472\n        /* \"#utility.yul\":21825:21826   */\n      0x00\n        /* \"#utility.yul\":21817:21823   */\n      dup3\n        /* \"#utility.yul\":21813:21827   */\n      add\n        /* \"#utility.yul\":21806:21864   */\n      mstore\n        /* \"#utility.yul\":21898:21903   */\n      0x6573730000000000000000000000000000000000000000000000000000000000\n        /* \"#utility.yul\":21893:21895   */\n      0x20\n        /* \"#utility.yul\":21885:21891   */\n      dup3\n        /* \"#utility.yul\":21881:21896   */\n      add\n        /* \"#utility.yul\":21874:21904   */\n      mstore\n        /* \"#utility.yul\":21689:21911   */\n      pop\n      jump\t// out\n        /* \"#utility.yul\":21917:22283   */\n    tag_504:\n        /* \"#utility.yul\":22059:22062   */\n      0x00\n        /* \"#utility.yul\":22080:22147   */\n      tag_732\n        /* \"#utility.yul\":22144:22146   */\n      0x23\n        /* \"#utility.yul\":22139:22142   */\n      dup4\n        /* \"#utility.yul\":22080:22147   */\n      tag_448\n      jump\t// in\n    tag_732:\n        /* \"#utility.yul\":22073:22147   */\n      swap2\n      pop\n        /* \"#utility.yul\":22156:22249   */\n      tag_733\n        /* \"#utility.yul\":22245:22248   */\n      dup3\n        /* \"#utility.yul\":22156:22249   */\n      tag_503\n      jump\t// in\n    tag_733:\n        /* \"#utility.yul\":22274:22276   */\n      0x40\n        /* \"#utility.yul\":22269:22272   */\n      dup3\n        /* \"#utility.yul\":22265:22277   */\n      add\n        /* \"#utility.yul\":22258:22277   */\n      swap1\n      pop\n        /* \"#utility.yul\":21917:22283   */\n      swap2\n      swap1\n      pop\n      jump\t// out\n        /* \"#utility.yul\":22289:22708   */\n    tag_309:\n        /* \"#utility.yul\":22455:22459   */\n      0x00\n        /* \"#utility.yul\":22493:22495   */\n      0x20\n        /* \"#utility.yul\":22482:22491   */\n      dup3\n        /* \"#utility.yul\":22478:22496   */\n      add\n        /* \"#utility.yul\":22470:22496   */\n      swap1\n      pop\n        /* \"#utility.yul\":22542:22551   */\n      dup2\n        /* \"#utility.yul\":22536:22540   */\n      dup2\n        /* \"#utility.yul\":22532:22552   */\n      sub\n        /* \"#utility.yul\":22528:22529   */\n      0x00\n        /* \"#utility.yul\":22517:22526   */\n      dup4\n        /* \"#utility.yul\":22513:22530   */\n      add\n        /* \"#utility.yul\":22506:22553   */\n      mstore\n        /* \"#utility.yul\":22570:22701   */\n      tag_735\n        /* \"#utility.yul\":22696:22700   */\n      dup2\n        /* \"#utility.yul\":22570:22701   */\n      tag_504\n      jump\t// in\n    tag_735:\n        /* \"#utility.yul\":22562:22701   */\n      swap1\n      pop\n        /* \"#utility.yul\":22289:22708   */\n      swap2\n      swap1\n      pop\n      jump\t// out\n        /* \"#utility.yul\":22714:22942   */\n    tag_505:\n        /* \"#utility.yul\":22854:22888   */\n      0x5472616e7366657220616d6f756e74206d757374206265206772656174657220\n        /* \"#utility.yul\":22850:22851   */\n      0x00\n        /* \"#utility.yul\":22842:22848   */\n      dup3\n        /* \"#utility.yul\":22838:22852   */\n      add\n        /* \"#utility.yul\":22831:22889   */\n      mstore\n        /* \"#utility.yul\":22923:22934   */\n      0x7468616e207a65726f0000000000000000000000000000000000000000000000\n        /* \"#utility.yul\":22918:22920   */\n      0x20\n        /* \"#utility.yul\":22910:22916   */\n      dup3\n        /* \"#utility.yul\":22906:22921   */\n      add\n        /* \"#utility.yul\":22899:22935   */\n      mstore\n        /* \"#utility.yul\":22714:22942   */\n      pop\n      jump\t// out\n        /* \"#utility.yul\":22948:23314   */\n    tag_506:\n        /* \"#utility.yul\":23090:23093   */\n      0x00\n        /* \"#utility.yul\":23111:23178   */\n      tag_738\n        /* \"#utility.yul\":23175:23177   */\n      0x29\n        /* \"#utility.yul\":23170:23173   */\n      dup4\n        /* \"#utility.yul\":23111:23178   */\n      tag_448\n      jump\t// in\n    tag_738:\n        /* \"#utility.yul\":23104:23178   */\n      swap2\n      pop\n        /* \"#utility.yul\":23187:23280   */\n      tag_739\n        /* \"#utility.yul\":23276:23279   */\n      dup3\n        /* \"#utility.yul\":23187:23280   */\n      tag_505\n      jump\t// in\n    tag_739:\n        /* \"#utility.yul\":23305:23307   */\n      0x40\n        /* \"#utility.yul\":23300:23303   */\n      dup3\n        /* \"#utility.yul\":23296:23308   */\n      add\n        /* \"#utility.yul\":23289:23308   */\n      swap1\n      pop\n        /* \"#utility.yul\":22948:23314   */\n      swap2\n      swap1\n      pop\n      jump\t// out\n        /* \"#utility.yul\":23320:23739   */\n    tag_312:\n        /* \"#utility.yul\":23486:23490   */\n      0x00\n        /* \"#utility.yul\":23524:23526   */\n      0x20\n        /* \"#utility.yul\":23513:23522   */\n      dup3\n        /* \"#utility.yul\":23509:23527   */\n      add\n        /* \"#utility.yul\":23501:23527   */\n      swap1\n      pop\n        /* \"#utility.yul\":23573:23582   */\n      dup2\n        /* \"#utility.yul\":23567:23571   */\n      dup2\n        /* \"#utility.yul\":23563:23583   */\n      sub\n        /* \"#utility.yul\":23559:23560   */\n      0x00\n        /* \"#utility.yul\":23548:23557   */\n      dup4\n        /* \"#utility.yul\":23544:23561   */\n      add\n        /* \"#utility.yul\":23537:23584   */\n      mstore\n        /* \"#utility.yul\":23601:23732   */\n      tag_741\n        /* \"#utility.yul\":23727:23731   */\n      dup2\n        /* \"#utility.yul\":23601:23732   */\n      tag_506\n      jump\t// in\n    tag_741:\n        /* \"#utility.yul\":23593:23732   */\n      swap1\n      pop\n        /* \"#utility.yul\":23320:23739   */\n      swap2\n      swap1\n      pop\n      jump\t// out\n        /* \"#utility.yul\":23745:23936   */\n    tag_339:\n        /* \"#utility.yul\":23785:23789   */\n      0x00\n        /* \"#utility.yul\":23805:23825   */\n      tag_743\n        /* \"#utility.yul\":23823:23824   */\n      dup3\n        /* \"#utility.yul\":23805:23825   */\n      tag_459\n      jump\t// in\n    tag_743:\n        /* \"#utility.yul\":23800:23825   */\n      swap2\n      pop\n        /* \"#utility.yul\":23839:23859   */\n      tag_744\n        /* \"#utility.yul\":23857:23858   */\n      dup4\n        /* \"#utility.yul\":23839:23859   */\n      tag_459\n      jump\t// in\n    tag_744:\n        /* \"#utility.yul\":23834:23859   */\n      swap3\n      pop\n        /* \"#utility.yul\":23878:23879   */\n      dup3\n        /* \"#utility.yul\":23875:23876   */\n      dup3\n        /* \"#utility.yul\":23872:23880   */\n      lt\n        /* \"#utility.yul\":23869:23903   */\n      iszero\n      tag_745\n      jumpi\n        /* \"#utility.yul\":23883:23901   */\n      tag_746\n      tag_492\n      jump\t// in\n    tag_746:\n        /* \"#utility.yul\":23869:23903   */\n    tag_745:\n        /* \"#utility.yul\":23928:23929   */\n      dup3\n        /* \"#utility.yul\":23925:23926   */\n      dup3\n        /* \"#utility.yul\":23921:23930   */\n      sub\n        /* \"#utility.yul\":23913:23930   */\n      swap1\n      pop\n        /* \"#utility.yul\":23745:23936   */\n      swap3\n      swap2\n      pop\n      pop\n      jump\t// out\n        /* \"#utility.yul\":23942:24171   */\n    tag_507:\n        /* \"#utility.yul\":24082:24116   */\n      0x416d6f756e74206d757374206265206c657373207468616e20746f74616c2072\n        /* \"#utility.yul\":24078:24079   */\n      0x00\n        /* \"#utility.yul\":24070:24076   */\n      dup3\n        /* \"#utility.yul\":24066:24080   */\n      add\n        /* \"#utility.yul\":24059:24117   */\n      mstore\n        /* \"#utility.yul\":24151:24163   */\n      0x65666c656374696f6e7300000000000000000000000000000000000000000000\n        /* \"#utility.yul\":24146:24148   */\n      0x20\n        /* \"#utility.yul\":24138:24144   */\n      dup3\n        /* \"#utility.yul\":24134:24149   */\n      add\n        /* \"#utility.yul\":24127:24164   */\n      mstore\n        /* \"#utility.yul\":23942:24171   */\n      pop\n      jump\t// out\n        /* \"#utility.yul\":24177:24543   */\n    tag_508:\n        /* \"#utility.yul\":24319:24322   */\n      0x00\n        /* \"#utility.yul\":24340:24407   */\n      tag_749\n        /* \"#utility.yul\":24404:24406   */\n      0x2a\n        /* \"#utility.yul\":24399:24402   */\n      dup4\n        /* \"#utility.yul\":24340:24407   */\n      tag_448\n      jump\t// in\n    tag_749:\n        /* \"#utility.yul\":24333:24407   */\n      swap2\n      pop\n        /* \"#utility.yul\":24416:24509   */\n      tag_750\n        /* \"#utility.yul\":24505:24508   */\n      dup3\n        /* \"#utility.yul\":24416:24509   */\n      tag_507\n      jump\t// in\n    tag_750:\n        /* \"#utility.yul\":24534:24536   */\n      0x40\n        /* \"#utility.yul\":24529:24532   */\n      dup3\n        /* \"#utility.yul\":24525:24537   */\n      add\n        /* \"#utility.yul\":24518:24537   */\n      swap1\n      pop\n        /* \"#utility.yul\":24177:24543   */\n      swap2\n      swap1\n      pop\n      jump\t// out\n        /* \"#utility.yul\":24549:24968   */\n    tag_351:\n        /* \"#utility.yul\":24715:24719   */\n      0x00\n        /* \"#utility.yul\":24753:24755   */\n      0x20\n        /* \"#utility.yul\":24742:24751   */\n      dup3\n        /* \"#utility.yul\":24738:24756   */\n      add\n        /* \"#utility.yul\":24730:24756   */\n      swap1\n      pop\n        /* \"#utility.yul\":24802:24811   */\n      dup2\n        /* \"#utility.yul\":24796:24800   */\n      dup2\n        /* \"#utility.yul\":24792:24812   */\n      sub\n        /* \"#utility.yul\":24788:24789   */\n      0x00\n        /* \"#utility.yul\":24777:24786   */\n      dup4\n        /* \"#utility.yul\":24773:24790   */\n      add\n        /* \"#utility.yul\":24766:24813   */\n      mstore\n        /* \"#utility.yul\":24830:24961   */\n      tag_752\n        /* \"#utility.yul\":24956:24960   */\n      dup2\n        /* \"#utility.yul\":24830:24961   */\n      tag_508\n      jump\t// in\n    tag_752:\n        /* \"#utility.yul\":24822:24961   */\n      swap1\n      pop\n        /* \"#utility.yul\":24549:24968   */\n      swap2\n      swap1\n      pop\n      jump\t// out\n        /* \"#utility.yul\":24974:25154   */\n    tag_359:\n        /* \"#utility.yul\":25022:25099   */\n      0x4e487b7100000000000000000000000000000000000000000000000000000000\n        /* \"#utility.yul\":25019:25020   */\n      0x00\n        /* \"#utility.yul\":25012:25100   */\n      mstore\n        /* \"#utility.yul\":25119:25123   */\n      0x41\n        /* \"#utility.yul\":25116:25117   */\n      0x04\n        /* \"#utility.yul\":25109:25124   */\n      mstore\n        /* \"#utility.yul\":25143:25147   */\n      0x24\n        /* \"#utility.yul\":25140:25141   */\n      0x00\n        /* \"#utility.yul\":25133:25148   */\n      revert\n        /* \"#utility.yul\":25160:25245   */\n    tag_509:\n        /* \"#utility.yul\":25205:25212   */\n      0x00\n        /* \"#utility.yul\":25234:25239   */\n      dup2\n        /* \"#utility.yul\":25223:25239   */\n      swap1\n      pop\n        /* \"#utility.yul\":25160:25245   */\n      swap2\n      swap1\n      pop\n      jump\t// out\n        /* \"#utility.yul\":25251:25409   */\n    tag_510:\n        /* \"#utility.yul\":25309:25318   */\n      0x00\n        /* \"#utility.yul\":25342:25403   */\n      tag_756\n        /* \"#utility.yul\":25360:25402   */\n      tag_757\n        /* \"#utility.yul\":25369:25401   */\n      tag_758\n        /* \"#utility.yul\":25395:25400   */\n      dup5\n        /* \"#utility.yul\":25369:25401   */\n      tag_509\n      jump\t// in\n    tag_758:\n        /* \"#utility.yul\":25360:25402   */\n      tag_464\n      jump\t// in\n    tag_757:\n        /* \"#utility.yul\":25342:25403   */\n      tag_459\n      jump\t// in\n    tag_756:\n        /* \"#utility.yul\":25329:25403   */\n      swap1\n      pop\n        /* \"#utility.yul\":25251:25409   */\n      swap2\n      swap1\n      pop\n      jump\t// out\n        /* \"#utility.yul\":25415:25562   */\n    tag_511:\n        /* \"#utility.yul\":25510:25555   */\n      tag_760\n        /* \"#utility.yul\":25549:25554   */\n      dup2\n        /* \"#utility.yul\":25510:25555   */\n      tag_510\n      jump\t// in\n    tag_760:\n        /* \"#utility.yul\":25505:25508   */\n      dup3\n        /* \"#utility.yul\":25498:25556   */\n      mstore\n        /* \"#utility.yul\":25415:25562   */\n      pop\n      pop\n      jump\t// out\n        /* \"#utility.yul\":25568:25682   */\n    tag_512:\n        /* \"#utility.yul\":25635:25641   */\n      0x00\n        /* \"#utility.yul\":25669:25674   */\n      dup2\n        /* \"#utility.yul\":25663:25675   */\n      mload\n        /* \"#utility.yul\":25653:25675   */\n      swap1\n      pop\n        /* \"#utility.yul\":25568:25682   */\n      swap2\n      swap1\n      pop\n      jump\t// out\n        /* \"#utility.yul\":25688:25872   */\n    tag_513:\n        /* \"#utility.yul\":25787:25798   */\n      0x00\n        /* \"#utility.yul\":25821:25827   */\n      dup3\n        /* \"#utility.yul\":25816:25819   */\n      dup3\n        /* \"#utility.yul\":25809:25828   */\n      mstore\n        /* \"#utility.yul\":25861:25865   */\n      0x20\n        /* \"#utility.yul\":25856:25859   */\n      dup3\n        /* \"#utility.yul\":25852:25866   */\n      add\n        /* \"#utility.yul\":25837:25866   */\n      swap1\n      pop\n        /* \"#utility.yul\":25688:25872   */\n      swap3\n      swap2\n      pop\n      pop\n      jump\t// out\n        /* \"#utility.yul\":25878:26010   */\n    tag_514:\n        /* \"#utility.yul\":25945:25949   */\n      0x00\n        /* \"#utility.yul\":25968:25971   */\n      dup2\n        /* \"#utility.yul\":25960:25971   */\n      swap1\n      pop\n        /* \"#utility.yul\":25998:26002   */\n      0x20\n        /* \"#utility.yul\":25993:25996   */\n      dup3\n        /* \"#utility.yul\":25989:26003   */\n      add\n        /* \"#utility.yul\":25981:26003   */\n      swap1\n      pop\n        /* \"#utility.yul\":25878:26010   */\n      swap2\n      swap1\n      pop\n      jump\t// out\n        /* \"#utility.yul\":26016:26124   */\n    tag_515:\n        /* \"#utility.yul\":26093:26117   */\n      tag_765\n        /* \"#utility.yul\":26111:26116   */\n      dup2\n        /* \"#utility.yul\":26093:26117   */\n      tag_456\n      jump\t// in\n    tag_765:\n        /* \"#utility.yul\":26088:26091   */\n      dup3\n        /* \"#utility.yul\":26081:26118   */\n      mstore\n        /* \"#utility.yul\":26016:26124   */\n      pop\n      pop\n      jump\t// out\n        /* \"#utility.yul\":26130:26309   */\n    tag_516:\n        /* \"#utility.yul\":26199:26209   */\n      0x00\n        /* \"#utility.yul\":26220:26266   */\n      tag_767\n        /* \"#utility.yul\":26262:26265   */\n      dup4\n        /* \"#utility.yul\":26254:26260   */\n      dup4\n        /* \"#utility.yul\":26220:26266   */\n      tag_515\n      jump\t// in\n    tag_767:\n        /* \"#utility.yul\":26298:26302   */\n      0x20\n        /* \"#utility.yul\":26293:26296   */\n      dup4\n        /* \"#utility.yul\":26289:26303   */\n      add\n        /* \"#utility.yul\":26275:26303   */\n      swap1\n      pop\n        /* \"#utility.yul\":26130:26309   */\n      swap3\n      swap2\n      pop\n      pop\n      jump\t// out\n        /* \"#utility.yul\":26315:26428   */\n    tag_517:\n        /* \"#utility.yul\":26385:26389   */\n      0x00\n        /* \"#utility.yul\":26417:26421   */\n      0x20\n        /* \"#utility.yul\":26412:26415   */\n      dup3\n        /* \"#utility.yul\":26408:26422   */\n      add\n        /* \"#utility.yul\":26400:26422   */\n      swap1\n      pop\n        /* \"#utility.yul\":26315:26428   */\n      swap2\n      swap1\n      pop\n      jump\t// out\n        /* \"#utility.yul\":26464:27196   */\n    tag_518:\n        /* \"#utility.yul\":26583:26586   */\n      0x00\n        /* \"#utility.yul\":26612:26666   */\n      tag_770\n        /* \"#utility.yul\":26660:26665   */\n      dup3\n        /* \"#utility.yul\":26612:26666   */\n      tag_512\n      jump\t// in\n    tag_770:\n        /* \"#utility.yul\":26682:26768   */\n      tag_771\n        /* \"#utility.yul\":26761:26767   */\n      dup2\n        /* \"#utility.yul\":26756:26759   */\n      dup6\n        /* \"#utility.yul\":26682:26768   */\n      tag_513\n      jump\t// in\n    tag_771:\n        /* \"#utility.yul\":26675:26768   */\n      swap4\n      pop\n        /* \"#utility.yul\":26792:26848   */\n      tag_772\n        /* \"#utility.yul\":26842:26847   */\n      dup4\n        /* \"#utility.yul\":26792:26848   */\n      tag_514\n      jump\t// in\n    tag_772:\n        /* \"#utility.yul\":26871:26878   */\n      dup1\n        /* \"#utility.yul\":26902:26903   */\n      0x00\n        /* \"#utility.yul\":26887:27171   */\n    tag_773:\n        /* \"#utility.yul\":26912:26918   */\n      dup4\n        /* \"#utility.yul\":26909:26910   */\n      dup2\n        /* \"#utility.yul\":26906:26919   */\n      lt\n        /* \"#utility.yul\":26887:27171   */\n      iszero\n      tag_775\n      jumpi\n        /* \"#utility.yul\":26988:26994   */\n      dup2\n        /* \"#utility.yul\":26982:26995   */\n      mload\n        /* \"#utility.yul\":27015:27078   */\n      tag_776\n        /* \"#utility.yul\":27074:27077   */\n      dup9\n        /* \"#utility.yul\":27059:27072   */\n      dup3\n        /* \"#utility.yul\":27015:27078   */\n      tag_516\n      jump\t// in\n    tag_776:\n        /* \"#utility.yul\":27008:27078   */\n      swap8\n      pop\n        /* \"#utility.yul\":27101:27161   */\n      tag_777\n        /* \"#utility.yul\":27154:27160   */\n      dup4\n        /* \"#utility.yul\":27101:27161   */\n      tag_517\n      jump\t// in\n    tag_777:\n        /* \"#utility.yul\":27091:27161   */\n      swap3\n      pop\n        /* \"#utility.yul\":26947:27171   */\n      pop\n        /* \"#utility.yul\":26934:26935   */\n      0x01\n        /* \"#utility.yul\":26931:26932   */\n      dup2\n        /* \"#utility.yul\":26927:26936   */\n      add\n        /* \"#utility.yul\":26922:26936   */\n      swap1\n      pop\n        /* \"#utility.yul\":26887:27171   */\n      jump(tag_773)\n    tag_775:\n        /* \"#utility.yul\":26891:26905   */\n      pop\n        /* \"#utility.yul\":27187:27190   */\n      dup6\n        /* \"#utility.yul\":27180:27190   */\n      swap4\n      pop\n        /* \"#utility.yul\":26588:27196   */\n      pop\n      pop\n      pop\n        /* \"#utility.yul\":26464:27196   */\n      swap3\n      swap2\n      pop\n      pop\n      jump\t// out\n        /* \"#utility.yul\":27202:28033   */\n    tag_370:\n        /* \"#utility.yul\":27465:27469   */\n      0x00\n        /* \"#utility.yul\":27503:27506   */\n      0xa0\n        /* \"#utility.yul\":27492:27501   */\n      dup3\n        /* \"#utility.yul\":27488:27507   */\n      add\n        /* \"#utility.yul\":27480:27507   */\n      swap1\n      pop\n        /* \"#utility.yul\":27517:27588   */\n      tag_779\n        /* \"#utility.yul\":27585:27586   */\n      0x00\n        /* \"#utility.yul\":27574:27583   */\n      dup4\n        /* \"#utility.yul\":27570:27587   */\n      add\n        /* \"#utility.yul\":27561:27567   */\n      dup9\n        /* \"#utility.yul\":27517:27588   */\n      tag_469\n      jump\t// in\n    tag_779:\n        /* \"#utility.yul\":27598:27678   */\n      tag_780\n        /* \"#utility.yul\":27674:27676   */\n      0x20\n        /* \"#utility.yul\":27663:27672   */\n      dup4\n        /* \"#utility.yul\":27659:27677   */\n      add\n        /* \"#utility.yul\":27650:27656   */\n      dup8\n        /* \"#utility.yul\":27598:27678   */\n      tag_511\n      jump\t// in\n    tag_780:\n        /* \"#utility.yul\":27725:27734   */\n      dup2\n        /* \"#utility.yul\":27719:27723   */\n      dup2\n        /* \"#utility.yul\":27715:27735   */\n      sub\n        /* \"#utility.yul\":27710:27712   */\n      0x40\n        /* \"#utility.yul\":27699:27708   */\n      dup4\n        /* \"#utility.yul\":27695:27713   */\n      add\n        /* \"#utility.yul\":27688:27736   */\n      mstore\n        /* \"#utility.yul\":27753:27861   */\n      tag_781\n        /* \"#utility.yul\":27856:27860   */\n      dup2\n        /* \"#utility.yul\":27847:27853   */\n      dup7\n        /* \"#utility.yul\":27753:27861   */\n      tag_518\n      jump\t// in\n    tag_781:\n        /* \"#utility.yul\":27745:27861   */\n      swap1\n      pop\n        /* \"#utility.yul\":27871:27943   */\n      tag_782\n        /* \"#utility.yul\":27939:27941   */\n      0x60\n        /* \"#utility.yul\":27928:27937   */\n      dup4\n        /* \"#utility.yul\":27924:27942   */\n      add\n        /* \"#utility.yul\":27915:27921   */\n      dup6\n        /* \"#utility.yul\":27871:27943   */\n      tag_472\n      jump\t// in\n    tag_782:\n        /* \"#utility.yul\":27953:28026   */\n      tag_783\n        /* \"#utility.yul\":28021:28024   */\n      0x80\n        /* \"#utility.yul\":28010:28019   */\n      dup4\n        /* \"#utility.yul\":28006:28025   */\n      add\n        /* \"#utility.yul\":27997:28003   */\n      dup5\n        /* \"#utility.yul\":27953:28026   */\n      tag_469\n      jump\t// in\n    tag_783:\n        /* \"#utility.yul\":27202:28033   */\n      swap7\n      swap6\n      pop\n      pop\n      pop\n      pop\n      pop\n      pop\n      jump\t// out\n        /* \"#utility.yul\":28039:28219   */\n    tag_519:\n        /* \"#utility.yul\":28087:28164   */\n      0x4e487b7100000000000000000000000000000000000000000000000000000000\n        /* \"#utility.yul\":28084:28085   */\n      0x00\n        /* \"#utility.yul\":28077:28165   */\n      mstore\n        /* \"#utility.yul\":28184:28188   */\n      0x12\n        /* \"#utility.yul\":28181:28182   */\n      0x04\n        /* \"#utility.yul\":28174:28189   */\n      mstore\n        /* \"#utility.yul\":28208:28212   */\n      0x24\n        /* \"#utility.yul\":28205:28206   */\n      0x00\n        /* \"#utility.yul\":28198:28213   */\n      revert\n        /* \"#utility.yul\":28225:28410   */\n    tag_400:\n        /* \"#utility.yul\":28265:28266   */\n      0x00\n        /* \"#utility.yul\":28282:28302   */\n      tag_786\n        /* \"#utility.yul\":28300:28301   */\n      dup3\n        /* \"#utility.yul\":28282:28302   */\n      tag_459\n      jump\t// in\n    tag_786:\n        /* \"#utility.yul\":28277:28302   */\n      swap2\n      pop\n        /* \"#utility.yul\":28316:28336   */\n      tag_787\n        /* \"#utility.yul\":28334:28335   */\n      dup4\n        /* \"#utility.yul\":28316:28336   */\n      tag_459\n      jump\t// in\n    tag_787:\n        /* \"#utility.yul\":28311:28336   */\n      swap3\n      pop\n        /* \"#utility.yul\":28355:28356   */\n      dup3\n        /* \"#utility.yul\":28345:28380   */\n      tag_788\n      jumpi\n        /* \"#utility.yul\":28360:28378   */\n      tag_789\n      tag_519\n      jump\t// in\n    tag_789:\n        /* \"#utility.yul\":28345:28380   */\n    tag_788:\n        /* \"#utility.yul\":28402:28403   */\n      dup3\n        /* \"#utility.yul\":28399:28400   */\n      dup3\n        /* \"#utility.yul\":28395:28404   */\n      div\n        /* \"#utility.yul\":28390:28404   */\n      swap1\n      pop\n        /* \"#utility.yul\":28225:28410   */\n      swap3\n      swap2\n      pop\n      pop\n      jump\t// out\n        /* \"#utility.yul\":28416:28721   */\n    tag_414:\n        /* \"#utility.yul\":28456:28459   */\n      0x00\n        /* \"#utility.yul\":28475:28495   */\n      tag_791\n        /* \"#utility.yul\":28493:28494   */\n      dup3\n        /* \"#utility.yul\":28475:28495   */\n      tag_459\n      jump\t// in\n    tag_791:\n        /* \"#utility.yul\":28470:28495   */\n      swap2\n      pop\n        /* \"#utility.yul\":28509:28529   */\n      tag_792\n        /* \"#utility.yul\":28527:28528   */\n      dup4\n        /* \"#utility.yul\":28509:28529   */\n      tag_459\n      jump\t// in\n    tag_792:\n        /* \"#utility.yul\":28504:28529   */\n      swap3\n      pop\n        /* \"#utility.yul\":28663:28664   */\n      dup3\n        /* \"#utility.yul\":28595:28661   */\n      0xffffffffffffffffffffffffffffffffffffffffffffffffffffffffffffffff\n        /* \"#utility.yul\":28591:28665   */\n      sub\n        /* \"#utility.yul\":28588:28589   */\n      dup3\n        /* \"#utility.yul\":28585:28666   */\n      gt\n        /* \"#utility.yul\":28582:28689   */\n      iszero\n      tag_793\n      jumpi\n        /* \"#utility.yul\":28669:28687   */\n      tag_794\n      tag_492\n      jump\t// in\n    tag_794:\n        /* \"#utility.yul\":28582:28689   */\n    tag_793:\n        /* \"#utility.yul\":28713:28714   */\n      dup3\n        /* \"#utility.yul\":28710:28711   */\n      dup3\n        /* \"#utility.yul\":28706:28715   */\n      add\n        /* \"#utility.yul\":28699:28715   */\n      swap1\n      pop\n        /* \"#utility.yul\":28416:28721   */\n      swap3\n      swap2\n      pop\n      pop\n      jump\t// out\n        /* \"#utility.yul\":28727:28904   */\n    tag_520:\n        /* \"#utility.yul\":28867:28896   */\n      0x536166654d6174683a206164646974696f6e206f766572666c6f770000000000\n        /* \"#utility.yul\":28863:28864   */\n      0x00\n        /* \"#utility.yul\":28855:28861   */\n      dup3\n        /* \"#utility.yul\":28851:28865   */\n      add\n        /* \"#utility.yul\":28844:28897   */\n      mstore\n        /* \"#utility.yul\":28727:28904   */\n      pop\n      jump\t// out\n        /* \"#utility.yul\":28910:29276   */\n    tag_521:\n        /* \"#utility.yul\":29052:29055   */\n      0x00\n        /* \"#utility.yul\":29073:29140   */\n      tag_797\n        /* \"#utility.yul\":29137:29139   */\n      0x1b\n        /* \"#utility.yul\":29132:29135   */\n      dup4\n        /* \"#utility.yul\":29073:29140   */\n      tag_448\n      jump\t// in\n    tag_797:\n        /* \"#utility.yul\":29066:29140   */\n      swap2\n      pop\n        /* \"#utility.yul\":29149:29242   */\n      tag_798\n        /* \"#utility.yul\":29238:29241   */\n      dup3\n        /* \"#utility.yul\":29149:29242   */\n      tag_520\n      jump\t// in\n    tag_798:\n        /* \"#utility.yul\":29267:29269   */\n      0x20\n        /* \"#utility.yul\":29262:29265   */\n      dup3\n        /* \"#utility.yul\":29258:29270   */\n      add\n        /* \"#utility.yul\":29251:29270   */\n      swap1\n      pop\n        /* \"#utility.yul\":28910:29276   */\n      swap2\n      swap1\n      pop\n      jump\t// out\n        /* \"#utility.yul\":29282:29701   */\n    tag_417:\n        /* \"#utility.yul\":29448:29452   */\n      0x00\n        /* \"#utility.yul\":29486:29488   */\n      0x20\n        /* \"#utility.yul\":29475:29484   */\n      dup3\n        /* \"#utility.yul\":29471:29489   */\n      add\n        /* \"#utility.yul\":29463:29489   */\n      swap1\n      pop\n        /* \"#utility.yul\":29535:29544   */\n      dup2\n        /* \"#utility.yul\":29529:29533   */\n      dup2\n        /* \"#utility.yul\":29525:29545   */\n      sub\n        /* \"#utility.yul\":29521:29522   */\n      0x00\n        /* \"#utility.yul\":29510:29519   */\n      dup4\n        /* \"#utility.yul\":29506:29523   */\n      add\n        /* \"#utility.yul\":29499:29546   */\n      mstore\n        /* \"#utility.yul\":29563:29694   */\n      tag_800\n        /* \"#utility.yul\":29689:29693   */\n      dup2\n        /* \"#utility.yul\":29563:29694   */\n      tag_521\n      jump\t// in\n    tag_800:\n        /* \"#utility.yul\":29555:29694   */\n      swap1\n      pop\n        /* \"#utility.yul\":29282:29701   */\n      swap2\n      swap1\n      pop\n      jump\t// out\n        /* \"#utility.yul\":29707:30055   */\n    tag_442:\n        /* \"#utility.yul\":29747:29754   */\n      0x00\n        /* \"#utility.yul\":29770:29790   */\n      tag_802\n        /* \"#utility.yul\":29788:29789   */\n      dup3\n        /* \"#utility.yul\":29770:29790   */\n      tag_459\n      jump\t// in\n    tag_802:\n        /* \"#utility.yul\":29765:29790   */\n      swap2\n      pop\n        /* \"#utility.yul\":29804:29824   */\n      tag_803\n        /* \"#utility.yul\":29822:29823   */\n      dup4\n        /* \"#utility.yul\":29804:29824   */\n      tag_459\n      jump\t// in\n    tag_803:\n        /* \"#utility.yul\":29799:29824   */\n      swap3\n      pop\n        /* \"#utility.yul\":29992:29993   */\n      dup2\n        /* \"#utility.yul\":29924:29990   */\n      0xffffffffffffffffffffffffffffffffffffffffffffffffffffffffffffffff\n        /* \"#utility.yul\":29920:29994   */\n      div\n        /* \"#utility.yul\":29917:29918   */\n      dup4\n        /* \"#utility.yul\":29914:29995   */\n      gt\n        /* \"#utility.yul\":29909:29910   */\n      dup3\n        /* \"#utility.yul\":29902:29911   */\n      iszero\n        /* \"#utility.yul\":29895:29912   */\n      iszero\n        /* \"#utility.yul\":29891:29996   */\n      and\n        /* \"#utility.yul\":29888:30019   */\n      iszero\n      tag_804\n      jumpi\n        /* \"#utility.yul\":29999:30017   */\n      tag_805\n      tag_492\n      jump\t// in\n    tag_805:\n        /* \"#utility.yul\":29888:30019   */\n    tag_804:\n        /* \"#utility.yul\":30047:30048   */\n      dup3\n        /* \"#utility.yul\":30044:30045   */\n      dup3\n        /* \"#utility.yul\":30040:30049   */\n      mul\n        /* \"#utility.yul\":30029:30049   */\n      swap1\n      pop\n        /* \"#utility.yul\":29707:30055   */\n      swap3\n      swap2\n      pop\n      pop\n      jump\t// out\n        /* \"#utility.yul\":30061:30281   */\n    tag_522:\n        /* \"#utility.yul\":30201:30235   */\n      0x536166654d6174683a206d756c7469706c69636174696f6e206f766572666c6f\n        /* \"#utility.yul\":30197:30198   */\n      0x00\n        /* \"#utility.yul\":30189:30195   */\n      dup3\n        /* \"#utility.yul\":30185:30199   */\n      add\n        /* \"#utility.yul\":30178:30236   */\n      mstore\n        /* \"#utility.yul\":30270:30273   */\n      0x7700000000000000000000000000000000000000000000000000000000000000\n        /* \"#utility.yul\":30265:30267   */\n      0x20\n        /* \"#utility.yul\":30257:30263   */\n      dup3\n        /* \"#utility.yul\":30253:30268   */\n      add\n        /* \"#utility.yul\":30246:30274   */\n      mstore\n        /* \"#utility.yul\":30061:30281   */\n      pop\n      jump\t// out\n        /* \"#utility.yul\":30287:30653   */\n    tag_523:\n        /* \"#utility.yul\":30429:30432   */\n      0x00\n        /* \"#utility.yul\":30450:30517   */\n      tag_808\n        /* \"#utility.yul\":30514:30516   */\n      0x21\n        /* \"#utility.yul\":30509:30512   */\n      dup4\n        /* \"#utility.yul\":30450:30517   */\n      tag_448\n      jump\t// in\n    tag_808:\n        /* \"#utility.yul\":30443:30517   */\n      swap2\n      pop\n        /* \"#utility.yul\":30526:30619   */\n      tag_809\n        /* \"#utility.yul\":30615:30618   */\n      dup3\n        /* \"#utility.yul\":30526:30619   */\n      tag_522\n      jump\t// in\n    tag_809:\n        /* \"#utility.yul\":30644:30646   */\n      0x40\n        /* \"#utility.yul\":30639:30642   */\n      dup3\n        /* \"#utility.yul\":30635:30647   */\n      add\n        /* \"#utility.yul\":30628:30647   */\n      swap1\n      pop\n        /* \"#utility.yul\":30287:30653   */\n      swap2\n      swap1\n      pop\n      jump\t// out\n        /* \"#utility.yul\":30659:31078   */\n    tag_446:\n        /* \"#utility.yul\":30825:30829   */\n      0x00\n        /* \"#utility.yul\":30863:30865   */\n      0x20\n        /* \"#utility.yul\":30852:30861   */\n      dup3\n        /* \"#utility.yul\":30848:30866   */\n      add\n        /* \"#utility.yul\":30840:30866   */\n      swap1\n      pop\n        /* \"#utility.yul\":30912:30921   */\n      dup2\n        /* \"#utility.yul\":30906:30910   */\n      dup2\n        /* \"#utility.yul\":30902:30922   */\n      sub\n        /* \"#utility.yul\":30898:30899   */\n      0x00\n        /* \"#utility.yul\":30887:30896   */\n      dup4\n        /* \"#utility.yul\":30883:30900   */\n      add\n        /* \"#utility.yul\":30876:30923   */\n      mstore\n        /* \"#utility.yul\":30940:31071   */\n      tag_811\n        /* \"#utility.yul\":31066:31070   */\n      dup2\n        /* \"#utility.yul\":30940:31071   */\n      tag_523\n      jump\t// in\n    tag_811:\n        /* \"#utility.yul\":30932:31071   */\n      swap1\n      pop\n        /* \"#utility.yul\":30659:31078   */\n      swap2\n      swap1\n      pop\n      jump\t// out\n    stop\n    data_974d1b4421da69cc60b481194f0dad36a5bb4e23da810da7a7fb30cdba178330 45524332303a207472616e7366657220616d6f756e74206578636565647320616c6c6f77616e6365\n\n    auxdata: 0xa2646970667358221220aff913b4b8cd6112673af0c5fd7b18c793554aa6bbced16d47537a4b70107cee64736f6c634300080d0033\n}\n",
				"bytecode": {
					"linkReferences": {},
					"object": "6080604052670de0b6b3a76400006414f46b04006200001f9190620005a8565b6414f46b04006200003191906200060f565b600655600160085560046009556001600a556001600b556000600e60006101000a81548160ff021916908315150217905550738492cbd894686d7e98214541903c7ba6f94928d6600e60016101000a81548173ffffffffffffffffffffffffffffffffffffffff021916908373ffffffffffffffffffffffffffffffffffffffff16021790555073a4ed7aa4ef5deb0a63e97d9cb77445ae553feb1d600f60006101000a81548173ffffffffffffffffffffffffffffffffffffffff021916908373ffffffffffffffffffffffffffffffffffffffff1602179055506000601360146101000a81548160ff0219169083151502179055506001601360156101000a81548160ff0219169083151502179055503480156200015057600080fd5b506000620001636200053e60201b60201c565b9050806000806101000a81548173ffffffffffffffffffffffffffffffffffffffff021916908373ffffffffffffffffffffffffffffffffffffffff1602179055508073ffffffffffffffffffffffffffffffffffffffff16600073ffffffffffffffffffffffffffffffffffffffff167f8be0079c531659141344cd1fd0a4f28419497f9722a3daafe3b4186f6b6457e060405160405180910390a35060065460026000620002186200053e60201b60201c565b73ffffffffffffffffffffffffffffffffffffffff1673ffffffffffffffffffffffffffffffffffffffff1681526020019081526020016000208190555060007310ed43c718714eb63d5aa57b78b54704e256024e905080601060006101000a81548173ffffffffffffffffffffffffffffffffffffffff021916908373ffffffffffffffffffffffffffffffffffffffff16021790555073ca143ce32fe78f1f7019d7d551a6402fc5350c73601160006101000a81548173ffffffffffffffffffffffffffffffffffffffff021916908373ffffffffffffffffffffffffffffffffffffffff1602179055506001600560006200031b6200054660201b60201c565b73ffffffffffffffffffffffffffffffffffffffff1673ffffffffffffffffffffffffffffffffffffffff16815260200190815260200160002060006101000a81548160ff0219169083151502179055506001600560003073ffffffffffffffffffffffffffffffffffffffff1673ffffffffffffffffffffffffffffffffffffffff16815260200190815260200160002060006101000a81548160ff021916908315150217905550600160056000600e60019054906101000a900473ffffffffffffffffffffffffffffffffffffffff1673ffffffffffffffffffffffffffffffffffffffff1673ffffffffffffffffffffffffffffffffffffffff16815260200190815260200160002060006101000a81548160ff021916908315150217905550600160056000600f60009054906101000a900473ffffffffffffffffffffffffffffffffffffffff1673ffffffffffffffffffffffffffffffffffffffff1673ffffffffffffffffffffffffffffffffffffffff16815260200190815260200160002060006101000a81548160ff021916908315150217905550620004c86200053e60201b60201c565b73ffffffffffffffffffffffffffffffffffffffff16600073ffffffffffffffffffffffffffffffffffffffff167fddf252ad1be2c89b69c2b068fc378daa952ba7f163c4a11628f55a4df523b3ef670de0b6b3a76400006040516200052f91906200065b565b60405180910390a35062000678565b600033905090565b60008060009054906101000a900473ffffffffffffffffffffffffffffffffffffffff16905090565b6000819050919050565b7f4e487b7100000000000000000000000000000000000000000000000000000000600052601260045260246000fd5b6000620005b5826200056f565b9150620005c2836200056f565b925082620005d557620005d462000579565b5b828206905092915050565b7f4e487b7100000000000000000000000000000000000000000000000000000000600052601160045260246000fd5b60006200061c826200056f565b915062000629836200056f565b9250828210156200063f576200063e620005e0565b5b828203905092915050565b62000655816200056f565b82525050565b60006020820190506200067260008301846200064a565b92915050565b613ce780620006886000396000f3fe60806040526004361061016a5760003560e01c8063758dbe03116100d1578063c3c8cd801161008a578063ce4224c511610064578063ce4224c5146104ff578063dd62ed3e14610528578063e293d31614610565578063f2fde38b1461058e57610171565b8063c3c8cd8014610494578063c492f046146104ab578063c5cc6b6a146104d457610171565b8063758dbe03146103865780638da5cb5b146103af57806395d89b41146103da578063a2a957bb14610405578063a9059cbb1461042e578063aad5c0231461046b57610171565b806349bd5a5e1161012357806349bd5a5e1461029c57806359d0f713146102c75780636d8aa8f8146102f25780636fc3eaec1461031b57806370a0823114610332578063715018a61461036f57610171565b806306fdde0314610176578063095ea7b3146101a15780631694505e146101de57806318160ddd1461020957806323b872dd14610234578063313ce5671461027157610171565b3661017157005b600080fd5b34801561018257600080fd5b5061018b6105b7565b6040516101989190612c9a565b60405180910390f35b3480156101ad57600080fd5b506101c860048036038101906101c39190612d5a565b6105f4565b6040516101d59190612db5565b60405180910390f35b3480156101ea57600080fd5b506101f3610612565b6040516102009190612e2f565b60405180910390f35b34801561021557600080fd5b5061021e610638565b60405161022b9190612e59565b60405180910390f35b34801561024057600080fd5b5061025b60048036038101906102569190612e74565b610648565b6040516102689190612db5565b60405180910390f35b34801561027d57600080fd5b50610286610721565b6040516102939190612ee3565b60405180910390f35b3480156102a857600080fd5b506102b161072a565b6040516102be9190612f0d565b60405180910390f35b3480156102d357600080fd5b506102dc610750565b6040516102e99190612f49565b60405180910390f35b3480156102fe57600080fd5b5061031960048036038101906103149190612f90565b610776565b005b34801561032757600080fd5b5061033061086e565b005b34801561033e57600080fd5b5061035960048036038101906103549190612fbd565b610983565b6040516103669190612e59565b60405180910390f35b34801561037b57600080fd5b506103846109d4565b005b34801561039257600080fd5b506103ad60048036038101906103a89190613028565b610b27565b005b3480156103bb57600080fd5b506103c4610d3c565b6040516103d19190612f0d565b60405180910390f35b3480156103e657600080fd5b506103ef610d65565b6040516103fc9190612c9a565b60405180910390f35b34801561041157600080fd5b5061042c60048036038101906104279190613055565b610da2565b005b34801561043a57600080fd5b5061045560048036038101906104509190612d5a565b610fab565b6040516104629190612db5565b60405180910390f35b34801561047757600080fd5b50610492600480360381019061048d9190613028565b610fc9565b005b3480156104a057600080fd5b506104a96111de565b005b3480156104b757600080fd5b506104d260048036038101906104cd9190613121565b6112fb565b005b3480156104e057600080fd5b506104e9611435565b6040516104f69190612f0d565b60405180910390f35b34801561050b57600080fd5b5061052660048036038101906105219190612fbd565b61145b565b005b34801561053457600080fd5b5061054f600480360381019061054a9190613181565b611629565b60405161055c9190612e59565b60405180910390f35b34801561057157600080fd5b5061058c60048036038101906105879190612e74565b6116b0565b005b34801561059a57600080fd5b506105b560048036038101906105b09190612fbd565b611874565b005b60606040518060400160405280600a81526020017f576f726c64205374657000000000000000000000000000000000000000000000815250905090565b60006106086106016119c6565b84846119ce565b6001905092915050565b601060009054906101000a900473ffffffffffffffffffffffffffffffffffffffff1681565b6000670de0b6b3a7640000905090565b6000610655848484611b97565b610716846106616119c6565b61071185604051806060016040528060288152602001613c8a60289139600460008b73ffffffffffffffffffffffffffffffffffffffff1673ffffffffffffffffffffffffffffffffffffffff16815260200190815260200160002060006106c76119c6565b73ffffffffffffffffffffffffffffffffffffffff1673ffffffffffffffffffffffffffffffffffffffff168152602001908152602001600020546121099092919063ffffffff16565b6119ce565b600190509392505050565b60006009905090565b601360009054906101000a900473ffffffffffffffffffffffffffffffffffffffff1681565b601160009054906101000a900473ffffffffffffffffffffffffffffffffffffffff1681565b61077e6119c6565b73ffffffffffffffffffffffffffffffffffffffff1661079c610d3c565b73ffffffffffffffffffffffffffffffffffffffff16148061081257506107c16119c6565b73ffffffffffffffffffffffffffffffffffffffff16600e60019054906101000a900473ffffffffffffffffffffffffffffffffffffffff1673ffffffffffffffffffffffffffffffffffffffff16145b610851576040517f08c379a00000000000000000000000000000000000000000000000000000000081526004016108489061320d565b60405180910390fd5b80601360156101000a81548160ff02191690831515021790555050565b600e60019054906101000a900473ffffffffffffffffffffffffffffffffffffffff1673ffffffffffffffffffffffffffffffffffffffff166108af6119c6565b73ffffffffffffffffffffffffffffffffffffffff1614806109255750600f60009054906101000a900473ffffffffffffffffffffffffffffffffffffffff1673ffffffffffffffffffffffffffffffffffffffff1661090d6119c6565b73ffffffffffffffffffffffffffffffffffffffff16145b806109695750610933610d3c565b73ffffffffffffffffffffffffffffffffffffffff166109516119c6565b73ffffffffffffffffffffffffffffffffffffffff16145b61097257600080fd5b60004790506109808161216d565b50565b60006109cd600260008473ffffffffffffffffffffffffffffffffffffffff1673ffffffffffffffffffffffffffffffffffffffff16815260200190815260200160002054612268565b9050919050565b6109dc6119c6565b73ffffffffffffffffffffffffffffffffffffffff1660008054906101000a900473ffffffffffffffffffffffffffffffffffffffff1673ffffffffffffffffffffffffffffffffffffffff1614610a69576040517f08c379a0000000000000000000000000000000000000000000000000000000008152600401610a6090613279565b60405180910390fd5b600073ffffffffffffffffffffffffffffffffffffffff1660008054906101000a900473ffffffffffffffffffffffffffffffffffffffff1673ffffffffffffffffffffffffffffffffffffffff167f8be0079c531659141344cd1fd0a4f28419497f9722a3daafe3b4186f6b6457e060405160405180910390a360008060006101000a81548173ffffffffffffffffffffffffffffffffffffffff021916908373ffffffffffffffffffffffffffffffffffffffff160217905550565b610b2f6119c6565b73ffffffffffffffffffffffffffffffffffffffff16610b4d610d3c565b73ffffffffffffffffffffffffffffffffffffffff161480610bc35750610b726119c6565b73ffffffffffffffffffffffffffffffffffffffff16600e60019054906101000a900473ffffffffffffffffffffffffffffffffffffffff1673ffffffffffffffffffffffffffffffffffffffff16145b610c02576040517f08c379a0000000000000000000000000000000000000000000000000000000008152600401610bf99061320d565b60405180910390fd5b8073ffffffffffffffffffffffffffffffffffffffff16600f60009054906101000a900473ffffffffffffffffffffffffffffffffffffffff1673ffffffffffffffffffffffffffffffffffffffff167fa64373a629bc0c09eacf8a9cc2c7b070fa0a8b7e2e9b8aaee408a3c02eb1676b60405160405180910390a380600f60006101000a81548173ffffffffffffffffffffffffffffffffffffffff021916908373ffffffffffffffffffffffffffffffffffffffff160217905550600160056000600f60009054906101000a900473ffffffffffffffffffffffffffffffffffffffff1673ffffffffffffffffffffffffffffffffffffffff1673ffffffffffffffffffffffffffffffffffffffff16815260200190815260200160002060006101000a81548160ff02191690831515021790555050565b60008060009054906101000a900473ffffffffffffffffffffffffffffffffffffffff16905090565b60606040518060400160405280600381526020017f5753500000000000000000000000000000000000000000000000000000000000815250905090565b610daa6119c6565b73ffffffffffffffffffffffffffffffffffffffff16610dc8610d3c565b73ffffffffffffffffffffffffffffffffffffffff161480610e3e5750610ded6119c6565b73ffffffffffffffffffffffffffffffffffffffff16600e60019054906101000a900473ffffffffffffffffffffffffffffffffffffffff1673ffffffffffffffffffffffffffffffffffffffff16145b610e7d576040517f08c379a0000000000000000000000000000000000000000000000000000000008152600401610e749061320d565b60405180910390fd5b600b8410610ec0576040517f08c379a0000000000000000000000000000000000000000000000000000000008152600401610eb7906132e5565b60405180910390fd5b600b8310610f03576040517f08c379a0000000000000000000000000000000000000000000000000000000008152600401610efa906132e5565b60405180910390fd5b60078210610f46576040517f08c379a0000000000000000000000000000000000000000000000000000000008152600401610f3d90613351565b60405180910390fd5b60078110610f89576040517f08c379a0000000000000000000000000000000000000000000000000000000008152600401610f8090613351565b60405180910390fd5b8360088190555082600a819055508160098190555080600b8190555050505050565b6000610fbf610fb86119c6565b8484611b97565b6001905092915050565b610fd16119c6565b73ffffffffffffffffffffffffffffffffffffffff16610fef610d3c565b73ffffffffffffffffffffffffffffffffffffffff16148061106557506110146119c6565b73ffffffffffffffffffffffffffffffffffffffff16600e60019054906101000a900473ffffffffffffffffffffffffffffffffffffffff1673ffffffffffffffffffffffffffffffffffffffff16145b6110a4576040517f08c379a000000000000000000000000000000000000000000000000000000000815260040161109b9061320d565b60405180910390fd5b8073ffffffffffffffffffffffffffffffffffffffff16600e60019054906101000a900473ffffffffffffffffffffffffffffffffffffffff1673ffffffffffffffffffffffffffffffffffffffff167ffbbc329437e8c79f847e170730ad6dd04106b7511cad70d06d635886d92de83c60405160405180910390a380600e60016101000a81548173ffffffffffffffffffffffffffffffffffffffff021916908373ffffffffffffffffffffffffffffffffffffffff160217905550600160056000600e60019054906101000a900473ffffffffffffffffffffffffffffffffffffffff1673ffffffffffffffffffffffffffffffffffffffff1673ffffffffffffffffffffffffffffffffffffffff16815260200190815260200160002060006101000a81548160ff02191690831515021790555050565b600e60019054906101000a900473ffffffffffffffffffffffffffffffffffffffff1673ffffffffffffffffffffffffffffffffffffffff1661121f6119c6565b73ffffffffffffffffffffffffffffffffffffffff1614806112955750600f60009054906101000a900473ffffffffffffffffffffffffffffffffffffffff1673ffffffffffffffffffffffffffffffffffffffff1661127d6119c6565b73ffffffffffffffffffffffffffffffffffffffff16145b806112d957506112a3610d3c565b73ffffffffffffffffffffffffffffffffffffffff166112c16119c6565b73ffffffffffffffffffffffffffffffffffffffff16145b6112e257600080fd5b60006112ed30610983565b90506112f8816122d6565b50565b6113036119c6565b73ffffffffffffffffffffffffffffffffffffffff1660008054906101000a900473ffffffffffffffffffffffffffffffffffffffff1673ffffffffffffffffffffffffffffffffffffffff1614611390576040517f08c379a000000000000000000000000000000000000000000000000000000000815260040161138790613279565b60405180910390fd5b60005b8383905081101561142f5781600560008686858181106113b6576113b5613371565b5b90506020020160208101906113cb9190612fbd565b73ffffffffffffffffffffffffffffffffffffffff1673ffffffffffffffffffffffffffffffffffffffff16815260200190815260200160002060006101000a81548160ff0219169083151502179055508080611427906133cf565b915050611393565b50505050565b601260009054906101000a900473ffffffffffffffffffffffffffffffffffffffff1681565b6114636119c6565b73ffffffffffffffffffffffffffffffffffffffff1660008054906101000a900473ffffffffffffffffffffffffffffffffffffffff1673ffffffffffffffffffffffffffffffffffffffff16146114f0576040517f08c379a00000000000000000000000000000000000000000000000000000000081526004016114e790613279565b60405180910390fd5b60001515600e60009054906101000a900460ff16151514611546576040517f08c379a000000000000000000000000000000000000000000000000000000000815260040161153d90613463565b60405180910390fd5b601160009054906101000a900473ffffffffffffffffffffffffffffffffffffffff1673ffffffffffffffffffffffffffffffffffffffff1663c9c6539630836040518363ffffffff1660e01b81526004016115a3929190613483565b6020604051808303816000875af11580156115c2573d6000803e3d6000fd5b505050506040513d601f19601f820116820180604052508101906115e691906134c1565b601360006101000a81548173ffffffffffffffffffffffffffffffffffffffff021916908373ffffffffffffffffffffffffffffffffffffffff16021790555050565b6000600460008473ffffffffffffffffffffffffffffffffffffffff1673ffffffffffffffffffffffffffffffffffffffff16815260200190815260200160002060008373ffffffffffffffffffffffffffffffffffffffff1673ffffffffffffffffffffffffffffffffffffffff16815260200190815260200160002054905092915050565b6116b86119c6565b73ffffffffffffffffffffffffffffffffffffffff166116d6610d3c565b73ffffffffffffffffffffffffffffffffffffffff16148061174c57506116fb6119c6565b73ffffffffffffffffffffffffffffffffffffffff16600e60019054906101000a900473ffffffffffffffffffffffffffffffffffffffff1673ffffffffffffffffffffffffffffffffffffffff16145b61178b576040517f08c379a00000000000000000000000000000000000000000000000000000000081526004016117829061320d565b60405180910390fd5b8173ffffffffffffffffffffffffffffffffffffffff168373ffffffffffffffffffffffffffffffffffffffff167f47c33aa230eb5fd181505aa7befeaddd9b8a6f983989cea73a7868448c3a9ed9836040516117e89190612e59565b60405180910390a38273ffffffffffffffffffffffffffffffffffffffff1663a9059cbb83836040518363ffffffff1660e01b815260040161182b9291906134ee565b6020604051808303816000875af115801561184a573d6000803e3d6000fd5b505050506040513d601f19601f8201168201806040525081019061186e919061352c565b50505050565b61187c6119c6565b73ffffffffffffffffffffffffffffffffffffffff1660008054906101000a900473ffffffffffffffffffffffffffffffffffffffff1673ffffffffffffffffffffffffffffffffffffffff1614611909576040517f08c379a000000000000000000000000000000000000000000000000000000000815260040161190090613279565b60405180910390fd5b8073ffffffffffffffffffffffffffffffffffffffff1660008054906101000a900473ffffffffffffffffffffffffffffffffffffffff1673ffffffffffffffffffffffffffffffffffffffff167f8be0079c531659141344cd1fd0a4f28419497f9722a3daafe3b4186f6b6457e060405160405180910390a3806000806101000a81548173ffffffffffffffffffffffffffffffffffffffff021916908373ffffffffffffffffffffffffffffffffffffffff16021790555050565b600033905090565b600073ffffffffffffffffffffffffffffffffffffffff168373ffffffffffffffffffffffffffffffffffffffff1603611a3d576040517f08c379a0000000000000000000000000000000000000000000000000000000008152600401611a34906135cb565b60405180910390fd5b600073ffffffffffffffffffffffffffffffffffffffff168273ffffffffffffffffffffffffffffffffffffffff1603611aac576040517f08c379a0000000000000000000000000000000000000000000000000000000008152600401611aa39061365d565b60405180910390fd5b80600460008573ffffffffffffffffffffffffffffffffffffffff1673ffffffffffffffffffffffffffffffffffffffff16815260200190815260200160002060008473ffffffffffffffffffffffffffffffffffffffff1673ffffffffffffffffffffffffffffffffffffffff168152602001908152602001600020819055508173ffffffffffffffffffffffffffffffffffffffff168373ffffffffffffffffffffffffffffffffffffffff167f8c5be1e5ebec7d5bd14f71427d1e84f3dd0314c0f7b2291e5b200ac8c7c3b92583604051611b8a9190612e59565b60405180910390a3505050565b600073ffffffffffffffffffffffffffffffffffffffff168373ffffffffffffffffffffffffffffffffffffffff1603611c06576040517f08c379a0000000000000000000000000000000000000000000000000000000008152600401611bfd906136ef565b60405180910390fd5b600073ffffffffffffffffffffffffffffffffffffffff168273ffffffffffffffffffffffffffffffffffffffff1603611c75576040517f08c379a0000000000000000000000000000000000000000000000000000000008152600401611c6c90613781565b60405180910390fd5b60008111611cb8576040517f08c379a0000000000000000000000000000000000000000000000000000000008152600401611caf90613813565b60405180910390fd5b6000600c819055506000600d81905550611cd0610d3c565b73ffffffffffffffffffffffffffffffffffffffff168373ffffffffffffffffffffffffffffffffffffffff1614158015611d3e5750611d0e610d3c565b73ffffffffffffffffffffffffffffffffffffffff168273ffffffffffffffffffffffffffffffffffffffff1614155b156120f9576000611d4e30610983565b9050601360149054906101000a900460ff16158015611dbb5750601360009054906101000a900473ffffffffffffffffffffffffffffffffffffffff1673ffffffffffffffffffffffffffffffffffffffff168473ffffffffffffffffffffffffffffffffffffffff1614155b8015611dd35750601360159054906101000a900460ff165b8015611ddf5750600081115b15611e0757611ded816122d6565b60004790506000811115611e0557611e044761216d565b5b505b601360009054906101000a900473ffffffffffffffffffffffffffffffffffffffff1673ffffffffffffffffffffffffffffffffffffffff168473ffffffffffffffffffffffffffffffffffffffff16148015611eb25750601060009054906101000a900473ffffffffffffffffffffffffffffffffffffffff1673ffffffffffffffffffffffffffffffffffffffff168373ffffffffffffffffffffffffffffffffffffffff1614155b15611eca57600854600c81905550600954600d819055505b601360009054906101000a900473ffffffffffffffffffffffffffffffffffffffff1673ffffffffffffffffffffffffffffffffffffffff168373ffffffffffffffffffffffffffffffffffffffff16148015611f755750601060009054906101000a900473ffffffffffffffffffffffffffffffffffffffff1673ffffffffffffffffffffffffffffffffffffffff168473ffffffffffffffffffffffffffffffffffffffff1614155b15611f8d57600a54600c81905550600b54600d819055505b600560008573ffffffffffffffffffffffffffffffffffffffff1673ffffffffffffffffffffffffffffffffffffffff16815260200190815260200160002060009054906101000a900460ff168061202e5750600560008473ffffffffffffffffffffffffffffffffffffffff1673ffffffffffffffffffffffffffffffffffffffff16815260200190815260200160002060009054906101000a900460ff165b806120e15750601360009054906101000a900473ffffffffffffffffffffffffffffffffffffffff1673ffffffffffffffffffffffffffffffffffffffff168473ffffffffffffffffffffffffffffffffffffffff16141580156120e05750601360009054906101000a900473ffffffffffffffffffffffffffffffffffffffff1673ffffffffffffffffffffffffffffffffffffffff168373ffffffffffffffffffffffffffffffffffffffff1614155b5b156120f7576000600c819055506000600d819055505b505b61210483838361254f565b505050565b6000838311158290612151576040517f08c379a00000000000000000000000000000000000000000000000000000000081526004016121489190612c9a565b60405180910390fd5b50600083856121609190613833565b9050809150509392505050565b600e60019054906101000a900473ffffffffffffffffffffffffffffffffffffffff1673ffffffffffffffffffffffffffffffffffffffff166108fc6121bd60028461255f90919063ffffffff16565b9081150290604051600060405180830381858888f193505050501580156121e8573d6000803e3d6000fd5b50600f60009054906101000a900473ffffffffffffffffffffffffffffffffffffffff1673ffffffffffffffffffffffffffffffffffffffff166108fc61223960028461255f90919063ffffffff16565b9081150290604051600060405180830381858888f19350505050158015612264573d6000803e3d6000fd5b5050565b60006006548211156122af576040517f08c379a00000000000000000000000000000000000000000000000000000000081526004016122a6906138d9565b60405180910390fd5b60006122b96125a9565b90506122ce818461255f90919063ffffffff16565b915050919050565b6001601360146101000a81548160ff0219169083151502179055506000600267ffffffffffffffff81111561230e5761230d6138f9565b5b60405190808252806020026020018201604052801561233c5781602001602082028036833780820191505090505b509050308160008151811061235457612353613371565b5b602002602001019073ffffffffffffffffffffffffffffffffffffffff16908173ffffffffffffffffffffffffffffffffffffffff1681525050601060009054906101000a900473ffffffffffffffffffffffffffffffffffffffff1673ffffffffffffffffffffffffffffffffffffffff1663ad5c46486040518163ffffffff1660e01b8152600401602060405180830381865afa1580156123fb573d6000803e3d6000fd5b505050506040513d601f19601f8201168201806040525081019061241f91906134c1565b8160018151811061243357612432613371565b5b602002602001019073ffffffffffffffffffffffffffffffffffffffff16908173ffffffffffffffffffffffffffffffffffffffff168152505061249a30601060009054906101000a900473ffffffffffffffffffffffffffffffffffffffff16846119ce565b601060009054906101000a900473ffffffffffffffffffffffffffffffffffffffff1673ffffffffffffffffffffffffffffffffffffffff1663791ac9478360008430426040518663ffffffff1660e01b81526004016124fe959493929190613a21565b600060405180830381600087803b15801561251857600080fd5b505af115801561252c573d6000803e3d6000fd5b50505050506000601360146101000a81548160ff02191690831515021790555050565b61255a8383836125d4565b505050565b60006125a183836040518060400160405280601a81526020017f536166654d6174683a206469766973696f6e206279207a65726f00000000000081525061279f565b905092915050565b60008060006125b6612802565b915091506125cd818361255f90919063ffffffff16565b9250505090565b6000806000806000806125e687612861565b95509550955095509550955061264486600260008c73ffffffffffffffffffffffffffffffffffffffff1673ffffffffffffffffffffffffffffffffffffffff168152602001908152602001600020546128c990919063ffffffff16565b600260008b73ffffffffffffffffffffffffffffffffffffffff1673ffffffffffffffffffffffffffffffffffffffff168152602001908152602001600020819055506126d985600260008b73ffffffffffffffffffffffffffffffffffffffff1673ffffffffffffffffffffffffffffffffffffffff1681526020019081526020016000205461291390919063ffffffff16565b600260008a73ffffffffffffffffffffffffffffffffffffffff1673ffffffffffffffffffffffffffffffffffffffff1681526020019081526020016000208190555061272581612971565b61272f8483612a2e565b8773ffffffffffffffffffffffffffffffffffffffff168973ffffffffffffffffffffffffffffffffffffffff167fddf252ad1be2c89b69c2b068fc378daa952ba7f163c4a11628f55a4df523b3ef8560405161278c9190612e59565b60405180910390a3505050505050505050565b600080831182906127e6576040517f08c379a00000000000000000000000000000000000000000000000000000000081526004016127dd9190612c9a565b60405180910390fd5b50600083856127f59190613aaa565b9050809150509392505050565b600080600060065490506000670de0b6b3a76400009050612836670de0b6b3a764000060065461255f90919063ffffffff16565b82101561285457600654670de0b6b3a764000093509350505061285d565b81819350935050505b9091565b600080600080600080600080600061287e8a600c54600d54612a68565b925092509250600061288e6125a9565b905060008060006128a18e878787612afe565b9250925092508282828989899c509c509c509c509c509c505050505050505091939550919395565b600061290b83836040518060400160405280601e81526020017f536166654d6174683a207375627472616374696f6e206f766572666c6f770000815250612109565b905092915050565b60008082846129229190613adb565b905083811015612967576040517f08c379a000000000000000000000000000000000000000000000000000000000815260040161295e90613b7d565b60405180910390fd5b8091505092915050565b600061297b6125a9565b905060006129928284612b8790919063ffffffff16565b90506129e681600260003073ffffffffffffffffffffffffffffffffffffffff1673ffffffffffffffffffffffffffffffffffffffff1681526020019081526020016000205461291390919063ffffffff16565b600260003073ffffffffffffffffffffffffffffffffffffffff1673ffffffffffffffffffffffffffffffffffffffff16815260200190815260200160002081905550505050565b612a43826006546128c990919063ffffffff16565b600681905550612a5e8160075461291390919063ffffffff16565b6007819055505050565b600080600080612a946064612a86888a612b8790919063ffffffff16565b61255f90919063ffffffff16565b90506000612abe6064612ab0888b612b8790919063ffffffff16565b61255f90919063ffffffff16565b90506000612ae782612ad9858c6128c990919063ffffffff16565b6128c990919063ffffffff16565b905080838395509550955050505093509350939050565b600080600080612b178589612b8790919063ffffffff16565b90506000612b2e8689612b8790919063ffffffff16565b90506000612b458789612b8790919063ffffffff16565b90506000612b6e82612b6085876128c990919063ffffffff16565b6128c990919063ffffffff16565b9050838184965096509650505050509450945094915050565b6000808303612b995760009050612bfb565b60008284612ba79190613b9d565b9050828482612bb69190613aaa565b14612bf6576040517f08c379a0000000000000000000000000000000000000000000000000000000008152600401612bed90613c69565b60405180910390fd5b809150505b92915050565b600081519050919050565b600082825260208201905092915050565b60005b83811015612c3b578082015181840152602081019050612c20565b83811115612c4a576000848401525b50505050565b6000601f19601f8301169050919050565b6000612c6c82612c01565b612c768185612c0c565b9350612c86818560208601612c1d565b612c8f81612c50565b840191505092915050565b60006020820190508181036000830152612cb48184612c61565b905092915050565b600080fd5b600080fd5b600073ffffffffffffffffffffffffffffffffffffffff82169050919050565b6000612cf182612cc6565b9050919050565b612d0181612ce6565b8114612d0c57600080fd5b50565b600081359050612d1e81612cf8565b92915050565b6000819050919050565b612d3781612d24565b8114612d4257600080fd5b50565b600081359050612d5481612d2e565b92915050565b60008060408385031215612d7157612d70612cbc565b5b6000612d7f85828601612d0f565b9250506020612d9085828601612d45565b9150509250929050565b60008115159050919050565b612daf81612d9a565b82525050565b6000602082019050612dca6000830184612da6565b92915050565b6000819050919050565b6000612df5612df0612deb84612cc6565b612dd0565b612cc6565b9050919050565b6000612e0782612dda565b9050919050565b6000612e1982612dfc565b9050919050565b612e2981612e0e565b82525050565b6000602082019050612e446000830184612e20565b92915050565b612e5381612d24565b82525050565b6000602082019050612e6e6000830184612e4a565b92915050565b600080600060608486031215612e8d57612e8c612cbc565b5b6000612e9b86828701612d0f565b9350506020612eac86828701612d0f565b9250506040612ebd86828701612d45565b9150509250925092565b600060ff82169050919050565b612edd81612ec7565b82525050565b6000602082019050612ef86000830184612ed4565b92915050565b612f0781612ce6565b82525050565b6000602082019050612f226000830184612efe565b92915050565b6000612f3382612dfc565b9050919050565b612f4381612f28565b82525050565b6000602082019050612f5e6000830184612f3a565b92915050565b612f6d81612d9a565b8114612f7857600080fd5b50565b600081359050612f8a81612f64565b92915050565b600060208284031215612fa657612fa5612cbc565b5b6000612fb484828501612f7b565b91505092915050565b600060208284031215612fd357612fd2612cbc565b5b6000612fe184828501612d0f565b91505092915050565b6000612ff582612cc6565b9050919050565b61300581612fea565b811461301057600080fd5b50565b60008135905061302281612ffc565b92915050565b60006020828403121561303e5761303d612cbc565b5b600061304c84828501613013565b91505092915050565b6000806000806080858703121561306f5761306e612cbc565b5b600061307d87828801612d45565b945050602061308e87828801612d45565b935050604061309f87828801612d45565b92505060606130b087828801612d45565b91505092959194509250565b600080fd5b600080fd5b600080fd5b60008083601f8401126130e1576130e06130bc565b5b8235905067ffffffffffffffff8111156130fe576130fd6130c1565b5b60208301915083602082028301111561311a576131196130c6565b5b9250929050565b60008060006040848603121561313a57613139612cbc565b5b600084013567ffffffffffffffff81111561315857613157612cc1565b5b613164868287016130cb565b9350935050602061317786828701612f7b565b9150509250925092565b6000806040838503121561319857613197612cbc565b5b60006131a685828601612d0f565b92505060206131b785828601612d0f565b9150509250929050565b7f43616c6c6572206973206e6f7420746865206465760000000000000000000000600082015250565b60006131f7601583612c0c565b9150613202826131c1565b602082019050919050565b60006020820190508181036000830152613226816131ea565b9050919050565b7f43616c6c6572206973206e6f7420746865206f776e6572000000000000000000600082015250565b6000613263601783612c0c565b915061326e8261322d565b602082019050919050565b6000602082019050818103600083015261329281613256565b9050919050565b7f52656469732063616e6e6f74206265206d6f7265207468616e2031302e000000600082015250565b60006132cf601d83612c0c565b91506132da82613299565b602082019050919050565b600060208201905081810360008301526132fe816132c2565b9050919050565b7f5461782063616e6e6f74206265206d6f7265207468616e20362e000000000000600082015250565b600061333b601a83612c0c565b915061334682613305565b602082019050919050565b6000602082019050818103600083015261336a8161332e565b9050919050565b7f4e487b7100000000000000000000000000000000000000000000000000000000600052603260045260246000fd5b7f4e487b7100000000000000000000000000000000000000000000000000000000600052601160045260246000fd5b60006133da82612d24565b91507fffffffffffffffffffffffffffffffffffffffffffffffffffffffffffffffff820361340c5761340b6133a0565b5b600182019050919050565b7f4163746976656420706169720000000000000000000000000000000000000000600082015250565b600061344d600c83612c0c565b915061345882613417565b602082019050919050565b6000602082019050818103600083015261347c81613440565b9050919050565b60006040820190506134986000830185612efe565b6134a56020830184612efe565b9392505050565b6000815190506134bb81612cf8565b92915050565b6000602082840312156134d7576134d6612cbc565b5b60006134e5848285016134ac565b91505092915050565b60006040820190506135036000830185612efe565b6135106020830184612e4a565b9392505050565b60008151905061352681612f64565b92915050565b60006020828403121561354257613541612cbc565b5b600061355084828501613517565b91505092915050565b7f45524332303a20617070726f76652066726f6d20746865207a65726f2061646460008201527f7265737300000000000000000000000000000000000000000000000000000000602082015250565b60006135b5602483612c0c565b91506135c082613559565b604082019050919050565b600060208201905081810360008301526135e4816135a8565b9050919050565b7f45524332303a20617070726f766520746f20746865207a65726f20616464726560008201527f7373000000000000000000000000000000000000000000000000000000000000602082015250565b6000613647602283612c0c565b9150613652826135eb565b604082019050919050565b600060208201905081810360008301526136768161363a565b9050919050565b7f45524332303a207472616e736665722066726f6d20746865207a65726f20616460008201527f6472657373000000000000000000000000000000000000000000000000000000602082015250565b60006136d9602583612c0c565b91506136e48261367d565b604082019050919050565b60006020820190508181036000830152613708816136cc565b9050919050565b7f45524332303a207472616e7366657220746f20746865207a65726f206164647260008201527f6573730000000000000000000000000000000000000000000000000000000000602082015250565b600061376b602383612c0c565b91506137768261370f565b604082019050919050565b6000602082019050818103600083015261379a8161375e565b9050919050565b7f5472616e7366657220616d6f756e74206d75737420626520677265617465722060008201527f7468616e207a65726f0000000000000000000000000000000000000000000000602082015250565b60006137fd602983612c0c565b9150613808826137a1565b604082019050919050565b6000602082019050818103600083015261382c816137f0565b9050919050565b600061383e82612d24565b915061384983612d24565b92508282101561385c5761385b6133a0565b5b828203905092915050565b7f416d6f756e74206d757374206265206c657373207468616e20746f74616c207260008201527f65666c656374696f6e7300000000000000000000000000000000000000000000602082015250565b60006138c3602a83612c0c565b91506138ce82613867565b604082019050919050565b600060208201905081810360008301526138f2816138b6565b9050919050565b7f4e487b7100000000000000000000000000000000000000000000000000000000600052604160045260246000fd5b6000819050919050565b600061394d61394861394384613928565b612dd0565b612d24565b9050919050565b61395d81613932565b82525050565b600081519050919050565b600082825260208201905092915050565b6000819050602082019050919050565b61399881612ce6565b82525050565b60006139aa838361398f565b60208301905092915050565b6000602082019050919050565b60006139ce82613963565b6139d8818561396e565b93506139e38361397f565b8060005b83811015613a145781516139fb888261399e565b9750613a06836139b6565b9250506001810190506139e7565b5085935050505092915050565b600060a082019050613a366000830188612e4a565b613a436020830187613954565b8181036040830152613a5581866139c3565b9050613a646060830185612efe565b613a716080830184612e4a565b9695505050505050565b7f4e487b7100000000000000000000000000000000000000000000000000000000600052601260045260246000fd5b6000613ab582612d24565b9150613ac083612d24565b925082613ad057613acf613a7b565b5b828204905092915050565b6000613ae682612d24565b9150613af183612d24565b9250827fffffffffffffffffffffffffffffffffffffffffffffffffffffffffffffffff03821115613b2657613b256133a0565b5b828201905092915050565b7f536166654d6174683a206164646974696f6e206f766572666c6f770000000000600082015250565b6000613b67601b83612c0c565b9150613b7282613b31565b602082019050919050565b60006020820190508181036000830152613b9681613b5a565b9050919050565b6000613ba882612d24565b9150613bb383612d24565b9250817fffffffffffffffffffffffffffffffffffffffffffffffffffffffffffffffff0483118215151615613bec57613beb6133a0565b5b828202905092915050565b7f536166654d6174683a206d756c7469706c69636174696f6e206f766572666c6f60008201527f7700000000000000000000000000000000000000000000000000000000000000602082015250565b6000613c53602183612c0c565b9150613c5e82613bf7565b604082019050919050565b60006020820190508181036000830152613c8281613c46565b905091905056fe45524332303a207472616e7366657220616d6f756e74206578636565647320616c6c6f77616e6365a2646970667358221220aff913b4b8cd6112673af0c5fd7b18c793554aa6bbced16d47537a4b70107cee64736f6c634300080d0033",
					"opcodes": "PUSH1 0x80 PUSH1 0x40 MSTORE PUSH8 0xDE0B6B3A7640000 PUSH5 0x14F46B0400 PUSH3 0x1F SWAP2 SWAP1 PUSH3 0x5A8 JUMP JUMPDEST PUSH5 0x14F46B0400 PUSH3 0x31 SWAP2 SWAP1 PUSH3 0x60F JUMP JUMPDEST PUSH1 0x6 SSTORE PUSH1 0x1 PUSH1 0x8 SSTORE PUSH1 0x4 PUSH1 0x9 SSTORE PUSH1 0x1 PUSH1 0xA SSTORE PUSH1 0x1 PUSH1 0xB SSTORE PUSH1 0x0 PUSH1 0xE PUSH1 0x0 PUSH2 0x100 EXP DUP2 SLOAD DUP2 PUSH1 0xFF MUL NOT AND SWAP1 DUP4 ISZERO ISZERO MUL OR SWAP1 SSTORE POP PUSH20 0x8492CBD894686D7E98214541903C7BA6F94928D6 PUSH1 0xE PUSH1 0x1 PUSH2 0x100 EXP DUP2 SLOAD DUP2 PUSH20 0xFFFFFFFFFFFFFFFFFFFFFFFFFFFFFFFFFFFFFFFF MUL NOT AND SWAP1 DUP4 PUSH20 0xFFFFFFFFFFFFFFFFFFFFFFFFFFFFFFFFFFFFFFFF AND MUL OR SWAP1 SSTORE POP PUSH20 0xA4ED7AA4EF5DEB0A63E97D9CB77445AE553FEB1D PUSH1 0xF PUSH1 0x0 PUSH2 0x100 EXP DUP2 SLOAD DUP2 PUSH20 0xFFFFFFFFFFFFFFFFFFFFFFFFFFFFFFFFFFFFFFFF MUL NOT AND SWAP1 DUP4 PUSH20 0xFFFFFFFFFFFFFFFFFFFFFFFFFFFFFFFFFFFFFFFF AND MUL OR SWAP1 SSTORE POP PUSH1 0x0 PUSH1 0x13 PUSH1 0x14 PUSH2 0x100 EXP DUP2 SLOAD DUP2 PUSH1 0xFF MUL NOT AND SWAP1 DUP4 ISZERO ISZERO MUL OR SWAP1 SSTORE POP PUSH1 0x1 PUSH1 0x13 PUSH1 0x15 PUSH2 0x100 EXP DUP2 SLOAD DUP2 PUSH1 0xFF MUL NOT AND SWAP1 DUP4 ISZERO ISZERO MUL OR SWAP1 SSTORE POP CALLVALUE DUP1 ISZERO PUSH3 0x150 JUMPI PUSH1 0x0 DUP1 REVERT JUMPDEST POP PUSH1 0x0 PUSH3 0x163 PUSH3 0x53E PUSH1 0x20 SHL PUSH1 0x20 SHR JUMP JUMPDEST SWAP1 POP DUP1 PUSH1 0x0 DUP1 PUSH2 0x100 EXP DUP2 SLOAD DUP2 PUSH20 0xFFFFFFFFFFFFFFFFFFFFFFFFFFFFFFFFFFFFFFFF MUL NOT AND SWAP1 DUP4 PUSH20 0xFFFFFFFFFFFFFFFFFFFFFFFFFFFFFFFFFFFFFFFF AND MUL OR SWAP1 SSTORE POP DUP1 PUSH20 0xFFFFFFFFFFFFFFFFFFFFFFFFFFFFFFFFFFFFFFFF AND PUSH1 0x0 PUSH20 0xFFFFFFFFFFFFFFFFFFFFFFFFFFFFFFFFFFFFFFFF AND PUSH32 0x8BE0079C531659141344CD1FD0A4F28419497F9722A3DAAFE3B4186F6B6457E0 PUSH1 0x40 MLOAD PUSH1 0x40 MLOAD DUP1 SWAP2 SUB SWAP1 LOG3 POP PUSH1 0x6 SLOAD PUSH1 0x2 PUSH1 0x0 PUSH3 0x218 PUSH3 0x53E PUSH1 0x20 SHL PUSH1 0x20 SHR JUMP JUMPDEST PUSH20 0xFFFFFFFFFFFFFFFFFFFFFFFFFFFFFFFFFFFFFFFF AND PUSH20 0xFFFFFFFFFFFFFFFFFFFFFFFFFFFFFFFFFFFFFFFF AND DUP2 MSTORE PUSH1 0x20 ADD SWAP1 DUP2 MSTORE PUSH1 0x20 ADD PUSH1 0x0 KECCAK256 DUP2 SWAP1 SSTORE POP PUSH1 0x0 PUSH20 0x10ED43C718714EB63D5AA57B78B54704E256024E SWAP1 POP DUP1 PUSH1 0x10 PUSH1 0x0 PUSH2 0x100 EXP DUP2 SLOAD DUP2 PUSH20 0xFFFFFFFFFFFFFFFFFFFFFFFFFFFFFFFFFFFFFFFF MUL NOT AND SWAP1 DUP4 PUSH20 0xFFFFFFFFFFFFFFFFFFFFFFFFFFFFFFFFFFFFFFFF AND MUL OR SWAP1 SSTORE POP PUSH20 0xCA143CE32FE78F1F7019D7D551A6402FC5350C73 PUSH1 0x11 PUSH1 0x0 PUSH2 0x100 EXP DUP2 SLOAD DUP2 PUSH20 0xFFFFFFFFFFFFFFFFFFFFFFFFFFFFFFFFFFFFFFFF MUL NOT AND SWAP1 DUP4 PUSH20 0xFFFFFFFFFFFFFFFFFFFFFFFFFFFFFFFFFFFFFFFF AND MUL OR SWAP1 SSTORE POP PUSH1 0x1 PUSH1 0x5 PUSH1 0x0 PUSH3 0x31B PUSH3 0x546 PUSH1 0x20 SHL PUSH1 0x20 SHR JUMP JUMPDEST PUSH20 0xFFFFFFFFFFFFFFFFFFFFFFFFFFFFFFFFFFFFFFFF AND PUSH20 0xFFFFFFFFFFFFFFFFFFFFFFFFFFFFFFFFFFFFFFFF AND DUP2 MSTORE PUSH1 0x20 ADD SWAP1 DUP2 MSTORE PUSH1 0x20 ADD PUSH1 0x0 KECCAK256 PUSH1 0x0 PUSH2 0x100 EXP DUP2 SLOAD DUP2 PUSH1 0xFF MUL NOT AND SWAP1 DUP4 ISZERO ISZERO MUL OR SWAP1 SSTORE POP PUSH1 0x1 PUSH1 0x5 PUSH1 0x0 ADDRESS PUSH20 0xFFFFFFFFFFFFFFFFFFFFFFFFFFFFFFFFFFFFFFFF AND PUSH20 0xFFFFFFFFFFFFFFFFFFFFFFFFFFFFFFFFFFFFFFFF AND DUP2 MSTORE PUSH1 0x20 ADD SWAP1 DUP2 MSTORE PUSH1 0x20 ADD PUSH1 0x0 KECCAK256 PUSH1 0x0 PUSH2 0x100 EXP DUP2 SLOAD DUP2 PUSH1 0xFF MUL NOT AND SWAP1 DUP4 ISZERO ISZERO MUL OR SWAP1 SSTORE POP PUSH1 0x1 PUSH1 0x5 PUSH1 0x0 PUSH1 0xE PUSH1 0x1 SWAP1 SLOAD SWAP1 PUSH2 0x100 EXP SWAP1 DIV PUSH20 0xFFFFFFFFFFFFFFFFFFFFFFFFFFFFFFFFFFFFFFFF AND PUSH20 0xFFFFFFFFFFFFFFFFFFFFFFFFFFFFFFFFFFFFFFFF AND PUSH20 0xFFFFFFFFFFFFFFFFFFFFFFFFFFFFFFFFFFFFFFFF AND DUP2 MSTORE PUSH1 0x20 ADD SWAP1 DUP2 MSTORE PUSH1 0x20 ADD PUSH1 0x0 KECCAK256 PUSH1 0x0 PUSH2 0x100 EXP DUP2 SLOAD DUP2 PUSH1 0xFF MUL NOT AND SWAP1 DUP4 ISZERO ISZERO MUL OR SWAP1 SSTORE POP PUSH1 0x1 PUSH1 0x5 PUSH1 0x0 PUSH1 0xF PUSH1 0x0 SWAP1 SLOAD SWAP1 PUSH2 0x100 EXP SWAP1 DIV PUSH20 0xFFFFFFFFFFFFFFFFFFFFFFFFFFFFFFFFFFFFFFFF AND PUSH20 0xFFFFFFFFFFFFFFFFFFFFFFFFFFFFFFFFFFFFFFFF AND PUSH20 0xFFFFFFFFFFFFFFFFFFFFFFFFFFFFFFFFFFFFFFFF AND DUP2 MSTORE PUSH1 0x20 ADD SWAP1 DUP2 MSTORE PUSH1 0x20 ADD PUSH1 0x0 KECCAK256 PUSH1 0x0 PUSH2 0x100 EXP DUP2 SLOAD DUP2 PUSH1 0xFF MUL NOT AND SWAP1 DUP4 ISZERO ISZERO MUL OR SWAP1 SSTORE POP PUSH3 0x4C8 PUSH3 0x53E PUSH1 0x20 SHL PUSH1 0x20 SHR JUMP JUMPDEST PUSH20 0xFFFFFFFFFFFFFFFFFFFFFFFFFFFFFFFFFFFFFFFF AND PUSH1 0x0 PUSH20 0xFFFFFFFFFFFFFFFFFFFFFFFFFFFFFFFFFFFFFFFF AND PUSH32 0xDDF252AD1BE2C89B69C2B068FC378DAA952BA7F163C4A11628F55A4DF523B3EF PUSH8 0xDE0B6B3A7640000 PUSH1 0x40 MLOAD PUSH3 0x52F SWAP2 SWAP1 PUSH3 0x65B JUMP JUMPDEST PUSH1 0x40 MLOAD DUP1 SWAP2 SUB SWAP1 LOG3 POP PUSH3 0x678 JUMP JUMPDEST PUSH1 0x0 CALLER SWAP1 POP SWAP1 JUMP JUMPDEST PUSH1 0x0 DUP1 PUSH1 0x0 SWAP1 SLOAD SWAP1 PUSH2 0x100 EXP SWAP1 DIV PUSH20 0xFFFFFFFFFFFFFFFFFFFFFFFFFFFFFFFFFFFFFFFF AND SWAP1 POP SWAP1 JUMP JUMPDEST PUSH1 0x0 DUP2 SWAP1 POP SWAP2 SWAP1 POP JUMP JUMPDEST PUSH32 0x4E487B7100000000000000000000000000000000000000000000000000000000 PUSH1 0x0 MSTORE PUSH1 0x12 PUSH1 0x4 MSTORE PUSH1 0x24 PUSH1 0x0 REVERT JUMPDEST PUSH1 0x0 PUSH3 0x5B5 DUP3 PUSH3 0x56F JUMP JUMPDEST SWAP2 POP PUSH3 0x5C2 DUP4 PUSH3 0x56F JUMP JUMPDEST SWAP3 POP DUP3 PUSH3 0x5D5 JUMPI PUSH3 0x5D4 PUSH3 0x579 JUMP JUMPDEST JUMPDEST DUP3 DUP3 MOD SWAP1 POP SWAP3 SWAP2 POP POP JUMP JUMPDEST PUSH32 0x4E487B7100000000000000000000000000000000000000000000000000000000 PUSH1 0x0 MSTORE PUSH1 0x11 PUSH1 0x4 MSTORE PUSH1 0x24 PUSH1 0x0 REVERT JUMPDEST PUSH1 0x0 PUSH3 0x61C DUP3 PUSH3 0x56F JUMP JUMPDEST SWAP2 POP PUSH3 0x629 DUP4 PUSH3 0x56F JUMP JUMPDEST SWAP3 POP DUP3 DUP3 LT ISZERO PUSH3 0x63F JUMPI PUSH3 0x63E PUSH3 0x5E0 JUMP JUMPDEST JUMPDEST DUP3 DUP3 SUB SWAP1 POP SWAP3 SWAP2 POP POP JUMP JUMPDEST PUSH3 0x655 DUP2 PUSH3 0x56F JUMP JUMPDEST DUP3 MSTORE POP POP JUMP JUMPDEST PUSH1 0x0 PUSH1 0x20 DUP3 ADD SWAP1 POP PUSH3 0x672 PUSH1 0x0 DUP4 ADD DUP5 PUSH3 0x64A JUMP JUMPDEST SWAP3 SWAP2 POP POP JUMP JUMPDEST PUSH2 0x3CE7 DUP1 PUSH3 0x688 PUSH1 0x0 CODECOPY PUSH1 0x0 RETURN INVALID PUSH1 0x80 PUSH1 0x40 MSTORE PUSH1 0x4 CALLDATASIZE LT PUSH2 0x16A JUMPI PUSH1 0x0 CALLDATALOAD PUSH1 0xE0 SHR DUP1 PUSH4 0x758DBE03 GT PUSH2 0xD1 JUMPI DUP1 PUSH4 0xC3C8CD80 GT PUSH2 0x8A JUMPI DUP1 PUSH4 0xCE4224C5 GT PUSH2 0x64 JUMPI DUP1 PUSH4 0xCE4224C5 EQ PUSH2 0x4FF JUMPI DUP1 PUSH4 0xDD62ED3E EQ PUSH2 0x528 JUMPI DUP1 PUSH4 0xE293D316 EQ PUSH2 0x565 JUMPI DUP1 PUSH4 0xF2FDE38B EQ PUSH2 0x58E JUMPI PUSH2 0x171 JUMP JUMPDEST DUP1 PUSH4 0xC3C8CD80 EQ PUSH2 0x494 JUMPI DUP1 PUSH4 0xC492F046 EQ PUSH2 0x4AB JUMPI DUP1 PUSH4 0xC5CC6B6A EQ PUSH2 0x4D4 JUMPI PUSH2 0x171 JUMP JUMPDEST DUP1 PUSH4 0x758DBE03 EQ PUSH2 0x386 JUMPI DUP1 PUSH4 0x8DA5CB5B EQ PUSH2 0x3AF JUMPI DUP1 PUSH4 0x95D89B41 EQ PUSH2 0x3DA JUMPI DUP1 PUSH4 0xA2A957BB EQ PUSH2 0x405 JUMPI DUP1 PUSH4 0xA9059CBB EQ PUSH2 0x42E JUMPI DUP1 PUSH4 0xAAD5C023 EQ PUSH2 0x46B JUMPI PUSH2 0x171 JUMP JUMPDEST DUP1 PUSH4 0x49BD5A5E GT PUSH2 0x123 JUMPI DUP1 PUSH4 0x49BD5A5E EQ PUSH2 0x29C JUMPI DUP1 PUSH4 0x59D0F713 EQ PUSH2 0x2C7 JUMPI DUP1 PUSH4 0x6D8AA8F8 EQ PUSH2 0x2F2 JUMPI DUP1 PUSH4 0x6FC3EAEC EQ PUSH2 0x31B JUMPI DUP1 PUSH4 0x70A08231 EQ PUSH2 0x332 JUMPI DUP1 PUSH4 0x715018A6 EQ PUSH2 0x36F JUMPI PUSH2 0x171 JUMP JUMPDEST DUP1 PUSH4 0x6FDDE03 EQ PUSH2 0x176 JUMPI DUP1 PUSH4 0x95EA7B3 EQ PUSH2 0x1A1 JUMPI DUP1 PUSH4 0x1694505E EQ PUSH2 0x1DE JUMPI DUP1 PUSH4 0x18160DDD EQ PUSH2 0x209 JUMPI DUP1 PUSH4 0x23B872DD EQ PUSH2 0x234 JUMPI DUP1 PUSH4 0x313CE567 EQ PUSH2 0x271 JUMPI PUSH2 0x171 JUMP JUMPDEST CALLDATASIZE PUSH2 0x171 JUMPI STOP JUMPDEST PUSH1 0x0 DUP1 REVERT JUMPDEST CALLVALUE DUP1 ISZERO PUSH2 0x182 JUMPI PUSH1 0x0 DUP1 REVERT JUMPDEST POP PUSH2 0x18B PUSH2 0x5B7 JUMP JUMPDEST PUSH1 0x40 MLOAD PUSH2 0x198 SWAP2 SWAP1 PUSH2 0x2C9A JUMP JUMPDEST PUSH1 0x40 MLOAD DUP1 SWAP2 SUB SWAP1 RETURN JUMPDEST CALLVALUE DUP1 ISZERO PUSH2 0x1AD JUMPI PUSH1 0x0 DUP1 REVERT JUMPDEST POP PUSH2 0x1C8 PUSH1 0x4 DUP1 CALLDATASIZE SUB DUP2 ADD SWAP1 PUSH2 0x1C3 SWAP2 SWAP1 PUSH2 0x2D5A JUMP JUMPDEST PUSH2 0x5F4 JUMP JUMPDEST PUSH1 0x40 MLOAD PUSH2 0x1D5 SWAP2 SWAP1 PUSH2 0x2DB5 JUMP JUMPDEST PUSH1 0x40 MLOAD DUP1 SWAP2 SUB SWAP1 RETURN JUMPDEST CALLVALUE DUP1 ISZERO PUSH2 0x1EA JUMPI PUSH1 0x0 DUP1 REVERT JUMPDEST POP PUSH2 0x1F3 PUSH2 0x612 JUMP JUMPDEST PUSH1 0x40 MLOAD PUSH2 0x200 SWAP2 SWAP1 PUSH2 0x2E2F JUMP JUMPDEST PUSH1 0x40 MLOAD DUP1 SWAP2 SUB SWAP1 RETURN JUMPDEST CALLVALUE DUP1 ISZERO PUSH2 0x215 JUMPI PUSH1 0x0 DUP1 REVERT JUMPDEST POP PUSH2 0x21E PUSH2 0x638 JUMP JUMPDEST PUSH1 0x40 MLOAD PUSH2 0x22B SWAP2 SWAP1 PUSH2 0x2E59 JUMP JUMPDEST PUSH1 0x40 MLOAD DUP1 SWAP2 SUB SWAP1 RETURN JUMPDEST CALLVALUE DUP1 ISZERO PUSH2 0x240 JUMPI PUSH1 0x0 DUP1 REVERT JUMPDEST POP PUSH2 0x25B PUSH1 0x4 DUP1 CALLDATASIZE SUB DUP2 ADD SWAP1 PUSH2 0x256 SWAP2 SWAP1 PUSH2 0x2E74 JUMP JUMPDEST PUSH2 0x648 JUMP JUMPDEST PUSH1 0x40 MLOAD PUSH2 0x268 SWAP2 SWAP1 PUSH2 0x2DB5 JUMP JUMPDEST PUSH1 0x40 MLOAD DUP1 SWAP2 SUB SWAP1 RETURN JUMPDEST CALLVALUE DUP1 ISZERO PUSH2 0x27D JUMPI PUSH1 0x0 DUP1 REVERT JUMPDEST POP PUSH2 0x286 PUSH2 0x721 JUMP JUMPDEST PUSH1 0x40 MLOAD PUSH2 0x293 SWAP2 SWAP1 PUSH2 0x2EE3 JUMP JUMPDEST PUSH1 0x40 MLOAD DUP1 SWAP2 SUB SWAP1 RETURN JUMPDEST CALLVALUE DUP1 ISZERO PUSH2 0x2A8 JUMPI PUSH1 0x0 DUP1 REVERT JUMPDEST POP PUSH2 0x2B1 PUSH2 0x72A JUMP JUMPDEST PUSH1 0x40 MLOAD PUSH2 0x2BE SWAP2 SWAP1 PUSH2 0x2F0D JUMP JUMPDEST PUSH1 0x40 MLOAD DUP1 SWAP2 SUB SWAP1 RETURN JUMPDEST CALLVALUE DUP1 ISZERO PUSH2 0x2D3 JUMPI PUSH1 0x0 DUP1 REVERT JUMPDEST POP PUSH2 0x2DC PUSH2 0x750 JUMP JUMPDEST PUSH1 0x40 MLOAD PUSH2 0x2E9 SWAP2 SWAP1 PUSH2 0x2F49 JUMP JUMPDEST PUSH1 0x40 MLOAD DUP1 SWAP2 SUB SWAP1 RETURN JUMPDEST CALLVALUE DUP1 ISZERO PUSH2 0x2FE JUMPI PUSH1 0x0 DUP1 REVERT JUMPDEST POP PUSH2 0x319 PUSH1 0x4 DUP1 CALLDATASIZE SUB DUP2 ADD SWAP1 PUSH2 0x314 SWAP2 SWAP1 PUSH2 0x2F90 JUMP JUMPDEST PUSH2 0x776 JUMP JUMPDEST STOP JUMPDEST CALLVALUE DUP1 ISZERO PUSH2 0x327 JUMPI PUSH1 0x0 DUP1 REVERT JUMPDEST POP PUSH2 0x330 PUSH2 0x86E JUMP JUMPDEST STOP JUMPDEST CALLVALUE DUP1 ISZERO PUSH2 0x33E JUMPI PUSH1 0x0 DUP1 REVERT JUMPDEST POP PUSH2 0x359 PUSH1 0x4 DUP1 CALLDATASIZE SUB DUP2 ADD SWAP1 PUSH2 0x354 SWAP2 SWAP1 PUSH2 0x2FBD JUMP JUMPDEST PUSH2 0x983 JUMP JUMPDEST PUSH1 0x40 MLOAD PUSH2 0x366 SWAP2 SWAP1 PUSH2 0x2E59 JUMP JUMPDEST PUSH1 0x40 MLOAD DUP1 SWAP2 SUB SWAP1 RETURN JUMPDEST CALLVALUE DUP1 ISZERO PUSH2 0x37B JUMPI PUSH1 0x0 DUP1 REVERT JUMPDEST POP PUSH2 0x384 PUSH2 0x9D4 JUMP JUMPDEST STOP JUMPDEST CALLVALUE DUP1 ISZERO PUSH2 0x392 JUMPI PUSH1 0x0 DUP1 REVERT JUMPDEST POP PUSH2 0x3AD PUSH1 0x4 DUP1 CALLDATASIZE SUB DUP2 ADD SWAP1 PUSH2 0x3A8 SWAP2 SWAP1 PUSH2 0x3028 JUMP JUMPDEST PUSH2 0xB27 JUMP JUMPDEST STOP JUMPDEST CALLVALUE DUP1 ISZERO PUSH2 0x3BB JUMPI PUSH1 0x0 DUP1 REVERT JUMPDEST POP PUSH2 0x3C4 PUSH2 0xD3C JUMP JUMPDEST PUSH1 0x40 MLOAD PUSH2 0x3D1 SWAP2 SWAP1 PUSH2 0x2F0D JUMP JUMPDEST PUSH1 0x40 MLOAD DUP1 SWAP2 SUB SWAP1 RETURN JUMPDEST CALLVALUE DUP1 ISZERO PUSH2 0x3E6 JUMPI PUSH1 0x0 DUP1 REVERT JUMPDEST POP PUSH2 0x3EF PUSH2 0xD65 JUMP JUMPDEST PUSH1 0x40 MLOAD PUSH2 0x3FC SWAP2 SWAP1 PUSH2 0x2C9A JUMP JUMPDEST PUSH1 0x40 MLOAD DUP1 SWAP2 SUB SWAP1 RETURN JUMPDEST CALLVALUE DUP1 ISZERO PUSH2 0x411 JUMPI PUSH1 0x0 DUP1 REVERT JUMPDEST POP PUSH2 0x42C PUSH1 0x4 DUP1 CALLDATASIZE SUB DUP2 ADD SWAP1 PUSH2 0x427 SWAP2 SWAP1 PUSH2 0x3055 JUMP JUMPDEST PUSH2 0xDA2 JUMP JUMPDEST STOP JUMPDEST CALLVALUE DUP1 ISZERO PUSH2 0x43A JUMPI PUSH1 0x0 DUP1 REVERT JUMPDEST POP PUSH2 0x455 PUSH1 0x4 DUP1 CALLDATASIZE SUB DUP2 ADD SWAP1 PUSH2 0x450 SWAP2 SWAP1 PUSH2 0x2D5A JUMP JUMPDEST PUSH2 0xFAB JUMP JUMPDEST PUSH1 0x40 MLOAD PUSH2 0x462 SWAP2 SWAP1 PUSH2 0x2DB5 JUMP JUMPDEST PUSH1 0x40 MLOAD DUP1 SWAP2 SUB SWAP1 RETURN JUMPDEST CALLVALUE DUP1 ISZERO PUSH2 0x477 JUMPI PUSH1 0x0 DUP1 REVERT JUMPDEST POP PUSH2 0x492 PUSH1 0x4 DUP1 CALLDATASIZE SUB DUP2 ADD SWAP1 PUSH2 0x48D SWAP2 SWAP1 PUSH2 0x3028 JUMP JUMPDEST PUSH2 0xFC9 JUMP JUMPDEST STOP JUMPDEST CALLVALUE DUP1 ISZERO PUSH2 0x4A0 JUMPI PUSH1 0x0 DUP1 REVERT JUMPDEST POP PUSH2 0x4A9 PUSH2 0x11DE JUMP JUMPDEST STOP JUMPDEST CALLVALUE DUP1 ISZERO PUSH2 0x4B7 JUMPI PUSH1 0x0 DUP1 REVERT JUMPDEST POP PUSH2 0x4D2 PUSH1 0x4 DUP1 CALLDATASIZE SUB DUP2 ADD SWAP1 PUSH2 0x4CD SWAP2 SWAP1 PUSH2 0x3121 JUMP JUMPDEST PUSH2 0x12FB JUMP JUMPDEST STOP JUMPDEST CALLVALUE DUP1 ISZERO PUSH2 0x4E0 JUMPI PUSH1 0x0 DUP1 REVERT JUMPDEST POP PUSH2 0x4E9 PUSH2 0x1435 JUMP JUMPDEST PUSH1 0x40 MLOAD PUSH2 0x4F6 SWAP2 SWAP1 PUSH2 0x2F0D JUMP JUMPDEST PUSH1 0x40 MLOAD DUP1 SWAP2 SUB SWAP1 RETURN JUMPDEST CALLVALUE DUP1 ISZERO PUSH2 0x50B JUMPI PUSH1 0x0 DUP1 REVERT JUMPDEST POP PUSH2 0x526 PUSH1 0x4 DUP1 CALLDATASIZE SUB DUP2 ADD SWAP1 PUSH2 0x521 SWAP2 SWAP1 PUSH2 0x2FBD JUMP JUMPDEST PUSH2 0x145B JUMP JUMPDEST STOP JUMPDEST CALLVALUE DUP1 ISZERO PUSH2 0x534 JUMPI PUSH1 0x0 DUP1 REVERT JUMPDEST POP PUSH2 0x54F PUSH1 0x4 DUP1 CALLDATASIZE SUB DUP2 ADD SWAP1 PUSH2 0x54A SWAP2 SWAP1 PUSH2 0x3181 JUMP JUMPDEST PUSH2 0x1629 JUMP JUMPDEST PUSH1 0x40 MLOAD PUSH2 0x55C SWAP2 SWAP1 PUSH2 0x2E59 JUMP JUMPDEST PUSH1 0x40 MLOAD DUP1 SWAP2 SUB SWAP1 RETURN JUMPDEST CALLVALUE DUP1 ISZERO PUSH2 0x571 JUMPI PUSH1 0x0 DUP1 REVERT JUMPDEST POP PUSH2 0x58C PUSH1 0x4 DUP1 CALLDATASIZE SUB DUP2 ADD SWAP1 PUSH2 0x587 SWAP2 SWAP1 PUSH2 0x2E74 JUMP JUMPDEST PUSH2 0x16B0 JUMP JUMPDEST STOP JUMPDEST CALLVALUE DUP1 ISZERO PUSH2 0x59A JUMPI PUSH1 0x0 DUP1 REVERT JUMPDEST POP PUSH2 0x5B5 PUSH1 0x4 DUP1 CALLDATASIZE SUB DUP2 ADD SWAP1 PUSH2 0x5B0 SWAP2 SWAP1 PUSH2 0x2FBD JUMP JUMPDEST PUSH2 0x1874 JUMP JUMPDEST STOP JUMPDEST PUSH1 0x60 PUSH1 0x40 MLOAD DUP1 PUSH1 0x40 ADD PUSH1 0x40 MSTORE DUP1 PUSH1 0xA DUP2 MSTORE PUSH1 0x20 ADD PUSH32 0x576F726C64205374657000000000000000000000000000000000000000000000 DUP2 MSTORE POP SWAP1 POP SWAP1 JUMP JUMPDEST PUSH1 0x0 PUSH2 0x608 PUSH2 0x601 PUSH2 0x19C6 JUMP JUMPDEST DUP5 DUP5 PUSH2 0x19CE JUMP JUMPDEST PUSH1 0x1 SWAP1 POP SWAP3 SWAP2 POP POP JUMP JUMPDEST PUSH1 0x10 PUSH1 0x0 SWAP1 SLOAD SWAP1 PUSH2 0x100 EXP SWAP1 DIV PUSH20 0xFFFFFFFFFFFFFFFFFFFFFFFFFFFFFFFFFFFFFFFF AND DUP2 JUMP JUMPDEST PUSH1 0x0 PUSH8 0xDE0B6B3A7640000 SWAP1 POP SWAP1 JUMP JUMPDEST PUSH1 0x0 PUSH2 0x655 DUP5 DUP5 DUP5 PUSH2 0x1B97 JUMP JUMPDEST PUSH2 0x716 DUP5 PUSH2 0x661 PUSH2 0x19C6 JUMP JUMPDEST PUSH2 0x711 DUP6 PUSH1 0x40 MLOAD DUP1 PUSH1 0x60 ADD PUSH1 0x40 MSTORE DUP1 PUSH1 0x28 DUP2 MSTORE PUSH1 0x20 ADD PUSH2 0x3C8A PUSH1 0x28 SWAP2 CODECOPY PUSH1 0x4 PUSH1 0x0 DUP12 PUSH20 0xFFFFFFFFFFFFFFFFFFFFFFFFFFFFFFFFFFFFFFFF AND PUSH20 0xFFFFFFFFFFFFFFFFFFFFFFFFFFFFFFFFFFFFFFFF AND DUP2 MSTORE PUSH1 0x20 ADD SWAP1 DUP2 MSTORE PUSH1 0x20 ADD PUSH1 0x0 KECCAK256 PUSH1 0x0 PUSH2 0x6C7 PUSH2 0x19C6 JUMP JUMPDEST PUSH20 0xFFFFFFFFFFFFFFFFFFFFFFFFFFFFFFFFFFFFFFFF AND PUSH20 0xFFFFFFFFFFFFFFFFFFFFFFFFFFFFFFFFFFFFFFFF AND DUP2 MSTORE PUSH1 0x20 ADD SWAP1 DUP2 MSTORE PUSH1 0x20 ADD PUSH1 0x0 KECCAK256 SLOAD PUSH2 0x2109 SWAP1 SWAP3 SWAP2 SWAP1 PUSH4 0xFFFFFFFF AND JUMP JUMPDEST PUSH2 0x19CE JUMP JUMPDEST PUSH1 0x1 SWAP1 POP SWAP4 SWAP3 POP POP POP JUMP JUMPDEST PUSH1 0x0 PUSH1 0x9 SWAP1 POP SWAP1 JUMP JUMPDEST PUSH1 0x13 PUSH1 0x0 SWAP1 SLOAD SWAP1 PUSH2 0x100 EXP SWAP1 DIV PUSH20 0xFFFFFFFFFFFFFFFFFFFFFFFFFFFFFFFFFFFFFFFF AND DUP2 JUMP JUMPDEST PUSH1 0x11 PUSH1 0x0 SWAP1 SLOAD SWAP1 PUSH2 0x100 EXP SWAP1 DIV PUSH20 0xFFFFFFFFFFFFFFFFFFFFFFFFFFFFFFFFFFFFFFFF AND DUP2 JUMP JUMPDEST PUSH2 0x77E PUSH2 0x19C6 JUMP JUMPDEST PUSH20 0xFFFFFFFFFFFFFFFFFFFFFFFFFFFFFFFFFFFFFFFF AND PUSH2 0x79C PUSH2 0xD3C JUMP JUMPDEST PUSH20 0xFFFFFFFFFFFFFFFFFFFFFFFFFFFFFFFFFFFFFFFF AND EQ DUP1 PUSH2 0x812 JUMPI POP PUSH2 0x7C1 PUSH2 0x19C6 JUMP JUMPDEST PUSH20 0xFFFFFFFFFFFFFFFFFFFFFFFFFFFFFFFFFFFFFFFF AND PUSH1 0xE PUSH1 0x1 SWAP1 SLOAD SWAP1 PUSH2 0x100 EXP SWAP1 DIV PUSH20 0xFFFFFFFFFFFFFFFFFFFFFFFFFFFFFFFFFFFFFFFF AND PUSH20 0xFFFFFFFFFFFFFFFFFFFFFFFFFFFFFFFFFFFFFFFF AND EQ JUMPDEST PUSH2 0x851 JUMPI PUSH1 0x40 MLOAD PUSH32 0x8C379A000000000000000000000000000000000000000000000000000000000 DUP2 MSTORE PUSH1 0x4 ADD PUSH2 0x848 SWAP1 PUSH2 0x320D JUMP JUMPDEST PUSH1 0x40 MLOAD DUP1 SWAP2 SUB SWAP1 REVERT JUMPDEST DUP1 PUSH1 0x13 PUSH1 0x15 PUSH2 0x100 EXP DUP2 SLOAD DUP2 PUSH1 0xFF MUL NOT AND SWAP1 DUP4 ISZERO ISZERO MUL OR SWAP1 SSTORE POP POP JUMP JUMPDEST PUSH1 0xE PUSH1 0x1 SWAP1 SLOAD SWAP1 PUSH2 0x100 EXP SWAP1 DIV PUSH20 0xFFFFFFFFFFFFFFFFFFFFFFFFFFFFFFFFFFFFFFFF AND PUSH20 0xFFFFFFFFFFFFFFFFFFFFFFFFFFFFFFFFFFFFFFFF AND PUSH2 0x8AF PUSH2 0x19C6 JUMP JUMPDEST PUSH20 0xFFFFFFFFFFFFFFFFFFFFFFFFFFFFFFFFFFFFFFFF AND EQ DUP1 PUSH2 0x925 JUMPI POP PUSH1 0xF PUSH1 0x0 SWAP1 SLOAD SWAP1 PUSH2 0x100 EXP SWAP1 DIV PUSH20 0xFFFFFFFFFFFFFFFFFFFFFFFFFFFFFFFFFFFFFFFF AND PUSH20 0xFFFFFFFFFFFFFFFFFFFFFFFFFFFFFFFFFFFFFFFF AND PUSH2 0x90D PUSH2 0x19C6 JUMP JUMPDEST PUSH20 0xFFFFFFFFFFFFFFFFFFFFFFFFFFFFFFFFFFFFFFFF AND EQ JUMPDEST DUP1 PUSH2 0x969 JUMPI POP PUSH2 0x933 PUSH2 0xD3C JUMP JUMPDEST PUSH20 0xFFFFFFFFFFFFFFFFFFFFFFFFFFFFFFFFFFFFFFFF AND PUSH2 0x951 PUSH2 0x19C6 JUMP JUMPDEST PUSH20 0xFFFFFFFFFFFFFFFFFFFFFFFFFFFFFFFFFFFFFFFF AND EQ JUMPDEST PUSH2 0x972 JUMPI PUSH1 0x0 DUP1 REVERT JUMPDEST PUSH1 0x0 SELFBALANCE SWAP1 POP PUSH2 0x980 DUP2 PUSH2 0x216D JUMP JUMPDEST POP JUMP JUMPDEST PUSH1 0x0 PUSH2 0x9CD PUSH1 0x2 PUSH1 0x0 DUP5 PUSH20 0xFFFFFFFFFFFFFFFFFFFFFFFFFFFFFFFFFFFFFFFF AND PUSH20 0xFFFFFFFFFFFFFFFFFFFFFFFFFFFFFFFFFFFFFFFF AND DUP2 MSTORE PUSH1 0x20 ADD SWAP1 DUP2 MSTORE PUSH1 0x20 ADD PUSH1 0x0 KECCAK256 SLOAD PUSH2 0x2268 JUMP JUMPDEST SWAP1 POP SWAP2 SWAP1 POP JUMP JUMPDEST PUSH2 0x9DC PUSH2 0x19C6 JUMP JUMPDEST PUSH20 0xFFFFFFFFFFFFFFFFFFFFFFFFFFFFFFFFFFFFFFFF AND PUSH1 0x0 DUP1 SLOAD SWAP1 PUSH2 0x100 EXP SWAP1 DIV PUSH20 0xFFFFFFFFFFFFFFFFFFFFFFFFFFFFFFFFFFFFFFFF AND PUSH20 0xFFFFFFFFFFFFFFFFFFFFFFFFFFFFFFFFFFFFFFFF AND EQ PUSH2 0xA69 JUMPI PUSH1 0x40 MLOAD PUSH32 0x8C379A000000000000000000000000000000000000000000000000000000000 DUP2 MSTORE PUSH1 0x4 ADD PUSH2 0xA60 SWAP1 PUSH2 0x3279 JUMP JUMPDEST PUSH1 0x40 MLOAD DUP1 SWAP2 SUB SWAP1 REVERT JUMPDEST PUSH1 0x0 PUSH20 0xFFFFFFFFFFFFFFFFFFFFFFFFFFFFFFFFFFFFFFFF AND PUSH1 0x0 DUP1 SLOAD SWAP1 PUSH2 0x100 EXP SWAP1 DIV PUSH20 0xFFFFFFFFFFFFFFFFFFFFFFFFFFFFFFFFFFFFFFFF AND PUSH20 0xFFFFFFFFFFFFFFFFFFFFFFFFFFFFFFFFFFFFFFFF AND PUSH32 0x8BE0079C531659141344CD1FD0A4F28419497F9722A3DAAFE3B4186F6B6457E0 PUSH1 0x40 MLOAD PUSH1 0x40 MLOAD DUP1 SWAP2 SUB SWAP1 LOG3 PUSH1 0x0 DUP1 PUSH1 0x0 PUSH2 0x100 EXP DUP2 SLOAD DUP2 PUSH20 0xFFFFFFFFFFFFFFFFFFFFFFFFFFFFFFFFFFFFFFFF MUL NOT AND SWAP1 DUP4 PUSH20 0xFFFFFFFFFFFFFFFFFFFFFFFFFFFFFFFFFFFFFFFF AND MUL OR SWAP1 SSTORE POP JUMP JUMPDEST PUSH2 0xB2F PUSH2 0x19C6 JUMP JUMPDEST PUSH20 0xFFFFFFFFFFFFFFFFFFFFFFFFFFFFFFFFFFFFFFFF AND PUSH2 0xB4D PUSH2 0xD3C JUMP JUMPDEST PUSH20 0xFFFFFFFFFFFFFFFFFFFFFFFFFFFFFFFFFFFFFFFF AND EQ DUP1 PUSH2 0xBC3 JUMPI POP PUSH2 0xB72 PUSH2 0x19C6 JUMP JUMPDEST PUSH20 0xFFFFFFFFFFFFFFFFFFFFFFFFFFFFFFFFFFFFFFFF AND PUSH1 0xE PUSH1 0x1 SWAP1 SLOAD SWAP1 PUSH2 0x100 EXP SWAP1 DIV PUSH20 0xFFFFFFFFFFFFFFFFFFFFFFFFFFFFFFFFFFFFFFFF AND PUSH20 0xFFFFFFFFFFFFFFFFFFFFFFFFFFFFFFFFFFFFFFFF AND EQ JUMPDEST PUSH2 0xC02 JUMPI PUSH1 0x40 MLOAD PUSH32 0x8C379A000000000000000000000000000000000000000000000000000000000 DUP2 MSTORE PUSH1 0x4 ADD PUSH2 0xBF9 SWAP1 PUSH2 0x320D JUMP JUMPDEST PUSH1 0x40 MLOAD DUP1 SWAP2 SUB SWAP1 REVERT JUMPDEST DUP1 PUSH20 0xFFFFFFFFFFFFFFFFFFFFFFFFFFFFFFFFFFFFFFFF AND PUSH1 0xF PUSH1 0x0 SWAP1 SLOAD SWAP1 PUSH2 0x100 EXP SWAP1 DIV PUSH20 0xFFFFFFFFFFFFFFFFFFFFFFFFFFFFFFFFFFFFFFFF AND PUSH20 0xFFFFFFFFFFFFFFFFFFFFFFFFFFFFFFFFFFFFFFFF AND PUSH32 0xA64373A629BC0C09EACF8A9CC2C7B070FA0A8B7E2E9B8AAEE408A3C02EB1676B PUSH1 0x40 MLOAD PUSH1 0x40 MLOAD DUP1 SWAP2 SUB SWAP1 LOG3 DUP1 PUSH1 0xF PUSH1 0x0 PUSH2 0x100 EXP DUP2 SLOAD DUP2 PUSH20 0xFFFFFFFFFFFFFFFFFFFFFFFFFFFFFFFFFFFFFFFF MUL NOT AND SWAP1 DUP4 PUSH20 0xFFFFFFFFFFFFFFFFFFFFFFFFFFFFFFFFFFFFFFFF AND MUL OR SWAP1 SSTORE POP PUSH1 0x1 PUSH1 0x5 PUSH1 0x0 PUSH1 0xF PUSH1 0x0 SWAP1 SLOAD SWAP1 PUSH2 0x100 EXP SWAP1 DIV PUSH20 0xFFFFFFFFFFFFFFFFFFFFFFFFFFFFFFFFFFFFFFFF AND PUSH20 0xFFFFFFFFFFFFFFFFFFFFFFFFFFFFFFFFFFFFFFFF AND PUSH20 0xFFFFFFFFFFFFFFFFFFFFFFFFFFFFFFFFFFFFFFFF AND DUP2 MSTORE PUSH1 0x20 ADD SWAP1 DUP2 MSTORE PUSH1 0x20 ADD PUSH1 0x0 KECCAK256 PUSH1 0x0 PUSH2 0x100 EXP DUP2 SLOAD DUP2 PUSH1 0xFF MUL NOT AND SWAP1 DUP4 ISZERO ISZERO MUL OR SWAP1 SSTORE POP POP JUMP JUMPDEST PUSH1 0x0 DUP1 PUSH1 0x0 SWAP1 SLOAD SWAP1 PUSH2 0x100 EXP SWAP1 DIV PUSH20 0xFFFFFFFFFFFFFFFFFFFFFFFFFFFFFFFFFFFFFFFF AND SWAP1 POP SWAP1 JUMP JUMPDEST PUSH1 0x60 PUSH1 0x40 MLOAD DUP1 PUSH1 0x40 ADD PUSH1 0x40 MSTORE DUP1 PUSH1 0x3 DUP2 MSTORE PUSH1 0x20 ADD PUSH32 0x5753500000000000000000000000000000000000000000000000000000000000 DUP2 MSTORE POP SWAP1 POP SWAP1 JUMP JUMPDEST PUSH2 0xDAA PUSH2 0x19C6 JUMP JUMPDEST PUSH20 0xFFFFFFFFFFFFFFFFFFFFFFFFFFFFFFFFFFFFFFFF AND PUSH2 0xDC8 PUSH2 0xD3C JUMP JUMPDEST PUSH20 0xFFFFFFFFFFFFFFFFFFFFFFFFFFFFFFFFFFFFFFFF AND EQ DUP1 PUSH2 0xE3E JUMPI POP PUSH2 0xDED PUSH2 0x19C6 JUMP JUMPDEST PUSH20 0xFFFFFFFFFFFFFFFFFFFFFFFFFFFFFFFFFFFFFFFF AND PUSH1 0xE PUSH1 0x1 SWAP1 SLOAD SWAP1 PUSH2 0x100 EXP SWAP1 DIV PUSH20 0xFFFFFFFFFFFFFFFFFFFFFFFFFFFFFFFFFFFFFFFF AND PUSH20 0xFFFFFFFFFFFFFFFFFFFFFFFFFFFFFFFFFFFFFFFF AND EQ JUMPDEST PUSH2 0xE7D JUMPI PUSH1 0x40 MLOAD PUSH32 0x8C379A000000000000000000000000000000000000000000000000000000000 DUP2 MSTORE PUSH1 0x4 ADD PUSH2 0xE74 SWAP1 PUSH2 0x320D JUMP JUMPDEST PUSH1 0x40 MLOAD DUP1 SWAP2 SUB SWAP1 REVERT JUMPDEST PUSH1 0xB DUP5 LT PUSH2 0xEC0 JUMPI PUSH1 0x40 MLOAD PUSH32 0x8C379A000000000000000000000000000000000000000000000000000000000 DUP2 MSTORE PUSH1 0x4 ADD PUSH2 0xEB7 SWAP1 PUSH2 0x32E5 JUMP JUMPDEST PUSH1 0x40 MLOAD DUP1 SWAP2 SUB SWAP1 REVERT JUMPDEST PUSH1 0xB DUP4 LT PUSH2 0xF03 JUMPI PUSH1 0x40 MLOAD PUSH32 0x8C379A000000000000000000000000000000000000000000000000000000000 DUP2 MSTORE PUSH1 0x4 ADD PUSH2 0xEFA SWAP1 PUSH2 0x32E5 JUMP JUMPDEST PUSH1 0x40 MLOAD DUP1 SWAP2 SUB SWAP1 REVERT JUMPDEST PUSH1 0x7 DUP3 LT PUSH2 0xF46 JUMPI PUSH1 0x40 MLOAD PUSH32 0x8C379A000000000000000000000000000000000000000000000000000000000 DUP2 MSTORE PUSH1 0x4 ADD PUSH2 0xF3D SWAP1 PUSH2 0x3351 JUMP JUMPDEST PUSH1 0x40 MLOAD DUP1 SWAP2 SUB SWAP1 REVERT JUMPDEST PUSH1 0x7 DUP2 LT PUSH2 0xF89 JUMPI PUSH1 0x40 MLOAD PUSH32 0x8C379A000000000000000000000000000000000000000000000000000000000 DUP2 MSTORE PUSH1 0x4 ADD PUSH2 0xF80 SWAP1 PUSH2 0x3351 JUMP JUMPDEST PUSH1 0x40 MLOAD DUP1 SWAP2 SUB SWAP1 REVERT JUMPDEST DUP4 PUSH1 0x8 DUP2 SWAP1 SSTORE POP DUP3 PUSH1 0xA DUP2 SWAP1 SSTORE POP DUP2 PUSH1 0x9 DUP2 SWAP1 SSTORE POP DUP1 PUSH1 0xB DUP2 SWAP1 SSTORE POP POP POP POP POP JUMP JUMPDEST PUSH1 0x0 PUSH2 0xFBF PUSH2 0xFB8 PUSH2 0x19C6 JUMP JUMPDEST DUP5 DUP5 PUSH2 0x1B97 JUMP JUMPDEST PUSH1 0x1 SWAP1 POP SWAP3 SWAP2 POP POP JUMP JUMPDEST PUSH2 0xFD1 PUSH2 0x19C6 JUMP JUMPDEST PUSH20 0xFFFFFFFFFFFFFFFFFFFFFFFFFFFFFFFFFFFFFFFF AND PUSH2 0xFEF PUSH2 0xD3C JUMP JUMPDEST PUSH20 0xFFFFFFFFFFFFFFFFFFFFFFFFFFFFFFFFFFFFFFFF AND EQ DUP1 PUSH2 0x1065 JUMPI POP PUSH2 0x1014 PUSH2 0x19C6 JUMP JUMPDEST PUSH20 0xFFFFFFFFFFFFFFFFFFFFFFFFFFFFFFFFFFFFFFFF AND PUSH1 0xE PUSH1 0x1 SWAP1 SLOAD SWAP1 PUSH2 0x100 EXP SWAP1 DIV PUSH20 0xFFFFFFFFFFFFFFFFFFFFFFFFFFFFFFFFFFFFFFFF AND PUSH20 0xFFFFFFFFFFFFFFFFFFFFFFFFFFFFFFFFFFFFFFFF AND EQ JUMPDEST PUSH2 0x10A4 JUMPI PUSH1 0x40 MLOAD PUSH32 0x8C379A000000000000000000000000000000000000000000000000000000000 DUP2 MSTORE PUSH1 0x4 ADD PUSH2 0x109B SWAP1 PUSH2 0x320D JUMP JUMPDEST PUSH1 0x40 MLOAD DUP1 SWAP2 SUB SWAP1 REVERT JUMPDEST DUP1 PUSH20 0xFFFFFFFFFFFFFFFFFFFFFFFFFFFFFFFFFFFFFFFF AND PUSH1 0xE PUSH1 0x1 SWAP1 SLOAD SWAP1 PUSH2 0x100 EXP SWAP1 DIV PUSH20 0xFFFFFFFFFFFFFFFFFFFFFFFFFFFFFFFFFFFFFFFF AND PUSH20 0xFFFFFFFFFFFFFFFFFFFFFFFFFFFFFFFFFFFFFFFF AND PUSH32 0xFBBC329437E8C79F847E170730AD6DD04106B7511CAD70D06D635886D92DE83C PUSH1 0x40 MLOAD PUSH1 0x40 MLOAD DUP1 SWAP2 SUB SWAP1 LOG3 DUP1 PUSH1 0xE PUSH1 0x1 PUSH2 0x100 EXP DUP2 SLOAD DUP2 PUSH20 0xFFFFFFFFFFFFFFFFFFFFFFFFFFFFFFFFFFFFFFFF MUL NOT AND SWAP1 DUP4 PUSH20 0xFFFFFFFFFFFFFFFFFFFFFFFFFFFFFFFFFFFFFFFF AND MUL OR SWAP1 SSTORE POP PUSH1 0x1 PUSH1 0x5 PUSH1 0x0 PUSH1 0xE PUSH1 0x1 SWAP1 SLOAD SWAP1 PUSH2 0x100 EXP SWAP1 DIV PUSH20 0xFFFFFFFFFFFFFFFFFFFFFFFFFFFFFFFFFFFFFFFF AND PUSH20 0xFFFFFFFFFFFFFFFFFFFFFFFFFFFFFFFFFFFFFFFF AND PUSH20 0xFFFFFFFFFFFFFFFFFFFFFFFFFFFFFFFFFFFFFFFF AND DUP2 MSTORE PUSH1 0x20 ADD SWAP1 DUP2 MSTORE PUSH1 0x20 ADD PUSH1 0x0 KECCAK256 PUSH1 0x0 PUSH2 0x100 EXP DUP2 SLOAD DUP2 PUSH1 0xFF MUL NOT AND SWAP1 DUP4 ISZERO ISZERO MUL OR SWAP1 SSTORE POP POP JUMP JUMPDEST PUSH1 0xE PUSH1 0x1 SWAP1 SLOAD SWAP1 PUSH2 0x100 EXP SWAP1 DIV PUSH20 0xFFFFFFFFFFFFFFFFFFFFFFFFFFFFFFFFFFFFFFFF AND PUSH20 0xFFFFFFFFFFFFFFFFFFFFFFFFFFFFFFFFFFFFFFFF AND PUSH2 0x121F PUSH2 0x19C6 JUMP JUMPDEST PUSH20 0xFFFFFFFFFFFFFFFFFFFFFFFFFFFFFFFFFFFFFFFF AND EQ DUP1 PUSH2 0x1295 JUMPI POP PUSH1 0xF PUSH1 0x0 SWAP1 SLOAD SWAP1 PUSH2 0x100 EXP SWAP1 DIV PUSH20 0xFFFFFFFFFFFFFFFFFFFFFFFFFFFFFFFFFFFFFFFF AND PUSH20 0xFFFFFFFFFFFFFFFFFFFFFFFFFFFFFFFFFFFFFFFF AND PUSH2 0x127D PUSH2 0x19C6 JUMP JUMPDEST PUSH20 0xFFFFFFFFFFFFFFFFFFFFFFFFFFFFFFFFFFFFFFFF AND EQ JUMPDEST DUP1 PUSH2 0x12D9 JUMPI POP PUSH2 0x12A3 PUSH2 0xD3C JUMP JUMPDEST PUSH20 0xFFFFFFFFFFFFFFFFFFFFFFFFFFFFFFFFFFFFFFFF AND PUSH2 0x12C1 PUSH2 0x19C6 JUMP JUMPDEST PUSH20 0xFFFFFFFFFFFFFFFFFFFFFFFFFFFFFFFFFFFFFFFF AND EQ JUMPDEST PUSH2 0x12E2 JUMPI PUSH1 0x0 DUP1 REVERT JUMPDEST PUSH1 0x0 PUSH2 0x12ED ADDRESS PUSH2 0x983 JUMP JUMPDEST SWAP1 POP PUSH2 0x12F8 DUP2 PUSH2 0x22D6 JUMP JUMPDEST POP JUMP JUMPDEST PUSH2 0x1303 PUSH2 0x19C6 JUMP JUMPDEST PUSH20 0xFFFFFFFFFFFFFFFFFFFFFFFFFFFFFFFFFFFFFFFF AND PUSH1 0x0 DUP1 SLOAD SWAP1 PUSH2 0x100 EXP SWAP1 DIV PUSH20 0xFFFFFFFFFFFFFFFFFFFFFFFFFFFFFFFFFFFFFFFF AND PUSH20 0xFFFFFFFFFFFFFFFFFFFFFFFFFFFFFFFFFFFFFFFF AND EQ PUSH2 0x1390 JUMPI PUSH1 0x40 MLOAD PUSH32 0x8C379A000000000000000000000000000000000000000000000000000000000 DUP2 MSTORE PUSH1 0x4 ADD PUSH2 0x1387 SWAP1 PUSH2 0x3279 JUMP JUMPDEST PUSH1 0x40 MLOAD DUP1 SWAP2 SUB SWAP1 REVERT JUMPDEST PUSH1 0x0 JUMPDEST DUP4 DUP4 SWAP1 POP DUP2 LT ISZERO PUSH2 0x142F JUMPI DUP2 PUSH1 0x5 PUSH1 0x0 DUP7 DUP7 DUP6 DUP2 DUP2 LT PUSH2 0x13B6 JUMPI PUSH2 0x13B5 PUSH2 0x3371 JUMP JUMPDEST JUMPDEST SWAP1 POP PUSH1 0x20 MUL ADD PUSH1 0x20 DUP2 ADD SWAP1 PUSH2 0x13CB SWAP2 SWAP1 PUSH2 0x2FBD JUMP JUMPDEST PUSH20 0xFFFFFFFFFFFFFFFFFFFFFFFFFFFFFFFFFFFFFFFF AND PUSH20 0xFFFFFFFFFFFFFFFFFFFFFFFFFFFFFFFFFFFFFFFF AND DUP2 MSTORE PUSH1 0x20 ADD SWAP1 DUP2 MSTORE PUSH1 0x20 ADD PUSH1 0x0 KECCAK256 PUSH1 0x0 PUSH2 0x100 EXP DUP2 SLOAD DUP2 PUSH1 0xFF MUL NOT AND SWAP1 DUP4 ISZERO ISZERO MUL OR SWAP1 SSTORE POP DUP1 DUP1 PUSH2 0x1427 SWAP1 PUSH2 0x33CF JUMP JUMPDEST SWAP2 POP POP PUSH2 0x1393 JUMP JUMPDEST POP POP POP POP JUMP JUMPDEST PUSH1 0x12 PUSH1 0x0 SWAP1 SLOAD SWAP1 PUSH2 0x100 EXP SWAP1 DIV PUSH20 0xFFFFFFFFFFFFFFFFFFFFFFFFFFFFFFFFFFFFFFFF AND DUP2 JUMP JUMPDEST PUSH2 0x1463 PUSH2 0x19C6 JUMP JUMPDEST PUSH20 0xFFFFFFFFFFFFFFFFFFFFFFFFFFFFFFFFFFFFFFFF AND PUSH1 0x0 DUP1 SLOAD SWAP1 PUSH2 0x100 EXP SWAP1 DIV PUSH20 0xFFFFFFFFFFFFFFFFFFFFFFFFFFFFFFFFFFFFFFFF AND PUSH20 0xFFFFFFFFFFFFFFFFFFFFFFFFFFFFFFFFFFFFFFFF AND EQ PUSH2 0x14F0 JUMPI PUSH1 0x40 MLOAD PUSH32 0x8C379A000000000000000000000000000000000000000000000000000000000 DUP2 MSTORE PUSH1 0x4 ADD PUSH2 0x14E7 SWAP1 PUSH2 0x3279 JUMP JUMPDEST PUSH1 0x40 MLOAD DUP1 SWAP2 SUB SWAP1 REVERT JUMPDEST PUSH1 0x0 ISZERO ISZERO PUSH1 0xE PUSH1 0x0 SWAP1 SLOAD SWAP1 PUSH2 0x100 EXP SWAP1 DIV PUSH1 0xFF AND ISZERO ISZERO EQ PUSH2 0x1546 JUMPI PUSH1 0x40 MLOAD PUSH32 0x8C379A000000000000000000000000000000000000000000000000000000000 DUP2 MSTORE PUSH1 0x4 ADD PUSH2 0x153D SWAP1 PUSH2 0x3463 JUMP JUMPDEST PUSH1 0x40 MLOAD DUP1 SWAP2 SUB SWAP1 REVERT JUMPDEST PUSH1 0x11 PUSH1 0x0 SWAP1 SLOAD SWAP1 PUSH2 0x100 EXP SWAP1 DIV PUSH20 0xFFFFFFFFFFFFFFFFFFFFFFFFFFFFFFFFFFFFFFFF AND PUSH20 0xFFFFFFFFFFFFFFFFFFFFFFFFFFFFFFFFFFFFFFFF AND PUSH4 0xC9C65396 ADDRESS DUP4 PUSH1 0x40 MLOAD DUP4 PUSH4 0xFFFFFFFF AND PUSH1 0xE0 SHL DUP2 MSTORE PUSH1 0x4 ADD PUSH2 0x15A3 SWAP3 SWAP2 SWAP1 PUSH2 0x3483 JUMP JUMPDEST PUSH1 0x20 PUSH1 0x40 MLOAD DUP1 DUP4 SUB DUP2 PUSH1 0x0 DUP8 GAS CALL ISZERO DUP1 ISZERO PUSH2 0x15C2 JUMPI RETURNDATASIZE PUSH1 0x0 DUP1 RETURNDATACOPY RETURNDATASIZE PUSH1 0x0 REVERT JUMPDEST POP POP POP POP PUSH1 0x40 MLOAD RETURNDATASIZE PUSH1 0x1F NOT PUSH1 0x1F DUP3 ADD AND DUP3 ADD DUP1 PUSH1 0x40 MSTORE POP DUP2 ADD SWAP1 PUSH2 0x15E6 SWAP2 SWAP1 PUSH2 0x34C1 JUMP JUMPDEST PUSH1 0x13 PUSH1 0x0 PUSH2 0x100 EXP DUP2 SLOAD DUP2 PUSH20 0xFFFFFFFFFFFFFFFFFFFFFFFFFFFFFFFFFFFFFFFF MUL NOT AND SWAP1 DUP4 PUSH20 0xFFFFFFFFFFFFFFFFFFFFFFFFFFFFFFFFFFFFFFFF AND MUL OR SWAP1 SSTORE POP POP JUMP JUMPDEST PUSH1 0x0 PUSH1 0x4 PUSH1 0x0 DUP5 PUSH20 0xFFFFFFFFFFFFFFFFFFFFFFFFFFFFFFFFFFFFFFFF AND PUSH20 0xFFFFFFFFFFFFFFFFFFFFFFFFFFFFFFFFFFFFFFFF AND DUP2 MSTORE PUSH1 0x20 ADD SWAP1 DUP2 MSTORE PUSH1 0x20 ADD PUSH1 0x0 KECCAK256 PUSH1 0x0 DUP4 PUSH20 0xFFFFFFFFFFFFFFFFFFFFFFFFFFFFFFFFFFFFFFFF AND PUSH20 0xFFFFFFFFFFFFFFFFFFFFFFFFFFFFFFFFFFFFFFFF AND DUP2 MSTORE PUSH1 0x20 ADD SWAP1 DUP2 MSTORE PUSH1 0x20 ADD PUSH1 0x0 KECCAK256 SLOAD SWAP1 POP SWAP3 SWAP2 POP POP JUMP JUMPDEST PUSH2 0x16B8 PUSH2 0x19C6 JUMP JUMPDEST PUSH20 0xFFFFFFFFFFFFFFFFFFFFFFFFFFFFFFFFFFFFFFFF AND PUSH2 0x16D6 PUSH2 0xD3C JUMP JUMPDEST PUSH20 0xFFFFFFFFFFFFFFFFFFFFFFFFFFFFFFFFFFFFFFFF AND EQ DUP1 PUSH2 0x174C JUMPI POP PUSH2 0x16FB PUSH2 0x19C6 JUMP JUMPDEST PUSH20 0xFFFFFFFFFFFFFFFFFFFFFFFFFFFFFFFFFFFFFFFF AND PUSH1 0xE PUSH1 0x1 SWAP1 SLOAD SWAP1 PUSH2 0x100 EXP SWAP1 DIV PUSH20 0xFFFFFFFFFFFFFFFFFFFFFFFFFFFFFFFFFFFFFFFF AND PUSH20 0xFFFFFFFFFFFFFFFFFFFFFFFFFFFFFFFFFFFFFFFF AND EQ JUMPDEST PUSH2 0x178B JUMPI PUSH1 0x40 MLOAD PUSH32 0x8C379A000000000000000000000000000000000000000000000000000000000 DUP2 MSTORE PUSH1 0x4 ADD PUSH2 0x1782 SWAP1 PUSH2 0x320D JUMP JUMPDEST PUSH1 0x40 MLOAD DUP1 SWAP2 SUB SWAP1 REVERT JUMPDEST DUP2 PUSH20 0xFFFFFFFFFFFFFFFFFFFFFFFFFFFFFFFFFFFFFFFF AND DUP4 PUSH20 0xFFFFFFFFFFFFFFFFFFFFFFFFFFFFFFFFFFFFFFFF AND PUSH32 0x47C33AA230EB5FD181505AA7BEFEADDD9B8A6F983989CEA73A7868448C3A9ED9 DUP4 PUSH1 0x40 MLOAD PUSH2 0x17E8 SWAP2 SWAP1 PUSH2 0x2E59 JUMP JUMPDEST PUSH1 0x40 MLOAD DUP1 SWAP2 SUB SWAP1 LOG3 DUP3 PUSH20 0xFFFFFFFFFFFFFFFFFFFFFFFFFFFFFFFFFFFFFFFF AND PUSH4 0xA9059CBB DUP4 DUP4 PUSH1 0x40 MLOAD DUP4 PUSH4 0xFFFFFFFF AND PUSH1 0xE0 SHL DUP2 MSTORE PUSH1 0x4 ADD PUSH2 0x182B SWAP3 SWAP2 SWAP1 PUSH2 0x34EE JUMP JUMPDEST PUSH1 0x20 PUSH1 0x40 MLOAD DUP1 DUP4 SUB DUP2 PUSH1 0x0 DUP8 GAS CALL ISZERO DUP1 ISZERO PUSH2 0x184A JUMPI RETURNDATASIZE PUSH1 0x0 DUP1 RETURNDATACOPY RETURNDATASIZE PUSH1 0x0 REVERT JUMPDEST POP POP POP POP PUSH1 0x40 MLOAD RETURNDATASIZE PUSH1 0x1F NOT PUSH1 0x1F DUP3 ADD AND DUP3 ADD DUP1 PUSH1 0x40 MSTORE POP DUP2 ADD SWAP1 PUSH2 0x186E SWAP2 SWAP1 PUSH2 0x352C JUMP JUMPDEST POP POP POP POP JUMP JUMPDEST PUSH2 0x187C PUSH2 0x19C6 JUMP JUMPDEST PUSH20 0xFFFFFFFFFFFFFFFFFFFFFFFFFFFFFFFFFFFFFFFF AND PUSH1 0x0 DUP1 SLOAD SWAP1 PUSH2 0x100 EXP SWAP1 DIV PUSH20 0xFFFFFFFFFFFFFFFFFFFFFFFFFFFFFFFFFFFFFFFF AND PUSH20 0xFFFFFFFFFFFFFFFFFFFFFFFFFFFFFFFFFFFFFFFF AND EQ PUSH2 0x1909 JUMPI PUSH1 0x40 MLOAD PUSH32 0x8C379A000000000000000000000000000000000000000000000000000000000 DUP2 MSTORE PUSH1 0x4 ADD PUSH2 0x1900 SWAP1 PUSH2 0x3279 JUMP JUMPDEST PUSH1 0x40 MLOAD DUP1 SWAP2 SUB SWAP1 REVERT JUMPDEST DUP1 PUSH20 0xFFFFFFFFFFFFFFFFFFFFFFFFFFFFFFFFFFFFFFFF AND PUSH1 0x0 DUP1 SLOAD SWAP1 PUSH2 0x100 EXP SWAP1 DIV PUSH20 0xFFFFFFFFFFFFFFFFFFFFFFFFFFFFFFFFFFFFFFFF AND PUSH20 0xFFFFFFFFFFFFFFFFFFFFFFFFFFFFFFFFFFFFFFFF AND PUSH32 0x8BE0079C531659141344CD1FD0A4F28419497F9722A3DAAFE3B4186F6B6457E0 PUSH1 0x40 MLOAD PUSH1 0x40 MLOAD DUP1 SWAP2 SUB SWAP1 LOG3 DUP1 PUSH1 0x0 DUP1 PUSH2 0x100 EXP DUP2 SLOAD DUP2 PUSH20 0xFFFFFFFFFFFFFFFFFFFFFFFFFFFFFFFFFFFFFFFF MUL NOT AND SWAP1 DUP4 PUSH20 0xFFFFFFFFFFFFFFFFFFFFFFFFFFFFFFFFFFFFFFFF AND MUL OR SWAP1 SSTORE POP POP JUMP JUMPDEST PUSH1 0x0 CALLER SWAP1 POP SWAP1 JUMP JUMPDEST PUSH1 0x0 PUSH20 0xFFFFFFFFFFFFFFFFFFFFFFFFFFFFFFFFFFFFFFFF AND DUP4 PUSH20 0xFFFFFFFFFFFFFFFFFFFFFFFFFFFFFFFFFFFFFFFF AND SUB PUSH2 0x1A3D JUMPI PUSH1 0x40 MLOAD PUSH32 0x8C379A000000000000000000000000000000000000000000000000000000000 DUP2 MSTORE PUSH1 0x4 ADD PUSH2 0x1A34 SWAP1 PUSH2 0x35CB JUMP JUMPDEST PUSH1 0x40 MLOAD DUP1 SWAP2 SUB SWAP1 REVERT JUMPDEST PUSH1 0x0 PUSH20 0xFFFFFFFFFFFFFFFFFFFFFFFFFFFFFFFFFFFFFFFF AND DUP3 PUSH20 0xFFFFFFFFFFFFFFFFFFFFFFFFFFFFFFFFFFFFFFFF AND SUB PUSH2 0x1AAC JUMPI PUSH1 0x40 MLOAD PUSH32 0x8C379A000000000000000000000000000000000000000000000000000000000 DUP2 MSTORE PUSH1 0x4 ADD PUSH2 0x1AA3 SWAP1 PUSH2 0x365D JUMP JUMPDEST PUSH1 0x40 MLOAD DUP1 SWAP2 SUB SWAP1 REVERT JUMPDEST DUP1 PUSH1 0x4 PUSH1 0x0 DUP6 PUSH20 0xFFFFFFFFFFFFFFFFFFFFFFFFFFFFFFFFFFFFFFFF AND PUSH20 0xFFFFFFFFFFFFFFFFFFFFFFFFFFFFFFFFFFFFFFFF AND DUP2 MSTORE PUSH1 0x20 ADD SWAP1 DUP2 MSTORE PUSH1 0x20 ADD PUSH1 0x0 KECCAK256 PUSH1 0x0 DUP5 PUSH20 0xFFFFFFFFFFFFFFFFFFFFFFFFFFFFFFFFFFFFFFFF AND PUSH20 0xFFFFFFFFFFFFFFFFFFFFFFFFFFFFFFFFFFFFFFFF AND DUP2 MSTORE PUSH1 0x20 ADD SWAP1 DUP2 MSTORE PUSH1 0x20 ADD PUSH1 0x0 KECCAK256 DUP2 SWAP1 SSTORE POP DUP2 PUSH20 0xFFFFFFFFFFFFFFFFFFFFFFFFFFFFFFFFFFFFFFFF AND DUP4 PUSH20 0xFFFFFFFFFFFFFFFFFFFFFFFFFFFFFFFFFFFFFFFF AND PUSH32 0x8C5BE1E5EBEC7D5BD14F71427D1E84F3DD0314C0F7B2291E5B200AC8C7C3B925 DUP4 PUSH1 0x40 MLOAD PUSH2 0x1B8A SWAP2 SWAP1 PUSH2 0x2E59 JUMP JUMPDEST PUSH1 0x40 MLOAD DUP1 SWAP2 SUB SWAP1 LOG3 POP POP POP JUMP JUMPDEST PUSH1 0x0 PUSH20 0xFFFFFFFFFFFFFFFFFFFFFFFFFFFFFFFFFFFFFFFF AND DUP4 PUSH20 0xFFFFFFFFFFFFFFFFFFFFFFFFFFFFFFFFFFFFFFFF AND SUB PUSH2 0x1C06 JUMPI PUSH1 0x40 MLOAD PUSH32 0x8C379A000000000000000000000000000000000000000000000000000000000 DUP2 MSTORE PUSH1 0x4 ADD PUSH2 0x1BFD SWAP1 PUSH2 0x36EF JUMP JUMPDEST PUSH1 0x40 MLOAD DUP1 SWAP2 SUB SWAP1 REVERT JUMPDEST PUSH1 0x0 PUSH20 0xFFFFFFFFFFFFFFFFFFFFFFFFFFFFFFFFFFFFFFFF AND DUP3 PUSH20 0xFFFFFFFFFFFFFFFFFFFFFFFFFFFFFFFFFFFFFFFF AND SUB PUSH2 0x1C75 JUMPI PUSH1 0x40 MLOAD PUSH32 0x8C379A000000000000000000000000000000000000000000000000000000000 DUP2 MSTORE PUSH1 0x4 ADD PUSH2 0x1C6C SWAP1 PUSH2 0x3781 JUMP JUMPDEST PUSH1 0x40 MLOAD DUP1 SWAP2 SUB SWAP1 REVERT JUMPDEST PUSH1 0x0 DUP2 GT PUSH2 0x1CB8 JUMPI PUSH1 0x40 MLOAD PUSH32 0x8C379A000000000000000000000000000000000000000000000000000000000 DUP2 MSTORE PUSH1 0x4 ADD PUSH2 0x1CAF SWAP1 PUSH2 0x3813 JUMP JUMPDEST PUSH1 0x40 MLOAD DUP1 SWAP2 SUB SWAP1 REVERT JUMPDEST PUSH1 0x0 PUSH1 0xC DUP2 SWAP1 SSTORE POP PUSH1 0x0 PUSH1 0xD DUP2 SWAP1 SSTORE POP PUSH2 0x1CD0 PUSH2 0xD3C JUMP JUMPDEST PUSH20 0xFFFFFFFFFFFFFFFFFFFFFFFFFFFFFFFFFFFFFFFF AND DUP4 PUSH20 0xFFFFFFFFFFFFFFFFFFFFFFFFFFFFFFFFFFFFFFFF AND EQ ISZERO DUP1 ISZERO PUSH2 0x1D3E JUMPI POP PUSH2 0x1D0E PUSH2 0xD3C JUMP JUMPDEST PUSH20 0xFFFFFFFFFFFFFFFFFFFFFFFFFFFFFFFFFFFFFFFF AND DUP3 PUSH20 0xFFFFFFFFFFFFFFFFFFFFFFFFFFFFFFFFFFFFFFFF AND EQ ISZERO JUMPDEST ISZERO PUSH2 0x20F9 JUMPI PUSH1 0x0 PUSH2 0x1D4E ADDRESS PUSH2 0x983 JUMP JUMPDEST SWAP1 POP PUSH1 0x13 PUSH1 0x14 SWAP1 SLOAD SWAP1 PUSH2 0x100 EXP SWAP1 DIV PUSH1 0xFF AND ISZERO DUP1 ISZERO PUSH2 0x1DBB JUMPI POP PUSH1 0x13 PUSH1 0x0 SWAP1 SLOAD SWAP1 PUSH2 0x100 EXP SWAP1 DIV PUSH20 0xFFFFFFFFFFFFFFFFFFFFFFFFFFFFFFFFFFFFFFFF AND PUSH20 0xFFFFFFFFFFFFFFFFFFFFFFFFFFFFFFFFFFFFFFFF AND DUP5 PUSH20 0xFFFFFFFFFFFFFFFFFFFFFFFFFFFFFFFFFFFFFFFF AND EQ ISZERO JUMPDEST DUP1 ISZERO PUSH2 0x1DD3 JUMPI POP PUSH1 0x13 PUSH1 0x15 SWAP1 SLOAD SWAP1 PUSH2 0x100 EXP SWAP1 DIV PUSH1 0xFF AND JUMPDEST DUP1 ISZERO PUSH2 0x1DDF JUMPI POP PUSH1 0x0 DUP2 GT JUMPDEST ISZERO PUSH2 0x1E07 JUMPI PUSH2 0x1DED DUP2 PUSH2 0x22D6 JUMP JUMPDEST PUSH1 0x0 SELFBALANCE SWAP1 POP PUSH1 0x0 DUP2 GT ISZERO PUSH2 0x1E05 JUMPI PUSH2 0x1E04 SELFBALANCE PUSH2 0x216D JUMP JUMPDEST JUMPDEST POP JUMPDEST PUSH1 0x13 PUSH1 0x0 SWAP1 SLOAD SWAP1 PUSH2 0x100 EXP SWAP1 DIV PUSH20 0xFFFFFFFFFFFFFFFFFFFFFFFFFFFFFFFFFFFFFFFF AND PUSH20 0xFFFFFFFFFFFFFFFFFFFFFFFFFFFFFFFFFFFFFFFF AND DUP5 PUSH20 0xFFFFFFFFFFFFFFFFFFFFFFFFFFFFFFFFFFFFFFFF AND EQ DUP1 ISZERO PUSH2 0x1EB2 JUMPI POP PUSH1 0x10 PUSH1 0x0 SWAP1 SLOAD SWAP1 PUSH2 0x100 EXP SWAP1 DIV PUSH20 0xFFFFFFFFFFFFFFFFFFFFFFFFFFFFFFFFFFFFFFFF AND PUSH20 0xFFFFFFFFFFFFFFFFFFFFFFFFFFFFFFFFFFFFFFFF AND DUP4 PUSH20 0xFFFFFFFFFFFFFFFFFFFFFFFFFFFFFFFFFFFFFFFF AND EQ ISZERO JUMPDEST ISZERO PUSH2 0x1ECA JUMPI PUSH1 0x8 SLOAD PUSH1 0xC DUP2 SWAP1 SSTORE POP PUSH1 0x9 SLOAD PUSH1 0xD DUP2 SWAP1 SSTORE POP JUMPDEST PUSH1 0x13 PUSH1 0x0 SWAP1 SLOAD SWAP1 PUSH2 0x100 EXP SWAP1 DIV PUSH20 0xFFFFFFFFFFFFFFFFFFFFFFFFFFFFFFFFFFFFFFFF AND PUSH20 0xFFFFFFFFFFFFFFFFFFFFFFFFFFFFFFFFFFFFFFFF AND DUP4 PUSH20 0xFFFFFFFFFFFFFFFFFFFFFFFFFFFFFFFFFFFFFFFF AND EQ DUP1 ISZERO PUSH2 0x1F75 JUMPI POP PUSH1 0x10 PUSH1 0x0 SWAP1 SLOAD SWAP1 PUSH2 0x100 EXP SWAP1 DIV PUSH20 0xFFFFFFFFFFFFFFFFFFFFFFFFFFFFFFFFFFFFFFFF AND PUSH20 0xFFFFFFFFFFFFFFFFFFFFFFFFFFFFFFFFFFFFFFFF AND DUP5 PUSH20 0xFFFFFFFFFFFFFFFFFFFFFFFFFFFFFFFFFFFFFFFF AND EQ ISZERO JUMPDEST ISZERO PUSH2 0x1F8D JUMPI PUSH1 0xA SLOAD PUSH1 0xC DUP2 SWAP1 SSTORE POP PUSH1 0xB SLOAD PUSH1 0xD DUP2 SWAP1 SSTORE POP JUMPDEST PUSH1 0x5 PUSH1 0x0 DUP6 PUSH20 0xFFFFFFFFFFFFFFFFFFFFFFFFFFFFFFFFFFFFFFFF AND PUSH20 0xFFFFFFFFFFFFFFFFFFFFFFFFFFFFFFFFFFFFFFFF AND DUP2 MSTORE PUSH1 0x20 ADD SWAP1 DUP2 MSTORE PUSH1 0x20 ADD PUSH1 0x0 KECCAK256 PUSH1 0x0 SWAP1 SLOAD SWAP1 PUSH2 0x100 EXP SWAP1 DIV PUSH1 0xFF AND DUP1 PUSH2 0x202E JUMPI POP PUSH1 0x5 PUSH1 0x0 DUP5 PUSH20 0xFFFFFFFFFFFFFFFFFFFFFFFFFFFFFFFFFFFFFFFF AND PUSH20 0xFFFFFFFFFFFFFFFFFFFFFFFFFFFFFFFFFFFFFFFF AND DUP2 MSTORE PUSH1 0x20 ADD SWAP1 DUP2 MSTORE PUSH1 0x20 ADD PUSH1 0x0 KECCAK256 PUSH1 0x0 SWAP1 SLOAD SWAP1 PUSH2 0x100 EXP SWAP1 DIV PUSH1 0xFF AND JUMPDEST DUP1 PUSH2 0x20E1 JUMPI POP PUSH1 0x13 PUSH1 0x0 SWAP1 SLOAD SWAP1 PUSH2 0x100 EXP SWAP1 DIV PUSH20 0xFFFFFFFFFFFFFFFFFFFFFFFFFFFFFFFFFFFFFFFF AND PUSH20 0xFFFFFFFFFFFFFFFFFFFFFFFFFFFFFFFFFFFFFFFF AND DUP5 PUSH20 0xFFFFFFFFFFFFFFFFFFFFFFFFFFFFFFFFFFFFFFFF AND EQ ISZERO DUP1 ISZERO PUSH2 0x20E0 JUMPI POP PUSH1 0x13 PUSH1 0x0 SWAP1 SLOAD SWAP1 PUSH2 0x100 EXP SWAP1 DIV PUSH20 0xFFFFFFFFFFFFFFFFFFFFFFFFFFFFFFFFFFFFFFFF AND PUSH20 0xFFFFFFFFFFFFFFFFFFFFFFFFFFFFFFFFFFFFFFFF AND DUP4 PUSH20 0xFFFFFFFFFFFFFFFFFFFFFFFFFFFFFFFFFFFFFFFF AND EQ ISZERO JUMPDEST JUMPDEST ISZERO PUSH2 0x20F7 JUMPI PUSH1 0x0 PUSH1 0xC DUP2 SWAP1 SSTORE POP PUSH1 0x0 PUSH1 0xD DUP2 SWAP1 SSTORE POP JUMPDEST POP JUMPDEST PUSH2 0x2104 DUP4 DUP4 DUP4 PUSH2 0x254F JUMP JUMPDEST POP POP POP JUMP JUMPDEST PUSH1 0x0 DUP4 DUP4 GT ISZERO DUP3 SWAP1 PUSH2 0x2151 JUMPI PUSH1 0x40 MLOAD PUSH32 0x8C379A000000000000000000000000000000000000000000000000000000000 DUP2 MSTORE PUSH1 0x4 ADD PUSH2 0x2148 SWAP2 SWAP1 PUSH2 0x2C9A JUMP JUMPDEST PUSH1 0x40 MLOAD DUP1 SWAP2 SUB SWAP1 REVERT JUMPDEST POP PUSH1 0x0 DUP4 DUP6 PUSH2 0x2160 SWAP2 SWAP1 PUSH2 0x3833 JUMP JUMPDEST SWAP1 POP DUP1 SWAP2 POP POP SWAP4 SWAP3 POP POP POP JUMP JUMPDEST PUSH1 0xE PUSH1 0x1 SWAP1 SLOAD SWAP1 PUSH2 0x100 EXP SWAP1 DIV PUSH20 0xFFFFFFFFFFFFFFFFFFFFFFFFFFFFFFFFFFFFFFFF AND PUSH20 0xFFFFFFFFFFFFFFFFFFFFFFFFFFFFFFFFFFFFFFFF AND PUSH2 0x8FC PUSH2 0x21BD PUSH1 0x2 DUP5 PUSH2 0x255F SWAP1 SWAP2 SWAP1 PUSH4 0xFFFFFFFF AND JUMP JUMPDEST SWAP1 DUP2 ISZERO MUL SWAP1 PUSH1 0x40 MLOAD PUSH1 0x0 PUSH1 0x40 MLOAD DUP1 DUP4 SUB DUP2 DUP6 DUP9 DUP9 CALL SWAP4 POP POP POP POP ISZERO DUP1 ISZERO PUSH2 0x21E8 JUMPI RETURNDATASIZE PUSH1 0x0 DUP1 RETURNDATACOPY RETURNDATASIZE PUSH1 0x0 REVERT JUMPDEST POP PUSH1 0xF PUSH1 0x0 SWAP1 SLOAD SWAP1 PUSH2 0x100 EXP SWAP1 DIV PUSH20 0xFFFFFFFFFFFFFFFFFFFFFFFFFFFFFFFFFFFFFFFF AND PUSH20 0xFFFFFFFFFFFFFFFFFFFFFFFFFFFFFFFFFFFFFFFF AND PUSH2 0x8FC PUSH2 0x2239 PUSH1 0x2 DUP5 PUSH2 0x255F SWAP1 SWAP2 SWAP1 PUSH4 0xFFFFFFFF AND JUMP JUMPDEST SWAP1 DUP2 ISZERO MUL SWAP1 PUSH1 0x40 MLOAD PUSH1 0x0 PUSH1 0x40 MLOAD DUP1 DUP4 SUB DUP2 DUP6 DUP9 DUP9 CALL SWAP4 POP POP POP POP ISZERO DUP1 ISZERO PUSH2 0x2264 JUMPI RETURNDATASIZE PUSH1 0x0 DUP1 RETURNDATACOPY RETURNDATASIZE PUSH1 0x0 REVERT JUMPDEST POP POP JUMP JUMPDEST PUSH1 0x0 PUSH1 0x6 SLOAD DUP3 GT ISZERO PUSH2 0x22AF JUMPI PUSH1 0x40 MLOAD PUSH32 0x8C379A000000000000000000000000000000000000000000000000000000000 DUP2 MSTORE PUSH1 0x4 ADD PUSH2 0x22A6 SWAP1 PUSH2 0x38D9 JUMP JUMPDEST PUSH1 0x40 MLOAD DUP1 SWAP2 SUB SWAP1 REVERT JUMPDEST PUSH1 0x0 PUSH2 0x22B9 PUSH2 0x25A9 JUMP JUMPDEST SWAP1 POP PUSH2 0x22CE DUP2 DUP5 PUSH2 0x255F SWAP1 SWAP2 SWAP1 PUSH4 0xFFFFFFFF AND JUMP JUMPDEST SWAP2 POP POP SWAP2 SWAP1 POP JUMP JUMPDEST PUSH1 0x1 PUSH1 0x13 PUSH1 0x14 PUSH2 0x100 EXP DUP2 SLOAD DUP2 PUSH1 0xFF MUL NOT AND SWAP1 DUP4 ISZERO ISZERO MUL OR SWAP1 SSTORE POP PUSH1 0x0 PUSH1 0x2 PUSH8 0xFFFFFFFFFFFFFFFF DUP2 GT ISZERO PUSH2 0x230E JUMPI PUSH2 0x230D PUSH2 0x38F9 JUMP JUMPDEST JUMPDEST PUSH1 0x40 MLOAD SWAP1 DUP1 DUP3 MSTORE DUP1 PUSH1 0x20 MUL PUSH1 0x20 ADD DUP3 ADD PUSH1 0x40 MSTORE DUP1 ISZERO PUSH2 0x233C JUMPI DUP2 PUSH1 0x20 ADD PUSH1 0x20 DUP3 MUL DUP1 CALLDATASIZE DUP4 CALLDATACOPY DUP1 DUP3 ADD SWAP2 POP POP SWAP1 POP JUMPDEST POP SWAP1 POP ADDRESS DUP2 PUSH1 0x0 DUP2 MLOAD DUP2 LT PUSH2 0x2354 JUMPI PUSH2 0x2353 PUSH2 0x3371 JUMP JUMPDEST JUMPDEST PUSH1 0x20 MUL PUSH1 0x20 ADD ADD SWAP1 PUSH20 0xFFFFFFFFFFFFFFFFFFFFFFFFFFFFFFFFFFFFFFFF AND SWAP1 DUP2 PUSH20 0xFFFFFFFFFFFFFFFFFFFFFFFFFFFFFFFFFFFFFFFF AND DUP2 MSTORE POP POP PUSH1 0x10 PUSH1 0x0 SWAP1 SLOAD SWAP1 PUSH2 0x100 EXP SWAP1 DIV PUSH20 0xFFFFFFFFFFFFFFFFFFFFFFFFFFFFFFFFFFFFFFFF AND PUSH20 0xFFFFFFFFFFFFFFFFFFFFFFFFFFFFFFFFFFFFFFFF AND PUSH4 0xAD5C4648 PUSH1 0x40 MLOAD DUP2 PUSH4 0xFFFFFFFF AND PUSH1 0xE0 SHL DUP2 MSTORE PUSH1 0x4 ADD PUSH1 0x20 PUSH1 0x40 MLOAD DUP1 DUP4 SUB DUP2 DUP7 GAS STATICCALL ISZERO DUP1 ISZERO PUSH2 0x23FB JUMPI RETURNDATASIZE PUSH1 0x0 DUP1 RETURNDATACOPY RETURNDATASIZE PUSH1 0x0 REVERT JUMPDEST POP POP POP POP PUSH1 0x40 MLOAD RETURNDATASIZE PUSH1 0x1F NOT PUSH1 0x1F DUP3 ADD AND DUP3 ADD DUP1 PUSH1 0x40 MSTORE POP DUP2 ADD SWAP1 PUSH2 0x241F SWAP2 SWAP1 PUSH2 0x34C1 JUMP JUMPDEST DUP2 PUSH1 0x1 DUP2 MLOAD DUP2 LT PUSH2 0x2433 JUMPI PUSH2 0x2432 PUSH2 0x3371 JUMP JUMPDEST JUMPDEST PUSH1 0x20 MUL PUSH1 0x20 ADD ADD SWAP1 PUSH20 0xFFFFFFFFFFFFFFFFFFFFFFFFFFFFFFFFFFFFFFFF AND SWAP1 DUP2 PUSH20 0xFFFFFFFFFFFFFFFFFFFFFFFFFFFFFFFFFFFFFFFF AND DUP2 MSTORE POP POP PUSH2 0x249A ADDRESS PUSH1 0x10 PUSH1 0x0 SWAP1 SLOAD SWAP1 PUSH2 0x100 EXP SWAP1 DIV PUSH20 0xFFFFFFFFFFFFFFFFFFFFFFFFFFFFFFFFFFFFFFFF AND DUP5 PUSH2 0x19CE JUMP JUMPDEST PUSH1 0x10 PUSH1 0x0 SWAP1 SLOAD SWAP1 PUSH2 0x100 EXP SWAP1 DIV PUSH20 0xFFFFFFFFFFFFFFFFFFFFFFFFFFFFFFFFFFFFFFFF AND PUSH20 0xFFFFFFFFFFFFFFFFFFFFFFFFFFFFFFFFFFFFFFFF AND PUSH4 0x791AC947 DUP4 PUSH1 0x0 DUP5 ADDRESS TIMESTAMP PUSH1 0x40 MLOAD DUP7 PUSH4 0xFFFFFFFF AND PUSH1 0xE0 SHL DUP2 MSTORE PUSH1 0x4 ADD PUSH2 0x24FE SWAP6 SWAP5 SWAP4 SWAP3 SWAP2 SWAP1 PUSH2 0x3A21 JUMP JUMPDEST PUSH1 0x0 PUSH1 0x40 MLOAD DUP1 DUP4 SUB DUP2 PUSH1 0x0 DUP8 DUP1 EXTCODESIZE ISZERO DUP1 ISZERO PUSH2 0x2518 JUMPI PUSH1 0x0 DUP1 REVERT JUMPDEST POP GAS CALL ISZERO DUP1 ISZERO PUSH2 0x252C JUMPI RETURNDATASIZE PUSH1 0x0 DUP1 RETURNDATACOPY RETURNDATASIZE PUSH1 0x0 REVERT JUMPDEST POP POP POP POP POP PUSH1 0x0 PUSH1 0x13 PUSH1 0x14 PUSH2 0x100 EXP DUP2 SLOAD DUP2 PUSH1 0xFF MUL NOT AND SWAP1 DUP4 ISZERO ISZERO MUL OR SWAP1 SSTORE POP POP JUMP JUMPDEST PUSH2 0x255A DUP4 DUP4 DUP4 PUSH2 0x25D4 JUMP JUMPDEST POP POP POP JUMP JUMPDEST PUSH1 0x0 PUSH2 0x25A1 DUP4 DUP4 PUSH1 0x40 MLOAD DUP1 PUSH1 0x40 ADD PUSH1 0x40 MSTORE DUP1 PUSH1 0x1A DUP2 MSTORE PUSH1 0x20 ADD PUSH32 0x536166654D6174683A206469766973696F6E206279207A65726F000000000000 DUP2 MSTORE POP PUSH2 0x279F JUMP JUMPDEST SWAP1 POP SWAP3 SWAP2 POP POP JUMP JUMPDEST PUSH1 0x0 DUP1 PUSH1 0x0 PUSH2 0x25B6 PUSH2 0x2802 JUMP JUMPDEST SWAP2 POP SWAP2 POP PUSH2 0x25CD DUP2 DUP4 PUSH2 0x255F SWAP1 SWAP2 SWAP1 PUSH4 0xFFFFFFFF AND JUMP JUMPDEST SWAP3 POP POP POP SWAP1 JUMP JUMPDEST PUSH1 0x0 DUP1 PUSH1 0x0 DUP1 PUSH1 0x0 DUP1 PUSH2 0x25E6 DUP8 PUSH2 0x2861 JUMP JUMPDEST SWAP6 POP SWAP6 POP SWAP6 POP SWAP6 POP SWAP6 POP SWAP6 POP PUSH2 0x2644 DUP7 PUSH1 0x2 PUSH1 0x0 DUP13 PUSH20 0xFFFFFFFFFFFFFFFFFFFFFFFFFFFFFFFFFFFFFFFF AND PUSH20 0xFFFFFFFFFFFFFFFFFFFFFFFFFFFFFFFFFFFFFFFF AND DUP2 MSTORE PUSH1 0x20 ADD SWAP1 DUP2 MSTORE PUSH1 0x20 ADD PUSH1 0x0 KECCAK256 SLOAD PUSH2 0x28C9 SWAP1 SWAP2 SWAP1 PUSH4 0xFFFFFFFF AND JUMP JUMPDEST PUSH1 0x2 PUSH1 0x0 DUP12 PUSH20 0xFFFFFFFFFFFFFFFFFFFFFFFFFFFFFFFFFFFFFFFF AND PUSH20 0xFFFFFFFFFFFFFFFFFFFFFFFFFFFFFFFFFFFFFFFF AND DUP2 MSTORE PUSH1 0x20 ADD SWAP1 DUP2 MSTORE PUSH1 0x20 ADD PUSH1 0x0 KECCAK256 DUP2 SWAP1 SSTORE POP PUSH2 0x26D9 DUP6 PUSH1 0x2 PUSH1 0x0 DUP12 PUSH20 0xFFFFFFFFFFFFFFFFFFFFFFFFFFFFFFFFFFFFFFFF AND PUSH20 0xFFFFFFFFFFFFFFFFFFFFFFFFFFFFFFFFFFFFFFFF AND DUP2 MSTORE PUSH1 0x20 ADD SWAP1 DUP2 MSTORE PUSH1 0x20 ADD PUSH1 0x0 KECCAK256 SLOAD PUSH2 0x2913 SWAP1 SWAP2 SWAP1 PUSH4 0xFFFFFFFF AND JUMP JUMPDEST PUSH1 0x2 PUSH1 0x0 DUP11 PUSH20 0xFFFFFFFFFFFFFFFFFFFFFFFFFFFFFFFFFFFFFFFF AND PUSH20 0xFFFFFFFFFFFFFFFFFFFFFFFFFFFFFFFFFFFFFFFF AND DUP2 MSTORE PUSH1 0x20 ADD SWAP1 DUP2 MSTORE PUSH1 0x20 ADD PUSH1 0x0 KECCAK256 DUP2 SWAP1 SSTORE POP PUSH2 0x2725 DUP2 PUSH2 0x2971 JUMP JUMPDEST PUSH2 0x272F DUP5 DUP4 PUSH2 0x2A2E JUMP JUMPDEST DUP8 PUSH20 0xFFFFFFFFFFFFFFFFFFFFFFFFFFFFFFFFFFFFFFFF AND DUP10 PUSH20 0xFFFFFFFFFFFFFFFFFFFFFFFFFFFFFFFFFFFFFFFF AND PUSH32 0xDDF252AD1BE2C89B69C2B068FC378DAA952BA7F163C4A11628F55A4DF523B3EF DUP6 PUSH1 0x40 MLOAD PUSH2 0x278C SWAP2 SWAP1 PUSH2 0x2E59 JUMP JUMPDEST PUSH1 0x40 MLOAD DUP1 SWAP2 SUB SWAP1 LOG3 POP POP POP POP POP POP POP POP POP JUMP JUMPDEST PUSH1 0x0 DUP1 DUP4 GT DUP3 SWAP1 PUSH2 0x27E6 JUMPI PUSH1 0x40 MLOAD PUSH32 0x8C379A000000000000000000000000000000000000000000000000000000000 DUP2 MSTORE PUSH1 0x4 ADD PUSH2 0x27DD SWAP2 SWAP1 PUSH2 0x2C9A JUMP JUMPDEST PUSH1 0x40 MLOAD DUP1 SWAP2 SUB SWAP1 REVERT JUMPDEST POP PUSH1 0x0 DUP4 DUP6 PUSH2 0x27F5 SWAP2 SWAP1 PUSH2 0x3AAA JUMP JUMPDEST SWAP1 POP DUP1 SWAP2 POP POP SWAP4 SWAP3 POP POP POP JUMP JUMPDEST PUSH1 0x0 DUP1 PUSH1 0x0 PUSH1 0x6 SLOAD SWAP1 POP PUSH1 0x0 PUSH8 0xDE0B6B3A7640000 SWAP1 POP PUSH2 0x2836 PUSH8 0xDE0B6B3A7640000 PUSH1 0x6 SLOAD PUSH2 0x255F SWAP1 SWAP2 SWAP1 PUSH4 0xFFFFFFFF AND JUMP JUMPDEST DUP3 LT ISZERO PUSH2 0x2854 JUMPI PUSH1 0x6 SLOAD PUSH8 0xDE0B6B3A7640000 SWAP4 POP SWAP4 POP POP POP PUSH2 0x285D JUMP JUMPDEST DUP2 DUP2 SWAP4 POP SWAP4 POP POP POP JUMPDEST SWAP1 SWAP2 JUMP JUMPDEST PUSH1 0x0 DUP1 PUSH1 0x0 DUP1 PUSH1 0x0 DUP1 PUSH1 0x0 DUP1 PUSH1 0x0 PUSH2 0x287E DUP11 PUSH1 0xC SLOAD PUSH1 0xD SLOAD PUSH2 0x2A68 JUMP JUMPDEST SWAP3 POP SWAP3 POP SWAP3 POP PUSH1 0x0 PUSH2 0x288E PUSH2 0x25A9 JUMP JUMPDEST SWAP1 POP PUSH1 0x0 DUP1 PUSH1 0x0 PUSH2 0x28A1 DUP15 DUP8 DUP8 DUP8 PUSH2 0x2AFE JUMP JUMPDEST SWAP3 POP SWAP3 POP SWAP3 POP DUP3 DUP3 DUP3 DUP10 DUP10 DUP10 SWAP13 POP SWAP13 POP SWAP13 POP SWAP13 POP SWAP13 POP SWAP13 POP POP POP POP POP POP POP POP SWAP2 SWAP4 SWAP6 POP SWAP2 SWAP4 SWAP6 JUMP JUMPDEST PUSH1 0x0 PUSH2 0x290B DUP4 DUP4 PUSH1 0x40 MLOAD DUP1 PUSH1 0x40 ADD PUSH1 0x40 MSTORE DUP1 PUSH1 0x1E DUP2 MSTORE PUSH1 0x20 ADD PUSH32 0x536166654D6174683A207375627472616374696F6E206F766572666C6F770000 DUP2 MSTORE POP PUSH2 0x2109 JUMP JUMPDEST SWAP1 POP SWAP3 SWAP2 POP POP JUMP JUMPDEST PUSH1 0x0 DUP1 DUP3 DUP5 PUSH2 0x2922 SWAP2 SWAP1 PUSH2 0x3ADB JUMP JUMPDEST SWAP1 POP DUP4 DUP2 LT ISZERO PUSH2 0x2967 JUMPI PUSH1 0x40 MLOAD PUSH32 0x8C379A000000000000000000000000000000000000000000000000000000000 DUP2 MSTORE PUSH1 0x4 ADD PUSH2 0x295E SWAP1 PUSH2 0x3B7D JUMP JUMPDEST PUSH1 0x40 MLOAD DUP1 SWAP2 SUB SWAP1 REVERT JUMPDEST DUP1 SWAP2 POP POP SWAP3 SWAP2 POP POP JUMP JUMPDEST PUSH1 0x0 PUSH2 0x297B PUSH2 0x25A9 JUMP JUMPDEST SWAP1 POP PUSH1 0x0 PUSH2 0x2992 DUP3 DUP5 PUSH2 0x2B87 SWAP1 SWAP2 SWAP1 PUSH4 0xFFFFFFFF AND JUMP JUMPDEST SWAP1 POP PUSH2 0x29E6 DUP2 PUSH1 0x2 PUSH1 0x0 ADDRESS PUSH20 0xFFFFFFFFFFFFFFFFFFFFFFFFFFFFFFFFFFFFFFFF AND PUSH20 0xFFFFFFFFFFFFFFFFFFFFFFFFFFFFFFFFFFFFFFFF AND DUP2 MSTORE PUSH1 0x20 ADD SWAP1 DUP2 MSTORE PUSH1 0x20 ADD PUSH1 0x0 KECCAK256 SLOAD PUSH2 0x2913 SWAP1 SWAP2 SWAP1 PUSH4 0xFFFFFFFF AND JUMP JUMPDEST PUSH1 0x2 PUSH1 0x0 ADDRESS PUSH20 0xFFFFFFFFFFFFFFFFFFFFFFFFFFFFFFFFFFFFFFFF AND PUSH20 0xFFFFFFFFFFFFFFFFFFFFFFFFFFFFFFFFFFFFFFFF AND DUP2 MSTORE PUSH1 0x20 ADD SWAP1 DUP2 MSTORE PUSH1 0x20 ADD PUSH1 0x0 KECCAK256 DUP2 SWAP1 SSTORE POP POP POP POP JUMP JUMPDEST PUSH2 0x2A43 DUP3 PUSH1 0x6 SLOAD PUSH2 0x28C9 SWAP1 SWAP2 SWAP1 PUSH4 0xFFFFFFFF AND JUMP JUMPDEST PUSH1 0x6 DUP2 SWAP1 SSTORE POP PUSH2 0x2A5E DUP2 PUSH1 0x7 SLOAD PUSH2 0x2913 SWAP1 SWAP2 SWAP1 PUSH4 0xFFFFFFFF AND JUMP JUMPDEST PUSH1 0x7 DUP2 SWAP1 SSTORE POP POP POP JUMP JUMPDEST PUSH1 0x0 DUP1 PUSH1 0x0 DUP1 PUSH2 0x2A94 PUSH1 0x64 PUSH2 0x2A86 DUP9 DUP11 PUSH2 0x2B87 SWAP1 SWAP2 SWAP1 PUSH4 0xFFFFFFFF AND JUMP JUMPDEST PUSH2 0x255F SWAP1 SWAP2 SWAP1 PUSH4 0xFFFFFFFF AND JUMP JUMPDEST SWAP1 POP PUSH1 0x0 PUSH2 0x2ABE PUSH1 0x64 PUSH2 0x2AB0 DUP9 DUP12 PUSH2 0x2B87 SWAP1 SWAP2 SWAP1 PUSH4 0xFFFFFFFF AND JUMP JUMPDEST PUSH2 0x255F SWAP1 SWAP2 SWAP1 PUSH4 0xFFFFFFFF AND JUMP JUMPDEST SWAP1 POP PUSH1 0x0 PUSH2 0x2AE7 DUP3 PUSH2 0x2AD9 DUP6 DUP13 PUSH2 0x28C9 SWAP1 SWAP2 SWAP1 PUSH4 0xFFFFFFFF AND JUMP JUMPDEST PUSH2 0x28C9 SWAP1 SWAP2 SWAP1 PUSH4 0xFFFFFFFF AND JUMP JUMPDEST SWAP1 POP DUP1 DUP4 DUP4 SWAP6 POP SWAP6 POP SWAP6 POP POP POP POP SWAP4 POP SWAP4 POP SWAP4 SWAP1 POP JUMP JUMPDEST PUSH1 0x0 DUP1 PUSH1 0x0 DUP1 PUSH2 0x2B17 DUP6 DUP10 PUSH2 0x2B87 SWAP1 SWAP2 SWAP1 PUSH4 0xFFFFFFFF AND JUMP JUMPDEST SWAP1 POP PUSH1 0x0 PUSH2 0x2B2E DUP7 DUP10 PUSH2 0x2B87 SWAP1 SWAP2 SWAP1 PUSH4 0xFFFFFFFF AND JUMP JUMPDEST SWAP1 POP PUSH1 0x0 PUSH2 0x2B45 DUP8 DUP10 PUSH2 0x2B87 SWAP1 SWAP2 SWAP1 PUSH4 0xFFFFFFFF AND JUMP JUMPDEST SWAP1 POP PUSH1 0x0 PUSH2 0x2B6E DUP3 PUSH2 0x2B60 DUP6 DUP8 PUSH2 0x28C9 SWAP1 SWAP2 SWAP1 PUSH4 0xFFFFFFFF AND JUMP JUMPDEST PUSH2 0x28C9 SWAP1 SWAP2 SWAP1 PUSH4 0xFFFFFFFF AND JUMP JUMPDEST SWAP1 POP DUP4 DUP2 DUP5 SWAP7 POP SWAP7 POP SWAP7 POP POP POP POP POP SWAP5 POP SWAP5 POP SWAP5 SWAP2 POP POP JUMP JUMPDEST PUSH1 0x0 DUP1 DUP4 SUB PUSH2 0x2B99 JUMPI PUSH1 0x0 SWAP1 POP PUSH2 0x2BFB JUMP JUMPDEST PUSH1 0x0 DUP3 DUP5 PUSH2 0x2BA7 SWAP2 SWAP1 PUSH2 0x3B9D JUMP JUMPDEST SWAP1 POP DUP3 DUP5 DUP3 PUSH2 0x2BB6 SWAP2 SWAP1 PUSH2 0x3AAA JUMP JUMPDEST EQ PUSH2 0x2BF6 JUMPI PUSH1 0x40 MLOAD PUSH32 0x8C379A000000000000000000000000000000000000000000000000000000000 DUP2 MSTORE PUSH1 0x4 ADD PUSH2 0x2BED SWAP1 PUSH2 0x3C69 JUMP JUMPDEST PUSH1 0x40 MLOAD DUP1 SWAP2 SUB SWAP1 REVERT JUMPDEST DUP1 SWAP2 POP POP JUMPDEST SWAP3 SWAP2 POP POP JUMP JUMPDEST PUSH1 0x0 DUP2 MLOAD SWAP1 POP SWAP2 SWAP1 POP JUMP JUMPDEST PUSH1 0x0 DUP3 DUP3 MSTORE PUSH1 0x20 DUP3 ADD SWAP1 POP SWAP3 SWAP2 POP POP JUMP JUMPDEST PUSH1 0x0 JUMPDEST DUP4 DUP2 LT ISZERO PUSH2 0x2C3B JUMPI DUP1 DUP3 ADD MLOAD DUP2 DUP5 ADD MSTORE PUSH1 0x20 DUP2 ADD SWAP1 POP PUSH2 0x2C20 JUMP JUMPDEST DUP4 DUP2 GT ISZERO PUSH2 0x2C4A JUMPI PUSH1 0x0 DUP5 DUP5 ADD MSTORE JUMPDEST POP POP POP POP JUMP JUMPDEST PUSH1 0x0 PUSH1 0x1F NOT PUSH1 0x1F DUP4 ADD AND SWAP1 POP SWAP2 SWAP1 POP JUMP JUMPDEST PUSH1 0x0 PUSH2 0x2C6C DUP3 PUSH2 0x2C01 JUMP JUMPDEST PUSH2 0x2C76 DUP2 DUP6 PUSH2 0x2C0C JUMP JUMPDEST SWAP4 POP PUSH2 0x2C86 DUP2 DUP6 PUSH1 0x20 DUP7 ADD PUSH2 0x2C1D JUMP JUMPDEST PUSH2 0x2C8F DUP2 PUSH2 0x2C50 JUMP JUMPDEST DUP5 ADD SWAP2 POP POP SWAP3 SWAP2 POP POP JUMP JUMPDEST PUSH1 0x0 PUSH1 0x20 DUP3 ADD SWAP1 POP DUP2 DUP2 SUB PUSH1 0x0 DUP4 ADD MSTORE PUSH2 0x2CB4 DUP2 DUP5 PUSH2 0x2C61 JUMP JUMPDEST SWAP1 POP SWAP3 SWAP2 POP POP JUMP JUMPDEST PUSH1 0x0 DUP1 REVERT JUMPDEST PUSH1 0x0 DUP1 REVERT JUMPDEST PUSH1 0x0 PUSH20 0xFFFFFFFFFFFFFFFFFFFFFFFFFFFFFFFFFFFFFFFF DUP3 AND SWAP1 POP SWAP2 SWAP1 POP JUMP JUMPDEST PUSH1 0x0 PUSH2 0x2CF1 DUP3 PUSH2 0x2CC6 JUMP JUMPDEST SWAP1 POP SWAP2 SWAP1 POP JUMP JUMPDEST PUSH2 0x2D01 DUP2 PUSH2 0x2CE6 JUMP JUMPDEST DUP2 EQ PUSH2 0x2D0C JUMPI PUSH1 0x0 DUP1 REVERT JUMPDEST POP JUMP JUMPDEST PUSH1 0x0 DUP2 CALLDATALOAD SWAP1 POP PUSH2 0x2D1E DUP2 PUSH2 0x2CF8 JUMP JUMPDEST SWAP3 SWAP2 POP POP JUMP JUMPDEST PUSH1 0x0 DUP2 SWAP1 POP SWAP2 SWAP1 POP JUMP JUMPDEST PUSH2 0x2D37 DUP2 PUSH2 0x2D24 JUMP JUMPDEST DUP2 EQ PUSH2 0x2D42 JUMPI PUSH1 0x0 DUP1 REVERT JUMPDEST POP JUMP JUMPDEST PUSH1 0x0 DUP2 CALLDATALOAD SWAP1 POP PUSH2 0x2D54 DUP2 PUSH2 0x2D2E JUMP JUMPDEST SWAP3 SWAP2 POP POP JUMP JUMPDEST PUSH1 0x0 DUP1 PUSH1 0x40 DUP4 DUP6 SUB SLT ISZERO PUSH2 0x2D71 JUMPI PUSH2 0x2D70 PUSH2 0x2CBC JUMP JUMPDEST JUMPDEST PUSH1 0x0 PUSH2 0x2D7F DUP6 DUP3 DUP7 ADD PUSH2 0x2D0F JUMP JUMPDEST SWAP3 POP POP PUSH1 0x20 PUSH2 0x2D90 DUP6 DUP3 DUP7 ADD PUSH2 0x2D45 JUMP JUMPDEST SWAP2 POP POP SWAP3 POP SWAP3 SWAP1 POP JUMP JUMPDEST PUSH1 0x0 DUP2 ISZERO ISZERO SWAP1 POP SWAP2 SWAP1 POP JUMP JUMPDEST PUSH2 0x2DAF DUP2 PUSH2 0x2D9A JUMP JUMPDEST DUP3 MSTORE POP POP JUMP JUMPDEST PUSH1 0x0 PUSH1 0x20 DUP3 ADD SWAP1 POP PUSH2 0x2DCA PUSH1 0x0 DUP4 ADD DUP5 PUSH2 0x2DA6 JUMP JUMPDEST SWAP3 SWAP2 POP POP JUMP JUMPDEST PUSH1 0x0 DUP2 SWAP1 POP SWAP2 SWAP1 POP JUMP JUMPDEST PUSH1 0x0 PUSH2 0x2DF5 PUSH2 0x2DF0 PUSH2 0x2DEB DUP5 PUSH2 0x2CC6 JUMP JUMPDEST PUSH2 0x2DD0 JUMP JUMPDEST PUSH2 0x2CC6 JUMP JUMPDEST SWAP1 POP SWAP2 SWAP1 POP JUMP JUMPDEST PUSH1 0x0 PUSH2 0x2E07 DUP3 PUSH2 0x2DDA JUMP JUMPDEST SWAP1 POP SWAP2 SWAP1 POP JUMP JUMPDEST PUSH1 0x0 PUSH2 0x2E19 DUP3 PUSH2 0x2DFC JUMP JUMPDEST SWAP1 POP SWAP2 SWAP1 POP JUMP JUMPDEST PUSH2 0x2E29 DUP2 PUSH2 0x2E0E JUMP JUMPDEST DUP3 MSTORE POP POP JUMP JUMPDEST PUSH1 0x0 PUSH1 0x20 DUP3 ADD SWAP1 POP PUSH2 0x2E44 PUSH1 0x0 DUP4 ADD DUP5 PUSH2 0x2E20 JUMP JUMPDEST SWAP3 SWAP2 POP POP JUMP JUMPDEST PUSH2 0x2E53 DUP2 PUSH2 0x2D24 JUMP JUMPDEST DUP3 MSTORE POP POP JUMP JUMPDEST PUSH1 0x0 PUSH1 0x20 DUP3 ADD SWAP1 POP PUSH2 0x2E6E PUSH1 0x0 DUP4 ADD DUP5 PUSH2 0x2E4A JUMP JUMPDEST SWAP3 SWAP2 POP POP JUMP JUMPDEST PUSH1 0x0 DUP1 PUSH1 0x0 PUSH1 0x60 DUP5 DUP7 SUB SLT ISZERO PUSH2 0x2E8D JUMPI PUSH2 0x2E8C PUSH2 0x2CBC JUMP JUMPDEST JUMPDEST PUSH1 0x0 PUSH2 0x2E9B DUP7 DUP3 DUP8 ADD PUSH2 0x2D0F JUMP JUMPDEST SWAP4 POP POP PUSH1 0x20 PUSH2 0x2EAC DUP7 DUP3 DUP8 ADD PUSH2 0x2D0F JUMP JUMPDEST SWAP3 POP POP PUSH1 0x40 PUSH2 0x2EBD DUP7 DUP3 DUP8 ADD PUSH2 0x2D45 JUMP JUMPDEST SWAP2 POP POP SWAP3 POP SWAP3 POP SWAP3 JUMP JUMPDEST PUSH1 0x0 PUSH1 0xFF DUP3 AND SWAP1 POP SWAP2 SWAP1 POP JUMP JUMPDEST PUSH2 0x2EDD DUP2 PUSH2 0x2EC7 JUMP JUMPDEST DUP3 MSTORE POP POP JUMP JUMPDEST PUSH1 0x0 PUSH1 0x20 DUP3 ADD SWAP1 POP PUSH2 0x2EF8 PUSH1 0x0 DUP4 ADD DUP5 PUSH2 0x2ED4 JUMP JUMPDEST SWAP3 SWAP2 POP POP JUMP JUMPDEST PUSH2 0x2F07 DUP2 PUSH2 0x2CE6 JUMP JUMPDEST DUP3 MSTORE POP POP JUMP JUMPDEST PUSH1 0x0 PUSH1 0x20 DUP3 ADD SWAP1 POP PUSH2 0x2F22 PUSH1 0x0 DUP4 ADD DUP5 PUSH2 0x2EFE JUMP JUMPDEST SWAP3 SWAP2 POP POP JUMP JUMPDEST PUSH1 0x0 PUSH2 0x2F33 DUP3 PUSH2 0x2DFC JUMP JUMPDEST SWAP1 POP SWAP2 SWAP1 POP JUMP JUMPDEST PUSH2 0x2F43 DUP2 PUSH2 0x2F28 JUMP JUMPDEST DUP3 MSTORE POP POP JUMP JUMPDEST PUSH1 0x0 PUSH1 0x20 DUP3 ADD SWAP1 POP PUSH2 0x2F5E PUSH1 0x0 DUP4 ADD DUP5 PUSH2 0x2F3A JUMP JUMPDEST SWAP3 SWAP2 POP POP JUMP JUMPDEST PUSH2 0x2F6D DUP2 PUSH2 0x2D9A JUMP JUMPDEST DUP2 EQ PUSH2 0x2F78 JUMPI PUSH1 0x0 DUP1 REVERT JUMPDEST POP JUMP JUMPDEST PUSH1 0x0 DUP2 CALLDATALOAD SWAP1 POP PUSH2 0x2F8A DUP2 PUSH2 0x2F64 JUMP JUMPDEST SWAP3 SWAP2 POP POP JUMP JUMPDEST PUSH1 0x0 PUSH1 0x20 DUP3 DUP5 SUB SLT ISZERO PUSH2 0x2FA6 JUMPI PUSH2 0x2FA5 PUSH2 0x2CBC JUMP JUMPDEST JUMPDEST PUSH1 0x0 PUSH2 0x2FB4 DUP5 DUP3 DUP6 ADD PUSH2 0x2F7B JUMP JUMPDEST SWAP2 POP POP SWAP3 SWAP2 POP POP JUMP JUMPDEST PUSH1 0x0 PUSH1 0x20 DUP3 DUP5 SUB SLT ISZERO PUSH2 0x2FD3 JUMPI PUSH2 0x2FD2 PUSH2 0x2CBC JUMP JUMPDEST JUMPDEST PUSH1 0x0 PUSH2 0x2FE1 DUP5 DUP3 DUP6 ADD PUSH2 0x2D0F JUMP JUMPDEST SWAP2 POP POP SWAP3 SWAP2 POP POP JUMP JUMPDEST PUSH1 0x0 PUSH2 0x2FF5 DUP3 PUSH2 0x2CC6 JUMP JUMPDEST SWAP1 POP SWAP2 SWAP1 POP JUMP JUMPDEST PUSH2 0x3005 DUP2 PUSH2 0x2FEA JUMP JUMPDEST DUP2 EQ PUSH2 0x3010 JUMPI PUSH1 0x0 DUP1 REVERT JUMPDEST POP JUMP JUMPDEST PUSH1 0x0 DUP2 CALLDATALOAD SWAP1 POP PUSH2 0x3022 DUP2 PUSH2 0x2FFC JUMP JUMPDEST SWAP3 SWAP2 POP POP JUMP JUMPDEST PUSH1 0x0 PUSH1 0x20 DUP3 DUP5 SUB SLT ISZERO PUSH2 0x303E JUMPI PUSH2 0x303D PUSH2 0x2CBC JUMP JUMPDEST JUMPDEST PUSH1 0x0 PUSH2 0x304C DUP5 DUP3 DUP6 ADD PUSH2 0x3013 JUMP JUMPDEST SWAP2 POP POP SWAP3 SWAP2 POP POP JUMP JUMPDEST PUSH1 0x0 DUP1 PUSH1 0x0 DUP1 PUSH1 0x80 DUP6 DUP8 SUB SLT ISZERO PUSH2 0x306F JUMPI PUSH2 0x306E PUSH2 0x2CBC JUMP JUMPDEST JUMPDEST PUSH1 0x0 PUSH2 0x307D DUP8 DUP3 DUP9 ADD PUSH2 0x2D45 JUMP JUMPDEST SWAP5 POP POP PUSH1 0x20 PUSH2 0x308E DUP8 DUP3 DUP9 ADD PUSH2 0x2D45 JUMP JUMPDEST SWAP4 POP POP PUSH1 0x40 PUSH2 0x309F DUP8 DUP3 DUP9 ADD PUSH2 0x2D45 JUMP JUMPDEST SWAP3 POP POP PUSH1 0x60 PUSH2 0x30B0 DUP8 DUP3 DUP9 ADD PUSH2 0x2D45 JUMP JUMPDEST SWAP2 POP POP SWAP3 SWAP6 SWAP2 SWAP5 POP SWAP3 POP JUMP JUMPDEST PUSH1 0x0 DUP1 REVERT JUMPDEST PUSH1 0x0 DUP1 REVERT JUMPDEST PUSH1 0x0 DUP1 REVERT JUMPDEST PUSH1 0x0 DUP1 DUP4 PUSH1 0x1F DUP5 ADD SLT PUSH2 0x30E1 JUMPI PUSH2 0x30E0 PUSH2 0x30BC JUMP JUMPDEST JUMPDEST DUP3 CALLDATALOAD SWAP1 POP PUSH8 0xFFFFFFFFFFFFFFFF DUP2 GT ISZERO PUSH2 0x30FE JUMPI PUSH2 0x30FD PUSH2 0x30C1 JUMP JUMPDEST JUMPDEST PUSH1 0x20 DUP4 ADD SWAP2 POP DUP4 PUSH1 0x20 DUP3 MUL DUP4 ADD GT ISZERO PUSH2 0x311A JUMPI PUSH2 0x3119 PUSH2 0x30C6 JUMP JUMPDEST JUMPDEST SWAP3 POP SWAP3 SWAP1 POP JUMP JUMPDEST PUSH1 0x0 DUP1 PUSH1 0x0 PUSH1 0x40 DUP5 DUP7 SUB SLT ISZERO PUSH2 0x313A JUMPI PUSH2 0x3139 PUSH2 0x2CBC JUMP JUMPDEST JUMPDEST PUSH1 0x0 DUP5 ADD CALLDATALOAD PUSH8 0xFFFFFFFFFFFFFFFF DUP2 GT ISZERO PUSH2 0x3158 JUMPI PUSH2 0x3157 PUSH2 0x2CC1 JUMP JUMPDEST JUMPDEST PUSH2 0x3164 DUP7 DUP3 DUP8 ADD PUSH2 0x30CB JUMP JUMPDEST SWAP4 POP SWAP4 POP POP PUSH1 0x20 PUSH2 0x3177 DUP7 DUP3 DUP8 ADD PUSH2 0x2F7B JUMP JUMPDEST SWAP2 POP POP SWAP3 POP SWAP3 POP SWAP3 JUMP JUMPDEST PUSH1 0x0 DUP1 PUSH1 0x40 DUP4 DUP6 SUB SLT ISZERO PUSH2 0x3198 JUMPI PUSH2 0x3197 PUSH2 0x2CBC JUMP JUMPDEST JUMPDEST PUSH1 0x0 PUSH2 0x31A6 DUP6 DUP3 DUP7 ADD PUSH2 0x2D0F JUMP JUMPDEST SWAP3 POP POP PUSH1 0x20 PUSH2 0x31B7 DUP6 DUP3 DUP7 ADD PUSH2 0x2D0F JUMP JUMPDEST SWAP2 POP POP SWAP3 POP SWAP3 SWAP1 POP JUMP JUMPDEST PUSH32 0x43616C6C6572206973206E6F7420746865206465760000000000000000000000 PUSH1 0x0 DUP3 ADD MSTORE POP JUMP JUMPDEST PUSH1 0x0 PUSH2 0x31F7 PUSH1 0x15 DUP4 PUSH2 0x2C0C JUMP JUMPDEST SWAP2 POP PUSH2 0x3202 DUP3 PUSH2 0x31C1 JUMP JUMPDEST PUSH1 0x20 DUP3 ADD SWAP1 POP SWAP2 SWAP1 POP JUMP JUMPDEST PUSH1 0x0 PUSH1 0x20 DUP3 ADD SWAP1 POP DUP2 DUP2 SUB PUSH1 0x0 DUP4 ADD MSTORE PUSH2 0x3226 DUP2 PUSH2 0x31EA JUMP JUMPDEST SWAP1 POP SWAP2 SWAP1 POP JUMP JUMPDEST PUSH32 0x43616C6C6572206973206E6F7420746865206F776E6572000000000000000000 PUSH1 0x0 DUP3 ADD MSTORE POP JUMP JUMPDEST PUSH1 0x0 PUSH2 0x3263 PUSH1 0x17 DUP4 PUSH2 0x2C0C JUMP JUMPDEST SWAP2 POP PUSH2 0x326E DUP3 PUSH2 0x322D JUMP JUMPDEST PUSH1 0x20 DUP3 ADD SWAP1 POP SWAP2 SWAP1 POP JUMP JUMPDEST PUSH1 0x0 PUSH1 0x20 DUP3 ADD SWAP1 POP DUP2 DUP2 SUB PUSH1 0x0 DUP4 ADD MSTORE PUSH2 0x3292 DUP2 PUSH2 0x3256 JUMP JUMPDEST SWAP1 POP SWAP2 SWAP1 POP JUMP JUMPDEST PUSH32 0x52656469732063616E6E6F74206265206D6F7265207468616E2031302E000000 PUSH1 0x0 DUP3 ADD MSTORE POP JUMP JUMPDEST PUSH1 0x0 PUSH2 0x32CF PUSH1 0x1D DUP4 PUSH2 0x2C0C JUMP JUMPDEST SWAP2 POP PUSH2 0x32DA DUP3 PUSH2 0x3299 JUMP JUMPDEST PUSH1 0x20 DUP3 ADD SWAP1 POP SWAP2 SWAP1 POP JUMP JUMPDEST PUSH1 0x0 PUSH1 0x20 DUP3 ADD SWAP1 POP DUP2 DUP2 SUB PUSH1 0x0 DUP4 ADD MSTORE PUSH2 0x32FE DUP2 PUSH2 0x32C2 JUMP JUMPDEST SWAP1 POP SWAP2 SWAP1 POP JUMP JUMPDEST PUSH32 0x5461782063616E6E6F74206265206D6F7265207468616E20362E000000000000 PUSH1 0x0 DUP3 ADD MSTORE POP JUMP JUMPDEST PUSH1 0x0 PUSH2 0x333B PUSH1 0x1A DUP4 PUSH2 0x2C0C JUMP JUMPDEST SWAP2 POP PUSH2 0x3346 DUP3 PUSH2 0x3305 JUMP JUMPDEST PUSH1 0x20 DUP3 ADD SWAP1 POP SWAP2 SWAP1 POP JUMP JUMPDEST PUSH1 0x0 PUSH1 0x20 DUP3 ADD SWAP1 POP DUP2 DUP2 SUB PUSH1 0x0 DUP4 ADD MSTORE PUSH2 0x336A DUP2 PUSH2 0x332E JUMP JUMPDEST SWAP1 POP SWAP2 SWAP1 POP JUMP JUMPDEST PUSH32 0x4E487B7100000000000000000000000000000000000000000000000000000000 PUSH1 0x0 MSTORE PUSH1 0x32 PUSH1 0x4 MSTORE PUSH1 0x24 PUSH1 0x0 REVERT JUMPDEST PUSH32 0x4E487B7100000000000000000000000000000000000000000000000000000000 PUSH1 0x0 MSTORE PUSH1 0x11 PUSH1 0x4 MSTORE PUSH1 0x24 PUSH1 0x0 REVERT JUMPDEST PUSH1 0x0 PUSH2 0x33DA DUP3 PUSH2 0x2D24 JUMP JUMPDEST SWAP2 POP PUSH32 0xFFFFFFFFFFFFFFFFFFFFFFFFFFFFFFFFFFFFFFFFFFFFFFFFFFFFFFFFFFFFFFFF DUP3 SUB PUSH2 0x340C JUMPI PUSH2 0x340B PUSH2 0x33A0 JUMP JUMPDEST JUMPDEST PUSH1 0x1 DUP3 ADD SWAP1 POP SWAP2 SWAP1 POP JUMP JUMPDEST PUSH32 0x4163746976656420706169720000000000000000000000000000000000000000 PUSH1 0x0 DUP3 ADD MSTORE POP JUMP JUMPDEST PUSH1 0x0 PUSH2 0x344D PUSH1 0xC DUP4 PUSH2 0x2C0C JUMP JUMPDEST SWAP2 POP PUSH2 0x3458 DUP3 PUSH2 0x3417 JUMP JUMPDEST PUSH1 0x20 DUP3 ADD SWAP1 POP SWAP2 SWAP1 POP JUMP JUMPDEST PUSH1 0x0 PUSH1 0x20 DUP3 ADD SWAP1 POP DUP2 DUP2 SUB PUSH1 0x0 DUP4 ADD MSTORE PUSH2 0x347C DUP2 PUSH2 0x3440 JUMP JUMPDEST SWAP1 POP SWAP2 SWAP1 POP JUMP JUMPDEST PUSH1 0x0 PUSH1 0x40 DUP3 ADD SWAP1 POP PUSH2 0x3498 PUSH1 0x0 DUP4 ADD DUP6 PUSH2 0x2EFE JUMP JUMPDEST PUSH2 0x34A5 PUSH1 0x20 DUP4 ADD DUP5 PUSH2 0x2EFE JUMP JUMPDEST SWAP4 SWAP3 POP POP POP JUMP JUMPDEST PUSH1 0x0 DUP2 MLOAD SWAP1 POP PUSH2 0x34BB DUP2 PUSH2 0x2CF8 JUMP JUMPDEST SWAP3 SWAP2 POP POP JUMP JUMPDEST PUSH1 0x0 PUSH1 0x20 DUP3 DUP5 SUB SLT ISZERO PUSH2 0x34D7 JUMPI PUSH2 0x34D6 PUSH2 0x2CBC JUMP JUMPDEST JUMPDEST PUSH1 0x0 PUSH2 0x34E5 DUP5 DUP3 DUP6 ADD PUSH2 0x34AC JUMP JUMPDEST SWAP2 POP POP SWAP3 SWAP2 POP POP JUMP JUMPDEST PUSH1 0x0 PUSH1 0x40 DUP3 ADD SWAP1 POP PUSH2 0x3503 PUSH1 0x0 DUP4 ADD DUP6 PUSH2 0x2EFE JUMP JUMPDEST PUSH2 0x3510 PUSH1 0x20 DUP4 ADD DUP5 PUSH2 0x2E4A JUMP JUMPDEST SWAP4 SWAP3 POP POP POP JUMP JUMPDEST PUSH1 0x0 DUP2 MLOAD SWAP1 POP PUSH2 0x3526 DUP2 PUSH2 0x2F64 JUMP JUMPDEST SWAP3 SWAP2 POP POP JUMP JUMPDEST PUSH1 0x0 PUSH1 0x20 DUP3 DUP5 SUB SLT ISZERO PUSH2 0x3542 JUMPI PUSH2 0x3541 PUSH2 0x2CBC JUMP JUMPDEST JUMPDEST PUSH1 0x0 PUSH2 0x3550 DUP5 DUP3 DUP6 ADD PUSH2 0x3517 JUMP JUMPDEST SWAP2 POP POP SWAP3 SWAP2 POP POP JUMP JUMPDEST PUSH32 0x45524332303A20617070726F76652066726F6D20746865207A65726F20616464 PUSH1 0x0 DUP3 ADD MSTORE PUSH32 0x7265737300000000000000000000000000000000000000000000000000000000 PUSH1 0x20 DUP3 ADD MSTORE POP JUMP JUMPDEST PUSH1 0x0 PUSH2 0x35B5 PUSH1 0x24 DUP4 PUSH2 0x2C0C JUMP JUMPDEST SWAP2 POP PUSH2 0x35C0 DUP3 PUSH2 0x3559 JUMP JUMPDEST PUSH1 0x40 DUP3 ADD SWAP1 POP SWAP2 SWAP1 POP JUMP JUMPDEST PUSH1 0x0 PUSH1 0x20 DUP3 ADD SWAP1 POP DUP2 DUP2 SUB PUSH1 0x0 DUP4 ADD MSTORE PUSH2 0x35E4 DUP2 PUSH2 0x35A8 JUMP JUMPDEST SWAP1 POP SWAP2 SWAP1 POP JUMP JUMPDEST PUSH32 0x45524332303A20617070726F766520746F20746865207A65726F206164647265 PUSH1 0x0 DUP3 ADD MSTORE PUSH32 0x7373000000000000000000000000000000000000000000000000000000000000 PUSH1 0x20 DUP3 ADD MSTORE POP JUMP JUMPDEST PUSH1 0x0 PUSH2 0x3647 PUSH1 0x22 DUP4 PUSH2 0x2C0C JUMP JUMPDEST SWAP2 POP PUSH2 0x3652 DUP3 PUSH2 0x35EB JUMP JUMPDEST PUSH1 0x40 DUP3 ADD SWAP1 POP SWAP2 SWAP1 POP JUMP JUMPDEST PUSH1 0x0 PUSH1 0x20 DUP3 ADD SWAP1 POP DUP2 DUP2 SUB PUSH1 0x0 DUP4 ADD MSTORE PUSH2 0x3676 DUP2 PUSH2 0x363A JUMP JUMPDEST SWAP1 POP SWAP2 SWAP1 POP JUMP JUMPDEST PUSH32 0x45524332303A207472616E736665722066726F6D20746865207A65726F206164 PUSH1 0x0 DUP3 ADD MSTORE PUSH32 0x6472657373000000000000000000000000000000000000000000000000000000 PUSH1 0x20 DUP3 ADD MSTORE POP JUMP JUMPDEST PUSH1 0x0 PUSH2 0x36D9 PUSH1 0x25 DUP4 PUSH2 0x2C0C JUMP JUMPDEST SWAP2 POP PUSH2 0x36E4 DUP3 PUSH2 0x367D JUMP JUMPDEST PUSH1 0x40 DUP3 ADD SWAP1 POP SWAP2 SWAP1 POP JUMP JUMPDEST PUSH1 0x0 PUSH1 0x20 DUP3 ADD SWAP1 POP DUP2 DUP2 SUB PUSH1 0x0 DUP4 ADD MSTORE PUSH2 0x3708 DUP2 PUSH2 0x36CC JUMP JUMPDEST SWAP1 POP SWAP2 SWAP1 POP JUMP JUMPDEST PUSH32 0x45524332303A207472616E7366657220746F20746865207A65726F2061646472 PUSH1 0x0 DUP3 ADD MSTORE PUSH32 0x6573730000000000000000000000000000000000000000000000000000000000 PUSH1 0x20 DUP3 ADD MSTORE POP JUMP JUMPDEST PUSH1 0x0 PUSH2 0x376B PUSH1 0x23 DUP4 PUSH2 0x2C0C JUMP JUMPDEST SWAP2 POP PUSH2 0x3776 DUP3 PUSH2 0x370F JUMP JUMPDEST PUSH1 0x40 DUP3 ADD SWAP1 POP SWAP2 SWAP1 POP JUMP JUMPDEST PUSH1 0x0 PUSH1 0x20 DUP3 ADD SWAP1 POP DUP2 DUP2 SUB PUSH1 0x0 DUP4 ADD MSTORE PUSH2 0x379A DUP2 PUSH2 0x375E JUMP JUMPDEST SWAP1 POP SWAP2 SWAP1 POP JUMP JUMPDEST PUSH32 0x5472616E7366657220616D6F756E74206D757374206265206772656174657220 PUSH1 0x0 DUP3 ADD MSTORE PUSH32 0x7468616E207A65726F0000000000000000000000000000000000000000000000 PUSH1 0x20 DUP3 ADD MSTORE POP JUMP JUMPDEST PUSH1 0x0 PUSH2 0x37FD PUSH1 0x29 DUP4 PUSH2 0x2C0C JUMP JUMPDEST SWAP2 POP PUSH2 0x3808 DUP3 PUSH2 0x37A1 JUMP JUMPDEST PUSH1 0x40 DUP3 ADD SWAP1 POP SWAP2 SWAP1 POP JUMP JUMPDEST PUSH1 0x0 PUSH1 0x20 DUP3 ADD SWAP1 POP DUP2 DUP2 SUB PUSH1 0x0 DUP4 ADD MSTORE PUSH2 0x382C DUP2 PUSH2 0x37F0 JUMP JUMPDEST SWAP1 POP SWAP2 SWAP1 POP JUMP JUMPDEST PUSH1 0x0 PUSH2 0x383E DUP3 PUSH2 0x2D24 JUMP JUMPDEST SWAP2 POP PUSH2 0x3849 DUP4 PUSH2 0x2D24 JUMP JUMPDEST SWAP3 POP DUP3 DUP3 LT ISZERO PUSH2 0x385C JUMPI PUSH2 0x385B PUSH2 0x33A0 JUMP JUMPDEST JUMPDEST DUP3 DUP3 SUB SWAP1 POP SWAP3 SWAP2 POP POP JUMP JUMPDEST PUSH32 0x416D6F756E74206D757374206265206C657373207468616E20746F74616C2072 PUSH1 0x0 DUP3 ADD MSTORE PUSH32 0x65666C656374696F6E7300000000000000000000000000000000000000000000 PUSH1 0x20 DUP3 ADD MSTORE POP JUMP JUMPDEST PUSH1 0x0 PUSH2 0x38C3 PUSH1 0x2A DUP4 PUSH2 0x2C0C JUMP JUMPDEST SWAP2 POP PUSH2 0x38CE DUP3 PUSH2 0x3867 JUMP JUMPDEST PUSH1 0x40 DUP3 ADD SWAP1 POP SWAP2 SWAP1 POP JUMP JUMPDEST PUSH1 0x0 PUSH1 0x20 DUP3 ADD SWAP1 POP DUP2 DUP2 SUB PUSH1 0x0 DUP4 ADD MSTORE PUSH2 0x38F2 DUP2 PUSH2 0x38B6 JUMP JUMPDEST SWAP1 POP SWAP2 SWAP1 POP JUMP JUMPDEST PUSH32 0x4E487B7100000000000000000000000000000000000000000000000000000000 PUSH1 0x0 MSTORE PUSH1 0x41 PUSH1 0x4 MSTORE PUSH1 0x24 PUSH1 0x0 REVERT JUMPDEST PUSH1 0x0 DUP2 SWAP1 POP SWAP2 SWAP1 POP JUMP JUMPDEST PUSH1 0x0 PUSH2 0x394D PUSH2 0x3948 PUSH2 0x3943 DUP5 PUSH2 0x3928 JUMP JUMPDEST PUSH2 0x2DD0 JUMP JUMPDEST PUSH2 0x2D24 JUMP JUMPDEST SWAP1 POP SWAP2 SWAP1 POP JUMP JUMPDEST PUSH2 0x395D DUP2 PUSH2 0x3932 JUMP JUMPDEST DUP3 MSTORE POP POP JUMP JUMPDEST PUSH1 0x0 DUP2 MLOAD SWAP1 POP SWAP2 SWAP1 POP JUMP JUMPDEST PUSH1 0x0 DUP3 DUP3 MSTORE PUSH1 0x20 DUP3 ADD SWAP1 POP SWAP3 SWAP2 POP POP JUMP JUMPDEST PUSH1 0x0 DUP2 SWAP1 POP PUSH1 0x20 DUP3 ADD SWAP1 POP SWAP2 SWAP1 POP JUMP JUMPDEST PUSH2 0x3998 DUP2 PUSH2 0x2CE6 JUMP JUMPDEST DUP3 MSTORE POP POP JUMP JUMPDEST PUSH1 0x0 PUSH2 0x39AA DUP4 DUP4 PUSH2 0x398F JUMP JUMPDEST PUSH1 0x20 DUP4 ADD SWAP1 POP SWAP3 SWAP2 POP POP JUMP JUMPDEST PUSH1 0x0 PUSH1 0x20 DUP3 ADD SWAP1 POP SWAP2 SWAP1 POP JUMP JUMPDEST PUSH1 0x0 PUSH2 0x39CE DUP3 PUSH2 0x3963 JUMP JUMPDEST PUSH2 0x39D8 DUP2 DUP6 PUSH2 0x396E JUMP JUMPDEST SWAP4 POP PUSH2 0x39E3 DUP4 PUSH2 0x397F JUMP JUMPDEST DUP1 PUSH1 0x0 JUMPDEST DUP4 DUP2 LT ISZERO PUSH2 0x3A14 JUMPI DUP2 MLOAD PUSH2 0x39FB DUP9 DUP3 PUSH2 0x399E JUMP JUMPDEST SWAP8 POP PUSH2 0x3A06 DUP4 PUSH2 0x39B6 JUMP JUMPDEST SWAP3 POP POP PUSH1 0x1 DUP2 ADD SWAP1 POP PUSH2 0x39E7 JUMP JUMPDEST POP DUP6 SWAP4 POP POP POP POP SWAP3 SWAP2 POP POP JUMP JUMPDEST PUSH1 0x0 PUSH1 0xA0 DUP3 ADD SWAP1 POP PUSH2 0x3A36 PUSH1 0x0 DUP4 ADD DUP9 PUSH2 0x2E4A JUMP JUMPDEST PUSH2 0x3A43 PUSH1 0x20 DUP4 ADD DUP8 PUSH2 0x3954 JUMP JUMPDEST DUP2 DUP2 SUB PUSH1 0x40 DUP4 ADD MSTORE PUSH2 0x3A55 DUP2 DUP7 PUSH2 0x39C3 JUMP JUMPDEST SWAP1 POP PUSH2 0x3A64 PUSH1 0x60 DUP4 ADD DUP6 PUSH2 0x2EFE JUMP JUMPDEST PUSH2 0x3A71 PUSH1 0x80 DUP4 ADD DUP5 PUSH2 0x2E4A JUMP JUMPDEST SWAP7 SWAP6 POP POP POP POP POP POP JUMP JUMPDEST PUSH32 0x4E487B7100000000000000000000000000000000000000000000000000000000 PUSH1 0x0 MSTORE PUSH1 0x12 PUSH1 0x4 MSTORE PUSH1 0x24 PUSH1 0x0 REVERT JUMPDEST PUSH1 0x0 PUSH2 0x3AB5 DUP3 PUSH2 0x2D24 JUMP JUMPDEST SWAP2 POP PUSH2 0x3AC0 DUP4 PUSH2 0x2D24 JUMP JUMPDEST SWAP3 POP DUP3 PUSH2 0x3AD0 JUMPI PUSH2 0x3ACF PUSH2 0x3A7B JUMP JUMPDEST JUMPDEST DUP3 DUP3 DIV SWAP1 POP SWAP3 SWAP2 POP POP JUMP JUMPDEST PUSH1 0x0 PUSH2 0x3AE6 DUP3 PUSH2 0x2D24 JUMP JUMPDEST SWAP2 POP PUSH2 0x3AF1 DUP4 PUSH2 0x2D24 JUMP JUMPDEST SWAP3 POP DUP3 PUSH32 0xFFFFFFFFFFFFFFFFFFFFFFFFFFFFFFFFFFFFFFFFFFFFFFFFFFFFFFFFFFFFFFFF SUB DUP3 GT ISZERO PUSH2 0x3B26 JUMPI PUSH2 0x3B25 PUSH2 0x33A0 JUMP JUMPDEST JUMPDEST DUP3 DUP3 ADD SWAP1 POP SWAP3 SWAP2 POP POP JUMP JUMPDEST PUSH32 0x536166654D6174683A206164646974696F6E206F766572666C6F770000000000 PUSH1 0x0 DUP3 ADD MSTORE POP JUMP JUMPDEST PUSH1 0x0 PUSH2 0x3B67 PUSH1 0x1B DUP4 PUSH2 0x2C0C JUMP JUMPDEST SWAP2 POP PUSH2 0x3B72 DUP3 PUSH2 0x3B31 JUMP JUMPDEST PUSH1 0x20 DUP3 ADD SWAP1 POP SWAP2 SWAP1 POP JUMP JUMPDEST PUSH1 0x0 PUSH1 0x20 DUP3 ADD SWAP1 POP DUP2 DUP2 SUB PUSH1 0x0 DUP4 ADD MSTORE PUSH2 0x3B96 DUP2 PUSH2 0x3B5A JUMP JUMPDEST SWAP1 POP SWAP2 SWAP1 POP JUMP JUMPDEST PUSH1 0x0 PUSH2 0x3BA8 DUP3 PUSH2 0x2D24 JUMP JUMPDEST SWAP2 POP PUSH2 0x3BB3 DUP4 PUSH2 0x2D24 JUMP JUMPDEST SWAP3 POP DUP2 PUSH32 0xFFFFFFFFFFFFFFFFFFFFFFFFFFFFFFFFFFFFFFFFFFFFFFFFFFFFFFFFFFFFFFFF DIV DUP4 GT DUP3 ISZERO ISZERO AND ISZERO PUSH2 0x3BEC JUMPI PUSH2 0x3BEB PUSH2 0x33A0 JUMP JUMPDEST JUMPDEST DUP3 DUP3 MUL SWAP1 POP SWAP3 SWAP2 POP POP JUMP JUMPDEST PUSH32 0x536166654D6174683A206D756C7469706C69636174696F6E206F766572666C6F PUSH1 0x0 DUP3 ADD MSTORE PUSH32 0x7700000000000000000000000000000000000000000000000000000000000000 PUSH1 0x20 DUP3 ADD MSTORE POP JUMP JUMPDEST PUSH1 0x0 PUSH2 0x3C53 PUSH1 0x21 DUP4 PUSH2 0x2C0C JUMP JUMPDEST SWAP2 POP PUSH2 0x3C5E DUP3 PUSH2 0x3BF7 JUMP JUMPDEST PUSH1 0x40 DUP3 ADD SWAP1 POP SWAP2 SWAP1 POP JUMP JUMPDEST PUSH1 0x0 PUSH1 0x20 DUP3 ADD SWAP1 POP DUP2 DUP2 SUB PUSH1 0x0 DUP4 ADD MSTORE PUSH2 0x3C82 DUP2 PUSH2 0x3C46 JUMP JUMPDEST SWAP1 POP SWAP2 SWAP1 POP JUMP INVALID GASLIMIT MSTORE NUMBER ORIGIN ADDRESS GASPRICE KECCAK256 PUSH21 0x72616E7366657220616D6F756E7420657863656564 PUSH20 0x20616C6C6F77616E6365A2646970667358221220 0xAF 0xF9 SGT 0xB4 0xB8 0xCD PUSH2 0x1267 GASPRICE CREATE 0xC5 REVERT PUSH28 0x18C793554AA6BBCED16D47537A4B70107CEE64736F6C634300080D00 CALLER "
				},
				"gasEstimates": {
					"creation": {
						"codeDepositCost": "3118200",
						"executionCost": "infinite",
						"totalCost": "infinite"
					},
					"external": {
						"_factory()": "2603",
						"allowance(address,address)": "infinite",
						"approve(address,uint256)": "infinite",
						"balanceOf(address)": "infinite",
						"decimals()": "477",
						"excludeMultipleAccountsFromFees(address[],bool)": "infinite",
						"manualsend()": "infinite",
						"manualswap()": "infinite",
						"name()": "infinite",
						"owner()": "2567",
						"renounceOwnership()": "30424",
						"rescueForeignTokens(address,address,uint256)": "infinite",
						"setFee(uint256,uint256,uint256,uint256)": "infinite",
						"setNewDevAddress(address)": "infinite",
						"setNewMarketingAddress(address)": "infinite",
						"settingPair(address)": "infinite",
						"symbol()": "infinite",
						"toggleSwap(bool)": "infinite",
						"totalSupply()": "427",
						"transfer(address,uint256)": "infinite",
						"transferFrom(address,address,uint256)": "infinite",
						"transferOwnership(address)": "30712",
						"uniswapV2Factory()": "infinite",
						"uniswapV2Pair()": "2537",
						"uniswapV2Router()": "infinite"
					},
					"internal": {
						"_approve(address,address,uint256)": "infinite",
						"_getCurrentSupply()": "infinite",
						"_getRValues(uint256,uint256,uint256,uint256)": "infinite",
						"_getRate()": "infinite",
						"_getTValues(uint256,uint256,uint256)": "infinite",
						"_getValues(uint256)": "infinite",
						"_reflectFee(uint256,uint256)": "infinite",
						"_takeTeam(uint256)": "infinite",
						"_tokenTransfer(address,address,uint256)": "infinite",
						"_transfer(address,address,uint256)": "infinite",
						"_transferStandard(address,address,uint256)": "infinite",
						"sendETHToFee(uint256)": "infinite",
						"swapTokensForEth(uint256)": "infinite",
						"tokenFromReflection(uint256)": "infinite"
					}
				},
				"methodIdentifiers": {
					"_factory()": "c5cc6b6a",
					"allowance(address,address)": "dd62ed3e",
					"approve(address,uint256)": "095ea7b3",
					"balanceOf(address)": "70a08231",
					"decimals()": "313ce567",
					"excludeMultipleAccountsFromFees(address[],bool)": "c492f046",
					"manualsend()": "6fc3eaec",
					"manualswap()": "c3c8cd80",
					"name()": "06fdde03",
					"owner()": "8da5cb5b",
					"renounceOwnership()": "715018a6",
					"rescueForeignTokens(address,address,uint256)": "e293d316",
					"setFee(uint256,uint256,uint256,uint256)": "a2a957bb",
					"setNewDevAddress(address)": "aad5c023",
					"setNewMarketingAddress(address)": "758dbe03",
					"settingPair(address)": "ce4224c5",
					"symbol()": "95d89b41",
					"toggleSwap(bool)": "6d8aa8f8",
					"totalSupply()": "18160ddd",
					"transfer(address,uint256)": "a9059cbb",
					"transferFrom(address,address,uint256)": "23b872dd",
					"transferOwnership(address)": "f2fde38b",
					"uniswapV2Factory()": "59d0f713",
					"uniswapV2Pair()": "49bd5a5e",
					"uniswapV2Router()": "1694505e"
				}
			},
			"storageLayout": {
				"storage": [
					{
						"astId": 305,
						"contract": "contracts/Pool/Pool.sol:World_Step",
						"label": "_owner",
						"offset": 0,
						"slot": "0",
						"type": "t_address"
					},
					{
						"astId": 307,
						"contract": "contracts/Pool/Pool.sol:World_Step",
						"label": "_previousOwner",
						"offset": 0,
						"slot": "1",
						"type": "t_address"
					},
					{
						"astId": 406,
						"contract": "contracts/Pool/Pool.sol:World_Step",
						"label": "_rOwned",
						"offset": 0,
						"slot": "2",
						"type": "t_mapping(t_address,t_uint256)"
					},
					{
						"astId": 410,
						"contract": "contracts/Pool/Pool.sol:World_Step",
						"label": "_tOwned",
						"offset": 0,
						"slot": "3",
						"type": "t_mapping(t_address,t_uint256)"
					},
					{
						"astId": 416,
						"contract": "contracts/Pool/Pool.sol:World_Step",
						"label": "_allowances",
						"offset": 0,
						"slot": "4",
						"type": "t_mapping(t_address,t_mapping(t_address,t_uint256))"
					},
					{
						"astId": 420,
						"contract": "contracts/Pool/Pool.sol:World_Step",
						"label": "_isExcludedFromFee",
						"offset": 0,
						"slot": "5",
						"type": "t_mapping(t_address,t_bool)"
					},
					{
						"astId": 451,
						"contract": "contracts/Pool/Pool.sol:World_Step",
						"label": "_rTotal",
						"offset": 0,
						"slot": "6",
						"type": "t_uint256"
					},
					{
						"astId": 453,
						"contract": "contracts/Pool/Pool.sol:World_Step",
						"label": "_tFeeTotal",
						"offset": 0,
						"slot": "7",
						"type": "t_uint256"
					},
					{
						"astId": 456,
						"contract": "contracts/Pool/Pool.sol:World_Step",
						"label": "_redisFeeOnBuy",
						"offset": 0,
						"slot": "8",
						"type": "t_uint256"
					},
					{
						"astId": 459,
						"contract": "contracts/Pool/Pool.sol:World_Step",
						"label": "_taxFeeOnBuy",
						"offset": 0,
						"slot": "9",
						"type": "t_uint256"
					},
					{
						"astId": 462,
						"contract": "contracts/Pool/Pool.sol:World_Step",
						"label": "_redisFeeOnSell",
						"offset": 0,
						"slot": "10",
						"type": "t_uint256"
					},
					{
						"astId": 465,
						"contract": "contracts/Pool/Pool.sol:World_Step",
						"label": "_taxFeeOnSell",
						"offset": 0,
						"slot": "11",
						"type": "t_uint256"
					},
					{
						"astId": 467,
						"contract": "contracts/Pool/Pool.sol:World_Step",
						"label": "_redisFee",
						"offset": 0,
						"slot": "12",
						"type": "t_uint256"
					},
					{
						"astId": 469,
						"contract": "contracts/Pool/Pool.sol:World_Step",
						"label": "_taxFee",
						"offset": 0,
						"slot": "13",
						"type": "t_uint256"
					},
					{
						"astId": 472,
						"contract": "contracts/Pool/Pool.sol:World_Step",
						"label": "_activePair",
						"offset": 0,
						"slot": "14",
						"type": "t_bool"
					},
					{
						"astId": 487,
						"contract": "contracts/Pool/Pool.sol:World_Step",
						"label": "_developmentAddress",
						"offset": 1,
						"slot": "14",
						"type": "t_address_payable"
					},
					{
						"astId": 493,
						"contract": "contracts/Pool/Pool.sol:World_Step",
						"label": "_marketingAddress",
						"offset": 0,
						"slot": "15",
						"type": "t_address_payable"
					},
					{
						"astId": 496,
						"contract": "contracts/Pool/Pool.sol:World_Step",
						"label": "uniswapV2Router",
						"offset": 0,
						"slot": "16",
						"type": "t_contract(IUniswapV2Router02)145"
					},
					{
						"astId": 499,
						"contract": "contracts/Pool/Pool.sol:World_Step",
						"label": "uniswapV2Factory",
						"offset": 0,
						"slot": "17",
						"type": "t_contract(IUniswapV2Factory)99"
					},
					{
						"astId": 501,
						"contract": "contracts/Pool/Pool.sol:World_Step",
						"label": "_factory",
						"offset": 0,
						"slot": "18",
						"type": "t_address"
					},
					{
						"astId": 503,
						"contract": "contracts/Pool/Pool.sol:World_Step",
						"label": "uniswapV2Pair",
						"offset": 0,
						"slot": "19",
						"type": "t_address"
					},
					{
						"astId": 506,
						"contract": "contracts/Pool/Pool.sol:World_Step",
						"label": "inSwap",
						"offset": 20,
						"slot": "19",
						"type": "t_bool"
					},
					{
						"astId": 509,
						"contract": "contracts/Pool/Pool.sol:World_Step",
						"label": "swapEnabled",
						"offset": 21,
						"slot": "19",
						"type": "t_bool"
					}
				],
				"types": {
					"t_address": {
						"encoding": "inplace",
						"label": "address",
						"numberOfBytes": "20"
					},
					"t_address_payable": {
						"encoding": "inplace",
						"label": "address payable",
						"numberOfBytes": "20"
					},
					"t_bool": {
						"encoding": "inplace",
						"label": "bool",
						"numberOfBytes": "1"
					},
					"t_contract(IUniswapV2Factory)99": {
						"encoding": "inplace",
						"label": "contract IUniswapV2Factory",
						"numberOfBytes": "20"
					},
					"t_contract(IUniswapV2Router02)145": {
						"encoding": "inplace",
						"label": "contract IUniswapV2Router02",
						"numberOfBytes": "20"
					},
					"t_mapping(t_address,t_bool)": {
						"encoding": "mapping",
						"key": "t_address",
						"label": "mapping(address => bool)",
						"numberOfBytes": "32",
						"value": "t_bool"
					},
					"t_mapping(t_address,t_mapping(t_address,t_uint256))": {
						"encoding": "mapping",
						"key": "t_address",
						"label": "mapping(address => mapping(address => uint256))",
						"numberOfBytes": "32",
						"value": "t_mapping(t_address,t_uint256)"
					},
					"t_mapping(t_address,t_uint256)": {
						"encoding": "mapping",
						"key": "t_address",
						"label": "mapping(address => uint256)",
						"numberOfBytes": "32",
						"value": "t_uint256"
					},
					"t_uint256": {
						"encoding": "inplace",
						"label": "uint256",
						"numberOfBytes": "32"
					}
				}
			},
			"userdoc": {
				"kind": "user",
				"methods": {},
				"version": 1
			}
		}
	}
}