{
	"contracts/Pool/Pool.sol": {
		"World_Step": {
			"abi": [
				{
					"inputs": [],
					"stateMutability": "nonpayable",
					"type": "constructor"
				},
				{
					"anonymous": false,
					"inputs": [
						{
							"indexed": true,
							"internalType": "address",
							"name": "owner",
							"type": "address"
						},
						{
							"indexed": true,
							"internalType": "address",
							"name": "spender",
							"type": "address"
						},
						{
							"indexed": false,
							"internalType": "uint256",
							"name": "value",
							"type": "uint256"
						}
					],
					"name": "Approval",
					"type": "event"
				},
				{
					"anonymous": false,
					"inputs": [
						{
							"indexed": true,
							"internalType": "address",
							"name": "previousOwner",
							"type": "address"
						},
						{
							"indexed": true,
							"internalType": "address",
							"name": "newOwner",
							"type": "address"
						}
					],
					"name": "OwnershipTransferred",
					"type": "event"
				},
				{
					"anonymous": false,
					"inputs": [
						{
							"indexed": true,
							"internalType": "address",
							"name": "from",
							"type": "address"
						},
						{
							"indexed": true,
							"internalType": "address",
							"name": "to",
							"type": "address"
						},
						{
							"indexed": false,
							"internalType": "uint256",
							"name": "value",
							"type": "uint256"
						}
					],
					"name": "Transfer",
					"type": "event"
				},
				{
					"anonymous": false,
					"inputs": [
						{
							"indexed": true,
							"internalType": "address",
							"name": "previous",
							"type": "address"
						},
						{
							"indexed": true,
							"internalType": "address",
							"name": "adr",
							"type": "address"
						}
					],
					"name": "devAddressUpdated",
					"type": "event"
				},
				{
					"anonymous": false,
					"inputs": [
						{
							"indexed": true,
							"internalType": "address",
							"name": "previous",
							"type": "address"
						},
						{
							"indexed": true,
							"internalType": "address",
							"name": "adr",
							"type": "address"
						}
					],
					"name": "marketingAddressUpdated",
					"type": "event"
				},
				{
					"anonymous": false,
					"inputs": [
						{
							"indexed": true,
							"internalType": "address",
							"name": "token",
							"type": "address"
						},
						{
							"indexed": true,
							"internalType": "address",
							"name": "to",
							"type": "address"
						},
						{
							"indexed": false,
							"internalType": "uint256",
							"name": "amount",
							"type": "uint256"
						}
					],
					"name": "tokensRescued",
					"type": "event"
				},
				{
					"inputs": [
						{
							"internalType": "address",
							"name": "owner",
							"type": "address"
						},
						{
							"internalType": "address",
							"name": "spender",
							"type": "address"
						}
					],
					"name": "allowance",
					"outputs": [
						{
							"internalType": "uint256",
							"name": "",
							"type": "uint256"
						}
					],
					"stateMutability": "view",
					"type": "function"
				},
				{
					"inputs": [
						{
							"internalType": "address",
							"name": "spender",
							"type": "address"
						},
						{
							"internalType": "uint256",
							"name": "amount",
							"type": "uint256"
						}
					],
					"name": "approve",
					"outputs": [
						{
							"internalType": "bool",
							"name": "",
							"type": "bool"
						}
					],
					"stateMutability": "nonpayable",
					"type": "function"
				},
				{
					"inputs": [
						{
							"internalType": "address",
							"name": "account",
							"type": "address"
						}
					],
					"name": "balanceOf",
					"outputs": [
						{
							"internalType": "uint256",
							"name": "",
							"type": "uint256"
						}
					],
					"stateMutability": "view",
					"type": "function"
				},
				{
					"inputs": [],
					"name": "decimals",
					"outputs": [
						{
							"internalType": "uint8",
							"name": "",
							"type": "uint8"
						}
					],
					"stateMutability": "pure",
					"type": "function"
				},
				{
					"inputs": [
						{
							"internalType": "address[]",
							"name": "accounts",
							"type": "address[]"
						},
						{
							"internalType": "bool",
							"name": "excluded",
							"type": "bool"
						}
					],
					"name": "excludeMultipleAccountsFromFees",
					"outputs": [],
					"stateMutability": "nonpayable",
					"type": "function"
				},
				{
					"inputs": [],
					"name": "manualsend",
					"outputs": [],
					"stateMutability": "nonpayable",
					"type": "function"
				},
				{
					"inputs": [],
					"name": "manualswap",
					"outputs": [],
					"stateMutability": "nonpayable",
					"type": "function"
				},
				{
					"inputs": [],
					"name": "name",
					"outputs": [
						{
							"internalType": "string",
							"name": "",
							"type": "string"
						}
					],
					"stateMutability": "pure",
					"type": "function"
				},
				{
					"inputs": [],
					"name": "owner",
					"outputs": [
						{
							"internalType": "address",
							"name": "",
							"type": "address"
						}
					],
					"stateMutability": "view",
					"type": "function"
				},
				{
					"inputs": [],
					"name": "renounceOwnership",
					"outputs": [],
					"stateMutability": "nonpayable",
					"type": "function"
				},
				{
					"inputs": [
						{
							"internalType": "address",
							"name": "_tokenAddr",
							"type": "address"
						},
						{
							"internalType": "address",
							"name": "_to",
							"type": "address"
						},
						{
							"internalType": "uint256",
							"name": "_amount",
							"type": "uint256"
						}
					],
					"name": "rescueForeignTokens",
					"outputs": [],
					"stateMutability": "nonpayable",
					"type": "function"
				},
				{
					"inputs": [
						{
							"internalType": "uint256",
							"name": "redisFeeOnBuy",
							"type": "uint256"
						},
						{
							"internalType": "uint256",
							"name": "redisFeeOnSell",
							"type": "uint256"
						},
						{
							"internalType": "uint256",
							"name": "taxFeeOnBuy",
							"type": "uint256"
						},
						{
							"internalType": "uint256",
							"name": "taxFeeOnSell",
							"type": "uint256"
						}
					],
					"name": "setFee",
					"outputs": [],
					"stateMutability": "nonpayable",
					"type": "function"
				},
				{
					"inputs": [
						{
							"internalType": "address payable",
							"name": "dev",
							"type": "address"
						}
					],
					"name": "setNewDevAddress",
					"outputs": [],
					"stateMutability": "nonpayable",
					"type": "function"
				},
				{
					"inputs": [
						{
							"internalType": "address payable",
							"name": "markt",
							"type": "address"
						}
					],
					"name": "setNewMarketingAddress",
					"outputs": [],
					"stateMutability": "nonpayable",
					"type": "function"
				},
				{
					"inputs": [],
					"name": "symbol",
					"outputs": [
						{
							"internalType": "string",
							"name": "",
							"type": "string"
						}
					],
					"stateMutability": "pure",
					"type": "function"
				},
				{
					"inputs": [
						{
							"internalType": "bool",
							"name": "_swapEnabled",
							"type": "bool"
						}
					],
					"name": "toggleSwap",
					"outputs": [],
					"stateMutability": "nonpayable",
					"type": "function"
				},
				{
					"inputs": [],
					"name": "totalSupply",
					"outputs": [
						{
							"internalType": "uint256",
							"name": "",
							"type": "uint256"
						}
					],
					"stateMutability": "pure",
					"type": "function"
				},
				{
					"inputs": [
						{
							"internalType": "address",
							"name": "recipient",
							"type": "address"
						},
						{
							"internalType": "uint256",
							"name": "amount",
							"type": "uint256"
						}
					],
					"name": "transfer",
					"outputs": [
						{
							"internalType": "bool",
							"name": "",
							"type": "bool"
						}
					],
					"stateMutability": "nonpayable",
					"type": "function"
				},
				{
					"inputs": [
						{
							"internalType": "address",
							"name": "sender",
							"type": "address"
						},
						{
							"internalType": "address",
							"name": "recipient",
							"type": "address"
						},
						{
							"internalType": "uint256",
							"name": "amount",
							"type": "uint256"
						}
					],
					"name": "transferFrom",
					"outputs": [
						{
							"internalType": "bool",
							"name": "",
							"type": "bool"
						}
					],
					"stateMutability": "nonpayable",
					"type": "function"
				},
				{
					"inputs": [
						{
							"internalType": "address",
							"name": "newOwner",
							"type": "address"
						}
					],
					"name": "transferOwnership",
					"outputs": [],
					"stateMutability": "nonpayable",
					"type": "function"
				},
				{
					"inputs": [],
					"name": "uniswapV2Factory",
					"outputs": [
						{
							"internalType": "contract IUniswapV2Factory",
							"name": "",
							"type": "address"
						}
					],
					"stateMutability": "view",
					"type": "function"
				},
				{
					"inputs": [],
					"name": "uniswapV2Pair",
					"outputs": [
						{
							"internalType": "address",
							"name": "",
							"type": "address"
						}
					],
					"stateMutability": "view",
					"type": "function"
				},
				{
					"inputs": [],
					"name": "uniswapV2Router",
					"outputs": [
						{
							"internalType": "contract IUniswapV2Router02",
							"name": "",
							"type": "address"
						}
					],
					"stateMutability": "view",
					"type": "function"
				},
				{
					"stateMutability": "payable",
					"type": "receive"
				}
			],
			"devdoc": {
				"kind": "dev",
				"methods": {},
				"version": 1
			},
			"evm": {
				"assembly": "    /* \"contracts/Pool/Pool.sol\":3787:15267  contract World_Step is Context, IERC20, Ownable {... */\n  mstore(0x40, 0x80)\n    /* \"contracts/Pool/Pool.sol\":4200:4213  1*10**9*10**9 */\n  0x0de0b6b3a7640000\n    /* \"contracts/Pool/Pool.sol\":4147:4159  1*10**9*10*9 */\n  0x14f46b0400\n    /* \"contracts/Pool/Pool.sol\":4253:4266  MAX % _tTotal */\n  tag_1\n  swap2\n  swap1\n  tag_2\n  jump\t// in\ntag_1:\n    /* \"contracts/Pool/Pool.sol\":4147:4159  1*10**9*10*9 */\n  0x14f46b0400\n    /* \"contracts/Pool/Pool.sol\":4246:4267  MAX - (MAX % _tTotal) */\n  tag_3\n  swap2\n  swap1\n  tag_4\n  jump\t// in\ntag_3:\n    /* \"contracts/Pool/Pool.sol\":4219:4268  uint256 private _rTotal = (MAX - (MAX % _tTotal)) */\n  0x06\n  sstore\n    /* \"contracts/Pool/Pool.sol\":4344:4345  1 */\n  0x01\n    /* \"contracts/Pool/Pool.sol\":4311:4345  uint256 private _redisFeeOnBuy = 1 */\n  0x08\n  sstore\n    /* \"contracts/Pool/Pool.sol\":4382:4383  4 */\n  0x04\n    /* \"contracts/Pool/Pool.sol\":4351:4383  uint256 private _taxFeeOnBuy = 4 */\n  0x09\n  sstore\n    /* \"contracts/Pool/Pool.sol\":4428:4429  1 */\n  0x01\n    /* \"contracts/Pool/Pool.sol\":4394:4429  uint256 private _redisFeeOnSell = 1 */\n  0x0a\n  sstore\n    /* \"contracts/Pool/Pool.sol\":4467:4468  1 */\n  0x01\n    /* \"contracts/Pool/Pool.sol\":4435:4468  uint256 private _taxFeeOnSell = 1 */\n  0x0b\n  sstore\n    /* \"contracts/Pool/Pool.sol\":4740:4782  0x8492cbd894686D7e98214541903c7BA6f94928D6 */\n  0x8492cbd894686d7e98214541903c7ba6f94928d6\n    /* \"contracts/Pool/Pool.sol\":4686:4783  address payable private _developmentAddress = payable(0x8492cbd894686D7e98214541903c7BA6f94928D6) */\n  0x0e\n  exp(0x0100, 0x00)\n  dup2\n  sload\n  dup2\n  0xffffffffffffffffffffffffffffffffffffffff\n  mul\n  not\n  and\n  swap1\n  dup4\n  0xffffffffffffffffffffffffffffffffffffffff\n  and\n  mul\n  or\n  swap1\n  sstore\n  pop\n    /* \"contracts/Pool/Pool.sol\":4841:4883  0xa4eD7aa4eF5deB0A63e97d9Cb77445aE553feb1d */\n  0xa4ed7aa4ef5deb0a63e97d9cb77445ae553feb1d\n    /* \"contracts/Pool/Pool.sol\":4789:4884  address payable private _marketingAddress = payable(0xa4eD7aa4eF5deB0A63e97d9Cb77445aE553feb1d) */\n  0x0f\n  exp(0x0100, 0x00)\n  dup2\n  sload\n  dup2\n  0xffffffffffffffffffffffffffffffffffffffff\n  mul\n  not\n  and\n  swap1\n  dup4\n  0xffffffffffffffffffffffffffffffffffffffff\n  and\n  mul\n  or\n  swap1\n  sstore\n  pop\n    /* \"contracts/Pool/Pool.sol\":5047:5052  false */\n  0x00\n    /* \"contracts/Pool/Pool.sol\":5025:5052  bool private inSwap = false */\n  0x12\n  exp(0x0100, 0x14)\n  dup2\n  sload\n  dup2\n  0xff\n  mul\n  not\n  and\n  swap1\n  dup4\n  iszero\n  iszero\n  mul\n  or\n  swap1\n  sstore\n  pop\n    /* \"contracts/Pool/Pool.sol\":5085:5089  true */\n  0x01\n    /* \"contracts/Pool/Pool.sol\":5058:5089  bool private swapEnabled = true */\n  0x12\n  exp(0x0100, 0x15)\n  dup2\n  sload\n  dup2\n  0xff\n  mul\n  not\n  and\n  swap1\n  dup4\n  iszero\n  iszero\n  mul\n  or\n  swap1\n  sstore\n  pop\n    /* \"contracts/Pool/Pool.sol\":5191:6031  constructor () {... */\n  callvalue\n  dup1\n  iszero\n  tag_5\n  jumpi\n  0x00\n  dup1\n  revert\ntag_5:\n  pop\n    /* \"contracts/Pool/Pool.sol\":3054:3071  address msgSender */\n  0x00\n    /* \"contracts/Pool/Pool.sol\":3074:3086  _msgSender() */\n  tag_9\n    /* \"contracts/Pool/Pool.sol\":3074:3084  _msgSender */\n  shl(0x20, tag_10)\n    /* \"contracts/Pool/Pool.sol\":3074:3086  _msgSender() */\n  0x20\n  shr\n  jump\t// in\ntag_9:\n    /* \"contracts/Pool/Pool.sol\":3054:3086  address msgSender = _msgSender() */\n  swap1\n  pop\n    /* \"contracts/Pool/Pool.sol\":3105:3114  msgSender */\n  dup1\n    /* \"contracts/Pool/Pool.sol\":3096:3102  _owner */\n  0x00\n  dup1\n    /* \"contracts/Pool/Pool.sol\":3096:3114  _owner = msgSender */\n  0x0100\n  exp\n  dup2\n  sload\n  dup2\n  0xffffffffffffffffffffffffffffffffffffffff\n  mul\n  not\n  and\n  swap1\n  dup4\n  0xffffffffffffffffffffffffffffffffffffffff\n  and\n  mul\n  or\n  swap1\n  sstore\n  pop\n    /* \"contracts/Pool/Pool.sol\":3162:3171  msgSender */\n  dup1\n    /* \"contracts/Pool/Pool.sol\":3129:3172  OwnershipTransferred(address(0), msgSender) */\n  0xffffffffffffffffffffffffffffffffffffffff\n  and\n    /* \"contracts/Pool/Pool.sol\":3158:3159  0 */\n  0x00\n    /* \"contracts/Pool/Pool.sol\":3129:3172  OwnershipTransferred(address(0), msgSender) */\n  0xffffffffffffffffffffffffffffffffffffffff\n  and\n  0x8be0079c531659141344cd1fd0a4f28419497f9722a3daafe3b4186f6b6457e0\n  mload(0x40)\n  mload(0x40)\n  dup1\n  swap2\n  sub\n  swap1\n  log3\n    /* \"contracts/Pool/Pool.sol\":3044:3179  {... */\n  pop\n    /* \"contracts/Pool/Pool.sol\":5240:5247  _rTotal */\n  sload(0x06)\n    /* \"contracts/Pool/Pool.sol\":5216:5223  _rOwned */\n  0x02\n    /* \"contracts/Pool/Pool.sol\":5216:5237  _rOwned[_msgSender()] */\n  0x00\n    /* \"contracts/Pool/Pool.sol\":5224:5236  _msgSender() */\n  tag_12\n    /* \"contracts/Pool/Pool.sol\":5224:5234  _msgSender */\n  shl(0x20, tag_10)\n    /* \"contracts/Pool/Pool.sol\":5224:5236  _msgSender() */\n  0x20\n  shr\n  jump\t// in\ntag_12:\n    /* \"contracts/Pool/Pool.sol\":5216:5237  _rOwned[_msgSender()] */\n  0xffffffffffffffffffffffffffffffffffffffff\n  and\n  0xffffffffffffffffffffffffffffffffffffffff\n  and\n  dup2\n  mstore\n  0x20\n  add\n  swap1\n  dup2\n  mstore\n  0x20\n  add\n  0x00\n  keccak256\n    /* \"contracts/Pool/Pool.sol\":5216:5247  _rOwned[_msgSender()] = _rTotal */\n  dup2\n  swap1\n  sstore\n  pop\n    /* \"contracts/Pool/Pool.sol\":5266:5301  IUniswapV2Router02 _uniswapV2Router */\n  0x00\n    /* \"contracts/Pool/Pool.sol\":5331:5373  0x10ED43C718714eb63d5aA57B78B54704E256024E */\n  0x10ed43c718714eb63d5aa57b78b54704e256024e\n    /* \"contracts/Pool/Pool.sol\":5266:5375  IUniswapV2Router02 _uniswapV2Router = IUniswapV2Router02(address(0x10ED43C718714eb63d5aA57B78B54704E256024E)) */\n  swap1\n  pop\n    /* \"contracts/Pool/Pool.sol\":5403:5419  _uniswapV2Router */\n  dup1\n    /* \"contracts/Pool/Pool.sol\":5385:5400  uniswapV2Router */\n  0x10\n  0x00\n    /* \"contracts/Pool/Pool.sol\":5385:5419  uniswapV2Router = _uniswapV2Router */\n  0x0100\n  exp\n  dup2\n  sload\n  dup2\n  0xffffffffffffffffffffffffffffffffffffffff\n  mul\n  not\n  and\n  swap1\n  dup4\n  0xffffffffffffffffffffffffffffffffffffffff\n  and\n  mul\n  or\n  swap1\n  sstore\n  pop\n    /* \"contracts/Pool/Pool.sol\":5474:5516  0xcA143Ce32Fe78f1f7019d7d551a6402fC5350c73 */\n  0xca143ce32fe78f1f7019d7d551a6402fc5350c73\n    /* \"contracts/Pool/Pool.sol\":5429:5445  uniswapV2Factory */\n  0x11\n  0x00\n    /* \"contracts/Pool/Pool.sol\":5429:5518  uniswapV2Factory = IUniswapV2Factory(address(0xcA143Ce32Fe78f1f7019d7d551a6402fC5350c73)) */\n  0x0100\n  exp\n  dup2\n  sload\n  dup2\n  0xffffffffffffffffffffffffffffffffffffffff\n  mul\n  not\n  and\n  swap1\n  dup4\n  0xffffffffffffffffffffffffffffffffffffffff\n  and\n  mul\n  or\n  swap1\n  sstore\n  pop\n    /* \"contracts/Pool/Pool.sol\":5544:5560  uniswapV2Factory */\n  0x11\n  0x00\n  swap1\n  sload\n  swap1\n  0x0100\n  exp\n  swap1\n  div\n  0xffffffffffffffffffffffffffffffffffffffff\n  and\n    /* \"contracts/Pool/Pool.sol\":5544:5571  uniswapV2Factory.createPair */\n  0xffffffffffffffffffffffffffffffffffffffff\n  and\n  0xc9c65396\n    /* \"contracts/Pool/Pool.sol\":5580:5584  this */\n  address\n    /* \"contracts/Pool/Pool.sol\":5587:5603  _uniswapV2Router */\n  dup4\n    /* \"contracts/Pool/Pool.sol\":5587:5608  _uniswapV2Router.WETH */\n  0xffffffffffffffffffffffffffffffffffffffff\n  and\n  0xad5c4648\n    /* \"contracts/Pool/Pool.sol\":5587:5610  _uniswapV2Router.WETH() */\n  mload(0x40)\n  dup2\n  0xffffffff\n  and\n  0xe0\n  shl\n  dup2\n  mstore\n  0x04\n  add\n  0x20\n  mload(0x40)\n  dup1\n  dup4\n  sub\n  dup2\n  dup7\n  gas\n  staticcall\n  iszero\n  dup1\n  iszero\n  tag_14\n  jumpi\n  returndatasize\n  0x00\n  dup1\n  returndatacopy\n  revert(0x00, returndatasize)\ntag_14:\n  pop\n  pop\n  pop\n  pop\n  mload(0x40)\n  returndatasize\n  not(0x1f)\n  0x1f\n  dup3\n  add\n  and\n  dup3\n  add\n  dup1\n  0x40\n  mstore\n  pop\n  dup2\n  add\n  swap1\n  tag_15\n  swap2\n  swap1\n  tag_16\n  jump\t// in\ntag_15:\n    /* \"contracts/Pool/Pool.sol\":5544:5611  uniswapV2Factory.createPair(address(this), _uniswapV2Router.WETH()) */\n  mload(0x40)\n  dup4\n  0xffffffff\n  and\n  0xe0\n  shl\n  dup2\n  mstore\n  0x04\n  add\n  tag_17\n  swap3\n  swap2\n  swap1\n  tag_18\n  jump\t// in\ntag_17:\n  0x20\n  mload(0x40)\n  dup1\n  dup4\n  sub\n  dup2\n  0x00\n  dup8\n  gas\n  call\n  iszero\n  dup1\n  iszero\n  tag_20\n  jumpi\n  returndatasize\n  0x00\n  dup1\n  returndatacopy\n  revert(0x00, returndatasize)\ntag_20:\n  pop\n  pop\n  pop\n  pop\n  mload(0x40)\n  returndatasize\n  not(0x1f)\n  0x1f\n  dup3\n  add\n  and\n  dup3\n  add\n  dup1\n  0x40\n  mstore\n  pop\n  dup2\n  add\n  swap1\n  tag_21\n  swap2\n  swap1\n  tag_16\n  jump\t// in\ntag_21:\n    /* \"contracts/Pool/Pool.sol\":5528:5541  uniswapV2Pair */\n  0x12\n  0x00\n    /* \"contracts/Pool/Pool.sol\":5528:5611  uniswapV2Pair = uniswapV2Factory.createPair(address(this), _uniswapV2Router.WETH()) */\n  0x0100\n  exp\n  dup2\n  sload\n  dup2\n  0xffffffffffffffffffffffffffffffffffffffff\n  mul\n  not\n  and\n  swap1\n  dup4\n  0xffffffffffffffffffffffffffffffffffffffff\n  and\n  mul\n  or\n  swap1\n  sstore\n  pop\n    /* \"contracts/Pool/Pool.sol\":5793:5797  true */\n  0x01\n    /* \"contracts/Pool/Pool.sol\":5763:5781  _isExcludedFromFee */\n  0x05\n    /* \"contracts/Pool/Pool.sol\":5763:5790  _isExcludedFromFee[owner()] */\n  0x00\n    /* \"contracts/Pool/Pool.sol\":5782:5789  owner() */\n  tag_22\n    /* \"contracts/Pool/Pool.sol\":5782:5787  owner */\n  shl(0x20, tag_23)\n    /* \"contracts/Pool/Pool.sol\":5782:5789  owner() */\n  0x20\n  shr\n  jump\t// in\ntag_22:\n    /* \"contracts/Pool/Pool.sol\":5763:5790  _isExcludedFromFee[owner()] */\n  0xffffffffffffffffffffffffffffffffffffffff\n  and\n  0xffffffffffffffffffffffffffffffffffffffff\n  and\n  dup2\n  mstore\n  0x20\n  add\n  swap1\n  dup2\n  mstore\n  0x20\n  add\n  0x00\n  keccak256\n  0x00\n    /* \"contracts/Pool/Pool.sol\":5763:5797  _isExcludedFromFee[owner()] = true */\n  0x0100\n  exp\n  dup2\n  sload\n  dup2\n  0xff\n  mul\n  not\n  and\n  swap1\n  dup4\n  iszero\n  iszero\n  mul\n  or\n  swap1\n  sstore\n  pop\n    /* \"contracts/Pool/Pool.sol\":5843:5847  true */\n  0x01\n    /* \"contracts/Pool/Pool.sol\":5807:5825  _isExcludedFromFee */\n  0x05\n    /* \"contracts/Pool/Pool.sol\":5807:5840  _isExcludedFromFee[address(this)] */\n  0x00\n    /* \"contracts/Pool/Pool.sol\":5834:5838  this */\n  address\n    /* \"contracts/Pool/Pool.sol\":5807:5840  _isExcludedFromFee[address(this)] */\n  0xffffffffffffffffffffffffffffffffffffffff\n  and\n  0xffffffffffffffffffffffffffffffffffffffff\n  and\n  dup2\n  mstore\n  0x20\n  add\n  swap1\n  dup2\n  mstore\n  0x20\n  add\n  0x00\n  keccak256\n  0x00\n    /* \"contracts/Pool/Pool.sol\":5807:5847  _isExcludedFromFee[address(this)] = true */\n  0x0100\n  exp\n  dup2\n  sload\n  dup2\n  0xff\n  mul\n  not\n  and\n  swap1\n  dup4\n  iszero\n  iszero\n  mul\n  or\n  swap1\n  sstore\n  pop\n    /* \"contracts/Pool/Pool.sol\":5899:5903  true */\n  0x01\n    /* \"contracts/Pool/Pool.sol\":5857:5875  _isExcludedFromFee */\n  0x05\n    /* \"contracts/Pool/Pool.sol\":5857:5896  _isExcludedFromFee[_developmentAddress] */\n  0x00\n    /* \"contracts/Pool/Pool.sol\":5876:5895  _developmentAddress */\n  0x0e\n  0x00\n  swap1\n  sload\n  swap1\n  0x0100\n  exp\n  swap1\n  div\n  0xffffffffffffffffffffffffffffffffffffffff\n  and\n    /* \"contracts/Pool/Pool.sol\":5857:5896  _isExcludedFromFee[_developmentAddress] */\n  0xffffffffffffffffffffffffffffffffffffffff\n  and\n  0xffffffffffffffffffffffffffffffffffffffff\n  and\n  dup2\n  mstore\n  0x20\n  add\n  swap1\n  dup2\n  mstore\n  0x20\n  add\n  0x00\n  keccak256\n  0x00\n    /* \"contracts/Pool/Pool.sol\":5857:5903  _isExcludedFromFee[_developmentAddress] = true */\n  0x0100\n  exp\n  dup2\n  sload\n  dup2\n  0xff\n  mul\n  not\n  and\n  swap1\n  dup4\n  iszero\n  iszero\n  mul\n  or\n  swap1\n  sstore\n  pop\n    /* \"contracts/Pool/Pool.sol\":5953:5957  true */\n  0x01\n    /* \"contracts/Pool/Pool.sol\":5913:5931  _isExcludedFromFee */\n  0x05\n    /* \"contracts/Pool/Pool.sol\":5913:5950  _isExcludedFromFee[_marketingAddress] */\n  0x00\n    /* \"contracts/Pool/Pool.sol\":5932:5949  _marketingAddress */\n  0x0f\n  0x00\n  swap1\n  sload\n  swap1\n  0x0100\n  exp\n  swap1\n  div\n  0xffffffffffffffffffffffffffffffffffffffff\n  and\n    /* \"contracts/Pool/Pool.sol\":5913:5950  _isExcludedFromFee[_marketingAddress] */\n  0xffffffffffffffffffffffffffffffffffffffff\n  and\n  0xffffffffffffffffffffffffffffffffffffffff\n  and\n  dup2\n  mstore\n  0x20\n  add\n  swap1\n  dup2\n  mstore\n  0x20\n  add\n  0x00\n  keccak256\n  0x00\n    /* \"contracts/Pool/Pool.sol\":5913:5957  _isExcludedFromFee[_marketingAddress] = true */\n  0x0100\n  exp\n  dup2\n  sload\n  dup2\n  0xff\n  mul\n  not\n  and\n  swap1\n  dup4\n  iszero\n  iszero\n  mul\n  or\n  swap1\n  sstore\n  pop\n    /* \"contracts/Pool/Pool.sol\":6002:6014  _msgSender() */\n  tag_24\n    /* \"contracts/Pool/Pool.sol\":6002:6012  _msgSender */\n  shl(0x20, tag_10)\n    /* \"contracts/Pool/Pool.sol\":6002:6014  _msgSender() */\n  0x20\n  shr\n  jump\t// in\ntag_24:\n    /* \"contracts/Pool/Pool.sol\":5981:6024  Transfer(address(0), _msgSender(), _tTotal) */\n  0xffffffffffffffffffffffffffffffffffffffff\n  and\n    /* \"contracts/Pool/Pool.sol\":5998:5999  0 */\n  0x00\n    /* \"contracts/Pool/Pool.sol\":5981:6024  Transfer(address(0), _msgSender(), _tTotal) */\n  0xffffffffffffffffffffffffffffffffffffffff\n  and\n  0xddf252ad1be2c89b69c2b068fc378daa952ba7f163c4a11628f55a4df523b3ef\n    /* \"contracts/Pool/Pool.sol\":4200:4213  1*10**9*10**9 */\n  0x0de0b6b3a7640000\n    /* \"contracts/Pool/Pool.sol\":5981:6024  Transfer(address(0), _msgSender(), _tTotal) */\n  mload(0x40)\n  tag_25\n  swap2\n  swap1\n  tag_26\n  jump\t// in\ntag_25:\n  mload(0x40)\n  dup1\n  swap2\n  sub\n  swap1\n  log3\n    /* \"contracts/Pool/Pool.sol\":5206:6031  {... */\n  pop\n    /* \"contracts/Pool/Pool.sol\":3787:15267  contract World_Step is Context, IERC20, Ownable {... */\n  jump(tag_27)\n    /* \"contracts/Pool/Pool.sol\":1721:1817  function _msgSender() internal view virtual returns (address) {... */\ntag_10:\n    /* \"contracts/Pool/Pool.sol\":1774:1781  address */\n  0x00\n    /* \"contracts/Pool/Pool.sol\":1800:1810  msg.sender */\n  caller\n    /* \"contracts/Pool/Pool.sol\":1793:1810  return msg.sender */\n  swap1\n  pop\n    /* \"contracts/Pool/Pool.sol\":1721:1817  function _msgSender() internal view virtual returns (address) {... */\n  swap1\n  jump\t// out\n    /* \"contracts/Pool/Pool.sol\":3185:3262  function owner() public view returns (address) {... */\ntag_23:\n    /* \"contracts/Pool/Pool.sol\":3223:3230  address */\n  0x00\n    /* \"contracts/Pool/Pool.sol\":3249:3255  _owner */\n  dup1\n  0x00\n  swap1\n  sload\n  swap1\n  0x0100\n  exp\n  swap1\n  div\n  0xffffffffffffffffffffffffffffffffffffffff\n  and\n    /* \"contracts/Pool/Pool.sol\":3242:3255  return _owner */\n  swap1\n  pop\n    /* \"contracts/Pool/Pool.sol\":3185:3262  function owner() public view returns (address) {... */\n  swap1\n  jump\t// out\n    /* \"#utility.yul\":7:84   */\ntag_30:\n    /* \"#utility.yul\":44:51   */\n  0x00\n    /* \"#utility.yul\":73:78   */\n  dup2\n    /* \"#utility.yul\":62:78   */\n  swap1\n  pop\n    /* \"#utility.yul\":7:84   */\n  swap2\n  swap1\n  pop\n  jump\t// out\n    /* \"#utility.yul\":90:270   */\ntag_31:\n    /* \"#utility.yul\":138:215   */\n  0x4e487b7100000000000000000000000000000000000000000000000000000000\n    /* \"#utility.yul\":135:136   */\n  0x00\n    /* \"#utility.yul\":128:216   */\n  mstore\n    /* \"#utility.yul\":235:239   */\n  0x12\n    /* \"#utility.yul\":232:233   */\n  0x04\n    /* \"#utility.yul\":225:240   */\n  mstore\n    /* \"#utility.yul\":259:263   */\n  0x24\n    /* \"#utility.yul\":256:257   */\n  0x00\n    /* \"#utility.yul\":249:264   */\n  revert\n    /* \"#utility.yul\":276:452   */\ntag_2:\n    /* \"#utility.yul\":308:309   */\n  0x00\n    /* \"#utility.yul\":325:345   */\n  tag_46\n    /* \"#utility.yul\":343:344   */\n  dup3\n    /* \"#utility.yul\":325:345   */\n  tag_30\n  jump\t// in\ntag_46:\n    /* \"#utility.yul\":320:345   */\n  swap2\n  pop\n    /* \"#utility.yul\":359:379   */\n  tag_47\n    /* \"#utility.yul\":377:378   */\n  dup4\n    /* \"#utility.yul\":359:379   */\n  tag_30\n  jump\t// in\ntag_47:\n    /* \"#utility.yul\":354:379   */\n  swap3\n  pop\n    /* \"#utility.yul\":398:399   */\n  dup3\n    /* \"#utility.yul\":388:423   */\n  tag_48\n  jumpi\n    /* \"#utility.yul\":403:421   */\n  tag_49\n  tag_31\n  jump\t// in\ntag_49:\n    /* \"#utility.yul\":388:423   */\ntag_48:\n    /* \"#utility.yul\":444:445   */\n  dup3\n    /* \"#utility.yul\":441:442   */\n  dup3\n    /* \"#utility.yul\":437:446   */\n  mod\n    /* \"#utility.yul\":432:446   */\n  swap1\n  pop\n    /* \"#utility.yul\":276:452   */\n  swap3\n  swap2\n  pop\n  pop\n  jump\t// out\n    /* \"#utility.yul\":458:638   */\ntag_32:\n    /* \"#utility.yul\":506:583   */\n  0x4e487b7100000000000000000000000000000000000000000000000000000000\n    /* \"#utility.yul\":503:504   */\n  0x00\n    /* \"#utility.yul\":496:584   */\n  mstore\n    /* \"#utility.yul\":603:607   */\n  0x11\n    /* \"#utility.yul\":600:601   */\n  0x04\n    /* \"#utility.yul\":593:608   */\n  mstore\n    /* \"#utility.yul\":627:631   */\n  0x24\n    /* \"#utility.yul\":624:625   */\n  0x00\n    /* \"#utility.yul\":617:632   */\n  revert\n    /* \"#utility.yul\":644:835   */\ntag_4:\n    /* \"#utility.yul\":684:688   */\n  0x00\n    /* \"#utility.yul\":704:724   */\n  tag_52\n    /* \"#utility.yul\":722:723   */\n  dup3\n    /* \"#utility.yul\":704:724   */\n  tag_30\n  jump\t// in\ntag_52:\n    /* \"#utility.yul\":699:724   */\n  swap2\n  pop\n    /* \"#utility.yul\":738:758   */\n  tag_53\n    /* \"#utility.yul\":756:757   */\n  dup4\n    /* \"#utility.yul\":738:758   */\n  tag_30\n  jump\t// in\ntag_53:\n    /* \"#utility.yul\":733:758   */\n  swap3\n  pop\n    /* \"#utility.yul\":777:778   */\n  dup3\n    /* \"#utility.yul\":774:775   */\n  dup3\n    /* \"#utility.yul\":771:779   */\n  lt\n    /* \"#utility.yul\":768:802   */\n  iszero\n  tag_54\n  jumpi\n    /* \"#utility.yul\":782:800   */\n  tag_55\n  tag_32\n  jump\t// in\ntag_55:\n    /* \"#utility.yul\":768:802   */\ntag_54:\n    /* \"#utility.yul\":827:828   */\n  dup3\n    /* \"#utility.yul\":824:825   */\n  dup3\n    /* \"#utility.yul\":820:829   */\n  sub\n    /* \"#utility.yul\":812:829   */\n  swap1\n  pop\n    /* \"#utility.yul\":644:835   */\n  swap3\n  swap2\n  pop\n  pop\n  jump\t// out\n    /* \"#utility.yul\":922:1039   */\ntag_34:\n    /* \"#utility.yul\":1031:1032   */\n  0x00\n    /* \"#utility.yul\":1028:1029   */\n  dup1\n    /* \"#utility.yul\":1021:1033   */\n  revert\n    /* \"#utility.yul\":1168:1294   */\ntag_36:\n    /* \"#utility.yul\":1205:1212   */\n  0x00\n    /* \"#utility.yul\":1245:1287   */\n  0xffffffffffffffffffffffffffffffffffffffff\n    /* \"#utility.yul\":1238:1243   */\n  dup3\n    /* \"#utility.yul\":1234:1288   */\n  and\n    /* \"#utility.yul\":1223:1288   */\n  swap1\n  pop\n    /* \"#utility.yul\":1168:1294   */\n  swap2\n  swap1\n  pop\n  jump\t// out\n    /* \"#utility.yul\":1300:1396   */\ntag_37:\n    /* \"#utility.yul\":1337:1344   */\n  0x00\n    /* \"#utility.yul\":1366:1390   */\n  tag_61\n    /* \"#utility.yul\":1384:1389   */\n  dup3\n    /* \"#utility.yul\":1366:1390   */\n  tag_36\n  jump\t// in\ntag_61:\n    /* \"#utility.yul\":1355:1390   */\n  swap1\n  pop\n    /* \"#utility.yul\":1300:1396   */\n  swap2\n  swap1\n  pop\n  jump\t// out\n    /* \"#utility.yul\":1402:1524   */\ntag_38:\n    /* \"#utility.yul\":1475:1499   */\n  tag_63\n    /* \"#utility.yul\":1493:1498   */\n  dup2\n    /* \"#utility.yul\":1475:1499   */\n  tag_37\n  jump\t// in\ntag_63:\n    /* \"#utility.yul\":1468:1473   */\n  dup2\n    /* \"#utility.yul\":1465:1500   */\n  eq\n    /* \"#utility.yul\":1455:1518   */\n  tag_64\n  jumpi\n    /* \"#utility.yul\":1514:1515   */\n  0x00\n    /* \"#utility.yul\":1511:1512   */\n  dup1\n    /* \"#utility.yul\":1504:1516   */\n  revert\n    /* \"#utility.yul\":1455:1518   */\ntag_64:\n    /* \"#utility.yul\":1402:1524   */\n  pop\n  jump\t// out\n    /* \"#utility.yul\":1530:1673   */\ntag_39:\n    /* \"#utility.yul\":1587:1592   */\n  0x00\n    /* \"#utility.yul\":1618:1624   */\n  dup2\n    /* \"#utility.yul\":1612:1625   */\n  mload\n    /* \"#utility.yul\":1603:1625   */\n  swap1\n  pop\n    /* \"#utility.yul\":1634:1667   */\n  tag_66\n    /* \"#utility.yul\":1661:1666   */\n  dup2\n    /* \"#utility.yul\":1634:1667   */\n  tag_38\n  jump\t// in\ntag_66:\n    /* \"#utility.yul\":1530:1673   */\n  swap3\n  swap2\n  pop\n  pop\n  jump\t// out\n    /* \"#utility.yul\":1679:2030   */\ntag_16:\n    /* \"#utility.yul\":1749:1755   */\n  0x00\n    /* \"#utility.yul\":1798:1800   */\n  0x20\n    /* \"#utility.yul\":1786:1795   */\n  dup3\n    /* \"#utility.yul\":1777:1784   */\n  dup5\n    /* \"#utility.yul\":1773:1796   */\n  sub\n    /* \"#utility.yul\":1769:1801   */\n  slt\n    /* \"#utility.yul\":1766:1885   */\n  iszero\n  tag_68\n  jumpi\n    /* \"#utility.yul\":1804:1883   */\n  tag_69\n  tag_34\n  jump\t// in\ntag_69:\n    /* \"#utility.yul\":1766:1885   */\ntag_68:\n    /* \"#utility.yul\":1924:1925   */\n  0x00\n    /* \"#utility.yul\":1949:2013   */\n  tag_70\n    /* \"#utility.yul\":2005:2012   */\n  dup5\n    /* \"#utility.yul\":1996:2002   */\n  dup3\n    /* \"#utility.yul\":1985:1994   */\n  dup6\n    /* \"#utility.yul\":1981:2003   */\n  add\n    /* \"#utility.yul\":1949:2013   */\n  tag_39\n  jump\t// in\ntag_70:\n    /* \"#utility.yul\":1939:2013   */\n  swap2\n  pop\n    /* \"#utility.yul\":1895:2023   */\n  pop\n    /* \"#utility.yul\":1679:2030   */\n  swap3\n  swap2\n  pop\n  pop\n  jump\t// out\n    /* \"#utility.yul\":2036:2154   */\ntag_40:\n    /* \"#utility.yul\":2123:2147   */\n  tag_72\n    /* \"#utility.yul\":2141:2146   */\n  dup2\n    /* \"#utility.yul\":2123:2147   */\n  tag_37\n  jump\t// in\ntag_72:\n    /* \"#utility.yul\":2118:2121   */\n  dup3\n    /* \"#utility.yul\":2111:2148   */\n  mstore\n    /* \"#utility.yul\":2036:2154   */\n  pop\n  pop\n  jump\t// out\n    /* \"#utility.yul\":2160:2492   */\ntag_18:\n    /* \"#utility.yul\":2281:2285   */\n  0x00\n    /* \"#utility.yul\":2319:2321   */\n  0x40\n    /* \"#utility.yul\":2308:2317   */\n  dup3\n    /* \"#utility.yul\":2304:2322   */\n  add\n    /* \"#utility.yul\":2296:2322   */\n  swap1\n  pop\n    /* \"#utility.yul\":2332:2403   */\n  tag_74\n    /* \"#utility.yul\":2400:2401   */\n  0x00\n    /* \"#utility.yul\":2389:2398   */\n  dup4\n    /* \"#utility.yul\":2385:2402   */\n  add\n    /* \"#utility.yul\":2376:2382   */\n  dup6\n    /* \"#utility.yul\":2332:2403   */\n  tag_40\n  jump\t// in\ntag_74:\n    /* \"#utility.yul\":2413:2485   */\n  tag_75\n    /* \"#utility.yul\":2481:2483   */\n  0x20\n    /* \"#utility.yul\":2470:2479   */\n  dup4\n    /* \"#utility.yul\":2466:2484   */\n  add\n    /* \"#utility.yul\":2457:2463   */\n  dup5\n    /* \"#utility.yul\":2413:2485   */\n  tag_40\n  jump\t// in\ntag_75:\n    /* \"#utility.yul\":2160:2492   */\n  swap4\n  swap3\n  pop\n  pop\n  pop\n  jump\t// out\n    /* \"#utility.yul\":2498:2616   */\ntag_41:\n    /* \"#utility.yul\":2585:2609   */\n  tag_77\n    /* \"#utility.yul\":2603:2608   */\n  dup2\n    /* \"#utility.yul\":2585:2609   */\n  tag_30\n  jump\t// in\ntag_77:\n    /* \"#utility.yul\":2580:2583   */\n  dup3\n    /* \"#utility.yul\":2573:2610   */\n  mstore\n    /* \"#utility.yul\":2498:2616   */\n  pop\n  pop\n  jump\t// out\n    /* \"#utility.yul\":2622:2844   */\ntag_26:\n    /* \"#utility.yul\":2715:2719   */\n  0x00\n    /* \"#utility.yul\":2753:2755   */\n  0x20\n    /* \"#utility.yul\":2742:2751   */\n  dup3\n    /* \"#utility.yul\":2738:2756   */\n  add\n    /* \"#utility.yul\":2730:2756   */\n  swap1\n  pop\n    /* \"#utility.yul\":2766:2837   */\n  tag_79\n    /* \"#utility.yul\":2834:2835   */\n  0x00\n    /* \"#utility.yul\":2823:2832   */\n  dup4\n    /* \"#utility.yul\":2819:2836   */\n  add\n    /* \"#utility.yul\":2810:2816   */\n  dup5\n    /* \"#utility.yul\":2766:2837   */\n  tag_41\n  jump\t// in\ntag_79:\n    /* \"#utility.yul\":2622:2844   */\n  swap3\n  swap2\n  pop\n  pop\n  jump\t// out\n    /* \"contracts/Pool/Pool.sol\":3787:15267  contract World_Step is Context, IERC20, Ownable {... */\ntag_27:\n  dataSize(sub_0)\n  dup1\n  dataOffset(sub_0)\n  0x00\n  codecopy\n  0x00\n  return\nstop\n\nsub_0: assembly {\n        /* \"contracts/Pool/Pool.sol\":3787:15267  contract World_Step is Context, IERC20, Ownable {... */\n      mstore(0x40, 0x80)\n      jumpi(tag_1, lt(calldatasize, 0x04))\n      shr(0xe0, calldataload(0x00))\n      dup1\n      0x715018a6\n      gt\n      tag_26\n      jumpi\n      dup1\n      0xaad5c023\n      gt\n      tag_27\n      jumpi\n      dup1\n      0xaad5c023\n      eq\n      tag_20\n      jumpi\n      dup1\n      0xc3c8cd80\n      eq\n      tag_21\n      jumpi\n      dup1\n      0xc492f046\n      eq\n      tag_22\n      jumpi\n      dup1\n      0xdd62ed3e\n      eq\n      tag_23\n      jumpi\n      dup1\n      0xe293d316\n      eq\n      tag_24\n      jumpi\n      dup1\n      0xf2fde38b\n      eq\n      tag_25\n      jumpi\n      jump(tag_2)\n    tag_27:\n      dup1\n      0x715018a6\n      eq\n      tag_14\n      jumpi\n      dup1\n      0x758dbe03\n      eq\n      tag_15\n      jumpi\n      dup1\n      0x8da5cb5b\n      eq\n      tag_16\n      jumpi\n      dup1\n      0x95d89b41\n      eq\n      tag_17\n      jumpi\n      dup1\n      0xa2a957bb\n      eq\n      tag_18\n      jumpi\n      dup1\n      0xa9059cbb\n      eq\n      tag_19\n      jumpi\n      jump(tag_2)\n    tag_26:\n      dup1\n      0x313ce567\n      gt\n      tag_28\n      jumpi\n      dup1\n      0x313ce567\n      eq\n      tag_8\n      jumpi\n      dup1\n      0x49bd5a5e\n      eq\n      tag_9\n      jumpi\n      dup1\n      0x59d0f713\n      eq\n      tag_10\n      jumpi\n      dup1\n      0x6d8aa8f8\n      eq\n      tag_11\n      jumpi\n      dup1\n      0x6fc3eaec\n      eq\n      tag_12\n      jumpi\n      dup1\n      0x70a08231\n      eq\n      tag_13\n      jumpi\n      jump(tag_2)\n    tag_28:\n      dup1\n      0x06fdde03\n      eq\n      tag_3\n      jumpi\n      dup1\n      0x095ea7b3\n      eq\n      tag_4\n      jumpi\n      dup1\n      0x1694505e\n      eq\n      tag_5\n      jumpi\n      dup1\n      0x18160ddd\n      eq\n      tag_6\n      jumpi\n      dup1\n      0x23b872dd\n      eq\n      tag_7\n      jumpi\n      jump(tag_2)\n    tag_1:\n      jumpi(tag_2, calldatasize)\n      stop\n    tag_2:\n      0x00\n      dup1\n      revert\n        /* \"contracts/Pool/Pool.sol\":6189:6270  function name() public pure returns (string memory) {... */\n    tag_3:\n      callvalue\n      dup1\n      iszero\n      tag_31\n      jumpi\n      0x00\n      dup1\n      revert\n    tag_31:\n      pop\n      tag_32\n      tag_33\n      jump\t// in\n    tag_32:\n      mload(0x40)\n      tag_34\n      swap2\n      swap1\n      tag_35\n      jump\t// in\n    tag_34:\n      mload(0x40)\n      dup1\n      swap2\n      sub\n      swap1\n      return\n        /* \"contracts/Pool/Pool.sol\":7012:7170  function approve(address spender, uint256 amount) public override returns (bool) {... */\n    tag_4:\n      callvalue\n      dup1\n      iszero\n      tag_36\n      jumpi\n      0x00\n      dup1\n      revert\n    tag_36:\n      pop\n      tag_37\n      0x04\n      dup1\n      calldatasize\n      sub\n      dup2\n      add\n      swap1\n      tag_38\n      swap2\n      swap1\n      tag_39\n      jump\t// in\n    tag_38:\n      tag_40\n      jump\t// in\n    tag_37:\n      mload(0x40)\n      tag_41\n      swap2\n      swap1\n      tag_42\n      jump\t// in\n    tag_41:\n      mload(0x40)\n      dup1\n      swap2\n      sub\n      swap1\n      return\n        /* \"contracts/Pool/Pool.sol\":4891:4932  IUniswapV2Router02 public uniswapV2Router */\n    tag_5:\n      callvalue\n      dup1\n      iszero\n      tag_43\n      jumpi\n      0x00\n      dup1\n      revert\n    tag_43:\n      pop\n      tag_44\n      tag_45\n      jump\t// in\n    tag_44:\n      mload(0x40)\n      tag_46\n      swap2\n      swap1\n      tag_47\n      jump\t// in\n    tag_46:\n      mload(0x40)\n      dup1\n      swap2\n      sub\n      swap1\n      return\n        /* \"contracts/Pool/Pool.sol\":6454:6547  function totalSupply() public pure override returns (uint256) {... */\n    tag_6:\n      callvalue\n      dup1\n      iszero\n      tag_48\n      jumpi\n      0x00\n      dup1\n      revert\n    tag_48:\n      pop\n      tag_49\n      tag_50\n      jump\t// in\n    tag_49:\n      mload(0x40)\n      tag_51\n      swap2\n      swap1\n      tag_52\n      jump\t// in\n    tag_51:\n      mload(0x40)\n      dup1\n      swap2\n      sub\n      swap1\n      return\n        /* \"contracts/Pool/Pool.sol\":7176:7485  function transferFrom(address sender, address recipient, uint256 amount) public override returns (bool) {... */\n    tag_7:\n      callvalue\n      dup1\n      iszero\n      tag_53\n      jumpi\n      0x00\n      dup1\n      revert\n    tag_53:\n      pop\n      tag_54\n      0x04\n      dup1\n      calldatasize\n      sub\n      dup2\n      add\n      swap1\n      tag_55\n      swap2\n      swap1\n      tag_56\n      jump\t// in\n    tag_55:\n      tag_57\n      jump\t// in\n    tag_54:\n      mload(0x40)\n      tag_58\n      swap2\n      swap1\n      tag_42\n      jump\t// in\n    tag_58:\n      mload(0x40)\n      dup1\n      swap2\n      sub\n      swap1\n      return\n        /* \"contracts/Pool/Pool.sol\":6367:6448  function decimals() public pure returns (uint8) {... */\n    tag_8:\n      callvalue\n      dup1\n      iszero\n      tag_59\n      jumpi\n      0x00\n      dup1\n      revert\n    tag_59:\n      pop\n      tag_60\n      tag_61\n      jump\t// in\n    tag_60:\n      mload(0x40)\n      tag_62\n      swap2\n      swap1\n      tag_63\n      jump\t// in\n    tag_62:\n      mload(0x40)\n      dup1\n      swap2\n      sub\n      swap1\n      return\n        /* \"contracts/Pool/Pool.sol\":4986:5014  address public uniswapV2Pair */\n    tag_9:\n      callvalue\n      dup1\n      iszero\n      tag_64\n      jumpi\n      0x00\n      dup1\n      revert\n    tag_64:\n      pop\n      tag_65\n      tag_66\n      jump\t// in\n    tag_65:\n      mload(0x40)\n      tag_67\n      swap2\n      swap1\n      tag_68\n      jump\t// in\n    tag_67:\n      mload(0x40)\n      dup1\n      swap2\n      sub\n      swap1\n      return\n        /* \"contracts/Pool/Pool.sol\":4938:4979  IUniswapV2Factory public uniswapV2Factory */\n    tag_10:\n      callvalue\n      dup1\n      iszero\n      tag_69\n      jumpi\n      0x00\n      dup1\n      revert\n    tag_69:\n      pop\n      tag_70\n      tag_71\n      jump\t// in\n    tag_70:\n      mload(0x40)\n      tag_72\n      swap2\n      swap1\n      tag_73\n      jump\t// in\n    tag_72:\n      mload(0x40)\n      dup1\n      swap2\n      sub\n      swap1\n      return\n        /* \"contracts/Pool/Pool.sol\":14932:15029  function toggleSwap(bool _swapEnabled) public onlyDev {... */\n    tag_11:\n      callvalue\n      dup1\n      iszero\n      tag_74\n      jumpi\n      0x00\n      dup1\n      revert\n    tag_74:\n      pop\n      tag_75\n      0x04\n      dup1\n      calldatasize\n      sub\n      dup2\n      add\n      swap1\n      tag_76\n      swap2\n      swap1\n      tag_77\n      jump\t// in\n    tag_76:\n      tag_78\n      jump\t// in\n    tag_75:\n      stop\n        /* \"contracts/Pool/Pool.sol\":14112:14370  function manualsend() external {... */\n    tag_12:\n      callvalue\n      dup1\n      iszero\n      tag_79\n      jumpi\n      0x00\n      dup1\n      revert\n    tag_79:\n      pop\n      tag_80\n      tag_81\n      jump\t// in\n    tag_80:\n      stop\n        /* \"contracts/Pool/Pool.sol\":6553:6689  function balanceOf(address account) public view override returns (uint256) {... */\n    tag_13:\n      callvalue\n      dup1\n      iszero\n      tag_82\n      jumpi\n      0x00\n      dup1\n      revert\n    tag_82:\n      pop\n      tag_83\n      0x04\n      dup1\n      calldatasize\n      sub\n      dup2\n      add\n      swap1\n      tag_84\n      swap2\n      swap1\n      tag_85\n      jump\t// in\n    tag_84:\n      tag_86\n      jump\t// in\n    tag_83:\n      mload(0x40)\n      tag_87\n      swap2\n      swap1\n      tag_52\n      jump\t// in\n    tag_87:\n      mload(0x40)\n      dup1\n      swap2\n      sub\n      swap1\n      return\n        /* \"contracts/Pool/Pool.sol\":3381:3526  function renounceOwnership() public virtual onlyOwner {... */\n    tag_14:\n      callvalue\n      dup1\n      iszero\n      tag_88\n      jumpi\n      0x00\n      dup1\n      revert\n    tag_88:\n      pop\n      tag_89\n      tag_90\n      jump\t// in\n    tag_89:\n      stop\n        /* \"contracts/Pool/Pool.sol\":11061:11294  function setNewMarketingAddress(address payable markt) public onlyDev() {... */\n    tag_15:\n      callvalue\n      dup1\n      iszero\n      tag_91\n      jumpi\n      0x00\n      dup1\n      revert\n    tag_91:\n      pop\n      tag_92\n      0x04\n      dup1\n      calldatasize\n      sub\n      dup2\n      add\n      swap1\n      tag_93\n      swap2\n      swap1\n      tag_94\n      jump\t// in\n    tag_93:\n      tag_95\n      jump\t// in\n    tag_92:\n      stop\n        /* \"contracts/Pool/Pool.sol\":3185:3262  function owner() public view returns (address) {... */\n    tag_16:\n      callvalue\n      dup1\n      iszero\n      tag_96\n      jumpi\n      0x00\n      dup1\n      revert\n    tag_96:\n      pop\n      tag_97\n      tag_98\n      jump\t// in\n    tag_97:\n      mload(0x40)\n      tag_99\n      swap2\n      swap1\n      tag_68\n      jump\t// in\n    tag_99:\n      mload(0x40)\n      dup1\n      swap2\n      sub\n      swap1\n      return\n        /* \"contracts/Pool/Pool.sol\":6276:6361  function symbol() public pure returns (string memory) {... */\n    tag_17:\n      callvalue\n      dup1\n      iszero\n      tag_100\n      jumpi\n      0x00\n      dup1\n      revert\n    tag_100:\n      pop\n      tag_101\n      tag_102\n      jump\t// in\n    tag_101:\n      mload(0x40)\n      tag_103\n      swap2\n      swap1\n      tag_35\n      jump\t// in\n    tag_103:\n      mload(0x40)\n      dup1\n      swap2\n      sub\n      swap1\n      return\n        /* \"contracts/Pool/Pool.sol\":14380:14922  function setFee(uint256 redisFeeOnBuy, uint256 redisFeeOnSell, uint256 taxFeeOnBuy, uint256 taxFeeOnSell) public onlyDev {... */\n    tag_18:\n      callvalue\n      dup1\n      iszero\n      tag_104\n      jumpi\n      0x00\n      dup1\n      revert\n    tag_104:\n      pop\n      tag_105\n      0x04\n      dup1\n      calldatasize\n      sub\n      dup2\n      add\n      swap1\n      tag_106\n      swap2\n      swap1\n      tag_107\n      jump\t// in\n    tag_106:\n      tag_108\n      jump\t// in\n    tag_105:\n      stop\n        /* \"contracts/Pool/Pool.sol\":6695:6859  function transfer(address recipient, uint256 amount) public override returns (bool) {... */\n    tag_19:\n      callvalue\n      dup1\n      iszero\n      tag_109\n      jumpi\n      0x00\n      dup1\n      revert\n    tag_109:\n      pop\n      tag_110\n      0x04\n      dup1\n      calldatasize\n      sub\n      dup2\n      add\n      swap1\n      tag_111\n      swap2\n      swap1\n      tag_39\n      jump\t// in\n    tag_111:\n      tag_112\n      jump\t// in\n    tag_110:\n      mload(0x40)\n      tag_113\n      swap2\n      swap1\n      tag_42\n      jump\t// in\n    tag_113:\n      mload(0x40)\n      dup1\n      swap2\n      sub\n      swap1\n      return\n        /* \"contracts/Pool/Pool.sol\":10748:10969  function setNewDevAddress(address payable dev) public onlyDev() {... */\n    tag_20:\n      callvalue\n      dup1\n      iszero\n      tag_114\n      jumpi\n      0x00\n      dup1\n      revert\n    tag_114:\n      pop\n      tag_115\n      0x04\n      dup1\n      calldatasize\n      sub\n      dup2\n      add\n      swap1\n      tag_116\n      swap2\n      swap1\n      tag_94\n      jump\t// in\n    tag_116:\n      tag_117\n      jump\t// in\n    tag_115:\n      stop\n        /* \"contracts/Pool/Pool.sol\":13847:14106  function manualswap() external {... */\n    tag_21:\n      callvalue\n      dup1\n      iszero\n      tag_118\n      jumpi\n      0x00\n      dup1\n      revert\n    tag_118:\n      pop\n      tag_119\n      tag_120\n      jump\t// in\n    tag_119:\n      stop\n        /* \"contracts/Pool/Pool.sol\":15035:15265  function excludeMultipleAccountsFromFees(address[] calldata accounts, bool excluded) public onlyOwner {... */\n    tag_22:\n      callvalue\n      dup1\n      iszero\n      tag_121\n      jumpi\n      0x00\n      dup1\n      revert\n    tag_121:\n      pop\n      tag_122\n      0x04\n      dup1\n      calldatasize\n      sub\n      dup2\n      add\n      swap1\n      tag_123\n      swap2\n      swap1\n      tag_124\n      jump\t// in\n    tag_123:\n      tag_125\n      jump\t// in\n    tag_122:\n      stop\n        /* \"contracts/Pool/Pool.sol\":6865:7006  function allowance(address owner, address spender) public view override returns (uint256) {... */\n    tag_23:\n      callvalue\n      dup1\n      iszero\n      tag_126\n      jumpi\n      0x00\n      dup1\n      revert\n    tag_126:\n      pop\n      tag_127\n      0x04\n      dup1\n      calldatasize\n      sub\n      dup2\n      add\n      swap1\n      tag_128\n      swap2\n      swap1\n      tag_129\n      jump\t// in\n    tag_128:\n      tag_130\n      jump\t// in\n    tag_127:\n      mload(0x40)\n      tag_131\n      swap2\n      swap1\n      tag_52\n      jump\t// in\n    tag_131:\n      mload(0x40)\n      dup1\n      swap2\n      sub\n      swap1\n      return\n        /* \"contracts/Pool/Pool.sol\":10457:10662  function rescueForeignTokens(address _tokenAddr, address _to, uint _amount) public onlyDev() {... */\n    tag_24:\n      callvalue\n      dup1\n      iszero\n      tag_132\n      jumpi\n      0x00\n      dup1\n      revert\n    tag_132:\n      pop\n      tag_133\n      0x04\n      dup1\n      calldatasize\n      sub\n      dup2\n      add\n      swap1\n      tag_134\n      swap2\n      swap1\n      tag_56\n      jump\t// in\n    tag_134:\n      tag_135\n      jump\t// in\n    tag_133:\n      stop\n        /* \"contracts/Pool/Pool.sol\":3625:3782  function transferOwnership(address newOwner) public virtual onlyOwner {... */\n    tag_25:\n      callvalue\n      dup1\n      iszero\n      tag_136\n      jumpi\n      0x00\n      dup1\n      revert\n    tag_136:\n      pop\n      tag_137\n      0x04\n      dup1\n      calldatasize\n      sub\n      dup2\n      add\n      swap1\n      tag_138\n      swap2\n      swap1\n      tag_85\n      jump\t// in\n    tag_138:\n      tag_139\n      jump\t// in\n    tag_137:\n      stop\n        /* \"contracts/Pool/Pool.sol\":6189:6270  function name() public pure returns (string memory) {... */\n    tag_33:\n        /* \"contracts/Pool/Pool.sol\":6226:6239  string memory */\n      0x60\n        /* \"contracts/Pool/Pool.sol\":6258:6263  _name */\n      mload(0x40)\n      dup1\n      0x40\n      add\n      0x40\n      mstore\n      dup1\n      0x0a\n      dup2\n      mstore\n      0x20\n      add\n      0x576f726c64205374657000000000000000000000000000000000000000000000\n      dup2\n      mstore\n      pop\n        /* \"contracts/Pool/Pool.sol\":6251:6263  return _name */\n      swap1\n      pop\n        /* \"contracts/Pool/Pool.sol\":6189:6270  function name() public pure returns (string memory) {... */\n      swap1\n      jump\t// out\n        /* \"contracts/Pool/Pool.sol\":7012:7170  function approve(address spender, uint256 amount) public override returns (bool) {... */\n    tag_40:\n        /* \"contracts/Pool/Pool.sol\":7087:7091  bool */\n      0x00\n        /* \"contracts/Pool/Pool.sol\":7103:7142  _approve(_msgSender(), spender, amount) */\n      tag_142\n        /* \"contracts/Pool/Pool.sol\":7112:7124  _msgSender() */\n      tag_143\n        /* \"contracts/Pool/Pool.sol\":7112:7122  _msgSender */\n      tag_144\n        /* \"contracts/Pool/Pool.sol\":7112:7124  _msgSender() */\n      jump\t// in\n    tag_143:\n        /* \"contracts/Pool/Pool.sol\":7126:7133  spender */\n      dup5\n        /* \"contracts/Pool/Pool.sol\":7135:7141  amount */\n      dup5\n        /* \"contracts/Pool/Pool.sol\":7103:7111  _approve */\n      tag_145\n        /* \"contracts/Pool/Pool.sol\":7103:7142  _approve(_msgSender(), spender, amount) */\n      jump\t// in\n    tag_142:\n        /* \"contracts/Pool/Pool.sol\":7159:7163  true */\n      0x01\n        /* \"contracts/Pool/Pool.sol\":7152:7163  return true */\n      swap1\n      pop\n        /* \"contracts/Pool/Pool.sol\":7012:7170  function approve(address spender, uint256 amount) public override returns (bool) {... */\n      swap3\n      swap2\n      pop\n      pop\n      jump\t// out\n        /* \"contracts/Pool/Pool.sol\":4891:4932  IUniswapV2Router02 public uniswapV2Router */\n    tag_45:\n      0x10\n      0x00\n      swap1\n      sload\n      swap1\n      0x0100\n      exp\n      swap1\n      div\n      0xffffffffffffffffffffffffffffffffffffffff\n      and\n      dup2\n      jump\t// out\n        /* \"contracts/Pool/Pool.sol\":6454:6547  function totalSupply() public pure override returns (uint256) {... */\n    tag_50:\n        /* \"contracts/Pool/Pool.sol\":6507:6514  uint256 */\n      0x00\n        /* \"contracts/Pool/Pool.sol\":4200:4213  1*10**9*10**9 */\n      0x0de0b6b3a7640000\n        /* \"contracts/Pool/Pool.sol\":6526:6540  return _tTotal */\n      swap1\n      pop\n        /* \"contracts/Pool/Pool.sol\":6454:6547  function totalSupply() public pure override returns (uint256) {... */\n      swap1\n      jump\t// out\n        /* \"contracts/Pool/Pool.sol\":7176:7485  function transferFrom(address sender, address recipient, uint256 amount) public override returns (bool) {... */\n    tag_57:\n        /* \"contracts/Pool/Pool.sol\":7274:7278  bool */\n      0x00\n        /* \"contracts/Pool/Pool.sol\":7290:7326  _transfer(sender, recipient, amount) */\n      tag_148\n        /* \"contracts/Pool/Pool.sol\":7300:7306  sender */\n      dup5\n        /* \"contracts/Pool/Pool.sol\":7308:7317  recipient */\n      dup5\n        /* \"contracts/Pool/Pool.sol\":7319:7325  amount */\n      dup5\n        /* \"contracts/Pool/Pool.sol\":7290:7299  _transfer */\n      tag_149\n        /* \"contracts/Pool/Pool.sol\":7290:7326  _transfer(sender, recipient, amount) */\n      jump\t// in\n    tag_148:\n        /* \"contracts/Pool/Pool.sol\":7336:7457  _approve(sender, _msgSender(), _allowances[sender][_msgSender()].sub(amount, \"ERC20: transfer amount exceeds allowance\")) */\n      tag_150\n        /* \"contracts/Pool/Pool.sol\":7345:7351  sender */\n      dup5\n        /* \"contracts/Pool/Pool.sol\":7353:7365  _msgSender() */\n      tag_151\n        /* \"contracts/Pool/Pool.sol\":7353:7363  _msgSender */\n      tag_144\n        /* \"contracts/Pool/Pool.sol\":7353:7365  _msgSender() */\n      jump\t// in\n    tag_151:\n        /* \"contracts/Pool/Pool.sol\":7367:7456  _allowances[sender][_msgSender()].sub(amount, \"ERC20: transfer amount exceeds allowance\") */\n      tag_152\n        /* \"contracts/Pool/Pool.sol\":7405:7411  amount */\n      dup6\n        /* \"contracts/Pool/Pool.sol\":7367:7456  _allowances[sender][_msgSender()].sub(amount, \"ERC20: transfer amount exceeds allowance\") */\n      mload(0x40)\n      dup1\n      0x60\n      add\n      0x40\n      mstore\n      dup1\n      0x28\n      dup2\n      mstore\n      0x20\n      add\n      data_974d1b4421da69cc60b481194f0dad36a5bb4e23da810da7a7fb30cdba178330\n      0x28\n      swap2\n      codecopy\n        /* \"contracts/Pool/Pool.sol\":7367:7378  _allowances */\n      0x04\n        /* \"contracts/Pool/Pool.sol\":7367:7386  _allowances[sender] */\n      0x00\n        /* \"contracts/Pool/Pool.sol\":7379:7385  sender */\n      dup12\n        /* \"contracts/Pool/Pool.sol\":7367:7386  _allowances[sender] */\n      0xffffffffffffffffffffffffffffffffffffffff\n      and\n      0xffffffffffffffffffffffffffffffffffffffff\n      and\n      dup2\n      mstore\n      0x20\n      add\n      swap1\n      dup2\n      mstore\n      0x20\n      add\n      0x00\n      keccak256\n        /* \"contracts/Pool/Pool.sol\":7367:7400  _allowances[sender][_msgSender()] */\n      0x00\n        /* \"contracts/Pool/Pool.sol\":7387:7399  _msgSender() */\n      tag_153\n        /* \"contracts/Pool/Pool.sol\":7387:7397  _msgSender */\n      tag_144\n        /* \"contracts/Pool/Pool.sol\":7387:7399  _msgSender() */\n      jump\t// in\n    tag_153:\n        /* \"contracts/Pool/Pool.sol\":7367:7400  _allowances[sender][_msgSender()] */\n      0xffffffffffffffffffffffffffffffffffffffff\n      and\n      0xffffffffffffffffffffffffffffffffffffffff\n      and\n      dup2\n      mstore\n      0x20\n      add\n      swap1\n      dup2\n      mstore\n      0x20\n      add\n      0x00\n      keccak256\n      sload\n        /* \"contracts/Pool/Pool.sol\":7367:7404  _allowances[sender][_msgSender()].sub */\n      tag_154\n      swap1\n        /* \"contracts/Pool/Pool.sol\":7367:7456  _allowances[sender][_msgSender()].sub(amount, \"ERC20: transfer amount exceeds allowance\") */\n      swap3\n      swap2\n      swap1\n      0xffffffff\n      and\n      jump\t// in\n    tag_152:\n        /* \"contracts/Pool/Pool.sol\":7336:7344  _approve */\n      tag_145\n        /* \"contracts/Pool/Pool.sol\":7336:7457  _approve(sender, _msgSender(), _allowances[sender][_msgSender()].sub(amount, \"ERC20: transfer amount exceeds allowance\")) */\n      jump\t// in\n    tag_150:\n        /* \"contracts/Pool/Pool.sol\":7474:7478  true */\n      0x01\n        /* \"contracts/Pool/Pool.sol\":7467:7478  return true */\n      swap1\n      pop\n        /* \"contracts/Pool/Pool.sol\":7176:7485  function transferFrom(address sender, address recipient, uint256 amount) public override returns (bool) {... */\n      swap4\n      swap3\n      pop\n      pop\n      pop\n      jump\t// out\n        /* \"contracts/Pool/Pool.sol\":6367:6448  function decimals() public pure returns (uint8) {... */\n    tag_61:\n        /* \"contracts/Pool/Pool.sol\":6408:6413  uint8 */\n      0x00\n        /* \"contracts/Pool/Pool.sol\":4674:4675  9 */\n      0x09\n        /* \"contracts/Pool/Pool.sol\":6425:6441  return _decimals */\n      swap1\n      pop\n        /* \"contracts/Pool/Pool.sol\":6367:6448  function decimals() public pure returns (uint8) {... */\n      swap1\n      jump\t// out\n        /* \"contracts/Pool/Pool.sol\":4986:5014  address public uniswapV2Pair */\n    tag_66:\n      0x12\n      0x00\n      swap1\n      sload\n      swap1\n      0x0100\n      exp\n      swap1\n      div\n      0xffffffffffffffffffffffffffffffffffffffff\n      and\n      dup2\n      jump\t// out\n        /* \"contracts/Pool/Pool.sol\":4938:4979  IUniswapV2Factory public uniswapV2Factory */\n    tag_71:\n      0x11\n      0x00\n      swap1\n      sload\n      swap1\n      0x0100\n      exp\n      swap1\n      div\n      0xffffffffffffffffffffffffffffffffffffffff\n      and\n      dup2\n      jump\t// out\n        /* \"contracts/Pool/Pool.sol\":14932:15029  function toggleSwap(bool _swapEnabled) public onlyDev {... */\n    tag_78:\n        /* \"contracts/Pool/Pool.sol\":6086:6098  _msgSender() */\n      tag_157\n        /* \"contracts/Pool/Pool.sol\":6086:6096  _msgSender */\n      tag_144\n        /* \"contracts/Pool/Pool.sol\":6086:6098  _msgSender() */\n      jump\t// in\n    tag_157:\n        /* \"contracts/Pool/Pool.sol\":6075:6098  owner() == _msgSender() */\n      0xffffffffffffffffffffffffffffffffffffffff\n      and\n        /* \"contracts/Pool/Pool.sol\":6075:6082  owner() */\n      tag_158\n        /* \"contracts/Pool/Pool.sol\":6075:6080  owner */\n      tag_98\n        /* \"contracts/Pool/Pool.sol\":6075:6082  owner() */\n      jump\t// in\n    tag_158:\n        /* \"contracts/Pool/Pool.sol\":6075:6098  owner() == _msgSender() */\n      0xffffffffffffffffffffffffffffffffffffffff\n      and\n      eq\n        /* \"contracts/Pool/Pool.sol\":6075:6137  owner() == _msgSender() || _developmentAddress == _msgSender() */\n      dup1\n      tag_159\n      jumpi\n      pop\n        /* \"contracts/Pool/Pool.sol\":6125:6137  _msgSender() */\n      tag_160\n        /* \"contracts/Pool/Pool.sol\":6125:6135  _msgSender */\n      tag_144\n        /* \"contracts/Pool/Pool.sol\":6125:6137  _msgSender() */\n      jump\t// in\n    tag_160:\n        /* \"contracts/Pool/Pool.sol\":6102:6137  _developmentAddress == _msgSender() */\n      0xffffffffffffffffffffffffffffffffffffffff\n      and\n        /* \"contracts/Pool/Pool.sol\":6102:6121  _developmentAddress */\n      0x0e\n      0x00\n      swap1\n      sload\n      swap1\n      0x0100\n      exp\n      swap1\n      div\n      0xffffffffffffffffffffffffffffffffffffffff\n      and\n        /* \"contracts/Pool/Pool.sol\":6102:6137  _developmentAddress == _msgSender() */\n      0xffffffffffffffffffffffffffffffffffffffff\n      and\n      eq\n        /* \"contracts/Pool/Pool.sol\":6075:6137  owner() == _msgSender() || _developmentAddress == _msgSender() */\n    tag_159:\n        /* \"contracts/Pool/Pool.sol\":6067:6163  require(owner() == _msgSender() || _developmentAddress == _msgSender(), \"Caller is not the dev\") */\n      tag_161\n      jumpi\n      mload(0x40)\n      0x08c379a000000000000000000000000000000000000000000000000000000000\n      dup2\n      mstore\n      0x04\n      add\n      tag_162\n      swap1\n      tag_163\n      jump\t// in\n    tag_162:\n      mload(0x40)\n      dup1\n      swap2\n      sub\n      swap1\n      revert\n    tag_161:\n        /* \"contracts/Pool/Pool.sol\":15010:15022  _swapEnabled */\n      dup1\n        /* \"contracts/Pool/Pool.sol\":14996:15007  swapEnabled */\n      0x12\n      0x15\n        /* \"contracts/Pool/Pool.sol\":14996:15022  swapEnabled = _swapEnabled */\n      0x0100\n      exp\n      dup2\n      sload\n      dup2\n      0xff\n      mul\n      not\n      and\n      swap1\n      dup4\n      iszero\n      iszero\n      mul\n      or\n      swap1\n      sstore\n      pop\n        /* \"contracts/Pool/Pool.sol\":14932:15029  function toggleSwap(bool _swapEnabled) public onlyDev {... */\n      pop\n      jump\t// out\n        /* \"contracts/Pool/Pool.sol\":14112:14370  function manualsend() external {... */\n    tag_81:\n        /* \"contracts/Pool/Pool.sol\":14177:14196  _developmentAddress */\n      0x0e\n      0x00\n      swap1\n      sload\n      swap1\n      0x0100\n      exp\n      swap1\n      div\n      0xffffffffffffffffffffffffffffffffffffffff\n      and\n        /* \"contracts/Pool/Pool.sol\":14161:14196  _msgSender() == _developmentAddress */\n      0xffffffffffffffffffffffffffffffffffffffff\n      and\n        /* \"contracts/Pool/Pool.sol\":14161:14173  _msgSender() */\n      tag_166\n        /* \"contracts/Pool/Pool.sol\":14161:14171  _msgSender */\n      tag_144\n        /* \"contracts/Pool/Pool.sol\":14161:14173  _msgSender() */\n      jump\t// in\n    tag_166:\n        /* \"contracts/Pool/Pool.sol\":14161:14196  _msgSender() == _developmentAddress */\n      0xffffffffffffffffffffffffffffffffffffffff\n      and\n      eq\n        /* \"contracts/Pool/Pool.sol\":14161:14233  _msgSender() == _developmentAddress || _msgSender() == _marketingAddress */\n      dup1\n      tag_167\n      jumpi\n      pop\n        /* \"contracts/Pool/Pool.sol\":14216:14233  _marketingAddress */\n      0x0f\n      0x00\n      swap1\n      sload\n      swap1\n      0x0100\n      exp\n      swap1\n      div\n      0xffffffffffffffffffffffffffffffffffffffff\n      and\n        /* \"contracts/Pool/Pool.sol\":14200:14233  _msgSender() == _marketingAddress */\n      0xffffffffffffffffffffffffffffffffffffffff\n      and\n        /* \"contracts/Pool/Pool.sol\":14200:14212  _msgSender() */\n      tag_168\n        /* \"contracts/Pool/Pool.sol\":14200:14210  _msgSender */\n      tag_144\n        /* \"contracts/Pool/Pool.sol\":14200:14212  _msgSender() */\n      jump\t// in\n    tag_168:\n        /* \"contracts/Pool/Pool.sol\":14200:14233  _msgSender() == _marketingAddress */\n      0xffffffffffffffffffffffffffffffffffffffff\n      and\n      eq\n        /* \"contracts/Pool/Pool.sol\":14161:14233  _msgSender() == _developmentAddress || _msgSender() == _marketingAddress */\n    tag_167:\n        /* \"contracts/Pool/Pool.sol\":14161:14260  _msgSender() == _developmentAddress || _msgSender() == _marketingAddress || _msgSender() == owner() */\n      dup1\n      tag_169\n      jumpi\n      pop\n        /* \"contracts/Pool/Pool.sol\":14253:14260  owner() */\n      tag_170\n        /* \"contracts/Pool/Pool.sol\":14253:14258  owner */\n      tag_98\n        /* \"contracts/Pool/Pool.sol\":14253:14260  owner() */\n      jump\t// in\n    tag_170:\n        /* \"contracts/Pool/Pool.sol\":14237:14260  _msgSender() == owner() */\n      0xffffffffffffffffffffffffffffffffffffffff\n      and\n        /* \"contracts/Pool/Pool.sol\":14237:14249  _msgSender() */\n      tag_171\n        /* \"contracts/Pool/Pool.sol\":14237:14247  _msgSender */\n      tag_144\n        /* \"contracts/Pool/Pool.sol\":14237:14249  _msgSender() */\n      jump\t// in\n    tag_171:\n        /* \"contracts/Pool/Pool.sol\":14237:14260  _msgSender() == owner() */\n      0xffffffffffffffffffffffffffffffffffffffff\n      and\n      eq\n        /* \"contracts/Pool/Pool.sol\":14161:14260  _msgSender() == _developmentAddress || _msgSender() == _marketingAddress || _msgSender() == owner() */\n    tag_169:\n        /* \"contracts/Pool/Pool.sol\":14153:14261  require(_msgSender() == _developmentAddress || _msgSender() == _marketingAddress || _msgSender() == owner()) */\n      tag_172\n      jumpi\n      0x00\n      dup1\n      revert\n    tag_172:\n        /* \"contracts/Pool/Pool.sol\":14271:14297  uint256 contractETHBalance */\n      0x00\n        /* \"contracts/Pool/Pool.sol\":14300:14321  address(this).balance */\n      selfbalance\n        /* \"contracts/Pool/Pool.sol\":14271:14321  uint256 contractETHBalance = address(this).balance */\n      swap1\n      pop\n        /* \"contracts/Pool/Pool.sol\":14331:14363  sendETHToFee(contractETHBalance) */\n      tag_173\n        /* \"contracts/Pool/Pool.sol\":14344:14362  contractETHBalance */\n      dup2\n        /* \"contracts/Pool/Pool.sol\":14331:14343  sendETHToFee */\n      tag_174\n        /* \"contracts/Pool/Pool.sol\":14331:14363  sendETHToFee(contractETHBalance) */\n      jump\t// in\n    tag_173:\n        /* \"contracts/Pool/Pool.sol\":14143:14370  {... */\n      pop\n        /* \"contracts/Pool/Pool.sol\":14112:14370  function manualsend() external {... */\n      jump\t// out\n        /* \"contracts/Pool/Pool.sol\":6553:6689  function balanceOf(address account) public view override returns (uint256) {... */\n    tag_86:\n        /* \"contracts/Pool/Pool.sol\":6619:6626  uint256 */\n      0x00\n        /* \"contracts/Pool/Pool.sol\":6645:6682  tokenFromReflection(_rOwned[account]) */\n      tag_176\n        /* \"contracts/Pool/Pool.sol\":6665:6672  _rOwned */\n      0x02\n        /* \"contracts/Pool/Pool.sol\":6665:6681  _rOwned[account] */\n      0x00\n        /* \"contracts/Pool/Pool.sol\":6673:6680  account */\n      dup5\n        /* \"contracts/Pool/Pool.sol\":6665:6681  _rOwned[account] */\n      0xffffffffffffffffffffffffffffffffffffffff\n      and\n      0xffffffffffffffffffffffffffffffffffffffff\n      and\n      dup2\n      mstore\n      0x20\n      add\n      swap1\n      dup2\n      mstore\n      0x20\n      add\n      0x00\n      keccak256\n      sload\n        /* \"contracts/Pool/Pool.sol\":6645:6664  tokenFromReflection */\n      tag_177\n        /* \"contracts/Pool/Pool.sol\":6645:6682  tokenFromReflection(_rOwned[account]) */\n      jump\t// in\n    tag_176:\n        /* \"contracts/Pool/Pool.sol\":6638:6682  return tokenFromReflection(_rOwned[account]) */\n      swap1\n      pop\n        /* \"contracts/Pool/Pool.sol\":6553:6689  function balanceOf(address account) public view override returns (uint256) {... */\n      swap2\n      swap1\n      pop\n      jump\t// out\n        /* \"contracts/Pool/Pool.sol\":3381:3526  function renounceOwnership() public virtual onlyOwner {... */\n    tag_90:\n        /* \"contracts/Pool/Pool.sol\":3317:3329  _msgSender() */\n      tag_179\n        /* \"contracts/Pool/Pool.sol\":3317:3327  _msgSender */\n      tag_144\n        /* \"contracts/Pool/Pool.sol\":3317:3329  _msgSender() */\n      jump\t// in\n    tag_179:\n        /* \"contracts/Pool/Pool.sol\":3307:3329  _owner == _msgSender() */\n      0xffffffffffffffffffffffffffffffffffffffff\n      and\n        /* \"contracts/Pool/Pool.sol\":3307:3313  _owner */\n      0x00\n      dup1\n      sload\n      swap1\n      0x0100\n      exp\n      swap1\n      div\n      0xffffffffffffffffffffffffffffffffffffffff\n      and\n        /* \"contracts/Pool/Pool.sol\":3307:3329  _owner == _msgSender() */\n      0xffffffffffffffffffffffffffffffffffffffff\n      and\n      eq\n        /* \"contracts/Pool/Pool.sol\":3299:3357  require(_owner == _msgSender(), \"Caller is not the owner\") */\n      tag_180\n      jumpi\n      mload(0x40)\n      0x08c379a000000000000000000000000000000000000000000000000000000000\n      dup2\n      mstore\n      0x04\n      add\n      tag_181\n      swap1\n      tag_182\n      jump\t// in\n    tag_181:\n      mload(0x40)\n      dup1\n      swap2\n      sub\n      swap1\n      revert\n    tag_180:\n        /* \"contracts/Pool/Pool.sol\":3487:3488  0 */\n      0x00\n        /* \"contracts/Pool/Pool.sol\":3450:3490  OwnershipTransferred(_owner, address(0)) */\n      0xffffffffffffffffffffffffffffffffffffffff\n      and\n        /* \"contracts/Pool/Pool.sol\":3471:3477  _owner */\n      0x00\n      dup1\n      sload\n      swap1\n      0x0100\n      exp\n      swap1\n      div\n      0xffffffffffffffffffffffffffffffffffffffff\n      and\n        /* \"contracts/Pool/Pool.sol\":3450:3490  OwnershipTransferred(_owner, address(0)) */\n      0xffffffffffffffffffffffffffffffffffffffff\n      and\n      0x8be0079c531659141344cd1fd0a4f28419497f9722a3daafe3b4186f6b6457e0\n      mload(0x40)\n      mload(0x40)\n      dup1\n      swap2\n      sub\n      swap1\n      log3\n        /* \"contracts/Pool/Pool.sol\":3517:3518  0 */\n      0x00\n        /* \"contracts/Pool/Pool.sol\":3500:3506  _owner */\n      dup1\n      0x00\n        /* \"contracts/Pool/Pool.sol\":3500:3519  _owner = address(0) */\n      0x0100\n      exp\n      dup2\n      sload\n      dup2\n      0xffffffffffffffffffffffffffffffffffffffff\n      mul\n      not\n      and\n      swap1\n      dup4\n      0xffffffffffffffffffffffffffffffffffffffff\n      and\n      mul\n      or\n      swap1\n      sstore\n      pop\n        /* \"contracts/Pool/Pool.sol\":3381:3526  function renounceOwnership() public virtual onlyOwner {... */\n      jump\t// out\n        /* \"contracts/Pool/Pool.sol\":11061:11294  function setNewMarketingAddress(address payable markt) public onlyDev() {... */\n    tag_95:\n        /* \"contracts/Pool/Pool.sol\":6086:6098  _msgSender() */\n      tag_185\n        /* \"contracts/Pool/Pool.sol\":6086:6096  _msgSender */\n      tag_144\n        /* \"contracts/Pool/Pool.sol\":6086:6098  _msgSender() */\n      jump\t// in\n    tag_185:\n        /* \"contracts/Pool/Pool.sol\":6075:6098  owner() == _msgSender() */\n      0xffffffffffffffffffffffffffffffffffffffff\n      and\n        /* \"contracts/Pool/Pool.sol\":6075:6082  owner() */\n      tag_186\n        /* \"contracts/Pool/Pool.sol\":6075:6080  owner */\n      tag_98\n        /* \"contracts/Pool/Pool.sol\":6075:6082  owner() */\n      jump\t// in\n    tag_186:\n        /* \"contracts/Pool/Pool.sol\":6075:6098  owner() == _msgSender() */\n      0xffffffffffffffffffffffffffffffffffffffff\n      and\n      eq\n        /* \"contracts/Pool/Pool.sol\":6075:6137  owner() == _msgSender() || _developmentAddress == _msgSender() */\n      dup1\n      tag_187\n      jumpi\n      pop\n        /* \"contracts/Pool/Pool.sol\":6125:6137  _msgSender() */\n      tag_188\n        /* \"contracts/Pool/Pool.sol\":6125:6135  _msgSender */\n      tag_144\n        /* \"contracts/Pool/Pool.sol\":6125:6137  _msgSender() */\n      jump\t// in\n    tag_188:\n        /* \"contracts/Pool/Pool.sol\":6102:6137  _developmentAddress == _msgSender() */\n      0xffffffffffffffffffffffffffffffffffffffff\n      and\n        /* \"contracts/Pool/Pool.sol\":6102:6121  _developmentAddress */\n      0x0e\n      0x00\n      swap1\n      sload\n      swap1\n      0x0100\n      exp\n      swap1\n      div\n      0xffffffffffffffffffffffffffffffffffffffff\n      and\n        /* \"contracts/Pool/Pool.sol\":6102:6137  _developmentAddress == _msgSender() */\n      0xffffffffffffffffffffffffffffffffffffffff\n      and\n      eq\n        /* \"contracts/Pool/Pool.sol\":6075:6137  owner() == _msgSender() || _developmentAddress == _msgSender() */\n    tag_187:\n        /* \"contracts/Pool/Pool.sol\":6067:6163  require(owner() == _msgSender() || _developmentAddress == _msgSender(), \"Caller is not the dev\") */\n      tag_189\n      jumpi\n      mload(0x40)\n      0x08c379a000000000000000000000000000000000000000000000000000000000\n      dup2\n      mstore\n      0x04\n      add\n      tag_190\n      swap1\n      tag_163\n      jump\t// in\n    tag_190:\n      mload(0x40)\n      dup1\n      swap2\n      sub\n      swap1\n      revert\n    tag_189:\n        /* \"contracts/Pool/Pool.sol\":11191:11196  markt */\n      dup1\n        /* \"contracts/Pool/Pool.sol\":11148:11197  marketingAddressUpdated(_marketingAddress, markt) */\n      0xffffffffffffffffffffffffffffffffffffffff\n      and\n        /* \"contracts/Pool/Pool.sol\":11172:11189  _marketingAddress */\n      0x0f\n      0x00\n      swap1\n      sload\n      swap1\n      0x0100\n      exp\n      swap1\n      div\n      0xffffffffffffffffffffffffffffffffffffffff\n      and\n        /* \"contracts/Pool/Pool.sol\":11148:11197  marketingAddressUpdated(_marketingAddress, markt) */\n      0xffffffffffffffffffffffffffffffffffffffff\n      and\n      0xa64373a629bc0c09eacf8a9cc2c7b070fa0a8b7e2e9b8aaee408a3c02eb1676b\n      mload(0x40)\n      mload(0x40)\n      dup1\n      swap2\n      sub\n      swap1\n      log3\n        /* \"contracts/Pool/Pool.sol\":11228:11233  markt */\n      dup1\n        /* \"contracts/Pool/Pool.sol\":11208:11225  _marketingAddress */\n      0x0f\n      0x00\n        /* \"contracts/Pool/Pool.sol\":11208:11233  _marketingAddress = markt */\n      0x0100\n      exp\n      dup2\n      sload\n      dup2\n      0xffffffffffffffffffffffffffffffffffffffff\n      mul\n      not\n      and\n      swap1\n      dup4\n      0xffffffffffffffffffffffffffffffffffffffff\n      and\n      mul\n      or\n      swap1\n      sstore\n      pop\n        /* \"contracts/Pool/Pool.sol\":11283:11287  true */\n      0x01\n        /* \"contracts/Pool/Pool.sol\":11243:11261  _isExcludedFromFee */\n      0x05\n        /* \"contracts/Pool/Pool.sol\":11243:11280  _isExcludedFromFee[_marketingAddress] */\n      0x00\n        /* \"contracts/Pool/Pool.sol\":11262:11279  _marketingAddress */\n      0x0f\n      0x00\n      swap1\n      sload\n      swap1\n      0x0100\n      exp\n      swap1\n      div\n      0xffffffffffffffffffffffffffffffffffffffff\n      and\n        /* \"contracts/Pool/Pool.sol\":11243:11280  _isExcludedFromFee[_marketingAddress] */\n      0xffffffffffffffffffffffffffffffffffffffff\n      and\n      0xffffffffffffffffffffffffffffffffffffffff\n      and\n      dup2\n      mstore\n      0x20\n      add\n      swap1\n      dup2\n      mstore\n      0x20\n      add\n      0x00\n      keccak256\n      0x00\n        /* \"contracts/Pool/Pool.sol\":11243:11287  _isExcludedFromFee[_marketingAddress] = true */\n      0x0100\n      exp\n      dup2\n      sload\n      dup2\n      0xff\n      mul\n      not\n      and\n      swap1\n      dup4\n      iszero\n      iszero\n      mul\n      or\n      swap1\n      sstore\n      pop\n        /* \"contracts/Pool/Pool.sol\":11061:11294  function setNewMarketingAddress(address payable markt) public onlyDev() {... */\n      pop\n      jump\t// out\n        /* \"contracts/Pool/Pool.sol\":3185:3262  function owner() public view returns (address) {... */\n    tag_98:\n        /* \"contracts/Pool/Pool.sol\":3223:3230  address */\n      0x00\n        /* \"contracts/Pool/Pool.sol\":3249:3255  _owner */\n      dup1\n      0x00\n      swap1\n      sload\n      swap1\n      0x0100\n      exp\n      swap1\n      div\n      0xffffffffffffffffffffffffffffffffffffffff\n      and\n        /* \"contracts/Pool/Pool.sol\":3242:3255  return _owner */\n      swap1\n      pop\n        /* \"contracts/Pool/Pool.sol\":3185:3262  function owner() public view returns (address) {... */\n      swap1\n      jump\t// out\n        /* \"contracts/Pool/Pool.sol\":6276:6361  function symbol() public pure returns (string memory) {... */\n    tag_102:\n        /* \"contracts/Pool/Pool.sol\":6315:6328  string memory */\n      0x60\n        /* \"contracts/Pool/Pool.sol\":6347:6354  _symbol */\n      mload(0x40)\n      dup1\n      0x40\n      add\n      0x40\n      mstore\n      dup1\n      0x03\n      dup2\n      mstore\n      0x20\n      add\n      0x5753500000000000000000000000000000000000000000000000000000000000\n      dup2\n      mstore\n      pop\n        /* \"contracts/Pool/Pool.sol\":6340:6354  return _symbol */\n      swap1\n      pop\n        /* \"contracts/Pool/Pool.sol\":6276:6361  function symbol() public pure returns (string memory) {... */\n      swap1\n      jump\t// out\n        /* \"contracts/Pool/Pool.sol\":14380:14922  function setFee(uint256 redisFeeOnBuy, uint256 redisFeeOnSell, uint256 taxFeeOnBuy, uint256 taxFeeOnSell) public onlyDev {... */\n    tag_108:\n        /* \"contracts/Pool/Pool.sol\":6086:6098  _msgSender() */\n      tag_195\n        /* \"contracts/Pool/Pool.sol\":6086:6096  _msgSender */\n      tag_144\n        /* \"contracts/Pool/Pool.sol\":6086:6098  _msgSender() */\n      jump\t// in\n    tag_195:\n        /* \"contracts/Pool/Pool.sol\":6075:6098  owner() == _msgSender() */\n      0xffffffffffffffffffffffffffffffffffffffff\n      and\n        /* \"contracts/Pool/Pool.sol\":6075:6082  owner() */\n      tag_196\n        /* \"contracts/Pool/Pool.sol\":6075:6080  owner */\n      tag_98\n        /* \"contracts/Pool/Pool.sol\":6075:6082  owner() */\n      jump\t// in\n    tag_196:\n        /* \"contracts/Pool/Pool.sol\":6075:6098  owner() == _msgSender() */\n      0xffffffffffffffffffffffffffffffffffffffff\n      and\n      eq\n        /* \"contracts/Pool/Pool.sol\":6075:6137  owner() == _msgSender() || _developmentAddress == _msgSender() */\n      dup1\n      tag_197\n      jumpi\n      pop\n        /* \"contracts/Pool/Pool.sol\":6125:6137  _msgSender() */\n      tag_198\n        /* \"contracts/Pool/Pool.sol\":6125:6135  _msgSender */\n      tag_144\n        /* \"contracts/Pool/Pool.sol\":6125:6137  _msgSender() */\n      jump\t// in\n    tag_198:\n        /* \"contracts/Pool/Pool.sol\":6102:6137  _developmentAddress == _msgSender() */\n      0xffffffffffffffffffffffffffffffffffffffff\n      and\n        /* \"contracts/Pool/Pool.sol\":6102:6121  _developmentAddress */\n      0x0e\n      0x00\n      swap1\n      sload\n      swap1\n      0x0100\n      exp\n      swap1\n      div\n      0xffffffffffffffffffffffffffffffffffffffff\n      and\n        /* \"contracts/Pool/Pool.sol\":6102:6137  _developmentAddress == _msgSender() */\n      0xffffffffffffffffffffffffffffffffffffffff\n      and\n      eq\n        /* \"contracts/Pool/Pool.sol\":6075:6137  owner() == _msgSender() || _developmentAddress == _msgSender() */\n    tag_197:\n        /* \"contracts/Pool/Pool.sol\":6067:6163  require(owner() == _msgSender() || _developmentAddress == _msgSender(), \"Caller is not the dev\") */\n      tag_199\n      jumpi\n      mload(0x40)\n      0x08c379a000000000000000000000000000000000000000000000000000000000\n      dup2\n      mstore\n      0x04\n      add\n      tag_200\n      swap1\n      tag_163\n      jump\t// in\n    tag_200:\n      mload(0x40)\n      dup1\n      swap2\n      sub\n      swap1\n      revert\n    tag_199:\n        /* \"contracts/Pool/Pool.sol\":14532:14534  11 */\n      0x0b\n        /* \"contracts/Pool/Pool.sol\":14516:14529  redisFeeOnBuy */\n      dup5\n        /* \"contracts/Pool/Pool.sol\":14516:14534  redisFeeOnBuy < 11 */\n      lt\n        /* \"contracts/Pool/Pool.sol\":14508:14568  require(redisFeeOnBuy < 11, \"Redis cannot be more than 10.\") */\n      tag_202\n      jumpi\n      mload(0x40)\n      0x08c379a000000000000000000000000000000000000000000000000000000000\n      dup2\n      mstore\n      0x04\n      add\n      tag_203\n      swap1\n      tag_204\n      jump\t// in\n    tag_203:\n      mload(0x40)\n      dup1\n      swap2\n      sub\n      swap1\n      revert\n    tag_202:\n        /* \"contracts/Pool/Pool.sol\":14600:14602  11 */\n      0x0b\n        /* \"contracts/Pool/Pool.sol\":14583:14597  redisFeeOnSell */\n      dup4\n        /* \"contracts/Pool/Pool.sol\":14583:14602  redisFeeOnSell < 11 */\n      lt\n        /* \"contracts/Pool/Pool.sol\":14575:14636  require(redisFeeOnSell < 11, \"Redis cannot be more than 10.\") */\n      tag_205\n      jumpi\n      mload(0x40)\n      0x08c379a000000000000000000000000000000000000000000000000000000000\n      dup2\n      mstore\n      0x04\n      add\n      tag_206\n      swap1\n      tag_204\n      jump\t// in\n    tag_206:\n      mload(0x40)\n      dup1\n      swap2\n      sub\n      swap1\n      revert\n    tag_205:\n        /* \"contracts/Pool/Pool.sol\":14665:14666  7 */\n      0x07\n        /* \"contracts/Pool/Pool.sol\":14651:14662  taxFeeOnBuy */\n      dup3\n        /* \"contracts/Pool/Pool.sol\":14651:14666  taxFeeOnBuy < 7 */\n      lt\n        /* \"contracts/Pool/Pool.sol\":14643:14697  require(taxFeeOnBuy < 7, \"Tax cannot be more than 6.\") */\n      tag_207\n      jumpi\n      mload(0x40)\n      0x08c379a000000000000000000000000000000000000000000000000000000000\n      dup2\n      mstore\n      0x04\n      add\n      tag_208\n      swap1\n      tag_209\n      jump\t// in\n    tag_208:\n      mload(0x40)\n      dup1\n      swap2\n      sub\n      swap1\n      revert\n    tag_207:\n        /* \"contracts/Pool/Pool.sol\":14727:14728  7 */\n      0x07\n        /* \"contracts/Pool/Pool.sol\":14712:14724  taxFeeOnSell */\n      dup2\n        /* \"contracts/Pool/Pool.sol\":14712:14728  taxFeeOnSell < 7 */\n      lt\n        /* \"contracts/Pool/Pool.sol\":14704:14759  require(taxFeeOnSell < 7, \"Tax cannot be more than 6.\") */\n      tag_210\n      jumpi\n      mload(0x40)\n      0x08c379a000000000000000000000000000000000000000000000000000000000\n      dup2\n      mstore\n      0x04\n      add\n      tag_211\n      swap1\n      tag_209\n      jump\t// in\n    tag_211:\n      mload(0x40)\n      dup1\n      swap2\n      sub\n      swap1\n      revert\n    tag_210:\n        /* \"contracts/Pool/Pool.sol\":14786:14799  redisFeeOnBuy */\n      dup4\n        /* \"contracts/Pool/Pool.sol\":14769:14783  _redisFeeOnBuy */\n      0x08\n        /* \"contracts/Pool/Pool.sol\":14769:14799  _redisFeeOnBuy = redisFeeOnBuy */\n      dup2\n      swap1\n      sstore\n      pop\n        /* \"contracts/Pool/Pool.sol\":14827:14841  redisFeeOnSell */\n      dup3\n        /* \"contracts/Pool/Pool.sol\":14809:14824  _redisFeeOnSell */\n      0x0a\n        /* \"contracts/Pool/Pool.sol\":14809:14841  _redisFeeOnSell = redisFeeOnSell */\n      dup2\n      swap1\n      sstore\n      pop\n        /* \"contracts/Pool/Pool.sol\":14866:14877  taxFeeOnBuy */\n      dup2\n        /* \"contracts/Pool/Pool.sol\":14851:14863  _taxFeeOnBuy */\n      0x09\n        /* \"contracts/Pool/Pool.sol\":14851:14877  _taxFeeOnBuy = taxFeeOnBuy */\n      dup2\n      swap1\n      sstore\n      pop\n        /* \"contracts/Pool/Pool.sol\":14903:14915  taxFeeOnSell */\n      dup1\n        /* \"contracts/Pool/Pool.sol\":14887:14900  _taxFeeOnSell */\n      0x0b\n        /* \"contracts/Pool/Pool.sol\":14887:14915  _taxFeeOnSell = taxFeeOnSell */\n      dup2\n      swap1\n      sstore\n      pop\n        /* \"contracts/Pool/Pool.sol\":14380:14922  function setFee(uint256 redisFeeOnBuy, uint256 redisFeeOnSell, uint256 taxFeeOnBuy, uint256 taxFeeOnSell) public onlyDev {... */\n      pop\n      pop\n      pop\n      pop\n      jump\t// out\n        /* \"contracts/Pool/Pool.sol\":6695:6859  function transfer(address recipient, uint256 amount) public override returns (bool) {... */\n    tag_112:\n        /* \"contracts/Pool/Pool.sol\":6773:6777  bool */\n      0x00\n        /* \"contracts/Pool/Pool.sol\":6789:6831  _transfer(_msgSender(), recipient, amount) */\n      tag_213\n        /* \"contracts/Pool/Pool.sol\":6799:6811  _msgSender() */\n      tag_214\n        /* \"contracts/Pool/Pool.sol\":6799:6809  _msgSender */\n      tag_144\n        /* \"contracts/Pool/Pool.sol\":6799:6811  _msgSender() */\n      jump\t// in\n    tag_214:\n        /* \"contracts/Pool/Pool.sol\":6813:6822  recipient */\n      dup5\n        /* \"contracts/Pool/Pool.sol\":6824:6830  amount */\n      dup5\n        /* \"contracts/Pool/Pool.sol\":6789:6798  _transfer */\n      tag_149\n        /* \"contracts/Pool/Pool.sol\":6789:6831  _transfer(_msgSender(), recipient, amount) */\n      jump\t// in\n    tag_213:\n        /* \"contracts/Pool/Pool.sol\":6848:6852  true */\n      0x01\n        /* \"contracts/Pool/Pool.sol\":6841:6852  return true */\n      swap1\n      pop\n        /* \"contracts/Pool/Pool.sol\":6695:6859  function transfer(address recipient, uint256 amount) public override returns (bool) {... */\n      swap3\n      swap2\n      pop\n      pop\n      jump\t// out\n        /* \"contracts/Pool/Pool.sol\":10748:10969  function setNewDevAddress(address payable dev) public onlyDev() {... */\n    tag_117:\n        /* \"contracts/Pool/Pool.sol\":6086:6098  _msgSender() */\n      tag_216\n        /* \"contracts/Pool/Pool.sol\":6086:6096  _msgSender */\n      tag_144\n        /* \"contracts/Pool/Pool.sol\":6086:6098  _msgSender() */\n      jump\t// in\n    tag_216:\n        /* \"contracts/Pool/Pool.sol\":6075:6098  owner() == _msgSender() */\n      0xffffffffffffffffffffffffffffffffffffffff\n      and\n        /* \"contracts/Pool/Pool.sol\":6075:6082  owner() */\n      tag_217\n        /* \"contracts/Pool/Pool.sol\":6075:6080  owner */\n      tag_98\n        /* \"contracts/Pool/Pool.sol\":6075:6082  owner() */\n      jump\t// in\n    tag_217:\n        /* \"contracts/Pool/Pool.sol\":6075:6098  owner() == _msgSender() */\n      0xffffffffffffffffffffffffffffffffffffffff\n      and\n      eq\n        /* \"contracts/Pool/Pool.sol\":6075:6137  owner() == _msgSender() || _developmentAddress == _msgSender() */\n      dup1\n      tag_218\n      jumpi\n      pop\n        /* \"contracts/Pool/Pool.sol\":6125:6137  _msgSender() */\n      tag_219\n        /* \"contracts/Pool/Pool.sol\":6125:6135  _msgSender */\n      tag_144\n        /* \"contracts/Pool/Pool.sol\":6125:6137  _msgSender() */\n      jump\t// in\n    tag_219:\n        /* \"contracts/Pool/Pool.sol\":6102:6137  _developmentAddress == _msgSender() */\n      0xffffffffffffffffffffffffffffffffffffffff\n      and\n        /* \"contracts/Pool/Pool.sol\":6102:6121  _developmentAddress */\n      0x0e\n      0x00\n      swap1\n      sload\n      swap1\n      0x0100\n      exp\n      swap1\n      div\n      0xffffffffffffffffffffffffffffffffffffffff\n      and\n        /* \"contracts/Pool/Pool.sol\":6102:6137  _developmentAddress == _msgSender() */\n      0xffffffffffffffffffffffffffffffffffffffff\n      and\n      eq\n        /* \"contracts/Pool/Pool.sol\":6075:6137  owner() == _msgSender() || _developmentAddress == _msgSender() */\n    tag_218:\n        /* \"contracts/Pool/Pool.sol\":6067:6163  require(owner() == _msgSender() || _developmentAddress == _msgSender(), \"Caller is not the dev\") */\n      tag_220\n      jumpi\n      mload(0x40)\n      0x08c379a000000000000000000000000000000000000000000000000000000000\n      dup2\n      mstore\n      0x04\n      add\n      tag_221\n      swap1\n      tag_163\n      jump\t// in\n    tag_221:\n      mload(0x40)\n      dup1\n      swap2\n      sub\n      swap1\n      revert\n    tag_220:\n        /* \"contracts/Pool/Pool.sol\":10866:10869  dev */\n      dup1\n        /* \"contracts/Pool/Pool.sol\":10827:10870  devAddressUpdated(_developmentAddress, dev) */\n      0xffffffffffffffffffffffffffffffffffffffff\n      and\n        /* \"contracts/Pool/Pool.sol\":10845:10864  _developmentAddress */\n      0x0e\n      0x00\n      swap1\n      sload\n      swap1\n      0x0100\n      exp\n      swap1\n      div\n      0xffffffffffffffffffffffffffffffffffffffff\n      and\n        /* \"contracts/Pool/Pool.sol\":10827:10870  devAddressUpdated(_developmentAddress, dev) */\n      0xffffffffffffffffffffffffffffffffffffffff\n      and\n      0xfbbc329437e8c79f847e170730ad6dd04106b7511cad70d06d635886d92de83c\n      mload(0x40)\n      mload(0x40)\n      dup1\n      swap2\n      sub\n      swap1\n      log3\n        /* \"contracts/Pool/Pool.sol\":10903:10906  dev */\n      dup1\n        /* \"contracts/Pool/Pool.sol\":10881:10900  _developmentAddress */\n      0x0e\n      0x00\n        /* \"contracts/Pool/Pool.sol\":10881:10906  _developmentAddress = dev */\n      0x0100\n      exp\n      dup2\n      sload\n      dup2\n      0xffffffffffffffffffffffffffffffffffffffff\n      mul\n      not\n      and\n      swap1\n      dup4\n      0xffffffffffffffffffffffffffffffffffffffff\n      and\n      mul\n      or\n      swap1\n      sstore\n      pop\n        /* \"contracts/Pool/Pool.sol\":10958:10962  true */\n      0x01\n        /* \"contracts/Pool/Pool.sol\":10916:10934  _isExcludedFromFee */\n      0x05\n        /* \"contracts/Pool/Pool.sol\":10916:10955  _isExcludedFromFee[_developmentAddress] */\n      0x00\n        /* \"contracts/Pool/Pool.sol\":10935:10954  _developmentAddress */\n      0x0e\n      0x00\n      swap1\n      sload\n      swap1\n      0x0100\n      exp\n      swap1\n      div\n      0xffffffffffffffffffffffffffffffffffffffff\n      and\n        /* \"contracts/Pool/Pool.sol\":10916:10955  _isExcludedFromFee[_developmentAddress] */\n      0xffffffffffffffffffffffffffffffffffffffff\n      and\n      0xffffffffffffffffffffffffffffffffffffffff\n      and\n      dup2\n      mstore\n      0x20\n      add\n      swap1\n      dup2\n      mstore\n      0x20\n      add\n      0x00\n      keccak256\n      0x00\n        /* \"contracts/Pool/Pool.sol\":10916:10962  _isExcludedFromFee[_developmentAddress] = true */\n      0x0100\n      exp\n      dup2\n      sload\n      dup2\n      0xff\n      mul\n      not\n      and\n      swap1\n      dup4\n      iszero\n      iszero\n      mul\n      or\n      swap1\n      sstore\n      pop\n        /* \"contracts/Pool/Pool.sol\":10748:10969  function setNewDevAddress(address payable dev) public onlyDev() {... */\n      pop\n      jump\t// out\n        /* \"contracts/Pool/Pool.sol\":13847:14106  function manualswap() external {... */\n    tag_120:\n        /* \"contracts/Pool/Pool.sol\":13912:13931  _developmentAddress */\n      0x0e\n      0x00\n      swap1\n      sload\n      swap1\n      0x0100\n      exp\n      swap1\n      div\n      0xffffffffffffffffffffffffffffffffffffffff\n      and\n        /* \"contracts/Pool/Pool.sol\":13896:13931  _msgSender() == _developmentAddress */\n      0xffffffffffffffffffffffffffffffffffffffff\n      and\n        /* \"contracts/Pool/Pool.sol\":13896:13908  _msgSender() */\n      tag_224\n        /* \"contracts/Pool/Pool.sol\":13896:13906  _msgSender */\n      tag_144\n        /* \"contracts/Pool/Pool.sol\":13896:13908  _msgSender() */\n      jump\t// in\n    tag_224:\n        /* \"contracts/Pool/Pool.sol\":13896:13931  _msgSender() == _developmentAddress */\n      0xffffffffffffffffffffffffffffffffffffffff\n      and\n      eq\n        /* \"contracts/Pool/Pool.sol\":13896:13968  _msgSender() == _developmentAddress || _msgSender() == _marketingAddress */\n      dup1\n      tag_225\n      jumpi\n      pop\n        /* \"contracts/Pool/Pool.sol\":13951:13968  _marketingAddress */\n      0x0f\n      0x00\n      swap1\n      sload\n      swap1\n      0x0100\n      exp\n      swap1\n      div\n      0xffffffffffffffffffffffffffffffffffffffff\n      and\n        /* \"contracts/Pool/Pool.sol\":13935:13968  _msgSender() == _marketingAddress */\n      0xffffffffffffffffffffffffffffffffffffffff\n      and\n        /* \"contracts/Pool/Pool.sol\":13935:13947  _msgSender() */\n      tag_226\n        /* \"contracts/Pool/Pool.sol\":13935:13945  _msgSender */\n      tag_144\n        /* \"contracts/Pool/Pool.sol\":13935:13947  _msgSender() */\n      jump\t// in\n    tag_226:\n        /* \"contracts/Pool/Pool.sol\":13935:13968  _msgSender() == _marketingAddress */\n      0xffffffffffffffffffffffffffffffffffffffff\n      and\n      eq\n        /* \"contracts/Pool/Pool.sol\":13896:13968  _msgSender() == _developmentAddress || _msgSender() == _marketingAddress */\n    tag_225:\n        /* \"contracts/Pool/Pool.sol\":13896:13995  _msgSender() == _developmentAddress || _msgSender() == _marketingAddress || _msgSender() == owner() */\n      dup1\n      tag_227\n      jumpi\n      pop\n        /* \"contracts/Pool/Pool.sol\":13988:13995  owner() */\n      tag_228\n        /* \"contracts/Pool/Pool.sol\":13988:13993  owner */\n      tag_98\n        /* \"contracts/Pool/Pool.sol\":13988:13995  owner() */\n      jump\t// in\n    tag_228:\n        /* \"contracts/Pool/Pool.sol\":13972:13995  _msgSender() == owner() */\n      0xffffffffffffffffffffffffffffffffffffffff\n      and\n        /* \"contracts/Pool/Pool.sol\":13972:13984  _msgSender() */\n      tag_229\n        /* \"contracts/Pool/Pool.sol\":13972:13982  _msgSender */\n      tag_144\n        /* \"contracts/Pool/Pool.sol\":13972:13984  _msgSender() */\n      jump\t// in\n    tag_229:\n        /* \"contracts/Pool/Pool.sol\":13972:13995  _msgSender() == owner() */\n      0xffffffffffffffffffffffffffffffffffffffff\n      and\n      eq\n        /* \"contracts/Pool/Pool.sol\":13896:13995  _msgSender() == _developmentAddress || _msgSender() == _marketingAddress || _msgSender() == owner() */\n    tag_227:\n        /* \"contracts/Pool/Pool.sol\":13888:13996  require(_msgSender() == _developmentAddress || _msgSender() == _marketingAddress || _msgSender() == owner()) */\n      tag_230\n      jumpi\n      0x00\n      dup1\n      revert\n    tag_230:\n        /* \"contracts/Pool/Pool.sol\":14006:14029  uint256 contractBalance */\n      0x00\n        /* \"contracts/Pool/Pool.sol\":14032:14056  balanceOf(address(this)) */\n      tag_231\n        /* \"contracts/Pool/Pool.sol\":14050:14054  this */\n      address\n        /* \"contracts/Pool/Pool.sol\":14032:14041  balanceOf */\n      tag_86\n        /* \"contracts/Pool/Pool.sol\":14032:14056  balanceOf(address(this)) */\n      jump\t// in\n    tag_231:\n        /* \"contracts/Pool/Pool.sol\":14006:14056  uint256 contractBalance = balanceOf(address(this)) */\n      swap1\n      pop\n        /* \"contracts/Pool/Pool.sol\":14066:14099  swapTokensForEth(contractBalance) */\n      tag_232\n        /* \"contracts/Pool/Pool.sol\":14083:14098  contractBalance */\n      dup2\n        /* \"contracts/Pool/Pool.sol\":14066:14082  swapTokensForEth */\n      tag_233\n        /* \"contracts/Pool/Pool.sol\":14066:14099  swapTokensForEth(contractBalance) */\n      jump\t// in\n    tag_232:\n        /* \"contracts/Pool/Pool.sol\":13878:14106  {... */\n      pop\n        /* \"contracts/Pool/Pool.sol\":13847:14106  function manualswap() external {... */\n      jump\t// out\n        /* \"contracts/Pool/Pool.sol\":15035:15265  function excludeMultipleAccountsFromFees(address[] calldata accounts, bool excluded) public onlyOwner {... */\n    tag_125:\n        /* \"contracts/Pool/Pool.sol\":3317:3329  _msgSender() */\n      tag_235\n        /* \"contracts/Pool/Pool.sol\":3317:3327  _msgSender */\n      tag_144\n        /* \"contracts/Pool/Pool.sol\":3317:3329  _msgSender() */\n      jump\t// in\n    tag_235:\n        /* \"contracts/Pool/Pool.sol\":3307:3329  _owner == _msgSender() */\n      0xffffffffffffffffffffffffffffffffffffffff\n      and\n        /* \"contracts/Pool/Pool.sol\":3307:3313  _owner */\n      0x00\n      dup1\n      sload\n      swap1\n      0x0100\n      exp\n      swap1\n      div\n      0xffffffffffffffffffffffffffffffffffffffff\n      and\n        /* \"contracts/Pool/Pool.sol\":3307:3329  _owner == _msgSender() */\n      0xffffffffffffffffffffffffffffffffffffffff\n      and\n      eq\n        /* \"contracts/Pool/Pool.sol\":3299:3357  require(_owner == _msgSender(), \"Caller is not the owner\") */\n      tag_236\n      jumpi\n      mload(0x40)\n      0x08c379a000000000000000000000000000000000000000000000000000000000\n      dup2\n      mstore\n      0x04\n      add\n      tag_237\n      swap1\n      tag_182\n      jump\t// in\n    tag_237:\n      mload(0x40)\n      dup1\n      swap2\n      sub\n      swap1\n      revert\n    tag_236:\n        /* \"contracts/Pool/Pool.sol\":15151:15160  uint256 i */\n      0x00\n        /* \"contracts/Pool/Pool.sol\":15147:15259  for(uint256 i = 0; i < accounts.length; i++) {... */\n    tag_239:\n        /* \"contracts/Pool/Pool.sol\":15170:15178  accounts */\n      dup4\n      dup4\n        /* \"contracts/Pool/Pool.sol\":15170:15185  accounts.length */\n      swap1\n      pop\n        /* \"contracts/Pool/Pool.sol\":15166:15167  i */\n      dup2\n        /* \"contracts/Pool/Pool.sol\":15166:15185  i < accounts.length */\n      lt\n        /* \"contracts/Pool/Pool.sol\":15147:15259  for(uint256 i = 0; i < accounts.length; i++) {... */\n      iszero\n      tag_240\n      jumpi\n        /* \"contracts/Pool/Pool.sol\":15240:15248  excluded */\n      dup2\n        /* \"contracts/Pool/Pool.sol\":15206:15224  _isExcludedFromFee */\n      0x05\n        /* \"contracts/Pool/Pool.sol\":15206:15237  _isExcludedFromFee[accounts[i]] */\n      0x00\n        /* \"contracts/Pool/Pool.sol\":15225:15233  accounts */\n      dup7\n      dup7\n        /* \"contracts/Pool/Pool.sol\":15234:15235  i */\n      dup6\n        /* \"contracts/Pool/Pool.sol\":15225:15236  accounts[i] */\n      dup2\n      dup2\n      lt\n      tag_242\n      jumpi\n      tag_243\n      tag_244\n      jump\t// in\n    tag_243:\n    tag_242:\n      swap1\n      pop\n      0x20\n      mul\n      add\n      0x20\n      dup2\n      add\n      swap1\n      tag_245\n      swap2\n      swap1\n      tag_85\n      jump\t// in\n    tag_245:\n        /* \"contracts/Pool/Pool.sol\":15206:15237  _isExcludedFromFee[accounts[i]] */\n      0xffffffffffffffffffffffffffffffffffffffff\n      and\n      0xffffffffffffffffffffffffffffffffffffffff\n      and\n      dup2\n      mstore\n      0x20\n      add\n      swap1\n      dup2\n      mstore\n      0x20\n      add\n      0x00\n      keccak256\n      0x00\n        /* \"contracts/Pool/Pool.sol\":15206:15248  _isExcludedFromFee[accounts[i]] = excluded */\n      0x0100\n      exp\n      dup2\n      sload\n      dup2\n      0xff\n      mul\n      not\n      and\n      swap1\n      dup4\n      iszero\n      iszero\n      mul\n      or\n      swap1\n      sstore\n      pop\n        /* \"contracts/Pool/Pool.sol\":15187:15190  i++ */\n      dup1\n      dup1\n      tag_246\n      swap1\n      tag_247\n      jump\t// in\n    tag_246:\n      swap2\n      pop\n      pop\n        /* \"contracts/Pool/Pool.sol\":15147:15259  for(uint256 i = 0; i < accounts.length; i++) {... */\n      jump(tag_239)\n    tag_240:\n      pop\n        /* \"contracts/Pool/Pool.sol\":15035:15265  function excludeMultipleAccountsFromFees(address[] calldata accounts, bool excluded) public onlyOwner {... */\n      pop\n      pop\n      pop\n      jump\t// out\n        /* \"contracts/Pool/Pool.sol\":6865:7006  function allowance(address owner, address spender) public view override returns (uint256) {... */\n    tag_130:\n        /* \"contracts/Pool/Pool.sol\":6946:6953  uint256 */\n      0x00\n        /* \"contracts/Pool/Pool.sol\":6972:6983  _allowances */\n      0x04\n        /* \"contracts/Pool/Pool.sol\":6972:6990  _allowances[owner] */\n      0x00\n        /* \"contracts/Pool/Pool.sol\":6984:6989  owner */\n      dup5\n        /* \"contracts/Pool/Pool.sol\":6972:6990  _allowances[owner] */\n      0xffffffffffffffffffffffffffffffffffffffff\n      and\n      0xffffffffffffffffffffffffffffffffffffffff\n      and\n      dup2\n      mstore\n      0x20\n      add\n      swap1\n      dup2\n      mstore\n      0x20\n      add\n      0x00\n      keccak256\n        /* \"contracts/Pool/Pool.sol\":6972:6999  _allowances[owner][spender] */\n      0x00\n        /* \"contracts/Pool/Pool.sol\":6991:6998  spender */\n      dup4\n        /* \"contracts/Pool/Pool.sol\":6972:6999  _allowances[owner][spender] */\n      0xffffffffffffffffffffffffffffffffffffffff\n      and\n      0xffffffffffffffffffffffffffffffffffffffff\n      and\n      dup2\n      mstore\n      0x20\n      add\n      swap1\n      dup2\n      mstore\n      0x20\n      add\n      0x00\n      keccak256\n      sload\n        /* \"contracts/Pool/Pool.sol\":6965:6999  return _allowances[owner][spender] */\n      swap1\n      pop\n        /* \"contracts/Pool/Pool.sol\":6865:7006  function allowance(address owner, address spender) public view override returns (uint256) {... */\n      swap3\n      swap2\n      pop\n      pop\n      jump\t// out\n        /* \"contracts/Pool/Pool.sol\":10457:10662  function rescueForeignTokens(address _tokenAddr, address _to, uint _amount) public onlyDev() {... */\n    tag_135:\n        /* \"contracts/Pool/Pool.sol\":6086:6098  _msgSender() */\n      tag_250\n        /* \"contracts/Pool/Pool.sol\":6086:6096  _msgSender */\n      tag_144\n        /* \"contracts/Pool/Pool.sol\":6086:6098  _msgSender() */\n      jump\t// in\n    tag_250:\n        /* \"contracts/Pool/Pool.sol\":6075:6098  owner() == _msgSender() */\n      0xffffffffffffffffffffffffffffffffffffffff\n      and\n        /* \"contracts/Pool/Pool.sol\":6075:6082  owner() */\n      tag_251\n        /* \"contracts/Pool/Pool.sol\":6075:6080  owner */\n      tag_98\n        /* \"contracts/Pool/Pool.sol\":6075:6082  owner() */\n      jump\t// in\n    tag_251:\n        /* \"contracts/Pool/Pool.sol\":6075:6098  owner() == _msgSender() */\n      0xffffffffffffffffffffffffffffffffffffffff\n      and\n      eq\n        /* \"contracts/Pool/Pool.sol\":6075:6137  owner() == _msgSender() || _developmentAddress == _msgSender() */\n      dup1\n      tag_252\n      jumpi\n      pop\n        /* \"contracts/Pool/Pool.sol\":6125:6137  _msgSender() */\n      tag_253\n        /* \"contracts/Pool/Pool.sol\":6125:6135  _msgSender */\n      tag_144\n        /* \"contracts/Pool/Pool.sol\":6125:6137  _msgSender() */\n      jump\t// in\n    tag_253:\n        /* \"contracts/Pool/Pool.sol\":6102:6137  _developmentAddress == _msgSender() */\n      0xffffffffffffffffffffffffffffffffffffffff\n      and\n        /* \"contracts/Pool/Pool.sol\":6102:6121  _developmentAddress */\n      0x0e\n      0x00\n      swap1\n      sload\n      swap1\n      0x0100\n      exp\n      swap1\n      div\n      0xffffffffffffffffffffffffffffffffffffffff\n      and\n        /* \"contracts/Pool/Pool.sol\":6102:6137  _developmentAddress == _msgSender() */\n      0xffffffffffffffffffffffffffffffffffffffff\n      and\n      eq\n        /* \"contracts/Pool/Pool.sol\":6075:6137  owner() == _msgSender() || _developmentAddress == _msgSender() */\n    tag_252:\n        /* \"contracts/Pool/Pool.sol\":6067:6163  require(owner() == _msgSender() || _developmentAddress == _msgSender(), \"Caller is not the dev\") */\n      tag_254\n      jumpi\n      mload(0x40)\n      0x08c379a000000000000000000000000000000000000000000000000000000000\n      dup2\n      mstore\n      0x04\n      add\n      tag_255\n      swap1\n      tag_163\n      jump\t// in\n    tag_255:\n      mload(0x40)\n      dup1\n      swap2\n      sub\n      swap1\n      revert\n    tag_254:\n        /* \"contracts/Pool/Pool.sol\":10591:10594  _to */\n      dup2\n        /* \"contracts/Pool/Pool.sol\":10565:10604  tokensRescued(_tokenAddr, _to, _amount) */\n      0xffffffffffffffffffffffffffffffffffffffff\n      and\n        /* \"contracts/Pool/Pool.sol\":10579:10589  _tokenAddr */\n      dup4\n        /* \"contracts/Pool/Pool.sol\":10565:10604  tokensRescued(_tokenAddr, _to, _amount) */\n      0xffffffffffffffffffffffffffffffffffffffff\n      and\n      0x47c33aa230eb5fd181505aa7befeaddd9b8a6f983989cea73a7868448c3a9ed9\n        /* \"contracts/Pool/Pool.sol\":10596:10603  _amount */\n      dup4\n        /* \"contracts/Pool/Pool.sol\":10565:10604  tokensRescued(_tokenAddr, _to, _amount) */\n      mload(0x40)\n      tag_257\n      swap2\n      swap1\n      tag_52\n      jump\t// in\n    tag_257:\n      mload(0x40)\n      dup1\n      swap2\n      sub\n      swap1\n      log3\n        /* \"contracts/Pool/Pool.sol\":10621:10631  _tokenAddr */\n      dup3\n        /* \"contracts/Pool/Pool.sol\":10615:10641  Token(_tokenAddr).transfer */\n      0xffffffffffffffffffffffffffffffffffffffff\n      and\n      0xa9059cbb\n        /* \"contracts/Pool/Pool.sol\":10642:10645  _to */\n      dup4\n        /* \"contracts/Pool/Pool.sol\":10647:10654  _amount */\n      dup4\n        /* \"contracts/Pool/Pool.sol\":10615:10655  Token(_tokenAddr).transfer(_to, _amount) */\n      mload(0x40)\n      dup4\n      0xffffffff\n      and\n      0xe0\n      shl\n      dup2\n      mstore\n      0x04\n      add\n      tag_258\n      swap3\n      swap2\n      swap1\n      tag_259\n      jump\t// in\n    tag_258:\n      0x20\n      mload(0x40)\n      dup1\n      dup4\n      sub\n      dup2\n      0x00\n      dup8\n      gas\n      call\n      iszero\n      dup1\n      iszero\n      tag_261\n      jumpi\n      returndatasize\n      0x00\n      dup1\n      returndatacopy\n      revert(0x00, returndatasize)\n    tag_261:\n      pop\n      pop\n      pop\n      pop\n      mload(0x40)\n      returndatasize\n      not(0x1f)\n      0x1f\n      dup3\n      add\n      and\n      dup3\n      add\n      dup1\n      0x40\n      mstore\n      pop\n      dup2\n      add\n      swap1\n      tag_262\n      swap2\n      swap1\n      tag_263\n      jump\t// in\n    tag_262:\n      pop\n        /* \"contracts/Pool/Pool.sol\":10457:10662  function rescueForeignTokens(address _tokenAddr, address _to, uint _amount) public onlyDev() {... */\n      pop\n      pop\n      pop\n      jump\t// out\n        /* \"contracts/Pool/Pool.sol\":3625:3782  function transferOwnership(address newOwner) public virtual onlyOwner {... */\n    tag_139:\n        /* \"contracts/Pool/Pool.sol\":3317:3329  _msgSender() */\n      tag_265\n        /* \"contracts/Pool/Pool.sol\":3317:3327  _msgSender */\n      tag_144\n        /* \"contracts/Pool/Pool.sol\":3317:3329  _msgSender() */\n      jump\t// in\n    tag_265:\n        /* \"contracts/Pool/Pool.sol\":3307:3329  _owner == _msgSender() */\n      0xffffffffffffffffffffffffffffffffffffffff\n      and\n        /* \"contracts/Pool/Pool.sol\":3307:3313  _owner */\n      0x00\n      dup1\n      sload\n      swap1\n      0x0100\n      exp\n      swap1\n      div\n      0xffffffffffffffffffffffffffffffffffffffff\n      and\n        /* \"contracts/Pool/Pool.sol\":3307:3329  _owner == _msgSender() */\n      0xffffffffffffffffffffffffffffffffffffffff\n      and\n      eq\n        /* \"contracts/Pool/Pool.sol\":3299:3357  require(_owner == _msgSender(), \"Caller is not the owner\") */\n      tag_266\n      jumpi\n      mload(0x40)\n      0x08c379a000000000000000000000000000000000000000000000000000000000\n      dup2\n      mstore\n      0x04\n      add\n      tag_267\n      swap1\n      tag_182\n      jump\t// in\n    tag_267:\n      mload(0x40)\n      dup1\n      swap2\n      sub\n      swap1\n      revert\n    tag_266:\n        /* \"contracts/Pool/Pool.sol\":3739:3747  newOwner */\n      dup1\n        /* \"contracts/Pool/Pool.sol\":3710:3748  OwnershipTransferred(_owner, newOwner) */\n      0xffffffffffffffffffffffffffffffffffffffff\n      and\n        /* \"contracts/Pool/Pool.sol\":3731:3737  _owner */\n      0x00\n      dup1\n      sload\n      swap1\n      0x0100\n      exp\n      swap1\n      div\n      0xffffffffffffffffffffffffffffffffffffffff\n      and\n        /* \"contracts/Pool/Pool.sol\":3710:3748  OwnershipTransferred(_owner, newOwner) */\n      0xffffffffffffffffffffffffffffffffffffffff\n      and\n      0x8be0079c531659141344cd1fd0a4f28419497f9722a3daafe3b4186f6b6457e0\n      mload(0x40)\n      mload(0x40)\n      dup1\n      swap2\n      sub\n      swap1\n      log3\n        /* \"contracts/Pool/Pool.sol\":3767:3775  newOwner */\n      dup1\n        /* \"contracts/Pool/Pool.sol\":3758:3764  _owner */\n      0x00\n      dup1\n        /* \"contracts/Pool/Pool.sol\":3758:3775  _owner = newOwner */\n      0x0100\n      exp\n      dup2\n      sload\n      dup2\n      0xffffffffffffffffffffffffffffffffffffffff\n      mul\n      not\n      and\n      swap1\n      dup4\n      0xffffffffffffffffffffffffffffffffffffffff\n      and\n      mul\n      or\n      swap1\n      sstore\n      pop\n        /* \"contracts/Pool/Pool.sol\":3625:3782  function transferOwnership(address newOwner) public virtual onlyOwner {... */\n      pop\n      jump\t// out\n        /* \"contracts/Pool/Pool.sol\":1721:1817  function _msgSender() internal view virtual returns (address) {... */\n    tag_144:\n        /* \"contracts/Pool/Pool.sol\":1774:1781  address */\n      0x00\n        /* \"contracts/Pool/Pool.sol\":1800:1810  msg.sender */\n      caller\n        /* \"contracts/Pool/Pool.sol\":1793:1810  return msg.sender */\n      swap1\n      pop\n        /* \"contracts/Pool/Pool.sol\":1721:1817  function _msgSender() internal view virtual returns (address) {... */\n      swap1\n      jump\t// out\n        /* \"contracts/Pool/Pool.sol\":7747:8077  function _approve(address owner, address spender, uint256 amount) private {... */\n    tag_145:\n        /* \"contracts/Pool/Pool.sol\":7856:7857  0 */\n      0x00\n        /* \"contracts/Pool/Pool.sol\":7839:7858  owner != address(0) */\n      0xffffffffffffffffffffffffffffffffffffffff\n      and\n        /* \"contracts/Pool/Pool.sol\":7839:7844  owner */\n      dup4\n        /* \"contracts/Pool/Pool.sol\":7839:7858  owner != address(0) */\n      0xffffffffffffffffffffffffffffffffffffffff\n      and\n      sub\n        /* \"contracts/Pool/Pool.sol\":7831:7899  require(owner != address(0), \"ERC20: approve from the zero address\") */\n      tag_271\n      jumpi\n      mload(0x40)\n      0x08c379a000000000000000000000000000000000000000000000000000000000\n      dup2\n      mstore\n      0x04\n      add\n      tag_272\n      swap1\n      tag_273\n      jump\t// in\n    tag_272:\n      mload(0x40)\n      dup1\n      swap2\n      sub\n      swap1\n      revert\n    tag_271:\n        /* \"contracts/Pool/Pool.sol\":7936:7937  0 */\n      0x00\n        /* \"contracts/Pool/Pool.sol\":7917:7938  spender != address(0) */\n      0xffffffffffffffffffffffffffffffffffffffff\n      and\n        /* \"contracts/Pool/Pool.sol\":7917:7924  spender */\n      dup3\n        /* \"contracts/Pool/Pool.sol\":7917:7938  spender != address(0) */\n      0xffffffffffffffffffffffffffffffffffffffff\n      and\n      sub\n        /* \"contracts/Pool/Pool.sol\":7909:7977  require(spender != address(0), \"ERC20: approve to the zero address\") */\n      tag_274\n      jumpi\n      mload(0x40)\n      0x08c379a000000000000000000000000000000000000000000000000000000000\n      dup2\n      mstore\n      0x04\n      add\n      tag_275\n      swap1\n      tag_276\n      jump\t// in\n    tag_275:\n      mload(0x40)\n      dup1\n      swap2\n      sub\n      swap1\n      revert\n    tag_274:\n        /* \"contracts/Pool/Pool.sol\":8017:8023  amount */\n      dup1\n        /* \"contracts/Pool/Pool.sol\":7987:7998  _allowances */\n      0x04\n        /* \"contracts/Pool/Pool.sol\":7987:8005  _allowances[owner] */\n      0x00\n        /* \"contracts/Pool/Pool.sol\":7999:8004  owner */\n      dup6\n        /* \"contracts/Pool/Pool.sol\":7987:8005  _allowances[owner] */\n      0xffffffffffffffffffffffffffffffffffffffff\n      and\n      0xffffffffffffffffffffffffffffffffffffffff\n      and\n      dup2\n      mstore\n      0x20\n      add\n      swap1\n      dup2\n      mstore\n      0x20\n      add\n      0x00\n      keccak256\n        /* \"contracts/Pool/Pool.sol\":7987:8014  _allowances[owner][spender] */\n      0x00\n        /* \"contracts/Pool/Pool.sol\":8006:8013  spender */\n      dup5\n        /* \"contracts/Pool/Pool.sol\":7987:8014  _allowances[owner][spender] */\n      0xffffffffffffffffffffffffffffffffffffffff\n      and\n      0xffffffffffffffffffffffffffffffffffffffff\n      and\n      dup2\n      mstore\n      0x20\n      add\n      swap1\n      dup2\n      mstore\n      0x20\n      add\n      0x00\n      keccak256\n        /* \"contracts/Pool/Pool.sol\":7987:8023  _allowances[owner][spender] = amount */\n      dup2\n      swap1\n      sstore\n      pop\n        /* \"contracts/Pool/Pool.sol\":8054:8061  spender */\n      dup2\n        /* \"contracts/Pool/Pool.sol\":8038:8070  Approval(owner, spender, amount) */\n      0xffffffffffffffffffffffffffffffffffffffff\n      and\n        /* \"contracts/Pool/Pool.sol\":8047:8052  owner */\n      dup4\n        /* \"contracts/Pool/Pool.sol\":8038:8070  Approval(owner, spender, amount) */\n      0xffffffffffffffffffffffffffffffffffffffff\n      and\n      0x8c5be1e5ebec7d5bd14f71427d1e84f3dd0314c0f7b2291e5b200ac8c7c3b925\n        /* \"contracts/Pool/Pool.sol\":8063:8069  amount */\n      dup4\n        /* \"contracts/Pool/Pool.sol\":8038:8070  Approval(owner, spender, amount) */\n      mload(0x40)\n      tag_277\n      swap2\n      swap1\n      tag_52\n      jump\t// in\n    tag_277:\n      mload(0x40)\n      dup1\n      swap2\n      sub\n      swap1\n      log3\n        /* \"contracts/Pool/Pool.sol\":7747:8077  function _approve(address owner, address spender, uint256 amount) private {... */\n      pop\n      pop\n      pop\n      jump\t// out\n        /* \"contracts/Pool/Pool.sol\":8083:9568  function _transfer(address from, address to, uint256 amount) private {... */\n    tag_149:\n        /* \"contracts/Pool/Pool.sol\":8186:8187  0 */\n      0x00\n        /* \"contracts/Pool/Pool.sol\":8170:8188  from != address(0) */\n      0xffffffffffffffffffffffffffffffffffffffff\n      and\n        /* \"contracts/Pool/Pool.sol\":8170:8174  from */\n      dup4\n        /* \"contracts/Pool/Pool.sol\":8170:8188  from != address(0) */\n      0xffffffffffffffffffffffffffffffffffffffff\n      and\n      sub\n        /* \"contracts/Pool/Pool.sol\":8162:8230  require(from != address(0), \"ERC20: transfer from the zero address\") */\n      tag_279\n      jumpi\n      mload(0x40)\n      0x08c379a000000000000000000000000000000000000000000000000000000000\n      dup2\n      mstore\n      0x04\n      add\n      tag_280\n      swap1\n      tag_281\n      jump\t// in\n    tag_280:\n      mload(0x40)\n      dup1\n      swap2\n      sub\n      swap1\n      revert\n    tag_279:\n        /* \"contracts/Pool/Pool.sol\":8262:8263  0 */\n      0x00\n        /* \"contracts/Pool/Pool.sol\":8248:8264  to != address(0) */\n      0xffffffffffffffffffffffffffffffffffffffff\n      and\n        /* \"contracts/Pool/Pool.sol\":8248:8250  to */\n      dup3\n        /* \"contracts/Pool/Pool.sol\":8248:8264  to != address(0) */\n      0xffffffffffffffffffffffffffffffffffffffff\n      and\n      sub\n        /* \"contracts/Pool/Pool.sol\":8240:8304  require(to != address(0), \"ERC20: transfer to the zero address\") */\n      tag_282\n      jumpi\n      mload(0x40)\n      0x08c379a000000000000000000000000000000000000000000000000000000000\n      dup2\n      mstore\n      0x04\n      add\n      tag_283\n      swap1\n      tag_284\n      jump\t// in\n    tag_283:\n      mload(0x40)\n      dup1\n      swap2\n      sub\n      swap1\n      revert\n    tag_282:\n        /* \"contracts/Pool/Pool.sol\":8331:8332  0 */\n      0x00\n        /* \"contracts/Pool/Pool.sol\":8322:8328  amount */\n      dup2\n        /* \"contracts/Pool/Pool.sol\":8322:8332  amount > 0 */\n      gt\n        /* \"contracts/Pool/Pool.sol\":8314:8378  require(amount > 0, \"Transfer amount must be greater than zero\") */\n      tag_285\n      jumpi\n      mload(0x40)\n      0x08c379a000000000000000000000000000000000000000000000000000000000\n      dup2\n      mstore\n      0x04\n      add\n      tag_286\n      swap1\n      tag_287\n      jump\t// in\n    tag_286:\n      mload(0x40)\n      dup1\n      swap2\n      sub\n      swap1\n      revert\n    tag_285:\n        /* \"contracts/Pool/Pool.sol\":8409:8410  0 */\n      0x00\n        /* \"contracts/Pool/Pool.sol\":8397:8406  _redisFee */\n      0x0c\n        /* \"contracts/Pool/Pool.sol\":8397:8410  _redisFee = 0 */\n      dup2\n      swap1\n      sstore\n      pop\n        /* \"contracts/Pool/Pool.sol\":8430:8431  0 */\n      0x00\n        /* \"contracts/Pool/Pool.sol\":8420:8427  _taxFee */\n      0x0d\n        /* \"contracts/Pool/Pool.sol\":8420:8431  _taxFee = 0 */\n      dup2\n      swap1\n      sstore\n      pop\n        /* \"contracts/Pool/Pool.sol\":8462:8469  owner() */\n      tag_288\n        /* \"contracts/Pool/Pool.sol\":8462:8467  owner */\n      tag_98\n        /* \"contracts/Pool/Pool.sol\":8462:8469  owner() */\n      jump\t// in\n    tag_288:\n        /* \"contracts/Pool/Pool.sol\":8454:8469  from != owner() */\n      0xffffffffffffffffffffffffffffffffffffffff\n      and\n        /* \"contracts/Pool/Pool.sol\":8454:8458  from */\n      dup4\n        /* \"contracts/Pool/Pool.sol\":8454:8469  from != owner() */\n      0xffffffffffffffffffffffffffffffffffffffff\n      and\n      eq\n      iszero\n        /* \"contracts/Pool/Pool.sol\":8454:8486  from != owner() && to != owner() */\n      dup1\n      iszero\n      tag_289\n      jumpi\n      pop\n        /* \"contracts/Pool/Pool.sol\":8479:8486  owner() */\n      tag_290\n        /* \"contracts/Pool/Pool.sol\":8479:8484  owner */\n      tag_98\n        /* \"contracts/Pool/Pool.sol\":8479:8486  owner() */\n      jump\t// in\n    tag_290:\n        /* \"contracts/Pool/Pool.sol\":8473:8486  to != owner() */\n      0xffffffffffffffffffffffffffffffffffffffff\n      and\n        /* \"contracts/Pool/Pool.sol\":8473:8475  to */\n      dup3\n        /* \"contracts/Pool/Pool.sol\":8473:8486  to != owner() */\n      0xffffffffffffffffffffffffffffffffffffffff\n      and\n      eq\n      iszero\n        /* \"contracts/Pool/Pool.sol\":8454:8486  from != owner() && to != owner() */\n    tag_289:\n        /* \"contracts/Pool/Pool.sol\":8450:9521  if (from != owner() && to != owner()) {... */\n      iszero\n      tag_291\n      jumpi\n        /* \"contracts/Pool/Pool.sol\":8515:8543  uint256 contractTokenBalance */\n      0x00\n        /* \"contracts/Pool/Pool.sol\":8546:8570  balanceOf(address(this)) */\n      tag_292\n        /* \"contracts/Pool/Pool.sol\":8564:8568  this */\n      address\n        /* \"contracts/Pool/Pool.sol\":8546:8555  balanceOf */\n      tag_86\n        /* \"contracts/Pool/Pool.sol\":8546:8570  balanceOf(address(this)) */\n      jump\t// in\n    tag_292:\n        /* \"contracts/Pool/Pool.sol\":8515:8570  uint256 contractTokenBalance = balanceOf(address(this)) */\n      swap1\n      pop\n        /* \"contracts/Pool/Pool.sol\":8589:8595  inSwap */\n      0x12\n      0x14\n      swap1\n      sload\n      swap1\n      0x0100\n      exp\n      swap1\n      div\n      0xff\n      and\n        /* \"contracts/Pool/Pool.sol\":8588:8595  !inSwap */\n      iszero\n        /* \"contracts/Pool/Pool.sol\":8588:8620  !inSwap && from != uniswapV2Pair */\n      dup1\n      iszero\n      tag_293\n      jumpi\n      pop\n        /* \"contracts/Pool/Pool.sol\":8607:8620  uniswapV2Pair */\n      0x12\n      0x00\n      swap1\n      sload\n      swap1\n      0x0100\n      exp\n      swap1\n      div\n      0xffffffffffffffffffffffffffffffffffffffff\n      and\n        /* \"contracts/Pool/Pool.sol\":8599:8620  from != uniswapV2Pair */\n      0xffffffffffffffffffffffffffffffffffffffff\n      and\n        /* \"contracts/Pool/Pool.sol\":8599:8603  from */\n      dup5\n        /* \"contracts/Pool/Pool.sol\":8599:8620  from != uniswapV2Pair */\n      0xffffffffffffffffffffffffffffffffffffffff\n      and\n      eq\n      iszero\n        /* \"contracts/Pool/Pool.sol\":8588:8620  !inSwap && from != uniswapV2Pair */\n    tag_293:\n        /* \"contracts/Pool/Pool.sol\":8588:8635  !inSwap && from != uniswapV2Pair && swapEnabled */\n      dup1\n      iszero\n      tag_294\n      jumpi\n      pop\n        /* \"contracts/Pool/Pool.sol\":8624:8635  swapEnabled */\n      0x12\n      0x15\n      swap1\n      sload\n      swap1\n      0x0100\n      exp\n      swap1\n      div\n      0xff\n      and\n        /* \"contracts/Pool/Pool.sol\":8588:8635  !inSwap && from != uniswapV2Pair && swapEnabled */\n    tag_294:\n        /* \"contracts/Pool/Pool.sol\":8588:8663  !inSwap && from != uniswapV2Pair && swapEnabled && contractTokenBalance > 0 */\n      dup1\n      iszero\n      tag_295\n      jumpi\n      pop\n        /* \"contracts/Pool/Pool.sol\":8662:8663  0 */\n      0x00\n        /* \"contracts/Pool/Pool.sol\":8639:8659  contractTokenBalance */\n      dup2\n        /* \"contracts/Pool/Pool.sol\":8639:8663  contractTokenBalance > 0 */\n      gt\n        /* \"contracts/Pool/Pool.sol\":8588:8663  !inSwap && from != uniswapV2Pair && swapEnabled && contractTokenBalance > 0 */\n    tag_295:\n        /* \"contracts/Pool/Pool.sol\":8584:8924  if (!inSwap && from != uniswapV2Pair && swapEnabled && contractTokenBalance > 0) {... */\n      iszero\n      tag_296\n      jumpi\n        /* \"contracts/Pool/Pool.sol\":8683:8721  swapTokensForEth(contractTokenBalance) */\n      tag_297\n        /* \"contracts/Pool/Pool.sol\":8700:8720  contractTokenBalance */\n      dup2\n        /* \"contracts/Pool/Pool.sol\":8683:8699  swapTokensForEth */\n      tag_233\n        /* \"contracts/Pool/Pool.sol\":8683:8721  swapTokensForEth(contractTokenBalance) */\n      jump\t// in\n    tag_297:\n        /* \"contracts/Pool/Pool.sol\":8739:8765  uint256 contractETHBalance */\n      0x00\n        /* \"contracts/Pool/Pool.sol\":8768:8789  address(this).balance */\n      selfbalance\n        /* \"contracts/Pool/Pool.sol\":8739:8789  uint256 contractETHBalance = address(this).balance */\n      swap1\n      pop\n        /* \"contracts/Pool/Pool.sol\":8831:8832  0 */\n      0x00\n        /* \"contracts/Pool/Pool.sol\":8810:8828  contractETHBalance */\n      dup2\n        /* \"contracts/Pool/Pool.sol\":8810:8832  contractETHBalance > 0 */\n      gt\n        /* \"contracts/Pool/Pool.sol\":8807:8910  if(contractETHBalance > 0) {... */\n      iszero\n      tag_298\n      jumpi\n        /* \"contracts/Pool/Pool.sol\":8856:8891  sendETHToFee(address(this).balance) */\n      tag_299\n        /* \"contracts/Pool/Pool.sol\":8869:8890  address(this).balance */\n      selfbalance\n        /* \"contracts/Pool/Pool.sol\":8856:8868  sendETHToFee */\n      tag_174\n        /* \"contracts/Pool/Pool.sol\":8856:8891  sendETHToFee(address(this).balance) */\n      jump\t// in\n    tag_299:\n        /* \"contracts/Pool/Pool.sol\":8807:8910  if(contractETHBalance > 0) {... */\n    tag_298:\n        /* \"contracts/Pool/Pool.sol\":8665:8924  {... */\n      pop\n        /* \"contracts/Pool/Pool.sol\":8584:8924  if (!inSwap && from != uniswapV2Pair && swapEnabled && contractTokenBalance > 0) {... */\n    tag_296:\n        /* \"contracts/Pool/Pool.sol\":8961:8974  uniswapV2Pair */\n      0x12\n      0x00\n      swap1\n      sload\n      swap1\n      0x0100\n      exp\n      swap1\n      div\n      0xffffffffffffffffffffffffffffffffffffffff\n      and\n        /* \"contracts/Pool/Pool.sol\":8953:8974  from == uniswapV2Pair */\n      0xffffffffffffffffffffffffffffffffffffffff\n      and\n        /* \"contracts/Pool/Pool.sol\":8953:8957  from */\n      dup5\n        /* \"contracts/Pool/Pool.sol\":8953:8974  from == uniswapV2Pair */\n      0xffffffffffffffffffffffffffffffffffffffff\n      and\n      eq\n        /* \"contracts/Pool/Pool.sol\":8953:9008  from == uniswapV2Pair && to != address(uniswapV2Router) */\n      dup1\n      iszero\n      tag_300\n      jumpi\n      pop\n        /* \"contracts/Pool/Pool.sol\":8992:9007  uniswapV2Router */\n      0x10\n      0x00\n      swap1\n      sload\n      swap1\n      0x0100\n      exp\n      swap1\n      div\n      0xffffffffffffffffffffffffffffffffffffffff\n      and\n        /* \"contracts/Pool/Pool.sol\":8978:9008  to != address(uniswapV2Router) */\n      0xffffffffffffffffffffffffffffffffffffffff\n      and\n        /* \"contracts/Pool/Pool.sol\":8978:8980  to */\n      dup4\n        /* \"contracts/Pool/Pool.sol\":8978:9008  to != address(uniswapV2Router) */\n      0xffffffffffffffffffffffffffffffffffffffff\n      and\n      eq\n      iszero\n        /* \"contracts/Pool/Pool.sol\":8953:9008  from == uniswapV2Pair && to != address(uniswapV2Router) */\n    tag_300:\n        /* \"contracts/Pool/Pool.sol\":8950:9109  if(from == uniswapV2Pair && to != address(uniswapV2Router)) {... */\n      iszero\n      tag_301\n      jumpi\n        /* \"contracts/Pool/Pool.sol\":9040:9054  _redisFeeOnBuy */\n      sload(0x08)\n        /* \"contracts/Pool/Pool.sol\":9028:9037  _redisFee */\n      0x0c\n        /* \"contracts/Pool/Pool.sol\":9028:9054  _redisFee = _redisFeeOnBuy */\n      dup2\n      swap1\n      sstore\n      pop\n        /* \"contracts/Pool/Pool.sol\":9082:9094  _taxFeeOnBuy */\n      sload(0x09)\n        /* \"contracts/Pool/Pool.sol\":9072:9079  _taxFee */\n      0x0d\n        /* \"contracts/Pool/Pool.sol\":9072:9094  _taxFee = _taxFeeOnBuy */\n      dup2\n      swap1\n      sstore\n      pop\n        /* \"contracts/Pool/Pool.sol\":8950:9109  if(from == uniswapV2Pair && to != address(uniswapV2Router)) {... */\n    tag_301:\n        /* \"contracts/Pool/Pool.sol\":9137:9150  uniswapV2Pair */\n      0x12\n      0x00\n      swap1\n      sload\n      swap1\n      0x0100\n      exp\n      swap1\n      div\n      0xffffffffffffffffffffffffffffffffffffffff\n      and\n        /* \"contracts/Pool/Pool.sol\":9131:9150  to == uniswapV2Pair */\n      0xffffffffffffffffffffffffffffffffffffffff\n      and\n        /* \"contracts/Pool/Pool.sol\":9131:9133  to */\n      dup4\n        /* \"contracts/Pool/Pool.sol\":9131:9150  to == uniswapV2Pair */\n      0xffffffffffffffffffffffffffffffffffffffff\n      and\n      eq\n        /* \"contracts/Pool/Pool.sol\":9131:9186  to == uniswapV2Pair && from != address(uniswapV2Router) */\n      dup1\n      iszero\n      tag_302\n      jumpi\n      pop\n        /* \"contracts/Pool/Pool.sol\":9170:9185  uniswapV2Router */\n      0x10\n      0x00\n      swap1\n      sload\n      swap1\n      0x0100\n      exp\n      swap1\n      div\n      0xffffffffffffffffffffffffffffffffffffffff\n      and\n        /* \"contracts/Pool/Pool.sol\":9154:9186  from != address(uniswapV2Router) */\n      0xffffffffffffffffffffffffffffffffffffffff\n      and\n        /* \"contracts/Pool/Pool.sol\":9154:9158  from */\n      dup5\n        /* \"contracts/Pool/Pool.sol\":9154:9186  from != address(uniswapV2Router) */\n      0xffffffffffffffffffffffffffffffffffffffff\n      and\n      eq\n      iszero\n        /* \"contracts/Pool/Pool.sol\":9131:9186  to == uniswapV2Pair && from != address(uniswapV2Router) */\n    tag_302:\n        /* \"contracts/Pool/Pool.sol\":9127:9289  if (to == uniswapV2Pair && from != address(uniswapV2Router)) {... */\n      iszero\n      tag_303\n      jumpi\n        /* \"contracts/Pool/Pool.sol\":9218:9233  _redisFeeOnSell */\n      sload(0x0a)\n        /* \"contracts/Pool/Pool.sol\":9206:9215  _redisFee */\n      0x0c\n        /* \"contracts/Pool/Pool.sol\":9206:9233  _redisFee = _redisFeeOnSell */\n      dup2\n      swap1\n      sstore\n      pop\n        /* \"contracts/Pool/Pool.sol\":9261:9274  _taxFeeOnSell */\n      sload(0x0b)\n        /* \"contracts/Pool/Pool.sol\":9251:9258  _taxFee */\n      0x0d\n        /* \"contracts/Pool/Pool.sol\":9251:9274  _taxFee = _taxFeeOnSell */\n      dup2\n      swap1\n      sstore\n      pop\n        /* \"contracts/Pool/Pool.sol\":9127:9289  if (to == uniswapV2Pair && from != address(uniswapV2Router)) {... */\n    tag_303:\n        /* \"contracts/Pool/Pool.sol\":9320:9338  _isExcludedFromFee */\n      0x05\n        /* \"contracts/Pool/Pool.sol\":9320:9344  _isExcludedFromFee[from] */\n      0x00\n        /* \"contracts/Pool/Pool.sol\":9339:9343  from */\n      dup6\n        /* \"contracts/Pool/Pool.sol\":9320:9344  _isExcludedFromFee[from] */\n      0xffffffffffffffffffffffffffffffffffffffff\n      and\n      0xffffffffffffffffffffffffffffffffffffffff\n      and\n      dup2\n      mstore\n      0x20\n      add\n      swap1\n      dup2\n      mstore\n      0x20\n      add\n      0x00\n      keccak256\n      0x00\n      swap1\n      sload\n      swap1\n      0x0100\n      exp\n      swap1\n      div\n      0xff\n      and\n        /* \"contracts/Pool/Pool.sol\":9320:9370  _isExcludedFromFee[from] || _isExcludedFromFee[to] */\n      dup1\n      tag_304\n      jumpi\n      pop\n        /* \"contracts/Pool/Pool.sol\":9348:9366  _isExcludedFromFee */\n      0x05\n        /* \"contracts/Pool/Pool.sol\":9348:9370  _isExcludedFromFee[to] */\n      0x00\n        /* \"contracts/Pool/Pool.sol\":9367:9369  to */\n      dup5\n        /* \"contracts/Pool/Pool.sol\":9348:9370  _isExcludedFromFee[to] */\n      0xffffffffffffffffffffffffffffffffffffffff\n      and\n      0xffffffffffffffffffffffffffffffffffffffff\n      and\n      dup2\n      mstore\n      0x20\n      add\n      swap1\n      dup2\n      mstore\n      0x20\n      add\n      0x00\n      keccak256\n      0x00\n      swap1\n      sload\n      swap1\n      0x0100\n      exp\n      swap1\n      div\n      0xff\n      and\n        /* \"contracts/Pool/Pool.sol\":9320:9370  _isExcludedFromFee[from] || _isExcludedFromFee[to] */\n    tag_304:\n        /* \"contracts/Pool/Pool.sol\":9319:9421  (_isExcludedFromFee[from] || _isExcludedFromFee[to]) || (from != uniswapV2Pair && to != uniswapV2Pair) */\n      dup1\n      tag_305\n      jumpi\n      pop\n        /* \"contracts/Pool/Pool.sol\":9384:9397  uniswapV2Pair */\n      0x12\n      0x00\n      swap1\n      sload\n      swap1\n      0x0100\n      exp\n      swap1\n      div\n      0xffffffffffffffffffffffffffffffffffffffff\n      and\n        /* \"contracts/Pool/Pool.sol\":9376:9397  from != uniswapV2Pair */\n      0xffffffffffffffffffffffffffffffffffffffff\n      and\n        /* \"contracts/Pool/Pool.sol\":9376:9380  from */\n      dup5\n        /* \"contracts/Pool/Pool.sol\":9376:9397  from != uniswapV2Pair */\n      0xffffffffffffffffffffffffffffffffffffffff\n      and\n      eq\n      iszero\n        /* \"contracts/Pool/Pool.sol\":9376:9420  from != uniswapV2Pair && to != uniswapV2Pair */\n      dup1\n      iszero\n      tag_306\n      jumpi\n      pop\n        /* \"contracts/Pool/Pool.sol\":9407:9420  uniswapV2Pair */\n      0x12\n      0x00\n      swap1\n      sload\n      swap1\n      0x0100\n      exp\n      swap1\n      div\n      0xffffffffffffffffffffffffffffffffffffffff\n      and\n        /* \"contracts/Pool/Pool.sol\":9401:9420  to != uniswapV2Pair */\n      0xffffffffffffffffffffffffffffffffffffffff\n      and\n        /* \"contracts/Pool/Pool.sol\":9401:9403  to */\n      dup4\n        /* \"contracts/Pool/Pool.sol\":9401:9420  to != uniswapV2Pair */\n      0xffffffffffffffffffffffffffffffffffffffff\n      and\n      eq\n      iszero\n        /* \"contracts/Pool/Pool.sol\":9376:9420  from != uniswapV2Pair && to != uniswapV2Pair */\n    tag_306:\n        /* \"contracts/Pool/Pool.sol\":9319:9421  (_isExcludedFromFee[from] || _isExcludedFromFee[to]) || (from != uniswapV2Pair && to != uniswapV2Pair) */\n    tag_305:\n        /* \"contracts/Pool/Pool.sol\":9315:9498  if ((_isExcludedFromFee[from] || _isExcludedFromFee[to]) || (from != uniswapV2Pair && to != uniswapV2Pair)) {... */\n      iszero\n      tag_307\n      jumpi\n        /* \"contracts/Pool/Pool.sol\":9453:9454  0 */\n      0x00\n        /* \"contracts/Pool/Pool.sol\":9441:9450  _redisFee */\n      0x0c\n        /* \"contracts/Pool/Pool.sol\":9441:9454  _redisFee = 0 */\n      dup2\n      swap1\n      sstore\n      pop\n        /* \"contracts/Pool/Pool.sol\":9482:9483  0 */\n      0x00\n        /* \"contracts/Pool/Pool.sol\":9472:9479  _taxFee */\n      0x0d\n        /* \"contracts/Pool/Pool.sol\":9472:9483  _taxFee = 0 */\n      dup2\n      swap1\n      sstore\n      pop\n        /* \"contracts/Pool/Pool.sol\":9315:9498  if ((_isExcludedFromFee[from] || _isExcludedFromFee[to]) || (from != uniswapV2Pair && to != uniswapV2Pair)) {... */\n    tag_307:\n        /* \"contracts/Pool/Pool.sol\":8488:9521  {... */\n      pop\n        /* \"contracts/Pool/Pool.sol\":8450:9521  if (from != owner() && to != owner()) {... */\n    tag_291:\n        /* \"contracts/Pool/Pool.sol\":9531:9561  _tokenTransfer(from,to,amount) */\n      tag_308\n        /* \"contracts/Pool/Pool.sol\":9546:9550  from */\n      dup4\n        /* \"contracts/Pool/Pool.sol\":9551:9553  to */\n      dup4\n        /* \"contracts/Pool/Pool.sol\":9554:9560  amount */\n      dup4\n        /* \"contracts/Pool/Pool.sol\":9531:9545  _tokenTransfer */\n      tag_309\n        /* \"contracts/Pool/Pool.sol\":9531:9561  _tokenTransfer(from,to,amount) */\n      jump\t// in\n    tag_308:\n        /* \"contracts/Pool/Pool.sol\":8083:9568  function _transfer(address from, address to, uint256 amount) private {... */\n      pop\n      pop\n      pop\n      jump\t// out\n        /* \"contracts/Pool/Pool.sol\":2167:2353  function sub(uint256 a, uint256 b, string memory errorMessage) internal pure returns (uint256) {... */\n    tag_154:\n        /* \"contracts/Pool/Pool.sol\":2253:2260  uint256 */\n      0x00\n        /* \"contracts/Pool/Pool.sol\":2285:2286  a */\n      dup4\n        /* \"contracts/Pool/Pool.sol\":2280:2281  b */\n      dup4\n        /* \"contracts/Pool/Pool.sol\":2280:2286  b <= a */\n      gt\n      iszero\n        /* \"contracts/Pool/Pool.sol\":2288:2300  errorMessage */\n      dup3\n        /* \"contracts/Pool/Pool.sol\":2272:2301  require(b <= a, errorMessage) */\n      swap1\n      tag_311\n      jumpi\n      mload(0x40)\n      0x08c379a000000000000000000000000000000000000000000000000000000000\n      dup2\n      mstore\n      0x04\n      add\n      tag_312\n      swap2\n      swap1\n      tag_35\n      jump\t// in\n    tag_312:\n      mload(0x40)\n      dup1\n      swap2\n      sub\n      swap1\n      revert\n    tag_311:\n      pop\n        /* \"contracts/Pool/Pool.sol\":2311:2320  uint256 c */\n      0x00\n        /* \"contracts/Pool/Pool.sol\":2327:2328  b */\n      dup4\n        /* \"contracts/Pool/Pool.sol\":2323:2324  a */\n      dup6\n        /* \"contracts/Pool/Pool.sol\":2323:2328  a - b */\n      tag_313\n      swap2\n      swap1\n      tag_314\n      jump\t// in\n    tag_313:\n        /* \"contracts/Pool/Pool.sol\":2311:2328  uint256 c = a - b */\n      swap1\n      pop\n        /* \"contracts/Pool/Pool.sol\":2345:2346  c */\n      dup1\n        /* \"contracts/Pool/Pool.sol\":2338:2346  return c */\n      swap2\n      pop\n      pop\n        /* \"contracts/Pool/Pool.sol\":2167:2353  function sub(uint256 a, uint256 b, string memory errorMessage) internal pure returns (uint256) {... */\n      swap4\n      swap3\n      pop\n      pop\n      pop\n      jump\t// out\n        /* \"contracts/Pool/Pool.sol\":10059:10216  function sendETHToFee(uint256 amount) private {... */\n    tag_174:\n        /* \"contracts/Pool/Pool.sol\":10115:10134  _developmentAddress */\n      0x0e\n      0x00\n      swap1\n      sload\n      swap1\n      0x0100\n      exp\n      swap1\n      div\n      0xffffffffffffffffffffffffffffffffffffffff\n      and\n        /* \"contracts/Pool/Pool.sol\":10115:10143  _developmentAddress.transfer */\n      0xffffffffffffffffffffffffffffffffffffffff\n      and\n        /* \"contracts/Pool/Pool.sol\":10115:10158  _developmentAddress.transfer(amount.div(2)) */\n      0x08fc\n        /* \"contracts/Pool/Pool.sol\":10144:10157  amount.div(2) */\n      tag_316\n        /* \"contracts/Pool/Pool.sol\":10155:10156  2 */\n      0x02\n        /* \"contracts/Pool/Pool.sol\":10144:10150  amount */\n      dup5\n        /* \"contracts/Pool/Pool.sol\":10144:10154  amount.div */\n      tag_317\n      swap1\n        /* \"contracts/Pool/Pool.sol\":10144:10157  amount.div(2) */\n      swap2\n      swap1\n      0xffffffff\n      and\n      jump\t// in\n    tag_316:\n        /* \"contracts/Pool/Pool.sol\":10115:10158  _developmentAddress.transfer(amount.div(2)) */\n      swap1\n      dup2\n      iszero\n      mul\n      swap1\n      mload(0x40)\n      0x00\n      mload(0x40)\n      dup1\n      dup4\n      sub\n      dup2\n      dup6\n      dup9\n      dup9\n      call\n      swap4\n      pop\n      pop\n      pop\n      pop\n      iszero\n      dup1\n      iszero\n      tag_319\n      jumpi\n      returndatasize\n      0x00\n      dup1\n      returndatacopy\n      revert(0x00, returndatasize)\n    tag_319:\n      pop\n        /* \"contracts/Pool/Pool.sol\":10168:10185  _marketingAddress */\n      0x0f\n      0x00\n      swap1\n      sload\n      swap1\n      0x0100\n      exp\n      swap1\n      div\n      0xffffffffffffffffffffffffffffffffffffffff\n      and\n        /* \"contracts/Pool/Pool.sol\":10168:10194  _marketingAddress.transfer */\n      0xffffffffffffffffffffffffffffffffffffffff\n      and\n        /* \"contracts/Pool/Pool.sol\":10168:10209  _marketingAddress.transfer(amount.div(2)) */\n      0x08fc\n        /* \"contracts/Pool/Pool.sol\":10195:10208  amount.div(2) */\n      tag_320\n        /* \"contracts/Pool/Pool.sol\":10206:10207  2 */\n      0x02\n        /* \"contracts/Pool/Pool.sol\":10195:10201  amount */\n      dup5\n        /* \"contracts/Pool/Pool.sol\":10195:10205  amount.div */\n      tag_317\n      swap1\n        /* \"contracts/Pool/Pool.sol\":10195:10208  amount.div(2) */\n      swap2\n      swap1\n      0xffffffff\n      and\n      jump\t// in\n    tag_320:\n        /* \"contracts/Pool/Pool.sol\":10168:10209  _marketingAddress.transfer(amount.div(2)) */\n      swap1\n      dup2\n      iszero\n      mul\n      swap1\n      mload(0x40)\n      0x00\n      mload(0x40)\n      dup1\n      dup4\n      sub\n      dup2\n      dup6\n      dup9\n      dup9\n      call\n      swap4\n      pop\n      pop\n      pop\n      pop\n      iszero\n      dup1\n      iszero\n      tag_322\n      jumpi\n      returndatasize\n      0x00\n      dup1\n      returndatacopy\n      revert(0x00, returndatasize)\n    tag_322:\n      pop\n        /* \"contracts/Pool/Pool.sol\":10059:10216  function sendETHToFee(uint256 amount) private {... */\n      pop\n      jump\t// out\n        /* \"contracts/Pool/Pool.sol\":7491:7741  function tokenFromReflection(uint256 rAmount) private view returns(uint256) {... */\n    tag_177:\n        /* \"contracts/Pool/Pool.sol\":7558:7565  uint256 */\n      0x00\n        /* \"contracts/Pool/Pool.sol\":7596:7603  _rTotal */\n      sload(0x06)\n        /* \"contracts/Pool/Pool.sol\":7585:7592  rAmount */\n      dup3\n        /* \"contracts/Pool/Pool.sol\":7585:7603  rAmount <= _rTotal */\n      gt\n      iszero\n        /* \"contracts/Pool/Pool.sol\":7577:7650  require(rAmount <= _rTotal, \"Amount must be less than total reflections\") */\n      tag_324\n      jumpi\n      mload(0x40)\n      0x08c379a000000000000000000000000000000000000000000000000000000000\n      dup2\n      mstore\n      0x04\n      add\n      tag_325\n      swap1\n      tag_326\n      jump\t// in\n    tag_325:\n      mload(0x40)\n      dup1\n      swap2\n      sub\n      swap1\n      revert\n    tag_324:\n        /* \"contracts/Pool/Pool.sol\":7660:7679  uint256 currentRate */\n      0x00\n        /* \"contracts/Pool/Pool.sol\":7683:7693  _getRate() */\n      tag_327\n        /* \"contracts/Pool/Pool.sol\":7683:7691  _getRate */\n      tag_328\n        /* \"contracts/Pool/Pool.sol\":7683:7693  _getRate() */\n      jump\t// in\n    tag_327:\n        /* \"contracts/Pool/Pool.sol\":7660:7693  uint256 currentRate =  _getRate() */\n      swap1\n      pop\n        /* \"contracts/Pool/Pool.sol\":7710:7734  rAmount.div(currentRate) */\n      tag_329\n        /* \"contracts/Pool/Pool.sol\":7722:7733  currentRate */\n      dup2\n        /* \"contracts/Pool/Pool.sol\":7710:7717  rAmount */\n      dup5\n        /* \"contracts/Pool/Pool.sol\":7710:7721  rAmount.div */\n      tag_317\n      swap1\n        /* \"contracts/Pool/Pool.sol\":7710:7734  rAmount.div(currentRate) */\n      swap2\n      swap1\n      0xffffffff\n      and\n      jump\t// in\n    tag_329:\n        /* \"contracts/Pool/Pool.sol\":7703:7734  return rAmount.div(currentRate) */\n      swap2\n      pop\n      pop\n        /* \"contracts/Pool/Pool.sol\":7491:7741  function tokenFromReflection(uint256 rAmount) private view returns(uint256) {... */\n      swap2\n      swap1\n      pop\n      jump\t// out\n        /* \"contracts/Pool/Pool.sol\":9574:10045  function swapTokensForEth(uint256 tokenAmount) private lockTheSwap {... */\n    tag_233:\n        /* \"contracts/Pool/Pool.sol\":5140:5144  true */\n      0x01\n        /* \"contracts/Pool/Pool.sol\":5131:5137  inSwap */\n      0x12\n      0x14\n        /* \"contracts/Pool/Pool.sol\":5131:5144  inSwap = true */\n      0x0100\n      exp\n      dup2\n      sload\n      dup2\n      0xff\n      mul\n      not\n      and\n      swap1\n      dup4\n      iszero\n      iszero\n      mul\n      or\n      swap1\n      sstore\n      pop\n        /* \"contracts/Pool/Pool.sol\":9651:9672  address[] memory path */\n      0x00\n        /* \"contracts/Pool/Pool.sol\":9689:9690  2 */\n      0x02\n        /* \"contracts/Pool/Pool.sol\":9675:9691  new address[](2) */\n      0xffffffffffffffff\n      dup2\n      gt\n      iszero\n      tag_332\n      jumpi\n      tag_333\n      tag_334\n      jump\t// in\n    tag_333:\n    tag_332:\n      mload(0x40)\n      swap1\n      dup1\n      dup3\n      mstore\n      dup1\n      0x20\n      mul\n      0x20\n      add\n      dup3\n      add\n      0x40\n      mstore\n      dup1\n      iszero\n      tag_335\n      jumpi\n      dup2\n      0x20\n      add\n      0x20\n      dup3\n      mul\n      dup1\n      calldatasize\n      dup4\n      calldatacopy\n      dup1\n      dup3\n      add\n      swap2\n      pop\n      pop\n      swap1\n      pop\n    tag_335:\n      pop\n        /* \"contracts/Pool/Pool.sol\":9651:9691  address[] memory path = new address[](2) */\n      swap1\n      pop\n        /* \"contracts/Pool/Pool.sol\":9719:9723  this */\n      address\n        /* \"contracts/Pool/Pool.sol\":9701:9705  path */\n      dup2\n        /* \"contracts/Pool/Pool.sol\":9706:9707  0 */\n      0x00\n        /* \"contracts/Pool/Pool.sol\":9701:9708  path[0] */\n      dup2\n      mload\n      dup2\n      lt\n      tag_336\n      jumpi\n      tag_337\n      tag_244\n      jump\t// in\n    tag_337:\n    tag_336:\n      0x20\n      mul\n      0x20\n      add\n      add\n        /* \"contracts/Pool/Pool.sol\":9701:9724  path[0] = address(this) */\n      swap1\n      0xffffffffffffffffffffffffffffffffffffffff\n      and\n      swap1\n      dup2\n      0xffffffffffffffffffffffffffffffffffffffff\n      and\n      dup2\n      mstore\n      pop\n      pop\n        /* \"contracts/Pool/Pool.sol\":9744:9759  uniswapV2Router */\n      0x10\n      0x00\n      swap1\n      sload\n      swap1\n      0x0100\n      exp\n      swap1\n      div\n      0xffffffffffffffffffffffffffffffffffffffff\n      and\n        /* \"contracts/Pool/Pool.sol\":9744:9764  uniswapV2Router.WETH */\n      0xffffffffffffffffffffffffffffffffffffffff\n      and\n      0xad5c4648\n        /* \"contracts/Pool/Pool.sol\":9744:9766  uniswapV2Router.WETH() */\n      mload(0x40)\n      dup2\n      0xffffffff\n      and\n      0xe0\n      shl\n      dup2\n      mstore\n      0x04\n      add\n      0x20\n      mload(0x40)\n      dup1\n      dup4\n      sub\n      dup2\n      dup7\n      gas\n      staticcall\n      iszero\n      dup1\n      iszero\n      tag_339\n      jumpi\n      returndatasize\n      0x00\n      dup1\n      returndatacopy\n      revert(0x00, returndatasize)\n    tag_339:\n      pop\n      pop\n      pop\n      pop\n      mload(0x40)\n      returndatasize\n      not(0x1f)\n      0x1f\n      dup3\n      add\n      and\n      dup3\n      add\n      dup1\n      0x40\n      mstore\n      pop\n      dup2\n      add\n      swap1\n      tag_340\n      swap2\n      swap1\n      tag_341\n      jump\t// in\n    tag_340:\n        /* \"contracts/Pool/Pool.sol\":9734:9738  path */\n      dup2\n        /* \"contracts/Pool/Pool.sol\":9739:9740  1 */\n      0x01\n        /* \"contracts/Pool/Pool.sol\":9734:9741  path[1] */\n      dup2\n      mload\n      dup2\n      lt\n      tag_342\n      jumpi\n      tag_343\n      tag_244\n      jump\t// in\n    tag_343:\n    tag_342:\n      0x20\n      mul\n      0x20\n      add\n      add\n        /* \"contracts/Pool/Pool.sol\":9734:9766  path[1] = uniswapV2Router.WETH() */\n      swap1\n      0xffffffffffffffffffffffffffffffffffffffff\n      and\n      swap1\n      dup2\n      0xffffffffffffffffffffffffffffffffffffffff\n      and\n      dup2\n      mstore\n      pop\n      pop\n        /* \"contracts/Pool/Pool.sol\":9776:9838  _approve(address(this), address(uniswapV2Router), tokenAmount) */\n      tag_344\n        /* \"contracts/Pool/Pool.sol\":9793:9797  this */\n      address\n        /* \"contracts/Pool/Pool.sol\":9808:9823  uniswapV2Router */\n      0x10\n      0x00\n      swap1\n      sload\n      swap1\n      0x0100\n      exp\n      swap1\n      div\n      0xffffffffffffffffffffffffffffffffffffffff\n      and\n        /* \"contracts/Pool/Pool.sol\":9826:9837  tokenAmount */\n      dup5\n        /* \"contracts/Pool/Pool.sol\":9776:9784  _approve */\n      tag_145\n        /* \"contracts/Pool/Pool.sol\":9776:9838  _approve(address(this), address(uniswapV2Router), tokenAmount) */\n      jump\t// in\n    tag_344:\n        /* \"contracts/Pool/Pool.sol\":9848:9863  uniswapV2Router */\n      0x10\n      0x00\n      swap1\n      sload\n      swap1\n      0x0100\n      exp\n      swap1\n      div\n      0xffffffffffffffffffffffffffffffffffffffff\n      and\n        /* \"contracts/Pool/Pool.sol\":9848:9914  uniswapV2Router.swapExactTokensForETHSupportingFeeOnTransferTokens */\n      0xffffffffffffffffffffffffffffffffffffffff\n      and\n      0x791ac947\n        /* \"contracts/Pool/Pool.sol\":9928:9939  tokenAmount */\n      dup4\n        /* \"contracts/Pool/Pool.sol\":9953:9954  0 */\n      0x00\n        /* \"contracts/Pool/Pool.sol\":9968:9972  path */\n      dup5\n        /* \"contracts/Pool/Pool.sol\":9994:9998  this */\n      address\n        /* \"contracts/Pool/Pool.sol\":10013:10028  block.timestamp */\n      timestamp\n        /* \"contracts/Pool/Pool.sol\":9848:10038  uniswapV2Router.swapExactTokensForETHSupportingFeeOnTransferTokens(... */\n      mload(0x40)\n      dup7\n      0xffffffff\n      and\n      0xe0\n      shl\n      dup2\n      mstore\n      0x04\n      add\n      tag_345\n      swap6\n      swap5\n      swap4\n      swap3\n      swap2\n      swap1\n      tag_346\n      jump\t// in\n    tag_345:\n      0x00\n      mload(0x40)\n      dup1\n      dup4\n      sub\n      dup2\n      0x00\n      dup8\n      dup1\n      extcodesize\n      iszero\n      dup1\n      iszero\n      tag_347\n      jumpi\n      0x00\n      dup1\n      revert\n    tag_347:\n      pop\n      gas\n      call\n      iszero\n      dup1\n      iszero\n      tag_349\n      jumpi\n      returndatasize\n      0x00\n      dup1\n      returndatacopy\n      revert(0x00, returndatasize)\n    tag_349:\n      pop\n      pop\n      pop\n      pop\n        /* \"contracts/Pool/Pool.sol\":9641:10045  {... */\n      pop\n        /* \"contracts/Pool/Pool.sol\":5174:5179  false */\n      0x00\n        /* \"contracts/Pool/Pool.sol\":5165:5171  inSwap */\n      0x12\n      0x14\n        /* \"contracts/Pool/Pool.sol\":5165:5179  inSwap = false */\n      0x0100\n      exp\n      dup2\n      sload\n      dup2\n      0xff\n      mul\n      not\n      and\n      swap1\n      dup4\n      iszero\n      iszero\n      mul\n      or\n      swap1\n      sstore\n      pop\n        /* \"contracts/Pool/Pool.sol\":9574:10045  function swapTokensForEth(uint256 tokenAmount) private lockTheSwap {... */\n      pop\n      jump\t// out\n        /* \"contracts/Pool/Pool.sol\":10226:10370  function _tokenTransfer(address sender, address recipient, uint256 amount) private {... */\n    tag_309:\n        /* \"contracts/Pool/Pool.sol\":10319:10363  _transferStandard(sender, recipient, amount) */\n      tag_351\n        /* \"contracts/Pool/Pool.sol\":10337:10343  sender */\n      dup4\n        /* \"contracts/Pool/Pool.sol\":10345:10354  recipient */\n      dup4\n        /* \"contracts/Pool/Pool.sol\":10356:10362  amount */\n      dup4\n        /* \"contracts/Pool/Pool.sol\":10319:10336  _transferStandard */\n      tag_352\n        /* \"contracts/Pool/Pool.sol\":10319:10363  _transferStandard(sender, recipient, amount) */\n      jump\t// in\n    tag_351:\n        /* \"contracts/Pool/Pool.sol\":10226:10370  function _tokenTransfer(address sender, address recipient, uint256 amount) private {... */\n      pop\n      pop\n      pop\n      jump\t// out\n        /* \"contracts/Pool/Pool.sol\":2604:2734  function div(uint256 a, uint256 b) internal pure returns (uint256) {... */\n    tag_317:\n        /* \"contracts/Pool/Pool.sol\":2662:2669  uint256 */\n      0x00\n        /* \"contracts/Pool/Pool.sol\":2688:2727  div(a, b, \"SafeMath: division by zero\") */\n      tag_354\n        /* \"contracts/Pool/Pool.sol\":2692:2693  a */\n      dup4\n        /* \"contracts/Pool/Pool.sol\":2695:2696  b */\n      dup4\n        /* \"contracts/Pool/Pool.sol\":2688:2727  div(a, b, \"SafeMath: division by zero\") */\n      mload(0x40)\n      dup1\n      0x40\n      add\n      0x40\n      mstore\n      dup1\n      0x1a\n      dup2\n      mstore\n      0x20\n      add\n      0x536166654d6174683a206469766973696f6e206279207a65726f000000000000\n      dup2\n      mstore\n      pop\n        /* \"contracts/Pool/Pool.sol\":2688:2691  div */\n      tag_355\n        /* \"contracts/Pool/Pool.sol\":2688:2727  div(a, b, \"SafeMath: division by zero\") */\n      jump\t// in\n    tag_354:\n        /* \"contracts/Pool/Pool.sol\":2681:2727  return div(a, b, \"SafeMath: division by zero\") */\n      swap1\n      pop\n        /* \"contracts/Pool/Pool.sol\":2604:2734  function div(uint256 a, uint256 b) internal pure returns (uint256) {... */\n      swap3\n      swap2\n      pop\n      pop\n      jump\t// out\n        /* \"contracts/Pool/Pool.sol\":13418:13578  function _getRate() private view returns(uint256) {... */\n    tag_328:\n        /* \"contracts/Pool/Pool.sol\":13459:13466  uint256 */\n      0x00\n        /* \"contracts/Pool/Pool.sol\":13479:13494  uint256 rSupply */\n      dup1\n        /* \"contracts/Pool/Pool.sol\":13496:13511  uint256 tSupply */\n      0x00\n        /* \"contracts/Pool/Pool.sol\":13515:13534  _getCurrentSupply() */\n      tag_357\n        /* \"contracts/Pool/Pool.sol\":13515:13532  _getCurrentSupply */\n      tag_358\n        /* \"contracts/Pool/Pool.sol\":13515:13534  _getCurrentSupply() */\n      jump\t// in\n    tag_357:\n        /* \"contracts/Pool/Pool.sol\":13478:13534  (uint256 rSupply, uint256 tSupply) = _getCurrentSupply() */\n      swap2\n      pop\n      swap2\n      pop\n        /* \"contracts/Pool/Pool.sol\":13551:13571  rSupply.div(tSupply) */\n      tag_359\n        /* \"contracts/Pool/Pool.sol\":13563:13570  tSupply */\n      dup2\n        /* \"contracts/Pool/Pool.sol\":13551:13558  rSupply */\n      dup4\n        /* \"contracts/Pool/Pool.sol\":13551:13562  rSupply.div */\n      tag_317\n      swap1\n        /* \"contracts/Pool/Pool.sol\":13551:13571  rSupply.div(tSupply) */\n      swap2\n      swap1\n      0xffffffff\n      and\n      jump\t// in\n    tag_359:\n        /* \"contracts/Pool/Pool.sol\":13544:13571  return rSupply.div(tSupply) */\n      swap3\n      pop\n      pop\n      pop\n        /* \"contracts/Pool/Pool.sol\":13418:13578  function _getRate() private view returns(uint256) {... */\n      swap1\n      jump\t// out\n        /* \"contracts/Pool/Pool.sol\":11300:11781  function _transferStandard(address sender, address recipient, uint256 tAmount) private {... */\n    tag_352:\n        /* \"contracts/Pool/Pool.sol\":11398:11413  uint256 rAmount */\n      0x00\n        /* \"contracts/Pool/Pool.sol\":11415:11438  uint256 rTransferAmount */\n      dup1\n        /* \"contracts/Pool/Pool.sol\":11440:11452  uint256 rFee */\n      0x00\n        /* \"contracts/Pool/Pool.sol\":11454:11477  uint256 tTransferAmount */\n      dup1\n        /* \"contracts/Pool/Pool.sol\":11479:11491  uint256 tFee */\n      0x00\n        /* \"contracts/Pool/Pool.sol\":11493:11506  uint256 tTeam */\n      dup1\n        /* \"contracts/Pool/Pool.sol\":11510:11529  _getValues(tAmount) */\n      tag_361\n        /* \"contracts/Pool/Pool.sol\":11521:11528  tAmount */\n      dup8\n        /* \"contracts/Pool/Pool.sol\":11510:11520  _getValues */\n      tag_362\n        /* \"contracts/Pool/Pool.sol\":11510:11529  _getValues(tAmount) */\n      jump\t// in\n    tag_361:\n        /* \"contracts/Pool/Pool.sol\":11397:11529  (uint256 rAmount, uint256 rTransferAmount, uint256 rFee, uint256 tTransferAmount, uint256 tFee, uint256 tTeam) = _getValues(tAmount) */\n      swap6\n      pop\n      swap6\n      pop\n      swap6\n      pop\n      swap6\n      pop\n      swap6\n      pop\n      swap6\n      pop\n        /* \"contracts/Pool/Pool.sol\":11557:11585  _rOwned[sender].sub(rAmount) */\n      tag_363\n        /* \"contracts/Pool/Pool.sol\":11577:11584  rAmount */\n      dup7\n        /* \"contracts/Pool/Pool.sol\":11557:11564  _rOwned */\n      0x02\n        /* \"contracts/Pool/Pool.sol\":11557:11572  _rOwned[sender] */\n      0x00\n        /* \"contracts/Pool/Pool.sol\":11565:11571  sender */\n      dup13\n        /* \"contracts/Pool/Pool.sol\":11557:11572  _rOwned[sender] */\n      0xffffffffffffffffffffffffffffffffffffffff\n      and\n      0xffffffffffffffffffffffffffffffffffffffff\n      and\n      dup2\n      mstore\n      0x20\n      add\n      swap1\n      dup2\n      mstore\n      0x20\n      add\n      0x00\n      keccak256\n      sload\n        /* \"contracts/Pool/Pool.sol\":11557:11576  _rOwned[sender].sub */\n      tag_364\n      swap1\n        /* \"contracts/Pool/Pool.sol\":11557:11585  _rOwned[sender].sub(rAmount) */\n      swap2\n      swap1\n      0xffffffff\n      and\n      jump\t// in\n    tag_363:\n        /* \"contracts/Pool/Pool.sol\":11539:11546  _rOwned */\n      0x02\n        /* \"contracts/Pool/Pool.sol\":11539:11554  _rOwned[sender] */\n      0x00\n        /* \"contracts/Pool/Pool.sol\":11547:11553  sender */\n      dup12\n        /* \"contracts/Pool/Pool.sol\":11539:11554  _rOwned[sender] */\n      0xffffffffffffffffffffffffffffffffffffffff\n      and\n      0xffffffffffffffffffffffffffffffffffffffff\n      and\n      dup2\n      mstore\n      0x20\n      add\n      swap1\n      dup2\n      mstore\n      0x20\n      add\n      0x00\n      keccak256\n        /* \"contracts/Pool/Pool.sol\":11539:11585  _rOwned[sender] = _rOwned[sender].sub(rAmount) */\n      dup2\n      swap1\n      sstore\n      pop\n        /* \"contracts/Pool/Pool.sol\":11616:11655  _rOwned[recipient].add(rTransferAmount) */\n      tag_365\n        /* \"contracts/Pool/Pool.sol\":11639:11654  rTransferAmount */\n      dup6\n        /* \"contracts/Pool/Pool.sol\":11616:11623  _rOwned */\n      0x02\n        /* \"contracts/Pool/Pool.sol\":11616:11634  _rOwned[recipient] */\n      0x00\n        /* \"contracts/Pool/Pool.sol\":11624:11633  recipient */\n      dup12\n        /* \"contracts/Pool/Pool.sol\":11616:11634  _rOwned[recipient] */\n      0xffffffffffffffffffffffffffffffffffffffff\n      and\n      0xffffffffffffffffffffffffffffffffffffffff\n      and\n      dup2\n      mstore\n      0x20\n      add\n      swap1\n      dup2\n      mstore\n      0x20\n      add\n      0x00\n      keccak256\n      sload\n        /* \"contracts/Pool/Pool.sol\":11616:11638  _rOwned[recipient].add */\n      tag_366\n      swap1\n        /* \"contracts/Pool/Pool.sol\":11616:11655  _rOwned[recipient].add(rTransferAmount) */\n      swap2\n      swap1\n      0xffffffff\n      and\n      jump\t// in\n    tag_365:\n        /* \"contracts/Pool/Pool.sol\":11595:11602  _rOwned */\n      0x02\n        /* \"contracts/Pool/Pool.sol\":11595:11613  _rOwned[recipient] */\n      0x00\n        /* \"contracts/Pool/Pool.sol\":11603:11612  recipient */\n      dup11\n        /* \"contracts/Pool/Pool.sol\":11595:11613  _rOwned[recipient] */\n      0xffffffffffffffffffffffffffffffffffffffff\n      and\n      0xffffffffffffffffffffffffffffffffffffffff\n      and\n      dup2\n      mstore\n      0x20\n      add\n      swap1\n      dup2\n      mstore\n      0x20\n      add\n      0x00\n      keccak256\n        /* \"contracts/Pool/Pool.sol\":11595:11655  _rOwned[recipient] = _rOwned[recipient].add(rTransferAmount) */\n      dup2\n      swap1\n      sstore\n      pop\n        /* \"contracts/Pool/Pool.sol\":11666:11682  _takeTeam(tTeam) */\n      tag_367\n        /* \"contracts/Pool/Pool.sol\":11676:11681  tTeam */\n      dup2\n        /* \"contracts/Pool/Pool.sol\":11666:11675  _takeTeam */\n      tag_368\n        /* \"contracts/Pool/Pool.sol\":11666:11682  _takeTeam(tTeam) */\n      jump\t// in\n    tag_367:\n        /* \"contracts/Pool/Pool.sol\":11692:11715  _reflectFee(rFee, tFee) */\n      tag_369\n        /* \"contracts/Pool/Pool.sol\":11704:11708  rFee */\n      dup5\n        /* \"contracts/Pool/Pool.sol\":11710:11714  tFee */\n      dup4\n        /* \"contracts/Pool/Pool.sol\":11692:11703  _reflectFee */\n      tag_370\n        /* \"contracts/Pool/Pool.sol\":11692:11715  _reflectFee(rFee, tFee) */\n      jump\t// in\n    tag_369:\n        /* \"contracts/Pool/Pool.sol\":11747:11756  recipient */\n      dup8\n        /* \"contracts/Pool/Pool.sol\":11730:11774  Transfer(sender, recipient, tTransferAmount) */\n      0xffffffffffffffffffffffffffffffffffffffff\n      and\n        /* \"contracts/Pool/Pool.sol\":11739:11745  sender */\n      dup10\n        /* \"contracts/Pool/Pool.sol\":11730:11774  Transfer(sender, recipient, tTransferAmount) */\n      0xffffffffffffffffffffffffffffffffffffffff\n      and\n      0xddf252ad1be2c89b69c2b068fc378daa952ba7f163c4a11628f55a4df523b3ef\n        /* \"contracts/Pool/Pool.sol\":11758:11773  tTransferAmount */\n      dup6\n        /* \"contracts/Pool/Pool.sol\":11730:11774  Transfer(sender, recipient, tTransferAmount) */\n      mload(0x40)\n      tag_371\n      swap2\n      swap1\n      tag_52\n      jump\t// in\n    tag_371:\n      mload(0x40)\n      dup1\n      swap2\n      sub\n      swap1\n      log3\n        /* \"contracts/Pool/Pool.sol\":11387:11781  {... */\n      pop\n      pop\n      pop\n      pop\n      pop\n      pop\n        /* \"contracts/Pool/Pool.sol\":11300:11781  function _transferStandard(address sender, address recipient, uint256 tAmount) private {... */\n      pop\n      pop\n      pop\n      jump\t// out\n        /* \"contracts/Pool/Pool.sol\":2740:2925  function div(uint256 a, uint256 b, string memory errorMessage) internal pure returns (uint256) {... */\n    tag_355:\n        /* \"contracts/Pool/Pool.sol\":2826:2833  uint256 */\n      0x00\n        /* \"contracts/Pool/Pool.sol\":2857:2858  0 */\n      dup1\n        /* \"contracts/Pool/Pool.sol\":2853:2854  b */\n      dup4\n        /* \"contracts/Pool/Pool.sol\":2853:2858  b > 0 */\n      gt\n        /* \"contracts/Pool/Pool.sol\":2860:2872  errorMessage */\n      dup3\n        /* \"contracts/Pool/Pool.sol\":2845:2873  require(b > 0, errorMessage) */\n      swap1\n      tag_373\n      jumpi\n      mload(0x40)\n      0x08c379a000000000000000000000000000000000000000000000000000000000\n      dup2\n      mstore\n      0x04\n      add\n      tag_374\n      swap2\n      swap1\n      tag_35\n      jump\t// in\n    tag_374:\n      mload(0x40)\n      dup1\n      swap2\n      sub\n      swap1\n      revert\n    tag_373:\n      pop\n        /* \"contracts/Pool/Pool.sol\":2883:2892  uint256 c */\n      0x00\n        /* \"contracts/Pool/Pool.sol\":2899:2900  b */\n      dup4\n        /* \"contracts/Pool/Pool.sol\":2895:2896  a */\n      dup6\n        /* \"contracts/Pool/Pool.sol\":2895:2900  a / b */\n      tag_375\n      swap2\n      swap1\n      tag_376\n      jump\t// in\n    tag_375:\n        /* \"contracts/Pool/Pool.sol\":2883:2900  uint256 c = a / b */\n      swap1\n      pop\n        /* \"contracts/Pool/Pool.sol\":2917:2918  c */\n      dup1\n        /* \"contracts/Pool/Pool.sol\":2910:2918  return c */\n      swap2\n      pop\n      pop\n        /* \"contracts/Pool/Pool.sol\":2740:2925  function div(uint256 a, uint256 b, string memory errorMessage) internal pure returns (uint256) {... */\n      swap4\n      swap3\n      pop\n      pop\n      pop\n      jump\t// out\n        /* \"contracts/Pool/Pool.sol\":13584:13841  function _getCurrentSupply() private view returns(uint256, uint256) {... */\n    tag_358:\n        /* \"contracts/Pool/Pool.sol\":13634:13641  uint256 */\n      0x00\n        /* \"contracts/Pool/Pool.sol\":13643:13650  uint256 */\n      dup1\n        /* \"contracts/Pool/Pool.sol\":13662:13677  uint256 rSupply */\n      0x00\n        /* \"contracts/Pool/Pool.sol\":13680:13687  _rTotal */\n      sload(0x06)\n        /* \"contracts/Pool/Pool.sol\":13662:13687  uint256 rSupply = _rTotal */\n      swap1\n      pop\n        /* \"contracts/Pool/Pool.sol\":13697:13712  uint256 tSupply */\n      0x00\n        /* \"contracts/Pool/Pool.sol\":4200:4213  1*10**9*10**9 */\n      0x0de0b6b3a7640000\n        /* \"contracts/Pool/Pool.sol\":13697:13722  uint256 tSupply = _tTotal */\n      swap1\n      pop\n        /* \"contracts/Pool/Pool.sol\":13752:13772  _rTotal.div(_tTotal) */\n      tag_378\n        /* \"contracts/Pool/Pool.sol\":4200:4213  1*10**9*10**9 */\n      0x0de0b6b3a7640000\n        /* \"contracts/Pool/Pool.sol\":13752:13759  _rTotal */\n      sload(0x06)\n        /* \"contracts/Pool/Pool.sol\":13752:13763  _rTotal.div */\n      tag_317\n      swap1\n        /* \"contracts/Pool/Pool.sol\":13752:13772  _rTotal.div(_tTotal) */\n      swap2\n      swap1\n      0xffffffff\n      and\n      jump\t// in\n    tag_378:\n        /* \"contracts/Pool/Pool.sol\":13742:13749  rSupply */\n      dup3\n        /* \"contracts/Pool/Pool.sol\":13742:13772  rSupply < _rTotal.div(_tTotal) */\n      lt\n        /* \"contracts/Pool/Pool.sol\":13738:13799  if (rSupply < _rTotal.div(_tTotal)) return (_rTotal, _tTotal) */\n      iszero\n      tag_379\n      jumpi\n        /* \"contracts/Pool/Pool.sol\":13782:13789  _rTotal */\n      sload(0x06)\n        /* \"contracts/Pool/Pool.sol\":4200:4213  1*10**9*10**9 */\n      0x0de0b6b3a7640000\n        /* \"contracts/Pool/Pool.sol\":13774:13799  return (_rTotal, _tTotal) */\n      swap4\n      pop\n      swap4\n      pop\n      pop\n      pop\n      jump(tag_377)\n        /* \"contracts/Pool/Pool.sol\":13738:13799  if (rSupply < _rTotal.div(_tTotal)) return (_rTotal, _tTotal) */\n    tag_379:\n        /* \"contracts/Pool/Pool.sol\":13817:13824  rSupply */\n      dup2\n        /* \"contracts/Pool/Pool.sol\":13826:13833  tSupply */\n      dup2\n        /* \"contracts/Pool/Pool.sol\":13809:13834  return (rSupply, tSupply) */\n      swap4\n      pop\n      swap4\n      pop\n      pop\n      pop\n        /* \"contracts/Pool/Pool.sol\":13584:13841  function _getCurrentSupply() private view returns(uint256, uint256) {... */\n    tag_377:\n      swap1\n      swap2\n      jump\t// out\n        /* \"contracts/Pool/Pool.sol\":12190:12654  function _getValues(uint256 tAmount) private view returns (uint256, uint256, uint256, uint256, uint256, uint256) {... */\n    tag_362:\n        /* \"contracts/Pool/Pool.sol\":12249:12256  uint256 */\n      0x00\n        /* \"contracts/Pool/Pool.sol\":12258:12265  uint256 */\n      dup1\n        /* \"contracts/Pool/Pool.sol\":12267:12274  uint256 */\n      0x00\n        /* \"contracts/Pool/Pool.sol\":12276:12283  uint256 */\n      dup1\n        /* \"contracts/Pool/Pool.sol\":12285:12292  uint256 */\n      0x00\n        /* \"contracts/Pool/Pool.sol\":12294:12301  uint256 */\n      dup1\n        /* \"contracts/Pool/Pool.sol\":12314:12337  uint256 tTransferAmount */\n      0x00\n        /* \"contracts/Pool/Pool.sol\":12339:12351  uint256 tFee */\n      dup1\n        /* \"contracts/Pool/Pool.sol\":12353:12366  uint256 tTeam */\n      0x00\n        /* \"contracts/Pool/Pool.sol\":12370:12410  _getTValues(tAmount, _redisFee, _taxFee) */\n      tag_381\n        /* \"contracts/Pool/Pool.sol\":12382:12389  tAmount */\n      dup11\n        /* \"contracts/Pool/Pool.sol\":12391:12400  _redisFee */\n      sload(0x0c)\n        /* \"contracts/Pool/Pool.sol\":12402:12409  _taxFee */\n      sload(0x0d)\n        /* \"contracts/Pool/Pool.sol\":12370:12381  _getTValues */\n      tag_382\n        /* \"contracts/Pool/Pool.sol\":12370:12410  _getTValues(tAmount, _redisFee, _taxFee) */\n      jump\t// in\n    tag_381:\n        /* \"contracts/Pool/Pool.sol\":12313:12410  (uint256 tTransferAmount, uint256 tFee, uint256 tTeam) = _getTValues(tAmount, _redisFee, _taxFee) */\n      swap3\n      pop\n      swap3\n      pop\n      swap3\n      pop\n        /* \"contracts/Pool/Pool.sol\":12420:12439  uint256 currentRate */\n      0x00\n        /* \"contracts/Pool/Pool.sol\":12443:12453  _getRate() */\n      tag_383\n        /* \"contracts/Pool/Pool.sol\":12443:12451  _getRate */\n      tag_328\n        /* \"contracts/Pool/Pool.sol\":12443:12453  _getRate() */\n      jump\t// in\n    tag_383:\n        /* \"contracts/Pool/Pool.sol\":12420:12453  uint256 currentRate =  _getRate() */\n      swap1\n      pop\n        /* \"contracts/Pool/Pool.sol\":12464:12479  uint256 rAmount */\n      0x00\n        /* \"contracts/Pool/Pool.sol\":12481:12504  uint256 rTransferAmount */\n      dup1\n        /* \"contracts/Pool/Pool.sol\":12506:12518  uint256 rFee */\n      0x00\n        /* \"contracts/Pool/Pool.sol\":12522:12568  _getRValues(tAmount, tFee, tTeam, currentRate) */\n      tag_384\n        /* \"contracts/Pool/Pool.sol\":12534:12541  tAmount */\n      dup15\n        /* \"contracts/Pool/Pool.sol\":12543:12547  tFee */\n      dup8\n        /* \"contracts/Pool/Pool.sol\":12549:12554  tTeam */\n      dup8\n        /* \"contracts/Pool/Pool.sol\":12556:12567  currentRate */\n      dup8\n        /* \"contracts/Pool/Pool.sol\":12522:12533  _getRValues */\n      tag_385\n        /* \"contracts/Pool/Pool.sol\":12522:12568  _getRValues(tAmount, tFee, tTeam, currentRate) */\n      jump\t// in\n    tag_384:\n        /* \"contracts/Pool/Pool.sol\":12463:12568  (uint256 rAmount, uint256 rTransferAmount, uint256 rFee) = _getRValues(tAmount, tFee, tTeam, currentRate) */\n      swap3\n      pop\n      swap3\n      pop\n      swap3\n      pop\n        /* \"contracts/Pool/Pool.sol\":12586:12593  rAmount */\n      dup3\n        /* \"contracts/Pool/Pool.sol\":12595:12610  rTransferAmount */\n      dup3\n        /* \"contracts/Pool/Pool.sol\":12612:12616  rFee */\n      dup3\n        /* \"contracts/Pool/Pool.sol\":12618:12633  tTransferAmount */\n      dup10\n        /* \"contracts/Pool/Pool.sol\":12635:12639  tFee */\n      dup10\n        /* \"contracts/Pool/Pool.sol\":12641:12646  tTeam */\n      dup10\n        /* \"contracts/Pool/Pool.sol\":12578:12647  return (rAmount, rTransferAmount, rFee, tTransferAmount, tFee, tTeam) */\n      swap13\n      pop\n      swap13\n      pop\n      swap13\n      pop\n      swap13\n      pop\n      swap13\n      pop\n      swap13\n      pop\n      pop\n      pop\n      pop\n      pop\n      pop\n      pop\n      pop\n        /* \"contracts/Pool/Pool.sol\":12190:12654  function _getValues(uint256 tAmount) private view returns (uint256, uint256, uint256, uint256, uint256, uint256) {... */\n      swap2\n      swap4\n      swap6\n      pop\n      swap2\n      swap4\n      swap6\n      jump\t// out\n        /* \"contracts/Pool/Pool.sol\":2027:2161  function sub(uint256 a, uint256 b) internal pure returns (uint256) {... */\n    tag_364:\n        /* \"contracts/Pool/Pool.sol\":2085:2092  uint256 */\n      0x00\n        /* \"contracts/Pool/Pool.sol\":2111:2154  sub(a, b, \"SafeMath: subtraction overflow\") */\n      tag_387\n        /* \"contracts/Pool/Pool.sol\":2115:2116  a */\n      dup4\n        /* \"contracts/Pool/Pool.sol\":2118:2119  b */\n      dup4\n        /* \"contracts/Pool/Pool.sol\":2111:2154  sub(a, b, \"SafeMath: subtraction overflow\") */\n      mload(0x40)\n      dup1\n      0x40\n      add\n      0x40\n      mstore\n      dup1\n      0x1e\n      dup2\n      mstore\n      0x20\n      add\n      0x536166654d6174683a207375627472616374696f6e206f766572666c6f770000\n      dup2\n      mstore\n      pop\n        /* \"contracts/Pool/Pool.sol\":2111:2114  sub */\n      tag_154\n        /* \"contracts/Pool/Pool.sol\":2111:2154  sub(a, b, \"SafeMath: subtraction overflow\") */\n      jump\t// in\n    tag_387:\n        /* \"contracts/Pool/Pool.sol\":2104:2154  return sub(a, b, \"SafeMath: subtraction overflow\") */\n      swap1\n      pop\n        /* \"contracts/Pool/Pool.sol\":2027:2161  function sub(uint256 a, uint256 b) internal pure returns (uint256) {... */\n      swap3\n      swap2\n      pop\n      pop\n      jump\t// out\n        /* \"contracts/Pool/Pool.sol\":1846:2021  function add(uint256 a, uint256 b) internal pure returns (uint256) {... */\n    tag_366:\n        /* \"contracts/Pool/Pool.sol\":1904:1911  uint256 */\n      0x00\n        /* \"contracts/Pool/Pool.sol\":1923:1932  uint256 c */\n      dup1\n        /* \"contracts/Pool/Pool.sol\":1939:1940  b */\n      dup3\n        /* \"contracts/Pool/Pool.sol\":1935:1936  a */\n      dup5\n        /* \"contracts/Pool/Pool.sol\":1935:1940  a + b */\n      tag_389\n      swap2\n      swap1\n      tag_390\n      jump\t// in\n    tag_389:\n        /* \"contracts/Pool/Pool.sol\":1923:1940  uint256 c = a + b */\n      swap1\n      pop\n        /* \"contracts/Pool/Pool.sol\":1963:1964  a */\n      dup4\n        /* \"contracts/Pool/Pool.sol\":1958:1959  c */\n      dup2\n        /* \"contracts/Pool/Pool.sol\":1958:1964  c >= a */\n      lt\n      iszero\n        /* \"contracts/Pool/Pool.sol\":1950:1996  require(c >= a, \"SafeMath: addition overflow\") */\n      tag_391\n      jumpi\n      mload(0x40)\n      0x08c379a000000000000000000000000000000000000000000000000000000000\n      dup2\n      mstore\n      0x04\n      add\n      tag_392\n      swap1\n      tag_393\n      jump\t// in\n    tag_392:\n      mload(0x40)\n      dup1\n      swap2\n      sub\n      swap1\n      revert\n    tag_391:\n        /* \"contracts/Pool/Pool.sol\":2013:2014  c */\n      dup1\n        /* \"contracts/Pool/Pool.sol\":2006:2014  return c */\n      swap2\n      pop\n      pop\n        /* \"contracts/Pool/Pool.sol\":1846:2021  function add(uint256 a, uint256 b) internal pure returns (uint256) {... */\n      swap3\n      swap2\n      pop\n      pop\n      jump\t// out\n        /* \"contracts/Pool/Pool.sol\":11787:11995  function _takeTeam(uint256 tTeam) private {... */\n    tag_368:\n        /* \"contracts/Pool/Pool.sol\":11839:11858  uint256 currentRate */\n      0x00\n        /* \"contracts/Pool/Pool.sol\":11862:11872  _getRate() */\n      tag_395\n        /* \"contracts/Pool/Pool.sol\":11862:11870  _getRate */\n      tag_328\n        /* \"contracts/Pool/Pool.sol\":11862:11872  _getRate() */\n      jump\t// in\n    tag_395:\n        /* \"contracts/Pool/Pool.sol\":11839:11872  uint256 currentRate =  _getRate() */\n      swap1\n      pop\n        /* \"contracts/Pool/Pool.sol\":11882:11895  uint256 rTeam */\n      0x00\n        /* \"contracts/Pool/Pool.sol\":11898:11920  tTeam.mul(currentRate) */\n      tag_396\n        /* \"contracts/Pool/Pool.sol\":11908:11919  currentRate */\n      dup3\n        /* \"contracts/Pool/Pool.sol\":11898:11903  tTeam */\n      dup5\n        /* \"contracts/Pool/Pool.sol\":11898:11907  tTeam.mul */\n      tag_397\n      swap1\n        /* \"contracts/Pool/Pool.sol\":11898:11920  tTeam.mul(currentRate) */\n      swap2\n      swap1\n      0xffffffff\n      and\n      jump\t// in\n    tag_396:\n        /* \"contracts/Pool/Pool.sol\":11882:11920  uint256 rTeam = tTeam.mul(currentRate) */\n      swap1\n      pop\n        /* \"contracts/Pool/Pool.sol\":11955:11988  _rOwned[address(this)].add(rTeam) */\n      tag_398\n        /* \"contracts/Pool/Pool.sol\":11982:11987  rTeam */\n      dup2\n        /* \"contracts/Pool/Pool.sol\":11955:11962  _rOwned */\n      0x02\n        /* \"contracts/Pool/Pool.sol\":11955:11977  _rOwned[address(this)] */\n      0x00\n        /* \"contracts/Pool/Pool.sol\":11971:11975  this */\n      address\n        /* \"contracts/Pool/Pool.sol\":11955:11977  _rOwned[address(this)] */\n      0xffffffffffffffffffffffffffffffffffffffff\n      and\n      0xffffffffffffffffffffffffffffffffffffffff\n      and\n      dup2\n      mstore\n      0x20\n      add\n      swap1\n      dup2\n      mstore\n      0x20\n      add\n      0x00\n      keccak256\n      sload\n        /* \"contracts/Pool/Pool.sol\":11955:11981  _rOwned[address(this)].add */\n      tag_366\n      swap1\n        /* \"contracts/Pool/Pool.sol\":11955:11988  _rOwned[address(this)].add(rTeam) */\n      swap2\n      swap1\n      0xffffffff\n      and\n      jump\t// in\n    tag_398:\n        /* \"contracts/Pool/Pool.sol\":11930:11937  _rOwned */\n      0x02\n        /* \"contracts/Pool/Pool.sol\":11930:11952  _rOwned[address(this)] */\n      0x00\n        /* \"contracts/Pool/Pool.sol\":11946:11950  this */\n      address\n        /* \"contracts/Pool/Pool.sol\":11930:11952  _rOwned[address(this)] */\n      0xffffffffffffffffffffffffffffffffffffffff\n      and\n      0xffffffffffffffffffffffffffffffffffffffff\n      and\n      dup2\n      mstore\n      0x20\n      add\n      swap1\n      dup2\n      mstore\n      0x20\n      add\n      0x00\n      keccak256\n        /* \"contracts/Pool/Pool.sol\":11930:11988  _rOwned[address(this)] = _rOwned[address(this)].add(rTeam) */\n      dup2\n      swap1\n      sstore\n      pop\n        /* \"contracts/Pool/Pool.sol\":11829:11995  {... */\n      pop\n      pop\n        /* \"contracts/Pool/Pool.sol\":11787:11995  function _takeTeam(uint256 tTeam) private {... */\n      pop\n      jump\t// out\n        /* \"contracts/Pool/Pool.sol\":12001:12145  function _reflectFee(uint256 rFee, uint256 tFee) private {... */\n    tag_370:\n        /* \"contracts/Pool/Pool.sol\":12078:12095  _rTotal.sub(rFee) */\n      tag_400\n        /* \"contracts/Pool/Pool.sol\":12090:12094  rFee */\n      dup3\n        /* \"contracts/Pool/Pool.sol\":12078:12085  _rTotal */\n      sload(0x06)\n        /* \"contracts/Pool/Pool.sol\":12078:12089  _rTotal.sub */\n      tag_364\n      swap1\n        /* \"contracts/Pool/Pool.sol\":12078:12095  _rTotal.sub(rFee) */\n      swap2\n      swap1\n      0xffffffff\n      and\n      jump\t// in\n    tag_400:\n        /* \"contracts/Pool/Pool.sol\":12068:12075  _rTotal */\n      0x06\n        /* \"contracts/Pool/Pool.sol\":12068:12095  _rTotal = _rTotal.sub(rFee) */\n      dup2\n      swap1\n      sstore\n      pop\n        /* \"contracts/Pool/Pool.sol\":12118:12138  _tFeeTotal.add(tFee) */\n      tag_401\n        /* \"contracts/Pool/Pool.sol\":12133:12137  tFee */\n      dup2\n        /* \"contracts/Pool/Pool.sol\":12118:12128  _tFeeTotal */\n      sload(0x07)\n        /* \"contracts/Pool/Pool.sol\":12118:12132  _tFeeTotal.add */\n      tag_366\n      swap1\n        /* \"contracts/Pool/Pool.sol\":12118:12138  _tFeeTotal.add(tFee) */\n      swap2\n      swap1\n      0xffffffff\n      and\n      jump\t// in\n    tag_401:\n        /* \"contracts/Pool/Pool.sol\":12105:12115  _tFeeTotal */\n      0x07\n        /* \"contracts/Pool/Pool.sol\":12105:12138  _tFeeTotal = _tFeeTotal.add(tFee) */\n      dup2\n      swap1\n      sstore\n      pop\n        /* \"contracts/Pool/Pool.sol\":12001:12145  function _reflectFee(uint256 rFee, uint256 tFee) private {... */\n      pop\n      pop\n      jump\t// out\n        /* \"contracts/Pool/Pool.sol\":12660:13006  function _getTValues(uint256 tAmount, uint256 taxFee, uint256 TeamFee) private pure returns (uint256, uint256, uint256) {... */\n    tag_382:\n        /* \"contracts/Pool/Pool.sol\":12753:12760  uint256 */\n      0x00\n        /* \"contracts/Pool/Pool.sol\":12762:12769  uint256 */\n      dup1\n        /* \"contracts/Pool/Pool.sol\":12771:12778  uint256 */\n      0x00\n        /* \"contracts/Pool/Pool.sol\":12790:12802  uint256 tFee */\n      dup1\n        /* \"contracts/Pool/Pool.sol\":12805:12833  tAmount.mul(taxFee).div(100) */\n      tag_403\n        /* \"contracts/Pool/Pool.sol\":12829:12832  100 */\n      0x64\n        /* \"contracts/Pool/Pool.sol\":12805:12824  tAmount.mul(taxFee) */\n      tag_404\n        /* \"contracts/Pool/Pool.sol\":12817:12823  taxFee */\n      dup9\n        /* \"contracts/Pool/Pool.sol\":12805:12812  tAmount */\n      dup11\n        /* \"contracts/Pool/Pool.sol\":12805:12816  tAmount.mul */\n      tag_397\n      swap1\n        /* \"contracts/Pool/Pool.sol\":12805:12824  tAmount.mul(taxFee) */\n      swap2\n      swap1\n      0xffffffff\n      and\n      jump\t// in\n    tag_404:\n        /* \"contracts/Pool/Pool.sol\":12805:12828  tAmount.mul(taxFee).div */\n      tag_317\n      swap1\n        /* \"contracts/Pool/Pool.sol\":12805:12833  tAmount.mul(taxFee).div(100) */\n      swap2\n      swap1\n      0xffffffff\n      and\n      jump\t// in\n    tag_403:\n        /* \"contracts/Pool/Pool.sol\":12790:12833  uint256 tFee = tAmount.mul(taxFee).div(100) */\n      swap1\n      pop\n        /* \"contracts/Pool/Pool.sol\":12843:12856  uint256 tTeam */\n      0x00\n        /* \"contracts/Pool/Pool.sol\":12859:12888  tAmount.mul(TeamFee).div(100) */\n      tag_405\n        /* \"contracts/Pool/Pool.sol\":12884:12887  100 */\n      0x64\n        /* \"contracts/Pool/Pool.sol\":12859:12879  tAmount.mul(TeamFee) */\n      tag_406\n        /* \"contracts/Pool/Pool.sol\":12871:12878  TeamFee */\n      dup9\n        /* \"contracts/Pool/Pool.sol\":12859:12866  tAmount */\n      dup12\n        /* \"contracts/Pool/Pool.sol\":12859:12870  tAmount.mul */\n      tag_397\n      swap1\n        /* \"contracts/Pool/Pool.sol\":12859:12879  tAmount.mul(TeamFee) */\n      swap2\n      swap1\n      0xffffffff\n      and\n      jump\t// in\n    tag_406:\n        /* \"contracts/Pool/Pool.sol\":12859:12883  tAmount.mul(TeamFee).div */\n      tag_317\n      swap1\n        /* \"contracts/Pool/Pool.sol\":12859:12888  tAmount.mul(TeamFee).div(100) */\n      swap2\n      swap1\n      0xffffffff\n      and\n      jump\t// in\n    tag_405:\n        /* \"contracts/Pool/Pool.sol\":12843:12888  uint256 tTeam = tAmount.mul(TeamFee).div(100) */\n      swap1\n      pop\n        /* \"contracts/Pool/Pool.sol\":12898:12921  uint256 tTransferAmount */\n      0x00\n        /* \"contracts/Pool/Pool.sol\":12924:12952  tAmount.sub(tFee).sub(tTeam) */\n      tag_407\n        /* \"contracts/Pool/Pool.sol\":12946:12951  tTeam */\n      dup3\n        /* \"contracts/Pool/Pool.sol\":12924:12941  tAmount.sub(tFee) */\n      tag_408\n        /* \"contracts/Pool/Pool.sol\":12936:12940  tFee */\n      dup6\n        /* \"contracts/Pool/Pool.sol\":12924:12931  tAmount */\n      dup13\n        /* \"contracts/Pool/Pool.sol\":12924:12935  tAmount.sub */\n      tag_364\n      swap1\n        /* \"contracts/Pool/Pool.sol\":12924:12941  tAmount.sub(tFee) */\n      swap2\n      swap1\n      0xffffffff\n      and\n      jump\t// in\n    tag_408:\n        /* \"contracts/Pool/Pool.sol\":12924:12945  tAmount.sub(tFee).sub */\n      tag_364\n      swap1\n        /* \"contracts/Pool/Pool.sol\":12924:12952  tAmount.sub(tFee).sub(tTeam) */\n      swap2\n      swap1\n      0xffffffff\n      and\n      jump\t// in\n    tag_407:\n        /* \"contracts/Pool/Pool.sol\":12898:12952  uint256 tTransferAmount = tAmount.sub(tFee).sub(tTeam) */\n      swap1\n      pop\n        /* \"contracts/Pool/Pool.sol\":12970:12985  tTransferAmount */\n      dup1\n        /* \"contracts/Pool/Pool.sol\":12987:12991  tFee */\n      dup4\n        /* \"contracts/Pool/Pool.sol\":12993:12998  tTeam */\n      dup4\n        /* \"contracts/Pool/Pool.sol\":12962:12999  return (tTransferAmount, tFee, tTeam) */\n      swap6\n      pop\n      swap6\n      pop\n      swap6\n      pop\n      pop\n      pop\n      pop\n        /* \"contracts/Pool/Pool.sol\":12660:13006  function _getTValues(uint256 tAmount, uint256 taxFee, uint256 TeamFee) private pure returns (uint256, uint256, uint256) {... */\n      swap4\n      pop\n      swap4\n      pop\n      swap4\n      swap1\n      pop\n      jump\t// out\n        /* \"contracts/Pool/Pool.sol\":13012:13415  function _getRValues(uint256 tAmount, uint256 tFee, uint256 tTeam, uint256 currentRate) private pure returns (uint256, uint256, uint256) {... */\n    tag_385:\n        /* \"contracts/Pool/Pool.sol\":13122:13129  uint256 */\n      0x00\n        /* \"contracts/Pool/Pool.sol\":13131:13138  uint256 */\n      dup1\n        /* \"contracts/Pool/Pool.sol\":13140:13147  uint256 */\n      0x00\n        /* \"contracts/Pool/Pool.sol\":13159:13174  uint256 rAmount */\n      dup1\n        /* \"contracts/Pool/Pool.sol\":13177:13201  tAmount.mul(currentRate) */\n      tag_410\n        /* \"contracts/Pool/Pool.sol\":13189:13200  currentRate */\n      dup6\n        /* \"contracts/Pool/Pool.sol\":13177:13184  tAmount */\n      dup10\n        /* \"contracts/Pool/Pool.sol\":13177:13188  tAmount.mul */\n      tag_397\n      swap1\n        /* \"contracts/Pool/Pool.sol\":13177:13201  tAmount.mul(currentRate) */\n      swap2\n      swap1\n      0xffffffff\n      and\n      jump\t// in\n    tag_410:\n        /* \"contracts/Pool/Pool.sol\":13159:13201  uint256 rAmount = tAmount.mul(currentRate) */\n      swap1\n      pop\n        /* \"contracts/Pool/Pool.sol\":13211:13223  uint256 rFee */\n      0x00\n        /* \"contracts/Pool/Pool.sol\":13226:13247  tFee.mul(currentRate) */\n      tag_411\n        /* \"contracts/Pool/Pool.sol\":13235:13246  currentRate */\n      dup7\n        /* \"contracts/Pool/Pool.sol\":13226:13230  tFee */\n      dup10\n        /* \"contracts/Pool/Pool.sol\":13226:13234  tFee.mul */\n      tag_397\n      swap1\n        /* \"contracts/Pool/Pool.sol\":13226:13247  tFee.mul(currentRate) */\n      swap2\n      swap1\n      0xffffffff\n      and\n      jump\t// in\n    tag_411:\n        /* \"contracts/Pool/Pool.sol\":13211:13247  uint256 rFee = tFee.mul(currentRate) */\n      swap1\n      pop\n        /* \"contracts/Pool/Pool.sol\":13257:13270  uint256 rTeam */\n      0x00\n        /* \"contracts/Pool/Pool.sol\":13273:13295  tTeam.mul(currentRate) */\n      tag_412\n        /* \"contracts/Pool/Pool.sol\":13283:13294  currentRate */\n      dup8\n        /* \"contracts/Pool/Pool.sol\":13273:13278  tTeam */\n      dup10\n        /* \"contracts/Pool/Pool.sol\":13273:13282  tTeam.mul */\n      tag_397\n      swap1\n        /* \"contracts/Pool/Pool.sol\":13273:13295  tTeam.mul(currentRate) */\n      swap2\n      swap1\n      0xffffffff\n      and\n      jump\t// in\n    tag_412:\n        /* \"contracts/Pool/Pool.sol\":13257:13295  uint256 rTeam = tTeam.mul(currentRate) */\n      swap1\n      pop\n        /* \"contracts/Pool/Pool.sol\":13305:13328  uint256 rTransferAmount */\n      0x00\n        /* \"contracts/Pool/Pool.sol\":13331:13359  rAmount.sub(rFee).sub(rTeam) */\n      tag_413\n        /* \"contracts/Pool/Pool.sol\":13353:13358  rTeam */\n      dup3\n        /* \"contracts/Pool/Pool.sol\":13331:13348  rAmount.sub(rFee) */\n      tag_414\n        /* \"contracts/Pool/Pool.sol\":13343:13347  rFee */\n      dup6\n        /* \"contracts/Pool/Pool.sol\":13331:13338  rAmount */\n      dup8\n        /* \"contracts/Pool/Pool.sol\":13331:13342  rAmount.sub */\n      tag_364\n      swap1\n        /* \"contracts/Pool/Pool.sol\":13331:13348  rAmount.sub(rFee) */\n      swap2\n      swap1\n      0xffffffff\n      and\n      jump\t// in\n    tag_414:\n        /* \"contracts/Pool/Pool.sol\":13331:13352  rAmount.sub(rFee).sub */\n      tag_364\n      swap1\n        /* \"contracts/Pool/Pool.sol\":13331:13359  rAmount.sub(rFee).sub(rTeam) */\n      swap2\n      swap1\n      0xffffffff\n      and\n      jump\t// in\n    tag_413:\n        /* \"contracts/Pool/Pool.sol\":13305:13359  uint256 rTransferAmount = rAmount.sub(rFee).sub(rTeam) */\n      swap1\n      pop\n        /* \"contracts/Pool/Pool.sol\":13377:13384  rAmount */\n      dup4\n        /* \"contracts/Pool/Pool.sol\":13386:13401  rTransferAmount */\n      dup2\n        /* \"contracts/Pool/Pool.sol\":13403:13407  rFee */\n      dup5\n        /* \"contracts/Pool/Pool.sol\":13369:13408  return (rAmount, rTransferAmount, rFee) */\n      swap7\n      pop\n      swap7\n      pop\n      swap7\n      pop\n      pop\n      pop\n      pop\n      pop\n        /* \"contracts/Pool/Pool.sol\":13012:13415  function _getRValues(uint256 tAmount, uint256 tFee, uint256 tTeam, uint256 currentRate) private pure returns (uint256, uint256, uint256) {... */\n      swap5\n      pop\n      swap5\n      pop\n      swap5\n      swap2\n      pop\n      pop\n      jump\t// out\n        /* \"contracts/Pool/Pool.sol\":2359:2598  function mul(uint256 a, uint256 b) internal pure returns (uint256) {... */\n    tag_397:\n        /* \"contracts/Pool/Pool.sol\":2417:2424  uint256 */\n      0x00\n        /* \"contracts/Pool/Pool.sol\":2445:2446  0 */\n      dup1\n        /* \"contracts/Pool/Pool.sol\":2440:2441  a */\n      dup4\n        /* \"contracts/Pool/Pool.sol\":2440:2446  a == 0 */\n      sub\n        /* \"contracts/Pool/Pool.sol\":2436:2481  if (a == 0) {... */\n      tag_416\n      jumpi\n        /* \"contracts/Pool/Pool.sol\":2469:2470  0 */\n      0x00\n        /* \"contracts/Pool/Pool.sol\":2462:2470  return 0 */\n      swap1\n      pop\n      jump(tag_415)\n        /* \"contracts/Pool/Pool.sol\":2436:2481  if (a == 0) {... */\n    tag_416:\n        /* \"contracts/Pool/Pool.sol\":2490:2499  uint256 c */\n      0x00\n        /* \"contracts/Pool/Pool.sol\":2506:2507  b */\n      dup3\n        /* \"contracts/Pool/Pool.sol\":2502:2503  a */\n      dup5\n        /* \"contracts/Pool/Pool.sol\":2502:2507  a * b */\n      tag_417\n      swap2\n      swap1\n      tag_418\n      jump\t// in\n    tag_417:\n        /* \"contracts/Pool/Pool.sol\":2490:2507  uint256 c = a * b */\n      swap1\n      pop\n        /* \"contracts/Pool/Pool.sol\":2534:2535  b */\n      dup3\n        /* \"contracts/Pool/Pool.sol\":2529:2530  a */\n      dup5\n        /* \"contracts/Pool/Pool.sol\":2525:2526  c */\n      dup3\n        /* \"contracts/Pool/Pool.sol\":2525:2530  c / a */\n      tag_419\n      swap2\n      swap1\n      tag_376\n      jump\t// in\n    tag_419:\n        /* \"contracts/Pool/Pool.sol\":2525:2535  c / a == b */\n      eq\n        /* \"contracts/Pool/Pool.sol\":2517:2573  require(c / a == b, \"SafeMath: multiplication overflow\") */\n      tag_420\n      jumpi\n      mload(0x40)\n      0x08c379a000000000000000000000000000000000000000000000000000000000\n      dup2\n      mstore\n      0x04\n      add\n      tag_421\n      swap1\n      tag_422\n      jump\t// in\n    tag_421:\n      mload(0x40)\n      dup1\n      swap2\n      sub\n      swap1\n      revert\n    tag_420:\n        /* \"contracts/Pool/Pool.sol\":2590:2591  c */\n      dup1\n        /* \"contracts/Pool/Pool.sol\":2583:2591  return c */\n      swap2\n      pop\n      pop\n        /* \"contracts/Pool/Pool.sol\":2359:2598  function mul(uint256 a, uint256 b) internal pure returns (uint256) {... */\n    tag_415:\n      swap3\n      swap2\n      pop\n      pop\n      jump\t// out\n        /* \"#utility.yul\":7:106   */\n    tag_423:\n        /* \"#utility.yul\":59:65   */\n      0x00\n        /* \"#utility.yul\":93:98   */\n      dup2\n        /* \"#utility.yul\":87:99   */\n      mload\n        /* \"#utility.yul\":77:99   */\n      swap1\n      pop\n        /* \"#utility.yul\":7:106   */\n      swap2\n      swap1\n      pop\n      jump\t// out\n        /* \"#utility.yul\":112:281   */\n    tag_424:\n        /* \"#utility.yul\":196:207   */\n      0x00\n        /* \"#utility.yul\":230:236   */\n      dup3\n        /* \"#utility.yul\":225:228   */\n      dup3\n        /* \"#utility.yul\":218:237   */\n      mstore\n        /* \"#utility.yul\":270:274   */\n      0x20\n        /* \"#utility.yul\":265:268   */\n      dup3\n        /* \"#utility.yul\":261:275   */\n      add\n        /* \"#utility.yul\":246:275   */\n      swap1\n      pop\n        /* \"#utility.yul\":112:281   */\n      swap3\n      swap2\n      pop\n      pop\n      jump\t// out\n        /* \"#utility.yul\":287:594   */\n    tag_425:\n        /* \"#utility.yul\":355:356   */\n      0x00\n        /* \"#utility.yul\":365:478   */\n    tag_502:\n        /* \"#utility.yul\":379:385   */\n      dup4\n        /* \"#utility.yul\":376:377   */\n      dup2\n        /* \"#utility.yul\":373:386   */\n      lt\n        /* \"#utility.yul\":365:478   */\n      iszero\n      tag_504\n      jumpi\n        /* \"#utility.yul\":464:465   */\n      dup1\n        /* \"#utility.yul\":459:462   */\n      dup3\n        /* \"#utility.yul\":455:466   */\n      add\n        /* \"#utility.yul\":449:467   */\n      mload\n        /* \"#utility.yul\":445:446   */\n      dup2\n        /* \"#utility.yul\":440:443   */\n      dup5\n        /* \"#utility.yul\":436:447   */\n      add\n        /* \"#utility.yul\":429:468   */\n      mstore\n        /* \"#utility.yul\":401:403   */\n      0x20\n        /* \"#utility.yul\":398:399   */\n      dup2\n        /* \"#utility.yul\":394:404   */\n      add\n        /* \"#utility.yul\":389:404   */\n      swap1\n      pop\n        /* \"#utility.yul\":365:478   */\n      jump(tag_502)\n    tag_504:\n        /* \"#utility.yul\":496:502   */\n      dup4\n        /* \"#utility.yul\":493:494   */\n      dup2\n        /* \"#utility.yul\":490:503   */\n      gt\n        /* \"#utility.yul\":487:588   */\n      iszero\n      tag_505\n      jumpi\n        /* \"#utility.yul\":576:577   */\n      0x00\n        /* \"#utility.yul\":567:573   */\n      dup5\n        /* \"#utility.yul\":562:565   */\n      dup5\n        /* \"#utility.yul\":558:574   */\n      add\n        /* \"#utility.yul\":551:578   */\n      mstore\n        /* \"#utility.yul\":487:588   */\n    tag_505:\n        /* \"#utility.yul\":336:594   */\n      pop\n        /* \"#utility.yul\":287:594   */\n      pop\n      pop\n      pop\n      jump\t// out\n        /* \"#utility.yul\":600:702   */\n    tag_426:\n        /* \"#utility.yul\":641:647   */\n      0x00\n        /* \"#utility.yul\":692:694   */\n      0x1f\n        /* \"#utility.yul\":688:695   */\n      not\n        /* \"#utility.yul\":683:685   */\n      0x1f\n        /* \"#utility.yul\":676:681   */\n      dup4\n        /* \"#utility.yul\":672:686   */\n      add\n        /* \"#utility.yul\":668:696   */\n      and\n        /* \"#utility.yul\":658:696   */\n      swap1\n      pop\n        /* \"#utility.yul\":600:702   */\n      swap2\n      swap1\n      pop\n      jump\t// out\n        /* \"#utility.yul\":708:1072   */\n    tag_427:\n        /* \"#utility.yul\":796:799   */\n      0x00\n        /* \"#utility.yul\":824:863   */\n      tag_508\n        /* \"#utility.yul\":857:862   */\n      dup3\n        /* \"#utility.yul\":824:863   */\n      tag_423\n      jump\t// in\n    tag_508:\n        /* \"#utility.yul\":879:950   */\n      tag_509\n        /* \"#utility.yul\":943:949   */\n      dup2\n        /* \"#utility.yul\":938:941   */\n      dup6\n        /* \"#utility.yul\":879:950   */\n      tag_424\n      jump\t// in\n    tag_509:\n        /* \"#utility.yul\":872:950   */\n      swap4\n      pop\n        /* \"#utility.yul\":959:1011   */\n      tag_510\n        /* \"#utility.yul\":1004:1010   */\n      dup2\n        /* \"#utility.yul\":999:1002   */\n      dup6\n        /* \"#utility.yul\":992:996   */\n      0x20\n        /* \"#utility.yul\":985:990   */\n      dup7\n        /* \"#utility.yul\":981:997   */\n      add\n        /* \"#utility.yul\":959:1011   */\n      tag_425\n      jump\t// in\n    tag_510:\n        /* \"#utility.yul\":1036:1065   */\n      tag_511\n        /* \"#utility.yul\":1058:1064   */\n      dup2\n        /* \"#utility.yul\":1036:1065   */\n      tag_426\n      jump\t// in\n    tag_511:\n        /* \"#utility.yul\":1031:1034   */\n      dup5\n        /* \"#utility.yul\":1027:1066   */\n      add\n        /* \"#utility.yul\":1020:1066   */\n      swap2\n      pop\n        /* \"#utility.yul\":800:1072   */\n      pop\n        /* \"#utility.yul\":708:1072   */\n      swap3\n      swap2\n      pop\n      pop\n      jump\t// out\n        /* \"#utility.yul\":1078:1391   */\n    tag_35:\n        /* \"#utility.yul\":1191:1195   */\n      0x00\n        /* \"#utility.yul\":1229:1231   */\n      0x20\n        /* \"#utility.yul\":1218:1227   */\n      dup3\n        /* \"#utility.yul\":1214:1232   */\n      add\n        /* \"#utility.yul\":1206:1232   */\n      swap1\n      pop\n        /* \"#utility.yul\":1278:1287   */\n      dup2\n        /* \"#utility.yul\":1272:1276   */\n      dup2\n        /* \"#utility.yul\":1268:1288   */\n      sub\n        /* \"#utility.yul\":1264:1265   */\n      0x00\n        /* \"#utility.yul\":1253:1262   */\n      dup4\n        /* \"#utility.yul\":1249:1266   */\n      add\n        /* \"#utility.yul\":1242:1289   */\n      mstore\n        /* \"#utility.yul\":1306:1384   */\n      tag_513\n        /* \"#utility.yul\":1379:1383   */\n      dup2\n        /* \"#utility.yul\":1370:1376   */\n      dup5\n        /* \"#utility.yul\":1306:1384   */\n      tag_427\n      jump\t// in\n    tag_513:\n        /* \"#utility.yul\":1298:1384   */\n      swap1\n      pop\n        /* \"#utility.yul\":1078:1391   */\n      swap3\n      swap2\n      pop\n      pop\n      jump\t// out\n        /* \"#utility.yul\":1478:1595   */\n    tag_429:\n        /* \"#utility.yul\":1587:1588   */\n      0x00\n        /* \"#utility.yul\":1584:1585   */\n      dup1\n        /* \"#utility.yul\":1577:1589   */\n      revert\n        /* \"#utility.yul\":1601:1718   */\n    tag_430:\n        /* \"#utility.yul\":1710:1711   */\n      0x00\n        /* \"#utility.yul\":1707:1708   */\n      dup1\n        /* \"#utility.yul\":1700:1712   */\n      revert\n        /* \"#utility.yul\":1724:1850   */\n    tag_431:\n        /* \"#utility.yul\":1761:1768   */\n      0x00\n        /* \"#utility.yul\":1801:1843   */\n      0xffffffffffffffffffffffffffffffffffffffff\n        /* \"#utility.yul\":1794:1799   */\n      dup3\n        /* \"#utility.yul\":1790:1844   */\n      and\n        /* \"#utility.yul\":1779:1844   */\n      swap1\n      pop\n        /* \"#utility.yul\":1724:1850   */\n      swap2\n      swap1\n      pop\n      jump\t// out\n        /* \"#utility.yul\":1856:1952   */\n    tag_432:\n        /* \"#utility.yul\":1893:1900   */\n      0x00\n        /* \"#utility.yul\":1922:1946   */\n      tag_519\n        /* \"#utility.yul\":1940:1945   */\n      dup3\n        /* \"#utility.yul\":1922:1946   */\n      tag_431\n      jump\t// in\n    tag_519:\n        /* \"#utility.yul\":1911:1946   */\n      swap1\n      pop\n        /* \"#utility.yul\":1856:1952   */\n      swap2\n      swap1\n      pop\n      jump\t// out\n        /* \"#utility.yul\":1958:2080   */\n    tag_433:\n        /* \"#utility.yul\":2031:2055   */\n      tag_521\n        /* \"#utility.yul\":2049:2054   */\n      dup2\n        /* \"#utility.yul\":2031:2055   */\n      tag_432\n      jump\t// in\n    tag_521:\n        /* \"#utility.yul\":2024:2029   */\n      dup2\n        /* \"#utility.yul\":2021:2056   */\n      eq\n        /* \"#utility.yul\":2011:2074   */\n      tag_522\n      jumpi\n        /* \"#utility.yul\":2070:2071   */\n      0x00\n        /* \"#utility.yul\":2067:2068   */\n      dup1\n        /* \"#utility.yul\":2060:2072   */\n      revert\n        /* \"#utility.yul\":2011:2074   */\n    tag_522:\n        /* \"#utility.yul\":1958:2080   */\n      pop\n      jump\t// out\n        /* \"#utility.yul\":2086:2225   */\n    tag_434:\n        /* \"#utility.yul\":2132:2137   */\n      0x00\n        /* \"#utility.yul\":2170:2176   */\n      dup2\n        /* \"#utility.yul\":2157:2177   */\n      calldataload\n        /* \"#utility.yul\":2148:2177   */\n      swap1\n      pop\n        /* \"#utility.yul\":2186:2219   */\n      tag_524\n        /* \"#utility.yul\":2213:2218   */\n      dup2\n        /* \"#utility.yul\":2186:2219   */\n      tag_433\n      jump\t// in\n    tag_524:\n        /* \"#utility.yul\":2086:2225   */\n      swap3\n      swap2\n      pop\n      pop\n      jump\t// out\n        /* \"#utility.yul\":2231:2308   */\n    tag_435:\n        /* \"#utility.yul\":2268:2275   */\n      0x00\n        /* \"#utility.yul\":2297:2302   */\n      dup2\n        /* \"#utility.yul\":2286:2302   */\n      swap1\n      pop\n        /* \"#utility.yul\":2231:2308   */\n      swap2\n      swap1\n      pop\n      jump\t// out\n        /* \"#utility.yul\":2314:2436   */\n    tag_436:\n        /* \"#utility.yul\":2387:2411   */\n      tag_527\n        /* \"#utility.yul\":2405:2410   */\n      dup2\n        /* \"#utility.yul\":2387:2411   */\n      tag_435\n      jump\t// in\n    tag_527:\n        /* \"#utility.yul\":2380:2385   */\n      dup2\n        /* \"#utility.yul\":2377:2412   */\n      eq\n        /* \"#utility.yul\":2367:2430   */\n      tag_528\n      jumpi\n        /* \"#utility.yul\":2426:2427   */\n      0x00\n        /* \"#utility.yul\":2423:2424   */\n      dup1\n        /* \"#utility.yul\":2416:2428   */\n      revert\n        /* \"#utility.yul\":2367:2430   */\n    tag_528:\n        /* \"#utility.yul\":2314:2436   */\n      pop\n      jump\t// out\n        /* \"#utility.yul\":2442:2581   */\n    tag_437:\n        /* \"#utility.yul\":2488:2493   */\n      0x00\n        /* \"#utility.yul\":2526:2532   */\n      dup2\n        /* \"#utility.yul\":2513:2533   */\n      calldataload\n        /* \"#utility.yul\":2504:2533   */\n      swap1\n      pop\n        /* \"#utility.yul\":2542:2575   */\n      tag_530\n        /* \"#utility.yul\":2569:2574   */\n      dup2\n        /* \"#utility.yul\":2542:2575   */\n      tag_436\n      jump\t// in\n    tag_530:\n        /* \"#utility.yul\":2442:2581   */\n      swap3\n      swap2\n      pop\n      pop\n      jump\t// out\n        /* \"#utility.yul\":2587:3061   */\n    tag_39:\n        /* \"#utility.yul\":2655:2661   */\n      0x00\n        /* \"#utility.yul\":2663:2669   */\n      dup1\n        /* \"#utility.yul\":2712:2714   */\n      0x40\n        /* \"#utility.yul\":2700:2709   */\n      dup4\n        /* \"#utility.yul\":2691:2698   */\n      dup6\n        /* \"#utility.yul\":2687:2710   */\n      sub\n        /* \"#utility.yul\":2683:2715   */\n      slt\n        /* \"#utility.yul\":2680:2799   */\n      iszero\n      tag_532\n      jumpi\n        /* \"#utility.yul\":2718:2797   */\n      tag_533\n      tag_429\n      jump\t// in\n    tag_533:\n        /* \"#utility.yul\":2680:2799   */\n    tag_532:\n        /* \"#utility.yul\":2838:2839   */\n      0x00\n        /* \"#utility.yul\":2863:2916   */\n      tag_534\n        /* \"#utility.yul\":2908:2915   */\n      dup6\n        /* \"#utility.yul\":2899:2905   */\n      dup3\n        /* \"#utility.yul\":2888:2897   */\n      dup7\n        /* \"#utility.yul\":2884:2906   */\n      add\n        /* \"#utility.yul\":2863:2916   */\n      tag_434\n      jump\t// in\n    tag_534:\n        /* \"#utility.yul\":2853:2916   */\n      swap3\n      pop\n        /* \"#utility.yul\":2809:2926   */\n      pop\n        /* \"#utility.yul\":2965:2967   */\n      0x20\n        /* \"#utility.yul\":2991:3044   */\n      tag_535\n        /* \"#utility.yul\":3036:3043   */\n      dup6\n        /* \"#utility.yul\":3027:3033   */\n      dup3\n        /* \"#utility.yul\":3016:3025   */\n      dup7\n        /* \"#utility.yul\":3012:3034   */\n      add\n        /* \"#utility.yul\":2991:3044   */\n      tag_437\n      jump\t// in\n    tag_535:\n        /* \"#utility.yul\":2981:3044   */\n      swap2\n      pop\n        /* \"#utility.yul\":2936:3054   */\n      pop\n        /* \"#utility.yul\":2587:3061   */\n      swap3\n      pop\n      swap3\n      swap1\n      pop\n      jump\t// out\n        /* \"#utility.yul\":3067:3157   */\n    tag_438:\n        /* \"#utility.yul\":3101:3108   */\n      0x00\n        /* \"#utility.yul\":3144:3149   */\n      dup2\n        /* \"#utility.yul\":3137:3150   */\n      iszero\n        /* \"#utility.yul\":3130:3151   */\n      iszero\n        /* \"#utility.yul\":3119:3151   */\n      swap1\n      pop\n        /* \"#utility.yul\":3067:3157   */\n      swap2\n      swap1\n      pop\n      jump\t// out\n        /* \"#utility.yul\":3163:3272   */\n    tag_439:\n        /* \"#utility.yul\":3244:3265   */\n      tag_538\n        /* \"#utility.yul\":3259:3264   */\n      dup2\n        /* \"#utility.yul\":3244:3265   */\n      tag_438\n      jump\t// in\n    tag_538:\n        /* \"#utility.yul\":3239:3242   */\n      dup3\n        /* \"#utility.yul\":3232:3266   */\n      mstore\n        /* \"#utility.yul\":3163:3272   */\n      pop\n      pop\n      jump\t// out\n        /* \"#utility.yul\":3278:3488   */\n    tag_42:\n        /* \"#utility.yul\":3365:3369   */\n      0x00\n        /* \"#utility.yul\":3403:3405   */\n      0x20\n        /* \"#utility.yul\":3392:3401   */\n      dup3\n        /* \"#utility.yul\":3388:3406   */\n      add\n        /* \"#utility.yul\":3380:3406   */\n      swap1\n      pop\n        /* \"#utility.yul\":3416:3481   */\n      tag_540\n        /* \"#utility.yul\":3478:3479   */\n      0x00\n        /* \"#utility.yul\":3467:3476   */\n      dup4\n        /* \"#utility.yul\":3463:3480   */\n      add\n        /* \"#utility.yul\":3454:3460   */\n      dup5\n        /* \"#utility.yul\":3416:3481   */\n      tag_439\n      jump\t// in\n    tag_540:\n        /* \"#utility.yul\":3278:3488   */\n      swap3\n      swap2\n      pop\n      pop\n      jump\t// out\n        /* \"#utility.yul\":3494:3554   */\n    tag_440:\n        /* \"#utility.yul\":3522:3525   */\n      0x00\n        /* \"#utility.yul\":3543:3548   */\n      dup2\n        /* \"#utility.yul\":3536:3548   */\n      swap1\n      pop\n        /* \"#utility.yul\":3494:3554   */\n      swap2\n      swap1\n      pop\n      jump\t// out\n        /* \"#utility.yul\":3560:3702   */\n    tag_441:\n        /* \"#utility.yul\":3610:3619   */\n      0x00\n        /* \"#utility.yul\":3643:3696   */\n      tag_543\n        /* \"#utility.yul\":3661:3695   */\n      tag_544\n        /* \"#utility.yul\":3670:3694   */\n      tag_545\n        /* \"#utility.yul\":3688:3693   */\n      dup5\n        /* \"#utility.yul\":3670:3694   */\n      tag_431\n      jump\t// in\n    tag_545:\n        /* \"#utility.yul\":3661:3695   */\n      tag_440\n      jump\t// in\n    tag_544:\n        /* \"#utility.yul\":3643:3696   */\n      tag_431\n      jump\t// in\n    tag_543:\n        /* \"#utility.yul\":3630:3696   */\n      swap1\n      pop\n        /* \"#utility.yul\":3560:3702   */\n      swap2\n      swap1\n      pop\n      jump\t// out\n        /* \"#utility.yul\":3708:3834   */\n    tag_442:\n        /* \"#utility.yul\":3758:3767   */\n      0x00\n        /* \"#utility.yul\":3791:3828   */\n      tag_547\n        /* \"#utility.yul\":3822:3827   */\n      dup3\n        /* \"#utility.yul\":3791:3828   */\n      tag_441\n      jump\t// in\n    tag_547:\n        /* \"#utility.yul\":3778:3828   */\n      swap1\n      pop\n        /* \"#utility.yul\":3708:3834   */\n      swap2\n      swap1\n      pop\n      jump\t// out\n        /* \"#utility.yul\":3840:3992   */\n    tag_443:\n        /* \"#utility.yul\":3916:3925   */\n      0x00\n        /* \"#utility.yul\":3949:3986   */\n      tag_549\n        /* \"#utility.yul\":3980:3985   */\n      dup3\n        /* \"#utility.yul\":3949:3986   */\n      tag_442\n      jump\t// in\n    tag_549:\n        /* \"#utility.yul\":3936:3986   */\n      swap1\n      pop\n        /* \"#utility.yul\":3840:3992   */\n      swap2\n      swap1\n      pop\n      jump\t// out\n        /* \"#utility.yul\":3998:4181   */\n    tag_444:\n        /* \"#utility.yul\":4111:4174   */\n      tag_551\n        /* \"#utility.yul\":4168:4173   */\n      dup2\n        /* \"#utility.yul\":4111:4174   */\n      tag_443\n      jump\t// in\n    tag_551:\n        /* \"#utility.yul\":4106:4109   */\n      dup3\n        /* \"#utility.yul\":4099:4175   */\n      mstore\n        /* \"#utility.yul\":3998:4181   */\n      pop\n      pop\n      jump\t// out\n        /* \"#utility.yul\":4187:4461   */\n    tag_47:\n        /* \"#utility.yul\":4306:4310   */\n      0x00\n        /* \"#utility.yul\":4344:4346   */\n      0x20\n        /* \"#utility.yul\":4333:4342   */\n      dup3\n        /* \"#utility.yul\":4329:4347   */\n      add\n        /* \"#utility.yul\":4321:4347   */\n      swap1\n      pop\n        /* \"#utility.yul\":4357:4454   */\n      tag_553\n        /* \"#utility.yul\":4451:4452   */\n      0x00\n        /* \"#utility.yul\":4440:4449   */\n      dup4\n        /* \"#utility.yul\":4436:4453   */\n      add\n        /* \"#utility.yul\":4427:4433   */\n      dup5\n        /* \"#utility.yul\":4357:4454   */\n      tag_444\n      jump\t// in\n    tag_553:\n        /* \"#utility.yul\":4187:4461   */\n      swap3\n      swap2\n      pop\n      pop\n      jump\t// out\n        /* \"#utility.yul\":4467:4585   */\n    tag_445:\n        /* \"#utility.yul\":4554:4578   */\n      tag_555\n        /* \"#utility.yul\":4572:4577   */\n      dup2\n        /* \"#utility.yul\":4554:4578   */\n      tag_435\n      jump\t// in\n    tag_555:\n        /* \"#utility.yul\":4549:4552   */\n      dup3\n        /* \"#utility.yul\":4542:4579   */\n      mstore\n        /* \"#utility.yul\":4467:4585   */\n      pop\n      pop\n      jump\t// out\n        /* \"#utility.yul\":4591:4813   */\n    tag_52:\n        /* \"#utility.yul\":4684:4688   */\n      0x00\n        /* \"#utility.yul\":4722:4724   */\n      0x20\n        /* \"#utility.yul\":4711:4720   */\n      dup3\n        /* \"#utility.yul\":4707:4725   */\n      add\n        /* \"#utility.yul\":4699:4725   */\n      swap1\n      pop\n        /* \"#utility.yul\":4735:4806   */\n      tag_557\n        /* \"#utility.yul\":4803:4804   */\n      0x00\n        /* \"#utility.yul\":4792:4801   */\n      dup4\n        /* \"#utility.yul\":4788:4805   */\n      add\n        /* \"#utility.yul\":4779:4785   */\n      dup5\n        /* \"#utility.yul\":4735:4806   */\n      tag_445\n      jump\t// in\n    tag_557:\n        /* \"#utility.yul\":4591:4813   */\n      swap3\n      swap2\n      pop\n      pop\n      jump\t// out\n        /* \"#utility.yul\":4819:5438   */\n    tag_56:\n        /* \"#utility.yul\":4896:4902   */\n      0x00\n        /* \"#utility.yul\":4904:4910   */\n      dup1\n        /* \"#utility.yul\":4912:4918   */\n      0x00\n        /* \"#utility.yul\":4961:4963   */\n      0x60\n        /* \"#utility.yul\":4949:4958   */\n      dup5\n        /* \"#utility.yul\":4940:4947   */\n      dup7\n        /* \"#utility.yul\":4936:4959   */\n      sub\n        /* \"#utility.yul\":4932:4964   */\n      slt\n        /* \"#utility.yul\":4929:5048   */\n      iszero\n      tag_559\n      jumpi\n        /* \"#utility.yul\":4967:5046   */\n      tag_560\n      tag_429\n      jump\t// in\n    tag_560:\n        /* \"#utility.yul\":4929:5048   */\n    tag_559:\n        /* \"#utility.yul\":5087:5088   */\n      0x00\n        /* \"#utility.yul\":5112:5165   */\n      tag_561\n        /* \"#utility.yul\":5157:5164   */\n      dup7\n        /* \"#utility.yul\":5148:5154   */\n      dup3\n        /* \"#utility.yul\":5137:5146   */\n      dup8\n        /* \"#utility.yul\":5133:5155   */\n      add\n        /* \"#utility.yul\":5112:5165   */\n      tag_434\n      jump\t// in\n    tag_561:\n        /* \"#utility.yul\":5102:5165   */\n      swap4\n      pop\n        /* \"#utility.yul\":5058:5175   */\n      pop\n        /* \"#utility.yul\":5214:5216   */\n      0x20\n        /* \"#utility.yul\":5240:5293   */\n      tag_562\n        /* \"#utility.yul\":5285:5292   */\n      dup7\n        /* \"#utility.yul\":5276:5282   */\n      dup3\n        /* \"#utility.yul\":5265:5274   */\n      dup8\n        /* \"#utility.yul\":5261:5283   */\n      add\n        /* \"#utility.yul\":5240:5293   */\n      tag_434\n      jump\t// in\n    tag_562:\n        /* \"#utility.yul\":5230:5293   */\n      swap3\n      pop\n        /* \"#utility.yul\":5185:5303   */\n      pop\n        /* \"#utility.yul\":5342:5344   */\n      0x40\n        /* \"#utility.yul\":5368:5421   */\n      tag_563\n        /* \"#utility.yul\":5413:5420   */\n      dup7\n        /* \"#utility.yul\":5404:5410   */\n      dup3\n        /* \"#utility.yul\":5393:5402   */\n      dup8\n        /* \"#utility.yul\":5389:5411   */\n      add\n        /* \"#utility.yul\":5368:5421   */\n      tag_437\n      jump\t// in\n    tag_563:\n        /* \"#utility.yul\":5358:5421   */\n      swap2\n      pop\n        /* \"#utility.yul\":5313:5431   */\n      pop\n        /* \"#utility.yul\":4819:5438   */\n      swap3\n      pop\n      swap3\n      pop\n      swap3\n      jump\t// out\n        /* \"#utility.yul\":5444:5530   */\n    tag_446:\n        /* \"#utility.yul\":5479:5486   */\n      0x00\n        /* \"#utility.yul\":5519:5523   */\n      0xff\n        /* \"#utility.yul\":5512:5517   */\n      dup3\n        /* \"#utility.yul\":5508:5524   */\n      and\n        /* \"#utility.yul\":5497:5524   */\n      swap1\n      pop\n        /* \"#utility.yul\":5444:5530   */\n      swap2\n      swap1\n      pop\n      jump\t// out\n        /* \"#utility.yul\":5536:5648   */\n    tag_447:\n        /* \"#utility.yul\":5619:5641   */\n      tag_566\n        /* \"#utility.yul\":5635:5640   */\n      dup2\n        /* \"#utility.yul\":5619:5641   */\n      tag_446\n      jump\t// in\n    tag_566:\n        /* \"#utility.yul\":5614:5617   */\n      dup3\n        /* \"#utility.yul\":5607:5642   */\n      mstore\n        /* \"#utility.yul\":5536:5648   */\n      pop\n      pop\n      jump\t// out\n        /* \"#utility.yul\":5654:5868   */\n    tag_63:\n        /* \"#utility.yul\":5743:5747   */\n      0x00\n        /* \"#utility.yul\":5781:5783   */\n      0x20\n        /* \"#utility.yul\":5770:5779   */\n      dup3\n        /* \"#utility.yul\":5766:5784   */\n      add\n        /* \"#utility.yul\":5758:5784   */\n      swap1\n      pop\n        /* \"#utility.yul\":5794:5861   */\n      tag_568\n        /* \"#utility.yul\":5858:5859   */\n      0x00\n        /* \"#utility.yul\":5847:5856   */\n      dup4\n        /* \"#utility.yul\":5843:5860   */\n      add\n        /* \"#utility.yul\":5834:5840   */\n      dup5\n        /* \"#utility.yul\":5794:5861   */\n      tag_447\n      jump\t// in\n    tag_568:\n        /* \"#utility.yul\":5654:5868   */\n      swap3\n      swap2\n      pop\n      pop\n      jump\t// out\n        /* \"#utility.yul\":5874:5992   */\n    tag_448:\n        /* \"#utility.yul\":5961:5985   */\n      tag_570\n        /* \"#utility.yul\":5979:5984   */\n      dup2\n        /* \"#utility.yul\":5961:5985   */\n      tag_432\n      jump\t// in\n    tag_570:\n        /* \"#utility.yul\":5956:5959   */\n      dup3\n        /* \"#utility.yul\":5949:5986   */\n      mstore\n        /* \"#utility.yul\":5874:5992   */\n      pop\n      pop\n      jump\t// out\n        /* \"#utility.yul\":5998:6220   */\n    tag_68:\n        /* \"#utility.yul\":6091:6095   */\n      0x00\n        /* \"#utility.yul\":6129:6131   */\n      0x20\n        /* \"#utility.yul\":6118:6127   */\n      dup3\n        /* \"#utility.yul\":6114:6132   */\n      add\n        /* \"#utility.yul\":6106:6132   */\n      swap1\n      pop\n        /* \"#utility.yul\":6142:6213   */\n      tag_572\n        /* \"#utility.yul\":6210:6211   */\n      0x00\n        /* \"#utility.yul\":6199:6208   */\n      dup4\n        /* \"#utility.yul\":6195:6212   */\n      add\n        /* \"#utility.yul\":6186:6192   */\n      dup5\n        /* \"#utility.yul\":6142:6213   */\n      tag_448\n      jump\t// in\n    tag_572:\n        /* \"#utility.yul\":5998:6220   */\n      swap3\n      swap2\n      pop\n      pop\n      jump\t// out\n        /* \"#utility.yul\":6226:6376   */\n    tag_449:\n        /* \"#utility.yul\":6300:6309   */\n      0x00\n        /* \"#utility.yul\":6333:6370   */\n      tag_574\n        /* \"#utility.yul\":6364:6369   */\n      dup3\n        /* \"#utility.yul\":6333:6370   */\n      tag_442\n      jump\t// in\n    tag_574:\n        /* \"#utility.yul\":6320:6370   */\n      swap1\n      pop\n        /* \"#utility.yul\":6226:6376   */\n      swap2\n      swap1\n      pop\n      jump\t// out\n        /* \"#utility.yul\":6382:6561   */\n    tag_450:\n        /* \"#utility.yul\":6493:6554   */\n      tag_576\n        /* \"#utility.yul\":6548:6553   */\n      dup2\n        /* \"#utility.yul\":6493:6554   */\n      tag_449\n      jump\t// in\n    tag_576:\n        /* \"#utility.yul\":6488:6491   */\n      dup3\n        /* \"#utility.yul\":6481:6555   */\n      mstore\n        /* \"#utility.yul\":6382:6561   */\n      pop\n      pop\n      jump\t// out\n        /* \"#utility.yul\":6567:6837   */\n    tag_73:\n        /* \"#utility.yul\":6684:6688   */\n      0x00\n        /* \"#utility.yul\":6722:6724   */\n      0x20\n        /* \"#utility.yul\":6711:6720   */\n      dup3\n        /* \"#utility.yul\":6707:6725   */\n      add\n        /* \"#utility.yul\":6699:6725   */\n      swap1\n      pop\n        /* \"#utility.yul\":6735:6830   */\n      tag_578\n        /* \"#utility.yul\":6827:6828   */\n      0x00\n        /* \"#utility.yul\":6816:6825   */\n      dup4\n        /* \"#utility.yul\":6812:6829   */\n      add\n        /* \"#utility.yul\":6803:6809   */\n      dup5\n        /* \"#utility.yul\":6735:6830   */\n      tag_450\n      jump\t// in\n    tag_578:\n        /* \"#utility.yul\":6567:6837   */\n      swap3\n      swap2\n      pop\n      pop\n      jump\t// out\n        /* \"#utility.yul\":6843:6959   */\n    tag_451:\n        /* \"#utility.yul\":6913:6934   */\n      tag_580\n        /* \"#utility.yul\":6928:6933   */\n      dup2\n        /* \"#utility.yul\":6913:6934   */\n      tag_438\n      jump\t// in\n    tag_580:\n        /* \"#utility.yul\":6906:6911   */\n      dup2\n        /* \"#utility.yul\":6903:6935   */\n      eq\n        /* \"#utility.yul\":6893:6953   */\n      tag_581\n      jumpi\n        /* \"#utility.yul\":6949:6950   */\n      0x00\n        /* \"#utility.yul\":6946:6947   */\n      dup1\n        /* \"#utility.yul\":6939:6951   */\n      revert\n        /* \"#utility.yul\":6893:6953   */\n    tag_581:\n        /* \"#utility.yul\":6843:6959   */\n      pop\n      jump\t// out\n        /* \"#utility.yul\":6965:7098   */\n    tag_452:\n        /* \"#utility.yul\":7008:7013   */\n      0x00\n        /* \"#utility.yul\":7046:7052   */\n      dup2\n        /* \"#utility.yul\":7033:7053   */\n      calldataload\n        /* \"#utility.yul\":7024:7053   */\n      swap1\n      pop\n        /* \"#utility.yul\":7062:7092   */\n      tag_583\n        /* \"#utility.yul\":7086:7091   */\n      dup2\n        /* \"#utility.yul\":7062:7092   */\n      tag_451\n      jump\t// in\n    tag_583:\n        /* \"#utility.yul\":6965:7098   */\n      swap3\n      swap2\n      pop\n      pop\n      jump\t// out\n        /* \"#utility.yul\":7104:7427   */\n    tag_77:\n        /* \"#utility.yul\":7160:7166   */\n      0x00\n        /* \"#utility.yul\":7209:7211   */\n      0x20\n        /* \"#utility.yul\":7197:7206   */\n      dup3\n        /* \"#utility.yul\":7188:7195   */\n      dup5\n        /* \"#utility.yul\":7184:7207   */\n      sub\n        /* \"#utility.yul\":7180:7212   */\n      slt\n        /* \"#utility.yul\":7177:7296   */\n      iszero\n      tag_585\n      jumpi\n        /* \"#utility.yul\":7215:7294   */\n      tag_586\n      tag_429\n      jump\t// in\n    tag_586:\n        /* \"#utility.yul\":7177:7296   */\n    tag_585:\n        /* \"#utility.yul\":7335:7336   */\n      0x00\n        /* \"#utility.yul\":7360:7410   */\n      tag_587\n        /* \"#utility.yul\":7402:7409   */\n      dup5\n        /* \"#utility.yul\":7393:7399   */\n      dup3\n        /* \"#utility.yul\":7382:7391   */\n      dup6\n        /* \"#utility.yul\":7378:7400   */\n      add\n        /* \"#utility.yul\":7360:7410   */\n      tag_452\n      jump\t// in\n    tag_587:\n        /* \"#utility.yul\":7350:7410   */\n      swap2\n      pop\n        /* \"#utility.yul\":7306:7420   */\n      pop\n        /* \"#utility.yul\":7104:7427   */\n      swap3\n      swap2\n      pop\n      pop\n      jump\t// out\n        /* \"#utility.yul\":7433:7762   */\n    tag_85:\n        /* \"#utility.yul\":7492:7498   */\n      0x00\n        /* \"#utility.yul\":7541:7543   */\n      0x20\n        /* \"#utility.yul\":7529:7538   */\n      dup3\n        /* \"#utility.yul\":7520:7527   */\n      dup5\n        /* \"#utility.yul\":7516:7539   */\n      sub\n        /* \"#utility.yul\":7512:7544   */\n      slt\n        /* \"#utility.yul\":7509:7628   */\n      iszero\n      tag_589\n      jumpi\n        /* \"#utility.yul\":7547:7626   */\n      tag_590\n      tag_429\n      jump\t// in\n    tag_590:\n        /* \"#utility.yul\":7509:7628   */\n    tag_589:\n        /* \"#utility.yul\":7667:7668   */\n      0x00\n        /* \"#utility.yul\":7692:7745   */\n      tag_591\n        /* \"#utility.yul\":7737:7744   */\n      dup5\n        /* \"#utility.yul\":7728:7734   */\n      dup3\n        /* \"#utility.yul\":7717:7726   */\n      dup6\n        /* \"#utility.yul\":7713:7735   */\n      add\n        /* \"#utility.yul\":7692:7745   */\n      tag_434\n      jump\t// in\n    tag_591:\n        /* \"#utility.yul\":7682:7745   */\n      swap2\n      pop\n        /* \"#utility.yul\":7638:7755   */\n      pop\n        /* \"#utility.yul\":7433:7762   */\n      swap3\n      swap2\n      pop\n      pop\n      jump\t// out\n        /* \"#utility.yul\":7768:7872   */\n    tag_453:\n        /* \"#utility.yul\":7813:7820   */\n      0x00\n        /* \"#utility.yul\":7842:7866   */\n      tag_593\n        /* \"#utility.yul\":7860:7865   */\n      dup3\n        /* \"#utility.yul\":7842:7866   */\n      tag_431\n      jump\t// in\n    tag_593:\n        /* \"#utility.yul\":7831:7866   */\n      swap1\n      pop\n        /* \"#utility.yul\":7768:7872   */\n      swap2\n      swap1\n      pop\n      jump\t// out\n        /* \"#utility.yul\":7878:8016   */\n    tag_454:\n        /* \"#utility.yul\":7959:7991   */\n      tag_595\n        /* \"#utility.yul\":7985:7990   */\n      dup2\n        /* \"#utility.yul\":7959:7991   */\n      tag_453\n      jump\t// in\n    tag_595:\n        /* \"#utility.yul\":7952:7957   */\n      dup2\n        /* \"#utility.yul\":7949:7992   */\n      eq\n        /* \"#utility.yul\":7939:8010   */\n      tag_596\n      jumpi\n        /* \"#utility.yul\":8006:8007   */\n      0x00\n        /* \"#utility.yul\":8003:8004   */\n      dup1\n        /* \"#utility.yul\":7996:8008   */\n      revert\n        /* \"#utility.yul\":7939:8010   */\n    tag_596:\n        /* \"#utility.yul\":7878:8016   */\n      pop\n      jump\t// out\n        /* \"#utility.yul\":8022:8177   */\n    tag_455:\n        /* \"#utility.yul\":8076:8081   */\n      0x00\n        /* \"#utility.yul\":8114:8120   */\n      dup2\n        /* \"#utility.yul\":8101:8121   */\n      calldataload\n        /* \"#utility.yul\":8092:8121   */\n      swap1\n      pop\n        /* \"#utility.yul\":8130:8171   */\n      tag_598\n        /* \"#utility.yul\":8165:8170   */\n      dup2\n        /* \"#utility.yul\":8130:8171   */\n      tag_454\n      jump\t// in\n    tag_598:\n        /* \"#utility.yul\":8022:8177   */\n      swap3\n      swap2\n      pop\n      pop\n      jump\t// out\n        /* \"#utility.yul\":8183:8528   */\n    tag_94:\n        /* \"#utility.yul\":8250:8256   */\n      0x00\n        /* \"#utility.yul\":8299:8301   */\n      0x20\n        /* \"#utility.yul\":8287:8296   */\n      dup3\n        /* \"#utility.yul\":8278:8285   */\n      dup5\n        /* \"#utility.yul\":8274:8297   */\n      sub\n        /* \"#utility.yul\":8270:8302   */\n      slt\n        /* \"#utility.yul\":8267:8386   */\n      iszero\n      tag_600\n      jumpi\n        /* \"#utility.yul\":8305:8384   */\n      tag_601\n      tag_429\n      jump\t// in\n    tag_601:\n        /* \"#utility.yul\":8267:8386   */\n    tag_600:\n        /* \"#utility.yul\":8425:8426   */\n      0x00\n        /* \"#utility.yul\":8450:8511   */\n      tag_602\n        /* \"#utility.yul\":8503:8510   */\n      dup5\n        /* \"#utility.yul\":8494:8500   */\n      dup3\n        /* \"#utility.yul\":8483:8492   */\n      dup6\n        /* \"#utility.yul\":8479:8501   */\n      add\n        /* \"#utility.yul\":8450:8511   */\n      tag_455\n      jump\t// in\n    tag_602:\n        /* \"#utility.yul\":8440:8511   */\n      swap2\n      pop\n        /* \"#utility.yul\":8396:8521   */\n      pop\n        /* \"#utility.yul\":8183:8528   */\n      swap3\n      swap2\n      pop\n      pop\n      jump\t// out\n        /* \"#utility.yul\":8534:9299   */\n    tag_107:\n        /* \"#utility.yul\":8620:8626   */\n      0x00\n        /* \"#utility.yul\":8628:8634   */\n      dup1\n        /* \"#utility.yul\":8636:8642   */\n      0x00\n        /* \"#utility.yul\":8644:8650   */\n      dup1\n        /* \"#utility.yul\":8693:8696   */\n      0x80\n        /* \"#utility.yul\":8681:8690   */\n      dup6\n        /* \"#utility.yul\":8672:8679   */\n      dup8\n        /* \"#utility.yul\":8668:8691   */\n      sub\n        /* \"#utility.yul\":8664:8697   */\n      slt\n        /* \"#utility.yul\":8661:8781   */\n      iszero\n      tag_604\n      jumpi\n        /* \"#utility.yul\":8700:8779   */\n      tag_605\n      tag_429\n      jump\t// in\n    tag_605:\n        /* \"#utility.yul\":8661:8781   */\n    tag_604:\n        /* \"#utility.yul\":8820:8821   */\n      0x00\n        /* \"#utility.yul\":8845:8898   */\n      tag_606\n        /* \"#utility.yul\":8890:8897   */\n      dup8\n        /* \"#utility.yul\":8881:8887   */\n      dup3\n        /* \"#utility.yul\":8870:8879   */\n      dup9\n        /* \"#utility.yul\":8866:8888   */\n      add\n        /* \"#utility.yul\":8845:8898   */\n      tag_437\n      jump\t// in\n    tag_606:\n        /* \"#utility.yul\":8835:8898   */\n      swap5\n      pop\n        /* \"#utility.yul\":8791:8908   */\n      pop\n        /* \"#utility.yul\":8947:8949   */\n      0x20\n        /* \"#utility.yul\":8973:9026   */\n      tag_607\n        /* \"#utility.yul\":9018:9025   */\n      dup8\n        /* \"#utility.yul\":9009:9015   */\n      dup3\n        /* \"#utility.yul\":8998:9007   */\n      dup9\n        /* \"#utility.yul\":8994:9016   */\n      add\n        /* \"#utility.yul\":8973:9026   */\n      tag_437\n      jump\t// in\n    tag_607:\n        /* \"#utility.yul\":8963:9026   */\n      swap4\n      pop\n        /* \"#utility.yul\":8918:9036   */\n      pop\n        /* \"#utility.yul\":9075:9077   */\n      0x40\n        /* \"#utility.yul\":9101:9154   */\n      tag_608\n        /* \"#utility.yul\":9146:9153   */\n      dup8\n        /* \"#utility.yul\":9137:9143   */\n      dup3\n        /* \"#utility.yul\":9126:9135   */\n      dup9\n        /* \"#utility.yul\":9122:9144   */\n      add\n        /* \"#utility.yul\":9101:9154   */\n      tag_437\n      jump\t// in\n    tag_608:\n        /* \"#utility.yul\":9091:9154   */\n      swap3\n      pop\n        /* \"#utility.yul\":9046:9164   */\n      pop\n        /* \"#utility.yul\":9203:9205   */\n      0x60\n        /* \"#utility.yul\":9229:9282   */\n      tag_609\n        /* \"#utility.yul\":9274:9281   */\n      dup8\n        /* \"#utility.yul\":9265:9271   */\n      dup3\n        /* \"#utility.yul\":9254:9263   */\n      dup9\n        /* \"#utility.yul\":9250:9272   */\n      add\n        /* \"#utility.yul\":9229:9282   */\n      tag_437\n      jump\t// in\n    tag_609:\n        /* \"#utility.yul\":9219:9282   */\n      swap2\n      pop\n        /* \"#utility.yul\":9174:9292   */\n      pop\n        /* \"#utility.yul\":8534:9299   */\n      swap3\n      swap6\n      swap2\n      swap5\n      pop\n      swap3\n      pop\n      jump\t// out\n        /* \"#utility.yul\":9305:9422   */\n    tag_456:\n        /* \"#utility.yul\":9414:9415   */\n      0x00\n        /* \"#utility.yul\":9411:9412   */\n      dup1\n        /* \"#utility.yul\":9404:9416   */\n      revert\n        /* \"#utility.yul\":9428:9545   */\n    tag_457:\n        /* \"#utility.yul\":9537:9538   */\n      0x00\n        /* \"#utility.yul\":9534:9535   */\n      dup1\n        /* \"#utility.yul\":9527:9539   */\n      revert\n        /* \"#utility.yul\":9551:9668   */\n    tag_458:\n        /* \"#utility.yul\":9660:9661   */\n      0x00\n        /* \"#utility.yul\":9657:9658   */\n      dup1\n        /* \"#utility.yul\":9650:9662   */\n      revert\n        /* \"#utility.yul\":9691:10259   */\n    tag_459:\n        /* \"#utility.yul\":9764:9772   */\n      0x00\n        /* \"#utility.yul\":9774:9780   */\n      dup1\n        /* \"#utility.yul\":9824:9827   */\n      dup4\n        /* \"#utility.yul\":9817:9821   */\n      0x1f\n        /* \"#utility.yul\":9809:9815   */\n      dup5\n        /* \"#utility.yul\":9805:9822   */\n      add\n        /* \"#utility.yul\":9801:9828   */\n      slt\n        /* \"#utility.yul\":9791:9913   */\n      tag_614\n      jumpi\n        /* \"#utility.yul\":9832:9911   */\n      tag_615\n      tag_456\n      jump\t// in\n    tag_615:\n        /* \"#utility.yul\":9791:9913   */\n    tag_614:\n        /* \"#utility.yul\":9945:9951   */\n      dup3\n        /* \"#utility.yul\":9932:9952   */\n      calldataload\n        /* \"#utility.yul\":9922:9952   */\n      swap1\n      pop\n        /* \"#utility.yul\":9975:9993   */\n      0xffffffffffffffff\n        /* \"#utility.yul\":9967:9973   */\n      dup2\n        /* \"#utility.yul\":9964:9994   */\n      gt\n        /* \"#utility.yul\":9961:10078   */\n      iszero\n      tag_616\n      jumpi\n        /* \"#utility.yul\":9997:10076   */\n      tag_617\n      tag_457\n      jump\t// in\n    tag_617:\n        /* \"#utility.yul\":9961:10078   */\n    tag_616:\n        /* \"#utility.yul\":10111:10115   */\n      0x20\n        /* \"#utility.yul\":10103:10109   */\n      dup4\n        /* \"#utility.yul\":10099:10116   */\n      add\n        /* \"#utility.yul\":10087:10116   */\n      swap2\n      pop\n        /* \"#utility.yul\":10165:10168   */\n      dup4\n        /* \"#utility.yul\":10157:10161   */\n      0x20\n        /* \"#utility.yul\":10149:10155   */\n      dup3\n        /* \"#utility.yul\":10145:10162   */\n      mul\n        /* \"#utility.yul\":10135:10143   */\n      dup4\n        /* \"#utility.yul\":10131:10163   */\n      add\n        /* \"#utility.yul\":10128:10169   */\n      gt\n        /* \"#utility.yul\":10125:10253   */\n      iszero\n      tag_618\n      jumpi\n        /* \"#utility.yul\":10172:10251   */\n      tag_619\n      tag_458\n      jump\t// in\n    tag_619:\n        /* \"#utility.yul\":10125:10253   */\n    tag_618:\n        /* \"#utility.yul\":9691:10259   */\n      swap3\n      pop\n      swap3\n      swap1\n      pop\n      jump\t// out\n        /* \"#utility.yul\":10265:10963   */\n    tag_124:\n        /* \"#utility.yul\":10357:10363   */\n      0x00\n        /* \"#utility.yul\":10365:10371   */\n      dup1\n        /* \"#utility.yul\":10373:10379   */\n      0x00\n        /* \"#utility.yul\":10422:10424   */\n      0x40\n        /* \"#utility.yul\":10410:10419   */\n      dup5\n        /* \"#utility.yul\":10401:10408   */\n      dup7\n        /* \"#utility.yul\":10397:10420   */\n      sub\n        /* \"#utility.yul\":10393:10425   */\n      slt\n        /* \"#utility.yul\":10390:10509   */\n      iszero\n      tag_621\n      jumpi\n        /* \"#utility.yul\":10428:10507   */\n      tag_622\n      tag_429\n      jump\t// in\n    tag_622:\n        /* \"#utility.yul\":10390:10509   */\n    tag_621:\n        /* \"#utility.yul\":10576:10577   */\n      0x00\n        /* \"#utility.yul\":10565:10574   */\n      dup5\n        /* \"#utility.yul\":10561:10578   */\n      add\n        /* \"#utility.yul\":10548:10579   */\n      calldataload\n        /* \"#utility.yul\":10606:10624   */\n      0xffffffffffffffff\n        /* \"#utility.yul\":10598:10604   */\n      dup2\n        /* \"#utility.yul\":10595:10625   */\n      gt\n        /* \"#utility.yul\":10592:10709   */\n      iszero\n      tag_623\n      jumpi\n        /* \"#utility.yul\":10628:10707   */\n      tag_624\n      tag_430\n      jump\t// in\n    tag_624:\n        /* \"#utility.yul\":10592:10709   */\n    tag_623:\n        /* \"#utility.yul\":10741:10821   */\n      tag_625\n        /* \"#utility.yul\":10813:10820   */\n      dup7\n        /* \"#utility.yul\":10804:10810   */\n      dup3\n        /* \"#utility.yul\":10793:10802   */\n      dup8\n        /* \"#utility.yul\":10789:10811   */\n      add\n        /* \"#utility.yul\":10741:10821   */\n      tag_459\n      jump\t// in\n    tag_625:\n        /* \"#utility.yul\":10723:10821   */\n      swap4\n      pop\n      swap4\n      pop\n        /* \"#utility.yul\":10519:10831   */\n      pop\n        /* \"#utility.yul\":10870:10872   */\n      0x20\n        /* \"#utility.yul\":10896:10946   */\n      tag_626\n        /* \"#utility.yul\":10938:10945   */\n      dup7\n        /* \"#utility.yul\":10929:10935   */\n      dup3\n        /* \"#utility.yul\":10918:10927   */\n      dup8\n        /* \"#utility.yul\":10914:10936   */\n      add\n        /* \"#utility.yul\":10896:10946   */\n      tag_452\n      jump\t// in\n    tag_626:\n        /* \"#utility.yul\":10886:10946   */\n      swap2\n      pop\n        /* \"#utility.yul\":10841:10956   */\n      pop\n        /* \"#utility.yul\":10265:10963   */\n      swap3\n      pop\n      swap3\n      pop\n      swap3\n      jump\t// out\n        /* \"#utility.yul\":10969:11443   */\n    tag_129:\n        /* \"#utility.yul\":11037:11043   */\n      0x00\n        /* \"#utility.yul\":11045:11051   */\n      dup1\n        /* \"#utility.yul\":11094:11096   */\n      0x40\n        /* \"#utility.yul\":11082:11091   */\n      dup4\n        /* \"#utility.yul\":11073:11080   */\n      dup6\n        /* \"#utility.yul\":11069:11092   */\n      sub\n        /* \"#utility.yul\":11065:11097   */\n      slt\n        /* \"#utility.yul\":11062:11181   */\n      iszero\n      tag_628\n      jumpi\n        /* \"#utility.yul\":11100:11179   */\n      tag_629\n      tag_429\n      jump\t// in\n    tag_629:\n        /* \"#utility.yul\":11062:11181   */\n    tag_628:\n        /* \"#utility.yul\":11220:11221   */\n      0x00\n        /* \"#utility.yul\":11245:11298   */\n      tag_630\n        /* \"#utility.yul\":11290:11297   */\n      dup6\n        /* \"#utility.yul\":11281:11287   */\n      dup3\n        /* \"#utility.yul\":11270:11279   */\n      dup7\n        /* \"#utility.yul\":11266:11288   */\n      add\n        /* \"#utility.yul\":11245:11298   */\n      tag_434\n      jump\t// in\n    tag_630:\n        /* \"#utility.yul\":11235:11298   */\n      swap3\n      pop\n        /* \"#utility.yul\":11191:11308   */\n      pop\n        /* \"#utility.yul\":11347:11349   */\n      0x20\n        /* \"#utility.yul\":11373:11426   */\n      tag_631\n        /* \"#utility.yul\":11418:11425   */\n      dup6\n        /* \"#utility.yul\":11409:11415   */\n      dup3\n        /* \"#utility.yul\":11398:11407   */\n      dup7\n        /* \"#utility.yul\":11394:11416   */\n      add\n        /* \"#utility.yul\":11373:11426   */\n      tag_434\n      jump\t// in\n    tag_631:\n        /* \"#utility.yul\":11363:11426   */\n      swap2\n      pop\n        /* \"#utility.yul\":11318:11436   */\n      pop\n        /* \"#utility.yul\":10969:11443   */\n      swap3\n      pop\n      swap3\n      swap1\n      pop\n      jump\t// out\n        /* \"#utility.yul\":11449:11620   */\n    tag_460:\n        /* \"#utility.yul\":11589:11612   */\n      0x43616c6c6572206973206e6f7420746865206465760000000000000000000000\n        /* \"#utility.yul\":11585:11586   */\n      0x00\n        /* \"#utility.yul\":11577:11583   */\n      dup3\n        /* \"#utility.yul\":11573:11587   */\n      add\n        /* \"#utility.yul\":11566:11613   */\n      mstore\n        /* \"#utility.yul\":11449:11620   */\n      pop\n      jump\t// out\n        /* \"#utility.yul\":11626:11992   */\n    tag_461:\n        /* \"#utility.yul\":11768:11771   */\n      0x00\n        /* \"#utility.yul\":11789:11856   */\n      tag_634\n        /* \"#utility.yul\":11853:11855   */\n      0x15\n        /* \"#utility.yul\":11848:11851   */\n      dup4\n        /* \"#utility.yul\":11789:11856   */\n      tag_424\n      jump\t// in\n    tag_634:\n        /* \"#utility.yul\":11782:11856   */\n      swap2\n      pop\n        /* \"#utility.yul\":11865:11958   */\n      tag_635\n        /* \"#utility.yul\":11954:11957   */\n      dup3\n        /* \"#utility.yul\":11865:11958   */\n      tag_460\n      jump\t// in\n    tag_635:\n        /* \"#utility.yul\":11983:11985   */\n      0x20\n        /* \"#utility.yul\":11978:11981   */\n      dup3\n        /* \"#utility.yul\":11974:11986   */\n      add\n        /* \"#utility.yul\":11967:11986   */\n      swap1\n      pop\n        /* \"#utility.yul\":11626:11992   */\n      swap2\n      swap1\n      pop\n      jump\t// out\n        /* \"#utility.yul\":11998:12417   */\n    tag_163:\n        /* \"#utility.yul\":12164:12168   */\n      0x00\n        /* \"#utility.yul\":12202:12204   */\n      0x20\n        /* \"#utility.yul\":12191:12200   */\n      dup3\n        /* \"#utility.yul\":12187:12205   */\n      add\n        /* \"#utility.yul\":12179:12205   */\n      swap1\n      pop\n        /* \"#utility.yul\":12251:12260   */\n      dup2\n        /* \"#utility.yul\":12245:12249   */\n      dup2\n        /* \"#utility.yul\":12241:12261   */\n      sub\n        /* \"#utility.yul\":12237:12238   */\n      0x00\n        /* \"#utility.yul\":12226:12235   */\n      dup4\n        /* \"#utility.yul\":12222:12239   */\n      add\n        /* \"#utility.yul\":12215:12262   */\n      mstore\n        /* \"#utility.yul\":12279:12410   */\n      tag_637\n        /* \"#utility.yul\":12405:12409   */\n      dup2\n        /* \"#utility.yul\":12279:12410   */\n      tag_461\n      jump\t// in\n    tag_637:\n        /* \"#utility.yul\":12271:12410   */\n      swap1\n      pop\n        /* \"#utility.yul\":11998:12417   */\n      swap2\n      swap1\n      pop\n      jump\t// out\n        /* \"#utility.yul\":12423:12596   */\n    tag_462:\n        /* \"#utility.yul\":12563:12588   */\n      0x43616c6c6572206973206e6f7420746865206f776e6572000000000000000000\n        /* \"#utility.yul\":12559:12560   */\n      0x00\n        /* \"#utility.yul\":12551:12557   */\n      dup3\n        /* \"#utility.yul\":12547:12561   */\n      add\n        /* \"#utility.yul\":12540:12589   */\n      mstore\n        /* \"#utility.yul\":12423:12596   */\n      pop\n      jump\t// out\n        /* \"#utility.yul\":12602:12968   */\n    tag_463:\n        /* \"#utility.yul\":12744:12747   */\n      0x00\n        /* \"#utility.yul\":12765:12832   */\n      tag_640\n        /* \"#utility.yul\":12829:12831   */\n      0x17\n        /* \"#utility.yul\":12824:12827   */\n      dup4\n        /* \"#utility.yul\":12765:12832   */\n      tag_424\n      jump\t// in\n    tag_640:\n        /* \"#utility.yul\":12758:12832   */\n      swap2\n      pop\n        /* \"#utility.yul\":12841:12934   */\n      tag_641\n        /* \"#utility.yul\":12930:12933   */\n      dup3\n        /* \"#utility.yul\":12841:12934   */\n      tag_462\n      jump\t// in\n    tag_641:\n        /* \"#utility.yul\":12959:12961   */\n      0x20\n        /* \"#utility.yul\":12954:12957   */\n      dup3\n        /* \"#utility.yul\":12950:12962   */\n      add\n        /* \"#utility.yul\":12943:12962   */\n      swap1\n      pop\n        /* \"#utility.yul\":12602:12968   */\n      swap2\n      swap1\n      pop\n      jump\t// out\n        /* \"#utility.yul\":12974:13393   */\n    tag_182:\n        /* \"#utility.yul\":13140:13144   */\n      0x00\n        /* \"#utility.yul\":13178:13180   */\n      0x20\n        /* \"#utility.yul\":13167:13176   */\n      dup3\n        /* \"#utility.yul\":13163:13181   */\n      add\n        /* \"#utility.yul\":13155:13181   */\n      swap1\n      pop\n        /* \"#utility.yul\":13227:13236   */\n      dup2\n        /* \"#utility.yul\":13221:13225   */\n      dup2\n        /* \"#utility.yul\":13217:13237   */\n      sub\n        /* \"#utility.yul\":13213:13214   */\n      0x00\n        /* \"#utility.yul\":13202:13211   */\n      dup4\n        /* \"#utility.yul\":13198:13215   */\n      add\n        /* \"#utility.yul\":13191:13238   */\n      mstore\n        /* \"#utility.yul\":13255:13386   */\n      tag_643\n        /* \"#utility.yul\":13381:13385   */\n      dup2\n        /* \"#utility.yul\":13255:13386   */\n      tag_463\n      jump\t// in\n    tag_643:\n        /* \"#utility.yul\":13247:13386   */\n      swap1\n      pop\n        /* \"#utility.yul\":12974:13393   */\n      swap2\n      swap1\n      pop\n      jump\t// out\n        /* \"#utility.yul\":13399:13578   */\n    tag_464:\n        /* \"#utility.yul\":13539:13570   */\n      0x52656469732063616e6e6f74206265206d6f7265207468616e2031302e000000\n        /* \"#utility.yul\":13535:13536   */\n      0x00\n        /* \"#utility.yul\":13527:13533   */\n      dup3\n        /* \"#utility.yul\":13523:13537   */\n      add\n        /* \"#utility.yul\":13516:13571   */\n      mstore\n        /* \"#utility.yul\":13399:13578   */\n      pop\n      jump\t// out\n        /* \"#utility.yul\":13584:13950   */\n    tag_465:\n        /* \"#utility.yul\":13726:13729   */\n      0x00\n        /* \"#utility.yul\":13747:13814   */\n      tag_646\n        /* \"#utility.yul\":13811:13813   */\n      0x1d\n        /* \"#utility.yul\":13806:13809   */\n      dup4\n        /* \"#utility.yul\":13747:13814   */\n      tag_424\n      jump\t// in\n    tag_646:\n        /* \"#utility.yul\":13740:13814   */\n      swap2\n      pop\n        /* \"#utility.yul\":13823:13916   */\n      tag_647\n        /* \"#utility.yul\":13912:13915   */\n      dup3\n        /* \"#utility.yul\":13823:13916   */\n      tag_464\n      jump\t// in\n    tag_647:\n        /* \"#utility.yul\":13941:13943   */\n      0x20\n        /* \"#utility.yul\":13936:13939   */\n      dup3\n        /* \"#utility.yul\":13932:13944   */\n      add\n        /* \"#utility.yul\":13925:13944   */\n      swap1\n      pop\n        /* \"#utility.yul\":13584:13950   */\n      swap2\n      swap1\n      pop\n      jump\t// out\n        /* \"#utility.yul\":13956:14375   */\n    tag_204:\n        /* \"#utility.yul\":14122:14126   */\n      0x00\n        /* \"#utility.yul\":14160:14162   */\n      0x20\n        /* \"#utility.yul\":14149:14158   */\n      dup3\n        /* \"#utility.yul\":14145:14163   */\n      add\n        /* \"#utility.yul\":14137:14163   */\n      swap1\n      pop\n        /* \"#utility.yul\":14209:14218   */\n      dup2\n        /* \"#utility.yul\":14203:14207   */\n      dup2\n        /* \"#utility.yul\":14199:14219   */\n      sub\n        /* \"#utility.yul\":14195:14196   */\n      0x00\n        /* \"#utility.yul\":14184:14193   */\n      dup4\n        /* \"#utility.yul\":14180:14197   */\n      add\n        /* \"#utility.yul\":14173:14220   */\n      mstore\n        /* \"#utility.yul\":14237:14368   */\n      tag_649\n        /* \"#utility.yul\":14363:14367   */\n      dup2\n        /* \"#utility.yul\":14237:14368   */\n      tag_465\n      jump\t// in\n    tag_649:\n        /* \"#utility.yul\":14229:14368   */\n      swap1\n      pop\n        /* \"#utility.yul\":13956:14375   */\n      swap2\n      swap1\n      pop\n      jump\t// out\n        /* \"#utility.yul\":14381:14557   */\n    tag_466:\n        /* \"#utility.yul\":14521:14549   */\n      0x5461782063616e6e6f74206265206d6f7265207468616e20362e000000000000\n        /* \"#utility.yul\":14517:14518   */\n      0x00\n        /* \"#utility.yul\":14509:14515   */\n      dup3\n        /* \"#utility.yul\":14505:14519   */\n      add\n        /* \"#utility.yul\":14498:14550   */\n      mstore\n        /* \"#utility.yul\":14381:14557   */\n      pop\n      jump\t// out\n        /* \"#utility.yul\":14563:14929   */\n    tag_467:\n        /* \"#utility.yul\":14705:14708   */\n      0x00\n        /* \"#utility.yul\":14726:14793   */\n      tag_652\n        /* \"#utility.yul\":14790:14792   */\n      0x1a\n        /* \"#utility.yul\":14785:14788   */\n      dup4\n        /* \"#utility.yul\":14726:14793   */\n      tag_424\n      jump\t// in\n    tag_652:\n        /* \"#utility.yul\":14719:14793   */\n      swap2\n      pop\n        /* \"#utility.yul\":14802:14895   */\n      tag_653\n        /* \"#utility.yul\":14891:14894   */\n      dup3\n        /* \"#utility.yul\":14802:14895   */\n      tag_466\n      jump\t// in\n    tag_653:\n        /* \"#utility.yul\":14920:14922   */\n      0x20\n        /* \"#utility.yul\":14915:14918   */\n      dup3\n        /* \"#utility.yul\":14911:14923   */\n      add\n        /* \"#utility.yul\":14904:14923   */\n      swap1\n      pop\n        /* \"#utility.yul\":14563:14929   */\n      swap2\n      swap1\n      pop\n      jump\t// out\n        /* \"#utility.yul\":14935:15354   */\n    tag_209:\n        /* \"#utility.yul\":15101:15105   */\n      0x00\n        /* \"#utility.yul\":15139:15141   */\n      0x20\n        /* \"#utility.yul\":15128:15137   */\n      dup3\n        /* \"#utility.yul\":15124:15142   */\n      add\n        /* \"#utility.yul\":15116:15142   */\n      swap1\n      pop\n        /* \"#utility.yul\":15188:15197   */\n      dup2\n        /* \"#utility.yul\":15182:15186   */\n      dup2\n        /* \"#utility.yul\":15178:15198   */\n      sub\n        /* \"#utility.yul\":15174:15175   */\n      0x00\n        /* \"#utility.yul\":15163:15172   */\n      dup4\n        /* \"#utility.yul\":15159:15176   */\n      add\n        /* \"#utility.yul\":15152:15199   */\n      mstore\n        /* \"#utility.yul\":15216:15347   */\n      tag_655\n        /* \"#utility.yul\":15342:15346   */\n      dup2\n        /* \"#utility.yul\":15216:15347   */\n      tag_467\n      jump\t// in\n    tag_655:\n        /* \"#utility.yul\":15208:15347   */\n      swap1\n      pop\n        /* \"#utility.yul\":14935:15354   */\n      swap2\n      swap1\n      pop\n      jump\t// out\n        /* \"#utility.yul\":15360:15540   */\n    tag_244:\n        /* \"#utility.yul\":15408:15485   */\n      0x4e487b7100000000000000000000000000000000000000000000000000000000\n        /* \"#utility.yul\":15405:15406   */\n      0x00\n        /* \"#utility.yul\":15398:15486   */\n      mstore\n        /* \"#utility.yul\":15505:15509   */\n      0x32\n        /* \"#utility.yul\":15502:15503   */\n      0x04\n        /* \"#utility.yul\":15495:15510   */\n      mstore\n        /* \"#utility.yul\":15529:15533   */\n      0x24\n        /* \"#utility.yul\":15526:15527   */\n      0x00\n        /* \"#utility.yul\":15519:15534   */\n      revert\n        /* \"#utility.yul\":15546:15726   */\n    tag_468:\n        /* \"#utility.yul\":15594:15671   */\n      0x4e487b7100000000000000000000000000000000000000000000000000000000\n        /* \"#utility.yul\":15591:15592   */\n      0x00\n        /* \"#utility.yul\":15584:15672   */\n      mstore\n        /* \"#utility.yul\":15691:15695   */\n      0x11\n        /* \"#utility.yul\":15688:15689   */\n      0x04\n        /* \"#utility.yul\":15681:15696   */\n      mstore\n        /* \"#utility.yul\":15715:15719   */\n      0x24\n        /* \"#utility.yul\":15712:15713   */\n      0x00\n        /* \"#utility.yul\":15705:15720   */\n      revert\n        /* \"#utility.yul\":15732:15965   */\n    tag_247:\n        /* \"#utility.yul\":15771:15774   */\n      0x00\n        /* \"#utility.yul\":15794:15818   */\n      tag_659\n        /* \"#utility.yul\":15812:15817   */\n      dup3\n        /* \"#utility.yul\":15794:15818   */\n      tag_435\n      jump\t// in\n    tag_659:\n        /* \"#utility.yul\":15785:15818   */\n      swap2\n      pop\n        /* \"#utility.yul\":15840:15906   */\n      0xffffffffffffffffffffffffffffffffffffffffffffffffffffffffffffffff\n        /* \"#utility.yul\":15833:15838   */\n      dup3\n        /* \"#utility.yul\":15830:15907   */\n      sub\n        /* \"#utility.yul\":15827:15930   */\n      tag_660\n      jumpi\n        /* \"#utility.yul\":15910:15928   */\n      tag_661\n      tag_468\n      jump\t// in\n    tag_661:\n        /* \"#utility.yul\":15827:15930   */\n    tag_660:\n        /* \"#utility.yul\":15957:15958   */\n      0x01\n        /* \"#utility.yul\":15950:15955   */\n      dup3\n        /* \"#utility.yul\":15946:15959   */\n      add\n        /* \"#utility.yul\":15939:15959   */\n      swap1\n      pop\n        /* \"#utility.yul\":15732:15965   */\n      swap2\n      swap1\n      pop\n      jump\t// out\n        /* \"#utility.yul\":15971:16303   */\n    tag_259:\n        /* \"#utility.yul\":16092:16096   */\n      0x00\n        /* \"#utility.yul\":16130:16132   */\n      0x40\n        /* \"#utility.yul\":16119:16128   */\n      dup3\n        /* \"#utility.yul\":16115:16133   */\n      add\n        /* \"#utility.yul\":16107:16133   */\n      swap1\n      pop\n        /* \"#utility.yul\":16143:16214   */\n      tag_663\n        /* \"#utility.yul\":16211:16212   */\n      0x00\n        /* \"#utility.yul\":16200:16209   */\n      dup4\n        /* \"#utility.yul\":16196:16213   */\n      add\n        /* \"#utility.yul\":16187:16193   */\n      dup6\n        /* \"#utility.yul\":16143:16214   */\n      tag_448\n      jump\t// in\n    tag_663:\n        /* \"#utility.yul\":16224:16296   */\n      tag_664\n        /* \"#utility.yul\":16292:16294   */\n      0x20\n        /* \"#utility.yul\":16281:16290   */\n      dup4\n        /* \"#utility.yul\":16277:16295   */\n      add\n        /* \"#utility.yul\":16268:16274   */\n      dup5\n        /* \"#utility.yul\":16224:16296   */\n      tag_445\n      jump\t// in\n    tag_664:\n        /* \"#utility.yul\":15971:16303   */\n      swap4\n      swap3\n      pop\n      pop\n      pop\n      jump\t// out\n        /* \"#utility.yul\":16309:16446   */\n    tag_469:\n        /* \"#utility.yul\":16363:16368   */\n      0x00\n        /* \"#utility.yul\":16394:16400   */\n      dup2\n        /* \"#utility.yul\":16388:16401   */\n      mload\n        /* \"#utility.yul\":16379:16401   */\n      swap1\n      pop\n        /* \"#utility.yul\":16410:16440   */\n      tag_666\n        /* \"#utility.yul\":16434:16439   */\n      dup2\n        /* \"#utility.yul\":16410:16440   */\n      tag_451\n      jump\t// in\n    tag_666:\n        /* \"#utility.yul\":16309:16446   */\n      swap3\n      swap2\n      pop\n      pop\n      jump\t// out\n        /* \"#utility.yul\":16452:16797   */\n    tag_263:\n        /* \"#utility.yul\":16519:16525   */\n      0x00\n        /* \"#utility.yul\":16568:16570   */\n      0x20\n        /* \"#utility.yul\":16556:16565   */\n      dup3\n        /* \"#utility.yul\":16547:16554   */\n      dup5\n        /* \"#utility.yul\":16543:16566   */\n      sub\n        /* \"#utility.yul\":16539:16571   */\n      slt\n        /* \"#utility.yul\":16536:16655   */\n      iszero\n      tag_668\n      jumpi\n        /* \"#utility.yul\":16574:16653   */\n      tag_669\n      tag_429\n      jump\t// in\n    tag_669:\n        /* \"#utility.yul\":16536:16655   */\n    tag_668:\n        /* \"#utility.yul\":16694:16695   */\n      0x00\n        /* \"#utility.yul\":16719:16780   */\n      tag_670\n        /* \"#utility.yul\":16772:16779   */\n      dup5\n        /* \"#utility.yul\":16763:16769   */\n      dup3\n        /* \"#utility.yul\":16752:16761   */\n      dup6\n        /* \"#utility.yul\":16748:16770   */\n      add\n        /* \"#utility.yul\":16719:16780   */\n      tag_469\n      jump\t// in\n    tag_670:\n        /* \"#utility.yul\":16709:16780   */\n      swap2\n      pop\n        /* \"#utility.yul\":16665:16790   */\n      pop\n        /* \"#utility.yul\":16452:16797   */\n      swap3\n      swap2\n      pop\n      pop\n      jump\t// out\n        /* \"#utility.yul\":16803:17026   */\n    tag_470:\n        /* \"#utility.yul\":16943:16977   */\n      0x45524332303a20617070726f76652066726f6d20746865207a65726f20616464\n        /* \"#utility.yul\":16939:16940   */\n      0x00\n        /* \"#utility.yul\":16931:16937   */\n      dup3\n        /* \"#utility.yul\":16927:16941   */\n      add\n        /* \"#utility.yul\":16920:16978   */\n      mstore\n        /* \"#utility.yul\":17012:17018   */\n      0x7265737300000000000000000000000000000000000000000000000000000000\n        /* \"#utility.yul\":17007:17009   */\n      0x20\n        /* \"#utility.yul\":16999:17005   */\n      dup3\n        /* \"#utility.yul\":16995:17010   */\n      add\n        /* \"#utility.yul\":16988:17019   */\n      mstore\n        /* \"#utility.yul\":16803:17026   */\n      pop\n      jump\t// out\n        /* \"#utility.yul\":17032:17398   */\n    tag_471:\n        /* \"#utility.yul\":17174:17177   */\n      0x00\n        /* \"#utility.yul\":17195:17262   */\n      tag_673\n        /* \"#utility.yul\":17259:17261   */\n      0x24\n        /* \"#utility.yul\":17254:17257   */\n      dup4\n        /* \"#utility.yul\":17195:17262   */\n      tag_424\n      jump\t// in\n    tag_673:\n        /* \"#utility.yul\":17188:17262   */\n      swap2\n      pop\n        /* \"#utility.yul\":17271:17364   */\n      tag_674\n        /* \"#utility.yul\":17360:17363   */\n      dup3\n        /* \"#utility.yul\":17271:17364   */\n      tag_470\n      jump\t// in\n    tag_674:\n        /* \"#utility.yul\":17389:17391   */\n      0x40\n        /* \"#utility.yul\":17384:17387   */\n      dup3\n        /* \"#utility.yul\":17380:17392   */\n      add\n        /* \"#utility.yul\":17373:17392   */\n      swap1\n      pop\n        /* \"#utility.yul\":17032:17398   */\n      swap2\n      swap1\n      pop\n      jump\t// out\n        /* \"#utility.yul\":17404:17823   */\n    tag_273:\n        /* \"#utility.yul\":17570:17574   */\n      0x00\n        /* \"#utility.yul\":17608:17610   */\n      0x20\n        /* \"#utility.yul\":17597:17606   */\n      dup3\n        /* \"#utility.yul\":17593:17611   */\n      add\n        /* \"#utility.yul\":17585:17611   */\n      swap1\n      pop\n        /* \"#utility.yul\":17657:17666   */\n      dup2\n        /* \"#utility.yul\":17651:17655   */\n      dup2\n        /* \"#utility.yul\":17647:17667   */\n      sub\n        /* \"#utility.yul\":17643:17644   */\n      0x00\n        /* \"#utility.yul\":17632:17641   */\n      dup4\n        /* \"#utility.yul\":17628:17645   */\n      add\n        /* \"#utility.yul\":17621:17668   */\n      mstore\n        /* \"#utility.yul\":17685:17816   */\n      tag_676\n        /* \"#utility.yul\":17811:17815   */\n      dup2\n        /* \"#utility.yul\":17685:17816   */\n      tag_471\n      jump\t// in\n    tag_676:\n        /* \"#utility.yul\":17677:17816   */\n      swap1\n      pop\n        /* \"#utility.yul\":17404:17823   */\n      swap2\n      swap1\n      pop\n      jump\t// out\n        /* \"#utility.yul\":17829:18050   */\n    tag_472:\n        /* \"#utility.yul\":17969:18003   */\n      0x45524332303a20617070726f766520746f20746865207a65726f206164647265\n        /* \"#utility.yul\":17965:17966   */\n      0x00\n        /* \"#utility.yul\":17957:17963   */\n      dup3\n        /* \"#utility.yul\":17953:17967   */\n      add\n        /* \"#utility.yul\":17946:18004   */\n      mstore\n        /* \"#utility.yul\":18038:18042   */\n      0x7373000000000000000000000000000000000000000000000000000000000000\n        /* \"#utility.yul\":18033:18035   */\n      0x20\n        /* \"#utility.yul\":18025:18031   */\n      dup3\n        /* \"#utility.yul\":18021:18036   */\n      add\n        /* \"#utility.yul\":18014:18043   */\n      mstore\n        /* \"#utility.yul\":17829:18050   */\n      pop\n      jump\t// out\n        /* \"#utility.yul\":18056:18422   */\n    tag_473:\n        /* \"#utility.yul\":18198:18201   */\n      0x00\n        /* \"#utility.yul\":18219:18286   */\n      tag_679\n        /* \"#utility.yul\":18283:18285   */\n      0x22\n        /* \"#utility.yul\":18278:18281   */\n      dup4\n        /* \"#utility.yul\":18219:18286   */\n      tag_424\n      jump\t// in\n    tag_679:\n        /* \"#utility.yul\":18212:18286   */\n      swap2\n      pop\n        /* \"#utility.yul\":18295:18388   */\n      tag_680\n        /* \"#utility.yul\":18384:18387   */\n      dup3\n        /* \"#utility.yul\":18295:18388   */\n      tag_472\n      jump\t// in\n    tag_680:\n        /* \"#utility.yul\":18413:18415   */\n      0x40\n        /* \"#utility.yul\":18408:18411   */\n      dup3\n        /* \"#utility.yul\":18404:18416   */\n      add\n        /* \"#utility.yul\":18397:18416   */\n      swap1\n      pop\n        /* \"#utility.yul\":18056:18422   */\n      swap2\n      swap1\n      pop\n      jump\t// out\n        /* \"#utility.yul\":18428:18847   */\n    tag_276:\n        /* \"#utility.yul\":18594:18598   */\n      0x00\n        /* \"#utility.yul\":18632:18634   */\n      0x20\n        /* \"#utility.yul\":18621:18630   */\n      dup3\n        /* \"#utility.yul\":18617:18635   */\n      add\n        /* \"#utility.yul\":18609:18635   */\n      swap1\n      pop\n        /* \"#utility.yul\":18681:18690   */\n      dup2\n        /* \"#utility.yul\":18675:18679   */\n      dup2\n        /* \"#utility.yul\":18671:18691   */\n      sub\n        /* \"#utility.yul\":18667:18668   */\n      0x00\n        /* \"#utility.yul\":18656:18665   */\n      dup4\n        /* \"#utility.yul\":18652:18669   */\n      add\n        /* \"#utility.yul\":18645:18692   */\n      mstore\n        /* \"#utility.yul\":18709:18840   */\n      tag_682\n        /* \"#utility.yul\":18835:18839   */\n      dup2\n        /* \"#utility.yul\":18709:18840   */\n      tag_473\n      jump\t// in\n    tag_682:\n        /* \"#utility.yul\":18701:18840   */\n      swap1\n      pop\n        /* \"#utility.yul\":18428:18847   */\n      swap2\n      swap1\n      pop\n      jump\t// out\n        /* \"#utility.yul\":18853:19077   */\n    tag_474:\n        /* \"#utility.yul\":18993:19027   */\n      0x45524332303a207472616e736665722066726f6d20746865207a65726f206164\n        /* \"#utility.yul\":18989:18990   */\n      0x00\n        /* \"#utility.yul\":18981:18987   */\n      dup3\n        /* \"#utility.yul\":18977:18991   */\n      add\n        /* \"#utility.yul\":18970:19028   */\n      mstore\n        /* \"#utility.yul\":19062:19069   */\n      0x6472657373000000000000000000000000000000000000000000000000000000\n        /* \"#utility.yul\":19057:19059   */\n      0x20\n        /* \"#utility.yul\":19049:19055   */\n      dup3\n        /* \"#utility.yul\":19045:19060   */\n      add\n        /* \"#utility.yul\":19038:19070   */\n      mstore\n        /* \"#utility.yul\":18853:19077   */\n      pop\n      jump\t// out\n        /* \"#utility.yul\":19083:19449   */\n    tag_475:\n        /* \"#utility.yul\":19225:19228   */\n      0x00\n        /* \"#utility.yul\":19246:19313   */\n      tag_685\n        /* \"#utility.yul\":19310:19312   */\n      0x25\n        /* \"#utility.yul\":19305:19308   */\n      dup4\n        /* \"#utility.yul\":19246:19313   */\n      tag_424\n      jump\t// in\n    tag_685:\n        /* \"#utility.yul\":19239:19313   */\n      swap2\n      pop\n        /* \"#utility.yul\":19322:19415   */\n      tag_686\n        /* \"#utility.yul\":19411:19414   */\n      dup3\n        /* \"#utility.yul\":19322:19415   */\n      tag_474\n      jump\t// in\n    tag_686:\n        /* \"#utility.yul\":19440:19442   */\n      0x40\n        /* \"#utility.yul\":19435:19438   */\n      dup3\n        /* \"#utility.yul\":19431:19443   */\n      add\n        /* \"#utility.yul\":19424:19443   */\n      swap1\n      pop\n        /* \"#utility.yul\":19083:19449   */\n      swap2\n      swap1\n      pop\n      jump\t// out\n        /* \"#utility.yul\":19455:19874   */\n    tag_281:\n        /* \"#utility.yul\":19621:19625   */\n      0x00\n        /* \"#utility.yul\":19659:19661   */\n      0x20\n        /* \"#utility.yul\":19648:19657   */\n      dup3\n        /* \"#utility.yul\":19644:19662   */\n      add\n        /* \"#utility.yul\":19636:19662   */\n      swap1\n      pop\n        /* \"#utility.yul\":19708:19717   */\n      dup2\n        /* \"#utility.yul\":19702:19706   */\n      dup2\n        /* \"#utility.yul\":19698:19718   */\n      sub\n        /* \"#utility.yul\":19694:19695   */\n      0x00\n        /* \"#utility.yul\":19683:19692   */\n      dup4\n        /* \"#utility.yul\":19679:19696   */\n      add\n        /* \"#utility.yul\":19672:19719   */\n      mstore\n        /* \"#utility.yul\":19736:19867   */\n      tag_688\n        /* \"#utility.yul\":19862:19866   */\n      dup2\n        /* \"#utility.yul\":19736:19867   */\n      tag_475\n      jump\t// in\n    tag_688:\n        /* \"#utility.yul\":19728:19867   */\n      swap1\n      pop\n        /* \"#utility.yul\":19455:19874   */\n      swap2\n      swap1\n      pop\n      jump\t// out\n        /* \"#utility.yul\":19880:20102   */\n    tag_476:\n        /* \"#utility.yul\":20020:20054   */\n      0x45524332303a207472616e7366657220746f20746865207a65726f2061646472\n        /* \"#utility.yul\":20016:20017   */\n      0x00\n        /* \"#utility.yul\":20008:20014   */\n      dup3\n        /* \"#utility.yul\":20004:20018   */\n      add\n        /* \"#utility.yul\":19997:20055   */\n      mstore\n        /* \"#utility.yul\":20089:20094   */\n      0x6573730000000000000000000000000000000000000000000000000000000000\n        /* \"#utility.yul\":20084:20086   */\n      0x20\n        /* \"#utility.yul\":20076:20082   */\n      dup3\n        /* \"#utility.yul\":20072:20087   */\n      add\n        /* \"#utility.yul\":20065:20095   */\n      mstore\n        /* \"#utility.yul\":19880:20102   */\n      pop\n      jump\t// out\n        /* \"#utility.yul\":20108:20474   */\n    tag_477:\n        /* \"#utility.yul\":20250:20253   */\n      0x00\n        /* \"#utility.yul\":20271:20338   */\n      tag_691\n        /* \"#utility.yul\":20335:20337   */\n      0x23\n        /* \"#utility.yul\":20330:20333   */\n      dup4\n        /* \"#utility.yul\":20271:20338   */\n      tag_424\n      jump\t// in\n    tag_691:\n        /* \"#utility.yul\":20264:20338   */\n      swap2\n      pop\n        /* \"#utility.yul\":20347:20440   */\n      tag_692\n        /* \"#utility.yul\":20436:20439   */\n      dup3\n        /* \"#utility.yul\":20347:20440   */\n      tag_476\n      jump\t// in\n    tag_692:\n        /* \"#utility.yul\":20465:20467   */\n      0x40\n        /* \"#utility.yul\":20460:20463   */\n      dup3\n        /* \"#utility.yul\":20456:20468   */\n      add\n        /* \"#utility.yul\":20449:20468   */\n      swap1\n      pop\n        /* \"#utility.yul\":20108:20474   */\n      swap2\n      swap1\n      pop\n      jump\t// out\n        /* \"#utility.yul\":20480:20899   */\n    tag_284:\n        /* \"#utility.yul\":20646:20650   */\n      0x00\n        /* \"#utility.yul\":20684:20686   */\n      0x20\n        /* \"#utility.yul\":20673:20682   */\n      dup3\n        /* \"#utility.yul\":20669:20687   */\n      add\n        /* \"#utility.yul\":20661:20687   */\n      swap1\n      pop\n        /* \"#utility.yul\":20733:20742   */\n      dup2\n        /* \"#utility.yul\":20727:20731   */\n      dup2\n        /* \"#utility.yul\":20723:20743   */\n      sub\n        /* \"#utility.yul\":20719:20720   */\n      0x00\n        /* \"#utility.yul\":20708:20717   */\n      dup4\n        /* \"#utility.yul\":20704:20721   */\n      add\n        /* \"#utility.yul\":20697:20744   */\n      mstore\n        /* \"#utility.yul\":20761:20892   */\n      tag_694\n        /* \"#utility.yul\":20887:20891   */\n      dup2\n        /* \"#utility.yul\":20761:20892   */\n      tag_477\n      jump\t// in\n    tag_694:\n        /* \"#utility.yul\":20753:20892   */\n      swap1\n      pop\n        /* \"#utility.yul\":20480:20899   */\n      swap2\n      swap1\n      pop\n      jump\t// out\n        /* \"#utility.yul\":20905:21133   */\n    tag_478:\n        /* \"#utility.yul\":21045:21079   */\n      0x5472616e7366657220616d6f756e74206d757374206265206772656174657220\n        /* \"#utility.yul\":21041:21042   */\n      0x00\n        /* \"#utility.yul\":21033:21039   */\n      dup3\n        /* \"#utility.yul\":21029:21043   */\n      add\n        /* \"#utility.yul\":21022:21080   */\n      mstore\n        /* \"#utility.yul\":21114:21125   */\n      0x7468616e207a65726f0000000000000000000000000000000000000000000000\n        /* \"#utility.yul\":21109:21111   */\n      0x20\n        /* \"#utility.yul\":21101:21107   */\n      dup3\n        /* \"#utility.yul\":21097:21112   */\n      add\n        /* \"#utility.yul\":21090:21126   */\n      mstore\n        /* \"#utility.yul\":20905:21133   */\n      pop\n      jump\t// out\n        /* \"#utility.yul\":21139:21505   */\n    tag_479:\n        /* \"#utility.yul\":21281:21284   */\n      0x00\n        /* \"#utility.yul\":21302:21369   */\n      tag_697\n        /* \"#utility.yul\":21366:21368   */\n      0x29\n        /* \"#utility.yul\":21361:21364   */\n      dup4\n        /* \"#utility.yul\":21302:21369   */\n      tag_424\n      jump\t// in\n    tag_697:\n        /* \"#utility.yul\":21295:21369   */\n      swap2\n      pop\n        /* \"#utility.yul\":21378:21471   */\n      tag_698\n        /* \"#utility.yul\":21467:21470   */\n      dup3\n        /* \"#utility.yul\":21378:21471   */\n      tag_478\n      jump\t// in\n    tag_698:\n        /* \"#utility.yul\":21496:21498   */\n      0x40\n        /* \"#utility.yul\":21491:21494   */\n      dup3\n        /* \"#utility.yul\":21487:21499   */\n      add\n        /* \"#utility.yul\":21480:21499   */\n      swap1\n      pop\n        /* \"#utility.yul\":21139:21505   */\n      swap2\n      swap1\n      pop\n      jump\t// out\n        /* \"#utility.yul\":21511:21930   */\n    tag_287:\n        /* \"#utility.yul\":21677:21681   */\n      0x00\n        /* \"#utility.yul\":21715:21717   */\n      0x20\n        /* \"#utility.yul\":21704:21713   */\n      dup3\n        /* \"#utility.yul\":21700:21718   */\n      add\n        /* \"#utility.yul\":21692:21718   */\n      swap1\n      pop\n        /* \"#utility.yul\":21764:21773   */\n      dup2\n        /* \"#utility.yul\":21758:21762   */\n      dup2\n        /* \"#utility.yul\":21754:21774   */\n      sub\n        /* \"#utility.yul\":21750:21751   */\n      0x00\n        /* \"#utility.yul\":21739:21748   */\n      dup4\n        /* \"#utility.yul\":21735:21752   */\n      add\n        /* \"#utility.yul\":21728:21775   */\n      mstore\n        /* \"#utility.yul\":21792:21923   */\n      tag_700\n        /* \"#utility.yul\":21918:21922   */\n      dup2\n        /* \"#utility.yul\":21792:21923   */\n      tag_479\n      jump\t// in\n    tag_700:\n        /* \"#utility.yul\":21784:21923   */\n      swap1\n      pop\n        /* \"#utility.yul\":21511:21930   */\n      swap2\n      swap1\n      pop\n      jump\t// out\n        /* \"#utility.yul\":21936:22127   */\n    tag_314:\n        /* \"#utility.yul\":21976:21980   */\n      0x00\n        /* \"#utility.yul\":21996:22016   */\n      tag_702\n        /* \"#utility.yul\":22014:22015   */\n      dup3\n        /* \"#utility.yul\":21996:22016   */\n      tag_435\n      jump\t// in\n    tag_702:\n        /* \"#utility.yul\":21991:22016   */\n      swap2\n      pop\n        /* \"#utility.yul\":22030:22050   */\n      tag_703\n        /* \"#utility.yul\":22048:22049   */\n      dup4\n        /* \"#utility.yul\":22030:22050   */\n      tag_435\n      jump\t// in\n    tag_703:\n        /* \"#utility.yul\":22025:22050   */\n      swap3\n      pop\n        /* \"#utility.yul\":22069:22070   */\n      dup3\n        /* \"#utility.yul\":22066:22067   */\n      dup3\n        /* \"#utility.yul\":22063:22071   */\n      lt\n        /* \"#utility.yul\":22060:22094   */\n      iszero\n      tag_704\n      jumpi\n        /* \"#utility.yul\":22074:22092   */\n      tag_705\n      tag_468\n      jump\t// in\n    tag_705:\n        /* \"#utility.yul\":22060:22094   */\n    tag_704:\n        /* \"#utility.yul\":22119:22120   */\n      dup3\n        /* \"#utility.yul\":22116:22117   */\n      dup3\n        /* \"#utility.yul\":22112:22121   */\n      sub\n        /* \"#utility.yul\":22104:22121   */\n      swap1\n      pop\n        /* \"#utility.yul\":21936:22127   */\n      swap3\n      swap2\n      pop\n      pop\n      jump\t// out\n        /* \"#utility.yul\":22133:22362   */\n    tag_480:\n        /* \"#utility.yul\":22273:22307   */\n      0x416d6f756e74206d757374206265206c657373207468616e20746f74616c2072\n        /* \"#utility.yul\":22269:22270   */\n      0x00\n        /* \"#utility.yul\":22261:22267   */\n      dup3\n        /* \"#utility.yul\":22257:22271   */\n      add\n        /* \"#utility.yul\":22250:22308   */\n      mstore\n        /* \"#utility.yul\":22342:22354   */\n      0x65666c656374696f6e7300000000000000000000000000000000000000000000\n        /* \"#utility.yul\":22337:22339   */\n      0x20\n        /* \"#utility.yul\":22329:22335   */\n      dup3\n        /* \"#utility.yul\":22325:22340   */\n      add\n        /* \"#utility.yul\":22318:22355   */\n      mstore\n        /* \"#utility.yul\":22133:22362   */\n      pop\n      jump\t// out\n        /* \"#utility.yul\":22368:22734   */\n    tag_481:\n        /* \"#utility.yul\":22510:22513   */\n      0x00\n        /* \"#utility.yul\":22531:22598   */\n      tag_708\n        /* \"#utility.yul\":22595:22597   */\n      0x2a\n        /* \"#utility.yul\":22590:22593   */\n      dup4\n        /* \"#utility.yul\":22531:22598   */\n      tag_424\n      jump\t// in\n    tag_708:\n        /* \"#utility.yul\":22524:22598   */\n      swap2\n      pop\n        /* \"#utility.yul\":22607:22700   */\n      tag_709\n        /* \"#utility.yul\":22696:22699   */\n      dup3\n        /* \"#utility.yul\":22607:22700   */\n      tag_480\n      jump\t// in\n    tag_709:\n        /* \"#utility.yul\":22725:22727   */\n      0x40\n        /* \"#utility.yul\":22720:22723   */\n      dup3\n        /* \"#utility.yul\":22716:22728   */\n      add\n        /* \"#utility.yul\":22709:22728   */\n      swap1\n      pop\n        /* \"#utility.yul\":22368:22734   */\n      swap2\n      swap1\n      pop\n      jump\t// out\n        /* \"#utility.yul\":22740:23159   */\n    tag_326:\n        /* \"#utility.yul\":22906:22910   */\n      0x00\n        /* \"#utility.yul\":22944:22946   */\n      0x20\n        /* \"#utility.yul\":22933:22942   */\n      dup3\n        /* \"#utility.yul\":22929:22947   */\n      add\n        /* \"#utility.yul\":22921:22947   */\n      swap1\n      pop\n        /* \"#utility.yul\":22993:23002   */\n      dup2\n        /* \"#utility.yul\":22987:22991   */\n      dup2\n        /* \"#utility.yul\":22983:23003   */\n      sub\n        /* \"#utility.yul\":22979:22980   */\n      0x00\n        /* \"#utility.yul\":22968:22977   */\n      dup4\n        /* \"#utility.yul\":22964:22981   */\n      add\n        /* \"#utility.yul\":22957:23004   */\n      mstore\n        /* \"#utility.yul\":23021:23152   */\n      tag_711\n        /* \"#utility.yul\":23147:23151   */\n      dup2\n        /* \"#utility.yul\":23021:23152   */\n      tag_481\n      jump\t// in\n    tag_711:\n        /* \"#utility.yul\":23013:23152   */\n      swap1\n      pop\n        /* \"#utility.yul\":22740:23159   */\n      swap2\n      swap1\n      pop\n      jump\t// out\n        /* \"#utility.yul\":23165:23345   */\n    tag_334:\n        /* \"#utility.yul\":23213:23290   */\n      0x4e487b7100000000000000000000000000000000000000000000000000000000\n        /* \"#utility.yul\":23210:23211   */\n      0x00\n        /* \"#utility.yul\":23203:23291   */\n      mstore\n        /* \"#utility.yul\":23310:23314   */\n      0x41\n        /* \"#utility.yul\":23307:23308   */\n      0x04\n        /* \"#utility.yul\":23300:23315   */\n      mstore\n        /* \"#utility.yul\":23334:23338   */\n      0x24\n        /* \"#utility.yul\":23331:23332   */\n      0x00\n        /* \"#utility.yul\":23324:23339   */\n      revert\n        /* \"#utility.yul\":23351:23494   */\n    tag_482:\n        /* \"#utility.yul\":23408:23413   */\n      0x00\n        /* \"#utility.yul\":23439:23445   */\n      dup2\n        /* \"#utility.yul\":23433:23446   */\n      mload\n        /* \"#utility.yul\":23424:23446   */\n      swap1\n      pop\n        /* \"#utility.yul\":23455:23488   */\n      tag_714\n        /* \"#utility.yul\":23482:23487   */\n      dup2\n        /* \"#utility.yul\":23455:23488   */\n      tag_433\n      jump\t// in\n    tag_714:\n        /* \"#utility.yul\":23351:23494   */\n      swap3\n      swap2\n      pop\n      pop\n      jump\t// out\n        /* \"#utility.yul\":23500:23851   */\n    tag_341:\n        /* \"#utility.yul\":23570:23576   */\n      0x00\n        /* \"#utility.yul\":23619:23621   */\n      0x20\n        /* \"#utility.yul\":23607:23616   */\n      dup3\n        /* \"#utility.yul\":23598:23605   */\n      dup5\n        /* \"#utility.yul\":23594:23617   */\n      sub\n        /* \"#utility.yul\":23590:23622   */\n      slt\n        /* \"#utility.yul\":23587:23706   */\n      iszero\n      tag_716\n      jumpi\n        /* \"#utility.yul\":23625:23704   */\n      tag_717\n      tag_429\n      jump\t// in\n    tag_717:\n        /* \"#utility.yul\":23587:23706   */\n    tag_716:\n        /* \"#utility.yul\":23745:23746   */\n      0x00\n        /* \"#utility.yul\":23770:23834   */\n      tag_718\n        /* \"#utility.yul\":23826:23833   */\n      dup5\n        /* \"#utility.yul\":23817:23823   */\n      dup3\n        /* \"#utility.yul\":23806:23815   */\n      dup6\n        /* \"#utility.yul\":23802:23824   */\n      add\n        /* \"#utility.yul\":23770:23834   */\n      tag_482\n      jump\t// in\n    tag_718:\n        /* \"#utility.yul\":23760:23834   */\n      swap2\n      pop\n        /* \"#utility.yul\":23716:23844   */\n      pop\n        /* \"#utility.yul\":23500:23851   */\n      swap3\n      swap2\n      pop\n      pop\n      jump\t// out\n        /* \"#utility.yul\":23857:23942   */\n    tag_483:\n        /* \"#utility.yul\":23902:23909   */\n      0x00\n        /* \"#utility.yul\":23931:23936   */\n      dup2\n        /* \"#utility.yul\":23920:23936   */\n      swap1\n      pop\n        /* \"#utility.yul\":23857:23942   */\n      swap2\n      swap1\n      pop\n      jump\t// out\n        /* \"#utility.yul\":23948:24106   */\n    tag_484:\n        /* \"#utility.yul\":24006:24015   */\n      0x00\n        /* \"#utility.yul\":24039:24100   */\n      tag_721\n        /* \"#utility.yul\":24057:24099   */\n      tag_722\n        /* \"#utility.yul\":24066:24098   */\n      tag_723\n        /* \"#utility.yul\":24092:24097   */\n      dup5\n        /* \"#utility.yul\":24066:24098   */\n      tag_483\n      jump\t// in\n    tag_723:\n        /* \"#utility.yul\":24057:24099   */\n      tag_440\n      jump\t// in\n    tag_722:\n        /* \"#utility.yul\":24039:24100   */\n      tag_435\n      jump\t// in\n    tag_721:\n        /* \"#utility.yul\":24026:24100   */\n      swap1\n      pop\n        /* \"#utility.yul\":23948:24106   */\n      swap2\n      swap1\n      pop\n      jump\t// out\n        /* \"#utility.yul\":24112:24259   */\n    tag_485:\n        /* \"#utility.yul\":24207:24252   */\n      tag_725\n        /* \"#utility.yul\":24246:24251   */\n      dup2\n        /* \"#utility.yul\":24207:24252   */\n      tag_484\n      jump\t// in\n    tag_725:\n        /* \"#utility.yul\":24202:24205   */\n      dup3\n        /* \"#utility.yul\":24195:24253   */\n      mstore\n        /* \"#utility.yul\":24112:24259   */\n      pop\n      pop\n      jump\t// out\n        /* \"#utility.yul\":24265:24379   */\n    tag_486:\n        /* \"#utility.yul\":24332:24338   */\n      0x00\n        /* \"#utility.yul\":24366:24371   */\n      dup2\n        /* \"#utility.yul\":24360:24372   */\n      mload\n        /* \"#utility.yul\":24350:24372   */\n      swap1\n      pop\n        /* \"#utility.yul\":24265:24379   */\n      swap2\n      swap1\n      pop\n      jump\t// out\n        /* \"#utility.yul\":24385:24569   */\n    tag_487:\n        /* \"#utility.yul\":24484:24495   */\n      0x00\n        /* \"#utility.yul\":24518:24524   */\n      dup3\n        /* \"#utility.yul\":24513:24516   */\n      dup3\n        /* \"#utility.yul\":24506:24525   */\n      mstore\n        /* \"#utility.yul\":24558:24562   */\n      0x20\n        /* \"#utility.yul\":24553:24556   */\n      dup3\n        /* \"#utility.yul\":24549:24563   */\n      add\n        /* \"#utility.yul\":24534:24563   */\n      swap1\n      pop\n        /* \"#utility.yul\":24385:24569   */\n      swap3\n      swap2\n      pop\n      pop\n      jump\t// out\n        /* \"#utility.yul\":24575:24707   */\n    tag_488:\n        /* \"#utility.yul\":24642:24646   */\n      0x00\n        /* \"#utility.yul\":24665:24668   */\n      dup2\n        /* \"#utility.yul\":24657:24668   */\n      swap1\n      pop\n        /* \"#utility.yul\":24695:24699   */\n      0x20\n        /* \"#utility.yul\":24690:24693   */\n      dup3\n        /* \"#utility.yul\":24686:24700   */\n      add\n        /* \"#utility.yul\":24678:24700   */\n      swap1\n      pop\n        /* \"#utility.yul\":24575:24707   */\n      swap2\n      swap1\n      pop\n      jump\t// out\n        /* \"#utility.yul\":24713:24821   */\n    tag_489:\n        /* \"#utility.yul\":24790:24814   */\n      tag_730\n        /* \"#utility.yul\":24808:24813   */\n      dup2\n        /* \"#utility.yul\":24790:24814   */\n      tag_432\n      jump\t// in\n    tag_730:\n        /* \"#utility.yul\":24785:24788   */\n      dup3\n        /* \"#utility.yul\":24778:24815   */\n      mstore\n        /* \"#utility.yul\":24713:24821   */\n      pop\n      pop\n      jump\t// out\n        /* \"#utility.yul\":24827:25006   */\n    tag_490:\n        /* \"#utility.yul\":24896:24906   */\n      0x00\n        /* \"#utility.yul\":24917:24963   */\n      tag_732\n        /* \"#utility.yul\":24959:24962   */\n      dup4\n        /* \"#utility.yul\":24951:24957   */\n      dup4\n        /* \"#utility.yul\":24917:24963   */\n      tag_489\n      jump\t// in\n    tag_732:\n        /* \"#utility.yul\":24995:24999   */\n      0x20\n        /* \"#utility.yul\":24990:24993   */\n      dup4\n        /* \"#utility.yul\":24986:25000   */\n      add\n        /* \"#utility.yul\":24972:25000   */\n      swap1\n      pop\n        /* \"#utility.yul\":24827:25006   */\n      swap3\n      swap2\n      pop\n      pop\n      jump\t// out\n        /* \"#utility.yul\":25012:25125   */\n    tag_491:\n        /* \"#utility.yul\":25082:25086   */\n      0x00\n        /* \"#utility.yul\":25114:25118   */\n      0x20\n        /* \"#utility.yul\":25109:25112   */\n      dup3\n        /* \"#utility.yul\":25105:25119   */\n      add\n        /* \"#utility.yul\":25097:25119   */\n      swap1\n      pop\n        /* \"#utility.yul\":25012:25125   */\n      swap2\n      swap1\n      pop\n      jump\t// out\n        /* \"#utility.yul\":25161:25893   */\n    tag_492:\n        /* \"#utility.yul\":25280:25283   */\n      0x00\n        /* \"#utility.yul\":25309:25363   */\n      tag_735\n        /* \"#utility.yul\":25357:25362   */\n      dup3\n        /* \"#utility.yul\":25309:25363   */\n      tag_486\n      jump\t// in\n    tag_735:\n        /* \"#utility.yul\":25379:25465   */\n      tag_736\n        /* \"#utility.yul\":25458:25464   */\n      dup2\n        /* \"#utility.yul\":25453:25456   */\n      dup6\n        /* \"#utility.yul\":25379:25465   */\n      tag_487\n      jump\t// in\n    tag_736:\n        /* \"#utility.yul\":25372:25465   */\n      swap4\n      pop\n        /* \"#utility.yul\":25489:25545   */\n      tag_737\n        /* \"#utility.yul\":25539:25544   */\n      dup4\n        /* \"#utility.yul\":25489:25545   */\n      tag_488\n      jump\t// in\n    tag_737:\n        /* \"#utility.yul\":25568:25575   */\n      dup1\n        /* \"#utility.yul\":25599:25600   */\n      0x00\n        /* \"#utility.yul\":25584:25868   */\n    tag_738:\n        /* \"#utility.yul\":25609:25615   */\n      dup4\n        /* \"#utility.yul\":25606:25607   */\n      dup2\n        /* \"#utility.yul\":25603:25616   */\n      lt\n        /* \"#utility.yul\":25584:25868   */\n      iszero\n      tag_740\n      jumpi\n        /* \"#utility.yul\":25685:25691   */\n      dup2\n        /* \"#utility.yul\":25679:25692   */\n      mload\n        /* \"#utility.yul\":25712:25775   */\n      tag_741\n        /* \"#utility.yul\":25771:25774   */\n      dup9\n        /* \"#utility.yul\":25756:25769   */\n      dup3\n        /* \"#utility.yul\":25712:25775   */\n      tag_490\n      jump\t// in\n    tag_741:\n        /* \"#utility.yul\":25705:25775   */\n      swap8\n      pop\n        /* \"#utility.yul\":25798:25858   */\n      tag_742\n        /* \"#utility.yul\":25851:25857   */\n      dup4\n        /* \"#utility.yul\":25798:25858   */\n      tag_491\n      jump\t// in\n    tag_742:\n        /* \"#utility.yul\":25788:25858   */\n      swap3\n      pop\n        /* \"#utility.yul\":25644:25868   */\n      pop\n        /* \"#utility.yul\":25631:25632   */\n      0x01\n        /* \"#utility.yul\":25628:25629   */\n      dup2\n        /* \"#utility.yul\":25624:25633   */\n      add\n        /* \"#utility.yul\":25619:25633   */\n      swap1\n      pop\n        /* \"#utility.yul\":25584:25868   */\n      jump(tag_738)\n    tag_740:\n        /* \"#utility.yul\":25588:25602   */\n      pop\n        /* \"#utility.yul\":25884:25887   */\n      dup6\n        /* \"#utility.yul\":25877:25887   */\n      swap4\n      pop\n        /* \"#utility.yul\":25285:25893   */\n      pop\n      pop\n      pop\n        /* \"#utility.yul\":25161:25893   */\n      swap3\n      swap2\n      pop\n      pop\n      jump\t// out\n        /* \"#utility.yul\":25899:26730   */\n    tag_346:\n        /* \"#utility.yul\":26162:26166   */\n      0x00\n        /* \"#utility.yul\":26200:26203   */\n      0xa0\n        /* \"#utility.yul\":26189:26198   */\n      dup3\n        /* \"#utility.yul\":26185:26204   */\n      add\n        /* \"#utility.yul\":26177:26204   */\n      swap1\n      pop\n        /* \"#utility.yul\":26214:26285   */\n      tag_744\n        /* \"#utility.yul\":26282:26283   */\n      0x00\n        /* \"#utility.yul\":26271:26280   */\n      dup4\n        /* \"#utility.yul\":26267:26284   */\n      add\n        /* \"#utility.yul\":26258:26264   */\n      dup9\n        /* \"#utility.yul\":26214:26285   */\n      tag_445\n      jump\t// in\n    tag_744:\n        /* \"#utility.yul\":26295:26375   */\n      tag_745\n        /* \"#utility.yul\":26371:26373   */\n      0x20\n        /* \"#utility.yul\":26360:26369   */\n      dup4\n        /* \"#utility.yul\":26356:26374   */\n      add\n        /* \"#utility.yul\":26347:26353   */\n      dup8\n        /* \"#utility.yul\":26295:26375   */\n      tag_485\n      jump\t// in\n    tag_745:\n        /* \"#utility.yul\":26422:26431   */\n      dup2\n        /* \"#utility.yul\":26416:26420   */\n      dup2\n        /* \"#utility.yul\":26412:26432   */\n      sub\n        /* \"#utility.yul\":26407:26409   */\n      0x40\n        /* \"#utility.yul\":26396:26405   */\n      dup4\n        /* \"#utility.yul\":26392:26410   */\n      add\n        /* \"#utility.yul\":26385:26433   */\n      mstore\n        /* \"#utility.yul\":26450:26558   */\n      tag_746\n        /* \"#utility.yul\":26553:26557   */\n      dup2\n        /* \"#utility.yul\":26544:26550   */\n      dup7\n        /* \"#utility.yul\":26450:26558   */\n      tag_492\n      jump\t// in\n    tag_746:\n        /* \"#utility.yul\":26442:26558   */\n      swap1\n      pop\n        /* \"#utility.yul\":26568:26640   */\n      tag_747\n        /* \"#utility.yul\":26636:26638   */\n      0x60\n        /* \"#utility.yul\":26625:26634   */\n      dup4\n        /* \"#utility.yul\":26621:26639   */\n      add\n        /* \"#utility.yul\":26612:26618   */\n      dup6\n        /* \"#utility.yul\":26568:26640   */\n      tag_448\n      jump\t// in\n    tag_747:\n        /* \"#utility.yul\":26650:26723   */\n      tag_748\n        /* \"#utility.yul\":26718:26721   */\n      0x80\n        /* \"#utility.yul\":26707:26716   */\n      dup4\n        /* \"#utility.yul\":26703:26722   */\n      add\n        /* \"#utility.yul\":26694:26700   */\n      dup5\n        /* \"#utility.yul\":26650:26723   */\n      tag_445\n      jump\t// in\n    tag_748:\n        /* \"#utility.yul\":25899:26730   */\n      swap7\n      swap6\n      pop\n      pop\n      pop\n      pop\n      pop\n      pop\n      jump\t// out\n        /* \"#utility.yul\":26736:26916   */\n    tag_493:\n        /* \"#utility.yul\":26784:26861   */\n      0x4e487b7100000000000000000000000000000000000000000000000000000000\n        /* \"#utility.yul\":26781:26782   */\n      0x00\n        /* \"#utility.yul\":26774:26862   */\n      mstore\n        /* \"#utility.yul\":26881:26885   */\n      0x12\n        /* \"#utility.yul\":26878:26879   */\n      0x04\n        /* \"#utility.yul\":26871:26886   */\n      mstore\n        /* \"#utility.yul\":26905:26909   */\n      0x24\n        /* \"#utility.yul\":26902:26903   */\n      0x00\n        /* \"#utility.yul\":26895:26910   */\n      revert\n        /* \"#utility.yul\":26922:27107   */\n    tag_376:\n        /* \"#utility.yul\":26962:26963   */\n      0x00\n        /* \"#utility.yul\":26979:26999   */\n      tag_751\n        /* \"#utility.yul\":26997:26998   */\n      dup3\n        /* \"#utility.yul\":26979:26999   */\n      tag_435\n      jump\t// in\n    tag_751:\n        /* \"#utility.yul\":26974:26999   */\n      swap2\n      pop\n        /* \"#utility.yul\":27013:27033   */\n      tag_752\n        /* \"#utility.yul\":27031:27032   */\n      dup4\n        /* \"#utility.yul\":27013:27033   */\n      tag_435\n      jump\t// in\n    tag_752:\n        /* \"#utility.yul\":27008:27033   */\n      swap3\n      pop\n        /* \"#utility.yul\":27052:27053   */\n      dup3\n        /* \"#utility.yul\":27042:27077   */\n      tag_753\n      jumpi\n        /* \"#utility.yul\":27057:27075   */\n      tag_754\n      tag_493\n      jump\t// in\n    tag_754:\n        /* \"#utility.yul\":27042:27077   */\n    tag_753:\n        /* \"#utility.yul\":27099:27100   */\n      dup3\n        /* \"#utility.yul\":27096:27097   */\n      dup3\n        /* \"#utility.yul\":27092:27101   */\n      div\n        /* \"#utility.yul\":27087:27101   */\n      swap1\n      pop\n        /* \"#utility.yul\":26922:27107   */\n      swap3\n      swap2\n      pop\n      pop\n      jump\t// out\n        /* \"#utility.yul\":27113:27418   */\n    tag_390:\n        /* \"#utility.yul\":27153:27156   */\n      0x00\n        /* \"#utility.yul\":27172:27192   */\n      tag_756\n        /* \"#utility.yul\":27190:27191   */\n      dup3\n        /* \"#utility.yul\":27172:27192   */\n      tag_435\n      jump\t// in\n    tag_756:\n        /* \"#utility.yul\":27167:27192   */\n      swap2\n      pop\n        /* \"#utility.yul\":27206:27226   */\n      tag_757\n        /* \"#utility.yul\":27224:27225   */\n      dup4\n        /* \"#utility.yul\":27206:27226   */\n      tag_435\n      jump\t// in\n    tag_757:\n        /* \"#utility.yul\":27201:27226   */\n      swap3\n      pop\n        /* \"#utility.yul\":27360:27361   */\n      dup3\n        /* \"#utility.yul\":27292:27358   */\n      0xffffffffffffffffffffffffffffffffffffffffffffffffffffffffffffffff\n        /* \"#utility.yul\":27288:27362   */\n      sub\n        /* \"#utility.yul\":27285:27286   */\n      dup3\n        /* \"#utility.yul\":27282:27363   */\n      gt\n        /* \"#utility.yul\":27279:27386   */\n      iszero\n      tag_758\n      jumpi\n        /* \"#utility.yul\":27366:27384   */\n      tag_759\n      tag_468\n      jump\t// in\n    tag_759:\n        /* \"#utility.yul\":27279:27386   */\n    tag_758:\n        /* \"#utility.yul\":27410:27411   */\n      dup3\n        /* \"#utility.yul\":27407:27408   */\n      dup3\n        /* \"#utility.yul\":27403:27412   */\n      add\n        /* \"#utility.yul\":27396:27412   */\n      swap1\n      pop\n        /* \"#utility.yul\":27113:27418   */\n      swap3\n      swap2\n      pop\n      pop\n      jump\t// out\n        /* \"#utility.yul\":27424:27601   */\n    tag_494:\n        /* \"#utility.yul\":27564:27593   */\n      0x536166654d6174683a206164646974696f6e206f766572666c6f770000000000\n        /* \"#utility.yul\":27560:27561   */\n      0x00\n        /* \"#utility.yul\":27552:27558   */\n      dup3\n        /* \"#utility.yul\":27548:27562   */\n      add\n        /* \"#utility.yul\":27541:27594   */\n      mstore\n        /* \"#utility.yul\":27424:27601   */\n      pop\n      jump\t// out\n        /* \"#utility.yul\":27607:27973   */\n    tag_495:\n        /* \"#utility.yul\":27749:27752   */\n      0x00\n        /* \"#utility.yul\":27770:27837   */\n      tag_762\n        /* \"#utility.yul\":27834:27836   */\n      0x1b\n        /* \"#utility.yul\":27829:27832   */\n      dup4\n        /* \"#utility.yul\":27770:27837   */\n      tag_424\n      jump\t// in\n    tag_762:\n        /* \"#utility.yul\":27763:27837   */\n      swap2\n      pop\n        /* \"#utility.yul\":27846:27939   */\n      tag_763\n        /* \"#utility.yul\":27935:27938   */\n      dup3\n        /* \"#utility.yul\":27846:27939   */\n      tag_494\n      jump\t// in\n    tag_763:\n        /* \"#utility.yul\":27964:27966   */\n      0x20\n        /* \"#utility.yul\":27959:27962   */\n      dup3\n        /* \"#utility.yul\":27955:27967   */\n      add\n        /* \"#utility.yul\":27948:27967   */\n      swap1\n      pop\n        /* \"#utility.yul\":27607:27973   */\n      swap2\n      swap1\n      pop\n      jump\t// out\n        /* \"#utility.yul\":27979:28398   */\n    tag_393:\n        /* \"#utility.yul\":28145:28149   */\n      0x00\n        /* \"#utility.yul\":28183:28185   */\n      0x20\n        /* \"#utility.yul\":28172:28181   */\n      dup3\n        /* \"#utility.yul\":28168:28186   */\n      add\n        /* \"#utility.yul\":28160:28186   */\n      swap1\n      pop\n        /* \"#utility.yul\":28232:28241   */\n      dup2\n        /* \"#utility.yul\":28226:28230   */\n      dup2\n        /* \"#utility.yul\":28222:28242   */\n      sub\n        /* \"#utility.yul\":28218:28219   */\n      0x00\n        /* \"#utility.yul\":28207:28216   */\n      dup4\n        /* \"#utility.yul\":28203:28220   */\n      add\n        /* \"#utility.yul\":28196:28243   */\n      mstore\n        /* \"#utility.yul\":28260:28391   */\n      tag_765\n        /* \"#utility.yul\":28386:28390   */\n      dup2\n        /* \"#utility.yul\":28260:28391   */\n      tag_495\n      jump\t// in\n    tag_765:\n        /* \"#utility.yul\":28252:28391   */\n      swap1\n      pop\n        /* \"#utility.yul\":27979:28398   */\n      swap2\n      swap1\n      pop\n      jump\t// out\n        /* \"#utility.yul\":28404:28752   */\n    tag_418:\n        /* \"#utility.yul\":28444:28451   */\n      0x00\n        /* \"#utility.yul\":28467:28487   */\n      tag_767\n        /* \"#utility.yul\":28485:28486   */\n      dup3\n        /* \"#utility.yul\":28467:28487   */\n      tag_435\n      jump\t// in\n    tag_767:\n        /* \"#utility.yul\":28462:28487   */\n      swap2\n      pop\n        /* \"#utility.yul\":28501:28521   */\n      tag_768\n        /* \"#utility.yul\":28519:28520   */\n      dup4\n        /* \"#utility.yul\":28501:28521   */\n      tag_435\n      jump\t// in\n    tag_768:\n        /* \"#utility.yul\":28496:28521   */\n      swap3\n      pop\n        /* \"#utility.yul\":28689:28690   */\n      dup2\n        /* \"#utility.yul\":28621:28687   */\n      0xffffffffffffffffffffffffffffffffffffffffffffffffffffffffffffffff\n        /* \"#utility.yul\":28617:28691   */\n      div\n        /* \"#utility.yul\":28614:28615   */\n      dup4\n        /* \"#utility.yul\":28611:28692   */\n      gt\n        /* \"#utility.yul\":28606:28607   */\n      dup3\n        /* \"#utility.yul\":28599:28608   */\n      iszero\n        /* \"#utility.yul\":28592:28609   */\n      iszero\n        /* \"#utility.yul\":28588:28693   */\n      and\n        /* \"#utility.yul\":28585:28716   */\n      iszero\n      tag_769\n      jumpi\n        /* \"#utility.yul\":28696:28714   */\n      tag_770\n      tag_468\n      jump\t// in\n    tag_770:\n        /* \"#utility.yul\":28585:28716   */\n    tag_769:\n        /* \"#utility.yul\":28744:28745   */\n      dup3\n        /* \"#utility.yul\":28741:28742   */\n      dup3\n        /* \"#utility.yul\":28737:28746   */\n      mul\n        /* \"#utility.yul\":28726:28746   */\n      swap1\n      pop\n        /* \"#utility.yul\":28404:28752   */\n      swap3\n      swap2\n      pop\n      pop\n      jump\t// out\n        /* \"#utility.yul\":28758:28978   */\n    tag_496:\n        /* \"#utility.yul\":28898:28932   */\n      0x536166654d6174683a206d756c7469706c69636174696f6e206f766572666c6f\n        /* \"#utility.yul\":28894:28895   */\n      0x00\n        /* \"#utility.yul\":28886:28892   */\n      dup3\n        /* \"#utility.yul\":28882:28896   */\n      add\n        /* \"#utility.yul\":28875:28933   */\n      mstore\n        /* \"#utility.yul\":28967:28970   */\n      0x7700000000000000000000000000000000000000000000000000000000000000\n        /* \"#utility.yul\":28962:28964   */\n      0x20\n        /* \"#utility.yul\":28954:28960   */\n      dup3\n        /* \"#utility.yul\":28950:28965   */\n      add\n        /* \"#utility.yul\":28943:28971   */\n      mstore\n        /* \"#utility.yul\":28758:28978   */\n      pop\n      jump\t// out\n        /* \"#utility.yul\":28984:29350   */\n    tag_497:\n        /* \"#utility.yul\":29126:29129   */\n      0x00\n        /* \"#utility.yul\":29147:29214   */\n      tag_773\n        /* \"#utility.yul\":29211:29213   */\n      0x21\n        /* \"#utility.yul\":29206:29209   */\n      dup4\n        /* \"#utility.yul\":29147:29214   */\n      tag_424\n      jump\t// in\n    tag_773:\n        /* \"#utility.yul\":29140:29214   */\n      swap2\n      pop\n        /* \"#utility.yul\":29223:29316   */\n      tag_774\n        /* \"#utility.yul\":29312:29315   */\n      dup3\n        /* \"#utility.yul\":29223:29316   */\n      tag_496\n      jump\t// in\n    tag_774:\n        /* \"#utility.yul\":29341:29343   */\n      0x40\n        /* \"#utility.yul\":29336:29339   */\n      dup3\n        /* \"#utility.yul\":29332:29344   */\n      add\n        /* \"#utility.yul\":29325:29344   */\n      swap1\n      pop\n        /* \"#utility.yul\":28984:29350   */\n      swap2\n      swap1\n      pop\n      jump\t// out\n        /* \"#utility.yul\":29356:29775   */\n    tag_422:\n        /* \"#utility.yul\":29522:29526   */\n      0x00\n        /* \"#utility.yul\":29560:29562   */\n      0x20\n        /* \"#utility.yul\":29549:29558   */\n      dup3\n        /* \"#utility.yul\":29545:29563   */\n      add\n        /* \"#utility.yul\":29537:29563   */\n      swap1\n      pop\n        /* \"#utility.yul\":29609:29618   */\n      dup2\n        /* \"#utility.yul\":29603:29607   */\n      dup2\n        /* \"#utility.yul\":29599:29619   */\n      sub\n        /* \"#utility.yul\":29595:29596   */\n      0x00\n        /* \"#utility.yul\":29584:29593   */\n      dup4\n        /* \"#utility.yul\":29580:29597   */\n      add\n        /* \"#utility.yul\":29573:29620   */\n      mstore\n        /* \"#utility.yul\":29637:29768   */\n      tag_776\n        /* \"#utility.yul\":29763:29767   */\n      dup2\n        /* \"#utility.yul\":29637:29768   */\n      tag_497\n      jump\t// in\n    tag_776:\n        /* \"#utility.yul\":29629:29768   */\n      swap1\n      pop\n        /* \"#utility.yul\":29356:29775   */\n      swap2\n      swap1\n      pop\n      jump\t// out\n    stop\n    data_974d1b4421da69cc60b481194f0dad36a5bb4e23da810da7a7fb30cdba178330 45524332303a207472616e7366657220616d6f756e74206578636565647320616c6c6f77616e6365\n\n    auxdata: 0xa264697066735822122034a343b6863515eb6005e527405abf9a1374bbfc3b7a501d74ee775b583402ad64736f6c634300080d0033\n}\n",
				"bytecode": {
					"linkReferences": {},
					"object": "6080604052670de0b6b3a76400006414f46b04006200001f9190620006e3565b6414f46b04006200003191906200074a565b600655600160085560046009556001600a556001600b55738492cbd894686d7e98214541903c7ba6f94928d6600e60006101000a81548173ffffffffffffffffffffffffffffffffffffffff021916908373ffffffffffffffffffffffffffffffffffffffff16021790555073a4ed7aa4ef5deb0a63e97d9cb77445ae553feb1d600f60006101000a81548173ffffffffffffffffffffffffffffffffffffffff021916908373ffffffffffffffffffffffffffffffffffffffff1602179055506000601260146101000a81548160ff0219169083151502179055506001601260156101000a81548160ff0219169083151502179055503480156200013557600080fd5b506000620001486200067960201b60201c565b9050806000806101000a81548173ffffffffffffffffffffffffffffffffffffffff021916908373ffffffffffffffffffffffffffffffffffffffff1602179055508073ffffffffffffffffffffffffffffffffffffffff16600073ffffffffffffffffffffffffffffffffffffffff167f8be0079c531659141344cd1fd0a4f28419497f9722a3daafe3b4186f6b6457e060405160405180910390a35060065460026000620001fd6200067960201b60201c565b73ffffffffffffffffffffffffffffffffffffffff1673ffffffffffffffffffffffffffffffffffffffff1681526020019081526020016000208190555060007310ed43c718714eb63d5aa57b78b54704e256024e905080601060006101000a81548173ffffffffffffffffffffffffffffffffffffffff021916908373ffffffffffffffffffffffffffffffffffffffff16021790555073ca143ce32fe78f1f7019d7d551a6402fc5350c73601160006101000a81548173ffffffffffffffffffffffffffffffffffffffff021916908373ffffffffffffffffffffffffffffffffffffffff160217905550601160009054906101000a900473ffffffffffffffffffffffffffffffffffffffff1673ffffffffffffffffffffffffffffffffffffffff1663c9c65396308373ffffffffffffffffffffffffffffffffffffffff1663ad5c46486040518163ffffffff1660e01b8152600401602060405180830381865afa15801562000375573d6000803e3d6000fd5b505050506040513d601f19601f820116820180604052508101906200039b9190620007ef565b6040518363ffffffff1660e01b8152600401620003ba92919062000832565b6020604051808303816000875af1158015620003da573d6000803e3d6000fd5b505050506040513d601f19601f82011682018060405250810190620004009190620007ef565b601260006101000a81548173ffffffffffffffffffffffffffffffffffffffff021916908373ffffffffffffffffffffffffffffffffffffffff160217905550600160056000620004566200068160201b60201c565b73ffffffffffffffffffffffffffffffffffffffff1673ffffffffffffffffffffffffffffffffffffffff16815260200190815260200160002060006101000a81548160ff0219169083151502179055506001600560003073ffffffffffffffffffffffffffffffffffffffff1673ffffffffffffffffffffffffffffffffffffffff16815260200190815260200160002060006101000a81548160ff021916908315150217905550600160056000600e60009054906101000a900473ffffffffffffffffffffffffffffffffffffffff1673ffffffffffffffffffffffffffffffffffffffff1673ffffffffffffffffffffffffffffffffffffffff16815260200190815260200160002060006101000a81548160ff021916908315150217905550600160056000600f60009054906101000a900473ffffffffffffffffffffffffffffffffffffffff1673ffffffffffffffffffffffffffffffffffffffff1673ffffffffffffffffffffffffffffffffffffffff16815260200190815260200160002060006101000a81548160ff021916908315150217905550620006036200067960201b60201c565b73ffffffffffffffffffffffffffffffffffffffff16600073ffffffffffffffffffffffffffffffffffffffff167fddf252ad1be2c89b69c2b068fc378daa952ba7f163c4a11628f55a4df523b3ef670de0b6b3a76400006040516200066a919062000870565b60405180910390a3506200088d565b600033905090565b60008060009054906101000a900473ffffffffffffffffffffffffffffffffffffffff16905090565b6000819050919050565b7f4e487b7100000000000000000000000000000000000000000000000000000000600052601260045260246000fd5b6000620006f082620006aa565b9150620006fd83620006aa565b92508262000710576200070f620006b4565b5b828206905092915050565b7f4e487b7100000000000000000000000000000000000000000000000000000000600052601160045260246000fd5b60006200075782620006aa565b91506200076483620006aa565b9250828210156200077a57620007796200071b565b5b828203905092915050565b600080fd5b600073ffffffffffffffffffffffffffffffffffffffff82169050919050565b6000620007b7826200078a565b9050919050565b620007c981620007aa565b8114620007d557600080fd5b50565b600081519050620007e981620007be565b92915050565b60006020828403121562000808576200080762000785565b5b60006200081884828501620007d8565b91505092915050565b6200082c81620007aa565b82525050565b600060408201905062000849600083018562000821565b62000858602083018462000821565b9392505050565b6200086a81620006aa565b82525050565b60006020820190506200088760008301846200085f565b92915050565b6139e4806200089d6000396000f3fe6080604052600436106101445760003560e01c8063715018a6116100b6578063aad5c0231161006f578063aad5c02314610445578063c3c8cd801461046e578063c492f04614610485578063dd62ed3e146104ae578063e293d316146104eb578063f2fde38b146105145761014b565b8063715018a614610349578063758dbe03146103605780638da5cb5b1461038957806395d89b41146103b4578063a2a957bb146103df578063a9059cbb146104085761014b565b8063313ce56711610108578063313ce5671461024b57806349bd5a5e1461027657806359d0f713146102a15780636d8aa8f8146102cc5780636fc3eaec146102f557806370a082311461030c5761014b565b806306fdde0314610150578063095ea7b31461017b5780631694505e146101b857806318160ddd146101e357806323b872dd1461020e5761014b565b3661014b57005b600080fd5b34801561015c57600080fd5b5061016561053d565b6040516101729190612a2c565b60405180910390f35b34801561018757600080fd5b506101a2600480360381019061019d9190612aec565b61057a565b6040516101af9190612b47565b60405180910390f35b3480156101c457600080fd5b506101cd610598565b6040516101da9190612bc1565b60405180910390f35b3480156101ef57600080fd5b506101f86105be565b6040516102059190612beb565b60405180910390f35b34801561021a57600080fd5b5061023560048036038101906102309190612c06565b6105ce565b6040516102429190612b47565b60405180910390f35b34801561025757600080fd5b506102606106a7565b60405161026d9190612c75565b60405180910390f35b34801561028257600080fd5b5061028b6106b0565b6040516102989190612c9f565b60405180910390f35b3480156102ad57600080fd5b506102b66106d6565b6040516102c39190612cdb565b60405180910390f35b3480156102d857600080fd5b506102f360048036038101906102ee9190612d22565b6106fc565b005b34801561030157600080fd5b5061030a6107f4565b005b34801561031857600080fd5b50610333600480360381019061032e9190612d4f565b610909565b6040516103409190612beb565b60405180910390f35b34801561035557600080fd5b5061035e61095a565b005b34801561036c57600080fd5b5061038760048036038101906103829190612dba565b610aad565b005b34801561039557600080fd5b5061039e610cc2565b6040516103ab9190612c9f565b60405180910390f35b3480156103c057600080fd5b506103c9610ceb565b6040516103d69190612a2c565b60405180910390f35b3480156103eb57600080fd5b5061040660048036038101906104019190612de7565b610d28565b005b34801561041457600080fd5b5061042f600480360381019061042a9190612aec565b610f31565b60405161043c9190612b47565b60405180910390f35b34801561045157600080fd5b5061046c60048036038101906104679190612dba565b610f4f565b005b34801561047a57600080fd5b50610483611164565b005b34801561049157600080fd5b506104ac60048036038101906104a79190612eb3565b611281565b005b3480156104ba57600080fd5b506104d560048036038101906104d09190612f13565b6113bb565b6040516104e29190612beb565b60405180910390f35b3480156104f757600080fd5b50610512600480360381019061050d9190612c06565b611442565b005b34801561052057600080fd5b5061053b60048036038101906105369190612d4f565b611606565b005b60606040518060400160405280600a81526020017f576f726c64205374657000000000000000000000000000000000000000000000815250905090565b600061058e610587611758565b8484611760565b6001905092915050565b601060009054906101000a900473ffffffffffffffffffffffffffffffffffffffff1681565b6000670de0b6b3a7640000905090565b60006105db848484611929565b61069c846105e7611758565b6106978560405180606001604052806028815260200161398760289139600460008b73ffffffffffffffffffffffffffffffffffffffff1673ffffffffffffffffffffffffffffffffffffffff168152602001908152602001600020600061064d611758565b73ffffffffffffffffffffffffffffffffffffffff1673ffffffffffffffffffffffffffffffffffffffff16815260200190815260200160002054611e9b9092919063ffffffff16565b611760565b600190509392505050565b60006009905090565b601260009054906101000a900473ffffffffffffffffffffffffffffffffffffffff1681565b601160009054906101000a900473ffffffffffffffffffffffffffffffffffffffff1681565b610704611758565b73ffffffffffffffffffffffffffffffffffffffff16610722610cc2565b73ffffffffffffffffffffffffffffffffffffffff1614806107985750610747611758565b73ffffffffffffffffffffffffffffffffffffffff16600e60009054906101000a900473ffffffffffffffffffffffffffffffffffffffff1673ffffffffffffffffffffffffffffffffffffffff16145b6107d7576040517f08c379a00000000000000000000000000000000000000000000000000000000081526004016107ce90612f9f565b60405180910390fd5b80601260156101000a81548160ff02191690831515021790555050565b600e60009054906101000a900473ffffffffffffffffffffffffffffffffffffffff1673ffffffffffffffffffffffffffffffffffffffff16610835611758565b73ffffffffffffffffffffffffffffffffffffffff1614806108ab5750600f60009054906101000a900473ffffffffffffffffffffffffffffffffffffffff1673ffffffffffffffffffffffffffffffffffffffff16610893611758565b73ffffffffffffffffffffffffffffffffffffffff16145b806108ef57506108b9610cc2565b73ffffffffffffffffffffffffffffffffffffffff166108d7611758565b73ffffffffffffffffffffffffffffffffffffffff16145b6108f857600080fd5b600047905061090681611eff565b50565b6000610953600260008473ffffffffffffffffffffffffffffffffffffffff1673ffffffffffffffffffffffffffffffffffffffff16815260200190815260200160002054611ffa565b9050919050565b610962611758565b73ffffffffffffffffffffffffffffffffffffffff1660008054906101000a900473ffffffffffffffffffffffffffffffffffffffff1673ffffffffffffffffffffffffffffffffffffffff16146109ef576040517f08c379a00000000000000000000000000000000000000000000000000000000081526004016109e69061300b565b60405180910390fd5b600073ffffffffffffffffffffffffffffffffffffffff1660008054906101000a900473ffffffffffffffffffffffffffffffffffffffff1673ffffffffffffffffffffffffffffffffffffffff167f8be0079c531659141344cd1fd0a4f28419497f9722a3daafe3b4186f6b6457e060405160405180910390a360008060006101000a81548173ffffffffffffffffffffffffffffffffffffffff021916908373ffffffffffffffffffffffffffffffffffffffff160217905550565b610ab5611758565b73ffffffffffffffffffffffffffffffffffffffff16610ad3610cc2565b73ffffffffffffffffffffffffffffffffffffffff161480610b495750610af8611758565b73ffffffffffffffffffffffffffffffffffffffff16600e60009054906101000a900473ffffffffffffffffffffffffffffffffffffffff1673ffffffffffffffffffffffffffffffffffffffff16145b610b88576040517f08c379a0000000000000000000000000000000000000000000000000000000008152600401610b7f90612f9f565b60405180910390fd5b8073ffffffffffffffffffffffffffffffffffffffff16600f60009054906101000a900473ffffffffffffffffffffffffffffffffffffffff1673ffffffffffffffffffffffffffffffffffffffff167fa64373a629bc0c09eacf8a9cc2c7b070fa0a8b7e2e9b8aaee408a3c02eb1676b60405160405180910390a380600f60006101000a81548173ffffffffffffffffffffffffffffffffffffffff021916908373ffffffffffffffffffffffffffffffffffffffff160217905550600160056000600f60009054906101000a900473ffffffffffffffffffffffffffffffffffffffff1673ffffffffffffffffffffffffffffffffffffffff1673ffffffffffffffffffffffffffffffffffffffff16815260200190815260200160002060006101000a81548160ff02191690831515021790555050565b60008060009054906101000a900473ffffffffffffffffffffffffffffffffffffffff16905090565b60606040518060400160405280600381526020017f5753500000000000000000000000000000000000000000000000000000000000815250905090565b610d30611758565b73ffffffffffffffffffffffffffffffffffffffff16610d4e610cc2565b73ffffffffffffffffffffffffffffffffffffffff161480610dc45750610d73611758565b73ffffffffffffffffffffffffffffffffffffffff16600e60009054906101000a900473ffffffffffffffffffffffffffffffffffffffff1673ffffffffffffffffffffffffffffffffffffffff16145b610e03576040517f08c379a0000000000000000000000000000000000000000000000000000000008152600401610dfa90612f9f565b60405180910390fd5b600b8410610e46576040517f08c379a0000000000000000000000000000000000000000000000000000000008152600401610e3d90613077565b60405180910390fd5b600b8310610e89576040517f08c379a0000000000000000000000000000000000000000000000000000000008152600401610e8090613077565b60405180910390fd5b60078210610ecc576040517f08c379a0000000000000000000000000000000000000000000000000000000008152600401610ec3906130e3565b60405180910390fd5b60078110610f0f576040517f08c379a0000000000000000000000000000000000000000000000000000000008152600401610f06906130e3565b60405180910390fd5b8360088190555082600a819055508160098190555080600b8190555050505050565b6000610f45610f3e611758565b8484611929565b6001905092915050565b610f57611758565b73ffffffffffffffffffffffffffffffffffffffff16610f75610cc2565b73ffffffffffffffffffffffffffffffffffffffff161480610feb5750610f9a611758565b73ffffffffffffffffffffffffffffffffffffffff16600e60009054906101000a900473ffffffffffffffffffffffffffffffffffffffff1673ffffffffffffffffffffffffffffffffffffffff16145b61102a576040517f08c379a000000000000000000000000000000000000000000000000000000000815260040161102190612f9f565b60405180910390fd5b8073ffffffffffffffffffffffffffffffffffffffff16600e60009054906101000a900473ffffffffffffffffffffffffffffffffffffffff1673ffffffffffffffffffffffffffffffffffffffff167ffbbc329437e8c79f847e170730ad6dd04106b7511cad70d06d635886d92de83c60405160405180910390a380600e60006101000a81548173ffffffffffffffffffffffffffffffffffffffff021916908373ffffffffffffffffffffffffffffffffffffffff160217905550600160056000600e60009054906101000a900473ffffffffffffffffffffffffffffffffffffffff1673ffffffffffffffffffffffffffffffffffffffff1673ffffffffffffffffffffffffffffffffffffffff16815260200190815260200160002060006101000a81548160ff02191690831515021790555050565b600e60009054906101000a900473ffffffffffffffffffffffffffffffffffffffff1673ffffffffffffffffffffffffffffffffffffffff166111a5611758565b73ffffffffffffffffffffffffffffffffffffffff16148061121b5750600f60009054906101000a900473ffffffffffffffffffffffffffffffffffffffff1673ffffffffffffffffffffffffffffffffffffffff16611203611758565b73ffffffffffffffffffffffffffffffffffffffff16145b8061125f5750611229610cc2565b73ffffffffffffffffffffffffffffffffffffffff16611247611758565b73ffffffffffffffffffffffffffffffffffffffff16145b61126857600080fd5b600061127330610909565b905061127e81612068565b50565b611289611758565b73ffffffffffffffffffffffffffffffffffffffff1660008054906101000a900473ffffffffffffffffffffffffffffffffffffffff1673ffffffffffffffffffffffffffffffffffffffff1614611316576040517f08c379a000000000000000000000000000000000000000000000000000000000815260040161130d9061300b565b60405180910390fd5b60005b838390508110156113b557816005600086868581811061133c5761133b613103565b5b90506020020160208101906113519190612d4f565b73ffffffffffffffffffffffffffffffffffffffff1673ffffffffffffffffffffffffffffffffffffffff16815260200190815260200160002060006101000a81548160ff02191690831515021790555080806113ad90613161565b915050611319565b50505050565b6000600460008473ffffffffffffffffffffffffffffffffffffffff1673ffffffffffffffffffffffffffffffffffffffff16815260200190815260200160002060008373ffffffffffffffffffffffffffffffffffffffff1673ffffffffffffffffffffffffffffffffffffffff16815260200190815260200160002054905092915050565b61144a611758565b73ffffffffffffffffffffffffffffffffffffffff16611468610cc2565b73ffffffffffffffffffffffffffffffffffffffff1614806114de575061148d611758565b73ffffffffffffffffffffffffffffffffffffffff16600e60009054906101000a900473ffffffffffffffffffffffffffffffffffffffff1673ffffffffffffffffffffffffffffffffffffffff16145b61151d576040517f08c379a000000000000000000000000000000000000000000000000000000000815260040161151490612f9f565b60405180910390fd5b8173ffffffffffffffffffffffffffffffffffffffff168373ffffffffffffffffffffffffffffffffffffffff167f47c33aa230eb5fd181505aa7befeaddd9b8a6f983989cea73a7868448c3a9ed98360405161157a9190612beb565b60405180910390a38273ffffffffffffffffffffffffffffffffffffffff1663a9059cbb83836040518363ffffffff1660e01b81526004016115bd9291906131a9565b6020604051808303816000875af11580156115dc573d6000803e3d6000fd5b505050506040513d601f19601f8201168201806040525081019061160091906131e7565b50505050565b61160e611758565b73ffffffffffffffffffffffffffffffffffffffff1660008054906101000a900473ffffffffffffffffffffffffffffffffffffffff1673ffffffffffffffffffffffffffffffffffffffff161461169b576040517f08c379a00000000000000000000000000000000000000000000000000000000081526004016116929061300b565b60405180910390fd5b8073ffffffffffffffffffffffffffffffffffffffff1660008054906101000a900473ffffffffffffffffffffffffffffffffffffffff1673ffffffffffffffffffffffffffffffffffffffff167f8be0079c531659141344cd1fd0a4f28419497f9722a3daafe3b4186f6b6457e060405160405180910390a3806000806101000a81548173ffffffffffffffffffffffffffffffffffffffff021916908373ffffffffffffffffffffffffffffffffffffffff16021790555050565b600033905090565b600073ffffffffffffffffffffffffffffffffffffffff168373ffffffffffffffffffffffffffffffffffffffff16036117cf576040517f08c379a00000000000000000000000000000000000000000000000000000000081526004016117c690613286565b60405180910390fd5b600073ffffffffffffffffffffffffffffffffffffffff168273ffffffffffffffffffffffffffffffffffffffff160361183e576040517f08c379a000000000000000000000000000000000000000000000000000000000815260040161183590613318565b60405180910390fd5b80600460008573ffffffffffffffffffffffffffffffffffffffff1673ffffffffffffffffffffffffffffffffffffffff16815260200190815260200160002060008473ffffffffffffffffffffffffffffffffffffffff1673ffffffffffffffffffffffffffffffffffffffff168152602001908152602001600020819055508173ffffffffffffffffffffffffffffffffffffffff168373ffffffffffffffffffffffffffffffffffffffff167f8c5be1e5ebec7d5bd14f71427d1e84f3dd0314c0f7b2291e5b200ac8c7c3b9258360405161191c9190612beb565b60405180910390a3505050565b600073ffffffffffffffffffffffffffffffffffffffff168373ffffffffffffffffffffffffffffffffffffffff1603611998576040517f08c379a000000000000000000000000000000000000000000000000000000000815260040161198f906133aa565b60405180910390fd5b600073ffffffffffffffffffffffffffffffffffffffff168273ffffffffffffffffffffffffffffffffffffffff1603611a07576040517f08c379a00000000000000000000000000000000000000000000000000000000081526004016119fe9061343c565b60405180910390fd5b60008111611a4a576040517f08c379a0000000000000000000000000000000000000000000000000000000008152600401611a41906134ce565b60405180910390fd5b6000600c819055506000600d81905550611a62610cc2565b73ffffffffffffffffffffffffffffffffffffffff168373ffffffffffffffffffffffffffffffffffffffff1614158015611ad05750611aa0610cc2565b73ffffffffffffffffffffffffffffffffffffffff168273ffffffffffffffffffffffffffffffffffffffff1614155b15611e8b576000611ae030610909565b9050601260149054906101000a900460ff16158015611b4d5750601260009054906101000a900473ffffffffffffffffffffffffffffffffffffffff1673ffffffffffffffffffffffffffffffffffffffff168473ffffffffffffffffffffffffffffffffffffffff1614155b8015611b655750601260159054906101000a900460ff165b8015611b715750600081115b15611b9957611b7f81612068565b60004790506000811115611b9757611b9647611eff565b5b505b601260009054906101000a900473ffffffffffffffffffffffffffffffffffffffff1673ffffffffffffffffffffffffffffffffffffffff168473ffffffffffffffffffffffffffffffffffffffff16148015611c445750601060009054906101000a900473ffffffffffffffffffffffffffffffffffffffff1673ffffffffffffffffffffffffffffffffffffffff168373ffffffffffffffffffffffffffffffffffffffff1614155b15611c5c57600854600c81905550600954600d819055505b601260009054906101000a900473ffffffffffffffffffffffffffffffffffffffff1673ffffffffffffffffffffffffffffffffffffffff168373ffffffffffffffffffffffffffffffffffffffff16148015611d075750601060009054906101000a900473ffffffffffffffffffffffffffffffffffffffff1673ffffffffffffffffffffffffffffffffffffffff168473ffffffffffffffffffffffffffffffffffffffff1614155b15611d1f57600a54600c81905550600b54600d819055505b600560008573ffffffffffffffffffffffffffffffffffffffff1673ffffffffffffffffffffffffffffffffffffffff16815260200190815260200160002060009054906101000a900460ff1680611dc05750600560008473ffffffffffffffffffffffffffffffffffffffff1673ffffffffffffffffffffffffffffffffffffffff16815260200190815260200160002060009054906101000a900460ff165b80611e735750601260009054906101000a900473ffffffffffffffffffffffffffffffffffffffff1673ffffffffffffffffffffffffffffffffffffffff168473ffffffffffffffffffffffffffffffffffffffff1614158015611e725750601260009054906101000a900473ffffffffffffffffffffffffffffffffffffffff1673ffffffffffffffffffffffffffffffffffffffff168373ffffffffffffffffffffffffffffffffffffffff1614155b5b15611e89576000600c819055506000600d819055505b505b611e968383836122e1565b505050565b6000838311158290611ee3576040517f08c379a0000000000000000000000000000000000000000000000000000000008152600401611eda9190612a2c565b60405180910390fd5b5060008385611ef291906134ee565b9050809150509392505050565b600e60009054906101000a900473ffffffffffffffffffffffffffffffffffffffff1673ffffffffffffffffffffffffffffffffffffffff166108fc611f4f6002846122f190919063ffffffff16565b9081150290604051600060405180830381858888f19350505050158015611f7a573d6000803e3d6000fd5b50600f60009054906101000a900473ffffffffffffffffffffffffffffffffffffffff1673ffffffffffffffffffffffffffffffffffffffff166108fc611fcb6002846122f190919063ffffffff16565b9081150290604051600060405180830381858888f19350505050158015611ff6573d6000803e3d6000fd5b5050565b6000600654821115612041576040517f08c379a000000000000000000000000000000000000000000000000000000000815260040161203890613594565b60405180910390fd5b600061204b61233b565b905061206081846122f190919063ffffffff16565b915050919050565b6001601260146101000a81548160ff0219169083151502179055506000600267ffffffffffffffff8111156120a05761209f6135b4565b5b6040519080825280602002602001820160405280156120ce5781602001602082028036833780820191505090505b50905030816000815181106120e6576120e5613103565b5b602002602001019073ffffffffffffffffffffffffffffffffffffffff16908173ffffffffffffffffffffffffffffffffffffffff1681525050601060009054906101000a900473ffffffffffffffffffffffffffffffffffffffff1673ffffffffffffffffffffffffffffffffffffffff1663ad5c46486040518163ffffffff1660e01b8152600401602060405180830381865afa15801561218d573d6000803e3d6000fd5b505050506040513d601f19601f820116820180604052508101906121b191906135f8565b816001815181106121c5576121c4613103565b5b602002602001019073ffffffffffffffffffffffffffffffffffffffff16908173ffffffffffffffffffffffffffffffffffffffff168152505061222c30601060009054906101000a900473ffffffffffffffffffffffffffffffffffffffff1684611760565b601060009054906101000a900473ffffffffffffffffffffffffffffffffffffffff1673ffffffffffffffffffffffffffffffffffffffff1663791ac9478360008430426040518663ffffffff1660e01b815260040161229095949392919061371e565b600060405180830381600087803b1580156122aa57600080fd5b505af11580156122be573d6000803e3d6000fd5b50505050506000601260146101000a81548160ff02191690831515021790555050565b6122ec838383612366565b505050565b600061233383836040518060400160405280601a81526020017f536166654d6174683a206469766973696f6e206279207a65726f000000000000815250612531565b905092915050565b6000806000612348612594565b9150915061235f81836122f190919063ffffffff16565b9250505090565b600080600080600080612378876125f3565b9550955095509550955095506123d686600260008c73ffffffffffffffffffffffffffffffffffffffff1673ffffffffffffffffffffffffffffffffffffffff1681526020019081526020016000205461265b90919063ffffffff16565b600260008b73ffffffffffffffffffffffffffffffffffffffff1673ffffffffffffffffffffffffffffffffffffffff1681526020019081526020016000208190555061246b85600260008b73ffffffffffffffffffffffffffffffffffffffff1673ffffffffffffffffffffffffffffffffffffffff168152602001908152602001600020546126a590919063ffffffff16565b600260008a73ffffffffffffffffffffffffffffffffffffffff1673ffffffffffffffffffffffffffffffffffffffff168152602001908152602001600020819055506124b781612703565b6124c184836127c0565b8773ffffffffffffffffffffffffffffffffffffffff168973ffffffffffffffffffffffffffffffffffffffff167fddf252ad1be2c89b69c2b068fc378daa952ba7f163c4a11628f55a4df523b3ef8560405161251e9190612beb565b60405180910390a3505050505050505050565b60008083118290612578576040517f08c379a000000000000000000000000000000000000000000000000000000000815260040161256f9190612a2c565b60405180910390fd5b506000838561258791906137a7565b9050809150509392505050565b600080600060065490506000670de0b6b3a764000090506125c8670de0b6b3a76400006006546122f190919063ffffffff16565b8210156125e657600654670de0b6b3a76400009350935050506125ef565b81819350935050505b9091565b60008060008060008060008060006126108a600c54600d546127fa565b925092509250600061262061233b565b905060008060006126338e878787612890565b9250925092508282828989899c509c509c509c509c509c505050505050505091939550919395565b600061269d83836040518060400160405280601e81526020017f536166654d6174683a207375627472616374696f6e206f766572666c6f770000815250611e9b565b905092915050565b60008082846126b491906137d8565b9050838110156126f9576040517f08c379a00000000000000000000000000000000000000000000000000000000081526004016126f09061387a565b60405180910390fd5b8091505092915050565b600061270d61233b565b90506000612724828461291990919063ffffffff16565b905061277881600260003073ffffffffffffffffffffffffffffffffffffffff1673ffffffffffffffffffffffffffffffffffffffff168152602001908152602001600020546126a590919063ffffffff16565b600260003073ffffffffffffffffffffffffffffffffffffffff1673ffffffffffffffffffffffffffffffffffffffff16815260200190815260200160002081905550505050565b6127d58260065461265b90919063ffffffff16565b6006819055506127f0816007546126a590919063ffffffff16565b6007819055505050565b6000806000806128266064612818888a61291990919063ffffffff16565b6122f190919063ffffffff16565b905060006128506064612842888b61291990919063ffffffff16565b6122f190919063ffffffff16565b905060006128798261286b858c61265b90919063ffffffff16565b61265b90919063ffffffff16565b905080838395509550955050505093509350939050565b6000806000806128a9858961291990919063ffffffff16565b905060006128c0868961291990919063ffffffff16565b905060006128d7878961291990919063ffffffff16565b90506000612900826128f2858761265b90919063ffffffff16565b61265b90919063ffffffff16565b9050838184965096509650505050509450945094915050565b600080830361292b576000905061298d565b60008284612939919061389a565b905082848261294891906137a7565b14612988576040517f08c379a000000000000000000000000000000000000000000000000000000000815260040161297f90613966565b60405180910390fd5b809150505b92915050565b600081519050919050565b600082825260208201905092915050565b60005b838110156129cd5780820151818401526020810190506129b2565b838111156129dc576000848401525b50505050565b6000601f19601f8301169050919050565b60006129fe82612993565b612a08818561299e565b9350612a188185602086016129af565b612a21816129e2565b840191505092915050565b60006020820190508181036000830152612a4681846129f3565b905092915050565b600080fd5b600080fd5b600073ffffffffffffffffffffffffffffffffffffffff82169050919050565b6000612a8382612a58565b9050919050565b612a9381612a78565b8114612a9e57600080fd5b50565b600081359050612ab081612a8a565b92915050565b6000819050919050565b612ac981612ab6565b8114612ad457600080fd5b50565b600081359050612ae681612ac0565b92915050565b60008060408385031215612b0357612b02612a4e565b5b6000612b1185828601612aa1565b9250506020612b2285828601612ad7565b9150509250929050565b60008115159050919050565b612b4181612b2c565b82525050565b6000602082019050612b5c6000830184612b38565b92915050565b6000819050919050565b6000612b87612b82612b7d84612a58565b612b62565b612a58565b9050919050565b6000612b9982612b6c565b9050919050565b6000612bab82612b8e565b9050919050565b612bbb81612ba0565b82525050565b6000602082019050612bd66000830184612bb2565b92915050565b612be581612ab6565b82525050565b6000602082019050612c006000830184612bdc565b92915050565b600080600060608486031215612c1f57612c1e612a4e565b5b6000612c2d86828701612aa1565b9350506020612c3e86828701612aa1565b9250506040612c4f86828701612ad7565b9150509250925092565b600060ff82169050919050565b612c6f81612c59565b82525050565b6000602082019050612c8a6000830184612c66565b92915050565b612c9981612a78565b82525050565b6000602082019050612cb46000830184612c90565b92915050565b6000612cc582612b8e565b9050919050565b612cd581612cba565b82525050565b6000602082019050612cf06000830184612ccc565b92915050565b612cff81612b2c565b8114612d0a57600080fd5b50565b600081359050612d1c81612cf6565b92915050565b600060208284031215612d3857612d37612a4e565b5b6000612d4684828501612d0d565b91505092915050565b600060208284031215612d6557612d64612a4e565b5b6000612d7384828501612aa1565b91505092915050565b6000612d8782612a58565b9050919050565b612d9781612d7c565b8114612da257600080fd5b50565b600081359050612db481612d8e565b92915050565b600060208284031215612dd057612dcf612a4e565b5b6000612dde84828501612da5565b91505092915050565b60008060008060808587031215612e0157612e00612a4e565b5b6000612e0f87828801612ad7565b9450506020612e2087828801612ad7565b9350506040612e3187828801612ad7565b9250506060612e4287828801612ad7565b91505092959194509250565b600080fd5b600080fd5b600080fd5b60008083601f840112612e7357612e72612e4e565b5b8235905067ffffffffffffffff811115612e9057612e8f612e53565b5b602083019150836020820283011115612eac57612eab612e58565b5b9250929050565b600080600060408486031215612ecc57612ecb612a4e565b5b600084013567ffffffffffffffff811115612eea57612ee9612a53565b5b612ef686828701612e5d565b93509350506020612f0986828701612d0d565b9150509250925092565b60008060408385031215612f2a57612f29612a4e565b5b6000612f3885828601612aa1565b9250506020612f4985828601612aa1565b9150509250929050565b7f43616c6c6572206973206e6f7420746865206465760000000000000000000000600082015250565b6000612f8960158361299e565b9150612f9482612f53565b602082019050919050565b60006020820190508181036000830152612fb881612f7c565b9050919050565b7f43616c6c6572206973206e6f7420746865206f776e6572000000000000000000600082015250565b6000612ff560178361299e565b915061300082612fbf565b602082019050919050565b6000602082019050818103600083015261302481612fe8565b9050919050565b7f52656469732063616e6e6f74206265206d6f7265207468616e2031302e000000600082015250565b6000613061601d8361299e565b915061306c8261302b565b602082019050919050565b6000602082019050818103600083015261309081613054565b9050919050565b7f5461782063616e6e6f74206265206d6f7265207468616e20362e000000000000600082015250565b60006130cd601a8361299e565b91506130d882613097565b602082019050919050565b600060208201905081810360008301526130fc816130c0565b9050919050565b7f4e487b7100000000000000000000000000000000000000000000000000000000600052603260045260246000fd5b7f4e487b7100000000000000000000000000000000000000000000000000000000600052601160045260246000fd5b600061316c82612ab6565b91507fffffffffffffffffffffffffffffffffffffffffffffffffffffffffffffffff820361319e5761319d613132565b5b600182019050919050565b60006040820190506131be6000830185612c90565b6131cb6020830184612bdc565b9392505050565b6000815190506131e181612cf6565b92915050565b6000602082840312156131fd576131fc612a4e565b5b600061320b848285016131d2565b91505092915050565b7f45524332303a20617070726f76652066726f6d20746865207a65726f2061646460008201527f7265737300000000000000000000000000000000000000000000000000000000602082015250565b600061327060248361299e565b915061327b82613214565b604082019050919050565b6000602082019050818103600083015261329f81613263565b9050919050565b7f45524332303a20617070726f766520746f20746865207a65726f20616464726560008201527f7373000000000000000000000000000000000000000000000000000000000000602082015250565b600061330260228361299e565b915061330d826132a6565b604082019050919050565b60006020820190508181036000830152613331816132f5565b9050919050565b7f45524332303a207472616e736665722066726f6d20746865207a65726f20616460008201527f6472657373000000000000000000000000000000000000000000000000000000602082015250565b600061339460258361299e565b915061339f82613338565b604082019050919050565b600060208201905081810360008301526133c381613387565b9050919050565b7f45524332303a207472616e7366657220746f20746865207a65726f206164647260008201527f6573730000000000000000000000000000000000000000000000000000000000602082015250565b600061342660238361299e565b9150613431826133ca565b604082019050919050565b6000602082019050818103600083015261345581613419565b9050919050565b7f5472616e7366657220616d6f756e74206d75737420626520677265617465722060008201527f7468616e207a65726f0000000000000000000000000000000000000000000000602082015250565b60006134b860298361299e565b91506134c38261345c565b604082019050919050565b600060208201905081810360008301526134e7816134ab565b9050919050565b60006134f982612ab6565b915061350483612ab6565b92508282101561351757613516613132565b5b828203905092915050565b7f416d6f756e74206d757374206265206c657373207468616e20746f74616c207260008201527f65666c656374696f6e7300000000000000000000000000000000000000000000602082015250565b600061357e602a8361299e565b915061358982613522565b604082019050919050565b600060208201905081810360008301526135ad81613571565b9050919050565b7f4e487b7100000000000000000000000000000000000000000000000000000000600052604160045260246000fd5b6000815190506135f281612a8a565b92915050565b60006020828403121561360e5761360d612a4e565b5b600061361c848285016135e3565b91505092915050565b6000819050919050565b600061364a61364561364084613625565b612b62565b612ab6565b9050919050565b61365a8161362f565b82525050565b600081519050919050565b600082825260208201905092915050565b6000819050602082019050919050565b61369581612a78565b82525050565b60006136a7838361368c565b60208301905092915050565b6000602082019050919050565b60006136cb82613660565b6136d5818561366b565b93506136e08361367c565b8060005b838110156137115781516136f8888261369b565b9750613703836136b3565b9250506001810190506136e4565b5085935050505092915050565b600060a0820190506137336000830188612bdc565b6137406020830187613651565b818103604083015261375281866136c0565b90506137616060830185612c90565b61376e6080830184612bdc565b9695505050505050565b7f4e487b7100000000000000000000000000000000000000000000000000000000600052601260045260246000fd5b60006137b282612ab6565b91506137bd83612ab6565b9250826137cd576137cc613778565b5b828204905092915050565b60006137e382612ab6565b91506137ee83612ab6565b9250827fffffffffffffffffffffffffffffffffffffffffffffffffffffffffffffffff0382111561382357613822613132565b5b828201905092915050565b7f536166654d6174683a206164646974696f6e206f766572666c6f770000000000600082015250565b6000613864601b8361299e565b915061386f8261382e565b602082019050919050565b6000602082019050818103600083015261389381613857565b9050919050565b60006138a582612ab6565b91506138b083612ab6565b9250817fffffffffffffffffffffffffffffffffffffffffffffffffffffffffffffffff04831182151516156138e9576138e8613132565b5b828202905092915050565b7f536166654d6174683a206d756c7469706c69636174696f6e206f766572666c6f60008201527f7700000000000000000000000000000000000000000000000000000000000000602082015250565b600061395060218361299e565b915061395b826138f4565b604082019050919050565b6000602082019050818103600083015261397f81613943565b905091905056fe45524332303a207472616e7366657220616d6f756e74206578636565647320616c6c6f77616e6365a264697066735822122034a343b6863515eb6005e527405abf9a1374bbfc3b7a501d74ee775b583402ad64736f6c634300080d0033",
					"opcodes": "PUSH1 0x80 PUSH1 0x40 MSTORE PUSH8 0xDE0B6B3A7640000 PUSH5 0x14F46B0400 PUSH3 0x1F SWAP2 SWAP1 PUSH3 0x6E3 JUMP JUMPDEST PUSH5 0x14F46B0400 PUSH3 0x31 SWAP2 SWAP1 PUSH3 0x74A JUMP JUMPDEST PUSH1 0x6 SSTORE PUSH1 0x1 PUSH1 0x8 SSTORE PUSH1 0x4 PUSH1 0x9 SSTORE PUSH1 0x1 PUSH1 0xA SSTORE PUSH1 0x1 PUSH1 0xB SSTORE PUSH20 0x8492CBD894686D7E98214541903C7BA6F94928D6 PUSH1 0xE PUSH1 0x0 PUSH2 0x100 EXP DUP2 SLOAD DUP2 PUSH20 0xFFFFFFFFFFFFFFFFFFFFFFFFFFFFFFFFFFFFFFFF MUL NOT AND SWAP1 DUP4 PUSH20 0xFFFFFFFFFFFFFFFFFFFFFFFFFFFFFFFFFFFFFFFF AND MUL OR SWAP1 SSTORE POP PUSH20 0xA4ED7AA4EF5DEB0A63E97D9CB77445AE553FEB1D PUSH1 0xF PUSH1 0x0 PUSH2 0x100 EXP DUP2 SLOAD DUP2 PUSH20 0xFFFFFFFFFFFFFFFFFFFFFFFFFFFFFFFFFFFFFFFF MUL NOT AND SWAP1 DUP4 PUSH20 0xFFFFFFFFFFFFFFFFFFFFFFFFFFFFFFFFFFFFFFFF AND MUL OR SWAP1 SSTORE POP PUSH1 0x0 PUSH1 0x12 PUSH1 0x14 PUSH2 0x100 EXP DUP2 SLOAD DUP2 PUSH1 0xFF MUL NOT AND SWAP1 DUP4 ISZERO ISZERO MUL OR SWAP1 SSTORE POP PUSH1 0x1 PUSH1 0x12 PUSH1 0x15 PUSH2 0x100 EXP DUP2 SLOAD DUP2 PUSH1 0xFF MUL NOT AND SWAP1 DUP4 ISZERO ISZERO MUL OR SWAP1 SSTORE POP CALLVALUE DUP1 ISZERO PUSH3 0x135 JUMPI PUSH1 0x0 DUP1 REVERT JUMPDEST POP PUSH1 0x0 PUSH3 0x148 PUSH3 0x679 PUSH1 0x20 SHL PUSH1 0x20 SHR JUMP JUMPDEST SWAP1 POP DUP1 PUSH1 0x0 DUP1 PUSH2 0x100 EXP DUP2 SLOAD DUP2 PUSH20 0xFFFFFFFFFFFFFFFFFFFFFFFFFFFFFFFFFFFFFFFF MUL NOT AND SWAP1 DUP4 PUSH20 0xFFFFFFFFFFFFFFFFFFFFFFFFFFFFFFFFFFFFFFFF AND MUL OR SWAP1 SSTORE POP DUP1 PUSH20 0xFFFFFFFFFFFFFFFFFFFFFFFFFFFFFFFFFFFFFFFF AND PUSH1 0x0 PUSH20 0xFFFFFFFFFFFFFFFFFFFFFFFFFFFFFFFFFFFFFFFF AND PUSH32 0x8BE0079C531659141344CD1FD0A4F28419497F9722A3DAAFE3B4186F6B6457E0 PUSH1 0x40 MLOAD PUSH1 0x40 MLOAD DUP1 SWAP2 SUB SWAP1 LOG3 POP PUSH1 0x6 SLOAD PUSH1 0x2 PUSH1 0x0 PUSH3 0x1FD PUSH3 0x679 PUSH1 0x20 SHL PUSH1 0x20 SHR JUMP JUMPDEST PUSH20 0xFFFFFFFFFFFFFFFFFFFFFFFFFFFFFFFFFFFFFFFF AND PUSH20 0xFFFFFFFFFFFFFFFFFFFFFFFFFFFFFFFFFFFFFFFF AND DUP2 MSTORE PUSH1 0x20 ADD SWAP1 DUP2 MSTORE PUSH1 0x20 ADD PUSH1 0x0 KECCAK256 DUP2 SWAP1 SSTORE POP PUSH1 0x0 PUSH20 0x10ED43C718714EB63D5AA57B78B54704E256024E SWAP1 POP DUP1 PUSH1 0x10 PUSH1 0x0 PUSH2 0x100 EXP DUP2 SLOAD DUP2 PUSH20 0xFFFFFFFFFFFFFFFFFFFFFFFFFFFFFFFFFFFFFFFF MUL NOT AND SWAP1 DUP4 PUSH20 0xFFFFFFFFFFFFFFFFFFFFFFFFFFFFFFFFFFFFFFFF AND MUL OR SWAP1 SSTORE POP PUSH20 0xCA143CE32FE78F1F7019D7D551A6402FC5350C73 PUSH1 0x11 PUSH1 0x0 PUSH2 0x100 EXP DUP2 SLOAD DUP2 PUSH20 0xFFFFFFFFFFFFFFFFFFFFFFFFFFFFFFFFFFFFFFFF MUL NOT AND SWAP1 DUP4 PUSH20 0xFFFFFFFFFFFFFFFFFFFFFFFFFFFFFFFFFFFFFFFF AND MUL OR SWAP1 SSTORE POP PUSH1 0x11 PUSH1 0x0 SWAP1 SLOAD SWAP1 PUSH2 0x100 EXP SWAP1 DIV PUSH20 0xFFFFFFFFFFFFFFFFFFFFFFFFFFFFFFFFFFFFFFFF AND PUSH20 0xFFFFFFFFFFFFFFFFFFFFFFFFFFFFFFFFFFFFFFFF AND PUSH4 0xC9C65396 ADDRESS DUP4 PUSH20 0xFFFFFFFFFFFFFFFFFFFFFFFFFFFFFFFFFFFFFFFF AND PUSH4 0xAD5C4648 PUSH1 0x40 MLOAD DUP2 PUSH4 0xFFFFFFFF AND PUSH1 0xE0 SHL DUP2 MSTORE PUSH1 0x4 ADD PUSH1 0x20 PUSH1 0x40 MLOAD DUP1 DUP4 SUB DUP2 DUP7 GAS STATICCALL ISZERO DUP1 ISZERO PUSH3 0x375 JUMPI RETURNDATASIZE PUSH1 0x0 DUP1 RETURNDATACOPY RETURNDATASIZE PUSH1 0x0 REVERT JUMPDEST POP POP POP POP PUSH1 0x40 MLOAD RETURNDATASIZE PUSH1 0x1F NOT PUSH1 0x1F DUP3 ADD AND DUP3 ADD DUP1 PUSH1 0x40 MSTORE POP DUP2 ADD SWAP1 PUSH3 0x39B SWAP2 SWAP1 PUSH3 0x7EF JUMP JUMPDEST PUSH1 0x40 MLOAD DUP4 PUSH4 0xFFFFFFFF AND PUSH1 0xE0 SHL DUP2 MSTORE PUSH1 0x4 ADD PUSH3 0x3BA SWAP3 SWAP2 SWAP1 PUSH3 0x832 JUMP JUMPDEST PUSH1 0x20 PUSH1 0x40 MLOAD DUP1 DUP4 SUB DUP2 PUSH1 0x0 DUP8 GAS CALL ISZERO DUP1 ISZERO PUSH3 0x3DA JUMPI RETURNDATASIZE PUSH1 0x0 DUP1 RETURNDATACOPY RETURNDATASIZE PUSH1 0x0 REVERT JUMPDEST POP POP POP POP PUSH1 0x40 MLOAD RETURNDATASIZE PUSH1 0x1F NOT PUSH1 0x1F DUP3 ADD AND DUP3 ADD DUP1 PUSH1 0x40 MSTORE POP DUP2 ADD SWAP1 PUSH3 0x400 SWAP2 SWAP1 PUSH3 0x7EF JUMP JUMPDEST PUSH1 0x12 PUSH1 0x0 PUSH2 0x100 EXP DUP2 SLOAD DUP2 PUSH20 0xFFFFFFFFFFFFFFFFFFFFFFFFFFFFFFFFFFFFFFFF MUL NOT AND SWAP1 DUP4 PUSH20 0xFFFFFFFFFFFFFFFFFFFFFFFFFFFFFFFFFFFFFFFF AND MUL OR SWAP1 SSTORE POP PUSH1 0x1 PUSH1 0x5 PUSH1 0x0 PUSH3 0x456 PUSH3 0x681 PUSH1 0x20 SHL PUSH1 0x20 SHR JUMP JUMPDEST PUSH20 0xFFFFFFFFFFFFFFFFFFFFFFFFFFFFFFFFFFFFFFFF AND PUSH20 0xFFFFFFFFFFFFFFFFFFFFFFFFFFFFFFFFFFFFFFFF AND DUP2 MSTORE PUSH1 0x20 ADD SWAP1 DUP2 MSTORE PUSH1 0x20 ADD PUSH1 0x0 KECCAK256 PUSH1 0x0 PUSH2 0x100 EXP DUP2 SLOAD DUP2 PUSH1 0xFF MUL NOT AND SWAP1 DUP4 ISZERO ISZERO MUL OR SWAP1 SSTORE POP PUSH1 0x1 PUSH1 0x5 PUSH1 0x0 ADDRESS PUSH20 0xFFFFFFFFFFFFFFFFFFFFFFFFFFFFFFFFFFFFFFFF AND PUSH20 0xFFFFFFFFFFFFFFFFFFFFFFFFFFFFFFFFFFFFFFFF AND DUP2 MSTORE PUSH1 0x20 ADD SWAP1 DUP2 MSTORE PUSH1 0x20 ADD PUSH1 0x0 KECCAK256 PUSH1 0x0 PUSH2 0x100 EXP DUP2 SLOAD DUP2 PUSH1 0xFF MUL NOT AND SWAP1 DUP4 ISZERO ISZERO MUL OR SWAP1 SSTORE POP PUSH1 0x1 PUSH1 0x5 PUSH1 0x0 PUSH1 0xE PUSH1 0x0 SWAP1 SLOAD SWAP1 PUSH2 0x100 EXP SWAP1 DIV PUSH20 0xFFFFFFFFFFFFFFFFFFFFFFFFFFFFFFFFFFFFFFFF AND PUSH20 0xFFFFFFFFFFFFFFFFFFFFFFFFFFFFFFFFFFFFFFFF AND PUSH20 0xFFFFFFFFFFFFFFFFFFFFFFFFFFFFFFFFFFFFFFFF AND DUP2 MSTORE PUSH1 0x20 ADD SWAP1 DUP2 MSTORE PUSH1 0x20 ADD PUSH1 0x0 KECCAK256 PUSH1 0x0 PUSH2 0x100 EXP DUP2 SLOAD DUP2 PUSH1 0xFF MUL NOT AND SWAP1 DUP4 ISZERO ISZERO MUL OR SWAP1 SSTORE POP PUSH1 0x1 PUSH1 0x5 PUSH1 0x0 PUSH1 0xF PUSH1 0x0 SWAP1 SLOAD SWAP1 PUSH2 0x100 EXP SWAP1 DIV PUSH20 0xFFFFFFFFFFFFFFFFFFFFFFFFFFFFFFFFFFFFFFFF AND PUSH20 0xFFFFFFFFFFFFFFFFFFFFFFFFFFFFFFFFFFFFFFFF AND PUSH20 0xFFFFFFFFFFFFFFFFFFFFFFFFFFFFFFFFFFFFFFFF AND DUP2 MSTORE PUSH1 0x20 ADD SWAP1 DUP2 MSTORE PUSH1 0x20 ADD PUSH1 0x0 KECCAK256 PUSH1 0x0 PUSH2 0x100 EXP DUP2 SLOAD DUP2 PUSH1 0xFF MUL NOT AND SWAP1 DUP4 ISZERO ISZERO MUL OR SWAP1 SSTORE POP PUSH3 0x603 PUSH3 0x679 PUSH1 0x20 SHL PUSH1 0x20 SHR JUMP JUMPDEST PUSH20 0xFFFFFFFFFFFFFFFFFFFFFFFFFFFFFFFFFFFFFFFF AND PUSH1 0x0 PUSH20 0xFFFFFFFFFFFFFFFFFFFFFFFFFFFFFFFFFFFFFFFF AND PUSH32 0xDDF252AD1BE2C89B69C2B068FC378DAA952BA7F163C4A11628F55A4DF523B3EF PUSH8 0xDE0B6B3A7640000 PUSH1 0x40 MLOAD PUSH3 0x66A SWAP2 SWAP1 PUSH3 0x870 JUMP JUMPDEST PUSH1 0x40 MLOAD DUP1 SWAP2 SUB SWAP1 LOG3 POP PUSH3 0x88D JUMP JUMPDEST PUSH1 0x0 CALLER SWAP1 POP SWAP1 JUMP JUMPDEST PUSH1 0x0 DUP1 PUSH1 0x0 SWAP1 SLOAD SWAP1 PUSH2 0x100 EXP SWAP1 DIV PUSH20 0xFFFFFFFFFFFFFFFFFFFFFFFFFFFFFFFFFFFFFFFF AND SWAP1 POP SWAP1 JUMP JUMPDEST PUSH1 0x0 DUP2 SWAP1 POP SWAP2 SWAP1 POP JUMP JUMPDEST PUSH32 0x4E487B7100000000000000000000000000000000000000000000000000000000 PUSH1 0x0 MSTORE PUSH1 0x12 PUSH1 0x4 MSTORE PUSH1 0x24 PUSH1 0x0 REVERT JUMPDEST PUSH1 0x0 PUSH3 0x6F0 DUP3 PUSH3 0x6AA JUMP JUMPDEST SWAP2 POP PUSH3 0x6FD DUP4 PUSH3 0x6AA JUMP JUMPDEST SWAP3 POP DUP3 PUSH3 0x710 JUMPI PUSH3 0x70F PUSH3 0x6B4 JUMP JUMPDEST JUMPDEST DUP3 DUP3 MOD SWAP1 POP SWAP3 SWAP2 POP POP JUMP JUMPDEST PUSH32 0x4E487B7100000000000000000000000000000000000000000000000000000000 PUSH1 0x0 MSTORE PUSH1 0x11 PUSH1 0x4 MSTORE PUSH1 0x24 PUSH1 0x0 REVERT JUMPDEST PUSH1 0x0 PUSH3 0x757 DUP3 PUSH3 0x6AA JUMP JUMPDEST SWAP2 POP PUSH3 0x764 DUP4 PUSH3 0x6AA JUMP JUMPDEST SWAP3 POP DUP3 DUP3 LT ISZERO PUSH3 0x77A JUMPI PUSH3 0x779 PUSH3 0x71B JUMP JUMPDEST JUMPDEST DUP3 DUP3 SUB SWAP1 POP SWAP3 SWAP2 POP POP JUMP JUMPDEST PUSH1 0x0 DUP1 REVERT JUMPDEST PUSH1 0x0 PUSH20 0xFFFFFFFFFFFFFFFFFFFFFFFFFFFFFFFFFFFFFFFF DUP3 AND SWAP1 POP SWAP2 SWAP1 POP JUMP JUMPDEST PUSH1 0x0 PUSH3 0x7B7 DUP3 PUSH3 0x78A JUMP JUMPDEST SWAP1 POP SWAP2 SWAP1 POP JUMP JUMPDEST PUSH3 0x7C9 DUP2 PUSH3 0x7AA JUMP JUMPDEST DUP2 EQ PUSH3 0x7D5 JUMPI PUSH1 0x0 DUP1 REVERT JUMPDEST POP JUMP JUMPDEST PUSH1 0x0 DUP2 MLOAD SWAP1 POP PUSH3 0x7E9 DUP2 PUSH3 0x7BE JUMP JUMPDEST SWAP3 SWAP2 POP POP JUMP JUMPDEST PUSH1 0x0 PUSH1 0x20 DUP3 DUP5 SUB SLT ISZERO PUSH3 0x808 JUMPI PUSH3 0x807 PUSH3 0x785 JUMP JUMPDEST JUMPDEST PUSH1 0x0 PUSH3 0x818 DUP5 DUP3 DUP6 ADD PUSH3 0x7D8 JUMP JUMPDEST SWAP2 POP POP SWAP3 SWAP2 POP POP JUMP JUMPDEST PUSH3 0x82C DUP2 PUSH3 0x7AA JUMP JUMPDEST DUP3 MSTORE POP POP JUMP JUMPDEST PUSH1 0x0 PUSH1 0x40 DUP3 ADD SWAP1 POP PUSH3 0x849 PUSH1 0x0 DUP4 ADD DUP6 PUSH3 0x821 JUMP JUMPDEST PUSH3 0x858 PUSH1 0x20 DUP4 ADD DUP5 PUSH3 0x821 JUMP JUMPDEST SWAP4 SWAP3 POP POP POP JUMP JUMPDEST PUSH3 0x86A DUP2 PUSH3 0x6AA JUMP JUMPDEST DUP3 MSTORE POP POP JUMP JUMPDEST PUSH1 0x0 PUSH1 0x20 DUP3 ADD SWAP1 POP PUSH3 0x887 PUSH1 0x0 DUP4 ADD DUP5 PUSH3 0x85F JUMP JUMPDEST SWAP3 SWAP2 POP POP JUMP JUMPDEST PUSH2 0x39E4 DUP1 PUSH3 0x89D PUSH1 0x0 CODECOPY PUSH1 0x0 RETURN INVALID PUSH1 0x80 PUSH1 0x40 MSTORE PUSH1 0x4 CALLDATASIZE LT PUSH2 0x144 JUMPI PUSH1 0x0 CALLDATALOAD PUSH1 0xE0 SHR DUP1 PUSH4 0x715018A6 GT PUSH2 0xB6 JUMPI DUP1 PUSH4 0xAAD5C023 GT PUSH2 0x6F JUMPI DUP1 PUSH4 0xAAD5C023 EQ PUSH2 0x445 JUMPI DUP1 PUSH4 0xC3C8CD80 EQ PUSH2 0x46E JUMPI DUP1 PUSH4 0xC492F046 EQ PUSH2 0x485 JUMPI DUP1 PUSH4 0xDD62ED3E EQ PUSH2 0x4AE JUMPI DUP1 PUSH4 0xE293D316 EQ PUSH2 0x4EB JUMPI DUP1 PUSH4 0xF2FDE38B EQ PUSH2 0x514 JUMPI PUSH2 0x14B JUMP JUMPDEST DUP1 PUSH4 0x715018A6 EQ PUSH2 0x349 JUMPI DUP1 PUSH4 0x758DBE03 EQ PUSH2 0x360 JUMPI DUP1 PUSH4 0x8DA5CB5B EQ PUSH2 0x389 JUMPI DUP1 PUSH4 0x95D89B41 EQ PUSH2 0x3B4 JUMPI DUP1 PUSH4 0xA2A957BB EQ PUSH2 0x3DF JUMPI DUP1 PUSH4 0xA9059CBB EQ PUSH2 0x408 JUMPI PUSH2 0x14B JUMP JUMPDEST DUP1 PUSH4 0x313CE567 GT PUSH2 0x108 JUMPI DUP1 PUSH4 0x313CE567 EQ PUSH2 0x24B JUMPI DUP1 PUSH4 0x49BD5A5E EQ PUSH2 0x276 JUMPI DUP1 PUSH4 0x59D0F713 EQ PUSH2 0x2A1 JUMPI DUP1 PUSH4 0x6D8AA8F8 EQ PUSH2 0x2CC JUMPI DUP1 PUSH4 0x6FC3EAEC EQ PUSH2 0x2F5 JUMPI DUP1 PUSH4 0x70A08231 EQ PUSH2 0x30C JUMPI PUSH2 0x14B JUMP JUMPDEST DUP1 PUSH4 0x6FDDE03 EQ PUSH2 0x150 JUMPI DUP1 PUSH4 0x95EA7B3 EQ PUSH2 0x17B JUMPI DUP1 PUSH4 0x1694505E EQ PUSH2 0x1B8 JUMPI DUP1 PUSH4 0x18160DDD EQ PUSH2 0x1E3 JUMPI DUP1 PUSH4 0x23B872DD EQ PUSH2 0x20E JUMPI PUSH2 0x14B JUMP JUMPDEST CALLDATASIZE PUSH2 0x14B JUMPI STOP JUMPDEST PUSH1 0x0 DUP1 REVERT JUMPDEST CALLVALUE DUP1 ISZERO PUSH2 0x15C JUMPI PUSH1 0x0 DUP1 REVERT JUMPDEST POP PUSH2 0x165 PUSH2 0x53D JUMP JUMPDEST PUSH1 0x40 MLOAD PUSH2 0x172 SWAP2 SWAP1 PUSH2 0x2A2C JUMP JUMPDEST PUSH1 0x40 MLOAD DUP1 SWAP2 SUB SWAP1 RETURN JUMPDEST CALLVALUE DUP1 ISZERO PUSH2 0x187 JUMPI PUSH1 0x0 DUP1 REVERT JUMPDEST POP PUSH2 0x1A2 PUSH1 0x4 DUP1 CALLDATASIZE SUB DUP2 ADD SWAP1 PUSH2 0x19D SWAP2 SWAP1 PUSH2 0x2AEC JUMP JUMPDEST PUSH2 0x57A JUMP JUMPDEST PUSH1 0x40 MLOAD PUSH2 0x1AF SWAP2 SWAP1 PUSH2 0x2B47 JUMP JUMPDEST PUSH1 0x40 MLOAD DUP1 SWAP2 SUB SWAP1 RETURN JUMPDEST CALLVALUE DUP1 ISZERO PUSH2 0x1C4 JUMPI PUSH1 0x0 DUP1 REVERT JUMPDEST POP PUSH2 0x1CD PUSH2 0x598 JUMP JUMPDEST PUSH1 0x40 MLOAD PUSH2 0x1DA SWAP2 SWAP1 PUSH2 0x2BC1 JUMP JUMPDEST PUSH1 0x40 MLOAD DUP1 SWAP2 SUB SWAP1 RETURN JUMPDEST CALLVALUE DUP1 ISZERO PUSH2 0x1EF JUMPI PUSH1 0x0 DUP1 REVERT JUMPDEST POP PUSH2 0x1F8 PUSH2 0x5BE JUMP JUMPDEST PUSH1 0x40 MLOAD PUSH2 0x205 SWAP2 SWAP1 PUSH2 0x2BEB JUMP JUMPDEST PUSH1 0x40 MLOAD DUP1 SWAP2 SUB SWAP1 RETURN JUMPDEST CALLVALUE DUP1 ISZERO PUSH2 0x21A JUMPI PUSH1 0x0 DUP1 REVERT JUMPDEST POP PUSH2 0x235 PUSH1 0x4 DUP1 CALLDATASIZE SUB DUP2 ADD SWAP1 PUSH2 0x230 SWAP2 SWAP1 PUSH2 0x2C06 JUMP JUMPDEST PUSH2 0x5CE JUMP JUMPDEST PUSH1 0x40 MLOAD PUSH2 0x242 SWAP2 SWAP1 PUSH2 0x2B47 JUMP JUMPDEST PUSH1 0x40 MLOAD DUP1 SWAP2 SUB SWAP1 RETURN JUMPDEST CALLVALUE DUP1 ISZERO PUSH2 0x257 JUMPI PUSH1 0x0 DUP1 REVERT JUMPDEST POP PUSH2 0x260 PUSH2 0x6A7 JUMP JUMPDEST PUSH1 0x40 MLOAD PUSH2 0x26D SWAP2 SWAP1 PUSH2 0x2C75 JUMP JUMPDEST PUSH1 0x40 MLOAD DUP1 SWAP2 SUB SWAP1 RETURN JUMPDEST CALLVALUE DUP1 ISZERO PUSH2 0x282 JUMPI PUSH1 0x0 DUP1 REVERT JUMPDEST POP PUSH2 0x28B PUSH2 0x6B0 JUMP JUMPDEST PUSH1 0x40 MLOAD PUSH2 0x298 SWAP2 SWAP1 PUSH2 0x2C9F JUMP JUMPDEST PUSH1 0x40 MLOAD DUP1 SWAP2 SUB SWAP1 RETURN JUMPDEST CALLVALUE DUP1 ISZERO PUSH2 0x2AD JUMPI PUSH1 0x0 DUP1 REVERT JUMPDEST POP PUSH2 0x2B6 PUSH2 0x6D6 JUMP JUMPDEST PUSH1 0x40 MLOAD PUSH2 0x2C3 SWAP2 SWAP1 PUSH2 0x2CDB JUMP JUMPDEST PUSH1 0x40 MLOAD DUP1 SWAP2 SUB SWAP1 RETURN JUMPDEST CALLVALUE DUP1 ISZERO PUSH2 0x2D8 JUMPI PUSH1 0x0 DUP1 REVERT JUMPDEST POP PUSH2 0x2F3 PUSH1 0x4 DUP1 CALLDATASIZE SUB DUP2 ADD SWAP1 PUSH2 0x2EE SWAP2 SWAP1 PUSH2 0x2D22 JUMP JUMPDEST PUSH2 0x6FC JUMP JUMPDEST STOP JUMPDEST CALLVALUE DUP1 ISZERO PUSH2 0x301 JUMPI PUSH1 0x0 DUP1 REVERT JUMPDEST POP PUSH2 0x30A PUSH2 0x7F4 JUMP JUMPDEST STOP JUMPDEST CALLVALUE DUP1 ISZERO PUSH2 0x318 JUMPI PUSH1 0x0 DUP1 REVERT JUMPDEST POP PUSH2 0x333 PUSH1 0x4 DUP1 CALLDATASIZE SUB DUP2 ADD SWAP1 PUSH2 0x32E SWAP2 SWAP1 PUSH2 0x2D4F JUMP JUMPDEST PUSH2 0x909 JUMP JUMPDEST PUSH1 0x40 MLOAD PUSH2 0x340 SWAP2 SWAP1 PUSH2 0x2BEB JUMP JUMPDEST PUSH1 0x40 MLOAD DUP1 SWAP2 SUB SWAP1 RETURN JUMPDEST CALLVALUE DUP1 ISZERO PUSH2 0x355 JUMPI PUSH1 0x0 DUP1 REVERT JUMPDEST POP PUSH2 0x35E PUSH2 0x95A JUMP JUMPDEST STOP JUMPDEST CALLVALUE DUP1 ISZERO PUSH2 0x36C JUMPI PUSH1 0x0 DUP1 REVERT JUMPDEST POP PUSH2 0x387 PUSH1 0x4 DUP1 CALLDATASIZE SUB DUP2 ADD SWAP1 PUSH2 0x382 SWAP2 SWAP1 PUSH2 0x2DBA JUMP JUMPDEST PUSH2 0xAAD JUMP JUMPDEST STOP JUMPDEST CALLVALUE DUP1 ISZERO PUSH2 0x395 JUMPI PUSH1 0x0 DUP1 REVERT JUMPDEST POP PUSH2 0x39E PUSH2 0xCC2 JUMP JUMPDEST PUSH1 0x40 MLOAD PUSH2 0x3AB SWAP2 SWAP1 PUSH2 0x2C9F JUMP JUMPDEST PUSH1 0x40 MLOAD DUP1 SWAP2 SUB SWAP1 RETURN JUMPDEST CALLVALUE DUP1 ISZERO PUSH2 0x3C0 JUMPI PUSH1 0x0 DUP1 REVERT JUMPDEST POP PUSH2 0x3C9 PUSH2 0xCEB JUMP JUMPDEST PUSH1 0x40 MLOAD PUSH2 0x3D6 SWAP2 SWAP1 PUSH2 0x2A2C JUMP JUMPDEST PUSH1 0x40 MLOAD DUP1 SWAP2 SUB SWAP1 RETURN JUMPDEST CALLVALUE DUP1 ISZERO PUSH2 0x3EB JUMPI PUSH1 0x0 DUP1 REVERT JUMPDEST POP PUSH2 0x406 PUSH1 0x4 DUP1 CALLDATASIZE SUB DUP2 ADD SWAP1 PUSH2 0x401 SWAP2 SWAP1 PUSH2 0x2DE7 JUMP JUMPDEST PUSH2 0xD28 JUMP JUMPDEST STOP JUMPDEST CALLVALUE DUP1 ISZERO PUSH2 0x414 JUMPI PUSH1 0x0 DUP1 REVERT JUMPDEST POP PUSH2 0x42F PUSH1 0x4 DUP1 CALLDATASIZE SUB DUP2 ADD SWAP1 PUSH2 0x42A SWAP2 SWAP1 PUSH2 0x2AEC JUMP JUMPDEST PUSH2 0xF31 JUMP JUMPDEST PUSH1 0x40 MLOAD PUSH2 0x43C SWAP2 SWAP1 PUSH2 0x2B47 JUMP JUMPDEST PUSH1 0x40 MLOAD DUP1 SWAP2 SUB SWAP1 RETURN JUMPDEST CALLVALUE DUP1 ISZERO PUSH2 0x451 JUMPI PUSH1 0x0 DUP1 REVERT JUMPDEST POP PUSH2 0x46C PUSH1 0x4 DUP1 CALLDATASIZE SUB DUP2 ADD SWAP1 PUSH2 0x467 SWAP2 SWAP1 PUSH2 0x2DBA JUMP JUMPDEST PUSH2 0xF4F JUMP JUMPDEST STOP JUMPDEST CALLVALUE DUP1 ISZERO PUSH2 0x47A JUMPI PUSH1 0x0 DUP1 REVERT JUMPDEST POP PUSH2 0x483 PUSH2 0x1164 JUMP JUMPDEST STOP JUMPDEST CALLVALUE DUP1 ISZERO PUSH2 0x491 JUMPI PUSH1 0x0 DUP1 REVERT JUMPDEST POP PUSH2 0x4AC PUSH1 0x4 DUP1 CALLDATASIZE SUB DUP2 ADD SWAP1 PUSH2 0x4A7 SWAP2 SWAP1 PUSH2 0x2EB3 JUMP JUMPDEST PUSH2 0x1281 JUMP JUMPDEST STOP JUMPDEST CALLVALUE DUP1 ISZERO PUSH2 0x4BA JUMPI PUSH1 0x0 DUP1 REVERT JUMPDEST POP PUSH2 0x4D5 PUSH1 0x4 DUP1 CALLDATASIZE SUB DUP2 ADD SWAP1 PUSH2 0x4D0 SWAP2 SWAP1 PUSH2 0x2F13 JUMP JUMPDEST PUSH2 0x13BB JUMP JUMPDEST PUSH1 0x40 MLOAD PUSH2 0x4E2 SWAP2 SWAP1 PUSH2 0x2BEB JUMP JUMPDEST PUSH1 0x40 MLOAD DUP1 SWAP2 SUB SWAP1 RETURN JUMPDEST CALLVALUE DUP1 ISZERO PUSH2 0x4F7 JUMPI PUSH1 0x0 DUP1 REVERT JUMPDEST POP PUSH2 0x512 PUSH1 0x4 DUP1 CALLDATASIZE SUB DUP2 ADD SWAP1 PUSH2 0x50D SWAP2 SWAP1 PUSH2 0x2C06 JUMP JUMPDEST PUSH2 0x1442 JUMP JUMPDEST STOP JUMPDEST CALLVALUE DUP1 ISZERO PUSH2 0x520 JUMPI PUSH1 0x0 DUP1 REVERT JUMPDEST POP PUSH2 0x53B PUSH1 0x4 DUP1 CALLDATASIZE SUB DUP2 ADD SWAP1 PUSH2 0x536 SWAP2 SWAP1 PUSH2 0x2D4F JUMP JUMPDEST PUSH2 0x1606 JUMP JUMPDEST STOP JUMPDEST PUSH1 0x60 PUSH1 0x40 MLOAD DUP1 PUSH1 0x40 ADD PUSH1 0x40 MSTORE DUP1 PUSH1 0xA DUP2 MSTORE PUSH1 0x20 ADD PUSH32 0x576F726C64205374657000000000000000000000000000000000000000000000 DUP2 MSTORE POP SWAP1 POP SWAP1 JUMP JUMPDEST PUSH1 0x0 PUSH2 0x58E PUSH2 0x587 PUSH2 0x1758 JUMP JUMPDEST DUP5 DUP5 PUSH2 0x1760 JUMP JUMPDEST PUSH1 0x1 SWAP1 POP SWAP3 SWAP2 POP POP JUMP JUMPDEST PUSH1 0x10 PUSH1 0x0 SWAP1 SLOAD SWAP1 PUSH2 0x100 EXP SWAP1 DIV PUSH20 0xFFFFFFFFFFFFFFFFFFFFFFFFFFFFFFFFFFFFFFFF AND DUP2 JUMP JUMPDEST PUSH1 0x0 PUSH8 0xDE0B6B3A7640000 SWAP1 POP SWAP1 JUMP JUMPDEST PUSH1 0x0 PUSH2 0x5DB DUP5 DUP5 DUP5 PUSH2 0x1929 JUMP JUMPDEST PUSH2 0x69C DUP5 PUSH2 0x5E7 PUSH2 0x1758 JUMP JUMPDEST PUSH2 0x697 DUP6 PUSH1 0x40 MLOAD DUP1 PUSH1 0x60 ADD PUSH1 0x40 MSTORE DUP1 PUSH1 0x28 DUP2 MSTORE PUSH1 0x20 ADD PUSH2 0x3987 PUSH1 0x28 SWAP2 CODECOPY PUSH1 0x4 PUSH1 0x0 DUP12 PUSH20 0xFFFFFFFFFFFFFFFFFFFFFFFFFFFFFFFFFFFFFFFF AND PUSH20 0xFFFFFFFFFFFFFFFFFFFFFFFFFFFFFFFFFFFFFFFF AND DUP2 MSTORE PUSH1 0x20 ADD SWAP1 DUP2 MSTORE PUSH1 0x20 ADD PUSH1 0x0 KECCAK256 PUSH1 0x0 PUSH2 0x64D PUSH2 0x1758 JUMP JUMPDEST PUSH20 0xFFFFFFFFFFFFFFFFFFFFFFFFFFFFFFFFFFFFFFFF AND PUSH20 0xFFFFFFFFFFFFFFFFFFFFFFFFFFFFFFFFFFFFFFFF AND DUP2 MSTORE PUSH1 0x20 ADD SWAP1 DUP2 MSTORE PUSH1 0x20 ADD PUSH1 0x0 KECCAK256 SLOAD PUSH2 0x1E9B SWAP1 SWAP3 SWAP2 SWAP1 PUSH4 0xFFFFFFFF AND JUMP JUMPDEST PUSH2 0x1760 JUMP JUMPDEST PUSH1 0x1 SWAP1 POP SWAP4 SWAP3 POP POP POP JUMP JUMPDEST PUSH1 0x0 PUSH1 0x9 SWAP1 POP SWAP1 JUMP JUMPDEST PUSH1 0x12 PUSH1 0x0 SWAP1 SLOAD SWAP1 PUSH2 0x100 EXP SWAP1 DIV PUSH20 0xFFFFFFFFFFFFFFFFFFFFFFFFFFFFFFFFFFFFFFFF AND DUP2 JUMP JUMPDEST PUSH1 0x11 PUSH1 0x0 SWAP1 SLOAD SWAP1 PUSH2 0x100 EXP SWAP1 DIV PUSH20 0xFFFFFFFFFFFFFFFFFFFFFFFFFFFFFFFFFFFFFFFF AND DUP2 JUMP JUMPDEST PUSH2 0x704 PUSH2 0x1758 JUMP JUMPDEST PUSH20 0xFFFFFFFFFFFFFFFFFFFFFFFFFFFFFFFFFFFFFFFF AND PUSH2 0x722 PUSH2 0xCC2 JUMP JUMPDEST PUSH20 0xFFFFFFFFFFFFFFFFFFFFFFFFFFFFFFFFFFFFFFFF AND EQ DUP1 PUSH2 0x798 JUMPI POP PUSH2 0x747 PUSH2 0x1758 JUMP JUMPDEST PUSH20 0xFFFFFFFFFFFFFFFFFFFFFFFFFFFFFFFFFFFFFFFF AND PUSH1 0xE PUSH1 0x0 SWAP1 SLOAD SWAP1 PUSH2 0x100 EXP SWAP1 DIV PUSH20 0xFFFFFFFFFFFFFFFFFFFFFFFFFFFFFFFFFFFFFFFF AND PUSH20 0xFFFFFFFFFFFFFFFFFFFFFFFFFFFFFFFFFFFFFFFF AND EQ JUMPDEST PUSH2 0x7D7 JUMPI PUSH1 0x40 MLOAD PUSH32 0x8C379A000000000000000000000000000000000000000000000000000000000 DUP2 MSTORE PUSH1 0x4 ADD PUSH2 0x7CE SWAP1 PUSH2 0x2F9F JUMP JUMPDEST PUSH1 0x40 MLOAD DUP1 SWAP2 SUB SWAP1 REVERT JUMPDEST DUP1 PUSH1 0x12 PUSH1 0x15 PUSH2 0x100 EXP DUP2 SLOAD DUP2 PUSH1 0xFF MUL NOT AND SWAP1 DUP4 ISZERO ISZERO MUL OR SWAP1 SSTORE POP POP JUMP JUMPDEST PUSH1 0xE PUSH1 0x0 SWAP1 SLOAD SWAP1 PUSH2 0x100 EXP SWAP1 DIV PUSH20 0xFFFFFFFFFFFFFFFFFFFFFFFFFFFFFFFFFFFFFFFF AND PUSH20 0xFFFFFFFFFFFFFFFFFFFFFFFFFFFFFFFFFFFFFFFF AND PUSH2 0x835 PUSH2 0x1758 JUMP JUMPDEST PUSH20 0xFFFFFFFFFFFFFFFFFFFFFFFFFFFFFFFFFFFFFFFF AND EQ DUP1 PUSH2 0x8AB JUMPI POP PUSH1 0xF PUSH1 0x0 SWAP1 SLOAD SWAP1 PUSH2 0x100 EXP SWAP1 DIV PUSH20 0xFFFFFFFFFFFFFFFFFFFFFFFFFFFFFFFFFFFFFFFF AND PUSH20 0xFFFFFFFFFFFFFFFFFFFFFFFFFFFFFFFFFFFFFFFF AND PUSH2 0x893 PUSH2 0x1758 JUMP JUMPDEST PUSH20 0xFFFFFFFFFFFFFFFFFFFFFFFFFFFFFFFFFFFFFFFF AND EQ JUMPDEST DUP1 PUSH2 0x8EF JUMPI POP PUSH2 0x8B9 PUSH2 0xCC2 JUMP JUMPDEST PUSH20 0xFFFFFFFFFFFFFFFFFFFFFFFFFFFFFFFFFFFFFFFF AND PUSH2 0x8D7 PUSH2 0x1758 JUMP JUMPDEST PUSH20 0xFFFFFFFFFFFFFFFFFFFFFFFFFFFFFFFFFFFFFFFF AND EQ JUMPDEST PUSH2 0x8F8 JUMPI PUSH1 0x0 DUP1 REVERT JUMPDEST PUSH1 0x0 SELFBALANCE SWAP1 POP PUSH2 0x906 DUP2 PUSH2 0x1EFF JUMP JUMPDEST POP JUMP JUMPDEST PUSH1 0x0 PUSH2 0x953 PUSH1 0x2 PUSH1 0x0 DUP5 PUSH20 0xFFFFFFFFFFFFFFFFFFFFFFFFFFFFFFFFFFFFFFFF AND PUSH20 0xFFFFFFFFFFFFFFFFFFFFFFFFFFFFFFFFFFFFFFFF AND DUP2 MSTORE PUSH1 0x20 ADD SWAP1 DUP2 MSTORE PUSH1 0x20 ADD PUSH1 0x0 KECCAK256 SLOAD PUSH2 0x1FFA JUMP JUMPDEST SWAP1 POP SWAP2 SWAP1 POP JUMP JUMPDEST PUSH2 0x962 PUSH2 0x1758 JUMP JUMPDEST PUSH20 0xFFFFFFFFFFFFFFFFFFFFFFFFFFFFFFFFFFFFFFFF AND PUSH1 0x0 DUP1 SLOAD SWAP1 PUSH2 0x100 EXP SWAP1 DIV PUSH20 0xFFFFFFFFFFFFFFFFFFFFFFFFFFFFFFFFFFFFFFFF AND PUSH20 0xFFFFFFFFFFFFFFFFFFFFFFFFFFFFFFFFFFFFFFFF AND EQ PUSH2 0x9EF JUMPI PUSH1 0x40 MLOAD PUSH32 0x8C379A000000000000000000000000000000000000000000000000000000000 DUP2 MSTORE PUSH1 0x4 ADD PUSH2 0x9E6 SWAP1 PUSH2 0x300B JUMP JUMPDEST PUSH1 0x40 MLOAD DUP1 SWAP2 SUB SWAP1 REVERT JUMPDEST PUSH1 0x0 PUSH20 0xFFFFFFFFFFFFFFFFFFFFFFFFFFFFFFFFFFFFFFFF AND PUSH1 0x0 DUP1 SLOAD SWAP1 PUSH2 0x100 EXP SWAP1 DIV PUSH20 0xFFFFFFFFFFFFFFFFFFFFFFFFFFFFFFFFFFFFFFFF AND PUSH20 0xFFFFFFFFFFFFFFFFFFFFFFFFFFFFFFFFFFFFFFFF AND PUSH32 0x8BE0079C531659141344CD1FD0A4F28419497F9722A3DAAFE3B4186F6B6457E0 PUSH1 0x40 MLOAD PUSH1 0x40 MLOAD DUP1 SWAP2 SUB SWAP1 LOG3 PUSH1 0x0 DUP1 PUSH1 0x0 PUSH2 0x100 EXP DUP2 SLOAD DUP2 PUSH20 0xFFFFFFFFFFFFFFFFFFFFFFFFFFFFFFFFFFFFFFFF MUL NOT AND SWAP1 DUP4 PUSH20 0xFFFFFFFFFFFFFFFFFFFFFFFFFFFFFFFFFFFFFFFF AND MUL OR SWAP1 SSTORE POP JUMP JUMPDEST PUSH2 0xAB5 PUSH2 0x1758 JUMP JUMPDEST PUSH20 0xFFFFFFFFFFFFFFFFFFFFFFFFFFFFFFFFFFFFFFFF AND PUSH2 0xAD3 PUSH2 0xCC2 JUMP JUMPDEST PUSH20 0xFFFFFFFFFFFFFFFFFFFFFFFFFFFFFFFFFFFFFFFF AND EQ DUP1 PUSH2 0xB49 JUMPI POP PUSH2 0xAF8 PUSH2 0x1758 JUMP JUMPDEST PUSH20 0xFFFFFFFFFFFFFFFFFFFFFFFFFFFFFFFFFFFFFFFF AND PUSH1 0xE PUSH1 0x0 SWAP1 SLOAD SWAP1 PUSH2 0x100 EXP SWAP1 DIV PUSH20 0xFFFFFFFFFFFFFFFFFFFFFFFFFFFFFFFFFFFFFFFF AND PUSH20 0xFFFFFFFFFFFFFFFFFFFFFFFFFFFFFFFFFFFFFFFF AND EQ JUMPDEST PUSH2 0xB88 JUMPI PUSH1 0x40 MLOAD PUSH32 0x8C379A000000000000000000000000000000000000000000000000000000000 DUP2 MSTORE PUSH1 0x4 ADD PUSH2 0xB7F SWAP1 PUSH2 0x2F9F JUMP JUMPDEST PUSH1 0x40 MLOAD DUP1 SWAP2 SUB SWAP1 REVERT JUMPDEST DUP1 PUSH20 0xFFFFFFFFFFFFFFFFFFFFFFFFFFFFFFFFFFFFFFFF AND PUSH1 0xF PUSH1 0x0 SWAP1 SLOAD SWAP1 PUSH2 0x100 EXP SWAP1 DIV PUSH20 0xFFFFFFFFFFFFFFFFFFFFFFFFFFFFFFFFFFFFFFFF AND PUSH20 0xFFFFFFFFFFFFFFFFFFFFFFFFFFFFFFFFFFFFFFFF AND PUSH32 0xA64373A629BC0C09EACF8A9CC2C7B070FA0A8B7E2E9B8AAEE408A3C02EB1676B PUSH1 0x40 MLOAD PUSH1 0x40 MLOAD DUP1 SWAP2 SUB SWAP1 LOG3 DUP1 PUSH1 0xF PUSH1 0x0 PUSH2 0x100 EXP DUP2 SLOAD DUP2 PUSH20 0xFFFFFFFFFFFFFFFFFFFFFFFFFFFFFFFFFFFFFFFF MUL NOT AND SWAP1 DUP4 PUSH20 0xFFFFFFFFFFFFFFFFFFFFFFFFFFFFFFFFFFFFFFFF AND MUL OR SWAP1 SSTORE POP PUSH1 0x1 PUSH1 0x5 PUSH1 0x0 PUSH1 0xF PUSH1 0x0 SWAP1 SLOAD SWAP1 PUSH2 0x100 EXP SWAP1 DIV PUSH20 0xFFFFFFFFFFFFFFFFFFFFFFFFFFFFFFFFFFFFFFFF AND PUSH20 0xFFFFFFFFFFFFFFFFFFFFFFFFFFFFFFFFFFFFFFFF AND PUSH20 0xFFFFFFFFFFFFFFFFFFFFFFFFFFFFFFFFFFFFFFFF AND DUP2 MSTORE PUSH1 0x20 ADD SWAP1 DUP2 MSTORE PUSH1 0x20 ADD PUSH1 0x0 KECCAK256 PUSH1 0x0 PUSH2 0x100 EXP DUP2 SLOAD DUP2 PUSH1 0xFF MUL NOT AND SWAP1 DUP4 ISZERO ISZERO MUL OR SWAP1 SSTORE POP POP JUMP JUMPDEST PUSH1 0x0 DUP1 PUSH1 0x0 SWAP1 SLOAD SWAP1 PUSH2 0x100 EXP SWAP1 DIV PUSH20 0xFFFFFFFFFFFFFFFFFFFFFFFFFFFFFFFFFFFFFFFF AND SWAP1 POP SWAP1 JUMP JUMPDEST PUSH1 0x60 PUSH1 0x40 MLOAD DUP1 PUSH1 0x40 ADD PUSH1 0x40 MSTORE DUP1 PUSH1 0x3 DUP2 MSTORE PUSH1 0x20 ADD PUSH32 0x5753500000000000000000000000000000000000000000000000000000000000 DUP2 MSTORE POP SWAP1 POP SWAP1 JUMP JUMPDEST PUSH2 0xD30 PUSH2 0x1758 JUMP JUMPDEST PUSH20 0xFFFFFFFFFFFFFFFFFFFFFFFFFFFFFFFFFFFFFFFF AND PUSH2 0xD4E PUSH2 0xCC2 JUMP JUMPDEST PUSH20 0xFFFFFFFFFFFFFFFFFFFFFFFFFFFFFFFFFFFFFFFF AND EQ DUP1 PUSH2 0xDC4 JUMPI POP PUSH2 0xD73 PUSH2 0x1758 JUMP JUMPDEST PUSH20 0xFFFFFFFFFFFFFFFFFFFFFFFFFFFFFFFFFFFFFFFF AND PUSH1 0xE PUSH1 0x0 SWAP1 SLOAD SWAP1 PUSH2 0x100 EXP SWAP1 DIV PUSH20 0xFFFFFFFFFFFFFFFFFFFFFFFFFFFFFFFFFFFFFFFF AND PUSH20 0xFFFFFFFFFFFFFFFFFFFFFFFFFFFFFFFFFFFFFFFF AND EQ JUMPDEST PUSH2 0xE03 JUMPI PUSH1 0x40 MLOAD PUSH32 0x8C379A000000000000000000000000000000000000000000000000000000000 DUP2 MSTORE PUSH1 0x4 ADD PUSH2 0xDFA SWAP1 PUSH2 0x2F9F JUMP JUMPDEST PUSH1 0x40 MLOAD DUP1 SWAP2 SUB SWAP1 REVERT JUMPDEST PUSH1 0xB DUP5 LT PUSH2 0xE46 JUMPI PUSH1 0x40 MLOAD PUSH32 0x8C379A000000000000000000000000000000000000000000000000000000000 DUP2 MSTORE PUSH1 0x4 ADD PUSH2 0xE3D SWAP1 PUSH2 0x3077 JUMP JUMPDEST PUSH1 0x40 MLOAD DUP1 SWAP2 SUB SWAP1 REVERT JUMPDEST PUSH1 0xB DUP4 LT PUSH2 0xE89 JUMPI PUSH1 0x40 MLOAD PUSH32 0x8C379A000000000000000000000000000000000000000000000000000000000 DUP2 MSTORE PUSH1 0x4 ADD PUSH2 0xE80 SWAP1 PUSH2 0x3077 JUMP JUMPDEST PUSH1 0x40 MLOAD DUP1 SWAP2 SUB SWAP1 REVERT JUMPDEST PUSH1 0x7 DUP3 LT PUSH2 0xECC JUMPI PUSH1 0x40 MLOAD PUSH32 0x8C379A000000000000000000000000000000000000000000000000000000000 DUP2 MSTORE PUSH1 0x4 ADD PUSH2 0xEC3 SWAP1 PUSH2 0x30E3 JUMP JUMPDEST PUSH1 0x40 MLOAD DUP1 SWAP2 SUB SWAP1 REVERT JUMPDEST PUSH1 0x7 DUP2 LT PUSH2 0xF0F JUMPI PUSH1 0x40 MLOAD PUSH32 0x8C379A000000000000000000000000000000000000000000000000000000000 DUP2 MSTORE PUSH1 0x4 ADD PUSH2 0xF06 SWAP1 PUSH2 0x30E3 JUMP JUMPDEST PUSH1 0x40 MLOAD DUP1 SWAP2 SUB SWAP1 REVERT JUMPDEST DUP4 PUSH1 0x8 DUP2 SWAP1 SSTORE POP DUP3 PUSH1 0xA DUP2 SWAP1 SSTORE POP DUP2 PUSH1 0x9 DUP2 SWAP1 SSTORE POP DUP1 PUSH1 0xB DUP2 SWAP1 SSTORE POP POP POP POP POP JUMP JUMPDEST PUSH1 0x0 PUSH2 0xF45 PUSH2 0xF3E PUSH2 0x1758 JUMP JUMPDEST DUP5 DUP5 PUSH2 0x1929 JUMP JUMPDEST PUSH1 0x1 SWAP1 POP SWAP3 SWAP2 POP POP JUMP JUMPDEST PUSH2 0xF57 PUSH2 0x1758 JUMP JUMPDEST PUSH20 0xFFFFFFFFFFFFFFFFFFFFFFFFFFFFFFFFFFFFFFFF AND PUSH2 0xF75 PUSH2 0xCC2 JUMP JUMPDEST PUSH20 0xFFFFFFFFFFFFFFFFFFFFFFFFFFFFFFFFFFFFFFFF AND EQ DUP1 PUSH2 0xFEB JUMPI POP PUSH2 0xF9A PUSH2 0x1758 JUMP JUMPDEST PUSH20 0xFFFFFFFFFFFFFFFFFFFFFFFFFFFFFFFFFFFFFFFF AND PUSH1 0xE PUSH1 0x0 SWAP1 SLOAD SWAP1 PUSH2 0x100 EXP SWAP1 DIV PUSH20 0xFFFFFFFFFFFFFFFFFFFFFFFFFFFFFFFFFFFFFFFF AND PUSH20 0xFFFFFFFFFFFFFFFFFFFFFFFFFFFFFFFFFFFFFFFF AND EQ JUMPDEST PUSH2 0x102A JUMPI PUSH1 0x40 MLOAD PUSH32 0x8C379A000000000000000000000000000000000000000000000000000000000 DUP2 MSTORE PUSH1 0x4 ADD PUSH2 0x1021 SWAP1 PUSH2 0x2F9F JUMP JUMPDEST PUSH1 0x40 MLOAD DUP1 SWAP2 SUB SWAP1 REVERT JUMPDEST DUP1 PUSH20 0xFFFFFFFFFFFFFFFFFFFFFFFFFFFFFFFFFFFFFFFF AND PUSH1 0xE PUSH1 0x0 SWAP1 SLOAD SWAP1 PUSH2 0x100 EXP SWAP1 DIV PUSH20 0xFFFFFFFFFFFFFFFFFFFFFFFFFFFFFFFFFFFFFFFF AND PUSH20 0xFFFFFFFFFFFFFFFFFFFFFFFFFFFFFFFFFFFFFFFF AND PUSH32 0xFBBC329437E8C79F847E170730AD6DD04106B7511CAD70D06D635886D92DE83C PUSH1 0x40 MLOAD PUSH1 0x40 MLOAD DUP1 SWAP2 SUB SWAP1 LOG3 DUP1 PUSH1 0xE PUSH1 0x0 PUSH2 0x100 EXP DUP2 SLOAD DUP2 PUSH20 0xFFFFFFFFFFFFFFFFFFFFFFFFFFFFFFFFFFFFFFFF MUL NOT AND SWAP1 DUP4 PUSH20 0xFFFFFFFFFFFFFFFFFFFFFFFFFFFFFFFFFFFFFFFF AND MUL OR SWAP1 SSTORE POP PUSH1 0x1 PUSH1 0x5 PUSH1 0x0 PUSH1 0xE PUSH1 0x0 SWAP1 SLOAD SWAP1 PUSH2 0x100 EXP SWAP1 DIV PUSH20 0xFFFFFFFFFFFFFFFFFFFFFFFFFFFFFFFFFFFFFFFF AND PUSH20 0xFFFFFFFFFFFFFFFFFFFFFFFFFFFFFFFFFFFFFFFF AND PUSH20 0xFFFFFFFFFFFFFFFFFFFFFFFFFFFFFFFFFFFFFFFF AND DUP2 MSTORE PUSH1 0x20 ADD SWAP1 DUP2 MSTORE PUSH1 0x20 ADD PUSH1 0x0 KECCAK256 PUSH1 0x0 PUSH2 0x100 EXP DUP2 SLOAD DUP2 PUSH1 0xFF MUL NOT AND SWAP1 DUP4 ISZERO ISZERO MUL OR SWAP1 SSTORE POP POP JUMP JUMPDEST PUSH1 0xE PUSH1 0x0 SWAP1 SLOAD SWAP1 PUSH2 0x100 EXP SWAP1 DIV PUSH20 0xFFFFFFFFFFFFFFFFFFFFFFFFFFFFFFFFFFFFFFFF AND PUSH20 0xFFFFFFFFFFFFFFFFFFFFFFFFFFFFFFFFFFFFFFFF AND PUSH2 0x11A5 PUSH2 0x1758 JUMP JUMPDEST PUSH20 0xFFFFFFFFFFFFFFFFFFFFFFFFFFFFFFFFFFFFFFFF AND EQ DUP1 PUSH2 0x121B JUMPI POP PUSH1 0xF PUSH1 0x0 SWAP1 SLOAD SWAP1 PUSH2 0x100 EXP SWAP1 DIV PUSH20 0xFFFFFFFFFFFFFFFFFFFFFFFFFFFFFFFFFFFFFFFF AND PUSH20 0xFFFFFFFFFFFFFFFFFFFFFFFFFFFFFFFFFFFFFFFF AND PUSH2 0x1203 PUSH2 0x1758 JUMP JUMPDEST PUSH20 0xFFFFFFFFFFFFFFFFFFFFFFFFFFFFFFFFFFFFFFFF AND EQ JUMPDEST DUP1 PUSH2 0x125F JUMPI POP PUSH2 0x1229 PUSH2 0xCC2 JUMP JUMPDEST PUSH20 0xFFFFFFFFFFFFFFFFFFFFFFFFFFFFFFFFFFFFFFFF AND PUSH2 0x1247 PUSH2 0x1758 JUMP JUMPDEST PUSH20 0xFFFFFFFFFFFFFFFFFFFFFFFFFFFFFFFFFFFFFFFF AND EQ JUMPDEST PUSH2 0x1268 JUMPI PUSH1 0x0 DUP1 REVERT JUMPDEST PUSH1 0x0 PUSH2 0x1273 ADDRESS PUSH2 0x909 JUMP JUMPDEST SWAP1 POP PUSH2 0x127E DUP2 PUSH2 0x2068 JUMP JUMPDEST POP JUMP JUMPDEST PUSH2 0x1289 PUSH2 0x1758 JUMP JUMPDEST PUSH20 0xFFFFFFFFFFFFFFFFFFFFFFFFFFFFFFFFFFFFFFFF AND PUSH1 0x0 DUP1 SLOAD SWAP1 PUSH2 0x100 EXP SWAP1 DIV PUSH20 0xFFFFFFFFFFFFFFFFFFFFFFFFFFFFFFFFFFFFFFFF AND PUSH20 0xFFFFFFFFFFFFFFFFFFFFFFFFFFFFFFFFFFFFFFFF AND EQ PUSH2 0x1316 JUMPI PUSH1 0x40 MLOAD PUSH32 0x8C379A000000000000000000000000000000000000000000000000000000000 DUP2 MSTORE PUSH1 0x4 ADD PUSH2 0x130D SWAP1 PUSH2 0x300B JUMP JUMPDEST PUSH1 0x40 MLOAD DUP1 SWAP2 SUB SWAP1 REVERT JUMPDEST PUSH1 0x0 JUMPDEST DUP4 DUP4 SWAP1 POP DUP2 LT ISZERO PUSH2 0x13B5 JUMPI DUP2 PUSH1 0x5 PUSH1 0x0 DUP7 DUP7 DUP6 DUP2 DUP2 LT PUSH2 0x133C JUMPI PUSH2 0x133B PUSH2 0x3103 JUMP JUMPDEST JUMPDEST SWAP1 POP PUSH1 0x20 MUL ADD PUSH1 0x20 DUP2 ADD SWAP1 PUSH2 0x1351 SWAP2 SWAP1 PUSH2 0x2D4F JUMP JUMPDEST PUSH20 0xFFFFFFFFFFFFFFFFFFFFFFFFFFFFFFFFFFFFFFFF AND PUSH20 0xFFFFFFFFFFFFFFFFFFFFFFFFFFFFFFFFFFFFFFFF AND DUP2 MSTORE PUSH1 0x20 ADD SWAP1 DUP2 MSTORE PUSH1 0x20 ADD PUSH1 0x0 KECCAK256 PUSH1 0x0 PUSH2 0x100 EXP DUP2 SLOAD DUP2 PUSH1 0xFF MUL NOT AND SWAP1 DUP4 ISZERO ISZERO MUL OR SWAP1 SSTORE POP DUP1 DUP1 PUSH2 0x13AD SWAP1 PUSH2 0x3161 JUMP JUMPDEST SWAP2 POP POP PUSH2 0x1319 JUMP JUMPDEST POP POP POP POP JUMP JUMPDEST PUSH1 0x0 PUSH1 0x4 PUSH1 0x0 DUP5 PUSH20 0xFFFFFFFFFFFFFFFFFFFFFFFFFFFFFFFFFFFFFFFF AND PUSH20 0xFFFFFFFFFFFFFFFFFFFFFFFFFFFFFFFFFFFFFFFF AND DUP2 MSTORE PUSH1 0x20 ADD SWAP1 DUP2 MSTORE PUSH1 0x20 ADD PUSH1 0x0 KECCAK256 PUSH1 0x0 DUP4 PUSH20 0xFFFFFFFFFFFFFFFFFFFFFFFFFFFFFFFFFFFFFFFF AND PUSH20 0xFFFFFFFFFFFFFFFFFFFFFFFFFFFFFFFFFFFFFFFF AND DUP2 MSTORE PUSH1 0x20 ADD SWAP1 DUP2 MSTORE PUSH1 0x20 ADD PUSH1 0x0 KECCAK256 SLOAD SWAP1 POP SWAP3 SWAP2 POP POP JUMP JUMPDEST PUSH2 0x144A PUSH2 0x1758 JUMP JUMPDEST PUSH20 0xFFFFFFFFFFFFFFFFFFFFFFFFFFFFFFFFFFFFFFFF AND PUSH2 0x1468 PUSH2 0xCC2 JUMP JUMPDEST PUSH20 0xFFFFFFFFFFFFFFFFFFFFFFFFFFFFFFFFFFFFFFFF AND EQ DUP1 PUSH2 0x14DE JUMPI POP PUSH2 0x148D PUSH2 0x1758 JUMP JUMPDEST PUSH20 0xFFFFFFFFFFFFFFFFFFFFFFFFFFFFFFFFFFFFFFFF AND PUSH1 0xE PUSH1 0x0 SWAP1 SLOAD SWAP1 PUSH2 0x100 EXP SWAP1 DIV PUSH20 0xFFFFFFFFFFFFFFFFFFFFFFFFFFFFFFFFFFFFFFFF AND PUSH20 0xFFFFFFFFFFFFFFFFFFFFFFFFFFFFFFFFFFFFFFFF AND EQ JUMPDEST PUSH2 0x151D JUMPI PUSH1 0x40 MLOAD PUSH32 0x8C379A000000000000000000000000000000000000000000000000000000000 DUP2 MSTORE PUSH1 0x4 ADD PUSH2 0x1514 SWAP1 PUSH2 0x2F9F JUMP JUMPDEST PUSH1 0x40 MLOAD DUP1 SWAP2 SUB SWAP1 REVERT JUMPDEST DUP2 PUSH20 0xFFFFFFFFFFFFFFFFFFFFFFFFFFFFFFFFFFFFFFFF AND DUP4 PUSH20 0xFFFFFFFFFFFFFFFFFFFFFFFFFFFFFFFFFFFFFFFF AND PUSH32 0x47C33AA230EB5FD181505AA7BEFEADDD9B8A6F983989CEA73A7868448C3A9ED9 DUP4 PUSH1 0x40 MLOAD PUSH2 0x157A SWAP2 SWAP1 PUSH2 0x2BEB JUMP JUMPDEST PUSH1 0x40 MLOAD DUP1 SWAP2 SUB SWAP1 LOG3 DUP3 PUSH20 0xFFFFFFFFFFFFFFFFFFFFFFFFFFFFFFFFFFFFFFFF AND PUSH4 0xA9059CBB DUP4 DUP4 PUSH1 0x40 MLOAD DUP4 PUSH4 0xFFFFFFFF AND PUSH1 0xE0 SHL DUP2 MSTORE PUSH1 0x4 ADD PUSH2 0x15BD SWAP3 SWAP2 SWAP1 PUSH2 0x31A9 JUMP JUMPDEST PUSH1 0x20 PUSH1 0x40 MLOAD DUP1 DUP4 SUB DUP2 PUSH1 0x0 DUP8 GAS CALL ISZERO DUP1 ISZERO PUSH2 0x15DC JUMPI RETURNDATASIZE PUSH1 0x0 DUP1 RETURNDATACOPY RETURNDATASIZE PUSH1 0x0 REVERT JUMPDEST POP POP POP POP PUSH1 0x40 MLOAD RETURNDATASIZE PUSH1 0x1F NOT PUSH1 0x1F DUP3 ADD AND DUP3 ADD DUP1 PUSH1 0x40 MSTORE POP DUP2 ADD SWAP1 PUSH2 0x1600 SWAP2 SWAP1 PUSH2 0x31E7 JUMP JUMPDEST POP POP POP POP JUMP JUMPDEST PUSH2 0x160E PUSH2 0x1758 JUMP JUMPDEST PUSH20 0xFFFFFFFFFFFFFFFFFFFFFFFFFFFFFFFFFFFFFFFF AND PUSH1 0x0 DUP1 SLOAD SWAP1 PUSH2 0x100 EXP SWAP1 DIV PUSH20 0xFFFFFFFFFFFFFFFFFFFFFFFFFFFFFFFFFFFFFFFF AND PUSH20 0xFFFFFFFFFFFFFFFFFFFFFFFFFFFFFFFFFFFFFFFF AND EQ PUSH2 0x169B JUMPI PUSH1 0x40 MLOAD PUSH32 0x8C379A000000000000000000000000000000000000000000000000000000000 DUP2 MSTORE PUSH1 0x4 ADD PUSH2 0x1692 SWAP1 PUSH2 0x300B JUMP JUMPDEST PUSH1 0x40 MLOAD DUP1 SWAP2 SUB SWAP1 REVERT JUMPDEST DUP1 PUSH20 0xFFFFFFFFFFFFFFFFFFFFFFFFFFFFFFFFFFFFFFFF AND PUSH1 0x0 DUP1 SLOAD SWAP1 PUSH2 0x100 EXP SWAP1 DIV PUSH20 0xFFFFFFFFFFFFFFFFFFFFFFFFFFFFFFFFFFFFFFFF AND PUSH20 0xFFFFFFFFFFFFFFFFFFFFFFFFFFFFFFFFFFFFFFFF AND PUSH32 0x8BE0079C531659141344CD1FD0A4F28419497F9722A3DAAFE3B4186F6B6457E0 PUSH1 0x40 MLOAD PUSH1 0x40 MLOAD DUP1 SWAP2 SUB SWAP1 LOG3 DUP1 PUSH1 0x0 DUP1 PUSH2 0x100 EXP DUP2 SLOAD DUP2 PUSH20 0xFFFFFFFFFFFFFFFFFFFFFFFFFFFFFFFFFFFFFFFF MUL NOT AND SWAP1 DUP4 PUSH20 0xFFFFFFFFFFFFFFFFFFFFFFFFFFFFFFFFFFFFFFFF AND MUL OR SWAP1 SSTORE POP POP JUMP JUMPDEST PUSH1 0x0 CALLER SWAP1 POP SWAP1 JUMP JUMPDEST PUSH1 0x0 PUSH20 0xFFFFFFFFFFFFFFFFFFFFFFFFFFFFFFFFFFFFFFFF AND DUP4 PUSH20 0xFFFFFFFFFFFFFFFFFFFFFFFFFFFFFFFFFFFFFFFF AND SUB PUSH2 0x17CF JUMPI PUSH1 0x40 MLOAD PUSH32 0x8C379A000000000000000000000000000000000000000000000000000000000 DUP2 MSTORE PUSH1 0x4 ADD PUSH2 0x17C6 SWAP1 PUSH2 0x3286 JUMP JUMPDEST PUSH1 0x40 MLOAD DUP1 SWAP2 SUB SWAP1 REVERT JUMPDEST PUSH1 0x0 PUSH20 0xFFFFFFFFFFFFFFFFFFFFFFFFFFFFFFFFFFFFFFFF AND DUP3 PUSH20 0xFFFFFFFFFFFFFFFFFFFFFFFFFFFFFFFFFFFFFFFF AND SUB PUSH2 0x183E JUMPI PUSH1 0x40 MLOAD PUSH32 0x8C379A000000000000000000000000000000000000000000000000000000000 DUP2 MSTORE PUSH1 0x4 ADD PUSH2 0x1835 SWAP1 PUSH2 0x3318 JUMP JUMPDEST PUSH1 0x40 MLOAD DUP1 SWAP2 SUB SWAP1 REVERT JUMPDEST DUP1 PUSH1 0x4 PUSH1 0x0 DUP6 PUSH20 0xFFFFFFFFFFFFFFFFFFFFFFFFFFFFFFFFFFFFFFFF AND PUSH20 0xFFFFFFFFFFFFFFFFFFFFFFFFFFFFFFFFFFFFFFFF AND DUP2 MSTORE PUSH1 0x20 ADD SWAP1 DUP2 MSTORE PUSH1 0x20 ADD PUSH1 0x0 KECCAK256 PUSH1 0x0 DUP5 PUSH20 0xFFFFFFFFFFFFFFFFFFFFFFFFFFFFFFFFFFFFFFFF AND PUSH20 0xFFFFFFFFFFFFFFFFFFFFFFFFFFFFFFFFFFFFFFFF AND DUP2 MSTORE PUSH1 0x20 ADD SWAP1 DUP2 MSTORE PUSH1 0x20 ADD PUSH1 0x0 KECCAK256 DUP2 SWAP1 SSTORE POP DUP2 PUSH20 0xFFFFFFFFFFFFFFFFFFFFFFFFFFFFFFFFFFFFFFFF AND DUP4 PUSH20 0xFFFFFFFFFFFFFFFFFFFFFFFFFFFFFFFFFFFFFFFF AND PUSH32 0x8C5BE1E5EBEC7D5BD14F71427D1E84F3DD0314C0F7B2291E5B200AC8C7C3B925 DUP4 PUSH1 0x40 MLOAD PUSH2 0x191C SWAP2 SWAP1 PUSH2 0x2BEB JUMP JUMPDEST PUSH1 0x40 MLOAD DUP1 SWAP2 SUB SWAP1 LOG3 POP POP POP JUMP JUMPDEST PUSH1 0x0 PUSH20 0xFFFFFFFFFFFFFFFFFFFFFFFFFFFFFFFFFFFFFFFF AND DUP4 PUSH20 0xFFFFFFFFFFFFFFFFFFFFFFFFFFFFFFFFFFFFFFFF AND SUB PUSH2 0x1998 JUMPI PUSH1 0x40 MLOAD PUSH32 0x8C379A000000000000000000000000000000000000000000000000000000000 DUP2 MSTORE PUSH1 0x4 ADD PUSH2 0x198F SWAP1 PUSH2 0x33AA JUMP JUMPDEST PUSH1 0x40 MLOAD DUP1 SWAP2 SUB SWAP1 REVERT JUMPDEST PUSH1 0x0 PUSH20 0xFFFFFFFFFFFFFFFFFFFFFFFFFFFFFFFFFFFFFFFF AND DUP3 PUSH20 0xFFFFFFFFFFFFFFFFFFFFFFFFFFFFFFFFFFFFFFFF AND SUB PUSH2 0x1A07 JUMPI PUSH1 0x40 MLOAD PUSH32 0x8C379A000000000000000000000000000000000000000000000000000000000 DUP2 MSTORE PUSH1 0x4 ADD PUSH2 0x19FE SWAP1 PUSH2 0x343C JUMP JUMPDEST PUSH1 0x40 MLOAD DUP1 SWAP2 SUB SWAP1 REVERT JUMPDEST PUSH1 0x0 DUP2 GT PUSH2 0x1A4A JUMPI PUSH1 0x40 MLOAD PUSH32 0x8C379A000000000000000000000000000000000000000000000000000000000 DUP2 MSTORE PUSH1 0x4 ADD PUSH2 0x1A41 SWAP1 PUSH2 0x34CE JUMP JUMPDEST PUSH1 0x40 MLOAD DUP1 SWAP2 SUB SWAP1 REVERT JUMPDEST PUSH1 0x0 PUSH1 0xC DUP2 SWAP1 SSTORE POP PUSH1 0x0 PUSH1 0xD DUP2 SWAP1 SSTORE POP PUSH2 0x1A62 PUSH2 0xCC2 JUMP JUMPDEST PUSH20 0xFFFFFFFFFFFFFFFFFFFFFFFFFFFFFFFFFFFFFFFF AND DUP4 PUSH20 0xFFFFFFFFFFFFFFFFFFFFFFFFFFFFFFFFFFFFFFFF AND EQ ISZERO DUP1 ISZERO PUSH2 0x1AD0 JUMPI POP PUSH2 0x1AA0 PUSH2 0xCC2 JUMP JUMPDEST PUSH20 0xFFFFFFFFFFFFFFFFFFFFFFFFFFFFFFFFFFFFFFFF AND DUP3 PUSH20 0xFFFFFFFFFFFFFFFFFFFFFFFFFFFFFFFFFFFFFFFF AND EQ ISZERO JUMPDEST ISZERO PUSH2 0x1E8B JUMPI PUSH1 0x0 PUSH2 0x1AE0 ADDRESS PUSH2 0x909 JUMP JUMPDEST SWAP1 POP PUSH1 0x12 PUSH1 0x14 SWAP1 SLOAD SWAP1 PUSH2 0x100 EXP SWAP1 DIV PUSH1 0xFF AND ISZERO DUP1 ISZERO PUSH2 0x1B4D JUMPI POP PUSH1 0x12 PUSH1 0x0 SWAP1 SLOAD SWAP1 PUSH2 0x100 EXP SWAP1 DIV PUSH20 0xFFFFFFFFFFFFFFFFFFFFFFFFFFFFFFFFFFFFFFFF AND PUSH20 0xFFFFFFFFFFFFFFFFFFFFFFFFFFFFFFFFFFFFFFFF AND DUP5 PUSH20 0xFFFFFFFFFFFFFFFFFFFFFFFFFFFFFFFFFFFFFFFF AND EQ ISZERO JUMPDEST DUP1 ISZERO PUSH2 0x1B65 JUMPI POP PUSH1 0x12 PUSH1 0x15 SWAP1 SLOAD SWAP1 PUSH2 0x100 EXP SWAP1 DIV PUSH1 0xFF AND JUMPDEST DUP1 ISZERO PUSH2 0x1B71 JUMPI POP PUSH1 0x0 DUP2 GT JUMPDEST ISZERO PUSH2 0x1B99 JUMPI PUSH2 0x1B7F DUP2 PUSH2 0x2068 JUMP JUMPDEST PUSH1 0x0 SELFBALANCE SWAP1 POP PUSH1 0x0 DUP2 GT ISZERO PUSH2 0x1B97 JUMPI PUSH2 0x1B96 SELFBALANCE PUSH2 0x1EFF JUMP JUMPDEST JUMPDEST POP JUMPDEST PUSH1 0x12 PUSH1 0x0 SWAP1 SLOAD SWAP1 PUSH2 0x100 EXP SWAP1 DIV PUSH20 0xFFFFFFFFFFFFFFFFFFFFFFFFFFFFFFFFFFFFFFFF AND PUSH20 0xFFFFFFFFFFFFFFFFFFFFFFFFFFFFFFFFFFFFFFFF AND DUP5 PUSH20 0xFFFFFFFFFFFFFFFFFFFFFFFFFFFFFFFFFFFFFFFF AND EQ DUP1 ISZERO PUSH2 0x1C44 JUMPI POP PUSH1 0x10 PUSH1 0x0 SWAP1 SLOAD SWAP1 PUSH2 0x100 EXP SWAP1 DIV PUSH20 0xFFFFFFFFFFFFFFFFFFFFFFFFFFFFFFFFFFFFFFFF AND PUSH20 0xFFFFFFFFFFFFFFFFFFFFFFFFFFFFFFFFFFFFFFFF AND DUP4 PUSH20 0xFFFFFFFFFFFFFFFFFFFFFFFFFFFFFFFFFFFFFFFF AND EQ ISZERO JUMPDEST ISZERO PUSH2 0x1C5C JUMPI PUSH1 0x8 SLOAD PUSH1 0xC DUP2 SWAP1 SSTORE POP PUSH1 0x9 SLOAD PUSH1 0xD DUP2 SWAP1 SSTORE POP JUMPDEST PUSH1 0x12 PUSH1 0x0 SWAP1 SLOAD SWAP1 PUSH2 0x100 EXP SWAP1 DIV PUSH20 0xFFFFFFFFFFFFFFFFFFFFFFFFFFFFFFFFFFFFFFFF AND PUSH20 0xFFFFFFFFFFFFFFFFFFFFFFFFFFFFFFFFFFFFFFFF AND DUP4 PUSH20 0xFFFFFFFFFFFFFFFFFFFFFFFFFFFFFFFFFFFFFFFF AND EQ DUP1 ISZERO PUSH2 0x1D07 JUMPI POP PUSH1 0x10 PUSH1 0x0 SWAP1 SLOAD SWAP1 PUSH2 0x100 EXP SWAP1 DIV PUSH20 0xFFFFFFFFFFFFFFFFFFFFFFFFFFFFFFFFFFFFFFFF AND PUSH20 0xFFFFFFFFFFFFFFFFFFFFFFFFFFFFFFFFFFFFFFFF AND DUP5 PUSH20 0xFFFFFFFFFFFFFFFFFFFFFFFFFFFFFFFFFFFFFFFF AND EQ ISZERO JUMPDEST ISZERO PUSH2 0x1D1F JUMPI PUSH1 0xA SLOAD PUSH1 0xC DUP2 SWAP1 SSTORE POP PUSH1 0xB SLOAD PUSH1 0xD DUP2 SWAP1 SSTORE POP JUMPDEST PUSH1 0x5 PUSH1 0x0 DUP6 PUSH20 0xFFFFFFFFFFFFFFFFFFFFFFFFFFFFFFFFFFFFFFFF AND PUSH20 0xFFFFFFFFFFFFFFFFFFFFFFFFFFFFFFFFFFFFFFFF AND DUP2 MSTORE PUSH1 0x20 ADD SWAP1 DUP2 MSTORE PUSH1 0x20 ADD PUSH1 0x0 KECCAK256 PUSH1 0x0 SWAP1 SLOAD SWAP1 PUSH2 0x100 EXP SWAP1 DIV PUSH1 0xFF AND DUP1 PUSH2 0x1DC0 JUMPI POP PUSH1 0x5 PUSH1 0x0 DUP5 PUSH20 0xFFFFFFFFFFFFFFFFFFFFFFFFFFFFFFFFFFFFFFFF AND PUSH20 0xFFFFFFFFFFFFFFFFFFFFFFFFFFFFFFFFFFFFFFFF AND DUP2 MSTORE PUSH1 0x20 ADD SWAP1 DUP2 MSTORE PUSH1 0x20 ADD PUSH1 0x0 KECCAK256 PUSH1 0x0 SWAP1 SLOAD SWAP1 PUSH2 0x100 EXP SWAP1 DIV PUSH1 0xFF AND JUMPDEST DUP1 PUSH2 0x1E73 JUMPI POP PUSH1 0x12 PUSH1 0x0 SWAP1 SLOAD SWAP1 PUSH2 0x100 EXP SWAP1 DIV PUSH20 0xFFFFFFFFFFFFFFFFFFFFFFFFFFFFFFFFFFFFFFFF AND PUSH20 0xFFFFFFFFFFFFFFFFFFFFFFFFFFFFFFFFFFFFFFFF AND DUP5 PUSH20 0xFFFFFFFFFFFFFFFFFFFFFFFFFFFFFFFFFFFFFFFF AND EQ ISZERO DUP1 ISZERO PUSH2 0x1E72 JUMPI POP PUSH1 0x12 PUSH1 0x0 SWAP1 SLOAD SWAP1 PUSH2 0x100 EXP SWAP1 DIV PUSH20 0xFFFFFFFFFFFFFFFFFFFFFFFFFFFFFFFFFFFFFFFF AND PUSH20 0xFFFFFFFFFFFFFFFFFFFFFFFFFFFFFFFFFFFFFFFF AND DUP4 PUSH20 0xFFFFFFFFFFFFFFFFFFFFFFFFFFFFFFFFFFFFFFFF AND EQ ISZERO JUMPDEST JUMPDEST ISZERO PUSH2 0x1E89 JUMPI PUSH1 0x0 PUSH1 0xC DUP2 SWAP1 SSTORE POP PUSH1 0x0 PUSH1 0xD DUP2 SWAP1 SSTORE POP JUMPDEST POP JUMPDEST PUSH2 0x1E96 DUP4 DUP4 DUP4 PUSH2 0x22E1 JUMP JUMPDEST POP POP POP JUMP JUMPDEST PUSH1 0x0 DUP4 DUP4 GT ISZERO DUP3 SWAP1 PUSH2 0x1EE3 JUMPI PUSH1 0x40 MLOAD PUSH32 0x8C379A000000000000000000000000000000000000000000000000000000000 DUP2 MSTORE PUSH1 0x4 ADD PUSH2 0x1EDA SWAP2 SWAP1 PUSH2 0x2A2C JUMP JUMPDEST PUSH1 0x40 MLOAD DUP1 SWAP2 SUB SWAP1 REVERT JUMPDEST POP PUSH1 0x0 DUP4 DUP6 PUSH2 0x1EF2 SWAP2 SWAP1 PUSH2 0x34EE JUMP JUMPDEST SWAP1 POP DUP1 SWAP2 POP POP SWAP4 SWAP3 POP POP POP JUMP JUMPDEST PUSH1 0xE PUSH1 0x0 SWAP1 SLOAD SWAP1 PUSH2 0x100 EXP SWAP1 DIV PUSH20 0xFFFFFFFFFFFFFFFFFFFFFFFFFFFFFFFFFFFFFFFF AND PUSH20 0xFFFFFFFFFFFFFFFFFFFFFFFFFFFFFFFFFFFFFFFF AND PUSH2 0x8FC PUSH2 0x1F4F PUSH1 0x2 DUP5 PUSH2 0x22F1 SWAP1 SWAP2 SWAP1 PUSH4 0xFFFFFFFF AND JUMP JUMPDEST SWAP1 DUP2 ISZERO MUL SWAP1 PUSH1 0x40 MLOAD PUSH1 0x0 PUSH1 0x40 MLOAD DUP1 DUP4 SUB DUP2 DUP6 DUP9 DUP9 CALL SWAP4 POP POP POP POP ISZERO DUP1 ISZERO PUSH2 0x1F7A JUMPI RETURNDATASIZE PUSH1 0x0 DUP1 RETURNDATACOPY RETURNDATASIZE PUSH1 0x0 REVERT JUMPDEST POP PUSH1 0xF PUSH1 0x0 SWAP1 SLOAD SWAP1 PUSH2 0x100 EXP SWAP1 DIV PUSH20 0xFFFFFFFFFFFFFFFFFFFFFFFFFFFFFFFFFFFFFFFF AND PUSH20 0xFFFFFFFFFFFFFFFFFFFFFFFFFFFFFFFFFFFFFFFF AND PUSH2 0x8FC PUSH2 0x1FCB PUSH1 0x2 DUP5 PUSH2 0x22F1 SWAP1 SWAP2 SWAP1 PUSH4 0xFFFFFFFF AND JUMP JUMPDEST SWAP1 DUP2 ISZERO MUL SWAP1 PUSH1 0x40 MLOAD PUSH1 0x0 PUSH1 0x40 MLOAD DUP1 DUP4 SUB DUP2 DUP6 DUP9 DUP9 CALL SWAP4 POP POP POP POP ISZERO DUP1 ISZERO PUSH2 0x1FF6 JUMPI RETURNDATASIZE PUSH1 0x0 DUP1 RETURNDATACOPY RETURNDATASIZE PUSH1 0x0 REVERT JUMPDEST POP POP JUMP JUMPDEST PUSH1 0x0 PUSH1 0x6 SLOAD DUP3 GT ISZERO PUSH2 0x2041 JUMPI PUSH1 0x40 MLOAD PUSH32 0x8C379A000000000000000000000000000000000000000000000000000000000 DUP2 MSTORE PUSH1 0x4 ADD PUSH2 0x2038 SWAP1 PUSH2 0x3594 JUMP JUMPDEST PUSH1 0x40 MLOAD DUP1 SWAP2 SUB SWAP1 REVERT JUMPDEST PUSH1 0x0 PUSH2 0x204B PUSH2 0x233B JUMP JUMPDEST SWAP1 POP PUSH2 0x2060 DUP2 DUP5 PUSH2 0x22F1 SWAP1 SWAP2 SWAP1 PUSH4 0xFFFFFFFF AND JUMP JUMPDEST SWAP2 POP POP SWAP2 SWAP1 POP JUMP JUMPDEST PUSH1 0x1 PUSH1 0x12 PUSH1 0x14 PUSH2 0x100 EXP DUP2 SLOAD DUP2 PUSH1 0xFF MUL NOT AND SWAP1 DUP4 ISZERO ISZERO MUL OR SWAP1 SSTORE POP PUSH1 0x0 PUSH1 0x2 PUSH8 0xFFFFFFFFFFFFFFFF DUP2 GT ISZERO PUSH2 0x20A0 JUMPI PUSH2 0x209F PUSH2 0x35B4 JUMP JUMPDEST JUMPDEST PUSH1 0x40 MLOAD SWAP1 DUP1 DUP3 MSTORE DUP1 PUSH1 0x20 MUL PUSH1 0x20 ADD DUP3 ADD PUSH1 0x40 MSTORE DUP1 ISZERO PUSH2 0x20CE JUMPI DUP2 PUSH1 0x20 ADD PUSH1 0x20 DUP3 MUL DUP1 CALLDATASIZE DUP4 CALLDATACOPY DUP1 DUP3 ADD SWAP2 POP POP SWAP1 POP JUMPDEST POP SWAP1 POP ADDRESS DUP2 PUSH1 0x0 DUP2 MLOAD DUP2 LT PUSH2 0x20E6 JUMPI PUSH2 0x20E5 PUSH2 0x3103 JUMP JUMPDEST JUMPDEST PUSH1 0x20 MUL PUSH1 0x20 ADD ADD SWAP1 PUSH20 0xFFFFFFFFFFFFFFFFFFFFFFFFFFFFFFFFFFFFFFFF AND SWAP1 DUP2 PUSH20 0xFFFFFFFFFFFFFFFFFFFFFFFFFFFFFFFFFFFFFFFF AND DUP2 MSTORE POP POP PUSH1 0x10 PUSH1 0x0 SWAP1 SLOAD SWAP1 PUSH2 0x100 EXP SWAP1 DIV PUSH20 0xFFFFFFFFFFFFFFFFFFFFFFFFFFFFFFFFFFFFFFFF AND PUSH20 0xFFFFFFFFFFFFFFFFFFFFFFFFFFFFFFFFFFFFFFFF AND PUSH4 0xAD5C4648 PUSH1 0x40 MLOAD DUP2 PUSH4 0xFFFFFFFF AND PUSH1 0xE0 SHL DUP2 MSTORE PUSH1 0x4 ADD PUSH1 0x20 PUSH1 0x40 MLOAD DUP1 DUP4 SUB DUP2 DUP7 GAS STATICCALL ISZERO DUP1 ISZERO PUSH2 0x218D JUMPI RETURNDATASIZE PUSH1 0x0 DUP1 RETURNDATACOPY RETURNDATASIZE PUSH1 0x0 REVERT JUMPDEST POP POP POP POP PUSH1 0x40 MLOAD RETURNDATASIZE PUSH1 0x1F NOT PUSH1 0x1F DUP3 ADD AND DUP3 ADD DUP1 PUSH1 0x40 MSTORE POP DUP2 ADD SWAP1 PUSH2 0x21B1 SWAP2 SWAP1 PUSH2 0x35F8 JUMP JUMPDEST DUP2 PUSH1 0x1 DUP2 MLOAD DUP2 LT PUSH2 0x21C5 JUMPI PUSH2 0x21C4 PUSH2 0x3103 JUMP JUMPDEST JUMPDEST PUSH1 0x20 MUL PUSH1 0x20 ADD ADD SWAP1 PUSH20 0xFFFFFFFFFFFFFFFFFFFFFFFFFFFFFFFFFFFFFFFF AND SWAP1 DUP2 PUSH20 0xFFFFFFFFFFFFFFFFFFFFFFFFFFFFFFFFFFFFFFFF AND DUP2 MSTORE POP POP PUSH2 0x222C ADDRESS PUSH1 0x10 PUSH1 0x0 SWAP1 SLOAD SWAP1 PUSH2 0x100 EXP SWAP1 DIV PUSH20 0xFFFFFFFFFFFFFFFFFFFFFFFFFFFFFFFFFFFFFFFF AND DUP5 PUSH2 0x1760 JUMP JUMPDEST PUSH1 0x10 PUSH1 0x0 SWAP1 SLOAD SWAP1 PUSH2 0x100 EXP SWAP1 DIV PUSH20 0xFFFFFFFFFFFFFFFFFFFFFFFFFFFFFFFFFFFFFFFF AND PUSH20 0xFFFFFFFFFFFFFFFFFFFFFFFFFFFFFFFFFFFFFFFF AND PUSH4 0x791AC947 DUP4 PUSH1 0x0 DUP5 ADDRESS TIMESTAMP PUSH1 0x40 MLOAD DUP7 PUSH4 0xFFFFFFFF AND PUSH1 0xE0 SHL DUP2 MSTORE PUSH1 0x4 ADD PUSH2 0x2290 SWAP6 SWAP5 SWAP4 SWAP3 SWAP2 SWAP1 PUSH2 0x371E JUMP JUMPDEST PUSH1 0x0 PUSH1 0x40 MLOAD DUP1 DUP4 SUB DUP2 PUSH1 0x0 DUP8 DUP1 EXTCODESIZE ISZERO DUP1 ISZERO PUSH2 0x22AA JUMPI PUSH1 0x0 DUP1 REVERT JUMPDEST POP GAS CALL ISZERO DUP1 ISZERO PUSH2 0x22BE JUMPI RETURNDATASIZE PUSH1 0x0 DUP1 RETURNDATACOPY RETURNDATASIZE PUSH1 0x0 REVERT JUMPDEST POP POP POP POP POP PUSH1 0x0 PUSH1 0x12 PUSH1 0x14 PUSH2 0x100 EXP DUP2 SLOAD DUP2 PUSH1 0xFF MUL NOT AND SWAP1 DUP4 ISZERO ISZERO MUL OR SWAP1 SSTORE POP POP JUMP JUMPDEST PUSH2 0x22EC DUP4 DUP4 DUP4 PUSH2 0x2366 JUMP JUMPDEST POP POP POP JUMP JUMPDEST PUSH1 0x0 PUSH2 0x2333 DUP4 DUP4 PUSH1 0x40 MLOAD DUP1 PUSH1 0x40 ADD PUSH1 0x40 MSTORE DUP1 PUSH1 0x1A DUP2 MSTORE PUSH1 0x20 ADD PUSH32 0x536166654D6174683A206469766973696F6E206279207A65726F000000000000 DUP2 MSTORE POP PUSH2 0x2531 JUMP JUMPDEST SWAP1 POP SWAP3 SWAP2 POP POP JUMP JUMPDEST PUSH1 0x0 DUP1 PUSH1 0x0 PUSH2 0x2348 PUSH2 0x2594 JUMP JUMPDEST SWAP2 POP SWAP2 POP PUSH2 0x235F DUP2 DUP4 PUSH2 0x22F1 SWAP1 SWAP2 SWAP1 PUSH4 0xFFFFFFFF AND JUMP JUMPDEST SWAP3 POP POP POP SWAP1 JUMP JUMPDEST PUSH1 0x0 DUP1 PUSH1 0x0 DUP1 PUSH1 0x0 DUP1 PUSH2 0x2378 DUP8 PUSH2 0x25F3 JUMP JUMPDEST SWAP6 POP SWAP6 POP SWAP6 POP SWAP6 POP SWAP6 POP SWAP6 POP PUSH2 0x23D6 DUP7 PUSH1 0x2 PUSH1 0x0 DUP13 PUSH20 0xFFFFFFFFFFFFFFFFFFFFFFFFFFFFFFFFFFFFFFFF AND PUSH20 0xFFFFFFFFFFFFFFFFFFFFFFFFFFFFFFFFFFFFFFFF AND DUP2 MSTORE PUSH1 0x20 ADD SWAP1 DUP2 MSTORE PUSH1 0x20 ADD PUSH1 0x0 KECCAK256 SLOAD PUSH2 0x265B SWAP1 SWAP2 SWAP1 PUSH4 0xFFFFFFFF AND JUMP JUMPDEST PUSH1 0x2 PUSH1 0x0 DUP12 PUSH20 0xFFFFFFFFFFFFFFFFFFFFFFFFFFFFFFFFFFFFFFFF AND PUSH20 0xFFFFFFFFFFFFFFFFFFFFFFFFFFFFFFFFFFFFFFFF AND DUP2 MSTORE PUSH1 0x20 ADD SWAP1 DUP2 MSTORE PUSH1 0x20 ADD PUSH1 0x0 KECCAK256 DUP2 SWAP1 SSTORE POP PUSH2 0x246B DUP6 PUSH1 0x2 PUSH1 0x0 DUP12 PUSH20 0xFFFFFFFFFFFFFFFFFFFFFFFFFFFFFFFFFFFFFFFF AND PUSH20 0xFFFFFFFFFFFFFFFFFFFFFFFFFFFFFFFFFFFFFFFF AND DUP2 MSTORE PUSH1 0x20 ADD SWAP1 DUP2 MSTORE PUSH1 0x20 ADD PUSH1 0x0 KECCAK256 SLOAD PUSH2 0x26A5 SWAP1 SWAP2 SWAP1 PUSH4 0xFFFFFFFF AND JUMP JUMPDEST PUSH1 0x2 PUSH1 0x0 DUP11 PUSH20 0xFFFFFFFFFFFFFFFFFFFFFFFFFFFFFFFFFFFFFFFF AND PUSH20 0xFFFFFFFFFFFFFFFFFFFFFFFFFFFFFFFFFFFFFFFF AND DUP2 MSTORE PUSH1 0x20 ADD SWAP1 DUP2 MSTORE PUSH1 0x20 ADD PUSH1 0x0 KECCAK256 DUP2 SWAP1 SSTORE POP PUSH2 0x24B7 DUP2 PUSH2 0x2703 JUMP JUMPDEST PUSH2 0x24C1 DUP5 DUP4 PUSH2 0x27C0 JUMP JUMPDEST DUP8 PUSH20 0xFFFFFFFFFFFFFFFFFFFFFFFFFFFFFFFFFFFFFFFF AND DUP10 PUSH20 0xFFFFFFFFFFFFFFFFFFFFFFFFFFFFFFFFFFFFFFFF AND PUSH32 0xDDF252AD1BE2C89B69C2B068FC378DAA952BA7F163C4A11628F55A4DF523B3EF DUP6 PUSH1 0x40 MLOAD PUSH2 0x251E SWAP2 SWAP1 PUSH2 0x2BEB JUMP JUMPDEST PUSH1 0x40 MLOAD DUP1 SWAP2 SUB SWAP1 LOG3 POP POP POP POP POP POP POP POP POP JUMP JUMPDEST PUSH1 0x0 DUP1 DUP4 GT DUP3 SWAP1 PUSH2 0x2578 JUMPI PUSH1 0x40 MLOAD PUSH32 0x8C379A000000000000000000000000000000000000000000000000000000000 DUP2 MSTORE PUSH1 0x4 ADD PUSH2 0x256F SWAP2 SWAP1 PUSH2 0x2A2C JUMP JUMPDEST PUSH1 0x40 MLOAD DUP1 SWAP2 SUB SWAP1 REVERT JUMPDEST POP PUSH1 0x0 DUP4 DUP6 PUSH2 0x2587 SWAP2 SWAP1 PUSH2 0x37A7 JUMP JUMPDEST SWAP1 POP DUP1 SWAP2 POP POP SWAP4 SWAP3 POP POP POP JUMP JUMPDEST PUSH1 0x0 DUP1 PUSH1 0x0 PUSH1 0x6 SLOAD SWAP1 POP PUSH1 0x0 PUSH8 0xDE0B6B3A7640000 SWAP1 POP PUSH2 0x25C8 PUSH8 0xDE0B6B3A7640000 PUSH1 0x6 SLOAD PUSH2 0x22F1 SWAP1 SWAP2 SWAP1 PUSH4 0xFFFFFFFF AND JUMP JUMPDEST DUP3 LT ISZERO PUSH2 0x25E6 JUMPI PUSH1 0x6 SLOAD PUSH8 0xDE0B6B3A7640000 SWAP4 POP SWAP4 POP POP POP PUSH2 0x25EF JUMP JUMPDEST DUP2 DUP2 SWAP4 POP SWAP4 POP POP POP JUMPDEST SWAP1 SWAP2 JUMP JUMPDEST PUSH1 0x0 DUP1 PUSH1 0x0 DUP1 PUSH1 0x0 DUP1 PUSH1 0x0 DUP1 PUSH1 0x0 PUSH2 0x2610 DUP11 PUSH1 0xC SLOAD PUSH1 0xD SLOAD PUSH2 0x27FA JUMP JUMPDEST SWAP3 POP SWAP3 POP SWAP3 POP PUSH1 0x0 PUSH2 0x2620 PUSH2 0x233B JUMP JUMPDEST SWAP1 POP PUSH1 0x0 DUP1 PUSH1 0x0 PUSH2 0x2633 DUP15 DUP8 DUP8 DUP8 PUSH2 0x2890 JUMP JUMPDEST SWAP3 POP SWAP3 POP SWAP3 POP DUP3 DUP3 DUP3 DUP10 DUP10 DUP10 SWAP13 POP SWAP13 POP SWAP13 POP SWAP13 POP SWAP13 POP SWAP13 POP POP POP POP POP POP POP POP SWAP2 SWAP4 SWAP6 POP SWAP2 SWAP4 SWAP6 JUMP JUMPDEST PUSH1 0x0 PUSH2 0x269D DUP4 DUP4 PUSH1 0x40 MLOAD DUP1 PUSH1 0x40 ADD PUSH1 0x40 MSTORE DUP1 PUSH1 0x1E DUP2 MSTORE PUSH1 0x20 ADD PUSH32 0x536166654D6174683A207375627472616374696F6E206F766572666C6F770000 DUP2 MSTORE POP PUSH2 0x1E9B JUMP JUMPDEST SWAP1 POP SWAP3 SWAP2 POP POP JUMP JUMPDEST PUSH1 0x0 DUP1 DUP3 DUP5 PUSH2 0x26B4 SWAP2 SWAP1 PUSH2 0x37D8 JUMP JUMPDEST SWAP1 POP DUP4 DUP2 LT ISZERO PUSH2 0x26F9 JUMPI PUSH1 0x40 MLOAD PUSH32 0x8C379A000000000000000000000000000000000000000000000000000000000 DUP2 MSTORE PUSH1 0x4 ADD PUSH2 0x26F0 SWAP1 PUSH2 0x387A JUMP JUMPDEST PUSH1 0x40 MLOAD DUP1 SWAP2 SUB SWAP1 REVERT JUMPDEST DUP1 SWAP2 POP POP SWAP3 SWAP2 POP POP JUMP JUMPDEST PUSH1 0x0 PUSH2 0x270D PUSH2 0x233B JUMP JUMPDEST SWAP1 POP PUSH1 0x0 PUSH2 0x2724 DUP3 DUP5 PUSH2 0x2919 SWAP1 SWAP2 SWAP1 PUSH4 0xFFFFFFFF AND JUMP JUMPDEST SWAP1 POP PUSH2 0x2778 DUP2 PUSH1 0x2 PUSH1 0x0 ADDRESS PUSH20 0xFFFFFFFFFFFFFFFFFFFFFFFFFFFFFFFFFFFFFFFF AND PUSH20 0xFFFFFFFFFFFFFFFFFFFFFFFFFFFFFFFFFFFFFFFF AND DUP2 MSTORE PUSH1 0x20 ADD SWAP1 DUP2 MSTORE PUSH1 0x20 ADD PUSH1 0x0 KECCAK256 SLOAD PUSH2 0x26A5 SWAP1 SWAP2 SWAP1 PUSH4 0xFFFFFFFF AND JUMP JUMPDEST PUSH1 0x2 PUSH1 0x0 ADDRESS PUSH20 0xFFFFFFFFFFFFFFFFFFFFFFFFFFFFFFFFFFFFFFFF AND PUSH20 0xFFFFFFFFFFFFFFFFFFFFFFFFFFFFFFFFFFFFFFFF AND DUP2 MSTORE PUSH1 0x20 ADD SWAP1 DUP2 MSTORE PUSH1 0x20 ADD PUSH1 0x0 KECCAK256 DUP2 SWAP1 SSTORE POP POP POP POP JUMP JUMPDEST PUSH2 0x27D5 DUP3 PUSH1 0x6 SLOAD PUSH2 0x265B SWAP1 SWAP2 SWAP1 PUSH4 0xFFFFFFFF AND JUMP JUMPDEST PUSH1 0x6 DUP2 SWAP1 SSTORE POP PUSH2 0x27F0 DUP2 PUSH1 0x7 SLOAD PUSH2 0x26A5 SWAP1 SWAP2 SWAP1 PUSH4 0xFFFFFFFF AND JUMP JUMPDEST PUSH1 0x7 DUP2 SWAP1 SSTORE POP POP POP JUMP JUMPDEST PUSH1 0x0 DUP1 PUSH1 0x0 DUP1 PUSH2 0x2826 PUSH1 0x64 PUSH2 0x2818 DUP9 DUP11 PUSH2 0x2919 SWAP1 SWAP2 SWAP1 PUSH4 0xFFFFFFFF AND JUMP JUMPDEST PUSH2 0x22F1 SWAP1 SWAP2 SWAP1 PUSH4 0xFFFFFFFF AND JUMP JUMPDEST SWAP1 POP PUSH1 0x0 PUSH2 0x2850 PUSH1 0x64 PUSH2 0x2842 DUP9 DUP12 PUSH2 0x2919 SWAP1 SWAP2 SWAP1 PUSH4 0xFFFFFFFF AND JUMP JUMPDEST PUSH2 0x22F1 SWAP1 SWAP2 SWAP1 PUSH4 0xFFFFFFFF AND JUMP JUMPDEST SWAP1 POP PUSH1 0x0 PUSH2 0x2879 DUP3 PUSH2 0x286B DUP6 DUP13 PUSH2 0x265B SWAP1 SWAP2 SWAP1 PUSH4 0xFFFFFFFF AND JUMP JUMPDEST PUSH2 0x265B SWAP1 SWAP2 SWAP1 PUSH4 0xFFFFFFFF AND JUMP JUMPDEST SWAP1 POP DUP1 DUP4 DUP4 SWAP6 POP SWAP6 POP SWAP6 POP POP POP POP SWAP4 POP SWAP4 POP SWAP4 SWAP1 POP JUMP JUMPDEST PUSH1 0x0 DUP1 PUSH1 0x0 DUP1 PUSH2 0x28A9 DUP6 DUP10 PUSH2 0x2919 SWAP1 SWAP2 SWAP1 PUSH4 0xFFFFFFFF AND JUMP JUMPDEST SWAP1 POP PUSH1 0x0 PUSH2 0x28C0 DUP7 DUP10 PUSH2 0x2919 SWAP1 SWAP2 SWAP1 PUSH4 0xFFFFFFFF AND JUMP JUMPDEST SWAP1 POP PUSH1 0x0 PUSH2 0x28D7 DUP8 DUP10 PUSH2 0x2919 SWAP1 SWAP2 SWAP1 PUSH4 0xFFFFFFFF AND JUMP JUMPDEST SWAP1 POP PUSH1 0x0 PUSH2 0x2900 DUP3 PUSH2 0x28F2 DUP6 DUP8 PUSH2 0x265B SWAP1 SWAP2 SWAP1 PUSH4 0xFFFFFFFF AND JUMP JUMPDEST PUSH2 0x265B SWAP1 SWAP2 SWAP1 PUSH4 0xFFFFFFFF AND JUMP JUMPDEST SWAP1 POP DUP4 DUP2 DUP5 SWAP7 POP SWAP7 POP SWAP7 POP POP POP POP POP SWAP5 POP SWAP5 POP SWAP5 SWAP2 POP POP JUMP JUMPDEST PUSH1 0x0 DUP1 DUP4 SUB PUSH2 0x292B JUMPI PUSH1 0x0 SWAP1 POP PUSH2 0x298D JUMP JUMPDEST PUSH1 0x0 DUP3 DUP5 PUSH2 0x2939 SWAP2 SWAP1 PUSH2 0x389A JUMP JUMPDEST SWAP1 POP DUP3 DUP5 DUP3 PUSH2 0x2948 SWAP2 SWAP1 PUSH2 0x37A7 JUMP JUMPDEST EQ PUSH2 0x2988 JUMPI PUSH1 0x40 MLOAD PUSH32 0x8C379A000000000000000000000000000000000000000000000000000000000 DUP2 MSTORE PUSH1 0x4 ADD PUSH2 0x297F SWAP1 PUSH2 0x3966 JUMP JUMPDEST PUSH1 0x40 MLOAD DUP1 SWAP2 SUB SWAP1 REVERT JUMPDEST DUP1 SWAP2 POP POP JUMPDEST SWAP3 SWAP2 POP POP JUMP JUMPDEST PUSH1 0x0 DUP2 MLOAD SWAP1 POP SWAP2 SWAP1 POP JUMP JUMPDEST PUSH1 0x0 DUP3 DUP3 MSTORE PUSH1 0x20 DUP3 ADD SWAP1 POP SWAP3 SWAP2 POP POP JUMP JUMPDEST PUSH1 0x0 JUMPDEST DUP4 DUP2 LT ISZERO PUSH2 0x29CD JUMPI DUP1 DUP3 ADD MLOAD DUP2 DUP5 ADD MSTORE PUSH1 0x20 DUP2 ADD SWAP1 POP PUSH2 0x29B2 JUMP JUMPDEST DUP4 DUP2 GT ISZERO PUSH2 0x29DC JUMPI PUSH1 0x0 DUP5 DUP5 ADD MSTORE JUMPDEST POP POP POP POP JUMP JUMPDEST PUSH1 0x0 PUSH1 0x1F NOT PUSH1 0x1F DUP4 ADD AND SWAP1 POP SWAP2 SWAP1 POP JUMP JUMPDEST PUSH1 0x0 PUSH2 0x29FE DUP3 PUSH2 0x2993 JUMP JUMPDEST PUSH2 0x2A08 DUP2 DUP6 PUSH2 0x299E JUMP JUMPDEST SWAP4 POP PUSH2 0x2A18 DUP2 DUP6 PUSH1 0x20 DUP7 ADD PUSH2 0x29AF JUMP JUMPDEST PUSH2 0x2A21 DUP2 PUSH2 0x29E2 JUMP JUMPDEST DUP5 ADD SWAP2 POP POP SWAP3 SWAP2 POP POP JUMP JUMPDEST PUSH1 0x0 PUSH1 0x20 DUP3 ADD SWAP1 POP DUP2 DUP2 SUB PUSH1 0x0 DUP4 ADD MSTORE PUSH2 0x2A46 DUP2 DUP5 PUSH2 0x29F3 JUMP JUMPDEST SWAP1 POP SWAP3 SWAP2 POP POP JUMP JUMPDEST PUSH1 0x0 DUP1 REVERT JUMPDEST PUSH1 0x0 DUP1 REVERT JUMPDEST PUSH1 0x0 PUSH20 0xFFFFFFFFFFFFFFFFFFFFFFFFFFFFFFFFFFFFFFFF DUP3 AND SWAP1 POP SWAP2 SWAP1 POP JUMP JUMPDEST PUSH1 0x0 PUSH2 0x2A83 DUP3 PUSH2 0x2A58 JUMP JUMPDEST SWAP1 POP SWAP2 SWAP1 POP JUMP JUMPDEST PUSH2 0x2A93 DUP2 PUSH2 0x2A78 JUMP JUMPDEST DUP2 EQ PUSH2 0x2A9E JUMPI PUSH1 0x0 DUP1 REVERT JUMPDEST POP JUMP JUMPDEST PUSH1 0x0 DUP2 CALLDATALOAD SWAP1 POP PUSH2 0x2AB0 DUP2 PUSH2 0x2A8A JUMP JUMPDEST SWAP3 SWAP2 POP POP JUMP JUMPDEST PUSH1 0x0 DUP2 SWAP1 POP SWAP2 SWAP1 POP JUMP JUMPDEST PUSH2 0x2AC9 DUP2 PUSH2 0x2AB6 JUMP JUMPDEST DUP2 EQ PUSH2 0x2AD4 JUMPI PUSH1 0x0 DUP1 REVERT JUMPDEST POP JUMP JUMPDEST PUSH1 0x0 DUP2 CALLDATALOAD SWAP1 POP PUSH2 0x2AE6 DUP2 PUSH2 0x2AC0 JUMP JUMPDEST SWAP3 SWAP2 POP POP JUMP JUMPDEST PUSH1 0x0 DUP1 PUSH1 0x40 DUP4 DUP6 SUB SLT ISZERO PUSH2 0x2B03 JUMPI PUSH2 0x2B02 PUSH2 0x2A4E JUMP JUMPDEST JUMPDEST PUSH1 0x0 PUSH2 0x2B11 DUP6 DUP3 DUP7 ADD PUSH2 0x2AA1 JUMP JUMPDEST SWAP3 POP POP PUSH1 0x20 PUSH2 0x2B22 DUP6 DUP3 DUP7 ADD PUSH2 0x2AD7 JUMP JUMPDEST SWAP2 POP POP SWAP3 POP SWAP3 SWAP1 POP JUMP JUMPDEST PUSH1 0x0 DUP2 ISZERO ISZERO SWAP1 POP SWAP2 SWAP1 POP JUMP JUMPDEST PUSH2 0x2B41 DUP2 PUSH2 0x2B2C JUMP JUMPDEST DUP3 MSTORE POP POP JUMP JUMPDEST PUSH1 0x0 PUSH1 0x20 DUP3 ADD SWAP1 POP PUSH2 0x2B5C PUSH1 0x0 DUP4 ADD DUP5 PUSH2 0x2B38 JUMP JUMPDEST SWAP3 SWAP2 POP POP JUMP JUMPDEST PUSH1 0x0 DUP2 SWAP1 POP SWAP2 SWAP1 POP JUMP JUMPDEST PUSH1 0x0 PUSH2 0x2B87 PUSH2 0x2B82 PUSH2 0x2B7D DUP5 PUSH2 0x2A58 JUMP JUMPDEST PUSH2 0x2B62 JUMP JUMPDEST PUSH2 0x2A58 JUMP JUMPDEST SWAP1 POP SWAP2 SWAP1 POP JUMP JUMPDEST PUSH1 0x0 PUSH2 0x2B99 DUP3 PUSH2 0x2B6C JUMP JUMPDEST SWAP1 POP SWAP2 SWAP1 POP JUMP JUMPDEST PUSH1 0x0 PUSH2 0x2BAB DUP3 PUSH2 0x2B8E JUMP JUMPDEST SWAP1 POP SWAP2 SWAP1 POP JUMP JUMPDEST PUSH2 0x2BBB DUP2 PUSH2 0x2BA0 JUMP JUMPDEST DUP3 MSTORE POP POP JUMP JUMPDEST PUSH1 0x0 PUSH1 0x20 DUP3 ADD SWAP1 POP PUSH2 0x2BD6 PUSH1 0x0 DUP4 ADD DUP5 PUSH2 0x2BB2 JUMP JUMPDEST SWAP3 SWAP2 POP POP JUMP JUMPDEST PUSH2 0x2BE5 DUP2 PUSH2 0x2AB6 JUMP JUMPDEST DUP3 MSTORE POP POP JUMP JUMPDEST PUSH1 0x0 PUSH1 0x20 DUP3 ADD SWAP1 POP PUSH2 0x2C00 PUSH1 0x0 DUP4 ADD DUP5 PUSH2 0x2BDC JUMP JUMPDEST SWAP3 SWAP2 POP POP JUMP JUMPDEST PUSH1 0x0 DUP1 PUSH1 0x0 PUSH1 0x60 DUP5 DUP7 SUB SLT ISZERO PUSH2 0x2C1F JUMPI PUSH2 0x2C1E PUSH2 0x2A4E JUMP JUMPDEST JUMPDEST PUSH1 0x0 PUSH2 0x2C2D DUP7 DUP3 DUP8 ADD PUSH2 0x2AA1 JUMP JUMPDEST SWAP4 POP POP PUSH1 0x20 PUSH2 0x2C3E DUP7 DUP3 DUP8 ADD PUSH2 0x2AA1 JUMP JUMPDEST SWAP3 POP POP PUSH1 0x40 PUSH2 0x2C4F DUP7 DUP3 DUP8 ADD PUSH2 0x2AD7 JUMP JUMPDEST SWAP2 POP POP SWAP3 POP SWAP3 POP SWAP3 JUMP JUMPDEST PUSH1 0x0 PUSH1 0xFF DUP3 AND SWAP1 POP SWAP2 SWAP1 POP JUMP JUMPDEST PUSH2 0x2C6F DUP2 PUSH2 0x2C59 JUMP JUMPDEST DUP3 MSTORE POP POP JUMP JUMPDEST PUSH1 0x0 PUSH1 0x20 DUP3 ADD SWAP1 POP PUSH2 0x2C8A PUSH1 0x0 DUP4 ADD DUP5 PUSH2 0x2C66 JUMP JUMPDEST SWAP3 SWAP2 POP POP JUMP JUMPDEST PUSH2 0x2C99 DUP2 PUSH2 0x2A78 JUMP JUMPDEST DUP3 MSTORE POP POP JUMP JUMPDEST PUSH1 0x0 PUSH1 0x20 DUP3 ADD SWAP1 POP PUSH2 0x2CB4 PUSH1 0x0 DUP4 ADD DUP5 PUSH2 0x2C90 JUMP JUMPDEST SWAP3 SWAP2 POP POP JUMP JUMPDEST PUSH1 0x0 PUSH2 0x2CC5 DUP3 PUSH2 0x2B8E JUMP JUMPDEST SWAP1 POP SWAP2 SWAP1 POP JUMP JUMPDEST PUSH2 0x2CD5 DUP2 PUSH2 0x2CBA JUMP JUMPDEST DUP3 MSTORE POP POP JUMP JUMPDEST PUSH1 0x0 PUSH1 0x20 DUP3 ADD SWAP1 POP PUSH2 0x2CF0 PUSH1 0x0 DUP4 ADD DUP5 PUSH2 0x2CCC JUMP JUMPDEST SWAP3 SWAP2 POP POP JUMP JUMPDEST PUSH2 0x2CFF DUP2 PUSH2 0x2B2C JUMP JUMPDEST DUP2 EQ PUSH2 0x2D0A JUMPI PUSH1 0x0 DUP1 REVERT JUMPDEST POP JUMP JUMPDEST PUSH1 0x0 DUP2 CALLDATALOAD SWAP1 POP PUSH2 0x2D1C DUP2 PUSH2 0x2CF6 JUMP JUMPDEST SWAP3 SWAP2 POP POP JUMP JUMPDEST PUSH1 0x0 PUSH1 0x20 DUP3 DUP5 SUB SLT ISZERO PUSH2 0x2D38 JUMPI PUSH2 0x2D37 PUSH2 0x2A4E JUMP JUMPDEST JUMPDEST PUSH1 0x0 PUSH2 0x2D46 DUP5 DUP3 DUP6 ADD PUSH2 0x2D0D JUMP JUMPDEST SWAP2 POP POP SWAP3 SWAP2 POP POP JUMP JUMPDEST PUSH1 0x0 PUSH1 0x20 DUP3 DUP5 SUB SLT ISZERO PUSH2 0x2D65 JUMPI PUSH2 0x2D64 PUSH2 0x2A4E JUMP JUMPDEST JUMPDEST PUSH1 0x0 PUSH2 0x2D73 DUP5 DUP3 DUP6 ADD PUSH2 0x2AA1 JUMP JUMPDEST SWAP2 POP POP SWAP3 SWAP2 POP POP JUMP JUMPDEST PUSH1 0x0 PUSH2 0x2D87 DUP3 PUSH2 0x2A58 JUMP JUMPDEST SWAP1 POP SWAP2 SWAP1 POP JUMP JUMPDEST PUSH2 0x2D97 DUP2 PUSH2 0x2D7C JUMP JUMPDEST DUP2 EQ PUSH2 0x2DA2 JUMPI PUSH1 0x0 DUP1 REVERT JUMPDEST POP JUMP JUMPDEST PUSH1 0x0 DUP2 CALLDATALOAD SWAP1 POP PUSH2 0x2DB4 DUP2 PUSH2 0x2D8E JUMP JUMPDEST SWAP3 SWAP2 POP POP JUMP JUMPDEST PUSH1 0x0 PUSH1 0x20 DUP3 DUP5 SUB SLT ISZERO PUSH2 0x2DD0 JUMPI PUSH2 0x2DCF PUSH2 0x2A4E JUMP JUMPDEST JUMPDEST PUSH1 0x0 PUSH2 0x2DDE DUP5 DUP3 DUP6 ADD PUSH2 0x2DA5 JUMP JUMPDEST SWAP2 POP POP SWAP3 SWAP2 POP POP JUMP JUMPDEST PUSH1 0x0 DUP1 PUSH1 0x0 DUP1 PUSH1 0x80 DUP6 DUP8 SUB SLT ISZERO PUSH2 0x2E01 JUMPI PUSH2 0x2E00 PUSH2 0x2A4E JUMP JUMPDEST JUMPDEST PUSH1 0x0 PUSH2 0x2E0F DUP8 DUP3 DUP9 ADD PUSH2 0x2AD7 JUMP JUMPDEST SWAP5 POP POP PUSH1 0x20 PUSH2 0x2E20 DUP8 DUP3 DUP9 ADD PUSH2 0x2AD7 JUMP JUMPDEST SWAP4 POP POP PUSH1 0x40 PUSH2 0x2E31 DUP8 DUP3 DUP9 ADD PUSH2 0x2AD7 JUMP JUMPDEST SWAP3 POP POP PUSH1 0x60 PUSH2 0x2E42 DUP8 DUP3 DUP9 ADD PUSH2 0x2AD7 JUMP JUMPDEST SWAP2 POP POP SWAP3 SWAP6 SWAP2 SWAP5 POP SWAP3 POP JUMP JUMPDEST PUSH1 0x0 DUP1 REVERT JUMPDEST PUSH1 0x0 DUP1 REVERT JUMPDEST PUSH1 0x0 DUP1 REVERT JUMPDEST PUSH1 0x0 DUP1 DUP4 PUSH1 0x1F DUP5 ADD SLT PUSH2 0x2E73 JUMPI PUSH2 0x2E72 PUSH2 0x2E4E JUMP JUMPDEST JUMPDEST DUP3 CALLDATALOAD SWAP1 POP PUSH8 0xFFFFFFFFFFFFFFFF DUP2 GT ISZERO PUSH2 0x2E90 JUMPI PUSH2 0x2E8F PUSH2 0x2E53 JUMP JUMPDEST JUMPDEST PUSH1 0x20 DUP4 ADD SWAP2 POP DUP4 PUSH1 0x20 DUP3 MUL DUP4 ADD GT ISZERO PUSH2 0x2EAC JUMPI PUSH2 0x2EAB PUSH2 0x2E58 JUMP JUMPDEST JUMPDEST SWAP3 POP SWAP3 SWAP1 POP JUMP JUMPDEST PUSH1 0x0 DUP1 PUSH1 0x0 PUSH1 0x40 DUP5 DUP7 SUB SLT ISZERO PUSH2 0x2ECC JUMPI PUSH2 0x2ECB PUSH2 0x2A4E JUMP JUMPDEST JUMPDEST PUSH1 0x0 DUP5 ADD CALLDATALOAD PUSH8 0xFFFFFFFFFFFFFFFF DUP2 GT ISZERO PUSH2 0x2EEA JUMPI PUSH2 0x2EE9 PUSH2 0x2A53 JUMP JUMPDEST JUMPDEST PUSH2 0x2EF6 DUP7 DUP3 DUP8 ADD PUSH2 0x2E5D JUMP JUMPDEST SWAP4 POP SWAP4 POP POP PUSH1 0x20 PUSH2 0x2F09 DUP7 DUP3 DUP8 ADD PUSH2 0x2D0D JUMP JUMPDEST SWAP2 POP POP SWAP3 POP SWAP3 POP SWAP3 JUMP JUMPDEST PUSH1 0x0 DUP1 PUSH1 0x40 DUP4 DUP6 SUB SLT ISZERO PUSH2 0x2F2A JUMPI PUSH2 0x2F29 PUSH2 0x2A4E JUMP JUMPDEST JUMPDEST PUSH1 0x0 PUSH2 0x2F38 DUP6 DUP3 DUP7 ADD PUSH2 0x2AA1 JUMP JUMPDEST SWAP3 POP POP PUSH1 0x20 PUSH2 0x2F49 DUP6 DUP3 DUP7 ADD PUSH2 0x2AA1 JUMP JUMPDEST SWAP2 POP POP SWAP3 POP SWAP3 SWAP1 POP JUMP JUMPDEST PUSH32 0x43616C6C6572206973206E6F7420746865206465760000000000000000000000 PUSH1 0x0 DUP3 ADD MSTORE POP JUMP JUMPDEST PUSH1 0x0 PUSH2 0x2F89 PUSH1 0x15 DUP4 PUSH2 0x299E JUMP JUMPDEST SWAP2 POP PUSH2 0x2F94 DUP3 PUSH2 0x2F53 JUMP JUMPDEST PUSH1 0x20 DUP3 ADD SWAP1 POP SWAP2 SWAP1 POP JUMP JUMPDEST PUSH1 0x0 PUSH1 0x20 DUP3 ADD SWAP1 POP DUP2 DUP2 SUB PUSH1 0x0 DUP4 ADD MSTORE PUSH2 0x2FB8 DUP2 PUSH2 0x2F7C JUMP JUMPDEST SWAP1 POP SWAP2 SWAP1 POP JUMP JUMPDEST PUSH32 0x43616C6C6572206973206E6F7420746865206F776E6572000000000000000000 PUSH1 0x0 DUP3 ADD MSTORE POP JUMP JUMPDEST PUSH1 0x0 PUSH2 0x2FF5 PUSH1 0x17 DUP4 PUSH2 0x299E JUMP JUMPDEST SWAP2 POP PUSH2 0x3000 DUP3 PUSH2 0x2FBF JUMP JUMPDEST PUSH1 0x20 DUP3 ADD SWAP1 POP SWAP2 SWAP1 POP JUMP JUMPDEST PUSH1 0x0 PUSH1 0x20 DUP3 ADD SWAP1 POP DUP2 DUP2 SUB PUSH1 0x0 DUP4 ADD MSTORE PUSH2 0x3024 DUP2 PUSH2 0x2FE8 JUMP JUMPDEST SWAP1 POP SWAP2 SWAP1 POP JUMP JUMPDEST PUSH32 0x52656469732063616E6E6F74206265206D6F7265207468616E2031302E000000 PUSH1 0x0 DUP3 ADD MSTORE POP JUMP JUMPDEST PUSH1 0x0 PUSH2 0x3061 PUSH1 0x1D DUP4 PUSH2 0x299E JUMP JUMPDEST SWAP2 POP PUSH2 0x306C DUP3 PUSH2 0x302B JUMP JUMPDEST PUSH1 0x20 DUP3 ADD SWAP1 POP SWAP2 SWAP1 POP JUMP JUMPDEST PUSH1 0x0 PUSH1 0x20 DUP3 ADD SWAP1 POP DUP2 DUP2 SUB PUSH1 0x0 DUP4 ADD MSTORE PUSH2 0x3090 DUP2 PUSH2 0x3054 JUMP JUMPDEST SWAP1 POP SWAP2 SWAP1 POP JUMP JUMPDEST PUSH32 0x5461782063616E6E6F74206265206D6F7265207468616E20362E000000000000 PUSH1 0x0 DUP3 ADD MSTORE POP JUMP JUMPDEST PUSH1 0x0 PUSH2 0x30CD PUSH1 0x1A DUP4 PUSH2 0x299E JUMP JUMPDEST SWAP2 POP PUSH2 0x30D8 DUP3 PUSH2 0x3097 JUMP JUMPDEST PUSH1 0x20 DUP3 ADD SWAP1 POP SWAP2 SWAP1 POP JUMP JUMPDEST PUSH1 0x0 PUSH1 0x20 DUP3 ADD SWAP1 POP DUP2 DUP2 SUB PUSH1 0x0 DUP4 ADD MSTORE PUSH2 0x30FC DUP2 PUSH2 0x30C0 JUMP JUMPDEST SWAP1 POP SWAP2 SWAP1 POP JUMP JUMPDEST PUSH32 0x4E487B7100000000000000000000000000000000000000000000000000000000 PUSH1 0x0 MSTORE PUSH1 0x32 PUSH1 0x4 MSTORE PUSH1 0x24 PUSH1 0x0 REVERT JUMPDEST PUSH32 0x4E487B7100000000000000000000000000000000000000000000000000000000 PUSH1 0x0 MSTORE PUSH1 0x11 PUSH1 0x4 MSTORE PUSH1 0x24 PUSH1 0x0 REVERT JUMPDEST PUSH1 0x0 PUSH2 0x316C DUP3 PUSH2 0x2AB6 JUMP JUMPDEST SWAP2 POP PUSH32 0xFFFFFFFFFFFFFFFFFFFFFFFFFFFFFFFFFFFFFFFFFFFFFFFFFFFFFFFFFFFFFFFF DUP3 SUB PUSH2 0x319E JUMPI PUSH2 0x319D PUSH2 0x3132 JUMP JUMPDEST JUMPDEST PUSH1 0x1 DUP3 ADD SWAP1 POP SWAP2 SWAP1 POP JUMP JUMPDEST PUSH1 0x0 PUSH1 0x40 DUP3 ADD SWAP1 POP PUSH2 0x31BE PUSH1 0x0 DUP4 ADD DUP6 PUSH2 0x2C90 JUMP JUMPDEST PUSH2 0x31CB PUSH1 0x20 DUP4 ADD DUP5 PUSH2 0x2BDC JUMP JUMPDEST SWAP4 SWAP3 POP POP POP JUMP JUMPDEST PUSH1 0x0 DUP2 MLOAD SWAP1 POP PUSH2 0x31E1 DUP2 PUSH2 0x2CF6 JUMP JUMPDEST SWAP3 SWAP2 POP POP JUMP JUMPDEST PUSH1 0x0 PUSH1 0x20 DUP3 DUP5 SUB SLT ISZERO PUSH2 0x31FD JUMPI PUSH2 0x31FC PUSH2 0x2A4E JUMP JUMPDEST JUMPDEST PUSH1 0x0 PUSH2 0x320B DUP5 DUP3 DUP6 ADD PUSH2 0x31D2 JUMP JUMPDEST SWAP2 POP POP SWAP3 SWAP2 POP POP JUMP JUMPDEST PUSH32 0x45524332303A20617070726F76652066726F6D20746865207A65726F20616464 PUSH1 0x0 DUP3 ADD MSTORE PUSH32 0x7265737300000000000000000000000000000000000000000000000000000000 PUSH1 0x20 DUP3 ADD MSTORE POP JUMP JUMPDEST PUSH1 0x0 PUSH2 0x3270 PUSH1 0x24 DUP4 PUSH2 0x299E JUMP JUMPDEST SWAP2 POP PUSH2 0x327B DUP3 PUSH2 0x3214 JUMP JUMPDEST PUSH1 0x40 DUP3 ADD SWAP1 POP SWAP2 SWAP1 POP JUMP JUMPDEST PUSH1 0x0 PUSH1 0x20 DUP3 ADD SWAP1 POP DUP2 DUP2 SUB PUSH1 0x0 DUP4 ADD MSTORE PUSH2 0x329F DUP2 PUSH2 0x3263 JUMP JUMPDEST SWAP1 POP SWAP2 SWAP1 POP JUMP JUMPDEST PUSH32 0x45524332303A20617070726F766520746F20746865207A65726F206164647265 PUSH1 0x0 DUP3 ADD MSTORE PUSH32 0x7373000000000000000000000000000000000000000000000000000000000000 PUSH1 0x20 DUP3 ADD MSTORE POP JUMP JUMPDEST PUSH1 0x0 PUSH2 0x3302 PUSH1 0x22 DUP4 PUSH2 0x299E JUMP JUMPDEST SWAP2 POP PUSH2 0x330D DUP3 PUSH2 0x32A6 JUMP JUMPDEST PUSH1 0x40 DUP3 ADD SWAP1 POP SWAP2 SWAP1 POP JUMP JUMPDEST PUSH1 0x0 PUSH1 0x20 DUP3 ADD SWAP1 POP DUP2 DUP2 SUB PUSH1 0x0 DUP4 ADD MSTORE PUSH2 0x3331 DUP2 PUSH2 0x32F5 JUMP JUMPDEST SWAP1 POP SWAP2 SWAP1 POP JUMP JUMPDEST PUSH32 0x45524332303A207472616E736665722066726F6D20746865207A65726F206164 PUSH1 0x0 DUP3 ADD MSTORE PUSH32 0x6472657373000000000000000000000000000000000000000000000000000000 PUSH1 0x20 DUP3 ADD MSTORE POP JUMP JUMPDEST PUSH1 0x0 PUSH2 0x3394 PUSH1 0x25 DUP4 PUSH2 0x299E JUMP JUMPDEST SWAP2 POP PUSH2 0x339F DUP3 PUSH2 0x3338 JUMP JUMPDEST PUSH1 0x40 DUP3 ADD SWAP1 POP SWAP2 SWAP1 POP JUMP JUMPDEST PUSH1 0x0 PUSH1 0x20 DUP3 ADD SWAP1 POP DUP2 DUP2 SUB PUSH1 0x0 DUP4 ADD MSTORE PUSH2 0x33C3 DUP2 PUSH2 0x3387 JUMP JUMPDEST SWAP1 POP SWAP2 SWAP1 POP JUMP JUMPDEST PUSH32 0x45524332303A207472616E7366657220746F20746865207A65726F2061646472 PUSH1 0x0 DUP3 ADD MSTORE PUSH32 0x6573730000000000000000000000000000000000000000000000000000000000 PUSH1 0x20 DUP3 ADD MSTORE POP JUMP JUMPDEST PUSH1 0x0 PUSH2 0x3426 PUSH1 0x23 DUP4 PUSH2 0x299E JUMP JUMPDEST SWAP2 POP PUSH2 0x3431 DUP3 PUSH2 0x33CA JUMP JUMPDEST PUSH1 0x40 DUP3 ADD SWAP1 POP SWAP2 SWAP1 POP JUMP JUMPDEST PUSH1 0x0 PUSH1 0x20 DUP3 ADD SWAP1 POP DUP2 DUP2 SUB PUSH1 0x0 DUP4 ADD MSTORE PUSH2 0x3455 DUP2 PUSH2 0x3419 JUMP JUMPDEST SWAP1 POP SWAP2 SWAP1 POP JUMP JUMPDEST PUSH32 0x5472616E7366657220616D6F756E74206D757374206265206772656174657220 PUSH1 0x0 DUP3 ADD MSTORE PUSH32 0x7468616E207A65726F0000000000000000000000000000000000000000000000 PUSH1 0x20 DUP3 ADD MSTORE POP JUMP JUMPDEST PUSH1 0x0 PUSH2 0x34B8 PUSH1 0x29 DUP4 PUSH2 0x299E JUMP JUMPDEST SWAP2 POP PUSH2 0x34C3 DUP3 PUSH2 0x345C JUMP JUMPDEST PUSH1 0x40 DUP3 ADD SWAP1 POP SWAP2 SWAP1 POP JUMP JUMPDEST PUSH1 0x0 PUSH1 0x20 DUP3 ADD SWAP1 POP DUP2 DUP2 SUB PUSH1 0x0 DUP4 ADD MSTORE PUSH2 0x34E7 DUP2 PUSH2 0x34AB JUMP JUMPDEST SWAP1 POP SWAP2 SWAP1 POP JUMP JUMPDEST PUSH1 0x0 PUSH2 0x34F9 DUP3 PUSH2 0x2AB6 JUMP JUMPDEST SWAP2 POP PUSH2 0x3504 DUP4 PUSH2 0x2AB6 JUMP JUMPDEST SWAP3 POP DUP3 DUP3 LT ISZERO PUSH2 0x3517 JUMPI PUSH2 0x3516 PUSH2 0x3132 JUMP JUMPDEST JUMPDEST DUP3 DUP3 SUB SWAP1 POP SWAP3 SWAP2 POP POP JUMP JUMPDEST PUSH32 0x416D6F756E74206D757374206265206C657373207468616E20746F74616C2072 PUSH1 0x0 DUP3 ADD MSTORE PUSH32 0x65666C656374696F6E7300000000000000000000000000000000000000000000 PUSH1 0x20 DUP3 ADD MSTORE POP JUMP JUMPDEST PUSH1 0x0 PUSH2 0x357E PUSH1 0x2A DUP4 PUSH2 0x299E JUMP JUMPDEST SWAP2 POP PUSH2 0x3589 DUP3 PUSH2 0x3522 JUMP JUMPDEST PUSH1 0x40 DUP3 ADD SWAP1 POP SWAP2 SWAP1 POP JUMP JUMPDEST PUSH1 0x0 PUSH1 0x20 DUP3 ADD SWAP1 POP DUP2 DUP2 SUB PUSH1 0x0 DUP4 ADD MSTORE PUSH2 0x35AD DUP2 PUSH2 0x3571 JUMP JUMPDEST SWAP1 POP SWAP2 SWAP1 POP JUMP JUMPDEST PUSH32 0x4E487B7100000000000000000000000000000000000000000000000000000000 PUSH1 0x0 MSTORE PUSH1 0x41 PUSH1 0x4 MSTORE PUSH1 0x24 PUSH1 0x0 REVERT JUMPDEST PUSH1 0x0 DUP2 MLOAD SWAP1 POP PUSH2 0x35F2 DUP2 PUSH2 0x2A8A JUMP JUMPDEST SWAP3 SWAP2 POP POP JUMP JUMPDEST PUSH1 0x0 PUSH1 0x20 DUP3 DUP5 SUB SLT ISZERO PUSH2 0x360E JUMPI PUSH2 0x360D PUSH2 0x2A4E JUMP JUMPDEST JUMPDEST PUSH1 0x0 PUSH2 0x361C DUP5 DUP3 DUP6 ADD PUSH2 0x35E3 JUMP JUMPDEST SWAP2 POP POP SWAP3 SWAP2 POP POP JUMP JUMPDEST PUSH1 0x0 DUP2 SWAP1 POP SWAP2 SWAP1 POP JUMP JUMPDEST PUSH1 0x0 PUSH2 0x364A PUSH2 0x3645 PUSH2 0x3640 DUP5 PUSH2 0x3625 JUMP JUMPDEST PUSH2 0x2B62 JUMP JUMPDEST PUSH2 0x2AB6 JUMP JUMPDEST SWAP1 POP SWAP2 SWAP1 POP JUMP JUMPDEST PUSH2 0x365A DUP2 PUSH2 0x362F JUMP JUMPDEST DUP3 MSTORE POP POP JUMP JUMPDEST PUSH1 0x0 DUP2 MLOAD SWAP1 POP SWAP2 SWAP1 POP JUMP JUMPDEST PUSH1 0x0 DUP3 DUP3 MSTORE PUSH1 0x20 DUP3 ADD SWAP1 POP SWAP3 SWAP2 POP POP JUMP JUMPDEST PUSH1 0x0 DUP2 SWAP1 POP PUSH1 0x20 DUP3 ADD SWAP1 POP SWAP2 SWAP1 POP JUMP JUMPDEST PUSH2 0x3695 DUP2 PUSH2 0x2A78 JUMP JUMPDEST DUP3 MSTORE POP POP JUMP JUMPDEST PUSH1 0x0 PUSH2 0x36A7 DUP4 DUP4 PUSH2 0x368C JUMP JUMPDEST PUSH1 0x20 DUP4 ADD SWAP1 POP SWAP3 SWAP2 POP POP JUMP JUMPDEST PUSH1 0x0 PUSH1 0x20 DUP3 ADD SWAP1 POP SWAP2 SWAP1 POP JUMP JUMPDEST PUSH1 0x0 PUSH2 0x36CB DUP3 PUSH2 0x3660 JUMP JUMPDEST PUSH2 0x36D5 DUP2 DUP6 PUSH2 0x366B JUMP JUMPDEST SWAP4 POP PUSH2 0x36E0 DUP4 PUSH2 0x367C JUMP JUMPDEST DUP1 PUSH1 0x0 JUMPDEST DUP4 DUP2 LT ISZERO PUSH2 0x3711 JUMPI DUP2 MLOAD PUSH2 0x36F8 DUP9 DUP3 PUSH2 0x369B JUMP JUMPDEST SWAP8 POP PUSH2 0x3703 DUP4 PUSH2 0x36B3 JUMP JUMPDEST SWAP3 POP POP PUSH1 0x1 DUP2 ADD SWAP1 POP PUSH2 0x36E4 JUMP JUMPDEST POP DUP6 SWAP4 POP POP POP POP SWAP3 SWAP2 POP POP JUMP JUMPDEST PUSH1 0x0 PUSH1 0xA0 DUP3 ADD SWAP1 POP PUSH2 0x3733 PUSH1 0x0 DUP4 ADD DUP9 PUSH2 0x2BDC JUMP JUMPDEST PUSH2 0x3740 PUSH1 0x20 DUP4 ADD DUP8 PUSH2 0x3651 JUMP JUMPDEST DUP2 DUP2 SUB PUSH1 0x40 DUP4 ADD MSTORE PUSH2 0x3752 DUP2 DUP7 PUSH2 0x36C0 JUMP JUMPDEST SWAP1 POP PUSH2 0x3761 PUSH1 0x60 DUP4 ADD DUP6 PUSH2 0x2C90 JUMP JUMPDEST PUSH2 0x376E PUSH1 0x80 DUP4 ADD DUP5 PUSH2 0x2BDC JUMP JUMPDEST SWAP7 SWAP6 POP POP POP POP POP POP JUMP JUMPDEST PUSH32 0x4E487B7100000000000000000000000000000000000000000000000000000000 PUSH1 0x0 MSTORE PUSH1 0x12 PUSH1 0x4 MSTORE PUSH1 0x24 PUSH1 0x0 REVERT JUMPDEST PUSH1 0x0 PUSH2 0x37B2 DUP3 PUSH2 0x2AB6 JUMP JUMPDEST SWAP2 POP PUSH2 0x37BD DUP4 PUSH2 0x2AB6 JUMP JUMPDEST SWAP3 POP DUP3 PUSH2 0x37CD JUMPI PUSH2 0x37CC PUSH2 0x3778 JUMP JUMPDEST JUMPDEST DUP3 DUP3 DIV SWAP1 POP SWAP3 SWAP2 POP POP JUMP JUMPDEST PUSH1 0x0 PUSH2 0x37E3 DUP3 PUSH2 0x2AB6 JUMP JUMPDEST SWAP2 POP PUSH2 0x37EE DUP4 PUSH2 0x2AB6 JUMP JUMPDEST SWAP3 POP DUP3 PUSH32 0xFFFFFFFFFFFFFFFFFFFFFFFFFFFFFFFFFFFFFFFFFFFFFFFFFFFFFFFFFFFFFFFF SUB DUP3 GT ISZERO PUSH2 0x3823 JUMPI PUSH2 0x3822 PUSH2 0x3132 JUMP JUMPDEST JUMPDEST DUP3 DUP3 ADD SWAP1 POP SWAP3 SWAP2 POP POP JUMP JUMPDEST PUSH32 0x536166654D6174683A206164646974696F6E206F766572666C6F770000000000 PUSH1 0x0 DUP3 ADD MSTORE POP JUMP JUMPDEST PUSH1 0x0 PUSH2 0x3864 PUSH1 0x1B DUP4 PUSH2 0x299E JUMP JUMPDEST SWAP2 POP PUSH2 0x386F DUP3 PUSH2 0x382E JUMP JUMPDEST PUSH1 0x20 DUP3 ADD SWAP1 POP SWAP2 SWAP1 POP JUMP JUMPDEST PUSH1 0x0 PUSH1 0x20 DUP3 ADD SWAP1 POP DUP2 DUP2 SUB PUSH1 0x0 DUP4 ADD MSTORE PUSH2 0x3893 DUP2 PUSH2 0x3857 JUMP JUMPDEST SWAP1 POP SWAP2 SWAP1 POP JUMP JUMPDEST PUSH1 0x0 PUSH2 0x38A5 DUP3 PUSH2 0x2AB6 JUMP JUMPDEST SWAP2 POP PUSH2 0x38B0 DUP4 PUSH2 0x2AB6 JUMP JUMPDEST SWAP3 POP DUP2 PUSH32 0xFFFFFFFFFFFFFFFFFFFFFFFFFFFFFFFFFFFFFFFFFFFFFFFFFFFFFFFFFFFFFFFF DIV DUP4 GT DUP3 ISZERO ISZERO AND ISZERO PUSH2 0x38E9 JUMPI PUSH2 0x38E8 PUSH2 0x3132 JUMP JUMPDEST JUMPDEST DUP3 DUP3 MUL SWAP1 POP SWAP3 SWAP2 POP POP JUMP JUMPDEST PUSH32 0x536166654D6174683A206D756C7469706C69636174696F6E206F766572666C6F PUSH1 0x0 DUP3 ADD MSTORE PUSH32 0x7700000000000000000000000000000000000000000000000000000000000000 PUSH1 0x20 DUP3 ADD MSTORE POP JUMP JUMPDEST PUSH1 0x0 PUSH2 0x3950 PUSH1 0x21 DUP4 PUSH2 0x299E JUMP JUMPDEST SWAP2 POP PUSH2 0x395B DUP3 PUSH2 0x38F4 JUMP JUMPDEST PUSH1 0x40 DUP3 ADD SWAP1 POP SWAP2 SWAP1 POP JUMP JUMPDEST PUSH1 0x0 PUSH1 0x20 DUP3 ADD SWAP1 POP DUP2 DUP2 SUB PUSH1 0x0 DUP4 ADD MSTORE PUSH2 0x397F DUP2 PUSH2 0x3943 JUMP JUMPDEST SWAP1 POP SWAP2 SWAP1 POP JUMP INVALID GASLIMIT MSTORE NUMBER ORIGIN ADDRESS GASPRICE KECCAK256 PUSH21 0x72616E7366657220616D6F756E7420657863656564 PUSH20 0x20616C6C6F77616E6365A2646970667358221220 CALLVALUE LOG3 NUMBER 0xB6 DUP7 CALLDATALOAD ISZERO 0xEB PUSH1 0x5 0xE5 0x27 BLOCKHASH GAS 0xBF SWAP11 SGT PUSH21 0xBBFC3B7A501D74EE775B583402AD64736F6C634300 ADDMOD 0xD STOP CALLER "
				},
				"gasEstimates": {
					"creation": {
						"codeDepositCost": "2964000",
						"executionCost": "infinite",
						"totalCost": "infinite"
					},
					"external": {
						"allowance(address,address)": "infinite",
						"approve(address,uint256)": "infinite",
						"balanceOf(address)": "infinite",
						"decimals()": "366",
						"excludeMultipleAccountsFromFees(address[],bool)": "infinite",
						"manualsend()": "infinite",
						"manualswap()": "infinite",
						"name()": "infinite",
						"owner()": "2589",
						"renounceOwnership()": "30314",
						"rescueForeignTokens(address,address,uint256)": "infinite",
						"setFee(uint256,uint256,uint256,uint256)": "infinite",
						"setNewDevAddress(address)": "infinite",
						"setNewMarketingAddress(address)": "infinite",
						"symbol()": "infinite",
						"toggleSwap(bool)": "infinite",
						"totalSupply()": "427",
						"transfer(address,uint256)": "infinite",
						"transferFrom(address,address,uint256)": "infinite",
						"transferOwnership(address)": "30734",
						"uniswapV2Factory()": "infinite",
						"uniswapV2Pair()": "2559",
						"uniswapV2Router()": "infinite"
					},
					"internal": {
						"_approve(address,address,uint256)": "infinite",
						"_getCurrentSupply()": "infinite",
						"_getRValues(uint256,uint256,uint256,uint256)": "infinite",
						"_getRate()": "infinite",
						"_getTValues(uint256,uint256,uint256)": "infinite",
						"_getValues(uint256)": "infinite",
						"_reflectFee(uint256,uint256)": "infinite",
						"_takeTeam(uint256)": "infinite",
						"_tokenTransfer(address,address,uint256)": "infinite",
						"_transfer(address,address,uint256)": "infinite",
						"_transferStandard(address,address,uint256)": "infinite",
						"sendETHToFee(uint256)": "infinite",
						"swapTokensForEth(uint256)": "infinite",
						"tokenFromReflection(uint256)": "infinite"
					}
				},
				"methodIdentifiers": {
					"allowance(address,address)": "dd62ed3e",
					"approve(address,uint256)": "095ea7b3",
					"balanceOf(address)": "70a08231",
					"decimals()": "313ce567",
					"excludeMultipleAccountsFromFees(address[],bool)": "c492f046",
					"manualsend()": "6fc3eaec",
					"manualswap()": "c3c8cd80",
					"name()": "06fdde03",
					"owner()": "8da5cb5b",
					"renounceOwnership()": "715018a6",
					"rescueForeignTokens(address,address,uint256)": "e293d316",
					"setFee(uint256,uint256,uint256,uint256)": "a2a957bb",
					"setNewDevAddress(address)": "aad5c023",
					"setNewMarketingAddress(address)": "758dbe03",
					"symbol()": "95d89b41",
					"toggleSwap(bool)": "6d8aa8f8",
					"totalSupply()": "18160ddd",
					"transfer(address,uint256)": "a9059cbb",
					"transferFrom(address,address,uint256)": "23b872dd",
					"transferOwnership(address)": "f2fde38b",
					"uniswapV2Factory()": "59d0f713",
					"uniswapV2Pair()": "49bd5a5e",
					"uniswapV2Router()": "1694505e"
				}
			},
			"storageLayout": {
				"storage": [
					{
						"astId": 305,
						"contract": "contracts/Pool/Pool.sol:World_Step",
						"label": "_owner",
						"offset": 0,
						"slot": "0",
						"type": "t_address"
					},
					{
						"astId": 307,
						"contract": "contracts/Pool/Pool.sol:World_Step",
						"label": "_previousOwner",
						"offset": 0,
						"slot": "1",
						"type": "t_address"
					},
					{
						"astId": 406,
						"contract": "contracts/Pool/Pool.sol:World_Step",
						"label": "_rOwned",
						"offset": 0,
						"slot": "2",
						"type": "t_mapping(t_address,t_uint256)"
					},
					{
						"astId": 410,
						"contract": "contracts/Pool/Pool.sol:World_Step",
						"label": "_tOwned",
						"offset": 0,
						"slot": "3",
						"type": "t_mapping(t_address,t_uint256)"
					},
					{
						"astId": 416,
						"contract": "contracts/Pool/Pool.sol:World_Step",
						"label": "_allowances",
						"offset": 0,
						"slot": "4",
						"type": "t_mapping(t_address,t_mapping(t_address,t_uint256))"
					},
					{
						"astId": 420,
						"contract": "contracts/Pool/Pool.sol:World_Step",
						"label": "_isExcludedFromFee",
						"offset": 0,
						"slot": "5",
						"type": "t_mapping(t_address,t_bool)"
					},
					{
						"astId": 451,
						"contract": "contracts/Pool/Pool.sol:World_Step",
						"label": "_rTotal",
						"offset": 0,
						"slot": "6",
						"type": "t_uint256"
					},
					{
						"astId": 453,
						"contract": "contracts/Pool/Pool.sol:World_Step",
						"label": "_tFeeTotal",
						"offset": 0,
						"slot": "7",
						"type": "t_uint256"
					},
					{
						"astId": 456,
						"contract": "contracts/Pool/Pool.sol:World_Step",
						"label": "_redisFeeOnBuy",
						"offset": 0,
						"slot": "8",
						"type": "t_uint256"
					},
					{
						"astId": 459,
						"contract": "contracts/Pool/Pool.sol:World_Step",
						"label": "_taxFeeOnBuy",
						"offset": 0,
						"slot": "9",
						"type": "t_uint256"
					},
					{
						"astId": 462,
						"contract": "contracts/Pool/Pool.sol:World_Step",
						"label": "_redisFeeOnSell",
						"offset": 0,
						"slot": "10",
						"type": "t_uint256"
					},
					{
						"astId": 465,
						"contract": "contracts/Pool/Pool.sol:World_Step",
						"label": "_taxFeeOnSell",
						"offset": 0,
						"slot": "11",
						"type": "t_uint256"
					},
					{
						"astId": 467,
						"contract": "contracts/Pool/Pool.sol:World_Step",
						"label": "_redisFee",
						"offset": 0,
						"slot": "12",
						"type": "t_uint256"
					},
					{
						"astId": 469,
						"contract": "contracts/Pool/Pool.sol:World_Step",
						"label": "_taxFee",
						"offset": 0,
						"slot": "13",
						"type": "t_uint256"
					},
					{
						"astId": 484,
						"contract": "contracts/Pool/Pool.sol:World_Step",
						"label": "_developmentAddress",
						"offset": 0,
						"slot": "14",
						"type": "t_address_payable"
					},
					{
						"astId": 490,
						"contract": "contracts/Pool/Pool.sol:World_Step",
						"label": "_marketingAddress",
						"offset": 0,
						"slot": "15",
						"type": "t_address_payable"
					},
					{
						"astId": 493,
						"contract": "contracts/Pool/Pool.sol:World_Step",
						"label": "uniswapV2Router",
						"offset": 0,
						"slot": "16",
						"type": "t_contract(IUniswapV2Router02)145"
					},
					{
						"astId": 496,
						"contract": "contracts/Pool/Pool.sol:World_Step",
						"label": "uniswapV2Factory",
						"offset": 0,
						"slot": "17",
						"type": "t_contract(IUniswapV2Factory)99"
					},
					{
						"astId": 498,
						"contract": "contracts/Pool/Pool.sol:World_Step",
						"label": "uniswapV2Pair",
						"offset": 0,
						"slot": "18",
						"type": "t_address"
					},
					{
						"astId": 501,
						"contract": "contracts/Pool/Pool.sol:World_Step",
						"label": "inSwap",
						"offset": 20,
						"slot": "18",
						"type": "t_bool"
					},
					{
						"astId": 504,
						"contract": "contracts/Pool/Pool.sol:World_Step",
						"label": "swapEnabled",
						"offset": 21,
						"slot": "18",
						"type": "t_bool"
					}
				],
				"types": {
					"t_address": {
						"encoding": "inplace",
						"label": "address",
						"numberOfBytes": "20"
					},
					"t_address_payable": {
						"encoding": "inplace",
						"label": "address payable",
						"numberOfBytes": "20"
					},
					"t_bool": {
						"encoding": "inplace",
						"label": "bool",
						"numberOfBytes": "1"
					},
					"t_contract(IUniswapV2Factory)99": {
						"encoding": "inplace",
						"label": "contract IUniswapV2Factory",
						"numberOfBytes": "20"
					},
					"t_contract(IUniswapV2Router02)145": {
						"encoding": "inplace",
						"label": "contract IUniswapV2Router02",
						"numberOfBytes": "20"
					},
					"t_mapping(t_address,t_bool)": {
						"encoding": "mapping",
						"key": "t_address",
						"label": "mapping(address => bool)",
						"numberOfBytes": "32",
						"value": "t_bool"
					},
					"t_mapping(t_address,t_mapping(t_address,t_uint256))": {
						"encoding": "mapping",
						"key": "t_address",
						"label": "mapping(address => mapping(address => uint256))",
						"numberOfBytes": "32",
						"value": "t_mapping(t_address,t_uint256)"
					},
					"t_mapping(t_address,t_uint256)": {
						"encoding": "mapping",
						"key": "t_address",
						"label": "mapping(address => uint256)",
						"numberOfBytes": "32",
						"value": "t_uint256"
					},
					"t_uint256": {
						"encoding": "inplace",
						"label": "uint256",
						"numberOfBytes": "32"
					}
				}
			},
			"userdoc": {
				"kind": "user",
				"methods": {},
				"version": 1
			}
		}
	}
}