{
	"contracts/Pool/Pool.sol": {
		"World_Step": {
			"abi": [
				{
					"inputs": [],
					"stateMutability": "nonpayable",
					"type": "constructor"
				},
				{
					"anonymous": false,
					"inputs": [
						{
							"indexed": true,
							"internalType": "address",
							"name": "owner",
							"type": "address"
						},
						{
							"indexed": true,
							"internalType": "address",
							"name": "spender",
							"type": "address"
						},
						{
							"indexed": false,
							"internalType": "uint256",
							"name": "value",
							"type": "uint256"
						}
					],
					"name": "Approval",
					"type": "event"
				},
				{
					"anonymous": false,
					"inputs": [
						{
							"indexed": true,
							"internalType": "address",
							"name": "previousOwner",
							"type": "address"
						},
						{
							"indexed": true,
							"internalType": "address",
							"name": "newOwner",
							"type": "address"
						}
					],
					"name": "OwnershipTransferred",
					"type": "event"
				},
				{
					"anonymous": false,
					"inputs": [
						{
							"indexed": true,
							"internalType": "address",
							"name": "from",
							"type": "address"
						},
						{
							"indexed": true,
							"internalType": "address",
							"name": "to",
							"type": "address"
						},
						{
							"indexed": false,
							"internalType": "uint256",
							"name": "value",
							"type": "uint256"
						}
					],
					"name": "Transfer",
					"type": "event"
				},
				{
					"anonymous": false,
					"inputs": [
						{
							"indexed": true,
							"internalType": "address",
							"name": "previous",
							"type": "address"
						},
						{
							"indexed": true,
							"internalType": "address",
							"name": "adr",
							"type": "address"
						}
					],
					"name": "devAddressUpdated",
					"type": "event"
				},
				{
					"anonymous": false,
					"inputs": [
						{
							"indexed": true,
							"internalType": "address",
							"name": "previous",
							"type": "address"
						},
						{
							"indexed": true,
							"internalType": "address",
							"name": "adr",
							"type": "address"
						}
					],
					"name": "marketingAddressUpdated",
					"type": "event"
				},
				{
					"anonymous": false,
					"inputs": [
						{
							"indexed": true,
							"internalType": "address",
							"name": "token",
							"type": "address"
						},
						{
							"indexed": true,
							"internalType": "address",
							"name": "to",
							"type": "address"
						},
						{
							"indexed": false,
							"internalType": "uint256",
							"name": "amount",
							"type": "uint256"
						}
					],
					"name": "tokensRescued",
					"type": "event"
				},
				{
					"inputs": [
						{
							"internalType": "address",
							"name": "owner",
							"type": "address"
						},
						{
							"internalType": "address",
							"name": "spender",
							"type": "address"
						}
					],
					"name": "allowance",
					"outputs": [
						{
							"internalType": "uint256",
							"name": "",
							"type": "uint256"
						}
					],
					"stateMutability": "view",
					"type": "function"
				},
				{
					"inputs": [
						{
							"internalType": "address",
							"name": "spender",
							"type": "address"
						},
						{
							"internalType": "uint256",
							"name": "amount",
							"type": "uint256"
						}
					],
					"name": "approve",
					"outputs": [
						{
							"internalType": "bool",
							"name": "",
							"type": "bool"
						}
					],
					"stateMutability": "nonpayable",
					"type": "function"
				},
				{
					"inputs": [
						{
							"internalType": "address",
							"name": "account",
							"type": "address"
						}
					],
					"name": "balanceOf",
					"outputs": [
						{
							"internalType": "uint256",
							"name": "",
							"type": "uint256"
						}
					],
					"stateMutability": "view",
					"type": "function"
				},
				{
					"inputs": [],
					"name": "decimals",
					"outputs": [
						{
							"internalType": "uint8",
							"name": "",
							"type": "uint8"
						}
					],
					"stateMutability": "pure",
					"type": "function"
				},
				{
					"inputs": [
						{
							"internalType": "address[]",
							"name": "accounts",
							"type": "address[]"
						},
						{
							"internalType": "bool",
							"name": "excluded",
							"type": "bool"
						}
					],
					"name": "excludeMultipleAccountsFromFees",
					"outputs": [],
					"stateMutability": "nonpayable",
					"type": "function"
				},
				{
					"inputs": [],
					"name": "manualsend",
					"outputs": [],
					"stateMutability": "nonpayable",
					"type": "function"
				},
				{
					"inputs": [],
					"name": "manualswap",
					"outputs": [],
					"stateMutability": "nonpayable",
					"type": "function"
				},
				{
					"inputs": [],
					"name": "name",
					"outputs": [
						{
							"internalType": "string",
							"name": "",
							"type": "string"
						}
					],
					"stateMutability": "pure",
					"type": "function"
				},
				{
					"inputs": [],
					"name": "owner",
					"outputs": [
						{
							"internalType": "address",
							"name": "",
							"type": "address"
						}
					],
					"stateMutability": "view",
					"type": "function"
				},
				{
					"inputs": [],
					"name": "renounceOwnership",
					"outputs": [],
					"stateMutability": "nonpayable",
					"type": "function"
				},
				{
					"inputs": [
						{
							"internalType": "address",
							"name": "_tokenAddr",
							"type": "address"
						},
						{
							"internalType": "address",
							"name": "_to",
							"type": "address"
						},
						{
							"internalType": "uint256",
							"name": "_amount",
							"type": "uint256"
						}
					],
					"name": "rescueForeignTokens",
					"outputs": [],
					"stateMutability": "nonpayable",
					"type": "function"
				},
				{
					"inputs": [
						{
							"internalType": "uint256",
							"name": "redisFeeOnBuy",
							"type": "uint256"
						},
						{
							"internalType": "uint256",
							"name": "redisFeeOnSell",
							"type": "uint256"
						},
						{
							"internalType": "uint256",
							"name": "taxFeeOnBuy",
							"type": "uint256"
						},
						{
							"internalType": "uint256",
							"name": "taxFeeOnSell",
							"type": "uint256"
						}
					],
					"name": "setFee",
					"outputs": [],
					"stateMutability": "nonpayable",
					"type": "function"
				},
				{
					"inputs": [
						{
							"internalType": "address payable",
							"name": "dev",
							"type": "address"
						}
					],
					"name": "setNewDevAddress",
					"outputs": [],
					"stateMutability": "nonpayable",
					"type": "function"
				},
				{
					"inputs": [
						{
							"internalType": "address payable",
							"name": "markt",
							"type": "address"
						}
					],
					"name": "setNewMarketingAddress",
					"outputs": [],
					"stateMutability": "nonpayable",
					"type": "function"
				},
				{
					"inputs": [],
					"name": "settingPair",
					"outputs": [],
					"stateMutability": "nonpayable",
					"type": "function"
				},
				{
					"inputs": [],
					"name": "symbol",
					"outputs": [
						{
							"internalType": "string",
							"name": "",
							"type": "string"
						}
					],
					"stateMutability": "pure",
					"type": "function"
				},
				{
					"inputs": [
						{
							"internalType": "bool",
							"name": "_swapEnabled",
							"type": "bool"
						}
					],
					"name": "toggleSwap",
					"outputs": [],
					"stateMutability": "nonpayable",
					"type": "function"
				},
				{
					"inputs": [],
					"name": "totalSupply",
					"outputs": [
						{
							"internalType": "uint256",
							"name": "",
							"type": "uint256"
						}
					],
					"stateMutability": "pure",
					"type": "function"
				},
				{
					"inputs": [
						{
							"internalType": "address",
							"name": "recipient",
							"type": "address"
						},
						{
							"internalType": "uint256",
							"name": "amount",
							"type": "uint256"
						}
					],
					"name": "transfer",
					"outputs": [
						{
							"internalType": "bool",
							"name": "",
							"type": "bool"
						}
					],
					"stateMutability": "nonpayable",
					"type": "function"
				},
				{
					"inputs": [
						{
							"internalType": "address",
							"name": "sender",
							"type": "address"
						},
						{
							"internalType": "address",
							"name": "recipient",
							"type": "address"
						},
						{
							"internalType": "uint256",
							"name": "amount",
							"type": "uint256"
						}
					],
					"name": "transferFrom",
					"outputs": [
						{
							"internalType": "bool",
							"name": "",
							"type": "bool"
						}
					],
					"stateMutability": "nonpayable",
					"type": "function"
				},
				{
					"inputs": [
						{
							"internalType": "address",
							"name": "newOwner",
							"type": "address"
						}
					],
					"name": "transferOwnership",
					"outputs": [],
					"stateMutability": "nonpayable",
					"type": "function"
				},
				{
					"inputs": [],
					"name": "uniswapV2Factory",
					"outputs": [
						{
							"internalType": "contract IUniswapV2Factory",
							"name": "",
							"type": "address"
						}
					],
					"stateMutability": "view",
					"type": "function"
				},
				{
					"inputs": [],
					"name": "uniswapV2Pair",
					"outputs": [
						{
							"internalType": "address",
							"name": "",
							"type": "address"
						}
					],
					"stateMutability": "view",
					"type": "function"
				},
				{
					"inputs": [],
					"name": "uniswapV2Router",
					"outputs": [
						{
							"internalType": "contract IUniswapV2Router02",
							"name": "",
							"type": "address"
						}
					],
					"stateMutability": "view",
					"type": "function"
				},
				{
					"stateMutability": "payable",
					"type": "receive"
				}
			],
			"devdoc": {
				"kind": "dev",
				"methods": {},
				"version": 1
			},
			"evm": {
				"assembly": "    /* \"contracts/Pool/Pool.sol\":3787:15461  contract World_Step is Context, IERC20, Ownable {... */\n  mstore(0x40, 0x80)\n    /* \"contracts/Pool/Pool.sol\":4200:4213  1*10**9*10**9 */\n  0x0de0b6b3a7640000\n    /* \"contracts/Pool/Pool.sol\":4147:4159  1*10**9*10*9 */\n  0x14f46b0400\n    /* \"contracts/Pool/Pool.sol\":4253:4266  MAX % _tTotal */\n  tag_1\n  swap2\n  swap1\n  tag_2\n  jump\t// in\ntag_1:\n    /* \"contracts/Pool/Pool.sol\":4147:4159  1*10**9*10*9 */\n  0x14f46b0400\n    /* \"contracts/Pool/Pool.sol\":4246:4267  MAX - (MAX % _tTotal) */\n  tag_3\n  swap2\n  swap1\n  tag_4\n  jump\t// in\ntag_3:\n    /* \"contracts/Pool/Pool.sol\":4219:4268  uint256 private _rTotal = (MAX - (MAX % _tTotal)) */\n  0x06\n  sstore\n    /* \"contracts/Pool/Pool.sol\":4344:4345  1 */\n  0x01\n    /* \"contracts/Pool/Pool.sol\":4311:4345  uint256 private _redisFeeOnBuy = 1 */\n  0x08\n  sstore\n    /* \"contracts/Pool/Pool.sol\":4382:4383  4 */\n  0x04\n    /* \"contracts/Pool/Pool.sol\":4351:4383  uint256 private _taxFeeOnBuy = 4 */\n  0x09\n  sstore\n    /* \"contracts/Pool/Pool.sol\":4428:4429  1 */\n  0x01\n    /* \"contracts/Pool/Pool.sol\":4394:4429  uint256 private _redisFeeOnSell = 1 */\n  0x0a\n  sstore\n    /* \"contracts/Pool/Pool.sol\":4467:4468  1 */\n  0x01\n    /* \"contracts/Pool/Pool.sol\":4435:4468  uint256 private _taxFeeOnSell = 1 */\n  0x0b\n  sstore\n    /* \"contracts/Pool/Pool.sol\":4740:4782  0x8492cbd894686D7e98214541903c7BA6f94928D6 */\n  0x8492cbd894686d7e98214541903c7ba6f94928d6\n    /* \"contracts/Pool/Pool.sol\":4686:4783  address payable private _developmentAddress = payable(0x8492cbd894686D7e98214541903c7BA6f94928D6) */\n  0x0e\n  exp(0x0100, 0x00)\n  dup2\n  sload\n  dup2\n  0xffffffffffffffffffffffffffffffffffffffff\n  mul\n  not\n  and\n  swap1\n  dup4\n  0xffffffffffffffffffffffffffffffffffffffff\n  and\n  mul\n  or\n  swap1\n  sstore\n  pop\n    /* \"contracts/Pool/Pool.sol\":4841:4883  0xa4eD7aa4eF5deB0A63e97d9Cb77445aE553feb1d */\n  0xa4ed7aa4ef5deb0a63e97d9cb77445ae553feb1d\n    /* \"contracts/Pool/Pool.sol\":4789:4884  address payable private _marketingAddress = payable(0xa4eD7aa4eF5deB0A63e97d9Cb77445aE553feb1d) */\n  0x0f\n  exp(0x0100, 0x00)\n  dup2\n  sload\n  dup2\n  0xffffffffffffffffffffffffffffffffffffffff\n  mul\n  not\n  and\n  swap1\n  dup4\n  0xffffffffffffffffffffffffffffffffffffffff\n  and\n  mul\n  or\n  swap1\n  sstore\n  pop\n    /* \"contracts/Pool/Pool.sol\":5047:5052  false */\n  0x00\n    /* \"contracts/Pool/Pool.sol\":5025:5052  bool private inSwap = false */\n  0x12\n  exp(0x0100, 0x14)\n  dup2\n  sload\n  dup2\n  0xff\n  mul\n  not\n  and\n  swap1\n  dup4\n  iszero\n  iszero\n  mul\n  or\n  swap1\n  sstore\n  pop\n    /* \"contracts/Pool/Pool.sol\":5085:5089  true */\n  0x01\n    /* \"contracts/Pool/Pool.sol\":5058:5089  bool private swapEnabled = true */\n  0x12\n  exp(0x0100, 0x15)\n  dup2\n  sload\n  dup2\n  0xff\n  mul\n  not\n  and\n  swap1\n  dup4\n  iszero\n  iszero\n  mul\n  or\n  swap1\n  sstore\n  pop\n    /* \"contracts/Pool/Pool.sol\":5191:6037  constructor () {... */\n  callvalue\n  dup1\n  iszero\n  tag_5\n  jumpi\n  0x00\n  dup1\n  revert\ntag_5:\n  pop\n    /* \"contracts/Pool/Pool.sol\":3054:3071  address msgSender */\n  0x00\n    /* \"contracts/Pool/Pool.sol\":3074:3086  _msgSender() */\n  tag_9\n    /* \"contracts/Pool/Pool.sol\":3074:3084  _msgSender */\n  shl(0x20, tag_10)\n    /* \"contracts/Pool/Pool.sol\":3074:3086  _msgSender() */\n  0x20\n  shr\n  jump\t// in\ntag_9:\n    /* \"contracts/Pool/Pool.sol\":3054:3086  address msgSender = _msgSender() */\n  swap1\n  pop\n    /* \"contracts/Pool/Pool.sol\":3105:3114  msgSender */\n  dup1\n    /* \"contracts/Pool/Pool.sol\":3096:3102  _owner */\n  0x00\n  dup1\n    /* \"contracts/Pool/Pool.sol\":3096:3114  _owner = msgSender */\n  0x0100\n  exp\n  dup2\n  sload\n  dup2\n  0xffffffffffffffffffffffffffffffffffffffff\n  mul\n  not\n  and\n  swap1\n  dup4\n  0xffffffffffffffffffffffffffffffffffffffff\n  and\n  mul\n  or\n  swap1\n  sstore\n  pop\n    /* \"contracts/Pool/Pool.sol\":3162:3171  msgSender */\n  dup1\n    /* \"contracts/Pool/Pool.sol\":3129:3172  OwnershipTransferred(address(0), msgSender) */\n  0xffffffffffffffffffffffffffffffffffffffff\n  and\n    /* \"contracts/Pool/Pool.sol\":3158:3159  0 */\n  0x00\n    /* \"contracts/Pool/Pool.sol\":3129:3172  OwnershipTransferred(address(0), msgSender) */\n  0xffffffffffffffffffffffffffffffffffffffff\n  and\n  0x8be0079c531659141344cd1fd0a4f28419497f9722a3daafe3b4186f6b6457e0\n  mload(0x40)\n  mload(0x40)\n  dup1\n  swap2\n  sub\n  swap1\n  log3\n    /* \"contracts/Pool/Pool.sol\":3044:3179  {... */\n  pop\n    /* \"contracts/Pool/Pool.sol\":5240:5247  _rTotal */\n  sload(0x06)\n    /* \"contracts/Pool/Pool.sol\":5216:5223  _rOwned */\n  0x02\n    /* \"contracts/Pool/Pool.sol\":5216:5237  _rOwned[_msgSender()] */\n  0x00\n    /* \"contracts/Pool/Pool.sol\":5224:5236  _msgSender() */\n  tag_12\n    /* \"contracts/Pool/Pool.sol\":5224:5234  _msgSender */\n  shl(0x20, tag_10)\n    /* \"contracts/Pool/Pool.sol\":5224:5236  _msgSender() */\n  0x20\n  shr\n  jump\t// in\ntag_12:\n    /* \"contracts/Pool/Pool.sol\":5216:5237  _rOwned[_msgSender()] */\n  0xffffffffffffffffffffffffffffffffffffffff\n  and\n  0xffffffffffffffffffffffffffffffffffffffff\n  and\n  dup2\n  mstore\n  0x20\n  add\n  swap1\n  dup2\n  mstore\n  0x20\n  add\n  0x00\n  keccak256\n    /* \"contracts/Pool/Pool.sol\":5216:5247  _rOwned[_msgSender()] = _rTotal */\n  dup2\n  swap1\n  sstore\n  pop\n    /* \"contracts/Pool/Pool.sol\":5266:5301  IUniswapV2Router02 _uniswapV2Router */\n  0x00\n    /* \"contracts/Pool/Pool.sol\":5331:5373  0x10ED43C718714eb63d5aA57B78B54704E256024E */\n  0x10ed43c718714eb63d5aa57b78b54704e256024e\n    /* \"contracts/Pool/Pool.sol\":5266:5375  IUniswapV2Router02 _uniswapV2Router = IUniswapV2Router02(address(0x10ED43C718714eb63d5aA57B78B54704E256024E)) */\n  swap1\n  pop\n    /* \"contracts/Pool/Pool.sol\":5403:5419  _uniswapV2Router */\n  dup1\n    /* \"contracts/Pool/Pool.sol\":5385:5400  uniswapV2Router */\n  0x10\n  0x00\n    /* \"contracts/Pool/Pool.sol\":5385:5419  uniswapV2Router = _uniswapV2Router */\n  0x0100\n  exp\n  dup2\n  sload\n  dup2\n  0xffffffffffffffffffffffffffffffffffffffff\n  mul\n  not\n  and\n  swap1\n  dup4\n  0xffffffffffffffffffffffffffffffffffffffff\n  and\n  mul\n  or\n  swap1\n  sstore\n  pop\n    /* \"contracts/Pool/Pool.sol\":5799:5803  true */\n  0x01\n    /* \"contracts/Pool/Pool.sol\":5769:5787  _isExcludedFromFee */\n  0x05\n    /* \"contracts/Pool/Pool.sol\":5769:5796  _isExcludedFromFee[owner()] */\n  0x00\n    /* \"contracts/Pool/Pool.sol\":5788:5795  owner() */\n  tag_13\n    /* \"contracts/Pool/Pool.sol\":5788:5793  owner */\n  shl(0x20, tag_14)\n    /* \"contracts/Pool/Pool.sol\":5788:5795  owner() */\n  0x20\n  shr\n  jump\t// in\ntag_13:\n    /* \"contracts/Pool/Pool.sol\":5769:5796  _isExcludedFromFee[owner()] */\n  0xffffffffffffffffffffffffffffffffffffffff\n  and\n  0xffffffffffffffffffffffffffffffffffffffff\n  and\n  dup2\n  mstore\n  0x20\n  add\n  swap1\n  dup2\n  mstore\n  0x20\n  add\n  0x00\n  keccak256\n  0x00\n    /* \"contracts/Pool/Pool.sol\":5769:5803  _isExcludedFromFee[owner()] = true */\n  0x0100\n  exp\n  dup2\n  sload\n  dup2\n  0xff\n  mul\n  not\n  and\n  swap1\n  dup4\n  iszero\n  iszero\n  mul\n  or\n  swap1\n  sstore\n  pop\n    /* \"contracts/Pool/Pool.sol\":5849:5853  true */\n  0x01\n    /* \"contracts/Pool/Pool.sol\":5813:5831  _isExcludedFromFee */\n  0x05\n    /* \"contracts/Pool/Pool.sol\":5813:5846  _isExcludedFromFee[address(this)] */\n  0x00\n    /* \"contracts/Pool/Pool.sol\":5840:5844  this */\n  address\n    /* \"contracts/Pool/Pool.sol\":5813:5846  _isExcludedFromFee[address(this)] */\n  0xffffffffffffffffffffffffffffffffffffffff\n  and\n  0xffffffffffffffffffffffffffffffffffffffff\n  and\n  dup2\n  mstore\n  0x20\n  add\n  swap1\n  dup2\n  mstore\n  0x20\n  add\n  0x00\n  keccak256\n  0x00\n    /* \"contracts/Pool/Pool.sol\":5813:5853  _isExcludedFromFee[address(this)] = true */\n  0x0100\n  exp\n  dup2\n  sload\n  dup2\n  0xff\n  mul\n  not\n  and\n  swap1\n  dup4\n  iszero\n  iszero\n  mul\n  or\n  swap1\n  sstore\n  pop\n    /* \"contracts/Pool/Pool.sol\":5905:5909  true */\n  0x01\n    /* \"contracts/Pool/Pool.sol\":5863:5881  _isExcludedFromFee */\n  0x05\n    /* \"contracts/Pool/Pool.sol\":5863:5902  _isExcludedFromFee[_developmentAddress] */\n  0x00\n    /* \"contracts/Pool/Pool.sol\":5882:5901  _developmentAddress */\n  0x0e\n  0x00\n  swap1\n  sload\n  swap1\n  0x0100\n  exp\n  swap1\n  div\n  0xffffffffffffffffffffffffffffffffffffffff\n  and\n    /* \"contracts/Pool/Pool.sol\":5863:5902  _isExcludedFromFee[_developmentAddress] */\n  0xffffffffffffffffffffffffffffffffffffffff\n  and\n  0xffffffffffffffffffffffffffffffffffffffff\n  and\n  dup2\n  mstore\n  0x20\n  add\n  swap1\n  dup2\n  mstore\n  0x20\n  add\n  0x00\n  keccak256\n  0x00\n    /* \"contracts/Pool/Pool.sol\":5863:5909  _isExcludedFromFee[_developmentAddress] = true */\n  0x0100\n  exp\n  dup2\n  sload\n  dup2\n  0xff\n  mul\n  not\n  and\n  swap1\n  dup4\n  iszero\n  iszero\n  mul\n  or\n  swap1\n  sstore\n  pop\n    /* \"contracts/Pool/Pool.sol\":5959:5963  true */\n  0x01\n    /* \"contracts/Pool/Pool.sol\":5919:5937  _isExcludedFromFee */\n  0x05\n    /* \"contracts/Pool/Pool.sol\":5919:5956  _isExcludedFromFee[_marketingAddress] */\n  0x00\n    /* \"contracts/Pool/Pool.sol\":5938:5955  _marketingAddress */\n  0x0f\n  0x00\n  swap1\n  sload\n  swap1\n  0x0100\n  exp\n  swap1\n  div\n  0xffffffffffffffffffffffffffffffffffffffff\n  and\n    /* \"contracts/Pool/Pool.sol\":5919:5956  _isExcludedFromFee[_marketingAddress] */\n  0xffffffffffffffffffffffffffffffffffffffff\n  and\n  0xffffffffffffffffffffffffffffffffffffffff\n  and\n  dup2\n  mstore\n  0x20\n  add\n  swap1\n  dup2\n  mstore\n  0x20\n  add\n  0x00\n  keccak256\n  0x00\n    /* \"contracts/Pool/Pool.sol\":5919:5963  _isExcludedFromFee[_marketingAddress] = true */\n  0x0100\n  exp\n  dup2\n  sload\n  dup2\n  0xff\n  mul\n  not\n  and\n  swap1\n  dup4\n  iszero\n  iszero\n  mul\n  or\n  swap1\n  sstore\n  pop\n    /* \"contracts/Pool/Pool.sol\":6008:6020  _msgSender() */\n  tag_15\n    /* \"contracts/Pool/Pool.sol\":6008:6018  _msgSender */\n  shl(0x20, tag_10)\n    /* \"contracts/Pool/Pool.sol\":6008:6020  _msgSender() */\n  0x20\n  shr\n  jump\t// in\ntag_15:\n    /* \"contracts/Pool/Pool.sol\":5987:6030  Transfer(address(0), _msgSender(), _tTotal) */\n  0xffffffffffffffffffffffffffffffffffffffff\n  and\n    /* \"contracts/Pool/Pool.sol\":6004:6005  0 */\n  0x00\n    /* \"contracts/Pool/Pool.sol\":5987:6030  Transfer(address(0), _msgSender(), _tTotal) */\n  0xffffffffffffffffffffffffffffffffffffffff\n  and\n  0xddf252ad1be2c89b69c2b068fc378daa952ba7f163c4a11628f55a4df523b3ef\n    /* \"contracts/Pool/Pool.sol\":4200:4213  1*10**9*10**9 */\n  0x0de0b6b3a7640000\n    /* \"contracts/Pool/Pool.sol\":5987:6030  Transfer(address(0), _msgSender(), _tTotal) */\n  mload(0x40)\n  tag_16\n  swap2\n  swap1\n  tag_17\n  jump\t// in\ntag_16:\n  mload(0x40)\n  dup1\n  swap2\n  sub\n  swap1\n  log3\n    /* \"contracts/Pool/Pool.sol\":5206:6037  {... */\n  pop\n    /* \"contracts/Pool/Pool.sol\":3787:15461  contract World_Step is Context, IERC20, Ownable {... */\n  jump(tag_18)\n    /* \"contracts/Pool/Pool.sol\":1721:1817  function _msgSender() internal view virtual returns (address) {... */\ntag_10:\n    /* \"contracts/Pool/Pool.sol\":1774:1781  address */\n  0x00\n    /* \"contracts/Pool/Pool.sol\":1800:1810  msg.sender */\n  caller\n    /* \"contracts/Pool/Pool.sol\":1793:1810  return msg.sender */\n  swap1\n  pop\n    /* \"contracts/Pool/Pool.sol\":1721:1817  function _msgSender() internal view virtual returns (address) {... */\n  swap1\n  jump\t// out\n    /* \"contracts/Pool/Pool.sol\":3185:3262  function owner() public view returns (address) {... */\ntag_14:\n    /* \"contracts/Pool/Pool.sol\":3223:3230  address */\n  0x00\n    /* \"contracts/Pool/Pool.sol\":3249:3255  _owner */\n  dup1\n  0x00\n  swap1\n  sload\n  swap1\n  0x0100\n  exp\n  swap1\n  div\n  0xffffffffffffffffffffffffffffffffffffffff\n  and\n    /* \"contracts/Pool/Pool.sol\":3242:3255  return _owner */\n  swap1\n  pop\n    /* \"contracts/Pool/Pool.sol\":3185:3262  function owner() public view returns (address) {... */\n  swap1\n  jump\t// out\n    /* \"#utility.yul\":7:84   */\ntag_21:\n    /* \"#utility.yul\":44:51   */\n  0x00\n    /* \"#utility.yul\":73:78   */\n  dup2\n    /* \"#utility.yul\":62:78   */\n  swap1\n  pop\n    /* \"#utility.yul\":7:84   */\n  swap2\n  swap1\n  pop\n  jump\t// out\n    /* \"#utility.yul\":90:270   */\ntag_22:\n    /* \"#utility.yul\":138:215   */\n  0x4e487b7100000000000000000000000000000000000000000000000000000000\n    /* \"#utility.yul\":135:136   */\n  0x00\n    /* \"#utility.yul\":128:216   */\n  mstore\n    /* \"#utility.yul\":235:239   */\n  0x12\n    /* \"#utility.yul\":232:233   */\n  0x04\n    /* \"#utility.yul\":225:240   */\n  mstore\n    /* \"#utility.yul\":259:263   */\n  0x24\n    /* \"#utility.yul\":256:257   */\n  0x00\n    /* \"#utility.yul\":249:264   */\n  revert\n    /* \"#utility.yul\":276:452   */\ntag_2:\n    /* \"#utility.yul\":308:309   */\n  0x00\n    /* \"#utility.yul\":325:345   */\n  tag_29\n    /* \"#utility.yul\":343:344   */\n  dup3\n    /* \"#utility.yul\":325:345   */\n  tag_21\n  jump\t// in\ntag_29:\n    /* \"#utility.yul\":320:345   */\n  swap2\n  pop\n    /* \"#utility.yul\":359:379   */\n  tag_30\n    /* \"#utility.yul\":377:378   */\n  dup4\n    /* \"#utility.yul\":359:379   */\n  tag_21\n  jump\t// in\ntag_30:\n    /* \"#utility.yul\":354:379   */\n  swap3\n  pop\n    /* \"#utility.yul\":398:399   */\n  dup3\n    /* \"#utility.yul\":388:423   */\n  tag_31\n  jumpi\n    /* \"#utility.yul\":403:421   */\n  tag_32\n  tag_22\n  jump\t// in\ntag_32:\n    /* \"#utility.yul\":388:423   */\ntag_31:\n    /* \"#utility.yul\":444:445   */\n  dup3\n    /* \"#utility.yul\":441:442   */\n  dup3\n    /* \"#utility.yul\":437:446   */\n  mod\n    /* \"#utility.yul\":432:446   */\n  swap1\n  pop\n    /* \"#utility.yul\":276:452   */\n  swap3\n  swap2\n  pop\n  pop\n  jump\t// out\n    /* \"#utility.yul\":458:638   */\ntag_23:\n    /* \"#utility.yul\":506:583   */\n  0x4e487b7100000000000000000000000000000000000000000000000000000000\n    /* \"#utility.yul\":503:504   */\n  0x00\n    /* \"#utility.yul\":496:584   */\n  mstore\n    /* \"#utility.yul\":603:607   */\n  0x11\n    /* \"#utility.yul\":600:601   */\n  0x04\n    /* \"#utility.yul\":593:608   */\n  mstore\n    /* \"#utility.yul\":627:631   */\n  0x24\n    /* \"#utility.yul\":624:625   */\n  0x00\n    /* \"#utility.yul\":617:632   */\n  revert\n    /* \"#utility.yul\":644:835   */\ntag_4:\n    /* \"#utility.yul\":684:688   */\n  0x00\n    /* \"#utility.yul\":704:724   */\n  tag_35\n    /* \"#utility.yul\":722:723   */\n  dup3\n    /* \"#utility.yul\":704:724   */\n  tag_21\n  jump\t// in\ntag_35:\n    /* \"#utility.yul\":699:724   */\n  swap2\n  pop\n    /* \"#utility.yul\":738:758   */\n  tag_36\n    /* \"#utility.yul\":756:757   */\n  dup4\n    /* \"#utility.yul\":738:758   */\n  tag_21\n  jump\t// in\ntag_36:\n    /* \"#utility.yul\":733:758   */\n  swap3\n  pop\n    /* \"#utility.yul\":777:778   */\n  dup3\n    /* \"#utility.yul\":774:775   */\n  dup3\n    /* \"#utility.yul\":771:779   */\n  lt\n    /* \"#utility.yul\":768:802   */\n  iszero\n  tag_37\n  jumpi\n    /* \"#utility.yul\":782:800   */\n  tag_38\n  tag_23\n  jump\t// in\ntag_38:\n    /* \"#utility.yul\":768:802   */\ntag_37:\n    /* \"#utility.yul\":827:828   */\n  dup3\n    /* \"#utility.yul\":824:825   */\n  dup3\n    /* \"#utility.yul\":820:829   */\n  sub\n    /* \"#utility.yul\":812:829   */\n  swap1\n  pop\n    /* \"#utility.yul\":644:835   */\n  swap3\n  swap2\n  pop\n  pop\n  jump\t// out\n    /* \"#utility.yul\":841:959   */\ntag_24:\n    /* \"#utility.yul\":928:952   */\n  tag_40\n    /* \"#utility.yul\":946:951   */\n  dup2\n    /* \"#utility.yul\":928:952   */\n  tag_21\n  jump\t// in\ntag_40:\n    /* \"#utility.yul\":923:926   */\n  dup3\n    /* \"#utility.yul\":916:953   */\n  mstore\n    /* \"#utility.yul\":841:959   */\n  pop\n  pop\n  jump\t// out\n    /* \"#utility.yul\":965:1187   */\ntag_17:\n    /* \"#utility.yul\":1058:1062   */\n  0x00\n    /* \"#utility.yul\":1096:1098   */\n  0x20\n    /* \"#utility.yul\":1085:1094   */\n  dup3\n    /* \"#utility.yul\":1081:1099   */\n  add\n    /* \"#utility.yul\":1073:1099   */\n  swap1\n  pop\n    /* \"#utility.yul\":1109:1180   */\n  tag_42\n    /* \"#utility.yul\":1177:1178   */\n  0x00\n    /* \"#utility.yul\":1166:1175   */\n  dup4\n    /* \"#utility.yul\":1162:1179   */\n  add\n    /* \"#utility.yul\":1153:1159   */\n  dup5\n    /* \"#utility.yul\":1109:1180   */\n  tag_24\n  jump\t// in\ntag_42:\n    /* \"#utility.yul\":965:1187   */\n  swap3\n  swap2\n  pop\n  pop\n  jump\t// out\n    /* \"contracts/Pool/Pool.sol\":3787:15461  contract World_Step is Context, IERC20, Ownable {... */\ntag_18:\n  dataSize(sub_0)\n  dup1\n  dataOffset(sub_0)\n  0x00\n  codecopy\n  0x00\n  return\nstop\n\nsub_0: assembly {\n        /* \"contracts/Pool/Pool.sol\":3787:15461  contract World_Step is Context, IERC20, Ownable {... */\n      mstore(0x40, 0x80)\n      jumpi(tag_1, lt(calldatasize, 0x04))\n      shr(0xe0, calldataload(0x00))\n      dup1\n      0x715018a6\n      gt\n      tag_27\n      jumpi\n      dup1\n      0xaad5c023\n      gt\n      tag_28\n      jumpi\n      dup1\n      0xaad5c023\n      eq\n      tag_21\n      jumpi\n      dup1\n      0xc3c8cd80\n      eq\n      tag_22\n      jumpi\n      dup1\n      0xc492f046\n      eq\n      tag_23\n      jumpi\n      dup1\n      0xdd62ed3e\n      eq\n      tag_24\n      jumpi\n      dup1\n      0xe293d316\n      eq\n      tag_25\n      jumpi\n      dup1\n      0xf2fde38b\n      eq\n      tag_26\n      jumpi\n      jump(tag_2)\n    tag_28:\n      dup1\n      0x715018a6\n      eq\n      tag_15\n      jumpi\n      dup1\n      0x758dbe03\n      eq\n      tag_16\n      jumpi\n      dup1\n      0x8da5cb5b\n      eq\n      tag_17\n      jumpi\n      dup1\n      0x95d89b41\n      eq\n      tag_18\n      jumpi\n      dup1\n      0xa2a957bb\n      eq\n      tag_19\n      jumpi\n      dup1\n      0xa9059cbb\n      eq\n      tag_20\n      jumpi\n      jump(tag_2)\n    tag_27:\n      dup1\n      0x313ce567\n      gt\n      tag_29\n      jumpi\n      dup1\n      0x313ce567\n      eq\n      tag_9\n      jumpi\n      dup1\n      0x49bd5a5e\n      eq\n      tag_10\n      jumpi\n      dup1\n      0x59d0f713\n      eq\n      tag_11\n      jumpi\n      dup1\n      0x6d8aa8f8\n      eq\n      tag_12\n      jumpi\n      dup1\n      0x6fc3eaec\n      eq\n      tag_13\n      jumpi\n      dup1\n      0x70a08231\n      eq\n      tag_14\n      jumpi\n      jump(tag_2)\n    tag_29:\n      dup1\n      0x05a272ea\n      eq\n      tag_3\n      jumpi\n      dup1\n      0x06fdde03\n      eq\n      tag_4\n      jumpi\n      dup1\n      0x095ea7b3\n      eq\n      tag_5\n      jumpi\n      dup1\n      0x1694505e\n      eq\n      tag_6\n      jumpi\n      dup1\n      0x18160ddd\n      eq\n      tag_7\n      jumpi\n      dup1\n      0x23b872dd\n      eq\n      tag_8\n      jumpi\n      jump(tag_2)\n    tag_1:\n      jumpi(tag_2, calldatasize)\n      stop\n    tag_2:\n      0x00\n      dup1\n      revert\n        /* \"contracts/Pool/Pool.sol\":9580:9762  function settingPair() public onlyOwner { ... */\n    tag_3:\n      callvalue\n      dup1\n      iszero\n      tag_32\n      jumpi\n      0x00\n      dup1\n      revert\n    tag_32:\n      pop\n      tag_33\n      tag_34\n      jump\t// in\n    tag_33:\n      stop\n        /* \"contracts/Pool/Pool.sol\":6195:6276  function name() public pure returns (string memory) {... */\n    tag_4:\n      callvalue\n      dup1\n      iszero\n      tag_35\n      jumpi\n      0x00\n      dup1\n      revert\n    tag_35:\n      pop\n      tag_36\n      tag_37\n      jump\t// in\n    tag_36:\n      mload(0x40)\n      tag_38\n      swap2\n      swap1\n      tag_39\n      jump\t// in\n    tag_38:\n      mload(0x40)\n      dup1\n      swap2\n      sub\n      swap1\n      return\n        /* \"contracts/Pool/Pool.sol\":7018:7176  function approve(address spender, uint256 amount) public override returns (bool) {... */\n    tag_5:\n      callvalue\n      dup1\n      iszero\n      tag_40\n      jumpi\n      0x00\n      dup1\n      revert\n    tag_40:\n      pop\n      tag_41\n      0x04\n      dup1\n      calldatasize\n      sub\n      dup2\n      add\n      swap1\n      tag_42\n      swap2\n      swap1\n      tag_43\n      jump\t// in\n    tag_42:\n      tag_44\n      jump\t// in\n    tag_41:\n      mload(0x40)\n      tag_45\n      swap2\n      swap1\n      tag_46\n      jump\t// in\n    tag_45:\n      mload(0x40)\n      dup1\n      swap2\n      sub\n      swap1\n      return\n        /* \"contracts/Pool/Pool.sol\":4891:4932  IUniswapV2Router02 public uniswapV2Router */\n    tag_6:\n      callvalue\n      dup1\n      iszero\n      tag_47\n      jumpi\n      0x00\n      dup1\n      revert\n    tag_47:\n      pop\n      tag_48\n      tag_49\n      jump\t// in\n    tag_48:\n      mload(0x40)\n      tag_50\n      swap2\n      swap1\n      tag_51\n      jump\t// in\n    tag_50:\n      mload(0x40)\n      dup1\n      swap2\n      sub\n      swap1\n      return\n        /* \"contracts/Pool/Pool.sol\":6460:6553  function totalSupply() public pure override returns (uint256) {... */\n    tag_7:\n      callvalue\n      dup1\n      iszero\n      tag_52\n      jumpi\n      0x00\n      dup1\n      revert\n    tag_52:\n      pop\n      tag_53\n      tag_54\n      jump\t// in\n    tag_53:\n      mload(0x40)\n      tag_55\n      swap2\n      swap1\n      tag_56\n      jump\t// in\n    tag_55:\n      mload(0x40)\n      dup1\n      swap2\n      sub\n      swap1\n      return\n        /* \"contracts/Pool/Pool.sol\":7182:7491  function transferFrom(address sender, address recipient, uint256 amount) public override returns (bool) {... */\n    tag_8:\n      callvalue\n      dup1\n      iszero\n      tag_57\n      jumpi\n      0x00\n      dup1\n      revert\n    tag_57:\n      pop\n      tag_58\n      0x04\n      dup1\n      calldatasize\n      sub\n      dup2\n      add\n      swap1\n      tag_59\n      swap2\n      swap1\n      tag_60\n      jump\t// in\n    tag_59:\n      tag_61\n      jump\t// in\n    tag_58:\n      mload(0x40)\n      tag_62\n      swap2\n      swap1\n      tag_46\n      jump\t// in\n    tag_62:\n      mload(0x40)\n      dup1\n      swap2\n      sub\n      swap1\n      return\n        /* \"contracts/Pool/Pool.sol\":6373:6454  function decimals() public pure returns (uint8) {... */\n    tag_9:\n      callvalue\n      dup1\n      iszero\n      tag_63\n      jumpi\n      0x00\n      dup1\n      revert\n    tag_63:\n      pop\n      tag_64\n      tag_65\n      jump\t// in\n    tag_64:\n      mload(0x40)\n      tag_66\n      swap2\n      swap1\n      tag_67\n      jump\t// in\n    tag_66:\n      mload(0x40)\n      dup1\n      swap2\n      sub\n      swap1\n      return\n        /* \"contracts/Pool/Pool.sol\":4986:5014  address public uniswapV2Pair */\n    tag_10:\n      callvalue\n      dup1\n      iszero\n      tag_68\n      jumpi\n      0x00\n      dup1\n      revert\n    tag_68:\n      pop\n      tag_69\n      tag_70\n      jump\t// in\n    tag_69:\n      mload(0x40)\n      tag_71\n      swap2\n      swap1\n      tag_72\n      jump\t// in\n    tag_71:\n      mload(0x40)\n      dup1\n      swap2\n      sub\n      swap1\n      return\n        /* \"contracts/Pool/Pool.sol\":4938:4979  IUniswapV2Factory public uniswapV2Factory */\n    tag_11:\n      callvalue\n      dup1\n      iszero\n      tag_73\n      jumpi\n      0x00\n      dup1\n      revert\n    tag_73:\n      pop\n      tag_74\n      tag_75\n      jump\t// in\n    tag_74:\n      mload(0x40)\n      tag_76\n      swap2\n      swap1\n      tag_77\n      jump\t// in\n    tag_76:\n      mload(0x40)\n      dup1\n      swap2\n      sub\n      swap1\n      return\n        /* \"contracts/Pool/Pool.sol\":15126:15223  function toggleSwap(bool _swapEnabled) public onlyDev {... */\n    tag_12:\n      callvalue\n      dup1\n      iszero\n      tag_78\n      jumpi\n      0x00\n      dup1\n      revert\n    tag_78:\n      pop\n      tag_79\n      0x04\n      dup1\n      calldatasize\n      sub\n      dup2\n      add\n      swap1\n      tag_80\n      swap2\n      swap1\n      tag_81\n      jump\t// in\n    tag_80:\n      tag_82\n      jump\t// in\n    tag_79:\n      stop\n        /* \"contracts/Pool/Pool.sol\":14306:14564  function manualsend() external {... */\n    tag_13:\n      callvalue\n      dup1\n      iszero\n      tag_83\n      jumpi\n      0x00\n      dup1\n      revert\n    tag_83:\n      pop\n      tag_84\n      tag_85\n      jump\t// in\n    tag_84:\n      stop\n        /* \"contracts/Pool/Pool.sol\":6559:6695  function balanceOf(address account) public view override returns (uint256) {... */\n    tag_14:\n      callvalue\n      dup1\n      iszero\n      tag_86\n      jumpi\n      0x00\n      dup1\n      revert\n    tag_86:\n      pop\n      tag_87\n      0x04\n      dup1\n      calldatasize\n      sub\n      dup2\n      add\n      swap1\n      tag_88\n      swap2\n      swap1\n      tag_89\n      jump\t// in\n    tag_88:\n      tag_90\n      jump\t// in\n    tag_87:\n      mload(0x40)\n      tag_91\n      swap2\n      swap1\n      tag_56\n      jump\t// in\n    tag_91:\n      mload(0x40)\n      dup1\n      swap2\n      sub\n      swap1\n      return\n        /* \"contracts/Pool/Pool.sol\":3381:3526  function renounceOwnership() public virtual onlyOwner {... */\n    tag_15:\n      callvalue\n      dup1\n      iszero\n      tag_92\n      jumpi\n      0x00\n      dup1\n      revert\n    tag_92:\n      pop\n      tag_93\n      tag_94\n      jump\t// in\n    tag_93:\n      stop\n        /* \"contracts/Pool/Pool.sol\":11255:11488  function setNewMarketingAddress(address payable markt) public onlyDev() {... */\n    tag_16:\n      callvalue\n      dup1\n      iszero\n      tag_95\n      jumpi\n      0x00\n      dup1\n      revert\n    tag_95:\n      pop\n      tag_96\n      0x04\n      dup1\n      calldatasize\n      sub\n      dup2\n      add\n      swap1\n      tag_97\n      swap2\n      swap1\n      tag_98\n      jump\t// in\n    tag_97:\n      tag_99\n      jump\t// in\n    tag_96:\n      stop\n        /* \"contracts/Pool/Pool.sol\":3185:3262  function owner() public view returns (address) {... */\n    tag_17:\n      callvalue\n      dup1\n      iszero\n      tag_100\n      jumpi\n      0x00\n      dup1\n      revert\n    tag_100:\n      pop\n      tag_101\n      tag_102\n      jump\t// in\n    tag_101:\n      mload(0x40)\n      tag_103\n      swap2\n      swap1\n      tag_72\n      jump\t// in\n    tag_103:\n      mload(0x40)\n      dup1\n      swap2\n      sub\n      swap1\n      return\n        /* \"contracts/Pool/Pool.sol\":6282:6367  function symbol() public pure returns (string memory) {... */\n    tag_18:\n      callvalue\n      dup1\n      iszero\n      tag_104\n      jumpi\n      0x00\n      dup1\n      revert\n    tag_104:\n      pop\n      tag_105\n      tag_106\n      jump\t// in\n    tag_105:\n      mload(0x40)\n      tag_107\n      swap2\n      swap1\n      tag_39\n      jump\t// in\n    tag_107:\n      mload(0x40)\n      dup1\n      swap2\n      sub\n      swap1\n      return\n        /* \"contracts/Pool/Pool.sol\":14574:15116  function setFee(uint256 redisFeeOnBuy, uint256 redisFeeOnSell, uint256 taxFeeOnBuy, uint256 taxFeeOnSell) public onlyDev {... */\n    tag_19:\n      callvalue\n      dup1\n      iszero\n      tag_108\n      jumpi\n      0x00\n      dup1\n      revert\n    tag_108:\n      pop\n      tag_109\n      0x04\n      dup1\n      calldatasize\n      sub\n      dup2\n      add\n      swap1\n      tag_110\n      swap2\n      swap1\n      tag_111\n      jump\t// in\n    tag_110:\n      tag_112\n      jump\t// in\n    tag_109:\n      stop\n        /* \"contracts/Pool/Pool.sol\":6701:6865  function transfer(address recipient, uint256 amount) public override returns (bool) {... */\n    tag_20:\n      callvalue\n      dup1\n      iszero\n      tag_113\n      jumpi\n      0x00\n      dup1\n      revert\n    tag_113:\n      pop\n      tag_114\n      0x04\n      dup1\n      calldatasize\n      sub\n      dup2\n      add\n      swap1\n      tag_115\n      swap2\n      swap1\n      tag_43\n      jump\t// in\n    tag_115:\n      tag_116\n      jump\t// in\n    tag_114:\n      mload(0x40)\n      tag_117\n      swap2\n      swap1\n      tag_46\n      jump\t// in\n    tag_117:\n      mload(0x40)\n      dup1\n      swap2\n      sub\n      swap1\n      return\n        /* \"contracts/Pool/Pool.sol\":10942:11163  function setNewDevAddress(address payable dev) public onlyDev() {... */\n    tag_21:\n      callvalue\n      dup1\n      iszero\n      tag_118\n      jumpi\n      0x00\n      dup1\n      revert\n    tag_118:\n      pop\n      tag_119\n      0x04\n      dup1\n      calldatasize\n      sub\n      dup2\n      add\n      swap1\n      tag_120\n      swap2\n      swap1\n      tag_98\n      jump\t// in\n    tag_120:\n      tag_121\n      jump\t// in\n    tag_119:\n      stop\n        /* \"contracts/Pool/Pool.sol\":14041:14300  function manualswap() external {... */\n    tag_22:\n      callvalue\n      dup1\n      iszero\n      tag_122\n      jumpi\n      0x00\n      dup1\n      revert\n    tag_122:\n      pop\n      tag_123\n      tag_124\n      jump\t// in\n    tag_123:\n      stop\n        /* \"contracts/Pool/Pool.sol\":15229:15459  function excludeMultipleAccountsFromFees(address[] calldata accounts, bool excluded) public onlyOwner {... */\n    tag_23:\n      callvalue\n      dup1\n      iszero\n      tag_125\n      jumpi\n      0x00\n      dup1\n      revert\n    tag_125:\n      pop\n      tag_126\n      0x04\n      dup1\n      calldatasize\n      sub\n      dup2\n      add\n      swap1\n      tag_127\n      swap2\n      swap1\n      tag_128\n      jump\t// in\n    tag_127:\n      tag_129\n      jump\t// in\n    tag_126:\n      stop\n        /* \"contracts/Pool/Pool.sol\":6871:7012  function allowance(address owner, address spender) public view override returns (uint256) {... */\n    tag_24:\n      callvalue\n      dup1\n      iszero\n      tag_130\n      jumpi\n      0x00\n      dup1\n      revert\n    tag_130:\n      pop\n      tag_131\n      0x04\n      dup1\n      calldatasize\n      sub\n      dup2\n      add\n      swap1\n      tag_132\n      swap2\n      swap1\n      tag_133\n      jump\t// in\n    tag_132:\n      tag_134\n      jump\t// in\n    tag_131:\n      mload(0x40)\n      tag_135\n      swap2\n      swap1\n      tag_56\n      jump\t// in\n    tag_135:\n      mload(0x40)\n      dup1\n      swap2\n      sub\n      swap1\n      return\n        /* \"contracts/Pool/Pool.sol\":10651:10856  function rescueForeignTokens(address _tokenAddr, address _to, uint _amount) public onlyDev() {... */\n    tag_25:\n      callvalue\n      dup1\n      iszero\n      tag_136\n      jumpi\n      0x00\n      dup1\n      revert\n    tag_136:\n      pop\n      tag_137\n      0x04\n      dup1\n      calldatasize\n      sub\n      dup2\n      add\n      swap1\n      tag_138\n      swap2\n      swap1\n      tag_60\n      jump\t// in\n    tag_138:\n      tag_139\n      jump\t// in\n    tag_137:\n      stop\n        /* \"contracts/Pool/Pool.sol\":3625:3782  function transferOwnership(address newOwner) public virtual onlyOwner {... */\n    tag_26:\n      callvalue\n      dup1\n      iszero\n      tag_140\n      jumpi\n      0x00\n      dup1\n      revert\n    tag_140:\n      pop\n      tag_141\n      0x04\n      dup1\n      calldatasize\n      sub\n      dup2\n      add\n      swap1\n      tag_142\n      swap2\n      swap1\n      tag_89\n      jump\t// in\n    tag_142:\n      tag_143\n      jump\t// in\n    tag_141:\n      stop\n        /* \"contracts/Pool/Pool.sol\":9580:9762  function settingPair() public onlyOwner { ... */\n    tag_34:\n        /* \"contracts/Pool/Pool.sol\":3317:3329  _msgSender() */\n      tag_145\n        /* \"contracts/Pool/Pool.sol\":3317:3327  _msgSender */\n      tag_146\n        /* \"contracts/Pool/Pool.sol\":3317:3329  _msgSender() */\n      jump\t// in\n    tag_145:\n        /* \"contracts/Pool/Pool.sol\":3307:3329  _owner == _msgSender() */\n      0xffffffffffffffffffffffffffffffffffffffff\n      and\n        /* \"contracts/Pool/Pool.sol\":3307:3313  _owner */\n      0x00\n      dup1\n      sload\n      swap1\n      0x0100\n      exp\n      swap1\n      div\n      0xffffffffffffffffffffffffffffffffffffffff\n      and\n        /* \"contracts/Pool/Pool.sol\":3307:3329  _owner == _msgSender() */\n      0xffffffffffffffffffffffffffffffffffffffff\n      and\n      eq\n        /* \"contracts/Pool/Pool.sol\":3299:3357  require(_owner == _msgSender(), \"Caller is not the owner\") */\n      tag_147\n      jumpi\n      mload(0x40)\n      0x08c379a000000000000000000000000000000000000000000000000000000000\n      dup2\n      mstore\n      0x04\n      add\n      tag_148\n      swap1\n      tag_149\n      jump\t// in\n    tag_148:\n      mload(0x40)\n      dup1\n      swap2\n      sub\n      swap1\n      revert\n    tag_147:\n        /* \"contracts/Pool/Pool.sol\":9665:9680  uniswapV2Router */\n      0x10\n      0x00\n      swap1\n      sload\n      swap1\n      0x0100\n      exp\n      swap1\n      div\n      0xffffffffffffffffffffffffffffffffffffffff\n      and\n        /* \"contracts/Pool/Pool.sol\":9665:9688  uniswapV2Router.factory */\n      0xffffffffffffffffffffffffffffffffffffffff\n      and\n      0xc45a0155\n        /* \"contracts/Pool/Pool.sol\":9665:9690  uniswapV2Router.factory() */\n      mload(0x40)\n      dup2\n      0xffffffff\n      and\n      0xe0\n      shl\n      dup2\n      mstore\n      0x04\n      add\n      0x20\n      mload(0x40)\n      dup1\n      dup4\n      sub\n      dup2\n      dup7\n      gas\n      staticcall\n      iszero\n      dup1\n      iszero\n      tag_152\n      jumpi\n      returndatasize\n      0x00\n      dup1\n      returndatacopy\n      revert(0x00, returndatasize)\n    tag_152:\n      pop\n      pop\n      pop\n      pop\n      mload(0x40)\n      returndatasize\n      not(0x1f)\n      0x1f\n      dup3\n      add\n      and\n      dup3\n      add\n      dup1\n      0x40\n      mstore\n      pop\n      dup2\n      add\n      swap1\n      tag_153\n      swap2\n      swap1\n      tag_154\n      jump\t// in\n    tag_153:\n        /* \"contracts/Pool/Pool.sol\":9647:9715  IUniswapV2Factory(uniswapV2Router.factory())... */\n      0xffffffffffffffffffffffffffffffffffffffff\n      and\n      0xc9c65396\n        /* \"contracts/Pool/Pool.sol\":9724:9728  this */\n      address\n        /* \"contracts/Pool/Pool.sol\":9731:9746  uniswapV2Router */\n      0x10\n      0x00\n      swap1\n      sload\n      swap1\n      0x0100\n      exp\n      swap1\n      div\n      0xffffffffffffffffffffffffffffffffffffffff\n      and\n        /* \"contracts/Pool/Pool.sol\":9731:9751  uniswapV2Router.WETH */\n      0xffffffffffffffffffffffffffffffffffffffff\n      and\n      0xad5c4648\n        /* \"contracts/Pool/Pool.sol\":9731:9753  uniswapV2Router.WETH() */\n      mload(0x40)\n      dup2\n      0xffffffff\n      and\n      0xe0\n      shl\n      dup2\n      mstore\n      0x04\n      add\n      0x20\n      mload(0x40)\n      dup1\n      dup4\n      sub\n      dup2\n      dup7\n      gas\n      staticcall\n      iszero\n      dup1\n      iszero\n      tag_156\n      jumpi\n      returndatasize\n      0x00\n      dup1\n      returndatacopy\n      revert(0x00, returndatasize)\n    tag_156:\n      pop\n      pop\n      pop\n      pop\n      mload(0x40)\n      returndatasize\n      not(0x1f)\n      0x1f\n      dup3\n      add\n      and\n      dup3\n      add\n      dup1\n      0x40\n      mstore\n      pop\n      dup2\n      add\n      swap1\n      tag_157\n      swap2\n      swap1\n      tag_154\n      jump\t// in\n    tag_157:\n        /* \"contracts/Pool/Pool.sol\":9647:9755  IUniswapV2Factory(uniswapV2Router.factory())... */\n      mload(0x40)\n      dup4\n      0xffffffff\n      and\n      0xe0\n      shl\n      dup2\n      mstore\n      0x04\n      add\n      tag_158\n      swap3\n      swap2\n      swap1\n      tag_159\n      jump\t// in\n    tag_158:\n      0x20\n      mload(0x40)\n      dup1\n      dup4\n      sub\n      dup2\n      0x00\n      dup8\n      gas\n      call\n      iszero\n      dup1\n      iszero\n      tag_161\n      jumpi\n      returndatasize\n      0x00\n      dup1\n      returndatacopy\n      revert(0x00, returndatasize)\n    tag_161:\n      pop\n      pop\n      pop\n      pop\n      mload(0x40)\n      returndatasize\n      not(0x1f)\n      0x1f\n      dup3\n      add\n      and\n      dup3\n      add\n      dup1\n      0x40\n      mstore\n      pop\n      dup2\n      add\n      swap1\n      tag_162\n      swap2\n      swap1\n      tag_154\n      jump\t// in\n    tag_162:\n        /* \"contracts/Pool/Pool.sol\":9631:9644  uniswapV2Pair */\n      0x12\n      0x00\n        /* \"contracts/Pool/Pool.sol\":9631:9755  uniswapV2Pair = IUniswapV2Factory(uniswapV2Router.factory())... */\n      0x0100\n      exp\n      dup2\n      sload\n      dup2\n      0xffffffffffffffffffffffffffffffffffffffff\n      mul\n      not\n      and\n      swap1\n      dup4\n      0xffffffffffffffffffffffffffffffffffffffff\n      and\n      mul\n      or\n      swap1\n      sstore\n      pop\n        /* \"contracts/Pool/Pool.sol\":9580:9762  function settingPair() public onlyOwner { ... */\n      jump\t// out\n        /* \"contracts/Pool/Pool.sol\":6195:6276  function name() public pure returns (string memory) {... */\n    tag_37:\n        /* \"contracts/Pool/Pool.sol\":6232:6245  string memory */\n      0x60\n        /* \"contracts/Pool/Pool.sol\":6264:6269  _name */\n      mload(0x40)\n      dup1\n      0x40\n      add\n      0x40\n      mstore\n      dup1\n      0x0a\n      dup2\n      mstore\n      0x20\n      add\n      0x576f726c64205374657000000000000000000000000000000000000000000000\n      dup2\n      mstore\n      pop\n        /* \"contracts/Pool/Pool.sol\":6257:6269  return _name */\n      swap1\n      pop\n        /* \"contracts/Pool/Pool.sol\":6195:6276  function name() public pure returns (string memory) {... */\n      swap1\n      jump\t// out\n        /* \"contracts/Pool/Pool.sol\":7018:7176  function approve(address spender, uint256 amount) public override returns (bool) {... */\n    tag_44:\n        /* \"contracts/Pool/Pool.sol\":7093:7097  bool */\n      0x00\n        /* \"contracts/Pool/Pool.sol\":7109:7148  _approve(_msgSender(), spender, amount) */\n      tag_165\n        /* \"contracts/Pool/Pool.sol\":7118:7130  _msgSender() */\n      tag_166\n        /* \"contracts/Pool/Pool.sol\":7118:7128  _msgSender */\n      tag_146\n        /* \"contracts/Pool/Pool.sol\":7118:7130  _msgSender() */\n      jump\t// in\n    tag_166:\n        /* \"contracts/Pool/Pool.sol\":7132:7139  spender */\n      dup5\n        /* \"contracts/Pool/Pool.sol\":7141:7147  amount */\n      dup5\n        /* \"contracts/Pool/Pool.sol\":7109:7117  _approve */\n      tag_167\n        /* \"contracts/Pool/Pool.sol\":7109:7148  _approve(_msgSender(), spender, amount) */\n      jump\t// in\n    tag_165:\n        /* \"contracts/Pool/Pool.sol\":7165:7169  true */\n      0x01\n        /* \"contracts/Pool/Pool.sol\":7158:7169  return true */\n      swap1\n      pop\n        /* \"contracts/Pool/Pool.sol\":7018:7176  function approve(address spender, uint256 amount) public override returns (bool) {... */\n      swap3\n      swap2\n      pop\n      pop\n      jump\t// out\n        /* \"contracts/Pool/Pool.sol\":4891:4932  IUniswapV2Router02 public uniswapV2Router */\n    tag_49:\n      0x10\n      0x00\n      swap1\n      sload\n      swap1\n      0x0100\n      exp\n      swap1\n      div\n      0xffffffffffffffffffffffffffffffffffffffff\n      and\n      dup2\n      jump\t// out\n        /* \"contracts/Pool/Pool.sol\":6460:6553  function totalSupply() public pure override returns (uint256) {... */\n    tag_54:\n        /* \"contracts/Pool/Pool.sol\":6513:6520  uint256 */\n      0x00\n        /* \"contracts/Pool/Pool.sol\":4200:4213  1*10**9*10**9 */\n      0x0de0b6b3a7640000\n        /* \"contracts/Pool/Pool.sol\":6532:6546  return _tTotal */\n      swap1\n      pop\n        /* \"contracts/Pool/Pool.sol\":6460:6553  function totalSupply() public pure override returns (uint256) {... */\n      swap1\n      jump\t// out\n        /* \"contracts/Pool/Pool.sol\":7182:7491  function transferFrom(address sender, address recipient, uint256 amount) public override returns (bool) {... */\n    tag_61:\n        /* \"contracts/Pool/Pool.sol\":7280:7284  bool */\n      0x00\n        /* \"contracts/Pool/Pool.sol\":7296:7332  _transfer(sender, recipient, amount) */\n      tag_170\n        /* \"contracts/Pool/Pool.sol\":7306:7312  sender */\n      dup5\n        /* \"contracts/Pool/Pool.sol\":7314:7323  recipient */\n      dup5\n        /* \"contracts/Pool/Pool.sol\":7325:7331  amount */\n      dup5\n        /* \"contracts/Pool/Pool.sol\":7296:7305  _transfer */\n      tag_171\n        /* \"contracts/Pool/Pool.sol\":7296:7332  _transfer(sender, recipient, amount) */\n      jump\t// in\n    tag_170:\n        /* \"contracts/Pool/Pool.sol\":7342:7463  _approve(sender, _msgSender(), _allowances[sender][_msgSender()].sub(amount, \"ERC20: transfer amount exceeds allowance\")) */\n      tag_172\n        /* \"contracts/Pool/Pool.sol\":7351:7357  sender */\n      dup5\n        /* \"contracts/Pool/Pool.sol\":7359:7371  _msgSender() */\n      tag_173\n        /* \"contracts/Pool/Pool.sol\":7359:7369  _msgSender */\n      tag_146\n        /* \"contracts/Pool/Pool.sol\":7359:7371  _msgSender() */\n      jump\t// in\n    tag_173:\n        /* \"contracts/Pool/Pool.sol\":7373:7462  _allowances[sender][_msgSender()].sub(amount, \"ERC20: transfer amount exceeds allowance\") */\n      tag_174\n        /* \"contracts/Pool/Pool.sol\":7411:7417  amount */\n      dup6\n        /* \"contracts/Pool/Pool.sol\":7373:7462  _allowances[sender][_msgSender()].sub(amount, \"ERC20: transfer amount exceeds allowance\") */\n      mload(0x40)\n      dup1\n      0x60\n      add\n      0x40\n      mstore\n      dup1\n      0x28\n      dup2\n      mstore\n      0x20\n      add\n      data_974d1b4421da69cc60b481194f0dad36a5bb4e23da810da7a7fb30cdba178330\n      0x28\n      swap2\n      codecopy\n        /* \"contracts/Pool/Pool.sol\":7373:7384  _allowances */\n      0x04\n        /* \"contracts/Pool/Pool.sol\":7373:7392  _allowances[sender] */\n      0x00\n        /* \"contracts/Pool/Pool.sol\":7385:7391  sender */\n      dup12\n        /* \"contracts/Pool/Pool.sol\":7373:7392  _allowances[sender] */\n      0xffffffffffffffffffffffffffffffffffffffff\n      and\n      0xffffffffffffffffffffffffffffffffffffffff\n      and\n      dup2\n      mstore\n      0x20\n      add\n      swap1\n      dup2\n      mstore\n      0x20\n      add\n      0x00\n      keccak256\n        /* \"contracts/Pool/Pool.sol\":7373:7406  _allowances[sender][_msgSender()] */\n      0x00\n        /* \"contracts/Pool/Pool.sol\":7393:7405  _msgSender() */\n      tag_175\n        /* \"contracts/Pool/Pool.sol\":7393:7403  _msgSender */\n      tag_146\n        /* \"contracts/Pool/Pool.sol\":7393:7405  _msgSender() */\n      jump\t// in\n    tag_175:\n        /* \"contracts/Pool/Pool.sol\":7373:7406  _allowances[sender][_msgSender()] */\n      0xffffffffffffffffffffffffffffffffffffffff\n      and\n      0xffffffffffffffffffffffffffffffffffffffff\n      and\n      dup2\n      mstore\n      0x20\n      add\n      swap1\n      dup2\n      mstore\n      0x20\n      add\n      0x00\n      keccak256\n      sload\n        /* \"contracts/Pool/Pool.sol\":7373:7410  _allowances[sender][_msgSender()].sub */\n      tag_176\n      swap1\n        /* \"contracts/Pool/Pool.sol\":7373:7462  _allowances[sender][_msgSender()].sub(amount, \"ERC20: transfer amount exceeds allowance\") */\n      swap3\n      swap2\n      swap1\n      0xffffffff\n      and\n      jump\t// in\n    tag_174:\n        /* \"contracts/Pool/Pool.sol\":7342:7350  _approve */\n      tag_167\n        /* \"contracts/Pool/Pool.sol\":7342:7463  _approve(sender, _msgSender(), _allowances[sender][_msgSender()].sub(amount, \"ERC20: transfer amount exceeds allowance\")) */\n      jump\t// in\n    tag_172:\n        /* \"contracts/Pool/Pool.sol\":7480:7484  true */\n      0x01\n        /* \"contracts/Pool/Pool.sol\":7473:7484  return true */\n      swap1\n      pop\n        /* \"contracts/Pool/Pool.sol\":7182:7491  function transferFrom(address sender, address recipient, uint256 amount) public override returns (bool) {... */\n      swap4\n      swap3\n      pop\n      pop\n      pop\n      jump\t// out\n        /* \"contracts/Pool/Pool.sol\":6373:6454  function decimals() public pure returns (uint8) {... */\n    tag_65:\n        /* \"contracts/Pool/Pool.sol\":6414:6419  uint8 */\n      0x00\n        /* \"contracts/Pool/Pool.sol\":4674:4675  9 */\n      0x09\n        /* \"contracts/Pool/Pool.sol\":6431:6447  return _decimals */\n      swap1\n      pop\n        /* \"contracts/Pool/Pool.sol\":6373:6454  function decimals() public pure returns (uint8) {... */\n      swap1\n      jump\t// out\n        /* \"contracts/Pool/Pool.sol\":4986:5014  address public uniswapV2Pair */\n    tag_70:\n      0x12\n      0x00\n      swap1\n      sload\n      swap1\n      0x0100\n      exp\n      swap1\n      div\n      0xffffffffffffffffffffffffffffffffffffffff\n      and\n      dup2\n      jump\t// out\n        /* \"contracts/Pool/Pool.sol\":4938:4979  IUniswapV2Factory public uniswapV2Factory */\n    tag_75:\n      0x11\n      0x00\n      swap1\n      sload\n      swap1\n      0x0100\n      exp\n      swap1\n      div\n      0xffffffffffffffffffffffffffffffffffffffff\n      and\n      dup2\n      jump\t// out\n        /* \"contracts/Pool/Pool.sol\":15126:15223  function toggleSwap(bool _swapEnabled) public onlyDev {... */\n    tag_82:\n        /* \"contracts/Pool/Pool.sol\":6092:6104  _msgSender() */\n      tag_179\n        /* \"contracts/Pool/Pool.sol\":6092:6102  _msgSender */\n      tag_146\n        /* \"contracts/Pool/Pool.sol\":6092:6104  _msgSender() */\n      jump\t// in\n    tag_179:\n        /* \"contracts/Pool/Pool.sol\":6081:6104  owner() == _msgSender() */\n      0xffffffffffffffffffffffffffffffffffffffff\n      and\n        /* \"contracts/Pool/Pool.sol\":6081:6088  owner() */\n      tag_180\n        /* \"contracts/Pool/Pool.sol\":6081:6086  owner */\n      tag_102\n        /* \"contracts/Pool/Pool.sol\":6081:6088  owner() */\n      jump\t// in\n    tag_180:\n        /* \"contracts/Pool/Pool.sol\":6081:6104  owner() == _msgSender() */\n      0xffffffffffffffffffffffffffffffffffffffff\n      and\n      eq\n        /* \"contracts/Pool/Pool.sol\":6081:6143  owner() == _msgSender() || _developmentAddress == _msgSender() */\n      dup1\n      tag_181\n      jumpi\n      pop\n        /* \"contracts/Pool/Pool.sol\":6131:6143  _msgSender() */\n      tag_182\n        /* \"contracts/Pool/Pool.sol\":6131:6141  _msgSender */\n      tag_146\n        /* \"contracts/Pool/Pool.sol\":6131:6143  _msgSender() */\n      jump\t// in\n    tag_182:\n        /* \"contracts/Pool/Pool.sol\":6108:6143  _developmentAddress == _msgSender() */\n      0xffffffffffffffffffffffffffffffffffffffff\n      and\n        /* \"contracts/Pool/Pool.sol\":6108:6127  _developmentAddress */\n      0x0e\n      0x00\n      swap1\n      sload\n      swap1\n      0x0100\n      exp\n      swap1\n      div\n      0xffffffffffffffffffffffffffffffffffffffff\n      and\n        /* \"contracts/Pool/Pool.sol\":6108:6143  _developmentAddress == _msgSender() */\n      0xffffffffffffffffffffffffffffffffffffffff\n      and\n      eq\n        /* \"contracts/Pool/Pool.sol\":6081:6143  owner() == _msgSender() || _developmentAddress == _msgSender() */\n    tag_181:\n        /* \"contracts/Pool/Pool.sol\":6073:6169  require(owner() == _msgSender() || _developmentAddress == _msgSender(), \"Caller is not the dev\") */\n      tag_183\n      jumpi\n      mload(0x40)\n      0x08c379a000000000000000000000000000000000000000000000000000000000\n      dup2\n      mstore\n      0x04\n      add\n      tag_184\n      swap1\n      tag_185\n      jump\t// in\n    tag_184:\n      mload(0x40)\n      dup1\n      swap2\n      sub\n      swap1\n      revert\n    tag_183:\n        /* \"contracts/Pool/Pool.sol\":15204:15216  _swapEnabled */\n      dup1\n        /* \"contracts/Pool/Pool.sol\":15190:15201  swapEnabled */\n      0x12\n      0x15\n        /* \"contracts/Pool/Pool.sol\":15190:15216  swapEnabled = _swapEnabled */\n      0x0100\n      exp\n      dup2\n      sload\n      dup2\n      0xff\n      mul\n      not\n      and\n      swap1\n      dup4\n      iszero\n      iszero\n      mul\n      or\n      swap1\n      sstore\n      pop\n        /* \"contracts/Pool/Pool.sol\":15126:15223  function toggleSwap(bool _swapEnabled) public onlyDev {... */\n      pop\n      jump\t// out\n        /* \"contracts/Pool/Pool.sol\":14306:14564  function manualsend() external {... */\n    tag_85:\n        /* \"contracts/Pool/Pool.sol\":14371:14390  _developmentAddress */\n      0x0e\n      0x00\n      swap1\n      sload\n      swap1\n      0x0100\n      exp\n      swap1\n      div\n      0xffffffffffffffffffffffffffffffffffffffff\n      and\n        /* \"contracts/Pool/Pool.sol\":14355:14390  _msgSender() == _developmentAddress */\n      0xffffffffffffffffffffffffffffffffffffffff\n      and\n        /* \"contracts/Pool/Pool.sol\":14355:14367  _msgSender() */\n      tag_188\n        /* \"contracts/Pool/Pool.sol\":14355:14365  _msgSender */\n      tag_146\n        /* \"contracts/Pool/Pool.sol\":14355:14367  _msgSender() */\n      jump\t// in\n    tag_188:\n        /* \"contracts/Pool/Pool.sol\":14355:14390  _msgSender() == _developmentAddress */\n      0xffffffffffffffffffffffffffffffffffffffff\n      and\n      eq\n        /* \"contracts/Pool/Pool.sol\":14355:14427  _msgSender() == _developmentAddress || _msgSender() == _marketingAddress */\n      dup1\n      tag_189\n      jumpi\n      pop\n        /* \"contracts/Pool/Pool.sol\":14410:14427  _marketingAddress */\n      0x0f\n      0x00\n      swap1\n      sload\n      swap1\n      0x0100\n      exp\n      swap1\n      div\n      0xffffffffffffffffffffffffffffffffffffffff\n      and\n        /* \"contracts/Pool/Pool.sol\":14394:14427  _msgSender() == _marketingAddress */\n      0xffffffffffffffffffffffffffffffffffffffff\n      and\n        /* \"contracts/Pool/Pool.sol\":14394:14406  _msgSender() */\n      tag_190\n        /* \"contracts/Pool/Pool.sol\":14394:14404  _msgSender */\n      tag_146\n        /* \"contracts/Pool/Pool.sol\":14394:14406  _msgSender() */\n      jump\t// in\n    tag_190:\n        /* \"contracts/Pool/Pool.sol\":14394:14427  _msgSender() == _marketingAddress */\n      0xffffffffffffffffffffffffffffffffffffffff\n      and\n      eq\n        /* \"contracts/Pool/Pool.sol\":14355:14427  _msgSender() == _developmentAddress || _msgSender() == _marketingAddress */\n    tag_189:\n        /* \"contracts/Pool/Pool.sol\":14355:14454  _msgSender() == _developmentAddress || _msgSender() == _marketingAddress || _msgSender() == owner() */\n      dup1\n      tag_191\n      jumpi\n      pop\n        /* \"contracts/Pool/Pool.sol\":14447:14454  owner() */\n      tag_192\n        /* \"contracts/Pool/Pool.sol\":14447:14452  owner */\n      tag_102\n        /* \"contracts/Pool/Pool.sol\":14447:14454  owner() */\n      jump\t// in\n    tag_192:\n        /* \"contracts/Pool/Pool.sol\":14431:14454  _msgSender() == owner() */\n      0xffffffffffffffffffffffffffffffffffffffff\n      and\n        /* \"contracts/Pool/Pool.sol\":14431:14443  _msgSender() */\n      tag_193\n        /* \"contracts/Pool/Pool.sol\":14431:14441  _msgSender */\n      tag_146\n        /* \"contracts/Pool/Pool.sol\":14431:14443  _msgSender() */\n      jump\t// in\n    tag_193:\n        /* \"contracts/Pool/Pool.sol\":14431:14454  _msgSender() == owner() */\n      0xffffffffffffffffffffffffffffffffffffffff\n      and\n      eq\n        /* \"contracts/Pool/Pool.sol\":14355:14454  _msgSender() == _developmentAddress || _msgSender() == _marketingAddress || _msgSender() == owner() */\n    tag_191:\n        /* \"contracts/Pool/Pool.sol\":14347:14455  require(_msgSender() == _developmentAddress || _msgSender() == _marketingAddress || _msgSender() == owner()) */\n      tag_194\n      jumpi\n      0x00\n      dup1\n      revert\n    tag_194:\n        /* \"contracts/Pool/Pool.sol\":14465:14491  uint256 contractETHBalance */\n      0x00\n        /* \"contracts/Pool/Pool.sol\":14494:14515  address(this).balance */\n      selfbalance\n        /* \"contracts/Pool/Pool.sol\":14465:14515  uint256 contractETHBalance = address(this).balance */\n      swap1\n      pop\n        /* \"contracts/Pool/Pool.sol\":14525:14557  sendETHToFee(contractETHBalance) */\n      tag_195\n        /* \"contracts/Pool/Pool.sol\":14538:14556  contractETHBalance */\n      dup2\n        /* \"contracts/Pool/Pool.sol\":14525:14537  sendETHToFee */\n      tag_196\n        /* \"contracts/Pool/Pool.sol\":14525:14557  sendETHToFee(contractETHBalance) */\n      jump\t// in\n    tag_195:\n        /* \"contracts/Pool/Pool.sol\":14337:14564  {... */\n      pop\n        /* \"contracts/Pool/Pool.sol\":14306:14564  function manualsend() external {... */\n      jump\t// out\n        /* \"contracts/Pool/Pool.sol\":6559:6695  function balanceOf(address account) public view override returns (uint256) {... */\n    tag_90:\n        /* \"contracts/Pool/Pool.sol\":6625:6632  uint256 */\n      0x00\n        /* \"contracts/Pool/Pool.sol\":6651:6688  tokenFromReflection(_rOwned[account]) */\n      tag_198\n        /* \"contracts/Pool/Pool.sol\":6671:6678  _rOwned */\n      0x02\n        /* \"contracts/Pool/Pool.sol\":6671:6687  _rOwned[account] */\n      0x00\n        /* \"contracts/Pool/Pool.sol\":6679:6686  account */\n      dup5\n        /* \"contracts/Pool/Pool.sol\":6671:6687  _rOwned[account] */\n      0xffffffffffffffffffffffffffffffffffffffff\n      and\n      0xffffffffffffffffffffffffffffffffffffffff\n      and\n      dup2\n      mstore\n      0x20\n      add\n      swap1\n      dup2\n      mstore\n      0x20\n      add\n      0x00\n      keccak256\n      sload\n        /* \"contracts/Pool/Pool.sol\":6651:6670  tokenFromReflection */\n      tag_199\n        /* \"contracts/Pool/Pool.sol\":6651:6688  tokenFromReflection(_rOwned[account]) */\n      jump\t// in\n    tag_198:\n        /* \"contracts/Pool/Pool.sol\":6644:6688  return tokenFromReflection(_rOwned[account]) */\n      swap1\n      pop\n        /* \"contracts/Pool/Pool.sol\":6559:6695  function balanceOf(address account) public view override returns (uint256) {... */\n      swap2\n      swap1\n      pop\n      jump\t// out\n        /* \"contracts/Pool/Pool.sol\":3381:3526  function renounceOwnership() public virtual onlyOwner {... */\n    tag_94:\n        /* \"contracts/Pool/Pool.sol\":3317:3329  _msgSender() */\n      tag_201\n        /* \"contracts/Pool/Pool.sol\":3317:3327  _msgSender */\n      tag_146\n        /* \"contracts/Pool/Pool.sol\":3317:3329  _msgSender() */\n      jump\t// in\n    tag_201:\n        /* \"contracts/Pool/Pool.sol\":3307:3329  _owner == _msgSender() */\n      0xffffffffffffffffffffffffffffffffffffffff\n      and\n        /* \"contracts/Pool/Pool.sol\":3307:3313  _owner */\n      0x00\n      dup1\n      sload\n      swap1\n      0x0100\n      exp\n      swap1\n      div\n      0xffffffffffffffffffffffffffffffffffffffff\n      and\n        /* \"contracts/Pool/Pool.sol\":3307:3329  _owner == _msgSender() */\n      0xffffffffffffffffffffffffffffffffffffffff\n      and\n      eq\n        /* \"contracts/Pool/Pool.sol\":3299:3357  require(_owner == _msgSender(), \"Caller is not the owner\") */\n      tag_202\n      jumpi\n      mload(0x40)\n      0x08c379a000000000000000000000000000000000000000000000000000000000\n      dup2\n      mstore\n      0x04\n      add\n      tag_203\n      swap1\n      tag_149\n      jump\t// in\n    tag_203:\n      mload(0x40)\n      dup1\n      swap2\n      sub\n      swap1\n      revert\n    tag_202:\n        /* \"contracts/Pool/Pool.sol\":3487:3488  0 */\n      0x00\n        /* \"contracts/Pool/Pool.sol\":3450:3490  OwnershipTransferred(_owner, address(0)) */\n      0xffffffffffffffffffffffffffffffffffffffff\n      and\n        /* \"contracts/Pool/Pool.sol\":3471:3477  _owner */\n      0x00\n      dup1\n      sload\n      swap1\n      0x0100\n      exp\n      swap1\n      div\n      0xffffffffffffffffffffffffffffffffffffffff\n      and\n        /* \"contracts/Pool/Pool.sol\":3450:3490  OwnershipTransferred(_owner, address(0)) */\n      0xffffffffffffffffffffffffffffffffffffffff\n      and\n      0x8be0079c531659141344cd1fd0a4f28419497f9722a3daafe3b4186f6b6457e0\n      mload(0x40)\n      mload(0x40)\n      dup1\n      swap2\n      sub\n      swap1\n      log3\n        /* \"contracts/Pool/Pool.sol\":3517:3518  0 */\n      0x00\n        /* \"contracts/Pool/Pool.sol\":3500:3506  _owner */\n      dup1\n      0x00\n        /* \"contracts/Pool/Pool.sol\":3500:3519  _owner = address(0) */\n      0x0100\n      exp\n      dup2\n      sload\n      dup2\n      0xffffffffffffffffffffffffffffffffffffffff\n      mul\n      not\n      and\n      swap1\n      dup4\n      0xffffffffffffffffffffffffffffffffffffffff\n      and\n      mul\n      or\n      swap1\n      sstore\n      pop\n        /* \"contracts/Pool/Pool.sol\":3381:3526  function renounceOwnership() public virtual onlyOwner {... */\n      jump\t// out\n        /* \"contracts/Pool/Pool.sol\":11255:11488  function setNewMarketingAddress(address payable markt) public onlyDev() {... */\n    tag_99:\n        /* \"contracts/Pool/Pool.sol\":6092:6104  _msgSender() */\n      tag_206\n        /* \"contracts/Pool/Pool.sol\":6092:6102  _msgSender */\n      tag_146\n        /* \"contracts/Pool/Pool.sol\":6092:6104  _msgSender() */\n      jump\t// in\n    tag_206:\n        /* \"contracts/Pool/Pool.sol\":6081:6104  owner() == _msgSender() */\n      0xffffffffffffffffffffffffffffffffffffffff\n      and\n        /* \"contracts/Pool/Pool.sol\":6081:6088  owner() */\n      tag_207\n        /* \"contracts/Pool/Pool.sol\":6081:6086  owner */\n      tag_102\n        /* \"contracts/Pool/Pool.sol\":6081:6088  owner() */\n      jump\t// in\n    tag_207:\n        /* \"contracts/Pool/Pool.sol\":6081:6104  owner() == _msgSender() */\n      0xffffffffffffffffffffffffffffffffffffffff\n      and\n      eq\n        /* \"contracts/Pool/Pool.sol\":6081:6143  owner() == _msgSender() || _developmentAddress == _msgSender() */\n      dup1\n      tag_208\n      jumpi\n      pop\n        /* \"contracts/Pool/Pool.sol\":6131:6143  _msgSender() */\n      tag_209\n        /* \"contracts/Pool/Pool.sol\":6131:6141  _msgSender */\n      tag_146\n        /* \"contracts/Pool/Pool.sol\":6131:6143  _msgSender() */\n      jump\t// in\n    tag_209:\n        /* \"contracts/Pool/Pool.sol\":6108:6143  _developmentAddress == _msgSender() */\n      0xffffffffffffffffffffffffffffffffffffffff\n      and\n        /* \"contracts/Pool/Pool.sol\":6108:6127  _developmentAddress */\n      0x0e\n      0x00\n      swap1\n      sload\n      swap1\n      0x0100\n      exp\n      swap1\n      div\n      0xffffffffffffffffffffffffffffffffffffffff\n      and\n        /* \"contracts/Pool/Pool.sol\":6108:6143  _developmentAddress == _msgSender() */\n      0xffffffffffffffffffffffffffffffffffffffff\n      and\n      eq\n        /* \"contracts/Pool/Pool.sol\":6081:6143  owner() == _msgSender() || _developmentAddress == _msgSender() */\n    tag_208:\n        /* \"contracts/Pool/Pool.sol\":6073:6169  require(owner() == _msgSender() || _developmentAddress == _msgSender(), \"Caller is not the dev\") */\n      tag_210\n      jumpi\n      mload(0x40)\n      0x08c379a000000000000000000000000000000000000000000000000000000000\n      dup2\n      mstore\n      0x04\n      add\n      tag_211\n      swap1\n      tag_185\n      jump\t// in\n    tag_211:\n      mload(0x40)\n      dup1\n      swap2\n      sub\n      swap1\n      revert\n    tag_210:\n        /* \"contracts/Pool/Pool.sol\":11385:11390  markt */\n      dup1\n        /* \"contracts/Pool/Pool.sol\":11342:11391  marketingAddressUpdated(_marketingAddress, markt) */\n      0xffffffffffffffffffffffffffffffffffffffff\n      and\n        /* \"contracts/Pool/Pool.sol\":11366:11383  _marketingAddress */\n      0x0f\n      0x00\n      swap1\n      sload\n      swap1\n      0x0100\n      exp\n      swap1\n      div\n      0xffffffffffffffffffffffffffffffffffffffff\n      and\n        /* \"contracts/Pool/Pool.sol\":11342:11391  marketingAddressUpdated(_marketingAddress, markt) */\n      0xffffffffffffffffffffffffffffffffffffffff\n      and\n      0xa64373a629bc0c09eacf8a9cc2c7b070fa0a8b7e2e9b8aaee408a3c02eb1676b\n      mload(0x40)\n      mload(0x40)\n      dup1\n      swap2\n      sub\n      swap1\n      log3\n        /* \"contracts/Pool/Pool.sol\":11422:11427  markt */\n      dup1\n        /* \"contracts/Pool/Pool.sol\":11402:11419  _marketingAddress */\n      0x0f\n      0x00\n        /* \"contracts/Pool/Pool.sol\":11402:11427  _marketingAddress = markt */\n      0x0100\n      exp\n      dup2\n      sload\n      dup2\n      0xffffffffffffffffffffffffffffffffffffffff\n      mul\n      not\n      and\n      swap1\n      dup4\n      0xffffffffffffffffffffffffffffffffffffffff\n      and\n      mul\n      or\n      swap1\n      sstore\n      pop\n        /* \"contracts/Pool/Pool.sol\":11477:11481  true */\n      0x01\n        /* \"contracts/Pool/Pool.sol\":11437:11455  _isExcludedFromFee */\n      0x05\n        /* \"contracts/Pool/Pool.sol\":11437:11474  _isExcludedFromFee[_marketingAddress] */\n      0x00\n        /* \"contracts/Pool/Pool.sol\":11456:11473  _marketingAddress */\n      0x0f\n      0x00\n      swap1\n      sload\n      swap1\n      0x0100\n      exp\n      swap1\n      div\n      0xffffffffffffffffffffffffffffffffffffffff\n      and\n        /* \"contracts/Pool/Pool.sol\":11437:11474  _isExcludedFromFee[_marketingAddress] */\n      0xffffffffffffffffffffffffffffffffffffffff\n      and\n      0xffffffffffffffffffffffffffffffffffffffff\n      and\n      dup2\n      mstore\n      0x20\n      add\n      swap1\n      dup2\n      mstore\n      0x20\n      add\n      0x00\n      keccak256\n      0x00\n        /* \"contracts/Pool/Pool.sol\":11437:11481  _isExcludedFromFee[_marketingAddress] = true */\n      0x0100\n      exp\n      dup2\n      sload\n      dup2\n      0xff\n      mul\n      not\n      and\n      swap1\n      dup4\n      iszero\n      iszero\n      mul\n      or\n      swap1\n      sstore\n      pop\n        /* \"contracts/Pool/Pool.sol\":11255:11488  function setNewMarketingAddress(address payable markt) public onlyDev() {... */\n      pop\n      jump\t// out\n        /* \"contracts/Pool/Pool.sol\":3185:3262  function owner() public view returns (address) {... */\n    tag_102:\n        /* \"contracts/Pool/Pool.sol\":3223:3230  address */\n      0x00\n        /* \"contracts/Pool/Pool.sol\":3249:3255  _owner */\n      dup1\n      0x00\n      swap1\n      sload\n      swap1\n      0x0100\n      exp\n      swap1\n      div\n      0xffffffffffffffffffffffffffffffffffffffff\n      and\n        /* \"contracts/Pool/Pool.sol\":3242:3255  return _owner */\n      swap1\n      pop\n        /* \"contracts/Pool/Pool.sol\":3185:3262  function owner() public view returns (address) {... */\n      swap1\n      jump\t// out\n        /* \"contracts/Pool/Pool.sol\":6282:6367  function symbol() public pure returns (string memory) {... */\n    tag_106:\n        /* \"contracts/Pool/Pool.sol\":6321:6334  string memory */\n      0x60\n        /* \"contracts/Pool/Pool.sol\":6353:6360  _symbol */\n      mload(0x40)\n      dup1\n      0x40\n      add\n      0x40\n      mstore\n      dup1\n      0x03\n      dup2\n      mstore\n      0x20\n      add\n      0x5753500000000000000000000000000000000000000000000000000000000000\n      dup2\n      mstore\n      pop\n        /* \"contracts/Pool/Pool.sol\":6346:6360  return _symbol */\n      swap1\n      pop\n        /* \"contracts/Pool/Pool.sol\":6282:6367  function symbol() public pure returns (string memory) {... */\n      swap1\n      jump\t// out\n        /* \"contracts/Pool/Pool.sol\":14574:15116  function setFee(uint256 redisFeeOnBuy, uint256 redisFeeOnSell, uint256 taxFeeOnBuy, uint256 taxFeeOnSell) public onlyDev {... */\n    tag_112:\n        /* \"contracts/Pool/Pool.sol\":6092:6104  _msgSender() */\n      tag_216\n        /* \"contracts/Pool/Pool.sol\":6092:6102  _msgSender */\n      tag_146\n        /* \"contracts/Pool/Pool.sol\":6092:6104  _msgSender() */\n      jump\t// in\n    tag_216:\n        /* \"contracts/Pool/Pool.sol\":6081:6104  owner() == _msgSender() */\n      0xffffffffffffffffffffffffffffffffffffffff\n      and\n        /* \"contracts/Pool/Pool.sol\":6081:6088  owner() */\n      tag_217\n        /* \"contracts/Pool/Pool.sol\":6081:6086  owner */\n      tag_102\n        /* \"contracts/Pool/Pool.sol\":6081:6088  owner() */\n      jump\t// in\n    tag_217:\n        /* \"contracts/Pool/Pool.sol\":6081:6104  owner() == _msgSender() */\n      0xffffffffffffffffffffffffffffffffffffffff\n      and\n      eq\n        /* \"contracts/Pool/Pool.sol\":6081:6143  owner() == _msgSender() || _developmentAddress == _msgSender() */\n      dup1\n      tag_218\n      jumpi\n      pop\n        /* \"contracts/Pool/Pool.sol\":6131:6143  _msgSender() */\n      tag_219\n        /* \"contracts/Pool/Pool.sol\":6131:6141  _msgSender */\n      tag_146\n        /* \"contracts/Pool/Pool.sol\":6131:6143  _msgSender() */\n      jump\t// in\n    tag_219:\n        /* \"contracts/Pool/Pool.sol\":6108:6143  _developmentAddress == _msgSender() */\n      0xffffffffffffffffffffffffffffffffffffffff\n      and\n        /* \"contracts/Pool/Pool.sol\":6108:6127  _developmentAddress */\n      0x0e\n      0x00\n      swap1\n      sload\n      swap1\n      0x0100\n      exp\n      swap1\n      div\n      0xffffffffffffffffffffffffffffffffffffffff\n      and\n        /* \"contracts/Pool/Pool.sol\":6108:6143  _developmentAddress == _msgSender() */\n      0xffffffffffffffffffffffffffffffffffffffff\n      and\n      eq\n        /* \"contracts/Pool/Pool.sol\":6081:6143  owner() == _msgSender() || _developmentAddress == _msgSender() */\n    tag_218:\n        /* \"contracts/Pool/Pool.sol\":6073:6169  require(owner() == _msgSender() || _developmentAddress == _msgSender(), \"Caller is not the dev\") */\n      tag_220\n      jumpi\n      mload(0x40)\n      0x08c379a000000000000000000000000000000000000000000000000000000000\n      dup2\n      mstore\n      0x04\n      add\n      tag_221\n      swap1\n      tag_185\n      jump\t// in\n    tag_221:\n      mload(0x40)\n      dup1\n      swap2\n      sub\n      swap1\n      revert\n    tag_220:\n        /* \"contracts/Pool/Pool.sol\":14726:14728  11 */\n      0x0b\n        /* \"contracts/Pool/Pool.sol\":14710:14723  redisFeeOnBuy */\n      dup5\n        /* \"contracts/Pool/Pool.sol\":14710:14728  redisFeeOnBuy < 11 */\n      lt\n        /* \"contracts/Pool/Pool.sol\":14702:14762  require(redisFeeOnBuy < 11, \"Redis cannot be more than 10.\") */\n      tag_223\n      jumpi\n      mload(0x40)\n      0x08c379a000000000000000000000000000000000000000000000000000000000\n      dup2\n      mstore\n      0x04\n      add\n      tag_224\n      swap1\n      tag_225\n      jump\t// in\n    tag_224:\n      mload(0x40)\n      dup1\n      swap2\n      sub\n      swap1\n      revert\n    tag_223:\n        /* \"contracts/Pool/Pool.sol\":14794:14796  11 */\n      0x0b\n        /* \"contracts/Pool/Pool.sol\":14777:14791  redisFeeOnSell */\n      dup4\n        /* \"contracts/Pool/Pool.sol\":14777:14796  redisFeeOnSell < 11 */\n      lt\n        /* \"contracts/Pool/Pool.sol\":14769:14830  require(redisFeeOnSell < 11, \"Redis cannot be more than 10.\") */\n      tag_226\n      jumpi\n      mload(0x40)\n      0x08c379a000000000000000000000000000000000000000000000000000000000\n      dup2\n      mstore\n      0x04\n      add\n      tag_227\n      swap1\n      tag_225\n      jump\t// in\n    tag_227:\n      mload(0x40)\n      dup1\n      swap2\n      sub\n      swap1\n      revert\n    tag_226:\n        /* \"contracts/Pool/Pool.sol\":14859:14860  7 */\n      0x07\n        /* \"contracts/Pool/Pool.sol\":14845:14856  taxFeeOnBuy */\n      dup3\n        /* \"contracts/Pool/Pool.sol\":14845:14860  taxFeeOnBuy < 7 */\n      lt\n        /* \"contracts/Pool/Pool.sol\":14837:14891  require(taxFeeOnBuy < 7, \"Tax cannot be more than 6.\") */\n      tag_228\n      jumpi\n      mload(0x40)\n      0x08c379a000000000000000000000000000000000000000000000000000000000\n      dup2\n      mstore\n      0x04\n      add\n      tag_229\n      swap1\n      tag_230\n      jump\t// in\n    tag_229:\n      mload(0x40)\n      dup1\n      swap2\n      sub\n      swap1\n      revert\n    tag_228:\n        /* \"contracts/Pool/Pool.sol\":14921:14922  7 */\n      0x07\n        /* \"contracts/Pool/Pool.sol\":14906:14918  taxFeeOnSell */\n      dup2\n        /* \"contracts/Pool/Pool.sol\":14906:14922  taxFeeOnSell < 7 */\n      lt\n        /* \"contracts/Pool/Pool.sol\":14898:14953  require(taxFeeOnSell < 7, \"Tax cannot be more than 6.\") */\n      tag_231\n      jumpi\n      mload(0x40)\n      0x08c379a000000000000000000000000000000000000000000000000000000000\n      dup2\n      mstore\n      0x04\n      add\n      tag_232\n      swap1\n      tag_230\n      jump\t// in\n    tag_232:\n      mload(0x40)\n      dup1\n      swap2\n      sub\n      swap1\n      revert\n    tag_231:\n        /* \"contracts/Pool/Pool.sol\":14980:14993  redisFeeOnBuy */\n      dup4\n        /* \"contracts/Pool/Pool.sol\":14963:14977  _redisFeeOnBuy */\n      0x08\n        /* \"contracts/Pool/Pool.sol\":14963:14993  _redisFeeOnBuy = redisFeeOnBuy */\n      dup2\n      swap1\n      sstore\n      pop\n        /* \"contracts/Pool/Pool.sol\":15021:15035  redisFeeOnSell */\n      dup3\n        /* \"contracts/Pool/Pool.sol\":15003:15018  _redisFeeOnSell */\n      0x0a\n        /* \"contracts/Pool/Pool.sol\":15003:15035  _redisFeeOnSell = redisFeeOnSell */\n      dup2\n      swap1\n      sstore\n      pop\n        /* \"contracts/Pool/Pool.sol\":15060:15071  taxFeeOnBuy */\n      dup2\n        /* \"contracts/Pool/Pool.sol\":15045:15057  _taxFeeOnBuy */\n      0x09\n        /* \"contracts/Pool/Pool.sol\":15045:15071  _taxFeeOnBuy = taxFeeOnBuy */\n      dup2\n      swap1\n      sstore\n      pop\n        /* \"contracts/Pool/Pool.sol\":15097:15109  taxFeeOnSell */\n      dup1\n        /* \"contracts/Pool/Pool.sol\":15081:15094  _taxFeeOnSell */\n      0x0b\n        /* \"contracts/Pool/Pool.sol\":15081:15109  _taxFeeOnSell = taxFeeOnSell */\n      dup2\n      swap1\n      sstore\n      pop\n        /* \"contracts/Pool/Pool.sol\":14574:15116  function setFee(uint256 redisFeeOnBuy, uint256 redisFeeOnSell, uint256 taxFeeOnBuy, uint256 taxFeeOnSell) public onlyDev {... */\n      pop\n      pop\n      pop\n      pop\n      jump\t// out\n        /* \"contracts/Pool/Pool.sol\":6701:6865  function transfer(address recipient, uint256 amount) public override returns (bool) {... */\n    tag_116:\n        /* \"contracts/Pool/Pool.sol\":6779:6783  bool */\n      0x00\n        /* \"contracts/Pool/Pool.sol\":6795:6837  _transfer(_msgSender(), recipient, amount) */\n      tag_234\n        /* \"contracts/Pool/Pool.sol\":6805:6817  _msgSender() */\n      tag_235\n        /* \"contracts/Pool/Pool.sol\":6805:6815  _msgSender */\n      tag_146\n        /* \"contracts/Pool/Pool.sol\":6805:6817  _msgSender() */\n      jump\t// in\n    tag_235:\n        /* \"contracts/Pool/Pool.sol\":6819:6828  recipient */\n      dup5\n        /* \"contracts/Pool/Pool.sol\":6830:6836  amount */\n      dup5\n        /* \"contracts/Pool/Pool.sol\":6795:6804  _transfer */\n      tag_171\n        /* \"contracts/Pool/Pool.sol\":6795:6837  _transfer(_msgSender(), recipient, amount) */\n      jump\t// in\n    tag_234:\n        /* \"contracts/Pool/Pool.sol\":6854:6858  true */\n      0x01\n        /* \"contracts/Pool/Pool.sol\":6847:6858  return true */\n      swap1\n      pop\n        /* \"contracts/Pool/Pool.sol\":6701:6865  function transfer(address recipient, uint256 amount) public override returns (bool) {... */\n      swap3\n      swap2\n      pop\n      pop\n      jump\t// out\n        /* \"contracts/Pool/Pool.sol\":10942:11163  function setNewDevAddress(address payable dev) public onlyDev() {... */\n    tag_121:\n        /* \"contracts/Pool/Pool.sol\":6092:6104  _msgSender() */\n      tag_237\n        /* \"contracts/Pool/Pool.sol\":6092:6102  _msgSender */\n      tag_146\n        /* \"contracts/Pool/Pool.sol\":6092:6104  _msgSender() */\n      jump\t// in\n    tag_237:\n        /* \"contracts/Pool/Pool.sol\":6081:6104  owner() == _msgSender() */\n      0xffffffffffffffffffffffffffffffffffffffff\n      and\n        /* \"contracts/Pool/Pool.sol\":6081:6088  owner() */\n      tag_238\n        /* \"contracts/Pool/Pool.sol\":6081:6086  owner */\n      tag_102\n        /* \"contracts/Pool/Pool.sol\":6081:6088  owner() */\n      jump\t// in\n    tag_238:\n        /* \"contracts/Pool/Pool.sol\":6081:6104  owner() == _msgSender() */\n      0xffffffffffffffffffffffffffffffffffffffff\n      and\n      eq\n        /* \"contracts/Pool/Pool.sol\":6081:6143  owner() == _msgSender() || _developmentAddress == _msgSender() */\n      dup1\n      tag_239\n      jumpi\n      pop\n        /* \"contracts/Pool/Pool.sol\":6131:6143  _msgSender() */\n      tag_240\n        /* \"contracts/Pool/Pool.sol\":6131:6141  _msgSender */\n      tag_146\n        /* \"contracts/Pool/Pool.sol\":6131:6143  _msgSender() */\n      jump\t// in\n    tag_240:\n        /* \"contracts/Pool/Pool.sol\":6108:6143  _developmentAddress == _msgSender() */\n      0xffffffffffffffffffffffffffffffffffffffff\n      and\n        /* \"contracts/Pool/Pool.sol\":6108:6127  _developmentAddress */\n      0x0e\n      0x00\n      swap1\n      sload\n      swap1\n      0x0100\n      exp\n      swap1\n      div\n      0xffffffffffffffffffffffffffffffffffffffff\n      and\n        /* \"contracts/Pool/Pool.sol\":6108:6143  _developmentAddress == _msgSender() */\n      0xffffffffffffffffffffffffffffffffffffffff\n      and\n      eq\n        /* \"contracts/Pool/Pool.sol\":6081:6143  owner() == _msgSender() || _developmentAddress == _msgSender() */\n    tag_239:\n        /* \"contracts/Pool/Pool.sol\":6073:6169  require(owner() == _msgSender() || _developmentAddress == _msgSender(), \"Caller is not the dev\") */\n      tag_241\n      jumpi\n      mload(0x40)\n      0x08c379a000000000000000000000000000000000000000000000000000000000\n      dup2\n      mstore\n      0x04\n      add\n      tag_242\n      swap1\n      tag_185\n      jump\t// in\n    tag_242:\n      mload(0x40)\n      dup1\n      swap2\n      sub\n      swap1\n      revert\n    tag_241:\n        /* \"contracts/Pool/Pool.sol\":11060:11063  dev */\n      dup1\n        /* \"contracts/Pool/Pool.sol\":11021:11064  devAddressUpdated(_developmentAddress, dev) */\n      0xffffffffffffffffffffffffffffffffffffffff\n      and\n        /* \"contracts/Pool/Pool.sol\":11039:11058  _developmentAddress */\n      0x0e\n      0x00\n      swap1\n      sload\n      swap1\n      0x0100\n      exp\n      swap1\n      div\n      0xffffffffffffffffffffffffffffffffffffffff\n      and\n        /* \"contracts/Pool/Pool.sol\":11021:11064  devAddressUpdated(_developmentAddress, dev) */\n      0xffffffffffffffffffffffffffffffffffffffff\n      and\n      0xfbbc329437e8c79f847e170730ad6dd04106b7511cad70d06d635886d92de83c\n      mload(0x40)\n      mload(0x40)\n      dup1\n      swap2\n      sub\n      swap1\n      log3\n        /* \"contracts/Pool/Pool.sol\":11097:11100  dev */\n      dup1\n        /* \"contracts/Pool/Pool.sol\":11075:11094  _developmentAddress */\n      0x0e\n      0x00\n        /* \"contracts/Pool/Pool.sol\":11075:11100  _developmentAddress = dev */\n      0x0100\n      exp\n      dup2\n      sload\n      dup2\n      0xffffffffffffffffffffffffffffffffffffffff\n      mul\n      not\n      and\n      swap1\n      dup4\n      0xffffffffffffffffffffffffffffffffffffffff\n      and\n      mul\n      or\n      swap1\n      sstore\n      pop\n        /* \"contracts/Pool/Pool.sol\":11152:11156  true */\n      0x01\n        /* \"contracts/Pool/Pool.sol\":11110:11128  _isExcludedFromFee */\n      0x05\n        /* \"contracts/Pool/Pool.sol\":11110:11149  _isExcludedFromFee[_developmentAddress] */\n      0x00\n        /* \"contracts/Pool/Pool.sol\":11129:11148  _developmentAddress */\n      0x0e\n      0x00\n      swap1\n      sload\n      swap1\n      0x0100\n      exp\n      swap1\n      div\n      0xffffffffffffffffffffffffffffffffffffffff\n      and\n        /* \"contracts/Pool/Pool.sol\":11110:11149  _isExcludedFromFee[_developmentAddress] */\n      0xffffffffffffffffffffffffffffffffffffffff\n      and\n      0xffffffffffffffffffffffffffffffffffffffff\n      and\n      dup2\n      mstore\n      0x20\n      add\n      swap1\n      dup2\n      mstore\n      0x20\n      add\n      0x00\n      keccak256\n      0x00\n        /* \"contracts/Pool/Pool.sol\":11110:11156  _isExcludedFromFee[_developmentAddress] = true */\n      0x0100\n      exp\n      dup2\n      sload\n      dup2\n      0xff\n      mul\n      not\n      and\n      swap1\n      dup4\n      iszero\n      iszero\n      mul\n      or\n      swap1\n      sstore\n      pop\n        /* \"contracts/Pool/Pool.sol\":10942:11163  function setNewDevAddress(address payable dev) public onlyDev() {... */\n      pop\n      jump\t// out\n        /* \"contracts/Pool/Pool.sol\":14041:14300  function manualswap() external {... */\n    tag_124:\n        /* \"contracts/Pool/Pool.sol\":14106:14125  _developmentAddress */\n      0x0e\n      0x00\n      swap1\n      sload\n      swap1\n      0x0100\n      exp\n      swap1\n      div\n      0xffffffffffffffffffffffffffffffffffffffff\n      and\n        /* \"contracts/Pool/Pool.sol\":14090:14125  _msgSender() == _developmentAddress */\n      0xffffffffffffffffffffffffffffffffffffffff\n      and\n        /* \"contracts/Pool/Pool.sol\":14090:14102  _msgSender() */\n      tag_245\n        /* \"contracts/Pool/Pool.sol\":14090:14100  _msgSender */\n      tag_146\n        /* \"contracts/Pool/Pool.sol\":14090:14102  _msgSender() */\n      jump\t// in\n    tag_245:\n        /* \"contracts/Pool/Pool.sol\":14090:14125  _msgSender() == _developmentAddress */\n      0xffffffffffffffffffffffffffffffffffffffff\n      and\n      eq\n        /* \"contracts/Pool/Pool.sol\":14090:14162  _msgSender() == _developmentAddress || _msgSender() == _marketingAddress */\n      dup1\n      tag_246\n      jumpi\n      pop\n        /* \"contracts/Pool/Pool.sol\":14145:14162  _marketingAddress */\n      0x0f\n      0x00\n      swap1\n      sload\n      swap1\n      0x0100\n      exp\n      swap1\n      div\n      0xffffffffffffffffffffffffffffffffffffffff\n      and\n        /* \"contracts/Pool/Pool.sol\":14129:14162  _msgSender() == _marketingAddress */\n      0xffffffffffffffffffffffffffffffffffffffff\n      and\n        /* \"contracts/Pool/Pool.sol\":14129:14141  _msgSender() */\n      tag_247\n        /* \"contracts/Pool/Pool.sol\":14129:14139  _msgSender */\n      tag_146\n        /* \"contracts/Pool/Pool.sol\":14129:14141  _msgSender() */\n      jump\t// in\n    tag_247:\n        /* \"contracts/Pool/Pool.sol\":14129:14162  _msgSender() == _marketingAddress */\n      0xffffffffffffffffffffffffffffffffffffffff\n      and\n      eq\n        /* \"contracts/Pool/Pool.sol\":14090:14162  _msgSender() == _developmentAddress || _msgSender() == _marketingAddress */\n    tag_246:\n        /* \"contracts/Pool/Pool.sol\":14090:14189  _msgSender() == _developmentAddress || _msgSender() == _marketingAddress || _msgSender() == owner() */\n      dup1\n      tag_248\n      jumpi\n      pop\n        /* \"contracts/Pool/Pool.sol\":14182:14189  owner() */\n      tag_249\n        /* \"contracts/Pool/Pool.sol\":14182:14187  owner */\n      tag_102\n        /* \"contracts/Pool/Pool.sol\":14182:14189  owner() */\n      jump\t// in\n    tag_249:\n        /* \"contracts/Pool/Pool.sol\":14166:14189  _msgSender() == owner() */\n      0xffffffffffffffffffffffffffffffffffffffff\n      and\n        /* \"contracts/Pool/Pool.sol\":14166:14178  _msgSender() */\n      tag_250\n        /* \"contracts/Pool/Pool.sol\":14166:14176  _msgSender */\n      tag_146\n        /* \"contracts/Pool/Pool.sol\":14166:14178  _msgSender() */\n      jump\t// in\n    tag_250:\n        /* \"contracts/Pool/Pool.sol\":14166:14189  _msgSender() == owner() */\n      0xffffffffffffffffffffffffffffffffffffffff\n      and\n      eq\n        /* \"contracts/Pool/Pool.sol\":14090:14189  _msgSender() == _developmentAddress || _msgSender() == _marketingAddress || _msgSender() == owner() */\n    tag_248:\n        /* \"contracts/Pool/Pool.sol\":14082:14190  require(_msgSender() == _developmentAddress || _msgSender() == _marketingAddress || _msgSender() == owner()) */\n      tag_251\n      jumpi\n      0x00\n      dup1\n      revert\n    tag_251:\n        /* \"contracts/Pool/Pool.sol\":14200:14223  uint256 contractBalance */\n      0x00\n        /* \"contracts/Pool/Pool.sol\":14226:14250  balanceOf(address(this)) */\n      tag_252\n        /* \"contracts/Pool/Pool.sol\":14244:14248  this */\n      address\n        /* \"contracts/Pool/Pool.sol\":14226:14235  balanceOf */\n      tag_90\n        /* \"contracts/Pool/Pool.sol\":14226:14250  balanceOf(address(this)) */\n      jump\t// in\n    tag_252:\n        /* \"contracts/Pool/Pool.sol\":14200:14250  uint256 contractBalance = balanceOf(address(this)) */\n      swap1\n      pop\n        /* \"contracts/Pool/Pool.sol\":14260:14293  swapTokensForEth(contractBalance) */\n      tag_253\n        /* \"contracts/Pool/Pool.sol\":14277:14292  contractBalance */\n      dup2\n        /* \"contracts/Pool/Pool.sol\":14260:14276  swapTokensForEth */\n      tag_254\n        /* \"contracts/Pool/Pool.sol\":14260:14293  swapTokensForEth(contractBalance) */\n      jump\t// in\n    tag_253:\n        /* \"contracts/Pool/Pool.sol\":14072:14300  {... */\n      pop\n        /* \"contracts/Pool/Pool.sol\":14041:14300  function manualswap() external {... */\n      jump\t// out\n        /* \"contracts/Pool/Pool.sol\":15229:15459  function excludeMultipleAccountsFromFees(address[] calldata accounts, bool excluded) public onlyOwner {... */\n    tag_129:\n        /* \"contracts/Pool/Pool.sol\":3317:3329  _msgSender() */\n      tag_256\n        /* \"contracts/Pool/Pool.sol\":3317:3327  _msgSender */\n      tag_146\n        /* \"contracts/Pool/Pool.sol\":3317:3329  _msgSender() */\n      jump\t// in\n    tag_256:\n        /* \"contracts/Pool/Pool.sol\":3307:3329  _owner == _msgSender() */\n      0xffffffffffffffffffffffffffffffffffffffff\n      and\n        /* \"contracts/Pool/Pool.sol\":3307:3313  _owner */\n      0x00\n      dup1\n      sload\n      swap1\n      0x0100\n      exp\n      swap1\n      div\n      0xffffffffffffffffffffffffffffffffffffffff\n      and\n        /* \"contracts/Pool/Pool.sol\":3307:3329  _owner == _msgSender() */\n      0xffffffffffffffffffffffffffffffffffffffff\n      and\n      eq\n        /* \"contracts/Pool/Pool.sol\":3299:3357  require(_owner == _msgSender(), \"Caller is not the owner\") */\n      tag_257\n      jumpi\n      mload(0x40)\n      0x08c379a000000000000000000000000000000000000000000000000000000000\n      dup2\n      mstore\n      0x04\n      add\n      tag_258\n      swap1\n      tag_149\n      jump\t// in\n    tag_258:\n      mload(0x40)\n      dup1\n      swap2\n      sub\n      swap1\n      revert\n    tag_257:\n        /* \"contracts/Pool/Pool.sol\":15345:15354  uint256 i */\n      0x00\n        /* \"contracts/Pool/Pool.sol\":15341:15453  for(uint256 i = 0; i < accounts.length; i++) {... */\n    tag_260:\n        /* \"contracts/Pool/Pool.sol\":15364:15372  accounts */\n      dup4\n      dup4\n        /* \"contracts/Pool/Pool.sol\":15364:15379  accounts.length */\n      swap1\n      pop\n        /* \"contracts/Pool/Pool.sol\":15360:15361  i */\n      dup2\n        /* \"contracts/Pool/Pool.sol\":15360:15379  i < accounts.length */\n      lt\n        /* \"contracts/Pool/Pool.sol\":15341:15453  for(uint256 i = 0; i < accounts.length; i++) {... */\n      iszero\n      tag_261\n      jumpi\n        /* \"contracts/Pool/Pool.sol\":15434:15442  excluded */\n      dup2\n        /* \"contracts/Pool/Pool.sol\":15400:15418  _isExcludedFromFee */\n      0x05\n        /* \"contracts/Pool/Pool.sol\":15400:15431  _isExcludedFromFee[accounts[i]] */\n      0x00\n        /* \"contracts/Pool/Pool.sol\":15419:15427  accounts */\n      dup7\n      dup7\n        /* \"contracts/Pool/Pool.sol\":15428:15429  i */\n      dup6\n        /* \"contracts/Pool/Pool.sol\":15419:15430  accounts[i] */\n      dup2\n      dup2\n      lt\n      tag_263\n      jumpi\n      tag_264\n      tag_265\n      jump\t// in\n    tag_264:\n    tag_263:\n      swap1\n      pop\n      0x20\n      mul\n      add\n      0x20\n      dup2\n      add\n      swap1\n      tag_266\n      swap2\n      swap1\n      tag_89\n      jump\t// in\n    tag_266:\n        /* \"contracts/Pool/Pool.sol\":15400:15431  _isExcludedFromFee[accounts[i]] */\n      0xffffffffffffffffffffffffffffffffffffffff\n      and\n      0xffffffffffffffffffffffffffffffffffffffff\n      and\n      dup2\n      mstore\n      0x20\n      add\n      swap1\n      dup2\n      mstore\n      0x20\n      add\n      0x00\n      keccak256\n      0x00\n        /* \"contracts/Pool/Pool.sol\":15400:15442  _isExcludedFromFee[accounts[i]] = excluded */\n      0x0100\n      exp\n      dup2\n      sload\n      dup2\n      0xff\n      mul\n      not\n      and\n      swap1\n      dup4\n      iszero\n      iszero\n      mul\n      or\n      swap1\n      sstore\n      pop\n        /* \"contracts/Pool/Pool.sol\":15381:15384  i++ */\n      dup1\n      dup1\n      tag_267\n      swap1\n      tag_268\n      jump\t// in\n    tag_267:\n      swap2\n      pop\n      pop\n        /* \"contracts/Pool/Pool.sol\":15341:15453  for(uint256 i = 0; i < accounts.length; i++) {... */\n      jump(tag_260)\n    tag_261:\n      pop\n        /* \"contracts/Pool/Pool.sol\":15229:15459  function excludeMultipleAccountsFromFees(address[] calldata accounts, bool excluded) public onlyOwner {... */\n      pop\n      pop\n      pop\n      jump\t// out\n        /* \"contracts/Pool/Pool.sol\":6871:7012  function allowance(address owner, address spender) public view override returns (uint256) {... */\n    tag_134:\n        /* \"contracts/Pool/Pool.sol\":6952:6959  uint256 */\n      0x00\n        /* \"contracts/Pool/Pool.sol\":6978:6989  _allowances */\n      0x04\n        /* \"contracts/Pool/Pool.sol\":6978:6996  _allowances[owner] */\n      0x00\n        /* \"contracts/Pool/Pool.sol\":6990:6995  owner */\n      dup5\n        /* \"contracts/Pool/Pool.sol\":6978:6996  _allowances[owner] */\n      0xffffffffffffffffffffffffffffffffffffffff\n      and\n      0xffffffffffffffffffffffffffffffffffffffff\n      and\n      dup2\n      mstore\n      0x20\n      add\n      swap1\n      dup2\n      mstore\n      0x20\n      add\n      0x00\n      keccak256\n        /* \"contracts/Pool/Pool.sol\":6978:7005  _allowances[owner][spender] */\n      0x00\n        /* \"contracts/Pool/Pool.sol\":6997:7004  spender */\n      dup4\n        /* \"contracts/Pool/Pool.sol\":6978:7005  _allowances[owner][spender] */\n      0xffffffffffffffffffffffffffffffffffffffff\n      and\n      0xffffffffffffffffffffffffffffffffffffffff\n      and\n      dup2\n      mstore\n      0x20\n      add\n      swap1\n      dup2\n      mstore\n      0x20\n      add\n      0x00\n      keccak256\n      sload\n        /* \"contracts/Pool/Pool.sol\":6971:7005  return _allowances[owner][spender] */\n      swap1\n      pop\n        /* \"contracts/Pool/Pool.sol\":6871:7012  function allowance(address owner, address spender) public view override returns (uint256) {... */\n      swap3\n      swap2\n      pop\n      pop\n      jump\t// out\n        /* \"contracts/Pool/Pool.sol\":10651:10856  function rescueForeignTokens(address _tokenAddr, address _to, uint _amount) public onlyDev() {... */\n    tag_139:\n        /* \"contracts/Pool/Pool.sol\":6092:6104  _msgSender() */\n      tag_271\n        /* \"contracts/Pool/Pool.sol\":6092:6102  _msgSender */\n      tag_146\n        /* \"contracts/Pool/Pool.sol\":6092:6104  _msgSender() */\n      jump\t// in\n    tag_271:\n        /* \"contracts/Pool/Pool.sol\":6081:6104  owner() == _msgSender() */\n      0xffffffffffffffffffffffffffffffffffffffff\n      and\n        /* \"contracts/Pool/Pool.sol\":6081:6088  owner() */\n      tag_272\n        /* \"contracts/Pool/Pool.sol\":6081:6086  owner */\n      tag_102\n        /* \"contracts/Pool/Pool.sol\":6081:6088  owner() */\n      jump\t// in\n    tag_272:\n        /* \"contracts/Pool/Pool.sol\":6081:6104  owner() == _msgSender() */\n      0xffffffffffffffffffffffffffffffffffffffff\n      and\n      eq\n        /* \"contracts/Pool/Pool.sol\":6081:6143  owner() == _msgSender() || _developmentAddress == _msgSender() */\n      dup1\n      tag_273\n      jumpi\n      pop\n        /* \"contracts/Pool/Pool.sol\":6131:6143  _msgSender() */\n      tag_274\n        /* \"contracts/Pool/Pool.sol\":6131:6141  _msgSender */\n      tag_146\n        /* \"contracts/Pool/Pool.sol\":6131:6143  _msgSender() */\n      jump\t// in\n    tag_274:\n        /* \"contracts/Pool/Pool.sol\":6108:6143  _developmentAddress == _msgSender() */\n      0xffffffffffffffffffffffffffffffffffffffff\n      and\n        /* \"contracts/Pool/Pool.sol\":6108:6127  _developmentAddress */\n      0x0e\n      0x00\n      swap1\n      sload\n      swap1\n      0x0100\n      exp\n      swap1\n      div\n      0xffffffffffffffffffffffffffffffffffffffff\n      and\n        /* \"contracts/Pool/Pool.sol\":6108:6143  _developmentAddress == _msgSender() */\n      0xffffffffffffffffffffffffffffffffffffffff\n      and\n      eq\n        /* \"contracts/Pool/Pool.sol\":6081:6143  owner() == _msgSender() || _developmentAddress == _msgSender() */\n    tag_273:\n        /* \"contracts/Pool/Pool.sol\":6073:6169  require(owner() == _msgSender() || _developmentAddress == _msgSender(), \"Caller is not the dev\") */\n      tag_275\n      jumpi\n      mload(0x40)\n      0x08c379a000000000000000000000000000000000000000000000000000000000\n      dup2\n      mstore\n      0x04\n      add\n      tag_276\n      swap1\n      tag_185\n      jump\t// in\n    tag_276:\n      mload(0x40)\n      dup1\n      swap2\n      sub\n      swap1\n      revert\n    tag_275:\n        /* \"contracts/Pool/Pool.sol\":10785:10788  _to */\n      dup2\n        /* \"contracts/Pool/Pool.sol\":10759:10798  tokensRescued(_tokenAddr, _to, _amount) */\n      0xffffffffffffffffffffffffffffffffffffffff\n      and\n        /* \"contracts/Pool/Pool.sol\":10773:10783  _tokenAddr */\n      dup4\n        /* \"contracts/Pool/Pool.sol\":10759:10798  tokensRescued(_tokenAddr, _to, _amount) */\n      0xffffffffffffffffffffffffffffffffffffffff\n      and\n      0x47c33aa230eb5fd181505aa7befeaddd9b8a6f983989cea73a7868448c3a9ed9\n        /* \"contracts/Pool/Pool.sol\":10790:10797  _amount */\n      dup4\n        /* \"contracts/Pool/Pool.sol\":10759:10798  tokensRescued(_tokenAddr, _to, _amount) */\n      mload(0x40)\n      tag_278\n      swap2\n      swap1\n      tag_56\n      jump\t// in\n    tag_278:\n      mload(0x40)\n      dup1\n      swap2\n      sub\n      swap1\n      log3\n        /* \"contracts/Pool/Pool.sol\":10815:10825  _tokenAddr */\n      dup3\n        /* \"contracts/Pool/Pool.sol\":10809:10835  Token(_tokenAddr).transfer */\n      0xffffffffffffffffffffffffffffffffffffffff\n      and\n      0xa9059cbb\n        /* \"contracts/Pool/Pool.sol\":10836:10839  _to */\n      dup4\n        /* \"contracts/Pool/Pool.sol\":10841:10848  _amount */\n      dup4\n        /* \"contracts/Pool/Pool.sol\":10809:10849  Token(_tokenAddr).transfer(_to, _amount) */\n      mload(0x40)\n      dup4\n      0xffffffff\n      and\n      0xe0\n      shl\n      dup2\n      mstore\n      0x04\n      add\n      tag_279\n      swap3\n      swap2\n      swap1\n      tag_280\n      jump\t// in\n    tag_279:\n      0x20\n      mload(0x40)\n      dup1\n      dup4\n      sub\n      dup2\n      0x00\n      dup8\n      gas\n      call\n      iszero\n      dup1\n      iszero\n      tag_282\n      jumpi\n      returndatasize\n      0x00\n      dup1\n      returndatacopy\n      revert(0x00, returndatasize)\n    tag_282:\n      pop\n      pop\n      pop\n      pop\n      mload(0x40)\n      returndatasize\n      not(0x1f)\n      0x1f\n      dup3\n      add\n      and\n      dup3\n      add\n      dup1\n      0x40\n      mstore\n      pop\n      dup2\n      add\n      swap1\n      tag_283\n      swap2\n      swap1\n      tag_284\n      jump\t// in\n    tag_283:\n      pop\n        /* \"contracts/Pool/Pool.sol\":10651:10856  function rescueForeignTokens(address _tokenAddr, address _to, uint _amount) public onlyDev() {... */\n      pop\n      pop\n      pop\n      jump\t// out\n        /* \"contracts/Pool/Pool.sol\":3625:3782  function transferOwnership(address newOwner) public virtual onlyOwner {... */\n    tag_143:\n        /* \"contracts/Pool/Pool.sol\":3317:3329  _msgSender() */\n      tag_286\n        /* \"contracts/Pool/Pool.sol\":3317:3327  _msgSender */\n      tag_146\n        /* \"contracts/Pool/Pool.sol\":3317:3329  _msgSender() */\n      jump\t// in\n    tag_286:\n        /* \"contracts/Pool/Pool.sol\":3307:3329  _owner == _msgSender() */\n      0xffffffffffffffffffffffffffffffffffffffff\n      and\n        /* \"contracts/Pool/Pool.sol\":3307:3313  _owner */\n      0x00\n      dup1\n      sload\n      swap1\n      0x0100\n      exp\n      swap1\n      div\n      0xffffffffffffffffffffffffffffffffffffffff\n      and\n        /* \"contracts/Pool/Pool.sol\":3307:3329  _owner == _msgSender() */\n      0xffffffffffffffffffffffffffffffffffffffff\n      and\n      eq\n        /* \"contracts/Pool/Pool.sol\":3299:3357  require(_owner == _msgSender(), \"Caller is not the owner\") */\n      tag_287\n      jumpi\n      mload(0x40)\n      0x08c379a000000000000000000000000000000000000000000000000000000000\n      dup2\n      mstore\n      0x04\n      add\n      tag_288\n      swap1\n      tag_149\n      jump\t// in\n    tag_288:\n      mload(0x40)\n      dup1\n      swap2\n      sub\n      swap1\n      revert\n    tag_287:\n        /* \"contracts/Pool/Pool.sol\":3739:3747  newOwner */\n      dup1\n        /* \"contracts/Pool/Pool.sol\":3710:3748  OwnershipTransferred(_owner, newOwner) */\n      0xffffffffffffffffffffffffffffffffffffffff\n      and\n        /* \"contracts/Pool/Pool.sol\":3731:3737  _owner */\n      0x00\n      dup1\n      sload\n      swap1\n      0x0100\n      exp\n      swap1\n      div\n      0xffffffffffffffffffffffffffffffffffffffff\n      and\n        /* \"contracts/Pool/Pool.sol\":3710:3748  OwnershipTransferred(_owner, newOwner) */\n      0xffffffffffffffffffffffffffffffffffffffff\n      and\n      0x8be0079c531659141344cd1fd0a4f28419497f9722a3daafe3b4186f6b6457e0\n      mload(0x40)\n      mload(0x40)\n      dup1\n      swap2\n      sub\n      swap1\n      log3\n        /* \"contracts/Pool/Pool.sol\":3767:3775  newOwner */\n      dup1\n        /* \"contracts/Pool/Pool.sol\":3758:3764  _owner */\n      0x00\n      dup1\n        /* \"contracts/Pool/Pool.sol\":3758:3775  _owner = newOwner */\n      0x0100\n      exp\n      dup2\n      sload\n      dup2\n      0xffffffffffffffffffffffffffffffffffffffff\n      mul\n      not\n      and\n      swap1\n      dup4\n      0xffffffffffffffffffffffffffffffffffffffff\n      and\n      mul\n      or\n      swap1\n      sstore\n      pop\n        /* \"contracts/Pool/Pool.sol\":3625:3782  function transferOwnership(address newOwner) public virtual onlyOwner {... */\n      pop\n      jump\t// out\n        /* \"contracts/Pool/Pool.sol\":1721:1817  function _msgSender() internal view virtual returns (address) {... */\n    tag_146:\n        /* \"contracts/Pool/Pool.sol\":1774:1781  address */\n      0x00\n        /* \"contracts/Pool/Pool.sol\":1800:1810  msg.sender */\n      caller\n        /* \"contracts/Pool/Pool.sol\":1793:1810  return msg.sender */\n      swap1\n      pop\n        /* \"contracts/Pool/Pool.sol\":1721:1817  function _msgSender() internal view virtual returns (address) {... */\n      swap1\n      jump\t// out\n        /* \"contracts/Pool/Pool.sol\":7753:8083  function _approve(address owner, address spender, uint256 amount) private {... */\n    tag_167:\n        /* \"contracts/Pool/Pool.sol\":7862:7863  0 */\n      0x00\n        /* \"contracts/Pool/Pool.sol\":7845:7864  owner != address(0) */\n      0xffffffffffffffffffffffffffffffffffffffff\n      and\n        /* \"contracts/Pool/Pool.sol\":7845:7850  owner */\n      dup4\n        /* \"contracts/Pool/Pool.sol\":7845:7864  owner != address(0) */\n      0xffffffffffffffffffffffffffffffffffffffff\n      and\n      sub\n        /* \"contracts/Pool/Pool.sol\":7837:7905  require(owner != address(0), \"ERC20: approve from the zero address\") */\n      tag_292\n      jumpi\n      mload(0x40)\n      0x08c379a000000000000000000000000000000000000000000000000000000000\n      dup2\n      mstore\n      0x04\n      add\n      tag_293\n      swap1\n      tag_294\n      jump\t// in\n    tag_293:\n      mload(0x40)\n      dup1\n      swap2\n      sub\n      swap1\n      revert\n    tag_292:\n        /* \"contracts/Pool/Pool.sol\":7942:7943  0 */\n      0x00\n        /* \"contracts/Pool/Pool.sol\":7923:7944  spender != address(0) */\n      0xffffffffffffffffffffffffffffffffffffffff\n      and\n        /* \"contracts/Pool/Pool.sol\":7923:7930  spender */\n      dup3\n        /* \"contracts/Pool/Pool.sol\":7923:7944  spender != address(0) */\n      0xffffffffffffffffffffffffffffffffffffffff\n      and\n      sub\n        /* \"contracts/Pool/Pool.sol\":7915:7983  require(spender != address(0), \"ERC20: approve to the zero address\") */\n      tag_295\n      jumpi\n      mload(0x40)\n      0x08c379a000000000000000000000000000000000000000000000000000000000\n      dup2\n      mstore\n      0x04\n      add\n      tag_296\n      swap1\n      tag_297\n      jump\t// in\n    tag_296:\n      mload(0x40)\n      dup1\n      swap2\n      sub\n      swap1\n      revert\n    tag_295:\n        /* \"contracts/Pool/Pool.sol\":8023:8029  amount */\n      dup1\n        /* \"contracts/Pool/Pool.sol\":7993:8004  _allowances */\n      0x04\n        /* \"contracts/Pool/Pool.sol\":7993:8011  _allowances[owner] */\n      0x00\n        /* \"contracts/Pool/Pool.sol\":8005:8010  owner */\n      dup6\n        /* \"contracts/Pool/Pool.sol\":7993:8011  _allowances[owner] */\n      0xffffffffffffffffffffffffffffffffffffffff\n      and\n      0xffffffffffffffffffffffffffffffffffffffff\n      and\n      dup2\n      mstore\n      0x20\n      add\n      swap1\n      dup2\n      mstore\n      0x20\n      add\n      0x00\n      keccak256\n        /* \"contracts/Pool/Pool.sol\":7993:8020  _allowances[owner][spender] */\n      0x00\n        /* \"contracts/Pool/Pool.sol\":8012:8019  spender */\n      dup5\n        /* \"contracts/Pool/Pool.sol\":7993:8020  _allowances[owner][spender] */\n      0xffffffffffffffffffffffffffffffffffffffff\n      and\n      0xffffffffffffffffffffffffffffffffffffffff\n      and\n      dup2\n      mstore\n      0x20\n      add\n      swap1\n      dup2\n      mstore\n      0x20\n      add\n      0x00\n      keccak256\n        /* \"contracts/Pool/Pool.sol\":7993:8029  _allowances[owner][spender] = amount */\n      dup2\n      swap1\n      sstore\n      pop\n        /* \"contracts/Pool/Pool.sol\":8060:8067  spender */\n      dup2\n        /* \"contracts/Pool/Pool.sol\":8044:8076  Approval(owner, spender, amount) */\n      0xffffffffffffffffffffffffffffffffffffffff\n      and\n        /* \"contracts/Pool/Pool.sol\":8053:8058  owner */\n      dup4\n        /* \"contracts/Pool/Pool.sol\":8044:8076  Approval(owner, spender, amount) */\n      0xffffffffffffffffffffffffffffffffffffffff\n      and\n      0x8c5be1e5ebec7d5bd14f71427d1e84f3dd0314c0f7b2291e5b200ac8c7c3b925\n        /* \"contracts/Pool/Pool.sol\":8069:8075  amount */\n      dup4\n        /* \"contracts/Pool/Pool.sol\":8044:8076  Approval(owner, spender, amount) */\n      mload(0x40)\n      tag_298\n      swap2\n      swap1\n      tag_56\n      jump\t// in\n    tag_298:\n      mload(0x40)\n      dup1\n      swap2\n      sub\n      swap1\n      log3\n        /* \"contracts/Pool/Pool.sol\":7753:8083  function _approve(address owner, address spender, uint256 amount) private {... */\n      pop\n      pop\n      pop\n      jump\t// out\n        /* \"contracts/Pool/Pool.sol\":8089:9574  function _transfer(address from, address to, uint256 amount) private {... */\n    tag_171:\n        /* \"contracts/Pool/Pool.sol\":8192:8193  0 */\n      0x00\n        /* \"contracts/Pool/Pool.sol\":8176:8194  from != address(0) */\n      0xffffffffffffffffffffffffffffffffffffffff\n      and\n        /* \"contracts/Pool/Pool.sol\":8176:8180  from */\n      dup4\n        /* \"contracts/Pool/Pool.sol\":8176:8194  from != address(0) */\n      0xffffffffffffffffffffffffffffffffffffffff\n      and\n      sub\n        /* \"contracts/Pool/Pool.sol\":8168:8236  require(from != address(0), \"ERC20: transfer from the zero address\") */\n      tag_300\n      jumpi\n      mload(0x40)\n      0x08c379a000000000000000000000000000000000000000000000000000000000\n      dup2\n      mstore\n      0x04\n      add\n      tag_301\n      swap1\n      tag_302\n      jump\t// in\n    tag_301:\n      mload(0x40)\n      dup1\n      swap2\n      sub\n      swap1\n      revert\n    tag_300:\n        /* \"contracts/Pool/Pool.sol\":8268:8269  0 */\n      0x00\n        /* \"contracts/Pool/Pool.sol\":8254:8270  to != address(0) */\n      0xffffffffffffffffffffffffffffffffffffffff\n      and\n        /* \"contracts/Pool/Pool.sol\":8254:8256  to */\n      dup3\n        /* \"contracts/Pool/Pool.sol\":8254:8270  to != address(0) */\n      0xffffffffffffffffffffffffffffffffffffffff\n      and\n      sub\n        /* \"contracts/Pool/Pool.sol\":8246:8310  require(to != address(0), \"ERC20: transfer to the zero address\") */\n      tag_303\n      jumpi\n      mload(0x40)\n      0x08c379a000000000000000000000000000000000000000000000000000000000\n      dup2\n      mstore\n      0x04\n      add\n      tag_304\n      swap1\n      tag_305\n      jump\t// in\n    tag_304:\n      mload(0x40)\n      dup1\n      swap2\n      sub\n      swap1\n      revert\n    tag_303:\n        /* \"contracts/Pool/Pool.sol\":8337:8338  0 */\n      0x00\n        /* \"contracts/Pool/Pool.sol\":8328:8334  amount */\n      dup2\n        /* \"contracts/Pool/Pool.sol\":8328:8338  amount > 0 */\n      gt\n        /* \"contracts/Pool/Pool.sol\":8320:8384  require(amount > 0, \"Transfer amount must be greater than zero\") */\n      tag_306\n      jumpi\n      mload(0x40)\n      0x08c379a000000000000000000000000000000000000000000000000000000000\n      dup2\n      mstore\n      0x04\n      add\n      tag_307\n      swap1\n      tag_308\n      jump\t// in\n    tag_307:\n      mload(0x40)\n      dup1\n      swap2\n      sub\n      swap1\n      revert\n    tag_306:\n        /* \"contracts/Pool/Pool.sol\":8415:8416  0 */\n      0x00\n        /* \"contracts/Pool/Pool.sol\":8403:8412  _redisFee */\n      0x0c\n        /* \"contracts/Pool/Pool.sol\":8403:8416  _redisFee = 0 */\n      dup2\n      swap1\n      sstore\n      pop\n        /* \"contracts/Pool/Pool.sol\":8436:8437  0 */\n      0x00\n        /* \"contracts/Pool/Pool.sol\":8426:8433  _taxFee */\n      0x0d\n        /* \"contracts/Pool/Pool.sol\":8426:8437  _taxFee = 0 */\n      dup2\n      swap1\n      sstore\n      pop\n        /* \"contracts/Pool/Pool.sol\":8468:8475  owner() */\n      tag_309\n        /* \"contracts/Pool/Pool.sol\":8468:8473  owner */\n      tag_102\n        /* \"contracts/Pool/Pool.sol\":8468:8475  owner() */\n      jump\t// in\n    tag_309:\n        /* \"contracts/Pool/Pool.sol\":8460:8475  from != owner() */\n      0xffffffffffffffffffffffffffffffffffffffff\n      and\n        /* \"contracts/Pool/Pool.sol\":8460:8464  from */\n      dup4\n        /* \"contracts/Pool/Pool.sol\":8460:8475  from != owner() */\n      0xffffffffffffffffffffffffffffffffffffffff\n      and\n      eq\n      iszero\n        /* \"contracts/Pool/Pool.sol\":8460:8492  from != owner() && to != owner() */\n      dup1\n      iszero\n      tag_310\n      jumpi\n      pop\n        /* \"contracts/Pool/Pool.sol\":8485:8492  owner() */\n      tag_311\n        /* \"contracts/Pool/Pool.sol\":8485:8490  owner */\n      tag_102\n        /* \"contracts/Pool/Pool.sol\":8485:8492  owner() */\n      jump\t// in\n    tag_311:\n        /* \"contracts/Pool/Pool.sol\":8479:8492  to != owner() */\n      0xffffffffffffffffffffffffffffffffffffffff\n      and\n        /* \"contracts/Pool/Pool.sol\":8479:8481  to */\n      dup3\n        /* \"contracts/Pool/Pool.sol\":8479:8492  to != owner() */\n      0xffffffffffffffffffffffffffffffffffffffff\n      and\n      eq\n      iszero\n        /* \"contracts/Pool/Pool.sol\":8460:8492  from != owner() && to != owner() */\n    tag_310:\n        /* \"contracts/Pool/Pool.sol\":8456:9527  if (from != owner() && to != owner()) {... */\n      iszero\n      tag_312\n      jumpi\n        /* \"contracts/Pool/Pool.sol\":8521:8549  uint256 contractTokenBalance */\n      0x00\n        /* \"contracts/Pool/Pool.sol\":8552:8576  balanceOf(address(this)) */\n      tag_313\n        /* \"contracts/Pool/Pool.sol\":8570:8574  this */\n      address\n        /* \"contracts/Pool/Pool.sol\":8552:8561  balanceOf */\n      tag_90\n        /* \"contracts/Pool/Pool.sol\":8552:8576  balanceOf(address(this)) */\n      jump\t// in\n    tag_313:\n        /* \"contracts/Pool/Pool.sol\":8521:8576  uint256 contractTokenBalance = balanceOf(address(this)) */\n      swap1\n      pop\n        /* \"contracts/Pool/Pool.sol\":8595:8601  inSwap */\n      0x12\n      0x14\n      swap1\n      sload\n      swap1\n      0x0100\n      exp\n      swap1\n      div\n      0xff\n      and\n        /* \"contracts/Pool/Pool.sol\":8594:8601  !inSwap */\n      iszero\n        /* \"contracts/Pool/Pool.sol\":8594:8626  !inSwap && from != uniswapV2Pair */\n      dup1\n      iszero\n      tag_314\n      jumpi\n      pop\n        /* \"contracts/Pool/Pool.sol\":8613:8626  uniswapV2Pair */\n      0x12\n      0x00\n      swap1\n      sload\n      swap1\n      0x0100\n      exp\n      swap1\n      div\n      0xffffffffffffffffffffffffffffffffffffffff\n      and\n        /* \"contracts/Pool/Pool.sol\":8605:8626  from != uniswapV2Pair */\n      0xffffffffffffffffffffffffffffffffffffffff\n      and\n        /* \"contracts/Pool/Pool.sol\":8605:8609  from */\n      dup5\n        /* \"contracts/Pool/Pool.sol\":8605:8626  from != uniswapV2Pair */\n      0xffffffffffffffffffffffffffffffffffffffff\n      and\n      eq\n      iszero\n        /* \"contracts/Pool/Pool.sol\":8594:8626  !inSwap && from != uniswapV2Pair */\n    tag_314:\n        /* \"contracts/Pool/Pool.sol\":8594:8641  !inSwap && from != uniswapV2Pair && swapEnabled */\n      dup1\n      iszero\n      tag_315\n      jumpi\n      pop\n        /* \"contracts/Pool/Pool.sol\":8630:8641  swapEnabled */\n      0x12\n      0x15\n      swap1\n      sload\n      swap1\n      0x0100\n      exp\n      swap1\n      div\n      0xff\n      and\n        /* \"contracts/Pool/Pool.sol\":8594:8641  !inSwap && from != uniswapV2Pair && swapEnabled */\n    tag_315:\n        /* \"contracts/Pool/Pool.sol\":8594:8669  !inSwap && from != uniswapV2Pair && swapEnabled && contractTokenBalance > 0 */\n      dup1\n      iszero\n      tag_316\n      jumpi\n      pop\n        /* \"contracts/Pool/Pool.sol\":8668:8669  0 */\n      0x00\n        /* \"contracts/Pool/Pool.sol\":8645:8665  contractTokenBalance */\n      dup2\n        /* \"contracts/Pool/Pool.sol\":8645:8669  contractTokenBalance > 0 */\n      gt\n        /* \"contracts/Pool/Pool.sol\":8594:8669  !inSwap && from != uniswapV2Pair && swapEnabled && contractTokenBalance > 0 */\n    tag_316:\n        /* \"contracts/Pool/Pool.sol\":8590:8930  if (!inSwap && from != uniswapV2Pair && swapEnabled && contractTokenBalance > 0) {... */\n      iszero\n      tag_317\n      jumpi\n        /* \"contracts/Pool/Pool.sol\":8689:8727  swapTokensForEth(contractTokenBalance) */\n      tag_318\n        /* \"contracts/Pool/Pool.sol\":8706:8726  contractTokenBalance */\n      dup2\n        /* \"contracts/Pool/Pool.sol\":8689:8705  swapTokensForEth */\n      tag_254\n        /* \"contracts/Pool/Pool.sol\":8689:8727  swapTokensForEth(contractTokenBalance) */\n      jump\t// in\n    tag_318:\n        /* \"contracts/Pool/Pool.sol\":8745:8771  uint256 contractETHBalance */\n      0x00\n        /* \"contracts/Pool/Pool.sol\":8774:8795  address(this).balance */\n      selfbalance\n        /* \"contracts/Pool/Pool.sol\":8745:8795  uint256 contractETHBalance = address(this).balance */\n      swap1\n      pop\n        /* \"contracts/Pool/Pool.sol\":8837:8838  0 */\n      0x00\n        /* \"contracts/Pool/Pool.sol\":8816:8834  contractETHBalance */\n      dup2\n        /* \"contracts/Pool/Pool.sol\":8816:8838  contractETHBalance > 0 */\n      gt\n        /* \"contracts/Pool/Pool.sol\":8813:8916  if(contractETHBalance > 0) {... */\n      iszero\n      tag_319\n      jumpi\n        /* \"contracts/Pool/Pool.sol\":8862:8897  sendETHToFee(address(this).balance) */\n      tag_320\n        /* \"contracts/Pool/Pool.sol\":8875:8896  address(this).balance */\n      selfbalance\n        /* \"contracts/Pool/Pool.sol\":8862:8874  sendETHToFee */\n      tag_196\n        /* \"contracts/Pool/Pool.sol\":8862:8897  sendETHToFee(address(this).balance) */\n      jump\t// in\n    tag_320:\n        /* \"contracts/Pool/Pool.sol\":8813:8916  if(contractETHBalance > 0) {... */\n    tag_319:\n        /* \"contracts/Pool/Pool.sol\":8671:8930  {... */\n      pop\n        /* \"contracts/Pool/Pool.sol\":8590:8930  if (!inSwap && from != uniswapV2Pair && swapEnabled && contractTokenBalance > 0) {... */\n    tag_317:\n        /* \"contracts/Pool/Pool.sol\":8967:8980  uniswapV2Pair */\n      0x12\n      0x00\n      swap1\n      sload\n      swap1\n      0x0100\n      exp\n      swap1\n      div\n      0xffffffffffffffffffffffffffffffffffffffff\n      and\n        /* \"contracts/Pool/Pool.sol\":8959:8980  from == uniswapV2Pair */\n      0xffffffffffffffffffffffffffffffffffffffff\n      and\n        /* \"contracts/Pool/Pool.sol\":8959:8963  from */\n      dup5\n        /* \"contracts/Pool/Pool.sol\":8959:8980  from == uniswapV2Pair */\n      0xffffffffffffffffffffffffffffffffffffffff\n      and\n      eq\n        /* \"contracts/Pool/Pool.sol\":8959:9014  from == uniswapV2Pair && to != address(uniswapV2Router) */\n      dup1\n      iszero\n      tag_321\n      jumpi\n      pop\n        /* \"contracts/Pool/Pool.sol\":8998:9013  uniswapV2Router */\n      0x10\n      0x00\n      swap1\n      sload\n      swap1\n      0x0100\n      exp\n      swap1\n      div\n      0xffffffffffffffffffffffffffffffffffffffff\n      and\n        /* \"contracts/Pool/Pool.sol\":8984:9014  to != address(uniswapV2Router) */\n      0xffffffffffffffffffffffffffffffffffffffff\n      and\n        /* \"contracts/Pool/Pool.sol\":8984:8986  to */\n      dup4\n        /* \"contracts/Pool/Pool.sol\":8984:9014  to != address(uniswapV2Router) */\n      0xffffffffffffffffffffffffffffffffffffffff\n      and\n      eq\n      iszero\n        /* \"contracts/Pool/Pool.sol\":8959:9014  from == uniswapV2Pair && to != address(uniswapV2Router) */\n    tag_321:\n        /* \"contracts/Pool/Pool.sol\":8956:9115  if(from == uniswapV2Pair && to != address(uniswapV2Router)) {... */\n      iszero\n      tag_322\n      jumpi\n        /* \"contracts/Pool/Pool.sol\":9046:9060  _redisFeeOnBuy */\n      sload(0x08)\n        /* \"contracts/Pool/Pool.sol\":9034:9043  _redisFee */\n      0x0c\n        /* \"contracts/Pool/Pool.sol\":9034:9060  _redisFee = _redisFeeOnBuy */\n      dup2\n      swap1\n      sstore\n      pop\n        /* \"contracts/Pool/Pool.sol\":9088:9100  _taxFeeOnBuy */\n      sload(0x09)\n        /* \"contracts/Pool/Pool.sol\":9078:9085  _taxFee */\n      0x0d\n        /* \"contracts/Pool/Pool.sol\":9078:9100  _taxFee = _taxFeeOnBuy */\n      dup2\n      swap1\n      sstore\n      pop\n        /* \"contracts/Pool/Pool.sol\":8956:9115  if(from == uniswapV2Pair && to != address(uniswapV2Router)) {... */\n    tag_322:\n        /* \"contracts/Pool/Pool.sol\":9143:9156  uniswapV2Pair */\n      0x12\n      0x00\n      swap1\n      sload\n      swap1\n      0x0100\n      exp\n      swap1\n      div\n      0xffffffffffffffffffffffffffffffffffffffff\n      and\n        /* \"contracts/Pool/Pool.sol\":9137:9156  to == uniswapV2Pair */\n      0xffffffffffffffffffffffffffffffffffffffff\n      and\n        /* \"contracts/Pool/Pool.sol\":9137:9139  to */\n      dup4\n        /* \"contracts/Pool/Pool.sol\":9137:9156  to == uniswapV2Pair */\n      0xffffffffffffffffffffffffffffffffffffffff\n      and\n      eq\n        /* \"contracts/Pool/Pool.sol\":9137:9192  to == uniswapV2Pair && from != address(uniswapV2Router) */\n      dup1\n      iszero\n      tag_323\n      jumpi\n      pop\n        /* \"contracts/Pool/Pool.sol\":9176:9191  uniswapV2Router */\n      0x10\n      0x00\n      swap1\n      sload\n      swap1\n      0x0100\n      exp\n      swap1\n      div\n      0xffffffffffffffffffffffffffffffffffffffff\n      and\n        /* \"contracts/Pool/Pool.sol\":9160:9192  from != address(uniswapV2Router) */\n      0xffffffffffffffffffffffffffffffffffffffff\n      and\n        /* \"contracts/Pool/Pool.sol\":9160:9164  from */\n      dup5\n        /* \"contracts/Pool/Pool.sol\":9160:9192  from != address(uniswapV2Router) */\n      0xffffffffffffffffffffffffffffffffffffffff\n      and\n      eq\n      iszero\n        /* \"contracts/Pool/Pool.sol\":9137:9192  to == uniswapV2Pair && from != address(uniswapV2Router) */\n    tag_323:\n        /* \"contracts/Pool/Pool.sol\":9133:9295  if (to == uniswapV2Pair && from != address(uniswapV2Router)) {... */\n      iszero\n      tag_324\n      jumpi\n        /* \"contracts/Pool/Pool.sol\":9224:9239  _redisFeeOnSell */\n      sload(0x0a)\n        /* \"contracts/Pool/Pool.sol\":9212:9221  _redisFee */\n      0x0c\n        /* \"contracts/Pool/Pool.sol\":9212:9239  _redisFee = _redisFeeOnSell */\n      dup2\n      swap1\n      sstore\n      pop\n        /* \"contracts/Pool/Pool.sol\":9267:9280  _taxFeeOnSell */\n      sload(0x0b)\n        /* \"contracts/Pool/Pool.sol\":9257:9264  _taxFee */\n      0x0d\n        /* \"contracts/Pool/Pool.sol\":9257:9280  _taxFee = _taxFeeOnSell */\n      dup2\n      swap1\n      sstore\n      pop\n        /* \"contracts/Pool/Pool.sol\":9133:9295  if (to == uniswapV2Pair && from != address(uniswapV2Router)) {... */\n    tag_324:\n        /* \"contracts/Pool/Pool.sol\":9326:9344  _isExcludedFromFee */\n      0x05\n        /* \"contracts/Pool/Pool.sol\":9326:9350  _isExcludedFromFee[from] */\n      0x00\n        /* \"contracts/Pool/Pool.sol\":9345:9349  from */\n      dup6\n        /* \"contracts/Pool/Pool.sol\":9326:9350  _isExcludedFromFee[from] */\n      0xffffffffffffffffffffffffffffffffffffffff\n      and\n      0xffffffffffffffffffffffffffffffffffffffff\n      and\n      dup2\n      mstore\n      0x20\n      add\n      swap1\n      dup2\n      mstore\n      0x20\n      add\n      0x00\n      keccak256\n      0x00\n      swap1\n      sload\n      swap1\n      0x0100\n      exp\n      swap1\n      div\n      0xff\n      and\n        /* \"contracts/Pool/Pool.sol\":9326:9376  _isExcludedFromFee[from] || _isExcludedFromFee[to] */\n      dup1\n      tag_325\n      jumpi\n      pop\n        /* \"contracts/Pool/Pool.sol\":9354:9372  _isExcludedFromFee */\n      0x05\n        /* \"contracts/Pool/Pool.sol\":9354:9376  _isExcludedFromFee[to] */\n      0x00\n        /* \"contracts/Pool/Pool.sol\":9373:9375  to */\n      dup5\n        /* \"contracts/Pool/Pool.sol\":9354:9376  _isExcludedFromFee[to] */\n      0xffffffffffffffffffffffffffffffffffffffff\n      and\n      0xffffffffffffffffffffffffffffffffffffffff\n      and\n      dup2\n      mstore\n      0x20\n      add\n      swap1\n      dup2\n      mstore\n      0x20\n      add\n      0x00\n      keccak256\n      0x00\n      swap1\n      sload\n      swap1\n      0x0100\n      exp\n      swap1\n      div\n      0xff\n      and\n        /* \"contracts/Pool/Pool.sol\":9326:9376  _isExcludedFromFee[from] || _isExcludedFromFee[to] */\n    tag_325:\n        /* \"contracts/Pool/Pool.sol\":9325:9427  (_isExcludedFromFee[from] || _isExcludedFromFee[to]) || (from != uniswapV2Pair && to != uniswapV2Pair) */\n      dup1\n      tag_326\n      jumpi\n      pop\n        /* \"contracts/Pool/Pool.sol\":9390:9403  uniswapV2Pair */\n      0x12\n      0x00\n      swap1\n      sload\n      swap1\n      0x0100\n      exp\n      swap1\n      div\n      0xffffffffffffffffffffffffffffffffffffffff\n      and\n        /* \"contracts/Pool/Pool.sol\":9382:9403  from != uniswapV2Pair */\n      0xffffffffffffffffffffffffffffffffffffffff\n      and\n        /* \"contracts/Pool/Pool.sol\":9382:9386  from */\n      dup5\n        /* \"contracts/Pool/Pool.sol\":9382:9403  from != uniswapV2Pair */\n      0xffffffffffffffffffffffffffffffffffffffff\n      and\n      eq\n      iszero\n        /* \"contracts/Pool/Pool.sol\":9382:9426  from != uniswapV2Pair && to != uniswapV2Pair */\n      dup1\n      iszero\n      tag_327\n      jumpi\n      pop\n        /* \"contracts/Pool/Pool.sol\":9413:9426  uniswapV2Pair */\n      0x12\n      0x00\n      swap1\n      sload\n      swap1\n      0x0100\n      exp\n      swap1\n      div\n      0xffffffffffffffffffffffffffffffffffffffff\n      and\n        /* \"contracts/Pool/Pool.sol\":9407:9426  to != uniswapV2Pair */\n      0xffffffffffffffffffffffffffffffffffffffff\n      and\n        /* \"contracts/Pool/Pool.sol\":9407:9409  to */\n      dup4\n        /* \"contracts/Pool/Pool.sol\":9407:9426  to != uniswapV2Pair */\n      0xffffffffffffffffffffffffffffffffffffffff\n      and\n      eq\n      iszero\n        /* \"contracts/Pool/Pool.sol\":9382:9426  from != uniswapV2Pair && to != uniswapV2Pair */\n    tag_327:\n        /* \"contracts/Pool/Pool.sol\":9325:9427  (_isExcludedFromFee[from] || _isExcludedFromFee[to]) || (from != uniswapV2Pair && to != uniswapV2Pair) */\n    tag_326:\n        /* \"contracts/Pool/Pool.sol\":9321:9504  if ((_isExcludedFromFee[from] || _isExcludedFromFee[to]) || (from != uniswapV2Pair && to != uniswapV2Pair)) {... */\n      iszero\n      tag_328\n      jumpi\n        /* \"contracts/Pool/Pool.sol\":9459:9460  0 */\n      0x00\n        /* \"contracts/Pool/Pool.sol\":9447:9456  _redisFee */\n      0x0c\n        /* \"contracts/Pool/Pool.sol\":9447:9460  _redisFee = 0 */\n      dup2\n      swap1\n      sstore\n      pop\n        /* \"contracts/Pool/Pool.sol\":9488:9489  0 */\n      0x00\n        /* \"contracts/Pool/Pool.sol\":9478:9485  _taxFee */\n      0x0d\n        /* \"contracts/Pool/Pool.sol\":9478:9489  _taxFee = 0 */\n      dup2\n      swap1\n      sstore\n      pop\n        /* \"contracts/Pool/Pool.sol\":9321:9504  if ((_isExcludedFromFee[from] || _isExcludedFromFee[to]) || (from != uniswapV2Pair && to != uniswapV2Pair)) {... */\n    tag_328:\n        /* \"contracts/Pool/Pool.sol\":8494:9527  {... */\n      pop\n        /* \"contracts/Pool/Pool.sol\":8456:9527  if (from != owner() && to != owner()) {... */\n    tag_312:\n        /* \"contracts/Pool/Pool.sol\":9537:9567  _tokenTransfer(from,to,amount) */\n      tag_329\n        /* \"contracts/Pool/Pool.sol\":9552:9556  from */\n      dup4\n        /* \"contracts/Pool/Pool.sol\":9557:9559  to */\n      dup4\n        /* \"contracts/Pool/Pool.sol\":9560:9566  amount */\n      dup4\n        /* \"contracts/Pool/Pool.sol\":9537:9551  _tokenTransfer */\n      tag_330\n        /* \"contracts/Pool/Pool.sol\":9537:9567  _tokenTransfer(from,to,amount) */\n      jump\t// in\n    tag_329:\n        /* \"contracts/Pool/Pool.sol\":8089:9574  function _transfer(address from, address to, uint256 amount) private {... */\n      pop\n      pop\n      pop\n      jump\t// out\n        /* \"contracts/Pool/Pool.sol\":2167:2353  function sub(uint256 a, uint256 b, string memory errorMessage) internal pure returns (uint256) {... */\n    tag_176:\n        /* \"contracts/Pool/Pool.sol\":2253:2260  uint256 */\n      0x00\n        /* \"contracts/Pool/Pool.sol\":2285:2286  a */\n      dup4\n        /* \"contracts/Pool/Pool.sol\":2280:2281  b */\n      dup4\n        /* \"contracts/Pool/Pool.sol\":2280:2286  b <= a */\n      gt\n      iszero\n        /* \"contracts/Pool/Pool.sol\":2288:2300  errorMessage */\n      dup3\n        /* \"contracts/Pool/Pool.sol\":2272:2301  require(b <= a, errorMessage) */\n      swap1\n      tag_332\n      jumpi\n      mload(0x40)\n      0x08c379a000000000000000000000000000000000000000000000000000000000\n      dup2\n      mstore\n      0x04\n      add\n      tag_333\n      swap2\n      swap1\n      tag_39\n      jump\t// in\n    tag_333:\n      mload(0x40)\n      dup1\n      swap2\n      sub\n      swap1\n      revert\n    tag_332:\n      pop\n        /* \"contracts/Pool/Pool.sol\":2311:2320  uint256 c */\n      0x00\n        /* \"contracts/Pool/Pool.sol\":2327:2328  b */\n      dup4\n        /* \"contracts/Pool/Pool.sol\":2323:2324  a */\n      dup6\n        /* \"contracts/Pool/Pool.sol\":2323:2328  a - b */\n      tag_334\n      swap2\n      swap1\n      tag_335\n      jump\t// in\n    tag_334:\n        /* \"contracts/Pool/Pool.sol\":2311:2328  uint256 c = a - b */\n      swap1\n      pop\n        /* \"contracts/Pool/Pool.sol\":2345:2346  c */\n      dup1\n        /* \"contracts/Pool/Pool.sol\":2338:2346  return c */\n      swap2\n      pop\n      pop\n        /* \"contracts/Pool/Pool.sol\":2167:2353  function sub(uint256 a, uint256 b, string memory errorMessage) internal pure returns (uint256) {... */\n      swap4\n      swap3\n      pop\n      pop\n      pop\n      jump\t// out\n        /* \"contracts/Pool/Pool.sol\":10253:10410  function sendETHToFee(uint256 amount) private {... */\n    tag_196:\n        /* \"contracts/Pool/Pool.sol\":10309:10328  _developmentAddress */\n      0x0e\n      0x00\n      swap1\n      sload\n      swap1\n      0x0100\n      exp\n      swap1\n      div\n      0xffffffffffffffffffffffffffffffffffffffff\n      and\n        /* \"contracts/Pool/Pool.sol\":10309:10337  _developmentAddress.transfer */\n      0xffffffffffffffffffffffffffffffffffffffff\n      and\n        /* \"contracts/Pool/Pool.sol\":10309:10352  _developmentAddress.transfer(amount.div(2)) */\n      0x08fc\n        /* \"contracts/Pool/Pool.sol\":10338:10351  amount.div(2) */\n      tag_337\n        /* \"contracts/Pool/Pool.sol\":10349:10350  2 */\n      0x02\n        /* \"contracts/Pool/Pool.sol\":10338:10344  amount */\n      dup5\n        /* \"contracts/Pool/Pool.sol\":10338:10348  amount.div */\n      tag_338\n      swap1\n        /* \"contracts/Pool/Pool.sol\":10338:10351  amount.div(2) */\n      swap2\n      swap1\n      0xffffffff\n      and\n      jump\t// in\n    tag_337:\n        /* \"contracts/Pool/Pool.sol\":10309:10352  _developmentAddress.transfer(amount.div(2)) */\n      swap1\n      dup2\n      iszero\n      mul\n      swap1\n      mload(0x40)\n      0x00\n      mload(0x40)\n      dup1\n      dup4\n      sub\n      dup2\n      dup6\n      dup9\n      dup9\n      call\n      swap4\n      pop\n      pop\n      pop\n      pop\n      iszero\n      dup1\n      iszero\n      tag_340\n      jumpi\n      returndatasize\n      0x00\n      dup1\n      returndatacopy\n      revert(0x00, returndatasize)\n    tag_340:\n      pop\n        /* \"contracts/Pool/Pool.sol\":10362:10379  _marketingAddress */\n      0x0f\n      0x00\n      swap1\n      sload\n      swap1\n      0x0100\n      exp\n      swap1\n      div\n      0xffffffffffffffffffffffffffffffffffffffff\n      and\n        /* \"contracts/Pool/Pool.sol\":10362:10388  _marketingAddress.transfer */\n      0xffffffffffffffffffffffffffffffffffffffff\n      and\n        /* \"contracts/Pool/Pool.sol\":10362:10403  _marketingAddress.transfer(amount.div(2)) */\n      0x08fc\n        /* \"contracts/Pool/Pool.sol\":10389:10402  amount.div(2) */\n      tag_341\n        /* \"contracts/Pool/Pool.sol\":10400:10401  2 */\n      0x02\n        /* \"contracts/Pool/Pool.sol\":10389:10395  amount */\n      dup5\n        /* \"contracts/Pool/Pool.sol\":10389:10399  amount.div */\n      tag_338\n      swap1\n        /* \"contracts/Pool/Pool.sol\":10389:10402  amount.div(2) */\n      swap2\n      swap1\n      0xffffffff\n      and\n      jump\t// in\n    tag_341:\n        /* \"contracts/Pool/Pool.sol\":10362:10403  _marketingAddress.transfer(amount.div(2)) */\n      swap1\n      dup2\n      iszero\n      mul\n      swap1\n      mload(0x40)\n      0x00\n      mload(0x40)\n      dup1\n      dup4\n      sub\n      dup2\n      dup6\n      dup9\n      dup9\n      call\n      swap4\n      pop\n      pop\n      pop\n      pop\n      iszero\n      dup1\n      iszero\n      tag_343\n      jumpi\n      returndatasize\n      0x00\n      dup1\n      returndatacopy\n      revert(0x00, returndatasize)\n    tag_343:\n      pop\n        /* \"contracts/Pool/Pool.sol\":10253:10410  function sendETHToFee(uint256 amount) private {... */\n      pop\n      jump\t// out\n        /* \"contracts/Pool/Pool.sol\":7497:7747  function tokenFromReflection(uint256 rAmount) private view returns(uint256) {... */\n    tag_199:\n        /* \"contracts/Pool/Pool.sol\":7564:7571  uint256 */\n      0x00\n        /* \"contracts/Pool/Pool.sol\":7602:7609  _rTotal */\n      sload(0x06)\n        /* \"contracts/Pool/Pool.sol\":7591:7598  rAmount */\n      dup3\n        /* \"contracts/Pool/Pool.sol\":7591:7609  rAmount <= _rTotal */\n      gt\n      iszero\n        /* \"contracts/Pool/Pool.sol\":7583:7656  require(rAmount <= _rTotal, \"Amount must be less than total reflections\") */\n      tag_345\n      jumpi\n      mload(0x40)\n      0x08c379a000000000000000000000000000000000000000000000000000000000\n      dup2\n      mstore\n      0x04\n      add\n      tag_346\n      swap1\n      tag_347\n      jump\t// in\n    tag_346:\n      mload(0x40)\n      dup1\n      swap2\n      sub\n      swap1\n      revert\n    tag_345:\n        /* \"contracts/Pool/Pool.sol\":7666:7685  uint256 currentRate */\n      0x00\n        /* \"contracts/Pool/Pool.sol\":7689:7699  _getRate() */\n      tag_348\n        /* \"contracts/Pool/Pool.sol\":7689:7697  _getRate */\n      tag_349\n        /* \"contracts/Pool/Pool.sol\":7689:7699  _getRate() */\n      jump\t// in\n    tag_348:\n        /* \"contracts/Pool/Pool.sol\":7666:7699  uint256 currentRate =  _getRate() */\n      swap1\n      pop\n        /* \"contracts/Pool/Pool.sol\":7716:7740  rAmount.div(currentRate) */\n      tag_350\n        /* \"contracts/Pool/Pool.sol\":7728:7739  currentRate */\n      dup2\n        /* \"contracts/Pool/Pool.sol\":7716:7723  rAmount */\n      dup5\n        /* \"contracts/Pool/Pool.sol\":7716:7727  rAmount.div */\n      tag_338\n      swap1\n        /* \"contracts/Pool/Pool.sol\":7716:7740  rAmount.div(currentRate) */\n      swap2\n      swap1\n      0xffffffff\n      and\n      jump\t// in\n    tag_350:\n        /* \"contracts/Pool/Pool.sol\":7709:7740  return rAmount.div(currentRate) */\n      swap2\n      pop\n      pop\n        /* \"contracts/Pool/Pool.sol\":7497:7747  function tokenFromReflection(uint256 rAmount) private view returns(uint256) {... */\n      swap2\n      swap1\n      pop\n      jump\t// out\n        /* \"contracts/Pool/Pool.sol\":9768:10239  function swapTokensForEth(uint256 tokenAmount) private lockTheSwap {... */\n    tag_254:\n        /* \"contracts/Pool/Pool.sol\":5140:5144  true */\n      0x01\n        /* \"contracts/Pool/Pool.sol\":5131:5137  inSwap */\n      0x12\n      0x14\n        /* \"contracts/Pool/Pool.sol\":5131:5144  inSwap = true */\n      0x0100\n      exp\n      dup2\n      sload\n      dup2\n      0xff\n      mul\n      not\n      and\n      swap1\n      dup4\n      iszero\n      iszero\n      mul\n      or\n      swap1\n      sstore\n      pop\n        /* \"contracts/Pool/Pool.sol\":9845:9866  address[] memory path */\n      0x00\n        /* \"contracts/Pool/Pool.sol\":9883:9884  2 */\n      0x02\n        /* \"contracts/Pool/Pool.sol\":9869:9885  new address[](2) */\n      0xffffffffffffffff\n      dup2\n      gt\n      iszero\n      tag_353\n      jumpi\n      tag_354\n      tag_355\n      jump\t// in\n    tag_354:\n    tag_353:\n      mload(0x40)\n      swap1\n      dup1\n      dup3\n      mstore\n      dup1\n      0x20\n      mul\n      0x20\n      add\n      dup3\n      add\n      0x40\n      mstore\n      dup1\n      iszero\n      tag_356\n      jumpi\n      dup2\n      0x20\n      add\n      0x20\n      dup3\n      mul\n      dup1\n      calldatasize\n      dup4\n      calldatacopy\n      dup1\n      dup3\n      add\n      swap2\n      pop\n      pop\n      swap1\n      pop\n    tag_356:\n      pop\n        /* \"contracts/Pool/Pool.sol\":9845:9885  address[] memory path = new address[](2) */\n      swap1\n      pop\n        /* \"contracts/Pool/Pool.sol\":9913:9917  this */\n      address\n        /* \"contracts/Pool/Pool.sol\":9895:9899  path */\n      dup2\n        /* \"contracts/Pool/Pool.sol\":9900:9901  0 */\n      0x00\n        /* \"contracts/Pool/Pool.sol\":9895:9902  path[0] */\n      dup2\n      mload\n      dup2\n      lt\n      tag_357\n      jumpi\n      tag_358\n      tag_265\n      jump\t// in\n    tag_358:\n    tag_357:\n      0x20\n      mul\n      0x20\n      add\n      add\n        /* \"contracts/Pool/Pool.sol\":9895:9918  path[0] = address(this) */\n      swap1\n      0xffffffffffffffffffffffffffffffffffffffff\n      and\n      swap1\n      dup2\n      0xffffffffffffffffffffffffffffffffffffffff\n      and\n      dup2\n      mstore\n      pop\n      pop\n        /* \"contracts/Pool/Pool.sol\":9938:9953  uniswapV2Router */\n      0x10\n      0x00\n      swap1\n      sload\n      swap1\n      0x0100\n      exp\n      swap1\n      div\n      0xffffffffffffffffffffffffffffffffffffffff\n      and\n        /* \"contracts/Pool/Pool.sol\":9938:9958  uniswapV2Router.WETH */\n      0xffffffffffffffffffffffffffffffffffffffff\n      and\n      0xad5c4648\n        /* \"contracts/Pool/Pool.sol\":9938:9960  uniswapV2Router.WETH() */\n      mload(0x40)\n      dup2\n      0xffffffff\n      and\n      0xe0\n      shl\n      dup2\n      mstore\n      0x04\n      add\n      0x20\n      mload(0x40)\n      dup1\n      dup4\n      sub\n      dup2\n      dup7\n      gas\n      staticcall\n      iszero\n      dup1\n      iszero\n      tag_360\n      jumpi\n      returndatasize\n      0x00\n      dup1\n      returndatacopy\n      revert(0x00, returndatasize)\n    tag_360:\n      pop\n      pop\n      pop\n      pop\n      mload(0x40)\n      returndatasize\n      not(0x1f)\n      0x1f\n      dup3\n      add\n      and\n      dup3\n      add\n      dup1\n      0x40\n      mstore\n      pop\n      dup2\n      add\n      swap1\n      tag_361\n      swap2\n      swap1\n      tag_154\n      jump\t// in\n    tag_361:\n        /* \"contracts/Pool/Pool.sol\":9928:9932  path */\n      dup2\n        /* \"contracts/Pool/Pool.sol\":9933:9934  1 */\n      0x01\n        /* \"contracts/Pool/Pool.sol\":9928:9935  path[1] */\n      dup2\n      mload\n      dup2\n      lt\n      tag_362\n      jumpi\n      tag_363\n      tag_265\n      jump\t// in\n    tag_363:\n    tag_362:\n      0x20\n      mul\n      0x20\n      add\n      add\n        /* \"contracts/Pool/Pool.sol\":9928:9960  path[1] = uniswapV2Router.WETH() */\n      swap1\n      0xffffffffffffffffffffffffffffffffffffffff\n      and\n      swap1\n      dup2\n      0xffffffffffffffffffffffffffffffffffffffff\n      and\n      dup2\n      mstore\n      pop\n      pop\n        /* \"contracts/Pool/Pool.sol\":9970:10032  _approve(address(this), address(uniswapV2Router), tokenAmount) */\n      tag_364\n        /* \"contracts/Pool/Pool.sol\":9987:9991  this */\n      address\n        /* \"contracts/Pool/Pool.sol\":10002:10017  uniswapV2Router */\n      0x10\n      0x00\n      swap1\n      sload\n      swap1\n      0x0100\n      exp\n      swap1\n      div\n      0xffffffffffffffffffffffffffffffffffffffff\n      and\n        /* \"contracts/Pool/Pool.sol\":10020:10031  tokenAmount */\n      dup5\n        /* \"contracts/Pool/Pool.sol\":9970:9978  _approve */\n      tag_167\n        /* \"contracts/Pool/Pool.sol\":9970:10032  _approve(address(this), address(uniswapV2Router), tokenAmount) */\n      jump\t// in\n    tag_364:\n        /* \"contracts/Pool/Pool.sol\":10042:10057  uniswapV2Router */\n      0x10\n      0x00\n      swap1\n      sload\n      swap1\n      0x0100\n      exp\n      swap1\n      div\n      0xffffffffffffffffffffffffffffffffffffffff\n      and\n        /* \"contracts/Pool/Pool.sol\":10042:10108  uniswapV2Router.swapExactTokensForETHSupportingFeeOnTransferTokens */\n      0xffffffffffffffffffffffffffffffffffffffff\n      and\n      0x791ac947\n        /* \"contracts/Pool/Pool.sol\":10122:10133  tokenAmount */\n      dup4\n        /* \"contracts/Pool/Pool.sol\":10147:10148  0 */\n      0x00\n        /* \"contracts/Pool/Pool.sol\":10162:10166  path */\n      dup5\n        /* \"contracts/Pool/Pool.sol\":10188:10192  this */\n      address\n        /* \"contracts/Pool/Pool.sol\":10207:10222  block.timestamp */\n      timestamp\n        /* \"contracts/Pool/Pool.sol\":10042:10232  uniswapV2Router.swapExactTokensForETHSupportingFeeOnTransferTokens(... */\n      mload(0x40)\n      dup7\n      0xffffffff\n      and\n      0xe0\n      shl\n      dup2\n      mstore\n      0x04\n      add\n      tag_365\n      swap6\n      swap5\n      swap4\n      swap3\n      swap2\n      swap1\n      tag_366\n      jump\t// in\n    tag_365:\n      0x00\n      mload(0x40)\n      dup1\n      dup4\n      sub\n      dup2\n      0x00\n      dup8\n      dup1\n      extcodesize\n      iszero\n      dup1\n      iszero\n      tag_367\n      jumpi\n      0x00\n      dup1\n      revert\n    tag_367:\n      pop\n      gas\n      call\n      iszero\n      dup1\n      iszero\n      tag_369\n      jumpi\n      returndatasize\n      0x00\n      dup1\n      returndatacopy\n      revert(0x00, returndatasize)\n    tag_369:\n      pop\n      pop\n      pop\n      pop\n        /* \"contracts/Pool/Pool.sol\":9835:10239  {... */\n      pop\n        /* \"contracts/Pool/Pool.sol\":5174:5179  false */\n      0x00\n        /* \"contracts/Pool/Pool.sol\":5165:5171  inSwap */\n      0x12\n      0x14\n        /* \"contracts/Pool/Pool.sol\":5165:5179  inSwap = false */\n      0x0100\n      exp\n      dup2\n      sload\n      dup2\n      0xff\n      mul\n      not\n      and\n      swap1\n      dup4\n      iszero\n      iszero\n      mul\n      or\n      swap1\n      sstore\n      pop\n        /* \"contracts/Pool/Pool.sol\":9768:10239  function swapTokensForEth(uint256 tokenAmount) private lockTheSwap {... */\n      pop\n      jump\t// out\n        /* \"contracts/Pool/Pool.sol\":10420:10564  function _tokenTransfer(address sender, address recipient, uint256 amount) private {... */\n    tag_330:\n        /* \"contracts/Pool/Pool.sol\":10513:10557  _transferStandard(sender, recipient, amount) */\n      tag_371\n        /* \"contracts/Pool/Pool.sol\":10531:10537  sender */\n      dup4\n        /* \"contracts/Pool/Pool.sol\":10539:10548  recipient */\n      dup4\n        /* \"contracts/Pool/Pool.sol\":10550:10556  amount */\n      dup4\n        /* \"contracts/Pool/Pool.sol\":10513:10530  _transferStandard */\n      tag_372\n        /* \"contracts/Pool/Pool.sol\":10513:10557  _transferStandard(sender, recipient, amount) */\n      jump\t// in\n    tag_371:\n        /* \"contracts/Pool/Pool.sol\":10420:10564  function _tokenTransfer(address sender, address recipient, uint256 amount) private {... */\n      pop\n      pop\n      pop\n      jump\t// out\n        /* \"contracts/Pool/Pool.sol\":2604:2734  function div(uint256 a, uint256 b) internal pure returns (uint256) {... */\n    tag_338:\n        /* \"contracts/Pool/Pool.sol\":2662:2669  uint256 */\n      0x00\n        /* \"contracts/Pool/Pool.sol\":2688:2727  div(a, b, \"SafeMath: division by zero\") */\n      tag_374\n        /* \"contracts/Pool/Pool.sol\":2692:2693  a */\n      dup4\n        /* \"contracts/Pool/Pool.sol\":2695:2696  b */\n      dup4\n        /* \"contracts/Pool/Pool.sol\":2688:2727  div(a, b, \"SafeMath: division by zero\") */\n      mload(0x40)\n      dup1\n      0x40\n      add\n      0x40\n      mstore\n      dup1\n      0x1a\n      dup2\n      mstore\n      0x20\n      add\n      0x536166654d6174683a206469766973696f6e206279207a65726f000000000000\n      dup2\n      mstore\n      pop\n        /* \"contracts/Pool/Pool.sol\":2688:2691  div */\n      tag_375\n        /* \"contracts/Pool/Pool.sol\":2688:2727  div(a, b, \"SafeMath: division by zero\") */\n      jump\t// in\n    tag_374:\n        /* \"contracts/Pool/Pool.sol\":2681:2727  return div(a, b, \"SafeMath: division by zero\") */\n      swap1\n      pop\n        /* \"contracts/Pool/Pool.sol\":2604:2734  function div(uint256 a, uint256 b) internal pure returns (uint256) {... */\n      swap3\n      swap2\n      pop\n      pop\n      jump\t// out\n        /* \"contracts/Pool/Pool.sol\":13612:13772  function _getRate() private view returns(uint256) {... */\n    tag_349:\n        /* \"contracts/Pool/Pool.sol\":13653:13660  uint256 */\n      0x00\n        /* \"contracts/Pool/Pool.sol\":13673:13688  uint256 rSupply */\n      dup1\n        /* \"contracts/Pool/Pool.sol\":13690:13705  uint256 tSupply */\n      0x00\n        /* \"contracts/Pool/Pool.sol\":13709:13728  _getCurrentSupply() */\n      tag_377\n        /* \"contracts/Pool/Pool.sol\":13709:13726  _getCurrentSupply */\n      tag_378\n        /* \"contracts/Pool/Pool.sol\":13709:13728  _getCurrentSupply() */\n      jump\t// in\n    tag_377:\n        /* \"contracts/Pool/Pool.sol\":13672:13728  (uint256 rSupply, uint256 tSupply) = _getCurrentSupply() */\n      swap2\n      pop\n      swap2\n      pop\n        /* \"contracts/Pool/Pool.sol\":13745:13765  rSupply.div(tSupply) */\n      tag_379\n        /* \"contracts/Pool/Pool.sol\":13757:13764  tSupply */\n      dup2\n        /* \"contracts/Pool/Pool.sol\":13745:13752  rSupply */\n      dup4\n        /* \"contracts/Pool/Pool.sol\":13745:13756  rSupply.div */\n      tag_338\n      swap1\n        /* \"contracts/Pool/Pool.sol\":13745:13765  rSupply.div(tSupply) */\n      swap2\n      swap1\n      0xffffffff\n      and\n      jump\t// in\n    tag_379:\n        /* \"contracts/Pool/Pool.sol\":13738:13765  return rSupply.div(tSupply) */\n      swap3\n      pop\n      pop\n      pop\n        /* \"contracts/Pool/Pool.sol\":13612:13772  function _getRate() private view returns(uint256) {... */\n      swap1\n      jump\t// out\n        /* \"contracts/Pool/Pool.sol\":11494:11975  function _transferStandard(address sender, address recipient, uint256 tAmount) private {... */\n    tag_372:\n        /* \"contracts/Pool/Pool.sol\":11592:11607  uint256 rAmount */\n      0x00\n        /* \"contracts/Pool/Pool.sol\":11609:11632  uint256 rTransferAmount */\n      dup1\n        /* \"contracts/Pool/Pool.sol\":11634:11646  uint256 rFee */\n      0x00\n        /* \"contracts/Pool/Pool.sol\":11648:11671  uint256 tTransferAmount */\n      dup1\n        /* \"contracts/Pool/Pool.sol\":11673:11685  uint256 tFee */\n      0x00\n        /* \"contracts/Pool/Pool.sol\":11687:11700  uint256 tTeam */\n      dup1\n        /* \"contracts/Pool/Pool.sol\":11704:11723  _getValues(tAmount) */\n      tag_381\n        /* \"contracts/Pool/Pool.sol\":11715:11722  tAmount */\n      dup8\n        /* \"contracts/Pool/Pool.sol\":11704:11714  _getValues */\n      tag_382\n        /* \"contracts/Pool/Pool.sol\":11704:11723  _getValues(tAmount) */\n      jump\t// in\n    tag_381:\n        /* \"contracts/Pool/Pool.sol\":11591:11723  (uint256 rAmount, uint256 rTransferAmount, uint256 rFee, uint256 tTransferAmount, uint256 tFee, uint256 tTeam) = _getValues(tAmount) */\n      swap6\n      pop\n      swap6\n      pop\n      swap6\n      pop\n      swap6\n      pop\n      swap6\n      pop\n      swap6\n      pop\n        /* \"contracts/Pool/Pool.sol\":11751:11779  _rOwned[sender].sub(rAmount) */\n      tag_383\n        /* \"contracts/Pool/Pool.sol\":11771:11778  rAmount */\n      dup7\n        /* \"contracts/Pool/Pool.sol\":11751:11758  _rOwned */\n      0x02\n        /* \"contracts/Pool/Pool.sol\":11751:11766  _rOwned[sender] */\n      0x00\n        /* \"contracts/Pool/Pool.sol\":11759:11765  sender */\n      dup13\n        /* \"contracts/Pool/Pool.sol\":11751:11766  _rOwned[sender] */\n      0xffffffffffffffffffffffffffffffffffffffff\n      and\n      0xffffffffffffffffffffffffffffffffffffffff\n      and\n      dup2\n      mstore\n      0x20\n      add\n      swap1\n      dup2\n      mstore\n      0x20\n      add\n      0x00\n      keccak256\n      sload\n        /* \"contracts/Pool/Pool.sol\":11751:11770  _rOwned[sender].sub */\n      tag_384\n      swap1\n        /* \"contracts/Pool/Pool.sol\":11751:11779  _rOwned[sender].sub(rAmount) */\n      swap2\n      swap1\n      0xffffffff\n      and\n      jump\t// in\n    tag_383:\n        /* \"contracts/Pool/Pool.sol\":11733:11740  _rOwned */\n      0x02\n        /* \"contracts/Pool/Pool.sol\":11733:11748  _rOwned[sender] */\n      0x00\n        /* \"contracts/Pool/Pool.sol\":11741:11747  sender */\n      dup12\n        /* \"contracts/Pool/Pool.sol\":11733:11748  _rOwned[sender] */\n      0xffffffffffffffffffffffffffffffffffffffff\n      and\n      0xffffffffffffffffffffffffffffffffffffffff\n      and\n      dup2\n      mstore\n      0x20\n      add\n      swap1\n      dup2\n      mstore\n      0x20\n      add\n      0x00\n      keccak256\n        /* \"contracts/Pool/Pool.sol\":11733:11779  _rOwned[sender] = _rOwned[sender].sub(rAmount) */\n      dup2\n      swap1\n      sstore\n      pop\n        /* \"contracts/Pool/Pool.sol\":11810:11849  _rOwned[recipient].add(rTransferAmount) */\n      tag_385\n        /* \"contracts/Pool/Pool.sol\":11833:11848  rTransferAmount */\n      dup6\n        /* \"contracts/Pool/Pool.sol\":11810:11817  _rOwned */\n      0x02\n        /* \"contracts/Pool/Pool.sol\":11810:11828  _rOwned[recipient] */\n      0x00\n        /* \"contracts/Pool/Pool.sol\":11818:11827  recipient */\n      dup12\n        /* \"contracts/Pool/Pool.sol\":11810:11828  _rOwned[recipient] */\n      0xffffffffffffffffffffffffffffffffffffffff\n      and\n      0xffffffffffffffffffffffffffffffffffffffff\n      and\n      dup2\n      mstore\n      0x20\n      add\n      swap1\n      dup2\n      mstore\n      0x20\n      add\n      0x00\n      keccak256\n      sload\n        /* \"contracts/Pool/Pool.sol\":11810:11832  _rOwned[recipient].add */\n      tag_386\n      swap1\n        /* \"contracts/Pool/Pool.sol\":11810:11849  _rOwned[recipient].add(rTransferAmount) */\n      swap2\n      swap1\n      0xffffffff\n      and\n      jump\t// in\n    tag_385:\n        /* \"contracts/Pool/Pool.sol\":11789:11796  _rOwned */\n      0x02\n        /* \"contracts/Pool/Pool.sol\":11789:11807  _rOwned[recipient] */\n      0x00\n        /* \"contracts/Pool/Pool.sol\":11797:11806  recipient */\n      dup11\n        /* \"contracts/Pool/Pool.sol\":11789:11807  _rOwned[recipient] */\n      0xffffffffffffffffffffffffffffffffffffffff\n      and\n      0xffffffffffffffffffffffffffffffffffffffff\n      and\n      dup2\n      mstore\n      0x20\n      add\n      swap1\n      dup2\n      mstore\n      0x20\n      add\n      0x00\n      keccak256\n        /* \"contracts/Pool/Pool.sol\":11789:11849  _rOwned[recipient] = _rOwned[recipient].add(rTransferAmount) */\n      dup2\n      swap1\n      sstore\n      pop\n        /* \"contracts/Pool/Pool.sol\":11860:11876  _takeTeam(tTeam) */\n      tag_387\n        /* \"contracts/Pool/Pool.sol\":11870:11875  tTeam */\n      dup2\n        /* \"contracts/Pool/Pool.sol\":11860:11869  _takeTeam */\n      tag_388\n        /* \"contracts/Pool/Pool.sol\":11860:11876  _takeTeam(tTeam) */\n      jump\t// in\n    tag_387:\n        /* \"contracts/Pool/Pool.sol\":11886:11909  _reflectFee(rFee, tFee) */\n      tag_389\n        /* \"contracts/Pool/Pool.sol\":11898:11902  rFee */\n      dup5\n        /* \"contracts/Pool/Pool.sol\":11904:11908  tFee */\n      dup4\n        /* \"contracts/Pool/Pool.sol\":11886:11897  _reflectFee */\n      tag_390\n        /* \"contracts/Pool/Pool.sol\":11886:11909  _reflectFee(rFee, tFee) */\n      jump\t// in\n    tag_389:\n        /* \"contracts/Pool/Pool.sol\":11941:11950  recipient */\n      dup8\n        /* \"contracts/Pool/Pool.sol\":11924:11968  Transfer(sender, recipient, tTransferAmount) */\n      0xffffffffffffffffffffffffffffffffffffffff\n      and\n        /* \"contracts/Pool/Pool.sol\":11933:11939  sender */\n      dup10\n        /* \"contracts/Pool/Pool.sol\":11924:11968  Transfer(sender, recipient, tTransferAmount) */\n      0xffffffffffffffffffffffffffffffffffffffff\n      and\n      0xddf252ad1be2c89b69c2b068fc378daa952ba7f163c4a11628f55a4df523b3ef\n        /* \"contracts/Pool/Pool.sol\":11952:11967  tTransferAmount */\n      dup6\n        /* \"contracts/Pool/Pool.sol\":11924:11968  Transfer(sender, recipient, tTransferAmount) */\n      mload(0x40)\n      tag_391\n      swap2\n      swap1\n      tag_56\n      jump\t// in\n    tag_391:\n      mload(0x40)\n      dup1\n      swap2\n      sub\n      swap1\n      log3\n        /* \"contracts/Pool/Pool.sol\":11581:11975  {... */\n      pop\n      pop\n      pop\n      pop\n      pop\n      pop\n        /* \"contracts/Pool/Pool.sol\":11494:11975  function _transferStandard(address sender, address recipient, uint256 tAmount) private {... */\n      pop\n      pop\n      pop\n      jump\t// out\n        /* \"contracts/Pool/Pool.sol\":2740:2925  function div(uint256 a, uint256 b, string memory errorMessage) internal pure returns (uint256) {... */\n    tag_375:\n        /* \"contracts/Pool/Pool.sol\":2826:2833  uint256 */\n      0x00\n        /* \"contracts/Pool/Pool.sol\":2857:2858  0 */\n      dup1\n        /* \"contracts/Pool/Pool.sol\":2853:2854  b */\n      dup4\n        /* \"contracts/Pool/Pool.sol\":2853:2858  b > 0 */\n      gt\n        /* \"contracts/Pool/Pool.sol\":2860:2872  errorMessage */\n      dup3\n        /* \"contracts/Pool/Pool.sol\":2845:2873  require(b > 0, errorMessage) */\n      swap1\n      tag_393\n      jumpi\n      mload(0x40)\n      0x08c379a000000000000000000000000000000000000000000000000000000000\n      dup2\n      mstore\n      0x04\n      add\n      tag_394\n      swap2\n      swap1\n      tag_39\n      jump\t// in\n    tag_394:\n      mload(0x40)\n      dup1\n      swap2\n      sub\n      swap1\n      revert\n    tag_393:\n      pop\n        /* \"contracts/Pool/Pool.sol\":2883:2892  uint256 c */\n      0x00\n        /* \"contracts/Pool/Pool.sol\":2899:2900  b */\n      dup4\n        /* \"contracts/Pool/Pool.sol\":2895:2896  a */\n      dup6\n        /* \"contracts/Pool/Pool.sol\":2895:2900  a / b */\n      tag_395\n      swap2\n      swap1\n      tag_396\n      jump\t// in\n    tag_395:\n        /* \"contracts/Pool/Pool.sol\":2883:2900  uint256 c = a / b */\n      swap1\n      pop\n        /* \"contracts/Pool/Pool.sol\":2917:2918  c */\n      dup1\n        /* \"contracts/Pool/Pool.sol\":2910:2918  return c */\n      swap2\n      pop\n      pop\n        /* \"contracts/Pool/Pool.sol\":2740:2925  function div(uint256 a, uint256 b, string memory errorMessage) internal pure returns (uint256) {... */\n      swap4\n      swap3\n      pop\n      pop\n      pop\n      jump\t// out\n        /* \"contracts/Pool/Pool.sol\":13778:14035  function _getCurrentSupply() private view returns(uint256, uint256) {... */\n    tag_378:\n        /* \"contracts/Pool/Pool.sol\":13828:13835  uint256 */\n      0x00\n        /* \"contracts/Pool/Pool.sol\":13837:13844  uint256 */\n      dup1\n        /* \"contracts/Pool/Pool.sol\":13856:13871  uint256 rSupply */\n      0x00\n        /* \"contracts/Pool/Pool.sol\":13874:13881  _rTotal */\n      sload(0x06)\n        /* \"contracts/Pool/Pool.sol\":13856:13881  uint256 rSupply = _rTotal */\n      swap1\n      pop\n        /* \"contracts/Pool/Pool.sol\":13891:13906  uint256 tSupply */\n      0x00\n        /* \"contracts/Pool/Pool.sol\":4200:4213  1*10**9*10**9 */\n      0x0de0b6b3a7640000\n        /* \"contracts/Pool/Pool.sol\":13891:13916  uint256 tSupply = _tTotal */\n      swap1\n      pop\n        /* \"contracts/Pool/Pool.sol\":13946:13966  _rTotal.div(_tTotal) */\n      tag_398\n        /* \"contracts/Pool/Pool.sol\":4200:4213  1*10**9*10**9 */\n      0x0de0b6b3a7640000\n        /* \"contracts/Pool/Pool.sol\":13946:13953  _rTotal */\n      sload(0x06)\n        /* \"contracts/Pool/Pool.sol\":13946:13957  _rTotal.div */\n      tag_338\n      swap1\n        /* \"contracts/Pool/Pool.sol\":13946:13966  _rTotal.div(_tTotal) */\n      swap2\n      swap1\n      0xffffffff\n      and\n      jump\t// in\n    tag_398:\n        /* \"contracts/Pool/Pool.sol\":13936:13943  rSupply */\n      dup3\n        /* \"contracts/Pool/Pool.sol\":13936:13966  rSupply < _rTotal.div(_tTotal) */\n      lt\n        /* \"contracts/Pool/Pool.sol\":13932:13993  if (rSupply < _rTotal.div(_tTotal)) return (_rTotal, _tTotal) */\n      iszero\n      tag_399\n      jumpi\n        /* \"contracts/Pool/Pool.sol\":13976:13983  _rTotal */\n      sload(0x06)\n        /* \"contracts/Pool/Pool.sol\":4200:4213  1*10**9*10**9 */\n      0x0de0b6b3a7640000\n        /* \"contracts/Pool/Pool.sol\":13968:13993  return (_rTotal, _tTotal) */\n      swap4\n      pop\n      swap4\n      pop\n      pop\n      pop\n      jump(tag_397)\n        /* \"contracts/Pool/Pool.sol\":13932:13993  if (rSupply < _rTotal.div(_tTotal)) return (_rTotal, _tTotal) */\n    tag_399:\n        /* \"contracts/Pool/Pool.sol\":14011:14018  rSupply */\n      dup2\n        /* \"contracts/Pool/Pool.sol\":14020:14027  tSupply */\n      dup2\n        /* \"contracts/Pool/Pool.sol\":14003:14028  return (rSupply, tSupply) */\n      swap4\n      pop\n      swap4\n      pop\n      pop\n      pop\n        /* \"contracts/Pool/Pool.sol\":13778:14035  function _getCurrentSupply() private view returns(uint256, uint256) {... */\n    tag_397:\n      swap1\n      swap2\n      jump\t// out\n        /* \"contracts/Pool/Pool.sol\":12384:12848  function _getValues(uint256 tAmount) private view returns (uint256, uint256, uint256, uint256, uint256, uint256) {... */\n    tag_382:\n        /* \"contracts/Pool/Pool.sol\":12443:12450  uint256 */\n      0x00\n        /* \"contracts/Pool/Pool.sol\":12452:12459  uint256 */\n      dup1\n        /* \"contracts/Pool/Pool.sol\":12461:12468  uint256 */\n      0x00\n        /* \"contracts/Pool/Pool.sol\":12470:12477  uint256 */\n      dup1\n        /* \"contracts/Pool/Pool.sol\":12479:12486  uint256 */\n      0x00\n        /* \"contracts/Pool/Pool.sol\":12488:12495  uint256 */\n      dup1\n        /* \"contracts/Pool/Pool.sol\":12508:12531  uint256 tTransferAmount */\n      0x00\n        /* \"contracts/Pool/Pool.sol\":12533:12545  uint256 tFee */\n      dup1\n        /* \"contracts/Pool/Pool.sol\":12547:12560  uint256 tTeam */\n      0x00\n        /* \"contracts/Pool/Pool.sol\":12564:12604  _getTValues(tAmount, _redisFee, _taxFee) */\n      tag_401\n        /* \"contracts/Pool/Pool.sol\":12576:12583  tAmount */\n      dup11\n        /* \"contracts/Pool/Pool.sol\":12585:12594  _redisFee */\n      sload(0x0c)\n        /* \"contracts/Pool/Pool.sol\":12596:12603  _taxFee */\n      sload(0x0d)\n        /* \"contracts/Pool/Pool.sol\":12564:12575  _getTValues */\n      tag_402\n        /* \"contracts/Pool/Pool.sol\":12564:12604  _getTValues(tAmount, _redisFee, _taxFee) */\n      jump\t// in\n    tag_401:\n        /* \"contracts/Pool/Pool.sol\":12507:12604  (uint256 tTransferAmount, uint256 tFee, uint256 tTeam) = _getTValues(tAmount, _redisFee, _taxFee) */\n      swap3\n      pop\n      swap3\n      pop\n      swap3\n      pop\n        /* \"contracts/Pool/Pool.sol\":12614:12633  uint256 currentRate */\n      0x00\n        /* \"contracts/Pool/Pool.sol\":12637:12647  _getRate() */\n      tag_403\n        /* \"contracts/Pool/Pool.sol\":12637:12645  _getRate */\n      tag_349\n        /* \"contracts/Pool/Pool.sol\":12637:12647  _getRate() */\n      jump\t// in\n    tag_403:\n        /* \"contracts/Pool/Pool.sol\":12614:12647  uint256 currentRate =  _getRate() */\n      swap1\n      pop\n        /* \"contracts/Pool/Pool.sol\":12658:12673  uint256 rAmount */\n      0x00\n        /* \"contracts/Pool/Pool.sol\":12675:12698  uint256 rTransferAmount */\n      dup1\n        /* \"contracts/Pool/Pool.sol\":12700:12712  uint256 rFee */\n      0x00\n        /* \"contracts/Pool/Pool.sol\":12716:12762  _getRValues(tAmount, tFee, tTeam, currentRate) */\n      tag_404\n        /* \"contracts/Pool/Pool.sol\":12728:12735  tAmount */\n      dup15\n        /* \"contracts/Pool/Pool.sol\":12737:12741  tFee */\n      dup8\n        /* \"contracts/Pool/Pool.sol\":12743:12748  tTeam */\n      dup8\n        /* \"contracts/Pool/Pool.sol\":12750:12761  currentRate */\n      dup8\n        /* \"contracts/Pool/Pool.sol\":12716:12727  _getRValues */\n      tag_405\n        /* \"contracts/Pool/Pool.sol\":12716:12762  _getRValues(tAmount, tFee, tTeam, currentRate) */\n      jump\t// in\n    tag_404:\n        /* \"contracts/Pool/Pool.sol\":12657:12762  (uint256 rAmount, uint256 rTransferAmount, uint256 rFee) = _getRValues(tAmount, tFee, tTeam, currentRate) */\n      swap3\n      pop\n      swap3\n      pop\n      swap3\n      pop\n        /* \"contracts/Pool/Pool.sol\":12780:12787  rAmount */\n      dup3\n        /* \"contracts/Pool/Pool.sol\":12789:12804  rTransferAmount */\n      dup3\n        /* \"contracts/Pool/Pool.sol\":12806:12810  rFee */\n      dup3\n        /* \"contracts/Pool/Pool.sol\":12812:12827  tTransferAmount */\n      dup10\n        /* \"contracts/Pool/Pool.sol\":12829:12833  tFee */\n      dup10\n        /* \"contracts/Pool/Pool.sol\":12835:12840  tTeam */\n      dup10\n        /* \"contracts/Pool/Pool.sol\":12772:12841  return (rAmount, rTransferAmount, rFee, tTransferAmount, tFee, tTeam) */\n      swap13\n      pop\n      swap13\n      pop\n      swap13\n      pop\n      swap13\n      pop\n      swap13\n      pop\n      swap13\n      pop\n      pop\n      pop\n      pop\n      pop\n      pop\n      pop\n      pop\n        /* \"contracts/Pool/Pool.sol\":12384:12848  function _getValues(uint256 tAmount) private view returns (uint256, uint256, uint256, uint256, uint256, uint256) {... */\n      swap2\n      swap4\n      swap6\n      pop\n      swap2\n      swap4\n      swap6\n      jump\t// out\n        /* \"contracts/Pool/Pool.sol\":2027:2161  function sub(uint256 a, uint256 b) internal pure returns (uint256) {... */\n    tag_384:\n        /* \"contracts/Pool/Pool.sol\":2085:2092  uint256 */\n      0x00\n        /* \"contracts/Pool/Pool.sol\":2111:2154  sub(a, b, \"SafeMath: subtraction overflow\") */\n      tag_407\n        /* \"contracts/Pool/Pool.sol\":2115:2116  a */\n      dup4\n        /* \"contracts/Pool/Pool.sol\":2118:2119  b */\n      dup4\n        /* \"contracts/Pool/Pool.sol\":2111:2154  sub(a, b, \"SafeMath: subtraction overflow\") */\n      mload(0x40)\n      dup1\n      0x40\n      add\n      0x40\n      mstore\n      dup1\n      0x1e\n      dup2\n      mstore\n      0x20\n      add\n      0x536166654d6174683a207375627472616374696f6e206f766572666c6f770000\n      dup2\n      mstore\n      pop\n        /* \"contracts/Pool/Pool.sol\":2111:2114  sub */\n      tag_176\n        /* \"contracts/Pool/Pool.sol\":2111:2154  sub(a, b, \"SafeMath: subtraction overflow\") */\n      jump\t// in\n    tag_407:\n        /* \"contracts/Pool/Pool.sol\":2104:2154  return sub(a, b, \"SafeMath: subtraction overflow\") */\n      swap1\n      pop\n        /* \"contracts/Pool/Pool.sol\":2027:2161  function sub(uint256 a, uint256 b) internal pure returns (uint256) {... */\n      swap3\n      swap2\n      pop\n      pop\n      jump\t// out\n        /* \"contracts/Pool/Pool.sol\":1846:2021  function add(uint256 a, uint256 b) internal pure returns (uint256) {... */\n    tag_386:\n        /* \"contracts/Pool/Pool.sol\":1904:1911  uint256 */\n      0x00\n        /* \"contracts/Pool/Pool.sol\":1923:1932  uint256 c */\n      dup1\n        /* \"contracts/Pool/Pool.sol\":1939:1940  b */\n      dup3\n        /* \"contracts/Pool/Pool.sol\":1935:1936  a */\n      dup5\n        /* \"contracts/Pool/Pool.sol\":1935:1940  a + b */\n      tag_409\n      swap2\n      swap1\n      tag_410\n      jump\t// in\n    tag_409:\n        /* \"contracts/Pool/Pool.sol\":1923:1940  uint256 c = a + b */\n      swap1\n      pop\n        /* \"contracts/Pool/Pool.sol\":1963:1964  a */\n      dup4\n        /* \"contracts/Pool/Pool.sol\":1958:1959  c */\n      dup2\n        /* \"contracts/Pool/Pool.sol\":1958:1964  c >= a */\n      lt\n      iszero\n        /* \"contracts/Pool/Pool.sol\":1950:1996  require(c >= a, \"SafeMath: addition overflow\") */\n      tag_411\n      jumpi\n      mload(0x40)\n      0x08c379a000000000000000000000000000000000000000000000000000000000\n      dup2\n      mstore\n      0x04\n      add\n      tag_412\n      swap1\n      tag_413\n      jump\t// in\n    tag_412:\n      mload(0x40)\n      dup1\n      swap2\n      sub\n      swap1\n      revert\n    tag_411:\n        /* \"contracts/Pool/Pool.sol\":2013:2014  c */\n      dup1\n        /* \"contracts/Pool/Pool.sol\":2006:2014  return c */\n      swap2\n      pop\n      pop\n        /* \"contracts/Pool/Pool.sol\":1846:2021  function add(uint256 a, uint256 b) internal pure returns (uint256) {... */\n      swap3\n      swap2\n      pop\n      pop\n      jump\t// out\n        /* \"contracts/Pool/Pool.sol\":11981:12189  function _takeTeam(uint256 tTeam) private {... */\n    tag_388:\n        /* \"contracts/Pool/Pool.sol\":12033:12052  uint256 currentRate */\n      0x00\n        /* \"contracts/Pool/Pool.sol\":12056:12066  _getRate() */\n      tag_415\n        /* \"contracts/Pool/Pool.sol\":12056:12064  _getRate */\n      tag_349\n        /* \"contracts/Pool/Pool.sol\":12056:12066  _getRate() */\n      jump\t// in\n    tag_415:\n        /* \"contracts/Pool/Pool.sol\":12033:12066  uint256 currentRate =  _getRate() */\n      swap1\n      pop\n        /* \"contracts/Pool/Pool.sol\":12076:12089  uint256 rTeam */\n      0x00\n        /* \"contracts/Pool/Pool.sol\":12092:12114  tTeam.mul(currentRate) */\n      tag_416\n        /* \"contracts/Pool/Pool.sol\":12102:12113  currentRate */\n      dup3\n        /* \"contracts/Pool/Pool.sol\":12092:12097  tTeam */\n      dup5\n        /* \"contracts/Pool/Pool.sol\":12092:12101  tTeam.mul */\n      tag_417\n      swap1\n        /* \"contracts/Pool/Pool.sol\":12092:12114  tTeam.mul(currentRate) */\n      swap2\n      swap1\n      0xffffffff\n      and\n      jump\t// in\n    tag_416:\n        /* \"contracts/Pool/Pool.sol\":12076:12114  uint256 rTeam = tTeam.mul(currentRate) */\n      swap1\n      pop\n        /* \"contracts/Pool/Pool.sol\":12149:12182  _rOwned[address(this)].add(rTeam) */\n      tag_418\n        /* \"contracts/Pool/Pool.sol\":12176:12181  rTeam */\n      dup2\n        /* \"contracts/Pool/Pool.sol\":12149:12156  _rOwned */\n      0x02\n        /* \"contracts/Pool/Pool.sol\":12149:12171  _rOwned[address(this)] */\n      0x00\n        /* \"contracts/Pool/Pool.sol\":12165:12169  this */\n      address\n        /* \"contracts/Pool/Pool.sol\":12149:12171  _rOwned[address(this)] */\n      0xffffffffffffffffffffffffffffffffffffffff\n      and\n      0xffffffffffffffffffffffffffffffffffffffff\n      and\n      dup2\n      mstore\n      0x20\n      add\n      swap1\n      dup2\n      mstore\n      0x20\n      add\n      0x00\n      keccak256\n      sload\n        /* \"contracts/Pool/Pool.sol\":12149:12175  _rOwned[address(this)].add */\n      tag_386\n      swap1\n        /* \"contracts/Pool/Pool.sol\":12149:12182  _rOwned[address(this)].add(rTeam) */\n      swap2\n      swap1\n      0xffffffff\n      and\n      jump\t// in\n    tag_418:\n        /* \"contracts/Pool/Pool.sol\":12124:12131  _rOwned */\n      0x02\n        /* \"contracts/Pool/Pool.sol\":12124:12146  _rOwned[address(this)] */\n      0x00\n        /* \"contracts/Pool/Pool.sol\":12140:12144  this */\n      address\n        /* \"contracts/Pool/Pool.sol\":12124:12146  _rOwned[address(this)] */\n      0xffffffffffffffffffffffffffffffffffffffff\n      and\n      0xffffffffffffffffffffffffffffffffffffffff\n      and\n      dup2\n      mstore\n      0x20\n      add\n      swap1\n      dup2\n      mstore\n      0x20\n      add\n      0x00\n      keccak256\n        /* \"contracts/Pool/Pool.sol\":12124:12182  _rOwned[address(this)] = _rOwned[address(this)].add(rTeam) */\n      dup2\n      swap1\n      sstore\n      pop\n        /* \"contracts/Pool/Pool.sol\":12023:12189  {... */\n      pop\n      pop\n        /* \"contracts/Pool/Pool.sol\":11981:12189  function _takeTeam(uint256 tTeam) private {... */\n      pop\n      jump\t// out\n        /* \"contracts/Pool/Pool.sol\":12195:12339  function _reflectFee(uint256 rFee, uint256 tFee) private {... */\n    tag_390:\n        /* \"contracts/Pool/Pool.sol\":12272:12289  _rTotal.sub(rFee) */\n      tag_420\n        /* \"contracts/Pool/Pool.sol\":12284:12288  rFee */\n      dup3\n        /* \"contracts/Pool/Pool.sol\":12272:12279  _rTotal */\n      sload(0x06)\n        /* \"contracts/Pool/Pool.sol\":12272:12283  _rTotal.sub */\n      tag_384\n      swap1\n        /* \"contracts/Pool/Pool.sol\":12272:12289  _rTotal.sub(rFee) */\n      swap2\n      swap1\n      0xffffffff\n      and\n      jump\t// in\n    tag_420:\n        /* \"contracts/Pool/Pool.sol\":12262:12269  _rTotal */\n      0x06\n        /* \"contracts/Pool/Pool.sol\":12262:12289  _rTotal = _rTotal.sub(rFee) */\n      dup2\n      swap1\n      sstore\n      pop\n        /* \"contracts/Pool/Pool.sol\":12312:12332  _tFeeTotal.add(tFee) */\n      tag_421\n        /* \"contracts/Pool/Pool.sol\":12327:12331  tFee */\n      dup2\n        /* \"contracts/Pool/Pool.sol\":12312:12322  _tFeeTotal */\n      sload(0x07)\n        /* \"contracts/Pool/Pool.sol\":12312:12326  _tFeeTotal.add */\n      tag_386\n      swap1\n        /* \"contracts/Pool/Pool.sol\":12312:12332  _tFeeTotal.add(tFee) */\n      swap2\n      swap1\n      0xffffffff\n      and\n      jump\t// in\n    tag_421:\n        /* \"contracts/Pool/Pool.sol\":12299:12309  _tFeeTotal */\n      0x07\n        /* \"contracts/Pool/Pool.sol\":12299:12332  _tFeeTotal = _tFeeTotal.add(tFee) */\n      dup2\n      swap1\n      sstore\n      pop\n        /* \"contracts/Pool/Pool.sol\":12195:12339  function _reflectFee(uint256 rFee, uint256 tFee) private {... */\n      pop\n      pop\n      jump\t// out\n        /* \"contracts/Pool/Pool.sol\":12854:13200  function _getTValues(uint256 tAmount, uint256 taxFee, uint256 TeamFee) private pure returns (uint256, uint256, uint256) {... */\n    tag_402:\n        /* \"contracts/Pool/Pool.sol\":12947:12954  uint256 */\n      0x00\n        /* \"contracts/Pool/Pool.sol\":12956:12963  uint256 */\n      dup1\n        /* \"contracts/Pool/Pool.sol\":12965:12972  uint256 */\n      0x00\n        /* \"contracts/Pool/Pool.sol\":12984:12996  uint256 tFee */\n      dup1\n        /* \"contracts/Pool/Pool.sol\":12999:13027  tAmount.mul(taxFee).div(100) */\n      tag_423\n        /* \"contracts/Pool/Pool.sol\":13023:13026  100 */\n      0x64\n        /* \"contracts/Pool/Pool.sol\":12999:13018  tAmount.mul(taxFee) */\n      tag_424\n        /* \"contracts/Pool/Pool.sol\":13011:13017  taxFee */\n      dup9\n        /* \"contracts/Pool/Pool.sol\":12999:13006  tAmount */\n      dup11\n        /* \"contracts/Pool/Pool.sol\":12999:13010  tAmount.mul */\n      tag_417\n      swap1\n        /* \"contracts/Pool/Pool.sol\":12999:13018  tAmount.mul(taxFee) */\n      swap2\n      swap1\n      0xffffffff\n      and\n      jump\t// in\n    tag_424:\n        /* \"contracts/Pool/Pool.sol\":12999:13022  tAmount.mul(taxFee).div */\n      tag_338\n      swap1\n        /* \"contracts/Pool/Pool.sol\":12999:13027  tAmount.mul(taxFee).div(100) */\n      swap2\n      swap1\n      0xffffffff\n      and\n      jump\t// in\n    tag_423:\n        /* \"contracts/Pool/Pool.sol\":12984:13027  uint256 tFee = tAmount.mul(taxFee).div(100) */\n      swap1\n      pop\n        /* \"contracts/Pool/Pool.sol\":13037:13050  uint256 tTeam */\n      0x00\n        /* \"contracts/Pool/Pool.sol\":13053:13082  tAmount.mul(TeamFee).div(100) */\n      tag_425\n        /* \"contracts/Pool/Pool.sol\":13078:13081  100 */\n      0x64\n        /* \"contracts/Pool/Pool.sol\":13053:13073  tAmount.mul(TeamFee) */\n      tag_426\n        /* \"contracts/Pool/Pool.sol\":13065:13072  TeamFee */\n      dup9\n        /* \"contracts/Pool/Pool.sol\":13053:13060  tAmount */\n      dup12\n        /* \"contracts/Pool/Pool.sol\":13053:13064  tAmount.mul */\n      tag_417\n      swap1\n        /* \"contracts/Pool/Pool.sol\":13053:13073  tAmount.mul(TeamFee) */\n      swap2\n      swap1\n      0xffffffff\n      and\n      jump\t// in\n    tag_426:\n        /* \"contracts/Pool/Pool.sol\":13053:13077  tAmount.mul(TeamFee).div */\n      tag_338\n      swap1\n        /* \"contracts/Pool/Pool.sol\":13053:13082  tAmount.mul(TeamFee).div(100) */\n      swap2\n      swap1\n      0xffffffff\n      and\n      jump\t// in\n    tag_425:\n        /* \"contracts/Pool/Pool.sol\":13037:13082  uint256 tTeam = tAmount.mul(TeamFee).div(100) */\n      swap1\n      pop\n        /* \"contracts/Pool/Pool.sol\":13092:13115  uint256 tTransferAmount */\n      0x00\n        /* \"contracts/Pool/Pool.sol\":13118:13146  tAmount.sub(tFee).sub(tTeam) */\n      tag_427\n        /* \"contracts/Pool/Pool.sol\":13140:13145  tTeam */\n      dup3\n        /* \"contracts/Pool/Pool.sol\":13118:13135  tAmount.sub(tFee) */\n      tag_428\n        /* \"contracts/Pool/Pool.sol\":13130:13134  tFee */\n      dup6\n        /* \"contracts/Pool/Pool.sol\":13118:13125  tAmount */\n      dup13\n        /* \"contracts/Pool/Pool.sol\":13118:13129  tAmount.sub */\n      tag_384\n      swap1\n        /* \"contracts/Pool/Pool.sol\":13118:13135  tAmount.sub(tFee) */\n      swap2\n      swap1\n      0xffffffff\n      and\n      jump\t// in\n    tag_428:\n        /* \"contracts/Pool/Pool.sol\":13118:13139  tAmount.sub(tFee).sub */\n      tag_384\n      swap1\n        /* \"contracts/Pool/Pool.sol\":13118:13146  tAmount.sub(tFee).sub(tTeam) */\n      swap2\n      swap1\n      0xffffffff\n      and\n      jump\t// in\n    tag_427:\n        /* \"contracts/Pool/Pool.sol\":13092:13146  uint256 tTransferAmount = tAmount.sub(tFee).sub(tTeam) */\n      swap1\n      pop\n        /* \"contracts/Pool/Pool.sol\":13164:13179  tTransferAmount */\n      dup1\n        /* \"contracts/Pool/Pool.sol\":13181:13185  tFee */\n      dup4\n        /* \"contracts/Pool/Pool.sol\":13187:13192  tTeam */\n      dup4\n        /* \"contracts/Pool/Pool.sol\":13156:13193  return (tTransferAmount, tFee, tTeam) */\n      swap6\n      pop\n      swap6\n      pop\n      swap6\n      pop\n      pop\n      pop\n      pop\n        /* \"contracts/Pool/Pool.sol\":12854:13200  function _getTValues(uint256 tAmount, uint256 taxFee, uint256 TeamFee) private pure returns (uint256, uint256, uint256) {... */\n      swap4\n      pop\n      swap4\n      pop\n      swap4\n      swap1\n      pop\n      jump\t// out\n        /* \"contracts/Pool/Pool.sol\":13206:13609  function _getRValues(uint256 tAmount, uint256 tFee, uint256 tTeam, uint256 currentRate) private pure returns (uint256, uint256, uint256) {... */\n    tag_405:\n        /* \"contracts/Pool/Pool.sol\":13316:13323  uint256 */\n      0x00\n        /* \"contracts/Pool/Pool.sol\":13325:13332  uint256 */\n      dup1\n        /* \"contracts/Pool/Pool.sol\":13334:13341  uint256 */\n      0x00\n        /* \"contracts/Pool/Pool.sol\":13353:13368  uint256 rAmount */\n      dup1\n        /* \"contracts/Pool/Pool.sol\":13371:13395  tAmount.mul(currentRate) */\n      tag_430\n        /* \"contracts/Pool/Pool.sol\":13383:13394  currentRate */\n      dup6\n        /* \"contracts/Pool/Pool.sol\":13371:13378  tAmount */\n      dup10\n        /* \"contracts/Pool/Pool.sol\":13371:13382  tAmount.mul */\n      tag_417\n      swap1\n        /* \"contracts/Pool/Pool.sol\":13371:13395  tAmount.mul(currentRate) */\n      swap2\n      swap1\n      0xffffffff\n      and\n      jump\t// in\n    tag_430:\n        /* \"contracts/Pool/Pool.sol\":13353:13395  uint256 rAmount = tAmount.mul(currentRate) */\n      swap1\n      pop\n        /* \"contracts/Pool/Pool.sol\":13405:13417  uint256 rFee */\n      0x00\n        /* \"contracts/Pool/Pool.sol\":13420:13441  tFee.mul(currentRate) */\n      tag_431\n        /* \"contracts/Pool/Pool.sol\":13429:13440  currentRate */\n      dup7\n        /* \"contracts/Pool/Pool.sol\":13420:13424  tFee */\n      dup10\n        /* \"contracts/Pool/Pool.sol\":13420:13428  tFee.mul */\n      tag_417\n      swap1\n        /* \"contracts/Pool/Pool.sol\":13420:13441  tFee.mul(currentRate) */\n      swap2\n      swap1\n      0xffffffff\n      and\n      jump\t// in\n    tag_431:\n        /* \"contracts/Pool/Pool.sol\":13405:13441  uint256 rFee = tFee.mul(currentRate) */\n      swap1\n      pop\n        /* \"contracts/Pool/Pool.sol\":13451:13464  uint256 rTeam */\n      0x00\n        /* \"contracts/Pool/Pool.sol\":13467:13489  tTeam.mul(currentRate) */\n      tag_432\n        /* \"contracts/Pool/Pool.sol\":13477:13488  currentRate */\n      dup8\n        /* \"contracts/Pool/Pool.sol\":13467:13472  tTeam */\n      dup10\n        /* \"contracts/Pool/Pool.sol\":13467:13476  tTeam.mul */\n      tag_417\n      swap1\n        /* \"contracts/Pool/Pool.sol\":13467:13489  tTeam.mul(currentRate) */\n      swap2\n      swap1\n      0xffffffff\n      and\n      jump\t// in\n    tag_432:\n        /* \"contracts/Pool/Pool.sol\":13451:13489  uint256 rTeam = tTeam.mul(currentRate) */\n      swap1\n      pop\n        /* \"contracts/Pool/Pool.sol\":13499:13522  uint256 rTransferAmount */\n      0x00\n        /* \"contracts/Pool/Pool.sol\":13525:13553  rAmount.sub(rFee).sub(rTeam) */\n      tag_433\n        /* \"contracts/Pool/Pool.sol\":13547:13552  rTeam */\n      dup3\n        /* \"contracts/Pool/Pool.sol\":13525:13542  rAmount.sub(rFee) */\n      tag_434\n        /* \"contracts/Pool/Pool.sol\":13537:13541  rFee */\n      dup6\n        /* \"contracts/Pool/Pool.sol\":13525:13532  rAmount */\n      dup8\n        /* \"contracts/Pool/Pool.sol\":13525:13536  rAmount.sub */\n      tag_384\n      swap1\n        /* \"contracts/Pool/Pool.sol\":13525:13542  rAmount.sub(rFee) */\n      swap2\n      swap1\n      0xffffffff\n      and\n      jump\t// in\n    tag_434:\n        /* \"contracts/Pool/Pool.sol\":13525:13546  rAmount.sub(rFee).sub */\n      tag_384\n      swap1\n        /* \"contracts/Pool/Pool.sol\":13525:13553  rAmount.sub(rFee).sub(rTeam) */\n      swap2\n      swap1\n      0xffffffff\n      and\n      jump\t// in\n    tag_433:\n        /* \"contracts/Pool/Pool.sol\":13499:13553  uint256 rTransferAmount = rAmount.sub(rFee).sub(rTeam) */\n      swap1\n      pop\n        /* \"contracts/Pool/Pool.sol\":13571:13578  rAmount */\n      dup4\n        /* \"contracts/Pool/Pool.sol\":13580:13595  rTransferAmount */\n      dup2\n        /* \"contracts/Pool/Pool.sol\":13597:13601  rFee */\n      dup5\n        /* \"contracts/Pool/Pool.sol\":13563:13602  return (rAmount, rTransferAmount, rFee) */\n      swap7\n      pop\n      swap7\n      pop\n      swap7\n      pop\n      pop\n      pop\n      pop\n      pop\n        /* \"contracts/Pool/Pool.sol\":13206:13609  function _getRValues(uint256 tAmount, uint256 tFee, uint256 tTeam, uint256 currentRate) private pure returns (uint256, uint256, uint256) {... */\n      swap5\n      pop\n      swap5\n      pop\n      swap5\n      swap2\n      pop\n      pop\n      jump\t// out\n        /* \"contracts/Pool/Pool.sol\":2359:2598  function mul(uint256 a, uint256 b) internal pure returns (uint256) {... */\n    tag_417:\n        /* \"contracts/Pool/Pool.sol\":2417:2424  uint256 */\n      0x00\n        /* \"contracts/Pool/Pool.sol\":2445:2446  0 */\n      dup1\n        /* \"contracts/Pool/Pool.sol\":2440:2441  a */\n      dup4\n        /* \"contracts/Pool/Pool.sol\":2440:2446  a == 0 */\n      sub\n        /* \"contracts/Pool/Pool.sol\":2436:2481  if (a == 0) {... */\n      tag_436\n      jumpi\n        /* \"contracts/Pool/Pool.sol\":2469:2470  0 */\n      0x00\n        /* \"contracts/Pool/Pool.sol\":2462:2470  return 0 */\n      swap1\n      pop\n      jump(tag_435)\n        /* \"contracts/Pool/Pool.sol\":2436:2481  if (a == 0) {... */\n    tag_436:\n        /* \"contracts/Pool/Pool.sol\":2490:2499  uint256 c */\n      0x00\n        /* \"contracts/Pool/Pool.sol\":2506:2507  b */\n      dup3\n        /* \"contracts/Pool/Pool.sol\":2502:2503  a */\n      dup5\n        /* \"contracts/Pool/Pool.sol\":2502:2507  a * b */\n      tag_437\n      swap2\n      swap1\n      tag_438\n      jump\t// in\n    tag_437:\n        /* \"contracts/Pool/Pool.sol\":2490:2507  uint256 c = a * b */\n      swap1\n      pop\n        /* \"contracts/Pool/Pool.sol\":2534:2535  b */\n      dup3\n        /* \"contracts/Pool/Pool.sol\":2529:2530  a */\n      dup5\n        /* \"contracts/Pool/Pool.sol\":2525:2526  c */\n      dup3\n        /* \"contracts/Pool/Pool.sol\":2525:2530  c / a */\n      tag_439\n      swap2\n      swap1\n      tag_396\n      jump\t// in\n    tag_439:\n        /* \"contracts/Pool/Pool.sol\":2525:2535  c / a == b */\n      eq\n        /* \"contracts/Pool/Pool.sol\":2517:2573  require(c / a == b, \"SafeMath: multiplication overflow\") */\n      tag_440\n      jumpi\n      mload(0x40)\n      0x08c379a000000000000000000000000000000000000000000000000000000000\n      dup2\n      mstore\n      0x04\n      add\n      tag_441\n      swap1\n      tag_442\n      jump\t// in\n    tag_441:\n      mload(0x40)\n      dup1\n      swap2\n      sub\n      swap1\n      revert\n    tag_440:\n        /* \"contracts/Pool/Pool.sol\":2590:2591  c */\n      dup1\n        /* \"contracts/Pool/Pool.sol\":2583:2591  return c */\n      swap2\n      pop\n      pop\n        /* \"contracts/Pool/Pool.sol\":2359:2598  function mul(uint256 a, uint256 b) internal pure returns (uint256) {... */\n    tag_435:\n      swap3\n      swap2\n      pop\n      pop\n      jump\t// out\n        /* \"#utility.yul\":7:106   */\n    tag_443:\n        /* \"#utility.yul\":59:65   */\n      0x00\n        /* \"#utility.yul\":93:98   */\n      dup2\n        /* \"#utility.yul\":87:99   */\n      mload\n        /* \"#utility.yul\":77:99   */\n      swap1\n      pop\n        /* \"#utility.yul\":7:106   */\n      swap2\n      swap1\n      pop\n      jump\t// out\n        /* \"#utility.yul\":112:281   */\n    tag_444:\n        /* \"#utility.yul\":196:207   */\n      0x00\n        /* \"#utility.yul\":230:236   */\n      dup3\n        /* \"#utility.yul\":225:228   */\n      dup3\n        /* \"#utility.yul\":218:237   */\n      mstore\n        /* \"#utility.yul\":270:274   */\n      0x20\n        /* \"#utility.yul\":265:268   */\n      dup3\n        /* \"#utility.yul\":261:275   */\n      add\n        /* \"#utility.yul\":246:275   */\n      swap1\n      pop\n        /* \"#utility.yul\":112:281   */\n      swap3\n      swap2\n      pop\n      pop\n      jump\t// out\n        /* \"#utility.yul\":287:594   */\n    tag_445:\n        /* \"#utility.yul\":355:356   */\n      0x00\n        /* \"#utility.yul\":365:478   */\n    tag_522:\n        /* \"#utility.yul\":379:385   */\n      dup4\n        /* \"#utility.yul\":376:377   */\n      dup2\n        /* \"#utility.yul\":373:386   */\n      lt\n        /* \"#utility.yul\":365:478   */\n      iszero\n      tag_524\n      jumpi\n        /* \"#utility.yul\":464:465   */\n      dup1\n        /* \"#utility.yul\":459:462   */\n      dup3\n        /* \"#utility.yul\":455:466   */\n      add\n        /* \"#utility.yul\":449:467   */\n      mload\n        /* \"#utility.yul\":445:446   */\n      dup2\n        /* \"#utility.yul\":440:443   */\n      dup5\n        /* \"#utility.yul\":436:447   */\n      add\n        /* \"#utility.yul\":429:468   */\n      mstore\n        /* \"#utility.yul\":401:403   */\n      0x20\n        /* \"#utility.yul\":398:399   */\n      dup2\n        /* \"#utility.yul\":394:404   */\n      add\n        /* \"#utility.yul\":389:404   */\n      swap1\n      pop\n        /* \"#utility.yul\":365:478   */\n      jump(tag_522)\n    tag_524:\n        /* \"#utility.yul\":496:502   */\n      dup4\n        /* \"#utility.yul\":493:494   */\n      dup2\n        /* \"#utility.yul\":490:503   */\n      gt\n        /* \"#utility.yul\":487:588   */\n      iszero\n      tag_525\n      jumpi\n        /* \"#utility.yul\":576:577   */\n      0x00\n        /* \"#utility.yul\":567:573   */\n      dup5\n        /* \"#utility.yul\":562:565   */\n      dup5\n        /* \"#utility.yul\":558:574   */\n      add\n        /* \"#utility.yul\":551:578   */\n      mstore\n        /* \"#utility.yul\":487:588   */\n    tag_525:\n        /* \"#utility.yul\":336:594   */\n      pop\n        /* \"#utility.yul\":287:594   */\n      pop\n      pop\n      pop\n      jump\t// out\n        /* \"#utility.yul\":600:702   */\n    tag_446:\n        /* \"#utility.yul\":641:647   */\n      0x00\n        /* \"#utility.yul\":692:694   */\n      0x1f\n        /* \"#utility.yul\":688:695   */\n      not\n        /* \"#utility.yul\":683:685   */\n      0x1f\n        /* \"#utility.yul\":676:681   */\n      dup4\n        /* \"#utility.yul\":672:686   */\n      add\n        /* \"#utility.yul\":668:696   */\n      and\n        /* \"#utility.yul\":658:696   */\n      swap1\n      pop\n        /* \"#utility.yul\":600:702   */\n      swap2\n      swap1\n      pop\n      jump\t// out\n        /* \"#utility.yul\":708:1072   */\n    tag_447:\n        /* \"#utility.yul\":796:799   */\n      0x00\n        /* \"#utility.yul\":824:863   */\n      tag_528\n        /* \"#utility.yul\":857:862   */\n      dup3\n        /* \"#utility.yul\":824:863   */\n      tag_443\n      jump\t// in\n    tag_528:\n        /* \"#utility.yul\":879:950   */\n      tag_529\n        /* \"#utility.yul\":943:949   */\n      dup2\n        /* \"#utility.yul\":938:941   */\n      dup6\n        /* \"#utility.yul\":879:950   */\n      tag_444\n      jump\t// in\n    tag_529:\n        /* \"#utility.yul\":872:950   */\n      swap4\n      pop\n        /* \"#utility.yul\":959:1011   */\n      tag_530\n        /* \"#utility.yul\":1004:1010   */\n      dup2\n        /* \"#utility.yul\":999:1002   */\n      dup6\n        /* \"#utility.yul\":992:996   */\n      0x20\n        /* \"#utility.yul\":985:990   */\n      dup7\n        /* \"#utility.yul\":981:997   */\n      add\n        /* \"#utility.yul\":959:1011   */\n      tag_445\n      jump\t// in\n    tag_530:\n        /* \"#utility.yul\":1036:1065   */\n      tag_531\n        /* \"#utility.yul\":1058:1064   */\n      dup2\n        /* \"#utility.yul\":1036:1065   */\n      tag_446\n      jump\t// in\n    tag_531:\n        /* \"#utility.yul\":1031:1034   */\n      dup5\n        /* \"#utility.yul\":1027:1066   */\n      add\n        /* \"#utility.yul\":1020:1066   */\n      swap2\n      pop\n        /* \"#utility.yul\":800:1072   */\n      pop\n        /* \"#utility.yul\":708:1072   */\n      swap3\n      swap2\n      pop\n      pop\n      jump\t// out\n        /* \"#utility.yul\":1078:1391   */\n    tag_39:\n        /* \"#utility.yul\":1191:1195   */\n      0x00\n        /* \"#utility.yul\":1229:1231   */\n      0x20\n        /* \"#utility.yul\":1218:1227   */\n      dup3\n        /* \"#utility.yul\":1214:1232   */\n      add\n        /* \"#utility.yul\":1206:1232   */\n      swap1\n      pop\n        /* \"#utility.yul\":1278:1287   */\n      dup2\n        /* \"#utility.yul\":1272:1276   */\n      dup2\n        /* \"#utility.yul\":1268:1288   */\n      sub\n        /* \"#utility.yul\":1264:1265   */\n      0x00\n        /* \"#utility.yul\":1253:1262   */\n      dup4\n        /* \"#utility.yul\":1249:1266   */\n      add\n        /* \"#utility.yul\":1242:1289   */\n      mstore\n        /* \"#utility.yul\":1306:1384   */\n      tag_533\n        /* \"#utility.yul\":1379:1383   */\n      dup2\n        /* \"#utility.yul\":1370:1376   */\n      dup5\n        /* \"#utility.yul\":1306:1384   */\n      tag_447\n      jump\t// in\n    tag_533:\n        /* \"#utility.yul\":1298:1384   */\n      swap1\n      pop\n        /* \"#utility.yul\":1078:1391   */\n      swap3\n      swap2\n      pop\n      pop\n      jump\t// out\n        /* \"#utility.yul\":1478:1595   */\n    tag_449:\n        /* \"#utility.yul\":1587:1588   */\n      0x00\n        /* \"#utility.yul\":1584:1585   */\n      dup1\n        /* \"#utility.yul\":1577:1589   */\n      revert\n        /* \"#utility.yul\":1601:1718   */\n    tag_450:\n        /* \"#utility.yul\":1710:1711   */\n      0x00\n        /* \"#utility.yul\":1707:1708   */\n      dup1\n        /* \"#utility.yul\":1700:1712   */\n      revert\n        /* \"#utility.yul\":1724:1850   */\n    tag_451:\n        /* \"#utility.yul\":1761:1768   */\n      0x00\n        /* \"#utility.yul\":1801:1843   */\n      0xffffffffffffffffffffffffffffffffffffffff\n        /* \"#utility.yul\":1794:1799   */\n      dup3\n        /* \"#utility.yul\":1790:1844   */\n      and\n        /* \"#utility.yul\":1779:1844   */\n      swap1\n      pop\n        /* \"#utility.yul\":1724:1850   */\n      swap2\n      swap1\n      pop\n      jump\t// out\n        /* \"#utility.yul\":1856:1952   */\n    tag_452:\n        /* \"#utility.yul\":1893:1900   */\n      0x00\n        /* \"#utility.yul\":1922:1946   */\n      tag_539\n        /* \"#utility.yul\":1940:1945   */\n      dup3\n        /* \"#utility.yul\":1922:1946   */\n      tag_451\n      jump\t// in\n    tag_539:\n        /* \"#utility.yul\":1911:1946   */\n      swap1\n      pop\n        /* \"#utility.yul\":1856:1952   */\n      swap2\n      swap1\n      pop\n      jump\t// out\n        /* \"#utility.yul\":1958:2080   */\n    tag_453:\n        /* \"#utility.yul\":2031:2055   */\n      tag_541\n        /* \"#utility.yul\":2049:2054   */\n      dup2\n        /* \"#utility.yul\":2031:2055   */\n      tag_452\n      jump\t// in\n    tag_541:\n        /* \"#utility.yul\":2024:2029   */\n      dup2\n        /* \"#utility.yul\":2021:2056   */\n      eq\n        /* \"#utility.yul\":2011:2074   */\n      tag_542\n      jumpi\n        /* \"#utility.yul\":2070:2071   */\n      0x00\n        /* \"#utility.yul\":2067:2068   */\n      dup1\n        /* \"#utility.yul\":2060:2072   */\n      revert\n        /* \"#utility.yul\":2011:2074   */\n    tag_542:\n        /* \"#utility.yul\":1958:2080   */\n      pop\n      jump\t// out\n        /* \"#utility.yul\":2086:2225   */\n    tag_454:\n        /* \"#utility.yul\":2132:2137   */\n      0x00\n        /* \"#utility.yul\":2170:2176   */\n      dup2\n        /* \"#utility.yul\":2157:2177   */\n      calldataload\n        /* \"#utility.yul\":2148:2177   */\n      swap1\n      pop\n        /* \"#utility.yul\":2186:2219   */\n      tag_544\n        /* \"#utility.yul\":2213:2218   */\n      dup2\n        /* \"#utility.yul\":2186:2219   */\n      tag_453\n      jump\t// in\n    tag_544:\n        /* \"#utility.yul\":2086:2225   */\n      swap3\n      swap2\n      pop\n      pop\n      jump\t// out\n        /* \"#utility.yul\":2231:2308   */\n    tag_455:\n        /* \"#utility.yul\":2268:2275   */\n      0x00\n        /* \"#utility.yul\":2297:2302   */\n      dup2\n        /* \"#utility.yul\":2286:2302   */\n      swap1\n      pop\n        /* \"#utility.yul\":2231:2308   */\n      swap2\n      swap1\n      pop\n      jump\t// out\n        /* \"#utility.yul\":2314:2436   */\n    tag_456:\n        /* \"#utility.yul\":2387:2411   */\n      tag_547\n        /* \"#utility.yul\":2405:2410   */\n      dup2\n        /* \"#utility.yul\":2387:2411   */\n      tag_455\n      jump\t// in\n    tag_547:\n        /* \"#utility.yul\":2380:2385   */\n      dup2\n        /* \"#utility.yul\":2377:2412   */\n      eq\n        /* \"#utility.yul\":2367:2430   */\n      tag_548\n      jumpi\n        /* \"#utility.yul\":2426:2427   */\n      0x00\n        /* \"#utility.yul\":2423:2424   */\n      dup1\n        /* \"#utility.yul\":2416:2428   */\n      revert\n        /* \"#utility.yul\":2367:2430   */\n    tag_548:\n        /* \"#utility.yul\":2314:2436   */\n      pop\n      jump\t// out\n        /* \"#utility.yul\":2442:2581   */\n    tag_457:\n        /* \"#utility.yul\":2488:2493   */\n      0x00\n        /* \"#utility.yul\":2526:2532   */\n      dup2\n        /* \"#utility.yul\":2513:2533   */\n      calldataload\n        /* \"#utility.yul\":2504:2533   */\n      swap1\n      pop\n        /* \"#utility.yul\":2542:2575   */\n      tag_550\n        /* \"#utility.yul\":2569:2574   */\n      dup2\n        /* \"#utility.yul\":2542:2575   */\n      tag_456\n      jump\t// in\n    tag_550:\n        /* \"#utility.yul\":2442:2581   */\n      swap3\n      swap2\n      pop\n      pop\n      jump\t// out\n        /* \"#utility.yul\":2587:3061   */\n    tag_43:\n        /* \"#utility.yul\":2655:2661   */\n      0x00\n        /* \"#utility.yul\":2663:2669   */\n      dup1\n        /* \"#utility.yul\":2712:2714   */\n      0x40\n        /* \"#utility.yul\":2700:2709   */\n      dup4\n        /* \"#utility.yul\":2691:2698   */\n      dup6\n        /* \"#utility.yul\":2687:2710   */\n      sub\n        /* \"#utility.yul\":2683:2715   */\n      slt\n        /* \"#utility.yul\":2680:2799   */\n      iszero\n      tag_552\n      jumpi\n        /* \"#utility.yul\":2718:2797   */\n      tag_553\n      tag_449\n      jump\t// in\n    tag_553:\n        /* \"#utility.yul\":2680:2799   */\n    tag_552:\n        /* \"#utility.yul\":2838:2839   */\n      0x00\n        /* \"#utility.yul\":2863:2916   */\n      tag_554\n        /* \"#utility.yul\":2908:2915   */\n      dup6\n        /* \"#utility.yul\":2899:2905   */\n      dup3\n        /* \"#utility.yul\":2888:2897   */\n      dup7\n        /* \"#utility.yul\":2884:2906   */\n      add\n        /* \"#utility.yul\":2863:2916   */\n      tag_454\n      jump\t// in\n    tag_554:\n        /* \"#utility.yul\":2853:2916   */\n      swap3\n      pop\n        /* \"#utility.yul\":2809:2926   */\n      pop\n        /* \"#utility.yul\":2965:2967   */\n      0x20\n        /* \"#utility.yul\":2991:3044   */\n      tag_555\n        /* \"#utility.yul\":3036:3043   */\n      dup6\n        /* \"#utility.yul\":3027:3033   */\n      dup3\n        /* \"#utility.yul\":3016:3025   */\n      dup7\n        /* \"#utility.yul\":3012:3034   */\n      add\n        /* \"#utility.yul\":2991:3044   */\n      tag_457\n      jump\t// in\n    tag_555:\n        /* \"#utility.yul\":2981:3044   */\n      swap2\n      pop\n        /* \"#utility.yul\":2936:3054   */\n      pop\n        /* \"#utility.yul\":2587:3061   */\n      swap3\n      pop\n      swap3\n      swap1\n      pop\n      jump\t// out\n        /* \"#utility.yul\":3067:3157   */\n    tag_458:\n        /* \"#utility.yul\":3101:3108   */\n      0x00\n        /* \"#utility.yul\":3144:3149   */\n      dup2\n        /* \"#utility.yul\":3137:3150   */\n      iszero\n        /* \"#utility.yul\":3130:3151   */\n      iszero\n        /* \"#utility.yul\":3119:3151   */\n      swap1\n      pop\n        /* \"#utility.yul\":3067:3157   */\n      swap2\n      swap1\n      pop\n      jump\t// out\n        /* \"#utility.yul\":3163:3272   */\n    tag_459:\n        /* \"#utility.yul\":3244:3265   */\n      tag_558\n        /* \"#utility.yul\":3259:3264   */\n      dup2\n        /* \"#utility.yul\":3244:3265   */\n      tag_458\n      jump\t// in\n    tag_558:\n        /* \"#utility.yul\":3239:3242   */\n      dup3\n        /* \"#utility.yul\":3232:3266   */\n      mstore\n        /* \"#utility.yul\":3163:3272   */\n      pop\n      pop\n      jump\t// out\n        /* \"#utility.yul\":3278:3488   */\n    tag_46:\n        /* \"#utility.yul\":3365:3369   */\n      0x00\n        /* \"#utility.yul\":3403:3405   */\n      0x20\n        /* \"#utility.yul\":3392:3401   */\n      dup3\n        /* \"#utility.yul\":3388:3406   */\n      add\n        /* \"#utility.yul\":3380:3406   */\n      swap1\n      pop\n        /* \"#utility.yul\":3416:3481   */\n      tag_560\n        /* \"#utility.yul\":3478:3479   */\n      0x00\n        /* \"#utility.yul\":3467:3476   */\n      dup4\n        /* \"#utility.yul\":3463:3480   */\n      add\n        /* \"#utility.yul\":3454:3460   */\n      dup5\n        /* \"#utility.yul\":3416:3481   */\n      tag_459\n      jump\t// in\n    tag_560:\n        /* \"#utility.yul\":3278:3488   */\n      swap3\n      swap2\n      pop\n      pop\n      jump\t// out\n        /* \"#utility.yul\":3494:3554   */\n    tag_460:\n        /* \"#utility.yul\":3522:3525   */\n      0x00\n        /* \"#utility.yul\":3543:3548   */\n      dup2\n        /* \"#utility.yul\":3536:3548   */\n      swap1\n      pop\n        /* \"#utility.yul\":3494:3554   */\n      swap2\n      swap1\n      pop\n      jump\t// out\n        /* \"#utility.yul\":3560:3702   */\n    tag_461:\n        /* \"#utility.yul\":3610:3619   */\n      0x00\n        /* \"#utility.yul\":3643:3696   */\n      tag_563\n        /* \"#utility.yul\":3661:3695   */\n      tag_564\n        /* \"#utility.yul\":3670:3694   */\n      tag_565\n        /* \"#utility.yul\":3688:3693   */\n      dup5\n        /* \"#utility.yul\":3670:3694   */\n      tag_451\n      jump\t// in\n    tag_565:\n        /* \"#utility.yul\":3661:3695   */\n      tag_460\n      jump\t// in\n    tag_564:\n        /* \"#utility.yul\":3643:3696   */\n      tag_451\n      jump\t// in\n    tag_563:\n        /* \"#utility.yul\":3630:3696   */\n      swap1\n      pop\n        /* \"#utility.yul\":3560:3702   */\n      swap2\n      swap1\n      pop\n      jump\t// out\n        /* \"#utility.yul\":3708:3834   */\n    tag_462:\n        /* \"#utility.yul\":3758:3767   */\n      0x00\n        /* \"#utility.yul\":3791:3828   */\n      tag_567\n        /* \"#utility.yul\":3822:3827   */\n      dup3\n        /* \"#utility.yul\":3791:3828   */\n      tag_461\n      jump\t// in\n    tag_567:\n        /* \"#utility.yul\":3778:3828   */\n      swap1\n      pop\n        /* \"#utility.yul\":3708:3834   */\n      swap2\n      swap1\n      pop\n      jump\t// out\n        /* \"#utility.yul\":3840:3992   */\n    tag_463:\n        /* \"#utility.yul\":3916:3925   */\n      0x00\n        /* \"#utility.yul\":3949:3986   */\n      tag_569\n        /* \"#utility.yul\":3980:3985   */\n      dup3\n        /* \"#utility.yul\":3949:3986   */\n      tag_462\n      jump\t// in\n    tag_569:\n        /* \"#utility.yul\":3936:3986   */\n      swap1\n      pop\n        /* \"#utility.yul\":3840:3992   */\n      swap2\n      swap1\n      pop\n      jump\t// out\n        /* \"#utility.yul\":3998:4181   */\n    tag_464:\n        /* \"#utility.yul\":4111:4174   */\n      tag_571\n        /* \"#utility.yul\":4168:4173   */\n      dup2\n        /* \"#utility.yul\":4111:4174   */\n      tag_463\n      jump\t// in\n    tag_571:\n        /* \"#utility.yul\":4106:4109   */\n      dup3\n        /* \"#utility.yul\":4099:4175   */\n      mstore\n        /* \"#utility.yul\":3998:4181   */\n      pop\n      pop\n      jump\t// out\n        /* \"#utility.yul\":4187:4461   */\n    tag_51:\n        /* \"#utility.yul\":4306:4310   */\n      0x00\n        /* \"#utility.yul\":4344:4346   */\n      0x20\n        /* \"#utility.yul\":4333:4342   */\n      dup3\n        /* \"#utility.yul\":4329:4347   */\n      add\n        /* \"#utility.yul\":4321:4347   */\n      swap1\n      pop\n        /* \"#utility.yul\":4357:4454   */\n      tag_573\n        /* \"#utility.yul\":4451:4452   */\n      0x00\n        /* \"#utility.yul\":4440:4449   */\n      dup4\n        /* \"#utility.yul\":4436:4453   */\n      add\n        /* \"#utility.yul\":4427:4433   */\n      dup5\n        /* \"#utility.yul\":4357:4454   */\n      tag_464\n      jump\t// in\n    tag_573:\n        /* \"#utility.yul\":4187:4461   */\n      swap3\n      swap2\n      pop\n      pop\n      jump\t// out\n        /* \"#utility.yul\":4467:4585   */\n    tag_465:\n        /* \"#utility.yul\":4554:4578   */\n      tag_575\n        /* \"#utility.yul\":4572:4577   */\n      dup2\n        /* \"#utility.yul\":4554:4578   */\n      tag_455\n      jump\t// in\n    tag_575:\n        /* \"#utility.yul\":4549:4552   */\n      dup3\n        /* \"#utility.yul\":4542:4579   */\n      mstore\n        /* \"#utility.yul\":4467:4585   */\n      pop\n      pop\n      jump\t// out\n        /* \"#utility.yul\":4591:4813   */\n    tag_56:\n        /* \"#utility.yul\":4684:4688   */\n      0x00\n        /* \"#utility.yul\":4722:4724   */\n      0x20\n        /* \"#utility.yul\":4711:4720   */\n      dup3\n        /* \"#utility.yul\":4707:4725   */\n      add\n        /* \"#utility.yul\":4699:4725   */\n      swap1\n      pop\n        /* \"#utility.yul\":4735:4806   */\n      tag_577\n        /* \"#utility.yul\":4803:4804   */\n      0x00\n        /* \"#utility.yul\":4792:4801   */\n      dup4\n        /* \"#utility.yul\":4788:4805   */\n      add\n        /* \"#utility.yul\":4779:4785   */\n      dup5\n        /* \"#utility.yul\":4735:4806   */\n      tag_465\n      jump\t// in\n    tag_577:\n        /* \"#utility.yul\":4591:4813   */\n      swap3\n      swap2\n      pop\n      pop\n      jump\t// out\n        /* \"#utility.yul\":4819:5438   */\n    tag_60:\n        /* \"#utility.yul\":4896:4902   */\n      0x00\n        /* \"#utility.yul\":4904:4910   */\n      dup1\n        /* \"#utility.yul\":4912:4918   */\n      0x00\n        /* \"#utility.yul\":4961:4963   */\n      0x60\n        /* \"#utility.yul\":4949:4958   */\n      dup5\n        /* \"#utility.yul\":4940:4947   */\n      dup7\n        /* \"#utility.yul\":4936:4959   */\n      sub\n        /* \"#utility.yul\":4932:4964   */\n      slt\n        /* \"#utility.yul\":4929:5048   */\n      iszero\n      tag_579\n      jumpi\n        /* \"#utility.yul\":4967:5046   */\n      tag_580\n      tag_449\n      jump\t// in\n    tag_580:\n        /* \"#utility.yul\":4929:5048   */\n    tag_579:\n        /* \"#utility.yul\":5087:5088   */\n      0x00\n        /* \"#utility.yul\":5112:5165   */\n      tag_581\n        /* \"#utility.yul\":5157:5164   */\n      dup7\n        /* \"#utility.yul\":5148:5154   */\n      dup3\n        /* \"#utility.yul\":5137:5146   */\n      dup8\n        /* \"#utility.yul\":5133:5155   */\n      add\n        /* \"#utility.yul\":5112:5165   */\n      tag_454\n      jump\t// in\n    tag_581:\n        /* \"#utility.yul\":5102:5165   */\n      swap4\n      pop\n        /* \"#utility.yul\":5058:5175   */\n      pop\n        /* \"#utility.yul\":5214:5216   */\n      0x20\n        /* \"#utility.yul\":5240:5293   */\n      tag_582\n        /* \"#utility.yul\":5285:5292   */\n      dup7\n        /* \"#utility.yul\":5276:5282   */\n      dup3\n        /* \"#utility.yul\":5265:5274   */\n      dup8\n        /* \"#utility.yul\":5261:5283   */\n      add\n        /* \"#utility.yul\":5240:5293   */\n      tag_454\n      jump\t// in\n    tag_582:\n        /* \"#utility.yul\":5230:5293   */\n      swap3\n      pop\n        /* \"#utility.yul\":5185:5303   */\n      pop\n        /* \"#utility.yul\":5342:5344   */\n      0x40\n        /* \"#utility.yul\":5368:5421   */\n      tag_583\n        /* \"#utility.yul\":5413:5420   */\n      dup7\n        /* \"#utility.yul\":5404:5410   */\n      dup3\n        /* \"#utility.yul\":5393:5402   */\n      dup8\n        /* \"#utility.yul\":5389:5411   */\n      add\n        /* \"#utility.yul\":5368:5421   */\n      tag_457\n      jump\t// in\n    tag_583:\n        /* \"#utility.yul\":5358:5421   */\n      swap2\n      pop\n        /* \"#utility.yul\":5313:5431   */\n      pop\n        /* \"#utility.yul\":4819:5438   */\n      swap3\n      pop\n      swap3\n      pop\n      swap3\n      jump\t// out\n        /* \"#utility.yul\":5444:5530   */\n    tag_466:\n        /* \"#utility.yul\":5479:5486   */\n      0x00\n        /* \"#utility.yul\":5519:5523   */\n      0xff\n        /* \"#utility.yul\":5512:5517   */\n      dup3\n        /* \"#utility.yul\":5508:5524   */\n      and\n        /* \"#utility.yul\":5497:5524   */\n      swap1\n      pop\n        /* \"#utility.yul\":5444:5530   */\n      swap2\n      swap1\n      pop\n      jump\t// out\n        /* \"#utility.yul\":5536:5648   */\n    tag_467:\n        /* \"#utility.yul\":5619:5641   */\n      tag_586\n        /* \"#utility.yul\":5635:5640   */\n      dup2\n        /* \"#utility.yul\":5619:5641   */\n      tag_466\n      jump\t// in\n    tag_586:\n        /* \"#utility.yul\":5614:5617   */\n      dup3\n        /* \"#utility.yul\":5607:5642   */\n      mstore\n        /* \"#utility.yul\":5536:5648   */\n      pop\n      pop\n      jump\t// out\n        /* \"#utility.yul\":5654:5868   */\n    tag_67:\n        /* \"#utility.yul\":5743:5747   */\n      0x00\n        /* \"#utility.yul\":5781:5783   */\n      0x20\n        /* \"#utility.yul\":5770:5779   */\n      dup3\n        /* \"#utility.yul\":5766:5784   */\n      add\n        /* \"#utility.yul\":5758:5784   */\n      swap1\n      pop\n        /* \"#utility.yul\":5794:5861   */\n      tag_588\n        /* \"#utility.yul\":5858:5859   */\n      0x00\n        /* \"#utility.yul\":5847:5856   */\n      dup4\n        /* \"#utility.yul\":5843:5860   */\n      add\n        /* \"#utility.yul\":5834:5840   */\n      dup5\n        /* \"#utility.yul\":5794:5861   */\n      tag_467\n      jump\t// in\n    tag_588:\n        /* \"#utility.yul\":5654:5868   */\n      swap3\n      swap2\n      pop\n      pop\n      jump\t// out\n        /* \"#utility.yul\":5874:5992   */\n    tag_468:\n        /* \"#utility.yul\":5961:5985   */\n      tag_590\n        /* \"#utility.yul\":5979:5984   */\n      dup2\n        /* \"#utility.yul\":5961:5985   */\n      tag_452\n      jump\t// in\n    tag_590:\n        /* \"#utility.yul\":5956:5959   */\n      dup3\n        /* \"#utility.yul\":5949:5986   */\n      mstore\n        /* \"#utility.yul\":5874:5992   */\n      pop\n      pop\n      jump\t// out\n        /* \"#utility.yul\":5998:6220   */\n    tag_72:\n        /* \"#utility.yul\":6091:6095   */\n      0x00\n        /* \"#utility.yul\":6129:6131   */\n      0x20\n        /* \"#utility.yul\":6118:6127   */\n      dup3\n        /* \"#utility.yul\":6114:6132   */\n      add\n        /* \"#utility.yul\":6106:6132   */\n      swap1\n      pop\n        /* \"#utility.yul\":6142:6213   */\n      tag_592\n        /* \"#utility.yul\":6210:6211   */\n      0x00\n        /* \"#utility.yul\":6199:6208   */\n      dup4\n        /* \"#utility.yul\":6195:6212   */\n      add\n        /* \"#utility.yul\":6186:6192   */\n      dup5\n        /* \"#utility.yul\":6142:6213   */\n      tag_468\n      jump\t// in\n    tag_592:\n        /* \"#utility.yul\":5998:6220   */\n      swap3\n      swap2\n      pop\n      pop\n      jump\t// out\n        /* \"#utility.yul\":6226:6376   */\n    tag_469:\n        /* \"#utility.yul\":6300:6309   */\n      0x00\n        /* \"#utility.yul\":6333:6370   */\n      tag_594\n        /* \"#utility.yul\":6364:6369   */\n      dup3\n        /* \"#utility.yul\":6333:6370   */\n      tag_462\n      jump\t// in\n    tag_594:\n        /* \"#utility.yul\":6320:6370   */\n      swap1\n      pop\n        /* \"#utility.yul\":6226:6376   */\n      swap2\n      swap1\n      pop\n      jump\t// out\n        /* \"#utility.yul\":6382:6561   */\n    tag_470:\n        /* \"#utility.yul\":6493:6554   */\n      tag_596\n        /* \"#utility.yul\":6548:6553   */\n      dup2\n        /* \"#utility.yul\":6493:6554   */\n      tag_469\n      jump\t// in\n    tag_596:\n        /* \"#utility.yul\":6488:6491   */\n      dup3\n        /* \"#utility.yul\":6481:6555   */\n      mstore\n        /* \"#utility.yul\":6382:6561   */\n      pop\n      pop\n      jump\t// out\n        /* \"#utility.yul\":6567:6837   */\n    tag_77:\n        /* \"#utility.yul\":6684:6688   */\n      0x00\n        /* \"#utility.yul\":6722:6724   */\n      0x20\n        /* \"#utility.yul\":6711:6720   */\n      dup3\n        /* \"#utility.yul\":6707:6725   */\n      add\n        /* \"#utility.yul\":6699:6725   */\n      swap1\n      pop\n        /* \"#utility.yul\":6735:6830   */\n      tag_598\n        /* \"#utility.yul\":6827:6828   */\n      0x00\n        /* \"#utility.yul\":6816:6825   */\n      dup4\n        /* \"#utility.yul\":6812:6829   */\n      add\n        /* \"#utility.yul\":6803:6809   */\n      dup5\n        /* \"#utility.yul\":6735:6830   */\n      tag_470\n      jump\t// in\n    tag_598:\n        /* \"#utility.yul\":6567:6837   */\n      swap3\n      swap2\n      pop\n      pop\n      jump\t// out\n        /* \"#utility.yul\":6843:6959   */\n    tag_471:\n        /* \"#utility.yul\":6913:6934   */\n      tag_600\n        /* \"#utility.yul\":6928:6933   */\n      dup2\n        /* \"#utility.yul\":6913:6934   */\n      tag_458\n      jump\t// in\n    tag_600:\n        /* \"#utility.yul\":6906:6911   */\n      dup2\n        /* \"#utility.yul\":6903:6935   */\n      eq\n        /* \"#utility.yul\":6893:6953   */\n      tag_601\n      jumpi\n        /* \"#utility.yul\":6949:6950   */\n      0x00\n        /* \"#utility.yul\":6946:6947   */\n      dup1\n        /* \"#utility.yul\":6939:6951   */\n      revert\n        /* \"#utility.yul\":6893:6953   */\n    tag_601:\n        /* \"#utility.yul\":6843:6959   */\n      pop\n      jump\t// out\n        /* \"#utility.yul\":6965:7098   */\n    tag_472:\n        /* \"#utility.yul\":7008:7013   */\n      0x00\n        /* \"#utility.yul\":7046:7052   */\n      dup2\n        /* \"#utility.yul\":7033:7053   */\n      calldataload\n        /* \"#utility.yul\":7024:7053   */\n      swap1\n      pop\n        /* \"#utility.yul\":7062:7092   */\n      tag_603\n        /* \"#utility.yul\":7086:7091   */\n      dup2\n        /* \"#utility.yul\":7062:7092   */\n      tag_471\n      jump\t// in\n    tag_603:\n        /* \"#utility.yul\":6965:7098   */\n      swap3\n      swap2\n      pop\n      pop\n      jump\t// out\n        /* \"#utility.yul\":7104:7427   */\n    tag_81:\n        /* \"#utility.yul\":7160:7166   */\n      0x00\n        /* \"#utility.yul\":7209:7211   */\n      0x20\n        /* \"#utility.yul\":7197:7206   */\n      dup3\n        /* \"#utility.yul\":7188:7195   */\n      dup5\n        /* \"#utility.yul\":7184:7207   */\n      sub\n        /* \"#utility.yul\":7180:7212   */\n      slt\n        /* \"#utility.yul\":7177:7296   */\n      iszero\n      tag_605\n      jumpi\n        /* \"#utility.yul\":7215:7294   */\n      tag_606\n      tag_449\n      jump\t// in\n    tag_606:\n        /* \"#utility.yul\":7177:7296   */\n    tag_605:\n        /* \"#utility.yul\":7335:7336   */\n      0x00\n        /* \"#utility.yul\":7360:7410   */\n      tag_607\n        /* \"#utility.yul\":7402:7409   */\n      dup5\n        /* \"#utility.yul\":7393:7399   */\n      dup3\n        /* \"#utility.yul\":7382:7391   */\n      dup6\n        /* \"#utility.yul\":7378:7400   */\n      add\n        /* \"#utility.yul\":7360:7410   */\n      tag_472\n      jump\t// in\n    tag_607:\n        /* \"#utility.yul\":7350:7410   */\n      swap2\n      pop\n        /* \"#utility.yul\":7306:7420   */\n      pop\n        /* \"#utility.yul\":7104:7427   */\n      swap3\n      swap2\n      pop\n      pop\n      jump\t// out\n        /* \"#utility.yul\":7433:7762   */\n    tag_89:\n        /* \"#utility.yul\":7492:7498   */\n      0x00\n        /* \"#utility.yul\":7541:7543   */\n      0x20\n        /* \"#utility.yul\":7529:7538   */\n      dup3\n        /* \"#utility.yul\":7520:7527   */\n      dup5\n        /* \"#utility.yul\":7516:7539   */\n      sub\n        /* \"#utility.yul\":7512:7544   */\n      slt\n        /* \"#utility.yul\":7509:7628   */\n      iszero\n      tag_609\n      jumpi\n        /* \"#utility.yul\":7547:7626   */\n      tag_610\n      tag_449\n      jump\t// in\n    tag_610:\n        /* \"#utility.yul\":7509:7628   */\n    tag_609:\n        /* \"#utility.yul\":7667:7668   */\n      0x00\n        /* \"#utility.yul\":7692:7745   */\n      tag_611\n        /* \"#utility.yul\":7737:7744   */\n      dup5\n        /* \"#utility.yul\":7728:7734   */\n      dup3\n        /* \"#utility.yul\":7717:7726   */\n      dup6\n        /* \"#utility.yul\":7713:7735   */\n      add\n        /* \"#utility.yul\":7692:7745   */\n      tag_454\n      jump\t// in\n    tag_611:\n        /* \"#utility.yul\":7682:7745   */\n      swap2\n      pop\n        /* \"#utility.yul\":7638:7755   */\n      pop\n        /* \"#utility.yul\":7433:7762   */\n      swap3\n      swap2\n      pop\n      pop\n      jump\t// out\n        /* \"#utility.yul\":7768:7872   */\n    tag_473:\n        /* \"#utility.yul\":7813:7820   */\n      0x00\n        /* \"#utility.yul\":7842:7866   */\n      tag_613\n        /* \"#utility.yul\":7860:7865   */\n      dup3\n        /* \"#utility.yul\":7842:7866   */\n      tag_451\n      jump\t// in\n    tag_613:\n        /* \"#utility.yul\":7831:7866   */\n      swap1\n      pop\n        /* \"#utility.yul\":7768:7872   */\n      swap2\n      swap1\n      pop\n      jump\t// out\n        /* \"#utility.yul\":7878:8016   */\n    tag_474:\n        /* \"#utility.yul\":7959:7991   */\n      tag_615\n        /* \"#utility.yul\":7985:7990   */\n      dup2\n        /* \"#utility.yul\":7959:7991   */\n      tag_473\n      jump\t// in\n    tag_615:\n        /* \"#utility.yul\":7952:7957   */\n      dup2\n        /* \"#utility.yul\":7949:7992   */\n      eq\n        /* \"#utility.yul\":7939:8010   */\n      tag_616\n      jumpi\n        /* \"#utility.yul\":8006:8007   */\n      0x00\n        /* \"#utility.yul\":8003:8004   */\n      dup1\n        /* \"#utility.yul\":7996:8008   */\n      revert\n        /* \"#utility.yul\":7939:8010   */\n    tag_616:\n        /* \"#utility.yul\":7878:8016   */\n      pop\n      jump\t// out\n        /* \"#utility.yul\":8022:8177   */\n    tag_475:\n        /* \"#utility.yul\":8076:8081   */\n      0x00\n        /* \"#utility.yul\":8114:8120   */\n      dup2\n        /* \"#utility.yul\":8101:8121   */\n      calldataload\n        /* \"#utility.yul\":8092:8121   */\n      swap1\n      pop\n        /* \"#utility.yul\":8130:8171   */\n      tag_618\n        /* \"#utility.yul\":8165:8170   */\n      dup2\n        /* \"#utility.yul\":8130:8171   */\n      tag_474\n      jump\t// in\n    tag_618:\n        /* \"#utility.yul\":8022:8177   */\n      swap3\n      swap2\n      pop\n      pop\n      jump\t// out\n        /* \"#utility.yul\":8183:8528   */\n    tag_98:\n        /* \"#utility.yul\":8250:8256   */\n      0x00\n        /* \"#utility.yul\":8299:8301   */\n      0x20\n        /* \"#utility.yul\":8287:8296   */\n      dup3\n        /* \"#utility.yul\":8278:8285   */\n      dup5\n        /* \"#utility.yul\":8274:8297   */\n      sub\n        /* \"#utility.yul\":8270:8302   */\n      slt\n        /* \"#utility.yul\":8267:8386   */\n      iszero\n      tag_620\n      jumpi\n        /* \"#utility.yul\":8305:8384   */\n      tag_621\n      tag_449\n      jump\t// in\n    tag_621:\n        /* \"#utility.yul\":8267:8386   */\n    tag_620:\n        /* \"#utility.yul\":8425:8426   */\n      0x00\n        /* \"#utility.yul\":8450:8511   */\n      tag_622\n        /* \"#utility.yul\":8503:8510   */\n      dup5\n        /* \"#utility.yul\":8494:8500   */\n      dup3\n        /* \"#utility.yul\":8483:8492   */\n      dup6\n        /* \"#utility.yul\":8479:8501   */\n      add\n        /* \"#utility.yul\":8450:8511   */\n      tag_475\n      jump\t// in\n    tag_622:\n        /* \"#utility.yul\":8440:8511   */\n      swap2\n      pop\n        /* \"#utility.yul\":8396:8521   */\n      pop\n        /* \"#utility.yul\":8183:8528   */\n      swap3\n      swap2\n      pop\n      pop\n      jump\t// out\n        /* \"#utility.yul\":8534:9299   */\n    tag_111:\n        /* \"#utility.yul\":8620:8626   */\n      0x00\n        /* \"#utility.yul\":8628:8634   */\n      dup1\n        /* \"#utility.yul\":8636:8642   */\n      0x00\n        /* \"#utility.yul\":8644:8650   */\n      dup1\n        /* \"#utility.yul\":8693:8696   */\n      0x80\n        /* \"#utility.yul\":8681:8690   */\n      dup6\n        /* \"#utility.yul\":8672:8679   */\n      dup8\n        /* \"#utility.yul\":8668:8691   */\n      sub\n        /* \"#utility.yul\":8664:8697   */\n      slt\n        /* \"#utility.yul\":8661:8781   */\n      iszero\n      tag_624\n      jumpi\n        /* \"#utility.yul\":8700:8779   */\n      tag_625\n      tag_449\n      jump\t// in\n    tag_625:\n        /* \"#utility.yul\":8661:8781   */\n    tag_624:\n        /* \"#utility.yul\":8820:8821   */\n      0x00\n        /* \"#utility.yul\":8845:8898   */\n      tag_626\n        /* \"#utility.yul\":8890:8897   */\n      dup8\n        /* \"#utility.yul\":8881:8887   */\n      dup3\n        /* \"#utility.yul\":8870:8879   */\n      dup9\n        /* \"#utility.yul\":8866:8888   */\n      add\n        /* \"#utility.yul\":8845:8898   */\n      tag_457\n      jump\t// in\n    tag_626:\n        /* \"#utility.yul\":8835:8898   */\n      swap5\n      pop\n        /* \"#utility.yul\":8791:8908   */\n      pop\n        /* \"#utility.yul\":8947:8949   */\n      0x20\n        /* \"#utility.yul\":8973:9026   */\n      tag_627\n        /* \"#utility.yul\":9018:9025   */\n      dup8\n        /* \"#utility.yul\":9009:9015   */\n      dup3\n        /* \"#utility.yul\":8998:9007   */\n      dup9\n        /* \"#utility.yul\":8994:9016   */\n      add\n        /* \"#utility.yul\":8973:9026   */\n      tag_457\n      jump\t// in\n    tag_627:\n        /* \"#utility.yul\":8963:9026   */\n      swap4\n      pop\n        /* \"#utility.yul\":8918:9036   */\n      pop\n        /* \"#utility.yul\":9075:9077   */\n      0x40\n        /* \"#utility.yul\":9101:9154   */\n      tag_628\n        /* \"#utility.yul\":9146:9153   */\n      dup8\n        /* \"#utility.yul\":9137:9143   */\n      dup3\n        /* \"#utility.yul\":9126:9135   */\n      dup9\n        /* \"#utility.yul\":9122:9144   */\n      add\n        /* \"#utility.yul\":9101:9154   */\n      tag_457\n      jump\t// in\n    tag_628:\n        /* \"#utility.yul\":9091:9154   */\n      swap3\n      pop\n        /* \"#utility.yul\":9046:9164   */\n      pop\n        /* \"#utility.yul\":9203:9205   */\n      0x60\n        /* \"#utility.yul\":9229:9282   */\n      tag_629\n        /* \"#utility.yul\":9274:9281   */\n      dup8\n        /* \"#utility.yul\":9265:9271   */\n      dup3\n        /* \"#utility.yul\":9254:9263   */\n      dup9\n        /* \"#utility.yul\":9250:9272   */\n      add\n        /* \"#utility.yul\":9229:9282   */\n      tag_457\n      jump\t// in\n    tag_629:\n        /* \"#utility.yul\":9219:9282   */\n      swap2\n      pop\n        /* \"#utility.yul\":9174:9292   */\n      pop\n        /* \"#utility.yul\":8534:9299   */\n      swap3\n      swap6\n      swap2\n      swap5\n      pop\n      swap3\n      pop\n      jump\t// out\n        /* \"#utility.yul\":9305:9422   */\n    tag_476:\n        /* \"#utility.yul\":9414:9415   */\n      0x00\n        /* \"#utility.yul\":9411:9412   */\n      dup1\n        /* \"#utility.yul\":9404:9416   */\n      revert\n        /* \"#utility.yul\":9428:9545   */\n    tag_477:\n        /* \"#utility.yul\":9537:9538   */\n      0x00\n        /* \"#utility.yul\":9534:9535   */\n      dup1\n        /* \"#utility.yul\":9527:9539   */\n      revert\n        /* \"#utility.yul\":9551:9668   */\n    tag_478:\n        /* \"#utility.yul\":9660:9661   */\n      0x00\n        /* \"#utility.yul\":9657:9658   */\n      dup1\n        /* \"#utility.yul\":9650:9662   */\n      revert\n        /* \"#utility.yul\":9691:10259   */\n    tag_479:\n        /* \"#utility.yul\":9764:9772   */\n      0x00\n        /* \"#utility.yul\":9774:9780   */\n      dup1\n        /* \"#utility.yul\":9824:9827   */\n      dup4\n        /* \"#utility.yul\":9817:9821   */\n      0x1f\n        /* \"#utility.yul\":9809:9815   */\n      dup5\n        /* \"#utility.yul\":9805:9822   */\n      add\n        /* \"#utility.yul\":9801:9828   */\n      slt\n        /* \"#utility.yul\":9791:9913   */\n      tag_634\n      jumpi\n        /* \"#utility.yul\":9832:9911   */\n      tag_635\n      tag_476\n      jump\t// in\n    tag_635:\n        /* \"#utility.yul\":9791:9913   */\n    tag_634:\n        /* \"#utility.yul\":9945:9951   */\n      dup3\n        /* \"#utility.yul\":9932:9952   */\n      calldataload\n        /* \"#utility.yul\":9922:9952   */\n      swap1\n      pop\n        /* \"#utility.yul\":9975:9993   */\n      0xffffffffffffffff\n        /* \"#utility.yul\":9967:9973   */\n      dup2\n        /* \"#utility.yul\":9964:9994   */\n      gt\n        /* \"#utility.yul\":9961:10078   */\n      iszero\n      tag_636\n      jumpi\n        /* \"#utility.yul\":9997:10076   */\n      tag_637\n      tag_477\n      jump\t// in\n    tag_637:\n        /* \"#utility.yul\":9961:10078   */\n    tag_636:\n        /* \"#utility.yul\":10111:10115   */\n      0x20\n        /* \"#utility.yul\":10103:10109   */\n      dup4\n        /* \"#utility.yul\":10099:10116   */\n      add\n        /* \"#utility.yul\":10087:10116   */\n      swap2\n      pop\n        /* \"#utility.yul\":10165:10168   */\n      dup4\n        /* \"#utility.yul\":10157:10161   */\n      0x20\n        /* \"#utility.yul\":10149:10155   */\n      dup3\n        /* \"#utility.yul\":10145:10162   */\n      mul\n        /* \"#utility.yul\":10135:10143   */\n      dup4\n        /* \"#utility.yul\":10131:10163   */\n      add\n        /* \"#utility.yul\":10128:10169   */\n      gt\n        /* \"#utility.yul\":10125:10253   */\n      iszero\n      tag_638\n      jumpi\n        /* \"#utility.yul\":10172:10251   */\n      tag_639\n      tag_478\n      jump\t// in\n    tag_639:\n        /* \"#utility.yul\":10125:10253   */\n    tag_638:\n        /* \"#utility.yul\":9691:10259   */\n      swap3\n      pop\n      swap3\n      swap1\n      pop\n      jump\t// out\n        /* \"#utility.yul\":10265:10963   */\n    tag_128:\n        /* \"#utility.yul\":10357:10363   */\n      0x00\n        /* \"#utility.yul\":10365:10371   */\n      dup1\n        /* \"#utility.yul\":10373:10379   */\n      0x00\n        /* \"#utility.yul\":10422:10424   */\n      0x40\n        /* \"#utility.yul\":10410:10419   */\n      dup5\n        /* \"#utility.yul\":10401:10408   */\n      dup7\n        /* \"#utility.yul\":10397:10420   */\n      sub\n        /* \"#utility.yul\":10393:10425   */\n      slt\n        /* \"#utility.yul\":10390:10509   */\n      iszero\n      tag_641\n      jumpi\n        /* \"#utility.yul\":10428:10507   */\n      tag_642\n      tag_449\n      jump\t// in\n    tag_642:\n        /* \"#utility.yul\":10390:10509   */\n    tag_641:\n        /* \"#utility.yul\":10576:10577   */\n      0x00\n        /* \"#utility.yul\":10565:10574   */\n      dup5\n        /* \"#utility.yul\":10561:10578   */\n      add\n        /* \"#utility.yul\":10548:10579   */\n      calldataload\n        /* \"#utility.yul\":10606:10624   */\n      0xffffffffffffffff\n        /* \"#utility.yul\":10598:10604   */\n      dup2\n        /* \"#utility.yul\":10595:10625   */\n      gt\n        /* \"#utility.yul\":10592:10709   */\n      iszero\n      tag_643\n      jumpi\n        /* \"#utility.yul\":10628:10707   */\n      tag_644\n      tag_450\n      jump\t// in\n    tag_644:\n        /* \"#utility.yul\":10592:10709   */\n    tag_643:\n        /* \"#utility.yul\":10741:10821   */\n      tag_645\n        /* \"#utility.yul\":10813:10820   */\n      dup7\n        /* \"#utility.yul\":10804:10810   */\n      dup3\n        /* \"#utility.yul\":10793:10802   */\n      dup8\n        /* \"#utility.yul\":10789:10811   */\n      add\n        /* \"#utility.yul\":10741:10821   */\n      tag_479\n      jump\t// in\n    tag_645:\n        /* \"#utility.yul\":10723:10821   */\n      swap4\n      pop\n      swap4\n      pop\n        /* \"#utility.yul\":10519:10831   */\n      pop\n        /* \"#utility.yul\":10870:10872   */\n      0x20\n        /* \"#utility.yul\":10896:10946   */\n      tag_646\n        /* \"#utility.yul\":10938:10945   */\n      dup7\n        /* \"#utility.yul\":10929:10935   */\n      dup3\n        /* \"#utility.yul\":10918:10927   */\n      dup8\n        /* \"#utility.yul\":10914:10936   */\n      add\n        /* \"#utility.yul\":10896:10946   */\n      tag_472\n      jump\t// in\n    tag_646:\n        /* \"#utility.yul\":10886:10946   */\n      swap2\n      pop\n        /* \"#utility.yul\":10841:10956   */\n      pop\n        /* \"#utility.yul\":10265:10963   */\n      swap3\n      pop\n      swap3\n      pop\n      swap3\n      jump\t// out\n        /* \"#utility.yul\":10969:11443   */\n    tag_133:\n        /* \"#utility.yul\":11037:11043   */\n      0x00\n        /* \"#utility.yul\":11045:11051   */\n      dup1\n        /* \"#utility.yul\":11094:11096   */\n      0x40\n        /* \"#utility.yul\":11082:11091   */\n      dup4\n        /* \"#utility.yul\":11073:11080   */\n      dup6\n        /* \"#utility.yul\":11069:11092   */\n      sub\n        /* \"#utility.yul\":11065:11097   */\n      slt\n        /* \"#utility.yul\":11062:11181   */\n      iszero\n      tag_648\n      jumpi\n        /* \"#utility.yul\":11100:11179   */\n      tag_649\n      tag_449\n      jump\t// in\n    tag_649:\n        /* \"#utility.yul\":11062:11181   */\n    tag_648:\n        /* \"#utility.yul\":11220:11221   */\n      0x00\n        /* \"#utility.yul\":11245:11298   */\n      tag_650\n        /* \"#utility.yul\":11290:11297   */\n      dup6\n        /* \"#utility.yul\":11281:11287   */\n      dup3\n        /* \"#utility.yul\":11270:11279   */\n      dup7\n        /* \"#utility.yul\":11266:11288   */\n      add\n        /* \"#utility.yul\":11245:11298   */\n      tag_454\n      jump\t// in\n    tag_650:\n        /* \"#utility.yul\":11235:11298   */\n      swap3\n      pop\n        /* \"#utility.yul\":11191:11308   */\n      pop\n        /* \"#utility.yul\":11347:11349   */\n      0x20\n        /* \"#utility.yul\":11373:11426   */\n      tag_651\n        /* \"#utility.yul\":11418:11425   */\n      dup6\n        /* \"#utility.yul\":11409:11415   */\n      dup3\n        /* \"#utility.yul\":11398:11407   */\n      dup7\n        /* \"#utility.yul\":11394:11416   */\n      add\n        /* \"#utility.yul\":11373:11426   */\n      tag_454\n      jump\t// in\n    tag_651:\n        /* \"#utility.yul\":11363:11426   */\n      swap2\n      pop\n        /* \"#utility.yul\":11318:11436   */\n      pop\n        /* \"#utility.yul\":10969:11443   */\n      swap3\n      pop\n      swap3\n      swap1\n      pop\n      jump\t// out\n        /* \"#utility.yul\":11449:11622   */\n    tag_480:\n        /* \"#utility.yul\":11589:11614   */\n      0x43616c6c6572206973206e6f7420746865206f776e6572000000000000000000\n        /* \"#utility.yul\":11585:11586   */\n      0x00\n        /* \"#utility.yul\":11577:11583   */\n      dup3\n        /* \"#utility.yul\":11573:11587   */\n      add\n        /* \"#utility.yul\":11566:11615   */\n      mstore\n        /* \"#utility.yul\":11449:11622   */\n      pop\n      jump\t// out\n        /* \"#utility.yul\":11628:11994   */\n    tag_481:\n        /* \"#utility.yul\":11770:11773   */\n      0x00\n        /* \"#utility.yul\":11791:11858   */\n      tag_654\n        /* \"#utility.yul\":11855:11857   */\n      0x17\n        /* \"#utility.yul\":11850:11853   */\n      dup4\n        /* \"#utility.yul\":11791:11858   */\n      tag_444\n      jump\t// in\n    tag_654:\n        /* \"#utility.yul\":11784:11858   */\n      swap2\n      pop\n        /* \"#utility.yul\":11867:11960   */\n      tag_655\n        /* \"#utility.yul\":11956:11959   */\n      dup3\n        /* \"#utility.yul\":11867:11960   */\n      tag_480\n      jump\t// in\n    tag_655:\n        /* \"#utility.yul\":11985:11987   */\n      0x20\n        /* \"#utility.yul\":11980:11983   */\n      dup3\n        /* \"#utility.yul\":11976:11988   */\n      add\n        /* \"#utility.yul\":11969:11988   */\n      swap1\n      pop\n        /* \"#utility.yul\":11628:11994   */\n      swap2\n      swap1\n      pop\n      jump\t// out\n        /* \"#utility.yul\":12000:12419   */\n    tag_149:\n        /* \"#utility.yul\":12166:12170   */\n      0x00\n        /* \"#utility.yul\":12204:12206   */\n      0x20\n        /* \"#utility.yul\":12193:12202   */\n      dup3\n        /* \"#utility.yul\":12189:12207   */\n      add\n        /* \"#utility.yul\":12181:12207   */\n      swap1\n      pop\n        /* \"#utility.yul\":12253:12262   */\n      dup2\n        /* \"#utility.yul\":12247:12251   */\n      dup2\n        /* \"#utility.yul\":12243:12263   */\n      sub\n        /* \"#utility.yul\":12239:12240   */\n      0x00\n        /* \"#utility.yul\":12228:12237   */\n      dup4\n        /* \"#utility.yul\":12224:12241   */\n      add\n        /* \"#utility.yul\":12217:12264   */\n      mstore\n        /* \"#utility.yul\":12281:12412   */\n      tag_657\n        /* \"#utility.yul\":12407:12411   */\n      dup2\n        /* \"#utility.yul\":12281:12412   */\n      tag_481\n      jump\t// in\n    tag_657:\n        /* \"#utility.yul\":12273:12412   */\n      swap1\n      pop\n        /* \"#utility.yul\":12000:12419   */\n      swap2\n      swap1\n      pop\n      jump\t// out\n        /* \"#utility.yul\":12425:12568   */\n    tag_482:\n        /* \"#utility.yul\":12482:12487   */\n      0x00\n        /* \"#utility.yul\":12513:12519   */\n      dup2\n        /* \"#utility.yul\":12507:12520   */\n      mload\n        /* \"#utility.yul\":12498:12520   */\n      swap1\n      pop\n        /* \"#utility.yul\":12529:12562   */\n      tag_659\n        /* \"#utility.yul\":12556:12561   */\n      dup2\n        /* \"#utility.yul\":12529:12562   */\n      tag_453\n      jump\t// in\n    tag_659:\n        /* \"#utility.yul\":12425:12568   */\n      swap3\n      swap2\n      pop\n      pop\n      jump\t// out\n        /* \"#utility.yul\":12574:12925   */\n    tag_154:\n        /* \"#utility.yul\":12644:12650   */\n      0x00\n        /* \"#utility.yul\":12693:12695   */\n      0x20\n        /* \"#utility.yul\":12681:12690   */\n      dup3\n        /* \"#utility.yul\":12672:12679   */\n      dup5\n        /* \"#utility.yul\":12668:12691   */\n      sub\n        /* \"#utility.yul\":12664:12696   */\n      slt\n        /* \"#utility.yul\":12661:12780   */\n      iszero\n      tag_661\n      jumpi\n        /* \"#utility.yul\":12699:12778   */\n      tag_662\n      tag_449\n      jump\t// in\n    tag_662:\n        /* \"#utility.yul\":12661:12780   */\n    tag_661:\n        /* \"#utility.yul\":12819:12820   */\n      0x00\n        /* \"#utility.yul\":12844:12908   */\n      tag_663\n        /* \"#utility.yul\":12900:12907   */\n      dup5\n        /* \"#utility.yul\":12891:12897   */\n      dup3\n        /* \"#utility.yul\":12880:12889   */\n      dup6\n        /* \"#utility.yul\":12876:12898   */\n      add\n        /* \"#utility.yul\":12844:12908   */\n      tag_482\n      jump\t// in\n    tag_663:\n        /* \"#utility.yul\":12834:12908   */\n      swap2\n      pop\n        /* \"#utility.yul\":12790:12918   */\n      pop\n        /* \"#utility.yul\":12574:12925   */\n      swap3\n      swap2\n      pop\n      pop\n      jump\t// out\n        /* \"#utility.yul\":12931:13263   */\n    tag_159:\n        /* \"#utility.yul\":13052:13056   */\n      0x00\n        /* \"#utility.yul\":13090:13092   */\n      0x40\n        /* \"#utility.yul\":13079:13088   */\n      dup3\n        /* \"#utility.yul\":13075:13093   */\n      add\n        /* \"#utility.yul\":13067:13093   */\n      swap1\n      pop\n        /* \"#utility.yul\":13103:13174   */\n      tag_665\n        /* \"#utility.yul\":13171:13172   */\n      0x00\n        /* \"#utility.yul\":13160:13169   */\n      dup4\n        /* \"#utility.yul\":13156:13173   */\n      add\n        /* \"#utility.yul\":13147:13153   */\n      dup6\n        /* \"#utility.yul\":13103:13174   */\n      tag_468\n      jump\t// in\n    tag_665:\n        /* \"#utility.yul\":13184:13256   */\n      tag_666\n        /* \"#utility.yul\":13252:13254   */\n      0x20\n        /* \"#utility.yul\":13241:13250   */\n      dup4\n        /* \"#utility.yul\":13237:13255   */\n      add\n        /* \"#utility.yul\":13228:13234   */\n      dup5\n        /* \"#utility.yul\":13184:13256   */\n      tag_468\n      jump\t// in\n    tag_666:\n        /* \"#utility.yul\":12931:13263   */\n      swap4\n      swap3\n      pop\n      pop\n      pop\n      jump\t// out\n        /* \"#utility.yul\":13269:13440   */\n    tag_483:\n        /* \"#utility.yul\":13409:13432   */\n      0x43616c6c6572206973206e6f7420746865206465760000000000000000000000\n        /* \"#utility.yul\":13405:13406   */\n      0x00\n        /* \"#utility.yul\":13397:13403   */\n      dup3\n        /* \"#utility.yul\":13393:13407   */\n      add\n        /* \"#utility.yul\":13386:13433   */\n      mstore\n        /* \"#utility.yul\":13269:13440   */\n      pop\n      jump\t// out\n        /* \"#utility.yul\":13446:13812   */\n    tag_484:\n        /* \"#utility.yul\":13588:13591   */\n      0x00\n        /* \"#utility.yul\":13609:13676   */\n      tag_669\n        /* \"#utility.yul\":13673:13675   */\n      0x15\n        /* \"#utility.yul\":13668:13671   */\n      dup4\n        /* \"#utility.yul\":13609:13676   */\n      tag_444\n      jump\t// in\n    tag_669:\n        /* \"#utility.yul\":13602:13676   */\n      swap2\n      pop\n        /* \"#utility.yul\":13685:13778   */\n      tag_670\n        /* \"#utility.yul\":13774:13777   */\n      dup3\n        /* \"#utility.yul\":13685:13778   */\n      tag_483\n      jump\t// in\n    tag_670:\n        /* \"#utility.yul\":13803:13805   */\n      0x20\n        /* \"#utility.yul\":13798:13801   */\n      dup3\n        /* \"#utility.yul\":13794:13806   */\n      add\n        /* \"#utility.yul\":13787:13806   */\n      swap1\n      pop\n        /* \"#utility.yul\":13446:13812   */\n      swap2\n      swap1\n      pop\n      jump\t// out\n        /* \"#utility.yul\":13818:14237   */\n    tag_185:\n        /* \"#utility.yul\":13984:13988   */\n      0x00\n        /* \"#utility.yul\":14022:14024   */\n      0x20\n        /* \"#utility.yul\":14011:14020   */\n      dup3\n        /* \"#utility.yul\":14007:14025   */\n      add\n        /* \"#utility.yul\":13999:14025   */\n      swap1\n      pop\n        /* \"#utility.yul\":14071:14080   */\n      dup2\n        /* \"#utility.yul\":14065:14069   */\n      dup2\n        /* \"#utility.yul\":14061:14081   */\n      sub\n        /* \"#utility.yul\":14057:14058   */\n      0x00\n        /* \"#utility.yul\":14046:14055   */\n      dup4\n        /* \"#utility.yul\":14042:14059   */\n      add\n        /* \"#utility.yul\":14035:14082   */\n      mstore\n        /* \"#utility.yul\":14099:14230   */\n      tag_672\n        /* \"#utility.yul\":14225:14229   */\n      dup2\n        /* \"#utility.yul\":14099:14230   */\n      tag_484\n      jump\t// in\n    tag_672:\n        /* \"#utility.yul\":14091:14230   */\n      swap1\n      pop\n        /* \"#utility.yul\":13818:14237   */\n      swap2\n      swap1\n      pop\n      jump\t// out\n        /* \"#utility.yul\":14243:14422   */\n    tag_485:\n        /* \"#utility.yul\":14383:14414   */\n      0x52656469732063616e6e6f74206265206d6f7265207468616e2031302e000000\n        /* \"#utility.yul\":14379:14380   */\n      0x00\n        /* \"#utility.yul\":14371:14377   */\n      dup3\n        /* \"#utility.yul\":14367:14381   */\n      add\n        /* \"#utility.yul\":14360:14415   */\n      mstore\n        /* \"#utility.yul\":14243:14422   */\n      pop\n      jump\t// out\n        /* \"#utility.yul\":14428:14794   */\n    tag_486:\n        /* \"#utility.yul\":14570:14573   */\n      0x00\n        /* \"#utility.yul\":14591:14658   */\n      tag_675\n        /* \"#utility.yul\":14655:14657   */\n      0x1d\n        /* \"#utility.yul\":14650:14653   */\n      dup4\n        /* \"#utility.yul\":14591:14658   */\n      tag_444\n      jump\t// in\n    tag_675:\n        /* \"#utility.yul\":14584:14658   */\n      swap2\n      pop\n        /* \"#utility.yul\":14667:14760   */\n      tag_676\n        /* \"#utility.yul\":14756:14759   */\n      dup3\n        /* \"#utility.yul\":14667:14760   */\n      tag_485\n      jump\t// in\n    tag_676:\n        /* \"#utility.yul\":14785:14787   */\n      0x20\n        /* \"#utility.yul\":14780:14783   */\n      dup3\n        /* \"#utility.yul\":14776:14788   */\n      add\n        /* \"#utility.yul\":14769:14788   */\n      swap1\n      pop\n        /* \"#utility.yul\":14428:14794   */\n      swap2\n      swap1\n      pop\n      jump\t// out\n        /* \"#utility.yul\":14800:15219   */\n    tag_225:\n        /* \"#utility.yul\":14966:14970   */\n      0x00\n        /* \"#utility.yul\":15004:15006   */\n      0x20\n        /* \"#utility.yul\":14993:15002   */\n      dup3\n        /* \"#utility.yul\":14989:15007   */\n      add\n        /* \"#utility.yul\":14981:15007   */\n      swap1\n      pop\n        /* \"#utility.yul\":15053:15062   */\n      dup2\n        /* \"#utility.yul\":15047:15051   */\n      dup2\n        /* \"#utility.yul\":15043:15063   */\n      sub\n        /* \"#utility.yul\":15039:15040   */\n      0x00\n        /* \"#utility.yul\":15028:15037   */\n      dup4\n        /* \"#utility.yul\":15024:15041   */\n      add\n        /* \"#utility.yul\":15017:15064   */\n      mstore\n        /* \"#utility.yul\":15081:15212   */\n      tag_678\n        /* \"#utility.yul\":15207:15211   */\n      dup2\n        /* \"#utility.yul\":15081:15212   */\n      tag_486\n      jump\t// in\n    tag_678:\n        /* \"#utility.yul\":15073:15212   */\n      swap1\n      pop\n        /* \"#utility.yul\":14800:15219   */\n      swap2\n      swap1\n      pop\n      jump\t// out\n        /* \"#utility.yul\":15225:15401   */\n    tag_487:\n        /* \"#utility.yul\":15365:15393   */\n      0x5461782063616e6e6f74206265206d6f7265207468616e20362e000000000000\n        /* \"#utility.yul\":15361:15362   */\n      0x00\n        /* \"#utility.yul\":15353:15359   */\n      dup3\n        /* \"#utility.yul\":15349:15363   */\n      add\n        /* \"#utility.yul\":15342:15394   */\n      mstore\n        /* \"#utility.yul\":15225:15401   */\n      pop\n      jump\t// out\n        /* \"#utility.yul\":15407:15773   */\n    tag_488:\n        /* \"#utility.yul\":15549:15552   */\n      0x00\n        /* \"#utility.yul\":15570:15637   */\n      tag_681\n        /* \"#utility.yul\":15634:15636   */\n      0x1a\n        /* \"#utility.yul\":15629:15632   */\n      dup4\n        /* \"#utility.yul\":15570:15637   */\n      tag_444\n      jump\t// in\n    tag_681:\n        /* \"#utility.yul\":15563:15637   */\n      swap2\n      pop\n        /* \"#utility.yul\":15646:15739   */\n      tag_682\n        /* \"#utility.yul\":15735:15738   */\n      dup3\n        /* \"#utility.yul\":15646:15739   */\n      tag_487\n      jump\t// in\n    tag_682:\n        /* \"#utility.yul\":15764:15766   */\n      0x20\n        /* \"#utility.yul\":15759:15762   */\n      dup3\n        /* \"#utility.yul\":15755:15767   */\n      add\n        /* \"#utility.yul\":15748:15767   */\n      swap1\n      pop\n        /* \"#utility.yul\":15407:15773   */\n      swap2\n      swap1\n      pop\n      jump\t// out\n        /* \"#utility.yul\":15779:16198   */\n    tag_230:\n        /* \"#utility.yul\":15945:15949   */\n      0x00\n        /* \"#utility.yul\":15983:15985   */\n      0x20\n        /* \"#utility.yul\":15972:15981   */\n      dup3\n        /* \"#utility.yul\":15968:15986   */\n      add\n        /* \"#utility.yul\":15960:15986   */\n      swap1\n      pop\n        /* \"#utility.yul\":16032:16041   */\n      dup2\n        /* \"#utility.yul\":16026:16030   */\n      dup2\n        /* \"#utility.yul\":16022:16042   */\n      sub\n        /* \"#utility.yul\":16018:16019   */\n      0x00\n        /* \"#utility.yul\":16007:16016   */\n      dup4\n        /* \"#utility.yul\":16003:16020   */\n      add\n        /* \"#utility.yul\":15996:16043   */\n      mstore\n        /* \"#utility.yul\":16060:16191   */\n      tag_684\n        /* \"#utility.yul\":16186:16190   */\n      dup2\n        /* \"#utility.yul\":16060:16191   */\n      tag_488\n      jump\t// in\n    tag_684:\n        /* \"#utility.yul\":16052:16191   */\n      swap1\n      pop\n        /* \"#utility.yul\":15779:16198   */\n      swap2\n      swap1\n      pop\n      jump\t// out\n        /* \"#utility.yul\":16204:16384   */\n    tag_265:\n        /* \"#utility.yul\":16252:16329   */\n      0x4e487b7100000000000000000000000000000000000000000000000000000000\n        /* \"#utility.yul\":16249:16250   */\n      0x00\n        /* \"#utility.yul\":16242:16330   */\n      mstore\n        /* \"#utility.yul\":16349:16353   */\n      0x32\n        /* \"#utility.yul\":16346:16347   */\n      0x04\n        /* \"#utility.yul\":16339:16354   */\n      mstore\n        /* \"#utility.yul\":16373:16377   */\n      0x24\n        /* \"#utility.yul\":16370:16371   */\n      0x00\n        /* \"#utility.yul\":16363:16378   */\n      revert\n        /* \"#utility.yul\":16390:16570   */\n    tag_489:\n        /* \"#utility.yul\":16438:16515   */\n      0x4e487b7100000000000000000000000000000000000000000000000000000000\n        /* \"#utility.yul\":16435:16436   */\n      0x00\n        /* \"#utility.yul\":16428:16516   */\n      mstore\n        /* \"#utility.yul\":16535:16539   */\n      0x11\n        /* \"#utility.yul\":16532:16533   */\n      0x04\n        /* \"#utility.yul\":16525:16540   */\n      mstore\n        /* \"#utility.yul\":16559:16563   */\n      0x24\n        /* \"#utility.yul\":16556:16557   */\n      0x00\n        /* \"#utility.yul\":16549:16564   */\n      revert\n        /* \"#utility.yul\":16576:16809   */\n    tag_268:\n        /* \"#utility.yul\":16615:16618   */\n      0x00\n        /* \"#utility.yul\":16638:16662   */\n      tag_688\n        /* \"#utility.yul\":16656:16661   */\n      dup3\n        /* \"#utility.yul\":16638:16662   */\n      tag_455\n      jump\t// in\n    tag_688:\n        /* \"#utility.yul\":16629:16662   */\n      swap2\n      pop\n        /* \"#utility.yul\":16684:16750   */\n      0xffffffffffffffffffffffffffffffffffffffffffffffffffffffffffffffff\n        /* \"#utility.yul\":16677:16682   */\n      dup3\n        /* \"#utility.yul\":16674:16751   */\n      sub\n        /* \"#utility.yul\":16671:16774   */\n      tag_689\n      jumpi\n        /* \"#utility.yul\":16754:16772   */\n      tag_690\n      tag_489\n      jump\t// in\n    tag_690:\n        /* \"#utility.yul\":16671:16774   */\n    tag_689:\n        /* \"#utility.yul\":16801:16802   */\n      0x01\n        /* \"#utility.yul\":16794:16799   */\n      dup3\n        /* \"#utility.yul\":16790:16803   */\n      add\n        /* \"#utility.yul\":16783:16803   */\n      swap1\n      pop\n        /* \"#utility.yul\":16576:16809   */\n      swap2\n      swap1\n      pop\n      jump\t// out\n        /* \"#utility.yul\":16815:17147   */\n    tag_280:\n        /* \"#utility.yul\":16936:16940   */\n      0x00\n        /* \"#utility.yul\":16974:16976   */\n      0x40\n        /* \"#utility.yul\":16963:16972   */\n      dup3\n        /* \"#utility.yul\":16959:16977   */\n      add\n        /* \"#utility.yul\":16951:16977   */\n      swap1\n      pop\n        /* \"#utility.yul\":16987:17058   */\n      tag_692\n        /* \"#utility.yul\":17055:17056   */\n      0x00\n        /* \"#utility.yul\":17044:17053   */\n      dup4\n        /* \"#utility.yul\":17040:17057   */\n      add\n        /* \"#utility.yul\":17031:17037   */\n      dup6\n        /* \"#utility.yul\":16987:17058   */\n      tag_468\n      jump\t// in\n    tag_692:\n        /* \"#utility.yul\":17068:17140   */\n      tag_693\n        /* \"#utility.yul\":17136:17138   */\n      0x20\n        /* \"#utility.yul\":17125:17134   */\n      dup4\n        /* \"#utility.yul\":17121:17139   */\n      add\n        /* \"#utility.yul\":17112:17118   */\n      dup5\n        /* \"#utility.yul\":17068:17140   */\n      tag_465\n      jump\t// in\n    tag_693:\n        /* \"#utility.yul\":16815:17147   */\n      swap4\n      swap3\n      pop\n      pop\n      pop\n      jump\t// out\n        /* \"#utility.yul\":17153:17290   */\n    tag_490:\n        /* \"#utility.yul\":17207:17212   */\n      0x00\n        /* \"#utility.yul\":17238:17244   */\n      dup2\n        /* \"#utility.yul\":17232:17245   */\n      mload\n        /* \"#utility.yul\":17223:17245   */\n      swap1\n      pop\n        /* \"#utility.yul\":17254:17284   */\n      tag_695\n        /* \"#utility.yul\":17278:17283   */\n      dup2\n        /* \"#utility.yul\":17254:17284   */\n      tag_471\n      jump\t// in\n    tag_695:\n        /* \"#utility.yul\":17153:17290   */\n      swap3\n      swap2\n      pop\n      pop\n      jump\t// out\n        /* \"#utility.yul\":17296:17641   */\n    tag_284:\n        /* \"#utility.yul\":17363:17369   */\n      0x00\n        /* \"#utility.yul\":17412:17414   */\n      0x20\n        /* \"#utility.yul\":17400:17409   */\n      dup3\n        /* \"#utility.yul\":17391:17398   */\n      dup5\n        /* \"#utility.yul\":17387:17410   */\n      sub\n        /* \"#utility.yul\":17383:17415   */\n      slt\n        /* \"#utility.yul\":17380:17499   */\n      iszero\n      tag_697\n      jumpi\n        /* \"#utility.yul\":17418:17497   */\n      tag_698\n      tag_449\n      jump\t// in\n    tag_698:\n        /* \"#utility.yul\":17380:17499   */\n    tag_697:\n        /* \"#utility.yul\":17538:17539   */\n      0x00\n        /* \"#utility.yul\":17563:17624   */\n      tag_699\n        /* \"#utility.yul\":17616:17623   */\n      dup5\n        /* \"#utility.yul\":17607:17613   */\n      dup3\n        /* \"#utility.yul\":17596:17605   */\n      dup6\n        /* \"#utility.yul\":17592:17614   */\n      add\n        /* \"#utility.yul\":17563:17624   */\n      tag_490\n      jump\t// in\n    tag_699:\n        /* \"#utility.yul\":17553:17624   */\n      swap2\n      pop\n        /* \"#utility.yul\":17509:17634   */\n      pop\n        /* \"#utility.yul\":17296:17641   */\n      swap3\n      swap2\n      pop\n      pop\n      jump\t// out\n        /* \"#utility.yul\":17647:17870   */\n    tag_491:\n        /* \"#utility.yul\":17787:17821   */\n      0x45524332303a20617070726f76652066726f6d20746865207a65726f20616464\n        /* \"#utility.yul\":17783:17784   */\n      0x00\n        /* \"#utility.yul\":17775:17781   */\n      dup3\n        /* \"#utility.yul\":17771:17785   */\n      add\n        /* \"#utility.yul\":17764:17822   */\n      mstore\n        /* \"#utility.yul\":17856:17862   */\n      0x7265737300000000000000000000000000000000000000000000000000000000\n        /* \"#utility.yul\":17851:17853   */\n      0x20\n        /* \"#utility.yul\":17843:17849   */\n      dup3\n        /* \"#utility.yul\":17839:17854   */\n      add\n        /* \"#utility.yul\":17832:17863   */\n      mstore\n        /* \"#utility.yul\":17647:17870   */\n      pop\n      jump\t// out\n        /* \"#utility.yul\":17876:18242   */\n    tag_492:\n        /* \"#utility.yul\":18018:18021   */\n      0x00\n        /* \"#utility.yul\":18039:18106   */\n      tag_702\n        /* \"#utility.yul\":18103:18105   */\n      0x24\n        /* \"#utility.yul\":18098:18101   */\n      dup4\n        /* \"#utility.yul\":18039:18106   */\n      tag_444\n      jump\t// in\n    tag_702:\n        /* \"#utility.yul\":18032:18106   */\n      swap2\n      pop\n        /* \"#utility.yul\":18115:18208   */\n      tag_703\n        /* \"#utility.yul\":18204:18207   */\n      dup3\n        /* \"#utility.yul\":18115:18208   */\n      tag_491\n      jump\t// in\n    tag_703:\n        /* \"#utility.yul\":18233:18235   */\n      0x40\n        /* \"#utility.yul\":18228:18231   */\n      dup3\n        /* \"#utility.yul\":18224:18236   */\n      add\n        /* \"#utility.yul\":18217:18236   */\n      swap1\n      pop\n        /* \"#utility.yul\":17876:18242   */\n      swap2\n      swap1\n      pop\n      jump\t// out\n        /* \"#utility.yul\":18248:18667   */\n    tag_294:\n        /* \"#utility.yul\":18414:18418   */\n      0x00\n        /* \"#utility.yul\":18452:18454   */\n      0x20\n        /* \"#utility.yul\":18441:18450   */\n      dup3\n        /* \"#utility.yul\":18437:18455   */\n      add\n        /* \"#utility.yul\":18429:18455   */\n      swap1\n      pop\n        /* \"#utility.yul\":18501:18510   */\n      dup2\n        /* \"#utility.yul\":18495:18499   */\n      dup2\n        /* \"#utility.yul\":18491:18511   */\n      sub\n        /* \"#utility.yul\":18487:18488   */\n      0x00\n        /* \"#utility.yul\":18476:18485   */\n      dup4\n        /* \"#utility.yul\":18472:18489   */\n      add\n        /* \"#utility.yul\":18465:18512   */\n      mstore\n        /* \"#utility.yul\":18529:18660   */\n      tag_705\n        /* \"#utility.yul\":18655:18659   */\n      dup2\n        /* \"#utility.yul\":18529:18660   */\n      tag_492\n      jump\t// in\n    tag_705:\n        /* \"#utility.yul\":18521:18660   */\n      swap1\n      pop\n        /* \"#utility.yul\":18248:18667   */\n      swap2\n      swap1\n      pop\n      jump\t// out\n        /* \"#utility.yul\":18673:18894   */\n    tag_493:\n        /* \"#utility.yul\":18813:18847   */\n      0x45524332303a20617070726f766520746f20746865207a65726f206164647265\n        /* \"#utility.yul\":18809:18810   */\n      0x00\n        /* \"#utility.yul\":18801:18807   */\n      dup3\n        /* \"#utility.yul\":18797:18811   */\n      add\n        /* \"#utility.yul\":18790:18848   */\n      mstore\n        /* \"#utility.yul\":18882:18886   */\n      0x7373000000000000000000000000000000000000000000000000000000000000\n        /* \"#utility.yul\":18877:18879   */\n      0x20\n        /* \"#utility.yul\":18869:18875   */\n      dup3\n        /* \"#utility.yul\":18865:18880   */\n      add\n        /* \"#utility.yul\":18858:18887   */\n      mstore\n        /* \"#utility.yul\":18673:18894   */\n      pop\n      jump\t// out\n        /* \"#utility.yul\":18900:19266   */\n    tag_494:\n        /* \"#utility.yul\":19042:19045   */\n      0x00\n        /* \"#utility.yul\":19063:19130   */\n      tag_708\n        /* \"#utility.yul\":19127:19129   */\n      0x22\n        /* \"#utility.yul\":19122:19125   */\n      dup4\n        /* \"#utility.yul\":19063:19130   */\n      tag_444\n      jump\t// in\n    tag_708:\n        /* \"#utility.yul\":19056:19130   */\n      swap2\n      pop\n        /* \"#utility.yul\":19139:19232   */\n      tag_709\n        /* \"#utility.yul\":19228:19231   */\n      dup3\n        /* \"#utility.yul\":19139:19232   */\n      tag_493\n      jump\t// in\n    tag_709:\n        /* \"#utility.yul\":19257:19259   */\n      0x40\n        /* \"#utility.yul\":19252:19255   */\n      dup3\n        /* \"#utility.yul\":19248:19260   */\n      add\n        /* \"#utility.yul\":19241:19260   */\n      swap1\n      pop\n        /* \"#utility.yul\":18900:19266   */\n      swap2\n      swap1\n      pop\n      jump\t// out\n        /* \"#utility.yul\":19272:19691   */\n    tag_297:\n        /* \"#utility.yul\":19438:19442   */\n      0x00\n        /* \"#utility.yul\":19476:19478   */\n      0x20\n        /* \"#utility.yul\":19465:19474   */\n      dup3\n        /* \"#utility.yul\":19461:19479   */\n      add\n        /* \"#utility.yul\":19453:19479   */\n      swap1\n      pop\n        /* \"#utility.yul\":19525:19534   */\n      dup2\n        /* \"#utility.yul\":19519:19523   */\n      dup2\n        /* \"#utility.yul\":19515:19535   */\n      sub\n        /* \"#utility.yul\":19511:19512   */\n      0x00\n        /* \"#utility.yul\":19500:19509   */\n      dup4\n        /* \"#utility.yul\":19496:19513   */\n      add\n        /* \"#utility.yul\":19489:19536   */\n      mstore\n        /* \"#utility.yul\":19553:19684   */\n      tag_711\n        /* \"#utility.yul\":19679:19683   */\n      dup2\n        /* \"#utility.yul\":19553:19684   */\n      tag_494\n      jump\t// in\n    tag_711:\n        /* \"#utility.yul\":19545:19684   */\n      swap1\n      pop\n        /* \"#utility.yul\":19272:19691   */\n      swap2\n      swap1\n      pop\n      jump\t// out\n        /* \"#utility.yul\":19697:19921   */\n    tag_495:\n        /* \"#utility.yul\":19837:19871   */\n      0x45524332303a207472616e736665722066726f6d20746865207a65726f206164\n        /* \"#utility.yul\":19833:19834   */\n      0x00\n        /* \"#utility.yul\":19825:19831   */\n      dup3\n        /* \"#utility.yul\":19821:19835   */\n      add\n        /* \"#utility.yul\":19814:19872   */\n      mstore\n        /* \"#utility.yul\":19906:19913   */\n      0x6472657373000000000000000000000000000000000000000000000000000000\n        /* \"#utility.yul\":19901:19903   */\n      0x20\n        /* \"#utility.yul\":19893:19899   */\n      dup3\n        /* \"#utility.yul\":19889:19904   */\n      add\n        /* \"#utility.yul\":19882:19914   */\n      mstore\n        /* \"#utility.yul\":19697:19921   */\n      pop\n      jump\t// out\n        /* \"#utility.yul\":19927:20293   */\n    tag_496:\n        /* \"#utility.yul\":20069:20072   */\n      0x00\n        /* \"#utility.yul\":20090:20157   */\n      tag_714\n        /* \"#utility.yul\":20154:20156   */\n      0x25\n        /* \"#utility.yul\":20149:20152   */\n      dup4\n        /* \"#utility.yul\":20090:20157   */\n      tag_444\n      jump\t// in\n    tag_714:\n        /* \"#utility.yul\":20083:20157   */\n      swap2\n      pop\n        /* \"#utility.yul\":20166:20259   */\n      tag_715\n        /* \"#utility.yul\":20255:20258   */\n      dup3\n        /* \"#utility.yul\":20166:20259   */\n      tag_495\n      jump\t// in\n    tag_715:\n        /* \"#utility.yul\":20284:20286   */\n      0x40\n        /* \"#utility.yul\":20279:20282   */\n      dup3\n        /* \"#utility.yul\":20275:20287   */\n      add\n        /* \"#utility.yul\":20268:20287   */\n      swap1\n      pop\n        /* \"#utility.yul\":19927:20293   */\n      swap2\n      swap1\n      pop\n      jump\t// out\n        /* \"#utility.yul\":20299:20718   */\n    tag_302:\n        /* \"#utility.yul\":20465:20469   */\n      0x00\n        /* \"#utility.yul\":20503:20505   */\n      0x20\n        /* \"#utility.yul\":20492:20501   */\n      dup3\n        /* \"#utility.yul\":20488:20506   */\n      add\n        /* \"#utility.yul\":20480:20506   */\n      swap1\n      pop\n        /* \"#utility.yul\":20552:20561   */\n      dup2\n        /* \"#utility.yul\":20546:20550   */\n      dup2\n        /* \"#utility.yul\":20542:20562   */\n      sub\n        /* \"#utility.yul\":20538:20539   */\n      0x00\n        /* \"#utility.yul\":20527:20536   */\n      dup4\n        /* \"#utility.yul\":20523:20540   */\n      add\n        /* \"#utility.yul\":20516:20563   */\n      mstore\n        /* \"#utility.yul\":20580:20711   */\n      tag_717\n        /* \"#utility.yul\":20706:20710   */\n      dup2\n        /* \"#utility.yul\":20580:20711   */\n      tag_496\n      jump\t// in\n    tag_717:\n        /* \"#utility.yul\":20572:20711   */\n      swap1\n      pop\n        /* \"#utility.yul\":20299:20718   */\n      swap2\n      swap1\n      pop\n      jump\t// out\n        /* \"#utility.yul\":20724:20946   */\n    tag_497:\n        /* \"#utility.yul\":20864:20898   */\n      0x45524332303a207472616e7366657220746f20746865207a65726f2061646472\n        /* \"#utility.yul\":20860:20861   */\n      0x00\n        /* \"#utility.yul\":20852:20858   */\n      dup3\n        /* \"#utility.yul\":20848:20862   */\n      add\n        /* \"#utility.yul\":20841:20899   */\n      mstore\n        /* \"#utility.yul\":20933:20938   */\n      0x6573730000000000000000000000000000000000000000000000000000000000\n        /* \"#utility.yul\":20928:20930   */\n      0x20\n        /* \"#utility.yul\":20920:20926   */\n      dup3\n        /* \"#utility.yul\":20916:20931   */\n      add\n        /* \"#utility.yul\":20909:20939   */\n      mstore\n        /* \"#utility.yul\":20724:20946   */\n      pop\n      jump\t// out\n        /* \"#utility.yul\":20952:21318   */\n    tag_498:\n        /* \"#utility.yul\":21094:21097   */\n      0x00\n        /* \"#utility.yul\":21115:21182   */\n      tag_720\n        /* \"#utility.yul\":21179:21181   */\n      0x23\n        /* \"#utility.yul\":21174:21177   */\n      dup4\n        /* \"#utility.yul\":21115:21182   */\n      tag_444\n      jump\t// in\n    tag_720:\n        /* \"#utility.yul\":21108:21182   */\n      swap2\n      pop\n        /* \"#utility.yul\":21191:21284   */\n      tag_721\n        /* \"#utility.yul\":21280:21283   */\n      dup3\n        /* \"#utility.yul\":21191:21284   */\n      tag_497\n      jump\t// in\n    tag_721:\n        /* \"#utility.yul\":21309:21311   */\n      0x40\n        /* \"#utility.yul\":21304:21307   */\n      dup3\n        /* \"#utility.yul\":21300:21312   */\n      add\n        /* \"#utility.yul\":21293:21312   */\n      swap1\n      pop\n        /* \"#utility.yul\":20952:21318   */\n      swap2\n      swap1\n      pop\n      jump\t// out\n        /* \"#utility.yul\":21324:21743   */\n    tag_305:\n        /* \"#utility.yul\":21490:21494   */\n      0x00\n        /* \"#utility.yul\":21528:21530   */\n      0x20\n        /* \"#utility.yul\":21517:21526   */\n      dup3\n        /* \"#utility.yul\":21513:21531   */\n      add\n        /* \"#utility.yul\":21505:21531   */\n      swap1\n      pop\n        /* \"#utility.yul\":21577:21586   */\n      dup2\n        /* \"#utility.yul\":21571:21575   */\n      dup2\n        /* \"#utility.yul\":21567:21587   */\n      sub\n        /* \"#utility.yul\":21563:21564   */\n      0x00\n        /* \"#utility.yul\":21552:21561   */\n      dup4\n        /* \"#utility.yul\":21548:21565   */\n      add\n        /* \"#utility.yul\":21541:21588   */\n      mstore\n        /* \"#utility.yul\":21605:21736   */\n      tag_723\n        /* \"#utility.yul\":21731:21735   */\n      dup2\n        /* \"#utility.yul\":21605:21736   */\n      tag_498\n      jump\t// in\n    tag_723:\n        /* \"#utility.yul\":21597:21736   */\n      swap1\n      pop\n        /* \"#utility.yul\":21324:21743   */\n      swap2\n      swap1\n      pop\n      jump\t// out\n        /* \"#utility.yul\":21749:21977   */\n    tag_499:\n        /* \"#utility.yul\":21889:21923   */\n      0x5472616e7366657220616d6f756e74206d757374206265206772656174657220\n        /* \"#utility.yul\":21885:21886   */\n      0x00\n        /* \"#utility.yul\":21877:21883   */\n      dup3\n        /* \"#utility.yul\":21873:21887   */\n      add\n        /* \"#utility.yul\":21866:21924   */\n      mstore\n        /* \"#utility.yul\":21958:21969   */\n      0x7468616e207a65726f0000000000000000000000000000000000000000000000\n        /* \"#utility.yul\":21953:21955   */\n      0x20\n        /* \"#utility.yul\":21945:21951   */\n      dup3\n        /* \"#utility.yul\":21941:21956   */\n      add\n        /* \"#utility.yul\":21934:21970   */\n      mstore\n        /* \"#utility.yul\":21749:21977   */\n      pop\n      jump\t// out\n        /* \"#utility.yul\":21983:22349   */\n    tag_500:\n        /* \"#utility.yul\":22125:22128   */\n      0x00\n        /* \"#utility.yul\":22146:22213   */\n      tag_726\n        /* \"#utility.yul\":22210:22212   */\n      0x29\n        /* \"#utility.yul\":22205:22208   */\n      dup4\n        /* \"#utility.yul\":22146:22213   */\n      tag_444\n      jump\t// in\n    tag_726:\n        /* \"#utility.yul\":22139:22213   */\n      swap2\n      pop\n        /* \"#utility.yul\":22222:22315   */\n      tag_727\n        /* \"#utility.yul\":22311:22314   */\n      dup3\n        /* \"#utility.yul\":22222:22315   */\n      tag_499\n      jump\t// in\n    tag_727:\n        /* \"#utility.yul\":22340:22342   */\n      0x40\n        /* \"#utility.yul\":22335:22338   */\n      dup3\n        /* \"#utility.yul\":22331:22343   */\n      add\n        /* \"#utility.yul\":22324:22343   */\n      swap1\n      pop\n        /* \"#utility.yul\":21983:22349   */\n      swap2\n      swap1\n      pop\n      jump\t// out\n        /* \"#utility.yul\":22355:22774   */\n    tag_308:\n        /* \"#utility.yul\":22521:22525   */\n      0x00\n        /* \"#utility.yul\":22559:22561   */\n      0x20\n        /* \"#utility.yul\":22548:22557   */\n      dup3\n        /* \"#utility.yul\":22544:22562   */\n      add\n        /* \"#utility.yul\":22536:22562   */\n      swap1\n      pop\n        /* \"#utility.yul\":22608:22617   */\n      dup2\n        /* \"#utility.yul\":22602:22606   */\n      dup2\n        /* \"#utility.yul\":22598:22618   */\n      sub\n        /* \"#utility.yul\":22594:22595   */\n      0x00\n        /* \"#utility.yul\":22583:22592   */\n      dup4\n        /* \"#utility.yul\":22579:22596   */\n      add\n        /* \"#utility.yul\":22572:22619   */\n      mstore\n        /* \"#utility.yul\":22636:22767   */\n      tag_729\n        /* \"#utility.yul\":22762:22766   */\n      dup2\n        /* \"#utility.yul\":22636:22767   */\n      tag_500\n      jump\t// in\n    tag_729:\n        /* \"#utility.yul\":22628:22767   */\n      swap1\n      pop\n        /* \"#utility.yul\":22355:22774   */\n      swap2\n      swap1\n      pop\n      jump\t// out\n        /* \"#utility.yul\":22780:22971   */\n    tag_335:\n        /* \"#utility.yul\":22820:22824   */\n      0x00\n        /* \"#utility.yul\":22840:22860   */\n      tag_731\n        /* \"#utility.yul\":22858:22859   */\n      dup3\n        /* \"#utility.yul\":22840:22860   */\n      tag_455\n      jump\t// in\n    tag_731:\n        /* \"#utility.yul\":22835:22860   */\n      swap2\n      pop\n        /* \"#utility.yul\":22874:22894   */\n      tag_732\n        /* \"#utility.yul\":22892:22893   */\n      dup4\n        /* \"#utility.yul\":22874:22894   */\n      tag_455\n      jump\t// in\n    tag_732:\n        /* \"#utility.yul\":22869:22894   */\n      swap3\n      pop\n        /* \"#utility.yul\":22913:22914   */\n      dup3\n        /* \"#utility.yul\":22910:22911   */\n      dup3\n        /* \"#utility.yul\":22907:22915   */\n      lt\n        /* \"#utility.yul\":22904:22938   */\n      iszero\n      tag_733\n      jumpi\n        /* \"#utility.yul\":22918:22936   */\n      tag_734\n      tag_489\n      jump\t// in\n    tag_734:\n        /* \"#utility.yul\":22904:22938   */\n    tag_733:\n        /* \"#utility.yul\":22963:22964   */\n      dup3\n        /* \"#utility.yul\":22960:22961   */\n      dup3\n        /* \"#utility.yul\":22956:22965   */\n      sub\n        /* \"#utility.yul\":22948:22965   */\n      swap1\n      pop\n        /* \"#utility.yul\":22780:22971   */\n      swap3\n      swap2\n      pop\n      pop\n      jump\t// out\n        /* \"#utility.yul\":22977:23206   */\n    tag_501:\n        /* \"#utility.yul\":23117:23151   */\n      0x416d6f756e74206d757374206265206c657373207468616e20746f74616c2072\n        /* \"#utility.yul\":23113:23114   */\n      0x00\n        /* \"#utility.yul\":23105:23111   */\n      dup3\n        /* \"#utility.yul\":23101:23115   */\n      add\n        /* \"#utility.yul\":23094:23152   */\n      mstore\n        /* \"#utility.yul\":23186:23198   */\n      0x65666c656374696f6e7300000000000000000000000000000000000000000000\n        /* \"#utility.yul\":23181:23183   */\n      0x20\n        /* \"#utility.yul\":23173:23179   */\n      dup3\n        /* \"#utility.yul\":23169:23184   */\n      add\n        /* \"#utility.yul\":23162:23199   */\n      mstore\n        /* \"#utility.yul\":22977:23206   */\n      pop\n      jump\t// out\n        /* \"#utility.yul\":23212:23578   */\n    tag_502:\n        /* \"#utility.yul\":23354:23357   */\n      0x00\n        /* \"#utility.yul\":23375:23442   */\n      tag_737\n        /* \"#utility.yul\":23439:23441   */\n      0x2a\n        /* \"#utility.yul\":23434:23437   */\n      dup4\n        /* \"#utility.yul\":23375:23442   */\n      tag_444\n      jump\t// in\n    tag_737:\n        /* \"#utility.yul\":23368:23442   */\n      swap2\n      pop\n        /* \"#utility.yul\":23451:23544   */\n      tag_738\n        /* \"#utility.yul\":23540:23543   */\n      dup3\n        /* \"#utility.yul\":23451:23544   */\n      tag_501\n      jump\t// in\n    tag_738:\n        /* \"#utility.yul\":23569:23571   */\n      0x40\n        /* \"#utility.yul\":23564:23567   */\n      dup3\n        /* \"#utility.yul\":23560:23572   */\n      add\n        /* \"#utility.yul\":23553:23572   */\n      swap1\n      pop\n        /* \"#utility.yul\":23212:23578   */\n      swap2\n      swap1\n      pop\n      jump\t// out\n        /* \"#utility.yul\":23584:24003   */\n    tag_347:\n        /* \"#utility.yul\":23750:23754   */\n      0x00\n        /* \"#utility.yul\":23788:23790   */\n      0x20\n        /* \"#utility.yul\":23777:23786   */\n      dup3\n        /* \"#utility.yul\":23773:23791   */\n      add\n        /* \"#utility.yul\":23765:23791   */\n      swap1\n      pop\n        /* \"#utility.yul\":23837:23846   */\n      dup2\n        /* \"#utility.yul\":23831:23835   */\n      dup2\n        /* \"#utility.yul\":23827:23847   */\n      sub\n        /* \"#utility.yul\":23823:23824   */\n      0x00\n        /* \"#utility.yul\":23812:23821   */\n      dup4\n        /* \"#utility.yul\":23808:23825   */\n      add\n        /* \"#utility.yul\":23801:23848   */\n      mstore\n        /* \"#utility.yul\":23865:23996   */\n      tag_740\n        /* \"#utility.yul\":23991:23995   */\n      dup2\n        /* \"#utility.yul\":23865:23996   */\n      tag_502\n      jump\t// in\n    tag_740:\n        /* \"#utility.yul\":23857:23996   */\n      swap1\n      pop\n        /* \"#utility.yul\":23584:24003   */\n      swap2\n      swap1\n      pop\n      jump\t// out\n        /* \"#utility.yul\":24009:24189   */\n    tag_355:\n        /* \"#utility.yul\":24057:24134   */\n      0x4e487b7100000000000000000000000000000000000000000000000000000000\n        /* \"#utility.yul\":24054:24055   */\n      0x00\n        /* \"#utility.yul\":24047:24135   */\n      mstore\n        /* \"#utility.yul\":24154:24158   */\n      0x41\n        /* \"#utility.yul\":24151:24152   */\n      0x04\n        /* \"#utility.yul\":24144:24159   */\n      mstore\n        /* \"#utility.yul\":24178:24182   */\n      0x24\n        /* \"#utility.yul\":24175:24176   */\n      0x00\n        /* \"#utility.yul\":24168:24183   */\n      revert\n        /* \"#utility.yul\":24195:24280   */\n    tag_503:\n        /* \"#utility.yul\":24240:24247   */\n      0x00\n        /* \"#utility.yul\":24269:24274   */\n      dup2\n        /* \"#utility.yul\":24258:24274   */\n      swap1\n      pop\n        /* \"#utility.yul\":24195:24280   */\n      swap2\n      swap1\n      pop\n      jump\t// out\n        /* \"#utility.yul\":24286:24444   */\n    tag_504:\n        /* \"#utility.yul\":24344:24353   */\n      0x00\n        /* \"#utility.yul\":24377:24438   */\n      tag_744\n        /* \"#utility.yul\":24395:24437   */\n      tag_745\n        /* \"#utility.yul\":24404:24436   */\n      tag_746\n        /* \"#utility.yul\":24430:24435   */\n      dup5\n        /* \"#utility.yul\":24404:24436   */\n      tag_503\n      jump\t// in\n    tag_746:\n        /* \"#utility.yul\":24395:24437   */\n      tag_460\n      jump\t// in\n    tag_745:\n        /* \"#utility.yul\":24377:24438   */\n      tag_455\n      jump\t// in\n    tag_744:\n        /* \"#utility.yul\":24364:24438   */\n      swap1\n      pop\n        /* \"#utility.yul\":24286:24444   */\n      swap2\n      swap1\n      pop\n      jump\t// out\n        /* \"#utility.yul\":24450:24597   */\n    tag_505:\n        /* \"#utility.yul\":24545:24590   */\n      tag_748\n        /* \"#utility.yul\":24584:24589   */\n      dup2\n        /* \"#utility.yul\":24545:24590   */\n      tag_504\n      jump\t// in\n    tag_748:\n        /* \"#utility.yul\":24540:24543   */\n      dup3\n        /* \"#utility.yul\":24533:24591   */\n      mstore\n        /* \"#utility.yul\":24450:24597   */\n      pop\n      pop\n      jump\t// out\n        /* \"#utility.yul\":24603:24717   */\n    tag_506:\n        /* \"#utility.yul\":24670:24676   */\n      0x00\n        /* \"#utility.yul\":24704:24709   */\n      dup2\n        /* \"#utility.yul\":24698:24710   */\n      mload\n        /* \"#utility.yul\":24688:24710   */\n      swap1\n      pop\n        /* \"#utility.yul\":24603:24717   */\n      swap2\n      swap1\n      pop\n      jump\t// out\n        /* \"#utility.yul\":24723:24907   */\n    tag_507:\n        /* \"#utility.yul\":24822:24833   */\n      0x00\n        /* \"#utility.yul\":24856:24862   */\n      dup3\n        /* \"#utility.yul\":24851:24854   */\n      dup3\n        /* \"#utility.yul\":24844:24863   */\n      mstore\n        /* \"#utility.yul\":24896:24900   */\n      0x20\n        /* \"#utility.yul\":24891:24894   */\n      dup3\n        /* \"#utility.yul\":24887:24901   */\n      add\n        /* \"#utility.yul\":24872:24901   */\n      swap1\n      pop\n        /* \"#utility.yul\":24723:24907   */\n      swap3\n      swap2\n      pop\n      pop\n      jump\t// out\n        /* \"#utility.yul\":24913:25045   */\n    tag_508:\n        /* \"#utility.yul\":24980:24984   */\n      0x00\n        /* \"#utility.yul\":25003:25006   */\n      dup2\n        /* \"#utility.yul\":24995:25006   */\n      swap1\n      pop\n        /* \"#utility.yul\":25033:25037   */\n      0x20\n        /* \"#utility.yul\":25028:25031   */\n      dup3\n        /* \"#utility.yul\":25024:25038   */\n      add\n        /* \"#utility.yul\":25016:25038   */\n      swap1\n      pop\n        /* \"#utility.yul\":24913:25045   */\n      swap2\n      swap1\n      pop\n      jump\t// out\n        /* \"#utility.yul\":25051:25159   */\n    tag_509:\n        /* \"#utility.yul\":25128:25152   */\n      tag_753\n        /* \"#utility.yul\":25146:25151   */\n      dup2\n        /* \"#utility.yul\":25128:25152   */\n      tag_452\n      jump\t// in\n    tag_753:\n        /* \"#utility.yul\":25123:25126   */\n      dup3\n        /* \"#utility.yul\":25116:25153   */\n      mstore\n        /* \"#utility.yul\":25051:25159   */\n      pop\n      pop\n      jump\t// out\n        /* \"#utility.yul\":25165:25344   */\n    tag_510:\n        /* \"#utility.yul\":25234:25244   */\n      0x00\n        /* \"#utility.yul\":25255:25301   */\n      tag_755\n        /* \"#utility.yul\":25297:25300   */\n      dup4\n        /* \"#utility.yul\":25289:25295   */\n      dup4\n        /* \"#utility.yul\":25255:25301   */\n      tag_509\n      jump\t// in\n    tag_755:\n        /* \"#utility.yul\":25333:25337   */\n      0x20\n        /* \"#utility.yul\":25328:25331   */\n      dup4\n        /* \"#utility.yul\":25324:25338   */\n      add\n        /* \"#utility.yul\":25310:25338   */\n      swap1\n      pop\n        /* \"#utility.yul\":25165:25344   */\n      swap3\n      swap2\n      pop\n      pop\n      jump\t// out\n        /* \"#utility.yul\":25350:25463   */\n    tag_511:\n        /* \"#utility.yul\":25420:25424   */\n      0x00\n        /* \"#utility.yul\":25452:25456   */\n      0x20\n        /* \"#utility.yul\":25447:25450   */\n      dup3\n        /* \"#utility.yul\":25443:25457   */\n      add\n        /* \"#utility.yul\":25435:25457   */\n      swap1\n      pop\n        /* \"#utility.yul\":25350:25463   */\n      swap2\n      swap1\n      pop\n      jump\t// out\n        /* \"#utility.yul\":25499:26231   */\n    tag_512:\n        /* \"#utility.yul\":25618:25621   */\n      0x00\n        /* \"#utility.yul\":25647:25701   */\n      tag_758\n        /* \"#utility.yul\":25695:25700   */\n      dup3\n        /* \"#utility.yul\":25647:25701   */\n      tag_506\n      jump\t// in\n    tag_758:\n        /* \"#utility.yul\":25717:25803   */\n      tag_759\n        /* \"#utility.yul\":25796:25802   */\n      dup2\n        /* \"#utility.yul\":25791:25794   */\n      dup6\n        /* \"#utility.yul\":25717:25803   */\n      tag_507\n      jump\t// in\n    tag_759:\n        /* \"#utility.yul\":25710:25803   */\n      swap4\n      pop\n        /* \"#utility.yul\":25827:25883   */\n      tag_760\n        /* \"#utility.yul\":25877:25882   */\n      dup4\n        /* \"#utility.yul\":25827:25883   */\n      tag_508\n      jump\t// in\n    tag_760:\n        /* \"#utility.yul\":25906:25913   */\n      dup1\n        /* \"#utility.yul\":25937:25938   */\n      0x00\n        /* \"#utility.yul\":25922:26206   */\n    tag_761:\n        /* \"#utility.yul\":25947:25953   */\n      dup4\n        /* \"#utility.yul\":25944:25945   */\n      dup2\n        /* \"#utility.yul\":25941:25954   */\n      lt\n        /* \"#utility.yul\":25922:26206   */\n      iszero\n      tag_763\n      jumpi\n        /* \"#utility.yul\":26023:26029   */\n      dup2\n        /* \"#utility.yul\":26017:26030   */\n      mload\n        /* \"#utility.yul\":26050:26113   */\n      tag_764\n        /* \"#utility.yul\":26109:26112   */\n      dup9\n        /* \"#utility.yul\":26094:26107   */\n      dup3\n        /* \"#utility.yul\":26050:26113   */\n      tag_510\n      jump\t// in\n    tag_764:\n        /* \"#utility.yul\":26043:26113   */\n      swap8\n      pop\n        /* \"#utility.yul\":26136:26196   */\n      tag_765\n        /* \"#utility.yul\":26189:26195   */\n      dup4\n        /* \"#utility.yul\":26136:26196   */\n      tag_511\n      jump\t// in\n    tag_765:\n        /* \"#utility.yul\":26126:26196   */\n      swap3\n      pop\n        /* \"#utility.yul\":25982:26206   */\n      pop\n        /* \"#utility.yul\":25969:25970   */\n      0x01\n        /* \"#utility.yul\":25966:25967   */\n      dup2\n        /* \"#utility.yul\":25962:25971   */\n      add\n        /* \"#utility.yul\":25957:25971   */\n      swap1\n      pop\n        /* \"#utility.yul\":25922:26206   */\n      jump(tag_761)\n    tag_763:\n        /* \"#utility.yul\":25926:25940   */\n      pop\n        /* \"#utility.yul\":26222:26225   */\n      dup6\n        /* \"#utility.yul\":26215:26225   */\n      swap4\n      pop\n        /* \"#utility.yul\":25623:26231   */\n      pop\n      pop\n      pop\n        /* \"#utility.yul\":25499:26231   */\n      swap3\n      swap2\n      pop\n      pop\n      jump\t// out\n        /* \"#utility.yul\":26237:27068   */\n    tag_366:\n        /* \"#utility.yul\":26500:26504   */\n      0x00\n        /* \"#utility.yul\":26538:26541   */\n      0xa0\n        /* \"#utility.yul\":26527:26536   */\n      dup3\n        /* \"#utility.yul\":26523:26542   */\n      add\n        /* \"#utility.yul\":26515:26542   */\n      swap1\n      pop\n        /* \"#utility.yul\":26552:26623   */\n      tag_767\n        /* \"#utility.yul\":26620:26621   */\n      0x00\n        /* \"#utility.yul\":26609:26618   */\n      dup4\n        /* \"#utility.yul\":26605:26622   */\n      add\n        /* \"#utility.yul\":26596:26602   */\n      dup9\n        /* \"#utility.yul\":26552:26623   */\n      tag_465\n      jump\t// in\n    tag_767:\n        /* \"#utility.yul\":26633:26713   */\n      tag_768\n        /* \"#utility.yul\":26709:26711   */\n      0x20\n        /* \"#utility.yul\":26698:26707   */\n      dup4\n        /* \"#utility.yul\":26694:26712   */\n      add\n        /* \"#utility.yul\":26685:26691   */\n      dup8\n        /* \"#utility.yul\":26633:26713   */\n      tag_505\n      jump\t// in\n    tag_768:\n        /* \"#utility.yul\":26760:26769   */\n      dup2\n        /* \"#utility.yul\":26754:26758   */\n      dup2\n        /* \"#utility.yul\":26750:26770   */\n      sub\n        /* \"#utility.yul\":26745:26747   */\n      0x40\n        /* \"#utility.yul\":26734:26743   */\n      dup4\n        /* \"#utility.yul\":26730:26748   */\n      add\n        /* \"#utility.yul\":26723:26771   */\n      mstore\n        /* \"#utility.yul\":26788:26896   */\n      tag_769\n        /* \"#utility.yul\":26891:26895   */\n      dup2\n        /* \"#utility.yul\":26882:26888   */\n      dup7\n        /* \"#utility.yul\":26788:26896   */\n      tag_512\n      jump\t// in\n    tag_769:\n        /* \"#utility.yul\":26780:26896   */\n      swap1\n      pop\n        /* \"#utility.yul\":26906:26978   */\n      tag_770\n        /* \"#utility.yul\":26974:26976   */\n      0x60\n        /* \"#utility.yul\":26963:26972   */\n      dup4\n        /* \"#utility.yul\":26959:26977   */\n      add\n        /* \"#utility.yul\":26950:26956   */\n      dup6\n        /* \"#utility.yul\":26906:26978   */\n      tag_468\n      jump\t// in\n    tag_770:\n        /* \"#utility.yul\":26988:27061   */\n      tag_771\n        /* \"#utility.yul\":27056:27059   */\n      0x80\n        /* \"#utility.yul\":27045:27054   */\n      dup4\n        /* \"#utility.yul\":27041:27060   */\n      add\n        /* \"#utility.yul\":27032:27038   */\n      dup5\n        /* \"#utility.yul\":26988:27061   */\n      tag_465\n      jump\t// in\n    tag_771:\n        /* \"#utility.yul\":26237:27068   */\n      swap7\n      swap6\n      pop\n      pop\n      pop\n      pop\n      pop\n      pop\n      jump\t// out\n        /* \"#utility.yul\":27074:27254   */\n    tag_513:\n        /* \"#utility.yul\":27122:27199   */\n      0x4e487b7100000000000000000000000000000000000000000000000000000000\n        /* \"#utility.yul\":27119:27120   */\n      0x00\n        /* \"#utility.yul\":27112:27200   */\n      mstore\n        /* \"#utility.yul\":27219:27223   */\n      0x12\n        /* \"#utility.yul\":27216:27217   */\n      0x04\n        /* \"#utility.yul\":27209:27224   */\n      mstore\n        /* \"#utility.yul\":27243:27247   */\n      0x24\n        /* \"#utility.yul\":27240:27241   */\n      0x00\n        /* \"#utility.yul\":27233:27248   */\n      revert\n        /* \"#utility.yul\":27260:27445   */\n    tag_396:\n        /* \"#utility.yul\":27300:27301   */\n      0x00\n        /* \"#utility.yul\":27317:27337   */\n      tag_774\n        /* \"#utility.yul\":27335:27336   */\n      dup3\n        /* \"#utility.yul\":27317:27337   */\n      tag_455\n      jump\t// in\n    tag_774:\n        /* \"#utility.yul\":27312:27337   */\n      swap2\n      pop\n        /* \"#utility.yul\":27351:27371   */\n      tag_775\n        /* \"#utility.yul\":27369:27370   */\n      dup4\n        /* \"#utility.yul\":27351:27371   */\n      tag_455\n      jump\t// in\n    tag_775:\n        /* \"#utility.yul\":27346:27371   */\n      swap3\n      pop\n        /* \"#utility.yul\":27390:27391   */\n      dup3\n        /* \"#utility.yul\":27380:27415   */\n      tag_776\n      jumpi\n        /* \"#utility.yul\":27395:27413   */\n      tag_777\n      tag_513\n      jump\t// in\n    tag_777:\n        /* \"#utility.yul\":27380:27415   */\n    tag_776:\n        /* \"#utility.yul\":27437:27438   */\n      dup3\n        /* \"#utility.yul\":27434:27435   */\n      dup3\n        /* \"#utility.yul\":27430:27439   */\n      div\n        /* \"#utility.yul\":27425:27439   */\n      swap1\n      pop\n        /* \"#utility.yul\":27260:27445   */\n      swap3\n      swap2\n      pop\n      pop\n      jump\t// out\n        /* \"#utility.yul\":27451:27756   */\n    tag_410:\n        /* \"#utility.yul\":27491:27494   */\n      0x00\n        /* \"#utility.yul\":27510:27530   */\n      tag_779\n        /* \"#utility.yul\":27528:27529   */\n      dup3\n        /* \"#utility.yul\":27510:27530   */\n      tag_455\n      jump\t// in\n    tag_779:\n        /* \"#utility.yul\":27505:27530   */\n      swap2\n      pop\n        /* \"#utility.yul\":27544:27564   */\n      tag_780\n        /* \"#utility.yul\":27562:27563   */\n      dup4\n        /* \"#utility.yul\":27544:27564   */\n      tag_455\n      jump\t// in\n    tag_780:\n        /* \"#utility.yul\":27539:27564   */\n      swap3\n      pop\n        /* \"#utility.yul\":27698:27699   */\n      dup3\n        /* \"#utility.yul\":27630:27696   */\n      0xffffffffffffffffffffffffffffffffffffffffffffffffffffffffffffffff\n        /* \"#utility.yul\":27626:27700   */\n      sub\n        /* \"#utility.yul\":27623:27624   */\n      dup3\n        /* \"#utility.yul\":27620:27701   */\n      gt\n        /* \"#utility.yul\":27617:27724   */\n      iszero\n      tag_781\n      jumpi\n        /* \"#utility.yul\":27704:27722   */\n      tag_782\n      tag_489\n      jump\t// in\n    tag_782:\n        /* \"#utility.yul\":27617:27724   */\n    tag_781:\n        /* \"#utility.yul\":27748:27749   */\n      dup3\n        /* \"#utility.yul\":27745:27746   */\n      dup3\n        /* \"#utility.yul\":27741:27750   */\n      add\n        /* \"#utility.yul\":27734:27750   */\n      swap1\n      pop\n        /* \"#utility.yul\":27451:27756   */\n      swap3\n      swap2\n      pop\n      pop\n      jump\t// out\n        /* \"#utility.yul\":27762:27939   */\n    tag_514:\n        /* \"#utility.yul\":27902:27931   */\n      0x536166654d6174683a206164646974696f6e206f766572666c6f770000000000\n        /* \"#utility.yul\":27898:27899   */\n      0x00\n        /* \"#utility.yul\":27890:27896   */\n      dup3\n        /* \"#utility.yul\":27886:27900   */\n      add\n        /* \"#utility.yul\":27879:27932   */\n      mstore\n        /* \"#utility.yul\":27762:27939   */\n      pop\n      jump\t// out\n        /* \"#utility.yul\":27945:28311   */\n    tag_515:\n        /* \"#utility.yul\":28087:28090   */\n      0x00\n        /* \"#utility.yul\":28108:28175   */\n      tag_785\n        /* \"#utility.yul\":28172:28174   */\n      0x1b\n        /* \"#utility.yul\":28167:28170   */\n      dup4\n        /* \"#utility.yul\":28108:28175   */\n      tag_444\n      jump\t// in\n    tag_785:\n        /* \"#utility.yul\":28101:28175   */\n      swap2\n      pop\n        /* \"#utility.yul\":28184:28277   */\n      tag_786\n        /* \"#utility.yul\":28273:28276   */\n      dup3\n        /* \"#utility.yul\":28184:28277   */\n      tag_514\n      jump\t// in\n    tag_786:\n        /* \"#utility.yul\":28302:28304   */\n      0x20\n        /* \"#utility.yul\":28297:28300   */\n      dup3\n        /* \"#utility.yul\":28293:28305   */\n      add\n        /* \"#utility.yul\":28286:28305   */\n      swap1\n      pop\n        /* \"#utility.yul\":27945:28311   */\n      swap2\n      swap1\n      pop\n      jump\t// out\n        /* \"#utility.yul\":28317:28736   */\n    tag_413:\n        /* \"#utility.yul\":28483:28487   */\n      0x00\n        /* \"#utility.yul\":28521:28523   */\n      0x20\n        /* \"#utility.yul\":28510:28519   */\n      dup3\n        /* \"#utility.yul\":28506:28524   */\n      add\n        /* \"#utility.yul\":28498:28524   */\n      swap1\n      pop\n        /* \"#utility.yul\":28570:28579   */\n      dup2\n        /* \"#utility.yul\":28564:28568   */\n      dup2\n        /* \"#utility.yul\":28560:28580   */\n      sub\n        /* \"#utility.yul\":28556:28557   */\n      0x00\n        /* \"#utility.yul\":28545:28554   */\n      dup4\n        /* \"#utility.yul\":28541:28558   */\n      add\n        /* \"#utility.yul\":28534:28581   */\n      mstore\n        /* \"#utility.yul\":28598:28729   */\n      tag_788\n        /* \"#utility.yul\":28724:28728   */\n      dup2\n        /* \"#utility.yul\":28598:28729   */\n      tag_515\n      jump\t// in\n    tag_788:\n        /* \"#utility.yul\":28590:28729   */\n      swap1\n      pop\n        /* \"#utility.yul\":28317:28736   */\n      swap2\n      swap1\n      pop\n      jump\t// out\n        /* \"#utility.yul\":28742:29090   */\n    tag_438:\n        /* \"#utility.yul\":28782:28789   */\n      0x00\n        /* \"#utility.yul\":28805:28825   */\n      tag_790\n        /* \"#utility.yul\":28823:28824   */\n      dup3\n        /* \"#utility.yul\":28805:28825   */\n      tag_455\n      jump\t// in\n    tag_790:\n        /* \"#utility.yul\":28800:28825   */\n      swap2\n      pop\n        /* \"#utility.yul\":28839:28859   */\n      tag_791\n        /* \"#utility.yul\":28857:28858   */\n      dup4\n        /* \"#utility.yul\":28839:28859   */\n      tag_455\n      jump\t// in\n    tag_791:\n        /* \"#utility.yul\":28834:28859   */\n      swap3\n      pop\n        /* \"#utility.yul\":29027:29028   */\n      dup2\n        /* \"#utility.yul\":28959:29025   */\n      0xffffffffffffffffffffffffffffffffffffffffffffffffffffffffffffffff\n        /* \"#utility.yul\":28955:29029   */\n      div\n        /* \"#utility.yul\":28952:28953   */\n      dup4\n        /* \"#utility.yul\":28949:29030   */\n      gt\n        /* \"#utility.yul\":28944:28945   */\n      dup3\n        /* \"#utility.yul\":28937:28946   */\n      iszero\n        /* \"#utility.yul\":28930:28947   */\n      iszero\n        /* \"#utility.yul\":28926:29031   */\n      and\n        /* \"#utility.yul\":28923:29054   */\n      iszero\n      tag_792\n      jumpi\n        /* \"#utility.yul\":29034:29052   */\n      tag_793\n      tag_489\n      jump\t// in\n    tag_793:\n        /* \"#utility.yul\":28923:29054   */\n    tag_792:\n        /* \"#utility.yul\":29082:29083   */\n      dup3\n        /* \"#utility.yul\":29079:29080   */\n      dup3\n        /* \"#utility.yul\":29075:29084   */\n      mul\n        /* \"#utility.yul\":29064:29084   */\n      swap1\n      pop\n        /* \"#utility.yul\":28742:29090   */\n      swap3\n      swap2\n      pop\n      pop\n      jump\t// out\n        /* \"#utility.yul\":29096:29316   */\n    tag_516:\n        /* \"#utility.yul\":29236:29270   */\n      0x536166654d6174683a206d756c7469706c69636174696f6e206f766572666c6f\n        /* \"#utility.yul\":29232:29233   */\n      0x00\n        /* \"#utility.yul\":29224:29230   */\n      dup3\n        /* \"#utility.yul\":29220:29234   */\n      add\n        /* \"#utility.yul\":29213:29271   */\n      mstore\n        /* \"#utility.yul\":29305:29308   */\n      0x7700000000000000000000000000000000000000000000000000000000000000\n        /* \"#utility.yul\":29300:29302   */\n      0x20\n        /* \"#utility.yul\":29292:29298   */\n      dup3\n        /* \"#utility.yul\":29288:29303   */\n      add\n        /* \"#utility.yul\":29281:29309   */\n      mstore\n        /* \"#utility.yul\":29096:29316   */\n      pop\n      jump\t// out\n        /* \"#utility.yul\":29322:29688   */\n    tag_517:\n        /* \"#utility.yul\":29464:29467   */\n      0x00\n        /* \"#utility.yul\":29485:29552   */\n      tag_796\n        /* \"#utility.yul\":29549:29551   */\n      0x21\n        /* \"#utility.yul\":29544:29547   */\n      dup4\n        /* \"#utility.yul\":29485:29552   */\n      tag_444\n      jump\t// in\n    tag_796:\n        /* \"#utility.yul\":29478:29552   */\n      swap2\n      pop\n        /* \"#utility.yul\":29561:29654   */\n      tag_797\n        /* \"#utility.yul\":29650:29653   */\n      dup3\n        /* \"#utility.yul\":29561:29654   */\n      tag_516\n      jump\t// in\n    tag_797:\n        /* \"#utility.yul\":29679:29681   */\n      0x40\n        /* \"#utility.yul\":29674:29677   */\n      dup3\n        /* \"#utility.yul\":29670:29682   */\n      add\n        /* \"#utility.yul\":29663:29682   */\n      swap1\n      pop\n        /* \"#utility.yul\":29322:29688   */\n      swap2\n      swap1\n      pop\n      jump\t// out\n        /* \"#utility.yul\":29694:30113   */\n    tag_442:\n        /* \"#utility.yul\":29860:29864   */\n      0x00\n        /* \"#utility.yul\":29898:29900   */\n      0x20\n        /* \"#utility.yul\":29887:29896   */\n      dup3\n        /* \"#utility.yul\":29883:29901   */\n      add\n        /* \"#utility.yul\":29875:29901   */\n      swap1\n      pop\n        /* \"#utility.yul\":29947:29956   */\n      dup2\n        /* \"#utility.yul\":29941:29945   */\n      dup2\n        /* \"#utility.yul\":29937:29957   */\n      sub\n        /* \"#utility.yul\":29933:29934   */\n      0x00\n        /* \"#utility.yul\":29922:29931   */\n      dup4\n        /* \"#utility.yul\":29918:29935   */\n      add\n        /* \"#utility.yul\":29911:29958   */\n      mstore\n        /* \"#utility.yul\":29975:30106   */\n      tag_799\n        /* \"#utility.yul\":30101:30105   */\n      dup2\n        /* \"#utility.yul\":29975:30106   */\n      tag_517\n      jump\t// in\n    tag_799:\n        /* \"#utility.yul\":29967:30106   */\n      swap1\n      pop\n        /* \"#utility.yul\":29694:30113   */\n      swap2\n      swap1\n      pop\n      jump\t// out\n    stop\n    data_974d1b4421da69cc60b481194f0dad36a5bb4e23da810da7a7fb30cdba178330 45524332303a207472616e7366657220616d6f756e74206578636565647320616c6c6f77616e6365\n\n    auxdata: 0xa2646970667358221220ada3a5abbb3cc4af17ed0624c8e295ebcd12bb46e8ea71a26b333ee7653fdb7264736f6c634300080d0033\n}\n",
				"bytecode": {
					"linkReferences": {},
					"object": "6080604052670de0b6b3a76400006414f46b04006200001f919062000538565b6414f46b04006200003191906200059f565b600655600160085560046009556001600a556001600b55738492cbd894686d7e98214541903c7ba6f94928d6600e60006101000a81548173ffffffffffffffffffffffffffffffffffffffff021916908373ffffffffffffffffffffffffffffffffffffffff16021790555073a4ed7aa4ef5deb0a63e97d9cb77445ae553feb1d600f60006101000a81548173ffffffffffffffffffffffffffffffffffffffff021916908373ffffffffffffffffffffffffffffffffffffffff1602179055506000601260146101000a81548160ff0219169083151502179055506001601260156101000a81548160ff0219169083151502179055503480156200013557600080fd5b50600062000148620004ce60201b60201c565b9050806000806101000a81548173ffffffffffffffffffffffffffffffffffffffff021916908373ffffffffffffffffffffffffffffffffffffffff1602179055508073ffffffffffffffffffffffffffffffffffffffff16600073ffffffffffffffffffffffffffffffffffffffff167f8be0079c531659141344cd1fd0a4f28419497f9722a3daafe3b4186f6b6457e060405160405180910390a35060065460026000620001fd620004ce60201b60201c565b73ffffffffffffffffffffffffffffffffffffffff1673ffffffffffffffffffffffffffffffffffffffff1681526020019081526020016000208190555060007310ed43c718714eb63d5aa57b78b54704e256024e905080601060006101000a81548173ffffffffffffffffffffffffffffffffffffffff021916908373ffffffffffffffffffffffffffffffffffffffff160217905550600160056000620002ab620004d660201b60201c565b73ffffffffffffffffffffffffffffffffffffffff1673ffffffffffffffffffffffffffffffffffffffff16815260200190815260200160002060006101000a81548160ff0219169083151502179055506001600560003073ffffffffffffffffffffffffffffffffffffffff1673ffffffffffffffffffffffffffffffffffffffff16815260200190815260200160002060006101000a81548160ff021916908315150217905550600160056000600e60009054906101000a900473ffffffffffffffffffffffffffffffffffffffff1673ffffffffffffffffffffffffffffffffffffffff1673ffffffffffffffffffffffffffffffffffffffff16815260200190815260200160002060006101000a81548160ff021916908315150217905550600160056000600f60009054906101000a900473ffffffffffffffffffffffffffffffffffffffff1673ffffffffffffffffffffffffffffffffffffffff1673ffffffffffffffffffffffffffffffffffffffff16815260200190815260200160002060006101000a81548160ff02191690831515021790555062000458620004ce60201b60201c565b73ffffffffffffffffffffffffffffffffffffffff16600073ffffffffffffffffffffffffffffffffffffffff167fddf252ad1be2c89b69c2b068fc378daa952ba7f163c4a11628f55a4df523b3ef670de0b6b3a7640000604051620004bf9190620005eb565b60405180910390a35062000608565b600033905090565b60008060009054906101000a900473ffffffffffffffffffffffffffffffffffffffff16905090565b6000819050919050565b7f4e487b7100000000000000000000000000000000000000000000000000000000600052601260045260246000fd5b60006200054582620004ff565b91506200055283620004ff565b92508262000565576200056462000509565b5b828206905092915050565b7f4e487b7100000000000000000000000000000000000000000000000000000000600052601160045260246000fd5b6000620005ac82620004ff565b9150620005b983620004ff565b925082821015620005cf57620005ce62000570565b5b828203905092915050565b620005e581620004ff565b82525050565b6000602082019050620006026000830184620005da565b92915050565b613ca480620006186000396000f3fe60806040526004361061014f5760003560e01c8063715018a6116100b6578063aad5c0231161006f578063aad5c02314610467578063c3c8cd8014610490578063c492f046146104a7578063dd62ed3e146104d0578063e293d3161461050d578063f2fde38b1461053657610156565b8063715018a61461036b578063758dbe03146103825780638da5cb5b146103ab57806395d89b41146103d6578063a2a957bb14610401578063a9059cbb1461042a57610156565b8063313ce56711610108578063313ce5671461026d57806349bd5a5e1461029857806359d0f713146102c35780636d8aa8f8146102ee5780636fc3eaec1461031757806370a082311461032e57610156565b806305a272ea1461015b57806306fdde0314610172578063095ea7b31461019d5780631694505e146101da57806318160ddd1461020557806323b872dd1461023057610156565b3661015657005b600080fd5b34801561016757600080fd5b5061017061055f565b005b34801561017e57600080fd5b506101876107d4565b6040516101949190612cc3565b60405180910390f35b3480156101a957600080fd5b506101c460048036038101906101bf9190612d83565b610811565b6040516101d19190612dde565b60405180910390f35b3480156101e657600080fd5b506101ef61082f565b6040516101fc9190612e58565b60405180910390f35b34801561021157600080fd5b5061021a610855565b6040516102279190612e82565b60405180910390f35b34801561023c57600080fd5b5061025760048036038101906102529190612e9d565b610865565b6040516102649190612dde565b60405180910390f35b34801561027957600080fd5b5061028261093e565b60405161028f9190612f0c565b60405180910390f35b3480156102a457600080fd5b506102ad610947565b6040516102ba9190612f36565b60405180910390f35b3480156102cf57600080fd5b506102d861096d565b6040516102e59190612f72565b60405180910390f35b3480156102fa57600080fd5b5061031560048036038101906103109190612fb9565b610993565b005b34801561032357600080fd5b5061032c610a8b565b005b34801561033a57600080fd5b5061035560048036038101906103509190612fe6565b610ba0565b6040516103629190612e82565b60405180910390f35b34801561037757600080fd5b50610380610bf1565b005b34801561038e57600080fd5b506103a960048036038101906103a49190613051565b610d44565b005b3480156103b757600080fd5b506103c0610f59565b6040516103cd9190612f36565b60405180910390f35b3480156103e257600080fd5b506103eb610f82565b6040516103f89190612cc3565b60405180910390f35b34801561040d57600080fd5b506104286004803603810190610423919061307e565b610fbf565b005b34801561043657600080fd5b50610451600480360381019061044c9190612d83565b6111c8565b60405161045e9190612dde565b60405180910390f35b34801561047357600080fd5b5061048e60048036038101906104899190613051565b6111e6565b005b34801561049c57600080fd5b506104a56113fb565b005b3480156104b357600080fd5b506104ce60048036038101906104c9919061314a565b611518565b005b3480156104dc57600080fd5b506104f760048036038101906104f291906131aa565b611652565b6040516105049190612e82565b60405180910390f35b34801561051957600080fd5b50610534600480360381019061052f9190612e9d565b6116d9565b005b34801561054257600080fd5b5061055d60048036038101906105589190612fe6565b61189d565b005b6105676119ef565b73ffffffffffffffffffffffffffffffffffffffff1660008054906101000a900473ffffffffffffffffffffffffffffffffffffffff1673ffffffffffffffffffffffffffffffffffffffff16146105f4576040517f08c379a00000000000000000000000000000000000000000000000000000000081526004016105eb90613236565b60405180910390fd5b601060009054906101000a900473ffffffffffffffffffffffffffffffffffffffff1673ffffffffffffffffffffffffffffffffffffffff1663c45a01556040518163ffffffff1660e01b8152600401602060405180830381865afa158015610661573d6000803e3d6000fd5b505050506040513d601f19601f82011682018060405250810190610685919061326b565b73ffffffffffffffffffffffffffffffffffffffff1663c9c6539630601060009054906101000a900473ffffffffffffffffffffffffffffffffffffffff1673ffffffffffffffffffffffffffffffffffffffff1663ad5c46486040518163ffffffff1660e01b8152600401602060405180830381865afa15801561070e573d6000803e3d6000fd5b505050506040513d601f19601f82011682018060405250810190610732919061326b565b6040518363ffffffff1660e01b815260040161074f929190613298565b6020604051808303816000875af115801561076e573d6000803e3d6000fd5b505050506040513d601f19601f82011682018060405250810190610792919061326b565b601260006101000a81548173ffffffffffffffffffffffffffffffffffffffff021916908373ffffffffffffffffffffffffffffffffffffffff160217905550565b60606040518060400160405280600a81526020017f576f726c64205374657000000000000000000000000000000000000000000000815250905090565b600061082561081e6119ef565b84846119f7565b6001905092915050565b601060009054906101000a900473ffffffffffffffffffffffffffffffffffffffff1681565b6000670de0b6b3a7640000905090565b6000610872848484611bc0565b6109338461087e6119ef565b61092e85604051806060016040528060288152602001613c4760289139600460008b73ffffffffffffffffffffffffffffffffffffffff1673ffffffffffffffffffffffffffffffffffffffff16815260200190815260200160002060006108e46119ef565b73ffffffffffffffffffffffffffffffffffffffff1673ffffffffffffffffffffffffffffffffffffffff168152602001908152602001600020546121329092919063ffffffff16565b6119f7565b600190509392505050565b60006009905090565b601260009054906101000a900473ffffffffffffffffffffffffffffffffffffffff1681565b601160009054906101000a900473ffffffffffffffffffffffffffffffffffffffff1681565b61099b6119ef565b73ffffffffffffffffffffffffffffffffffffffff166109b9610f59565b73ffffffffffffffffffffffffffffffffffffffff161480610a2f57506109de6119ef565b73ffffffffffffffffffffffffffffffffffffffff16600e60009054906101000a900473ffffffffffffffffffffffffffffffffffffffff1673ffffffffffffffffffffffffffffffffffffffff16145b610a6e576040517f08c379a0000000000000000000000000000000000000000000000000000000008152600401610a659061330d565b60405180910390fd5b80601260156101000a81548160ff02191690831515021790555050565b600e60009054906101000a900473ffffffffffffffffffffffffffffffffffffffff1673ffffffffffffffffffffffffffffffffffffffff16610acc6119ef565b73ffffffffffffffffffffffffffffffffffffffff161480610b425750600f60009054906101000a900473ffffffffffffffffffffffffffffffffffffffff1673ffffffffffffffffffffffffffffffffffffffff16610b2a6119ef565b73ffffffffffffffffffffffffffffffffffffffff16145b80610b865750610b50610f59565b73ffffffffffffffffffffffffffffffffffffffff16610b6e6119ef565b73ffffffffffffffffffffffffffffffffffffffff16145b610b8f57600080fd5b6000479050610b9d81612196565b50565b6000610bea600260008473ffffffffffffffffffffffffffffffffffffffff1673ffffffffffffffffffffffffffffffffffffffff16815260200190815260200160002054612291565b9050919050565b610bf96119ef565b73ffffffffffffffffffffffffffffffffffffffff1660008054906101000a900473ffffffffffffffffffffffffffffffffffffffff1673ffffffffffffffffffffffffffffffffffffffff1614610c86576040517f08c379a0000000000000000000000000000000000000000000000000000000008152600401610c7d90613236565b60405180910390fd5b600073ffffffffffffffffffffffffffffffffffffffff1660008054906101000a900473ffffffffffffffffffffffffffffffffffffffff1673ffffffffffffffffffffffffffffffffffffffff167f8be0079c531659141344cd1fd0a4f28419497f9722a3daafe3b4186f6b6457e060405160405180910390a360008060006101000a81548173ffffffffffffffffffffffffffffffffffffffff021916908373ffffffffffffffffffffffffffffffffffffffff160217905550565b610d4c6119ef565b73ffffffffffffffffffffffffffffffffffffffff16610d6a610f59565b73ffffffffffffffffffffffffffffffffffffffff161480610de05750610d8f6119ef565b73ffffffffffffffffffffffffffffffffffffffff16600e60009054906101000a900473ffffffffffffffffffffffffffffffffffffffff1673ffffffffffffffffffffffffffffffffffffffff16145b610e1f576040517f08c379a0000000000000000000000000000000000000000000000000000000008152600401610e169061330d565b60405180910390fd5b8073ffffffffffffffffffffffffffffffffffffffff16600f60009054906101000a900473ffffffffffffffffffffffffffffffffffffffff1673ffffffffffffffffffffffffffffffffffffffff167fa64373a629bc0c09eacf8a9cc2c7b070fa0a8b7e2e9b8aaee408a3c02eb1676b60405160405180910390a380600f60006101000a81548173ffffffffffffffffffffffffffffffffffffffff021916908373ffffffffffffffffffffffffffffffffffffffff160217905550600160056000600f60009054906101000a900473ffffffffffffffffffffffffffffffffffffffff1673ffffffffffffffffffffffffffffffffffffffff1673ffffffffffffffffffffffffffffffffffffffff16815260200190815260200160002060006101000a81548160ff02191690831515021790555050565b60008060009054906101000a900473ffffffffffffffffffffffffffffffffffffffff16905090565b60606040518060400160405280600381526020017f5753500000000000000000000000000000000000000000000000000000000000815250905090565b610fc76119ef565b73ffffffffffffffffffffffffffffffffffffffff16610fe5610f59565b73ffffffffffffffffffffffffffffffffffffffff16148061105b575061100a6119ef565b73ffffffffffffffffffffffffffffffffffffffff16600e60009054906101000a900473ffffffffffffffffffffffffffffffffffffffff1673ffffffffffffffffffffffffffffffffffffffff16145b61109a576040517f08c379a00000000000000000000000000000000000000000000000000000000081526004016110919061330d565b60405180910390fd5b600b84106110dd576040517f08c379a00000000000000000000000000000000000000000000000000000000081526004016110d490613379565b60405180910390fd5b600b8310611120576040517f08c379a000000000000000000000000000000000000000000000000000000000815260040161111790613379565b60405180910390fd5b60078210611163576040517f08c379a000000000000000000000000000000000000000000000000000000000815260040161115a906133e5565b60405180910390fd5b600781106111a6576040517f08c379a000000000000000000000000000000000000000000000000000000000815260040161119d906133e5565b60405180910390fd5b8360088190555082600a819055508160098190555080600b8190555050505050565b60006111dc6111d56119ef565b8484611bc0565b6001905092915050565b6111ee6119ef565b73ffffffffffffffffffffffffffffffffffffffff1661120c610f59565b73ffffffffffffffffffffffffffffffffffffffff16148061128257506112316119ef565b73ffffffffffffffffffffffffffffffffffffffff16600e60009054906101000a900473ffffffffffffffffffffffffffffffffffffffff1673ffffffffffffffffffffffffffffffffffffffff16145b6112c1576040517f08c379a00000000000000000000000000000000000000000000000000000000081526004016112b89061330d565b60405180910390fd5b8073ffffffffffffffffffffffffffffffffffffffff16600e60009054906101000a900473ffffffffffffffffffffffffffffffffffffffff1673ffffffffffffffffffffffffffffffffffffffff167ffbbc329437e8c79f847e170730ad6dd04106b7511cad70d06d635886d92de83c60405160405180910390a380600e60006101000a81548173ffffffffffffffffffffffffffffffffffffffff021916908373ffffffffffffffffffffffffffffffffffffffff160217905550600160056000600e60009054906101000a900473ffffffffffffffffffffffffffffffffffffffff1673ffffffffffffffffffffffffffffffffffffffff1673ffffffffffffffffffffffffffffffffffffffff16815260200190815260200160002060006101000a81548160ff02191690831515021790555050565b600e60009054906101000a900473ffffffffffffffffffffffffffffffffffffffff1673ffffffffffffffffffffffffffffffffffffffff1661143c6119ef565b73ffffffffffffffffffffffffffffffffffffffff1614806114b25750600f60009054906101000a900473ffffffffffffffffffffffffffffffffffffffff1673ffffffffffffffffffffffffffffffffffffffff1661149a6119ef565b73ffffffffffffffffffffffffffffffffffffffff16145b806114f657506114c0610f59565b73ffffffffffffffffffffffffffffffffffffffff166114de6119ef565b73ffffffffffffffffffffffffffffffffffffffff16145b6114ff57600080fd5b600061150a30610ba0565b9050611515816122ff565b50565b6115206119ef565b73ffffffffffffffffffffffffffffffffffffffff1660008054906101000a900473ffffffffffffffffffffffffffffffffffffffff1673ffffffffffffffffffffffffffffffffffffffff16146115ad576040517f08c379a00000000000000000000000000000000000000000000000000000000081526004016115a490613236565b60405180910390fd5b60005b8383905081101561164c5781600560008686858181106115d3576115d2613405565b5b90506020020160208101906115e89190612fe6565b73ffffffffffffffffffffffffffffffffffffffff1673ffffffffffffffffffffffffffffffffffffffff16815260200190815260200160002060006101000a81548160ff021916908315150217905550808061164490613463565b9150506115b0565b50505050565b6000600460008473ffffffffffffffffffffffffffffffffffffffff1673ffffffffffffffffffffffffffffffffffffffff16815260200190815260200160002060008373ffffffffffffffffffffffffffffffffffffffff1673ffffffffffffffffffffffffffffffffffffffff16815260200190815260200160002054905092915050565b6116e16119ef565b73ffffffffffffffffffffffffffffffffffffffff166116ff610f59565b73ffffffffffffffffffffffffffffffffffffffff16148061177557506117246119ef565b73ffffffffffffffffffffffffffffffffffffffff16600e60009054906101000a900473ffffffffffffffffffffffffffffffffffffffff1673ffffffffffffffffffffffffffffffffffffffff16145b6117b4576040517f08c379a00000000000000000000000000000000000000000000000000000000081526004016117ab9061330d565b60405180910390fd5b8173ffffffffffffffffffffffffffffffffffffffff168373ffffffffffffffffffffffffffffffffffffffff167f47c33aa230eb5fd181505aa7befeaddd9b8a6f983989cea73a7868448c3a9ed9836040516118119190612e82565b60405180910390a38273ffffffffffffffffffffffffffffffffffffffff1663a9059cbb83836040518363ffffffff1660e01b81526004016118549291906134ab565b6020604051808303816000875af1158015611873573d6000803e3d6000fd5b505050506040513d601f19601f8201168201806040525081019061189791906134e9565b50505050565b6118a56119ef565b73ffffffffffffffffffffffffffffffffffffffff1660008054906101000a900473ffffffffffffffffffffffffffffffffffffffff1673ffffffffffffffffffffffffffffffffffffffff1614611932576040517f08c379a000000000000000000000000000000000000000000000000000000000815260040161192990613236565b60405180910390fd5b8073ffffffffffffffffffffffffffffffffffffffff1660008054906101000a900473ffffffffffffffffffffffffffffffffffffffff1673ffffffffffffffffffffffffffffffffffffffff167f8be0079c531659141344cd1fd0a4f28419497f9722a3daafe3b4186f6b6457e060405160405180910390a3806000806101000a81548173ffffffffffffffffffffffffffffffffffffffff021916908373ffffffffffffffffffffffffffffffffffffffff16021790555050565b600033905090565b600073ffffffffffffffffffffffffffffffffffffffff168373ffffffffffffffffffffffffffffffffffffffff1603611a66576040517f08c379a0000000000000000000000000000000000000000000000000000000008152600401611a5d90613588565b60405180910390fd5b600073ffffffffffffffffffffffffffffffffffffffff168273ffffffffffffffffffffffffffffffffffffffff1603611ad5576040517f08c379a0000000000000000000000000000000000000000000000000000000008152600401611acc9061361a565b60405180910390fd5b80600460008573ffffffffffffffffffffffffffffffffffffffff1673ffffffffffffffffffffffffffffffffffffffff16815260200190815260200160002060008473ffffffffffffffffffffffffffffffffffffffff1673ffffffffffffffffffffffffffffffffffffffff168152602001908152602001600020819055508173ffffffffffffffffffffffffffffffffffffffff168373ffffffffffffffffffffffffffffffffffffffff167f8c5be1e5ebec7d5bd14f71427d1e84f3dd0314c0f7b2291e5b200ac8c7c3b92583604051611bb39190612e82565b60405180910390a3505050565b600073ffffffffffffffffffffffffffffffffffffffff168373ffffffffffffffffffffffffffffffffffffffff1603611c2f576040517f08c379a0000000000000000000000000000000000000000000000000000000008152600401611c26906136ac565b60405180910390fd5b600073ffffffffffffffffffffffffffffffffffffffff168273ffffffffffffffffffffffffffffffffffffffff1603611c9e576040517f08c379a0000000000000000000000000000000000000000000000000000000008152600401611c959061373e565b60405180910390fd5b60008111611ce1576040517f08c379a0000000000000000000000000000000000000000000000000000000008152600401611cd8906137d0565b60405180910390fd5b6000600c819055506000600d81905550611cf9610f59565b73ffffffffffffffffffffffffffffffffffffffff168373ffffffffffffffffffffffffffffffffffffffff1614158015611d675750611d37610f59565b73ffffffffffffffffffffffffffffffffffffffff168273ffffffffffffffffffffffffffffffffffffffff1614155b15612122576000611d7730610ba0565b9050601260149054906101000a900460ff16158015611de45750601260009054906101000a900473ffffffffffffffffffffffffffffffffffffffff1673ffffffffffffffffffffffffffffffffffffffff168473ffffffffffffffffffffffffffffffffffffffff1614155b8015611dfc5750601260159054906101000a900460ff165b8015611e085750600081115b15611e3057611e16816122ff565b60004790506000811115611e2e57611e2d47612196565b5b505b601260009054906101000a900473ffffffffffffffffffffffffffffffffffffffff1673ffffffffffffffffffffffffffffffffffffffff168473ffffffffffffffffffffffffffffffffffffffff16148015611edb5750601060009054906101000a900473ffffffffffffffffffffffffffffffffffffffff1673ffffffffffffffffffffffffffffffffffffffff168373ffffffffffffffffffffffffffffffffffffffff1614155b15611ef357600854600c81905550600954600d819055505b601260009054906101000a900473ffffffffffffffffffffffffffffffffffffffff1673ffffffffffffffffffffffffffffffffffffffff168373ffffffffffffffffffffffffffffffffffffffff16148015611f9e5750601060009054906101000a900473ffffffffffffffffffffffffffffffffffffffff1673ffffffffffffffffffffffffffffffffffffffff168473ffffffffffffffffffffffffffffffffffffffff1614155b15611fb657600a54600c81905550600b54600d819055505b600560008573ffffffffffffffffffffffffffffffffffffffff1673ffffffffffffffffffffffffffffffffffffffff16815260200190815260200160002060009054906101000a900460ff16806120575750600560008473ffffffffffffffffffffffffffffffffffffffff1673ffffffffffffffffffffffffffffffffffffffff16815260200190815260200160002060009054906101000a900460ff165b8061210a5750601260009054906101000a900473ffffffffffffffffffffffffffffffffffffffff1673ffffffffffffffffffffffffffffffffffffffff168473ffffffffffffffffffffffffffffffffffffffff16141580156121095750601260009054906101000a900473ffffffffffffffffffffffffffffffffffffffff1673ffffffffffffffffffffffffffffffffffffffff168373ffffffffffffffffffffffffffffffffffffffff1614155b5b15612120576000600c819055506000600d819055505b505b61212d838383612578565b505050565b600083831115829061217a576040517f08c379a00000000000000000000000000000000000000000000000000000000081526004016121719190612cc3565b60405180910390fd5b506000838561218991906137f0565b9050809150509392505050565b600e60009054906101000a900473ffffffffffffffffffffffffffffffffffffffff1673ffffffffffffffffffffffffffffffffffffffff166108fc6121e660028461258890919063ffffffff16565b9081150290604051600060405180830381858888f19350505050158015612211573d6000803e3d6000fd5b50600f60009054906101000a900473ffffffffffffffffffffffffffffffffffffffff1673ffffffffffffffffffffffffffffffffffffffff166108fc61226260028461258890919063ffffffff16565b9081150290604051600060405180830381858888f1935050505015801561228d573d6000803e3d6000fd5b5050565b60006006548211156122d8576040517f08c379a00000000000000000000000000000000000000000000000000000000081526004016122cf90613896565b60405180910390fd5b60006122e26125d2565b90506122f7818461258890919063ffffffff16565b915050919050565b6001601260146101000a81548160ff0219169083151502179055506000600267ffffffffffffffff811115612337576123366138b6565b5b6040519080825280602002602001820160405280156123655781602001602082028036833780820191505090505b509050308160008151811061237d5761237c613405565b5b602002602001019073ffffffffffffffffffffffffffffffffffffffff16908173ffffffffffffffffffffffffffffffffffffffff1681525050601060009054906101000a900473ffffffffffffffffffffffffffffffffffffffff1673ffffffffffffffffffffffffffffffffffffffff1663ad5c46486040518163ffffffff1660e01b8152600401602060405180830381865afa158015612424573d6000803e3d6000fd5b505050506040513d601f19601f82011682018060405250810190612448919061326b565b8160018151811061245c5761245b613405565b5b602002602001019073ffffffffffffffffffffffffffffffffffffffff16908173ffffffffffffffffffffffffffffffffffffffff16815250506124c330601060009054906101000a900473ffffffffffffffffffffffffffffffffffffffff16846119f7565b601060009054906101000a900473ffffffffffffffffffffffffffffffffffffffff1673ffffffffffffffffffffffffffffffffffffffff1663791ac9478360008430426040518663ffffffff1660e01b81526004016125279594939291906139de565b600060405180830381600087803b15801561254157600080fd5b505af1158015612555573d6000803e3d6000fd5b50505050506000601260146101000a81548160ff02191690831515021790555050565b6125838383836125fd565b505050565b60006125ca83836040518060400160405280601a81526020017f536166654d6174683a206469766973696f6e206279207a65726f0000000000008152506127c8565b905092915050565b60008060006125df61282b565b915091506125f6818361258890919063ffffffff16565b9250505090565b60008060008060008061260f8761288a565b95509550955095509550955061266d86600260008c73ffffffffffffffffffffffffffffffffffffffff1673ffffffffffffffffffffffffffffffffffffffff168152602001908152602001600020546128f290919063ffffffff16565b600260008b73ffffffffffffffffffffffffffffffffffffffff1673ffffffffffffffffffffffffffffffffffffffff1681526020019081526020016000208190555061270285600260008b73ffffffffffffffffffffffffffffffffffffffff1673ffffffffffffffffffffffffffffffffffffffff1681526020019081526020016000205461293c90919063ffffffff16565b600260008a73ffffffffffffffffffffffffffffffffffffffff1673ffffffffffffffffffffffffffffffffffffffff1681526020019081526020016000208190555061274e8161299a565b6127588483612a57565b8773ffffffffffffffffffffffffffffffffffffffff168973ffffffffffffffffffffffffffffffffffffffff167fddf252ad1be2c89b69c2b068fc378daa952ba7f163c4a11628f55a4df523b3ef856040516127b59190612e82565b60405180910390a3505050505050505050565b6000808311829061280f576040517f08c379a00000000000000000000000000000000000000000000000000000000081526004016128069190612cc3565b60405180910390fd5b506000838561281e9190613a67565b9050809150509392505050565b600080600060065490506000670de0b6b3a7640000905061285f670de0b6b3a764000060065461258890919063ffffffff16565b82101561287d57600654670de0b6b3a7640000935093505050612886565b81819350935050505b9091565b60008060008060008060008060006128a78a600c54600d54612a91565b92509250925060006128b76125d2565b905060008060006128ca8e878787612b27565b9250925092508282828989899c509c509c509c509c509c505050505050505091939550919395565b600061293483836040518060400160405280601e81526020017f536166654d6174683a207375627472616374696f6e206f766572666c6f770000815250612132565b905092915050565b600080828461294b9190613a98565b905083811015612990576040517f08c379a000000000000000000000000000000000000000000000000000000000815260040161298790613b3a565b60405180910390fd5b8091505092915050565b60006129a46125d2565b905060006129bb8284612bb090919063ffffffff16565b9050612a0f81600260003073ffffffffffffffffffffffffffffffffffffffff1673ffffffffffffffffffffffffffffffffffffffff1681526020019081526020016000205461293c90919063ffffffff16565b600260003073ffffffffffffffffffffffffffffffffffffffff1673ffffffffffffffffffffffffffffffffffffffff16815260200190815260200160002081905550505050565b612a6c826006546128f290919063ffffffff16565b600681905550612a878160075461293c90919063ffffffff16565b6007819055505050565b600080600080612abd6064612aaf888a612bb090919063ffffffff16565b61258890919063ffffffff16565b90506000612ae76064612ad9888b612bb090919063ffffffff16565b61258890919063ffffffff16565b90506000612b1082612b02858c6128f290919063ffffffff16565b6128f290919063ffffffff16565b905080838395509550955050505093509350939050565b600080600080612b408589612bb090919063ffffffff16565b90506000612b578689612bb090919063ffffffff16565b90506000612b6e8789612bb090919063ffffffff16565b90506000612b9782612b8985876128f290919063ffffffff16565b6128f290919063ffffffff16565b9050838184965096509650505050509450945094915050565b6000808303612bc25760009050612c24565b60008284612bd09190613b5a565b9050828482612bdf9190613a67565b14612c1f576040517f08c379a0000000000000000000000000000000000000000000000000000000008152600401612c1690613c26565b60405180910390fd5b809150505b92915050565b600081519050919050565b600082825260208201905092915050565b60005b83811015612c64578082015181840152602081019050612c49565b83811115612c73576000848401525b50505050565b6000601f19601f8301169050919050565b6000612c9582612c2a565b612c9f8185612c35565b9350612caf818560208601612c46565b612cb881612c79565b840191505092915050565b60006020820190508181036000830152612cdd8184612c8a565b905092915050565b600080fd5b600080fd5b600073ffffffffffffffffffffffffffffffffffffffff82169050919050565b6000612d1a82612cef565b9050919050565b612d2a81612d0f565b8114612d3557600080fd5b50565b600081359050612d4781612d21565b92915050565b6000819050919050565b612d6081612d4d565b8114612d6b57600080fd5b50565b600081359050612d7d81612d57565b92915050565b60008060408385031215612d9a57612d99612ce5565b5b6000612da885828601612d38565b9250506020612db985828601612d6e565b9150509250929050565b60008115159050919050565b612dd881612dc3565b82525050565b6000602082019050612df36000830184612dcf565b92915050565b6000819050919050565b6000612e1e612e19612e1484612cef565b612df9565b612cef565b9050919050565b6000612e3082612e03565b9050919050565b6000612e4282612e25565b9050919050565b612e5281612e37565b82525050565b6000602082019050612e6d6000830184612e49565b92915050565b612e7c81612d4d565b82525050565b6000602082019050612e976000830184612e73565b92915050565b600080600060608486031215612eb657612eb5612ce5565b5b6000612ec486828701612d38565b9350506020612ed586828701612d38565b9250506040612ee686828701612d6e565b9150509250925092565b600060ff82169050919050565b612f0681612ef0565b82525050565b6000602082019050612f216000830184612efd565b92915050565b612f3081612d0f565b82525050565b6000602082019050612f4b6000830184612f27565b92915050565b6000612f5c82612e25565b9050919050565b612f6c81612f51565b82525050565b6000602082019050612f876000830184612f63565b92915050565b612f9681612dc3565b8114612fa157600080fd5b50565b600081359050612fb381612f8d565b92915050565b600060208284031215612fcf57612fce612ce5565b5b6000612fdd84828501612fa4565b91505092915050565b600060208284031215612ffc57612ffb612ce5565b5b600061300a84828501612d38565b91505092915050565b600061301e82612cef565b9050919050565b61302e81613013565b811461303957600080fd5b50565b60008135905061304b81613025565b92915050565b60006020828403121561306757613066612ce5565b5b60006130758482850161303c565b91505092915050565b6000806000806080858703121561309857613097612ce5565b5b60006130a687828801612d6e565b94505060206130b787828801612d6e565b93505060406130c887828801612d6e565b92505060606130d987828801612d6e565b91505092959194509250565b600080fd5b600080fd5b600080fd5b60008083601f84011261310a576131096130e5565b5b8235905067ffffffffffffffff811115613127576131266130ea565b5b602083019150836020820283011115613143576131426130ef565b5b9250929050565b60008060006040848603121561316357613162612ce5565b5b600084013567ffffffffffffffff81111561318157613180612cea565b5b61318d868287016130f4565b935093505060206131a086828701612fa4565b9150509250925092565b600080604083850312156131c1576131c0612ce5565b5b60006131cf85828601612d38565b92505060206131e085828601612d38565b9150509250929050565b7f43616c6c6572206973206e6f7420746865206f776e6572000000000000000000600082015250565b6000613220601783612c35565b915061322b826131ea565b602082019050919050565b6000602082019050818103600083015261324f81613213565b9050919050565b60008151905061326581612d21565b92915050565b60006020828403121561328157613280612ce5565b5b600061328f84828501613256565b91505092915050565b60006040820190506132ad6000830185612f27565b6132ba6020830184612f27565b9392505050565b7f43616c6c6572206973206e6f7420746865206465760000000000000000000000600082015250565b60006132f7601583612c35565b9150613302826132c1565b602082019050919050565b60006020820190508181036000830152613326816132ea565b9050919050565b7f52656469732063616e6e6f74206265206d6f7265207468616e2031302e000000600082015250565b6000613363601d83612c35565b915061336e8261332d565b602082019050919050565b6000602082019050818103600083015261339281613356565b9050919050565b7f5461782063616e6e6f74206265206d6f7265207468616e20362e000000000000600082015250565b60006133cf601a83612c35565b91506133da82613399565b602082019050919050565b600060208201905081810360008301526133fe816133c2565b9050919050565b7f4e487b7100000000000000000000000000000000000000000000000000000000600052603260045260246000fd5b7f4e487b7100000000000000000000000000000000000000000000000000000000600052601160045260246000fd5b600061346e82612d4d565b91507fffffffffffffffffffffffffffffffffffffffffffffffffffffffffffffffff82036134a05761349f613434565b5b600182019050919050565b60006040820190506134c06000830185612f27565b6134cd6020830184612e73565b9392505050565b6000815190506134e381612f8d565b92915050565b6000602082840312156134ff576134fe612ce5565b5b600061350d848285016134d4565b91505092915050565b7f45524332303a20617070726f76652066726f6d20746865207a65726f2061646460008201527f7265737300000000000000000000000000000000000000000000000000000000602082015250565b6000613572602483612c35565b915061357d82613516565b604082019050919050565b600060208201905081810360008301526135a181613565565b9050919050565b7f45524332303a20617070726f766520746f20746865207a65726f20616464726560008201527f7373000000000000000000000000000000000000000000000000000000000000602082015250565b6000613604602283612c35565b915061360f826135a8565b604082019050919050565b60006020820190508181036000830152613633816135f7565b9050919050565b7f45524332303a207472616e736665722066726f6d20746865207a65726f20616460008201527f6472657373000000000000000000000000000000000000000000000000000000602082015250565b6000613696602583612c35565b91506136a18261363a565b604082019050919050565b600060208201905081810360008301526136c581613689565b9050919050565b7f45524332303a207472616e7366657220746f20746865207a65726f206164647260008201527f6573730000000000000000000000000000000000000000000000000000000000602082015250565b6000613728602383612c35565b9150613733826136cc565b604082019050919050565b600060208201905081810360008301526137578161371b565b9050919050565b7f5472616e7366657220616d6f756e74206d75737420626520677265617465722060008201527f7468616e207a65726f0000000000000000000000000000000000000000000000602082015250565b60006137ba602983612c35565b91506137c58261375e565b604082019050919050565b600060208201905081810360008301526137e9816137ad565b9050919050565b60006137fb82612d4d565b915061380683612d4d565b92508282101561381957613818613434565b5b828203905092915050565b7f416d6f756e74206d757374206265206c657373207468616e20746f74616c207260008201527f65666c656374696f6e7300000000000000000000000000000000000000000000602082015250565b6000613880602a83612c35565b915061388b82613824565b604082019050919050565b600060208201905081810360008301526138af81613873565b9050919050565b7f4e487b7100000000000000000000000000000000000000000000000000000000600052604160045260246000fd5b6000819050919050565b600061390a613905613900846138e5565b612df9565b612d4d565b9050919050565b61391a816138ef565b82525050565b600081519050919050565b600082825260208201905092915050565b6000819050602082019050919050565b61395581612d0f565b82525050565b6000613967838361394c565b60208301905092915050565b6000602082019050919050565b600061398b82613920565b613995818561392b565b93506139a08361393c565b8060005b838110156139d15781516139b8888261395b565b97506139c383613973565b9250506001810190506139a4565b5085935050505092915050565b600060a0820190506139f36000830188612e73565b613a006020830187613911565b8181036040830152613a128186613980565b9050613a216060830185612f27565b613a2e6080830184612e73565b9695505050505050565b7f4e487b7100000000000000000000000000000000000000000000000000000000600052601260045260246000fd5b6000613a7282612d4d565b9150613a7d83612d4d565b925082613a8d57613a8c613a38565b5b828204905092915050565b6000613aa382612d4d565b9150613aae83612d4d565b9250827fffffffffffffffffffffffffffffffffffffffffffffffffffffffffffffffff03821115613ae357613ae2613434565b5b828201905092915050565b7f536166654d6174683a206164646974696f6e206f766572666c6f770000000000600082015250565b6000613b24601b83612c35565b9150613b2f82613aee565b602082019050919050565b60006020820190508181036000830152613b5381613b17565b9050919050565b6000613b6582612d4d565b9150613b7083612d4d565b9250817fffffffffffffffffffffffffffffffffffffffffffffffffffffffffffffffff0483118215151615613ba957613ba8613434565b5b828202905092915050565b7f536166654d6174683a206d756c7469706c69636174696f6e206f766572666c6f60008201527f7700000000000000000000000000000000000000000000000000000000000000602082015250565b6000613c10602183612c35565b9150613c1b82613bb4565b604082019050919050565b60006020820190508181036000830152613c3f81613c03565b905091905056fe45524332303a207472616e7366657220616d6f756e74206578636565647320616c6c6f77616e6365a2646970667358221220ada3a5abbb3cc4af17ed0624c8e295ebcd12bb46e8ea71a26b333ee7653fdb7264736f6c634300080d0033",
					"opcodes": "PUSH1 0x80 PUSH1 0x40 MSTORE PUSH8 0xDE0B6B3A7640000 PUSH5 0x14F46B0400 PUSH3 0x1F SWAP2 SWAP1 PUSH3 0x538 JUMP JUMPDEST PUSH5 0x14F46B0400 PUSH3 0x31 SWAP2 SWAP1 PUSH3 0x59F JUMP JUMPDEST PUSH1 0x6 SSTORE PUSH1 0x1 PUSH1 0x8 SSTORE PUSH1 0x4 PUSH1 0x9 SSTORE PUSH1 0x1 PUSH1 0xA SSTORE PUSH1 0x1 PUSH1 0xB SSTORE PUSH20 0x8492CBD894686D7E98214541903C7BA6F94928D6 PUSH1 0xE PUSH1 0x0 PUSH2 0x100 EXP DUP2 SLOAD DUP2 PUSH20 0xFFFFFFFFFFFFFFFFFFFFFFFFFFFFFFFFFFFFFFFF MUL NOT AND SWAP1 DUP4 PUSH20 0xFFFFFFFFFFFFFFFFFFFFFFFFFFFFFFFFFFFFFFFF AND MUL OR SWAP1 SSTORE POP PUSH20 0xA4ED7AA4EF5DEB0A63E97D9CB77445AE553FEB1D PUSH1 0xF PUSH1 0x0 PUSH2 0x100 EXP DUP2 SLOAD DUP2 PUSH20 0xFFFFFFFFFFFFFFFFFFFFFFFFFFFFFFFFFFFFFFFF MUL NOT AND SWAP1 DUP4 PUSH20 0xFFFFFFFFFFFFFFFFFFFFFFFFFFFFFFFFFFFFFFFF AND MUL OR SWAP1 SSTORE POP PUSH1 0x0 PUSH1 0x12 PUSH1 0x14 PUSH2 0x100 EXP DUP2 SLOAD DUP2 PUSH1 0xFF MUL NOT AND SWAP1 DUP4 ISZERO ISZERO MUL OR SWAP1 SSTORE POP PUSH1 0x1 PUSH1 0x12 PUSH1 0x15 PUSH2 0x100 EXP DUP2 SLOAD DUP2 PUSH1 0xFF MUL NOT AND SWAP1 DUP4 ISZERO ISZERO MUL OR SWAP1 SSTORE POP CALLVALUE DUP1 ISZERO PUSH3 0x135 JUMPI PUSH1 0x0 DUP1 REVERT JUMPDEST POP PUSH1 0x0 PUSH3 0x148 PUSH3 0x4CE PUSH1 0x20 SHL PUSH1 0x20 SHR JUMP JUMPDEST SWAP1 POP DUP1 PUSH1 0x0 DUP1 PUSH2 0x100 EXP DUP2 SLOAD DUP2 PUSH20 0xFFFFFFFFFFFFFFFFFFFFFFFFFFFFFFFFFFFFFFFF MUL NOT AND SWAP1 DUP4 PUSH20 0xFFFFFFFFFFFFFFFFFFFFFFFFFFFFFFFFFFFFFFFF AND MUL OR SWAP1 SSTORE POP DUP1 PUSH20 0xFFFFFFFFFFFFFFFFFFFFFFFFFFFFFFFFFFFFFFFF AND PUSH1 0x0 PUSH20 0xFFFFFFFFFFFFFFFFFFFFFFFFFFFFFFFFFFFFFFFF AND PUSH32 0x8BE0079C531659141344CD1FD0A4F28419497F9722A3DAAFE3B4186F6B6457E0 PUSH1 0x40 MLOAD PUSH1 0x40 MLOAD DUP1 SWAP2 SUB SWAP1 LOG3 POP PUSH1 0x6 SLOAD PUSH1 0x2 PUSH1 0x0 PUSH3 0x1FD PUSH3 0x4CE PUSH1 0x20 SHL PUSH1 0x20 SHR JUMP JUMPDEST PUSH20 0xFFFFFFFFFFFFFFFFFFFFFFFFFFFFFFFFFFFFFFFF AND PUSH20 0xFFFFFFFFFFFFFFFFFFFFFFFFFFFFFFFFFFFFFFFF AND DUP2 MSTORE PUSH1 0x20 ADD SWAP1 DUP2 MSTORE PUSH1 0x20 ADD PUSH1 0x0 KECCAK256 DUP2 SWAP1 SSTORE POP PUSH1 0x0 PUSH20 0x10ED43C718714EB63D5AA57B78B54704E256024E SWAP1 POP DUP1 PUSH1 0x10 PUSH1 0x0 PUSH2 0x100 EXP DUP2 SLOAD DUP2 PUSH20 0xFFFFFFFFFFFFFFFFFFFFFFFFFFFFFFFFFFFFFFFF MUL NOT AND SWAP1 DUP4 PUSH20 0xFFFFFFFFFFFFFFFFFFFFFFFFFFFFFFFFFFFFFFFF AND MUL OR SWAP1 SSTORE POP PUSH1 0x1 PUSH1 0x5 PUSH1 0x0 PUSH3 0x2AB PUSH3 0x4D6 PUSH1 0x20 SHL PUSH1 0x20 SHR JUMP JUMPDEST PUSH20 0xFFFFFFFFFFFFFFFFFFFFFFFFFFFFFFFFFFFFFFFF AND PUSH20 0xFFFFFFFFFFFFFFFFFFFFFFFFFFFFFFFFFFFFFFFF AND DUP2 MSTORE PUSH1 0x20 ADD SWAP1 DUP2 MSTORE PUSH1 0x20 ADD PUSH1 0x0 KECCAK256 PUSH1 0x0 PUSH2 0x100 EXP DUP2 SLOAD DUP2 PUSH1 0xFF MUL NOT AND SWAP1 DUP4 ISZERO ISZERO MUL OR SWAP1 SSTORE POP PUSH1 0x1 PUSH1 0x5 PUSH1 0x0 ADDRESS PUSH20 0xFFFFFFFFFFFFFFFFFFFFFFFFFFFFFFFFFFFFFFFF AND PUSH20 0xFFFFFFFFFFFFFFFFFFFFFFFFFFFFFFFFFFFFFFFF AND DUP2 MSTORE PUSH1 0x20 ADD SWAP1 DUP2 MSTORE PUSH1 0x20 ADD PUSH1 0x0 KECCAK256 PUSH1 0x0 PUSH2 0x100 EXP DUP2 SLOAD DUP2 PUSH1 0xFF MUL NOT AND SWAP1 DUP4 ISZERO ISZERO MUL OR SWAP1 SSTORE POP PUSH1 0x1 PUSH1 0x5 PUSH1 0x0 PUSH1 0xE PUSH1 0x0 SWAP1 SLOAD SWAP1 PUSH2 0x100 EXP SWAP1 DIV PUSH20 0xFFFFFFFFFFFFFFFFFFFFFFFFFFFFFFFFFFFFFFFF AND PUSH20 0xFFFFFFFFFFFFFFFFFFFFFFFFFFFFFFFFFFFFFFFF AND PUSH20 0xFFFFFFFFFFFFFFFFFFFFFFFFFFFFFFFFFFFFFFFF AND DUP2 MSTORE PUSH1 0x20 ADD SWAP1 DUP2 MSTORE PUSH1 0x20 ADD PUSH1 0x0 KECCAK256 PUSH1 0x0 PUSH2 0x100 EXP DUP2 SLOAD DUP2 PUSH1 0xFF MUL NOT AND SWAP1 DUP4 ISZERO ISZERO MUL OR SWAP1 SSTORE POP PUSH1 0x1 PUSH1 0x5 PUSH1 0x0 PUSH1 0xF PUSH1 0x0 SWAP1 SLOAD SWAP1 PUSH2 0x100 EXP SWAP1 DIV PUSH20 0xFFFFFFFFFFFFFFFFFFFFFFFFFFFFFFFFFFFFFFFF AND PUSH20 0xFFFFFFFFFFFFFFFFFFFFFFFFFFFFFFFFFFFFFFFF AND PUSH20 0xFFFFFFFFFFFFFFFFFFFFFFFFFFFFFFFFFFFFFFFF AND DUP2 MSTORE PUSH1 0x20 ADD SWAP1 DUP2 MSTORE PUSH1 0x20 ADD PUSH1 0x0 KECCAK256 PUSH1 0x0 PUSH2 0x100 EXP DUP2 SLOAD DUP2 PUSH1 0xFF MUL NOT AND SWAP1 DUP4 ISZERO ISZERO MUL OR SWAP1 SSTORE POP PUSH3 0x458 PUSH3 0x4CE PUSH1 0x20 SHL PUSH1 0x20 SHR JUMP JUMPDEST PUSH20 0xFFFFFFFFFFFFFFFFFFFFFFFFFFFFFFFFFFFFFFFF AND PUSH1 0x0 PUSH20 0xFFFFFFFFFFFFFFFFFFFFFFFFFFFFFFFFFFFFFFFF AND PUSH32 0xDDF252AD1BE2C89B69C2B068FC378DAA952BA7F163C4A11628F55A4DF523B3EF PUSH8 0xDE0B6B3A7640000 PUSH1 0x40 MLOAD PUSH3 0x4BF SWAP2 SWAP1 PUSH3 0x5EB JUMP JUMPDEST PUSH1 0x40 MLOAD DUP1 SWAP2 SUB SWAP1 LOG3 POP PUSH3 0x608 JUMP JUMPDEST PUSH1 0x0 CALLER SWAP1 POP SWAP1 JUMP JUMPDEST PUSH1 0x0 DUP1 PUSH1 0x0 SWAP1 SLOAD SWAP1 PUSH2 0x100 EXP SWAP1 DIV PUSH20 0xFFFFFFFFFFFFFFFFFFFFFFFFFFFFFFFFFFFFFFFF AND SWAP1 POP SWAP1 JUMP JUMPDEST PUSH1 0x0 DUP2 SWAP1 POP SWAP2 SWAP1 POP JUMP JUMPDEST PUSH32 0x4E487B7100000000000000000000000000000000000000000000000000000000 PUSH1 0x0 MSTORE PUSH1 0x12 PUSH1 0x4 MSTORE PUSH1 0x24 PUSH1 0x0 REVERT JUMPDEST PUSH1 0x0 PUSH3 0x545 DUP3 PUSH3 0x4FF JUMP JUMPDEST SWAP2 POP PUSH3 0x552 DUP4 PUSH3 0x4FF JUMP JUMPDEST SWAP3 POP DUP3 PUSH3 0x565 JUMPI PUSH3 0x564 PUSH3 0x509 JUMP JUMPDEST JUMPDEST DUP3 DUP3 MOD SWAP1 POP SWAP3 SWAP2 POP POP JUMP JUMPDEST PUSH32 0x4E487B7100000000000000000000000000000000000000000000000000000000 PUSH1 0x0 MSTORE PUSH1 0x11 PUSH1 0x4 MSTORE PUSH1 0x24 PUSH1 0x0 REVERT JUMPDEST PUSH1 0x0 PUSH3 0x5AC DUP3 PUSH3 0x4FF JUMP JUMPDEST SWAP2 POP PUSH3 0x5B9 DUP4 PUSH3 0x4FF JUMP JUMPDEST SWAP3 POP DUP3 DUP3 LT ISZERO PUSH3 0x5CF JUMPI PUSH3 0x5CE PUSH3 0x570 JUMP JUMPDEST JUMPDEST DUP3 DUP3 SUB SWAP1 POP SWAP3 SWAP2 POP POP JUMP JUMPDEST PUSH3 0x5E5 DUP2 PUSH3 0x4FF JUMP JUMPDEST DUP3 MSTORE POP POP JUMP JUMPDEST PUSH1 0x0 PUSH1 0x20 DUP3 ADD SWAP1 POP PUSH3 0x602 PUSH1 0x0 DUP4 ADD DUP5 PUSH3 0x5DA JUMP JUMPDEST SWAP3 SWAP2 POP POP JUMP JUMPDEST PUSH2 0x3CA4 DUP1 PUSH3 0x618 PUSH1 0x0 CODECOPY PUSH1 0x0 RETURN INVALID PUSH1 0x80 PUSH1 0x40 MSTORE PUSH1 0x4 CALLDATASIZE LT PUSH2 0x14F JUMPI PUSH1 0x0 CALLDATALOAD PUSH1 0xE0 SHR DUP1 PUSH4 0x715018A6 GT PUSH2 0xB6 JUMPI DUP1 PUSH4 0xAAD5C023 GT PUSH2 0x6F JUMPI DUP1 PUSH4 0xAAD5C023 EQ PUSH2 0x467 JUMPI DUP1 PUSH4 0xC3C8CD80 EQ PUSH2 0x490 JUMPI DUP1 PUSH4 0xC492F046 EQ PUSH2 0x4A7 JUMPI DUP1 PUSH4 0xDD62ED3E EQ PUSH2 0x4D0 JUMPI DUP1 PUSH4 0xE293D316 EQ PUSH2 0x50D JUMPI DUP1 PUSH4 0xF2FDE38B EQ PUSH2 0x536 JUMPI PUSH2 0x156 JUMP JUMPDEST DUP1 PUSH4 0x715018A6 EQ PUSH2 0x36B JUMPI DUP1 PUSH4 0x758DBE03 EQ PUSH2 0x382 JUMPI DUP1 PUSH4 0x8DA5CB5B EQ PUSH2 0x3AB JUMPI DUP1 PUSH4 0x95D89B41 EQ PUSH2 0x3D6 JUMPI DUP1 PUSH4 0xA2A957BB EQ PUSH2 0x401 JUMPI DUP1 PUSH4 0xA9059CBB EQ PUSH2 0x42A JUMPI PUSH2 0x156 JUMP JUMPDEST DUP1 PUSH4 0x313CE567 GT PUSH2 0x108 JUMPI DUP1 PUSH4 0x313CE567 EQ PUSH2 0x26D JUMPI DUP1 PUSH4 0x49BD5A5E EQ PUSH2 0x298 JUMPI DUP1 PUSH4 0x59D0F713 EQ PUSH2 0x2C3 JUMPI DUP1 PUSH4 0x6D8AA8F8 EQ PUSH2 0x2EE JUMPI DUP1 PUSH4 0x6FC3EAEC EQ PUSH2 0x317 JUMPI DUP1 PUSH4 0x70A08231 EQ PUSH2 0x32E JUMPI PUSH2 0x156 JUMP JUMPDEST DUP1 PUSH4 0x5A272EA EQ PUSH2 0x15B JUMPI DUP1 PUSH4 0x6FDDE03 EQ PUSH2 0x172 JUMPI DUP1 PUSH4 0x95EA7B3 EQ PUSH2 0x19D JUMPI DUP1 PUSH4 0x1694505E EQ PUSH2 0x1DA JUMPI DUP1 PUSH4 0x18160DDD EQ PUSH2 0x205 JUMPI DUP1 PUSH4 0x23B872DD EQ PUSH2 0x230 JUMPI PUSH2 0x156 JUMP JUMPDEST CALLDATASIZE PUSH2 0x156 JUMPI STOP JUMPDEST PUSH1 0x0 DUP1 REVERT JUMPDEST CALLVALUE DUP1 ISZERO PUSH2 0x167 JUMPI PUSH1 0x0 DUP1 REVERT JUMPDEST POP PUSH2 0x170 PUSH2 0x55F JUMP JUMPDEST STOP JUMPDEST CALLVALUE DUP1 ISZERO PUSH2 0x17E JUMPI PUSH1 0x0 DUP1 REVERT JUMPDEST POP PUSH2 0x187 PUSH2 0x7D4 JUMP JUMPDEST PUSH1 0x40 MLOAD PUSH2 0x194 SWAP2 SWAP1 PUSH2 0x2CC3 JUMP JUMPDEST PUSH1 0x40 MLOAD DUP1 SWAP2 SUB SWAP1 RETURN JUMPDEST CALLVALUE DUP1 ISZERO PUSH2 0x1A9 JUMPI PUSH1 0x0 DUP1 REVERT JUMPDEST POP PUSH2 0x1C4 PUSH1 0x4 DUP1 CALLDATASIZE SUB DUP2 ADD SWAP1 PUSH2 0x1BF SWAP2 SWAP1 PUSH2 0x2D83 JUMP JUMPDEST PUSH2 0x811 JUMP JUMPDEST PUSH1 0x40 MLOAD PUSH2 0x1D1 SWAP2 SWAP1 PUSH2 0x2DDE JUMP JUMPDEST PUSH1 0x40 MLOAD DUP1 SWAP2 SUB SWAP1 RETURN JUMPDEST CALLVALUE DUP1 ISZERO PUSH2 0x1E6 JUMPI PUSH1 0x0 DUP1 REVERT JUMPDEST POP PUSH2 0x1EF PUSH2 0x82F JUMP JUMPDEST PUSH1 0x40 MLOAD PUSH2 0x1FC SWAP2 SWAP1 PUSH2 0x2E58 JUMP JUMPDEST PUSH1 0x40 MLOAD DUP1 SWAP2 SUB SWAP1 RETURN JUMPDEST CALLVALUE DUP1 ISZERO PUSH2 0x211 JUMPI PUSH1 0x0 DUP1 REVERT JUMPDEST POP PUSH2 0x21A PUSH2 0x855 JUMP JUMPDEST PUSH1 0x40 MLOAD PUSH2 0x227 SWAP2 SWAP1 PUSH2 0x2E82 JUMP JUMPDEST PUSH1 0x40 MLOAD DUP1 SWAP2 SUB SWAP1 RETURN JUMPDEST CALLVALUE DUP1 ISZERO PUSH2 0x23C JUMPI PUSH1 0x0 DUP1 REVERT JUMPDEST POP PUSH2 0x257 PUSH1 0x4 DUP1 CALLDATASIZE SUB DUP2 ADD SWAP1 PUSH2 0x252 SWAP2 SWAP1 PUSH2 0x2E9D JUMP JUMPDEST PUSH2 0x865 JUMP JUMPDEST PUSH1 0x40 MLOAD PUSH2 0x264 SWAP2 SWAP1 PUSH2 0x2DDE JUMP JUMPDEST PUSH1 0x40 MLOAD DUP1 SWAP2 SUB SWAP1 RETURN JUMPDEST CALLVALUE DUP1 ISZERO PUSH2 0x279 JUMPI PUSH1 0x0 DUP1 REVERT JUMPDEST POP PUSH2 0x282 PUSH2 0x93E JUMP JUMPDEST PUSH1 0x40 MLOAD PUSH2 0x28F SWAP2 SWAP1 PUSH2 0x2F0C JUMP JUMPDEST PUSH1 0x40 MLOAD DUP1 SWAP2 SUB SWAP1 RETURN JUMPDEST CALLVALUE DUP1 ISZERO PUSH2 0x2A4 JUMPI PUSH1 0x0 DUP1 REVERT JUMPDEST POP PUSH2 0x2AD PUSH2 0x947 JUMP JUMPDEST PUSH1 0x40 MLOAD PUSH2 0x2BA SWAP2 SWAP1 PUSH2 0x2F36 JUMP JUMPDEST PUSH1 0x40 MLOAD DUP1 SWAP2 SUB SWAP1 RETURN JUMPDEST CALLVALUE DUP1 ISZERO PUSH2 0x2CF JUMPI PUSH1 0x0 DUP1 REVERT JUMPDEST POP PUSH2 0x2D8 PUSH2 0x96D JUMP JUMPDEST PUSH1 0x40 MLOAD PUSH2 0x2E5 SWAP2 SWAP1 PUSH2 0x2F72 JUMP JUMPDEST PUSH1 0x40 MLOAD DUP1 SWAP2 SUB SWAP1 RETURN JUMPDEST CALLVALUE DUP1 ISZERO PUSH2 0x2FA JUMPI PUSH1 0x0 DUP1 REVERT JUMPDEST POP PUSH2 0x315 PUSH1 0x4 DUP1 CALLDATASIZE SUB DUP2 ADD SWAP1 PUSH2 0x310 SWAP2 SWAP1 PUSH2 0x2FB9 JUMP JUMPDEST PUSH2 0x993 JUMP JUMPDEST STOP JUMPDEST CALLVALUE DUP1 ISZERO PUSH2 0x323 JUMPI PUSH1 0x0 DUP1 REVERT JUMPDEST POP PUSH2 0x32C PUSH2 0xA8B JUMP JUMPDEST STOP JUMPDEST CALLVALUE DUP1 ISZERO PUSH2 0x33A JUMPI PUSH1 0x0 DUP1 REVERT JUMPDEST POP PUSH2 0x355 PUSH1 0x4 DUP1 CALLDATASIZE SUB DUP2 ADD SWAP1 PUSH2 0x350 SWAP2 SWAP1 PUSH2 0x2FE6 JUMP JUMPDEST PUSH2 0xBA0 JUMP JUMPDEST PUSH1 0x40 MLOAD PUSH2 0x362 SWAP2 SWAP1 PUSH2 0x2E82 JUMP JUMPDEST PUSH1 0x40 MLOAD DUP1 SWAP2 SUB SWAP1 RETURN JUMPDEST CALLVALUE DUP1 ISZERO PUSH2 0x377 JUMPI PUSH1 0x0 DUP1 REVERT JUMPDEST POP PUSH2 0x380 PUSH2 0xBF1 JUMP JUMPDEST STOP JUMPDEST CALLVALUE DUP1 ISZERO PUSH2 0x38E JUMPI PUSH1 0x0 DUP1 REVERT JUMPDEST POP PUSH2 0x3A9 PUSH1 0x4 DUP1 CALLDATASIZE SUB DUP2 ADD SWAP1 PUSH2 0x3A4 SWAP2 SWAP1 PUSH2 0x3051 JUMP JUMPDEST PUSH2 0xD44 JUMP JUMPDEST STOP JUMPDEST CALLVALUE DUP1 ISZERO PUSH2 0x3B7 JUMPI PUSH1 0x0 DUP1 REVERT JUMPDEST POP PUSH2 0x3C0 PUSH2 0xF59 JUMP JUMPDEST PUSH1 0x40 MLOAD PUSH2 0x3CD SWAP2 SWAP1 PUSH2 0x2F36 JUMP JUMPDEST PUSH1 0x40 MLOAD DUP1 SWAP2 SUB SWAP1 RETURN JUMPDEST CALLVALUE DUP1 ISZERO PUSH2 0x3E2 JUMPI PUSH1 0x0 DUP1 REVERT JUMPDEST POP PUSH2 0x3EB PUSH2 0xF82 JUMP JUMPDEST PUSH1 0x40 MLOAD PUSH2 0x3F8 SWAP2 SWAP1 PUSH2 0x2CC3 JUMP JUMPDEST PUSH1 0x40 MLOAD DUP1 SWAP2 SUB SWAP1 RETURN JUMPDEST CALLVALUE DUP1 ISZERO PUSH2 0x40D JUMPI PUSH1 0x0 DUP1 REVERT JUMPDEST POP PUSH2 0x428 PUSH1 0x4 DUP1 CALLDATASIZE SUB DUP2 ADD SWAP1 PUSH2 0x423 SWAP2 SWAP1 PUSH2 0x307E JUMP JUMPDEST PUSH2 0xFBF JUMP JUMPDEST STOP JUMPDEST CALLVALUE DUP1 ISZERO PUSH2 0x436 JUMPI PUSH1 0x0 DUP1 REVERT JUMPDEST POP PUSH2 0x451 PUSH1 0x4 DUP1 CALLDATASIZE SUB DUP2 ADD SWAP1 PUSH2 0x44C SWAP2 SWAP1 PUSH2 0x2D83 JUMP JUMPDEST PUSH2 0x11C8 JUMP JUMPDEST PUSH1 0x40 MLOAD PUSH2 0x45E SWAP2 SWAP1 PUSH2 0x2DDE JUMP JUMPDEST PUSH1 0x40 MLOAD DUP1 SWAP2 SUB SWAP1 RETURN JUMPDEST CALLVALUE DUP1 ISZERO PUSH2 0x473 JUMPI PUSH1 0x0 DUP1 REVERT JUMPDEST POP PUSH2 0x48E PUSH1 0x4 DUP1 CALLDATASIZE SUB DUP2 ADD SWAP1 PUSH2 0x489 SWAP2 SWAP1 PUSH2 0x3051 JUMP JUMPDEST PUSH2 0x11E6 JUMP JUMPDEST STOP JUMPDEST CALLVALUE DUP1 ISZERO PUSH2 0x49C JUMPI PUSH1 0x0 DUP1 REVERT JUMPDEST POP PUSH2 0x4A5 PUSH2 0x13FB JUMP JUMPDEST STOP JUMPDEST CALLVALUE DUP1 ISZERO PUSH2 0x4B3 JUMPI PUSH1 0x0 DUP1 REVERT JUMPDEST POP PUSH2 0x4CE PUSH1 0x4 DUP1 CALLDATASIZE SUB DUP2 ADD SWAP1 PUSH2 0x4C9 SWAP2 SWAP1 PUSH2 0x314A JUMP JUMPDEST PUSH2 0x1518 JUMP JUMPDEST STOP JUMPDEST CALLVALUE DUP1 ISZERO PUSH2 0x4DC JUMPI PUSH1 0x0 DUP1 REVERT JUMPDEST POP PUSH2 0x4F7 PUSH1 0x4 DUP1 CALLDATASIZE SUB DUP2 ADD SWAP1 PUSH2 0x4F2 SWAP2 SWAP1 PUSH2 0x31AA JUMP JUMPDEST PUSH2 0x1652 JUMP JUMPDEST PUSH1 0x40 MLOAD PUSH2 0x504 SWAP2 SWAP1 PUSH2 0x2E82 JUMP JUMPDEST PUSH1 0x40 MLOAD DUP1 SWAP2 SUB SWAP1 RETURN JUMPDEST CALLVALUE DUP1 ISZERO PUSH2 0x519 JUMPI PUSH1 0x0 DUP1 REVERT JUMPDEST POP PUSH2 0x534 PUSH1 0x4 DUP1 CALLDATASIZE SUB DUP2 ADD SWAP1 PUSH2 0x52F SWAP2 SWAP1 PUSH2 0x2E9D JUMP JUMPDEST PUSH2 0x16D9 JUMP JUMPDEST STOP JUMPDEST CALLVALUE DUP1 ISZERO PUSH2 0x542 JUMPI PUSH1 0x0 DUP1 REVERT JUMPDEST POP PUSH2 0x55D PUSH1 0x4 DUP1 CALLDATASIZE SUB DUP2 ADD SWAP1 PUSH2 0x558 SWAP2 SWAP1 PUSH2 0x2FE6 JUMP JUMPDEST PUSH2 0x189D JUMP JUMPDEST STOP JUMPDEST PUSH2 0x567 PUSH2 0x19EF JUMP JUMPDEST PUSH20 0xFFFFFFFFFFFFFFFFFFFFFFFFFFFFFFFFFFFFFFFF AND PUSH1 0x0 DUP1 SLOAD SWAP1 PUSH2 0x100 EXP SWAP1 DIV PUSH20 0xFFFFFFFFFFFFFFFFFFFFFFFFFFFFFFFFFFFFFFFF AND PUSH20 0xFFFFFFFFFFFFFFFFFFFFFFFFFFFFFFFFFFFFFFFF AND EQ PUSH2 0x5F4 JUMPI PUSH1 0x40 MLOAD PUSH32 0x8C379A000000000000000000000000000000000000000000000000000000000 DUP2 MSTORE PUSH1 0x4 ADD PUSH2 0x5EB SWAP1 PUSH2 0x3236 JUMP JUMPDEST PUSH1 0x40 MLOAD DUP1 SWAP2 SUB SWAP1 REVERT JUMPDEST PUSH1 0x10 PUSH1 0x0 SWAP1 SLOAD SWAP1 PUSH2 0x100 EXP SWAP1 DIV PUSH20 0xFFFFFFFFFFFFFFFFFFFFFFFFFFFFFFFFFFFFFFFF AND PUSH20 0xFFFFFFFFFFFFFFFFFFFFFFFFFFFFFFFFFFFFFFFF AND PUSH4 0xC45A0155 PUSH1 0x40 MLOAD DUP2 PUSH4 0xFFFFFFFF AND PUSH1 0xE0 SHL DUP2 MSTORE PUSH1 0x4 ADD PUSH1 0x20 PUSH1 0x40 MLOAD DUP1 DUP4 SUB DUP2 DUP7 GAS STATICCALL ISZERO DUP1 ISZERO PUSH2 0x661 JUMPI RETURNDATASIZE PUSH1 0x0 DUP1 RETURNDATACOPY RETURNDATASIZE PUSH1 0x0 REVERT JUMPDEST POP POP POP POP PUSH1 0x40 MLOAD RETURNDATASIZE PUSH1 0x1F NOT PUSH1 0x1F DUP3 ADD AND DUP3 ADD DUP1 PUSH1 0x40 MSTORE POP DUP2 ADD SWAP1 PUSH2 0x685 SWAP2 SWAP1 PUSH2 0x326B JUMP JUMPDEST PUSH20 0xFFFFFFFFFFFFFFFFFFFFFFFFFFFFFFFFFFFFFFFF AND PUSH4 0xC9C65396 ADDRESS PUSH1 0x10 PUSH1 0x0 SWAP1 SLOAD SWAP1 PUSH2 0x100 EXP SWAP1 DIV PUSH20 0xFFFFFFFFFFFFFFFFFFFFFFFFFFFFFFFFFFFFFFFF AND PUSH20 0xFFFFFFFFFFFFFFFFFFFFFFFFFFFFFFFFFFFFFFFF AND PUSH4 0xAD5C4648 PUSH1 0x40 MLOAD DUP2 PUSH4 0xFFFFFFFF AND PUSH1 0xE0 SHL DUP2 MSTORE PUSH1 0x4 ADD PUSH1 0x20 PUSH1 0x40 MLOAD DUP1 DUP4 SUB DUP2 DUP7 GAS STATICCALL ISZERO DUP1 ISZERO PUSH2 0x70E JUMPI RETURNDATASIZE PUSH1 0x0 DUP1 RETURNDATACOPY RETURNDATASIZE PUSH1 0x0 REVERT JUMPDEST POP POP POP POP PUSH1 0x40 MLOAD RETURNDATASIZE PUSH1 0x1F NOT PUSH1 0x1F DUP3 ADD AND DUP3 ADD DUP1 PUSH1 0x40 MSTORE POP DUP2 ADD SWAP1 PUSH2 0x732 SWAP2 SWAP1 PUSH2 0x326B JUMP JUMPDEST PUSH1 0x40 MLOAD DUP4 PUSH4 0xFFFFFFFF AND PUSH1 0xE0 SHL DUP2 MSTORE PUSH1 0x4 ADD PUSH2 0x74F SWAP3 SWAP2 SWAP1 PUSH2 0x3298 JUMP JUMPDEST PUSH1 0x20 PUSH1 0x40 MLOAD DUP1 DUP4 SUB DUP2 PUSH1 0x0 DUP8 GAS CALL ISZERO DUP1 ISZERO PUSH2 0x76E JUMPI RETURNDATASIZE PUSH1 0x0 DUP1 RETURNDATACOPY RETURNDATASIZE PUSH1 0x0 REVERT JUMPDEST POP POP POP POP PUSH1 0x40 MLOAD RETURNDATASIZE PUSH1 0x1F NOT PUSH1 0x1F DUP3 ADD AND DUP3 ADD DUP1 PUSH1 0x40 MSTORE POP DUP2 ADD SWAP1 PUSH2 0x792 SWAP2 SWAP1 PUSH2 0x326B JUMP JUMPDEST PUSH1 0x12 PUSH1 0x0 PUSH2 0x100 EXP DUP2 SLOAD DUP2 PUSH20 0xFFFFFFFFFFFFFFFFFFFFFFFFFFFFFFFFFFFFFFFF MUL NOT AND SWAP1 DUP4 PUSH20 0xFFFFFFFFFFFFFFFFFFFFFFFFFFFFFFFFFFFFFFFF AND MUL OR SWAP1 SSTORE POP JUMP JUMPDEST PUSH1 0x60 PUSH1 0x40 MLOAD DUP1 PUSH1 0x40 ADD PUSH1 0x40 MSTORE DUP1 PUSH1 0xA DUP2 MSTORE PUSH1 0x20 ADD PUSH32 0x576F726C64205374657000000000000000000000000000000000000000000000 DUP2 MSTORE POP SWAP1 POP SWAP1 JUMP JUMPDEST PUSH1 0x0 PUSH2 0x825 PUSH2 0x81E PUSH2 0x19EF JUMP JUMPDEST DUP5 DUP5 PUSH2 0x19F7 JUMP JUMPDEST PUSH1 0x1 SWAP1 POP SWAP3 SWAP2 POP POP JUMP JUMPDEST PUSH1 0x10 PUSH1 0x0 SWAP1 SLOAD SWAP1 PUSH2 0x100 EXP SWAP1 DIV PUSH20 0xFFFFFFFFFFFFFFFFFFFFFFFFFFFFFFFFFFFFFFFF AND DUP2 JUMP JUMPDEST PUSH1 0x0 PUSH8 0xDE0B6B3A7640000 SWAP1 POP SWAP1 JUMP JUMPDEST PUSH1 0x0 PUSH2 0x872 DUP5 DUP5 DUP5 PUSH2 0x1BC0 JUMP JUMPDEST PUSH2 0x933 DUP5 PUSH2 0x87E PUSH2 0x19EF JUMP JUMPDEST PUSH2 0x92E DUP6 PUSH1 0x40 MLOAD DUP1 PUSH1 0x60 ADD PUSH1 0x40 MSTORE DUP1 PUSH1 0x28 DUP2 MSTORE PUSH1 0x20 ADD PUSH2 0x3C47 PUSH1 0x28 SWAP2 CODECOPY PUSH1 0x4 PUSH1 0x0 DUP12 PUSH20 0xFFFFFFFFFFFFFFFFFFFFFFFFFFFFFFFFFFFFFFFF AND PUSH20 0xFFFFFFFFFFFFFFFFFFFFFFFFFFFFFFFFFFFFFFFF AND DUP2 MSTORE PUSH1 0x20 ADD SWAP1 DUP2 MSTORE PUSH1 0x20 ADD PUSH1 0x0 KECCAK256 PUSH1 0x0 PUSH2 0x8E4 PUSH2 0x19EF JUMP JUMPDEST PUSH20 0xFFFFFFFFFFFFFFFFFFFFFFFFFFFFFFFFFFFFFFFF AND PUSH20 0xFFFFFFFFFFFFFFFFFFFFFFFFFFFFFFFFFFFFFFFF AND DUP2 MSTORE PUSH1 0x20 ADD SWAP1 DUP2 MSTORE PUSH1 0x20 ADD PUSH1 0x0 KECCAK256 SLOAD PUSH2 0x2132 SWAP1 SWAP3 SWAP2 SWAP1 PUSH4 0xFFFFFFFF AND JUMP JUMPDEST PUSH2 0x19F7 JUMP JUMPDEST PUSH1 0x1 SWAP1 POP SWAP4 SWAP3 POP POP POP JUMP JUMPDEST PUSH1 0x0 PUSH1 0x9 SWAP1 POP SWAP1 JUMP JUMPDEST PUSH1 0x12 PUSH1 0x0 SWAP1 SLOAD SWAP1 PUSH2 0x100 EXP SWAP1 DIV PUSH20 0xFFFFFFFFFFFFFFFFFFFFFFFFFFFFFFFFFFFFFFFF AND DUP2 JUMP JUMPDEST PUSH1 0x11 PUSH1 0x0 SWAP1 SLOAD SWAP1 PUSH2 0x100 EXP SWAP1 DIV PUSH20 0xFFFFFFFFFFFFFFFFFFFFFFFFFFFFFFFFFFFFFFFF AND DUP2 JUMP JUMPDEST PUSH2 0x99B PUSH2 0x19EF JUMP JUMPDEST PUSH20 0xFFFFFFFFFFFFFFFFFFFFFFFFFFFFFFFFFFFFFFFF AND PUSH2 0x9B9 PUSH2 0xF59 JUMP JUMPDEST PUSH20 0xFFFFFFFFFFFFFFFFFFFFFFFFFFFFFFFFFFFFFFFF AND EQ DUP1 PUSH2 0xA2F JUMPI POP PUSH2 0x9DE PUSH2 0x19EF JUMP JUMPDEST PUSH20 0xFFFFFFFFFFFFFFFFFFFFFFFFFFFFFFFFFFFFFFFF AND PUSH1 0xE PUSH1 0x0 SWAP1 SLOAD SWAP1 PUSH2 0x100 EXP SWAP1 DIV PUSH20 0xFFFFFFFFFFFFFFFFFFFFFFFFFFFFFFFFFFFFFFFF AND PUSH20 0xFFFFFFFFFFFFFFFFFFFFFFFFFFFFFFFFFFFFFFFF AND EQ JUMPDEST PUSH2 0xA6E JUMPI PUSH1 0x40 MLOAD PUSH32 0x8C379A000000000000000000000000000000000000000000000000000000000 DUP2 MSTORE PUSH1 0x4 ADD PUSH2 0xA65 SWAP1 PUSH2 0x330D JUMP JUMPDEST PUSH1 0x40 MLOAD DUP1 SWAP2 SUB SWAP1 REVERT JUMPDEST DUP1 PUSH1 0x12 PUSH1 0x15 PUSH2 0x100 EXP DUP2 SLOAD DUP2 PUSH1 0xFF MUL NOT AND SWAP1 DUP4 ISZERO ISZERO MUL OR SWAP1 SSTORE POP POP JUMP JUMPDEST PUSH1 0xE PUSH1 0x0 SWAP1 SLOAD SWAP1 PUSH2 0x100 EXP SWAP1 DIV PUSH20 0xFFFFFFFFFFFFFFFFFFFFFFFFFFFFFFFFFFFFFFFF AND PUSH20 0xFFFFFFFFFFFFFFFFFFFFFFFFFFFFFFFFFFFFFFFF AND PUSH2 0xACC PUSH2 0x19EF JUMP JUMPDEST PUSH20 0xFFFFFFFFFFFFFFFFFFFFFFFFFFFFFFFFFFFFFFFF AND EQ DUP1 PUSH2 0xB42 JUMPI POP PUSH1 0xF PUSH1 0x0 SWAP1 SLOAD SWAP1 PUSH2 0x100 EXP SWAP1 DIV PUSH20 0xFFFFFFFFFFFFFFFFFFFFFFFFFFFFFFFFFFFFFFFF AND PUSH20 0xFFFFFFFFFFFFFFFFFFFFFFFFFFFFFFFFFFFFFFFF AND PUSH2 0xB2A PUSH2 0x19EF JUMP JUMPDEST PUSH20 0xFFFFFFFFFFFFFFFFFFFFFFFFFFFFFFFFFFFFFFFF AND EQ JUMPDEST DUP1 PUSH2 0xB86 JUMPI POP PUSH2 0xB50 PUSH2 0xF59 JUMP JUMPDEST PUSH20 0xFFFFFFFFFFFFFFFFFFFFFFFFFFFFFFFFFFFFFFFF AND PUSH2 0xB6E PUSH2 0x19EF JUMP JUMPDEST PUSH20 0xFFFFFFFFFFFFFFFFFFFFFFFFFFFFFFFFFFFFFFFF AND EQ JUMPDEST PUSH2 0xB8F JUMPI PUSH1 0x0 DUP1 REVERT JUMPDEST PUSH1 0x0 SELFBALANCE SWAP1 POP PUSH2 0xB9D DUP2 PUSH2 0x2196 JUMP JUMPDEST POP JUMP JUMPDEST PUSH1 0x0 PUSH2 0xBEA PUSH1 0x2 PUSH1 0x0 DUP5 PUSH20 0xFFFFFFFFFFFFFFFFFFFFFFFFFFFFFFFFFFFFFFFF AND PUSH20 0xFFFFFFFFFFFFFFFFFFFFFFFFFFFFFFFFFFFFFFFF AND DUP2 MSTORE PUSH1 0x20 ADD SWAP1 DUP2 MSTORE PUSH1 0x20 ADD PUSH1 0x0 KECCAK256 SLOAD PUSH2 0x2291 JUMP JUMPDEST SWAP1 POP SWAP2 SWAP1 POP JUMP JUMPDEST PUSH2 0xBF9 PUSH2 0x19EF JUMP JUMPDEST PUSH20 0xFFFFFFFFFFFFFFFFFFFFFFFFFFFFFFFFFFFFFFFF AND PUSH1 0x0 DUP1 SLOAD SWAP1 PUSH2 0x100 EXP SWAP1 DIV PUSH20 0xFFFFFFFFFFFFFFFFFFFFFFFFFFFFFFFFFFFFFFFF AND PUSH20 0xFFFFFFFFFFFFFFFFFFFFFFFFFFFFFFFFFFFFFFFF AND EQ PUSH2 0xC86 JUMPI PUSH1 0x40 MLOAD PUSH32 0x8C379A000000000000000000000000000000000000000000000000000000000 DUP2 MSTORE PUSH1 0x4 ADD PUSH2 0xC7D SWAP1 PUSH2 0x3236 JUMP JUMPDEST PUSH1 0x40 MLOAD DUP1 SWAP2 SUB SWAP1 REVERT JUMPDEST PUSH1 0x0 PUSH20 0xFFFFFFFFFFFFFFFFFFFFFFFFFFFFFFFFFFFFFFFF AND PUSH1 0x0 DUP1 SLOAD SWAP1 PUSH2 0x100 EXP SWAP1 DIV PUSH20 0xFFFFFFFFFFFFFFFFFFFFFFFFFFFFFFFFFFFFFFFF AND PUSH20 0xFFFFFFFFFFFFFFFFFFFFFFFFFFFFFFFFFFFFFFFF AND PUSH32 0x8BE0079C531659141344CD1FD0A4F28419497F9722A3DAAFE3B4186F6B6457E0 PUSH1 0x40 MLOAD PUSH1 0x40 MLOAD DUP1 SWAP2 SUB SWAP1 LOG3 PUSH1 0x0 DUP1 PUSH1 0x0 PUSH2 0x100 EXP DUP2 SLOAD DUP2 PUSH20 0xFFFFFFFFFFFFFFFFFFFFFFFFFFFFFFFFFFFFFFFF MUL NOT AND SWAP1 DUP4 PUSH20 0xFFFFFFFFFFFFFFFFFFFFFFFFFFFFFFFFFFFFFFFF AND MUL OR SWAP1 SSTORE POP JUMP JUMPDEST PUSH2 0xD4C PUSH2 0x19EF JUMP JUMPDEST PUSH20 0xFFFFFFFFFFFFFFFFFFFFFFFFFFFFFFFFFFFFFFFF AND PUSH2 0xD6A PUSH2 0xF59 JUMP JUMPDEST PUSH20 0xFFFFFFFFFFFFFFFFFFFFFFFFFFFFFFFFFFFFFFFF AND EQ DUP1 PUSH2 0xDE0 JUMPI POP PUSH2 0xD8F PUSH2 0x19EF JUMP JUMPDEST PUSH20 0xFFFFFFFFFFFFFFFFFFFFFFFFFFFFFFFFFFFFFFFF AND PUSH1 0xE PUSH1 0x0 SWAP1 SLOAD SWAP1 PUSH2 0x100 EXP SWAP1 DIV PUSH20 0xFFFFFFFFFFFFFFFFFFFFFFFFFFFFFFFFFFFFFFFF AND PUSH20 0xFFFFFFFFFFFFFFFFFFFFFFFFFFFFFFFFFFFFFFFF AND EQ JUMPDEST PUSH2 0xE1F JUMPI PUSH1 0x40 MLOAD PUSH32 0x8C379A000000000000000000000000000000000000000000000000000000000 DUP2 MSTORE PUSH1 0x4 ADD PUSH2 0xE16 SWAP1 PUSH2 0x330D JUMP JUMPDEST PUSH1 0x40 MLOAD DUP1 SWAP2 SUB SWAP1 REVERT JUMPDEST DUP1 PUSH20 0xFFFFFFFFFFFFFFFFFFFFFFFFFFFFFFFFFFFFFFFF AND PUSH1 0xF PUSH1 0x0 SWAP1 SLOAD SWAP1 PUSH2 0x100 EXP SWAP1 DIV PUSH20 0xFFFFFFFFFFFFFFFFFFFFFFFFFFFFFFFFFFFFFFFF AND PUSH20 0xFFFFFFFFFFFFFFFFFFFFFFFFFFFFFFFFFFFFFFFF AND PUSH32 0xA64373A629BC0C09EACF8A9CC2C7B070FA0A8B7E2E9B8AAEE408A3C02EB1676B PUSH1 0x40 MLOAD PUSH1 0x40 MLOAD DUP1 SWAP2 SUB SWAP1 LOG3 DUP1 PUSH1 0xF PUSH1 0x0 PUSH2 0x100 EXP DUP2 SLOAD DUP2 PUSH20 0xFFFFFFFFFFFFFFFFFFFFFFFFFFFFFFFFFFFFFFFF MUL NOT AND SWAP1 DUP4 PUSH20 0xFFFFFFFFFFFFFFFFFFFFFFFFFFFFFFFFFFFFFFFF AND MUL OR SWAP1 SSTORE POP PUSH1 0x1 PUSH1 0x5 PUSH1 0x0 PUSH1 0xF PUSH1 0x0 SWAP1 SLOAD SWAP1 PUSH2 0x100 EXP SWAP1 DIV PUSH20 0xFFFFFFFFFFFFFFFFFFFFFFFFFFFFFFFFFFFFFFFF AND PUSH20 0xFFFFFFFFFFFFFFFFFFFFFFFFFFFFFFFFFFFFFFFF AND PUSH20 0xFFFFFFFFFFFFFFFFFFFFFFFFFFFFFFFFFFFFFFFF AND DUP2 MSTORE PUSH1 0x20 ADD SWAP1 DUP2 MSTORE PUSH1 0x20 ADD PUSH1 0x0 KECCAK256 PUSH1 0x0 PUSH2 0x100 EXP DUP2 SLOAD DUP2 PUSH1 0xFF MUL NOT AND SWAP1 DUP4 ISZERO ISZERO MUL OR SWAP1 SSTORE POP POP JUMP JUMPDEST PUSH1 0x0 DUP1 PUSH1 0x0 SWAP1 SLOAD SWAP1 PUSH2 0x100 EXP SWAP1 DIV PUSH20 0xFFFFFFFFFFFFFFFFFFFFFFFFFFFFFFFFFFFFFFFF AND SWAP1 POP SWAP1 JUMP JUMPDEST PUSH1 0x60 PUSH1 0x40 MLOAD DUP1 PUSH1 0x40 ADD PUSH1 0x40 MSTORE DUP1 PUSH1 0x3 DUP2 MSTORE PUSH1 0x20 ADD PUSH32 0x5753500000000000000000000000000000000000000000000000000000000000 DUP2 MSTORE POP SWAP1 POP SWAP1 JUMP JUMPDEST PUSH2 0xFC7 PUSH2 0x19EF JUMP JUMPDEST PUSH20 0xFFFFFFFFFFFFFFFFFFFFFFFFFFFFFFFFFFFFFFFF AND PUSH2 0xFE5 PUSH2 0xF59 JUMP JUMPDEST PUSH20 0xFFFFFFFFFFFFFFFFFFFFFFFFFFFFFFFFFFFFFFFF AND EQ DUP1 PUSH2 0x105B JUMPI POP PUSH2 0x100A PUSH2 0x19EF JUMP JUMPDEST PUSH20 0xFFFFFFFFFFFFFFFFFFFFFFFFFFFFFFFFFFFFFFFF AND PUSH1 0xE PUSH1 0x0 SWAP1 SLOAD SWAP1 PUSH2 0x100 EXP SWAP1 DIV PUSH20 0xFFFFFFFFFFFFFFFFFFFFFFFFFFFFFFFFFFFFFFFF AND PUSH20 0xFFFFFFFFFFFFFFFFFFFFFFFFFFFFFFFFFFFFFFFF AND EQ JUMPDEST PUSH2 0x109A JUMPI PUSH1 0x40 MLOAD PUSH32 0x8C379A000000000000000000000000000000000000000000000000000000000 DUP2 MSTORE PUSH1 0x4 ADD PUSH2 0x1091 SWAP1 PUSH2 0x330D JUMP JUMPDEST PUSH1 0x40 MLOAD DUP1 SWAP2 SUB SWAP1 REVERT JUMPDEST PUSH1 0xB DUP5 LT PUSH2 0x10DD JUMPI PUSH1 0x40 MLOAD PUSH32 0x8C379A000000000000000000000000000000000000000000000000000000000 DUP2 MSTORE PUSH1 0x4 ADD PUSH2 0x10D4 SWAP1 PUSH2 0x3379 JUMP JUMPDEST PUSH1 0x40 MLOAD DUP1 SWAP2 SUB SWAP1 REVERT JUMPDEST PUSH1 0xB DUP4 LT PUSH2 0x1120 JUMPI PUSH1 0x40 MLOAD PUSH32 0x8C379A000000000000000000000000000000000000000000000000000000000 DUP2 MSTORE PUSH1 0x4 ADD PUSH2 0x1117 SWAP1 PUSH2 0x3379 JUMP JUMPDEST PUSH1 0x40 MLOAD DUP1 SWAP2 SUB SWAP1 REVERT JUMPDEST PUSH1 0x7 DUP3 LT PUSH2 0x1163 JUMPI PUSH1 0x40 MLOAD PUSH32 0x8C379A000000000000000000000000000000000000000000000000000000000 DUP2 MSTORE PUSH1 0x4 ADD PUSH2 0x115A SWAP1 PUSH2 0x33E5 JUMP JUMPDEST PUSH1 0x40 MLOAD DUP1 SWAP2 SUB SWAP1 REVERT JUMPDEST PUSH1 0x7 DUP2 LT PUSH2 0x11A6 JUMPI PUSH1 0x40 MLOAD PUSH32 0x8C379A000000000000000000000000000000000000000000000000000000000 DUP2 MSTORE PUSH1 0x4 ADD PUSH2 0x119D SWAP1 PUSH2 0x33E5 JUMP JUMPDEST PUSH1 0x40 MLOAD DUP1 SWAP2 SUB SWAP1 REVERT JUMPDEST DUP4 PUSH1 0x8 DUP2 SWAP1 SSTORE POP DUP3 PUSH1 0xA DUP2 SWAP1 SSTORE POP DUP2 PUSH1 0x9 DUP2 SWAP1 SSTORE POP DUP1 PUSH1 0xB DUP2 SWAP1 SSTORE POP POP POP POP POP JUMP JUMPDEST PUSH1 0x0 PUSH2 0x11DC PUSH2 0x11D5 PUSH2 0x19EF JUMP JUMPDEST DUP5 DUP5 PUSH2 0x1BC0 JUMP JUMPDEST PUSH1 0x1 SWAP1 POP SWAP3 SWAP2 POP POP JUMP JUMPDEST PUSH2 0x11EE PUSH2 0x19EF JUMP JUMPDEST PUSH20 0xFFFFFFFFFFFFFFFFFFFFFFFFFFFFFFFFFFFFFFFF AND PUSH2 0x120C PUSH2 0xF59 JUMP JUMPDEST PUSH20 0xFFFFFFFFFFFFFFFFFFFFFFFFFFFFFFFFFFFFFFFF AND EQ DUP1 PUSH2 0x1282 JUMPI POP PUSH2 0x1231 PUSH2 0x19EF JUMP JUMPDEST PUSH20 0xFFFFFFFFFFFFFFFFFFFFFFFFFFFFFFFFFFFFFFFF AND PUSH1 0xE PUSH1 0x0 SWAP1 SLOAD SWAP1 PUSH2 0x100 EXP SWAP1 DIV PUSH20 0xFFFFFFFFFFFFFFFFFFFFFFFFFFFFFFFFFFFFFFFF AND PUSH20 0xFFFFFFFFFFFFFFFFFFFFFFFFFFFFFFFFFFFFFFFF AND EQ JUMPDEST PUSH2 0x12C1 JUMPI PUSH1 0x40 MLOAD PUSH32 0x8C379A000000000000000000000000000000000000000000000000000000000 DUP2 MSTORE PUSH1 0x4 ADD PUSH2 0x12B8 SWAP1 PUSH2 0x330D JUMP JUMPDEST PUSH1 0x40 MLOAD DUP1 SWAP2 SUB SWAP1 REVERT JUMPDEST DUP1 PUSH20 0xFFFFFFFFFFFFFFFFFFFFFFFFFFFFFFFFFFFFFFFF AND PUSH1 0xE PUSH1 0x0 SWAP1 SLOAD SWAP1 PUSH2 0x100 EXP SWAP1 DIV PUSH20 0xFFFFFFFFFFFFFFFFFFFFFFFFFFFFFFFFFFFFFFFF AND PUSH20 0xFFFFFFFFFFFFFFFFFFFFFFFFFFFFFFFFFFFFFFFF AND PUSH32 0xFBBC329437E8C79F847E170730AD6DD04106B7511CAD70D06D635886D92DE83C PUSH1 0x40 MLOAD PUSH1 0x40 MLOAD DUP1 SWAP2 SUB SWAP1 LOG3 DUP1 PUSH1 0xE PUSH1 0x0 PUSH2 0x100 EXP DUP2 SLOAD DUP2 PUSH20 0xFFFFFFFFFFFFFFFFFFFFFFFFFFFFFFFFFFFFFFFF MUL NOT AND SWAP1 DUP4 PUSH20 0xFFFFFFFFFFFFFFFFFFFFFFFFFFFFFFFFFFFFFFFF AND MUL OR SWAP1 SSTORE POP PUSH1 0x1 PUSH1 0x5 PUSH1 0x0 PUSH1 0xE PUSH1 0x0 SWAP1 SLOAD SWAP1 PUSH2 0x100 EXP SWAP1 DIV PUSH20 0xFFFFFFFFFFFFFFFFFFFFFFFFFFFFFFFFFFFFFFFF AND PUSH20 0xFFFFFFFFFFFFFFFFFFFFFFFFFFFFFFFFFFFFFFFF AND PUSH20 0xFFFFFFFFFFFFFFFFFFFFFFFFFFFFFFFFFFFFFFFF AND DUP2 MSTORE PUSH1 0x20 ADD SWAP1 DUP2 MSTORE PUSH1 0x20 ADD PUSH1 0x0 KECCAK256 PUSH1 0x0 PUSH2 0x100 EXP DUP2 SLOAD DUP2 PUSH1 0xFF MUL NOT AND SWAP1 DUP4 ISZERO ISZERO MUL OR SWAP1 SSTORE POP POP JUMP JUMPDEST PUSH1 0xE PUSH1 0x0 SWAP1 SLOAD SWAP1 PUSH2 0x100 EXP SWAP1 DIV PUSH20 0xFFFFFFFFFFFFFFFFFFFFFFFFFFFFFFFFFFFFFFFF AND PUSH20 0xFFFFFFFFFFFFFFFFFFFFFFFFFFFFFFFFFFFFFFFF AND PUSH2 0x143C PUSH2 0x19EF JUMP JUMPDEST PUSH20 0xFFFFFFFFFFFFFFFFFFFFFFFFFFFFFFFFFFFFFFFF AND EQ DUP1 PUSH2 0x14B2 JUMPI POP PUSH1 0xF PUSH1 0x0 SWAP1 SLOAD SWAP1 PUSH2 0x100 EXP SWAP1 DIV PUSH20 0xFFFFFFFFFFFFFFFFFFFFFFFFFFFFFFFFFFFFFFFF AND PUSH20 0xFFFFFFFFFFFFFFFFFFFFFFFFFFFFFFFFFFFFFFFF AND PUSH2 0x149A PUSH2 0x19EF JUMP JUMPDEST PUSH20 0xFFFFFFFFFFFFFFFFFFFFFFFFFFFFFFFFFFFFFFFF AND EQ JUMPDEST DUP1 PUSH2 0x14F6 JUMPI POP PUSH2 0x14C0 PUSH2 0xF59 JUMP JUMPDEST PUSH20 0xFFFFFFFFFFFFFFFFFFFFFFFFFFFFFFFFFFFFFFFF AND PUSH2 0x14DE PUSH2 0x19EF JUMP JUMPDEST PUSH20 0xFFFFFFFFFFFFFFFFFFFFFFFFFFFFFFFFFFFFFFFF AND EQ JUMPDEST PUSH2 0x14FF JUMPI PUSH1 0x0 DUP1 REVERT JUMPDEST PUSH1 0x0 PUSH2 0x150A ADDRESS PUSH2 0xBA0 JUMP JUMPDEST SWAP1 POP PUSH2 0x1515 DUP2 PUSH2 0x22FF JUMP JUMPDEST POP JUMP JUMPDEST PUSH2 0x1520 PUSH2 0x19EF JUMP JUMPDEST PUSH20 0xFFFFFFFFFFFFFFFFFFFFFFFFFFFFFFFFFFFFFFFF AND PUSH1 0x0 DUP1 SLOAD SWAP1 PUSH2 0x100 EXP SWAP1 DIV PUSH20 0xFFFFFFFFFFFFFFFFFFFFFFFFFFFFFFFFFFFFFFFF AND PUSH20 0xFFFFFFFFFFFFFFFFFFFFFFFFFFFFFFFFFFFFFFFF AND EQ PUSH2 0x15AD JUMPI PUSH1 0x40 MLOAD PUSH32 0x8C379A000000000000000000000000000000000000000000000000000000000 DUP2 MSTORE PUSH1 0x4 ADD PUSH2 0x15A4 SWAP1 PUSH2 0x3236 JUMP JUMPDEST PUSH1 0x40 MLOAD DUP1 SWAP2 SUB SWAP1 REVERT JUMPDEST PUSH1 0x0 JUMPDEST DUP4 DUP4 SWAP1 POP DUP2 LT ISZERO PUSH2 0x164C JUMPI DUP2 PUSH1 0x5 PUSH1 0x0 DUP7 DUP7 DUP6 DUP2 DUP2 LT PUSH2 0x15D3 JUMPI PUSH2 0x15D2 PUSH2 0x3405 JUMP JUMPDEST JUMPDEST SWAP1 POP PUSH1 0x20 MUL ADD PUSH1 0x20 DUP2 ADD SWAP1 PUSH2 0x15E8 SWAP2 SWAP1 PUSH2 0x2FE6 JUMP JUMPDEST PUSH20 0xFFFFFFFFFFFFFFFFFFFFFFFFFFFFFFFFFFFFFFFF AND PUSH20 0xFFFFFFFFFFFFFFFFFFFFFFFFFFFFFFFFFFFFFFFF AND DUP2 MSTORE PUSH1 0x20 ADD SWAP1 DUP2 MSTORE PUSH1 0x20 ADD PUSH1 0x0 KECCAK256 PUSH1 0x0 PUSH2 0x100 EXP DUP2 SLOAD DUP2 PUSH1 0xFF MUL NOT AND SWAP1 DUP4 ISZERO ISZERO MUL OR SWAP1 SSTORE POP DUP1 DUP1 PUSH2 0x1644 SWAP1 PUSH2 0x3463 JUMP JUMPDEST SWAP2 POP POP PUSH2 0x15B0 JUMP JUMPDEST POP POP POP POP JUMP JUMPDEST PUSH1 0x0 PUSH1 0x4 PUSH1 0x0 DUP5 PUSH20 0xFFFFFFFFFFFFFFFFFFFFFFFFFFFFFFFFFFFFFFFF AND PUSH20 0xFFFFFFFFFFFFFFFFFFFFFFFFFFFFFFFFFFFFFFFF AND DUP2 MSTORE PUSH1 0x20 ADD SWAP1 DUP2 MSTORE PUSH1 0x20 ADD PUSH1 0x0 KECCAK256 PUSH1 0x0 DUP4 PUSH20 0xFFFFFFFFFFFFFFFFFFFFFFFFFFFFFFFFFFFFFFFF AND PUSH20 0xFFFFFFFFFFFFFFFFFFFFFFFFFFFFFFFFFFFFFFFF AND DUP2 MSTORE PUSH1 0x20 ADD SWAP1 DUP2 MSTORE PUSH1 0x20 ADD PUSH1 0x0 KECCAK256 SLOAD SWAP1 POP SWAP3 SWAP2 POP POP JUMP JUMPDEST PUSH2 0x16E1 PUSH2 0x19EF JUMP JUMPDEST PUSH20 0xFFFFFFFFFFFFFFFFFFFFFFFFFFFFFFFFFFFFFFFF AND PUSH2 0x16FF PUSH2 0xF59 JUMP JUMPDEST PUSH20 0xFFFFFFFFFFFFFFFFFFFFFFFFFFFFFFFFFFFFFFFF AND EQ DUP1 PUSH2 0x1775 JUMPI POP PUSH2 0x1724 PUSH2 0x19EF JUMP JUMPDEST PUSH20 0xFFFFFFFFFFFFFFFFFFFFFFFFFFFFFFFFFFFFFFFF AND PUSH1 0xE PUSH1 0x0 SWAP1 SLOAD SWAP1 PUSH2 0x100 EXP SWAP1 DIV PUSH20 0xFFFFFFFFFFFFFFFFFFFFFFFFFFFFFFFFFFFFFFFF AND PUSH20 0xFFFFFFFFFFFFFFFFFFFFFFFFFFFFFFFFFFFFFFFF AND EQ JUMPDEST PUSH2 0x17B4 JUMPI PUSH1 0x40 MLOAD PUSH32 0x8C379A000000000000000000000000000000000000000000000000000000000 DUP2 MSTORE PUSH1 0x4 ADD PUSH2 0x17AB SWAP1 PUSH2 0x330D JUMP JUMPDEST PUSH1 0x40 MLOAD DUP1 SWAP2 SUB SWAP1 REVERT JUMPDEST DUP2 PUSH20 0xFFFFFFFFFFFFFFFFFFFFFFFFFFFFFFFFFFFFFFFF AND DUP4 PUSH20 0xFFFFFFFFFFFFFFFFFFFFFFFFFFFFFFFFFFFFFFFF AND PUSH32 0x47C33AA230EB5FD181505AA7BEFEADDD9B8A6F983989CEA73A7868448C3A9ED9 DUP4 PUSH1 0x40 MLOAD PUSH2 0x1811 SWAP2 SWAP1 PUSH2 0x2E82 JUMP JUMPDEST PUSH1 0x40 MLOAD DUP1 SWAP2 SUB SWAP1 LOG3 DUP3 PUSH20 0xFFFFFFFFFFFFFFFFFFFFFFFFFFFFFFFFFFFFFFFF AND PUSH4 0xA9059CBB DUP4 DUP4 PUSH1 0x40 MLOAD DUP4 PUSH4 0xFFFFFFFF AND PUSH1 0xE0 SHL DUP2 MSTORE PUSH1 0x4 ADD PUSH2 0x1854 SWAP3 SWAP2 SWAP1 PUSH2 0x34AB JUMP JUMPDEST PUSH1 0x20 PUSH1 0x40 MLOAD DUP1 DUP4 SUB DUP2 PUSH1 0x0 DUP8 GAS CALL ISZERO DUP1 ISZERO PUSH2 0x1873 JUMPI RETURNDATASIZE PUSH1 0x0 DUP1 RETURNDATACOPY RETURNDATASIZE PUSH1 0x0 REVERT JUMPDEST POP POP POP POP PUSH1 0x40 MLOAD RETURNDATASIZE PUSH1 0x1F NOT PUSH1 0x1F DUP3 ADD AND DUP3 ADD DUP1 PUSH1 0x40 MSTORE POP DUP2 ADD SWAP1 PUSH2 0x1897 SWAP2 SWAP1 PUSH2 0x34E9 JUMP JUMPDEST POP POP POP POP JUMP JUMPDEST PUSH2 0x18A5 PUSH2 0x19EF JUMP JUMPDEST PUSH20 0xFFFFFFFFFFFFFFFFFFFFFFFFFFFFFFFFFFFFFFFF AND PUSH1 0x0 DUP1 SLOAD SWAP1 PUSH2 0x100 EXP SWAP1 DIV PUSH20 0xFFFFFFFFFFFFFFFFFFFFFFFFFFFFFFFFFFFFFFFF AND PUSH20 0xFFFFFFFFFFFFFFFFFFFFFFFFFFFFFFFFFFFFFFFF AND EQ PUSH2 0x1932 JUMPI PUSH1 0x40 MLOAD PUSH32 0x8C379A000000000000000000000000000000000000000000000000000000000 DUP2 MSTORE PUSH1 0x4 ADD PUSH2 0x1929 SWAP1 PUSH2 0x3236 JUMP JUMPDEST PUSH1 0x40 MLOAD DUP1 SWAP2 SUB SWAP1 REVERT JUMPDEST DUP1 PUSH20 0xFFFFFFFFFFFFFFFFFFFFFFFFFFFFFFFFFFFFFFFF AND PUSH1 0x0 DUP1 SLOAD SWAP1 PUSH2 0x100 EXP SWAP1 DIV PUSH20 0xFFFFFFFFFFFFFFFFFFFFFFFFFFFFFFFFFFFFFFFF AND PUSH20 0xFFFFFFFFFFFFFFFFFFFFFFFFFFFFFFFFFFFFFFFF AND PUSH32 0x8BE0079C531659141344CD1FD0A4F28419497F9722A3DAAFE3B4186F6B6457E0 PUSH1 0x40 MLOAD PUSH1 0x40 MLOAD DUP1 SWAP2 SUB SWAP1 LOG3 DUP1 PUSH1 0x0 DUP1 PUSH2 0x100 EXP DUP2 SLOAD DUP2 PUSH20 0xFFFFFFFFFFFFFFFFFFFFFFFFFFFFFFFFFFFFFFFF MUL NOT AND SWAP1 DUP4 PUSH20 0xFFFFFFFFFFFFFFFFFFFFFFFFFFFFFFFFFFFFFFFF AND MUL OR SWAP1 SSTORE POP POP JUMP JUMPDEST PUSH1 0x0 CALLER SWAP1 POP SWAP1 JUMP JUMPDEST PUSH1 0x0 PUSH20 0xFFFFFFFFFFFFFFFFFFFFFFFFFFFFFFFFFFFFFFFF AND DUP4 PUSH20 0xFFFFFFFFFFFFFFFFFFFFFFFFFFFFFFFFFFFFFFFF AND SUB PUSH2 0x1A66 JUMPI PUSH1 0x40 MLOAD PUSH32 0x8C379A000000000000000000000000000000000000000000000000000000000 DUP2 MSTORE PUSH1 0x4 ADD PUSH2 0x1A5D SWAP1 PUSH2 0x3588 JUMP JUMPDEST PUSH1 0x40 MLOAD DUP1 SWAP2 SUB SWAP1 REVERT JUMPDEST PUSH1 0x0 PUSH20 0xFFFFFFFFFFFFFFFFFFFFFFFFFFFFFFFFFFFFFFFF AND DUP3 PUSH20 0xFFFFFFFFFFFFFFFFFFFFFFFFFFFFFFFFFFFFFFFF AND SUB PUSH2 0x1AD5 JUMPI PUSH1 0x40 MLOAD PUSH32 0x8C379A000000000000000000000000000000000000000000000000000000000 DUP2 MSTORE PUSH1 0x4 ADD PUSH2 0x1ACC SWAP1 PUSH2 0x361A JUMP JUMPDEST PUSH1 0x40 MLOAD DUP1 SWAP2 SUB SWAP1 REVERT JUMPDEST DUP1 PUSH1 0x4 PUSH1 0x0 DUP6 PUSH20 0xFFFFFFFFFFFFFFFFFFFFFFFFFFFFFFFFFFFFFFFF AND PUSH20 0xFFFFFFFFFFFFFFFFFFFFFFFFFFFFFFFFFFFFFFFF AND DUP2 MSTORE PUSH1 0x20 ADD SWAP1 DUP2 MSTORE PUSH1 0x20 ADD PUSH1 0x0 KECCAK256 PUSH1 0x0 DUP5 PUSH20 0xFFFFFFFFFFFFFFFFFFFFFFFFFFFFFFFFFFFFFFFF AND PUSH20 0xFFFFFFFFFFFFFFFFFFFFFFFFFFFFFFFFFFFFFFFF AND DUP2 MSTORE PUSH1 0x20 ADD SWAP1 DUP2 MSTORE PUSH1 0x20 ADD PUSH1 0x0 KECCAK256 DUP2 SWAP1 SSTORE POP DUP2 PUSH20 0xFFFFFFFFFFFFFFFFFFFFFFFFFFFFFFFFFFFFFFFF AND DUP4 PUSH20 0xFFFFFFFFFFFFFFFFFFFFFFFFFFFFFFFFFFFFFFFF AND PUSH32 0x8C5BE1E5EBEC7D5BD14F71427D1E84F3DD0314C0F7B2291E5B200AC8C7C3B925 DUP4 PUSH1 0x40 MLOAD PUSH2 0x1BB3 SWAP2 SWAP1 PUSH2 0x2E82 JUMP JUMPDEST PUSH1 0x40 MLOAD DUP1 SWAP2 SUB SWAP1 LOG3 POP POP POP JUMP JUMPDEST PUSH1 0x0 PUSH20 0xFFFFFFFFFFFFFFFFFFFFFFFFFFFFFFFFFFFFFFFF AND DUP4 PUSH20 0xFFFFFFFFFFFFFFFFFFFFFFFFFFFFFFFFFFFFFFFF AND SUB PUSH2 0x1C2F JUMPI PUSH1 0x40 MLOAD PUSH32 0x8C379A000000000000000000000000000000000000000000000000000000000 DUP2 MSTORE PUSH1 0x4 ADD PUSH2 0x1C26 SWAP1 PUSH2 0x36AC JUMP JUMPDEST PUSH1 0x40 MLOAD DUP1 SWAP2 SUB SWAP1 REVERT JUMPDEST PUSH1 0x0 PUSH20 0xFFFFFFFFFFFFFFFFFFFFFFFFFFFFFFFFFFFFFFFF AND DUP3 PUSH20 0xFFFFFFFFFFFFFFFFFFFFFFFFFFFFFFFFFFFFFFFF AND SUB PUSH2 0x1C9E JUMPI PUSH1 0x40 MLOAD PUSH32 0x8C379A000000000000000000000000000000000000000000000000000000000 DUP2 MSTORE PUSH1 0x4 ADD PUSH2 0x1C95 SWAP1 PUSH2 0x373E JUMP JUMPDEST PUSH1 0x40 MLOAD DUP1 SWAP2 SUB SWAP1 REVERT JUMPDEST PUSH1 0x0 DUP2 GT PUSH2 0x1CE1 JUMPI PUSH1 0x40 MLOAD PUSH32 0x8C379A000000000000000000000000000000000000000000000000000000000 DUP2 MSTORE PUSH1 0x4 ADD PUSH2 0x1CD8 SWAP1 PUSH2 0x37D0 JUMP JUMPDEST PUSH1 0x40 MLOAD DUP1 SWAP2 SUB SWAP1 REVERT JUMPDEST PUSH1 0x0 PUSH1 0xC DUP2 SWAP1 SSTORE POP PUSH1 0x0 PUSH1 0xD DUP2 SWAP1 SSTORE POP PUSH2 0x1CF9 PUSH2 0xF59 JUMP JUMPDEST PUSH20 0xFFFFFFFFFFFFFFFFFFFFFFFFFFFFFFFFFFFFFFFF AND DUP4 PUSH20 0xFFFFFFFFFFFFFFFFFFFFFFFFFFFFFFFFFFFFFFFF AND EQ ISZERO DUP1 ISZERO PUSH2 0x1D67 JUMPI POP PUSH2 0x1D37 PUSH2 0xF59 JUMP JUMPDEST PUSH20 0xFFFFFFFFFFFFFFFFFFFFFFFFFFFFFFFFFFFFFFFF AND DUP3 PUSH20 0xFFFFFFFFFFFFFFFFFFFFFFFFFFFFFFFFFFFFFFFF AND EQ ISZERO JUMPDEST ISZERO PUSH2 0x2122 JUMPI PUSH1 0x0 PUSH2 0x1D77 ADDRESS PUSH2 0xBA0 JUMP JUMPDEST SWAP1 POP PUSH1 0x12 PUSH1 0x14 SWAP1 SLOAD SWAP1 PUSH2 0x100 EXP SWAP1 DIV PUSH1 0xFF AND ISZERO DUP1 ISZERO PUSH2 0x1DE4 JUMPI POP PUSH1 0x12 PUSH1 0x0 SWAP1 SLOAD SWAP1 PUSH2 0x100 EXP SWAP1 DIV PUSH20 0xFFFFFFFFFFFFFFFFFFFFFFFFFFFFFFFFFFFFFFFF AND PUSH20 0xFFFFFFFFFFFFFFFFFFFFFFFFFFFFFFFFFFFFFFFF AND DUP5 PUSH20 0xFFFFFFFFFFFFFFFFFFFFFFFFFFFFFFFFFFFFFFFF AND EQ ISZERO JUMPDEST DUP1 ISZERO PUSH2 0x1DFC JUMPI POP PUSH1 0x12 PUSH1 0x15 SWAP1 SLOAD SWAP1 PUSH2 0x100 EXP SWAP1 DIV PUSH1 0xFF AND JUMPDEST DUP1 ISZERO PUSH2 0x1E08 JUMPI POP PUSH1 0x0 DUP2 GT JUMPDEST ISZERO PUSH2 0x1E30 JUMPI PUSH2 0x1E16 DUP2 PUSH2 0x22FF JUMP JUMPDEST PUSH1 0x0 SELFBALANCE SWAP1 POP PUSH1 0x0 DUP2 GT ISZERO PUSH2 0x1E2E JUMPI PUSH2 0x1E2D SELFBALANCE PUSH2 0x2196 JUMP JUMPDEST JUMPDEST POP JUMPDEST PUSH1 0x12 PUSH1 0x0 SWAP1 SLOAD SWAP1 PUSH2 0x100 EXP SWAP1 DIV PUSH20 0xFFFFFFFFFFFFFFFFFFFFFFFFFFFFFFFFFFFFFFFF AND PUSH20 0xFFFFFFFFFFFFFFFFFFFFFFFFFFFFFFFFFFFFFFFF AND DUP5 PUSH20 0xFFFFFFFFFFFFFFFFFFFFFFFFFFFFFFFFFFFFFFFF AND EQ DUP1 ISZERO PUSH2 0x1EDB JUMPI POP PUSH1 0x10 PUSH1 0x0 SWAP1 SLOAD SWAP1 PUSH2 0x100 EXP SWAP1 DIV PUSH20 0xFFFFFFFFFFFFFFFFFFFFFFFFFFFFFFFFFFFFFFFF AND PUSH20 0xFFFFFFFFFFFFFFFFFFFFFFFFFFFFFFFFFFFFFFFF AND DUP4 PUSH20 0xFFFFFFFFFFFFFFFFFFFFFFFFFFFFFFFFFFFFFFFF AND EQ ISZERO JUMPDEST ISZERO PUSH2 0x1EF3 JUMPI PUSH1 0x8 SLOAD PUSH1 0xC DUP2 SWAP1 SSTORE POP PUSH1 0x9 SLOAD PUSH1 0xD DUP2 SWAP1 SSTORE POP JUMPDEST PUSH1 0x12 PUSH1 0x0 SWAP1 SLOAD SWAP1 PUSH2 0x100 EXP SWAP1 DIV PUSH20 0xFFFFFFFFFFFFFFFFFFFFFFFFFFFFFFFFFFFFFFFF AND PUSH20 0xFFFFFFFFFFFFFFFFFFFFFFFFFFFFFFFFFFFFFFFF AND DUP4 PUSH20 0xFFFFFFFFFFFFFFFFFFFFFFFFFFFFFFFFFFFFFFFF AND EQ DUP1 ISZERO PUSH2 0x1F9E JUMPI POP PUSH1 0x10 PUSH1 0x0 SWAP1 SLOAD SWAP1 PUSH2 0x100 EXP SWAP1 DIV PUSH20 0xFFFFFFFFFFFFFFFFFFFFFFFFFFFFFFFFFFFFFFFF AND PUSH20 0xFFFFFFFFFFFFFFFFFFFFFFFFFFFFFFFFFFFFFFFF AND DUP5 PUSH20 0xFFFFFFFFFFFFFFFFFFFFFFFFFFFFFFFFFFFFFFFF AND EQ ISZERO JUMPDEST ISZERO PUSH2 0x1FB6 JUMPI PUSH1 0xA SLOAD PUSH1 0xC DUP2 SWAP1 SSTORE POP PUSH1 0xB SLOAD PUSH1 0xD DUP2 SWAP1 SSTORE POP JUMPDEST PUSH1 0x5 PUSH1 0x0 DUP6 PUSH20 0xFFFFFFFFFFFFFFFFFFFFFFFFFFFFFFFFFFFFFFFF AND PUSH20 0xFFFFFFFFFFFFFFFFFFFFFFFFFFFFFFFFFFFFFFFF AND DUP2 MSTORE PUSH1 0x20 ADD SWAP1 DUP2 MSTORE PUSH1 0x20 ADD PUSH1 0x0 KECCAK256 PUSH1 0x0 SWAP1 SLOAD SWAP1 PUSH2 0x100 EXP SWAP1 DIV PUSH1 0xFF AND DUP1 PUSH2 0x2057 JUMPI POP PUSH1 0x5 PUSH1 0x0 DUP5 PUSH20 0xFFFFFFFFFFFFFFFFFFFFFFFFFFFFFFFFFFFFFFFF AND PUSH20 0xFFFFFFFFFFFFFFFFFFFFFFFFFFFFFFFFFFFFFFFF AND DUP2 MSTORE PUSH1 0x20 ADD SWAP1 DUP2 MSTORE PUSH1 0x20 ADD PUSH1 0x0 KECCAK256 PUSH1 0x0 SWAP1 SLOAD SWAP1 PUSH2 0x100 EXP SWAP1 DIV PUSH1 0xFF AND JUMPDEST DUP1 PUSH2 0x210A JUMPI POP PUSH1 0x12 PUSH1 0x0 SWAP1 SLOAD SWAP1 PUSH2 0x100 EXP SWAP1 DIV PUSH20 0xFFFFFFFFFFFFFFFFFFFFFFFFFFFFFFFFFFFFFFFF AND PUSH20 0xFFFFFFFFFFFFFFFFFFFFFFFFFFFFFFFFFFFFFFFF AND DUP5 PUSH20 0xFFFFFFFFFFFFFFFFFFFFFFFFFFFFFFFFFFFFFFFF AND EQ ISZERO DUP1 ISZERO PUSH2 0x2109 JUMPI POP PUSH1 0x12 PUSH1 0x0 SWAP1 SLOAD SWAP1 PUSH2 0x100 EXP SWAP1 DIV PUSH20 0xFFFFFFFFFFFFFFFFFFFFFFFFFFFFFFFFFFFFFFFF AND PUSH20 0xFFFFFFFFFFFFFFFFFFFFFFFFFFFFFFFFFFFFFFFF AND DUP4 PUSH20 0xFFFFFFFFFFFFFFFFFFFFFFFFFFFFFFFFFFFFFFFF AND EQ ISZERO JUMPDEST JUMPDEST ISZERO PUSH2 0x2120 JUMPI PUSH1 0x0 PUSH1 0xC DUP2 SWAP1 SSTORE POP PUSH1 0x0 PUSH1 0xD DUP2 SWAP1 SSTORE POP JUMPDEST POP JUMPDEST PUSH2 0x212D DUP4 DUP4 DUP4 PUSH2 0x2578 JUMP JUMPDEST POP POP POP JUMP JUMPDEST PUSH1 0x0 DUP4 DUP4 GT ISZERO DUP3 SWAP1 PUSH2 0x217A JUMPI PUSH1 0x40 MLOAD PUSH32 0x8C379A000000000000000000000000000000000000000000000000000000000 DUP2 MSTORE PUSH1 0x4 ADD PUSH2 0x2171 SWAP2 SWAP1 PUSH2 0x2CC3 JUMP JUMPDEST PUSH1 0x40 MLOAD DUP1 SWAP2 SUB SWAP1 REVERT JUMPDEST POP PUSH1 0x0 DUP4 DUP6 PUSH2 0x2189 SWAP2 SWAP1 PUSH2 0x37F0 JUMP JUMPDEST SWAP1 POP DUP1 SWAP2 POP POP SWAP4 SWAP3 POP POP POP JUMP JUMPDEST PUSH1 0xE PUSH1 0x0 SWAP1 SLOAD SWAP1 PUSH2 0x100 EXP SWAP1 DIV PUSH20 0xFFFFFFFFFFFFFFFFFFFFFFFFFFFFFFFFFFFFFFFF AND PUSH20 0xFFFFFFFFFFFFFFFFFFFFFFFFFFFFFFFFFFFFFFFF AND PUSH2 0x8FC PUSH2 0x21E6 PUSH1 0x2 DUP5 PUSH2 0x2588 SWAP1 SWAP2 SWAP1 PUSH4 0xFFFFFFFF AND JUMP JUMPDEST SWAP1 DUP2 ISZERO MUL SWAP1 PUSH1 0x40 MLOAD PUSH1 0x0 PUSH1 0x40 MLOAD DUP1 DUP4 SUB DUP2 DUP6 DUP9 DUP9 CALL SWAP4 POP POP POP POP ISZERO DUP1 ISZERO PUSH2 0x2211 JUMPI RETURNDATASIZE PUSH1 0x0 DUP1 RETURNDATACOPY RETURNDATASIZE PUSH1 0x0 REVERT JUMPDEST POP PUSH1 0xF PUSH1 0x0 SWAP1 SLOAD SWAP1 PUSH2 0x100 EXP SWAP1 DIV PUSH20 0xFFFFFFFFFFFFFFFFFFFFFFFFFFFFFFFFFFFFFFFF AND PUSH20 0xFFFFFFFFFFFFFFFFFFFFFFFFFFFFFFFFFFFFFFFF AND PUSH2 0x8FC PUSH2 0x2262 PUSH1 0x2 DUP5 PUSH2 0x2588 SWAP1 SWAP2 SWAP1 PUSH4 0xFFFFFFFF AND JUMP JUMPDEST SWAP1 DUP2 ISZERO MUL SWAP1 PUSH1 0x40 MLOAD PUSH1 0x0 PUSH1 0x40 MLOAD DUP1 DUP4 SUB DUP2 DUP6 DUP9 DUP9 CALL SWAP4 POP POP POP POP ISZERO DUP1 ISZERO PUSH2 0x228D JUMPI RETURNDATASIZE PUSH1 0x0 DUP1 RETURNDATACOPY RETURNDATASIZE PUSH1 0x0 REVERT JUMPDEST POP POP JUMP JUMPDEST PUSH1 0x0 PUSH1 0x6 SLOAD DUP3 GT ISZERO PUSH2 0x22D8 JUMPI PUSH1 0x40 MLOAD PUSH32 0x8C379A000000000000000000000000000000000000000000000000000000000 DUP2 MSTORE PUSH1 0x4 ADD PUSH2 0x22CF SWAP1 PUSH2 0x3896 JUMP JUMPDEST PUSH1 0x40 MLOAD DUP1 SWAP2 SUB SWAP1 REVERT JUMPDEST PUSH1 0x0 PUSH2 0x22E2 PUSH2 0x25D2 JUMP JUMPDEST SWAP1 POP PUSH2 0x22F7 DUP2 DUP5 PUSH2 0x2588 SWAP1 SWAP2 SWAP1 PUSH4 0xFFFFFFFF AND JUMP JUMPDEST SWAP2 POP POP SWAP2 SWAP1 POP JUMP JUMPDEST PUSH1 0x1 PUSH1 0x12 PUSH1 0x14 PUSH2 0x100 EXP DUP2 SLOAD DUP2 PUSH1 0xFF MUL NOT AND SWAP1 DUP4 ISZERO ISZERO MUL OR SWAP1 SSTORE POP PUSH1 0x0 PUSH1 0x2 PUSH8 0xFFFFFFFFFFFFFFFF DUP2 GT ISZERO PUSH2 0x2337 JUMPI PUSH2 0x2336 PUSH2 0x38B6 JUMP JUMPDEST JUMPDEST PUSH1 0x40 MLOAD SWAP1 DUP1 DUP3 MSTORE DUP1 PUSH1 0x20 MUL PUSH1 0x20 ADD DUP3 ADD PUSH1 0x40 MSTORE DUP1 ISZERO PUSH2 0x2365 JUMPI DUP2 PUSH1 0x20 ADD PUSH1 0x20 DUP3 MUL DUP1 CALLDATASIZE DUP4 CALLDATACOPY DUP1 DUP3 ADD SWAP2 POP POP SWAP1 POP JUMPDEST POP SWAP1 POP ADDRESS DUP2 PUSH1 0x0 DUP2 MLOAD DUP2 LT PUSH2 0x237D JUMPI PUSH2 0x237C PUSH2 0x3405 JUMP JUMPDEST JUMPDEST PUSH1 0x20 MUL PUSH1 0x20 ADD ADD SWAP1 PUSH20 0xFFFFFFFFFFFFFFFFFFFFFFFFFFFFFFFFFFFFFFFF AND SWAP1 DUP2 PUSH20 0xFFFFFFFFFFFFFFFFFFFFFFFFFFFFFFFFFFFFFFFF AND DUP2 MSTORE POP POP PUSH1 0x10 PUSH1 0x0 SWAP1 SLOAD SWAP1 PUSH2 0x100 EXP SWAP1 DIV PUSH20 0xFFFFFFFFFFFFFFFFFFFFFFFFFFFFFFFFFFFFFFFF AND PUSH20 0xFFFFFFFFFFFFFFFFFFFFFFFFFFFFFFFFFFFFFFFF AND PUSH4 0xAD5C4648 PUSH1 0x40 MLOAD DUP2 PUSH4 0xFFFFFFFF AND PUSH1 0xE0 SHL DUP2 MSTORE PUSH1 0x4 ADD PUSH1 0x20 PUSH1 0x40 MLOAD DUP1 DUP4 SUB DUP2 DUP7 GAS STATICCALL ISZERO DUP1 ISZERO PUSH2 0x2424 JUMPI RETURNDATASIZE PUSH1 0x0 DUP1 RETURNDATACOPY RETURNDATASIZE PUSH1 0x0 REVERT JUMPDEST POP POP POP POP PUSH1 0x40 MLOAD RETURNDATASIZE PUSH1 0x1F NOT PUSH1 0x1F DUP3 ADD AND DUP3 ADD DUP1 PUSH1 0x40 MSTORE POP DUP2 ADD SWAP1 PUSH2 0x2448 SWAP2 SWAP1 PUSH2 0x326B JUMP JUMPDEST DUP2 PUSH1 0x1 DUP2 MLOAD DUP2 LT PUSH2 0x245C JUMPI PUSH2 0x245B PUSH2 0x3405 JUMP JUMPDEST JUMPDEST PUSH1 0x20 MUL PUSH1 0x20 ADD ADD SWAP1 PUSH20 0xFFFFFFFFFFFFFFFFFFFFFFFFFFFFFFFFFFFFFFFF AND SWAP1 DUP2 PUSH20 0xFFFFFFFFFFFFFFFFFFFFFFFFFFFFFFFFFFFFFFFF AND DUP2 MSTORE POP POP PUSH2 0x24C3 ADDRESS PUSH1 0x10 PUSH1 0x0 SWAP1 SLOAD SWAP1 PUSH2 0x100 EXP SWAP1 DIV PUSH20 0xFFFFFFFFFFFFFFFFFFFFFFFFFFFFFFFFFFFFFFFF AND DUP5 PUSH2 0x19F7 JUMP JUMPDEST PUSH1 0x10 PUSH1 0x0 SWAP1 SLOAD SWAP1 PUSH2 0x100 EXP SWAP1 DIV PUSH20 0xFFFFFFFFFFFFFFFFFFFFFFFFFFFFFFFFFFFFFFFF AND PUSH20 0xFFFFFFFFFFFFFFFFFFFFFFFFFFFFFFFFFFFFFFFF AND PUSH4 0x791AC947 DUP4 PUSH1 0x0 DUP5 ADDRESS TIMESTAMP PUSH1 0x40 MLOAD DUP7 PUSH4 0xFFFFFFFF AND PUSH1 0xE0 SHL DUP2 MSTORE PUSH1 0x4 ADD PUSH2 0x2527 SWAP6 SWAP5 SWAP4 SWAP3 SWAP2 SWAP1 PUSH2 0x39DE JUMP JUMPDEST PUSH1 0x0 PUSH1 0x40 MLOAD DUP1 DUP4 SUB DUP2 PUSH1 0x0 DUP8 DUP1 EXTCODESIZE ISZERO DUP1 ISZERO PUSH2 0x2541 JUMPI PUSH1 0x0 DUP1 REVERT JUMPDEST POP GAS CALL ISZERO DUP1 ISZERO PUSH2 0x2555 JUMPI RETURNDATASIZE PUSH1 0x0 DUP1 RETURNDATACOPY RETURNDATASIZE PUSH1 0x0 REVERT JUMPDEST POP POP POP POP POP PUSH1 0x0 PUSH1 0x12 PUSH1 0x14 PUSH2 0x100 EXP DUP2 SLOAD DUP2 PUSH1 0xFF MUL NOT AND SWAP1 DUP4 ISZERO ISZERO MUL OR SWAP1 SSTORE POP POP JUMP JUMPDEST PUSH2 0x2583 DUP4 DUP4 DUP4 PUSH2 0x25FD JUMP JUMPDEST POP POP POP JUMP JUMPDEST PUSH1 0x0 PUSH2 0x25CA DUP4 DUP4 PUSH1 0x40 MLOAD DUP1 PUSH1 0x40 ADD PUSH1 0x40 MSTORE DUP1 PUSH1 0x1A DUP2 MSTORE PUSH1 0x20 ADD PUSH32 0x536166654D6174683A206469766973696F6E206279207A65726F000000000000 DUP2 MSTORE POP PUSH2 0x27C8 JUMP JUMPDEST SWAP1 POP SWAP3 SWAP2 POP POP JUMP JUMPDEST PUSH1 0x0 DUP1 PUSH1 0x0 PUSH2 0x25DF PUSH2 0x282B JUMP JUMPDEST SWAP2 POP SWAP2 POP PUSH2 0x25F6 DUP2 DUP4 PUSH2 0x2588 SWAP1 SWAP2 SWAP1 PUSH4 0xFFFFFFFF AND JUMP JUMPDEST SWAP3 POP POP POP SWAP1 JUMP JUMPDEST PUSH1 0x0 DUP1 PUSH1 0x0 DUP1 PUSH1 0x0 DUP1 PUSH2 0x260F DUP8 PUSH2 0x288A JUMP JUMPDEST SWAP6 POP SWAP6 POP SWAP6 POP SWAP6 POP SWAP6 POP SWAP6 POP PUSH2 0x266D DUP7 PUSH1 0x2 PUSH1 0x0 DUP13 PUSH20 0xFFFFFFFFFFFFFFFFFFFFFFFFFFFFFFFFFFFFFFFF AND PUSH20 0xFFFFFFFFFFFFFFFFFFFFFFFFFFFFFFFFFFFFFFFF AND DUP2 MSTORE PUSH1 0x20 ADD SWAP1 DUP2 MSTORE PUSH1 0x20 ADD PUSH1 0x0 KECCAK256 SLOAD PUSH2 0x28F2 SWAP1 SWAP2 SWAP1 PUSH4 0xFFFFFFFF AND JUMP JUMPDEST PUSH1 0x2 PUSH1 0x0 DUP12 PUSH20 0xFFFFFFFFFFFFFFFFFFFFFFFFFFFFFFFFFFFFFFFF AND PUSH20 0xFFFFFFFFFFFFFFFFFFFFFFFFFFFFFFFFFFFFFFFF AND DUP2 MSTORE PUSH1 0x20 ADD SWAP1 DUP2 MSTORE PUSH1 0x20 ADD PUSH1 0x0 KECCAK256 DUP2 SWAP1 SSTORE POP PUSH2 0x2702 DUP6 PUSH1 0x2 PUSH1 0x0 DUP12 PUSH20 0xFFFFFFFFFFFFFFFFFFFFFFFFFFFFFFFFFFFFFFFF AND PUSH20 0xFFFFFFFFFFFFFFFFFFFFFFFFFFFFFFFFFFFFFFFF AND DUP2 MSTORE PUSH1 0x20 ADD SWAP1 DUP2 MSTORE PUSH1 0x20 ADD PUSH1 0x0 KECCAK256 SLOAD PUSH2 0x293C SWAP1 SWAP2 SWAP1 PUSH4 0xFFFFFFFF AND JUMP JUMPDEST PUSH1 0x2 PUSH1 0x0 DUP11 PUSH20 0xFFFFFFFFFFFFFFFFFFFFFFFFFFFFFFFFFFFFFFFF AND PUSH20 0xFFFFFFFFFFFFFFFFFFFFFFFFFFFFFFFFFFFFFFFF AND DUP2 MSTORE PUSH1 0x20 ADD SWAP1 DUP2 MSTORE PUSH1 0x20 ADD PUSH1 0x0 KECCAK256 DUP2 SWAP1 SSTORE POP PUSH2 0x274E DUP2 PUSH2 0x299A JUMP JUMPDEST PUSH2 0x2758 DUP5 DUP4 PUSH2 0x2A57 JUMP JUMPDEST DUP8 PUSH20 0xFFFFFFFFFFFFFFFFFFFFFFFFFFFFFFFFFFFFFFFF AND DUP10 PUSH20 0xFFFFFFFFFFFFFFFFFFFFFFFFFFFFFFFFFFFFFFFF AND PUSH32 0xDDF252AD1BE2C89B69C2B068FC378DAA952BA7F163C4A11628F55A4DF523B3EF DUP6 PUSH1 0x40 MLOAD PUSH2 0x27B5 SWAP2 SWAP1 PUSH2 0x2E82 JUMP JUMPDEST PUSH1 0x40 MLOAD DUP1 SWAP2 SUB SWAP1 LOG3 POP POP POP POP POP POP POP POP POP JUMP JUMPDEST PUSH1 0x0 DUP1 DUP4 GT DUP3 SWAP1 PUSH2 0x280F JUMPI PUSH1 0x40 MLOAD PUSH32 0x8C379A000000000000000000000000000000000000000000000000000000000 DUP2 MSTORE PUSH1 0x4 ADD PUSH2 0x2806 SWAP2 SWAP1 PUSH2 0x2CC3 JUMP JUMPDEST PUSH1 0x40 MLOAD DUP1 SWAP2 SUB SWAP1 REVERT JUMPDEST POP PUSH1 0x0 DUP4 DUP6 PUSH2 0x281E SWAP2 SWAP1 PUSH2 0x3A67 JUMP JUMPDEST SWAP1 POP DUP1 SWAP2 POP POP SWAP4 SWAP3 POP POP POP JUMP JUMPDEST PUSH1 0x0 DUP1 PUSH1 0x0 PUSH1 0x6 SLOAD SWAP1 POP PUSH1 0x0 PUSH8 0xDE0B6B3A7640000 SWAP1 POP PUSH2 0x285F PUSH8 0xDE0B6B3A7640000 PUSH1 0x6 SLOAD PUSH2 0x2588 SWAP1 SWAP2 SWAP1 PUSH4 0xFFFFFFFF AND JUMP JUMPDEST DUP3 LT ISZERO PUSH2 0x287D JUMPI PUSH1 0x6 SLOAD PUSH8 0xDE0B6B3A7640000 SWAP4 POP SWAP4 POP POP POP PUSH2 0x2886 JUMP JUMPDEST DUP2 DUP2 SWAP4 POP SWAP4 POP POP POP JUMPDEST SWAP1 SWAP2 JUMP JUMPDEST PUSH1 0x0 DUP1 PUSH1 0x0 DUP1 PUSH1 0x0 DUP1 PUSH1 0x0 DUP1 PUSH1 0x0 PUSH2 0x28A7 DUP11 PUSH1 0xC SLOAD PUSH1 0xD SLOAD PUSH2 0x2A91 JUMP JUMPDEST SWAP3 POP SWAP3 POP SWAP3 POP PUSH1 0x0 PUSH2 0x28B7 PUSH2 0x25D2 JUMP JUMPDEST SWAP1 POP PUSH1 0x0 DUP1 PUSH1 0x0 PUSH2 0x28CA DUP15 DUP8 DUP8 DUP8 PUSH2 0x2B27 JUMP JUMPDEST SWAP3 POP SWAP3 POP SWAP3 POP DUP3 DUP3 DUP3 DUP10 DUP10 DUP10 SWAP13 POP SWAP13 POP SWAP13 POP SWAP13 POP SWAP13 POP SWAP13 POP POP POP POP POP POP POP POP SWAP2 SWAP4 SWAP6 POP SWAP2 SWAP4 SWAP6 JUMP JUMPDEST PUSH1 0x0 PUSH2 0x2934 DUP4 DUP4 PUSH1 0x40 MLOAD DUP1 PUSH1 0x40 ADD PUSH1 0x40 MSTORE DUP1 PUSH1 0x1E DUP2 MSTORE PUSH1 0x20 ADD PUSH32 0x536166654D6174683A207375627472616374696F6E206F766572666C6F770000 DUP2 MSTORE POP PUSH2 0x2132 JUMP JUMPDEST SWAP1 POP SWAP3 SWAP2 POP POP JUMP JUMPDEST PUSH1 0x0 DUP1 DUP3 DUP5 PUSH2 0x294B SWAP2 SWAP1 PUSH2 0x3A98 JUMP JUMPDEST SWAP1 POP DUP4 DUP2 LT ISZERO PUSH2 0x2990 JUMPI PUSH1 0x40 MLOAD PUSH32 0x8C379A000000000000000000000000000000000000000000000000000000000 DUP2 MSTORE PUSH1 0x4 ADD PUSH2 0x2987 SWAP1 PUSH2 0x3B3A JUMP JUMPDEST PUSH1 0x40 MLOAD DUP1 SWAP2 SUB SWAP1 REVERT JUMPDEST DUP1 SWAP2 POP POP SWAP3 SWAP2 POP POP JUMP JUMPDEST PUSH1 0x0 PUSH2 0x29A4 PUSH2 0x25D2 JUMP JUMPDEST SWAP1 POP PUSH1 0x0 PUSH2 0x29BB DUP3 DUP5 PUSH2 0x2BB0 SWAP1 SWAP2 SWAP1 PUSH4 0xFFFFFFFF AND JUMP JUMPDEST SWAP1 POP PUSH2 0x2A0F DUP2 PUSH1 0x2 PUSH1 0x0 ADDRESS PUSH20 0xFFFFFFFFFFFFFFFFFFFFFFFFFFFFFFFFFFFFFFFF AND PUSH20 0xFFFFFFFFFFFFFFFFFFFFFFFFFFFFFFFFFFFFFFFF AND DUP2 MSTORE PUSH1 0x20 ADD SWAP1 DUP2 MSTORE PUSH1 0x20 ADD PUSH1 0x0 KECCAK256 SLOAD PUSH2 0x293C SWAP1 SWAP2 SWAP1 PUSH4 0xFFFFFFFF AND JUMP JUMPDEST PUSH1 0x2 PUSH1 0x0 ADDRESS PUSH20 0xFFFFFFFFFFFFFFFFFFFFFFFFFFFFFFFFFFFFFFFF AND PUSH20 0xFFFFFFFFFFFFFFFFFFFFFFFFFFFFFFFFFFFFFFFF AND DUP2 MSTORE PUSH1 0x20 ADD SWAP1 DUP2 MSTORE PUSH1 0x20 ADD PUSH1 0x0 KECCAK256 DUP2 SWAP1 SSTORE POP POP POP POP JUMP JUMPDEST PUSH2 0x2A6C DUP3 PUSH1 0x6 SLOAD PUSH2 0x28F2 SWAP1 SWAP2 SWAP1 PUSH4 0xFFFFFFFF AND JUMP JUMPDEST PUSH1 0x6 DUP2 SWAP1 SSTORE POP PUSH2 0x2A87 DUP2 PUSH1 0x7 SLOAD PUSH2 0x293C SWAP1 SWAP2 SWAP1 PUSH4 0xFFFFFFFF AND JUMP JUMPDEST PUSH1 0x7 DUP2 SWAP1 SSTORE POP POP POP JUMP JUMPDEST PUSH1 0x0 DUP1 PUSH1 0x0 DUP1 PUSH2 0x2ABD PUSH1 0x64 PUSH2 0x2AAF DUP9 DUP11 PUSH2 0x2BB0 SWAP1 SWAP2 SWAP1 PUSH4 0xFFFFFFFF AND JUMP JUMPDEST PUSH2 0x2588 SWAP1 SWAP2 SWAP1 PUSH4 0xFFFFFFFF AND JUMP JUMPDEST SWAP1 POP PUSH1 0x0 PUSH2 0x2AE7 PUSH1 0x64 PUSH2 0x2AD9 DUP9 DUP12 PUSH2 0x2BB0 SWAP1 SWAP2 SWAP1 PUSH4 0xFFFFFFFF AND JUMP JUMPDEST PUSH2 0x2588 SWAP1 SWAP2 SWAP1 PUSH4 0xFFFFFFFF AND JUMP JUMPDEST SWAP1 POP PUSH1 0x0 PUSH2 0x2B10 DUP3 PUSH2 0x2B02 DUP6 DUP13 PUSH2 0x28F2 SWAP1 SWAP2 SWAP1 PUSH4 0xFFFFFFFF AND JUMP JUMPDEST PUSH2 0x28F2 SWAP1 SWAP2 SWAP1 PUSH4 0xFFFFFFFF AND JUMP JUMPDEST SWAP1 POP DUP1 DUP4 DUP4 SWAP6 POP SWAP6 POP SWAP6 POP POP POP POP SWAP4 POP SWAP4 POP SWAP4 SWAP1 POP JUMP JUMPDEST PUSH1 0x0 DUP1 PUSH1 0x0 DUP1 PUSH2 0x2B40 DUP6 DUP10 PUSH2 0x2BB0 SWAP1 SWAP2 SWAP1 PUSH4 0xFFFFFFFF AND JUMP JUMPDEST SWAP1 POP PUSH1 0x0 PUSH2 0x2B57 DUP7 DUP10 PUSH2 0x2BB0 SWAP1 SWAP2 SWAP1 PUSH4 0xFFFFFFFF AND JUMP JUMPDEST SWAP1 POP PUSH1 0x0 PUSH2 0x2B6E DUP8 DUP10 PUSH2 0x2BB0 SWAP1 SWAP2 SWAP1 PUSH4 0xFFFFFFFF AND JUMP JUMPDEST SWAP1 POP PUSH1 0x0 PUSH2 0x2B97 DUP3 PUSH2 0x2B89 DUP6 DUP8 PUSH2 0x28F2 SWAP1 SWAP2 SWAP1 PUSH4 0xFFFFFFFF AND JUMP JUMPDEST PUSH2 0x28F2 SWAP1 SWAP2 SWAP1 PUSH4 0xFFFFFFFF AND JUMP JUMPDEST SWAP1 POP DUP4 DUP2 DUP5 SWAP7 POP SWAP7 POP SWAP7 POP POP POP POP POP SWAP5 POP SWAP5 POP SWAP5 SWAP2 POP POP JUMP JUMPDEST PUSH1 0x0 DUP1 DUP4 SUB PUSH2 0x2BC2 JUMPI PUSH1 0x0 SWAP1 POP PUSH2 0x2C24 JUMP JUMPDEST PUSH1 0x0 DUP3 DUP5 PUSH2 0x2BD0 SWAP2 SWAP1 PUSH2 0x3B5A JUMP JUMPDEST SWAP1 POP DUP3 DUP5 DUP3 PUSH2 0x2BDF SWAP2 SWAP1 PUSH2 0x3A67 JUMP JUMPDEST EQ PUSH2 0x2C1F JUMPI PUSH1 0x40 MLOAD PUSH32 0x8C379A000000000000000000000000000000000000000000000000000000000 DUP2 MSTORE PUSH1 0x4 ADD PUSH2 0x2C16 SWAP1 PUSH2 0x3C26 JUMP JUMPDEST PUSH1 0x40 MLOAD DUP1 SWAP2 SUB SWAP1 REVERT JUMPDEST DUP1 SWAP2 POP POP JUMPDEST SWAP3 SWAP2 POP POP JUMP JUMPDEST PUSH1 0x0 DUP2 MLOAD SWAP1 POP SWAP2 SWAP1 POP JUMP JUMPDEST PUSH1 0x0 DUP3 DUP3 MSTORE PUSH1 0x20 DUP3 ADD SWAP1 POP SWAP3 SWAP2 POP POP JUMP JUMPDEST PUSH1 0x0 JUMPDEST DUP4 DUP2 LT ISZERO PUSH2 0x2C64 JUMPI DUP1 DUP3 ADD MLOAD DUP2 DUP5 ADD MSTORE PUSH1 0x20 DUP2 ADD SWAP1 POP PUSH2 0x2C49 JUMP JUMPDEST DUP4 DUP2 GT ISZERO PUSH2 0x2C73 JUMPI PUSH1 0x0 DUP5 DUP5 ADD MSTORE JUMPDEST POP POP POP POP JUMP JUMPDEST PUSH1 0x0 PUSH1 0x1F NOT PUSH1 0x1F DUP4 ADD AND SWAP1 POP SWAP2 SWAP1 POP JUMP JUMPDEST PUSH1 0x0 PUSH2 0x2C95 DUP3 PUSH2 0x2C2A JUMP JUMPDEST PUSH2 0x2C9F DUP2 DUP6 PUSH2 0x2C35 JUMP JUMPDEST SWAP4 POP PUSH2 0x2CAF DUP2 DUP6 PUSH1 0x20 DUP7 ADD PUSH2 0x2C46 JUMP JUMPDEST PUSH2 0x2CB8 DUP2 PUSH2 0x2C79 JUMP JUMPDEST DUP5 ADD SWAP2 POP POP SWAP3 SWAP2 POP POP JUMP JUMPDEST PUSH1 0x0 PUSH1 0x20 DUP3 ADD SWAP1 POP DUP2 DUP2 SUB PUSH1 0x0 DUP4 ADD MSTORE PUSH2 0x2CDD DUP2 DUP5 PUSH2 0x2C8A JUMP JUMPDEST SWAP1 POP SWAP3 SWAP2 POP POP JUMP JUMPDEST PUSH1 0x0 DUP1 REVERT JUMPDEST PUSH1 0x0 DUP1 REVERT JUMPDEST PUSH1 0x0 PUSH20 0xFFFFFFFFFFFFFFFFFFFFFFFFFFFFFFFFFFFFFFFF DUP3 AND SWAP1 POP SWAP2 SWAP1 POP JUMP JUMPDEST PUSH1 0x0 PUSH2 0x2D1A DUP3 PUSH2 0x2CEF JUMP JUMPDEST SWAP1 POP SWAP2 SWAP1 POP JUMP JUMPDEST PUSH2 0x2D2A DUP2 PUSH2 0x2D0F JUMP JUMPDEST DUP2 EQ PUSH2 0x2D35 JUMPI PUSH1 0x0 DUP1 REVERT JUMPDEST POP JUMP JUMPDEST PUSH1 0x0 DUP2 CALLDATALOAD SWAP1 POP PUSH2 0x2D47 DUP2 PUSH2 0x2D21 JUMP JUMPDEST SWAP3 SWAP2 POP POP JUMP JUMPDEST PUSH1 0x0 DUP2 SWAP1 POP SWAP2 SWAP1 POP JUMP JUMPDEST PUSH2 0x2D60 DUP2 PUSH2 0x2D4D JUMP JUMPDEST DUP2 EQ PUSH2 0x2D6B JUMPI PUSH1 0x0 DUP1 REVERT JUMPDEST POP JUMP JUMPDEST PUSH1 0x0 DUP2 CALLDATALOAD SWAP1 POP PUSH2 0x2D7D DUP2 PUSH2 0x2D57 JUMP JUMPDEST SWAP3 SWAP2 POP POP JUMP JUMPDEST PUSH1 0x0 DUP1 PUSH1 0x40 DUP4 DUP6 SUB SLT ISZERO PUSH2 0x2D9A JUMPI PUSH2 0x2D99 PUSH2 0x2CE5 JUMP JUMPDEST JUMPDEST PUSH1 0x0 PUSH2 0x2DA8 DUP6 DUP3 DUP7 ADD PUSH2 0x2D38 JUMP JUMPDEST SWAP3 POP POP PUSH1 0x20 PUSH2 0x2DB9 DUP6 DUP3 DUP7 ADD PUSH2 0x2D6E JUMP JUMPDEST SWAP2 POP POP SWAP3 POP SWAP3 SWAP1 POP JUMP JUMPDEST PUSH1 0x0 DUP2 ISZERO ISZERO SWAP1 POP SWAP2 SWAP1 POP JUMP JUMPDEST PUSH2 0x2DD8 DUP2 PUSH2 0x2DC3 JUMP JUMPDEST DUP3 MSTORE POP POP JUMP JUMPDEST PUSH1 0x0 PUSH1 0x20 DUP3 ADD SWAP1 POP PUSH2 0x2DF3 PUSH1 0x0 DUP4 ADD DUP5 PUSH2 0x2DCF JUMP JUMPDEST SWAP3 SWAP2 POP POP JUMP JUMPDEST PUSH1 0x0 DUP2 SWAP1 POP SWAP2 SWAP1 POP JUMP JUMPDEST PUSH1 0x0 PUSH2 0x2E1E PUSH2 0x2E19 PUSH2 0x2E14 DUP5 PUSH2 0x2CEF JUMP JUMPDEST PUSH2 0x2DF9 JUMP JUMPDEST PUSH2 0x2CEF JUMP JUMPDEST SWAP1 POP SWAP2 SWAP1 POP JUMP JUMPDEST PUSH1 0x0 PUSH2 0x2E30 DUP3 PUSH2 0x2E03 JUMP JUMPDEST SWAP1 POP SWAP2 SWAP1 POP JUMP JUMPDEST PUSH1 0x0 PUSH2 0x2E42 DUP3 PUSH2 0x2E25 JUMP JUMPDEST SWAP1 POP SWAP2 SWAP1 POP JUMP JUMPDEST PUSH2 0x2E52 DUP2 PUSH2 0x2E37 JUMP JUMPDEST DUP3 MSTORE POP POP JUMP JUMPDEST PUSH1 0x0 PUSH1 0x20 DUP3 ADD SWAP1 POP PUSH2 0x2E6D PUSH1 0x0 DUP4 ADD DUP5 PUSH2 0x2E49 JUMP JUMPDEST SWAP3 SWAP2 POP POP JUMP JUMPDEST PUSH2 0x2E7C DUP2 PUSH2 0x2D4D JUMP JUMPDEST DUP3 MSTORE POP POP JUMP JUMPDEST PUSH1 0x0 PUSH1 0x20 DUP3 ADD SWAP1 POP PUSH2 0x2E97 PUSH1 0x0 DUP4 ADD DUP5 PUSH2 0x2E73 JUMP JUMPDEST SWAP3 SWAP2 POP POP JUMP JUMPDEST PUSH1 0x0 DUP1 PUSH1 0x0 PUSH1 0x60 DUP5 DUP7 SUB SLT ISZERO PUSH2 0x2EB6 JUMPI PUSH2 0x2EB5 PUSH2 0x2CE5 JUMP JUMPDEST JUMPDEST PUSH1 0x0 PUSH2 0x2EC4 DUP7 DUP3 DUP8 ADD PUSH2 0x2D38 JUMP JUMPDEST SWAP4 POP POP PUSH1 0x20 PUSH2 0x2ED5 DUP7 DUP3 DUP8 ADD PUSH2 0x2D38 JUMP JUMPDEST SWAP3 POP POP PUSH1 0x40 PUSH2 0x2EE6 DUP7 DUP3 DUP8 ADD PUSH2 0x2D6E JUMP JUMPDEST SWAP2 POP POP SWAP3 POP SWAP3 POP SWAP3 JUMP JUMPDEST PUSH1 0x0 PUSH1 0xFF DUP3 AND SWAP1 POP SWAP2 SWAP1 POP JUMP JUMPDEST PUSH2 0x2F06 DUP2 PUSH2 0x2EF0 JUMP JUMPDEST DUP3 MSTORE POP POP JUMP JUMPDEST PUSH1 0x0 PUSH1 0x20 DUP3 ADD SWAP1 POP PUSH2 0x2F21 PUSH1 0x0 DUP4 ADD DUP5 PUSH2 0x2EFD JUMP JUMPDEST SWAP3 SWAP2 POP POP JUMP JUMPDEST PUSH2 0x2F30 DUP2 PUSH2 0x2D0F JUMP JUMPDEST DUP3 MSTORE POP POP JUMP JUMPDEST PUSH1 0x0 PUSH1 0x20 DUP3 ADD SWAP1 POP PUSH2 0x2F4B PUSH1 0x0 DUP4 ADD DUP5 PUSH2 0x2F27 JUMP JUMPDEST SWAP3 SWAP2 POP POP JUMP JUMPDEST PUSH1 0x0 PUSH2 0x2F5C DUP3 PUSH2 0x2E25 JUMP JUMPDEST SWAP1 POP SWAP2 SWAP1 POP JUMP JUMPDEST PUSH2 0x2F6C DUP2 PUSH2 0x2F51 JUMP JUMPDEST DUP3 MSTORE POP POP JUMP JUMPDEST PUSH1 0x0 PUSH1 0x20 DUP3 ADD SWAP1 POP PUSH2 0x2F87 PUSH1 0x0 DUP4 ADD DUP5 PUSH2 0x2F63 JUMP JUMPDEST SWAP3 SWAP2 POP POP JUMP JUMPDEST PUSH2 0x2F96 DUP2 PUSH2 0x2DC3 JUMP JUMPDEST DUP2 EQ PUSH2 0x2FA1 JUMPI PUSH1 0x0 DUP1 REVERT JUMPDEST POP JUMP JUMPDEST PUSH1 0x0 DUP2 CALLDATALOAD SWAP1 POP PUSH2 0x2FB3 DUP2 PUSH2 0x2F8D JUMP JUMPDEST SWAP3 SWAP2 POP POP JUMP JUMPDEST PUSH1 0x0 PUSH1 0x20 DUP3 DUP5 SUB SLT ISZERO PUSH2 0x2FCF JUMPI PUSH2 0x2FCE PUSH2 0x2CE5 JUMP JUMPDEST JUMPDEST PUSH1 0x0 PUSH2 0x2FDD DUP5 DUP3 DUP6 ADD PUSH2 0x2FA4 JUMP JUMPDEST SWAP2 POP POP SWAP3 SWAP2 POP POP JUMP JUMPDEST PUSH1 0x0 PUSH1 0x20 DUP3 DUP5 SUB SLT ISZERO PUSH2 0x2FFC JUMPI PUSH2 0x2FFB PUSH2 0x2CE5 JUMP JUMPDEST JUMPDEST PUSH1 0x0 PUSH2 0x300A DUP5 DUP3 DUP6 ADD PUSH2 0x2D38 JUMP JUMPDEST SWAP2 POP POP SWAP3 SWAP2 POP POP JUMP JUMPDEST PUSH1 0x0 PUSH2 0x301E DUP3 PUSH2 0x2CEF JUMP JUMPDEST SWAP1 POP SWAP2 SWAP1 POP JUMP JUMPDEST PUSH2 0x302E DUP2 PUSH2 0x3013 JUMP JUMPDEST DUP2 EQ PUSH2 0x3039 JUMPI PUSH1 0x0 DUP1 REVERT JUMPDEST POP JUMP JUMPDEST PUSH1 0x0 DUP2 CALLDATALOAD SWAP1 POP PUSH2 0x304B DUP2 PUSH2 0x3025 JUMP JUMPDEST SWAP3 SWAP2 POP POP JUMP JUMPDEST PUSH1 0x0 PUSH1 0x20 DUP3 DUP5 SUB SLT ISZERO PUSH2 0x3067 JUMPI PUSH2 0x3066 PUSH2 0x2CE5 JUMP JUMPDEST JUMPDEST PUSH1 0x0 PUSH2 0x3075 DUP5 DUP3 DUP6 ADD PUSH2 0x303C JUMP JUMPDEST SWAP2 POP POP SWAP3 SWAP2 POP POP JUMP JUMPDEST PUSH1 0x0 DUP1 PUSH1 0x0 DUP1 PUSH1 0x80 DUP6 DUP8 SUB SLT ISZERO PUSH2 0x3098 JUMPI PUSH2 0x3097 PUSH2 0x2CE5 JUMP JUMPDEST JUMPDEST PUSH1 0x0 PUSH2 0x30A6 DUP8 DUP3 DUP9 ADD PUSH2 0x2D6E JUMP JUMPDEST SWAP5 POP POP PUSH1 0x20 PUSH2 0x30B7 DUP8 DUP3 DUP9 ADD PUSH2 0x2D6E JUMP JUMPDEST SWAP4 POP POP PUSH1 0x40 PUSH2 0x30C8 DUP8 DUP3 DUP9 ADD PUSH2 0x2D6E JUMP JUMPDEST SWAP3 POP POP PUSH1 0x60 PUSH2 0x30D9 DUP8 DUP3 DUP9 ADD PUSH2 0x2D6E JUMP JUMPDEST SWAP2 POP POP SWAP3 SWAP6 SWAP2 SWAP5 POP SWAP3 POP JUMP JUMPDEST PUSH1 0x0 DUP1 REVERT JUMPDEST PUSH1 0x0 DUP1 REVERT JUMPDEST PUSH1 0x0 DUP1 REVERT JUMPDEST PUSH1 0x0 DUP1 DUP4 PUSH1 0x1F DUP5 ADD SLT PUSH2 0x310A JUMPI PUSH2 0x3109 PUSH2 0x30E5 JUMP JUMPDEST JUMPDEST DUP3 CALLDATALOAD SWAP1 POP PUSH8 0xFFFFFFFFFFFFFFFF DUP2 GT ISZERO PUSH2 0x3127 JUMPI PUSH2 0x3126 PUSH2 0x30EA JUMP JUMPDEST JUMPDEST PUSH1 0x20 DUP4 ADD SWAP2 POP DUP4 PUSH1 0x20 DUP3 MUL DUP4 ADD GT ISZERO PUSH2 0x3143 JUMPI PUSH2 0x3142 PUSH2 0x30EF JUMP JUMPDEST JUMPDEST SWAP3 POP SWAP3 SWAP1 POP JUMP JUMPDEST PUSH1 0x0 DUP1 PUSH1 0x0 PUSH1 0x40 DUP5 DUP7 SUB SLT ISZERO PUSH2 0x3163 JUMPI PUSH2 0x3162 PUSH2 0x2CE5 JUMP JUMPDEST JUMPDEST PUSH1 0x0 DUP5 ADD CALLDATALOAD PUSH8 0xFFFFFFFFFFFFFFFF DUP2 GT ISZERO PUSH2 0x3181 JUMPI PUSH2 0x3180 PUSH2 0x2CEA JUMP JUMPDEST JUMPDEST PUSH2 0x318D DUP7 DUP3 DUP8 ADD PUSH2 0x30F4 JUMP JUMPDEST SWAP4 POP SWAP4 POP POP PUSH1 0x20 PUSH2 0x31A0 DUP7 DUP3 DUP8 ADD PUSH2 0x2FA4 JUMP JUMPDEST SWAP2 POP POP SWAP3 POP SWAP3 POP SWAP3 JUMP JUMPDEST PUSH1 0x0 DUP1 PUSH1 0x40 DUP4 DUP6 SUB SLT ISZERO PUSH2 0x31C1 JUMPI PUSH2 0x31C0 PUSH2 0x2CE5 JUMP JUMPDEST JUMPDEST PUSH1 0x0 PUSH2 0x31CF DUP6 DUP3 DUP7 ADD PUSH2 0x2D38 JUMP JUMPDEST SWAP3 POP POP PUSH1 0x20 PUSH2 0x31E0 DUP6 DUP3 DUP7 ADD PUSH2 0x2D38 JUMP JUMPDEST SWAP2 POP POP SWAP3 POP SWAP3 SWAP1 POP JUMP JUMPDEST PUSH32 0x43616C6C6572206973206E6F7420746865206F776E6572000000000000000000 PUSH1 0x0 DUP3 ADD MSTORE POP JUMP JUMPDEST PUSH1 0x0 PUSH2 0x3220 PUSH1 0x17 DUP4 PUSH2 0x2C35 JUMP JUMPDEST SWAP2 POP PUSH2 0x322B DUP3 PUSH2 0x31EA JUMP JUMPDEST PUSH1 0x20 DUP3 ADD SWAP1 POP SWAP2 SWAP1 POP JUMP JUMPDEST PUSH1 0x0 PUSH1 0x20 DUP3 ADD SWAP1 POP DUP2 DUP2 SUB PUSH1 0x0 DUP4 ADD MSTORE PUSH2 0x324F DUP2 PUSH2 0x3213 JUMP JUMPDEST SWAP1 POP SWAP2 SWAP1 POP JUMP JUMPDEST PUSH1 0x0 DUP2 MLOAD SWAP1 POP PUSH2 0x3265 DUP2 PUSH2 0x2D21 JUMP JUMPDEST SWAP3 SWAP2 POP POP JUMP JUMPDEST PUSH1 0x0 PUSH1 0x20 DUP3 DUP5 SUB SLT ISZERO PUSH2 0x3281 JUMPI PUSH2 0x3280 PUSH2 0x2CE5 JUMP JUMPDEST JUMPDEST PUSH1 0x0 PUSH2 0x328F DUP5 DUP3 DUP6 ADD PUSH2 0x3256 JUMP JUMPDEST SWAP2 POP POP SWAP3 SWAP2 POP POP JUMP JUMPDEST PUSH1 0x0 PUSH1 0x40 DUP3 ADD SWAP1 POP PUSH2 0x32AD PUSH1 0x0 DUP4 ADD DUP6 PUSH2 0x2F27 JUMP JUMPDEST PUSH2 0x32BA PUSH1 0x20 DUP4 ADD DUP5 PUSH2 0x2F27 JUMP JUMPDEST SWAP4 SWAP3 POP POP POP JUMP JUMPDEST PUSH32 0x43616C6C6572206973206E6F7420746865206465760000000000000000000000 PUSH1 0x0 DUP3 ADD MSTORE POP JUMP JUMPDEST PUSH1 0x0 PUSH2 0x32F7 PUSH1 0x15 DUP4 PUSH2 0x2C35 JUMP JUMPDEST SWAP2 POP PUSH2 0x3302 DUP3 PUSH2 0x32C1 JUMP JUMPDEST PUSH1 0x20 DUP3 ADD SWAP1 POP SWAP2 SWAP1 POP JUMP JUMPDEST PUSH1 0x0 PUSH1 0x20 DUP3 ADD SWAP1 POP DUP2 DUP2 SUB PUSH1 0x0 DUP4 ADD MSTORE PUSH2 0x3326 DUP2 PUSH2 0x32EA JUMP JUMPDEST SWAP1 POP SWAP2 SWAP1 POP JUMP JUMPDEST PUSH32 0x52656469732063616E6E6F74206265206D6F7265207468616E2031302E000000 PUSH1 0x0 DUP3 ADD MSTORE POP JUMP JUMPDEST PUSH1 0x0 PUSH2 0x3363 PUSH1 0x1D DUP4 PUSH2 0x2C35 JUMP JUMPDEST SWAP2 POP PUSH2 0x336E DUP3 PUSH2 0x332D JUMP JUMPDEST PUSH1 0x20 DUP3 ADD SWAP1 POP SWAP2 SWAP1 POP JUMP JUMPDEST PUSH1 0x0 PUSH1 0x20 DUP3 ADD SWAP1 POP DUP2 DUP2 SUB PUSH1 0x0 DUP4 ADD MSTORE PUSH2 0x3392 DUP2 PUSH2 0x3356 JUMP JUMPDEST SWAP1 POP SWAP2 SWAP1 POP JUMP JUMPDEST PUSH32 0x5461782063616E6E6F74206265206D6F7265207468616E20362E000000000000 PUSH1 0x0 DUP3 ADD MSTORE POP JUMP JUMPDEST PUSH1 0x0 PUSH2 0x33CF PUSH1 0x1A DUP4 PUSH2 0x2C35 JUMP JUMPDEST SWAP2 POP PUSH2 0x33DA DUP3 PUSH2 0x3399 JUMP JUMPDEST PUSH1 0x20 DUP3 ADD SWAP1 POP SWAP2 SWAP1 POP JUMP JUMPDEST PUSH1 0x0 PUSH1 0x20 DUP3 ADD SWAP1 POP DUP2 DUP2 SUB PUSH1 0x0 DUP4 ADD MSTORE PUSH2 0x33FE DUP2 PUSH2 0x33C2 JUMP JUMPDEST SWAP1 POP SWAP2 SWAP1 POP JUMP JUMPDEST PUSH32 0x4E487B7100000000000000000000000000000000000000000000000000000000 PUSH1 0x0 MSTORE PUSH1 0x32 PUSH1 0x4 MSTORE PUSH1 0x24 PUSH1 0x0 REVERT JUMPDEST PUSH32 0x4E487B7100000000000000000000000000000000000000000000000000000000 PUSH1 0x0 MSTORE PUSH1 0x11 PUSH1 0x4 MSTORE PUSH1 0x24 PUSH1 0x0 REVERT JUMPDEST PUSH1 0x0 PUSH2 0x346E DUP3 PUSH2 0x2D4D JUMP JUMPDEST SWAP2 POP PUSH32 0xFFFFFFFFFFFFFFFFFFFFFFFFFFFFFFFFFFFFFFFFFFFFFFFFFFFFFFFFFFFFFFFF DUP3 SUB PUSH2 0x34A0 JUMPI PUSH2 0x349F PUSH2 0x3434 JUMP JUMPDEST JUMPDEST PUSH1 0x1 DUP3 ADD SWAP1 POP SWAP2 SWAP1 POP JUMP JUMPDEST PUSH1 0x0 PUSH1 0x40 DUP3 ADD SWAP1 POP PUSH2 0x34C0 PUSH1 0x0 DUP4 ADD DUP6 PUSH2 0x2F27 JUMP JUMPDEST PUSH2 0x34CD PUSH1 0x20 DUP4 ADD DUP5 PUSH2 0x2E73 JUMP JUMPDEST SWAP4 SWAP3 POP POP POP JUMP JUMPDEST PUSH1 0x0 DUP2 MLOAD SWAP1 POP PUSH2 0x34E3 DUP2 PUSH2 0x2F8D JUMP JUMPDEST SWAP3 SWAP2 POP POP JUMP JUMPDEST PUSH1 0x0 PUSH1 0x20 DUP3 DUP5 SUB SLT ISZERO PUSH2 0x34FF JUMPI PUSH2 0x34FE PUSH2 0x2CE5 JUMP JUMPDEST JUMPDEST PUSH1 0x0 PUSH2 0x350D DUP5 DUP3 DUP6 ADD PUSH2 0x34D4 JUMP JUMPDEST SWAP2 POP POP SWAP3 SWAP2 POP POP JUMP JUMPDEST PUSH32 0x45524332303A20617070726F76652066726F6D20746865207A65726F20616464 PUSH1 0x0 DUP3 ADD MSTORE PUSH32 0x7265737300000000000000000000000000000000000000000000000000000000 PUSH1 0x20 DUP3 ADD MSTORE POP JUMP JUMPDEST PUSH1 0x0 PUSH2 0x3572 PUSH1 0x24 DUP4 PUSH2 0x2C35 JUMP JUMPDEST SWAP2 POP PUSH2 0x357D DUP3 PUSH2 0x3516 JUMP JUMPDEST PUSH1 0x40 DUP3 ADD SWAP1 POP SWAP2 SWAP1 POP JUMP JUMPDEST PUSH1 0x0 PUSH1 0x20 DUP3 ADD SWAP1 POP DUP2 DUP2 SUB PUSH1 0x0 DUP4 ADD MSTORE PUSH2 0x35A1 DUP2 PUSH2 0x3565 JUMP JUMPDEST SWAP1 POP SWAP2 SWAP1 POP JUMP JUMPDEST PUSH32 0x45524332303A20617070726F766520746F20746865207A65726F206164647265 PUSH1 0x0 DUP3 ADD MSTORE PUSH32 0x7373000000000000000000000000000000000000000000000000000000000000 PUSH1 0x20 DUP3 ADD MSTORE POP JUMP JUMPDEST PUSH1 0x0 PUSH2 0x3604 PUSH1 0x22 DUP4 PUSH2 0x2C35 JUMP JUMPDEST SWAP2 POP PUSH2 0x360F DUP3 PUSH2 0x35A8 JUMP JUMPDEST PUSH1 0x40 DUP3 ADD SWAP1 POP SWAP2 SWAP1 POP JUMP JUMPDEST PUSH1 0x0 PUSH1 0x20 DUP3 ADD SWAP1 POP DUP2 DUP2 SUB PUSH1 0x0 DUP4 ADD MSTORE PUSH2 0x3633 DUP2 PUSH2 0x35F7 JUMP JUMPDEST SWAP1 POP SWAP2 SWAP1 POP JUMP JUMPDEST PUSH32 0x45524332303A207472616E736665722066726F6D20746865207A65726F206164 PUSH1 0x0 DUP3 ADD MSTORE PUSH32 0x6472657373000000000000000000000000000000000000000000000000000000 PUSH1 0x20 DUP3 ADD MSTORE POP JUMP JUMPDEST PUSH1 0x0 PUSH2 0x3696 PUSH1 0x25 DUP4 PUSH2 0x2C35 JUMP JUMPDEST SWAP2 POP PUSH2 0x36A1 DUP3 PUSH2 0x363A JUMP JUMPDEST PUSH1 0x40 DUP3 ADD SWAP1 POP SWAP2 SWAP1 POP JUMP JUMPDEST PUSH1 0x0 PUSH1 0x20 DUP3 ADD SWAP1 POP DUP2 DUP2 SUB PUSH1 0x0 DUP4 ADD MSTORE PUSH2 0x36C5 DUP2 PUSH2 0x3689 JUMP JUMPDEST SWAP1 POP SWAP2 SWAP1 POP JUMP JUMPDEST PUSH32 0x45524332303A207472616E7366657220746F20746865207A65726F2061646472 PUSH1 0x0 DUP3 ADD MSTORE PUSH32 0x6573730000000000000000000000000000000000000000000000000000000000 PUSH1 0x20 DUP3 ADD MSTORE POP JUMP JUMPDEST PUSH1 0x0 PUSH2 0x3728 PUSH1 0x23 DUP4 PUSH2 0x2C35 JUMP JUMPDEST SWAP2 POP PUSH2 0x3733 DUP3 PUSH2 0x36CC JUMP JUMPDEST PUSH1 0x40 DUP3 ADD SWAP1 POP SWAP2 SWAP1 POP JUMP JUMPDEST PUSH1 0x0 PUSH1 0x20 DUP3 ADD SWAP1 POP DUP2 DUP2 SUB PUSH1 0x0 DUP4 ADD MSTORE PUSH2 0x3757 DUP2 PUSH2 0x371B JUMP JUMPDEST SWAP1 POP SWAP2 SWAP1 POP JUMP JUMPDEST PUSH32 0x5472616E7366657220616D6F756E74206D757374206265206772656174657220 PUSH1 0x0 DUP3 ADD MSTORE PUSH32 0x7468616E207A65726F0000000000000000000000000000000000000000000000 PUSH1 0x20 DUP3 ADD MSTORE POP JUMP JUMPDEST PUSH1 0x0 PUSH2 0x37BA PUSH1 0x29 DUP4 PUSH2 0x2C35 JUMP JUMPDEST SWAP2 POP PUSH2 0x37C5 DUP3 PUSH2 0x375E JUMP JUMPDEST PUSH1 0x40 DUP3 ADD SWAP1 POP SWAP2 SWAP1 POP JUMP JUMPDEST PUSH1 0x0 PUSH1 0x20 DUP3 ADD SWAP1 POP DUP2 DUP2 SUB PUSH1 0x0 DUP4 ADD MSTORE PUSH2 0x37E9 DUP2 PUSH2 0x37AD JUMP JUMPDEST SWAP1 POP SWAP2 SWAP1 POP JUMP JUMPDEST PUSH1 0x0 PUSH2 0x37FB DUP3 PUSH2 0x2D4D JUMP JUMPDEST SWAP2 POP PUSH2 0x3806 DUP4 PUSH2 0x2D4D JUMP JUMPDEST SWAP3 POP DUP3 DUP3 LT ISZERO PUSH2 0x3819 JUMPI PUSH2 0x3818 PUSH2 0x3434 JUMP JUMPDEST JUMPDEST DUP3 DUP3 SUB SWAP1 POP SWAP3 SWAP2 POP POP JUMP JUMPDEST PUSH32 0x416D6F756E74206D757374206265206C657373207468616E20746F74616C2072 PUSH1 0x0 DUP3 ADD MSTORE PUSH32 0x65666C656374696F6E7300000000000000000000000000000000000000000000 PUSH1 0x20 DUP3 ADD MSTORE POP JUMP JUMPDEST PUSH1 0x0 PUSH2 0x3880 PUSH1 0x2A DUP4 PUSH2 0x2C35 JUMP JUMPDEST SWAP2 POP PUSH2 0x388B DUP3 PUSH2 0x3824 JUMP JUMPDEST PUSH1 0x40 DUP3 ADD SWAP1 POP SWAP2 SWAP1 POP JUMP JUMPDEST PUSH1 0x0 PUSH1 0x20 DUP3 ADD SWAP1 POP DUP2 DUP2 SUB PUSH1 0x0 DUP4 ADD MSTORE PUSH2 0x38AF DUP2 PUSH2 0x3873 JUMP JUMPDEST SWAP1 POP SWAP2 SWAP1 POP JUMP JUMPDEST PUSH32 0x4E487B7100000000000000000000000000000000000000000000000000000000 PUSH1 0x0 MSTORE PUSH1 0x41 PUSH1 0x4 MSTORE PUSH1 0x24 PUSH1 0x0 REVERT JUMPDEST PUSH1 0x0 DUP2 SWAP1 POP SWAP2 SWAP1 POP JUMP JUMPDEST PUSH1 0x0 PUSH2 0x390A PUSH2 0x3905 PUSH2 0x3900 DUP5 PUSH2 0x38E5 JUMP JUMPDEST PUSH2 0x2DF9 JUMP JUMPDEST PUSH2 0x2D4D JUMP JUMPDEST SWAP1 POP SWAP2 SWAP1 POP JUMP JUMPDEST PUSH2 0x391A DUP2 PUSH2 0x38EF JUMP JUMPDEST DUP3 MSTORE POP POP JUMP JUMPDEST PUSH1 0x0 DUP2 MLOAD SWAP1 POP SWAP2 SWAP1 POP JUMP JUMPDEST PUSH1 0x0 DUP3 DUP3 MSTORE PUSH1 0x20 DUP3 ADD SWAP1 POP SWAP3 SWAP2 POP POP JUMP JUMPDEST PUSH1 0x0 DUP2 SWAP1 POP PUSH1 0x20 DUP3 ADD SWAP1 POP SWAP2 SWAP1 POP JUMP JUMPDEST PUSH2 0x3955 DUP2 PUSH2 0x2D0F JUMP JUMPDEST DUP3 MSTORE POP POP JUMP JUMPDEST PUSH1 0x0 PUSH2 0x3967 DUP4 DUP4 PUSH2 0x394C JUMP JUMPDEST PUSH1 0x20 DUP4 ADD SWAP1 POP SWAP3 SWAP2 POP POP JUMP JUMPDEST PUSH1 0x0 PUSH1 0x20 DUP3 ADD SWAP1 POP SWAP2 SWAP1 POP JUMP JUMPDEST PUSH1 0x0 PUSH2 0x398B DUP3 PUSH2 0x3920 JUMP JUMPDEST PUSH2 0x3995 DUP2 DUP6 PUSH2 0x392B JUMP JUMPDEST SWAP4 POP PUSH2 0x39A0 DUP4 PUSH2 0x393C JUMP JUMPDEST DUP1 PUSH1 0x0 JUMPDEST DUP4 DUP2 LT ISZERO PUSH2 0x39D1 JUMPI DUP2 MLOAD PUSH2 0x39B8 DUP9 DUP3 PUSH2 0x395B JUMP JUMPDEST SWAP8 POP PUSH2 0x39C3 DUP4 PUSH2 0x3973 JUMP JUMPDEST SWAP3 POP POP PUSH1 0x1 DUP2 ADD SWAP1 POP PUSH2 0x39A4 JUMP JUMPDEST POP DUP6 SWAP4 POP POP POP POP SWAP3 SWAP2 POP POP JUMP JUMPDEST PUSH1 0x0 PUSH1 0xA0 DUP3 ADD SWAP1 POP PUSH2 0x39F3 PUSH1 0x0 DUP4 ADD DUP9 PUSH2 0x2E73 JUMP JUMPDEST PUSH2 0x3A00 PUSH1 0x20 DUP4 ADD DUP8 PUSH2 0x3911 JUMP JUMPDEST DUP2 DUP2 SUB PUSH1 0x40 DUP4 ADD MSTORE PUSH2 0x3A12 DUP2 DUP7 PUSH2 0x3980 JUMP JUMPDEST SWAP1 POP PUSH2 0x3A21 PUSH1 0x60 DUP4 ADD DUP6 PUSH2 0x2F27 JUMP JUMPDEST PUSH2 0x3A2E PUSH1 0x80 DUP4 ADD DUP5 PUSH2 0x2E73 JUMP JUMPDEST SWAP7 SWAP6 POP POP POP POP POP POP JUMP JUMPDEST PUSH32 0x4E487B7100000000000000000000000000000000000000000000000000000000 PUSH1 0x0 MSTORE PUSH1 0x12 PUSH1 0x4 MSTORE PUSH1 0x24 PUSH1 0x0 REVERT JUMPDEST PUSH1 0x0 PUSH2 0x3A72 DUP3 PUSH2 0x2D4D JUMP JUMPDEST SWAP2 POP PUSH2 0x3A7D DUP4 PUSH2 0x2D4D JUMP JUMPDEST SWAP3 POP DUP3 PUSH2 0x3A8D JUMPI PUSH2 0x3A8C PUSH2 0x3A38 JUMP JUMPDEST JUMPDEST DUP3 DUP3 DIV SWAP1 POP SWAP3 SWAP2 POP POP JUMP JUMPDEST PUSH1 0x0 PUSH2 0x3AA3 DUP3 PUSH2 0x2D4D JUMP JUMPDEST SWAP2 POP PUSH2 0x3AAE DUP4 PUSH2 0x2D4D JUMP JUMPDEST SWAP3 POP DUP3 PUSH32 0xFFFFFFFFFFFFFFFFFFFFFFFFFFFFFFFFFFFFFFFFFFFFFFFFFFFFFFFFFFFFFFFF SUB DUP3 GT ISZERO PUSH2 0x3AE3 JUMPI PUSH2 0x3AE2 PUSH2 0x3434 JUMP JUMPDEST JUMPDEST DUP3 DUP3 ADD SWAP1 POP SWAP3 SWAP2 POP POP JUMP JUMPDEST PUSH32 0x536166654D6174683A206164646974696F6E206F766572666C6F770000000000 PUSH1 0x0 DUP3 ADD MSTORE POP JUMP JUMPDEST PUSH1 0x0 PUSH2 0x3B24 PUSH1 0x1B DUP4 PUSH2 0x2C35 JUMP JUMPDEST SWAP2 POP PUSH2 0x3B2F DUP3 PUSH2 0x3AEE JUMP JUMPDEST PUSH1 0x20 DUP3 ADD SWAP1 POP SWAP2 SWAP1 POP JUMP JUMPDEST PUSH1 0x0 PUSH1 0x20 DUP3 ADD SWAP1 POP DUP2 DUP2 SUB PUSH1 0x0 DUP4 ADD MSTORE PUSH2 0x3B53 DUP2 PUSH2 0x3B17 JUMP JUMPDEST SWAP1 POP SWAP2 SWAP1 POP JUMP JUMPDEST PUSH1 0x0 PUSH2 0x3B65 DUP3 PUSH2 0x2D4D JUMP JUMPDEST SWAP2 POP PUSH2 0x3B70 DUP4 PUSH2 0x2D4D JUMP JUMPDEST SWAP3 POP DUP2 PUSH32 0xFFFFFFFFFFFFFFFFFFFFFFFFFFFFFFFFFFFFFFFFFFFFFFFFFFFFFFFFFFFFFFFF DIV DUP4 GT DUP3 ISZERO ISZERO AND ISZERO PUSH2 0x3BA9 JUMPI PUSH2 0x3BA8 PUSH2 0x3434 JUMP JUMPDEST JUMPDEST DUP3 DUP3 MUL SWAP1 POP SWAP3 SWAP2 POP POP JUMP JUMPDEST PUSH32 0x536166654D6174683A206D756C7469706C69636174696F6E206F766572666C6F PUSH1 0x0 DUP3 ADD MSTORE PUSH32 0x7700000000000000000000000000000000000000000000000000000000000000 PUSH1 0x20 DUP3 ADD MSTORE POP JUMP JUMPDEST PUSH1 0x0 PUSH2 0x3C10 PUSH1 0x21 DUP4 PUSH2 0x2C35 JUMP JUMPDEST SWAP2 POP PUSH2 0x3C1B DUP3 PUSH2 0x3BB4 JUMP JUMPDEST PUSH1 0x40 DUP3 ADD SWAP1 POP SWAP2 SWAP1 POP JUMP JUMPDEST PUSH1 0x0 PUSH1 0x20 DUP3 ADD SWAP1 POP DUP2 DUP2 SUB PUSH1 0x0 DUP4 ADD MSTORE PUSH2 0x3C3F DUP2 PUSH2 0x3C03 JUMP JUMPDEST SWAP1 POP SWAP2 SWAP1 POP JUMP INVALID GASLIMIT MSTORE NUMBER ORIGIN ADDRESS GASPRICE KECCAK256 PUSH21 0x72616E7366657220616D6F756E7420657863656564 PUSH20 0x20616C6C6F77616E6365A2646970667358221220 0xAD LOG3 0xA5 0xAB 0xBB EXTCODECOPY 0xC4 0xAF OR 0xED MOD 0x24 0xC8 0xE2 SWAP6 0xEB 0xCD SLT 0xBB CHAINID 0xE8 0xEA PUSH18 0xA26B333EE7653FDB7264736F6C634300080D STOP CALLER "
				},
				"gasEstimates": {
					"creation": {
						"codeDepositCost": "3104800",
						"executionCost": "infinite",
						"totalCost": "infinite"
					},
					"external": {
						"allowance(address,address)": "infinite",
						"approve(address,uint256)": "infinite",
						"balanceOf(address)": "infinite",
						"decimals()": "366",
						"excludeMultipleAccountsFromFees(address[],bool)": "infinite",
						"manualsend()": "infinite",
						"manualswap()": "infinite",
						"name()": "infinite",
						"owner()": "2589",
						"renounceOwnership()": "30314",
						"rescueForeignTokens(address,address,uint256)": "infinite",
						"setFee(uint256,uint256,uint256,uint256)": "infinite",
						"setNewDevAddress(address)": "infinite",
						"setNewMarketingAddress(address)": "infinite",
						"settingPair()": "infinite",
						"symbol()": "infinite",
						"toggleSwap(bool)": "infinite",
						"totalSupply()": "449",
						"transfer(address,uint256)": "infinite",
						"transferFrom(address,address,uint256)": "infinite",
						"transferOwnership(address)": "30734",
						"uniswapV2Factory()": "infinite",
						"uniswapV2Pair()": "2559",
						"uniswapV2Router()": "infinite"
					},
					"internal": {
						"_approve(address,address,uint256)": "infinite",
						"_getCurrentSupply()": "infinite",
						"_getRValues(uint256,uint256,uint256,uint256)": "infinite",
						"_getRate()": "infinite",
						"_getTValues(uint256,uint256,uint256)": "infinite",
						"_getValues(uint256)": "infinite",
						"_reflectFee(uint256,uint256)": "infinite",
						"_takeTeam(uint256)": "infinite",
						"_tokenTransfer(address,address,uint256)": "infinite",
						"_transfer(address,address,uint256)": "infinite",
						"_transferStandard(address,address,uint256)": "infinite",
						"sendETHToFee(uint256)": "infinite",
						"swapTokensForEth(uint256)": "infinite",
						"tokenFromReflection(uint256)": "infinite"
					}
				},
				"methodIdentifiers": {
					"allowance(address,address)": "dd62ed3e",
					"approve(address,uint256)": "095ea7b3",
					"balanceOf(address)": "70a08231",
					"decimals()": "313ce567",
					"excludeMultipleAccountsFromFees(address[],bool)": "c492f046",
					"manualsend()": "6fc3eaec",
					"manualswap()": "c3c8cd80",
					"name()": "06fdde03",
					"owner()": "8da5cb5b",
					"renounceOwnership()": "715018a6",
					"rescueForeignTokens(address,address,uint256)": "e293d316",
					"setFee(uint256,uint256,uint256,uint256)": "a2a957bb",
					"setNewDevAddress(address)": "aad5c023",
					"setNewMarketingAddress(address)": "758dbe03",
					"settingPair()": "05a272ea",
					"symbol()": "95d89b41",
					"toggleSwap(bool)": "6d8aa8f8",
					"totalSupply()": "18160ddd",
					"transfer(address,uint256)": "a9059cbb",
					"transferFrom(address,address,uint256)": "23b872dd",
					"transferOwnership(address)": "f2fde38b",
					"uniswapV2Factory()": "59d0f713",
					"uniswapV2Pair()": "49bd5a5e",
					"uniswapV2Router()": "1694505e"
				}
			},
			"storageLayout": {
				"storage": [
					{
						"astId": 305,
						"contract": "contracts/Pool/Pool.sol:World_Step",
						"label": "_owner",
						"offset": 0,
						"slot": "0",
						"type": "t_address"
					},
					{
						"astId": 307,
						"contract": "contracts/Pool/Pool.sol:World_Step",
						"label": "_previousOwner",
						"offset": 0,
						"slot": "1",
						"type": "t_address"
					},
					{
						"astId": 406,
						"contract": "contracts/Pool/Pool.sol:World_Step",
						"label": "_rOwned",
						"offset": 0,
						"slot": "2",
						"type": "t_mapping(t_address,t_uint256)"
					},
					{
						"astId": 410,
						"contract": "contracts/Pool/Pool.sol:World_Step",
						"label": "_tOwned",
						"offset": 0,
						"slot": "3",
						"type": "t_mapping(t_address,t_uint256)"
					},
					{
						"astId": 416,
						"contract": "contracts/Pool/Pool.sol:World_Step",
						"label": "_allowances",
						"offset": 0,
						"slot": "4",
						"type": "t_mapping(t_address,t_mapping(t_address,t_uint256))"
					},
					{
						"astId": 420,
						"contract": "contracts/Pool/Pool.sol:World_Step",
						"label": "_isExcludedFromFee",
						"offset": 0,
						"slot": "5",
						"type": "t_mapping(t_address,t_bool)"
					},
					{
						"astId": 451,
						"contract": "contracts/Pool/Pool.sol:World_Step",
						"label": "_rTotal",
						"offset": 0,
						"slot": "6",
						"type": "t_uint256"
					},
					{
						"astId": 453,
						"contract": "contracts/Pool/Pool.sol:World_Step",
						"label": "_tFeeTotal",
						"offset": 0,
						"slot": "7",
						"type": "t_uint256"
					},
					{
						"astId": 456,
						"contract": "contracts/Pool/Pool.sol:World_Step",
						"label": "_redisFeeOnBuy",
						"offset": 0,
						"slot": "8",
						"type": "t_uint256"
					},
					{
						"astId": 459,
						"contract": "contracts/Pool/Pool.sol:World_Step",
						"label": "_taxFeeOnBuy",
						"offset": 0,
						"slot": "9",
						"type": "t_uint256"
					},
					{
						"astId": 462,
						"contract": "contracts/Pool/Pool.sol:World_Step",
						"label": "_redisFeeOnSell",
						"offset": 0,
						"slot": "10",
						"type": "t_uint256"
					},
					{
						"astId": 465,
						"contract": "contracts/Pool/Pool.sol:World_Step",
						"label": "_taxFeeOnSell",
						"offset": 0,
						"slot": "11",
						"type": "t_uint256"
					},
					{
						"astId": 467,
						"contract": "contracts/Pool/Pool.sol:World_Step",
						"label": "_redisFee",
						"offset": 0,
						"slot": "12",
						"type": "t_uint256"
					},
					{
						"astId": 469,
						"contract": "contracts/Pool/Pool.sol:World_Step",
						"label": "_taxFee",
						"offset": 0,
						"slot": "13",
						"type": "t_uint256"
					},
					{
						"astId": 484,
						"contract": "contracts/Pool/Pool.sol:World_Step",
						"label": "_developmentAddress",
						"offset": 0,
						"slot": "14",
						"type": "t_address_payable"
					},
					{
						"astId": 490,
						"contract": "contracts/Pool/Pool.sol:World_Step",
						"label": "_marketingAddress",
						"offset": 0,
						"slot": "15",
						"type": "t_address_payable"
					},
					{
						"astId": 493,
						"contract": "contracts/Pool/Pool.sol:World_Step",
						"label": "uniswapV2Router",
						"offset": 0,
						"slot": "16",
						"type": "t_contract(IUniswapV2Router02)145"
					},
					{
						"astId": 496,
						"contract": "contracts/Pool/Pool.sol:World_Step",
						"label": "uniswapV2Factory",
						"offset": 0,
						"slot": "17",
						"type": "t_contract(IUniswapV2Factory)99"
					},
					{
						"astId": 498,
						"contract": "contracts/Pool/Pool.sol:World_Step",
						"label": "uniswapV2Pair",
						"offset": 0,
						"slot": "18",
						"type": "t_address"
					},
					{
						"astId": 501,
						"contract": "contracts/Pool/Pool.sol:World_Step",
						"label": "inSwap",
						"offset": 20,
						"slot": "18",
						"type": "t_bool"
					},
					{
						"astId": 504,
						"contract": "contracts/Pool/Pool.sol:World_Step",
						"label": "swapEnabled",
						"offset": 21,
						"slot": "18",
						"type": "t_bool"
					}
				],
				"types": {
					"t_address": {
						"encoding": "inplace",
						"label": "address",
						"numberOfBytes": "20"
					},
					"t_address_payable": {
						"encoding": "inplace",
						"label": "address payable",
						"numberOfBytes": "20"
					},
					"t_bool": {
						"encoding": "inplace",
						"label": "bool",
						"numberOfBytes": "1"
					},
					"t_contract(IUniswapV2Factory)99": {
						"encoding": "inplace",
						"label": "contract IUniswapV2Factory",
						"numberOfBytes": "20"
					},
					"t_contract(IUniswapV2Router02)145": {
						"encoding": "inplace",
						"label": "contract IUniswapV2Router02",
						"numberOfBytes": "20"
					},
					"t_mapping(t_address,t_bool)": {
						"encoding": "mapping",
						"key": "t_address",
						"label": "mapping(address => bool)",
						"numberOfBytes": "32",
						"value": "t_bool"
					},
					"t_mapping(t_address,t_mapping(t_address,t_uint256))": {
						"encoding": "mapping",
						"key": "t_address",
						"label": "mapping(address => mapping(address => uint256))",
						"numberOfBytes": "32",
						"value": "t_mapping(t_address,t_uint256)"
					},
					"t_mapping(t_address,t_uint256)": {
						"encoding": "mapping",
						"key": "t_address",
						"label": "mapping(address => uint256)",
						"numberOfBytes": "32",
						"value": "t_uint256"
					},
					"t_uint256": {
						"encoding": "inplace",
						"label": "uint256",
						"numberOfBytes": "32"
					}
				}
			},
			"userdoc": {
				"kind": "user",
				"methods": {},
				"version": 1
			}
		}
	}
}