{
	"contracts/Pool/Pool.sol": {
		"World_Step": {
			"abi": [
				{
					"inputs": [],
					"stateMutability": "nonpayable",
					"type": "constructor"
				},
				{
					"anonymous": false,
					"inputs": [
						{
							"indexed": true,
							"internalType": "address",
							"name": "owner",
							"type": "address"
						},
						{
							"indexed": true,
							"internalType": "address",
							"name": "spender",
							"type": "address"
						},
						{
							"indexed": false,
							"internalType": "uint256",
							"name": "value",
							"type": "uint256"
						}
					],
					"name": "Approval",
					"type": "event"
				},
				{
					"anonymous": false,
					"inputs": [
						{
							"indexed": true,
							"internalType": "address",
							"name": "previousOwner",
							"type": "address"
						},
						{
							"indexed": true,
							"internalType": "address",
							"name": "newOwner",
							"type": "address"
						}
					],
					"name": "OwnershipTransferred",
					"type": "event"
				},
				{
					"anonymous": false,
					"inputs": [
						{
							"indexed": true,
							"internalType": "address",
							"name": "from",
							"type": "address"
						},
						{
							"indexed": true,
							"internalType": "address",
							"name": "to",
							"type": "address"
						},
						{
							"indexed": false,
							"internalType": "uint256",
							"name": "value",
							"type": "uint256"
						}
					],
					"name": "Transfer",
					"type": "event"
				},
				{
					"anonymous": false,
					"inputs": [
						{
							"indexed": true,
							"internalType": "address",
							"name": "previous",
							"type": "address"
						},
						{
							"indexed": true,
							"internalType": "address",
							"name": "adr",
							"type": "address"
						}
					],
					"name": "devAddressUpdated",
					"type": "event"
				},
				{
					"anonymous": false,
					"inputs": [
						{
							"indexed": true,
							"internalType": "address",
							"name": "previous",
							"type": "address"
						},
						{
							"indexed": true,
							"internalType": "address",
							"name": "adr",
							"type": "address"
						}
					],
					"name": "marketingAddressUpdated",
					"type": "event"
				},
				{
					"anonymous": false,
					"inputs": [
						{
							"indexed": true,
							"internalType": "address",
							"name": "token",
							"type": "address"
						},
						{
							"indexed": true,
							"internalType": "address",
							"name": "to",
							"type": "address"
						},
						{
							"indexed": false,
							"internalType": "uint256",
							"name": "amount",
							"type": "uint256"
						}
					],
					"name": "tokensRescued",
					"type": "event"
				},
				{
					"inputs": [],
					"name": "_factory",
					"outputs": [
						{
							"internalType": "address",
							"name": "",
							"type": "address"
						}
					],
					"stateMutability": "view",
					"type": "function"
				},
				{
					"inputs": [
						{
							"internalType": "address",
							"name": "owner",
							"type": "address"
						},
						{
							"internalType": "address",
							"name": "spender",
							"type": "address"
						}
					],
					"name": "allowance",
					"outputs": [
						{
							"internalType": "uint256",
							"name": "",
							"type": "uint256"
						}
					],
					"stateMutability": "view",
					"type": "function"
				},
				{
					"inputs": [
						{
							"internalType": "address",
							"name": "spender",
							"type": "address"
						},
						{
							"internalType": "uint256",
							"name": "amount",
							"type": "uint256"
						}
					],
					"name": "approve",
					"outputs": [
						{
							"internalType": "bool",
							"name": "",
							"type": "bool"
						}
					],
					"stateMutability": "nonpayable",
					"type": "function"
				},
				{
					"inputs": [
						{
							"internalType": "address",
							"name": "account",
							"type": "address"
						}
					],
					"name": "balanceOf",
					"outputs": [
						{
							"internalType": "uint256",
							"name": "",
							"type": "uint256"
						}
					],
					"stateMutability": "view",
					"type": "function"
				},
				{
					"inputs": [],
					"name": "decimals",
					"outputs": [
						{
							"internalType": "uint8",
							"name": "",
							"type": "uint8"
						}
					],
					"stateMutability": "pure",
					"type": "function"
				},
				{
					"inputs": [
						{
							"internalType": "address[]",
							"name": "accounts",
							"type": "address[]"
						},
						{
							"internalType": "bool",
							"name": "excluded",
							"type": "bool"
						}
					],
					"name": "excludeMultipleAccountsFromFees",
					"outputs": [],
					"stateMutability": "nonpayable",
					"type": "function"
				},
				{
					"inputs": [],
					"name": "manualsend",
					"outputs": [],
					"stateMutability": "nonpayable",
					"type": "function"
				},
				{
					"inputs": [],
					"name": "manualswap",
					"outputs": [],
					"stateMutability": "nonpayable",
					"type": "function"
				},
				{
					"inputs": [],
					"name": "name",
					"outputs": [
						{
							"internalType": "string",
							"name": "",
							"type": "string"
						}
					],
					"stateMutability": "pure",
					"type": "function"
				},
				{
					"inputs": [],
					"name": "owner",
					"outputs": [
						{
							"internalType": "address",
							"name": "",
							"type": "address"
						}
					],
					"stateMutability": "view",
					"type": "function"
				},
				{
					"inputs": [],
					"name": "renounceOwnership",
					"outputs": [],
					"stateMutability": "nonpayable",
					"type": "function"
				},
				{
					"inputs": [
						{
							"internalType": "address",
							"name": "_tokenAddr",
							"type": "address"
						},
						{
							"internalType": "address",
							"name": "_to",
							"type": "address"
						},
						{
							"internalType": "uint256",
							"name": "_amount",
							"type": "uint256"
						}
					],
					"name": "rescueForeignTokens",
					"outputs": [],
					"stateMutability": "nonpayable",
					"type": "function"
				},
				{
					"inputs": [
						{
							"internalType": "uint256",
							"name": "redisFeeOnBuy",
							"type": "uint256"
						},
						{
							"internalType": "uint256",
							"name": "redisFeeOnSell",
							"type": "uint256"
						},
						{
							"internalType": "uint256",
							"name": "taxFeeOnBuy",
							"type": "uint256"
						},
						{
							"internalType": "uint256",
							"name": "taxFeeOnSell",
							"type": "uint256"
						}
					],
					"name": "setFee",
					"outputs": [],
					"stateMutability": "nonpayable",
					"type": "function"
				},
				{
					"inputs": [
						{
							"internalType": "address payable",
							"name": "dev",
							"type": "address"
						}
					],
					"name": "setNewDevAddress",
					"outputs": [],
					"stateMutability": "nonpayable",
					"type": "function"
				},
				{
					"inputs": [
						{
							"internalType": "address payable",
							"name": "markt",
							"type": "address"
						}
					],
					"name": "setNewMarketingAddress",
					"outputs": [],
					"stateMutability": "nonpayable",
					"type": "function"
				},
				{
					"inputs": [],
					"name": "symbol",
					"outputs": [
						{
							"internalType": "string",
							"name": "",
							"type": "string"
						}
					],
					"stateMutability": "pure",
					"type": "function"
				},
				{
					"inputs": [
						{
							"internalType": "bool",
							"name": "_swapEnabled",
							"type": "bool"
						}
					],
					"name": "toggleSwap",
					"outputs": [],
					"stateMutability": "nonpayable",
					"type": "function"
				},
				{
					"inputs": [],
					"name": "totalSupply",
					"outputs": [
						{
							"internalType": "uint256",
							"name": "",
							"type": "uint256"
						}
					],
					"stateMutability": "pure",
					"type": "function"
				},
				{
					"inputs": [
						{
							"internalType": "address",
							"name": "recipient",
							"type": "address"
						},
						{
							"internalType": "uint256",
							"name": "amount",
							"type": "uint256"
						}
					],
					"name": "transfer",
					"outputs": [
						{
							"internalType": "bool",
							"name": "",
							"type": "bool"
						}
					],
					"stateMutability": "nonpayable",
					"type": "function"
				},
				{
					"inputs": [
						{
							"internalType": "address",
							"name": "sender",
							"type": "address"
						},
						{
							"internalType": "address",
							"name": "recipient",
							"type": "address"
						},
						{
							"internalType": "uint256",
							"name": "amount",
							"type": "uint256"
						}
					],
					"name": "transferFrom",
					"outputs": [
						{
							"internalType": "bool",
							"name": "",
							"type": "bool"
						}
					],
					"stateMutability": "nonpayable",
					"type": "function"
				},
				{
					"inputs": [
						{
							"internalType": "address",
							"name": "newOwner",
							"type": "address"
						}
					],
					"name": "transferOwnership",
					"outputs": [],
					"stateMutability": "nonpayable",
					"type": "function"
				},
				{
					"inputs": [],
					"name": "uniswapV2Pair",
					"outputs": [
						{
							"internalType": "address",
							"name": "",
							"type": "address"
						}
					],
					"stateMutability": "view",
					"type": "function"
				},
				{
					"inputs": [],
					"name": "uniswapV2Router",
					"outputs": [
						{
							"internalType": "contract IUniswapV2Router02",
							"name": "",
							"type": "address"
						}
					],
					"stateMutability": "view",
					"type": "function"
				},
				{
					"stateMutability": "payable",
					"type": "receive"
				}
			],
			"devdoc": {
				"kind": "dev",
				"methods": {},
				"version": 1
			},
			"evm": {
				"assembly": "    /* \"contracts/Pool/Pool.sol\":3787:15084  contract World_Step is Context, IERC20, Ownable {... */\n  mstore(0x40, 0x80)\n    /* \"contracts/Pool/Pool.sol\":4200:4213  1*10**9*10**9 */\n  0x0de0b6b3a7640000\n    /* \"contracts/Pool/Pool.sol\":4147:4159  1*10**9*10*9 */\n  0x14f46b0400\n    /* \"contracts/Pool/Pool.sol\":4253:4266  MAX % _tTotal */\n  tag_1\n  swap2\n  swap1\n  tag_2\n  jump\t// in\ntag_1:\n    /* \"contracts/Pool/Pool.sol\":4147:4159  1*10**9*10*9 */\n  0x14f46b0400\n    /* \"contracts/Pool/Pool.sol\":4246:4267  MAX - (MAX % _tTotal) */\n  tag_3\n  swap2\n  swap1\n  tag_4\n  jump\t// in\ntag_3:\n    /* \"contracts/Pool/Pool.sol\":4219:4268  uint256 private _rTotal = (MAX - (MAX % _tTotal)) */\n  0x06\n  sstore\n    /* \"contracts/Pool/Pool.sol\":4344:4345  1 */\n  0x01\n    /* \"contracts/Pool/Pool.sol\":4311:4345  uint256 private _redisFeeOnBuy = 1 */\n  0x08\n  sstore\n    /* \"contracts/Pool/Pool.sol\":4382:4383  4 */\n  0x04\n    /* \"contracts/Pool/Pool.sol\":4351:4383  uint256 private _taxFeeOnBuy = 4 */\n  0x09\n  sstore\n    /* \"contracts/Pool/Pool.sol\":4428:4429  1 */\n  0x01\n    /* \"contracts/Pool/Pool.sol\":4394:4429  uint256 private _redisFeeOnSell = 1 */\n  0x0a\n  sstore\n    /* \"contracts/Pool/Pool.sol\":4467:4468  1 */\n  0x01\n    /* \"contracts/Pool/Pool.sol\":4435:4468  uint256 private _taxFeeOnSell = 1 */\n  0x0b\n  sstore\n    /* \"contracts/Pool/Pool.sol\":4740:4782  0x8492cbd894686D7e98214541903c7BA6f94928D6 */\n  0x8492cbd894686d7e98214541903c7ba6f94928d6\n    /* \"contracts/Pool/Pool.sol\":4686:4783  address payable private _developmentAddress = payable(0x8492cbd894686D7e98214541903c7BA6f94928D6) */\n  0x0e\n  exp(0x0100, 0x00)\n  dup2\n  sload\n  dup2\n  0xffffffffffffffffffffffffffffffffffffffff\n  mul\n  not\n  and\n  swap1\n  dup4\n  0xffffffffffffffffffffffffffffffffffffffff\n  and\n  mul\n  or\n  swap1\n  sstore\n  pop\n    /* \"contracts/Pool/Pool.sol\":4841:4883  0xa4eD7aa4eF5deB0A63e97d9Cb77445aE553feb1d */\n  0xa4ed7aa4ef5deb0a63e97d9cb77445ae553feb1d\n    /* \"contracts/Pool/Pool.sol\":4789:4884  address payable private _marketingAddress = payable(0xa4eD7aa4eF5deB0A63e97d9Cb77445aE553feb1d) */\n  0x0f\n  exp(0x0100, 0x00)\n  dup2\n  sload\n  dup2\n  0xffffffffffffffffffffffffffffffffffffffff\n  mul\n  not\n  and\n  swap1\n  dup4\n  0xffffffffffffffffffffffffffffffffffffffff\n  and\n  mul\n  or\n  swap1\n  sstore\n  pop\n    /* \"contracts/Pool/Pool.sol\":5028:5033  false */\n  0x00\n    /* \"contracts/Pool/Pool.sol\":5006:5033  bool private inSwap = false */\n  0x12\n  exp(0x0100, 0x14)\n  dup2\n  sload\n  dup2\n  0xff\n  mul\n  not\n  and\n  swap1\n  dup4\n  iszero\n  iszero\n  mul\n  or\n  swap1\n  sstore\n  pop\n    /* \"contracts/Pool/Pool.sol\":5066:5070  true */\n  0x01\n    /* \"contracts/Pool/Pool.sol\":5039:5070  bool private swapEnabled = true */\n  0x12\n  exp(0x0100, 0x15)\n  dup2\n  sload\n  dup2\n  0xff\n  mul\n  not\n  and\n  swap1\n  dup4\n  iszero\n  iszero\n  mul\n  or\n  swap1\n  sstore\n  pop\n    /* \"contracts/Pool/Pool.sol\":5172:5848  constructor () {... */\n  callvalue\n  dup1\n  iszero\n  tag_5\n  jumpi\n  0x00\n  dup1\n  revert\ntag_5:\n  pop\n    /* \"contracts/Pool/Pool.sol\":3054:3071  address msgSender */\n  0x00\n    /* \"contracts/Pool/Pool.sol\":3074:3086  _msgSender() */\n  tag_9\n    /* \"contracts/Pool/Pool.sol\":3074:3084  _msgSender */\n  shl(0x20, tag_10)\n    /* \"contracts/Pool/Pool.sol\":3074:3086  _msgSender() */\n  0x20\n  shr\n  jump\t// in\ntag_9:\n    /* \"contracts/Pool/Pool.sol\":3054:3086  address msgSender = _msgSender() */\n  swap1\n  pop\n    /* \"contracts/Pool/Pool.sol\":3105:3114  msgSender */\n  dup1\n    /* \"contracts/Pool/Pool.sol\":3096:3102  _owner */\n  0x00\n  dup1\n    /* \"contracts/Pool/Pool.sol\":3096:3114  _owner = msgSender */\n  0x0100\n  exp\n  dup2\n  sload\n  dup2\n  0xffffffffffffffffffffffffffffffffffffffff\n  mul\n  not\n  and\n  swap1\n  dup4\n  0xffffffffffffffffffffffffffffffffffffffff\n  and\n  mul\n  or\n  swap1\n  sstore\n  pop\n    /* \"contracts/Pool/Pool.sol\":3162:3171  msgSender */\n  dup1\n    /* \"contracts/Pool/Pool.sol\":3129:3172  OwnershipTransferred(address(0), msgSender) */\n  0xffffffffffffffffffffffffffffffffffffffff\n  and\n    /* \"contracts/Pool/Pool.sol\":3158:3159  0 */\n  0x00\n    /* \"contracts/Pool/Pool.sol\":3129:3172  OwnershipTransferred(address(0), msgSender) */\n  0xffffffffffffffffffffffffffffffffffffffff\n  and\n  0x8be0079c531659141344cd1fd0a4f28419497f9722a3daafe3b4186f6b6457e0\n  mload(0x40)\n  mload(0x40)\n  dup1\n  swap2\n  sub\n  swap1\n  log3\n    /* \"contracts/Pool/Pool.sol\":3044:3179  {... */\n  pop\n    /* \"contracts/Pool/Pool.sol\":5221:5228  _rTotal */\n  sload(0x06)\n    /* \"contracts/Pool/Pool.sol\":5197:5204  _rOwned */\n  0x02\n    /* \"contracts/Pool/Pool.sol\":5197:5218  _rOwned[_msgSender()] */\n  0x00\n    /* \"contracts/Pool/Pool.sol\":5205:5217  _msgSender() */\n  tag_12\n    /* \"contracts/Pool/Pool.sol\":5205:5215  _msgSender */\n  shl(0x20, tag_10)\n    /* \"contracts/Pool/Pool.sol\":5205:5217  _msgSender() */\n  0x20\n  shr\n  jump\t// in\ntag_12:\n    /* \"contracts/Pool/Pool.sol\":5197:5218  _rOwned[_msgSender()] */\n  0xffffffffffffffffffffffffffffffffffffffff\n  and\n  0xffffffffffffffffffffffffffffffffffffffff\n  and\n  dup2\n  mstore\n  0x20\n  add\n  swap1\n  dup2\n  mstore\n  0x20\n  add\n  0x00\n  keccak256\n    /* \"contracts/Pool/Pool.sol\":5197:5228  _rOwned[_msgSender()] = _rTotal */\n  dup2\n  swap1\n  sstore\n  pop\n    /* \"contracts/Pool/Pool.sol\":5247:5282  IUniswapV2Router02 _uniswapV2Router */\n  0x00\n    /* \"contracts/Pool/Pool.sol\":5312:5354  0x10ED43C718714eb63d5aA57B78B54704E256024E */\n  0x10ed43c718714eb63d5aa57b78b54704e256024e\n    /* \"contracts/Pool/Pool.sol\":5247:5356  IUniswapV2Router02 _uniswapV2Router = IUniswapV2Router02(address(0x10ED43C718714eb63d5aA57B78B54704E256024E)) */\n  swap1\n  pop\n    /* \"contracts/Pool/Pool.sol\":5384:5400  _uniswapV2Router */\n  dup1\n    /* \"contracts/Pool/Pool.sol\":5366:5381  uniswapV2Router */\n  0x10\n  0x00\n    /* \"contracts/Pool/Pool.sol\":5366:5400  uniswapV2Router = _uniswapV2Router */\n  0x0100\n  exp\n  dup2\n  sload\n  dup2\n  0xffffffffffffffffffffffffffffffffffffffff\n  mul\n  not\n  and\n  swap1\n  dup4\n  0xffffffffffffffffffffffffffffffffffffffff\n  and\n  mul\n  or\n  swap1\n  sstore\n  pop\n    /* \"contracts/Pool/Pool.sol\":5421:5437  _uniswapV2Router */\n  dup1\n    /* \"contracts/Pool/Pool.sol\":5421:5445  _uniswapV2Router.factory */\n  0xffffffffffffffffffffffffffffffffffffffff\n  and\n  0xc45a0155\n    /* \"contracts/Pool/Pool.sol\":5421:5447  _uniswapV2Router.factory() */\n  mload(0x40)\n  dup2\n  0xffffffff\n  and\n  0xe0\n  shl\n  dup2\n  mstore\n  0x04\n  add\n  0x20\n  mload(0x40)\n  dup1\n  dup4\n  sub\n  dup2\n  dup7\n  gas\n  staticcall\n  iszero\n  dup1\n  iszero\n  tag_14\n  jumpi\n  returndatasize\n  0x00\n  dup1\n  returndatacopy\n  revert(0x00, returndatasize)\ntag_14:\n  pop\n  pop\n  pop\n  pop\n  mload(0x40)\n  returndatasize\n  not(0x1f)\n  0x1f\n  dup3\n  add\n  and\n  dup3\n  add\n  dup1\n  0x40\n  mstore\n  pop\n  dup2\n  add\n  swap1\n  tag_15\n  swap2\n  swap1\n  tag_16\n  jump\t// in\ntag_15:\n    /* \"contracts/Pool/Pool.sol\":5410:5418  _factory */\n  0x12\n  0x00\n    /* \"contracts/Pool/Pool.sol\":5410:5447  _factory = _uniswapV2Router.factory() */\n  0x0100\n  exp\n  dup2\n  sload\n  dup2\n  0xffffffffffffffffffffffffffffffffffffffff\n  mul\n  not\n  and\n  swap1\n  dup4\n  0xffffffffffffffffffffffffffffffffffffffff\n  and\n  mul\n  or\n  swap1\n  sstore\n  pop\n    /* \"contracts/Pool/Pool.sol\":5491:5507  _uniswapV2Router */\n  dup1\n    /* \"contracts/Pool/Pool.sol\":5491:5515  _uniswapV2Router.factory */\n  0xffffffffffffffffffffffffffffffffffffffff\n  and\n  0xc45a0155\n    /* \"contracts/Pool/Pool.sol\":5491:5517  _uniswapV2Router.factory() */\n  mload(0x40)\n  dup2\n  0xffffffff\n  and\n  0xe0\n  shl\n  dup2\n  mstore\n  0x04\n  add\n  0x20\n  mload(0x40)\n  dup1\n  dup4\n  sub\n  dup2\n  dup7\n  gas\n  staticcall\n  iszero\n  dup1\n  iszero\n  tag_18\n  jumpi\n  returndatasize\n  0x00\n  dup1\n  returndatacopy\n  revert(0x00, returndatasize)\ntag_18:\n  pop\n  pop\n  pop\n  pop\n  mload(0x40)\n  returndatasize\n  not(0x1f)\n  0x1f\n  dup3\n  add\n  and\n  dup3\n  add\n  dup1\n  0x40\n  mstore\n  pop\n  dup2\n  add\n  swap1\n  tag_19\n  swap2\n  swap1\n  tag_16\n  jump\t// in\ntag_19:\n    /* \"contracts/Pool/Pool.sol\":5473:5529  IUniswapV2Factory(_uniswapV2Router.factory()).createPair */\n  0xffffffffffffffffffffffffffffffffffffffff\n  and\n  0xc9c65396\n    /* \"contracts/Pool/Pool.sol\":5538:5542  this */\n  address\n    /* \"contracts/Pool/Pool.sol\":5545:5561  _uniswapV2Router */\n  dup4\n    /* \"contracts/Pool/Pool.sol\":5545:5566  _uniswapV2Router.WETH */\n  0xffffffffffffffffffffffffffffffffffffffff\n  and\n  0xad5c4648\n    /* \"contracts/Pool/Pool.sol\":5545:5568  _uniswapV2Router.WETH() */\n  mload(0x40)\n  dup2\n  0xffffffff\n  and\n  0xe0\n  shl\n  dup2\n  mstore\n  0x04\n  add\n  0x20\n  mload(0x40)\n  dup1\n  dup4\n  sub\n  dup2\n  dup7\n  gas\n  staticcall\n  iszero\n  dup1\n  iszero\n  tag_21\n  jumpi\n  returndatasize\n  0x00\n  dup1\n  returndatacopy\n  revert(0x00, returndatasize)\ntag_21:\n  pop\n  pop\n  pop\n  pop\n  mload(0x40)\n  returndatasize\n  not(0x1f)\n  0x1f\n  dup3\n  add\n  and\n  dup3\n  add\n  dup1\n  0x40\n  mstore\n  pop\n  dup2\n  add\n  swap1\n  tag_22\n  swap2\n  swap1\n  tag_16\n  jump\t// in\ntag_22:\n    /* \"contracts/Pool/Pool.sol\":5473:5570  IUniswapV2Factory(_uniswapV2Router.factory()).createPair(address(this), _uniswapV2Router.WETH() ) */\n  mload(0x40)\n  dup4\n  0xffffffff\n  and\n  0xe0\n  shl\n  dup2\n  mstore\n  0x04\n  add\n  tag_23\n  swap3\n  swap2\n  swap1\n  tag_24\n  jump\t// in\ntag_23:\n  0x20\n  mload(0x40)\n  dup1\n  dup4\n  sub\n  dup2\n  0x00\n  dup8\n  gas\n  call\n  iszero\n  dup1\n  iszero\n  tag_26\n  jumpi\n  returndatasize\n  0x00\n  dup1\n  returndatacopy\n  revert(0x00, returndatasize)\ntag_26:\n  pop\n  pop\n  pop\n  pop\n  mload(0x40)\n  returndatasize\n  not(0x1f)\n  0x1f\n  dup3\n  add\n  and\n  dup3\n  add\n  dup1\n  0x40\n  mstore\n  pop\n  dup2\n  add\n  swap1\n  tag_27\n  swap2\n  swap1\n  tag_16\n  jump\t// in\ntag_27:\n    /* \"contracts/Pool/Pool.sol\":5457:5470  uniswapV2Pair */\n  0x11\n  0x00\n    /* \"contracts/Pool/Pool.sol\":5457:5570  uniswapV2Pair = IUniswapV2Factory(_uniswapV2Router.factory()).createPair(address(this), _uniswapV2Router.WETH() ) */\n  0x0100\n  exp\n  dup2\n  sload\n  dup2\n  0xffffffffffffffffffffffffffffffffffffffff\n  mul\n  not\n  and\n  swap1\n  dup4\n  0xffffffffffffffffffffffffffffffffffffffff\n  and\n  mul\n  or\n  swap1\n  sstore\n  pop\n    /* \"contracts/Pool/Pool.sol\":5610:5614  true */\n  0x01\n    /* \"contracts/Pool/Pool.sol\":5580:5598  _isExcludedFromFee */\n  0x05\n    /* \"contracts/Pool/Pool.sol\":5580:5607  _isExcludedFromFee[owner()] */\n  0x00\n    /* \"contracts/Pool/Pool.sol\":5599:5606  owner() */\n  tag_28\n    /* \"contracts/Pool/Pool.sol\":5599:5604  owner */\n  shl(0x20, tag_29)\n    /* \"contracts/Pool/Pool.sol\":5599:5606  owner() */\n  0x20\n  shr\n  jump\t// in\ntag_28:\n    /* \"contracts/Pool/Pool.sol\":5580:5607  _isExcludedFromFee[owner()] */\n  0xffffffffffffffffffffffffffffffffffffffff\n  and\n  0xffffffffffffffffffffffffffffffffffffffff\n  and\n  dup2\n  mstore\n  0x20\n  add\n  swap1\n  dup2\n  mstore\n  0x20\n  add\n  0x00\n  keccak256\n  0x00\n    /* \"contracts/Pool/Pool.sol\":5580:5614  _isExcludedFromFee[owner()] = true */\n  0x0100\n  exp\n  dup2\n  sload\n  dup2\n  0xff\n  mul\n  not\n  and\n  swap1\n  dup4\n  iszero\n  iszero\n  mul\n  or\n  swap1\n  sstore\n  pop\n    /* \"contracts/Pool/Pool.sol\":5660:5664  true */\n  0x01\n    /* \"contracts/Pool/Pool.sol\":5624:5642  _isExcludedFromFee */\n  0x05\n    /* \"contracts/Pool/Pool.sol\":5624:5657  _isExcludedFromFee[address(this)] */\n  0x00\n    /* \"contracts/Pool/Pool.sol\":5651:5655  this */\n  address\n    /* \"contracts/Pool/Pool.sol\":5624:5657  _isExcludedFromFee[address(this)] */\n  0xffffffffffffffffffffffffffffffffffffffff\n  and\n  0xffffffffffffffffffffffffffffffffffffffff\n  and\n  dup2\n  mstore\n  0x20\n  add\n  swap1\n  dup2\n  mstore\n  0x20\n  add\n  0x00\n  keccak256\n  0x00\n    /* \"contracts/Pool/Pool.sol\":5624:5664  _isExcludedFromFee[address(this)] = true */\n  0x0100\n  exp\n  dup2\n  sload\n  dup2\n  0xff\n  mul\n  not\n  and\n  swap1\n  dup4\n  iszero\n  iszero\n  mul\n  or\n  swap1\n  sstore\n  pop\n    /* \"contracts/Pool/Pool.sol\":5716:5720  true */\n  0x01\n    /* \"contracts/Pool/Pool.sol\":5674:5692  _isExcludedFromFee */\n  0x05\n    /* \"contracts/Pool/Pool.sol\":5674:5713  _isExcludedFromFee[_developmentAddress] */\n  0x00\n    /* \"contracts/Pool/Pool.sol\":5693:5712  _developmentAddress */\n  0x0e\n  0x00\n  swap1\n  sload\n  swap1\n  0x0100\n  exp\n  swap1\n  div\n  0xffffffffffffffffffffffffffffffffffffffff\n  and\n    /* \"contracts/Pool/Pool.sol\":5674:5713  _isExcludedFromFee[_developmentAddress] */\n  0xffffffffffffffffffffffffffffffffffffffff\n  and\n  0xffffffffffffffffffffffffffffffffffffffff\n  and\n  dup2\n  mstore\n  0x20\n  add\n  swap1\n  dup2\n  mstore\n  0x20\n  add\n  0x00\n  keccak256\n  0x00\n    /* \"contracts/Pool/Pool.sol\":5674:5720  _isExcludedFromFee[_developmentAddress] = true */\n  0x0100\n  exp\n  dup2\n  sload\n  dup2\n  0xff\n  mul\n  not\n  and\n  swap1\n  dup4\n  iszero\n  iszero\n  mul\n  or\n  swap1\n  sstore\n  pop\n    /* \"contracts/Pool/Pool.sol\":5770:5774  true */\n  0x01\n    /* \"contracts/Pool/Pool.sol\":5730:5748  _isExcludedFromFee */\n  0x05\n    /* \"contracts/Pool/Pool.sol\":5730:5767  _isExcludedFromFee[_marketingAddress] */\n  0x00\n    /* \"contracts/Pool/Pool.sol\":5749:5766  _marketingAddress */\n  0x0f\n  0x00\n  swap1\n  sload\n  swap1\n  0x0100\n  exp\n  swap1\n  div\n  0xffffffffffffffffffffffffffffffffffffffff\n  and\n    /* \"contracts/Pool/Pool.sol\":5730:5767  _isExcludedFromFee[_marketingAddress] */\n  0xffffffffffffffffffffffffffffffffffffffff\n  and\n  0xffffffffffffffffffffffffffffffffffffffff\n  and\n  dup2\n  mstore\n  0x20\n  add\n  swap1\n  dup2\n  mstore\n  0x20\n  add\n  0x00\n  keccak256\n  0x00\n    /* \"contracts/Pool/Pool.sol\":5730:5774  _isExcludedFromFee[_marketingAddress] = true */\n  0x0100\n  exp\n  dup2\n  sload\n  dup2\n  0xff\n  mul\n  not\n  and\n  swap1\n  dup4\n  iszero\n  iszero\n  mul\n  or\n  swap1\n  sstore\n  pop\n    /* \"contracts/Pool/Pool.sol\":5819:5831  _msgSender() */\n  tag_30\n    /* \"contracts/Pool/Pool.sol\":5819:5829  _msgSender */\n  shl(0x20, tag_10)\n    /* \"contracts/Pool/Pool.sol\":5819:5831  _msgSender() */\n  0x20\n  shr\n  jump\t// in\ntag_30:\n    /* \"contracts/Pool/Pool.sol\":5798:5841  Transfer(address(0), _msgSender(), _tTotal) */\n  0xffffffffffffffffffffffffffffffffffffffff\n  and\n    /* \"contracts/Pool/Pool.sol\":5815:5816  0 */\n  0x00\n    /* \"contracts/Pool/Pool.sol\":5798:5841  Transfer(address(0), _msgSender(), _tTotal) */\n  0xffffffffffffffffffffffffffffffffffffffff\n  and\n  0xddf252ad1be2c89b69c2b068fc378daa952ba7f163c4a11628f55a4df523b3ef\n    /* \"contracts/Pool/Pool.sol\":4200:4213  1*10**9*10**9 */\n  0x0de0b6b3a7640000\n    /* \"contracts/Pool/Pool.sol\":5798:5841  Transfer(address(0), _msgSender(), _tTotal) */\n  mload(0x40)\n  tag_31\n  swap2\n  swap1\n  tag_32\n  jump\t// in\ntag_31:\n  mload(0x40)\n  dup1\n  swap2\n  sub\n  swap1\n  log3\n    /* \"contracts/Pool/Pool.sol\":5187:5848  {... */\n  pop\n    /* \"contracts/Pool/Pool.sol\":3787:15084  contract World_Step is Context, IERC20, Ownable {... */\n  jump(tag_33)\n    /* \"contracts/Pool/Pool.sol\":1721:1817  function _msgSender() internal view virtual returns (address) {... */\ntag_10:\n    /* \"contracts/Pool/Pool.sol\":1774:1781  address */\n  0x00\n    /* \"contracts/Pool/Pool.sol\":1800:1810  msg.sender */\n  caller\n    /* \"contracts/Pool/Pool.sol\":1793:1810  return msg.sender */\n  swap1\n  pop\n    /* \"contracts/Pool/Pool.sol\":1721:1817  function _msgSender() internal view virtual returns (address) {... */\n  swap1\n  jump\t// out\n    /* \"contracts/Pool/Pool.sol\":3185:3262  function owner() public view returns (address) {... */\ntag_29:\n    /* \"contracts/Pool/Pool.sol\":3223:3230  address */\n  0x00\n    /* \"contracts/Pool/Pool.sol\":3249:3255  _owner */\n  dup1\n  0x00\n  swap1\n  sload\n  swap1\n  0x0100\n  exp\n  swap1\n  div\n  0xffffffffffffffffffffffffffffffffffffffff\n  and\n    /* \"contracts/Pool/Pool.sol\":3242:3255  return _owner */\n  swap1\n  pop\n    /* \"contracts/Pool/Pool.sol\":3185:3262  function owner() public view returns (address) {... */\n  swap1\n  jump\t// out\n    /* \"#utility.yul\":7:84   */\ntag_36:\n    /* \"#utility.yul\":44:51   */\n  0x00\n    /* \"#utility.yul\":73:78   */\n  dup2\n    /* \"#utility.yul\":62:78   */\n  swap1\n  pop\n    /* \"#utility.yul\":7:84   */\n  swap2\n  swap1\n  pop\n  jump\t// out\n    /* \"#utility.yul\":90:270   */\ntag_37:\n    /* \"#utility.yul\":138:215   */\n  0x4e487b7100000000000000000000000000000000000000000000000000000000\n    /* \"#utility.yul\":135:136   */\n  0x00\n    /* \"#utility.yul\":128:216   */\n  mstore\n    /* \"#utility.yul\":235:239   */\n  0x12\n    /* \"#utility.yul\":232:233   */\n  0x04\n    /* \"#utility.yul\":225:240   */\n  mstore\n    /* \"#utility.yul\":259:263   */\n  0x24\n    /* \"#utility.yul\":256:257   */\n  0x00\n    /* \"#utility.yul\":249:264   */\n  revert\n    /* \"#utility.yul\":276:452   */\ntag_2:\n    /* \"#utility.yul\":308:309   */\n  0x00\n    /* \"#utility.yul\":325:345   */\n  tag_52\n    /* \"#utility.yul\":343:344   */\n  dup3\n    /* \"#utility.yul\":325:345   */\n  tag_36\n  jump\t// in\ntag_52:\n    /* \"#utility.yul\":320:345   */\n  swap2\n  pop\n    /* \"#utility.yul\":359:379   */\n  tag_53\n    /* \"#utility.yul\":377:378   */\n  dup4\n    /* \"#utility.yul\":359:379   */\n  tag_36\n  jump\t// in\ntag_53:\n    /* \"#utility.yul\":354:379   */\n  swap3\n  pop\n    /* \"#utility.yul\":398:399   */\n  dup3\n    /* \"#utility.yul\":388:423   */\n  tag_54\n  jumpi\n    /* \"#utility.yul\":403:421   */\n  tag_55\n  tag_37\n  jump\t// in\ntag_55:\n    /* \"#utility.yul\":388:423   */\ntag_54:\n    /* \"#utility.yul\":444:445   */\n  dup3\n    /* \"#utility.yul\":441:442   */\n  dup3\n    /* \"#utility.yul\":437:446   */\n  mod\n    /* \"#utility.yul\":432:446   */\n  swap1\n  pop\n    /* \"#utility.yul\":276:452   */\n  swap3\n  swap2\n  pop\n  pop\n  jump\t// out\n    /* \"#utility.yul\":458:638   */\ntag_38:\n    /* \"#utility.yul\":506:583   */\n  0x4e487b7100000000000000000000000000000000000000000000000000000000\n    /* \"#utility.yul\":503:504   */\n  0x00\n    /* \"#utility.yul\":496:584   */\n  mstore\n    /* \"#utility.yul\":603:607   */\n  0x11\n    /* \"#utility.yul\":600:601   */\n  0x04\n    /* \"#utility.yul\":593:608   */\n  mstore\n    /* \"#utility.yul\":627:631   */\n  0x24\n    /* \"#utility.yul\":624:625   */\n  0x00\n    /* \"#utility.yul\":617:632   */\n  revert\n    /* \"#utility.yul\":644:835   */\ntag_4:\n    /* \"#utility.yul\":684:688   */\n  0x00\n    /* \"#utility.yul\":704:724   */\n  tag_58\n    /* \"#utility.yul\":722:723   */\n  dup3\n    /* \"#utility.yul\":704:724   */\n  tag_36\n  jump\t// in\ntag_58:\n    /* \"#utility.yul\":699:724   */\n  swap2\n  pop\n    /* \"#utility.yul\":738:758   */\n  tag_59\n    /* \"#utility.yul\":756:757   */\n  dup4\n    /* \"#utility.yul\":738:758   */\n  tag_36\n  jump\t// in\ntag_59:\n    /* \"#utility.yul\":733:758   */\n  swap3\n  pop\n    /* \"#utility.yul\":777:778   */\n  dup3\n    /* \"#utility.yul\":774:775   */\n  dup3\n    /* \"#utility.yul\":771:779   */\n  lt\n    /* \"#utility.yul\":768:802   */\n  iszero\n  tag_60\n  jumpi\n    /* \"#utility.yul\":782:800   */\n  tag_61\n  tag_38\n  jump\t// in\ntag_61:\n    /* \"#utility.yul\":768:802   */\ntag_60:\n    /* \"#utility.yul\":827:828   */\n  dup3\n    /* \"#utility.yul\":824:825   */\n  dup3\n    /* \"#utility.yul\":820:829   */\n  sub\n    /* \"#utility.yul\":812:829   */\n  swap1\n  pop\n    /* \"#utility.yul\":644:835   */\n  swap3\n  swap2\n  pop\n  pop\n  jump\t// out\n    /* \"#utility.yul\":922:1039   */\ntag_40:\n    /* \"#utility.yul\":1031:1032   */\n  0x00\n    /* \"#utility.yul\":1028:1029   */\n  dup1\n    /* \"#utility.yul\":1021:1033   */\n  revert\n    /* \"#utility.yul\":1168:1294   */\ntag_42:\n    /* \"#utility.yul\":1205:1212   */\n  0x00\n    /* \"#utility.yul\":1245:1287   */\n  0xffffffffffffffffffffffffffffffffffffffff\n    /* \"#utility.yul\":1238:1243   */\n  dup3\n    /* \"#utility.yul\":1234:1288   */\n  and\n    /* \"#utility.yul\":1223:1288   */\n  swap1\n  pop\n    /* \"#utility.yul\":1168:1294   */\n  swap2\n  swap1\n  pop\n  jump\t// out\n    /* \"#utility.yul\":1300:1396   */\ntag_43:\n    /* \"#utility.yul\":1337:1344   */\n  0x00\n    /* \"#utility.yul\":1366:1390   */\n  tag_67\n    /* \"#utility.yul\":1384:1389   */\n  dup3\n    /* \"#utility.yul\":1366:1390   */\n  tag_42\n  jump\t// in\ntag_67:\n    /* \"#utility.yul\":1355:1390   */\n  swap1\n  pop\n    /* \"#utility.yul\":1300:1396   */\n  swap2\n  swap1\n  pop\n  jump\t// out\n    /* \"#utility.yul\":1402:1524   */\ntag_44:\n    /* \"#utility.yul\":1475:1499   */\n  tag_69\n    /* \"#utility.yul\":1493:1498   */\n  dup2\n    /* \"#utility.yul\":1475:1499   */\n  tag_43\n  jump\t// in\ntag_69:\n    /* \"#utility.yul\":1468:1473   */\n  dup2\n    /* \"#utility.yul\":1465:1500   */\n  eq\n    /* \"#utility.yul\":1455:1518   */\n  tag_70\n  jumpi\n    /* \"#utility.yul\":1514:1515   */\n  0x00\n    /* \"#utility.yul\":1511:1512   */\n  dup1\n    /* \"#utility.yul\":1504:1516   */\n  revert\n    /* \"#utility.yul\":1455:1518   */\ntag_70:\n    /* \"#utility.yul\":1402:1524   */\n  pop\n  jump\t// out\n    /* \"#utility.yul\":1530:1673   */\ntag_45:\n    /* \"#utility.yul\":1587:1592   */\n  0x00\n    /* \"#utility.yul\":1618:1624   */\n  dup2\n    /* \"#utility.yul\":1612:1625   */\n  mload\n    /* \"#utility.yul\":1603:1625   */\n  swap1\n  pop\n    /* \"#utility.yul\":1634:1667   */\n  tag_72\n    /* \"#utility.yul\":1661:1666   */\n  dup2\n    /* \"#utility.yul\":1634:1667   */\n  tag_44\n  jump\t// in\ntag_72:\n    /* \"#utility.yul\":1530:1673   */\n  swap3\n  swap2\n  pop\n  pop\n  jump\t// out\n    /* \"#utility.yul\":1679:2030   */\ntag_16:\n    /* \"#utility.yul\":1749:1755   */\n  0x00\n    /* \"#utility.yul\":1798:1800   */\n  0x20\n    /* \"#utility.yul\":1786:1795   */\n  dup3\n    /* \"#utility.yul\":1777:1784   */\n  dup5\n    /* \"#utility.yul\":1773:1796   */\n  sub\n    /* \"#utility.yul\":1769:1801   */\n  slt\n    /* \"#utility.yul\":1766:1885   */\n  iszero\n  tag_74\n  jumpi\n    /* \"#utility.yul\":1804:1883   */\n  tag_75\n  tag_40\n  jump\t// in\ntag_75:\n    /* \"#utility.yul\":1766:1885   */\ntag_74:\n    /* \"#utility.yul\":1924:1925   */\n  0x00\n    /* \"#utility.yul\":1949:2013   */\n  tag_76\n    /* \"#utility.yul\":2005:2012   */\n  dup5\n    /* \"#utility.yul\":1996:2002   */\n  dup3\n    /* \"#utility.yul\":1985:1994   */\n  dup6\n    /* \"#utility.yul\":1981:2003   */\n  add\n    /* \"#utility.yul\":1949:2013   */\n  tag_45\n  jump\t// in\ntag_76:\n    /* \"#utility.yul\":1939:2013   */\n  swap2\n  pop\n    /* \"#utility.yul\":1895:2023   */\n  pop\n    /* \"#utility.yul\":1679:2030   */\n  swap3\n  swap2\n  pop\n  pop\n  jump\t// out\n    /* \"#utility.yul\":2036:2154   */\ntag_46:\n    /* \"#utility.yul\":2123:2147   */\n  tag_78\n    /* \"#utility.yul\":2141:2146   */\n  dup2\n    /* \"#utility.yul\":2123:2147   */\n  tag_43\n  jump\t// in\ntag_78:\n    /* \"#utility.yul\":2118:2121   */\n  dup3\n    /* \"#utility.yul\":2111:2148   */\n  mstore\n    /* \"#utility.yul\":2036:2154   */\n  pop\n  pop\n  jump\t// out\n    /* \"#utility.yul\":2160:2492   */\ntag_24:\n    /* \"#utility.yul\":2281:2285   */\n  0x00\n    /* \"#utility.yul\":2319:2321   */\n  0x40\n    /* \"#utility.yul\":2308:2317   */\n  dup3\n    /* \"#utility.yul\":2304:2322   */\n  add\n    /* \"#utility.yul\":2296:2322   */\n  swap1\n  pop\n    /* \"#utility.yul\":2332:2403   */\n  tag_80\n    /* \"#utility.yul\":2400:2401   */\n  0x00\n    /* \"#utility.yul\":2389:2398   */\n  dup4\n    /* \"#utility.yul\":2385:2402   */\n  add\n    /* \"#utility.yul\":2376:2382   */\n  dup6\n    /* \"#utility.yul\":2332:2403   */\n  tag_46\n  jump\t// in\ntag_80:\n    /* \"#utility.yul\":2413:2485   */\n  tag_81\n    /* \"#utility.yul\":2481:2483   */\n  0x20\n    /* \"#utility.yul\":2470:2479   */\n  dup4\n    /* \"#utility.yul\":2466:2484   */\n  add\n    /* \"#utility.yul\":2457:2463   */\n  dup5\n    /* \"#utility.yul\":2413:2485   */\n  tag_46\n  jump\t// in\ntag_81:\n    /* \"#utility.yul\":2160:2492   */\n  swap4\n  swap3\n  pop\n  pop\n  pop\n  jump\t// out\n    /* \"#utility.yul\":2498:2616   */\ntag_47:\n    /* \"#utility.yul\":2585:2609   */\n  tag_83\n    /* \"#utility.yul\":2603:2608   */\n  dup2\n    /* \"#utility.yul\":2585:2609   */\n  tag_36\n  jump\t// in\ntag_83:\n    /* \"#utility.yul\":2580:2583   */\n  dup3\n    /* \"#utility.yul\":2573:2610   */\n  mstore\n    /* \"#utility.yul\":2498:2616   */\n  pop\n  pop\n  jump\t// out\n    /* \"#utility.yul\":2622:2844   */\ntag_32:\n    /* \"#utility.yul\":2715:2719   */\n  0x00\n    /* \"#utility.yul\":2753:2755   */\n  0x20\n    /* \"#utility.yul\":2742:2751   */\n  dup3\n    /* \"#utility.yul\":2738:2756   */\n  add\n    /* \"#utility.yul\":2730:2756   */\n  swap1\n  pop\n    /* \"#utility.yul\":2766:2837   */\n  tag_85\n    /* \"#utility.yul\":2834:2835   */\n  0x00\n    /* \"#utility.yul\":2823:2832   */\n  dup4\n    /* \"#utility.yul\":2819:2836   */\n  add\n    /* \"#utility.yul\":2810:2816   */\n  dup5\n    /* \"#utility.yul\":2766:2837   */\n  tag_47\n  jump\t// in\ntag_85:\n    /* \"#utility.yul\":2622:2844   */\n  swap3\n  swap2\n  pop\n  pop\n  jump\t// out\n    /* \"contracts/Pool/Pool.sol\":3787:15084  contract World_Step is Context, IERC20, Ownable {... */\ntag_33:\n  dataSize(sub_0)\n  dup1\n  dataOffset(sub_0)\n  0x00\n  codecopy\n  0x00\n  return\nstop\n\nsub_0: assembly {\n        /* \"contracts/Pool/Pool.sol\":3787:15084  contract World_Step is Context, IERC20, Ownable {... */\n      mstore(0x40, 0x80)\n      jumpi(tag_1, lt(calldatasize, 0x04))\n      shr(0xe0, calldataload(0x00))\n      dup1\n      0x758dbe03\n      gt\n      tag_26\n      jumpi\n      dup1\n      0xc3c8cd80\n      gt\n      tag_27\n      jumpi\n      dup1\n      0xc3c8cd80\n      eq\n      tag_20\n      jumpi\n      dup1\n      0xc492f046\n      eq\n      tag_21\n      jumpi\n      dup1\n      0xc5cc6b6a\n      eq\n      tag_22\n      jumpi\n      dup1\n      0xdd62ed3e\n      eq\n      tag_23\n      jumpi\n      dup1\n      0xe293d316\n      eq\n      tag_24\n      jumpi\n      dup1\n      0xf2fde38b\n      eq\n      tag_25\n      jumpi\n      jump(tag_2)\n    tag_27:\n      dup1\n      0x758dbe03\n      eq\n      tag_14\n      jumpi\n      dup1\n      0x8da5cb5b\n      eq\n      tag_15\n      jumpi\n      dup1\n      0x95d89b41\n      eq\n      tag_16\n      jumpi\n      dup1\n      0xa2a957bb\n      eq\n      tag_17\n      jumpi\n      dup1\n      0xa9059cbb\n      eq\n      tag_18\n      jumpi\n      dup1\n      0xaad5c023\n      eq\n      tag_19\n      jumpi\n      jump(tag_2)\n    tag_26:\n      dup1\n      0x313ce567\n      gt\n      tag_28\n      jumpi\n      dup1\n      0x313ce567\n      eq\n      tag_8\n      jumpi\n      dup1\n      0x49bd5a5e\n      eq\n      tag_9\n      jumpi\n      dup1\n      0x6d8aa8f8\n      eq\n      tag_10\n      jumpi\n      dup1\n      0x6fc3eaec\n      eq\n      tag_11\n      jumpi\n      dup1\n      0x70a08231\n      eq\n      tag_12\n      jumpi\n      dup1\n      0x715018a6\n      eq\n      tag_13\n      jumpi\n      jump(tag_2)\n    tag_28:\n      dup1\n      0x06fdde03\n      eq\n      tag_3\n      jumpi\n      dup1\n      0x095ea7b3\n      eq\n      tag_4\n      jumpi\n      dup1\n      0x1694505e\n      eq\n      tag_5\n      jumpi\n      dup1\n      0x18160ddd\n      eq\n      tag_6\n      jumpi\n      dup1\n      0x23b872dd\n      eq\n      tag_7\n      jumpi\n      jump(tag_2)\n    tag_1:\n      jumpi(tag_2, calldatasize)\n      stop\n    tag_2:\n      0x00\n      dup1\n      revert\n        /* \"contracts/Pool/Pool.sol\":6006:6087  function name() public pure returns (string memory) {... */\n    tag_3:\n      callvalue\n      dup1\n      iszero\n      tag_31\n      jumpi\n      0x00\n      dup1\n      revert\n    tag_31:\n      pop\n      tag_32\n      tag_33\n      jump\t// in\n    tag_32:\n      mload(0x40)\n      tag_34\n      swap2\n      swap1\n      tag_35\n      jump\t// in\n    tag_34:\n      mload(0x40)\n      dup1\n      swap2\n      sub\n      swap1\n      return\n        /* \"contracts/Pool/Pool.sol\":6829:6987  function approve(address spender, uint256 amount) public override returns (bool) {... */\n    tag_4:\n      callvalue\n      dup1\n      iszero\n      tag_36\n      jumpi\n      0x00\n      dup1\n      revert\n    tag_36:\n      pop\n      tag_37\n      0x04\n      dup1\n      calldatasize\n      sub\n      dup2\n      add\n      swap1\n      tag_38\n      swap2\n      swap1\n      tag_39\n      jump\t// in\n    tag_38:\n      tag_40\n      jump\t// in\n    tag_37:\n      mload(0x40)\n      tag_41\n      swap2\n      swap1\n      tag_42\n      jump\t// in\n    tag_41:\n      mload(0x40)\n      dup1\n      swap2\n      sub\n      swap1\n      return\n        /* \"contracts/Pool/Pool.sol\":4891:4932  IUniswapV2Router02 public uniswapV2Router */\n    tag_5:\n      callvalue\n      dup1\n      iszero\n      tag_43\n      jumpi\n      0x00\n      dup1\n      revert\n    tag_43:\n      pop\n      tag_44\n      tag_45\n      jump\t// in\n    tag_44:\n      mload(0x40)\n      tag_46\n      swap2\n      swap1\n      tag_47\n      jump\t// in\n    tag_46:\n      mload(0x40)\n      dup1\n      swap2\n      sub\n      swap1\n      return\n        /* \"contracts/Pool/Pool.sol\":6271:6364  function totalSupply() public pure override returns (uint256) {... */\n    tag_6:\n      callvalue\n      dup1\n      iszero\n      tag_48\n      jumpi\n      0x00\n      dup1\n      revert\n    tag_48:\n      pop\n      tag_49\n      tag_50\n      jump\t// in\n    tag_49:\n      mload(0x40)\n      tag_51\n      swap2\n      swap1\n      tag_52\n      jump\t// in\n    tag_51:\n      mload(0x40)\n      dup1\n      swap2\n      sub\n      swap1\n      return\n        /* \"contracts/Pool/Pool.sol\":6993:7302  function transferFrom(address sender, address recipient, uint256 amount) public override returns (bool) {... */\n    tag_7:\n      callvalue\n      dup1\n      iszero\n      tag_53\n      jumpi\n      0x00\n      dup1\n      revert\n    tag_53:\n      pop\n      tag_54\n      0x04\n      dup1\n      calldatasize\n      sub\n      dup2\n      add\n      swap1\n      tag_55\n      swap2\n      swap1\n      tag_56\n      jump\t// in\n    tag_55:\n      tag_57\n      jump\t// in\n    tag_54:\n      mload(0x40)\n      tag_58\n      swap2\n      swap1\n      tag_42\n      jump\t// in\n    tag_58:\n      mload(0x40)\n      dup1\n      swap2\n      sub\n      swap1\n      return\n        /* \"contracts/Pool/Pool.sol\":6184:6265  function decimals() public pure returns (uint8) {... */\n    tag_8:\n      callvalue\n      dup1\n      iszero\n      tag_59\n      jumpi\n      0x00\n      dup1\n      revert\n    tag_59:\n      pop\n      tag_60\n      tag_61\n      jump\t// in\n    tag_60:\n      mload(0x40)\n      tag_62\n      swap2\n      swap1\n      tag_63\n      jump\t// in\n    tag_62:\n      mload(0x40)\n      dup1\n      swap2\n      sub\n      swap1\n      return\n        /* \"contracts/Pool/Pool.sol\":4938:4966  address public uniswapV2Pair */\n    tag_9:\n      callvalue\n      dup1\n      iszero\n      tag_64\n      jumpi\n      0x00\n      dup1\n      revert\n    tag_64:\n      pop\n      tag_65\n      tag_66\n      jump\t// in\n    tag_65:\n      mload(0x40)\n      tag_67\n      swap2\n      swap1\n      tag_68\n      jump\t// in\n    tag_67:\n      mload(0x40)\n      dup1\n      swap2\n      sub\n      swap1\n      return\n        /* \"contracts/Pool/Pool.sol\":14749:14846  function toggleSwap(bool _swapEnabled) public onlyDev {... */\n    tag_10:\n      callvalue\n      dup1\n      iszero\n      tag_69\n      jumpi\n      0x00\n      dup1\n      revert\n    tag_69:\n      pop\n      tag_70\n      0x04\n      dup1\n      calldatasize\n      sub\n      dup2\n      add\n      swap1\n      tag_71\n      swap2\n      swap1\n      tag_72\n      jump\t// in\n    tag_71:\n      tag_73\n      jump\t// in\n    tag_70:\n      stop\n        /* \"contracts/Pool/Pool.sol\":13929:14187  function manualsend() external {... */\n    tag_11:\n      callvalue\n      dup1\n      iszero\n      tag_74\n      jumpi\n      0x00\n      dup1\n      revert\n    tag_74:\n      pop\n      tag_75\n      tag_76\n      jump\t// in\n    tag_75:\n      stop\n        /* \"contracts/Pool/Pool.sol\":6370:6506  function balanceOf(address account) public view override returns (uint256) {... */\n    tag_12:\n      callvalue\n      dup1\n      iszero\n      tag_77\n      jumpi\n      0x00\n      dup1\n      revert\n    tag_77:\n      pop\n      tag_78\n      0x04\n      dup1\n      calldatasize\n      sub\n      dup2\n      add\n      swap1\n      tag_79\n      swap2\n      swap1\n      tag_80\n      jump\t// in\n    tag_79:\n      tag_81\n      jump\t// in\n    tag_78:\n      mload(0x40)\n      tag_82\n      swap2\n      swap1\n      tag_52\n      jump\t// in\n    tag_82:\n      mload(0x40)\n      dup1\n      swap2\n      sub\n      swap1\n      return\n        /* \"contracts/Pool/Pool.sol\":3381:3526  function renounceOwnership() public virtual onlyOwner {... */\n    tag_13:\n      callvalue\n      dup1\n      iszero\n      tag_83\n      jumpi\n      0x00\n      dup1\n      revert\n    tag_83:\n      pop\n      tag_84\n      tag_85\n      jump\t// in\n    tag_84:\n      stop\n        /* \"contracts/Pool/Pool.sol\":10878:11111  function setNewMarketingAddress(address payable markt) public onlyDev() {... */\n    tag_14:\n      callvalue\n      dup1\n      iszero\n      tag_86\n      jumpi\n      0x00\n      dup1\n      revert\n    tag_86:\n      pop\n      tag_87\n      0x04\n      dup1\n      calldatasize\n      sub\n      dup2\n      add\n      swap1\n      tag_88\n      swap2\n      swap1\n      tag_89\n      jump\t// in\n    tag_88:\n      tag_90\n      jump\t// in\n    tag_87:\n      stop\n        /* \"contracts/Pool/Pool.sol\":3185:3262  function owner() public view returns (address) {... */\n    tag_15:\n      callvalue\n      dup1\n      iszero\n      tag_91\n      jumpi\n      0x00\n      dup1\n      revert\n    tag_91:\n      pop\n      tag_92\n      tag_93\n      jump\t// in\n    tag_92:\n      mload(0x40)\n      tag_94\n      swap2\n      swap1\n      tag_68\n      jump\t// in\n    tag_94:\n      mload(0x40)\n      dup1\n      swap2\n      sub\n      swap1\n      return\n        /* \"contracts/Pool/Pool.sol\":6093:6178  function symbol() public pure returns (string memory) {... */\n    tag_16:\n      callvalue\n      dup1\n      iszero\n      tag_95\n      jumpi\n      0x00\n      dup1\n      revert\n    tag_95:\n      pop\n      tag_96\n      tag_97\n      jump\t// in\n    tag_96:\n      mload(0x40)\n      tag_98\n      swap2\n      swap1\n      tag_35\n      jump\t// in\n    tag_98:\n      mload(0x40)\n      dup1\n      swap2\n      sub\n      swap1\n      return\n        /* \"contracts/Pool/Pool.sol\":14197:14739  function setFee(uint256 redisFeeOnBuy, uint256 redisFeeOnSell, uint256 taxFeeOnBuy, uint256 taxFeeOnSell) public onlyDev {... */\n    tag_17:\n      callvalue\n      dup1\n      iszero\n      tag_99\n      jumpi\n      0x00\n      dup1\n      revert\n    tag_99:\n      pop\n      tag_100\n      0x04\n      dup1\n      calldatasize\n      sub\n      dup2\n      add\n      swap1\n      tag_101\n      swap2\n      swap1\n      tag_102\n      jump\t// in\n    tag_101:\n      tag_103\n      jump\t// in\n    tag_100:\n      stop\n        /* \"contracts/Pool/Pool.sol\":6512:6676  function transfer(address recipient, uint256 amount) public override returns (bool) {... */\n    tag_18:\n      callvalue\n      dup1\n      iszero\n      tag_104\n      jumpi\n      0x00\n      dup1\n      revert\n    tag_104:\n      pop\n      tag_105\n      0x04\n      dup1\n      calldatasize\n      sub\n      dup2\n      add\n      swap1\n      tag_106\n      swap2\n      swap1\n      tag_39\n      jump\t// in\n    tag_106:\n      tag_107\n      jump\t// in\n    tag_105:\n      mload(0x40)\n      tag_108\n      swap2\n      swap1\n      tag_42\n      jump\t// in\n    tag_108:\n      mload(0x40)\n      dup1\n      swap2\n      sub\n      swap1\n      return\n        /* \"contracts/Pool/Pool.sol\":10565:10786  function setNewDevAddress(address payable dev) public onlyDev() {... */\n    tag_19:\n      callvalue\n      dup1\n      iszero\n      tag_109\n      jumpi\n      0x00\n      dup1\n      revert\n    tag_109:\n      pop\n      tag_110\n      0x04\n      dup1\n      calldatasize\n      sub\n      dup2\n      add\n      swap1\n      tag_111\n      swap2\n      swap1\n      tag_89\n      jump\t// in\n    tag_111:\n      tag_112\n      jump\t// in\n    tag_110:\n      stop\n        /* \"contracts/Pool/Pool.sol\":13664:13923  function manualswap() external {... */\n    tag_20:\n      callvalue\n      dup1\n      iszero\n      tag_113\n      jumpi\n      0x00\n      dup1\n      revert\n    tag_113:\n      pop\n      tag_114\n      tag_115\n      jump\t// in\n    tag_114:\n      stop\n        /* \"contracts/Pool/Pool.sol\":14852:15082  function excludeMultipleAccountsFromFees(address[] calldata accounts, bool excluded) public onlyOwner {... */\n    tag_21:\n      callvalue\n      dup1\n      iszero\n      tag_116\n      jumpi\n      0x00\n      dup1\n      revert\n    tag_116:\n      pop\n      tag_117\n      0x04\n      dup1\n      calldatasize\n      sub\n      dup2\n      add\n      swap1\n      tag_118\n      swap2\n      swap1\n      tag_119\n      jump\t// in\n    tag_118:\n      tag_120\n      jump\t// in\n    tag_117:\n      stop\n        /* \"contracts/Pool/Pool.sol\":4972:4995  address public _factory */\n    tag_22:\n      callvalue\n      dup1\n      iszero\n      tag_121\n      jumpi\n      0x00\n      dup1\n      revert\n    tag_121:\n      pop\n      tag_122\n      tag_123\n      jump\t// in\n    tag_122:\n      mload(0x40)\n      tag_124\n      swap2\n      swap1\n      tag_68\n      jump\t// in\n    tag_124:\n      mload(0x40)\n      dup1\n      swap2\n      sub\n      swap1\n      return\n        /* \"contracts/Pool/Pool.sol\":6682:6823  function allowance(address owner, address spender) public view override returns (uint256) {... */\n    tag_23:\n      callvalue\n      dup1\n      iszero\n      tag_125\n      jumpi\n      0x00\n      dup1\n      revert\n    tag_125:\n      pop\n      tag_126\n      0x04\n      dup1\n      calldatasize\n      sub\n      dup2\n      add\n      swap1\n      tag_127\n      swap2\n      swap1\n      tag_128\n      jump\t// in\n    tag_127:\n      tag_129\n      jump\t// in\n    tag_126:\n      mload(0x40)\n      tag_130\n      swap2\n      swap1\n      tag_52\n      jump\t// in\n    tag_130:\n      mload(0x40)\n      dup1\n      swap2\n      sub\n      swap1\n      return\n        /* \"contracts/Pool/Pool.sol\":10274:10479  function rescueForeignTokens(address _tokenAddr, address _to, uint _amount) public onlyDev() {... */\n    tag_24:\n      callvalue\n      dup1\n      iszero\n      tag_131\n      jumpi\n      0x00\n      dup1\n      revert\n    tag_131:\n      pop\n      tag_132\n      0x04\n      dup1\n      calldatasize\n      sub\n      dup2\n      add\n      swap1\n      tag_133\n      swap2\n      swap1\n      tag_56\n      jump\t// in\n    tag_133:\n      tag_134\n      jump\t// in\n    tag_132:\n      stop\n        /* \"contracts/Pool/Pool.sol\":3625:3782  function transferOwnership(address newOwner) public virtual onlyOwner {... */\n    tag_25:\n      callvalue\n      dup1\n      iszero\n      tag_135\n      jumpi\n      0x00\n      dup1\n      revert\n    tag_135:\n      pop\n      tag_136\n      0x04\n      dup1\n      calldatasize\n      sub\n      dup2\n      add\n      swap1\n      tag_137\n      swap2\n      swap1\n      tag_80\n      jump\t// in\n    tag_137:\n      tag_138\n      jump\t// in\n    tag_136:\n      stop\n        /* \"contracts/Pool/Pool.sol\":6006:6087  function name() public pure returns (string memory) {... */\n    tag_33:\n        /* \"contracts/Pool/Pool.sol\":6043:6056  string memory */\n      0x60\n        /* \"contracts/Pool/Pool.sol\":6075:6080  _name */\n      mload(0x40)\n      dup1\n      0x40\n      add\n      0x40\n      mstore\n      dup1\n      0x0a\n      dup2\n      mstore\n      0x20\n      add\n      0x576f726c64205374657000000000000000000000000000000000000000000000\n      dup2\n      mstore\n      pop\n        /* \"contracts/Pool/Pool.sol\":6068:6080  return _name */\n      swap1\n      pop\n        /* \"contracts/Pool/Pool.sol\":6006:6087  function name() public pure returns (string memory) {... */\n      swap1\n      jump\t// out\n        /* \"contracts/Pool/Pool.sol\":6829:6987  function approve(address spender, uint256 amount) public override returns (bool) {... */\n    tag_40:\n        /* \"contracts/Pool/Pool.sol\":6904:6908  bool */\n      0x00\n        /* \"contracts/Pool/Pool.sol\":6920:6959  _approve(_msgSender(), spender, amount) */\n      tag_141\n        /* \"contracts/Pool/Pool.sol\":6929:6941  _msgSender() */\n      tag_142\n        /* \"contracts/Pool/Pool.sol\":6929:6939  _msgSender */\n      tag_143\n        /* \"contracts/Pool/Pool.sol\":6929:6941  _msgSender() */\n      jump\t// in\n    tag_142:\n        /* \"contracts/Pool/Pool.sol\":6943:6950  spender */\n      dup5\n        /* \"contracts/Pool/Pool.sol\":6952:6958  amount */\n      dup5\n        /* \"contracts/Pool/Pool.sol\":6920:6928  _approve */\n      tag_144\n        /* \"contracts/Pool/Pool.sol\":6920:6959  _approve(_msgSender(), spender, amount) */\n      jump\t// in\n    tag_141:\n        /* \"contracts/Pool/Pool.sol\":6976:6980  true */\n      0x01\n        /* \"contracts/Pool/Pool.sol\":6969:6980  return true */\n      swap1\n      pop\n        /* \"contracts/Pool/Pool.sol\":6829:6987  function approve(address spender, uint256 amount) public override returns (bool) {... */\n      swap3\n      swap2\n      pop\n      pop\n      jump\t// out\n        /* \"contracts/Pool/Pool.sol\":4891:4932  IUniswapV2Router02 public uniswapV2Router */\n    tag_45:\n      0x10\n      0x00\n      swap1\n      sload\n      swap1\n      0x0100\n      exp\n      swap1\n      div\n      0xffffffffffffffffffffffffffffffffffffffff\n      and\n      dup2\n      jump\t// out\n        /* \"contracts/Pool/Pool.sol\":6271:6364  function totalSupply() public pure override returns (uint256) {... */\n    tag_50:\n        /* \"contracts/Pool/Pool.sol\":6324:6331  uint256 */\n      0x00\n        /* \"contracts/Pool/Pool.sol\":4200:4213  1*10**9*10**9 */\n      0x0de0b6b3a7640000\n        /* \"contracts/Pool/Pool.sol\":6343:6357  return _tTotal */\n      swap1\n      pop\n        /* \"contracts/Pool/Pool.sol\":6271:6364  function totalSupply() public pure override returns (uint256) {... */\n      swap1\n      jump\t// out\n        /* \"contracts/Pool/Pool.sol\":6993:7302  function transferFrom(address sender, address recipient, uint256 amount) public override returns (bool) {... */\n    tag_57:\n        /* \"contracts/Pool/Pool.sol\":7091:7095  bool */\n      0x00\n        /* \"contracts/Pool/Pool.sol\":7107:7143  _transfer(sender, recipient, amount) */\n      tag_147\n        /* \"contracts/Pool/Pool.sol\":7117:7123  sender */\n      dup5\n        /* \"contracts/Pool/Pool.sol\":7125:7134  recipient */\n      dup5\n        /* \"contracts/Pool/Pool.sol\":7136:7142  amount */\n      dup5\n        /* \"contracts/Pool/Pool.sol\":7107:7116  _transfer */\n      tag_148\n        /* \"contracts/Pool/Pool.sol\":7107:7143  _transfer(sender, recipient, amount) */\n      jump\t// in\n    tag_147:\n        /* \"contracts/Pool/Pool.sol\":7153:7274  _approve(sender, _msgSender(), _allowances[sender][_msgSender()].sub(amount, \"ERC20: transfer amount exceeds allowance\")) */\n      tag_149\n        /* \"contracts/Pool/Pool.sol\":7162:7168  sender */\n      dup5\n        /* \"contracts/Pool/Pool.sol\":7170:7182  _msgSender() */\n      tag_150\n        /* \"contracts/Pool/Pool.sol\":7170:7180  _msgSender */\n      tag_143\n        /* \"contracts/Pool/Pool.sol\":7170:7182  _msgSender() */\n      jump\t// in\n    tag_150:\n        /* \"contracts/Pool/Pool.sol\":7184:7273  _allowances[sender][_msgSender()].sub(amount, \"ERC20: transfer amount exceeds allowance\") */\n      tag_151\n        /* \"contracts/Pool/Pool.sol\":7222:7228  amount */\n      dup6\n        /* \"contracts/Pool/Pool.sol\":7184:7273  _allowances[sender][_msgSender()].sub(amount, \"ERC20: transfer amount exceeds allowance\") */\n      mload(0x40)\n      dup1\n      0x60\n      add\n      0x40\n      mstore\n      dup1\n      0x28\n      dup2\n      mstore\n      0x20\n      add\n      data_974d1b4421da69cc60b481194f0dad36a5bb4e23da810da7a7fb30cdba178330\n      0x28\n      swap2\n      codecopy\n        /* \"contracts/Pool/Pool.sol\":7184:7195  _allowances */\n      0x04\n        /* \"contracts/Pool/Pool.sol\":7184:7203  _allowances[sender] */\n      0x00\n        /* \"contracts/Pool/Pool.sol\":7196:7202  sender */\n      dup12\n        /* \"contracts/Pool/Pool.sol\":7184:7203  _allowances[sender] */\n      0xffffffffffffffffffffffffffffffffffffffff\n      and\n      0xffffffffffffffffffffffffffffffffffffffff\n      and\n      dup2\n      mstore\n      0x20\n      add\n      swap1\n      dup2\n      mstore\n      0x20\n      add\n      0x00\n      keccak256\n        /* \"contracts/Pool/Pool.sol\":7184:7217  _allowances[sender][_msgSender()] */\n      0x00\n        /* \"contracts/Pool/Pool.sol\":7204:7216  _msgSender() */\n      tag_152\n        /* \"contracts/Pool/Pool.sol\":7204:7214  _msgSender */\n      tag_143\n        /* \"contracts/Pool/Pool.sol\":7204:7216  _msgSender() */\n      jump\t// in\n    tag_152:\n        /* \"contracts/Pool/Pool.sol\":7184:7217  _allowances[sender][_msgSender()] */\n      0xffffffffffffffffffffffffffffffffffffffff\n      and\n      0xffffffffffffffffffffffffffffffffffffffff\n      and\n      dup2\n      mstore\n      0x20\n      add\n      swap1\n      dup2\n      mstore\n      0x20\n      add\n      0x00\n      keccak256\n      sload\n        /* \"contracts/Pool/Pool.sol\":7184:7221  _allowances[sender][_msgSender()].sub */\n      tag_153\n      swap1\n        /* \"contracts/Pool/Pool.sol\":7184:7273  _allowances[sender][_msgSender()].sub(amount, \"ERC20: transfer amount exceeds allowance\") */\n      swap3\n      swap2\n      swap1\n      0xffffffff\n      and\n      jump\t// in\n    tag_151:\n        /* \"contracts/Pool/Pool.sol\":7153:7161  _approve */\n      tag_144\n        /* \"contracts/Pool/Pool.sol\":7153:7274  _approve(sender, _msgSender(), _allowances[sender][_msgSender()].sub(amount, \"ERC20: transfer amount exceeds allowance\")) */\n      jump\t// in\n    tag_149:\n        /* \"contracts/Pool/Pool.sol\":7291:7295  true */\n      0x01\n        /* \"contracts/Pool/Pool.sol\":7284:7295  return true */\n      swap1\n      pop\n        /* \"contracts/Pool/Pool.sol\":6993:7302  function transferFrom(address sender, address recipient, uint256 amount) public override returns (bool) {... */\n      swap4\n      swap3\n      pop\n      pop\n      pop\n      jump\t// out\n        /* \"contracts/Pool/Pool.sol\":6184:6265  function decimals() public pure returns (uint8) {... */\n    tag_61:\n        /* \"contracts/Pool/Pool.sol\":6225:6230  uint8 */\n      0x00\n        /* \"contracts/Pool/Pool.sol\":4674:4675  9 */\n      0x09\n        /* \"contracts/Pool/Pool.sol\":6242:6258  return _decimals */\n      swap1\n      pop\n        /* \"contracts/Pool/Pool.sol\":6184:6265  function decimals() public pure returns (uint8) {... */\n      swap1\n      jump\t// out\n        /* \"contracts/Pool/Pool.sol\":4938:4966  address public uniswapV2Pair */\n    tag_66:\n      0x11\n      0x00\n      swap1\n      sload\n      swap1\n      0x0100\n      exp\n      swap1\n      div\n      0xffffffffffffffffffffffffffffffffffffffff\n      and\n      dup2\n      jump\t// out\n        /* \"contracts/Pool/Pool.sol\":14749:14846  function toggleSwap(bool _swapEnabled) public onlyDev {... */\n    tag_73:\n        /* \"contracts/Pool/Pool.sol\":5903:5915  _msgSender() */\n      tag_156\n        /* \"contracts/Pool/Pool.sol\":5903:5913  _msgSender */\n      tag_143\n        /* \"contracts/Pool/Pool.sol\":5903:5915  _msgSender() */\n      jump\t// in\n    tag_156:\n        /* \"contracts/Pool/Pool.sol\":5892:5915  owner() == _msgSender() */\n      0xffffffffffffffffffffffffffffffffffffffff\n      and\n        /* \"contracts/Pool/Pool.sol\":5892:5899  owner() */\n      tag_157\n        /* \"contracts/Pool/Pool.sol\":5892:5897  owner */\n      tag_93\n        /* \"contracts/Pool/Pool.sol\":5892:5899  owner() */\n      jump\t// in\n    tag_157:\n        /* \"contracts/Pool/Pool.sol\":5892:5915  owner() == _msgSender() */\n      0xffffffffffffffffffffffffffffffffffffffff\n      and\n      eq\n        /* \"contracts/Pool/Pool.sol\":5892:5954  owner() == _msgSender() || _developmentAddress == _msgSender() */\n      dup1\n      tag_158\n      jumpi\n      pop\n        /* \"contracts/Pool/Pool.sol\":5942:5954  _msgSender() */\n      tag_159\n        /* \"contracts/Pool/Pool.sol\":5942:5952  _msgSender */\n      tag_143\n        /* \"contracts/Pool/Pool.sol\":5942:5954  _msgSender() */\n      jump\t// in\n    tag_159:\n        /* \"contracts/Pool/Pool.sol\":5919:5954  _developmentAddress == _msgSender() */\n      0xffffffffffffffffffffffffffffffffffffffff\n      and\n        /* \"contracts/Pool/Pool.sol\":5919:5938  _developmentAddress */\n      0x0e\n      0x00\n      swap1\n      sload\n      swap1\n      0x0100\n      exp\n      swap1\n      div\n      0xffffffffffffffffffffffffffffffffffffffff\n      and\n        /* \"contracts/Pool/Pool.sol\":5919:5954  _developmentAddress == _msgSender() */\n      0xffffffffffffffffffffffffffffffffffffffff\n      and\n      eq\n        /* \"contracts/Pool/Pool.sol\":5892:5954  owner() == _msgSender() || _developmentAddress == _msgSender() */\n    tag_158:\n        /* \"contracts/Pool/Pool.sol\":5884:5980  require(owner() == _msgSender() || _developmentAddress == _msgSender(), \"Caller is not the dev\") */\n      tag_160\n      jumpi\n      mload(0x40)\n      0x08c379a000000000000000000000000000000000000000000000000000000000\n      dup2\n      mstore\n      0x04\n      add\n      tag_161\n      swap1\n      tag_162\n      jump\t// in\n    tag_161:\n      mload(0x40)\n      dup1\n      swap2\n      sub\n      swap1\n      revert\n    tag_160:\n        /* \"contracts/Pool/Pool.sol\":14827:14839  _swapEnabled */\n      dup1\n        /* \"contracts/Pool/Pool.sol\":14813:14824  swapEnabled */\n      0x12\n      0x15\n        /* \"contracts/Pool/Pool.sol\":14813:14839  swapEnabled = _swapEnabled */\n      0x0100\n      exp\n      dup2\n      sload\n      dup2\n      0xff\n      mul\n      not\n      and\n      swap1\n      dup4\n      iszero\n      iszero\n      mul\n      or\n      swap1\n      sstore\n      pop\n        /* \"contracts/Pool/Pool.sol\":14749:14846  function toggleSwap(bool _swapEnabled) public onlyDev {... */\n      pop\n      jump\t// out\n        /* \"contracts/Pool/Pool.sol\":13929:14187  function manualsend() external {... */\n    tag_76:\n        /* \"contracts/Pool/Pool.sol\":13994:14013  _developmentAddress */\n      0x0e\n      0x00\n      swap1\n      sload\n      swap1\n      0x0100\n      exp\n      swap1\n      div\n      0xffffffffffffffffffffffffffffffffffffffff\n      and\n        /* \"contracts/Pool/Pool.sol\":13978:14013  _msgSender() == _developmentAddress */\n      0xffffffffffffffffffffffffffffffffffffffff\n      and\n        /* \"contracts/Pool/Pool.sol\":13978:13990  _msgSender() */\n      tag_165\n        /* \"contracts/Pool/Pool.sol\":13978:13988  _msgSender */\n      tag_143\n        /* \"contracts/Pool/Pool.sol\":13978:13990  _msgSender() */\n      jump\t// in\n    tag_165:\n        /* \"contracts/Pool/Pool.sol\":13978:14013  _msgSender() == _developmentAddress */\n      0xffffffffffffffffffffffffffffffffffffffff\n      and\n      eq\n        /* \"contracts/Pool/Pool.sol\":13978:14050  _msgSender() == _developmentAddress || _msgSender() == _marketingAddress */\n      dup1\n      tag_166\n      jumpi\n      pop\n        /* \"contracts/Pool/Pool.sol\":14033:14050  _marketingAddress */\n      0x0f\n      0x00\n      swap1\n      sload\n      swap1\n      0x0100\n      exp\n      swap1\n      div\n      0xffffffffffffffffffffffffffffffffffffffff\n      and\n        /* \"contracts/Pool/Pool.sol\":14017:14050  _msgSender() == _marketingAddress */\n      0xffffffffffffffffffffffffffffffffffffffff\n      and\n        /* \"contracts/Pool/Pool.sol\":14017:14029  _msgSender() */\n      tag_167\n        /* \"contracts/Pool/Pool.sol\":14017:14027  _msgSender */\n      tag_143\n        /* \"contracts/Pool/Pool.sol\":14017:14029  _msgSender() */\n      jump\t// in\n    tag_167:\n        /* \"contracts/Pool/Pool.sol\":14017:14050  _msgSender() == _marketingAddress */\n      0xffffffffffffffffffffffffffffffffffffffff\n      and\n      eq\n        /* \"contracts/Pool/Pool.sol\":13978:14050  _msgSender() == _developmentAddress || _msgSender() == _marketingAddress */\n    tag_166:\n        /* \"contracts/Pool/Pool.sol\":13978:14077  _msgSender() == _developmentAddress || _msgSender() == _marketingAddress || _msgSender() == owner() */\n      dup1\n      tag_168\n      jumpi\n      pop\n        /* \"contracts/Pool/Pool.sol\":14070:14077  owner() */\n      tag_169\n        /* \"contracts/Pool/Pool.sol\":14070:14075  owner */\n      tag_93\n        /* \"contracts/Pool/Pool.sol\":14070:14077  owner() */\n      jump\t// in\n    tag_169:\n        /* \"contracts/Pool/Pool.sol\":14054:14077  _msgSender() == owner() */\n      0xffffffffffffffffffffffffffffffffffffffff\n      and\n        /* \"contracts/Pool/Pool.sol\":14054:14066  _msgSender() */\n      tag_170\n        /* \"contracts/Pool/Pool.sol\":14054:14064  _msgSender */\n      tag_143\n        /* \"contracts/Pool/Pool.sol\":14054:14066  _msgSender() */\n      jump\t// in\n    tag_170:\n        /* \"contracts/Pool/Pool.sol\":14054:14077  _msgSender() == owner() */\n      0xffffffffffffffffffffffffffffffffffffffff\n      and\n      eq\n        /* \"contracts/Pool/Pool.sol\":13978:14077  _msgSender() == _developmentAddress || _msgSender() == _marketingAddress || _msgSender() == owner() */\n    tag_168:\n        /* \"contracts/Pool/Pool.sol\":13970:14078  require(_msgSender() == _developmentAddress || _msgSender() == _marketingAddress || _msgSender() == owner()) */\n      tag_171\n      jumpi\n      0x00\n      dup1\n      revert\n    tag_171:\n        /* \"contracts/Pool/Pool.sol\":14088:14114  uint256 contractETHBalance */\n      0x00\n        /* \"contracts/Pool/Pool.sol\":14117:14138  address(this).balance */\n      selfbalance\n        /* \"contracts/Pool/Pool.sol\":14088:14138  uint256 contractETHBalance = address(this).balance */\n      swap1\n      pop\n        /* \"contracts/Pool/Pool.sol\":14148:14180  sendETHToFee(contractETHBalance) */\n      tag_172\n        /* \"contracts/Pool/Pool.sol\":14161:14179  contractETHBalance */\n      dup2\n        /* \"contracts/Pool/Pool.sol\":14148:14160  sendETHToFee */\n      tag_173\n        /* \"contracts/Pool/Pool.sol\":14148:14180  sendETHToFee(contractETHBalance) */\n      jump\t// in\n    tag_172:\n        /* \"contracts/Pool/Pool.sol\":13960:14187  {... */\n      pop\n        /* \"contracts/Pool/Pool.sol\":13929:14187  function manualsend() external {... */\n      jump\t// out\n        /* \"contracts/Pool/Pool.sol\":6370:6506  function balanceOf(address account) public view override returns (uint256) {... */\n    tag_81:\n        /* \"contracts/Pool/Pool.sol\":6436:6443  uint256 */\n      0x00\n        /* \"contracts/Pool/Pool.sol\":6462:6499  tokenFromReflection(_rOwned[account]) */\n      tag_175\n        /* \"contracts/Pool/Pool.sol\":6482:6489  _rOwned */\n      0x02\n        /* \"contracts/Pool/Pool.sol\":6482:6498  _rOwned[account] */\n      0x00\n        /* \"contracts/Pool/Pool.sol\":6490:6497  account */\n      dup5\n        /* \"contracts/Pool/Pool.sol\":6482:6498  _rOwned[account] */\n      0xffffffffffffffffffffffffffffffffffffffff\n      and\n      0xffffffffffffffffffffffffffffffffffffffff\n      and\n      dup2\n      mstore\n      0x20\n      add\n      swap1\n      dup2\n      mstore\n      0x20\n      add\n      0x00\n      keccak256\n      sload\n        /* \"contracts/Pool/Pool.sol\":6462:6481  tokenFromReflection */\n      tag_176\n        /* \"contracts/Pool/Pool.sol\":6462:6499  tokenFromReflection(_rOwned[account]) */\n      jump\t// in\n    tag_175:\n        /* \"contracts/Pool/Pool.sol\":6455:6499  return tokenFromReflection(_rOwned[account]) */\n      swap1\n      pop\n        /* \"contracts/Pool/Pool.sol\":6370:6506  function balanceOf(address account) public view override returns (uint256) {... */\n      swap2\n      swap1\n      pop\n      jump\t// out\n        /* \"contracts/Pool/Pool.sol\":3381:3526  function renounceOwnership() public virtual onlyOwner {... */\n    tag_85:\n        /* \"contracts/Pool/Pool.sol\":3317:3329  _msgSender() */\n      tag_178\n        /* \"contracts/Pool/Pool.sol\":3317:3327  _msgSender */\n      tag_143\n        /* \"contracts/Pool/Pool.sol\":3317:3329  _msgSender() */\n      jump\t// in\n    tag_178:\n        /* \"contracts/Pool/Pool.sol\":3307:3329  _owner == _msgSender() */\n      0xffffffffffffffffffffffffffffffffffffffff\n      and\n        /* \"contracts/Pool/Pool.sol\":3307:3313  _owner */\n      0x00\n      dup1\n      sload\n      swap1\n      0x0100\n      exp\n      swap1\n      div\n      0xffffffffffffffffffffffffffffffffffffffff\n      and\n        /* \"contracts/Pool/Pool.sol\":3307:3329  _owner == _msgSender() */\n      0xffffffffffffffffffffffffffffffffffffffff\n      and\n      eq\n        /* \"contracts/Pool/Pool.sol\":3299:3357  require(_owner == _msgSender(), \"Caller is not the owner\") */\n      tag_179\n      jumpi\n      mload(0x40)\n      0x08c379a000000000000000000000000000000000000000000000000000000000\n      dup2\n      mstore\n      0x04\n      add\n      tag_180\n      swap1\n      tag_181\n      jump\t// in\n    tag_180:\n      mload(0x40)\n      dup1\n      swap2\n      sub\n      swap1\n      revert\n    tag_179:\n        /* \"contracts/Pool/Pool.sol\":3487:3488  0 */\n      0x00\n        /* \"contracts/Pool/Pool.sol\":3450:3490  OwnershipTransferred(_owner, address(0)) */\n      0xffffffffffffffffffffffffffffffffffffffff\n      and\n        /* \"contracts/Pool/Pool.sol\":3471:3477  _owner */\n      0x00\n      dup1\n      sload\n      swap1\n      0x0100\n      exp\n      swap1\n      div\n      0xffffffffffffffffffffffffffffffffffffffff\n      and\n        /* \"contracts/Pool/Pool.sol\":3450:3490  OwnershipTransferred(_owner, address(0)) */\n      0xffffffffffffffffffffffffffffffffffffffff\n      and\n      0x8be0079c531659141344cd1fd0a4f28419497f9722a3daafe3b4186f6b6457e0\n      mload(0x40)\n      mload(0x40)\n      dup1\n      swap2\n      sub\n      swap1\n      log3\n        /* \"contracts/Pool/Pool.sol\":3517:3518  0 */\n      0x00\n        /* \"contracts/Pool/Pool.sol\":3500:3506  _owner */\n      dup1\n      0x00\n        /* \"contracts/Pool/Pool.sol\":3500:3519  _owner = address(0) */\n      0x0100\n      exp\n      dup2\n      sload\n      dup2\n      0xffffffffffffffffffffffffffffffffffffffff\n      mul\n      not\n      and\n      swap1\n      dup4\n      0xffffffffffffffffffffffffffffffffffffffff\n      and\n      mul\n      or\n      swap1\n      sstore\n      pop\n        /* \"contracts/Pool/Pool.sol\":3381:3526  function renounceOwnership() public virtual onlyOwner {... */\n      jump\t// out\n        /* \"contracts/Pool/Pool.sol\":10878:11111  function setNewMarketingAddress(address payable markt) public onlyDev() {... */\n    tag_90:\n        /* \"contracts/Pool/Pool.sol\":5903:5915  _msgSender() */\n      tag_184\n        /* \"contracts/Pool/Pool.sol\":5903:5913  _msgSender */\n      tag_143\n        /* \"contracts/Pool/Pool.sol\":5903:5915  _msgSender() */\n      jump\t// in\n    tag_184:\n        /* \"contracts/Pool/Pool.sol\":5892:5915  owner() == _msgSender() */\n      0xffffffffffffffffffffffffffffffffffffffff\n      and\n        /* \"contracts/Pool/Pool.sol\":5892:5899  owner() */\n      tag_185\n        /* \"contracts/Pool/Pool.sol\":5892:5897  owner */\n      tag_93\n        /* \"contracts/Pool/Pool.sol\":5892:5899  owner() */\n      jump\t// in\n    tag_185:\n        /* \"contracts/Pool/Pool.sol\":5892:5915  owner() == _msgSender() */\n      0xffffffffffffffffffffffffffffffffffffffff\n      and\n      eq\n        /* \"contracts/Pool/Pool.sol\":5892:5954  owner() == _msgSender() || _developmentAddress == _msgSender() */\n      dup1\n      tag_186\n      jumpi\n      pop\n        /* \"contracts/Pool/Pool.sol\":5942:5954  _msgSender() */\n      tag_187\n        /* \"contracts/Pool/Pool.sol\":5942:5952  _msgSender */\n      tag_143\n        /* \"contracts/Pool/Pool.sol\":5942:5954  _msgSender() */\n      jump\t// in\n    tag_187:\n        /* \"contracts/Pool/Pool.sol\":5919:5954  _developmentAddress == _msgSender() */\n      0xffffffffffffffffffffffffffffffffffffffff\n      and\n        /* \"contracts/Pool/Pool.sol\":5919:5938  _developmentAddress */\n      0x0e\n      0x00\n      swap1\n      sload\n      swap1\n      0x0100\n      exp\n      swap1\n      div\n      0xffffffffffffffffffffffffffffffffffffffff\n      and\n        /* \"contracts/Pool/Pool.sol\":5919:5954  _developmentAddress == _msgSender() */\n      0xffffffffffffffffffffffffffffffffffffffff\n      and\n      eq\n        /* \"contracts/Pool/Pool.sol\":5892:5954  owner() == _msgSender() || _developmentAddress == _msgSender() */\n    tag_186:\n        /* \"contracts/Pool/Pool.sol\":5884:5980  require(owner() == _msgSender() || _developmentAddress == _msgSender(), \"Caller is not the dev\") */\n      tag_188\n      jumpi\n      mload(0x40)\n      0x08c379a000000000000000000000000000000000000000000000000000000000\n      dup2\n      mstore\n      0x04\n      add\n      tag_189\n      swap1\n      tag_162\n      jump\t// in\n    tag_189:\n      mload(0x40)\n      dup1\n      swap2\n      sub\n      swap1\n      revert\n    tag_188:\n        /* \"contracts/Pool/Pool.sol\":11008:11013  markt */\n      dup1\n        /* \"contracts/Pool/Pool.sol\":10965:11014  marketingAddressUpdated(_marketingAddress, markt) */\n      0xffffffffffffffffffffffffffffffffffffffff\n      and\n        /* \"contracts/Pool/Pool.sol\":10989:11006  _marketingAddress */\n      0x0f\n      0x00\n      swap1\n      sload\n      swap1\n      0x0100\n      exp\n      swap1\n      div\n      0xffffffffffffffffffffffffffffffffffffffff\n      and\n        /* \"contracts/Pool/Pool.sol\":10965:11014  marketingAddressUpdated(_marketingAddress, markt) */\n      0xffffffffffffffffffffffffffffffffffffffff\n      and\n      0xa64373a629bc0c09eacf8a9cc2c7b070fa0a8b7e2e9b8aaee408a3c02eb1676b\n      mload(0x40)\n      mload(0x40)\n      dup1\n      swap2\n      sub\n      swap1\n      log3\n        /* \"contracts/Pool/Pool.sol\":11045:11050  markt */\n      dup1\n        /* \"contracts/Pool/Pool.sol\":11025:11042  _marketingAddress */\n      0x0f\n      0x00\n        /* \"contracts/Pool/Pool.sol\":11025:11050  _marketingAddress = markt */\n      0x0100\n      exp\n      dup2\n      sload\n      dup2\n      0xffffffffffffffffffffffffffffffffffffffff\n      mul\n      not\n      and\n      swap1\n      dup4\n      0xffffffffffffffffffffffffffffffffffffffff\n      and\n      mul\n      or\n      swap1\n      sstore\n      pop\n        /* \"contracts/Pool/Pool.sol\":11100:11104  true */\n      0x01\n        /* \"contracts/Pool/Pool.sol\":11060:11078  _isExcludedFromFee */\n      0x05\n        /* \"contracts/Pool/Pool.sol\":11060:11097  _isExcludedFromFee[_marketingAddress] */\n      0x00\n        /* \"contracts/Pool/Pool.sol\":11079:11096  _marketingAddress */\n      0x0f\n      0x00\n      swap1\n      sload\n      swap1\n      0x0100\n      exp\n      swap1\n      div\n      0xffffffffffffffffffffffffffffffffffffffff\n      and\n        /* \"contracts/Pool/Pool.sol\":11060:11097  _isExcludedFromFee[_marketingAddress] */\n      0xffffffffffffffffffffffffffffffffffffffff\n      and\n      0xffffffffffffffffffffffffffffffffffffffff\n      and\n      dup2\n      mstore\n      0x20\n      add\n      swap1\n      dup2\n      mstore\n      0x20\n      add\n      0x00\n      keccak256\n      0x00\n        /* \"contracts/Pool/Pool.sol\":11060:11104  _isExcludedFromFee[_marketingAddress] = true */\n      0x0100\n      exp\n      dup2\n      sload\n      dup2\n      0xff\n      mul\n      not\n      and\n      swap1\n      dup4\n      iszero\n      iszero\n      mul\n      or\n      swap1\n      sstore\n      pop\n        /* \"contracts/Pool/Pool.sol\":10878:11111  function setNewMarketingAddress(address payable markt) public onlyDev() {... */\n      pop\n      jump\t// out\n        /* \"contracts/Pool/Pool.sol\":3185:3262  function owner() public view returns (address) {... */\n    tag_93:\n        /* \"contracts/Pool/Pool.sol\":3223:3230  address */\n      0x00\n        /* \"contracts/Pool/Pool.sol\":3249:3255  _owner */\n      dup1\n      0x00\n      swap1\n      sload\n      swap1\n      0x0100\n      exp\n      swap1\n      div\n      0xffffffffffffffffffffffffffffffffffffffff\n      and\n        /* \"contracts/Pool/Pool.sol\":3242:3255  return _owner */\n      swap1\n      pop\n        /* \"contracts/Pool/Pool.sol\":3185:3262  function owner() public view returns (address) {... */\n      swap1\n      jump\t// out\n        /* \"contracts/Pool/Pool.sol\":6093:6178  function symbol() public pure returns (string memory) {... */\n    tag_97:\n        /* \"contracts/Pool/Pool.sol\":6132:6145  string memory */\n      0x60\n        /* \"contracts/Pool/Pool.sol\":6164:6171  _symbol */\n      mload(0x40)\n      dup1\n      0x40\n      add\n      0x40\n      mstore\n      dup1\n      0x03\n      dup2\n      mstore\n      0x20\n      add\n      0x5753500000000000000000000000000000000000000000000000000000000000\n      dup2\n      mstore\n      pop\n        /* \"contracts/Pool/Pool.sol\":6157:6171  return _symbol */\n      swap1\n      pop\n        /* \"contracts/Pool/Pool.sol\":6093:6178  function symbol() public pure returns (string memory) {... */\n      swap1\n      jump\t// out\n        /* \"contracts/Pool/Pool.sol\":14197:14739  function setFee(uint256 redisFeeOnBuy, uint256 redisFeeOnSell, uint256 taxFeeOnBuy, uint256 taxFeeOnSell) public onlyDev {... */\n    tag_103:\n        /* \"contracts/Pool/Pool.sol\":5903:5915  _msgSender() */\n      tag_194\n        /* \"contracts/Pool/Pool.sol\":5903:5913  _msgSender */\n      tag_143\n        /* \"contracts/Pool/Pool.sol\":5903:5915  _msgSender() */\n      jump\t// in\n    tag_194:\n        /* \"contracts/Pool/Pool.sol\":5892:5915  owner() == _msgSender() */\n      0xffffffffffffffffffffffffffffffffffffffff\n      and\n        /* \"contracts/Pool/Pool.sol\":5892:5899  owner() */\n      tag_195\n        /* \"contracts/Pool/Pool.sol\":5892:5897  owner */\n      tag_93\n        /* \"contracts/Pool/Pool.sol\":5892:5899  owner() */\n      jump\t// in\n    tag_195:\n        /* \"contracts/Pool/Pool.sol\":5892:5915  owner() == _msgSender() */\n      0xffffffffffffffffffffffffffffffffffffffff\n      and\n      eq\n        /* \"contracts/Pool/Pool.sol\":5892:5954  owner() == _msgSender() || _developmentAddress == _msgSender() */\n      dup1\n      tag_196\n      jumpi\n      pop\n        /* \"contracts/Pool/Pool.sol\":5942:5954  _msgSender() */\n      tag_197\n        /* \"contracts/Pool/Pool.sol\":5942:5952  _msgSender */\n      tag_143\n        /* \"contracts/Pool/Pool.sol\":5942:5954  _msgSender() */\n      jump\t// in\n    tag_197:\n        /* \"contracts/Pool/Pool.sol\":5919:5954  _developmentAddress == _msgSender() */\n      0xffffffffffffffffffffffffffffffffffffffff\n      and\n        /* \"contracts/Pool/Pool.sol\":5919:5938  _developmentAddress */\n      0x0e\n      0x00\n      swap1\n      sload\n      swap1\n      0x0100\n      exp\n      swap1\n      div\n      0xffffffffffffffffffffffffffffffffffffffff\n      and\n        /* \"contracts/Pool/Pool.sol\":5919:5954  _developmentAddress == _msgSender() */\n      0xffffffffffffffffffffffffffffffffffffffff\n      and\n      eq\n        /* \"contracts/Pool/Pool.sol\":5892:5954  owner() == _msgSender() || _developmentAddress == _msgSender() */\n    tag_196:\n        /* \"contracts/Pool/Pool.sol\":5884:5980  require(owner() == _msgSender() || _developmentAddress == _msgSender(), \"Caller is not the dev\") */\n      tag_198\n      jumpi\n      mload(0x40)\n      0x08c379a000000000000000000000000000000000000000000000000000000000\n      dup2\n      mstore\n      0x04\n      add\n      tag_199\n      swap1\n      tag_162\n      jump\t// in\n    tag_199:\n      mload(0x40)\n      dup1\n      swap2\n      sub\n      swap1\n      revert\n    tag_198:\n        /* \"contracts/Pool/Pool.sol\":14349:14351  11 */\n      0x0b\n        /* \"contracts/Pool/Pool.sol\":14333:14346  redisFeeOnBuy */\n      dup5\n        /* \"contracts/Pool/Pool.sol\":14333:14351  redisFeeOnBuy < 11 */\n      lt\n        /* \"contracts/Pool/Pool.sol\":14325:14385  require(redisFeeOnBuy < 11, \"Redis cannot be more than 10.\") */\n      tag_201\n      jumpi\n      mload(0x40)\n      0x08c379a000000000000000000000000000000000000000000000000000000000\n      dup2\n      mstore\n      0x04\n      add\n      tag_202\n      swap1\n      tag_203\n      jump\t// in\n    tag_202:\n      mload(0x40)\n      dup1\n      swap2\n      sub\n      swap1\n      revert\n    tag_201:\n        /* \"contracts/Pool/Pool.sol\":14417:14419  11 */\n      0x0b\n        /* \"contracts/Pool/Pool.sol\":14400:14414  redisFeeOnSell */\n      dup4\n        /* \"contracts/Pool/Pool.sol\":14400:14419  redisFeeOnSell < 11 */\n      lt\n        /* \"contracts/Pool/Pool.sol\":14392:14453  require(redisFeeOnSell < 11, \"Redis cannot be more than 10.\") */\n      tag_204\n      jumpi\n      mload(0x40)\n      0x08c379a000000000000000000000000000000000000000000000000000000000\n      dup2\n      mstore\n      0x04\n      add\n      tag_205\n      swap1\n      tag_203\n      jump\t// in\n    tag_205:\n      mload(0x40)\n      dup1\n      swap2\n      sub\n      swap1\n      revert\n    tag_204:\n        /* \"contracts/Pool/Pool.sol\":14482:14483  7 */\n      0x07\n        /* \"contracts/Pool/Pool.sol\":14468:14479  taxFeeOnBuy */\n      dup3\n        /* \"contracts/Pool/Pool.sol\":14468:14483  taxFeeOnBuy < 7 */\n      lt\n        /* \"contracts/Pool/Pool.sol\":14460:14514  require(taxFeeOnBuy < 7, \"Tax cannot be more than 6.\") */\n      tag_206\n      jumpi\n      mload(0x40)\n      0x08c379a000000000000000000000000000000000000000000000000000000000\n      dup2\n      mstore\n      0x04\n      add\n      tag_207\n      swap1\n      tag_208\n      jump\t// in\n    tag_207:\n      mload(0x40)\n      dup1\n      swap2\n      sub\n      swap1\n      revert\n    tag_206:\n        /* \"contracts/Pool/Pool.sol\":14544:14545  7 */\n      0x07\n        /* \"contracts/Pool/Pool.sol\":14529:14541  taxFeeOnSell */\n      dup2\n        /* \"contracts/Pool/Pool.sol\":14529:14545  taxFeeOnSell < 7 */\n      lt\n        /* \"contracts/Pool/Pool.sol\":14521:14576  require(taxFeeOnSell < 7, \"Tax cannot be more than 6.\") */\n      tag_209\n      jumpi\n      mload(0x40)\n      0x08c379a000000000000000000000000000000000000000000000000000000000\n      dup2\n      mstore\n      0x04\n      add\n      tag_210\n      swap1\n      tag_208\n      jump\t// in\n    tag_210:\n      mload(0x40)\n      dup1\n      swap2\n      sub\n      swap1\n      revert\n    tag_209:\n        /* \"contracts/Pool/Pool.sol\":14603:14616  redisFeeOnBuy */\n      dup4\n        /* \"contracts/Pool/Pool.sol\":14586:14600  _redisFeeOnBuy */\n      0x08\n        /* \"contracts/Pool/Pool.sol\":14586:14616  _redisFeeOnBuy = redisFeeOnBuy */\n      dup2\n      swap1\n      sstore\n      pop\n        /* \"contracts/Pool/Pool.sol\":14644:14658  redisFeeOnSell */\n      dup3\n        /* \"contracts/Pool/Pool.sol\":14626:14641  _redisFeeOnSell */\n      0x0a\n        /* \"contracts/Pool/Pool.sol\":14626:14658  _redisFeeOnSell = redisFeeOnSell */\n      dup2\n      swap1\n      sstore\n      pop\n        /* \"contracts/Pool/Pool.sol\":14683:14694  taxFeeOnBuy */\n      dup2\n        /* \"contracts/Pool/Pool.sol\":14668:14680  _taxFeeOnBuy */\n      0x09\n        /* \"contracts/Pool/Pool.sol\":14668:14694  _taxFeeOnBuy = taxFeeOnBuy */\n      dup2\n      swap1\n      sstore\n      pop\n        /* \"contracts/Pool/Pool.sol\":14720:14732  taxFeeOnSell */\n      dup1\n        /* \"contracts/Pool/Pool.sol\":14704:14717  _taxFeeOnSell */\n      0x0b\n        /* \"contracts/Pool/Pool.sol\":14704:14732  _taxFeeOnSell = taxFeeOnSell */\n      dup2\n      swap1\n      sstore\n      pop\n        /* \"contracts/Pool/Pool.sol\":14197:14739  function setFee(uint256 redisFeeOnBuy, uint256 redisFeeOnSell, uint256 taxFeeOnBuy, uint256 taxFeeOnSell) public onlyDev {... */\n      pop\n      pop\n      pop\n      pop\n      jump\t// out\n        /* \"contracts/Pool/Pool.sol\":6512:6676  function transfer(address recipient, uint256 amount) public override returns (bool) {... */\n    tag_107:\n        /* \"contracts/Pool/Pool.sol\":6590:6594  bool */\n      0x00\n        /* \"contracts/Pool/Pool.sol\":6606:6648  _transfer(_msgSender(), recipient, amount) */\n      tag_212\n        /* \"contracts/Pool/Pool.sol\":6616:6628  _msgSender() */\n      tag_213\n        /* \"contracts/Pool/Pool.sol\":6616:6626  _msgSender */\n      tag_143\n        /* \"contracts/Pool/Pool.sol\":6616:6628  _msgSender() */\n      jump\t// in\n    tag_213:\n        /* \"contracts/Pool/Pool.sol\":6630:6639  recipient */\n      dup5\n        /* \"contracts/Pool/Pool.sol\":6641:6647  amount */\n      dup5\n        /* \"contracts/Pool/Pool.sol\":6606:6615  _transfer */\n      tag_148\n        /* \"contracts/Pool/Pool.sol\":6606:6648  _transfer(_msgSender(), recipient, amount) */\n      jump\t// in\n    tag_212:\n        /* \"contracts/Pool/Pool.sol\":6665:6669  true */\n      0x01\n        /* \"contracts/Pool/Pool.sol\":6658:6669  return true */\n      swap1\n      pop\n        /* \"contracts/Pool/Pool.sol\":6512:6676  function transfer(address recipient, uint256 amount) public override returns (bool) {... */\n      swap3\n      swap2\n      pop\n      pop\n      jump\t// out\n        /* \"contracts/Pool/Pool.sol\":10565:10786  function setNewDevAddress(address payable dev) public onlyDev() {... */\n    tag_112:\n        /* \"contracts/Pool/Pool.sol\":5903:5915  _msgSender() */\n      tag_215\n        /* \"contracts/Pool/Pool.sol\":5903:5913  _msgSender */\n      tag_143\n        /* \"contracts/Pool/Pool.sol\":5903:5915  _msgSender() */\n      jump\t// in\n    tag_215:\n        /* \"contracts/Pool/Pool.sol\":5892:5915  owner() == _msgSender() */\n      0xffffffffffffffffffffffffffffffffffffffff\n      and\n        /* \"contracts/Pool/Pool.sol\":5892:5899  owner() */\n      tag_216\n        /* \"contracts/Pool/Pool.sol\":5892:5897  owner */\n      tag_93\n        /* \"contracts/Pool/Pool.sol\":5892:5899  owner() */\n      jump\t// in\n    tag_216:\n        /* \"contracts/Pool/Pool.sol\":5892:5915  owner() == _msgSender() */\n      0xffffffffffffffffffffffffffffffffffffffff\n      and\n      eq\n        /* \"contracts/Pool/Pool.sol\":5892:5954  owner() == _msgSender() || _developmentAddress == _msgSender() */\n      dup1\n      tag_217\n      jumpi\n      pop\n        /* \"contracts/Pool/Pool.sol\":5942:5954  _msgSender() */\n      tag_218\n        /* \"contracts/Pool/Pool.sol\":5942:5952  _msgSender */\n      tag_143\n        /* \"contracts/Pool/Pool.sol\":5942:5954  _msgSender() */\n      jump\t// in\n    tag_218:\n        /* \"contracts/Pool/Pool.sol\":5919:5954  _developmentAddress == _msgSender() */\n      0xffffffffffffffffffffffffffffffffffffffff\n      and\n        /* \"contracts/Pool/Pool.sol\":5919:5938  _developmentAddress */\n      0x0e\n      0x00\n      swap1\n      sload\n      swap1\n      0x0100\n      exp\n      swap1\n      div\n      0xffffffffffffffffffffffffffffffffffffffff\n      and\n        /* \"contracts/Pool/Pool.sol\":5919:5954  _developmentAddress == _msgSender() */\n      0xffffffffffffffffffffffffffffffffffffffff\n      and\n      eq\n        /* \"contracts/Pool/Pool.sol\":5892:5954  owner() == _msgSender() || _developmentAddress == _msgSender() */\n    tag_217:\n        /* \"contracts/Pool/Pool.sol\":5884:5980  require(owner() == _msgSender() || _developmentAddress == _msgSender(), \"Caller is not the dev\") */\n      tag_219\n      jumpi\n      mload(0x40)\n      0x08c379a000000000000000000000000000000000000000000000000000000000\n      dup2\n      mstore\n      0x04\n      add\n      tag_220\n      swap1\n      tag_162\n      jump\t// in\n    tag_220:\n      mload(0x40)\n      dup1\n      swap2\n      sub\n      swap1\n      revert\n    tag_219:\n        /* \"contracts/Pool/Pool.sol\":10683:10686  dev */\n      dup1\n        /* \"contracts/Pool/Pool.sol\":10644:10687  devAddressUpdated(_developmentAddress, dev) */\n      0xffffffffffffffffffffffffffffffffffffffff\n      and\n        /* \"contracts/Pool/Pool.sol\":10662:10681  _developmentAddress */\n      0x0e\n      0x00\n      swap1\n      sload\n      swap1\n      0x0100\n      exp\n      swap1\n      div\n      0xffffffffffffffffffffffffffffffffffffffff\n      and\n        /* \"contracts/Pool/Pool.sol\":10644:10687  devAddressUpdated(_developmentAddress, dev) */\n      0xffffffffffffffffffffffffffffffffffffffff\n      and\n      0xfbbc329437e8c79f847e170730ad6dd04106b7511cad70d06d635886d92de83c\n      mload(0x40)\n      mload(0x40)\n      dup1\n      swap2\n      sub\n      swap1\n      log3\n        /* \"contracts/Pool/Pool.sol\":10720:10723  dev */\n      dup1\n        /* \"contracts/Pool/Pool.sol\":10698:10717  _developmentAddress */\n      0x0e\n      0x00\n        /* \"contracts/Pool/Pool.sol\":10698:10723  _developmentAddress = dev */\n      0x0100\n      exp\n      dup2\n      sload\n      dup2\n      0xffffffffffffffffffffffffffffffffffffffff\n      mul\n      not\n      and\n      swap1\n      dup4\n      0xffffffffffffffffffffffffffffffffffffffff\n      and\n      mul\n      or\n      swap1\n      sstore\n      pop\n        /* \"contracts/Pool/Pool.sol\":10775:10779  true */\n      0x01\n        /* \"contracts/Pool/Pool.sol\":10733:10751  _isExcludedFromFee */\n      0x05\n        /* \"contracts/Pool/Pool.sol\":10733:10772  _isExcludedFromFee[_developmentAddress] */\n      0x00\n        /* \"contracts/Pool/Pool.sol\":10752:10771  _developmentAddress */\n      0x0e\n      0x00\n      swap1\n      sload\n      swap1\n      0x0100\n      exp\n      swap1\n      div\n      0xffffffffffffffffffffffffffffffffffffffff\n      and\n        /* \"contracts/Pool/Pool.sol\":10733:10772  _isExcludedFromFee[_developmentAddress] */\n      0xffffffffffffffffffffffffffffffffffffffff\n      and\n      0xffffffffffffffffffffffffffffffffffffffff\n      and\n      dup2\n      mstore\n      0x20\n      add\n      swap1\n      dup2\n      mstore\n      0x20\n      add\n      0x00\n      keccak256\n      0x00\n        /* \"contracts/Pool/Pool.sol\":10733:10779  _isExcludedFromFee[_developmentAddress] = true */\n      0x0100\n      exp\n      dup2\n      sload\n      dup2\n      0xff\n      mul\n      not\n      and\n      swap1\n      dup4\n      iszero\n      iszero\n      mul\n      or\n      swap1\n      sstore\n      pop\n        /* \"contracts/Pool/Pool.sol\":10565:10786  function setNewDevAddress(address payable dev) public onlyDev() {... */\n      pop\n      jump\t// out\n        /* \"contracts/Pool/Pool.sol\":13664:13923  function manualswap() external {... */\n    tag_115:\n        /* \"contracts/Pool/Pool.sol\":13729:13748  _developmentAddress */\n      0x0e\n      0x00\n      swap1\n      sload\n      swap1\n      0x0100\n      exp\n      swap1\n      div\n      0xffffffffffffffffffffffffffffffffffffffff\n      and\n        /* \"contracts/Pool/Pool.sol\":13713:13748  _msgSender() == _developmentAddress */\n      0xffffffffffffffffffffffffffffffffffffffff\n      and\n        /* \"contracts/Pool/Pool.sol\":13713:13725  _msgSender() */\n      tag_223\n        /* \"contracts/Pool/Pool.sol\":13713:13723  _msgSender */\n      tag_143\n        /* \"contracts/Pool/Pool.sol\":13713:13725  _msgSender() */\n      jump\t// in\n    tag_223:\n        /* \"contracts/Pool/Pool.sol\":13713:13748  _msgSender() == _developmentAddress */\n      0xffffffffffffffffffffffffffffffffffffffff\n      and\n      eq\n        /* \"contracts/Pool/Pool.sol\":13713:13785  _msgSender() == _developmentAddress || _msgSender() == _marketingAddress */\n      dup1\n      tag_224\n      jumpi\n      pop\n        /* \"contracts/Pool/Pool.sol\":13768:13785  _marketingAddress */\n      0x0f\n      0x00\n      swap1\n      sload\n      swap1\n      0x0100\n      exp\n      swap1\n      div\n      0xffffffffffffffffffffffffffffffffffffffff\n      and\n        /* \"contracts/Pool/Pool.sol\":13752:13785  _msgSender() == _marketingAddress */\n      0xffffffffffffffffffffffffffffffffffffffff\n      and\n        /* \"contracts/Pool/Pool.sol\":13752:13764  _msgSender() */\n      tag_225\n        /* \"contracts/Pool/Pool.sol\":13752:13762  _msgSender */\n      tag_143\n        /* \"contracts/Pool/Pool.sol\":13752:13764  _msgSender() */\n      jump\t// in\n    tag_225:\n        /* \"contracts/Pool/Pool.sol\":13752:13785  _msgSender() == _marketingAddress */\n      0xffffffffffffffffffffffffffffffffffffffff\n      and\n      eq\n        /* \"contracts/Pool/Pool.sol\":13713:13785  _msgSender() == _developmentAddress || _msgSender() == _marketingAddress */\n    tag_224:\n        /* \"contracts/Pool/Pool.sol\":13713:13812  _msgSender() == _developmentAddress || _msgSender() == _marketingAddress || _msgSender() == owner() */\n      dup1\n      tag_226\n      jumpi\n      pop\n        /* \"contracts/Pool/Pool.sol\":13805:13812  owner() */\n      tag_227\n        /* \"contracts/Pool/Pool.sol\":13805:13810  owner */\n      tag_93\n        /* \"contracts/Pool/Pool.sol\":13805:13812  owner() */\n      jump\t// in\n    tag_227:\n        /* \"contracts/Pool/Pool.sol\":13789:13812  _msgSender() == owner() */\n      0xffffffffffffffffffffffffffffffffffffffff\n      and\n        /* \"contracts/Pool/Pool.sol\":13789:13801  _msgSender() */\n      tag_228\n        /* \"contracts/Pool/Pool.sol\":13789:13799  _msgSender */\n      tag_143\n        /* \"contracts/Pool/Pool.sol\":13789:13801  _msgSender() */\n      jump\t// in\n    tag_228:\n        /* \"contracts/Pool/Pool.sol\":13789:13812  _msgSender() == owner() */\n      0xffffffffffffffffffffffffffffffffffffffff\n      and\n      eq\n        /* \"contracts/Pool/Pool.sol\":13713:13812  _msgSender() == _developmentAddress || _msgSender() == _marketingAddress || _msgSender() == owner() */\n    tag_226:\n        /* \"contracts/Pool/Pool.sol\":13705:13813  require(_msgSender() == _developmentAddress || _msgSender() == _marketingAddress || _msgSender() == owner()) */\n      tag_229\n      jumpi\n      0x00\n      dup1\n      revert\n    tag_229:\n        /* \"contracts/Pool/Pool.sol\":13823:13846  uint256 contractBalance */\n      0x00\n        /* \"contracts/Pool/Pool.sol\":13849:13873  balanceOf(address(this)) */\n      tag_230\n        /* \"contracts/Pool/Pool.sol\":13867:13871  this */\n      address\n        /* \"contracts/Pool/Pool.sol\":13849:13858  balanceOf */\n      tag_81\n        /* \"contracts/Pool/Pool.sol\":13849:13873  balanceOf(address(this)) */\n      jump\t// in\n    tag_230:\n        /* \"contracts/Pool/Pool.sol\":13823:13873  uint256 contractBalance = balanceOf(address(this)) */\n      swap1\n      pop\n        /* \"contracts/Pool/Pool.sol\":13883:13916  swapTokensForEth(contractBalance) */\n      tag_231\n        /* \"contracts/Pool/Pool.sol\":13900:13915  contractBalance */\n      dup2\n        /* \"contracts/Pool/Pool.sol\":13883:13899  swapTokensForEth */\n      tag_232\n        /* \"contracts/Pool/Pool.sol\":13883:13916  swapTokensForEth(contractBalance) */\n      jump\t// in\n    tag_231:\n        /* \"contracts/Pool/Pool.sol\":13695:13923  {... */\n      pop\n        /* \"contracts/Pool/Pool.sol\":13664:13923  function manualswap() external {... */\n      jump\t// out\n        /* \"contracts/Pool/Pool.sol\":14852:15082  function excludeMultipleAccountsFromFees(address[] calldata accounts, bool excluded) public onlyOwner {... */\n    tag_120:\n        /* \"contracts/Pool/Pool.sol\":3317:3329  _msgSender() */\n      tag_234\n        /* \"contracts/Pool/Pool.sol\":3317:3327  _msgSender */\n      tag_143\n        /* \"contracts/Pool/Pool.sol\":3317:3329  _msgSender() */\n      jump\t// in\n    tag_234:\n        /* \"contracts/Pool/Pool.sol\":3307:3329  _owner == _msgSender() */\n      0xffffffffffffffffffffffffffffffffffffffff\n      and\n        /* \"contracts/Pool/Pool.sol\":3307:3313  _owner */\n      0x00\n      dup1\n      sload\n      swap1\n      0x0100\n      exp\n      swap1\n      div\n      0xffffffffffffffffffffffffffffffffffffffff\n      and\n        /* \"contracts/Pool/Pool.sol\":3307:3329  _owner == _msgSender() */\n      0xffffffffffffffffffffffffffffffffffffffff\n      and\n      eq\n        /* \"contracts/Pool/Pool.sol\":3299:3357  require(_owner == _msgSender(), \"Caller is not the owner\") */\n      tag_235\n      jumpi\n      mload(0x40)\n      0x08c379a000000000000000000000000000000000000000000000000000000000\n      dup2\n      mstore\n      0x04\n      add\n      tag_236\n      swap1\n      tag_181\n      jump\t// in\n    tag_236:\n      mload(0x40)\n      dup1\n      swap2\n      sub\n      swap1\n      revert\n    tag_235:\n        /* \"contracts/Pool/Pool.sol\":14968:14977  uint256 i */\n      0x00\n        /* \"contracts/Pool/Pool.sol\":14964:15076  for(uint256 i = 0; i < accounts.length; i++) {... */\n    tag_238:\n        /* \"contracts/Pool/Pool.sol\":14987:14995  accounts */\n      dup4\n      dup4\n        /* \"contracts/Pool/Pool.sol\":14987:15002  accounts.length */\n      swap1\n      pop\n        /* \"contracts/Pool/Pool.sol\":14983:14984  i */\n      dup2\n        /* \"contracts/Pool/Pool.sol\":14983:15002  i < accounts.length */\n      lt\n        /* \"contracts/Pool/Pool.sol\":14964:15076  for(uint256 i = 0; i < accounts.length; i++) {... */\n      iszero\n      tag_239\n      jumpi\n        /* \"contracts/Pool/Pool.sol\":15057:15065  excluded */\n      dup2\n        /* \"contracts/Pool/Pool.sol\":15023:15041  _isExcludedFromFee */\n      0x05\n        /* \"contracts/Pool/Pool.sol\":15023:15054  _isExcludedFromFee[accounts[i]] */\n      0x00\n        /* \"contracts/Pool/Pool.sol\":15042:15050  accounts */\n      dup7\n      dup7\n        /* \"contracts/Pool/Pool.sol\":15051:15052  i */\n      dup6\n        /* \"contracts/Pool/Pool.sol\":15042:15053  accounts[i] */\n      dup2\n      dup2\n      lt\n      tag_241\n      jumpi\n      tag_242\n      tag_243\n      jump\t// in\n    tag_242:\n    tag_241:\n      swap1\n      pop\n      0x20\n      mul\n      add\n      0x20\n      dup2\n      add\n      swap1\n      tag_244\n      swap2\n      swap1\n      tag_80\n      jump\t// in\n    tag_244:\n        /* \"contracts/Pool/Pool.sol\":15023:15054  _isExcludedFromFee[accounts[i]] */\n      0xffffffffffffffffffffffffffffffffffffffff\n      and\n      0xffffffffffffffffffffffffffffffffffffffff\n      and\n      dup2\n      mstore\n      0x20\n      add\n      swap1\n      dup2\n      mstore\n      0x20\n      add\n      0x00\n      keccak256\n      0x00\n        /* \"contracts/Pool/Pool.sol\":15023:15065  _isExcludedFromFee[accounts[i]] = excluded */\n      0x0100\n      exp\n      dup2\n      sload\n      dup2\n      0xff\n      mul\n      not\n      and\n      swap1\n      dup4\n      iszero\n      iszero\n      mul\n      or\n      swap1\n      sstore\n      pop\n        /* \"contracts/Pool/Pool.sol\":15004:15007  i++ */\n      dup1\n      dup1\n      tag_245\n      swap1\n      tag_246\n      jump\t// in\n    tag_245:\n      swap2\n      pop\n      pop\n        /* \"contracts/Pool/Pool.sol\":14964:15076  for(uint256 i = 0; i < accounts.length; i++) {... */\n      jump(tag_238)\n    tag_239:\n      pop\n        /* \"contracts/Pool/Pool.sol\":14852:15082  function excludeMultipleAccountsFromFees(address[] calldata accounts, bool excluded) public onlyOwner {... */\n      pop\n      pop\n      pop\n      jump\t// out\n        /* \"contracts/Pool/Pool.sol\":4972:4995  address public _factory */\n    tag_123:\n      0x12\n      0x00\n      swap1\n      sload\n      swap1\n      0x0100\n      exp\n      swap1\n      div\n      0xffffffffffffffffffffffffffffffffffffffff\n      and\n      dup2\n      jump\t// out\n        /* \"contracts/Pool/Pool.sol\":6682:6823  function allowance(address owner, address spender) public view override returns (uint256) {... */\n    tag_129:\n        /* \"contracts/Pool/Pool.sol\":6763:6770  uint256 */\n      0x00\n        /* \"contracts/Pool/Pool.sol\":6789:6800  _allowances */\n      0x04\n        /* \"contracts/Pool/Pool.sol\":6789:6807  _allowances[owner] */\n      0x00\n        /* \"contracts/Pool/Pool.sol\":6801:6806  owner */\n      dup5\n        /* \"contracts/Pool/Pool.sol\":6789:6807  _allowances[owner] */\n      0xffffffffffffffffffffffffffffffffffffffff\n      and\n      0xffffffffffffffffffffffffffffffffffffffff\n      and\n      dup2\n      mstore\n      0x20\n      add\n      swap1\n      dup2\n      mstore\n      0x20\n      add\n      0x00\n      keccak256\n        /* \"contracts/Pool/Pool.sol\":6789:6816  _allowances[owner][spender] */\n      0x00\n        /* \"contracts/Pool/Pool.sol\":6808:6815  spender */\n      dup4\n        /* \"contracts/Pool/Pool.sol\":6789:6816  _allowances[owner][spender] */\n      0xffffffffffffffffffffffffffffffffffffffff\n      and\n      0xffffffffffffffffffffffffffffffffffffffff\n      and\n      dup2\n      mstore\n      0x20\n      add\n      swap1\n      dup2\n      mstore\n      0x20\n      add\n      0x00\n      keccak256\n      sload\n        /* \"contracts/Pool/Pool.sol\":6782:6816  return _allowances[owner][spender] */\n      swap1\n      pop\n        /* \"contracts/Pool/Pool.sol\":6682:6823  function allowance(address owner, address spender) public view override returns (uint256) {... */\n      swap3\n      swap2\n      pop\n      pop\n      jump\t// out\n        /* \"contracts/Pool/Pool.sol\":10274:10479  function rescueForeignTokens(address _tokenAddr, address _to, uint _amount) public onlyDev() {... */\n    tag_134:\n        /* \"contracts/Pool/Pool.sol\":5903:5915  _msgSender() */\n      tag_249\n        /* \"contracts/Pool/Pool.sol\":5903:5913  _msgSender */\n      tag_143\n        /* \"contracts/Pool/Pool.sol\":5903:5915  _msgSender() */\n      jump\t// in\n    tag_249:\n        /* \"contracts/Pool/Pool.sol\":5892:5915  owner() == _msgSender() */\n      0xffffffffffffffffffffffffffffffffffffffff\n      and\n        /* \"contracts/Pool/Pool.sol\":5892:5899  owner() */\n      tag_250\n        /* \"contracts/Pool/Pool.sol\":5892:5897  owner */\n      tag_93\n        /* \"contracts/Pool/Pool.sol\":5892:5899  owner() */\n      jump\t// in\n    tag_250:\n        /* \"contracts/Pool/Pool.sol\":5892:5915  owner() == _msgSender() */\n      0xffffffffffffffffffffffffffffffffffffffff\n      and\n      eq\n        /* \"contracts/Pool/Pool.sol\":5892:5954  owner() == _msgSender() || _developmentAddress == _msgSender() */\n      dup1\n      tag_251\n      jumpi\n      pop\n        /* \"contracts/Pool/Pool.sol\":5942:5954  _msgSender() */\n      tag_252\n        /* \"contracts/Pool/Pool.sol\":5942:5952  _msgSender */\n      tag_143\n        /* \"contracts/Pool/Pool.sol\":5942:5954  _msgSender() */\n      jump\t// in\n    tag_252:\n        /* \"contracts/Pool/Pool.sol\":5919:5954  _developmentAddress == _msgSender() */\n      0xffffffffffffffffffffffffffffffffffffffff\n      and\n        /* \"contracts/Pool/Pool.sol\":5919:5938  _developmentAddress */\n      0x0e\n      0x00\n      swap1\n      sload\n      swap1\n      0x0100\n      exp\n      swap1\n      div\n      0xffffffffffffffffffffffffffffffffffffffff\n      and\n        /* \"contracts/Pool/Pool.sol\":5919:5954  _developmentAddress == _msgSender() */\n      0xffffffffffffffffffffffffffffffffffffffff\n      and\n      eq\n        /* \"contracts/Pool/Pool.sol\":5892:5954  owner() == _msgSender() || _developmentAddress == _msgSender() */\n    tag_251:\n        /* \"contracts/Pool/Pool.sol\":5884:5980  require(owner() == _msgSender() || _developmentAddress == _msgSender(), \"Caller is not the dev\") */\n      tag_253\n      jumpi\n      mload(0x40)\n      0x08c379a000000000000000000000000000000000000000000000000000000000\n      dup2\n      mstore\n      0x04\n      add\n      tag_254\n      swap1\n      tag_162\n      jump\t// in\n    tag_254:\n      mload(0x40)\n      dup1\n      swap2\n      sub\n      swap1\n      revert\n    tag_253:\n        /* \"contracts/Pool/Pool.sol\":10408:10411  _to */\n      dup2\n        /* \"contracts/Pool/Pool.sol\":10382:10421  tokensRescued(_tokenAddr, _to, _amount) */\n      0xffffffffffffffffffffffffffffffffffffffff\n      and\n        /* \"contracts/Pool/Pool.sol\":10396:10406  _tokenAddr */\n      dup4\n        /* \"contracts/Pool/Pool.sol\":10382:10421  tokensRescued(_tokenAddr, _to, _amount) */\n      0xffffffffffffffffffffffffffffffffffffffff\n      and\n      0x47c33aa230eb5fd181505aa7befeaddd9b8a6f983989cea73a7868448c3a9ed9\n        /* \"contracts/Pool/Pool.sol\":10413:10420  _amount */\n      dup4\n        /* \"contracts/Pool/Pool.sol\":10382:10421  tokensRescued(_tokenAddr, _to, _amount) */\n      mload(0x40)\n      tag_256\n      swap2\n      swap1\n      tag_52\n      jump\t// in\n    tag_256:\n      mload(0x40)\n      dup1\n      swap2\n      sub\n      swap1\n      log3\n        /* \"contracts/Pool/Pool.sol\":10438:10448  _tokenAddr */\n      dup3\n        /* \"contracts/Pool/Pool.sol\":10432:10458  Token(_tokenAddr).transfer */\n      0xffffffffffffffffffffffffffffffffffffffff\n      and\n      0xa9059cbb\n        /* \"contracts/Pool/Pool.sol\":10459:10462  _to */\n      dup4\n        /* \"contracts/Pool/Pool.sol\":10464:10471  _amount */\n      dup4\n        /* \"contracts/Pool/Pool.sol\":10432:10472  Token(_tokenAddr).transfer(_to, _amount) */\n      mload(0x40)\n      dup4\n      0xffffffff\n      and\n      0xe0\n      shl\n      dup2\n      mstore\n      0x04\n      add\n      tag_257\n      swap3\n      swap2\n      swap1\n      tag_258\n      jump\t// in\n    tag_257:\n      0x20\n      mload(0x40)\n      dup1\n      dup4\n      sub\n      dup2\n      0x00\n      dup8\n      gas\n      call\n      iszero\n      dup1\n      iszero\n      tag_260\n      jumpi\n      returndatasize\n      0x00\n      dup1\n      returndatacopy\n      revert(0x00, returndatasize)\n    tag_260:\n      pop\n      pop\n      pop\n      pop\n      mload(0x40)\n      returndatasize\n      not(0x1f)\n      0x1f\n      dup3\n      add\n      and\n      dup3\n      add\n      dup1\n      0x40\n      mstore\n      pop\n      dup2\n      add\n      swap1\n      tag_261\n      swap2\n      swap1\n      tag_262\n      jump\t// in\n    tag_261:\n      pop\n        /* \"contracts/Pool/Pool.sol\":10274:10479  function rescueForeignTokens(address _tokenAddr, address _to, uint _amount) public onlyDev() {... */\n      pop\n      pop\n      pop\n      jump\t// out\n        /* \"contracts/Pool/Pool.sol\":3625:3782  function transferOwnership(address newOwner) public virtual onlyOwner {... */\n    tag_138:\n        /* \"contracts/Pool/Pool.sol\":3317:3329  _msgSender() */\n      tag_264\n        /* \"contracts/Pool/Pool.sol\":3317:3327  _msgSender */\n      tag_143\n        /* \"contracts/Pool/Pool.sol\":3317:3329  _msgSender() */\n      jump\t// in\n    tag_264:\n        /* \"contracts/Pool/Pool.sol\":3307:3329  _owner == _msgSender() */\n      0xffffffffffffffffffffffffffffffffffffffff\n      and\n        /* \"contracts/Pool/Pool.sol\":3307:3313  _owner */\n      0x00\n      dup1\n      sload\n      swap1\n      0x0100\n      exp\n      swap1\n      div\n      0xffffffffffffffffffffffffffffffffffffffff\n      and\n        /* \"contracts/Pool/Pool.sol\":3307:3329  _owner == _msgSender() */\n      0xffffffffffffffffffffffffffffffffffffffff\n      and\n      eq\n        /* \"contracts/Pool/Pool.sol\":3299:3357  require(_owner == _msgSender(), \"Caller is not the owner\") */\n      tag_265\n      jumpi\n      mload(0x40)\n      0x08c379a000000000000000000000000000000000000000000000000000000000\n      dup2\n      mstore\n      0x04\n      add\n      tag_266\n      swap1\n      tag_181\n      jump\t// in\n    tag_266:\n      mload(0x40)\n      dup1\n      swap2\n      sub\n      swap1\n      revert\n    tag_265:\n        /* \"contracts/Pool/Pool.sol\":3739:3747  newOwner */\n      dup1\n        /* \"contracts/Pool/Pool.sol\":3710:3748  OwnershipTransferred(_owner, newOwner) */\n      0xffffffffffffffffffffffffffffffffffffffff\n      and\n        /* \"contracts/Pool/Pool.sol\":3731:3737  _owner */\n      0x00\n      dup1\n      sload\n      swap1\n      0x0100\n      exp\n      swap1\n      div\n      0xffffffffffffffffffffffffffffffffffffffff\n      and\n        /* \"contracts/Pool/Pool.sol\":3710:3748  OwnershipTransferred(_owner, newOwner) */\n      0xffffffffffffffffffffffffffffffffffffffff\n      and\n      0x8be0079c531659141344cd1fd0a4f28419497f9722a3daafe3b4186f6b6457e0\n      mload(0x40)\n      mload(0x40)\n      dup1\n      swap2\n      sub\n      swap1\n      log3\n        /* \"contracts/Pool/Pool.sol\":3767:3775  newOwner */\n      dup1\n        /* \"contracts/Pool/Pool.sol\":3758:3764  _owner */\n      0x00\n      dup1\n        /* \"contracts/Pool/Pool.sol\":3758:3775  _owner = newOwner */\n      0x0100\n      exp\n      dup2\n      sload\n      dup2\n      0xffffffffffffffffffffffffffffffffffffffff\n      mul\n      not\n      and\n      swap1\n      dup4\n      0xffffffffffffffffffffffffffffffffffffffff\n      and\n      mul\n      or\n      swap1\n      sstore\n      pop\n        /* \"contracts/Pool/Pool.sol\":3625:3782  function transferOwnership(address newOwner) public virtual onlyOwner {... */\n      pop\n      jump\t// out\n        /* \"contracts/Pool/Pool.sol\":1721:1817  function _msgSender() internal view virtual returns (address) {... */\n    tag_143:\n        /* \"contracts/Pool/Pool.sol\":1774:1781  address */\n      0x00\n        /* \"contracts/Pool/Pool.sol\":1800:1810  msg.sender */\n      caller\n        /* \"contracts/Pool/Pool.sol\":1793:1810  return msg.sender */\n      swap1\n      pop\n        /* \"contracts/Pool/Pool.sol\":1721:1817  function _msgSender() internal view virtual returns (address) {... */\n      swap1\n      jump\t// out\n        /* \"contracts/Pool/Pool.sol\":7564:7894  function _approve(address owner, address spender, uint256 amount) private {... */\n    tag_144:\n        /* \"contracts/Pool/Pool.sol\":7673:7674  0 */\n      0x00\n        /* \"contracts/Pool/Pool.sol\":7656:7675  owner != address(0) */\n      0xffffffffffffffffffffffffffffffffffffffff\n      and\n        /* \"contracts/Pool/Pool.sol\":7656:7661  owner */\n      dup4\n        /* \"contracts/Pool/Pool.sol\":7656:7675  owner != address(0) */\n      0xffffffffffffffffffffffffffffffffffffffff\n      and\n      sub\n        /* \"contracts/Pool/Pool.sol\":7648:7716  require(owner != address(0), \"ERC20: approve from the zero address\") */\n      tag_270\n      jumpi\n      mload(0x40)\n      0x08c379a000000000000000000000000000000000000000000000000000000000\n      dup2\n      mstore\n      0x04\n      add\n      tag_271\n      swap1\n      tag_272\n      jump\t// in\n    tag_271:\n      mload(0x40)\n      dup1\n      swap2\n      sub\n      swap1\n      revert\n    tag_270:\n        /* \"contracts/Pool/Pool.sol\":7753:7754  0 */\n      0x00\n        /* \"contracts/Pool/Pool.sol\":7734:7755  spender != address(0) */\n      0xffffffffffffffffffffffffffffffffffffffff\n      and\n        /* \"contracts/Pool/Pool.sol\":7734:7741  spender */\n      dup3\n        /* \"contracts/Pool/Pool.sol\":7734:7755  spender != address(0) */\n      0xffffffffffffffffffffffffffffffffffffffff\n      and\n      sub\n        /* \"contracts/Pool/Pool.sol\":7726:7794  require(spender != address(0), \"ERC20: approve to the zero address\") */\n      tag_273\n      jumpi\n      mload(0x40)\n      0x08c379a000000000000000000000000000000000000000000000000000000000\n      dup2\n      mstore\n      0x04\n      add\n      tag_274\n      swap1\n      tag_275\n      jump\t// in\n    tag_274:\n      mload(0x40)\n      dup1\n      swap2\n      sub\n      swap1\n      revert\n    tag_273:\n        /* \"contracts/Pool/Pool.sol\":7834:7840  amount */\n      dup1\n        /* \"contracts/Pool/Pool.sol\":7804:7815  _allowances */\n      0x04\n        /* \"contracts/Pool/Pool.sol\":7804:7822  _allowances[owner] */\n      0x00\n        /* \"contracts/Pool/Pool.sol\":7816:7821  owner */\n      dup6\n        /* \"contracts/Pool/Pool.sol\":7804:7822  _allowances[owner] */\n      0xffffffffffffffffffffffffffffffffffffffff\n      and\n      0xffffffffffffffffffffffffffffffffffffffff\n      and\n      dup2\n      mstore\n      0x20\n      add\n      swap1\n      dup2\n      mstore\n      0x20\n      add\n      0x00\n      keccak256\n        /* \"contracts/Pool/Pool.sol\":7804:7831  _allowances[owner][spender] */\n      0x00\n        /* \"contracts/Pool/Pool.sol\":7823:7830  spender */\n      dup5\n        /* \"contracts/Pool/Pool.sol\":7804:7831  _allowances[owner][spender] */\n      0xffffffffffffffffffffffffffffffffffffffff\n      and\n      0xffffffffffffffffffffffffffffffffffffffff\n      and\n      dup2\n      mstore\n      0x20\n      add\n      swap1\n      dup2\n      mstore\n      0x20\n      add\n      0x00\n      keccak256\n        /* \"contracts/Pool/Pool.sol\":7804:7840  _allowances[owner][spender] = amount */\n      dup2\n      swap1\n      sstore\n      pop\n        /* \"contracts/Pool/Pool.sol\":7871:7878  spender */\n      dup2\n        /* \"contracts/Pool/Pool.sol\":7855:7887  Approval(owner, spender, amount) */\n      0xffffffffffffffffffffffffffffffffffffffff\n      and\n        /* \"contracts/Pool/Pool.sol\":7864:7869  owner */\n      dup4\n        /* \"contracts/Pool/Pool.sol\":7855:7887  Approval(owner, spender, amount) */\n      0xffffffffffffffffffffffffffffffffffffffff\n      and\n      0x8c5be1e5ebec7d5bd14f71427d1e84f3dd0314c0f7b2291e5b200ac8c7c3b925\n        /* \"contracts/Pool/Pool.sol\":7880:7886  amount */\n      dup4\n        /* \"contracts/Pool/Pool.sol\":7855:7887  Approval(owner, spender, amount) */\n      mload(0x40)\n      tag_276\n      swap2\n      swap1\n      tag_52\n      jump\t// in\n    tag_276:\n      mload(0x40)\n      dup1\n      swap2\n      sub\n      swap1\n      log3\n        /* \"contracts/Pool/Pool.sol\":7564:7894  function _approve(address owner, address spender, uint256 amount) private {... */\n      pop\n      pop\n      pop\n      jump\t// out\n        /* \"contracts/Pool/Pool.sol\":7900:9385  function _transfer(address from, address to, uint256 amount) private {... */\n    tag_148:\n        /* \"contracts/Pool/Pool.sol\":8003:8004  0 */\n      0x00\n        /* \"contracts/Pool/Pool.sol\":7987:8005  from != address(0) */\n      0xffffffffffffffffffffffffffffffffffffffff\n      and\n        /* \"contracts/Pool/Pool.sol\":7987:7991  from */\n      dup4\n        /* \"contracts/Pool/Pool.sol\":7987:8005  from != address(0) */\n      0xffffffffffffffffffffffffffffffffffffffff\n      and\n      sub\n        /* \"contracts/Pool/Pool.sol\":7979:8047  require(from != address(0), \"ERC20: transfer from the zero address\") */\n      tag_278\n      jumpi\n      mload(0x40)\n      0x08c379a000000000000000000000000000000000000000000000000000000000\n      dup2\n      mstore\n      0x04\n      add\n      tag_279\n      swap1\n      tag_280\n      jump\t// in\n    tag_279:\n      mload(0x40)\n      dup1\n      swap2\n      sub\n      swap1\n      revert\n    tag_278:\n        /* \"contracts/Pool/Pool.sol\":8079:8080  0 */\n      0x00\n        /* \"contracts/Pool/Pool.sol\":8065:8081  to != address(0) */\n      0xffffffffffffffffffffffffffffffffffffffff\n      and\n        /* \"contracts/Pool/Pool.sol\":8065:8067  to */\n      dup3\n        /* \"contracts/Pool/Pool.sol\":8065:8081  to != address(0) */\n      0xffffffffffffffffffffffffffffffffffffffff\n      and\n      sub\n        /* \"contracts/Pool/Pool.sol\":8057:8121  require(to != address(0), \"ERC20: transfer to the zero address\") */\n      tag_281\n      jumpi\n      mload(0x40)\n      0x08c379a000000000000000000000000000000000000000000000000000000000\n      dup2\n      mstore\n      0x04\n      add\n      tag_282\n      swap1\n      tag_283\n      jump\t// in\n    tag_282:\n      mload(0x40)\n      dup1\n      swap2\n      sub\n      swap1\n      revert\n    tag_281:\n        /* \"contracts/Pool/Pool.sol\":8148:8149  0 */\n      0x00\n        /* \"contracts/Pool/Pool.sol\":8139:8145  amount */\n      dup2\n        /* \"contracts/Pool/Pool.sol\":8139:8149  amount > 0 */\n      gt\n        /* \"contracts/Pool/Pool.sol\":8131:8195  require(amount > 0, \"Transfer amount must be greater than zero\") */\n      tag_284\n      jumpi\n      mload(0x40)\n      0x08c379a000000000000000000000000000000000000000000000000000000000\n      dup2\n      mstore\n      0x04\n      add\n      tag_285\n      swap1\n      tag_286\n      jump\t// in\n    tag_285:\n      mload(0x40)\n      dup1\n      swap2\n      sub\n      swap1\n      revert\n    tag_284:\n        /* \"contracts/Pool/Pool.sol\":8226:8227  0 */\n      0x00\n        /* \"contracts/Pool/Pool.sol\":8214:8223  _redisFee */\n      0x0c\n        /* \"contracts/Pool/Pool.sol\":8214:8227  _redisFee = 0 */\n      dup2\n      swap1\n      sstore\n      pop\n        /* \"contracts/Pool/Pool.sol\":8247:8248  0 */\n      0x00\n        /* \"contracts/Pool/Pool.sol\":8237:8244  _taxFee */\n      0x0d\n        /* \"contracts/Pool/Pool.sol\":8237:8248  _taxFee = 0 */\n      dup2\n      swap1\n      sstore\n      pop\n        /* \"contracts/Pool/Pool.sol\":8279:8286  owner() */\n      tag_287\n        /* \"contracts/Pool/Pool.sol\":8279:8284  owner */\n      tag_93\n        /* \"contracts/Pool/Pool.sol\":8279:8286  owner() */\n      jump\t// in\n    tag_287:\n        /* \"contracts/Pool/Pool.sol\":8271:8286  from != owner() */\n      0xffffffffffffffffffffffffffffffffffffffff\n      and\n        /* \"contracts/Pool/Pool.sol\":8271:8275  from */\n      dup4\n        /* \"contracts/Pool/Pool.sol\":8271:8286  from != owner() */\n      0xffffffffffffffffffffffffffffffffffffffff\n      and\n      eq\n      iszero\n        /* \"contracts/Pool/Pool.sol\":8271:8303  from != owner() && to != owner() */\n      dup1\n      iszero\n      tag_288\n      jumpi\n      pop\n        /* \"contracts/Pool/Pool.sol\":8296:8303  owner() */\n      tag_289\n        /* \"contracts/Pool/Pool.sol\":8296:8301  owner */\n      tag_93\n        /* \"contracts/Pool/Pool.sol\":8296:8303  owner() */\n      jump\t// in\n    tag_289:\n        /* \"contracts/Pool/Pool.sol\":8290:8303  to != owner() */\n      0xffffffffffffffffffffffffffffffffffffffff\n      and\n        /* \"contracts/Pool/Pool.sol\":8290:8292  to */\n      dup3\n        /* \"contracts/Pool/Pool.sol\":8290:8303  to != owner() */\n      0xffffffffffffffffffffffffffffffffffffffff\n      and\n      eq\n      iszero\n        /* \"contracts/Pool/Pool.sol\":8271:8303  from != owner() && to != owner() */\n    tag_288:\n        /* \"contracts/Pool/Pool.sol\":8267:9338  if (from != owner() && to != owner()) {... */\n      iszero\n      tag_290\n      jumpi\n        /* \"contracts/Pool/Pool.sol\":8332:8360  uint256 contractTokenBalance */\n      0x00\n        /* \"contracts/Pool/Pool.sol\":8363:8387  balanceOf(address(this)) */\n      tag_291\n        /* \"contracts/Pool/Pool.sol\":8381:8385  this */\n      address\n        /* \"contracts/Pool/Pool.sol\":8363:8372  balanceOf */\n      tag_81\n        /* \"contracts/Pool/Pool.sol\":8363:8387  balanceOf(address(this)) */\n      jump\t// in\n    tag_291:\n        /* \"contracts/Pool/Pool.sol\":8332:8387  uint256 contractTokenBalance = balanceOf(address(this)) */\n      swap1\n      pop\n        /* \"contracts/Pool/Pool.sol\":8406:8412  inSwap */\n      0x12\n      0x14\n      swap1\n      sload\n      swap1\n      0x0100\n      exp\n      swap1\n      div\n      0xff\n      and\n        /* \"contracts/Pool/Pool.sol\":8405:8412  !inSwap */\n      iszero\n        /* \"contracts/Pool/Pool.sol\":8405:8437  !inSwap && from != uniswapV2Pair */\n      dup1\n      iszero\n      tag_292\n      jumpi\n      pop\n        /* \"contracts/Pool/Pool.sol\":8424:8437  uniswapV2Pair */\n      0x11\n      0x00\n      swap1\n      sload\n      swap1\n      0x0100\n      exp\n      swap1\n      div\n      0xffffffffffffffffffffffffffffffffffffffff\n      and\n        /* \"contracts/Pool/Pool.sol\":8416:8437  from != uniswapV2Pair */\n      0xffffffffffffffffffffffffffffffffffffffff\n      and\n        /* \"contracts/Pool/Pool.sol\":8416:8420  from */\n      dup5\n        /* \"contracts/Pool/Pool.sol\":8416:8437  from != uniswapV2Pair */\n      0xffffffffffffffffffffffffffffffffffffffff\n      and\n      eq\n      iszero\n        /* \"contracts/Pool/Pool.sol\":8405:8437  !inSwap && from != uniswapV2Pair */\n    tag_292:\n        /* \"contracts/Pool/Pool.sol\":8405:8452  !inSwap && from != uniswapV2Pair && swapEnabled */\n      dup1\n      iszero\n      tag_293\n      jumpi\n      pop\n        /* \"contracts/Pool/Pool.sol\":8441:8452  swapEnabled */\n      0x12\n      0x15\n      swap1\n      sload\n      swap1\n      0x0100\n      exp\n      swap1\n      div\n      0xff\n      and\n        /* \"contracts/Pool/Pool.sol\":8405:8452  !inSwap && from != uniswapV2Pair && swapEnabled */\n    tag_293:\n        /* \"contracts/Pool/Pool.sol\":8405:8480  !inSwap && from != uniswapV2Pair && swapEnabled && contractTokenBalance > 0 */\n      dup1\n      iszero\n      tag_294\n      jumpi\n      pop\n        /* \"contracts/Pool/Pool.sol\":8479:8480  0 */\n      0x00\n        /* \"contracts/Pool/Pool.sol\":8456:8476  contractTokenBalance */\n      dup2\n        /* \"contracts/Pool/Pool.sol\":8456:8480  contractTokenBalance > 0 */\n      gt\n        /* \"contracts/Pool/Pool.sol\":8405:8480  !inSwap && from != uniswapV2Pair && swapEnabled && contractTokenBalance > 0 */\n    tag_294:\n        /* \"contracts/Pool/Pool.sol\":8401:8741  if (!inSwap && from != uniswapV2Pair && swapEnabled && contractTokenBalance > 0) {... */\n      iszero\n      tag_295\n      jumpi\n        /* \"contracts/Pool/Pool.sol\":8500:8538  swapTokensForEth(contractTokenBalance) */\n      tag_296\n        /* \"contracts/Pool/Pool.sol\":8517:8537  contractTokenBalance */\n      dup2\n        /* \"contracts/Pool/Pool.sol\":8500:8516  swapTokensForEth */\n      tag_232\n        /* \"contracts/Pool/Pool.sol\":8500:8538  swapTokensForEth(contractTokenBalance) */\n      jump\t// in\n    tag_296:\n        /* \"contracts/Pool/Pool.sol\":8556:8582  uint256 contractETHBalance */\n      0x00\n        /* \"contracts/Pool/Pool.sol\":8585:8606  address(this).balance */\n      selfbalance\n        /* \"contracts/Pool/Pool.sol\":8556:8606  uint256 contractETHBalance = address(this).balance */\n      swap1\n      pop\n        /* \"contracts/Pool/Pool.sol\":8648:8649  0 */\n      0x00\n        /* \"contracts/Pool/Pool.sol\":8627:8645  contractETHBalance */\n      dup2\n        /* \"contracts/Pool/Pool.sol\":8627:8649  contractETHBalance > 0 */\n      gt\n        /* \"contracts/Pool/Pool.sol\":8624:8727  if(contractETHBalance > 0) {... */\n      iszero\n      tag_297\n      jumpi\n        /* \"contracts/Pool/Pool.sol\":8673:8708  sendETHToFee(address(this).balance) */\n      tag_298\n        /* \"contracts/Pool/Pool.sol\":8686:8707  address(this).balance */\n      selfbalance\n        /* \"contracts/Pool/Pool.sol\":8673:8685  sendETHToFee */\n      tag_173\n        /* \"contracts/Pool/Pool.sol\":8673:8708  sendETHToFee(address(this).balance) */\n      jump\t// in\n    tag_298:\n        /* \"contracts/Pool/Pool.sol\":8624:8727  if(contractETHBalance > 0) {... */\n    tag_297:\n        /* \"contracts/Pool/Pool.sol\":8482:8741  {... */\n      pop\n        /* \"contracts/Pool/Pool.sol\":8401:8741  if (!inSwap && from != uniswapV2Pair && swapEnabled && contractTokenBalance > 0) {... */\n    tag_295:\n        /* \"contracts/Pool/Pool.sol\":8778:8791  uniswapV2Pair */\n      0x11\n      0x00\n      swap1\n      sload\n      swap1\n      0x0100\n      exp\n      swap1\n      div\n      0xffffffffffffffffffffffffffffffffffffffff\n      and\n        /* \"contracts/Pool/Pool.sol\":8770:8791  from == uniswapV2Pair */\n      0xffffffffffffffffffffffffffffffffffffffff\n      and\n        /* \"contracts/Pool/Pool.sol\":8770:8774  from */\n      dup5\n        /* \"contracts/Pool/Pool.sol\":8770:8791  from == uniswapV2Pair */\n      0xffffffffffffffffffffffffffffffffffffffff\n      and\n      eq\n        /* \"contracts/Pool/Pool.sol\":8770:8825  from == uniswapV2Pair && to != address(uniswapV2Router) */\n      dup1\n      iszero\n      tag_299\n      jumpi\n      pop\n        /* \"contracts/Pool/Pool.sol\":8809:8824  uniswapV2Router */\n      0x10\n      0x00\n      swap1\n      sload\n      swap1\n      0x0100\n      exp\n      swap1\n      div\n      0xffffffffffffffffffffffffffffffffffffffff\n      and\n        /* \"contracts/Pool/Pool.sol\":8795:8825  to != address(uniswapV2Router) */\n      0xffffffffffffffffffffffffffffffffffffffff\n      and\n        /* \"contracts/Pool/Pool.sol\":8795:8797  to */\n      dup4\n        /* \"contracts/Pool/Pool.sol\":8795:8825  to != address(uniswapV2Router) */\n      0xffffffffffffffffffffffffffffffffffffffff\n      and\n      eq\n      iszero\n        /* \"contracts/Pool/Pool.sol\":8770:8825  from == uniswapV2Pair && to != address(uniswapV2Router) */\n    tag_299:\n        /* \"contracts/Pool/Pool.sol\":8767:8926  if(from == uniswapV2Pair && to != address(uniswapV2Router)) {... */\n      iszero\n      tag_300\n      jumpi\n        /* \"contracts/Pool/Pool.sol\":8857:8871  _redisFeeOnBuy */\n      sload(0x08)\n        /* \"contracts/Pool/Pool.sol\":8845:8854  _redisFee */\n      0x0c\n        /* \"contracts/Pool/Pool.sol\":8845:8871  _redisFee = _redisFeeOnBuy */\n      dup2\n      swap1\n      sstore\n      pop\n        /* \"contracts/Pool/Pool.sol\":8899:8911  _taxFeeOnBuy */\n      sload(0x09)\n        /* \"contracts/Pool/Pool.sol\":8889:8896  _taxFee */\n      0x0d\n        /* \"contracts/Pool/Pool.sol\":8889:8911  _taxFee = _taxFeeOnBuy */\n      dup2\n      swap1\n      sstore\n      pop\n        /* \"contracts/Pool/Pool.sol\":8767:8926  if(from == uniswapV2Pair && to != address(uniswapV2Router)) {... */\n    tag_300:\n        /* \"contracts/Pool/Pool.sol\":8954:8967  uniswapV2Pair */\n      0x11\n      0x00\n      swap1\n      sload\n      swap1\n      0x0100\n      exp\n      swap1\n      div\n      0xffffffffffffffffffffffffffffffffffffffff\n      and\n        /* \"contracts/Pool/Pool.sol\":8948:8967  to == uniswapV2Pair */\n      0xffffffffffffffffffffffffffffffffffffffff\n      and\n        /* \"contracts/Pool/Pool.sol\":8948:8950  to */\n      dup4\n        /* \"contracts/Pool/Pool.sol\":8948:8967  to == uniswapV2Pair */\n      0xffffffffffffffffffffffffffffffffffffffff\n      and\n      eq\n        /* \"contracts/Pool/Pool.sol\":8948:9003  to == uniswapV2Pair && from != address(uniswapV2Router) */\n      dup1\n      iszero\n      tag_301\n      jumpi\n      pop\n        /* \"contracts/Pool/Pool.sol\":8987:9002  uniswapV2Router */\n      0x10\n      0x00\n      swap1\n      sload\n      swap1\n      0x0100\n      exp\n      swap1\n      div\n      0xffffffffffffffffffffffffffffffffffffffff\n      and\n        /* \"contracts/Pool/Pool.sol\":8971:9003  from != address(uniswapV2Router) */\n      0xffffffffffffffffffffffffffffffffffffffff\n      and\n        /* \"contracts/Pool/Pool.sol\":8971:8975  from */\n      dup5\n        /* \"contracts/Pool/Pool.sol\":8971:9003  from != address(uniswapV2Router) */\n      0xffffffffffffffffffffffffffffffffffffffff\n      and\n      eq\n      iszero\n        /* \"contracts/Pool/Pool.sol\":8948:9003  to == uniswapV2Pair && from != address(uniswapV2Router) */\n    tag_301:\n        /* \"contracts/Pool/Pool.sol\":8944:9106  if (to == uniswapV2Pair && from != address(uniswapV2Router)) {... */\n      iszero\n      tag_302\n      jumpi\n        /* \"contracts/Pool/Pool.sol\":9035:9050  _redisFeeOnSell */\n      sload(0x0a)\n        /* \"contracts/Pool/Pool.sol\":9023:9032  _redisFee */\n      0x0c\n        /* \"contracts/Pool/Pool.sol\":9023:9050  _redisFee = _redisFeeOnSell */\n      dup2\n      swap1\n      sstore\n      pop\n        /* \"contracts/Pool/Pool.sol\":9078:9091  _taxFeeOnSell */\n      sload(0x0b)\n        /* \"contracts/Pool/Pool.sol\":9068:9075  _taxFee */\n      0x0d\n        /* \"contracts/Pool/Pool.sol\":9068:9091  _taxFee = _taxFeeOnSell */\n      dup2\n      swap1\n      sstore\n      pop\n        /* \"contracts/Pool/Pool.sol\":8944:9106  if (to == uniswapV2Pair && from != address(uniswapV2Router)) {... */\n    tag_302:\n        /* \"contracts/Pool/Pool.sol\":9137:9155  _isExcludedFromFee */\n      0x05\n        /* \"contracts/Pool/Pool.sol\":9137:9161  _isExcludedFromFee[from] */\n      0x00\n        /* \"contracts/Pool/Pool.sol\":9156:9160  from */\n      dup6\n        /* \"contracts/Pool/Pool.sol\":9137:9161  _isExcludedFromFee[from] */\n      0xffffffffffffffffffffffffffffffffffffffff\n      and\n      0xffffffffffffffffffffffffffffffffffffffff\n      and\n      dup2\n      mstore\n      0x20\n      add\n      swap1\n      dup2\n      mstore\n      0x20\n      add\n      0x00\n      keccak256\n      0x00\n      swap1\n      sload\n      swap1\n      0x0100\n      exp\n      swap1\n      div\n      0xff\n      and\n        /* \"contracts/Pool/Pool.sol\":9137:9187  _isExcludedFromFee[from] || _isExcludedFromFee[to] */\n      dup1\n      tag_303\n      jumpi\n      pop\n        /* \"contracts/Pool/Pool.sol\":9165:9183  _isExcludedFromFee */\n      0x05\n        /* \"contracts/Pool/Pool.sol\":9165:9187  _isExcludedFromFee[to] */\n      0x00\n        /* \"contracts/Pool/Pool.sol\":9184:9186  to */\n      dup5\n        /* \"contracts/Pool/Pool.sol\":9165:9187  _isExcludedFromFee[to] */\n      0xffffffffffffffffffffffffffffffffffffffff\n      and\n      0xffffffffffffffffffffffffffffffffffffffff\n      and\n      dup2\n      mstore\n      0x20\n      add\n      swap1\n      dup2\n      mstore\n      0x20\n      add\n      0x00\n      keccak256\n      0x00\n      swap1\n      sload\n      swap1\n      0x0100\n      exp\n      swap1\n      div\n      0xff\n      and\n        /* \"contracts/Pool/Pool.sol\":9137:9187  _isExcludedFromFee[from] || _isExcludedFromFee[to] */\n    tag_303:\n        /* \"contracts/Pool/Pool.sol\":9136:9238  (_isExcludedFromFee[from] || _isExcludedFromFee[to]) || (from != uniswapV2Pair && to != uniswapV2Pair) */\n      dup1\n      tag_304\n      jumpi\n      pop\n        /* \"contracts/Pool/Pool.sol\":9201:9214  uniswapV2Pair */\n      0x11\n      0x00\n      swap1\n      sload\n      swap1\n      0x0100\n      exp\n      swap1\n      div\n      0xffffffffffffffffffffffffffffffffffffffff\n      and\n        /* \"contracts/Pool/Pool.sol\":9193:9214  from != uniswapV2Pair */\n      0xffffffffffffffffffffffffffffffffffffffff\n      and\n        /* \"contracts/Pool/Pool.sol\":9193:9197  from */\n      dup5\n        /* \"contracts/Pool/Pool.sol\":9193:9214  from != uniswapV2Pair */\n      0xffffffffffffffffffffffffffffffffffffffff\n      and\n      eq\n      iszero\n        /* \"contracts/Pool/Pool.sol\":9193:9237  from != uniswapV2Pair && to != uniswapV2Pair */\n      dup1\n      iszero\n      tag_305\n      jumpi\n      pop\n        /* \"contracts/Pool/Pool.sol\":9224:9237  uniswapV2Pair */\n      0x11\n      0x00\n      swap1\n      sload\n      swap1\n      0x0100\n      exp\n      swap1\n      div\n      0xffffffffffffffffffffffffffffffffffffffff\n      and\n        /* \"contracts/Pool/Pool.sol\":9218:9237  to != uniswapV2Pair */\n      0xffffffffffffffffffffffffffffffffffffffff\n      and\n        /* \"contracts/Pool/Pool.sol\":9218:9220  to */\n      dup4\n        /* \"contracts/Pool/Pool.sol\":9218:9237  to != uniswapV2Pair */\n      0xffffffffffffffffffffffffffffffffffffffff\n      and\n      eq\n      iszero\n        /* \"contracts/Pool/Pool.sol\":9193:9237  from != uniswapV2Pair && to != uniswapV2Pair */\n    tag_305:\n        /* \"contracts/Pool/Pool.sol\":9136:9238  (_isExcludedFromFee[from] || _isExcludedFromFee[to]) || (from != uniswapV2Pair && to != uniswapV2Pair) */\n    tag_304:\n        /* \"contracts/Pool/Pool.sol\":9132:9315  if ((_isExcludedFromFee[from] || _isExcludedFromFee[to]) || (from != uniswapV2Pair && to != uniswapV2Pair)) {... */\n      iszero\n      tag_306\n      jumpi\n        /* \"contracts/Pool/Pool.sol\":9270:9271  0 */\n      0x00\n        /* \"contracts/Pool/Pool.sol\":9258:9267  _redisFee */\n      0x0c\n        /* \"contracts/Pool/Pool.sol\":9258:9271  _redisFee = 0 */\n      dup2\n      swap1\n      sstore\n      pop\n        /* \"contracts/Pool/Pool.sol\":9299:9300  0 */\n      0x00\n        /* \"contracts/Pool/Pool.sol\":9289:9296  _taxFee */\n      0x0d\n        /* \"contracts/Pool/Pool.sol\":9289:9300  _taxFee = 0 */\n      dup2\n      swap1\n      sstore\n      pop\n        /* \"contracts/Pool/Pool.sol\":9132:9315  if ((_isExcludedFromFee[from] || _isExcludedFromFee[to]) || (from != uniswapV2Pair && to != uniswapV2Pair)) {... */\n    tag_306:\n        /* \"contracts/Pool/Pool.sol\":8305:9338  {... */\n      pop\n        /* \"contracts/Pool/Pool.sol\":8267:9338  if (from != owner() && to != owner()) {... */\n    tag_290:\n        /* \"contracts/Pool/Pool.sol\":9348:9378  _tokenTransfer(from,to,amount) */\n      tag_307\n        /* \"contracts/Pool/Pool.sol\":9363:9367  from */\n      dup4\n        /* \"contracts/Pool/Pool.sol\":9368:9370  to */\n      dup4\n        /* \"contracts/Pool/Pool.sol\":9371:9377  amount */\n      dup4\n        /* \"contracts/Pool/Pool.sol\":9348:9362  _tokenTransfer */\n      tag_308\n        /* \"contracts/Pool/Pool.sol\":9348:9378  _tokenTransfer(from,to,amount) */\n      jump\t// in\n    tag_307:\n        /* \"contracts/Pool/Pool.sol\":7900:9385  function _transfer(address from, address to, uint256 amount) private {... */\n      pop\n      pop\n      pop\n      jump\t// out\n        /* \"contracts/Pool/Pool.sol\":2167:2353  function sub(uint256 a, uint256 b, string memory errorMessage) internal pure returns (uint256) {... */\n    tag_153:\n        /* \"contracts/Pool/Pool.sol\":2253:2260  uint256 */\n      0x00\n        /* \"contracts/Pool/Pool.sol\":2285:2286  a */\n      dup4\n        /* \"contracts/Pool/Pool.sol\":2280:2281  b */\n      dup4\n        /* \"contracts/Pool/Pool.sol\":2280:2286  b <= a */\n      gt\n      iszero\n        /* \"contracts/Pool/Pool.sol\":2288:2300  errorMessage */\n      dup3\n        /* \"contracts/Pool/Pool.sol\":2272:2301  require(b <= a, errorMessage) */\n      swap1\n      tag_310\n      jumpi\n      mload(0x40)\n      0x08c379a000000000000000000000000000000000000000000000000000000000\n      dup2\n      mstore\n      0x04\n      add\n      tag_311\n      swap2\n      swap1\n      tag_35\n      jump\t// in\n    tag_311:\n      mload(0x40)\n      dup1\n      swap2\n      sub\n      swap1\n      revert\n    tag_310:\n      pop\n        /* \"contracts/Pool/Pool.sol\":2311:2320  uint256 c */\n      0x00\n        /* \"contracts/Pool/Pool.sol\":2327:2328  b */\n      dup4\n        /* \"contracts/Pool/Pool.sol\":2323:2324  a */\n      dup6\n        /* \"contracts/Pool/Pool.sol\":2323:2328  a - b */\n      tag_312\n      swap2\n      swap1\n      tag_313\n      jump\t// in\n    tag_312:\n        /* \"contracts/Pool/Pool.sol\":2311:2328  uint256 c = a - b */\n      swap1\n      pop\n        /* \"contracts/Pool/Pool.sol\":2345:2346  c */\n      dup1\n        /* \"contracts/Pool/Pool.sol\":2338:2346  return c */\n      swap2\n      pop\n      pop\n        /* \"contracts/Pool/Pool.sol\":2167:2353  function sub(uint256 a, uint256 b, string memory errorMessage) internal pure returns (uint256) {... */\n      swap4\n      swap3\n      pop\n      pop\n      pop\n      jump\t// out\n        /* \"contracts/Pool/Pool.sol\":9876:10033  function sendETHToFee(uint256 amount) private {... */\n    tag_173:\n        /* \"contracts/Pool/Pool.sol\":9932:9951  _developmentAddress */\n      0x0e\n      0x00\n      swap1\n      sload\n      swap1\n      0x0100\n      exp\n      swap1\n      div\n      0xffffffffffffffffffffffffffffffffffffffff\n      and\n        /* \"contracts/Pool/Pool.sol\":9932:9960  _developmentAddress.transfer */\n      0xffffffffffffffffffffffffffffffffffffffff\n      and\n        /* \"contracts/Pool/Pool.sol\":9932:9975  _developmentAddress.transfer(amount.div(2)) */\n      0x08fc\n        /* \"contracts/Pool/Pool.sol\":9961:9974  amount.div(2) */\n      tag_315\n        /* \"contracts/Pool/Pool.sol\":9972:9973  2 */\n      0x02\n        /* \"contracts/Pool/Pool.sol\":9961:9967  amount */\n      dup5\n        /* \"contracts/Pool/Pool.sol\":9961:9971  amount.div */\n      tag_316\n      swap1\n        /* \"contracts/Pool/Pool.sol\":9961:9974  amount.div(2) */\n      swap2\n      swap1\n      0xffffffff\n      and\n      jump\t// in\n    tag_315:\n        /* \"contracts/Pool/Pool.sol\":9932:9975  _developmentAddress.transfer(amount.div(2)) */\n      swap1\n      dup2\n      iszero\n      mul\n      swap1\n      mload(0x40)\n      0x00\n      mload(0x40)\n      dup1\n      dup4\n      sub\n      dup2\n      dup6\n      dup9\n      dup9\n      call\n      swap4\n      pop\n      pop\n      pop\n      pop\n      iszero\n      dup1\n      iszero\n      tag_318\n      jumpi\n      returndatasize\n      0x00\n      dup1\n      returndatacopy\n      revert(0x00, returndatasize)\n    tag_318:\n      pop\n        /* \"contracts/Pool/Pool.sol\":9985:10002  _marketingAddress */\n      0x0f\n      0x00\n      swap1\n      sload\n      swap1\n      0x0100\n      exp\n      swap1\n      div\n      0xffffffffffffffffffffffffffffffffffffffff\n      and\n        /* \"contracts/Pool/Pool.sol\":9985:10011  _marketingAddress.transfer */\n      0xffffffffffffffffffffffffffffffffffffffff\n      and\n        /* \"contracts/Pool/Pool.sol\":9985:10026  _marketingAddress.transfer(amount.div(2)) */\n      0x08fc\n        /* \"contracts/Pool/Pool.sol\":10012:10025  amount.div(2) */\n      tag_319\n        /* \"contracts/Pool/Pool.sol\":10023:10024  2 */\n      0x02\n        /* \"contracts/Pool/Pool.sol\":10012:10018  amount */\n      dup5\n        /* \"contracts/Pool/Pool.sol\":10012:10022  amount.div */\n      tag_316\n      swap1\n        /* \"contracts/Pool/Pool.sol\":10012:10025  amount.div(2) */\n      swap2\n      swap1\n      0xffffffff\n      and\n      jump\t// in\n    tag_319:\n        /* \"contracts/Pool/Pool.sol\":9985:10026  _marketingAddress.transfer(amount.div(2)) */\n      swap1\n      dup2\n      iszero\n      mul\n      swap1\n      mload(0x40)\n      0x00\n      mload(0x40)\n      dup1\n      dup4\n      sub\n      dup2\n      dup6\n      dup9\n      dup9\n      call\n      swap4\n      pop\n      pop\n      pop\n      pop\n      iszero\n      dup1\n      iszero\n      tag_321\n      jumpi\n      returndatasize\n      0x00\n      dup1\n      returndatacopy\n      revert(0x00, returndatasize)\n    tag_321:\n      pop\n        /* \"contracts/Pool/Pool.sol\":9876:10033  function sendETHToFee(uint256 amount) private {... */\n      pop\n      jump\t// out\n        /* \"contracts/Pool/Pool.sol\":7308:7558  function tokenFromReflection(uint256 rAmount) private view returns(uint256) {... */\n    tag_176:\n        /* \"contracts/Pool/Pool.sol\":7375:7382  uint256 */\n      0x00\n        /* \"contracts/Pool/Pool.sol\":7413:7420  _rTotal */\n      sload(0x06)\n        /* \"contracts/Pool/Pool.sol\":7402:7409  rAmount */\n      dup3\n        /* \"contracts/Pool/Pool.sol\":7402:7420  rAmount <= _rTotal */\n      gt\n      iszero\n        /* \"contracts/Pool/Pool.sol\":7394:7467  require(rAmount <= _rTotal, \"Amount must be less than total reflections\") */\n      tag_323\n      jumpi\n      mload(0x40)\n      0x08c379a000000000000000000000000000000000000000000000000000000000\n      dup2\n      mstore\n      0x04\n      add\n      tag_324\n      swap1\n      tag_325\n      jump\t// in\n    tag_324:\n      mload(0x40)\n      dup1\n      swap2\n      sub\n      swap1\n      revert\n    tag_323:\n        /* \"contracts/Pool/Pool.sol\":7477:7496  uint256 currentRate */\n      0x00\n        /* \"contracts/Pool/Pool.sol\":7500:7510  _getRate() */\n      tag_326\n        /* \"contracts/Pool/Pool.sol\":7500:7508  _getRate */\n      tag_327\n        /* \"contracts/Pool/Pool.sol\":7500:7510  _getRate() */\n      jump\t// in\n    tag_326:\n        /* \"contracts/Pool/Pool.sol\":7477:7510  uint256 currentRate =  _getRate() */\n      swap1\n      pop\n        /* \"contracts/Pool/Pool.sol\":7527:7551  rAmount.div(currentRate) */\n      tag_328\n        /* \"contracts/Pool/Pool.sol\":7539:7550  currentRate */\n      dup2\n        /* \"contracts/Pool/Pool.sol\":7527:7534  rAmount */\n      dup5\n        /* \"contracts/Pool/Pool.sol\":7527:7538  rAmount.div */\n      tag_316\n      swap1\n        /* \"contracts/Pool/Pool.sol\":7527:7551  rAmount.div(currentRate) */\n      swap2\n      swap1\n      0xffffffff\n      and\n      jump\t// in\n    tag_328:\n        /* \"contracts/Pool/Pool.sol\":7520:7551  return rAmount.div(currentRate) */\n      swap2\n      pop\n      pop\n        /* \"contracts/Pool/Pool.sol\":7308:7558  function tokenFromReflection(uint256 rAmount) private view returns(uint256) {... */\n      swap2\n      swap1\n      pop\n      jump\t// out\n        /* \"contracts/Pool/Pool.sol\":9391:9862  function swapTokensForEth(uint256 tokenAmount) private lockTheSwap {... */\n    tag_232:\n        /* \"contracts/Pool/Pool.sol\":5121:5125  true */\n      0x01\n        /* \"contracts/Pool/Pool.sol\":5112:5118  inSwap */\n      0x12\n      0x14\n        /* \"contracts/Pool/Pool.sol\":5112:5125  inSwap = true */\n      0x0100\n      exp\n      dup2\n      sload\n      dup2\n      0xff\n      mul\n      not\n      and\n      swap1\n      dup4\n      iszero\n      iszero\n      mul\n      or\n      swap1\n      sstore\n      pop\n        /* \"contracts/Pool/Pool.sol\":9468:9489  address[] memory path */\n      0x00\n        /* \"contracts/Pool/Pool.sol\":9506:9507  2 */\n      0x02\n        /* \"contracts/Pool/Pool.sol\":9492:9508  new address[](2) */\n      0xffffffffffffffff\n      dup2\n      gt\n      iszero\n      tag_331\n      jumpi\n      tag_332\n      tag_333\n      jump\t// in\n    tag_332:\n    tag_331:\n      mload(0x40)\n      swap1\n      dup1\n      dup3\n      mstore\n      dup1\n      0x20\n      mul\n      0x20\n      add\n      dup3\n      add\n      0x40\n      mstore\n      dup1\n      iszero\n      tag_334\n      jumpi\n      dup2\n      0x20\n      add\n      0x20\n      dup3\n      mul\n      dup1\n      calldatasize\n      dup4\n      calldatacopy\n      dup1\n      dup3\n      add\n      swap2\n      pop\n      pop\n      swap1\n      pop\n    tag_334:\n      pop\n        /* \"contracts/Pool/Pool.sol\":9468:9508  address[] memory path = new address[](2) */\n      swap1\n      pop\n        /* \"contracts/Pool/Pool.sol\":9536:9540  this */\n      address\n        /* \"contracts/Pool/Pool.sol\":9518:9522  path */\n      dup2\n        /* \"contracts/Pool/Pool.sol\":9523:9524  0 */\n      0x00\n        /* \"contracts/Pool/Pool.sol\":9518:9525  path[0] */\n      dup2\n      mload\n      dup2\n      lt\n      tag_335\n      jumpi\n      tag_336\n      tag_243\n      jump\t// in\n    tag_336:\n    tag_335:\n      0x20\n      mul\n      0x20\n      add\n      add\n        /* \"contracts/Pool/Pool.sol\":9518:9541  path[0] = address(this) */\n      swap1\n      0xffffffffffffffffffffffffffffffffffffffff\n      and\n      swap1\n      dup2\n      0xffffffffffffffffffffffffffffffffffffffff\n      and\n      dup2\n      mstore\n      pop\n      pop\n        /* \"contracts/Pool/Pool.sol\":9561:9576  uniswapV2Router */\n      0x10\n      0x00\n      swap1\n      sload\n      swap1\n      0x0100\n      exp\n      swap1\n      div\n      0xffffffffffffffffffffffffffffffffffffffff\n      and\n        /* \"contracts/Pool/Pool.sol\":9561:9581  uniswapV2Router.WETH */\n      0xffffffffffffffffffffffffffffffffffffffff\n      and\n      0xad5c4648\n        /* \"contracts/Pool/Pool.sol\":9561:9583  uniswapV2Router.WETH() */\n      mload(0x40)\n      dup2\n      0xffffffff\n      and\n      0xe0\n      shl\n      dup2\n      mstore\n      0x04\n      add\n      0x20\n      mload(0x40)\n      dup1\n      dup4\n      sub\n      dup2\n      dup7\n      gas\n      staticcall\n      iszero\n      dup1\n      iszero\n      tag_338\n      jumpi\n      returndatasize\n      0x00\n      dup1\n      returndatacopy\n      revert(0x00, returndatasize)\n    tag_338:\n      pop\n      pop\n      pop\n      pop\n      mload(0x40)\n      returndatasize\n      not(0x1f)\n      0x1f\n      dup3\n      add\n      and\n      dup3\n      add\n      dup1\n      0x40\n      mstore\n      pop\n      dup2\n      add\n      swap1\n      tag_339\n      swap2\n      swap1\n      tag_340\n      jump\t// in\n    tag_339:\n        /* \"contracts/Pool/Pool.sol\":9551:9555  path */\n      dup2\n        /* \"contracts/Pool/Pool.sol\":9556:9557  1 */\n      0x01\n        /* \"contracts/Pool/Pool.sol\":9551:9558  path[1] */\n      dup2\n      mload\n      dup2\n      lt\n      tag_341\n      jumpi\n      tag_342\n      tag_243\n      jump\t// in\n    tag_342:\n    tag_341:\n      0x20\n      mul\n      0x20\n      add\n      add\n        /* \"contracts/Pool/Pool.sol\":9551:9583  path[1] = uniswapV2Router.WETH() */\n      swap1\n      0xffffffffffffffffffffffffffffffffffffffff\n      and\n      swap1\n      dup2\n      0xffffffffffffffffffffffffffffffffffffffff\n      and\n      dup2\n      mstore\n      pop\n      pop\n        /* \"contracts/Pool/Pool.sol\":9593:9655  _approve(address(this), address(uniswapV2Router), tokenAmount) */\n      tag_343\n        /* \"contracts/Pool/Pool.sol\":9610:9614  this */\n      address\n        /* \"contracts/Pool/Pool.sol\":9625:9640  uniswapV2Router */\n      0x10\n      0x00\n      swap1\n      sload\n      swap1\n      0x0100\n      exp\n      swap1\n      div\n      0xffffffffffffffffffffffffffffffffffffffff\n      and\n        /* \"contracts/Pool/Pool.sol\":9643:9654  tokenAmount */\n      dup5\n        /* \"contracts/Pool/Pool.sol\":9593:9601  _approve */\n      tag_144\n        /* \"contracts/Pool/Pool.sol\":9593:9655  _approve(address(this), address(uniswapV2Router), tokenAmount) */\n      jump\t// in\n    tag_343:\n        /* \"contracts/Pool/Pool.sol\":9665:9680  uniswapV2Router */\n      0x10\n      0x00\n      swap1\n      sload\n      swap1\n      0x0100\n      exp\n      swap1\n      div\n      0xffffffffffffffffffffffffffffffffffffffff\n      and\n        /* \"contracts/Pool/Pool.sol\":9665:9731  uniswapV2Router.swapExactTokensForETHSupportingFeeOnTransferTokens */\n      0xffffffffffffffffffffffffffffffffffffffff\n      and\n      0x791ac947\n        /* \"contracts/Pool/Pool.sol\":9745:9756  tokenAmount */\n      dup4\n        /* \"contracts/Pool/Pool.sol\":9770:9771  0 */\n      0x00\n        /* \"contracts/Pool/Pool.sol\":9785:9789  path */\n      dup5\n        /* \"contracts/Pool/Pool.sol\":9811:9815  this */\n      address\n        /* \"contracts/Pool/Pool.sol\":9830:9845  block.timestamp */\n      timestamp\n        /* \"contracts/Pool/Pool.sol\":9665:9855  uniswapV2Router.swapExactTokensForETHSupportingFeeOnTransferTokens(... */\n      mload(0x40)\n      dup7\n      0xffffffff\n      and\n      0xe0\n      shl\n      dup2\n      mstore\n      0x04\n      add\n      tag_344\n      swap6\n      swap5\n      swap4\n      swap3\n      swap2\n      swap1\n      tag_345\n      jump\t// in\n    tag_344:\n      0x00\n      mload(0x40)\n      dup1\n      dup4\n      sub\n      dup2\n      0x00\n      dup8\n      dup1\n      extcodesize\n      iszero\n      dup1\n      iszero\n      tag_346\n      jumpi\n      0x00\n      dup1\n      revert\n    tag_346:\n      pop\n      gas\n      call\n      iszero\n      dup1\n      iszero\n      tag_348\n      jumpi\n      returndatasize\n      0x00\n      dup1\n      returndatacopy\n      revert(0x00, returndatasize)\n    tag_348:\n      pop\n      pop\n      pop\n      pop\n        /* \"contracts/Pool/Pool.sol\":9458:9862  {... */\n      pop\n        /* \"contracts/Pool/Pool.sol\":5155:5160  false */\n      0x00\n        /* \"contracts/Pool/Pool.sol\":5146:5152  inSwap */\n      0x12\n      0x14\n        /* \"contracts/Pool/Pool.sol\":5146:5160  inSwap = false */\n      0x0100\n      exp\n      dup2\n      sload\n      dup2\n      0xff\n      mul\n      not\n      and\n      swap1\n      dup4\n      iszero\n      iszero\n      mul\n      or\n      swap1\n      sstore\n      pop\n        /* \"contracts/Pool/Pool.sol\":9391:9862  function swapTokensForEth(uint256 tokenAmount) private lockTheSwap {... */\n      pop\n      jump\t// out\n        /* \"contracts/Pool/Pool.sol\":10043:10187  function _tokenTransfer(address sender, address recipient, uint256 amount) private {... */\n    tag_308:\n        /* \"contracts/Pool/Pool.sol\":10136:10180  _transferStandard(sender, recipient, amount) */\n      tag_350\n        /* \"contracts/Pool/Pool.sol\":10154:10160  sender */\n      dup4\n        /* \"contracts/Pool/Pool.sol\":10162:10171  recipient */\n      dup4\n        /* \"contracts/Pool/Pool.sol\":10173:10179  amount */\n      dup4\n        /* \"contracts/Pool/Pool.sol\":10136:10153  _transferStandard */\n      tag_351\n        /* \"contracts/Pool/Pool.sol\":10136:10180  _transferStandard(sender, recipient, amount) */\n      jump\t// in\n    tag_350:\n        /* \"contracts/Pool/Pool.sol\":10043:10187  function _tokenTransfer(address sender, address recipient, uint256 amount) private {... */\n      pop\n      pop\n      pop\n      jump\t// out\n        /* \"contracts/Pool/Pool.sol\":2604:2734  function div(uint256 a, uint256 b) internal pure returns (uint256) {... */\n    tag_316:\n        /* \"contracts/Pool/Pool.sol\":2662:2669  uint256 */\n      0x00\n        /* \"contracts/Pool/Pool.sol\":2688:2727  div(a, b, \"SafeMath: division by zero\") */\n      tag_353\n        /* \"contracts/Pool/Pool.sol\":2692:2693  a */\n      dup4\n        /* \"contracts/Pool/Pool.sol\":2695:2696  b */\n      dup4\n        /* \"contracts/Pool/Pool.sol\":2688:2727  div(a, b, \"SafeMath: division by zero\") */\n      mload(0x40)\n      dup1\n      0x40\n      add\n      0x40\n      mstore\n      dup1\n      0x1a\n      dup2\n      mstore\n      0x20\n      add\n      0x536166654d6174683a206469766973696f6e206279207a65726f000000000000\n      dup2\n      mstore\n      pop\n        /* \"contracts/Pool/Pool.sol\":2688:2691  div */\n      tag_354\n        /* \"contracts/Pool/Pool.sol\":2688:2727  div(a, b, \"SafeMath: division by zero\") */\n      jump\t// in\n    tag_353:\n        /* \"contracts/Pool/Pool.sol\":2681:2727  return div(a, b, \"SafeMath: division by zero\") */\n      swap1\n      pop\n        /* \"contracts/Pool/Pool.sol\":2604:2734  function div(uint256 a, uint256 b) internal pure returns (uint256) {... */\n      swap3\n      swap2\n      pop\n      pop\n      jump\t// out\n        /* \"contracts/Pool/Pool.sol\":13235:13395  function _getRate() private view returns(uint256) {... */\n    tag_327:\n        /* \"contracts/Pool/Pool.sol\":13276:13283  uint256 */\n      0x00\n        /* \"contracts/Pool/Pool.sol\":13296:13311  uint256 rSupply */\n      dup1\n        /* \"contracts/Pool/Pool.sol\":13313:13328  uint256 tSupply */\n      0x00\n        /* \"contracts/Pool/Pool.sol\":13332:13351  _getCurrentSupply() */\n      tag_356\n        /* \"contracts/Pool/Pool.sol\":13332:13349  _getCurrentSupply */\n      tag_357\n        /* \"contracts/Pool/Pool.sol\":13332:13351  _getCurrentSupply() */\n      jump\t// in\n    tag_356:\n        /* \"contracts/Pool/Pool.sol\":13295:13351  (uint256 rSupply, uint256 tSupply) = _getCurrentSupply() */\n      swap2\n      pop\n      swap2\n      pop\n        /* \"contracts/Pool/Pool.sol\":13368:13388  rSupply.div(tSupply) */\n      tag_358\n        /* \"contracts/Pool/Pool.sol\":13380:13387  tSupply */\n      dup2\n        /* \"contracts/Pool/Pool.sol\":13368:13375  rSupply */\n      dup4\n        /* \"contracts/Pool/Pool.sol\":13368:13379  rSupply.div */\n      tag_316\n      swap1\n        /* \"contracts/Pool/Pool.sol\":13368:13388  rSupply.div(tSupply) */\n      swap2\n      swap1\n      0xffffffff\n      and\n      jump\t// in\n    tag_358:\n        /* \"contracts/Pool/Pool.sol\":13361:13388  return rSupply.div(tSupply) */\n      swap3\n      pop\n      pop\n      pop\n        /* \"contracts/Pool/Pool.sol\":13235:13395  function _getRate() private view returns(uint256) {... */\n      swap1\n      jump\t// out\n        /* \"contracts/Pool/Pool.sol\":11117:11598  function _transferStandard(address sender, address recipient, uint256 tAmount) private {... */\n    tag_351:\n        /* \"contracts/Pool/Pool.sol\":11215:11230  uint256 rAmount */\n      0x00\n        /* \"contracts/Pool/Pool.sol\":11232:11255  uint256 rTransferAmount */\n      dup1\n        /* \"contracts/Pool/Pool.sol\":11257:11269  uint256 rFee */\n      0x00\n        /* \"contracts/Pool/Pool.sol\":11271:11294  uint256 tTransferAmount */\n      dup1\n        /* \"contracts/Pool/Pool.sol\":11296:11308  uint256 tFee */\n      0x00\n        /* \"contracts/Pool/Pool.sol\":11310:11323  uint256 tTeam */\n      dup1\n        /* \"contracts/Pool/Pool.sol\":11327:11346  _getValues(tAmount) */\n      tag_360\n        /* \"contracts/Pool/Pool.sol\":11338:11345  tAmount */\n      dup8\n        /* \"contracts/Pool/Pool.sol\":11327:11337  _getValues */\n      tag_361\n        /* \"contracts/Pool/Pool.sol\":11327:11346  _getValues(tAmount) */\n      jump\t// in\n    tag_360:\n        /* \"contracts/Pool/Pool.sol\":11214:11346  (uint256 rAmount, uint256 rTransferAmount, uint256 rFee, uint256 tTransferAmount, uint256 tFee, uint256 tTeam) = _getValues(tAmount) */\n      swap6\n      pop\n      swap6\n      pop\n      swap6\n      pop\n      swap6\n      pop\n      swap6\n      pop\n      swap6\n      pop\n        /* \"contracts/Pool/Pool.sol\":11374:11402  _rOwned[sender].sub(rAmount) */\n      tag_362\n        /* \"contracts/Pool/Pool.sol\":11394:11401  rAmount */\n      dup7\n        /* \"contracts/Pool/Pool.sol\":11374:11381  _rOwned */\n      0x02\n        /* \"contracts/Pool/Pool.sol\":11374:11389  _rOwned[sender] */\n      0x00\n        /* \"contracts/Pool/Pool.sol\":11382:11388  sender */\n      dup13\n        /* \"contracts/Pool/Pool.sol\":11374:11389  _rOwned[sender] */\n      0xffffffffffffffffffffffffffffffffffffffff\n      and\n      0xffffffffffffffffffffffffffffffffffffffff\n      and\n      dup2\n      mstore\n      0x20\n      add\n      swap1\n      dup2\n      mstore\n      0x20\n      add\n      0x00\n      keccak256\n      sload\n        /* \"contracts/Pool/Pool.sol\":11374:11393  _rOwned[sender].sub */\n      tag_363\n      swap1\n        /* \"contracts/Pool/Pool.sol\":11374:11402  _rOwned[sender].sub(rAmount) */\n      swap2\n      swap1\n      0xffffffff\n      and\n      jump\t// in\n    tag_362:\n        /* \"contracts/Pool/Pool.sol\":11356:11363  _rOwned */\n      0x02\n        /* \"contracts/Pool/Pool.sol\":11356:11371  _rOwned[sender] */\n      0x00\n        /* \"contracts/Pool/Pool.sol\":11364:11370  sender */\n      dup12\n        /* \"contracts/Pool/Pool.sol\":11356:11371  _rOwned[sender] */\n      0xffffffffffffffffffffffffffffffffffffffff\n      and\n      0xffffffffffffffffffffffffffffffffffffffff\n      and\n      dup2\n      mstore\n      0x20\n      add\n      swap1\n      dup2\n      mstore\n      0x20\n      add\n      0x00\n      keccak256\n        /* \"contracts/Pool/Pool.sol\":11356:11402  _rOwned[sender] = _rOwned[sender].sub(rAmount) */\n      dup2\n      swap1\n      sstore\n      pop\n        /* \"contracts/Pool/Pool.sol\":11433:11472  _rOwned[recipient].add(rTransferAmount) */\n      tag_364\n        /* \"contracts/Pool/Pool.sol\":11456:11471  rTransferAmount */\n      dup6\n        /* \"contracts/Pool/Pool.sol\":11433:11440  _rOwned */\n      0x02\n        /* \"contracts/Pool/Pool.sol\":11433:11451  _rOwned[recipient] */\n      0x00\n        /* \"contracts/Pool/Pool.sol\":11441:11450  recipient */\n      dup12\n        /* \"contracts/Pool/Pool.sol\":11433:11451  _rOwned[recipient] */\n      0xffffffffffffffffffffffffffffffffffffffff\n      and\n      0xffffffffffffffffffffffffffffffffffffffff\n      and\n      dup2\n      mstore\n      0x20\n      add\n      swap1\n      dup2\n      mstore\n      0x20\n      add\n      0x00\n      keccak256\n      sload\n        /* \"contracts/Pool/Pool.sol\":11433:11455  _rOwned[recipient].add */\n      tag_365\n      swap1\n        /* \"contracts/Pool/Pool.sol\":11433:11472  _rOwned[recipient].add(rTransferAmount) */\n      swap2\n      swap1\n      0xffffffff\n      and\n      jump\t// in\n    tag_364:\n        /* \"contracts/Pool/Pool.sol\":11412:11419  _rOwned */\n      0x02\n        /* \"contracts/Pool/Pool.sol\":11412:11430  _rOwned[recipient] */\n      0x00\n        /* \"contracts/Pool/Pool.sol\":11420:11429  recipient */\n      dup11\n        /* \"contracts/Pool/Pool.sol\":11412:11430  _rOwned[recipient] */\n      0xffffffffffffffffffffffffffffffffffffffff\n      and\n      0xffffffffffffffffffffffffffffffffffffffff\n      and\n      dup2\n      mstore\n      0x20\n      add\n      swap1\n      dup2\n      mstore\n      0x20\n      add\n      0x00\n      keccak256\n        /* \"contracts/Pool/Pool.sol\":11412:11472  _rOwned[recipient] = _rOwned[recipient].add(rTransferAmount) */\n      dup2\n      swap1\n      sstore\n      pop\n        /* \"contracts/Pool/Pool.sol\":11483:11499  _takeTeam(tTeam) */\n      tag_366\n        /* \"contracts/Pool/Pool.sol\":11493:11498  tTeam */\n      dup2\n        /* \"contracts/Pool/Pool.sol\":11483:11492  _takeTeam */\n      tag_367\n        /* \"contracts/Pool/Pool.sol\":11483:11499  _takeTeam(tTeam) */\n      jump\t// in\n    tag_366:\n        /* \"contracts/Pool/Pool.sol\":11509:11532  _reflectFee(rFee, tFee) */\n      tag_368\n        /* \"contracts/Pool/Pool.sol\":11521:11525  rFee */\n      dup5\n        /* \"contracts/Pool/Pool.sol\":11527:11531  tFee */\n      dup4\n        /* \"contracts/Pool/Pool.sol\":11509:11520  _reflectFee */\n      tag_369\n        /* \"contracts/Pool/Pool.sol\":11509:11532  _reflectFee(rFee, tFee) */\n      jump\t// in\n    tag_368:\n        /* \"contracts/Pool/Pool.sol\":11564:11573  recipient */\n      dup8\n        /* \"contracts/Pool/Pool.sol\":11547:11591  Transfer(sender, recipient, tTransferAmount) */\n      0xffffffffffffffffffffffffffffffffffffffff\n      and\n        /* \"contracts/Pool/Pool.sol\":11556:11562  sender */\n      dup10\n        /* \"contracts/Pool/Pool.sol\":11547:11591  Transfer(sender, recipient, tTransferAmount) */\n      0xffffffffffffffffffffffffffffffffffffffff\n      and\n      0xddf252ad1be2c89b69c2b068fc378daa952ba7f163c4a11628f55a4df523b3ef\n        /* \"contracts/Pool/Pool.sol\":11575:11590  tTransferAmount */\n      dup6\n        /* \"contracts/Pool/Pool.sol\":11547:11591  Transfer(sender, recipient, tTransferAmount) */\n      mload(0x40)\n      tag_370\n      swap2\n      swap1\n      tag_52\n      jump\t// in\n    tag_370:\n      mload(0x40)\n      dup1\n      swap2\n      sub\n      swap1\n      log3\n        /* \"contracts/Pool/Pool.sol\":11204:11598  {... */\n      pop\n      pop\n      pop\n      pop\n      pop\n      pop\n        /* \"contracts/Pool/Pool.sol\":11117:11598  function _transferStandard(address sender, address recipient, uint256 tAmount) private {... */\n      pop\n      pop\n      pop\n      jump\t// out\n        /* \"contracts/Pool/Pool.sol\":2740:2925  function div(uint256 a, uint256 b, string memory errorMessage) internal pure returns (uint256) {... */\n    tag_354:\n        /* \"contracts/Pool/Pool.sol\":2826:2833  uint256 */\n      0x00\n        /* \"contracts/Pool/Pool.sol\":2857:2858  0 */\n      dup1\n        /* \"contracts/Pool/Pool.sol\":2853:2854  b */\n      dup4\n        /* \"contracts/Pool/Pool.sol\":2853:2858  b > 0 */\n      gt\n        /* \"contracts/Pool/Pool.sol\":2860:2872  errorMessage */\n      dup3\n        /* \"contracts/Pool/Pool.sol\":2845:2873  require(b > 0, errorMessage) */\n      swap1\n      tag_372\n      jumpi\n      mload(0x40)\n      0x08c379a000000000000000000000000000000000000000000000000000000000\n      dup2\n      mstore\n      0x04\n      add\n      tag_373\n      swap2\n      swap1\n      tag_35\n      jump\t// in\n    tag_373:\n      mload(0x40)\n      dup1\n      swap2\n      sub\n      swap1\n      revert\n    tag_372:\n      pop\n        /* \"contracts/Pool/Pool.sol\":2883:2892  uint256 c */\n      0x00\n        /* \"contracts/Pool/Pool.sol\":2899:2900  b */\n      dup4\n        /* \"contracts/Pool/Pool.sol\":2895:2896  a */\n      dup6\n        /* \"contracts/Pool/Pool.sol\":2895:2900  a / b */\n      tag_374\n      swap2\n      swap1\n      tag_375\n      jump\t// in\n    tag_374:\n        /* \"contracts/Pool/Pool.sol\":2883:2900  uint256 c = a / b */\n      swap1\n      pop\n        /* \"contracts/Pool/Pool.sol\":2917:2918  c */\n      dup1\n        /* \"contracts/Pool/Pool.sol\":2910:2918  return c */\n      swap2\n      pop\n      pop\n        /* \"contracts/Pool/Pool.sol\":2740:2925  function div(uint256 a, uint256 b, string memory errorMessage) internal pure returns (uint256) {... */\n      swap4\n      swap3\n      pop\n      pop\n      pop\n      jump\t// out\n        /* \"contracts/Pool/Pool.sol\":13401:13658  function _getCurrentSupply() private view returns(uint256, uint256) {... */\n    tag_357:\n        /* \"contracts/Pool/Pool.sol\":13451:13458  uint256 */\n      0x00\n        /* \"contracts/Pool/Pool.sol\":13460:13467  uint256 */\n      dup1\n        /* \"contracts/Pool/Pool.sol\":13479:13494  uint256 rSupply */\n      0x00\n        /* \"contracts/Pool/Pool.sol\":13497:13504  _rTotal */\n      sload(0x06)\n        /* \"contracts/Pool/Pool.sol\":13479:13504  uint256 rSupply = _rTotal */\n      swap1\n      pop\n        /* \"contracts/Pool/Pool.sol\":13514:13529  uint256 tSupply */\n      0x00\n        /* \"contracts/Pool/Pool.sol\":4200:4213  1*10**9*10**9 */\n      0x0de0b6b3a7640000\n        /* \"contracts/Pool/Pool.sol\":13514:13539  uint256 tSupply = _tTotal */\n      swap1\n      pop\n        /* \"contracts/Pool/Pool.sol\":13569:13589  _rTotal.div(_tTotal) */\n      tag_377\n        /* \"contracts/Pool/Pool.sol\":4200:4213  1*10**9*10**9 */\n      0x0de0b6b3a7640000\n        /* \"contracts/Pool/Pool.sol\":13569:13576  _rTotal */\n      sload(0x06)\n        /* \"contracts/Pool/Pool.sol\":13569:13580  _rTotal.div */\n      tag_316\n      swap1\n        /* \"contracts/Pool/Pool.sol\":13569:13589  _rTotal.div(_tTotal) */\n      swap2\n      swap1\n      0xffffffff\n      and\n      jump\t// in\n    tag_377:\n        /* \"contracts/Pool/Pool.sol\":13559:13566  rSupply */\n      dup3\n        /* \"contracts/Pool/Pool.sol\":13559:13589  rSupply < _rTotal.div(_tTotal) */\n      lt\n        /* \"contracts/Pool/Pool.sol\":13555:13616  if (rSupply < _rTotal.div(_tTotal)) return (_rTotal, _tTotal) */\n      iszero\n      tag_378\n      jumpi\n        /* \"contracts/Pool/Pool.sol\":13599:13606  _rTotal */\n      sload(0x06)\n        /* \"contracts/Pool/Pool.sol\":4200:4213  1*10**9*10**9 */\n      0x0de0b6b3a7640000\n        /* \"contracts/Pool/Pool.sol\":13591:13616  return (_rTotal, _tTotal) */\n      swap4\n      pop\n      swap4\n      pop\n      pop\n      pop\n      jump(tag_376)\n        /* \"contracts/Pool/Pool.sol\":13555:13616  if (rSupply < _rTotal.div(_tTotal)) return (_rTotal, _tTotal) */\n    tag_378:\n        /* \"contracts/Pool/Pool.sol\":13634:13641  rSupply */\n      dup2\n        /* \"contracts/Pool/Pool.sol\":13643:13650  tSupply */\n      dup2\n        /* \"contracts/Pool/Pool.sol\":13626:13651  return (rSupply, tSupply) */\n      swap4\n      pop\n      swap4\n      pop\n      pop\n      pop\n        /* \"contracts/Pool/Pool.sol\":13401:13658  function _getCurrentSupply() private view returns(uint256, uint256) {... */\n    tag_376:\n      swap1\n      swap2\n      jump\t// out\n        /* \"contracts/Pool/Pool.sol\":12007:12471  function _getValues(uint256 tAmount) private view returns (uint256, uint256, uint256, uint256, uint256, uint256) {... */\n    tag_361:\n        /* \"contracts/Pool/Pool.sol\":12066:12073  uint256 */\n      0x00\n        /* \"contracts/Pool/Pool.sol\":12075:12082  uint256 */\n      dup1\n        /* \"contracts/Pool/Pool.sol\":12084:12091  uint256 */\n      0x00\n        /* \"contracts/Pool/Pool.sol\":12093:12100  uint256 */\n      dup1\n        /* \"contracts/Pool/Pool.sol\":12102:12109  uint256 */\n      0x00\n        /* \"contracts/Pool/Pool.sol\":12111:12118  uint256 */\n      dup1\n        /* \"contracts/Pool/Pool.sol\":12131:12154  uint256 tTransferAmount */\n      0x00\n        /* \"contracts/Pool/Pool.sol\":12156:12168  uint256 tFee */\n      dup1\n        /* \"contracts/Pool/Pool.sol\":12170:12183  uint256 tTeam */\n      0x00\n        /* \"contracts/Pool/Pool.sol\":12187:12227  _getTValues(tAmount, _redisFee, _taxFee) */\n      tag_380\n        /* \"contracts/Pool/Pool.sol\":12199:12206  tAmount */\n      dup11\n        /* \"contracts/Pool/Pool.sol\":12208:12217  _redisFee */\n      sload(0x0c)\n        /* \"contracts/Pool/Pool.sol\":12219:12226  _taxFee */\n      sload(0x0d)\n        /* \"contracts/Pool/Pool.sol\":12187:12198  _getTValues */\n      tag_381\n        /* \"contracts/Pool/Pool.sol\":12187:12227  _getTValues(tAmount, _redisFee, _taxFee) */\n      jump\t// in\n    tag_380:\n        /* \"contracts/Pool/Pool.sol\":12130:12227  (uint256 tTransferAmount, uint256 tFee, uint256 tTeam) = _getTValues(tAmount, _redisFee, _taxFee) */\n      swap3\n      pop\n      swap3\n      pop\n      swap3\n      pop\n        /* \"contracts/Pool/Pool.sol\":12237:12256  uint256 currentRate */\n      0x00\n        /* \"contracts/Pool/Pool.sol\":12260:12270  _getRate() */\n      tag_382\n        /* \"contracts/Pool/Pool.sol\":12260:12268  _getRate */\n      tag_327\n        /* \"contracts/Pool/Pool.sol\":12260:12270  _getRate() */\n      jump\t// in\n    tag_382:\n        /* \"contracts/Pool/Pool.sol\":12237:12270  uint256 currentRate =  _getRate() */\n      swap1\n      pop\n        /* \"contracts/Pool/Pool.sol\":12281:12296  uint256 rAmount */\n      0x00\n        /* \"contracts/Pool/Pool.sol\":12298:12321  uint256 rTransferAmount */\n      dup1\n        /* \"contracts/Pool/Pool.sol\":12323:12335  uint256 rFee */\n      0x00\n        /* \"contracts/Pool/Pool.sol\":12339:12385  _getRValues(tAmount, tFee, tTeam, currentRate) */\n      tag_383\n        /* \"contracts/Pool/Pool.sol\":12351:12358  tAmount */\n      dup15\n        /* \"contracts/Pool/Pool.sol\":12360:12364  tFee */\n      dup8\n        /* \"contracts/Pool/Pool.sol\":12366:12371  tTeam */\n      dup8\n        /* \"contracts/Pool/Pool.sol\":12373:12384  currentRate */\n      dup8\n        /* \"contracts/Pool/Pool.sol\":12339:12350  _getRValues */\n      tag_384\n        /* \"contracts/Pool/Pool.sol\":12339:12385  _getRValues(tAmount, tFee, tTeam, currentRate) */\n      jump\t// in\n    tag_383:\n        /* \"contracts/Pool/Pool.sol\":12280:12385  (uint256 rAmount, uint256 rTransferAmount, uint256 rFee) = _getRValues(tAmount, tFee, tTeam, currentRate) */\n      swap3\n      pop\n      swap3\n      pop\n      swap3\n      pop\n        /* \"contracts/Pool/Pool.sol\":12403:12410  rAmount */\n      dup3\n        /* \"contracts/Pool/Pool.sol\":12412:12427  rTransferAmount */\n      dup3\n        /* \"contracts/Pool/Pool.sol\":12429:12433  rFee */\n      dup3\n        /* \"contracts/Pool/Pool.sol\":12435:12450  tTransferAmount */\n      dup10\n        /* \"contracts/Pool/Pool.sol\":12452:12456  tFee */\n      dup10\n        /* \"contracts/Pool/Pool.sol\":12458:12463  tTeam */\n      dup10\n        /* \"contracts/Pool/Pool.sol\":12395:12464  return (rAmount, rTransferAmount, rFee, tTransferAmount, tFee, tTeam) */\n      swap13\n      pop\n      swap13\n      pop\n      swap13\n      pop\n      swap13\n      pop\n      swap13\n      pop\n      swap13\n      pop\n      pop\n      pop\n      pop\n      pop\n      pop\n      pop\n      pop\n        /* \"contracts/Pool/Pool.sol\":12007:12471  function _getValues(uint256 tAmount) private view returns (uint256, uint256, uint256, uint256, uint256, uint256) {... */\n      swap2\n      swap4\n      swap6\n      pop\n      swap2\n      swap4\n      swap6\n      jump\t// out\n        /* \"contracts/Pool/Pool.sol\":2027:2161  function sub(uint256 a, uint256 b) internal pure returns (uint256) {... */\n    tag_363:\n        /* \"contracts/Pool/Pool.sol\":2085:2092  uint256 */\n      0x00\n        /* \"contracts/Pool/Pool.sol\":2111:2154  sub(a, b, \"SafeMath: subtraction overflow\") */\n      tag_386\n        /* \"contracts/Pool/Pool.sol\":2115:2116  a */\n      dup4\n        /* \"contracts/Pool/Pool.sol\":2118:2119  b */\n      dup4\n        /* \"contracts/Pool/Pool.sol\":2111:2154  sub(a, b, \"SafeMath: subtraction overflow\") */\n      mload(0x40)\n      dup1\n      0x40\n      add\n      0x40\n      mstore\n      dup1\n      0x1e\n      dup2\n      mstore\n      0x20\n      add\n      0x536166654d6174683a207375627472616374696f6e206f766572666c6f770000\n      dup2\n      mstore\n      pop\n        /* \"contracts/Pool/Pool.sol\":2111:2114  sub */\n      tag_153\n        /* \"contracts/Pool/Pool.sol\":2111:2154  sub(a, b, \"SafeMath: subtraction overflow\") */\n      jump\t// in\n    tag_386:\n        /* \"contracts/Pool/Pool.sol\":2104:2154  return sub(a, b, \"SafeMath: subtraction overflow\") */\n      swap1\n      pop\n        /* \"contracts/Pool/Pool.sol\":2027:2161  function sub(uint256 a, uint256 b) internal pure returns (uint256) {... */\n      swap3\n      swap2\n      pop\n      pop\n      jump\t// out\n        /* \"contracts/Pool/Pool.sol\":1846:2021  function add(uint256 a, uint256 b) internal pure returns (uint256) {... */\n    tag_365:\n        /* \"contracts/Pool/Pool.sol\":1904:1911  uint256 */\n      0x00\n        /* \"contracts/Pool/Pool.sol\":1923:1932  uint256 c */\n      dup1\n        /* \"contracts/Pool/Pool.sol\":1939:1940  b */\n      dup3\n        /* \"contracts/Pool/Pool.sol\":1935:1936  a */\n      dup5\n        /* \"contracts/Pool/Pool.sol\":1935:1940  a + b */\n      tag_388\n      swap2\n      swap1\n      tag_389\n      jump\t// in\n    tag_388:\n        /* \"contracts/Pool/Pool.sol\":1923:1940  uint256 c = a + b */\n      swap1\n      pop\n        /* \"contracts/Pool/Pool.sol\":1963:1964  a */\n      dup4\n        /* \"contracts/Pool/Pool.sol\":1958:1959  c */\n      dup2\n        /* \"contracts/Pool/Pool.sol\":1958:1964  c >= a */\n      lt\n      iszero\n        /* \"contracts/Pool/Pool.sol\":1950:1996  require(c >= a, \"SafeMath: addition overflow\") */\n      tag_390\n      jumpi\n      mload(0x40)\n      0x08c379a000000000000000000000000000000000000000000000000000000000\n      dup2\n      mstore\n      0x04\n      add\n      tag_391\n      swap1\n      tag_392\n      jump\t// in\n    tag_391:\n      mload(0x40)\n      dup1\n      swap2\n      sub\n      swap1\n      revert\n    tag_390:\n        /* \"contracts/Pool/Pool.sol\":2013:2014  c */\n      dup1\n        /* \"contracts/Pool/Pool.sol\":2006:2014  return c */\n      swap2\n      pop\n      pop\n        /* \"contracts/Pool/Pool.sol\":1846:2021  function add(uint256 a, uint256 b) internal pure returns (uint256) {... */\n      swap3\n      swap2\n      pop\n      pop\n      jump\t// out\n        /* \"contracts/Pool/Pool.sol\":11604:11812  function _takeTeam(uint256 tTeam) private {... */\n    tag_367:\n        /* \"contracts/Pool/Pool.sol\":11656:11675  uint256 currentRate */\n      0x00\n        /* \"contracts/Pool/Pool.sol\":11679:11689  _getRate() */\n      tag_394\n        /* \"contracts/Pool/Pool.sol\":11679:11687  _getRate */\n      tag_327\n        /* \"contracts/Pool/Pool.sol\":11679:11689  _getRate() */\n      jump\t// in\n    tag_394:\n        /* \"contracts/Pool/Pool.sol\":11656:11689  uint256 currentRate =  _getRate() */\n      swap1\n      pop\n        /* \"contracts/Pool/Pool.sol\":11699:11712  uint256 rTeam */\n      0x00\n        /* \"contracts/Pool/Pool.sol\":11715:11737  tTeam.mul(currentRate) */\n      tag_395\n        /* \"contracts/Pool/Pool.sol\":11725:11736  currentRate */\n      dup3\n        /* \"contracts/Pool/Pool.sol\":11715:11720  tTeam */\n      dup5\n        /* \"contracts/Pool/Pool.sol\":11715:11724  tTeam.mul */\n      tag_396\n      swap1\n        /* \"contracts/Pool/Pool.sol\":11715:11737  tTeam.mul(currentRate) */\n      swap2\n      swap1\n      0xffffffff\n      and\n      jump\t// in\n    tag_395:\n        /* \"contracts/Pool/Pool.sol\":11699:11737  uint256 rTeam = tTeam.mul(currentRate) */\n      swap1\n      pop\n        /* \"contracts/Pool/Pool.sol\":11772:11805  _rOwned[address(this)].add(rTeam) */\n      tag_397\n        /* \"contracts/Pool/Pool.sol\":11799:11804  rTeam */\n      dup2\n        /* \"contracts/Pool/Pool.sol\":11772:11779  _rOwned */\n      0x02\n        /* \"contracts/Pool/Pool.sol\":11772:11794  _rOwned[address(this)] */\n      0x00\n        /* \"contracts/Pool/Pool.sol\":11788:11792  this */\n      address\n        /* \"contracts/Pool/Pool.sol\":11772:11794  _rOwned[address(this)] */\n      0xffffffffffffffffffffffffffffffffffffffff\n      and\n      0xffffffffffffffffffffffffffffffffffffffff\n      and\n      dup2\n      mstore\n      0x20\n      add\n      swap1\n      dup2\n      mstore\n      0x20\n      add\n      0x00\n      keccak256\n      sload\n        /* \"contracts/Pool/Pool.sol\":11772:11798  _rOwned[address(this)].add */\n      tag_365\n      swap1\n        /* \"contracts/Pool/Pool.sol\":11772:11805  _rOwned[address(this)].add(rTeam) */\n      swap2\n      swap1\n      0xffffffff\n      and\n      jump\t// in\n    tag_397:\n        /* \"contracts/Pool/Pool.sol\":11747:11754  _rOwned */\n      0x02\n        /* \"contracts/Pool/Pool.sol\":11747:11769  _rOwned[address(this)] */\n      0x00\n        /* \"contracts/Pool/Pool.sol\":11763:11767  this */\n      address\n        /* \"contracts/Pool/Pool.sol\":11747:11769  _rOwned[address(this)] */\n      0xffffffffffffffffffffffffffffffffffffffff\n      and\n      0xffffffffffffffffffffffffffffffffffffffff\n      and\n      dup2\n      mstore\n      0x20\n      add\n      swap1\n      dup2\n      mstore\n      0x20\n      add\n      0x00\n      keccak256\n        /* \"contracts/Pool/Pool.sol\":11747:11805  _rOwned[address(this)] = _rOwned[address(this)].add(rTeam) */\n      dup2\n      swap1\n      sstore\n      pop\n        /* \"contracts/Pool/Pool.sol\":11646:11812  {... */\n      pop\n      pop\n        /* \"contracts/Pool/Pool.sol\":11604:11812  function _takeTeam(uint256 tTeam) private {... */\n      pop\n      jump\t// out\n        /* \"contracts/Pool/Pool.sol\":11818:11962  function _reflectFee(uint256 rFee, uint256 tFee) private {... */\n    tag_369:\n        /* \"contracts/Pool/Pool.sol\":11895:11912  _rTotal.sub(rFee) */\n      tag_399\n        /* \"contracts/Pool/Pool.sol\":11907:11911  rFee */\n      dup3\n        /* \"contracts/Pool/Pool.sol\":11895:11902  _rTotal */\n      sload(0x06)\n        /* \"contracts/Pool/Pool.sol\":11895:11906  _rTotal.sub */\n      tag_363\n      swap1\n        /* \"contracts/Pool/Pool.sol\":11895:11912  _rTotal.sub(rFee) */\n      swap2\n      swap1\n      0xffffffff\n      and\n      jump\t// in\n    tag_399:\n        /* \"contracts/Pool/Pool.sol\":11885:11892  _rTotal */\n      0x06\n        /* \"contracts/Pool/Pool.sol\":11885:11912  _rTotal = _rTotal.sub(rFee) */\n      dup2\n      swap1\n      sstore\n      pop\n        /* \"contracts/Pool/Pool.sol\":11935:11955  _tFeeTotal.add(tFee) */\n      tag_400\n        /* \"contracts/Pool/Pool.sol\":11950:11954  tFee */\n      dup2\n        /* \"contracts/Pool/Pool.sol\":11935:11945  _tFeeTotal */\n      sload(0x07)\n        /* \"contracts/Pool/Pool.sol\":11935:11949  _tFeeTotal.add */\n      tag_365\n      swap1\n        /* \"contracts/Pool/Pool.sol\":11935:11955  _tFeeTotal.add(tFee) */\n      swap2\n      swap1\n      0xffffffff\n      and\n      jump\t// in\n    tag_400:\n        /* \"contracts/Pool/Pool.sol\":11922:11932  _tFeeTotal */\n      0x07\n        /* \"contracts/Pool/Pool.sol\":11922:11955  _tFeeTotal = _tFeeTotal.add(tFee) */\n      dup2\n      swap1\n      sstore\n      pop\n        /* \"contracts/Pool/Pool.sol\":11818:11962  function _reflectFee(uint256 rFee, uint256 tFee) private {... */\n      pop\n      pop\n      jump\t// out\n        /* \"contracts/Pool/Pool.sol\":12477:12823  function _getTValues(uint256 tAmount, uint256 taxFee, uint256 TeamFee) private pure returns (uint256, uint256, uint256) {... */\n    tag_381:\n        /* \"contracts/Pool/Pool.sol\":12570:12577  uint256 */\n      0x00\n        /* \"contracts/Pool/Pool.sol\":12579:12586  uint256 */\n      dup1\n        /* \"contracts/Pool/Pool.sol\":12588:12595  uint256 */\n      0x00\n        /* \"contracts/Pool/Pool.sol\":12607:12619  uint256 tFee */\n      dup1\n        /* \"contracts/Pool/Pool.sol\":12622:12650  tAmount.mul(taxFee).div(100) */\n      tag_402\n        /* \"contracts/Pool/Pool.sol\":12646:12649  100 */\n      0x64\n        /* \"contracts/Pool/Pool.sol\":12622:12641  tAmount.mul(taxFee) */\n      tag_403\n        /* \"contracts/Pool/Pool.sol\":12634:12640  taxFee */\n      dup9\n        /* \"contracts/Pool/Pool.sol\":12622:12629  tAmount */\n      dup11\n        /* \"contracts/Pool/Pool.sol\":12622:12633  tAmount.mul */\n      tag_396\n      swap1\n        /* \"contracts/Pool/Pool.sol\":12622:12641  tAmount.mul(taxFee) */\n      swap2\n      swap1\n      0xffffffff\n      and\n      jump\t// in\n    tag_403:\n        /* \"contracts/Pool/Pool.sol\":12622:12645  tAmount.mul(taxFee).div */\n      tag_316\n      swap1\n        /* \"contracts/Pool/Pool.sol\":12622:12650  tAmount.mul(taxFee).div(100) */\n      swap2\n      swap1\n      0xffffffff\n      and\n      jump\t// in\n    tag_402:\n        /* \"contracts/Pool/Pool.sol\":12607:12650  uint256 tFee = tAmount.mul(taxFee).div(100) */\n      swap1\n      pop\n        /* \"contracts/Pool/Pool.sol\":12660:12673  uint256 tTeam */\n      0x00\n        /* \"contracts/Pool/Pool.sol\":12676:12705  tAmount.mul(TeamFee).div(100) */\n      tag_404\n        /* \"contracts/Pool/Pool.sol\":12701:12704  100 */\n      0x64\n        /* \"contracts/Pool/Pool.sol\":12676:12696  tAmount.mul(TeamFee) */\n      tag_405\n        /* \"contracts/Pool/Pool.sol\":12688:12695  TeamFee */\n      dup9\n        /* \"contracts/Pool/Pool.sol\":12676:12683  tAmount */\n      dup12\n        /* \"contracts/Pool/Pool.sol\":12676:12687  tAmount.mul */\n      tag_396\n      swap1\n        /* \"contracts/Pool/Pool.sol\":12676:12696  tAmount.mul(TeamFee) */\n      swap2\n      swap1\n      0xffffffff\n      and\n      jump\t// in\n    tag_405:\n        /* \"contracts/Pool/Pool.sol\":12676:12700  tAmount.mul(TeamFee).div */\n      tag_316\n      swap1\n        /* \"contracts/Pool/Pool.sol\":12676:12705  tAmount.mul(TeamFee).div(100) */\n      swap2\n      swap1\n      0xffffffff\n      and\n      jump\t// in\n    tag_404:\n        /* \"contracts/Pool/Pool.sol\":12660:12705  uint256 tTeam = tAmount.mul(TeamFee).div(100) */\n      swap1\n      pop\n        /* \"contracts/Pool/Pool.sol\":12715:12738  uint256 tTransferAmount */\n      0x00\n        /* \"contracts/Pool/Pool.sol\":12741:12769  tAmount.sub(tFee).sub(tTeam) */\n      tag_406\n        /* \"contracts/Pool/Pool.sol\":12763:12768  tTeam */\n      dup3\n        /* \"contracts/Pool/Pool.sol\":12741:12758  tAmount.sub(tFee) */\n      tag_407\n        /* \"contracts/Pool/Pool.sol\":12753:12757  tFee */\n      dup6\n        /* \"contracts/Pool/Pool.sol\":12741:12748  tAmount */\n      dup13\n        /* \"contracts/Pool/Pool.sol\":12741:12752  tAmount.sub */\n      tag_363\n      swap1\n        /* \"contracts/Pool/Pool.sol\":12741:12758  tAmount.sub(tFee) */\n      swap2\n      swap1\n      0xffffffff\n      and\n      jump\t// in\n    tag_407:\n        /* \"contracts/Pool/Pool.sol\":12741:12762  tAmount.sub(tFee).sub */\n      tag_363\n      swap1\n        /* \"contracts/Pool/Pool.sol\":12741:12769  tAmount.sub(tFee).sub(tTeam) */\n      swap2\n      swap1\n      0xffffffff\n      and\n      jump\t// in\n    tag_406:\n        /* \"contracts/Pool/Pool.sol\":12715:12769  uint256 tTransferAmount = tAmount.sub(tFee).sub(tTeam) */\n      swap1\n      pop\n        /* \"contracts/Pool/Pool.sol\":12787:12802  tTransferAmount */\n      dup1\n        /* \"contracts/Pool/Pool.sol\":12804:12808  tFee */\n      dup4\n        /* \"contracts/Pool/Pool.sol\":12810:12815  tTeam */\n      dup4\n        /* \"contracts/Pool/Pool.sol\":12779:12816  return (tTransferAmount, tFee, tTeam) */\n      swap6\n      pop\n      swap6\n      pop\n      swap6\n      pop\n      pop\n      pop\n      pop\n        /* \"contracts/Pool/Pool.sol\":12477:12823  function _getTValues(uint256 tAmount, uint256 taxFee, uint256 TeamFee) private pure returns (uint256, uint256, uint256) {... */\n      swap4\n      pop\n      swap4\n      pop\n      swap4\n      swap1\n      pop\n      jump\t// out\n        /* \"contracts/Pool/Pool.sol\":12829:13232  function _getRValues(uint256 tAmount, uint256 tFee, uint256 tTeam, uint256 currentRate) private pure returns (uint256, uint256, uint256) {... */\n    tag_384:\n        /* \"contracts/Pool/Pool.sol\":12939:12946  uint256 */\n      0x00\n        /* \"contracts/Pool/Pool.sol\":12948:12955  uint256 */\n      dup1\n        /* \"contracts/Pool/Pool.sol\":12957:12964  uint256 */\n      0x00\n        /* \"contracts/Pool/Pool.sol\":12976:12991  uint256 rAmount */\n      dup1\n        /* \"contracts/Pool/Pool.sol\":12994:13018  tAmount.mul(currentRate) */\n      tag_409\n        /* \"contracts/Pool/Pool.sol\":13006:13017  currentRate */\n      dup6\n        /* \"contracts/Pool/Pool.sol\":12994:13001  tAmount */\n      dup10\n        /* \"contracts/Pool/Pool.sol\":12994:13005  tAmount.mul */\n      tag_396\n      swap1\n        /* \"contracts/Pool/Pool.sol\":12994:13018  tAmount.mul(currentRate) */\n      swap2\n      swap1\n      0xffffffff\n      and\n      jump\t// in\n    tag_409:\n        /* \"contracts/Pool/Pool.sol\":12976:13018  uint256 rAmount = tAmount.mul(currentRate) */\n      swap1\n      pop\n        /* \"contracts/Pool/Pool.sol\":13028:13040  uint256 rFee */\n      0x00\n        /* \"contracts/Pool/Pool.sol\":13043:13064  tFee.mul(currentRate) */\n      tag_410\n        /* \"contracts/Pool/Pool.sol\":13052:13063  currentRate */\n      dup7\n        /* \"contracts/Pool/Pool.sol\":13043:13047  tFee */\n      dup10\n        /* \"contracts/Pool/Pool.sol\":13043:13051  tFee.mul */\n      tag_396\n      swap1\n        /* \"contracts/Pool/Pool.sol\":13043:13064  tFee.mul(currentRate) */\n      swap2\n      swap1\n      0xffffffff\n      and\n      jump\t// in\n    tag_410:\n        /* \"contracts/Pool/Pool.sol\":13028:13064  uint256 rFee = tFee.mul(currentRate) */\n      swap1\n      pop\n        /* \"contracts/Pool/Pool.sol\":13074:13087  uint256 rTeam */\n      0x00\n        /* \"contracts/Pool/Pool.sol\":13090:13112  tTeam.mul(currentRate) */\n      tag_411\n        /* \"contracts/Pool/Pool.sol\":13100:13111  currentRate */\n      dup8\n        /* \"contracts/Pool/Pool.sol\":13090:13095  tTeam */\n      dup10\n        /* \"contracts/Pool/Pool.sol\":13090:13099  tTeam.mul */\n      tag_396\n      swap1\n        /* \"contracts/Pool/Pool.sol\":13090:13112  tTeam.mul(currentRate) */\n      swap2\n      swap1\n      0xffffffff\n      and\n      jump\t// in\n    tag_411:\n        /* \"contracts/Pool/Pool.sol\":13074:13112  uint256 rTeam = tTeam.mul(currentRate) */\n      swap1\n      pop\n        /* \"contracts/Pool/Pool.sol\":13122:13145  uint256 rTransferAmount */\n      0x00\n        /* \"contracts/Pool/Pool.sol\":13148:13176  rAmount.sub(rFee).sub(rTeam) */\n      tag_412\n        /* \"contracts/Pool/Pool.sol\":13170:13175  rTeam */\n      dup3\n        /* \"contracts/Pool/Pool.sol\":13148:13165  rAmount.sub(rFee) */\n      tag_413\n        /* \"contracts/Pool/Pool.sol\":13160:13164  rFee */\n      dup6\n        /* \"contracts/Pool/Pool.sol\":13148:13155  rAmount */\n      dup8\n        /* \"contracts/Pool/Pool.sol\":13148:13159  rAmount.sub */\n      tag_363\n      swap1\n        /* \"contracts/Pool/Pool.sol\":13148:13165  rAmount.sub(rFee) */\n      swap2\n      swap1\n      0xffffffff\n      and\n      jump\t// in\n    tag_413:\n        /* \"contracts/Pool/Pool.sol\":13148:13169  rAmount.sub(rFee).sub */\n      tag_363\n      swap1\n        /* \"contracts/Pool/Pool.sol\":13148:13176  rAmount.sub(rFee).sub(rTeam) */\n      swap2\n      swap1\n      0xffffffff\n      and\n      jump\t// in\n    tag_412:\n        /* \"contracts/Pool/Pool.sol\":13122:13176  uint256 rTransferAmount = rAmount.sub(rFee).sub(rTeam) */\n      swap1\n      pop\n        /* \"contracts/Pool/Pool.sol\":13194:13201  rAmount */\n      dup4\n        /* \"contracts/Pool/Pool.sol\":13203:13218  rTransferAmount */\n      dup2\n        /* \"contracts/Pool/Pool.sol\":13220:13224  rFee */\n      dup5\n        /* \"contracts/Pool/Pool.sol\":13186:13225  return (rAmount, rTransferAmount, rFee) */\n      swap7\n      pop\n      swap7\n      pop\n      swap7\n      pop\n      pop\n      pop\n      pop\n      pop\n        /* \"contracts/Pool/Pool.sol\":12829:13232  function _getRValues(uint256 tAmount, uint256 tFee, uint256 tTeam, uint256 currentRate) private pure returns (uint256, uint256, uint256) {... */\n      swap5\n      pop\n      swap5\n      pop\n      swap5\n      swap2\n      pop\n      pop\n      jump\t// out\n        /* \"contracts/Pool/Pool.sol\":2359:2598  function mul(uint256 a, uint256 b) internal pure returns (uint256) {... */\n    tag_396:\n        /* \"contracts/Pool/Pool.sol\":2417:2424  uint256 */\n      0x00\n        /* \"contracts/Pool/Pool.sol\":2445:2446  0 */\n      dup1\n        /* \"contracts/Pool/Pool.sol\":2440:2441  a */\n      dup4\n        /* \"contracts/Pool/Pool.sol\":2440:2446  a == 0 */\n      sub\n        /* \"contracts/Pool/Pool.sol\":2436:2481  if (a == 0) {... */\n      tag_415\n      jumpi\n        /* \"contracts/Pool/Pool.sol\":2469:2470  0 */\n      0x00\n        /* \"contracts/Pool/Pool.sol\":2462:2470  return 0 */\n      swap1\n      pop\n      jump(tag_414)\n        /* \"contracts/Pool/Pool.sol\":2436:2481  if (a == 0) {... */\n    tag_415:\n        /* \"contracts/Pool/Pool.sol\":2490:2499  uint256 c */\n      0x00\n        /* \"contracts/Pool/Pool.sol\":2506:2507  b */\n      dup3\n        /* \"contracts/Pool/Pool.sol\":2502:2503  a */\n      dup5\n        /* \"contracts/Pool/Pool.sol\":2502:2507  a * b */\n      tag_416\n      swap2\n      swap1\n      tag_417\n      jump\t// in\n    tag_416:\n        /* \"contracts/Pool/Pool.sol\":2490:2507  uint256 c = a * b */\n      swap1\n      pop\n        /* \"contracts/Pool/Pool.sol\":2534:2535  b */\n      dup3\n        /* \"contracts/Pool/Pool.sol\":2529:2530  a */\n      dup5\n        /* \"contracts/Pool/Pool.sol\":2525:2526  c */\n      dup3\n        /* \"contracts/Pool/Pool.sol\":2525:2530  c / a */\n      tag_418\n      swap2\n      swap1\n      tag_375\n      jump\t// in\n    tag_418:\n        /* \"contracts/Pool/Pool.sol\":2525:2535  c / a == b */\n      eq\n        /* \"contracts/Pool/Pool.sol\":2517:2573  require(c / a == b, \"SafeMath: multiplication overflow\") */\n      tag_419\n      jumpi\n      mload(0x40)\n      0x08c379a000000000000000000000000000000000000000000000000000000000\n      dup2\n      mstore\n      0x04\n      add\n      tag_420\n      swap1\n      tag_421\n      jump\t// in\n    tag_420:\n      mload(0x40)\n      dup1\n      swap2\n      sub\n      swap1\n      revert\n    tag_419:\n        /* \"contracts/Pool/Pool.sol\":2590:2591  c */\n      dup1\n        /* \"contracts/Pool/Pool.sol\":2583:2591  return c */\n      swap2\n      pop\n      pop\n        /* \"contracts/Pool/Pool.sol\":2359:2598  function mul(uint256 a, uint256 b) internal pure returns (uint256) {... */\n    tag_414:\n      swap3\n      swap2\n      pop\n      pop\n      jump\t// out\n        /* \"#utility.yul\":7:106   */\n    tag_422:\n        /* \"#utility.yul\":59:65   */\n      0x00\n        /* \"#utility.yul\":93:98   */\n      dup2\n        /* \"#utility.yul\":87:99   */\n      mload\n        /* \"#utility.yul\":77:99   */\n      swap1\n      pop\n        /* \"#utility.yul\":7:106   */\n      swap2\n      swap1\n      pop\n      jump\t// out\n        /* \"#utility.yul\":112:281   */\n    tag_423:\n        /* \"#utility.yul\":196:207   */\n      0x00\n        /* \"#utility.yul\":230:236   */\n      dup3\n        /* \"#utility.yul\":225:228   */\n      dup3\n        /* \"#utility.yul\":218:237   */\n      mstore\n        /* \"#utility.yul\":270:274   */\n      0x20\n        /* \"#utility.yul\":265:268   */\n      dup3\n        /* \"#utility.yul\":261:275   */\n      add\n        /* \"#utility.yul\":246:275   */\n      swap1\n      pop\n        /* \"#utility.yul\":112:281   */\n      swap3\n      swap2\n      pop\n      pop\n      jump\t// out\n        /* \"#utility.yul\":287:594   */\n    tag_424:\n        /* \"#utility.yul\":355:356   */\n      0x00\n        /* \"#utility.yul\":365:478   */\n    tag_499:\n        /* \"#utility.yul\":379:385   */\n      dup4\n        /* \"#utility.yul\":376:377   */\n      dup2\n        /* \"#utility.yul\":373:386   */\n      lt\n        /* \"#utility.yul\":365:478   */\n      iszero\n      tag_501\n      jumpi\n        /* \"#utility.yul\":464:465   */\n      dup1\n        /* \"#utility.yul\":459:462   */\n      dup3\n        /* \"#utility.yul\":455:466   */\n      add\n        /* \"#utility.yul\":449:467   */\n      mload\n        /* \"#utility.yul\":445:446   */\n      dup2\n        /* \"#utility.yul\":440:443   */\n      dup5\n        /* \"#utility.yul\":436:447   */\n      add\n        /* \"#utility.yul\":429:468   */\n      mstore\n        /* \"#utility.yul\":401:403   */\n      0x20\n        /* \"#utility.yul\":398:399   */\n      dup2\n        /* \"#utility.yul\":394:404   */\n      add\n        /* \"#utility.yul\":389:404   */\n      swap1\n      pop\n        /* \"#utility.yul\":365:478   */\n      jump(tag_499)\n    tag_501:\n        /* \"#utility.yul\":496:502   */\n      dup4\n        /* \"#utility.yul\":493:494   */\n      dup2\n        /* \"#utility.yul\":490:503   */\n      gt\n        /* \"#utility.yul\":487:588   */\n      iszero\n      tag_502\n      jumpi\n        /* \"#utility.yul\":576:577   */\n      0x00\n        /* \"#utility.yul\":567:573   */\n      dup5\n        /* \"#utility.yul\":562:565   */\n      dup5\n        /* \"#utility.yul\":558:574   */\n      add\n        /* \"#utility.yul\":551:578   */\n      mstore\n        /* \"#utility.yul\":487:588   */\n    tag_502:\n        /* \"#utility.yul\":336:594   */\n      pop\n        /* \"#utility.yul\":287:594   */\n      pop\n      pop\n      pop\n      jump\t// out\n        /* \"#utility.yul\":600:702   */\n    tag_425:\n        /* \"#utility.yul\":641:647   */\n      0x00\n        /* \"#utility.yul\":692:694   */\n      0x1f\n        /* \"#utility.yul\":688:695   */\n      not\n        /* \"#utility.yul\":683:685   */\n      0x1f\n        /* \"#utility.yul\":676:681   */\n      dup4\n        /* \"#utility.yul\":672:686   */\n      add\n        /* \"#utility.yul\":668:696   */\n      and\n        /* \"#utility.yul\":658:696   */\n      swap1\n      pop\n        /* \"#utility.yul\":600:702   */\n      swap2\n      swap1\n      pop\n      jump\t// out\n        /* \"#utility.yul\":708:1072   */\n    tag_426:\n        /* \"#utility.yul\":796:799   */\n      0x00\n        /* \"#utility.yul\":824:863   */\n      tag_505\n        /* \"#utility.yul\":857:862   */\n      dup3\n        /* \"#utility.yul\":824:863   */\n      tag_422\n      jump\t// in\n    tag_505:\n        /* \"#utility.yul\":879:950   */\n      tag_506\n        /* \"#utility.yul\":943:949   */\n      dup2\n        /* \"#utility.yul\":938:941   */\n      dup6\n        /* \"#utility.yul\":879:950   */\n      tag_423\n      jump\t// in\n    tag_506:\n        /* \"#utility.yul\":872:950   */\n      swap4\n      pop\n        /* \"#utility.yul\":959:1011   */\n      tag_507\n        /* \"#utility.yul\":1004:1010   */\n      dup2\n        /* \"#utility.yul\":999:1002   */\n      dup6\n        /* \"#utility.yul\":992:996   */\n      0x20\n        /* \"#utility.yul\":985:990   */\n      dup7\n        /* \"#utility.yul\":981:997   */\n      add\n        /* \"#utility.yul\":959:1011   */\n      tag_424\n      jump\t// in\n    tag_507:\n        /* \"#utility.yul\":1036:1065   */\n      tag_508\n        /* \"#utility.yul\":1058:1064   */\n      dup2\n        /* \"#utility.yul\":1036:1065   */\n      tag_425\n      jump\t// in\n    tag_508:\n        /* \"#utility.yul\":1031:1034   */\n      dup5\n        /* \"#utility.yul\":1027:1066   */\n      add\n        /* \"#utility.yul\":1020:1066   */\n      swap2\n      pop\n        /* \"#utility.yul\":800:1072   */\n      pop\n        /* \"#utility.yul\":708:1072   */\n      swap3\n      swap2\n      pop\n      pop\n      jump\t// out\n        /* \"#utility.yul\":1078:1391   */\n    tag_35:\n        /* \"#utility.yul\":1191:1195   */\n      0x00\n        /* \"#utility.yul\":1229:1231   */\n      0x20\n        /* \"#utility.yul\":1218:1227   */\n      dup3\n        /* \"#utility.yul\":1214:1232   */\n      add\n        /* \"#utility.yul\":1206:1232   */\n      swap1\n      pop\n        /* \"#utility.yul\":1278:1287   */\n      dup2\n        /* \"#utility.yul\":1272:1276   */\n      dup2\n        /* \"#utility.yul\":1268:1288   */\n      sub\n        /* \"#utility.yul\":1264:1265   */\n      0x00\n        /* \"#utility.yul\":1253:1262   */\n      dup4\n        /* \"#utility.yul\":1249:1266   */\n      add\n        /* \"#utility.yul\":1242:1289   */\n      mstore\n        /* \"#utility.yul\":1306:1384   */\n      tag_510\n        /* \"#utility.yul\":1379:1383   */\n      dup2\n        /* \"#utility.yul\":1370:1376   */\n      dup5\n        /* \"#utility.yul\":1306:1384   */\n      tag_426\n      jump\t// in\n    tag_510:\n        /* \"#utility.yul\":1298:1384   */\n      swap1\n      pop\n        /* \"#utility.yul\":1078:1391   */\n      swap3\n      swap2\n      pop\n      pop\n      jump\t// out\n        /* \"#utility.yul\":1478:1595   */\n    tag_428:\n        /* \"#utility.yul\":1587:1588   */\n      0x00\n        /* \"#utility.yul\":1584:1585   */\n      dup1\n        /* \"#utility.yul\":1577:1589   */\n      revert\n        /* \"#utility.yul\":1601:1718   */\n    tag_429:\n        /* \"#utility.yul\":1710:1711   */\n      0x00\n        /* \"#utility.yul\":1707:1708   */\n      dup1\n        /* \"#utility.yul\":1700:1712   */\n      revert\n        /* \"#utility.yul\":1724:1850   */\n    tag_430:\n        /* \"#utility.yul\":1761:1768   */\n      0x00\n        /* \"#utility.yul\":1801:1843   */\n      0xffffffffffffffffffffffffffffffffffffffff\n        /* \"#utility.yul\":1794:1799   */\n      dup3\n        /* \"#utility.yul\":1790:1844   */\n      and\n        /* \"#utility.yul\":1779:1844   */\n      swap1\n      pop\n        /* \"#utility.yul\":1724:1850   */\n      swap2\n      swap1\n      pop\n      jump\t// out\n        /* \"#utility.yul\":1856:1952   */\n    tag_431:\n        /* \"#utility.yul\":1893:1900   */\n      0x00\n        /* \"#utility.yul\":1922:1946   */\n      tag_516\n        /* \"#utility.yul\":1940:1945   */\n      dup3\n        /* \"#utility.yul\":1922:1946   */\n      tag_430\n      jump\t// in\n    tag_516:\n        /* \"#utility.yul\":1911:1946   */\n      swap1\n      pop\n        /* \"#utility.yul\":1856:1952   */\n      swap2\n      swap1\n      pop\n      jump\t// out\n        /* \"#utility.yul\":1958:2080   */\n    tag_432:\n        /* \"#utility.yul\":2031:2055   */\n      tag_518\n        /* \"#utility.yul\":2049:2054   */\n      dup2\n        /* \"#utility.yul\":2031:2055   */\n      tag_431\n      jump\t// in\n    tag_518:\n        /* \"#utility.yul\":2024:2029   */\n      dup2\n        /* \"#utility.yul\":2021:2056   */\n      eq\n        /* \"#utility.yul\":2011:2074   */\n      tag_519\n      jumpi\n        /* \"#utility.yul\":2070:2071   */\n      0x00\n        /* \"#utility.yul\":2067:2068   */\n      dup1\n        /* \"#utility.yul\":2060:2072   */\n      revert\n        /* \"#utility.yul\":2011:2074   */\n    tag_519:\n        /* \"#utility.yul\":1958:2080   */\n      pop\n      jump\t// out\n        /* \"#utility.yul\":2086:2225   */\n    tag_433:\n        /* \"#utility.yul\":2132:2137   */\n      0x00\n        /* \"#utility.yul\":2170:2176   */\n      dup2\n        /* \"#utility.yul\":2157:2177   */\n      calldataload\n        /* \"#utility.yul\":2148:2177   */\n      swap1\n      pop\n        /* \"#utility.yul\":2186:2219   */\n      tag_521\n        /* \"#utility.yul\":2213:2218   */\n      dup2\n        /* \"#utility.yul\":2186:2219   */\n      tag_432\n      jump\t// in\n    tag_521:\n        /* \"#utility.yul\":2086:2225   */\n      swap3\n      swap2\n      pop\n      pop\n      jump\t// out\n        /* \"#utility.yul\":2231:2308   */\n    tag_434:\n        /* \"#utility.yul\":2268:2275   */\n      0x00\n        /* \"#utility.yul\":2297:2302   */\n      dup2\n        /* \"#utility.yul\":2286:2302   */\n      swap1\n      pop\n        /* \"#utility.yul\":2231:2308   */\n      swap2\n      swap1\n      pop\n      jump\t// out\n        /* \"#utility.yul\":2314:2436   */\n    tag_435:\n        /* \"#utility.yul\":2387:2411   */\n      tag_524\n        /* \"#utility.yul\":2405:2410   */\n      dup2\n        /* \"#utility.yul\":2387:2411   */\n      tag_434\n      jump\t// in\n    tag_524:\n        /* \"#utility.yul\":2380:2385   */\n      dup2\n        /* \"#utility.yul\":2377:2412   */\n      eq\n        /* \"#utility.yul\":2367:2430   */\n      tag_525\n      jumpi\n        /* \"#utility.yul\":2426:2427   */\n      0x00\n        /* \"#utility.yul\":2423:2424   */\n      dup1\n        /* \"#utility.yul\":2416:2428   */\n      revert\n        /* \"#utility.yul\":2367:2430   */\n    tag_525:\n        /* \"#utility.yul\":2314:2436   */\n      pop\n      jump\t// out\n        /* \"#utility.yul\":2442:2581   */\n    tag_436:\n        /* \"#utility.yul\":2488:2493   */\n      0x00\n        /* \"#utility.yul\":2526:2532   */\n      dup2\n        /* \"#utility.yul\":2513:2533   */\n      calldataload\n        /* \"#utility.yul\":2504:2533   */\n      swap1\n      pop\n        /* \"#utility.yul\":2542:2575   */\n      tag_527\n        /* \"#utility.yul\":2569:2574   */\n      dup2\n        /* \"#utility.yul\":2542:2575   */\n      tag_435\n      jump\t// in\n    tag_527:\n        /* \"#utility.yul\":2442:2581   */\n      swap3\n      swap2\n      pop\n      pop\n      jump\t// out\n        /* \"#utility.yul\":2587:3061   */\n    tag_39:\n        /* \"#utility.yul\":2655:2661   */\n      0x00\n        /* \"#utility.yul\":2663:2669   */\n      dup1\n        /* \"#utility.yul\":2712:2714   */\n      0x40\n        /* \"#utility.yul\":2700:2709   */\n      dup4\n        /* \"#utility.yul\":2691:2698   */\n      dup6\n        /* \"#utility.yul\":2687:2710   */\n      sub\n        /* \"#utility.yul\":2683:2715   */\n      slt\n        /* \"#utility.yul\":2680:2799   */\n      iszero\n      tag_529\n      jumpi\n        /* \"#utility.yul\":2718:2797   */\n      tag_530\n      tag_428\n      jump\t// in\n    tag_530:\n        /* \"#utility.yul\":2680:2799   */\n    tag_529:\n        /* \"#utility.yul\":2838:2839   */\n      0x00\n        /* \"#utility.yul\":2863:2916   */\n      tag_531\n        /* \"#utility.yul\":2908:2915   */\n      dup6\n        /* \"#utility.yul\":2899:2905   */\n      dup3\n        /* \"#utility.yul\":2888:2897   */\n      dup7\n        /* \"#utility.yul\":2884:2906   */\n      add\n        /* \"#utility.yul\":2863:2916   */\n      tag_433\n      jump\t// in\n    tag_531:\n        /* \"#utility.yul\":2853:2916   */\n      swap3\n      pop\n        /* \"#utility.yul\":2809:2926   */\n      pop\n        /* \"#utility.yul\":2965:2967   */\n      0x20\n        /* \"#utility.yul\":2991:3044   */\n      tag_532\n        /* \"#utility.yul\":3036:3043   */\n      dup6\n        /* \"#utility.yul\":3027:3033   */\n      dup3\n        /* \"#utility.yul\":3016:3025   */\n      dup7\n        /* \"#utility.yul\":3012:3034   */\n      add\n        /* \"#utility.yul\":2991:3044   */\n      tag_436\n      jump\t// in\n    tag_532:\n        /* \"#utility.yul\":2981:3044   */\n      swap2\n      pop\n        /* \"#utility.yul\":2936:3054   */\n      pop\n        /* \"#utility.yul\":2587:3061   */\n      swap3\n      pop\n      swap3\n      swap1\n      pop\n      jump\t// out\n        /* \"#utility.yul\":3067:3157   */\n    tag_437:\n        /* \"#utility.yul\":3101:3108   */\n      0x00\n        /* \"#utility.yul\":3144:3149   */\n      dup2\n        /* \"#utility.yul\":3137:3150   */\n      iszero\n        /* \"#utility.yul\":3130:3151   */\n      iszero\n        /* \"#utility.yul\":3119:3151   */\n      swap1\n      pop\n        /* \"#utility.yul\":3067:3157   */\n      swap2\n      swap1\n      pop\n      jump\t// out\n        /* \"#utility.yul\":3163:3272   */\n    tag_438:\n        /* \"#utility.yul\":3244:3265   */\n      tag_535\n        /* \"#utility.yul\":3259:3264   */\n      dup2\n        /* \"#utility.yul\":3244:3265   */\n      tag_437\n      jump\t// in\n    tag_535:\n        /* \"#utility.yul\":3239:3242   */\n      dup3\n        /* \"#utility.yul\":3232:3266   */\n      mstore\n        /* \"#utility.yul\":3163:3272   */\n      pop\n      pop\n      jump\t// out\n        /* \"#utility.yul\":3278:3488   */\n    tag_42:\n        /* \"#utility.yul\":3365:3369   */\n      0x00\n        /* \"#utility.yul\":3403:3405   */\n      0x20\n        /* \"#utility.yul\":3392:3401   */\n      dup3\n        /* \"#utility.yul\":3388:3406   */\n      add\n        /* \"#utility.yul\":3380:3406   */\n      swap1\n      pop\n        /* \"#utility.yul\":3416:3481   */\n      tag_537\n        /* \"#utility.yul\":3478:3479   */\n      0x00\n        /* \"#utility.yul\":3467:3476   */\n      dup4\n        /* \"#utility.yul\":3463:3480   */\n      add\n        /* \"#utility.yul\":3454:3460   */\n      dup5\n        /* \"#utility.yul\":3416:3481   */\n      tag_438\n      jump\t// in\n    tag_537:\n        /* \"#utility.yul\":3278:3488   */\n      swap3\n      swap2\n      pop\n      pop\n      jump\t// out\n        /* \"#utility.yul\":3494:3554   */\n    tag_439:\n        /* \"#utility.yul\":3522:3525   */\n      0x00\n        /* \"#utility.yul\":3543:3548   */\n      dup2\n        /* \"#utility.yul\":3536:3548   */\n      swap1\n      pop\n        /* \"#utility.yul\":3494:3554   */\n      swap2\n      swap1\n      pop\n      jump\t// out\n        /* \"#utility.yul\":3560:3702   */\n    tag_440:\n        /* \"#utility.yul\":3610:3619   */\n      0x00\n        /* \"#utility.yul\":3643:3696   */\n      tag_540\n        /* \"#utility.yul\":3661:3695   */\n      tag_541\n        /* \"#utility.yul\":3670:3694   */\n      tag_542\n        /* \"#utility.yul\":3688:3693   */\n      dup5\n        /* \"#utility.yul\":3670:3694   */\n      tag_430\n      jump\t// in\n    tag_542:\n        /* \"#utility.yul\":3661:3695   */\n      tag_439\n      jump\t// in\n    tag_541:\n        /* \"#utility.yul\":3643:3696   */\n      tag_430\n      jump\t// in\n    tag_540:\n        /* \"#utility.yul\":3630:3696   */\n      swap1\n      pop\n        /* \"#utility.yul\":3560:3702   */\n      swap2\n      swap1\n      pop\n      jump\t// out\n        /* \"#utility.yul\":3708:3834   */\n    tag_441:\n        /* \"#utility.yul\":3758:3767   */\n      0x00\n        /* \"#utility.yul\":3791:3828   */\n      tag_544\n        /* \"#utility.yul\":3822:3827   */\n      dup3\n        /* \"#utility.yul\":3791:3828   */\n      tag_440\n      jump\t// in\n    tag_544:\n        /* \"#utility.yul\":3778:3828   */\n      swap1\n      pop\n        /* \"#utility.yul\":3708:3834   */\n      swap2\n      swap1\n      pop\n      jump\t// out\n        /* \"#utility.yul\":3840:3992   */\n    tag_442:\n        /* \"#utility.yul\":3916:3925   */\n      0x00\n        /* \"#utility.yul\":3949:3986   */\n      tag_546\n        /* \"#utility.yul\":3980:3985   */\n      dup3\n        /* \"#utility.yul\":3949:3986   */\n      tag_441\n      jump\t// in\n    tag_546:\n        /* \"#utility.yul\":3936:3986   */\n      swap1\n      pop\n        /* \"#utility.yul\":3840:3992   */\n      swap2\n      swap1\n      pop\n      jump\t// out\n        /* \"#utility.yul\":3998:4181   */\n    tag_443:\n        /* \"#utility.yul\":4111:4174   */\n      tag_548\n        /* \"#utility.yul\":4168:4173   */\n      dup2\n        /* \"#utility.yul\":4111:4174   */\n      tag_442\n      jump\t// in\n    tag_548:\n        /* \"#utility.yul\":4106:4109   */\n      dup3\n        /* \"#utility.yul\":4099:4175   */\n      mstore\n        /* \"#utility.yul\":3998:4181   */\n      pop\n      pop\n      jump\t// out\n        /* \"#utility.yul\":4187:4461   */\n    tag_47:\n        /* \"#utility.yul\":4306:4310   */\n      0x00\n        /* \"#utility.yul\":4344:4346   */\n      0x20\n        /* \"#utility.yul\":4333:4342   */\n      dup3\n        /* \"#utility.yul\":4329:4347   */\n      add\n        /* \"#utility.yul\":4321:4347   */\n      swap1\n      pop\n        /* \"#utility.yul\":4357:4454   */\n      tag_550\n        /* \"#utility.yul\":4451:4452   */\n      0x00\n        /* \"#utility.yul\":4440:4449   */\n      dup4\n        /* \"#utility.yul\":4436:4453   */\n      add\n        /* \"#utility.yul\":4427:4433   */\n      dup5\n        /* \"#utility.yul\":4357:4454   */\n      tag_443\n      jump\t// in\n    tag_550:\n        /* \"#utility.yul\":4187:4461   */\n      swap3\n      swap2\n      pop\n      pop\n      jump\t// out\n        /* \"#utility.yul\":4467:4585   */\n    tag_444:\n        /* \"#utility.yul\":4554:4578   */\n      tag_552\n        /* \"#utility.yul\":4572:4577   */\n      dup2\n        /* \"#utility.yul\":4554:4578   */\n      tag_434\n      jump\t// in\n    tag_552:\n        /* \"#utility.yul\":4549:4552   */\n      dup3\n        /* \"#utility.yul\":4542:4579   */\n      mstore\n        /* \"#utility.yul\":4467:4585   */\n      pop\n      pop\n      jump\t// out\n        /* \"#utility.yul\":4591:4813   */\n    tag_52:\n        /* \"#utility.yul\":4684:4688   */\n      0x00\n        /* \"#utility.yul\":4722:4724   */\n      0x20\n        /* \"#utility.yul\":4711:4720   */\n      dup3\n        /* \"#utility.yul\":4707:4725   */\n      add\n        /* \"#utility.yul\":4699:4725   */\n      swap1\n      pop\n        /* \"#utility.yul\":4735:4806   */\n      tag_554\n        /* \"#utility.yul\":4803:4804   */\n      0x00\n        /* \"#utility.yul\":4792:4801   */\n      dup4\n        /* \"#utility.yul\":4788:4805   */\n      add\n        /* \"#utility.yul\":4779:4785   */\n      dup5\n        /* \"#utility.yul\":4735:4806   */\n      tag_444\n      jump\t// in\n    tag_554:\n        /* \"#utility.yul\":4591:4813   */\n      swap3\n      swap2\n      pop\n      pop\n      jump\t// out\n        /* \"#utility.yul\":4819:5438   */\n    tag_56:\n        /* \"#utility.yul\":4896:4902   */\n      0x00\n        /* \"#utility.yul\":4904:4910   */\n      dup1\n        /* \"#utility.yul\":4912:4918   */\n      0x00\n        /* \"#utility.yul\":4961:4963   */\n      0x60\n        /* \"#utility.yul\":4949:4958   */\n      dup5\n        /* \"#utility.yul\":4940:4947   */\n      dup7\n        /* \"#utility.yul\":4936:4959   */\n      sub\n        /* \"#utility.yul\":4932:4964   */\n      slt\n        /* \"#utility.yul\":4929:5048   */\n      iszero\n      tag_556\n      jumpi\n        /* \"#utility.yul\":4967:5046   */\n      tag_557\n      tag_428\n      jump\t// in\n    tag_557:\n        /* \"#utility.yul\":4929:5048   */\n    tag_556:\n        /* \"#utility.yul\":5087:5088   */\n      0x00\n        /* \"#utility.yul\":5112:5165   */\n      tag_558\n        /* \"#utility.yul\":5157:5164   */\n      dup7\n        /* \"#utility.yul\":5148:5154   */\n      dup3\n        /* \"#utility.yul\":5137:5146   */\n      dup8\n        /* \"#utility.yul\":5133:5155   */\n      add\n        /* \"#utility.yul\":5112:5165   */\n      tag_433\n      jump\t// in\n    tag_558:\n        /* \"#utility.yul\":5102:5165   */\n      swap4\n      pop\n        /* \"#utility.yul\":5058:5175   */\n      pop\n        /* \"#utility.yul\":5214:5216   */\n      0x20\n        /* \"#utility.yul\":5240:5293   */\n      tag_559\n        /* \"#utility.yul\":5285:5292   */\n      dup7\n        /* \"#utility.yul\":5276:5282   */\n      dup3\n        /* \"#utility.yul\":5265:5274   */\n      dup8\n        /* \"#utility.yul\":5261:5283   */\n      add\n        /* \"#utility.yul\":5240:5293   */\n      tag_433\n      jump\t// in\n    tag_559:\n        /* \"#utility.yul\":5230:5293   */\n      swap3\n      pop\n        /* \"#utility.yul\":5185:5303   */\n      pop\n        /* \"#utility.yul\":5342:5344   */\n      0x40\n        /* \"#utility.yul\":5368:5421   */\n      tag_560\n        /* \"#utility.yul\":5413:5420   */\n      dup7\n        /* \"#utility.yul\":5404:5410   */\n      dup3\n        /* \"#utility.yul\":5393:5402   */\n      dup8\n        /* \"#utility.yul\":5389:5411   */\n      add\n        /* \"#utility.yul\":5368:5421   */\n      tag_436\n      jump\t// in\n    tag_560:\n        /* \"#utility.yul\":5358:5421   */\n      swap2\n      pop\n        /* \"#utility.yul\":5313:5431   */\n      pop\n        /* \"#utility.yul\":4819:5438   */\n      swap3\n      pop\n      swap3\n      pop\n      swap3\n      jump\t// out\n        /* \"#utility.yul\":5444:5530   */\n    tag_445:\n        /* \"#utility.yul\":5479:5486   */\n      0x00\n        /* \"#utility.yul\":5519:5523   */\n      0xff\n        /* \"#utility.yul\":5512:5517   */\n      dup3\n        /* \"#utility.yul\":5508:5524   */\n      and\n        /* \"#utility.yul\":5497:5524   */\n      swap1\n      pop\n        /* \"#utility.yul\":5444:5530   */\n      swap2\n      swap1\n      pop\n      jump\t// out\n        /* \"#utility.yul\":5536:5648   */\n    tag_446:\n        /* \"#utility.yul\":5619:5641   */\n      tag_563\n        /* \"#utility.yul\":5635:5640   */\n      dup2\n        /* \"#utility.yul\":5619:5641   */\n      tag_445\n      jump\t// in\n    tag_563:\n        /* \"#utility.yul\":5614:5617   */\n      dup3\n        /* \"#utility.yul\":5607:5642   */\n      mstore\n        /* \"#utility.yul\":5536:5648   */\n      pop\n      pop\n      jump\t// out\n        /* \"#utility.yul\":5654:5868   */\n    tag_63:\n        /* \"#utility.yul\":5743:5747   */\n      0x00\n        /* \"#utility.yul\":5781:5783   */\n      0x20\n        /* \"#utility.yul\":5770:5779   */\n      dup3\n        /* \"#utility.yul\":5766:5784   */\n      add\n        /* \"#utility.yul\":5758:5784   */\n      swap1\n      pop\n        /* \"#utility.yul\":5794:5861   */\n      tag_565\n        /* \"#utility.yul\":5858:5859   */\n      0x00\n        /* \"#utility.yul\":5847:5856   */\n      dup4\n        /* \"#utility.yul\":5843:5860   */\n      add\n        /* \"#utility.yul\":5834:5840   */\n      dup5\n        /* \"#utility.yul\":5794:5861   */\n      tag_446\n      jump\t// in\n    tag_565:\n        /* \"#utility.yul\":5654:5868   */\n      swap3\n      swap2\n      pop\n      pop\n      jump\t// out\n        /* \"#utility.yul\":5874:5992   */\n    tag_447:\n        /* \"#utility.yul\":5961:5985   */\n      tag_567\n        /* \"#utility.yul\":5979:5984   */\n      dup2\n        /* \"#utility.yul\":5961:5985   */\n      tag_431\n      jump\t// in\n    tag_567:\n        /* \"#utility.yul\":5956:5959   */\n      dup3\n        /* \"#utility.yul\":5949:5986   */\n      mstore\n        /* \"#utility.yul\":5874:5992   */\n      pop\n      pop\n      jump\t// out\n        /* \"#utility.yul\":5998:6220   */\n    tag_68:\n        /* \"#utility.yul\":6091:6095   */\n      0x00\n        /* \"#utility.yul\":6129:6131   */\n      0x20\n        /* \"#utility.yul\":6118:6127   */\n      dup3\n        /* \"#utility.yul\":6114:6132   */\n      add\n        /* \"#utility.yul\":6106:6132   */\n      swap1\n      pop\n        /* \"#utility.yul\":6142:6213   */\n      tag_569\n        /* \"#utility.yul\":6210:6211   */\n      0x00\n        /* \"#utility.yul\":6199:6208   */\n      dup4\n        /* \"#utility.yul\":6195:6212   */\n      add\n        /* \"#utility.yul\":6186:6192   */\n      dup5\n        /* \"#utility.yul\":6142:6213   */\n      tag_447\n      jump\t// in\n    tag_569:\n        /* \"#utility.yul\":5998:6220   */\n      swap3\n      swap2\n      pop\n      pop\n      jump\t// out\n        /* \"#utility.yul\":6226:6342   */\n    tag_448:\n        /* \"#utility.yul\":6296:6317   */\n      tag_571\n        /* \"#utility.yul\":6311:6316   */\n      dup2\n        /* \"#utility.yul\":6296:6317   */\n      tag_437\n      jump\t// in\n    tag_571:\n        /* \"#utility.yul\":6289:6294   */\n      dup2\n        /* \"#utility.yul\":6286:6318   */\n      eq\n        /* \"#utility.yul\":6276:6336   */\n      tag_572\n      jumpi\n        /* \"#utility.yul\":6332:6333   */\n      0x00\n        /* \"#utility.yul\":6329:6330   */\n      dup1\n        /* \"#utility.yul\":6322:6334   */\n      revert\n        /* \"#utility.yul\":6276:6336   */\n    tag_572:\n        /* \"#utility.yul\":6226:6342   */\n      pop\n      jump\t// out\n        /* \"#utility.yul\":6348:6481   */\n    tag_449:\n        /* \"#utility.yul\":6391:6396   */\n      0x00\n        /* \"#utility.yul\":6429:6435   */\n      dup2\n        /* \"#utility.yul\":6416:6436   */\n      calldataload\n        /* \"#utility.yul\":6407:6436   */\n      swap1\n      pop\n        /* \"#utility.yul\":6445:6475   */\n      tag_574\n        /* \"#utility.yul\":6469:6474   */\n      dup2\n        /* \"#utility.yul\":6445:6475   */\n      tag_448\n      jump\t// in\n    tag_574:\n        /* \"#utility.yul\":6348:6481   */\n      swap3\n      swap2\n      pop\n      pop\n      jump\t// out\n        /* \"#utility.yul\":6487:6810   */\n    tag_72:\n        /* \"#utility.yul\":6543:6549   */\n      0x00\n        /* \"#utility.yul\":6592:6594   */\n      0x20\n        /* \"#utility.yul\":6580:6589   */\n      dup3\n        /* \"#utility.yul\":6571:6578   */\n      dup5\n        /* \"#utility.yul\":6567:6590   */\n      sub\n        /* \"#utility.yul\":6563:6595   */\n      slt\n        /* \"#utility.yul\":6560:6679   */\n      iszero\n      tag_576\n      jumpi\n        /* \"#utility.yul\":6598:6677   */\n      tag_577\n      tag_428\n      jump\t// in\n    tag_577:\n        /* \"#utility.yul\":6560:6679   */\n    tag_576:\n        /* \"#utility.yul\":6718:6719   */\n      0x00\n        /* \"#utility.yul\":6743:6793   */\n      tag_578\n        /* \"#utility.yul\":6785:6792   */\n      dup5\n        /* \"#utility.yul\":6776:6782   */\n      dup3\n        /* \"#utility.yul\":6765:6774   */\n      dup6\n        /* \"#utility.yul\":6761:6783   */\n      add\n        /* \"#utility.yul\":6743:6793   */\n      tag_449\n      jump\t// in\n    tag_578:\n        /* \"#utility.yul\":6733:6793   */\n      swap2\n      pop\n        /* \"#utility.yul\":6689:6803   */\n      pop\n        /* \"#utility.yul\":6487:6810   */\n      swap3\n      swap2\n      pop\n      pop\n      jump\t// out\n        /* \"#utility.yul\":6816:7145   */\n    tag_80:\n        /* \"#utility.yul\":6875:6881   */\n      0x00\n        /* \"#utility.yul\":6924:6926   */\n      0x20\n        /* \"#utility.yul\":6912:6921   */\n      dup3\n        /* \"#utility.yul\":6903:6910   */\n      dup5\n        /* \"#utility.yul\":6899:6922   */\n      sub\n        /* \"#utility.yul\":6895:6927   */\n      slt\n        /* \"#utility.yul\":6892:7011   */\n      iszero\n      tag_580\n      jumpi\n        /* \"#utility.yul\":6930:7009   */\n      tag_581\n      tag_428\n      jump\t// in\n    tag_581:\n        /* \"#utility.yul\":6892:7011   */\n    tag_580:\n        /* \"#utility.yul\":7050:7051   */\n      0x00\n        /* \"#utility.yul\":7075:7128   */\n      tag_582\n        /* \"#utility.yul\":7120:7127   */\n      dup5\n        /* \"#utility.yul\":7111:7117   */\n      dup3\n        /* \"#utility.yul\":7100:7109   */\n      dup6\n        /* \"#utility.yul\":7096:7118   */\n      add\n        /* \"#utility.yul\":7075:7128   */\n      tag_433\n      jump\t// in\n    tag_582:\n        /* \"#utility.yul\":7065:7128   */\n      swap2\n      pop\n        /* \"#utility.yul\":7021:7138   */\n      pop\n        /* \"#utility.yul\":6816:7145   */\n      swap3\n      swap2\n      pop\n      pop\n      jump\t// out\n        /* \"#utility.yul\":7151:7255   */\n    tag_450:\n        /* \"#utility.yul\":7196:7203   */\n      0x00\n        /* \"#utility.yul\":7225:7249   */\n      tag_584\n        /* \"#utility.yul\":7243:7248   */\n      dup3\n        /* \"#utility.yul\":7225:7249   */\n      tag_430\n      jump\t// in\n    tag_584:\n        /* \"#utility.yul\":7214:7249   */\n      swap1\n      pop\n        /* \"#utility.yul\":7151:7255   */\n      swap2\n      swap1\n      pop\n      jump\t// out\n        /* \"#utility.yul\":7261:7399   */\n    tag_451:\n        /* \"#utility.yul\":7342:7374   */\n      tag_586\n        /* \"#utility.yul\":7368:7373   */\n      dup2\n        /* \"#utility.yul\":7342:7374   */\n      tag_450\n      jump\t// in\n    tag_586:\n        /* \"#utility.yul\":7335:7340   */\n      dup2\n        /* \"#utility.yul\":7332:7375   */\n      eq\n        /* \"#utility.yul\":7322:7393   */\n      tag_587\n      jumpi\n        /* \"#utility.yul\":7389:7390   */\n      0x00\n        /* \"#utility.yul\":7386:7387   */\n      dup1\n        /* \"#utility.yul\":7379:7391   */\n      revert\n        /* \"#utility.yul\":7322:7393   */\n    tag_587:\n        /* \"#utility.yul\":7261:7399   */\n      pop\n      jump\t// out\n        /* \"#utility.yul\":7405:7560   */\n    tag_452:\n        /* \"#utility.yul\":7459:7464   */\n      0x00\n        /* \"#utility.yul\":7497:7503   */\n      dup2\n        /* \"#utility.yul\":7484:7504   */\n      calldataload\n        /* \"#utility.yul\":7475:7504   */\n      swap1\n      pop\n        /* \"#utility.yul\":7513:7554   */\n      tag_589\n        /* \"#utility.yul\":7548:7553   */\n      dup2\n        /* \"#utility.yul\":7513:7554   */\n      tag_451\n      jump\t// in\n    tag_589:\n        /* \"#utility.yul\":7405:7560   */\n      swap3\n      swap2\n      pop\n      pop\n      jump\t// out\n        /* \"#utility.yul\":7566:7911   */\n    tag_89:\n        /* \"#utility.yul\":7633:7639   */\n      0x00\n        /* \"#utility.yul\":7682:7684   */\n      0x20\n        /* \"#utility.yul\":7670:7679   */\n      dup3\n        /* \"#utility.yul\":7661:7668   */\n      dup5\n        /* \"#utility.yul\":7657:7680   */\n      sub\n        /* \"#utility.yul\":7653:7685   */\n      slt\n        /* \"#utility.yul\":7650:7769   */\n      iszero\n      tag_591\n      jumpi\n        /* \"#utility.yul\":7688:7767   */\n      tag_592\n      tag_428\n      jump\t// in\n    tag_592:\n        /* \"#utility.yul\":7650:7769   */\n    tag_591:\n        /* \"#utility.yul\":7808:7809   */\n      0x00\n        /* \"#utility.yul\":7833:7894   */\n      tag_593\n        /* \"#utility.yul\":7886:7893   */\n      dup5\n        /* \"#utility.yul\":7877:7883   */\n      dup3\n        /* \"#utility.yul\":7866:7875   */\n      dup6\n        /* \"#utility.yul\":7862:7884   */\n      add\n        /* \"#utility.yul\":7833:7894   */\n      tag_452\n      jump\t// in\n    tag_593:\n        /* \"#utility.yul\":7823:7894   */\n      swap2\n      pop\n        /* \"#utility.yul\":7779:7904   */\n      pop\n        /* \"#utility.yul\":7566:7911   */\n      swap3\n      swap2\n      pop\n      pop\n      jump\t// out\n        /* \"#utility.yul\":7917:8682   */\n    tag_102:\n        /* \"#utility.yul\":8003:8009   */\n      0x00\n        /* \"#utility.yul\":8011:8017   */\n      dup1\n        /* \"#utility.yul\":8019:8025   */\n      0x00\n        /* \"#utility.yul\":8027:8033   */\n      dup1\n        /* \"#utility.yul\":8076:8079   */\n      0x80\n        /* \"#utility.yul\":8064:8073   */\n      dup6\n        /* \"#utility.yul\":8055:8062   */\n      dup8\n        /* \"#utility.yul\":8051:8074   */\n      sub\n        /* \"#utility.yul\":8047:8080   */\n      slt\n        /* \"#utility.yul\":8044:8164   */\n      iszero\n      tag_595\n      jumpi\n        /* \"#utility.yul\":8083:8162   */\n      tag_596\n      tag_428\n      jump\t// in\n    tag_596:\n        /* \"#utility.yul\":8044:8164   */\n    tag_595:\n        /* \"#utility.yul\":8203:8204   */\n      0x00\n        /* \"#utility.yul\":8228:8281   */\n      tag_597\n        /* \"#utility.yul\":8273:8280   */\n      dup8\n        /* \"#utility.yul\":8264:8270   */\n      dup3\n        /* \"#utility.yul\":8253:8262   */\n      dup9\n        /* \"#utility.yul\":8249:8271   */\n      add\n        /* \"#utility.yul\":8228:8281   */\n      tag_436\n      jump\t// in\n    tag_597:\n        /* \"#utility.yul\":8218:8281   */\n      swap5\n      pop\n        /* \"#utility.yul\":8174:8291   */\n      pop\n        /* \"#utility.yul\":8330:8332   */\n      0x20\n        /* \"#utility.yul\":8356:8409   */\n      tag_598\n        /* \"#utility.yul\":8401:8408   */\n      dup8\n        /* \"#utility.yul\":8392:8398   */\n      dup3\n        /* \"#utility.yul\":8381:8390   */\n      dup9\n        /* \"#utility.yul\":8377:8399   */\n      add\n        /* \"#utility.yul\":8356:8409   */\n      tag_436\n      jump\t// in\n    tag_598:\n        /* \"#utility.yul\":8346:8409   */\n      swap4\n      pop\n        /* \"#utility.yul\":8301:8419   */\n      pop\n        /* \"#utility.yul\":8458:8460   */\n      0x40\n        /* \"#utility.yul\":8484:8537   */\n      tag_599\n        /* \"#utility.yul\":8529:8536   */\n      dup8\n        /* \"#utility.yul\":8520:8526   */\n      dup3\n        /* \"#utility.yul\":8509:8518   */\n      dup9\n        /* \"#utility.yul\":8505:8527   */\n      add\n        /* \"#utility.yul\":8484:8537   */\n      tag_436\n      jump\t// in\n    tag_599:\n        /* \"#utility.yul\":8474:8537   */\n      swap3\n      pop\n        /* \"#utility.yul\":8429:8547   */\n      pop\n        /* \"#utility.yul\":8586:8588   */\n      0x60\n        /* \"#utility.yul\":8612:8665   */\n      tag_600\n        /* \"#utility.yul\":8657:8664   */\n      dup8\n        /* \"#utility.yul\":8648:8654   */\n      dup3\n        /* \"#utility.yul\":8637:8646   */\n      dup9\n        /* \"#utility.yul\":8633:8655   */\n      add\n        /* \"#utility.yul\":8612:8665   */\n      tag_436\n      jump\t// in\n    tag_600:\n        /* \"#utility.yul\":8602:8665   */\n      swap2\n      pop\n        /* \"#utility.yul\":8557:8675   */\n      pop\n        /* \"#utility.yul\":7917:8682   */\n      swap3\n      swap6\n      swap2\n      swap5\n      pop\n      swap3\n      pop\n      jump\t// out\n        /* \"#utility.yul\":8688:8805   */\n    tag_453:\n        /* \"#utility.yul\":8797:8798   */\n      0x00\n        /* \"#utility.yul\":8794:8795   */\n      dup1\n        /* \"#utility.yul\":8787:8799   */\n      revert\n        /* \"#utility.yul\":8811:8928   */\n    tag_454:\n        /* \"#utility.yul\":8920:8921   */\n      0x00\n        /* \"#utility.yul\":8917:8918   */\n      dup1\n        /* \"#utility.yul\":8910:8922   */\n      revert\n        /* \"#utility.yul\":8934:9051   */\n    tag_455:\n        /* \"#utility.yul\":9043:9044   */\n      0x00\n        /* \"#utility.yul\":9040:9041   */\n      dup1\n        /* \"#utility.yul\":9033:9045   */\n      revert\n        /* \"#utility.yul\":9074:9642   */\n    tag_456:\n        /* \"#utility.yul\":9147:9155   */\n      0x00\n        /* \"#utility.yul\":9157:9163   */\n      dup1\n        /* \"#utility.yul\":9207:9210   */\n      dup4\n        /* \"#utility.yul\":9200:9204   */\n      0x1f\n        /* \"#utility.yul\":9192:9198   */\n      dup5\n        /* \"#utility.yul\":9188:9205   */\n      add\n        /* \"#utility.yul\":9184:9211   */\n      slt\n        /* \"#utility.yul\":9174:9296   */\n      tag_605\n      jumpi\n        /* \"#utility.yul\":9215:9294   */\n      tag_606\n      tag_453\n      jump\t// in\n    tag_606:\n        /* \"#utility.yul\":9174:9296   */\n    tag_605:\n        /* \"#utility.yul\":9328:9334   */\n      dup3\n        /* \"#utility.yul\":9315:9335   */\n      calldataload\n        /* \"#utility.yul\":9305:9335   */\n      swap1\n      pop\n        /* \"#utility.yul\":9358:9376   */\n      0xffffffffffffffff\n        /* \"#utility.yul\":9350:9356   */\n      dup2\n        /* \"#utility.yul\":9347:9377   */\n      gt\n        /* \"#utility.yul\":9344:9461   */\n      iszero\n      tag_607\n      jumpi\n        /* \"#utility.yul\":9380:9459   */\n      tag_608\n      tag_454\n      jump\t// in\n    tag_608:\n        /* \"#utility.yul\":9344:9461   */\n    tag_607:\n        /* \"#utility.yul\":9494:9498   */\n      0x20\n        /* \"#utility.yul\":9486:9492   */\n      dup4\n        /* \"#utility.yul\":9482:9499   */\n      add\n        /* \"#utility.yul\":9470:9499   */\n      swap2\n      pop\n        /* \"#utility.yul\":9548:9551   */\n      dup4\n        /* \"#utility.yul\":9540:9544   */\n      0x20\n        /* \"#utility.yul\":9532:9538   */\n      dup3\n        /* \"#utility.yul\":9528:9545   */\n      mul\n        /* \"#utility.yul\":9518:9526   */\n      dup4\n        /* \"#utility.yul\":9514:9546   */\n      add\n        /* \"#utility.yul\":9511:9552   */\n      gt\n        /* \"#utility.yul\":9508:9636   */\n      iszero\n      tag_609\n      jumpi\n        /* \"#utility.yul\":9555:9634   */\n      tag_610\n      tag_455\n      jump\t// in\n    tag_610:\n        /* \"#utility.yul\":9508:9636   */\n    tag_609:\n        /* \"#utility.yul\":9074:9642   */\n      swap3\n      pop\n      swap3\n      swap1\n      pop\n      jump\t// out\n        /* \"#utility.yul\":9648:10346   */\n    tag_119:\n        /* \"#utility.yul\":9740:9746   */\n      0x00\n        /* \"#utility.yul\":9748:9754   */\n      dup1\n        /* \"#utility.yul\":9756:9762   */\n      0x00\n        /* \"#utility.yul\":9805:9807   */\n      0x40\n        /* \"#utility.yul\":9793:9802   */\n      dup5\n        /* \"#utility.yul\":9784:9791   */\n      dup7\n        /* \"#utility.yul\":9780:9803   */\n      sub\n        /* \"#utility.yul\":9776:9808   */\n      slt\n        /* \"#utility.yul\":9773:9892   */\n      iszero\n      tag_612\n      jumpi\n        /* \"#utility.yul\":9811:9890   */\n      tag_613\n      tag_428\n      jump\t// in\n    tag_613:\n        /* \"#utility.yul\":9773:9892   */\n    tag_612:\n        /* \"#utility.yul\":9959:9960   */\n      0x00\n        /* \"#utility.yul\":9948:9957   */\n      dup5\n        /* \"#utility.yul\":9944:9961   */\n      add\n        /* \"#utility.yul\":9931:9962   */\n      calldataload\n        /* \"#utility.yul\":9989:10007   */\n      0xffffffffffffffff\n        /* \"#utility.yul\":9981:9987   */\n      dup2\n        /* \"#utility.yul\":9978:10008   */\n      gt\n        /* \"#utility.yul\":9975:10092   */\n      iszero\n      tag_614\n      jumpi\n        /* \"#utility.yul\":10011:10090   */\n      tag_615\n      tag_429\n      jump\t// in\n    tag_615:\n        /* \"#utility.yul\":9975:10092   */\n    tag_614:\n        /* \"#utility.yul\":10124:10204   */\n      tag_616\n        /* \"#utility.yul\":10196:10203   */\n      dup7\n        /* \"#utility.yul\":10187:10193   */\n      dup3\n        /* \"#utility.yul\":10176:10185   */\n      dup8\n        /* \"#utility.yul\":10172:10194   */\n      add\n        /* \"#utility.yul\":10124:10204   */\n      tag_456\n      jump\t// in\n    tag_616:\n        /* \"#utility.yul\":10106:10204   */\n      swap4\n      pop\n      swap4\n      pop\n        /* \"#utility.yul\":9902:10214   */\n      pop\n        /* \"#utility.yul\":10253:10255   */\n      0x20\n        /* \"#utility.yul\":10279:10329   */\n      tag_617\n        /* \"#utility.yul\":10321:10328   */\n      dup7\n        /* \"#utility.yul\":10312:10318   */\n      dup3\n        /* \"#utility.yul\":10301:10310   */\n      dup8\n        /* \"#utility.yul\":10297:10319   */\n      add\n        /* \"#utility.yul\":10279:10329   */\n      tag_449\n      jump\t// in\n    tag_617:\n        /* \"#utility.yul\":10269:10329   */\n      swap2\n      pop\n        /* \"#utility.yul\":10224:10339   */\n      pop\n        /* \"#utility.yul\":9648:10346   */\n      swap3\n      pop\n      swap3\n      pop\n      swap3\n      jump\t// out\n        /* \"#utility.yul\":10352:10826   */\n    tag_128:\n        /* \"#utility.yul\":10420:10426   */\n      0x00\n        /* \"#utility.yul\":10428:10434   */\n      dup1\n        /* \"#utility.yul\":10477:10479   */\n      0x40\n        /* \"#utility.yul\":10465:10474   */\n      dup4\n        /* \"#utility.yul\":10456:10463   */\n      dup6\n        /* \"#utility.yul\":10452:10475   */\n      sub\n        /* \"#utility.yul\":10448:10480   */\n      slt\n        /* \"#utility.yul\":10445:10564   */\n      iszero\n      tag_619\n      jumpi\n        /* \"#utility.yul\":10483:10562   */\n      tag_620\n      tag_428\n      jump\t// in\n    tag_620:\n        /* \"#utility.yul\":10445:10564   */\n    tag_619:\n        /* \"#utility.yul\":10603:10604   */\n      0x00\n        /* \"#utility.yul\":10628:10681   */\n      tag_621\n        /* \"#utility.yul\":10673:10680   */\n      dup6\n        /* \"#utility.yul\":10664:10670   */\n      dup3\n        /* \"#utility.yul\":10653:10662   */\n      dup7\n        /* \"#utility.yul\":10649:10671   */\n      add\n        /* \"#utility.yul\":10628:10681   */\n      tag_433\n      jump\t// in\n    tag_621:\n        /* \"#utility.yul\":10618:10681   */\n      swap3\n      pop\n        /* \"#utility.yul\":10574:10691   */\n      pop\n        /* \"#utility.yul\":10730:10732   */\n      0x20\n        /* \"#utility.yul\":10756:10809   */\n      tag_622\n        /* \"#utility.yul\":10801:10808   */\n      dup6\n        /* \"#utility.yul\":10792:10798   */\n      dup3\n        /* \"#utility.yul\":10781:10790   */\n      dup7\n        /* \"#utility.yul\":10777:10799   */\n      add\n        /* \"#utility.yul\":10756:10809   */\n      tag_433\n      jump\t// in\n    tag_622:\n        /* \"#utility.yul\":10746:10809   */\n      swap2\n      pop\n        /* \"#utility.yul\":10701:10819   */\n      pop\n        /* \"#utility.yul\":10352:10826   */\n      swap3\n      pop\n      swap3\n      swap1\n      pop\n      jump\t// out\n        /* \"#utility.yul\":10832:11003   */\n    tag_457:\n        /* \"#utility.yul\":10972:10995   */\n      0x43616c6c6572206973206e6f7420746865206465760000000000000000000000\n        /* \"#utility.yul\":10968:10969   */\n      0x00\n        /* \"#utility.yul\":10960:10966   */\n      dup3\n        /* \"#utility.yul\":10956:10970   */\n      add\n        /* \"#utility.yul\":10949:10996   */\n      mstore\n        /* \"#utility.yul\":10832:11003   */\n      pop\n      jump\t// out\n        /* \"#utility.yul\":11009:11375   */\n    tag_458:\n        /* \"#utility.yul\":11151:11154   */\n      0x00\n        /* \"#utility.yul\":11172:11239   */\n      tag_625\n        /* \"#utility.yul\":11236:11238   */\n      0x15\n        /* \"#utility.yul\":11231:11234   */\n      dup4\n        /* \"#utility.yul\":11172:11239   */\n      tag_423\n      jump\t// in\n    tag_625:\n        /* \"#utility.yul\":11165:11239   */\n      swap2\n      pop\n        /* \"#utility.yul\":11248:11341   */\n      tag_626\n        /* \"#utility.yul\":11337:11340   */\n      dup3\n        /* \"#utility.yul\":11248:11341   */\n      tag_457\n      jump\t// in\n    tag_626:\n        /* \"#utility.yul\":11366:11368   */\n      0x20\n        /* \"#utility.yul\":11361:11364   */\n      dup3\n        /* \"#utility.yul\":11357:11369   */\n      add\n        /* \"#utility.yul\":11350:11369   */\n      swap1\n      pop\n        /* \"#utility.yul\":11009:11375   */\n      swap2\n      swap1\n      pop\n      jump\t// out\n        /* \"#utility.yul\":11381:11800   */\n    tag_162:\n        /* \"#utility.yul\":11547:11551   */\n      0x00\n        /* \"#utility.yul\":11585:11587   */\n      0x20\n        /* \"#utility.yul\":11574:11583   */\n      dup3\n        /* \"#utility.yul\":11570:11588   */\n      add\n        /* \"#utility.yul\":11562:11588   */\n      swap1\n      pop\n        /* \"#utility.yul\":11634:11643   */\n      dup2\n        /* \"#utility.yul\":11628:11632   */\n      dup2\n        /* \"#utility.yul\":11624:11644   */\n      sub\n        /* \"#utility.yul\":11620:11621   */\n      0x00\n        /* \"#utility.yul\":11609:11618   */\n      dup4\n        /* \"#utility.yul\":11605:11622   */\n      add\n        /* \"#utility.yul\":11598:11645   */\n      mstore\n        /* \"#utility.yul\":11662:11793   */\n      tag_628\n        /* \"#utility.yul\":11788:11792   */\n      dup2\n        /* \"#utility.yul\":11662:11793   */\n      tag_458\n      jump\t// in\n    tag_628:\n        /* \"#utility.yul\":11654:11793   */\n      swap1\n      pop\n        /* \"#utility.yul\":11381:11800   */\n      swap2\n      swap1\n      pop\n      jump\t// out\n        /* \"#utility.yul\":11806:11979   */\n    tag_459:\n        /* \"#utility.yul\":11946:11971   */\n      0x43616c6c6572206973206e6f7420746865206f776e6572000000000000000000\n        /* \"#utility.yul\":11942:11943   */\n      0x00\n        /* \"#utility.yul\":11934:11940   */\n      dup3\n        /* \"#utility.yul\":11930:11944   */\n      add\n        /* \"#utility.yul\":11923:11972   */\n      mstore\n        /* \"#utility.yul\":11806:11979   */\n      pop\n      jump\t// out\n        /* \"#utility.yul\":11985:12351   */\n    tag_460:\n        /* \"#utility.yul\":12127:12130   */\n      0x00\n        /* \"#utility.yul\":12148:12215   */\n      tag_631\n        /* \"#utility.yul\":12212:12214   */\n      0x17\n        /* \"#utility.yul\":12207:12210   */\n      dup4\n        /* \"#utility.yul\":12148:12215   */\n      tag_423\n      jump\t// in\n    tag_631:\n        /* \"#utility.yul\":12141:12215   */\n      swap2\n      pop\n        /* \"#utility.yul\":12224:12317   */\n      tag_632\n        /* \"#utility.yul\":12313:12316   */\n      dup3\n        /* \"#utility.yul\":12224:12317   */\n      tag_459\n      jump\t// in\n    tag_632:\n        /* \"#utility.yul\":12342:12344   */\n      0x20\n        /* \"#utility.yul\":12337:12340   */\n      dup3\n        /* \"#utility.yul\":12333:12345   */\n      add\n        /* \"#utility.yul\":12326:12345   */\n      swap1\n      pop\n        /* \"#utility.yul\":11985:12351   */\n      swap2\n      swap1\n      pop\n      jump\t// out\n        /* \"#utility.yul\":12357:12776   */\n    tag_181:\n        /* \"#utility.yul\":12523:12527   */\n      0x00\n        /* \"#utility.yul\":12561:12563   */\n      0x20\n        /* \"#utility.yul\":12550:12559   */\n      dup3\n        /* \"#utility.yul\":12546:12564   */\n      add\n        /* \"#utility.yul\":12538:12564   */\n      swap1\n      pop\n        /* \"#utility.yul\":12610:12619   */\n      dup2\n        /* \"#utility.yul\":12604:12608   */\n      dup2\n        /* \"#utility.yul\":12600:12620   */\n      sub\n        /* \"#utility.yul\":12596:12597   */\n      0x00\n        /* \"#utility.yul\":12585:12594   */\n      dup4\n        /* \"#utility.yul\":12581:12598   */\n      add\n        /* \"#utility.yul\":12574:12621   */\n      mstore\n        /* \"#utility.yul\":12638:12769   */\n      tag_634\n        /* \"#utility.yul\":12764:12768   */\n      dup2\n        /* \"#utility.yul\":12638:12769   */\n      tag_460\n      jump\t// in\n    tag_634:\n        /* \"#utility.yul\":12630:12769   */\n      swap1\n      pop\n        /* \"#utility.yul\":12357:12776   */\n      swap2\n      swap1\n      pop\n      jump\t// out\n        /* \"#utility.yul\":12782:12961   */\n    tag_461:\n        /* \"#utility.yul\":12922:12953   */\n      0x52656469732063616e6e6f74206265206d6f7265207468616e2031302e000000\n        /* \"#utility.yul\":12918:12919   */\n      0x00\n        /* \"#utility.yul\":12910:12916   */\n      dup3\n        /* \"#utility.yul\":12906:12920   */\n      add\n        /* \"#utility.yul\":12899:12954   */\n      mstore\n        /* \"#utility.yul\":12782:12961   */\n      pop\n      jump\t// out\n        /* \"#utility.yul\":12967:13333   */\n    tag_462:\n        /* \"#utility.yul\":13109:13112   */\n      0x00\n        /* \"#utility.yul\":13130:13197   */\n      tag_637\n        /* \"#utility.yul\":13194:13196   */\n      0x1d\n        /* \"#utility.yul\":13189:13192   */\n      dup4\n        /* \"#utility.yul\":13130:13197   */\n      tag_423\n      jump\t// in\n    tag_637:\n        /* \"#utility.yul\":13123:13197   */\n      swap2\n      pop\n        /* \"#utility.yul\":13206:13299   */\n      tag_638\n        /* \"#utility.yul\":13295:13298   */\n      dup3\n        /* \"#utility.yul\":13206:13299   */\n      tag_461\n      jump\t// in\n    tag_638:\n        /* \"#utility.yul\":13324:13326   */\n      0x20\n        /* \"#utility.yul\":13319:13322   */\n      dup3\n        /* \"#utility.yul\":13315:13327   */\n      add\n        /* \"#utility.yul\":13308:13327   */\n      swap1\n      pop\n        /* \"#utility.yul\":12967:13333   */\n      swap2\n      swap1\n      pop\n      jump\t// out\n        /* \"#utility.yul\":13339:13758   */\n    tag_203:\n        /* \"#utility.yul\":13505:13509   */\n      0x00\n        /* \"#utility.yul\":13543:13545   */\n      0x20\n        /* \"#utility.yul\":13532:13541   */\n      dup3\n        /* \"#utility.yul\":13528:13546   */\n      add\n        /* \"#utility.yul\":13520:13546   */\n      swap1\n      pop\n        /* \"#utility.yul\":13592:13601   */\n      dup2\n        /* \"#utility.yul\":13586:13590   */\n      dup2\n        /* \"#utility.yul\":13582:13602   */\n      sub\n        /* \"#utility.yul\":13578:13579   */\n      0x00\n        /* \"#utility.yul\":13567:13576   */\n      dup4\n        /* \"#utility.yul\":13563:13580   */\n      add\n        /* \"#utility.yul\":13556:13603   */\n      mstore\n        /* \"#utility.yul\":13620:13751   */\n      tag_640\n        /* \"#utility.yul\":13746:13750   */\n      dup2\n        /* \"#utility.yul\":13620:13751   */\n      tag_462\n      jump\t// in\n    tag_640:\n        /* \"#utility.yul\":13612:13751   */\n      swap1\n      pop\n        /* \"#utility.yul\":13339:13758   */\n      swap2\n      swap1\n      pop\n      jump\t// out\n        /* \"#utility.yul\":13764:13940   */\n    tag_463:\n        /* \"#utility.yul\":13904:13932   */\n      0x5461782063616e6e6f74206265206d6f7265207468616e20362e000000000000\n        /* \"#utility.yul\":13900:13901   */\n      0x00\n        /* \"#utility.yul\":13892:13898   */\n      dup3\n        /* \"#utility.yul\":13888:13902   */\n      add\n        /* \"#utility.yul\":13881:13933   */\n      mstore\n        /* \"#utility.yul\":13764:13940   */\n      pop\n      jump\t// out\n        /* \"#utility.yul\":13946:14312   */\n    tag_464:\n        /* \"#utility.yul\":14088:14091   */\n      0x00\n        /* \"#utility.yul\":14109:14176   */\n      tag_643\n        /* \"#utility.yul\":14173:14175   */\n      0x1a\n        /* \"#utility.yul\":14168:14171   */\n      dup4\n        /* \"#utility.yul\":14109:14176   */\n      tag_423\n      jump\t// in\n    tag_643:\n        /* \"#utility.yul\":14102:14176   */\n      swap2\n      pop\n        /* \"#utility.yul\":14185:14278   */\n      tag_644\n        /* \"#utility.yul\":14274:14277   */\n      dup3\n        /* \"#utility.yul\":14185:14278   */\n      tag_463\n      jump\t// in\n    tag_644:\n        /* \"#utility.yul\":14303:14305   */\n      0x20\n        /* \"#utility.yul\":14298:14301   */\n      dup3\n        /* \"#utility.yul\":14294:14306   */\n      add\n        /* \"#utility.yul\":14287:14306   */\n      swap1\n      pop\n        /* \"#utility.yul\":13946:14312   */\n      swap2\n      swap1\n      pop\n      jump\t// out\n        /* \"#utility.yul\":14318:14737   */\n    tag_208:\n        /* \"#utility.yul\":14484:14488   */\n      0x00\n        /* \"#utility.yul\":14522:14524   */\n      0x20\n        /* \"#utility.yul\":14511:14520   */\n      dup3\n        /* \"#utility.yul\":14507:14525   */\n      add\n        /* \"#utility.yul\":14499:14525   */\n      swap1\n      pop\n        /* \"#utility.yul\":14571:14580   */\n      dup2\n        /* \"#utility.yul\":14565:14569   */\n      dup2\n        /* \"#utility.yul\":14561:14581   */\n      sub\n        /* \"#utility.yul\":14557:14558   */\n      0x00\n        /* \"#utility.yul\":14546:14555   */\n      dup4\n        /* \"#utility.yul\":14542:14559   */\n      add\n        /* \"#utility.yul\":14535:14582   */\n      mstore\n        /* \"#utility.yul\":14599:14730   */\n      tag_646\n        /* \"#utility.yul\":14725:14729   */\n      dup2\n        /* \"#utility.yul\":14599:14730   */\n      tag_464\n      jump\t// in\n    tag_646:\n        /* \"#utility.yul\":14591:14730   */\n      swap1\n      pop\n        /* \"#utility.yul\":14318:14737   */\n      swap2\n      swap1\n      pop\n      jump\t// out\n        /* \"#utility.yul\":14743:14923   */\n    tag_243:\n        /* \"#utility.yul\":14791:14868   */\n      0x4e487b7100000000000000000000000000000000000000000000000000000000\n        /* \"#utility.yul\":14788:14789   */\n      0x00\n        /* \"#utility.yul\":14781:14869   */\n      mstore\n        /* \"#utility.yul\":14888:14892   */\n      0x32\n        /* \"#utility.yul\":14885:14886   */\n      0x04\n        /* \"#utility.yul\":14878:14893   */\n      mstore\n        /* \"#utility.yul\":14912:14916   */\n      0x24\n        /* \"#utility.yul\":14909:14910   */\n      0x00\n        /* \"#utility.yul\":14902:14917   */\n      revert\n        /* \"#utility.yul\":14929:15109   */\n    tag_465:\n        /* \"#utility.yul\":14977:15054   */\n      0x4e487b7100000000000000000000000000000000000000000000000000000000\n        /* \"#utility.yul\":14974:14975   */\n      0x00\n        /* \"#utility.yul\":14967:15055   */\n      mstore\n        /* \"#utility.yul\":15074:15078   */\n      0x11\n        /* \"#utility.yul\":15071:15072   */\n      0x04\n        /* \"#utility.yul\":15064:15079   */\n      mstore\n        /* \"#utility.yul\":15098:15102   */\n      0x24\n        /* \"#utility.yul\":15095:15096   */\n      0x00\n        /* \"#utility.yul\":15088:15103   */\n      revert\n        /* \"#utility.yul\":15115:15348   */\n    tag_246:\n        /* \"#utility.yul\":15154:15157   */\n      0x00\n        /* \"#utility.yul\":15177:15201   */\n      tag_650\n        /* \"#utility.yul\":15195:15200   */\n      dup3\n        /* \"#utility.yul\":15177:15201   */\n      tag_434\n      jump\t// in\n    tag_650:\n        /* \"#utility.yul\":15168:15201   */\n      swap2\n      pop\n        /* \"#utility.yul\":15223:15289   */\n      0xffffffffffffffffffffffffffffffffffffffffffffffffffffffffffffffff\n        /* \"#utility.yul\":15216:15221   */\n      dup3\n        /* \"#utility.yul\":15213:15290   */\n      sub\n        /* \"#utility.yul\":15210:15313   */\n      tag_651\n      jumpi\n        /* \"#utility.yul\":15293:15311   */\n      tag_652\n      tag_465\n      jump\t// in\n    tag_652:\n        /* \"#utility.yul\":15210:15313   */\n    tag_651:\n        /* \"#utility.yul\":15340:15341   */\n      0x01\n        /* \"#utility.yul\":15333:15338   */\n      dup3\n        /* \"#utility.yul\":15329:15342   */\n      add\n        /* \"#utility.yul\":15322:15342   */\n      swap1\n      pop\n        /* \"#utility.yul\":15115:15348   */\n      swap2\n      swap1\n      pop\n      jump\t// out\n        /* \"#utility.yul\":15354:15686   */\n    tag_258:\n        /* \"#utility.yul\":15475:15479   */\n      0x00\n        /* \"#utility.yul\":15513:15515   */\n      0x40\n        /* \"#utility.yul\":15502:15511   */\n      dup3\n        /* \"#utility.yul\":15498:15516   */\n      add\n        /* \"#utility.yul\":15490:15516   */\n      swap1\n      pop\n        /* \"#utility.yul\":15526:15597   */\n      tag_654\n        /* \"#utility.yul\":15594:15595   */\n      0x00\n        /* \"#utility.yul\":15583:15592   */\n      dup4\n        /* \"#utility.yul\":15579:15596   */\n      add\n        /* \"#utility.yul\":15570:15576   */\n      dup6\n        /* \"#utility.yul\":15526:15597   */\n      tag_447\n      jump\t// in\n    tag_654:\n        /* \"#utility.yul\":15607:15679   */\n      tag_655\n        /* \"#utility.yul\":15675:15677   */\n      0x20\n        /* \"#utility.yul\":15664:15673   */\n      dup4\n        /* \"#utility.yul\":15660:15678   */\n      add\n        /* \"#utility.yul\":15651:15657   */\n      dup5\n        /* \"#utility.yul\":15607:15679   */\n      tag_444\n      jump\t// in\n    tag_655:\n        /* \"#utility.yul\":15354:15686   */\n      swap4\n      swap3\n      pop\n      pop\n      pop\n      jump\t// out\n        /* \"#utility.yul\":15692:15829   */\n    tag_466:\n        /* \"#utility.yul\":15746:15751   */\n      0x00\n        /* \"#utility.yul\":15777:15783   */\n      dup2\n        /* \"#utility.yul\":15771:15784   */\n      mload\n        /* \"#utility.yul\":15762:15784   */\n      swap1\n      pop\n        /* \"#utility.yul\":15793:15823   */\n      tag_657\n        /* \"#utility.yul\":15817:15822   */\n      dup2\n        /* \"#utility.yul\":15793:15823   */\n      tag_448\n      jump\t// in\n    tag_657:\n        /* \"#utility.yul\":15692:15829   */\n      swap3\n      swap2\n      pop\n      pop\n      jump\t// out\n        /* \"#utility.yul\":15835:16180   */\n    tag_262:\n        /* \"#utility.yul\":15902:15908   */\n      0x00\n        /* \"#utility.yul\":15951:15953   */\n      0x20\n        /* \"#utility.yul\":15939:15948   */\n      dup3\n        /* \"#utility.yul\":15930:15937   */\n      dup5\n        /* \"#utility.yul\":15926:15949   */\n      sub\n        /* \"#utility.yul\":15922:15954   */\n      slt\n        /* \"#utility.yul\":15919:16038   */\n      iszero\n      tag_659\n      jumpi\n        /* \"#utility.yul\":15957:16036   */\n      tag_660\n      tag_428\n      jump\t// in\n    tag_660:\n        /* \"#utility.yul\":15919:16038   */\n    tag_659:\n        /* \"#utility.yul\":16077:16078   */\n      0x00\n        /* \"#utility.yul\":16102:16163   */\n      tag_661\n        /* \"#utility.yul\":16155:16162   */\n      dup5\n        /* \"#utility.yul\":16146:16152   */\n      dup3\n        /* \"#utility.yul\":16135:16144   */\n      dup6\n        /* \"#utility.yul\":16131:16153   */\n      add\n        /* \"#utility.yul\":16102:16163   */\n      tag_466\n      jump\t// in\n    tag_661:\n        /* \"#utility.yul\":16092:16163   */\n      swap2\n      pop\n        /* \"#utility.yul\":16048:16173   */\n      pop\n        /* \"#utility.yul\":15835:16180   */\n      swap3\n      swap2\n      pop\n      pop\n      jump\t// out\n        /* \"#utility.yul\":16186:16409   */\n    tag_467:\n        /* \"#utility.yul\":16326:16360   */\n      0x45524332303a20617070726f76652066726f6d20746865207a65726f20616464\n        /* \"#utility.yul\":16322:16323   */\n      0x00\n        /* \"#utility.yul\":16314:16320   */\n      dup3\n        /* \"#utility.yul\":16310:16324   */\n      add\n        /* \"#utility.yul\":16303:16361   */\n      mstore\n        /* \"#utility.yul\":16395:16401   */\n      0x7265737300000000000000000000000000000000000000000000000000000000\n        /* \"#utility.yul\":16390:16392   */\n      0x20\n        /* \"#utility.yul\":16382:16388   */\n      dup3\n        /* \"#utility.yul\":16378:16393   */\n      add\n        /* \"#utility.yul\":16371:16402   */\n      mstore\n        /* \"#utility.yul\":16186:16409   */\n      pop\n      jump\t// out\n        /* \"#utility.yul\":16415:16781   */\n    tag_468:\n        /* \"#utility.yul\":16557:16560   */\n      0x00\n        /* \"#utility.yul\":16578:16645   */\n      tag_664\n        /* \"#utility.yul\":16642:16644   */\n      0x24\n        /* \"#utility.yul\":16637:16640   */\n      dup4\n        /* \"#utility.yul\":16578:16645   */\n      tag_423\n      jump\t// in\n    tag_664:\n        /* \"#utility.yul\":16571:16645   */\n      swap2\n      pop\n        /* \"#utility.yul\":16654:16747   */\n      tag_665\n        /* \"#utility.yul\":16743:16746   */\n      dup3\n        /* \"#utility.yul\":16654:16747   */\n      tag_467\n      jump\t// in\n    tag_665:\n        /* \"#utility.yul\":16772:16774   */\n      0x40\n        /* \"#utility.yul\":16767:16770   */\n      dup3\n        /* \"#utility.yul\":16763:16775   */\n      add\n        /* \"#utility.yul\":16756:16775   */\n      swap1\n      pop\n        /* \"#utility.yul\":16415:16781   */\n      swap2\n      swap1\n      pop\n      jump\t// out\n        /* \"#utility.yul\":16787:17206   */\n    tag_272:\n        /* \"#utility.yul\":16953:16957   */\n      0x00\n        /* \"#utility.yul\":16991:16993   */\n      0x20\n        /* \"#utility.yul\":16980:16989   */\n      dup3\n        /* \"#utility.yul\":16976:16994   */\n      add\n        /* \"#utility.yul\":16968:16994   */\n      swap1\n      pop\n        /* \"#utility.yul\":17040:17049   */\n      dup2\n        /* \"#utility.yul\":17034:17038   */\n      dup2\n        /* \"#utility.yul\":17030:17050   */\n      sub\n        /* \"#utility.yul\":17026:17027   */\n      0x00\n        /* \"#utility.yul\":17015:17024   */\n      dup4\n        /* \"#utility.yul\":17011:17028   */\n      add\n        /* \"#utility.yul\":17004:17051   */\n      mstore\n        /* \"#utility.yul\":17068:17199   */\n      tag_667\n        /* \"#utility.yul\":17194:17198   */\n      dup2\n        /* \"#utility.yul\":17068:17199   */\n      tag_468\n      jump\t// in\n    tag_667:\n        /* \"#utility.yul\":17060:17199   */\n      swap1\n      pop\n        /* \"#utility.yul\":16787:17206   */\n      swap2\n      swap1\n      pop\n      jump\t// out\n        /* \"#utility.yul\":17212:17433   */\n    tag_469:\n        /* \"#utility.yul\":17352:17386   */\n      0x45524332303a20617070726f766520746f20746865207a65726f206164647265\n        /* \"#utility.yul\":17348:17349   */\n      0x00\n        /* \"#utility.yul\":17340:17346   */\n      dup3\n        /* \"#utility.yul\":17336:17350   */\n      add\n        /* \"#utility.yul\":17329:17387   */\n      mstore\n        /* \"#utility.yul\":17421:17425   */\n      0x7373000000000000000000000000000000000000000000000000000000000000\n        /* \"#utility.yul\":17416:17418   */\n      0x20\n        /* \"#utility.yul\":17408:17414   */\n      dup3\n        /* \"#utility.yul\":17404:17419   */\n      add\n        /* \"#utility.yul\":17397:17426   */\n      mstore\n        /* \"#utility.yul\":17212:17433   */\n      pop\n      jump\t// out\n        /* \"#utility.yul\":17439:17805   */\n    tag_470:\n        /* \"#utility.yul\":17581:17584   */\n      0x00\n        /* \"#utility.yul\":17602:17669   */\n      tag_670\n        /* \"#utility.yul\":17666:17668   */\n      0x22\n        /* \"#utility.yul\":17661:17664   */\n      dup4\n        /* \"#utility.yul\":17602:17669   */\n      tag_423\n      jump\t// in\n    tag_670:\n        /* \"#utility.yul\":17595:17669   */\n      swap2\n      pop\n        /* \"#utility.yul\":17678:17771   */\n      tag_671\n        /* \"#utility.yul\":17767:17770   */\n      dup3\n        /* \"#utility.yul\":17678:17771   */\n      tag_469\n      jump\t// in\n    tag_671:\n        /* \"#utility.yul\":17796:17798   */\n      0x40\n        /* \"#utility.yul\":17791:17794   */\n      dup3\n        /* \"#utility.yul\":17787:17799   */\n      add\n        /* \"#utility.yul\":17780:17799   */\n      swap1\n      pop\n        /* \"#utility.yul\":17439:17805   */\n      swap2\n      swap1\n      pop\n      jump\t// out\n        /* \"#utility.yul\":17811:18230   */\n    tag_275:\n        /* \"#utility.yul\":17977:17981   */\n      0x00\n        /* \"#utility.yul\":18015:18017   */\n      0x20\n        /* \"#utility.yul\":18004:18013   */\n      dup3\n        /* \"#utility.yul\":18000:18018   */\n      add\n        /* \"#utility.yul\":17992:18018   */\n      swap1\n      pop\n        /* \"#utility.yul\":18064:18073   */\n      dup2\n        /* \"#utility.yul\":18058:18062   */\n      dup2\n        /* \"#utility.yul\":18054:18074   */\n      sub\n        /* \"#utility.yul\":18050:18051   */\n      0x00\n        /* \"#utility.yul\":18039:18048   */\n      dup4\n        /* \"#utility.yul\":18035:18052   */\n      add\n        /* \"#utility.yul\":18028:18075   */\n      mstore\n        /* \"#utility.yul\":18092:18223   */\n      tag_673\n        /* \"#utility.yul\":18218:18222   */\n      dup2\n        /* \"#utility.yul\":18092:18223   */\n      tag_470\n      jump\t// in\n    tag_673:\n        /* \"#utility.yul\":18084:18223   */\n      swap1\n      pop\n        /* \"#utility.yul\":17811:18230   */\n      swap2\n      swap1\n      pop\n      jump\t// out\n        /* \"#utility.yul\":18236:18460   */\n    tag_471:\n        /* \"#utility.yul\":18376:18410   */\n      0x45524332303a207472616e736665722066726f6d20746865207a65726f206164\n        /* \"#utility.yul\":18372:18373   */\n      0x00\n        /* \"#utility.yul\":18364:18370   */\n      dup3\n        /* \"#utility.yul\":18360:18374   */\n      add\n        /* \"#utility.yul\":18353:18411   */\n      mstore\n        /* \"#utility.yul\":18445:18452   */\n      0x6472657373000000000000000000000000000000000000000000000000000000\n        /* \"#utility.yul\":18440:18442   */\n      0x20\n        /* \"#utility.yul\":18432:18438   */\n      dup3\n        /* \"#utility.yul\":18428:18443   */\n      add\n        /* \"#utility.yul\":18421:18453   */\n      mstore\n        /* \"#utility.yul\":18236:18460   */\n      pop\n      jump\t// out\n        /* \"#utility.yul\":18466:18832   */\n    tag_472:\n        /* \"#utility.yul\":18608:18611   */\n      0x00\n        /* \"#utility.yul\":18629:18696   */\n      tag_676\n        /* \"#utility.yul\":18693:18695   */\n      0x25\n        /* \"#utility.yul\":18688:18691   */\n      dup4\n        /* \"#utility.yul\":18629:18696   */\n      tag_423\n      jump\t// in\n    tag_676:\n        /* \"#utility.yul\":18622:18696   */\n      swap2\n      pop\n        /* \"#utility.yul\":18705:18798   */\n      tag_677\n        /* \"#utility.yul\":18794:18797   */\n      dup3\n        /* \"#utility.yul\":18705:18798   */\n      tag_471\n      jump\t// in\n    tag_677:\n        /* \"#utility.yul\":18823:18825   */\n      0x40\n        /* \"#utility.yul\":18818:18821   */\n      dup3\n        /* \"#utility.yul\":18814:18826   */\n      add\n        /* \"#utility.yul\":18807:18826   */\n      swap1\n      pop\n        /* \"#utility.yul\":18466:18832   */\n      swap2\n      swap1\n      pop\n      jump\t// out\n        /* \"#utility.yul\":18838:19257   */\n    tag_280:\n        /* \"#utility.yul\":19004:19008   */\n      0x00\n        /* \"#utility.yul\":19042:19044   */\n      0x20\n        /* \"#utility.yul\":19031:19040   */\n      dup3\n        /* \"#utility.yul\":19027:19045   */\n      add\n        /* \"#utility.yul\":19019:19045   */\n      swap1\n      pop\n        /* \"#utility.yul\":19091:19100   */\n      dup2\n        /* \"#utility.yul\":19085:19089   */\n      dup2\n        /* \"#utility.yul\":19081:19101   */\n      sub\n        /* \"#utility.yul\":19077:19078   */\n      0x00\n        /* \"#utility.yul\":19066:19075   */\n      dup4\n        /* \"#utility.yul\":19062:19079   */\n      add\n        /* \"#utility.yul\":19055:19102   */\n      mstore\n        /* \"#utility.yul\":19119:19250   */\n      tag_679\n        /* \"#utility.yul\":19245:19249   */\n      dup2\n        /* \"#utility.yul\":19119:19250   */\n      tag_472\n      jump\t// in\n    tag_679:\n        /* \"#utility.yul\":19111:19250   */\n      swap1\n      pop\n        /* \"#utility.yul\":18838:19257   */\n      swap2\n      swap1\n      pop\n      jump\t// out\n        /* \"#utility.yul\":19263:19485   */\n    tag_473:\n        /* \"#utility.yul\":19403:19437   */\n      0x45524332303a207472616e7366657220746f20746865207a65726f2061646472\n        /* \"#utility.yul\":19399:19400   */\n      0x00\n        /* \"#utility.yul\":19391:19397   */\n      dup3\n        /* \"#utility.yul\":19387:19401   */\n      add\n        /* \"#utility.yul\":19380:19438   */\n      mstore\n        /* \"#utility.yul\":19472:19477   */\n      0x6573730000000000000000000000000000000000000000000000000000000000\n        /* \"#utility.yul\":19467:19469   */\n      0x20\n        /* \"#utility.yul\":19459:19465   */\n      dup3\n        /* \"#utility.yul\":19455:19470   */\n      add\n        /* \"#utility.yul\":19448:19478   */\n      mstore\n        /* \"#utility.yul\":19263:19485   */\n      pop\n      jump\t// out\n        /* \"#utility.yul\":19491:19857   */\n    tag_474:\n        /* \"#utility.yul\":19633:19636   */\n      0x00\n        /* \"#utility.yul\":19654:19721   */\n      tag_682\n        /* \"#utility.yul\":19718:19720   */\n      0x23\n        /* \"#utility.yul\":19713:19716   */\n      dup4\n        /* \"#utility.yul\":19654:19721   */\n      tag_423\n      jump\t// in\n    tag_682:\n        /* \"#utility.yul\":19647:19721   */\n      swap2\n      pop\n        /* \"#utility.yul\":19730:19823   */\n      tag_683\n        /* \"#utility.yul\":19819:19822   */\n      dup3\n        /* \"#utility.yul\":19730:19823   */\n      tag_473\n      jump\t// in\n    tag_683:\n        /* \"#utility.yul\":19848:19850   */\n      0x40\n        /* \"#utility.yul\":19843:19846   */\n      dup3\n        /* \"#utility.yul\":19839:19851   */\n      add\n        /* \"#utility.yul\":19832:19851   */\n      swap1\n      pop\n        /* \"#utility.yul\":19491:19857   */\n      swap2\n      swap1\n      pop\n      jump\t// out\n        /* \"#utility.yul\":19863:20282   */\n    tag_283:\n        /* \"#utility.yul\":20029:20033   */\n      0x00\n        /* \"#utility.yul\":20067:20069   */\n      0x20\n        /* \"#utility.yul\":20056:20065   */\n      dup3\n        /* \"#utility.yul\":20052:20070   */\n      add\n        /* \"#utility.yul\":20044:20070   */\n      swap1\n      pop\n        /* \"#utility.yul\":20116:20125   */\n      dup2\n        /* \"#utility.yul\":20110:20114   */\n      dup2\n        /* \"#utility.yul\":20106:20126   */\n      sub\n        /* \"#utility.yul\":20102:20103   */\n      0x00\n        /* \"#utility.yul\":20091:20100   */\n      dup4\n        /* \"#utility.yul\":20087:20104   */\n      add\n        /* \"#utility.yul\":20080:20127   */\n      mstore\n        /* \"#utility.yul\":20144:20275   */\n      tag_685\n        /* \"#utility.yul\":20270:20274   */\n      dup2\n        /* \"#utility.yul\":20144:20275   */\n      tag_474\n      jump\t// in\n    tag_685:\n        /* \"#utility.yul\":20136:20275   */\n      swap1\n      pop\n        /* \"#utility.yul\":19863:20282   */\n      swap2\n      swap1\n      pop\n      jump\t// out\n        /* \"#utility.yul\":20288:20516   */\n    tag_475:\n        /* \"#utility.yul\":20428:20462   */\n      0x5472616e7366657220616d6f756e74206d757374206265206772656174657220\n        /* \"#utility.yul\":20424:20425   */\n      0x00\n        /* \"#utility.yul\":20416:20422   */\n      dup3\n        /* \"#utility.yul\":20412:20426   */\n      add\n        /* \"#utility.yul\":20405:20463   */\n      mstore\n        /* \"#utility.yul\":20497:20508   */\n      0x7468616e207a65726f0000000000000000000000000000000000000000000000\n        /* \"#utility.yul\":20492:20494   */\n      0x20\n        /* \"#utility.yul\":20484:20490   */\n      dup3\n        /* \"#utility.yul\":20480:20495   */\n      add\n        /* \"#utility.yul\":20473:20509   */\n      mstore\n        /* \"#utility.yul\":20288:20516   */\n      pop\n      jump\t// out\n        /* \"#utility.yul\":20522:20888   */\n    tag_476:\n        /* \"#utility.yul\":20664:20667   */\n      0x00\n        /* \"#utility.yul\":20685:20752   */\n      tag_688\n        /* \"#utility.yul\":20749:20751   */\n      0x29\n        /* \"#utility.yul\":20744:20747   */\n      dup4\n        /* \"#utility.yul\":20685:20752   */\n      tag_423\n      jump\t// in\n    tag_688:\n        /* \"#utility.yul\":20678:20752   */\n      swap2\n      pop\n        /* \"#utility.yul\":20761:20854   */\n      tag_689\n        /* \"#utility.yul\":20850:20853   */\n      dup3\n        /* \"#utility.yul\":20761:20854   */\n      tag_475\n      jump\t// in\n    tag_689:\n        /* \"#utility.yul\":20879:20881   */\n      0x40\n        /* \"#utility.yul\":20874:20877   */\n      dup3\n        /* \"#utility.yul\":20870:20882   */\n      add\n        /* \"#utility.yul\":20863:20882   */\n      swap1\n      pop\n        /* \"#utility.yul\":20522:20888   */\n      swap2\n      swap1\n      pop\n      jump\t// out\n        /* \"#utility.yul\":20894:21313   */\n    tag_286:\n        /* \"#utility.yul\":21060:21064   */\n      0x00\n        /* \"#utility.yul\":21098:21100   */\n      0x20\n        /* \"#utility.yul\":21087:21096   */\n      dup3\n        /* \"#utility.yul\":21083:21101   */\n      add\n        /* \"#utility.yul\":21075:21101   */\n      swap1\n      pop\n        /* \"#utility.yul\":21147:21156   */\n      dup2\n        /* \"#utility.yul\":21141:21145   */\n      dup2\n        /* \"#utility.yul\":21137:21157   */\n      sub\n        /* \"#utility.yul\":21133:21134   */\n      0x00\n        /* \"#utility.yul\":21122:21131   */\n      dup4\n        /* \"#utility.yul\":21118:21135   */\n      add\n        /* \"#utility.yul\":21111:21158   */\n      mstore\n        /* \"#utility.yul\":21175:21306   */\n      tag_691\n        /* \"#utility.yul\":21301:21305   */\n      dup2\n        /* \"#utility.yul\":21175:21306   */\n      tag_476\n      jump\t// in\n    tag_691:\n        /* \"#utility.yul\":21167:21306   */\n      swap1\n      pop\n        /* \"#utility.yul\":20894:21313   */\n      swap2\n      swap1\n      pop\n      jump\t// out\n        /* \"#utility.yul\":21319:21510   */\n    tag_313:\n        /* \"#utility.yul\":21359:21363   */\n      0x00\n        /* \"#utility.yul\":21379:21399   */\n      tag_693\n        /* \"#utility.yul\":21397:21398   */\n      dup3\n        /* \"#utility.yul\":21379:21399   */\n      tag_434\n      jump\t// in\n    tag_693:\n        /* \"#utility.yul\":21374:21399   */\n      swap2\n      pop\n        /* \"#utility.yul\":21413:21433   */\n      tag_694\n        /* \"#utility.yul\":21431:21432   */\n      dup4\n        /* \"#utility.yul\":21413:21433   */\n      tag_434\n      jump\t// in\n    tag_694:\n        /* \"#utility.yul\":21408:21433   */\n      swap3\n      pop\n        /* \"#utility.yul\":21452:21453   */\n      dup3\n        /* \"#utility.yul\":21449:21450   */\n      dup3\n        /* \"#utility.yul\":21446:21454   */\n      lt\n        /* \"#utility.yul\":21443:21477   */\n      iszero\n      tag_695\n      jumpi\n        /* \"#utility.yul\":21457:21475   */\n      tag_696\n      tag_465\n      jump\t// in\n    tag_696:\n        /* \"#utility.yul\":21443:21477   */\n    tag_695:\n        /* \"#utility.yul\":21502:21503   */\n      dup3\n        /* \"#utility.yul\":21499:21500   */\n      dup3\n        /* \"#utility.yul\":21495:21504   */\n      sub\n        /* \"#utility.yul\":21487:21504   */\n      swap1\n      pop\n        /* \"#utility.yul\":21319:21510   */\n      swap3\n      swap2\n      pop\n      pop\n      jump\t// out\n        /* \"#utility.yul\":21516:21745   */\n    tag_477:\n        /* \"#utility.yul\":21656:21690   */\n      0x416d6f756e74206d757374206265206c657373207468616e20746f74616c2072\n        /* \"#utility.yul\":21652:21653   */\n      0x00\n        /* \"#utility.yul\":21644:21650   */\n      dup3\n        /* \"#utility.yul\":21640:21654   */\n      add\n        /* \"#utility.yul\":21633:21691   */\n      mstore\n        /* \"#utility.yul\":21725:21737   */\n      0x65666c656374696f6e7300000000000000000000000000000000000000000000\n        /* \"#utility.yul\":21720:21722   */\n      0x20\n        /* \"#utility.yul\":21712:21718   */\n      dup3\n        /* \"#utility.yul\":21708:21723   */\n      add\n        /* \"#utility.yul\":21701:21738   */\n      mstore\n        /* \"#utility.yul\":21516:21745   */\n      pop\n      jump\t// out\n        /* \"#utility.yul\":21751:22117   */\n    tag_478:\n        /* \"#utility.yul\":21893:21896   */\n      0x00\n        /* \"#utility.yul\":21914:21981   */\n      tag_699\n        /* \"#utility.yul\":21978:21980   */\n      0x2a\n        /* \"#utility.yul\":21973:21976   */\n      dup4\n        /* \"#utility.yul\":21914:21981   */\n      tag_423\n      jump\t// in\n    tag_699:\n        /* \"#utility.yul\":21907:21981   */\n      swap2\n      pop\n        /* \"#utility.yul\":21990:22083   */\n      tag_700\n        /* \"#utility.yul\":22079:22082   */\n      dup3\n        /* \"#utility.yul\":21990:22083   */\n      tag_477\n      jump\t// in\n    tag_700:\n        /* \"#utility.yul\":22108:22110   */\n      0x40\n        /* \"#utility.yul\":22103:22106   */\n      dup3\n        /* \"#utility.yul\":22099:22111   */\n      add\n        /* \"#utility.yul\":22092:22111   */\n      swap1\n      pop\n        /* \"#utility.yul\":21751:22117   */\n      swap2\n      swap1\n      pop\n      jump\t// out\n        /* \"#utility.yul\":22123:22542   */\n    tag_325:\n        /* \"#utility.yul\":22289:22293   */\n      0x00\n        /* \"#utility.yul\":22327:22329   */\n      0x20\n        /* \"#utility.yul\":22316:22325   */\n      dup3\n        /* \"#utility.yul\":22312:22330   */\n      add\n        /* \"#utility.yul\":22304:22330   */\n      swap1\n      pop\n        /* \"#utility.yul\":22376:22385   */\n      dup2\n        /* \"#utility.yul\":22370:22374   */\n      dup2\n        /* \"#utility.yul\":22366:22386   */\n      sub\n        /* \"#utility.yul\":22362:22363   */\n      0x00\n        /* \"#utility.yul\":22351:22360   */\n      dup4\n        /* \"#utility.yul\":22347:22364   */\n      add\n        /* \"#utility.yul\":22340:22387   */\n      mstore\n        /* \"#utility.yul\":22404:22535   */\n      tag_702\n        /* \"#utility.yul\":22530:22534   */\n      dup2\n        /* \"#utility.yul\":22404:22535   */\n      tag_478\n      jump\t// in\n    tag_702:\n        /* \"#utility.yul\":22396:22535   */\n      swap1\n      pop\n        /* \"#utility.yul\":22123:22542   */\n      swap2\n      swap1\n      pop\n      jump\t// out\n        /* \"#utility.yul\":22548:22728   */\n    tag_333:\n        /* \"#utility.yul\":22596:22673   */\n      0x4e487b7100000000000000000000000000000000000000000000000000000000\n        /* \"#utility.yul\":22593:22594   */\n      0x00\n        /* \"#utility.yul\":22586:22674   */\n      mstore\n        /* \"#utility.yul\":22693:22697   */\n      0x41\n        /* \"#utility.yul\":22690:22691   */\n      0x04\n        /* \"#utility.yul\":22683:22698   */\n      mstore\n        /* \"#utility.yul\":22717:22721   */\n      0x24\n        /* \"#utility.yul\":22714:22715   */\n      0x00\n        /* \"#utility.yul\":22707:22722   */\n      revert\n        /* \"#utility.yul\":22734:22877   */\n    tag_479:\n        /* \"#utility.yul\":22791:22796   */\n      0x00\n        /* \"#utility.yul\":22822:22828   */\n      dup2\n        /* \"#utility.yul\":22816:22829   */\n      mload\n        /* \"#utility.yul\":22807:22829   */\n      swap1\n      pop\n        /* \"#utility.yul\":22838:22871   */\n      tag_705\n        /* \"#utility.yul\":22865:22870   */\n      dup2\n        /* \"#utility.yul\":22838:22871   */\n      tag_432\n      jump\t// in\n    tag_705:\n        /* \"#utility.yul\":22734:22877   */\n      swap3\n      swap2\n      pop\n      pop\n      jump\t// out\n        /* \"#utility.yul\":22883:23234   */\n    tag_340:\n        /* \"#utility.yul\":22953:22959   */\n      0x00\n        /* \"#utility.yul\":23002:23004   */\n      0x20\n        /* \"#utility.yul\":22990:22999   */\n      dup3\n        /* \"#utility.yul\":22981:22988   */\n      dup5\n        /* \"#utility.yul\":22977:23000   */\n      sub\n        /* \"#utility.yul\":22973:23005   */\n      slt\n        /* \"#utility.yul\":22970:23089   */\n      iszero\n      tag_707\n      jumpi\n        /* \"#utility.yul\":23008:23087   */\n      tag_708\n      tag_428\n      jump\t// in\n    tag_708:\n        /* \"#utility.yul\":22970:23089   */\n    tag_707:\n        /* \"#utility.yul\":23128:23129   */\n      0x00\n        /* \"#utility.yul\":23153:23217   */\n      tag_709\n        /* \"#utility.yul\":23209:23216   */\n      dup5\n        /* \"#utility.yul\":23200:23206   */\n      dup3\n        /* \"#utility.yul\":23189:23198   */\n      dup6\n        /* \"#utility.yul\":23185:23207   */\n      add\n        /* \"#utility.yul\":23153:23217   */\n      tag_479\n      jump\t// in\n    tag_709:\n        /* \"#utility.yul\":23143:23217   */\n      swap2\n      pop\n        /* \"#utility.yul\":23099:23227   */\n      pop\n        /* \"#utility.yul\":22883:23234   */\n      swap3\n      swap2\n      pop\n      pop\n      jump\t// out\n        /* \"#utility.yul\":23240:23325   */\n    tag_480:\n        /* \"#utility.yul\":23285:23292   */\n      0x00\n        /* \"#utility.yul\":23314:23319   */\n      dup2\n        /* \"#utility.yul\":23303:23319   */\n      swap1\n      pop\n        /* \"#utility.yul\":23240:23325   */\n      swap2\n      swap1\n      pop\n      jump\t// out\n        /* \"#utility.yul\":23331:23489   */\n    tag_481:\n        /* \"#utility.yul\":23389:23398   */\n      0x00\n        /* \"#utility.yul\":23422:23483   */\n      tag_712\n        /* \"#utility.yul\":23440:23482   */\n      tag_713\n        /* \"#utility.yul\":23449:23481   */\n      tag_714\n        /* \"#utility.yul\":23475:23480   */\n      dup5\n        /* \"#utility.yul\":23449:23481   */\n      tag_480\n      jump\t// in\n    tag_714:\n        /* \"#utility.yul\":23440:23482   */\n      tag_439\n      jump\t// in\n    tag_713:\n        /* \"#utility.yul\":23422:23483   */\n      tag_434\n      jump\t// in\n    tag_712:\n        /* \"#utility.yul\":23409:23483   */\n      swap1\n      pop\n        /* \"#utility.yul\":23331:23489   */\n      swap2\n      swap1\n      pop\n      jump\t// out\n        /* \"#utility.yul\":23495:23642   */\n    tag_482:\n        /* \"#utility.yul\":23590:23635   */\n      tag_716\n        /* \"#utility.yul\":23629:23634   */\n      dup2\n        /* \"#utility.yul\":23590:23635   */\n      tag_481\n      jump\t// in\n    tag_716:\n        /* \"#utility.yul\":23585:23588   */\n      dup3\n        /* \"#utility.yul\":23578:23636   */\n      mstore\n        /* \"#utility.yul\":23495:23642   */\n      pop\n      pop\n      jump\t// out\n        /* \"#utility.yul\":23648:23762   */\n    tag_483:\n        /* \"#utility.yul\":23715:23721   */\n      0x00\n        /* \"#utility.yul\":23749:23754   */\n      dup2\n        /* \"#utility.yul\":23743:23755   */\n      mload\n        /* \"#utility.yul\":23733:23755   */\n      swap1\n      pop\n        /* \"#utility.yul\":23648:23762   */\n      swap2\n      swap1\n      pop\n      jump\t// out\n        /* \"#utility.yul\":23768:23952   */\n    tag_484:\n        /* \"#utility.yul\":23867:23878   */\n      0x00\n        /* \"#utility.yul\":23901:23907   */\n      dup3\n        /* \"#utility.yul\":23896:23899   */\n      dup3\n        /* \"#utility.yul\":23889:23908   */\n      mstore\n        /* \"#utility.yul\":23941:23945   */\n      0x20\n        /* \"#utility.yul\":23936:23939   */\n      dup3\n        /* \"#utility.yul\":23932:23946   */\n      add\n        /* \"#utility.yul\":23917:23946   */\n      swap1\n      pop\n        /* \"#utility.yul\":23768:23952   */\n      swap3\n      swap2\n      pop\n      pop\n      jump\t// out\n        /* \"#utility.yul\":23958:24090   */\n    tag_485:\n        /* \"#utility.yul\":24025:24029   */\n      0x00\n        /* \"#utility.yul\":24048:24051   */\n      dup2\n        /* \"#utility.yul\":24040:24051   */\n      swap1\n      pop\n        /* \"#utility.yul\":24078:24082   */\n      0x20\n        /* \"#utility.yul\":24073:24076   */\n      dup3\n        /* \"#utility.yul\":24069:24083   */\n      add\n        /* \"#utility.yul\":24061:24083   */\n      swap1\n      pop\n        /* \"#utility.yul\":23958:24090   */\n      swap2\n      swap1\n      pop\n      jump\t// out\n        /* \"#utility.yul\":24096:24204   */\n    tag_486:\n        /* \"#utility.yul\":24173:24197   */\n      tag_721\n        /* \"#utility.yul\":24191:24196   */\n      dup2\n        /* \"#utility.yul\":24173:24197   */\n      tag_431\n      jump\t// in\n    tag_721:\n        /* \"#utility.yul\":24168:24171   */\n      dup3\n        /* \"#utility.yul\":24161:24198   */\n      mstore\n        /* \"#utility.yul\":24096:24204   */\n      pop\n      pop\n      jump\t// out\n        /* \"#utility.yul\":24210:24389   */\n    tag_487:\n        /* \"#utility.yul\":24279:24289   */\n      0x00\n        /* \"#utility.yul\":24300:24346   */\n      tag_723\n        /* \"#utility.yul\":24342:24345   */\n      dup4\n        /* \"#utility.yul\":24334:24340   */\n      dup4\n        /* \"#utility.yul\":24300:24346   */\n      tag_486\n      jump\t// in\n    tag_723:\n        /* \"#utility.yul\":24378:24382   */\n      0x20\n        /* \"#utility.yul\":24373:24376   */\n      dup4\n        /* \"#utility.yul\":24369:24383   */\n      add\n        /* \"#utility.yul\":24355:24383   */\n      swap1\n      pop\n        /* \"#utility.yul\":24210:24389   */\n      swap3\n      swap2\n      pop\n      pop\n      jump\t// out\n        /* \"#utility.yul\":24395:24508   */\n    tag_488:\n        /* \"#utility.yul\":24465:24469   */\n      0x00\n        /* \"#utility.yul\":24497:24501   */\n      0x20\n        /* \"#utility.yul\":24492:24495   */\n      dup3\n        /* \"#utility.yul\":24488:24502   */\n      add\n        /* \"#utility.yul\":24480:24502   */\n      swap1\n      pop\n        /* \"#utility.yul\":24395:24508   */\n      swap2\n      swap1\n      pop\n      jump\t// out\n        /* \"#utility.yul\":24544:25276   */\n    tag_489:\n        /* \"#utility.yul\":24663:24666   */\n      0x00\n        /* \"#utility.yul\":24692:24746   */\n      tag_726\n        /* \"#utility.yul\":24740:24745   */\n      dup3\n        /* \"#utility.yul\":24692:24746   */\n      tag_483\n      jump\t// in\n    tag_726:\n        /* \"#utility.yul\":24762:24848   */\n      tag_727\n        /* \"#utility.yul\":24841:24847   */\n      dup2\n        /* \"#utility.yul\":24836:24839   */\n      dup6\n        /* \"#utility.yul\":24762:24848   */\n      tag_484\n      jump\t// in\n    tag_727:\n        /* \"#utility.yul\":24755:24848   */\n      swap4\n      pop\n        /* \"#utility.yul\":24872:24928   */\n      tag_728\n        /* \"#utility.yul\":24922:24927   */\n      dup4\n        /* \"#utility.yul\":24872:24928   */\n      tag_485\n      jump\t// in\n    tag_728:\n        /* \"#utility.yul\":24951:24958   */\n      dup1\n        /* \"#utility.yul\":24982:24983   */\n      0x00\n        /* \"#utility.yul\":24967:25251   */\n    tag_729:\n        /* \"#utility.yul\":24992:24998   */\n      dup4\n        /* \"#utility.yul\":24989:24990   */\n      dup2\n        /* \"#utility.yul\":24986:24999   */\n      lt\n        /* \"#utility.yul\":24967:25251   */\n      iszero\n      tag_731\n      jumpi\n        /* \"#utility.yul\":25068:25074   */\n      dup2\n        /* \"#utility.yul\":25062:25075   */\n      mload\n        /* \"#utility.yul\":25095:25158   */\n      tag_732\n        /* \"#utility.yul\":25154:25157   */\n      dup9\n        /* \"#utility.yul\":25139:25152   */\n      dup3\n        /* \"#utility.yul\":25095:25158   */\n      tag_487\n      jump\t// in\n    tag_732:\n        /* \"#utility.yul\":25088:25158   */\n      swap8\n      pop\n        /* \"#utility.yul\":25181:25241   */\n      tag_733\n        /* \"#utility.yul\":25234:25240   */\n      dup4\n        /* \"#utility.yul\":25181:25241   */\n      tag_488\n      jump\t// in\n    tag_733:\n        /* \"#utility.yul\":25171:25241   */\n      swap3\n      pop\n        /* \"#utility.yul\":25027:25251   */\n      pop\n        /* \"#utility.yul\":25014:25015   */\n      0x01\n        /* \"#utility.yul\":25011:25012   */\n      dup2\n        /* \"#utility.yul\":25007:25016   */\n      add\n        /* \"#utility.yul\":25002:25016   */\n      swap1\n      pop\n        /* \"#utility.yul\":24967:25251   */\n      jump(tag_729)\n    tag_731:\n        /* \"#utility.yul\":24971:24985   */\n      pop\n        /* \"#utility.yul\":25267:25270   */\n      dup6\n        /* \"#utility.yul\":25260:25270   */\n      swap4\n      pop\n        /* \"#utility.yul\":24668:25276   */\n      pop\n      pop\n      pop\n        /* \"#utility.yul\":24544:25276   */\n      swap3\n      swap2\n      pop\n      pop\n      jump\t// out\n        /* \"#utility.yul\":25282:26113   */\n    tag_345:\n        /* \"#utility.yul\":25545:25549   */\n      0x00\n        /* \"#utility.yul\":25583:25586   */\n      0xa0\n        /* \"#utility.yul\":25572:25581   */\n      dup3\n        /* \"#utility.yul\":25568:25587   */\n      add\n        /* \"#utility.yul\":25560:25587   */\n      swap1\n      pop\n        /* \"#utility.yul\":25597:25668   */\n      tag_735\n        /* \"#utility.yul\":25665:25666   */\n      0x00\n        /* \"#utility.yul\":25654:25663   */\n      dup4\n        /* \"#utility.yul\":25650:25667   */\n      add\n        /* \"#utility.yul\":25641:25647   */\n      dup9\n        /* \"#utility.yul\":25597:25668   */\n      tag_444\n      jump\t// in\n    tag_735:\n        /* \"#utility.yul\":25678:25758   */\n      tag_736\n        /* \"#utility.yul\":25754:25756   */\n      0x20\n        /* \"#utility.yul\":25743:25752   */\n      dup4\n        /* \"#utility.yul\":25739:25757   */\n      add\n        /* \"#utility.yul\":25730:25736   */\n      dup8\n        /* \"#utility.yul\":25678:25758   */\n      tag_482\n      jump\t// in\n    tag_736:\n        /* \"#utility.yul\":25805:25814   */\n      dup2\n        /* \"#utility.yul\":25799:25803   */\n      dup2\n        /* \"#utility.yul\":25795:25815   */\n      sub\n        /* \"#utility.yul\":25790:25792   */\n      0x40\n        /* \"#utility.yul\":25779:25788   */\n      dup4\n        /* \"#utility.yul\":25775:25793   */\n      add\n        /* \"#utility.yul\":25768:25816   */\n      mstore\n        /* \"#utility.yul\":25833:25941   */\n      tag_737\n        /* \"#utility.yul\":25936:25940   */\n      dup2\n        /* \"#utility.yul\":25927:25933   */\n      dup7\n        /* \"#utility.yul\":25833:25941   */\n      tag_489\n      jump\t// in\n    tag_737:\n        /* \"#utility.yul\":25825:25941   */\n      swap1\n      pop\n        /* \"#utility.yul\":25951:26023   */\n      tag_738\n        /* \"#utility.yul\":26019:26021   */\n      0x60\n        /* \"#utility.yul\":26008:26017   */\n      dup4\n        /* \"#utility.yul\":26004:26022   */\n      add\n        /* \"#utility.yul\":25995:26001   */\n      dup6\n        /* \"#utility.yul\":25951:26023   */\n      tag_447\n      jump\t// in\n    tag_738:\n        /* \"#utility.yul\":26033:26106   */\n      tag_739\n        /* \"#utility.yul\":26101:26104   */\n      0x80\n        /* \"#utility.yul\":26090:26099   */\n      dup4\n        /* \"#utility.yul\":26086:26105   */\n      add\n        /* \"#utility.yul\":26077:26083   */\n      dup5\n        /* \"#utility.yul\":26033:26106   */\n      tag_444\n      jump\t// in\n    tag_739:\n        /* \"#utility.yul\":25282:26113   */\n      swap7\n      swap6\n      pop\n      pop\n      pop\n      pop\n      pop\n      pop\n      jump\t// out\n        /* \"#utility.yul\":26119:26299   */\n    tag_490:\n        /* \"#utility.yul\":26167:26244   */\n      0x4e487b7100000000000000000000000000000000000000000000000000000000\n        /* \"#utility.yul\":26164:26165   */\n      0x00\n        /* \"#utility.yul\":26157:26245   */\n      mstore\n        /* \"#utility.yul\":26264:26268   */\n      0x12\n        /* \"#utility.yul\":26261:26262   */\n      0x04\n        /* \"#utility.yul\":26254:26269   */\n      mstore\n        /* \"#utility.yul\":26288:26292   */\n      0x24\n        /* \"#utility.yul\":26285:26286   */\n      0x00\n        /* \"#utility.yul\":26278:26293   */\n      revert\n        /* \"#utility.yul\":26305:26490   */\n    tag_375:\n        /* \"#utility.yul\":26345:26346   */\n      0x00\n        /* \"#utility.yul\":26362:26382   */\n      tag_742\n        /* \"#utility.yul\":26380:26381   */\n      dup3\n        /* \"#utility.yul\":26362:26382   */\n      tag_434\n      jump\t// in\n    tag_742:\n        /* \"#utility.yul\":26357:26382   */\n      swap2\n      pop\n        /* \"#utility.yul\":26396:26416   */\n      tag_743\n        /* \"#utility.yul\":26414:26415   */\n      dup4\n        /* \"#utility.yul\":26396:26416   */\n      tag_434\n      jump\t// in\n    tag_743:\n        /* \"#utility.yul\":26391:26416   */\n      swap3\n      pop\n        /* \"#utility.yul\":26435:26436   */\n      dup3\n        /* \"#utility.yul\":26425:26460   */\n      tag_744\n      jumpi\n        /* \"#utility.yul\":26440:26458   */\n      tag_745\n      tag_490\n      jump\t// in\n    tag_745:\n        /* \"#utility.yul\":26425:26460   */\n    tag_744:\n        /* \"#utility.yul\":26482:26483   */\n      dup3\n        /* \"#utility.yul\":26479:26480   */\n      dup3\n        /* \"#utility.yul\":26475:26484   */\n      div\n        /* \"#utility.yul\":26470:26484   */\n      swap1\n      pop\n        /* \"#utility.yul\":26305:26490   */\n      swap3\n      swap2\n      pop\n      pop\n      jump\t// out\n        /* \"#utility.yul\":26496:26801   */\n    tag_389:\n        /* \"#utility.yul\":26536:26539   */\n      0x00\n        /* \"#utility.yul\":26555:26575   */\n      tag_747\n        /* \"#utility.yul\":26573:26574   */\n      dup3\n        /* \"#utility.yul\":26555:26575   */\n      tag_434\n      jump\t// in\n    tag_747:\n        /* \"#utility.yul\":26550:26575   */\n      swap2\n      pop\n        /* \"#utility.yul\":26589:26609   */\n      tag_748\n        /* \"#utility.yul\":26607:26608   */\n      dup4\n        /* \"#utility.yul\":26589:26609   */\n      tag_434\n      jump\t// in\n    tag_748:\n        /* \"#utility.yul\":26584:26609   */\n      swap3\n      pop\n        /* \"#utility.yul\":26743:26744   */\n      dup3\n        /* \"#utility.yul\":26675:26741   */\n      0xffffffffffffffffffffffffffffffffffffffffffffffffffffffffffffffff\n        /* \"#utility.yul\":26671:26745   */\n      sub\n        /* \"#utility.yul\":26668:26669   */\n      dup3\n        /* \"#utility.yul\":26665:26746   */\n      gt\n        /* \"#utility.yul\":26662:26769   */\n      iszero\n      tag_749\n      jumpi\n        /* \"#utility.yul\":26749:26767   */\n      tag_750\n      tag_465\n      jump\t// in\n    tag_750:\n        /* \"#utility.yul\":26662:26769   */\n    tag_749:\n        /* \"#utility.yul\":26793:26794   */\n      dup3\n        /* \"#utility.yul\":26790:26791   */\n      dup3\n        /* \"#utility.yul\":26786:26795   */\n      add\n        /* \"#utility.yul\":26779:26795   */\n      swap1\n      pop\n        /* \"#utility.yul\":26496:26801   */\n      swap3\n      swap2\n      pop\n      pop\n      jump\t// out\n        /* \"#utility.yul\":26807:26984   */\n    tag_491:\n        /* \"#utility.yul\":26947:26976   */\n      0x536166654d6174683a206164646974696f6e206f766572666c6f770000000000\n        /* \"#utility.yul\":26943:26944   */\n      0x00\n        /* \"#utility.yul\":26935:26941   */\n      dup3\n        /* \"#utility.yul\":26931:26945   */\n      add\n        /* \"#utility.yul\":26924:26977   */\n      mstore\n        /* \"#utility.yul\":26807:26984   */\n      pop\n      jump\t// out\n        /* \"#utility.yul\":26990:27356   */\n    tag_492:\n        /* \"#utility.yul\":27132:27135   */\n      0x00\n        /* \"#utility.yul\":27153:27220   */\n      tag_753\n        /* \"#utility.yul\":27217:27219   */\n      0x1b\n        /* \"#utility.yul\":27212:27215   */\n      dup4\n        /* \"#utility.yul\":27153:27220   */\n      tag_423\n      jump\t// in\n    tag_753:\n        /* \"#utility.yul\":27146:27220   */\n      swap2\n      pop\n        /* \"#utility.yul\":27229:27322   */\n      tag_754\n        /* \"#utility.yul\":27318:27321   */\n      dup3\n        /* \"#utility.yul\":27229:27322   */\n      tag_491\n      jump\t// in\n    tag_754:\n        /* \"#utility.yul\":27347:27349   */\n      0x20\n        /* \"#utility.yul\":27342:27345   */\n      dup3\n        /* \"#utility.yul\":27338:27350   */\n      add\n        /* \"#utility.yul\":27331:27350   */\n      swap1\n      pop\n        /* \"#utility.yul\":26990:27356   */\n      swap2\n      swap1\n      pop\n      jump\t// out\n        /* \"#utility.yul\":27362:27781   */\n    tag_392:\n        /* \"#utility.yul\":27528:27532   */\n      0x00\n        /* \"#utility.yul\":27566:27568   */\n      0x20\n        /* \"#utility.yul\":27555:27564   */\n      dup3\n        /* \"#utility.yul\":27551:27569   */\n      add\n        /* \"#utility.yul\":27543:27569   */\n      swap1\n      pop\n        /* \"#utility.yul\":27615:27624   */\n      dup2\n        /* \"#utility.yul\":27609:27613   */\n      dup2\n        /* \"#utility.yul\":27605:27625   */\n      sub\n        /* \"#utility.yul\":27601:27602   */\n      0x00\n        /* \"#utility.yul\":27590:27599   */\n      dup4\n        /* \"#utility.yul\":27586:27603   */\n      add\n        /* \"#utility.yul\":27579:27626   */\n      mstore\n        /* \"#utility.yul\":27643:27774   */\n      tag_756\n        /* \"#utility.yul\":27769:27773   */\n      dup2\n        /* \"#utility.yul\":27643:27774   */\n      tag_492\n      jump\t// in\n    tag_756:\n        /* \"#utility.yul\":27635:27774   */\n      swap1\n      pop\n        /* \"#utility.yul\":27362:27781   */\n      swap2\n      swap1\n      pop\n      jump\t// out\n        /* \"#utility.yul\":27787:28135   */\n    tag_417:\n        /* \"#utility.yul\":27827:27834   */\n      0x00\n        /* \"#utility.yul\":27850:27870   */\n      tag_758\n        /* \"#utility.yul\":27868:27869   */\n      dup3\n        /* \"#utility.yul\":27850:27870   */\n      tag_434\n      jump\t// in\n    tag_758:\n        /* \"#utility.yul\":27845:27870   */\n      swap2\n      pop\n        /* \"#utility.yul\":27884:27904   */\n      tag_759\n        /* \"#utility.yul\":27902:27903   */\n      dup4\n        /* \"#utility.yul\":27884:27904   */\n      tag_434\n      jump\t// in\n    tag_759:\n        /* \"#utility.yul\":27879:27904   */\n      swap3\n      pop\n        /* \"#utility.yul\":28072:28073   */\n      dup2\n        /* \"#utility.yul\":28004:28070   */\n      0xffffffffffffffffffffffffffffffffffffffffffffffffffffffffffffffff\n        /* \"#utility.yul\":28000:28074   */\n      div\n        /* \"#utility.yul\":27997:27998   */\n      dup4\n        /* \"#utility.yul\":27994:28075   */\n      gt\n        /* \"#utility.yul\":27989:27990   */\n      dup3\n        /* \"#utility.yul\":27982:27991   */\n      iszero\n        /* \"#utility.yul\":27975:27992   */\n      iszero\n        /* \"#utility.yul\":27971:28076   */\n      and\n        /* \"#utility.yul\":27968:28099   */\n      iszero\n      tag_760\n      jumpi\n        /* \"#utility.yul\":28079:28097   */\n      tag_761\n      tag_465\n      jump\t// in\n    tag_761:\n        /* \"#utility.yul\":27968:28099   */\n    tag_760:\n        /* \"#utility.yul\":28127:28128   */\n      dup3\n        /* \"#utility.yul\":28124:28125   */\n      dup3\n        /* \"#utility.yul\":28120:28129   */\n      mul\n        /* \"#utility.yul\":28109:28129   */\n      swap1\n      pop\n        /* \"#utility.yul\":27787:28135   */\n      swap3\n      swap2\n      pop\n      pop\n      jump\t// out\n        /* \"#utility.yul\":28141:28361   */\n    tag_493:\n        /* \"#utility.yul\":28281:28315   */\n      0x536166654d6174683a206d756c7469706c69636174696f6e206f766572666c6f\n        /* \"#utility.yul\":28277:28278   */\n      0x00\n        /* \"#utility.yul\":28269:28275   */\n      dup3\n        /* \"#utility.yul\":28265:28279   */\n      add\n        /* \"#utility.yul\":28258:28316   */\n      mstore\n        /* \"#utility.yul\":28350:28353   */\n      0x7700000000000000000000000000000000000000000000000000000000000000\n        /* \"#utility.yul\":28345:28347   */\n      0x20\n        /* \"#utility.yul\":28337:28343   */\n      dup3\n        /* \"#utility.yul\":28333:28348   */\n      add\n        /* \"#utility.yul\":28326:28354   */\n      mstore\n        /* \"#utility.yul\":28141:28361   */\n      pop\n      jump\t// out\n        /* \"#utility.yul\":28367:28733   */\n    tag_494:\n        /* \"#utility.yul\":28509:28512   */\n      0x00\n        /* \"#utility.yul\":28530:28597   */\n      tag_764\n        /* \"#utility.yul\":28594:28596   */\n      0x21\n        /* \"#utility.yul\":28589:28592   */\n      dup4\n        /* \"#utility.yul\":28530:28597   */\n      tag_423\n      jump\t// in\n    tag_764:\n        /* \"#utility.yul\":28523:28597   */\n      swap2\n      pop\n        /* \"#utility.yul\":28606:28699   */\n      tag_765\n        /* \"#utility.yul\":28695:28698   */\n      dup3\n        /* \"#utility.yul\":28606:28699   */\n      tag_493\n      jump\t// in\n    tag_765:\n        /* \"#utility.yul\":28724:28726   */\n      0x40\n        /* \"#utility.yul\":28719:28722   */\n      dup3\n        /* \"#utility.yul\":28715:28727   */\n      add\n        /* \"#utility.yul\":28708:28727   */\n      swap1\n      pop\n        /* \"#utility.yul\":28367:28733   */\n      swap2\n      swap1\n      pop\n      jump\t// out\n        /* \"#utility.yul\":28739:29158   */\n    tag_421:\n        /* \"#utility.yul\":28905:28909   */\n      0x00\n        /* \"#utility.yul\":28943:28945   */\n      0x20\n        /* \"#utility.yul\":28932:28941   */\n      dup3\n        /* \"#utility.yul\":28928:28946   */\n      add\n        /* \"#utility.yul\":28920:28946   */\n      swap1\n      pop\n        /* \"#utility.yul\":28992:29001   */\n      dup2\n        /* \"#utility.yul\":28986:28990   */\n      dup2\n        /* \"#utility.yul\":28982:29002   */\n      sub\n        /* \"#utility.yul\":28978:28979   */\n      0x00\n        /* \"#utility.yul\":28967:28976   */\n      dup4\n        /* \"#utility.yul\":28963:28980   */\n      add\n        /* \"#utility.yul\":28956:29003   */\n      mstore\n        /* \"#utility.yul\":29020:29151   */\n      tag_767\n        /* \"#utility.yul\":29146:29150   */\n      dup2\n        /* \"#utility.yul\":29020:29151   */\n      tag_494\n      jump\t// in\n    tag_767:\n        /* \"#utility.yul\":29012:29151   */\n      swap1\n      pop\n        /* \"#utility.yul\":28739:29158   */\n      swap2\n      swap1\n      pop\n      jump\t// out\n    stop\n    data_974d1b4421da69cc60b481194f0dad36a5bb4e23da810da7a7fb30cdba178330 45524332303a207472616e7366657220616d6f756e74206578636565647320616c6c6f77616e6365\n\n    auxdata: 0xa264697066735822122057779acb0cbabd159a3ffcc9e7829b65d91a59951ba00359322487965f7cdc0f64736f6c634300080d0033\n}\n",
				"bytecode": {
					"linkReferences": {},
					"object": "6080604052670de0b6b3a76400006414f46b04006200001f91906200078f565b6414f46b0400620000319190620007f6565b600655600160085560046009556001600a556001600b55738492cbd894686d7e98214541903c7ba6f94928d6600e60006101000a81548173ffffffffffffffffffffffffffffffffffffffff021916908373ffffffffffffffffffffffffffffffffffffffff16021790555073a4ed7aa4ef5deb0a63e97d9cb77445ae553feb1d600f60006101000a81548173ffffffffffffffffffffffffffffffffffffffff021916908373ffffffffffffffffffffffffffffffffffffffff1602179055506000601260146101000a81548160ff0219169083151502179055506001601260156101000a81548160ff0219169083151502179055503480156200013557600080fd5b506000620001486200072560201b60201c565b9050806000806101000a81548173ffffffffffffffffffffffffffffffffffffffff021916908373ffffffffffffffffffffffffffffffffffffffff1602179055508073ffffffffffffffffffffffffffffffffffffffff16600073ffffffffffffffffffffffffffffffffffffffff167f8be0079c531659141344cd1fd0a4f28419497f9722a3daafe3b4186f6b6457e060405160405180910390a35060065460026000620001fd6200072560201b60201c565b73ffffffffffffffffffffffffffffffffffffffff1673ffffffffffffffffffffffffffffffffffffffff1681526020019081526020016000208190555060007310ed43c718714eb63d5aa57b78b54704e256024e905080601060006101000a81548173ffffffffffffffffffffffffffffffffffffffff021916908373ffffffffffffffffffffffffffffffffffffffff1602179055508073ffffffffffffffffffffffffffffffffffffffff1663c45a01556040518163ffffffff1660e01b8152600401602060405180830381865afa158015620002e1573d6000803e3d6000fd5b505050506040513d601f19601f820116820180604052508101906200030791906200089b565b601260006101000a81548173ffffffffffffffffffffffffffffffffffffffff021916908373ffffffffffffffffffffffffffffffffffffffff1602179055508073ffffffffffffffffffffffffffffffffffffffff1663c45a01556040518163ffffffff1660e01b8152600401602060405180830381865afa15801562000393573d6000803e3d6000fd5b505050506040513d601f19601f82011682018060405250810190620003b991906200089b565b73ffffffffffffffffffffffffffffffffffffffff1663c9c65396308373ffffffffffffffffffffffffffffffffffffffff1663ad5c46486040518163ffffffff1660e01b8152600401602060405180830381865afa15801562000421573d6000803e3d6000fd5b505050506040513d601f19601f820116820180604052508101906200044791906200089b565b6040518363ffffffff1660e01b815260040162000466929190620008de565b6020604051808303816000875af115801562000486573d6000803e3d6000fd5b505050506040513d601f19601f82011682018060405250810190620004ac91906200089b565b601160006101000a81548173ffffffffffffffffffffffffffffffffffffffff021916908373ffffffffffffffffffffffffffffffffffffffff160217905550600160056000620005026200072d60201b60201c565b73ffffffffffffffffffffffffffffffffffffffff1673ffffffffffffffffffffffffffffffffffffffff16815260200190815260200160002060006101000a81548160ff0219169083151502179055506001600560003073ffffffffffffffffffffffffffffffffffffffff1673ffffffffffffffffffffffffffffffffffffffff16815260200190815260200160002060006101000a81548160ff021916908315150217905550600160056000600e60009054906101000a900473ffffffffffffffffffffffffffffffffffffffff1673ffffffffffffffffffffffffffffffffffffffff1673ffffffffffffffffffffffffffffffffffffffff16815260200190815260200160002060006101000a81548160ff021916908315150217905550600160056000600f60009054906101000a900473ffffffffffffffffffffffffffffffffffffffff1673ffffffffffffffffffffffffffffffffffffffff1673ffffffffffffffffffffffffffffffffffffffff16815260200190815260200160002060006101000a81548160ff021916908315150217905550620006af6200072560201b60201c565b73ffffffffffffffffffffffffffffffffffffffff16600073ffffffffffffffffffffffffffffffffffffffff167fddf252ad1be2c89b69c2b068fc378daa952ba7f163c4a11628f55a4df523b3ef670de0b6b3a76400006040516200071691906200091c565b60405180910390a35062000939565b600033905090565b60008060009054906101000a900473ffffffffffffffffffffffffffffffffffffffff16905090565b6000819050919050565b7f4e487b7100000000000000000000000000000000000000000000000000000000600052601260045260246000fd5b60006200079c8262000756565b9150620007a98362000756565b925082620007bc57620007bb62000760565b5b828206905092915050565b7f4e487b7100000000000000000000000000000000000000000000000000000000600052601160045260246000fd5b6000620008038262000756565b9150620008108362000756565b925082821015620008265762000825620007c7565b5b828203905092915050565b600080fd5b600073ffffffffffffffffffffffffffffffffffffffff82169050919050565b6000620008638262000836565b9050919050565b620008758162000856565b81146200088157600080fd5b50565b60008151905062000895816200086a565b92915050565b600060208284031215620008b457620008b362000831565b5b6000620008c48482850162000884565b91505092915050565b620008d88162000856565b82525050565b6000604082019050620008f56000830185620008cd565b620009046020830184620008cd565b9392505050565b620009168162000756565b82525050565b60006020820190506200093360008301846200090b565b92915050565b6139a880620009496000396000f3fe6080604052600436106101445760003560e01c8063758dbe03116100b6578063c3c8cd801161006f578063c3c8cd8014610443578063c492f0461461045a578063c5cc6b6a14610483578063dd62ed3e146104ae578063e293d316146104eb578063f2fde38b146105145761014b565b8063758dbe03146103355780638da5cb5b1461035e57806395d89b4114610389578063a2a957bb146103b4578063a9059cbb146103dd578063aad5c0231461041a5761014b565b8063313ce56711610108578063313ce5671461024b57806349bd5a5e146102765780636d8aa8f8146102a15780636fc3eaec146102ca57806370a08231146102e1578063715018a61461031e5761014b565b806306fdde0314610150578063095ea7b31461017b5780631694505e146101b857806318160ddd146101e357806323b872dd1461020e5761014b565b3661014b57005b600080fd5b34801561015c57600080fd5b5061016561053d565b6040516101729190612a2c565b60405180910390f35b34801561018757600080fd5b506101a2600480360381019061019d9190612aec565b61057a565b6040516101af9190612b47565b60405180910390f35b3480156101c457600080fd5b506101cd610598565b6040516101da9190612bc1565b60405180910390f35b3480156101ef57600080fd5b506101f86105be565b6040516102059190612beb565b60405180910390f35b34801561021a57600080fd5b5061023560048036038101906102309190612c06565b6105ce565b6040516102429190612b47565b60405180910390f35b34801561025757600080fd5b506102606106a7565b60405161026d9190612c75565b60405180910390f35b34801561028257600080fd5b5061028b6106b0565b6040516102989190612c9f565b60405180910390f35b3480156102ad57600080fd5b506102c860048036038101906102c39190612ce6565b6106d6565b005b3480156102d657600080fd5b506102df6107ce565b005b3480156102ed57600080fd5b5061030860048036038101906103039190612d13565b6108e3565b6040516103159190612beb565b60405180910390f35b34801561032a57600080fd5b50610333610934565b005b34801561034157600080fd5b5061035c60048036038101906103579190612d7e565b610a87565b005b34801561036a57600080fd5b50610373610c9c565b6040516103809190612c9f565b60405180910390f35b34801561039557600080fd5b5061039e610cc5565b6040516103ab9190612a2c565b60405180910390f35b3480156103c057600080fd5b506103db60048036038101906103d69190612dab565b610d02565b005b3480156103e957600080fd5b5061040460048036038101906103ff9190612aec565b610f0b565b6040516104119190612b47565b60405180910390f35b34801561042657600080fd5b50610441600480360381019061043c9190612d7e565b610f29565b005b34801561044f57600080fd5b5061045861113e565b005b34801561046657600080fd5b50610481600480360381019061047c9190612e77565b61125b565b005b34801561048f57600080fd5b50610498611395565b6040516104a59190612c9f565b60405180910390f35b3480156104ba57600080fd5b506104d560048036038101906104d09190612ed7565b6113bb565b6040516104e29190612beb565b60405180910390f35b3480156104f757600080fd5b50610512600480360381019061050d9190612c06565b611442565b005b34801561052057600080fd5b5061053b60048036038101906105369190612d13565b611606565b005b60606040518060400160405280600a81526020017f576f726c64205374657000000000000000000000000000000000000000000000815250905090565b600061058e610587611758565b8484611760565b6001905092915050565b601060009054906101000a900473ffffffffffffffffffffffffffffffffffffffff1681565b6000670de0b6b3a7640000905090565b60006105db848484611929565b61069c846105e7611758565b6106978560405180606001604052806028815260200161394b60289139600460008b73ffffffffffffffffffffffffffffffffffffffff1673ffffffffffffffffffffffffffffffffffffffff168152602001908152602001600020600061064d611758565b73ffffffffffffffffffffffffffffffffffffffff1673ffffffffffffffffffffffffffffffffffffffff16815260200190815260200160002054611e9b9092919063ffffffff16565b611760565b600190509392505050565b60006009905090565b601160009054906101000a900473ffffffffffffffffffffffffffffffffffffffff1681565b6106de611758565b73ffffffffffffffffffffffffffffffffffffffff166106fc610c9c565b73ffffffffffffffffffffffffffffffffffffffff1614806107725750610721611758565b73ffffffffffffffffffffffffffffffffffffffff16600e60009054906101000a900473ffffffffffffffffffffffffffffffffffffffff1673ffffffffffffffffffffffffffffffffffffffff16145b6107b1576040517f08c379a00000000000000000000000000000000000000000000000000000000081526004016107a890612f63565b60405180910390fd5b80601260156101000a81548160ff02191690831515021790555050565b600e60009054906101000a900473ffffffffffffffffffffffffffffffffffffffff1673ffffffffffffffffffffffffffffffffffffffff1661080f611758565b73ffffffffffffffffffffffffffffffffffffffff1614806108855750600f60009054906101000a900473ffffffffffffffffffffffffffffffffffffffff1673ffffffffffffffffffffffffffffffffffffffff1661086d611758565b73ffffffffffffffffffffffffffffffffffffffff16145b806108c95750610893610c9c565b73ffffffffffffffffffffffffffffffffffffffff166108b1611758565b73ffffffffffffffffffffffffffffffffffffffff16145b6108d257600080fd5b60004790506108e081611eff565b50565b600061092d600260008473ffffffffffffffffffffffffffffffffffffffff1673ffffffffffffffffffffffffffffffffffffffff16815260200190815260200160002054611ffa565b9050919050565b61093c611758565b73ffffffffffffffffffffffffffffffffffffffff1660008054906101000a900473ffffffffffffffffffffffffffffffffffffffff1673ffffffffffffffffffffffffffffffffffffffff16146109c9576040517f08c379a00000000000000000000000000000000000000000000000000000000081526004016109c090612fcf565b60405180910390fd5b600073ffffffffffffffffffffffffffffffffffffffff1660008054906101000a900473ffffffffffffffffffffffffffffffffffffffff1673ffffffffffffffffffffffffffffffffffffffff167f8be0079c531659141344cd1fd0a4f28419497f9722a3daafe3b4186f6b6457e060405160405180910390a360008060006101000a81548173ffffffffffffffffffffffffffffffffffffffff021916908373ffffffffffffffffffffffffffffffffffffffff160217905550565b610a8f611758565b73ffffffffffffffffffffffffffffffffffffffff16610aad610c9c565b73ffffffffffffffffffffffffffffffffffffffff161480610b235750610ad2611758565b73ffffffffffffffffffffffffffffffffffffffff16600e60009054906101000a900473ffffffffffffffffffffffffffffffffffffffff1673ffffffffffffffffffffffffffffffffffffffff16145b610b62576040517f08c379a0000000000000000000000000000000000000000000000000000000008152600401610b5990612f63565b60405180910390fd5b8073ffffffffffffffffffffffffffffffffffffffff16600f60009054906101000a900473ffffffffffffffffffffffffffffffffffffffff1673ffffffffffffffffffffffffffffffffffffffff167fa64373a629bc0c09eacf8a9cc2c7b070fa0a8b7e2e9b8aaee408a3c02eb1676b60405160405180910390a380600f60006101000a81548173ffffffffffffffffffffffffffffffffffffffff021916908373ffffffffffffffffffffffffffffffffffffffff160217905550600160056000600f60009054906101000a900473ffffffffffffffffffffffffffffffffffffffff1673ffffffffffffffffffffffffffffffffffffffff1673ffffffffffffffffffffffffffffffffffffffff16815260200190815260200160002060006101000a81548160ff02191690831515021790555050565b60008060009054906101000a900473ffffffffffffffffffffffffffffffffffffffff16905090565b60606040518060400160405280600381526020017f5753500000000000000000000000000000000000000000000000000000000000815250905090565b610d0a611758565b73ffffffffffffffffffffffffffffffffffffffff16610d28610c9c565b73ffffffffffffffffffffffffffffffffffffffff161480610d9e5750610d4d611758565b73ffffffffffffffffffffffffffffffffffffffff16600e60009054906101000a900473ffffffffffffffffffffffffffffffffffffffff1673ffffffffffffffffffffffffffffffffffffffff16145b610ddd576040517f08c379a0000000000000000000000000000000000000000000000000000000008152600401610dd490612f63565b60405180910390fd5b600b8410610e20576040517f08c379a0000000000000000000000000000000000000000000000000000000008152600401610e179061303b565b60405180910390fd5b600b8310610e63576040517f08c379a0000000000000000000000000000000000000000000000000000000008152600401610e5a9061303b565b60405180910390fd5b60078210610ea6576040517f08c379a0000000000000000000000000000000000000000000000000000000008152600401610e9d906130a7565b60405180910390fd5b60078110610ee9576040517f08c379a0000000000000000000000000000000000000000000000000000000008152600401610ee0906130a7565b60405180910390fd5b8360088190555082600a819055508160098190555080600b8190555050505050565b6000610f1f610f18611758565b8484611929565b6001905092915050565b610f31611758565b73ffffffffffffffffffffffffffffffffffffffff16610f4f610c9c565b73ffffffffffffffffffffffffffffffffffffffff161480610fc55750610f74611758565b73ffffffffffffffffffffffffffffffffffffffff16600e60009054906101000a900473ffffffffffffffffffffffffffffffffffffffff1673ffffffffffffffffffffffffffffffffffffffff16145b611004576040517f08c379a0000000000000000000000000000000000000000000000000000000008152600401610ffb90612f63565b60405180910390fd5b8073ffffffffffffffffffffffffffffffffffffffff16600e60009054906101000a900473ffffffffffffffffffffffffffffffffffffffff1673ffffffffffffffffffffffffffffffffffffffff167ffbbc329437e8c79f847e170730ad6dd04106b7511cad70d06d635886d92de83c60405160405180910390a380600e60006101000a81548173ffffffffffffffffffffffffffffffffffffffff021916908373ffffffffffffffffffffffffffffffffffffffff160217905550600160056000600e60009054906101000a900473ffffffffffffffffffffffffffffffffffffffff1673ffffffffffffffffffffffffffffffffffffffff1673ffffffffffffffffffffffffffffffffffffffff16815260200190815260200160002060006101000a81548160ff02191690831515021790555050565b600e60009054906101000a900473ffffffffffffffffffffffffffffffffffffffff1673ffffffffffffffffffffffffffffffffffffffff1661117f611758565b73ffffffffffffffffffffffffffffffffffffffff1614806111f55750600f60009054906101000a900473ffffffffffffffffffffffffffffffffffffffff1673ffffffffffffffffffffffffffffffffffffffff166111dd611758565b73ffffffffffffffffffffffffffffffffffffffff16145b806112395750611203610c9c565b73ffffffffffffffffffffffffffffffffffffffff16611221611758565b73ffffffffffffffffffffffffffffffffffffffff16145b61124257600080fd5b600061124d306108e3565b905061125881612068565b50565b611263611758565b73ffffffffffffffffffffffffffffffffffffffff1660008054906101000a900473ffffffffffffffffffffffffffffffffffffffff1673ffffffffffffffffffffffffffffffffffffffff16146112f0576040517f08c379a00000000000000000000000000000000000000000000000000000000081526004016112e790612fcf565b60405180910390fd5b60005b8383905081101561138f578160056000868685818110611316576113156130c7565b5b905060200201602081019061132b9190612d13565b73ffffffffffffffffffffffffffffffffffffffff1673ffffffffffffffffffffffffffffffffffffffff16815260200190815260200160002060006101000a81548160ff021916908315150217905550808061138790613125565b9150506112f3565b50505050565b601260009054906101000a900473ffffffffffffffffffffffffffffffffffffffff1681565b6000600460008473ffffffffffffffffffffffffffffffffffffffff1673ffffffffffffffffffffffffffffffffffffffff16815260200190815260200160002060008373ffffffffffffffffffffffffffffffffffffffff1673ffffffffffffffffffffffffffffffffffffffff16815260200190815260200160002054905092915050565b61144a611758565b73ffffffffffffffffffffffffffffffffffffffff16611468610c9c565b73ffffffffffffffffffffffffffffffffffffffff1614806114de575061148d611758565b73ffffffffffffffffffffffffffffffffffffffff16600e60009054906101000a900473ffffffffffffffffffffffffffffffffffffffff1673ffffffffffffffffffffffffffffffffffffffff16145b61151d576040517f08c379a000000000000000000000000000000000000000000000000000000000815260040161151490612f63565b60405180910390fd5b8173ffffffffffffffffffffffffffffffffffffffff168373ffffffffffffffffffffffffffffffffffffffff167f47c33aa230eb5fd181505aa7befeaddd9b8a6f983989cea73a7868448c3a9ed98360405161157a9190612beb565b60405180910390a38273ffffffffffffffffffffffffffffffffffffffff1663a9059cbb83836040518363ffffffff1660e01b81526004016115bd92919061316d565b6020604051808303816000875af11580156115dc573d6000803e3d6000fd5b505050506040513d601f19601f8201168201806040525081019061160091906131ab565b50505050565b61160e611758565b73ffffffffffffffffffffffffffffffffffffffff1660008054906101000a900473ffffffffffffffffffffffffffffffffffffffff1673ffffffffffffffffffffffffffffffffffffffff161461169b576040517f08c379a000000000000000000000000000000000000000000000000000000000815260040161169290612fcf565b60405180910390fd5b8073ffffffffffffffffffffffffffffffffffffffff1660008054906101000a900473ffffffffffffffffffffffffffffffffffffffff1673ffffffffffffffffffffffffffffffffffffffff167f8be0079c531659141344cd1fd0a4f28419497f9722a3daafe3b4186f6b6457e060405160405180910390a3806000806101000a81548173ffffffffffffffffffffffffffffffffffffffff021916908373ffffffffffffffffffffffffffffffffffffffff16021790555050565b600033905090565b600073ffffffffffffffffffffffffffffffffffffffff168373ffffffffffffffffffffffffffffffffffffffff16036117cf576040517f08c379a00000000000000000000000000000000000000000000000000000000081526004016117c69061324a565b60405180910390fd5b600073ffffffffffffffffffffffffffffffffffffffff168273ffffffffffffffffffffffffffffffffffffffff160361183e576040517f08c379a0000000000000000000000000000000000000000000000000000000008152600401611835906132dc565b60405180910390fd5b80600460008573ffffffffffffffffffffffffffffffffffffffff1673ffffffffffffffffffffffffffffffffffffffff16815260200190815260200160002060008473ffffffffffffffffffffffffffffffffffffffff1673ffffffffffffffffffffffffffffffffffffffff168152602001908152602001600020819055508173ffffffffffffffffffffffffffffffffffffffff168373ffffffffffffffffffffffffffffffffffffffff167f8c5be1e5ebec7d5bd14f71427d1e84f3dd0314c0f7b2291e5b200ac8c7c3b9258360405161191c9190612beb565b60405180910390a3505050565b600073ffffffffffffffffffffffffffffffffffffffff168373ffffffffffffffffffffffffffffffffffffffff1603611998576040517f08c379a000000000000000000000000000000000000000000000000000000000815260040161198f9061336e565b60405180910390fd5b600073ffffffffffffffffffffffffffffffffffffffff168273ffffffffffffffffffffffffffffffffffffffff1603611a07576040517f08c379a00000000000000000000000000000000000000000000000000000000081526004016119fe90613400565b60405180910390fd5b60008111611a4a576040517f08c379a0000000000000000000000000000000000000000000000000000000008152600401611a4190613492565b60405180910390fd5b6000600c819055506000600d81905550611a62610c9c565b73ffffffffffffffffffffffffffffffffffffffff168373ffffffffffffffffffffffffffffffffffffffff1614158015611ad05750611aa0610c9c565b73ffffffffffffffffffffffffffffffffffffffff168273ffffffffffffffffffffffffffffffffffffffff1614155b15611e8b576000611ae0306108e3565b9050601260149054906101000a900460ff16158015611b4d5750601160009054906101000a900473ffffffffffffffffffffffffffffffffffffffff1673ffffffffffffffffffffffffffffffffffffffff168473ffffffffffffffffffffffffffffffffffffffff1614155b8015611b655750601260159054906101000a900460ff165b8015611b715750600081115b15611b9957611b7f81612068565b60004790506000811115611b9757611b9647611eff565b5b505b601160009054906101000a900473ffffffffffffffffffffffffffffffffffffffff1673ffffffffffffffffffffffffffffffffffffffff168473ffffffffffffffffffffffffffffffffffffffff16148015611c445750601060009054906101000a900473ffffffffffffffffffffffffffffffffffffffff1673ffffffffffffffffffffffffffffffffffffffff168373ffffffffffffffffffffffffffffffffffffffff1614155b15611c5c57600854600c81905550600954600d819055505b601160009054906101000a900473ffffffffffffffffffffffffffffffffffffffff1673ffffffffffffffffffffffffffffffffffffffff168373ffffffffffffffffffffffffffffffffffffffff16148015611d075750601060009054906101000a900473ffffffffffffffffffffffffffffffffffffffff1673ffffffffffffffffffffffffffffffffffffffff168473ffffffffffffffffffffffffffffffffffffffff1614155b15611d1f57600a54600c81905550600b54600d819055505b600560008573ffffffffffffffffffffffffffffffffffffffff1673ffffffffffffffffffffffffffffffffffffffff16815260200190815260200160002060009054906101000a900460ff1680611dc05750600560008473ffffffffffffffffffffffffffffffffffffffff1673ffffffffffffffffffffffffffffffffffffffff16815260200190815260200160002060009054906101000a900460ff165b80611e735750601160009054906101000a900473ffffffffffffffffffffffffffffffffffffffff1673ffffffffffffffffffffffffffffffffffffffff168473ffffffffffffffffffffffffffffffffffffffff1614158015611e725750601160009054906101000a900473ffffffffffffffffffffffffffffffffffffffff1673ffffffffffffffffffffffffffffffffffffffff168373ffffffffffffffffffffffffffffffffffffffff1614155b5b15611e89576000600c819055506000600d819055505b505b611e968383836122e1565b505050565b6000838311158290611ee3576040517f08c379a0000000000000000000000000000000000000000000000000000000008152600401611eda9190612a2c565b60405180910390fd5b5060008385611ef291906134b2565b9050809150509392505050565b600e60009054906101000a900473ffffffffffffffffffffffffffffffffffffffff1673ffffffffffffffffffffffffffffffffffffffff166108fc611f4f6002846122f190919063ffffffff16565b9081150290604051600060405180830381858888f19350505050158015611f7a573d6000803e3d6000fd5b50600f60009054906101000a900473ffffffffffffffffffffffffffffffffffffffff1673ffffffffffffffffffffffffffffffffffffffff166108fc611fcb6002846122f190919063ffffffff16565b9081150290604051600060405180830381858888f19350505050158015611ff6573d6000803e3d6000fd5b5050565b6000600654821115612041576040517f08c379a000000000000000000000000000000000000000000000000000000000815260040161203890613558565b60405180910390fd5b600061204b61233b565b905061206081846122f190919063ffffffff16565b915050919050565b6001601260146101000a81548160ff0219169083151502179055506000600267ffffffffffffffff8111156120a05761209f613578565b5b6040519080825280602002602001820160405280156120ce5781602001602082028036833780820191505090505b50905030816000815181106120e6576120e56130c7565b5b602002602001019073ffffffffffffffffffffffffffffffffffffffff16908173ffffffffffffffffffffffffffffffffffffffff1681525050601060009054906101000a900473ffffffffffffffffffffffffffffffffffffffff1673ffffffffffffffffffffffffffffffffffffffff1663ad5c46486040518163ffffffff1660e01b8152600401602060405180830381865afa15801561218d573d6000803e3d6000fd5b505050506040513d601f19601f820116820180604052508101906121b191906135bc565b816001815181106121c5576121c46130c7565b5b602002602001019073ffffffffffffffffffffffffffffffffffffffff16908173ffffffffffffffffffffffffffffffffffffffff168152505061222c30601060009054906101000a900473ffffffffffffffffffffffffffffffffffffffff1684611760565b601060009054906101000a900473ffffffffffffffffffffffffffffffffffffffff1673ffffffffffffffffffffffffffffffffffffffff1663791ac9478360008430426040518663ffffffff1660e01b81526004016122909594939291906136e2565b600060405180830381600087803b1580156122aa57600080fd5b505af11580156122be573d6000803e3d6000fd5b50505050506000601260146101000a81548160ff02191690831515021790555050565b6122ec838383612366565b505050565b600061233383836040518060400160405280601a81526020017f536166654d6174683a206469766973696f6e206279207a65726f000000000000815250612531565b905092915050565b6000806000612348612594565b9150915061235f81836122f190919063ffffffff16565b9250505090565b600080600080600080612378876125f3565b9550955095509550955095506123d686600260008c73ffffffffffffffffffffffffffffffffffffffff1673ffffffffffffffffffffffffffffffffffffffff1681526020019081526020016000205461265b90919063ffffffff16565b600260008b73ffffffffffffffffffffffffffffffffffffffff1673ffffffffffffffffffffffffffffffffffffffff1681526020019081526020016000208190555061246b85600260008b73ffffffffffffffffffffffffffffffffffffffff1673ffffffffffffffffffffffffffffffffffffffff168152602001908152602001600020546126a590919063ffffffff16565b600260008a73ffffffffffffffffffffffffffffffffffffffff1673ffffffffffffffffffffffffffffffffffffffff168152602001908152602001600020819055506124b781612703565b6124c184836127c0565b8773ffffffffffffffffffffffffffffffffffffffff168973ffffffffffffffffffffffffffffffffffffffff167fddf252ad1be2c89b69c2b068fc378daa952ba7f163c4a11628f55a4df523b3ef8560405161251e9190612beb565b60405180910390a3505050505050505050565b60008083118290612578576040517f08c379a000000000000000000000000000000000000000000000000000000000815260040161256f9190612a2c565b60405180910390fd5b5060008385612587919061376b565b9050809150509392505050565b600080600060065490506000670de0b6b3a764000090506125c8670de0b6b3a76400006006546122f190919063ffffffff16565b8210156125e657600654670de0b6b3a76400009350935050506125ef565b81819350935050505b9091565b60008060008060008060008060006126108a600c54600d546127fa565b925092509250600061262061233b565b905060008060006126338e878787612890565b9250925092508282828989899c509c509c509c509c509c505050505050505091939550919395565b600061269d83836040518060400160405280601e81526020017f536166654d6174683a207375627472616374696f6e206f766572666c6f770000815250611e9b565b905092915050565b60008082846126b4919061379c565b9050838110156126f9576040517f08c379a00000000000000000000000000000000000000000000000000000000081526004016126f09061383e565b60405180910390fd5b8091505092915050565b600061270d61233b565b90506000612724828461291990919063ffffffff16565b905061277881600260003073ffffffffffffffffffffffffffffffffffffffff1673ffffffffffffffffffffffffffffffffffffffff168152602001908152602001600020546126a590919063ffffffff16565b600260003073ffffffffffffffffffffffffffffffffffffffff1673ffffffffffffffffffffffffffffffffffffffff16815260200190815260200160002081905550505050565b6127d58260065461265b90919063ffffffff16565b6006819055506127f0816007546126a590919063ffffffff16565b6007819055505050565b6000806000806128266064612818888a61291990919063ffffffff16565b6122f190919063ffffffff16565b905060006128506064612842888b61291990919063ffffffff16565b6122f190919063ffffffff16565b905060006128798261286b858c61265b90919063ffffffff16565b61265b90919063ffffffff16565b905080838395509550955050505093509350939050565b6000806000806128a9858961291990919063ffffffff16565b905060006128c0868961291990919063ffffffff16565b905060006128d7878961291990919063ffffffff16565b90506000612900826128f2858761265b90919063ffffffff16565b61265b90919063ffffffff16565b9050838184965096509650505050509450945094915050565b600080830361292b576000905061298d565b60008284612939919061385e565b9050828482612948919061376b565b14612988576040517f08c379a000000000000000000000000000000000000000000000000000000000815260040161297f9061392a565b60405180910390fd5b809150505b92915050565b600081519050919050565b600082825260208201905092915050565b60005b838110156129cd5780820151818401526020810190506129b2565b838111156129dc576000848401525b50505050565b6000601f19601f8301169050919050565b60006129fe82612993565b612a08818561299e565b9350612a188185602086016129af565b612a21816129e2565b840191505092915050565b60006020820190508181036000830152612a4681846129f3565b905092915050565b600080fd5b600080fd5b600073ffffffffffffffffffffffffffffffffffffffff82169050919050565b6000612a8382612a58565b9050919050565b612a9381612a78565b8114612a9e57600080fd5b50565b600081359050612ab081612a8a565b92915050565b6000819050919050565b612ac981612ab6565b8114612ad457600080fd5b50565b600081359050612ae681612ac0565b92915050565b60008060408385031215612b0357612b02612a4e565b5b6000612b1185828601612aa1565b9250506020612b2285828601612ad7565b9150509250929050565b60008115159050919050565b612b4181612b2c565b82525050565b6000602082019050612b5c6000830184612b38565b92915050565b6000819050919050565b6000612b87612b82612b7d84612a58565b612b62565b612a58565b9050919050565b6000612b9982612b6c565b9050919050565b6000612bab82612b8e565b9050919050565b612bbb81612ba0565b82525050565b6000602082019050612bd66000830184612bb2565b92915050565b612be581612ab6565b82525050565b6000602082019050612c006000830184612bdc565b92915050565b600080600060608486031215612c1f57612c1e612a4e565b5b6000612c2d86828701612aa1565b9350506020612c3e86828701612aa1565b9250506040612c4f86828701612ad7565b9150509250925092565b600060ff82169050919050565b612c6f81612c59565b82525050565b6000602082019050612c8a6000830184612c66565b92915050565b612c9981612a78565b82525050565b6000602082019050612cb46000830184612c90565b92915050565b612cc381612b2c565b8114612cce57600080fd5b50565b600081359050612ce081612cba565b92915050565b600060208284031215612cfc57612cfb612a4e565b5b6000612d0a84828501612cd1565b91505092915050565b600060208284031215612d2957612d28612a4e565b5b6000612d3784828501612aa1565b91505092915050565b6000612d4b82612a58565b9050919050565b612d5b81612d40565b8114612d6657600080fd5b50565b600081359050612d7881612d52565b92915050565b600060208284031215612d9457612d93612a4e565b5b6000612da284828501612d69565b91505092915050565b60008060008060808587031215612dc557612dc4612a4e565b5b6000612dd387828801612ad7565b9450506020612de487828801612ad7565b9350506040612df587828801612ad7565b9250506060612e0687828801612ad7565b91505092959194509250565b600080fd5b600080fd5b600080fd5b60008083601f840112612e3757612e36612e12565b5b8235905067ffffffffffffffff811115612e5457612e53612e17565b5b602083019150836020820283011115612e7057612e6f612e1c565b5b9250929050565b600080600060408486031215612e9057612e8f612a4e565b5b600084013567ffffffffffffffff811115612eae57612ead612a53565b5b612eba86828701612e21565b93509350506020612ecd86828701612cd1565b9150509250925092565b60008060408385031215612eee57612eed612a4e565b5b6000612efc85828601612aa1565b9250506020612f0d85828601612aa1565b9150509250929050565b7f43616c6c6572206973206e6f7420746865206465760000000000000000000000600082015250565b6000612f4d60158361299e565b9150612f5882612f17565b602082019050919050565b60006020820190508181036000830152612f7c81612f40565b9050919050565b7f43616c6c6572206973206e6f7420746865206f776e6572000000000000000000600082015250565b6000612fb960178361299e565b9150612fc482612f83565b602082019050919050565b60006020820190508181036000830152612fe881612fac565b9050919050565b7f52656469732063616e6e6f74206265206d6f7265207468616e2031302e000000600082015250565b6000613025601d8361299e565b915061303082612fef565b602082019050919050565b6000602082019050818103600083015261305481613018565b9050919050565b7f5461782063616e6e6f74206265206d6f7265207468616e20362e000000000000600082015250565b6000613091601a8361299e565b915061309c8261305b565b602082019050919050565b600060208201905081810360008301526130c081613084565b9050919050565b7f4e487b7100000000000000000000000000000000000000000000000000000000600052603260045260246000fd5b7f4e487b7100000000000000000000000000000000000000000000000000000000600052601160045260246000fd5b600061313082612ab6565b91507fffffffffffffffffffffffffffffffffffffffffffffffffffffffffffffffff8203613162576131616130f6565b5b600182019050919050565b60006040820190506131826000830185612c90565b61318f6020830184612bdc565b9392505050565b6000815190506131a581612cba565b92915050565b6000602082840312156131c1576131c0612a4e565b5b60006131cf84828501613196565b91505092915050565b7f45524332303a20617070726f76652066726f6d20746865207a65726f2061646460008201527f7265737300000000000000000000000000000000000000000000000000000000602082015250565b600061323460248361299e565b915061323f826131d8565b604082019050919050565b6000602082019050818103600083015261326381613227565b9050919050565b7f45524332303a20617070726f766520746f20746865207a65726f20616464726560008201527f7373000000000000000000000000000000000000000000000000000000000000602082015250565b60006132c660228361299e565b91506132d18261326a565b604082019050919050565b600060208201905081810360008301526132f5816132b9565b9050919050565b7f45524332303a207472616e736665722066726f6d20746865207a65726f20616460008201527f6472657373000000000000000000000000000000000000000000000000000000602082015250565b600061335860258361299e565b9150613363826132fc565b604082019050919050565b600060208201905081810360008301526133878161334b565b9050919050565b7f45524332303a207472616e7366657220746f20746865207a65726f206164647260008201527f6573730000000000000000000000000000000000000000000000000000000000602082015250565b60006133ea60238361299e565b91506133f58261338e565b604082019050919050565b60006020820190508181036000830152613419816133dd565b9050919050565b7f5472616e7366657220616d6f756e74206d75737420626520677265617465722060008201527f7468616e207a65726f0000000000000000000000000000000000000000000000602082015250565b600061347c60298361299e565b915061348782613420565b604082019050919050565b600060208201905081810360008301526134ab8161346f565b9050919050565b60006134bd82612ab6565b91506134c883612ab6565b9250828210156134db576134da6130f6565b5b828203905092915050565b7f416d6f756e74206d757374206265206c657373207468616e20746f74616c207260008201527f65666c656374696f6e7300000000000000000000000000000000000000000000602082015250565b6000613542602a8361299e565b915061354d826134e6565b604082019050919050565b6000602082019050818103600083015261357181613535565b9050919050565b7f4e487b7100000000000000000000000000000000000000000000000000000000600052604160045260246000fd5b6000815190506135b681612a8a565b92915050565b6000602082840312156135d2576135d1612a4e565b5b60006135e0848285016135a7565b91505092915050565b6000819050919050565b600061360e613609613604846135e9565b612b62565b612ab6565b9050919050565b61361e816135f3565b82525050565b600081519050919050565b600082825260208201905092915050565b6000819050602082019050919050565b61365981612a78565b82525050565b600061366b8383613650565b60208301905092915050565b6000602082019050919050565b600061368f82613624565b613699818561362f565b93506136a483613640565b8060005b838110156136d55781516136bc888261365f565b97506136c783613677565b9250506001810190506136a8565b5085935050505092915050565b600060a0820190506136f76000830188612bdc565b6137046020830187613615565b81810360408301526137168186613684565b90506137256060830185612c90565b6137326080830184612bdc565b9695505050505050565b7f4e487b7100000000000000000000000000000000000000000000000000000000600052601260045260246000fd5b600061377682612ab6565b915061378183612ab6565b9250826137915761379061373c565b5b828204905092915050565b60006137a782612ab6565b91506137b283612ab6565b9250827fffffffffffffffffffffffffffffffffffffffffffffffffffffffffffffffff038211156137e7576137e66130f6565b5b828201905092915050565b7f536166654d6174683a206164646974696f6e206f766572666c6f770000000000600082015250565b6000613828601b8361299e565b9150613833826137f2565b602082019050919050565b600060208201905081810360008301526138578161381b565b9050919050565b600061386982612ab6565b915061387483612ab6565b9250817fffffffffffffffffffffffffffffffffffffffffffffffffffffffffffffffff04831182151516156138ad576138ac6130f6565b5b828202905092915050565b7f536166654d6174683a206d756c7469706c69636174696f6e206f766572666c6f60008201527f7700000000000000000000000000000000000000000000000000000000000000602082015250565b600061391460218361299e565b915061391f826138b8565b604082019050919050565b6000602082019050818103600083015261394381613907565b905091905056fe45524332303a207472616e7366657220616d6f756e74206578636565647320616c6c6f77616e6365a264697066735822122057779acb0cbabd159a3ffcc9e7829b65d91a59951ba00359322487965f7cdc0f64736f6c634300080d0033",
					"opcodes": "PUSH1 0x80 PUSH1 0x40 MSTORE PUSH8 0xDE0B6B3A7640000 PUSH5 0x14F46B0400 PUSH3 0x1F SWAP2 SWAP1 PUSH3 0x78F JUMP JUMPDEST PUSH5 0x14F46B0400 PUSH3 0x31 SWAP2 SWAP1 PUSH3 0x7F6 JUMP JUMPDEST PUSH1 0x6 SSTORE PUSH1 0x1 PUSH1 0x8 SSTORE PUSH1 0x4 PUSH1 0x9 SSTORE PUSH1 0x1 PUSH1 0xA SSTORE PUSH1 0x1 PUSH1 0xB SSTORE PUSH20 0x8492CBD894686D7E98214541903C7BA6F94928D6 PUSH1 0xE PUSH1 0x0 PUSH2 0x100 EXP DUP2 SLOAD DUP2 PUSH20 0xFFFFFFFFFFFFFFFFFFFFFFFFFFFFFFFFFFFFFFFF MUL NOT AND SWAP1 DUP4 PUSH20 0xFFFFFFFFFFFFFFFFFFFFFFFFFFFFFFFFFFFFFFFF AND MUL OR SWAP1 SSTORE POP PUSH20 0xA4ED7AA4EF5DEB0A63E97D9CB77445AE553FEB1D PUSH1 0xF PUSH1 0x0 PUSH2 0x100 EXP DUP2 SLOAD DUP2 PUSH20 0xFFFFFFFFFFFFFFFFFFFFFFFFFFFFFFFFFFFFFFFF MUL NOT AND SWAP1 DUP4 PUSH20 0xFFFFFFFFFFFFFFFFFFFFFFFFFFFFFFFFFFFFFFFF AND MUL OR SWAP1 SSTORE POP PUSH1 0x0 PUSH1 0x12 PUSH1 0x14 PUSH2 0x100 EXP DUP2 SLOAD DUP2 PUSH1 0xFF MUL NOT AND SWAP1 DUP4 ISZERO ISZERO MUL OR SWAP1 SSTORE POP PUSH1 0x1 PUSH1 0x12 PUSH1 0x15 PUSH2 0x100 EXP DUP2 SLOAD DUP2 PUSH1 0xFF MUL NOT AND SWAP1 DUP4 ISZERO ISZERO MUL OR SWAP1 SSTORE POP CALLVALUE DUP1 ISZERO PUSH3 0x135 JUMPI PUSH1 0x0 DUP1 REVERT JUMPDEST POP PUSH1 0x0 PUSH3 0x148 PUSH3 0x725 PUSH1 0x20 SHL PUSH1 0x20 SHR JUMP JUMPDEST SWAP1 POP DUP1 PUSH1 0x0 DUP1 PUSH2 0x100 EXP DUP2 SLOAD DUP2 PUSH20 0xFFFFFFFFFFFFFFFFFFFFFFFFFFFFFFFFFFFFFFFF MUL NOT AND SWAP1 DUP4 PUSH20 0xFFFFFFFFFFFFFFFFFFFFFFFFFFFFFFFFFFFFFFFF AND MUL OR SWAP1 SSTORE POP DUP1 PUSH20 0xFFFFFFFFFFFFFFFFFFFFFFFFFFFFFFFFFFFFFFFF AND PUSH1 0x0 PUSH20 0xFFFFFFFFFFFFFFFFFFFFFFFFFFFFFFFFFFFFFFFF AND PUSH32 0x8BE0079C531659141344CD1FD0A4F28419497F9722A3DAAFE3B4186F6B6457E0 PUSH1 0x40 MLOAD PUSH1 0x40 MLOAD DUP1 SWAP2 SUB SWAP1 LOG3 POP PUSH1 0x6 SLOAD PUSH1 0x2 PUSH1 0x0 PUSH3 0x1FD PUSH3 0x725 PUSH1 0x20 SHL PUSH1 0x20 SHR JUMP JUMPDEST PUSH20 0xFFFFFFFFFFFFFFFFFFFFFFFFFFFFFFFFFFFFFFFF AND PUSH20 0xFFFFFFFFFFFFFFFFFFFFFFFFFFFFFFFFFFFFFFFF AND DUP2 MSTORE PUSH1 0x20 ADD SWAP1 DUP2 MSTORE PUSH1 0x20 ADD PUSH1 0x0 KECCAK256 DUP2 SWAP1 SSTORE POP PUSH1 0x0 PUSH20 0x10ED43C718714EB63D5AA57B78B54704E256024E SWAP1 POP DUP1 PUSH1 0x10 PUSH1 0x0 PUSH2 0x100 EXP DUP2 SLOAD DUP2 PUSH20 0xFFFFFFFFFFFFFFFFFFFFFFFFFFFFFFFFFFFFFFFF MUL NOT AND SWAP1 DUP4 PUSH20 0xFFFFFFFFFFFFFFFFFFFFFFFFFFFFFFFFFFFFFFFF AND MUL OR SWAP1 SSTORE POP DUP1 PUSH20 0xFFFFFFFFFFFFFFFFFFFFFFFFFFFFFFFFFFFFFFFF AND PUSH4 0xC45A0155 PUSH1 0x40 MLOAD DUP2 PUSH4 0xFFFFFFFF AND PUSH1 0xE0 SHL DUP2 MSTORE PUSH1 0x4 ADD PUSH1 0x20 PUSH1 0x40 MLOAD DUP1 DUP4 SUB DUP2 DUP7 GAS STATICCALL ISZERO DUP1 ISZERO PUSH3 0x2E1 JUMPI RETURNDATASIZE PUSH1 0x0 DUP1 RETURNDATACOPY RETURNDATASIZE PUSH1 0x0 REVERT JUMPDEST POP POP POP POP PUSH1 0x40 MLOAD RETURNDATASIZE PUSH1 0x1F NOT PUSH1 0x1F DUP3 ADD AND DUP3 ADD DUP1 PUSH1 0x40 MSTORE POP DUP2 ADD SWAP1 PUSH3 0x307 SWAP2 SWAP1 PUSH3 0x89B JUMP JUMPDEST PUSH1 0x12 PUSH1 0x0 PUSH2 0x100 EXP DUP2 SLOAD DUP2 PUSH20 0xFFFFFFFFFFFFFFFFFFFFFFFFFFFFFFFFFFFFFFFF MUL NOT AND SWAP1 DUP4 PUSH20 0xFFFFFFFFFFFFFFFFFFFFFFFFFFFFFFFFFFFFFFFF AND MUL OR SWAP1 SSTORE POP DUP1 PUSH20 0xFFFFFFFFFFFFFFFFFFFFFFFFFFFFFFFFFFFFFFFF AND PUSH4 0xC45A0155 PUSH1 0x40 MLOAD DUP2 PUSH4 0xFFFFFFFF AND PUSH1 0xE0 SHL DUP2 MSTORE PUSH1 0x4 ADD PUSH1 0x20 PUSH1 0x40 MLOAD DUP1 DUP4 SUB DUP2 DUP7 GAS STATICCALL ISZERO DUP1 ISZERO PUSH3 0x393 JUMPI RETURNDATASIZE PUSH1 0x0 DUP1 RETURNDATACOPY RETURNDATASIZE PUSH1 0x0 REVERT JUMPDEST POP POP POP POP PUSH1 0x40 MLOAD RETURNDATASIZE PUSH1 0x1F NOT PUSH1 0x1F DUP3 ADD AND DUP3 ADD DUP1 PUSH1 0x40 MSTORE POP DUP2 ADD SWAP1 PUSH3 0x3B9 SWAP2 SWAP1 PUSH3 0x89B JUMP JUMPDEST PUSH20 0xFFFFFFFFFFFFFFFFFFFFFFFFFFFFFFFFFFFFFFFF AND PUSH4 0xC9C65396 ADDRESS DUP4 PUSH20 0xFFFFFFFFFFFFFFFFFFFFFFFFFFFFFFFFFFFFFFFF AND PUSH4 0xAD5C4648 PUSH1 0x40 MLOAD DUP2 PUSH4 0xFFFFFFFF AND PUSH1 0xE0 SHL DUP2 MSTORE PUSH1 0x4 ADD PUSH1 0x20 PUSH1 0x40 MLOAD DUP1 DUP4 SUB DUP2 DUP7 GAS STATICCALL ISZERO DUP1 ISZERO PUSH3 0x421 JUMPI RETURNDATASIZE PUSH1 0x0 DUP1 RETURNDATACOPY RETURNDATASIZE PUSH1 0x0 REVERT JUMPDEST POP POP POP POP PUSH1 0x40 MLOAD RETURNDATASIZE PUSH1 0x1F NOT PUSH1 0x1F DUP3 ADD AND DUP3 ADD DUP1 PUSH1 0x40 MSTORE POP DUP2 ADD SWAP1 PUSH3 0x447 SWAP2 SWAP1 PUSH3 0x89B JUMP JUMPDEST PUSH1 0x40 MLOAD DUP4 PUSH4 0xFFFFFFFF AND PUSH1 0xE0 SHL DUP2 MSTORE PUSH1 0x4 ADD PUSH3 0x466 SWAP3 SWAP2 SWAP1 PUSH3 0x8DE JUMP JUMPDEST PUSH1 0x20 PUSH1 0x40 MLOAD DUP1 DUP4 SUB DUP2 PUSH1 0x0 DUP8 GAS CALL ISZERO DUP1 ISZERO PUSH3 0x486 JUMPI RETURNDATASIZE PUSH1 0x0 DUP1 RETURNDATACOPY RETURNDATASIZE PUSH1 0x0 REVERT JUMPDEST POP POP POP POP PUSH1 0x40 MLOAD RETURNDATASIZE PUSH1 0x1F NOT PUSH1 0x1F DUP3 ADD AND DUP3 ADD DUP1 PUSH1 0x40 MSTORE POP DUP2 ADD SWAP1 PUSH3 0x4AC SWAP2 SWAP1 PUSH3 0x89B JUMP JUMPDEST PUSH1 0x11 PUSH1 0x0 PUSH2 0x100 EXP DUP2 SLOAD DUP2 PUSH20 0xFFFFFFFFFFFFFFFFFFFFFFFFFFFFFFFFFFFFFFFF MUL NOT AND SWAP1 DUP4 PUSH20 0xFFFFFFFFFFFFFFFFFFFFFFFFFFFFFFFFFFFFFFFF AND MUL OR SWAP1 SSTORE POP PUSH1 0x1 PUSH1 0x5 PUSH1 0x0 PUSH3 0x502 PUSH3 0x72D PUSH1 0x20 SHL PUSH1 0x20 SHR JUMP JUMPDEST PUSH20 0xFFFFFFFFFFFFFFFFFFFFFFFFFFFFFFFFFFFFFFFF AND PUSH20 0xFFFFFFFFFFFFFFFFFFFFFFFFFFFFFFFFFFFFFFFF AND DUP2 MSTORE PUSH1 0x20 ADD SWAP1 DUP2 MSTORE PUSH1 0x20 ADD PUSH1 0x0 KECCAK256 PUSH1 0x0 PUSH2 0x100 EXP DUP2 SLOAD DUP2 PUSH1 0xFF MUL NOT AND SWAP1 DUP4 ISZERO ISZERO MUL OR SWAP1 SSTORE POP PUSH1 0x1 PUSH1 0x5 PUSH1 0x0 ADDRESS PUSH20 0xFFFFFFFFFFFFFFFFFFFFFFFFFFFFFFFFFFFFFFFF AND PUSH20 0xFFFFFFFFFFFFFFFFFFFFFFFFFFFFFFFFFFFFFFFF AND DUP2 MSTORE PUSH1 0x20 ADD SWAP1 DUP2 MSTORE PUSH1 0x20 ADD PUSH1 0x0 KECCAK256 PUSH1 0x0 PUSH2 0x100 EXP DUP2 SLOAD DUP2 PUSH1 0xFF MUL NOT AND SWAP1 DUP4 ISZERO ISZERO MUL OR SWAP1 SSTORE POP PUSH1 0x1 PUSH1 0x5 PUSH1 0x0 PUSH1 0xE PUSH1 0x0 SWAP1 SLOAD SWAP1 PUSH2 0x100 EXP SWAP1 DIV PUSH20 0xFFFFFFFFFFFFFFFFFFFFFFFFFFFFFFFFFFFFFFFF AND PUSH20 0xFFFFFFFFFFFFFFFFFFFFFFFFFFFFFFFFFFFFFFFF AND PUSH20 0xFFFFFFFFFFFFFFFFFFFFFFFFFFFFFFFFFFFFFFFF AND DUP2 MSTORE PUSH1 0x20 ADD SWAP1 DUP2 MSTORE PUSH1 0x20 ADD PUSH1 0x0 KECCAK256 PUSH1 0x0 PUSH2 0x100 EXP DUP2 SLOAD DUP2 PUSH1 0xFF MUL NOT AND SWAP1 DUP4 ISZERO ISZERO MUL OR SWAP1 SSTORE POP PUSH1 0x1 PUSH1 0x5 PUSH1 0x0 PUSH1 0xF PUSH1 0x0 SWAP1 SLOAD SWAP1 PUSH2 0x100 EXP SWAP1 DIV PUSH20 0xFFFFFFFFFFFFFFFFFFFFFFFFFFFFFFFFFFFFFFFF AND PUSH20 0xFFFFFFFFFFFFFFFFFFFFFFFFFFFFFFFFFFFFFFFF AND PUSH20 0xFFFFFFFFFFFFFFFFFFFFFFFFFFFFFFFFFFFFFFFF AND DUP2 MSTORE PUSH1 0x20 ADD SWAP1 DUP2 MSTORE PUSH1 0x20 ADD PUSH1 0x0 KECCAK256 PUSH1 0x0 PUSH2 0x100 EXP DUP2 SLOAD DUP2 PUSH1 0xFF MUL NOT AND SWAP1 DUP4 ISZERO ISZERO MUL OR SWAP1 SSTORE POP PUSH3 0x6AF PUSH3 0x725 PUSH1 0x20 SHL PUSH1 0x20 SHR JUMP JUMPDEST PUSH20 0xFFFFFFFFFFFFFFFFFFFFFFFFFFFFFFFFFFFFFFFF AND PUSH1 0x0 PUSH20 0xFFFFFFFFFFFFFFFFFFFFFFFFFFFFFFFFFFFFFFFF AND PUSH32 0xDDF252AD1BE2C89B69C2B068FC378DAA952BA7F163C4A11628F55A4DF523B3EF PUSH8 0xDE0B6B3A7640000 PUSH1 0x40 MLOAD PUSH3 0x716 SWAP2 SWAP1 PUSH3 0x91C JUMP JUMPDEST PUSH1 0x40 MLOAD DUP1 SWAP2 SUB SWAP1 LOG3 POP PUSH3 0x939 JUMP JUMPDEST PUSH1 0x0 CALLER SWAP1 POP SWAP1 JUMP JUMPDEST PUSH1 0x0 DUP1 PUSH1 0x0 SWAP1 SLOAD SWAP1 PUSH2 0x100 EXP SWAP1 DIV PUSH20 0xFFFFFFFFFFFFFFFFFFFFFFFFFFFFFFFFFFFFFFFF AND SWAP1 POP SWAP1 JUMP JUMPDEST PUSH1 0x0 DUP2 SWAP1 POP SWAP2 SWAP1 POP JUMP JUMPDEST PUSH32 0x4E487B7100000000000000000000000000000000000000000000000000000000 PUSH1 0x0 MSTORE PUSH1 0x12 PUSH1 0x4 MSTORE PUSH1 0x24 PUSH1 0x0 REVERT JUMPDEST PUSH1 0x0 PUSH3 0x79C DUP3 PUSH3 0x756 JUMP JUMPDEST SWAP2 POP PUSH3 0x7A9 DUP4 PUSH3 0x756 JUMP JUMPDEST SWAP3 POP DUP3 PUSH3 0x7BC JUMPI PUSH3 0x7BB PUSH3 0x760 JUMP JUMPDEST JUMPDEST DUP3 DUP3 MOD SWAP1 POP SWAP3 SWAP2 POP POP JUMP JUMPDEST PUSH32 0x4E487B7100000000000000000000000000000000000000000000000000000000 PUSH1 0x0 MSTORE PUSH1 0x11 PUSH1 0x4 MSTORE PUSH1 0x24 PUSH1 0x0 REVERT JUMPDEST PUSH1 0x0 PUSH3 0x803 DUP3 PUSH3 0x756 JUMP JUMPDEST SWAP2 POP PUSH3 0x810 DUP4 PUSH3 0x756 JUMP JUMPDEST SWAP3 POP DUP3 DUP3 LT ISZERO PUSH3 0x826 JUMPI PUSH3 0x825 PUSH3 0x7C7 JUMP JUMPDEST JUMPDEST DUP3 DUP3 SUB SWAP1 POP SWAP3 SWAP2 POP POP JUMP JUMPDEST PUSH1 0x0 DUP1 REVERT JUMPDEST PUSH1 0x0 PUSH20 0xFFFFFFFFFFFFFFFFFFFFFFFFFFFFFFFFFFFFFFFF DUP3 AND SWAP1 POP SWAP2 SWAP1 POP JUMP JUMPDEST PUSH1 0x0 PUSH3 0x863 DUP3 PUSH3 0x836 JUMP JUMPDEST SWAP1 POP SWAP2 SWAP1 POP JUMP JUMPDEST PUSH3 0x875 DUP2 PUSH3 0x856 JUMP JUMPDEST DUP2 EQ PUSH3 0x881 JUMPI PUSH1 0x0 DUP1 REVERT JUMPDEST POP JUMP JUMPDEST PUSH1 0x0 DUP2 MLOAD SWAP1 POP PUSH3 0x895 DUP2 PUSH3 0x86A JUMP JUMPDEST SWAP3 SWAP2 POP POP JUMP JUMPDEST PUSH1 0x0 PUSH1 0x20 DUP3 DUP5 SUB SLT ISZERO PUSH3 0x8B4 JUMPI PUSH3 0x8B3 PUSH3 0x831 JUMP JUMPDEST JUMPDEST PUSH1 0x0 PUSH3 0x8C4 DUP5 DUP3 DUP6 ADD PUSH3 0x884 JUMP JUMPDEST SWAP2 POP POP SWAP3 SWAP2 POP POP JUMP JUMPDEST PUSH3 0x8D8 DUP2 PUSH3 0x856 JUMP JUMPDEST DUP3 MSTORE POP POP JUMP JUMPDEST PUSH1 0x0 PUSH1 0x40 DUP3 ADD SWAP1 POP PUSH3 0x8F5 PUSH1 0x0 DUP4 ADD DUP6 PUSH3 0x8CD JUMP JUMPDEST PUSH3 0x904 PUSH1 0x20 DUP4 ADD DUP5 PUSH3 0x8CD JUMP JUMPDEST SWAP4 SWAP3 POP POP POP JUMP JUMPDEST PUSH3 0x916 DUP2 PUSH3 0x756 JUMP JUMPDEST DUP3 MSTORE POP POP JUMP JUMPDEST PUSH1 0x0 PUSH1 0x20 DUP3 ADD SWAP1 POP PUSH3 0x933 PUSH1 0x0 DUP4 ADD DUP5 PUSH3 0x90B JUMP JUMPDEST SWAP3 SWAP2 POP POP JUMP JUMPDEST PUSH2 0x39A8 DUP1 PUSH3 0x949 PUSH1 0x0 CODECOPY PUSH1 0x0 RETURN INVALID PUSH1 0x80 PUSH1 0x40 MSTORE PUSH1 0x4 CALLDATASIZE LT PUSH2 0x144 JUMPI PUSH1 0x0 CALLDATALOAD PUSH1 0xE0 SHR DUP1 PUSH4 0x758DBE03 GT PUSH2 0xB6 JUMPI DUP1 PUSH4 0xC3C8CD80 GT PUSH2 0x6F JUMPI DUP1 PUSH4 0xC3C8CD80 EQ PUSH2 0x443 JUMPI DUP1 PUSH4 0xC492F046 EQ PUSH2 0x45A JUMPI DUP1 PUSH4 0xC5CC6B6A EQ PUSH2 0x483 JUMPI DUP1 PUSH4 0xDD62ED3E EQ PUSH2 0x4AE JUMPI DUP1 PUSH4 0xE293D316 EQ PUSH2 0x4EB JUMPI DUP1 PUSH4 0xF2FDE38B EQ PUSH2 0x514 JUMPI PUSH2 0x14B JUMP JUMPDEST DUP1 PUSH4 0x758DBE03 EQ PUSH2 0x335 JUMPI DUP1 PUSH4 0x8DA5CB5B EQ PUSH2 0x35E JUMPI DUP1 PUSH4 0x95D89B41 EQ PUSH2 0x389 JUMPI DUP1 PUSH4 0xA2A957BB EQ PUSH2 0x3B4 JUMPI DUP1 PUSH4 0xA9059CBB EQ PUSH2 0x3DD JUMPI DUP1 PUSH4 0xAAD5C023 EQ PUSH2 0x41A JUMPI PUSH2 0x14B JUMP JUMPDEST DUP1 PUSH4 0x313CE567 GT PUSH2 0x108 JUMPI DUP1 PUSH4 0x313CE567 EQ PUSH2 0x24B JUMPI DUP1 PUSH4 0x49BD5A5E EQ PUSH2 0x276 JUMPI DUP1 PUSH4 0x6D8AA8F8 EQ PUSH2 0x2A1 JUMPI DUP1 PUSH4 0x6FC3EAEC EQ PUSH2 0x2CA JUMPI DUP1 PUSH4 0x70A08231 EQ PUSH2 0x2E1 JUMPI DUP1 PUSH4 0x715018A6 EQ PUSH2 0x31E JUMPI PUSH2 0x14B JUMP JUMPDEST DUP1 PUSH4 0x6FDDE03 EQ PUSH2 0x150 JUMPI DUP1 PUSH4 0x95EA7B3 EQ PUSH2 0x17B JUMPI DUP1 PUSH4 0x1694505E EQ PUSH2 0x1B8 JUMPI DUP1 PUSH4 0x18160DDD EQ PUSH2 0x1E3 JUMPI DUP1 PUSH4 0x23B872DD EQ PUSH2 0x20E JUMPI PUSH2 0x14B JUMP JUMPDEST CALLDATASIZE PUSH2 0x14B JUMPI STOP JUMPDEST PUSH1 0x0 DUP1 REVERT JUMPDEST CALLVALUE DUP1 ISZERO PUSH2 0x15C JUMPI PUSH1 0x0 DUP1 REVERT JUMPDEST POP PUSH2 0x165 PUSH2 0x53D JUMP JUMPDEST PUSH1 0x40 MLOAD PUSH2 0x172 SWAP2 SWAP1 PUSH2 0x2A2C JUMP JUMPDEST PUSH1 0x40 MLOAD DUP1 SWAP2 SUB SWAP1 RETURN JUMPDEST CALLVALUE DUP1 ISZERO PUSH2 0x187 JUMPI PUSH1 0x0 DUP1 REVERT JUMPDEST POP PUSH2 0x1A2 PUSH1 0x4 DUP1 CALLDATASIZE SUB DUP2 ADD SWAP1 PUSH2 0x19D SWAP2 SWAP1 PUSH2 0x2AEC JUMP JUMPDEST PUSH2 0x57A JUMP JUMPDEST PUSH1 0x40 MLOAD PUSH2 0x1AF SWAP2 SWAP1 PUSH2 0x2B47 JUMP JUMPDEST PUSH1 0x40 MLOAD DUP1 SWAP2 SUB SWAP1 RETURN JUMPDEST CALLVALUE DUP1 ISZERO PUSH2 0x1C4 JUMPI PUSH1 0x0 DUP1 REVERT JUMPDEST POP PUSH2 0x1CD PUSH2 0x598 JUMP JUMPDEST PUSH1 0x40 MLOAD PUSH2 0x1DA SWAP2 SWAP1 PUSH2 0x2BC1 JUMP JUMPDEST PUSH1 0x40 MLOAD DUP1 SWAP2 SUB SWAP1 RETURN JUMPDEST CALLVALUE DUP1 ISZERO PUSH2 0x1EF JUMPI PUSH1 0x0 DUP1 REVERT JUMPDEST POP PUSH2 0x1F8 PUSH2 0x5BE JUMP JUMPDEST PUSH1 0x40 MLOAD PUSH2 0x205 SWAP2 SWAP1 PUSH2 0x2BEB JUMP JUMPDEST PUSH1 0x40 MLOAD DUP1 SWAP2 SUB SWAP1 RETURN JUMPDEST CALLVALUE DUP1 ISZERO PUSH2 0x21A JUMPI PUSH1 0x0 DUP1 REVERT JUMPDEST POP PUSH2 0x235 PUSH1 0x4 DUP1 CALLDATASIZE SUB DUP2 ADD SWAP1 PUSH2 0x230 SWAP2 SWAP1 PUSH2 0x2C06 JUMP JUMPDEST PUSH2 0x5CE JUMP JUMPDEST PUSH1 0x40 MLOAD PUSH2 0x242 SWAP2 SWAP1 PUSH2 0x2B47 JUMP JUMPDEST PUSH1 0x40 MLOAD DUP1 SWAP2 SUB SWAP1 RETURN JUMPDEST CALLVALUE DUP1 ISZERO PUSH2 0x257 JUMPI PUSH1 0x0 DUP1 REVERT JUMPDEST POP PUSH2 0x260 PUSH2 0x6A7 JUMP JUMPDEST PUSH1 0x40 MLOAD PUSH2 0x26D SWAP2 SWAP1 PUSH2 0x2C75 JUMP JUMPDEST PUSH1 0x40 MLOAD DUP1 SWAP2 SUB SWAP1 RETURN JUMPDEST CALLVALUE DUP1 ISZERO PUSH2 0x282 JUMPI PUSH1 0x0 DUP1 REVERT JUMPDEST POP PUSH2 0x28B PUSH2 0x6B0 JUMP JUMPDEST PUSH1 0x40 MLOAD PUSH2 0x298 SWAP2 SWAP1 PUSH2 0x2C9F JUMP JUMPDEST PUSH1 0x40 MLOAD DUP1 SWAP2 SUB SWAP1 RETURN JUMPDEST CALLVALUE DUP1 ISZERO PUSH2 0x2AD JUMPI PUSH1 0x0 DUP1 REVERT JUMPDEST POP PUSH2 0x2C8 PUSH1 0x4 DUP1 CALLDATASIZE SUB DUP2 ADD SWAP1 PUSH2 0x2C3 SWAP2 SWAP1 PUSH2 0x2CE6 JUMP JUMPDEST PUSH2 0x6D6 JUMP JUMPDEST STOP JUMPDEST CALLVALUE DUP1 ISZERO PUSH2 0x2D6 JUMPI PUSH1 0x0 DUP1 REVERT JUMPDEST POP PUSH2 0x2DF PUSH2 0x7CE JUMP JUMPDEST STOP JUMPDEST CALLVALUE DUP1 ISZERO PUSH2 0x2ED JUMPI PUSH1 0x0 DUP1 REVERT JUMPDEST POP PUSH2 0x308 PUSH1 0x4 DUP1 CALLDATASIZE SUB DUP2 ADD SWAP1 PUSH2 0x303 SWAP2 SWAP1 PUSH2 0x2D13 JUMP JUMPDEST PUSH2 0x8E3 JUMP JUMPDEST PUSH1 0x40 MLOAD PUSH2 0x315 SWAP2 SWAP1 PUSH2 0x2BEB JUMP JUMPDEST PUSH1 0x40 MLOAD DUP1 SWAP2 SUB SWAP1 RETURN JUMPDEST CALLVALUE DUP1 ISZERO PUSH2 0x32A JUMPI PUSH1 0x0 DUP1 REVERT JUMPDEST POP PUSH2 0x333 PUSH2 0x934 JUMP JUMPDEST STOP JUMPDEST CALLVALUE DUP1 ISZERO PUSH2 0x341 JUMPI PUSH1 0x0 DUP1 REVERT JUMPDEST POP PUSH2 0x35C PUSH1 0x4 DUP1 CALLDATASIZE SUB DUP2 ADD SWAP1 PUSH2 0x357 SWAP2 SWAP1 PUSH2 0x2D7E JUMP JUMPDEST PUSH2 0xA87 JUMP JUMPDEST STOP JUMPDEST CALLVALUE DUP1 ISZERO PUSH2 0x36A JUMPI PUSH1 0x0 DUP1 REVERT JUMPDEST POP PUSH2 0x373 PUSH2 0xC9C JUMP JUMPDEST PUSH1 0x40 MLOAD PUSH2 0x380 SWAP2 SWAP1 PUSH2 0x2C9F JUMP JUMPDEST PUSH1 0x40 MLOAD DUP1 SWAP2 SUB SWAP1 RETURN JUMPDEST CALLVALUE DUP1 ISZERO PUSH2 0x395 JUMPI PUSH1 0x0 DUP1 REVERT JUMPDEST POP PUSH2 0x39E PUSH2 0xCC5 JUMP JUMPDEST PUSH1 0x40 MLOAD PUSH2 0x3AB SWAP2 SWAP1 PUSH2 0x2A2C JUMP JUMPDEST PUSH1 0x40 MLOAD DUP1 SWAP2 SUB SWAP1 RETURN JUMPDEST CALLVALUE DUP1 ISZERO PUSH2 0x3C0 JUMPI PUSH1 0x0 DUP1 REVERT JUMPDEST POP PUSH2 0x3DB PUSH1 0x4 DUP1 CALLDATASIZE SUB DUP2 ADD SWAP1 PUSH2 0x3D6 SWAP2 SWAP1 PUSH2 0x2DAB JUMP JUMPDEST PUSH2 0xD02 JUMP JUMPDEST STOP JUMPDEST CALLVALUE DUP1 ISZERO PUSH2 0x3E9 JUMPI PUSH1 0x0 DUP1 REVERT JUMPDEST POP PUSH2 0x404 PUSH1 0x4 DUP1 CALLDATASIZE SUB DUP2 ADD SWAP1 PUSH2 0x3FF SWAP2 SWAP1 PUSH2 0x2AEC JUMP JUMPDEST PUSH2 0xF0B JUMP JUMPDEST PUSH1 0x40 MLOAD PUSH2 0x411 SWAP2 SWAP1 PUSH2 0x2B47 JUMP JUMPDEST PUSH1 0x40 MLOAD DUP1 SWAP2 SUB SWAP1 RETURN JUMPDEST CALLVALUE DUP1 ISZERO PUSH2 0x426 JUMPI PUSH1 0x0 DUP1 REVERT JUMPDEST POP PUSH2 0x441 PUSH1 0x4 DUP1 CALLDATASIZE SUB DUP2 ADD SWAP1 PUSH2 0x43C SWAP2 SWAP1 PUSH2 0x2D7E JUMP JUMPDEST PUSH2 0xF29 JUMP JUMPDEST STOP JUMPDEST CALLVALUE DUP1 ISZERO PUSH2 0x44F JUMPI PUSH1 0x0 DUP1 REVERT JUMPDEST POP PUSH2 0x458 PUSH2 0x113E JUMP JUMPDEST STOP JUMPDEST CALLVALUE DUP1 ISZERO PUSH2 0x466 JUMPI PUSH1 0x0 DUP1 REVERT JUMPDEST POP PUSH2 0x481 PUSH1 0x4 DUP1 CALLDATASIZE SUB DUP2 ADD SWAP1 PUSH2 0x47C SWAP2 SWAP1 PUSH2 0x2E77 JUMP JUMPDEST PUSH2 0x125B JUMP JUMPDEST STOP JUMPDEST CALLVALUE DUP1 ISZERO PUSH2 0x48F JUMPI PUSH1 0x0 DUP1 REVERT JUMPDEST POP PUSH2 0x498 PUSH2 0x1395 JUMP JUMPDEST PUSH1 0x40 MLOAD PUSH2 0x4A5 SWAP2 SWAP1 PUSH2 0x2C9F JUMP JUMPDEST PUSH1 0x40 MLOAD DUP1 SWAP2 SUB SWAP1 RETURN JUMPDEST CALLVALUE DUP1 ISZERO PUSH2 0x4BA JUMPI PUSH1 0x0 DUP1 REVERT JUMPDEST POP PUSH2 0x4D5 PUSH1 0x4 DUP1 CALLDATASIZE SUB DUP2 ADD SWAP1 PUSH2 0x4D0 SWAP2 SWAP1 PUSH2 0x2ED7 JUMP JUMPDEST PUSH2 0x13BB JUMP JUMPDEST PUSH1 0x40 MLOAD PUSH2 0x4E2 SWAP2 SWAP1 PUSH2 0x2BEB JUMP JUMPDEST PUSH1 0x40 MLOAD DUP1 SWAP2 SUB SWAP1 RETURN JUMPDEST CALLVALUE DUP1 ISZERO PUSH2 0x4F7 JUMPI PUSH1 0x0 DUP1 REVERT JUMPDEST POP PUSH2 0x512 PUSH1 0x4 DUP1 CALLDATASIZE SUB DUP2 ADD SWAP1 PUSH2 0x50D SWAP2 SWAP1 PUSH2 0x2C06 JUMP JUMPDEST PUSH2 0x1442 JUMP JUMPDEST STOP JUMPDEST CALLVALUE DUP1 ISZERO PUSH2 0x520 JUMPI PUSH1 0x0 DUP1 REVERT JUMPDEST POP PUSH2 0x53B PUSH1 0x4 DUP1 CALLDATASIZE SUB DUP2 ADD SWAP1 PUSH2 0x536 SWAP2 SWAP1 PUSH2 0x2D13 JUMP JUMPDEST PUSH2 0x1606 JUMP JUMPDEST STOP JUMPDEST PUSH1 0x60 PUSH1 0x40 MLOAD DUP1 PUSH1 0x40 ADD PUSH1 0x40 MSTORE DUP1 PUSH1 0xA DUP2 MSTORE PUSH1 0x20 ADD PUSH32 0x576F726C64205374657000000000000000000000000000000000000000000000 DUP2 MSTORE POP SWAP1 POP SWAP1 JUMP JUMPDEST PUSH1 0x0 PUSH2 0x58E PUSH2 0x587 PUSH2 0x1758 JUMP JUMPDEST DUP5 DUP5 PUSH2 0x1760 JUMP JUMPDEST PUSH1 0x1 SWAP1 POP SWAP3 SWAP2 POP POP JUMP JUMPDEST PUSH1 0x10 PUSH1 0x0 SWAP1 SLOAD SWAP1 PUSH2 0x100 EXP SWAP1 DIV PUSH20 0xFFFFFFFFFFFFFFFFFFFFFFFFFFFFFFFFFFFFFFFF AND DUP2 JUMP JUMPDEST PUSH1 0x0 PUSH8 0xDE0B6B3A7640000 SWAP1 POP SWAP1 JUMP JUMPDEST PUSH1 0x0 PUSH2 0x5DB DUP5 DUP5 DUP5 PUSH2 0x1929 JUMP JUMPDEST PUSH2 0x69C DUP5 PUSH2 0x5E7 PUSH2 0x1758 JUMP JUMPDEST PUSH2 0x697 DUP6 PUSH1 0x40 MLOAD DUP1 PUSH1 0x60 ADD PUSH1 0x40 MSTORE DUP1 PUSH1 0x28 DUP2 MSTORE PUSH1 0x20 ADD PUSH2 0x394B PUSH1 0x28 SWAP2 CODECOPY PUSH1 0x4 PUSH1 0x0 DUP12 PUSH20 0xFFFFFFFFFFFFFFFFFFFFFFFFFFFFFFFFFFFFFFFF AND PUSH20 0xFFFFFFFFFFFFFFFFFFFFFFFFFFFFFFFFFFFFFFFF AND DUP2 MSTORE PUSH1 0x20 ADD SWAP1 DUP2 MSTORE PUSH1 0x20 ADD PUSH1 0x0 KECCAK256 PUSH1 0x0 PUSH2 0x64D PUSH2 0x1758 JUMP JUMPDEST PUSH20 0xFFFFFFFFFFFFFFFFFFFFFFFFFFFFFFFFFFFFFFFF AND PUSH20 0xFFFFFFFFFFFFFFFFFFFFFFFFFFFFFFFFFFFFFFFF AND DUP2 MSTORE PUSH1 0x20 ADD SWAP1 DUP2 MSTORE PUSH1 0x20 ADD PUSH1 0x0 KECCAK256 SLOAD PUSH2 0x1E9B SWAP1 SWAP3 SWAP2 SWAP1 PUSH4 0xFFFFFFFF AND JUMP JUMPDEST PUSH2 0x1760 JUMP JUMPDEST PUSH1 0x1 SWAP1 POP SWAP4 SWAP3 POP POP POP JUMP JUMPDEST PUSH1 0x0 PUSH1 0x9 SWAP1 POP SWAP1 JUMP JUMPDEST PUSH1 0x11 PUSH1 0x0 SWAP1 SLOAD SWAP1 PUSH2 0x100 EXP SWAP1 DIV PUSH20 0xFFFFFFFFFFFFFFFFFFFFFFFFFFFFFFFFFFFFFFFF AND DUP2 JUMP JUMPDEST PUSH2 0x6DE PUSH2 0x1758 JUMP JUMPDEST PUSH20 0xFFFFFFFFFFFFFFFFFFFFFFFFFFFFFFFFFFFFFFFF AND PUSH2 0x6FC PUSH2 0xC9C JUMP JUMPDEST PUSH20 0xFFFFFFFFFFFFFFFFFFFFFFFFFFFFFFFFFFFFFFFF AND EQ DUP1 PUSH2 0x772 JUMPI POP PUSH2 0x721 PUSH2 0x1758 JUMP JUMPDEST PUSH20 0xFFFFFFFFFFFFFFFFFFFFFFFFFFFFFFFFFFFFFFFF AND PUSH1 0xE PUSH1 0x0 SWAP1 SLOAD SWAP1 PUSH2 0x100 EXP SWAP1 DIV PUSH20 0xFFFFFFFFFFFFFFFFFFFFFFFFFFFFFFFFFFFFFFFF AND PUSH20 0xFFFFFFFFFFFFFFFFFFFFFFFFFFFFFFFFFFFFFFFF AND EQ JUMPDEST PUSH2 0x7B1 JUMPI PUSH1 0x40 MLOAD PUSH32 0x8C379A000000000000000000000000000000000000000000000000000000000 DUP2 MSTORE PUSH1 0x4 ADD PUSH2 0x7A8 SWAP1 PUSH2 0x2F63 JUMP JUMPDEST PUSH1 0x40 MLOAD DUP1 SWAP2 SUB SWAP1 REVERT JUMPDEST DUP1 PUSH1 0x12 PUSH1 0x15 PUSH2 0x100 EXP DUP2 SLOAD DUP2 PUSH1 0xFF MUL NOT AND SWAP1 DUP4 ISZERO ISZERO MUL OR SWAP1 SSTORE POP POP JUMP JUMPDEST PUSH1 0xE PUSH1 0x0 SWAP1 SLOAD SWAP1 PUSH2 0x100 EXP SWAP1 DIV PUSH20 0xFFFFFFFFFFFFFFFFFFFFFFFFFFFFFFFFFFFFFFFF AND PUSH20 0xFFFFFFFFFFFFFFFFFFFFFFFFFFFFFFFFFFFFFFFF AND PUSH2 0x80F PUSH2 0x1758 JUMP JUMPDEST PUSH20 0xFFFFFFFFFFFFFFFFFFFFFFFFFFFFFFFFFFFFFFFF AND EQ DUP1 PUSH2 0x885 JUMPI POP PUSH1 0xF PUSH1 0x0 SWAP1 SLOAD SWAP1 PUSH2 0x100 EXP SWAP1 DIV PUSH20 0xFFFFFFFFFFFFFFFFFFFFFFFFFFFFFFFFFFFFFFFF AND PUSH20 0xFFFFFFFFFFFFFFFFFFFFFFFFFFFFFFFFFFFFFFFF AND PUSH2 0x86D PUSH2 0x1758 JUMP JUMPDEST PUSH20 0xFFFFFFFFFFFFFFFFFFFFFFFFFFFFFFFFFFFFFFFF AND EQ JUMPDEST DUP1 PUSH2 0x8C9 JUMPI POP PUSH2 0x893 PUSH2 0xC9C JUMP JUMPDEST PUSH20 0xFFFFFFFFFFFFFFFFFFFFFFFFFFFFFFFFFFFFFFFF AND PUSH2 0x8B1 PUSH2 0x1758 JUMP JUMPDEST PUSH20 0xFFFFFFFFFFFFFFFFFFFFFFFFFFFFFFFFFFFFFFFF AND EQ JUMPDEST PUSH2 0x8D2 JUMPI PUSH1 0x0 DUP1 REVERT JUMPDEST PUSH1 0x0 SELFBALANCE SWAP1 POP PUSH2 0x8E0 DUP2 PUSH2 0x1EFF JUMP JUMPDEST POP JUMP JUMPDEST PUSH1 0x0 PUSH2 0x92D PUSH1 0x2 PUSH1 0x0 DUP5 PUSH20 0xFFFFFFFFFFFFFFFFFFFFFFFFFFFFFFFFFFFFFFFF AND PUSH20 0xFFFFFFFFFFFFFFFFFFFFFFFFFFFFFFFFFFFFFFFF AND DUP2 MSTORE PUSH1 0x20 ADD SWAP1 DUP2 MSTORE PUSH1 0x20 ADD PUSH1 0x0 KECCAK256 SLOAD PUSH2 0x1FFA JUMP JUMPDEST SWAP1 POP SWAP2 SWAP1 POP JUMP JUMPDEST PUSH2 0x93C PUSH2 0x1758 JUMP JUMPDEST PUSH20 0xFFFFFFFFFFFFFFFFFFFFFFFFFFFFFFFFFFFFFFFF AND PUSH1 0x0 DUP1 SLOAD SWAP1 PUSH2 0x100 EXP SWAP1 DIV PUSH20 0xFFFFFFFFFFFFFFFFFFFFFFFFFFFFFFFFFFFFFFFF AND PUSH20 0xFFFFFFFFFFFFFFFFFFFFFFFFFFFFFFFFFFFFFFFF AND EQ PUSH2 0x9C9 JUMPI PUSH1 0x40 MLOAD PUSH32 0x8C379A000000000000000000000000000000000000000000000000000000000 DUP2 MSTORE PUSH1 0x4 ADD PUSH2 0x9C0 SWAP1 PUSH2 0x2FCF JUMP JUMPDEST PUSH1 0x40 MLOAD DUP1 SWAP2 SUB SWAP1 REVERT JUMPDEST PUSH1 0x0 PUSH20 0xFFFFFFFFFFFFFFFFFFFFFFFFFFFFFFFFFFFFFFFF AND PUSH1 0x0 DUP1 SLOAD SWAP1 PUSH2 0x100 EXP SWAP1 DIV PUSH20 0xFFFFFFFFFFFFFFFFFFFFFFFFFFFFFFFFFFFFFFFF AND PUSH20 0xFFFFFFFFFFFFFFFFFFFFFFFFFFFFFFFFFFFFFFFF AND PUSH32 0x8BE0079C531659141344CD1FD0A4F28419497F9722A3DAAFE3B4186F6B6457E0 PUSH1 0x40 MLOAD PUSH1 0x40 MLOAD DUP1 SWAP2 SUB SWAP1 LOG3 PUSH1 0x0 DUP1 PUSH1 0x0 PUSH2 0x100 EXP DUP2 SLOAD DUP2 PUSH20 0xFFFFFFFFFFFFFFFFFFFFFFFFFFFFFFFFFFFFFFFF MUL NOT AND SWAP1 DUP4 PUSH20 0xFFFFFFFFFFFFFFFFFFFFFFFFFFFFFFFFFFFFFFFF AND MUL OR SWAP1 SSTORE POP JUMP JUMPDEST PUSH2 0xA8F PUSH2 0x1758 JUMP JUMPDEST PUSH20 0xFFFFFFFFFFFFFFFFFFFFFFFFFFFFFFFFFFFFFFFF AND PUSH2 0xAAD PUSH2 0xC9C JUMP JUMPDEST PUSH20 0xFFFFFFFFFFFFFFFFFFFFFFFFFFFFFFFFFFFFFFFF AND EQ DUP1 PUSH2 0xB23 JUMPI POP PUSH2 0xAD2 PUSH2 0x1758 JUMP JUMPDEST PUSH20 0xFFFFFFFFFFFFFFFFFFFFFFFFFFFFFFFFFFFFFFFF AND PUSH1 0xE PUSH1 0x0 SWAP1 SLOAD SWAP1 PUSH2 0x100 EXP SWAP1 DIV PUSH20 0xFFFFFFFFFFFFFFFFFFFFFFFFFFFFFFFFFFFFFFFF AND PUSH20 0xFFFFFFFFFFFFFFFFFFFFFFFFFFFFFFFFFFFFFFFF AND EQ JUMPDEST PUSH2 0xB62 JUMPI PUSH1 0x40 MLOAD PUSH32 0x8C379A000000000000000000000000000000000000000000000000000000000 DUP2 MSTORE PUSH1 0x4 ADD PUSH2 0xB59 SWAP1 PUSH2 0x2F63 JUMP JUMPDEST PUSH1 0x40 MLOAD DUP1 SWAP2 SUB SWAP1 REVERT JUMPDEST DUP1 PUSH20 0xFFFFFFFFFFFFFFFFFFFFFFFFFFFFFFFFFFFFFFFF AND PUSH1 0xF PUSH1 0x0 SWAP1 SLOAD SWAP1 PUSH2 0x100 EXP SWAP1 DIV PUSH20 0xFFFFFFFFFFFFFFFFFFFFFFFFFFFFFFFFFFFFFFFF AND PUSH20 0xFFFFFFFFFFFFFFFFFFFFFFFFFFFFFFFFFFFFFFFF AND PUSH32 0xA64373A629BC0C09EACF8A9CC2C7B070FA0A8B7E2E9B8AAEE408A3C02EB1676B PUSH1 0x40 MLOAD PUSH1 0x40 MLOAD DUP1 SWAP2 SUB SWAP1 LOG3 DUP1 PUSH1 0xF PUSH1 0x0 PUSH2 0x100 EXP DUP2 SLOAD DUP2 PUSH20 0xFFFFFFFFFFFFFFFFFFFFFFFFFFFFFFFFFFFFFFFF MUL NOT AND SWAP1 DUP4 PUSH20 0xFFFFFFFFFFFFFFFFFFFFFFFFFFFFFFFFFFFFFFFF AND MUL OR SWAP1 SSTORE POP PUSH1 0x1 PUSH1 0x5 PUSH1 0x0 PUSH1 0xF PUSH1 0x0 SWAP1 SLOAD SWAP1 PUSH2 0x100 EXP SWAP1 DIV PUSH20 0xFFFFFFFFFFFFFFFFFFFFFFFFFFFFFFFFFFFFFFFF AND PUSH20 0xFFFFFFFFFFFFFFFFFFFFFFFFFFFFFFFFFFFFFFFF AND PUSH20 0xFFFFFFFFFFFFFFFFFFFFFFFFFFFFFFFFFFFFFFFF AND DUP2 MSTORE PUSH1 0x20 ADD SWAP1 DUP2 MSTORE PUSH1 0x20 ADD PUSH1 0x0 KECCAK256 PUSH1 0x0 PUSH2 0x100 EXP DUP2 SLOAD DUP2 PUSH1 0xFF MUL NOT AND SWAP1 DUP4 ISZERO ISZERO MUL OR SWAP1 SSTORE POP POP JUMP JUMPDEST PUSH1 0x0 DUP1 PUSH1 0x0 SWAP1 SLOAD SWAP1 PUSH2 0x100 EXP SWAP1 DIV PUSH20 0xFFFFFFFFFFFFFFFFFFFFFFFFFFFFFFFFFFFFFFFF AND SWAP1 POP SWAP1 JUMP JUMPDEST PUSH1 0x60 PUSH1 0x40 MLOAD DUP1 PUSH1 0x40 ADD PUSH1 0x40 MSTORE DUP1 PUSH1 0x3 DUP2 MSTORE PUSH1 0x20 ADD PUSH32 0x5753500000000000000000000000000000000000000000000000000000000000 DUP2 MSTORE POP SWAP1 POP SWAP1 JUMP JUMPDEST PUSH2 0xD0A PUSH2 0x1758 JUMP JUMPDEST PUSH20 0xFFFFFFFFFFFFFFFFFFFFFFFFFFFFFFFFFFFFFFFF AND PUSH2 0xD28 PUSH2 0xC9C JUMP JUMPDEST PUSH20 0xFFFFFFFFFFFFFFFFFFFFFFFFFFFFFFFFFFFFFFFF AND EQ DUP1 PUSH2 0xD9E JUMPI POP PUSH2 0xD4D PUSH2 0x1758 JUMP JUMPDEST PUSH20 0xFFFFFFFFFFFFFFFFFFFFFFFFFFFFFFFFFFFFFFFF AND PUSH1 0xE PUSH1 0x0 SWAP1 SLOAD SWAP1 PUSH2 0x100 EXP SWAP1 DIV PUSH20 0xFFFFFFFFFFFFFFFFFFFFFFFFFFFFFFFFFFFFFFFF AND PUSH20 0xFFFFFFFFFFFFFFFFFFFFFFFFFFFFFFFFFFFFFFFF AND EQ JUMPDEST PUSH2 0xDDD JUMPI PUSH1 0x40 MLOAD PUSH32 0x8C379A000000000000000000000000000000000000000000000000000000000 DUP2 MSTORE PUSH1 0x4 ADD PUSH2 0xDD4 SWAP1 PUSH2 0x2F63 JUMP JUMPDEST PUSH1 0x40 MLOAD DUP1 SWAP2 SUB SWAP1 REVERT JUMPDEST PUSH1 0xB DUP5 LT PUSH2 0xE20 JUMPI PUSH1 0x40 MLOAD PUSH32 0x8C379A000000000000000000000000000000000000000000000000000000000 DUP2 MSTORE PUSH1 0x4 ADD PUSH2 0xE17 SWAP1 PUSH2 0x303B JUMP JUMPDEST PUSH1 0x40 MLOAD DUP1 SWAP2 SUB SWAP1 REVERT JUMPDEST PUSH1 0xB DUP4 LT PUSH2 0xE63 JUMPI PUSH1 0x40 MLOAD PUSH32 0x8C379A000000000000000000000000000000000000000000000000000000000 DUP2 MSTORE PUSH1 0x4 ADD PUSH2 0xE5A SWAP1 PUSH2 0x303B JUMP JUMPDEST PUSH1 0x40 MLOAD DUP1 SWAP2 SUB SWAP1 REVERT JUMPDEST PUSH1 0x7 DUP3 LT PUSH2 0xEA6 JUMPI PUSH1 0x40 MLOAD PUSH32 0x8C379A000000000000000000000000000000000000000000000000000000000 DUP2 MSTORE PUSH1 0x4 ADD PUSH2 0xE9D SWAP1 PUSH2 0x30A7 JUMP JUMPDEST PUSH1 0x40 MLOAD DUP1 SWAP2 SUB SWAP1 REVERT JUMPDEST PUSH1 0x7 DUP2 LT PUSH2 0xEE9 JUMPI PUSH1 0x40 MLOAD PUSH32 0x8C379A000000000000000000000000000000000000000000000000000000000 DUP2 MSTORE PUSH1 0x4 ADD PUSH2 0xEE0 SWAP1 PUSH2 0x30A7 JUMP JUMPDEST PUSH1 0x40 MLOAD DUP1 SWAP2 SUB SWAP1 REVERT JUMPDEST DUP4 PUSH1 0x8 DUP2 SWAP1 SSTORE POP DUP3 PUSH1 0xA DUP2 SWAP1 SSTORE POP DUP2 PUSH1 0x9 DUP2 SWAP1 SSTORE POP DUP1 PUSH1 0xB DUP2 SWAP1 SSTORE POP POP POP POP POP JUMP JUMPDEST PUSH1 0x0 PUSH2 0xF1F PUSH2 0xF18 PUSH2 0x1758 JUMP JUMPDEST DUP5 DUP5 PUSH2 0x1929 JUMP JUMPDEST PUSH1 0x1 SWAP1 POP SWAP3 SWAP2 POP POP JUMP JUMPDEST PUSH2 0xF31 PUSH2 0x1758 JUMP JUMPDEST PUSH20 0xFFFFFFFFFFFFFFFFFFFFFFFFFFFFFFFFFFFFFFFF AND PUSH2 0xF4F PUSH2 0xC9C JUMP JUMPDEST PUSH20 0xFFFFFFFFFFFFFFFFFFFFFFFFFFFFFFFFFFFFFFFF AND EQ DUP1 PUSH2 0xFC5 JUMPI POP PUSH2 0xF74 PUSH2 0x1758 JUMP JUMPDEST PUSH20 0xFFFFFFFFFFFFFFFFFFFFFFFFFFFFFFFFFFFFFFFF AND PUSH1 0xE PUSH1 0x0 SWAP1 SLOAD SWAP1 PUSH2 0x100 EXP SWAP1 DIV PUSH20 0xFFFFFFFFFFFFFFFFFFFFFFFFFFFFFFFFFFFFFFFF AND PUSH20 0xFFFFFFFFFFFFFFFFFFFFFFFFFFFFFFFFFFFFFFFF AND EQ JUMPDEST PUSH2 0x1004 JUMPI PUSH1 0x40 MLOAD PUSH32 0x8C379A000000000000000000000000000000000000000000000000000000000 DUP2 MSTORE PUSH1 0x4 ADD PUSH2 0xFFB SWAP1 PUSH2 0x2F63 JUMP JUMPDEST PUSH1 0x40 MLOAD DUP1 SWAP2 SUB SWAP1 REVERT JUMPDEST DUP1 PUSH20 0xFFFFFFFFFFFFFFFFFFFFFFFFFFFFFFFFFFFFFFFF AND PUSH1 0xE PUSH1 0x0 SWAP1 SLOAD SWAP1 PUSH2 0x100 EXP SWAP1 DIV PUSH20 0xFFFFFFFFFFFFFFFFFFFFFFFFFFFFFFFFFFFFFFFF AND PUSH20 0xFFFFFFFFFFFFFFFFFFFFFFFFFFFFFFFFFFFFFFFF AND PUSH32 0xFBBC329437E8C79F847E170730AD6DD04106B7511CAD70D06D635886D92DE83C PUSH1 0x40 MLOAD PUSH1 0x40 MLOAD DUP1 SWAP2 SUB SWAP1 LOG3 DUP1 PUSH1 0xE PUSH1 0x0 PUSH2 0x100 EXP DUP2 SLOAD DUP2 PUSH20 0xFFFFFFFFFFFFFFFFFFFFFFFFFFFFFFFFFFFFFFFF MUL NOT AND SWAP1 DUP4 PUSH20 0xFFFFFFFFFFFFFFFFFFFFFFFFFFFFFFFFFFFFFFFF AND MUL OR SWAP1 SSTORE POP PUSH1 0x1 PUSH1 0x5 PUSH1 0x0 PUSH1 0xE PUSH1 0x0 SWAP1 SLOAD SWAP1 PUSH2 0x100 EXP SWAP1 DIV PUSH20 0xFFFFFFFFFFFFFFFFFFFFFFFFFFFFFFFFFFFFFFFF AND PUSH20 0xFFFFFFFFFFFFFFFFFFFFFFFFFFFFFFFFFFFFFFFF AND PUSH20 0xFFFFFFFFFFFFFFFFFFFFFFFFFFFFFFFFFFFFFFFF AND DUP2 MSTORE PUSH1 0x20 ADD SWAP1 DUP2 MSTORE PUSH1 0x20 ADD PUSH1 0x0 KECCAK256 PUSH1 0x0 PUSH2 0x100 EXP DUP2 SLOAD DUP2 PUSH1 0xFF MUL NOT AND SWAP1 DUP4 ISZERO ISZERO MUL OR SWAP1 SSTORE POP POP JUMP JUMPDEST PUSH1 0xE PUSH1 0x0 SWAP1 SLOAD SWAP1 PUSH2 0x100 EXP SWAP1 DIV PUSH20 0xFFFFFFFFFFFFFFFFFFFFFFFFFFFFFFFFFFFFFFFF AND PUSH20 0xFFFFFFFFFFFFFFFFFFFFFFFFFFFFFFFFFFFFFFFF AND PUSH2 0x117F PUSH2 0x1758 JUMP JUMPDEST PUSH20 0xFFFFFFFFFFFFFFFFFFFFFFFFFFFFFFFFFFFFFFFF AND EQ DUP1 PUSH2 0x11F5 JUMPI POP PUSH1 0xF PUSH1 0x0 SWAP1 SLOAD SWAP1 PUSH2 0x100 EXP SWAP1 DIV PUSH20 0xFFFFFFFFFFFFFFFFFFFFFFFFFFFFFFFFFFFFFFFF AND PUSH20 0xFFFFFFFFFFFFFFFFFFFFFFFFFFFFFFFFFFFFFFFF AND PUSH2 0x11DD PUSH2 0x1758 JUMP JUMPDEST PUSH20 0xFFFFFFFFFFFFFFFFFFFFFFFFFFFFFFFFFFFFFFFF AND EQ JUMPDEST DUP1 PUSH2 0x1239 JUMPI POP PUSH2 0x1203 PUSH2 0xC9C JUMP JUMPDEST PUSH20 0xFFFFFFFFFFFFFFFFFFFFFFFFFFFFFFFFFFFFFFFF AND PUSH2 0x1221 PUSH2 0x1758 JUMP JUMPDEST PUSH20 0xFFFFFFFFFFFFFFFFFFFFFFFFFFFFFFFFFFFFFFFF AND EQ JUMPDEST PUSH2 0x1242 JUMPI PUSH1 0x0 DUP1 REVERT JUMPDEST PUSH1 0x0 PUSH2 0x124D ADDRESS PUSH2 0x8E3 JUMP JUMPDEST SWAP1 POP PUSH2 0x1258 DUP2 PUSH2 0x2068 JUMP JUMPDEST POP JUMP JUMPDEST PUSH2 0x1263 PUSH2 0x1758 JUMP JUMPDEST PUSH20 0xFFFFFFFFFFFFFFFFFFFFFFFFFFFFFFFFFFFFFFFF AND PUSH1 0x0 DUP1 SLOAD SWAP1 PUSH2 0x100 EXP SWAP1 DIV PUSH20 0xFFFFFFFFFFFFFFFFFFFFFFFFFFFFFFFFFFFFFFFF AND PUSH20 0xFFFFFFFFFFFFFFFFFFFFFFFFFFFFFFFFFFFFFFFF AND EQ PUSH2 0x12F0 JUMPI PUSH1 0x40 MLOAD PUSH32 0x8C379A000000000000000000000000000000000000000000000000000000000 DUP2 MSTORE PUSH1 0x4 ADD PUSH2 0x12E7 SWAP1 PUSH2 0x2FCF JUMP JUMPDEST PUSH1 0x40 MLOAD DUP1 SWAP2 SUB SWAP1 REVERT JUMPDEST PUSH1 0x0 JUMPDEST DUP4 DUP4 SWAP1 POP DUP2 LT ISZERO PUSH2 0x138F JUMPI DUP2 PUSH1 0x5 PUSH1 0x0 DUP7 DUP7 DUP6 DUP2 DUP2 LT PUSH2 0x1316 JUMPI PUSH2 0x1315 PUSH2 0x30C7 JUMP JUMPDEST JUMPDEST SWAP1 POP PUSH1 0x20 MUL ADD PUSH1 0x20 DUP2 ADD SWAP1 PUSH2 0x132B SWAP2 SWAP1 PUSH2 0x2D13 JUMP JUMPDEST PUSH20 0xFFFFFFFFFFFFFFFFFFFFFFFFFFFFFFFFFFFFFFFF AND PUSH20 0xFFFFFFFFFFFFFFFFFFFFFFFFFFFFFFFFFFFFFFFF AND DUP2 MSTORE PUSH1 0x20 ADD SWAP1 DUP2 MSTORE PUSH1 0x20 ADD PUSH1 0x0 KECCAK256 PUSH1 0x0 PUSH2 0x100 EXP DUP2 SLOAD DUP2 PUSH1 0xFF MUL NOT AND SWAP1 DUP4 ISZERO ISZERO MUL OR SWAP1 SSTORE POP DUP1 DUP1 PUSH2 0x1387 SWAP1 PUSH2 0x3125 JUMP JUMPDEST SWAP2 POP POP PUSH2 0x12F3 JUMP JUMPDEST POP POP POP POP JUMP JUMPDEST PUSH1 0x12 PUSH1 0x0 SWAP1 SLOAD SWAP1 PUSH2 0x100 EXP SWAP1 DIV PUSH20 0xFFFFFFFFFFFFFFFFFFFFFFFFFFFFFFFFFFFFFFFF AND DUP2 JUMP JUMPDEST PUSH1 0x0 PUSH1 0x4 PUSH1 0x0 DUP5 PUSH20 0xFFFFFFFFFFFFFFFFFFFFFFFFFFFFFFFFFFFFFFFF AND PUSH20 0xFFFFFFFFFFFFFFFFFFFFFFFFFFFFFFFFFFFFFFFF AND DUP2 MSTORE PUSH1 0x20 ADD SWAP1 DUP2 MSTORE PUSH1 0x20 ADD PUSH1 0x0 KECCAK256 PUSH1 0x0 DUP4 PUSH20 0xFFFFFFFFFFFFFFFFFFFFFFFFFFFFFFFFFFFFFFFF AND PUSH20 0xFFFFFFFFFFFFFFFFFFFFFFFFFFFFFFFFFFFFFFFF AND DUP2 MSTORE PUSH1 0x20 ADD SWAP1 DUP2 MSTORE PUSH1 0x20 ADD PUSH1 0x0 KECCAK256 SLOAD SWAP1 POP SWAP3 SWAP2 POP POP JUMP JUMPDEST PUSH2 0x144A PUSH2 0x1758 JUMP JUMPDEST PUSH20 0xFFFFFFFFFFFFFFFFFFFFFFFFFFFFFFFFFFFFFFFF AND PUSH2 0x1468 PUSH2 0xC9C JUMP JUMPDEST PUSH20 0xFFFFFFFFFFFFFFFFFFFFFFFFFFFFFFFFFFFFFFFF AND EQ DUP1 PUSH2 0x14DE JUMPI POP PUSH2 0x148D PUSH2 0x1758 JUMP JUMPDEST PUSH20 0xFFFFFFFFFFFFFFFFFFFFFFFFFFFFFFFFFFFFFFFF AND PUSH1 0xE PUSH1 0x0 SWAP1 SLOAD SWAP1 PUSH2 0x100 EXP SWAP1 DIV PUSH20 0xFFFFFFFFFFFFFFFFFFFFFFFFFFFFFFFFFFFFFFFF AND PUSH20 0xFFFFFFFFFFFFFFFFFFFFFFFFFFFFFFFFFFFFFFFF AND EQ JUMPDEST PUSH2 0x151D JUMPI PUSH1 0x40 MLOAD PUSH32 0x8C379A000000000000000000000000000000000000000000000000000000000 DUP2 MSTORE PUSH1 0x4 ADD PUSH2 0x1514 SWAP1 PUSH2 0x2F63 JUMP JUMPDEST PUSH1 0x40 MLOAD DUP1 SWAP2 SUB SWAP1 REVERT JUMPDEST DUP2 PUSH20 0xFFFFFFFFFFFFFFFFFFFFFFFFFFFFFFFFFFFFFFFF AND DUP4 PUSH20 0xFFFFFFFFFFFFFFFFFFFFFFFFFFFFFFFFFFFFFFFF AND PUSH32 0x47C33AA230EB5FD181505AA7BEFEADDD9B8A6F983989CEA73A7868448C3A9ED9 DUP4 PUSH1 0x40 MLOAD PUSH2 0x157A SWAP2 SWAP1 PUSH2 0x2BEB JUMP JUMPDEST PUSH1 0x40 MLOAD DUP1 SWAP2 SUB SWAP1 LOG3 DUP3 PUSH20 0xFFFFFFFFFFFFFFFFFFFFFFFFFFFFFFFFFFFFFFFF AND PUSH4 0xA9059CBB DUP4 DUP4 PUSH1 0x40 MLOAD DUP4 PUSH4 0xFFFFFFFF AND PUSH1 0xE0 SHL DUP2 MSTORE PUSH1 0x4 ADD PUSH2 0x15BD SWAP3 SWAP2 SWAP1 PUSH2 0x316D JUMP JUMPDEST PUSH1 0x20 PUSH1 0x40 MLOAD DUP1 DUP4 SUB DUP2 PUSH1 0x0 DUP8 GAS CALL ISZERO DUP1 ISZERO PUSH2 0x15DC JUMPI RETURNDATASIZE PUSH1 0x0 DUP1 RETURNDATACOPY RETURNDATASIZE PUSH1 0x0 REVERT JUMPDEST POP POP POP POP PUSH1 0x40 MLOAD RETURNDATASIZE PUSH1 0x1F NOT PUSH1 0x1F DUP3 ADD AND DUP3 ADD DUP1 PUSH1 0x40 MSTORE POP DUP2 ADD SWAP1 PUSH2 0x1600 SWAP2 SWAP1 PUSH2 0x31AB JUMP JUMPDEST POP POP POP POP JUMP JUMPDEST PUSH2 0x160E PUSH2 0x1758 JUMP JUMPDEST PUSH20 0xFFFFFFFFFFFFFFFFFFFFFFFFFFFFFFFFFFFFFFFF AND PUSH1 0x0 DUP1 SLOAD SWAP1 PUSH2 0x100 EXP SWAP1 DIV PUSH20 0xFFFFFFFFFFFFFFFFFFFFFFFFFFFFFFFFFFFFFFFF AND PUSH20 0xFFFFFFFFFFFFFFFFFFFFFFFFFFFFFFFFFFFFFFFF AND EQ PUSH2 0x169B JUMPI PUSH1 0x40 MLOAD PUSH32 0x8C379A000000000000000000000000000000000000000000000000000000000 DUP2 MSTORE PUSH1 0x4 ADD PUSH2 0x1692 SWAP1 PUSH2 0x2FCF JUMP JUMPDEST PUSH1 0x40 MLOAD DUP1 SWAP2 SUB SWAP1 REVERT JUMPDEST DUP1 PUSH20 0xFFFFFFFFFFFFFFFFFFFFFFFFFFFFFFFFFFFFFFFF AND PUSH1 0x0 DUP1 SLOAD SWAP1 PUSH2 0x100 EXP SWAP1 DIV PUSH20 0xFFFFFFFFFFFFFFFFFFFFFFFFFFFFFFFFFFFFFFFF AND PUSH20 0xFFFFFFFFFFFFFFFFFFFFFFFFFFFFFFFFFFFFFFFF AND PUSH32 0x8BE0079C531659141344CD1FD0A4F28419497F9722A3DAAFE3B4186F6B6457E0 PUSH1 0x40 MLOAD PUSH1 0x40 MLOAD DUP1 SWAP2 SUB SWAP1 LOG3 DUP1 PUSH1 0x0 DUP1 PUSH2 0x100 EXP DUP2 SLOAD DUP2 PUSH20 0xFFFFFFFFFFFFFFFFFFFFFFFFFFFFFFFFFFFFFFFF MUL NOT AND SWAP1 DUP4 PUSH20 0xFFFFFFFFFFFFFFFFFFFFFFFFFFFFFFFFFFFFFFFF AND MUL OR SWAP1 SSTORE POP POP JUMP JUMPDEST PUSH1 0x0 CALLER SWAP1 POP SWAP1 JUMP JUMPDEST PUSH1 0x0 PUSH20 0xFFFFFFFFFFFFFFFFFFFFFFFFFFFFFFFFFFFFFFFF AND DUP4 PUSH20 0xFFFFFFFFFFFFFFFFFFFFFFFFFFFFFFFFFFFFFFFF AND SUB PUSH2 0x17CF JUMPI PUSH1 0x40 MLOAD PUSH32 0x8C379A000000000000000000000000000000000000000000000000000000000 DUP2 MSTORE PUSH1 0x4 ADD PUSH2 0x17C6 SWAP1 PUSH2 0x324A JUMP JUMPDEST PUSH1 0x40 MLOAD DUP1 SWAP2 SUB SWAP1 REVERT JUMPDEST PUSH1 0x0 PUSH20 0xFFFFFFFFFFFFFFFFFFFFFFFFFFFFFFFFFFFFFFFF AND DUP3 PUSH20 0xFFFFFFFFFFFFFFFFFFFFFFFFFFFFFFFFFFFFFFFF AND SUB PUSH2 0x183E JUMPI PUSH1 0x40 MLOAD PUSH32 0x8C379A000000000000000000000000000000000000000000000000000000000 DUP2 MSTORE PUSH1 0x4 ADD PUSH2 0x1835 SWAP1 PUSH2 0x32DC JUMP JUMPDEST PUSH1 0x40 MLOAD DUP1 SWAP2 SUB SWAP1 REVERT JUMPDEST DUP1 PUSH1 0x4 PUSH1 0x0 DUP6 PUSH20 0xFFFFFFFFFFFFFFFFFFFFFFFFFFFFFFFFFFFFFFFF AND PUSH20 0xFFFFFFFFFFFFFFFFFFFFFFFFFFFFFFFFFFFFFFFF AND DUP2 MSTORE PUSH1 0x20 ADD SWAP1 DUP2 MSTORE PUSH1 0x20 ADD PUSH1 0x0 KECCAK256 PUSH1 0x0 DUP5 PUSH20 0xFFFFFFFFFFFFFFFFFFFFFFFFFFFFFFFFFFFFFFFF AND PUSH20 0xFFFFFFFFFFFFFFFFFFFFFFFFFFFFFFFFFFFFFFFF AND DUP2 MSTORE PUSH1 0x20 ADD SWAP1 DUP2 MSTORE PUSH1 0x20 ADD PUSH1 0x0 KECCAK256 DUP2 SWAP1 SSTORE POP DUP2 PUSH20 0xFFFFFFFFFFFFFFFFFFFFFFFFFFFFFFFFFFFFFFFF AND DUP4 PUSH20 0xFFFFFFFFFFFFFFFFFFFFFFFFFFFFFFFFFFFFFFFF AND PUSH32 0x8C5BE1E5EBEC7D5BD14F71427D1E84F3DD0314C0F7B2291E5B200AC8C7C3B925 DUP4 PUSH1 0x40 MLOAD PUSH2 0x191C SWAP2 SWAP1 PUSH2 0x2BEB JUMP JUMPDEST PUSH1 0x40 MLOAD DUP1 SWAP2 SUB SWAP1 LOG3 POP POP POP JUMP JUMPDEST PUSH1 0x0 PUSH20 0xFFFFFFFFFFFFFFFFFFFFFFFFFFFFFFFFFFFFFFFF AND DUP4 PUSH20 0xFFFFFFFFFFFFFFFFFFFFFFFFFFFFFFFFFFFFFFFF AND SUB PUSH2 0x1998 JUMPI PUSH1 0x40 MLOAD PUSH32 0x8C379A000000000000000000000000000000000000000000000000000000000 DUP2 MSTORE PUSH1 0x4 ADD PUSH2 0x198F SWAP1 PUSH2 0x336E JUMP JUMPDEST PUSH1 0x40 MLOAD DUP1 SWAP2 SUB SWAP1 REVERT JUMPDEST PUSH1 0x0 PUSH20 0xFFFFFFFFFFFFFFFFFFFFFFFFFFFFFFFFFFFFFFFF AND DUP3 PUSH20 0xFFFFFFFFFFFFFFFFFFFFFFFFFFFFFFFFFFFFFFFF AND SUB PUSH2 0x1A07 JUMPI PUSH1 0x40 MLOAD PUSH32 0x8C379A000000000000000000000000000000000000000000000000000000000 DUP2 MSTORE PUSH1 0x4 ADD PUSH2 0x19FE SWAP1 PUSH2 0x3400 JUMP JUMPDEST PUSH1 0x40 MLOAD DUP1 SWAP2 SUB SWAP1 REVERT JUMPDEST PUSH1 0x0 DUP2 GT PUSH2 0x1A4A JUMPI PUSH1 0x40 MLOAD PUSH32 0x8C379A000000000000000000000000000000000000000000000000000000000 DUP2 MSTORE PUSH1 0x4 ADD PUSH2 0x1A41 SWAP1 PUSH2 0x3492 JUMP JUMPDEST PUSH1 0x40 MLOAD DUP1 SWAP2 SUB SWAP1 REVERT JUMPDEST PUSH1 0x0 PUSH1 0xC DUP2 SWAP1 SSTORE POP PUSH1 0x0 PUSH1 0xD DUP2 SWAP1 SSTORE POP PUSH2 0x1A62 PUSH2 0xC9C JUMP JUMPDEST PUSH20 0xFFFFFFFFFFFFFFFFFFFFFFFFFFFFFFFFFFFFFFFF AND DUP4 PUSH20 0xFFFFFFFFFFFFFFFFFFFFFFFFFFFFFFFFFFFFFFFF AND EQ ISZERO DUP1 ISZERO PUSH2 0x1AD0 JUMPI POP PUSH2 0x1AA0 PUSH2 0xC9C JUMP JUMPDEST PUSH20 0xFFFFFFFFFFFFFFFFFFFFFFFFFFFFFFFFFFFFFFFF AND DUP3 PUSH20 0xFFFFFFFFFFFFFFFFFFFFFFFFFFFFFFFFFFFFFFFF AND EQ ISZERO JUMPDEST ISZERO PUSH2 0x1E8B JUMPI PUSH1 0x0 PUSH2 0x1AE0 ADDRESS PUSH2 0x8E3 JUMP JUMPDEST SWAP1 POP PUSH1 0x12 PUSH1 0x14 SWAP1 SLOAD SWAP1 PUSH2 0x100 EXP SWAP1 DIV PUSH1 0xFF AND ISZERO DUP1 ISZERO PUSH2 0x1B4D JUMPI POP PUSH1 0x11 PUSH1 0x0 SWAP1 SLOAD SWAP1 PUSH2 0x100 EXP SWAP1 DIV PUSH20 0xFFFFFFFFFFFFFFFFFFFFFFFFFFFFFFFFFFFFFFFF AND PUSH20 0xFFFFFFFFFFFFFFFFFFFFFFFFFFFFFFFFFFFFFFFF AND DUP5 PUSH20 0xFFFFFFFFFFFFFFFFFFFFFFFFFFFFFFFFFFFFFFFF AND EQ ISZERO JUMPDEST DUP1 ISZERO PUSH2 0x1B65 JUMPI POP PUSH1 0x12 PUSH1 0x15 SWAP1 SLOAD SWAP1 PUSH2 0x100 EXP SWAP1 DIV PUSH1 0xFF AND JUMPDEST DUP1 ISZERO PUSH2 0x1B71 JUMPI POP PUSH1 0x0 DUP2 GT JUMPDEST ISZERO PUSH2 0x1B99 JUMPI PUSH2 0x1B7F DUP2 PUSH2 0x2068 JUMP JUMPDEST PUSH1 0x0 SELFBALANCE SWAP1 POP PUSH1 0x0 DUP2 GT ISZERO PUSH2 0x1B97 JUMPI PUSH2 0x1B96 SELFBALANCE PUSH2 0x1EFF JUMP JUMPDEST JUMPDEST POP JUMPDEST PUSH1 0x11 PUSH1 0x0 SWAP1 SLOAD SWAP1 PUSH2 0x100 EXP SWAP1 DIV PUSH20 0xFFFFFFFFFFFFFFFFFFFFFFFFFFFFFFFFFFFFFFFF AND PUSH20 0xFFFFFFFFFFFFFFFFFFFFFFFFFFFFFFFFFFFFFFFF AND DUP5 PUSH20 0xFFFFFFFFFFFFFFFFFFFFFFFFFFFFFFFFFFFFFFFF AND EQ DUP1 ISZERO PUSH2 0x1C44 JUMPI POP PUSH1 0x10 PUSH1 0x0 SWAP1 SLOAD SWAP1 PUSH2 0x100 EXP SWAP1 DIV PUSH20 0xFFFFFFFFFFFFFFFFFFFFFFFFFFFFFFFFFFFFFFFF AND PUSH20 0xFFFFFFFFFFFFFFFFFFFFFFFFFFFFFFFFFFFFFFFF AND DUP4 PUSH20 0xFFFFFFFFFFFFFFFFFFFFFFFFFFFFFFFFFFFFFFFF AND EQ ISZERO JUMPDEST ISZERO PUSH2 0x1C5C JUMPI PUSH1 0x8 SLOAD PUSH1 0xC DUP2 SWAP1 SSTORE POP PUSH1 0x9 SLOAD PUSH1 0xD DUP2 SWAP1 SSTORE POP JUMPDEST PUSH1 0x11 PUSH1 0x0 SWAP1 SLOAD SWAP1 PUSH2 0x100 EXP SWAP1 DIV PUSH20 0xFFFFFFFFFFFFFFFFFFFFFFFFFFFFFFFFFFFFFFFF AND PUSH20 0xFFFFFFFFFFFFFFFFFFFFFFFFFFFFFFFFFFFFFFFF AND DUP4 PUSH20 0xFFFFFFFFFFFFFFFFFFFFFFFFFFFFFFFFFFFFFFFF AND EQ DUP1 ISZERO PUSH2 0x1D07 JUMPI POP PUSH1 0x10 PUSH1 0x0 SWAP1 SLOAD SWAP1 PUSH2 0x100 EXP SWAP1 DIV PUSH20 0xFFFFFFFFFFFFFFFFFFFFFFFFFFFFFFFFFFFFFFFF AND PUSH20 0xFFFFFFFFFFFFFFFFFFFFFFFFFFFFFFFFFFFFFFFF AND DUP5 PUSH20 0xFFFFFFFFFFFFFFFFFFFFFFFFFFFFFFFFFFFFFFFF AND EQ ISZERO JUMPDEST ISZERO PUSH2 0x1D1F JUMPI PUSH1 0xA SLOAD PUSH1 0xC DUP2 SWAP1 SSTORE POP PUSH1 0xB SLOAD PUSH1 0xD DUP2 SWAP1 SSTORE POP JUMPDEST PUSH1 0x5 PUSH1 0x0 DUP6 PUSH20 0xFFFFFFFFFFFFFFFFFFFFFFFFFFFFFFFFFFFFFFFF AND PUSH20 0xFFFFFFFFFFFFFFFFFFFFFFFFFFFFFFFFFFFFFFFF AND DUP2 MSTORE PUSH1 0x20 ADD SWAP1 DUP2 MSTORE PUSH1 0x20 ADD PUSH1 0x0 KECCAK256 PUSH1 0x0 SWAP1 SLOAD SWAP1 PUSH2 0x100 EXP SWAP1 DIV PUSH1 0xFF AND DUP1 PUSH2 0x1DC0 JUMPI POP PUSH1 0x5 PUSH1 0x0 DUP5 PUSH20 0xFFFFFFFFFFFFFFFFFFFFFFFFFFFFFFFFFFFFFFFF AND PUSH20 0xFFFFFFFFFFFFFFFFFFFFFFFFFFFFFFFFFFFFFFFF AND DUP2 MSTORE PUSH1 0x20 ADD SWAP1 DUP2 MSTORE PUSH1 0x20 ADD PUSH1 0x0 KECCAK256 PUSH1 0x0 SWAP1 SLOAD SWAP1 PUSH2 0x100 EXP SWAP1 DIV PUSH1 0xFF AND JUMPDEST DUP1 PUSH2 0x1E73 JUMPI POP PUSH1 0x11 PUSH1 0x0 SWAP1 SLOAD SWAP1 PUSH2 0x100 EXP SWAP1 DIV PUSH20 0xFFFFFFFFFFFFFFFFFFFFFFFFFFFFFFFFFFFFFFFF AND PUSH20 0xFFFFFFFFFFFFFFFFFFFFFFFFFFFFFFFFFFFFFFFF AND DUP5 PUSH20 0xFFFFFFFFFFFFFFFFFFFFFFFFFFFFFFFFFFFFFFFF AND EQ ISZERO DUP1 ISZERO PUSH2 0x1E72 JUMPI POP PUSH1 0x11 PUSH1 0x0 SWAP1 SLOAD SWAP1 PUSH2 0x100 EXP SWAP1 DIV PUSH20 0xFFFFFFFFFFFFFFFFFFFFFFFFFFFFFFFFFFFFFFFF AND PUSH20 0xFFFFFFFFFFFFFFFFFFFFFFFFFFFFFFFFFFFFFFFF AND DUP4 PUSH20 0xFFFFFFFFFFFFFFFFFFFFFFFFFFFFFFFFFFFFFFFF AND EQ ISZERO JUMPDEST JUMPDEST ISZERO PUSH2 0x1E89 JUMPI PUSH1 0x0 PUSH1 0xC DUP2 SWAP1 SSTORE POP PUSH1 0x0 PUSH1 0xD DUP2 SWAP1 SSTORE POP JUMPDEST POP JUMPDEST PUSH2 0x1E96 DUP4 DUP4 DUP4 PUSH2 0x22E1 JUMP JUMPDEST POP POP POP JUMP JUMPDEST PUSH1 0x0 DUP4 DUP4 GT ISZERO DUP3 SWAP1 PUSH2 0x1EE3 JUMPI PUSH1 0x40 MLOAD PUSH32 0x8C379A000000000000000000000000000000000000000000000000000000000 DUP2 MSTORE PUSH1 0x4 ADD PUSH2 0x1EDA SWAP2 SWAP1 PUSH2 0x2A2C JUMP JUMPDEST PUSH1 0x40 MLOAD DUP1 SWAP2 SUB SWAP1 REVERT JUMPDEST POP PUSH1 0x0 DUP4 DUP6 PUSH2 0x1EF2 SWAP2 SWAP1 PUSH2 0x34B2 JUMP JUMPDEST SWAP1 POP DUP1 SWAP2 POP POP SWAP4 SWAP3 POP POP POP JUMP JUMPDEST PUSH1 0xE PUSH1 0x0 SWAP1 SLOAD SWAP1 PUSH2 0x100 EXP SWAP1 DIV PUSH20 0xFFFFFFFFFFFFFFFFFFFFFFFFFFFFFFFFFFFFFFFF AND PUSH20 0xFFFFFFFFFFFFFFFFFFFFFFFFFFFFFFFFFFFFFFFF AND PUSH2 0x8FC PUSH2 0x1F4F PUSH1 0x2 DUP5 PUSH2 0x22F1 SWAP1 SWAP2 SWAP1 PUSH4 0xFFFFFFFF AND JUMP JUMPDEST SWAP1 DUP2 ISZERO MUL SWAP1 PUSH1 0x40 MLOAD PUSH1 0x0 PUSH1 0x40 MLOAD DUP1 DUP4 SUB DUP2 DUP6 DUP9 DUP9 CALL SWAP4 POP POP POP POP ISZERO DUP1 ISZERO PUSH2 0x1F7A JUMPI RETURNDATASIZE PUSH1 0x0 DUP1 RETURNDATACOPY RETURNDATASIZE PUSH1 0x0 REVERT JUMPDEST POP PUSH1 0xF PUSH1 0x0 SWAP1 SLOAD SWAP1 PUSH2 0x100 EXP SWAP1 DIV PUSH20 0xFFFFFFFFFFFFFFFFFFFFFFFFFFFFFFFFFFFFFFFF AND PUSH20 0xFFFFFFFFFFFFFFFFFFFFFFFFFFFFFFFFFFFFFFFF AND PUSH2 0x8FC PUSH2 0x1FCB PUSH1 0x2 DUP5 PUSH2 0x22F1 SWAP1 SWAP2 SWAP1 PUSH4 0xFFFFFFFF AND JUMP JUMPDEST SWAP1 DUP2 ISZERO MUL SWAP1 PUSH1 0x40 MLOAD PUSH1 0x0 PUSH1 0x40 MLOAD DUP1 DUP4 SUB DUP2 DUP6 DUP9 DUP9 CALL SWAP4 POP POP POP POP ISZERO DUP1 ISZERO PUSH2 0x1FF6 JUMPI RETURNDATASIZE PUSH1 0x0 DUP1 RETURNDATACOPY RETURNDATASIZE PUSH1 0x0 REVERT JUMPDEST POP POP JUMP JUMPDEST PUSH1 0x0 PUSH1 0x6 SLOAD DUP3 GT ISZERO PUSH2 0x2041 JUMPI PUSH1 0x40 MLOAD PUSH32 0x8C379A000000000000000000000000000000000000000000000000000000000 DUP2 MSTORE PUSH1 0x4 ADD PUSH2 0x2038 SWAP1 PUSH2 0x3558 JUMP JUMPDEST PUSH1 0x40 MLOAD DUP1 SWAP2 SUB SWAP1 REVERT JUMPDEST PUSH1 0x0 PUSH2 0x204B PUSH2 0x233B JUMP JUMPDEST SWAP1 POP PUSH2 0x2060 DUP2 DUP5 PUSH2 0x22F1 SWAP1 SWAP2 SWAP1 PUSH4 0xFFFFFFFF AND JUMP JUMPDEST SWAP2 POP POP SWAP2 SWAP1 POP JUMP JUMPDEST PUSH1 0x1 PUSH1 0x12 PUSH1 0x14 PUSH2 0x100 EXP DUP2 SLOAD DUP2 PUSH1 0xFF MUL NOT AND SWAP1 DUP4 ISZERO ISZERO MUL OR SWAP1 SSTORE POP PUSH1 0x0 PUSH1 0x2 PUSH8 0xFFFFFFFFFFFFFFFF DUP2 GT ISZERO PUSH2 0x20A0 JUMPI PUSH2 0x209F PUSH2 0x3578 JUMP JUMPDEST JUMPDEST PUSH1 0x40 MLOAD SWAP1 DUP1 DUP3 MSTORE DUP1 PUSH1 0x20 MUL PUSH1 0x20 ADD DUP3 ADD PUSH1 0x40 MSTORE DUP1 ISZERO PUSH2 0x20CE JUMPI DUP2 PUSH1 0x20 ADD PUSH1 0x20 DUP3 MUL DUP1 CALLDATASIZE DUP4 CALLDATACOPY DUP1 DUP3 ADD SWAP2 POP POP SWAP1 POP JUMPDEST POP SWAP1 POP ADDRESS DUP2 PUSH1 0x0 DUP2 MLOAD DUP2 LT PUSH2 0x20E6 JUMPI PUSH2 0x20E5 PUSH2 0x30C7 JUMP JUMPDEST JUMPDEST PUSH1 0x20 MUL PUSH1 0x20 ADD ADD SWAP1 PUSH20 0xFFFFFFFFFFFFFFFFFFFFFFFFFFFFFFFFFFFFFFFF AND SWAP1 DUP2 PUSH20 0xFFFFFFFFFFFFFFFFFFFFFFFFFFFFFFFFFFFFFFFF AND DUP2 MSTORE POP POP PUSH1 0x10 PUSH1 0x0 SWAP1 SLOAD SWAP1 PUSH2 0x100 EXP SWAP1 DIV PUSH20 0xFFFFFFFFFFFFFFFFFFFFFFFFFFFFFFFFFFFFFFFF AND PUSH20 0xFFFFFFFFFFFFFFFFFFFFFFFFFFFFFFFFFFFFFFFF AND PUSH4 0xAD5C4648 PUSH1 0x40 MLOAD DUP2 PUSH4 0xFFFFFFFF AND PUSH1 0xE0 SHL DUP2 MSTORE PUSH1 0x4 ADD PUSH1 0x20 PUSH1 0x40 MLOAD DUP1 DUP4 SUB DUP2 DUP7 GAS STATICCALL ISZERO DUP1 ISZERO PUSH2 0x218D JUMPI RETURNDATASIZE PUSH1 0x0 DUP1 RETURNDATACOPY RETURNDATASIZE PUSH1 0x0 REVERT JUMPDEST POP POP POP POP PUSH1 0x40 MLOAD RETURNDATASIZE PUSH1 0x1F NOT PUSH1 0x1F DUP3 ADD AND DUP3 ADD DUP1 PUSH1 0x40 MSTORE POP DUP2 ADD SWAP1 PUSH2 0x21B1 SWAP2 SWAP1 PUSH2 0x35BC JUMP JUMPDEST DUP2 PUSH1 0x1 DUP2 MLOAD DUP2 LT PUSH2 0x21C5 JUMPI PUSH2 0x21C4 PUSH2 0x30C7 JUMP JUMPDEST JUMPDEST PUSH1 0x20 MUL PUSH1 0x20 ADD ADD SWAP1 PUSH20 0xFFFFFFFFFFFFFFFFFFFFFFFFFFFFFFFFFFFFFFFF AND SWAP1 DUP2 PUSH20 0xFFFFFFFFFFFFFFFFFFFFFFFFFFFFFFFFFFFFFFFF AND DUP2 MSTORE POP POP PUSH2 0x222C ADDRESS PUSH1 0x10 PUSH1 0x0 SWAP1 SLOAD SWAP1 PUSH2 0x100 EXP SWAP1 DIV PUSH20 0xFFFFFFFFFFFFFFFFFFFFFFFFFFFFFFFFFFFFFFFF AND DUP5 PUSH2 0x1760 JUMP JUMPDEST PUSH1 0x10 PUSH1 0x0 SWAP1 SLOAD SWAP1 PUSH2 0x100 EXP SWAP1 DIV PUSH20 0xFFFFFFFFFFFFFFFFFFFFFFFFFFFFFFFFFFFFFFFF AND PUSH20 0xFFFFFFFFFFFFFFFFFFFFFFFFFFFFFFFFFFFFFFFF AND PUSH4 0x791AC947 DUP4 PUSH1 0x0 DUP5 ADDRESS TIMESTAMP PUSH1 0x40 MLOAD DUP7 PUSH4 0xFFFFFFFF AND PUSH1 0xE0 SHL DUP2 MSTORE PUSH1 0x4 ADD PUSH2 0x2290 SWAP6 SWAP5 SWAP4 SWAP3 SWAP2 SWAP1 PUSH2 0x36E2 JUMP JUMPDEST PUSH1 0x0 PUSH1 0x40 MLOAD DUP1 DUP4 SUB DUP2 PUSH1 0x0 DUP8 DUP1 EXTCODESIZE ISZERO DUP1 ISZERO PUSH2 0x22AA JUMPI PUSH1 0x0 DUP1 REVERT JUMPDEST POP GAS CALL ISZERO DUP1 ISZERO PUSH2 0x22BE JUMPI RETURNDATASIZE PUSH1 0x0 DUP1 RETURNDATACOPY RETURNDATASIZE PUSH1 0x0 REVERT JUMPDEST POP POP POP POP POP PUSH1 0x0 PUSH1 0x12 PUSH1 0x14 PUSH2 0x100 EXP DUP2 SLOAD DUP2 PUSH1 0xFF MUL NOT AND SWAP1 DUP4 ISZERO ISZERO MUL OR SWAP1 SSTORE POP POP JUMP JUMPDEST PUSH2 0x22EC DUP4 DUP4 DUP4 PUSH2 0x2366 JUMP JUMPDEST POP POP POP JUMP JUMPDEST PUSH1 0x0 PUSH2 0x2333 DUP4 DUP4 PUSH1 0x40 MLOAD DUP1 PUSH1 0x40 ADD PUSH1 0x40 MSTORE DUP1 PUSH1 0x1A DUP2 MSTORE PUSH1 0x20 ADD PUSH32 0x536166654D6174683A206469766973696F6E206279207A65726F000000000000 DUP2 MSTORE POP PUSH2 0x2531 JUMP JUMPDEST SWAP1 POP SWAP3 SWAP2 POP POP JUMP JUMPDEST PUSH1 0x0 DUP1 PUSH1 0x0 PUSH2 0x2348 PUSH2 0x2594 JUMP JUMPDEST SWAP2 POP SWAP2 POP PUSH2 0x235F DUP2 DUP4 PUSH2 0x22F1 SWAP1 SWAP2 SWAP1 PUSH4 0xFFFFFFFF AND JUMP JUMPDEST SWAP3 POP POP POP SWAP1 JUMP JUMPDEST PUSH1 0x0 DUP1 PUSH1 0x0 DUP1 PUSH1 0x0 DUP1 PUSH2 0x2378 DUP8 PUSH2 0x25F3 JUMP JUMPDEST SWAP6 POP SWAP6 POP SWAP6 POP SWAP6 POP SWAP6 POP SWAP6 POP PUSH2 0x23D6 DUP7 PUSH1 0x2 PUSH1 0x0 DUP13 PUSH20 0xFFFFFFFFFFFFFFFFFFFFFFFFFFFFFFFFFFFFFFFF AND PUSH20 0xFFFFFFFFFFFFFFFFFFFFFFFFFFFFFFFFFFFFFFFF AND DUP2 MSTORE PUSH1 0x20 ADD SWAP1 DUP2 MSTORE PUSH1 0x20 ADD PUSH1 0x0 KECCAK256 SLOAD PUSH2 0x265B SWAP1 SWAP2 SWAP1 PUSH4 0xFFFFFFFF AND JUMP JUMPDEST PUSH1 0x2 PUSH1 0x0 DUP12 PUSH20 0xFFFFFFFFFFFFFFFFFFFFFFFFFFFFFFFFFFFFFFFF AND PUSH20 0xFFFFFFFFFFFFFFFFFFFFFFFFFFFFFFFFFFFFFFFF AND DUP2 MSTORE PUSH1 0x20 ADD SWAP1 DUP2 MSTORE PUSH1 0x20 ADD PUSH1 0x0 KECCAK256 DUP2 SWAP1 SSTORE POP PUSH2 0x246B DUP6 PUSH1 0x2 PUSH1 0x0 DUP12 PUSH20 0xFFFFFFFFFFFFFFFFFFFFFFFFFFFFFFFFFFFFFFFF AND PUSH20 0xFFFFFFFFFFFFFFFFFFFFFFFFFFFFFFFFFFFFFFFF AND DUP2 MSTORE PUSH1 0x20 ADD SWAP1 DUP2 MSTORE PUSH1 0x20 ADD PUSH1 0x0 KECCAK256 SLOAD PUSH2 0x26A5 SWAP1 SWAP2 SWAP1 PUSH4 0xFFFFFFFF AND JUMP JUMPDEST PUSH1 0x2 PUSH1 0x0 DUP11 PUSH20 0xFFFFFFFFFFFFFFFFFFFFFFFFFFFFFFFFFFFFFFFF AND PUSH20 0xFFFFFFFFFFFFFFFFFFFFFFFFFFFFFFFFFFFFFFFF AND DUP2 MSTORE PUSH1 0x20 ADD SWAP1 DUP2 MSTORE PUSH1 0x20 ADD PUSH1 0x0 KECCAK256 DUP2 SWAP1 SSTORE POP PUSH2 0x24B7 DUP2 PUSH2 0x2703 JUMP JUMPDEST PUSH2 0x24C1 DUP5 DUP4 PUSH2 0x27C0 JUMP JUMPDEST DUP8 PUSH20 0xFFFFFFFFFFFFFFFFFFFFFFFFFFFFFFFFFFFFFFFF AND DUP10 PUSH20 0xFFFFFFFFFFFFFFFFFFFFFFFFFFFFFFFFFFFFFFFF AND PUSH32 0xDDF252AD1BE2C89B69C2B068FC378DAA952BA7F163C4A11628F55A4DF523B3EF DUP6 PUSH1 0x40 MLOAD PUSH2 0x251E SWAP2 SWAP1 PUSH2 0x2BEB JUMP JUMPDEST PUSH1 0x40 MLOAD DUP1 SWAP2 SUB SWAP1 LOG3 POP POP POP POP POP POP POP POP POP JUMP JUMPDEST PUSH1 0x0 DUP1 DUP4 GT DUP3 SWAP1 PUSH2 0x2578 JUMPI PUSH1 0x40 MLOAD PUSH32 0x8C379A000000000000000000000000000000000000000000000000000000000 DUP2 MSTORE PUSH1 0x4 ADD PUSH2 0x256F SWAP2 SWAP1 PUSH2 0x2A2C JUMP JUMPDEST PUSH1 0x40 MLOAD DUP1 SWAP2 SUB SWAP1 REVERT JUMPDEST POP PUSH1 0x0 DUP4 DUP6 PUSH2 0x2587 SWAP2 SWAP1 PUSH2 0x376B JUMP JUMPDEST SWAP1 POP DUP1 SWAP2 POP POP SWAP4 SWAP3 POP POP POP JUMP JUMPDEST PUSH1 0x0 DUP1 PUSH1 0x0 PUSH1 0x6 SLOAD SWAP1 POP PUSH1 0x0 PUSH8 0xDE0B6B3A7640000 SWAP1 POP PUSH2 0x25C8 PUSH8 0xDE0B6B3A7640000 PUSH1 0x6 SLOAD PUSH2 0x22F1 SWAP1 SWAP2 SWAP1 PUSH4 0xFFFFFFFF AND JUMP JUMPDEST DUP3 LT ISZERO PUSH2 0x25E6 JUMPI PUSH1 0x6 SLOAD PUSH8 0xDE0B6B3A7640000 SWAP4 POP SWAP4 POP POP POP PUSH2 0x25EF JUMP JUMPDEST DUP2 DUP2 SWAP4 POP SWAP4 POP POP POP JUMPDEST SWAP1 SWAP2 JUMP JUMPDEST PUSH1 0x0 DUP1 PUSH1 0x0 DUP1 PUSH1 0x0 DUP1 PUSH1 0x0 DUP1 PUSH1 0x0 PUSH2 0x2610 DUP11 PUSH1 0xC SLOAD PUSH1 0xD SLOAD PUSH2 0x27FA JUMP JUMPDEST SWAP3 POP SWAP3 POP SWAP3 POP PUSH1 0x0 PUSH2 0x2620 PUSH2 0x233B JUMP JUMPDEST SWAP1 POP PUSH1 0x0 DUP1 PUSH1 0x0 PUSH2 0x2633 DUP15 DUP8 DUP8 DUP8 PUSH2 0x2890 JUMP JUMPDEST SWAP3 POP SWAP3 POP SWAP3 POP DUP3 DUP3 DUP3 DUP10 DUP10 DUP10 SWAP13 POP SWAP13 POP SWAP13 POP SWAP13 POP SWAP13 POP SWAP13 POP POP POP POP POP POP POP POP SWAP2 SWAP4 SWAP6 POP SWAP2 SWAP4 SWAP6 JUMP JUMPDEST PUSH1 0x0 PUSH2 0x269D DUP4 DUP4 PUSH1 0x40 MLOAD DUP1 PUSH1 0x40 ADD PUSH1 0x40 MSTORE DUP1 PUSH1 0x1E DUP2 MSTORE PUSH1 0x20 ADD PUSH32 0x536166654D6174683A207375627472616374696F6E206F766572666C6F770000 DUP2 MSTORE POP PUSH2 0x1E9B JUMP JUMPDEST SWAP1 POP SWAP3 SWAP2 POP POP JUMP JUMPDEST PUSH1 0x0 DUP1 DUP3 DUP5 PUSH2 0x26B4 SWAP2 SWAP1 PUSH2 0x379C JUMP JUMPDEST SWAP1 POP DUP4 DUP2 LT ISZERO PUSH2 0x26F9 JUMPI PUSH1 0x40 MLOAD PUSH32 0x8C379A000000000000000000000000000000000000000000000000000000000 DUP2 MSTORE PUSH1 0x4 ADD PUSH2 0x26F0 SWAP1 PUSH2 0x383E JUMP JUMPDEST PUSH1 0x40 MLOAD DUP1 SWAP2 SUB SWAP1 REVERT JUMPDEST DUP1 SWAP2 POP POP SWAP3 SWAP2 POP POP JUMP JUMPDEST PUSH1 0x0 PUSH2 0x270D PUSH2 0x233B JUMP JUMPDEST SWAP1 POP PUSH1 0x0 PUSH2 0x2724 DUP3 DUP5 PUSH2 0x2919 SWAP1 SWAP2 SWAP1 PUSH4 0xFFFFFFFF AND JUMP JUMPDEST SWAP1 POP PUSH2 0x2778 DUP2 PUSH1 0x2 PUSH1 0x0 ADDRESS PUSH20 0xFFFFFFFFFFFFFFFFFFFFFFFFFFFFFFFFFFFFFFFF AND PUSH20 0xFFFFFFFFFFFFFFFFFFFFFFFFFFFFFFFFFFFFFFFF AND DUP2 MSTORE PUSH1 0x20 ADD SWAP1 DUP2 MSTORE PUSH1 0x20 ADD PUSH1 0x0 KECCAK256 SLOAD PUSH2 0x26A5 SWAP1 SWAP2 SWAP1 PUSH4 0xFFFFFFFF AND JUMP JUMPDEST PUSH1 0x2 PUSH1 0x0 ADDRESS PUSH20 0xFFFFFFFFFFFFFFFFFFFFFFFFFFFFFFFFFFFFFFFF AND PUSH20 0xFFFFFFFFFFFFFFFFFFFFFFFFFFFFFFFFFFFFFFFF AND DUP2 MSTORE PUSH1 0x20 ADD SWAP1 DUP2 MSTORE PUSH1 0x20 ADD PUSH1 0x0 KECCAK256 DUP2 SWAP1 SSTORE POP POP POP POP JUMP JUMPDEST PUSH2 0x27D5 DUP3 PUSH1 0x6 SLOAD PUSH2 0x265B SWAP1 SWAP2 SWAP1 PUSH4 0xFFFFFFFF AND JUMP JUMPDEST PUSH1 0x6 DUP2 SWAP1 SSTORE POP PUSH2 0x27F0 DUP2 PUSH1 0x7 SLOAD PUSH2 0x26A5 SWAP1 SWAP2 SWAP1 PUSH4 0xFFFFFFFF AND JUMP JUMPDEST PUSH1 0x7 DUP2 SWAP1 SSTORE POP POP POP JUMP JUMPDEST PUSH1 0x0 DUP1 PUSH1 0x0 DUP1 PUSH2 0x2826 PUSH1 0x64 PUSH2 0x2818 DUP9 DUP11 PUSH2 0x2919 SWAP1 SWAP2 SWAP1 PUSH4 0xFFFFFFFF AND JUMP JUMPDEST PUSH2 0x22F1 SWAP1 SWAP2 SWAP1 PUSH4 0xFFFFFFFF AND JUMP JUMPDEST SWAP1 POP PUSH1 0x0 PUSH2 0x2850 PUSH1 0x64 PUSH2 0x2842 DUP9 DUP12 PUSH2 0x2919 SWAP1 SWAP2 SWAP1 PUSH4 0xFFFFFFFF AND JUMP JUMPDEST PUSH2 0x22F1 SWAP1 SWAP2 SWAP1 PUSH4 0xFFFFFFFF AND JUMP JUMPDEST SWAP1 POP PUSH1 0x0 PUSH2 0x2879 DUP3 PUSH2 0x286B DUP6 DUP13 PUSH2 0x265B SWAP1 SWAP2 SWAP1 PUSH4 0xFFFFFFFF AND JUMP JUMPDEST PUSH2 0x265B SWAP1 SWAP2 SWAP1 PUSH4 0xFFFFFFFF AND JUMP JUMPDEST SWAP1 POP DUP1 DUP4 DUP4 SWAP6 POP SWAP6 POP SWAP6 POP POP POP POP SWAP4 POP SWAP4 POP SWAP4 SWAP1 POP JUMP JUMPDEST PUSH1 0x0 DUP1 PUSH1 0x0 DUP1 PUSH2 0x28A9 DUP6 DUP10 PUSH2 0x2919 SWAP1 SWAP2 SWAP1 PUSH4 0xFFFFFFFF AND JUMP JUMPDEST SWAP1 POP PUSH1 0x0 PUSH2 0x28C0 DUP7 DUP10 PUSH2 0x2919 SWAP1 SWAP2 SWAP1 PUSH4 0xFFFFFFFF AND JUMP JUMPDEST SWAP1 POP PUSH1 0x0 PUSH2 0x28D7 DUP8 DUP10 PUSH2 0x2919 SWAP1 SWAP2 SWAP1 PUSH4 0xFFFFFFFF AND JUMP JUMPDEST SWAP1 POP PUSH1 0x0 PUSH2 0x2900 DUP3 PUSH2 0x28F2 DUP6 DUP8 PUSH2 0x265B SWAP1 SWAP2 SWAP1 PUSH4 0xFFFFFFFF AND JUMP JUMPDEST PUSH2 0x265B SWAP1 SWAP2 SWAP1 PUSH4 0xFFFFFFFF AND JUMP JUMPDEST SWAP1 POP DUP4 DUP2 DUP5 SWAP7 POP SWAP7 POP SWAP7 POP POP POP POP POP SWAP5 POP SWAP5 POP SWAP5 SWAP2 POP POP JUMP JUMPDEST PUSH1 0x0 DUP1 DUP4 SUB PUSH2 0x292B JUMPI PUSH1 0x0 SWAP1 POP PUSH2 0x298D JUMP JUMPDEST PUSH1 0x0 DUP3 DUP5 PUSH2 0x2939 SWAP2 SWAP1 PUSH2 0x385E JUMP JUMPDEST SWAP1 POP DUP3 DUP5 DUP3 PUSH2 0x2948 SWAP2 SWAP1 PUSH2 0x376B JUMP JUMPDEST EQ PUSH2 0x2988 JUMPI PUSH1 0x40 MLOAD PUSH32 0x8C379A000000000000000000000000000000000000000000000000000000000 DUP2 MSTORE PUSH1 0x4 ADD PUSH2 0x297F SWAP1 PUSH2 0x392A JUMP JUMPDEST PUSH1 0x40 MLOAD DUP1 SWAP2 SUB SWAP1 REVERT JUMPDEST DUP1 SWAP2 POP POP JUMPDEST SWAP3 SWAP2 POP POP JUMP JUMPDEST PUSH1 0x0 DUP2 MLOAD SWAP1 POP SWAP2 SWAP1 POP JUMP JUMPDEST PUSH1 0x0 DUP3 DUP3 MSTORE PUSH1 0x20 DUP3 ADD SWAP1 POP SWAP3 SWAP2 POP POP JUMP JUMPDEST PUSH1 0x0 JUMPDEST DUP4 DUP2 LT ISZERO PUSH2 0x29CD JUMPI DUP1 DUP3 ADD MLOAD DUP2 DUP5 ADD MSTORE PUSH1 0x20 DUP2 ADD SWAP1 POP PUSH2 0x29B2 JUMP JUMPDEST DUP4 DUP2 GT ISZERO PUSH2 0x29DC JUMPI PUSH1 0x0 DUP5 DUP5 ADD MSTORE JUMPDEST POP POP POP POP JUMP JUMPDEST PUSH1 0x0 PUSH1 0x1F NOT PUSH1 0x1F DUP4 ADD AND SWAP1 POP SWAP2 SWAP1 POP JUMP JUMPDEST PUSH1 0x0 PUSH2 0x29FE DUP3 PUSH2 0x2993 JUMP JUMPDEST PUSH2 0x2A08 DUP2 DUP6 PUSH2 0x299E JUMP JUMPDEST SWAP4 POP PUSH2 0x2A18 DUP2 DUP6 PUSH1 0x20 DUP7 ADD PUSH2 0x29AF JUMP JUMPDEST PUSH2 0x2A21 DUP2 PUSH2 0x29E2 JUMP JUMPDEST DUP5 ADD SWAP2 POP POP SWAP3 SWAP2 POP POP JUMP JUMPDEST PUSH1 0x0 PUSH1 0x20 DUP3 ADD SWAP1 POP DUP2 DUP2 SUB PUSH1 0x0 DUP4 ADD MSTORE PUSH2 0x2A46 DUP2 DUP5 PUSH2 0x29F3 JUMP JUMPDEST SWAP1 POP SWAP3 SWAP2 POP POP JUMP JUMPDEST PUSH1 0x0 DUP1 REVERT JUMPDEST PUSH1 0x0 DUP1 REVERT JUMPDEST PUSH1 0x0 PUSH20 0xFFFFFFFFFFFFFFFFFFFFFFFFFFFFFFFFFFFFFFFF DUP3 AND SWAP1 POP SWAP2 SWAP1 POP JUMP JUMPDEST PUSH1 0x0 PUSH2 0x2A83 DUP3 PUSH2 0x2A58 JUMP JUMPDEST SWAP1 POP SWAP2 SWAP1 POP JUMP JUMPDEST PUSH2 0x2A93 DUP2 PUSH2 0x2A78 JUMP JUMPDEST DUP2 EQ PUSH2 0x2A9E JUMPI PUSH1 0x0 DUP1 REVERT JUMPDEST POP JUMP JUMPDEST PUSH1 0x0 DUP2 CALLDATALOAD SWAP1 POP PUSH2 0x2AB0 DUP2 PUSH2 0x2A8A JUMP JUMPDEST SWAP3 SWAP2 POP POP JUMP JUMPDEST PUSH1 0x0 DUP2 SWAP1 POP SWAP2 SWAP1 POP JUMP JUMPDEST PUSH2 0x2AC9 DUP2 PUSH2 0x2AB6 JUMP JUMPDEST DUP2 EQ PUSH2 0x2AD4 JUMPI PUSH1 0x0 DUP1 REVERT JUMPDEST POP JUMP JUMPDEST PUSH1 0x0 DUP2 CALLDATALOAD SWAP1 POP PUSH2 0x2AE6 DUP2 PUSH2 0x2AC0 JUMP JUMPDEST SWAP3 SWAP2 POP POP JUMP JUMPDEST PUSH1 0x0 DUP1 PUSH1 0x40 DUP4 DUP6 SUB SLT ISZERO PUSH2 0x2B03 JUMPI PUSH2 0x2B02 PUSH2 0x2A4E JUMP JUMPDEST JUMPDEST PUSH1 0x0 PUSH2 0x2B11 DUP6 DUP3 DUP7 ADD PUSH2 0x2AA1 JUMP JUMPDEST SWAP3 POP POP PUSH1 0x20 PUSH2 0x2B22 DUP6 DUP3 DUP7 ADD PUSH2 0x2AD7 JUMP JUMPDEST SWAP2 POP POP SWAP3 POP SWAP3 SWAP1 POP JUMP JUMPDEST PUSH1 0x0 DUP2 ISZERO ISZERO SWAP1 POP SWAP2 SWAP1 POP JUMP JUMPDEST PUSH2 0x2B41 DUP2 PUSH2 0x2B2C JUMP JUMPDEST DUP3 MSTORE POP POP JUMP JUMPDEST PUSH1 0x0 PUSH1 0x20 DUP3 ADD SWAP1 POP PUSH2 0x2B5C PUSH1 0x0 DUP4 ADD DUP5 PUSH2 0x2B38 JUMP JUMPDEST SWAP3 SWAP2 POP POP JUMP JUMPDEST PUSH1 0x0 DUP2 SWAP1 POP SWAP2 SWAP1 POP JUMP JUMPDEST PUSH1 0x0 PUSH2 0x2B87 PUSH2 0x2B82 PUSH2 0x2B7D DUP5 PUSH2 0x2A58 JUMP JUMPDEST PUSH2 0x2B62 JUMP JUMPDEST PUSH2 0x2A58 JUMP JUMPDEST SWAP1 POP SWAP2 SWAP1 POP JUMP JUMPDEST PUSH1 0x0 PUSH2 0x2B99 DUP3 PUSH2 0x2B6C JUMP JUMPDEST SWAP1 POP SWAP2 SWAP1 POP JUMP JUMPDEST PUSH1 0x0 PUSH2 0x2BAB DUP3 PUSH2 0x2B8E JUMP JUMPDEST SWAP1 POP SWAP2 SWAP1 POP JUMP JUMPDEST PUSH2 0x2BBB DUP2 PUSH2 0x2BA0 JUMP JUMPDEST DUP3 MSTORE POP POP JUMP JUMPDEST PUSH1 0x0 PUSH1 0x20 DUP3 ADD SWAP1 POP PUSH2 0x2BD6 PUSH1 0x0 DUP4 ADD DUP5 PUSH2 0x2BB2 JUMP JUMPDEST SWAP3 SWAP2 POP POP JUMP JUMPDEST PUSH2 0x2BE5 DUP2 PUSH2 0x2AB6 JUMP JUMPDEST DUP3 MSTORE POP POP JUMP JUMPDEST PUSH1 0x0 PUSH1 0x20 DUP3 ADD SWAP1 POP PUSH2 0x2C00 PUSH1 0x0 DUP4 ADD DUP5 PUSH2 0x2BDC JUMP JUMPDEST SWAP3 SWAP2 POP POP JUMP JUMPDEST PUSH1 0x0 DUP1 PUSH1 0x0 PUSH1 0x60 DUP5 DUP7 SUB SLT ISZERO PUSH2 0x2C1F JUMPI PUSH2 0x2C1E PUSH2 0x2A4E JUMP JUMPDEST JUMPDEST PUSH1 0x0 PUSH2 0x2C2D DUP7 DUP3 DUP8 ADD PUSH2 0x2AA1 JUMP JUMPDEST SWAP4 POP POP PUSH1 0x20 PUSH2 0x2C3E DUP7 DUP3 DUP8 ADD PUSH2 0x2AA1 JUMP JUMPDEST SWAP3 POP POP PUSH1 0x40 PUSH2 0x2C4F DUP7 DUP3 DUP8 ADD PUSH2 0x2AD7 JUMP JUMPDEST SWAP2 POP POP SWAP3 POP SWAP3 POP SWAP3 JUMP JUMPDEST PUSH1 0x0 PUSH1 0xFF DUP3 AND SWAP1 POP SWAP2 SWAP1 POP JUMP JUMPDEST PUSH2 0x2C6F DUP2 PUSH2 0x2C59 JUMP JUMPDEST DUP3 MSTORE POP POP JUMP JUMPDEST PUSH1 0x0 PUSH1 0x20 DUP3 ADD SWAP1 POP PUSH2 0x2C8A PUSH1 0x0 DUP4 ADD DUP5 PUSH2 0x2C66 JUMP JUMPDEST SWAP3 SWAP2 POP POP JUMP JUMPDEST PUSH2 0x2C99 DUP2 PUSH2 0x2A78 JUMP JUMPDEST DUP3 MSTORE POP POP JUMP JUMPDEST PUSH1 0x0 PUSH1 0x20 DUP3 ADD SWAP1 POP PUSH2 0x2CB4 PUSH1 0x0 DUP4 ADD DUP5 PUSH2 0x2C90 JUMP JUMPDEST SWAP3 SWAP2 POP POP JUMP JUMPDEST PUSH2 0x2CC3 DUP2 PUSH2 0x2B2C JUMP JUMPDEST DUP2 EQ PUSH2 0x2CCE JUMPI PUSH1 0x0 DUP1 REVERT JUMPDEST POP JUMP JUMPDEST PUSH1 0x0 DUP2 CALLDATALOAD SWAP1 POP PUSH2 0x2CE0 DUP2 PUSH2 0x2CBA JUMP JUMPDEST SWAP3 SWAP2 POP POP JUMP JUMPDEST PUSH1 0x0 PUSH1 0x20 DUP3 DUP5 SUB SLT ISZERO PUSH2 0x2CFC JUMPI PUSH2 0x2CFB PUSH2 0x2A4E JUMP JUMPDEST JUMPDEST PUSH1 0x0 PUSH2 0x2D0A DUP5 DUP3 DUP6 ADD PUSH2 0x2CD1 JUMP JUMPDEST SWAP2 POP POP SWAP3 SWAP2 POP POP JUMP JUMPDEST PUSH1 0x0 PUSH1 0x20 DUP3 DUP5 SUB SLT ISZERO PUSH2 0x2D29 JUMPI PUSH2 0x2D28 PUSH2 0x2A4E JUMP JUMPDEST JUMPDEST PUSH1 0x0 PUSH2 0x2D37 DUP5 DUP3 DUP6 ADD PUSH2 0x2AA1 JUMP JUMPDEST SWAP2 POP POP SWAP3 SWAP2 POP POP JUMP JUMPDEST PUSH1 0x0 PUSH2 0x2D4B DUP3 PUSH2 0x2A58 JUMP JUMPDEST SWAP1 POP SWAP2 SWAP1 POP JUMP JUMPDEST PUSH2 0x2D5B DUP2 PUSH2 0x2D40 JUMP JUMPDEST DUP2 EQ PUSH2 0x2D66 JUMPI PUSH1 0x0 DUP1 REVERT JUMPDEST POP JUMP JUMPDEST PUSH1 0x0 DUP2 CALLDATALOAD SWAP1 POP PUSH2 0x2D78 DUP2 PUSH2 0x2D52 JUMP JUMPDEST SWAP3 SWAP2 POP POP JUMP JUMPDEST PUSH1 0x0 PUSH1 0x20 DUP3 DUP5 SUB SLT ISZERO PUSH2 0x2D94 JUMPI PUSH2 0x2D93 PUSH2 0x2A4E JUMP JUMPDEST JUMPDEST PUSH1 0x0 PUSH2 0x2DA2 DUP5 DUP3 DUP6 ADD PUSH2 0x2D69 JUMP JUMPDEST SWAP2 POP POP SWAP3 SWAP2 POP POP JUMP JUMPDEST PUSH1 0x0 DUP1 PUSH1 0x0 DUP1 PUSH1 0x80 DUP6 DUP8 SUB SLT ISZERO PUSH2 0x2DC5 JUMPI PUSH2 0x2DC4 PUSH2 0x2A4E JUMP JUMPDEST JUMPDEST PUSH1 0x0 PUSH2 0x2DD3 DUP8 DUP3 DUP9 ADD PUSH2 0x2AD7 JUMP JUMPDEST SWAP5 POP POP PUSH1 0x20 PUSH2 0x2DE4 DUP8 DUP3 DUP9 ADD PUSH2 0x2AD7 JUMP JUMPDEST SWAP4 POP POP PUSH1 0x40 PUSH2 0x2DF5 DUP8 DUP3 DUP9 ADD PUSH2 0x2AD7 JUMP JUMPDEST SWAP3 POP POP PUSH1 0x60 PUSH2 0x2E06 DUP8 DUP3 DUP9 ADD PUSH2 0x2AD7 JUMP JUMPDEST SWAP2 POP POP SWAP3 SWAP6 SWAP2 SWAP5 POP SWAP3 POP JUMP JUMPDEST PUSH1 0x0 DUP1 REVERT JUMPDEST PUSH1 0x0 DUP1 REVERT JUMPDEST PUSH1 0x0 DUP1 REVERT JUMPDEST PUSH1 0x0 DUP1 DUP4 PUSH1 0x1F DUP5 ADD SLT PUSH2 0x2E37 JUMPI PUSH2 0x2E36 PUSH2 0x2E12 JUMP JUMPDEST JUMPDEST DUP3 CALLDATALOAD SWAP1 POP PUSH8 0xFFFFFFFFFFFFFFFF DUP2 GT ISZERO PUSH2 0x2E54 JUMPI PUSH2 0x2E53 PUSH2 0x2E17 JUMP JUMPDEST JUMPDEST PUSH1 0x20 DUP4 ADD SWAP2 POP DUP4 PUSH1 0x20 DUP3 MUL DUP4 ADD GT ISZERO PUSH2 0x2E70 JUMPI PUSH2 0x2E6F PUSH2 0x2E1C JUMP JUMPDEST JUMPDEST SWAP3 POP SWAP3 SWAP1 POP JUMP JUMPDEST PUSH1 0x0 DUP1 PUSH1 0x0 PUSH1 0x40 DUP5 DUP7 SUB SLT ISZERO PUSH2 0x2E90 JUMPI PUSH2 0x2E8F PUSH2 0x2A4E JUMP JUMPDEST JUMPDEST PUSH1 0x0 DUP5 ADD CALLDATALOAD PUSH8 0xFFFFFFFFFFFFFFFF DUP2 GT ISZERO PUSH2 0x2EAE JUMPI PUSH2 0x2EAD PUSH2 0x2A53 JUMP JUMPDEST JUMPDEST PUSH2 0x2EBA DUP7 DUP3 DUP8 ADD PUSH2 0x2E21 JUMP JUMPDEST SWAP4 POP SWAP4 POP POP PUSH1 0x20 PUSH2 0x2ECD DUP7 DUP3 DUP8 ADD PUSH2 0x2CD1 JUMP JUMPDEST SWAP2 POP POP SWAP3 POP SWAP3 POP SWAP3 JUMP JUMPDEST PUSH1 0x0 DUP1 PUSH1 0x40 DUP4 DUP6 SUB SLT ISZERO PUSH2 0x2EEE JUMPI PUSH2 0x2EED PUSH2 0x2A4E JUMP JUMPDEST JUMPDEST PUSH1 0x0 PUSH2 0x2EFC DUP6 DUP3 DUP7 ADD PUSH2 0x2AA1 JUMP JUMPDEST SWAP3 POP POP PUSH1 0x20 PUSH2 0x2F0D DUP6 DUP3 DUP7 ADD PUSH2 0x2AA1 JUMP JUMPDEST SWAP2 POP POP SWAP3 POP SWAP3 SWAP1 POP JUMP JUMPDEST PUSH32 0x43616C6C6572206973206E6F7420746865206465760000000000000000000000 PUSH1 0x0 DUP3 ADD MSTORE POP JUMP JUMPDEST PUSH1 0x0 PUSH2 0x2F4D PUSH1 0x15 DUP4 PUSH2 0x299E JUMP JUMPDEST SWAP2 POP PUSH2 0x2F58 DUP3 PUSH2 0x2F17 JUMP JUMPDEST PUSH1 0x20 DUP3 ADD SWAP1 POP SWAP2 SWAP1 POP JUMP JUMPDEST PUSH1 0x0 PUSH1 0x20 DUP3 ADD SWAP1 POP DUP2 DUP2 SUB PUSH1 0x0 DUP4 ADD MSTORE PUSH2 0x2F7C DUP2 PUSH2 0x2F40 JUMP JUMPDEST SWAP1 POP SWAP2 SWAP1 POP JUMP JUMPDEST PUSH32 0x43616C6C6572206973206E6F7420746865206F776E6572000000000000000000 PUSH1 0x0 DUP3 ADD MSTORE POP JUMP JUMPDEST PUSH1 0x0 PUSH2 0x2FB9 PUSH1 0x17 DUP4 PUSH2 0x299E JUMP JUMPDEST SWAP2 POP PUSH2 0x2FC4 DUP3 PUSH2 0x2F83 JUMP JUMPDEST PUSH1 0x20 DUP3 ADD SWAP1 POP SWAP2 SWAP1 POP JUMP JUMPDEST PUSH1 0x0 PUSH1 0x20 DUP3 ADD SWAP1 POP DUP2 DUP2 SUB PUSH1 0x0 DUP4 ADD MSTORE PUSH2 0x2FE8 DUP2 PUSH2 0x2FAC JUMP JUMPDEST SWAP1 POP SWAP2 SWAP1 POP JUMP JUMPDEST PUSH32 0x52656469732063616E6E6F74206265206D6F7265207468616E2031302E000000 PUSH1 0x0 DUP3 ADD MSTORE POP JUMP JUMPDEST PUSH1 0x0 PUSH2 0x3025 PUSH1 0x1D DUP4 PUSH2 0x299E JUMP JUMPDEST SWAP2 POP PUSH2 0x3030 DUP3 PUSH2 0x2FEF JUMP JUMPDEST PUSH1 0x20 DUP3 ADD SWAP1 POP SWAP2 SWAP1 POP JUMP JUMPDEST PUSH1 0x0 PUSH1 0x20 DUP3 ADD SWAP1 POP DUP2 DUP2 SUB PUSH1 0x0 DUP4 ADD MSTORE PUSH2 0x3054 DUP2 PUSH2 0x3018 JUMP JUMPDEST SWAP1 POP SWAP2 SWAP1 POP JUMP JUMPDEST PUSH32 0x5461782063616E6E6F74206265206D6F7265207468616E20362E000000000000 PUSH1 0x0 DUP3 ADD MSTORE POP JUMP JUMPDEST PUSH1 0x0 PUSH2 0x3091 PUSH1 0x1A DUP4 PUSH2 0x299E JUMP JUMPDEST SWAP2 POP PUSH2 0x309C DUP3 PUSH2 0x305B JUMP JUMPDEST PUSH1 0x20 DUP3 ADD SWAP1 POP SWAP2 SWAP1 POP JUMP JUMPDEST PUSH1 0x0 PUSH1 0x20 DUP3 ADD SWAP1 POP DUP2 DUP2 SUB PUSH1 0x0 DUP4 ADD MSTORE PUSH2 0x30C0 DUP2 PUSH2 0x3084 JUMP JUMPDEST SWAP1 POP SWAP2 SWAP1 POP JUMP JUMPDEST PUSH32 0x4E487B7100000000000000000000000000000000000000000000000000000000 PUSH1 0x0 MSTORE PUSH1 0x32 PUSH1 0x4 MSTORE PUSH1 0x24 PUSH1 0x0 REVERT JUMPDEST PUSH32 0x4E487B7100000000000000000000000000000000000000000000000000000000 PUSH1 0x0 MSTORE PUSH1 0x11 PUSH1 0x4 MSTORE PUSH1 0x24 PUSH1 0x0 REVERT JUMPDEST PUSH1 0x0 PUSH2 0x3130 DUP3 PUSH2 0x2AB6 JUMP JUMPDEST SWAP2 POP PUSH32 0xFFFFFFFFFFFFFFFFFFFFFFFFFFFFFFFFFFFFFFFFFFFFFFFFFFFFFFFFFFFFFFFF DUP3 SUB PUSH2 0x3162 JUMPI PUSH2 0x3161 PUSH2 0x30F6 JUMP JUMPDEST JUMPDEST PUSH1 0x1 DUP3 ADD SWAP1 POP SWAP2 SWAP1 POP JUMP JUMPDEST PUSH1 0x0 PUSH1 0x40 DUP3 ADD SWAP1 POP PUSH2 0x3182 PUSH1 0x0 DUP4 ADD DUP6 PUSH2 0x2C90 JUMP JUMPDEST PUSH2 0x318F PUSH1 0x20 DUP4 ADD DUP5 PUSH2 0x2BDC JUMP JUMPDEST SWAP4 SWAP3 POP POP POP JUMP JUMPDEST PUSH1 0x0 DUP2 MLOAD SWAP1 POP PUSH2 0x31A5 DUP2 PUSH2 0x2CBA JUMP JUMPDEST SWAP3 SWAP2 POP POP JUMP JUMPDEST PUSH1 0x0 PUSH1 0x20 DUP3 DUP5 SUB SLT ISZERO PUSH2 0x31C1 JUMPI PUSH2 0x31C0 PUSH2 0x2A4E JUMP JUMPDEST JUMPDEST PUSH1 0x0 PUSH2 0x31CF DUP5 DUP3 DUP6 ADD PUSH2 0x3196 JUMP JUMPDEST SWAP2 POP POP SWAP3 SWAP2 POP POP JUMP JUMPDEST PUSH32 0x45524332303A20617070726F76652066726F6D20746865207A65726F20616464 PUSH1 0x0 DUP3 ADD MSTORE PUSH32 0x7265737300000000000000000000000000000000000000000000000000000000 PUSH1 0x20 DUP3 ADD MSTORE POP JUMP JUMPDEST PUSH1 0x0 PUSH2 0x3234 PUSH1 0x24 DUP4 PUSH2 0x299E JUMP JUMPDEST SWAP2 POP PUSH2 0x323F DUP3 PUSH2 0x31D8 JUMP JUMPDEST PUSH1 0x40 DUP3 ADD SWAP1 POP SWAP2 SWAP1 POP JUMP JUMPDEST PUSH1 0x0 PUSH1 0x20 DUP3 ADD SWAP1 POP DUP2 DUP2 SUB PUSH1 0x0 DUP4 ADD MSTORE PUSH2 0x3263 DUP2 PUSH2 0x3227 JUMP JUMPDEST SWAP1 POP SWAP2 SWAP1 POP JUMP JUMPDEST PUSH32 0x45524332303A20617070726F766520746F20746865207A65726F206164647265 PUSH1 0x0 DUP3 ADD MSTORE PUSH32 0x7373000000000000000000000000000000000000000000000000000000000000 PUSH1 0x20 DUP3 ADD MSTORE POP JUMP JUMPDEST PUSH1 0x0 PUSH2 0x32C6 PUSH1 0x22 DUP4 PUSH2 0x299E JUMP JUMPDEST SWAP2 POP PUSH2 0x32D1 DUP3 PUSH2 0x326A JUMP JUMPDEST PUSH1 0x40 DUP3 ADD SWAP1 POP SWAP2 SWAP1 POP JUMP JUMPDEST PUSH1 0x0 PUSH1 0x20 DUP3 ADD SWAP1 POP DUP2 DUP2 SUB PUSH1 0x0 DUP4 ADD MSTORE PUSH2 0x32F5 DUP2 PUSH2 0x32B9 JUMP JUMPDEST SWAP1 POP SWAP2 SWAP1 POP JUMP JUMPDEST PUSH32 0x45524332303A207472616E736665722066726F6D20746865207A65726F206164 PUSH1 0x0 DUP3 ADD MSTORE PUSH32 0x6472657373000000000000000000000000000000000000000000000000000000 PUSH1 0x20 DUP3 ADD MSTORE POP JUMP JUMPDEST PUSH1 0x0 PUSH2 0x3358 PUSH1 0x25 DUP4 PUSH2 0x299E JUMP JUMPDEST SWAP2 POP PUSH2 0x3363 DUP3 PUSH2 0x32FC JUMP JUMPDEST PUSH1 0x40 DUP3 ADD SWAP1 POP SWAP2 SWAP1 POP JUMP JUMPDEST PUSH1 0x0 PUSH1 0x20 DUP3 ADD SWAP1 POP DUP2 DUP2 SUB PUSH1 0x0 DUP4 ADD MSTORE PUSH2 0x3387 DUP2 PUSH2 0x334B JUMP JUMPDEST SWAP1 POP SWAP2 SWAP1 POP JUMP JUMPDEST PUSH32 0x45524332303A207472616E7366657220746F20746865207A65726F2061646472 PUSH1 0x0 DUP3 ADD MSTORE PUSH32 0x6573730000000000000000000000000000000000000000000000000000000000 PUSH1 0x20 DUP3 ADD MSTORE POP JUMP JUMPDEST PUSH1 0x0 PUSH2 0x33EA PUSH1 0x23 DUP4 PUSH2 0x299E JUMP JUMPDEST SWAP2 POP PUSH2 0x33F5 DUP3 PUSH2 0x338E JUMP JUMPDEST PUSH1 0x40 DUP3 ADD SWAP1 POP SWAP2 SWAP1 POP JUMP JUMPDEST PUSH1 0x0 PUSH1 0x20 DUP3 ADD SWAP1 POP DUP2 DUP2 SUB PUSH1 0x0 DUP4 ADD MSTORE PUSH2 0x3419 DUP2 PUSH2 0x33DD JUMP JUMPDEST SWAP1 POP SWAP2 SWAP1 POP JUMP JUMPDEST PUSH32 0x5472616E7366657220616D6F756E74206D757374206265206772656174657220 PUSH1 0x0 DUP3 ADD MSTORE PUSH32 0x7468616E207A65726F0000000000000000000000000000000000000000000000 PUSH1 0x20 DUP3 ADD MSTORE POP JUMP JUMPDEST PUSH1 0x0 PUSH2 0x347C PUSH1 0x29 DUP4 PUSH2 0x299E JUMP JUMPDEST SWAP2 POP PUSH2 0x3487 DUP3 PUSH2 0x3420 JUMP JUMPDEST PUSH1 0x40 DUP3 ADD SWAP1 POP SWAP2 SWAP1 POP JUMP JUMPDEST PUSH1 0x0 PUSH1 0x20 DUP3 ADD SWAP1 POP DUP2 DUP2 SUB PUSH1 0x0 DUP4 ADD MSTORE PUSH2 0x34AB DUP2 PUSH2 0x346F JUMP JUMPDEST SWAP1 POP SWAP2 SWAP1 POP JUMP JUMPDEST PUSH1 0x0 PUSH2 0x34BD DUP3 PUSH2 0x2AB6 JUMP JUMPDEST SWAP2 POP PUSH2 0x34C8 DUP4 PUSH2 0x2AB6 JUMP JUMPDEST SWAP3 POP DUP3 DUP3 LT ISZERO PUSH2 0x34DB JUMPI PUSH2 0x34DA PUSH2 0x30F6 JUMP JUMPDEST JUMPDEST DUP3 DUP3 SUB SWAP1 POP SWAP3 SWAP2 POP POP JUMP JUMPDEST PUSH32 0x416D6F756E74206D757374206265206C657373207468616E20746F74616C2072 PUSH1 0x0 DUP3 ADD MSTORE PUSH32 0x65666C656374696F6E7300000000000000000000000000000000000000000000 PUSH1 0x20 DUP3 ADD MSTORE POP JUMP JUMPDEST PUSH1 0x0 PUSH2 0x3542 PUSH1 0x2A DUP4 PUSH2 0x299E JUMP JUMPDEST SWAP2 POP PUSH2 0x354D DUP3 PUSH2 0x34E6 JUMP JUMPDEST PUSH1 0x40 DUP3 ADD SWAP1 POP SWAP2 SWAP1 POP JUMP JUMPDEST PUSH1 0x0 PUSH1 0x20 DUP3 ADD SWAP1 POP DUP2 DUP2 SUB PUSH1 0x0 DUP4 ADD MSTORE PUSH2 0x3571 DUP2 PUSH2 0x3535 JUMP JUMPDEST SWAP1 POP SWAP2 SWAP1 POP JUMP JUMPDEST PUSH32 0x4E487B7100000000000000000000000000000000000000000000000000000000 PUSH1 0x0 MSTORE PUSH1 0x41 PUSH1 0x4 MSTORE PUSH1 0x24 PUSH1 0x0 REVERT JUMPDEST PUSH1 0x0 DUP2 MLOAD SWAP1 POP PUSH2 0x35B6 DUP2 PUSH2 0x2A8A JUMP JUMPDEST SWAP3 SWAP2 POP POP JUMP JUMPDEST PUSH1 0x0 PUSH1 0x20 DUP3 DUP5 SUB SLT ISZERO PUSH2 0x35D2 JUMPI PUSH2 0x35D1 PUSH2 0x2A4E JUMP JUMPDEST JUMPDEST PUSH1 0x0 PUSH2 0x35E0 DUP5 DUP3 DUP6 ADD PUSH2 0x35A7 JUMP JUMPDEST SWAP2 POP POP SWAP3 SWAP2 POP POP JUMP JUMPDEST PUSH1 0x0 DUP2 SWAP1 POP SWAP2 SWAP1 POP JUMP JUMPDEST PUSH1 0x0 PUSH2 0x360E PUSH2 0x3609 PUSH2 0x3604 DUP5 PUSH2 0x35E9 JUMP JUMPDEST PUSH2 0x2B62 JUMP JUMPDEST PUSH2 0x2AB6 JUMP JUMPDEST SWAP1 POP SWAP2 SWAP1 POP JUMP JUMPDEST PUSH2 0x361E DUP2 PUSH2 0x35F3 JUMP JUMPDEST DUP3 MSTORE POP POP JUMP JUMPDEST PUSH1 0x0 DUP2 MLOAD SWAP1 POP SWAP2 SWAP1 POP JUMP JUMPDEST PUSH1 0x0 DUP3 DUP3 MSTORE PUSH1 0x20 DUP3 ADD SWAP1 POP SWAP3 SWAP2 POP POP JUMP JUMPDEST PUSH1 0x0 DUP2 SWAP1 POP PUSH1 0x20 DUP3 ADD SWAP1 POP SWAP2 SWAP1 POP JUMP JUMPDEST PUSH2 0x3659 DUP2 PUSH2 0x2A78 JUMP JUMPDEST DUP3 MSTORE POP POP JUMP JUMPDEST PUSH1 0x0 PUSH2 0x366B DUP4 DUP4 PUSH2 0x3650 JUMP JUMPDEST PUSH1 0x20 DUP4 ADD SWAP1 POP SWAP3 SWAP2 POP POP JUMP JUMPDEST PUSH1 0x0 PUSH1 0x20 DUP3 ADD SWAP1 POP SWAP2 SWAP1 POP JUMP JUMPDEST PUSH1 0x0 PUSH2 0x368F DUP3 PUSH2 0x3624 JUMP JUMPDEST PUSH2 0x3699 DUP2 DUP6 PUSH2 0x362F JUMP JUMPDEST SWAP4 POP PUSH2 0x36A4 DUP4 PUSH2 0x3640 JUMP JUMPDEST DUP1 PUSH1 0x0 JUMPDEST DUP4 DUP2 LT ISZERO PUSH2 0x36D5 JUMPI DUP2 MLOAD PUSH2 0x36BC DUP9 DUP3 PUSH2 0x365F JUMP JUMPDEST SWAP8 POP PUSH2 0x36C7 DUP4 PUSH2 0x3677 JUMP JUMPDEST SWAP3 POP POP PUSH1 0x1 DUP2 ADD SWAP1 POP PUSH2 0x36A8 JUMP JUMPDEST POP DUP6 SWAP4 POP POP POP POP SWAP3 SWAP2 POP POP JUMP JUMPDEST PUSH1 0x0 PUSH1 0xA0 DUP3 ADD SWAP1 POP PUSH2 0x36F7 PUSH1 0x0 DUP4 ADD DUP9 PUSH2 0x2BDC JUMP JUMPDEST PUSH2 0x3704 PUSH1 0x20 DUP4 ADD DUP8 PUSH2 0x3615 JUMP JUMPDEST DUP2 DUP2 SUB PUSH1 0x40 DUP4 ADD MSTORE PUSH2 0x3716 DUP2 DUP7 PUSH2 0x3684 JUMP JUMPDEST SWAP1 POP PUSH2 0x3725 PUSH1 0x60 DUP4 ADD DUP6 PUSH2 0x2C90 JUMP JUMPDEST PUSH2 0x3732 PUSH1 0x80 DUP4 ADD DUP5 PUSH2 0x2BDC JUMP JUMPDEST SWAP7 SWAP6 POP POP POP POP POP POP JUMP JUMPDEST PUSH32 0x4E487B7100000000000000000000000000000000000000000000000000000000 PUSH1 0x0 MSTORE PUSH1 0x12 PUSH1 0x4 MSTORE PUSH1 0x24 PUSH1 0x0 REVERT JUMPDEST PUSH1 0x0 PUSH2 0x3776 DUP3 PUSH2 0x2AB6 JUMP JUMPDEST SWAP2 POP PUSH2 0x3781 DUP4 PUSH2 0x2AB6 JUMP JUMPDEST SWAP3 POP DUP3 PUSH2 0x3791 JUMPI PUSH2 0x3790 PUSH2 0x373C JUMP JUMPDEST JUMPDEST DUP3 DUP3 DIV SWAP1 POP SWAP3 SWAP2 POP POP JUMP JUMPDEST PUSH1 0x0 PUSH2 0x37A7 DUP3 PUSH2 0x2AB6 JUMP JUMPDEST SWAP2 POP PUSH2 0x37B2 DUP4 PUSH2 0x2AB6 JUMP JUMPDEST SWAP3 POP DUP3 PUSH32 0xFFFFFFFFFFFFFFFFFFFFFFFFFFFFFFFFFFFFFFFFFFFFFFFFFFFFFFFFFFFFFFFF SUB DUP3 GT ISZERO PUSH2 0x37E7 JUMPI PUSH2 0x37E6 PUSH2 0x30F6 JUMP JUMPDEST JUMPDEST DUP3 DUP3 ADD SWAP1 POP SWAP3 SWAP2 POP POP JUMP JUMPDEST PUSH32 0x536166654D6174683A206164646974696F6E206F766572666C6F770000000000 PUSH1 0x0 DUP3 ADD MSTORE POP JUMP JUMPDEST PUSH1 0x0 PUSH2 0x3828 PUSH1 0x1B DUP4 PUSH2 0x299E JUMP JUMPDEST SWAP2 POP PUSH2 0x3833 DUP3 PUSH2 0x37F2 JUMP JUMPDEST PUSH1 0x20 DUP3 ADD SWAP1 POP SWAP2 SWAP1 POP JUMP JUMPDEST PUSH1 0x0 PUSH1 0x20 DUP3 ADD SWAP1 POP DUP2 DUP2 SUB PUSH1 0x0 DUP4 ADD MSTORE PUSH2 0x3857 DUP2 PUSH2 0x381B JUMP JUMPDEST SWAP1 POP SWAP2 SWAP1 POP JUMP JUMPDEST PUSH1 0x0 PUSH2 0x3869 DUP3 PUSH2 0x2AB6 JUMP JUMPDEST SWAP2 POP PUSH2 0x3874 DUP4 PUSH2 0x2AB6 JUMP JUMPDEST SWAP3 POP DUP2 PUSH32 0xFFFFFFFFFFFFFFFFFFFFFFFFFFFFFFFFFFFFFFFFFFFFFFFFFFFFFFFFFFFFFFFF DIV DUP4 GT DUP3 ISZERO ISZERO AND ISZERO PUSH2 0x38AD JUMPI PUSH2 0x38AC PUSH2 0x30F6 JUMP JUMPDEST JUMPDEST DUP3 DUP3 MUL SWAP1 POP SWAP3 SWAP2 POP POP JUMP JUMPDEST PUSH32 0x536166654D6174683A206D756C7469706C69636174696F6E206F766572666C6F PUSH1 0x0 DUP3 ADD MSTORE PUSH32 0x7700000000000000000000000000000000000000000000000000000000000000 PUSH1 0x20 DUP3 ADD MSTORE POP JUMP JUMPDEST PUSH1 0x0 PUSH2 0x3914 PUSH1 0x21 DUP4 PUSH2 0x299E JUMP JUMPDEST SWAP2 POP PUSH2 0x391F DUP3 PUSH2 0x38B8 JUMP JUMPDEST PUSH1 0x40 DUP3 ADD SWAP1 POP SWAP2 SWAP1 POP JUMP JUMPDEST PUSH1 0x0 PUSH1 0x20 DUP3 ADD SWAP1 POP DUP2 DUP2 SUB PUSH1 0x0 DUP4 ADD MSTORE PUSH2 0x3943 DUP2 PUSH2 0x3907 JUMP JUMPDEST SWAP1 POP SWAP2 SWAP1 POP JUMP INVALID GASLIMIT MSTORE NUMBER ORIGIN ADDRESS GASPRICE KECCAK256 PUSH21 0x72616E7366657220616D6F756E7420657863656564 PUSH20 0x20616C6C6F77616E6365A2646970667358221220 JUMPI PUSH24 0x9ACB0CBABD159A3FFCC9E7829B65D91A59951BA003593224 DUP8 SWAP7 0x5F PUSH29 0xDC0F64736F6C634300080D003300000000000000000000000000000000 "
				},
				"gasEstimates": {
					"creation": {
						"codeDepositCost": "2952000",
						"executionCost": "infinite",
						"totalCost": "infinite"
					},
					"external": {
						"_factory()": "2580",
						"allowance(address,address)": "infinite",
						"approve(address,uint256)": "infinite",
						"balanceOf(address)": "infinite",
						"decimals()": "366",
						"excludeMultipleAccountsFromFees(address[],bool)": "infinite",
						"manualsend()": "infinite",
						"manualswap()": "infinite",
						"name()": "infinite",
						"owner()": "2567",
						"renounceOwnership()": "30424",
						"rescueForeignTokens(address,address,uint256)": "infinite",
						"setFee(uint256,uint256,uint256,uint256)": "infinite",
						"setNewDevAddress(address)": "infinite",
						"setNewMarketingAddress(address)": "infinite",
						"symbol()": "infinite",
						"toggleSwap(bool)": "infinite",
						"totalSupply()": "427",
						"transfer(address,uint256)": "infinite",
						"transferFrom(address,address,uint256)": "infinite",
						"transferOwnership(address)": "30734",
						"uniswapV2Pair()": "2559",
						"uniswapV2Router()": "infinite"
					},
					"internal": {
						"_approve(address,address,uint256)": "infinite",
						"_getCurrentSupply()": "infinite",
						"_getRValues(uint256,uint256,uint256,uint256)": "infinite",
						"_getRate()": "infinite",
						"_getTValues(uint256,uint256,uint256)": "infinite",
						"_getValues(uint256)": "infinite",
						"_reflectFee(uint256,uint256)": "infinite",
						"_takeTeam(uint256)": "infinite",
						"_tokenTransfer(address,address,uint256)": "infinite",
						"_transfer(address,address,uint256)": "infinite",
						"_transferStandard(address,address,uint256)": "infinite",
						"sendETHToFee(uint256)": "infinite",
						"swapTokensForEth(uint256)": "infinite",
						"tokenFromReflection(uint256)": "infinite"
					}
				},
				"methodIdentifiers": {
					"_factory()": "c5cc6b6a",
					"allowance(address,address)": "dd62ed3e",
					"approve(address,uint256)": "095ea7b3",
					"balanceOf(address)": "70a08231",
					"decimals()": "313ce567",
					"excludeMultipleAccountsFromFees(address[],bool)": "c492f046",
					"manualsend()": "6fc3eaec",
					"manualswap()": "c3c8cd80",
					"name()": "06fdde03",
					"owner()": "8da5cb5b",
					"renounceOwnership()": "715018a6",
					"rescueForeignTokens(address,address,uint256)": "e293d316",
					"setFee(uint256,uint256,uint256,uint256)": "a2a957bb",
					"setNewDevAddress(address)": "aad5c023",
					"setNewMarketingAddress(address)": "758dbe03",
					"symbol()": "95d89b41",
					"toggleSwap(bool)": "6d8aa8f8",
					"totalSupply()": "18160ddd",
					"transfer(address,uint256)": "a9059cbb",
					"transferFrom(address,address,uint256)": "23b872dd",
					"transferOwnership(address)": "f2fde38b",
					"uniswapV2Pair()": "49bd5a5e",
					"uniswapV2Router()": "1694505e"
				}
			},
			"storageLayout": {
				"storage": [
					{
						"astId": 305,
						"contract": "contracts/Pool/Pool.sol:World_Step",
						"label": "_owner",
						"offset": 0,
						"slot": "0",
						"type": "t_address"
					},
					{
						"astId": 307,
						"contract": "contracts/Pool/Pool.sol:World_Step",
						"label": "_previousOwner",
						"offset": 0,
						"slot": "1",
						"type": "t_address"
					},
					{
						"astId": 406,
						"contract": "contracts/Pool/Pool.sol:World_Step",
						"label": "_rOwned",
						"offset": 0,
						"slot": "2",
						"type": "t_mapping(t_address,t_uint256)"
					},
					{
						"astId": 410,
						"contract": "contracts/Pool/Pool.sol:World_Step",
						"label": "_tOwned",
						"offset": 0,
						"slot": "3",
						"type": "t_mapping(t_address,t_uint256)"
					},
					{
						"astId": 416,
						"contract": "contracts/Pool/Pool.sol:World_Step",
						"label": "_allowances",
						"offset": 0,
						"slot": "4",
						"type": "t_mapping(t_address,t_mapping(t_address,t_uint256))"
					},
					{
						"astId": 420,
						"contract": "contracts/Pool/Pool.sol:World_Step",
						"label": "_isExcludedFromFee",
						"offset": 0,
						"slot": "5",
						"type": "t_mapping(t_address,t_bool)"
					},
					{
						"astId": 451,
						"contract": "contracts/Pool/Pool.sol:World_Step",
						"label": "_rTotal",
						"offset": 0,
						"slot": "6",
						"type": "t_uint256"
					},
					{
						"astId": 453,
						"contract": "contracts/Pool/Pool.sol:World_Step",
						"label": "_tFeeTotal",
						"offset": 0,
						"slot": "7",
						"type": "t_uint256"
					},
					{
						"astId": 456,
						"contract": "contracts/Pool/Pool.sol:World_Step",
						"label": "_redisFeeOnBuy",
						"offset": 0,
						"slot": "8",
						"type": "t_uint256"
					},
					{
						"astId": 459,
						"contract": "contracts/Pool/Pool.sol:World_Step",
						"label": "_taxFeeOnBuy",
						"offset": 0,
						"slot": "9",
						"type": "t_uint256"
					},
					{
						"astId": 462,
						"contract": "contracts/Pool/Pool.sol:World_Step",
						"label": "_redisFeeOnSell",
						"offset": 0,
						"slot": "10",
						"type": "t_uint256"
					},
					{
						"astId": 465,
						"contract": "contracts/Pool/Pool.sol:World_Step",
						"label": "_taxFeeOnSell",
						"offset": 0,
						"slot": "11",
						"type": "t_uint256"
					},
					{
						"astId": 467,
						"contract": "contracts/Pool/Pool.sol:World_Step",
						"label": "_redisFee",
						"offset": 0,
						"slot": "12",
						"type": "t_uint256"
					},
					{
						"astId": 469,
						"contract": "contracts/Pool/Pool.sol:World_Step",
						"label": "_taxFee",
						"offset": 0,
						"slot": "13",
						"type": "t_uint256"
					},
					{
						"astId": 484,
						"contract": "contracts/Pool/Pool.sol:World_Step",
						"label": "_developmentAddress",
						"offset": 0,
						"slot": "14",
						"type": "t_address_payable"
					},
					{
						"astId": 490,
						"contract": "contracts/Pool/Pool.sol:World_Step",
						"label": "_marketingAddress",
						"offset": 0,
						"slot": "15",
						"type": "t_address_payable"
					},
					{
						"astId": 493,
						"contract": "contracts/Pool/Pool.sol:World_Step",
						"label": "uniswapV2Router",
						"offset": 0,
						"slot": "16",
						"type": "t_contract(IUniswapV2Router02)145"
					},
					{
						"astId": 495,
						"contract": "contracts/Pool/Pool.sol:World_Step",
						"label": "uniswapV2Pair",
						"offset": 0,
						"slot": "17",
						"type": "t_address"
					},
					{
						"astId": 497,
						"contract": "contracts/Pool/Pool.sol:World_Step",
						"label": "_factory",
						"offset": 0,
						"slot": "18",
						"type": "t_address"
					},
					{
						"astId": 500,
						"contract": "contracts/Pool/Pool.sol:World_Step",
						"label": "inSwap",
						"offset": 20,
						"slot": "18",
						"type": "t_bool"
					},
					{
						"astId": 503,
						"contract": "contracts/Pool/Pool.sol:World_Step",
						"label": "swapEnabled",
						"offset": 21,
						"slot": "18",
						"type": "t_bool"
					}
				],
				"types": {
					"t_address": {
						"encoding": "inplace",
						"label": "address",
						"numberOfBytes": "20"
					},
					"t_address_payable": {
						"encoding": "inplace",
						"label": "address payable",
						"numberOfBytes": "20"
					},
					"t_bool": {
						"encoding": "inplace",
						"label": "bool",
						"numberOfBytes": "1"
					},
					"t_contract(IUniswapV2Router02)145": {
						"encoding": "inplace",
						"label": "contract IUniswapV2Router02",
						"numberOfBytes": "20"
					},
					"t_mapping(t_address,t_bool)": {
						"encoding": "mapping",
						"key": "t_address",
						"label": "mapping(address => bool)",
						"numberOfBytes": "32",
						"value": "t_bool"
					},
					"t_mapping(t_address,t_mapping(t_address,t_uint256))": {
						"encoding": "mapping",
						"key": "t_address",
						"label": "mapping(address => mapping(address => uint256))",
						"numberOfBytes": "32",
						"value": "t_mapping(t_address,t_uint256)"
					},
					"t_mapping(t_address,t_uint256)": {
						"encoding": "mapping",
						"key": "t_address",
						"label": "mapping(address => uint256)",
						"numberOfBytes": "32",
						"value": "t_uint256"
					},
					"t_uint256": {
						"encoding": "inplace",
						"label": "uint256",
						"numberOfBytes": "32"
					}
				}
			},
			"userdoc": {
				"kind": "user",
				"methods": {},
				"version": 1
			}
		}
	}
}