{
	"contracts/Pool/PoolPig.sol": {
		"WorldStepToken": {
			"abi": [
				{
					"inputs": [],
					"stateMutability": "nonpayable",
					"type": "constructor"
				},
				{
					"anonymous": false,
					"inputs": [
						{
							"indexed": true,
							"internalType": "address",
							"name": "owner",
							"type": "address"
						},
						{
							"indexed": true,
							"internalType": "address",
							"name": "spender",
							"type": "address"
						},
						{
							"indexed": false,
							"internalType": "uint256",
							"name": "value",
							"type": "uint256"
						}
					],
					"name": "Approval",
					"type": "event"
				},
				{
					"anonymous": false,
					"inputs": [
						{
							"indexed": false,
							"internalType": "uint256",
							"name": "minTokensBeforeSwap",
							"type": "uint256"
						}
					],
					"name": "MinTokensBeforeSwapUpdated",
					"type": "event"
				},
				{
					"anonymous": false,
					"inputs": [
						{
							"indexed": true,
							"internalType": "address",
							"name": "previousOwner",
							"type": "address"
						},
						{
							"indexed": true,
							"internalType": "address",
							"name": "newOwner",
							"type": "address"
						}
					],
					"name": "OwnershipTransferred",
					"type": "event"
				},
				{
					"anonymous": false,
					"inputs": [
						{
							"indexed": false,
							"internalType": "uint256",
							"name": "tokensSwapped",
							"type": "uint256"
						},
						{
							"indexed": false,
							"internalType": "uint256",
							"name": "ethReceived",
							"type": "uint256"
						},
						{
							"indexed": false,
							"internalType": "uint256",
							"name": "tokensIntoLiqudity",
							"type": "uint256"
						}
					],
					"name": "SwapAndLiquify",
					"type": "event"
				},
				{
					"anonymous": false,
					"inputs": [
						{
							"indexed": false,
							"internalType": "bool",
							"name": "enabled",
							"type": "bool"
						}
					],
					"name": "SwapAndLiquifyEnabledUpdated",
					"type": "event"
				},
				{
					"anonymous": false,
					"inputs": [
						{
							"indexed": true,
							"internalType": "address",
							"name": "from",
							"type": "address"
						},
						{
							"indexed": true,
							"internalType": "address",
							"name": "to",
							"type": "address"
						},
						{
							"indexed": false,
							"internalType": "uint256",
							"name": "value",
							"type": "uint256"
						}
					],
					"name": "Transfer",
					"type": "event"
				},
				{
					"inputs": [],
					"name": "_liquidityFee",
					"outputs": [
						{
							"internalType": "uint256",
							"name": "",
							"type": "uint256"
						}
					],
					"stateMutability": "view",
					"type": "function"
				},
				{
					"inputs": [],
					"name": "_maxTxAmount",
					"outputs": [
						{
							"internalType": "uint256",
							"name": "",
							"type": "uint256"
						}
					],
					"stateMutability": "view",
					"type": "function"
				},
				{
					"inputs": [],
					"name": "_taxFee",
					"outputs": [
						{
							"internalType": "uint256",
							"name": "",
							"type": "uint256"
						}
					],
					"stateMutability": "view",
					"type": "function"
				},
				{
					"inputs": [
						{
							"internalType": "address",
							"name": "owner",
							"type": "address"
						},
						{
							"internalType": "address",
							"name": "spender",
							"type": "address"
						}
					],
					"name": "allowance",
					"outputs": [
						{
							"internalType": "uint256",
							"name": "",
							"type": "uint256"
						}
					],
					"stateMutability": "view",
					"type": "function"
				},
				{
					"inputs": [
						{
							"internalType": "address",
							"name": "spender",
							"type": "address"
						},
						{
							"internalType": "uint256",
							"name": "amount",
							"type": "uint256"
						}
					],
					"name": "approve",
					"outputs": [
						{
							"internalType": "bool",
							"name": "",
							"type": "bool"
						}
					],
					"stateMutability": "nonpayable",
					"type": "function"
				},
				{
					"inputs": [
						{
							"internalType": "address",
							"name": "account",
							"type": "address"
						}
					],
					"name": "balanceOf",
					"outputs": [
						{
							"internalType": "uint256",
							"name": "",
							"type": "uint256"
						}
					],
					"stateMutability": "view",
					"type": "function"
				},
				{
					"inputs": [],
					"name": "decimals",
					"outputs": [
						{
							"internalType": "uint8",
							"name": "",
							"type": "uint8"
						}
					],
					"stateMutability": "view",
					"type": "function"
				},
				{
					"inputs": [
						{
							"internalType": "address",
							"name": "spender",
							"type": "address"
						},
						{
							"internalType": "uint256",
							"name": "subtractedValue",
							"type": "uint256"
						}
					],
					"name": "decreaseAllowance",
					"outputs": [
						{
							"internalType": "bool",
							"name": "",
							"type": "bool"
						}
					],
					"stateMutability": "nonpayable",
					"type": "function"
				},
				{
					"inputs": [
						{
							"internalType": "uint256",
							"name": "tAmount",
							"type": "uint256"
						}
					],
					"name": "deliver",
					"outputs": [],
					"stateMutability": "nonpayable",
					"type": "function"
				},
				{
					"inputs": [
						{
							"internalType": "address",
							"name": "account",
							"type": "address"
						}
					],
					"name": "excludeFromFee",
					"outputs": [],
					"stateMutability": "nonpayable",
					"type": "function"
				},
				{
					"inputs": [
						{
							"internalType": "address",
							"name": "account",
							"type": "address"
						}
					],
					"name": "excludeFromReward",
					"outputs": [],
					"stateMutability": "nonpayable",
					"type": "function"
				},
				{
					"inputs": [],
					"name": "geUnlockTime",
					"outputs": [
						{
							"internalType": "uint256",
							"name": "",
							"type": "uint256"
						}
					],
					"stateMutability": "view",
					"type": "function"
				},
				{
					"inputs": [
						{
							"internalType": "address",
							"name": "account",
							"type": "address"
						}
					],
					"name": "includeInFee",
					"outputs": [],
					"stateMutability": "nonpayable",
					"type": "function"
				},
				{
					"inputs": [
						{
							"internalType": "address",
							"name": "account",
							"type": "address"
						}
					],
					"name": "includeInReward",
					"outputs": [],
					"stateMutability": "nonpayable",
					"type": "function"
				},
				{
					"inputs": [
						{
							"internalType": "address",
							"name": "spender",
							"type": "address"
						},
						{
							"internalType": "uint256",
							"name": "addedValue",
							"type": "uint256"
						}
					],
					"name": "increaseAllowance",
					"outputs": [
						{
							"internalType": "bool",
							"name": "",
							"type": "bool"
						}
					],
					"stateMutability": "nonpayable",
					"type": "function"
				},
				{
					"inputs": [
						{
							"internalType": "address",
							"name": "account",
							"type": "address"
						}
					],
					"name": "isExcludedFromFee",
					"outputs": [
						{
							"internalType": "bool",
							"name": "",
							"type": "bool"
						}
					],
					"stateMutability": "view",
					"type": "function"
				},
				{
					"inputs": [
						{
							"internalType": "address",
							"name": "account",
							"type": "address"
						}
					],
					"name": "isExcludedFromReward",
					"outputs": [
						{
							"internalType": "bool",
							"name": "",
							"type": "bool"
						}
					],
					"stateMutability": "view",
					"type": "function"
				},
				{
					"inputs": [
						{
							"internalType": "uint256",
							"name": "time",
							"type": "uint256"
						}
					],
					"name": "lock",
					"outputs": [],
					"stateMutability": "nonpayable",
					"type": "function"
				},
				{
					"inputs": [],
					"name": "name",
					"outputs": [
						{
							"internalType": "string",
							"name": "",
							"type": "string"
						}
					],
					"stateMutability": "view",
					"type": "function"
				},
				{
					"inputs": [],
					"name": "owner",
					"outputs": [
						{
							"internalType": "address",
							"name": "",
							"type": "address"
						}
					],
					"stateMutability": "view",
					"type": "function"
				},
				{
					"inputs": [
						{
							"internalType": "uint256",
							"name": "tAmount",
							"type": "uint256"
						},
						{
							"internalType": "bool",
							"name": "deductTransferFee",
							"type": "bool"
						}
					],
					"name": "reflectionFromToken",
					"outputs": [
						{
							"internalType": "uint256",
							"name": "",
							"type": "uint256"
						}
					],
					"stateMutability": "view",
					"type": "function"
				},
				{
					"inputs": [],
					"name": "renounceOwnership",
					"outputs": [],
					"stateMutability": "nonpayable",
					"type": "function"
				},
				{
					"inputs": [
						{
							"internalType": "uint256",
							"name": "liquidityFee",
							"type": "uint256"
						}
					],
					"name": "setLiquidityFeePercent",
					"outputs": [],
					"stateMutability": "nonpayable",
					"type": "function"
				},
				{
					"inputs": [
						{
							"internalType": "uint256",
							"name": "maxTxPercent",
							"type": "uint256"
						}
					],
					"name": "setMaxTxPercent",
					"outputs": [],
					"stateMutability": "nonpayable",
					"type": "function"
				},
				{
					"inputs": [
						{
							"internalType": "bool",
							"name": "_enabled",
							"type": "bool"
						}
					],
					"name": "setSwapAndLiquifyEnabled",
					"outputs": [],
					"stateMutability": "nonpayable",
					"type": "function"
				},
				{
					"inputs": [
						{
							"internalType": "uint256",
							"name": "taxFee",
							"type": "uint256"
						}
					],
					"name": "setTaxFeePercent",
					"outputs": [],
					"stateMutability": "nonpayable",
					"type": "function"
				},
				{
					"inputs": [],
					"name": "swapAndLiquifyEnabled",
					"outputs": [
						{
							"internalType": "bool",
							"name": "",
							"type": "bool"
						}
					],
					"stateMutability": "view",
					"type": "function"
				},
				{
					"inputs": [],
					"name": "symbol",
					"outputs": [
						{
							"internalType": "string",
							"name": "",
							"type": "string"
						}
					],
					"stateMutability": "view",
					"type": "function"
				},
				{
					"inputs": [
						{
							"internalType": "uint256",
							"name": "rAmount",
							"type": "uint256"
						}
					],
					"name": "tokenFromReflection",
					"outputs": [
						{
							"internalType": "uint256",
							"name": "",
							"type": "uint256"
						}
					],
					"stateMutability": "view",
					"type": "function"
				},
				{
					"inputs": [],
					"name": "totalFees",
					"outputs": [
						{
							"internalType": "uint256",
							"name": "",
							"type": "uint256"
						}
					],
					"stateMutability": "view",
					"type": "function"
				},
				{
					"inputs": [],
					"name": "totalSupply",
					"outputs": [
						{
							"internalType": "uint256",
							"name": "",
							"type": "uint256"
						}
					],
					"stateMutability": "view",
					"type": "function"
				},
				{
					"inputs": [
						{
							"internalType": "address",
							"name": "recipient",
							"type": "address"
						},
						{
							"internalType": "uint256",
							"name": "amount",
							"type": "uint256"
						}
					],
					"name": "transfer",
					"outputs": [
						{
							"internalType": "bool",
							"name": "",
							"type": "bool"
						}
					],
					"stateMutability": "nonpayable",
					"type": "function"
				},
				{
					"inputs": [
						{
							"internalType": "address",
							"name": "sender",
							"type": "address"
						},
						{
							"internalType": "address",
							"name": "recipient",
							"type": "address"
						},
						{
							"internalType": "uint256",
							"name": "amount",
							"type": "uint256"
						}
					],
					"name": "transferFrom",
					"outputs": [
						{
							"internalType": "bool",
							"name": "",
							"type": "bool"
						}
					],
					"stateMutability": "nonpayable",
					"type": "function"
				},
				{
					"inputs": [
						{
							"internalType": "address",
							"name": "newOwner",
							"type": "address"
						}
					],
					"name": "transferOwnership",
					"outputs": [],
					"stateMutability": "nonpayable",
					"type": "function"
				},
				{
					"inputs": [],
					"name": "uniswapV2Pair",
					"outputs": [
						{
							"internalType": "address",
							"name": "",
							"type": "address"
						}
					],
					"stateMutability": "view",
					"type": "function"
				},
				{
					"inputs": [],
					"name": "uniswapV2Router",
					"outputs": [
						{
							"internalType": "contract IUniswapV2Router02",
							"name": "",
							"type": "address"
						}
					],
					"stateMutability": "view",
					"type": "function"
				},
				{
					"inputs": [],
					"name": "unlock",
					"outputs": [],
					"stateMutability": "nonpayable",
					"type": "function"
				},
				{
					"stateMutability": "payable",
					"type": "receive"
				}
			],
			"devdoc": {
				"kind": "dev",
				"methods": {
					"owner()": {
						"details": "Returns the address of the current owner."
					}
				},
				"version": 1
			},
			"evm": {
				"assembly": "    /* \"contracts/Pool/PoolPig.sol\":15130:32712  contract WorldStepToken is Context, IERC20, Ownable {... */\n  mstore(0x40, 0xc0)\n    /* \"contracts/Pool/PoolPig.sol\":15658:15676  1000000000 * 10**9 */\n  0x0de0b6b3a7640000\n    /* \"contracts/Pool/PoolPig.sol\":15615:15616  0 */\n  0x00\n    /* \"contracts/Pool/PoolPig.sol\":15606:15617  ~uint256(0) */\n  not\n    /* \"contracts/Pool/PoolPig.sol\":15716:15729  MAX % _tTotal */\n  dup2\n  tag_1\n  jumpi\n  invalid\ntag_1:\n  mod\n    /* \"contracts/Pool/PoolPig.sol\":15615:15616  0 */\n  0x00\n    /* \"contracts/Pool/PoolPig.sol\":15606:15617  ~uint256(0) */\n  not\n    /* \"contracts/Pool/PoolPig.sol\":15709:15730  MAX - (MAX % _tTotal) */\n  sub\n    /* \"contracts/Pool/PoolPig.sol\":15682:15731  uint256 private _rTotal = (MAX - (MAX % _tTotal)) */\n  0x09\n  sstore\n    /* \"contracts/Pool/PoolPig.sol\":15770:15805  string private _name = \"World Step\" */\n  mload(0x40)\n  dup1\n  0x40\n  add\n  0x40\n  mstore\n  dup1\n  0x0a\n  dup2\n  mstore\n  0x20\n  add\n  0x576f726c64205374657000000000000000000000000000000000000000000000\n  dup2\n  mstore\n  pop\n  0x0b\n  swap1\n  dup1\n  mload\n  swap1\n  0x20\n  add\n  swap1\n  tag_2\n  swap3\n  swap2\n  swap1\n  tag_3\n  jump\t// in\ntag_2:\n  pop\n    /* \"contracts/Pool/PoolPig.sol\":15811:15841  string private _symbol = \"WSP\" */\n  mload(0x40)\n  dup1\n  0x40\n  add\n  0x40\n  mstore\n  dup1\n  0x03\n  dup2\n  mstore\n  0x20\n  add\n  0x5753500000000000000000000000000000000000000000000000000000000000\n  dup2\n  mstore\n  pop\n  0x0c\n  swap1\n  dup1\n  mload\n  swap1\n  0x20\n  add\n  swap1\n  tag_4\n  swap3\n  swap2\n  swap1\n  tag_3\n  jump\t// in\ntag_4:\n  pop\n    /* \"contracts/Pool/PoolPig.sol\":15873:15874  9 */\n  0x09\n    /* \"contracts/Pool/PoolPig.sol\":15847:15874  uint8 private _decimals = 9 */\n  0x0d\n  exp(0x0100, 0x00)\n  dup2\n  sload\n  dup2\n  0xff\n  mul\n  not\n  and\n  swap1\n  dup4\n  0xff\n  and\n  mul\n  or\n  swap1\n  sstore\n  pop\n    /* \"contracts/Pool/PoolPig.sol\":15910:15911  2 */\n  0x02\n    /* \"contracts/Pool/PoolPig.sol\":15885:15911  uint256 public _taxFee = 2 */\n  0x0e\n  sstore\n    /* \"contracts/Pool/PoolPig.sol\":15951:15958  _taxFee */\n  sload(0x0e)\n    /* \"contracts/Pool/PoolPig.sol\":15917:15958  uint256 private _previousTaxFee = _taxFee */\n  0x0f\n  sstore\n    /* \"contracts/Pool/PoolPig.sol\":16000:16001  3 */\n  0x03\n    /* \"contracts/Pool/PoolPig.sol\":15969:16001  uint256 public _liquidityFee = 3 */\n  0x10\n  sstore\n    /* \"contracts/Pool/PoolPig.sol\":16047:16060  _liquidityFee */\n  sload(0x10)\n    /* \"contracts/Pool/PoolPig.sol\":16007:16060  uint256 private _previousLiquidityFee = _liquidityFee */\n  0x11\n  sstore\n    /* \"contracts/Pool/PoolPig.sol\":16236:16240  true */\n  0x01\n    /* \"contracts/Pool/PoolPig.sol\":16200:16240  bool public swapAndLiquifyEnabled = true */\n  0x12\n  exp(0x0100, 0x01)\n  dup2\n  sload\n  dup2\n  0xff\n  mul\n  not\n  and\n  swap1\n  dup4\n  iszero\n  iszero\n  mul\n  or\n  swap1\n  sstore\n  pop\n    /* \"contracts/Pool/PoolPig.sol\":16281:16298  500000000 * 10**9 */\n  0x06f05b59d3b20000\n    /* \"contracts/Pool/PoolPig.sol\":16251:16298  uint256 public _maxTxAmount = 500000000 * 10**9 */\n  0x13\n  sstore\n    /* \"contracts/Pool/PoolPig.sol\":16352:16367  250000000*10**9 */\n  0x03782dace9d90000\n    /* \"contracts/Pool/PoolPig.sol\":16304:16367  uint256 private numTokensSellToAddToLiquidity = 250000000*10**9 */\n  0x14\n  sstore\n    /* \"contracts/Pool/PoolPig.sol\":16748:17406  constructor () public {... */\n  callvalue\n  dup1\n  iszero\n  tag_5\n  jumpi\n  0x00\n  dup1\n  revert\ntag_5:\n  pop\n    /* \"contracts/Pool/PoolPig.sol\":5630:5647  address msgSender */\n  0x00\n    /* \"contracts/Pool/PoolPig.sol\":5650:5662  _msgSender() */\n  tag_9\n    /* \"contracts/Pool/PoolPig.sol\":5650:5660  _msgSender */\n  shl(0x20, tag_10)\n    /* \"contracts/Pool/PoolPig.sol\":5650:5662  _msgSender() */\n  0x20\n  shr\n  jump\t// in\ntag_9:\n    /* \"contracts/Pool/PoolPig.sol\":5630:5662  address msgSender = _msgSender() */\n  swap1\n  pop\n    /* \"contracts/Pool/PoolPig.sol\":5681:5690  msgSender */\n  dup1\n    /* \"contracts/Pool/PoolPig.sol\":5672:5678  _owner */\n  0x00\n  dup1\n    /* \"contracts/Pool/PoolPig.sol\":5672:5690  _owner = msgSender */\n  0x0100\n  exp\n  dup2\n  sload\n  dup2\n  0xffffffffffffffffffffffffffffffffffffffff\n  mul\n  not\n  and\n  swap1\n  dup4\n  0xffffffffffffffffffffffffffffffffffffffff\n  and\n  mul\n  or\n  swap1\n  sstore\n  pop\n    /* \"contracts/Pool/PoolPig.sol\":5738:5747  msgSender */\n  dup1\n    /* \"contracts/Pool/PoolPig.sol\":5705:5748  OwnershipTransferred(address(0), msgSender) */\n  0xffffffffffffffffffffffffffffffffffffffff\n  and\n    /* \"contracts/Pool/PoolPig.sol\":5734:5735  0 */\n  0x00\n    /* \"contracts/Pool/PoolPig.sol\":5705:5748  OwnershipTransferred(address(0), msgSender) */\n  0xffffffffffffffffffffffffffffffffffffffff\n  and\n  0x8be0079c531659141344cd1fd0a4f28419497f9722a3daafe3b4186f6b6457e0\n  mload(0x40)\n  mload(0x40)\n  dup1\n  swap2\n  sub\n  swap1\n  log3\n    /* \"contracts/Pool/PoolPig.sol\":5596:5755  constructor () internal {... */\n  pop\n    /* \"contracts/Pool/PoolPig.sol\":16804:16811  _rTotal */\n  sload(0x09)\n    /* \"contracts/Pool/PoolPig.sol\":16780:16787  _rOwned */\n  0x03\n    /* \"contracts/Pool/PoolPig.sol\":16780:16801  _rOwned[_msgSender()] */\n  0x00\n    /* \"contracts/Pool/PoolPig.sol\":16788:16800  _msgSender() */\n  tag_12\n    /* \"contracts/Pool/PoolPig.sol\":16788:16798  _msgSender */\n  shl(0x20, tag_10)\n    /* \"contracts/Pool/PoolPig.sol\":16788:16800  _msgSender() */\n  0x20\n  shr\n  jump\t// in\ntag_12:\n    /* \"contracts/Pool/PoolPig.sol\":16780:16801  _rOwned[_msgSender()] */\n  0xffffffffffffffffffffffffffffffffffffffff\n  and\n  0xffffffffffffffffffffffffffffffffffffffff\n  and\n  dup2\n  mstore\n  0x20\n  add\n  swap1\n  dup2\n  mstore\n  0x20\n  add\n  0x00\n  keccak256\n    /* \"contracts/Pool/PoolPig.sol\":16780:16811  _rOwned[_msgSender()] = _rTotal */\n  dup2\n  swap1\n  sstore\n  pop\n    /* \"contracts/Pool/PoolPig.sol\":16830:16865  IUniswapV2Router02 _uniswapV2Router */\n  0x00\n    /* \"contracts/Pool/PoolPig.sol\":16895:16937  0x9Ac64Cc6e4415144C455BD8E4837Fea55603e5c3 */\n  0x9ac64cc6e4415144c455bd8e4837fea55603e5c3\n    /* \"contracts/Pool/PoolPig.sol\":16830:16939  IUniswapV2Router02 _uniswapV2Router = IUniswapV2Router02(address(0x9Ac64Cc6e4415144C455BD8E4837Fea55603e5c3)) */\n  swap1\n  pop\n    /* \"contracts/Pool/PoolPig.sol\":16992:17008  _uniswapV2Router */\n  dup1\n    /* \"contracts/Pool/PoolPig.sol\":16992:17016  _uniswapV2Router.factory */\n  0xffffffffffffffffffffffffffffffffffffffff\n  and\n  0xc45a0155\n    /* \"contracts/Pool/PoolPig.sol\":16992:17018  _uniswapV2Router.factory() */\n  mload(0x40)\n  dup2\n  0xffffffff\n  and\n  0xe0\n  shl\n  dup2\n  mstore\n  0x04\n  add\n  0x20\n  mload(0x40)\n  dup1\n  dup4\n  sub\n  dup2\n  dup7\n  dup1\n  extcodesize\n  iszero\n  dup1\n  iszero\n  tag_13\n  jumpi\n  0x00\n  dup1\n  revert\ntag_13:\n  pop\n  gas\n  staticcall\n  iszero\n  dup1\n  iszero\n  tag_15\n  jumpi\n  returndatasize\n  0x00\n  dup1\n  returndatacopy\n  revert(0x00, returndatasize)\ntag_15:\n  pop\n  pop\n  pop\n  pop\n  mload(0x40)\n  returndatasize\n  0x20\n  dup2\n  lt\n  iszero\n  tag_16\n  jumpi\n  0x00\n  dup1\n  revert\ntag_16:\n  dup2\n  add\n  swap1\n  dup1\n  dup1\n  mload\n  swap1\n  0x20\n  add\n  swap1\n  swap3\n  swap2\n  swap1\n  pop\n  pop\n  pop\n    /* \"contracts/Pool/PoolPig.sol\":16974:17043  IUniswapV2Factory(_uniswapV2Router.factory())... */\n  0xffffffffffffffffffffffffffffffffffffffff\n  and\n  0xc9c65396\n    /* \"contracts/Pool/PoolPig.sol\":17052:17056  this */\n  address\n    /* \"contracts/Pool/PoolPig.sol\":17059:17075  _uniswapV2Router */\n  dup4\n    /* \"contracts/Pool/PoolPig.sol\":17059:17080  _uniswapV2Router.WETH */\n  0xffffffffffffffffffffffffffffffffffffffff\n  and\n  0xad5c4648\n    /* \"contracts/Pool/PoolPig.sol\":17059:17082  _uniswapV2Router.WETH() */\n  mload(0x40)\n  dup2\n  0xffffffff\n  and\n  0xe0\n  shl\n  dup2\n  mstore\n  0x04\n  add\n  0x20\n  mload(0x40)\n  dup1\n  dup4\n  sub\n  dup2\n  dup7\n  dup1\n  extcodesize\n  iszero\n  dup1\n  iszero\n  tag_17\n  jumpi\n  0x00\n  dup1\n  revert\ntag_17:\n  pop\n  gas\n  staticcall\n  iszero\n  dup1\n  iszero\n  tag_19\n  jumpi\n  returndatasize\n  0x00\n  dup1\n  returndatacopy\n  revert(0x00, returndatasize)\ntag_19:\n  pop\n  pop\n  pop\n  pop\n  mload(0x40)\n  returndatasize\n  0x20\n  dup2\n  lt\n  iszero\n  tag_20\n  jumpi\n  0x00\n  dup1\n  revert\ntag_20:\n  dup2\n  add\n  swap1\n  dup1\n  dup1\n  mload\n  swap1\n  0x20\n  add\n  swap1\n  swap3\n  swap2\n  swap1\n  pop\n  pop\n  pop\n    /* \"contracts/Pool/PoolPig.sol\":16974:17083  IUniswapV2Factory(_uniswapV2Router.factory())... */\n  mload(0x40)\n  dup4\n  0xffffffff\n  and\n  0xe0\n  shl\n  dup2\n  mstore\n  0x04\n  add\n  dup1\n  dup4\n  0xffffffffffffffffffffffffffffffffffffffff\n  and\n  dup2\n  mstore\n  0x20\n  add\n  dup3\n  0xffffffffffffffffffffffffffffffffffffffff\n  and\n  dup2\n  mstore\n  0x20\n  add\n  swap3\n  pop\n  pop\n  pop\n  0x20\n  mload(0x40)\n  dup1\n  dup4\n  sub\n  dup2\n  0x00\n  dup8\n  dup1\n  extcodesize\n  iszero\n  dup1\n  iszero\n  tag_21\n  jumpi\n  0x00\n  dup1\n  revert\ntag_21:\n  pop\n  gas\n  call\n  iszero\n  dup1\n  iszero\n  tag_23\n  jumpi\n  returndatasize\n  0x00\n  dup1\n  returndatacopy\n  revert(0x00, returndatasize)\ntag_23:\n  pop\n  pop\n  pop\n  pop\n  mload(0x40)\n  returndatasize\n  0x20\n  dup2\n  lt\n  iszero\n  tag_24\n  jumpi\n  0x00\n  dup1\n  revert\ntag_24:\n  dup2\n  add\n  swap1\n  dup1\n  dup1\n  mload\n  swap1\n  0x20\n  add\n  swap1\n  swap3\n  swap2\n  swap1\n  pop\n  pop\n  pop\n    /* \"contracts/Pool/PoolPig.sol\":16958:17083  uniswapV2Pair = IUniswapV2Factory(_uniswapV2Router.factory())... */\n  0xffffffffffffffffffffffffffffffffffffffff\n  and\n  0xa0\n  dup2\n  0xffffffffffffffffffffffffffffffffffffffff\n  and\n  0x60\n  shl\n  dup2\n  mstore\n  pop\n  pop\n    /* \"contracts/Pool/PoolPig.sol\":17162:17178  _uniswapV2Router */\n  dup1\n    /* \"contracts/Pool/PoolPig.sol\":17144:17178  uniswapV2Router = _uniswapV2Router */\n  0xffffffffffffffffffffffffffffffffffffffff\n  and\n  0x80\n  dup2\n  0xffffffffffffffffffffffffffffffffffffffff\n  and\n  0x60\n  shl\n  dup2\n  mstore\n  pop\n  pop\n    /* \"contracts/Pool/PoolPig.sol\":17278:17282  true */\n  0x01\n    /* \"contracts/Pool/PoolPig.sol\":17248:17266  _isExcludedFromFee */\n  0x06\n    /* \"contracts/Pool/PoolPig.sol\":17248:17275  _isExcludedFromFee[owner()] */\n  0x00\n    /* \"contracts/Pool/PoolPig.sol\":17267:17274  owner() */\n  tag_25\n    /* \"contracts/Pool/PoolPig.sol\":17267:17272  owner */\n  shl(0x20, tag_26)\n    /* \"contracts/Pool/PoolPig.sol\":17267:17274  owner() */\n  0x20\n  shr\n  jump\t// in\ntag_25:\n    /* \"contracts/Pool/PoolPig.sol\":17248:17275  _isExcludedFromFee[owner()] */\n  0xffffffffffffffffffffffffffffffffffffffff\n  and\n  0xffffffffffffffffffffffffffffffffffffffff\n  and\n  dup2\n  mstore\n  0x20\n  add\n  swap1\n  dup2\n  mstore\n  0x20\n  add\n  0x00\n  keccak256\n  0x00\n    /* \"contracts/Pool/PoolPig.sol\":17248:17282  _isExcludedFromFee[owner()] = true */\n  0x0100\n  exp\n  dup2\n  sload\n  dup2\n  0xff\n  mul\n  not\n  and\n  swap1\n  dup4\n  iszero\n  iszero\n  mul\n  or\n  swap1\n  sstore\n  pop\n    /* \"contracts/Pool/PoolPig.sol\":17328:17332  true */\n  0x01\n    /* \"contracts/Pool/PoolPig.sol\":17292:17310  _isExcludedFromFee */\n  0x06\n    /* \"contracts/Pool/PoolPig.sol\":17292:17325  _isExcludedFromFee[address(this)] */\n  0x00\n    /* \"contracts/Pool/PoolPig.sol\":17319:17323  this */\n  address\n    /* \"contracts/Pool/PoolPig.sol\":17292:17325  _isExcludedFromFee[address(this)] */\n  0xffffffffffffffffffffffffffffffffffffffff\n  and\n  0xffffffffffffffffffffffffffffffffffffffff\n  and\n  dup2\n  mstore\n  0x20\n  add\n  swap1\n  dup2\n  mstore\n  0x20\n  add\n  0x00\n  keccak256\n  0x00\n    /* \"contracts/Pool/PoolPig.sol\":17292:17332  _isExcludedFromFee[address(this)] = true */\n  0x0100\n  exp\n  dup2\n  sload\n  dup2\n  0xff\n  mul\n  not\n  and\n  swap1\n  dup4\n  iszero\n  iszero\n  mul\n  or\n  swap1\n  sstore\n  pop\n    /* \"contracts/Pool/PoolPig.sol\":17377:17389  _msgSender() */\n  tag_27\n    /* \"contracts/Pool/PoolPig.sol\":17377:17387  _msgSender */\n  shl(0x20, tag_10)\n    /* \"contracts/Pool/PoolPig.sol\":17377:17389  _msgSender() */\n  0x20\n  shr\n  jump\t// in\ntag_27:\n    /* \"contracts/Pool/PoolPig.sol\":17356:17399  Transfer(address(0), _msgSender(), _tTotal) */\n  0xffffffffffffffffffffffffffffffffffffffff\n  and\n    /* \"contracts/Pool/PoolPig.sol\":17373:17374  0 */\n  0x00\n    /* \"contracts/Pool/PoolPig.sol\":17356:17399  Transfer(address(0), _msgSender(), _tTotal) */\n  0xffffffffffffffffffffffffffffffffffffffff\n  and\n  0xddf252ad1be2c89b69c2b068fc378daa952ba7f163c4a11628f55a4df523b3ef\n    /* \"contracts/Pool/PoolPig.sol\":15658:15676  1000000000 * 10**9 */\n  0x0de0b6b3a7640000\n    /* \"contracts/Pool/PoolPig.sol\":17356:17399  Transfer(address(0), _msgSender(), _tTotal) */\n  mload(0x40)\n  dup1\n  dup3\n  dup2\n  mstore\n  0x20\n  add\n  swap2\n  pop\n  pop\n  mload(0x40)\n  dup1\n  swap2\n  sub\n  swap1\n  log3\n    /* \"contracts/Pool/PoolPig.sol\":16748:17406  constructor () public {... */\n  pop\n    /* \"contracts/Pool/PoolPig.sol\":15130:32712  contract WorldStepToken is Context, IERC20, Ownable {... */\n  jump(tag_28)\n    /* \"contracts/Pool/PoolPig.sol\":2255:2359  function _msgSender() internal view virtual returns (address payable) {... */\ntag_10:\n    /* \"contracts/Pool/PoolPig.sol\":2308:2323  address payable */\n  0x00\n    /* \"contracts/Pool/PoolPig.sol\":2342:2352  msg.sender */\n  caller\n    /* \"contracts/Pool/PoolPig.sol\":2335:2352  return msg.sender */\n  swap1\n  pop\n    /* \"contracts/Pool/PoolPig.sol\":2255:2359  function _msgSender() internal view virtual returns (address payable) {... */\n  swap1\n  jump\t// out\n    /* \"contracts/Pool/PoolPig.sol\":5831:5908  function owner() public view returns (address) {... */\ntag_26:\n    /* \"contracts/Pool/PoolPig.sol\":5869:5876  address */\n  0x00\n    /* \"contracts/Pool/PoolPig.sol\":5895:5901  _owner */\n  dup1\n  0x00\n  swap1\n  sload\n  swap1\n  0x0100\n  exp\n  swap1\n  div\n  0xffffffffffffffffffffffffffffffffffffffff\n  and\n    /* \"contracts/Pool/PoolPig.sol\":5888:5901  return _owner */\n  swap1\n  pop\n    /* \"contracts/Pool/PoolPig.sol\":5831:5908  function owner() public view returns (address) {... */\n  swap1\n  jump\t// out\n    /* \"contracts/Pool/PoolPig.sol\":15130:32712  contract WorldStepToken is Context, IERC20, Ownable {... */\ntag_3:\n  dup3\n  dup1\n  sload\n  0x01\n  dup2\n  0x01\n  and\n  iszero\n  0x0100\n  mul\n  sub\n  and\n  0x02\n  swap1\n  div\n  swap1\n  0x00\n  mstore\n  keccak256(0x00, 0x20)\n  swap1\n  0x1f\n  add\n  0x20\n  swap1\n  div\n  dup2\n  add\n  swap3\n  dup3\n  0x1f\n  lt\n  tag_32\n  jumpi\n  dup1\n  mload\n  not(0xff)\n  and\n  dup4\n  dup1\n  add\n  or\n  dup6\n  sstore\n  jump(tag_31)\ntag_32:\n  dup3\n  dup1\n  add\n  0x01\n  add\n  dup6\n  sstore\n  dup3\n  iszero\n  tag_31\n  jumpi\n  swap2\n  dup3\n  add\ntag_33:\n  dup3\n  dup2\n  gt\n  iszero\n  tag_34\n  jumpi\n  dup3\n  mload\n  dup3\n  sstore\n  swap2\n  0x20\n  add\n  swap2\n  swap1\n  0x01\n  add\n  swap1\n  jump(tag_33)\ntag_34:\ntag_31:\n  pop\n  swap1\n  pop\n  tag_35\n  swap2\n  swap1\n  tag_36\n  jump\t// in\ntag_35:\n  pop\n  swap1\n  jump\t// out\ntag_36:\ntag_37:\n  dup1\n  dup3\n  gt\n  iszero\n  tag_38\n  jumpi\n  0x00\n  dup2\n  0x00\n  swap1\n  sstore\n  pop\n  0x01\n  add\n  jump(tag_37)\ntag_38:\n  pop\n  swap1\n  jump\t// out\ntag_28:\n  shr(0x60, mload(0x80))\n  shr(0x60, mload(0xa0))\n  codecopy(0x00, dataOffset(sub_0), dataSize(sub_0))\n  assignImmutable(\"0x924caa65d1644bcda3c737cb4f972c9170b1e3eb26b1eeba5090c589a3beb7a4\")\n  assignImmutable(\"0xcbd30de1da04efa9e9dfb752a21e23c2c0c1de652015c52c119403b61435944f\")\n  return(0x00, dataSize(sub_0))\nstop\n\nsub_0: assembly {\n        /* \"contracts/Pool/PoolPig.sol\":15130:32712  contract WorldStepToken is Context, IERC20, Ownable {... */\n      mstore(0x40, 0x80)\n      jumpi(tag_1, lt(calldatasize, 0x04))\n      shr(0xe0, calldataload(0x00))\n      dup1\n      0x5342acb4\n      gt\n      tag_40\n      jumpi\n      dup1\n      0xa457c2d7\n      gt\n      tag_41\n      jumpi\n      dup1\n      0xd543dbeb\n      gt\n      tag_42\n      jumpi\n      dup1\n      0xd543dbeb\n      eq\n      tag_35\n      jumpi\n      dup1\n      0xdd467064\n      eq\n      tag_36\n      jumpi\n      dup1\n      0xdd62ed3e\n      eq\n      tag_37\n      jumpi\n      dup1\n      0xea2f0b37\n      eq\n      tag_38\n      jumpi\n      dup1\n      0xf2fde38b\n      eq\n      tag_39\n      jumpi\n      jump(tag_2)\n    tag_42:\n      dup1\n      0xa457c2d7\n      eq\n      tag_30\n      jumpi\n      dup1\n      0xa69df4b5\n      eq\n      tag_31\n      jumpi\n      dup1\n      0xa9059cbb\n      eq\n      tag_32\n      jumpi\n      dup1\n      0xb6c52324\n      eq\n      tag_33\n      jumpi\n      dup1\n      0xc49b9a80\n      eq\n      tag_34\n      jumpi\n      jump(tag_2)\n    tag_41:\n      dup1\n      0x7d1db4a5\n      gt\n      tag_43\n      jumpi\n      dup1\n      0x7d1db4a5\n      eq\n      tag_25\n      jumpi\n      dup1\n      0x88f82020\n      eq\n      tag_26\n      jumpi\n      dup1\n      0x8da5cb5b\n      eq\n      tag_27\n      jumpi\n      dup1\n      0x8ee88c53\n      eq\n      tag_28\n      jumpi\n      dup1\n      0x95d89b41\n      eq\n      tag_29\n      jumpi\n      jump(tag_2)\n    tag_43:\n      dup1\n      0x5342acb4\n      eq\n      tag_21\n      jumpi\n      dup1\n      0x6bc87c3a\n      eq\n      tag_22\n      jumpi\n      dup1\n      0x70a08231\n      eq\n      tag_23\n      jumpi\n      dup1\n      0x715018a6\n      eq\n      tag_24\n      jumpi\n      jump(tag_2)\n    tag_40:\n      dup1\n      0x3685d419\n      gt\n      tag_44\n      jumpi\n      dup1\n      0x437823ec\n      gt\n      tag_45\n      jumpi\n      dup1\n      0x437823ec\n      eq\n      tag_16\n      jumpi\n      dup1\n      0x4549b039\n      eq\n      tag_17\n      jumpi\n      dup1\n      0x49bd5a5e\n      eq\n      tag_18\n      jumpi\n      dup1\n      0x4a74bb02\n      eq\n      tag_19\n      jumpi\n      dup1\n      0x52390c02\n      eq\n      tag_20\n      jumpi\n      jump(tag_2)\n    tag_45:\n      dup1\n      0x3685d419\n      eq\n      tag_12\n      jumpi\n      dup1\n      0x39509351\n      eq\n      tag_13\n      jumpi\n      dup1\n      0x3b124fe7\n      eq\n      tag_14\n      jumpi\n      dup1\n      0x3bd5d173\n      eq\n      tag_15\n      jumpi\n      jump(tag_2)\n    tag_44:\n      dup1\n      0x1694505e\n      gt\n      tag_46\n      jumpi\n      dup1\n      0x1694505e\n      eq\n      tag_7\n      jumpi\n      dup1\n      0x18160ddd\n      eq\n      tag_8\n      jumpi\n      dup1\n      0x23b872dd\n      eq\n      tag_9\n      jumpi\n      dup1\n      0x2d838119\n      eq\n      tag_10\n      jumpi\n      dup1\n      0x313ce567\n      eq\n      tag_11\n      jumpi\n      jump(tag_2)\n    tag_46:\n      dup1\n      0x061c82d0\n      eq\n      tag_3\n      jumpi\n      dup1\n      0x06fdde03\n      eq\n      tag_4\n      jumpi\n      dup1\n      0x095ea7b3\n      eq\n      tag_5\n      jumpi\n      dup1\n      0x13114a9d\n      eq\n      tag_6\n      jumpi\n      jump(tag_2)\n    tag_1:\n      jumpi(tag_2, calldatasize)\n      stop\n    tag_2:\n      0x00\n      dup1\n      revert\n        /* \"contracts/Pool/PoolPig.sol\":22351:22447  function setTaxFeePercent(uint256 taxFee) external onlyOwner() {... */\n    tag_3:\n      callvalue\n      dup1\n      iszero\n      tag_49\n      jumpi\n      0x00\n      dup1\n      revert\n    tag_49:\n      pop\n      tag_50\n      0x04\n      dup1\n      calldatasize\n      sub\n      0x20\n      dup2\n      lt\n      iszero\n      tag_51\n      jumpi\n      0x00\n      dup1\n      revert\n    tag_51:\n      dup2\n      add\n      swap1\n      dup1\n      dup1\n      calldataload\n      swap1\n      0x20\n      add\n      swap1\n      swap3\n      swap2\n      swap1\n      pop\n      pop\n      pop\n      tag_52\n      jump\t// in\n    tag_50:\n      stop\n        /* \"contracts/Pool/PoolPig.sol\":17412:17493  function name() public view returns (string memory) {... */\n    tag_4:\n      callvalue\n      dup1\n      iszero\n      tag_53\n      jumpi\n      0x00\n      dup1\n      revert\n    tag_53:\n      pop\n      tag_54\n      tag_55\n      jump\t// in\n    tag_54:\n      mload(0x40)\n      dup1\n      dup1\n      0x20\n      add\n      dup3\n      dup2\n      sub\n      dup3\n      mstore\n      dup4\n      dup2\n      dup2\n      mload\n      dup2\n      mstore\n      0x20\n      add\n      swap2\n      pop\n      dup1\n      mload\n      swap1\n      0x20\n      add\n      swap1\n      dup1\n      dup4\n      dup4\n      0x00\n    tag_56:\n      dup4\n      dup2\n      lt\n      iszero\n      tag_58\n      jumpi\n      dup1\n      dup3\n      add\n      mload\n      dup2\n      dup5\n      add\n      mstore\n      0x20\n      dup2\n      add\n      swap1\n      pop\n      jump(tag_56)\n    tag_58:\n      pop\n      pop\n      pop\n      pop\n      swap1\n      pop\n      swap1\n      dup2\n      add\n      swap1\n      0x1f\n      and\n      dup1\n      iszero\n      tag_59\n      jumpi\n      dup1\n      dup3\n      sub\n      dup1\n      mload\n      0x01\n      dup4\n      0x20\n      sub\n      0x0100\n      exp\n      sub\n      not\n      and\n      dup2\n      mstore\n      0x20\n      add\n      swap2\n      pop\n    tag_59:\n      pop\n      swap3\n      pop\n      pop\n      pop\n      mload(0x40)\n      dup1\n      swap2\n      sub\n      swap1\n      return\n        /* \"contracts/Pool/PoolPig.sol\":18294:18452  function approve(address spender, uint256 amount) public override returns (bool) {... */\n    tag_5:\n      callvalue\n      dup1\n      iszero\n      tag_60\n      jumpi\n      0x00\n      dup1\n      revert\n    tag_60:\n      pop\n      tag_61\n      0x04\n      dup1\n      calldatasize\n      sub\n      0x40\n      dup2\n      lt\n      iszero\n      tag_62\n      jumpi\n      0x00\n      dup1\n      revert\n    tag_62:\n      dup2\n      add\n      swap1\n      dup1\n      dup1\n      calldataload\n      0xffffffffffffffffffffffffffffffffffffffff\n      and\n      swap1\n      0x20\n      add\n      swap1\n      swap3\n      swap2\n      swap1\n      dup1\n      calldataload\n      swap1\n      0x20\n      add\n      swap1\n      swap3\n      swap2\n      swap1\n      pop\n      pop\n      pop\n      tag_63\n      jump\t// in\n    tag_61:\n      mload(0x40)\n      dup1\n      dup3\n      iszero\n      iszero\n      dup2\n      mstore\n      0x20\n      add\n      swap2\n      pop\n      pop\n      mload(0x40)\n      dup1\n      swap2\n      sub\n      swap1\n      return\n        /* \"contracts/Pool/PoolPig.sol\":19390:19475  function totalFees() public view returns (uint256) {... */\n    tag_6:\n      callvalue\n      dup1\n      iszero\n      tag_64\n      jumpi\n      0x00\n      dup1\n      revert\n    tag_64:\n      pop\n      tag_65\n      tag_66\n      jump\t// in\n    tag_65:\n      mload(0x40)\n      dup1\n      dup3\n      dup2\n      mstore\n      0x20\n      add\n      swap2\n      pop\n      pop\n      mload(0x40)\n      dup1\n      swap2\n      sub\n      swap1\n      return\n        /* \"contracts/Pool/PoolPig.sol\":16067:16118  IUniswapV2Router02 public immutable uniswapV2Router */\n    tag_7:\n      callvalue\n      dup1\n      iszero\n      tag_67\n      jumpi\n      0x00\n      dup1\n      revert\n    tag_67:\n      pop\n      tag_68\n      tag_69\n      jump\t// in\n    tag_68:\n      mload(0x40)\n      dup1\n      dup3\n      0xffffffffffffffffffffffffffffffffffffffff\n      and\n      dup2\n      mstore\n      0x20\n      add\n      swap2\n      pop\n      pop\n      mload(0x40)\n      dup1\n      swap2\n      sub\n      swap1\n      return\n        /* \"contracts/Pool/PoolPig.sol\":17677:17770  function totalSupply() public view override returns (uint256) {... */\n    tag_8:\n      callvalue\n      dup1\n      iszero\n      tag_70\n      jumpi\n      0x00\n      dup1\n      revert\n    tag_70:\n      pop\n      tag_71\n      tag_72\n      jump\t// in\n    tag_71:\n      mload(0x40)\n      dup1\n      dup3\n      dup2\n      mstore\n      0x20\n      add\n      swap2\n      pop\n      pop\n      mload(0x40)\n      dup1\n      swap2\n      sub\n      swap1\n      return\n        /* \"contracts/Pool/PoolPig.sol\":18458:18767  function transferFrom(address sender, address recipient, uint256 amount) public override returns (bool) {... */\n    tag_9:\n      callvalue\n      dup1\n      iszero\n      tag_73\n      jumpi\n      0x00\n      dup1\n      revert\n    tag_73:\n      pop\n      tag_74\n      0x04\n      dup1\n      calldatasize\n      sub\n      0x60\n      dup2\n      lt\n      iszero\n      tag_75\n      jumpi\n      0x00\n      dup1\n      revert\n    tag_75:\n      dup2\n      add\n      swap1\n      dup1\n      dup1\n      calldataload\n      0xffffffffffffffffffffffffffffffffffffffff\n      and\n      swap1\n      0x20\n      add\n      swap1\n      swap3\n      swap2\n      swap1\n      dup1\n      calldataload\n      0xffffffffffffffffffffffffffffffffffffffff\n      and\n      swap1\n      0x20\n      add\n      swap1\n      swap3\n      swap2\n      swap1\n      dup1\n      calldataload\n      swap1\n      0x20\n      add\n      swap1\n      swap3\n      swap2\n      swap1\n      pop\n      pop\n      pop\n      tag_76\n      jump\t// in\n    tag_74:\n      mload(0x40)\n      dup1\n      dup3\n      iszero\n      iszero\n      dup2\n      mstore\n      0x20\n      add\n      swap2\n      pop\n      pop\n      mload(0x40)\n      dup1\n      swap2\n      sub\n      swap1\n      return\n        /* \"contracts/Pool/PoolPig.sol\":20290:20539  function tokenFromReflection(uint256 rAmount) public view returns(uint256) {... */\n    tag_10:\n      callvalue\n      dup1\n      iszero\n      tag_77\n      jumpi\n      0x00\n      dup1\n      revert\n    tag_77:\n      pop\n      tag_78\n      0x04\n      dup1\n      calldatasize\n      sub\n      0x20\n      dup2\n      lt\n      iszero\n      tag_79\n      jumpi\n      0x00\n      dup1\n      revert\n    tag_79:\n      dup2\n      add\n      swap1\n      dup1\n      dup1\n      calldataload\n      swap1\n      0x20\n      add\n      swap1\n      swap3\n      swap2\n      swap1\n      pop\n      pop\n      pop\n      tag_80\n      jump\t// in\n    tag_78:\n      mload(0x40)\n      dup1\n      dup3\n      dup2\n      mstore\n      0x20\n      add\n      swap2\n      pop\n      pop\n      mload(0x40)\n      dup1\n      swap2\n      sub\n      swap1\n      return\n        /* \"contracts/Pool/PoolPig.sol\":17590:17671  function decimals() public view returns (uint8) {... */\n    tag_11:\n      callvalue\n      dup1\n      iszero\n      tag_81\n      jumpi\n      0x00\n      dup1\n      revert\n    tag_81:\n      pop\n      tag_82\n      tag_83\n      jump\t// in\n    tag_82:\n      mload(0x40)\n      dup1\n      dup3\n      0xff\n      and\n      dup2\n      mstore\n      0x20\n      add\n      swap2\n      pop\n      pop\n      mload(0x40)\n      dup1\n      swap2\n      sub\n      swap1\n      return\n        /* \"contracts/Pool/PoolPig.sol\":20990:21458  function includeInReward(address account) external onlyOwner() {... */\n    tag_12:\n      callvalue\n      dup1\n      iszero\n      tag_84\n      jumpi\n      0x00\n      dup1\n      revert\n    tag_84:\n      pop\n      tag_85\n      0x04\n      dup1\n      calldatasize\n      sub\n      0x20\n      dup2\n      lt\n      iszero\n      tag_86\n      jumpi\n      0x00\n      dup1\n      revert\n    tag_86:\n      dup2\n      add\n      swap1\n      dup1\n      dup1\n      calldataload\n      0xffffffffffffffffffffffffffffffffffffffff\n      and\n      swap1\n      0x20\n      add\n      swap1\n      swap3\n      swap2\n      swap1\n      pop\n      pop\n      pop\n      tag_87\n      jump\t// in\n    tag_85:\n      stop\n        /* \"contracts/Pool/PoolPig.sol\":18773:18988  function increaseAllowance(address spender, uint256 addedValue) public virtual returns (bool) {... */\n    tag_13:\n      callvalue\n      dup1\n      iszero\n      tag_88\n      jumpi\n      0x00\n      dup1\n      revert\n    tag_88:\n      pop\n      tag_89\n      0x04\n      dup1\n      calldatasize\n      sub\n      0x40\n      dup2\n      lt\n      iszero\n      tag_90\n      jumpi\n      0x00\n      dup1\n      revert\n    tag_90:\n      dup2\n      add\n      swap1\n      dup1\n      dup1\n      calldataload\n      0xffffffffffffffffffffffffffffffffffffffff\n      and\n      swap1\n      0x20\n      add\n      swap1\n      swap3\n      swap2\n      swap1\n      dup1\n      calldataload\n      swap1\n      0x20\n      add\n      swap1\n      swap3\n      swap2\n      swap1\n      pop\n      pop\n      pop\n      tag_91\n      jump\t// in\n    tag_89:\n      mload(0x40)\n      dup1\n      dup3\n      iszero\n      iszero\n      dup2\n      mstore\n      0x20\n      add\n      swap2\n      pop\n      pop\n      mload(0x40)\n      dup1\n      swap2\n      sub\n      swap1\n      return\n        /* \"contracts/Pool/PoolPig.sol\":15885:15911  uint256 public _taxFee = 2 */\n    tag_14:\n      callvalue\n      dup1\n      iszero\n      tag_92\n      jumpi\n      0x00\n      dup1\n      revert\n    tag_92:\n      pop\n      tag_93\n      tag_94\n      jump\t// in\n    tag_93:\n      mload(0x40)\n      dup1\n      dup3\n      dup2\n      mstore\n      0x20\n      add\n      swap2\n      pop\n      pop\n      mload(0x40)\n      dup1\n      swap2\n      sub\n      swap1\n      return\n        /* \"contracts/Pool/PoolPig.sol\":19481:19851  function deliver(uint256 tAmount) public {... */\n    tag_15:\n      callvalue\n      dup1\n      iszero\n      tag_95\n      jumpi\n      0x00\n      dup1\n      revert\n    tag_95:\n      pop\n      tag_96\n      0x04\n      dup1\n      calldatasize\n      sub\n      0x20\n      dup2\n      lt\n      iszero\n      tag_97\n      jumpi\n      0x00\n      dup1\n      revert\n    tag_97:\n      dup2\n      add\n      swap1\n      dup1\n      dup1\n      calldataload\n      swap1\n      0x20\n      add\n      swap1\n      swap3\n      swap2\n      swap1\n      pop\n      pop\n      pop\n      tag_98\n      jump\t// in\n    tag_96:\n      stop\n        /* \"contracts/Pool/PoolPig.sol\":22114:22223  function excludeFromFee(address account) public onlyOwner {... */\n    tag_16:\n      callvalue\n      dup1\n      iszero\n      tag_99\n      jumpi\n      0x00\n      dup1\n      revert\n    tag_99:\n      pop\n      tag_100\n      0x04\n      dup1\n      calldatasize\n      sub\n      0x20\n      dup2\n      lt\n      iszero\n      tag_101\n      jumpi\n      0x00\n      dup1\n      revert\n    tag_101:\n      dup2\n      add\n      swap1\n      dup1\n      dup1\n      calldataload\n      0xffffffffffffffffffffffffffffffffffffffff\n      and\n      swap1\n      0x20\n      add\n      swap1\n      swap3\n      swap2\n      swap1\n      pop\n      pop\n      pop\n      tag_102\n      jump\t// in\n    tag_100:\n      stop\n        /* \"contracts/Pool/PoolPig.sol\":19857:20284  function reflectionFromToken(uint256 tAmount, bool deductTransferFee) public view returns(uint256) {... */\n    tag_17:\n      callvalue\n      dup1\n      iszero\n      tag_103\n      jumpi\n      0x00\n      dup1\n      revert\n    tag_103:\n      pop\n      tag_104\n      0x04\n      dup1\n      calldatasize\n      sub\n      0x40\n      dup2\n      lt\n      iszero\n      tag_105\n      jumpi\n      0x00\n      dup1\n      revert\n    tag_105:\n      dup2\n      add\n      swap1\n      dup1\n      dup1\n      calldataload\n      swap1\n      0x20\n      add\n      swap1\n      swap3\n      swap2\n      swap1\n      dup1\n      calldataload\n      iszero\n      iszero\n      swap1\n      0x20\n      add\n      swap1\n      swap3\n      swap2\n      swap1\n      pop\n      pop\n      pop\n      tag_106\n      jump\t// in\n    tag_104:\n      mload(0x40)\n      dup1\n      dup3\n      dup2\n      mstore\n      0x20\n      add\n      swap2\n      pop\n      pop\n      mload(0x40)\n      dup1\n      swap2\n      sub\n      swap1\n      return\n        /* \"contracts/Pool/PoolPig.sol\":16124:16162  address public immutable uniswapV2Pair */\n    tag_18:\n      callvalue\n      dup1\n      iszero\n      tag_107\n      jumpi\n      0x00\n      dup1\n      revert\n    tag_107:\n      pop\n      tag_108\n      tag_109\n      jump\t// in\n    tag_108:\n      mload(0x40)\n      dup1\n      dup3\n      0xffffffffffffffffffffffffffffffffffffffff\n      and\n      dup2\n      mstore\n      0x20\n      add\n      swap2\n      pop\n      pop\n      mload(0x40)\n      dup1\n      swap2\n      sub\n      swap1\n      return\n        /* \"contracts/Pool/PoolPig.sol\":16200:16240  bool public swapAndLiquifyEnabled = true */\n    tag_19:\n      callvalue\n      dup1\n      iszero\n      tag_110\n      jumpi\n      0x00\n      dup1\n      revert\n    tag_110:\n      pop\n      tag_111\n      tag_112\n      jump\t// in\n    tag_111:\n      mload(0x40)\n      dup1\n      dup3\n      iszero\n      iszero\n      dup2\n      mstore\n      0x20\n      add\n      swap2\n      pop\n      pop\n      mload(0x40)\n      dup1\n      swap2\n      sub\n      swap1\n      return\n        /* \"contracts/Pool/PoolPig.sol\":20545:20984  function excludeFromReward(address account) public onlyOwner() {... */\n    tag_20:\n      callvalue\n      dup1\n      iszero\n      tag_113\n      jumpi\n      0x00\n      dup1\n      revert\n    tag_113:\n      pop\n      tag_114\n      0x04\n      dup1\n      calldatasize\n      sub\n      0x20\n      dup2\n      lt\n      iszero\n      tag_115\n      jumpi\n      0x00\n      dup1\n      revert\n    tag_115:\n      dup2\n      add\n      swap1\n      dup1\n      dup1\n      calldataload\n      0xffffffffffffffffffffffffffffffffffffffff\n      and\n      swap1\n      0x20\n      add\n      swap1\n      swap3\n      swap2\n      swap1\n      pop\n      pop\n      pop\n      tag_116\n      jump\t// in\n    tag_114:\n      stop\n        /* \"contracts/Pool/PoolPig.sol\":26148:26269  function isExcludedFromFee(address account) public view returns(bool) {... */\n    tag_21:\n      callvalue\n      dup1\n      iszero\n      tag_117\n      jumpi\n      0x00\n      dup1\n      revert\n    tag_117:\n      pop\n      tag_118\n      0x04\n      dup1\n      calldatasize\n      sub\n      0x20\n      dup2\n      lt\n      iszero\n      tag_119\n      jumpi\n      0x00\n      dup1\n      revert\n    tag_119:\n      dup2\n      add\n      swap1\n      dup1\n      dup1\n      calldataload\n      0xffffffffffffffffffffffffffffffffffffffff\n      and\n      swap1\n      0x20\n      add\n      swap1\n      swap3\n      swap2\n      swap1\n      pop\n      pop\n      pop\n      tag_120\n      jump\t// in\n    tag_118:\n      mload(0x40)\n      dup1\n      dup3\n      iszero\n      iszero\n      dup2\n      mstore\n      0x20\n      add\n      swap2\n      pop\n      pop\n      mload(0x40)\n      dup1\n      swap2\n      sub\n      swap1\n      return\n        /* \"contracts/Pool/PoolPig.sol\":15969:16001  uint256 public _liquidityFee = 3 */\n    tag_22:\n      callvalue\n      dup1\n      iszero\n      tag_121\n      jumpi\n      0x00\n      dup1\n      revert\n    tag_121:\n      pop\n      tag_122\n      tag_123\n      jump\t// in\n    tag_122:\n      mload(0x40)\n      dup1\n      dup3\n      dup2\n      mstore\n      0x20\n      add\n      swap2\n      pop\n      pop\n      mload(0x40)\n      dup1\n      swap2\n      sub\n      swap1\n      return\n        /* \"contracts/Pool/PoolPig.sol\":17776:17971  function balanceOf(address account) public view override returns (uint256) {... */\n    tag_23:\n      callvalue\n      dup1\n      iszero\n      tag_124\n      jumpi\n      0x00\n      dup1\n      revert\n    tag_124:\n      pop\n      tag_125\n      0x04\n      dup1\n      calldatasize\n      sub\n      0x20\n      dup2\n      lt\n      iszero\n      tag_126\n      jumpi\n      0x00\n      dup1\n      revert\n    tag_126:\n      dup2\n      add\n      swap1\n      dup1\n      dup1\n      calldataload\n      0xffffffffffffffffffffffffffffffffffffffff\n      and\n      swap1\n      0x20\n      add\n      swap1\n      swap3\n      swap2\n      swap1\n      pop\n      pop\n      pop\n      tag_127\n      jump\t// in\n    tag_125:\n      mload(0x40)\n      dup1\n      dup3\n      dup2\n      mstore\n      0x20\n      add\n      swap2\n      pop\n      pop\n      mload(0x40)\n      dup1\n      swap2\n      sub\n      swap1\n      return\n        /* \"contracts/Pool/PoolPig.sol\":6118:6263  function renounceOwnership() public virtual onlyOwner {... */\n    tag_24:\n      callvalue\n      dup1\n      iszero\n      tag_128\n      jumpi\n      0x00\n      dup1\n      revert\n    tag_128:\n      pop\n      tag_129\n      tag_130\n      jump\t// in\n    tag_129:\n      stop\n        /* \"contracts/Pool/PoolPig.sol\":16251:16298  uint256 public _maxTxAmount = 500000000 * 10**9 */\n    tag_25:\n      callvalue\n      dup1\n      iszero\n      tag_131\n      jumpi\n      0x00\n      dup1\n      revert\n    tag_131:\n      pop\n      tag_132\n      tag_133\n      jump\t// in\n    tag_132:\n      mload(0x40)\n      dup1\n      dup3\n      dup2\n      mstore\n      0x20\n      add\n      swap2\n      pop\n      pop\n      mload(0x40)\n      dup1\n      swap2\n      sub\n      swap1\n      return\n        /* \"contracts/Pool/PoolPig.sol\":19266:19384  function isExcludedFromReward(address account) public view returns (bool) {... */\n    tag_26:\n      callvalue\n      dup1\n      iszero\n      tag_134\n      jumpi\n      0x00\n      dup1\n      revert\n    tag_134:\n      pop\n      tag_135\n      0x04\n      dup1\n      calldatasize\n      sub\n      0x20\n      dup2\n      lt\n      iszero\n      tag_136\n      jumpi\n      0x00\n      dup1\n      revert\n    tag_136:\n      dup2\n      add\n      swap1\n      dup1\n      dup1\n      calldataload\n      0xffffffffffffffffffffffffffffffffffffffff\n      and\n      swap1\n      0x20\n      add\n      swap1\n      swap3\n      swap2\n      swap1\n      pop\n      pop\n      pop\n      tag_137\n      jump\t// in\n    tag_135:\n      mload(0x40)\n      dup1\n      dup3\n      iszero\n      iszero\n      dup2\n      mstore\n      0x20\n      add\n      swap2\n      pop\n      pop\n      mload(0x40)\n      dup1\n      swap2\n      sub\n      swap1\n      return\n        /* \"contracts/Pool/PoolPig.sol\":5831:5908  function owner() public view returns (address) {... */\n    tag_27:\n      callvalue\n      dup1\n      iszero\n      tag_138\n      jumpi\n      0x00\n      dup1\n      revert\n    tag_138:\n      pop\n      tag_139\n      tag_140\n      jump\t// in\n    tag_139:\n      mload(0x40)\n      dup1\n      dup3\n      0xffffffffffffffffffffffffffffffffffffffff\n      and\n      dup2\n      mstore\n      0x20\n      add\n      swap2\n      pop\n      pop\n      mload(0x40)\n      dup1\n      swap2\n      sub\n      swap1\n      return\n        /* \"contracts/Pool/PoolPig.sol\":22457:22577  function setLiquidityFeePercent(uint256 liquidityFee) external onlyOwner() {... */\n    tag_28:\n      callvalue\n      dup1\n      iszero\n      tag_141\n      jumpi\n      0x00\n      dup1\n      revert\n    tag_141:\n      pop\n      tag_142\n      0x04\n      dup1\n      calldatasize\n      sub\n      0x20\n      dup2\n      lt\n      iszero\n      tag_143\n      jumpi\n      0x00\n      dup1\n      revert\n    tag_143:\n      dup2\n      add\n      swap1\n      dup1\n      dup1\n      calldataload\n      swap1\n      0x20\n      add\n      swap1\n      swap3\n      swap2\n      swap1\n      pop\n      pop\n      pop\n      tag_144\n      jump\t// in\n    tag_142:\n      stop\n        /* \"contracts/Pool/PoolPig.sol\":17499:17584  function symbol() public view returns (string memory) {... */\n    tag_29:\n      callvalue\n      dup1\n      iszero\n      tag_145\n      jumpi\n      0x00\n      dup1\n      revert\n    tag_145:\n      pop\n      tag_146\n      tag_147\n      jump\t// in\n    tag_146:\n      mload(0x40)\n      dup1\n      dup1\n      0x20\n      add\n      dup3\n      dup2\n      sub\n      dup3\n      mstore\n      dup4\n      dup2\n      dup2\n      mload\n      dup2\n      mstore\n      0x20\n      add\n      swap2\n      pop\n      dup1\n      mload\n      swap1\n      0x20\n      add\n      swap1\n      dup1\n      dup4\n      dup4\n      0x00\n    tag_148:\n      dup4\n      dup2\n      lt\n      iszero\n      tag_150\n      jumpi\n      dup1\n      dup3\n      add\n      mload\n      dup2\n      dup5\n      add\n      mstore\n      0x20\n      dup2\n      add\n      swap1\n      pop\n      jump(tag_148)\n    tag_150:\n      pop\n      pop\n      pop\n      pop\n      swap1\n      pop\n      swap1\n      dup2\n      add\n      swap1\n      0x1f\n      and\n      dup1\n      iszero\n      tag_151\n      jumpi\n      dup1\n      dup3\n      sub\n      dup1\n      mload\n      0x01\n      dup4\n      0x20\n      sub\n      0x0100\n      exp\n      sub\n      not\n      and\n      dup2\n      mstore\n      0x20\n      add\n      swap2\n      pop\n    tag_151:\n      pop\n      swap3\n      pop\n      pop\n      pop\n      mload(0x40)\n      dup1\n      swap2\n      sub\n      swap1\n      return\n        /* \"contracts/Pool/PoolPig.sol\":18994:19260  function decreaseAllowance(address spender, uint256 subtractedValue) public virtual returns (bool) {... */\n    tag_30:\n      callvalue\n      dup1\n      iszero\n      tag_152\n      jumpi\n      0x00\n      dup1\n      revert\n    tag_152:\n      pop\n      tag_153\n      0x04\n      dup1\n      calldatasize\n      sub\n      0x40\n      dup2\n      lt\n      iszero\n      tag_154\n      jumpi\n      0x00\n      dup1\n      revert\n    tag_154:\n      dup2\n      add\n      swap1\n      dup1\n      dup1\n      calldataload\n      0xffffffffffffffffffffffffffffffffffffffff\n      and\n      swap1\n      0x20\n      add\n      swap1\n      swap3\n      swap2\n      swap1\n      dup1\n      calldataload\n      swap1\n      0x20\n      add\n      swap1\n      swap3\n      swap2\n      swap1\n      pop\n      pop\n      pop\n      tag_155\n      jump\t// in\n    tag_153:\n      mload(0x40)\n      dup1\n      dup3\n      iszero\n      iszero\n      dup2\n      mstore\n      0x20\n      add\n      swap2\n      pop\n      pop\n      mload(0x40)\n      dup1\n      swap2\n      sub\n      swap1\n      return\n        /* \"contracts/Pool/PoolPig.sol\":6957:7245  function unlock() public virtual {... */\n    tag_31:\n      callvalue\n      dup1\n      iszero\n      tag_156\n      jumpi\n      0x00\n      dup1\n      revert\n    tag_156:\n      pop\n      tag_157\n      tag_158\n      jump\t// in\n    tag_157:\n      stop\n        /* \"contracts/Pool/PoolPig.sol\":17977:18141  function transfer(address recipient, uint256 amount) public override returns (bool) {... */\n    tag_32:\n      callvalue\n      dup1\n      iszero\n      tag_159\n      jumpi\n      0x00\n      dup1\n      revert\n    tag_159:\n      pop\n      tag_160\n      0x04\n      dup1\n      calldatasize\n      sub\n      0x40\n      dup2\n      lt\n      iszero\n      tag_161\n      jumpi\n      0x00\n      dup1\n      revert\n    tag_161:\n      dup2\n      add\n      swap1\n      dup1\n      dup1\n      calldataload\n      0xffffffffffffffffffffffffffffffffffffffff\n      and\n      swap1\n      0x20\n      add\n      swap1\n      swap3\n      swap2\n      swap1\n      dup1\n      calldataload\n      swap1\n      0x20\n      add\n      swap1\n      swap3\n      swap2\n      swap1\n      pop\n      pop\n      pop\n      tag_162\n      jump\t// in\n    tag_160:\n      mload(0x40)\n      dup1\n      dup3\n      iszero\n      iszero\n      dup2\n      mstore\n      0x20\n      add\n      swap2\n      pop\n      pop\n      mload(0x40)\n      dup1\n      swap2\n      sub\n      swap1\n      return\n        /* \"contracts/Pool/PoolPig.sol\":6515:6602  function geUnlockTime() public view returns (uint256) {... */\n    tag_33:\n      callvalue\n      dup1\n      iszero\n      tag_163\n      jumpi\n      0x00\n      dup1\n      revert\n    tag_163:\n      pop\n      tag_164\n      tag_165\n      jump\t// in\n    tag_164:\n      mload(0x40)\n      dup1\n      dup3\n      dup2\n      mstore\n      0x20\n      add\n      swap2\n      pop\n      pop\n      mload(0x40)\n      dup1\n      swap2\n      sub\n      swap1\n      return\n        /* \"contracts/Pool/PoolPig.sol\":22750:22918  function setSwapAndLiquifyEnabled(bool _enabled) public onlyOwner {... */\n    tag_34:\n      callvalue\n      dup1\n      iszero\n      tag_166\n      jumpi\n      0x00\n      dup1\n      revert\n    tag_166:\n      pop\n      tag_167\n      0x04\n      dup1\n      calldatasize\n      sub\n      0x20\n      dup2\n      lt\n      iszero\n      tag_168\n      jumpi\n      0x00\n      dup1\n      revert\n    tag_168:\n      dup2\n      add\n      swap1\n      dup1\n      dup1\n      calldataload\n      iszero\n      iszero\n      swap1\n      0x20\n      add\n      swap1\n      swap3\n      swap2\n      swap1\n      pop\n      pop\n      pop\n      tag_169\n      jump\t// in\n    tag_167:\n      stop\n        /* \"contracts/Pool/PoolPig.sol\":22586:22744  function setMaxTxPercent(uint256 maxTxPercent) external onlyOwner() {... */\n    tag_35:\n      callvalue\n      dup1\n      iszero\n      tag_170\n      jumpi\n      0x00\n      dup1\n      revert\n    tag_170:\n      pop\n      tag_171\n      0x04\n      dup1\n      calldatasize\n      sub\n      0x20\n      dup2\n      lt\n      iszero\n      tag_172\n      jumpi\n      0x00\n      dup1\n      revert\n    tag_172:\n      dup2\n      add\n      swap1\n      dup1\n      dup1\n      calldataload\n      swap1\n      0x20\n      add\n      swap1\n      swap3\n      swap2\n      swap1\n      pop\n      pop\n      pop\n      tag_173\n      jump\t// in\n    tag_171:\n      stop\n        /* \"contracts/Pool/PoolPig.sol\":6675:6884  function lock(uint256 time) public virtual onlyOwner {... */\n    tag_36:\n      callvalue\n      dup1\n      iszero\n      tag_174\n      jumpi\n      0x00\n      dup1\n      revert\n    tag_174:\n      pop\n      tag_175\n      0x04\n      dup1\n      calldatasize\n      sub\n      0x20\n      dup2\n      lt\n      iszero\n      tag_176\n      jumpi\n      0x00\n      dup1\n      revert\n    tag_176:\n      dup2\n      add\n      swap1\n      dup1\n      dup1\n      calldataload\n      swap1\n      0x20\n      add\n      swap1\n      swap3\n      swap2\n      swap1\n      pop\n      pop\n      pop\n      tag_177\n      jump\t// in\n    tag_175:\n      stop\n        /* \"contracts/Pool/PoolPig.sol\":18147:18288  function allowance(address owner, address spender) public view override returns (uint256) {... */\n    tag_37:\n      callvalue\n      dup1\n      iszero\n      tag_178\n      jumpi\n      0x00\n      dup1\n      revert\n    tag_178:\n      pop\n      tag_179\n      0x04\n      dup1\n      calldatasize\n      sub\n      0x40\n      dup2\n      lt\n      iszero\n      tag_180\n      jumpi\n      0x00\n      dup1\n      revert\n    tag_180:\n      dup2\n      add\n      swap1\n      dup1\n      dup1\n      calldataload\n      0xffffffffffffffffffffffffffffffffffffffff\n      and\n      swap1\n      0x20\n      add\n      swap1\n      swap3\n      swap2\n      swap1\n      dup1\n      calldataload\n      0xffffffffffffffffffffffffffffffffffffffff\n      and\n      swap1\n      0x20\n      add\n      swap1\n      swap3\n      swap2\n      swap1\n      pop\n      pop\n      pop\n      tag_181\n      jump\t// in\n    tag_179:\n      mload(0x40)\n      dup1\n      dup3\n      dup2\n      mstore\n      0x20\n      add\n      swap2\n      pop\n      pop\n      mload(0x40)\n      dup1\n      swap2\n      sub\n      swap1\n      return\n        /* \"contracts/Pool/PoolPig.sol\":22233:22341  function includeInFee(address account) public onlyOwner {... */\n    tag_38:\n      callvalue\n      dup1\n      iszero\n      tag_182\n      jumpi\n      0x00\n      dup1\n      revert\n    tag_182:\n      pop\n      tag_183\n      0x04\n      dup1\n      calldatasize\n      sub\n      0x20\n      dup2\n      lt\n      iszero\n      tag_184\n      jumpi\n      0x00\n      dup1\n      revert\n    tag_184:\n      dup2\n      add\n      swap1\n      dup1\n      dup1\n      calldataload\n      0xffffffffffffffffffffffffffffffffffffffff\n      and\n      swap1\n      0x20\n      add\n      swap1\n      swap3\n      swap2\n      swap1\n      pop\n      pop\n      pop\n      tag_185\n      jump\t// in\n    tag_183:\n      stop\n        /* \"contracts/Pool/PoolPig.sol\":6269:6509  function transferOwnership(address newOwner) public virtual onlyOwner {... */\n    tag_39:\n      callvalue\n      dup1\n      iszero\n      tag_186\n      jumpi\n      0x00\n      dup1\n      revert\n    tag_186:\n      pop\n      tag_187\n      0x04\n      dup1\n      calldatasize\n      sub\n      0x20\n      dup2\n      lt\n      iszero\n      tag_188\n      jumpi\n      0x00\n      dup1\n      revert\n    tag_188:\n      dup2\n      add\n      swap1\n      dup1\n      dup1\n      calldataload\n      0xffffffffffffffffffffffffffffffffffffffff\n      and\n      swap1\n      0x20\n      add\n      swap1\n      swap3\n      swap2\n      swap1\n      pop\n      pop\n      pop\n      tag_189\n      jump\t// in\n    tag_187:\n      stop\n        /* \"contracts/Pool/PoolPig.sol\":22351:22447  function setTaxFeePercent(uint256 taxFee) external onlyOwner() {... */\n    tag_52:\n        /* \"contracts/Pool/PoolPig.sol\":6045:6057  _msgSender() */\n      tag_191\n        /* \"contracts/Pool/PoolPig.sol\":6045:6055  _msgSender */\n      tag_192\n        /* \"contracts/Pool/PoolPig.sol\":6045:6057  _msgSender() */\n      jump\t// in\n    tag_191:\n        /* \"contracts/Pool/PoolPig.sol\":6035:6057  _owner == _msgSender() */\n      0xffffffffffffffffffffffffffffffffffffffff\n      and\n        /* \"contracts/Pool/PoolPig.sol\":6035:6041  _owner */\n      0x00\n      dup1\n      sload\n      swap1\n      0x0100\n      exp\n      swap1\n      div\n      0xffffffffffffffffffffffffffffffffffffffff\n      and\n        /* \"contracts/Pool/PoolPig.sol\":6035:6057  _owner == _msgSender() */\n      0xffffffffffffffffffffffffffffffffffffffff\n      and\n      eq\n        /* \"contracts/Pool/PoolPig.sol\":6027:6094  require(_owner == _msgSender(), \"Ownable: caller is not the owner\") */\n      tag_193\n      jumpi\n      mload(0x40)\n      0x08c379a000000000000000000000000000000000000000000000000000000000\n      dup2\n      mstore\n      0x04\n      add\n      dup1\n      dup1\n      0x20\n      add\n      dup3\n      dup2\n      sub\n      dup3\n      mstore\n      0x20\n      dup2\n      mstore\n      0x20\n      add\n      dup1\n      0x4f776e61626c653a2063616c6c6572206973206e6f7420746865206f776e6572\n      dup2\n      mstore\n      pop\n      0x20\n      add\n      swap2\n      pop\n      pop\n      mload(0x40)\n      dup1\n      swap2\n      sub\n      swap1\n      revert\n    tag_193:\n        /* \"contracts/Pool/PoolPig.sol\":22434:22440  taxFee */\n      dup1\n        /* \"contracts/Pool/PoolPig.sol\":22424:22431  _taxFee */\n      0x0e\n        /* \"contracts/Pool/PoolPig.sol\":22424:22440  _taxFee = taxFee */\n      dup2\n      swap1\n      sstore\n      pop\n        /* \"contracts/Pool/PoolPig.sol\":22351:22447  function setTaxFeePercent(uint256 taxFee) external onlyOwner() {... */\n      pop\n      jump\t// out\n        /* \"contracts/Pool/PoolPig.sol\":17412:17493  function name() public view returns (string memory) {... */\n    tag_55:\n        /* \"contracts/Pool/PoolPig.sol\":17449:17462  string memory */\n      0x60\n        /* \"contracts/Pool/PoolPig.sol\":17481:17486  _name */\n      0x0b\n        /* \"contracts/Pool/PoolPig.sol\":17474:17486  return _name */\n      dup1\n      sload\n      0x01\n      dup2\n      0x01\n      and\n      iszero\n      0x0100\n      mul\n      sub\n      and\n      0x02\n      swap1\n      div\n      dup1\n      0x1f\n      add\n      0x20\n      dup1\n      swap2\n      div\n      mul\n      0x20\n      add\n      mload(0x40)\n      swap1\n      dup2\n      add\n      0x40\n      mstore\n      dup1\n      swap3\n      swap2\n      swap1\n      dup2\n      dup2\n      mstore\n      0x20\n      add\n      dup3\n      dup1\n      sload\n      0x01\n      dup2\n      0x01\n      and\n      iszero\n      0x0100\n      mul\n      sub\n      and\n      0x02\n      swap1\n      div\n      dup1\n      iszero\n      tag_196\n      jumpi\n      dup1\n      0x1f\n      lt\n      tag_197\n      jumpi\n      0x0100\n      dup1\n      dup4\n      sload\n      div\n      mul\n      dup4\n      mstore\n      swap2\n      0x20\n      add\n      swap2\n      jump(tag_196)\n    tag_197:\n      dup3\n      add\n      swap2\n      swap1\n      0x00\n      mstore\n      keccak256(0x00, 0x20)\n      swap1\n    tag_198:\n      dup2\n      sload\n      dup2\n      mstore\n      swap1\n      0x01\n      add\n      swap1\n      0x20\n      add\n      dup1\n      dup4\n      gt\n      tag_198\n      jumpi\n      dup3\n      swap1\n      sub\n      0x1f\n      and\n      dup3\n      add\n      swap2\n    tag_196:\n      pop\n      pop\n      pop\n      pop\n      pop\n      swap1\n      pop\n        /* \"contracts/Pool/PoolPig.sol\":17412:17493  function name() public view returns (string memory) {... */\n      swap1\n      jump\t// out\n        /* \"contracts/Pool/PoolPig.sol\":18294:18452  function approve(address spender, uint256 amount) public override returns (bool) {... */\n    tag_63:\n        /* \"contracts/Pool/PoolPig.sol\":18369:18373  bool */\n      0x00\n        /* \"contracts/Pool/PoolPig.sol\":18385:18424  _approve(_msgSender(), spender, amount) */\n      tag_200\n        /* \"contracts/Pool/PoolPig.sol\":18394:18406  _msgSender() */\n      tag_201\n        /* \"contracts/Pool/PoolPig.sol\":18394:18404  _msgSender */\n      tag_192\n        /* \"contracts/Pool/PoolPig.sol\":18394:18406  _msgSender() */\n      jump\t// in\n    tag_201:\n        /* \"contracts/Pool/PoolPig.sol\":18408:18415  spender */\n      dup5\n        /* \"contracts/Pool/PoolPig.sol\":18417:18423  amount */\n      dup5\n        /* \"contracts/Pool/PoolPig.sol\":18385:18393  _approve */\n      tag_202\n        /* \"contracts/Pool/PoolPig.sol\":18385:18424  _approve(_msgSender(), spender, amount) */\n      jump\t// in\n    tag_200:\n        /* \"contracts/Pool/PoolPig.sol\":18441:18445  true */\n      0x01\n        /* \"contracts/Pool/PoolPig.sol\":18434:18445  return true */\n      swap1\n      pop\n        /* \"contracts/Pool/PoolPig.sol\":18294:18452  function approve(address spender, uint256 amount) public override returns (bool) {... */\n      swap3\n      swap2\n      pop\n      pop\n      jump\t// out\n        /* \"contracts/Pool/PoolPig.sol\":19390:19475  function totalFees() public view returns (uint256) {... */\n    tag_66:\n        /* \"contracts/Pool/PoolPig.sol\":19432:19439  uint256 */\n      0x00\n        /* \"contracts/Pool/PoolPig.sol\":19458:19468  _tFeeTotal */\n      sload(0x0a)\n        /* \"contracts/Pool/PoolPig.sol\":19451:19468  return _tFeeTotal */\n      swap1\n      pop\n        /* \"contracts/Pool/PoolPig.sol\":19390:19475  function totalFees() public view returns (uint256) {... */\n      swap1\n      jump\t// out\n        /* \"contracts/Pool/PoolPig.sol\":16067:16118  IUniswapV2Router02 public immutable uniswapV2Router */\n    tag_69:\n      immutable(\"0xcbd30de1da04efa9e9dfb752a21e23c2c0c1de652015c52c119403b61435944f\")\n      dup2\n      jump\t// out\n        /* \"contracts/Pool/PoolPig.sol\":17677:17770  function totalSupply() public view override returns (uint256) {... */\n    tag_72:\n        /* \"contracts/Pool/PoolPig.sol\":17730:17737  uint256 */\n      0x00\n        /* \"contracts/Pool/PoolPig.sol\":15658:15676  1000000000 * 10**9 */\n      0x0de0b6b3a7640000\n        /* \"contracts/Pool/PoolPig.sol\":17749:17763  return _tTotal */\n      swap1\n      pop\n        /* \"contracts/Pool/PoolPig.sol\":17677:17770  function totalSupply() public view override returns (uint256) {... */\n      swap1\n      jump\t// out\n        /* \"contracts/Pool/PoolPig.sol\":18458:18767  function transferFrom(address sender, address recipient, uint256 amount) public override returns (bool) {... */\n    tag_76:\n        /* \"contracts/Pool/PoolPig.sol\":18556:18560  bool */\n      0x00\n        /* \"contracts/Pool/PoolPig.sol\":18572:18608  _transfer(sender, recipient, amount) */\n      tag_206\n        /* \"contracts/Pool/PoolPig.sol\":18582:18588  sender */\n      dup5\n        /* \"contracts/Pool/PoolPig.sol\":18590:18599  recipient */\n      dup5\n        /* \"contracts/Pool/PoolPig.sol\":18601:18607  amount */\n      dup5\n        /* \"contracts/Pool/PoolPig.sol\":18572:18581  _transfer */\n      tag_207\n        /* \"contracts/Pool/PoolPig.sol\":18572:18608  _transfer(sender, recipient, amount) */\n      jump\t// in\n    tag_206:\n        /* \"contracts/Pool/PoolPig.sol\":18618:18739  _approve(sender, _msgSender(), _allowances[sender][_msgSender()].sub(amount, \"ERC20: transfer amount exceeds allowance\")) */\n      tag_208\n        /* \"contracts/Pool/PoolPig.sol\":18627:18633  sender */\n      dup5\n        /* \"contracts/Pool/PoolPig.sol\":18635:18647  _msgSender() */\n      tag_209\n        /* \"contracts/Pool/PoolPig.sol\":18635:18645  _msgSender */\n      tag_192\n        /* \"contracts/Pool/PoolPig.sol\":18635:18647  _msgSender() */\n      jump\t// in\n    tag_209:\n        /* \"contracts/Pool/PoolPig.sol\":18649:18738  _allowances[sender][_msgSender()].sub(amount, \"ERC20: transfer amount exceeds allowance\") */\n      tag_210\n        /* \"contracts/Pool/PoolPig.sol\":18687:18693  amount */\n      dup6\n        /* \"contracts/Pool/PoolPig.sol\":18649:18738  _allowances[sender][_msgSender()].sub(amount, \"ERC20: transfer amount exceeds allowance\") */\n      mload(0x40)\n      dup1\n      0x60\n      add\n      0x40\n      mstore\n      dup1\n      0x28\n      dup2\n      mstore\n      0x20\n      add\n      data_974d1b4421da69cc60b481194f0dad36a5bb4e23da810da7a7fb30cdba178330\n      0x28\n      swap2\n      codecopy\n        /* \"contracts/Pool/PoolPig.sol\":18649:18660  _allowances */\n      0x05\n        /* \"contracts/Pool/PoolPig.sol\":18649:18668  _allowances[sender] */\n      0x00\n        /* \"contracts/Pool/PoolPig.sol\":18661:18667  sender */\n      dup12\n        /* \"contracts/Pool/PoolPig.sol\":18649:18668  _allowances[sender] */\n      0xffffffffffffffffffffffffffffffffffffffff\n      and\n      0xffffffffffffffffffffffffffffffffffffffff\n      and\n      dup2\n      mstore\n      0x20\n      add\n      swap1\n      dup2\n      mstore\n      0x20\n      add\n      0x00\n      keccak256\n        /* \"contracts/Pool/PoolPig.sol\":18649:18682  _allowances[sender][_msgSender()] */\n      0x00\n        /* \"contracts/Pool/PoolPig.sol\":18669:18681  _msgSender() */\n      tag_211\n        /* \"contracts/Pool/PoolPig.sol\":18669:18679  _msgSender */\n      tag_192\n        /* \"contracts/Pool/PoolPig.sol\":18669:18681  _msgSender() */\n      jump\t// in\n    tag_211:\n        /* \"contracts/Pool/PoolPig.sol\":18649:18682  _allowances[sender][_msgSender()] */\n      0xffffffffffffffffffffffffffffffffffffffff\n      and\n      0xffffffffffffffffffffffffffffffffffffffff\n      and\n      dup2\n      mstore\n      0x20\n      add\n      swap1\n      dup2\n      mstore\n      0x20\n      add\n      0x00\n      keccak256\n      sload\n        /* \"contracts/Pool/PoolPig.sol\":18649:18686  _allowances[sender][_msgSender()].sub */\n      tag_212\n      swap1\n        /* \"contracts/Pool/PoolPig.sol\":18649:18738  _allowances[sender][_msgSender()].sub(amount, \"ERC20: transfer amount exceeds allowance\") */\n      swap3\n      swap2\n      swap1\n      0xffffffff\n      and\n      jump\t// in\n    tag_210:\n        /* \"contracts/Pool/PoolPig.sol\":18618:18626  _approve */\n      tag_202\n        /* \"contracts/Pool/PoolPig.sol\":18618:18739  _approve(sender, _msgSender(), _allowances[sender][_msgSender()].sub(amount, \"ERC20: transfer amount exceeds allowance\")) */\n      jump\t// in\n    tag_208:\n        /* \"contracts/Pool/PoolPig.sol\":18756:18760  true */\n      0x01\n        /* \"contracts/Pool/PoolPig.sol\":18749:18760  return true */\n      swap1\n      pop\n        /* \"contracts/Pool/PoolPig.sol\":18458:18767  function transferFrom(address sender, address recipient, uint256 amount) public override returns (bool) {... */\n      swap4\n      swap3\n      pop\n      pop\n      pop\n      jump\t// out\n        /* \"contracts/Pool/PoolPig.sol\":20290:20539  function tokenFromReflection(uint256 rAmount) public view returns(uint256) {... */\n    tag_80:\n        /* \"contracts/Pool/PoolPig.sol\":20356:20363  uint256 */\n      0x00\n        /* \"contracts/Pool/PoolPig.sol\":20394:20401  _rTotal */\n      sload(0x09)\n        /* \"contracts/Pool/PoolPig.sol\":20383:20390  rAmount */\n      dup3\n        /* \"contracts/Pool/PoolPig.sol\":20383:20401  rAmount <= _rTotal */\n      gt\n      iszero\n        /* \"contracts/Pool/PoolPig.sol\":20375:20448  require(rAmount <= _rTotal, \"Amount must be less than total reflections\") */\n      tag_214\n      jumpi\n      mload(0x40)\n      0x08c379a000000000000000000000000000000000000000000000000000000000\n      dup2\n      mstore\n      0x04\n      add\n      dup1\n      dup1\n      0x20\n      add\n      dup3\n      dup2\n      sub\n      dup3\n      mstore\n      0x2a\n      dup2\n      mstore\n      0x20\n      add\n      dup1\n      data_22f7af55a509c3b14f0d528f087748dec8a8bf425135e3f5dc28c6a31ec6d812\n      0x2a\n      swap2\n      codecopy\n      0x40\n      add\n      swap2\n      pop\n      pop\n      mload(0x40)\n      dup1\n      swap2\n      sub\n      swap1\n      revert\n    tag_214:\n        /* \"contracts/Pool/PoolPig.sol\":20458:20477  uint256 currentRate */\n      0x00\n        /* \"contracts/Pool/PoolPig.sol\":20481:20491  _getRate() */\n      tag_215\n        /* \"contracts/Pool/PoolPig.sol\":20481:20489  _getRate */\n      tag_216\n        /* \"contracts/Pool/PoolPig.sol\":20481:20491  _getRate() */\n      jump\t// in\n    tag_215:\n        /* \"contracts/Pool/PoolPig.sol\":20458:20491  uint256 currentRate =  _getRate() */\n      swap1\n      pop\n        /* \"contracts/Pool/PoolPig.sol\":20508:20532  rAmount.div(currentRate) */\n      tag_217\n        /* \"contracts/Pool/PoolPig.sol\":20520:20531  currentRate */\n      dup2\n        /* \"contracts/Pool/PoolPig.sol\":20508:20515  rAmount */\n      dup5\n        /* \"contracts/Pool/PoolPig.sol\":20508:20519  rAmount.div */\n      tag_218\n      swap1\n        /* \"contracts/Pool/PoolPig.sol\":20508:20532  rAmount.div(currentRate) */\n      swap2\n      swap1\n      0xffffffff\n      and\n      jump\t// in\n    tag_217:\n        /* \"contracts/Pool/PoolPig.sol\":20501:20532  return rAmount.div(currentRate) */\n      swap2\n      pop\n      pop\n        /* \"contracts/Pool/PoolPig.sol\":20290:20539  function tokenFromReflection(uint256 rAmount) public view returns(uint256) {... */\n      swap2\n      swap1\n      pop\n      jump\t// out\n        /* \"contracts/Pool/PoolPig.sol\":17590:17671  function decimals() public view returns (uint8) {... */\n    tag_83:\n        /* \"contracts/Pool/PoolPig.sol\":17631:17636  uint8 */\n      0x00\n        /* \"contracts/Pool/PoolPig.sol\":17655:17664  _decimals */\n      0x0d\n      0x00\n      swap1\n      sload\n      swap1\n      0x0100\n      exp\n      swap1\n      div\n      0xff\n      and\n        /* \"contracts/Pool/PoolPig.sol\":17648:17664  return _decimals */\n      swap1\n      pop\n        /* \"contracts/Pool/PoolPig.sol\":17590:17671  function decimals() public view returns (uint8) {... */\n      swap1\n      jump\t// out\n        /* \"contracts/Pool/PoolPig.sol\":20990:21458  function includeInReward(address account) external onlyOwner() {... */\n    tag_87:\n        /* \"contracts/Pool/PoolPig.sol\":6045:6057  _msgSender() */\n      tag_221\n        /* \"contracts/Pool/PoolPig.sol\":6045:6055  _msgSender */\n      tag_192\n        /* \"contracts/Pool/PoolPig.sol\":6045:6057  _msgSender() */\n      jump\t// in\n    tag_221:\n        /* \"contracts/Pool/PoolPig.sol\":6035:6057  _owner == _msgSender() */\n      0xffffffffffffffffffffffffffffffffffffffff\n      and\n        /* \"contracts/Pool/PoolPig.sol\":6035:6041  _owner */\n      0x00\n      dup1\n      sload\n      swap1\n      0x0100\n      exp\n      swap1\n      div\n      0xffffffffffffffffffffffffffffffffffffffff\n      and\n        /* \"contracts/Pool/PoolPig.sol\":6035:6057  _owner == _msgSender() */\n      0xffffffffffffffffffffffffffffffffffffffff\n      and\n      eq\n        /* \"contracts/Pool/PoolPig.sol\":6027:6094  require(_owner == _msgSender(), \"Ownable: caller is not the owner\") */\n      tag_222\n      jumpi\n      mload(0x40)\n      0x08c379a000000000000000000000000000000000000000000000000000000000\n      dup2\n      mstore\n      0x04\n      add\n      dup1\n      dup1\n      0x20\n      add\n      dup3\n      dup2\n      sub\n      dup3\n      mstore\n      0x20\n      dup2\n      mstore\n      0x20\n      add\n      dup1\n      0x4f776e61626c653a2063616c6c6572206973206e6f7420746865206f776e6572\n      dup2\n      mstore\n      pop\n      0x20\n      add\n      swap2\n      pop\n      pop\n      mload(0x40)\n      dup1\n      swap2\n      sub\n      swap1\n      revert\n    tag_222:\n        /* \"contracts/Pool/PoolPig.sol\":21071:21082  _isExcluded */\n      0x07\n        /* \"contracts/Pool/PoolPig.sol\":21071:21091  _isExcluded[account] */\n      0x00\n        /* \"contracts/Pool/PoolPig.sol\":21083:21090  account */\n      dup3\n        /* \"contracts/Pool/PoolPig.sol\":21071:21091  _isExcluded[account] */\n      0xffffffffffffffffffffffffffffffffffffffff\n      and\n      0xffffffffffffffffffffffffffffffffffffffff\n      and\n      dup2\n      mstore\n      0x20\n      add\n      swap1\n      dup2\n      mstore\n      0x20\n      add\n      0x00\n      keccak256\n      0x00\n      swap1\n      sload\n      swap1\n      0x0100\n      exp\n      swap1\n      div\n      0xff\n      and\n        /* \"contracts/Pool/PoolPig.sol\":21063:21123  require(_isExcluded[account], \"Account is already excluded\") */\n      tag_224\n      jumpi\n      mload(0x40)\n      0x08c379a000000000000000000000000000000000000000000000000000000000\n      dup2\n      mstore\n      0x04\n      add\n      dup1\n      dup1\n      0x20\n      add\n      dup3\n      dup2\n      sub\n      dup3\n      mstore\n      0x1b\n      dup2\n      mstore\n      0x20\n      add\n      dup1\n      0x4163636f756e7420697320616c7265616479206578636c756465640000000000\n      dup2\n      mstore\n      pop\n      0x20\n      add\n      swap2\n      pop\n      pop\n      mload(0x40)\n      dup1\n      swap2\n      sub\n      swap1\n      revert\n    tag_224:\n        /* \"contracts/Pool/PoolPig.sol\":21138:21147  uint256 i */\n      0x00\n        /* \"contracts/Pool/PoolPig.sol\":21133:21452  for (uint256 i = 0; i < _excluded.length; i++) {... */\n    tag_225:\n        /* \"contracts/Pool/PoolPig.sol\":21157:21166  _excluded */\n      0x08\n        /* \"contracts/Pool/PoolPig.sol\":21157:21173  _excluded.length */\n      dup1\n      sload\n      swap1\n      pop\n        /* \"contracts/Pool/PoolPig.sol\":21153:21154  i */\n      dup2\n        /* \"contracts/Pool/PoolPig.sol\":21153:21173  i < _excluded.length */\n      lt\n        /* \"contracts/Pool/PoolPig.sol\":21133:21452  for (uint256 i = 0; i < _excluded.length; i++) {... */\n      iszero\n      tag_226\n      jumpi\n        /* \"contracts/Pool/PoolPig.sol\":21214:21221  account */\n      dup2\n        /* \"contracts/Pool/PoolPig.sol\":21198:21221  _excluded[i] == account */\n      0xffffffffffffffffffffffffffffffffffffffff\n      and\n        /* \"contracts/Pool/PoolPig.sol\":21198:21207  _excluded */\n      0x08\n        /* \"contracts/Pool/PoolPig.sol\":21208:21209  i */\n      dup3\n        /* \"contracts/Pool/PoolPig.sol\":21198:21210  _excluded[i] */\n      dup2\n      sload\n      dup2\n      lt\n      tag_228\n      jumpi\n      invalid\n    tag_228:\n      swap1\n      0x00\n      mstore\n      keccak256(0x00, 0x20)\n      add\n      0x00\n      swap1\n      sload\n      swap1\n      0x0100\n      exp\n      swap1\n      div\n      0xffffffffffffffffffffffffffffffffffffffff\n      and\n        /* \"contracts/Pool/PoolPig.sol\":21198:21221  _excluded[i] == account */\n      0xffffffffffffffffffffffffffffffffffffffff\n      and\n      eq\n        /* \"contracts/Pool/PoolPig.sol\":21194:21442  if (_excluded[i] == account) {... */\n      iszero\n      tag_230\n      jumpi\n        /* \"contracts/Pool/PoolPig.sol\":21256:21265  _excluded */\n      0x08\n        /* \"contracts/Pool/PoolPig.sol\":21285:21286  1 */\n      0x01\n        /* \"contracts/Pool/PoolPig.sol\":21266:21275  _excluded */\n      0x08\n        /* \"contracts/Pool/PoolPig.sol\":21266:21282  _excluded.length */\n      dup1\n      sload\n      swap1\n      pop\n        /* \"contracts/Pool/PoolPig.sol\":21266:21286  _excluded.length - 1 */\n      sub\n        /* \"contracts/Pool/PoolPig.sol\":21256:21287  _excluded[_excluded.length - 1] */\n      dup2\n      sload\n      dup2\n      lt\n      tag_231\n      jumpi\n      invalid\n    tag_231:\n      swap1\n      0x00\n      mstore\n      keccak256(0x00, 0x20)\n      add\n      0x00\n      swap1\n      sload\n      swap1\n      0x0100\n      exp\n      swap1\n      div\n      0xffffffffffffffffffffffffffffffffffffffff\n      and\n        /* \"contracts/Pool/PoolPig.sol\":21241:21250  _excluded */\n      0x08\n        /* \"contracts/Pool/PoolPig.sol\":21251:21252  i */\n      dup3\n        /* \"contracts/Pool/PoolPig.sol\":21241:21253  _excluded[i] */\n      dup2\n      sload\n      dup2\n      lt\n      tag_233\n      jumpi\n      invalid\n    tag_233:\n      swap1\n      0x00\n      mstore\n      keccak256(0x00, 0x20)\n      add\n      0x00\n        /* \"contracts/Pool/PoolPig.sol\":21241:21287  _excluded[i] = _excluded[_excluded.length - 1] */\n      0x0100\n      exp\n      dup2\n      sload\n      dup2\n      0xffffffffffffffffffffffffffffffffffffffff\n      mul\n      not\n      and\n      swap1\n      dup4\n      0xffffffffffffffffffffffffffffffffffffffff\n      and\n      mul\n      or\n      swap1\n      sstore\n      pop\n        /* \"contracts/Pool/PoolPig.sol\":21324:21325  0 */\n      0x00\n        /* \"contracts/Pool/PoolPig.sol\":21305:21312  _tOwned */\n      0x04\n        /* \"contracts/Pool/PoolPig.sol\":21305:21321  _tOwned[account] */\n      0x00\n        /* \"contracts/Pool/PoolPig.sol\":21313:21320  account */\n      dup5\n        /* \"contracts/Pool/PoolPig.sol\":21305:21321  _tOwned[account] */\n      0xffffffffffffffffffffffffffffffffffffffff\n      and\n      0xffffffffffffffffffffffffffffffffffffffff\n      and\n      dup2\n      mstore\n      0x20\n      add\n      swap1\n      dup2\n      mstore\n      0x20\n      add\n      0x00\n      keccak256\n        /* \"contracts/Pool/PoolPig.sol\":21305:21325  _tOwned[account] = 0 */\n      dup2\n      swap1\n      sstore\n      pop\n        /* \"contracts/Pool/PoolPig.sol\":21366:21371  false */\n      0x00\n        /* \"contracts/Pool/PoolPig.sol\":21343:21354  _isExcluded */\n      0x07\n        /* \"contracts/Pool/PoolPig.sol\":21343:21363  _isExcluded[account] */\n      0x00\n        /* \"contracts/Pool/PoolPig.sol\":21355:21362  account */\n      dup5\n        /* \"contracts/Pool/PoolPig.sol\":21343:21363  _isExcluded[account] */\n      0xffffffffffffffffffffffffffffffffffffffff\n      and\n      0xffffffffffffffffffffffffffffffffffffffff\n      and\n      dup2\n      mstore\n      0x20\n      add\n      swap1\n      dup2\n      mstore\n      0x20\n      add\n      0x00\n      keccak256\n      0x00\n        /* \"contracts/Pool/PoolPig.sol\":21343:21371  _isExcluded[account] = false */\n      0x0100\n      exp\n      dup2\n      sload\n      dup2\n      0xff\n      mul\n      not\n      and\n      swap1\n      dup4\n      iszero\n      iszero\n      mul\n      or\n      swap1\n      sstore\n      pop\n        /* \"contracts/Pool/PoolPig.sol\":21389:21398  _excluded */\n      0x08\n        /* \"contracts/Pool/PoolPig.sol\":21389:21404  _excluded.pop() */\n      dup1\n      sload\n      dup1\n      tag_235\n      jumpi\n      invalid\n    tag_235:\n      0x01\n      swap1\n      sub\n      dup2\n      dup2\n      swap1\n      0x00\n      mstore\n      keccak256(0x00, 0x20)\n      add\n      exp(0x0100, 0x00)\n      dup2\n      sload\n      swap1\n      0xffffffffffffffffffffffffffffffffffffffff\n      mul\n      not\n      and\n      swap1\n      sstore\n      swap1\n      sstore\n        /* \"contracts/Pool/PoolPig.sol\":21422:21427  break */\n      jump(tag_226)\n        /* \"contracts/Pool/PoolPig.sol\":21194:21442  if (_excluded[i] == account) {... */\n    tag_230:\n        /* \"contracts/Pool/PoolPig.sol\":21175:21178  i++ */\n      dup1\n      dup1\n      0x01\n      add\n      swap2\n      pop\n      pop\n        /* \"contracts/Pool/PoolPig.sol\":21133:21452  for (uint256 i = 0; i < _excluded.length; i++) {... */\n      jump(tag_225)\n    tag_226:\n      pop\n        /* \"contracts/Pool/PoolPig.sol\":20990:21458  function includeInReward(address account) external onlyOwner() {... */\n      pop\n      jump\t// out\n        /* \"contracts/Pool/PoolPig.sol\":18773:18988  function increaseAllowance(address spender, uint256 addedValue) public virtual returns (bool) {... */\n    tag_91:\n        /* \"contracts/Pool/PoolPig.sol\":18861:18865  bool */\n      0x00\n        /* \"contracts/Pool/PoolPig.sol\":18877:18960  _approve(_msgSender(), spender, _allowances[_msgSender()][spender].add(addedValue)) */\n      tag_238\n        /* \"contracts/Pool/PoolPig.sol\":18886:18898  _msgSender() */\n      tag_239\n        /* \"contracts/Pool/PoolPig.sol\":18886:18896  _msgSender */\n      tag_192\n        /* \"contracts/Pool/PoolPig.sol\":18886:18898  _msgSender() */\n      jump\t// in\n    tag_239:\n        /* \"contracts/Pool/PoolPig.sol\":18900:18907  spender */\n      dup5\n        /* \"contracts/Pool/PoolPig.sol\":18909:18959  _allowances[_msgSender()][spender].add(addedValue) */\n      tag_240\n        /* \"contracts/Pool/PoolPig.sol\":18948:18958  addedValue */\n      dup6\n        /* \"contracts/Pool/PoolPig.sol\":18909:18920  _allowances */\n      0x05\n        /* \"contracts/Pool/PoolPig.sol\":18909:18934  _allowances[_msgSender()] */\n      0x00\n        /* \"contracts/Pool/PoolPig.sol\":18921:18933  _msgSender() */\n      tag_241\n        /* \"contracts/Pool/PoolPig.sol\":18921:18931  _msgSender */\n      tag_192\n        /* \"contracts/Pool/PoolPig.sol\":18921:18933  _msgSender() */\n      jump\t// in\n    tag_241:\n        /* \"contracts/Pool/PoolPig.sol\":18909:18934  _allowances[_msgSender()] */\n      0xffffffffffffffffffffffffffffffffffffffff\n      and\n      0xffffffffffffffffffffffffffffffffffffffff\n      and\n      dup2\n      mstore\n      0x20\n      add\n      swap1\n      dup2\n      mstore\n      0x20\n      add\n      0x00\n      keccak256\n        /* \"contracts/Pool/PoolPig.sol\":18909:18943  _allowances[_msgSender()][spender] */\n      0x00\n        /* \"contracts/Pool/PoolPig.sol\":18935:18942  spender */\n      dup10\n        /* \"contracts/Pool/PoolPig.sol\":18909:18943  _allowances[_msgSender()][spender] */\n      0xffffffffffffffffffffffffffffffffffffffff\n      and\n      0xffffffffffffffffffffffffffffffffffffffff\n      and\n      dup2\n      mstore\n      0x20\n      add\n      swap1\n      dup2\n      mstore\n      0x20\n      add\n      0x00\n      keccak256\n      sload\n        /* \"contracts/Pool/PoolPig.sol\":18909:18947  _allowances[_msgSender()][spender].add */\n      tag_242\n      swap1\n        /* \"contracts/Pool/PoolPig.sol\":18909:18959  _allowances[_msgSender()][spender].add(addedValue) */\n      swap2\n      swap1\n      0xffffffff\n      and\n      jump\t// in\n    tag_240:\n        /* \"contracts/Pool/PoolPig.sol\":18877:18885  _approve */\n      tag_202\n        /* \"contracts/Pool/PoolPig.sol\":18877:18960  _approve(_msgSender(), spender, _allowances[_msgSender()][spender].add(addedValue)) */\n      jump\t// in\n    tag_238:\n        /* \"contracts/Pool/PoolPig.sol\":18977:18981  true */\n      0x01\n        /* \"contracts/Pool/PoolPig.sol\":18970:18981  return true */\n      swap1\n      pop\n        /* \"contracts/Pool/PoolPig.sol\":18773:18988  function increaseAllowance(address spender, uint256 addedValue) public virtual returns (bool) {... */\n      swap3\n      swap2\n      pop\n      pop\n      jump\t// out\n        /* \"contracts/Pool/PoolPig.sol\":15885:15911  uint256 public _taxFee = 2 */\n    tag_94:\n      sload(0x0e)\n      dup2\n      jump\t// out\n        /* \"contracts/Pool/PoolPig.sol\":19481:19851  function deliver(uint256 tAmount) public {... */\n    tag_98:\n        /* \"contracts/Pool/PoolPig.sol\":19532:19546  address sender */\n      0x00\n        /* \"contracts/Pool/PoolPig.sol\":19549:19561  _msgSender() */\n      tag_244\n        /* \"contracts/Pool/PoolPig.sol\":19549:19559  _msgSender */\n      tag_192\n        /* \"contracts/Pool/PoolPig.sol\":19549:19561  _msgSender() */\n      jump\t// in\n    tag_244:\n        /* \"contracts/Pool/PoolPig.sol\":19532:19561  address sender = _msgSender() */\n      swap1\n      pop\n        /* \"contracts/Pool/PoolPig.sol\":19580:19591  _isExcluded */\n      0x07\n        /* \"contracts/Pool/PoolPig.sol\":19580:19599  _isExcluded[sender] */\n      0x00\n        /* \"contracts/Pool/PoolPig.sol\":19592:19598  sender */\n      dup3\n        /* \"contracts/Pool/PoolPig.sol\":19580:19599  _isExcluded[sender] */\n      0xffffffffffffffffffffffffffffffffffffffff\n      and\n      0xffffffffffffffffffffffffffffffffffffffff\n      and\n      dup2\n      mstore\n      0x20\n      add\n      swap1\n      dup2\n      mstore\n      0x20\n      add\n      0x00\n      keccak256\n      0x00\n      swap1\n      sload\n      swap1\n      0x0100\n      exp\n      swap1\n      div\n      0xff\n      and\n        /* \"contracts/Pool/PoolPig.sol\":19579:19599  !_isExcluded[sender] */\n      iszero\n        /* \"contracts/Pool/PoolPig.sol\":19571:19648  require(!_isExcluded[sender], \"Excluded addresses cannot call this function\") */\n      tag_245\n      jumpi\n      mload(0x40)\n      0x08c379a000000000000000000000000000000000000000000000000000000000\n      dup2\n      mstore\n      0x04\n      add\n      dup1\n      dup1\n      0x20\n      add\n      dup3\n      dup2\n      sub\n      dup3\n      mstore\n      0x2c\n      dup2\n      mstore\n      0x20\n      add\n      dup1\n      data_ecefcaf5fbcf9ca6dcdb02298ba1da96f4ead317b0a4779917ecb2e5e7dc3ac4\n      0x2c\n      swap2\n      codecopy\n      0x40\n      add\n      swap2\n      pop\n      pop\n      mload(0x40)\n      dup1\n      swap2\n      sub\n      swap1\n      revert\n    tag_245:\n        /* \"contracts/Pool/PoolPig.sol\":19659:19674  uint256 rAmount */\n      0x00\n        /* \"contracts/Pool/PoolPig.sol\":19683:19702  _getValues(tAmount) */\n      tag_246\n        /* \"contracts/Pool/PoolPig.sol\":19694:19701  tAmount */\n      dup4\n        /* \"contracts/Pool/PoolPig.sol\":19683:19693  _getValues */\n      tag_247\n        /* \"contracts/Pool/PoolPig.sol\":19683:19702  _getValues(tAmount) */\n      jump\t// in\n    tag_246:\n        /* \"contracts/Pool/PoolPig.sol\":19658:19702  (uint256 rAmount,,,,,) = _getValues(tAmount) */\n      pop\n      pop\n      pop\n      pop\n      pop\n      swap1\n      pop\n        /* \"contracts/Pool/PoolPig.sol\":19730:19758  _rOwned[sender].sub(rAmount) */\n      tag_248\n        /* \"contracts/Pool/PoolPig.sol\":19750:19757  rAmount */\n      dup2\n        /* \"contracts/Pool/PoolPig.sol\":19730:19737  _rOwned */\n      0x03\n        /* \"contracts/Pool/PoolPig.sol\":19730:19745  _rOwned[sender] */\n      0x00\n        /* \"contracts/Pool/PoolPig.sol\":19738:19744  sender */\n      dup6\n        /* \"contracts/Pool/PoolPig.sol\":19730:19745  _rOwned[sender] */\n      0xffffffffffffffffffffffffffffffffffffffff\n      and\n      0xffffffffffffffffffffffffffffffffffffffff\n      and\n      dup2\n      mstore\n      0x20\n      add\n      swap1\n      dup2\n      mstore\n      0x20\n      add\n      0x00\n      keccak256\n      sload\n        /* \"contracts/Pool/PoolPig.sol\":19730:19749  _rOwned[sender].sub */\n      tag_249\n      swap1\n        /* \"contracts/Pool/PoolPig.sol\":19730:19758  _rOwned[sender].sub(rAmount) */\n      swap2\n      swap1\n      0xffffffff\n      and\n      jump\t// in\n    tag_248:\n        /* \"contracts/Pool/PoolPig.sol\":19712:19719  _rOwned */\n      0x03\n        /* \"contracts/Pool/PoolPig.sol\":19712:19727  _rOwned[sender] */\n      0x00\n        /* \"contracts/Pool/PoolPig.sol\":19720:19726  sender */\n      dup5\n        /* \"contracts/Pool/PoolPig.sol\":19712:19727  _rOwned[sender] */\n      0xffffffffffffffffffffffffffffffffffffffff\n      and\n      0xffffffffffffffffffffffffffffffffffffffff\n      and\n      dup2\n      mstore\n      0x20\n      add\n      swap1\n      dup2\n      mstore\n      0x20\n      add\n      0x00\n      keccak256\n        /* \"contracts/Pool/PoolPig.sol\":19712:19758  _rOwned[sender] = _rOwned[sender].sub(rAmount) */\n      dup2\n      swap1\n      sstore\n      pop\n        /* \"contracts/Pool/PoolPig.sol\":19778:19798  _rTotal.sub(rAmount) */\n      tag_250\n        /* \"contracts/Pool/PoolPig.sol\":19790:19797  rAmount */\n      dup2\n        /* \"contracts/Pool/PoolPig.sol\":19778:19785  _rTotal */\n      sload(0x09)\n        /* \"contracts/Pool/PoolPig.sol\":19778:19789  _rTotal.sub */\n      tag_249\n      swap1\n        /* \"contracts/Pool/PoolPig.sol\":19778:19798  _rTotal.sub(rAmount) */\n      swap2\n      swap1\n      0xffffffff\n      and\n      jump\t// in\n    tag_250:\n        /* \"contracts/Pool/PoolPig.sol\":19768:19775  _rTotal */\n      0x09\n        /* \"contracts/Pool/PoolPig.sol\":19768:19798  _rTotal = _rTotal.sub(rAmount) */\n      dup2\n      swap1\n      sstore\n      pop\n        /* \"contracts/Pool/PoolPig.sol\":19821:19844  _tFeeTotal.add(tAmount) */\n      tag_251\n        /* \"contracts/Pool/PoolPig.sol\":19836:19843  tAmount */\n      dup4\n        /* \"contracts/Pool/PoolPig.sol\":19821:19831  _tFeeTotal */\n      sload(0x0a)\n        /* \"contracts/Pool/PoolPig.sol\":19821:19835  _tFeeTotal.add */\n      tag_242\n      swap1\n        /* \"contracts/Pool/PoolPig.sol\":19821:19844  _tFeeTotal.add(tAmount) */\n      swap2\n      swap1\n      0xffffffff\n      and\n      jump\t// in\n    tag_251:\n        /* \"contracts/Pool/PoolPig.sol\":19808:19818  _tFeeTotal */\n      0x0a\n        /* \"contracts/Pool/PoolPig.sol\":19808:19844  _tFeeTotal = _tFeeTotal.add(tAmount) */\n      dup2\n      swap1\n      sstore\n      pop\n        /* \"contracts/Pool/PoolPig.sol\":19481:19851  function deliver(uint256 tAmount) public {... */\n      pop\n      pop\n      pop\n      jump\t// out\n        /* \"contracts/Pool/PoolPig.sol\":22114:22223  function excludeFromFee(address account) public onlyOwner {... */\n    tag_102:\n        /* \"contracts/Pool/PoolPig.sol\":6045:6057  _msgSender() */\n      tag_253\n        /* \"contracts/Pool/PoolPig.sol\":6045:6055  _msgSender */\n      tag_192\n        /* \"contracts/Pool/PoolPig.sol\":6045:6057  _msgSender() */\n      jump\t// in\n    tag_253:\n        /* \"contracts/Pool/PoolPig.sol\":6035:6057  _owner == _msgSender() */\n      0xffffffffffffffffffffffffffffffffffffffff\n      and\n        /* \"contracts/Pool/PoolPig.sol\":6035:6041  _owner */\n      0x00\n      dup1\n      sload\n      swap1\n      0x0100\n      exp\n      swap1\n      div\n      0xffffffffffffffffffffffffffffffffffffffff\n      and\n        /* \"contracts/Pool/PoolPig.sol\":6035:6057  _owner == _msgSender() */\n      0xffffffffffffffffffffffffffffffffffffffff\n      and\n      eq\n        /* \"contracts/Pool/PoolPig.sol\":6027:6094  require(_owner == _msgSender(), \"Ownable: caller is not the owner\") */\n      tag_254\n      jumpi\n      mload(0x40)\n      0x08c379a000000000000000000000000000000000000000000000000000000000\n      dup2\n      mstore\n      0x04\n      add\n      dup1\n      dup1\n      0x20\n      add\n      dup3\n      dup2\n      sub\n      dup3\n      mstore\n      0x20\n      dup2\n      mstore\n      0x20\n      add\n      dup1\n      0x4f776e61626c653a2063616c6c6572206973206e6f7420746865206f776e6572\n      dup2\n      mstore\n      pop\n      0x20\n      add\n      swap2\n      pop\n      pop\n      mload(0x40)\n      dup1\n      swap2\n      sub\n      swap1\n      revert\n    tag_254:\n        /* \"contracts/Pool/PoolPig.sol\":22212:22216  true */\n      0x01\n        /* \"contracts/Pool/PoolPig.sol\":22182:22200  _isExcludedFromFee */\n      0x06\n        /* \"contracts/Pool/PoolPig.sol\":22182:22209  _isExcludedFromFee[account] */\n      0x00\n        /* \"contracts/Pool/PoolPig.sol\":22201:22208  account */\n      dup4\n        /* \"contracts/Pool/PoolPig.sol\":22182:22209  _isExcludedFromFee[account] */\n      0xffffffffffffffffffffffffffffffffffffffff\n      and\n      0xffffffffffffffffffffffffffffffffffffffff\n      and\n      dup2\n      mstore\n      0x20\n      add\n      swap1\n      dup2\n      mstore\n      0x20\n      add\n      0x00\n      keccak256\n      0x00\n        /* \"contracts/Pool/PoolPig.sol\":22182:22216  _isExcludedFromFee[account] = true */\n      0x0100\n      exp\n      dup2\n      sload\n      dup2\n      0xff\n      mul\n      not\n      and\n      swap1\n      dup4\n      iszero\n      iszero\n      mul\n      or\n      swap1\n      sstore\n      pop\n        /* \"contracts/Pool/PoolPig.sol\":22114:22223  function excludeFromFee(address account) public onlyOwner {... */\n      pop\n      jump\t// out\n        /* \"contracts/Pool/PoolPig.sol\":19857:20284  function reflectionFromToken(uint256 tAmount, bool deductTransferFee) public view returns(uint256) {... */\n    tag_106:\n        /* \"contracts/Pool/PoolPig.sol\":19947:19954  uint256 */\n      0x00\n        /* \"contracts/Pool/PoolPig.sol\":15658:15676  1000000000 * 10**9 */\n      0x0de0b6b3a7640000\n        /* \"contracts/Pool/PoolPig.sol\":19974:19981  tAmount */\n      dup4\n        /* \"contracts/Pool/PoolPig.sol\":19974:19992  tAmount <= _tTotal */\n      gt\n      iszero\n        /* \"contracts/Pool/PoolPig.sol\":19966:20028  require(tAmount <= _tTotal, \"Amount must be less than supply\") */\n      tag_257\n      jumpi\n      mload(0x40)\n      0x08c379a000000000000000000000000000000000000000000000000000000000\n      dup2\n      mstore\n      0x04\n      add\n      dup1\n      dup1\n      0x20\n      add\n      dup3\n      dup2\n      sub\n      dup3\n      mstore\n      0x1f\n      dup2\n      mstore\n      0x20\n      add\n      dup1\n      0x416d6f756e74206d757374206265206c657373207468616e20737570706c7900\n      dup2\n      mstore\n      pop\n      0x20\n      add\n      swap2\n      pop\n      pop\n      mload(0x40)\n      dup1\n      swap2\n      sub\n      swap1\n      revert\n    tag_257:\n        /* \"contracts/Pool/PoolPig.sol\":20043:20060  deductTransferFee */\n      dup2\n        /* \"contracts/Pool/PoolPig.sol\":20038:20278  if (!deductTransferFee) {... */\n      tag_258\n      jumpi\n        /* \"contracts/Pool/PoolPig.sol\":20077:20092  uint256 rAmount */\n      0x00\n        /* \"contracts/Pool/PoolPig.sol\":20101:20120  _getValues(tAmount) */\n      tag_259\n        /* \"contracts/Pool/PoolPig.sol\":20112:20119  tAmount */\n      dup5\n        /* \"contracts/Pool/PoolPig.sol\":20101:20111  _getValues */\n      tag_247\n        /* \"contracts/Pool/PoolPig.sol\":20101:20120  _getValues(tAmount) */\n      jump\t// in\n    tag_259:\n        /* \"contracts/Pool/PoolPig.sol\":20076:20120  (uint256 rAmount,,,,,) = _getValues(tAmount) */\n      pop\n      pop\n      pop\n      pop\n      pop\n      swap1\n      pop\n        /* \"contracts/Pool/PoolPig.sol\":20141:20148  rAmount */\n      dup1\n        /* \"contracts/Pool/PoolPig.sol\":20134:20148  return rAmount */\n      swap2\n      pop\n      pop\n      jump(tag_256)\n        /* \"contracts/Pool/PoolPig.sol\":20038:20278  if (!deductTransferFee) {... */\n    tag_258:\n        /* \"contracts/Pool/PoolPig.sol\":20181:20204  uint256 rTransferAmount */\n      0x00\n        /* \"contracts/Pool/PoolPig.sol\":20212:20231  _getValues(tAmount) */\n      tag_261\n        /* \"contracts/Pool/PoolPig.sol\":20223:20230  tAmount */\n      dup5\n        /* \"contracts/Pool/PoolPig.sol\":20212:20222  _getValues */\n      tag_247\n        /* \"contracts/Pool/PoolPig.sol\":20212:20231  _getValues(tAmount) */\n      jump\t// in\n    tag_261:\n        /* \"contracts/Pool/PoolPig.sol\":20179:20231  (,uint256 rTransferAmount,,,,) = _getValues(tAmount) */\n      pop\n      pop\n      pop\n      pop\n      swap2\n      pop\n      pop\n        /* \"contracts/Pool/PoolPig.sol\":20252:20267  rTransferAmount */\n      dup1\n        /* \"contracts/Pool/PoolPig.sol\":20245:20267  return rTransferAmount */\n      swap2\n      pop\n      pop\n        /* \"contracts/Pool/PoolPig.sol\":19857:20284  function reflectionFromToken(uint256 tAmount, bool deductTransferFee) public view returns(uint256) {... */\n    tag_256:\n      swap3\n      swap2\n      pop\n      pop\n      jump\t// out\n        /* \"contracts/Pool/PoolPig.sol\":16124:16162  address public immutable uniswapV2Pair */\n    tag_109:\n      immutable(\"0x924caa65d1644bcda3c737cb4f972c9170b1e3eb26b1eeba5090c589a3beb7a4\")\n      dup2\n      jump\t// out\n        /* \"contracts/Pool/PoolPig.sol\":16200:16240  bool public swapAndLiquifyEnabled = true */\n    tag_112:\n      0x12\n      0x01\n      swap1\n      sload\n      swap1\n      0x0100\n      exp\n      swap1\n      div\n      0xff\n      and\n      dup2\n      jump\t// out\n        /* \"contracts/Pool/PoolPig.sol\":20545:20984  function excludeFromReward(address account) public onlyOwner() {... */\n    tag_116:\n        /* \"contracts/Pool/PoolPig.sol\":6045:6057  _msgSender() */\n      tag_263\n        /* \"contracts/Pool/PoolPig.sol\":6045:6055  _msgSender */\n      tag_192\n        /* \"contracts/Pool/PoolPig.sol\":6045:6057  _msgSender() */\n      jump\t// in\n    tag_263:\n        /* \"contracts/Pool/PoolPig.sol\":6035:6057  _owner == _msgSender() */\n      0xffffffffffffffffffffffffffffffffffffffff\n      and\n        /* \"contracts/Pool/PoolPig.sol\":6035:6041  _owner */\n      0x00\n      dup1\n      sload\n      swap1\n      0x0100\n      exp\n      swap1\n      div\n      0xffffffffffffffffffffffffffffffffffffffff\n      and\n        /* \"contracts/Pool/PoolPig.sol\":6035:6057  _owner == _msgSender() */\n      0xffffffffffffffffffffffffffffffffffffffff\n      and\n      eq\n        /* \"contracts/Pool/PoolPig.sol\":6027:6094  require(_owner == _msgSender(), \"Ownable: caller is not the owner\") */\n      tag_264\n      jumpi\n      mload(0x40)\n      0x08c379a000000000000000000000000000000000000000000000000000000000\n      dup2\n      mstore\n      0x04\n      add\n      dup1\n      dup1\n      0x20\n      add\n      dup3\n      dup2\n      sub\n      dup3\n      mstore\n      0x20\n      dup2\n      mstore\n      0x20\n      add\n      dup1\n      0x4f776e61626c653a2063616c6c6572206973206e6f7420746865206f776e6572\n      dup2\n      mstore\n      pop\n      0x20\n      add\n      swap2\n      pop\n      pop\n      mload(0x40)\n      dup1\n      swap2\n      sub\n      swap1\n      revert\n    tag_264:\n        /* \"contracts/Pool/PoolPig.sol\":20740:20751  _isExcluded */\n      0x07\n        /* \"contracts/Pool/PoolPig.sol\":20740:20760  _isExcluded[account] */\n      0x00\n        /* \"contracts/Pool/PoolPig.sol\":20752:20759  account */\n      dup3\n        /* \"contracts/Pool/PoolPig.sol\":20740:20760  _isExcluded[account] */\n      0xffffffffffffffffffffffffffffffffffffffff\n      and\n      0xffffffffffffffffffffffffffffffffffffffff\n      and\n      dup2\n      mstore\n      0x20\n      add\n      swap1\n      dup2\n      mstore\n      0x20\n      add\n      0x00\n      keccak256\n      0x00\n      swap1\n      sload\n      swap1\n      0x0100\n      exp\n      swap1\n      div\n      0xff\n      and\n        /* \"contracts/Pool/PoolPig.sol\":20739:20760  !_isExcluded[account] */\n      iszero\n        /* \"contracts/Pool/PoolPig.sol\":20731:20792  require(!_isExcluded[account], \"Account is already excluded\") */\n      tag_266\n      jumpi\n      mload(0x40)\n      0x08c379a000000000000000000000000000000000000000000000000000000000\n      dup2\n      mstore\n      0x04\n      add\n      dup1\n      dup1\n      0x20\n      add\n      dup3\n      dup2\n      sub\n      dup3\n      mstore\n      0x1b\n      dup2\n      mstore\n      0x20\n      add\n      dup1\n      0x4163636f756e7420697320616c7265616479206578636c756465640000000000\n      dup2\n      mstore\n      pop\n      0x20\n      add\n      swap2\n      pop\n      pop\n      mload(0x40)\n      dup1\n      swap2\n      sub\n      swap1\n      revert\n    tag_266:\n        /* \"contracts/Pool/PoolPig.sol\":20824:20825  0 */\n      0x00\n        /* \"contracts/Pool/PoolPig.sol\":20805:20812  _rOwned */\n      0x03\n        /* \"contracts/Pool/PoolPig.sol\":20805:20821  _rOwned[account] */\n      0x00\n        /* \"contracts/Pool/PoolPig.sol\":20813:20820  account */\n      dup4\n        /* \"contracts/Pool/PoolPig.sol\":20805:20821  _rOwned[account] */\n      0xffffffffffffffffffffffffffffffffffffffff\n      and\n      0xffffffffffffffffffffffffffffffffffffffff\n      and\n      dup2\n      mstore\n      0x20\n      add\n      swap1\n      dup2\n      mstore\n      0x20\n      add\n      0x00\n      keccak256\n      sload\n        /* \"contracts/Pool/PoolPig.sol\":20805:20825  _rOwned[account] > 0 */\n      gt\n        /* \"contracts/Pool/PoolPig.sol\":20802:20908  if(_rOwned[account] > 0) {... */\n      iszero\n      tag_267\n      jumpi\n        /* \"contracts/Pool/PoolPig.sol\":20860:20897  tokenFromReflection(_rOwned[account]) */\n      tag_268\n        /* \"contracts/Pool/PoolPig.sol\":20880:20887  _rOwned */\n      0x03\n        /* \"contracts/Pool/PoolPig.sol\":20880:20896  _rOwned[account] */\n      0x00\n        /* \"contracts/Pool/PoolPig.sol\":20888:20895  account */\n      dup4\n        /* \"contracts/Pool/PoolPig.sol\":20880:20896  _rOwned[account] */\n      0xffffffffffffffffffffffffffffffffffffffff\n      and\n      0xffffffffffffffffffffffffffffffffffffffff\n      and\n      dup2\n      mstore\n      0x20\n      add\n      swap1\n      dup2\n      mstore\n      0x20\n      add\n      0x00\n      keccak256\n      sload\n        /* \"contracts/Pool/PoolPig.sol\":20860:20879  tokenFromReflection */\n      tag_80\n        /* \"contracts/Pool/PoolPig.sol\":20860:20897  tokenFromReflection(_rOwned[account]) */\n      jump\t// in\n    tag_268:\n        /* \"contracts/Pool/PoolPig.sol\":20841:20848  _tOwned */\n      0x04\n        /* \"contracts/Pool/PoolPig.sol\":20841:20857  _tOwned[account] */\n      0x00\n        /* \"contracts/Pool/PoolPig.sol\":20849:20856  account */\n      dup4\n        /* \"contracts/Pool/PoolPig.sol\":20841:20857  _tOwned[account] */\n      0xffffffffffffffffffffffffffffffffffffffff\n      and\n      0xffffffffffffffffffffffffffffffffffffffff\n      and\n      dup2\n      mstore\n      0x20\n      add\n      swap1\n      dup2\n      mstore\n      0x20\n      add\n      0x00\n      keccak256\n        /* \"contracts/Pool/PoolPig.sol\":20841:20897  _tOwned[account] = tokenFromReflection(_rOwned[account]) */\n      dup2\n      swap1\n      sstore\n      pop\n        /* \"contracts/Pool/PoolPig.sol\":20802:20908  if(_rOwned[account] > 0) {... */\n    tag_267:\n        /* \"contracts/Pool/PoolPig.sol\":20940:20944  true */\n      0x01\n        /* \"contracts/Pool/PoolPig.sol\":20917:20928  _isExcluded */\n      0x07\n        /* \"contracts/Pool/PoolPig.sol\":20917:20937  _isExcluded[account] */\n      0x00\n        /* \"contracts/Pool/PoolPig.sol\":20929:20936  account */\n      dup4\n        /* \"contracts/Pool/PoolPig.sol\":20917:20937  _isExcluded[account] */\n      0xffffffffffffffffffffffffffffffffffffffff\n      and\n      0xffffffffffffffffffffffffffffffffffffffff\n      and\n      dup2\n      mstore\n      0x20\n      add\n      swap1\n      dup2\n      mstore\n      0x20\n      add\n      0x00\n      keccak256\n      0x00\n        /* \"contracts/Pool/PoolPig.sol\":20917:20944  _isExcluded[account] = true */\n      0x0100\n      exp\n      dup2\n      sload\n      dup2\n      0xff\n      mul\n      not\n      and\n      swap1\n      dup4\n      iszero\n      iszero\n      mul\n      or\n      swap1\n      sstore\n      pop\n        /* \"contracts/Pool/PoolPig.sol\":20954:20963  _excluded */\n      0x08\n        /* \"contracts/Pool/PoolPig.sol\":20969:20976  account */\n      dup2\n        /* \"contracts/Pool/PoolPig.sol\":20954:20977  _excluded.push(account) */\n      swap1\n      dup1\n      0x01\n      dup2\n      sload\n      add\n      dup1\n      dup3\n      sstore\n      dup1\n      swap2\n      pop\n      pop\n      0x01\n      swap1\n      sub\n      swap1\n      0x00\n      mstore\n      keccak256(0x00, 0x20)\n      add\n      0x00\n      swap1\n      swap2\n      swap1\n      swap2\n      swap1\n      swap2\n      0x0100\n      exp\n      dup2\n      sload\n      dup2\n      0xffffffffffffffffffffffffffffffffffffffff\n      mul\n      not\n      and\n      swap1\n      dup4\n      0xffffffffffffffffffffffffffffffffffffffff\n      and\n      mul\n      or\n      swap1\n      sstore\n      pop\n        /* \"contracts/Pool/PoolPig.sol\":20545:20984  function excludeFromReward(address account) public onlyOwner() {... */\n      pop\n      jump\t// out\n        /* \"contracts/Pool/PoolPig.sol\":26148:26269  function isExcludedFromFee(address account) public view returns(bool) {... */\n    tag_120:\n        /* \"contracts/Pool/PoolPig.sol\":26212:26216  bool */\n      0x00\n        /* \"contracts/Pool/PoolPig.sol\":26235:26253  _isExcludedFromFee */\n      0x06\n        /* \"contracts/Pool/PoolPig.sol\":26235:26262  _isExcludedFromFee[account] */\n      0x00\n        /* \"contracts/Pool/PoolPig.sol\":26254:26261  account */\n      dup4\n        /* \"contracts/Pool/PoolPig.sol\":26235:26262  _isExcludedFromFee[account] */\n      0xffffffffffffffffffffffffffffffffffffffff\n      and\n      0xffffffffffffffffffffffffffffffffffffffff\n      and\n      dup2\n      mstore\n      0x20\n      add\n      swap1\n      dup2\n      mstore\n      0x20\n      add\n      0x00\n      keccak256\n      0x00\n      swap1\n      sload\n      swap1\n      0x0100\n      exp\n      swap1\n      div\n      0xff\n      and\n        /* \"contracts/Pool/PoolPig.sol\":26228:26262  return _isExcludedFromFee[account] */\n      swap1\n      pop\n        /* \"contracts/Pool/PoolPig.sol\":26148:26269  function isExcludedFromFee(address account) public view returns(bool) {... */\n      swap2\n      swap1\n      pop\n      jump\t// out\n        /* \"contracts/Pool/PoolPig.sol\":15969:16001  uint256 public _liquidityFee = 3 */\n    tag_123:\n      sload(0x10)\n      dup2\n      jump\t// out\n        /* \"contracts/Pool/PoolPig.sol\":17776:17971  function balanceOf(address account) public view override returns (uint256) {... */\n    tag_127:\n        /* \"contracts/Pool/PoolPig.sol\":17842:17849  uint256 */\n      0x00\n        /* \"contracts/Pool/PoolPig.sol\":17865:17876  _isExcluded */\n      0x07\n        /* \"contracts/Pool/PoolPig.sol\":17865:17885  _isExcluded[account] */\n      0x00\n        /* \"contracts/Pool/PoolPig.sol\":17877:17884  account */\n      dup4\n        /* \"contracts/Pool/PoolPig.sol\":17865:17885  _isExcluded[account] */\n      0xffffffffffffffffffffffffffffffffffffffff\n      and\n      0xffffffffffffffffffffffffffffffffffffffff\n      and\n      dup2\n      mstore\n      0x20\n      add\n      swap1\n      dup2\n      mstore\n      0x20\n      add\n      0x00\n      keccak256\n      0x00\n      swap1\n      sload\n      swap1\n      0x0100\n      exp\n      swap1\n      div\n      0xff\n      and\n        /* \"contracts/Pool/PoolPig.sol\":17861:17910  if (_isExcluded[account]) return _tOwned[account] */\n      iszero\n      tag_272\n      jumpi\n        /* \"contracts/Pool/PoolPig.sol\":17894:17901  _tOwned */\n      0x04\n        /* \"contracts/Pool/PoolPig.sol\":17894:17910  _tOwned[account] */\n      0x00\n        /* \"contracts/Pool/PoolPig.sol\":17902:17909  account */\n      dup4\n        /* \"contracts/Pool/PoolPig.sol\":17894:17910  _tOwned[account] */\n      0xffffffffffffffffffffffffffffffffffffffff\n      and\n      0xffffffffffffffffffffffffffffffffffffffff\n      and\n      dup2\n      mstore\n      0x20\n      add\n      swap1\n      dup2\n      mstore\n      0x20\n      add\n      0x00\n      keccak256\n      sload\n        /* \"contracts/Pool/PoolPig.sol\":17887:17910  return _tOwned[account] */\n      swap1\n      pop\n      jump(tag_271)\n        /* \"contracts/Pool/PoolPig.sol\":17861:17910  if (_isExcluded[account]) return _tOwned[account] */\n    tag_272:\n        /* \"contracts/Pool/PoolPig.sol\":17927:17964  tokenFromReflection(_rOwned[account]) */\n      tag_273\n        /* \"contracts/Pool/PoolPig.sol\":17947:17954  _rOwned */\n      0x03\n        /* \"contracts/Pool/PoolPig.sol\":17947:17963  _rOwned[account] */\n      0x00\n        /* \"contracts/Pool/PoolPig.sol\":17955:17962  account */\n      dup5\n        /* \"contracts/Pool/PoolPig.sol\":17947:17963  _rOwned[account] */\n      0xffffffffffffffffffffffffffffffffffffffff\n      and\n      0xffffffffffffffffffffffffffffffffffffffff\n      and\n      dup2\n      mstore\n      0x20\n      add\n      swap1\n      dup2\n      mstore\n      0x20\n      add\n      0x00\n      keccak256\n      sload\n        /* \"contracts/Pool/PoolPig.sol\":17927:17946  tokenFromReflection */\n      tag_80\n        /* \"contracts/Pool/PoolPig.sol\":17927:17964  tokenFromReflection(_rOwned[account]) */\n      jump\t// in\n    tag_273:\n        /* \"contracts/Pool/PoolPig.sol\":17920:17964  return tokenFromReflection(_rOwned[account]) */\n      swap1\n      pop\n        /* \"contracts/Pool/PoolPig.sol\":17776:17971  function balanceOf(address account) public view override returns (uint256) {... */\n    tag_271:\n      swap2\n      swap1\n      pop\n      jump\t// out\n        /* \"contracts/Pool/PoolPig.sol\":6118:6263  function renounceOwnership() public virtual onlyOwner {... */\n    tag_130:\n        /* \"contracts/Pool/PoolPig.sol\":6045:6057  _msgSender() */\n      tag_275\n        /* \"contracts/Pool/PoolPig.sol\":6045:6055  _msgSender */\n      tag_192\n        /* \"contracts/Pool/PoolPig.sol\":6045:6057  _msgSender() */\n      jump\t// in\n    tag_275:\n        /* \"contracts/Pool/PoolPig.sol\":6035:6057  _owner == _msgSender() */\n      0xffffffffffffffffffffffffffffffffffffffff\n      and\n        /* \"contracts/Pool/PoolPig.sol\":6035:6041  _owner */\n      0x00\n      dup1\n      sload\n      swap1\n      0x0100\n      exp\n      swap1\n      div\n      0xffffffffffffffffffffffffffffffffffffffff\n      and\n        /* \"contracts/Pool/PoolPig.sol\":6035:6057  _owner == _msgSender() */\n      0xffffffffffffffffffffffffffffffffffffffff\n      and\n      eq\n        /* \"contracts/Pool/PoolPig.sol\":6027:6094  require(_owner == _msgSender(), \"Ownable: caller is not the owner\") */\n      tag_276\n      jumpi\n      mload(0x40)\n      0x08c379a000000000000000000000000000000000000000000000000000000000\n      dup2\n      mstore\n      0x04\n      add\n      dup1\n      dup1\n      0x20\n      add\n      dup3\n      dup2\n      sub\n      dup3\n      mstore\n      0x20\n      dup2\n      mstore\n      0x20\n      add\n      dup1\n      0x4f776e61626c653a2063616c6c6572206973206e6f7420746865206f776e6572\n      dup2\n      mstore\n      pop\n      0x20\n      add\n      swap2\n      pop\n      pop\n      mload(0x40)\n      dup1\n      swap2\n      sub\n      swap1\n      revert\n    tag_276:\n        /* \"contracts/Pool/PoolPig.sol\":6224:6225  0 */\n      0x00\n        /* \"contracts/Pool/PoolPig.sol\":6187:6227  OwnershipTransferred(_owner, address(0)) */\n      0xffffffffffffffffffffffffffffffffffffffff\n      and\n        /* \"contracts/Pool/PoolPig.sol\":6208:6214  _owner */\n      0x00\n      dup1\n      sload\n      swap1\n      0x0100\n      exp\n      swap1\n      div\n      0xffffffffffffffffffffffffffffffffffffffff\n      and\n        /* \"contracts/Pool/PoolPig.sol\":6187:6227  OwnershipTransferred(_owner, address(0)) */\n      0xffffffffffffffffffffffffffffffffffffffff\n      and\n      0x8be0079c531659141344cd1fd0a4f28419497f9722a3daafe3b4186f6b6457e0\n      mload(0x40)\n      mload(0x40)\n      dup1\n      swap2\n      sub\n      swap1\n      log3\n        /* \"contracts/Pool/PoolPig.sol\":6254:6255  0 */\n      0x00\n        /* \"contracts/Pool/PoolPig.sol\":6237:6243  _owner */\n      dup1\n      0x00\n        /* \"contracts/Pool/PoolPig.sol\":6237:6256  _owner = address(0) */\n      0x0100\n      exp\n      dup2\n      sload\n      dup2\n      0xffffffffffffffffffffffffffffffffffffffff\n      mul\n      not\n      and\n      swap1\n      dup4\n      0xffffffffffffffffffffffffffffffffffffffff\n      and\n      mul\n      or\n      swap1\n      sstore\n      pop\n        /* \"contracts/Pool/PoolPig.sol\":6118:6263  function renounceOwnership() public virtual onlyOwner {... */\n      jump\t// out\n        /* \"contracts/Pool/PoolPig.sol\":16251:16298  uint256 public _maxTxAmount = 500000000 * 10**9 */\n    tag_133:\n      sload(0x13)\n      dup2\n      jump\t// out\n        /* \"contracts/Pool/PoolPig.sol\":19266:19384  function isExcludedFromReward(address account) public view returns (bool) {... */\n    tag_137:\n        /* \"contracts/Pool/PoolPig.sol\":19334:19338  bool */\n      0x00\n        /* \"contracts/Pool/PoolPig.sol\":19357:19368  _isExcluded */\n      0x07\n        /* \"contracts/Pool/PoolPig.sol\":19357:19377  _isExcluded[account] */\n      0x00\n        /* \"contracts/Pool/PoolPig.sol\":19369:19376  account */\n      dup4\n        /* \"contracts/Pool/PoolPig.sol\":19357:19377  _isExcluded[account] */\n      0xffffffffffffffffffffffffffffffffffffffff\n      and\n      0xffffffffffffffffffffffffffffffffffffffff\n      and\n      dup2\n      mstore\n      0x20\n      add\n      swap1\n      dup2\n      mstore\n      0x20\n      add\n      0x00\n      keccak256\n      0x00\n      swap1\n      sload\n      swap1\n      0x0100\n      exp\n      swap1\n      div\n      0xff\n      and\n        /* \"contracts/Pool/PoolPig.sol\":19350:19377  return _isExcluded[account] */\n      swap1\n      pop\n        /* \"contracts/Pool/PoolPig.sol\":19266:19384  function isExcludedFromReward(address account) public view returns (bool) {... */\n      swap2\n      swap1\n      pop\n      jump\t// out\n        /* \"contracts/Pool/PoolPig.sol\":5831:5908  function owner() public view returns (address) {... */\n    tag_140:\n        /* \"contracts/Pool/PoolPig.sol\":5869:5876  address */\n      0x00\n        /* \"contracts/Pool/PoolPig.sol\":5895:5901  _owner */\n      dup1\n      0x00\n      swap1\n      sload\n      swap1\n      0x0100\n      exp\n      swap1\n      div\n      0xffffffffffffffffffffffffffffffffffffffff\n      and\n        /* \"contracts/Pool/PoolPig.sol\":5888:5901  return _owner */\n      swap1\n      pop\n        /* \"contracts/Pool/PoolPig.sol\":5831:5908  function owner() public view returns (address) {... */\n      swap1\n      jump\t// out\n        /* \"contracts/Pool/PoolPig.sol\":22457:22577  function setLiquidityFeePercent(uint256 liquidityFee) external onlyOwner() {... */\n    tag_144:\n        /* \"contracts/Pool/PoolPig.sol\":6045:6057  _msgSender() */\n      tag_281\n        /* \"contracts/Pool/PoolPig.sol\":6045:6055  _msgSender */\n      tag_192\n        /* \"contracts/Pool/PoolPig.sol\":6045:6057  _msgSender() */\n      jump\t// in\n    tag_281:\n        /* \"contracts/Pool/PoolPig.sol\":6035:6057  _owner == _msgSender() */\n      0xffffffffffffffffffffffffffffffffffffffff\n      and\n        /* \"contracts/Pool/PoolPig.sol\":6035:6041  _owner */\n      0x00\n      dup1\n      sload\n      swap1\n      0x0100\n      exp\n      swap1\n      div\n      0xffffffffffffffffffffffffffffffffffffffff\n      and\n        /* \"contracts/Pool/PoolPig.sol\":6035:6057  _owner == _msgSender() */\n      0xffffffffffffffffffffffffffffffffffffffff\n      and\n      eq\n        /* \"contracts/Pool/PoolPig.sol\":6027:6094  require(_owner == _msgSender(), \"Ownable: caller is not the owner\") */\n      tag_282\n      jumpi\n      mload(0x40)\n      0x08c379a000000000000000000000000000000000000000000000000000000000\n      dup2\n      mstore\n      0x04\n      add\n      dup1\n      dup1\n      0x20\n      add\n      dup3\n      dup2\n      sub\n      dup3\n      mstore\n      0x20\n      dup2\n      mstore\n      0x20\n      add\n      dup1\n      0x4f776e61626c653a2063616c6c6572206973206e6f7420746865206f776e6572\n      dup2\n      mstore\n      pop\n      0x20\n      add\n      swap2\n      pop\n      pop\n      mload(0x40)\n      dup1\n      swap2\n      sub\n      swap1\n      revert\n    tag_282:\n        /* \"contracts/Pool/PoolPig.sol\":22558:22570  liquidityFee */\n      dup1\n        /* \"contracts/Pool/PoolPig.sol\":22542:22555  _liquidityFee */\n      0x10\n        /* \"contracts/Pool/PoolPig.sol\":22542:22570  _liquidityFee = liquidityFee */\n      dup2\n      swap1\n      sstore\n      pop\n        /* \"contracts/Pool/PoolPig.sol\":22457:22577  function setLiquidityFeePercent(uint256 liquidityFee) external onlyOwner() {... */\n      pop\n      jump\t// out\n        /* \"contracts/Pool/PoolPig.sol\":17499:17584  function symbol() public view returns (string memory) {... */\n    tag_147:\n        /* \"contracts/Pool/PoolPig.sol\":17538:17551  string memory */\n      0x60\n        /* \"contracts/Pool/PoolPig.sol\":17570:17577  _symbol */\n      0x0c\n        /* \"contracts/Pool/PoolPig.sol\":17563:17577  return _symbol */\n      dup1\n      sload\n      0x01\n      dup2\n      0x01\n      and\n      iszero\n      0x0100\n      mul\n      sub\n      and\n      0x02\n      swap1\n      div\n      dup1\n      0x1f\n      add\n      0x20\n      dup1\n      swap2\n      div\n      mul\n      0x20\n      add\n      mload(0x40)\n      swap1\n      dup2\n      add\n      0x40\n      mstore\n      dup1\n      swap3\n      swap2\n      swap1\n      dup2\n      dup2\n      mstore\n      0x20\n      add\n      dup3\n      dup1\n      sload\n      0x01\n      dup2\n      0x01\n      and\n      iszero\n      0x0100\n      mul\n      sub\n      and\n      0x02\n      swap1\n      div\n      dup1\n      iszero\n      tag_285\n      jumpi\n      dup1\n      0x1f\n      lt\n      tag_286\n      jumpi\n      0x0100\n      dup1\n      dup4\n      sload\n      div\n      mul\n      dup4\n      mstore\n      swap2\n      0x20\n      add\n      swap2\n      jump(tag_285)\n    tag_286:\n      dup3\n      add\n      swap2\n      swap1\n      0x00\n      mstore\n      keccak256(0x00, 0x20)\n      swap1\n    tag_287:\n      dup2\n      sload\n      dup2\n      mstore\n      swap1\n      0x01\n      add\n      swap1\n      0x20\n      add\n      dup1\n      dup4\n      gt\n      tag_287\n      jumpi\n      dup3\n      swap1\n      sub\n      0x1f\n      and\n      dup3\n      add\n      swap2\n    tag_285:\n      pop\n      pop\n      pop\n      pop\n      pop\n      swap1\n      pop\n        /* \"contracts/Pool/PoolPig.sol\":17499:17584  function symbol() public view returns (string memory) {... */\n      swap1\n      jump\t// out\n        /* \"contracts/Pool/PoolPig.sol\":18994:19260  function decreaseAllowance(address spender, uint256 subtractedValue) public virtual returns (bool) {... */\n    tag_155:\n        /* \"contracts/Pool/PoolPig.sol\":19087:19091  bool */\n      0x00\n        /* \"contracts/Pool/PoolPig.sol\":19103:19232  _approve(_msgSender(), spender, _allowances[_msgSender()][spender].sub(subtractedValue, \"ERC20: decreased allowance below zero\")) */\n      tag_289\n        /* \"contracts/Pool/PoolPig.sol\":19112:19124  _msgSender() */\n      tag_290\n        /* \"contracts/Pool/PoolPig.sol\":19112:19122  _msgSender */\n      tag_192\n        /* \"contracts/Pool/PoolPig.sol\":19112:19124  _msgSender() */\n      jump\t// in\n    tag_290:\n        /* \"contracts/Pool/PoolPig.sol\":19126:19133  spender */\n      dup5\n        /* \"contracts/Pool/PoolPig.sol\":19135:19231  _allowances[_msgSender()][spender].sub(subtractedValue, \"ERC20: decreased allowance below zero\") */\n      tag_291\n        /* \"contracts/Pool/PoolPig.sol\":19174:19189  subtractedValue */\n      dup6\n        /* \"contracts/Pool/PoolPig.sol\":19135:19231  _allowances[_msgSender()][spender].sub(subtractedValue, \"ERC20: decreased allowance below zero\") */\n      mload(0x40)\n      dup1\n      0x60\n      add\n      0x40\n      mstore\n      dup1\n      0x25\n      dup2\n      mstore\n      0x20\n      add\n      data_f8b476f7d28209d77d4a4ac1fe36b9f8259aa1bb6bddfa6e89de7e51615cf8a8\n      0x25\n      swap2\n      codecopy\n        /* \"contracts/Pool/PoolPig.sol\":19135:19146  _allowances */\n      0x05\n        /* \"contracts/Pool/PoolPig.sol\":19135:19160  _allowances[_msgSender()] */\n      0x00\n        /* \"contracts/Pool/PoolPig.sol\":19147:19159  _msgSender() */\n      tag_292\n        /* \"contracts/Pool/PoolPig.sol\":19147:19157  _msgSender */\n      tag_192\n        /* \"contracts/Pool/PoolPig.sol\":19147:19159  _msgSender() */\n      jump\t// in\n    tag_292:\n        /* \"contracts/Pool/PoolPig.sol\":19135:19160  _allowances[_msgSender()] */\n      0xffffffffffffffffffffffffffffffffffffffff\n      and\n      0xffffffffffffffffffffffffffffffffffffffff\n      and\n      dup2\n      mstore\n      0x20\n      add\n      swap1\n      dup2\n      mstore\n      0x20\n      add\n      0x00\n      keccak256\n        /* \"contracts/Pool/PoolPig.sol\":19135:19169  _allowances[_msgSender()][spender] */\n      0x00\n        /* \"contracts/Pool/PoolPig.sol\":19161:19168  spender */\n      dup11\n        /* \"contracts/Pool/PoolPig.sol\":19135:19169  _allowances[_msgSender()][spender] */\n      0xffffffffffffffffffffffffffffffffffffffff\n      and\n      0xffffffffffffffffffffffffffffffffffffffff\n      and\n      dup2\n      mstore\n      0x20\n      add\n      swap1\n      dup2\n      mstore\n      0x20\n      add\n      0x00\n      keccak256\n      sload\n        /* \"contracts/Pool/PoolPig.sol\":19135:19173  _allowances[_msgSender()][spender].sub */\n      tag_212\n      swap1\n        /* \"contracts/Pool/PoolPig.sol\":19135:19231  _allowances[_msgSender()][spender].sub(subtractedValue, \"ERC20: decreased allowance below zero\") */\n      swap3\n      swap2\n      swap1\n      0xffffffff\n      and\n      jump\t// in\n    tag_291:\n        /* \"contracts/Pool/PoolPig.sol\":19103:19111  _approve */\n      tag_202\n        /* \"contracts/Pool/PoolPig.sol\":19103:19232  _approve(_msgSender(), spender, _allowances[_msgSender()][spender].sub(subtractedValue, \"ERC20: decreased allowance below zero\")) */\n      jump\t// in\n    tag_289:\n        /* \"contracts/Pool/PoolPig.sol\":19249:19253  true */\n      0x01\n        /* \"contracts/Pool/PoolPig.sol\":19242:19253  return true */\n      swap1\n      pop\n        /* \"contracts/Pool/PoolPig.sol\":18994:19260  function decreaseAllowance(address spender, uint256 subtractedValue) public virtual returns (bool) {... */\n      swap3\n      swap2\n      pop\n      pop\n      jump\t// out\n        /* \"contracts/Pool/PoolPig.sol\":6957:7245  function unlock() public virtual {... */\n    tag_158:\n        /* \"contracts/Pool/PoolPig.sol\":7026:7036  msg.sender */\n      caller\n        /* \"contracts/Pool/PoolPig.sol\":7008:7036  _previousOwner == msg.sender */\n      0xffffffffffffffffffffffffffffffffffffffff\n      and\n        /* \"contracts/Pool/PoolPig.sol\":7008:7022  _previousOwner */\n      0x01\n      0x00\n      swap1\n      sload\n      swap1\n      0x0100\n      exp\n      swap1\n      div\n      0xffffffffffffffffffffffffffffffffffffffff\n      and\n        /* \"contracts/Pool/PoolPig.sol\":7008:7036  _previousOwner == msg.sender */\n      0xffffffffffffffffffffffffffffffffffffffff\n      and\n      eq\n        /* \"contracts/Pool/PoolPig.sol\":7000:7076  require(_previousOwner == msg.sender, \"You don't have permission to unlock\") */\n      tag_294\n      jumpi\n      mload(0x40)\n      0x08c379a000000000000000000000000000000000000000000000000000000000\n      dup2\n      mstore\n      0x04\n      add\n      dup1\n      dup1\n      0x20\n      add\n      dup3\n      dup2\n      sub\n      dup3\n      mstore\n      0x23\n      dup2\n      mstore\n      0x20\n      add\n      dup1\n      data_f4eb59be3df39931213d374c3658377dca3f0d2b46b7bc965af767c57c74b611\n      0x23\n      swap2\n      codecopy\n      0x40\n      add\n      swap2\n      pop\n      pop\n      mload(0x40)\n      dup1\n      swap2\n      sub\n      swap1\n      revert\n    tag_294:\n        /* \"contracts/Pool/PoolPig.sol\":7100:7109  _lockTime */\n      sload(0x02)\n        /* \"contracts/Pool/PoolPig.sol\":7094:7097  now */\n      timestamp\n        /* \"contracts/Pool/PoolPig.sol\":7094:7109  now > _lockTime */\n      gt\n        /* \"contracts/Pool/PoolPig.sol\":7086:7146  require(now > _lockTime , \"Contract is locked until 7 days\") */\n      tag_295\n      jumpi\n      mload(0x40)\n      0x08c379a000000000000000000000000000000000000000000000000000000000\n      dup2\n      mstore\n      0x04\n      add\n      dup1\n      dup1\n      0x20\n      add\n      dup3\n      dup2\n      sub\n      dup3\n      mstore\n      0x1f\n      dup2\n      mstore\n      0x20\n      add\n      dup1\n      0x436f6e7472616374206973206c6f636b656420756e74696c2037206461797300\n      dup2\n      mstore\n      pop\n      0x20\n      add\n      swap2\n      pop\n      pop\n      mload(0x40)\n      dup1\n      swap2\n      sub\n      swap1\n      revert\n    tag_295:\n        /* \"contracts/Pool/PoolPig.sol\":7190:7204  _previousOwner */\n      0x01\n      0x00\n      swap1\n      sload\n      swap1\n      0x0100\n      exp\n      swap1\n      div\n      0xffffffffffffffffffffffffffffffffffffffff\n      and\n        /* \"contracts/Pool/PoolPig.sol\":7161:7205  OwnershipTransferred(_owner, _previousOwner) */\n      0xffffffffffffffffffffffffffffffffffffffff\n      and\n        /* \"contracts/Pool/PoolPig.sol\":7182:7188  _owner */\n      0x00\n      dup1\n      sload\n      swap1\n      0x0100\n      exp\n      swap1\n      div\n      0xffffffffffffffffffffffffffffffffffffffff\n      and\n        /* \"contracts/Pool/PoolPig.sol\":7161:7205  OwnershipTransferred(_owner, _previousOwner) */\n      0xffffffffffffffffffffffffffffffffffffffff\n      and\n      0x8be0079c531659141344cd1fd0a4f28419497f9722a3daafe3b4186f6b6457e0\n      mload(0x40)\n      mload(0x40)\n      dup1\n      swap2\n      sub\n      swap1\n      log3\n        /* \"contracts/Pool/PoolPig.sol\":7224:7238  _previousOwner */\n      0x01\n      0x00\n      swap1\n      sload\n      swap1\n      0x0100\n      exp\n      swap1\n      div\n      0xffffffffffffffffffffffffffffffffffffffff\n      and\n        /* \"contracts/Pool/PoolPig.sol\":7215:7221  _owner */\n      0x00\n      dup1\n        /* \"contracts/Pool/PoolPig.sol\":7215:7238  _owner = _previousOwner */\n      0x0100\n      exp\n      dup2\n      sload\n      dup2\n      0xffffffffffffffffffffffffffffffffffffffff\n      mul\n      not\n      and\n      swap1\n      dup4\n      0xffffffffffffffffffffffffffffffffffffffff\n      and\n      mul\n      or\n      swap1\n      sstore\n      pop\n        /* \"contracts/Pool/PoolPig.sol\":6957:7245  function unlock() public virtual {... */\n      jump\t// out\n        /* \"contracts/Pool/PoolPig.sol\":17977:18141  function transfer(address recipient, uint256 amount) public override returns (bool) {... */\n    tag_162:\n        /* \"contracts/Pool/PoolPig.sol\":18055:18059  bool */\n      0x00\n        /* \"contracts/Pool/PoolPig.sol\":18071:18113  _transfer(_msgSender(), recipient, amount) */\n      tag_297\n        /* \"contracts/Pool/PoolPig.sol\":18081:18093  _msgSender() */\n      tag_298\n        /* \"contracts/Pool/PoolPig.sol\":18081:18091  _msgSender */\n      tag_192\n        /* \"contracts/Pool/PoolPig.sol\":18081:18093  _msgSender() */\n      jump\t// in\n    tag_298:\n        /* \"contracts/Pool/PoolPig.sol\":18095:18104  recipient */\n      dup5\n        /* \"contracts/Pool/PoolPig.sol\":18106:18112  amount */\n      dup5\n        /* \"contracts/Pool/PoolPig.sol\":18071:18080  _transfer */\n      tag_207\n        /* \"contracts/Pool/PoolPig.sol\":18071:18113  _transfer(_msgSender(), recipient, amount) */\n      jump\t// in\n    tag_297:\n        /* \"contracts/Pool/PoolPig.sol\":18130:18134  true */\n      0x01\n        /* \"contracts/Pool/PoolPig.sol\":18123:18134  return true */\n      swap1\n      pop\n        /* \"contracts/Pool/PoolPig.sol\":17977:18141  function transfer(address recipient, uint256 amount) public override returns (bool) {... */\n      swap3\n      swap2\n      pop\n      pop\n      jump\t// out\n        /* \"contracts/Pool/PoolPig.sol\":6515:6602  function geUnlockTime() public view returns (uint256) {... */\n    tag_165:\n        /* \"contracts/Pool/PoolPig.sol\":6560:6567  uint256 */\n      0x00\n        /* \"contracts/Pool/PoolPig.sol\":6586:6595  _lockTime */\n      sload(0x02)\n        /* \"contracts/Pool/PoolPig.sol\":6579:6595  return _lockTime */\n      swap1\n      pop\n        /* \"contracts/Pool/PoolPig.sol\":6515:6602  function geUnlockTime() public view returns (uint256) {... */\n      swap1\n      jump\t// out\n        /* \"contracts/Pool/PoolPig.sol\":22750:22918  function setSwapAndLiquifyEnabled(bool _enabled) public onlyOwner {... */\n    tag_169:\n        /* \"contracts/Pool/PoolPig.sol\":6045:6057  _msgSender() */\n      tag_301\n        /* \"contracts/Pool/PoolPig.sol\":6045:6055  _msgSender */\n      tag_192\n        /* \"contracts/Pool/PoolPig.sol\":6045:6057  _msgSender() */\n      jump\t// in\n    tag_301:\n        /* \"contracts/Pool/PoolPig.sol\":6035:6057  _owner == _msgSender() */\n      0xffffffffffffffffffffffffffffffffffffffff\n      and\n        /* \"contracts/Pool/PoolPig.sol\":6035:6041  _owner */\n      0x00\n      dup1\n      sload\n      swap1\n      0x0100\n      exp\n      swap1\n      div\n      0xffffffffffffffffffffffffffffffffffffffff\n      and\n        /* \"contracts/Pool/PoolPig.sol\":6035:6057  _owner == _msgSender() */\n      0xffffffffffffffffffffffffffffffffffffffff\n      and\n      eq\n        /* \"contracts/Pool/PoolPig.sol\":6027:6094  require(_owner == _msgSender(), \"Ownable: caller is not the owner\") */\n      tag_302\n      jumpi\n      mload(0x40)\n      0x08c379a000000000000000000000000000000000000000000000000000000000\n      dup2\n      mstore\n      0x04\n      add\n      dup1\n      dup1\n      0x20\n      add\n      dup3\n      dup2\n      sub\n      dup3\n      mstore\n      0x20\n      dup2\n      mstore\n      0x20\n      add\n      dup1\n      0x4f776e61626c653a2063616c6c6572206973206e6f7420746865206f776e6572\n      dup2\n      mstore\n      pop\n      0x20\n      add\n      swap2\n      pop\n      pop\n      mload(0x40)\n      dup1\n      swap2\n      sub\n      swap1\n      revert\n    tag_302:\n        /* \"contracts/Pool/PoolPig.sol\":22850:22858  _enabled */\n      dup1\n        /* \"contracts/Pool/PoolPig.sol\":22826:22847  swapAndLiquifyEnabled */\n      0x12\n      0x01\n        /* \"contracts/Pool/PoolPig.sol\":22826:22858  swapAndLiquifyEnabled = _enabled */\n      0x0100\n      exp\n      dup2\n      sload\n      dup2\n      0xff\n      mul\n      not\n      and\n      swap1\n      dup4\n      iszero\n      iszero\n      mul\n      or\n      swap1\n      sstore\n      pop\n        /* \"contracts/Pool/PoolPig.sol\":22873:22911  SwapAndLiquifyEnabledUpdated(_enabled) */\n      0x53726dfcaf90650aa7eb35524f4d3220f07413c8d6cb404cc8c18bf5591bc159\n        /* \"contracts/Pool/PoolPig.sol\":22902:22910  _enabled */\n      dup2\n        /* \"contracts/Pool/PoolPig.sol\":22873:22911  SwapAndLiquifyEnabledUpdated(_enabled) */\n      mload(0x40)\n      dup1\n      dup3\n      iszero\n      iszero\n      dup2\n      mstore\n      0x20\n      add\n      swap2\n      pop\n      pop\n      mload(0x40)\n      dup1\n      swap2\n      sub\n      swap1\n      log1\n        /* \"contracts/Pool/PoolPig.sol\":22750:22918  function setSwapAndLiquifyEnabled(bool _enabled) public onlyOwner {... */\n      pop\n      jump\t// out\n        /* \"contracts/Pool/PoolPig.sol\":22586:22744  function setMaxTxPercent(uint256 maxTxPercent) external onlyOwner() {... */\n    tag_173:\n        /* \"contracts/Pool/PoolPig.sol\":6045:6057  _msgSender() */\n      tag_305\n        /* \"contracts/Pool/PoolPig.sol\":6045:6055  _msgSender */\n      tag_192\n        /* \"contracts/Pool/PoolPig.sol\":6045:6057  _msgSender() */\n      jump\t// in\n    tag_305:\n        /* \"contracts/Pool/PoolPig.sol\":6035:6057  _owner == _msgSender() */\n      0xffffffffffffffffffffffffffffffffffffffff\n      and\n        /* \"contracts/Pool/PoolPig.sol\":6035:6041  _owner */\n      0x00\n      dup1\n      sload\n      swap1\n      0x0100\n      exp\n      swap1\n      div\n      0xffffffffffffffffffffffffffffffffffffffff\n      and\n        /* \"contracts/Pool/PoolPig.sol\":6035:6057  _owner == _msgSender() */\n      0xffffffffffffffffffffffffffffffffffffffff\n      and\n      eq\n        /* \"contracts/Pool/PoolPig.sol\":6027:6094  require(_owner == _msgSender(), \"Ownable: caller is not the owner\") */\n      tag_306\n      jumpi\n      mload(0x40)\n      0x08c379a000000000000000000000000000000000000000000000000000000000\n      dup2\n      mstore\n      0x04\n      add\n      dup1\n      dup1\n      0x20\n      add\n      dup3\n      dup2\n      sub\n      dup3\n      mstore\n      0x20\n      dup2\n      mstore\n      0x20\n      add\n      dup1\n      0x4f776e61626c653a2063616c6c6572206973206e6f7420746865206f776e6572\n      dup2\n      mstore\n      pop\n      0x20\n      add\n      swap2\n      pop\n      pop\n      mload(0x40)\n      dup1\n      swap2\n      sub\n      swap1\n      revert\n    tag_306:\n        /* \"contracts/Pool/PoolPig.sol\":22679:22737  _tTotal.mul(maxTxPercent).div(... */\n      tag_308\n        /* \"contracts/Pool/PoolPig.sol\":22722:22727  10**2 */\n      0x64\n        /* \"contracts/Pool/PoolPig.sol\":22679:22704  _tTotal.mul(maxTxPercent) */\n      tag_309\n        /* \"contracts/Pool/PoolPig.sol\":22691:22703  maxTxPercent */\n      dup4\n        /* \"contracts/Pool/PoolPig.sol\":15658:15676  1000000000 * 10**9 */\n      0x0de0b6b3a7640000\n        /* \"contracts/Pool/PoolPig.sol\":22679:22690  _tTotal.mul */\n      tag_310\n      swap1\n        /* \"contracts/Pool/PoolPig.sol\":22679:22704  _tTotal.mul(maxTxPercent) */\n      swap2\n      swap1\n      0xffffffff\n      and\n      jump\t// in\n    tag_309:\n        /* \"contracts/Pool/PoolPig.sol\":22679:22708  _tTotal.mul(maxTxPercent).div */\n      tag_218\n      swap1\n        /* \"contracts/Pool/PoolPig.sol\":22679:22737  _tTotal.mul(maxTxPercent).div(... */\n      swap2\n      swap1\n      0xffffffff\n      and\n      jump\t// in\n    tag_308:\n        /* \"contracts/Pool/PoolPig.sol\":22664:22676  _maxTxAmount */\n      0x13\n        /* \"contracts/Pool/PoolPig.sol\":22664:22737  _maxTxAmount = _tTotal.mul(maxTxPercent).div(... */\n      dup2\n      swap1\n      sstore\n      pop\n        /* \"contracts/Pool/PoolPig.sol\":22586:22744  function setMaxTxPercent(uint256 maxTxPercent) external onlyOwner() {... */\n      pop\n      jump\t// out\n        /* \"contracts/Pool/PoolPig.sol\":6675:6884  function lock(uint256 time) public virtual onlyOwner {... */\n    tag_177:\n        /* \"contracts/Pool/PoolPig.sol\":6045:6057  _msgSender() */\n      tag_312\n        /* \"contracts/Pool/PoolPig.sol\":6045:6055  _msgSender */\n      tag_192\n        /* \"contracts/Pool/PoolPig.sol\":6045:6057  _msgSender() */\n      jump\t// in\n    tag_312:\n        /* \"contracts/Pool/PoolPig.sol\":6035:6057  _owner == _msgSender() */\n      0xffffffffffffffffffffffffffffffffffffffff\n      and\n        /* \"contracts/Pool/PoolPig.sol\":6035:6041  _owner */\n      0x00\n      dup1\n      sload\n      swap1\n      0x0100\n      exp\n      swap1\n      div\n      0xffffffffffffffffffffffffffffffffffffffff\n      and\n        /* \"contracts/Pool/PoolPig.sol\":6035:6057  _owner == _msgSender() */\n      0xffffffffffffffffffffffffffffffffffffffff\n      and\n      eq\n        /* \"contracts/Pool/PoolPig.sol\":6027:6094  require(_owner == _msgSender(), \"Ownable: caller is not the owner\") */\n      tag_313\n      jumpi\n      mload(0x40)\n      0x08c379a000000000000000000000000000000000000000000000000000000000\n      dup2\n      mstore\n      0x04\n      add\n      dup1\n      dup1\n      0x20\n      add\n      dup3\n      dup2\n      sub\n      dup3\n      mstore\n      0x20\n      dup2\n      mstore\n      0x20\n      add\n      dup1\n      0x4f776e61626c653a2063616c6c6572206973206e6f7420746865206f776e6572\n      dup2\n      mstore\n      pop\n      0x20\n      add\n      swap2\n      pop\n      pop\n      mload(0x40)\n      dup1\n      swap2\n      sub\n      swap1\n      revert\n    tag_313:\n        /* \"contracts/Pool/PoolPig.sol\":6755:6761  _owner */\n      0x00\n      dup1\n      sload\n      swap1\n      0x0100\n      exp\n      swap1\n      div\n      0xffffffffffffffffffffffffffffffffffffffff\n      and\n        /* \"contracts/Pool/PoolPig.sol\":6738:6752  _previousOwner */\n      0x01\n      0x00\n        /* \"contracts/Pool/PoolPig.sol\":6738:6761  _previousOwner = _owner */\n      0x0100\n      exp\n      dup2\n      sload\n      dup2\n      0xffffffffffffffffffffffffffffffffffffffff\n      mul\n      not\n      and\n      swap1\n      dup4\n      0xffffffffffffffffffffffffffffffffffffffff\n      and\n      mul\n      or\n      swap1\n      sstore\n      pop\n        /* \"contracts/Pool/PoolPig.sol\":6788:6789  0 */\n      0x00\n        /* \"contracts/Pool/PoolPig.sol\":6771:6777  _owner */\n      dup1\n      0x00\n        /* \"contracts/Pool/PoolPig.sol\":6771:6790  _owner = address(0) */\n      0x0100\n      exp\n      dup2\n      sload\n      dup2\n      0xffffffffffffffffffffffffffffffffffffffff\n      mul\n      not\n      and\n      swap1\n      dup4\n      0xffffffffffffffffffffffffffffffffffffffff\n      and\n      mul\n      or\n      swap1\n      sstore\n      pop\n        /* \"contracts/Pool/PoolPig.sol\":6818:6822  time */\n      dup1\n        /* \"contracts/Pool/PoolPig.sol\":6812:6815  now */\n      timestamp\n        /* \"contracts/Pool/PoolPig.sol\":6812:6822  now + time */\n      add\n        /* \"contracts/Pool/PoolPig.sol\":6800:6809  _lockTime */\n      0x02\n        /* \"contracts/Pool/PoolPig.sol\":6800:6822  _lockTime = now + time */\n      dup2\n      swap1\n      sstore\n      pop\n        /* \"contracts/Pool/PoolPig.sol\":6874:6875  0 */\n      0x00\n        /* \"contracts/Pool/PoolPig.sol\":6837:6877  OwnershipTransferred(_owner, address(0)) */\n      0xffffffffffffffffffffffffffffffffffffffff\n      and\n        /* \"contracts/Pool/PoolPig.sol\":6858:6864  _owner */\n      0x00\n      dup1\n      sload\n      swap1\n      0x0100\n      exp\n      swap1\n      div\n      0xffffffffffffffffffffffffffffffffffffffff\n      and\n        /* \"contracts/Pool/PoolPig.sol\":6837:6877  OwnershipTransferred(_owner, address(0)) */\n      0xffffffffffffffffffffffffffffffffffffffff\n      and\n      0x8be0079c531659141344cd1fd0a4f28419497f9722a3daafe3b4186f6b6457e0\n      mload(0x40)\n      mload(0x40)\n      dup1\n      swap2\n      sub\n      swap1\n      log3\n        /* \"contracts/Pool/PoolPig.sol\":6675:6884  function lock(uint256 time) public virtual onlyOwner {... */\n      pop\n      jump\t// out\n        /* \"contracts/Pool/PoolPig.sol\":18147:18288  function allowance(address owner, address spender) public view override returns (uint256) {... */\n    tag_181:\n        /* \"contracts/Pool/PoolPig.sol\":18228:18235  uint256 */\n      0x00\n        /* \"contracts/Pool/PoolPig.sol\":18254:18265  _allowances */\n      0x05\n        /* \"contracts/Pool/PoolPig.sol\":18254:18272  _allowances[owner] */\n      0x00\n        /* \"contracts/Pool/PoolPig.sol\":18266:18271  owner */\n      dup5\n        /* \"contracts/Pool/PoolPig.sol\":18254:18272  _allowances[owner] */\n      0xffffffffffffffffffffffffffffffffffffffff\n      and\n      0xffffffffffffffffffffffffffffffffffffffff\n      and\n      dup2\n      mstore\n      0x20\n      add\n      swap1\n      dup2\n      mstore\n      0x20\n      add\n      0x00\n      keccak256\n        /* \"contracts/Pool/PoolPig.sol\":18254:18281  _allowances[owner][spender] */\n      0x00\n        /* \"contracts/Pool/PoolPig.sol\":18273:18280  spender */\n      dup4\n        /* \"contracts/Pool/PoolPig.sol\":18254:18281  _allowances[owner][spender] */\n      0xffffffffffffffffffffffffffffffffffffffff\n      and\n      0xffffffffffffffffffffffffffffffffffffffff\n      and\n      dup2\n      mstore\n      0x20\n      add\n      swap1\n      dup2\n      mstore\n      0x20\n      add\n      0x00\n      keccak256\n      sload\n        /* \"contracts/Pool/PoolPig.sol\":18247:18281  return _allowances[owner][spender] */\n      swap1\n      pop\n        /* \"contracts/Pool/PoolPig.sol\":18147:18288  function allowance(address owner, address spender) public view override returns (uint256) {... */\n      swap3\n      swap2\n      pop\n      pop\n      jump\t// out\n        /* \"contracts/Pool/PoolPig.sol\":22233:22341  function includeInFee(address account) public onlyOwner {... */\n    tag_185:\n        /* \"contracts/Pool/PoolPig.sol\":6045:6057  _msgSender() */\n      tag_317\n        /* \"contracts/Pool/PoolPig.sol\":6045:6055  _msgSender */\n      tag_192\n        /* \"contracts/Pool/PoolPig.sol\":6045:6057  _msgSender() */\n      jump\t// in\n    tag_317:\n        /* \"contracts/Pool/PoolPig.sol\":6035:6057  _owner == _msgSender() */\n      0xffffffffffffffffffffffffffffffffffffffff\n      and\n        /* \"contracts/Pool/PoolPig.sol\":6035:6041  _owner */\n      0x00\n      dup1\n      sload\n      swap1\n      0x0100\n      exp\n      swap1\n      div\n      0xffffffffffffffffffffffffffffffffffffffff\n      and\n        /* \"contracts/Pool/PoolPig.sol\":6035:6057  _owner == _msgSender() */\n      0xffffffffffffffffffffffffffffffffffffffff\n      and\n      eq\n        /* \"contracts/Pool/PoolPig.sol\":6027:6094  require(_owner == _msgSender(), \"Ownable: caller is not the owner\") */\n      tag_318\n      jumpi\n      mload(0x40)\n      0x08c379a000000000000000000000000000000000000000000000000000000000\n      dup2\n      mstore\n      0x04\n      add\n      dup1\n      dup1\n      0x20\n      add\n      dup3\n      dup2\n      sub\n      dup3\n      mstore\n      0x20\n      dup2\n      mstore\n      0x20\n      add\n      dup1\n      0x4f776e61626c653a2063616c6c6572206973206e6f7420746865206f776e6572\n      dup2\n      mstore\n      pop\n      0x20\n      add\n      swap2\n      pop\n      pop\n      mload(0x40)\n      dup1\n      swap2\n      sub\n      swap1\n      revert\n    tag_318:\n        /* \"contracts/Pool/PoolPig.sol\":22329:22334  false */\n      0x00\n        /* \"contracts/Pool/PoolPig.sol\":22299:22317  _isExcludedFromFee */\n      0x06\n        /* \"contracts/Pool/PoolPig.sol\":22299:22326  _isExcludedFromFee[account] */\n      0x00\n        /* \"contracts/Pool/PoolPig.sol\":22318:22325  account */\n      dup4\n        /* \"contracts/Pool/PoolPig.sol\":22299:22326  _isExcludedFromFee[account] */\n      0xffffffffffffffffffffffffffffffffffffffff\n      and\n      0xffffffffffffffffffffffffffffffffffffffff\n      and\n      dup2\n      mstore\n      0x20\n      add\n      swap1\n      dup2\n      mstore\n      0x20\n      add\n      0x00\n      keccak256\n      0x00\n        /* \"contracts/Pool/PoolPig.sol\":22299:22334  _isExcludedFromFee[account] = false */\n      0x0100\n      exp\n      dup2\n      sload\n      dup2\n      0xff\n      mul\n      not\n      and\n      swap1\n      dup4\n      iszero\n      iszero\n      mul\n      or\n      swap1\n      sstore\n      pop\n        /* \"contracts/Pool/PoolPig.sol\":22233:22341  function includeInFee(address account) public onlyOwner {... */\n      pop\n      jump\t// out\n        /* \"contracts/Pool/PoolPig.sol\":6269:6509  function transferOwnership(address newOwner) public virtual onlyOwner {... */\n    tag_189:\n        /* \"contracts/Pool/PoolPig.sol\":6045:6057  _msgSender() */\n      tag_321\n        /* \"contracts/Pool/PoolPig.sol\":6045:6055  _msgSender */\n      tag_192\n        /* \"contracts/Pool/PoolPig.sol\":6045:6057  _msgSender() */\n      jump\t// in\n    tag_321:\n        /* \"contracts/Pool/PoolPig.sol\":6035:6057  _owner == _msgSender() */\n      0xffffffffffffffffffffffffffffffffffffffff\n      and\n        /* \"contracts/Pool/PoolPig.sol\":6035:6041  _owner */\n      0x00\n      dup1\n      sload\n      swap1\n      0x0100\n      exp\n      swap1\n      div\n      0xffffffffffffffffffffffffffffffffffffffff\n      and\n        /* \"contracts/Pool/PoolPig.sol\":6035:6057  _owner == _msgSender() */\n      0xffffffffffffffffffffffffffffffffffffffff\n      and\n      eq\n        /* \"contracts/Pool/PoolPig.sol\":6027:6094  require(_owner == _msgSender(), \"Ownable: caller is not the owner\") */\n      tag_322\n      jumpi\n      mload(0x40)\n      0x08c379a000000000000000000000000000000000000000000000000000000000\n      dup2\n      mstore\n      0x04\n      add\n      dup1\n      dup1\n      0x20\n      add\n      dup3\n      dup2\n      sub\n      dup3\n      mstore\n      0x20\n      dup2\n      mstore\n      0x20\n      add\n      dup1\n      0x4f776e61626c653a2063616c6c6572206973206e6f7420746865206f776e6572\n      dup2\n      mstore\n      pop\n      0x20\n      add\n      swap2\n      pop\n      pop\n      mload(0x40)\n      dup1\n      swap2\n      sub\n      swap1\n      revert\n    tag_322:\n        /* \"contracts/Pool/PoolPig.sol\":6377:6378  0 */\n      0x00\n        /* \"contracts/Pool/PoolPig.sol\":6357:6379  newOwner != address(0) */\n      0xffffffffffffffffffffffffffffffffffffffff\n      and\n        /* \"contracts/Pool/PoolPig.sol\":6357:6365  newOwner */\n      dup2\n        /* \"contracts/Pool/PoolPig.sol\":6357:6379  newOwner != address(0) */\n      0xffffffffffffffffffffffffffffffffffffffff\n      and\n      eq\n      iszero\n        /* \"contracts/Pool/PoolPig.sol\":6349:6422  require(newOwner != address(0), \"Ownable: new owner is the zero address\") */\n      tag_324\n      jumpi\n      mload(0x40)\n      0x08c379a000000000000000000000000000000000000000000000000000000000\n      dup2\n      mstore\n      0x04\n      add\n      dup1\n      dup1\n      0x20\n      add\n      dup3\n      dup2\n      sub\n      dup3\n      mstore\n      0x26\n      dup2\n      mstore\n      0x20\n      add\n      dup1\n      data_245f15ff17f551913a7a18385165551503906a406f905ac1c2437281a7cd0cfe\n      0x26\n      swap2\n      codecopy\n      0x40\n      add\n      swap2\n      pop\n      pop\n      mload(0x40)\n      dup1\n      swap2\n      sub\n      swap1\n      revert\n    tag_324:\n        /* \"contracts/Pool/PoolPig.sol\":6466:6474  newOwner */\n      dup1\n        /* \"contracts/Pool/PoolPig.sol\":6437:6475  OwnershipTransferred(_owner, newOwner) */\n      0xffffffffffffffffffffffffffffffffffffffff\n      and\n        /* \"contracts/Pool/PoolPig.sol\":6458:6464  _owner */\n      0x00\n      dup1\n      sload\n      swap1\n      0x0100\n      exp\n      swap1\n      div\n      0xffffffffffffffffffffffffffffffffffffffff\n      and\n        /* \"contracts/Pool/PoolPig.sol\":6437:6475  OwnershipTransferred(_owner, newOwner) */\n      0xffffffffffffffffffffffffffffffffffffffff\n      and\n      0x8be0079c531659141344cd1fd0a4f28419497f9722a3daafe3b4186f6b6457e0\n      mload(0x40)\n      mload(0x40)\n      dup1\n      swap2\n      sub\n      swap1\n      log3\n        /* \"contracts/Pool/PoolPig.sol\":6494:6502  newOwner */\n      dup1\n        /* \"contracts/Pool/PoolPig.sol\":6485:6491  _owner */\n      0x00\n      dup1\n        /* \"contracts/Pool/PoolPig.sol\":6485:6502  _owner = newOwner */\n      0x0100\n      exp\n      dup2\n      sload\n      dup2\n      0xffffffffffffffffffffffffffffffffffffffff\n      mul\n      not\n      and\n      swap1\n      dup4\n      0xffffffffffffffffffffffffffffffffffffffff\n      and\n      mul\n      or\n      swap1\n      sstore\n      pop\n        /* \"contracts/Pool/PoolPig.sol\":6269:6509  function transferOwnership(address newOwner) public virtual onlyOwner {... */\n      pop\n      jump\t// out\n        /* \"contracts/Pool/PoolPig.sol\":2255:2359  function _msgSender() internal view virtual returns (address payable) {... */\n    tag_192:\n        /* \"contracts/Pool/PoolPig.sol\":2308:2323  address payable */\n      0x00\n        /* \"contracts/Pool/PoolPig.sol\":2342:2352  msg.sender */\n      caller\n        /* \"contracts/Pool/PoolPig.sol\":2335:2352  return msg.sender */\n      swap1\n      pop\n        /* \"contracts/Pool/PoolPig.sol\":2255:2359  function _msgSender() internal view virtual returns (address payable) {... */\n      swap1\n      jump\t// out\n        /* \"contracts/Pool/PoolPig.sol\":26275:26606  function _approve(address owner, address spender, uint256 amount) private {... */\n    tag_202:\n        /* \"contracts/Pool/PoolPig.sol\":26384:26385  0 */\n      0x00\n        /* \"contracts/Pool/PoolPig.sol\":26367:26386  owner != address(0) */\n      0xffffffffffffffffffffffffffffffffffffffff\n      and\n        /* \"contracts/Pool/PoolPig.sol\":26367:26372  owner */\n      dup4\n        /* \"contracts/Pool/PoolPig.sol\":26367:26386  owner != address(0) */\n      0xffffffffffffffffffffffffffffffffffffffff\n      and\n      eq\n      iszero\n        /* \"contracts/Pool/PoolPig.sol\":26359:26427  require(owner != address(0), \"ERC20: approve from the zero address\") */\n      tag_327\n      jumpi\n      mload(0x40)\n      0x08c379a000000000000000000000000000000000000000000000000000000000\n      dup2\n      mstore\n      0x04\n      add\n      dup1\n      dup1\n      0x20\n      add\n      dup3\n      dup2\n      sub\n      dup3\n      mstore\n      0x24\n      dup2\n      mstore\n      0x20\n      add\n      dup1\n      data_c953f4879035ed60e766b34720f656aab5c697b141d924c283124ecedb91c208\n      0x24\n      swap2\n      codecopy\n      0x40\n      add\n      swap2\n      pop\n      pop\n      mload(0x40)\n      dup1\n      swap2\n      sub\n      swap1\n      revert\n    tag_327:\n        /* \"contracts/Pool/PoolPig.sol\":26464:26465  0 */\n      0x00\n        /* \"contracts/Pool/PoolPig.sol\":26445:26466  spender != address(0) */\n      0xffffffffffffffffffffffffffffffffffffffff\n      and\n        /* \"contracts/Pool/PoolPig.sol\":26445:26452  spender */\n      dup3\n        /* \"contracts/Pool/PoolPig.sol\":26445:26466  spender != address(0) */\n      0xffffffffffffffffffffffffffffffffffffffff\n      and\n      eq\n      iszero\n        /* \"contracts/Pool/PoolPig.sol\":26437:26505  require(spender != address(0), \"ERC20: approve to the zero address\") */\n      tag_328\n      jumpi\n      mload(0x40)\n      0x08c379a000000000000000000000000000000000000000000000000000000000\n      dup2\n      mstore\n      0x04\n      add\n      dup1\n      dup1\n      0x20\n      add\n      dup3\n      dup2\n      sub\n      dup3\n      mstore\n      0x22\n      dup2\n      mstore\n      0x20\n      add\n      dup1\n      data_24883cc5fe64ace9d0df1893501ecb93c77180f0ff69cca79affb3c316dc8029\n      0x22\n      swap2\n      codecopy\n      0x40\n      add\n      swap2\n      pop\n      pop\n      mload(0x40)\n      dup1\n      swap2\n      sub\n      swap1\n      revert\n    tag_328:\n        /* \"contracts/Pool/PoolPig.sol\":26546:26552  amount */\n      dup1\n        /* \"contracts/Pool/PoolPig.sol\":26516:26527  _allowances */\n      0x05\n        /* \"contracts/Pool/PoolPig.sol\":26516:26534  _allowances[owner] */\n      0x00\n        /* \"contracts/Pool/PoolPig.sol\":26528:26533  owner */\n      dup6\n        /* \"contracts/Pool/PoolPig.sol\":26516:26534  _allowances[owner] */\n      0xffffffffffffffffffffffffffffffffffffffff\n      and\n      0xffffffffffffffffffffffffffffffffffffffff\n      and\n      dup2\n      mstore\n      0x20\n      add\n      swap1\n      dup2\n      mstore\n      0x20\n      add\n      0x00\n      keccak256\n        /* \"contracts/Pool/PoolPig.sol\":26516:26543  _allowances[owner][spender] */\n      0x00\n        /* \"contracts/Pool/PoolPig.sol\":26535:26542  spender */\n      dup5\n        /* \"contracts/Pool/PoolPig.sol\":26516:26543  _allowances[owner][spender] */\n      0xffffffffffffffffffffffffffffffffffffffff\n      and\n      0xffffffffffffffffffffffffffffffffffffffff\n      and\n      dup2\n      mstore\n      0x20\n      add\n      swap1\n      dup2\n      mstore\n      0x20\n      add\n      0x00\n      keccak256\n        /* \"contracts/Pool/PoolPig.sol\":26516:26552  _allowances[owner][spender] = amount */\n      dup2\n      swap1\n      sstore\n      pop\n        /* \"contracts/Pool/PoolPig.sol\":26583:26590  spender */\n      dup2\n        /* \"contracts/Pool/PoolPig.sol\":26567:26599  Approval(owner, spender, amount) */\n      0xffffffffffffffffffffffffffffffffffffffff\n      and\n        /* \"contracts/Pool/PoolPig.sol\":26576:26581  owner */\n      dup4\n        /* \"contracts/Pool/PoolPig.sol\":26567:26599  Approval(owner, spender, amount) */\n      0xffffffffffffffffffffffffffffffffffffffff\n      and\n      0x8c5be1e5ebec7d5bd14f71427d1e84f3dd0314c0f7b2291e5b200ac8c7c3b925\n        /* \"contracts/Pool/PoolPig.sol\":26592:26598  amount */\n      dup4\n        /* \"contracts/Pool/PoolPig.sol\":26567:26599  Approval(owner, spender, amount) */\n      mload(0x40)\n      dup1\n      dup3\n      dup2\n      mstore\n      0x20\n      add\n      swap2\n      pop\n      pop\n      mload(0x40)\n      dup1\n      swap2\n      sub\n      swap1\n      log3\n        /* \"contracts/Pool/PoolPig.sol\":26275:26606  function _approve(address owner, address spender, uint256 amount) private {... */\n      pop\n      pop\n      pop\n      jump\t// out\n        /* \"contracts/Pool/PoolPig.sol\":26612:28103  function _transfer(... */\n    tag_207:\n        /* \"contracts/Pool/PoolPig.sol\":26745:26746  0 */\n      0x00\n        /* \"contracts/Pool/PoolPig.sol\":26729:26747  from != address(0) */\n      0xffffffffffffffffffffffffffffffffffffffff\n      and\n        /* \"contracts/Pool/PoolPig.sol\":26729:26733  from */\n      dup4\n        /* \"contracts/Pool/PoolPig.sol\":26729:26747  from != address(0) */\n      0xffffffffffffffffffffffffffffffffffffffff\n      and\n      eq\n      iszero\n        /* \"contracts/Pool/PoolPig.sol\":26721:26789  require(from != address(0), \"ERC20: transfer from the zero address\") */\n      tag_330\n      jumpi\n      mload(0x40)\n      0x08c379a000000000000000000000000000000000000000000000000000000000\n      dup2\n      mstore\n      0x04\n      add\n      dup1\n      dup1\n      0x20\n      add\n      dup3\n      dup2\n      sub\n      dup3\n      mstore\n      0x25\n      dup2\n      mstore\n      0x20\n      add\n      dup1\n      data_baecc556b46f4ed0f2b4cb599d60785ac8563dd2dc0a5bf12edea1c39e5e1fea\n      0x25\n      swap2\n      codecopy\n      0x40\n      add\n      swap2\n      pop\n      pop\n      mload(0x40)\n      dup1\n      swap2\n      sub\n      swap1\n      revert\n    tag_330:\n        /* \"contracts/Pool/PoolPig.sol\":26821:26822  0 */\n      0x00\n        /* \"contracts/Pool/PoolPig.sol\":26807:26823  to != address(0) */\n      0xffffffffffffffffffffffffffffffffffffffff\n      and\n        /* \"contracts/Pool/PoolPig.sol\":26807:26809  to */\n      dup3\n        /* \"contracts/Pool/PoolPig.sol\":26807:26823  to != address(0) */\n      0xffffffffffffffffffffffffffffffffffffffff\n      and\n      eq\n      iszero\n        /* \"contracts/Pool/PoolPig.sol\":26799:26863  require(to != address(0), \"ERC20: transfer to the zero address\") */\n      tag_331\n      jumpi\n      mload(0x40)\n      0x08c379a000000000000000000000000000000000000000000000000000000000\n      dup2\n      mstore\n      0x04\n      add\n      dup1\n      dup1\n      0x20\n      add\n      dup3\n      dup2\n      sub\n      dup3\n      mstore\n      0x23\n      dup2\n      mstore\n      0x20\n      add\n      dup1\n      data_0557e210f7a69a685100a7e4e3d0a7024c546085cee28910fd17d0b081d9516f\n      0x23\n      swap2\n      codecopy\n      0x40\n      add\n      swap2\n      pop\n      pop\n      mload(0x40)\n      dup1\n      swap2\n      sub\n      swap1\n      revert\n    tag_331:\n        /* \"contracts/Pool/PoolPig.sol\":26890:26891  0 */\n      0x00\n        /* \"contracts/Pool/PoolPig.sol\":26881:26887  amount */\n      dup2\n        /* \"contracts/Pool/PoolPig.sol\":26881:26891  amount > 0 */\n      gt\n        /* \"contracts/Pool/PoolPig.sol\":26873:26937  require(amount > 0, \"Transfer amount must be greater than zero\") */\n      tag_332\n      jumpi\n      mload(0x40)\n      0x08c379a000000000000000000000000000000000000000000000000000000000\n      dup2\n      mstore\n      0x04\n      add\n      dup1\n      dup1\n      0x20\n      add\n      dup3\n      dup2\n      sub\n      dup3\n      mstore\n      0x29\n      dup2\n      mstore\n      0x20\n      add\n      dup1\n      data_9edb5ab58321f35d2386ea65721c9b107daa2c273610fc16d394af2a320ba785\n      0x29\n      swap2\n      codecopy\n      0x40\n      add\n      swap2\n      pop\n      pop\n      mload(0x40)\n      dup1\n      swap2\n      sub\n      swap1\n      revert\n    tag_332:\n        /* \"contracts/Pool/PoolPig.sol\":26958:26965  owner() */\n      tag_333\n        /* \"contracts/Pool/PoolPig.sol\":26958:26963  owner */\n      tag_140\n        /* \"contracts/Pool/PoolPig.sol\":26958:26965  owner() */\n      jump\t// in\n    tag_333:\n        /* \"contracts/Pool/PoolPig.sol\":26950:26965  from != owner() */\n      0xffffffffffffffffffffffffffffffffffffffff\n      and\n        /* \"contracts/Pool/PoolPig.sol\":26950:26954  from */\n      dup4\n        /* \"contracts/Pool/PoolPig.sol\":26950:26965  from != owner() */\n      0xffffffffffffffffffffffffffffffffffffffff\n      and\n      eq\n      iszero\n        /* \"contracts/Pool/PoolPig.sol\":26950:26982  from != owner() && to != owner() */\n      dup1\n      iszero\n      tag_334\n      jumpi\n      pop\n        /* \"contracts/Pool/PoolPig.sol\":26975:26982  owner() */\n      tag_335\n        /* \"contracts/Pool/PoolPig.sol\":26975:26980  owner */\n      tag_140\n        /* \"contracts/Pool/PoolPig.sol\":26975:26982  owner() */\n      jump\t// in\n    tag_335:\n        /* \"contracts/Pool/PoolPig.sol\":26969:26982  to != owner() */\n      0xffffffffffffffffffffffffffffffffffffffff\n      and\n        /* \"contracts/Pool/PoolPig.sol\":26969:26971  to */\n      dup3\n        /* \"contracts/Pool/PoolPig.sol\":26969:26982  to != owner() */\n      0xffffffffffffffffffffffffffffffffffffffff\n      and\n      eq\n      iszero\n        /* \"contracts/Pool/PoolPig.sol\":26950:26982  from != owner() && to != owner() */\n    tag_334:\n        /* \"contracts/Pool/PoolPig.sol\":26947:27071  if(from != owner() && to != owner())... */\n      iszero\n      tag_336\n      jumpi\n        /* \"contracts/Pool/PoolPig.sol\":27014:27026  _maxTxAmount */\n      sload(0x13)\n        /* \"contracts/Pool/PoolPig.sol\":27004:27010  amount */\n      dup2\n        /* \"contracts/Pool/PoolPig.sol\":27004:27026  amount <= _maxTxAmount */\n      gt\n      iszero\n        /* \"contracts/Pool/PoolPig.sol\":26996:27071  require(amount <= _maxTxAmount, \"Transfer amount exceeds the maxTxAmount.\") */\n      tag_337\n      jumpi\n      mload(0x40)\n      0x08c379a000000000000000000000000000000000000000000000000000000000\n      dup2\n      mstore\n      0x04\n      add\n      dup1\n      dup1\n      0x20\n      add\n      dup3\n      dup2\n      sub\n      dup3\n      mstore\n      0x28\n      dup2\n      mstore\n      0x20\n      add\n      dup1\n      data_72052210969ce5fd88e52b5e685de9548acef9bb1b6d02e29c1765d0674948dd\n      0x28\n      swap2\n      codecopy\n      0x40\n      add\n      swap2\n      pop\n      pop\n      mload(0x40)\n      dup1\n      swap2\n      sub\n      swap1\n      revert\n    tag_337:\n        /* \"contracts/Pool/PoolPig.sol\":26947:27071  if(from != owner() && to != owner())... */\n    tag_336:\n        /* \"contracts/Pool/PoolPig.sol\":27082:27110  uint256 contractTokenBalance */\n      0x00\n        /* \"contracts/Pool/PoolPig.sol\":27113:27137  balanceOf(address(this)) */\n      tag_338\n        /* \"contracts/Pool/PoolPig.sol\":27131:27135  this */\n      address\n        /* \"contracts/Pool/PoolPig.sol\":27113:27122  balanceOf */\n      tag_127\n        /* \"contracts/Pool/PoolPig.sol\":27113:27137  balanceOf(address(this)) */\n      jump\t// in\n    tag_338:\n        /* \"contracts/Pool/PoolPig.sol\":27082:27137  uint256 contractTokenBalance = balanceOf(address(this)) */\n      swap1\n      pop\n        /* \"contracts/Pool/PoolPig.sol\":27183:27195  _maxTxAmount */\n      sload(0x13)\n        /* \"contracts/Pool/PoolPig.sol\":27159:27179  contractTokenBalance */\n      dup2\n        /* \"contracts/Pool/PoolPig.sol\":27159:27195  contractTokenBalance >= _maxTxAmount */\n      lt\n        /* \"contracts/Pool/PoolPig.sol\":27156:27265  if(contractTokenBalance >= _maxTxAmount)... */\n      tag_339\n      jumpi\n        /* \"contracts/Pool/PoolPig.sol\":27242:27254  _maxTxAmount */\n      sload(0x13)\n        /* \"contracts/Pool/PoolPig.sol\":27219:27254  contractTokenBalance = _maxTxAmount */\n      swap1\n      pop\n        /* \"contracts/Pool/PoolPig.sol\":27156:27265  if(contractTokenBalance >= _maxTxAmount)... */\n    tag_339:\n        /* \"contracts/Pool/PoolPig.sol\":27283:27307  bool overMinTokenBalance */\n      0x00\n        /* \"contracts/Pool/PoolPig.sol\":27334:27363  numTokensSellToAddToLiquidity */\n      sload(0x14)\n        /* \"contracts/Pool/PoolPig.sol\":27310:27330  contractTokenBalance */\n      dup3\n        /* \"contracts/Pool/PoolPig.sol\":27310:27363  contractTokenBalance >= numTokensSellToAddToLiquidity */\n      lt\n      iszero\n        /* \"contracts/Pool/PoolPig.sol\":27283:27363  bool overMinTokenBalance = contractTokenBalance >= numTokensSellToAddToLiquidity */\n      swap1\n      pop\n        /* \"contracts/Pool/PoolPig.sol\":27390:27409  overMinTokenBalance */\n      dup1\n        /* \"contracts/Pool/PoolPig.sol\":27390:27442  overMinTokenBalance &&... */\n      dup1\n      iszero\n      tag_340\n      jumpi\n      pop\n        /* \"contracts/Pool/PoolPig.sol\":27426:27442  inSwapAndLiquify */\n      0x12\n      0x00\n      swap1\n      sload\n      swap1\n      0x0100\n      exp\n      swap1\n      div\n      0xff\n      and\n        /* \"contracts/Pool/PoolPig.sol\":27425:27442  !inSwapAndLiquify */\n      iszero\n        /* \"contracts/Pool/PoolPig.sol\":27390:27442  overMinTokenBalance &&... */\n    tag_340:\n        /* \"contracts/Pool/PoolPig.sol\":27390:27479  overMinTokenBalance &&... */\n      dup1\n      iszero\n      tag_341\n      jumpi\n      pop\n        /* \"contracts/Pool/PoolPig.sol\":27466:27479  uniswapV2Pair */\n      immutable(\"0x924caa65d1644bcda3c737cb4f972c9170b1e3eb26b1eeba5090c589a3beb7a4\")\n        /* \"contracts/Pool/PoolPig.sol\":27458:27479  from != uniswapV2Pair */\n      0xffffffffffffffffffffffffffffffffffffffff\n      and\n        /* \"contracts/Pool/PoolPig.sol\":27458:27462  from */\n      dup6\n        /* \"contracts/Pool/PoolPig.sol\":27458:27479  from != uniswapV2Pair */\n      0xffffffffffffffffffffffffffffffffffffffff\n      and\n      eq\n      iszero\n        /* \"contracts/Pool/PoolPig.sol\":27390:27479  overMinTokenBalance &&... */\n    tag_341:\n        /* \"contracts/Pool/PoolPig.sol\":27390:27516  overMinTokenBalance &&... */\n      dup1\n      iszero\n      tag_342\n      jumpi\n      pop\n        /* \"contracts/Pool/PoolPig.sol\":27495:27516  swapAndLiquifyEnabled */\n      0x12\n      0x01\n      swap1\n      sload\n      swap1\n      0x0100\n      exp\n      swap1\n      div\n      0xff\n      and\n        /* \"contracts/Pool/PoolPig.sol\":27390:27516  overMinTokenBalance &&... */\n    tag_342:\n        /* \"contracts/Pool/PoolPig.sol\":27373:27682  if (... */\n      iszero\n      tag_343\n      jumpi\n        /* \"contracts/Pool/PoolPig.sol\":27564:27593  numTokensSellToAddToLiquidity */\n      sload(0x14)\n        /* \"contracts/Pool/PoolPig.sol\":27541:27593  contractTokenBalance = numTokensSellToAddToLiquidity */\n      swap2\n      pop\n        /* \"contracts/Pool/PoolPig.sol\":27635:27671  swapAndLiquify(contractTokenBalance) */\n      tag_344\n        /* \"contracts/Pool/PoolPig.sol\":27650:27670  contractTokenBalance */\n      dup3\n        /* \"contracts/Pool/PoolPig.sol\":27635:27649  swapAndLiquify */\n      tag_345\n        /* \"contracts/Pool/PoolPig.sol\":27635:27671  swapAndLiquify(contractTokenBalance) */\n      jump\t// in\n    tag_344:\n        /* \"contracts/Pool/PoolPig.sol\":27373:27682  if (... */\n    tag_343:\n        /* \"contracts/Pool/PoolPig.sol\":27760:27772  bool takeFee */\n      0x00\n        /* \"contracts/Pool/PoolPig.sol\":27775:27779  true */\n      0x01\n        /* \"contracts/Pool/PoolPig.sol\":27760:27779  bool takeFee = true */\n      swap1\n      pop\n        /* \"contracts/Pool/PoolPig.sol\":27884:27902  _isExcludedFromFee */\n      0x06\n        /* \"contracts/Pool/PoolPig.sol\":27884:27908  _isExcludedFromFee[from] */\n      0x00\n        /* \"contracts/Pool/PoolPig.sol\":27903:27907  from */\n      dup8\n        /* \"contracts/Pool/PoolPig.sol\":27884:27908  _isExcludedFromFee[from] */\n      0xffffffffffffffffffffffffffffffffffffffff\n      and\n      0xffffffffffffffffffffffffffffffffffffffff\n      and\n      dup2\n      mstore\n      0x20\n      add\n      swap1\n      dup2\n      mstore\n      0x20\n      add\n      0x00\n      keccak256\n      0x00\n      swap1\n      sload\n      swap1\n      0x0100\n      exp\n      swap1\n      div\n      0xff\n      and\n        /* \"contracts/Pool/PoolPig.sol\":27884:27934  _isExcludedFromFee[from] || _isExcludedFromFee[to] */\n      dup1\n      tag_346\n      jumpi\n      pop\n        /* \"contracts/Pool/PoolPig.sol\":27912:27930  _isExcludedFromFee */\n      0x06\n        /* \"contracts/Pool/PoolPig.sol\":27912:27934  _isExcludedFromFee[to] */\n      0x00\n        /* \"contracts/Pool/PoolPig.sol\":27931:27933  to */\n      dup7\n        /* \"contracts/Pool/PoolPig.sol\":27912:27934  _isExcludedFromFee[to] */\n      0xffffffffffffffffffffffffffffffffffffffff\n      and\n      0xffffffffffffffffffffffffffffffffffffffff\n      and\n      dup2\n      mstore\n      0x20\n      add\n      swap1\n      dup2\n      mstore\n      0x20\n      add\n      0x00\n      keccak256\n      0x00\n      swap1\n      sload\n      swap1\n      0x0100\n      exp\n      swap1\n      div\n      0xff\n      and\n        /* \"contracts/Pool/PoolPig.sol\":27884:27934  _isExcludedFromFee[from] || _isExcludedFromFee[to] */\n    tag_346:\n        /* \"contracts/Pool/PoolPig.sol\":27881:27975  if(_isExcludedFromFee[from] || _isExcludedFromFee[to]){... */\n      iszero\n      tag_347\n      jumpi\n        /* \"contracts/Pool/PoolPig.sol\":27959:27964  false */\n      0x00\n        /* \"contracts/Pool/PoolPig.sol\":27949:27964  takeFee = false */\n      swap1\n      pop\n        /* \"contracts/Pool/PoolPig.sol\":27881:27975  if(_isExcludedFromFee[from] || _isExcludedFromFee[to]){... */\n    tag_347:\n        /* \"contracts/Pool/PoolPig.sol\":28058:28096  _tokenTransfer(from,to,amount,takeFee) */\n      tag_348\n        /* \"contracts/Pool/PoolPig.sol\":28073:28077  from */\n      dup7\n        /* \"contracts/Pool/PoolPig.sol\":28078:28080  to */\n      dup7\n        /* \"contracts/Pool/PoolPig.sol\":28081:28087  amount */\n      dup7\n        /* \"contracts/Pool/PoolPig.sol\":28088:28095  takeFee */\n      dup5\n        /* \"contracts/Pool/PoolPig.sol\":28058:28072  _tokenTransfer */\n      tag_349\n        /* \"contracts/Pool/PoolPig.sol\":28058:28096  _tokenTransfer(from,to,amount,takeFee) */\n      jump\t// in\n    tag_348:\n        /* \"contracts/Pool/PoolPig.sol\":26612:28103  function _transfer(... */\n      pop\n      pop\n      pop\n      pop\n      pop\n      pop\n      jump\t// out\n        /* \"contracts/Pool/PoolPig.sol\":1073:1260  function sub(uint256 a, uint256 b, string memory errorMessage) internal pure returns (uint256) {... */\n    tag_212:\n        /* \"contracts/Pool/PoolPig.sol\":1159:1166  uint256 */\n      0x00\n        /* \"contracts/Pool/PoolPig.sol\":1191:1192  a */\n      dup4\n        /* \"contracts/Pool/PoolPig.sol\":1186:1187  b */\n      dup4\n        /* \"contracts/Pool/PoolPig.sol\":1186:1192  b <= a */\n      gt\n      iszero\n        /* \"contracts/Pool/PoolPig.sol\":1194:1206  errorMessage */\n      dup3\n        /* \"contracts/Pool/PoolPig.sol\":1178:1207  require(b <= a, errorMessage) */\n      swap1\n      tag_351\n      jumpi\n      mload(0x40)\n      0x08c379a000000000000000000000000000000000000000000000000000000000\n      dup2\n      mstore\n      0x04\n      add\n      dup1\n      dup1\n      0x20\n      add\n      dup3\n      dup2\n      sub\n      dup3\n      mstore\n      dup4\n      dup2\n      dup2\n      mload\n      dup2\n      mstore\n      0x20\n      add\n      swap2\n      pop\n      dup1\n      mload\n      swap1\n      0x20\n      add\n      swap1\n      dup1\n      dup4\n      dup4\n      0x00\n    tag_352:\n      dup4\n      dup2\n      lt\n      iszero\n      tag_354\n      jumpi\n      dup1\n      dup3\n      add\n      mload\n      dup2\n      dup5\n      add\n      mstore\n      0x20\n      dup2\n      add\n      swap1\n      pop\n      jump(tag_352)\n    tag_354:\n      pop\n      pop\n      pop\n      pop\n      swap1\n      pop\n      swap1\n      dup2\n      add\n      swap1\n      0x1f\n      and\n      dup1\n      iszero\n      tag_355\n      jumpi\n      dup1\n      dup3\n      sub\n      dup1\n      mload\n      0x01\n      dup4\n      0x20\n      sub\n      0x0100\n      exp\n      sub\n      not\n      and\n      dup2\n      mstore\n      0x20\n      add\n      swap2\n      pop\n    tag_355:\n      pop\n      swap3\n      pop\n      pop\n      pop\n      mload(0x40)\n      dup1\n      swap2\n      sub\n      swap1\n      revert\n    tag_351:\n      pop\n        /* \"contracts/Pool/PoolPig.sol\":1217:1226  uint256 c */\n      0x00\n        /* \"contracts/Pool/PoolPig.sol\":1233:1234  b */\n      dup4\n        /* \"contracts/Pool/PoolPig.sol\":1229:1230  a */\n      dup6\n        /* \"contracts/Pool/PoolPig.sol\":1229:1234  a - b */\n      sub\n        /* \"contracts/Pool/PoolPig.sol\":1217:1234  uint256 c = a - b */\n      swap1\n      pop\n        /* \"contracts/Pool/PoolPig.sol\":1252:1253  c */\n      dup1\n        /* \"contracts/Pool/PoolPig.sol\":1245:1253  return c */\n      swap2\n      pop\n      pop\n        /* \"contracts/Pool/PoolPig.sol\":1073:1260  function sub(uint256 a, uint256 b, string memory errorMessage) internal pure returns (uint256) {... */\n      swap4\n      swap3\n      pop\n      pop\n      pop\n      jump\t// out\n        /* \"contracts/Pool/PoolPig.sol\":24350:24510  function _getRate() private view returns(uint256) {... */\n    tag_216:\n        /* \"contracts/Pool/PoolPig.sol\":24391:24398  uint256 */\n      0x00\n        /* \"contracts/Pool/PoolPig.sol\":24411:24426  uint256 rSupply */\n      dup1\n        /* \"contracts/Pool/PoolPig.sol\":24428:24443  uint256 tSupply */\n      0x00\n        /* \"contracts/Pool/PoolPig.sol\":24447:24466  _getCurrentSupply() */\n      tag_357\n        /* \"contracts/Pool/PoolPig.sol\":24447:24464  _getCurrentSupply */\n      tag_358\n        /* \"contracts/Pool/PoolPig.sol\":24447:24466  _getCurrentSupply() */\n      jump\t// in\n    tag_357:\n        /* \"contracts/Pool/PoolPig.sol\":24410:24466  (uint256 rSupply, uint256 tSupply) = _getCurrentSupply() */\n      swap2\n      pop\n      swap2\n      pop\n        /* \"contracts/Pool/PoolPig.sol\":24483:24503  rSupply.div(tSupply) */\n      tag_359\n        /* \"contracts/Pool/PoolPig.sol\":24495:24502  tSupply */\n      dup2\n        /* \"contracts/Pool/PoolPig.sol\":24483:24490  rSupply */\n      dup4\n        /* \"contracts/Pool/PoolPig.sol\":24483:24494  rSupply.div */\n      tag_218\n      swap1\n        /* \"contracts/Pool/PoolPig.sol\":24483:24503  rSupply.div(tSupply) */\n      swap2\n      swap1\n      0xffffffff\n      and\n      jump\t// in\n    tag_359:\n        /* \"contracts/Pool/PoolPig.sol\":24476:24503  return rSupply.div(tSupply) */\n      swap3\n      pop\n      pop\n      pop\n        /* \"contracts/Pool/PoolPig.sol\":24350:24510  function _getRate() private view returns(uint256) {... */\n      swap1\n      jump\t// out\n        /* \"contracts/Pool/PoolPig.sol\":1511:1641  function div(uint256 a, uint256 b) internal pure returns (uint256) {... */\n    tag_218:\n        /* \"contracts/Pool/PoolPig.sol\":1569:1576  uint256 */\n      0x00\n        /* \"contracts/Pool/PoolPig.sol\":1595:1634  div(a, b, \"SafeMath: division by zero\") */\n      tag_361\n        /* \"contracts/Pool/PoolPig.sol\":1599:1600  a */\n      dup4\n        /* \"contracts/Pool/PoolPig.sol\":1602:1603  b */\n      dup4\n        /* \"contracts/Pool/PoolPig.sol\":1595:1634  div(a, b, \"SafeMath: division by zero\") */\n      mload(0x40)\n      dup1\n      0x40\n      add\n      0x40\n      mstore\n      dup1\n      0x1a\n      dup2\n      mstore\n      0x20\n      add\n      0x536166654d6174683a206469766973696f6e206279207a65726f000000000000\n      dup2\n      mstore\n      pop\n        /* \"contracts/Pool/PoolPig.sol\":1595:1598  div */\n      tag_362\n        /* \"contracts/Pool/PoolPig.sol\":1595:1634  div(a, b, \"SafeMath: division by zero\") */\n      jump\t// in\n    tag_361:\n        /* \"contracts/Pool/PoolPig.sol\":1588:1634  return div(a, b, \"SafeMath: division by zero\") */\n      swap1\n      pop\n        /* \"contracts/Pool/PoolPig.sol\":1511:1641  function div(uint256 a, uint256 b) internal pure returns (uint256) {... */\n      swap3\n      swap2\n      pop\n      pop\n      jump\t// out\n        /* \"contracts/Pool/PoolPig.sol\":753:929  function add(uint256 a, uint256 b) internal pure returns (uint256) {... */\n    tag_242:\n        /* \"contracts/Pool/PoolPig.sol\":811:818  uint256 */\n      0x00\n        /* \"contracts/Pool/PoolPig.sol\":830:839  uint256 c */\n      dup1\n        /* \"contracts/Pool/PoolPig.sol\":846:847  b */\n      dup3\n        /* \"contracts/Pool/PoolPig.sol\":842:843  a */\n      dup5\n        /* \"contracts/Pool/PoolPig.sol\":842:847  a + b */\n      add\n        /* \"contracts/Pool/PoolPig.sol\":830:847  uint256 c = a + b */\n      swap1\n      pop\n        /* \"contracts/Pool/PoolPig.sol\":870:871  a */\n      dup4\n        /* \"contracts/Pool/PoolPig.sol\":865:866  c */\n      dup2\n        /* \"contracts/Pool/PoolPig.sol\":865:871  c >= a */\n      lt\n      iszero\n        /* \"contracts/Pool/PoolPig.sol\":857:903  require(c >= a, \"SafeMath: addition overflow\") */\n      tag_364\n      jumpi\n      mload(0x40)\n      0x08c379a000000000000000000000000000000000000000000000000000000000\n      dup2\n      mstore\n      0x04\n      add\n      dup1\n      dup1\n      0x20\n      add\n      dup3\n      dup2\n      sub\n      dup3\n      mstore\n      0x1b\n      dup2\n      mstore\n      0x20\n      add\n      dup1\n      0x536166654d6174683a206164646974696f6e206f766572666c6f770000000000\n      dup2\n      mstore\n      pop\n      0x20\n      add\n      swap2\n      pop\n      pop\n      mload(0x40)\n      dup1\n      swap2\n      sub\n      swap1\n      revert\n    tag_364:\n        /* \"contracts/Pool/PoolPig.sol\":921:922  c */\n      dup1\n        /* \"contracts/Pool/PoolPig.sol\":914:922  return c */\n      swap2\n      pop\n      pop\n        /* \"contracts/Pool/PoolPig.sol\":753:929  function add(uint256 a, uint256 b) internal pure returns (uint256) {... */\n      swap3\n      swap2\n      pop\n      pop\n      jump\t// out\n        /* \"contracts/Pool/PoolPig.sol\":23169:23584  function _getValues(uint256 tAmount) private view returns (uint256, uint256, uint256, uint256, uint256, uint256) {... */\n    tag_247:\n        /* \"contracts/Pool/PoolPig.sol\":23228:23235  uint256 */\n      0x00\n        /* \"contracts/Pool/PoolPig.sol\":23237:23244  uint256 */\n      dup1\n        /* \"contracts/Pool/PoolPig.sol\":23246:23253  uint256 */\n      0x00\n        /* \"contracts/Pool/PoolPig.sol\":23255:23262  uint256 */\n      dup1\n        /* \"contracts/Pool/PoolPig.sol\":23264:23271  uint256 */\n      0x00\n        /* \"contracts/Pool/PoolPig.sol\":23273:23280  uint256 */\n      dup1\n        /* \"contracts/Pool/PoolPig.sol\":23293:23316  uint256 tTransferAmount */\n      0x00\n        /* \"contracts/Pool/PoolPig.sol\":23318:23330  uint256 tFee */\n      dup1\n        /* \"contracts/Pool/PoolPig.sol\":23332:23350  uint256 tLiquidity */\n      0x00\n        /* \"contracts/Pool/PoolPig.sol\":23354:23374  _getTValues(tAmount) */\n      tag_366\n        /* \"contracts/Pool/PoolPig.sol\":23366:23373  tAmount */\n      dup11\n        /* \"contracts/Pool/PoolPig.sol\":23354:23365  _getTValues */\n      tag_367\n        /* \"contracts/Pool/PoolPig.sol\":23354:23374  _getTValues(tAmount) */\n      jump\t// in\n    tag_366:\n        /* \"contracts/Pool/PoolPig.sol\":23292:23374  (uint256 tTransferAmount, uint256 tFee, uint256 tLiquidity) = _getTValues(tAmount) */\n      swap3\n      pop\n      swap3\n      pop\n      swap3\n      pop\n        /* \"contracts/Pool/PoolPig.sol\":23385:23400  uint256 rAmount */\n      0x00\n        /* \"contracts/Pool/PoolPig.sol\":23402:23425  uint256 rTransferAmount */\n      dup1\n        /* \"contracts/Pool/PoolPig.sol\":23427:23439  uint256 rFee */\n      0x00\n        /* \"contracts/Pool/PoolPig.sol\":23443:23493  _getRValues(tAmount, tFee, tLiquidity, _getRate()) */\n      tag_368\n        /* \"contracts/Pool/PoolPig.sol\":23455:23462  tAmount */\n      dup14\n        /* \"contracts/Pool/PoolPig.sol\":23464:23468  tFee */\n      dup7\n        /* \"contracts/Pool/PoolPig.sol\":23470:23480  tLiquidity */\n      dup7\n        /* \"contracts/Pool/PoolPig.sol\":23482:23492  _getRate() */\n      tag_369\n        /* \"contracts/Pool/PoolPig.sol\":23482:23490  _getRate */\n      tag_216\n        /* \"contracts/Pool/PoolPig.sol\":23482:23492  _getRate() */\n      jump\t// in\n    tag_369:\n        /* \"contracts/Pool/PoolPig.sol\":23443:23454  _getRValues */\n      tag_370\n        /* \"contracts/Pool/PoolPig.sol\":23443:23493  _getRValues(tAmount, tFee, tLiquidity, _getRate()) */\n      jump\t// in\n    tag_368:\n        /* \"contracts/Pool/PoolPig.sol\":23384:23493  (uint256 rAmount, uint256 rTransferAmount, uint256 rFee) = _getRValues(tAmount, tFee, tLiquidity, _getRate()) */\n      swap3\n      pop\n      swap3\n      pop\n      swap3\n      pop\n        /* \"contracts/Pool/PoolPig.sol\":23511:23518  rAmount */\n      dup3\n        /* \"contracts/Pool/PoolPig.sol\":23520:23535  rTransferAmount */\n      dup3\n        /* \"contracts/Pool/PoolPig.sol\":23537:23541  rFee */\n      dup3\n        /* \"contracts/Pool/PoolPig.sol\":23543:23558  tTransferAmount */\n      dup9\n        /* \"contracts/Pool/PoolPig.sol\":23560:23564  tFee */\n      dup9\n        /* \"contracts/Pool/PoolPig.sol\":23566:23576  tLiquidity */\n      dup9\n        /* \"contracts/Pool/PoolPig.sol\":23503:23577  return (rAmount, rTransferAmount, rFee, tTransferAmount, tFee, tLiquidity) */\n      swap12\n      pop\n      swap12\n      pop\n      swap12\n      pop\n      swap12\n      pop\n      swap12\n      pop\n      swap12\n      pop\n      pop\n      pop\n      pop\n      pop\n      pop\n      pop\n        /* \"contracts/Pool/PoolPig.sol\":23169:23584  function _getValues(uint256 tAmount) private view returns (uint256, uint256, uint256, uint256, uint256, uint256) {... */\n      swap2\n      swap4\n      swap6\n      pop\n      swap2\n      swap4\n      swap6\n      jump\t// out\n        /* \"contracts/Pool/PoolPig.sol\":934:1068  function sub(uint256 a, uint256 b) internal pure returns (uint256) {... */\n    tag_249:\n        /* \"contracts/Pool/PoolPig.sol\":992:999  uint256 */\n      0x00\n        /* \"contracts/Pool/PoolPig.sol\":1018:1061  sub(a, b, \"SafeMath: subtraction overflow\") */\n      tag_372\n        /* \"contracts/Pool/PoolPig.sol\":1022:1023  a */\n      dup4\n        /* \"contracts/Pool/PoolPig.sol\":1025:1026  b */\n      dup4\n        /* \"contracts/Pool/PoolPig.sol\":1018:1061  sub(a, b, \"SafeMath: subtraction overflow\") */\n      mload(0x40)\n      dup1\n      0x40\n      add\n      0x40\n      mstore\n      dup1\n      0x1e\n      dup2\n      mstore\n      0x20\n      add\n      0x536166654d6174683a207375627472616374696f6e206f766572666c6f770000\n      dup2\n      mstore\n      pop\n        /* \"contracts/Pool/PoolPig.sol\":1018:1021  sub */\n      tag_212\n        /* \"contracts/Pool/PoolPig.sol\":1018:1061  sub(a, b, \"SafeMath: subtraction overflow\") */\n      jump\t// in\n    tag_372:\n        /* \"contracts/Pool/PoolPig.sol\":1011:1061  return sub(a, b, \"SafeMath: subtraction overflow\") */\n      swap1\n      pop\n        /* \"contracts/Pool/PoolPig.sol\":934:1068  function sub(uint256 a, uint256 b) internal pure returns (uint256) {... */\n      swap3\n      swap2\n      pop\n      pop\n      jump\t// out\n        /* \"contracts/Pool/PoolPig.sol\":1265:1506  function mul(uint256 a, uint256 b) internal pure returns (uint256) {... */\n    tag_310:\n        /* \"contracts/Pool/PoolPig.sol\":1323:1330  uint256 */\n      0x00\n        /* \"contracts/Pool/PoolPig.sol\":1351:1352  0 */\n      dup1\n        /* \"contracts/Pool/PoolPig.sol\":1346:1347  a */\n      dup4\n        /* \"contracts/Pool/PoolPig.sol\":1346:1352  a == 0 */\n      eq\n        /* \"contracts/Pool/PoolPig.sol\":1342:1387  if (a == 0) {... */\n      iszero\n      tag_374\n      jumpi\n        /* \"contracts/Pool/PoolPig.sol\":1375:1376  0 */\n      0x00\n        /* \"contracts/Pool/PoolPig.sol\":1368:1376  return 0 */\n      swap1\n      pop\n      jump(tag_373)\n        /* \"contracts/Pool/PoolPig.sol\":1342:1387  if (a == 0) {... */\n    tag_374:\n        /* \"contracts/Pool/PoolPig.sol\":1397:1406  uint256 c */\n      0x00\n        /* \"contracts/Pool/PoolPig.sol\":1413:1414  b */\n      dup3\n        /* \"contracts/Pool/PoolPig.sol\":1409:1410  a */\n      dup5\n        /* \"contracts/Pool/PoolPig.sol\":1409:1414  a * b */\n      mul\n        /* \"contracts/Pool/PoolPig.sol\":1397:1414  uint256 c = a * b */\n      swap1\n      pop\n        /* \"contracts/Pool/PoolPig.sol\":1441:1442  b */\n      dup3\n        /* \"contracts/Pool/PoolPig.sol\":1436:1437  a */\n      dup5\n        /* \"contracts/Pool/PoolPig.sol\":1432:1433  c */\n      dup3\n        /* \"contracts/Pool/PoolPig.sol\":1432:1437  c / a */\n      dup2\n      tag_375\n      jumpi\n      invalid\n    tag_375:\n      div\n        /* \"contracts/Pool/PoolPig.sol\":1432:1442  c / a == b */\n      eq\n        /* \"contracts/Pool/PoolPig.sol\":1424:1480  require(c / a == b, \"SafeMath: multiplication overflow\") */\n      tag_376\n      jumpi\n      mload(0x40)\n      0x08c379a000000000000000000000000000000000000000000000000000000000\n      dup2\n      mstore\n      0x04\n      add\n      dup1\n      dup1\n      0x20\n      add\n      dup3\n      dup2\n      sub\n      dup3\n      mstore\n      0x21\n      dup2\n      mstore\n      0x20\n      add\n      dup1\n      data_9113bb53c2876a3805b2c9242029423fc540a728243ce887ab24c82cf119fba3\n      0x21\n      swap2\n      codecopy\n      0x40\n      add\n      swap2\n      pop\n      pop\n      mload(0x40)\n      dup1\n      swap2\n      sub\n      swap1\n      revert\n    tag_376:\n        /* \"contracts/Pool/PoolPig.sol\":1498:1499  c */\n      dup1\n        /* \"contracts/Pool/PoolPig.sol\":1491:1499  return c */\n      swap2\n      pop\n      pop\n        /* \"contracts/Pool/PoolPig.sol\":1265:1506  function mul(uint256 a, uint256 b) internal pure returns (uint256) {... */\n    tag_373:\n      swap3\n      swap2\n      pop\n      pop\n      jump\t// out\n        /* \"contracts/Pool/PoolPig.sol\":28109:29074  function swapAndLiquify(uint256 contractTokenBalance) private lockTheSwap {... */\n    tag_345:\n        /* \"contracts/Pool/PoolPig.sol\":16682:16686  true */\n      0x01\n        /* \"contracts/Pool/PoolPig.sol\":16663:16679  inSwapAndLiquify */\n      0x12\n      0x00\n        /* \"contracts/Pool/PoolPig.sol\":16663:16686  inSwapAndLiquify = true */\n      0x0100\n      exp\n      dup2\n      sload\n      dup2\n      0xff\n      mul\n      not\n      and\n      swap1\n      dup4\n      iszero\n      iszero\n      mul\n      or\n      swap1\n      sstore\n      pop\n        /* \"contracts/Pool/PoolPig.sol\":28243:28255  uint256 half */\n      0x00\n        /* \"contracts/Pool/PoolPig.sol\":28258:28285  contractTokenBalance.div(2) */\n      tag_379\n        /* \"contracts/Pool/PoolPig.sol\":28283:28284  2 */\n      0x02\n        /* \"contracts/Pool/PoolPig.sol\":28258:28278  contractTokenBalance */\n      dup4\n        /* \"contracts/Pool/PoolPig.sol\":28258:28282  contractTokenBalance.div */\n      tag_218\n      swap1\n        /* \"contracts/Pool/PoolPig.sol\":28258:28285  contractTokenBalance.div(2) */\n      swap2\n      swap1\n      0xffffffff\n      and\n      jump\t// in\n    tag_379:\n        /* \"contracts/Pool/PoolPig.sol\":28243:28285  uint256 half = contractTokenBalance.div(2) */\n      swap1\n      pop\n        /* \"contracts/Pool/PoolPig.sol\":28295:28312  uint256 otherHalf */\n      0x00\n        /* \"contracts/Pool/PoolPig.sol\":28315:28345  contractTokenBalance.sub(half) */\n      tag_380\n        /* \"contracts/Pool/PoolPig.sol\":28340:28344  half */\n      dup3\n        /* \"contracts/Pool/PoolPig.sol\":28315:28335  contractTokenBalance */\n      dup5\n        /* \"contracts/Pool/PoolPig.sol\":28315:28339  contractTokenBalance.sub */\n      tag_249\n      swap1\n        /* \"contracts/Pool/PoolPig.sol\":28315:28345  contractTokenBalance.sub(half) */\n      swap2\n      swap1\n      0xffffffff\n      and\n      jump\t// in\n    tag_380:\n        /* \"contracts/Pool/PoolPig.sol\":28295:28345  uint256 otherHalf = contractTokenBalance.sub(half) */\n      swap1\n      pop\n        /* \"contracts/Pool/PoolPig.sol\":28617:28639  uint256 initialBalance */\n      0x00\n        /* \"contracts/Pool/PoolPig.sol\":28642:28663  address(this).balance */\n      selfbalance\n        /* \"contracts/Pool/PoolPig.sol\":28617:28663  uint256 initialBalance = address(this).balance */\n      swap1\n      pop\n        /* \"contracts/Pool/PoolPig.sol\":28705:28727  swapTokensForEth(half) */\n      tag_381\n        /* \"contracts/Pool/PoolPig.sol\":28722:28726  half */\n      dup4\n        /* \"contracts/Pool/PoolPig.sol\":28705:28721  swapTokensForEth */\n      tag_382\n        /* \"contracts/Pool/PoolPig.sol\":28705:28727  swapTokensForEth(half) */\n      jump\t// in\n    tag_381:\n        /* \"contracts/Pool/PoolPig.sol\":28855:28873  uint256 newBalance */\n      0x00\n        /* \"contracts/Pool/PoolPig.sol\":28876:28917  address(this).balance.sub(initialBalance) */\n      tag_383\n        /* \"contracts/Pool/PoolPig.sol\":28902:28916  initialBalance */\n      dup3\n        /* \"contracts/Pool/PoolPig.sol\":28876:28897  address(this).balance */\n      selfbalance\n        /* \"contracts/Pool/PoolPig.sol\":28876:28901  address(this).balance.sub */\n      tag_249\n      swap1\n        /* \"contracts/Pool/PoolPig.sol\":28876:28917  address(this).balance.sub(initialBalance) */\n      swap2\n      swap1\n      0xffffffff\n      and\n      jump\t// in\n    tag_383:\n        /* \"contracts/Pool/PoolPig.sol\":28855:28917  uint256 newBalance = address(this).balance.sub(initialBalance) */\n      swap1\n      pop\n        /* \"contracts/Pool/PoolPig.sol\":28965:29000  addLiquidity(otherHalf, newBalance) */\n      tag_384\n        /* \"contracts/Pool/PoolPig.sol\":28978:28987  otherHalf */\n      dup4\n        /* \"contracts/Pool/PoolPig.sol\":28989:28999  newBalance */\n      dup3\n        /* \"contracts/Pool/PoolPig.sol\":28965:28977  addLiquidity */\n      tag_385\n        /* \"contracts/Pool/PoolPig.sol\":28965:29000  addLiquidity(otherHalf, newBalance) */\n      jump\t// in\n    tag_384:\n        /* \"contracts/Pool/PoolPig.sol\":29024:29067  SwapAndLiquify(half, newBalance, otherHalf) */\n      0x17bbfb9a6069321b6ded73bd96327c9e6b7212a5cd51ff219cd61370acafb561\n        /* \"contracts/Pool/PoolPig.sol\":29039:29043  half */\n      dup5\n        /* \"contracts/Pool/PoolPig.sol\":29045:29055  newBalance */\n      dup3\n        /* \"contracts/Pool/PoolPig.sol\":29057:29066  otherHalf */\n      dup6\n        /* \"contracts/Pool/PoolPig.sol\":29024:29067  SwapAndLiquify(half, newBalance, otherHalf) */\n      mload(0x40)\n      dup1\n      dup5\n      dup2\n      mstore\n      0x20\n      add\n      dup4\n      dup2\n      mstore\n      0x20\n      add\n      dup3\n      dup2\n      mstore\n      0x20\n      add\n      swap4\n      pop\n      pop\n      pop\n      pop\n      mload(0x40)\n      dup1\n      swap2\n      sub\n      swap1\n      log1\n        /* \"contracts/Pool/PoolPig.sol\":16696:16697  _ */\n      pop\n      pop\n      pop\n      pop\n        /* \"contracts/Pool/PoolPig.sol\":16726:16731  false */\n      0x00\n        /* \"contracts/Pool/PoolPig.sol\":16707:16723  inSwapAndLiquify */\n      0x12\n      0x00\n        /* \"contracts/Pool/PoolPig.sol\":16707:16731  inSwapAndLiquify = false */\n      0x0100\n      exp\n      dup2\n      sload\n      dup2\n      0xff\n      mul\n      not\n      and\n      swap1\n      dup4\n      iszero\n      iszero\n      mul\n      or\n      swap1\n      sstore\n      pop\n        /* \"contracts/Pool/PoolPig.sol\":28109:29074  function swapAndLiquify(uint256 contractTokenBalance) private lockTheSwap {... */\n      pop\n      jump\t// out\n        /* \"contracts/Pool/PoolPig.sol\":30237:31053  function _tokenTransfer(address sender, address recipient, uint256 amount,bool takeFee) private {... */\n    tag_349:\n        /* \"contracts/Pool/PoolPig.sol\":30347:30354  takeFee */\n      dup1\n        /* \"contracts/Pool/PoolPig.sol\":30343:30382  if(!takeFee)... */\n      tag_387\n      jumpi\n        /* \"contracts/Pool/PoolPig.sol\":30368:30382  removeAllFee() */\n      tag_388\n        /* \"contracts/Pool/PoolPig.sol\":30368:30380  removeAllFee */\n      tag_389\n        /* \"contracts/Pool/PoolPig.sol\":30368:30382  removeAllFee() */\n      jump\t// in\n    tag_388:\n        /* \"contracts/Pool/PoolPig.sol\":30343:30382  if(!takeFee)... */\n    tag_387:\n        /* \"contracts/Pool/PoolPig.sol\":30405:30416  _isExcluded */\n      0x07\n        /* \"contracts/Pool/PoolPig.sol\":30405:30424  _isExcluded[sender] */\n      0x00\n        /* \"contracts/Pool/PoolPig.sol\":30417:30423  sender */\n      dup6\n        /* \"contracts/Pool/PoolPig.sol\":30405:30424  _isExcluded[sender] */\n      0xffffffffffffffffffffffffffffffffffffffff\n      and\n      0xffffffffffffffffffffffffffffffffffffffff\n      and\n      dup2\n      mstore\n      0x20\n      add\n      swap1\n      dup2\n      mstore\n      0x20\n      add\n      0x00\n      keccak256\n      0x00\n      swap1\n      sload\n      swap1\n      0x0100\n      exp\n      swap1\n      div\n      0xff\n      and\n        /* \"contracts/Pool/PoolPig.sol\":30405:30451  _isExcluded[sender] && !_isExcluded[recipient] */\n      dup1\n      iszero\n      tag_390\n      jumpi\n      pop\n        /* \"contracts/Pool/PoolPig.sol\":30429:30440  _isExcluded */\n      0x07\n        /* \"contracts/Pool/PoolPig.sol\":30429:30451  _isExcluded[recipient] */\n      0x00\n        /* \"contracts/Pool/PoolPig.sol\":30441:30450  recipient */\n      dup5\n        /* \"contracts/Pool/PoolPig.sol\":30429:30451  _isExcluded[recipient] */\n      0xffffffffffffffffffffffffffffffffffffffff\n      and\n      0xffffffffffffffffffffffffffffffffffffffff\n      and\n      dup2\n      mstore\n      0x20\n      add\n      swap1\n      dup2\n      mstore\n      0x20\n      add\n      0x00\n      keccak256\n      0x00\n      swap1\n      sload\n      swap1\n      0x0100\n      exp\n      swap1\n      div\n      0xff\n      and\n        /* \"contracts/Pool/PoolPig.sol\":30428:30451  !_isExcluded[recipient] */\n      iszero\n        /* \"contracts/Pool/PoolPig.sol\":30405:30451  _isExcluded[sender] && !_isExcluded[recipient] */\n    tag_390:\n        /* \"contracts/Pool/PoolPig.sol\":30401:30988  if (_isExcluded[sender] && !_isExcluded[recipient]) {... */\n      iszero\n      tag_391\n      jumpi\n        /* \"contracts/Pool/PoolPig.sol\":30467:30515  _transferFromExcluded(sender, recipient, amount) */\n      tag_392\n        /* \"contracts/Pool/PoolPig.sol\":30489:30495  sender */\n      dup5\n        /* \"contracts/Pool/PoolPig.sol\":30497:30506  recipient */\n      dup5\n        /* \"contracts/Pool/PoolPig.sol\":30508:30514  amount */\n      dup5\n        /* \"contracts/Pool/PoolPig.sol\":30467:30488  _transferFromExcluded */\n      tag_393\n        /* \"contracts/Pool/PoolPig.sol\":30467:30515  _transferFromExcluded(sender, recipient, amount) */\n      jump\t// in\n    tag_392:\n        /* \"contracts/Pool/PoolPig.sol\":30401:30988  if (_isExcluded[sender] && !_isExcluded[recipient]) {... */\n      jump(tag_394)\n    tag_391:\n        /* \"contracts/Pool/PoolPig.sol\":30537:30548  _isExcluded */\n      0x07\n        /* \"contracts/Pool/PoolPig.sol\":30537:30556  _isExcluded[sender] */\n      0x00\n        /* \"contracts/Pool/PoolPig.sol\":30549:30555  sender */\n      dup6\n        /* \"contracts/Pool/PoolPig.sol\":30537:30556  _isExcluded[sender] */\n      0xffffffffffffffffffffffffffffffffffffffff\n      and\n      0xffffffffffffffffffffffffffffffffffffffff\n      and\n      dup2\n      mstore\n      0x20\n      add\n      swap1\n      dup2\n      mstore\n      0x20\n      add\n      0x00\n      keccak256\n      0x00\n      swap1\n      sload\n      swap1\n      0x0100\n      exp\n      swap1\n      div\n      0xff\n      and\n        /* \"contracts/Pool/PoolPig.sol\":30536:30556  !_isExcluded[sender] */\n      iszero\n        /* \"contracts/Pool/PoolPig.sol\":30536:30582  !_isExcluded[sender] && _isExcluded[recipient] */\n      dup1\n      iszero\n      tag_395\n      jumpi\n      pop\n        /* \"contracts/Pool/PoolPig.sol\":30560:30571  _isExcluded */\n      0x07\n        /* \"contracts/Pool/PoolPig.sol\":30560:30582  _isExcluded[recipient] */\n      0x00\n        /* \"contracts/Pool/PoolPig.sol\":30572:30581  recipient */\n      dup5\n        /* \"contracts/Pool/PoolPig.sol\":30560:30582  _isExcluded[recipient] */\n      0xffffffffffffffffffffffffffffffffffffffff\n      and\n      0xffffffffffffffffffffffffffffffffffffffff\n      and\n      dup2\n      mstore\n      0x20\n      add\n      swap1\n      dup2\n      mstore\n      0x20\n      add\n      0x00\n      keccak256\n      0x00\n      swap1\n      sload\n      swap1\n      0x0100\n      exp\n      swap1\n      div\n      0xff\n      and\n        /* \"contracts/Pool/PoolPig.sol\":30536:30582  !_isExcluded[sender] && _isExcluded[recipient] */\n    tag_395:\n        /* \"contracts/Pool/PoolPig.sol\":30532:30988  if (!_isExcluded[sender] && _isExcluded[recipient]) {... */\n      iszero\n      tag_396\n      jumpi\n        /* \"contracts/Pool/PoolPig.sol\":30598:30644  _transferToExcluded(sender, recipient, amount) */\n      tag_397\n        /* \"contracts/Pool/PoolPig.sol\":30618:30624  sender */\n      dup5\n        /* \"contracts/Pool/PoolPig.sol\":30626:30635  recipient */\n      dup5\n        /* \"contracts/Pool/PoolPig.sol\":30637:30643  amount */\n      dup5\n        /* \"contracts/Pool/PoolPig.sol\":30598:30617  _transferToExcluded */\n      tag_398\n        /* \"contracts/Pool/PoolPig.sol\":30598:30644  _transferToExcluded(sender, recipient, amount) */\n      jump\t// in\n    tag_397:\n        /* \"contracts/Pool/PoolPig.sol\":30532:30988  if (!_isExcluded[sender] && _isExcluded[recipient]) {... */\n      jump(tag_399)\n    tag_396:\n        /* \"contracts/Pool/PoolPig.sol\":30666:30677  _isExcluded */\n      0x07\n        /* \"contracts/Pool/PoolPig.sol\":30666:30685  _isExcluded[sender] */\n      0x00\n        /* \"contracts/Pool/PoolPig.sol\":30678:30684  sender */\n      dup6\n        /* \"contracts/Pool/PoolPig.sol\":30666:30685  _isExcluded[sender] */\n      0xffffffffffffffffffffffffffffffffffffffff\n      and\n      0xffffffffffffffffffffffffffffffffffffffff\n      and\n      dup2\n      mstore\n      0x20\n      add\n      swap1\n      dup2\n      mstore\n      0x20\n      add\n      0x00\n      keccak256\n      0x00\n      swap1\n      sload\n      swap1\n      0x0100\n      exp\n      swap1\n      div\n      0xff\n      and\n        /* \"contracts/Pool/PoolPig.sol\":30665:30685  !_isExcluded[sender] */\n      iszero\n        /* \"contracts/Pool/PoolPig.sol\":30665:30712  !_isExcluded[sender] && !_isExcluded[recipient] */\n      dup1\n      iszero\n      tag_400\n      jumpi\n      pop\n        /* \"contracts/Pool/PoolPig.sol\":30690:30701  _isExcluded */\n      0x07\n        /* \"contracts/Pool/PoolPig.sol\":30690:30712  _isExcluded[recipient] */\n      0x00\n        /* \"contracts/Pool/PoolPig.sol\":30702:30711  recipient */\n      dup5\n        /* \"contracts/Pool/PoolPig.sol\":30690:30712  _isExcluded[recipient] */\n      0xffffffffffffffffffffffffffffffffffffffff\n      and\n      0xffffffffffffffffffffffffffffffffffffffff\n      and\n      dup2\n      mstore\n      0x20\n      add\n      swap1\n      dup2\n      mstore\n      0x20\n      add\n      0x00\n      keccak256\n      0x00\n      swap1\n      sload\n      swap1\n      0x0100\n      exp\n      swap1\n      div\n      0xff\n      and\n        /* \"contracts/Pool/PoolPig.sol\":30689:30712  !_isExcluded[recipient] */\n      iszero\n        /* \"contracts/Pool/PoolPig.sol\":30665:30712  !_isExcluded[sender] && !_isExcluded[recipient] */\n    tag_400:\n        /* \"contracts/Pool/PoolPig.sol\":30661:30988  if (!_isExcluded[sender] && !_isExcluded[recipient]) {... */\n      iszero\n      tag_401\n      jumpi\n        /* \"contracts/Pool/PoolPig.sol\":30728:30772  _transferStandard(sender, recipient, amount) */\n      tag_402\n        /* \"contracts/Pool/PoolPig.sol\":30746:30752  sender */\n      dup5\n        /* \"contracts/Pool/PoolPig.sol\":30754:30763  recipient */\n      dup5\n        /* \"contracts/Pool/PoolPig.sol\":30765:30771  amount */\n      dup5\n        /* \"contracts/Pool/PoolPig.sol\":30728:30745  _transferStandard */\n      tag_403\n        /* \"contracts/Pool/PoolPig.sol\":30728:30772  _transferStandard(sender, recipient, amount) */\n      jump\t// in\n    tag_402:\n        /* \"contracts/Pool/PoolPig.sol\":30661:30988  if (!_isExcluded[sender] && !_isExcluded[recipient]) {... */\n      jump(tag_404)\n    tag_401:\n        /* \"contracts/Pool/PoolPig.sol\":30793:30804  _isExcluded */\n      0x07\n        /* \"contracts/Pool/PoolPig.sol\":30793:30812  _isExcluded[sender] */\n      0x00\n        /* \"contracts/Pool/PoolPig.sol\":30805:30811  sender */\n      dup6\n        /* \"contracts/Pool/PoolPig.sol\":30793:30812  _isExcluded[sender] */\n      0xffffffffffffffffffffffffffffffffffffffff\n      and\n      0xffffffffffffffffffffffffffffffffffffffff\n      and\n      dup2\n      mstore\n      0x20\n      add\n      swap1\n      dup2\n      mstore\n      0x20\n      add\n      0x00\n      keccak256\n      0x00\n      swap1\n      sload\n      swap1\n      0x0100\n      exp\n      swap1\n      div\n      0xff\n      and\n        /* \"contracts/Pool/PoolPig.sol\":30793:30838  _isExcluded[sender] && _isExcluded[recipient] */\n      dup1\n      iszero\n      tag_405\n      jumpi\n      pop\n        /* \"contracts/Pool/PoolPig.sol\":30816:30827  _isExcluded */\n      0x07\n        /* \"contracts/Pool/PoolPig.sol\":30816:30838  _isExcluded[recipient] */\n      0x00\n        /* \"contracts/Pool/PoolPig.sol\":30828:30837  recipient */\n      dup5\n        /* \"contracts/Pool/PoolPig.sol\":30816:30838  _isExcluded[recipient] */\n      0xffffffffffffffffffffffffffffffffffffffff\n      and\n      0xffffffffffffffffffffffffffffffffffffffff\n      and\n      dup2\n      mstore\n      0x20\n      add\n      swap1\n      dup2\n      mstore\n      0x20\n      add\n      0x00\n      keccak256\n      0x00\n      swap1\n      sload\n      swap1\n      0x0100\n      exp\n      swap1\n      div\n      0xff\n      and\n        /* \"contracts/Pool/PoolPig.sol\":30793:30838  _isExcluded[sender] && _isExcluded[recipient] */\n    tag_405:\n        /* \"contracts/Pool/PoolPig.sol\":30789:30988  if (_isExcluded[sender] && _isExcluded[recipient]) {... */\n      iszero\n      tag_406\n      jumpi\n        /* \"contracts/Pool/PoolPig.sol\":30854:30902  _transferBothExcluded(sender, recipient, amount) */\n      tag_407\n        /* \"contracts/Pool/PoolPig.sol\":30876:30882  sender */\n      dup5\n        /* \"contracts/Pool/PoolPig.sol\":30884:30893  recipient */\n      dup5\n        /* \"contracts/Pool/PoolPig.sol\":30895:30901  amount */\n      dup5\n        /* \"contracts/Pool/PoolPig.sol\":30854:30875  _transferBothExcluded */\n      tag_408\n        /* \"contracts/Pool/PoolPig.sol\":30854:30902  _transferBothExcluded(sender, recipient, amount) */\n      jump\t// in\n    tag_407:\n        /* \"contracts/Pool/PoolPig.sol\":30789:30988  if (_isExcluded[sender] && _isExcluded[recipient]) {... */\n      jump(tag_409)\n    tag_406:\n        /* \"contracts/Pool/PoolPig.sol\":30933:30977  _transferStandard(sender, recipient, amount) */\n      tag_410\n        /* \"contracts/Pool/PoolPig.sol\":30951:30957  sender */\n      dup5\n        /* \"contracts/Pool/PoolPig.sol\":30959:30968  recipient */\n      dup5\n        /* \"contracts/Pool/PoolPig.sol\":30970:30976  amount */\n      dup5\n        /* \"contracts/Pool/PoolPig.sol\":30933:30950  _transferStandard */\n      tag_403\n        /* \"contracts/Pool/PoolPig.sol\":30933:30977  _transferStandard(sender, recipient, amount) */\n      jump\t// in\n    tag_410:\n        /* \"contracts/Pool/PoolPig.sol\":30789:30988  if (_isExcluded[sender] && _isExcluded[recipient]) {... */\n    tag_409:\n        /* \"contracts/Pool/PoolPig.sol\":30661:30988  if (!_isExcluded[sender] && !_isExcluded[recipient]) {... */\n    tag_404:\n        /* \"contracts/Pool/PoolPig.sol\":30532:30988  if (!_isExcluded[sender] && _isExcluded[recipient]) {... */\n    tag_399:\n        /* \"contracts/Pool/PoolPig.sol\":30401:30988  if (_isExcluded[sender] && !_isExcluded[recipient]) {... */\n    tag_394:\n        /* \"contracts/Pool/PoolPig.sol\":31010:31017  takeFee */\n      dup1\n        /* \"contracts/Pool/PoolPig.sol\":31006:31046  if(!takeFee)... */\n      tag_411\n      jumpi\n        /* \"contracts/Pool/PoolPig.sol\":31031:31046  restoreAllFee() */\n      tag_412\n        /* \"contracts/Pool/PoolPig.sol\":31031:31044  restoreAllFee */\n      tag_413\n        /* \"contracts/Pool/PoolPig.sol\":31031:31046  restoreAllFee() */\n      jump\t// in\n    tag_412:\n        /* \"contracts/Pool/PoolPig.sol\":31006:31046  if(!takeFee)... */\n    tag_411:\n        /* \"contracts/Pool/PoolPig.sol\":30237:31053  function _tokenTransfer(address sender, address recipient, uint256 amount,bool takeFee) private {... */\n      pop\n      pop\n      pop\n      pop\n      jump\t// out\n        /* \"contracts/Pool/PoolPig.sol\":24516:25067  function _getCurrentSupply() private view returns(uint256, uint256) {... */\n    tag_358:\n        /* \"contracts/Pool/PoolPig.sol\":24566:24573  uint256 */\n      0x00\n        /* \"contracts/Pool/PoolPig.sol\":24575:24582  uint256 */\n      dup1\n        /* \"contracts/Pool/PoolPig.sol\":24594:24609  uint256 rSupply */\n      0x00\n        /* \"contracts/Pool/PoolPig.sol\":24612:24619  _rTotal */\n      sload(0x09)\n        /* \"contracts/Pool/PoolPig.sol\":24594:24619  uint256 rSupply = _rTotal */\n      swap1\n      pop\n        /* \"contracts/Pool/PoolPig.sol\":24629:24644  uint256 tSupply */\n      0x00\n        /* \"contracts/Pool/PoolPig.sol\":15658:15676  1000000000 * 10**9 */\n      0x0de0b6b3a7640000\n        /* \"contracts/Pool/PoolPig.sol\":24629:24654  uint256 tSupply = _tTotal */\n      swap1\n      pop\n        /* \"contracts/Pool/PoolPig.sol\":24675:24684  uint256 i */\n      0x00\n        /* \"contracts/Pool/PoolPig.sol\":24670:24955  for (uint256 i = 0; i < _excluded.length; i++) {... */\n    tag_415:\n        /* \"contracts/Pool/PoolPig.sol\":24694:24703  _excluded */\n      0x08\n        /* \"contracts/Pool/PoolPig.sol\":24694:24710  _excluded.length */\n      dup1\n      sload\n      swap1\n      pop\n        /* \"contracts/Pool/PoolPig.sol\":24690:24691  i */\n      dup2\n        /* \"contracts/Pool/PoolPig.sol\":24690:24710  i < _excluded.length */\n      lt\n        /* \"contracts/Pool/PoolPig.sol\":24670:24955  for (uint256 i = 0; i < _excluded.length; i++) {... */\n      iszero\n      tag_416\n      jumpi\n        /* \"contracts/Pool/PoolPig.sol\":24759:24766  rSupply */\n      dup3\n        /* \"contracts/Pool/PoolPig.sol\":24735:24742  _rOwned */\n      0x03\n        /* \"contracts/Pool/PoolPig.sol\":24735:24756  _rOwned[_excluded[i]] */\n      0x00\n        /* \"contracts/Pool/PoolPig.sol\":24743:24752  _excluded */\n      0x08\n        /* \"contracts/Pool/PoolPig.sol\":24753:24754  i */\n      dup5\n        /* \"contracts/Pool/PoolPig.sol\":24743:24755  _excluded[i] */\n      dup2\n      sload\n      dup2\n      lt\n      tag_418\n      jumpi\n      invalid\n    tag_418:\n      swap1\n      0x00\n      mstore\n      keccak256(0x00, 0x20)\n      add\n      0x00\n      swap1\n      sload\n      swap1\n      0x0100\n      exp\n      swap1\n      div\n      0xffffffffffffffffffffffffffffffffffffffff\n      and\n        /* \"contracts/Pool/PoolPig.sol\":24735:24756  _rOwned[_excluded[i]] */\n      0xffffffffffffffffffffffffffffffffffffffff\n      and\n      0xffffffffffffffffffffffffffffffffffffffff\n      and\n      dup2\n      mstore\n      0x20\n      add\n      swap1\n      dup2\n      mstore\n      0x20\n      add\n      0x00\n      keccak256\n      sload\n        /* \"contracts/Pool/PoolPig.sol\":24735:24766  _rOwned[_excluded[i]] > rSupply */\n      gt\n        /* \"contracts/Pool/PoolPig.sol\":24735:24801  _rOwned[_excluded[i]] > rSupply || _tOwned[_excluded[i]] > tSupply */\n      dup1\n      tag_420\n      jumpi\n      pop\n        /* \"contracts/Pool/PoolPig.sol\":24794:24801  tSupply */\n      dup2\n        /* \"contracts/Pool/PoolPig.sol\":24770:24777  _tOwned */\n      0x04\n        /* \"contracts/Pool/PoolPig.sol\":24770:24791  _tOwned[_excluded[i]] */\n      0x00\n        /* \"contracts/Pool/PoolPig.sol\":24778:24787  _excluded */\n      0x08\n        /* \"contracts/Pool/PoolPig.sol\":24788:24789  i */\n      dup5\n        /* \"contracts/Pool/PoolPig.sol\":24778:24790  _excluded[i] */\n      dup2\n      sload\n      dup2\n      lt\n      tag_421\n      jumpi\n      invalid\n    tag_421:\n      swap1\n      0x00\n      mstore\n      keccak256(0x00, 0x20)\n      add\n      0x00\n      swap1\n      sload\n      swap1\n      0x0100\n      exp\n      swap1\n      div\n      0xffffffffffffffffffffffffffffffffffffffff\n      and\n        /* \"contracts/Pool/PoolPig.sol\":24770:24791  _tOwned[_excluded[i]] */\n      0xffffffffffffffffffffffffffffffffffffffff\n      and\n      0xffffffffffffffffffffffffffffffffffffffff\n      and\n      dup2\n      mstore\n      0x20\n      add\n      swap1\n      dup2\n      mstore\n      0x20\n      add\n      0x00\n      keccak256\n      sload\n        /* \"contracts/Pool/PoolPig.sol\":24770:24801  _tOwned[_excluded[i]] > tSupply */\n      gt\n        /* \"contracts/Pool/PoolPig.sol\":24735:24801  _rOwned[_excluded[i]] > rSupply || _tOwned[_excluded[i]] > tSupply */\n    tag_420:\n        /* \"contracts/Pool/PoolPig.sol\":24731:24828  if (_rOwned[_excluded[i]] > rSupply || _tOwned[_excluded[i]] > tSupply) return (_rTotal, _tTotal) */\n      iszero\n      tag_423\n      jumpi\n        /* \"contracts/Pool/PoolPig.sol\":24811:24818  _rTotal */\n      sload(0x09)\n        /* \"contracts/Pool/PoolPig.sol\":15658:15676  1000000000 * 10**9 */\n      0x0de0b6b3a7640000\n        /* \"contracts/Pool/PoolPig.sol\":24803:24828  return (_rTotal, _tTotal) */\n      swap5\n      pop\n      swap5\n      pop\n      pop\n      pop\n      pop\n      jump(tag_414)\n        /* \"contracts/Pool/PoolPig.sol\":24731:24828  if (_rOwned[_excluded[i]] > rSupply || _tOwned[_excluded[i]] > tSupply) return (_rTotal, _tTotal) */\n    tag_423:\n        /* \"contracts/Pool/PoolPig.sol\":24852:24886  rSupply.sub(_rOwned[_excluded[i]]) */\n      tag_424\n        /* \"contracts/Pool/PoolPig.sol\":24864:24871  _rOwned */\n      0x03\n        /* \"contracts/Pool/PoolPig.sol\":24864:24885  _rOwned[_excluded[i]] */\n      0x00\n        /* \"contracts/Pool/PoolPig.sol\":24872:24881  _excluded */\n      0x08\n        /* \"contracts/Pool/PoolPig.sol\":24882:24883  i */\n      dup5\n        /* \"contracts/Pool/PoolPig.sol\":24872:24884  _excluded[i] */\n      dup2\n      sload\n      dup2\n      lt\n      tag_425\n      jumpi\n      invalid\n    tag_425:\n      swap1\n      0x00\n      mstore\n      keccak256(0x00, 0x20)\n      add\n      0x00\n      swap1\n      sload\n      swap1\n      0x0100\n      exp\n      swap1\n      div\n      0xffffffffffffffffffffffffffffffffffffffff\n      and\n        /* \"contracts/Pool/PoolPig.sol\":24864:24885  _rOwned[_excluded[i]] */\n      0xffffffffffffffffffffffffffffffffffffffff\n      and\n      0xffffffffffffffffffffffffffffffffffffffff\n      and\n      dup2\n      mstore\n      0x20\n      add\n      swap1\n      dup2\n      mstore\n      0x20\n      add\n      0x00\n      keccak256\n      sload\n        /* \"contracts/Pool/PoolPig.sol\":24852:24859  rSupply */\n      dup5\n        /* \"contracts/Pool/PoolPig.sol\":24852:24863  rSupply.sub */\n      tag_249\n      swap1\n        /* \"contracts/Pool/PoolPig.sol\":24852:24886  rSupply.sub(_rOwned[_excluded[i]]) */\n      swap2\n      swap1\n      0xffffffff\n      and\n      jump\t// in\n    tag_424:\n        /* \"contracts/Pool/PoolPig.sol\":24842:24886  rSupply = rSupply.sub(_rOwned[_excluded[i]]) */\n      swap3\n      pop\n        /* \"contracts/Pool/PoolPig.sol\":24910:24944  tSupply.sub(_tOwned[_excluded[i]]) */\n      tag_427\n        /* \"contracts/Pool/PoolPig.sol\":24922:24929  _tOwned */\n      0x04\n        /* \"contracts/Pool/PoolPig.sol\":24922:24943  _tOwned[_excluded[i]] */\n      0x00\n        /* \"contracts/Pool/PoolPig.sol\":24930:24939  _excluded */\n      0x08\n        /* \"contracts/Pool/PoolPig.sol\":24940:24941  i */\n      dup5\n        /* \"contracts/Pool/PoolPig.sol\":24930:24942  _excluded[i] */\n      dup2\n      sload\n      dup2\n      lt\n      tag_428\n      jumpi\n      invalid\n    tag_428:\n      swap1\n      0x00\n      mstore\n      keccak256(0x00, 0x20)\n      add\n      0x00\n      swap1\n      sload\n      swap1\n      0x0100\n      exp\n      swap1\n      div\n      0xffffffffffffffffffffffffffffffffffffffff\n      and\n        /* \"contracts/Pool/PoolPig.sol\":24922:24943  _tOwned[_excluded[i]] */\n      0xffffffffffffffffffffffffffffffffffffffff\n      and\n      0xffffffffffffffffffffffffffffffffffffffff\n      and\n      dup2\n      mstore\n      0x20\n      add\n      swap1\n      dup2\n      mstore\n      0x20\n      add\n      0x00\n      keccak256\n      sload\n        /* \"contracts/Pool/PoolPig.sol\":24910:24917  tSupply */\n      dup4\n        /* \"contracts/Pool/PoolPig.sol\":24910:24921  tSupply.sub */\n      tag_249\n      swap1\n        /* \"contracts/Pool/PoolPig.sol\":24910:24944  tSupply.sub(_tOwned[_excluded[i]]) */\n      swap2\n      swap1\n      0xffffffff\n      and\n      jump\t// in\n    tag_427:\n        /* \"contracts/Pool/PoolPig.sol\":24900:24944  tSupply = tSupply.sub(_tOwned[_excluded[i]]) */\n      swap2\n      pop\n        /* \"contracts/Pool/PoolPig.sol\":24712:24715  i++ */\n      dup1\n      dup1\n      0x01\n      add\n      swap2\n      pop\n      pop\n        /* \"contracts/Pool/PoolPig.sol\":24670:24955  for (uint256 i = 0; i < _excluded.length; i++) {... */\n      jump(tag_415)\n    tag_416:\n      pop\n        /* \"contracts/Pool/PoolPig.sol\":24978:24998  _rTotal.div(_tTotal) */\n      tag_430\n        /* \"contracts/Pool/PoolPig.sol\":15658:15676  1000000000 * 10**9 */\n      0x0de0b6b3a7640000\n        /* \"contracts/Pool/PoolPig.sol\":24978:24985  _rTotal */\n      sload(0x09)\n        /* \"contracts/Pool/PoolPig.sol\":24978:24989  _rTotal.div */\n      tag_218\n      swap1\n        /* \"contracts/Pool/PoolPig.sol\":24978:24998  _rTotal.div(_tTotal) */\n      swap2\n      swap1\n      0xffffffff\n      and\n      jump\t// in\n    tag_430:\n        /* \"contracts/Pool/PoolPig.sol\":24968:24975  rSupply */\n      dup3\n        /* \"contracts/Pool/PoolPig.sol\":24968:24998  rSupply < _rTotal.div(_tTotal) */\n      lt\n        /* \"contracts/Pool/PoolPig.sol\":24964:25025  if (rSupply < _rTotal.div(_tTotal)) return (_rTotal, _tTotal) */\n      iszero\n      tag_431\n      jumpi\n        /* \"contracts/Pool/PoolPig.sol\":25008:25015  _rTotal */\n      sload(0x09)\n        /* \"contracts/Pool/PoolPig.sol\":15658:15676  1000000000 * 10**9 */\n      0x0de0b6b3a7640000\n        /* \"contracts/Pool/PoolPig.sol\":25000:25025  return (_rTotal, _tTotal) */\n      swap4\n      pop\n      swap4\n      pop\n      pop\n      pop\n      jump(tag_414)\n        /* \"contracts/Pool/PoolPig.sol\":24964:25025  if (rSupply < _rTotal.div(_tTotal)) return (_rTotal, _tTotal) */\n    tag_431:\n        /* \"contracts/Pool/PoolPig.sol\":25043:25050  rSupply */\n      dup2\n        /* \"contracts/Pool/PoolPig.sol\":25052:25059  tSupply */\n      dup2\n        /* \"contracts/Pool/PoolPig.sol\":25035:25060  return (rSupply, tSupply) */\n      swap4\n      pop\n      swap4\n      pop\n      pop\n      pop\n        /* \"contracts/Pool/PoolPig.sol\":24516:25067  function _getCurrentSupply() private view returns(uint256, uint256) {... */\n    tag_414:\n      swap1\n      swap2\n      jump\t// out\n        /* \"contracts/Pool/PoolPig.sol\":1646:1918  function div(uint256 a, uint256 b, string memory errorMessage) internal pure returns (uint256) {... */\n    tag_362:\n        /* \"contracts/Pool/PoolPig.sol\":1732:1739  uint256 */\n      0x00\n        /* \"contracts/Pool/PoolPig.sol\":1763:1764  0 */\n      dup1\n        /* \"contracts/Pool/PoolPig.sol\":1759:1760  b */\n      dup4\n        /* \"contracts/Pool/PoolPig.sol\":1759:1764  b > 0 */\n      gt\n        /* \"contracts/Pool/PoolPig.sol\":1766:1778  errorMessage */\n      dup3\n        /* \"contracts/Pool/PoolPig.sol\":1751:1779  require(b > 0, errorMessage) */\n      swap1\n      tag_433\n      jumpi\n      mload(0x40)\n      0x08c379a000000000000000000000000000000000000000000000000000000000\n      dup2\n      mstore\n      0x04\n      add\n      dup1\n      dup1\n      0x20\n      add\n      dup3\n      dup2\n      sub\n      dup3\n      mstore\n      dup4\n      dup2\n      dup2\n      mload\n      dup2\n      mstore\n      0x20\n      add\n      swap2\n      pop\n      dup1\n      mload\n      swap1\n      0x20\n      add\n      swap1\n      dup1\n      dup4\n      dup4\n      0x00\n    tag_434:\n      dup4\n      dup2\n      lt\n      iszero\n      tag_436\n      jumpi\n      dup1\n      dup3\n      add\n      mload\n      dup2\n      dup5\n      add\n      mstore\n      0x20\n      dup2\n      add\n      swap1\n      pop\n      jump(tag_434)\n    tag_436:\n      pop\n      pop\n      pop\n      pop\n      swap1\n      pop\n      swap1\n      dup2\n      add\n      swap1\n      0x1f\n      and\n      dup1\n      iszero\n      tag_437\n      jumpi\n      dup1\n      dup3\n      sub\n      dup1\n      mload\n      0x01\n      dup4\n      0x20\n      sub\n      0x0100\n      exp\n      sub\n      not\n      and\n      dup2\n      mstore\n      0x20\n      add\n      swap2\n      pop\n    tag_437:\n      pop\n      swap3\n      pop\n      pop\n      pop\n      mload(0x40)\n      dup1\n      swap2\n      sub\n      swap1\n      revert\n    tag_433:\n      pop\n        /* \"contracts/Pool/PoolPig.sol\":1789:1798  uint256 c */\n      0x00\n        /* \"contracts/Pool/PoolPig.sol\":1805:1806  b */\n      dup4\n        /* \"contracts/Pool/PoolPig.sol\":1801:1802  a */\n      dup6\n        /* \"contracts/Pool/PoolPig.sol\":1801:1806  a / b */\n      dup2\n      tag_438\n      jumpi\n      invalid\n    tag_438:\n      div\n        /* \"contracts/Pool/PoolPig.sol\":1789:1806  uint256 c = a / b */\n      swap1\n      pop\n        /* \"contracts/Pool/PoolPig.sol\":1910:1911  c */\n      dup1\n        /* \"contracts/Pool/PoolPig.sol\":1903:1911  return c */\n      swap2\n      pop\n      pop\n        /* \"contracts/Pool/PoolPig.sol\":1646:1918  function div(uint256 a, uint256 b, string memory errorMessage) internal pure returns (uint256) {... */\n      swap4\n      swap3\n      pop\n      pop\n      pop\n      jump\t// out\n        /* \"contracts/Pool/PoolPig.sol\":23590:23915  function _getTValues(uint256 tAmount) private view returns (uint256, uint256, uint256) {... */\n    tag_367:\n        /* \"contracts/Pool/PoolPig.sol\":23650:23657  uint256 */\n      0x00\n        /* \"contracts/Pool/PoolPig.sol\":23659:23666  uint256 */\n      dup1\n        /* \"contracts/Pool/PoolPig.sol\":23668:23675  uint256 */\n      0x00\n        /* \"contracts/Pool/PoolPig.sol\":23687:23699  uint256 tFee */\n      dup1\n        /* \"contracts/Pool/PoolPig.sol\":23702:23726  calculateTaxFee(tAmount) */\n      tag_440\n        /* \"contracts/Pool/PoolPig.sol\":23718:23725  tAmount */\n      dup6\n        /* \"contracts/Pool/PoolPig.sol\":23702:23717  calculateTaxFee */\n      tag_441\n        /* \"contracts/Pool/PoolPig.sol\":23702:23726  calculateTaxFee(tAmount) */\n      jump\t// in\n    tag_440:\n        /* \"contracts/Pool/PoolPig.sol\":23687:23726  uint256 tFee = calculateTaxFee(tAmount) */\n      swap1\n      pop\n        /* \"contracts/Pool/PoolPig.sol\":23736:23754  uint256 tLiquidity */\n      0x00\n        /* \"contracts/Pool/PoolPig.sol\":23757:23787  calculateLiquidityFee(tAmount) */\n      tag_442\n        /* \"contracts/Pool/PoolPig.sol\":23779:23786  tAmount */\n      dup7\n        /* \"contracts/Pool/PoolPig.sol\":23757:23778  calculateLiquidityFee */\n      tag_443\n        /* \"contracts/Pool/PoolPig.sol\":23757:23787  calculateLiquidityFee(tAmount) */\n      jump\t// in\n    tag_442:\n        /* \"contracts/Pool/PoolPig.sol\":23736:23787  uint256 tLiquidity = calculateLiquidityFee(tAmount) */\n      swap1\n      pop\n        /* \"contracts/Pool/PoolPig.sol\":23797:23820  uint256 tTransferAmount */\n      0x00\n        /* \"contracts/Pool/PoolPig.sol\":23823:23856  tAmount.sub(tFee).sub(tLiquidity) */\n      tag_444\n        /* \"contracts/Pool/PoolPig.sol\":23845:23855  tLiquidity */\n      dup3\n        /* \"contracts/Pool/PoolPig.sol\":23823:23840  tAmount.sub(tFee) */\n      tag_445\n        /* \"contracts/Pool/PoolPig.sol\":23835:23839  tFee */\n      dup6\n        /* \"contracts/Pool/PoolPig.sol\":23823:23830  tAmount */\n      dup11\n        /* \"contracts/Pool/PoolPig.sol\":23823:23834  tAmount.sub */\n      tag_249\n      swap1\n        /* \"contracts/Pool/PoolPig.sol\":23823:23840  tAmount.sub(tFee) */\n      swap2\n      swap1\n      0xffffffff\n      and\n      jump\t// in\n    tag_445:\n        /* \"contracts/Pool/PoolPig.sol\":23823:23844  tAmount.sub(tFee).sub */\n      tag_249\n      swap1\n        /* \"contracts/Pool/PoolPig.sol\":23823:23856  tAmount.sub(tFee).sub(tLiquidity) */\n      swap2\n      swap1\n      0xffffffff\n      and\n      jump\t// in\n    tag_444:\n        /* \"contracts/Pool/PoolPig.sol\":23797:23856  uint256 tTransferAmount = tAmount.sub(tFee).sub(tLiquidity) */\n      swap1\n      pop\n        /* \"contracts/Pool/PoolPig.sol\":23874:23889  tTransferAmount */\n      dup1\n        /* \"contracts/Pool/PoolPig.sol\":23891:23895  tFee */\n      dup4\n        /* \"contracts/Pool/PoolPig.sol\":23897:23907  tLiquidity */\n      dup4\n        /* \"contracts/Pool/PoolPig.sol\":23866:23908  return (tTransferAmount, tFee, tLiquidity) */\n      swap6\n      pop\n      swap6\n      pop\n      swap6\n      pop\n      pop\n      pop\n      pop\n        /* \"contracts/Pool/PoolPig.sol\":23590:23915  function _getTValues(uint256 tAmount) private view returns (uint256, uint256, uint256) {... */\n      swap2\n      swap4\n      swap1\n      swap3\n      pop\n      jump\t// out\n        /* \"contracts/Pool/PoolPig.sol\":23921:24344  function _getRValues(uint256 tAmount, uint256 tFee, uint256 tLiquidity, uint256 currentRate) private pure returns (uint256, uint256, uint256) {... */\n    tag_370:\n        /* \"contracts/Pool/PoolPig.sol\":24036:24043  uint256 */\n      0x00\n        /* \"contracts/Pool/PoolPig.sol\":24045:24052  uint256 */\n      dup1\n        /* \"contracts/Pool/PoolPig.sol\":24054:24061  uint256 */\n      0x00\n        /* \"contracts/Pool/PoolPig.sol\":24073:24088  uint256 rAmount */\n      dup1\n        /* \"contracts/Pool/PoolPig.sol\":24091:24115  tAmount.mul(currentRate) */\n      tag_447\n        /* \"contracts/Pool/PoolPig.sol\":24103:24114  currentRate */\n      dup6\n        /* \"contracts/Pool/PoolPig.sol\":24091:24098  tAmount */\n      dup10\n        /* \"contracts/Pool/PoolPig.sol\":24091:24102  tAmount.mul */\n      tag_310\n      swap1\n        /* \"contracts/Pool/PoolPig.sol\":24091:24115  tAmount.mul(currentRate) */\n      swap2\n      swap1\n      0xffffffff\n      and\n      jump\t// in\n    tag_447:\n        /* \"contracts/Pool/PoolPig.sol\":24073:24115  uint256 rAmount = tAmount.mul(currentRate) */\n      swap1\n      pop\n        /* \"contracts/Pool/PoolPig.sol\":24125:24137  uint256 rFee */\n      0x00\n        /* \"contracts/Pool/PoolPig.sol\":24140:24161  tFee.mul(currentRate) */\n      tag_448\n        /* \"contracts/Pool/PoolPig.sol\":24149:24160  currentRate */\n      dup7\n        /* \"contracts/Pool/PoolPig.sol\":24140:24144  tFee */\n      dup10\n        /* \"contracts/Pool/PoolPig.sol\":24140:24148  tFee.mul */\n      tag_310\n      swap1\n        /* \"contracts/Pool/PoolPig.sol\":24140:24161  tFee.mul(currentRate) */\n      swap2\n      swap1\n      0xffffffff\n      and\n      jump\t// in\n    tag_448:\n        /* \"contracts/Pool/PoolPig.sol\":24125:24161  uint256 rFee = tFee.mul(currentRate) */\n      swap1\n      pop\n        /* \"contracts/Pool/PoolPig.sol\":24171:24189  uint256 rLiquidity */\n      0x00\n        /* \"contracts/Pool/PoolPig.sol\":24192:24219  tLiquidity.mul(currentRate) */\n      tag_449\n        /* \"contracts/Pool/PoolPig.sol\":24207:24218  currentRate */\n      dup8\n        /* \"contracts/Pool/PoolPig.sol\":24192:24202  tLiquidity */\n      dup10\n        /* \"contracts/Pool/PoolPig.sol\":24192:24206  tLiquidity.mul */\n      tag_310\n      swap1\n        /* \"contracts/Pool/PoolPig.sol\":24192:24219  tLiquidity.mul(currentRate) */\n      swap2\n      swap1\n      0xffffffff\n      and\n      jump\t// in\n    tag_449:\n        /* \"contracts/Pool/PoolPig.sol\":24171:24219  uint256 rLiquidity = tLiquidity.mul(currentRate) */\n      swap1\n      pop\n        /* \"contracts/Pool/PoolPig.sol\":24229:24252  uint256 rTransferAmount */\n      0x00\n        /* \"contracts/Pool/PoolPig.sol\":24255:24288  rAmount.sub(rFee).sub(rLiquidity) */\n      tag_450\n        /* \"contracts/Pool/PoolPig.sol\":24277:24287  rLiquidity */\n      dup3\n        /* \"contracts/Pool/PoolPig.sol\":24255:24272  rAmount.sub(rFee) */\n      tag_451\n        /* \"contracts/Pool/PoolPig.sol\":24267:24271  rFee */\n      dup6\n        /* \"contracts/Pool/PoolPig.sol\":24255:24262  rAmount */\n      dup8\n        /* \"contracts/Pool/PoolPig.sol\":24255:24266  rAmount.sub */\n      tag_249\n      swap1\n        /* \"contracts/Pool/PoolPig.sol\":24255:24272  rAmount.sub(rFee) */\n      swap2\n      swap1\n      0xffffffff\n      and\n      jump\t// in\n    tag_451:\n        /* \"contracts/Pool/PoolPig.sol\":24255:24276  rAmount.sub(rFee).sub */\n      tag_249\n      swap1\n        /* \"contracts/Pool/PoolPig.sol\":24255:24288  rAmount.sub(rFee).sub(rLiquidity) */\n      swap2\n      swap1\n      0xffffffff\n      and\n      jump\t// in\n    tag_450:\n        /* \"contracts/Pool/PoolPig.sol\":24229:24288  uint256 rTransferAmount = rAmount.sub(rFee).sub(rLiquidity) */\n      swap1\n      pop\n        /* \"contracts/Pool/PoolPig.sol\":24306:24313  rAmount */\n      dup4\n        /* \"contracts/Pool/PoolPig.sol\":24315:24330  rTransferAmount */\n      dup2\n        /* \"contracts/Pool/PoolPig.sol\":24332:24336  rFee */\n      dup5\n        /* \"contracts/Pool/PoolPig.sol\":24298:24337  return (rAmount, rTransferAmount, rFee) */\n      swap7\n      pop\n      swap7\n      pop\n      swap7\n      pop\n      pop\n      pop\n      pop\n      pop\n        /* \"contracts/Pool/PoolPig.sol\":23921:24344  function _getRValues(uint256 tAmount, uint256 tFee, uint256 tLiquidity, uint256 currentRate) private pure returns (uint256, uint256, uint256) {... */\n      swap5\n      pop\n      swap5\n      pop\n      swap5\n      swap2\n      pop\n      pop\n      jump\t// out\n        /* \"contracts/Pool/PoolPig.sol\":29080:29653  function swapTokensForEth(uint256 tokenAmount) private {... */\n    tag_382:\n        /* \"contracts/Pool/PoolPig.sol\":29204:29225  address[] memory path */\n      0x60\n        /* \"contracts/Pool/PoolPig.sol\":29242:29243  2 */\n      0x02\n        /* \"contracts/Pool/PoolPig.sol\":29228:29244  new address[](2) */\n      0xffffffffffffffff\n      dup2\n      gt\n      dup1\n      iszero\n      tag_453\n      jumpi\n      0x00\n      dup1\n      revert\n    tag_453:\n      pop\n      mload(0x40)\n      swap1\n      dup1\n      dup3\n      mstore\n      dup1\n      0x20\n      mul\n      0x20\n      add\n      dup3\n      add\n      0x40\n      mstore\n      dup1\n      iszero\n      tag_454\n      jumpi\n      dup2\n      0x20\n      add\n      0x20\n      dup3\n      mul\n      dup1\n      calldatasize\n      dup4\n      calldatacopy\n      dup1\n      dup3\n      add\n      swap2\n      pop\n      pop\n      swap1\n      pop\n    tag_454:\n      pop\n        /* \"contracts/Pool/PoolPig.sol\":29204:29244  address[] memory path = new address[](2) */\n      swap1\n      pop\n        /* \"contracts/Pool/PoolPig.sol\":29272:29276  this */\n      address\n        /* \"contracts/Pool/PoolPig.sol\":29254:29258  path */\n      dup2\n        /* \"contracts/Pool/PoolPig.sol\":29259:29260  0 */\n      0x00\n        /* \"contracts/Pool/PoolPig.sol\":29254:29261  path[0] */\n      dup2\n      mload\n      dup2\n      lt\n      tag_455\n      jumpi\n      invalid\n    tag_455:\n      0x20\n      mul\n      0x20\n      add\n      add\n        /* \"contracts/Pool/PoolPig.sol\":29254:29277  path[0] = address(this) */\n      swap1\n      0xffffffffffffffffffffffffffffffffffffffff\n      and\n      swap1\n      dup2\n      0xffffffffffffffffffffffffffffffffffffffff\n      and\n      dup2\n      mstore\n      pop\n      pop\n        /* \"contracts/Pool/PoolPig.sol\":29297:29312  uniswapV2Router */\n      immutable(\"0xcbd30de1da04efa9e9dfb752a21e23c2c0c1de652015c52c119403b61435944f\")\n        /* \"contracts/Pool/PoolPig.sol\":29297:29317  uniswapV2Router.WETH */\n      0xffffffffffffffffffffffffffffffffffffffff\n      and\n      0xad5c4648\n        /* \"contracts/Pool/PoolPig.sol\":29297:29319  uniswapV2Router.WETH() */\n      mload(0x40)\n      dup2\n      0xffffffff\n      and\n      0xe0\n      shl\n      dup2\n      mstore\n      0x04\n      add\n      0x20\n      mload(0x40)\n      dup1\n      dup4\n      sub\n      dup2\n      dup7\n      dup1\n      extcodesize\n      iszero\n      dup1\n      iszero\n      tag_456\n      jumpi\n      0x00\n      dup1\n      revert\n    tag_456:\n      pop\n      gas\n      staticcall\n      iszero\n      dup1\n      iszero\n      tag_458\n      jumpi\n      returndatasize\n      0x00\n      dup1\n      returndatacopy\n      revert(0x00, returndatasize)\n    tag_458:\n      pop\n      pop\n      pop\n      pop\n      mload(0x40)\n      returndatasize\n      0x20\n      dup2\n      lt\n      iszero\n      tag_459\n      jumpi\n      0x00\n      dup1\n      revert\n    tag_459:\n      dup2\n      add\n      swap1\n      dup1\n      dup1\n      mload\n      swap1\n      0x20\n      add\n      swap1\n      swap3\n      swap2\n      swap1\n      pop\n      pop\n      pop\n        /* \"contracts/Pool/PoolPig.sol\":29287:29291  path */\n      dup2\n        /* \"contracts/Pool/PoolPig.sol\":29292:29293  1 */\n      0x01\n        /* \"contracts/Pool/PoolPig.sol\":29287:29294  path[1] */\n      dup2\n      mload\n      dup2\n      lt\n      tag_460\n      jumpi\n      invalid\n    tag_460:\n      0x20\n      mul\n      0x20\n      add\n      add\n        /* \"contracts/Pool/PoolPig.sol\":29287:29319  path[1] = uniswapV2Router.WETH() */\n      swap1\n      0xffffffffffffffffffffffffffffffffffffffff\n      and\n      swap1\n      dup2\n      0xffffffffffffffffffffffffffffffffffffffff\n      and\n      dup2\n      mstore\n      pop\n      pop\n        /* \"contracts/Pool/PoolPig.sol\":29330:29392  _approve(address(this), address(uniswapV2Router), tokenAmount) */\n      tag_461\n        /* \"contracts/Pool/PoolPig.sol\":29347:29351  this */\n      address\n        /* \"contracts/Pool/PoolPig.sol\":29362:29377  uniswapV2Router */\n      immutable(\"0xcbd30de1da04efa9e9dfb752a21e23c2c0c1de652015c52c119403b61435944f\")\n        /* \"contracts/Pool/PoolPig.sol\":29380:29391  tokenAmount */\n      dup5\n        /* \"contracts/Pool/PoolPig.sol\":29330:29338  _approve */\n      tag_202\n        /* \"contracts/Pool/PoolPig.sol\":29330:29392  _approve(address(this), address(uniswapV2Router), tokenAmount) */\n      jump\t// in\n    tag_461:\n        /* \"contracts/Pool/PoolPig.sol\":29428:29443  uniswapV2Router */\n      immutable(\"0xcbd30de1da04efa9e9dfb752a21e23c2c0c1de652015c52c119403b61435944f\")\n        /* \"contracts/Pool/PoolPig.sol\":29428:29494  uniswapV2Router.swapExactTokensForETHSupportingFeeOnTransferTokens */\n      0xffffffffffffffffffffffffffffffffffffffff\n      and\n      0x791ac947\n        /* \"contracts/Pool/PoolPig.sol\":29508:29519  tokenAmount */\n      dup4\n        /* \"contracts/Pool/PoolPig.sol\":29533:29534  0 */\n      0x00\n        /* \"contracts/Pool/PoolPig.sol\":29576:29580  path */\n      dup5\n        /* \"contracts/Pool/PoolPig.sol\":29602:29606  this */\n      address\n        /* \"contracts/Pool/PoolPig.sol\":29621:29636  block.timestamp */\n      timestamp\n        /* \"contracts/Pool/PoolPig.sol\":29428:29646  uniswapV2Router.swapExactTokensForETHSupportingFeeOnTransferTokens(... */\n      mload(0x40)\n      dup7\n      0xffffffff\n      and\n      0xe0\n      shl\n      dup2\n      mstore\n      0x04\n      add\n      dup1\n      dup7\n      dup2\n      mstore\n      0x20\n      add\n      dup6\n      dup2\n      mstore\n      0x20\n      add\n      dup1\n      0x20\n      add\n      dup5\n      0xffffffffffffffffffffffffffffffffffffffff\n      and\n      dup2\n      mstore\n      0x20\n      add\n      dup4\n      dup2\n      mstore\n      0x20\n      add\n      dup3\n      dup2\n      sub\n      dup3\n      mstore\n      dup6\n      dup2\n      dup2\n      mload\n      dup2\n      mstore\n      0x20\n      add\n      swap2\n      pop\n      dup1\n      mload\n      swap1\n      0x20\n      add\n      swap1\n      0x20\n      mul\n      dup1\n      dup4\n      dup4\n      0x00\n    tag_462:\n      dup4\n      dup2\n      lt\n      iszero\n      tag_464\n      jumpi\n      dup1\n      dup3\n      add\n      mload\n      dup2\n      dup5\n      add\n      mstore\n      0x20\n      dup2\n      add\n      swap1\n      pop\n      jump(tag_462)\n    tag_464:\n      pop\n      pop\n      pop\n      pop\n      swap1\n      pop\n      add\n      swap7\n      pop\n      pop\n      pop\n      pop\n      pop\n      pop\n      pop\n      0x00\n      mload(0x40)\n      dup1\n      dup4\n      sub\n      dup2\n      0x00\n      dup8\n      dup1\n      extcodesize\n      iszero\n      dup1\n      iszero\n      tag_465\n      jumpi\n      0x00\n      dup1\n      revert\n    tag_465:\n      pop\n      gas\n      call\n      iszero\n      dup1\n      iszero\n      tag_467\n      jumpi\n      returndatasize\n      0x00\n      dup1\n      returndatacopy\n      revert(0x00, returndatasize)\n    tag_467:\n      pop\n      pop\n      pop\n      pop\n        /* \"contracts/Pool/PoolPig.sol\":29080:29653  function swapTokensForEth(uint256 tokenAmount) private {... */\n      pop\n      pop\n      jump\t// out\n        /* \"contracts/Pool/PoolPig.sol\":29659:30159  function addLiquidity(uint256 tokenAmount, uint256 ethAmount) private {... */\n    tag_385:\n        /* \"contracts/Pool/PoolPig.sol\":29805:29867  _approve(address(this), address(uniswapV2Router), tokenAmount) */\n      tag_469\n        /* \"contracts/Pool/PoolPig.sol\":29822:29826  this */\n      address\n        /* \"contracts/Pool/PoolPig.sol\":29837:29852  uniswapV2Router */\n      immutable(\"0xcbd30de1da04efa9e9dfb752a21e23c2c0c1de652015c52c119403b61435944f\")\n        /* \"contracts/Pool/PoolPig.sol\":29855:29866  tokenAmount */\n      dup5\n        /* \"contracts/Pool/PoolPig.sol\":29805:29813  _approve */\n      tag_202\n        /* \"contracts/Pool/PoolPig.sol\":29805:29867  _approve(address(this), address(uniswapV2Router), tokenAmount) */\n      jump\t// in\n    tag_469:\n        /* \"contracts/Pool/PoolPig.sol\":29907:29922  uniswapV2Router */\n      immutable(\"0xcbd30de1da04efa9e9dfb752a21e23c2c0c1de652015c52c119403b61435944f\")\n        /* \"contracts/Pool/PoolPig.sol\":29907:29938  uniswapV2Router.addLiquidityETH */\n      0xffffffffffffffffffffffffffffffffffffffff\n      and\n      0xf305d719\n        /* \"contracts/Pool/PoolPig.sol\":29946:29955  ethAmount */\n      dup3\n        /* \"contracts/Pool/PoolPig.sol\":29978:29982  this */\n      address\n        /* \"contracts/Pool/PoolPig.sol\":29997:30008  tokenAmount */\n      dup6\n        /* \"contracts/Pool/PoolPig.sol\":30022:30023  0 */\n      0x00\n        /* \"contracts/Pool/PoolPig.sol\":30064:30065  0 */\n      dup1\n        /* \"contracts/Pool/PoolPig.sol\":30106:30113  owner() */\n      tag_470\n        /* \"contracts/Pool/PoolPig.sol\":30106:30111  owner */\n      tag_140\n        /* \"contracts/Pool/PoolPig.sol\":30106:30113  owner() */\n      jump\t// in\n    tag_470:\n        /* \"contracts/Pool/PoolPig.sol\":30127:30142  block.timestamp */\n      timestamp\n        /* \"contracts/Pool/PoolPig.sol\":29907:30152  uniswapV2Router.addLiquidityETH{value: ethAmount}(... */\n      mload(0x40)\n      dup9\n      0xffffffff\n      and\n      0xe0\n      shl\n      dup2\n      mstore\n      0x04\n      add\n      dup1\n      dup8\n      0xffffffffffffffffffffffffffffffffffffffff\n      and\n      dup2\n      mstore\n      0x20\n      add\n      dup7\n      dup2\n      mstore\n      0x20\n      add\n      dup6\n      dup2\n      mstore\n      0x20\n      add\n      dup5\n      dup2\n      mstore\n      0x20\n      add\n      dup4\n      0xffffffffffffffffffffffffffffffffffffffff\n      and\n      dup2\n      mstore\n      0x20\n      add\n      dup3\n      dup2\n      mstore\n      0x20\n      add\n      swap7\n      pop\n      pop\n      pop\n      pop\n      pop\n      pop\n      pop\n      0x60\n      mload(0x40)\n      dup1\n      dup4\n      sub\n      dup2\n      dup6\n      dup9\n      dup1\n      extcodesize\n      iszero\n      dup1\n      iszero\n      tag_471\n      jumpi\n      0x00\n      dup1\n      revert\n    tag_471:\n      pop\n      gas\n      call\n      iszero\n      dup1\n      iszero\n      tag_473\n      jumpi\n      returndatasize\n      0x00\n      dup1\n      returndatacopy\n      revert(0x00, returndatasize)\n    tag_473:\n      pop\n      pop\n      pop\n      pop\n      pop\n      mload(0x40)\n      returndatasize\n      0x60\n      dup2\n      lt\n      iszero\n      tag_474\n      jumpi\n      0x00\n      dup1\n      revert\n    tag_474:\n      dup2\n      add\n      swap1\n      dup1\n      dup1\n      mload\n      swap1\n      0x20\n      add\n      swap1\n      swap3\n      swap2\n      swap1\n      dup1\n      mload\n      swap1\n      0x20\n      add\n      swap1\n      swap3\n      swap2\n      swap1\n      dup1\n      mload\n      swap1\n      0x20\n      add\n      swap1\n      swap3\n      swap2\n      swap1\n      pop\n      pop\n      pop\n      pop\n      pop\n      pop\n        /* \"contracts/Pool/PoolPig.sol\":29659:30159  function addLiquidity(uint256 tokenAmount, uint256 ethAmount) private {... */\n      pop\n      pop\n      jump\t// out\n        /* \"contracts/Pool/PoolPig.sol\":25764:26006  function removeAllFee() private {... */\n    tag_389:\n        /* \"contracts/Pool/PoolPig.sol\":25820:25821  0 */\n      0x00\n        /* \"contracts/Pool/PoolPig.sol\":25809:25816  _taxFee */\n      sload(0x0e)\n        /* \"contracts/Pool/PoolPig.sol\":25809:25821  _taxFee == 0 */\n      eq\n        /* \"contracts/Pool/PoolPig.sol\":25809:25843  _taxFee == 0 && _liquidityFee == 0 */\n      dup1\n      iszero\n      tag_476\n      jumpi\n      pop\n        /* \"contracts/Pool/PoolPig.sol\":25842:25843  0 */\n      0x00\n        /* \"contracts/Pool/PoolPig.sol\":25825:25838  _liquidityFee */\n      sload(0x10)\n        /* \"contracts/Pool/PoolPig.sol\":25825:25843  _liquidityFee == 0 */\n      eq\n        /* \"contracts/Pool/PoolPig.sol\":25809:25843  _taxFee == 0 && _liquidityFee == 0 */\n    tag_476:\n        /* \"contracts/Pool/PoolPig.sol\":25806:25852  if(_taxFee == 0 && _liquidityFee == 0) return; */\n      iszero\n      tag_477\n      jumpi\n        /* \"contracts/Pool/PoolPig.sol\":25845:25852  return; */\n      jump(tag_475)\n        /* \"contracts/Pool/PoolPig.sol\":25806:25852  if(_taxFee == 0 && _liquidityFee == 0) return; */\n    tag_477:\n        /* \"contracts/Pool/PoolPig.sol\":25888:25895  _taxFee */\n      sload(0x0e)\n        /* \"contracts/Pool/PoolPig.sol\":25870:25885  _previousTaxFee */\n      0x0f\n        /* \"contracts/Pool/PoolPig.sol\":25870:25895  _previousTaxFee = _taxFee */\n      dup2\n      swap1\n      sstore\n      pop\n        /* \"contracts/Pool/PoolPig.sol\":25929:25942  _liquidityFee */\n      sload(0x10)\n        /* \"contracts/Pool/PoolPig.sol\":25905:25926  _previousLiquidityFee */\n      0x11\n        /* \"contracts/Pool/PoolPig.sol\":25905:25942  _previousLiquidityFee = _liquidityFee */\n      dup2\n      swap1\n      sstore\n      pop\n        /* \"contracts/Pool/PoolPig.sol\":25971:25972  0 */\n      0x00\n        /* \"contracts/Pool/PoolPig.sol\":25961:25968  _taxFee */\n      0x0e\n        /* \"contracts/Pool/PoolPig.sol\":25961:25972  _taxFee = 0 */\n      dup2\n      swap1\n      sstore\n      pop\n        /* \"contracts/Pool/PoolPig.sol\":25998:25999  0 */\n      0x00\n        /* \"contracts/Pool/PoolPig.sol\":25982:25995  _liquidityFee */\n      0x10\n        /* \"contracts/Pool/PoolPig.sol\":25982:25999  _liquidityFee = 0 */\n      dup2\n      swap1\n      sstore\n      pop\n        /* \"contracts/Pool/PoolPig.sol\":25764:26006  function removeAllFee() private {... */\n    tag_475:\n      jump\t// out\n        /* \"contracts/Pool/PoolPig.sol\":32144:32702  function _transferFromExcluded(address sender, address recipient, uint256 tAmount) private {... */\n    tag_393:\n        /* \"contracts/Pool/PoolPig.sol\":32246:32261  uint256 rAmount */\n      0x00\n        /* \"contracts/Pool/PoolPig.sol\":32263:32286  uint256 rTransferAmount */\n      dup1\n        /* \"contracts/Pool/PoolPig.sol\":32288:32300  uint256 rFee */\n      0x00\n        /* \"contracts/Pool/PoolPig.sol\":32302:32325  uint256 tTransferAmount */\n      dup1\n        /* \"contracts/Pool/PoolPig.sol\":32327:32339  uint256 tFee */\n      0x00\n        /* \"contracts/Pool/PoolPig.sol\":32341:32359  uint256 tLiquidity */\n      dup1\n        /* \"contracts/Pool/PoolPig.sol\":32363:32382  _getValues(tAmount) */\n      tag_479\n        /* \"contracts/Pool/PoolPig.sol\":32374:32381  tAmount */\n      dup8\n        /* \"contracts/Pool/PoolPig.sol\":32363:32373  _getValues */\n      tag_247\n        /* \"contracts/Pool/PoolPig.sol\":32363:32382  _getValues(tAmount) */\n      jump\t// in\n    tag_479:\n        /* \"contracts/Pool/PoolPig.sol\":32245:32382  (uint256 rAmount, uint256 rTransferAmount, uint256 rFee, uint256 tTransferAmount, uint256 tFee, uint256 tLiquidity) = _getValues(tAmount) */\n      swap6\n      pop\n      swap6\n      pop\n      swap6\n      pop\n      swap6\n      pop\n      swap6\n      pop\n      swap6\n      pop\n        /* \"contracts/Pool/PoolPig.sol\":32410:32438  _tOwned[sender].sub(tAmount) */\n      tag_480\n        /* \"contracts/Pool/PoolPig.sol\":32430:32437  tAmount */\n      dup8\n        /* \"contracts/Pool/PoolPig.sol\":32410:32417  _tOwned */\n      0x04\n        /* \"contracts/Pool/PoolPig.sol\":32410:32425  _tOwned[sender] */\n      0x00\n        /* \"contracts/Pool/PoolPig.sol\":32418:32424  sender */\n      dup13\n        /* \"contracts/Pool/PoolPig.sol\":32410:32425  _tOwned[sender] */\n      0xffffffffffffffffffffffffffffffffffffffff\n      and\n      0xffffffffffffffffffffffffffffffffffffffff\n      and\n      dup2\n      mstore\n      0x20\n      add\n      swap1\n      dup2\n      mstore\n      0x20\n      add\n      0x00\n      keccak256\n      sload\n        /* \"contracts/Pool/PoolPig.sol\":32410:32429  _tOwned[sender].sub */\n      tag_249\n      swap1\n        /* \"contracts/Pool/PoolPig.sol\":32410:32438  _tOwned[sender].sub(tAmount) */\n      swap2\n      swap1\n      0xffffffff\n      and\n      jump\t// in\n    tag_480:\n        /* \"contracts/Pool/PoolPig.sol\":32392:32399  _tOwned */\n      0x04\n        /* \"contracts/Pool/PoolPig.sol\":32392:32407  _tOwned[sender] */\n      0x00\n        /* \"contracts/Pool/PoolPig.sol\":32400:32406  sender */\n      dup12\n        /* \"contracts/Pool/PoolPig.sol\":32392:32407  _tOwned[sender] */\n      0xffffffffffffffffffffffffffffffffffffffff\n      and\n      0xffffffffffffffffffffffffffffffffffffffff\n      and\n      dup2\n      mstore\n      0x20\n      add\n      swap1\n      dup2\n      mstore\n      0x20\n      add\n      0x00\n      keccak256\n        /* \"contracts/Pool/PoolPig.sol\":32392:32438  _tOwned[sender] = _tOwned[sender].sub(tAmount) */\n      dup2\n      swap1\n      sstore\n      pop\n        /* \"contracts/Pool/PoolPig.sol\":32466:32494  _rOwned[sender].sub(rAmount) */\n      tag_481\n        /* \"contracts/Pool/PoolPig.sol\":32486:32493  rAmount */\n      dup7\n        /* \"contracts/Pool/PoolPig.sol\":32466:32473  _rOwned */\n      0x03\n        /* \"contracts/Pool/PoolPig.sol\":32466:32481  _rOwned[sender] */\n      0x00\n        /* \"contracts/Pool/PoolPig.sol\":32474:32480  sender */\n      dup13\n        /* \"contracts/Pool/PoolPig.sol\":32466:32481  _rOwned[sender] */\n      0xffffffffffffffffffffffffffffffffffffffff\n      and\n      0xffffffffffffffffffffffffffffffffffffffff\n      and\n      dup2\n      mstore\n      0x20\n      add\n      swap1\n      dup2\n      mstore\n      0x20\n      add\n      0x00\n      keccak256\n      sload\n        /* \"contracts/Pool/PoolPig.sol\":32466:32485  _rOwned[sender].sub */\n      tag_249\n      swap1\n        /* \"contracts/Pool/PoolPig.sol\":32466:32494  _rOwned[sender].sub(rAmount) */\n      swap2\n      swap1\n      0xffffffff\n      and\n      jump\t// in\n    tag_481:\n        /* \"contracts/Pool/PoolPig.sol\":32448:32455  _rOwned */\n      0x03\n        /* \"contracts/Pool/PoolPig.sol\":32448:32463  _rOwned[sender] */\n      0x00\n        /* \"contracts/Pool/PoolPig.sol\":32456:32462  sender */\n      dup12\n        /* \"contracts/Pool/PoolPig.sol\":32448:32463  _rOwned[sender] */\n      0xffffffffffffffffffffffffffffffffffffffff\n      and\n      0xffffffffffffffffffffffffffffffffffffffff\n      and\n      dup2\n      mstore\n      0x20\n      add\n      swap1\n      dup2\n      mstore\n      0x20\n      add\n      0x00\n      keccak256\n        /* \"contracts/Pool/PoolPig.sol\":32448:32494  _rOwned[sender] = _rOwned[sender].sub(rAmount) */\n      dup2\n      swap1\n      sstore\n      pop\n        /* \"contracts/Pool/PoolPig.sol\":32525:32564  _rOwned[recipient].add(rTransferAmount) */\n      tag_482\n        /* \"contracts/Pool/PoolPig.sol\":32548:32563  rTransferAmount */\n      dup6\n        /* \"contracts/Pool/PoolPig.sol\":32525:32532  _rOwned */\n      0x03\n        /* \"contracts/Pool/PoolPig.sol\":32525:32543  _rOwned[recipient] */\n      0x00\n        /* \"contracts/Pool/PoolPig.sol\":32533:32542  recipient */\n      dup12\n        /* \"contracts/Pool/PoolPig.sol\":32525:32543  _rOwned[recipient] */\n      0xffffffffffffffffffffffffffffffffffffffff\n      and\n      0xffffffffffffffffffffffffffffffffffffffff\n      and\n      dup2\n      mstore\n      0x20\n      add\n      swap1\n      dup2\n      mstore\n      0x20\n      add\n      0x00\n      keccak256\n      sload\n        /* \"contracts/Pool/PoolPig.sol\":32525:32547  _rOwned[recipient].add */\n      tag_242\n      swap1\n        /* \"contracts/Pool/PoolPig.sol\":32525:32564  _rOwned[recipient].add(rTransferAmount) */\n      swap2\n      swap1\n      0xffffffff\n      and\n      jump\t// in\n    tag_482:\n        /* \"contracts/Pool/PoolPig.sol\":32504:32511  _rOwned */\n      0x03\n        /* \"contracts/Pool/PoolPig.sol\":32504:32522  _rOwned[recipient] */\n      0x00\n        /* \"contracts/Pool/PoolPig.sol\":32512:32521  recipient */\n      dup11\n        /* \"contracts/Pool/PoolPig.sol\":32504:32522  _rOwned[recipient] */\n      0xffffffffffffffffffffffffffffffffffffffff\n      and\n      0xffffffffffffffffffffffffffffffffffffffff\n      and\n      dup2\n      mstore\n      0x20\n      add\n      swap1\n      dup2\n      mstore\n      0x20\n      add\n      0x00\n      keccak256\n        /* \"contracts/Pool/PoolPig.sol\":32504:32564  _rOwned[recipient] = _rOwned[recipient].add(rTransferAmount) */\n      dup2\n      swap1\n      sstore\n      pop\n        /* \"contracts/Pool/PoolPig.sol\":32577:32603  _takeLiquidity(tLiquidity) */\n      tag_483\n        /* \"contracts/Pool/PoolPig.sol\":32592:32602  tLiquidity */\n      dup2\n        /* \"contracts/Pool/PoolPig.sol\":32577:32591  _takeLiquidity */\n      tag_484\n        /* \"contracts/Pool/PoolPig.sol\":32577:32603  _takeLiquidity(tLiquidity) */\n      jump\t// in\n    tag_483:\n        /* \"contracts/Pool/PoolPig.sol\":32613:32636  _reflectFee(rFee, tFee) */\n      tag_485\n        /* \"contracts/Pool/PoolPig.sol\":32625:32629  rFee */\n      dup5\n        /* \"contracts/Pool/PoolPig.sol\":32631:32635  tFee */\n      dup4\n        /* \"contracts/Pool/PoolPig.sol\":32613:32624  _reflectFee */\n      tag_486\n        /* \"contracts/Pool/PoolPig.sol\":32613:32636  _reflectFee(rFee, tFee) */\n      jump\t// in\n    tag_485:\n        /* \"contracts/Pool/PoolPig.sol\":32668:32677  recipient */\n      dup8\n        /* \"contracts/Pool/PoolPig.sol\":32651:32695  Transfer(sender, recipient, tTransferAmount) */\n      0xffffffffffffffffffffffffffffffffffffffff\n      and\n        /* \"contracts/Pool/PoolPig.sol\":32660:32666  sender */\n      dup10\n        /* \"contracts/Pool/PoolPig.sol\":32651:32695  Transfer(sender, recipient, tTransferAmount) */\n      0xffffffffffffffffffffffffffffffffffffffff\n      and\n      0xddf252ad1be2c89b69c2b068fc378daa952ba7f163c4a11628f55a4df523b3ef\n        /* \"contracts/Pool/PoolPig.sol\":32679:32694  tTransferAmount */\n      dup6\n        /* \"contracts/Pool/PoolPig.sol\":32651:32695  Transfer(sender, recipient, tTransferAmount) */\n      mload(0x40)\n      dup1\n      dup3\n      dup2\n      mstore\n      0x20\n      add\n      swap2\n      pop\n      pop\n      mload(0x40)\n      dup1\n      swap2\n      sub\n      swap1\n      log3\n        /* \"contracts/Pool/PoolPig.sol\":32144:32702  function _transferFromExcluded(address sender, address recipient, uint256 tAmount) private {... */\n      pop\n      pop\n      pop\n      pop\n      pop\n      pop\n      pop\n      pop\n      pop\n      jump\t// out\n        /* \"contracts/Pool/PoolPig.sol\":31560:32138  function _transferToExcluded(address sender, address recipient, uint256 tAmount) private {... */\n    tag_398:\n        /* \"contracts/Pool/PoolPig.sol\":31660:31675  uint256 rAmount */\n      0x00\n        /* \"contracts/Pool/PoolPig.sol\":31677:31700  uint256 rTransferAmount */\n      dup1\n        /* \"contracts/Pool/PoolPig.sol\":31702:31714  uint256 rFee */\n      0x00\n        /* \"contracts/Pool/PoolPig.sol\":31716:31739  uint256 tTransferAmount */\n      dup1\n        /* \"contracts/Pool/PoolPig.sol\":31741:31753  uint256 tFee */\n      0x00\n        /* \"contracts/Pool/PoolPig.sol\":31755:31773  uint256 tLiquidity */\n      dup1\n        /* \"contracts/Pool/PoolPig.sol\":31777:31796  _getValues(tAmount) */\n      tag_488\n        /* \"contracts/Pool/PoolPig.sol\":31788:31795  tAmount */\n      dup8\n        /* \"contracts/Pool/PoolPig.sol\":31777:31787  _getValues */\n      tag_247\n        /* \"contracts/Pool/PoolPig.sol\":31777:31796  _getValues(tAmount) */\n      jump\t// in\n    tag_488:\n        /* \"contracts/Pool/PoolPig.sol\":31659:31796  (uint256 rAmount, uint256 rTransferAmount, uint256 rFee, uint256 tTransferAmount, uint256 tFee, uint256 tLiquidity) = _getValues(tAmount) */\n      swap6\n      pop\n      swap6\n      pop\n      swap6\n      pop\n      swap6\n      pop\n      swap6\n      pop\n      swap6\n      pop\n        /* \"contracts/Pool/PoolPig.sol\":31824:31852  _rOwned[sender].sub(rAmount) */\n      tag_489\n        /* \"contracts/Pool/PoolPig.sol\":31844:31851  rAmount */\n      dup7\n        /* \"contracts/Pool/PoolPig.sol\":31824:31831  _rOwned */\n      0x03\n        /* \"contracts/Pool/PoolPig.sol\":31824:31839  _rOwned[sender] */\n      0x00\n        /* \"contracts/Pool/PoolPig.sol\":31832:31838  sender */\n      dup13\n        /* \"contracts/Pool/PoolPig.sol\":31824:31839  _rOwned[sender] */\n      0xffffffffffffffffffffffffffffffffffffffff\n      and\n      0xffffffffffffffffffffffffffffffffffffffff\n      and\n      dup2\n      mstore\n      0x20\n      add\n      swap1\n      dup2\n      mstore\n      0x20\n      add\n      0x00\n      keccak256\n      sload\n        /* \"contracts/Pool/PoolPig.sol\":31824:31843  _rOwned[sender].sub */\n      tag_249\n      swap1\n        /* \"contracts/Pool/PoolPig.sol\":31824:31852  _rOwned[sender].sub(rAmount) */\n      swap2\n      swap1\n      0xffffffff\n      and\n      jump\t// in\n    tag_489:\n        /* \"contracts/Pool/PoolPig.sol\":31806:31813  _rOwned */\n      0x03\n        /* \"contracts/Pool/PoolPig.sol\":31806:31821  _rOwned[sender] */\n      0x00\n        /* \"contracts/Pool/PoolPig.sol\":31814:31820  sender */\n      dup12\n        /* \"contracts/Pool/PoolPig.sol\":31806:31821  _rOwned[sender] */\n      0xffffffffffffffffffffffffffffffffffffffff\n      and\n      0xffffffffffffffffffffffffffffffffffffffff\n      and\n      dup2\n      mstore\n      0x20\n      add\n      swap1\n      dup2\n      mstore\n      0x20\n      add\n      0x00\n      keccak256\n        /* \"contracts/Pool/PoolPig.sol\":31806:31852  _rOwned[sender] = _rOwned[sender].sub(rAmount) */\n      dup2\n      swap1\n      sstore\n      pop\n        /* \"contracts/Pool/PoolPig.sol\":31883:31922  _tOwned[recipient].add(tTransferAmount) */\n      tag_490\n        /* \"contracts/Pool/PoolPig.sol\":31906:31921  tTransferAmount */\n      dup4\n        /* \"contracts/Pool/PoolPig.sol\":31883:31890  _tOwned */\n      0x04\n        /* \"contracts/Pool/PoolPig.sol\":31883:31901  _tOwned[recipient] */\n      0x00\n        /* \"contracts/Pool/PoolPig.sol\":31891:31900  recipient */\n      dup12\n        /* \"contracts/Pool/PoolPig.sol\":31883:31901  _tOwned[recipient] */\n      0xffffffffffffffffffffffffffffffffffffffff\n      and\n      0xffffffffffffffffffffffffffffffffffffffff\n      and\n      dup2\n      mstore\n      0x20\n      add\n      swap1\n      dup2\n      mstore\n      0x20\n      add\n      0x00\n      keccak256\n      sload\n        /* \"contracts/Pool/PoolPig.sol\":31883:31905  _tOwned[recipient].add */\n      tag_242\n      swap1\n        /* \"contracts/Pool/PoolPig.sol\":31883:31922  _tOwned[recipient].add(tTransferAmount) */\n      swap2\n      swap1\n      0xffffffff\n      and\n      jump\t// in\n    tag_490:\n        /* \"contracts/Pool/PoolPig.sol\":31862:31869  _tOwned */\n      0x04\n        /* \"contracts/Pool/PoolPig.sol\":31862:31880  _tOwned[recipient] */\n      0x00\n        /* \"contracts/Pool/PoolPig.sol\":31870:31879  recipient */\n      dup11\n        /* \"contracts/Pool/PoolPig.sol\":31862:31880  _tOwned[recipient] */\n      0xffffffffffffffffffffffffffffffffffffffff\n      and\n      0xffffffffffffffffffffffffffffffffffffffff\n      and\n      dup2\n      mstore\n      0x20\n      add\n      swap1\n      dup2\n      mstore\n      0x20\n      add\n      0x00\n      keccak256\n        /* \"contracts/Pool/PoolPig.sol\":31862:31922  _tOwned[recipient] = _tOwned[recipient].add(tTransferAmount) */\n      dup2\n      swap1\n      sstore\n      pop\n        /* \"contracts/Pool/PoolPig.sol\":31953:31992  _rOwned[recipient].add(rTransferAmount) */\n      tag_491\n        /* \"contracts/Pool/PoolPig.sol\":31976:31991  rTransferAmount */\n      dup6\n        /* \"contracts/Pool/PoolPig.sol\":31953:31960  _rOwned */\n      0x03\n        /* \"contracts/Pool/PoolPig.sol\":31953:31971  _rOwned[recipient] */\n      0x00\n        /* \"contracts/Pool/PoolPig.sol\":31961:31970  recipient */\n      dup12\n        /* \"contracts/Pool/PoolPig.sol\":31953:31971  _rOwned[recipient] */\n      0xffffffffffffffffffffffffffffffffffffffff\n      and\n      0xffffffffffffffffffffffffffffffffffffffff\n      and\n      dup2\n      mstore\n      0x20\n      add\n      swap1\n      dup2\n      mstore\n      0x20\n      add\n      0x00\n      keccak256\n      sload\n        /* \"contracts/Pool/PoolPig.sol\":31953:31975  _rOwned[recipient].add */\n      tag_242\n      swap1\n        /* \"contracts/Pool/PoolPig.sol\":31953:31992  _rOwned[recipient].add(rTransferAmount) */\n      swap2\n      swap1\n      0xffffffff\n      and\n      jump\t// in\n    tag_491:\n        /* \"contracts/Pool/PoolPig.sol\":31932:31939  _rOwned */\n      0x03\n        /* \"contracts/Pool/PoolPig.sol\":31932:31950  _rOwned[recipient] */\n      0x00\n        /* \"contracts/Pool/PoolPig.sol\":31940:31949  recipient */\n      dup11\n        /* \"contracts/Pool/PoolPig.sol\":31932:31950  _rOwned[recipient] */\n      0xffffffffffffffffffffffffffffffffffffffff\n      and\n      0xffffffffffffffffffffffffffffffffffffffff\n      and\n      dup2\n      mstore\n      0x20\n      add\n      swap1\n      dup2\n      mstore\n      0x20\n      add\n      0x00\n      keccak256\n        /* \"contracts/Pool/PoolPig.sol\":31932:31992  _rOwned[recipient] = _rOwned[recipient].add(rTransferAmount) */\n      dup2\n      swap1\n      sstore\n      pop\n        /* \"contracts/Pool/PoolPig.sol\":32013:32039  _takeLiquidity(tLiquidity) */\n      tag_492\n        /* \"contracts/Pool/PoolPig.sol\":32028:32038  tLiquidity */\n      dup2\n        /* \"contracts/Pool/PoolPig.sol\":32013:32027  _takeLiquidity */\n      tag_484\n        /* \"contracts/Pool/PoolPig.sol\":32013:32039  _takeLiquidity(tLiquidity) */\n      jump\t// in\n    tag_492:\n        /* \"contracts/Pool/PoolPig.sol\":32049:32072  _reflectFee(rFee, tFee) */\n      tag_493\n        /* \"contracts/Pool/PoolPig.sol\":32061:32065  rFee */\n      dup5\n        /* \"contracts/Pool/PoolPig.sol\":32067:32071  tFee */\n      dup4\n        /* \"contracts/Pool/PoolPig.sol\":32049:32060  _reflectFee */\n      tag_486\n        /* \"contracts/Pool/PoolPig.sol\":32049:32072  _reflectFee(rFee, tFee) */\n      jump\t// in\n    tag_493:\n        /* \"contracts/Pool/PoolPig.sol\":32104:32113  recipient */\n      dup8\n        /* \"contracts/Pool/PoolPig.sol\":32087:32131  Transfer(sender, recipient, tTransferAmount) */\n      0xffffffffffffffffffffffffffffffffffffffff\n      and\n        /* \"contracts/Pool/PoolPig.sol\":32096:32102  sender */\n      dup10\n        /* \"contracts/Pool/PoolPig.sol\":32087:32131  Transfer(sender, recipient, tTransferAmount) */\n      0xffffffffffffffffffffffffffffffffffffffff\n      and\n      0xddf252ad1be2c89b69c2b068fc378daa952ba7f163c4a11628f55a4df523b3ef\n        /* \"contracts/Pool/PoolPig.sol\":32115:32130  tTransferAmount */\n      dup6\n        /* \"contracts/Pool/PoolPig.sol\":32087:32131  Transfer(sender, recipient, tTransferAmount) */\n      mload(0x40)\n      dup1\n      dup3\n      dup2\n      mstore\n      0x20\n      add\n      swap2\n      pop\n      pop\n      mload(0x40)\n      dup1\n      swap2\n      sub\n      swap1\n      log3\n        /* \"contracts/Pool/PoolPig.sol\":31560:32138  function _transferToExcluded(address sender, address recipient, uint256 tAmount) private {... */\n      pop\n      pop\n      pop\n      pop\n      pop\n      pop\n      pop\n      pop\n      pop\n      jump\t// out\n        /* \"contracts/Pool/PoolPig.sol\":31059:31554  function _transferStandard(address sender, address recipient, uint256 tAmount) private {... */\n    tag_403:\n        /* \"contracts/Pool/PoolPig.sol\":31157:31172  uint256 rAmount */\n      0x00\n        /* \"contracts/Pool/PoolPig.sol\":31174:31197  uint256 rTransferAmount */\n      dup1\n        /* \"contracts/Pool/PoolPig.sol\":31199:31211  uint256 rFee */\n      0x00\n        /* \"contracts/Pool/PoolPig.sol\":31213:31236  uint256 tTransferAmount */\n      dup1\n        /* \"contracts/Pool/PoolPig.sol\":31238:31250  uint256 tFee */\n      0x00\n        /* \"contracts/Pool/PoolPig.sol\":31252:31270  uint256 tLiquidity */\n      dup1\n        /* \"contracts/Pool/PoolPig.sol\":31274:31293  _getValues(tAmount) */\n      tag_495\n        /* \"contracts/Pool/PoolPig.sol\":31285:31292  tAmount */\n      dup8\n        /* \"contracts/Pool/PoolPig.sol\":31274:31284  _getValues */\n      tag_247\n        /* \"contracts/Pool/PoolPig.sol\":31274:31293  _getValues(tAmount) */\n      jump\t// in\n    tag_495:\n        /* \"contracts/Pool/PoolPig.sol\":31156:31293  (uint256 rAmount, uint256 rTransferAmount, uint256 rFee, uint256 tTransferAmount, uint256 tFee, uint256 tLiquidity) = _getValues(tAmount) */\n      swap6\n      pop\n      swap6\n      pop\n      swap6\n      pop\n      swap6\n      pop\n      swap6\n      pop\n      swap6\n      pop\n        /* \"contracts/Pool/PoolPig.sol\":31321:31349  _rOwned[sender].sub(rAmount) */\n      tag_496\n        /* \"contracts/Pool/PoolPig.sol\":31341:31348  rAmount */\n      dup7\n        /* \"contracts/Pool/PoolPig.sol\":31321:31328  _rOwned */\n      0x03\n        /* \"contracts/Pool/PoolPig.sol\":31321:31336  _rOwned[sender] */\n      0x00\n        /* \"contracts/Pool/PoolPig.sol\":31329:31335  sender */\n      dup13\n        /* \"contracts/Pool/PoolPig.sol\":31321:31336  _rOwned[sender] */\n      0xffffffffffffffffffffffffffffffffffffffff\n      and\n      0xffffffffffffffffffffffffffffffffffffffff\n      and\n      dup2\n      mstore\n      0x20\n      add\n      swap1\n      dup2\n      mstore\n      0x20\n      add\n      0x00\n      keccak256\n      sload\n        /* \"contracts/Pool/PoolPig.sol\":31321:31340  _rOwned[sender].sub */\n      tag_249\n      swap1\n        /* \"contracts/Pool/PoolPig.sol\":31321:31349  _rOwned[sender].sub(rAmount) */\n      swap2\n      swap1\n      0xffffffff\n      and\n      jump\t// in\n    tag_496:\n        /* \"contracts/Pool/PoolPig.sol\":31303:31310  _rOwned */\n      0x03\n        /* \"contracts/Pool/PoolPig.sol\":31303:31318  _rOwned[sender] */\n      0x00\n        /* \"contracts/Pool/PoolPig.sol\":31311:31317  sender */\n      dup12\n        /* \"contracts/Pool/PoolPig.sol\":31303:31318  _rOwned[sender] */\n      0xffffffffffffffffffffffffffffffffffffffff\n      and\n      0xffffffffffffffffffffffffffffffffffffffff\n      and\n      dup2\n      mstore\n      0x20\n      add\n      swap1\n      dup2\n      mstore\n      0x20\n      add\n      0x00\n      keccak256\n        /* \"contracts/Pool/PoolPig.sol\":31303:31349  _rOwned[sender] = _rOwned[sender].sub(rAmount) */\n      dup2\n      swap1\n      sstore\n      pop\n        /* \"contracts/Pool/PoolPig.sol\":31380:31419  _rOwned[recipient].add(rTransferAmount) */\n      tag_497\n        /* \"contracts/Pool/PoolPig.sol\":31403:31418  rTransferAmount */\n      dup6\n        /* \"contracts/Pool/PoolPig.sol\":31380:31387  _rOwned */\n      0x03\n        /* \"contracts/Pool/PoolPig.sol\":31380:31398  _rOwned[recipient] */\n      0x00\n        /* \"contracts/Pool/PoolPig.sol\":31388:31397  recipient */\n      dup12\n        /* \"contracts/Pool/PoolPig.sol\":31380:31398  _rOwned[recipient] */\n      0xffffffffffffffffffffffffffffffffffffffff\n      and\n      0xffffffffffffffffffffffffffffffffffffffff\n      and\n      dup2\n      mstore\n      0x20\n      add\n      swap1\n      dup2\n      mstore\n      0x20\n      add\n      0x00\n      keccak256\n      sload\n        /* \"contracts/Pool/PoolPig.sol\":31380:31402  _rOwned[recipient].add */\n      tag_242\n      swap1\n        /* \"contracts/Pool/PoolPig.sol\":31380:31419  _rOwned[recipient].add(rTransferAmount) */\n      swap2\n      swap1\n      0xffffffff\n      and\n      jump\t// in\n    tag_497:\n        /* \"contracts/Pool/PoolPig.sol\":31359:31366  _rOwned */\n      0x03\n        /* \"contracts/Pool/PoolPig.sol\":31359:31377  _rOwned[recipient] */\n      0x00\n        /* \"contracts/Pool/PoolPig.sol\":31367:31376  recipient */\n      dup11\n        /* \"contracts/Pool/PoolPig.sol\":31359:31377  _rOwned[recipient] */\n      0xffffffffffffffffffffffffffffffffffffffff\n      and\n      0xffffffffffffffffffffffffffffffffffffffff\n      and\n      dup2\n      mstore\n      0x20\n      add\n      swap1\n      dup2\n      mstore\n      0x20\n      add\n      0x00\n      keccak256\n        /* \"contracts/Pool/PoolPig.sol\":31359:31419  _rOwned[recipient] = _rOwned[recipient].add(rTransferAmount) */\n      dup2\n      swap1\n      sstore\n      pop\n        /* \"contracts/Pool/PoolPig.sol\":31429:31455  _takeLiquidity(tLiquidity) */\n      tag_498\n        /* \"contracts/Pool/PoolPig.sol\":31444:31454  tLiquidity */\n      dup2\n        /* \"contracts/Pool/PoolPig.sol\":31429:31443  _takeLiquidity */\n      tag_484\n        /* \"contracts/Pool/PoolPig.sol\":31429:31455  _takeLiquidity(tLiquidity) */\n      jump\t// in\n    tag_498:\n        /* \"contracts/Pool/PoolPig.sol\":31465:31488  _reflectFee(rFee, tFee) */\n      tag_499\n        /* \"contracts/Pool/PoolPig.sol\":31477:31481  rFee */\n      dup5\n        /* \"contracts/Pool/PoolPig.sol\":31483:31487  tFee */\n      dup4\n        /* \"contracts/Pool/PoolPig.sol\":31465:31476  _reflectFee */\n      tag_486\n        /* \"contracts/Pool/PoolPig.sol\":31465:31488  _reflectFee(rFee, tFee) */\n      jump\t// in\n    tag_499:\n        /* \"contracts/Pool/PoolPig.sol\":31520:31529  recipient */\n      dup8\n        /* \"contracts/Pool/PoolPig.sol\":31503:31547  Transfer(sender, recipient, tTransferAmount) */\n      0xffffffffffffffffffffffffffffffffffffffff\n      and\n        /* \"contracts/Pool/PoolPig.sol\":31512:31518  sender */\n      dup10\n        /* \"contracts/Pool/PoolPig.sol\":31503:31547  Transfer(sender, recipient, tTransferAmount) */\n      0xffffffffffffffffffffffffffffffffffffffff\n      and\n      0xddf252ad1be2c89b69c2b068fc378daa952ba7f163c4a11628f55a4df523b3ef\n        /* \"contracts/Pool/PoolPig.sol\":31531:31546  tTransferAmount */\n      dup6\n        /* \"contracts/Pool/PoolPig.sol\":31503:31547  Transfer(sender, recipient, tTransferAmount) */\n      mload(0x40)\n      dup1\n      dup3\n      dup2\n      mstore\n      0x20\n      add\n      swap2\n      pop\n      pop\n      mload(0x40)\n      dup1\n      swap2\n      sub\n      swap1\n      log3\n        /* \"contracts/Pool/PoolPig.sol\":31059:31554  function _transferStandard(address sender, address recipient, uint256 tAmount) private {... */\n      pop\n      pop\n      pop\n      pop\n      pop\n      pop\n      pop\n      pop\n      pop\n      jump\t// out\n        /* \"contracts/Pool/PoolPig.sol\":21467:22100  function _transferBothExcluded(address sender, address recipient, uint256 tAmount) private {... */\n    tag_408:\n        /* \"contracts/Pool/PoolPig.sol\":21569:21584  uint256 rAmount */\n      0x00\n        /* \"contracts/Pool/PoolPig.sol\":21586:21609  uint256 rTransferAmount */\n      dup1\n        /* \"contracts/Pool/PoolPig.sol\":21611:21623  uint256 rFee */\n      0x00\n        /* \"contracts/Pool/PoolPig.sol\":21625:21648  uint256 tTransferAmount */\n      dup1\n        /* \"contracts/Pool/PoolPig.sol\":21650:21662  uint256 tFee */\n      0x00\n        /* \"contracts/Pool/PoolPig.sol\":21664:21682  uint256 tLiquidity */\n      dup1\n        /* \"contracts/Pool/PoolPig.sol\":21686:21705  _getValues(tAmount) */\n      tag_501\n        /* \"contracts/Pool/PoolPig.sol\":21697:21704  tAmount */\n      dup8\n        /* \"contracts/Pool/PoolPig.sol\":21686:21696  _getValues */\n      tag_247\n        /* \"contracts/Pool/PoolPig.sol\":21686:21705  _getValues(tAmount) */\n      jump\t// in\n    tag_501:\n        /* \"contracts/Pool/PoolPig.sol\":21568:21705  (uint256 rAmount, uint256 rTransferAmount, uint256 rFee, uint256 tTransferAmount, uint256 tFee, uint256 tLiquidity) = _getValues(tAmount) */\n      swap6\n      pop\n      swap6\n      pop\n      swap6\n      pop\n      swap6\n      pop\n      swap6\n      pop\n      swap6\n      pop\n        /* \"contracts/Pool/PoolPig.sol\":21733:21761  _tOwned[sender].sub(tAmount) */\n      tag_502\n        /* \"contracts/Pool/PoolPig.sol\":21753:21760  tAmount */\n      dup8\n        /* \"contracts/Pool/PoolPig.sol\":21733:21740  _tOwned */\n      0x04\n        /* \"contracts/Pool/PoolPig.sol\":21733:21748  _tOwned[sender] */\n      0x00\n        /* \"contracts/Pool/PoolPig.sol\":21741:21747  sender */\n      dup13\n        /* \"contracts/Pool/PoolPig.sol\":21733:21748  _tOwned[sender] */\n      0xffffffffffffffffffffffffffffffffffffffff\n      and\n      0xffffffffffffffffffffffffffffffffffffffff\n      and\n      dup2\n      mstore\n      0x20\n      add\n      swap1\n      dup2\n      mstore\n      0x20\n      add\n      0x00\n      keccak256\n      sload\n        /* \"contracts/Pool/PoolPig.sol\":21733:21752  _tOwned[sender].sub */\n      tag_249\n      swap1\n        /* \"contracts/Pool/PoolPig.sol\":21733:21761  _tOwned[sender].sub(tAmount) */\n      swap2\n      swap1\n      0xffffffff\n      and\n      jump\t// in\n    tag_502:\n        /* \"contracts/Pool/PoolPig.sol\":21715:21722  _tOwned */\n      0x04\n        /* \"contracts/Pool/PoolPig.sol\":21715:21730  _tOwned[sender] */\n      0x00\n        /* \"contracts/Pool/PoolPig.sol\":21723:21729  sender */\n      dup12\n        /* \"contracts/Pool/PoolPig.sol\":21715:21730  _tOwned[sender] */\n      0xffffffffffffffffffffffffffffffffffffffff\n      and\n      0xffffffffffffffffffffffffffffffffffffffff\n      and\n      dup2\n      mstore\n      0x20\n      add\n      swap1\n      dup2\n      mstore\n      0x20\n      add\n      0x00\n      keccak256\n        /* \"contracts/Pool/PoolPig.sol\":21715:21761  _tOwned[sender] = _tOwned[sender].sub(tAmount) */\n      dup2\n      swap1\n      sstore\n      pop\n        /* \"contracts/Pool/PoolPig.sol\":21789:21817  _rOwned[sender].sub(rAmount) */\n      tag_503\n        /* \"contracts/Pool/PoolPig.sol\":21809:21816  rAmount */\n      dup7\n        /* \"contracts/Pool/PoolPig.sol\":21789:21796  _rOwned */\n      0x03\n        /* \"contracts/Pool/PoolPig.sol\":21789:21804  _rOwned[sender] */\n      0x00\n        /* \"contracts/Pool/PoolPig.sol\":21797:21803  sender */\n      dup13\n        /* \"contracts/Pool/PoolPig.sol\":21789:21804  _rOwned[sender] */\n      0xffffffffffffffffffffffffffffffffffffffff\n      and\n      0xffffffffffffffffffffffffffffffffffffffff\n      and\n      dup2\n      mstore\n      0x20\n      add\n      swap1\n      dup2\n      mstore\n      0x20\n      add\n      0x00\n      keccak256\n      sload\n        /* \"contracts/Pool/PoolPig.sol\":21789:21808  _rOwned[sender].sub */\n      tag_249\n      swap1\n        /* \"contracts/Pool/PoolPig.sol\":21789:21817  _rOwned[sender].sub(rAmount) */\n      swap2\n      swap1\n      0xffffffff\n      and\n      jump\t// in\n    tag_503:\n        /* \"contracts/Pool/PoolPig.sol\":21771:21778  _rOwned */\n      0x03\n        /* \"contracts/Pool/PoolPig.sol\":21771:21786  _rOwned[sender] */\n      0x00\n        /* \"contracts/Pool/PoolPig.sol\":21779:21785  sender */\n      dup12\n        /* \"contracts/Pool/PoolPig.sol\":21771:21786  _rOwned[sender] */\n      0xffffffffffffffffffffffffffffffffffffffff\n      and\n      0xffffffffffffffffffffffffffffffffffffffff\n      and\n      dup2\n      mstore\n      0x20\n      add\n      swap1\n      dup2\n      mstore\n      0x20\n      add\n      0x00\n      keccak256\n        /* \"contracts/Pool/PoolPig.sol\":21771:21817  _rOwned[sender] = _rOwned[sender].sub(rAmount) */\n      dup2\n      swap1\n      sstore\n      pop\n        /* \"contracts/Pool/PoolPig.sol\":21848:21887  _tOwned[recipient].add(tTransferAmount) */\n      tag_504\n        /* \"contracts/Pool/PoolPig.sol\":21871:21886  tTransferAmount */\n      dup4\n        /* \"contracts/Pool/PoolPig.sol\":21848:21855  _tOwned */\n      0x04\n        /* \"contracts/Pool/PoolPig.sol\":21848:21866  _tOwned[recipient] */\n      0x00\n        /* \"contracts/Pool/PoolPig.sol\":21856:21865  recipient */\n      dup12\n        /* \"contracts/Pool/PoolPig.sol\":21848:21866  _tOwned[recipient] */\n      0xffffffffffffffffffffffffffffffffffffffff\n      and\n      0xffffffffffffffffffffffffffffffffffffffff\n      and\n      dup2\n      mstore\n      0x20\n      add\n      swap1\n      dup2\n      mstore\n      0x20\n      add\n      0x00\n      keccak256\n      sload\n        /* \"contracts/Pool/PoolPig.sol\":21848:21870  _tOwned[recipient].add */\n      tag_242\n      swap1\n        /* \"contracts/Pool/PoolPig.sol\":21848:21887  _tOwned[recipient].add(tTransferAmount) */\n      swap2\n      swap1\n      0xffffffff\n      and\n      jump\t// in\n    tag_504:\n        /* \"contracts/Pool/PoolPig.sol\":21827:21834  _tOwned */\n      0x04\n        /* \"contracts/Pool/PoolPig.sol\":21827:21845  _tOwned[recipient] */\n      0x00\n        /* \"contracts/Pool/PoolPig.sol\":21835:21844  recipient */\n      dup11\n        /* \"contracts/Pool/PoolPig.sol\":21827:21845  _tOwned[recipient] */\n      0xffffffffffffffffffffffffffffffffffffffff\n      and\n      0xffffffffffffffffffffffffffffffffffffffff\n      and\n      dup2\n      mstore\n      0x20\n      add\n      swap1\n      dup2\n      mstore\n      0x20\n      add\n      0x00\n      keccak256\n        /* \"contracts/Pool/PoolPig.sol\":21827:21887  _tOwned[recipient] = _tOwned[recipient].add(tTransferAmount) */\n      dup2\n      swap1\n      sstore\n      pop\n        /* \"contracts/Pool/PoolPig.sol\":21918:21957  _rOwned[recipient].add(rTransferAmount) */\n      tag_505\n        /* \"contracts/Pool/PoolPig.sol\":21941:21956  rTransferAmount */\n      dup6\n        /* \"contracts/Pool/PoolPig.sol\":21918:21925  _rOwned */\n      0x03\n        /* \"contracts/Pool/PoolPig.sol\":21918:21936  _rOwned[recipient] */\n      0x00\n        /* \"contracts/Pool/PoolPig.sol\":21926:21935  recipient */\n      dup12\n        /* \"contracts/Pool/PoolPig.sol\":21918:21936  _rOwned[recipient] */\n      0xffffffffffffffffffffffffffffffffffffffff\n      and\n      0xffffffffffffffffffffffffffffffffffffffff\n      and\n      dup2\n      mstore\n      0x20\n      add\n      swap1\n      dup2\n      mstore\n      0x20\n      add\n      0x00\n      keccak256\n      sload\n        /* \"contracts/Pool/PoolPig.sol\":21918:21940  _rOwned[recipient].add */\n      tag_242\n      swap1\n        /* \"contracts/Pool/PoolPig.sol\":21918:21957  _rOwned[recipient].add(rTransferAmount) */\n      swap2\n      swap1\n      0xffffffff\n      and\n      jump\t// in\n    tag_505:\n        /* \"contracts/Pool/PoolPig.sol\":21897:21904  _rOwned */\n      0x03\n        /* \"contracts/Pool/PoolPig.sol\":21897:21915  _rOwned[recipient] */\n      0x00\n        /* \"contracts/Pool/PoolPig.sol\":21905:21914  recipient */\n      dup11\n        /* \"contracts/Pool/PoolPig.sol\":21897:21915  _rOwned[recipient] */\n      0xffffffffffffffffffffffffffffffffffffffff\n      and\n      0xffffffffffffffffffffffffffffffffffffffff\n      and\n      dup2\n      mstore\n      0x20\n      add\n      swap1\n      dup2\n      mstore\n      0x20\n      add\n      0x00\n      keccak256\n        /* \"contracts/Pool/PoolPig.sol\":21897:21957  _rOwned[recipient] = _rOwned[recipient].add(rTransferAmount) */\n      dup2\n      swap1\n      sstore\n      pop\n        /* \"contracts/Pool/PoolPig.sol\":21975:22001  _takeLiquidity(tLiquidity) */\n      tag_506\n        /* \"contracts/Pool/PoolPig.sol\":21990:22000  tLiquidity */\n      dup2\n        /* \"contracts/Pool/PoolPig.sol\":21975:21989  _takeLiquidity */\n      tag_484\n        /* \"contracts/Pool/PoolPig.sol\":21975:22001  _takeLiquidity(tLiquidity) */\n      jump\t// in\n    tag_506:\n        /* \"contracts/Pool/PoolPig.sol\":22011:22034  _reflectFee(rFee, tFee) */\n      tag_507\n        /* \"contracts/Pool/PoolPig.sol\":22023:22027  rFee */\n      dup5\n        /* \"contracts/Pool/PoolPig.sol\":22029:22033  tFee */\n      dup4\n        /* \"contracts/Pool/PoolPig.sol\":22011:22022  _reflectFee */\n      tag_486\n        /* \"contracts/Pool/PoolPig.sol\":22011:22034  _reflectFee(rFee, tFee) */\n      jump\t// in\n    tag_507:\n        /* \"contracts/Pool/PoolPig.sol\":22066:22075  recipient */\n      dup8\n        /* \"contracts/Pool/PoolPig.sol\":22049:22093  Transfer(sender, recipient, tTransferAmount) */\n      0xffffffffffffffffffffffffffffffffffffffff\n      and\n        /* \"contracts/Pool/PoolPig.sol\":22058:22064  sender */\n      dup10\n        /* \"contracts/Pool/PoolPig.sol\":22049:22093  Transfer(sender, recipient, tTransferAmount) */\n      0xffffffffffffffffffffffffffffffffffffffff\n      and\n      0xddf252ad1be2c89b69c2b068fc378daa952ba7f163c4a11628f55a4df523b3ef\n        /* \"contracts/Pool/PoolPig.sol\":22077:22092  tTransferAmount */\n      dup6\n        /* \"contracts/Pool/PoolPig.sol\":22049:22093  Transfer(sender, recipient, tTransferAmount) */\n      mload(0x40)\n      dup1\n      dup3\n      dup2\n      mstore\n      0x20\n      add\n      swap2\n      pop\n      pop\n      mload(0x40)\n      dup1\n      swap2\n      sub\n      swap1\n      log3\n        /* \"contracts/Pool/PoolPig.sol\":21467:22100  function _transferBothExcluded(address sender, address recipient, uint256 tAmount) private {... */\n      pop\n      pop\n      pop\n      pop\n      pop\n      pop\n      pop\n      pop\n      pop\n      jump\t// out\n        /* \"contracts/Pool/PoolPig.sol\":26016:26138  function restoreAllFee() private {... */\n    tag_413:\n        /* \"contracts/Pool/PoolPig.sol\":26069:26084  _previousTaxFee */\n      sload(0x0f)\n        /* \"contracts/Pool/PoolPig.sol\":26059:26066  _taxFee */\n      0x0e\n        /* \"contracts/Pool/PoolPig.sol\":26059:26084  _taxFee = _previousTaxFee */\n      dup2\n      swap1\n      sstore\n      pop\n        /* \"contracts/Pool/PoolPig.sol\":26110:26131  _previousLiquidityFee */\n      sload(0x11)\n        /* \"contracts/Pool/PoolPig.sol\":26094:26107  _liquidityFee */\n      0x10\n        /* \"contracts/Pool/PoolPig.sol\":26094:26131  _liquidityFee = _previousLiquidityFee */\n      dup2\n      swap1\n      sstore\n      pop\n        /* \"contracts/Pool/PoolPig.sol\":26016:26138  function restoreAllFee() private {... */\n      jump\t// out\n        /* \"contracts/Pool/PoolPig.sol\":25436:25586  function calculateTaxFee(uint256 _amount) private view returns (uint256) {... */\n    tag_441:\n        /* \"contracts/Pool/PoolPig.sol\":25500:25507  uint256 */\n      0x00\n        /* \"contracts/Pool/PoolPig.sol\":25526:25579  _amount.mul(_taxFee).div(... */\n      tag_510\n        /* \"contracts/Pool/PoolPig.sol\":25564:25569  10**2 */\n      0x64\n        /* \"contracts/Pool/PoolPig.sol\":25526:25546  _amount.mul(_taxFee) */\n      tag_511\n        /* \"contracts/Pool/PoolPig.sol\":25538:25545  _taxFee */\n      sload(0x0e)\n        /* \"contracts/Pool/PoolPig.sol\":25526:25533  _amount */\n      dup6\n        /* \"contracts/Pool/PoolPig.sol\":25526:25537  _amount.mul */\n      tag_310\n      swap1\n        /* \"contracts/Pool/PoolPig.sol\":25526:25546  _amount.mul(_taxFee) */\n      swap2\n      swap1\n      0xffffffff\n      and\n      jump\t// in\n    tag_511:\n        /* \"contracts/Pool/PoolPig.sol\":25526:25550  _amount.mul(_taxFee).div */\n      tag_218\n      swap1\n        /* \"contracts/Pool/PoolPig.sol\":25526:25579  _amount.mul(_taxFee).div(... */\n      swap2\n      swap1\n      0xffffffff\n      and\n      jump\t// in\n    tag_510:\n        /* \"contracts/Pool/PoolPig.sol\":25519:25579  return _amount.mul(_taxFee).div(... */\n      swap1\n      pop\n        /* \"contracts/Pool/PoolPig.sol\":25436:25586  function calculateTaxFee(uint256 _amount) private view returns (uint256) {... */\n      swap2\n      swap1\n      pop\n      jump\t// out\n        /* \"contracts/Pool/PoolPig.sol\":25592:25754  function calculateLiquidityFee(uint256 _amount) private view returns (uint256) {... */\n    tag_443:\n        /* \"contracts/Pool/PoolPig.sol\":25662:25669  uint256 */\n      0x00\n        /* \"contracts/Pool/PoolPig.sol\":25688:25747  _amount.mul(_liquidityFee).div(... */\n      tag_513\n        /* \"contracts/Pool/PoolPig.sol\":25732:25737  10**2 */\n      0x64\n        /* \"contracts/Pool/PoolPig.sol\":25688:25714  _amount.mul(_liquidityFee) */\n      tag_514\n        /* \"contracts/Pool/PoolPig.sol\":25700:25713  _liquidityFee */\n      sload(0x10)\n        /* \"contracts/Pool/PoolPig.sol\":25688:25695  _amount */\n      dup6\n        /* \"contracts/Pool/PoolPig.sol\":25688:25699  _amount.mul */\n      tag_310\n      swap1\n        /* \"contracts/Pool/PoolPig.sol\":25688:25714  _amount.mul(_liquidityFee) */\n      swap2\n      swap1\n      0xffffffff\n      and\n      jump\t// in\n    tag_514:\n        /* \"contracts/Pool/PoolPig.sol\":25688:25718  _amount.mul(_liquidityFee).div */\n      tag_218\n      swap1\n        /* \"contracts/Pool/PoolPig.sol\":25688:25747  _amount.mul(_liquidityFee).div(... */\n      swap2\n      swap1\n      0xffffffff\n      and\n      jump\t// in\n    tag_513:\n        /* \"contracts/Pool/PoolPig.sol\":25681:25747  return _amount.mul(_liquidityFee).div(... */\n      swap1\n      pop\n        /* \"contracts/Pool/PoolPig.sol\":25592:25754  function calculateLiquidityFee(uint256 _amount) private view returns (uint256) {... */\n      swap2\n      swap1\n      pop\n      jump\t// out\n        /* \"contracts/Pool/PoolPig.sol\":25077:25426  function _takeLiquidity(uint256 tLiquidity) private {... */\n    tag_484:\n        /* \"contracts/Pool/PoolPig.sol\":25139:25158  uint256 currentRate */\n      0x00\n        /* \"contracts/Pool/PoolPig.sol\":25162:25172  _getRate() */\n      tag_516\n        /* \"contracts/Pool/PoolPig.sol\":25162:25170  _getRate */\n      tag_216\n        /* \"contracts/Pool/PoolPig.sol\":25162:25172  _getRate() */\n      jump\t// in\n    tag_516:\n        /* \"contracts/Pool/PoolPig.sol\":25139:25172  uint256 currentRate =  _getRate() */\n      swap1\n      pop\n        /* \"contracts/Pool/PoolPig.sol\":25182:25200  uint256 rLiquidity */\n      0x00\n        /* \"contracts/Pool/PoolPig.sol\":25203:25230  tLiquidity.mul(currentRate) */\n      tag_517\n        /* \"contracts/Pool/PoolPig.sol\":25218:25229  currentRate */\n      dup3\n        /* \"contracts/Pool/PoolPig.sol\":25203:25213  tLiquidity */\n      dup5\n        /* \"contracts/Pool/PoolPig.sol\":25203:25217  tLiquidity.mul */\n      tag_310\n      swap1\n        /* \"contracts/Pool/PoolPig.sol\":25203:25230  tLiquidity.mul(currentRate) */\n      swap2\n      swap1\n      0xffffffff\n      and\n      jump\t// in\n    tag_517:\n        /* \"contracts/Pool/PoolPig.sol\":25182:25230  uint256 rLiquidity = tLiquidity.mul(currentRate) */\n      swap1\n      pop\n        /* \"contracts/Pool/PoolPig.sol\":25265:25303  _rOwned[address(this)].add(rLiquidity) */\n      tag_518\n        /* \"contracts/Pool/PoolPig.sol\":25292:25302  rLiquidity */\n      dup2\n        /* \"contracts/Pool/PoolPig.sol\":25265:25272  _rOwned */\n      0x03\n        /* \"contracts/Pool/PoolPig.sol\":25265:25287  _rOwned[address(this)] */\n      0x00\n        /* \"contracts/Pool/PoolPig.sol\":25281:25285  this */\n      address\n        /* \"contracts/Pool/PoolPig.sol\":25265:25287  _rOwned[address(this)] */\n      0xffffffffffffffffffffffffffffffffffffffff\n      and\n      0xffffffffffffffffffffffffffffffffffffffff\n      and\n      dup2\n      mstore\n      0x20\n      add\n      swap1\n      dup2\n      mstore\n      0x20\n      add\n      0x00\n      keccak256\n      sload\n        /* \"contracts/Pool/PoolPig.sol\":25265:25291  _rOwned[address(this)].add */\n      tag_242\n      swap1\n        /* \"contracts/Pool/PoolPig.sol\":25265:25303  _rOwned[address(this)].add(rLiquidity) */\n      swap2\n      swap1\n      0xffffffff\n      and\n      jump\t// in\n    tag_518:\n        /* \"contracts/Pool/PoolPig.sol\":25240:25247  _rOwned */\n      0x03\n        /* \"contracts/Pool/PoolPig.sol\":25240:25262  _rOwned[address(this)] */\n      0x00\n        /* \"contracts/Pool/PoolPig.sol\":25256:25260  this */\n      address\n        /* \"contracts/Pool/PoolPig.sol\":25240:25262  _rOwned[address(this)] */\n      0xffffffffffffffffffffffffffffffffffffffff\n      and\n      0xffffffffffffffffffffffffffffffffffffffff\n      and\n      dup2\n      mstore\n      0x20\n      add\n      swap1\n      dup2\n      mstore\n      0x20\n      add\n      0x00\n      keccak256\n        /* \"contracts/Pool/PoolPig.sol\":25240:25303  _rOwned[address(this)] = _rOwned[address(this)].add(rLiquidity) */\n      dup2\n      swap1\n      sstore\n      pop\n        /* \"contracts/Pool/PoolPig.sol\":25316:25327  _isExcluded */\n      0x07\n        /* \"contracts/Pool/PoolPig.sol\":25316:25342  _isExcluded[address(this)] */\n      0x00\n        /* \"contracts/Pool/PoolPig.sol\":25336:25340  this */\n      address\n        /* \"contracts/Pool/PoolPig.sol\":25316:25342  _isExcluded[address(this)] */\n      0xffffffffffffffffffffffffffffffffffffffff\n      and\n      0xffffffffffffffffffffffffffffffffffffffff\n      and\n      dup2\n      mstore\n      0x20\n      add\n      swap1\n      dup2\n      mstore\n      0x20\n      add\n      0x00\n      keccak256\n      0x00\n      swap1\n      sload\n      swap1\n      0x0100\n      exp\n      swap1\n      div\n      0xff\n      and\n        /* \"contracts/Pool/PoolPig.sol\":25313:25419  if(_isExcluded[address(this)])... */\n      iszero\n      tag_519\n      jumpi\n        /* \"contracts/Pool/PoolPig.sol\":25381:25419  _tOwned[address(this)].add(tLiquidity) */\n      tag_520\n        /* \"contracts/Pool/PoolPig.sol\":25408:25418  tLiquidity */\n      dup4\n        /* \"contracts/Pool/PoolPig.sol\":25381:25388  _tOwned */\n      0x04\n        /* \"contracts/Pool/PoolPig.sol\":25381:25403  _tOwned[address(this)] */\n      0x00\n        /* \"contracts/Pool/PoolPig.sol\":25397:25401  this */\n      address\n        /* \"contracts/Pool/PoolPig.sol\":25381:25403  _tOwned[address(this)] */\n      0xffffffffffffffffffffffffffffffffffffffff\n      and\n      0xffffffffffffffffffffffffffffffffffffffff\n      and\n      dup2\n      mstore\n      0x20\n      add\n      swap1\n      dup2\n      mstore\n      0x20\n      add\n      0x00\n      keccak256\n      sload\n        /* \"contracts/Pool/PoolPig.sol\":25381:25407  _tOwned[address(this)].add */\n      tag_242\n      swap1\n        /* \"contracts/Pool/PoolPig.sol\":25381:25419  _tOwned[address(this)].add(tLiquidity) */\n      swap2\n      swap1\n      0xffffffff\n      and\n      jump\t// in\n    tag_520:\n        /* \"contracts/Pool/PoolPig.sol\":25356:25363  _tOwned */\n      0x04\n        /* \"contracts/Pool/PoolPig.sol\":25356:25378  _tOwned[address(this)] */\n      0x00\n        /* \"contracts/Pool/PoolPig.sol\":25372:25376  this */\n      address\n        /* \"contracts/Pool/PoolPig.sol\":25356:25378  _tOwned[address(this)] */\n      0xffffffffffffffffffffffffffffffffffffffff\n      and\n      0xffffffffffffffffffffffffffffffffffffffff\n      and\n      dup2\n      mstore\n      0x20\n      add\n      swap1\n      dup2\n      mstore\n      0x20\n      add\n      0x00\n      keccak256\n        /* \"contracts/Pool/PoolPig.sol\":25356:25419  _tOwned[address(this)] = _tOwned[address(this)].add(tLiquidity) */\n      dup2\n      swap1\n      sstore\n      pop\n        /* \"contracts/Pool/PoolPig.sol\":25313:25419  if(_isExcluded[address(this)])... */\n    tag_519:\n        /* \"contracts/Pool/PoolPig.sol\":25077:25426  function _takeLiquidity(uint256 tLiquidity) private {... */\n      pop\n      pop\n      pop\n      jump\t// out\n        /* \"contracts/Pool/PoolPig.sol\":23019:23163  function _reflectFee(uint256 rFee, uint256 tFee) private {... */\n    tag_486:\n        /* \"contracts/Pool/PoolPig.sol\":23096:23113  _rTotal.sub(rFee) */\n      tag_522\n        /* \"contracts/Pool/PoolPig.sol\":23108:23112  rFee */\n      dup3\n        /* \"contracts/Pool/PoolPig.sol\":23096:23103  _rTotal */\n      sload(0x09)\n        /* \"contracts/Pool/PoolPig.sol\":23096:23107  _rTotal.sub */\n      tag_249\n      swap1\n        /* \"contracts/Pool/PoolPig.sol\":23096:23113  _rTotal.sub(rFee) */\n      swap2\n      swap1\n      0xffffffff\n      and\n      jump\t// in\n    tag_522:\n        /* \"contracts/Pool/PoolPig.sol\":23086:23093  _rTotal */\n      0x09\n        /* \"contracts/Pool/PoolPig.sol\":23086:23113  _rTotal = _rTotal.sub(rFee) */\n      dup2\n      swap1\n      sstore\n      pop\n        /* \"contracts/Pool/PoolPig.sol\":23136:23156  _tFeeTotal.add(tFee) */\n      tag_523\n        /* \"contracts/Pool/PoolPig.sol\":23151:23155  tFee */\n      dup2\n        /* \"contracts/Pool/PoolPig.sol\":23136:23146  _tFeeTotal */\n      sload(0x0a)\n        /* \"contracts/Pool/PoolPig.sol\":23136:23150  _tFeeTotal.add */\n      tag_242\n      swap1\n        /* \"contracts/Pool/PoolPig.sol\":23136:23156  _tFeeTotal.add(tFee) */\n      swap2\n      swap1\n      0xffffffff\n      and\n      jump\t// in\n    tag_523:\n        /* \"contracts/Pool/PoolPig.sol\":23123:23133  _tFeeTotal */\n      0x0a\n        /* \"contracts/Pool/PoolPig.sol\":23123:23156  _tFeeTotal = _tFeeTotal.add(tFee) */\n      dup2\n      swap1\n      sstore\n      pop\n        /* \"contracts/Pool/PoolPig.sol\":23019:23163  function _reflectFee(uint256 rFee, uint256 tFee) private {... */\n      pop\n      pop\n      jump\t// out\n    stop\n    data_0557e210f7a69a685100a7e4e3d0a7024c546085cee28910fd17d0b081d9516f 45524332303a207472616e7366657220746f20746865207a65726f2061646472657373\n    data_22f7af55a509c3b14f0d528f087748dec8a8bf425135e3f5dc28c6a31ec6d812 416d6f756e74206d757374206265206c657373207468616e20746f74616c207265666c656374696f6e73\n    data_245f15ff17f551913a7a18385165551503906a406f905ac1c2437281a7cd0cfe 4f776e61626c653a206e6577206f776e657220697320746865207a65726f2061646472657373\n    data_24883cc5fe64ace9d0df1893501ecb93c77180f0ff69cca79affb3c316dc8029 45524332303a20617070726f766520746f20746865207a65726f2061646472657373\n    data_72052210969ce5fd88e52b5e685de9548acef9bb1b6d02e29c1765d0674948dd 5472616e7366657220616d6f756e74206578636565647320746865206d61785478416d6f756e742e\n    data_9113bb53c2876a3805b2c9242029423fc540a728243ce887ab24c82cf119fba3 536166654d6174683a206d756c7469706c69636174696f6e206f766572666c6f77\n    data_974d1b4421da69cc60b481194f0dad36a5bb4e23da810da7a7fb30cdba178330 45524332303a207472616e7366657220616d6f756e74206578636565647320616c6c6f77616e6365\n    data_9edb5ab58321f35d2386ea65721c9b107daa2c273610fc16d394af2a320ba785 5472616e7366657220616d6f756e74206d7573742062652067726561746572207468616e207a65726f\n    data_baecc556b46f4ed0f2b4cb599d60785ac8563dd2dc0a5bf12edea1c39e5e1fea 45524332303a207472616e736665722066726f6d20746865207a65726f2061646472657373\n    data_c953f4879035ed60e766b34720f656aab5c697b141d924c283124ecedb91c208 45524332303a20617070726f76652066726f6d20746865207a65726f2061646472657373\n    data_ecefcaf5fbcf9ca6dcdb02298ba1da96f4ead317b0a4779917ecb2e5e7dc3ac4 4578636c75646564206164647265737365732063616e6e6f742063616c6c20746869732066756e6374696f6e\n    data_f4eb59be3df39931213d374c3658377dca3f0d2b46b7bc965af767c57c74b611 596f7520646f6e27742068617665207065726d697373696f6e20746f20756e6c6f636b\n    data_f8b476f7d28209d77d4a4ac1fe36b9f8259aa1bb6bddfa6e89de7e51615cf8a8 45524332303a2064656372656173656420616c6c6f77616e63652062656c6f77207a65726f\n\n    auxdata: 0xa2646970667358221220dd03cadc224dc87b7fcb8fb8667729fd02f8be7173961ba22789827f5299302864736f6c634300060c0033\n}\n",
				"bytecode": {
					"linkReferences": {},
					"object": "60c0604052670de0b6b3a7640000600019816200001857fe5b06600019036009556040518060400160405280600a81526020017f576f726c64205374657000000000000000000000000000000000000000000000815250600b90805190602001906200006d929190620005f9565b506040518060400160405280600381526020017f5753500000000000000000000000000000000000000000000000000000000000815250600c9080519060200190620000bb929190620005f9565b506009600d60006101000a81548160ff021916908360ff1602179055506002600e55600e54600f5560036010556010546011556001601260016101000a81548160ff0219169083151502179055506706f05b59d3b200006013556703782dace9d900006014553480156200012e57600080fd5b50600062000141620005c860201b60201c565b9050806000806101000a81548173ffffffffffffffffffffffffffffffffffffffff021916908373ffffffffffffffffffffffffffffffffffffffff1602179055508073ffffffffffffffffffffffffffffffffffffffff16600073ffffffffffffffffffffffffffffffffffffffff167f8be0079c531659141344cd1fd0a4f28419497f9722a3daafe3b4186f6b6457e060405160405180910390a35060095460036000620001f6620005c860201b60201c565b73ffffffffffffffffffffffffffffffffffffffff1673ffffffffffffffffffffffffffffffffffffffff168152602001908152602001600020819055506000739ac64cc6e4415144c455bd8e4837fea55603e5c390508073ffffffffffffffffffffffffffffffffffffffff1663c45a01556040518163ffffffff1660e01b815260040160206040518083038186803b1580156200029457600080fd5b505afa158015620002a9573d6000803e3d6000fd5b505050506040513d6020811015620002c057600080fd5b810190808051906020019092919050505073ffffffffffffffffffffffffffffffffffffffff1663c9c65396308373ffffffffffffffffffffffffffffffffffffffff1663ad5c46486040518163ffffffff1660e01b815260040160206040518083038186803b1580156200033457600080fd5b505afa15801562000349573d6000803e3d6000fd5b505050506040513d60208110156200036057600080fd5b81019080805190602001909291905050506040518363ffffffff1660e01b8152600401808373ffffffffffffffffffffffffffffffffffffffff1681526020018273ffffffffffffffffffffffffffffffffffffffff16815260200192505050602060405180830381600087803b158015620003db57600080fd5b505af1158015620003f0573d6000803e3d6000fd5b505050506040513d60208110156200040757600080fd5b810190808051906020019092919050505073ffffffffffffffffffffffffffffffffffffffff1660a08173ffffffffffffffffffffffffffffffffffffffff1660601b815250508073ffffffffffffffffffffffffffffffffffffffff1660808173ffffffffffffffffffffffffffffffffffffffff1660601b815250506001600660006200049b620005d060201b60201c565b73ffffffffffffffffffffffffffffffffffffffff1673ffffffffffffffffffffffffffffffffffffffff16815260200190815260200160002060006101000a81548160ff0219169083151502179055506001600660003073ffffffffffffffffffffffffffffffffffffffff1673ffffffffffffffffffffffffffffffffffffffff16815260200190815260200160002060006101000a81548160ff02191690831515021790555062000554620005c860201b60201c565b73ffffffffffffffffffffffffffffffffffffffff16600073ffffffffffffffffffffffffffffffffffffffff167fddf252ad1be2c89b69c2b068fc378daa952ba7f163c4a11628f55a4df523b3ef670de0b6b3a76400006040518082815260200191505060405180910390a3506200069f565b600033905090565b60008060009054906101000a900473ffffffffffffffffffffffffffffffffffffffff16905090565b828054600181600116156101000203166002900490600052602060002090601f016020900481019282601f106200063c57805160ff19168380011785556200066d565b828001600101855582156200066d579182015b828111156200066c5782518255916020019190600101906200064f565b5b5090506200067c919062000680565b5090565b5b808211156200069b57600081600090555060010162000681565b5090565b60805160601c60a05160601c614e57620006e7600039806118425280612fb0525080610ee65280613cb45280613da05280613dc75280613ed25280613ef95250614e576000f3fe60806040526004361061021e5760003560e01c80635342acb411610123578063a457c2d7116100ab578063d543dbeb1161006f578063d543dbeb14610bab578063dd46706414610be6578063dd62ed3e14610c21578063ea2f0b3714610ca6578063f2fde38b14610cf757610225565b8063a457c2d714610a4a578063a69df4b514610abb578063a9059cbb14610ad2578063b6c5232414610b43578063c49b9a8014610b6e57610225565b80637d1db4a5116100f25780637d1db4a5146108ac57806388f82020146108d75780638da5cb5b1461093e5780638ee88c531461097f57806395d89b41146109ba57610225565b80635342acb41461079e5780636bc87c3a1461080557806370a0823114610830578063715018a61461089557610225565b80633685d419116101a6578063437823ec11610175578063437823ec146106335780634549b0391461068457806349bd5a5e146106df5780634a74bb021461072057806352390c021461074d57610225565b80633685d4191461050b578063395093511461055c5780633b124fe7146105cd5780633bd5d173146105f857610225565b80631694505e116101ed5780631694505e1461039157806318160ddd146103d257806323b872dd146103fd5780632d8381191461048e578063313ce567146104dd57610225565b8063061c82d01461022a57806306fdde0314610265578063095ea7b3146102f557806313114a9d1461036657610225565b3661022557005b600080fd5b34801561023657600080fd5b506102636004803603602081101561024d57600080fd5b8101908080359060200190929190505050610d48565b005b34801561027157600080fd5b5061027a610e1a565b6040518080602001828103825283818151815260200191508051906020019080838360005b838110156102ba57808201518184015260208101905061029f565b50505050905090810190601f1680156102e75780820380516001836020036101000a031916815260200191505b509250505060405180910390f35b34801561030157600080fd5b5061034e6004803603604081101561031857600080fd5b81019080803573ffffffffffffffffffffffffffffffffffffffff16906020019092919080359060200190929190505050610ebc565b60405180821515815260200191505060405180910390f35b34801561037257600080fd5b5061037b610eda565b6040518082815260200191505060405180910390f35b34801561039d57600080fd5b506103a6610ee4565b604051808273ffffffffffffffffffffffffffffffffffffffff16815260200191505060405180910390f35b3480156103de57600080fd5b506103e7610f08565b6040518082815260200191505060405180910390f35b34801561040957600080fd5b506104766004803603606081101561042057600080fd5b81019080803573ffffffffffffffffffffffffffffffffffffffff169060200190929190803573ffffffffffffffffffffffffffffffffffffffff16906020019092919080359060200190929190505050610f18565b60405180821515815260200191505060405180910390f35b34801561049a57600080fd5b506104c7600480360360208110156104b157600080fd5b8101908080359060200190929190505050610ff1565b6040518082815260200191505060405180910390f35b3480156104e957600080fd5b506104f2611075565b604051808260ff16815260200191505060405180910390f35b34801561051757600080fd5b5061055a6004803603602081101561052e57600080fd5b81019080803573ffffffffffffffffffffffffffffffffffffffff16906020019092919050505061108c565b005b34801561056857600080fd5b506105b56004803603604081101561057f57600080fd5b81019080803573ffffffffffffffffffffffffffffffffffffffff16906020019092919080359060200190929190505050611416565b60405180821515815260200191505060405180910390f35b3480156105d957600080fd5b506105e26114c9565b6040518082815260200191505060405180910390f35b34801561060457600080fd5b506106316004803603602081101561061b57600080fd5b81019080803590602001909291905050506114cf565b005b34801561063f57600080fd5b506106826004803603602081101561065657600080fd5b81019080803573ffffffffffffffffffffffffffffffffffffffff169060200190929190505050611660565b005b34801561069057600080fd5b506106c9600480360360408110156106a757600080fd5b8101908080359060200190929190803515159060200190929190505050611783565b6040518082815260200191505060405180910390f35b3480156106eb57600080fd5b506106f4611840565b604051808273ffffffffffffffffffffffffffffffffffffffff16815260200191505060405180910390f35b34801561072c57600080fd5b50610735611864565b60405180821515815260200191505060405180910390f35b34801561075957600080fd5b5061079c6004803603602081101561077057600080fd5b81019080803573ffffffffffffffffffffffffffffffffffffffff169060200190929190505050611877565b005b3480156107aa57600080fd5b506107ed600480360360208110156107c157600080fd5b81019080803573ffffffffffffffffffffffffffffffffffffffff169060200190929190505050611b91565b60405180821515815260200191505060405180910390f35b34801561081157600080fd5b5061081a611be7565b6040518082815260200191505060405180910390f35b34801561083c57600080fd5b5061087f6004803603602081101561085357600080fd5b81019080803573ffffffffffffffffffffffffffffffffffffffff169060200190929190505050611bed565b6040518082815260200191505060405180910390f35b3480156108a157600080fd5b506108aa611cd8565b005b3480156108b857600080fd5b506108c1611e5e565b6040518082815260200191505060405180910390f35b3480156108e357600080fd5b50610926600480360360208110156108fa57600080fd5b81019080803573ffffffffffffffffffffffffffffffffffffffff169060200190929190505050611e64565b60405180821515815260200191505060405180910390f35b34801561094a57600080fd5b50610953611eba565b604051808273ffffffffffffffffffffffffffffffffffffffff16815260200191505060405180910390f35b34801561098b57600080fd5b506109b8600480360360208110156109a257600080fd5b8101908080359060200190929190505050611ee3565b005b3480156109c657600080fd5b506109cf611fb5565b6040518080602001828103825283818151815260200191508051906020019080838360005b83811015610a0f5780820151818401526020810190506109f4565b50505050905090810190601f168015610a3c5780820380516001836020036101000a031916815260200191505b509250505060405180910390f35b348015610a5657600080fd5b50610aa360048036036040811015610a6d57600080fd5b81019080803573ffffffffffffffffffffffffffffffffffffffff16906020019092919080359060200190929190505050612057565b60405180821515815260200191505060405180910390f35b348015610ac757600080fd5b50610ad0612124565b005b348015610ade57600080fd5b50610b2b60048036036040811015610af557600080fd5b81019080803573ffffffffffffffffffffffffffffffffffffffff16906020019092919080359060200190929190505050612341565b60405180821515815260200191505060405180910390f35b348015610b4f57600080fd5b50610b5861235f565b6040518082815260200191505060405180910390f35b348015610b7a57600080fd5b50610ba960048036036020811015610b9157600080fd5b81019080803515159060200190929190505050612369565b005b348015610bb757600080fd5b50610be460048036036020811015610bce57600080fd5b8101908080359060200190929190505050612487565b005b348015610bf257600080fd5b50610c1f60048036036020811015610c0957600080fd5b8101908080359060200190929190505050612586565b005b348015610c2d57600080fd5b50610c9060048036036040811015610c4457600080fd5b81019080803573ffffffffffffffffffffffffffffffffffffffff169060200190929190803573ffffffffffffffffffffffffffffffffffffffff169060200190929190505050612777565b6040518082815260200191505060405180910390f35b348015610cb257600080fd5b50610cf560048036036020811015610cc957600080fd5b81019080803573ffffffffffffffffffffffffffffffffffffffff1690602001909291905050506127fe565b005b348015610d0357600080fd5b50610d4660048036036020811015610d1a57600080fd5b81019080803573ffffffffffffffffffffffffffffffffffffffff169060200190929190505050612921565b005b610d50612b2c565b73ffffffffffffffffffffffffffffffffffffffff1660008054906101000a900473ffffffffffffffffffffffffffffffffffffffff1673ffffffffffffffffffffffffffffffffffffffff1614610e10576040517f08c379a00000000000000000000000000000000000000000000000000000000081526004018080602001828103825260208152602001807f4f776e61626c653a2063616c6c6572206973206e6f7420746865206f776e657281525060200191505060405180910390fd5b80600e8190555050565b6060600b8054600181600116156101000203166002900480601f016020809104026020016040519081016040528092919081815260200182805460018160011615610100020316600290048015610eb25780601f10610e8757610100808354040283529160200191610eb2565b820191906000526020600020905b815481529060010190602001808311610e9557829003601f168201915b5050505050905090565b6000610ed0610ec9612b2c565b8484612b34565b6001905092915050565b6000600a54905090565b7f000000000000000000000000000000000000000000000000000000000000000081565b6000670de0b6b3a7640000905090565b6000610f25848484612d2b565b610fe684610f31612b2c565b610fe185604051806060016040528060288152602001614d1460289139600560008b73ffffffffffffffffffffffffffffffffffffffff1673ffffffffffffffffffffffffffffffffffffffff1681526020019081526020016000206000610f97612b2c565b73ffffffffffffffffffffffffffffffffffffffff1673ffffffffffffffffffffffffffffffffffffffff168152602001908152602001600020546130f09092919063ffffffff16565b612b34565b600190509392505050565b600060095482111561104e576040517f08c379a000000000000000000000000000000000000000000000000000000000815260040180806020018281038252602a815260200180614c59602a913960400191505060405180910390fd5b60006110586131b0565b905061106d81846131db90919063ffffffff16565b915050919050565b6000600d60009054906101000a900460ff16905090565b611094612b2c565b73ffffffffffffffffffffffffffffffffffffffff1660008054906101000a900473ffffffffffffffffffffffffffffffffffffffff1673ffffffffffffffffffffffffffffffffffffffff1614611154576040517f08c379a00000000000000000000000000000000000000000000000000000000081526004018080602001828103825260208152602001807f4f776e61626c653a2063616c6c6572206973206e6f7420746865206f776e657281525060200191505060405180910390fd5b600760008273ffffffffffffffffffffffffffffffffffffffff1673ffffffffffffffffffffffffffffffffffffffff16815260200190815260200160002060009054906101000a900460ff16611213576040517f08c379a000000000000000000000000000000000000000000000000000000000815260040180806020018281038252601b8152602001807f4163636f756e7420697320616c7265616479206578636c75646564000000000081525060200191505060405180910390fd5b60005b600880549050811015611412578173ffffffffffffffffffffffffffffffffffffffff166008828154811061124757fe5b9060005260206000200160009054906101000a900473ffffffffffffffffffffffffffffffffffffffff1673ffffffffffffffffffffffffffffffffffffffff161415611405576008600160088054905003815481106112a357fe5b9060005260206000200160009054906101000a900473ffffffffffffffffffffffffffffffffffffffff16600882815481106112db57fe5b9060005260206000200160006101000a81548173ffffffffffffffffffffffffffffffffffffffff021916908373ffffffffffffffffffffffffffffffffffffffff1602179055506000600460008473ffffffffffffffffffffffffffffffffffffffff1673ffffffffffffffffffffffffffffffffffffffff168152602001908152602001600020819055506000600760008473ffffffffffffffffffffffffffffffffffffffff1673ffffffffffffffffffffffffffffffffffffffff16815260200190815260200160002060006101000a81548160ff02191690831515021790555060088054806113cb57fe5b6001900381819060005260206000200160006101000a81549073ffffffffffffffffffffffffffffffffffffffff02191690559055611412565b8080600101915050611216565b5050565b60006114bf611423612b2c565b846114ba8560056000611434612b2c565b73ffffffffffffffffffffffffffffffffffffffff1673ffffffffffffffffffffffffffffffffffffffff16815260200190815260200160002060008973ffffffffffffffffffffffffffffffffffffffff1673ffffffffffffffffffffffffffffffffffffffff1681526020019081526020016000205461322590919063ffffffff16565b612b34565b6001905092915050565b600e5481565b60006114d9612b2c565b9050600760008273ffffffffffffffffffffffffffffffffffffffff1673ffffffffffffffffffffffffffffffffffffffff16815260200190815260200160002060009054906101000a900460ff161561157e576040517f08c379a000000000000000000000000000000000000000000000000000000000815260040180806020018281038252602c815260200180614dae602c913960400191505060405180910390fd5b6000611589836132ad565b505050505090506115e281600360008573ffffffffffffffffffffffffffffffffffffffff1673ffffffffffffffffffffffffffffffffffffffff1681526020019081526020016000205461330990919063ffffffff16565b600360008473ffffffffffffffffffffffffffffffffffffffff1673ffffffffffffffffffffffffffffffffffffffff1681526020019081526020016000208190555061163a8160095461330990919063ffffffff16565b60098190555061165583600a5461322590919063ffffffff16565b600a81905550505050565b611668612b2c565b73ffffffffffffffffffffffffffffffffffffffff1660008054906101000a900473ffffffffffffffffffffffffffffffffffffffff1673ffffffffffffffffffffffffffffffffffffffff1614611728576040517f08c379a00000000000000000000000000000000000000000000000000000000081526004018080602001828103825260208152602001807f4f776e61626c653a2063616c6c6572206973206e6f7420746865206f776e657281525060200191505060405180910390fd5b6001600660008373ffffffffffffffffffffffffffffffffffffffff1673ffffffffffffffffffffffffffffffffffffffff16815260200190815260200160002060006101000a81548160ff02191690831515021790555050565b6000670de0b6b3a7640000831115611803576040517f08c379a000000000000000000000000000000000000000000000000000000000815260040180806020018281038252601f8152602001807f416d6f756e74206d757374206265206c657373207468616e20737570706c790081525060200191505060405180910390fd5b81611823576000611813846132ad565b505050505090508091505061183a565b600061182e846132ad565b50505050915050809150505b92915050565b7f000000000000000000000000000000000000000000000000000000000000000081565b601260019054906101000a900460ff1681565b61187f612b2c565b73ffffffffffffffffffffffffffffffffffffffff1660008054906101000a900473ffffffffffffffffffffffffffffffffffffffff1673ffffffffffffffffffffffffffffffffffffffff161461193f576040517f08c379a00000000000000000000000000000000000000000000000000000000081526004018080602001828103825260208152602001807f4f776e61626c653a2063616c6c6572206973206e6f7420746865206f776e657281525060200191505060405180910390fd5b600760008273ffffffffffffffffffffffffffffffffffffffff1673ffffffffffffffffffffffffffffffffffffffff16815260200190815260200160002060009054906101000a900460ff16156119ff576040517f08c379a000000000000000000000000000000000000000000000000000000000815260040180806020018281038252601b8152602001807f4163636f756e7420697320616c7265616479206578636c75646564000000000081525060200191505060405180910390fd5b6000600360008373ffffffffffffffffffffffffffffffffffffffff1673ffffffffffffffffffffffffffffffffffffffff168152602001908152602001600020541115611ad357611a8f600360008373ffffffffffffffffffffffffffffffffffffffff1673ffffffffffffffffffffffffffffffffffffffff16815260200190815260200160002054610ff1565b600460008373ffffffffffffffffffffffffffffffffffffffff1673ffffffffffffffffffffffffffffffffffffffff168152602001908152602001600020819055505b6001600760008373ffffffffffffffffffffffffffffffffffffffff1673ffffffffffffffffffffffffffffffffffffffff16815260200190815260200160002060006101000a81548160ff0219169083151502179055506008819080600181540180825580915050600190039060005260206000200160009091909190916101000a81548173ffffffffffffffffffffffffffffffffffffffff021916908373ffffffffffffffffffffffffffffffffffffffff16021790555050565b6000600660008373ffffffffffffffffffffffffffffffffffffffff1673ffffffffffffffffffffffffffffffffffffffff16815260200190815260200160002060009054906101000a900460ff169050919050565b60105481565b6000600760008373ffffffffffffffffffffffffffffffffffffffff1673ffffffffffffffffffffffffffffffffffffffff16815260200190815260200160002060009054906101000a900460ff1615611c8857600460008373ffffffffffffffffffffffffffffffffffffffff1673ffffffffffffffffffffffffffffffffffffffff168152602001908152602001600020549050611cd3565b611cd0600360008473ffffffffffffffffffffffffffffffffffffffff1673ffffffffffffffffffffffffffffffffffffffff16815260200190815260200160002054610ff1565b90505b919050565b611ce0612b2c565b73ffffffffffffffffffffffffffffffffffffffff1660008054906101000a900473ffffffffffffffffffffffffffffffffffffffff1673ffffffffffffffffffffffffffffffffffffffff1614611da0576040517f08c379a00000000000000000000000000000000000000000000000000000000081526004018080602001828103825260208152602001807f4f776e61626c653a2063616c6c6572206973206e6f7420746865206f776e657281525060200191505060405180910390fd5b600073ffffffffffffffffffffffffffffffffffffffff1660008054906101000a900473ffffffffffffffffffffffffffffffffffffffff1673ffffffffffffffffffffffffffffffffffffffff167f8be0079c531659141344cd1fd0a4f28419497f9722a3daafe3b4186f6b6457e060405160405180910390a360008060006101000a81548173ffffffffffffffffffffffffffffffffffffffff021916908373ffffffffffffffffffffffffffffffffffffffff160217905550565b60135481565b6000600760008373ffffffffffffffffffffffffffffffffffffffff1673ffffffffffffffffffffffffffffffffffffffff16815260200190815260200160002060009054906101000a900460ff169050919050565b60008060009054906101000a900473ffffffffffffffffffffffffffffffffffffffff16905090565b611eeb612b2c565b73ffffffffffffffffffffffffffffffffffffffff1660008054906101000a900473ffffffffffffffffffffffffffffffffffffffff1673ffffffffffffffffffffffffffffffffffffffff1614611fab576040517f08c379a00000000000000000000000000000000000000000000000000000000081526004018080602001828103825260208152602001807f4f776e61626c653a2063616c6c6572206973206e6f7420746865206f776e657281525060200191505060405180910390fd5b8060108190555050565b6060600c8054600181600116156101000203166002900480601f01602080910402602001604051908101604052809291908181526020018280546001816001161561010002031660029004801561204d5780601f106120225761010080835404028352916020019161204d565b820191906000526020600020905b81548152906001019060200180831161203057829003601f168201915b5050505050905090565b600061211a612064612b2c565b8461211585604051806060016040528060258152602001614dfd602591396005600061208e612b2c565b73ffffffffffffffffffffffffffffffffffffffff1673ffffffffffffffffffffffffffffffffffffffff16815260200190815260200160002060008a73ffffffffffffffffffffffffffffffffffffffff1673ffffffffffffffffffffffffffffffffffffffff168152602001908152602001600020546130f09092919063ffffffff16565b612b34565b6001905092915050565b3373ffffffffffffffffffffffffffffffffffffffff16600160009054906101000a900473ffffffffffffffffffffffffffffffffffffffff1673ffffffffffffffffffffffffffffffffffffffff16146121ca576040517f08c379a0000000000000000000000000000000000000000000000000000000008152600401808060200182810382526023815260200180614dda6023913960400191505060405180910390fd5b6002544211612241576040517f08c379a000000000000000000000000000000000000000000000000000000000815260040180806020018281038252601f8152602001807f436f6e7472616374206973206c6f636b656420756e74696c203720646179730081525060200191505060405180910390fd5b600160009054906101000a900473ffffffffffffffffffffffffffffffffffffffff1673ffffffffffffffffffffffffffffffffffffffff1660008054906101000a900473ffffffffffffffffffffffffffffffffffffffff1673ffffffffffffffffffffffffffffffffffffffff167f8be0079c531659141344cd1fd0a4f28419497f9722a3daafe3b4186f6b6457e060405160405180910390a3600160009054906101000a900473ffffffffffffffffffffffffffffffffffffffff166000806101000a81548173ffffffffffffffffffffffffffffffffffffffff021916908373ffffffffffffffffffffffffffffffffffffffff160217905550565b600061235561234e612b2c565b8484612d2b565b6001905092915050565b6000600254905090565b612371612b2c565b73ffffffffffffffffffffffffffffffffffffffff1660008054906101000a900473ffffffffffffffffffffffffffffffffffffffff1673ffffffffffffffffffffffffffffffffffffffff1614612431576040517f08c379a00000000000000000000000000000000000000000000000000000000081526004018080602001828103825260208152602001807f4f776e61626c653a2063616c6c6572206973206e6f7420746865206f776e657281525060200191505060405180910390fd5b80601260016101000a81548160ff0219169083151502179055507f53726dfcaf90650aa7eb35524f4d3220f07413c8d6cb404cc8c18bf5591bc1598160405180821515815260200191505060405180910390a150565b61248f612b2c565b73ffffffffffffffffffffffffffffffffffffffff1660008054906101000a900473ffffffffffffffffffffffffffffffffffffffff1673ffffffffffffffffffffffffffffffffffffffff161461254f576040517f08c379a00000000000000000000000000000000000000000000000000000000081526004018080602001828103825260208152602001807f4f776e61626c653a2063616c6c6572206973206e6f7420746865206f776e657281525060200191505060405180910390fd5b61257d606461256f83670de0b6b3a764000061335390919063ffffffff16565b6131db90919063ffffffff16565b60138190555050565b61258e612b2c565b73ffffffffffffffffffffffffffffffffffffffff1660008054906101000a900473ffffffffffffffffffffffffffffffffffffffff1673ffffffffffffffffffffffffffffffffffffffff161461264e576040517f08c379a00000000000000000000000000000000000000000000000000000000081526004018080602001828103825260208152602001807f4f776e61626c653a2063616c6c6572206973206e6f7420746865206f776e657281525060200191505060405180910390fd5b60008054906101000a900473ffffffffffffffffffffffffffffffffffffffff16600160006101000a81548173ffffffffffffffffffffffffffffffffffffffff021916908373ffffffffffffffffffffffffffffffffffffffff16021790555060008060006101000a81548173ffffffffffffffffffffffffffffffffffffffff021916908373ffffffffffffffffffffffffffffffffffffffff160217905550804201600281905550600073ffffffffffffffffffffffffffffffffffffffff1660008054906101000a900473ffffffffffffffffffffffffffffffffffffffff1673ffffffffffffffffffffffffffffffffffffffff167f8be0079c531659141344cd1fd0a4f28419497f9722a3daafe3b4186f6b6457e060405160405180910390a350565b6000600560008473ffffffffffffffffffffffffffffffffffffffff1673ffffffffffffffffffffffffffffffffffffffff16815260200190815260200160002060008373ffffffffffffffffffffffffffffffffffffffff1673ffffffffffffffffffffffffffffffffffffffff16815260200190815260200160002054905092915050565b612806612b2c565b73ffffffffffffffffffffffffffffffffffffffff1660008054906101000a900473ffffffffffffffffffffffffffffffffffffffff1673ffffffffffffffffffffffffffffffffffffffff16146128c6576040517f08c379a00000000000000000000000000000000000000000000000000000000081526004018080602001828103825260208152602001807f4f776e61626c653a2063616c6c6572206973206e6f7420746865206f776e657281525060200191505060405180910390fd5b6000600660008373ffffffffffffffffffffffffffffffffffffffff1673ffffffffffffffffffffffffffffffffffffffff16815260200190815260200160002060006101000a81548160ff02191690831515021790555050565b612929612b2c565b73ffffffffffffffffffffffffffffffffffffffff1660008054906101000a900473ffffffffffffffffffffffffffffffffffffffff1673ffffffffffffffffffffffffffffffffffffffff16146129e9576040517f08c379a00000000000000000000000000000000000000000000000000000000081526004018080602001828103825260208152602001807f4f776e61626c653a2063616c6c6572206973206e6f7420746865206f776e657281525060200191505060405180910390fd5b600073ffffffffffffffffffffffffffffffffffffffff168173ffffffffffffffffffffffffffffffffffffffff161415612a6f576040517f08c379a0000000000000000000000000000000000000000000000000000000008152600401808060200182810382526026815260200180614c836026913960400191505060405180910390fd5b8073ffffffffffffffffffffffffffffffffffffffff1660008054906101000a900473ffffffffffffffffffffffffffffffffffffffff1673ffffffffffffffffffffffffffffffffffffffff167f8be0079c531659141344cd1fd0a4f28419497f9722a3daafe3b4186f6b6457e060405160405180910390a3806000806101000a81548173ffffffffffffffffffffffffffffffffffffffff021916908373ffffffffffffffffffffffffffffffffffffffff16021790555050565b600033905090565b600073ffffffffffffffffffffffffffffffffffffffff168373ffffffffffffffffffffffffffffffffffffffff161415612bba576040517f08c379a0000000000000000000000000000000000000000000000000000000008152600401808060200182810382526024815260200180614d8a6024913960400191505060405180910390fd5b600073ffffffffffffffffffffffffffffffffffffffff168273ffffffffffffffffffffffffffffffffffffffff161415612c40576040517f08c379a0000000000000000000000000000000000000000000000000000000008152600401808060200182810382526022815260200180614ca96022913960400191505060405180910390fd5b80600560008573ffffffffffffffffffffffffffffffffffffffff1673ffffffffffffffffffffffffffffffffffffffff16815260200190815260200160002060008473ffffffffffffffffffffffffffffffffffffffff1673ffffffffffffffffffffffffffffffffffffffff168152602001908152602001600020819055508173ffffffffffffffffffffffffffffffffffffffff168373ffffffffffffffffffffffffffffffffffffffff167f8c5be1e5ebec7d5bd14f71427d1e84f3dd0314c0f7b2291e5b200ac8c7c3b925836040518082815260200191505060405180910390a3505050565b600073ffffffffffffffffffffffffffffffffffffffff168373ffffffffffffffffffffffffffffffffffffffff161415612db1576040517f08c379a0000000000000000000000000000000000000000000000000000000008152600401808060200182810382526025815260200180614d656025913960400191505060405180910390fd5b600073ffffffffffffffffffffffffffffffffffffffff168273ffffffffffffffffffffffffffffffffffffffff161415612e37576040517f08c379a0000000000000000000000000000000000000000000000000000000008152600401808060200182810382526023815260200180614c366023913960400191505060405180910390fd5b60008111612e90576040517f08c379a0000000000000000000000000000000000000000000000000000000008152600401808060200182810382526029815260200180614d3c6029913960400191505060405180910390fd5b612e98611eba565b73ffffffffffffffffffffffffffffffffffffffff168373ffffffffffffffffffffffffffffffffffffffff1614158015612f065750612ed6611eba565b73ffffffffffffffffffffffffffffffffffffffff168273ffffffffffffffffffffffffffffffffffffffff1614155b15612f6757601354811115612f66576040517f08c379a0000000000000000000000000000000000000000000000000000000008152600401808060200182810382526028815260200180614ccb6028913960400191505060405180910390fd5b5b6000612f7230611bed565b90506013548110612f835760135490505b60006014548210159050808015612fa75750601260009054906101000a900460ff16155b8015612fff57507f000000000000000000000000000000000000000000000000000000000000000073ffffffffffffffffffffffffffffffffffffffff168573ffffffffffffffffffffffffffffffffffffffff1614155b80156130175750601260019054906101000a900460ff165b1561302b57601454915061302a826133d9565b5b600060019050600660008773ffffffffffffffffffffffffffffffffffffffff1673ffffffffffffffffffffffffffffffffffffffff16815260200190815260200160002060009054906101000a900460ff16806130d25750600660008673ffffffffffffffffffffffffffffffffffffffff1673ffffffffffffffffffffffffffffffffffffffff16815260200190815260200160002060009054906101000a900460ff165b156130dc57600090505b6130e8868686846134bb565b505050505050565b600083831115829061319d576040517f08c379a00000000000000000000000000000000000000000000000000000000081526004018080602001828103825283818151815260200191508051906020019080838360005b83811015613162578082015181840152602081019050613147565b50505050905090810190601f16801561318f5780820380516001836020036101000a031916815260200191505b509250505060405180910390fd5b5060008385039050809150509392505050565b60008060006131bd6137cc565b915091506131d481836131db90919063ffffffff16565b9250505090565b600061321d83836040518060400160405280601a81526020017f536166654d6174683a206469766973696f6e206279207a65726f000000000000815250613a75565b905092915050565b6000808284019050838110156132a3576040517f08c379a000000000000000000000000000000000000000000000000000000000815260040180806020018281038252601b8152602001807f536166654d6174683a206164646974696f6e206f766572666c6f77000000000081525060200191505060405180910390fd5b8091505092915050565b60008060008060008060008060006132c48a613b3b565b92509250925060008060006132e28d86866132dd6131b0565b613b95565b9250925092508282828888889b509b509b509b509b509b5050505050505091939550919395565b600061334b83836040518060400160405280601e81526020017f536166654d6174683a207375627472616374696f6e206f766572666c6f7700008152506130f0565b905092915050565b60008083141561336657600090506133d3565b600082840290508284828161337757fe5b04146133ce576040517f08c379a0000000000000000000000000000000000000000000000000000000008152600401808060200182810382526021815260200180614cf36021913960400191505060405180910390fd5b809150505b92915050565b6001601260006101000a81548160ff021916908315150217905550600061340a6002836131db90919063ffffffff16565b90506000613421828461330990919063ffffffff16565b9050600047905061343183613c1e565b6000613446824761330990919063ffffffff16565b90506134528382613ecc565b7f17bbfb9a6069321b6ded73bd96327c9e6b7212a5cd51ff219cd61370acafb56184828560405180848152602001838152602001828152602001935050505060405180910390a1505050506000601260006101000a81548160ff02191690831515021790555050565b806134c9576134c861401d565b5b600760008573ffffffffffffffffffffffffffffffffffffffff1673ffffffffffffffffffffffffffffffffffffffff16815260200190815260200160002060009054906101000a900460ff16801561356c5750600760008473ffffffffffffffffffffffffffffffffffffffff1673ffffffffffffffffffffffffffffffffffffffff16815260200190815260200160002060009054906101000a900460ff16155b156135815761357c848484614060565b6137b8565b600760008573ffffffffffffffffffffffffffffffffffffffff1673ffffffffffffffffffffffffffffffffffffffff16815260200190815260200160002060009054906101000a900460ff161580156136245750600760008473ffffffffffffffffffffffffffffffffffffffff1673ffffffffffffffffffffffffffffffffffffffff16815260200190815260200160002060009054906101000a900460ff165b15613639576136348484846142c0565b6137b7565b600760008573ffffffffffffffffffffffffffffffffffffffff1673ffffffffffffffffffffffffffffffffffffffff16815260200190815260200160002060009054906101000a900460ff161580156136dd5750600760008473ffffffffffffffffffffffffffffffffffffffff1673ffffffffffffffffffffffffffffffffffffffff16815260200190815260200160002060009054906101000a900460ff16155b156136f2576136ed848484614520565b6137b6565b600760008573ffffffffffffffffffffffffffffffffffffffff1673ffffffffffffffffffffffffffffffffffffffff16815260200190815260200160002060009054906101000a900460ff1680156137945750600760008473ffffffffffffffffffffffffffffffffffffffff1673ffffffffffffffffffffffffffffffffffffffff16815260200190815260200160002060009054906101000a900460ff165b156137a9576137a48484846146eb565b6137b5565b6137b4848484614520565b5b5b5b5b806137c6576137c56149e0565b5b50505050565b600080600060095490506000670de0b6b3a7640000905060005b600880549050811015613a2c5782600360006008848154811061380557fe5b9060005260206000200160009054906101000a900473ffffffffffffffffffffffffffffffffffffffff1673ffffffffffffffffffffffffffffffffffffffff1673ffffffffffffffffffffffffffffffffffffffff1681526020019081526020016000205411806138ec575081600460006008848154811061388457fe5b9060005260206000200160009054906101000a900473ffffffffffffffffffffffffffffffffffffffff1673ffffffffffffffffffffffffffffffffffffffff1673ffffffffffffffffffffffffffffffffffffffff16815260200190815260200160002054115b1561390957600954670de0b6b3a764000094509450505050613a71565b613992600360006008848154811061391d57fe5b9060005260206000200160009054906101000a900473ffffffffffffffffffffffffffffffffffffffff1673ffffffffffffffffffffffffffffffffffffffff1673ffffffffffffffffffffffffffffffffffffffff168152602001908152602001600020548461330990919063ffffffff16565b9250613a1d60046000600884815481106139a857fe5b9060005260206000200160009054906101000a900473ffffffffffffffffffffffffffffffffffffffff1673ffffffffffffffffffffffffffffffffffffffff1673ffffffffffffffffffffffffffffffffffffffff168152602001908152602001600020548361330990919063ffffffff16565b915080806001019150506137e6565b50613a4a670de0b6b3a76400006009546131db90919063ffffffff16565b821015613a6857600954670de0b6b3a7640000935093505050613a71565b81819350935050505b9091565b60008083118290613b21576040517f08c379a00000000000000000000000000000000000000000000000000000000081526004018080602001828103825283818151815260200191508051906020019080838360005b83811015613ae6578082015181840152602081019050613acb565b50505050905090810190601f168015613b135780820380516001836020036101000a031916815260200191505b509250505060405180910390fd5b506000838581613b2d57fe5b049050809150509392505050565b600080600080613b4a856149f4565b90506000613b5786614a25565b90506000613b8082613b72858a61330990919063ffffffff16565b61330990919063ffffffff16565b90508083839550955095505050509193909250565b600080600080613bae858961335390919063ffffffff16565b90506000613bc5868961335390919063ffffffff16565b90506000613bdc878961335390919063ffffffff16565b90506000613c0582613bf7858761330990919063ffffffff16565b61330990919063ffffffff16565b9050838184965096509650505050509450945094915050565b6060600267ffffffffffffffff81118015613c3857600080fd5b50604051908082528060200260200182016040528015613c675781602001602082028036833780820191505090505b5090503081600081518110613c7857fe5b602002602001019073ffffffffffffffffffffffffffffffffffffffff16908173ffffffffffffffffffffffffffffffffffffffff16815250507f000000000000000000000000000000000000000000000000000000000000000073ffffffffffffffffffffffffffffffffffffffff1663ad5c46486040518163ffffffff1660e01b815260040160206040518083038186803b158015613d1857600080fd5b505afa158015613d2c573d6000803e3d6000fd5b505050506040513d6020811015613d4257600080fd5b810190808051906020019092919050505081600181518110613d6057fe5b602002602001019073ffffffffffffffffffffffffffffffffffffffff16908173ffffffffffffffffffffffffffffffffffffffff1681525050613dc5307f000000000000000000000000000000000000000000000000000000000000000084612b34565b7f000000000000000000000000000000000000000000000000000000000000000073ffffffffffffffffffffffffffffffffffffffff1663791ac9478360008430426040518663ffffffff1660e01b815260040180868152602001858152602001806020018473ffffffffffffffffffffffffffffffffffffffff168152602001838152602001828103825285818151815260200191508051906020019060200280838360005b83811015613e87578082015181840152602081019050613e6c565b505050509050019650505050505050600060405180830381600087803b158015613eb057600080fd5b505af1158015613ec4573d6000803e3d6000fd5b505050505050565b613ef7307f000000000000000000000000000000000000000000000000000000000000000084612b34565b7f000000000000000000000000000000000000000000000000000000000000000073ffffffffffffffffffffffffffffffffffffffff1663f305d719823085600080613f41611eba565b426040518863ffffffff1660e01b8152600401808773ffffffffffffffffffffffffffffffffffffffff1681526020018681526020018581526020018481526020018373ffffffffffffffffffffffffffffffffffffffff16815260200182815260200196505050505050506060604051808303818588803b158015613fc657600080fd5b505af1158015613fda573d6000803e3d6000fd5b50505050506040513d6060811015613ff157600080fd5b810190808051906020019092919080519060200190929190805190602001909291905050505050505050565b6000600e5414801561403157506000601054145b1561403b5761405e565b600e54600f819055506010546011819055506000600e8190555060006010819055505b565b600080600080600080614072876132ad565b9550955095509550955095506140d087600460008c73ffffffffffffffffffffffffffffffffffffffff1673ffffffffffffffffffffffffffffffffffffffff1681526020019081526020016000205461330990919063ffffffff16565b600460008b73ffffffffffffffffffffffffffffffffffffffff1673ffffffffffffffffffffffffffffffffffffffff1681526020019081526020016000208190555061416586600360008c73ffffffffffffffffffffffffffffffffffffffff1673ffffffffffffffffffffffffffffffffffffffff1681526020019081526020016000205461330990919063ffffffff16565b600360008b73ffffffffffffffffffffffffffffffffffffffff1673ffffffffffffffffffffffffffffffffffffffff168152602001908152602001600020819055506141fa85600360008b73ffffffffffffffffffffffffffffffffffffffff1673ffffffffffffffffffffffffffffffffffffffff1681526020019081526020016000205461322590919063ffffffff16565b600360008a73ffffffffffffffffffffffffffffffffffffffff1673ffffffffffffffffffffffffffffffffffffffff1681526020019081526020016000208190555061424681614a56565b6142508483614bfb565b8773ffffffffffffffffffffffffffffffffffffffff168973ffffffffffffffffffffffffffffffffffffffff167fddf252ad1be2c89b69c2b068fc378daa952ba7f163c4a11628f55a4df523b3ef856040518082815260200191505060405180910390a3505050505050505050565b6000806000806000806142d2876132ad565b95509550955095509550955061433086600360008c73ffffffffffffffffffffffffffffffffffffffff1673ffffffffffffffffffffffffffffffffffffffff1681526020019081526020016000205461330990919063ffffffff16565b600360008b73ffffffffffffffffffffffffffffffffffffffff1673ffffffffffffffffffffffffffffffffffffffff168152602001908152602001600020819055506143c583600460008b73ffffffffffffffffffffffffffffffffffffffff1673ffffffffffffffffffffffffffffffffffffffff1681526020019081526020016000205461322590919063ffffffff16565b600460008a73ffffffffffffffffffffffffffffffffffffffff1673ffffffffffffffffffffffffffffffffffffffff1681526020019081526020016000208190555061445a85600360008b73ffffffffffffffffffffffffffffffffffffffff1673ffffffffffffffffffffffffffffffffffffffff1681526020019081526020016000205461322590919063ffffffff16565b600360008a73ffffffffffffffffffffffffffffffffffffffff1673ffffffffffffffffffffffffffffffffffffffff168152602001908152602001600020819055506144a681614a56565b6144b08483614bfb565b8773ffffffffffffffffffffffffffffffffffffffff168973ffffffffffffffffffffffffffffffffffffffff167fddf252ad1be2c89b69c2b068fc378daa952ba7f163c4a11628f55a4df523b3ef856040518082815260200191505060405180910390a3505050505050505050565b600080600080600080614532876132ad565b95509550955095509550955061459086600360008c73ffffffffffffffffffffffffffffffffffffffff1673ffffffffffffffffffffffffffffffffffffffff1681526020019081526020016000205461330990919063ffffffff16565b600360008b73ffffffffffffffffffffffffffffffffffffffff1673ffffffffffffffffffffffffffffffffffffffff1681526020019081526020016000208190555061462585600360008b73ffffffffffffffffffffffffffffffffffffffff1673ffffffffffffffffffffffffffffffffffffffff1681526020019081526020016000205461322590919063ffffffff16565b600360008a73ffffffffffffffffffffffffffffffffffffffff1673ffffffffffffffffffffffffffffffffffffffff1681526020019081526020016000208190555061467181614a56565b61467b8483614bfb565b8773ffffffffffffffffffffffffffffffffffffffff168973ffffffffffffffffffffffffffffffffffffffff167fddf252ad1be2c89b69c2b068fc378daa952ba7f163c4a11628f55a4df523b3ef856040518082815260200191505060405180910390a3505050505050505050565b6000806000806000806146fd876132ad565b95509550955095509550955061475b87600460008c73ffffffffffffffffffffffffffffffffffffffff1673ffffffffffffffffffffffffffffffffffffffff1681526020019081526020016000205461330990919063ffffffff16565b600460008b73ffffffffffffffffffffffffffffffffffffffff1673ffffffffffffffffffffffffffffffffffffffff168152602001908152602001600020819055506147f086600360008c73ffffffffffffffffffffffffffffffffffffffff1673ffffffffffffffffffffffffffffffffffffffff1681526020019081526020016000205461330990919063ffffffff16565b600360008b73ffffffffffffffffffffffffffffffffffffffff1673ffffffffffffffffffffffffffffffffffffffff1681526020019081526020016000208190555061488583600460008b73ffffffffffffffffffffffffffffffffffffffff1673ffffffffffffffffffffffffffffffffffffffff1681526020019081526020016000205461322590919063ffffffff16565b600460008a73ffffffffffffffffffffffffffffffffffffffff1673ffffffffffffffffffffffffffffffffffffffff1681526020019081526020016000208190555061491a85600360008b73ffffffffffffffffffffffffffffffffffffffff1673ffffffffffffffffffffffffffffffffffffffff1681526020019081526020016000205461322590919063ffffffff16565b600360008a73ffffffffffffffffffffffffffffffffffffffff1673ffffffffffffffffffffffffffffffffffffffff1681526020019081526020016000208190555061496681614a56565b6149708483614bfb565b8773ffffffffffffffffffffffffffffffffffffffff168973ffffffffffffffffffffffffffffffffffffffff167fddf252ad1be2c89b69c2b068fc378daa952ba7f163c4a11628f55a4df523b3ef856040518082815260200191505060405180910390a3505050505050505050565b600f54600e81905550601154601081905550565b6000614a1e6064614a10600e548561335390919063ffffffff16565b6131db90919063ffffffff16565b9050919050565b6000614a4f6064614a416010548561335390919063ffffffff16565b6131db90919063ffffffff16565b9050919050565b6000614a606131b0565b90506000614a77828461335390919063ffffffff16565b9050614acb81600360003073ffffffffffffffffffffffffffffffffffffffff1673ffffffffffffffffffffffffffffffffffffffff1681526020019081526020016000205461322590919063ffffffff16565b600360003073ffffffffffffffffffffffffffffffffffffffff1673ffffffffffffffffffffffffffffffffffffffff16815260200190815260200160002081905550600760003073ffffffffffffffffffffffffffffffffffffffff1673ffffffffffffffffffffffffffffffffffffffff16815260200190815260200160002060009054906101000a900460ff1615614bf657614bb283600460003073ffffffffffffffffffffffffffffffffffffffff1673ffffffffffffffffffffffffffffffffffffffff1681526020019081526020016000205461322590919063ffffffff16565b600460003073ffffffffffffffffffffffffffffffffffffffff1673ffffffffffffffffffffffffffffffffffffffff168152602001908152602001600020819055505b505050565b614c108260095461330990919063ffffffff16565b600981905550614c2b81600a5461322590919063ffffffff16565b600a81905550505056fe45524332303a207472616e7366657220746f20746865207a65726f2061646472657373416d6f756e74206d757374206265206c657373207468616e20746f74616c207265666c656374696f6e734f776e61626c653a206e6577206f776e657220697320746865207a65726f206164647265737345524332303a20617070726f766520746f20746865207a65726f20616464726573735472616e7366657220616d6f756e74206578636565647320746865206d61785478416d6f756e742e536166654d6174683a206d756c7469706c69636174696f6e206f766572666c6f7745524332303a207472616e7366657220616d6f756e74206578636565647320616c6c6f77616e63655472616e7366657220616d6f756e74206d7573742062652067726561746572207468616e207a65726f45524332303a207472616e736665722066726f6d20746865207a65726f206164647265737345524332303a20617070726f76652066726f6d20746865207a65726f20616464726573734578636c75646564206164647265737365732063616e6e6f742063616c6c20746869732066756e6374696f6e596f7520646f6e27742068617665207065726d697373696f6e20746f20756e6c6f636b45524332303a2064656372656173656420616c6c6f77616e63652062656c6f77207a65726fa2646970667358221220dd03cadc224dc87b7fcb8fb8667729fd02f8be7173961ba22789827f5299302864736f6c634300060c0033",
					"opcodes": "PUSH1 0xC0 PUSH1 0x40 MSTORE PUSH8 0xDE0B6B3A7640000 PUSH1 0x0 NOT DUP2 PUSH3 0x18 JUMPI INVALID JUMPDEST MOD PUSH1 0x0 NOT SUB PUSH1 0x9 SSTORE PUSH1 0x40 MLOAD DUP1 PUSH1 0x40 ADD PUSH1 0x40 MSTORE DUP1 PUSH1 0xA DUP2 MSTORE PUSH1 0x20 ADD PUSH32 0x576F726C64205374657000000000000000000000000000000000000000000000 DUP2 MSTORE POP PUSH1 0xB SWAP1 DUP1 MLOAD SWAP1 PUSH1 0x20 ADD SWAP1 PUSH3 0x6D SWAP3 SWAP2 SWAP1 PUSH3 0x5F9 JUMP JUMPDEST POP PUSH1 0x40 MLOAD DUP1 PUSH1 0x40 ADD PUSH1 0x40 MSTORE DUP1 PUSH1 0x3 DUP2 MSTORE PUSH1 0x20 ADD PUSH32 0x5753500000000000000000000000000000000000000000000000000000000000 DUP2 MSTORE POP PUSH1 0xC SWAP1 DUP1 MLOAD SWAP1 PUSH1 0x20 ADD SWAP1 PUSH3 0xBB SWAP3 SWAP2 SWAP1 PUSH3 0x5F9 JUMP JUMPDEST POP PUSH1 0x9 PUSH1 0xD PUSH1 0x0 PUSH2 0x100 EXP DUP2 SLOAD DUP2 PUSH1 0xFF MUL NOT AND SWAP1 DUP4 PUSH1 0xFF AND MUL OR SWAP1 SSTORE POP PUSH1 0x2 PUSH1 0xE SSTORE PUSH1 0xE SLOAD PUSH1 0xF SSTORE PUSH1 0x3 PUSH1 0x10 SSTORE PUSH1 0x10 SLOAD PUSH1 0x11 SSTORE PUSH1 0x1 PUSH1 0x12 PUSH1 0x1 PUSH2 0x100 EXP DUP2 SLOAD DUP2 PUSH1 0xFF MUL NOT AND SWAP1 DUP4 ISZERO ISZERO MUL OR SWAP1 SSTORE POP PUSH8 0x6F05B59D3B20000 PUSH1 0x13 SSTORE PUSH8 0x3782DACE9D90000 PUSH1 0x14 SSTORE CALLVALUE DUP1 ISZERO PUSH3 0x12E JUMPI PUSH1 0x0 DUP1 REVERT JUMPDEST POP PUSH1 0x0 PUSH3 0x141 PUSH3 0x5C8 PUSH1 0x20 SHL PUSH1 0x20 SHR JUMP JUMPDEST SWAP1 POP DUP1 PUSH1 0x0 DUP1 PUSH2 0x100 EXP DUP2 SLOAD DUP2 PUSH20 0xFFFFFFFFFFFFFFFFFFFFFFFFFFFFFFFFFFFFFFFF MUL NOT AND SWAP1 DUP4 PUSH20 0xFFFFFFFFFFFFFFFFFFFFFFFFFFFFFFFFFFFFFFFF AND MUL OR SWAP1 SSTORE POP DUP1 PUSH20 0xFFFFFFFFFFFFFFFFFFFFFFFFFFFFFFFFFFFFFFFF AND PUSH1 0x0 PUSH20 0xFFFFFFFFFFFFFFFFFFFFFFFFFFFFFFFFFFFFFFFF AND PUSH32 0x8BE0079C531659141344CD1FD0A4F28419497F9722A3DAAFE3B4186F6B6457E0 PUSH1 0x40 MLOAD PUSH1 0x40 MLOAD DUP1 SWAP2 SUB SWAP1 LOG3 POP PUSH1 0x9 SLOAD PUSH1 0x3 PUSH1 0x0 PUSH3 0x1F6 PUSH3 0x5C8 PUSH1 0x20 SHL PUSH1 0x20 SHR JUMP JUMPDEST PUSH20 0xFFFFFFFFFFFFFFFFFFFFFFFFFFFFFFFFFFFFFFFF AND PUSH20 0xFFFFFFFFFFFFFFFFFFFFFFFFFFFFFFFFFFFFFFFF AND DUP2 MSTORE PUSH1 0x20 ADD SWAP1 DUP2 MSTORE PUSH1 0x20 ADD PUSH1 0x0 KECCAK256 DUP2 SWAP1 SSTORE POP PUSH1 0x0 PUSH20 0x9AC64CC6E4415144C455BD8E4837FEA55603E5C3 SWAP1 POP DUP1 PUSH20 0xFFFFFFFFFFFFFFFFFFFFFFFFFFFFFFFFFFFFFFFF AND PUSH4 0xC45A0155 PUSH1 0x40 MLOAD DUP2 PUSH4 0xFFFFFFFF AND PUSH1 0xE0 SHL DUP2 MSTORE PUSH1 0x4 ADD PUSH1 0x20 PUSH1 0x40 MLOAD DUP1 DUP4 SUB DUP2 DUP7 DUP1 EXTCODESIZE ISZERO DUP1 ISZERO PUSH3 0x294 JUMPI PUSH1 0x0 DUP1 REVERT JUMPDEST POP GAS STATICCALL ISZERO DUP1 ISZERO PUSH3 0x2A9 JUMPI RETURNDATASIZE PUSH1 0x0 DUP1 RETURNDATACOPY RETURNDATASIZE PUSH1 0x0 REVERT JUMPDEST POP POP POP POP PUSH1 0x40 MLOAD RETURNDATASIZE PUSH1 0x20 DUP2 LT ISZERO PUSH3 0x2C0 JUMPI PUSH1 0x0 DUP1 REVERT JUMPDEST DUP2 ADD SWAP1 DUP1 DUP1 MLOAD SWAP1 PUSH1 0x20 ADD SWAP1 SWAP3 SWAP2 SWAP1 POP POP POP PUSH20 0xFFFFFFFFFFFFFFFFFFFFFFFFFFFFFFFFFFFFFFFF AND PUSH4 0xC9C65396 ADDRESS DUP4 PUSH20 0xFFFFFFFFFFFFFFFFFFFFFFFFFFFFFFFFFFFFFFFF AND PUSH4 0xAD5C4648 PUSH1 0x40 MLOAD DUP2 PUSH4 0xFFFFFFFF AND PUSH1 0xE0 SHL DUP2 MSTORE PUSH1 0x4 ADD PUSH1 0x20 PUSH1 0x40 MLOAD DUP1 DUP4 SUB DUP2 DUP7 DUP1 EXTCODESIZE ISZERO DUP1 ISZERO PUSH3 0x334 JUMPI PUSH1 0x0 DUP1 REVERT JUMPDEST POP GAS STATICCALL ISZERO DUP1 ISZERO PUSH3 0x349 JUMPI RETURNDATASIZE PUSH1 0x0 DUP1 RETURNDATACOPY RETURNDATASIZE PUSH1 0x0 REVERT JUMPDEST POP POP POP POP PUSH1 0x40 MLOAD RETURNDATASIZE PUSH1 0x20 DUP2 LT ISZERO PUSH3 0x360 JUMPI PUSH1 0x0 DUP1 REVERT JUMPDEST DUP2 ADD SWAP1 DUP1 DUP1 MLOAD SWAP1 PUSH1 0x20 ADD SWAP1 SWAP3 SWAP2 SWAP1 POP POP POP PUSH1 0x40 MLOAD DUP4 PUSH4 0xFFFFFFFF AND PUSH1 0xE0 SHL DUP2 MSTORE PUSH1 0x4 ADD DUP1 DUP4 PUSH20 0xFFFFFFFFFFFFFFFFFFFFFFFFFFFFFFFFFFFFFFFF AND DUP2 MSTORE PUSH1 0x20 ADD DUP3 PUSH20 0xFFFFFFFFFFFFFFFFFFFFFFFFFFFFFFFFFFFFFFFF AND DUP2 MSTORE PUSH1 0x20 ADD SWAP3 POP POP POP PUSH1 0x20 PUSH1 0x40 MLOAD DUP1 DUP4 SUB DUP2 PUSH1 0x0 DUP8 DUP1 EXTCODESIZE ISZERO DUP1 ISZERO PUSH3 0x3DB JUMPI PUSH1 0x0 DUP1 REVERT JUMPDEST POP GAS CALL ISZERO DUP1 ISZERO PUSH3 0x3F0 JUMPI RETURNDATASIZE PUSH1 0x0 DUP1 RETURNDATACOPY RETURNDATASIZE PUSH1 0x0 REVERT JUMPDEST POP POP POP POP PUSH1 0x40 MLOAD RETURNDATASIZE PUSH1 0x20 DUP2 LT ISZERO PUSH3 0x407 JUMPI PUSH1 0x0 DUP1 REVERT JUMPDEST DUP2 ADD SWAP1 DUP1 DUP1 MLOAD SWAP1 PUSH1 0x20 ADD SWAP1 SWAP3 SWAP2 SWAP1 POP POP POP PUSH20 0xFFFFFFFFFFFFFFFFFFFFFFFFFFFFFFFFFFFFFFFF AND PUSH1 0xA0 DUP2 PUSH20 0xFFFFFFFFFFFFFFFFFFFFFFFFFFFFFFFFFFFFFFFF AND PUSH1 0x60 SHL DUP2 MSTORE POP POP DUP1 PUSH20 0xFFFFFFFFFFFFFFFFFFFFFFFFFFFFFFFFFFFFFFFF AND PUSH1 0x80 DUP2 PUSH20 0xFFFFFFFFFFFFFFFFFFFFFFFFFFFFFFFFFFFFFFFF AND PUSH1 0x60 SHL DUP2 MSTORE POP POP PUSH1 0x1 PUSH1 0x6 PUSH1 0x0 PUSH3 0x49B PUSH3 0x5D0 PUSH1 0x20 SHL PUSH1 0x20 SHR JUMP JUMPDEST PUSH20 0xFFFFFFFFFFFFFFFFFFFFFFFFFFFFFFFFFFFFFFFF AND PUSH20 0xFFFFFFFFFFFFFFFFFFFFFFFFFFFFFFFFFFFFFFFF AND DUP2 MSTORE PUSH1 0x20 ADD SWAP1 DUP2 MSTORE PUSH1 0x20 ADD PUSH1 0x0 KECCAK256 PUSH1 0x0 PUSH2 0x100 EXP DUP2 SLOAD DUP2 PUSH1 0xFF MUL NOT AND SWAP1 DUP4 ISZERO ISZERO MUL OR SWAP1 SSTORE POP PUSH1 0x1 PUSH1 0x6 PUSH1 0x0 ADDRESS PUSH20 0xFFFFFFFFFFFFFFFFFFFFFFFFFFFFFFFFFFFFFFFF AND PUSH20 0xFFFFFFFFFFFFFFFFFFFFFFFFFFFFFFFFFFFFFFFF AND DUP2 MSTORE PUSH1 0x20 ADD SWAP1 DUP2 MSTORE PUSH1 0x20 ADD PUSH1 0x0 KECCAK256 PUSH1 0x0 PUSH2 0x100 EXP DUP2 SLOAD DUP2 PUSH1 0xFF MUL NOT AND SWAP1 DUP4 ISZERO ISZERO MUL OR SWAP1 SSTORE POP PUSH3 0x554 PUSH3 0x5C8 PUSH1 0x20 SHL PUSH1 0x20 SHR JUMP JUMPDEST PUSH20 0xFFFFFFFFFFFFFFFFFFFFFFFFFFFFFFFFFFFFFFFF AND PUSH1 0x0 PUSH20 0xFFFFFFFFFFFFFFFFFFFFFFFFFFFFFFFFFFFFFFFF AND PUSH32 0xDDF252AD1BE2C89B69C2B068FC378DAA952BA7F163C4A11628F55A4DF523B3EF PUSH8 0xDE0B6B3A7640000 PUSH1 0x40 MLOAD DUP1 DUP3 DUP2 MSTORE PUSH1 0x20 ADD SWAP2 POP POP PUSH1 0x40 MLOAD DUP1 SWAP2 SUB SWAP1 LOG3 POP PUSH3 0x69F JUMP JUMPDEST PUSH1 0x0 CALLER SWAP1 POP SWAP1 JUMP JUMPDEST PUSH1 0x0 DUP1 PUSH1 0x0 SWAP1 SLOAD SWAP1 PUSH2 0x100 EXP SWAP1 DIV PUSH20 0xFFFFFFFFFFFFFFFFFFFFFFFFFFFFFFFFFFFFFFFF AND SWAP1 POP SWAP1 JUMP JUMPDEST DUP3 DUP1 SLOAD PUSH1 0x1 DUP2 PUSH1 0x1 AND ISZERO PUSH2 0x100 MUL SUB AND PUSH1 0x2 SWAP1 DIV SWAP1 PUSH1 0x0 MSTORE PUSH1 0x20 PUSH1 0x0 KECCAK256 SWAP1 PUSH1 0x1F ADD PUSH1 0x20 SWAP1 DIV DUP2 ADD SWAP3 DUP3 PUSH1 0x1F LT PUSH3 0x63C JUMPI DUP1 MLOAD PUSH1 0xFF NOT AND DUP4 DUP1 ADD OR DUP6 SSTORE PUSH3 0x66D JUMP JUMPDEST DUP3 DUP1 ADD PUSH1 0x1 ADD DUP6 SSTORE DUP3 ISZERO PUSH3 0x66D JUMPI SWAP2 DUP3 ADD JUMPDEST DUP3 DUP2 GT ISZERO PUSH3 0x66C JUMPI DUP3 MLOAD DUP3 SSTORE SWAP2 PUSH1 0x20 ADD SWAP2 SWAP1 PUSH1 0x1 ADD SWAP1 PUSH3 0x64F JUMP JUMPDEST JUMPDEST POP SWAP1 POP PUSH3 0x67C SWAP2 SWAP1 PUSH3 0x680 JUMP JUMPDEST POP SWAP1 JUMP JUMPDEST JUMPDEST DUP1 DUP3 GT ISZERO PUSH3 0x69B JUMPI PUSH1 0x0 DUP2 PUSH1 0x0 SWAP1 SSTORE POP PUSH1 0x1 ADD PUSH3 0x681 JUMP JUMPDEST POP SWAP1 JUMP JUMPDEST PUSH1 0x80 MLOAD PUSH1 0x60 SHR PUSH1 0xA0 MLOAD PUSH1 0x60 SHR PUSH2 0x4E57 PUSH3 0x6E7 PUSH1 0x0 CODECOPY DUP1 PUSH2 0x1842 MSTORE DUP1 PUSH2 0x2FB0 MSTORE POP DUP1 PUSH2 0xEE6 MSTORE DUP1 PUSH2 0x3CB4 MSTORE DUP1 PUSH2 0x3DA0 MSTORE DUP1 PUSH2 0x3DC7 MSTORE DUP1 PUSH2 0x3ED2 MSTORE DUP1 PUSH2 0x3EF9 MSTORE POP PUSH2 0x4E57 PUSH1 0x0 RETURN INVALID PUSH1 0x80 PUSH1 0x40 MSTORE PUSH1 0x4 CALLDATASIZE LT PUSH2 0x21E JUMPI PUSH1 0x0 CALLDATALOAD PUSH1 0xE0 SHR DUP1 PUSH4 0x5342ACB4 GT PUSH2 0x123 JUMPI DUP1 PUSH4 0xA457C2D7 GT PUSH2 0xAB JUMPI DUP1 PUSH4 0xD543DBEB GT PUSH2 0x6F JUMPI DUP1 PUSH4 0xD543DBEB EQ PUSH2 0xBAB JUMPI DUP1 PUSH4 0xDD467064 EQ PUSH2 0xBE6 JUMPI DUP1 PUSH4 0xDD62ED3E EQ PUSH2 0xC21 JUMPI DUP1 PUSH4 0xEA2F0B37 EQ PUSH2 0xCA6 JUMPI DUP1 PUSH4 0xF2FDE38B EQ PUSH2 0xCF7 JUMPI PUSH2 0x225 JUMP JUMPDEST DUP1 PUSH4 0xA457C2D7 EQ PUSH2 0xA4A JUMPI DUP1 PUSH4 0xA69DF4B5 EQ PUSH2 0xABB JUMPI DUP1 PUSH4 0xA9059CBB EQ PUSH2 0xAD2 JUMPI DUP1 PUSH4 0xB6C52324 EQ PUSH2 0xB43 JUMPI DUP1 PUSH4 0xC49B9A80 EQ PUSH2 0xB6E JUMPI PUSH2 0x225 JUMP JUMPDEST DUP1 PUSH4 0x7D1DB4A5 GT PUSH2 0xF2 JUMPI DUP1 PUSH4 0x7D1DB4A5 EQ PUSH2 0x8AC JUMPI DUP1 PUSH4 0x88F82020 EQ PUSH2 0x8D7 JUMPI DUP1 PUSH4 0x8DA5CB5B EQ PUSH2 0x93E JUMPI DUP1 PUSH4 0x8EE88C53 EQ PUSH2 0x97F JUMPI DUP1 PUSH4 0x95D89B41 EQ PUSH2 0x9BA JUMPI PUSH2 0x225 JUMP JUMPDEST DUP1 PUSH4 0x5342ACB4 EQ PUSH2 0x79E JUMPI DUP1 PUSH4 0x6BC87C3A EQ PUSH2 0x805 JUMPI DUP1 PUSH4 0x70A08231 EQ PUSH2 0x830 JUMPI DUP1 PUSH4 0x715018A6 EQ PUSH2 0x895 JUMPI PUSH2 0x225 JUMP JUMPDEST DUP1 PUSH4 0x3685D419 GT PUSH2 0x1A6 JUMPI DUP1 PUSH4 0x437823EC GT PUSH2 0x175 JUMPI DUP1 PUSH4 0x437823EC EQ PUSH2 0x633 JUMPI DUP1 PUSH4 0x4549B039 EQ PUSH2 0x684 JUMPI DUP1 PUSH4 0x49BD5A5E EQ PUSH2 0x6DF JUMPI DUP1 PUSH4 0x4A74BB02 EQ PUSH2 0x720 JUMPI DUP1 PUSH4 0x52390C02 EQ PUSH2 0x74D JUMPI PUSH2 0x225 JUMP JUMPDEST DUP1 PUSH4 0x3685D419 EQ PUSH2 0x50B JUMPI DUP1 PUSH4 0x39509351 EQ PUSH2 0x55C JUMPI DUP1 PUSH4 0x3B124FE7 EQ PUSH2 0x5CD JUMPI DUP1 PUSH4 0x3BD5D173 EQ PUSH2 0x5F8 JUMPI PUSH2 0x225 JUMP JUMPDEST DUP1 PUSH4 0x1694505E GT PUSH2 0x1ED JUMPI DUP1 PUSH4 0x1694505E EQ PUSH2 0x391 JUMPI DUP1 PUSH4 0x18160DDD EQ PUSH2 0x3D2 JUMPI DUP1 PUSH4 0x23B872DD EQ PUSH2 0x3FD JUMPI DUP1 PUSH4 0x2D838119 EQ PUSH2 0x48E JUMPI DUP1 PUSH4 0x313CE567 EQ PUSH2 0x4DD JUMPI PUSH2 0x225 JUMP JUMPDEST DUP1 PUSH4 0x61C82D0 EQ PUSH2 0x22A JUMPI DUP1 PUSH4 0x6FDDE03 EQ PUSH2 0x265 JUMPI DUP1 PUSH4 0x95EA7B3 EQ PUSH2 0x2F5 JUMPI DUP1 PUSH4 0x13114A9D EQ PUSH2 0x366 JUMPI PUSH2 0x225 JUMP JUMPDEST CALLDATASIZE PUSH2 0x225 JUMPI STOP JUMPDEST PUSH1 0x0 DUP1 REVERT JUMPDEST CALLVALUE DUP1 ISZERO PUSH2 0x236 JUMPI PUSH1 0x0 DUP1 REVERT JUMPDEST POP PUSH2 0x263 PUSH1 0x4 DUP1 CALLDATASIZE SUB PUSH1 0x20 DUP2 LT ISZERO PUSH2 0x24D JUMPI PUSH1 0x0 DUP1 REVERT JUMPDEST DUP2 ADD SWAP1 DUP1 DUP1 CALLDATALOAD SWAP1 PUSH1 0x20 ADD SWAP1 SWAP3 SWAP2 SWAP1 POP POP POP PUSH2 0xD48 JUMP JUMPDEST STOP JUMPDEST CALLVALUE DUP1 ISZERO PUSH2 0x271 JUMPI PUSH1 0x0 DUP1 REVERT JUMPDEST POP PUSH2 0x27A PUSH2 0xE1A JUMP JUMPDEST PUSH1 0x40 MLOAD DUP1 DUP1 PUSH1 0x20 ADD DUP3 DUP2 SUB DUP3 MSTORE DUP4 DUP2 DUP2 MLOAD DUP2 MSTORE PUSH1 0x20 ADD SWAP2 POP DUP1 MLOAD SWAP1 PUSH1 0x20 ADD SWAP1 DUP1 DUP4 DUP4 PUSH1 0x0 JUMPDEST DUP4 DUP2 LT ISZERO PUSH2 0x2BA JUMPI DUP1 DUP3 ADD MLOAD DUP2 DUP5 ADD MSTORE PUSH1 0x20 DUP2 ADD SWAP1 POP PUSH2 0x29F JUMP JUMPDEST POP POP POP POP SWAP1 POP SWAP1 DUP2 ADD SWAP1 PUSH1 0x1F AND DUP1 ISZERO PUSH2 0x2E7 JUMPI DUP1 DUP3 SUB DUP1 MLOAD PUSH1 0x1 DUP4 PUSH1 0x20 SUB PUSH2 0x100 EXP SUB NOT AND DUP2 MSTORE PUSH1 0x20 ADD SWAP2 POP JUMPDEST POP SWAP3 POP POP POP PUSH1 0x40 MLOAD DUP1 SWAP2 SUB SWAP1 RETURN JUMPDEST CALLVALUE DUP1 ISZERO PUSH2 0x301 JUMPI PUSH1 0x0 DUP1 REVERT JUMPDEST POP PUSH2 0x34E PUSH1 0x4 DUP1 CALLDATASIZE SUB PUSH1 0x40 DUP2 LT ISZERO PUSH2 0x318 JUMPI PUSH1 0x0 DUP1 REVERT JUMPDEST DUP2 ADD SWAP1 DUP1 DUP1 CALLDATALOAD PUSH20 0xFFFFFFFFFFFFFFFFFFFFFFFFFFFFFFFFFFFFFFFF AND SWAP1 PUSH1 0x20 ADD SWAP1 SWAP3 SWAP2 SWAP1 DUP1 CALLDATALOAD SWAP1 PUSH1 0x20 ADD SWAP1 SWAP3 SWAP2 SWAP1 POP POP POP PUSH2 0xEBC JUMP JUMPDEST PUSH1 0x40 MLOAD DUP1 DUP3 ISZERO ISZERO DUP2 MSTORE PUSH1 0x20 ADD SWAP2 POP POP PUSH1 0x40 MLOAD DUP1 SWAP2 SUB SWAP1 RETURN JUMPDEST CALLVALUE DUP1 ISZERO PUSH2 0x372 JUMPI PUSH1 0x0 DUP1 REVERT JUMPDEST POP PUSH2 0x37B PUSH2 0xEDA JUMP JUMPDEST PUSH1 0x40 MLOAD DUP1 DUP3 DUP2 MSTORE PUSH1 0x20 ADD SWAP2 POP POP PUSH1 0x40 MLOAD DUP1 SWAP2 SUB SWAP1 RETURN JUMPDEST CALLVALUE DUP1 ISZERO PUSH2 0x39D JUMPI PUSH1 0x0 DUP1 REVERT JUMPDEST POP PUSH2 0x3A6 PUSH2 0xEE4 JUMP JUMPDEST PUSH1 0x40 MLOAD DUP1 DUP3 PUSH20 0xFFFFFFFFFFFFFFFFFFFFFFFFFFFFFFFFFFFFFFFF AND DUP2 MSTORE PUSH1 0x20 ADD SWAP2 POP POP PUSH1 0x40 MLOAD DUP1 SWAP2 SUB SWAP1 RETURN JUMPDEST CALLVALUE DUP1 ISZERO PUSH2 0x3DE JUMPI PUSH1 0x0 DUP1 REVERT JUMPDEST POP PUSH2 0x3E7 PUSH2 0xF08 JUMP JUMPDEST PUSH1 0x40 MLOAD DUP1 DUP3 DUP2 MSTORE PUSH1 0x20 ADD SWAP2 POP POP PUSH1 0x40 MLOAD DUP1 SWAP2 SUB SWAP1 RETURN JUMPDEST CALLVALUE DUP1 ISZERO PUSH2 0x409 JUMPI PUSH1 0x0 DUP1 REVERT JUMPDEST POP PUSH2 0x476 PUSH1 0x4 DUP1 CALLDATASIZE SUB PUSH1 0x60 DUP2 LT ISZERO PUSH2 0x420 JUMPI PUSH1 0x0 DUP1 REVERT JUMPDEST DUP2 ADD SWAP1 DUP1 DUP1 CALLDATALOAD PUSH20 0xFFFFFFFFFFFFFFFFFFFFFFFFFFFFFFFFFFFFFFFF AND SWAP1 PUSH1 0x20 ADD SWAP1 SWAP3 SWAP2 SWAP1 DUP1 CALLDATALOAD PUSH20 0xFFFFFFFFFFFFFFFFFFFFFFFFFFFFFFFFFFFFFFFF AND SWAP1 PUSH1 0x20 ADD SWAP1 SWAP3 SWAP2 SWAP1 DUP1 CALLDATALOAD SWAP1 PUSH1 0x20 ADD SWAP1 SWAP3 SWAP2 SWAP1 POP POP POP PUSH2 0xF18 JUMP JUMPDEST PUSH1 0x40 MLOAD DUP1 DUP3 ISZERO ISZERO DUP2 MSTORE PUSH1 0x20 ADD SWAP2 POP POP PUSH1 0x40 MLOAD DUP1 SWAP2 SUB SWAP1 RETURN JUMPDEST CALLVALUE DUP1 ISZERO PUSH2 0x49A JUMPI PUSH1 0x0 DUP1 REVERT JUMPDEST POP PUSH2 0x4C7 PUSH1 0x4 DUP1 CALLDATASIZE SUB PUSH1 0x20 DUP2 LT ISZERO PUSH2 0x4B1 JUMPI PUSH1 0x0 DUP1 REVERT JUMPDEST DUP2 ADD SWAP1 DUP1 DUP1 CALLDATALOAD SWAP1 PUSH1 0x20 ADD SWAP1 SWAP3 SWAP2 SWAP1 POP POP POP PUSH2 0xFF1 JUMP JUMPDEST PUSH1 0x40 MLOAD DUP1 DUP3 DUP2 MSTORE PUSH1 0x20 ADD SWAP2 POP POP PUSH1 0x40 MLOAD DUP1 SWAP2 SUB SWAP1 RETURN JUMPDEST CALLVALUE DUP1 ISZERO PUSH2 0x4E9 JUMPI PUSH1 0x0 DUP1 REVERT JUMPDEST POP PUSH2 0x4F2 PUSH2 0x1075 JUMP JUMPDEST PUSH1 0x40 MLOAD DUP1 DUP3 PUSH1 0xFF AND DUP2 MSTORE PUSH1 0x20 ADD SWAP2 POP POP PUSH1 0x40 MLOAD DUP1 SWAP2 SUB SWAP1 RETURN JUMPDEST CALLVALUE DUP1 ISZERO PUSH2 0x517 JUMPI PUSH1 0x0 DUP1 REVERT JUMPDEST POP PUSH2 0x55A PUSH1 0x4 DUP1 CALLDATASIZE SUB PUSH1 0x20 DUP2 LT ISZERO PUSH2 0x52E JUMPI PUSH1 0x0 DUP1 REVERT JUMPDEST DUP2 ADD SWAP1 DUP1 DUP1 CALLDATALOAD PUSH20 0xFFFFFFFFFFFFFFFFFFFFFFFFFFFFFFFFFFFFFFFF AND SWAP1 PUSH1 0x20 ADD SWAP1 SWAP3 SWAP2 SWAP1 POP POP POP PUSH2 0x108C JUMP JUMPDEST STOP JUMPDEST CALLVALUE DUP1 ISZERO PUSH2 0x568 JUMPI PUSH1 0x0 DUP1 REVERT JUMPDEST POP PUSH2 0x5B5 PUSH1 0x4 DUP1 CALLDATASIZE SUB PUSH1 0x40 DUP2 LT ISZERO PUSH2 0x57F JUMPI PUSH1 0x0 DUP1 REVERT JUMPDEST DUP2 ADD SWAP1 DUP1 DUP1 CALLDATALOAD PUSH20 0xFFFFFFFFFFFFFFFFFFFFFFFFFFFFFFFFFFFFFFFF AND SWAP1 PUSH1 0x20 ADD SWAP1 SWAP3 SWAP2 SWAP1 DUP1 CALLDATALOAD SWAP1 PUSH1 0x20 ADD SWAP1 SWAP3 SWAP2 SWAP1 POP POP POP PUSH2 0x1416 JUMP JUMPDEST PUSH1 0x40 MLOAD DUP1 DUP3 ISZERO ISZERO DUP2 MSTORE PUSH1 0x20 ADD SWAP2 POP POP PUSH1 0x40 MLOAD DUP1 SWAP2 SUB SWAP1 RETURN JUMPDEST CALLVALUE DUP1 ISZERO PUSH2 0x5D9 JUMPI PUSH1 0x0 DUP1 REVERT JUMPDEST POP PUSH2 0x5E2 PUSH2 0x14C9 JUMP JUMPDEST PUSH1 0x40 MLOAD DUP1 DUP3 DUP2 MSTORE PUSH1 0x20 ADD SWAP2 POP POP PUSH1 0x40 MLOAD DUP1 SWAP2 SUB SWAP1 RETURN JUMPDEST CALLVALUE DUP1 ISZERO PUSH2 0x604 JUMPI PUSH1 0x0 DUP1 REVERT JUMPDEST POP PUSH2 0x631 PUSH1 0x4 DUP1 CALLDATASIZE SUB PUSH1 0x20 DUP2 LT ISZERO PUSH2 0x61B JUMPI PUSH1 0x0 DUP1 REVERT JUMPDEST DUP2 ADD SWAP1 DUP1 DUP1 CALLDATALOAD SWAP1 PUSH1 0x20 ADD SWAP1 SWAP3 SWAP2 SWAP1 POP POP POP PUSH2 0x14CF JUMP JUMPDEST STOP JUMPDEST CALLVALUE DUP1 ISZERO PUSH2 0x63F JUMPI PUSH1 0x0 DUP1 REVERT JUMPDEST POP PUSH2 0x682 PUSH1 0x4 DUP1 CALLDATASIZE SUB PUSH1 0x20 DUP2 LT ISZERO PUSH2 0x656 JUMPI PUSH1 0x0 DUP1 REVERT JUMPDEST DUP2 ADD SWAP1 DUP1 DUP1 CALLDATALOAD PUSH20 0xFFFFFFFFFFFFFFFFFFFFFFFFFFFFFFFFFFFFFFFF AND SWAP1 PUSH1 0x20 ADD SWAP1 SWAP3 SWAP2 SWAP1 POP POP POP PUSH2 0x1660 JUMP JUMPDEST STOP JUMPDEST CALLVALUE DUP1 ISZERO PUSH2 0x690 JUMPI PUSH1 0x0 DUP1 REVERT JUMPDEST POP PUSH2 0x6C9 PUSH1 0x4 DUP1 CALLDATASIZE SUB PUSH1 0x40 DUP2 LT ISZERO PUSH2 0x6A7 JUMPI PUSH1 0x0 DUP1 REVERT JUMPDEST DUP2 ADD SWAP1 DUP1 DUP1 CALLDATALOAD SWAP1 PUSH1 0x20 ADD SWAP1 SWAP3 SWAP2 SWAP1 DUP1 CALLDATALOAD ISZERO ISZERO SWAP1 PUSH1 0x20 ADD SWAP1 SWAP3 SWAP2 SWAP1 POP POP POP PUSH2 0x1783 JUMP JUMPDEST PUSH1 0x40 MLOAD DUP1 DUP3 DUP2 MSTORE PUSH1 0x20 ADD SWAP2 POP POP PUSH1 0x40 MLOAD DUP1 SWAP2 SUB SWAP1 RETURN JUMPDEST CALLVALUE DUP1 ISZERO PUSH2 0x6EB JUMPI PUSH1 0x0 DUP1 REVERT JUMPDEST POP PUSH2 0x6F4 PUSH2 0x1840 JUMP JUMPDEST PUSH1 0x40 MLOAD DUP1 DUP3 PUSH20 0xFFFFFFFFFFFFFFFFFFFFFFFFFFFFFFFFFFFFFFFF AND DUP2 MSTORE PUSH1 0x20 ADD SWAP2 POP POP PUSH1 0x40 MLOAD DUP1 SWAP2 SUB SWAP1 RETURN JUMPDEST CALLVALUE DUP1 ISZERO PUSH2 0x72C JUMPI PUSH1 0x0 DUP1 REVERT JUMPDEST POP PUSH2 0x735 PUSH2 0x1864 JUMP JUMPDEST PUSH1 0x40 MLOAD DUP1 DUP3 ISZERO ISZERO DUP2 MSTORE PUSH1 0x20 ADD SWAP2 POP POP PUSH1 0x40 MLOAD DUP1 SWAP2 SUB SWAP1 RETURN JUMPDEST CALLVALUE DUP1 ISZERO PUSH2 0x759 JUMPI PUSH1 0x0 DUP1 REVERT JUMPDEST POP PUSH2 0x79C PUSH1 0x4 DUP1 CALLDATASIZE SUB PUSH1 0x20 DUP2 LT ISZERO PUSH2 0x770 JUMPI PUSH1 0x0 DUP1 REVERT JUMPDEST DUP2 ADD SWAP1 DUP1 DUP1 CALLDATALOAD PUSH20 0xFFFFFFFFFFFFFFFFFFFFFFFFFFFFFFFFFFFFFFFF AND SWAP1 PUSH1 0x20 ADD SWAP1 SWAP3 SWAP2 SWAP1 POP POP POP PUSH2 0x1877 JUMP JUMPDEST STOP JUMPDEST CALLVALUE DUP1 ISZERO PUSH2 0x7AA JUMPI PUSH1 0x0 DUP1 REVERT JUMPDEST POP PUSH2 0x7ED PUSH1 0x4 DUP1 CALLDATASIZE SUB PUSH1 0x20 DUP2 LT ISZERO PUSH2 0x7C1 JUMPI PUSH1 0x0 DUP1 REVERT JUMPDEST DUP2 ADD SWAP1 DUP1 DUP1 CALLDATALOAD PUSH20 0xFFFFFFFFFFFFFFFFFFFFFFFFFFFFFFFFFFFFFFFF AND SWAP1 PUSH1 0x20 ADD SWAP1 SWAP3 SWAP2 SWAP1 POP POP POP PUSH2 0x1B91 JUMP JUMPDEST PUSH1 0x40 MLOAD DUP1 DUP3 ISZERO ISZERO DUP2 MSTORE PUSH1 0x20 ADD SWAP2 POP POP PUSH1 0x40 MLOAD DUP1 SWAP2 SUB SWAP1 RETURN JUMPDEST CALLVALUE DUP1 ISZERO PUSH2 0x811 JUMPI PUSH1 0x0 DUP1 REVERT JUMPDEST POP PUSH2 0x81A PUSH2 0x1BE7 JUMP JUMPDEST PUSH1 0x40 MLOAD DUP1 DUP3 DUP2 MSTORE PUSH1 0x20 ADD SWAP2 POP POP PUSH1 0x40 MLOAD DUP1 SWAP2 SUB SWAP1 RETURN JUMPDEST CALLVALUE DUP1 ISZERO PUSH2 0x83C JUMPI PUSH1 0x0 DUP1 REVERT JUMPDEST POP PUSH2 0x87F PUSH1 0x4 DUP1 CALLDATASIZE SUB PUSH1 0x20 DUP2 LT ISZERO PUSH2 0x853 JUMPI PUSH1 0x0 DUP1 REVERT JUMPDEST DUP2 ADD SWAP1 DUP1 DUP1 CALLDATALOAD PUSH20 0xFFFFFFFFFFFFFFFFFFFFFFFFFFFFFFFFFFFFFFFF AND SWAP1 PUSH1 0x20 ADD SWAP1 SWAP3 SWAP2 SWAP1 POP POP POP PUSH2 0x1BED JUMP JUMPDEST PUSH1 0x40 MLOAD DUP1 DUP3 DUP2 MSTORE PUSH1 0x20 ADD SWAP2 POP POP PUSH1 0x40 MLOAD DUP1 SWAP2 SUB SWAP1 RETURN JUMPDEST CALLVALUE DUP1 ISZERO PUSH2 0x8A1 JUMPI PUSH1 0x0 DUP1 REVERT JUMPDEST POP PUSH2 0x8AA PUSH2 0x1CD8 JUMP JUMPDEST STOP JUMPDEST CALLVALUE DUP1 ISZERO PUSH2 0x8B8 JUMPI PUSH1 0x0 DUP1 REVERT JUMPDEST POP PUSH2 0x8C1 PUSH2 0x1E5E JUMP JUMPDEST PUSH1 0x40 MLOAD DUP1 DUP3 DUP2 MSTORE PUSH1 0x20 ADD SWAP2 POP POP PUSH1 0x40 MLOAD DUP1 SWAP2 SUB SWAP1 RETURN JUMPDEST CALLVALUE DUP1 ISZERO PUSH2 0x8E3 JUMPI PUSH1 0x0 DUP1 REVERT JUMPDEST POP PUSH2 0x926 PUSH1 0x4 DUP1 CALLDATASIZE SUB PUSH1 0x20 DUP2 LT ISZERO PUSH2 0x8FA JUMPI PUSH1 0x0 DUP1 REVERT JUMPDEST DUP2 ADD SWAP1 DUP1 DUP1 CALLDATALOAD PUSH20 0xFFFFFFFFFFFFFFFFFFFFFFFFFFFFFFFFFFFFFFFF AND SWAP1 PUSH1 0x20 ADD SWAP1 SWAP3 SWAP2 SWAP1 POP POP POP PUSH2 0x1E64 JUMP JUMPDEST PUSH1 0x40 MLOAD DUP1 DUP3 ISZERO ISZERO DUP2 MSTORE PUSH1 0x20 ADD SWAP2 POP POP PUSH1 0x40 MLOAD DUP1 SWAP2 SUB SWAP1 RETURN JUMPDEST CALLVALUE DUP1 ISZERO PUSH2 0x94A JUMPI PUSH1 0x0 DUP1 REVERT JUMPDEST POP PUSH2 0x953 PUSH2 0x1EBA JUMP JUMPDEST PUSH1 0x40 MLOAD DUP1 DUP3 PUSH20 0xFFFFFFFFFFFFFFFFFFFFFFFFFFFFFFFFFFFFFFFF AND DUP2 MSTORE PUSH1 0x20 ADD SWAP2 POP POP PUSH1 0x40 MLOAD DUP1 SWAP2 SUB SWAP1 RETURN JUMPDEST CALLVALUE DUP1 ISZERO PUSH2 0x98B JUMPI PUSH1 0x0 DUP1 REVERT JUMPDEST POP PUSH2 0x9B8 PUSH1 0x4 DUP1 CALLDATASIZE SUB PUSH1 0x20 DUP2 LT ISZERO PUSH2 0x9A2 JUMPI PUSH1 0x0 DUP1 REVERT JUMPDEST DUP2 ADD SWAP1 DUP1 DUP1 CALLDATALOAD SWAP1 PUSH1 0x20 ADD SWAP1 SWAP3 SWAP2 SWAP1 POP POP POP PUSH2 0x1EE3 JUMP JUMPDEST STOP JUMPDEST CALLVALUE DUP1 ISZERO PUSH2 0x9C6 JUMPI PUSH1 0x0 DUP1 REVERT JUMPDEST POP PUSH2 0x9CF PUSH2 0x1FB5 JUMP JUMPDEST PUSH1 0x40 MLOAD DUP1 DUP1 PUSH1 0x20 ADD DUP3 DUP2 SUB DUP3 MSTORE DUP4 DUP2 DUP2 MLOAD DUP2 MSTORE PUSH1 0x20 ADD SWAP2 POP DUP1 MLOAD SWAP1 PUSH1 0x20 ADD SWAP1 DUP1 DUP4 DUP4 PUSH1 0x0 JUMPDEST DUP4 DUP2 LT ISZERO PUSH2 0xA0F JUMPI DUP1 DUP3 ADD MLOAD DUP2 DUP5 ADD MSTORE PUSH1 0x20 DUP2 ADD SWAP1 POP PUSH2 0x9F4 JUMP JUMPDEST POP POP POP POP SWAP1 POP SWAP1 DUP2 ADD SWAP1 PUSH1 0x1F AND DUP1 ISZERO PUSH2 0xA3C JUMPI DUP1 DUP3 SUB DUP1 MLOAD PUSH1 0x1 DUP4 PUSH1 0x20 SUB PUSH2 0x100 EXP SUB NOT AND DUP2 MSTORE PUSH1 0x20 ADD SWAP2 POP JUMPDEST POP SWAP3 POP POP POP PUSH1 0x40 MLOAD DUP1 SWAP2 SUB SWAP1 RETURN JUMPDEST CALLVALUE DUP1 ISZERO PUSH2 0xA56 JUMPI PUSH1 0x0 DUP1 REVERT JUMPDEST POP PUSH2 0xAA3 PUSH1 0x4 DUP1 CALLDATASIZE SUB PUSH1 0x40 DUP2 LT ISZERO PUSH2 0xA6D JUMPI PUSH1 0x0 DUP1 REVERT JUMPDEST DUP2 ADD SWAP1 DUP1 DUP1 CALLDATALOAD PUSH20 0xFFFFFFFFFFFFFFFFFFFFFFFFFFFFFFFFFFFFFFFF AND SWAP1 PUSH1 0x20 ADD SWAP1 SWAP3 SWAP2 SWAP1 DUP1 CALLDATALOAD SWAP1 PUSH1 0x20 ADD SWAP1 SWAP3 SWAP2 SWAP1 POP POP POP PUSH2 0x2057 JUMP JUMPDEST PUSH1 0x40 MLOAD DUP1 DUP3 ISZERO ISZERO DUP2 MSTORE PUSH1 0x20 ADD SWAP2 POP POP PUSH1 0x40 MLOAD DUP1 SWAP2 SUB SWAP1 RETURN JUMPDEST CALLVALUE DUP1 ISZERO PUSH2 0xAC7 JUMPI PUSH1 0x0 DUP1 REVERT JUMPDEST POP PUSH2 0xAD0 PUSH2 0x2124 JUMP JUMPDEST STOP JUMPDEST CALLVALUE DUP1 ISZERO PUSH2 0xADE JUMPI PUSH1 0x0 DUP1 REVERT JUMPDEST POP PUSH2 0xB2B PUSH1 0x4 DUP1 CALLDATASIZE SUB PUSH1 0x40 DUP2 LT ISZERO PUSH2 0xAF5 JUMPI PUSH1 0x0 DUP1 REVERT JUMPDEST DUP2 ADD SWAP1 DUP1 DUP1 CALLDATALOAD PUSH20 0xFFFFFFFFFFFFFFFFFFFFFFFFFFFFFFFFFFFFFFFF AND SWAP1 PUSH1 0x20 ADD SWAP1 SWAP3 SWAP2 SWAP1 DUP1 CALLDATALOAD SWAP1 PUSH1 0x20 ADD SWAP1 SWAP3 SWAP2 SWAP1 POP POP POP PUSH2 0x2341 JUMP JUMPDEST PUSH1 0x40 MLOAD DUP1 DUP3 ISZERO ISZERO DUP2 MSTORE PUSH1 0x20 ADD SWAP2 POP POP PUSH1 0x40 MLOAD DUP1 SWAP2 SUB SWAP1 RETURN JUMPDEST CALLVALUE DUP1 ISZERO PUSH2 0xB4F JUMPI PUSH1 0x0 DUP1 REVERT JUMPDEST POP PUSH2 0xB58 PUSH2 0x235F JUMP JUMPDEST PUSH1 0x40 MLOAD DUP1 DUP3 DUP2 MSTORE PUSH1 0x20 ADD SWAP2 POP POP PUSH1 0x40 MLOAD DUP1 SWAP2 SUB SWAP1 RETURN JUMPDEST CALLVALUE DUP1 ISZERO PUSH2 0xB7A JUMPI PUSH1 0x0 DUP1 REVERT JUMPDEST POP PUSH2 0xBA9 PUSH1 0x4 DUP1 CALLDATASIZE SUB PUSH1 0x20 DUP2 LT ISZERO PUSH2 0xB91 JUMPI PUSH1 0x0 DUP1 REVERT JUMPDEST DUP2 ADD SWAP1 DUP1 DUP1 CALLDATALOAD ISZERO ISZERO SWAP1 PUSH1 0x20 ADD SWAP1 SWAP3 SWAP2 SWAP1 POP POP POP PUSH2 0x2369 JUMP JUMPDEST STOP JUMPDEST CALLVALUE DUP1 ISZERO PUSH2 0xBB7 JUMPI PUSH1 0x0 DUP1 REVERT JUMPDEST POP PUSH2 0xBE4 PUSH1 0x4 DUP1 CALLDATASIZE SUB PUSH1 0x20 DUP2 LT ISZERO PUSH2 0xBCE JUMPI PUSH1 0x0 DUP1 REVERT JUMPDEST DUP2 ADD SWAP1 DUP1 DUP1 CALLDATALOAD SWAP1 PUSH1 0x20 ADD SWAP1 SWAP3 SWAP2 SWAP1 POP POP POP PUSH2 0x2487 JUMP JUMPDEST STOP JUMPDEST CALLVALUE DUP1 ISZERO PUSH2 0xBF2 JUMPI PUSH1 0x0 DUP1 REVERT JUMPDEST POP PUSH2 0xC1F PUSH1 0x4 DUP1 CALLDATASIZE SUB PUSH1 0x20 DUP2 LT ISZERO PUSH2 0xC09 JUMPI PUSH1 0x0 DUP1 REVERT JUMPDEST DUP2 ADD SWAP1 DUP1 DUP1 CALLDATALOAD SWAP1 PUSH1 0x20 ADD SWAP1 SWAP3 SWAP2 SWAP1 POP POP POP PUSH2 0x2586 JUMP JUMPDEST STOP JUMPDEST CALLVALUE DUP1 ISZERO PUSH2 0xC2D JUMPI PUSH1 0x0 DUP1 REVERT JUMPDEST POP PUSH2 0xC90 PUSH1 0x4 DUP1 CALLDATASIZE SUB PUSH1 0x40 DUP2 LT ISZERO PUSH2 0xC44 JUMPI PUSH1 0x0 DUP1 REVERT JUMPDEST DUP2 ADD SWAP1 DUP1 DUP1 CALLDATALOAD PUSH20 0xFFFFFFFFFFFFFFFFFFFFFFFFFFFFFFFFFFFFFFFF AND SWAP1 PUSH1 0x20 ADD SWAP1 SWAP3 SWAP2 SWAP1 DUP1 CALLDATALOAD PUSH20 0xFFFFFFFFFFFFFFFFFFFFFFFFFFFFFFFFFFFFFFFF AND SWAP1 PUSH1 0x20 ADD SWAP1 SWAP3 SWAP2 SWAP1 POP POP POP PUSH2 0x2777 JUMP JUMPDEST PUSH1 0x40 MLOAD DUP1 DUP3 DUP2 MSTORE PUSH1 0x20 ADD SWAP2 POP POP PUSH1 0x40 MLOAD DUP1 SWAP2 SUB SWAP1 RETURN JUMPDEST CALLVALUE DUP1 ISZERO PUSH2 0xCB2 JUMPI PUSH1 0x0 DUP1 REVERT JUMPDEST POP PUSH2 0xCF5 PUSH1 0x4 DUP1 CALLDATASIZE SUB PUSH1 0x20 DUP2 LT ISZERO PUSH2 0xCC9 JUMPI PUSH1 0x0 DUP1 REVERT JUMPDEST DUP2 ADD SWAP1 DUP1 DUP1 CALLDATALOAD PUSH20 0xFFFFFFFFFFFFFFFFFFFFFFFFFFFFFFFFFFFFFFFF AND SWAP1 PUSH1 0x20 ADD SWAP1 SWAP3 SWAP2 SWAP1 POP POP POP PUSH2 0x27FE JUMP JUMPDEST STOP JUMPDEST CALLVALUE DUP1 ISZERO PUSH2 0xD03 JUMPI PUSH1 0x0 DUP1 REVERT JUMPDEST POP PUSH2 0xD46 PUSH1 0x4 DUP1 CALLDATASIZE SUB PUSH1 0x20 DUP2 LT ISZERO PUSH2 0xD1A JUMPI PUSH1 0x0 DUP1 REVERT JUMPDEST DUP2 ADD SWAP1 DUP1 DUP1 CALLDATALOAD PUSH20 0xFFFFFFFFFFFFFFFFFFFFFFFFFFFFFFFFFFFFFFFF AND SWAP1 PUSH1 0x20 ADD SWAP1 SWAP3 SWAP2 SWAP1 POP POP POP PUSH2 0x2921 JUMP JUMPDEST STOP JUMPDEST PUSH2 0xD50 PUSH2 0x2B2C JUMP JUMPDEST PUSH20 0xFFFFFFFFFFFFFFFFFFFFFFFFFFFFFFFFFFFFFFFF AND PUSH1 0x0 DUP1 SLOAD SWAP1 PUSH2 0x100 EXP SWAP1 DIV PUSH20 0xFFFFFFFFFFFFFFFFFFFFFFFFFFFFFFFFFFFFFFFF AND PUSH20 0xFFFFFFFFFFFFFFFFFFFFFFFFFFFFFFFFFFFFFFFF AND EQ PUSH2 0xE10 JUMPI PUSH1 0x40 MLOAD PUSH32 0x8C379A000000000000000000000000000000000000000000000000000000000 DUP2 MSTORE PUSH1 0x4 ADD DUP1 DUP1 PUSH1 0x20 ADD DUP3 DUP2 SUB DUP3 MSTORE PUSH1 0x20 DUP2 MSTORE PUSH1 0x20 ADD DUP1 PUSH32 0x4F776E61626C653A2063616C6C6572206973206E6F7420746865206F776E6572 DUP2 MSTORE POP PUSH1 0x20 ADD SWAP2 POP POP PUSH1 0x40 MLOAD DUP1 SWAP2 SUB SWAP1 REVERT JUMPDEST DUP1 PUSH1 0xE DUP2 SWAP1 SSTORE POP POP JUMP JUMPDEST PUSH1 0x60 PUSH1 0xB DUP1 SLOAD PUSH1 0x1 DUP2 PUSH1 0x1 AND ISZERO PUSH2 0x100 MUL SUB AND PUSH1 0x2 SWAP1 DIV DUP1 PUSH1 0x1F ADD PUSH1 0x20 DUP1 SWAP2 DIV MUL PUSH1 0x20 ADD PUSH1 0x40 MLOAD SWAP1 DUP2 ADD PUSH1 0x40 MSTORE DUP1 SWAP3 SWAP2 SWAP1 DUP2 DUP2 MSTORE PUSH1 0x20 ADD DUP3 DUP1 SLOAD PUSH1 0x1 DUP2 PUSH1 0x1 AND ISZERO PUSH2 0x100 MUL SUB AND PUSH1 0x2 SWAP1 DIV DUP1 ISZERO PUSH2 0xEB2 JUMPI DUP1 PUSH1 0x1F LT PUSH2 0xE87 JUMPI PUSH2 0x100 DUP1 DUP4 SLOAD DIV MUL DUP4 MSTORE SWAP2 PUSH1 0x20 ADD SWAP2 PUSH2 0xEB2 JUMP JUMPDEST DUP3 ADD SWAP2 SWAP1 PUSH1 0x0 MSTORE PUSH1 0x20 PUSH1 0x0 KECCAK256 SWAP1 JUMPDEST DUP2 SLOAD DUP2 MSTORE SWAP1 PUSH1 0x1 ADD SWAP1 PUSH1 0x20 ADD DUP1 DUP4 GT PUSH2 0xE95 JUMPI DUP3 SWAP1 SUB PUSH1 0x1F AND DUP3 ADD SWAP2 JUMPDEST POP POP POP POP POP SWAP1 POP SWAP1 JUMP JUMPDEST PUSH1 0x0 PUSH2 0xED0 PUSH2 0xEC9 PUSH2 0x2B2C JUMP JUMPDEST DUP5 DUP5 PUSH2 0x2B34 JUMP JUMPDEST PUSH1 0x1 SWAP1 POP SWAP3 SWAP2 POP POP JUMP JUMPDEST PUSH1 0x0 PUSH1 0xA SLOAD SWAP1 POP SWAP1 JUMP JUMPDEST PUSH32 0x0 DUP2 JUMP JUMPDEST PUSH1 0x0 PUSH8 0xDE0B6B3A7640000 SWAP1 POP SWAP1 JUMP JUMPDEST PUSH1 0x0 PUSH2 0xF25 DUP5 DUP5 DUP5 PUSH2 0x2D2B JUMP JUMPDEST PUSH2 0xFE6 DUP5 PUSH2 0xF31 PUSH2 0x2B2C JUMP JUMPDEST PUSH2 0xFE1 DUP6 PUSH1 0x40 MLOAD DUP1 PUSH1 0x60 ADD PUSH1 0x40 MSTORE DUP1 PUSH1 0x28 DUP2 MSTORE PUSH1 0x20 ADD PUSH2 0x4D14 PUSH1 0x28 SWAP2 CODECOPY PUSH1 0x5 PUSH1 0x0 DUP12 PUSH20 0xFFFFFFFFFFFFFFFFFFFFFFFFFFFFFFFFFFFFFFFF AND PUSH20 0xFFFFFFFFFFFFFFFFFFFFFFFFFFFFFFFFFFFFFFFF AND DUP2 MSTORE PUSH1 0x20 ADD SWAP1 DUP2 MSTORE PUSH1 0x20 ADD PUSH1 0x0 KECCAK256 PUSH1 0x0 PUSH2 0xF97 PUSH2 0x2B2C JUMP JUMPDEST PUSH20 0xFFFFFFFFFFFFFFFFFFFFFFFFFFFFFFFFFFFFFFFF AND PUSH20 0xFFFFFFFFFFFFFFFFFFFFFFFFFFFFFFFFFFFFFFFF AND DUP2 MSTORE PUSH1 0x20 ADD SWAP1 DUP2 MSTORE PUSH1 0x20 ADD PUSH1 0x0 KECCAK256 SLOAD PUSH2 0x30F0 SWAP1 SWAP3 SWAP2 SWAP1 PUSH4 0xFFFFFFFF AND JUMP JUMPDEST PUSH2 0x2B34 JUMP JUMPDEST PUSH1 0x1 SWAP1 POP SWAP4 SWAP3 POP POP POP JUMP JUMPDEST PUSH1 0x0 PUSH1 0x9 SLOAD DUP3 GT ISZERO PUSH2 0x104E JUMPI PUSH1 0x40 MLOAD PUSH32 0x8C379A000000000000000000000000000000000000000000000000000000000 DUP2 MSTORE PUSH1 0x4 ADD DUP1 DUP1 PUSH1 0x20 ADD DUP3 DUP2 SUB DUP3 MSTORE PUSH1 0x2A DUP2 MSTORE PUSH1 0x20 ADD DUP1 PUSH2 0x4C59 PUSH1 0x2A SWAP2 CODECOPY PUSH1 0x40 ADD SWAP2 POP POP PUSH1 0x40 MLOAD DUP1 SWAP2 SUB SWAP1 REVERT JUMPDEST PUSH1 0x0 PUSH2 0x1058 PUSH2 0x31B0 JUMP JUMPDEST SWAP1 POP PUSH2 0x106D DUP2 DUP5 PUSH2 0x31DB SWAP1 SWAP2 SWAP1 PUSH4 0xFFFFFFFF AND JUMP JUMPDEST SWAP2 POP POP SWAP2 SWAP1 POP JUMP JUMPDEST PUSH1 0x0 PUSH1 0xD PUSH1 0x0 SWAP1 SLOAD SWAP1 PUSH2 0x100 EXP SWAP1 DIV PUSH1 0xFF AND SWAP1 POP SWAP1 JUMP JUMPDEST PUSH2 0x1094 PUSH2 0x2B2C JUMP JUMPDEST PUSH20 0xFFFFFFFFFFFFFFFFFFFFFFFFFFFFFFFFFFFFFFFF AND PUSH1 0x0 DUP1 SLOAD SWAP1 PUSH2 0x100 EXP SWAP1 DIV PUSH20 0xFFFFFFFFFFFFFFFFFFFFFFFFFFFFFFFFFFFFFFFF AND PUSH20 0xFFFFFFFFFFFFFFFFFFFFFFFFFFFFFFFFFFFFFFFF AND EQ PUSH2 0x1154 JUMPI PUSH1 0x40 MLOAD PUSH32 0x8C379A000000000000000000000000000000000000000000000000000000000 DUP2 MSTORE PUSH1 0x4 ADD DUP1 DUP1 PUSH1 0x20 ADD DUP3 DUP2 SUB DUP3 MSTORE PUSH1 0x20 DUP2 MSTORE PUSH1 0x20 ADD DUP1 PUSH32 0x4F776E61626C653A2063616C6C6572206973206E6F7420746865206F776E6572 DUP2 MSTORE POP PUSH1 0x20 ADD SWAP2 POP POP PUSH1 0x40 MLOAD DUP1 SWAP2 SUB SWAP1 REVERT JUMPDEST PUSH1 0x7 PUSH1 0x0 DUP3 PUSH20 0xFFFFFFFFFFFFFFFFFFFFFFFFFFFFFFFFFFFFFFFF AND PUSH20 0xFFFFFFFFFFFFFFFFFFFFFFFFFFFFFFFFFFFFFFFF AND DUP2 MSTORE PUSH1 0x20 ADD SWAP1 DUP2 MSTORE PUSH1 0x20 ADD PUSH1 0x0 KECCAK256 PUSH1 0x0 SWAP1 SLOAD SWAP1 PUSH2 0x100 EXP SWAP1 DIV PUSH1 0xFF AND PUSH2 0x1213 JUMPI PUSH1 0x40 MLOAD PUSH32 0x8C379A000000000000000000000000000000000000000000000000000000000 DUP2 MSTORE PUSH1 0x4 ADD DUP1 DUP1 PUSH1 0x20 ADD DUP3 DUP2 SUB DUP3 MSTORE PUSH1 0x1B DUP2 MSTORE PUSH1 0x20 ADD DUP1 PUSH32 0x4163636F756E7420697320616C7265616479206578636C756465640000000000 DUP2 MSTORE POP PUSH1 0x20 ADD SWAP2 POP POP PUSH1 0x40 MLOAD DUP1 SWAP2 SUB SWAP1 REVERT JUMPDEST PUSH1 0x0 JUMPDEST PUSH1 0x8 DUP1 SLOAD SWAP1 POP DUP2 LT ISZERO PUSH2 0x1412 JUMPI DUP2 PUSH20 0xFFFFFFFFFFFFFFFFFFFFFFFFFFFFFFFFFFFFFFFF AND PUSH1 0x8 DUP3 DUP2 SLOAD DUP2 LT PUSH2 0x1247 JUMPI INVALID JUMPDEST SWAP1 PUSH1 0x0 MSTORE PUSH1 0x20 PUSH1 0x0 KECCAK256 ADD PUSH1 0x0 SWAP1 SLOAD SWAP1 PUSH2 0x100 EXP SWAP1 DIV PUSH20 0xFFFFFFFFFFFFFFFFFFFFFFFFFFFFFFFFFFFFFFFF AND PUSH20 0xFFFFFFFFFFFFFFFFFFFFFFFFFFFFFFFFFFFFFFFF AND EQ ISZERO PUSH2 0x1405 JUMPI PUSH1 0x8 PUSH1 0x1 PUSH1 0x8 DUP1 SLOAD SWAP1 POP SUB DUP2 SLOAD DUP2 LT PUSH2 0x12A3 JUMPI INVALID JUMPDEST SWAP1 PUSH1 0x0 MSTORE PUSH1 0x20 PUSH1 0x0 KECCAK256 ADD PUSH1 0x0 SWAP1 SLOAD SWAP1 PUSH2 0x100 EXP SWAP1 DIV PUSH20 0xFFFFFFFFFFFFFFFFFFFFFFFFFFFFFFFFFFFFFFFF AND PUSH1 0x8 DUP3 DUP2 SLOAD DUP2 LT PUSH2 0x12DB JUMPI INVALID JUMPDEST SWAP1 PUSH1 0x0 MSTORE PUSH1 0x20 PUSH1 0x0 KECCAK256 ADD PUSH1 0x0 PUSH2 0x100 EXP DUP2 SLOAD DUP2 PUSH20 0xFFFFFFFFFFFFFFFFFFFFFFFFFFFFFFFFFFFFFFFF MUL NOT AND SWAP1 DUP4 PUSH20 0xFFFFFFFFFFFFFFFFFFFFFFFFFFFFFFFFFFFFFFFF AND MUL OR SWAP1 SSTORE POP PUSH1 0x0 PUSH1 0x4 PUSH1 0x0 DUP5 PUSH20 0xFFFFFFFFFFFFFFFFFFFFFFFFFFFFFFFFFFFFFFFF AND PUSH20 0xFFFFFFFFFFFFFFFFFFFFFFFFFFFFFFFFFFFFFFFF AND DUP2 MSTORE PUSH1 0x20 ADD SWAP1 DUP2 MSTORE PUSH1 0x20 ADD PUSH1 0x0 KECCAK256 DUP2 SWAP1 SSTORE POP PUSH1 0x0 PUSH1 0x7 PUSH1 0x0 DUP5 PUSH20 0xFFFFFFFFFFFFFFFFFFFFFFFFFFFFFFFFFFFFFFFF AND PUSH20 0xFFFFFFFFFFFFFFFFFFFFFFFFFFFFFFFFFFFFFFFF AND DUP2 MSTORE PUSH1 0x20 ADD SWAP1 DUP2 MSTORE PUSH1 0x20 ADD PUSH1 0x0 KECCAK256 PUSH1 0x0 PUSH2 0x100 EXP DUP2 SLOAD DUP2 PUSH1 0xFF MUL NOT AND SWAP1 DUP4 ISZERO ISZERO MUL OR SWAP1 SSTORE POP PUSH1 0x8 DUP1 SLOAD DUP1 PUSH2 0x13CB JUMPI INVALID JUMPDEST PUSH1 0x1 SWAP1 SUB DUP2 DUP2 SWAP1 PUSH1 0x0 MSTORE PUSH1 0x20 PUSH1 0x0 KECCAK256 ADD PUSH1 0x0 PUSH2 0x100 EXP DUP2 SLOAD SWAP1 PUSH20 0xFFFFFFFFFFFFFFFFFFFFFFFFFFFFFFFFFFFFFFFF MUL NOT AND SWAP1 SSTORE SWAP1 SSTORE PUSH2 0x1412 JUMP JUMPDEST DUP1 DUP1 PUSH1 0x1 ADD SWAP2 POP POP PUSH2 0x1216 JUMP JUMPDEST POP POP JUMP JUMPDEST PUSH1 0x0 PUSH2 0x14BF PUSH2 0x1423 PUSH2 0x2B2C JUMP JUMPDEST DUP5 PUSH2 0x14BA DUP6 PUSH1 0x5 PUSH1 0x0 PUSH2 0x1434 PUSH2 0x2B2C JUMP JUMPDEST PUSH20 0xFFFFFFFFFFFFFFFFFFFFFFFFFFFFFFFFFFFFFFFF AND PUSH20 0xFFFFFFFFFFFFFFFFFFFFFFFFFFFFFFFFFFFFFFFF AND DUP2 MSTORE PUSH1 0x20 ADD SWAP1 DUP2 MSTORE PUSH1 0x20 ADD PUSH1 0x0 KECCAK256 PUSH1 0x0 DUP10 PUSH20 0xFFFFFFFFFFFFFFFFFFFFFFFFFFFFFFFFFFFFFFFF AND PUSH20 0xFFFFFFFFFFFFFFFFFFFFFFFFFFFFFFFFFFFFFFFF AND DUP2 MSTORE PUSH1 0x20 ADD SWAP1 DUP2 MSTORE PUSH1 0x20 ADD PUSH1 0x0 KECCAK256 SLOAD PUSH2 0x3225 SWAP1 SWAP2 SWAP1 PUSH4 0xFFFFFFFF AND JUMP JUMPDEST PUSH2 0x2B34 JUMP JUMPDEST PUSH1 0x1 SWAP1 POP SWAP3 SWAP2 POP POP JUMP JUMPDEST PUSH1 0xE SLOAD DUP2 JUMP JUMPDEST PUSH1 0x0 PUSH2 0x14D9 PUSH2 0x2B2C JUMP JUMPDEST SWAP1 POP PUSH1 0x7 PUSH1 0x0 DUP3 PUSH20 0xFFFFFFFFFFFFFFFFFFFFFFFFFFFFFFFFFFFFFFFF AND PUSH20 0xFFFFFFFFFFFFFFFFFFFFFFFFFFFFFFFFFFFFFFFF AND DUP2 MSTORE PUSH1 0x20 ADD SWAP1 DUP2 MSTORE PUSH1 0x20 ADD PUSH1 0x0 KECCAK256 PUSH1 0x0 SWAP1 SLOAD SWAP1 PUSH2 0x100 EXP SWAP1 DIV PUSH1 0xFF AND ISZERO PUSH2 0x157E JUMPI PUSH1 0x40 MLOAD PUSH32 0x8C379A000000000000000000000000000000000000000000000000000000000 DUP2 MSTORE PUSH1 0x4 ADD DUP1 DUP1 PUSH1 0x20 ADD DUP3 DUP2 SUB DUP3 MSTORE PUSH1 0x2C DUP2 MSTORE PUSH1 0x20 ADD DUP1 PUSH2 0x4DAE PUSH1 0x2C SWAP2 CODECOPY PUSH1 0x40 ADD SWAP2 POP POP PUSH1 0x40 MLOAD DUP1 SWAP2 SUB SWAP1 REVERT JUMPDEST PUSH1 0x0 PUSH2 0x1589 DUP4 PUSH2 0x32AD JUMP JUMPDEST POP POP POP POP POP SWAP1 POP PUSH2 0x15E2 DUP2 PUSH1 0x3 PUSH1 0x0 DUP6 PUSH20 0xFFFFFFFFFFFFFFFFFFFFFFFFFFFFFFFFFFFFFFFF AND PUSH20 0xFFFFFFFFFFFFFFFFFFFFFFFFFFFFFFFFFFFFFFFF AND DUP2 MSTORE PUSH1 0x20 ADD SWAP1 DUP2 MSTORE PUSH1 0x20 ADD PUSH1 0x0 KECCAK256 SLOAD PUSH2 0x3309 SWAP1 SWAP2 SWAP1 PUSH4 0xFFFFFFFF AND JUMP JUMPDEST PUSH1 0x3 PUSH1 0x0 DUP5 PUSH20 0xFFFFFFFFFFFFFFFFFFFFFFFFFFFFFFFFFFFFFFFF AND PUSH20 0xFFFFFFFFFFFFFFFFFFFFFFFFFFFFFFFFFFFFFFFF AND DUP2 MSTORE PUSH1 0x20 ADD SWAP1 DUP2 MSTORE PUSH1 0x20 ADD PUSH1 0x0 KECCAK256 DUP2 SWAP1 SSTORE POP PUSH2 0x163A DUP2 PUSH1 0x9 SLOAD PUSH2 0x3309 SWAP1 SWAP2 SWAP1 PUSH4 0xFFFFFFFF AND JUMP JUMPDEST PUSH1 0x9 DUP2 SWAP1 SSTORE POP PUSH2 0x1655 DUP4 PUSH1 0xA SLOAD PUSH2 0x3225 SWAP1 SWAP2 SWAP1 PUSH4 0xFFFFFFFF AND JUMP JUMPDEST PUSH1 0xA DUP2 SWAP1 SSTORE POP POP POP POP JUMP JUMPDEST PUSH2 0x1668 PUSH2 0x2B2C JUMP JUMPDEST PUSH20 0xFFFFFFFFFFFFFFFFFFFFFFFFFFFFFFFFFFFFFFFF AND PUSH1 0x0 DUP1 SLOAD SWAP1 PUSH2 0x100 EXP SWAP1 DIV PUSH20 0xFFFFFFFFFFFFFFFFFFFFFFFFFFFFFFFFFFFFFFFF AND PUSH20 0xFFFFFFFFFFFFFFFFFFFFFFFFFFFFFFFFFFFFFFFF AND EQ PUSH2 0x1728 JUMPI PUSH1 0x40 MLOAD PUSH32 0x8C379A000000000000000000000000000000000000000000000000000000000 DUP2 MSTORE PUSH1 0x4 ADD DUP1 DUP1 PUSH1 0x20 ADD DUP3 DUP2 SUB DUP3 MSTORE PUSH1 0x20 DUP2 MSTORE PUSH1 0x20 ADD DUP1 PUSH32 0x4F776E61626C653A2063616C6C6572206973206E6F7420746865206F776E6572 DUP2 MSTORE POP PUSH1 0x20 ADD SWAP2 POP POP PUSH1 0x40 MLOAD DUP1 SWAP2 SUB SWAP1 REVERT JUMPDEST PUSH1 0x1 PUSH1 0x6 PUSH1 0x0 DUP4 PUSH20 0xFFFFFFFFFFFFFFFFFFFFFFFFFFFFFFFFFFFFFFFF AND PUSH20 0xFFFFFFFFFFFFFFFFFFFFFFFFFFFFFFFFFFFFFFFF AND DUP2 MSTORE PUSH1 0x20 ADD SWAP1 DUP2 MSTORE PUSH1 0x20 ADD PUSH1 0x0 KECCAK256 PUSH1 0x0 PUSH2 0x100 EXP DUP2 SLOAD DUP2 PUSH1 0xFF MUL NOT AND SWAP1 DUP4 ISZERO ISZERO MUL OR SWAP1 SSTORE POP POP JUMP JUMPDEST PUSH1 0x0 PUSH8 0xDE0B6B3A7640000 DUP4 GT ISZERO PUSH2 0x1803 JUMPI PUSH1 0x40 MLOAD PUSH32 0x8C379A000000000000000000000000000000000000000000000000000000000 DUP2 MSTORE PUSH1 0x4 ADD DUP1 DUP1 PUSH1 0x20 ADD DUP3 DUP2 SUB DUP3 MSTORE PUSH1 0x1F DUP2 MSTORE PUSH1 0x20 ADD DUP1 PUSH32 0x416D6F756E74206D757374206265206C657373207468616E20737570706C7900 DUP2 MSTORE POP PUSH1 0x20 ADD SWAP2 POP POP PUSH1 0x40 MLOAD DUP1 SWAP2 SUB SWAP1 REVERT JUMPDEST DUP2 PUSH2 0x1823 JUMPI PUSH1 0x0 PUSH2 0x1813 DUP5 PUSH2 0x32AD JUMP JUMPDEST POP POP POP POP POP SWAP1 POP DUP1 SWAP2 POP POP PUSH2 0x183A JUMP JUMPDEST PUSH1 0x0 PUSH2 0x182E DUP5 PUSH2 0x32AD JUMP JUMPDEST POP POP POP POP SWAP2 POP POP DUP1 SWAP2 POP POP JUMPDEST SWAP3 SWAP2 POP POP JUMP JUMPDEST PUSH32 0x0 DUP2 JUMP JUMPDEST PUSH1 0x12 PUSH1 0x1 SWAP1 SLOAD SWAP1 PUSH2 0x100 EXP SWAP1 DIV PUSH1 0xFF AND DUP2 JUMP JUMPDEST PUSH2 0x187F PUSH2 0x2B2C JUMP JUMPDEST PUSH20 0xFFFFFFFFFFFFFFFFFFFFFFFFFFFFFFFFFFFFFFFF AND PUSH1 0x0 DUP1 SLOAD SWAP1 PUSH2 0x100 EXP SWAP1 DIV PUSH20 0xFFFFFFFFFFFFFFFFFFFFFFFFFFFFFFFFFFFFFFFF AND PUSH20 0xFFFFFFFFFFFFFFFFFFFFFFFFFFFFFFFFFFFFFFFF AND EQ PUSH2 0x193F JUMPI PUSH1 0x40 MLOAD PUSH32 0x8C379A000000000000000000000000000000000000000000000000000000000 DUP2 MSTORE PUSH1 0x4 ADD DUP1 DUP1 PUSH1 0x20 ADD DUP3 DUP2 SUB DUP3 MSTORE PUSH1 0x20 DUP2 MSTORE PUSH1 0x20 ADD DUP1 PUSH32 0x4F776E61626C653A2063616C6C6572206973206E6F7420746865206F776E6572 DUP2 MSTORE POP PUSH1 0x20 ADD SWAP2 POP POP PUSH1 0x40 MLOAD DUP1 SWAP2 SUB SWAP1 REVERT JUMPDEST PUSH1 0x7 PUSH1 0x0 DUP3 PUSH20 0xFFFFFFFFFFFFFFFFFFFFFFFFFFFFFFFFFFFFFFFF AND PUSH20 0xFFFFFFFFFFFFFFFFFFFFFFFFFFFFFFFFFFFFFFFF AND DUP2 MSTORE PUSH1 0x20 ADD SWAP1 DUP2 MSTORE PUSH1 0x20 ADD PUSH1 0x0 KECCAK256 PUSH1 0x0 SWAP1 SLOAD SWAP1 PUSH2 0x100 EXP SWAP1 DIV PUSH1 0xFF AND ISZERO PUSH2 0x19FF JUMPI PUSH1 0x40 MLOAD PUSH32 0x8C379A000000000000000000000000000000000000000000000000000000000 DUP2 MSTORE PUSH1 0x4 ADD DUP1 DUP1 PUSH1 0x20 ADD DUP3 DUP2 SUB DUP3 MSTORE PUSH1 0x1B DUP2 MSTORE PUSH1 0x20 ADD DUP1 PUSH32 0x4163636F756E7420697320616C7265616479206578636C756465640000000000 DUP2 MSTORE POP PUSH1 0x20 ADD SWAP2 POP POP PUSH1 0x40 MLOAD DUP1 SWAP2 SUB SWAP1 REVERT JUMPDEST PUSH1 0x0 PUSH1 0x3 PUSH1 0x0 DUP4 PUSH20 0xFFFFFFFFFFFFFFFFFFFFFFFFFFFFFFFFFFFFFFFF AND PUSH20 0xFFFFFFFFFFFFFFFFFFFFFFFFFFFFFFFFFFFFFFFF AND DUP2 MSTORE PUSH1 0x20 ADD SWAP1 DUP2 MSTORE PUSH1 0x20 ADD PUSH1 0x0 KECCAK256 SLOAD GT ISZERO PUSH2 0x1AD3 JUMPI PUSH2 0x1A8F PUSH1 0x3 PUSH1 0x0 DUP4 PUSH20 0xFFFFFFFFFFFFFFFFFFFFFFFFFFFFFFFFFFFFFFFF AND PUSH20 0xFFFFFFFFFFFFFFFFFFFFFFFFFFFFFFFFFFFFFFFF AND DUP2 MSTORE PUSH1 0x20 ADD SWAP1 DUP2 MSTORE PUSH1 0x20 ADD PUSH1 0x0 KECCAK256 SLOAD PUSH2 0xFF1 JUMP JUMPDEST PUSH1 0x4 PUSH1 0x0 DUP4 PUSH20 0xFFFFFFFFFFFFFFFFFFFFFFFFFFFFFFFFFFFFFFFF AND PUSH20 0xFFFFFFFFFFFFFFFFFFFFFFFFFFFFFFFFFFFFFFFF AND DUP2 MSTORE PUSH1 0x20 ADD SWAP1 DUP2 MSTORE PUSH1 0x20 ADD PUSH1 0x0 KECCAK256 DUP2 SWAP1 SSTORE POP JUMPDEST PUSH1 0x1 PUSH1 0x7 PUSH1 0x0 DUP4 PUSH20 0xFFFFFFFFFFFFFFFFFFFFFFFFFFFFFFFFFFFFFFFF AND PUSH20 0xFFFFFFFFFFFFFFFFFFFFFFFFFFFFFFFFFFFFFFFF AND DUP2 MSTORE PUSH1 0x20 ADD SWAP1 DUP2 MSTORE PUSH1 0x20 ADD PUSH1 0x0 KECCAK256 PUSH1 0x0 PUSH2 0x100 EXP DUP2 SLOAD DUP2 PUSH1 0xFF MUL NOT AND SWAP1 DUP4 ISZERO ISZERO MUL OR SWAP1 SSTORE POP PUSH1 0x8 DUP2 SWAP1 DUP1 PUSH1 0x1 DUP2 SLOAD ADD DUP1 DUP3 SSTORE DUP1 SWAP2 POP POP PUSH1 0x1 SWAP1 SUB SWAP1 PUSH1 0x0 MSTORE PUSH1 0x20 PUSH1 0x0 KECCAK256 ADD PUSH1 0x0 SWAP1 SWAP2 SWAP1 SWAP2 SWAP1 SWAP2 PUSH2 0x100 EXP DUP2 SLOAD DUP2 PUSH20 0xFFFFFFFFFFFFFFFFFFFFFFFFFFFFFFFFFFFFFFFF MUL NOT AND SWAP1 DUP4 PUSH20 0xFFFFFFFFFFFFFFFFFFFFFFFFFFFFFFFFFFFFFFFF AND MUL OR SWAP1 SSTORE POP POP JUMP JUMPDEST PUSH1 0x0 PUSH1 0x6 PUSH1 0x0 DUP4 PUSH20 0xFFFFFFFFFFFFFFFFFFFFFFFFFFFFFFFFFFFFFFFF AND PUSH20 0xFFFFFFFFFFFFFFFFFFFFFFFFFFFFFFFFFFFFFFFF AND DUP2 MSTORE PUSH1 0x20 ADD SWAP1 DUP2 MSTORE PUSH1 0x20 ADD PUSH1 0x0 KECCAK256 PUSH1 0x0 SWAP1 SLOAD SWAP1 PUSH2 0x100 EXP SWAP1 DIV PUSH1 0xFF AND SWAP1 POP SWAP2 SWAP1 POP JUMP JUMPDEST PUSH1 0x10 SLOAD DUP2 JUMP JUMPDEST PUSH1 0x0 PUSH1 0x7 PUSH1 0x0 DUP4 PUSH20 0xFFFFFFFFFFFFFFFFFFFFFFFFFFFFFFFFFFFFFFFF AND PUSH20 0xFFFFFFFFFFFFFFFFFFFFFFFFFFFFFFFFFFFFFFFF AND DUP2 MSTORE PUSH1 0x20 ADD SWAP1 DUP2 MSTORE PUSH1 0x20 ADD PUSH1 0x0 KECCAK256 PUSH1 0x0 SWAP1 SLOAD SWAP1 PUSH2 0x100 EXP SWAP1 DIV PUSH1 0xFF AND ISZERO PUSH2 0x1C88 JUMPI PUSH1 0x4 PUSH1 0x0 DUP4 PUSH20 0xFFFFFFFFFFFFFFFFFFFFFFFFFFFFFFFFFFFFFFFF AND PUSH20 0xFFFFFFFFFFFFFFFFFFFFFFFFFFFFFFFFFFFFFFFF AND DUP2 MSTORE PUSH1 0x20 ADD SWAP1 DUP2 MSTORE PUSH1 0x20 ADD PUSH1 0x0 KECCAK256 SLOAD SWAP1 POP PUSH2 0x1CD3 JUMP JUMPDEST PUSH2 0x1CD0 PUSH1 0x3 PUSH1 0x0 DUP5 PUSH20 0xFFFFFFFFFFFFFFFFFFFFFFFFFFFFFFFFFFFFFFFF AND PUSH20 0xFFFFFFFFFFFFFFFFFFFFFFFFFFFFFFFFFFFFFFFF AND DUP2 MSTORE PUSH1 0x20 ADD SWAP1 DUP2 MSTORE PUSH1 0x20 ADD PUSH1 0x0 KECCAK256 SLOAD PUSH2 0xFF1 JUMP JUMPDEST SWAP1 POP JUMPDEST SWAP2 SWAP1 POP JUMP JUMPDEST PUSH2 0x1CE0 PUSH2 0x2B2C JUMP JUMPDEST PUSH20 0xFFFFFFFFFFFFFFFFFFFFFFFFFFFFFFFFFFFFFFFF AND PUSH1 0x0 DUP1 SLOAD SWAP1 PUSH2 0x100 EXP SWAP1 DIV PUSH20 0xFFFFFFFFFFFFFFFFFFFFFFFFFFFFFFFFFFFFFFFF AND PUSH20 0xFFFFFFFFFFFFFFFFFFFFFFFFFFFFFFFFFFFFFFFF AND EQ PUSH2 0x1DA0 JUMPI PUSH1 0x40 MLOAD PUSH32 0x8C379A000000000000000000000000000000000000000000000000000000000 DUP2 MSTORE PUSH1 0x4 ADD DUP1 DUP1 PUSH1 0x20 ADD DUP3 DUP2 SUB DUP3 MSTORE PUSH1 0x20 DUP2 MSTORE PUSH1 0x20 ADD DUP1 PUSH32 0x4F776E61626C653A2063616C6C6572206973206E6F7420746865206F776E6572 DUP2 MSTORE POP PUSH1 0x20 ADD SWAP2 POP POP PUSH1 0x40 MLOAD DUP1 SWAP2 SUB SWAP1 REVERT JUMPDEST PUSH1 0x0 PUSH20 0xFFFFFFFFFFFFFFFFFFFFFFFFFFFFFFFFFFFFFFFF AND PUSH1 0x0 DUP1 SLOAD SWAP1 PUSH2 0x100 EXP SWAP1 DIV PUSH20 0xFFFFFFFFFFFFFFFFFFFFFFFFFFFFFFFFFFFFFFFF AND PUSH20 0xFFFFFFFFFFFFFFFFFFFFFFFFFFFFFFFFFFFFFFFF AND PUSH32 0x8BE0079C531659141344CD1FD0A4F28419497F9722A3DAAFE3B4186F6B6457E0 PUSH1 0x40 MLOAD PUSH1 0x40 MLOAD DUP1 SWAP2 SUB SWAP1 LOG3 PUSH1 0x0 DUP1 PUSH1 0x0 PUSH2 0x100 EXP DUP2 SLOAD DUP2 PUSH20 0xFFFFFFFFFFFFFFFFFFFFFFFFFFFFFFFFFFFFFFFF MUL NOT AND SWAP1 DUP4 PUSH20 0xFFFFFFFFFFFFFFFFFFFFFFFFFFFFFFFFFFFFFFFF AND MUL OR SWAP1 SSTORE POP JUMP JUMPDEST PUSH1 0x13 SLOAD DUP2 JUMP JUMPDEST PUSH1 0x0 PUSH1 0x7 PUSH1 0x0 DUP4 PUSH20 0xFFFFFFFFFFFFFFFFFFFFFFFFFFFFFFFFFFFFFFFF AND PUSH20 0xFFFFFFFFFFFFFFFFFFFFFFFFFFFFFFFFFFFFFFFF AND DUP2 MSTORE PUSH1 0x20 ADD SWAP1 DUP2 MSTORE PUSH1 0x20 ADD PUSH1 0x0 KECCAK256 PUSH1 0x0 SWAP1 SLOAD SWAP1 PUSH2 0x100 EXP SWAP1 DIV PUSH1 0xFF AND SWAP1 POP SWAP2 SWAP1 POP JUMP JUMPDEST PUSH1 0x0 DUP1 PUSH1 0x0 SWAP1 SLOAD SWAP1 PUSH2 0x100 EXP SWAP1 DIV PUSH20 0xFFFFFFFFFFFFFFFFFFFFFFFFFFFFFFFFFFFFFFFF AND SWAP1 POP SWAP1 JUMP JUMPDEST PUSH2 0x1EEB PUSH2 0x2B2C JUMP JUMPDEST PUSH20 0xFFFFFFFFFFFFFFFFFFFFFFFFFFFFFFFFFFFFFFFF AND PUSH1 0x0 DUP1 SLOAD SWAP1 PUSH2 0x100 EXP SWAP1 DIV PUSH20 0xFFFFFFFFFFFFFFFFFFFFFFFFFFFFFFFFFFFFFFFF AND PUSH20 0xFFFFFFFFFFFFFFFFFFFFFFFFFFFFFFFFFFFFFFFF AND EQ PUSH2 0x1FAB JUMPI PUSH1 0x40 MLOAD PUSH32 0x8C379A000000000000000000000000000000000000000000000000000000000 DUP2 MSTORE PUSH1 0x4 ADD DUP1 DUP1 PUSH1 0x20 ADD DUP3 DUP2 SUB DUP3 MSTORE PUSH1 0x20 DUP2 MSTORE PUSH1 0x20 ADD DUP1 PUSH32 0x4F776E61626C653A2063616C6C6572206973206E6F7420746865206F776E6572 DUP2 MSTORE POP PUSH1 0x20 ADD SWAP2 POP POP PUSH1 0x40 MLOAD DUP1 SWAP2 SUB SWAP1 REVERT JUMPDEST DUP1 PUSH1 0x10 DUP2 SWAP1 SSTORE POP POP JUMP JUMPDEST PUSH1 0x60 PUSH1 0xC DUP1 SLOAD PUSH1 0x1 DUP2 PUSH1 0x1 AND ISZERO PUSH2 0x100 MUL SUB AND PUSH1 0x2 SWAP1 DIV DUP1 PUSH1 0x1F ADD PUSH1 0x20 DUP1 SWAP2 DIV MUL PUSH1 0x20 ADD PUSH1 0x40 MLOAD SWAP1 DUP2 ADD PUSH1 0x40 MSTORE DUP1 SWAP3 SWAP2 SWAP1 DUP2 DUP2 MSTORE PUSH1 0x20 ADD DUP3 DUP1 SLOAD PUSH1 0x1 DUP2 PUSH1 0x1 AND ISZERO PUSH2 0x100 MUL SUB AND PUSH1 0x2 SWAP1 DIV DUP1 ISZERO PUSH2 0x204D JUMPI DUP1 PUSH1 0x1F LT PUSH2 0x2022 JUMPI PUSH2 0x100 DUP1 DUP4 SLOAD DIV MUL DUP4 MSTORE SWAP2 PUSH1 0x20 ADD SWAP2 PUSH2 0x204D JUMP JUMPDEST DUP3 ADD SWAP2 SWAP1 PUSH1 0x0 MSTORE PUSH1 0x20 PUSH1 0x0 KECCAK256 SWAP1 JUMPDEST DUP2 SLOAD DUP2 MSTORE SWAP1 PUSH1 0x1 ADD SWAP1 PUSH1 0x20 ADD DUP1 DUP4 GT PUSH2 0x2030 JUMPI DUP3 SWAP1 SUB PUSH1 0x1F AND DUP3 ADD SWAP2 JUMPDEST POP POP POP POP POP SWAP1 POP SWAP1 JUMP JUMPDEST PUSH1 0x0 PUSH2 0x211A PUSH2 0x2064 PUSH2 0x2B2C JUMP JUMPDEST DUP5 PUSH2 0x2115 DUP6 PUSH1 0x40 MLOAD DUP1 PUSH1 0x60 ADD PUSH1 0x40 MSTORE DUP1 PUSH1 0x25 DUP2 MSTORE PUSH1 0x20 ADD PUSH2 0x4DFD PUSH1 0x25 SWAP2 CODECOPY PUSH1 0x5 PUSH1 0x0 PUSH2 0x208E PUSH2 0x2B2C JUMP JUMPDEST PUSH20 0xFFFFFFFFFFFFFFFFFFFFFFFFFFFFFFFFFFFFFFFF AND PUSH20 0xFFFFFFFFFFFFFFFFFFFFFFFFFFFFFFFFFFFFFFFF AND DUP2 MSTORE PUSH1 0x20 ADD SWAP1 DUP2 MSTORE PUSH1 0x20 ADD PUSH1 0x0 KECCAK256 PUSH1 0x0 DUP11 PUSH20 0xFFFFFFFFFFFFFFFFFFFFFFFFFFFFFFFFFFFFFFFF AND PUSH20 0xFFFFFFFFFFFFFFFFFFFFFFFFFFFFFFFFFFFFFFFF AND DUP2 MSTORE PUSH1 0x20 ADD SWAP1 DUP2 MSTORE PUSH1 0x20 ADD PUSH1 0x0 KECCAK256 SLOAD PUSH2 0x30F0 SWAP1 SWAP3 SWAP2 SWAP1 PUSH4 0xFFFFFFFF AND JUMP JUMPDEST PUSH2 0x2B34 JUMP JUMPDEST PUSH1 0x1 SWAP1 POP SWAP3 SWAP2 POP POP JUMP JUMPDEST CALLER PUSH20 0xFFFFFFFFFFFFFFFFFFFFFFFFFFFFFFFFFFFFFFFF AND PUSH1 0x1 PUSH1 0x0 SWAP1 SLOAD SWAP1 PUSH2 0x100 EXP SWAP1 DIV PUSH20 0xFFFFFFFFFFFFFFFFFFFFFFFFFFFFFFFFFFFFFFFF AND PUSH20 0xFFFFFFFFFFFFFFFFFFFFFFFFFFFFFFFFFFFFFFFF AND EQ PUSH2 0x21CA JUMPI PUSH1 0x40 MLOAD PUSH32 0x8C379A000000000000000000000000000000000000000000000000000000000 DUP2 MSTORE PUSH1 0x4 ADD DUP1 DUP1 PUSH1 0x20 ADD DUP3 DUP2 SUB DUP3 MSTORE PUSH1 0x23 DUP2 MSTORE PUSH1 0x20 ADD DUP1 PUSH2 0x4DDA PUSH1 0x23 SWAP2 CODECOPY PUSH1 0x40 ADD SWAP2 POP POP PUSH1 0x40 MLOAD DUP1 SWAP2 SUB SWAP1 REVERT JUMPDEST PUSH1 0x2 SLOAD TIMESTAMP GT PUSH2 0x2241 JUMPI PUSH1 0x40 MLOAD PUSH32 0x8C379A000000000000000000000000000000000000000000000000000000000 DUP2 MSTORE PUSH1 0x4 ADD DUP1 DUP1 PUSH1 0x20 ADD DUP3 DUP2 SUB DUP3 MSTORE PUSH1 0x1F DUP2 MSTORE PUSH1 0x20 ADD DUP1 PUSH32 0x436F6E7472616374206973206C6F636B656420756E74696C2037206461797300 DUP2 MSTORE POP PUSH1 0x20 ADD SWAP2 POP POP PUSH1 0x40 MLOAD DUP1 SWAP2 SUB SWAP1 REVERT JUMPDEST PUSH1 0x1 PUSH1 0x0 SWAP1 SLOAD SWAP1 PUSH2 0x100 EXP SWAP1 DIV PUSH20 0xFFFFFFFFFFFFFFFFFFFFFFFFFFFFFFFFFFFFFFFF AND PUSH20 0xFFFFFFFFFFFFFFFFFFFFFFFFFFFFFFFFFFFFFFFF AND PUSH1 0x0 DUP1 SLOAD SWAP1 PUSH2 0x100 EXP SWAP1 DIV PUSH20 0xFFFFFFFFFFFFFFFFFFFFFFFFFFFFFFFFFFFFFFFF AND PUSH20 0xFFFFFFFFFFFFFFFFFFFFFFFFFFFFFFFFFFFFFFFF AND PUSH32 0x8BE0079C531659141344CD1FD0A4F28419497F9722A3DAAFE3B4186F6B6457E0 PUSH1 0x40 MLOAD PUSH1 0x40 MLOAD DUP1 SWAP2 SUB SWAP1 LOG3 PUSH1 0x1 PUSH1 0x0 SWAP1 SLOAD SWAP1 PUSH2 0x100 EXP SWAP1 DIV PUSH20 0xFFFFFFFFFFFFFFFFFFFFFFFFFFFFFFFFFFFFFFFF AND PUSH1 0x0 DUP1 PUSH2 0x100 EXP DUP2 SLOAD DUP2 PUSH20 0xFFFFFFFFFFFFFFFFFFFFFFFFFFFFFFFFFFFFFFFF MUL NOT AND SWAP1 DUP4 PUSH20 0xFFFFFFFFFFFFFFFFFFFFFFFFFFFFFFFFFFFFFFFF AND MUL OR SWAP1 SSTORE POP JUMP JUMPDEST PUSH1 0x0 PUSH2 0x2355 PUSH2 0x234E PUSH2 0x2B2C JUMP JUMPDEST DUP5 DUP5 PUSH2 0x2D2B JUMP JUMPDEST PUSH1 0x1 SWAP1 POP SWAP3 SWAP2 POP POP JUMP JUMPDEST PUSH1 0x0 PUSH1 0x2 SLOAD SWAP1 POP SWAP1 JUMP JUMPDEST PUSH2 0x2371 PUSH2 0x2B2C JUMP JUMPDEST PUSH20 0xFFFFFFFFFFFFFFFFFFFFFFFFFFFFFFFFFFFFFFFF AND PUSH1 0x0 DUP1 SLOAD SWAP1 PUSH2 0x100 EXP SWAP1 DIV PUSH20 0xFFFFFFFFFFFFFFFFFFFFFFFFFFFFFFFFFFFFFFFF AND PUSH20 0xFFFFFFFFFFFFFFFFFFFFFFFFFFFFFFFFFFFFFFFF AND EQ PUSH2 0x2431 JUMPI PUSH1 0x40 MLOAD PUSH32 0x8C379A000000000000000000000000000000000000000000000000000000000 DUP2 MSTORE PUSH1 0x4 ADD DUP1 DUP1 PUSH1 0x20 ADD DUP3 DUP2 SUB DUP3 MSTORE PUSH1 0x20 DUP2 MSTORE PUSH1 0x20 ADD DUP1 PUSH32 0x4F776E61626C653A2063616C6C6572206973206E6F7420746865206F776E6572 DUP2 MSTORE POP PUSH1 0x20 ADD SWAP2 POP POP PUSH1 0x40 MLOAD DUP1 SWAP2 SUB SWAP1 REVERT JUMPDEST DUP1 PUSH1 0x12 PUSH1 0x1 PUSH2 0x100 EXP DUP2 SLOAD DUP2 PUSH1 0xFF MUL NOT AND SWAP1 DUP4 ISZERO ISZERO MUL OR SWAP1 SSTORE POP PUSH32 0x53726DFCAF90650AA7EB35524F4D3220F07413C8D6CB404CC8C18BF5591BC159 DUP2 PUSH1 0x40 MLOAD DUP1 DUP3 ISZERO ISZERO DUP2 MSTORE PUSH1 0x20 ADD SWAP2 POP POP PUSH1 0x40 MLOAD DUP1 SWAP2 SUB SWAP1 LOG1 POP JUMP JUMPDEST PUSH2 0x248F PUSH2 0x2B2C JUMP JUMPDEST PUSH20 0xFFFFFFFFFFFFFFFFFFFFFFFFFFFFFFFFFFFFFFFF AND PUSH1 0x0 DUP1 SLOAD SWAP1 PUSH2 0x100 EXP SWAP1 DIV PUSH20 0xFFFFFFFFFFFFFFFFFFFFFFFFFFFFFFFFFFFFFFFF AND PUSH20 0xFFFFFFFFFFFFFFFFFFFFFFFFFFFFFFFFFFFFFFFF AND EQ PUSH2 0x254F JUMPI PUSH1 0x40 MLOAD PUSH32 0x8C379A000000000000000000000000000000000000000000000000000000000 DUP2 MSTORE PUSH1 0x4 ADD DUP1 DUP1 PUSH1 0x20 ADD DUP3 DUP2 SUB DUP3 MSTORE PUSH1 0x20 DUP2 MSTORE PUSH1 0x20 ADD DUP1 PUSH32 0x4F776E61626C653A2063616C6C6572206973206E6F7420746865206F776E6572 DUP2 MSTORE POP PUSH1 0x20 ADD SWAP2 POP POP PUSH1 0x40 MLOAD DUP1 SWAP2 SUB SWAP1 REVERT JUMPDEST PUSH2 0x257D PUSH1 0x64 PUSH2 0x256F DUP4 PUSH8 0xDE0B6B3A7640000 PUSH2 0x3353 SWAP1 SWAP2 SWAP1 PUSH4 0xFFFFFFFF AND JUMP JUMPDEST PUSH2 0x31DB SWAP1 SWAP2 SWAP1 PUSH4 0xFFFFFFFF AND JUMP JUMPDEST PUSH1 0x13 DUP2 SWAP1 SSTORE POP POP JUMP JUMPDEST PUSH2 0x258E PUSH2 0x2B2C JUMP JUMPDEST PUSH20 0xFFFFFFFFFFFFFFFFFFFFFFFFFFFFFFFFFFFFFFFF AND PUSH1 0x0 DUP1 SLOAD SWAP1 PUSH2 0x100 EXP SWAP1 DIV PUSH20 0xFFFFFFFFFFFFFFFFFFFFFFFFFFFFFFFFFFFFFFFF AND PUSH20 0xFFFFFFFFFFFFFFFFFFFFFFFFFFFFFFFFFFFFFFFF AND EQ PUSH2 0x264E JUMPI PUSH1 0x40 MLOAD PUSH32 0x8C379A000000000000000000000000000000000000000000000000000000000 DUP2 MSTORE PUSH1 0x4 ADD DUP1 DUP1 PUSH1 0x20 ADD DUP3 DUP2 SUB DUP3 MSTORE PUSH1 0x20 DUP2 MSTORE PUSH1 0x20 ADD DUP1 PUSH32 0x4F776E61626C653A2063616C6C6572206973206E6F7420746865206F776E6572 DUP2 MSTORE POP PUSH1 0x20 ADD SWAP2 POP POP PUSH1 0x40 MLOAD DUP1 SWAP2 SUB SWAP1 REVERT JUMPDEST PUSH1 0x0 DUP1 SLOAD SWAP1 PUSH2 0x100 EXP SWAP1 DIV PUSH20 0xFFFFFFFFFFFFFFFFFFFFFFFFFFFFFFFFFFFFFFFF AND PUSH1 0x1 PUSH1 0x0 PUSH2 0x100 EXP DUP2 SLOAD DUP2 PUSH20 0xFFFFFFFFFFFFFFFFFFFFFFFFFFFFFFFFFFFFFFFF MUL NOT AND SWAP1 DUP4 PUSH20 0xFFFFFFFFFFFFFFFFFFFFFFFFFFFFFFFFFFFFFFFF AND MUL OR SWAP1 SSTORE POP PUSH1 0x0 DUP1 PUSH1 0x0 PUSH2 0x100 EXP DUP2 SLOAD DUP2 PUSH20 0xFFFFFFFFFFFFFFFFFFFFFFFFFFFFFFFFFFFFFFFF MUL NOT AND SWAP1 DUP4 PUSH20 0xFFFFFFFFFFFFFFFFFFFFFFFFFFFFFFFFFFFFFFFF AND MUL OR SWAP1 SSTORE POP DUP1 TIMESTAMP ADD PUSH1 0x2 DUP2 SWAP1 SSTORE POP PUSH1 0x0 PUSH20 0xFFFFFFFFFFFFFFFFFFFFFFFFFFFFFFFFFFFFFFFF AND PUSH1 0x0 DUP1 SLOAD SWAP1 PUSH2 0x100 EXP SWAP1 DIV PUSH20 0xFFFFFFFFFFFFFFFFFFFFFFFFFFFFFFFFFFFFFFFF AND PUSH20 0xFFFFFFFFFFFFFFFFFFFFFFFFFFFFFFFFFFFFFFFF AND PUSH32 0x8BE0079C531659141344CD1FD0A4F28419497F9722A3DAAFE3B4186F6B6457E0 PUSH1 0x40 MLOAD PUSH1 0x40 MLOAD DUP1 SWAP2 SUB SWAP1 LOG3 POP JUMP JUMPDEST PUSH1 0x0 PUSH1 0x5 PUSH1 0x0 DUP5 PUSH20 0xFFFFFFFFFFFFFFFFFFFFFFFFFFFFFFFFFFFFFFFF AND PUSH20 0xFFFFFFFFFFFFFFFFFFFFFFFFFFFFFFFFFFFFFFFF AND DUP2 MSTORE PUSH1 0x20 ADD SWAP1 DUP2 MSTORE PUSH1 0x20 ADD PUSH1 0x0 KECCAK256 PUSH1 0x0 DUP4 PUSH20 0xFFFFFFFFFFFFFFFFFFFFFFFFFFFFFFFFFFFFFFFF AND PUSH20 0xFFFFFFFFFFFFFFFFFFFFFFFFFFFFFFFFFFFFFFFF AND DUP2 MSTORE PUSH1 0x20 ADD SWAP1 DUP2 MSTORE PUSH1 0x20 ADD PUSH1 0x0 KECCAK256 SLOAD SWAP1 POP SWAP3 SWAP2 POP POP JUMP JUMPDEST PUSH2 0x2806 PUSH2 0x2B2C JUMP JUMPDEST PUSH20 0xFFFFFFFFFFFFFFFFFFFFFFFFFFFFFFFFFFFFFFFF AND PUSH1 0x0 DUP1 SLOAD SWAP1 PUSH2 0x100 EXP SWAP1 DIV PUSH20 0xFFFFFFFFFFFFFFFFFFFFFFFFFFFFFFFFFFFFFFFF AND PUSH20 0xFFFFFFFFFFFFFFFFFFFFFFFFFFFFFFFFFFFFFFFF AND EQ PUSH2 0x28C6 JUMPI PUSH1 0x40 MLOAD PUSH32 0x8C379A000000000000000000000000000000000000000000000000000000000 DUP2 MSTORE PUSH1 0x4 ADD DUP1 DUP1 PUSH1 0x20 ADD DUP3 DUP2 SUB DUP3 MSTORE PUSH1 0x20 DUP2 MSTORE PUSH1 0x20 ADD DUP1 PUSH32 0x4F776E61626C653A2063616C6C6572206973206E6F7420746865206F776E6572 DUP2 MSTORE POP PUSH1 0x20 ADD SWAP2 POP POP PUSH1 0x40 MLOAD DUP1 SWAP2 SUB SWAP1 REVERT JUMPDEST PUSH1 0x0 PUSH1 0x6 PUSH1 0x0 DUP4 PUSH20 0xFFFFFFFFFFFFFFFFFFFFFFFFFFFFFFFFFFFFFFFF AND PUSH20 0xFFFFFFFFFFFFFFFFFFFFFFFFFFFFFFFFFFFFFFFF AND DUP2 MSTORE PUSH1 0x20 ADD SWAP1 DUP2 MSTORE PUSH1 0x20 ADD PUSH1 0x0 KECCAK256 PUSH1 0x0 PUSH2 0x100 EXP DUP2 SLOAD DUP2 PUSH1 0xFF MUL NOT AND SWAP1 DUP4 ISZERO ISZERO MUL OR SWAP1 SSTORE POP POP JUMP JUMPDEST PUSH2 0x2929 PUSH2 0x2B2C JUMP JUMPDEST PUSH20 0xFFFFFFFFFFFFFFFFFFFFFFFFFFFFFFFFFFFFFFFF AND PUSH1 0x0 DUP1 SLOAD SWAP1 PUSH2 0x100 EXP SWAP1 DIV PUSH20 0xFFFFFFFFFFFFFFFFFFFFFFFFFFFFFFFFFFFFFFFF AND PUSH20 0xFFFFFFFFFFFFFFFFFFFFFFFFFFFFFFFFFFFFFFFF AND EQ PUSH2 0x29E9 JUMPI PUSH1 0x40 MLOAD PUSH32 0x8C379A000000000000000000000000000000000000000000000000000000000 DUP2 MSTORE PUSH1 0x4 ADD DUP1 DUP1 PUSH1 0x20 ADD DUP3 DUP2 SUB DUP3 MSTORE PUSH1 0x20 DUP2 MSTORE PUSH1 0x20 ADD DUP1 PUSH32 0x4F776E61626C653A2063616C6C6572206973206E6F7420746865206F776E6572 DUP2 MSTORE POP PUSH1 0x20 ADD SWAP2 POP POP PUSH1 0x40 MLOAD DUP1 SWAP2 SUB SWAP1 REVERT JUMPDEST PUSH1 0x0 PUSH20 0xFFFFFFFFFFFFFFFFFFFFFFFFFFFFFFFFFFFFFFFF AND DUP2 PUSH20 0xFFFFFFFFFFFFFFFFFFFFFFFFFFFFFFFFFFFFFFFF AND EQ ISZERO PUSH2 0x2A6F JUMPI PUSH1 0x40 MLOAD PUSH32 0x8C379A000000000000000000000000000000000000000000000000000000000 DUP2 MSTORE PUSH1 0x4 ADD DUP1 DUP1 PUSH1 0x20 ADD DUP3 DUP2 SUB DUP3 MSTORE PUSH1 0x26 DUP2 MSTORE PUSH1 0x20 ADD DUP1 PUSH2 0x4C83 PUSH1 0x26 SWAP2 CODECOPY PUSH1 0x40 ADD SWAP2 POP POP PUSH1 0x40 MLOAD DUP1 SWAP2 SUB SWAP1 REVERT JUMPDEST DUP1 PUSH20 0xFFFFFFFFFFFFFFFFFFFFFFFFFFFFFFFFFFFFFFFF AND PUSH1 0x0 DUP1 SLOAD SWAP1 PUSH2 0x100 EXP SWAP1 DIV PUSH20 0xFFFFFFFFFFFFFFFFFFFFFFFFFFFFFFFFFFFFFFFF AND PUSH20 0xFFFFFFFFFFFFFFFFFFFFFFFFFFFFFFFFFFFFFFFF AND PUSH32 0x8BE0079C531659141344CD1FD0A4F28419497F9722A3DAAFE3B4186F6B6457E0 PUSH1 0x40 MLOAD PUSH1 0x40 MLOAD DUP1 SWAP2 SUB SWAP1 LOG3 DUP1 PUSH1 0x0 DUP1 PUSH2 0x100 EXP DUP2 SLOAD DUP2 PUSH20 0xFFFFFFFFFFFFFFFFFFFFFFFFFFFFFFFFFFFFFFFF MUL NOT AND SWAP1 DUP4 PUSH20 0xFFFFFFFFFFFFFFFFFFFFFFFFFFFFFFFFFFFFFFFF AND MUL OR SWAP1 SSTORE POP POP JUMP JUMPDEST PUSH1 0x0 CALLER SWAP1 POP SWAP1 JUMP JUMPDEST PUSH1 0x0 PUSH20 0xFFFFFFFFFFFFFFFFFFFFFFFFFFFFFFFFFFFFFFFF AND DUP4 PUSH20 0xFFFFFFFFFFFFFFFFFFFFFFFFFFFFFFFFFFFFFFFF AND EQ ISZERO PUSH2 0x2BBA JUMPI PUSH1 0x40 MLOAD PUSH32 0x8C379A000000000000000000000000000000000000000000000000000000000 DUP2 MSTORE PUSH1 0x4 ADD DUP1 DUP1 PUSH1 0x20 ADD DUP3 DUP2 SUB DUP3 MSTORE PUSH1 0x24 DUP2 MSTORE PUSH1 0x20 ADD DUP1 PUSH2 0x4D8A PUSH1 0x24 SWAP2 CODECOPY PUSH1 0x40 ADD SWAP2 POP POP PUSH1 0x40 MLOAD DUP1 SWAP2 SUB SWAP1 REVERT JUMPDEST PUSH1 0x0 PUSH20 0xFFFFFFFFFFFFFFFFFFFFFFFFFFFFFFFFFFFFFFFF AND DUP3 PUSH20 0xFFFFFFFFFFFFFFFFFFFFFFFFFFFFFFFFFFFFFFFF AND EQ ISZERO PUSH2 0x2C40 JUMPI PUSH1 0x40 MLOAD PUSH32 0x8C379A000000000000000000000000000000000000000000000000000000000 DUP2 MSTORE PUSH1 0x4 ADD DUP1 DUP1 PUSH1 0x20 ADD DUP3 DUP2 SUB DUP3 MSTORE PUSH1 0x22 DUP2 MSTORE PUSH1 0x20 ADD DUP1 PUSH2 0x4CA9 PUSH1 0x22 SWAP2 CODECOPY PUSH1 0x40 ADD SWAP2 POP POP PUSH1 0x40 MLOAD DUP1 SWAP2 SUB SWAP1 REVERT JUMPDEST DUP1 PUSH1 0x5 PUSH1 0x0 DUP6 PUSH20 0xFFFFFFFFFFFFFFFFFFFFFFFFFFFFFFFFFFFFFFFF AND PUSH20 0xFFFFFFFFFFFFFFFFFFFFFFFFFFFFFFFFFFFFFFFF AND DUP2 MSTORE PUSH1 0x20 ADD SWAP1 DUP2 MSTORE PUSH1 0x20 ADD PUSH1 0x0 KECCAK256 PUSH1 0x0 DUP5 PUSH20 0xFFFFFFFFFFFFFFFFFFFFFFFFFFFFFFFFFFFFFFFF AND PUSH20 0xFFFFFFFFFFFFFFFFFFFFFFFFFFFFFFFFFFFFFFFF AND DUP2 MSTORE PUSH1 0x20 ADD SWAP1 DUP2 MSTORE PUSH1 0x20 ADD PUSH1 0x0 KECCAK256 DUP2 SWAP1 SSTORE POP DUP2 PUSH20 0xFFFFFFFFFFFFFFFFFFFFFFFFFFFFFFFFFFFFFFFF AND DUP4 PUSH20 0xFFFFFFFFFFFFFFFFFFFFFFFFFFFFFFFFFFFFFFFF AND PUSH32 0x8C5BE1E5EBEC7D5BD14F71427D1E84F3DD0314C0F7B2291E5B200AC8C7C3B925 DUP4 PUSH1 0x40 MLOAD DUP1 DUP3 DUP2 MSTORE PUSH1 0x20 ADD SWAP2 POP POP PUSH1 0x40 MLOAD DUP1 SWAP2 SUB SWAP1 LOG3 POP POP POP JUMP JUMPDEST PUSH1 0x0 PUSH20 0xFFFFFFFFFFFFFFFFFFFFFFFFFFFFFFFFFFFFFFFF AND DUP4 PUSH20 0xFFFFFFFFFFFFFFFFFFFFFFFFFFFFFFFFFFFFFFFF AND EQ ISZERO PUSH2 0x2DB1 JUMPI PUSH1 0x40 MLOAD PUSH32 0x8C379A000000000000000000000000000000000000000000000000000000000 DUP2 MSTORE PUSH1 0x4 ADD DUP1 DUP1 PUSH1 0x20 ADD DUP3 DUP2 SUB DUP3 MSTORE PUSH1 0x25 DUP2 MSTORE PUSH1 0x20 ADD DUP1 PUSH2 0x4D65 PUSH1 0x25 SWAP2 CODECOPY PUSH1 0x40 ADD SWAP2 POP POP PUSH1 0x40 MLOAD DUP1 SWAP2 SUB SWAP1 REVERT JUMPDEST PUSH1 0x0 PUSH20 0xFFFFFFFFFFFFFFFFFFFFFFFFFFFFFFFFFFFFFFFF AND DUP3 PUSH20 0xFFFFFFFFFFFFFFFFFFFFFFFFFFFFFFFFFFFFFFFF AND EQ ISZERO PUSH2 0x2E37 JUMPI PUSH1 0x40 MLOAD PUSH32 0x8C379A000000000000000000000000000000000000000000000000000000000 DUP2 MSTORE PUSH1 0x4 ADD DUP1 DUP1 PUSH1 0x20 ADD DUP3 DUP2 SUB DUP3 MSTORE PUSH1 0x23 DUP2 MSTORE PUSH1 0x20 ADD DUP1 PUSH2 0x4C36 PUSH1 0x23 SWAP2 CODECOPY PUSH1 0x40 ADD SWAP2 POP POP PUSH1 0x40 MLOAD DUP1 SWAP2 SUB SWAP1 REVERT JUMPDEST PUSH1 0x0 DUP2 GT PUSH2 0x2E90 JUMPI PUSH1 0x40 MLOAD PUSH32 0x8C379A000000000000000000000000000000000000000000000000000000000 DUP2 MSTORE PUSH1 0x4 ADD DUP1 DUP1 PUSH1 0x20 ADD DUP3 DUP2 SUB DUP3 MSTORE PUSH1 0x29 DUP2 MSTORE PUSH1 0x20 ADD DUP1 PUSH2 0x4D3C PUSH1 0x29 SWAP2 CODECOPY PUSH1 0x40 ADD SWAP2 POP POP PUSH1 0x40 MLOAD DUP1 SWAP2 SUB SWAP1 REVERT JUMPDEST PUSH2 0x2E98 PUSH2 0x1EBA JUMP JUMPDEST PUSH20 0xFFFFFFFFFFFFFFFFFFFFFFFFFFFFFFFFFFFFFFFF AND DUP4 PUSH20 0xFFFFFFFFFFFFFFFFFFFFFFFFFFFFFFFFFFFFFFFF AND EQ ISZERO DUP1 ISZERO PUSH2 0x2F06 JUMPI POP PUSH2 0x2ED6 PUSH2 0x1EBA JUMP JUMPDEST PUSH20 0xFFFFFFFFFFFFFFFFFFFFFFFFFFFFFFFFFFFFFFFF AND DUP3 PUSH20 0xFFFFFFFFFFFFFFFFFFFFFFFFFFFFFFFFFFFFFFFF AND EQ ISZERO JUMPDEST ISZERO PUSH2 0x2F67 JUMPI PUSH1 0x13 SLOAD DUP2 GT ISZERO PUSH2 0x2F66 JUMPI PUSH1 0x40 MLOAD PUSH32 0x8C379A000000000000000000000000000000000000000000000000000000000 DUP2 MSTORE PUSH1 0x4 ADD DUP1 DUP1 PUSH1 0x20 ADD DUP3 DUP2 SUB DUP3 MSTORE PUSH1 0x28 DUP2 MSTORE PUSH1 0x20 ADD DUP1 PUSH2 0x4CCB PUSH1 0x28 SWAP2 CODECOPY PUSH1 0x40 ADD SWAP2 POP POP PUSH1 0x40 MLOAD DUP1 SWAP2 SUB SWAP1 REVERT JUMPDEST JUMPDEST PUSH1 0x0 PUSH2 0x2F72 ADDRESS PUSH2 0x1BED JUMP JUMPDEST SWAP1 POP PUSH1 0x13 SLOAD DUP2 LT PUSH2 0x2F83 JUMPI PUSH1 0x13 SLOAD SWAP1 POP JUMPDEST PUSH1 0x0 PUSH1 0x14 SLOAD DUP3 LT ISZERO SWAP1 POP DUP1 DUP1 ISZERO PUSH2 0x2FA7 JUMPI POP PUSH1 0x12 PUSH1 0x0 SWAP1 SLOAD SWAP1 PUSH2 0x100 EXP SWAP1 DIV PUSH1 0xFF AND ISZERO JUMPDEST DUP1 ISZERO PUSH2 0x2FFF JUMPI POP PUSH32 0x0 PUSH20 0xFFFFFFFFFFFFFFFFFFFFFFFFFFFFFFFFFFFFFFFF AND DUP6 PUSH20 0xFFFFFFFFFFFFFFFFFFFFFFFFFFFFFFFFFFFFFFFF AND EQ ISZERO JUMPDEST DUP1 ISZERO PUSH2 0x3017 JUMPI POP PUSH1 0x12 PUSH1 0x1 SWAP1 SLOAD SWAP1 PUSH2 0x100 EXP SWAP1 DIV PUSH1 0xFF AND JUMPDEST ISZERO PUSH2 0x302B JUMPI PUSH1 0x14 SLOAD SWAP2 POP PUSH2 0x302A DUP3 PUSH2 0x33D9 JUMP JUMPDEST JUMPDEST PUSH1 0x0 PUSH1 0x1 SWAP1 POP PUSH1 0x6 PUSH1 0x0 DUP8 PUSH20 0xFFFFFFFFFFFFFFFFFFFFFFFFFFFFFFFFFFFFFFFF AND PUSH20 0xFFFFFFFFFFFFFFFFFFFFFFFFFFFFFFFFFFFFFFFF AND DUP2 MSTORE PUSH1 0x20 ADD SWAP1 DUP2 MSTORE PUSH1 0x20 ADD PUSH1 0x0 KECCAK256 PUSH1 0x0 SWAP1 SLOAD SWAP1 PUSH2 0x100 EXP SWAP1 DIV PUSH1 0xFF AND DUP1 PUSH2 0x30D2 JUMPI POP PUSH1 0x6 PUSH1 0x0 DUP7 PUSH20 0xFFFFFFFFFFFFFFFFFFFFFFFFFFFFFFFFFFFFFFFF AND PUSH20 0xFFFFFFFFFFFFFFFFFFFFFFFFFFFFFFFFFFFFFFFF AND DUP2 MSTORE PUSH1 0x20 ADD SWAP1 DUP2 MSTORE PUSH1 0x20 ADD PUSH1 0x0 KECCAK256 PUSH1 0x0 SWAP1 SLOAD SWAP1 PUSH2 0x100 EXP SWAP1 DIV PUSH1 0xFF AND JUMPDEST ISZERO PUSH2 0x30DC JUMPI PUSH1 0x0 SWAP1 POP JUMPDEST PUSH2 0x30E8 DUP7 DUP7 DUP7 DUP5 PUSH2 0x34BB JUMP JUMPDEST POP POP POP POP POP POP JUMP JUMPDEST PUSH1 0x0 DUP4 DUP4 GT ISZERO DUP3 SWAP1 PUSH2 0x319D JUMPI PUSH1 0x40 MLOAD PUSH32 0x8C379A000000000000000000000000000000000000000000000000000000000 DUP2 MSTORE PUSH1 0x4 ADD DUP1 DUP1 PUSH1 0x20 ADD DUP3 DUP2 SUB DUP3 MSTORE DUP4 DUP2 DUP2 MLOAD DUP2 MSTORE PUSH1 0x20 ADD SWAP2 POP DUP1 MLOAD SWAP1 PUSH1 0x20 ADD SWAP1 DUP1 DUP4 DUP4 PUSH1 0x0 JUMPDEST DUP4 DUP2 LT ISZERO PUSH2 0x3162 JUMPI DUP1 DUP3 ADD MLOAD DUP2 DUP5 ADD MSTORE PUSH1 0x20 DUP2 ADD SWAP1 POP PUSH2 0x3147 JUMP JUMPDEST POP POP POP POP SWAP1 POP SWAP1 DUP2 ADD SWAP1 PUSH1 0x1F AND DUP1 ISZERO PUSH2 0x318F JUMPI DUP1 DUP3 SUB DUP1 MLOAD PUSH1 0x1 DUP4 PUSH1 0x20 SUB PUSH2 0x100 EXP SUB NOT AND DUP2 MSTORE PUSH1 0x20 ADD SWAP2 POP JUMPDEST POP SWAP3 POP POP POP PUSH1 0x40 MLOAD DUP1 SWAP2 SUB SWAP1 REVERT JUMPDEST POP PUSH1 0x0 DUP4 DUP6 SUB SWAP1 POP DUP1 SWAP2 POP POP SWAP4 SWAP3 POP POP POP JUMP JUMPDEST PUSH1 0x0 DUP1 PUSH1 0x0 PUSH2 0x31BD PUSH2 0x37CC JUMP JUMPDEST SWAP2 POP SWAP2 POP PUSH2 0x31D4 DUP2 DUP4 PUSH2 0x31DB SWAP1 SWAP2 SWAP1 PUSH4 0xFFFFFFFF AND JUMP JUMPDEST SWAP3 POP POP POP SWAP1 JUMP JUMPDEST PUSH1 0x0 PUSH2 0x321D DUP4 DUP4 PUSH1 0x40 MLOAD DUP1 PUSH1 0x40 ADD PUSH1 0x40 MSTORE DUP1 PUSH1 0x1A DUP2 MSTORE PUSH1 0x20 ADD PUSH32 0x536166654D6174683A206469766973696F6E206279207A65726F000000000000 DUP2 MSTORE POP PUSH2 0x3A75 JUMP JUMPDEST SWAP1 POP SWAP3 SWAP2 POP POP JUMP JUMPDEST PUSH1 0x0 DUP1 DUP3 DUP5 ADD SWAP1 POP DUP4 DUP2 LT ISZERO PUSH2 0x32A3 JUMPI PUSH1 0x40 MLOAD PUSH32 0x8C379A000000000000000000000000000000000000000000000000000000000 DUP2 MSTORE PUSH1 0x4 ADD DUP1 DUP1 PUSH1 0x20 ADD DUP3 DUP2 SUB DUP3 MSTORE PUSH1 0x1B DUP2 MSTORE PUSH1 0x20 ADD DUP1 PUSH32 0x536166654D6174683A206164646974696F6E206F766572666C6F770000000000 DUP2 MSTORE POP PUSH1 0x20 ADD SWAP2 POP POP PUSH1 0x40 MLOAD DUP1 SWAP2 SUB SWAP1 REVERT JUMPDEST DUP1 SWAP2 POP POP SWAP3 SWAP2 POP POP JUMP JUMPDEST PUSH1 0x0 DUP1 PUSH1 0x0 DUP1 PUSH1 0x0 DUP1 PUSH1 0x0 DUP1 PUSH1 0x0 PUSH2 0x32C4 DUP11 PUSH2 0x3B3B JUMP JUMPDEST SWAP3 POP SWAP3 POP SWAP3 POP PUSH1 0x0 DUP1 PUSH1 0x0 PUSH2 0x32E2 DUP14 DUP7 DUP7 PUSH2 0x32DD PUSH2 0x31B0 JUMP JUMPDEST PUSH2 0x3B95 JUMP JUMPDEST SWAP3 POP SWAP3 POP SWAP3 POP DUP3 DUP3 DUP3 DUP9 DUP9 DUP9 SWAP12 POP SWAP12 POP SWAP12 POP SWAP12 POP SWAP12 POP SWAP12 POP POP POP POP POP POP POP SWAP2 SWAP4 SWAP6 POP SWAP2 SWAP4 SWAP6 JUMP JUMPDEST PUSH1 0x0 PUSH2 0x334B DUP4 DUP4 PUSH1 0x40 MLOAD DUP1 PUSH1 0x40 ADD PUSH1 0x40 MSTORE DUP1 PUSH1 0x1E DUP2 MSTORE PUSH1 0x20 ADD PUSH32 0x536166654D6174683A207375627472616374696F6E206F766572666C6F770000 DUP2 MSTORE POP PUSH2 0x30F0 JUMP JUMPDEST SWAP1 POP SWAP3 SWAP2 POP POP JUMP JUMPDEST PUSH1 0x0 DUP1 DUP4 EQ ISZERO PUSH2 0x3366 JUMPI PUSH1 0x0 SWAP1 POP PUSH2 0x33D3 JUMP JUMPDEST PUSH1 0x0 DUP3 DUP5 MUL SWAP1 POP DUP3 DUP5 DUP3 DUP2 PUSH2 0x3377 JUMPI INVALID JUMPDEST DIV EQ PUSH2 0x33CE JUMPI PUSH1 0x40 MLOAD PUSH32 0x8C379A000000000000000000000000000000000000000000000000000000000 DUP2 MSTORE PUSH1 0x4 ADD DUP1 DUP1 PUSH1 0x20 ADD DUP3 DUP2 SUB DUP3 MSTORE PUSH1 0x21 DUP2 MSTORE PUSH1 0x20 ADD DUP1 PUSH2 0x4CF3 PUSH1 0x21 SWAP2 CODECOPY PUSH1 0x40 ADD SWAP2 POP POP PUSH1 0x40 MLOAD DUP1 SWAP2 SUB SWAP1 REVERT JUMPDEST DUP1 SWAP2 POP POP JUMPDEST SWAP3 SWAP2 POP POP JUMP JUMPDEST PUSH1 0x1 PUSH1 0x12 PUSH1 0x0 PUSH2 0x100 EXP DUP2 SLOAD DUP2 PUSH1 0xFF MUL NOT AND SWAP1 DUP4 ISZERO ISZERO MUL OR SWAP1 SSTORE POP PUSH1 0x0 PUSH2 0x340A PUSH1 0x2 DUP4 PUSH2 0x31DB SWAP1 SWAP2 SWAP1 PUSH4 0xFFFFFFFF AND JUMP JUMPDEST SWAP1 POP PUSH1 0x0 PUSH2 0x3421 DUP3 DUP5 PUSH2 0x3309 SWAP1 SWAP2 SWAP1 PUSH4 0xFFFFFFFF AND JUMP JUMPDEST SWAP1 POP PUSH1 0x0 SELFBALANCE SWAP1 POP PUSH2 0x3431 DUP4 PUSH2 0x3C1E JUMP JUMPDEST PUSH1 0x0 PUSH2 0x3446 DUP3 SELFBALANCE PUSH2 0x3309 SWAP1 SWAP2 SWAP1 PUSH4 0xFFFFFFFF AND JUMP JUMPDEST SWAP1 POP PUSH2 0x3452 DUP4 DUP3 PUSH2 0x3ECC JUMP JUMPDEST PUSH32 0x17BBFB9A6069321B6DED73BD96327C9E6B7212A5CD51FF219CD61370ACAFB561 DUP5 DUP3 DUP6 PUSH1 0x40 MLOAD DUP1 DUP5 DUP2 MSTORE PUSH1 0x20 ADD DUP4 DUP2 MSTORE PUSH1 0x20 ADD DUP3 DUP2 MSTORE PUSH1 0x20 ADD SWAP4 POP POP POP POP PUSH1 0x40 MLOAD DUP1 SWAP2 SUB SWAP1 LOG1 POP POP POP POP PUSH1 0x0 PUSH1 0x12 PUSH1 0x0 PUSH2 0x100 EXP DUP2 SLOAD DUP2 PUSH1 0xFF MUL NOT AND SWAP1 DUP4 ISZERO ISZERO MUL OR SWAP1 SSTORE POP POP JUMP JUMPDEST DUP1 PUSH2 0x34C9 JUMPI PUSH2 0x34C8 PUSH2 0x401D JUMP JUMPDEST JUMPDEST PUSH1 0x7 PUSH1 0x0 DUP6 PUSH20 0xFFFFFFFFFFFFFFFFFFFFFFFFFFFFFFFFFFFFFFFF AND PUSH20 0xFFFFFFFFFFFFFFFFFFFFFFFFFFFFFFFFFFFFFFFF AND DUP2 MSTORE PUSH1 0x20 ADD SWAP1 DUP2 MSTORE PUSH1 0x20 ADD PUSH1 0x0 KECCAK256 PUSH1 0x0 SWAP1 SLOAD SWAP1 PUSH2 0x100 EXP SWAP1 DIV PUSH1 0xFF AND DUP1 ISZERO PUSH2 0x356C JUMPI POP PUSH1 0x7 PUSH1 0x0 DUP5 PUSH20 0xFFFFFFFFFFFFFFFFFFFFFFFFFFFFFFFFFFFFFFFF AND PUSH20 0xFFFFFFFFFFFFFFFFFFFFFFFFFFFFFFFFFFFFFFFF AND DUP2 MSTORE PUSH1 0x20 ADD SWAP1 DUP2 MSTORE PUSH1 0x20 ADD PUSH1 0x0 KECCAK256 PUSH1 0x0 SWAP1 SLOAD SWAP1 PUSH2 0x100 EXP SWAP1 DIV PUSH1 0xFF AND ISZERO JUMPDEST ISZERO PUSH2 0x3581 JUMPI PUSH2 0x357C DUP5 DUP5 DUP5 PUSH2 0x4060 JUMP JUMPDEST PUSH2 0x37B8 JUMP JUMPDEST PUSH1 0x7 PUSH1 0x0 DUP6 PUSH20 0xFFFFFFFFFFFFFFFFFFFFFFFFFFFFFFFFFFFFFFFF AND PUSH20 0xFFFFFFFFFFFFFFFFFFFFFFFFFFFFFFFFFFFFFFFF AND DUP2 MSTORE PUSH1 0x20 ADD SWAP1 DUP2 MSTORE PUSH1 0x20 ADD PUSH1 0x0 KECCAK256 PUSH1 0x0 SWAP1 SLOAD SWAP1 PUSH2 0x100 EXP SWAP1 DIV PUSH1 0xFF AND ISZERO DUP1 ISZERO PUSH2 0x3624 JUMPI POP PUSH1 0x7 PUSH1 0x0 DUP5 PUSH20 0xFFFFFFFFFFFFFFFFFFFFFFFFFFFFFFFFFFFFFFFF AND PUSH20 0xFFFFFFFFFFFFFFFFFFFFFFFFFFFFFFFFFFFFFFFF AND DUP2 MSTORE PUSH1 0x20 ADD SWAP1 DUP2 MSTORE PUSH1 0x20 ADD PUSH1 0x0 KECCAK256 PUSH1 0x0 SWAP1 SLOAD SWAP1 PUSH2 0x100 EXP SWAP1 DIV PUSH1 0xFF AND JUMPDEST ISZERO PUSH2 0x3639 JUMPI PUSH2 0x3634 DUP5 DUP5 DUP5 PUSH2 0x42C0 JUMP JUMPDEST PUSH2 0x37B7 JUMP JUMPDEST PUSH1 0x7 PUSH1 0x0 DUP6 PUSH20 0xFFFFFFFFFFFFFFFFFFFFFFFFFFFFFFFFFFFFFFFF AND PUSH20 0xFFFFFFFFFFFFFFFFFFFFFFFFFFFFFFFFFFFFFFFF AND DUP2 MSTORE PUSH1 0x20 ADD SWAP1 DUP2 MSTORE PUSH1 0x20 ADD PUSH1 0x0 KECCAK256 PUSH1 0x0 SWAP1 SLOAD SWAP1 PUSH2 0x100 EXP SWAP1 DIV PUSH1 0xFF AND ISZERO DUP1 ISZERO PUSH2 0x36DD JUMPI POP PUSH1 0x7 PUSH1 0x0 DUP5 PUSH20 0xFFFFFFFFFFFFFFFFFFFFFFFFFFFFFFFFFFFFFFFF AND PUSH20 0xFFFFFFFFFFFFFFFFFFFFFFFFFFFFFFFFFFFFFFFF AND DUP2 MSTORE PUSH1 0x20 ADD SWAP1 DUP2 MSTORE PUSH1 0x20 ADD PUSH1 0x0 KECCAK256 PUSH1 0x0 SWAP1 SLOAD SWAP1 PUSH2 0x100 EXP SWAP1 DIV PUSH1 0xFF AND ISZERO JUMPDEST ISZERO PUSH2 0x36F2 JUMPI PUSH2 0x36ED DUP5 DUP5 DUP5 PUSH2 0x4520 JUMP JUMPDEST PUSH2 0x37B6 JUMP JUMPDEST PUSH1 0x7 PUSH1 0x0 DUP6 PUSH20 0xFFFFFFFFFFFFFFFFFFFFFFFFFFFFFFFFFFFFFFFF AND PUSH20 0xFFFFFFFFFFFFFFFFFFFFFFFFFFFFFFFFFFFFFFFF AND DUP2 MSTORE PUSH1 0x20 ADD SWAP1 DUP2 MSTORE PUSH1 0x20 ADD PUSH1 0x0 KECCAK256 PUSH1 0x0 SWAP1 SLOAD SWAP1 PUSH2 0x100 EXP SWAP1 DIV PUSH1 0xFF AND DUP1 ISZERO PUSH2 0x3794 JUMPI POP PUSH1 0x7 PUSH1 0x0 DUP5 PUSH20 0xFFFFFFFFFFFFFFFFFFFFFFFFFFFFFFFFFFFFFFFF AND PUSH20 0xFFFFFFFFFFFFFFFFFFFFFFFFFFFFFFFFFFFFFFFF AND DUP2 MSTORE PUSH1 0x20 ADD SWAP1 DUP2 MSTORE PUSH1 0x20 ADD PUSH1 0x0 KECCAK256 PUSH1 0x0 SWAP1 SLOAD SWAP1 PUSH2 0x100 EXP SWAP1 DIV PUSH1 0xFF AND JUMPDEST ISZERO PUSH2 0x37A9 JUMPI PUSH2 0x37A4 DUP5 DUP5 DUP5 PUSH2 0x46EB JUMP JUMPDEST PUSH2 0x37B5 JUMP JUMPDEST PUSH2 0x37B4 DUP5 DUP5 DUP5 PUSH2 0x4520 JUMP JUMPDEST JUMPDEST JUMPDEST JUMPDEST JUMPDEST DUP1 PUSH2 0x37C6 JUMPI PUSH2 0x37C5 PUSH2 0x49E0 JUMP JUMPDEST JUMPDEST POP POP POP POP JUMP JUMPDEST PUSH1 0x0 DUP1 PUSH1 0x0 PUSH1 0x9 SLOAD SWAP1 POP PUSH1 0x0 PUSH8 0xDE0B6B3A7640000 SWAP1 POP PUSH1 0x0 JUMPDEST PUSH1 0x8 DUP1 SLOAD SWAP1 POP DUP2 LT ISZERO PUSH2 0x3A2C JUMPI DUP3 PUSH1 0x3 PUSH1 0x0 PUSH1 0x8 DUP5 DUP2 SLOAD DUP2 LT PUSH2 0x3805 JUMPI INVALID JUMPDEST SWAP1 PUSH1 0x0 MSTORE PUSH1 0x20 PUSH1 0x0 KECCAK256 ADD PUSH1 0x0 SWAP1 SLOAD SWAP1 PUSH2 0x100 EXP SWAP1 DIV PUSH20 0xFFFFFFFFFFFFFFFFFFFFFFFFFFFFFFFFFFFFFFFF AND PUSH20 0xFFFFFFFFFFFFFFFFFFFFFFFFFFFFFFFFFFFFFFFF AND PUSH20 0xFFFFFFFFFFFFFFFFFFFFFFFFFFFFFFFFFFFFFFFF AND DUP2 MSTORE PUSH1 0x20 ADD SWAP1 DUP2 MSTORE PUSH1 0x20 ADD PUSH1 0x0 KECCAK256 SLOAD GT DUP1 PUSH2 0x38EC JUMPI POP DUP2 PUSH1 0x4 PUSH1 0x0 PUSH1 0x8 DUP5 DUP2 SLOAD DUP2 LT PUSH2 0x3884 JUMPI INVALID JUMPDEST SWAP1 PUSH1 0x0 MSTORE PUSH1 0x20 PUSH1 0x0 KECCAK256 ADD PUSH1 0x0 SWAP1 SLOAD SWAP1 PUSH2 0x100 EXP SWAP1 DIV PUSH20 0xFFFFFFFFFFFFFFFFFFFFFFFFFFFFFFFFFFFFFFFF AND PUSH20 0xFFFFFFFFFFFFFFFFFFFFFFFFFFFFFFFFFFFFFFFF AND PUSH20 0xFFFFFFFFFFFFFFFFFFFFFFFFFFFFFFFFFFFFFFFF AND DUP2 MSTORE PUSH1 0x20 ADD SWAP1 DUP2 MSTORE PUSH1 0x20 ADD PUSH1 0x0 KECCAK256 SLOAD GT JUMPDEST ISZERO PUSH2 0x3909 JUMPI PUSH1 0x9 SLOAD PUSH8 0xDE0B6B3A7640000 SWAP5 POP SWAP5 POP POP POP POP PUSH2 0x3A71 JUMP JUMPDEST PUSH2 0x3992 PUSH1 0x3 PUSH1 0x0 PUSH1 0x8 DUP5 DUP2 SLOAD DUP2 LT PUSH2 0x391D JUMPI INVALID JUMPDEST SWAP1 PUSH1 0x0 MSTORE PUSH1 0x20 PUSH1 0x0 KECCAK256 ADD PUSH1 0x0 SWAP1 SLOAD SWAP1 PUSH2 0x100 EXP SWAP1 DIV PUSH20 0xFFFFFFFFFFFFFFFFFFFFFFFFFFFFFFFFFFFFFFFF AND PUSH20 0xFFFFFFFFFFFFFFFFFFFFFFFFFFFFFFFFFFFFFFFF AND PUSH20 0xFFFFFFFFFFFFFFFFFFFFFFFFFFFFFFFFFFFFFFFF AND DUP2 MSTORE PUSH1 0x20 ADD SWAP1 DUP2 MSTORE PUSH1 0x20 ADD PUSH1 0x0 KECCAK256 SLOAD DUP5 PUSH2 0x3309 SWAP1 SWAP2 SWAP1 PUSH4 0xFFFFFFFF AND JUMP JUMPDEST SWAP3 POP PUSH2 0x3A1D PUSH1 0x4 PUSH1 0x0 PUSH1 0x8 DUP5 DUP2 SLOAD DUP2 LT PUSH2 0x39A8 JUMPI INVALID JUMPDEST SWAP1 PUSH1 0x0 MSTORE PUSH1 0x20 PUSH1 0x0 KECCAK256 ADD PUSH1 0x0 SWAP1 SLOAD SWAP1 PUSH2 0x100 EXP SWAP1 DIV PUSH20 0xFFFFFFFFFFFFFFFFFFFFFFFFFFFFFFFFFFFFFFFF AND PUSH20 0xFFFFFFFFFFFFFFFFFFFFFFFFFFFFFFFFFFFFFFFF AND PUSH20 0xFFFFFFFFFFFFFFFFFFFFFFFFFFFFFFFFFFFFFFFF AND DUP2 MSTORE PUSH1 0x20 ADD SWAP1 DUP2 MSTORE PUSH1 0x20 ADD PUSH1 0x0 KECCAK256 SLOAD DUP4 PUSH2 0x3309 SWAP1 SWAP2 SWAP1 PUSH4 0xFFFFFFFF AND JUMP JUMPDEST SWAP2 POP DUP1 DUP1 PUSH1 0x1 ADD SWAP2 POP POP PUSH2 0x37E6 JUMP JUMPDEST POP PUSH2 0x3A4A PUSH8 0xDE0B6B3A7640000 PUSH1 0x9 SLOAD PUSH2 0x31DB SWAP1 SWAP2 SWAP1 PUSH4 0xFFFFFFFF AND JUMP JUMPDEST DUP3 LT ISZERO PUSH2 0x3A68 JUMPI PUSH1 0x9 SLOAD PUSH8 0xDE0B6B3A7640000 SWAP4 POP SWAP4 POP POP POP PUSH2 0x3A71 JUMP JUMPDEST DUP2 DUP2 SWAP4 POP SWAP4 POP POP POP JUMPDEST SWAP1 SWAP2 JUMP JUMPDEST PUSH1 0x0 DUP1 DUP4 GT DUP3 SWAP1 PUSH2 0x3B21 JUMPI PUSH1 0x40 MLOAD PUSH32 0x8C379A000000000000000000000000000000000000000000000000000000000 DUP2 MSTORE PUSH1 0x4 ADD DUP1 DUP1 PUSH1 0x20 ADD DUP3 DUP2 SUB DUP3 MSTORE DUP4 DUP2 DUP2 MLOAD DUP2 MSTORE PUSH1 0x20 ADD SWAP2 POP DUP1 MLOAD SWAP1 PUSH1 0x20 ADD SWAP1 DUP1 DUP4 DUP4 PUSH1 0x0 JUMPDEST DUP4 DUP2 LT ISZERO PUSH2 0x3AE6 JUMPI DUP1 DUP3 ADD MLOAD DUP2 DUP5 ADD MSTORE PUSH1 0x20 DUP2 ADD SWAP1 POP PUSH2 0x3ACB JUMP JUMPDEST POP POP POP POP SWAP1 POP SWAP1 DUP2 ADD SWAP1 PUSH1 0x1F AND DUP1 ISZERO PUSH2 0x3B13 JUMPI DUP1 DUP3 SUB DUP1 MLOAD PUSH1 0x1 DUP4 PUSH1 0x20 SUB PUSH2 0x100 EXP SUB NOT AND DUP2 MSTORE PUSH1 0x20 ADD SWAP2 POP JUMPDEST POP SWAP3 POP POP POP PUSH1 0x40 MLOAD DUP1 SWAP2 SUB SWAP1 REVERT JUMPDEST POP PUSH1 0x0 DUP4 DUP6 DUP2 PUSH2 0x3B2D JUMPI INVALID JUMPDEST DIV SWAP1 POP DUP1 SWAP2 POP POP SWAP4 SWAP3 POP POP POP JUMP JUMPDEST PUSH1 0x0 DUP1 PUSH1 0x0 DUP1 PUSH2 0x3B4A DUP6 PUSH2 0x49F4 JUMP JUMPDEST SWAP1 POP PUSH1 0x0 PUSH2 0x3B57 DUP7 PUSH2 0x4A25 JUMP JUMPDEST SWAP1 POP PUSH1 0x0 PUSH2 0x3B80 DUP3 PUSH2 0x3B72 DUP6 DUP11 PUSH2 0x3309 SWAP1 SWAP2 SWAP1 PUSH4 0xFFFFFFFF AND JUMP JUMPDEST PUSH2 0x3309 SWAP1 SWAP2 SWAP1 PUSH4 0xFFFFFFFF AND JUMP JUMPDEST SWAP1 POP DUP1 DUP4 DUP4 SWAP6 POP SWAP6 POP SWAP6 POP POP POP POP SWAP2 SWAP4 SWAP1 SWAP3 POP JUMP JUMPDEST PUSH1 0x0 DUP1 PUSH1 0x0 DUP1 PUSH2 0x3BAE DUP6 DUP10 PUSH2 0x3353 SWAP1 SWAP2 SWAP1 PUSH4 0xFFFFFFFF AND JUMP JUMPDEST SWAP1 POP PUSH1 0x0 PUSH2 0x3BC5 DUP7 DUP10 PUSH2 0x3353 SWAP1 SWAP2 SWAP1 PUSH4 0xFFFFFFFF AND JUMP JUMPDEST SWAP1 POP PUSH1 0x0 PUSH2 0x3BDC DUP8 DUP10 PUSH2 0x3353 SWAP1 SWAP2 SWAP1 PUSH4 0xFFFFFFFF AND JUMP JUMPDEST SWAP1 POP PUSH1 0x0 PUSH2 0x3C05 DUP3 PUSH2 0x3BF7 DUP6 DUP8 PUSH2 0x3309 SWAP1 SWAP2 SWAP1 PUSH4 0xFFFFFFFF AND JUMP JUMPDEST PUSH2 0x3309 SWAP1 SWAP2 SWAP1 PUSH4 0xFFFFFFFF AND JUMP JUMPDEST SWAP1 POP DUP4 DUP2 DUP5 SWAP7 POP SWAP7 POP SWAP7 POP POP POP POP POP SWAP5 POP SWAP5 POP SWAP5 SWAP2 POP POP JUMP JUMPDEST PUSH1 0x60 PUSH1 0x2 PUSH8 0xFFFFFFFFFFFFFFFF DUP2 GT DUP1 ISZERO PUSH2 0x3C38 JUMPI PUSH1 0x0 DUP1 REVERT JUMPDEST POP PUSH1 0x40 MLOAD SWAP1 DUP1 DUP3 MSTORE DUP1 PUSH1 0x20 MUL PUSH1 0x20 ADD DUP3 ADD PUSH1 0x40 MSTORE DUP1 ISZERO PUSH2 0x3C67 JUMPI DUP2 PUSH1 0x20 ADD PUSH1 0x20 DUP3 MUL DUP1 CALLDATASIZE DUP4 CALLDATACOPY DUP1 DUP3 ADD SWAP2 POP POP SWAP1 POP JUMPDEST POP SWAP1 POP ADDRESS DUP2 PUSH1 0x0 DUP2 MLOAD DUP2 LT PUSH2 0x3C78 JUMPI INVALID JUMPDEST PUSH1 0x20 MUL PUSH1 0x20 ADD ADD SWAP1 PUSH20 0xFFFFFFFFFFFFFFFFFFFFFFFFFFFFFFFFFFFFFFFF AND SWAP1 DUP2 PUSH20 0xFFFFFFFFFFFFFFFFFFFFFFFFFFFFFFFFFFFFFFFF AND DUP2 MSTORE POP POP PUSH32 0x0 PUSH20 0xFFFFFFFFFFFFFFFFFFFFFFFFFFFFFFFFFFFFFFFF AND PUSH4 0xAD5C4648 PUSH1 0x40 MLOAD DUP2 PUSH4 0xFFFFFFFF AND PUSH1 0xE0 SHL DUP2 MSTORE PUSH1 0x4 ADD PUSH1 0x20 PUSH1 0x40 MLOAD DUP1 DUP4 SUB DUP2 DUP7 DUP1 EXTCODESIZE ISZERO DUP1 ISZERO PUSH2 0x3D18 JUMPI PUSH1 0x0 DUP1 REVERT JUMPDEST POP GAS STATICCALL ISZERO DUP1 ISZERO PUSH2 0x3D2C JUMPI RETURNDATASIZE PUSH1 0x0 DUP1 RETURNDATACOPY RETURNDATASIZE PUSH1 0x0 REVERT JUMPDEST POP POP POP POP PUSH1 0x40 MLOAD RETURNDATASIZE PUSH1 0x20 DUP2 LT ISZERO PUSH2 0x3D42 JUMPI PUSH1 0x0 DUP1 REVERT JUMPDEST DUP2 ADD SWAP1 DUP1 DUP1 MLOAD SWAP1 PUSH1 0x20 ADD SWAP1 SWAP3 SWAP2 SWAP1 POP POP POP DUP2 PUSH1 0x1 DUP2 MLOAD DUP2 LT PUSH2 0x3D60 JUMPI INVALID JUMPDEST PUSH1 0x20 MUL PUSH1 0x20 ADD ADD SWAP1 PUSH20 0xFFFFFFFFFFFFFFFFFFFFFFFFFFFFFFFFFFFFFFFF AND SWAP1 DUP2 PUSH20 0xFFFFFFFFFFFFFFFFFFFFFFFFFFFFFFFFFFFFFFFF AND DUP2 MSTORE POP POP PUSH2 0x3DC5 ADDRESS PUSH32 0x0 DUP5 PUSH2 0x2B34 JUMP JUMPDEST PUSH32 0x0 PUSH20 0xFFFFFFFFFFFFFFFFFFFFFFFFFFFFFFFFFFFFFFFF AND PUSH4 0x791AC947 DUP4 PUSH1 0x0 DUP5 ADDRESS TIMESTAMP PUSH1 0x40 MLOAD DUP7 PUSH4 0xFFFFFFFF AND PUSH1 0xE0 SHL DUP2 MSTORE PUSH1 0x4 ADD DUP1 DUP7 DUP2 MSTORE PUSH1 0x20 ADD DUP6 DUP2 MSTORE PUSH1 0x20 ADD DUP1 PUSH1 0x20 ADD DUP5 PUSH20 0xFFFFFFFFFFFFFFFFFFFFFFFFFFFFFFFFFFFFFFFF AND DUP2 MSTORE PUSH1 0x20 ADD DUP4 DUP2 MSTORE PUSH1 0x20 ADD DUP3 DUP2 SUB DUP3 MSTORE DUP6 DUP2 DUP2 MLOAD DUP2 MSTORE PUSH1 0x20 ADD SWAP2 POP DUP1 MLOAD SWAP1 PUSH1 0x20 ADD SWAP1 PUSH1 0x20 MUL DUP1 DUP4 DUP4 PUSH1 0x0 JUMPDEST DUP4 DUP2 LT ISZERO PUSH2 0x3E87 JUMPI DUP1 DUP3 ADD MLOAD DUP2 DUP5 ADD MSTORE PUSH1 0x20 DUP2 ADD SWAP1 POP PUSH2 0x3E6C JUMP JUMPDEST POP POP POP POP SWAP1 POP ADD SWAP7 POP POP POP POP POP POP POP PUSH1 0x0 PUSH1 0x40 MLOAD DUP1 DUP4 SUB DUP2 PUSH1 0x0 DUP8 DUP1 EXTCODESIZE ISZERO DUP1 ISZERO PUSH2 0x3EB0 JUMPI PUSH1 0x0 DUP1 REVERT JUMPDEST POP GAS CALL ISZERO DUP1 ISZERO PUSH2 0x3EC4 JUMPI RETURNDATASIZE PUSH1 0x0 DUP1 RETURNDATACOPY RETURNDATASIZE PUSH1 0x0 REVERT JUMPDEST POP POP POP POP POP POP JUMP JUMPDEST PUSH2 0x3EF7 ADDRESS PUSH32 0x0 DUP5 PUSH2 0x2B34 JUMP JUMPDEST PUSH32 0x0 PUSH20 0xFFFFFFFFFFFFFFFFFFFFFFFFFFFFFFFFFFFFFFFF AND PUSH4 0xF305D719 DUP3 ADDRESS DUP6 PUSH1 0x0 DUP1 PUSH2 0x3F41 PUSH2 0x1EBA JUMP JUMPDEST TIMESTAMP PUSH1 0x40 MLOAD DUP9 PUSH4 0xFFFFFFFF AND PUSH1 0xE0 SHL DUP2 MSTORE PUSH1 0x4 ADD DUP1 DUP8 PUSH20 0xFFFFFFFFFFFFFFFFFFFFFFFFFFFFFFFFFFFFFFFF AND DUP2 MSTORE PUSH1 0x20 ADD DUP7 DUP2 MSTORE PUSH1 0x20 ADD DUP6 DUP2 MSTORE PUSH1 0x20 ADD DUP5 DUP2 MSTORE PUSH1 0x20 ADD DUP4 PUSH20 0xFFFFFFFFFFFFFFFFFFFFFFFFFFFFFFFFFFFFFFFF AND DUP2 MSTORE PUSH1 0x20 ADD DUP3 DUP2 MSTORE PUSH1 0x20 ADD SWAP7 POP POP POP POP POP POP POP PUSH1 0x60 PUSH1 0x40 MLOAD DUP1 DUP4 SUB DUP2 DUP6 DUP9 DUP1 EXTCODESIZE ISZERO DUP1 ISZERO PUSH2 0x3FC6 JUMPI PUSH1 0x0 DUP1 REVERT JUMPDEST POP GAS CALL ISZERO DUP1 ISZERO PUSH2 0x3FDA JUMPI RETURNDATASIZE PUSH1 0x0 DUP1 RETURNDATACOPY RETURNDATASIZE PUSH1 0x0 REVERT JUMPDEST POP POP POP POP POP PUSH1 0x40 MLOAD RETURNDATASIZE PUSH1 0x60 DUP2 LT ISZERO PUSH2 0x3FF1 JUMPI PUSH1 0x0 DUP1 REVERT JUMPDEST DUP2 ADD SWAP1 DUP1 DUP1 MLOAD SWAP1 PUSH1 0x20 ADD SWAP1 SWAP3 SWAP2 SWAP1 DUP1 MLOAD SWAP1 PUSH1 0x20 ADD SWAP1 SWAP3 SWAP2 SWAP1 DUP1 MLOAD SWAP1 PUSH1 0x20 ADD SWAP1 SWAP3 SWAP2 SWAP1 POP POP POP POP POP POP POP POP JUMP JUMPDEST PUSH1 0x0 PUSH1 0xE SLOAD EQ DUP1 ISZERO PUSH2 0x4031 JUMPI POP PUSH1 0x0 PUSH1 0x10 SLOAD EQ JUMPDEST ISZERO PUSH2 0x403B JUMPI PUSH2 0x405E JUMP JUMPDEST PUSH1 0xE SLOAD PUSH1 0xF DUP2 SWAP1 SSTORE POP PUSH1 0x10 SLOAD PUSH1 0x11 DUP2 SWAP1 SSTORE POP PUSH1 0x0 PUSH1 0xE DUP2 SWAP1 SSTORE POP PUSH1 0x0 PUSH1 0x10 DUP2 SWAP1 SSTORE POP JUMPDEST JUMP JUMPDEST PUSH1 0x0 DUP1 PUSH1 0x0 DUP1 PUSH1 0x0 DUP1 PUSH2 0x4072 DUP8 PUSH2 0x32AD JUMP JUMPDEST SWAP6 POP SWAP6 POP SWAP6 POP SWAP6 POP SWAP6 POP SWAP6 POP PUSH2 0x40D0 DUP8 PUSH1 0x4 PUSH1 0x0 DUP13 PUSH20 0xFFFFFFFFFFFFFFFFFFFFFFFFFFFFFFFFFFFFFFFF AND PUSH20 0xFFFFFFFFFFFFFFFFFFFFFFFFFFFFFFFFFFFFFFFF AND DUP2 MSTORE PUSH1 0x20 ADD SWAP1 DUP2 MSTORE PUSH1 0x20 ADD PUSH1 0x0 KECCAK256 SLOAD PUSH2 0x3309 SWAP1 SWAP2 SWAP1 PUSH4 0xFFFFFFFF AND JUMP JUMPDEST PUSH1 0x4 PUSH1 0x0 DUP12 PUSH20 0xFFFFFFFFFFFFFFFFFFFFFFFFFFFFFFFFFFFFFFFF AND PUSH20 0xFFFFFFFFFFFFFFFFFFFFFFFFFFFFFFFFFFFFFFFF AND DUP2 MSTORE PUSH1 0x20 ADD SWAP1 DUP2 MSTORE PUSH1 0x20 ADD PUSH1 0x0 KECCAK256 DUP2 SWAP1 SSTORE POP PUSH2 0x4165 DUP7 PUSH1 0x3 PUSH1 0x0 DUP13 PUSH20 0xFFFFFFFFFFFFFFFFFFFFFFFFFFFFFFFFFFFFFFFF AND PUSH20 0xFFFFFFFFFFFFFFFFFFFFFFFFFFFFFFFFFFFFFFFF AND DUP2 MSTORE PUSH1 0x20 ADD SWAP1 DUP2 MSTORE PUSH1 0x20 ADD PUSH1 0x0 KECCAK256 SLOAD PUSH2 0x3309 SWAP1 SWAP2 SWAP1 PUSH4 0xFFFFFFFF AND JUMP JUMPDEST PUSH1 0x3 PUSH1 0x0 DUP12 PUSH20 0xFFFFFFFFFFFFFFFFFFFFFFFFFFFFFFFFFFFFFFFF AND PUSH20 0xFFFFFFFFFFFFFFFFFFFFFFFFFFFFFFFFFFFFFFFF AND DUP2 MSTORE PUSH1 0x20 ADD SWAP1 DUP2 MSTORE PUSH1 0x20 ADD PUSH1 0x0 KECCAK256 DUP2 SWAP1 SSTORE POP PUSH2 0x41FA DUP6 PUSH1 0x3 PUSH1 0x0 DUP12 PUSH20 0xFFFFFFFFFFFFFFFFFFFFFFFFFFFFFFFFFFFFFFFF AND PUSH20 0xFFFFFFFFFFFFFFFFFFFFFFFFFFFFFFFFFFFFFFFF AND DUP2 MSTORE PUSH1 0x20 ADD SWAP1 DUP2 MSTORE PUSH1 0x20 ADD PUSH1 0x0 KECCAK256 SLOAD PUSH2 0x3225 SWAP1 SWAP2 SWAP1 PUSH4 0xFFFFFFFF AND JUMP JUMPDEST PUSH1 0x3 PUSH1 0x0 DUP11 PUSH20 0xFFFFFFFFFFFFFFFFFFFFFFFFFFFFFFFFFFFFFFFF AND PUSH20 0xFFFFFFFFFFFFFFFFFFFFFFFFFFFFFFFFFFFFFFFF AND DUP2 MSTORE PUSH1 0x20 ADD SWAP1 DUP2 MSTORE PUSH1 0x20 ADD PUSH1 0x0 KECCAK256 DUP2 SWAP1 SSTORE POP PUSH2 0x4246 DUP2 PUSH2 0x4A56 JUMP JUMPDEST PUSH2 0x4250 DUP5 DUP4 PUSH2 0x4BFB JUMP JUMPDEST DUP8 PUSH20 0xFFFFFFFFFFFFFFFFFFFFFFFFFFFFFFFFFFFFFFFF AND DUP10 PUSH20 0xFFFFFFFFFFFFFFFFFFFFFFFFFFFFFFFFFFFFFFFF AND PUSH32 0xDDF252AD1BE2C89B69C2B068FC378DAA952BA7F163C4A11628F55A4DF523B3EF DUP6 PUSH1 0x40 MLOAD DUP1 DUP3 DUP2 MSTORE PUSH1 0x20 ADD SWAP2 POP POP PUSH1 0x40 MLOAD DUP1 SWAP2 SUB SWAP1 LOG3 POP POP POP POP POP POP POP POP POP JUMP JUMPDEST PUSH1 0x0 DUP1 PUSH1 0x0 DUP1 PUSH1 0x0 DUP1 PUSH2 0x42D2 DUP8 PUSH2 0x32AD JUMP JUMPDEST SWAP6 POP SWAP6 POP SWAP6 POP SWAP6 POP SWAP6 POP SWAP6 POP PUSH2 0x4330 DUP7 PUSH1 0x3 PUSH1 0x0 DUP13 PUSH20 0xFFFFFFFFFFFFFFFFFFFFFFFFFFFFFFFFFFFFFFFF AND PUSH20 0xFFFFFFFFFFFFFFFFFFFFFFFFFFFFFFFFFFFFFFFF AND DUP2 MSTORE PUSH1 0x20 ADD SWAP1 DUP2 MSTORE PUSH1 0x20 ADD PUSH1 0x0 KECCAK256 SLOAD PUSH2 0x3309 SWAP1 SWAP2 SWAP1 PUSH4 0xFFFFFFFF AND JUMP JUMPDEST PUSH1 0x3 PUSH1 0x0 DUP12 PUSH20 0xFFFFFFFFFFFFFFFFFFFFFFFFFFFFFFFFFFFFFFFF AND PUSH20 0xFFFFFFFFFFFFFFFFFFFFFFFFFFFFFFFFFFFFFFFF AND DUP2 MSTORE PUSH1 0x20 ADD SWAP1 DUP2 MSTORE PUSH1 0x20 ADD PUSH1 0x0 KECCAK256 DUP2 SWAP1 SSTORE POP PUSH2 0x43C5 DUP4 PUSH1 0x4 PUSH1 0x0 DUP12 PUSH20 0xFFFFFFFFFFFFFFFFFFFFFFFFFFFFFFFFFFFFFFFF AND PUSH20 0xFFFFFFFFFFFFFFFFFFFFFFFFFFFFFFFFFFFFFFFF AND DUP2 MSTORE PUSH1 0x20 ADD SWAP1 DUP2 MSTORE PUSH1 0x20 ADD PUSH1 0x0 KECCAK256 SLOAD PUSH2 0x3225 SWAP1 SWAP2 SWAP1 PUSH4 0xFFFFFFFF AND JUMP JUMPDEST PUSH1 0x4 PUSH1 0x0 DUP11 PUSH20 0xFFFFFFFFFFFFFFFFFFFFFFFFFFFFFFFFFFFFFFFF AND PUSH20 0xFFFFFFFFFFFFFFFFFFFFFFFFFFFFFFFFFFFFFFFF AND DUP2 MSTORE PUSH1 0x20 ADD SWAP1 DUP2 MSTORE PUSH1 0x20 ADD PUSH1 0x0 KECCAK256 DUP2 SWAP1 SSTORE POP PUSH2 0x445A DUP6 PUSH1 0x3 PUSH1 0x0 DUP12 PUSH20 0xFFFFFFFFFFFFFFFFFFFFFFFFFFFFFFFFFFFFFFFF AND PUSH20 0xFFFFFFFFFFFFFFFFFFFFFFFFFFFFFFFFFFFFFFFF AND DUP2 MSTORE PUSH1 0x20 ADD SWAP1 DUP2 MSTORE PUSH1 0x20 ADD PUSH1 0x0 KECCAK256 SLOAD PUSH2 0x3225 SWAP1 SWAP2 SWAP1 PUSH4 0xFFFFFFFF AND JUMP JUMPDEST PUSH1 0x3 PUSH1 0x0 DUP11 PUSH20 0xFFFFFFFFFFFFFFFFFFFFFFFFFFFFFFFFFFFFFFFF AND PUSH20 0xFFFFFFFFFFFFFFFFFFFFFFFFFFFFFFFFFFFFFFFF AND DUP2 MSTORE PUSH1 0x20 ADD SWAP1 DUP2 MSTORE PUSH1 0x20 ADD PUSH1 0x0 KECCAK256 DUP2 SWAP1 SSTORE POP PUSH2 0x44A6 DUP2 PUSH2 0x4A56 JUMP JUMPDEST PUSH2 0x44B0 DUP5 DUP4 PUSH2 0x4BFB JUMP JUMPDEST DUP8 PUSH20 0xFFFFFFFFFFFFFFFFFFFFFFFFFFFFFFFFFFFFFFFF AND DUP10 PUSH20 0xFFFFFFFFFFFFFFFFFFFFFFFFFFFFFFFFFFFFFFFF AND PUSH32 0xDDF252AD1BE2C89B69C2B068FC378DAA952BA7F163C4A11628F55A4DF523B3EF DUP6 PUSH1 0x40 MLOAD DUP1 DUP3 DUP2 MSTORE PUSH1 0x20 ADD SWAP2 POP POP PUSH1 0x40 MLOAD DUP1 SWAP2 SUB SWAP1 LOG3 POP POP POP POP POP POP POP POP POP JUMP JUMPDEST PUSH1 0x0 DUP1 PUSH1 0x0 DUP1 PUSH1 0x0 DUP1 PUSH2 0x4532 DUP8 PUSH2 0x32AD JUMP JUMPDEST SWAP6 POP SWAP6 POP SWAP6 POP SWAP6 POP SWAP6 POP SWAP6 POP PUSH2 0x4590 DUP7 PUSH1 0x3 PUSH1 0x0 DUP13 PUSH20 0xFFFFFFFFFFFFFFFFFFFFFFFFFFFFFFFFFFFFFFFF AND PUSH20 0xFFFFFFFFFFFFFFFFFFFFFFFFFFFFFFFFFFFFFFFF AND DUP2 MSTORE PUSH1 0x20 ADD SWAP1 DUP2 MSTORE PUSH1 0x20 ADD PUSH1 0x0 KECCAK256 SLOAD PUSH2 0x3309 SWAP1 SWAP2 SWAP1 PUSH4 0xFFFFFFFF AND JUMP JUMPDEST PUSH1 0x3 PUSH1 0x0 DUP12 PUSH20 0xFFFFFFFFFFFFFFFFFFFFFFFFFFFFFFFFFFFFFFFF AND PUSH20 0xFFFFFFFFFFFFFFFFFFFFFFFFFFFFFFFFFFFFFFFF AND DUP2 MSTORE PUSH1 0x20 ADD SWAP1 DUP2 MSTORE PUSH1 0x20 ADD PUSH1 0x0 KECCAK256 DUP2 SWAP1 SSTORE POP PUSH2 0x4625 DUP6 PUSH1 0x3 PUSH1 0x0 DUP12 PUSH20 0xFFFFFFFFFFFFFFFFFFFFFFFFFFFFFFFFFFFFFFFF AND PUSH20 0xFFFFFFFFFFFFFFFFFFFFFFFFFFFFFFFFFFFFFFFF AND DUP2 MSTORE PUSH1 0x20 ADD SWAP1 DUP2 MSTORE PUSH1 0x20 ADD PUSH1 0x0 KECCAK256 SLOAD PUSH2 0x3225 SWAP1 SWAP2 SWAP1 PUSH4 0xFFFFFFFF AND JUMP JUMPDEST PUSH1 0x3 PUSH1 0x0 DUP11 PUSH20 0xFFFFFFFFFFFFFFFFFFFFFFFFFFFFFFFFFFFFFFFF AND PUSH20 0xFFFFFFFFFFFFFFFFFFFFFFFFFFFFFFFFFFFFFFFF AND DUP2 MSTORE PUSH1 0x20 ADD SWAP1 DUP2 MSTORE PUSH1 0x20 ADD PUSH1 0x0 KECCAK256 DUP2 SWAP1 SSTORE POP PUSH2 0x4671 DUP2 PUSH2 0x4A56 JUMP JUMPDEST PUSH2 0x467B DUP5 DUP4 PUSH2 0x4BFB JUMP JUMPDEST DUP8 PUSH20 0xFFFFFFFFFFFFFFFFFFFFFFFFFFFFFFFFFFFFFFFF AND DUP10 PUSH20 0xFFFFFFFFFFFFFFFFFFFFFFFFFFFFFFFFFFFFFFFF AND PUSH32 0xDDF252AD1BE2C89B69C2B068FC378DAA952BA7F163C4A11628F55A4DF523B3EF DUP6 PUSH1 0x40 MLOAD DUP1 DUP3 DUP2 MSTORE PUSH1 0x20 ADD SWAP2 POP POP PUSH1 0x40 MLOAD DUP1 SWAP2 SUB SWAP1 LOG3 POP POP POP POP POP POP POP POP POP JUMP JUMPDEST PUSH1 0x0 DUP1 PUSH1 0x0 DUP1 PUSH1 0x0 DUP1 PUSH2 0x46FD DUP8 PUSH2 0x32AD JUMP JUMPDEST SWAP6 POP SWAP6 POP SWAP6 POP SWAP6 POP SWAP6 POP SWAP6 POP PUSH2 0x475B DUP8 PUSH1 0x4 PUSH1 0x0 DUP13 PUSH20 0xFFFFFFFFFFFFFFFFFFFFFFFFFFFFFFFFFFFFFFFF AND PUSH20 0xFFFFFFFFFFFFFFFFFFFFFFFFFFFFFFFFFFFFFFFF AND DUP2 MSTORE PUSH1 0x20 ADD SWAP1 DUP2 MSTORE PUSH1 0x20 ADD PUSH1 0x0 KECCAK256 SLOAD PUSH2 0x3309 SWAP1 SWAP2 SWAP1 PUSH4 0xFFFFFFFF AND JUMP JUMPDEST PUSH1 0x4 PUSH1 0x0 DUP12 PUSH20 0xFFFFFFFFFFFFFFFFFFFFFFFFFFFFFFFFFFFFFFFF AND PUSH20 0xFFFFFFFFFFFFFFFFFFFFFFFFFFFFFFFFFFFFFFFF AND DUP2 MSTORE PUSH1 0x20 ADD SWAP1 DUP2 MSTORE PUSH1 0x20 ADD PUSH1 0x0 KECCAK256 DUP2 SWAP1 SSTORE POP PUSH2 0x47F0 DUP7 PUSH1 0x3 PUSH1 0x0 DUP13 PUSH20 0xFFFFFFFFFFFFFFFFFFFFFFFFFFFFFFFFFFFFFFFF AND PUSH20 0xFFFFFFFFFFFFFFFFFFFFFFFFFFFFFFFFFFFFFFFF AND DUP2 MSTORE PUSH1 0x20 ADD SWAP1 DUP2 MSTORE PUSH1 0x20 ADD PUSH1 0x0 KECCAK256 SLOAD PUSH2 0x3309 SWAP1 SWAP2 SWAP1 PUSH4 0xFFFFFFFF AND JUMP JUMPDEST PUSH1 0x3 PUSH1 0x0 DUP12 PUSH20 0xFFFFFFFFFFFFFFFFFFFFFFFFFFFFFFFFFFFFFFFF AND PUSH20 0xFFFFFFFFFFFFFFFFFFFFFFFFFFFFFFFFFFFFFFFF AND DUP2 MSTORE PUSH1 0x20 ADD SWAP1 DUP2 MSTORE PUSH1 0x20 ADD PUSH1 0x0 KECCAK256 DUP2 SWAP1 SSTORE POP PUSH2 0x4885 DUP4 PUSH1 0x4 PUSH1 0x0 DUP12 PUSH20 0xFFFFFFFFFFFFFFFFFFFFFFFFFFFFFFFFFFFFFFFF AND PUSH20 0xFFFFFFFFFFFFFFFFFFFFFFFFFFFFFFFFFFFFFFFF AND DUP2 MSTORE PUSH1 0x20 ADD SWAP1 DUP2 MSTORE PUSH1 0x20 ADD PUSH1 0x0 KECCAK256 SLOAD PUSH2 0x3225 SWAP1 SWAP2 SWAP1 PUSH4 0xFFFFFFFF AND JUMP JUMPDEST PUSH1 0x4 PUSH1 0x0 DUP11 PUSH20 0xFFFFFFFFFFFFFFFFFFFFFFFFFFFFFFFFFFFFFFFF AND PUSH20 0xFFFFFFFFFFFFFFFFFFFFFFFFFFFFFFFFFFFFFFFF AND DUP2 MSTORE PUSH1 0x20 ADD SWAP1 DUP2 MSTORE PUSH1 0x20 ADD PUSH1 0x0 KECCAK256 DUP2 SWAP1 SSTORE POP PUSH2 0x491A DUP6 PUSH1 0x3 PUSH1 0x0 DUP12 PUSH20 0xFFFFFFFFFFFFFFFFFFFFFFFFFFFFFFFFFFFFFFFF AND PUSH20 0xFFFFFFFFFFFFFFFFFFFFFFFFFFFFFFFFFFFFFFFF AND DUP2 MSTORE PUSH1 0x20 ADD SWAP1 DUP2 MSTORE PUSH1 0x20 ADD PUSH1 0x0 KECCAK256 SLOAD PUSH2 0x3225 SWAP1 SWAP2 SWAP1 PUSH4 0xFFFFFFFF AND JUMP JUMPDEST PUSH1 0x3 PUSH1 0x0 DUP11 PUSH20 0xFFFFFFFFFFFFFFFFFFFFFFFFFFFFFFFFFFFFFFFF AND PUSH20 0xFFFFFFFFFFFFFFFFFFFFFFFFFFFFFFFFFFFFFFFF AND DUP2 MSTORE PUSH1 0x20 ADD SWAP1 DUP2 MSTORE PUSH1 0x20 ADD PUSH1 0x0 KECCAK256 DUP2 SWAP1 SSTORE POP PUSH2 0x4966 DUP2 PUSH2 0x4A56 JUMP JUMPDEST PUSH2 0x4970 DUP5 DUP4 PUSH2 0x4BFB JUMP JUMPDEST DUP8 PUSH20 0xFFFFFFFFFFFFFFFFFFFFFFFFFFFFFFFFFFFFFFFF AND DUP10 PUSH20 0xFFFFFFFFFFFFFFFFFFFFFFFFFFFFFFFFFFFFFFFF AND PUSH32 0xDDF252AD1BE2C89B69C2B068FC378DAA952BA7F163C4A11628F55A4DF523B3EF DUP6 PUSH1 0x40 MLOAD DUP1 DUP3 DUP2 MSTORE PUSH1 0x20 ADD SWAP2 POP POP PUSH1 0x40 MLOAD DUP1 SWAP2 SUB SWAP1 LOG3 POP POP POP POP POP POP POP POP POP JUMP JUMPDEST PUSH1 0xF SLOAD PUSH1 0xE DUP2 SWAP1 SSTORE POP PUSH1 0x11 SLOAD PUSH1 0x10 DUP2 SWAP1 SSTORE POP JUMP JUMPDEST PUSH1 0x0 PUSH2 0x4A1E PUSH1 0x64 PUSH2 0x4A10 PUSH1 0xE SLOAD DUP6 PUSH2 0x3353 SWAP1 SWAP2 SWAP1 PUSH4 0xFFFFFFFF AND JUMP JUMPDEST PUSH2 0x31DB SWAP1 SWAP2 SWAP1 PUSH4 0xFFFFFFFF AND JUMP JUMPDEST SWAP1 POP SWAP2 SWAP1 POP JUMP JUMPDEST PUSH1 0x0 PUSH2 0x4A4F PUSH1 0x64 PUSH2 0x4A41 PUSH1 0x10 SLOAD DUP6 PUSH2 0x3353 SWAP1 SWAP2 SWAP1 PUSH4 0xFFFFFFFF AND JUMP JUMPDEST PUSH2 0x31DB SWAP1 SWAP2 SWAP1 PUSH4 0xFFFFFFFF AND JUMP JUMPDEST SWAP1 POP SWAP2 SWAP1 POP JUMP JUMPDEST PUSH1 0x0 PUSH2 0x4A60 PUSH2 0x31B0 JUMP JUMPDEST SWAP1 POP PUSH1 0x0 PUSH2 0x4A77 DUP3 DUP5 PUSH2 0x3353 SWAP1 SWAP2 SWAP1 PUSH4 0xFFFFFFFF AND JUMP JUMPDEST SWAP1 POP PUSH2 0x4ACB DUP2 PUSH1 0x3 PUSH1 0x0 ADDRESS PUSH20 0xFFFFFFFFFFFFFFFFFFFFFFFFFFFFFFFFFFFFFFFF AND PUSH20 0xFFFFFFFFFFFFFFFFFFFFFFFFFFFFFFFFFFFFFFFF AND DUP2 MSTORE PUSH1 0x20 ADD SWAP1 DUP2 MSTORE PUSH1 0x20 ADD PUSH1 0x0 KECCAK256 SLOAD PUSH2 0x3225 SWAP1 SWAP2 SWAP1 PUSH4 0xFFFFFFFF AND JUMP JUMPDEST PUSH1 0x3 PUSH1 0x0 ADDRESS PUSH20 0xFFFFFFFFFFFFFFFFFFFFFFFFFFFFFFFFFFFFFFFF AND PUSH20 0xFFFFFFFFFFFFFFFFFFFFFFFFFFFFFFFFFFFFFFFF AND DUP2 MSTORE PUSH1 0x20 ADD SWAP1 DUP2 MSTORE PUSH1 0x20 ADD PUSH1 0x0 KECCAK256 DUP2 SWAP1 SSTORE POP PUSH1 0x7 PUSH1 0x0 ADDRESS PUSH20 0xFFFFFFFFFFFFFFFFFFFFFFFFFFFFFFFFFFFFFFFF AND PUSH20 0xFFFFFFFFFFFFFFFFFFFFFFFFFFFFFFFFFFFFFFFF AND DUP2 MSTORE PUSH1 0x20 ADD SWAP1 DUP2 MSTORE PUSH1 0x20 ADD PUSH1 0x0 KECCAK256 PUSH1 0x0 SWAP1 SLOAD SWAP1 PUSH2 0x100 EXP SWAP1 DIV PUSH1 0xFF AND ISZERO PUSH2 0x4BF6 JUMPI PUSH2 0x4BB2 DUP4 PUSH1 0x4 PUSH1 0x0 ADDRESS PUSH20 0xFFFFFFFFFFFFFFFFFFFFFFFFFFFFFFFFFFFFFFFF AND PUSH20 0xFFFFFFFFFFFFFFFFFFFFFFFFFFFFFFFFFFFFFFFF AND DUP2 MSTORE PUSH1 0x20 ADD SWAP1 DUP2 MSTORE PUSH1 0x20 ADD PUSH1 0x0 KECCAK256 SLOAD PUSH2 0x3225 SWAP1 SWAP2 SWAP1 PUSH4 0xFFFFFFFF AND JUMP JUMPDEST PUSH1 0x4 PUSH1 0x0 ADDRESS PUSH20 0xFFFFFFFFFFFFFFFFFFFFFFFFFFFFFFFFFFFFFFFF AND PUSH20 0xFFFFFFFFFFFFFFFFFFFFFFFFFFFFFFFFFFFFFFFF AND DUP2 MSTORE PUSH1 0x20 ADD SWAP1 DUP2 MSTORE PUSH1 0x20 ADD PUSH1 0x0 KECCAK256 DUP2 SWAP1 SSTORE POP JUMPDEST POP POP POP JUMP JUMPDEST PUSH2 0x4C10 DUP3 PUSH1 0x9 SLOAD PUSH2 0x3309 SWAP1 SWAP2 SWAP1 PUSH4 0xFFFFFFFF AND JUMP JUMPDEST PUSH1 0x9 DUP2 SWAP1 SSTORE POP PUSH2 0x4C2B DUP2 PUSH1 0xA SLOAD PUSH2 0x3225 SWAP1 SWAP2 SWAP1 PUSH4 0xFFFFFFFF AND JUMP JUMPDEST PUSH1 0xA DUP2 SWAP1 SSTORE POP POP POP JUMP INVALID GASLIMIT MSTORE NUMBER ORIGIN ADDRESS GASPRICE KECCAK256 PUSH21 0x72616E7366657220746F20746865207A65726F2061 PUSH5 0x6472657373 COINBASE PUSH14 0x6F756E74206D757374206265206C PUSH6 0x737320746861 PUSH15 0x20746F74616C207265666C65637469 PUSH16 0x6E734F776E61626C653A206E6577206F PUSH24 0x6E657220697320746865207A65726F206164647265737345 MSTORE NUMBER ORIGIN ADDRESS GASPRICE KECCAK256 PUSH2 0x7070 PUSH19 0x6F766520746F20746865207A65726F20616464 PUSH19 0x6573735472616E7366657220616D6F756E7420 PUSH6 0x786365656473 KECCAK256 PUSH21 0x6865206D61785478416D6F756E742E536166654D61 PUSH21 0x683A206D756C7469706C69636174696F6E206F7665 PUSH19 0x666C6F7745524332303A207472616E73666572 KECCAK256 PUSH2 0x6D6F PUSH22 0x6E74206578636565647320616C6C6F77616E63655472 PUSH2 0x6E73 PUSH7 0x657220616D6F75 PUSH15 0x74206D757374206265206772656174 PUSH6 0x72207468616E KECCAK256 PUSH27 0x65726F45524332303A207472616E736665722066726F6D20746865 KECCAK256 PUSH27 0x65726F206164647265737345524332303A20617070726F76652066 PUSH19 0x6F6D20746865207A65726F2061646472657373 GASLIMIT PUSH25 0x636C75646564206164647265737365732063616E6E6F742063 PUSH2 0x6C6C KECCAK256 PUSH21 0x6869732066756E6374696F6E596F7520646F6E2774 KECCAK256 PUSH9 0x617665207065726D69 PUSH20 0x73696F6E20746F20756E6C6F636B45524332303A KECCAK256 PUSH5 0x6563726561 PUSH20 0x656420616C6C6F77616E63652062656C6F77207A PUSH6 0x726FA2646970 PUSH7 0x7358221220DD03 0xCA 0xDC 0x22 0x4D 0xC8 PUSH28 0x7FCB8FB8667729FD02F8BE7173961BA22789827F5299302864736F6C PUSH4 0x4300060C STOP CALLER "
				},
				"gasEstimates": {
					"creation": {
						"codeDepositCost": "4011000",
						"executionCost": "infinite",
						"totalCost": "infinite"
					},
					"external": {
						"_liquidityFee()": "1073",
						"_maxTxAmount()": "1050",
						"_taxFee()": "1095",
						"allowance(address,address)": "1409",
						"approve(address,uint256)": "infinite",
						"balanceOf(address)": "infinite",
						"decimals()": "1189",
						"decreaseAllowance(address,uint256)": "infinite",
						"deliver(uint256)": "infinite",
						"excludeFromFee(address)": "22138",
						"excludeFromReward(address)": "infinite",
						"geUnlockTime()": "1124",
						"includeInFee(address)": "22203",
						"includeInReward(address)": "infinite",
						"increaseAllowance(address,uint256)": "infinite",
						"isExcludedFromFee(address)": "1284",
						"isExcludedFromReward(address)": "1305",
						"lock(uint256)": "66160",
						"name()": "infinite",
						"owner()": "1144",
						"reflectionFromToken(uint256,bool)": "infinite",
						"renounceOwnership()": "24403",
						"setLiquidityFeePercent(uint256)": "21255",
						"setMaxTxPercent(uint256)": "infinite",
						"setSwapAndLiquifyEnabled(bool)": "23259",
						"setTaxFeePercent(uint256)": "21191",
						"swapAndLiquifyEnabled()": "1208",
						"symbol()": "infinite",
						"tokenFromReflection(uint256)": "infinite",
						"totalFees()": "1126",
						"totalSupply()": "281",
						"transfer(address,uint256)": "infinite",
						"transferFrom(address,address,uint256)": "infinite",
						"transferOwnership(address)": "infinite",
						"uniswapV2Pair()": "infinite",
						"uniswapV2Router()": "infinite",
						"unlock()": "infinite"
					},
					"internal": {
						"_approve(address,address,uint256)": "infinite",
						"_getCurrentSupply()": "infinite",
						"_getRValues(uint256,uint256,uint256,uint256)": "infinite",
						"_getRate()": "infinite",
						"_getTValues(uint256)": "infinite",
						"_getValues(uint256)": "infinite",
						"_reflectFee(uint256,uint256)": "infinite",
						"_takeLiquidity(uint256)": "infinite",
						"_tokenTransfer(address,address,uint256,bool)": "infinite",
						"_transfer(address,address,uint256)": "infinite",
						"_transferBothExcluded(address,address,uint256)": "infinite",
						"_transferFromExcluded(address,address,uint256)": "infinite",
						"_transferStandard(address,address,uint256)": "infinite",
						"_transferToExcluded(address,address,uint256)": "infinite",
						"addLiquidity(uint256,uint256)": "infinite",
						"calculateLiquidityFee(uint256)": "infinite",
						"calculateTaxFee(uint256)": "infinite",
						"removeAllFee()": "53323",
						"restoreAllFee()": "41637",
						"swapAndLiquify(uint256)": "infinite",
						"swapTokensForEth(uint256)": "infinite"
					}
				},
				"methodIdentifiers": {
					"_liquidityFee()": "6bc87c3a",
					"_maxTxAmount()": "7d1db4a5",
					"_taxFee()": "3b124fe7",
					"allowance(address,address)": "dd62ed3e",
					"approve(address,uint256)": "095ea7b3",
					"balanceOf(address)": "70a08231",
					"decimals()": "313ce567",
					"decreaseAllowance(address,uint256)": "a457c2d7",
					"deliver(uint256)": "3bd5d173",
					"excludeFromFee(address)": "437823ec",
					"excludeFromReward(address)": "52390c02",
					"geUnlockTime()": "b6c52324",
					"includeInFee(address)": "ea2f0b37",
					"includeInReward(address)": "3685d419",
					"increaseAllowance(address,uint256)": "39509351",
					"isExcludedFromFee(address)": "5342acb4",
					"isExcludedFromReward(address)": "88f82020",
					"lock(uint256)": "dd467064",
					"name()": "06fdde03",
					"owner()": "8da5cb5b",
					"reflectionFromToken(uint256,bool)": "4549b039",
					"renounceOwnership()": "715018a6",
					"setLiquidityFeePercent(uint256)": "8ee88c53",
					"setMaxTxPercent(uint256)": "d543dbeb",
					"setSwapAndLiquifyEnabled(bool)": "c49b9a80",
					"setTaxFeePercent(uint256)": "061c82d0",
					"swapAndLiquifyEnabled()": "4a74bb02",
					"symbol()": "95d89b41",
					"tokenFromReflection(uint256)": "2d838119",
					"totalFees()": "13114a9d",
					"totalSupply()": "18160ddd",
					"transfer(address,uint256)": "a9059cbb",
					"transferFrom(address,address,uint256)": "23b872dd",
					"transferOwnership(address)": "f2fde38b",
					"uniswapV2Pair()": "49bd5a5e",
					"uniswapV2Router()": "1694505e",
					"unlock()": "a69df4b5"
				}
			},
			"storageLayout": {
				"storage": [
					{
						"astId": 473,
						"contract": "contracts/Pool/PoolPig.sol:WorldStepToken",
						"label": "_owner",
						"offset": 0,
						"slot": "0",
						"type": "t_address"
					},
					{
						"astId": 475,
						"contract": "contracts/Pool/PoolPig.sol:WorldStepToken",
						"label": "_previousOwner",
						"offset": 0,
						"slot": "1",
						"type": "t_address"
					},
					{
						"astId": 477,
						"contract": "contracts/Pool/PoolPig.sol:WorldStepToken",
						"label": "_lockTime",
						"offset": 0,
						"slot": "2",
						"type": "t_uint256"
					},
					{
						"astId": 1353,
						"contract": "contracts/Pool/PoolPig.sol:WorldStepToken",
						"label": "_rOwned",
						"offset": 0,
						"slot": "3",
						"type": "t_mapping(t_address,t_uint256)"
					},
					{
						"astId": 1357,
						"contract": "contracts/Pool/PoolPig.sol:WorldStepToken",
						"label": "_tOwned",
						"offset": 0,
						"slot": "4",
						"type": "t_mapping(t_address,t_uint256)"
					},
					{
						"astId": 1363,
						"contract": "contracts/Pool/PoolPig.sol:WorldStepToken",
						"label": "_allowances",
						"offset": 0,
						"slot": "5",
						"type": "t_mapping(t_address,t_mapping(t_address,t_uint256))"
					},
					{
						"astId": 1367,
						"contract": "contracts/Pool/PoolPig.sol:WorldStepToken",
						"label": "_isExcludedFromFee",
						"offset": 0,
						"slot": "6",
						"type": "t_mapping(t_address,t_bool)"
					},
					{
						"astId": 1371,
						"contract": "contracts/Pool/PoolPig.sol:WorldStepToken",
						"label": "_isExcluded",
						"offset": 0,
						"slot": "7",
						"type": "t_mapping(t_address,t_bool)"
					},
					{
						"astId": 1374,
						"contract": "contracts/Pool/PoolPig.sol:WorldStepToken",
						"label": "_excluded",
						"offset": 0,
						"slot": "8",
						"type": "t_array(t_address)dyn_storage"
					},
					{
						"astId": 1397,
						"contract": "contracts/Pool/PoolPig.sol:WorldStepToken",
						"label": "_rTotal",
						"offset": 0,
						"slot": "9",
						"type": "t_uint256"
					},
					{
						"astId": 1399,
						"contract": "contracts/Pool/PoolPig.sol:WorldStepToken",
						"label": "_tFeeTotal",
						"offset": 0,
						"slot": "10",
						"type": "t_uint256"
					},
					{
						"astId": 1402,
						"contract": "contracts/Pool/PoolPig.sol:WorldStepToken",
						"label": "_name",
						"offset": 0,
						"slot": "11",
						"type": "t_string_storage"
					},
					{
						"astId": 1405,
						"contract": "contracts/Pool/PoolPig.sol:WorldStepToken",
						"label": "_symbol",
						"offset": 0,
						"slot": "12",
						"type": "t_string_storage"
					},
					{
						"astId": 1408,
						"contract": "contracts/Pool/PoolPig.sol:WorldStepToken",
						"label": "_decimals",
						"offset": 0,
						"slot": "13",
						"type": "t_uint8"
					},
					{
						"astId": 1411,
						"contract": "contracts/Pool/PoolPig.sol:WorldStepToken",
						"label": "_taxFee",
						"offset": 0,
						"slot": "14",
						"type": "t_uint256"
					},
					{
						"astId": 1414,
						"contract": "contracts/Pool/PoolPig.sol:WorldStepToken",
						"label": "_previousTaxFee",
						"offset": 0,
						"slot": "15",
						"type": "t_uint256"
					},
					{
						"astId": 1417,
						"contract": "contracts/Pool/PoolPig.sol:WorldStepToken",
						"label": "_liquidityFee",
						"offset": 0,
						"slot": "16",
						"type": "t_uint256"
					},
					{
						"astId": 1420,
						"contract": "contracts/Pool/PoolPig.sol:WorldStepToken",
						"label": "_previousLiquidityFee",
						"offset": 0,
						"slot": "17",
						"type": "t_uint256"
					},
					{
						"astId": 1426,
						"contract": "contracts/Pool/PoolPig.sol:WorldStepToken",
						"label": "inSwapAndLiquify",
						"offset": 0,
						"slot": "18",
						"type": "t_bool"
					},
					{
						"astId": 1429,
						"contract": "contracts/Pool/PoolPig.sol:WorldStepToken",
						"label": "swapAndLiquifyEnabled",
						"offset": 1,
						"slot": "18",
						"type": "t_bool"
					},
					{
						"astId": 1436,
						"contract": "contracts/Pool/PoolPig.sol:WorldStepToken",
						"label": "_maxTxAmount",
						"offset": 0,
						"slot": "19",
						"type": "t_uint256"
					},
					{
						"astId": 1443,
						"contract": "contracts/Pool/PoolPig.sol:WorldStepToken",
						"label": "numTokensSellToAddToLiquidity",
						"offset": 0,
						"slot": "20",
						"type": "t_uint256"
					}
				],
				"types": {
					"t_address": {
						"encoding": "inplace",
						"label": "address",
						"numberOfBytes": "20"
					},
					"t_array(t_address)dyn_storage": {
						"base": "t_address",
						"encoding": "dynamic_array",
						"label": "address[]",
						"numberOfBytes": "32"
					},
					"t_bool": {
						"encoding": "inplace",
						"label": "bool",
						"numberOfBytes": "1"
					},
					"t_mapping(t_address,t_bool)": {
						"encoding": "mapping",
						"key": "t_address",
						"label": "mapping(address => bool)",
						"numberOfBytes": "32",
						"value": "t_bool"
					},
					"t_mapping(t_address,t_mapping(t_address,t_uint256))": {
						"encoding": "mapping",
						"key": "t_address",
						"label": "mapping(address => mapping(address => uint256))",
						"numberOfBytes": "32",
						"value": "t_mapping(t_address,t_uint256)"
					},
					"t_mapping(t_address,t_uint256)": {
						"encoding": "mapping",
						"key": "t_address",
						"label": "mapping(address => uint256)",
						"numberOfBytes": "32",
						"value": "t_uint256"
					},
					"t_string_storage": {
						"encoding": "bytes",
						"label": "string",
						"numberOfBytes": "32"
					},
					"t_uint256": {
						"encoding": "inplace",
						"label": "uint256",
						"numberOfBytes": "32"
					},
					"t_uint8": {
						"encoding": "inplace",
						"label": "uint8",
						"numberOfBytes": "1"
					}
				}
			},
			"userdoc": {
				"kind": "user",
				"methods": {},
				"version": 1
			}
		}
	}
}