{
	"contracts/Pool/PoolPig.sol": {
		"WorldStepToken": {
			"abi": [
				{
					"inputs": [
						{
							"internalType": "uint256",
							"name": "tokenAmount",
							"type": "uint256"
						}
					],
					"stateMutability": "nonpayable",
					"type": "constructor"
				},
				{
					"anonymous": false,
					"inputs": [
						{
							"indexed": true,
							"internalType": "address",
							"name": "owner",
							"type": "address"
						},
						{
							"indexed": true,
							"internalType": "address",
							"name": "spender",
							"type": "address"
						},
						{
							"indexed": false,
							"internalType": "uint256",
							"name": "value",
							"type": "uint256"
						}
					],
					"name": "Approval",
					"type": "event"
				},
				{
					"anonymous": false,
					"inputs": [
						{
							"indexed": false,
							"internalType": "uint256",
							"name": "minTokensBeforeSwap",
							"type": "uint256"
						}
					],
					"name": "MinTokensBeforeSwapUpdated",
					"type": "event"
				},
				{
					"anonymous": false,
					"inputs": [
						{
							"indexed": true,
							"internalType": "address",
							"name": "previousOwner",
							"type": "address"
						},
						{
							"indexed": true,
							"internalType": "address",
							"name": "newOwner",
							"type": "address"
						}
					],
					"name": "OwnershipTransferred",
					"type": "event"
				},
				{
					"anonymous": false,
					"inputs": [
						{
							"indexed": false,
							"internalType": "uint256",
							"name": "tokensSwapped",
							"type": "uint256"
						},
						{
							"indexed": false,
							"internalType": "uint256",
							"name": "ethReceived",
							"type": "uint256"
						},
						{
							"indexed": false,
							"internalType": "uint256",
							"name": "tokensIntoLiqudity",
							"type": "uint256"
						}
					],
					"name": "SwapAndLiquify",
					"type": "event"
				},
				{
					"anonymous": false,
					"inputs": [
						{
							"indexed": false,
							"internalType": "bool",
							"name": "enabled",
							"type": "bool"
						}
					],
					"name": "SwapAndLiquifyEnabledUpdated",
					"type": "event"
				},
				{
					"anonymous": false,
					"inputs": [
						{
							"indexed": true,
							"internalType": "address",
							"name": "from",
							"type": "address"
						},
						{
							"indexed": true,
							"internalType": "address",
							"name": "to",
							"type": "address"
						},
						{
							"indexed": false,
							"internalType": "uint256",
							"name": "value",
							"type": "uint256"
						}
					],
					"name": "Transfer",
					"type": "event"
				},
				{
					"inputs": [],
					"name": "_liquidityFee",
					"outputs": [
						{
							"internalType": "uint256",
							"name": "",
							"type": "uint256"
						}
					],
					"stateMutability": "view",
					"type": "function"
				},
				{
					"inputs": [],
					"name": "_maxTxAmount",
					"outputs": [
						{
							"internalType": "uint256",
							"name": "",
							"type": "uint256"
						}
					],
					"stateMutability": "view",
					"type": "function"
				},
				{
					"inputs": [],
					"name": "_taxFee",
					"outputs": [
						{
							"internalType": "uint256",
							"name": "",
							"type": "uint256"
						}
					],
					"stateMutability": "view",
					"type": "function"
				},
				{
					"inputs": [
						{
							"internalType": "uint256",
							"name": "tokenAmount",
							"type": "uint256"
						}
					],
					"name": "addInitialLiquidity",
					"outputs": [],
					"stateMutability": "payable",
					"type": "function"
				},
				{
					"inputs": [
						{
							"internalType": "address",
							"name": "owner",
							"type": "address"
						},
						{
							"internalType": "address",
							"name": "spender",
							"type": "address"
						}
					],
					"name": "allowance",
					"outputs": [
						{
							"internalType": "uint256",
							"name": "",
							"type": "uint256"
						}
					],
					"stateMutability": "view",
					"type": "function"
				},
				{
					"inputs": [
						{
							"internalType": "address",
							"name": "spender",
							"type": "address"
						},
						{
							"internalType": "uint256",
							"name": "amount",
							"type": "uint256"
						}
					],
					"name": "approve",
					"outputs": [
						{
							"internalType": "bool",
							"name": "",
							"type": "bool"
						}
					],
					"stateMutability": "nonpayable",
					"type": "function"
				},
				{
					"inputs": [
						{
							"internalType": "address",
							"name": "account",
							"type": "address"
						}
					],
					"name": "balanceOf",
					"outputs": [
						{
							"internalType": "uint256",
							"name": "",
							"type": "uint256"
						}
					],
					"stateMutability": "view",
					"type": "function"
				},
				{
					"inputs": [],
					"name": "decimals",
					"outputs": [
						{
							"internalType": "uint8",
							"name": "",
							"type": "uint8"
						}
					],
					"stateMutability": "view",
					"type": "function"
				},
				{
					"inputs": [
						{
							"internalType": "address",
							"name": "spender",
							"type": "address"
						},
						{
							"internalType": "uint256",
							"name": "subtractedValue",
							"type": "uint256"
						}
					],
					"name": "decreaseAllowance",
					"outputs": [
						{
							"internalType": "bool",
							"name": "",
							"type": "bool"
						}
					],
					"stateMutability": "nonpayable",
					"type": "function"
				},
				{
					"inputs": [
						{
							"internalType": "uint256",
							"name": "tAmount",
							"type": "uint256"
						}
					],
					"name": "deliver",
					"outputs": [],
					"stateMutability": "nonpayable",
					"type": "function"
				},
				{
					"inputs": [
						{
							"internalType": "address",
							"name": "account",
							"type": "address"
						}
					],
					"name": "excludeFromFee",
					"outputs": [],
					"stateMutability": "nonpayable",
					"type": "function"
				},
				{
					"inputs": [
						{
							"internalType": "address",
							"name": "account",
							"type": "address"
						}
					],
					"name": "excludeFromReward",
					"outputs": [],
					"stateMutability": "nonpayable",
					"type": "function"
				},
				{
					"inputs": [],
					"name": "geUnlockTime",
					"outputs": [
						{
							"internalType": "uint256",
							"name": "",
							"type": "uint256"
						}
					],
					"stateMutability": "view",
					"type": "function"
				},
				{
					"inputs": [
						{
							"internalType": "address",
							"name": "account",
							"type": "address"
						}
					],
					"name": "includeInFee",
					"outputs": [],
					"stateMutability": "nonpayable",
					"type": "function"
				},
				{
					"inputs": [
						{
							"internalType": "address",
							"name": "account",
							"type": "address"
						}
					],
					"name": "includeInReward",
					"outputs": [],
					"stateMutability": "nonpayable",
					"type": "function"
				},
				{
					"inputs": [
						{
							"internalType": "address",
							"name": "spender",
							"type": "address"
						},
						{
							"internalType": "uint256",
							"name": "addedValue",
							"type": "uint256"
						}
					],
					"name": "increaseAllowance",
					"outputs": [
						{
							"internalType": "bool",
							"name": "",
							"type": "bool"
						}
					],
					"stateMutability": "nonpayable",
					"type": "function"
				},
				{
					"inputs": [
						{
							"internalType": "address",
							"name": "account",
							"type": "address"
						}
					],
					"name": "isExcludedFromFee",
					"outputs": [
						{
							"internalType": "bool",
							"name": "",
							"type": "bool"
						}
					],
					"stateMutability": "view",
					"type": "function"
				},
				{
					"inputs": [
						{
							"internalType": "address",
							"name": "account",
							"type": "address"
						}
					],
					"name": "isExcludedFromReward",
					"outputs": [
						{
							"internalType": "bool",
							"name": "",
							"type": "bool"
						}
					],
					"stateMutability": "view",
					"type": "function"
				},
				{
					"inputs": [
						{
							"internalType": "uint256",
							"name": "time",
							"type": "uint256"
						}
					],
					"name": "lock",
					"outputs": [],
					"stateMutability": "nonpayable",
					"type": "function"
				},
				{
					"inputs": [],
					"name": "name",
					"outputs": [
						{
							"internalType": "string",
							"name": "",
							"type": "string"
						}
					],
					"stateMutability": "view",
					"type": "function"
				},
				{
					"inputs": [],
					"name": "owner",
					"outputs": [
						{
							"internalType": "address",
							"name": "",
							"type": "address"
						}
					],
					"stateMutability": "view",
					"type": "function"
				},
				{
					"inputs": [
						{
							"internalType": "uint256",
							"name": "tAmount",
							"type": "uint256"
						},
						{
							"internalType": "bool",
							"name": "deductTransferFee",
							"type": "bool"
						}
					],
					"name": "reflectionFromToken",
					"outputs": [
						{
							"internalType": "uint256",
							"name": "",
							"type": "uint256"
						}
					],
					"stateMutability": "view",
					"type": "function"
				},
				{
					"inputs": [],
					"name": "renounceOwnership",
					"outputs": [],
					"stateMutability": "nonpayable",
					"type": "function"
				},
				{
					"inputs": [
						{
							"internalType": "uint256",
							"name": "liquidityFee",
							"type": "uint256"
						}
					],
					"name": "setLiquidityFeePercent",
					"outputs": [],
					"stateMutability": "nonpayable",
					"type": "function"
				},
				{
					"inputs": [
						{
							"internalType": "uint256",
							"name": "maxTxPercent",
							"type": "uint256"
						}
					],
					"name": "setMaxTxPercent",
					"outputs": [],
					"stateMutability": "nonpayable",
					"type": "function"
				},
				{
					"inputs": [
						{
							"internalType": "bool",
							"name": "_enabled",
							"type": "bool"
						}
					],
					"name": "setSwapAndLiquifyEnabled",
					"outputs": [],
					"stateMutability": "nonpayable",
					"type": "function"
				},
				{
					"inputs": [
						{
							"internalType": "uint256",
							"name": "taxFee",
							"type": "uint256"
						}
					],
					"name": "setTaxFeePercent",
					"outputs": [],
					"stateMutability": "nonpayable",
					"type": "function"
				},
				{
					"inputs": [],
					"name": "swapAndLiquifyEnabled",
					"outputs": [
						{
							"internalType": "bool",
							"name": "",
							"type": "bool"
						}
					],
					"stateMutability": "view",
					"type": "function"
				},
				{
					"inputs": [],
					"name": "symbol",
					"outputs": [
						{
							"internalType": "string",
							"name": "",
							"type": "string"
						}
					],
					"stateMutability": "view",
					"type": "function"
				},
				{
					"inputs": [
						{
							"internalType": "uint256",
							"name": "rAmount",
							"type": "uint256"
						}
					],
					"name": "tokenFromReflection",
					"outputs": [
						{
							"internalType": "uint256",
							"name": "",
							"type": "uint256"
						}
					],
					"stateMutability": "view",
					"type": "function"
				},
				{
					"inputs": [],
					"name": "totalFees",
					"outputs": [
						{
							"internalType": "uint256",
							"name": "",
							"type": "uint256"
						}
					],
					"stateMutability": "view",
					"type": "function"
				},
				{
					"inputs": [],
					"name": "totalSupply",
					"outputs": [
						{
							"internalType": "uint256",
							"name": "",
							"type": "uint256"
						}
					],
					"stateMutability": "view",
					"type": "function"
				},
				{
					"inputs": [
						{
							"internalType": "address",
							"name": "recipient",
							"type": "address"
						},
						{
							"internalType": "uint256",
							"name": "amount",
							"type": "uint256"
						}
					],
					"name": "transfer",
					"outputs": [
						{
							"internalType": "bool",
							"name": "",
							"type": "bool"
						}
					],
					"stateMutability": "nonpayable",
					"type": "function"
				},
				{
					"inputs": [
						{
							"internalType": "address",
							"name": "sender",
							"type": "address"
						},
						{
							"internalType": "address",
							"name": "recipient",
							"type": "address"
						},
						{
							"internalType": "uint256",
							"name": "amount",
							"type": "uint256"
						}
					],
					"name": "transferFrom",
					"outputs": [
						{
							"internalType": "bool",
							"name": "",
							"type": "bool"
						}
					],
					"stateMutability": "nonpayable",
					"type": "function"
				},
				{
					"inputs": [
						{
							"internalType": "address",
							"name": "newOwner",
							"type": "address"
						}
					],
					"name": "transferOwnership",
					"outputs": [],
					"stateMutability": "nonpayable",
					"type": "function"
				},
				{
					"inputs": [],
					"name": "uniswapV2Pair",
					"outputs": [
						{
							"internalType": "address",
							"name": "",
							"type": "address"
						}
					],
					"stateMutability": "view",
					"type": "function"
				},
				{
					"inputs": [],
					"name": "uniswapV2Router",
					"outputs": [
						{
							"internalType": "contract IUniswapV2Router02",
							"name": "",
							"type": "address"
						}
					],
					"stateMutability": "view",
					"type": "function"
				},
				{
					"inputs": [],
					"name": "unlock",
					"outputs": [],
					"stateMutability": "nonpayable",
					"type": "function"
				},
				{
					"stateMutability": "payable",
					"type": "receive"
				}
			],
			"devdoc": {
				"kind": "dev",
				"methods": {
					"owner()": {
						"details": "Returns the address of the current owner."
					}
				},
				"version": 1
			},
			"evm": {
				"assembly": "    /* \"contracts/Pool/PoolPig.sol\":15130:33964  contract WorldStepToken is Context, IERC20, Ownable {... */\n  mstore(0x40, 0xc0)\n    /* \"contracts/Pool/PoolPig.sol\":15626:15668  0x8492cbd894686D7e98214541903c7BA6f94928D6 */\n  0x8492cbd894686d7e98214541903c7ba6f94928d6\n    /* \"contracts/Pool/PoolPig.sol\":15572:15669  address payable private _developmentAddress = payable(0x8492cbd894686D7e98214541903c7BA6f94928D6) */\n  0x09\n  exp(0x0100, 0x00)\n  dup2\n  sload\n  dup2\n  0xffffffffffffffffffffffffffffffffffffffff\n  mul\n  not\n  and\n  swap1\n  dup4\n  0xffffffffffffffffffffffffffffffffffffffff\n  and\n  mul\n  or\n  swap1\n  sstore\n  pop\n    /* \"contracts/Pool/PoolPig.sol\":15727:15769  0xa4eD7aa4eF5deB0A63e97d9Cb77445aE553feb1d */\n  0xa4ed7aa4ef5deb0a63e97d9cb77445ae553feb1d\n    /* \"contracts/Pool/PoolPig.sol\":15675:15770  address payable private _marketingAddress = payable(0xa4eD7aa4eF5deB0A63e97d9Cb77445aE553feb1d) */\n  0x0a\n  exp(0x0100, 0x00)\n  dup2\n  sload\n  dup2\n  0xffffffffffffffffffffffffffffffffffffffff\n  mul\n  not\n  and\n  swap1\n  dup4\n  0xffffffffffffffffffffffffffffffffffffffff\n  and\n  mul\n  or\n  swap1\n  sstore\n  pop\n    /* \"contracts/Pool/PoolPig.sol\":15822:15864  0xe061915592536656a92B9fd59e46b19eF920692F */\n  0xe061915592536656a92b9fd59e46b19ef920692f\n    /* \"contracts/Pool/PoolPig.sol\":15776:15865  address payable private _rewardPool = payable(0xe061915592536656a92B9fd59e46b19eF920692F) */\n  0x0b\n  exp(0x0100, 0x00)\n  dup2\n  sload\n  dup2\n  0xffffffffffffffffffffffffffffffffffffffff\n  mul\n  not\n  and\n  swap1\n  dup4\n  0xffffffffffffffffffffffffffffffffffffffff\n  and\n  mul\n  or\n  swap1\n  sstore\n  pop\n    /* \"contracts/Pool/PoolPig.sol\":15958:15976  1000000000 * 10**9 */\n  0x0de0b6b3a7640000\n    /* \"contracts/Pool/PoolPig.sol\":15915:15916  0 */\n  0x00\n    /* \"contracts/Pool/PoolPig.sol\":15906:15917  ~uint256(0) */\n  not\n    /* \"contracts/Pool/PoolPig.sol\":16016:16029  MAX % _tTotal */\n  dup2\n  tag_1\n  jumpi\n  invalid\ntag_1:\n  mod\n    /* \"contracts/Pool/PoolPig.sol\":15915:15916  0 */\n  0x00\n    /* \"contracts/Pool/PoolPig.sol\":15906:15917  ~uint256(0) */\n  not\n    /* \"contracts/Pool/PoolPig.sol\":16009:16030  MAX - (MAX % _tTotal) */\n  sub\n    /* \"contracts/Pool/PoolPig.sol\":15982:16031  uint256 private _rTotal = (MAX - (MAX % _tTotal)) */\n  0x0c\n  sstore\n    /* \"contracts/Pool/PoolPig.sol\":16070:16105  string private _name = \"World Step\" */\n  mload(0x40)\n  dup1\n  0x40\n  add\n  0x40\n  mstore\n  dup1\n  0x0a\n  dup2\n  mstore\n  0x20\n  add\n  0x576f726c64205374657000000000000000000000000000000000000000000000\n  dup2\n  mstore\n  pop\n  0x0e\n  swap1\n  dup1\n  mload\n  swap1\n  0x20\n  add\n  swap1\n  tag_2\n  swap3\n  swap2\n  swap1\n  tag_3\n  jump\t// in\ntag_2:\n  pop\n    /* \"contracts/Pool/PoolPig.sol\":16111:16141  string private _symbol = \"WSP\" */\n  mload(0x40)\n  dup1\n  0x40\n  add\n  0x40\n  mstore\n  dup1\n  0x03\n  dup2\n  mstore\n  0x20\n  add\n  0x5753500000000000000000000000000000000000000000000000000000000000\n  dup2\n  mstore\n  pop\n  0x0f\n  swap1\n  dup1\n  mload\n  swap1\n  0x20\n  add\n  swap1\n  tag_4\n  swap3\n  swap2\n  swap1\n  tag_3\n  jump\t// in\ntag_4:\n  pop\n    /* \"contracts/Pool/PoolPig.sol\":16173:16174  9 */\n  0x09\n    /* \"contracts/Pool/PoolPig.sol\":16147:16174  uint8 private _decimals = 9 */\n  0x10\n  exp(0x0100, 0x00)\n  dup2\n  sload\n  dup2\n  0xff\n  mul\n  not\n  and\n  swap1\n  dup4\n  0xff\n  and\n  mul\n  or\n  swap1\n  sstore\n  pop\n    /* \"contracts/Pool/PoolPig.sol\":16211:16212  2 */\n  0x02\n    /* \"contracts/Pool/PoolPig.sol\":16186:16212  uint256 public _taxFee = 2 */\n  0x11\n  sstore\n    /* \"contracts/Pool/PoolPig.sol\":16252:16259  _taxFee */\n  sload(0x11)\n    /* \"contracts/Pool/PoolPig.sol\":16218:16259  uint256 private _previousTaxFee = _taxFee */\n  0x12\n  sstore\n    /* \"contracts/Pool/PoolPig.sol\":16301:16302  3 */\n  0x03\n    /* \"contracts/Pool/PoolPig.sol\":16270:16302  uint256 public _liquidityFee = 3 */\n  0x13\n  sstore\n    /* \"contracts/Pool/PoolPig.sol\":16348:16361  _liquidityFee */\n  sload(0x13)\n    /* \"contracts/Pool/PoolPig.sol\":16308:16361  uint256 private _previousLiquidityFee = _liquidityFee */\n  0x14\n  sstore\n    /* \"contracts/Pool/PoolPig.sol\":16537:16541  true */\n  0x01\n    /* \"contracts/Pool/PoolPig.sol\":16501:16541  bool public swapAndLiquifyEnabled = true */\n  0x15\n  exp(0x0100, 0x01)\n  dup2\n  sload\n  dup2\n  0xff\n  mul\n  not\n  and\n  swap1\n  dup4\n  iszero\n  iszero\n  mul\n  or\n  swap1\n  sstore\n  pop\n    /* \"contracts/Pool/PoolPig.sol\":16569:16574  false */\n  0x00\n    /* \"contracts/Pool/PoolPig.sol\":16547:16574  bool initialLiqDone = false */\n  0x15\n  exp(0x0100, 0x02)\n  dup2\n  sload\n  dup2\n  0xff\n  mul\n  not\n  and\n  swap1\n  dup4\n  iszero\n  iszero\n  mul\n  or\n  swap1\n  sstore\n  pop\n    /* \"contracts/Pool/PoolPig.sol\":16615:16628  50000 * 10**9 */\n  0x2d79883d2000\n    /* \"contracts/Pool/PoolPig.sol\":16585:16628  uint256 public _maxTxAmount = 50000 * 10**9 */\n  0x16\n  sstore\n    /* \"contracts/Pool/PoolPig.sol\":16682:16692  2500*10**9 */\n  0x0246139ca800\n    /* \"contracts/Pool/PoolPig.sol\":16634:16692  uint256 private numTokensSellToAddToLiquidity = 2500*10**9 */\n  0x17\n  sstore\n    /* \"contracts/Pool/PoolPig.sol\":17073:17903  constructor (uint256 tokenAmount) public {... */\n  callvalue\n  dup1\n  iszero\n  tag_5\n  jumpi\n  0x00\n  dup1\n  revert\ntag_5:\n  pop\n  mload(0x40)\n  sub(codesize, bytecodeSize)\n  dup1\n  bytecodeSize\n  dup4\n  codecopy\n  dup2\n  dup2\n  add\n  0x40\n  mstore\n  0x20\n  dup2\n  lt\n  iszero\n  tag_6\n  jumpi\n  0x00\n  dup1\n  revert\ntag_6:\n  dup2\n  add\n  swap1\n  dup1\n  dup1\n  mload\n  swap1\n  0x20\n  add\n  swap1\n  swap3\n  swap2\n  swap1\n  pop\n  pop\n  pop\n    /* \"contracts/Pool/PoolPig.sol\":5630:5647  address msgSender */\n  0x00\n    /* \"contracts/Pool/PoolPig.sol\":5650:5662  _msgSender() */\n  tag_10\n    /* \"contracts/Pool/PoolPig.sol\":5650:5660  _msgSender */\n  shl(0x20, tag_11)\n    /* \"contracts/Pool/PoolPig.sol\":5650:5662  _msgSender() */\n  0x20\n  shr\n  jump\t// in\ntag_10:\n    /* \"contracts/Pool/PoolPig.sol\":5630:5662  address msgSender = _msgSender() */\n  swap1\n  pop\n    /* \"contracts/Pool/PoolPig.sol\":5681:5690  msgSender */\n  dup1\n    /* \"contracts/Pool/PoolPig.sol\":5672:5678  _owner */\n  0x00\n  dup1\n    /* \"contracts/Pool/PoolPig.sol\":5672:5690  _owner = msgSender */\n  0x0100\n  exp\n  dup2\n  sload\n  dup2\n  0xffffffffffffffffffffffffffffffffffffffff\n  mul\n  not\n  and\n  swap1\n  dup4\n  0xffffffffffffffffffffffffffffffffffffffff\n  and\n  mul\n  or\n  swap1\n  sstore\n  pop\n    /* \"contracts/Pool/PoolPig.sol\":5738:5747  msgSender */\n  dup1\n    /* \"contracts/Pool/PoolPig.sol\":5705:5748  OwnershipTransferred(address(0), msgSender) */\n  0xffffffffffffffffffffffffffffffffffffffff\n  and\n    /* \"contracts/Pool/PoolPig.sol\":5734:5735  0 */\n  0x00\n    /* \"contracts/Pool/PoolPig.sol\":5705:5748  OwnershipTransferred(address(0), msgSender) */\n  0xffffffffffffffffffffffffffffffffffffffff\n  and\n  0x8be0079c531659141344cd1fd0a4f28419497f9722a3daafe3b4186f6b6457e0\n  mload(0x40)\n  mload(0x40)\n  dup1\n  swap2\n  sub\n  swap1\n  log3\n    /* \"contracts/Pool/PoolPig.sol\":5596:5755  constructor () internal {... */\n  pop\n    /* \"contracts/Pool/PoolPig.sol\":17148:17155  _rTotal */\n  sload(0x0c)\n    /* \"contracts/Pool/PoolPig.sol\":17124:17131  _rOwned */\n  0x03\n    /* \"contracts/Pool/PoolPig.sol\":17124:17145  _rOwned[_msgSender()] */\n  0x00\n    /* \"contracts/Pool/PoolPig.sol\":17132:17144  _msgSender() */\n  tag_13\n    /* \"contracts/Pool/PoolPig.sol\":17132:17142  _msgSender */\n  shl(0x20, tag_11)\n    /* \"contracts/Pool/PoolPig.sol\":17132:17144  _msgSender() */\n  0x20\n  shr\n  jump\t// in\ntag_13:\n    /* \"contracts/Pool/PoolPig.sol\":17124:17145  _rOwned[_msgSender()] */\n  0xffffffffffffffffffffffffffffffffffffffff\n  and\n  0xffffffffffffffffffffffffffffffffffffffff\n  and\n  dup2\n  mstore\n  0x20\n  add\n  swap1\n  dup2\n  mstore\n  0x20\n  add\n  0x00\n  keccak256\n    /* \"contracts/Pool/PoolPig.sol\":17124:17155  _rOwned[_msgSender()] = _rTotal */\n  dup2\n  swap1\n  sstore\n  pop\n    /* \"contracts/Pool/PoolPig.sol\":17174:17209  IUniswapV2Router02 _uniswapV2Router */\n  0x00\n    /* \"contracts/Pool/PoolPig.sol\":17239:17281  0x9Ac64Cc6e4415144C455BD8E4837Fea55603e5c3 */\n  0x9ac64cc6e4415144c455bd8e4837fea55603e5c3\n    /* \"contracts/Pool/PoolPig.sol\":17174:17283  IUniswapV2Router02 _uniswapV2Router = IUniswapV2Router02(address(0x9Ac64Cc6e4415144C455BD8E4837Fea55603e5c3)) */\n  swap1\n  pop\n    /* \"contracts/Pool/PoolPig.sol\":17336:17352  _uniswapV2Router */\n  dup1\n    /* \"contracts/Pool/PoolPig.sol\":17336:17360  _uniswapV2Router.factory */\n  0xffffffffffffffffffffffffffffffffffffffff\n  and\n  0xc45a0155\n    /* \"contracts/Pool/PoolPig.sol\":17336:17362  _uniswapV2Router.factory() */\n  mload(0x40)\n  dup2\n  0xffffffff\n  and\n  0xe0\n  shl\n  dup2\n  mstore\n  0x04\n  add\n  0x20\n  mload(0x40)\n  dup1\n  dup4\n  sub\n  dup2\n  dup7\n  dup1\n  extcodesize\n  iszero\n  dup1\n  iszero\n  tag_14\n  jumpi\n  0x00\n  dup1\n  revert\ntag_14:\n  pop\n  gas\n  staticcall\n  iszero\n  dup1\n  iszero\n  tag_16\n  jumpi\n  returndatasize\n  0x00\n  dup1\n  returndatacopy\n  revert(0x00, returndatasize)\ntag_16:\n  pop\n  pop\n  pop\n  pop\n  mload(0x40)\n  returndatasize\n  0x20\n  dup2\n  lt\n  iszero\n  tag_17\n  jumpi\n  0x00\n  dup1\n  revert\ntag_17:\n  dup2\n  add\n  swap1\n  dup1\n  dup1\n  mload\n  swap1\n  0x20\n  add\n  swap1\n  swap3\n  swap2\n  swap1\n  pop\n  pop\n  pop\n    /* \"contracts/Pool/PoolPig.sol\":17318:17387  IUniswapV2Factory(_uniswapV2Router.factory())... */\n  0xffffffffffffffffffffffffffffffffffffffff\n  and\n  0xc9c65396\n    /* \"contracts/Pool/PoolPig.sol\":17396:17400  this */\n  address\n    /* \"contracts/Pool/PoolPig.sol\":17403:17419  _uniswapV2Router */\n  dup4\n    /* \"contracts/Pool/PoolPig.sol\":17403:17424  _uniswapV2Router.WETH */\n  0xffffffffffffffffffffffffffffffffffffffff\n  and\n  0xad5c4648\n    /* \"contracts/Pool/PoolPig.sol\":17403:17426  _uniswapV2Router.WETH() */\n  mload(0x40)\n  dup2\n  0xffffffff\n  and\n  0xe0\n  shl\n  dup2\n  mstore\n  0x04\n  add\n  0x20\n  mload(0x40)\n  dup1\n  dup4\n  sub\n  dup2\n  dup7\n  dup1\n  extcodesize\n  iszero\n  dup1\n  iszero\n  tag_18\n  jumpi\n  0x00\n  dup1\n  revert\ntag_18:\n  pop\n  gas\n  staticcall\n  iszero\n  dup1\n  iszero\n  tag_20\n  jumpi\n  returndatasize\n  0x00\n  dup1\n  returndatacopy\n  revert(0x00, returndatasize)\ntag_20:\n  pop\n  pop\n  pop\n  pop\n  mload(0x40)\n  returndatasize\n  0x20\n  dup2\n  lt\n  iszero\n  tag_21\n  jumpi\n  0x00\n  dup1\n  revert\ntag_21:\n  dup2\n  add\n  swap1\n  dup1\n  dup1\n  mload\n  swap1\n  0x20\n  add\n  swap1\n  swap3\n  swap2\n  swap1\n  pop\n  pop\n  pop\n    /* \"contracts/Pool/PoolPig.sol\":17318:17427  IUniswapV2Factory(_uniswapV2Router.factory())... */\n  mload(0x40)\n  dup4\n  0xffffffff\n  and\n  0xe0\n  shl\n  dup2\n  mstore\n  0x04\n  add\n  dup1\n  dup4\n  0xffffffffffffffffffffffffffffffffffffffff\n  and\n  dup2\n  mstore\n  0x20\n  add\n  dup3\n  0xffffffffffffffffffffffffffffffffffffffff\n  and\n  dup2\n  mstore\n  0x20\n  add\n  swap3\n  pop\n  pop\n  pop\n  0x20\n  mload(0x40)\n  dup1\n  dup4\n  sub\n  dup2\n  0x00\n  dup8\n  dup1\n  extcodesize\n  iszero\n  dup1\n  iszero\n  tag_22\n  jumpi\n  0x00\n  dup1\n  revert\ntag_22:\n  pop\n  gas\n  call\n  iszero\n  dup1\n  iszero\n  tag_24\n  jumpi\n  returndatasize\n  0x00\n  dup1\n  returndatacopy\n  revert(0x00, returndatasize)\ntag_24:\n  pop\n  pop\n  pop\n  pop\n  mload(0x40)\n  returndatasize\n  0x20\n  dup2\n  lt\n  iszero\n  tag_25\n  jumpi\n  0x00\n  dup1\n  revert\ntag_25:\n  dup2\n  add\n  swap1\n  dup1\n  dup1\n  mload\n  swap1\n  0x20\n  add\n  swap1\n  swap3\n  swap2\n  swap1\n  pop\n  pop\n  pop\n    /* \"contracts/Pool/PoolPig.sol\":17302:17427  uniswapV2Pair = IUniswapV2Factory(_uniswapV2Router.factory())... */\n  0xffffffffffffffffffffffffffffffffffffffff\n  and\n  0xa0\n  dup2\n  0xffffffffffffffffffffffffffffffffffffffff\n  and\n  0x60\n  shl\n  dup2\n  mstore\n  pop\n  pop\n    /* \"contracts/Pool/PoolPig.sol\":17506:17522  _uniswapV2Router */\n  dup1\n    /* \"contracts/Pool/PoolPig.sol\":17488:17522  uniswapV2Router = _uniswapV2Router */\n  0xffffffffffffffffffffffffffffffffffffffff\n  and\n  0x80\n  dup2\n  0xffffffffffffffffffffffffffffffffffffffff\n  and\n  0x60\n  shl\n  dup2\n  mstore\n  pop\n  pop\n    /* \"contracts/Pool/PoolPig.sol\":17622:17626  true */\n  0x01\n    /* \"contracts/Pool/PoolPig.sol\":17592:17610  _isExcludedFromFee */\n  0x06\n    /* \"contracts/Pool/PoolPig.sol\":17592:17619  _isExcludedFromFee[owner()] */\n  0x00\n    /* \"contracts/Pool/PoolPig.sol\":17611:17618  owner() */\n  tag_26\n    /* \"contracts/Pool/PoolPig.sol\":17611:17616  owner */\n  shl(0x20, tag_27)\n    /* \"contracts/Pool/PoolPig.sol\":17611:17618  owner() */\n  0x20\n  shr\n  jump\t// in\ntag_26:\n    /* \"contracts/Pool/PoolPig.sol\":17592:17619  _isExcludedFromFee[owner()] */\n  0xffffffffffffffffffffffffffffffffffffffff\n  and\n  0xffffffffffffffffffffffffffffffffffffffff\n  and\n  dup2\n  mstore\n  0x20\n  add\n  swap1\n  dup2\n  mstore\n  0x20\n  add\n  0x00\n  keccak256\n  0x00\n    /* \"contracts/Pool/PoolPig.sol\":17592:17626  _isExcludedFromFee[owner()] = true */\n  0x0100\n  exp\n  dup2\n  sload\n  dup2\n  0xff\n  mul\n  not\n  and\n  swap1\n  dup4\n  iszero\n  iszero\n  mul\n  or\n  swap1\n  sstore\n  pop\n    /* \"contracts/Pool/PoolPig.sol\":17672:17676  true */\n  0x01\n    /* \"contracts/Pool/PoolPig.sol\":17636:17654  _isExcludedFromFee */\n  0x06\n    /* \"contracts/Pool/PoolPig.sol\":17636:17669  _isExcludedFromFee[address(this)] */\n  0x00\n    /* \"contracts/Pool/PoolPig.sol\":17663:17667  this */\n  address\n    /* \"contracts/Pool/PoolPig.sol\":17636:17669  _isExcludedFromFee[address(this)] */\n  0xffffffffffffffffffffffffffffffffffffffff\n  and\n  0xffffffffffffffffffffffffffffffffffffffff\n  and\n  dup2\n  mstore\n  0x20\n  add\n  swap1\n  dup2\n  mstore\n  0x20\n  add\n  0x00\n  keccak256\n  0x00\n    /* \"contracts/Pool/PoolPig.sol\":17636:17676  _isExcludedFromFee[address(this)] = true */\n  0x0100\n  exp\n  dup2\n  sload\n  dup2\n  0xff\n  mul\n  not\n  and\n  swap1\n  dup4\n  iszero\n  iszero\n  mul\n  or\n  swap1\n  sstore\n  pop\n    /* \"contracts/Pool/PoolPig.sol\":17728:17732  true */\n  0x01\n    /* \"contracts/Pool/PoolPig.sol\":17686:17704  _isExcludedFromFee */\n  0x06\n    /* \"contracts/Pool/PoolPig.sol\":17686:17725  _isExcludedFromFee[_developmentAddress] */\n  0x00\n    /* \"contracts/Pool/PoolPig.sol\":17705:17724  _developmentAddress */\n  0x09\n  0x00\n  swap1\n  sload\n  swap1\n  0x0100\n  exp\n  swap1\n  div\n  0xffffffffffffffffffffffffffffffffffffffff\n  and\n    /* \"contracts/Pool/PoolPig.sol\":17686:17725  _isExcludedFromFee[_developmentAddress] */\n  0xffffffffffffffffffffffffffffffffffffffff\n  and\n  0xffffffffffffffffffffffffffffffffffffffff\n  and\n  dup2\n  mstore\n  0x20\n  add\n  swap1\n  dup2\n  mstore\n  0x20\n  add\n  0x00\n  keccak256\n  0x00\n    /* \"contracts/Pool/PoolPig.sol\":17686:17732  _isExcludedFromFee[_developmentAddress] = true */\n  0x0100\n  exp\n  dup2\n  sload\n  dup2\n  0xff\n  mul\n  not\n  and\n  swap1\n  dup4\n  iszero\n  iszero\n  mul\n  or\n  swap1\n  sstore\n  pop\n    /* \"contracts/Pool/PoolPig.sol\":17782:17786  true */\n  0x01\n    /* \"contracts/Pool/PoolPig.sol\":17742:17760  _isExcludedFromFee */\n  0x06\n    /* \"contracts/Pool/PoolPig.sol\":17742:17779  _isExcludedFromFee[_marketingAddress] */\n  0x00\n    /* \"contracts/Pool/PoolPig.sol\":17761:17778  _marketingAddress */\n  0x0a\n  0x00\n  swap1\n  sload\n  swap1\n  0x0100\n  exp\n  swap1\n  div\n  0xffffffffffffffffffffffffffffffffffffffff\n  and\n    /* \"contracts/Pool/PoolPig.sol\":17742:17779  _isExcludedFromFee[_marketingAddress] */\n  0xffffffffffffffffffffffffffffffffffffffff\n  and\n  0xffffffffffffffffffffffffffffffffffffffff\n  and\n  dup2\n  mstore\n  0x20\n  add\n  swap1\n  dup2\n  mstore\n  0x20\n  add\n  0x00\n  keccak256\n  0x00\n    /* \"contracts/Pool/PoolPig.sol\":17742:17786  _isExcludedFromFee[_marketingAddress] = true */\n  0x0100\n  exp\n  dup2\n  sload\n  dup2\n  0xff\n  mul\n  not\n  and\n  swap1\n  dup4\n  iszero\n  iszero\n  mul\n  or\n  swap1\n  sstore\n  pop\n    /* \"contracts/Pool/PoolPig.sol\":17797:17829  addInitialLiquidity(tokenAmount) */\n  tag_28\n    /* \"contracts/Pool/PoolPig.sol\":17817:17828  tokenAmount */\n  dup3\n    /* \"contracts/Pool/PoolPig.sol\":17797:17816  addInitialLiquidity */\n  shl(0x20, tag_29)\n    /* \"contracts/Pool/PoolPig.sol\":17797:17829  addInitialLiquidity(tokenAmount) */\n  0x20\n  shr\n  jump\t// in\ntag_28:\n    /* \"contracts/Pool/PoolPig.sol\":17874:17886  _msgSender() */\n  tag_30\n    /* \"contracts/Pool/PoolPig.sol\":17874:17884  _msgSender */\n  shl(0x20, tag_11)\n    /* \"contracts/Pool/PoolPig.sol\":17874:17886  _msgSender() */\n  0x20\n  shr\n  jump\t// in\ntag_30:\n    /* \"contracts/Pool/PoolPig.sol\":17853:17896  Transfer(address(0), _msgSender(), _tTotal) */\n  0xffffffffffffffffffffffffffffffffffffffff\n  and\n    /* \"contracts/Pool/PoolPig.sol\":17870:17871  0 */\n  0x00\n    /* \"contracts/Pool/PoolPig.sol\":17853:17896  Transfer(address(0), _msgSender(), _tTotal) */\n  0xffffffffffffffffffffffffffffffffffffffff\n  and\n  0xddf252ad1be2c89b69c2b068fc378daa952ba7f163c4a11628f55a4df523b3ef\n    /* \"contracts/Pool/PoolPig.sol\":15958:15976  1000000000 * 10**9 */\n  0x0de0b6b3a7640000\n    /* \"contracts/Pool/PoolPig.sol\":17853:17896  Transfer(address(0), _msgSender(), _tTotal) */\n  mload(0x40)\n  dup1\n  dup3\n  dup2\n  mstore\n  0x20\n  add\n  swap2\n  pop\n  pop\n  mload(0x40)\n  dup1\n  swap2\n  sub\n  swap1\n  log3\n    /* \"contracts/Pool/PoolPig.sol\":17073:17903  constructor (uint256 tokenAmount) public {... */\n  pop\n  pop\n    /* \"contracts/Pool/PoolPig.sol\":15130:33964  contract WorldStepToken is Context, IERC20, Ownable {... */\n  jump(tag_31)\n    /* \"contracts/Pool/PoolPig.sol\":2255:2359  function _msgSender() internal view virtual returns (address payable) {... */\ntag_11:\n    /* \"contracts/Pool/PoolPig.sol\":2308:2323  address payable */\n  0x00\n    /* \"contracts/Pool/PoolPig.sol\":2342:2352  msg.sender */\n  caller\n    /* \"contracts/Pool/PoolPig.sol\":2335:2352  return msg.sender */\n  swap1\n  pop\n    /* \"contracts/Pool/PoolPig.sol\":2255:2359  function _msgSender() internal view virtual returns (address payable) {... */\n  swap1\n  jump\t// out\n    /* \"contracts/Pool/PoolPig.sol\":5831:5908  function owner() public view returns (address) {... */\ntag_27:\n    /* \"contracts/Pool/PoolPig.sol\":5869:5876  address */\n  0x00\n    /* \"contracts/Pool/PoolPig.sol\":5895:5901  _owner */\n  dup1\n  0x00\n  swap1\n  sload\n  swap1\n  0x0100\n  exp\n  swap1\n  div\n  0xffffffffffffffffffffffffffffffffffffffff\n  and\n    /* \"contracts/Pool/PoolPig.sol\":5888:5901  return _owner */\n  swap1\n  pop\n    /* \"contracts/Pool/PoolPig.sol\":5831:5908  function owner() public view returns (address) {... */\n  swap1\n  jump\t// out\n    /* \"contracts/Pool/PoolPig.sol\":23423:24173  function addInitialLiquidity(... */\ntag_29:\n    /* \"contracts/Pool/PoolPig.sol\":6045:6057  _msgSender() */\n  tag_35\n    /* \"contracts/Pool/PoolPig.sol\":6045:6055  _msgSender */\n  shl(0x20, tag_11)\n    /* \"contracts/Pool/PoolPig.sol\":6045:6057  _msgSender() */\n  0x20\n  shr\n  jump\t// in\ntag_35:\n    /* \"contracts/Pool/PoolPig.sol\":6035:6057  _owner == _msgSender() */\n  0xffffffffffffffffffffffffffffffffffffffff\n  and\n    /* \"contracts/Pool/PoolPig.sol\":6035:6041  _owner */\n  0x00\n  dup1\n  sload\n  swap1\n  0x0100\n  exp\n  swap1\n  div\n  0xffffffffffffffffffffffffffffffffffffffff\n  and\n    /* \"contracts/Pool/PoolPig.sol\":6035:6057  _owner == _msgSender() */\n  0xffffffffffffffffffffffffffffffffffffffff\n  and\n  eq\n    /* \"contracts/Pool/PoolPig.sol\":6027:6094  require(_owner == _msgSender(), \"Ownable: caller is not the owner\") */\n  tag_36\n  jumpi\n  mload(0x40)\n  0x08c379a000000000000000000000000000000000000000000000000000000000\n  dup2\n  mstore\n  0x04\n  add\n  dup1\n  dup1\n  0x20\n  add\n  dup3\n  dup2\n  sub\n  dup3\n  mstore\n  0x20\n  dup2\n  mstore\n  0x20\n  add\n  dup1\n  0x4f776e61626c653a2063616c6c6572206973206e6f7420746865206f776e6572\n  dup2\n  mstore\n  pop\n  0x20\n  add\n  swap2\n  pop\n  pop\n  mload(0x40)\n  dup1\n  swap2\n  sub\n  swap1\n  revert\ntag_36:\n    /* \"contracts/Pool/PoolPig.sol\":23739:23771  IUniswapV2Router02 pancakeRouter */\n  0x00\n    /* \"contracts/Pool/PoolPig.sol\":23801:23843  0x9Ac64Cc6e4415144C455BD8E4837Fea55603e5c3 */\n  0x9ac64cc6e4415144c455bd8e4837fea55603e5c3\n    /* \"contracts/Pool/PoolPig.sol\":23739:23845  IUniswapV2Router02 pancakeRouter = IUniswapV2Router02(address(0x9Ac64Cc6e4415144C455BD8E4837Fea55603e5c3)) */\n  swap1\n  pop\n    /* \"contracts/Pool/PoolPig.sol\":23884:23897  pancakeRouter */\n  dup1\n    /* \"contracts/Pool/PoolPig.sol\":23884:23913  pancakeRouter.addLiquidityETH */\n  0xffffffffffffffffffffffffffffffffffffffff\n  and\n  0xf305d719\n    /* \"contracts/Pool/PoolPig.sol\":23921:23930  msg.value */\n  callvalue\n    /* \"contracts/Pool/PoolPig.sol\":23953:23957  this */\n  address\n    /* \"contracts/Pool/PoolPig.sol\":23972:23983  tokenAmount */\n  dup6\n    /* \"contracts/Pool/PoolPig.sol\":23997:23998  0 */\n  0x00\n    /* \"contracts/Pool/PoolPig.sol\":24039:24040  0 */\n  dup1\n    /* \"contracts/Pool/PoolPig.sol\":24081:24088  owner() */\n  tag_38\n    /* \"contracts/Pool/PoolPig.sol\":24081:24086  owner */\n  shl(0x20, tag_27)\n    /* \"contracts/Pool/PoolPig.sol\":24081:24088  owner() */\n  0x20\n  shr\n  jump\t// in\ntag_38:\n    /* \"contracts/Pool/PoolPig.sol\":24120:24123  360 */\n  0x0168\n    /* \"contracts/Pool/PoolPig.sol\":24102:24117  block.timestamp */\n  timestamp\n    /* \"contracts/Pool/PoolPig.sol\":24102:24123  block.timestamp + 360 */\n  add\n    /* \"contracts/Pool/PoolPig.sol\":23884:24133  pancakeRouter.addLiquidityETH{value: msg.value}(... */\n  mload(0x40)\n  dup9\n  0xffffffff\n  and\n  0xe0\n  shl\n  dup2\n  mstore\n  0x04\n  add\n  dup1\n  dup8\n  0xffffffffffffffffffffffffffffffffffffffff\n  and\n  dup2\n  mstore\n  0x20\n  add\n  dup7\n  dup2\n  mstore\n  0x20\n  add\n  dup6\n  dup2\n  mstore\n  0x20\n  add\n  dup5\n  dup2\n  mstore\n  0x20\n  add\n  dup4\n  0xffffffffffffffffffffffffffffffffffffffff\n  and\n  dup2\n  mstore\n  0x20\n  add\n  dup3\n  dup2\n  mstore\n  0x20\n  add\n  swap7\n  pop\n  pop\n  pop\n  pop\n  pop\n  pop\n  pop\n  0x60\n  mload(0x40)\n  dup1\n  dup4\n  sub\n  dup2\n  dup6\n  dup9\n  dup1\n  extcodesize\n  iszero\n  dup1\n  iszero\n  tag_39\n  jumpi\n  0x00\n  dup1\n  revert\ntag_39:\n  pop\n  gas\n  call\n  iszero\n  dup1\n  iszero\n  tag_41\n  jumpi\n  returndatasize\n  0x00\n  dup1\n  returndatacopy\n  revert(0x00, returndatasize)\ntag_41:\n  pop\n  pop\n  pop\n  pop\n  pop\n  mload(0x40)\n  returndatasize\n  0x60\n  dup2\n  lt\n  iszero\n  tag_42\n  jumpi\n  0x00\n  dup1\n  revert\ntag_42:\n  dup2\n  add\n  swap1\n  dup1\n  dup1\n  mload\n  swap1\n  0x20\n  add\n  swap1\n  swap3\n  swap2\n  swap1\n  dup1\n  mload\n  swap1\n  0x20\n  add\n  swap1\n  swap3\n  swap2\n  swap1\n  dup1\n  mload\n  swap1\n  0x20\n  add\n  swap1\n  swap3\n  swap2\n  swap1\n  pop\n  pop\n  pop\n  pop\n  pop\n  pop\n    /* \"contracts/Pool/PoolPig.sol\":24161:24165  true */\n  0x01\n    /* \"contracts/Pool/PoolPig.sol\":24144:24158  initialLiqDone */\n  0x15\n  0x02\n    /* \"contracts/Pool/PoolPig.sol\":24144:24165  initialLiqDone = true */\n  0x0100\n  exp\n  dup2\n  sload\n  dup2\n  0xff\n  mul\n  not\n  and\n  swap1\n  dup4\n  iszero\n  iszero\n  mul\n  or\n  swap1\n  sstore\n  pop\n    /* \"contracts/Pool/PoolPig.sol\":6104:6105  _ */\n  pop\n    /* \"contracts/Pool/PoolPig.sol\":23423:24173  function addInitialLiquidity(... */\n  pop\n  jump\t// out\n    /* \"contracts/Pool/PoolPig.sol\":15130:33964  contract WorldStepToken is Context, IERC20, Ownable {... */\ntag_3:\n  dup3\n  dup1\n  sload\n  0x01\n  dup2\n  0x01\n  and\n  iszero\n  0x0100\n  mul\n  sub\n  and\n  0x02\n  swap1\n  div\n  swap1\n  0x00\n  mstore\n  keccak256(0x00, 0x20)\n  swap1\n  0x1f\n  add\n  0x20\n  swap1\n  div\n  dup2\n  add\n  swap3\n  dup3\n  0x1f\n  lt\n  tag_44\n  jumpi\n  dup1\n  mload\n  not(0xff)\n  and\n  dup4\n  dup1\n  add\n  or\n  dup6\n  sstore\n  jump(tag_43)\ntag_44:\n  dup3\n  dup1\n  add\n  0x01\n  add\n  dup6\n  sstore\n  dup3\n  iszero\n  tag_43\n  jumpi\n  swap2\n  dup3\n  add\ntag_45:\n  dup3\n  dup2\n  gt\n  iszero\n  tag_46\n  jumpi\n  dup3\n  mload\n  dup3\n  sstore\n  swap2\n  0x20\n  add\n  swap2\n  swap1\n  0x01\n  add\n  swap1\n  jump(tag_45)\ntag_46:\ntag_43:\n  pop\n  swap1\n  pop\n  tag_47\n  swap2\n  swap1\n  tag_48\n  jump\t// in\ntag_47:\n  pop\n  swap1\n  jump\t// out\ntag_48:\ntag_49:\n  dup1\n  dup3\n  gt\n  iszero\n  tag_50\n  jumpi\n  0x00\n  dup2\n  0x00\n  swap1\n  sstore\n  pop\n  0x01\n  add\n  jump(tag_49)\ntag_50:\n  pop\n  swap1\n  jump\t// out\ntag_31:\n  shr(0x60, mload(0x80))\n  shr(0x60, mload(0xa0))\n  codecopy(0x00, dataOffset(sub_0), dataSize(sub_0))\n  assignImmutable(\"0x56d1aacedfc7d536224f9771bf9213a087360049f74dcef1ba0633f85c459fc6\")\n  assignImmutable(\"0xdfbf0bb877c2c5ca067d8597311506e24b894aa65a6fe980502f7e7b5c70fa94\")\n  return(0x00, dataSize(sub_0))\nstop\n\nsub_0: assembly {\n        /* \"contracts/Pool/PoolPig.sol\":15130:33964  contract WorldStepToken is Context, IERC20, Ownable {... */\n      mstore(0x40, 0x80)\n      jumpi(tag_1, lt(calldatasize, 0x04))\n      shr(0xe0, calldataload(0x00))\n      dup1\n      0x5342acb4\n      gt\n      tag_41\n      jumpi\n      dup1\n      0xa457c2d7\n      gt\n      tag_42\n      jumpi\n      dup1\n      0xd543dbeb\n      gt\n      tag_43\n      jumpi\n      dup1\n      0xd543dbeb\n      eq\n      tag_36\n      jumpi\n      dup1\n      0xdd467064\n      eq\n      tag_37\n      jumpi\n      dup1\n      0xdd62ed3e\n      eq\n      tag_38\n      jumpi\n      dup1\n      0xea2f0b37\n      eq\n      tag_39\n      jumpi\n      dup1\n      0xf2fde38b\n      eq\n      tag_40\n      jumpi\n      jump(tag_2)\n    tag_43:\n      dup1\n      0xa457c2d7\n      eq\n      tag_31\n      jumpi\n      dup1\n      0xa69df4b5\n      eq\n      tag_32\n      jumpi\n      dup1\n      0xa9059cbb\n      eq\n      tag_33\n      jumpi\n      dup1\n      0xb6c52324\n      eq\n      tag_34\n      jumpi\n      dup1\n      0xc49b9a80\n      eq\n      tag_35\n      jumpi\n      jump(tag_2)\n    tag_42:\n      dup1\n      0x7d1db4a5\n      gt\n      tag_44\n      jumpi\n      dup1\n      0x7d1db4a5\n      eq\n      tag_26\n      jumpi\n      dup1\n      0x88f82020\n      eq\n      tag_27\n      jumpi\n      dup1\n      0x8da5cb5b\n      eq\n      tag_28\n      jumpi\n      dup1\n      0x8ee88c53\n      eq\n      tag_29\n      jumpi\n      dup1\n      0x95d89b41\n      eq\n      tag_30\n      jumpi\n      jump(tag_2)\n    tag_44:\n      dup1\n      0x5342acb4\n      eq\n      tag_22\n      jumpi\n      dup1\n      0x6bc87c3a\n      eq\n      tag_23\n      jumpi\n      dup1\n      0x70a08231\n      eq\n      tag_24\n      jumpi\n      dup1\n      0x715018a6\n      eq\n      tag_25\n      jumpi\n      jump(tag_2)\n    tag_41:\n      dup1\n      0x3685d419\n      gt\n      tag_45\n      jumpi\n      dup1\n      0x437823ec\n      gt\n      tag_46\n      jumpi\n      dup1\n      0x437823ec\n      eq\n      tag_17\n      jumpi\n      dup1\n      0x4549b039\n      eq\n      tag_18\n      jumpi\n      dup1\n      0x49bd5a5e\n      eq\n      tag_19\n      jumpi\n      dup1\n      0x4a74bb02\n      eq\n      tag_20\n      jumpi\n      dup1\n      0x52390c02\n      eq\n      tag_21\n      jumpi\n      jump(tag_2)\n    tag_46:\n      dup1\n      0x3685d419\n      eq\n      tag_12\n      jumpi\n      dup1\n      0x39509351\n      eq\n      tag_13\n      jumpi\n      dup1\n      0x3b124fe7\n      eq\n      tag_14\n      jumpi\n      dup1\n      0x3bd5d173\n      eq\n      tag_15\n      jumpi\n      dup1\n      0x41a22cc2\n      eq\n      tag_16\n      jumpi\n      jump(tag_2)\n    tag_45:\n      dup1\n      0x1694505e\n      gt\n      tag_47\n      jumpi\n      dup1\n      0x1694505e\n      eq\n      tag_7\n      jumpi\n      dup1\n      0x18160ddd\n      eq\n      tag_8\n      jumpi\n      dup1\n      0x23b872dd\n      eq\n      tag_9\n      jumpi\n      dup1\n      0x2d838119\n      eq\n      tag_10\n      jumpi\n      dup1\n      0x313ce567\n      eq\n      tag_11\n      jumpi\n      jump(tag_2)\n    tag_47:\n      dup1\n      0x061c82d0\n      eq\n      tag_3\n      jumpi\n      dup1\n      0x06fdde03\n      eq\n      tag_4\n      jumpi\n      dup1\n      0x095ea7b3\n      eq\n      tag_5\n      jumpi\n      dup1\n      0x13114a9d\n      eq\n      tag_6\n      jumpi\n      jump(tag_2)\n    tag_1:\n      jumpi(tag_2, calldatasize)\n      stop\n    tag_2:\n      0x00\n      dup1\n      revert\n        /* \"contracts/Pool/PoolPig.sol\":22844:22940  function setTaxFeePercent(uint256 taxFee) external onlyOwner() {... */\n    tag_3:\n      callvalue\n      dup1\n      iszero\n      tag_50\n      jumpi\n      0x00\n      dup1\n      revert\n    tag_50:\n      pop\n      tag_51\n      0x04\n      dup1\n      calldatasize\n      sub\n      0x20\n      dup2\n      lt\n      iszero\n      tag_52\n      jumpi\n      0x00\n      dup1\n      revert\n    tag_52:\n      dup2\n      add\n      swap1\n      dup1\n      dup1\n      calldataload\n      swap1\n      0x20\n      add\n      swap1\n      swap3\n      swap2\n      swap1\n      pop\n      pop\n      pop\n      tag_53\n      jump\t// in\n    tag_51:\n      stop\n        /* \"contracts/Pool/PoolPig.sol\":17909:17990  function name() public view returns (string memory) {... */\n    tag_4:\n      callvalue\n      dup1\n      iszero\n      tag_54\n      jumpi\n      0x00\n      dup1\n      revert\n    tag_54:\n      pop\n      tag_55\n      tag_56\n      jump\t// in\n    tag_55:\n      mload(0x40)\n      dup1\n      dup1\n      0x20\n      add\n      dup3\n      dup2\n      sub\n      dup3\n      mstore\n      dup4\n      dup2\n      dup2\n      mload\n      dup2\n      mstore\n      0x20\n      add\n      swap2\n      pop\n      dup1\n      mload\n      swap1\n      0x20\n      add\n      swap1\n      dup1\n      dup4\n      dup4\n      0x00\n    tag_57:\n      dup4\n      dup2\n      lt\n      iszero\n      tag_59\n      jumpi\n      dup1\n      dup3\n      add\n      mload\n      dup2\n      dup5\n      add\n      mstore\n      0x20\n      dup2\n      add\n      swap1\n      pop\n      jump(tag_57)\n    tag_59:\n      pop\n      pop\n      pop\n      pop\n      swap1\n      pop\n      swap1\n      dup2\n      add\n      swap1\n      0x1f\n      and\n      dup1\n      iszero\n      tag_60\n      jumpi\n      dup1\n      dup3\n      sub\n      dup1\n      mload\n      0x01\n      dup4\n      0x20\n      sub\n      0x0100\n      exp\n      sub\n      not\n      and\n      dup2\n      mstore\n      0x20\n      add\n      swap2\n      pop\n    tag_60:\n      pop\n      swap3\n      pop\n      pop\n      pop\n      mload(0x40)\n      dup1\n      swap2\n      sub\n      swap1\n      return\n        /* \"contracts/Pool/PoolPig.sol\":18791:18949  function approve(address spender, uint256 amount) public override returns (bool) {... */\n    tag_5:\n      callvalue\n      dup1\n      iszero\n      tag_61\n      jumpi\n      0x00\n      dup1\n      revert\n    tag_61:\n      pop\n      tag_62\n      0x04\n      dup1\n      calldatasize\n      sub\n      0x40\n      dup2\n      lt\n      iszero\n      tag_63\n      jumpi\n      0x00\n      dup1\n      revert\n    tag_63:\n      dup2\n      add\n      swap1\n      dup1\n      dup1\n      calldataload\n      0xffffffffffffffffffffffffffffffffffffffff\n      and\n      swap1\n      0x20\n      add\n      swap1\n      swap3\n      swap2\n      swap1\n      dup1\n      calldataload\n      swap1\n      0x20\n      add\n      swap1\n      swap3\n      swap2\n      swap1\n      pop\n      pop\n      pop\n      tag_64\n      jump\t// in\n    tag_62:\n      mload(0x40)\n      dup1\n      dup3\n      iszero\n      iszero\n      dup2\n      mstore\n      0x20\n      add\n      swap2\n      pop\n      pop\n      mload(0x40)\n      dup1\n      swap2\n      sub\n      swap1\n      return\n        /* \"contracts/Pool/PoolPig.sol\":19887:19972  function totalFees() public view returns (uint256) {... */\n    tag_6:\n      callvalue\n      dup1\n      iszero\n      tag_65\n      jumpi\n      0x00\n      dup1\n      revert\n    tag_65:\n      pop\n      tag_66\n      tag_67\n      jump\t// in\n    tag_66:\n      mload(0x40)\n      dup1\n      dup3\n      dup2\n      mstore\n      0x20\n      add\n      swap2\n      pop\n      pop\n      mload(0x40)\n      dup1\n      swap2\n      sub\n      swap1\n      return\n        /* \"contracts/Pool/PoolPig.sol\":16368:16419  IUniswapV2Router02 public immutable uniswapV2Router */\n    tag_7:\n      callvalue\n      dup1\n      iszero\n      tag_68\n      jumpi\n      0x00\n      dup1\n      revert\n    tag_68:\n      pop\n      tag_69\n      tag_70\n      jump\t// in\n    tag_69:\n      mload(0x40)\n      dup1\n      dup3\n      0xffffffffffffffffffffffffffffffffffffffff\n      and\n      dup2\n      mstore\n      0x20\n      add\n      swap2\n      pop\n      pop\n      mload(0x40)\n      dup1\n      swap2\n      sub\n      swap1\n      return\n        /* \"contracts/Pool/PoolPig.sol\":18174:18267  function totalSupply() public view override returns (uint256) {... */\n    tag_8:\n      callvalue\n      dup1\n      iszero\n      tag_71\n      jumpi\n      0x00\n      dup1\n      revert\n    tag_71:\n      pop\n      tag_72\n      tag_73\n      jump\t// in\n    tag_72:\n      mload(0x40)\n      dup1\n      dup3\n      dup2\n      mstore\n      0x20\n      add\n      swap2\n      pop\n      pop\n      mload(0x40)\n      dup1\n      swap2\n      sub\n      swap1\n      return\n        /* \"contracts/Pool/PoolPig.sol\":18955:19264  function transferFrom(address sender, address recipient, uint256 amount) public override returns (bool) {... */\n    tag_9:\n      callvalue\n      dup1\n      iszero\n      tag_74\n      jumpi\n      0x00\n      dup1\n      revert\n    tag_74:\n      pop\n      tag_75\n      0x04\n      dup1\n      calldatasize\n      sub\n      0x60\n      dup2\n      lt\n      iszero\n      tag_76\n      jumpi\n      0x00\n      dup1\n      revert\n    tag_76:\n      dup2\n      add\n      swap1\n      dup1\n      dup1\n      calldataload\n      0xffffffffffffffffffffffffffffffffffffffff\n      and\n      swap1\n      0x20\n      add\n      swap1\n      swap3\n      swap2\n      swap1\n      dup1\n      calldataload\n      0xffffffffffffffffffffffffffffffffffffffff\n      and\n      swap1\n      0x20\n      add\n      swap1\n      swap3\n      swap2\n      swap1\n      dup1\n      calldataload\n      swap1\n      0x20\n      add\n      swap1\n      swap3\n      swap2\n      swap1\n      pop\n      pop\n      pop\n      tag_77\n      jump\t// in\n    tag_75:\n      mload(0x40)\n      dup1\n      dup3\n      iszero\n      iszero\n      dup2\n      mstore\n      0x20\n      add\n      swap2\n      pop\n      pop\n      mload(0x40)\n      dup1\n      swap2\n      sub\n      swap1\n      return\n        /* \"contracts/Pool/PoolPig.sol\":20787:21036  function tokenFromReflection(uint256 rAmount) public view returns(uint256) {... */\n    tag_10:\n      callvalue\n      dup1\n      iszero\n      tag_78\n      jumpi\n      0x00\n      dup1\n      revert\n    tag_78:\n      pop\n      tag_79\n      0x04\n      dup1\n      calldatasize\n      sub\n      0x20\n      dup2\n      lt\n      iszero\n      tag_80\n      jumpi\n      0x00\n      dup1\n      revert\n    tag_80:\n      dup2\n      add\n      swap1\n      dup1\n      dup1\n      calldataload\n      swap1\n      0x20\n      add\n      swap1\n      swap3\n      swap2\n      swap1\n      pop\n      pop\n      pop\n      tag_81\n      jump\t// in\n    tag_79:\n      mload(0x40)\n      dup1\n      dup3\n      dup2\n      mstore\n      0x20\n      add\n      swap2\n      pop\n      pop\n      mload(0x40)\n      dup1\n      swap2\n      sub\n      swap1\n      return\n        /* \"contracts/Pool/PoolPig.sol\":18087:18168  function decimals() public view returns (uint8) {... */\n    tag_11:\n      callvalue\n      dup1\n      iszero\n      tag_82\n      jumpi\n      0x00\n      dup1\n      revert\n    tag_82:\n      pop\n      tag_83\n      tag_84\n      jump\t// in\n    tag_83:\n      mload(0x40)\n      dup1\n      dup3\n      0xff\n      and\n      dup2\n      mstore\n      0x20\n      add\n      swap2\n      pop\n      pop\n      mload(0x40)\n      dup1\n      swap2\n      sub\n      swap1\n      return\n        /* \"contracts/Pool/PoolPig.sol\":21487:21955  function includeInReward(address account) external onlyOwner() {... */\n    tag_12:\n      callvalue\n      dup1\n      iszero\n      tag_85\n      jumpi\n      0x00\n      dup1\n      revert\n    tag_85:\n      pop\n      tag_86\n      0x04\n      dup1\n      calldatasize\n      sub\n      0x20\n      dup2\n      lt\n      iszero\n      tag_87\n      jumpi\n      0x00\n      dup1\n      revert\n    tag_87:\n      dup2\n      add\n      swap1\n      dup1\n      dup1\n      calldataload\n      0xffffffffffffffffffffffffffffffffffffffff\n      and\n      swap1\n      0x20\n      add\n      swap1\n      swap3\n      swap2\n      swap1\n      pop\n      pop\n      pop\n      tag_88\n      jump\t// in\n    tag_86:\n      stop\n        /* \"contracts/Pool/PoolPig.sol\":19270:19485  function increaseAllowance(address spender, uint256 addedValue) public virtual returns (bool) {... */\n    tag_13:\n      callvalue\n      dup1\n      iszero\n      tag_89\n      jumpi\n      0x00\n      dup1\n      revert\n    tag_89:\n      pop\n      tag_90\n      0x04\n      dup1\n      calldatasize\n      sub\n      0x40\n      dup2\n      lt\n      iszero\n      tag_91\n      jumpi\n      0x00\n      dup1\n      revert\n    tag_91:\n      dup2\n      add\n      swap1\n      dup1\n      dup1\n      calldataload\n      0xffffffffffffffffffffffffffffffffffffffff\n      and\n      swap1\n      0x20\n      add\n      swap1\n      swap3\n      swap2\n      swap1\n      dup1\n      calldataload\n      swap1\n      0x20\n      add\n      swap1\n      swap3\n      swap2\n      swap1\n      pop\n      pop\n      pop\n      tag_92\n      jump\t// in\n    tag_90:\n      mload(0x40)\n      dup1\n      dup3\n      iszero\n      iszero\n      dup2\n      mstore\n      0x20\n      add\n      swap2\n      pop\n      pop\n      mload(0x40)\n      dup1\n      swap2\n      sub\n      swap1\n      return\n        /* \"contracts/Pool/PoolPig.sol\":16186:16212  uint256 public _taxFee = 2 */\n    tag_14:\n      callvalue\n      dup1\n      iszero\n      tag_93\n      jumpi\n      0x00\n      dup1\n      revert\n    tag_93:\n      pop\n      tag_94\n      tag_95\n      jump\t// in\n    tag_94:\n      mload(0x40)\n      dup1\n      dup3\n      dup2\n      mstore\n      0x20\n      add\n      swap2\n      pop\n      pop\n      mload(0x40)\n      dup1\n      swap2\n      sub\n      swap1\n      return\n        /* \"contracts/Pool/PoolPig.sol\":19978:20348  function deliver(uint256 tAmount) public {... */\n    tag_15:\n      callvalue\n      dup1\n      iszero\n      tag_96\n      jumpi\n      0x00\n      dup1\n      revert\n    tag_96:\n      pop\n      tag_97\n      0x04\n      dup1\n      calldatasize\n      sub\n      0x20\n      dup2\n      lt\n      iszero\n      tag_98\n      jumpi\n      0x00\n      dup1\n      revert\n    tag_98:\n      dup2\n      add\n      swap1\n      dup1\n      dup1\n      calldataload\n      swap1\n      0x20\n      add\n      swap1\n      swap3\n      swap2\n      swap1\n      pop\n      pop\n      pop\n      tag_99\n      jump\t// in\n    tag_97:\n      stop\n        /* \"contracts/Pool/PoolPig.sol\":23423:24173  function addInitialLiquidity(... */\n    tag_16:\n      tag_100\n      0x04\n      dup1\n      calldatasize\n      sub\n      0x20\n      dup2\n      lt\n      iszero\n      tag_101\n      jumpi\n      0x00\n      dup1\n      revert\n    tag_101:\n      dup2\n      add\n      swap1\n      dup1\n      dup1\n      calldataload\n      swap1\n      0x20\n      add\n      swap1\n      swap3\n      swap2\n      swap1\n      pop\n      pop\n      pop\n      tag_102\n      jump\t// in\n    tag_100:\n      stop\n        /* \"contracts/Pool/PoolPig.sol\":22607:22716  function excludeFromFee(address account) public onlyOwner {... */\n    tag_17:\n      callvalue\n      dup1\n      iszero\n      tag_103\n      jumpi\n      0x00\n      dup1\n      revert\n    tag_103:\n      pop\n      tag_104\n      0x04\n      dup1\n      calldatasize\n      sub\n      0x20\n      dup2\n      lt\n      iszero\n      tag_105\n      jumpi\n      0x00\n      dup1\n      revert\n    tag_105:\n      dup2\n      add\n      swap1\n      dup1\n      dup1\n      calldataload\n      0xffffffffffffffffffffffffffffffffffffffff\n      and\n      swap1\n      0x20\n      add\n      swap1\n      swap3\n      swap2\n      swap1\n      pop\n      pop\n      pop\n      tag_106\n      jump\t// in\n    tag_104:\n      stop\n        /* \"contracts/Pool/PoolPig.sol\":20354:20781  function reflectionFromToken(uint256 tAmount, bool deductTransferFee) public view returns(uint256) {... */\n    tag_18:\n      callvalue\n      dup1\n      iszero\n      tag_107\n      jumpi\n      0x00\n      dup1\n      revert\n    tag_107:\n      pop\n      tag_108\n      0x04\n      dup1\n      calldatasize\n      sub\n      0x40\n      dup2\n      lt\n      iszero\n      tag_109\n      jumpi\n      0x00\n      dup1\n      revert\n    tag_109:\n      dup2\n      add\n      swap1\n      dup1\n      dup1\n      calldataload\n      swap1\n      0x20\n      add\n      swap1\n      swap3\n      swap2\n      swap1\n      dup1\n      calldataload\n      iszero\n      iszero\n      swap1\n      0x20\n      add\n      swap1\n      swap3\n      swap2\n      swap1\n      pop\n      pop\n      pop\n      tag_110\n      jump\t// in\n    tag_108:\n      mload(0x40)\n      dup1\n      dup3\n      dup2\n      mstore\n      0x20\n      add\n      swap2\n      pop\n      pop\n      mload(0x40)\n      dup1\n      swap2\n      sub\n      swap1\n      return\n        /* \"contracts/Pool/PoolPig.sol\":16425:16463  address public immutable uniswapV2Pair */\n    tag_19:\n      callvalue\n      dup1\n      iszero\n      tag_111\n      jumpi\n      0x00\n      dup1\n      revert\n    tag_111:\n      pop\n      tag_112\n      tag_113\n      jump\t// in\n    tag_112:\n      mload(0x40)\n      dup1\n      dup3\n      0xffffffffffffffffffffffffffffffffffffffff\n      and\n      dup2\n      mstore\n      0x20\n      add\n      swap2\n      pop\n      pop\n      mload(0x40)\n      dup1\n      swap2\n      sub\n      swap1\n      return\n        /* \"contracts/Pool/PoolPig.sol\":16501:16541  bool public swapAndLiquifyEnabled = true */\n    tag_20:\n      callvalue\n      dup1\n      iszero\n      tag_114\n      jumpi\n      0x00\n      dup1\n      revert\n    tag_114:\n      pop\n      tag_115\n      tag_116\n      jump\t// in\n    tag_115:\n      mload(0x40)\n      dup1\n      dup3\n      iszero\n      iszero\n      dup2\n      mstore\n      0x20\n      add\n      swap2\n      pop\n      pop\n      mload(0x40)\n      dup1\n      swap2\n      sub\n      swap1\n      return\n        /* \"contracts/Pool/PoolPig.sol\":21042:21481  function excludeFromReward(address account) public onlyOwner() {... */\n    tag_21:\n      callvalue\n      dup1\n      iszero\n      tag_117\n      jumpi\n      0x00\n      dup1\n      revert\n    tag_117:\n      pop\n      tag_118\n      0x04\n      dup1\n      calldatasize\n      sub\n      0x20\n      dup2\n      lt\n      iszero\n      tag_119\n      jumpi\n      0x00\n      dup1\n      revert\n    tag_119:\n      dup2\n      add\n      swap1\n      dup1\n      dup1\n      calldataload\n      0xffffffffffffffffffffffffffffffffffffffff\n      and\n      swap1\n      0x20\n      add\n      swap1\n      swap3\n      swap2\n      swap1\n      pop\n      pop\n      pop\n      tag_120\n      jump\t// in\n    tag_118:\n      stop\n        /* \"contracts/Pool/PoolPig.sol\":27400:27521  function isExcludedFromFee(address account) public view returns(bool) {... */\n    tag_22:\n      callvalue\n      dup1\n      iszero\n      tag_121\n      jumpi\n      0x00\n      dup1\n      revert\n    tag_121:\n      pop\n      tag_122\n      0x04\n      dup1\n      calldatasize\n      sub\n      0x20\n      dup2\n      lt\n      iszero\n      tag_123\n      jumpi\n      0x00\n      dup1\n      revert\n    tag_123:\n      dup2\n      add\n      swap1\n      dup1\n      dup1\n      calldataload\n      0xffffffffffffffffffffffffffffffffffffffff\n      and\n      swap1\n      0x20\n      add\n      swap1\n      swap3\n      swap2\n      swap1\n      pop\n      pop\n      pop\n      tag_124\n      jump\t// in\n    tag_122:\n      mload(0x40)\n      dup1\n      dup3\n      iszero\n      iszero\n      dup2\n      mstore\n      0x20\n      add\n      swap2\n      pop\n      pop\n      mload(0x40)\n      dup1\n      swap2\n      sub\n      swap1\n      return\n        /* \"contracts/Pool/PoolPig.sol\":16270:16302  uint256 public _liquidityFee = 3 */\n    tag_23:\n      callvalue\n      dup1\n      iszero\n      tag_125\n      jumpi\n      0x00\n      dup1\n      revert\n    tag_125:\n      pop\n      tag_126\n      tag_127\n      jump\t// in\n    tag_126:\n      mload(0x40)\n      dup1\n      dup3\n      dup2\n      mstore\n      0x20\n      add\n      swap2\n      pop\n      pop\n      mload(0x40)\n      dup1\n      swap2\n      sub\n      swap1\n      return\n        /* \"contracts/Pool/PoolPig.sol\":18273:18468  function balanceOf(address account) public view override returns (uint256) {... */\n    tag_24:\n      callvalue\n      dup1\n      iszero\n      tag_128\n      jumpi\n      0x00\n      dup1\n      revert\n    tag_128:\n      pop\n      tag_129\n      0x04\n      dup1\n      calldatasize\n      sub\n      0x20\n      dup2\n      lt\n      iszero\n      tag_130\n      jumpi\n      0x00\n      dup1\n      revert\n    tag_130:\n      dup2\n      add\n      swap1\n      dup1\n      dup1\n      calldataload\n      0xffffffffffffffffffffffffffffffffffffffff\n      and\n      swap1\n      0x20\n      add\n      swap1\n      swap3\n      swap2\n      swap1\n      pop\n      pop\n      pop\n      tag_131\n      jump\t// in\n    tag_129:\n      mload(0x40)\n      dup1\n      dup3\n      dup2\n      mstore\n      0x20\n      add\n      swap2\n      pop\n      pop\n      mload(0x40)\n      dup1\n      swap2\n      sub\n      swap1\n      return\n        /* \"contracts/Pool/PoolPig.sol\":6118:6263  function renounceOwnership() public virtual onlyOwner {... */\n    tag_25:\n      callvalue\n      dup1\n      iszero\n      tag_132\n      jumpi\n      0x00\n      dup1\n      revert\n    tag_132:\n      pop\n      tag_133\n      tag_134\n      jump\t// in\n    tag_133:\n      stop\n        /* \"contracts/Pool/PoolPig.sol\":16585:16628  uint256 public _maxTxAmount = 50000 * 10**9 */\n    tag_26:\n      callvalue\n      dup1\n      iszero\n      tag_135\n      jumpi\n      0x00\n      dup1\n      revert\n    tag_135:\n      pop\n      tag_136\n      tag_137\n      jump\t// in\n    tag_136:\n      mload(0x40)\n      dup1\n      dup3\n      dup2\n      mstore\n      0x20\n      add\n      swap2\n      pop\n      pop\n      mload(0x40)\n      dup1\n      swap2\n      sub\n      swap1\n      return\n        /* \"contracts/Pool/PoolPig.sol\":19763:19881  function isExcludedFromReward(address account) public view returns (bool) {... */\n    tag_27:\n      callvalue\n      dup1\n      iszero\n      tag_138\n      jumpi\n      0x00\n      dup1\n      revert\n    tag_138:\n      pop\n      tag_139\n      0x04\n      dup1\n      calldatasize\n      sub\n      0x20\n      dup2\n      lt\n      iszero\n      tag_140\n      jumpi\n      0x00\n      dup1\n      revert\n    tag_140:\n      dup2\n      add\n      swap1\n      dup1\n      dup1\n      calldataload\n      0xffffffffffffffffffffffffffffffffffffffff\n      and\n      swap1\n      0x20\n      add\n      swap1\n      swap3\n      swap2\n      swap1\n      pop\n      pop\n      pop\n      tag_141\n      jump\t// in\n    tag_139:\n      mload(0x40)\n      dup1\n      dup3\n      iszero\n      iszero\n      dup2\n      mstore\n      0x20\n      add\n      swap2\n      pop\n      pop\n      mload(0x40)\n      dup1\n      swap2\n      sub\n      swap1\n      return\n        /* \"contracts/Pool/PoolPig.sol\":5831:5908  function owner() public view returns (address) {... */\n    tag_28:\n      callvalue\n      dup1\n      iszero\n      tag_142\n      jumpi\n      0x00\n      dup1\n      revert\n    tag_142:\n      pop\n      tag_143\n      tag_144\n      jump\t// in\n    tag_143:\n      mload(0x40)\n      dup1\n      dup3\n      0xffffffffffffffffffffffffffffffffffffffff\n      and\n      dup2\n      mstore\n      0x20\n      add\n      swap2\n      pop\n      pop\n      mload(0x40)\n      dup1\n      swap2\n      sub\n      swap1\n      return\n        /* \"contracts/Pool/PoolPig.sol\":22950:23070  function setLiquidityFeePercent(uint256 liquidityFee) external onlyOwner() {... */\n    tag_29:\n      callvalue\n      dup1\n      iszero\n      tag_145\n      jumpi\n      0x00\n      dup1\n      revert\n    tag_145:\n      pop\n      tag_146\n      0x04\n      dup1\n      calldatasize\n      sub\n      0x20\n      dup2\n      lt\n      iszero\n      tag_147\n      jumpi\n      0x00\n      dup1\n      revert\n    tag_147:\n      dup2\n      add\n      swap1\n      dup1\n      dup1\n      calldataload\n      swap1\n      0x20\n      add\n      swap1\n      swap3\n      swap2\n      swap1\n      pop\n      pop\n      pop\n      tag_148\n      jump\t// in\n    tag_146:\n      stop\n        /* \"contracts/Pool/PoolPig.sol\":17996:18081  function symbol() public view returns (string memory) {... */\n    tag_30:\n      callvalue\n      dup1\n      iszero\n      tag_149\n      jumpi\n      0x00\n      dup1\n      revert\n    tag_149:\n      pop\n      tag_150\n      tag_151\n      jump\t// in\n    tag_150:\n      mload(0x40)\n      dup1\n      dup1\n      0x20\n      add\n      dup3\n      dup2\n      sub\n      dup3\n      mstore\n      dup4\n      dup2\n      dup2\n      mload\n      dup2\n      mstore\n      0x20\n      add\n      swap2\n      pop\n      dup1\n      mload\n      swap1\n      0x20\n      add\n      swap1\n      dup1\n      dup4\n      dup4\n      0x00\n    tag_152:\n      dup4\n      dup2\n      lt\n      iszero\n      tag_154\n      jumpi\n      dup1\n      dup3\n      add\n      mload\n      dup2\n      dup5\n      add\n      mstore\n      0x20\n      dup2\n      add\n      swap1\n      pop\n      jump(tag_152)\n    tag_154:\n      pop\n      pop\n      pop\n      pop\n      swap1\n      pop\n      swap1\n      dup2\n      add\n      swap1\n      0x1f\n      and\n      dup1\n      iszero\n      tag_155\n      jumpi\n      dup1\n      dup3\n      sub\n      dup1\n      mload\n      0x01\n      dup4\n      0x20\n      sub\n      0x0100\n      exp\n      sub\n      not\n      and\n      dup2\n      mstore\n      0x20\n      add\n      swap2\n      pop\n    tag_155:\n      pop\n      swap3\n      pop\n      pop\n      pop\n      mload(0x40)\n      dup1\n      swap2\n      sub\n      swap1\n      return\n        /* \"contracts/Pool/PoolPig.sol\":19491:19757  function decreaseAllowance(address spender, uint256 subtractedValue) public virtual returns (bool) {... */\n    tag_31:\n      callvalue\n      dup1\n      iszero\n      tag_156\n      jumpi\n      0x00\n      dup1\n      revert\n    tag_156:\n      pop\n      tag_157\n      0x04\n      dup1\n      calldatasize\n      sub\n      0x40\n      dup2\n      lt\n      iszero\n      tag_158\n      jumpi\n      0x00\n      dup1\n      revert\n    tag_158:\n      dup2\n      add\n      swap1\n      dup1\n      dup1\n      calldataload\n      0xffffffffffffffffffffffffffffffffffffffff\n      and\n      swap1\n      0x20\n      add\n      swap1\n      swap3\n      swap2\n      swap1\n      dup1\n      calldataload\n      swap1\n      0x20\n      add\n      swap1\n      swap3\n      swap2\n      swap1\n      pop\n      pop\n      pop\n      tag_159\n      jump\t// in\n    tag_157:\n      mload(0x40)\n      dup1\n      dup3\n      iszero\n      iszero\n      dup2\n      mstore\n      0x20\n      add\n      swap2\n      pop\n      pop\n      mload(0x40)\n      dup1\n      swap2\n      sub\n      swap1\n      return\n        /* \"contracts/Pool/PoolPig.sol\":6957:7245  function unlock() public virtual {... */\n    tag_32:\n      callvalue\n      dup1\n      iszero\n      tag_160\n      jumpi\n      0x00\n      dup1\n      revert\n    tag_160:\n      pop\n      tag_161\n      tag_162\n      jump\t// in\n    tag_161:\n      stop\n        /* \"contracts/Pool/PoolPig.sol\":18474:18638  function transfer(address recipient, uint256 amount) public override returns (bool) {... */\n    tag_33:\n      callvalue\n      dup1\n      iszero\n      tag_163\n      jumpi\n      0x00\n      dup1\n      revert\n    tag_163:\n      pop\n      tag_164\n      0x04\n      dup1\n      calldatasize\n      sub\n      0x40\n      dup2\n      lt\n      iszero\n      tag_165\n      jumpi\n      0x00\n      dup1\n      revert\n    tag_165:\n      dup2\n      add\n      swap1\n      dup1\n      dup1\n      calldataload\n      0xffffffffffffffffffffffffffffffffffffffff\n      and\n      swap1\n      0x20\n      add\n      swap1\n      swap3\n      swap2\n      swap1\n      dup1\n      calldataload\n      swap1\n      0x20\n      add\n      swap1\n      swap3\n      swap2\n      swap1\n      pop\n      pop\n      pop\n      tag_166\n      jump\t// in\n    tag_164:\n      mload(0x40)\n      dup1\n      dup3\n      iszero\n      iszero\n      dup2\n      mstore\n      0x20\n      add\n      swap2\n      pop\n      pop\n      mload(0x40)\n      dup1\n      swap2\n      sub\n      swap1\n      return\n        /* \"contracts/Pool/PoolPig.sol\":6515:6602  function geUnlockTime() public view returns (uint256) {... */\n    tag_34:\n      callvalue\n      dup1\n      iszero\n      tag_167\n      jumpi\n      0x00\n      dup1\n      revert\n    tag_167:\n      pop\n      tag_168\n      tag_169\n      jump\t// in\n    tag_168:\n      mload(0x40)\n      dup1\n      dup3\n      dup2\n      mstore\n      0x20\n      add\n      swap2\n      pop\n      pop\n      mload(0x40)\n      dup1\n      swap2\n      sub\n      swap1\n      return\n        /* \"contracts/Pool/PoolPig.sol\":23243:23411  function setSwapAndLiquifyEnabled(bool _enabled) public onlyOwner {... */\n    tag_35:\n      callvalue\n      dup1\n      iszero\n      tag_170\n      jumpi\n      0x00\n      dup1\n      revert\n    tag_170:\n      pop\n      tag_171\n      0x04\n      dup1\n      calldatasize\n      sub\n      0x20\n      dup2\n      lt\n      iszero\n      tag_172\n      jumpi\n      0x00\n      dup1\n      revert\n    tag_172:\n      dup2\n      add\n      swap1\n      dup1\n      dup1\n      calldataload\n      iszero\n      iszero\n      swap1\n      0x20\n      add\n      swap1\n      swap3\n      swap2\n      swap1\n      pop\n      pop\n      pop\n      tag_173\n      jump\t// in\n    tag_171:\n      stop\n        /* \"contracts/Pool/PoolPig.sol\":23079:23237  function setMaxTxPercent(uint256 maxTxPercent) external onlyOwner() {... */\n    tag_36:\n      callvalue\n      dup1\n      iszero\n      tag_174\n      jumpi\n      0x00\n      dup1\n      revert\n    tag_174:\n      pop\n      tag_175\n      0x04\n      dup1\n      calldatasize\n      sub\n      0x20\n      dup2\n      lt\n      iszero\n      tag_176\n      jumpi\n      0x00\n      dup1\n      revert\n    tag_176:\n      dup2\n      add\n      swap1\n      dup1\n      dup1\n      calldataload\n      swap1\n      0x20\n      add\n      swap1\n      swap3\n      swap2\n      swap1\n      pop\n      pop\n      pop\n      tag_177\n      jump\t// in\n    tag_175:\n      stop\n        /* \"contracts/Pool/PoolPig.sol\":6675:6884  function lock(uint256 time) public virtual onlyOwner {... */\n    tag_37:\n      callvalue\n      dup1\n      iszero\n      tag_178\n      jumpi\n      0x00\n      dup1\n      revert\n    tag_178:\n      pop\n      tag_179\n      0x04\n      dup1\n      calldatasize\n      sub\n      0x20\n      dup2\n      lt\n      iszero\n      tag_180\n      jumpi\n      0x00\n      dup1\n      revert\n    tag_180:\n      dup2\n      add\n      swap1\n      dup1\n      dup1\n      calldataload\n      swap1\n      0x20\n      add\n      swap1\n      swap3\n      swap2\n      swap1\n      pop\n      pop\n      pop\n      tag_181\n      jump\t// in\n    tag_179:\n      stop\n        /* \"contracts/Pool/PoolPig.sol\":18644:18785  function allowance(address owner, address spender) public view override returns (uint256) {... */\n    tag_38:\n      callvalue\n      dup1\n      iszero\n      tag_182\n      jumpi\n      0x00\n      dup1\n      revert\n    tag_182:\n      pop\n      tag_183\n      0x04\n      dup1\n      calldatasize\n      sub\n      0x40\n      dup2\n      lt\n      iszero\n      tag_184\n      jumpi\n      0x00\n      dup1\n      revert\n    tag_184:\n      dup2\n      add\n      swap1\n      dup1\n      dup1\n      calldataload\n      0xffffffffffffffffffffffffffffffffffffffff\n      and\n      swap1\n      0x20\n      add\n      swap1\n      swap3\n      swap2\n      swap1\n      dup1\n      calldataload\n      0xffffffffffffffffffffffffffffffffffffffff\n      and\n      swap1\n      0x20\n      add\n      swap1\n      swap3\n      swap2\n      swap1\n      pop\n      pop\n      pop\n      tag_185\n      jump\t// in\n    tag_183:\n      mload(0x40)\n      dup1\n      dup3\n      dup2\n      mstore\n      0x20\n      add\n      swap2\n      pop\n      pop\n      mload(0x40)\n      dup1\n      swap2\n      sub\n      swap1\n      return\n        /* \"contracts/Pool/PoolPig.sol\":22726:22834  function includeInFee(address account) public onlyOwner {... */\n    tag_39:\n      callvalue\n      dup1\n      iszero\n      tag_186\n      jumpi\n      0x00\n      dup1\n      revert\n    tag_186:\n      pop\n      tag_187\n      0x04\n      dup1\n      calldatasize\n      sub\n      0x20\n      dup2\n      lt\n      iszero\n      tag_188\n      jumpi\n      0x00\n      dup1\n      revert\n    tag_188:\n      dup2\n      add\n      swap1\n      dup1\n      dup1\n      calldataload\n      0xffffffffffffffffffffffffffffffffffffffff\n      and\n      swap1\n      0x20\n      add\n      swap1\n      swap3\n      swap2\n      swap1\n      pop\n      pop\n      pop\n      tag_189\n      jump\t// in\n    tag_187:\n      stop\n        /* \"contracts/Pool/PoolPig.sol\":6269:6509  function transferOwnership(address newOwner) public virtual onlyOwner {... */\n    tag_40:\n      callvalue\n      dup1\n      iszero\n      tag_190\n      jumpi\n      0x00\n      dup1\n      revert\n    tag_190:\n      pop\n      tag_191\n      0x04\n      dup1\n      calldatasize\n      sub\n      0x20\n      dup2\n      lt\n      iszero\n      tag_192\n      jumpi\n      0x00\n      dup1\n      revert\n    tag_192:\n      dup2\n      add\n      swap1\n      dup1\n      dup1\n      calldataload\n      0xffffffffffffffffffffffffffffffffffffffff\n      and\n      swap1\n      0x20\n      add\n      swap1\n      swap3\n      swap2\n      swap1\n      pop\n      pop\n      pop\n      tag_193\n      jump\t// in\n    tag_191:\n      stop\n        /* \"contracts/Pool/PoolPig.sol\":22844:22940  function setTaxFeePercent(uint256 taxFee) external onlyOwner() {... */\n    tag_53:\n        /* \"contracts/Pool/PoolPig.sol\":6045:6057  _msgSender() */\n      tag_195\n        /* \"contracts/Pool/PoolPig.sol\":6045:6055  _msgSender */\n      tag_196\n        /* \"contracts/Pool/PoolPig.sol\":6045:6057  _msgSender() */\n      jump\t// in\n    tag_195:\n        /* \"contracts/Pool/PoolPig.sol\":6035:6057  _owner == _msgSender() */\n      0xffffffffffffffffffffffffffffffffffffffff\n      and\n        /* \"contracts/Pool/PoolPig.sol\":6035:6041  _owner */\n      0x00\n      dup1\n      sload\n      swap1\n      0x0100\n      exp\n      swap1\n      div\n      0xffffffffffffffffffffffffffffffffffffffff\n      and\n        /* \"contracts/Pool/PoolPig.sol\":6035:6057  _owner == _msgSender() */\n      0xffffffffffffffffffffffffffffffffffffffff\n      and\n      eq\n        /* \"contracts/Pool/PoolPig.sol\":6027:6094  require(_owner == _msgSender(), \"Ownable: caller is not the owner\") */\n      tag_197\n      jumpi\n      mload(0x40)\n      0x08c379a000000000000000000000000000000000000000000000000000000000\n      dup2\n      mstore\n      0x04\n      add\n      dup1\n      dup1\n      0x20\n      add\n      dup3\n      dup2\n      sub\n      dup3\n      mstore\n      0x20\n      dup2\n      mstore\n      0x20\n      add\n      dup1\n      0x4f776e61626c653a2063616c6c6572206973206e6f7420746865206f776e6572\n      dup2\n      mstore\n      pop\n      0x20\n      add\n      swap2\n      pop\n      pop\n      mload(0x40)\n      dup1\n      swap2\n      sub\n      swap1\n      revert\n    tag_197:\n        /* \"contracts/Pool/PoolPig.sol\":22927:22933  taxFee */\n      dup1\n        /* \"contracts/Pool/PoolPig.sol\":22917:22924  _taxFee */\n      0x11\n        /* \"contracts/Pool/PoolPig.sol\":22917:22933  _taxFee = taxFee */\n      dup2\n      swap1\n      sstore\n      pop\n        /* \"contracts/Pool/PoolPig.sol\":22844:22940  function setTaxFeePercent(uint256 taxFee) external onlyOwner() {... */\n      pop\n      jump\t// out\n        /* \"contracts/Pool/PoolPig.sol\":17909:17990  function name() public view returns (string memory) {... */\n    tag_56:\n        /* \"contracts/Pool/PoolPig.sol\":17946:17959  string memory */\n      0x60\n        /* \"contracts/Pool/PoolPig.sol\":17978:17983  _name */\n      0x0e\n        /* \"contracts/Pool/PoolPig.sol\":17971:17983  return _name */\n      dup1\n      sload\n      0x01\n      dup2\n      0x01\n      and\n      iszero\n      0x0100\n      mul\n      sub\n      and\n      0x02\n      swap1\n      div\n      dup1\n      0x1f\n      add\n      0x20\n      dup1\n      swap2\n      div\n      mul\n      0x20\n      add\n      mload(0x40)\n      swap1\n      dup2\n      add\n      0x40\n      mstore\n      dup1\n      swap3\n      swap2\n      swap1\n      dup2\n      dup2\n      mstore\n      0x20\n      add\n      dup3\n      dup1\n      sload\n      0x01\n      dup2\n      0x01\n      and\n      iszero\n      0x0100\n      mul\n      sub\n      and\n      0x02\n      swap1\n      div\n      dup1\n      iszero\n      tag_200\n      jumpi\n      dup1\n      0x1f\n      lt\n      tag_201\n      jumpi\n      0x0100\n      dup1\n      dup4\n      sload\n      div\n      mul\n      dup4\n      mstore\n      swap2\n      0x20\n      add\n      swap2\n      jump(tag_200)\n    tag_201:\n      dup3\n      add\n      swap2\n      swap1\n      0x00\n      mstore\n      keccak256(0x00, 0x20)\n      swap1\n    tag_202:\n      dup2\n      sload\n      dup2\n      mstore\n      swap1\n      0x01\n      add\n      swap1\n      0x20\n      add\n      dup1\n      dup4\n      gt\n      tag_202\n      jumpi\n      dup3\n      swap1\n      sub\n      0x1f\n      and\n      dup3\n      add\n      swap2\n    tag_200:\n      pop\n      pop\n      pop\n      pop\n      pop\n      swap1\n      pop\n        /* \"contracts/Pool/PoolPig.sol\":17909:17990  function name() public view returns (string memory) {... */\n      swap1\n      jump\t// out\n        /* \"contracts/Pool/PoolPig.sol\":18791:18949  function approve(address spender, uint256 amount) public override returns (bool) {... */\n    tag_64:\n        /* \"contracts/Pool/PoolPig.sol\":18866:18870  bool */\n      0x00\n        /* \"contracts/Pool/PoolPig.sol\":18882:18921  _approve(_msgSender(), spender, amount) */\n      tag_204\n        /* \"contracts/Pool/PoolPig.sol\":18891:18903  _msgSender() */\n      tag_205\n        /* \"contracts/Pool/PoolPig.sol\":18891:18901  _msgSender */\n      tag_196\n        /* \"contracts/Pool/PoolPig.sol\":18891:18903  _msgSender() */\n      jump\t// in\n    tag_205:\n        /* \"contracts/Pool/PoolPig.sol\":18905:18912  spender */\n      dup5\n        /* \"contracts/Pool/PoolPig.sol\":18914:18920  amount */\n      dup5\n        /* \"contracts/Pool/PoolPig.sol\":18882:18890  _approve */\n      tag_206\n        /* \"contracts/Pool/PoolPig.sol\":18882:18921  _approve(_msgSender(), spender, amount) */\n      jump\t// in\n    tag_204:\n        /* \"contracts/Pool/PoolPig.sol\":18938:18942  true */\n      0x01\n        /* \"contracts/Pool/PoolPig.sol\":18931:18942  return true */\n      swap1\n      pop\n        /* \"contracts/Pool/PoolPig.sol\":18791:18949  function approve(address spender, uint256 amount) public override returns (bool) {... */\n      swap3\n      swap2\n      pop\n      pop\n      jump\t// out\n        /* \"contracts/Pool/PoolPig.sol\":19887:19972  function totalFees() public view returns (uint256) {... */\n    tag_67:\n        /* \"contracts/Pool/PoolPig.sol\":19929:19936  uint256 */\n      0x00\n        /* \"contracts/Pool/PoolPig.sol\":19955:19965  _tFeeTotal */\n      sload(0x0d)\n        /* \"contracts/Pool/PoolPig.sol\":19948:19965  return _tFeeTotal */\n      swap1\n      pop\n        /* \"contracts/Pool/PoolPig.sol\":19887:19972  function totalFees() public view returns (uint256) {... */\n      swap1\n      jump\t// out\n        /* \"contracts/Pool/PoolPig.sol\":16368:16419  IUniswapV2Router02 public immutable uniswapV2Router */\n    tag_70:\n      immutable(\"0xdfbf0bb877c2c5ca067d8597311506e24b894aa65a6fe980502f7e7b5c70fa94\")\n      dup2\n      jump\t// out\n        /* \"contracts/Pool/PoolPig.sol\":18174:18267  function totalSupply() public view override returns (uint256) {... */\n    tag_73:\n        /* \"contracts/Pool/PoolPig.sol\":18227:18234  uint256 */\n      0x00\n        /* \"contracts/Pool/PoolPig.sol\":15958:15976  1000000000 * 10**9 */\n      0x0de0b6b3a7640000\n        /* \"contracts/Pool/PoolPig.sol\":18246:18260  return _tTotal */\n      swap1\n      pop\n        /* \"contracts/Pool/PoolPig.sol\":18174:18267  function totalSupply() public view override returns (uint256) {... */\n      swap1\n      jump\t// out\n        /* \"contracts/Pool/PoolPig.sol\":18955:19264  function transferFrom(address sender, address recipient, uint256 amount) public override returns (bool) {... */\n    tag_77:\n        /* \"contracts/Pool/PoolPig.sol\":19053:19057  bool */\n      0x00\n        /* \"contracts/Pool/PoolPig.sol\":19069:19105  _transfer(sender, recipient, amount) */\n      tag_210\n        /* \"contracts/Pool/PoolPig.sol\":19079:19085  sender */\n      dup5\n        /* \"contracts/Pool/PoolPig.sol\":19087:19096  recipient */\n      dup5\n        /* \"contracts/Pool/PoolPig.sol\":19098:19104  amount */\n      dup5\n        /* \"contracts/Pool/PoolPig.sol\":19069:19078  _transfer */\n      tag_211\n        /* \"contracts/Pool/PoolPig.sol\":19069:19105  _transfer(sender, recipient, amount) */\n      jump\t// in\n    tag_210:\n        /* \"contracts/Pool/PoolPig.sol\":19115:19236  _approve(sender, _msgSender(), _allowances[sender][_msgSender()].sub(amount, \"ERC20: transfer amount exceeds allowance\")) */\n      tag_212\n        /* \"contracts/Pool/PoolPig.sol\":19124:19130  sender */\n      dup5\n        /* \"contracts/Pool/PoolPig.sol\":19132:19144  _msgSender() */\n      tag_213\n        /* \"contracts/Pool/PoolPig.sol\":19132:19142  _msgSender */\n      tag_196\n        /* \"contracts/Pool/PoolPig.sol\":19132:19144  _msgSender() */\n      jump\t// in\n    tag_213:\n        /* \"contracts/Pool/PoolPig.sol\":19146:19235  _allowances[sender][_msgSender()].sub(amount, \"ERC20: transfer amount exceeds allowance\") */\n      tag_214\n        /* \"contracts/Pool/PoolPig.sol\":19184:19190  amount */\n      dup6\n        /* \"contracts/Pool/PoolPig.sol\":19146:19235  _allowances[sender][_msgSender()].sub(amount, \"ERC20: transfer amount exceeds allowance\") */\n      mload(0x40)\n      dup1\n      0x60\n      add\n      0x40\n      mstore\n      dup1\n      0x28\n      dup2\n      mstore\n      0x20\n      add\n      data_974d1b4421da69cc60b481194f0dad36a5bb4e23da810da7a7fb30cdba178330\n      0x28\n      swap2\n      codecopy\n        /* \"contracts/Pool/PoolPig.sol\":19146:19157  _allowances */\n      0x05\n        /* \"contracts/Pool/PoolPig.sol\":19146:19165  _allowances[sender] */\n      0x00\n        /* \"contracts/Pool/PoolPig.sol\":19158:19164  sender */\n      dup12\n        /* \"contracts/Pool/PoolPig.sol\":19146:19165  _allowances[sender] */\n      0xffffffffffffffffffffffffffffffffffffffff\n      and\n      0xffffffffffffffffffffffffffffffffffffffff\n      and\n      dup2\n      mstore\n      0x20\n      add\n      swap1\n      dup2\n      mstore\n      0x20\n      add\n      0x00\n      keccak256\n        /* \"contracts/Pool/PoolPig.sol\":19146:19179  _allowances[sender][_msgSender()] */\n      0x00\n        /* \"contracts/Pool/PoolPig.sol\":19166:19178  _msgSender() */\n      tag_215\n        /* \"contracts/Pool/PoolPig.sol\":19166:19176  _msgSender */\n      tag_196\n        /* \"contracts/Pool/PoolPig.sol\":19166:19178  _msgSender() */\n      jump\t// in\n    tag_215:\n        /* \"contracts/Pool/PoolPig.sol\":19146:19179  _allowances[sender][_msgSender()] */\n      0xffffffffffffffffffffffffffffffffffffffff\n      and\n      0xffffffffffffffffffffffffffffffffffffffff\n      and\n      dup2\n      mstore\n      0x20\n      add\n      swap1\n      dup2\n      mstore\n      0x20\n      add\n      0x00\n      keccak256\n      sload\n        /* \"contracts/Pool/PoolPig.sol\":19146:19183  _allowances[sender][_msgSender()].sub */\n      tag_216\n      swap1\n        /* \"contracts/Pool/PoolPig.sol\":19146:19235  _allowances[sender][_msgSender()].sub(amount, \"ERC20: transfer amount exceeds allowance\") */\n      swap3\n      swap2\n      swap1\n      0xffffffff\n      and\n      jump\t// in\n    tag_214:\n        /* \"contracts/Pool/PoolPig.sol\":19115:19123  _approve */\n      tag_206\n        /* \"contracts/Pool/PoolPig.sol\":19115:19236  _approve(sender, _msgSender(), _allowances[sender][_msgSender()].sub(amount, \"ERC20: transfer amount exceeds allowance\")) */\n      jump\t// in\n    tag_212:\n        /* \"contracts/Pool/PoolPig.sol\":19253:19257  true */\n      0x01\n        /* \"contracts/Pool/PoolPig.sol\":19246:19257  return true */\n      swap1\n      pop\n        /* \"contracts/Pool/PoolPig.sol\":18955:19264  function transferFrom(address sender, address recipient, uint256 amount) public override returns (bool) {... */\n      swap4\n      swap3\n      pop\n      pop\n      pop\n      jump\t// out\n        /* \"contracts/Pool/PoolPig.sol\":20787:21036  function tokenFromReflection(uint256 rAmount) public view returns(uint256) {... */\n    tag_81:\n        /* \"contracts/Pool/PoolPig.sol\":20853:20860  uint256 */\n      0x00\n        /* \"contracts/Pool/PoolPig.sol\":20891:20898  _rTotal */\n      sload(0x0c)\n        /* \"contracts/Pool/PoolPig.sol\":20880:20887  rAmount */\n      dup3\n        /* \"contracts/Pool/PoolPig.sol\":20880:20898  rAmount <= _rTotal */\n      gt\n      iszero\n        /* \"contracts/Pool/PoolPig.sol\":20872:20945  require(rAmount <= _rTotal, \"Amount must be less than total reflections\") */\n      tag_218\n      jumpi\n      mload(0x40)\n      0x08c379a000000000000000000000000000000000000000000000000000000000\n      dup2\n      mstore\n      0x04\n      add\n      dup1\n      dup1\n      0x20\n      add\n      dup3\n      dup2\n      sub\n      dup3\n      mstore\n      0x2a\n      dup2\n      mstore\n      0x20\n      add\n      dup1\n      data_22f7af55a509c3b14f0d528f087748dec8a8bf425135e3f5dc28c6a31ec6d812\n      0x2a\n      swap2\n      codecopy\n      0x40\n      add\n      swap2\n      pop\n      pop\n      mload(0x40)\n      dup1\n      swap2\n      sub\n      swap1\n      revert\n    tag_218:\n        /* \"contracts/Pool/PoolPig.sol\":20955:20974  uint256 currentRate */\n      0x00\n        /* \"contracts/Pool/PoolPig.sol\":20978:20988  _getRate() */\n      tag_219\n        /* \"contracts/Pool/PoolPig.sol\":20978:20986  _getRate */\n      tag_220\n        /* \"contracts/Pool/PoolPig.sol\":20978:20988  _getRate() */\n      jump\t// in\n    tag_219:\n        /* \"contracts/Pool/PoolPig.sol\":20955:20988  uint256 currentRate =  _getRate() */\n      swap1\n      pop\n        /* \"contracts/Pool/PoolPig.sol\":21005:21029  rAmount.div(currentRate) */\n      tag_221\n        /* \"contracts/Pool/PoolPig.sol\":21017:21028  currentRate */\n      dup2\n        /* \"contracts/Pool/PoolPig.sol\":21005:21012  rAmount */\n      dup5\n        /* \"contracts/Pool/PoolPig.sol\":21005:21016  rAmount.div */\n      tag_222\n      swap1\n        /* \"contracts/Pool/PoolPig.sol\":21005:21029  rAmount.div(currentRate) */\n      swap2\n      swap1\n      0xffffffff\n      and\n      jump\t// in\n    tag_221:\n        /* \"contracts/Pool/PoolPig.sol\":20998:21029  return rAmount.div(currentRate) */\n      swap2\n      pop\n      pop\n        /* \"contracts/Pool/PoolPig.sol\":20787:21036  function tokenFromReflection(uint256 rAmount) public view returns(uint256) {... */\n      swap2\n      swap1\n      pop\n      jump\t// out\n        /* \"contracts/Pool/PoolPig.sol\":18087:18168  function decimals() public view returns (uint8) {... */\n    tag_84:\n        /* \"contracts/Pool/PoolPig.sol\":18128:18133  uint8 */\n      0x00\n        /* \"contracts/Pool/PoolPig.sol\":18152:18161  _decimals */\n      0x10\n      0x00\n      swap1\n      sload\n      swap1\n      0x0100\n      exp\n      swap1\n      div\n      0xff\n      and\n        /* \"contracts/Pool/PoolPig.sol\":18145:18161  return _decimals */\n      swap1\n      pop\n        /* \"contracts/Pool/PoolPig.sol\":18087:18168  function decimals() public view returns (uint8) {... */\n      swap1\n      jump\t// out\n        /* \"contracts/Pool/PoolPig.sol\":21487:21955  function includeInReward(address account) external onlyOwner() {... */\n    tag_88:\n        /* \"contracts/Pool/PoolPig.sol\":6045:6057  _msgSender() */\n      tag_225\n        /* \"contracts/Pool/PoolPig.sol\":6045:6055  _msgSender */\n      tag_196\n        /* \"contracts/Pool/PoolPig.sol\":6045:6057  _msgSender() */\n      jump\t// in\n    tag_225:\n        /* \"contracts/Pool/PoolPig.sol\":6035:6057  _owner == _msgSender() */\n      0xffffffffffffffffffffffffffffffffffffffff\n      and\n        /* \"contracts/Pool/PoolPig.sol\":6035:6041  _owner */\n      0x00\n      dup1\n      sload\n      swap1\n      0x0100\n      exp\n      swap1\n      div\n      0xffffffffffffffffffffffffffffffffffffffff\n      and\n        /* \"contracts/Pool/PoolPig.sol\":6035:6057  _owner == _msgSender() */\n      0xffffffffffffffffffffffffffffffffffffffff\n      and\n      eq\n        /* \"contracts/Pool/PoolPig.sol\":6027:6094  require(_owner == _msgSender(), \"Ownable: caller is not the owner\") */\n      tag_226\n      jumpi\n      mload(0x40)\n      0x08c379a000000000000000000000000000000000000000000000000000000000\n      dup2\n      mstore\n      0x04\n      add\n      dup1\n      dup1\n      0x20\n      add\n      dup3\n      dup2\n      sub\n      dup3\n      mstore\n      0x20\n      dup2\n      mstore\n      0x20\n      add\n      dup1\n      0x4f776e61626c653a2063616c6c6572206973206e6f7420746865206f776e6572\n      dup2\n      mstore\n      pop\n      0x20\n      add\n      swap2\n      pop\n      pop\n      mload(0x40)\n      dup1\n      swap2\n      sub\n      swap1\n      revert\n    tag_226:\n        /* \"contracts/Pool/PoolPig.sol\":21568:21579  _isExcluded */\n      0x07\n        /* \"contracts/Pool/PoolPig.sol\":21568:21588  _isExcluded[account] */\n      0x00\n        /* \"contracts/Pool/PoolPig.sol\":21580:21587  account */\n      dup3\n        /* \"contracts/Pool/PoolPig.sol\":21568:21588  _isExcluded[account] */\n      0xffffffffffffffffffffffffffffffffffffffff\n      and\n      0xffffffffffffffffffffffffffffffffffffffff\n      and\n      dup2\n      mstore\n      0x20\n      add\n      swap1\n      dup2\n      mstore\n      0x20\n      add\n      0x00\n      keccak256\n      0x00\n      swap1\n      sload\n      swap1\n      0x0100\n      exp\n      swap1\n      div\n      0xff\n      and\n        /* \"contracts/Pool/PoolPig.sol\":21560:21620  require(_isExcluded[account], \"Account is already excluded\") */\n      tag_228\n      jumpi\n      mload(0x40)\n      0x08c379a000000000000000000000000000000000000000000000000000000000\n      dup2\n      mstore\n      0x04\n      add\n      dup1\n      dup1\n      0x20\n      add\n      dup3\n      dup2\n      sub\n      dup3\n      mstore\n      0x1b\n      dup2\n      mstore\n      0x20\n      add\n      dup1\n      0x4163636f756e7420697320616c7265616479206578636c756465640000000000\n      dup2\n      mstore\n      pop\n      0x20\n      add\n      swap2\n      pop\n      pop\n      mload(0x40)\n      dup1\n      swap2\n      sub\n      swap1\n      revert\n    tag_228:\n        /* \"contracts/Pool/PoolPig.sol\":21635:21644  uint256 i */\n      0x00\n        /* \"contracts/Pool/PoolPig.sol\":21630:21949  for (uint256 i = 0; i < _excluded.length; i++) {... */\n    tag_229:\n        /* \"contracts/Pool/PoolPig.sol\":21654:21663  _excluded */\n      0x08\n        /* \"contracts/Pool/PoolPig.sol\":21654:21670  _excluded.length */\n      dup1\n      sload\n      swap1\n      pop\n        /* \"contracts/Pool/PoolPig.sol\":21650:21651  i */\n      dup2\n        /* \"contracts/Pool/PoolPig.sol\":21650:21670  i < _excluded.length */\n      lt\n        /* \"contracts/Pool/PoolPig.sol\":21630:21949  for (uint256 i = 0; i < _excluded.length; i++) {... */\n      iszero\n      tag_230\n      jumpi\n        /* \"contracts/Pool/PoolPig.sol\":21711:21718  account */\n      dup2\n        /* \"contracts/Pool/PoolPig.sol\":21695:21718  _excluded[i] == account */\n      0xffffffffffffffffffffffffffffffffffffffff\n      and\n        /* \"contracts/Pool/PoolPig.sol\":21695:21704  _excluded */\n      0x08\n        /* \"contracts/Pool/PoolPig.sol\":21705:21706  i */\n      dup3\n        /* \"contracts/Pool/PoolPig.sol\":21695:21707  _excluded[i] */\n      dup2\n      sload\n      dup2\n      lt\n      tag_232\n      jumpi\n      invalid\n    tag_232:\n      swap1\n      0x00\n      mstore\n      keccak256(0x00, 0x20)\n      add\n      0x00\n      swap1\n      sload\n      swap1\n      0x0100\n      exp\n      swap1\n      div\n      0xffffffffffffffffffffffffffffffffffffffff\n      and\n        /* \"contracts/Pool/PoolPig.sol\":21695:21718  _excluded[i] == account */\n      0xffffffffffffffffffffffffffffffffffffffff\n      and\n      eq\n        /* \"contracts/Pool/PoolPig.sol\":21691:21939  if (_excluded[i] == account) {... */\n      iszero\n      tag_234\n      jumpi\n        /* \"contracts/Pool/PoolPig.sol\":21753:21762  _excluded */\n      0x08\n        /* \"contracts/Pool/PoolPig.sol\":21782:21783  1 */\n      0x01\n        /* \"contracts/Pool/PoolPig.sol\":21763:21772  _excluded */\n      0x08\n        /* \"contracts/Pool/PoolPig.sol\":21763:21779  _excluded.length */\n      dup1\n      sload\n      swap1\n      pop\n        /* \"contracts/Pool/PoolPig.sol\":21763:21783  _excluded.length - 1 */\n      sub\n        /* \"contracts/Pool/PoolPig.sol\":21753:21784  _excluded[_excluded.length - 1] */\n      dup2\n      sload\n      dup2\n      lt\n      tag_235\n      jumpi\n      invalid\n    tag_235:\n      swap1\n      0x00\n      mstore\n      keccak256(0x00, 0x20)\n      add\n      0x00\n      swap1\n      sload\n      swap1\n      0x0100\n      exp\n      swap1\n      div\n      0xffffffffffffffffffffffffffffffffffffffff\n      and\n        /* \"contracts/Pool/PoolPig.sol\":21738:21747  _excluded */\n      0x08\n        /* \"contracts/Pool/PoolPig.sol\":21748:21749  i */\n      dup3\n        /* \"contracts/Pool/PoolPig.sol\":21738:21750  _excluded[i] */\n      dup2\n      sload\n      dup2\n      lt\n      tag_237\n      jumpi\n      invalid\n    tag_237:\n      swap1\n      0x00\n      mstore\n      keccak256(0x00, 0x20)\n      add\n      0x00\n        /* \"contracts/Pool/PoolPig.sol\":21738:21784  _excluded[i] = _excluded[_excluded.length - 1] */\n      0x0100\n      exp\n      dup2\n      sload\n      dup2\n      0xffffffffffffffffffffffffffffffffffffffff\n      mul\n      not\n      and\n      swap1\n      dup4\n      0xffffffffffffffffffffffffffffffffffffffff\n      and\n      mul\n      or\n      swap1\n      sstore\n      pop\n        /* \"contracts/Pool/PoolPig.sol\":21821:21822  0 */\n      0x00\n        /* \"contracts/Pool/PoolPig.sol\":21802:21809  _tOwned */\n      0x04\n        /* \"contracts/Pool/PoolPig.sol\":21802:21818  _tOwned[account] */\n      0x00\n        /* \"contracts/Pool/PoolPig.sol\":21810:21817  account */\n      dup5\n        /* \"contracts/Pool/PoolPig.sol\":21802:21818  _tOwned[account] */\n      0xffffffffffffffffffffffffffffffffffffffff\n      and\n      0xffffffffffffffffffffffffffffffffffffffff\n      and\n      dup2\n      mstore\n      0x20\n      add\n      swap1\n      dup2\n      mstore\n      0x20\n      add\n      0x00\n      keccak256\n        /* \"contracts/Pool/PoolPig.sol\":21802:21822  _tOwned[account] = 0 */\n      dup2\n      swap1\n      sstore\n      pop\n        /* \"contracts/Pool/PoolPig.sol\":21863:21868  false */\n      0x00\n        /* \"contracts/Pool/PoolPig.sol\":21840:21851  _isExcluded */\n      0x07\n        /* \"contracts/Pool/PoolPig.sol\":21840:21860  _isExcluded[account] */\n      0x00\n        /* \"contracts/Pool/PoolPig.sol\":21852:21859  account */\n      dup5\n        /* \"contracts/Pool/PoolPig.sol\":21840:21860  _isExcluded[account] */\n      0xffffffffffffffffffffffffffffffffffffffff\n      and\n      0xffffffffffffffffffffffffffffffffffffffff\n      and\n      dup2\n      mstore\n      0x20\n      add\n      swap1\n      dup2\n      mstore\n      0x20\n      add\n      0x00\n      keccak256\n      0x00\n        /* \"contracts/Pool/PoolPig.sol\":21840:21868  _isExcluded[account] = false */\n      0x0100\n      exp\n      dup2\n      sload\n      dup2\n      0xff\n      mul\n      not\n      and\n      swap1\n      dup4\n      iszero\n      iszero\n      mul\n      or\n      swap1\n      sstore\n      pop\n        /* \"contracts/Pool/PoolPig.sol\":21886:21895  _excluded */\n      0x08\n        /* \"contracts/Pool/PoolPig.sol\":21886:21901  _excluded.pop() */\n      dup1\n      sload\n      dup1\n      tag_239\n      jumpi\n      invalid\n    tag_239:\n      0x01\n      swap1\n      sub\n      dup2\n      dup2\n      swap1\n      0x00\n      mstore\n      keccak256(0x00, 0x20)\n      add\n      exp(0x0100, 0x00)\n      dup2\n      sload\n      swap1\n      0xffffffffffffffffffffffffffffffffffffffff\n      mul\n      not\n      and\n      swap1\n      sstore\n      swap1\n      sstore\n        /* \"contracts/Pool/PoolPig.sol\":21919:21924  break */\n      jump(tag_230)\n        /* \"contracts/Pool/PoolPig.sol\":21691:21939  if (_excluded[i] == account) {... */\n    tag_234:\n        /* \"contracts/Pool/PoolPig.sol\":21672:21675  i++ */\n      dup1\n      dup1\n      0x01\n      add\n      swap2\n      pop\n      pop\n        /* \"contracts/Pool/PoolPig.sol\":21630:21949  for (uint256 i = 0; i < _excluded.length; i++) {... */\n      jump(tag_229)\n    tag_230:\n      pop\n        /* \"contracts/Pool/PoolPig.sol\":21487:21955  function includeInReward(address account) external onlyOwner() {... */\n      pop\n      jump\t// out\n        /* \"contracts/Pool/PoolPig.sol\":19270:19485  function increaseAllowance(address spender, uint256 addedValue) public virtual returns (bool) {... */\n    tag_92:\n        /* \"contracts/Pool/PoolPig.sol\":19358:19362  bool */\n      0x00\n        /* \"contracts/Pool/PoolPig.sol\":19374:19457  _approve(_msgSender(), spender, _allowances[_msgSender()][spender].add(addedValue)) */\n      tag_242\n        /* \"contracts/Pool/PoolPig.sol\":19383:19395  _msgSender() */\n      tag_243\n        /* \"contracts/Pool/PoolPig.sol\":19383:19393  _msgSender */\n      tag_196\n        /* \"contracts/Pool/PoolPig.sol\":19383:19395  _msgSender() */\n      jump\t// in\n    tag_243:\n        /* \"contracts/Pool/PoolPig.sol\":19397:19404  spender */\n      dup5\n        /* \"contracts/Pool/PoolPig.sol\":19406:19456  _allowances[_msgSender()][spender].add(addedValue) */\n      tag_244\n        /* \"contracts/Pool/PoolPig.sol\":19445:19455  addedValue */\n      dup6\n        /* \"contracts/Pool/PoolPig.sol\":19406:19417  _allowances */\n      0x05\n        /* \"contracts/Pool/PoolPig.sol\":19406:19431  _allowances[_msgSender()] */\n      0x00\n        /* \"contracts/Pool/PoolPig.sol\":19418:19430  _msgSender() */\n      tag_245\n        /* \"contracts/Pool/PoolPig.sol\":19418:19428  _msgSender */\n      tag_196\n        /* \"contracts/Pool/PoolPig.sol\":19418:19430  _msgSender() */\n      jump\t// in\n    tag_245:\n        /* \"contracts/Pool/PoolPig.sol\":19406:19431  _allowances[_msgSender()] */\n      0xffffffffffffffffffffffffffffffffffffffff\n      and\n      0xffffffffffffffffffffffffffffffffffffffff\n      and\n      dup2\n      mstore\n      0x20\n      add\n      swap1\n      dup2\n      mstore\n      0x20\n      add\n      0x00\n      keccak256\n        /* \"contracts/Pool/PoolPig.sol\":19406:19440  _allowances[_msgSender()][spender] */\n      0x00\n        /* \"contracts/Pool/PoolPig.sol\":19432:19439  spender */\n      dup10\n        /* \"contracts/Pool/PoolPig.sol\":19406:19440  _allowances[_msgSender()][spender] */\n      0xffffffffffffffffffffffffffffffffffffffff\n      and\n      0xffffffffffffffffffffffffffffffffffffffff\n      and\n      dup2\n      mstore\n      0x20\n      add\n      swap1\n      dup2\n      mstore\n      0x20\n      add\n      0x00\n      keccak256\n      sload\n        /* \"contracts/Pool/PoolPig.sol\":19406:19444  _allowances[_msgSender()][spender].add */\n      tag_246\n      swap1\n        /* \"contracts/Pool/PoolPig.sol\":19406:19456  _allowances[_msgSender()][spender].add(addedValue) */\n      swap2\n      swap1\n      0xffffffff\n      and\n      jump\t// in\n    tag_244:\n        /* \"contracts/Pool/PoolPig.sol\":19374:19382  _approve */\n      tag_206\n        /* \"contracts/Pool/PoolPig.sol\":19374:19457  _approve(_msgSender(), spender, _allowances[_msgSender()][spender].add(addedValue)) */\n      jump\t// in\n    tag_242:\n        /* \"contracts/Pool/PoolPig.sol\":19474:19478  true */\n      0x01\n        /* \"contracts/Pool/PoolPig.sol\":19467:19478  return true */\n      swap1\n      pop\n        /* \"contracts/Pool/PoolPig.sol\":19270:19485  function increaseAllowance(address spender, uint256 addedValue) public virtual returns (bool) {... */\n      swap3\n      swap2\n      pop\n      pop\n      jump\t// out\n        /* \"contracts/Pool/PoolPig.sol\":16186:16212  uint256 public _taxFee = 2 */\n    tag_95:\n      sload(0x11)\n      dup2\n      jump\t// out\n        /* \"contracts/Pool/PoolPig.sol\":19978:20348  function deliver(uint256 tAmount) public {... */\n    tag_99:\n        /* \"contracts/Pool/PoolPig.sol\":20029:20043  address sender */\n      0x00\n        /* \"contracts/Pool/PoolPig.sol\":20046:20058  _msgSender() */\n      tag_248\n        /* \"contracts/Pool/PoolPig.sol\":20046:20056  _msgSender */\n      tag_196\n        /* \"contracts/Pool/PoolPig.sol\":20046:20058  _msgSender() */\n      jump\t// in\n    tag_248:\n        /* \"contracts/Pool/PoolPig.sol\":20029:20058  address sender = _msgSender() */\n      swap1\n      pop\n        /* \"contracts/Pool/PoolPig.sol\":20077:20088  _isExcluded */\n      0x07\n        /* \"contracts/Pool/PoolPig.sol\":20077:20096  _isExcluded[sender] */\n      0x00\n        /* \"contracts/Pool/PoolPig.sol\":20089:20095  sender */\n      dup3\n        /* \"contracts/Pool/PoolPig.sol\":20077:20096  _isExcluded[sender] */\n      0xffffffffffffffffffffffffffffffffffffffff\n      and\n      0xffffffffffffffffffffffffffffffffffffffff\n      and\n      dup2\n      mstore\n      0x20\n      add\n      swap1\n      dup2\n      mstore\n      0x20\n      add\n      0x00\n      keccak256\n      0x00\n      swap1\n      sload\n      swap1\n      0x0100\n      exp\n      swap1\n      div\n      0xff\n      and\n        /* \"contracts/Pool/PoolPig.sol\":20076:20096  !_isExcluded[sender] */\n      iszero\n        /* \"contracts/Pool/PoolPig.sol\":20068:20145  require(!_isExcluded[sender], \"Excluded addresses cannot call this function\") */\n      tag_249\n      jumpi\n      mload(0x40)\n      0x08c379a000000000000000000000000000000000000000000000000000000000\n      dup2\n      mstore\n      0x04\n      add\n      dup1\n      dup1\n      0x20\n      add\n      dup3\n      dup2\n      sub\n      dup3\n      mstore\n      0x2c\n      dup2\n      mstore\n      0x20\n      add\n      dup1\n      data_ecefcaf5fbcf9ca6dcdb02298ba1da96f4ead317b0a4779917ecb2e5e7dc3ac4\n      0x2c\n      swap2\n      codecopy\n      0x40\n      add\n      swap2\n      pop\n      pop\n      mload(0x40)\n      dup1\n      swap2\n      sub\n      swap1\n      revert\n    tag_249:\n        /* \"contracts/Pool/PoolPig.sol\":20156:20171  uint256 rAmount */\n      0x00\n        /* \"contracts/Pool/PoolPig.sol\":20180:20199  _getValues(tAmount) */\n      tag_250\n        /* \"contracts/Pool/PoolPig.sol\":20191:20198  tAmount */\n      dup4\n        /* \"contracts/Pool/PoolPig.sol\":20180:20190  _getValues */\n      tag_251\n        /* \"contracts/Pool/PoolPig.sol\":20180:20199  _getValues(tAmount) */\n      jump\t// in\n    tag_250:\n        /* \"contracts/Pool/PoolPig.sol\":20155:20199  (uint256 rAmount,,,,,) = _getValues(tAmount) */\n      pop\n      pop\n      pop\n      pop\n      pop\n      swap1\n      pop\n        /* \"contracts/Pool/PoolPig.sol\":20227:20255  _rOwned[sender].sub(rAmount) */\n      tag_252\n        /* \"contracts/Pool/PoolPig.sol\":20247:20254  rAmount */\n      dup2\n        /* \"contracts/Pool/PoolPig.sol\":20227:20234  _rOwned */\n      0x03\n        /* \"contracts/Pool/PoolPig.sol\":20227:20242  _rOwned[sender] */\n      0x00\n        /* \"contracts/Pool/PoolPig.sol\":20235:20241  sender */\n      dup6\n        /* \"contracts/Pool/PoolPig.sol\":20227:20242  _rOwned[sender] */\n      0xffffffffffffffffffffffffffffffffffffffff\n      and\n      0xffffffffffffffffffffffffffffffffffffffff\n      and\n      dup2\n      mstore\n      0x20\n      add\n      swap1\n      dup2\n      mstore\n      0x20\n      add\n      0x00\n      keccak256\n      sload\n        /* \"contracts/Pool/PoolPig.sol\":20227:20246  _rOwned[sender].sub */\n      tag_253\n      swap1\n        /* \"contracts/Pool/PoolPig.sol\":20227:20255  _rOwned[sender].sub(rAmount) */\n      swap2\n      swap1\n      0xffffffff\n      and\n      jump\t// in\n    tag_252:\n        /* \"contracts/Pool/PoolPig.sol\":20209:20216  _rOwned */\n      0x03\n        /* \"contracts/Pool/PoolPig.sol\":20209:20224  _rOwned[sender] */\n      0x00\n        /* \"contracts/Pool/PoolPig.sol\":20217:20223  sender */\n      dup5\n        /* \"contracts/Pool/PoolPig.sol\":20209:20224  _rOwned[sender] */\n      0xffffffffffffffffffffffffffffffffffffffff\n      and\n      0xffffffffffffffffffffffffffffffffffffffff\n      and\n      dup2\n      mstore\n      0x20\n      add\n      swap1\n      dup2\n      mstore\n      0x20\n      add\n      0x00\n      keccak256\n        /* \"contracts/Pool/PoolPig.sol\":20209:20255  _rOwned[sender] = _rOwned[sender].sub(rAmount) */\n      dup2\n      swap1\n      sstore\n      pop\n        /* \"contracts/Pool/PoolPig.sol\":20275:20295  _rTotal.sub(rAmount) */\n      tag_254\n        /* \"contracts/Pool/PoolPig.sol\":20287:20294  rAmount */\n      dup2\n        /* \"contracts/Pool/PoolPig.sol\":20275:20282  _rTotal */\n      sload(0x0c)\n        /* \"contracts/Pool/PoolPig.sol\":20275:20286  _rTotal.sub */\n      tag_253\n      swap1\n        /* \"contracts/Pool/PoolPig.sol\":20275:20295  _rTotal.sub(rAmount) */\n      swap2\n      swap1\n      0xffffffff\n      and\n      jump\t// in\n    tag_254:\n        /* \"contracts/Pool/PoolPig.sol\":20265:20272  _rTotal */\n      0x0c\n        /* \"contracts/Pool/PoolPig.sol\":20265:20295  _rTotal = _rTotal.sub(rAmount) */\n      dup2\n      swap1\n      sstore\n      pop\n        /* \"contracts/Pool/PoolPig.sol\":20318:20341  _tFeeTotal.add(tAmount) */\n      tag_255\n        /* \"contracts/Pool/PoolPig.sol\":20333:20340  tAmount */\n      dup4\n        /* \"contracts/Pool/PoolPig.sol\":20318:20328  _tFeeTotal */\n      sload(0x0d)\n        /* \"contracts/Pool/PoolPig.sol\":20318:20332  _tFeeTotal.add */\n      tag_246\n      swap1\n        /* \"contracts/Pool/PoolPig.sol\":20318:20341  _tFeeTotal.add(tAmount) */\n      swap2\n      swap1\n      0xffffffff\n      and\n      jump\t// in\n    tag_255:\n        /* \"contracts/Pool/PoolPig.sol\":20305:20315  _tFeeTotal */\n      0x0d\n        /* \"contracts/Pool/PoolPig.sol\":20305:20341  _tFeeTotal = _tFeeTotal.add(tAmount) */\n      dup2\n      swap1\n      sstore\n      pop\n        /* \"contracts/Pool/PoolPig.sol\":19978:20348  function deliver(uint256 tAmount) public {... */\n      pop\n      pop\n      pop\n      jump\t// out\n        /* \"contracts/Pool/PoolPig.sol\":23423:24173  function addInitialLiquidity(... */\n    tag_102:\n        /* \"contracts/Pool/PoolPig.sol\":6045:6057  _msgSender() */\n      tag_257\n        /* \"contracts/Pool/PoolPig.sol\":6045:6055  _msgSender */\n      tag_196\n        /* \"contracts/Pool/PoolPig.sol\":6045:6057  _msgSender() */\n      jump\t// in\n    tag_257:\n        /* \"contracts/Pool/PoolPig.sol\":6035:6057  _owner == _msgSender() */\n      0xffffffffffffffffffffffffffffffffffffffff\n      and\n        /* \"contracts/Pool/PoolPig.sol\":6035:6041  _owner */\n      0x00\n      dup1\n      sload\n      swap1\n      0x0100\n      exp\n      swap1\n      div\n      0xffffffffffffffffffffffffffffffffffffffff\n      and\n        /* \"contracts/Pool/PoolPig.sol\":6035:6057  _owner == _msgSender() */\n      0xffffffffffffffffffffffffffffffffffffffff\n      and\n      eq\n        /* \"contracts/Pool/PoolPig.sol\":6027:6094  require(_owner == _msgSender(), \"Ownable: caller is not the owner\") */\n      tag_258\n      jumpi\n      mload(0x40)\n      0x08c379a000000000000000000000000000000000000000000000000000000000\n      dup2\n      mstore\n      0x04\n      add\n      dup1\n      dup1\n      0x20\n      add\n      dup3\n      dup2\n      sub\n      dup3\n      mstore\n      0x20\n      dup2\n      mstore\n      0x20\n      add\n      dup1\n      0x4f776e61626c653a2063616c6c6572206973206e6f7420746865206f776e6572\n      dup2\n      mstore\n      pop\n      0x20\n      add\n      swap2\n      pop\n      pop\n      mload(0x40)\n      dup1\n      swap2\n      sub\n      swap1\n      revert\n    tag_258:\n        /* \"contracts/Pool/PoolPig.sol\":23739:23771  IUniswapV2Router02 pancakeRouter */\n      0x00\n        /* \"contracts/Pool/PoolPig.sol\":23801:23843  0x9Ac64Cc6e4415144C455BD8E4837Fea55603e5c3 */\n      0x9ac64cc6e4415144c455bd8e4837fea55603e5c3\n        /* \"contracts/Pool/PoolPig.sol\":23739:23845  IUniswapV2Router02 pancakeRouter = IUniswapV2Router02(address(0x9Ac64Cc6e4415144C455BD8E4837Fea55603e5c3)) */\n      swap1\n      pop\n        /* \"contracts/Pool/PoolPig.sol\":23884:23897  pancakeRouter */\n      dup1\n        /* \"contracts/Pool/PoolPig.sol\":23884:23913  pancakeRouter.addLiquidityETH */\n      0xffffffffffffffffffffffffffffffffffffffff\n      and\n      0xf305d719\n        /* \"contracts/Pool/PoolPig.sol\":23921:23930  msg.value */\n      callvalue\n        /* \"contracts/Pool/PoolPig.sol\":23953:23957  this */\n      address\n        /* \"contracts/Pool/PoolPig.sol\":23972:23983  tokenAmount */\n      dup6\n        /* \"contracts/Pool/PoolPig.sol\":23997:23998  0 */\n      0x00\n        /* \"contracts/Pool/PoolPig.sol\":24039:24040  0 */\n      dup1\n        /* \"contracts/Pool/PoolPig.sol\":24081:24088  owner() */\n      tag_260\n        /* \"contracts/Pool/PoolPig.sol\":24081:24086  owner */\n      tag_144\n        /* \"contracts/Pool/PoolPig.sol\":24081:24088  owner() */\n      jump\t// in\n    tag_260:\n        /* \"contracts/Pool/PoolPig.sol\":24120:24123  360 */\n      0x0168\n        /* \"contracts/Pool/PoolPig.sol\":24102:24117  block.timestamp */\n      timestamp\n        /* \"contracts/Pool/PoolPig.sol\":24102:24123  block.timestamp + 360 */\n      add\n        /* \"contracts/Pool/PoolPig.sol\":23884:24133  pancakeRouter.addLiquidityETH{value: msg.value}(... */\n      mload(0x40)\n      dup9\n      0xffffffff\n      and\n      0xe0\n      shl\n      dup2\n      mstore\n      0x04\n      add\n      dup1\n      dup8\n      0xffffffffffffffffffffffffffffffffffffffff\n      and\n      dup2\n      mstore\n      0x20\n      add\n      dup7\n      dup2\n      mstore\n      0x20\n      add\n      dup6\n      dup2\n      mstore\n      0x20\n      add\n      dup5\n      dup2\n      mstore\n      0x20\n      add\n      dup4\n      0xffffffffffffffffffffffffffffffffffffffff\n      and\n      dup2\n      mstore\n      0x20\n      add\n      dup3\n      dup2\n      mstore\n      0x20\n      add\n      swap7\n      pop\n      pop\n      pop\n      pop\n      pop\n      pop\n      pop\n      0x60\n      mload(0x40)\n      dup1\n      dup4\n      sub\n      dup2\n      dup6\n      dup9\n      dup1\n      extcodesize\n      iszero\n      dup1\n      iszero\n      tag_261\n      jumpi\n      0x00\n      dup1\n      revert\n    tag_261:\n      pop\n      gas\n      call\n      iszero\n      dup1\n      iszero\n      tag_263\n      jumpi\n      returndatasize\n      0x00\n      dup1\n      returndatacopy\n      revert(0x00, returndatasize)\n    tag_263:\n      pop\n      pop\n      pop\n      pop\n      pop\n      mload(0x40)\n      returndatasize\n      0x60\n      dup2\n      lt\n      iszero\n      tag_264\n      jumpi\n      0x00\n      dup1\n      revert\n    tag_264:\n      dup2\n      add\n      swap1\n      dup1\n      dup1\n      mload\n      swap1\n      0x20\n      add\n      swap1\n      swap3\n      swap2\n      swap1\n      dup1\n      mload\n      swap1\n      0x20\n      add\n      swap1\n      swap3\n      swap2\n      swap1\n      dup1\n      mload\n      swap1\n      0x20\n      add\n      swap1\n      swap3\n      swap2\n      swap1\n      pop\n      pop\n      pop\n      pop\n      pop\n      pop\n        /* \"contracts/Pool/PoolPig.sol\":24161:24165  true */\n      0x01\n        /* \"contracts/Pool/PoolPig.sol\":24144:24158  initialLiqDone */\n      0x15\n      0x02\n        /* \"contracts/Pool/PoolPig.sol\":24144:24165  initialLiqDone = true */\n      0x0100\n      exp\n      dup2\n      sload\n      dup2\n      0xff\n      mul\n      not\n      and\n      swap1\n      dup4\n      iszero\n      iszero\n      mul\n      or\n      swap1\n      sstore\n      pop\n        /* \"contracts/Pool/PoolPig.sol\":6104:6105  _ */\n      pop\n        /* \"contracts/Pool/PoolPig.sol\":23423:24173  function addInitialLiquidity(... */\n      pop\n      jump\t// out\n        /* \"contracts/Pool/PoolPig.sol\":22607:22716  function excludeFromFee(address account) public onlyOwner {... */\n    tag_106:\n        /* \"contracts/Pool/PoolPig.sol\":6045:6057  _msgSender() */\n      tag_266\n        /* \"contracts/Pool/PoolPig.sol\":6045:6055  _msgSender */\n      tag_196\n        /* \"contracts/Pool/PoolPig.sol\":6045:6057  _msgSender() */\n      jump\t// in\n    tag_266:\n        /* \"contracts/Pool/PoolPig.sol\":6035:6057  _owner == _msgSender() */\n      0xffffffffffffffffffffffffffffffffffffffff\n      and\n        /* \"contracts/Pool/PoolPig.sol\":6035:6041  _owner */\n      0x00\n      dup1\n      sload\n      swap1\n      0x0100\n      exp\n      swap1\n      div\n      0xffffffffffffffffffffffffffffffffffffffff\n      and\n        /* \"contracts/Pool/PoolPig.sol\":6035:6057  _owner == _msgSender() */\n      0xffffffffffffffffffffffffffffffffffffffff\n      and\n      eq\n        /* \"contracts/Pool/PoolPig.sol\":6027:6094  require(_owner == _msgSender(), \"Ownable: caller is not the owner\") */\n      tag_267\n      jumpi\n      mload(0x40)\n      0x08c379a000000000000000000000000000000000000000000000000000000000\n      dup2\n      mstore\n      0x04\n      add\n      dup1\n      dup1\n      0x20\n      add\n      dup3\n      dup2\n      sub\n      dup3\n      mstore\n      0x20\n      dup2\n      mstore\n      0x20\n      add\n      dup1\n      0x4f776e61626c653a2063616c6c6572206973206e6f7420746865206f776e6572\n      dup2\n      mstore\n      pop\n      0x20\n      add\n      swap2\n      pop\n      pop\n      mload(0x40)\n      dup1\n      swap2\n      sub\n      swap1\n      revert\n    tag_267:\n        /* \"contracts/Pool/PoolPig.sol\":22705:22709  true */\n      0x01\n        /* \"contracts/Pool/PoolPig.sol\":22675:22693  _isExcludedFromFee */\n      0x06\n        /* \"contracts/Pool/PoolPig.sol\":22675:22702  _isExcludedFromFee[account] */\n      0x00\n        /* \"contracts/Pool/PoolPig.sol\":22694:22701  account */\n      dup4\n        /* \"contracts/Pool/PoolPig.sol\":22675:22702  _isExcludedFromFee[account] */\n      0xffffffffffffffffffffffffffffffffffffffff\n      and\n      0xffffffffffffffffffffffffffffffffffffffff\n      and\n      dup2\n      mstore\n      0x20\n      add\n      swap1\n      dup2\n      mstore\n      0x20\n      add\n      0x00\n      keccak256\n      0x00\n        /* \"contracts/Pool/PoolPig.sol\":22675:22709  _isExcludedFromFee[account] = true */\n      0x0100\n      exp\n      dup2\n      sload\n      dup2\n      0xff\n      mul\n      not\n      and\n      swap1\n      dup4\n      iszero\n      iszero\n      mul\n      or\n      swap1\n      sstore\n      pop\n        /* \"contracts/Pool/PoolPig.sol\":22607:22716  function excludeFromFee(address account) public onlyOwner {... */\n      pop\n      jump\t// out\n        /* \"contracts/Pool/PoolPig.sol\":20354:20781  function reflectionFromToken(uint256 tAmount, bool deductTransferFee) public view returns(uint256) {... */\n    tag_110:\n        /* \"contracts/Pool/PoolPig.sol\":20444:20451  uint256 */\n      0x00\n        /* \"contracts/Pool/PoolPig.sol\":15958:15976  1000000000 * 10**9 */\n      0x0de0b6b3a7640000\n        /* \"contracts/Pool/PoolPig.sol\":20471:20478  tAmount */\n      dup4\n        /* \"contracts/Pool/PoolPig.sol\":20471:20489  tAmount <= _tTotal */\n      gt\n      iszero\n        /* \"contracts/Pool/PoolPig.sol\":20463:20525  require(tAmount <= _tTotal, \"Amount must be less than supply\") */\n      tag_270\n      jumpi\n      mload(0x40)\n      0x08c379a000000000000000000000000000000000000000000000000000000000\n      dup2\n      mstore\n      0x04\n      add\n      dup1\n      dup1\n      0x20\n      add\n      dup3\n      dup2\n      sub\n      dup3\n      mstore\n      0x1f\n      dup2\n      mstore\n      0x20\n      add\n      dup1\n      0x416d6f756e74206d757374206265206c657373207468616e20737570706c7900\n      dup2\n      mstore\n      pop\n      0x20\n      add\n      swap2\n      pop\n      pop\n      mload(0x40)\n      dup1\n      swap2\n      sub\n      swap1\n      revert\n    tag_270:\n        /* \"contracts/Pool/PoolPig.sol\":20540:20557  deductTransferFee */\n      dup2\n        /* \"contracts/Pool/PoolPig.sol\":20535:20775  if (!deductTransferFee) {... */\n      tag_271\n      jumpi\n        /* \"contracts/Pool/PoolPig.sol\":20574:20589  uint256 rAmount */\n      0x00\n        /* \"contracts/Pool/PoolPig.sol\":20598:20617  _getValues(tAmount) */\n      tag_272\n        /* \"contracts/Pool/PoolPig.sol\":20609:20616  tAmount */\n      dup5\n        /* \"contracts/Pool/PoolPig.sol\":20598:20608  _getValues */\n      tag_251\n        /* \"contracts/Pool/PoolPig.sol\":20598:20617  _getValues(tAmount) */\n      jump\t// in\n    tag_272:\n        /* \"contracts/Pool/PoolPig.sol\":20573:20617  (uint256 rAmount,,,,,) = _getValues(tAmount) */\n      pop\n      pop\n      pop\n      pop\n      pop\n      swap1\n      pop\n        /* \"contracts/Pool/PoolPig.sol\":20638:20645  rAmount */\n      dup1\n        /* \"contracts/Pool/PoolPig.sol\":20631:20645  return rAmount */\n      swap2\n      pop\n      pop\n      jump(tag_269)\n        /* \"contracts/Pool/PoolPig.sol\":20535:20775  if (!deductTransferFee) {... */\n    tag_271:\n        /* \"contracts/Pool/PoolPig.sol\":20678:20701  uint256 rTransferAmount */\n      0x00\n        /* \"contracts/Pool/PoolPig.sol\":20709:20728  _getValues(tAmount) */\n      tag_274\n        /* \"contracts/Pool/PoolPig.sol\":20720:20727  tAmount */\n      dup5\n        /* \"contracts/Pool/PoolPig.sol\":20709:20719  _getValues */\n      tag_251\n        /* \"contracts/Pool/PoolPig.sol\":20709:20728  _getValues(tAmount) */\n      jump\t// in\n    tag_274:\n        /* \"contracts/Pool/PoolPig.sol\":20676:20728  (,uint256 rTransferAmount,,,,) = _getValues(tAmount) */\n      pop\n      pop\n      pop\n      pop\n      swap2\n      pop\n      pop\n        /* \"contracts/Pool/PoolPig.sol\":20749:20764  rTransferAmount */\n      dup1\n        /* \"contracts/Pool/PoolPig.sol\":20742:20764  return rTransferAmount */\n      swap2\n      pop\n      pop\n        /* \"contracts/Pool/PoolPig.sol\":20354:20781  function reflectionFromToken(uint256 tAmount, bool deductTransferFee) public view returns(uint256) {... */\n    tag_269:\n      swap3\n      swap2\n      pop\n      pop\n      jump\t// out\n        /* \"contracts/Pool/PoolPig.sol\":16425:16463  address public immutable uniswapV2Pair */\n    tag_113:\n      immutable(\"0x56d1aacedfc7d536224f9771bf9213a087360049f74dcef1ba0633f85c459fc6\")\n      dup2\n      jump\t// out\n        /* \"contracts/Pool/PoolPig.sol\":16501:16541  bool public swapAndLiquifyEnabled = true */\n    tag_116:\n      0x15\n      0x01\n      swap1\n      sload\n      swap1\n      0x0100\n      exp\n      swap1\n      div\n      0xff\n      and\n      dup2\n      jump\t// out\n        /* \"contracts/Pool/PoolPig.sol\":21042:21481  function excludeFromReward(address account) public onlyOwner() {... */\n    tag_120:\n        /* \"contracts/Pool/PoolPig.sol\":6045:6057  _msgSender() */\n      tag_276\n        /* \"contracts/Pool/PoolPig.sol\":6045:6055  _msgSender */\n      tag_196\n        /* \"contracts/Pool/PoolPig.sol\":6045:6057  _msgSender() */\n      jump\t// in\n    tag_276:\n        /* \"contracts/Pool/PoolPig.sol\":6035:6057  _owner == _msgSender() */\n      0xffffffffffffffffffffffffffffffffffffffff\n      and\n        /* \"contracts/Pool/PoolPig.sol\":6035:6041  _owner */\n      0x00\n      dup1\n      sload\n      swap1\n      0x0100\n      exp\n      swap1\n      div\n      0xffffffffffffffffffffffffffffffffffffffff\n      and\n        /* \"contracts/Pool/PoolPig.sol\":6035:6057  _owner == _msgSender() */\n      0xffffffffffffffffffffffffffffffffffffffff\n      and\n      eq\n        /* \"contracts/Pool/PoolPig.sol\":6027:6094  require(_owner == _msgSender(), \"Ownable: caller is not the owner\") */\n      tag_277\n      jumpi\n      mload(0x40)\n      0x08c379a000000000000000000000000000000000000000000000000000000000\n      dup2\n      mstore\n      0x04\n      add\n      dup1\n      dup1\n      0x20\n      add\n      dup3\n      dup2\n      sub\n      dup3\n      mstore\n      0x20\n      dup2\n      mstore\n      0x20\n      add\n      dup1\n      0x4f776e61626c653a2063616c6c6572206973206e6f7420746865206f776e6572\n      dup2\n      mstore\n      pop\n      0x20\n      add\n      swap2\n      pop\n      pop\n      mload(0x40)\n      dup1\n      swap2\n      sub\n      swap1\n      revert\n    tag_277:\n        /* \"contracts/Pool/PoolPig.sol\":21237:21248  _isExcluded */\n      0x07\n        /* \"contracts/Pool/PoolPig.sol\":21237:21257  _isExcluded[account] */\n      0x00\n        /* \"contracts/Pool/PoolPig.sol\":21249:21256  account */\n      dup3\n        /* \"contracts/Pool/PoolPig.sol\":21237:21257  _isExcluded[account] */\n      0xffffffffffffffffffffffffffffffffffffffff\n      and\n      0xffffffffffffffffffffffffffffffffffffffff\n      and\n      dup2\n      mstore\n      0x20\n      add\n      swap1\n      dup2\n      mstore\n      0x20\n      add\n      0x00\n      keccak256\n      0x00\n      swap1\n      sload\n      swap1\n      0x0100\n      exp\n      swap1\n      div\n      0xff\n      and\n        /* \"contracts/Pool/PoolPig.sol\":21236:21257  !_isExcluded[account] */\n      iszero\n        /* \"contracts/Pool/PoolPig.sol\":21228:21289  require(!_isExcluded[account], \"Account is already excluded\") */\n      tag_279\n      jumpi\n      mload(0x40)\n      0x08c379a000000000000000000000000000000000000000000000000000000000\n      dup2\n      mstore\n      0x04\n      add\n      dup1\n      dup1\n      0x20\n      add\n      dup3\n      dup2\n      sub\n      dup3\n      mstore\n      0x1b\n      dup2\n      mstore\n      0x20\n      add\n      dup1\n      0x4163636f756e7420697320616c7265616479206578636c756465640000000000\n      dup2\n      mstore\n      pop\n      0x20\n      add\n      swap2\n      pop\n      pop\n      mload(0x40)\n      dup1\n      swap2\n      sub\n      swap1\n      revert\n    tag_279:\n        /* \"contracts/Pool/PoolPig.sol\":21321:21322  0 */\n      0x00\n        /* \"contracts/Pool/PoolPig.sol\":21302:21309  _rOwned */\n      0x03\n        /* \"contracts/Pool/PoolPig.sol\":21302:21318  _rOwned[account] */\n      0x00\n        /* \"contracts/Pool/PoolPig.sol\":21310:21317  account */\n      dup4\n        /* \"contracts/Pool/PoolPig.sol\":21302:21318  _rOwned[account] */\n      0xffffffffffffffffffffffffffffffffffffffff\n      and\n      0xffffffffffffffffffffffffffffffffffffffff\n      and\n      dup2\n      mstore\n      0x20\n      add\n      swap1\n      dup2\n      mstore\n      0x20\n      add\n      0x00\n      keccak256\n      sload\n        /* \"contracts/Pool/PoolPig.sol\":21302:21322  _rOwned[account] > 0 */\n      gt\n        /* \"contracts/Pool/PoolPig.sol\":21299:21405  if(_rOwned[account] > 0) {... */\n      iszero\n      tag_280\n      jumpi\n        /* \"contracts/Pool/PoolPig.sol\":21357:21394  tokenFromReflection(_rOwned[account]) */\n      tag_281\n        /* \"contracts/Pool/PoolPig.sol\":21377:21384  _rOwned */\n      0x03\n        /* \"contracts/Pool/PoolPig.sol\":21377:21393  _rOwned[account] */\n      0x00\n        /* \"contracts/Pool/PoolPig.sol\":21385:21392  account */\n      dup4\n        /* \"contracts/Pool/PoolPig.sol\":21377:21393  _rOwned[account] */\n      0xffffffffffffffffffffffffffffffffffffffff\n      and\n      0xffffffffffffffffffffffffffffffffffffffff\n      and\n      dup2\n      mstore\n      0x20\n      add\n      swap1\n      dup2\n      mstore\n      0x20\n      add\n      0x00\n      keccak256\n      sload\n        /* \"contracts/Pool/PoolPig.sol\":21357:21376  tokenFromReflection */\n      tag_81\n        /* \"contracts/Pool/PoolPig.sol\":21357:21394  tokenFromReflection(_rOwned[account]) */\n      jump\t// in\n    tag_281:\n        /* \"contracts/Pool/PoolPig.sol\":21338:21345  _tOwned */\n      0x04\n        /* \"contracts/Pool/PoolPig.sol\":21338:21354  _tOwned[account] */\n      0x00\n        /* \"contracts/Pool/PoolPig.sol\":21346:21353  account */\n      dup4\n        /* \"contracts/Pool/PoolPig.sol\":21338:21354  _tOwned[account] */\n      0xffffffffffffffffffffffffffffffffffffffff\n      and\n      0xffffffffffffffffffffffffffffffffffffffff\n      and\n      dup2\n      mstore\n      0x20\n      add\n      swap1\n      dup2\n      mstore\n      0x20\n      add\n      0x00\n      keccak256\n        /* \"contracts/Pool/PoolPig.sol\":21338:21394  _tOwned[account] = tokenFromReflection(_rOwned[account]) */\n      dup2\n      swap1\n      sstore\n      pop\n        /* \"contracts/Pool/PoolPig.sol\":21299:21405  if(_rOwned[account] > 0) {... */\n    tag_280:\n        /* \"contracts/Pool/PoolPig.sol\":21437:21441  true */\n      0x01\n        /* \"contracts/Pool/PoolPig.sol\":21414:21425  _isExcluded */\n      0x07\n        /* \"contracts/Pool/PoolPig.sol\":21414:21434  _isExcluded[account] */\n      0x00\n        /* \"contracts/Pool/PoolPig.sol\":21426:21433  account */\n      dup4\n        /* \"contracts/Pool/PoolPig.sol\":21414:21434  _isExcluded[account] */\n      0xffffffffffffffffffffffffffffffffffffffff\n      and\n      0xffffffffffffffffffffffffffffffffffffffff\n      and\n      dup2\n      mstore\n      0x20\n      add\n      swap1\n      dup2\n      mstore\n      0x20\n      add\n      0x00\n      keccak256\n      0x00\n        /* \"contracts/Pool/PoolPig.sol\":21414:21441  _isExcluded[account] = true */\n      0x0100\n      exp\n      dup2\n      sload\n      dup2\n      0xff\n      mul\n      not\n      and\n      swap1\n      dup4\n      iszero\n      iszero\n      mul\n      or\n      swap1\n      sstore\n      pop\n        /* \"contracts/Pool/PoolPig.sol\":21451:21460  _excluded */\n      0x08\n        /* \"contracts/Pool/PoolPig.sol\":21466:21473  account */\n      dup2\n        /* \"contracts/Pool/PoolPig.sol\":21451:21474  _excluded.push(account) */\n      swap1\n      dup1\n      0x01\n      dup2\n      sload\n      add\n      dup1\n      dup3\n      sstore\n      dup1\n      swap2\n      pop\n      pop\n      0x01\n      swap1\n      sub\n      swap1\n      0x00\n      mstore\n      keccak256(0x00, 0x20)\n      add\n      0x00\n      swap1\n      swap2\n      swap1\n      swap2\n      swap1\n      swap2\n      0x0100\n      exp\n      dup2\n      sload\n      dup2\n      0xffffffffffffffffffffffffffffffffffffffff\n      mul\n      not\n      and\n      swap1\n      dup4\n      0xffffffffffffffffffffffffffffffffffffffff\n      and\n      mul\n      or\n      swap1\n      sstore\n      pop\n        /* \"contracts/Pool/PoolPig.sol\":21042:21481  function excludeFromReward(address account) public onlyOwner() {... */\n      pop\n      jump\t// out\n        /* \"contracts/Pool/PoolPig.sol\":27400:27521  function isExcludedFromFee(address account) public view returns(bool) {... */\n    tag_124:\n        /* \"contracts/Pool/PoolPig.sol\":27464:27468  bool */\n      0x00\n        /* \"contracts/Pool/PoolPig.sol\":27487:27505  _isExcludedFromFee */\n      0x06\n        /* \"contracts/Pool/PoolPig.sol\":27487:27514  _isExcludedFromFee[account] */\n      0x00\n        /* \"contracts/Pool/PoolPig.sol\":27506:27513  account */\n      dup4\n        /* \"contracts/Pool/PoolPig.sol\":27487:27514  _isExcludedFromFee[account] */\n      0xffffffffffffffffffffffffffffffffffffffff\n      and\n      0xffffffffffffffffffffffffffffffffffffffff\n      and\n      dup2\n      mstore\n      0x20\n      add\n      swap1\n      dup2\n      mstore\n      0x20\n      add\n      0x00\n      keccak256\n      0x00\n      swap1\n      sload\n      swap1\n      0x0100\n      exp\n      swap1\n      div\n      0xff\n      and\n        /* \"contracts/Pool/PoolPig.sol\":27480:27514  return _isExcludedFromFee[account] */\n      swap1\n      pop\n        /* \"contracts/Pool/PoolPig.sol\":27400:27521  function isExcludedFromFee(address account) public view returns(bool) {... */\n      swap2\n      swap1\n      pop\n      jump\t// out\n        /* \"contracts/Pool/PoolPig.sol\":16270:16302  uint256 public _liquidityFee = 3 */\n    tag_127:\n      sload(0x13)\n      dup2\n      jump\t// out\n        /* \"contracts/Pool/PoolPig.sol\":18273:18468  function balanceOf(address account) public view override returns (uint256) {... */\n    tag_131:\n        /* \"contracts/Pool/PoolPig.sol\":18339:18346  uint256 */\n      0x00\n        /* \"contracts/Pool/PoolPig.sol\":18362:18373  _isExcluded */\n      0x07\n        /* \"contracts/Pool/PoolPig.sol\":18362:18382  _isExcluded[account] */\n      0x00\n        /* \"contracts/Pool/PoolPig.sol\":18374:18381  account */\n      dup4\n        /* \"contracts/Pool/PoolPig.sol\":18362:18382  _isExcluded[account] */\n      0xffffffffffffffffffffffffffffffffffffffff\n      and\n      0xffffffffffffffffffffffffffffffffffffffff\n      and\n      dup2\n      mstore\n      0x20\n      add\n      swap1\n      dup2\n      mstore\n      0x20\n      add\n      0x00\n      keccak256\n      0x00\n      swap1\n      sload\n      swap1\n      0x0100\n      exp\n      swap1\n      div\n      0xff\n      and\n        /* \"contracts/Pool/PoolPig.sol\":18358:18407  if (_isExcluded[account]) return _tOwned[account] */\n      iszero\n      tag_285\n      jumpi\n        /* \"contracts/Pool/PoolPig.sol\":18391:18398  _tOwned */\n      0x04\n        /* \"contracts/Pool/PoolPig.sol\":18391:18407  _tOwned[account] */\n      0x00\n        /* \"contracts/Pool/PoolPig.sol\":18399:18406  account */\n      dup4\n        /* \"contracts/Pool/PoolPig.sol\":18391:18407  _tOwned[account] */\n      0xffffffffffffffffffffffffffffffffffffffff\n      and\n      0xffffffffffffffffffffffffffffffffffffffff\n      and\n      dup2\n      mstore\n      0x20\n      add\n      swap1\n      dup2\n      mstore\n      0x20\n      add\n      0x00\n      keccak256\n      sload\n        /* \"contracts/Pool/PoolPig.sol\":18384:18407  return _tOwned[account] */\n      swap1\n      pop\n      jump(tag_284)\n        /* \"contracts/Pool/PoolPig.sol\":18358:18407  if (_isExcluded[account]) return _tOwned[account] */\n    tag_285:\n        /* \"contracts/Pool/PoolPig.sol\":18424:18461  tokenFromReflection(_rOwned[account]) */\n      tag_286\n        /* \"contracts/Pool/PoolPig.sol\":18444:18451  _rOwned */\n      0x03\n        /* \"contracts/Pool/PoolPig.sol\":18444:18460  _rOwned[account] */\n      0x00\n        /* \"contracts/Pool/PoolPig.sol\":18452:18459  account */\n      dup5\n        /* \"contracts/Pool/PoolPig.sol\":18444:18460  _rOwned[account] */\n      0xffffffffffffffffffffffffffffffffffffffff\n      and\n      0xffffffffffffffffffffffffffffffffffffffff\n      and\n      dup2\n      mstore\n      0x20\n      add\n      swap1\n      dup2\n      mstore\n      0x20\n      add\n      0x00\n      keccak256\n      sload\n        /* \"contracts/Pool/PoolPig.sol\":18424:18443  tokenFromReflection */\n      tag_81\n        /* \"contracts/Pool/PoolPig.sol\":18424:18461  tokenFromReflection(_rOwned[account]) */\n      jump\t// in\n    tag_286:\n        /* \"contracts/Pool/PoolPig.sol\":18417:18461  return tokenFromReflection(_rOwned[account]) */\n      swap1\n      pop\n        /* \"contracts/Pool/PoolPig.sol\":18273:18468  function balanceOf(address account) public view override returns (uint256) {... */\n    tag_284:\n      swap2\n      swap1\n      pop\n      jump\t// out\n        /* \"contracts/Pool/PoolPig.sol\":6118:6263  function renounceOwnership() public virtual onlyOwner {... */\n    tag_134:\n        /* \"contracts/Pool/PoolPig.sol\":6045:6057  _msgSender() */\n      tag_288\n        /* \"contracts/Pool/PoolPig.sol\":6045:6055  _msgSender */\n      tag_196\n        /* \"contracts/Pool/PoolPig.sol\":6045:6057  _msgSender() */\n      jump\t// in\n    tag_288:\n        /* \"contracts/Pool/PoolPig.sol\":6035:6057  _owner == _msgSender() */\n      0xffffffffffffffffffffffffffffffffffffffff\n      and\n        /* \"contracts/Pool/PoolPig.sol\":6035:6041  _owner */\n      0x00\n      dup1\n      sload\n      swap1\n      0x0100\n      exp\n      swap1\n      div\n      0xffffffffffffffffffffffffffffffffffffffff\n      and\n        /* \"contracts/Pool/PoolPig.sol\":6035:6057  _owner == _msgSender() */\n      0xffffffffffffffffffffffffffffffffffffffff\n      and\n      eq\n        /* \"contracts/Pool/PoolPig.sol\":6027:6094  require(_owner == _msgSender(), \"Ownable: caller is not the owner\") */\n      tag_289\n      jumpi\n      mload(0x40)\n      0x08c379a000000000000000000000000000000000000000000000000000000000\n      dup2\n      mstore\n      0x04\n      add\n      dup1\n      dup1\n      0x20\n      add\n      dup3\n      dup2\n      sub\n      dup3\n      mstore\n      0x20\n      dup2\n      mstore\n      0x20\n      add\n      dup1\n      0x4f776e61626c653a2063616c6c6572206973206e6f7420746865206f776e6572\n      dup2\n      mstore\n      pop\n      0x20\n      add\n      swap2\n      pop\n      pop\n      mload(0x40)\n      dup1\n      swap2\n      sub\n      swap1\n      revert\n    tag_289:\n        /* \"contracts/Pool/PoolPig.sol\":6224:6225  0 */\n      0x00\n        /* \"contracts/Pool/PoolPig.sol\":6187:6227  OwnershipTransferred(_owner, address(0)) */\n      0xffffffffffffffffffffffffffffffffffffffff\n      and\n        /* \"contracts/Pool/PoolPig.sol\":6208:6214  _owner */\n      0x00\n      dup1\n      sload\n      swap1\n      0x0100\n      exp\n      swap1\n      div\n      0xffffffffffffffffffffffffffffffffffffffff\n      and\n        /* \"contracts/Pool/PoolPig.sol\":6187:6227  OwnershipTransferred(_owner, address(0)) */\n      0xffffffffffffffffffffffffffffffffffffffff\n      and\n      0x8be0079c531659141344cd1fd0a4f28419497f9722a3daafe3b4186f6b6457e0\n      mload(0x40)\n      mload(0x40)\n      dup1\n      swap2\n      sub\n      swap1\n      log3\n        /* \"contracts/Pool/PoolPig.sol\":6254:6255  0 */\n      0x00\n        /* \"contracts/Pool/PoolPig.sol\":6237:6243  _owner */\n      dup1\n      0x00\n        /* \"contracts/Pool/PoolPig.sol\":6237:6256  _owner = address(0) */\n      0x0100\n      exp\n      dup2\n      sload\n      dup2\n      0xffffffffffffffffffffffffffffffffffffffff\n      mul\n      not\n      and\n      swap1\n      dup4\n      0xffffffffffffffffffffffffffffffffffffffff\n      and\n      mul\n      or\n      swap1\n      sstore\n      pop\n        /* \"contracts/Pool/PoolPig.sol\":6118:6263  function renounceOwnership() public virtual onlyOwner {... */\n      jump\t// out\n        /* \"contracts/Pool/PoolPig.sol\":16585:16628  uint256 public _maxTxAmount = 50000 * 10**9 */\n    tag_137:\n      sload(0x16)\n      dup2\n      jump\t// out\n        /* \"contracts/Pool/PoolPig.sol\":19763:19881  function isExcludedFromReward(address account) public view returns (bool) {... */\n    tag_141:\n        /* \"contracts/Pool/PoolPig.sol\":19831:19835  bool */\n      0x00\n        /* \"contracts/Pool/PoolPig.sol\":19854:19865  _isExcluded */\n      0x07\n        /* \"contracts/Pool/PoolPig.sol\":19854:19874  _isExcluded[account] */\n      0x00\n        /* \"contracts/Pool/PoolPig.sol\":19866:19873  account */\n      dup4\n        /* \"contracts/Pool/PoolPig.sol\":19854:19874  _isExcluded[account] */\n      0xffffffffffffffffffffffffffffffffffffffff\n      and\n      0xffffffffffffffffffffffffffffffffffffffff\n      and\n      dup2\n      mstore\n      0x20\n      add\n      swap1\n      dup2\n      mstore\n      0x20\n      add\n      0x00\n      keccak256\n      0x00\n      swap1\n      sload\n      swap1\n      0x0100\n      exp\n      swap1\n      div\n      0xff\n      and\n        /* \"contracts/Pool/PoolPig.sol\":19847:19874  return _isExcluded[account] */\n      swap1\n      pop\n        /* \"contracts/Pool/PoolPig.sol\":19763:19881  function isExcludedFromReward(address account) public view returns (bool) {... */\n      swap2\n      swap1\n      pop\n      jump\t// out\n        /* \"contracts/Pool/PoolPig.sol\":5831:5908  function owner() public view returns (address) {... */\n    tag_144:\n        /* \"contracts/Pool/PoolPig.sol\":5869:5876  address */\n      0x00\n        /* \"contracts/Pool/PoolPig.sol\":5895:5901  _owner */\n      dup1\n      0x00\n      swap1\n      sload\n      swap1\n      0x0100\n      exp\n      swap1\n      div\n      0xffffffffffffffffffffffffffffffffffffffff\n      and\n        /* \"contracts/Pool/PoolPig.sol\":5888:5901  return _owner */\n      swap1\n      pop\n        /* \"contracts/Pool/PoolPig.sol\":5831:5908  function owner() public view returns (address) {... */\n      swap1\n      jump\t// out\n        /* \"contracts/Pool/PoolPig.sol\":22950:23070  function setLiquidityFeePercent(uint256 liquidityFee) external onlyOwner() {... */\n    tag_148:\n        /* \"contracts/Pool/PoolPig.sol\":6045:6057  _msgSender() */\n      tag_294\n        /* \"contracts/Pool/PoolPig.sol\":6045:6055  _msgSender */\n      tag_196\n        /* \"contracts/Pool/PoolPig.sol\":6045:6057  _msgSender() */\n      jump\t// in\n    tag_294:\n        /* \"contracts/Pool/PoolPig.sol\":6035:6057  _owner == _msgSender() */\n      0xffffffffffffffffffffffffffffffffffffffff\n      and\n        /* \"contracts/Pool/PoolPig.sol\":6035:6041  _owner */\n      0x00\n      dup1\n      sload\n      swap1\n      0x0100\n      exp\n      swap1\n      div\n      0xffffffffffffffffffffffffffffffffffffffff\n      and\n        /* \"contracts/Pool/PoolPig.sol\":6035:6057  _owner == _msgSender() */\n      0xffffffffffffffffffffffffffffffffffffffff\n      and\n      eq\n        /* \"contracts/Pool/PoolPig.sol\":6027:6094  require(_owner == _msgSender(), \"Ownable: caller is not the owner\") */\n      tag_295\n      jumpi\n      mload(0x40)\n      0x08c379a000000000000000000000000000000000000000000000000000000000\n      dup2\n      mstore\n      0x04\n      add\n      dup1\n      dup1\n      0x20\n      add\n      dup3\n      dup2\n      sub\n      dup3\n      mstore\n      0x20\n      dup2\n      mstore\n      0x20\n      add\n      dup1\n      0x4f776e61626c653a2063616c6c6572206973206e6f7420746865206f776e6572\n      dup2\n      mstore\n      pop\n      0x20\n      add\n      swap2\n      pop\n      pop\n      mload(0x40)\n      dup1\n      swap2\n      sub\n      swap1\n      revert\n    tag_295:\n        /* \"contracts/Pool/PoolPig.sol\":23051:23063  liquidityFee */\n      dup1\n        /* \"contracts/Pool/PoolPig.sol\":23035:23048  _liquidityFee */\n      0x13\n        /* \"contracts/Pool/PoolPig.sol\":23035:23063  _liquidityFee = liquidityFee */\n      dup2\n      swap1\n      sstore\n      pop\n        /* \"contracts/Pool/PoolPig.sol\":22950:23070  function setLiquidityFeePercent(uint256 liquidityFee) external onlyOwner() {... */\n      pop\n      jump\t// out\n        /* \"contracts/Pool/PoolPig.sol\":17996:18081  function symbol() public view returns (string memory) {... */\n    tag_151:\n        /* \"contracts/Pool/PoolPig.sol\":18035:18048  string memory */\n      0x60\n        /* \"contracts/Pool/PoolPig.sol\":18067:18074  _symbol */\n      0x0f\n        /* \"contracts/Pool/PoolPig.sol\":18060:18074  return _symbol */\n      dup1\n      sload\n      0x01\n      dup2\n      0x01\n      and\n      iszero\n      0x0100\n      mul\n      sub\n      and\n      0x02\n      swap1\n      div\n      dup1\n      0x1f\n      add\n      0x20\n      dup1\n      swap2\n      div\n      mul\n      0x20\n      add\n      mload(0x40)\n      swap1\n      dup2\n      add\n      0x40\n      mstore\n      dup1\n      swap3\n      swap2\n      swap1\n      dup2\n      dup2\n      mstore\n      0x20\n      add\n      dup3\n      dup1\n      sload\n      0x01\n      dup2\n      0x01\n      and\n      iszero\n      0x0100\n      mul\n      sub\n      and\n      0x02\n      swap1\n      div\n      dup1\n      iszero\n      tag_298\n      jumpi\n      dup1\n      0x1f\n      lt\n      tag_299\n      jumpi\n      0x0100\n      dup1\n      dup4\n      sload\n      div\n      mul\n      dup4\n      mstore\n      swap2\n      0x20\n      add\n      swap2\n      jump(tag_298)\n    tag_299:\n      dup3\n      add\n      swap2\n      swap1\n      0x00\n      mstore\n      keccak256(0x00, 0x20)\n      swap1\n    tag_300:\n      dup2\n      sload\n      dup2\n      mstore\n      swap1\n      0x01\n      add\n      swap1\n      0x20\n      add\n      dup1\n      dup4\n      gt\n      tag_300\n      jumpi\n      dup3\n      swap1\n      sub\n      0x1f\n      and\n      dup3\n      add\n      swap2\n    tag_298:\n      pop\n      pop\n      pop\n      pop\n      pop\n      swap1\n      pop\n        /* \"contracts/Pool/PoolPig.sol\":17996:18081  function symbol() public view returns (string memory) {... */\n      swap1\n      jump\t// out\n        /* \"contracts/Pool/PoolPig.sol\":19491:19757  function decreaseAllowance(address spender, uint256 subtractedValue) public virtual returns (bool) {... */\n    tag_159:\n        /* \"contracts/Pool/PoolPig.sol\":19584:19588  bool */\n      0x00\n        /* \"contracts/Pool/PoolPig.sol\":19600:19729  _approve(_msgSender(), spender, _allowances[_msgSender()][spender].sub(subtractedValue, \"ERC20: decreased allowance below zero\")) */\n      tag_302\n        /* \"contracts/Pool/PoolPig.sol\":19609:19621  _msgSender() */\n      tag_303\n        /* \"contracts/Pool/PoolPig.sol\":19609:19619  _msgSender */\n      tag_196\n        /* \"contracts/Pool/PoolPig.sol\":19609:19621  _msgSender() */\n      jump\t// in\n    tag_303:\n        /* \"contracts/Pool/PoolPig.sol\":19623:19630  spender */\n      dup5\n        /* \"contracts/Pool/PoolPig.sol\":19632:19728  _allowances[_msgSender()][spender].sub(subtractedValue, \"ERC20: decreased allowance below zero\") */\n      tag_304\n        /* \"contracts/Pool/PoolPig.sol\":19671:19686  subtractedValue */\n      dup6\n        /* \"contracts/Pool/PoolPig.sol\":19632:19728  _allowances[_msgSender()][spender].sub(subtractedValue, \"ERC20: decreased allowance below zero\") */\n      mload(0x40)\n      dup1\n      0x60\n      add\n      0x40\n      mstore\n      dup1\n      0x25\n      dup2\n      mstore\n      0x20\n      add\n      data_f8b476f7d28209d77d4a4ac1fe36b9f8259aa1bb6bddfa6e89de7e51615cf8a8\n      0x25\n      swap2\n      codecopy\n        /* \"contracts/Pool/PoolPig.sol\":19632:19643  _allowances */\n      0x05\n        /* \"contracts/Pool/PoolPig.sol\":19632:19657  _allowances[_msgSender()] */\n      0x00\n        /* \"contracts/Pool/PoolPig.sol\":19644:19656  _msgSender() */\n      tag_305\n        /* \"contracts/Pool/PoolPig.sol\":19644:19654  _msgSender */\n      tag_196\n        /* \"contracts/Pool/PoolPig.sol\":19644:19656  _msgSender() */\n      jump\t// in\n    tag_305:\n        /* \"contracts/Pool/PoolPig.sol\":19632:19657  _allowances[_msgSender()] */\n      0xffffffffffffffffffffffffffffffffffffffff\n      and\n      0xffffffffffffffffffffffffffffffffffffffff\n      and\n      dup2\n      mstore\n      0x20\n      add\n      swap1\n      dup2\n      mstore\n      0x20\n      add\n      0x00\n      keccak256\n        /* \"contracts/Pool/PoolPig.sol\":19632:19666  _allowances[_msgSender()][spender] */\n      0x00\n        /* \"contracts/Pool/PoolPig.sol\":19658:19665  spender */\n      dup11\n        /* \"contracts/Pool/PoolPig.sol\":19632:19666  _allowances[_msgSender()][spender] */\n      0xffffffffffffffffffffffffffffffffffffffff\n      and\n      0xffffffffffffffffffffffffffffffffffffffff\n      and\n      dup2\n      mstore\n      0x20\n      add\n      swap1\n      dup2\n      mstore\n      0x20\n      add\n      0x00\n      keccak256\n      sload\n        /* \"contracts/Pool/PoolPig.sol\":19632:19670  _allowances[_msgSender()][spender].sub */\n      tag_216\n      swap1\n        /* \"contracts/Pool/PoolPig.sol\":19632:19728  _allowances[_msgSender()][spender].sub(subtractedValue, \"ERC20: decreased allowance below zero\") */\n      swap3\n      swap2\n      swap1\n      0xffffffff\n      and\n      jump\t// in\n    tag_304:\n        /* \"contracts/Pool/PoolPig.sol\":19600:19608  _approve */\n      tag_206\n        /* \"contracts/Pool/PoolPig.sol\":19600:19729  _approve(_msgSender(), spender, _allowances[_msgSender()][spender].sub(subtractedValue, \"ERC20: decreased allowance below zero\")) */\n      jump\t// in\n    tag_302:\n        /* \"contracts/Pool/PoolPig.sol\":19746:19750  true */\n      0x01\n        /* \"contracts/Pool/PoolPig.sol\":19739:19750  return true */\n      swap1\n      pop\n        /* \"contracts/Pool/PoolPig.sol\":19491:19757  function decreaseAllowance(address spender, uint256 subtractedValue) public virtual returns (bool) {... */\n      swap3\n      swap2\n      pop\n      pop\n      jump\t// out\n        /* \"contracts/Pool/PoolPig.sol\":6957:7245  function unlock() public virtual {... */\n    tag_162:\n        /* \"contracts/Pool/PoolPig.sol\":7026:7036  msg.sender */\n      caller\n        /* \"contracts/Pool/PoolPig.sol\":7008:7036  _previousOwner == msg.sender */\n      0xffffffffffffffffffffffffffffffffffffffff\n      and\n        /* \"contracts/Pool/PoolPig.sol\":7008:7022  _previousOwner */\n      0x01\n      0x00\n      swap1\n      sload\n      swap1\n      0x0100\n      exp\n      swap1\n      div\n      0xffffffffffffffffffffffffffffffffffffffff\n      and\n        /* \"contracts/Pool/PoolPig.sol\":7008:7036  _previousOwner == msg.sender */\n      0xffffffffffffffffffffffffffffffffffffffff\n      and\n      eq\n        /* \"contracts/Pool/PoolPig.sol\":7000:7076  require(_previousOwner == msg.sender, \"You don't have permission to unlock\") */\n      tag_307\n      jumpi\n      mload(0x40)\n      0x08c379a000000000000000000000000000000000000000000000000000000000\n      dup2\n      mstore\n      0x04\n      add\n      dup1\n      dup1\n      0x20\n      add\n      dup3\n      dup2\n      sub\n      dup3\n      mstore\n      0x23\n      dup2\n      mstore\n      0x20\n      add\n      dup1\n      data_f4eb59be3df39931213d374c3658377dca3f0d2b46b7bc965af767c57c74b611\n      0x23\n      swap2\n      codecopy\n      0x40\n      add\n      swap2\n      pop\n      pop\n      mload(0x40)\n      dup1\n      swap2\n      sub\n      swap1\n      revert\n    tag_307:\n        /* \"contracts/Pool/PoolPig.sol\":7100:7109  _lockTime */\n      sload(0x02)\n        /* \"contracts/Pool/PoolPig.sol\":7094:7097  now */\n      timestamp\n        /* \"contracts/Pool/PoolPig.sol\":7094:7109  now > _lockTime */\n      gt\n        /* \"contracts/Pool/PoolPig.sol\":7086:7146  require(now > _lockTime , \"Contract is locked until 7 days\") */\n      tag_308\n      jumpi\n      mload(0x40)\n      0x08c379a000000000000000000000000000000000000000000000000000000000\n      dup2\n      mstore\n      0x04\n      add\n      dup1\n      dup1\n      0x20\n      add\n      dup3\n      dup2\n      sub\n      dup3\n      mstore\n      0x1f\n      dup2\n      mstore\n      0x20\n      add\n      dup1\n      0x436f6e7472616374206973206c6f636b656420756e74696c2037206461797300\n      dup2\n      mstore\n      pop\n      0x20\n      add\n      swap2\n      pop\n      pop\n      mload(0x40)\n      dup1\n      swap2\n      sub\n      swap1\n      revert\n    tag_308:\n        /* \"contracts/Pool/PoolPig.sol\":7190:7204  _previousOwner */\n      0x01\n      0x00\n      swap1\n      sload\n      swap1\n      0x0100\n      exp\n      swap1\n      div\n      0xffffffffffffffffffffffffffffffffffffffff\n      and\n        /* \"contracts/Pool/PoolPig.sol\":7161:7205  OwnershipTransferred(_owner, _previousOwner) */\n      0xffffffffffffffffffffffffffffffffffffffff\n      and\n        /* \"contracts/Pool/PoolPig.sol\":7182:7188  _owner */\n      0x00\n      dup1\n      sload\n      swap1\n      0x0100\n      exp\n      swap1\n      div\n      0xffffffffffffffffffffffffffffffffffffffff\n      and\n        /* \"contracts/Pool/PoolPig.sol\":7161:7205  OwnershipTransferred(_owner, _previousOwner) */\n      0xffffffffffffffffffffffffffffffffffffffff\n      and\n      0x8be0079c531659141344cd1fd0a4f28419497f9722a3daafe3b4186f6b6457e0\n      mload(0x40)\n      mload(0x40)\n      dup1\n      swap2\n      sub\n      swap1\n      log3\n        /* \"contracts/Pool/PoolPig.sol\":7224:7238  _previousOwner */\n      0x01\n      0x00\n      swap1\n      sload\n      swap1\n      0x0100\n      exp\n      swap1\n      div\n      0xffffffffffffffffffffffffffffffffffffffff\n      and\n        /* \"contracts/Pool/PoolPig.sol\":7215:7221  _owner */\n      0x00\n      dup1\n        /* \"contracts/Pool/PoolPig.sol\":7215:7238  _owner = _previousOwner */\n      0x0100\n      exp\n      dup2\n      sload\n      dup2\n      0xffffffffffffffffffffffffffffffffffffffff\n      mul\n      not\n      and\n      swap1\n      dup4\n      0xffffffffffffffffffffffffffffffffffffffff\n      and\n      mul\n      or\n      swap1\n      sstore\n      pop\n        /* \"contracts/Pool/PoolPig.sol\":6957:7245  function unlock() public virtual {... */\n      jump\t// out\n        /* \"contracts/Pool/PoolPig.sol\":18474:18638  function transfer(address recipient, uint256 amount) public override returns (bool) {... */\n    tag_166:\n        /* \"contracts/Pool/PoolPig.sol\":18552:18556  bool */\n      0x00\n        /* \"contracts/Pool/PoolPig.sol\":18568:18610  _transfer(_msgSender(), recipient, amount) */\n      tag_310\n        /* \"contracts/Pool/PoolPig.sol\":18578:18590  _msgSender() */\n      tag_311\n        /* \"contracts/Pool/PoolPig.sol\":18578:18588  _msgSender */\n      tag_196\n        /* \"contracts/Pool/PoolPig.sol\":18578:18590  _msgSender() */\n      jump\t// in\n    tag_311:\n        /* \"contracts/Pool/PoolPig.sol\":18592:18601  recipient */\n      dup5\n        /* \"contracts/Pool/PoolPig.sol\":18603:18609  amount */\n      dup5\n        /* \"contracts/Pool/PoolPig.sol\":18568:18577  _transfer */\n      tag_211\n        /* \"contracts/Pool/PoolPig.sol\":18568:18610  _transfer(_msgSender(), recipient, amount) */\n      jump\t// in\n    tag_310:\n        /* \"contracts/Pool/PoolPig.sol\":18627:18631  true */\n      0x01\n        /* \"contracts/Pool/PoolPig.sol\":18620:18631  return true */\n      swap1\n      pop\n        /* \"contracts/Pool/PoolPig.sol\":18474:18638  function transfer(address recipient, uint256 amount) public override returns (bool) {... */\n      swap3\n      swap2\n      pop\n      pop\n      jump\t// out\n        /* \"contracts/Pool/PoolPig.sol\":6515:6602  function geUnlockTime() public view returns (uint256) {... */\n    tag_169:\n        /* \"contracts/Pool/PoolPig.sol\":6560:6567  uint256 */\n      0x00\n        /* \"contracts/Pool/PoolPig.sol\":6586:6595  _lockTime */\n      sload(0x02)\n        /* \"contracts/Pool/PoolPig.sol\":6579:6595  return _lockTime */\n      swap1\n      pop\n        /* \"contracts/Pool/PoolPig.sol\":6515:6602  function geUnlockTime() public view returns (uint256) {... */\n      swap1\n      jump\t// out\n        /* \"contracts/Pool/PoolPig.sol\":23243:23411  function setSwapAndLiquifyEnabled(bool _enabled) public onlyOwner {... */\n    tag_173:\n        /* \"contracts/Pool/PoolPig.sol\":6045:6057  _msgSender() */\n      tag_314\n        /* \"contracts/Pool/PoolPig.sol\":6045:6055  _msgSender */\n      tag_196\n        /* \"contracts/Pool/PoolPig.sol\":6045:6057  _msgSender() */\n      jump\t// in\n    tag_314:\n        /* \"contracts/Pool/PoolPig.sol\":6035:6057  _owner == _msgSender() */\n      0xffffffffffffffffffffffffffffffffffffffff\n      and\n        /* \"contracts/Pool/PoolPig.sol\":6035:6041  _owner */\n      0x00\n      dup1\n      sload\n      swap1\n      0x0100\n      exp\n      swap1\n      div\n      0xffffffffffffffffffffffffffffffffffffffff\n      and\n        /* \"contracts/Pool/PoolPig.sol\":6035:6057  _owner == _msgSender() */\n      0xffffffffffffffffffffffffffffffffffffffff\n      and\n      eq\n        /* \"contracts/Pool/PoolPig.sol\":6027:6094  require(_owner == _msgSender(), \"Ownable: caller is not the owner\") */\n      tag_315\n      jumpi\n      mload(0x40)\n      0x08c379a000000000000000000000000000000000000000000000000000000000\n      dup2\n      mstore\n      0x04\n      add\n      dup1\n      dup1\n      0x20\n      add\n      dup3\n      dup2\n      sub\n      dup3\n      mstore\n      0x20\n      dup2\n      mstore\n      0x20\n      add\n      dup1\n      0x4f776e61626c653a2063616c6c6572206973206e6f7420746865206f776e6572\n      dup2\n      mstore\n      pop\n      0x20\n      add\n      swap2\n      pop\n      pop\n      mload(0x40)\n      dup1\n      swap2\n      sub\n      swap1\n      revert\n    tag_315:\n        /* \"contracts/Pool/PoolPig.sol\":23343:23351  _enabled */\n      dup1\n        /* \"contracts/Pool/PoolPig.sol\":23319:23340  swapAndLiquifyEnabled */\n      0x15\n      0x01\n        /* \"contracts/Pool/PoolPig.sol\":23319:23351  swapAndLiquifyEnabled = _enabled */\n      0x0100\n      exp\n      dup2\n      sload\n      dup2\n      0xff\n      mul\n      not\n      and\n      swap1\n      dup4\n      iszero\n      iszero\n      mul\n      or\n      swap1\n      sstore\n      pop\n        /* \"contracts/Pool/PoolPig.sol\":23366:23404  SwapAndLiquifyEnabledUpdated(_enabled) */\n      0x53726dfcaf90650aa7eb35524f4d3220f07413c8d6cb404cc8c18bf5591bc159\n        /* \"contracts/Pool/PoolPig.sol\":23395:23403  _enabled */\n      dup2\n        /* \"contracts/Pool/PoolPig.sol\":23366:23404  SwapAndLiquifyEnabledUpdated(_enabled) */\n      mload(0x40)\n      dup1\n      dup3\n      iszero\n      iszero\n      dup2\n      mstore\n      0x20\n      add\n      swap2\n      pop\n      pop\n      mload(0x40)\n      dup1\n      swap2\n      sub\n      swap1\n      log1\n        /* \"contracts/Pool/PoolPig.sol\":23243:23411  function setSwapAndLiquifyEnabled(bool _enabled) public onlyOwner {... */\n      pop\n      jump\t// out\n        /* \"contracts/Pool/PoolPig.sol\":23079:23237  function setMaxTxPercent(uint256 maxTxPercent) external onlyOwner() {... */\n    tag_177:\n        /* \"contracts/Pool/PoolPig.sol\":6045:6057  _msgSender() */\n      tag_318\n        /* \"contracts/Pool/PoolPig.sol\":6045:6055  _msgSender */\n      tag_196\n        /* \"contracts/Pool/PoolPig.sol\":6045:6057  _msgSender() */\n      jump\t// in\n    tag_318:\n        /* \"contracts/Pool/PoolPig.sol\":6035:6057  _owner == _msgSender() */\n      0xffffffffffffffffffffffffffffffffffffffff\n      and\n        /* \"contracts/Pool/PoolPig.sol\":6035:6041  _owner */\n      0x00\n      dup1\n      sload\n      swap1\n      0x0100\n      exp\n      swap1\n      div\n      0xffffffffffffffffffffffffffffffffffffffff\n      and\n        /* \"contracts/Pool/PoolPig.sol\":6035:6057  _owner == _msgSender() */\n      0xffffffffffffffffffffffffffffffffffffffff\n      and\n      eq\n        /* \"contracts/Pool/PoolPig.sol\":6027:6094  require(_owner == _msgSender(), \"Ownable: caller is not the owner\") */\n      tag_319\n      jumpi\n      mload(0x40)\n      0x08c379a000000000000000000000000000000000000000000000000000000000\n      dup2\n      mstore\n      0x04\n      add\n      dup1\n      dup1\n      0x20\n      add\n      dup3\n      dup2\n      sub\n      dup3\n      mstore\n      0x20\n      dup2\n      mstore\n      0x20\n      add\n      dup1\n      0x4f776e61626c653a2063616c6c6572206973206e6f7420746865206f776e6572\n      dup2\n      mstore\n      pop\n      0x20\n      add\n      swap2\n      pop\n      pop\n      mload(0x40)\n      dup1\n      swap2\n      sub\n      swap1\n      revert\n    tag_319:\n        /* \"contracts/Pool/PoolPig.sol\":23172:23230  _tTotal.mul(maxTxPercent).div(... */\n      tag_321\n        /* \"contracts/Pool/PoolPig.sol\":23215:23220  10**2 */\n      0x64\n        /* \"contracts/Pool/PoolPig.sol\":23172:23197  _tTotal.mul(maxTxPercent) */\n      tag_322\n        /* \"contracts/Pool/PoolPig.sol\":23184:23196  maxTxPercent */\n      dup4\n        /* \"contracts/Pool/PoolPig.sol\":15958:15976  1000000000 * 10**9 */\n      0x0de0b6b3a7640000\n        /* \"contracts/Pool/PoolPig.sol\":23172:23183  _tTotal.mul */\n      tag_323\n      swap1\n        /* \"contracts/Pool/PoolPig.sol\":23172:23197  _tTotal.mul(maxTxPercent) */\n      swap2\n      swap1\n      0xffffffff\n      and\n      jump\t// in\n    tag_322:\n        /* \"contracts/Pool/PoolPig.sol\":23172:23201  _tTotal.mul(maxTxPercent).div */\n      tag_222\n      swap1\n        /* \"contracts/Pool/PoolPig.sol\":23172:23230  _tTotal.mul(maxTxPercent).div(... */\n      swap2\n      swap1\n      0xffffffff\n      and\n      jump\t// in\n    tag_321:\n        /* \"contracts/Pool/PoolPig.sol\":23157:23169  _maxTxAmount */\n      0x16\n        /* \"contracts/Pool/PoolPig.sol\":23157:23230  _maxTxAmount = _tTotal.mul(maxTxPercent).div(... */\n      dup2\n      swap1\n      sstore\n      pop\n        /* \"contracts/Pool/PoolPig.sol\":23079:23237  function setMaxTxPercent(uint256 maxTxPercent) external onlyOwner() {... */\n      pop\n      jump\t// out\n        /* \"contracts/Pool/PoolPig.sol\":6675:6884  function lock(uint256 time) public virtual onlyOwner {... */\n    tag_181:\n        /* \"contracts/Pool/PoolPig.sol\":6045:6057  _msgSender() */\n      tag_325\n        /* \"contracts/Pool/PoolPig.sol\":6045:6055  _msgSender */\n      tag_196\n        /* \"contracts/Pool/PoolPig.sol\":6045:6057  _msgSender() */\n      jump\t// in\n    tag_325:\n        /* \"contracts/Pool/PoolPig.sol\":6035:6057  _owner == _msgSender() */\n      0xffffffffffffffffffffffffffffffffffffffff\n      and\n        /* \"contracts/Pool/PoolPig.sol\":6035:6041  _owner */\n      0x00\n      dup1\n      sload\n      swap1\n      0x0100\n      exp\n      swap1\n      div\n      0xffffffffffffffffffffffffffffffffffffffff\n      and\n        /* \"contracts/Pool/PoolPig.sol\":6035:6057  _owner == _msgSender() */\n      0xffffffffffffffffffffffffffffffffffffffff\n      and\n      eq\n        /* \"contracts/Pool/PoolPig.sol\":6027:6094  require(_owner == _msgSender(), \"Ownable: caller is not the owner\") */\n      tag_326\n      jumpi\n      mload(0x40)\n      0x08c379a000000000000000000000000000000000000000000000000000000000\n      dup2\n      mstore\n      0x04\n      add\n      dup1\n      dup1\n      0x20\n      add\n      dup3\n      dup2\n      sub\n      dup3\n      mstore\n      0x20\n      dup2\n      mstore\n      0x20\n      add\n      dup1\n      0x4f776e61626c653a2063616c6c6572206973206e6f7420746865206f776e6572\n      dup2\n      mstore\n      pop\n      0x20\n      add\n      swap2\n      pop\n      pop\n      mload(0x40)\n      dup1\n      swap2\n      sub\n      swap1\n      revert\n    tag_326:\n        /* \"contracts/Pool/PoolPig.sol\":6755:6761  _owner */\n      0x00\n      dup1\n      sload\n      swap1\n      0x0100\n      exp\n      swap1\n      div\n      0xffffffffffffffffffffffffffffffffffffffff\n      and\n        /* \"contracts/Pool/PoolPig.sol\":6738:6752  _previousOwner */\n      0x01\n      0x00\n        /* \"contracts/Pool/PoolPig.sol\":6738:6761  _previousOwner = _owner */\n      0x0100\n      exp\n      dup2\n      sload\n      dup2\n      0xffffffffffffffffffffffffffffffffffffffff\n      mul\n      not\n      and\n      swap1\n      dup4\n      0xffffffffffffffffffffffffffffffffffffffff\n      and\n      mul\n      or\n      swap1\n      sstore\n      pop\n        /* \"contracts/Pool/PoolPig.sol\":6788:6789  0 */\n      0x00\n        /* \"contracts/Pool/PoolPig.sol\":6771:6777  _owner */\n      dup1\n      0x00\n        /* \"contracts/Pool/PoolPig.sol\":6771:6790  _owner = address(0) */\n      0x0100\n      exp\n      dup2\n      sload\n      dup2\n      0xffffffffffffffffffffffffffffffffffffffff\n      mul\n      not\n      and\n      swap1\n      dup4\n      0xffffffffffffffffffffffffffffffffffffffff\n      and\n      mul\n      or\n      swap1\n      sstore\n      pop\n        /* \"contracts/Pool/PoolPig.sol\":6818:6822  time */\n      dup1\n        /* \"contracts/Pool/PoolPig.sol\":6812:6815  now */\n      timestamp\n        /* \"contracts/Pool/PoolPig.sol\":6812:6822  now + time */\n      add\n        /* \"contracts/Pool/PoolPig.sol\":6800:6809  _lockTime */\n      0x02\n        /* \"contracts/Pool/PoolPig.sol\":6800:6822  _lockTime = now + time */\n      dup2\n      swap1\n      sstore\n      pop\n        /* \"contracts/Pool/PoolPig.sol\":6874:6875  0 */\n      0x00\n        /* \"contracts/Pool/PoolPig.sol\":6837:6877  OwnershipTransferred(_owner, address(0)) */\n      0xffffffffffffffffffffffffffffffffffffffff\n      and\n        /* \"contracts/Pool/PoolPig.sol\":6858:6864  _owner */\n      0x00\n      dup1\n      sload\n      swap1\n      0x0100\n      exp\n      swap1\n      div\n      0xffffffffffffffffffffffffffffffffffffffff\n      and\n        /* \"contracts/Pool/PoolPig.sol\":6837:6877  OwnershipTransferred(_owner, address(0)) */\n      0xffffffffffffffffffffffffffffffffffffffff\n      and\n      0x8be0079c531659141344cd1fd0a4f28419497f9722a3daafe3b4186f6b6457e0\n      mload(0x40)\n      mload(0x40)\n      dup1\n      swap2\n      sub\n      swap1\n      log3\n        /* \"contracts/Pool/PoolPig.sol\":6675:6884  function lock(uint256 time) public virtual onlyOwner {... */\n      pop\n      jump\t// out\n        /* \"contracts/Pool/PoolPig.sol\":18644:18785  function allowance(address owner, address spender) public view override returns (uint256) {... */\n    tag_185:\n        /* \"contracts/Pool/PoolPig.sol\":18725:18732  uint256 */\n      0x00\n        /* \"contracts/Pool/PoolPig.sol\":18751:18762  _allowances */\n      0x05\n        /* \"contracts/Pool/PoolPig.sol\":18751:18769  _allowances[owner] */\n      0x00\n        /* \"contracts/Pool/PoolPig.sol\":18763:18768  owner */\n      dup5\n        /* \"contracts/Pool/PoolPig.sol\":18751:18769  _allowances[owner] */\n      0xffffffffffffffffffffffffffffffffffffffff\n      and\n      0xffffffffffffffffffffffffffffffffffffffff\n      and\n      dup2\n      mstore\n      0x20\n      add\n      swap1\n      dup2\n      mstore\n      0x20\n      add\n      0x00\n      keccak256\n        /* \"contracts/Pool/PoolPig.sol\":18751:18778  _allowances[owner][spender] */\n      0x00\n        /* \"contracts/Pool/PoolPig.sol\":18770:18777  spender */\n      dup4\n        /* \"contracts/Pool/PoolPig.sol\":18751:18778  _allowances[owner][spender] */\n      0xffffffffffffffffffffffffffffffffffffffff\n      and\n      0xffffffffffffffffffffffffffffffffffffffff\n      and\n      dup2\n      mstore\n      0x20\n      add\n      swap1\n      dup2\n      mstore\n      0x20\n      add\n      0x00\n      keccak256\n      sload\n        /* \"contracts/Pool/PoolPig.sol\":18744:18778  return _allowances[owner][spender] */\n      swap1\n      pop\n        /* \"contracts/Pool/PoolPig.sol\":18644:18785  function allowance(address owner, address spender) public view override returns (uint256) {... */\n      swap3\n      swap2\n      pop\n      pop\n      jump\t// out\n        /* \"contracts/Pool/PoolPig.sol\":22726:22834  function includeInFee(address account) public onlyOwner {... */\n    tag_189:\n        /* \"contracts/Pool/PoolPig.sol\":6045:6057  _msgSender() */\n      tag_330\n        /* \"contracts/Pool/PoolPig.sol\":6045:6055  _msgSender */\n      tag_196\n        /* \"contracts/Pool/PoolPig.sol\":6045:6057  _msgSender() */\n      jump\t// in\n    tag_330:\n        /* \"contracts/Pool/PoolPig.sol\":6035:6057  _owner == _msgSender() */\n      0xffffffffffffffffffffffffffffffffffffffff\n      and\n        /* \"contracts/Pool/PoolPig.sol\":6035:6041  _owner */\n      0x00\n      dup1\n      sload\n      swap1\n      0x0100\n      exp\n      swap1\n      div\n      0xffffffffffffffffffffffffffffffffffffffff\n      and\n        /* \"contracts/Pool/PoolPig.sol\":6035:6057  _owner == _msgSender() */\n      0xffffffffffffffffffffffffffffffffffffffff\n      and\n      eq\n        /* \"contracts/Pool/PoolPig.sol\":6027:6094  require(_owner == _msgSender(), \"Ownable: caller is not the owner\") */\n      tag_331\n      jumpi\n      mload(0x40)\n      0x08c379a000000000000000000000000000000000000000000000000000000000\n      dup2\n      mstore\n      0x04\n      add\n      dup1\n      dup1\n      0x20\n      add\n      dup3\n      dup2\n      sub\n      dup3\n      mstore\n      0x20\n      dup2\n      mstore\n      0x20\n      add\n      dup1\n      0x4f776e61626c653a2063616c6c6572206973206e6f7420746865206f776e6572\n      dup2\n      mstore\n      pop\n      0x20\n      add\n      swap2\n      pop\n      pop\n      mload(0x40)\n      dup1\n      swap2\n      sub\n      swap1\n      revert\n    tag_331:\n        /* \"contracts/Pool/PoolPig.sol\":22822:22827  false */\n      0x00\n        /* \"contracts/Pool/PoolPig.sol\":22792:22810  _isExcludedFromFee */\n      0x06\n        /* \"contracts/Pool/PoolPig.sol\":22792:22819  _isExcludedFromFee[account] */\n      0x00\n        /* \"contracts/Pool/PoolPig.sol\":22811:22818  account */\n      dup4\n        /* \"contracts/Pool/PoolPig.sol\":22792:22819  _isExcludedFromFee[account] */\n      0xffffffffffffffffffffffffffffffffffffffff\n      and\n      0xffffffffffffffffffffffffffffffffffffffff\n      and\n      dup2\n      mstore\n      0x20\n      add\n      swap1\n      dup2\n      mstore\n      0x20\n      add\n      0x00\n      keccak256\n      0x00\n        /* \"contracts/Pool/PoolPig.sol\":22792:22827  _isExcludedFromFee[account] = false */\n      0x0100\n      exp\n      dup2\n      sload\n      dup2\n      0xff\n      mul\n      not\n      and\n      swap1\n      dup4\n      iszero\n      iszero\n      mul\n      or\n      swap1\n      sstore\n      pop\n        /* \"contracts/Pool/PoolPig.sol\":22726:22834  function includeInFee(address account) public onlyOwner {... */\n      pop\n      jump\t// out\n        /* \"contracts/Pool/PoolPig.sol\":6269:6509  function transferOwnership(address newOwner) public virtual onlyOwner {... */\n    tag_193:\n        /* \"contracts/Pool/PoolPig.sol\":6045:6057  _msgSender() */\n      tag_334\n        /* \"contracts/Pool/PoolPig.sol\":6045:6055  _msgSender */\n      tag_196\n        /* \"contracts/Pool/PoolPig.sol\":6045:6057  _msgSender() */\n      jump\t// in\n    tag_334:\n        /* \"contracts/Pool/PoolPig.sol\":6035:6057  _owner == _msgSender() */\n      0xffffffffffffffffffffffffffffffffffffffff\n      and\n        /* \"contracts/Pool/PoolPig.sol\":6035:6041  _owner */\n      0x00\n      dup1\n      sload\n      swap1\n      0x0100\n      exp\n      swap1\n      div\n      0xffffffffffffffffffffffffffffffffffffffff\n      and\n        /* \"contracts/Pool/PoolPig.sol\":6035:6057  _owner == _msgSender() */\n      0xffffffffffffffffffffffffffffffffffffffff\n      and\n      eq\n        /* \"contracts/Pool/PoolPig.sol\":6027:6094  require(_owner == _msgSender(), \"Ownable: caller is not the owner\") */\n      tag_335\n      jumpi\n      mload(0x40)\n      0x08c379a000000000000000000000000000000000000000000000000000000000\n      dup2\n      mstore\n      0x04\n      add\n      dup1\n      dup1\n      0x20\n      add\n      dup3\n      dup2\n      sub\n      dup3\n      mstore\n      0x20\n      dup2\n      mstore\n      0x20\n      add\n      dup1\n      0x4f776e61626c653a2063616c6c6572206973206e6f7420746865206f776e6572\n      dup2\n      mstore\n      pop\n      0x20\n      add\n      swap2\n      pop\n      pop\n      mload(0x40)\n      dup1\n      swap2\n      sub\n      swap1\n      revert\n    tag_335:\n        /* \"contracts/Pool/PoolPig.sol\":6377:6378  0 */\n      0x00\n        /* \"contracts/Pool/PoolPig.sol\":6357:6379  newOwner != address(0) */\n      0xffffffffffffffffffffffffffffffffffffffff\n      and\n        /* \"contracts/Pool/PoolPig.sol\":6357:6365  newOwner */\n      dup2\n        /* \"contracts/Pool/PoolPig.sol\":6357:6379  newOwner != address(0) */\n      0xffffffffffffffffffffffffffffffffffffffff\n      and\n      eq\n      iszero\n        /* \"contracts/Pool/PoolPig.sol\":6349:6422  require(newOwner != address(0), \"Ownable: new owner is the zero address\") */\n      tag_337\n      jumpi\n      mload(0x40)\n      0x08c379a000000000000000000000000000000000000000000000000000000000\n      dup2\n      mstore\n      0x04\n      add\n      dup1\n      dup1\n      0x20\n      add\n      dup3\n      dup2\n      sub\n      dup3\n      mstore\n      0x26\n      dup2\n      mstore\n      0x20\n      add\n      dup1\n      data_245f15ff17f551913a7a18385165551503906a406f905ac1c2437281a7cd0cfe\n      0x26\n      swap2\n      codecopy\n      0x40\n      add\n      swap2\n      pop\n      pop\n      mload(0x40)\n      dup1\n      swap2\n      sub\n      swap1\n      revert\n    tag_337:\n        /* \"contracts/Pool/PoolPig.sol\":6466:6474  newOwner */\n      dup1\n        /* \"contracts/Pool/PoolPig.sol\":6437:6475  OwnershipTransferred(_owner, newOwner) */\n      0xffffffffffffffffffffffffffffffffffffffff\n      and\n        /* \"contracts/Pool/PoolPig.sol\":6458:6464  _owner */\n      0x00\n      dup1\n      sload\n      swap1\n      0x0100\n      exp\n      swap1\n      div\n      0xffffffffffffffffffffffffffffffffffffffff\n      and\n        /* \"contracts/Pool/PoolPig.sol\":6437:6475  OwnershipTransferred(_owner, newOwner) */\n      0xffffffffffffffffffffffffffffffffffffffff\n      and\n      0x8be0079c531659141344cd1fd0a4f28419497f9722a3daafe3b4186f6b6457e0\n      mload(0x40)\n      mload(0x40)\n      dup1\n      swap2\n      sub\n      swap1\n      log3\n        /* \"contracts/Pool/PoolPig.sol\":6494:6502  newOwner */\n      dup1\n        /* \"contracts/Pool/PoolPig.sol\":6485:6491  _owner */\n      0x00\n      dup1\n        /* \"contracts/Pool/PoolPig.sol\":6485:6502  _owner = newOwner */\n      0x0100\n      exp\n      dup2\n      sload\n      dup2\n      0xffffffffffffffffffffffffffffffffffffffff\n      mul\n      not\n      and\n      swap1\n      dup4\n      0xffffffffffffffffffffffffffffffffffffffff\n      and\n      mul\n      or\n      swap1\n      sstore\n      pop\n        /* \"contracts/Pool/PoolPig.sol\":6269:6509  function transferOwnership(address newOwner) public virtual onlyOwner {... */\n      pop\n      jump\t// out\n        /* \"contracts/Pool/PoolPig.sol\":2255:2359  function _msgSender() internal view virtual returns (address payable) {... */\n    tag_196:\n        /* \"contracts/Pool/PoolPig.sol\":2308:2323  address payable */\n      0x00\n        /* \"contracts/Pool/PoolPig.sol\":2342:2352  msg.sender */\n      caller\n        /* \"contracts/Pool/PoolPig.sol\":2335:2352  return msg.sender */\n      swap1\n      pop\n        /* \"contracts/Pool/PoolPig.sol\":2255:2359  function _msgSender() internal view virtual returns (address payable) {... */\n      swap1\n      jump\t// out\n        /* \"contracts/Pool/PoolPig.sol\":27527:27858  function _approve(address owner, address spender, uint256 amount) private {... */\n    tag_206:\n        /* \"contracts/Pool/PoolPig.sol\":27636:27637  0 */\n      0x00\n        /* \"contracts/Pool/PoolPig.sol\":27619:27638  owner != address(0) */\n      0xffffffffffffffffffffffffffffffffffffffff\n      and\n        /* \"contracts/Pool/PoolPig.sol\":27619:27624  owner */\n      dup4\n        /* \"contracts/Pool/PoolPig.sol\":27619:27638  owner != address(0) */\n      0xffffffffffffffffffffffffffffffffffffffff\n      and\n      eq\n      iszero\n        /* \"contracts/Pool/PoolPig.sol\":27611:27679  require(owner != address(0), \"ERC20: approve from the zero address\") */\n      tag_340\n      jumpi\n      mload(0x40)\n      0x08c379a000000000000000000000000000000000000000000000000000000000\n      dup2\n      mstore\n      0x04\n      add\n      dup1\n      dup1\n      0x20\n      add\n      dup3\n      dup2\n      sub\n      dup3\n      mstore\n      0x24\n      dup2\n      mstore\n      0x20\n      add\n      dup1\n      data_c953f4879035ed60e766b34720f656aab5c697b141d924c283124ecedb91c208\n      0x24\n      swap2\n      codecopy\n      0x40\n      add\n      swap2\n      pop\n      pop\n      mload(0x40)\n      dup1\n      swap2\n      sub\n      swap1\n      revert\n    tag_340:\n        /* \"contracts/Pool/PoolPig.sol\":27716:27717  0 */\n      0x00\n        /* \"contracts/Pool/PoolPig.sol\":27697:27718  spender != address(0) */\n      0xffffffffffffffffffffffffffffffffffffffff\n      and\n        /* \"contracts/Pool/PoolPig.sol\":27697:27704  spender */\n      dup3\n        /* \"contracts/Pool/PoolPig.sol\":27697:27718  spender != address(0) */\n      0xffffffffffffffffffffffffffffffffffffffff\n      and\n      eq\n      iszero\n        /* \"contracts/Pool/PoolPig.sol\":27689:27757  require(spender != address(0), \"ERC20: approve to the zero address\") */\n      tag_341\n      jumpi\n      mload(0x40)\n      0x08c379a000000000000000000000000000000000000000000000000000000000\n      dup2\n      mstore\n      0x04\n      add\n      dup1\n      dup1\n      0x20\n      add\n      dup3\n      dup2\n      sub\n      dup3\n      mstore\n      0x22\n      dup2\n      mstore\n      0x20\n      add\n      dup1\n      data_24883cc5fe64ace9d0df1893501ecb93c77180f0ff69cca79affb3c316dc8029\n      0x22\n      swap2\n      codecopy\n      0x40\n      add\n      swap2\n      pop\n      pop\n      mload(0x40)\n      dup1\n      swap2\n      sub\n      swap1\n      revert\n    tag_341:\n        /* \"contracts/Pool/PoolPig.sol\":27798:27804  amount */\n      dup1\n        /* \"contracts/Pool/PoolPig.sol\":27768:27779  _allowances */\n      0x05\n        /* \"contracts/Pool/PoolPig.sol\":27768:27786  _allowances[owner] */\n      0x00\n        /* \"contracts/Pool/PoolPig.sol\":27780:27785  owner */\n      dup6\n        /* \"contracts/Pool/PoolPig.sol\":27768:27786  _allowances[owner] */\n      0xffffffffffffffffffffffffffffffffffffffff\n      and\n      0xffffffffffffffffffffffffffffffffffffffff\n      and\n      dup2\n      mstore\n      0x20\n      add\n      swap1\n      dup2\n      mstore\n      0x20\n      add\n      0x00\n      keccak256\n        /* \"contracts/Pool/PoolPig.sol\":27768:27795  _allowances[owner][spender] */\n      0x00\n        /* \"contracts/Pool/PoolPig.sol\":27787:27794  spender */\n      dup5\n        /* \"contracts/Pool/PoolPig.sol\":27768:27795  _allowances[owner][spender] */\n      0xffffffffffffffffffffffffffffffffffffffff\n      and\n      0xffffffffffffffffffffffffffffffffffffffff\n      and\n      dup2\n      mstore\n      0x20\n      add\n      swap1\n      dup2\n      mstore\n      0x20\n      add\n      0x00\n      keccak256\n        /* \"contracts/Pool/PoolPig.sol\":27768:27804  _allowances[owner][spender] = amount */\n      dup2\n      swap1\n      sstore\n      pop\n        /* \"contracts/Pool/PoolPig.sol\":27835:27842  spender */\n      dup2\n        /* \"contracts/Pool/PoolPig.sol\":27819:27851  Approval(owner, spender, amount) */\n      0xffffffffffffffffffffffffffffffffffffffff\n      and\n        /* \"contracts/Pool/PoolPig.sol\":27828:27833  owner */\n      dup4\n        /* \"contracts/Pool/PoolPig.sol\":27819:27851  Approval(owner, spender, amount) */\n      0xffffffffffffffffffffffffffffffffffffffff\n      and\n      0x8c5be1e5ebec7d5bd14f71427d1e84f3dd0314c0f7b2291e5b200ac8c7c3b925\n        /* \"contracts/Pool/PoolPig.sol\":27844:27850  amount */\n      dup4\n        /* \"contracts/Pool/PoolPig.sol\":27819:27851  Approval(owner, spender, amount) */\n      mload(0x40)\n      dup1\n      dup3\n      dup2\n      mstore\n      0x20\n      add\n      swap2\n      pop\n      pop\n      mload(0x40)\n      dup1\n      swap2\n      sub\n      swap1\n      log3\n        /* \"contracts/Pool/PoolPig.sol\":27527:27858  function _approve(address owner, address spender, uint256 amount) private {... */\n      pop\n      pop\n      pop\n      jump\t// out\n        /* \"contracts/Pool/PoolPig.sol\":27864:29355  function _transfer(... */\n    tag_211:\n        /* \"contracts/Pool/PoolPig.sol\":27997:27998  0 */\n      0x00\n        /* \"contracts/Pool/PoolPig.sol\":27981:27999  from != address(0) */\n      0xffffffffffffffffffffffffffffffffffffffff\n      and\n        /* \"contracts/Pool/PoolPig.sol\":27981:27985  from */\n      dup4\n        /* \"contracts/Pool/PoolPig.sol\":27981:27999  from != address(0) */\n      0xffffffffffffffffffffffffffffffffffffffff\n      and\n      eq\n      iszero\n        /* \"contracts/Pool/PoolPig.sol\":27973:28041  require(from != address(0), \"ERC20: transfer from the zero address\") */\n      tag_343\n      jumpi\n      mload(0x40)\n      0x08c379a000000000000000000000000000000000000000000000000000000000\n      dup2\n      mstore\n      0x04\n      add\n      dup1\n      dup1\n      0x20\n      add\n      dup3\n      dup2\n      sub\n      dup3\n      mstore\n      0x25\n      dup2\n      mstore\n      0x20\n      add\n      dup1\n      data_baecc556b46f4ed0f2b4cb599d60785ac8563dd2dc0a5bf12edea1c39e5e1fea\n      0x25\n      swap2\n      codecopy\n      0x40\n      add\n      swap2\n      pop\n      pop\n      mload(0x40)\n      dup1\n      swap2\n      sub\n      swap1\n      revert\n    tag_343:\n        /* \"contracts/Pool/PoolPig.sol\":28073:28074  0 */\n      0x00\n        /* \"contracts/Pool/PoolPig.sol\":28059:28075  to != address(0) */\n      0xffffffffffffffffffffffffffffffffffffffff\n      and\n        /* \"contracts/Pool/PoolPig.sol\":28059:28061  to */\n      dup3\n        /* \"contracts/Pool/PoolPig.sol\":28059:28075  to != address(0) */\n      0xffffffffffffffffffffffffffffffffffffffff\n      and\n      eq\n      iszero\n        /* \"contracts/Pool/PoolPig.sol\":28051:28115  require(to != address(0), \"ERC20: transfer to the zero address\") */\n      tag_344\n      jumpi\n      mload(0x40)\n      0x08c379a000000000000000000000000000000000000000000000000000000000\n      dup2\n      mstore\n      0x04\n      add\n      dup1\n      dup1\n      0x20\n      add\n      dup3\n      dup2\n      sub\n      dup3\n      mstore\n      0x23\n      dup2\n      mstore\n      0x20\n      add\n      dup1\n      data_0557e210f7a69a685100a7e4e3d0a7024c546085cee28910fd17d0b081d9516f\n      0x23\n      swap2\n      codecopy\n      0x40\n      add\n      swap2\n      pop\n      pop\n      mload(0x40)\n      dup1\n      swap2\n      sub\n      swap1\n      revert\n    tag_344:\n        /* \"contracts/Pool/PoolPig.sol\":28142:28143  0 */\n      0x00\n        /* \"contracts/Pool/PoolPig.sol\":28133:28139  amount */\n      dup2\n        /* \"contracts/Pool/PoolPig.sol\":28133:28143  amount > 0 */\n      gt\n        /* \"contracts/Pool/PoolPig.sol\":28125:28189  require(amount > 0, \"Transfer amount must be greater than zero\") */\n      tag_345\n      jumpi\n      mload(0x40)\n      0x08c379a000000000000000000000000000000000000000000000000000000000\n      dup2\n      mstore\n      0x04\n      add\n      dup1\n      dup1\n      0x20\n      add\n      dup3\n      dup2\n      sub\n      dup3\n      mstore\n      0x29\n      dup2\n      mstore\n      0x20\n      add\n      dup1\n      data_9edb5ab58321f35d2386ea65721c9b107daa2c273610fc16d394af2a320ba785\n      0x29\n      swap2\n      codecopy\n      0x40\n      add\n      swap2\n      pop\n      pop\n      mload(0x40)\n      dup1\n      swap2\n      sub\n      swap1\n      revert\n    tag_345:\n        /* \"contracts/Pool/PoolPig.sol\":28210:28217  owner() */\n      tag_346\n        /* \"contracts/Pool/PoolPig.sol\":28210:28215  owner */\n      tag_144\n        /* \"contracts/Pool/PoolPig.sol\":28210:28217  owner() */\n      jump\t// in\n    tag_346:\n        /* \"contracts/Pool/PoolPig.sol\":28202:28217  from != owner() */\n      0xffffffffffffffffffffffffffffffffffffffff\n      and\n        /* \"contracts/Pool/PoolPig.sol\":28202:28206  from */\n      dup4\n        /* \"contracts/Pool/PoolPig.sol\":28202:28217  from != owner() */\n      0xffffffffffffffffffffffffffffffffffffffff\n      and\n      eq\n      iszero\n        /* \"contracts/Pool/PoolPig.sol\":28202:28234  from != owner() && to != owner() */\n      dup1\n      iszero\n      tag_347\n      jumpi\n      pop\n        /* \"contracts/Pool/PoolPig.sol\":28227:28234  owner() */\n      tag_348\n        /* \"contracts/Pool/PoolPig.sol\":28227:28232  owner */\n      tag_144\n        /* \"contracts/Pool/PoolPig.sol\":28227:28234  owner() */\n      jump\t// in\n    tag_348:\n        /* \"contracts/Pool/PoolPig.sol\":28221:28234  to != owner() */\n      0xffffffffffffffffffffffffffffffffffffffff\n      and\n        /* \"contracts/Pool/PoolPig.sol\":28221:28223  to */\n      dup3\n        /* \"contracts/Pool/PoolPig.sol\":28221:28234  to != owner() */\n      0xffffffffffffffffffffffffffffffffffffffff\n      and\n      eq\n      iszero\n        /* \"contracts/Pool/PoolPig.sol\":28202:28234  from != owner() && to != owner() */\n    tag_347:\n        /* \"contracts/Pool/PoolPig.sol\":28199:28323  if(from != owner() && to != owner())... */\n      iszero\n      tag_349\n      jumpi\n        /* \"contracts/Pool/PoolPig.sol\":28266:28278  _maxTxAmount */\n      sload(0x16)\n        /* \"contracts/Pool/PoolPig.sol\":28256:28262  amount */\n      dup2\n        /* \"contracts/Pool/PoolPig.sol\":28256:28278  amount <= _maxTxAmount */\n      gt\n      iszero\n        /* \"contracts/Pool/PoolPig.sol\":28248:28323  require(amount <= _maxTxAmount, \"Transfer amount exceeds the maxTxAmount.\") */\n      tag_350\n      jumpi\n      mload(0x40)\n      0x08c379a000000000000000000000000000000000000000000000000000000000\n      dup2\n      mstore\n      0x04\n      add\n      dup1\n      dup1\n      0x20\n      add\n      dup3\n      dup2\n      sub\n      dup3\n      mstore\n      0x28\n      dup2\n      mstore\n      0x20\n      add\n      dup1\n      data_72052210969ce5fd88e52b5e685de9548acef9bb1b6d02e29c1765d0674948dd\n      0x28\n      swap2\n      codecopy\n      0x40\n      add\n      swap2\n      pop\n      pop\n      mload(0x40)\n      dup1\n      swap2\n      sub\n      swap1\n      revert\n    tag_350:\n        /* \"contracts/Pool/PoolPig.sol\":28199:28323  if(from != owner() && to != owner())... */\n    tag_349:\n        /* \"contracts/Pool/PoolPig.sol\":28334:28362  uint256 contractTokenBalance */\n      0x00\n        /* \"contracts/Pool/PoolPig.sol\":28365:28389  balanceOf(address(this)) */\n      tag_351\n        /* \"contracts/Pool/PoolPig.sol\":28383:28387  this */\n      address\n        /* \"contracts/Pool/PoolPig.sol\":28365:28374  balanceOf */\n      tag_131\n        /* \"contracts/Pool/PoolPig.sol\":28365:28389  balanceOf(address(this)) */\n      jump\t// in\n    tag_351:\n        /* \"contracts/Pool/PoolPig.sol\":28334:28389  uint256 contractTokenBalance = balanceOf(address(this)) */\n      swap1\n      pop\n        /* \"contracts/Pool/PoolPig.sol\":28435:28447  _maxTxAmount */\n      sload(0x16)\n        /* \"contracts/Pool/PoolPig.sol\":28411:28431  contractTokenBalance */\n      dup2\n        /* \"contracts/Pool/PoolPig.sol\":28411:28447  contractTokenBalance >= _maxTxAmount */\n      lt\n        /* \"contracts/Pool/PoolPig.sol\":28408:28517  if(contractTokenBalance >= _maxTxAmount)... */\n      tag_352\n      jumpi\n        /* \"contracts/Pool/PoolPig.sol\":28494:28506  _maxTxAmount */\n      sload(0x16)\n        /* \"contracts/Pool/PoolPig.sol\":28471:28506  contractTokenBalance = _maxTxAmount */\n      swap1\n      pop\n        /* \"contracts/Pool/PoolPig.sol\":28408:28517  if(contractTokenBalance >= _maxTxAmount)... */\n    tag_352:\n        /* \"contracts/Pool/PoolPig.sol\":28535:28559  bool overMinTokenBalance */\n      0x00\n        /* \"contracts/Pool/PoolPig.sol\":28586:28615  numTokensSellToAddToLiquidity */\n      sload(0x17)\n        /* \"contracts/Pool/PoolPig.sol\":28562:28582  contractTokenBalance */\n      dup3\n        /* \"contracts/Pool/PoolPig.sol\":28562:28615  contractTokenBalance >= numTokensSellToAddToLiquidity */\n      lt\n      iszero\n        /* \"contracts/Pool/PoolPig.sol\":28535:28615  bool overMinTokenBalance = contractTokenBalance >= numTokensSellToAddToLiquidity */\n      swap1\n      pop\n        /* \"contracts/Pool/PoolPig.sol\":28642:28661  overMinTokenBalance */\n      dup1\n        /* \"contracts/Pool/PoolPig.sol\":28642:28694  overMinTokenBalance &&... */\n      dup1\n      iszero\n      tag_353\n      jumpi\n      pop\n        /* \"contracts/Pool/PoolPig.sol\":28678:28694  inSwapAndLiquify */\n      0x15\n      0x00\n      swap1\n      sload\n      swap1\n      0x0100\n      exp\n      swap1\n      div\n      0xff\n      and\n        /* \"contracts/Pool/PoolPig.sol\":28677:28694  !inSwapAndLiquify */\n      iszero\n        /* \"contracts/Pool/PoolPig.sol\":28642:28694  overMinTokenBalance &&... */\n    tag_353:\n        /* \"contracts/Pool/PoolPig.sol\":28642:28731  overMinTokenBalance &&... */\n      dup1\n      iszero\n      tag_354\n      jumpi\n      pop\n        /* \"contracts/Pool/PoolPig.sol\":28718:28731  uniswapV2Pair */\n      immutable(\"0x56d1aacedfc7d536224f9771bf9213a087360049f74dcef1ba0633f85c459fc6\")\n        /* \"contracts/Pool/PoolPig.sol\":28710:28731  from != uniswapV2Pair */\n      0xffffffffffffffffffffffffffffffffffffffff\n      and\n        /* \"contracts/Pool/PoolPig.sol\":28710:28714  from */\n      dup6\n        /* \"contracts/Pool/PoolPig.sol\":28710:28731  from != uniswapV2Pair */\n      0xffffffffffffffffffffffffffffffffffffffff\n      and\n      eq\n      iszero\n        /* \"contracts/Pool/PoolPig.sol\":28642:28731  overMinTokenBalance &&... */\n    tag_354:\n        /* \"contracts/Pool/PoolPig.sol\":28642:28768  overMinTokenBalance &&... */\n      dup1\n      iszero\n      tag_355\n      jumpi\n      pop\n        /* \"contracts/Pool/PoolPig.sol\":28747:28768  swapAndLiquifyEnabled */\n      0x15\n      0x01\n      swap1\n      sload\n      swap1\n      0x0100\n      exp\n      swap1\n      div\n      0xff\n      and\n        /* \"contracts/Pool/PoolPig.sol\":28642:28768  overMinTokenBalance &&... */\n    tag_355:\n        /* \"contracts/Pool/PoolPig.sol\":28625:28934  if (... */\n      iszero\n      tag_356\n      jumpi\n        /* \"contracts/Pool/PoolPig.sol\":28816:28845  numTokensSellToAddToLiquidity */\n      sload(0x17)\n        /* \"contracts/Pool/PoolPig.sol\":28793:28845  contractTokenBalance = numTokensSellToAddToLiquidity */\n      swap2\n      pop\n        /* \"contracts/Pool/PoolPig.sol\":28887:28923  swapAndLiquify(contractTokenBalance) */\n      tag_357\n        /* \"contracts/Pool/PoolPig.sol\":28902:28922  contractTokenBalance */\n      dup3\n        /* \"contracts/Pool/PoolPig.sol\":28887:28901  swapAndLiquify */\n      tag_358\n        /* \"contracts/Pool/PoolPig.sol\":28887:28923  swapAndLiquify(contractTokenBalance) */\n      jump\t// in\n    tag_357:\n        /* \"contracts/Pool/PoolPig.sol\":28625:28934  if (... */\n    tag_356:\n        /* \"contracts/Pool/PoolPig.sol\":29012:29024  bool takeFee */\n      0x00\n        /* \"contracts/Pool/PoolPig.sol\":29027:29031  true */\n      0x01\n        /* \"contracts/Pool/PoolPig.sol\":29012:29031  bool takeFee = true */\n      swap1\n      pop\n        /* \"contracts/Pool/PoolPig.sol\":29136:29154  _isExcludedFromFee */\n      0x06\n        /* \"contracts/Pool/PoolPig.sol\":29136:29160  _isExcludedFromFee[from] */\n      0x00\n        /* \"contracts/Pool/PoolPig.sol\":29155:29159  from */\n      dup8\n        /* \"contracts/Pool/PoolPig.sol\":29136:29160  _isExcludedFromFee[from] */\n      0xffffffffffffffffffffffffffffffffffffffff\n      and\n      0xffffffffffffffffffffffffffffffffffffffff\n      and\n      dup2\n      mstore\n      0x20\n      add\n      swap1\n      dup2\n      mstore\n      0x20\n      add\n      0x00\n      keccak256\n      0x00\n      swap1\n      sload\n      swap1\n      0x0100\n      exp\n      swap1\n      div\n      0xff\n      and\n        /* \"contracts/Pool/PoolPig.sol\":29136:29186  _isExcludedFromFee[from] || _isExcludedFromFee[to] */\n      dup1\n      tag_359\n      jumpi\n      pop\n        /* \"contracts/Pool/PoolPig.sol\":29164:29182  _isExcludedFromFee */\n      0x06\n        /* \"contracts/Pool/PoolPig.sol\":29164:29186  _isExcludedFromFee[to] */\n      0x00\n        /* \"contracts/Pool/PoolPig.sol\":29183:29185  to */\n      dup7\n        /* \"contracts/Pool/PoolPig.sol\":29164:29186  _isExcludedFromFee[to] */\n      0xffffffffffffffffffffffffffffffffffffffff\n      and\n      0xffffffffffffffffffffffffffffffffffffffff\n      and\n      dup2\n      mstore\n      0x20\n      add\n      swap1\n      dup2\n      mstore\n      0x20\n      add\n      0x00\n      keccak256\n      0x00\n      swap1\n      sload\n      swap1\n      0x0100\n      exp\n      swap1\n      div\n      0xff\n      and\n        /* \"contracts/Pool/PoolPig.sol\":29136:29186  _isExcludedFromFee[from] || _isExcludedFromFee[to] */\n    tag_359:\n        /* \"contracts/Pool/PoolPig.sol\":29133:29227  if(_isExcludedFromFee[from] || _isExcludedFromFee[to]){... */\n      iszero\n      tag_360\n      jumpi\n        /* \"contracts/Pool/PoolPig.sol\":29211:29216  false */\n      0x00\n        /* \"contracts/Pool/PoolPig.sol\":29201:29216  takeFee = false */\n      swap1\n      pop\n        /* \"contracts/Pool/PoolPig.sol\":29133:29227  if(_isExcludedFromFee[from] || _isExcludedFromFee[to]){... */\n    tag_360:\n        /* \"contracts/Pool/PoolPig.sol\":29310:29348  _tokenTransfer(from,to,amount,takeFee) */\n      tag_361\n        /* \"contracts/Pool/PoolPig.sol\":29325:29329  from */\n      dup7\n        /* \"contracts/Pool/PoolPig.sol\":29330:29332  to */\n      dup7\n        /* \"contracts/Pool/PoolPig.sol\":29333:29339  amount */\n      dup7\n        /* \"contracts/Pool/PoolPig.sol\":29340:29347  takeFee */\n      dup5\n        /* \"contracts/Pool/PoolPig.sol\":29310:29324  _tokenTransfer */\n      tag_362\n        /* \"contracts/Pool/PoolPig.sol\":29310:29348  _tokenTransfer(from,to,amount,takeFee) */\n      jump\t// in\n    tag_361:\n        /* \"contracts/Pool/PoolPig.sol\":27864:29355  function _transfer(... */\n      pop\n      pop\n      pop\n      pop\n      pop\n      pop\n      jump\t// out\n        /* \"contracts/Pool/PoolPig.sol\":1073:1260  function sub(uint256 a, uint256 b, string memory errorMessage) internal pure returns (uint256) {... */\n    tag_216:\n        /* \"contracts/Pool/PoolPig.sol\":1159:1166  uint256 */\n      0x00\n        /* \"contracts/Pool/PoolPig.sol\":1191:1192  a */\n      dup4\n        /* \"contracts/Pool/PoolPig.sol\":1186:1187  b */\n      dup4\n        /* \"contracts/Pool/PoolPig.sol\":1186:1192  b <= a */\n      gt\n      iszero\n        /* \"contracts/Pool/PoolPig.sol\":1194:1206  errorMessage */\n      dup3\n        /* \"contracts/Pool/PoolPig.sol\":1178:1207  require(b <= a, errorMessage) */\n      swap1\n      tag_364\n      jumpi\n      mload(0x40)\n      0x08c379a000000000000000000000000000000000000000000000000000000000\n      dup2\n      mstore\n      0x04\n      add\n      dup1\n      dup1\n      0x20\n      add\n      dup3\n      dup2\n      sub\n      dup3\n      mstore\n      dup4\n      dup2\n      dup2\n      mload\n      dup2\n      mstore\n      0x20\n      add\n      swap2\n      pop\n      dup1\n      mload\n      swap1\n      0x20\n      add\n      swap1\n      dup1\n      dup4\n      dup4\n      0x00\n    tag_365:\n      dup4\n      dup2\n      lt\n      iszero\n      tag_367\n      jumpi\n      dup1\n      dup3\n      add\n      mload\n      dup2\n      dup5\n      add\n      mstore\n      0x20\n      dup2\n      add\n      swap1\n      pop\n      jump(tag_365)\n    tag_367:\n      pop\n      pop\n      pop\n      pop\n      swap1\n      pop\n      swap1\n      dup2\n      add\n      swap1\n      0x1f\n      and\n      dup1\n      iszero\n      tag_368\n      jumpi\n      dup1\n      dup3\n      sub\n      dup1\n      mload\n      0x01\n      dup4\n      0x20\n      sub\n      0x0100\n      exp\n      sub\n      not\n      and\n      dup2\n      mstore\n      0x20\n      add\n      swap2\n      pop\n    tag_368:\n      pop\n      swap3\n      pop\n      pop\n      pop\n      mload(0x40)\n      dup1\n      swap2\n      sub\n      swap1\n      revert\n    tag_364:\n      pop\n        /* \"contracts/Pool/PoolPig.sol\":1217:1226  uint256 c */\n      0x00\n        /* \"contracts/Pool/PoolPig.sol\":1233:1234  b */\n      dup4\n        /* \"contracts/Pool/PoolPig.sol\":1229:1230  a */\n      dup6\n        /* \"contracts/Pool/PoolPig.sol\":1229:1234  a - b */\n      sub\n        /* \"contracts/Pool/PoolPig.sol\":1217:1234  uint256 c = a - b */\n      swap1\n      pop\n        /* \"contracts/Pool/PoolPig.sol\":1252:1253  c */\n      dup1\n        /* \"contracts/Pool/PoolPig.sol\":1245:1253  return c */\n      swap2\n      pop\n      pop\n        /* \"contracts/Pool/PoolPig.sol\":1073:1260  function sub(uint256 a, uint256 b, string memory errorMessage) internal pure returns (uint256) {... */\n      swap4\n      swap3\n      pop\n      pop\n      pop\n      jump\t// out\n        /* \"contracts/Pool/PoolPig.sol\":25602:25762  function _getRate() private view returns(uint256) {... */\n    tag_220:\n        /* \"contracts/Pool/PoolPig.sol\":25643:25650  uint256 */\n      0x00\n        /* \"contracts/Pool/PoolPig.sol\":25663:25678  uint256 rSupply */\n      dup1\n        /* \"contracts/Pool/PoolPig.sol\":25680:25695  uint256 tSupply */\n      0x00\n        /* \"contracts/Pool/PoolPig.sol\":25699:25718  _getCurrentSupply() */\n      tag_370\n        /* \"contracts/Pool/PoolPig.sol\":25699:25716  _getCurrentSupply */\n      tag_371\n        /* \"contracts/Pool/PoolPig.sol\":25699:25718  _getCurrentSupply() */\n      jump\t// in\n    tag_370:\n        /* \"contracts/Pool/PoolPig.sol\":25662:25718  (uint256 rSupply, uint256 tSupply) = _getCurrentSupply() */\n      swap2\n      pop\n      swap2\n      pop\n        /* \"contracts/Pool/PoolPig.sol\":25735:25755  rSupply.div(tSupply) */\n      tag_372\n        /* \"contracts/Pool/PoolPig.sol\":25747:25754  tSupply */\n      dup2\n        /* \"contracts/Pool/PoolPig.sol\":25735:25742  rSupply */\n      dup4\n        /* \"contracts/Pool/PoolPig.sol\":25735:25746  rSupply.div */\n      tag_222\n      swap1\n        /* \"contracts/Pool/PoolPig.sol\":25735:25755  rSupply.div(tSupply) */\n      swap2\n      swap1\n      0xffffffff\n      and\n      jump\t// in\n    tag_372:\n        /* \"contracts/Pool/PoolPig.sol\":25728:25755  return rSupply.div(tSupply) */\n      swap3\n      pop\n      pop\n      pop\n        /* \"contracts/Pool/PoolPig.sol\":25602:25762  function _getRate() private view returns(uint256) {... */\n      swap1\n      jump\t// out\n        /* \"contracts/Pool/PoolPig.sol\":1511:1641  function div(uint256 a, uint256 b) internal pure returns (uint256) {... */\n    tag_222:\n        /* \"contracts/Pool/PoolPig.sol\":1569:1576  uint256 */\n      0x00\n        /* \"contracts/Pool/PoolPig.sol\":1595:1634  div(a, b, \"SafeMath: division by zero\") */\n      tag_374\n        /* \"contracts/Pool/PoolPig.sol\":1599:1600  a */\n      dup4\n        /* \"contracts/Pool/PoolPig.sol\":1602:1603  b */\n      dup4\n        /* \"contracts/Pool/PoolPig.sol\":1595:1634  div(a, b, \"SafeMath: division by zero\") */\n      mload(0x40)\n      dup1\n      0x40\n      add\n      0x40\n      mstore\n      dup1\n      0x1a\n      dup2\n      mstore\n      0x20\n      add\n      0x536166654d6174683a206469766973696f6e206279207a65726f000000000000\n      dup2\n      mstore\n      pop\n        /* \"contracts/Pool/PoolPig.sol\":1595:1598  div */\n      tag_375\n        /* \"contracts/Pool/PoolPig.sol\":1595:1634  div(a, b, \"SafeMath: division by zero\") */\n      jump\t// in\n    tag_374:\n        /* \"contracts/Pool/PoolPig.sol\":1588:1634  return div(a, b, \"SafeMath: division by zero\") */\n      swap1\n      pop\n        /* \"contracts/Pool/PoolPig.sol\":1511:1641  function div(uint256 a, uint256 b) internal pure returns (uint256) {... */\n      swap3\n      swap2\n      pop\n      pop\n      jump\t// out\n        /* \"contracts/Pool/PoolPig.sol\":753:929  function add(uint256 a, uint256 b) internal pure returns (uint256) {... */\n    tag_246:\n        /* \"contracts/Pool/PoolPig.sol\":811:818  uint256 */\n      0x00\n        /* \"contracts/Pool/PoolPig.sol\":830:839  uint256 c */\n      dup1\n        /* \"contracts/Pool/PoolPig.sol\":846:847  b */\n      dup3\n        /* \"contracts/Pool/PoolPig.sol\":842:843  a */\n      dup5\n        /* \"contracts/Pool/PoolPig.sol\":842:847  a + b */\n      add\n        /* \"contracts/Pool/PoolPig.sol\":830:847  uint256 c = a + b */\n      swap1\n      pop\n        /* \"contracts/Pool/PoolPig.sol\":870:871  a */\n      dup4\n        /* \"contracts/Pool/PoolPig.sol\":865:866  c */\n      dup2\n        /* \"contracts/Pool/PoolPig.sol\":865:871  c >= a */\n      lt\n      iszero\n        /* \"contracts/Pool/PoolPig.sol\":857:903  require(c >= a, \"SafeMath: addition overflow\") */\n      tag_377\n      jumpi\n      mload(0x40)\n      0x08c379a000000000000000000000000000000000000000000000000000000000\n      dup2\n      mstore\n      0x04\n      add\n      dup1\n      dup1\n      0x20\n      add\n      dup3\n      dup2\n      sub\n      dup3\n      mstore\n      0x1b\n      dup2\n      mstore\n      0x20\n      add\n      dup1\n      0x536166654d6174683a206164646974696f6e206f766572666c6f770000000000\n      dup2\n      mstore\n      pop\n      0x20\n      add\n      swap2\n      pop\n      pop\n      mload(0x40)\n      dup1\n      swap2\n      sub\n      swap1\n      revert\n    tag_377:\n        /* \"contracts/Pool/PoolPig.sol\":921:922  c */\n      dup1\n        /* \"contracts/Pool/PoolPig.sol\":914:922  return c */\n      swap2\n      pop\n      pop\n        /* \"contracts/Pool/PoolPig.sol\":753:929  function add(uint256 a, uint256 b) internal pure returns (uint256) {... */\n      swap3\n      swap2\n      pop\n      pop\n      jump\t// out\n        /* \"contracts/Pool/PoolPig.sol\":24421:24836  function _getValues(uint256 tAmount) private view returns (uint256, uint256, uint256, uint256, uint256, uint256) {... */\n    tag_251:\n        /* \"contracts/Pool/PoolPig.sol\":24480:24487  uint256 */\n      0x00\n        /* \"contracts/Pool/PoolPig.sol\":24489:24496  uint256 */\n      dup1\n        /* \"contracts/Pool/PoolPig.sol\":24498:24505  uint256 */\n      0x00\n        /* \"contracts/Pool/PoolPig.sol\":24507:24514  uint256 */\n      dup1\n        /* \"contracts/Pool/PoolPig.sol\":24516:24523  uint256 */\n      0x00\n        /* \"contracts/Pool/PoolPig.sol\":24525:24532  uint256 */\n      dup1\n        /* \"contracts/Pool/PoolPig.sol\":24545:24568  uint256 tTransferAmount */\n      0x00\n        /* \"contracts/Pool/PoolPig.sol\":24570:24582  uint256 tFee */\n      dup1\n        /* \"contracts/Pool/PoolPig.sol\":24584:24602  uint256 tLiquidity */\n      0x00\n        /* \"contracts/Pool/PoolPig.sol\":24606:24626  _getTValues(tAmount) */\n      tag_379\n        /* \"contracts/Pool/PoolPig.sol\":24618:24625  tAmount */\n      dup11\n        /* \"contracts/Pool/PoolPig.sol\":24606:24617  _getTValues */\n      tag_380\n        /* \"contracts/Pool/PoolPig.sol\":24606:24626  _getTValues(tAmount) */\n      jump\t// in\n    tag_379:\n        /* \"contracts/Pool/PoolPig.sol\":24544:24626  (uint256 tTransferAmount, uint256 tFee, uint256 tLiquidity) = _getTValues(tAmount) */\n      swap3\n      pop\n      swap3\n      pop\n      swap3\n      pop\n        /* \"contracts/Pool/PoolPig.sol\":24637:24652  uint256 rAmount */\n      0x00\n        /* \"contracts/Pool/PoolPig.sol\":24654:24677  uint256 rTransferAmount */\n      dup1\n        /* \"contracts/Pool/PoolPig.sol\":24679:24691  uint256 rFee */\n      0x00\n        /* \"contracts/Pool/PoolPig.sol\":24695:24745  _getRValues(tAmount, tFee, tLiquidity, _getRate()) */\n      tag_381\n        /* \"contracts/Pool/PoolPig.sol\":24707:24714  tAmount */\n      dup14\n        /* \"contracts/Pool/PoolPig.sol\":24716:24720  tFee */\n      dup7\n        /* \"contracts/Pool/PoolPig.sol\":24722:24732  tLiquidity */\n      dup7\n        /* \"contracts/Pool/PoolPig.sol\":24734:24744  _getRate() */\n      tag_382\n        /* \"contracts/Pool/PoolPig.sol\":24734:24742  _getRate */\n      tag_220\n        /* \"contracts/Pool/PoolPig.sol\":24734:24744  _getRate() */\n      jump\t// in\n    tag_382:\n        /* \"contracts/Pool/PoolPig.sol\":24695:24706  _getRValues */\n      tag_383\n        /* \"contracts/Pool/PoolPig.sol\":24695:24745  _getRValues(tAmount, tFee, tLiquidity, _getRate()) */\n      jump\t// in\n    tag_381:\n        /* \"contracts/Pool/PoolPig.sol\":24636:24745  (uint256 rAmount, uint256 rTransferAmount, uint256 rFee) = _getRValues(tAmount, tFee, tLiquidity, _getRate()) */\n      swap3\n      pop\n      swap3\n      pop\n      swap3\n      pop\n        /* \"contracts/Pool/PoolPig.sol\":24763:24770  rAmount */\n      dup3\n        /* \"contracts/Pool/PoolPig.sol\":24772:24787  rTransferAmount */\n      dup3\n        /* \"contracts/Pool/PoolPig.sol\":24789:24793  rFee */\n      dup3\n        /* \"contracts/Pool/PoolPig.sol\":24795:24810  tTransferAmount */\n      dup9\n        /* \"contracts/Pool/PoolPig.sol\":24812:24816  tFee */\n      dup9\n        /* \"contracts/Pool/PoolPig.sol\":24818:24828  tLiquidity */\n      dup9\n        /* \"contracts/Pool/PoolPig.sol\":24755:24829  return (rAmount, rTransferAmount, rFee, tTransferAmount, tFee, tLiquidity) */\n      swap12\n      pop\n      swap12\n      pop\n      swap12\n      pop\n      swap12\n      pop\n      swap12\n      pop\n      swap12\n      pop\n      pop\n      pop\n      pop\n      pop\n      pop\n      pop\n        /* \"contracts/Pool/PoolPig.sol\":24421:24836  function _getValues(uint256 tAmount) private view returns (uint256, uint256, uint256, uint256, uint256, uint256) {... */\n      swap2\n      swap4\n      swap6\n      pop\n      swap2\n      swap4\n      swap6\n      jump\t// out\n        /* \"contracts/Pool/PoolPig.sol\":934:1068  function sub(uint256 a, uint256 b) internal pure returns (uint256) {... */\n    tag_253:\n        /* \"contracts/Pool/PoolPig.sol\":992:999  uint256 */\n      0x00\n        /* \"contracts/Pool/PoolPig.sol\":1018:1061  sub(a, b, \"SafeMath: subtraction overflow\") */\n      tag_385\n        /* \"contracts/Pool/PoolPig.sol\":1022:1023  a */\n      dup4\n        /* \"contracts/Pool/PoolPig.sol\":1025:1026  b */\n      dup4\n        /* \"contracts/Pool/PoolPig.sol\":1018:1061  sub(a, b, \"SafeMath: subtraction overflow\") */\n      mload(0x40)\n      dup1\n      0x40\n      add\n      0x40\n      mstore\n      dup1\n      0x1e\n      dup2\n      mstore\n      0x20\n      add\n      0x536166654d6174683a207375627472616374696f6e206f766572666c6f770000\n      dup2\n      mstore\n      pop\n        /* \"contracts/Pool/PoolPig.sol\":1018:1021  sub */\n      tag_216\n        /* \"contracts/Pool/PoolPig.sol\":1018:1061  sub(a, b, \"SafeMath: subtraction overflow\") */\n      jump\t// in\n    tag_385:\n        /* \"contracts/Pool/PoolPig.sol\":1011:1061  return sub(a, b, \"SafeMath: subtraction overflow\") */\n      swap1\n      pop\n        /* \"contracts/Pool/PoolPig.sol\":934:1068  function sub(uint256 a, uint256 b) internal pure returns (uint256) {... */\n      swap3\n      swap2\n      pop\n      pop\n      jump\t// out\n        /* \"contracts/Pool/PoolPig.sol\":1265:1506  function mul(uint256 a, uint256 b) internal pure returns (uint256) {... */\n    tag_323:\n        /* \"contracts/Pool/PoolPig.sol\":1323:1330  uint256 */\n      0x00\n        /* \"contracts/Pool/PoolPig.sol\":1351:1352  0 */\n      dup1\n        /* \"contracts/Pool/PoolPig.sol\":1346:1347  a */\n      dup4\n        /* \"contracts/Pool/PoolPig.sol\":1346:1352  a == 0 */\n      eq\n        /* \"contracts/Pool/PoolPig.sol\":1342:1387  if (a == 0) {... */\n      iszero\n      tag_387\n      jumpi\n        /* \"contracts/Pool/PoolPig.sol\":1375:1376  0 */\n      0x00\n        /* \"contracts/Pool/PoolPig.sol\":1368:1376  return 0 */\n      swap1\n      pop\n      jump(tag_386)\n        /* \"contracts/Pool/PoolPig.sol\":1342:1387  if (a == 0) {... */\n    tag_387:\n        /* \"contracts/Pool/PoolPig.sol\":1397:1406  uint256 c */\n      0x00\n        /* \"contracts/Pool/PoolPig.sol\":1413:1414  b */\n      dup3\n        /* \"contracts/Pool/PoolPig.sol\":1409:1410  a */\n      dup5\n        /* \"contracts/Pool/PoolPig.sol\":1409:1414  a * b */\n      mul\n        /* \"contracts/Pool/PoolPig.sol\":1397:1414  uint256 c = a * b */\n      swap1\n      pop\n        /* \"contracts/Pool/PoolPig.sol\":1441:1442  b */\n      dup3\n        /* \"contracts/Pool/PoolPig.sol\":1436:1437  a */\n      dup5\n        /* \"contracts/Pool/PoolPig.sol\":1432:1433  c */\n      dup3\n        /* \"contracts/Pool/PoolPig.sol\":1432:1437  c / a */\n      dup2\n      tag_388\n      jumpi\n      invalid\n    tag_388:\n      div\n        /* \"contracts/Pool/PoolPig.sol\":1432:1442  c / a == b */\n      eq\n        /* \"contracts/Pool/PoolPig.sol\":1424:1480  require(c / a == b, \"SafeMath: multiplication overflow\") */\n      tag_389\n      jumpi\n      mload(0x40)\n      0x08c379a000000000000000000000000000000000000000000000000000000000\n      dup2\n      mstore\n      0x04\n      add\n      dup1\n      dup1\n      0x20\n      add\n      dup3\n      dup2\n      sub\n      dup3\n      mstore\n      0x21\n      dup2\n      mstore\n      0x20\n      add\n      dup1\n      data_9113bb53c2876a3805b2c9242029423fc540a728243ce887ab24c82cf119fba3\n      0x21\n      swap2\n      codecopy\n      0x40\n      add\n      swap2\n      pop\n      pop\n      mload(0x40)\n      dup1\n      swap2\n      sub\n      swap1\n      revert\n    tag_389:\n        /* \"contracts/Pool/PoolPig.sol\":1498:1499  c */\n      dup1\n        /* \"contracts/Pool/PoolPig.sol\":1491:1499  return c */\n      swap2\n      pop\n      pop\n        /* \"contracts/Pool/PoolPig.sol\":1265:1506  function mul(uint256 a, uint256 b) internal pure returns (uint256) {... */\n    tag_386:\n      swap3\n      swap2\n      pop\n      pop\n      jump\t// out\n        /* \"contracts/Pool/PoolPig.sol\":29361:30326  function swapAndLiquify(uint256 contractTokenBalance) private lockTheSwap {... */\n    tag_358:\n        /* \"contracts/Pool/PoolPig.sol\":17007:17011  true */\n      0x01\n        /* \"contracts/Pool/PoolPig.sol\":16988:17004  inSwapAndLiquify */\n      0x15\n      0x00\n        /* \"contracts/Pool/PoolPig.sol\":16988:17011  inSwapAndLiquify = true */\n      0x0100\n      exp\n      dup2\n      sload\n      dup2\n      0xff\n      mul\n      not\n      and\n      swap1\n      dup4\n      iszero\n      iszero\n      mul\n      or\n      swap1\n      sstore\n      pop\n        /* \"contracts/Pool/PoolPig.sol\":29495:29507  uint256 half */\n      0x00\n        /* \"contracts/Pool/PoolPig.sol\":29510:29537  contractTokenBalance.div(2) */\n      tag_392\n        /* \"contracts/Pool/PoolPig.sol\":29535:29536  2 */\n      0x02\n        /* \"contracts/Pool/PoolPig.sol\":29510:29530  contractTokenBalance */\n      dup4\n        /* \"contracts/Pool/PoolPig.sol\":29510:29534  contractTokenBalance.div */\n      tag_222\n      swap1\n        /* \"contracts/Pool/PoolPig.sol\":29510:29537  contractTokenBalance.div(2) */\n      swap2\n      swap1\n      0xffffffff\n      and\n      jump\t// in\n    tag_392:\n        /* \"contracts/Pool/PoolPig.sol\":29495:29537  uint256 half = contractTokenBalance.div(2) */\n      swap1\n      pop\n        /* \"contracts/Pool/PoolPig.sol\":29547:29564  uint256 otherHalf */\n      0x00\n        /* \"contracts/Pool/PoolPig.sol\":29567:29597  contractTokenBalance.sub(half) */\n      tag_393\n        /* \"contracts/Pool/PoolPig.sol\":29592:29596  half */\n      dup3\n        /* \"contracts/Pool/PoolPig.sol\":29567:29587  contractTokenBalance */\n      dup5\n        /* \"contracts/Pool/PoolPig.sol\":29567:29591  contractTokenBalance.sub */\n      tag_253\n      swap1\n        /* \"contracts/Pool/PoolPig.sol\":29567:29597  contractTokenBalance.sub(half) */\n      swap2\n      swap1\n      0xffffffff\n      and\n      jump\t// in\n    tag_393:\n        /* \"contracts/Pool/PoolPig.sol\":29547:29597  uint256 otherHalf = contractTokenBalance.sub(half) */\n      swap1\n      pop\n        /* \"contracts/Pool/PoolPig.sol\":29869:29891  uint256 initialBalance */\n      0x00\n        /* \"contracts/Pool/PoolPig.sol\":29894:29915  address(this).balance */\n      selfbalance\n        /* \"contracts/Pool/PoolPig.sol\":29869:29915  uint256 initialBalance = address(this).balance */\n      swap1\n      pop\n        /* \"contracts/Pool/PoolPig.sol\":29957:29979  swapTokensForEth(half) */\n      tag_394\n        /* \"contracts/Pool/PoolPig.sol\":29974:29978  half */\n      dup4\n        /* \"contracts/Pool/PoolPig.sol\":29957:29973  swapTokensForEth */\n      tag_395\n        /* \"contracts/Pool/PoolPig.sol\":29957:29979  swapTokensForEth(half) */\n      jump\t// in\n    tag_394:\n        /* \"contracts/Pool/PoolPig.sol\":30107:30125  uint256 newBalance */\n      0x00\n        /* \"contracts/Pool/PoolPig.sol\":30128:30169  address(this).balance.sub(initialBalance) */\n      tag_396\n        /* \"contracts/Pool/PoolPig.sol\":30154:30168  initialBalance */\n      dup3\n        /* \"contracts/Pool/PoolPig.sol\":30128:30149  address(this).balance */\n      selfbalance\n        /* \"contracts/Pool/PoolPig.sol\":30128:30153  address(this).balance.sub */\n      tag_253\n      swap1\n        /* \"contracts/Pool/PoolPig.sol\":30128:30169  address(this).balance.sub(initialBalance) */\n      swap2\n      swap1\n      0xffffffff\n      and\n      jump\t// in\n    tag_396:\n        /* \"contracts/Pool/PoolPig.sol\":30107:30169  uint256 newBalance = address(this).balance.sub(initialBalance) */\n      swap1\n      pop\n        /* \"contracts/Pool/PoolPig.sol\":30217:30252  addLiquidity(otherHalf, newBalance) */\n      tag_397\n        /* \"contracts/Pool/PoolPig.sol\":30230:30239  otherHalf */\n      dup4\n        /* \"contracts/Pool/PoolPig.sol\":30241:30251  newBalance */\n      dup3\n        /* \"contracts/Pool/PoolPig.sol\":30217:30229  addLiquidity */\n      tag_398\n        /* \"contracts/Pool/PoolPig.sol\":30217:30252  addLiquidity(otherHalf, newBalance) */\n      jump\t// in\n    tag_397:\n        /* \"contracts/Pool/PoolPig.sol\":30276:30319  SwapAndLiquify(half, newBalance, otherHalf) */\n      0x17bbfb9a6069321b6ded73bd96327c9e6b7212a5cd51ff219cd61370acafb561\n        /* \"contracts/Pool/PoolPig.sol\":30291:30295  half */\n      dup5\n        /* \"contracts/Pool/PoolPig.sol\":30297:30307  newBalance */\n      dup3\n        /* \"contracts/Pool/PoolPig.sol\":30309:30318  otherHalf */\n      dup6\n        /* \"contracts/Pool/PoolPig.sol\":30276:30319  SwapAndLiquify(half, newBalance, otherHalf) */\n      mload(0x40)\n      dup1\n      dup5\n      dup2\n      mstore\n      0x20\n      add\n      dup4\n      dup2\n      mstore\n      0x20\n      add\n      dup3\n      dup2\n      mstore\n      0x20\n      add\n      swap4\n      pop\n      pop\n      pop\n      pop\n      mload(0x40)\n      dup1\n      swap2\n      sub\n      swap1\n      log1\n        /* \"contracts/Pool/PoolPig.sol\":17021:17022  _ */\n      pop\n      pop\n      pop\n      pop\n        /* \"contracts/Pool/PoolPig.sol\":17051:17056  false */\n      0x00\n        /* \"contracts/Pool/PoolPig.sol\":17032:17048  inSwapAndLiquify */\n      0x15\n      0x00\n        /* \"contracts/Pool/PoolPig.sol\":17032:17056  inSwapAndLiquify = false */\n      0x0100\n      exp\n      dup2\n      sload\n      dup2\n      0xff\n      mul\n      not\n      and\n      swap1\n      dup4\n      iszero\n      iszero\n      mul\n      or\n      swap1\n      sstore\n      pop\n        /* \"contracts/Pool/PoolPig.sol\":29361:30326  function swapAndLiquify(uint256 contractTokenBalance) private lockTheSwap {... */\n      pop\n      jump\t// out\n        /* \"contracts/Pool/PoolPig.sol\":31489:32305  function _tokenTransfer(address sender, address recipient, uint256 amount,bool takeFee) private {... */\n    tag_362:\n        /* \"contracts/Pool/PoolPig.sol\":31599:31606  takeFee */\n      dup1\n        /* \"contracts/Pool/PoolPig.sol\":31595:31634  if(!takeFee)... */\n      tag_400\n      jumpi\n        /* \"contracts/Pool/PoolPig.sol\":31620:31634  removeAllFee() */\n      tag_401\n        /* \"contracts/Pool/PoolPig.sol\":31620:31632  removeAllFee */\n      tag_402\n        /* \"contracts/Pool/PoolPig.sol\":31620:31634  removeAllFee() */\n      jump\t// in\n    tag_401:\n        /* \"contracts/Pool/PoolPig.sol\":31595:31634  if(!takeFee)... */\n    tag_400:\n        /* \"contracts/Pool/PoolPig.sol\":31657:31668  _isExcluded */\n      0x07\n        /* \"contracts/Pool/PoolPig.sol\":31657:31676  _isExcluded[sender] */\n      0x00\n        /* \"contracts/Pool/PoolPig.sol\":31669:31675  sender */\n      dup6\n        /* \"contracts/Pool/PoolPig.sol\":31657:31676  _isExcluded[sender] */\n      0xffffffffffffffffffffffffffffffffffffffff\n      and\n      0xffffffffffffffffffffffffffffffffffffffff\n      and\n      dup2\n      mstore\n      0x20\n      add\n      swap1\n      dup2\n      mstore\n      0x20\n      add\n      0x00\n      keccak256\n      0x00\n      swap1\n      sload\n      swap1\n      0x0100\n      exp\n      swap1\n      div\n      0xff\n      and\n        /* \"contracts/Pool/PoolPig.sol\":31657:31703  _isExcluded[sender] && !_isExcluded[recipient] */\n      dup1\n      iszero\n      tag_403\n      jumpi\n      pop\n        /* \"contracts/Pool/PoolPig.sol\":31681:31692  _isExcluded */\n      0x07\n        /* \"contracts/Pool/PoolPig.sol\":31681:31703  _isExcluded[recipient] */\n      0x00\n        /* \"contracts/Pool/PoolPig.sol\":31693:31702  recipient */\n      dup5\n        /* \"contracts/Pool/PoolPig.sol\":31681:31703  _isExcluded[recipient] */\n      0xffffffffffffffffffffffffffffffffffffffff\n      and\n      0xffffffffffffffffffffffffffffffffffffffff\n      and\n      dup2\n      mstore\n      0x20\n      add\n      swap1\n      dup2\n      mstore\n      0x20\n      add\n      0x00\n      keccak256\n      0x00\n      swap1\n      sload\n      swap1\n      0x0100\n      exp\n      swap1\n      div\n      0xff\n      and\n        /* \"contracts/Pool/PoolPig.sol\":31680:31703  !_isExcluded[recipient] */\n      iszero\n        /* \"contracts/Pool/PoolPig.sol\":31657:31703  _isExcluded[sender] && !_isExcluded[recipient] */\n    tag_403:\n        /* \"contracts/Pool/PoolPig.sol\":31653:32240  if (_isExcluded[sender] && !_isExcluded[recipient]) {... */\n      iszero\n      tag_404\n      jumpi\n        /* \"contracts/Pool/PoolPig.sol\":31719:31767  _transferFromExcluded(sender, recipient, amount) */\n      tag_405\n        /* \"contracts/Pool/PoolPig.sol\":31741:31747  sender */\n      dup5\n        /* \"contracts/Pool/PoolPig.sol\":31749:31758  recipient */\n      dup5\n        /* \"contracts/Pool/PoolPig.sol\":31760:31766  amount */\n      dup5\n        /* \"contracts/Pool/PoolPig.sol\":31719:31740  _transferFromExcluded */\n      tag_406\n        /* \"contracts/Pool/PoolPig.sol\":31719:31767  _transferFromExcluded(sender, recipient, amount) */\n      jump\t// in\n    tag_405:\n        /* \"contracts/Pool/PoolPig.sol\":31653:32240  if (_isExcluded[sender] && !_isExcluded[recipient]) {... */\n      jump(tag_407)\n    tag_404:\n        /* \"contracts/Pool/PoolPig.sol\":31789:31800  _isExcluded */\n      0x07\n        /* \"contracts/Pool/PoolPig.sol\":31789:31808  _isExcluded[sender] */\n      0x00\n        /* \"contracts/Pool/PoolPig.sol\":31801:31807  sender */\n      dup6\n        /* \"contracts/Pool/PoolPig.sol\":31789:31808  _isExcluded[sender] */\n      0xffffffffffffffffffffffffffffffffffffffff\n      and\n      0xffffffffffffffffffffffffffffffffffffffff\n      and\n      dup2\n      mstore\n      0x20\n      add\n      swap1\n      dup2\n      mstore\n      0x20\n      add\n      0x00\n      keccak256\n      0x00\n      swap1\n      sload\n      swap1\n      0x0100\n      exp\n      swap1\n      div\n      0xff\n      and\n        /* \"contracts/Pool/PoolPig.sol\":31788:31808  !_isExcluded[sender] */\n      iszero\n        /* \"contracts/Pool/PoolPig.sol\":31788:31834  !_isExcluded[sender] && _isExcluded[recipient] */\n      dup1\n      iszero\n      tag_408\n      jumpi\n      pop\n        /* \"contracts/Pool/PoolPig.sol\":31812:31823  _isExcluded */\n      0x07\n        /* \"contracts/Pool/PoolPig.sol\":31812:31834  _isExcluded[recipient] */\n      0x00\n        /* \"contracts/Pool/PoolPig.sol\":31824:31833  recipient */\n      dup5\n        /* \"contracts/Pool/PoolPig.sol\":31812:31834  _isExcluded[recipient] */\n      0xffffffffffffffffffffffffffffffffffffffff\n      and\n      0xffffffffffffffffffffffffffffffffffffffff\n      and\n      dup2\n      mstore\n      0x20\n      add\n      swap1\n      dup2\n      mstore\n      0x20\n      add\n      0x00\n      keccak256\n      0x00\n      swap1\n      sload\n      swap1\n      0x0100\n      exp\n      swap1\n      div\n      0xff\n      and\n        /* \"contracts/Pool/PoolPig.sol\":31788:31834  !_isExcluded[sender] && _isExcluded[recipient] */\n    tag_408:\n        /* \"contracts/Pool/PoolPig.sol\":31784:32240  if (!_isExcluded[sender] && _isExcluded[recipient]) {... */\n      iszero\n      tag_409\n      jumpi\n        /* \"contracts/Pool/PoolPig.sol\":31850:31896  _transferToExcluded(sender, recipient, amount) */\n      tag_410\n        /* \"contracts/Pool/PoolPig.sol\":31870:31876  sender */\n      dup5\n        /* \"contracts/Pool/PoolPig.sol\":31878:31887  recipient */\n      dup5\n        /* \"contracts/Pool/PoolPig.sol\":31889:31895  amount */\n      dup5\n        /* \"contracts/Pool/PoolPig.sol\":31850:31869  _transferToExcluded */\n      tag_411\n        /* \"contracts/Pool/PoolPig.sol\":31850:31896  _transferToExcluded(sender, recipient, amount) */\n      jump\t// in\n    tag_410:\n        /* \"contracts/Pool/PoolPig.sol\":31784:32240  if (!_isExcluded[sender] && _isExcluded[recipient]) {... */\n      jump(tag_412)\n    tag_409:\n        /* \"contracts/Pool/PoolPig.sol\":31918:31929  _isExcluded */\n      0x07\n        /* \"contracts/Pool/PoolPig.sol\":31918:31937  _isExcluded[sender] */\n      0x00\n        /* \"contracts/Pool/PoolPig.sol\":31930:31936  sender */\n      dup6\n        /* \"contracts/Pool/PoolPig.sol\":31918:31937  _isExcluded[sender] */\n      0xffffffffffffffffffffffffffffffffffffffff\n      and\n      0xffffffffffffffffffffffffffffffffffffffff\n      and\n      dup2\n      mstore\n      0x20\n      add\n      swap1\n      dup2\n      mstore\n      0x20\n      add\n      0x00\n      keccak256\n      0x00\n      swap1\n      sload\n      swap1\n      0x0100\n      exp\n      swap1\n      div\n      0xff\n      and\n        /* \"contracts/Pool/PoolPig.sol\":31917:31937  !_isExcluded[sender] */\n      iszero\n        /* \"contracts/Pool/PoolPig.sol\":31917:31964  !_isExcluded[sender] && !_isExcluded[recipient] */\n      dup1\n      iszero\n      tag_413\n      jumpi\n      pop\n        /* \"contracts/Pool/PoolPig.sol\":31942:31953  _isExcluded */\n      0x07\n        /* \"contracts/Pool/PoolPig.sol\":31942:31964  _isExcluded[recipient] */\n      0x00\n        /* \"contracts/Pool/PoolPig.sol\":31954:31963  recipient */\n      dup5\n        /* \"contracts/Pool/PoolPig.sol\":31942:31964  _isExcluded[recipient] */\n      0xffffffffffffffffffffffffffffffffffffffff\n      and\n      0xffffffffffffffffffffffffffffffffffffffff\n      and\n      dup2\n      mstore\n      0x20\n      add\n      swap1\n      dup2\n      mstore\n      0x20\n      add\n      0x00\n      keccak256\n      0x00\n      swap1\n      sload\n      swap1\n      0x0100\n      exp\n      swap1\n      div\n      0xff\n      and\n        /* \"contracts/Pool/PoolPig.sol\":31941:31964  !_isExcluded[recipient] */\n      iszero\n        /* \"contracts/Pool/PoolPig.sol\":31917:31964  !_isExcluded[sender] && !_isExcluded[recipient] */\n    tag_413:\n        /* \"contracts/Pool/PoolPig.sol\":31913:32240  if (!_isExcluded[sender] && !_isExcluded[recipient]) {... */\n      iszero\n      tag_414\n      jumpi\n        /* \"contracts/Pool/PoolPig.sol\":31980:32024  _transferStandard(sender, recipient, amount) */\n      tag_415\n        /* \"contracts/Pool/PoolPig.sol\":31998:32004  sender */\n      dup5\n        /* \"contracts/Pool/PoolPig.sol\":32006:32015  recipient */\n      dup5\n        /* \"contracts/Pool/PoolPig.sol\":32017:32023  amount */\n      dup5\n        /* \"contracts/Pool/PoolPig.sol\":31980:31997  _transferStandard */\n      tag_416\n        /* \"contracts/Pool/PoolPig.sol\":31980:32024  _transferStandard(sender, recipient, amount) */\n      jump\t// in\n    tag_415:\n        /* \"contracts/Pool/PoolPig.sol\":31913:32240  if (!_isExcluded[sender] && !_isExcluded[recipient]) {... */\n      jump(tag_417)\n    tag_414:\n        /* \"contracts/Pool/PoolPig.sol\":32045:32056  _isExcluded */\n      0x07\n        /* \"contracts/Pool/PoolPig.sol\":32045:32064  _isExcluded[sender] */\n      0x00\n        /* \"contracts/Pool/PoolPig.sol\":32057:32063  sender */\n      dup6\n        /* \"contracts/Pool/PoolPig.sol\":32045:32064  _isExcluded[sender] */\n      0xffffffffffffffffffffffffffffffffffffffff\n      and\n      0xffffffffffffffffffffffffffffffffffffffff\n      and\n      dup2\n      mstore\n      0x20\n      add\n      swap1\n      dup2\n      mstore\n      0x20\n      add\n      0x00\n      keccak256\n      0x00\n      swap1\n      sload\n      swap1\n      0x0100\n      exp\n      swap1\n      div\n      0xff\n      and\n        /* \"contracts/Pool/PoolPig.sol\":32045:32090  _isExcluded[sender] && _isExcluded[recipient] */\n      dup1\n      iszero\n      tag_418\n      jumpi\n      pop\n        /* \"contracts/Pool/PoolPig.sol\":32068:32079  _isExcluded */\n      0x07\n        /* \"contracts/Pool/PoolPig.sol\":32068:32090  _isExcluded[recipient] */\n      0x00\n        /* \"contracts/Pool/PoolPig.sol\":32080:32089  recipient */\n      dup5\n        /* \"contracts/Pool/PoolPig.sol\":32068:32090  _isExcluded[recipient] */\n      0xffffffffffffffffffffffffffffffffffffffff\n      and\n      0xffffffffffffffffffffffffffffffffffffffff\n      and\n      dup2\n      mstore\n      0x20\n      add\n      swap1\n      dup2\n      mstore\n      0x20\n      add\n      0x00\n      keccak256\n      0x00\n      swap1\n      sload\n      swap1\n      0x0100\n      exp\n      swap1\n      div\n      0xff\n      and\n        /* \"contracts/Pool/PoolPig.sol\":32045:32090  _isExcluded[sender] && _isExcluded[recipient] */\n    tag_418:\n        /* \"contracts/Pool/PoolPig.sol\":32041:32240  if (_isExcluded[sender] && _isExcluded[recipient]) {... */\n      iszero\n      tag_419\n      jumpi\n        /* \"contracts/Pool/PoolPig.sol\":32106:32154  _transferBothExcluded(sender, recipient, amount) */\n      tag_420\n        /* \"contracts/Pool/PoolPig.sol\":32128:32134  sender */\n      dup5\n        /* \"contracts/Pool/PoolPig.sol\":32136:32145  recipient */\n      dup5\n        /* \"contracts/Pool/PoolPig.sol\":32147:32153  amount */\n      dup5\n        /* \"contracts/Pool/PoolPig.sol\":32106:32127  _transferBothExcluded */\n      tag_421\n        /* \"contracts/Pool/PoolPig.sol\":32106:32154  _transferBothExcluded(sender, recipient, amount) */\n      jump\t// in\n    tag_420:\n        /* \"contracts/Pool/PoolPig.sol\":32041:32240  if (_isExcluded[sender] && _isExcluded[recipient]) {... */\n      jump(tag_422)\n    tag_419:\n        /* \"contracts/Pool/PoolPig.sol\":32185:32229  _transferStandard(sender, recipient, amount) */\n      tag_423\n        /* \"contracts/Pool/PoolPig.sol\":32203:32209  sender */\n      dup5\n        /* \"contracts/Pool/PoolPig.sol\":32211:32220  recipient */\n      dup5\n        /* \"contracts/Pool/PoolPig.sol\":32222:32228  amount */\n      dup5\n        /* \"contracts/Pool/PoolPig.sol\":32185:32202  _transferStandard */\n      tag_416\n        /* \"contracts/Pool/PoolPig.sol\":32185:32229  _transferStandard(sender, recipient, amount) */\n      jump\t// in\n    tag_423:\n        /* \"contracts/Pool/PoolPig.sol\":32041:32240  if (_isExcluded[sender] && _isExcluded[recipient]) {... */\n    tag_422:\n        /* \"contracts/Pool/PoolPig.sol\":31913:32240  if (!_isExcluded[sender] && !_isExcluded[recipient]) {... */\n    tag_417:\n        /* \"contracts/Pool/PoolPig.sol\":31784:32240  if (!_isExcluded[sender] && _isExcluded[recipient]) {... */\n    tag_412:\n        /* \"contracts/Pool/PoolPig.sol\":31653:32240  if (_isExcluded[sender] && !_isExcluded[recipient]) {... */\n    tag_407:\n        /* \"contracts/Pool/PoolPig.sol\":32262:32269  takeFee */\n      dup1\n        /* \"contracts/Pool/PoolPig.sol\":32258:32298  if(!takeFee)... */\n      tag_424\n      jumpi\n        /* \"contracts/Pool/PoolPig.sol\":32283:32298  restoreAllFee() */\n      tag_425\n        /* \"contracts/Pool/PoolPig.sol\":32283:32296  restoreAllFee */\n      tag_426\n        /* \"contracts/Pool/PoolPig.sol\":32283:32298  restoreAllFee() */\n      jump\t// in\n    tag_425:\n        /* \"contracts/Pool/PoolPig.sol\":32258:32298  if(!takeFee)... */\n    tag_424:\n        /* \"contracts/Pool/PoolPig.sol\":31489:32305  function _tokenTransfer(address sender, address recipient, uint256 amount,bool takeFee) private {... */\n      pop\n      pop\n      pop\n      pop\n      jump\t// out\n        /* \"contracts/Pool/PoolPig.sol\":25768:26319  function _getCurrentSupply() private view returns(uint256, uint256) {... */\n    tag_371:\n        /* \"contracts/Pool/PoolPig.sol\":25818:25825  uint256 */\n      0x00\n        /* \"contracts/Pool/PoolPig.sol\":25827:25834  uint256 */\n      dup1\n        /* \"contracts/Pool/PoolPig.sol\":25846:25861  uint256 rSupply */\n      0x00\n        /* \"contracts/Pool/PoolPig.sol\":25864:25871  _rTotal */\n      sload(0x0c)\n        /* \"contracts/Pool/PoolPig.sol\":25846:25871  uint256 rSupply = _rTotal */\n      swap1\n      pop\n        /* \"contracts/Pool/PoolPig.sol\":25881:25896  uint256 tSupply */\n      0x00\n        /* \"contracts/Pool/PoolPig.sol\":15958:15976  1000000000 * 10**9 */\n      0x0de0b6b3a7640000\n        /* \"contracts/Pool/PoolPig.sol\":25881:25906  uint256 tSupply = _tTotal */\n      swap1\n      pop\n        /* \"contracts/Pool/PoolPig.sol\":25927:25936  uint256 i */\n      0x00\n        /* \"contracts/Pool/PoolPig.sol\":25922:26207  for (uint256 i = 0; i < _excluded.length; i++) {... */\n    tag_428:\n        /* \"contracts/Pool/PoolPig.sol\":25946:25955  _excluded */\n      0x08\n        /* \"contracts/Pool/PoolPig.sol\":25946:25962  _excluded.length */\n      dup1\n      sload\n      swap1\n      pop\n        /* \"contracts/Pool/PoolPig.sol\":25942:25943  i */\n      dup2\n        /* \"contracts/Pool/PoolPig.sol\":25942:25962  i < _excluded.length */\n      lt\n        /* \"contracts/Pool/PoolPig.sol\":25922:26207  for (uint256 i = 0; i < _excluded.length; i++) {... */\n      iszero\n      tag_429\n      jumpi\n        /* \"contracts/Pool/PoolPig.sol\":26011:26018  rSupply */\n      dup3\n        /* \"contracts/Pool/PoolPig.sol\":25987:25994  _rOwned */\n      0x03\n        /* \"contracts/Pool/PoolPig.sol\":25987:26008  _rOwned[_excluded[i]] */\n      0x00\n        /* \"contracts/Pool/PoolPig.sol\":25995:26004  _excluded */\n      0x08\n        /* \"contracts/Pool/PoolPig.sol\":26005:26006  i */\n      dup5\n        /* \"contracts/Pool/PoolPig.sol\":25995:26007  _excluded[i] */\n      dup2\n      sload\n      dup2\n      lt\n      tag_431\n      jumpi\n      invalid\n    tag_431:\n      swap1\n      0x00\n      mstore\n      keccak256(0x00, 0x20)\n      add\n      0x00\n      swap1\n      sload\n      swap1\n      0x0100\n      exp\n      swap1\n      div\n      0xffffffffffffffffffffffffffffffffffffffff\n      and\n        /* \"contracts/Pool/PoolPig.sol\":25987:26008  _rOwned[_excluded[i]] */\n      0xffffffffffffffffffffffffffffffffffffffff\n      and\n      0xffffffffffffffffffffffffffffffffffffffff\n      and\n      dup2\n      mstore\n      0x20\n      add\n      swap1\n      dup2\n      mstore\n      0x20\n      add\n      0x00\n      keccak256\n      sload\n        /* \"contracts/Pool/PoolPig.sol\":25987:26018  _rOwned[_excluded[i]] > rSupply */\n      gt\n        /* \"contracts/Pool/PoolPig.sol\":25987:26053  _rOwned[_excluded[i]] > rSupply || _tOwned[_excluded[i]] > tSupply */\n      dup1\n      tag_433\n      jumpi\n      pop\n        /* \"contracts/Pool/PoolPig.sol\":26046:26053  tSupply */\n      dup2\n        /* \"contracts/Pool/PoolPig.sol\":26022:26029  _tOwned */\n      0x04\n        /* \"contracts/Pool/PoolPig.sol\":26022:26043  _tOwned[_excluded[i]] */\n      0x00\n        /* \"contracts/Pool/PoolPig.sol\":26030:26039  _excluded */\n      0x08\n        /* \"contracts/Pool/PoolPig.sol\":26040:26041  i */\n      dup5\n        /* \"contracts/Pool/PoolPig.sol\":26030:26042  _excluded[i] */\n      dup2\n      sload\n      dup2\n      lt\n      tag_434\n      jumpi\n      invalid\n    tag_434:\n      swap1\n      0x00\n      mstore\n      keccak256(0x00, 0x20)\n      add\n      0x00\n      swap1\n      sload\n      swap1\n      0x0100\n      exp\n      swap1\n      div\n      0xffffffffffffffffffffffffffffffffffffffff\n      and\n        /* \"contracts/Pool/PoolPig.sol\":26022:26043  _tOwned[_excluded[i]] */\n      0xffffffffffffffffffffffffffffffffffffffff\n      and\n      0xffffffffffffffffffffffffffffffffffffffff\n      and\n      dup2\n      mstore\n      0x20\n      add\n      swap1\n      dup2\n      mstore\n      0x20\n      add\n      0x00\n      keccak256\n      sload\n        /* \"contracts/Pool/PoolPig.sol\":26022:26053  _tOwned[_excluded[i]] > tSupply */\n      gt\n        /* \"contracts/Pool/PoolPig.sol\":25987:26053  _rOwned[_excluded[i]] > rSupply || _tOwned[_excluded[i]] > tSupply */\n    tag_433:\n        /* \"contracts/Pool/PoolPig.sol\":25983:26080  if (_rOwned[_excluded[i]] > rSupply || _tOwned[_excluded[i]] > tSupply) return (_rTotal, _tTotal) */\n      iszero\n      tag_436\n      jumpi\n        /* \"contracts/Pool/PoolPig.sol\":26063:26070  _rTotal */\n      sload(0x0c)\n        /* \"contracts/Pool/PoolPig.sol\":15958:15976  1000000000 * 10**9 */\n      0x0de0b6b3a7640000\n        /* \"contracts/Pool/PoolPig.sol\":26055:26080  return (_rTotal, _tTotal) */\n      swap5\n      pop\n      swap5\n      pop\n      pop\n      pop\n      pop\n      jump(tag_427)\n        /* \"contracts/Pool/PoolPig.sol\":25983:26080  if (_rOwned[_excluded[i]] > rSupply || _tOwned[_excluded[i]] > tSupply) return (_rTotal, _tTotal) */\n    tag_436:\n        /* \"contracts/Pool/PoolPig.sol\":26104:26138  rSupply.sub(_rOwned[_excluded[i]]) */\n      tag_437\n        /* \"contracts/Pool/PoolPig.sol\":26116:26123  _rOwned */\n      0x03\n        /* \"contracts/Pool/PoolPig.sol\":26116:26137  _rOwned[_excluded[i]] */\n      0x00\n        /* \"contracts/Pool/PoolPig.sol\":26124:26133  _excluded */\n      0x08\n        /* \"contracts/Pool/PoolPig.sol\":26134:26135  i */\n      dup5\n        /* \"contracts/Pool/PoolPig.sol\":26124:26136  _excluded[i] */\n      dup2\n      sload\n      dup2\n      lt\n      tag_438\n      jumpi\n      invalid\n    tag_438:\n      swap1\n      0x00\n      mstore\n      keccak256(0x00, 0x20)\n      add\n      0x00\n      swap1\n      sload\n      swap1\n      0x0100\n      exp\n      swap1\n      div\n      0xffffffffffffffffffffffffffffffffffffffff\n      and\n        /* \"contracts/Pool/PoolPig.sol\":26116:26137  _rOwned[_excluded[i]] */\n      0xffffffffffffffffffffffffffffffffffffffff\n      and\n      0xffffffffffffffffffffffffffffffffffffffff\n      and\n      dup2\n      mstore\n      0x20\n      add\n      swap1\n      dup2\n      mstore\n      0x20\n      add\n      0x00\n      keccak256\n      sload\n        /* \"contracts/Pool/PoolPig.sol\":26104:26111  rSupply */\n      dup5\n        /* \"contracts/Pool/PoolPig.sol\":26104:26115  rSupply.sub */\n      tag_253\n      swap1\n        /* \"contracts/Pool/PoolPig.sol\":26104:26138  rSupply.sub(_rOwned[_excluded[i]]) */\n      swap2\n      swap1\n      0xffffffff\n      and\n      jump\t// in\n    tag_437:\n        /* \"contracts/Pool/PoolPig.sol\":26094:26138  rSupply = rSupply.sub(_rOwned[_excluded[i]]) */\n      swap3\n      pop\n        /* \"contracts/Pool/PoolPig.sol\":26162:26196  tSupply.sub(_tOwned[_excluded[i]]) */\n      tag_440\n        /* \"contracts/Pool/PoolPig.sol\":26174:26181  _tOwned */\n      0x04\n        /* \"contracts/Pool/PoolPig.sol\":26174:26195  _tOwned[_excluded[i]] */\n      0x00\n        /* \"contracts/Pool/PoolPig.sol\":26182:26191  _excluded */\n      0x08\n        /* \"contracts/Pool/PoolPig.sol\":26192:26193  i */\n      dup5\n        /* \"contracts/Pool/PoolPig.sol\":26182:26194  _excluded[i] */\n      dup2\n      sload\n      dup2\n      lt\n      tag_441\n      jumpi\n      invalid\n    tag_441:\n      swap1\n      0x00\n      mstore\n      keccak256(0x00, 0x20)\n      add\n      0x00\n      swap1\n      sload\n      swap1\n      0x0100\n      exp\n      swap1\n      div\n      0xffffffffffffffffffffffffffffffffffffffff\n      and\n        /* \"contracts/Pool/PoolPig.sol\":26174:26195  _tOwned[_excluded[i]] */\n      0xffffffffffffffffffffffffffffffffffffffff\n      and\n      0xffffffffffffffffffffffffffffffffffffffff\n      and\n      dup2\n      mstore\n      0x20\n      add\n      swap1\n      dup2\n      mstore\n      0x20\n      add\n      0x00\n      keccak256\n      sload\n        /* \"contracts/Pool/PoolPig.sol\":26162:26169  tSupply */\n      dup4\n        /* \"contracts/Pool/PoolPig.sol\":26162:26173  tSupply.sub */\n      tag_253\n      swap1\n        /* \"contracts/Pool/PoolPig.sol\":26162:26196  tSupply.sub(_tOwned[_excluded[i]]) */\n      swap2\n      swap1\n      0xffffffff\n      and\n      jump\t// in\n    tag_440:\n        /* \"contracts/Pool/PoolPig.sol\":26152:26196  tSupply = tSupply.sub(_tOwned[_excluded[i]]) */\n      swap2\n      pop\n        /* \"contracts/Pool/PoolPig.sol\":25964:25967  i++ */\n      dup1\n      dup1\n      0x01\n      add\n      swap2\n      pop\n      pop\n        /* \"contracts/Pool/PoolPig.sol\":25922:26207  for (uint256 i = 0; i < _excluded.length; i++) {... */\n      jump(tag_428)\n    tag_429:\n      pop\n        /* \"contracts/Pool/PoolPig.sol\":26230:26250  _rTotal.div(_tTotal) */\n      tag_443\n        /* \"contracts/Pool/PoolPig.sol\":15958:15976  1000000000 * 10**9 */\n      0x0de0b6b3a7640000\n        /* \"contracts/Pool/PoolPig.sol\":26230:26237  _rTotal */\n      sload(0x0c)\n        /* \"contracts/Pool/PoolPig.sol\":26230:26241  _rTotal.div */\n      tag_222\n      swap1\n        /* \"contracts/Pool/PoolPig.sol\":26230:26250  _rTotal.div(_tTotal) */\n      swap2\n      swap1\n      0xffffffff\n      and\n      jump\t// in\n    tag_443:\n        /* \"contracts/Pool/PoolPig.sol\":26220:26227  rSupply */\n      dup3\n        /* \"contracts/Pool/PoolPig.sol\":26220:26250  rSupply < _rTotal.div(_tTotal) */\n      lt\n        /* \"contracts/Pool/PoolPig.sol\":26216:26277  if (rSupply < _rTotal.div(_tTotal)) return (_rTotal, _tTotal) */\n      iszero\n      tag_444\n      jumpi\n        /* \"contracts/Pool/PoolPig.sol\":26260:26267  _rTotal */\n      sload(0x0c)\n        /* \"contracts/Pool/PoolPig.sol\":15958:15976  1000000000 * 10**9 */\n      0x0de0b6b3a7640000\n        /* \"contracts/Pool/PoolPig.sol\":26252:26277  return (_rTotal, _tTotal) */\n      swap4\n      pop\n      swap4\n      pop\n      pop\n      pop\n      jump(tag_427)\n        /* \"contracts/Pool/PoolPig.sol\":26216:26277  if (rSupply < _rTotal.div(_tTotal)) return (_rTotal, _tTotal) */\n    tag_444:\n        /* \"contracts/Pool/PoolPig.sol\":26295:26302  rSupply */\n      dup2\n        /* \"contracts/Pool/PoolPig.sol\":26304:26311  tSupply */\n      dup2\n        /* \"contracts/Pool/PoolPig.sol\":26287:26312  return (rSupply, tSupply) */\n      swap4\n      pop\n      swap4\n      pop\n      pop\n      pop\n        /* \"contracts/Pool/PoolPig.sol\":25768:26319  function _getCurrentSupply() private view returns(uint256, uint256) {... */\n    tag_427:\n      swap1\n      swap2\n      jump\t// out\n        /* \"contracts/Pool/PoolPig.sol\":1646:1918  function div(uint256 a, uint256 b, string memory errorMessage) internal pure returns (uint256) {... */\n    tag_375:\n        /* \"contracts/Pool/PoolPig.sol\":1732:1739  uint256 */\n      0x00\n        /* \"contracts/Pool/PoolPig.sol\":1763:1764  0 */\n      dup1\n        /* \"contracts/Pool/PoolPig.sol\":1759:1760  b */\n      dup4\n        /* \"contracts/Pool/PoolPig.sol\":1759:1764  b > 0 */\n      gt\n        /* \"contracts/Pool/PoolPig.sol\":1766:1778  errorMessage */\n      dup3\n        /* \"contracts/Pool/PoolPig.sol\":1751:1779  require(b > 0, errorMessage) */\n      swap1\n      tag_446\n      jumpi\n      mload(0x40)\n      0x08c379a000000000000000000000000000000000000000000000000000000000\n      dup2\n      mstore\n      0x04\n      add\n      dup1\n      dup1\n      0x20\n      add\n      dup3\n      dup2\n      sub\n      dup3\n      mstore\n      dup4\n      dup2\n      dup2\n      mload\n      dup2\n      mstore\n      0x20\n      add\n      swap2\n      pop\n      dup1\n      mload\n      swap1\n      0x20\n      add\n      swap1\n      dup1\n      dup4\n      dup4\n      0x00\n    tag_447:\n      dup4\n      dup2\n      lt\n      iszero\n      tag_449\n      jumpi\n      dup1\n      dup3\n      add\n      mload\n      dup2\n      dup5\n      add\n      mstore\n      0x20\n      dup2\n      add\n      swap1\n      pop\n      jump(tag_447)\n    tag_449:\n      pop\n      pop\n      pop\n      pop\n      swap1\n      pop\n      swap1\n      dup2\n      add\n      swap1\n      0x1f\n      and\n      dup1\n      iszero\n      tag_450\n      jumpi\n      dup1\n      dup3\n      sub\n      dup1\n      mload\n      0x01\n      dup4\n      0x20\n      sub\n      0x0100\n      exp\n      sub\n      not\n      and\n      dup2\n      mstore\n      0x20\n      add\n      swap2\n      pop\n    tag_450:\n      pop\n      swap3\n      pop\n      pop\n      pop\n      mload(0x40)\n      dup1\n      swap2\n      sub\n      swap1\n      revert\n    tag_446:\n      pop\n        /* \"contracts/Pool/PoolPig.sol\":1789:1798  uint256 c */\n      0x00\n        /* \"contracts/Pool/PoolPig.sol\":1805:1806  b */\n      dup4\n        /* \"contracts/Pool/PoolPig.sol\":1801:1802  a */\n      dup6\n        /* \"contracts/Pool/PoolPig.sol\":1801:1806  a / b */\n      dup2\n      tag_451\n      jumpi\n      invalid\n    tag_451:\n      div\n        /* \"contracts/Pool/PoolPig.sol\":1789:1806  uint256 c = a / b */\n      swap1\n      pop\n        /* \"contracts/Pool/PoolPig.sol\":1910:1911  c */\n      dup1\n        /* \"contracts/Pool/PoolPig.sol\":1903:1911  return c */\n      swap2\n      pop\n      pop\n        /* \"contracts/Pool/PoolPig.sol\":1646:1918  function div(uint256 a, uint256 b, string memory errorMessage) internal pure returns (uint256) {... */\n      swap4\n      swap3\n      pop\n      pop\n      pop\n      jump\t// out\n        /* \"contracts/Pool/PoolPig.sol\":24842:25167  function _getTValues(uint256 tAmount) private view returns (uint256, uint256, uint256) {... */\n    tag_380:\n        /* \"contracts/Pool/PoolPig.sol\":24902:24909  uint256 */\n      0x00\n        /* \"contracts/Pool/PoolPig.sol\":24911:24918  uint256 */\n      dup1\n        /* \"contracts/Pool/PoolPig.sol\":24920:24927  uint256 */\n      0x00\n        /* \"contracts/Pool/PoolPig.sol\":24939:24951  uint256 tFee */\n      dup1\n        /* \"contracts/Pool/PoolPig.sol\":24954:24978  calculateTaxFee(tAmount) */\n      tag_453\n        /* \"contracts/Pool/PoolPig.sol\":24970:24977  tAmount */\n      dup6\n        /* \"contracts/Pool/PoolPig.sol\":24954:24969  calculateTaxFee */\n      tag_454\n        /* \"contracts/Pool/PoolPig.sol\":24954:24978  calculateTaxFee(tAmount) */\n      jump\t// in\n    tag_453:\n        /* \"contracts/Pool/PoolPig.sol\":24939:24978  uint256 tFee = calculateTaxFee(tAmount) */\n      swap1\n      pop\n        /* \"contracts/Pool/PoolPig.sol\":24988:25006  uint256 tLiquidity */\n      0x00\n        /* \"contracts/Pool/PoolPig.sol\":25009:25039  calculateLiquidityFee(tAmount) */\n      tag_455\n        /* \"contracts/Pool/PoolPig.sol\":25031:25038  tAmount */\n      dup7\n        /* \"contracts/Pool/PoolPig.sol\":25009:25030  calculateLiquidityFee */\n      tag_456\n        /* \"contracts/Pool/PoolPig.sol\":25009:25039  calculateLiquidityFee(tAmount) */\n      jump\t// in\n    tag_455:\n        /* \"contracts/Pool/PoolPig.sol\":24988:25039  uint256 tLiquidity = calculateLiquidityFee(tAmount) */\n      swap1\n      pop\n        /* \"contracts/Pool/PoolPig.sol\":25049:25072  uint256 tTransferAmount */\n      0x00\n        /* \"contracts/Pool/PoolPig.sol\":25075:25108  tAmount.sub(tFee).sub(tLiquidity) */\n      tag_457\n        /* \"contracts/Pool/PoolPig.sol\":25097:25107  tLiquidity */\n      dup3\n        /* \"contracts/Pool/PoolPig.sol\":25075:25092  tAmount.sub(tFee) */\n      tag_458\n        /* \"contracts/Pool/PoolPig.sol\":25087:25091  tFee */\n      dup6\n        /* \"contracts/Pool/PoolPig.sol\":25075:25082  tAmount */\n      dup11\n        /* \"contracts/Pool/PoolPig.sol\":25075:25086  tAmount.sub */\n      tag_253\n      swap1\n        /* \"contracts/Pool/PoolPig.sol\":25075:25092  tAmount.sub(tFee) */\n      swap2\n      swap1\n      0xffffffff\n      and\n      jump\t// in\n    tag_458:\n        /* \"contracts/Pool/PoolPig.sol\":25075:25096  tAmount.sub(tFee).sub */\n      tag_253\n      swap1\n        /* \"contracts/Pool/PoolPig.sol\":25075:25108  tAmount.sub(tFee).sub(tLiquidity) */\n      swap2\n      swap1\n      0xffffffff\n      and\n      jump\t// in\n    tag_457:\n        /* \"contracts/Pool/PoolPig.sol\":25049:25108  uint256 tTransferAmount = tAmount.sub(tFee).sub(tLiquidity) */\n      swap1\n      pop\n        /* \"contracts/Pool/PoolPig.sol\":25126:25141  tTransferAmount */\n      dup1\n        /* \"contracts/Pool/PoolPig.sol\":25143:25147  tFee */\n      dup4\n        /* \"contracts/Pool/PoolPig.sol\":25149:25159  tLiquidity */\n      dup4\n        /* \"contracts/Pool/PoolPig.sol\":25118:25160  return (tTransferAmount, tFee, tLiquidity) */\n      swap6\n      pop\n      swap6\n      pop\n      swap6\n      pop\n      pop\n      pop\n      pop\n        /* \"contracts/Pool/PoolPig.sol\":24842:25167  function _getTValues(uint256 tAmount) private view returns (uint256, uint256, uint256) {... */\n      swap2\n      swap4\n      swap1\n      swap3\n      pop\n      jump\t// out\n        /* \"contracts/Pool/PoolPig.sol\":25173:25596  function _getRValues(uint256 tAmount, uint256 tFee, uint256 tLiquidity, uint256 currentRate) private pure returns (uint256, uint256, uint256) {... */\n    tag_383:\n        /* \"contracts/Pool/PoolPig.sol\":25288:25295  uint256 */\n      0x00\n        /* \"contracts/Pool/PoolPig.sol\":25297:25304  uint256 */\n      dup1\n        /* \"contracts/Pool/PoolPig.sol\":25306:25313  uint256 */\n      0x00\n        /* \"contracts/Pool/PoolPig.sol\":25325:25340  uint256 rAmount */\n      dup1\n        /* \"contracts/Pool/PoolPig.sol\":25343:25367  tAmount.mul(currentRate) */\n      tag_460\n        /* \"contracts/Pool/PoolPig.sol\":25355:25366  currentRate */\n      dup6\n        /* \"contracts/Pool/PoolPig.sol\":25343:25350  tAmount */\n      dup10\n        /* \"contracts/Pool/PoolPig.sol\":25343:25354  tAmount.mul */\n      tag_323\n      swap1\n        /* \"contracts/Pool/PoolPig.sol\":25343:25367  tAmount.mul(currentRate) */\n      swap2\n      swap1\n      0xffffffff\n      and\n      jump\t// in\n    tag_460:\n        /* \"contracts/Pool/PoolPig.sol\":25325:25367  uint256 rAmount = tAmount.mul(currentRate) */\n      swap1\n      pop\n        /* \"contracts/Pool/PoolPig.sol\":25377:25389  uint256 rFee */\n      0x00\n        /* \"contracts/Pool/PoolPig.sol\":25392:25413  tFee.mul(currentRate) */\n      tag_461\n        /* \"contracts/Pool/PoolPig.sol\":25401:25412  currentRate */\n      dup7\n        /* \"contracts/Pool/PoolPig.sol\":25392:25396  tFee */\n      dup10\n        /* \"contracts/Pool/PoolPig.sol\":25392:25400  tFee.mul */\n      tag_323\n      swap1\n        /* \"contracts/Pool/PoolPig.sol\":25392:25413  tFee.mul(currentRate) */\n      swap2\n      swap1\n      0xffffffff\n      and\n      jump\t// in\n    tag_461:\n        /* \"contracts/Pool/PoolPig.sol\":25377:25413  uint256 rFee = tFee.mul(currentRate) */\n      swap1\n      pop\n        /* \"contracts/Pool/PoolPig.sol\":25423:25441  uint256 rLiquidity */\n      0x00\n        /* \"contracts/Pool/PoolPig.sol\":25444:25471  tLiquidity.mul(currentRate) */\n      tag_462\n        /* \"contracts/Pool/PoolPig.sol\":25459:25470  currentRate */\n      dup8\n        /* \"contracts/Pool/PoolPig.sol\":25444:25454  tLiquidity */\n      dup10\n        /* \"contracts/Pool/PoolPig.sol\":25444:25458  tLiquidity.mul */\n      tag_323\n      swap1\n        /* \"contracts/Pool/PoolPig.sol\":25444:25471  tLiquidity.mul(currentRate) */\n      swap2\n      swap1\n      0xffffffff\n      and\n      jump\t// in\n    tag_462:\n        /* \"contracts/Pool/PoolPig.sol\":25423:25471  uint256 rLiquidity = tLiquidity.mul(currentRate) */\n      swap1\n      pop\n        /* \"contracts/Pool/PoolPig.sol\":25481:25504  uint256 rTransferAmount */\n      0x00\n        /* \"contracts/Pool/PoolPig.sol\":25507:25540  rAmount.sub(rFee).sub(rLiquidity) */\n      tag_463\n        /* \"contracts/Pool/PoolPig.sol\":25529:25539  rLiquidity */\n      dup3\n        /* \"contracts/Pool/PoolPig.sol\":25507:25524  rAmount.sub(rFee) */\n      tag_464\n        /* \"contracts/Pool/PoolPig.sol\":25519:25523  rFee */\n      dup6\n        /* \"contracts/Pool/PoolPig.sol\":25507:25514  rAmount */\n      dup8\n        /* \"contracts/Pool/PoolPig.sol\":25507:25518  rAmount.sub */\n      tag_253\n      swap1\n        /* \"contracts/Pool/PoolPig.sol\":25507:25524  rAmount.sub(rFee) */\n      swap2\n      swap1\n      0xffffffff\n      and\n      jump\t// in\n    tag_464:\n        /* \"contracts/Pool/PoolPig.sol\":25507:25528  rAmount.sub(rFee).sub */\n      tag_253\n      swap1\n        /* \"contracts/Pool/PoolPig.sol\":25507:25540  rAmount.sub(rFee).sub(rLiquidity) */\n      swap2\n      swap1\n      0xffffffff\n      and\n      jump\t// in\n    tag_463:\n        /* \"contracts/Pool/PoolPig.sol\":25481:25540  uint256 rTransferAmount = rAmount.sub(rFee).sub(rLiquidity) */\n      swap1\n      pop\n        /* \"contracts/Pool/PoolPig.sol\":25558:25565  rAmount */\n      dup4\n        /* \"contracts/Pool/PoolPig.sol\":25567:25582  rTransferAmount */\n      dup2\n        /* \"contracts/Pool/PoolPig.sol\":25584:25588  rFee */\n      dup5\n        /* \"contracts/Pool/PoolPig.sol\":25550:25589  return (rAmount, rTransferAmount, rFee) */\n      swap7\n      pop\n      swap7\n      pop\n      swap7\n      pop\n      pop\n      pop\n      pop\n      pop\n        /* \"contracts/Pool/PoolPig.sol\":25173:25596  function _getRValues(uint256 tAmount, uint256 tFee, uint256 tLiquidity, uint256 currentRate) private pure returns (uint256, uint256, uint256) {... */\n      swap5\n      pop\n      swap5\n      pop\n      swap5\n      swap2\n      pop\n      pop\n      jump\t// out\n        /* \"contracts/Pool/PoolPig.sol\":30332:30905  function swapTokensForEth(uint256 tokenAmount) private {... */\n    tag_395:\n        /* \"contracts/Pool/PoolPig.sol\":30456:30477  address[] memory path */\n      0x60\n        /* \"contracts/Pool/PoolPig.sol\":30494:30495  2 */\n      0x02\n        /* \"contracts/Pool/PoolPig.sol\":30480:30496  new address[](2) */\n      0xffffffffffffffff\n      dup2\n      gt\n      dup1\n      iszero\n      tag_466\n      jumpi\n      0x00\n      dup1\n      revert\n    tag_466:\n      pop\n      mload(0x40)\n      swap1\n      dup1\n      dup3\n      mstore\n      dup1\n      0x20\n      mul\n      0x20\n      add\n      dup3\n      add\n      0x40\n      mstore\n      dup1\n      iszero\n      tag_467\n      jumpi\n      dup2\n      0x20\n      add\n      0x20\n      dup3\n      mul\n      dup1\n      calldatasize\n      dup4\n      calldatacopy\n      dup1\n      dup3\n      add\n      swap2\n      pop\n      pop\n      swap1\n      pop\n    tag_467:\n      pop\n        /* \"contracts/Pool/PoolPig.sol\":30456:30496  address[] memory path = new address[](2) */\n      swap1\n      pop\n        /* \"contracts/Pool/PoolPig.sol\":30524:30528  this */\n      address\n        /* \"contracts/Pool/PoolPig.sol\":30506:30510  path */\n      dup2\n        /* \"contracts/Pool/PoolPig.sol\":30511:30512  0 */\n      0x00\n        /* \"contracts/Pool/PoolPig.sol\":30506:30513  path[0] */\n      dup2\n      mload\n      dup2\n      lt\n      tag_468\n      jumpi\n      invalid\n    tag_468:\n      0x20\n      mul\n      0x20\n      add\n      add\n        /* \"contracts/Pool/PoolPig.sol\":30506:30529  path[0] = address(this) */\n      swap1\n      0xffffffffffffffffffffffffffffffffffffffff\n      and\n      swap1\n      dup2\n      0xffffffffffffffffffffffffffffffffffffffff\n      and\n      dup2\n      mstore\n      pop\n      pop\n        /* \"contracts/Pool/PoolPig.sol\":30549:30564  uniswapV2Router */\n      immutable(\"0xdfbf0bb877c2c5ca067d8597311506e24b894aa65a6fe980502f7e7b5c70fa94\")\n        /* \"contracts/Pool/PoolPig.sol\":30549:30569  uniswapV2Router.WETH */\n      0xffffffffffffffffffffffffffffffffffffffff\n      and\n      0xad5c4648\n        /* \"contracts/Pool/PoolPig.sol\":30549:30571  uniswapV2Router.WETH() */\n      mload(0x40)\n      dup2\n      0xffffffff\n      and\n      0xe0\n      shl\n      dup2\n      mstore\n      0x04\n      add\n      0x20\n      mload(0x40)\n      dup1\n      dup4\n      sub\n      dup2\n      dup7\n      dup1\n      extcodesize\n      iszero\n      dup1\n      iszero\n      tag_469\n      jumpi\n      0x00\n      dup1\n      revert\n    tag_469:\n      pop\n      gas\n      staticcall\n      iszero\n      dup1\n      iszero\n      tag_471\n      jumpi\n      returndatasize\n      0x00\n      dup1\n      returndatacopy\n      revert(0x00, returndatasize)\n    tag_471:\n      pop\n      pop\n      pop\n      pop\n      mload(0x40)\n      returndatasize\n      0x20\n      dup2\n      lt\n      iszero\n      tag_472\n      jumpi\n      0x00\n      dup1\n      revert\n    tag_472:\n      dup2\n      add\n      swap1\n      dup1\n      dup1\n      mload\n      swap1\n      0x20\n      add\n      swap1\n      swap3\n      swap2\n      swap1\n      pop\n      pop\n      pop\n        /* \"contracts/Pool/PoolPig.sol\":30539:30543  path */\n      dup2\n        /* \"contracts/Pool/PoolPig.sol\":30544:30545  1 */\n      0x01\n        /* \"contracts/Pool/PoolPig.sol\":30539:30546  path[1] */\n      dup2\n      mload\n      dup2\n      lt\n      tag_473\n      jumpi\n      invalid\n    tag_473:\n      0x20\n      mul\n      0x20\n      add\n      add\n        /* \"contracts/Pool/PoolPig.sol\":30539:30571  path[1] = uniswapV2Router.WETH() */\n      swap1\n      0xffffffffffffffffffffffffffffffffffffffff\n      and\n      swap1\n      dup2\n      0xffffffffffffffffffffffffffffffffffffffff\n      and\n      dup2\n      mstore\n      pop\n      pop\n        /* \"contracts/Pool/PoolPig.sol\":30582:30644  _approve(address(this), address(uniswapV2Router), tokenAmount) */\n      tag_474\n        /* \"contracts/Pool/PoolPig.sol\":30599:30603  this */\n      address\n        /* \"contracts/Pool/PoolPig.sol\":30614:30629  uniswapV2Router */\n      immutable(\"0xdfbf0bb877c2c5ca067d8597311506e24b894aa65a6fe980502f7e7b5c70fa94\")\n        /* \"contracts/Pool/PoolPig.sol\":30632:30643  tokenAmount */\n      dup5\n        /* \"contracts/Pool/PoolPig.sol\":30582:30590  _approve */\n      tag_206\n        /* \"contracts/Pool/PoolPig.sol\":30582:30644  _approve(address(this), address(uniswapV2Router), tokenAmount) */\n      jump\t// in\n    tag_474:\n        /* \"contracts/Pool/PoolPig.sol\":30680:30695  uniswapV2Router */\n      immutable(\"0xdfbf0bb877c2c5ca067d8597311506e24b894aa65a6fe980502f7e7b5c70fa94\")\n        /* \"contracts/Pool/PoolPig.sol\":30680:30746  uniswapV2Router.swapExactTokensForETHSupportingFeeOnTransferTokens */\n      0xffffffffffffffffffffffffffffffffffffffff\n      and\n      0x791ac947\n        /* \"contracts/Pool/PoolPig.sol\":30760:30771  tokenAmount */\n      dup4\n        /* \"contracts/Pool/PoolPig.sol\":30785:30786  0 */\n      0x00\n        /* \"contracts/Pool/PoolPig.sol\":30828:30832  path */\n      dup5\n        /* \"contracts/Pool/PoolPig.sol\":30854:30858  this */\n      address\n        /* \"contracts/Pool/PoolPig.sol\":30873:30888  block.timestamp */\n      timestamp\n        /* \"contracts/Pool/PoolPig.sol\":30680:30898  uniswapV2Router.swapExactTokensForETHSupportingFeeOnTransferTokens(... */\n      mload(0x40)\n      dup7\n      0xffffffff\n      and\n      0xe0\n      shl\n      dup2\n      mstore\n      0x04\n      add\n      dup1\n      dup7\n      dup2\n      mstore\n      0x20\n      add\n      dup6\n      dup2\n      mstore\n      0x20\n      add\n      dup1\n      0x20\n      add\n      dup5\n      0xffffffffffffffffffffffffffffffffffffffff\n      and\n      dup2\n      mstore\n      0x20\n      add\n      dup4\n      dup2\n      mstore\n      0x20\n      add\n      dup3\n      dup2\n      sub\n      dup3\n      mstore\n      dup6\n      dup2\n      dup2\n      mload\n      dup2\n      mstore\n      0x20\n      add\n      swap2\n      pop\n      dup1\n      mload\n      swap1\n      0x20\n      add\n      swap1\n      0x20\n      mul\n      dup1\n      dup4\n      dup4\n      0x00\n    tag_475:\n      dup4\n      dup2\n      lt\n      iszero\n      tag_477\n      jumpi\n      dup1\n      dup3\n      add\n      mload\n      dup2\n      dup5\n      add\n      mstore\n      0x20\n      dup2\n      add\n      swap1\n      pop\n      jump(tag_475)\n    tag_477:\n      pop\n      pop\n      pop\n      pop\n      swap1\n      pop\n      add\n      swap7\n      pop\n      pop\n      pop\n      pop\n      pop\n      pop\n      pop\n      0x00\n      mload(0x40)\n      dup1\n      dup4\n      sub\n      dup2\n      0x00\n      dup8\n      dup1\n      extcodesize\n      iszero\n      dup1\n      iszero\n      tag_478\n      jumpi\n      0x00\n      dup1\n      revert\n    tag_478:\n      pop\n      gas\n      call\n      iszero\n      dup1\n      iszero\n      tag_480\n      jumpi\n      returndatasize\n      0x00\n      dup1\n      returndatacopy\n      revert(0x00, returndatasize)\n    tag_480:\n      pop\n      pop\n      pop\n      pop\n        /* \"contracts/Pool/PoolPig.sol\":30332:30905  function swapTokensForEth(uint256 tokenAmount) private {... */\n      pop\n      pop\n      jump\t// out\n        /* \"contracts/Pool/PoolPig.sol\":30911:31411  function addLiquidity(uint256 tokenAmount, uint256 ethAmount) private {... */\n    tag_398:\n        /* \"contracts/Pool/PoolPig.sol\":31057:31119  _approve(address(this), address(uniswapV2Router), tokenAmount) */\n      tag_482\n        /* \"contracts/Pool/PoolPig.sol\":31074:31078  this */\n      address\n        /* \"contracts/Pool/PoolPig.sol\":31089:31104  uniswapV2Router */\n      immutable(\"0xdfbf0bb877c2c5ca067d8597311506e24b894aa65a6fe980502f7e7b5c70fa94\")\n        /* \"contracts/Pool/PoolPig.sol\":31107:31118  tokenAmount */\n      dup5\n        /* \"contracts/Pool/PoolPig.sol\":31057:31065  _approve */\n      tag_206\n        /* \"contracts/Pool/PoolPig.sol\":31057:31119  _approve(address(this), address(uniswapV2Router), tokenAmount) */\n      jump\t// in\n    tag_482:\n        /* \"contracts/Pool/PoolPig.sol\":31159:31174  uniswapV2Router */\n      immutable(\"0xdfbf0bb877c2c5ca067d8597311506e24b894aa65a6fe980502f7e7b5c70fa94\")\n        /* \"contracts/Pool/PoolPig.sol\":31159:31190  uniswapV2Router.addLiquidityETH */\n      0xffffffffffffffffffffffffffffffffffffffff\n      and\n      0xf305d719\n        /* \"contracts/Pool/PoolPig.sol\":31198:31207  ethAmount */\n      dup3\n        /* \"contracts/Pool/PoolPig.sol\":31230:31234  this */\n      address\n        /* \"contracts/Pool/PoolPig.sol\":31249:31260  tokenAmount */\n      dup6\n        /* \"contracts/Pool/PoolPig.sol\":31274:31275  0 */\n      0x00\n        /* \"contracts/Pool/PoolPig.sol\":31316:31317  0 */\n      dup1\n        /* \"contracts/Pool/PoolPig.sol\":31358:31365  owner() */\n      tag_483\n        /* \"contracts/Pool/PoolPig.sol\":31358:31363  owner */\n      tag_144\n        /* \"contracts/Pool/PoolPig.sol\":31358:31365  owner() */\n      jump\t// in\n    tag_483:\n        /* \"contracts/Pool/PoolPig.sol\":31379:31394  block.timestamp */\n      timestamp\n        /* \"contracts/Pool/PoolPig.sol\":31159:31404  uniswapV2Router.addLiquidityETH{value: ethAmount}(... */\n      mload(0x40)\n      dup9\n      0xffffffff\n      and\n      0xe0\n      shl\n      dup2\n      mstore\n      0x04\n      add\n      dup1\n      dup8\n      0xffffffffffffffffffffffffffffffffffffffff\n      and\n      dup2\n      mstore\n      0x20\n      add\n      dup7\n      dup2\n      mstore\n      0x20\n      add\n      dup6\n      dup2\n      mstore\n      0x20\n      add\n      dup5\n      dup2\n      mstore\n      0x20\n      add\n      dup4\n      0xffffffffffffffffffffffffffffffffffffffff\n      and\n      dup2\n      mstore\n      0x20\n      add\n      dup3\n      dup2\n      mstore\n      0x20\n      add\n      swap7\n      pop\n      pop\n      pop\n      pop\n      pop\n      pop\n      pop\n      0x60\n      mload(0x40)\n      dup1\n      dup4\n      sub\n      dup2\n      dup6\n      dup9\n      dup1\n      extcodesize\n      iszero\n      dup1\n      iszero\n      tag_484\n      jumpi\n      0x00\n      dup1\n      revert\n    tag_484:\n      pop\n      gas\n      call\n      iszero\n      dup1\n      iszero\n      tag_486\n      jumpi\n      returndatasize\n      0x00\n      dup1\n      returndatacopy\n      revert(0x00, returndatasize)\n    tag_486:\n      pop\n      pop\n      pop\n      pop\n      pop\n      mload(0x40)\n      returndatasize\n      0x60\n      dup2\n      lt\n      iszero\n      tag_487\n      jumpi\n      0x00\n      dup1\n      revert\n    tag_487:\n      dup2\n      add\n      swap1\n      dup1\n      dup1\n      mload\n      swap1\n      0x20\n      add\n      swap1\n      swap3\n      swap2\n      swap1\n      dup1\n      mload\n      swap1\n      0x20\n      add\n      swap1\n      swap3\n      swap2\n      swap1\n      dup1\n      mload\n      swap1\n      0x20\n      add\n      swap1\n      swap3\n      swap2\n      swap1\n      pop\n      pop\n      pop\n      pop\n      pop\n      pop\n        /* \"contracts/Pool/PoolPig.sol\":30911:31411  function addLiquidity(uint256 tokenAmount, uint256 ethAmount) private {... */\n      pop\n      pop\n      jump\t// out\n        /* \"contracts/Pool/PoolPig.sol\":27016:27258  function removeAllFee() private {... */\n    tag_402:\n        /* \"contracts/Pool/PoolPig.sol\":27072:27073  0 */\n      0x00\n        /* \"contracts/Pool/PoolPig.sol\":27061:27068  _taxFee */\n      sload(0x11)\n        /* \"contracts/Pool/PoolPig.sol\":27061:27073  _taxFee == 0 */\n      eq\n        /* \"contracts/Pool/PoolPig.sol\":27061:27095  _taxFee == 0 && _liquidityFee == 0 */\n      dup1\n      iszero\n      tag_489\n      jumpi\n      pop\n        /* \"contracts/Pool/PoolPig.sol\":27094:27095  0 */\n      0x00\n        /* \"contracts/Pool/PoolPig.sol\":27077:27090  _liquidityFee */\n      sload(0x13)\n        /* \"contracts/Pool/PoolPig.sol\":27077:27095  _liquidityFee == 0 */\n      eq\n        /* \"contracts/Pool/PoolPig.sol\":27061:27095  _taxFee == 0 && _liquidityFee == 0 */\n    tag_489:\n        /* \"contracts/Pool/PoolPig.sol\":27058:27104  if(_taxFee == 0 && _liquidityFee == 0) return; */\n      iszero\n      tag_490\n      jumpi\n        /* \"contracts/Pool/PoolPig.sol\":27097:27104  return; */\n      jump(tag_488)\n        /* \"contracts/Pool/PoolPig.sol\":27058:27104  if(_taxFee == 0 && _liquidityFee == 0) return; */\n    tag_490:\n        /* \"contracts/Pool/PoolPig.sol\":27140:27147  _taxFee */\n      sload(0x11)\n        /* \"contracts/Pool/PoolPig.sol\":27122:27137  _previousTaxFee */\n      0x12\n        /* \"contracts/Pool/PoolPig.sol\":27122:27147  _previousTaxFee = _taxFee */\n      dup2\n      swap1\n      sstore\n      pop\n        /* \"contracts/Pool/PoolPig.sol\":27181:27194  _liquidityFee */\n      sload(0x13)\n        /* \"contracts/Pool/PoolPig.sol\":27157:27178  _previousLiquidityFee */\n      0x14\n        /* \"contracts/Pool/PoolPig.sol\":27157:27194  _previousLiquidityFee = _liquidityFee */\n      dup2\n      swap1\n      sstore\n      pop\n        /* \"contracts/Pool/PoolPig.sol\":27223:27224  0 */\n      0x00\n        /* \"contracts/Pool/PoolPig.sol\":27213:27220  _taxFee */\n      0x11\n        /* \"contracts/Pool/PoolPig.sol\":27213:27224  _taxFee = 0 */\n      dup2\n      swap1\n      sstore\n      pop\n        /* \"contracts/Pool/PoolPig.sol\":27250:27251  0 */\n      0x00\n        /* \"contracts/Pool/PoolPig.sol\":27234:27247  _liquidityFee */\n      0x13\n        /* \"contracts/Pool/PoolPig.sol\":27234:27251  _liquidityFee = 0 */\n      dup2\n      swap1\n      sstore\n      pop\n        /* \"contracts/Pool/PoolPig.sol\":27016:27258  function removeAllFee() private {... */\n    tag_488:\n      jump\t// out\n        /* \"contracts/Pool/PoolPig.sol\":33396:33954  function _transferFromExcluded(address sender, address recipient, uint256 tAmount) private {... */\n    tag_406:\n        /* \"contracts/Pool/PoolPig.sol\":33498:33513  uint256 rAmount */\n      0x00\n        /* \"contracts/Pool/PoolPig.sol\":33515:33538  uint256 rTransferAmount */\n      dup1\n        /* \"contracts/Pool/PoolPig.sol\":33540:33552  uint256 rFee */\n      0x00\n        /* \"contracts/Pool/PoolPig.sol\":33554:33577  uint256 tTransferAmount */\n      dup1\n        /* \"contracts/Pool/PoolPig.sol\":33579:33591  uint256 tFee */\n      0x00\n        /* \"contracts/Pool/PoolPig.sol\":33593:33611  uint256 tLiquidity */\n      dup1\n        /* \"contracts/Pool/PoolPig.sol\":33615:33634  _getValues(tAmount) */\n      tag_492\n        /* \"contracts/Pool/PoolPig.sol\":33626:33633  tAmount */\n      dup8\n        /* \"contracts/Pool/PoolPig.sol\":33615:33625  _getValues */\n      tag_251\n        /* \"contracts/Pool/PoolPig.sol\":33615:33634  _getValues(tAmount) */\n      jump\t// in\n    tag_492:\n        /* \"contracts/Pool/PoolPig.sol\":33497:33634  (uint256 rAmount, uint256 rTransferAmount, uint256 rFee, uint256 tTransferAmount, uint256 tFee, uint256 tLiquidity) = _getValues(tAmount) */\n      swap6\n      pop\n      swap6\n      pop\n      swap6\n      pop\n      swap6\n      pop\n      swap6\n      pop\n      swap6\n      pop\n        /* \"contracts/Pool/PoolPig.sol\":33662:33690  _tOwned[sender].sub(tAmount) */\n      tag_493\n        /* \"contracts/Pool/PoolPig.sol\":33682:33689  tAmount */\n      dup8\n        /* \"contracts/Pool/PoolPig.sol\":33662:33669  _tOwned */\n      0x04\n        /* \"contracts/Pool/PoolPig.sol\":33662:33677  _tOwned[sender] */\n      0x00\n        /* \"contracts/Pool/PoolPig.sol\":33670:33676  sender */\n      dup13\n        /* \"contracts/Pool/PoolPig.sol\":33662:33677  _tOwned[sender] */\n      0xffffffffffffffffffffffffffffffffffffffff\n      and\n      0xffffffffffffffffffffffffffffffffffffffff\n      and\n      dup2\n      mstore\n      0x20\n      add\n      swap1\n      dup2\n      mstore\n      0x20\n      add\n      0x00\n      keccak256\n      sload\n        /* \"contracts/Pool/PoolPig.sol\":33662:33681  _tOwned[sender].sub */\n      tag_253\n      swap1\n        /* \"contracts/Pool/PoolPig.sol\":33662:33690  _tOwned[sender].sub(tAmount) */\n      swap2\n      swap1\n      0xffffffff\n      and\n      jump\t// in\n    tag_493:\n        /* \"contracts/Pool/PoolPig.sol\":33644:33651  _tOwned */\n      0x04\n        /* \"contracts/Pool/PoolPig.sol\":33644:33659  _tOwned[sender] */\n      0x00\n        /* \"contracts/Pool/PoolPig.sol\":33652:33658  sender */\n      dup12\n        /* \"contracts/Pool/PoolPig.sol\":33644:33659  _tOwned[sender] */\n      0xffffffffffffffffffffffffffffffffffffffff\n      and\n      0xffffffffffffffffffffffffffffffffffffffff\n      and\n      dup2\n      mstore\n      0x20\n      add\n      swap1\n      dup2\n      mstore\n      0x20\n      add\n      0x00\n      keccak256\n        /* \"contracts/Pool/PoolPig.sol\":33644:33690  _tOwned[sender] = _tOwned[sender].sub(tAmount) */\n      dup2\n      swap1\n      sstore\n      pop\n        /* \"contracts/Pool/PoolPig.sol\":33718:33746  _rOwned[sender].sub(rAmount) */\n      tag_494\n        /* \"contracts/Pool/PoolPig.sol\":33738:33745  rAmount */\n      dup7\n        /* \"contracts/Pool/PoolPig.sol\":33718:33725  _rOwned */\n      0x03\n        /* \"contracts/Pool/PoolPig.sol\":33718:33733  _rOwned[sender] */\n      0x00\n        /* \"contracts/Pool/PoolPig.sol\":33726:33732  sender */\n      dup13\n        /* \"contracts/Pool/PoolPig.sol\":33718:33733  _rOwned[sender] */\n      0xffffffffffffffffffffffffffffffffffffffff\n      and\n      0xffffffffffffffffffffffffffffffffffffffff\n      and\n      dup2\n      mstore\n      0x20\n      add\n      swap1\n      dup2\n      mstore\n      0x20\n      add\n      0x00\n      keccak256\n      sload\n        /* \"contracts/Pool/PoolPig.sol\":33718:33737  _rOwned[sender].sub */\n      tag_253\n      swap1\n        /* \"contracts/Pool/PoolPig.sol\":33718:33746  _rOwned[sender].sub(rAmount) */\n      swap2\n      swap1\n      0xffffffff\n      and\n      jump\t// in\n    tag_494:\n        /* \"contracts/Pool/PoolPig.sol\":33700:33707  _rOwned */\n      0x03\n        /* \"contracts/Pool/PoolPig.sol\":33700:33715  _rOwned[sender] */\n      0x00\n        /* \"contracts/Pool/PoolPig.sol\":33708:33714  sender */\n      dup12\n        /* \"contracts/Pool/PoolPig.sol\":33700:33715  _rOwned[sender] */\n      0xffffffffffffffffffffffffffffffffffffffff\n      and\n      0xffffffffffffffffffffffffffffffffffffffff\n      and\n      dup2\n      mstore\n      0x20\n      add\n      swap1\n      dup2\n      mstore\n      0x20\n      add\n      0x00\n      keccak256\n        /* \"contracts/Pool/PoolPig.sol\":33700:33746  _rOwned[sender] = _rOwned[sender].sub(rAmount) */\n      dup2\n      swap1\n      sstore\n      pop\n        /* \"contracts/Pool/PoolPig.sol\":33777:33816  _rOwned[recipient].add(rTransferAmount) */\n      tag_495\n        /* \"contracts/Pool/PoolPig.sol\":33800:33815  rTransferAmount */\n      dup6\n        /* \"contracts/Pool/PoolPig.sol\":33777:33784  _rOwned */\n      0x03\n        /* \"contracts/Pool/PoolPig.sol\":33777:33795  _rOwned[recipient] */\n      0x00\n        /* \"contracts/Pool/PoolPig.sol\":33785:33794  recipient */\n      dup12\n        /* \"contracts/Pool/PoolPig.sol\":33777:33795  _rOwned[recipient] */\n      0xffffffffffffffffffffffffffffffffffffffff\n      and\n      0xffffffffffffffffffffffffffffffffffffffff\n      and\n      dup2\n      mstore\n      0x20\n      add\n      swap1\n      dup2\n      mstore\n      0x20\n      add\n      0x00\n      keccak256\n      sload\n        /* \"contracts/Pool/PoolPig.sol\":33777:33799  _rOwned[recipient].add */\n      tag_246\n      swap1\n        /* \"contracts/Pool/PoolPig.sol\":33777:33816  _rOwned[recipient].add(rTransferAmount) */\n      swap2\n      swap1\n      0xffffffff\n      and\n      jump\t// in\n    tag_495:\n        /* \"contracts/Pool/PoolPig.sol\":33756:33763  _rOwned */\n      0x03\n        /* \"contracts/Pool/PoolPig.sol\":33756:33774  _rOwned[recipient] */\n      0x00\n        /* \"contracts/Pool/PoolPig.sol\":33764:33773  recipient */\n      dup11\n        /* \"contracts/Pool/PoolPig.sol\":33756:33774  _rOwned[recipient] */\n      0xffffffffffffffffffffffffffffffffffffffff\n      and\n      0xffffffffffffffffffffffffffffffffffffffff\n      and\n      dup2\n      mstore\n      0x20\n      add\n      swap1\n      dup2\n      mstore\n      0x20\n      add\n      0x00\n      keccak256\n        /* \"contracts/Pool/PoolPig.sol\":33756:33816  _rOwned[recipient] = _rOwned[recipient].add(rTransferAmount) */\n      dup2\n      swap1\n      sstore\n      pop\n        /* \"contracts/Pool/PoolPig.sol\":33829:33855  _takeLiquidity(tLiquidity) */\n      tag_496\n        /* \"contracts/Pool/PoolPig.sol\":33844:33854  tLiquidity */\n      dup2\n        /* \"contracts/Pool/PoolPig.sol\":33829:33843  _takeLiquidity */\n      tag_497\n        /* \"contracts/Pool/PoolPig.sol\":33829:33855  _takeLiquidity(tLiquidity) */\n      jump\t// in\n    tag_496:\n        /* \"contracts/Pool/PoolPig.sol\":33865:33888  _reflectFee(rFee, tFee) */\n      tag_498\n        /* \"contracts/Pool/PoolPig.sol\":33877:33881  rFee */\n      dup5\n        /* \"contracts/Pool/PoolPig.sol\":33883:33887  tFee */\n      dup4\n        /* \"contracts/Pool/PoolPig.sol\":33865:33876  _reflectFee */\n      tag_499\n        /* \"contracts/Pool/PoolPig.sol\":33865:33888  _reflectFee(rFee, tFee) */\n      jump\t// in\n    tag_498:\n        /* \"contracts/Pool/PoolPig.sol\":33920:33929  recipient */\n      dup8\n        /* \"contracts/Pool/PoolPig.sol\":33903:33947  Transfer(sender, recipient, tTransferAmount) */\n      0xffffffffffffffffffffffffffffffffffffffff\n      and\n        /* \"contracts/Pool/PoolPig.sol\":33912:33918  sender */\n      dup10\n        /* \"contracts/Pool/PoolPig.sol\":33903:33947  Transfer(sender, recipient, tTransferAmount) */\n      0xffffffffffffffffffffffffffffffffffffffff\n      and\n      0xddf252ad1be2c89b69c2b068fc378daa952ba7f163c4a11628f55a4df523b3ef\n        /* \"contracts/Pool/PoolPig.sol\":33931:33946  tTransferAmount */\n      dup6\n        /* \"contracts/Pool/PoolPig.sol\":33903:33947  Transfer(sender, recipient, tTransferAmount) */\n      mload(0x40)\n      dup1\n      dup3\n      dup2\n      mstore\n      0x20\n      add\n      swap2\n      pop\n      pop\n      mload(0x40)\n      dup1\n      swap2\n      sub\n      swap1\n      log3\n        /* \"contracts/Pool/PoolPig.sol\":33396:33954  function _transferFromExcluded(address sender, address recipient, uint256 tAmount) private {... */\n      pop\n      pop\n      pop\n      pop\n      pop\n      pop\n      pop\n      pop\n      pop\n      jump\t// out\n        /* \"contracts/Pool/PoolPig.sol\":32812:33390  function _transferToExcluded(address sender, address recipient, uint256 tAmount) private {... */\n    tag_411:\n        /* \"contracts/Pool/PoolPig.sol\":32912:32927  uint256 rAmount */\n      0x00\n        /* \"contracts/Pool/PoolPig.sol\":32929:32952  uint256 rTransferAmount */\n      dup1\n        /* \"contracts/Pool/PoolPig.sol\":32954:32966  uint256 rFee */\n      0x00\n        /* \"contracts/Pool/PoolPig.sol\":32968:32991  uint256 tTransferAmount */\n      dup1\n        /* \"contracts/Pool/PoolPig.sol\":32993:33005  uint256 tFee */\n      0x00\n        /* \"contracts/Pool/PoolPig.sol\":33007:33025  uint256 tLiquidity */\n      dup1\n        /* \"contracts/Pool/PoolPig.sol\":33029:33048  _getValues(tAmount) */\n      tag_501\n        /* \"contracts/Pool/PoolPig.sol\":33040:33047  tAmount */\n      dup8\n        /* \"contracts/Pool/PoolPig.sol\":33029:33039  _getValues */\n      tag_251\n        /* \"contracts/Pool/PoolPig.sol\":33029:33048  _getValues(tAmount) */\n      jump\t// in\n    tag_501:\n        /* \"contracts/Pool/PoolPig.sol\":32911:33048  (uint256 rAmount, uint256 rTransferAmount, uint256 rFee, uint256 tTransferAmount, uint256 tFee, uint256 tLiquidity) = _getValues(tAmount) */\n      swap6\n      pop\n      swap6\n      pop\n      swap6\n      pop\n      swap6\n      pop\n      swap6\n      pop\n      swap6\n      pop\n        /* \"contracts/Pool/PoolPig.sol\":33076:33104  _rOwned[sender].sub(rAmount) */\n      tag_502\n        /* \"contracts/Pool/PoolPig.sol\":33096:33103  rAmount */\n      dup7\n        /* \"contracts/Pool/PoolPig.sol\":33076:33083  _rOwned */\n      0x03\n        /* \"contracts/Pool/PoolPig.sol\":33076:33091  _rOwned[sender] */\n      0x00\n        /* \"contracts/Pool/PoolPig.sol\":33084:33090  sender */\n      dup13\n        /* \"contracts/Pool/PoolPig.sol\":33076:33091  _rOwned[sender] */\n      0xffffffffffffffffffffffffffffffffffffffff\n      and\n      0xffffffffffffffffffffffffffffffffffffffff\n      and\n      dup2\n      mstore\n      0x20\n      add\n      swap1\n      dup2\n      mstore\n      0x20\n      add\n      0x00\n      keccak256\n      sload\n        /* \"contracts/Pool/PoolPig.sol\":33076:33095  _rOwned[sender].sub */\n      tag_253\n      swap1\n        /* \"contracts/Pool/PoolPig.sol\":33076:33104  _rOwned[sender].sub(rAmount) */\n      swap2\n      swap1\n      0xffffffff\n      and\n      jump\t// in\n    tag_502:\n        /* \"contracts/Pool/PoolPig.sol\":33058:33065  _rOwned */\n      0x03\n        /* \"contracts/Pool/PoolPig.sol\":33058:33073  _rOwned[sender] */\n      0x00\n        /* \"contracts/Pool/PoolPig.sol\":33066:33072  sender */\n      dup12\n        /* \"contracts/Pool/PoolPig.sol\":33058:33073  _rOwned[sender] */\n      0xffffffffffffffffffffffffffffffffffffffff\n      and\n      0xffffffffffffffffffffffffffffffffffffffff\n      and\n      dup2\n      mstore\n      0x20\n      add\n      swap1\n      dup2\n      mstore\n      0x20\n      add\n      0x00\n      keccak256\n        /* \"contracts/Pool/PoolPig.sol\":33058:33104  _rOwned[sender] = _rOwned[sender].sub(rAmount) */\n      dup2\n      swap1\n      sstore\n      pop\n        /* \"contracts/Pool/PoolPig.sol\":33135:33174  _tOwned[recipient].add(tTransferAmount) */\n      tag_503\n        /* \"contracts/Pool/PoolPig.sol\":33158:33173  tTransferAmount */\n      dup4\n        /* \"contracts/Pool/PoolPig.sol\":33135:33142  _tOwned */\n      0x04\n        /* \"contracts/Pool/PoolPig.sol\":33135:33153  _tOwned[recipient] */\n      0x00\n        /* \"contracts/Pool/PoolPig.sol\":33143:33152  recipient */\n      dup12\n        /* \"contracts/Pool/PoolPig.sol\":33135:33153  _tOwned[recipient] */\n      0xffffffffffffffffffffffffffffffffffffffff\n      and\n      0xffffffffffffffffffffffffffffffffffffffff\n      and\n      dup2\n      mstore\n      0x20\n      add\n      swap1\n      dup2\n      mstore\n      0x20\n      add\n      0x00\n      keccak256\n      sload\n        /* \"contracts/Pool/PoolPig.sol\":33135:33157  _tOwned[recipient].add */\n      tag_246\n      swap1\n        /* \"contracts/Pool/PoolPig.sol\":33135:33174  _tOwned[recipient].add(tTransferAmount) */\n      swap2\n      swap1\n      0xffffffff\n      and\n      jump\t// in\n    tag_503:\n        /* \"contracts/Pool/PoolPig.sol\":33114:33121  _tOwned */\n      0x04\n        /* \"contracts/Pool/PoolPig.sol\":33114:33132  _tOwned[recipient] */\n      0x00\n        /* \"contracts/Pool/PoolPig.sol\":33122:33131  recipient */\n      dup11\n        /* \"contracts/Pool/PoolPig.sol\":33114:33132  _tOwned[recipient] */\n      0xffffffffffffffffffffffffffffffffffffffff\n      and\n      0xffffffffffffffffffffffffffffffffffffffff\n      and\n      dup2\n      mstore\n      0x20\n      add\n      swap1\n      dup2\n      mstore\n      0x20\n      add\n      0x00\n      keccak256\n        /* \"contracts/Pool/PoolPig.sol\":33114:33174  _tOwned[recipient] = _tOwned[recipient].add(tTransferAmount) */\n      dup2\n      swap1\n      sstore\n      pop\n        /* \"contracts/Pool/PoolPig.sol\":33205:33244  _rOwned[recipient].add(rTransferAmount) */\n      tag_504\n        /* \"contracts/Pool/PoolPig.sol\":33228:33243  rTransferAmount */\n      dup6\n        /* \"contracts/Pool/PoolPig.sol\":33205:33212  _rOwned */\n      0x03\n        /* \"contracts/Pool/PoolPig.sol\":33205:33223  _rOwned[recipient] */\n      0x00\n        /* \"contracts/Pool/PoolPig.sol\":33213:33222  recipient */\n      dup12\n        /* \"contracts/Pool/PoolPig.sol\":33205:33223  _rOwned[recipient] */\n      0xffffffffffffffffffffffffffffffffffffffff\n      and\n      0xffffffffffffffffffffffffffffffffffffffff\n      and\n      dup2\n      mstore\n      0x20\n      add\n      swap1\n      dup2\n      mstore\n      0x20\n      add\n      0x00\n      keccak256\n      sload\n        /* \"contracts/Pool/PoolPig.sol\":33205:33227  _rOwned[recipient].add */\n      tag_246\n      swap1\n        /* \"contracts/Pool/PoolPig.sol\":33205:33244  _rOwned[recipient].add(rTransferAmount) */\n      swap2\n      swap1\n      0xffffffff\n      and\n      jump\t// in\n    tag_504:\n        /* \"contracts/Pool/PoolPig.sol\":33184:33191  _rOwned */\n      0x03\n        /* \"contracts/Pool/PoolPig.sol\":33184:33202  _rOwned[recipient] */\n      0x00\n        /* \"contracts/Pool/PoolPig.sol\":33192:33201  recipient */\n      dup11\n        /* \"contracts/Pool/PoolPig.sol\":33184:33202  _rOwned[recipient] */\n      0xffffffffffffffffffffffffffffffffffffffff\n      and\n      0xffffffffffffffffffffffffffffffffffffffff\n      and\n      dup2\n      mstore\n      0x20\n      add\n      swap1\n      dup2\n      mstore\n      0x20\n      add\n      0x00\n      keccak256\n        /* \"contracts/Pool/PoolPig.sol\":33184:33244  _rOwned[recipient] = _rOwned[recipient].add(rTransferAmount) */\n      dup2\n      swap1\n      sstore\n      pop\n        /* \"contracts/Pool/PoolPig.sol\":33265:33291  _takeLiquidity(tLiquidity) */\n      tag_505\n        /* \"contracts/Pool/PoolPig.sol\":33280:33290  tLiquidity */\n      dup2\n        /* \"contracts/Pool/PoolPig.sol\":33265:33279  _takeLiquidity */\n      tag_497\n        /* \"contracts/Pool/PoolPig.sol\":33265:33291  _takeLiquidity(tLiquidity) */\n      jump\t// in\n    tag_505:\n        /* \"contracts/Pool/PoolPig.sol\":33301:33324  _reflectFee(rFee, tFee) */\n      tag_506\n        /* \"contracts/Pool/PoolPig.sol\":33313:33317  rFee */\n      dup5\n        /* \"contracts/Pool/PoolPig.sol\":33319:33323  tFee */\n      dup4\n        /* \"contracts/Pool/PoolPig.sol\":33301:33312  _reflectFee */\n      tag_499\n        /* \"contracts/Pool/PoolPig.sol\":33301:33324  _reflectFee(rFee, tFee) */\n      jump\t// in\n    tag_506:\n        /* \"contracts/Pool/PoolPig.sol\":33356:33365  recipient */\n      dup8\n        /* \"contracts/Pool/PoolPig.sol\":33339:33383  Transfer(sender, recipient, tTransferAmount) */\n      0xffffffffffffffffffffffffffffffffffffffff\n      and\n        /* \"contracts/Pool/PoolPig.sol\":33348:33354  sender */\n      dup10\n        /* \"contracts/Pool/PoolPig.sol\":33339:33383  Transfer(sender, recipient, tTransferAmount) */\n      0xffffffffffffffffffffffffffffffffffffffff\n      and\n      0xddf252ad1be2c89b69c2b068fc378daa952ba7f163c4a11628f55a4df523b3ef\n        /* \"contracts/Pool/PoolPig.sol\":33367:33382  tTransferAmount */\n      dup6\n        /* \"contracts/Pool/PoolPig.sol\":33339:33383  Transfer(sender, recipient, tTransferAmount) */\n      mload(0x40)\n      dup1\n      dup3\n      dup2\n      mstore\n      0x20\n      add\n      swap2\n      pop\n      pop\n      mload(0x40)\n      dup1\n      swap2\n      sub\n      swap1\n      log3\n        /* \"contracts/Pool/PoolPig.sol\":32812:33390  function _transferToExcluded(address sender, address recipient, uint256 tAmount) private {... */\n      pop\n      pop\n      pop\n      pop\n      pop\n      pop\n      pop\n      pop\n      pop\n      jump\t// out\n        /* \"contracts/Pool/PoolPig.sol\":32311:32806  function _transferStandard(address sender, address recipient, uint256 tAmount) private {... */\n    tag_416:\n        /* \"contracts/Pool/PoolPig.sol\":32409:32424  uint256 rAmount */\n      0x00\n        /* \"contracts/Pool/PoolPig.sol\":32426:32449  uint256 rTransferAmount */\n      dup1\n        /* \"contracts/Pool/PoolPig.sol\":32451:32463  uint256 rFee */\n      0x00\n        /* \"contracts/Pool/PoolPig.sol\":32465:32488  uint256 tTransferAmount */\n      dup1\n        /* \"contracts/Pool/PoolPig.sol\":32490:32502  uint256 tFee */\n      0x00\n        /* \"contracts/Pool/PoolPig.sol\":32504:32522  uint256 tLiquidity */\n      dup1\n        /* \"contracts/Pool/PoolPig.sol\":32526:32545  _getValues(tAmount) */\n      tag_508\n        /* \"contracts/Pool/PoolPig.sol\":32537:32544  tAmount */\n      dup8\n        /* \"contracts/Pool/PoolPig.sol\":32526:32536  _getValues */\n      tag_251\n        /* \"contracts/Pool/PoolPig.sol\":32526:32545  _getValues(tAmount) */\n      jump\t// in\n    tag_508:\n        /* \"contracts/Pool/PoolPig.sol\":32408:32545  (uint256 rAmount, uint256 rTransferAmount, uint256 rFee, uint256 tTransferAmount, uint256 tFee, uint256 tLiquidity) = _getValues(tAmount) */\n      swap6\n      pop\n      swap6\n      pop\n      swap6\n      pop\n      swap6\n      pop\n      swap6\n      pop\n      swap6\n      pop\n        /* \"contracts/Pool/PoolPig.sol\":32573:32601  _rOwned[sender].sub(rAmount) */\n      tag_509\n        /* \"contracts/Pool/PoolPig.sol\":32593:32600  rAmount */\n      dup7\n        /* \"contracts/Pool/PoolPig.sol\":32573:32580  _rOwned */\n      0x03\n        /* \"contracts/Pool/PoolPig.sol\":32573:32588  _rOwned[sender] */\n      0x00\n        /* \"contracts/Pool/PoolPig.sol\":32581:32587  sender */\n      dup13\n        /* \"contracts/Pool/PoolPig.sol\":32573:32588  _rOwned[sender] */\n      0xffffffffffffffffffffffffffffffffffffffff\n      and\n      0xffffffffffffffffffffffffffffffffffffffff\n      and\n      dup2\n      mstore\n      0x20\n      add\n      swap1\n      dup2\n      mstore\n      0x20\n      add\n      0x00\n      keccak256\n      sload\n        /* \"contracts/Pool/PoolPig.sol\":32573:32592  _rOwned[sender].sub */\n      tag_253\n      swap1\n        /* \"contracts/Pool/PoolPig.sol\":32573:32601  _rOwned[sender].sub(rAmount) */\n      swap2\n      swap1\n      0xffffffff\n      and\n      jump\t// in\n    tag_509:\n        /* \"contracts/Pool/PoolPig.sol\":32555:32562  _rOwned */\n      0x03\n        /* \"contracts/Pool/PoolPig.sol\":32555:32570  _rOwned[sender] */\n      0x00\n        /* \"contracts/Pool/PoolPig.sol\":32563:32569  sender */\n      dup12\n        /* \"contracts/Pool/PoolPig.sol\":32555:32570  _rOwned[sender] */\n      0xffffffffffffffffffffffffffffffffffffffff\n      and\n      0xffffffffffffffffffffffffffffffffffffffff\n      and\n      dup2\n      mstore\n      0x20\n      add\n      swap1\n      dup2\n      mstore\n      0x20\n      add\n      0x00\n      keccak256\n        /* \"contracts/Pool/PoolPig.sol\":32555:32601  _rOwned[sender] = _rOwned[sender].sub(rAmount) */\n      dup2\n      swap1\n      sstore\n      pop\n        /* \"contracts/Pool/PoolPig.sol\":32632:32671  _rOwned[recipient].add(rTransferAmount) */\n      tag_510\n        /* \"contracts/Pool/PoolPig.sol\":32655:32670  rTransferAmount */\n      dup6\n        /* \"contracts/Pool/PoolPig.sol\":32632:32639  _rOwned */\n      0x03\n        /* \"contracts/Pool/PoolPig.sol\":32632:32650  _rOwned[recipient] */\n      0x00\n        /* \"contracts/Pool/PoolPig.sol\":32640:32649  recipient */\n      dup12\n        /* \"contracts/Pool/PoolPig.sol\":32632:32650  _rOwned[recipient] */\n      0xffffffffffffffffffffffffffffffffffffffff\n      and\n      0xffffffffffffffffffffffffffffffffffffffff\n      and\n      dup2\n      mstore\n      0x20\n      add\n      swap1\n      dup2\n      mstore\n      0x20\n      add\n      0x00\n      keccak256\n      sload\n        /* \"contracts/Pool/PoolPig.sol\":32632:32654  _rOwned[recipient].add */\n      tag_246\n      swap1\n        /* \"contracts/Pool/PoolPig.sol\":32632:32671  _rOwned[recipient].add(rTransferAmount) */\n      swap2\n      swap1\n      0xffffffff\n      and\n      jump\t// in\n    tag_510:\n        /* \"contracts/Pool/PoolPig.sol\":32611:32618  _rOwned */\n      0x03\n        /* \"contracts/Pool/PoolPig.sol\":32611:32629  _rOwned[recipient] */\n      0x00\n        /* \"contracts/Pool/PoolPig.sol\":32619:32628  recipient */\n      dup11\n        /* \"contracts/Pool/PoolPig.sol\":32611:32629  _rOwned[recipient] */\n      0xffffffffffffffffffffffffffffffffffffffff\n      and\n      0xffffffffffffffffffffffffffffffffffffffff\n      and\n      dup2\n      mstore\n      0x20\n      add\n      swap1\n      dup2\n      mstore\n      0x20\n      add\n      0x00\n      keccak256\n        /* \"contracts/Pool/PoolPig.sol\":32611:32671  _rOwned[recipient] = _rOwned[recipient].add(rTransferAmount) */\n      dup2\n      swap1\n      sstore\n      pop\n        /* \"contracts/Pool/PoolPig.sol\":32681:32707  _takeLiquidity(tLiquidity) */\n      tag_511\n        /* \"contracts/Pool/PoolPig.sol\":32696:32706  tLiquidity */\n      dup2\n        /* \"contracts/Pool/PoolPig.sol\":32681:32695  _takeLiquidity */\n      tag_497\n        /* \"contracts/Pool/PoolPig.sol\":32681:32707  _takeLiquidity(tLiquidity) */\n      jump\t// in\n    tag_511:\n        /* \"contracts/Pool/PoolPig.sol\":32717:32740  _reflectFee(rFee, tFee) */\n      tag_512\n        /* \"contracts/Pool/PoolPig.sol\":32729:32733  rFee */\n      dup5\n        /* \"contracts/Pool/PoolPig.sol\":32735:32739  tFee */\n      dup4\n        /* \"contracts/Pool/PoolPig.sol\":32717:32728  _reflectFee */\n      tag_499\n        /* \"contracts/Pool/PoolPig.sol\":32717:32740  _reflectFee(rFee, tFee) */\n      jump\t// in\n    tag_512:\n        /* \"contracts/Pool/PoolPig.sol\":32772:32781  recipient */\n      dup8\n        /* \"contracts/Pool/PoolPig.sol\":32755:32799  Transfer(sender, recipient, tTransferAmount) */\n      0xffffffffffffffffffffffffffffffffffffffff\n      and\n        /* \"contracts/Pool/PoolPig.sol\":32764:32770  sender */\n      dup10\n        /* \"contracts/Pool/PoolPig.sol\":32755:32799  Transfer(sender, recipient, tTransferAmount) */\n      0xffffffffffffffffffffffffffffffffffffffff\n      and\n      0xddf252ad1be2c89b69c2b068fc378daa952ba7f163c4a11628f55a4df523b3ef\n        /* \"contracts/Pool/PoolPig.sol\":32783:32798  tTransferAmount */\n      dup6\n        /* \"contracts/Pool/PoolPig.sol\":32755:32799  Transfer(sender, recipient, tTransferAmount) */\n      mload(0x40)\n      dup1\n      dup3\n      dup2\n      mstore\n      0x20\n      add\n      swap2\n      pop\n      pop\n      mload(0x40)\n      dup1\n      swap2\n      sub\n      swap1\n      log3\n        /* \"contracts/Pool/PoolPig.sol\":32311:32806  function _transferStandard(address sender, address recipient, uint256 tAmount) private {... */\n      pop\n      pop\n      pop\n      pop\n      pop\n      pop\n      pop\n      pop\n      pop\n      jump\t// out\n        /* \"contracts/Pool/PoolPig.sol\":21960:22593  function _transferBothExcluded(address sender, address recipient, uint256 tAmount) private {... */\n    tag_421:\n        /* \"contracts/Pool/PoolPig.sol\":22062:22077  uint256 rAmount */\n      0x00\n        /* \"contracts/Pool/PoolPig.sol\":22079:22102  uint256 rTransferAmount */\n      dup1\n        /* \"contracts/Pool/PoolPig.sol\":22104:22116  uint256 rFee */\n      0x00\n        /* \"contracts/Pool/PoolPig.sol\":22118:22141  uint256 tTransferAmount */\n      dup1\n        /* \"contracts/Pool/PoolPig.sol\":22143:22155  uint256 tFee */\n      0x00\n        /* \"contracts/Pool/PoolPig.sol\":22157:22175  uint256 tLiquidity */\n      dup1\n        /* \"contracts/Pool/PoolPig.sol\":22179:22198  _getValues(tAmount) */\n      tag_514\n        /* \"contracts/Pool/PoolPig.sol\":22190:22197  tAmount */\n      dup8\n        /* \"contracts/Pool/PoolPig.sol\":22179:22189  _getValues */\n      tag_251\n        /* \"contracts/Pool/PoolPig.sol\":22179:22198  _getValues(tAmount) */\n      jump\t// in\n    tag_514:\n        /* \"contracts/Pool/PoolPig.sol\":22061:22198  (uint256 rAmount, uint256 rTransferAmount, uint256 rFee, uint256 tTransferAmount, uint256 tFee, uint256 tLiquidity) = _getValues(tAmount) */\n      swap6\n      pop\n      swap6\n      pop\n      swap6\n      pop\n      swap6\n      pop\n      swap6\n      pop\n      swap6\n      pop\n        /* \"contracts/Pool/PoolPig.sol\":22226:22254  _tOwned[sender].sub(tAmount) */\n      tag_515\n        /* \"contracts/Pool/PoolPig.sol\":22246:22253  tAmount */\n      dup8\n        /* \"contracts/Pool/PoolPig.sol\":22226:22233  _tOwned */\n      0x04\n        /* \"contracts/Pool/PoolPig.sol\":22226:22241  _tOwned[sender] */\n      0x00\n        /* \"contracts/Pool/PoolPig.sol\":22234:22240  sender */\n      dup13\n        /* \"contracts/Pool/PoolPig.sol\":22226:22241  _tOwned[sender] */\n      0xffffffffffffffffffffffffffffffffffffffff\n      and\n      0xffffffffffffffffffffffffffffffffffffffff\n      and\n      dup2\n      mstore\n      0x20\n      add\n      swap1\n      dup2\n      mstore\n      0x20\n      add\n      0x00\n      keccak256\n      sload\n        /* \"contracts/Pool/PoolPig.sol\":22226:22245  _tOwned[sender].sub */\n      tag_253\n      swap1\n        /* \"contracts/Pool/PoolPig.sol\":22226:22254  _tOwned[sender].sub(tAmount) */\n      swap2\n      swap1\n      0xffffffff\n      and\n      jump\t// in\n    tag_515:\n        /* \"contracts/Pool/PoolPig.sol\":22208:22215  _tOwned */\n      0x04\n        /* \"contracts/Pool/PoolPig.sol\":22208:22223  _tOwned[sender] */\n      0x00\n        /* \"contracts/Pool/PoolPig.sol\":22216:22222  sender */\n      dup12\n        /* \"contracts/Pool/PoolPig.sol\":22208:22223  _tOwned[sender] */\n      0xffffffffffffffffffffffffffffffffffffffff\n      and\n      0xffffffffffffffffffffffffffffffffffffffff\n      and\n      dup2\n      mstore\n      0x20\n      add\n      swap1\n      dup2\n      mstore\n      0x20\n      add\n      0x00\n      keccak256\n        /* \"contracts/Pool/PoolPig.sol\":22208:22254  _tOwned[sender] = _tOwned[sender].sub(tAmount) */\n      dup2\n      swap1\n      sstore\n      pop\n        /* \"contracts/Pool/PoolPig.sol\":22282:22310  _rOwned[sender].sub(rAmount) */\n      tag_516\n        /* \"contracts/Pool/PoolPig.sol\":22302:22309  rAmount */\n      dup7\n        /* \"contracts/Pool/PoolPig.sol\":22282:22289  _rOwned */\n      0x03\n        /* \"contracts/Pool/PoolPig.sol\":22282:22297  _rOwned[sender] */\n      0x00\n        /* \"contracts/Pool/PoolPig.sol\":22290:22296  sender */\n      dup13\n        /* \"contracts/Pool/PoolPig.sol\":22282:22297  _rOwned[sender] */\n      0xffffffffffffffffffffffffffffffffffffffff\n      and\n      0xffffffffffffffffffffffffffffffffffffffff\n      and\n      dup2\n      mstore\n      0x20\n      add\n      swap1\n      dup2\n      mstore\n      0x20\n      add\n      0x00\n      keccak256\n      sload\n        /* \"contracts/Pool/PoolPig.sol\":22282:22301  _rOwned[sender].sub */\n      tag_253\n      swap1\n        /* \"contracts/Pool/PoolPig.sol\":22282:22310  _rOwned[sender].sub(rAmount) */\n      swap2\n      swap1\n      0xffffffff\n      and\n      jump\t// in\n    tag_516:\n        /* \"contracts/Pool/PoolPig.sol\":22264:22271  _rOwned */\n      0x03\n        /* \"contracts/Pool/PoolPig.sol\":22264:22279  _rOwned[sender] */\n      0x00\n        /* \"contracts/Pool/PoolPig.sol\":22272:22278  sender */\n      dup12\n        /* \"contracts/Pool/PoolPig.sol\":22264:22279  _rOwned[sender] */\n      0xffffffffffffffffffffffffffffffffffffffff\n      and\n      0xffffffffffffffffffffffffffffffffffffffff\n      and\n      dup2\n      mstore\n      0x20\n      add\n      swap1\n      dup2\n      mstore\n      0x20\n      add\n      0x00\n      keccak256\n        /* \"contracts/Pool/PoolPig.sol\":22264:22310  _rOwned[sender] = _rOwned[sender].sub(rAmount) */\n      dup2\n      swap1\n      sstore\n      pop\n        /* \"contracts/Pool/PoolPig.sol\":22341:22380  _tOwned[recipient].add(tTransferAmount) */\n      tag_517\n        /* \"contracts/Pool/PoolPig.sol\":22364:22379  tTransferAmount */\n      dup4\n        /* \"contracts/Pool/PoolPig.sol\":22341:22348  _tOwned */\n      0x04\n        /* \"contracts/Pool/PoolPig.sol\":22341:22359  _tOwned[recipient] */\n      0x00\n        /* \"contracts/Pool/PoolPig.sol\":22349:22358  recipient */\n      dup12\n        /* \"contracts/Pool/PoolPig.sol\":22341:22359  _tOwned[recipient] */\n      0xffffffffffffffffffffffffffffffffffffffff\n      and\n      0xffffffffffffffffffffffffffffffffffffffff\n      and\n      dup2\n      mstore\n      0x20\n      add\n      swap1\n      dup2\n      mstore\n      0x20\n      add\n      0x00\n      keccak256\n      sload\n        /* \"contracts/Pool/PoolPig.sol\":22341:22363  _tOwned[recipient].add */\n      tag_246\n      swap1\n        /* \"contracts/Pool/PoolPig.sol\":22341:22380  _tOwned[recipient].add(tTransferAmount) */\n      swap2\n      swap1\n      0xffffffff\n      and\n      jump\t// in\n    tag_517:\n        /* \"contracts/Pool/PoolPig.sol\":22320:22327  _tOwned */\n      0x04\n        /* \"contracts/Pool/PoolPig.sol\":22320:22338  _tOwned[recipient] */\n      0x00\n        /* \"contracts/Pool/PoolPig.sol\":22328:22337  recipient */\n      dup11\n        /* \"contracts/Pool/PoolPig.sol\":22320:22338  _tOwned[recipient] */\n      0xffffffffffffffffffffffffffffffffffffffff\n      and\n      0xffffffffffffffffffffffffffffffffffffffff\n      and\n      dup2\n      mstore\n      0x20\n      add\n      swap1\n      dup2\n      mstore\n      0x20\n      add\n      0x00\n      keccak256\n        /* \"contracts/Pool/PoolPig.sol\":22320:22380  _tOwned[recipient] = _tOwned[recipient].add(tTransferAmount) */\n      dup2\n      swap1\n      sstore\n      pop\n        /* \"contracts/Pool/PoolPig.sol\":22411:22450  _rOwned[recipient].add(rTransferAmount) */\n      tag_518\n        /* \"contracts/Pool/PoolPig.sol\":22434:22449  rTransferAmount */\n      dup6\n        /* \"contracts/Pool/PoolPig.sol\":22411:22418  _rOwned */\n      0x03\n        /* \"contracts/Pool/PoolPig.sol\":22411:22429  _rOwned[recipient] */\n      0x00\n        /* \"contracts/Pool/PoolPig.sol\":22419:22428  recipient */\n      dup12\n        /* \"contracts/Pool/PoolPig.sol\":22411:22429  _rOwned[recipient] */\n      0xffffffffffffffffffffffffffffffffffffffff\n      and\n      0xffffffffffffffffffffffffffffffffffffffff\n      and\n      dup2\n      mstore\n      0x20\n      add\n      swap1\n      dup2\n      mstore\n      0x20\n      add\n      0x00\n      keccak256\n      sload\n        /* \"contracts/Pool/PoolPig.sol\":22411:22433  _rOwned[recipient].add */\n      tag_246\n      swap1\n        /* \"contracts/Pool/PoolPig.sol\":22411:22450  _rOwned[recipient].add(rTransferAmount) */\n      swap2\n      swap1\n      0xffffffff\n      and\n      jump\t// in\n    tag_518:\n        /* \"contracts/Pool/PoolPig.sol\":22390:22397  _rOwned */\n      0x03\n        /* \"contracts/Pool/PoolPig.sol\":22390:22408  _rOwned[recipient] */\n      0x00\n        /* \"contracts/Pool/PoolPig.sol\":22398:22407  recipient */\n      dup11\n        /* \"contracts/Pool/PoolPig.sol\":22390:22408  _rOwned[recipient] */\n      0xffffffffffffffffffffffffffffffffffffffff\n      and\n      0xffffffffffffffffffffffffffffffffffffffff\n      and\n      dup2\n      mstore\n      0x20\n      add\n      swap1\n      dup2\n      mstore\n      0x20\n      add\n      0x00\n      keccak256\n        /* \"contracts/Pool/PoolPig.sol\":22390:22450  _rOwned[recipient] = _rOwned[recipient].add(rTransferAmount) */\n      dup2\n      swap1\n      sstore\n      pop\n        /* \"contracts/Pool/PoolPig.sol\":22468:22494  _takeLiquidity(tLiquidity) */\n      tag_519\n        /* \"contracts/Pool/PoolPig.sol\":22483:22493  tLiquidity */\n      dup2\n        /* \"contracts/Pool/PoolPig.sol\":22468:22482  _takeLiquidity */\n      tag_497\n        /* \"contracts/Pool/PoolPig.sol\":22468:22494  _takeLiquidity(tLiquidity) */\n      jump\t// in\n    tag_519:\n        /* \"contracts/Pool/PoolPig.sol\":22504:22527  _reflectFee(rFee, tFee) */\n      tag_520\n        /* \"contracts/Pool/PoolPig.sol\":22516:22520  rFee */\n      dup5\n        /* \"contracts/Pool/PoolPig.sol\":22522:22526  tFee */\n      dup4\n        /* \"contracts/Pool/PoolPig.sol\":22504:22515  _reflectFee */\n      tag_499\n        /* \"contracts/Pool/PoolPig.sol\":22504:22527  _reflectFee(rFee, tFee) */\n      jump\t// in\n    tag_520:\n        /* \"contracts/Pool/PoolPig.sol\":22559:22568  recipient */\n      dup8\n        /* \"contracts/Pool/PoolPig.sol\":22542:22586  Transfer(sender, recipient, tTransferAmount) */\n      0xffffffffffffffffffffffffffffffffffffffff\n      and\n        /* \"contracts/Pool/PoolPig.sol\":22551:22557  sender */\n      dup10\n        /* \"contracts/Pool/PoolPig.sol\":22542:22586  Transfer(sender, recipient, tTransferAmount) */\n      0xffffffffffffffffffffffffffffffffffffffff\n      and\n      0xddf252ad1be2c89b69c2b068fc378daa952ba7f163c4a11628f55a4df523b3ef\n        /* \"contracts/Pool/PoolPig.sol\":22570:22585  tTransferAmount */\n      dup6\n        /* \"contracts/Pool/PoolPig.sol\":22542:22586  Transfer(sender, recipient, tTransferAmount) */\n      mload(0x40)\n      dup1\n      dup3\n      dup2\n      mstore\n      0x20\n      add\n      swap2\n      pop\n      pop\n      mload(0x40)\n      dup1\n      swap2\n      sub\n      swap1\n      log3\n        /* \"contracts/Pool/PoolPig.sol\":21960:22593  function _transferBothExcluded(address sender, address recipient, uint256 tAmount) private {... */\n      pop\n      pop\n      pop\n      pop\n      pop\n      pop\n      pop\n      pop\n      pop\n      jump\t// out\n        /* \"contracts/Pool/PoolPig.sol\":27268:27390  function restoreAllFee() private {... */\n    tag_426:\n        /* \"contracts/Pool/PoolPig.sol\":27321:27336  _previousTaxFee */\n      sload(0x12)\n        /* \"contracts/Pool/PoolPig.sol\":27311:27318  _taxFee */\n      0x11\n        /* \"contracts/Pool/PoolPig.sol\":27311:27336  _taxFee = _previousTaxFee */\n      dup2\n      swap1\n      sstore\n      pop\n        /* \"contracts/Pool/PoolPig.sol\":27362:27383  _previousLiquidityFee */\n      sload(0x14)\n        /* \"contracts/Pool/PoolPig.sol\":27346:27359  _liquidityFee */\n      0x13\n        /* \"contracts/Pool/PoolPig.sol\":27346:27383  _liquidityFee = _previousLiquidityFee */\n      dup2\n      swap1\n      sstore\n      pop\n        /* \"contracts/Pool/PoolPig.sol\":27268:27390  function restoreAllFee() private {... */\n      jump\t// out\n        /* \"contracts/Pool/PoolPig.sol\":26688:26838  function calculateTaxFee(uint256 _amount) private view returns (uint256) {... */\n    tag_454:\n        /* \"contracts/Pool/PoolPig.sol\":26752:26759  uint256 */\n      0x00\n        /* \"contracts/Pool/PoolPig.sol\":26778:26831  _amount.mul(_taxFee).div(... */\n      tag_523\n        /* \"contracts/Pool/PoolPig.sol\":26816:26821  10**2 */\n      0x64\n        /* \"contracts/Pool/PoolPig.sol\":26778:26798  _amount.mul(_taxFee) */\n      tag_524\n        /* \"contracts/Pool/PoolPig.sol\":26790:26797  _taxFee */\n      sload(0x11)\n        /* \"contracts/Pool/PoolPig.sol\":26778:26785  _amount */\n      dup6\n        /* \"contracts/Pool/PoolPig.sol\":26778:26789  _amount.mul */\n      tag_323\n      swap1\n        /* \"contracts/Pool/PoolPig.sol\":26778:26798  _amount.mul(_taxFee) */\n      swap2\n      swap1\n      0xffffffff\n      and\n      jump\t// in\n    tag_524:\n        /* \"contracts/Pool/PoolPig.sol\":26778:26802  _amount.mul(_taxFee).div */\n      tag_222\n      swap1\n        /* \"contracts/Pool/PoolPig.sol\":26778:26831  _amount.mul(_taxFee).div(... */\n      swap2\n      swap1\n      0xffffffff\n      and\n      jump\t// in\n    tag_523:\n        /* \"contracts/Pool/PoolPig.sol\":26771:26831  return _amount.mul(_taxFee).div(... */\n      swap1\n      pop\n        /* \"contracts/Pool/PoolPig.sol\":26688:26838  function calculateTaxFee(uint256 _amount) private view returns (uint256) {... */\n      swap2\n      swap1\n      pop\n      jump\t// out\n        /* \"contracts/Pool/PoolPig.sol\":26844:27006  function calculateLiquidityFee(uint256 _amount) private view returns (uint256) {... */\n    tag_456:\n        /* \"contracts/Pool/PoolPig.sol\":26914:26921  uint256 */\n      0x00\n        /* \"contracts/Pool/PoolPig.sol\":26940:26999  _amount.mul(_liquidityFee).div(... */\n      tag_526\n        /* \"contracts/Pool/PoolPig.sol\":26984:26989  10**2 */\n      0x64\n        /* \"contracts/Pool/PoolPig.sol\":26940:26966  _amount.mul(_liquidityFee) */\n      tag_527\n        /* \"contracts/Pool/PoolPig.sol\":26952:26965  _liquidityFee */\n      sload(0x13)\n        /* \"contracts/Pool/PoolPig.sol\":26940:26947  _amount */\n      dup6\n        /* \"contracts/Pool/PoolPig.sol\":26940:26951  _amount.mul */\n      tag_323\n      swap1\n        /* \"contracts/Pool/PoolPig.sol\":26940:26966  _amount.mul(_liquidityFee) */\n      swap2\n      swap1\n      0xffffffff\n      and\n      jump\t// in\n    tag_527:\n        /* \"contracts/Pool/PoolPig.sol\":26940:26970  _amount.mul(_liquidityFee).div */\n      tag_222\n      swap1\n        /* \"contracts/Pool/PoolPig.sol\":26940:26999  _amount.mul(_liquidityFee).div(... */\n      swap2\n      swap1\n      0xffffffff\n      and\n      jump\t// in\n    tag_526:\n        /* \"contracts/Pool/PoolPig.sol\":26933:26999  return _amount.mul(_liquidityFee).div(... */\n      swap1\n      pop\n        /* \"contracts/Pool/PoolPig.sol\":26844:27006  function calculateLiquidityFee(uint256 _amount) private view returns (uint256) {... */\n      swap2\n      swap1\n      pop\n      jump\t// out\n        /* \"contracts/Pool/PoolPig.sol\":26329:26678  function _takeLiquidity(uint256 tLiquidity) private {... */\n    tag_497:\n        /* \"contracts/Pool/PoolPig.sol\":26391:26410  uint256 currentRate */\n      0x00\n        /* \"contracts/Pool/PoolPig.sol\":26414:26424  _getRate() */\n      tag_529\n        /* \"contracts/Pool/PoolPig.sol\":26414:26422  _getRate */\n      tag_220\n        /* \"contracts/Pool/PoolPig.sol\":26414:26424  _getRate() */\n      jump\t// in\n    tag_529:\n        /* \"contracts/Pool/PoolPig.sol\":26391:26424  uint256 currentRate =  _getRate() */\n      swap1\n      pop\n        /* \"contracts/Pool/PoolPig.sol\":26434:26452  uint256 rLiquidity */\n      0x00\n        /* \"contracts/Pool/PoolPig.sol\":26455:26482  tLiquidity.mul(currentRate) */\n      tag_530\n        /* \"contracts/Pool/PoolPig.sol\":26470:26481  currentRate */\n      dup3\n        /* \"contracts/Pool/PoolPig.sol\":26455:26465  tLiquidity */\n      dup5\n        /* \"contracts/Pool/PoolPig.sol\":26455:26469  tLiquidity.mul */\n      tag_323\n      swap1\n        /* \"contracts/Pool/PoolPig.sol\":26455:26482  tLiquidity.mul(currentRate) */\n      swap2\n      swap1\n      0xffffffff\n      and\n      jump\t// in\n    tag_530:\n        /* \"contracts/Pool/PoolPig.sol\":26434:26482  uint256 rLiquidity = tLiquidity.mul(currentRate) */\n      swap1\n      pop\n        /* \"contracts/Pool/PoolPig.sol\":26517:26555  _rOwned[address(this)].add(rLiquidity) */\n      tag_531\n        /* \"contracts/Pool/PoolPig.sol\":26544:26554  rLiquidity */\n      dup2\n        /* \"contracts/Pool/PoolPig.sol\":26517:26524  _rOwned */\n      0x03\n        /* \"contracts/Pool/PoolPig.sol\":26517:26539  _rOwned[address(this)] */\n      0x00\n        /* \"contracts/Pool/PoolPig.sol\":26533:26537  this */\n      address\n        /* \"contracts/Pool/PoolPig.sol\":26517:26539  _rOwned[address(this)] */\n      0xffffffffffffffffffffffffffffffffffffffff\n      and\n      0xffffffffffffffffffffffffffffffffffffffff\n      and\n      dup2\n      mstore\n      0x20\n      add\n      swap1\n      dup2\n      mstore\n      0x20\n      add\n      0x00\n      keccak256\n      sload\n        /* \"contracts/Pool/PoolPig.sol\":26517:26543  _rOwned[address(this)].add */\n      tag_246\n      swap1\n        /* \"contracts/Pool/PoolPig.sol\":26517:26555  _rOwned[address(this)].add(rLiquidity) */\n      swap2\n      swap1\n      0xffffffff\n      and\n      jump\t// in\n    tag_531:\n        /* \"contracts/Pool/PoolPig.sol\":26492:26499  _rOwned */\n      0x03\n        /* \"contracts/Pool/PoolPig.sol\":26492:26514  _rOwned[address(this)] */\n      0x00\n        /* \"contracts/Pool/PoolPig.sol\":26508:26512  this */\n      address\n        /* \"contracts/Pool/PoolPig.sol\":26492:26514  _rOwned[address(this)] */\n      0xffffffffffffffffffffffffffffffffffffffff\n      and\n      0xffffffffffffffffffffffffffffffffffffffff\n      and\n      dup2\n      mstore\n      0x20\n      add\n      swap1\n      dup2\n      mstore\n      0x20\n      add\n      0x00\n      keccak256\n        /* \"contracts/Pool/PoolPig.sol\":26492:26555  _rOwned[address(this)] = _rOwned[address(this)].add(rLiquidity) */\n      dup2\n      swap1\n      sstore\n      pop\n        /* \"contracts/Pool/PoolPig.sol\":26568:26579  _isExcluded */\n      0x07\n        /* \"contracts/Pool/PoolPig.sol\":26568:26594  _isExcluded[address(this)] */\n      0x00\n        /* \"contracts/Pool/PoolPig.sol\":26588:26592  this */\n      address\n        /* \"contracts/Pool/PoolPig.sol\":26568:26594  _isExcluded[address(this)] */\n      0xffffffffffffffffffffffffffffffffffffffff\n      and\n      0xffffffffffffffffffffffffffffffffffffffff\n      and\n      dup2\n      mstore\n      0x20\n      add\n      swap1\n      dup2\n      mstore\n      0x20\n      add\n      0x00\n      keccak256\n      0x00\n      swap1\n      sload\n      swap1\n      0x0100\n      exp\n      swap1\n      div\n      0xff\n      and\n        /* \"contracts/Pool/PoolPig.sol\":26565:26671  if(_isExcluded[address(this)])... */\n      iszero\n      tag_532\n      jumpi\n        /* \"contracts/Pool/PoolPig.sol\":26633:26671  _tOwned[address(this)].add(tLiquidity) */\n      tag_533\n        /* \"contracts/Pool/PoolPig.sol\":26660:26670  tLiquidity */\n      dup4\n        /* \"contracts/Pool/PoolPig.sol\":26633:26640  _tOwned */\n      0x04\n        /* \"contracts/Pool/PoolPig.sol\":26633:26655  _tOwned[address(this)] */\n      0x00\n        /* \"contracts/Pool/PoolPig.sol\":26649:26653  this */\n      address\n        /* \"contracts/Pool/PoolPig.sol\":26633:26655  _tOwned[address(this)] */\n      0xffffffffffffffffffffffffffffffffffffffff\n      and\n      0xffffffffffffffffffffffffffffffffffffffff\n      and\n      dup2\n      mstore\n      0x20\n      add\n      swap1\n      dup2\n      mstore\n      0x20\n      add\n      0x00\n      keccak256\n      sload\n        /* \"contracts/Pool/PoolPig.sol\":26633:26659  _tOwned[address(this)].add */\n      tag_246\n      swap1\n        /* \"contracts/Pool/PoolPig.sol\":26633:26671  _tOwned[address(this)].add(tLiquidity) */\n      swap2\n      swap1\n      0xffffffff\n      and\n      jump\t// in\n    tag_533:\n        /* \"contracts/Pool/PoolPig.sol\":26608:26615  _tOwned */\n      0x04\n        /* \"contracts/Pool/PoolPig.sol\":26608:26630  _tOwned[address(this)] */\n      0x00\n        /* \"contracts/Pool/PoolPig.sol\":26624:26628  this */\n      address\n        /* \"contracts/Pool/PoolPig.sol\":26608:26630  _tOwned[address(this)] */\n      0xffffffffffffffffffffffffffffffffffffffff\n      and\n      0xffffffffffffffffffffffffffffffffffffffff\n      and\n      dup2\n      mstore\n      0x20\n      add\n      swap1\n      dup2\n      mstore\n      0x20\n      add\n      0x00\n      keccak256\n        /* \"contracts/Pool/PoolPig.sol\":26608:26671  _tOwned[address(this)] = _tOwned[address(this)].add(tLiquidity) */\n      dup2\n      swap1\n      sstore\n      pop\n        /* \"contracts/Pool/PoolPig.sol\":26565:26671  if(_isExcluded[address(this)])... */\n    tag_532:\n        /* \"contracts/Pool/PoolPig.sol\":26329:26678  function _takeLiquidity(uint256 tLiquidity) private {... */\n      pop\n      pop\n      pop\n      jump\t// out\n        /* \"contracts/Pool/PoolPig.sol\":24271:24415  function _reflectFee(uint256 rFee, uint256 tFee) private {... */\n    tag_499:\n        /* \"contracts/Pool/PoolPig.sol\":24348:24365  _rTotal.sub(rFee) */\n      tag_535\n        /* \"contracts/Pool/PoolPig.sol\":24360:24364  rFee */\n      dup3\n        /* \"contracts/Pool/PoolPig.sol\":24348:24355  _rTotal */\n      sload(0x0c)\n        /* \"contracts/Pool/PoolPig.sol\":24348:24359  _rTotal.sub */\n      tag_253\n      swap1\n        /* \"contracts/Pool/PoolPig.sol\":24348:24365  _rTotal.sub(rFee) */\n      swap2\n      swap1\n      0xffffffff\n      and\n      jump\t// in\n    tag_535:\n        /* \"contracts/Pool/PoolPig.sol\":24338:24345  _rTotal */\n      0x0c\n        /* \"contracts/Pool/PoolPig.sol\":24338:24365  _rTotal = _rTotal.sub(rFee) */\n      dup2\n      swap1\n      sstore\n      pop\n        /* \"contracts/Pool/PoolPig.sol\":24388:24408  _tFeeTotal.add(tFee) */\n      tag_536\n        /* \"contracts/Pool/PoolPig.sol\":24403:24407  tFee */\n      dup2\n        /* \"contracts/Pool/PoolPig.sol\":24388:24398  _tFeeTotal */\n      sload(0x0d)\n        /* \"contracts/Pool/PoolPig.sol\":24388:24402  _tFeeTotal.add */\n      tag_246\n      swap1\n        /* \"contracts/Pool/PoolPig.sol\":24388:24408  _tFeeTotal.add(tFee) */\n      swap2\n      swap1\n      0xffffffff\n      and\n      jump\t// in\n    tag_536:\n        /* \"contracts/Pool/PoolPig.sol\":24375:24385  _tFeeTotal */\n      0x0d\n        /* \"contracts/Pool/PoolPig.sol\":24375:24408  _tFeeTotal = _tFeeTotal.add(tFee) */\n      dup2\n      swap1\n      sstore\n      pop\n        /* \"contracts/Pool/PoolPig.sol\":24271:24415  function _reflectFee(uint256 rFee, uint256 tFee) private {... */\n      pop\n      pop\n      jump\t// out\n    stop\n    data_0557e210f7a69a685100a7e4e3d0a7024c546085cee28910fd17d0b081d9516f 45524332303a207472616e7366657220746f20746865207a65726f2061646472657373\n    data_22f7af55a509c3b14f0d528f087748dec8a8bf425135e3f5dc28c6a31ec6d812 416d6f756e74206d757374206265206c657373207468616e20746f74616c207265666c656374696f6e73\n    data_245f15ff17f551913a7a18385165551503906a406f905ac1c2437281a7cd0cfe 4f776e61626c653a206e6577206f776e657220697320746865207a65726f2061646472657373\n    data_24883cc5fe64ace9d0df1893501ecb93c77180f0ff69cca79affb3c316dc8029 45524332303a20617070726f766520746f20746865207a65726f2061646472657373\n    data_72052210969ce5fd88e52b5e685de9548acef9bb1b6d02e29c1765d0674948dd 5472616e7366657220616d6f756e74206578636565647320746865206d61785478416d6f756e742e\n    data_9113bb53c2876a3805b2c9242029423fc540a728243ce887ab24c82cf119fba3 536166654d6174683a206d756c7469706c69636174696f6e206f766572666c6f77\n    data_974d1b4421da69cc60b481194f0dad36a5bb4e23da810da7a7fb30cdba178330 45524332303a207472616e7366657220616d6f756e74206578636565647320616c6c6f77616e6365\n    data_9edb5ab58321f35d2386ea65721c9b107daa2c273610fc16d394af2a320ba785 5472616e7366657220616d6f756e74206d7573742062652067726561746572207468616e207a65726f\n    data_baecc556b46f4ed0f2b4cb599d60785ac8563dd2dc0a5bf12edea1c39e5e1fea 45524332303a207472616e736665722066726f6d20746865207a65726f2061646472657373\n    data_c953f4879035ed60e766b34720f656aab5c697b141d924c283124ecedb91c208 45524332303a20617070726f76652066726f6d20746865207a65726f2061646472657373\n    data_ecefcaf5fbcf9ca6dcdb02298ba1da96f4ead317b0a4779917ecb2e5e7dc3ac4 4578636c75646564206164647265737365732063616e6e6f742063616c6c20746869732066756e6374696f6e\n    data_f4eb59be3df39931213d374c3658377dca3f0d2b46b7bc965af767c57c74b611 596f7520646f6e27742068617665207065726d697373696f6e20746f20756e6c6f636b\n    data_f8b476f7d28209d77d4a4ac1fe36b9f8259aa1bb6bddfa6e89de7e51615cf8a8 45524332303a2064656372656173656420616c6c6f77616e63652062656c6f77207a65726f\n\n    auxdata: 0xa2646970667358221220096a1df7a61fbac8b554108bebc7c424bd7521bb106e757af37be648931abbee64736f6c634300060c0033\n}\n",
				"bytecode": {
					"linkReferences": {},
					"object": "60c0604052738492cbd894686d7e98214541903c7ba6f94928d6600960006101000a81548173ffffffffffffffffffffffffffffffffffffffff021916908373ffffffffffffffffffffffffffffffffffffffff16021790555073a4ed7aa4ef5deb0a63e97d9cb77445ae553feb1d600a60006101000a81548173ffffffffffffffffffffffffffffffffffffffff021916908373ffffffffffffffffffffffffffffffffffffffff16021790555073e061915592536656a92b9fd59e46b19ef920692f600b60006101000a81548173ffffffffffffffffffffffffffffffffffffffff021916908373ffffffffffffffffffffffffffffffffffffffff160217905550670de0b6b3a7640000600019816200011757fe5b0660001903600c556040518060400160405280600a81526020017f576f726c64205374657000000000000000000000000000000000000000000000815250600e90805190602001906200016c92919062000a65565b506040518060400160405280600381526020017f5753500000000000000000000000000000000000000000000000000000000000815250600f9080519060200190620001ba92919062000a65565b506009601060006101000a81548160ff021916908360ff160217905550600260115560115460125560036013556013546014556001601560016101000a81548160ff0219169083151502179055506000601560026101000a81548160ff021916908315150217905550652d79883d2000601655650246139ca8006017553480156200024457600080fd5b5060405162005be938038062005be9833981810160405260208110156200026a57600080fd5b810190808051906020019092919050505060006200028d6200081a60201b60201c565b9050806000806101000a81548173ffffffffffffffffffffffffffffffffffffffff021916908373ffffffffffffffffffffffffffffffffffffffff1602179055508073ffffffffffffffffffffffffffffffffffffffff16600073ffffffffffffffffffffffffffffffffffffffff167f8be0079c531659141344cd1fd0a4f28419497f9722a3daafe3b4186f6b6457e060405160405180910390a350600c5460036000620003426200081a60201b60201c565b73ffffffffffffffffffffffffffffffffffffffff1673ffffffffffffffffffffffffffffffffffffffff168152602001908152602001600020819055506000739ac64cc6e4415144c455bd8e4837fea55603e5c390508073ffffffffffffffffffffffffffffffffffffffff1663c45a01556040518163ffffffff1660e01b815260040160206040518083038186803b158015620003e057600080fd5b505afa158015620003f5573d6000803e3d6000fd5b505050506040513d60208110156200040c57600080fd5b810190808051906020019092919050505073ffffffffffffffffffffffffffffffffffffffff1663c9c65396308373ffffffffffffffffffffffffffffffffffffffff1663ad5c46486040518163ffffffff1660e01b815260040160206040518083038186803b1580156200048057600080fd5b505afa15801562000495573d6000803e3d6000fd5b505050506040513d6020811015620004ac57600080fd5b81019080805190602001909291905050506040518363ffffffff1660e01b8152600401808373ffffffffffffffffffffffffffffffffffffffff1681526020018273ffffffffffffffffffffffffffffffffffffffff16815260200192505050602060405180830381600087803b1580156200052757600080fd5b505af11580156200053c573d6000803e3d6000fd5b505050506040513d60208110156200055357600080fd5b810190808051906020019092919050505073ffffffffffffffffffffffffffffffffffffffff1660a08173ffffffffffffffffffffffffffffffffffffffff1660601b815250508073ffffffffffffffffffffffffffffffffffffffff1660808173ffffffffffffffffffffffffffffffffffffffff1660601b81525050600160066000620005e76200082260201b60201c565b73ffffffffffffffffffffffffffffffffffffffff1673ffffffffffffffffffffffffffffffffffffffff16815260200190815260200160002060006101000a81548160ff0219169083151502179055506001600660003073ffffffffffffffffffffffffffffffffffffffff1673ffffffffffffffffffffffffffffffffffffffff16815260200190815260200160002060006101000a81548160ff021916908315150217905550600160066000600960009054906101000a900473ffffffffffffffffffffffffffffffffffffffff1673ffffffffffffffffffffffffffffffffffffffff1673ffffffffffffffffffffffffffffffffffffffff16815260200190815260200160002060006101000a81548160ff021916908315150217905550600160066000600a60009054906101000a900473ffffffffffffffffffffffffffffffffffffffff1673ffffffffffffffffffffffffffffffffffffffff1673ffffffffffffffffffffffffffffffffffffffff16815260200190815260200160002060006101000a81548160ff02191690831515021790555062000795826200084b60201b60201c565b620007a56200081a60201b60201c565b73ffffffffffffffffffffffffffffffffffffffff16600073ffffffffffffffffffffffffffffffffffffffff167fddf252ad1be2c89b69c2b068fc378daa952ba7f163c4a11628f55a4df523b3ef670de0b6b3a76400006040518082815260200191505060405180910390a3505062000b0b565b600033905090565b60008060009054906101000a900473ffffffffffffffffffffffffffffffffffffffff16905090565b6200085b6200081a60201b60201c565b73ffffffffffffffffffffffffffffffffffffffff1660008054906101000a900473ffffffffffffffffffffffffffffffffffffffff1673ffffffffffffffffffffffffffffffffffffffff16146200091c576040517f08c379a00000000000000000000000000000000000000000000000000000000081526004018080602001828103825260208152602001807f4f776e61626c653a2063616c6c6572206973206e6f7420746865206f776e657281525060200191505060405180910390fd5b6000739ac64cc6e4415144c455bd8e4837fea55603e5c390508073ffffffffffffffffffffffffffffffffffffffff1663f305d719343085600080620009676200082260201b60201c565b61016842016040518863ffffffff1660e01b8152600401808773ffffffffffffffffffffffffffffffffffffffff1681526020018681526020018581526020018481526020018373ffffffffffffffffffffffffffffffffffffffff16815260200182815260200196505050505050506060604051808303818588803b158015620009f157600080fd5b505af115801562000a06573d6000803e3d6000fd5b50505050506040513d606081101562000a1e57600080fd5b810190808051906020019092919080519060200190929190805190602001909291905050505050506001601560026101000a81548160ff0219169083151502179055505050565b828054600181600116156101000203166002900490600052602060002090601f016020900481019282601f1062000aa857805160ff191683800117855562000ad9565b8280016001018555821562000ad9579182015b8281111562000ad857825182559160200191906001019062000abb565b5b50905062000ae8919062000aec565b5090565b5b8082111562000b0757600081600090555060010162000aed565b5090565b60805160601c60a05160601c61509662000b5360003980611a8152806131ef525080610f1f5280613ef35280613fdf52806140065280614111528061413852506150966000f3fe6080604052600436106102295760003560e01c80635342acb411610123578063a457c2d7116100ab578063d543dbeb1161006f578063d543dbeb14610be4578063dd46706414610c1f578063dd62ed3e14610c5a578063ea2f0b3714610cdf578063f2fde38b14610d3057610230565b8063a457c2d714610a83578063a69df4b514610af4578063a9059cbb14610b0b578063b6c5232414610b7c578063c49b9a8014610ba757610230565b80637d1db4a5116100f25780637d1db4a5146108e557806388f82020146109105780638da5cb5b146109775780638ee88c53146109b857806395d89b41146109f357610230565b80635342acb4146107d75780636bc87c3a1461083e57806370a0823114610869578063715018a6146108ce57610230565b80633685d419116101b1578063437823ec11610175578063437823ec1461066c5780634549b039146106bd57806349bd5a5e146107185780634a74bb021461075957806352390c021461078657610230565b80633685d4191461051657806339509351146105675780633b124fe7146105d85780633bd5d1731461060357806341a22cc21461063e57610230565b80631694505e116101f85780631694505e1461039c57806318160ddd146103dd57806323b872dd146104085780632d83811914610499578063313ce567146104e857610230565b8063061c82d01461023557806306fdde0314610270578063095ea7b31461030057806313114a9d1461037157610230565b3661023057005b600080fd5b34801561024157600080fd5b5061026e6004803603602081101561025857600080fd5b8101908080359060200190929190505050610d81565b005b34801561027c57600080fd5b50610285610e53565b6040518080602001828103825283818151815260200191508051906020019080838360005b838110156102c55780820151818401526020810190506102aa565b50505050905090810190601f1680156102f25780820380516001836020036101000a031916815260200191505b509250505060405180910390f35b34801561030c57600080fd5b506103596004803603604081101561032357600080fd5b81019080803573ffffffffffffffffffffffffffffffffffffffff16906020019092919080359060200190929190505050610ef5565b60405180821515815260200191505060405180910390f35b34801561037d57600080fd5b50610386610f13565b6040518082815260200191505060405180910390f35b3480156103a857600080fd5b506103b1610f1d565b604051808273ffffffffffffffffffffffffffffffffffffffff16815260200191505060405180910390f35b3480156103e957600080fd5b506103f2610f41565b6040518082815260200191505060405180910390f35b34801561041457600080fd5b506104816004803603606081101561042b57600080fd5b81019080803573ffffffffffffffffffffffffffffffffffffffff169060200190929190803573ffffffffffffffffffffffffffffffffffffffff16906020019092919080359060200190929190505050610f51565b60405180821515815260200191505060405180910390f35b3480156104a557600080fd5b506104d2600480360360208110156104bc57600080fd5b810190808035906020019092919050505061102a565b6040518082815260200191505060405180910390f35b3480156104f457600080fd5b506104fd6110ae565b604051808260ff16815260200191505060405180910390f35b34801561052257600080fd5b506105656004803603602081101561053957600080fd5b81019080803573ffffffffffffffffffffffffffffffffffffffff1690602001909291905050506110c5565b005b34801561057357600080fd5b506105c06004803603604081101561058a57600080fd5b81019080803573ffffffffffffffffffffffffffffffffffffffff1690602001909291908035906020019092919050505061144f565b60405180821515815260200191505060405180910390f35b3480156105e457600080fd5b506105ed611502565b6040518082815260200191505060405180910390f35b34801561060f57600080fd5b5061063c6004803603602081101561062657600080fd5b8101908080359060200190929190505050611508565b005b61066a6004803603602081101561065457600080fd5b8101908080359060200190929190505050611699565b005b34801561067857600080fd5b506106bb6004803603602081101561068f57600080fd5b81019080803573ffffffffffffffffffffffffffffffffffffffff16906020019092919050505061189f565b005b3480156106c957600080fd5b50610702600480360360408110156106e057600080fd5b81019080803590602001909291908035151590602001909291905050506119c2565b6040518082815260200191505060405180910390f35b34801561072457600080fd5b5061072d611a7f565b604051808273ffffffffffffffffffffffffffffffffffffffff16815260200191505060405180910390f35b34801561076557600080fd5b5061076e611aa3565b60405180821515815260200191505060405180910390f35b34801561079257600080fd5b506107d5600480360360208110156107a957600080fd5b81019080803573ffffffffffffffffffffffffffffffffffffffff169060200190929190505050611ab6565b005b3480156107e357600080fd5b50610826600480360360208110156107fa57600080fd5b81019080803573ffffffffffffffffffffffffffffffffffffffff169060200190929190505050611dd0565b60405180821515815260200191505060405180910390f35b34801561084a57600080fd5b50610853611e26565b6040518082815260200191505060405180910390f35b34801561087557600080fd5b506108b86004803603602081101561088c57600080fd5b81019080803573ffffffffffffffffffffffffffffffffffffffff169060200190929190505050611e2c565b6040518082815260200191505060405180910390f35b3480156108da57600080fd5b506108e3611f17565b005b3480156108f157600080fd5b506108fa61209d565b6040518082815260200191505060405180910390f35b34801561091c57600080fd5b5061095f6004803603602081101561093357600080fd5b81019080803573ffffffffffffffffffffffffffffffffffffffff1690602001909291905050506120a3565b60405180821515815260200191505060405180910390f35b34801561098357600080fd5b5061098c6120f9565b604051808273ffffffffffffffffffffffffffffffffffffffff16815260200191505060405180910390f35b3480156109c457600080fd5b506109f1600480360360208110156109db57600080fd5b8101908080359060200190929190505050612122565b005b3480156109ff57600080fd5b50610a086121f4565b6040518080602001828103825283818151815260200191508051906020019080838360005b83811015610a48578082015181840152602081019050610a2d565b50505050905090810190601f168015610a755780820380516001836020036101000a031916815260200191505b509250505060405180910390f35b348015610a8f57600080fd5b50610adc60048036036040811015610aa657600080fd5b81019080803573ffffffffffffffffffffffffffffffffffffffff16906020019092919080359060200190929190505050612296565b60405180821515815260200191505060405180910390f35b348015610b0057600080fd5b50610b09612363565b005b348015610b1757600080fd5b50610b6460048036036040811015610b2e57600080fd5b81019080803573ffffffffffffffffffffffffffffffffffffffff16906020019092919080359060200190929190505050612580565b60405180821515815260200191505060405180910390f35b348015610b8857600080fd5b50610b9161259e565b6040518082815260200191505060405180910390f35b348015610bb357600080fd5b50610be260048036036020811015610bca57600080fd5b810190808035151590602001909291905050506125a8565b005b348015610bf057600080fd5b50610c1d60048036036020811015610c0757600080fd5b81019080803590602001909291905050506126c6565b005b348015610c2b57600080fd5b50610c5860048036036020811015610c4257600080fd5b81019080803590602001909291905050506127c5565b005b348015610c6657600080fd5b50610cc960048036036040811015610c7d57600080fd5b81019080803573ffffffffffffffffffffffffffffffffffffffff169060200190929190803573ffffffffffffffffffffffffffffffffffffffff1690602001909291905050506129b6565b6040518082815260200191505060405180910390f35b348015610ceb57600080fd5b50610d2e60048036036020811015610d0257600080fd5b81019080803573ffffffffffffffffffffffffffffffffffffffff169060200190929190505050612a3d565b005b348015610d3c57600080fd5b50610d7f60048036036020811015610d5357600080fd5b81019080803573ffffffffffffffffffffffffffffffffffffffff169060200190929190505050612b60565b005b610d89612d6b565b73ffffffffffffffffffffffffffffffffffffffff1660008054906101000a900473ffffffffffffffffffffffffffffffffffffffff1673ffffffffffffffffffffffffffffffffffffffff1614610e49576040517f08c379a00000000000000000000000000000000000000000000000000000000081526004018080602001828103825260208152602001807f4f776e61626c653a2063616c6c6572206973206e6f7420746865206f776e657281525060200191505060405180910390fd5b8060118190555050565b6060600e8054600181600116156101000203166002900480601f016020809104026020016040519081016040528092919081815260200182805460018160011615610100020316600290048015610eeb5780601f10610ec057610100808354040283529160200191610eeb565b820191906000526020600020905b815481529060010190602001808311610ece57829003601f168201915b5050505050905090565b6000610f09610f02612d6b565b8484612d73565b6001905092915050565b6000600d54905090565b7f000000000000000000000000000000000000000000000000000000000000000081565b6000670de0b6b3a7640000905090565b6000610f5e848484612f6a565b61101f84610f6a612d6b565b61101a85604051806060016040528060288152602001614f5360289139600560008b73ffffffffffffffffffffffffffffffffffffffff1673ffffffffffffffffffffffffffffffffffffffff1681526020019081526020016000206000610fd0612d6b565b73ffffffffffffffffffffffffffffffffffffffff1673ffffffffffffffffffffffffffffffffffffffff1681526020019081526020016000205461332f9092919063ffffffff16565b612d73565b600190509392505050565b6000600c54821115611087576040517f08c379a000000000000000000000000000000000000000000000000000000000815260040180806020018281038252602a815260200180614e98602a913960400191505060405180910390fd5b60006110916133ef565b90506110a6818461341a90919063ffffffff16565b915050919050565b6000601060009054906101000a900460ff16905090565b6110cd612d6b565b73ffffffffffffffffffffffffffffffffffffffff1660008054906101000a900473ffffffffffffffffffffffffffffffffffffffff1673ffffffffffffffffffffffffffffffffffffffff161461118d576040517f08c379a00000000000000000000000000000000000000000000000000000000081526004018080602001828103825260208152602001807f4f776e61626c653a2063616c6c6572206973206e6f7420746865206f776e657281525060200191505060405180910390fd5b600760008273ffffffffffffffffffffffffffffffffffffffff1673ffffffffffffffffffffffffffffffffffffffff16815260200190815260200160002060009054906101000a900460ff1661124c576040517f08c379a000000000000000000000000000000000000000000000000000000000815260040180806020018281038252601b8152602001807f4163636f756e7420697320616c7265616479206578636c75646564000000000081525060200191505060405180910390fd5b60005b60088054905081101561144b578173ffffffffffffffffffffffffffffffffffffffff166008828154811061128057fe5b9060005260206000200160009054906101000a900473ffffffffffffffffffffffffffffffffffffffff1673ffffffffffffffffffffffffffffffffffffffff16141561143e576008600160088054905003815481106112dc57fe5b9060005260206000200160009054906101000a900473ffffffffffffffffffffffffffffffffffffffff166008828154811061131457fe5b9060005260206000200160006101000a81548173ffffffffffffffffffffffffffffffffffffffff021916908373ffffffffffffffffffffffffffffffffffffffff1602179055506000600460008473ffffffffffffffffffffffffffffffffffffffff1673ffffffffffffffffffffffffffffffffffffffff168152602001908152602001600020819055506000600760008473ffffffffffffffffffffffffffffffffffffffff1673ffffffffffffffffffffffffffffffffffffffff16815260200190815260200160002060006101000a81548160ff021916908315150217905550600880548061140457fe5b6001900381819060005260206000200160006101000a81549073ffffffffffffffffffffffffffffffffffffffff0219169055905561144b565b808060010191505061124f565b5050565b60006114f861145c612d6b565b846114f3856005600061146d612d6b565b73ffffffffffffffffffffffffffffffffffffffff1673ffffffffffffffffffffffffffffffffffffffff16815260200190815260200160002060008973ffffffffffffffffffffffffffffffffffffffff1673ffffffffffffffffffffffffffffffffffffffff1681526020019081526020016000205461346490919063ffffffff16565b612d73565b6001905092915050565b60115481565b6000611512612d6b565b9050600760008273ffffffffffffffffffffffffffffffffffffffff1673ffffffffffffffffffffffffffffffffffffffff16815260200190815260200160002060009054906101000a900460ff16156115b7576040517f08c379a000000000000000000000000000000000000000000000000000000000815260040180806020018281038252602c815260200180614fed602c913960400191505060405180910390fd5b60006115c2836134ec565b5050505050905061161b81600360008573ffffffffffffffffffffffffffffffffffffffff1673ffffffffffffffffffffffffffffffffffffffff1681526020019081526020016000205461354890919063ffffffff16565b600360008473ffffffffffffffffffffffffffffffffffffffff1673ffffffffffffffffffffffffffffffffffffffff1681526020019081526020016000208190555061167381600c5461354890919063ffffffff16565b600c8190555061168e83600d5461346490919063ffffffff16565b600d81905550505050565b6116a1612d6b565b73ffffffffffffffffffffffffffffffffffffffff1660008054906101000a900473ffffffffffffffffffffffffffffffffffffffff1673ffffffffffffffffffffffffffffffffffffffff1614611761576040517f08c379a00000000000000000000000000000000000000000000000000000000081526004018080602001828103825260208152602001807f4f776e61626c653a2063616c6c6572206973206e6f7420746865206f776e657281525060200191505060405180910390fd5b6000739ac64cc6e4415144c455bd8e4837fea55603e5c390508073ffffffffffffffffffffffffffffffffffffffff1663f305d7193430856000806117a46120f9565b61016842016040518863ffffffff1660e01b8152600401808773ffffffffffffffffffffffffffffffffffffffff1681526020018681526020018581526020018481526020018373ffffffffffffffffffffffffffffffffffffffff16815260200182815260200196505050505050506060604051808303818588803b15801561182d57600080fd5b505af1158015611841573d6000803e3d6000fd5b50505050506040513d606081101561185857600080fd5b810190808051906020019092919080519060200190929190805190602001909291905050505050506001601560026101000a81548160ff0219169083151502179055505050565b6118a7612d6b565b73ffffffffffffffffffffffffffffffffffffffff1660008054906101000a900473ffffffffffffffffffffffffffffffffffffffff1673ffffffffffffffffffffffffffffffffffffffff1614611967576040517f08c379a00000000000000000000000000000000000000000000000000000000081526004018080602001828103825260208152602001807f4f776e61626c653a2063616c6c6572206973206e6f7420746865206f776e657281525060200191505060405180910390fd5b6001600660008373ffffffffffffffffffffffffffffffffffffffff1673ffffffffffffffffffffffffffffffffffffffff16815260200190815260200160002060006101000a81548160ff02191690831515021790555050565b6000670de0b6b3a7640000831115611a42576040517f08c379a000000000000000000000000000000000000000000000000000000000815260040180806020018281038252601f8152602001807f416d6f756e74206d757374206265206c657373207468616e20737570706c790081525060200191505060405180910390fd5b81611a62576000611a52846134ec565b5050505050905080915050611a79565b6000611a6d846134ec565b50505050915050809150505b92915050565b7f000000000000000000000000000000000000000000000000000000000000000081565b601560019054906101000a900460ff1681565b611abe612d6b565b73ffffffffffffffffffffffffffffffffffffffff1660008054906101000a900473ffffffffffffffffffffffffffffffffffffffff1673ffffffffffffffffffffffffffffffffffffffff1614611b7e576040517f08c379a00000000000000000000000000000000000000000000000000000000081526004018080602001828103825260208152602001807f4f776e61626c653a2063616c6c6572206973206e6f7420746865206f776e657281525060200191505060405180910390fd5b600760008273ffffffffffffffffffffffffffffffffffffffff1673ffffffffffffffffffffffffffffffffffffffff16815260200190815260200160002060009054906101000a900460ff1615611c3e576040517f08c379a000000000000000000000000000000000000000000000000000000000815260040180806020018281038252601b8152602001807f4163636f756e7420697320616c7265616479206578636c75646564000000000081525060200191505060405180910390fd5b6000600360008373ffffffffffffffffffffffffffffffffffffffff1673ffffffffffffffffffffffffffffffffffffffff168152602001908152602001600020541115611d1257611cce600360008373ffffffffffffffffffffffffffffffffffffffff1673ffffffffffffffffffffffffffffffffffffffff1681526020019081526020016000205461102a565b600460008373ffffffffffffffffffffffffffffffffffffffff1673ffffffffffffffffffffffffffffffffffffffff168152602001908152602001600020819055505b6001600760008373ffffffffffffffffffffffffffffffffffffffff1673ffffffffffffffffffffffffffffffffffffffff16815260200190815260200160002060006101000a81548160ff0219169083151502179055506008819080600181540180825580915050600190039060005260206000200160009091909190916101000a81548173ffffffffffffffffffffffffffffffffffffffff021916908373ffffffffffffffffffffffffffffffffffffffff16021790555050565b6000600660008373ffffffffffffffffffffffffffffffffffffffff1673ffffffffffffffffffffffffffffffffffffffff16815260200190815260200160002060009054906101000a900460ff169050919050565b60135481565b6000600760008373ffffffffffffffffffffffffffffffffffffffff1673ffffffffffffffffffffffffffffffffffffffff16815260200190815260200160002060009054906101000a900460ff1615611ec757600460008373ffffffffffffffffffffffffffffffffffffffff1673ffffffffffffffffffffffffffffffffffffffff168152602001908152602001600020549050611f12565b611f0f600360008473ffffffffffffffffffffffffffffffffffffffff1673ffffffffffffffffffffffffffffffffffffffff1681526020019081526020016000205461102a565b90505b919050565b611f1f612d6b565b73ffffffffffffffffffffffffffffffffffffffff1660008054906101000a900473ffffffffffffffffffffffffffffffffffffffff1673ffffffffffffffffffffffffffffffffffffffff1614611fdf576040517f08c379a00000000000000000000000000000000000000000000000000000000081526004018080602001828103825260208152602001807f4f776e61626c653a2063616c6c6572206973206e6f7420746865206f776e657281525060200191505060405180910390fd5b600073ffffffffffffffffffffffffffffffffffffffff1660008054906101000a900473ffffffffffffffffffffffffffffffffffffffff1673ffffffffffffffffffffffffffffffffffffffff167f8be0079c531659141344cd1fd0a4f28419497f9722a3daafe3b4186f6b6457e060405160405180910390a360008060006101000a81548173ffffffffffffffffffffffffffffffffffffffff021916908373ffffffffffffffffffffffffffffffffffffffff160217905550565b60165481565b6000600760008373ffffffffffffffffffffffffffffffffffffffff1673ffffffffffffffffffffffffffffffffffffffff16815260200190815260200160002060009054906101000a900460ff169050919050565b60008060009054906101000a900473ffffffffffffffffffffffffffffffffffffffff16905090565b61212a612d6b565b73ffffffffffffffffffffffffffffffffffffffff1660008054906101000a900473ffffffffffffffffffffffffffffffffffffffff1673ffffffffffffffffffffffffffffffffffffffff16146121ea576040517f08c379a00000000000000000000000000000000000000000000000000000000081526004018080602001828103825260208152602001807f4f776e61626c653a2063616c6c6572206973206e6f7420746865206f776e657281525060200191505060405180910390fd5b8060138190555050565b6060600f8054600181600116156101000203166002900480601f01602080910402602001604051908101604052809291908181526020018280546001816001161561010002031660029004801561228c5780601f106122615761010080835404028352916020019161228c565b820191906000526020600020905b81548152906001019060200180831161226f57829003601f168201915b5050505050905090565b60006123596122a3612d6b565b846123548560405180606001604052806025815260200161503c60259139600560006122cd612d6b565b73ffffffffffffffffffffffffffffffffffffffff1673ffffffffffffffffffffffffffffffffffffffff16815260200190815260200160002060008a73ffffffffffffffffffffffffffffffffffffffff1673ffffffffffffffffffffffffffffffffffffffff1681526020019081526020016000205461332f9092919063ffffffff16565b612d73565b6001905092915050565b3373ffffffffffffffffffffffffffffffffffffffff16600160009054906101000a900473ffffffffffffffffffffffffffffffffffffffff1673ffffffffffffffffffffffffffffffffffffffff1614612409576040517f08c379a00000000000000000000000000000000000000000000000000000000081526004018080602001828103825260238152602001806150196023913960400191505060405180910390fd5b6002544211612480576040517f08c379a000000000000000000000000000000000000000000000000000000000815260040180806020018281038252601f8152602001807f436f6e7472616374206973206c6f636b656420756e74696c203720646179730081525060200191505060405180910390fd5b600160009054906101000a900473ffffffffffffffffffffffffffffffffffffffff1673ffffffffffffffffffffffffffffffffffffffff1660008054906101000a900473ffffffffffffffffffffffffffffffffffffffff1673ffffffffffffffffffffffffffffffffffffffff167f8be0079c531659141344cd1fd0a4f28419497f9722a3daafe3b4186f6b6457e060405160405180910390a3600160009054906101000a900473ffffffffffffffffffffffffffffffffffffffff166000806101000a81548173ffffffffffffffffffffffffffffffffffffffff021916908373ffffffffffffffffffffffffffffffffffffffff160217905550565b600061259461258d612d6b565b8484612f6a565b6001905092915050565b6000600254905090565b6125b0612d6b565b73ffffffffffffffffffffffffffffffffffffffff1660008054906101000a900473ffffffffffffffffffffffffffffffffffffffff1673ffffffffffffffffffffffffffffffffffffffff1614612670576040517f08c379a00000000000000000000000000000000000000000000000000000000081526004018080602001828103825260208152602001807f4f776e61626c653a2063616c6c6572206973206e6f7420746865206f776e657281525060200191505060405180910390fd5b80601560016101000a81548160ff0219169083151502179055507f53726dfcaf90650aa7eb35524f4d3220f07413c8d6cb404cc8c18bf5591bc1598160405180821515815260200191505060405180910390a150565b6126ce612d6b565b73ffffffffffffffffffffffffffffffffffffffff1660008054906101000a900473ffffffffffffffffffffffffffffffffffffffff1673ffffffffffffffffffffffffffffffffffffffff161461278e576040517f08c379a00000000000000000000000000000000000000000000000000000000081526004018080602001828103825260208152602001807f4f776e61626c653a2063616c6c6572206973206e6f7420746865206f776e657281525060200191505060405180910390fd5b6127bc60646127ae83670de0b6b3a764000061359290919063ffffffff16565b61341a90919063ffffffff16565b60168190555050565b6127cd612d6b565b73ffffffffffffffffffffffffffffffffffffffff1660008054906101000a900473ffffffffffffffffffffffffffffffffffffffff1673ffffffffffffffffffffffffffffffffffffffff161461288d576040517f08c379a00000000000000000000000000000000000000000000000000000000081526004018080602001828103825260208152602001807f4f776e61626c653a2063616c6c6572206973206e6f7420746865206f776e657281525060200191505060405180910390fd5b60008054906101000a900473ffffffffffffffffffffffffffffffffffffffff16600160006101000a81548173ffffffffffffffffffffffffffffffffffffffff021916908373ffffffffffffffffffffffffffffffffffffffff16021790555060008060006101000a81548173ffffffffffffffffffffffffffffffffffffffff021916908373ffffffffffffffffffffffffffffffffffffffff160217905550804201600281905550600073ffffffffffffffffffffffffffffffffffffffff1660008054906101000a900473ffffffffffffffffffffffffffffffffffffffff1673ffffffffffffffffffffffffffffffffffffffff167f8be0079c531659141344cd1fd0a4f28419497f9722a3daafe3b4186f6b6457e060405160405180910390a350565b6000600560008473ffffffffffffffffffffffffffffffffffffffff1673ffffffffffffffffffffffffffffffffffffffff16815260200190815260200160002060008373ffffffffffffffffffffffffffffffffffffffff1673ffffffffffffffffffffffffffffffffffffffff16815260200190815260200160002054905092915050565b612a45612d6b565b73ffffffffffffffffffffffffffffffffffffffff1660008054906101000a900473ffffffffffffffffffffffffffffffffffffffff1673ffffffffffffffffffffffffffffffffffffffff1614612b05576040517f08c379a00000000000000000000000000000000000000000000000000000000081526004018080602001828103825260208152602001807f4f776e61626c653a2063616c6c6572206973206e6f7420746865206f776e657281525060200191505060405180910390fd5b6000600660008373ffffffffffffffffffffffffffffffffffffffff1673ffffffffffffffffffffffffffffffffffffffff16815260200190815260200160002060006101000a81548160ff02191690831515021790555050565b612b68612d6b565b73ffffffffffffffffffffffffffffffffffffffff1660008054906101000a900473ffffffffffffffffffffffffffffffffffffffff1673ffffffffffffffffffffffffffffffffffffffff1614612c28576040517f08c379a00000000000000000000000000000000000000000000000000000000081526004018080602001828103825260208152602001807f4f776e61626c653a2063616c6c6572206973206e6f7420746865206f776e657281525060200191505060405180910390fd5b600073ffffffffffffffffffffffffffffffffffffffff168173ffffffffffffffffffffffffffffffffffffffff161415612cae576040517f08c379a0000000000000000000000000000000000000000000000000000000008152600401808060200182810382526026815260200180614ec26026913960400191505060405180910390fd5b8073ffffffffffffffffffffffffffffffffffffffff1660008054906101000a900473ffffffffffffffffffffffffffffffffffffffff1673ffffffffffffffffffffffffffffffffffffffff167f8be0079c531659141344cd1fd0a4f28419497f9722a3daafe3b4186f6b6457e060405160405180910390a3806000806101000a81548173ffffffffffffffffffffffffffffffffffffffff021916908373ffffffffffffffffffffffffffffffffffffffff16021790555050565b600033905090565b600073ffffffffffffffffffffffffffffffffffffffff168373ffffffffffffffffffffffffffffffffffffffff161415612df9576040517f08c379a0000000000000000000000000000000000000000000000000000000008152600401808060200182810382526024815260200180614fc96024913960400191505060405180910390fd5b600073ffffffffffffffffffffffffffffffffffffffff168273ffffffffffffffffffffffffffffffffffffffff161415612e7f576040517f08c379a0000000000000000000000000000000000000000000000000000000008152600401808060200182810382526022815260200180614ee86022913960400191505060405180910390fd5b80600560008573ffffffffffffffffffffffffffffffffffffffff1673ffffffffffffffffffffffffffffffffffffffff16815260200190815260200160002060008473ffffffffffffffffffffffffffffffffffffffff1673ffffffffffffffffffffffffffffffffffffffff168152602001908152602001600020819055508173ffffffffffffffffffffffffffffffffffffffff168373ffffffffffffffffffffffffffffffffffffffff167f8c5be1e5ebec7d5bd14f71427d1e84f3dd0314c0f7b2291e5b200ac8c7c3b925836040518082815260200191505060405180910390a3505050565b600073ffffffffffffffffffffffffffffffffffffffff168373ffffffffffffffffffffffffffffffffffffffff161415612ff0576040517f08c379a0000000000000000000000000000000000000000000000000000000008152600401808060200182810382526025815260200180614fa46025913960400191505060405180910390fd5b600073ffffffffffffffffffffffffffffffffffffffff168273ffffffffffffffffffffffffffffffffffffffff161415613076576040517f08c379a0000000000000000000000000000000000000000000000000000000008152600401808060200182810382526023815260200180614e756023913960400191505060405180910390fd5b600081116130cf576040517f08c379a0000000000000000000000000000000000000000000000000000000008152600401808060200182810382526029815260200180614f7b6029913960400191505060405180910390fd5b6130d76120f9565b73ffffffffffffffffffffffffffffffffffffffff168373ffffffffffffffffffffffffffffffffffffffff161415801561314557506131156120f9565b73ffffffffffffffffffffffffffffffffffffffff168273ffffffffffffffffffffffffffffffffffffffff1614155b156131a6576016548111156131a5576040517f08c379a0000000000000000000000000000000000000000000000000000000008152600401808060200182810382526028815260200180614f0a6028913960400191505060405180910390fd5b5b60006131b130611e2c565b905060165481106131c25760165490505b600060175482101590508080156131e65750601560009054906101000a900460ff16155b801561323e57507f000000000000000000000000000000000000000000000000000000000000000073ffffffffffffffffffffffffffffffffffffffff168573ffffffffffffffffffffffffffffffffffffffff1614155b80156132565750601560019054906101000a900460ff165b1561326a57601754915061326982613618565b5b600060019050600660008773ffffffffffffffffffffffffffffffffffffffff1673ffffffffffffffffffffffffffffffffffffffff16815260200190815260200160002060009054906101000a900460ff16806133115750600660008673ffffffffffffffffffffffffffffffffffffffff1673ffffffffffffffffffffffffffffffffffffffff16815260200190815260200160002060009054906101000a900460ff165b1561331b57600090505b613327868686846136fa565b505050505050565b60008383111582906133dc576040517f08c379a00000000000000000000000000000000000000000000000000000000081526004018080602001828103825283818151815260200191508051906020019080838360005b838110156133a1578082015181840152602081019050613386565b50505050905090810190601f1680156133ce5780820380516001836020036101000a031916815260200191505b509250505060405180910390fd5b5060008385039050809150509392505050565b60008060006133fc613a0b565b91509150613413818361341a90919063ffffffff16565b9250505090565b600061345c83836040518060400160405280601a81526020017f536166654d6174683a206469766973696f6e206279207a65726f000000000000815250613cb4565b905092915050565b6000808284019050838110156134e2576040517f08c379a000000000000000000000000000000000000000000000000000000000815260040180806020018281038252601b8152602001807f536166654d6174683a206164646974696f6e206f766572666c6f77000000000081525060200191505060405180910390fd5b8091505092915050565b60008060008060008060008060006135038a613d7a565b92509250925060008060006135218d868661351c6133ef565b613dd4565b9250925092508282828888889b509b509b509b509b509b5050505050505091939550919395565b600061358a83836040518060400160405280601e81526020017f536166654d6174683a207375627472616374696f6e206f766572666c6f77000081525061332f565b905092915050565b6000808314156135a55760009050613612565b60008284029050828482816135b657fe5b041461360d576040517f08c379a0000000000000000000000000000000000000000000000000000000008152600401808060200182810382526021815260200180614f326021913960400191505060405180910390fd5b809150505b92915050565b6001601560006101000a81548160ff021916908315150217905550600061364960028361341a90919063ffffffff16565b90506000613660828461354890919063ffffffff16565b9050600047905061367083613e5d565b6000613685824761354890919063ffffffff16565b9050613691838261410b565b7f17bbfb9a6069321b6ded73bd96327c9e6b7212a5cd51ff219cd61370acafb56184828560405180848152602001838152602001828152602001935050505060405180910390a1505050506000601560006101000a81548160ff02191690831515021790555050565b806137085761370761425c565b5b600760008573ffffffffffffffffffffffffffffffffffffffff1673ffffffffffffffffffffffffffffffffffffffff16815260200190815260200160002060009054906101000a900460ff1680156137ab5750600760008473ffffffffffffffffffffffffffffffffffffffff1673ffffffffffffffffffffffffffffffffffffffff16815260200190815260200160002060009054906101000a900460ff16155b156137c0576137bb84848461429f565b6139f7565b600760008573ffffffffffffffffffffffffffffffffffffffff1673ffffffffffffffffffffffffffffffffffffffff16815260200190815260200160002060009054906101000a900460ff161580156138635750600760008473ffffffffffffffffffffffffffffffffffffffff1673ffffffffffffffffffffffffffffffffffffffff16815260200190815260200160002060009054906101000a900460ff165b15613878576138738484846144ff565b6139f6565b600760008573ffffffffffffffffffffffffffffffffffffffff1673ffffffffffffffffffffffffffffffffffffffff16815260200190815260200160002060009054906101000a900460ff1615801561391c5750600760008473ffffffffffffffffffffffffffffffffffffffff1673ffffffffffffffffffffffffffffffffffffffff16815260200190815260200160002060009054906101000a900460ff16155b156139315761392c84848461475f565b6139f5565b600760008573ffffffffffffffffffffffffffffffffffffffff1673ffffffffffffffffffffffffffffffffffffffff16815260200190815260200160002060009054906101000a900460ff1680156139d35750600760008473ffffffffffffffffffffffffffffffffffffffff1673ffffffffffffffffffffffffffffffffffffffff16815260200190815260200160002060009054906101000a900460ff165b156139e8576139e384848461492a565b6139f4565b6139f384848461475f565b5b5b5b5b80613a0557613a04614c1f565b5b50505050565b6000806000600c5490506000670de0b6b3a7640000905060005b600880549050811015613c6b57826003600060088481548110613a4457fe5b9060005260206000200160009054906101000a900473ffffffffffffffffffffffffffffffffffffffff1673ffffffffffffffffffffffffffffffffffffffff1673ffffffffffffffffffffffffffffffffffffffff168152602001908152602001600020541180613b2b5750816004600060088481548110613ac357fe5b9060005260206000200160009054906101000a900473ffffffffffffffffffffffffffffffffffffffff1673ffffffffffffffffffffffffffffffffffffffff1673ffffffffffffffffffffffffffffffffffffffff16815260200190815260200160002054115b15613b4857600c54670de0b6b3a764000094509450505050613cb0565b613bd16003600060088481548110613b5c57fe5b9060005260206000200160009054906101000a900473ffffffffffffffffffffffffffffffffffffffff1673ffffffffffffffffffffffffffffffffffffffff1673ffffffffffffffffffffffffffffffffffffffff168152602001908152602001600020548461354890919063ffffffff16565b9250613c5c6004600060088481548110613be757fe5b9060005260206000200160009054906101000a900473ffffffffffffffffffffffffffffffffffffffff1673ffffffffffffffffffffffffffffffffffffffff1673ffffffffffffffffffffffffffffffffffffffff168152602001908152602001600020548361354890919063ffffffff16565b91508080600101915050613a25565b50613c89670de0b6b3a7640000600c5461341a90919063ffffffff16565b821015613ca757600c54670de0b6b3a7640000935093505050613cb0565b81819350935050505b9091565b60008083118290613d60576040517f08c379a00000000000000000000000000000000000000000000000000000000081526004018080602001828103825283818151815260200191508051906020019080838360005b83811015613d25578082015181840152602081019050613d0a565b50505050905090810190601f168015613d525780820380516001836020036101000a031916815260200191505b509250505060405180910390fd5b506000838581613d6c57fe5b049050809150509392505050565b600080600080613d8985614c33565b90506000613d9686614c64565b90506000613dbf82613db1858a61354890919063ffffffff16565b61354890919063ffffffff16565b90508083839550955095505050509193909250565b600080600080613ded858961359290919063ffffffff16565b90506000613e04868961359290919063ffffffff16565b90506000613e1b878961359290919063ffffffff16565b90506000613e4482613e36858761354890919063ffffffff16565b61354890919063ffffffff16565b9050838184965096509650505050509450945094915050565b6060600267ffffffffffffffff81118015613e7757600080fd5b50604051908082528060200260200182016040528015613ea65781602001602082028036833780820191505090505b5090503081600081518110613eb757fe5b602002602001019073ffffffffffffffffffffffffffffffffffffffff16908173ffffffffffffffffffffffffffffffffffffffff16815250507f000000000000000000000000000000000000000000000000000000000000000073ffffffffffffffffffffffffffffffffffffffff1663ad5c46486040518163ffffffff1660e01b815260040160206040518083038186803b158015613f5757600080fd5b505afa158015613f6b573d6000803e3d6000fd5b505050506040513d6020811015613f8157600080fd5b810190808051906020019092919050505081600181518110613f9f57fe5b602002602001019073ffffffffffffffffffffffffffffffffffffffff16908173ffffffffffffffffffffffffffffffffffffffff1681525050614004307f000000000000000000000000000000000000000000000000000000000000000084612d73565b7f000000000000000000000000000000000000000000000000000000000000000073ffffffffffffffffffffffffffffffffffffffff1663791ac9478360008430426040518663ffffffff1660e01b815260040180868152602001858152602001806020018473ffffffffffffffffffffffffffffffffffffffff168152602001838152602001828103825285818151815260200191508051906020019060200280838360005b838110156140c65780820151818401526020810190506140ab565b505050509050019650505050505050600060405180830381600087803b1580156140ef57600080fd5b505af1158015614103573d6000803e3d6000fd5b505050505050565b614136307f000000000000000000000000000000000000000000000000000000000000000084612d73565b7f000000000000000000000000000000000000000000000000000000000000000073ffffffffffffffffffffffffffffffffffffffff1663f305d7198230856000806141806120f9565b426040518863ffffffff1660e01b8152600401808773ffffffffffffffffffffffffffffffffffffffff1681526020018681526020018581526020018481526020018373ffffffffffffffffffffffffffffffffffffffff16815260200182815260200196505050505050506060604051808303818588803b15801561420557600080fd5b505af1158015614219573d6000803e3d6000fd5b50505050506040513d606081101561423057600080fd5b810190808051906020019092919080519060200190929190805190602001909291905050505050505050565b600060115414801561427057506000601354145b1561427a5761429d565b601154601281905550601354601481905550600060118190555060006013819055505b565b6000806000806000806142b1876134ec565b95509550955095509550955061430f87600460008c73ffffffffffffffffffffffffffffffffffffffff1673ffffffffffffffffffffffffffffffffffffffff1681526020019081526020016000205461354890919063ffffffff16565b600460008b73ffffffffffffffffffffffffffffffffffffffff1673ffffffffffffffffffffffffffffffffffffffff168152602001908152602001600020819055506143a486600360008c73ffffffffffffffffffffffffffffffffffffffff1673ffffffffffffffffffffffffffffffffffffffff1681526020019081526020016000205461354890919063ffffffff16565b600360008b73ffffffffffffffffffffffffffffffffffffffff1673ffffffffffffffffffffffffffffffffffffffff1681526020019081526020016000208190555061443985600360008b73ffffffffffffffffffffffffffffffffffffffff1673ffffffffffffffffffffffffffffffffffffffff1681526020019081526020016000205461346490919063ffffffff16565b600360008a73ffffffffffffffffffffffffffffffffffffffff1673ffffffffffffffffffffffffffffffffffffffff1681526020019081526020016000208190555061448581614c95565b61448f8483614e3a565b8773ffffffffffffffffffffffffffffffffffffffff168973ffffffffffffffffffffffffffffffffffffffff167fddf252ad1be2c89b69c2b068fc378daa952ba7f163c4a11628f55a4df523b3ef856040518082815260200191505060405180910390a3505050505050505050565b600080600080600080614511876134ec565b95509550955095509550955061456f86600360008c73ffffffffffffffffffffffffffffffffffffffff1673ffffffffffffffffffffffffffffffffffffffff1681526020019081526020016000205461354890919063ffffffff16565b600360008b73ffffffffffffffffffffffffffffffffffffffff1673ffffffffffffffffffffffffffffffffffffffff1681526020019081526020016000208190555061460483600460008b73ffffffffffffffffffffffffffffffffffffffff1673ffffffffffffffffffffffffffffffffffffffff1681526020019081526020016000205461346490919063ffffffff16565b600460008a73ffffffffffffffffffffffffffffffffffffffff1673ffffffffffffffffffffffffffffffffffffffff1681526020019081526020016000208190555061469985600360008b73ffffffffffffffffffffffffffffffffffffffff1673ffffffffffffffffffffffffffffffffffffffff1681526020019081526020016000205461346490919063ffffffff16565b600360008a73ffffffffffffffffffffffffffffffffffffffff1673ffffffffffffffffffffffffffffffffffffffff168152602001908152602001600020819055506146e581614c95565b6146ef8483614e3a565b8773ffffffffffffffffffffffffffffffffffffffff168973ffffffffffffffffffffffffffffffffffffffff167fddf252ad1be2c89b69c2b068fc378daa952ba7f163c4a11628f55a4df523b3ef856040518082815260200191505060405180910390a3505050505050505050565b600080600080600080614771876134ec565b9550955095509550955095506147cf86600360008c73ffffffffffffffffffffffffffffffffffffffff1673ffffffffffffffffffffffffffffffffffffffff1681526020019081526020016000205461354890919063ffffffff16565b600360008b73ffffffffffffffffffffffffffffffffffffffff1673ffffffffffffffffffffffffffffffffffffffff1681526020019081526020016000208190555061486485600360008b73ffffffffffffffffffffffffffffffffffffffff1673ffffffffffffffffffffffffffffffffffffffff1681526020019081526020016000205461346490919063ffffffff16565b600360008a73ffffffffffffffffffffffffffffffffffffffff1673ffffffffffffffffffffffffffffffffffffffff168152602001908152602001600020819055506148b081614c95565b6148ba8483614e3a565b8773ffffffffffffffffffffffffffffffffffffffff168973ffffffffffffffffffffffffffffffffffffffff167fddf252ad1be2c89b69c2b068fc378daa952ba7f163c4a11628f55a4df523b3ef856040518082815260200191505060405180910390a3505050505050505050565b60008060008060008061493c876134ec565b95509550955095509550955061499a87600460008c73ffffffffffffffffffffffffffffffffffffffff1673ffffffffffffffffffffffffffffffffffffffff1681526020019081526020016000205461354890919063ffffffff16565b600460008b73ffffffffffffffffffffffffffffffffffffffff1673ffffffffffffffffffffffffffffffffffffffff16815260200190815260200160002081905550614a2f86600360008c73ffffffffffffffffffffffffffffffffffffffff1673ffffffffffffffffffffffffffffffffffffffff1681526020019081526020016000205461354890919063ffffffff16565b600360008b73ffffffffffffffffffffffffffffffffffffffff1673ffffffffffffffffffffffffffffffffffffffff16815260200190815260200160002081905550614ac483600460008b73ffffffffffffffffffffffffffffffffffffffff1673ffffffffffffffffffffffffffffffffffffffff1681526020019081526020016000205461346490919063ffffffff16565b600460008a73ffffffffffffffffffffffffffffffffffffffff1673ffffffffffffffffffffffffffffffffffffffff16815260200190815260200160002081905550614b5985600360008b73ffffffffffffffffffffffffffffffffffffffff1673ffffffffffffffffffffffffffffffffffffffff1681526020019081526020016000205461346490919063ffffffff16565b600360008a73ffffffffffffffffffffffffffffffffffffffff1673ffffffffffffffffffffffffffffffffffffffff16815260200190815260200160002081905550614ba581614c95565b614baf8483614e3a565b8773ffffffffffffffffffffffffffffffffffffffff168973ffffffffffffffffffffffffffffffffffffffff167fddf252ad1be2c89b69c2b068fc378daa952ba7f163c4a11628f55a4df523b3ef856040518082815260200191505060405180910390a3505050505050505050565b601254601181905550601454601381905550565b6000614c5d6064614c4f6011548561359290919063ffffffff16565b61341a90919063ffffffff16565b9050919050565b6000614c8e6064614c806013548561359290919063ffffffff16565b61341a90919063ffffffff16565b9050919050565b6000614c9f6133ef565b90506000614cb6828461359290919063ffffffff16565b9050614d0a81600360003073ffffffffffffffffffffffffffffffffffffffff1673ffffffffffffffffffffffffffffffffffffffff1681526020019081526020016000205461346490919063ffffffff16565b600360003073ffffffffffffffffffffffffffffffffffffffff1673ffffffffffffffffffffffffffffffffffffffff16815260200190815260200160002081905550600760003073ffffffffffffffffffffffffffffffffffffffff1673ffffffffffffffffffffffffffffffffffffffff16815260200190815260200160002060009054906101000a900460ff1615614e3557614df183600460003073ffffffffffffffffffffffffffffffffffffffff1673ffffffffffffffffffffffffffffffffffffffff1681526020019081526020016000205461346490919063ffffffff16565b600460003073ffffffffffffffffffffffffffffffffffffffff1673ffffffffffffffffffffffffffffffffffffffff168152602001908152602001600020819055505b505050565b614e4f82600c5461354890919063ffffffff16565b600c81905550614e6a81600d5461346490919063ffffffff16565b600d81905550505056fe45524332303a207472616e7366657220746f20746865207a65726f2061646472657373416d6f756e74206d757374206265206c657373207468616e20746f74616c207265666c656374696f6e734f776e61626c653a206e6577206f776e657220697320746865207a65726f206164647265737345524332303a20617070726f766520746f20746865207a65726f20616464726573735472616e7366657220616d6f756e74206578636565647320746865206d61785478416d6f756e742e536166654d6174683a206d756c7469706c69636174696f6e206f766572666c6f7745524332303a207472616e7366657220616d6f756e74206578636565647320616c6c6f77616e63655472616e7366657220616d6f756e74206d7573742062652067726561746572207468616e207a65726f45524332303a207472616e736665722066726f6d20746865207a65726f206164647265737345524332303a20617070726f76652066726f6d20746865207a65726f20616464726573734578636c75646564206164647265737365732063616e6e6f742063616c6c20746869732066756e6374696f6e596f7520646f6e27742068617665207065726d697373696f6e20746f20756e6c6f636b45524332303a2064656372656173656420616c6c6f77616e63652062656c6f77207a65726fa2646970667358221220096a1df7a61fbac8b554108bebc7c424bd7521bb106e757af37be648931abbee64736f6c634300060c0033",
					"opcodes": "PUSH1 0xC0 PUSH1 0x40 MSTORE PUSH20 0x8492CBD894686D7E98214541903C7BA6F94928D6 PUSH1 0x9 PUSH1 0x0 PUSH2 0x100 EXP DUP2 SLOAD DUP2 PUSH20 0xFFFFFFFFFFFFFFFFFFFFFFFFFFFFFFFFFFFFFFFF MUL NOT AND SWAP1 DUP4 PUSH20 0xFFFFFFFFFFFFFFFFFFFFFFFFFFFFFFFFFFFFFFFF AND MUL OR SWAP1 SSTORE POP PUSH20 0xA4ED7AA4EF5DEB0A63E97D9CB77445AE553FEB1D PUSH1 0xA PUSH1 0x0 PUSH2 0x100 EXP DUP2 SLOAD DUP2 PUSH20 0xFFFFFFFFFFFFFFFFFFFFFFFFFFFFFFFFFFFFFFFF MUL NOT AND SWAP1 DUP4 PUSH20 0xFFFFFFFFFFFFFFFFFFFFFFFFFFFFFFFFFFFFFFFF AND MUL OR SWAP1 SSTORE POP PUSH20 0xE061915592536656A92B9FD59E46B19EF920692F PUSH1 0xB PUSH1 0x0 PUSH2 0x100 EXP DUP2 SLOAD DUP2 PUSH20 0xFFFFFFFFFFFFFFFFFFFFFFFFFFFFFFFFFFFFFFFF MUL NOT AND SWAP1 DUP4 PUSH20 0xFFFFFFFFFFFFFFFFFFFFFFFFFFFFFFFFFFFFFFFF AND MUL OR SWAP1 SSTORE POP PUSH8 0xDE0B6B3A7640000 PUSH1 0x0 NOT DUP2 PUSH3 0x117 JUMPI INVALID JUMPDEST MOD PUSH1 0x0 NOT SUB PUSH1 0xC SSTORE PUSH1 0x40 MLOAD DUP1 PUSH1 0x40 ADD PUSH1 0x40 MSTORE DUP1 PUSH1 0xA DUP2 MSTORE PUSH1 0x20 ADD PUSH32 0x576F726C64205374657000000000000000000000000000000000000000000000 DUP2 MSTORE POP PUSH1 0xE SWAP1 DUP1 MLOAD SWAP1 PUSH1 0x20 ADD SWAP1 PUSH3 0x16C SWAP3 SWAP2 SWAP1 PUSH3 0xA65 JUMP JUMPDEST POP PUSH1 0x40 MLOAD DUP1 PUSH1 0x40 ADD PUSH1 0x40 MSTORE DUP1 PUSH1 0x3 DUP2 MSTORE PUSH1 0x20 ADD PUSH32 0x5753500000000000000000000000000000000000000000000000000000000000 DUP2 MSTORE POP PUSH1 0xF SWAP1 DUP1 MLOAD SWAP1 PUSH1 0x20 ADD SWAP1 PUSH3 0x1BA SWAP3 SWAP2 SWAP1 PUSH3 0xA65 JUMP JUMPDEST POP PUSH1 0x9 PUSH1 0x10 PUSH1 0x0 PUSH2 0x100 EXP DUP2 SLOAD DUP2 PUSH1 0xFF MUL NOT AND SWAP1 DUP4 PUSH1 0xFF AND MUL OR SWAP1 SSTORE POP PUSH1 0x2 PUSH1 0x11 SSTORE PUSH1 0x11 SLOAD PUSH1 0x12 SSTORE PUSH1 0x3 PUSH1 0x13 SSTORE PUSH1 0x13 SLOAD PUSH1 0x14 SSTORE PUSH1 0x1 PUSH1 0x15 PUSH1 0x1 PUSH2 0x100 EXP DUP2 SLOAD DUP2 PUSH1 0xFF MUL NOT AND SWAP1 DUP4 ISZERO ISZERO MUL OR SWAP1 SSTORE POP PUSH1 0x0 PUSH1 0x15 PUSH1 0x2 PUSH2 0x100 EXP DUP2 SLOAD DUP2 PUSH1 0xFF MUL NOT AND SWAP1 DUP4 ISZERO ISZERO MUL OR SWAP1 SSTORE POP PUSH6 0x2D79883D2000 PUSH1 0x16 SSTORE PUSH6 0x246139CA800 PUSH1 0x17 SSTORE CALLVALUE DUP1 ISZERO PUSH3 0x244 JUMPI PUSH1 0x0 DUP1 REVERT JUMPDEST POP PUSH1 0x40 MLOAD PUSH3 0x5BE9 CODESIZE SUB DUP1 PUSH3 0x5BE9 DUP4 CODECOPY DUP2 DUP2 ADD PUSH1 0x40 MSTORE PUSH1 0x20 DUP2 LT ISZERO PUSH3 0x26A JUMPI PUSH1 0x0 DUP1 REVERT JUMPDEST DUP2 ADD SWAP1 DUP1 DUP1 MLOAD SWAP1 PUSH1 0x20 ADD SWAP1 SWAP3 SWAP2 SWAP1 POP POP POP PUSH1 0x0 PUSH3 0x28D PUSH3 0x81A PUSH1 0x20 SHL PUSH1 0x20 SHR JUMP JUMPDEST SWAP1 POP DUP1 PUSH1 0x0 DUP1 PUSH2 0x100 EXP DUP2 SLOAD DUP2 PUSH20 0xFFFFFFFFFFFFFFFFFFFFFFFFFFFFFFFFFFFFFFFF MUL NOT AND SWAP1 DUP4 PUSH20 0xFFFFFFFFFFFFFFFFFFFFFFFFFFFFFFFFFFFFFFFF AND MUL OR SWAP1 SSTORE POP DUP1 PUSH20 0xFFFFFFFFFFFFFFFFFFFFFFFFFFFFFFFFFFFFFFFF AND PUSH1 0x0 PUSH20 0xFFFFFFFFFFFFFFFFFFFFFFFFFFFFFFFFFFFFFFFF AND PUSH32 0x8BE0079C531659141344CD1FD0A4F28419497F9722A3DAAFE3B4186F6B6457E0 PUSH1 0x40 MLOAD PUSH1 0x40 MLOAD DUP1 SWAP2 SUB SWAP1 LOG3 POP PUSH1 0xC SLOAD PUSH1 0x3 PUSH1 0x0 PUSH3 0x342 PUSH3 0x81A PUSH1 0x20 SHL PUSH1 0x20 SHR JUMP JUMPDEST PUSH20 0xFFFFFFFFFFFFFFFFFFFFFFFFFFFFFFFFFFFFFFFF AND PUSH20 0xFFFFFFFFFFFFFFFFFFFFFFFFFFFFFFFFFFFFFFFF AND DUP2 MSTORE PUSH1 0x20 ADD SWAP1 DUP2 MSTORE PUSH1 0x20 ADD PUSH1 0x0 KECCAK256 DUP2 SWAP1 SSTORE POP PUSH1 0x0 PUSH20 0x9AC64CC6E4415144C455BD8E4837FEA55603E5C3 SWAP1 POP DUP1 PUSH20 0xFFFFFFFFFFFFFFFFFFFFFFFFFFFFFFFFFFFFFFFF AND PUSH4 0xC45A0155 PUSH1 0x40 MLOAD DUP2 PUSH4 0xFFFFFFFF AND PUSH1 0xE0 SHL DUP2 MSTORE PUSH1 0x4 ADD PUSH1 0x20 PUSH1 0x40 MLOAD DUP1 DUP4 SUB DUP2 DUP7 DUP1 EXTCODESIZE ISZERO DUP1 ISZERO PUSH3 0x3E0 JUMPI PUSH1 0x0 DUP1 REVERT JUMPDEST POP GAS STATICCALL ISZERO DUP1 ISZERO PUSH3 0x3F5 JUMPI RETURNDATASIZE PUSH1 0x0 DUP1 RETURNDATACOPY RETURNDATASIZE PUSH1 0x0 REVERT JUMPDEST POP POP POP POP PUSH1 0x40 MLOAD RETURNDATASIZE PUSH1 0x20 DUP2 LT ISZERO PUSH3 0x40C JUMPI PUSH1 0x0 DUP1 REVERT JUMPDEST DUP2 ADD SWAP1 DUP1 DUP1 MLOAD SWAP1 PUSH1 0x20 ADD SWAP1 SWAP3 SWAP2 SWAP1 POP POP POP PUSH20 0xFFFFFFFFFFFFFFFFFFFFFFFFFFFFFFFFFFFFFFFF AND PUSH4 0xC9C65396 ADDRESS DUP4 PUSH20 0xFFFFFFFFFFFFFFFFFFFFFFFFFFFFFFFFFFFFFFFF AND PUSH4 0xAD5C4648 PUSH1 0x40 MLOAD DUP2 PUSH4 0xFFFFFFFF AND PUSH1 0xE0 SHL DUP2 MSTORE PUSH1 0x4 ADD PUSH1 0x20 PUSH1 0x40 MLOAD DUP1 DUP4 SUB DUP2 DUP7 DUP1 EXTCODESIZE ISZERO DUP1 ISZERO PUSH3 0x480 JUMPI PUSH1 0x0 DUP1 REVERT JUMPDEST POP GAS STATICCALL ISZERO DUP1 ISZERO PUSH3 0x495 JUMPI RETURNDATASIZE PUSH1 0x0 DUP1 RETURNDATACOPY RETURNDATASIZE PUSH1 0x0 REVERT JUMPDEST POP POP POP POP PUSH1 0x40 MLOAD RETURNDATASIZE PUSH1 0x20 DUP2 LT ISZERO PUSH3 0x4AC JUMPI PUSH1 0x0 DUP1 REVERT JUMPDEST DUP2 ADD SWAP1 DUP1 DUP1 MLOAD SWAP1 PUSH1 0x20 ADD SWAP1 SWAP3 SWAP2 SWAP1 POP POP POP PUSH1 0x40 MLOAD DUP4 PUSH4 0xFFFFFFFF AND PUSH1 0xE0 SHL DUP2 MSTORE PUSH1 0x4 ADD DUP1 DUP4 PUSH20 0xFFFFFFFFFFFFFFFFFFFFFFFFFFFFFFFFFFFFFFFF AND DUP2 MSTORE PUSH1 0x20 ADD DUP3 PUSH20 0xFFFFFFFFFFFFFFFFFFFFFFFFFFFFFFFFFFFFFFFF AND DUP2 MSTORE PUSH1 0x20 ADD SWAP3 POP POP POP PUSH1 0x20 PUSH1 0x40 MLOAD DUP1 DUP4 SUB DUP2 PUSH1 0x0 DUP8 DUP1 EXTCODESIZE ISZERO DUP1 ISZERO PUSH3 0x527 JUMPI PUSH1 0x0 DUP1 REVERT JUMPDEST POP GAS CALL ISZERO DUP1 ISZERO PUSH3 0x53C JUMPI RETURNDATASIZE PUSH1 0x0 DUP1 RETURNDATACOPY RETURNDATASIZE PUSH1 0x0 REVERT JUMPDEST POP POP POP POP PUSH1 0x40 MLOAD RETURNDATASIZE PUSH1 0x20 DUP2 LT ISZERO PUSH3 0x553 JUMPI PUSH1 0x0 DUP1 REVERT JUMPDEST DUP2 ADD SWAP1 DUP1 DUP1 MLOAD SWAP1 PUSH1 0x20 ADD SWAP1 SWAP3 SWAP2 SWAP1 POP POP POP PUSH20 0xFFFFFFFFFFFFFFFFFFFFFFFFFFFFFFFFFFFFFFFF AND PUSH1 0xA0 DUP2 PUSH20 0xFFFFFFFFFFFFFFFFFFFFFFFFFFFFFFFFFFFFFFFF AND PUSH1 0x60 SHL DUP2 MSTORE POP POP DUP1 PUSH20 0xFFFFFFFFFFFFFFFFFFFFFFFFFFFFFFFFFFFFFFFF AND PUSH1 0x80 DUP2 PUSH20 0xFFFFFFFFFFFFFFFFFFFFFFFFFFFFFFFFFFFFFFFF AND PUSH1 0x60 SHL DUP2 MSTORE POP POP PUSH1 0x1 PUSH1 0x6 PUSH1 0x0 PUSH3 0x5E7 PUSH3 0x822 PUSH1 0x20 SHL PUSH1 0x20 SHR JUMP JUMPDEST PUSH20 0xFFFFFFFFFFFFFFFFFFFFFFFFFFFFFFFFFFFFFFFF AND PUSH20 0xFFFFFFFFFFFFFFFFFFFFFFFFFFFFFFFFFFFFFFFF AND DUP2 MSTORE PUSH1 0x20 ADD SWAP1 DUP2 MSTORE PUSH1 0x20 ADD PUSH1 0x0 KECCAK256 PUSH1 0x0 PUSH2 0x100 EXP DUP2 SLOAD DUP2 PUSH1 0xFF MUL NOT AND SWAP1 DUP4 ISZERO ISZERO MUL OR SWAP1 SSTORE POP PUSH1 0x1 PUSH1 0x6 PUSH1 0x0 ADDRESS PUSH20 0xFFFFFFFFFFFFFFFFFFFFFFFFFFFFFFFFFFFFFFFF AND PUSH20 0xFFFFFFFFFFFFFFFFFFFFFFFFFFFFFFFFFFFFFFFF AND DUP2 MSTORE PUSH1 0x20 ADD SWAP1 DUP2 MSTORE PUSH1 0x20 ADD PUSH1 0x0 KECCAK256 PUSH1 0x0 PUSH2 0x100 EXP DUP2 SLOAD DUP2 PUSH1 0xFF MUL NOT AND SWAP1 DUP4 ISZERO ISZERO MUL OR SWAP1 SSTORE POP PUSH1 0x1 PUSH1 0x6 PUSH1 0x0 PUSH1 0x9 PUSH1 0x0 SWAP1 SLOAD SWAP1 PUSH2 0x100 EXP SWAP1 DIV PUSH20 0xFFFFFFFFFFFFFFFFFFFFFFFFFFFFFFFFFFFFFFFF AND PUSH20 0xFFFFFFFFFFFFFFFFFFFFFFFFFFFFFFFFFFFFFFFF AND PUSH20 0xFFFFFFFFFFFFFFFFFFFFFFFFFFFFFFFFFFFFFFFF AND DUP2 MSTORE PUSH1 0x20 ADD SWAP1 DUP2 MSTORE PUSH1 0x20 ADD PUSH1 0x0 KECCAK256 PUSH1 0x0 PUSH2 0x100 EXP DUP2 SLOAD DUP2 PUSH1 0xFF MUL NOT AND SWAP1 DUP4 ISZERO ISZERO MUL OR SWAP1 SSTORE POP PUSH1 0x1 PUSH1 0x6 PUSH1 0x0 PUSH1 0xA PUSH1 0x0 SWAP1 SLOAD SWAP1 PUSH2 0x100 EXP SWAP1 DIV PUSH20 0xFFFFFFFFFFFFFFFFFFFFFFFFFFFFFFFFFFFFFFFF AND PUSH20 0xFFFFFFFFFFFFFFFFFFFFFFFFFFFFFFFFFFFFFFFF AND PUSH20 0xFFFFFFFFFFFFFFFFFFFFFFFFFFFFFFFFFFFFFFFF AND DUP2 MSTORE PUSH1 0x20 ADD SWAP1 DUP2 MSTORE PUSH1 0x20 ADD PUSH1 0x0 KECCAK256 PUSH1 0x0 PUSH2 0x100 EXP DUP2 SLOAD DUP2 PUSH1 0xFF MUL NOT AND SWAP1 DUP4 ISZERO ISZERO MUL OR SWAP1 SSTORE POP PUSH3 0x795 DUP3 PUSH3 0x84B PUSH1 0x20 SHL PUSH1 0x20 SHR JUMP JUMPDEST PUSH3 0x7A5 PUSH3 0x81A PUSH1 0x20 SHL PUSH1 0x20 SHR JUMP JUMPDEST PUSH20 0xFFFFFFFFFFFFFFFFFFFFFFFFFFFFFFFFFFFFFFFF AND PUSH1 0x0 PUSH20 0xFFFFFFFFFFFFFFFFFFFFFFFFFFFFFFFFFFFFFFFF AND PUSH32 0xDDF252AD1BE2C89B69C2B068FC378DAA952BA7F163C4A11628F55A4DF523B3EF PUSH8 0xDE0B6B3A7640000 PUSH1 0x40 MLOAD DUP1 DUP3 DUP2 MSTORE PUSH1 0x20 ADD SWAP2 POP POP PUSH1 0x40 MLOAD DUP1 SWAP2 SUB SWAP1 LOG3 POP POP PUSH3 0xB0B JUMP JUMPDEST PUSH1 0x0 CALLER SWAP1 POP SWAP1 JUMP JUMPDEST PUSH1 0x0 DUP1 PUSH1 0x0 SWAP1 SLOAD SWAP1 PUSH2 0x100 EXP SWAP1 DIV PUSH20 0xFFFFFFFFFFFFFFFFFFFFFFFFFFFFFFFFFFFFFFFF AND SWAP1 POP SWAP1 JUMP JUMPDEST PUSH3 0x85B PUSH3 0x81A PUSH1 0x20 SHL PUSH1 0x20 SHR JUMP JUMPDEST PUSH20 0xFFFFFFFFFFFFFFFFFFFFFFFFFFFFFFFFFFFFFFFF AND PUSH1 0x0 DUP1 SLOAD SWAP1 PUSH2 0x100 EXP SWAP1 DIV PUSH20 0xFFFFFFFFFFFFFFFFFFFFFFFFFFFFFFFFFFFFFFFF AND PUSH20 0xFFFFFFFFFFFFFFFFFFFFFFFFFFFFFFFFFFFFFFFF AND EQ PUSH3 0x91C JUMPI PUSH1 0x40 MLOAD PUSH32 0x8C379A000000000000000000000000000000000000000000000000000000000 DUP2 MSTORE PUSH1 0x4 ADD DUP1 DUP1 PUSH1 0x20 ADD DUP3 DUP2 SUB DUP3 MSTORE PUSH1 0x20 DUP2 MSTORE PUSH1 0x20 ADD DUP1 PUSH32 0x4F776E61626C653A2063616C6C6572206973206E6F7420746865206F776E6572 DUP2 MSTORE POP PUSH1 0x20 ADD SWAP2 POP POP PUSH1 0x40 MLOAD DUP1 SWAP2 SUB SWAP1 REVERT JUMPDEST PUSH1 0x0 PUSH20 0x9AC64CC6E4415144C455BD8E4837FEA55603E5C3 SWAP1 POP DUP1 PUSH20 0xFFFFFFFFFFFFFFFFFFFFFFFFFFFFFFFFFFFFFFFF AND PUSH4 0xF305D719 CALLVALUE ADDRESS DUP6 PUSH1 0x0 DUP1 PUSH3 0x967 PUSH3 0x822 PUSH1 0x20 SHL PUSH1 0x20 SHR JUMP JUMPDEST PUSH2 0x168 TIMESTAMP ADD PUSH1 0x40 MLOAD DUP9 PUSH4 0xFFFFFFFF AND PUSH1 0xE0 SHL DUP2 MSTORE PUSH1 0x4 ADD DUP1 DUP8 PUSH20 0xFFFFFFFFFFFFFFFFFFFFFFFFFFFFFFFFFFFFFFFF AND DUP2 MSTORE PUSH1 0x20 ADD DUP7 DUP2 MSTORE PUSH1 0x20 ADD DUP6 DUP2 MSTORE PUSH1 0x20 ADD DUP5 DUP2 MSTORE PUSH1 0x20 ADD DUP4 PUSH20 0xFFFFFFFFFFFFFFFFFFFFFFFFFFFFFFFFFFFFFFFF AND DUP2 MSTORE PUSH1 0x20 ADD DUP3 DUP2 MSTORE PUSH1 0x20 ADD SWAP7 POP POP POP POP POP POP POP PUSH1 0x60 PUSH1 0x40 MLOAD DUP1 DUP4 SUB DUP2 DUP6 DUP9 DUP1 EXTCODESIZE ISZERO DUP1 ISZERO PUSH3 0x9F1 JUMPI PUSH1 0x0 DUP1 REVERT JUMPDEST POP GAS CALL ISZERO DUP1 ISZERO PUSH3 0xA06 JUMPI RETURNDATASIZE PUSH1 0x0 DUP1 RETURNDATACOPY RETURNDATASIZE PUSH1 0x0 REVERT JUMPDEST POP POP POP POP POP PUSH1 0x40 MLOAD RETURNDATASIZE PUSH1 0x60 DUP2 LT ISZERO PUSH3 0xA1E JUMPI PUSH1 0x0 DUP1 REVERT JUMPDEST DUP2 ADD SWAP1 DUP1 DUP1 MLOAD SWAP1 PUSH1 0x20 ADD SWAP1 SWAP3 SWAP2 SWAP1 DUP1 MLOAD SWAP1 PUSH1 0x20 ADD SWAP1 SWAP3 SWAP2 SWAP1 DUP1 MLOAD SWAP1 PUSH1 0x20 ADD SWAP1 SWAP3 SWAP2 SWAP1 POP POP POP POP POP POP PUSH1 0x1 PUSH1 0x15 PUSH1 0x2 PUSH2 0x100 EXP DUP2 SLOAD DUP2 PUSH1 0xFF MUL NOT AND SWAP1 DUP4 ISZERO ISZERO MUL OR SWAP1 SSTORE POP POP POP JUMP JUMPDEST DUP3 DUP1 SLOAD PUSH1 0x1 DUP2 PUSH1 0x1 AND ISZERO PUSH2 0x100 MUL SUB AND PUSH1 0x2 SWAP1 DIV SWAP1 PUSH1 0x0 MSTORE PUSH1 0x20 PUSH1 0x0 KECCAK256 SWAP1 PUSH1 0x1F ADD PUSH1 0x20 SWAP1 DIV DUP2 ADD SWAP3 DUP3 PUSH1 0x1F LT PUSH3 0xAA8 JUMPI DUP1 MLOAD PUSH1 0xFF NOT AND DUP4 DUP1 ADD OR DUP6 SSTORE PUSH3 0xAD9 JUMP JUMPDEST DUP3 DUP1 ADD PUSH1 0x1 ADD DUP6 SSTORE DUP3 ISZERO PUSH3 0xAD9 JUMPI SWAP2 DUP3 ADD JUMPDEST DUP3 DUP2 GT ISZERO PUSH3 0xAD8 JUMPI DUP3 MLOAD DUP3 SSTORE SWAP2 PUSH1 0x20 ADD SWAP2 SWAP1 PUSH1 0x1 ADD SWAP1 PUSH3 0xABB JUMP JUMPDEST JUMPDEST POP SWAP1 POP PUSH3 0xAE8 SWAP2 SWAP1 PUSH3 0xAEC JUMP JUMPDEST POP SWAP1 JUMP JUMPDEST JUMPDEST DUP1 DUP3 GT ISZERO PUSH3 0xB07 JUMPI PUSH1 0x0 DUP2 PUSH1 0x0 SWAP1 SSTORE POP PUSH1 0x1 ADD PUSH3 0xAED JUMP JUMPDEST POP SWAP1 JUMP JUMPDEST PUSH1 0x80 MLOAD PUSH1 0x60 SHR PUSH1 0xA0 MLOAD PUSH1 0x60 SHR PUSH2 0x5096 PUSH3 0xB53 PUSH1 0x0 CODECOPY DUP1 PUSH2 0x1A81 MSTORE DUP1 PUSH2 0x31EF MSTORE POP DUP1 PUSH2 0xF1F MSTORE DUP1 PUSH2 0x3EF3 MSTORE DUP1 PUSH2 0x3FDF MSTORE DUP1 PUSH2 0x4006 MSTORE DUP1 PUSH2 0x4111 MSTORE DUP1 PUSH2 0x4138 MSTORE POP PUSH2 0x5096 PUSH1 0x0 RETURN INVALID PUSH1 0x80 PUSH1 0x40 MSTORE PUSH1 0x4 CALLDATASIZE LT PUSH2 0x229 JUMPI PUSH1 0x0 CALLDATALOAD PUSH1 0xE0 SHR DUP1 PUSH4 0x5342ACB4 GT PUSH2 0x123 JUMPI DUP1 PUSH4 0xA457C2D7 GT PUSH2 0xAB JUMPI DUP1 PUSH4 0xD543DBEB GT PUSH2 0x6F JUMPI DUP1 PUSH4 0xD543DBEB EQ PUSH2 0xBE4 JUMPI DUP1 PUSH4 0xDD467064 EQ PUSH2 0xC1F JUMPI DUP1 PUSH4 0xDD62ED3E EQ PUSH2 0xC5A JUMPI DUP1 PUSH4 0xEA2F0B37 EQ PUSH2 0xCDF JUMPI DUP1 PUSH4 0xF2FDE38B EQ PUSH2 0xD30 JUMPI PUSH2 0x230 JUMP JUMPDEST DUP1 PUSH4 0xA457C2D7 EQ PUSH2 0xA83 JUMPI DUP1 PUSH4 0xA69DF4B5 EQ PUSH2 0xAF4 JUMPI DUP1 PUSH4 0xA9059CBB EQ PUSH2 0xB0B JUMPI DUP1 PUSH4 0xB6C52324 EQ PUSH2 0xB7C JUMPI DUP1 PUSH4 0xC49B9A80 EQ PUSH2 0xBA7 JUMPI PUSH2 0x230 JUMP JUMPDEST DUP1 PUSH4 0x7D1DB4A5 GT PUSH2 0xF2 JUMPI DUP1 PUSH4 0x7D1DB4A5 EQ PUSH2 0x8E5 JUMPI DUP1 PUSH4 0x88F82020 EQ PUSH2 0x910 JUMPI DUP1 PUSH4 0x8DA5CB5B EQ PUSH2 0x977 JUMPI DUP1 PUSH4 0x8EE88C53 EQ PUSH2 0x9B8 JUMPI DUP1 PUSH4 0x95D89B41 EQ PUSH2 0x9F3 JUMPI PUSH2 0x230 JUMP JUMPDEST DUP1 PUSH4 0x5342ACB4 EQ PUSH2 0x7D7 JUMPI DUP1 PUSH4 0x6BC87C3A EQ PUSH2 0x83E JUMPI DUP1 PUSH4 0x70A08231 EQ PUSH2 0x869 JUMPI DUP1 PUSH4 0x715018A6 EQ PUSH2 0x8CE JUMPI PUSH2 0x230 JUMP JUMPDEST DUP1 PUSH4 0x3685D419 GT PUSH2 0x1B1 JUMPI DUP1 PUSH4 0x437823EC GT PUSH2 0x175 JUMPI DUP1 PUSH4 0x437823EC EQ PUSH2 0x66C JUMPI DUP1 PUSH4 0x4549B039 EQ PUSH2 0x6BD JUMPI DUP1 PUSH4 0x49BD5A5E EQ PUSH2 0x718 JUMPI DUP1 PUSH4 0x4A74BB02 EQ PUSH2 0x759 JUMPI DUP1 PUSH4 0x52390C02 EQ PUSH2 0x786 JUMPI PUSH2 0x230 JUMP JUMPDEST DUP1 PUSH4 0x3685D419 EQ PUSH2 0x516 JUMPI DUP1 PUSH4 0x39509351 EQ PUSH2 0x567 JUMPI DUP1 PUSH4 0x3B124FE7 EQ PUSH2 0x5D8 JUMPI DUP1 PUSH4 0x3BD5D173 EQ PUSH2 0x603 JUMPI DUP1 PUSH4 0x41A22CC2 EQ PUSH2 0x63E JUMPI PUSH2 0x230 JUMP JUMPDEST DUP1 PUSH4 0x1694505E GT PUSH2 0x1F8 JUMPI DUP1 PUSH4 0x1694505E EQ PUSH2 0x39C JUMPI DUP1 PUSH4 0x18160DDD EQ PUSH2 0x3DD JUMPI DUP1 PUSH4 0x23B872DD EQ PUSH2 0x408 JUMPI DUP1 PUSH4 0x2D838119 EQ PUSH2 0x499 JUMPI DUP1 PUSH4 0x313CE567 EQ PUSH2 0x4E8 JUMPI PUSH2 0x230 JUMP JUMPDEST DUP1 PUSH4 0x61C82D0 EQ PUSH2 0x235 JUMPI DUP1 PUSH4 0x6FDDE03 EQ PUSH2 0x270 JUMPI DUP1 PUSH4 0x95EA7B3 EQ PUSH2 0x300 JUMPI DUP1 PUSH4 0x13114A9D EQ PUSH2 0x371 JUMPI PUSH2 0x230 JUMP JUMPDEST CALLDATASIZE PUSH2 0x230 JUMPI STOP JUMPDEST PUSH1 0x0 DUP1 REVERT JUMPDEST CALLVALUE DUP1 ISZERO PUSH2 0x241 JUMPI PUSH1 0x0 DUP1 REVERT JUMPDEST POP PUSH2 0x26E PUSH1 0x4 DUP1 CALLDATASIZE SUB PUSH1 0x20 DUP2 LT ISZERO PUSH2 0x258 JUMPI PUSH1 0x0 DUP1 REVERT JUMPDEST DUP2 ADD SWAP1 DUP1 DUP1 CALLDATALOAD SWAP1 PUSH1 0x20 ADD SWAP1 SWAP3 SWAP2 SWAP1 POP POP POP PUSH2 0xD81 JUMP JUMPDEST STOP JUMPDEST CALLVALUE DUP1 ISZERO PUSH2 0x27C JUMPI PUSH1 0x0 DUP1 REVERT JUMPDEST POP PUSH2 0x285 PUSH2 0xE53 JUMP JUMPDEST PUSH1 0x40 MLOAD DUP1 DUP1 PUSH1 0x20 ADD DUP3 DUP2 SUB DUP3 MSTORE DUP4 DUP2 DUP2 MLOAD DUP2 MSTORE PUSH1 0x20 ADD SWAP2 POP DUP1 MLOAD SWAP1 PUSH1 0x20 ADD SWAP1 DUP1 DUP4 DUP4 PUSH1 0x0 JUMPDEST DUP4 DUP2 LT ISZERO PUSH2 0x2C5 JUMPI DUP1 DUP3 ADD MLOAD DUP2 DUP5 ADD MSTORE PUSH1 0x20 DUP2 ADD SWAP1 POP PUSH2 0x2AA JUMP JUMPDEST POP POP POP POP SWAP1 POP SWAP1 DUP2 ADD SWAP1 PUSH1 0x1F AND DUP1 ISZERO PUSH2 0x2F2 JUMPI DUP1 DUP3 SUB DUP1 MLOAD PUSH1 0x1 DUP4 PUSH1 0x20 SUB PUSH2 0x100 EXP SUB NOT AND DUP2 MSTORE PUSH1 0x20 ADD SWAP2 POP JUMPDEST POP SWAP3 POP POP POP PUSH1 0x40 MLOAD DUP1 SWAP2 SUB SWAP1 RETURN JUMPDEST CALLVALUE DUP1 ISZERO PUSH2 0x30C JUMPI PUSH1 0x0 DUP1 REVERT JUMPDEST POP PUSH2 0x359 PUSH1 0x4 DUP1 CALLDATASIZE SUB PUSH1 0x40 DUP2 LT ISZERO PUSH2 0x323 JUMPI PUSH1 0x0 DUP1 REVERT JUMPDEST DUP2 ADD SWAP1 DUP1 DUP1 CALLDATALOAD PUSH20 0xFFFFFFFFFFFFFFFFFFFFFFFFFFFFFFFFFFFFFFFF AND SWAP1 PUSH1 0x20 ADD SWAP1 SWAP3 SWAP2 SWAP1 DUP1 CALLDATALOAD SWAP1 PUSH1 0x20 ADD SWAP1 SWAP3 SWAP2 SWAP1 POP POP POP PUSH2 0xEF5 JUMP JUMPDEST PUSH1 0x40 MLOAD DUP1 DUP3 ISZERO ISZERO DUP2 MSTORE PUSH1 0x20 ADD SWAP2 POP POP PUSH1 0x40 MLOAD DUP1 SWAP2 SUB SWAP1 RETURN JUMPDEST CALLVALUE DUP1 ISZERO PUSH2 0x37D JUMPI PUSH1 0x0 DUP1 REVERT JUMPDEST POP PUSH2 0x386 PUSH2 0xF13 JUMP JUMPDEST PUSH1 0x40 MLOAD DUP1 DUP3 DUP2 MSTORE PUSH1 0x20 ADD SWAP2 POP POP PUSH1 0x40 MLOAD DUP1 SWAP2 SUB SWAP1 RETURN JUMPDEST CALLVALUE DUP1 ISZERO PUSH2 0x3A8 JUMPI PUSH1 0x0 DUP1 REVERT JUMPDEST POP PUSH2 0x3B1 PUSH2 0xF1D JUMP JUMPDEST PUSH1 0x40 MLOAD DUP1 DUP3 PUSH20 0xFFFFFFFFFFFFFFFFFFFFFFFFFFFFFFFFFFFFFFFF AND DUP2 MSTORE PUSH1 0x20 ADD SWAP2 POP POP PUSH1 0x40 MLOAD DUP1 SWAP2 SUB SWAP1 RETURN JUMPDEST CALLVALUE DUP1 ISZERO PUSH2 0x3E9 JUMPI PUSH1 0x0 DUP1 REVERT JUMPDEST POP PUSH2 0x3F2 PUSH2 0xF41 JUMP JUMPDEST PUSH1 0x40 MLOAD DUP1 DUP3 DUP2 MSTORE PUSH1 0x20 ADD SWAP2 POP POP PUSH1 0x40 MLOAD DUP1 SWAP2 SUB SWAP1 RETURN JUMPDEST CALLVALUE DUP1 ISZERO PUSH2 0x414 JUMPI PUSH1 0x0 DUP1 REVERT JUMPDEST POP PUSH2 0x481 PUSH1 0x4 DUP1 CALLDATASIZE SUB PUSH1 0x60 DUP2 LT ISZERO PUSH2 0x42B JUMPI PUSH1 0x0 DUP1 REVERT JUMPDEST DUP2 ADD SWAP1 DUP1 DUP1 CALLDATALOAD PUSH20 0xFFFFFFFFFFFFFFFFFFFFFFFFFFFFFFFFFFFFFFFF AND SWAP1 PUSH1 0x20 ADD SWAP1 SWAP3 SWAP2 SWAP1 DUP1 CALLDATALOAD PUSH20 0xFFFFFFFFFFFFFFFFFFFFFFFFFFFFFFFFFFFFFFFF AND SWAP1 PUSH1 0x20 ADD SWAP1 SWAP3 SWAP2 SWAP1 DUP1 CALLDATALOAD SWAP1 PUSH1 0x20 ADD SWAP1 SWAP3 SWAP2 SWAP1 POP POP POP PUSH2 0xF51 JUMP JUMPDEST PUSH1 0x40 MLOAD DUP1 DUP3 ISZERO ISZERO DUP2 MSTORE PUSH1 0x20 ADD SWAP2 POP POP PUSH1 0x40 MLOAD DUP1 SWAP2 SUB SWAP1 RETURN JUMPDEST CALLVALUE DUP1 ISZERO PUSH2 0x4A5 JUMPI PUSH1 0x0 DUP1 REVERT JUMPDEST POP PUSH2 0x4D2 PUSH1 0x4 DUP1 CALLDATASIZE SUB PUSH1 0x20 DUP2 LT ISZERO PUSH2 0x4BC JUMPI PUSH1 0x0 DUP1 REVERT JUMPDEST DUP2 ADD SWAP1 DUP1 DUP1 CALLDATALOAD SWAP1 PUSH1 0x20 ADD SWAP1 SWAP3 SWAP2 SWAP1 POP POP POP PUSH2 0x102A JUMP JUMPDEST PUSH1 0x40 MLOAD DUP1 DUP3 DUP2 MSTORE PUSH1 0x20 ADD SWAP2 POP POP PUSH1 0x40 MLOAD DUP1 SWAP2 SUB SWAP1 RETURN JUMPDEST CALLVALUE DUP1 ISZERO PUSH2 0x4F4 JUMPI PUSH1 0x0 DUP1 REVERT JUMPDEST POP PUSH2 0x4FD PUSH2 0x10AE JUMP JUMPDEST PUSH1 0x40 MLOAD DUP1 DUP3 PUSH1 0xFF AND DUP2 MSTORE PUSH1 0x20 ADD SWAP2 POP POP PUSH1 0x40 MLOAD DUP1 SWAP2 SUB SWAP1 RETURN JUMPDEST CALLVALUE DUP1 ISZERO PUSH2 0x522 JUMPI PUSH1 0x0 DUP1 REVERT JUMPDEST POP PUSH2 0x565 PUSH1 0x4 DUP1 CALLDATASIZE SUB PUSH1 0x20 DUP2 LT ISZERO PUSH2 0x539 JUMPI PUSH1 0x0 DUP1 REVERT JUMPDEST DUP2 ADD SWAP1 DUP1 DUP1 CALLDATALOAD PUSH20 0xFFFFFFFFFFFFFFFFFFFFFFFFFFFFFFFFFFFFFFFF AND SWAP1 PUSH1 0x20 ADD SWAP1 SWAP3 SWAP2 SWAP1 POP POP POP PUSH2 0x10C5 JUMP JUMPDEST STOP JUMPDEST CALLVALUE DUP1 ISZERO PUSH2 0x573 JUMPI PUSH1 0x0 DUP1 REVERT JUMPDEST POP PUSH2 0x5C0 PUSH1 0x4 DUP1 CALLDATASIZE SUB PUSH1 0x40 DUP2 LT ISZERO PUSH2 0x58A JUMPI PUSH1 0x0 DUP1 REVERT JUMPDEST DUP2 ADD SWAP1 DUP1 DUP1 CALLDATALOAD PUSH20 0xFFFFFFFFFFFFFFFFFFFFFFFFFFFFFFFFFFFFFFFF AND SWAP1 PUSH1 0x20 ADD SWAP1 SWAP3 SWAP2 SWAP1 DUP1 CALLDATALOAD SWAP1 PUSH1 0x20 ADD SWAP1 SWAP3 SWAP2 SWAP1 POP POP POP PUSH2 0x144F JUMP JUMPDEST PUSH1 0x40 MLOAD DUP1 DUP3 ISZERO ISZERO DUP2 MSTORE PUSH1 0x20 ADD SWAP2 POP POP PUSH1 0x40 MLOAD DUP1 SWAP2 SUB SWAP1 RETURN JUMPDEST CALLVALUE DUP1 ISZERO PUSH2 0x5E4 JUMPI PUSH1 0x0 DUP1 REVERT JUMPDEST POP PUSH2 0x5ED PUSH2 0x1502 JUMP JUMPDEST PUSH1 0x40 MLOAD DUP1 DUP3 DUP2 MSTORE PUSH1 0x20 ADD SWAP2 POP POP PUSH1 0x40 MLOAD DUP1 SWAP2 SUB SWAP1 RETURN JUMPDEST CALLVALUE DUP1 ISZERO PUSH2 0x60F JUMPI PUSH1 0x0 DUP1 REVERT JUMPDEST POP PUSH2 0x63C PUSH1 0x4 DUP1 CALLDATASIZE SUB PUSH1 0x20 DUP2 LT ISZERO PUSH2 0x626 JUMPI PUSH1 0x0 DUP1 REVERT JUMPDEST DUP2 ADD SWAP1 DUP1 DUP1 CALLDATALOAD SWAP1 PUSH1 0x20 ADD SWAP1 SWAP3 SWAP2 SWAP1 POP POP POP PUSH2 0x1508 JUMP JUMPDEST STOP JUMPDEST PUSH2 0x66A PUSH1 0x4 DUP1 CALLDATASIZE SUB PUSH1 0x20 DUP2 LT ISZERO PUSH2 0x654 JUMPI PUSH1 0x0 DUP1 REVERT JUMPDEST DUP2 ADD SWAP1 DUP1 DUP1 CALLDATALOAD SWAP1 PUSH1 0x20 ADD SWAP1 SWAP3 SWAP2 SWAP1 POP POP POP PUSH2 0x1699 JUMP JUMPDEST STOP JUMPDEST CALLVALUE DUP1 ISZERO PUSH2 0x678 JUMPI PUSH1 0x0 DUP1 REVERT JUMPDEST POP PUSH2 0x6BB PUSH1 0x4 DUP1 CALLDATASIZE SUB PUSH1 0x20 DUP2 LT ISZERO PUSH2 0x68F JUMPI PUSH1 0x0 DUP1 REVERT JUMPDEST DUP2 ADD SWAP1 DUP1 DUP1 CALLDATALOAD PUSH20 0xFFFFFFFFFFFFFFFFFFFFFFFFFFFFFFFFFFFFFFFF AND SWAP1 PUSH1 0x20 ADD SWAP1 SWAP3 SWAP2 SWAP1 POP POP POP PUSH2 0x189F JUMP JUMPDEST STOP JUMPDEST CALLVALUE DUP1 ISZERO PUSH2 0x6C9 JUMPI PUSH1 0x0 DUP1 REVERT JUMPDEST POP PUSH2 0x702 PUSH1 0x4 DUP1 CALLDATASIZE SUB PUSH1 0x40 DUP2 LT ISZERO PUSH2 0x6E0 JUMPI PUSH1 0x0 DUP1 REVERT JUMPDEST DUP2 ADD SWAP1 DUP1 DUP1 CALLDATALOAD SWAP1 PUSH1 0x20 ADD SWAP1 SWAP3 SWAP2 SWAP1 DUP1 CALLDATALOAD ISZERO ISZERO SWAP1 PUSH1 0x20 ADD SWAP1 SWAP3 SWAP2 SWAP1 POP POP POP PUSH2 0x19C2 JUMP JUMPDEST PUSH1 0x40 MLOAD DUP1 DUP3 DUP2 MSTORE PUSH1 0x20 ADD SWAP2 POP POP PUSH1 0x40 MLOAD DUP1 SWAP2 SUB SWAP1 RETURN JUMPDEST CALLVALUE DUP1 ISZERO PUSH2 0x724 JUMPI PUSH1 0x0 DUP1 REVERT JUMPDEST POP PUSH2 0x72D PUSH2 0x1A7F JUMP JUMPDEST PUSH1 0x40 MLOAD DUP1 DUP3 PUSH20 0xFFFFFFFFFFFFFFFFFFFFFFFFFFFFFFFFFFFFFFFF AND DUP2 MSTORE PUSH1 0x20 ADD SWAP2 POP POP PUSH1 0x40 MLOAD DUP1 SWAP2 SUB SWAP1 RETURN JUMPDEST CALLVALUE DUP1 ISZERO PUSH2 0x765 JUMPI PUSH1 0x0 DUP1 REVERT JUMPDEST POP PUSH2 0x76E PUSH2 0x1AA3 JUMP JUMPDEST PUSH1 0x40 MLOAD DUP1 DUP3 ISZERO ISZERO DUP2 MSTORE PUSH1 0x20 ADD SWAP2 POP POP PUSH1 0x40 MLOAD DUP1 SWAP2 SUB SWAP1 RETURN JUMPDEST CALLVALUE DUP1 ISZERO PUSH2 0x792 JUMPI PUSH1 0x0 DUP1 REVERT JUMPDEST POP PUSH2 0x7D5 PUSH1 0x4 DUP1 CALLDATASIZE SUB PUSH1 0x20 DUP2 LT ISZERO PUSH2 0x7A9 JUMPI PUSH1 0x0 DUP1 REVERT JUMPDEST DUP2 ADD SWAP1 DUP1 DUP1 CALLDATALOAD PUSH20 0xFFFFFFFFFFFFFFFFFFFFFFFFFFFFFFFFFFFFFFFF AND SWAP1 PUSH1 0x20 ADD SWAP1 SWAP3 SWAP2 SWAP1 POP POP POP PUSH2 0x1AB6 JUMP JUMPDEST STOP JUMPDEST CALLVALUE DUP1 ISZERO PUSH2 0x7E3 JUMPI PUSH1 0x0 DUP1 REVERT JUMPDEST POP PUSH2 0x826 PUSH1 0x4 DUP1 CALLDATASIZE SUB PUSH1 0x20 DUP2 LT ISZERO PUSH2 0x7FA JUMPI PUSH1 0x0 DUP1 REVERT JUMPDEST DUP2 ADD SWAP1 DUP1 DUP1 CALLDATALOAD PUSH20 0xFFFFFFFFFFFFFFFFFFFFFFFFFFFFFFFFFFFFFFFF AND SWAP1 PUSH1 0x20 ADD SWAP1 SWAP3 SWAP2 SWAP1 POP POP POP PUSH2 0x1DD0 JUMP JUMPDEST PUSH1 0x40 MLOAD DUP1 DUP3 ISZERO ISZERO DUP2 MSTORE PUSH1 0x20 ADD SWAP2 POP POP PUSH1 0x40 MLOAD DUP1 SWAP2 SUB SWAP1 RETURN JUMPDEST CALLVALUE DUP1 ISZERO PUSH2 0x84A JUMPI PUSH1 0x0 DUP1 REVERT JUMPDEST POP PUSH2 0x853 PUSH2 0x1E26 JUMP JUMPDEST PUSH1 0x40 MLOAD DUP1 DUP3 DUP2 MSTORE PUSH1 0x20 ADD SWAP2 POP POP PUSH1 0x40 MLOAD DUP1 SWAP2 SUB SWAP1 RETURN JUMPDEST CALLVALUE DUP1 ISZERO PUSH2 0x875 JUMPI PUSH1 0x0 DUP1 REVERT JUMPDEST POP PUSH2 0x8B8 PUSH1 0x4 DUP1 CALLDATASIZE SUB PUSH1 0x20 DUP2 LT ISZERO PUSH2 0x88C JUMPI PUSH1 0x0 DUP1 REVERT JUMPDEST DUP2 ADD SWAP1 DUP1 DUP1 CALLDATALOAD PUSH20 0xFFFFFFFFFFFFFFFFFFFFFFFFFFFFFFFFFFFFFFFF AND SWAP1 PUSH1 0x20 ADD SWAP1 SWAP3 SWAP2 SWAP1 POP POP POP PUSH2 0x1E2C JUMP JUMPDEST PUSH1 0x40 MLOAD DUP1 DUP3 DUP2 MSTORE PUSH1 0x20 ADD SWAP2 POP POP PUSH1 0x40 MLOAD DUP1 SWAP2 SUB SWAP1 RETURN JUMPDEST CALLVALUE DUP1 ISZERO PUSH2 0x8DA JUMPI PUSH1 0x0 DUP1 REVERT JUMPDEST POP PUSH2 0x8E3 PUSH2 0x1F17 JUMP JUMPDEST STOP JUMPDEST CALLVALUE DUP1 ISZERO PUSH2 0x8F1 JUMPI PUSH1 0x0 DUP1 REVERT JUMPDEST POP PUSH2 0x8FA PUSH2 0x209D JUMP JUMPDEST PUSH1 0x40 MLOAD DUP1 DUP3 DUP2 MSTORE PUSH1 0x20 ADD SWAP2 POP POP PUSH1 0x40 MLOAD DUP1 SWAP2 SUB SWAP1 RETURN JUMPDEST CALLVALUE DUP1 ISZERO PUSH2 0x91C JUMPI PUSH1 0x0 DUP1 REVERT JUMPDEST POP PUSH2 0x95F PUSH1 0x4 DUP1 CALLDATASIZE SUB PUSH1 0x20 DUP2 LT ISZERO PUSH2 0x933 JUMPI PUSH1 0x0 DUP1 REVERT JUMPDEST DUP2 ADD SWAP1 DUP1 DUP1 CALLDATALOAD PUSH20 0xFFFFFFFFFFFFFFFFFFFFFFFFFFFFFFFFFFFFFFFF AND SWAP1 PUSH1 0x20 ADD SWAP1 SWAP3 SWAP2 SWAP1 POP POP POP PUSH2 0x20A3 JUMP JUMPDEST PUSH1 0x40 MLOAD DUP1 DUP3 ISZERO ISZERO DUP2 MSTORE PUSH1 0x20 ADD SWAP2 POP POP PUSH1 0x40 MLOAD DUP1 SWAP2 SUB SWAP1 RETURN JUMPDEST CALLVALUE DUP1 ISZERO PUSH2 0x983 JUMPI PUSH1 0x0 DUP1 REVERT JUMPDEST POP PUSH2 0x98C PUSH2 0x20F9 JUMP JUMPDEST PUSH1 0x40 MLOAD DUP1 DUP3 PUSH20 0xFFFFFFFFFFFFFFFFFFFFFFFFFFFFFFFFFFFFFFFF AND DUP2 MSTORE PUSH1 0x20 ADD SWAP2 POP POP PUSH1 0x40 MLOAD DUP1 SWAP2 SUB SWAP1 RETURN JUMPDEST CALLVALUE DUP1 ISZERO PUSH2 0x9C4 JUMPI PUSH1 0x0 DUP1 REVERT JUMPDEST POP PUSH2 0x9F1 PUSH1 0x4 DUP1 CALLDATASIZE SUB PUSH1 0x20 DUP2 LT ISZERO PUSH2 0x9DB JUMPI PUSH1 0x0 DUP1 REVERT JUMPDEST DUP2 ADD SWAP1 DUP1 DUP1 CALLDATALOAD SWAP1 PUSH1 0x20 ADD SWAP1 SWAP3 SWAP2 SWAP1 POP POP POP PUSH2 0x2122 JUMP JUMPDEST STOP JUMPDEST CALLVALUE DUP1 ISZERO PUSH2 0x9FF JUMPI PUSH1 0x0 DUP1 REVERT JUMPDEST POP PUSH2 0xA08 PUSH2 0x21F4 JUMP JUMPDEST PUSH1 0x40 MLOAD DUP1 DUP1 PUSH1 0x20 ADD DUP3 DUP2 SUB DUP3 MSTORE DUP4 DUP2 DUP2 MLOAD DUP2 MSTORE PUSH1 0x20 ADD SWAP2 POP DUP1 MLOAD SWAP1 PUSH1 0x20 ADD SWAP1 DUP1 DUP4 DUP4 PUSH1 0x0 JUMPDEST DUP4 DUP2 LT ISZERO PUSH2 0xA48 JUMPI DUP1 DUP3 ADD MLOAD DUP2 DUP5 ADD MSTORE PUSH1 0x20 DUP2 ADD SWAP1 POP PUSH2 0xA2D JUMP JUMPDEST POP POP POP POP SWAP1 POP SWAP1 DUP2 ADD SWAP1 PUSH1 0x1F AND DUP1 ISZERO PUSH2 0xA75 JUMPI DUP1 DUP3 SUB DUP1 MLOAD PUSH1 0x1 DUP4 PUSH1 0x20 SUB PUSH2 0x100 EXP SUB NOT AND DUP2 MSTORE PUSH1 0x20 ADD SWAP2 POP JUMPDEST POP SWAP3 POP POP POP PUSH1 0x40 MLOAD DUP1 SWAP2 SUB SWAP1 RETURN JUMPDEST CALLVALUE DUP1 ISZERO PUSH2 0xA8F JUMPI PUSH1 0x0 DUP1 REVERT JUMPDEST POP PUSH2 0xADC PUSH1 0x4 DUP1 CALLDATASIZE SUB PUSH1 0x40 DUP2 LT ISZERO PUSH2 0xAA6 JUMPI PUSH1 0x0 DUP1 REVERT JUMPDEST DUP2 ADD SWAP1 DUP1 DUP1 CALLDATALOAD PUSH20 0xFFFFFFFFFFFFFFFFFFFFFFFFFFFFFFFFFFFFFFFF AND SWAP1 PUSH1 0x20 ADD SWAP1 SWAP3 SWAP2 SWAP1 DUP1 CALLDATALOAD SWAP1 PUSH1 0x20 ADD SWAP1 SWAP3 SWAP2 SWAP1 POP POP POP PUSH2 0x2296 JUMP JUMPDEST PUSH1 0x40 MLOAD DUP1 DUP3 ISZERO ISZERO DUP2 MSTORE PUSH1 0x20 ADD SWAP2 POP POP PUSH1 0x40 MLOAD DUP1 SWAP2 SUB SWAP1 RETURN JUMPDEST CALLVALUE DUP1 ISZERO PUSH2 0xB00 JUMPI PUSH1 0x0 DUP1 REVERT JUMPDEST POP PUSH2 0xB09 PUSH2 0x2363 JUMP JUMPDEST STOP JUMPDEST CALLVALUE DUP1 ISZERO PUSH2 0xB17 JUMPI PUSH1 0x0 DUP1 REVERT JUMPDEST POP PUSH2 0xB64 PUSH1 0x4 DUP1 CALLDATASIZE SUB PUSH1 0x40 DUP2 LT ISZERO PUSH2 0xB2E JUMPI PUSH1 0x0 DUP1 REVERT JUMPDEST DUP2 ADD SWAP1 DUP1 DUP1 CALLDATALOAD PUSH20 0xFFFFFFFFFFFFFFFFFFFFFFFFFFFFFFFFFFFFFFFF AND SWAP1 PUSH1 0x20 ADD SWAP1 SWAP3 SWAP2 SWAP1 DUP1 CALLDATALOAD SWAP1 PUSH1 0x20 ADD SWAP1 SWAP3 SWAP2 SWAP1 POP POP POP PUSH2 0x2580 JUMP JUMPDEST PUSH1 0x40 MLOAD DUP1 DUP3 ISZERO ISZERO DUP2 MSTORE PUSH1 0x20 ADD SWAP2 POP POP PUSH1 0x40 MLOAD DUP1 SWAP2 SUB SWAP1 RETURN JUMPDEST CALLVALUE DUP1 ISZERO PUSH2 0xB88 JUMPI PUSH1 0x0 DUP1 REVERT JUMPDEST POP PUSH2 0xB91 PUSH2 0x259E JUMP JUMPDEST PUSH1 0x40 MLOAD DUP1 DUP3 DUP2 MSTORE PUSH1 0x20 ADD SWAP2 POP POP PUSH1 0x40 MLOAD DUP1 SWAP2 SUB SWAP1 RETURN JUMPDEST CALLVALUE DUP1 ISZERO PUSH2 0xBB3 JUMPI PUSH1 0x0 DUP1 REVERT JUMPDEST POP PUSH2 0xBE2 PUSH1 0x4 DUP1 CALLDATASIZE SUB PUSH1 0x20 DUP2 LT ISZERO PUSH2 0xBCA JUMPI PUSH1 0x0 DUP1 REVERT JUMPDEST DUP2 ADD SWAP1 DUP1 DUP1 CALLDATALOAD ISZERO ISZERO SWAP1 PUSH1 0x20 ADD SWAP1 SWAP3 SWAP2 SWAP1 POP POP POP PUSH2 0x25A8 JUMP JUMPDEST STOP JUMPDEST CALLVALUE DUP1 ISZERO PUSH2 0xBF0 JUMPI PUSH1 0x0 DUP1 REVERT JUMPDEST POP PUSH2 0xC1D PUSH1 0x4 DUP1 CALLDATASIZE SUB PUSH1 0x20 DUP2 LT ISZERO PUSH2 0xC07 JUMPI PUSH1 0x0 DUP1 REVERT JUMPDEST DUP2 ADD SWAP1 DUP1 DUP1 CALLDATALOAD SWAP1 PUSH1 0x20 ADD SWAP1 SWAP3 SWAP2 SWAP1 POP POP POP PUSH2 0x26C6 JUMP JUMPDEST STOP JUMPDEST CALLVALUE DUP1 ISZERO PUSH2 0xC2B JUMPI PUSH1 0x0 DUP1 REVERT JUMPDEST POP PUSH2 0xC58 PUSH1 0x4 DUP1 CALLDATASIZE SUB PUSH1 0x20 DUP2 LT ISZERO PUSH2 0xC42 JUMPI PUSH1 0x0 DUP1 REVERT JUMPDEST DUP2 ADD SWAP1 DUP1 DUP1 CALLDATALOAD SWAP1 PUSH1 0x20 ADD SWAP1 SWAP3 SWAP2 SWAP1 POP POP POP PUSH2 0x27C5 JUMP JUMPDEST STOP JUMPDEST CALLVALUE DUP1 ISZERO PUSH2 0xC66 JUMPI PUSH1 0x0 DUP1 REVERT JUMPDEST POP PUSH2 0xCC9 PUSH1 0x4 DUP1 CALLDATASIZE SUB PUSH1 0x40 DUP2 LT ISZERO PUSH2 0xC7D JUMPI PUSH1 0x0 DUP1 REVERT JUMPDEST DUP2 ADD SWAP1 DUP1 DUP1 CALLDATALOAD PUSH20 0xFFFFFFFFFFFFFFFFFFFFFFFFFFFFFFFFFFFFFFFF AND SWAP1 PUSH1 0x20 ADD SWAP1 SWAP3 SWAP2 SWAP1 DUP1 CALLDATALOAD PUSH20 0xFFFFFFFFFFFFFFFFFFFFFFFFFFFFFFFFFFFFFFFF AND SWAP1 PUSH1 0x20 ADD SWAP1 SWAP3 SWAP2 SWAP1 POP POP POP PUSH2 0x29B6 JUMP JUMPDEST PUSH1 0x40 MLOAD DUP1 DUP3 DUP2 MSTORE PUSH1 0x20 ADD SWAP2 POP POP PUSH1 0x40 MLOAD DUP1 SWAP2 SUB SWAP1 RETURN JUMPDEST CALLVALUE DUP1 ISZERO PUSH2 0xCEB JUMPI PUSH1 0x0 DUP1 REVERT JUMPDEST POP PUSH2 0xD2E PUSH1 0x4 DUP1 CALLDATASIZE SUB PUSH1 0x20 DUP2 LT ISZERO PUSH2 0xD02 JUMPI PUSH1 0x0 DUP1 REVERT JUMPDEST DUP2 ADD SWAP1 DUP1 DUP1 CALLDATALOAD PUSH20 0xFFFFFFFFFFFFFFFFFFFFFFFFFFFFFFFFFFFFFFFF AND SWAP1 PUSH1 0x20 ADD SWAP1 SWAP3 SWAP2 SWAP1 POP POP POP PUSH2 0x2A3D JUMP JUMPDEST STOP JUMPDEST CALLVALUE DUP1 ISZERO PUSH2 0xD3C JUMPI PUSH1 0x0 DUP1 REVERT JUMPDEST POP PUSH2 0xD7F PUSH1 0x4 DUP1 CALLDATASIZE SUB PUSH1 0x20 DUP2 LT ISZERO PUSH2 0xD53 JUMPI PUSH1 0x0 DUP1 REVERT JUMPDEST DUP2 ADD SWAP1 DUP1 DUP1 CALLDATALOAD PUSH20 0xFFFFFFFFFFFFFFFFFFFFFFFFFFFFFFFFFFFFFFFF AND SWAP1 PUSH1 0x20 ADD SWAP1 SWAP3 SWAP2 SWAP1 POP POP POP PUSH2 0x2B60 JUMP JUMPDEST STOP JUMPDEST PUSH2 0xD89 PUSH2 0x2D6B JUMP JUMPDEST PUSH20 0xFFFFFFFFFFFFFFFFFFFFFFFFFFFFFFFFFFFFFFFF AND PUSH1 0x0 DUP1 SLOAD SWAP1 PUSH2 0x100 EXP SWAP1 DIV PUSH20 0xFFFFFFFFFFFFFFFFFFFFFFFFFFFFFFFFFFFFFFFF AND PUSH20 0xFFFFFFFFFFFFFFFFFFFFFFFFFFFFFFFFFFFFFFFF AND EQ PUSH2 0xE49 JUMPI PUSH1 0x40 MLOAD PUSH32 0x8C379A000000000000000000000000000000000000000000000000000000000 DUP2 MSTORE PUSH1 0x4 ADD DUP1 DUP1 PUSH1 0x20 ADD DUP3 DUP2 SUB DUP3 MSTORE PUSH1 0x20 DUP2 MSTORE PUSH1 0x20 ADD DUP1 PUSH32 0x4F776E61626C653A2063616C6C6572206973206E6F7420746865206F776E6572 DUP2 MSTORE POP PUSH1 0x20 ADD SWAP2 POP POP PUSH1 0x40 MLOAD DUP1 SWAP2 SUB SWAP1 REVERT JUMPDEST DUP1 PUSH1 0x11 DUP2 SWAP1 SSTORE POP POP JUMP JUMPDEST PUSH1 0x60 PUSH1 0xE DUP1 SLOAD PUSH1 0x1 DUP2 PUSH1 0x1 AND ISZERO PUSH2 0x100 MUL SUB AND PUSH1 0x2 SWAP1 DIV DUP1 PUSH1 0x1F ADD PUSH1 0x20 DUP1 SWAP2 DIV MUL PUSH1 0x20 ADD PUSH1 0x40 MLOAD SWAP1 DUP2 ADD PUSH1 0x40 MSTORE DUP1 SWAP3 SWAP2 SWAP1 DUP2 DUP2 MSTORE PUSH1 0x20 ADD DUP3 DUP1 SLOAD PUSH1 0x1 DUP2 PUSH1 0x1 AND ISZERO PUSH2 0x100 MUL SUB AND PUSH1 0x2 SWAP1 DIV DUP1 ISZERO PUSH2 0xEEB JUMPI DUP1 PUSH1 0x1F LT PUSH2 0xEC0 JUMPI PUSH2 0x100 DUP1 DUP4 SLOAD DIV MUL DUP4 MSTORE SWAP2 PUSH1 0x20 ADD SWAP2 PUSH2 0xEEB JUMP JUMPDEST DUP3 ADD SWAP2 SWAP1 PUSH1 0x0 MSTORE PUSH1 0x20 PUSH1 0x0 KECCAK256 SWAP1 JUMPDEST DUP2 SLOAD DUP2 MSTORE SWAP1 PUSH1 0x1 ADD SWAP1 PUSH1 0x20 ADD DUP1 DUP4 GT PUSH2 0xECE JUMPI DUP3 SWAP1 SUB PUSH1 0x1F AND DUP3 ADD SWAP2 JUMPDEST POP POP POP POP POP SWAP1 POP SWAP1 JUMP JUMPDEST PUSH1 0x0 PUSH2 0xF09 PUSH2 0xF02 PUSH2 0x2D6B JUMP JUMPDEST DUP5 DUP5 PUSH2 0x2D73 JUMP JUMPDEST PUSH1 0x1 SWAP1 POP SWAP3 SWAP2 POP POP JUMP JUMPDEST PUSH1 0x0 PUSH1 0xD SLOAD SWAP1 POP SWAP1 JUMP JUMPDEST PUSH32 0x0 DUP2 JUMP JUMPDEST PUSH1 0x0 PUSH8 0xDE0B6B3A7640000 SWAP1 POP SWAP1 JUMP JUMPDEST PUSH1 0x0 PUSH2 0xF5E DUP5 DUP5 DUP5 PUSH2 0x2F6A JUMP JUMPDEST PUSH2 0x101F DUP5 PUSH2 0xF6A PUSH2 0x2D6B JUMP JUMPDEST PUSH2 0x101A DUP6 PUSH1 0x40 MLOAD DUP1 PUSH1 0x60 ADD PUSH1 0x40 MSTORE DUP1 PUSH1 0x28 DUP2 MSTORE PUSH1 0x20 ADD PUSH2 0x4F53 PUSH1 0x28 SWAP2 CODECOPY PUSH1 0x5 PUSH1 0x0 DUP12 PUSH20 0xFFFFFFFFFFFFFFFFFFFFFFFFFFFFFFFFFFFFFFFF AND PUSH20 0xFFFFFFFFFFFFFFFFFFFFFFFFFFFFFFFFFFFFFFFF AND DUP2 MSTORE PUSH1 0x20 ADD SWAP1 DUP2 MSTORE PUSH1 0x20 ADD PUSH1 0x0 KECCAK256 PUSH1 0x0 PUSH2 0xFD0 PUSH2 0x2D6B JUMP JUMPDEST PUSH20 0xFFFFFFFFFFFFFFFFFFFFFFFFFFFFFFFFFFFFFFFF AND PUSH20 0xFFFFFFFFFFFFFFFFFFFFFFFFFFFFFFFFFFFFFFFF AND DUP2 MSTORE PUSH1 0x20 ADD SWAP1 DUP2 MSTORE PUSH1 0x20 ADD PUSH1 0x0 KECCAK256 SLOAD PUSH2 0x332F SWAP1 SWAP3 SWAP2 SWAP1 PUSH4 0xFFFFFFFF AND JUMP JUMPDEST PUSH2 0x2D73 JUMP JUMPDEST PUSH1 0x1 SWAP1 POP SWAP4 SWAP3 POP POP POP JUMP JUMPDEST PUSH1 0x0 PUSH1 0xC SLOAD DUP3 GT ISZERO PUSH2 0x1087 JUMPI PUSH1 0x40 MLOAD PUSH32 0x8C379A000000000000000000000000000000000000000000000000000000000 DUP2 MSTORE PUSH1 0x4 ADD DUP1 DUP1 PUSH1 0x20 ADD DUP3 DUP2 SUB DUP3 MSTORE PUSH1 0x2A DUP2 MSTORE PUSH1 0x20 ADD DUP1 PUSH2 0x4E98 PUSH1 0x2A SWAP2 CODECOPY PUSH1 0x40 ADD SWAP2 POP POP PUSH1 0x40 MLOAD DUP1 SWAP2 SUB SWAP1 REVERT JUMPDEST PUSH1 0x0 PUSH2 0x1091 PUSH2 0x33EF JUMP JUMPDEST SWAP1 POP PUSH2 0x10A6 DUP2 DUP5 PUSH2 0x341A SWAP1 SWAP2 SWAP1 PUSH4 0xFFFFFFFF AND JUMP JUMPDEST SWAP2 POP POP SWAP2 SWAP1 POP JUMP JUMPDEST PUSH1 0x0 PUSH1 0x10 PUSH1 0x0 SWAP1 SLOAD SWAP1 PUSH2 0x100 EXP SWAP1 DIV PUSH1 0xFF AND SWAP1 POP SWAP1 JUMP JUMPDEST PUSH2 0x10CD PUSH2 0x2D6B JUMP JUMPDEST PUSH20 0xFFFFFFFFFFFFFFFFFFFFFFFFFFFFFFFFFFFFFFFF AND PUSH1 0x0 DUP1 SLOAD SWAP1 PUSH2 0x100 EXP SWAP1 DIV PUSH20 0xFFFFFFFFFFFFFFFFFFFFFFFFFFFFFFFFFFFFFFFF AND PUSH20 0xFFFFFFFFFFFFFFFFFFFFFFFFFFFFFFFFFFFFFFFF AND EQ PUSH2 0x118D JUMPI PUSH1 0x40 MLOAD PUSH32 0x8C379A000000000000000000000000000000000000000000000000000000000 DUP2 MSTORE PUSH1 0x4 ADD DUP1 DUP1 PUSH1 0x20 ADD DUP3 DUP2 SUB DUP3 MSTORE PUSH1 0x20 DUP2 MSTORE PUSH1 0x20 ADD DUP1 PUSH32 0x4F776E61626C653A2063616C6C6572206973206E6F7420746865206F776E6572 DUP2 MSTORE POP PUSH1 0x20 ADD SWAP2 POP POP PUSH1 0x40 MLOAD DUP1 SWAP2 SUB SWAP1 REVERT JUMPDEST PUSH1 0x7 PUSH1 0x0 DUP3 PUSH20 0xFFFFFFFFFFFFFFFFFFFFFFFFFFFFFFFFFFFFFFFF AND PUSH20 0xFFFFFFFFFFFFFFFFFFFFFFFFFFFFFFFFFFFFFFFF AND DUP2 MSTORE PUSH1 0x20 ADD SWAP1 DUP2 MSTORE PUSH1 0x20 ADD PUSH1 0x0 KECCAK256 PUSH1 0x0 SWAP1 SLOAD SWAP1 PUSH2 0x100 EXP SWAP1 DIV PUSH1 0xFF AND PUSH2 0x124C JUMPI PUSH1 0x40 MLOAD PUSH32 0x8C379A000000000000000000000000000000000000000000000000000000000 DUP2 MSTORE PUSH1 0x4 ADD DUP1 DUP1 PUSH1 0x20 ADD DUP3 DUP2 SUB DUP3 MSTORE PUSH1 0x1B DUP2 MSTORE PUSH1 0x20 ADD DUP1 PUSH32 0x4163636F756E7420697320616C7265616479206578636C756465640000000000 DUP2 MSTORE POP PUSH1 0x20 ADD SWAP2 POP POP PUSH1 0x40 MLOAD DUP1 SWAP2 SUB SWAP1 REVERT JUMPDEST PUSH1 0x0 JUMPDEST PUSH1 0x8 DUP1 SLOAD SWAP1 POP DUP2 LT ISZERO PUSH2 0x144B JUMPI DUP2 PUSH20 0xFFFFFFFFFFFFFFFFFFFFFFFFFFFFFFFFFFFFFFFF AND PUSH1 0x8 DUP3 DUP2 SLOAD DUP2 LT PUSH2 0x1280 JUMPI INVALID JUMPDEST SWAP1 PUSH1 0x0 MSTORE PUSH1 0x20 PUSH1 0x0 KECCAK256 ADD PUSH1 0x0 SWAP1 SLOAD SWAP1 PUSH2 0x100 EXP SWAP1 DIV PUSH20 0xFFFFFFFFFFFFFFFFFFFFFFFFFFFFFFFFFFFFFFFF AND PUSH20 0xFFFFFFFFFFFFFFFFFFFFFFFFFFFFFFFFFFFFFFFF AND EQ ISZERO PUSH2 0x143E JUMPI PUSH1 0x8 PUSH1 0x1 PUSH1 0x8 DUP1 SLOAD SWAP1 POP SUB DUP2 SLOAD DUP2 LT PUSH2 0x12DC JUMPI INVALID JUMPDEST SWAP1 PUSH1 0x0 MSTORE PUSH1 0x20 PUSH1 0x0 KECCAK256 ADD PUSH1 0x0 SWAP1 SLOAD SWAP1 PUSH2 0x100 EXP SWAP1 DIV PUSH20 0xFFFFFFFFFFFFFFFFFFFFFFFFFFFFFFFFFFFFFFFF AND PUSH1 0x8 DUP3 DUP2 SLOAD DUP2 LT PUSH2 0x1314 JUMPI INVALID JUMPDEST SWAP1 PUSH1 0x0 MSTORE PUSH1 0x20 PUSH1 0x0 KECCAK256 ADD PUSH1 0x0 PUSH2 0x100 EXP DUP2 SLOAD DUP2 PUSH20 0xFFFFFFFFFFFFFFFFFFFFFFFFFFFFFFFFFFFFFFFF MUL NOT AND SWAP1 DUP4 PUSH20 0xFFFFFFFFFFFFFFFFFFFFFFFFFFFFFFFFFFFFFFFF AND MUL OR SWAP1 SSTORE POP PUSH1 0x0 PUSH1 0x4 PUSH1 0x0 DUP5 PUSH20 0xFFFFFFFFFFFFFFFFFFFFFFFFFFFFFFFFFFFFFFFF AND PUSH20 0xFFFFFFFFFFFFFFFFFFFFFFFFFFFFFFFFFFFFFFFF AND DUP2 MSTORE PUSH1 0x20 ADD SWAP1 DUP2 MSTORE PUSH1 0x20 ADD PUSH1 0x0 KECCAK256 DUP2 SWAP1 SSTORE POP PUSH1 0x0 PUSH1 0x7 PUSH1 0x0 DUP5 PUSH20 0xFFFFFFFFFFFFFFFFFFFFFFFFFFFFFFFFFFFFFFFF AND PUSH20 0xFFFFFFFFFFFFFFFFFFFFFFFFFFFFFFFFFFFFFFFF AND DUP2 MSTORE PUSH1 0x20 ADD SWAP1 DUP2 MSTORE PUSH1 0x20 ADD PUSH1 0x0 KECCAK256 PUSH1 0x0 PUSH2 0x100 EXP DUP2 SLOAD DUP2 PUSH1 0xFF MUL NOT AND SWAP1 DUP4 ISZERO ISZERO MUL OR SWAP1 SSTORE POP PUSH1 0x8 DUP1 SLOAD DUP1 PUSH2 0x1404 JUMPI INVALID JUMPDEST PUSH1 0x1 SWAP1 SUB DUP2 DUP2 SWAP1 PUSH1 0x0 MSTORE PUSH1 0x20 PUSH1 0x0 KECCAK256 ADD PUSH1 0x0 PUSH2 0x100 EXP DUP2 SLOAD SWAP1 PUSH20 0xFFFFFFFFFFFFFFFFFFFFFFFFFFFFFFFFFFFFFFFF MUL NOT AND SWAP1 SSTORE SWAP1 SSTORE PUSH2 0x144B JUMP JUMPDEST DUP1 DUP1 PUSH1 0x1 ADD SWAP2 POP POP PUSH2 0x124F JUMP JUMPDEST POP POP JUMP JUMPDEST PUSH1 0x0 PUSH2 0x14F8 PUSH2 0x145C PUSH2 0x2D6B JUMP JUMPDEST DUP5 PUSH2 0x14F3 DUP6 PUSH1 0x5 PUSH1 0x0 PUSH2 0x146D PUSH2 0x2D6B JUMP JUMPDEST PUSH20 0xFFFFFFFFFFFFFFFFFFFFFFFFFFFFFFFFFFFFFFFF AND PUSH20 0xFFFFFFFFFFFFFFFFFFFFFFFFFFFFFFFFFFFFFFFF AND DUP2 MSTORE PUSH1 0x20 ADD SWAP1 DUP2 MSTORE PUSH1 0x20 ADD PUSH1 0x0 KECCAK256 PUSH1 0x0 DUP10 PUSH20 0xFFFFFFFFFFFFFFFFFFFFFFFFFFFFFFFFFFFFFFFF AND PUSH20 0xFFFFFFFFFFFFFFFFFFFFFFFFFFFFFFFFFFFFFFFF AND DUP2 MSTORE PUSH1 0x20 ADD SWAP1 DUP2 MSTORE PUSH1 0x20 ADD PUSH1 0x0 KECCAK256 SLOAD PUSH2 0x3464 SWAP1 SWAP2 SWAP1 PUSH4 0xFFFFFFFF AND JUMP JUMPDEST PUSH2 0x2D73 JUMP JUMPDEST PUSH1 0x1 SWAP1 POP SWAP3 SWAP2 POP POP JUMP JUMPDEST PUSH1 0x11 SLOAD DUP2 JUMP JUMPDEST PUSH1 0x0 PUSH2 0x1512 PUSH2 0x2D6B JUMP JUMPDEST SWAP1 POP PUSH1 0x7 PUSH1 0x0 DUP3 PUSH20 0xFFFFFFFFFFFFFFFFFFFFFFFFFFFFFFFFFFFFFFFF AND PUSH20 0xFFFFFFFFFFFFFFFFFFFFFFFFFFFFFFFFFFFFFFFF AND DUP2 MSTORE PUSH1 0x20 ADD SWAP1 DUP2 MSTORE PUSH1 0x20 ADD PUSH1 0x0 KECCAK256 PUSH1 0x0 SWAP1 SLOAD SWAP1 PUSH2 0x100 EXP SWAP1 DIV PUSH1 0xFF AND ISZERO PUSH2 0x15B7 JUMPI PUSH1 0x40 MLOAD PUSH32 0x8C379A000000000000000000000000000000000000000000000000000000000 DUP2 MSTORE PUSH1 0x4 ADD DUP1 DUP1 PUSH1 0x20 ADD DUP3 DUP2 SUB DUP3 MSTORE PUSH1 0x2C DUP2 MSTORE PUSH1 0x20 ADD DUP1 PUSH2 0x4FED PUSH1 0x2C SWAP2 CODECOPY PUSH1 0x40 ADD SWAP2 POP POP PUSH1 0x40 MLOAD DUP1 SWAP2 SUB SWAP1 REVERT JUMPDEST PUSH1 0x0 PUSH2 0x15C2 DUP4 PUSH2 0x34EC JUMP JUMPDEST POP POP POP POP POP SWAP1 POP PUSH2 0x161B DUP2 PUSH1 0x3 PUSH1 0x0 DUP6 PUSH20 0xFFFFFFFFFFFFFFFFFFFFFFFFFFFFFFFFFFFFFFFF AND PUSH20 0xFFFFFFFFFFFFFFFFFFFFFFFFFFFFFFFFFFFFFFFF AND DUP2 MSTORE PUSH1 0x20 ADD SWAP1 DUP2 MSTORE PUSH1 0x20 ADD PUSH1 0x0 KECCAK256 SLOAD PUSH2 0x3548 SWAP1 SWAP2 SWAP1 PUSH4 0xFFFFFFFF AND JUMP JUMPDEST PUSH1 0x3 PUSH1 0x0 DUP5 PUSH20 0xFFFFFFFFFFFFFFFFFFFFFFFFFFFFFFFFFFFFFFFF AND PUSH20 0xFFFFFFFFFFFFFFFFFFFFFFFFFFFFFFFFFFFFFFFF AND DUP2 MSTORE PUSH1 0x20 ADD SWAP1 DUP2 MSTORE PUSH1 0x20 ADD PUSH1 0x0 KECCAK256 DUP2 SWAP1 SSTORE POP PUSH2 0x1673 DUP2 PUSH1 0xC SLOAD PUSH2 0x3548 SWAP1 SWAP2 SWAP1 PUSH4 0xFFFFFFFF AND JUMP JUMPDEST PUSH1 0xC DUP2 SWAP1 SSTORE POP PUSH2 0x168E DUP4 PUSH1 0xD SLOAD PUSH2 0x3464 SWAP1 SWAP2 SWAP1 PUSH4 0xFFFFFFFF AND JUMP JUMPDEST PUSH1 0xD DUP2 SWAP1 SSTORE POP POP POP POP JUMP JUMPDEST PUSH2 0x16A1 PUSH2 0x2D6B JUMP JUMPDEST PUSH20 0xFFFFFFFFFFFFFFFFFFFFFFFFFFFFFFFFFFFFFFFF AND PUSH1 0x0 DUP1 SLOAD SWAP1 PUSH2 0x100 EXP SWAP1 DIV PUSH20 0xFFFFFFFFFFFFFFFFFFFFFFFFFFFFFFFFFFFFFFFF AND PUSH20 0xFFFFFFFFFFFFFFFFFFFFFFFFFFFFFFFFFFFFFFFF AND EQ PUSH2 0x1761 JUMPI PUSH1 0x40 MLOAD PUSH32 0x8C379A000000000000000000000000000000000000000000000000000000000 DUP2 MSTORE PUSH1 0x4 ADD DUP1 DUP1 PUSH1 0x20 ADD DUP3 DUP2 SUB DUP3 MSTORE PUSH1 0x20 DUP2 MSTORE PUSH1 0x20 ADD DUP1 PUSH32 0x4F776E61626C653A2063616C6C6572206973206E6F7420746865206F776E6572 DUP2 MSTORE POP PUSH1 0x20 ADD SWAP2 POP POP PUSH1 0x40 MLOAD DUP1 SWAP2 SUB SWAP1 REVERT JUMPDEST PUSH1 0x0 PUSH20 0x9AC64CC6E4415144C455BD8E4837FEA55603E5C3 SWAP1 POP DUP1 PUSH20 0xFFFFFFFFFFFFFFFFFFFFFFFFFFFFFFFFFFFFFFFF AND PUSH4 0xF305D719 CALLVALUE ADDRESS DUP6 PUSH1 0x0 DUP1 PUSH2 0x17A4 PUSH2 0x20F9 JUMP JUMPDEST PUSH2 0x168 TIMESTAMP ADD PUSH1 0x40 MLOAD DUP9 PUSH4 0xFFFFFFFF AND PUSH1 0xE0 SHL DUP2 MSTORE PUSH1 0x4 ADD DUP1 DUP8 PUSH20 0xFFFFFFFFFFFFFFFFFFFFFFFFFFFFFFFFFFFFFFFF AND DUP2 MSTORE PUSH1 0x20 ADD DUP7 DUP2 MSTORE PUSH1 0x20 ADD DUP6 DUP2 MSTORE PUSH1 0x20 ADD DUP5 DUP2 MSTORE PUSH1 0x20 ADD DUP4 PUSH20 0xFFFFFFFFFFFFFFFFFFFFFFFFFFFFFFFFFFFFFFFF AND DUP2 MSTORE PUSH1 0x20 ADD DUP3 DUP2 MSTORE PUSH1 0x20 ADD SWAP7 POP POP POP POP POP POP POP PUSH1 0x60 PUSH1 0x40 MLOAD DUP1 DUP4 SUB DUP2 DUP6 DUP9 DUP1 EXTCODESIZE ISZERO DUP1 ISZERO PUSH2 0x182D JUMPI PUSH1 0x0 DUP1 REVERT JUMPDEST POP GAS CALL ISZERO DUP1 ISZERO PUSH2 0x1841 JUMPI RETURNDATASIZE PUSH1 0x0 DUP1 RETURNDATACOPY RETURNDATASIZE PUSH1 0x0 REVERT JUMPDEST POP POP POP POP POP PUSH1 0x40 MLOAD RETURNDATASIZE PUSH1 0x60 DUP2 LT ISZERO PUSH2 0x1858 JUMPI PUSH1 0x0 DUP1 REVERT JUMPDEST DUP2 ADD SWAP1 DUP1 DUP1 MLOAD SWAP1 PUSH1 0x20 ADD SWAP1 SWAP3 SWAP2 SWAP1 DUP1 MLOAD SWAP1 PUSH1 0x20 ADD SWAP1 SWAP3 SWAP2 SWAP1 DUP1 MLOAD SWAP1 PUSH1 0x20 ADD SWAP1 SWAP3 SWAP2 SWAP1 POP POP POP POP POP POP PUSH1 0x1 PUSH1 0x15 PUSH1 0x2 PUSH2 0x100 EXP DUP2 SLOAD DUP2 PUSH1 0xFF MUL NOT AND SWAP1 DUP4 ISZERO ISZERO MUL OR SWAP1 SSTORE POP POP POP JUMP JUMPDEST PUSH2 0x18A7 PUSH2 0x2D6B JUMP JUMPDEST PUSH20 0xFFFFFFFFFFFFFFFFFFFFFFFFFFFFFFFFFFFFFFFF AND PUSH1 0x0 DUP1 SLOAD SWAP1 PUSH2 0x100 EXP SWAP1 DIV PUSH20 0xFFFFFFFFFFFFFFFFFFFFFFFFFFFFFFFFFFFFFFFF AND PUSH20 0xFFFFFFFFFFFFFFFFFFFFFFFFFFFFFFFFFFFFFFFF AND EQ PUSH2 0x1967 JUMPI PUSH1 0x40 MLOAD PUSH32 0x8C379A000000000000000000000000000000000000000000000000000000000 DUP2 MSTORE PUSH1 0x4 ADD DUP1 DUP1 PUSH1 0x20 ADD DUP3 DUP2 SUB DUP3 MSTORE PUSH1 0x20 DUP2 MSTORE PUSH1 0x20 ADD DUP1 PUSH32 0x4F776E61626C653A2063616C6C6572206973206E6F7420746865206F776E6572 DUP2 MSTORE POP PUSH1 0x20 ADD SWAP2 POP POP PUSH1 0x40 MLOAD DUP1 SWAP2 SUB SWAP1 REVERT JUMPDEST PUSH1 0x1 PUSH1 0x6 PUSH1 0x0 DUP4 PUSH20 0xFFFFFFFFFFFFFFFFFFFFFFFFFFFFFFFFFFFFFFFF AND PUSH20 0xFFFFFFFFFFFFFFFFFFFFFFFFFFFFFFFFFFFFFFFF AND DUP2 MSTORE PUSH1 0x20 ADD SWAP1 DUP2 MSTORE PUSH1 0x20 ADD PUSH1 0x0 KECCAK256 PUSH1 0x0 PUSH2 0x100 EXP DUP2 SLOAD DUP2 PUSH1 0xFF MUL NOT AND SWAP1 DUP4 ISZERO ISZERO MUL OR SWAP1 SSTORE POP POP JUMP JUMPDEST PUSH1 0x0 PUSH8 0xDE0B6B3A7640000 DUP4 GT ISZERO PUSH2 0x1A42 JUMPI PUSH1 0x40 MLOAD PUSH32 0x8C379A000000000000000000000000000000000000000000000000000000000 DUP2 MSTORE PUSH1 0x4 ADD DUP1 DUP1 PUSH1 0x20 ADD DUP3 DUP2 SUB DUP3 MSTORE PUSH1 0x1F DUP2 MSTORE PUSH1 0x20 ADD DUP1 PUSH32 0x416D6F756E74206D757374206265206C657373207468616E20737570706C7900 DUP2 MSTORE POP PUSH1 0x20 ADD SWAP2 POP POP PUSH1 0x40 MLOAD DUP1 SWAP2 SUB SWAP1 REVERT JUMPDEST DUP2 PUSH2 0x1A62 JUMPI PUSH1 0x0 PUSH2 0x1A52 DUP5 PUSH2 0x34EC JUMP JUMPDEST POP POP POP POP POP SWAP1 POP DUP1 SWAP2 POP POP PUSH2 0x1A79 JUMP JUMPDEST PUSH1 0x0 PUSH2 0x1A6D DUP5 PUSH2 0x34EC JUMP JUMPDEST POP POP POP POP SWAP2 POP POP DUP1 SWAP2 POP POP JUMPDEST SWAP3 SWAP2 POP POP JUMP JUMPDEST PUSH32 0x0 DUP2 JUMP JUMPDEST PUSH1 0x15 PUSH1 0x1 SWAP1 SLOAD SWAP1 PUSH2 0x100 EXP SWAP1 DIV PUSH1 0xFF AND DUP2 JUMP JUMPDEST PUSH2 0x1ABE PUSH2 0x2D6B JUMP JUMPDEST PUSH20 0xFFFFFFFFFFFFFFFFFFFFFFFFFFFFFFFFFFFFFFFF AND PUSH1 0x0 DUP1 SLOAD SWAP1 PUSH2 0x100 EXP SWAP1 DIV PUSH20 0xFFFFFFFFFFFFFFFFFFFFFFFFFFFFFFFFFFFFFFFF AND PUSH20 0xFFFFFFFFFFFFFFFFFFFFFFFFFFFFFFFFFFFFFFFF AND EQ PUSH2 0x1B7E JUMPI PUSH1 0x40 MLOAD PUSH32 0x8C379A000000000000000000000000000000000000000000000000000000000 DUP2 MSTORE PUSH1 0x4 ADD DUP1 DUP1 PUSH1 0x20 ADD DUP3 DUP2 SUB DUP3 MSTORE PUSH1 0x20 DUP2 MSTORE PUSH1 0x20 ADD DUP1 PUSH32 0x4F776E61626C653A2063616C6C6572206973206E6F7420746865206F776E6572 DUP2 MSTORE POP PUSH1 0x20 ADD SWAP2 POP POP PUSH1 0x40 MLOAD DUP1 SWAP2 SUB SWAP1 REVERT JUMPDEST PUSH1 0x7 PUSH1 0x0 DUP3 PUSH20 0xFFFFFFFFFFFFFFFFFFFFFFFFFFFFFFFFFFFFFFFF AND PUSH20 0xFFFFFFFFFFFFFFFFFFFFFFFFFFFFFFFFFFFFFFFF AND DUP2 MSTORE PUSH1 0x20 ADD SWAP1 DUP2 MSTORE PUSH1 0x20 ADD PUSH1 0x0 KECCAK256 PUSH1 0x0 SWAP1 SLOAD SWAP1 PUSH2 0x100 EXP SWAP1 DIV PUSH1 0xFF AND ISZERO PUSH2 0x1C3E JUMPI PUSH1 0x40 MLOAD PUSH32 0x8C379A000000000000000000000000000000000000000000000000000000000 DUP2 MSTORE PUSH1 0x4 ADD DUP1 DUP1 PUSH1 0x20 ADD DUP3 DUP2 SUB DUP3 MSTORE PUSH1 0x1B DUP2 MSTORE PUSH1 0x20 ADD DUP1 PUSH32 0x4163636F756E7420697320616C7265616479206578636C756465640000000000 DUP2 MSTORE POP PUSH1 0x20 ADD SWAP2 POP POP PUSH1 0x40 MLOAD DUP1 SWAP2 SUB SWAP1 REVERT JUMPDEST PUSH1 0x0 PUSH1 0x3 PUSH1 0x0 DUP4 PUSH20 0xFFFFFFFFFFFFFFFFFFFFFFFFFFFFFFFFFFFFFFFF AND PUSH20 0xFFFFFFFFFFFFFFFFFFFFFFFFFFFFFFFFFFFFFFFF AND DUP2 MSTORE PUSH1 0x20 ADD SWAP1 DUP2 MSTORE PUSH1 0x20 ADD PUSH1 0x0 KECCAK256 SLOAD GT ISZERO PUSH2 0x1D12 JUMPI PUSH2 0x1CCE PUSH1 0x3 PUSH1 0x0 DUP4 PUSH20 0xFFFFFFFFFFFFFFFFFFFFFFFFFFFFFFFFFFFFFFFF AND PUSH20 0xFFFFFFFFFFFFFFFFFFFFFFFFFFFFFFFFFFFFFFFF AND DUP2 MSTORE PUSH1 0x20 ADD SWAP1 DUP2 MSTORE PUSH1 0x20 ADD PUSH1 0x0 KECCAK256 SLOAD PUSH2 0x102A JUMP JUMPDEST PUSH1 0x4 PUSH1 0x0 DUP4 PUSH20 0xFFFFFFFFFFFFFFFFFFFFFFFFFFFFFFFFFFFFFFFF AND PUSH20 0xFFFFFFFFFFFFFFFFFFFFFFFFFFFFFFFFFFFFFFFF AND DUP2 MSTORE PUSH1 0x20 ADD SWAP1 DUP2 MSTORE PUSH1 0x20 ADD PUSH1 0x0 KECCAK256 DUP2 SWAP1 SSTORE POP JUMPDEST PUSH1 0x1 PUSH1 0x7 PUSH1 0x0 DUP4 PUSH20 0xFFFFFFFFFFFFFFFFFFFFFFFFFFFFFFFFFFFFFFFF AND PUSH20 0xFFFFFFFFFFFFFFFFFFFFFFFFFFFFFFFFFFFFFFFF AND DUP2 MSTORE PUSH1 0x20 ADD SWAP1 DUP2 MSTORE PUSH1 0x20 ADD PUSH1 0x0 KECCAK256 PUSH1 0x0 PUSH2 0x100 EXP DUP2 SLOAD DUP2 PUSH1 0xFF MUL NOT AND SWAP1 DUP4 ISZERO ISZERO MUL OR SWAP1 SSTORE POP PUSH1 0x8 DUP2 SWAP1 DUP1 PUSH1 0x1 DUP2 SLOAD ADD DUP1 DUP3 SSTORE DUP1 SWAP2 POP POP PUSH1 0x1 SWAP1 SUB SWAP1 PUSH1 0x0 MSTORE PUSH1 0x20 PUSH1 0x0 KECCAK256 ADD PUSH1 0x0 SWAP1 SWAP2 SWAP1 SWAP2 SWAP1 SWAP2 PUSH2 0x100 EXP DUP2 SLOAD DUP2 PUSH20 0xFFFFFFFFFFFFFFFFFFFFFFFFFFFFFFFFFFFFFFFF MUL NOT AND SWAP1 DUP4 PUSH20 0xFFFFFFFFFFFFFFFFFFFFFFFFFFFFFFFFFFFFFFFF AND MUL OR SWAP1 SSTORE POP POP JUMP JUMPDEST PUSH1 0x0 PUSH1 0x6 PUSH1 0x0 DUP4 PUSH20 0xFFFFFFFFFFFFFFFFFFFFFFFFFFFFFFFFFFFFFFFF AND PUSH20 0xFFFFFFFFFFFFFFFFFFFFFFFFFFFFFFFFFFFFFFFF AND DUP2 MSTORE PUSH1 0x20 ADD SWAP1 DUP2 MSTORE PUSH1 0x20 ADD PUSH1 0x0 KECCAK256 PUSH1 0x0 SWAP1 SLOAD SWAP1 PUSH2 0x100 EXP SWAP1 DIV PUSH1 0xFF AND SWAP1 POP SWAP2 SWAP1 POP JUMP JUMPDEST PUSH1 0x13 SLOAD DUP2 JUMP JUMPDEST PUSH1 0x0 PUSH1 0x7 PUSH1 0x0 DUP4 PUSH20 0xFFFFFFFFFFFFFFFFFFFFFFFFFFFFFFFFFFFFFFFF AND PUSH20 0xFFFFFFFFFFFFFFFFFFFFFFFFFFFFFFFFFFFFFFFF AND DUP2 MSTORE PUSH1 0x20 ADD SWAP1 DUP2 MSTORE PUSH1 0x20 ADD PUSH1 0x0 KECCAK256 PUSH1 0x0 SWAP1 SLOAD SWAP1 PUSH2 0x100 EXP SWAP1 DIV PUSH1 0xFF AND ISZERO PUSH2 0x1EC7 JUMPI PUSH1 0x4 PUSH1 0x0 DUP4 PUSH20 0xFFFFFFFFFFFFFFFFFFFFFFFFFFFFFFFFFFFFFFFF AND PUSH20 0xFFFFFFFFFFFFFFFFFFFFFFFFFFFFFFFFFFFFFFFF AND DUP2 MSTORE PUSH1 0x20 ADD SWAP1 DUP2 MSTORE PUSH1 0x20 ADD PUSH1 0x0 KECCAK256 SLOAD SWAP1 POP PUSH2 0x1F12 JUMP JUMPDEST PUSH2 0x1F0F PUSH1 0x3 PUSH1 0x0 DUP5 PUSH20 0xFFFFFFFFFFFFFFFFFFFFFFFFFFFFFFFFFFFFFFFF AND PUSH20 0xFFFFFFFFFFFFFFFFFFFFFFFFFFFFFFFFFFFFFFFF AND DUP2 MSTORE PUSH1 0x20 ADD SWAP1 DUP2 MSTORE PUSH1 0x20 ADD PUSH1 0x0 KECCAK256 SLOAD PUSH2 0x102A JUMP JUMPDEST SWAP1 POP JUMPDEST SWAP2 SWAP1 POP JUMP JUMPDEST PUSH2 0x1F1F PUSH2 0x2D6B JUMP JUMPDEST PUSH20 0xFFFFFFFFFFFFFFFFFFFFFFFFFFFFFFFFFFFFFFFF AND PUSH1 0x0 DUP1 SLOAD SWAP1 PUSH2 0x100 EXP SWAP1 DIV PUSH20 0xFFFFFFFFFFFFFFFFFFFFFFFFFFFFFFFFFFFFFFFF AND PUSH20 0xFFFFFFFFFFFFFFFFFFFFFFFFFFFFFFFFFFFFFFFF AND EQ PUSH2 0x1FDF JUMPI PUSH1 0x40 MLOAD PUSH32 0x8C379A000000000000000000000000000000000000000000000000000000000 DUP2 MSTORE PUSH1 0x4 ADD DUP1 DUP1 PUSH1 0x20 ADD DUP3 DUP2 SUB DUP3 MSTORE PUSH1 0x20 DUP2 MSTORE PUSH1 0x20 ADD DUP1 PUSH32 0x4F776E61626C653A2063616C6C6572206973206E6F7420746865206F776E6572 DUP2 MSTORE POP PUSH1 0x20 ADD SWAP2 POP POP PUSH1 0x40 MLOAD DUP1 SWAP2 SUB SWAP1 REVERT JUMPDEST PUSH1 0x0 PUSH20 0xFFFFFFFFFFFFFFFFFFFFFFFFFFFFFFFFFFFFFFFF AND PUSH1 0x0 DUP1 SLOAD SWAP1 PUSH2 0x100 EXP SWAP1 DIV PUSH20 0xFFFFFFFFFFFFFFFFFFFFFFFFFFFFFFFFFFFFFFFF AND PUSH20 0xFFFFFFFFFFFFFFFFFFFFFFFFFFFFFFFFFFFFFFFF AND PUSH32 0x8BE0079C531659141344CD1FD0A4F28419497F9722A3DAAFE3B4186F6B6457E0 PUSH1 0x40 MLOAD PUSH1 0x40 MLOAD DUP1 SWAP2 SUB SWAP1 LOG3 PUSH1 0x0 DUP1 PUSH1 0x0 PUSH2 0x100 EXP DUP2 SLOAD DUP2 PUSH20 0xFFFFFFFFFFFFFFFFFFFFFFFFFFFFFFFFFFFFFFFF MUL NOT AND SWAP1 DUP4 PUSH20 0xFFFFFFFFFFFFFFFFFFFFFFFFFFFFFFFFFFFFFFFF AND MUL OR SWAP1 SSTORE POP JUMP JUMPDEST PUSH1 0x16 SLOAD DUP2 JUMP JUMPDEST PUSH1 0x0 PUSH1 0x7 PUSH1 0x0 DUP4 PUSH20 0xFFFFFFFFFFFFFFFFFFFFFFFFFFFFFFFFFFFFFFFF AND PUSH20 0xFFFFFFFFFFFFFFFFFFFFFFFFFFFFFFFFFFFFFFFF AND DUP2 MSTORE PUSH1 0x20 ADD SWAP1 DUP2 MSTORE PUSH1 0x20 ADD PUSH1 0x0 KECCAK256 PUSH1 0x0 SWAP1 SLOAD SWAP1 PUSH2 0x100 EXP SWAP1 DIV PUSH1 0xFF AND SWAP1 POP SWAP2 SWAP1 POP JUMP JUMPDEST PUSH1 0x0 DUP1 PUSH1 0x0 SWAP1 SLOAD SWAP1 PUSH2 0x100 EXP SWAP1 DIV PUSH20 0xFFFFFFFFFFFFFFFFFFFFFFFFFFFFFFFFFFFFFFFF AND SWAP1 POP SWAP1 JUMP JUMPDEST PUSH2 0x212A PUSH2 0x2D6B JUMP JUMPDEST PUSH20 0xFFFFFFFFFFFFFFFFFFFFFFFFFFFFFFFFFFFFFFFF AND PUSH1 0x0 DUP1 SLOAD SWAP1 PUSH2 0x100 EXP SWAP1 DIV PUSH20 0xFFFFFFFFFFFFFFFFFFFFFFFFFFFFFFFFFFFFFFFF AND PUSH20 0xFFFFFFFFFFFFFFFFFFFFFFFFFFFFFFFFFFFFFFFF AND EQ PUSH2 0x21EA JUMPI PUSH1 0x40 MLOAD PUSH32 0x8C379A000000000000000000000000000000000000000000000000000000000 DUP2 MSTORE PUSH1 0x4 ADD DUP1 DUP1 PUSH1 0x20 ADD DUP3 DUP2 SUB DUP3 MSTORE PUSH1 0x20 DUP2 MSTORE PUSH1 0x20 ADD DUP1 PUSH32 0x4F776E61626C653A2063616C6C6572206973206E6F7420746865206F776E6572 DUP2 MSTORE POP PUSH1 0x20 ADD SWAP2 POP POP PUSH1 0x40 MLOAD DUP1 SWAP2 SUB SWAP1 REVERT JUMPDEST DUP1 PUSH1 0x13 DUP2 SWAP1 SSTORE POP POP JUMP JUMPDEST PUSH1 0x60 PUSH1 0xF DUP1 SLOAD PUSH1 0x1 DUP2 PUSH1 0x1 AND ISZERO PUSH2 0x100 MUL SUB AND PUSH1 0x2 SWAP1 DIV DUP1 PUSH1 0x1F ADD PUSH1 0x20 DUP1 SWAP2 DIV MUL PUSH1 0x20 ADD PUSH1 0x40 MLOAD SWAP1 DUP2 ADD PUSH1 0x40 MSTORE DUP1 SWAP3 SWAP2 SWAP1 DUP2 DUP2 MSTORE PUSH1 0x20 ADD DUP3 DUP1 SLOAD PUSH1 0x1 DUP2 PUSH1 0x1 AND ISZERO PUSH2 0x100 MUL SUB AND PUSH1 0x2 SWAP1 DIV DUP1 ISZERO PUSH2 0x228C JUMPI DUP1 PUSH1 0x1F LT PUSH2 0x2261 JUMPI PUSH2 0x100 DUP1 DUP4 SLOAD DIV MUL DUP4 MSTORE SWAP2 PUSH1 0x20 ADD SWAP2 PUSH2 0x228C JUMP JUMPDEST DUP3 ADD SWAP2 SWAP1 PUSH1 0x0 MSTORE PUSH1 0x20 PUSH1 0x0 KECCAK256 SWAP1 JUMPDEST DUP2 SLOAD DUP2 MSTORE SWAP1 PUSH1 0x1 ADD SWAP1 PUSH1 0x20 ADD DUP1 DUP4 GT PUSH2 0x226F JUMPI DUP3 SWAP1 SUB PUSH1 0x1F AND DUP3 ADD SWAP2 JUMPDEST POP POP POP POP POP SWAP1 POP SWAP1 JUMP JUMPDEST PUSH1 0x0 PUSH2 0x2359 PUSH2 0x22A3 PUSH2 0x2D6B JUMP JUMPDEST DUP5 PUSH2 0x2354 DUP6 PUSH1 0x40 MLOAD DUP1 PUSH1 0x60 ADD PUSH1 0x40 MSTORE DUP1 PUSH1 0x25 DUP2 MSTORE PUSH1 0x20 ADD PUSH2 0x503C PUSH1 0x25 SWAP2 CODECOPY PUSH1 0x5 PUSH1 0x0 PUSH2 0x22CD PUSH2 0x2D6B JUMP JUMPDEST PUSH20 0xFFFFFFFFFFFFFFFFFFFFFFFFFFFFFFFFFFFFFFFF AND PUSH20 0xFFFFFFFFFFFFFFFFFFFFFFFFFFFFFFFFFFFFFFFF AND DUP2 MSTORE PUSH1 0x20 ADD SWAP1 DUP2 MSTORE PUSH1 0x20 ADD PUSH1 0x0 KECCAK256 PUSH1 0x0 DUP11 PUSH20 0xFFFFFFFFFFFFFFFFFFFFFFFFFFFFFFFFFFFFFFFF AND PUSH20 0xFFFFFFFFFFFFFFFFFFFFFFFFFFFFFFFFFFFFFFFF AND DUP2 MSTORE PUSH1 0x20 ADD SWAP1 DUP2 MSTORE PUSH1 0x20 ADD PUSH1 0x0 KECCAK256 SLOAD PUSH2 0x332F SWAP1 SWAP3 SWAP2 SWAP1 PUSH4 0xFFFFFFFF AND JUMP JUMPDEST PUSH2 0x2D73 JUMP JUMPDEST PUSH1 0x1 SWAP1 POP SWAP3 SWAP2 POP POP JUMP JUMPDEST CALLER PUSH20 0xFFFFFFFFFFFFFFFFFFFFFFFFFFFFFFFFFFFFFFFF AND PUSH1 0x1 PUSH1 0x0 SWAP1 SLOAD SWAP1 PUSH2 0x100 EXP SWAP1 DIV PUSH20 0xFFFFFFFFFFFFFFFFFFFFFFFFFFFFFFFFFFFFFFFF AND PUSH20 0xFFFFFFFFFFFFFFFFFFFFFFFFFFFFFFFFFFFFFFFF AND EQ PUSH2 0x2409 JUMPI PUSH1 0x40 MLOAD PUSH32 0x8C379A000000000000000000000000000000000000000000000000000000000 DUP2 MSTORE PUSH1 0x4 ADD DUP1 DUP1 PUSH1 0x20 ADD DUP3 DUP2 SUB DUP3 MSTORE PUSH1 0x23 DUP2 MSTORE PUSH1 0x20 ADD DUP1 PUSH2 0x5019 PUSH1 0x23 SWAP2 CODECOPY PUSH1 0x40 ADD SWAP2 POP POP PUSH1 0x40 MLOAD DUP1 SWAP2 SUB SWAP1 REVERT JUMPDEST PUSH1 0x2 SLOAD TIMESTAMP GT PUSH2 0x2480 JUMPI PUSH1 0x40 MLOAD PUSH32 0x8C379A000000000000000000000000000000000000000000000000000000000 DUP2 MSTORE PUSH1 0x4 ADD DUP1 DUP1 PUSH1 0x20 ADD DUP3 DUP2 SUB DUP3 MSTORE PUSH1 0x1F DUP2 MSTORE PUSH1 0x20 ADD DUP1 PUSH32 0x436F6E7472616374206973206C6F636B656420756E74696C2037206461797300 DUP2 MSTORE POP PUSH1 0x20 ADD SWAP2 POP POP PUSH1 0x40 MLOAD DUP1 SWAP2 SUB SWAP1 REVERT JUMPDEST PUSH1 0x1 PUSH1 0x0 SWAP1 SLOAD SWAP1 PUSH2 0x100 EXP SWAP1 DIV PUSH20 0xFFFFFFFFFFFFFFFFFFFFFFFFFFFFFFFFFFFFFFFF AND PUSH20 0xFFFFFFFFFFFFFFFFFFFFFFFFFFFFFFFFFFFFFFFF AND PUSH1 0x0 DUP1 SLOAD SWAP1 PUSH2 0x100 EXP SWAP1 DIV PUSH20 0xFFFFFFFFFFFFFFFFFFFFFFFFFFFFFFFFFFFFFFFF AND PUSH20 0xFFFFFFFFFFFFFFFFFFFFFFFFFFFFFFFFFFFFFFFF AND PUSH32 0x8BE0079C531659141344CD1FD0A4F28419497F9722A3DAAFE3B4186F6B6457E0 PUSH1 0x40 MLOAD PUSH1 0x40 MLOAD DUP1 SWAP2 SUB SWAP1 LOG3 PUSH1 0x1 PUSH1 0x0 SWAP1 SLOAD SWAP1 PUSH2 0x100 EXP SWAP1 DIV PUSH20 0xFFFFFFFFFFFFFFFFFFFFFFFFFFFFFFFFFFFFFFFF AND PUSH1 0x0 DUP1 PUSH2 0x100 EXP DUP2 SLOAD DUP2 PUSH20 0xFFFFFFFFFFFFFFFFFFFFFFFFFFFFFFFFFFFFFFFF MUL NOT AND SWAP1 DUP4 PUSH20 0xFFFFFFFFFFFFFFFFFFFFFFFFFFFFFFFFFFFFFFFF AND MUL OR SWAP1 SSTORE POP JUMP JUMPDEST PUSH1 0x0 PUSH2 0x2594 PUSH2 0x258D PUSH2 0x2D6B JUMP JUMPDEST DUP5 DUP5 PUSH2 0x2F6A JUMP JUMPDEST PUSH1 0x1 SWAP1 POP SWAP3 SWAP2 POP POP JUMP JUMPDEST PUSH1 0x0 PUSH1 0x2 SLOAD SWAP1 POP SWAP1 JUMP JUMPDEST PUSH2 0x25B0 PUSH2 0x2D6B JUMP JUMPDEST PUSH20 0xFFFFFFFFFFFFFFFFFFFFFFFFFFFFFFFFFFFFFFFF AND PUSH1 0x0 DUP1 SLOAD SWAP1 PUSH2 0x100 EXP SWAP1 DIV PUSH20 0xFFFFFFFFFFFFFFFFFFFFFFFFFFFFFFFFFFFFFFFF AND PUSH20 0xFFFFFFFFFFFFFFFFFFFFFFFFFFFFFFFFFFFFFFFF AND EQ PUSH2 0x2670 JUMPI PUSH1 0x40 MLOAD PUSH32 0x8C379A000000000000000000000000000000000000000000000000000000000 DUP2 MSTORE PUSH1 0x4 ADD DUP1 DUP1 PUSH1 0x20 ADD DUP3 DUP2 SUB DUP3 MSTORE PUSH1 0x20 DUP2 MSTORE PUSH1 0x20 ADD DUP1 PUSH32 0x4F776E61626C653A2063616C6C6572206973206E6F7420746865206F776E6572 DUP2 MSTORE POP PUSH1 0x20 ADD SWAP2 POP POP PUSH1 0x40 MLOAD DUP1 SWAP2 SUB SWAP1 REVERT JUMPDEST DUP1 PUSH1 0x15 PUSH1 0x1 PUSH2 0x100 EXP DUP2 SLOAD DUP2 PUSH1 0xFF MUL NOT AND SWAP1 DUP4 ISZERO ISZERO MUL OR SWAP1 SSTORE POP PUSH32 0x53726DFCAF90650AA7EB35524F4D3220F07413C8D6CB404CC8C18BF5591BC159 DUP2 PUSH1 0x40 MLOAD DUP1 DUP3 ISZERO ISZERO DUP2 MSTORE PUSH1 0x20 ADD SWAP2 POP POP PUSH1 0x40 MLOAD DUP1 SWAP2 SUB SWAP1 LOG1 POP JUMP JUMPDEST PUSH2 0x26CE PUSH2 0x2D6B JUMP JUMPDEST PUSH20 0xFFFFFFFFFFFFFFFFFFFFFFFFFFFFFFFFFFFFFFFF AND PUSH1 0x0 DUP1 SLOAD SWAP1 PUSH2 0x100 EXP SWAP1 DIV PUSH20 0xFFFFFFFFFFFFFFFFFFFFFFFFFFFFFFFFFFFFFFFF AND PUSH20 0xFFFFFFFFFFFFFFFFFFFFFFFFFFFFFFFFFFFFFFFF AND EQ PUSH2 0x278E JUMPI PUSH1 0x40 MLOAD PUSH32 0x8C379A000000000000000000000000000000000000000000000000000000000 DUP2 MSTORE PUSH1 0x4 ADD DUP1 DUP1 PUSH1 0x20 ADD DUP3 DUP2 SUB DUP3 MSTORE PUSH1 0x20 DUP2 MSTORE PUSH1 0x20 ADD DUP1 PUSH32 0x4F776E61626C653A2063616C6C6572206973206E6F7420746865206F776E6572 DUP2 MSTORE POP PUSH1 0x20 ADD SWAP2 POP POP PUSH1 0x40 MLOAD DUP1 SWAP2 SUB SWAP1 REVERT JUMPDEST PUSH2 0x27BC PUSH1 0x64 PUSH2 0x27AE DUP4 PUSH8 0xDE0B6B3A7640000 PUSH2 0x3592 SWAP1 SWAP2 SWAP1 PUSH4 0xFFFFFFFF AND JUMP JUMPDEST PUSH2 0x341A SWAP1 SWAP2 SWAP1 PUSH4 0xFFFFFFFF AND JUMP JUMPDEST PUSH1 0x16 DUP2 SWAP1 SSTORE POP POP JUMP JUMPDEST PUSH2 0x27CD PUSH2 0x2D6B JUMP JUMPDEST PUSH20 0xFFFFFFFFFFFFFFFFFFFFFFFFFFFFFFFFFFFFFFFF AND PUSH1 0x0 DUP1 SLOAD SWAP1 PUSH2 0x100 EXP SWAP1 DIV PUSH20 0xFFFFFFFFFFFFFFFFFFFFFFFFFFFFFFFFFFFFFFFF AND PUSH20 0xFFFFFFFFFFFFFFFFFFFFFFFFFFFFFFFFFFFFFFFF AND EQ PUSH2 0x288D JUMPI PUSH1 0x40 MLOAD PUSH32 0x8C379A000000000000000000000000000000000000000000000000000000000 DUP2 MSTORE PUSH1 0x4 ADD DUP1 DUP1 PUSH1 0x20 ADD DUP3 DUP2 SUB DUP3 MSTORE PUSH1 0x20 DUP2 MSTORE PUSH1 0x20 ADD DUP1 PUSH32 0x4F776E61626C653A2063616C6C6572206973206E6F7420746865206F776E6572 DUP2 MSTORE POP PUSH1 0x20 ADD SWAP2 POP POP PUSH1 0x40 MLOAD DUP1 SWAP2 SUB SWAP1 REVERT JUMPDEST PUSH1 0x0 DUP1 SLOAD SWAP1 PUSH2 0x100 EXP SWAP1 DIV PUSH20 0xFFFFFFFFFFFFFFFFFFFFFFFFFFFFFFFFFFFFFFFF AND PUSH1 0x1 PUSH1 0x0 PUSH2 0x100 EXP DUP2 SLOAD DUP2 PUSH20 0xFFFFFFFFFFFFFFFFFFFFFFFFFFFFFFFFFFFFFFFF MUL NOT AND SWAP1 DUP4 PUSH20 0xFFFFFFFFFFFFFFFFFFFFFFFFFFFFFFFFFFFFFFFF AND MUL OR SWAP1 SSTORE POP PUSH1 0x0 DUP1 PUSH1 0x0 PUSH2 0x100 EXP DUP2 SLOAD DUP2 PUSH20 0xFFFFFFFFFFFFFFFFFFFFFFFFFFFFFFFFFFFFFFFF MUL NOT AND SWAP1 DUP4 PUSH20 0xFFFFFFFFFFFFFFFFFFFFFFFFFFFFFFFFFFFFFFFF AND MUL OR SWAP1 SSTORE POP DUP1 TIMESTAMP ADD PUSH1 0x2 DUP2 SWAP1 SSTORE POP PUSH1 0x0 PUSH20 0xFFFFFFFFFFFFFFFFFFFFFFFFFFFFFFFFFFFFFFFF AND PUSH1 0x0 DUP1 SLOAD SWAP1 PUSH2 0x100 EXP SWAP1 DIV PUSH20 0xFFFFFFFFFFFFFFFFFFFFFFFFFFFFFFFFFFFFFFFF AND PUSH20 0xFFFFFFFFFFFFFFFFFFFFFFFFFFFFFFFFFFFFFFFF AND PUSH32 0x8BE0079C531659141344CD1FD0A4F28419497F9722A3DAAFE3B4186F6B6457E0 PUSH1 0x40 MLOAD PUSH1 0x40 MLOAD DUP1 SWAP2 SUB SWAP1 LOG3 POP JUMP JUMPDEST PUSH1 0x0 PUSH1 0x5 PUSH1 0x0 DUP5 PUSH20 0xFFFFFFFFFFFFFFFFFFFFFFFFFFFFFFFFFFFFFFFF AND PUSH20 0xFFFFFFFFFFFFFFFFFFFFFFFFFFFFFFFFFFFFFFFF AND DUP2 MSTORE PUSH1 0x20 ADD SWAP1 DUP2 MSTORE PUSH1 0x20 ADD PUSH1 0x0 KECCAK256 PUSH1 0x0 DUP4 PUSH20 0xFFFFFFFFFFFFFFFFFFFFFFFFFFFFFFFFFFFFFFFF AND PUSH20 0xFFFFFFFFFFFFFFFFFFFFFFFFFFFFFFFFFFFFFFFF AND DUP2 MSTORE PUSH1 0x20 ADD SWAP1 DUP2 MSTORE PUSH1 0x20 ADD PUSH1 0x0 KECCAK256 SLOAD SWAP1 POP SWAP3 SWAP2 POP POP JUMP JUMPDEST PUSH2 0x2A45 PUSH2 0x2D6B JUMP JUMPDEST PUSH20 0xFFFFFFFFFFFFFFFFFFFFFFFFFFFFFFFFFFFFFFFF AND PUSH1 0x0 DUP1 SLOAD SWAP1 PUSH2 0x100 EXP SWAP1 DIV PUSH20 0xFFFFFFFFFFFFFFFFFFFFFFFFFFFFFFFFFFFFFFFF AND PUSH20 0xFFFFFFFFFFFFFFFFFFFFFFFFFFFFFFFFFFFFFFFF AND EQ PUSH2 0x2B05 JUMPI PUSH1 0x40 MLOAD PUSH32 0x8C379A000000000000000000000000000000000000000000000000000000000 DUP2 MSTORE PUSH1 0x4 ADD DUP1 DUP1 PUSH1 0x20 ADD DUP3 DUP2 SUB DUP3 MSTORE PUSH1 0x20 DUP2 MSTORE PUSH1 0x20 ADD DUP1 PUSH32 0x4F776E61626C653A2063616C6C6572206973206E6F7420746865206F776E6572 DUP2 MSTORE POP PUSH1 0x20 ADD SWAP2 POP POP PUSH1 0x40 MLOAD DUP1 SWAP2 SUB SWAP1 REVERT JUMPDEST PUSH1 0x0 PUSH1 0x6 PUSH1 0x0 DUP4 PUSH20 0xFFFFFFFFFFFFFFFFFFFFFFFFFFFFFFFFFFFFFFFF AND PUSH20 0xFFFFFFFFFFFFFFFFFFFFFFFFFFFFFFFFFFFFFFFF AND DUP2 MSTORE PUSH1 0x20 ADD SWAP1 DUP2 MSTORE PUSH1 0x20 ADD PUSH1 0x0 KECCAK256 PUSH1 0x0 PUSH2 0x100 EXP DUP2 SLOAD DUP2 PUSH1 0xFF MUL NOT AND SWAP1 DUP4 ISZERO ISZERO MUL OR SWAP1 SSTORE POP POP JUMP JUMPDEST PUSH2 0x2B68 PUSH2 0x2D6B JUMP JUMPDEST PUSH20 0xFFFFFFFFFFFFFFFFFFFFFFFFFFFFFFFFFFFFFFFF AND PUSH1 0x0 DUP1 SLOAD SWAP1 PUSH2 0x100 EXP SWAP1 DIV PUSH20 0xFFFFFFFFFFFFFFFFFFFFFFFFFFFFFFFFFFFFFFFF AND PUSH20 0xFFFFFFFFFFFFFFFFFFFFFFFFFFFFFFFFFFFFFFFF AND EQ PUSH2 0x2C28 JUMPI PUSH1 0x40 MLOAD PUSH32 0x8C379A000000000000000000000000000000000000000000000000000000000 DUP2 MSTORE PUSH1 0x4 ADD DUP1 DUP1 PUSH1 0x20 ADD DUP3 DUP2 SUB DUP3 MSTORE PUSH1 0x20 DUP2 MSTORE PUSH1 0x20 ADD DUP1 PUSH32 0x4F776E61626C653A2063616C6C6572206973206E6F7420746865206F776E6572 DUP2 MSTORE POP PUSH1 0x20 ADD SWAP2 POP POP PUSH1 0x40 MLOAD DUP1 SWAP2 SUB SWAP1 REVERT JUMPDEST PUSH1 0x0 PUSH20 0xFFFFFFFFFFFFFFFFFFFFFFFFFFFFFFFFFFFFFFFF AND DUP2 PUSH20 0xFFFFFFFFFFFFFFFFFFFFFFFFFFFFFFFFFFFFFFFF AND EQ ISZERO PUSH2 0x2CAE JUMPI PUSH1 0x40 MLOAD PUSH32 0x8C379A000000000000000000000000000000000000000000000000000000000 DUP2 MSTORE PUSH1 0x4 ADD DUP1 DUP1 PUSH1 0x20 ADD DUP3 DUP2 SUB DUP3 MSTORE PUSH1 0x26 DUP2 MSTORE PUSH1 0x20 ADD DUP1 PUSH2 0x4EC2 PUSH1 0x26 SWAP2 CODECOPY PUSH1 0x40 ADD SWAP2 POP POP PUSH1 0x40 MLOAD DUP1 SWAP2 SUB SWAP1 REVERT JUMPDEST DUP1 PUSH20 0xFFFFFFFFFFFFFFFFFFFFFFFFFFFFFFFFFFFFFFFF AND PUSH1 0x0 DUP1 SLOAD SWAP1 PUSH2 0x100 EXP SWAP1 DIV PUSH20 0xFFFFFFFFFFFFFFFFFFFFFFFFFFFFFFFFFFFFFFFF AND PUSH20 0xFFFFFFFFFFFFFFFFFFFFFFFFFFFFFFFFFFFFFFFF AND PUSH32 0x8BE0079C531659141344CD1FD0A4F28419497F9722A3DAAFE3B4186F6B6457E0 PUSH1 0x40 MLOAD PUSH1 0x40 MLOAD DUP1 SWAP2 SUB SWAP1 LOG3 DUP1 PUSH1 0x0 DUP1 PUSH2 0x100 EXP DUP2 SLOAD DUP2 PUSH20 0xFFFFFFFFFFFFFFFFFFFFFFFFFFFFFFFFFFFFFFFF MUL NOT AND SWAP1 DUP4 PUSH20 0xFFFFFFFFFFFFFFFFFFFFFFFFFFFFFFFFFFFFFFFF AND MUL OR SWAP1 SSTORE POP POP JUMP JUMPDEST PUSH1 0x0 CALLER SWAP1 POP SWAP1 JUMP JUMPDEST PUSH1 0x0 PUSH20 0xFFFFFFFFFFFFFFFFFFFFFFFFFFFFFFFFFFFFFFFF AND DUP4 PUSH20 0xFFFFFFFFFFFFFFFFFFFFFFFFFFFFFFFFFFFFFFFF AND EQ ISZERO PUSH2 0x2DF9 JUMPI PUSH1 0x40 MLOAD PUSH32 0x8C379A000000000000000000000000000000000000000000000000000000000 DUP2 MSTORE PUSH1 0x4 ADD DUP1 DUP1 PUSH1 0x20 ADD DUP3 DUP2 SUB DUP3 MSTORE PUSH1 0x24 DUP2 MSTORE PUSH1 0x20 ADD DUP1 PUSH2 0x4FC9 PUSH1 0x24 SWAP2 CODECOPY PUSH1 0x40 ADD SWAP2 POP POP PUSH1 0x40 MLOAD DUP1 SWAP2 SUB SWAP1 REVERT JUMPDEST PUSH1 0x0 PUSH20 0xFFFFFFFFFFFFFFFFFFFFFFFFFFFFFFFFFFFFFFFF AND DUP3 PUSH20 0xFFFFFFFFFFFFFFFFFFFFFFFFFFFFFFFFFFFFFFFF AND EQ ISZERO PUSH2 0x2E7F JUMPI PUSH1 0x40 MLOAD PUSH32 0x8C379A000000000000000000000000000000000000000000000000000000000 DUP2 MSTORE PUSH1 0x4 ADD DUP1 DUP1 PUSH1 0x20 ADD DUP3 DUP2 SUB DUP3 MSTORE PUSH1 0x22 DUP2 MSTORE PUSH1 0x20 ADD DUP1 PUSH2 0x4EE8 PUSH1 0x22 SWAP2 CODECOPY PUSH1 0x40 ADD SWAP2 POP POP PUSH1 0x40 MLOAD DUP1 SWAP2 SUB SWAP1 REVERT JUMPDEST DUP1 PUSH1 0x5 PUSH1 0x0 DUP6 PUSH20 0xFFFFFFFFFFFFFFFFFFFFFFFFFFFFFFFFFFFFFFFF AND PUSH20 0xFFFFFFFFFFFFFFFFFFFFFFFFFFFFFFFFFFFFFFFF AND DUP2 MSTORE PUSH1 0x20 ADD SWAP1 DUP2 MSTORE PUSH1 0x20 ADD PUSH1 0x0 KECCAK256 PUSH1 0x0 DUP5 PUSH20 0xFFFFFFFFFFFFFFFFFFFFFFFFFFFFFFFFFFFFFFFF AND PUSH20 0xFFFFFFFFFFFFFFFFFFFFFFFFFFFFFFFFFFFFFFFF AND DUP2 MSTORE PUSH1 0x20 ADD SWAP1 DUP2 MSTORE PUSH1 0x20 ADD PUSH1 0x0 KECCAK256 DUP2 SWAP1 SSTORE POP DUP2 PUSH20 0xFFFFFFFFFFFFFFFFFFFFFFFFFFFFFFFFFFFFFFFF AND DUP4 PUSH20 0xFFFFFFFFFFFFFFFFFFFFFFFFFFFFFFFFFFFFFFFF AND PUSH32 0x8C5BE1E5EBEC7D5BD14F71427D1E84F3DD0314C0F7B2291E5B200AC8C7C3B925 DUP4 PUSH1 0x40 MLOAD DUP1 DUP3 DUP2 MSTORE PUSH1 0x20 ADD SWAP2 POP POP PUSH1 0x40 MLOAD DUP1 SWAP2 SUB SWAP1 LOG3 POP POP POP JUMP JUMPDEST PUSH1 0x0 PUSH20 0xFFFFFFFFFFFFFFFFFFFFFFFFFFFFFFFFFFFFFFFF AND DUP4 PUSH20 0xFFFFFFFFFFFFFFFFFFFFFFFFFFFFFFFFFFFFFFFF AND EQ ISZERO PUSH2 0x2FF0 JUMPI PUSH1 0x40 MLOAD PUSH32 0x8C379A000000000000000000000000000000000000000000000000000000000 DUP2 MSTORE PUSH1 0x4 ADD DUP1 DUP1 PUSH1 0x20 ADD DUP3 DUP2 SUB DUP3 MSTORE PUSH1 0x25 DUP2 MSTORE PUSH1 0x20 ADD DUP1 PUSH2 0x4FA4 PUSH1 0x25 SWAP2 CODECOPY PUSH1 0x40 ADD SWAP2 POP POP PUSH1 0x40 MLOAD DUP1 SWAP2 SUB SWAP1 REVERT JUMPDEST PUSH1 0x0 PUSH20 0xFFFFFFFFFFFFFFFFFFFFFFFFFFFFFFFFFFFFFFFF AND DUP3 PUSH20 0xFFFFFFFFFFFFFFFFFFFFFFFFFFFFFFFFFFFFFFFF AND EQ ISZERO PUSH2 0x3076 JUMPI PUSH1 0x40 MLOAD PUSH32 0x8C379A000000000000000000000000000000000000000000000000000000000 DUP2 MSTORE PUSH1 0x4 ADD DUP1 DUP1 PUSH1 0x20 ADD DUP3 DUP2 SUB DUP3 MSTORE PUSH1 0x23 DUP2 MSTORE PUSH1 0x20 ADD DUP1 PUSH2 0x4E75 PUSH1 0x23 SWAP2 CODECOPY PUSH1 0x40 ADD SWAP2 POP POP PUSH1 0x40 MLOAD DUP1 SWAP2 SUB SWAP1 REVERT JUMPDEST PUSH1 0x0 DUP2 GT PUSH2 0x30CF JUMPI PUSH1 0x40 MLOAD PUSH32 0x8C379A000000000000000000000000000000000000000000000000000000000 DUP2 MSTORE PUSH1 0x4 ADD DUP1 DUP1 PUSH1 0x20 ADD DUP3 DUP2 SUB DUP3 MSTORE PUSH1 0x29 DUP2 MSTORE PUSH1 0x20 ADD DUP1 PUSH2 0x4F7B PUSH1 0x29 SWAP2 CODECOPY PUSH1 0x40 ADD SWAP2 POP POP PUSH1 0x40 MLOAD DUP1 SWAP2 SUB SWAP1 REVERT JUMPDEST PUSH2 0x30D7 PUSH2 0x20F9 JUMP JUMPDEST PUSH20 0xFFFFFFFFFFFFFFFFFFFFFFFFFFFFFFFFFFFFFFFF AND DUP4 PUSH20 0xFFFFFFFFFFFFFFFFFFFFFFFFFFFFFFFFFFFFFFFF AND EQ ISZERO DUP1 ISZERO PUSH2 0x3145 JUMPI POP PUSH2 0x3115 PUSH2 0x20F9 JUMP JUMPDEST PUSH20 0xFFFFFFFFFFFFFFFFFFFFFFFFFFFFFFFFFFFFFFFF AND DUP3 PUSH20 0xFFFFFFFFFFFFFFFFFFFFFFFFFFFFFFFFFFFFFFFF AND EQ ISZERO JUMPDEST ISZERO PUSH2 0x31A6 JUMPI PUSH1 0x16 SLOAD DUP2 GT ISZERO PUSH2 0x31A5 JUMPI PUSH1 0x40 MLOAD PUSH32 0x8C379A000000000000000000000000000000000000000000000000000000000 DUP2 MSTORE PUSH1 0x4 ADD DUP1 DUP1 PUSH1 0x20 ADD DUP3 DUP2 SUB DUP3 MSTORE PUSH1 0x28 DUP2 MSTORE PUSH1 0x20 ADD DUP1 PUSH2 0x4F0A PUSH1 0x28 SWAP2 CODECOPY PUSH1 0x40 ADD SWAP2 POP POP PUSH1 0x40 MLOAD DUP1 SWAP2 SUB SWAP1 REVERT JUMPDEST JUMPDEST PUSH1 0x0 PUSH2 0x31B1 ADDRESS PUSH2 0x1E2C JUMP JUMPDEST SWAP1 POP PUSH1 0x16 SLOAD DUP2 LT PUSH2 0x31C2 JUMPI PUSH1 0x16 SLOAD SWAP1 POP JUMPDEST PUSH1 0x0 PUSH1 0x17 SLOAD DUP3 LT ISZERO SWAP1 POP DUP1 DUP1 ISZERO PUSH2 0x31E6 JUMPI POP PUSH1 0x15 PUSH1 0x0 SWAP1 SLOAD SWAP1 PUSH2 0x100 EXP SWAP1 DIV PUSH1 0xFF AND ISZERO JUMPDEST DUP1 ISZERO PUSH2 0x323E JUMPI POP PUSH32 0x0 PUSH20 0xFFFFFFFFFFFFFFFFFFFFFFFFFFFFFFFFFFFFFFFF AND DUP6 PUSH20 0xFFFFFFFFFFFFFFFFFFFFFFFFFFFFFFFFFFFFFFFF AND EQ ISZERO JUMPDEST DUP1 ISZERO PUSH2 0x3256 JUMPI POP PUSH1 0x15 PUSH1 0x1 SWAP1 SLOAD SWAP1 PUSH2 0x100 EXP SWAP1 DIV PUSH1 0xFF AND JUMPDEST ISZERO PUSH2 0x326A JUMPI PUSH1 0x17 SLOAD SWAP2 POP PUSH2 0x3269 DUP3 PUSH2 0x3618 JUMP JUMPDEST JUMPDEST PUSH1 0x0 PUSH1 0x1 SWAP1 POP PUSH1 0x6 PUSH1 0x0 DUP8 PUSH20 0xFFFFFFFFFFFFFFFFFFFFFFFFFFFFFFFFFFFFFFFF AND PUSH20 0xFFFFFFFFFFFFFFFFFFFFFFFFFFFFFFFFFFFFFFFF AND DUP2 MSTORE PUSH1 0x20 ADD SWAP1 DUP2 MSTORE PUSH1 0x20 ADD PUSH1 0x0 KECCAK256 PUSH1 0x0 SWAP1 SLOAD SWAP1 PUSH2 0x100 EXP SWAP1 DIV PUSH1 0xFF AND DUP1 PUSH2 0x3311 JUMPI POP PUSH1 0x6 PUSH1 0x0 DUP7 PUSH20 0xFFFFFFFFFFFFFFFFFFFFFFFFFFFFFFFFFFFFFFFF AND PUSH20 0xFFFFFFFFFFFFFFFFFFFFFFFFFFFFFFFFFFFFFFFF AND DUP2 MSTORE PUSH1 0x20 ADD SWAP1 DUP2 MSTORE PUSH1 0x20 ADD PUSH1 0x0 KECCAK256 PUSH1 0x0 SWAP1 SLOAD SWAP1 PUSH2 0x100 EXP SWAP1 DIV PUSH1 0xFF AND JUMPDEST ISZERO PUSH2 0x331B JUMPI PUSH1 0x0 SWAP1 POP JUMPDEST PUSH2 0x3327 DUP7 DUP7 DUP7 DUP5 PUSH2 0x36FA JUMP JUMPDEST POP POP POP POP POP POP JUMP JUMPDEST PUSH1 0x0 DUP4 DUP4 GT ISZERO DUP3 SWAP1 PUSH2 0x33DC JUMPI PUSH1 0x40 MLOAD PUSH32 0x8C379A000000000000000000000000000000000000000000000000000000000 DUP2 MSTORE PUSH1 0x4 ADD DUP1 DUP1 PUSH1 0x20 ADD DUP3 DUP2 SUB DUP3 MSTORE DUP4 DUP2 DUP2 MLOAD DUP2 MSTORE PUSH1 0x20 ADD SWAP2 POP DUP1 MLOAD SWAP1 PUSH1 0x20 ADD SWAP1 DUP1 DUP4 DUP4 PUSH1 0x0 JUMPDEST DUP4 DUP2 LT ISZERO PUSH2 0x33A1 JUMPI DUP1 DUP3 ADD MLOAD DUP2 DUP5 ADD MSTORE PUSH1 0x20 DUP2 ADD SWAP1 POP PUSH2 0x3386 JUMP JUMPDEST POP POP POP POP SWAP1 POP SWAP1 DUP2 ADD SWAP1 PUSH1 0x1F AND DUP1 ISZERO PUSH2 0x33CE JUMPI DUP1 DUP3 SUB DUP1 MLOAD PUSH1 0x1 DUP4 PUSH1 0x20 SUB PUSH2 0x100 EXP SUB NOT AND DUP2 MSTORE PUSH1 0x20 ADD SWAP2 POP JUMPDEST POP SWAP3 POP POP POP PUSH1 0x40 MLOAD DUP1 SWAP2 SUB SWAP1 REVERT JUMPDEST POP PUSH1 0x0 DUP4 DUP6 SUB SWAP1 POP DUP1 SWAP2 POP POP SWAP4 SWAP3 POP POP POP JUMP JUMPDEST PUSH1 0x0 DUP1 PUSH1 0x0 PUSH2 0x33FC PUSH2 0x3A0B JUMP JUMPDEST SWAP2 POP SWAP2 POP PUSH2 0x3413 DUP2 DUP4 PUSH2 0x341A SWAP1 SWAP2 SWAP1 PUSH4 0xFFFFFFFF AND JUMP JUMPDEST SWAP3 POP POP POP SWAP1 JUMP JUMPDEST PUSH1 0x0 PUSH2 0x345C DUP4 DUP4 PUSH1 0x40 MLOAD DUP1 PUSH1 0x40 ADD PUSH1 0x40 MSTORE DUP1 PUSH1 0x1A DUP2 MSTORE PUSH1 0x20 ADD PUSH32 0x536166654D6174683A206469766973696F6E206279207A65726F000000000000 DUP2 MSTORE POP PUSH2 0x3CB4 JUMP JUMPDEST SWAP1 POP SWAP3 SWAP2 POP POP JUMP JUMPDEST PUSH1 0x0 DUP1 DUP3 DUP5 ADD SWAP1 POP DUP4 DUP2 LT ISZERO PUSH2 0x34E2 JUMPI PUSH1 0x40 MLOAD PUSH32 0x8C379A000000000000000000000000000000000000000000000000000000000 DUP2 MSTORE PUSH1 0x4 ADD DUP1 DUP1 PUSH1 0x20 ADD DUP3 DUP2 SUB DUP3 MSTORE PUSH1 0x1B DUP2 MSTORE PUSH1 0x20 ADD DUP1 PUSH32 0x536166654D6174683A206164646974696F6E206F766572666C6F770000000000 DUP2 MSTORE POP PUSH1 0x20 ADD SWAP2 POP POP PUSH1 0x40 MLOAD DUP1 SWAP2 SUB SWAP1 REVERT JUMPDEST DUP1 SWAP2 POP POP SWAP3 SWAP2 POP POP JUMP JUMPDEST PUSH1 0x0 DUP1 PUSH1 0x0 DUP1 PUSH1 0x0 DUP1 PUSH1 0x0 DUP1 PUSH1 0x0 PUSH2 0x3503 DUP11 PUSH2 0x3D7A JUMP JUMPDEST SWAP3 POP SWAP3 POP SWAP3 POP PUSH1 0x0 DUP1 PUSH1 0x0 PUSH2 0x3521 DUP14 DUP7 DUP7 PUSH2 0x351C PUSH2 0x33EF JUMP JUMPDEST PUSH2 0x3DD4 JUMP JUMPDEST SWAP3 POP SWAP3 POP SWAP3 POP DUP3 DUP3 DUP3 DUP9 DUP9 DUP9 SWAP12 POP SWAP12 POP SWAP12 POP SWAP12 POP SWAP12 POP SWAP12 POP POP POP POP POP POP POP SWAP2 SWAP4 SWAP6 POP SWAP2 SWAP4 SWAP6 JUMP JUMPDEST PUSH1 0x0 PUSH2 0x358A DUP4 DUP4 PUSH1 0x40 MLOAD DUP1 PUSH1 0x40 ADD PUSH1 0x40 MSTORE DUP1 PUSH1 0x1E DUP2 MSTORE PUSH1 0x20 ADD PUSH32 0x536166654D6174683A207375627472616374696F6E206F766572666C6F770000 DUP2 MSTORE POP PUSH2 0x332F JUMP JUMPDEST SWAP1 POP SWAP3 SWAP2 POP POP JUMP JUMPDEST PUSH1 0x0 DUP1 DUP4 EQ ISZERO PUSH2 0x35A5 JUMPI PUSH1 0x0 SWAP1 POP PUSH2 0x3612 JUMP JUMPDEST PUSH1 0x0 DUP3 DUP5 MUL SWAP1 POP DUP3 DUP5 DUP3 DUP2 PUSH2 0x35B6 JUMPI INVALID JUMPDEST DIV EQ PUSH2 0x360D JUMPI PUSH1 0x40 MLOAD PUSH32 0x8C379A000000000000000000000000000000000000000000000000000000000 DUP2 MSTORE PUSH1 0x4 ADD DUP1 DUP1 PUSH1 0x20 ADD DUP3 DUP2 SUB DUP3 MSTORE PUSH1 0x21 DUP2 MSTORE PUSH1 0x20 ADD DUP1 PUSH2 0x4F32 PUSH1 0x21 SWAP2 CODECOPY PUSH1 0x40 ADD SWAP2 POP POP PUSH1 0x40 MLOAD DUP1 SWAP2 SUB SWAP1 REVERT JUMPDEST DUP1 SWAP2 POP POP JUMPDEST SWAP3 SWAP2 POP POP JUMP JUMPDEST PUSH1 0x1 PUSH1 0x15 PUSH1 0x0 PUSH2 0x100 EXP DUP2 SLOAD DUP2 PUSH1 0xFF MUL NOT AND SWAP1 DUP4 ISZERO ISZERO MUL OR SWAP1 SSTORE POP PUSH1 0x0 PUSH2 0x3649 PUSH1 0x2 DUP4 PUSH2 0x341A SWAP1 SWAP2 SWAP1 PUSH4 0xFFFFFFFF AND JUMP JUMPDEST SWAP1 POP PUSH1 0x0 PUSH2 0x3660 DUP3 DUP5 PUSH2 0x3548 SWAP1 SWAP2 SWAP1 PUSH4 0xFFFFFFFF AND JUMP JUMPDEST SWAP1 POP PUSH1 0x0 SELFBALANCE SWAP1 POP PUSH2 0x3670 DUP4 PUSH2 0x3E5D JUMP JUMPDEST PUSH1 0x0 PUSH2 0x3685 DUP3 SELFBALANCE PUSH2 0x3548 SWAP1 SWAP2 SWAP1 PUSH4 0xFFFFFFFF AND JUMP JUMPDEST SWAP1 POP PUSH2 0x3691 DUP4 DUP3 PUSH2 0x410B JUMP JUMPDEST PUSH32 0x17BBFB9A6069321B6DED73BD96327C9E6B7212A5CD51FF219CD61370ACAFB561 DUP5 DUP3 DUP6 PUSH1 0x40 MLOAD DUP1 DUP5 DUP2 MSTORE PUSH1 0x20 ADD DUP4 DUP2 MSTORE PUSH1 0x20 ADD DUP3 DUP2 MSTORE PUSH1 0x20 ADD SWAP4 POP POP POP POP PUSH1 0x40 MLOAD DUP1 SWAP2 SUB SWAP1 LOG1 POP POP POP POP PUSH1 0x0 PUSH1 0x15 PUSH1 0x0 PUSH2 0x100 EXP DUP2 SLOAD DUP2 PUSH1 0xFF MUL NOT AND SWAP1 DUP4 ISZERO ISZERO MUL OR SWAP1 SSTORE POP POP JUMP JUMPDEST DUP1 PUSH2 0x3708 JUMPI PUSH2 0x3707 PUSH2 0x425C JUMP JUMPDEST JUMPDEST PUSH1 0x7 PUSH1 0x0 DUP6 PUSH20 0xFFFFFFFFFFFFFFFFFFFFFFFFFFFFFFFFFFFFFFFF AND PUSH20 0xFFFFFFFFFFFFFFFFFFFFFFFFFFFFFFFFFFFFFFFF AND DUP2 MSTORE PUSH1 0x20 ADD SWAP1 DUP2 MSTORE PUSH1 0x20 ADD PUSH1 0x0 KECCAK256 PUSH1 0x0 SWAP1 SLOAD SWAP1 PUSH2 0x100 EXP SWAP1 DIV PUSH1 0xFF AND DUP1 ISZERO PUSH2 0x37AB JUMPI POP PUSH1 0x7 PUSH1 0x0 DUP5 PUSH20 0xFFFFFFFFFFFFFFFFFFFFFFFFFFFFFFFFFFFFFFFF AND PUSH20 0xFFFFFFFFFFFFFFFFFFFFFFFFFFFFFFFFFFFFFFFF AND DUP2 MSTORE PUSH1 0x20 ADD SWAP1 DUP2 MSTORE PUSH1 0x20 ADD PUSH1 0x0 KECCAK256 PUSH1 0x0 SWAP1 SLOAD SWAP1 PUSH2 0x100 EXP SWAP1 DIV PUSH1 0xFF AND ISZERO JUMPDEST ISZERO PUSH2 0x37C0 JUMPI PUSH2 0x37BB DUP5 DUP5 DUP5 PUSH2 0x429F JUMP JUMPDEST PUSH2 0x39F7 JUMP JUMPDEST PUSH1 0x7 PUSH1 0x0 DUP6 PUSH20 0xFFFFFFFFFFFFFFFFFFFFFFFFFFFFFFFFFFFFFFFF AND PUSH20 0xFFFFFFFFFFFFFFFFFFFFFFFFFFFFFFFFFFFFFFFF AND DUP2 MSTORE PUSH1 0x20 ADD SWAP1 DUP2 MSTORE PUSH1 0x20 ADD PUSH1 0x0 KECCAK256 PUSH1 0x0 SWAP1 SLOAD SWAP1 PUSH2 0x100 EXP SWAP1 DIV PUSH1 0xFF AND ISZERO DUP1 ISZERO PUSH2 0x3863 JUMPI POP PUSH1 0x7 PUSH1 0x0 DUP5 PUSH20 0xFFFFFFFFFFFFFFFFFFFFFFFFFFFFFFFFFFFFFFFF AND PUSH20 0xFFFFFFFFFFFFFFFFFFFFFFFFFFFFFFFFFFFFFFFF AND DUP2 MSTORE PUSH1 0x20 ADD SWAP1 DUP2 MSTORE PUSH1 0x20 ADD PUSH1 0x0 KECCAK256 PUSH1 0x0 SWAP1 SLOAD SWAP1 PUSH2 0x100 EXP SWAP1 DIV PUSH1 0xFF AND JUMPDEST ISZERO PUSH2 0x3878 JUMPI PUSH2 0x3873 DUP5 DUP5 DUP5 PUSH2 0x44FF JUMP JUMPDEST PUSH2 0x39F6 JUMP JUMPDEST PUSH1 0x7 PUSH1 0x0 DUP6 PUSH20 0xFFFFFFFFFFFFFFFFFFFFFFFFFFFFFFFFFFFFFFFF AND PUSH20 0xFFFFFFFFFFFFFFFFFFFFFFFFFFFFFFFFFFFFFFFF AND DUP2 MSTORE PUSH1 0x20 ADD SWAP1 DUP2 MSTORE PUSH1 0x20 ADD PUSH1 0x0 KECCAK256 PUSH1 0x0 SWAP1 SLOAD SWAP1 PUSH2 0x100 EXP SWAP1 DIV PUSH1 0xFF AND ISZERO DUP1 ISZERO PUSH2 0x391C JUMPI POP PUSH1 0x7 PUSH1 0x0 DUP5 PUSH20 0xFFFFFFFFFFFFFFFFFFFFFFFFFFFFFFFFFFFFFFFF AND PUSH20 0xFFFFFFFFFFFFFFFFFFFFFFFFFFFFFFFFFFFFFFFF AND DUP2 MSTORE PUSH1 0x20 ADD SWAP1 DUP2 MSTORE PUSH1 0x20 ADD PUSH1 0x0 KECCAK256 PUSH1 0x0 SWAP1 SLOAD SWAP1 PUSH2 0x100 EXP SWAP1 DIV PUSH1 0xFF AND ISZERO JUMPDEST ISZERO PUSH2 0x3931 JUMPI PUSH2 0x392C DUP5 DUP5 DUP5 PUSH2 0x475F JUMP JUMPDEST PUSH2 0x39F5 JUMP JUMPDEST PUSH1 0x7 PUSH1 0x0 DUP6 PUSH20 0xFFFFFFFFFFFFFFFFFFFFFFFFFFFFFFFFFFFFFFFF AND PUSH20 0xFFFFFFFFFFFFFFFFFFFFFFFFFFFFFFFFFFFFFFFF AND DUP2 MSTORE PUSH1 0x20 ADD SWAP1 DUP2 MSTORE PUSH1 0x20 ADD PUSH1 0x0 KECCAK256 PUSH1 0x0 SWAP1 SLOAD SWAP1 PUSH2 0x100 EXP SWAP1 DIV PUSH1 0xFF AND DUP1 ISZERO PUSH2 0x39D3 JUMPI POP PUSH1 0x7 PUSH1 0x0 DUP5 PUSH20 0xFFFFFFFFFFFFFFFFFFFFFFFFFFFFFFFFFFFFFFFF AND PUSH20 0xFFFFFFFFFFFFFFFFFFFFFFFFFFFFFFFFFFFFFFFF AND DUP2 MSTORE PUSH1 0x20 ADD SWAP1 DUP2 MSTORE PUSH1 0x20 ADD PUSH1 0x0 KECCAK256 PUSH1 0x0 SWAP1 SLOAD SWAP1 PUSH2 0x100 EXP SWAP1 DIV PUSH1 0xFF AND JUMPDEST ISZERO PUSH2 0x39E8 JUMPI PUSH2 0x39E3 DUP5 DUP5 DUP5 PUSH2 0x492A JUMP JUMPDEST PUSH2 0x39F4 JUMP JUMPDEST PUSH2 0x39F3 DUP5 DUP5 DUP5 PUSH2 0x475F JUMP JUMPDEST JUMPDEST JUMPDEST JUMPDEST JUMPDEST DUP1 PUSH2 0x3A05 JUMPI PUSH2 0x3A04 PUSH2 0x4C1F JUMP JUMPDEST JUMPDEST POP POP POP POP JUMP JUMPDEST PUSH1 0x0 DUP1 PUSH1 0x0 PUSH1 0xC SLOAD SWAP1 POP PUSH1 0x0 PUSH8 0xDE0B6B3A7640000 SWAP1 POP PUSH1 0x0 JUMPDEST PUSH1 0x8 DUP1 SLOAD SWAP1 POP DUP2 LT ISZERO PUSH2 0x3C6B JUMPI DUP3 PUSH1 0x3 PUSH1 0x0 PUSH1 0x8 DUP5 DUP2 SLOAD DUP2 LT PUSH2 0x3A44 JUMPI INVALID JUMPDEST SWAP1 PUSH1 0x0 MSTORE PUSH1 0x20 PUSH1 0x0 KECCAK256 ADD PUSH1 0x0 SWAP1 SLOAD SWAP1 PUSH2 0x100 EXP SWAP1 DIV PUSH20 0xFFFFFFFFFFFFFFFFFFFFFFFFFFFFFFFFFFFFFFFF AND PUSH20 0xFFFFFFFFFFFFFFFFFFFFFFFFFFFFFFFFFFFFFFFF AND PUSH20 0xFFFFFFFFFFFFFFFFFFFFFFFFFFFFFFFFFFFFFFFF AND DUP2 MSTORE PUSH1 0x20 ADD SWAP1 DUP2 MSTORE PUSH1 0x20 ADD PUSH1 0x0 KECCAK256 SLOAD GT DUP1 PUSH2 0x3B2B JUMPI POP DUP2 PUSH1 0x4 PUSH1 0x0 PUSH1 0x8 DUP5 DUP2 SLOAD DUP2 LT PUSH2 0x3AC3 JUMPI INVALID JUMPDEST SWAP1 PUSH1 0x0 MSTORE PUSH1 0x20 PUSH1 0x0 KECCAK256 ADD PUSH1 0x0 SWAP1 SLOAD SWAP1 PUSH2 0x100 EXP SWAP1 DIV PUSH20 0xFFFFFFFFFFFFFFFFFFFFFFFFFFFFFFFFFFFFFFFF AND PUSH20 0xFFFFFFFFFFFFFFFFFFFFFFFFFFFFFFFFFFFFFFFF AND PUSH20 0xFFFFFFFFFFFFFFFFFFFFFFFFFFFFFFFFFFFFFFFF AND DUP2 MSTORE PUSH1 0x20 ADD SWAP1 DUP2 MSTORE PUSH1 0x20 ADD PUSH1 0x0 KECCAK256 SLOAD GT JUMPDEST ISZERO PUSH2 0x3B48 JUMPI PUSH1 0xC SLOAD PUSH8 0xDE0B6B3A7640000 SWAP5 POP SWAP5 POP POP POP POP PUSH2 0x3CB0 JUMP JUMPDEST PUSH2 0x3BD1 PUSH1 0x3 PUSH1 0x0 PUSH1 0x8 DUP5 DUP2 SLOAD DUP2 LT PUSH2 0x3B5C JUMPI INVALID JUMPDEST SWAP1 PUSH1 0x0 MSTORE PUSH1 0x20 PUSH1 0x0 KECCAK256 ADD PUSH1 0x0 SWAP1 SLOAD SWAP1 PUSH2 0x100 EXP SWAP1 DIV PUSH20 0xFFFFFFFFFFFFFFFFFFFFFFFFFFFFFFFFFFFFFFFF AND PUSH20 0xFFFFFFFFFFFFFFFFFFFFFFFFFFFFFFFFFFFFFFFF AND PUSH20 0xFFFFFFFFFFFFFFFFFFFFFFFFFFFFFFFFFFFFFFFF AND DUP2 MSTORE PUSH1 0x20 ADD SWAP1 DUP2 MSTORE PUSH1 0x20 ADD PUSH1 0x0 KECCAK256 SLOAD DUP5 PUSH2 0x3548 SWAP1 SWAP2 SWAP1 PUSH4 0xFFFFFFFF AND JUMP JUMPDEST SWAP3 POP PUSH2 0x3C5C PUSH1 0x4 PUSH1 0x0 PUSH1 0x8 DUP5 DUP2 SLOAD DUP2 LT PUSH2 0x3BE7 JUMPI INVALID JUMPDEST SWAP1 PUSH1 0x0 MSTORE PUSH1 0x20 PUSH1 0x0 KECCAK256 ADD PUSH1 0x0 SWAP1 SLOAD SWAP1 PUSH2 0x100 EXP SWAP1 DIV PUSH20 0xFFFFFFFFFFFFFFFFFFFFFFFFFFFFFFFFFFFFFFFF AND PUSH20 0xFFFFFFFFFFFFFFFFFFFFFFFFFFFFFFFFFFFFFFFF AND PUSH20 0xFFFFFFFFFFFFFFFFFFFFFFFFFFFFFFFFFFFFFFFF AND DUP2 MSTORE PUSH1 0x20 ADD SWAP1 DUP2 MSTORE PUSH1 0x20 ADD PUSH1 0x0 KECCAK256 SLOAD DUP4 PUSH2 0x3548 SWAP1 SWAP2 SWAP1 PUSH4 0xFFFFFFFF AND JUMP JUMPDEST SWAP2 POP DUP1 DUP1 PUSH1 0x1 ADD SWAP2 POP POP PUSH2 0x3A25 JUMP JUMPDEST POP PUSH2 0x3C89 PUSH8 0xDE0B6B3A7640000 PUSH1 0xC SLOAD PUSH2 0x341A SWAP1 SWAP2 SWAP1 PUSH4 0xFFFFFFFF AND JUMP JUMPDEST DUP3 LT ISZERO PUSH2 0x3CA7 JUMPI PUSH1 0xC SLOAD PUSH8 0xDE0B6B3A7640000 SWAP4 POP SWAP4 POP POP POP PUSH2 0x3CB0 JUMP JUMPDEST DUP2 DUP2 SWAP4 POP SWAP4 POP POP POP JUMPDEST SWAP1 SWAP2 JUMP JUMPDEST PUSH1 0x0 DUP1 DUP4 GT DUP3 SWAP1 PUSH2 0x3D60 JUMPI PUSH1 0x40 MLOAD PUSH32 0x8C379A000000000000000000000000000000000000000000000000000000000 DUP2 MSTORE PUSH1 0x4 ADD DUP1 DUP1 PUSH1 0x20 ADD DUP3 DUP2 SUB DUP3 MSTORE DUP4 DUP2 DUP2 MLOAD DUP2 MSTORE PUSH1 0x20 ADD SWAP2 POP DUP1 MLOAD SWAP1 PUSH1 0x20 ADD SWAP1 DUP1 DUP4 DUP4 PUSH1 0x0 JUMPDEST DUP4 DUP2 LT ISZERO PUSH2 0x3D25 JUMPI DUP1 DUP3 ADD MLOAD DUP2 DUP5 ADD MSTORE PUSH1 0x20 DUP2 ADD SWAP1 POP PUSH2 0x3D0A JUMP JUMPDEST POP POP POP POP SWAP1 POP SWAP1 DUP2 ADD SWAP1 PUSH1 0x1F AND DUP1 ISZERO PUSH2 0x3D52 JUMPI DUP1 DUP3 SUB DUP1 MLOAD PUSH1 0x1 DUP4 PUSH1 0x20 SUB PUSH2 0x100 EXP SUB NOT AND DUP2 MSTORE PUSH1 0x20 ADD SWAP2 POP JUMPDEST POP SWAP3 POP POP POP PUSH1 0x40 MLOAD DUP1 SWAP2 SUB SWAP1 REVERT JUMPDEST POP PUSH1 0x0 DUP4 DUP6 DUP2 PUSH2 0x3D6C JUMPI INVALID JUMPDEST DIV SWAP1 POP DUP1 SWAP2 POP POP SWAP4 SWAP3 POP POP POP JUMP JUMPDEST PUSH1 0x0 DUP1 PUSH1 0x0 DUP1 PUSH2 0x3D89 DUP6 PUSH2 0x4C33 JUMP JUMPDEST SWAP1 POP PUSH1 0x0 PUSH2 0x3D96 DUP7 PUSH2 0x4C64 JUMP JUMPDEST SWAP1 POP PUSH1 0x0 PUSH2 0x3DBF DUP3 PUSH2 0x3DB1 DUP6 DUP11 PUSH2 0x3548 SWAP1 SWAP2 SWAP1 PUSH4 0xFFFFFFFF AND JUMP JUMPDEST PUSH2 0x3548 SWAP1 SWAP2 SWAP1 PUSH4 0xFFFFFFFF AND JUMP JUMPDEST SWAP1 POP DUP1 DUP4 DUP4 SWAP6 POP SWAP6 POP SWAP6 POP POP POP POP SWAP2 SWAP4 SWAP1 SWAP3 POP JUMP JUMPDEST PUSH1 0x0 DUP1 PUSH1 0x0 DUP1 PUSH2 0x3DED DUP6 DUP10 PUSH2 0x3592 SWAP1 SWAP2 SWAP1 PUSH4 0xFFFFFFFF AND JUMP JUMPDEST SWAP1 POP PUSH1 0x0 PUSH2 0x3E04 DUP7 DUP10 PUSH2 0x3592 SWAP1 SWAP2 SWAP1 PUSH4 0xFFFFFFFF AND JUMP JUMPDEST SWAP1 POP PUSH1 0x0 PUSH2 0x3E1B DUP8 DUP10 PUSH2 0x3592 SWAP1 SWAP2 SWAP1 PUSH4 0xFFFFFFFF AND JUMP JUMPDEST SWAP1 POP PUSH1 0x0 PUSH2 0x3E44 DUP3 PUSH2 0x3E36 DUP6 DUP8 PUSH2 0x3548 SWAP1 SWAP2 SWAP1 PUSH4 0xFFFFFFFF AND JUMP JUMPDEST PUSH2 0x3548 SWAP1 SWAP2 SWAP1 PUSH4 0xFFFFFFFF AND JUMP JUMPDEST SWAP1 POP DUP4 DUP2 DUP5 SWAP7 POP SWAP7 POP SWAP7 POP POP POP POP POP SWAP5 POP SWAP5 POP SWAP5 SWAP2 POP POP JUMP JUMPDEST PUSH1 0x60 PUSH1 0x2 PUSH8 0xFFFFFFFFFFFFFFFF DUP2 GT DUP1 ISZERO PUSH2 0x3E77 JUMPI PUSH1 0x0 DUP1 REVERT JUMPDEST POP PUSH1 0x40 MLOAD SWAP1 DUP1 DUP3 MSTORE DUP1 PUSH1 0x20 MUL PUSH1 0x20 ADD DUP3 ADD PUSH1 0x40 MSTORE DUP1 ISZERO PUSH2 0x3EA6 JUMPI DUP2 PUSH1 0x20 ADD PUSH1 0x20 DUP3 MUL DUP1 CALLDATASIZE DUP4 CALLDATACOPY DUP1 DUP3 ADD SWAP2 POP POP SWAP1 POP JUMPDEST POP SWAP1 POP ADDRESS DUP2 PUSH1 0x0 DUP2 MLOAD DUP2 LT PUSH2 0x3EB7 JUMPI INVALID JUMPDEST PUSH1 0x20 MUL PUSH1 0x20 ADD ADD SWAP1 PUSH20 0xFFFFFFFFFFFFFFFFFFFFFFFFFFFFFFFFFFFFFFFF AND SWAP1 DUP2 PUSH20 0xFFFFFFFFFFFFFFFFFFFFFFFFFFFFFFFFFFFFFFFF AND DUP2 MSTORE POP POP PUSH32 0x0 PUSH20 0xFFFFFFFFFFFFFFFFFFFFFFFFFFFFFFFFFFFFFFFF AND PUSH4 0xAD5C4648 PUSH1 0x40 MLOAD DUP2 PUSH4 0xFFFFFFFF AND PUSH1 0xE0 SHL DUP2 MSTORE PUSH1 0x4 ADD PUSH1 0x20 PUSH1 0x40 MLOAD DUP1 DUP4 SUB DUP2 DUP7 DUP1 EXTCODESIZE ISZERO DUP1 ISZERO PUSH2 0x3F57 JUMPI PUSH1 0x0 DUP1 REVERT JUMPDEST POP GAS STATICCALL ISZERO DUP1 ISZERO PUSH2 0x3F6B JUMPI RETURNDATASIZE PUSH1 0x0 DUP1 RETURNDATACOPY RETURNDATASIZE PUSH1 0x0 REVERT JUMPDEST POP POP POP POP PUSH1 0x40 MLOAD RETURNDATASIZE PUSH1 0x20 DUP2 LT ISZERO PUSH2 0x3F81 JUMPI PUSH1 0x0 DUP1 REVERT JUMPDEST DUP2 ADD SWAP1 DUP1 DUP1 MLOAD SWAP1 PUSH1 0x20 ADD SWAP1 SWAP3 SWAP2 SWAP1 POP POP POP DUP2 PUSH1 0x1 DUP2 MLOAD DUP2 LT PUSH2 0x3F9F JUMPI INVALID JUMPDEST PUSH1 0x20 MUL PUSH1 0x20 ADD ADD SWAP1 PUSH20 0xFFFFFFFFFFFFFFFFFFFFFFFFFFFFFFFFFFFFFFFF AND SWAP1 DUP2 PUSH20 0xFFFFFFFFFFFFFFFFFFFFFFFFFFFFFFFFFFFFFFFF AND DUP2 MSTORE POP POP PUSH2 0x4004 ADDRESS PUSH32 0x0 DUP5 PUSH2 0x2D73 JUMP JUMPDEST PUSH32 0x0 PUSH20 0xFFFFFFFFFFFFFFFFFFFFFFFFFFFFFFFFFFFFFFFF AND PUSH4 0x791AC947 DUP4 PUSH1 0x0 DUP5 ADDRESS TIMESTAMP PUSH1 0x40 MLOAD DUP7 PUSH4 0xFFFFFFFF AND PUSH1 0xE0 SHL DUP2 MSTORE PUSH1 0x4 ADD DUP1 DUP7 DUP2 MSTORE PUSH1 0x20 ADD DUP6 DUP2 MSTORE PUSH1 0x20 ADD DUP1 PUSH1 0x20 ADD DUP5 PUSH20 0xFFFFFFFFFFFFFFFFFFFFFFFFFFFFFFFFFFFFFFFF AND DUP2 MSTORE PUSH1 0x20 ADD DUP4 DUP2 MSTORE PUSH1 0x20 ADD DUP3 DUP2 SUB DUP3 MSTORE DUP6 DUP2 DUP2 MLOAD DUP2 MSTORE PUSH1 0x20 ADD SWAP2 POP DUP1 MLOAD SWAP1 PUSH1 0x20 ADD SWAP1 PUSH1 0x20 MUL DUP1 DUP4 DUP4 PUSH1 0x0 JUMPDEST DUP4 DUP2 LT ISZERO PUSH2 0x40C6 JUMPI DUP1 DUP3 ADD MLOAD DUP2 DUP5 ADD MSTORE PUSH1 0x20 DUP2 ADD SWAP1 POP PUSH2 0x40AB JUMP JUMPDEST POP POP POP POP SWAP1 POP ADD SWAP7 POP POP POP POP POP POP POP PUSH1 0x0 PUSH1 0x40 MLOAD DUP1 DUP4 SUB DUP2 PUSH1 0x0 DUP8 DUP1 EXTCODESIZE ISZERO DUP1 ISZERO PUSH2 0x40EF JUMPI PUSH1 0x0 DUP1 REVERT JUMPDEST POP GAS CALL ISZERO DUP1 ISZERO PUSH2 0x4103 JUMPI RETURNDATASIZE PUSH1 0x0 DUP1 RETURNDATACOPY RETURNDATASIZE PUSH1 0x0 REVERT JUMPDEST POP POP POP POP POP POP JUMP JUMPDEST PUSH2 0x4136 ADDRESS PUSH32 0x0 DUP5 PUSH2 0x2D73 JUMP JUMPDEST PUSH32 0x0 PUSH20 0xFFFFFFFFFFFFFFFFFFFFFFFFFFFFFFFFFFFFFFFF AND PUSH4 0xF305D719 DUP3 ADDRESS DUP6 PUSH1 0x0 DUP1 PUSH2 0x4180 PUSH2 0x20F9 JUMP JUMPDEST TIMESTAMP PUSH1 0x40 MLOAD DUP9 PUSH4 0xFFFFFFFF AND PUSH1 0xE0 SHL DUP2 MSTORE PUSH1 0x4 ADD DUP1 DUP8 PUSH20 0xFFFFFFFFFFFFFFFFFFFFFFFFFFFFFFFFFFFFFFFF AND DUP2 MSTORE PUSH1 0x20 ADD DUP7 DUP2 MSTORE PUSH1 0x20 ADD DUP6 DUP2 MSTORE PUSH1 0x20 ADD DUP5 DUP2 MSTORE PUSH1 0x20 ADD DUP4 PUSH20 0xFFFFFFFFFFFFFFFFFFFFFFFFFFFFFFFFFFFFFFFF AND DUP2 MSTORE PUSH1 0x20 ADD DUP3 DUP2 MSTORE PUSH1 0x20 ADD SWAP7 POP POP POP POP POP POP POP PUSH1 0x60 PUSH1 0x40 MLOAD DUP1 DUP4 SUB DUP2 DUP6 DUP9 DUP1 EXTCODESIZE ISZERO DUP1 ISZERO PUSH2 0x4205 JUMPI PUSH1 0x0 DUP1 REVERT JUMPDEST POP GAS CALL ISZERO DUP1 ISZERO PUSH2 0x4219 JUMPI RETURNDATASIZE PUSH1 0x0 DUP1 RETURNDATACOPY RETURNDATASIZE PUSH1 0x0 REVERT JUMPDEST POP POP POP POP POP PUSH1 0x40 MLOAD RETURNDATASIZE PUSH1 0x60 DUP2 LT ISZERO PUSH2 0x4230 JUMPI PUSH1 0x0 DUP1 REVERT JUMPDEST DUP2 ADD SWAP1 DUP1 DUP1 MLOAD SWAP1 PUSH1 0x20 ADD SWAP1 SWAP3 SWAP2 SWAP1 DUP1 MLOAD SWAP1 PUSH1 0x20 ADD SWAP1 SWAP3 SWAP2 SWAP1 DUP1 MLOAD SWAP1 PUSH1 0x20 ADD SWAP1 SWAP3 SWAP2 SWAP1 POP POP POP POP POP POP POP POP JUMP JUMPDEST PUSH1 0x0 PUSH1 0x11 SLOAD EQ DUP1 ISZERO PUSH2 0x4270 JUMPI POP PUSH1 0x0 PUSH1 0x13 SLOAD EQ JUMPDEST ISZERO PUSH2 0x427A JUMPI PUSH2 0x429D JUMP JUMPDEST PUSH1 0x11 SLOAD PUSH1 0x12 DUP2 SWAP1 SSTORE POP PUSH1 0x13 SLOAD PUSH1 0x14 DUP2 SWAP1 SSTORE POP PUSH1 0x0 PUSH1 0x11 DUP2 SWAP1 SSTORE POP PUSH1 0x0 PUSH1 0x13 DUP2 SWAP1 SSTORE POP JUMPDEST JUMP JUMPDEST PUSH1 0x0 DUP1 PUSH1 0x0 DUP1 PUSH1 0x0 DUP1 PUSH2 0x42B1 DUP8 PUSH2 0x34EC JUMP JUMPDEST SWAP6 POP SWAP6 POP SWAP6 POP SWAP6 POP SWAP6 POP SWAP6 POP PUSH2 0x430F DUP8 PUSH1 0x4 PUSH1 0x0 DUP13 PUSH20 0xFFFFFFFFFFFFFFFFFFFFFFFFFFFFFFFFFFFFFFFF AND PUSH20 0xFFFFFFFFFFFFFFFFFFFFFFFFFFFFFFFFFFFFFFFF AND DUP2 MSTORE PUSH1 0x20 ADD SWAP1 DUP2 MSTORE PUSH1 0x20 ADD PUSH1 0x0 KECCAK256 SLOAD PUSH2 0x3548 SWAP1 SWAP2 SWAP1 PUSH4 0xFFFFFFFF AND JUMP JUMPDEST PUSH1 0x4 PUSH1 0x0 DUP12 PUSH20 0xFFFFFFFFFFFFFFFFFFFFFFFFFFFFFFFFFFFFFFFF AND PUSH20 0xFFFFFFFFFFFFFFFFFFFFFFFFFFFFFFFFFFFFFFFF AND DUP2 MSTORE PUSH1 0x20 ADD SWAP1 DUP2 MSTORE PUSH1 0x20 ADD PUSH1 0x0 KECCAK256 DUP2 SWAP1 SSTORE POP PUSH2 0x43A4 DUP7 PUSH1 0x3 PUSH1 0x0 DUP13 PUSH20 0xFFFFFFFFFFFFFFFFFFFFFFFFFFFFFFFFFFFFFFFF AND PUSH20 0xFFFFFFFFFFFFFFFFFFFFFFFFFFFFFFFFFFFFFFFF AND DUP2 MSTORE PUSH1 0x20 ADD SWAP1 DUP2 MSTORE PUSH1 0x20 ADD PUSH1 0x0 KECCAK256 SLOAD PUSH2 0x3548 SWAP1 SWAP2 SWAP1 PUSH4 0xFFFFFFFF AND JUMP JUMPDEST PUSH1 0x3 PUSH1 0x0 DUP12 PUSH20 0xFFFFFFFFFFFFFFFFFFFFFFFFFFFFFFFFFFFFFFFF AND PUSH20 0xFFFFFFFFFFFFFFFFFFFFFFFFFFFFFFFFFFFFFFFF AND DUP2 MSTORE PUSH1 0x20 ADD SWAP1 DUP2 MSTORE PUSH1 0x20 ADD PUSH1 0x0 KECCAK256 DUP2 SWAP1 SSTORE POP PUSH2 0x4439 DUP6 PUSH1 0x3 PUSH1 0x0 DUP12 PUSH20 0xFFFFFFFFFFFFFFFFFFFFFFFFFFFFFFFFFFFFFFFF AND PUSH20 0xFFFFFFFFFFFFFFFFFFFFFFFFFFFFFFFFFFFFFFFF AND DUP2 MSTORE PUSH1 0x20 ADD SWAP1 DUP2 MSTORE PUSH1 0x20 ADD PUSH1 0x0 KECCAK256 SLOAD PUSH2 0x3464 SWAP1 SWAP2 SWAP1 PUSH4 0xFFFFFFFF AND JUMP JUMPDEST PUSH1 0x3 PUSH1 0x0 DUP11 PUSH20 0xFFFFFFFFFFFFFFFFFFFFFFFFFFFFFFFFFFFFFFFF AND PUSH20 0xFFFFFFFFFFFFFFFFFFFFFFFFFFFFFFFFFFFFFFFF AND DUP2 MSTORE PUSH1 0x20 ADD SWAP1 DUP2 MSTORE PUSH1 0x20 ADD PUSH1 0x0 KECCAK256 DUP2 SWAP1 SSTORE POP PUSH2 0x4485 DUP2 PUSH2 0x4C95 JUMP JUMPDEST PUSH2 0x448F DUP5 DUP4 PUSH2 0x4E3A JUMP JUMPDEST DUP8 PUSH20 0xFFFFFFFFFFFFFFFFFFFFFFFFFFFFFFFFFFFFFFFF AND DUP10 PUSH20 0xFFFFFFFFFFFFFFFFFFFFFFFFFFFFFFFFFFFFFFFF AND PUSH32 0xDDF252AD1BE2C89B69C2B068FC378DAA952BA7F163C4A11628F55A4DF523B3EF DUP6 PUSH1 0x40 MLOAD DUP1 DUP3 DUP2 MSTORE PUSH1 0x20 ADD SWAP2 POP POP PUSH1 0x40 MLOAD DUP1 SWAP2 SUB SWAP1 LOG3 POP POP POP POP POP POP POP POP POP JUMP JUMPDEST PUSH1 0x0 DUP1 PUSH1 0x0 DUP1 PUSH1 0x0 DUP1 PUSH2 0x4511 DUP8 PUSH2 0x34EC JUMP JUMPDEST SWAP6 POP SWAP6 POP SWAP6 POP SWAP6 POP SWAP6 POP SWAP6 POP PUSH2 0x456F DUP7 PUSH1 0x3 PUSH1 0x0 DUP13 PUSH20 0xFFFFFFFFFFFFFFFFFFFFFFFFFFFFFFFFFFFFFFFF AND PUSH20 0xFFFFFFFFFFFFFFFFFFFFFFFFFFFFFFFFFFFFFFFF AND DUP2 MSTORE PUSH1 0x20 ADD SWAP1 DUP2 MSTORE PUSH1 0x20 ADD PUSH1 0x0 KECCAK256 SLOAD PUSH2 0x3548 SWAP1 SWAP2 SWAP1 PUSH4 0xFFFFFFFF AND JUMP JUMPDEST PUSH1 0x3 PUSH1 0x0 DUP12 PUSH20 0xFFFFFFFFFFFFFFFFFFFFFFFFFFFFFFFFFFFFFFFF AND PUSH20 0xFFFFFFFFFFFFFFFFFFFFFFFFFFFFFFFFFFFFFFFF AND DUP2 MSTORE PUSH1 0x20 ADD SWAP1 DUP2 MSTORE PUSH1 0x20 ADD PUSH1 0x0 KECCAK256 DUP2 SWAP1 SSTORE POP PUSH2 0x4604 DUP4 PUSH1 0x4 PUSH1 0x0 DUP12 PUSH20 0xFFFFFFFFFFFFFFFFFFFFFFFFFFFFFFFFFFFFFFFF AND PUSH20 0xFFFFFFFFFFFFFFFFFFFFFFFFFFFFFFFFFFFFFFFF AND DUP2 MSTORE PUSH1 0x20 ADD SWAP1 DUP2 MSTORE PUSH1 0x20 ADD PUSH1 0x0 KECCAK256 SLOAD PUSH2 0x3464 SWAP1 SWAP2 SWAP1 PUSH4 0xFFFFFFFF AND JUMP JUMPDEST PUSH1 0x4 PUSH1 0x0 DUP11 PUSH20 0xFFFFFFFFFFFFFFFFFFFFFFFFFFFFFFFFFFFFFFFF AND PUSH20 0xFFFFFFFFFFFFFFFFFFFFFFFFFFFFFFFFFFFFFFFF AND DUP2 MSTORE PUSH1 0x20 ADD SWAP1 DUP2 MSTORE PUSH1 0x20 ADD PUSH1 0x0 KECCAK256 DUP2 SWAP1 SSTORE POP PUSH2 0x4699 DUP6 PUSH1 0x3 PUSH1 0x0 DUP12 PUSH20 0xFFFFFFFFFFFFFFFFFFFFFFFFFFFFFFFFFFFFFFFF AND PUSH20 0xFFFFFFFFFFFFFFFFFFFFFFFFFFFFFFFFFFFFFFFF AND DUP2 MSTORE PUSH1 0x20 ADD SWAP1 DUP2 MSTORE PUSH1 0x20 ADD PUSH1 0x0 KECCAK256 SLOAD PUSH2 0x3464 SWAP1 SWAP2 SWAP1 PUSH4 0xFFFFFFFF AND JUMP JUMPDEST PUSH1 0x3 PUSH1 0x0 DUP11 PUSH20 0xFFFFFFFFFFFFFFFFFFFFFFFFFFFFFFFFFFFFFFFF AND PUSH20 0xFFFFFFFFFFFFFFFFFFFFFFFFFFFFFFFFFFFFFFFF AND DUP2 MSTORE PUSH1 0x20 ADD SWAP1 DUP2 MSTORE PUSH1 0x20 ADD PUSH1 0x0 KECCAK256 DUP2 SWAP1 SSTORE POP PUSH2 0x46E5 DUP2 PUSH2 0x4C95 JUMP JUMPDEST PUSH2 0x46EF DUP5 DUP4 PUSH2 0x4E3A JUMP JUMPDEST DUP8 PUSH20 0xFFFFFFFFFFFFFFFFFFFFFFFFFFFFFFFFFFFFFFFF AND DUP10 PUSH20 0xFFFFFFFFFFFFFFFFFFFFFFFFFFFFFFFFFFFFFFFF AND PUSH32 0xDDF252AD1BE2C89B69C2B068FC378DAA952BA7F163C4A11628F55A4DF523B3EF DUP6 PUSH1 0x40 MLOAD DUP1 DUP3 DUP2 MSTORE PUSH1 0x20 ADD SWAP2 POP POP PUSH1 0x40 MLOAD DUP1 SWAP2 SUB SWAP1 LOG3 POP POP POP POP POP POP POP POP POP JUMP JUMPDEST PUSH1 0x0 DUP1 PUSH1 0x0 DUP1 PUSH1 0x0 DUP1 PUSH2 0x4771 DUP8 PUSH2 0x34EC JUMP JUMPDEST SWAP6 POP SWAP6 POP SWAP6 POP SWAP6 POP SWAP6 POP SWAP6 POP PUSH2 0x47CF DUP7 PUSH1 0x3 PUSH1 0x0 DUP13 PUSH20 0xFFFFFFFFFFFFFFFFFFFFFFFFFFFFFFFFFFFFFFFF AND PUSH20 0xFFFFFFFFFFFFFFFFFFFFFFFFFFFFFFFFFFFFFFFF AND DUP2 MSTORE PUSH1 0x20 ADD SWAP1 DUP2 MSTORE PUSH1 0x20 ADD PUSH1 0x0 KECCAK256 SLOAD PUSH2 0x3548 SWAP1 SWAP2 SWAP1 PUSH4 0xFFFFFFFF AND JUMP JUMPDEST PUSH1 0x3 PUSH1 0x0 DUP12 PUSH20 0xFFFFFFFFFFFFFFFFFFFFFFFFFFFFFFFFFFFFFFFF AND PUSH20 0xFFFFFFFFFFFFFFFFFFFFFFFFFFFFFFFFFFFFFFFF AND DUP2 MSTORE PUSH1 0x20 ADD SWAP1 DUP2 MSTORE PUSH1 0x20 ADD PUSH1 0x0 KECCAK256 DUP2 SWAP1 SSTORE POP PUSH2 0x4864 DUP6 PUSH1 0x3 PUSH1 0x0 DUP12 PUSH20 0xFFFFFFFFFFFFFFFFFFFFFFFFFFFFFFFFFFFFFFFF AND PUSH20 0xFFFFFFFFFFFFFFFFFFFFFFFFFFFFFFFFFFFFFFFF AND DUP2 MSTORE PUSH1 0x20 ADD SWAP1 DUP2 MSTORE PUSH1 0x20 ADD PUSH1 0x0 KECCAK256 SLOAD PUSH2 0x3464 SWAP1 SWAP2 SWAP1 PUSH4 0xFFFFFFFF AND JUMP JUMPDEST PUSH1 0x3 PUSH1 0x0 DUP11 PUSH20 0xFFFFFFFFFFFFFFFFFFFFFFFFFFFFFFFFFFFFFFFF AND PUSH20 0xFFFFFFFFFFFFFFFFFFFFFFFFFFFFFFFFFFFFFFFF AND DUP2 MSTORE PUSH1 0x20 ADD SWAP1 DUP2 MSTORE PUSH1 0x20 ADD PUSH1 0x0 KECCAK256 DUP2 SWAP1 SSTORE POP PUSH2 0x48B0 DUP2 PUSH2 0x4C95 JUMP JUMPDEST PUSH2 0x48BA DUP5 DUP4 PUSH2 0x4E3A JUMP JUMPDEST DUP8 PUSH20 0xFFFFFFFFFFFFFFFFFFFFFFFFFFFFFFFFFFFFFFFF AND DUP10 PUSH20 0xFFFFFFFFFFFFFFFFFFFFFFFFFFFFFFFFFFFFFFFF AND PUSH32 0xDDF252AD1BE2C89B69C2B068FC378DAA952BA7F163C4A11628F55A4DF523B3EF DUP6 PUSH1 0x40 MLOAD DUP1 DUP3 DUP2 MSTORE PUSH1 0x20 ADD SWAP2 POP POP PUSH1 0x40 MLOAD DUP1 SWAP2 SUB SWAP1 LOG3 POP POP POP POP POP POP POP POP POP JUMP JUMPDEST PUSH1 0x0 DUP1 PUSH1 0x0 DUP1 PUSH1 0x0 DUP1 PUSH2 0x493C DUP8 PUSH2 0x34EC JUMP JUMPDEST SWAP6 POP SWAP6 POP SWAP6 POP SWAP6 POP SWAP6 POP SWAP6 POP PUSH2 0x499A DUP8 PUSH1 0x4 PUSH1 0x0 DUP13 PUSH20 0xFFFFFFFFFFFFFFFFFFFFFFFFFFFFFFFFFFFFFFFF AND PUSH20 0xFFFFFFFFFFFFFFFFFFFFFFFFFFFFFFFFFFFFFFFF AND DUP2 MSTORE PUSH1 0x20 ADD SWAP1 DUP2 MSTORE PUSH1 0x20 ADD PUSH1 0x0 KECCAK256 SLOAD PUSH2 0x3548 SWAP1 SWAP2 SWAP1 PUSH4 0xFFFFFFFF AND JUMP JUMPDEST PUSH1 0x4 PUSH1 0x0 DUP12 PUSH20 0xFFFFFFFFFFFFFFFFFFFFFFFFFFFFFFFFFFFFFFFF AND PUSH20 0xFFFFFFFFFFFFFFFFFFFFFFFFFFFFFFFFFFFFFFFF AND DUP2 MSTORE PUSH1 0x20 ADD SWAP1 DUP2 MSTORE PUSH1 0x20 ADD PUSH1 0x0 KECCAK256 DUP2 SWAP1 SSTORE POP PUSH2 0x4A2F DUP7 PUSH1 0x3 PUSH1 0x0 DUP13 PUSH20 0xFFFFFFFFFFFFFFFFFFFFFFFFFFFFFFFFFFFFFFFF AND PUSH20 0xFFFFFFFFFFFFFFFFFFFFFFFFFFFFFFFFFFFFFFFF AND DUP2 MSTORE PUSH1 0x20 ADD SWAP1 DUP2 MSTORE PUSH1 0x20 ADD PUSH1 0x0 KECCAK256 SLOAD PUSH2 0x3548 SWAP1 SWAP2 SWAP1 PUSH4 0xFFFFFFFF AND JUMP JUMPDEST PUSH1 0x3 PUSH1 0x0 DUP12 PUSH20 0xFFFFFFFFFFFFFFFFFFFFFFFFFFFFFFFFFFFFFFFF AND PUSH20 0xFFFFFFFFFFFFFFFFFFFFFFFFFFFFFFFFFFFFFFFF AND DUP2 MSTORE PUSH1 0x20 ADD SWAP1 DUP2 MSTORE PUSH1 0x20 ADD PUSH1 0x0 KECCAK256 DUP2 SWAP1 SSTORE POP PUSH2 0x4AC4 DUP4 PUSH1 0x4 PUSH1 0x0 DUP12 PUSH20 0xFFFFFFFFFFFFFFFFFFFFFFFFFFFFFFFFFFFFFFFF AND PUSH20 0xFFFFFFFFFFFFFFFFFFFFFFFFFFFFFFFFFFFFFFFF AND DUP2 MSTORE PUSH1 0x20 ADD SWAP1 DUP2 MSTORE PUSH1 0x20 ADD PUSH1 0x0 KECCAK256 SLOAD PUSH2 0x3464 SWAP1 SWAP2 SWAP1 PUSH4 0xFFFFFFFF AND JUMP JUMPDEST PUSH1 0x4 PUSH1 0x0 DUP11 PUSH20 0xFFFFFFFFFFFFFFFFFFFFFFFFFFFFFFFFFFFFFFFF AND PUSH20 0xFFFFFFFFFFFFFFFFFFFFFFFFFFFFFFFFFFFFFFFF AND DUP2 MSTORE PUSH1 0x20 ADD SWAP1 DUP2 MSTORE PUSH1 0x20 ADD PUSH1 0x0 KECCAK256 DUP2 SWAP1 SSTORE POP PUSH2 0x4B59 DUP6 PUSH1 0x3 PUSH1 0x0 DUP12 PUSH20 0xFFFFFFFFFFFFFFFFFFFFFFFFFFFFFFFFFFFFFFFF AND PUSH20 0xFFFFFFFFFFFFFFFFFFFFFFFFFFFFFFFFFFFFFFFF AND DUP2 MSTORE PUSH1 0x20 ADD SWAP1 DUP2 MSTORE PUSH1 0x20 ADD PUSH1 0x0 KECCAK256 SLOAD PUSH2 0x3464 SWAP1 SWAP2 SWAP1 PUSH4 0xFFFFFFFF AND JUMP JUMPDEST PUSH1 0x3 PUSH1 0x0 DUP11 PUSH20 0xFFFFFFFFFFFFFFFFFFFFFFFFFFFFFFFFFFFFFFFF AND PUSH20 0xFFFFFFFFFFFFFFFFFFFFFFFFFFFFFFFFFFFFFFFF AND DUP2 MSTORE PUSH1 0x20 ADD SWAP1 DUP2 MSTORE PUSH1 0x20 ADD PUSH1 0x0 KECCAK256 DUP2 SWAP1 SSTORE POP PUSH2 0x4BA5 DUP2 PUSH2 0x4C95 JUMP JUMPDEST PUSH2 0x4BAF DUP5 DUP4 PUSH2 0x4E3A JUMP JUMPDEST DUP8 PUSH20 0xFFFFFFFFFFFFFFFFFFFFFFFFFFFFFFFFFFFFFFFF AND DUP10 PUSH20 0xFFFFFFFFFFFFFFFFFFFFFFFFFFFFFFFFFFFFFFFF AND PUSH32 0xDDF252AD1BE2C89B69C2B068FC378DAA952BA7F163C4A11628F55A4DF523B3EF DUP6 PUSH1 0x40 MLOAD DUP1 DUP3 DUP2 MSTORE PUSH1 0x20 ADD SWAP2 POP POP PUSH1 0x40 MLOAD DUP1 SWAP2 SUB SWAP1 LOG3 POP POP POP POP POP POP POP POP POP JUMP JUMPDEST PUSH1 0x12 SLOAD PUSH1 0x11 DUP2 SWAP1 SSTORE POP PUSH1 0x14 SLOAD PUSH1 0x13 DUP2 SWAP1 SSTORE POP JUMP JUMPDEST PUSH1 0x0 PUSH2 0x4C5D PUSH1 0x64 PUSH2 0x4C4F PUSH1 0x11 SLOAD DUP6 PUSH2 0x3592 SWAP1 SWAP2 SWAP1 PUSH4 0xFFFFFFFF AND JUMP JUMPDEST PUSH2 0x341A SWAP1 SWAP2 SWAP1 PUSH4 0xFFFFFFFF AND JUMP JUMPDEST SWAP1 POP SWAP2 SWAP1 POP JUMP JUMPDEST PUSH1 0x0 PUSH2 0x4C8E PUSH1 0x64 PUSH2 0x4C80 PUSH1 0x13 SLOAD DUP6 PUSH2 0x3592 SWAP1 SWAP2 SWAP1 PUSH4 0xFFFFFFFF AND JUMP JUMPDEST PUSH2 0x341A SWAP1 SWAP2 SWAP1 PUSH4 0xFFFFFFFF AND JUMP JUMPDEST SWAP1 POP SWAP2 SWAP1 POP JUMP JUMPDEST PUSH1 0x0 PUSH2 0x4C9F PUSH2 0x33EF JUMP JUMPDEST SWAP1 POP PUSH1 0x0 PUSH2 0x4CB6 DUP3 DUP5 PUSH2 0x3592 SWAP1 SWAP2 SWAP1 PUSH4 0xFFFFFFFF AND JUMP JUMPDEST SWAP1 POP PUSH2 0x4D0A DUP2 PUSH1 0x3 PUSH1 0x0 ADDRESS PUSH20 0xFFFFFFFFFFFFFFFFFFFFFFFFFFFFFFFFFFFFFFFF AND PUSH20 0xFFFFFFFFFFFFFFFFFFFFFFFFFFFFFFFFFFFFFFFF AND DUP2 MSTORE PUSH1 0x20 ADD SWAP1 DUP2 MSTORE PUSH1 0x20 ADD PUSH1 0x0 KECCAK256 SLOAD PUSH2 0x3464 SWAP1 SWAP2 SWAP1 PUSH4 0xFFFFFFFF AND JUMP JUMPDEST PUSH1 0x3 PUSH1 0x0 ADDRESS PUSH20 0xFFFFFFFFFFFFFFFFFFFFFFFFFFFFFFFFFFFFFFFF AND PUSH20 0xFFFFFFFFFFFFFFFFFFFFFFFFFFFFFFFFFFFFFFFF AND DUP2 MSTORE PUSH1 0x20 ADD SWAP1 DUP2 MSTORE PUSH1 0x20 ADD PUSH1 0x0 KECCAK256 DUP2 SWAP1 SSTORE POP PUSH1 0x7 PUSH1 0x0 ADDRESS PUSH20 0xFFFFFFFFFFFFFFFFFFFFFFFFFFFFFFFFFFFFFFFF AND PUSH20 0xFFFFFFFFFFFFFFFFFFFFFFFFFFFFFFFFFFFFFFFF AND DUP2 MSTORE PUSH1 0x20 ADD SWAP1 DUP2 MSTORE PUSH1 0x20 ADD PUSH1 0x0 KECCAK256 PUSH1 0x0 SWAP1 SLOAD SWAP1 PUSH2 0x100 EXP SWAP1 DIV PUSH1 0xFF AND ISZERO PUSH2 0x4E35 JUMPI PUSH2 0x4DF1 DUP4 PUSH1 0x4 PUSH1 0x0 ADDRESS PUSH20 0xFFFFFFFFFFFFFFFFFFFFFFFFFFFFFFFFFFFFFFFF AND PUSH20 0xFFFFFFFFFFFFFFFFFFFFFFFFFFFFFFFFFFFFFFFF AND DUP2 MSTORE PUSH1 0x20 ADD SWAP1 DUP2 MSTORE PUSH1 0x20 ADD PUSH1 0x0 KECCAK256 SLOAD PUSH2 0x3464 SWAP1 SWAP2 SWAP1 PUSH4 0xFFFFFFFF AND JUMP JUMPDEST PUSH1 0x4 PUSH1 0x0 ADDRESS PUSH20 0xFFFFFFFFFFFFFFFFFFFFFFFFFFFFFFFFFFFFFFFF AND PUSH20 0xFFFFFFFFFFFFFFFFFFFFFFFFFFFFFFFFFFFFFFFF AND DUP2 MSTORE PUSH1 0x20 ADD SWAP1 DUP2 MSTORE PUSH1 0x20 ADD PUSH1 0x0 KECCAK256 DUP2 SWAP1 SSTORE POP JUMPDEST POP POP POP JUMP JUMPDEST PUSH2 0x4E4F DUP3 PUSH1 0xC SLOAD PUSH2 0x3548 SWAP1 SWAP2 SWAP1 PUSH4 0xFFFFFFFF AND JUMP JUMPDEST PUSH1 0xC DUP2 SWAP1 SSTORE POP PUSH2 0x4E6A DUP2 PUSH1 0xD SLOAD PUSH2 0x3464 SWAP1 SWAP2 SWAP1 PUSH4 0xFFFFFFFF AND JUMP JUMPDEST PUSH1 0xD DUP2 SWAP1 SSTORE POP POP POP JUMP INVALID GASLIMIT MSTORE NUMBER ORIGIN ADDRESS GASPRICE KECCAK256 PUSH21 0x72616E7366657220746F20746865207A65726F2061 PUSH5 0x6472657373 COINBASE PUSH14 0x6F756E74206D757374206265206C PUSH6 0x737320746861 PUSH15 0x20746F74616C207265666C65637469 PUSH16 0x6E734F776E61626C653A206E6577206F PUSH24 0x6E657220697320746865207A65726F206164647265737345 MSTORE NUMBER ORIGIN ADDRESS GASPRICE KECCAK256 PUSH2 0x7070 PUSH19 0x6F766520746F20746865207A65726F20616464 PUSH19 0x6573735472616E7366657220616D6F756E7420 PUSH6 0x786365656473 KECCAK256 PUSH21 0x6865206D61785478416D6F756E742E536166654D61 PUSH21 0x683A206D756C7469706C69636174696F6E206F7665 PUSH19 0x666C6F7745524332303A207472616E73666572 KECCAK256 PUSH2 0x6D6F PUSH22 0x6E74206578636565647320616C6C6F77616E63655472 PUSH2 0x6E73 PUSH7 0x657220616D6F75 PUSH15 0x74206D757374206265206772656174 PUSH6 0x72207468616E KECCAK256 PUSH27 0x65726F45524332303A207472616E736665722066726F6D20746865 KECCAK256 PUSH27 0x65726F206164647265737345524332303A20617070726F76652066 PUSH19 0x6F6D20746865207A65726F2061646472657373 GASLIMIT PUSH25 0x636C75646564206164647265737365732063616E6E6F742063 PUSH2 0x6C6C KECCAK256 PUSH21 0x6869732066756E6374696F6E596F7520646F6E2774 KECCAK256 PUSH9 0x617665207065726D69 PUSH20 0x73696F6E20746F20756E6C6F636B45524332303A KECCAK256 PUSH5 0x6563726561 PUSH20 0x656420616C6C6F77616E63652062656C6F77207A PUSH6 0x726FA2646970 PUSH7 0x7358221220096A SAR 0xF7 0xA6 0x1F 0xBA 0xC8 0xB5 SLOAD LT DUP12 0xEB 0xC7 0xC4 0x24 0xBD PUSH22 0x21BB106E757AF37BE648931ABBEE64736F6C63430006 0xC STOP CALLER "
				},
				"gasEstimates": {
					"creation": {
						"codeDepositCost": "4126000",
						"executionCost": "infinite",
						"totalCost": "infinite"
					},
					"external": {
						"_liquidityFee()": "1073",
						"_maxTxAmount()": "1050",
						"_taxFee()": "1095",
						"addInitialLiquidity(uint256)": "infinite",
						"allowance(address,address)": "1409",
						"approve(address,uint256)": "infinite",
						"balanceOf(address)": "infinite",
						"decimals()": "1189",
						"decreaseAllowance(address,uint256)": "infinite",
						"deliver(uint256)": "infinite",
						"excludeFromFee(address)": "22138",
						"excludeFromReward(address)": "infinite",
						"geUnlockTime()": "1124",
						"includeInFee(address)": "22203",
						"includeInReward(address)": "infinite",
						"increaseAllowance(address,uint256)": "infinite",
						"isExcludedFromFee(address)": "1284",
						"isExcludedFromReward(address)": "1305",
						"lock(uint256)": "66160",
						"name()": "infinite",
						"owner()": "1144",
						"reflectionFromToken(uint256,bool)": "infinite",
						"renounceOwnership()": "24403",
						"setLiquidityFeePercent(uint256)": "21255",
						"setMaxTxPercent(uint256)": "infinite",
						"setSwapAndLiquifyEnabled(bool)": "23259",
						"setTaxFeePercent(uint256)": "21191",
						"swapAndLiquifyEnabled()": "1208",
						"symbol()": "infinite",
						"tokenFromReflection(uint256)": "infinite",
						"totalFees()": "1126",
						"totalSupply()": "281",
						"transfer(address,uint256)": "infinite",
						"transferFrom(address,address,uint256)": "infinite",
						"transferOwnership(address)": "infinite",
						"uniswapV2Pair()": "infinite",
						"uniswapV2Router()": "infinite",
						"unlock()": "infinite"
					},
					"internal": {
						"_approve(address,address,uint256)": "infinite",
						"_getCurrentSupply()": "infinite",
						"_getRValues(uint256,uint256,uint256,uint256)": "infinite",
						"_getRate()": "infinite",
						"_getTValues(uint256)": "infinite",
						"_getValues(uint256)": "infinite",
						"_reflectFee(uint256,uint256)": "infinite",
						"_takeLiquidity(uint256)": "infinite",
						"_tokenTransfer(address,address,uint256,bool)": "infinite",
						"_transfer(address,address,uint256)": "infinite",
						"_transferBothExcluded(address,address,uint256)": "infinite",
						"_transferFromExcluded(address,address,uint256)": "infinite",
						"_transferStandard(address,address,uint256)": "infinite",
						"_transferToExcluded(address,address,uint256)": "infinite",
						"addLiquidity(uint256,uint256)": "infinite",
						"calculateLiquidityFee(uint256)": "infinite",
						"calculateTaxFee(uint256)": "infinite",
						"removeAllFee()": "53323",
						"restoreAllFee()": "41637",
						"swapAndLiquify(uint256)": "infinite",
						"swapTokensForEth(uint256)": "infinite"
					}
				},
				"methodIdentifiers": {
					"_liquidityFee()": "6bc87c3a",
					"_maxTxAmount()": "7d1db4a5",
					"_taxFee()": "3b124fe7",
					"addInitialLiquidity(uint256)": "41a22cc2",
					"allowance(address,address)": "dd62ed3e",
					"approve(address,uint256)": "095ea7b3",
					"balanceOf(address)": "70a08231",
					"decimals()": "313ce567",
					"decreaseAllowance(address,uint256)": "a457c2d7",
					"deliver(uint256)": "3bd5d173",
					"excludeFromFee(address)": "437823ec",
					"excludeFromReward(address)": "52390c02",
					"geUnlockTime()": "b6c52324",
					"includeInFee(address)": "ea2f0b37",
					"includeInReward(address)": "3685d419",
					"increaseAllowance(address,uint256)": "39509351",
					"isExcludedFromFee(address)": "5342acb4",
					"isExcludedFromReward(address)": "88f82020",
					"lock(uint256)": "dd467064",
					"name()": "06fdde03",
					"owner()": "8da5cb5b",
					"reflectionFromToken(uint256,bool)": "4549b039",
					"renounceOwnership()": "715018a6",
					"setLiquidityFeePercent(uint256)": "8ee88c53",
					"setMaxTxPercent(uint256)": "d543dbeb",
					"setSwapAndLiquifyEnabled(bool)": "c49b9a80",
					"setTaxFeePercent(uint256)": "061c82d0",
					"swapAndLiquifyEnabled()": "4a74bb02",
					"symbol()": "95d89b41",
					"tokenFromReflection(uint256)": "2d838119",
					"totalFees()": "13114a9d",
					"totalSupply()": "18160ddd",
					"transfer(address,uint256)": "a9059cbb",
					"transferFrom(address,address,uint256)": "23b872dd",
					"transferOwnership(address)": "f2fde38b",
					"uniswapV2Pair()": "49bd5a5e",
					"uniswapV2Router()": "1694505e",
					"unlock()": "a69df4b5"
				}
			},
			"storageLayout": {
				"storage": [
					{
						"astId": 473,
						"contract": "contracts/Pool/PoolPig.sol:WorldStepToken",
						"label": "_owner",
						"offset": 0,
						"slot": "0",
						"type": "t_address"
					},
					{
						"astId": 475,
						"contract": "contracts/Pool/PoolPig.sol:WorldStepToken",
						"label": "_previousOwner",
						"offset": 0,
						"slot": "1",
						"type": "t_address"
					},
					{
						"astId": 477,
						"contract": "contracts/Pool/PoolPig.sol:WorldStepToken",
						"label": "_lockTime",
						"offset": 0,
						"slot": "2",
						"type": "t_uint256"
					},
					{
						"astId": 1353,
						"contract": "contracts/Pool/PoolPig.sol:WorldStepToken",
						"label": "_rOwned",
						"offset": 0,
						"slot": "3",
						"type": "t_mapping(t_address,t_uint256)"
					},
					{
						"astId": 1357,
						"contract": "contracts/Pool/PoolPig.sol:WorldStepToken",
						"label": "_tOwned",
						"offset": 0,
						"slot": "4",
						"type": "t_mapping(t_address,t_uint256)"
					},
					{
						"astId": 1363,
						"contract": "contracts/Pool/PoolPig.sol:WorldStepToken",
						"label": "_allowances",
						"offset": 0,
						"slot": "5",
						"type": "t_mapping(t_address,t_mapping(t_address,t_uint256))"
					},
					{
						"astId": 1367,
						"contract": "contracts/Pool/PoolPig.sol:WorldStepToken",
						"label": "_isExcludedFromFee",
						"offset": 0,
						"slot": "6",
						"type": "t_mapping(t_address,t_bool)"
					},
					{
						"astId": 1371,
						"contract": "contracts/Pool/PoolPig.sol:WorldStepToken",
						"label": "_isExcluded",
						"offset": 0,
						"slot": "7",
						"type": "t_mapping(t_address,t_bool)"
					},
					{
						"astId": 1374,
						"contract": "contracts/Pool/PoolPig.sol:WorldStepToken",
						"label": "_excluded",
						"offset": 0,
						"slot": "8",
						"type": "t_array(t_address)dyn_storage"
					},
					{
						"astId": 1380,
						"contract": "contracts/Pool/PoolPig.sol:WorldStepToken",
						"label": "_developmentAddress",
						"offset": 0,
						"slot": "9",
						"type": "t_address_payable"
					},
					{
						"astId": 1386,
						"contract": "contracts/Pool/PoolPig.sol:WorldStepToken",
						"label": "_marketingAddress",
						"offset": 0,
						"slot": "10",
						"type": "t_address_payable"
					},
					{
						"astId": 1392,
						"contract": "contracts/Pool/PoolPig.sol:WorldStepToken",
						"label": "_rewardPool",
						"offset": 0,
						"slot": "11",
						"type": "t_address_payable"
					},
					{
						"astId": 1415,
						"contract": "contracts/Pool/PoolPig.sol:WorldStepToken",
						"label": "_rTotal",
						"offset": 0,
						"slot": "12",
						"type": "t_uint256"
					},
					{
						"astId": 1417,
						"contract": "contracts/Pool/PoolPig.sol:WorldStepToken",
						"label": "_tFeeTotal",
						"offset": 0,
						"slot": "13",
						"type": "t_uint256"
					},
					{
						"astId": 1420,
						"contract": "contracts/Pool/PoolPig.sol:WorldStepToken",
						"label": "_name",
						"offset": 0,
						"slot": "14",
						"type": "t_string_storage"
					},
					{
						"astId": 1423,
						"contract": "contracts/Pool/PoolPig.sol:WorldStepToken",
						"label": "_symbol",
						"offset": 0,
						"slot": "15",
						"type": "t_string_storage"
					},
					{
						"astId": 1426,
						"contract": "contracts/Pool/PoolPig.sol:WorldStepToken",
						"label": "_decimals",
						"offset": 0,
						"slot": "16",
						"type": "t_uint8"
					},
					{
						"astId": 1429,
						"contract": "contracts/Pool/PoolPig.sol:WorldStepToken",
						"label": "_taxFee",
						"offset": 0,
						"slot": "17",
						"type": "t_uint256"
					},
					{
						"astId": 1432,
						"contract": "contracts/Pool/PoolPig.sol:WorldStepToken",
						"label": "_previousTaxFee",
						"offset": 0,
						"slot": "18",
						"type": "t_uint256"
					},
					{
						"astId": 1435,
						"contract": "contracts/Pool/PoolPig.sol:WorldStepToken",
						"label": "_liquidityFee",
						"offset": 0,
						"slot": "19",
						"type": "t_uint256"
					},
					{
						"astId": 1438,
						"contract": "contracts/Pool/PoolPig.sol:WorldStepToken",
						"label": "_previousLiquidityFee",
						"offset": 0,
						"slot": "20",
						"type": "t_uint256"
					},
					{
						"astId": 1444,
						"contract": "contracts/Pool/PoolPig.sol:WorldStepToken",
						"label": "inSwapAndLiquify",
						"offset": 0,
						"slot": "21",
						"type": "t_bool"
					},
					{
						"astId": 1447,
						"contract": "contracts/Pool/PoolPig.sol:WorldStepToken",
						"label": "swapAndLiquifyEnabled",
						"offset": 1,
						"slot": "21",
						"type": "t_bool"
					},
					{
						"astId": 1450,
						"contract": "contracts/Pool/PoolPig.sol:WorldStepToken",
						"label": "initialLiqDone",
						"offset": 2,
						"slot": "21",
						"type": "t_bool"
					},
					{
						"astId": 1457,
						"contract": "contracts/Pool/PoolPig.sol:WorldStepToken",
						"label": "_maxTxAmount",
						"offset": 0,
						"slot": "22",
						"type": "t_uint256"
					},
					{
						"astId": 1464,
						"contract": "contracts/Pool/PoolPig.sol:WorldStepToken",
						"label": "numTokensSellToAddToLiquidity",
						"offset": 0,
						"slot": "23",
						"type": "t_uint256"
					}
				],
				"types": {
					"t_address": {
						"encoding": "inplace",
						"label": "address",
						"numberOfBytes": "20"
					},
					"t_address_payable": {
						"encoding": "inplace",
						"label": "address payable",
						"numberOfBytes": "20"
					},
					"t_array(t_address)dyn_storage": {
						"base": "t_address",
						"encoding": "dynamic_array",
						"label": "address[]",
						"numberOfBytes": "32"
					},
					"t_bool": {
						"encoding": "inplace",
						"label": "bool",
						"numberOfBytes": "1"
					},
					"t_mapping(t_address,t_bool)": {
						"encoding": "mapping",
						"key": "t_address",
						"label": "mapping(address => bool)",
						"numberOfBytes": "32",
						"value": "t_bool"
					},
					"t_mapping(t_address,t_mapping(t_address,t_uint256))": {
						"encoding": "mapping",
						"key": "t_address",
						"label": "mapping(address => mapping(address => uint256))",
						"numberOfBytes": "32",
						"value": "t_mapping(t_address,t_uint256)"
					},
					"t_mapping(t_address,t_uint256)": {
						"encoding": "mapping",
						"key": "t_address",
						"label": "mapping(address => uint256)",
						"numberOfBytes": "32",
						"value": "t_uint256"
					},
					"t_string_storage": {
						"encoding": "bytes",
						"label": "string",
						"numberOfBytes": "32"
					},
					"t_uint256": {
						"encoding": "inplace",
						"label": "uint256",
						"numberOfBytes": "32"
					},
					"t_uint8": {
						"encoding": "inplace",
						"label": "uint8",
						"numberOfBytes": "1"
					}
				}
			},
			"userdoc": {
				"kind": "user",
				"methods": {},
				"version": 1
			}
		}
	}
}