{
	"contracts/Pool/PoolPig.sol": {
		"PigToken": {
			"abi": [
				{
					"inputs": [],
					"stateMutability": "nonpayable",
					"type": "constructor"
				},
				{
					"anonymous": false,
					"inputs": [
						{
							"indexed": true,
							"internalType": "address",
							"name": "owner",
							"type": "address"
						},
						{
							"indexed": true,
							"internalType": "address",
							"name": "spender",
							"type": "address"
						},
						{
							"indexed": false,
							"internalType": "uint256",
							"name": "value",
							"type": "uint256"
						}
					],
					"name": "Approval",
					"type": "event"
				},
				{
					"anonymous": false,
					"inputs": [
						{
							"indexed": false,
							"internalType": "uint256",
							"name": "minTokensBeforeSwap",
							"type": "uint256"
						}
					],
					"name": "MinTokensBeforeSwapUpdated",
					"type": "event"
				},
				{
					"anonymous": false,
					"inputs": [
						{
							"indexed": true,
							"internalType": "address",
							"name": "previousOwner",
							"type": "address"
						},
						{
							"indexed": true,
							"internalType": "address",
							"name": "newOwner",
							"type": "address"
						}
					],
					"name": "OwnershipTransferred",
					"type": "event"
				},
				{
					"anonymous": false,
					"inputs": [
						{
							"indexed": false,
							"internalType": "uint256",
							"name": "tokensSwapped",
							"type": "uint256"
						},
						{
							"indexed": false,
							"internalType": "uint256",
							"name": "ethReceived",
							"type": "uint256"
						},
						{
							"indexed": false,
							"internalType": "uint256",
							"name": "tokensIntoLiqudity",
							"type": "uint256"
						}
					],
					"name": "SwapAndLiquify",
					"type": "event"
				},
				{
					"anonymous": false,
					"inputs": [
						{
							"indexed": false,
							"internalType": "bool",
							"name": "enabled",
							"type": "bool"
						}
					],
					"name": "SwapAndLiquifyEnabledUpdated",
					"type": "event"
				},
				{
					"anonymous": false,
					"inputs": [
						{
							"indexed": true,
							"internalType": "address",
							"name": "from",
							"type": "address"
						},
						{
							"indexed": true,
							"internalType": "address",
							"name": "to",
							"type": "address"
						},
						{
							"indexed": false,
							"internalType": "uint256",
							"name": "value",
							"type": "uint256"
						}
					],
					"name": "Transfer",
					"type": "event"
				},
				{
					"inputs": [],
					"name": "_liquidityFee",
					"outputs": [
						{
							"internalType": "uint256",
							"name": "",
							"type": "uint256"
						}
					],
					"stateMutability": "view",
					"type": "function"
				},
				{
					"inputs": [],
					"name": "_maxTxAmount",
					"outputs": [
						{
							"internalType": "uint256",
							"name": "",
							"type": "uint256"
						}
					],
					"stateMutability": "view",
					"type": "function"
				},
				{
					"inputs": [],
					"name": "_taxFee",
					"outputs": [
						{
							"internalType": "uint256",
							"name": "",
							"type": "uint256"
						}
					],
					"stateMutability": "view",
					"type": "function"
				},
				{
					"inputs": [
						{
							"internalType": "address",
							"name": "owner",
							"type": "address"
						},
						{
							"internalType": "address",
							"name": "spender",
							"type": "address"
						}
					],
					"name": "allowance",
					"outputs": [
						{
							"internalType": "uint256",
							"name": "",
							"type": "uint256"
						}
					],
					"stateMutability": "view",
					"type": "function"
				},
				{
					"inputs": [
						{
							"internalType": "address",
							"name": "spender",
							"type": "address"
						},
						{
							"internalType": "uint256",
							"name": "amount",
							"type": "uint256"
						}
					],
					"name": "approve",
					"outputs": [
						{
							"internalType": "bool",
							"name": "",
							"type": "bool"
						}
					],
					"stateMutability": "nonpayable",
					"type": "function"
				},
				{
					"inputs": [
						{
							"internalType": "address",
							"name": "account",
							"type": "address"
						}
					],
					"name": "balanceOf",
					"outputs": [
						{
							"internalType": "uint256",
							"name": "",
							"type": "uint256"
						}
					],
					"stateMutability": "view",
					"type": "function"
				},
				{
					"inputs": [],
					"name": "decimals",
					"outputs": [
						{
							"internalType": "uint8",
							"name": "",
							"type": "uint8"
						}
					],
					"stateMutability": "view",
					"type": "function"
				},
				{
					"inputs": [
						{
							"internalType": "address",
							"name": "spender",
							"type": "address"
						},
						{
							"internalType": "uint256",
							"name": "subtractedValue",
							"type": "uint256"
						}
					],
					"name": "decreaseAllowance",
					"outputs": [
						{
							"internalType": "bool",
							"name": "",
							"type": "bool"
						}
					],
					"stateMutability": "nonpayable",
					"type": "function"
				},
				{
					"inputs": [
						{
							"internalType": "uint256",
							"name": "tAmount",
							"type": "uint256"
						}
					],
					"name": "deliver",
					"outputs": [],
					"stateMutability": "nonpayable",
					"type": "function"
				},
				{
					"inputs": [
						{
							"internalType": "address",
							"name": "account",
							"type": "address"
						}
					],
					"name": "excludeFromFee",
					"outputs": [],
					"stateMutability": "nonpayable",
					"type": "function"
				},
				{
					"inputs": [
						{
							"internalType": "address",
							"name": "account",
							"type": "address"
						}
					],
					"name": "excludeFromReward",
					"outputs": [],
					"stateMutability": "nonpayable",
					"type": "function"
				},
				{
					"inputs": [],
					"name": "geUnlockTime",
					"outputs": [
						{
							"internalType": "uint256",
							"name": "",
							"type": "uint256"
						}
					],
					"stateMutability": "view",
					"type": "function"
				},
				{
					"inputs": [
						{
							"internalType": "address",
							"name": "account",
							"type": "address"
						}
					],
					"name": "includeInFee",
					"outputs": [],
					"stateMutability": "nonpayable",
					"type": "function"
				},
				{
					"inputs": [
						{
							"internalType": "address",
							"name": "account",
							"type": "address"
						}
					],
					"name": "includeInReward",
					"outputs": [],
					"stateMutability": "nonpayable",
					"type": "function"
				},
				{
					"inputs": [
						{
							"internalType": "address",
							"name": "spender",
							"type": "address"
						},
						{
							"internalType": "uint256",
							"name": "addedValue",
							"type": "uint256"
						}
					],
					"name": "increaseAllowance",
					"outputs": [
						{
							"internalType": "bool",
							"name": "",
							"type": "bool"
						}
					],
					"stateMutability": "nonpayable",
					"type": "function"
				},
				{
					"inputs": [
						{
							"internalType": "address",
							"name": "account",
							"type": "address"
						}
					],
					"name": "isExcludedFromFee",
					"outputs": [
						{
							"internalType": "bool",
							"name": "",
							"type": "bool"
						}
					],
					"stateMutability": "view",
					"type": "function"
				},
				{
					"inputs": [
						{
							"internalType": "address",
							"name": "account",
							"type": "address"
						}
					],
					"name": "isExcludedFromReward",
					"outputs": [
						{
							"internalType": "bool",
							"name": "",
							"type": "bool"
						}
					],
					"stateMutability": "view",
					"type": "function"
				},
				{
					"inputs": [
						{
							"internalType": "uint256",
							"name": "time",
							"type": "uint256"
						}
					],
					"name": "lock",
					"outputs": [],
					"stateMutability": "nonpayable",
					"type": "function"
				},
				{
					"inputs": [],
					"name": "name",
					"outputs": [
						{
							"internalType": "string",
							"name": "",
							"type": "string"
						}
					],
					"stateMutability": "view",
					"type": "function"
				},
				{
					"inputs": [],
					"name": "owner",
					"outputs": [
						{
							"internalType": "address",
							"name": "",
							"type": "address"
						}
					],
					"stateMutability": "view",
					"type": "function"
				},
				{
					"inputs": [
						{
							"internalType": "uint256",
							"name": "tAmount",
							"type": "uint256"
						},
						{
							"internalType": "bool",
							"name": "deductTransferFee",
							"type": "bool"
						}
					],
					"name": "reflectionFromToken",
					"outputs": [
						{
							"internalType": "uint256",
							"name": "",
							"type": "uint256"
						}
					],
					"stateMutability": "view",
					"type": "function"
				},
				{
					"inputs": [],
					"name": "renounceOwnership",
					"outputs": [],
					"stateMutability": "nonpayable",
					"type": "function"
				},
				{
					"inputs": [
						{
							"internalType": "uint256",
							"name": "liquidityFee",
							"type": "uint256"
						}
					],
					"name": "setLiquidityFeePercent",
					"outputs": [],
					"stateMutability": "nonpayable",
					"type": "function"
				},
				{
					"inputs": [
						{
							"internalType": "uint256",
							"name": "maxTxPercent",
							"type": "uint256"
						}
					],
					"name": "setMaxTxPercent",
					"outputs": [],
					"stateMutability": "nonpayable",
					"type": "function"
				},
				{
					"inputs": [
						{
							"internalType": "bool",
							"name": "_enabled",
							"type": "bool"
						}
					],
					"name": "setSwapAndLiquifyEnabled",
					"outputs": [],
					"stateMutability": "nonpayable",
					"type": "function"
				},
				{
					"inputs": [
						{
							"internalType": "uint256",
							"name": "taxFee",
							"type": "uint256"
						}
					],
					"name": "setTaxFeePercent",
					"outputs": [],
					"stateMutability": "nonpayable",
					"type": "function"
				},
				{
					"inputs": [],
					"name": "swapAndLiquifyEnabled",
					"outputs": [
						{
							"internalType": "bool",
							"name": "",
							"type": "bool"
						}
					],
					"stateMutability": "view",
					"type": "function"
				},
				{
					"inputs": [],
					"name": "symbol",
					"outputs": [
						{
							"internalType": "string",
							"name": "",
							"type": "string"
						}
					],
					"stateMutability": "view",
					"type": "function"
				},
				{
					"inputs": [
						{
							"internalType": "uint256",
							"name": "rAmount",
							"type": "uint256"
						}
					],
					"name": "tokenFromReflection",
					"outputs": [
						{
							"internalType": "uint256",
							"name": "",
							"type": "uint256"
						}
					],
					"stateMutability": "view",
					"type": "function"
				},
				{
					"inputs": [],
					"name": "totalFees",
					"outputs": [
						{
							"internalType": "uint256",
							"name": "",
							"type": "uint256"
						}
					],
					"stateMutability": "view",
					"type": "function"
				},
				{
					"inputs": [],
					"name": "totalSupply",
					"outputs": [
						{
							"internalType": "uint256",
							"name": "",
							"type": "uint256"
						}
					],
					"stateMutability": "view",
					"type": "function"
				},
				{
					"inputs": [
						{
							"internalType": "address",
							"name": "recipient",
							"type": "address"
						},
						{
							"internalType": "uint256",
							"name": "amount",
							"type": "uint256"
						}
					],
					"name": "transfer",
					"outputs": [
						{
							"internalType": "bool",
							"name": "",
							"type": "bool"
						}
					],
					"stateMutability": "nonpayable",
					"type": "function"
				},
				{
					"inputs": [
						{
							"internalType": "address",
							"name": "sender",
							"type": "address"
						},
						{
							"internalType": "address",
							"name": "recipient",
							"type": "address"
						},
						{
							"internalType": "uint256",
							"name": "amount",
							"type": "uint256"
						}
					],
					"name": "transferFrom",
					"outputs": [
						{
							"internalType": "bool",
							"name": "",
							"type": "bool"
						}
					],
					"stateMutability": "nonpayable",
					"type": "function"
				},
				{
					"inputs": [
						{
							"internalType": "address",
							"name": "newOwner",
							"type": "address"
						}
					],
					"name": "transferOwnership",
					"outputs": [],
					"stateMutability": "nonpayable",
					"type": "function"
				},
				{
					"inputs": [],
					"name": "uniswapV2Pair",
					"outputs": [
						{
							"internalType": "address",
							"name": "",
							"type": "address"
						}
					],
					"stateMutability": "view",
					"type": "function"
				},
				{
					"inputs": [],
					"name": "uniswapV2Router",
					"outputs": [
						{
							"internalType": "contract IUniswapV2Router02",
							"name": "",
							"type": "address"
						}
					],
					"stateMutability": "view",
					"type": "function"
				},
				{
					"inputs": [],
					"name": "unlock",
					"outputs": [],
					"stateMutability": "nonpayable",
					"type": "function"
				},
				{
					"stateMutability": "payable",
					"type": "receive"
				}
			],
			"devdoc": {
				"kind": "dev",
				"methods": {
					"owner()": {
						"details": "Returns the address of the current owner."
					}
				},
				"version": 1
			},
			"evm": {
				"assembly": "    /* \"contracts/Pool/PoolPig.sol\":15130:32696  contract PigToken is Context, IERC20, Ownable {... */\n  mstore(0x40, 0xc0)\n    /* \"contracts/Pool/PoolPig.sol\":15652:15670  1000000000 * 10**9 */\n  0x0de0b6b3a7640000\n    /* \"contracts/Pool/PoolPig.sol\":15609:15610  0 */\n  0x00\n    /* \"contracts/Pool/PoolPig.sol\":15600:15611  ~uint256(0) */\n  not\n    /* \"contracts/Pool/PoolPig.sol\":15710:15723  MAX % _tTotal */\n  dup2\n  tag_1\n  jumpi\n  invalid\ntag_1:\n  mod\n    /* \"contracts/Pool/PoolPig.sol\":15609:15610  0 */\n  0x00\n    /* \"contracts/Pool/PoolPig.sol\":15600:15611  ~uint256(0) */\n  not\n    /* \"contracts/Pool/PoolPig.sol\":15703:15724  MAX - (MAX % _tTotal) */\n  sub\n    /* \"contracts/Pool/PoolPig.sol\":15676:15725  uint256 private _rTotal = (MAX - (MAX % _tTotal)) */\n  0x09\n  sstore\n    /* \"contracts/Pool/PoolPig.sol\":15764:15798  string private _name = \"Pig Token\" */\n  mload(0x40)\n  dup1\n  0x40\n  add\n  0x40\n  mstore\n  dup1\n  0x09\n  dup2\n  mstore\n  0x20\n  add\n  0x50696720546f6b656e0000000000000000000000000000000000000000000000\n  dup2\n  mstore\n  pop\n  0x0b\n  swap1\n  dup1\n  mload\n  swap1\n  0x20\n  add\n  swap1\n  tag_2\n  swap3\n  swap2\n  swap1\n  tag_3\n  jump\t// in\ntag_2:\n  pop\n    /* \"contracts/Pool/PoolPig.sol\":15804:15834  string private _symbol = \"PIG\" */\n  mload(0x40)\n  dup1\n  0x40\n  add\n  0x40\n  mstore\n  dup1\n  0x03\n  dup2\n  mstore\n  0x20\n  add\n  0x5049470000000000000000000000000000000000000000000000000000000000\n  dup2\n  mstore\n  pop\n  0x0c\n  swap1\n  dup1\n  mload\n  swap1\n  0x20\n  add\n  swap1\n  tag_4\n  swap3\n  swap2\n  swap1\n  tag_3\n  jump\t// in\ntag_4:\n  pop\n    /* \"contracts/Pool/PoolPig.sol\":15866:15867  9 */\n  0x09\n    /* \"contracts/Pool/PoolPig.sol\":15840:15867  uint8 private _decimals = 9 */\n  0x0d\n  exp(0x0100, 0x00)\n  dup2\n  sload\n  dup2\n  0xff\n  mul\n  not\n  and\n  swap1\n  dup4\n  0xff\n  and\n  mul\n  or\n  swap1\n  sstore\n  pop\n    /* \"contracts/Pool/PoolPig.sol\":15903:15904  2 */\n  0x02\n    /* \"contracts/Pool/PoolPig.sol\":15878:15904  uint256 public _taxFee = 2 */\n  0x0e\n  sstore\n    /* \"contracts/Pool/PoolPig.sol\":15944:15951  _taxFee */\n  sload(0x0e)\n    /* \"contracts/Pool/PoolPig.sol\":15910:15951  uint256 private _previousTaxFee = _taxFee */\n  0x0f\n  sstore\n    /* \"contracts/Pool/PoolPig.sol\":15993:15994  3 */\n  0x03\n    /* \"contracts/Pool/PoolPig.sol\":15962:15994  uint256 public _liquidityFee = 3 */\n  0x10\n  sstore\n    /* \"contracts/Pool/PoolPig.sol\":16040:16053  _liquidityFee */\n  sload(0x10)\n    /* \"contracts/Pool/PoolPig.sol\":16000:16053  uint256 private _previousLiquidityFee = _liquidityFee */\n  0x11\n  sstore\n    /* \"contracts/Pool/PoolPig.sol\":16229:16233  true */\n  0x01\n    /* \"contracts/Pool/PoolPig.sol\":16193:16233  bool public swapAndLiquifyEnabled = true */\n  0x12\n  exp(0x0100, 0x01)\n  dup2\n  sload\n  dup2\n  0xff\n  mul\n  not\n  and\n  swap1\n  dup4\n  iszero\n  iszero\n  mul\n  or\n  swap1\n  sstore\n  pop\n    /* \"contracts/Pool/PoolPig.sol\":16274:16291  500000000 * 10**9 */\n  0x06f05b59d3b20000\n    /* \"contracts/Pool/PoolPig.sol\":16244:16291  uint256 public _maxTxAmount = 500000000 * 10**9 */\n  0x13\n  sstore\n    /* \"contracts/Pool/PoolPig.sol\":16345:16360  250000000*10**9 */\n  0x03782dace9d90000\n    /* \"contracts/Pool/PoolPig.sol\":16297:16360  uint256 private numTokensSellToAddToLiquidity = 250000000*10**9 */\n  0x14\n  sstore\n    /* \"contracts/Pool/PoolPig.sol\":16741:17390  constructor () public {... */\n  callvalue\n  dup1\n  iszero\n  tag_5\n  jumpi\n  0x00\n  dup1\n  revert\ntag_5:\n  pop\n    /* \"contracts/Pool/PoolPig.sol\":5630:5647  address msgSender */\n  0x00\n    /* \"contracts/Pool/PoolPig.sol\":5650:5662  _msgSender() */\n  tag_9\n    /* \"contracts/Pool/PoolPig.sol\":5650:5660  _msgSender */\n  shl(0x20, tag_10)\n    /* \"contracts/Pool/PoolPig.sol\":5650:5662  _msgSender() */\n  0x20\n  shr\n  jump\t// in\ntag_9:\n    /* \"contracts/Pool/PoolPig.sol\":5630:5662  address msgSender = _msgSender() */\n  swap1\n  pop\n    /* \"contracts/Pool/PoolPig.sol\":5681:5690  msgSender */\n  dup1\n    /* \"contracts/Pool/PoolPig.sol\":5672:5678  _owner */\n  0x00\n  dup1\n    /* \"contracts/Pool/PoolPig.sol\":5672:5690  _owner = msgSender */\n  0x0100\n  exp\n  dup2\n  sload\n  dup2\n  0xffffffffffffffffffffffffffffffffffffffff\n  mul\n  not\n  and\n  swap1\n  dup4\n  0xffffffffffffffffffffffffffffffffffffffff\n  and\n  mul\n  or\n  swap1\n  sstore\n  pop\n    /* \"contracts/Pool/PoolPig.sol\":5738:5747  msgSender */\n  dup1\n    /* \"contracts/Pool/PoolPig.sol\":5705:5748  OwnershipTransferred(address(0), msgSender) */\n  0xffffffffffffffffffffffffffffffffffffffff\n  and\n    /* \"contracts/Pool/PoolPig.sol\":5734:5735  0 */\n  0x00\n    /* \"contracts/Pool/PoolPig.sol\":5705:5748  OwnershipTransferred(address(0), msgSender) */\n  0xffffffffffffffffffffffffffffffffffffffff\n  and\n  0x8be0079c531659141344cd1fd0a4f28419497f9722a3daafe3b4186f6b6457e0\n  mload(0x40)\n  mload(0x40)\n  dup1\n  swap2\n  sub\n  swap1\n  log3\n    /* \"contracts/Pool/PoolPig.sol\":5596:5755  constructor () internal {... */\n  pop\n    /* \"contracts/Pool/PoolPig.sol\":16797:16804  _rTotal */\n  sload(0x09)\n    /* \"contracts/Pool/PoolPig.sol\":16773:16780  _rOwned */\n  0x03\n    /* \"contracts/Pool/PoolPig.sol\":16773:16794  _rOwned[_msgSender()] */\n  0x00\n    /* \"contracts/Pool/PoolPig.sol\":16781:16793  _msgSender() */\n  tag_12\n    /* \"contracts/Pool/PoolPig.sol\":16781:16791  _msgSender */\n  shl(0x20, tag_10)\n    /* \"contracts/Pool/PoolPig.sol\":16781:16793  _msgSender() */\n  0x20\n  shr\n  jump\t// in\ntag_12:\n    /* \"contracts/Pool/PoolPig.sol\":16773:16794  _rOwned[_msgSender()] */\n  0xffffffffffffffffffffffffffffffffffffffff\n  and\n  0xffffffffffffffffffffffffffffffffffffffff\n  and\n  dup2\n  mstore\n  0x20\n  add\n  swap1\n  dup2\n  mstore\n  0x20\n  add\n  0x00\n  keccak256\n    /* \"contracts/Pool/PoolPig.sol\":16773:16804  _rOwned[_msgSender()] = _rTotal */\n  dup2\n  swap1\n  sstore\n  pop\n    /* \"contracts/Pool/PoolPig.sol\":16823:16858  IUniswapV2Router02 _uniswapV2Router */\n  0x00\n    /* \"contracts/Pool/PoolPig.sol\":16880:16922  0x05fF2B0DB69458A0750badebc4f9e13aDd608C7F */\n  0x05ff2b0db69458a0750badebc4f9e13add608c7f\n    /* \"contracts/Pool/PoolPig.sol\":16823:16923  IUniswapV2Router02 _uniswapV2Router = IUniswapV2Router02(0x05fF2B0DB69458A0750badebc4f9e13aDd608C7F) */\n  swap1\n  pop\n    /* \"contracts/Pool/PoolPig.sol\":16976:16992  _uniswapV2Router */\n  dup1\n    /* \"contracts/Pool/PoolPig.sol\":16976:17000  _uniswapV2Router.factory */\n  0xffffffffffffffffffffffffffffffffffffffff\n  and\n  0xc45a0155\n    /* \"contracts/Pool/PoolPig.sol\":16976:17002  _uniswapV2Router.factory() */\n  mload(0x40)\n  dup2\n  0xffffffff\n  and\n  0xe0\n  shl\n  dup2\n  mstore\n  0x04\n  add\n  0x20\n  mload(0x40)\n  dup1\n  dup4\n  sub\n  dup2\n  dup7\n  dup1\n  extcodesize\n  iszero\n  dup1\n  iszero\n  tag_13\n  jumpi\n  0x00\n  dup1\n  revert\ntag_13:\n  pop\n  gas\n  staticcall\n  iszero\n  dup1\n  iszero\n  tag_15\n  jumpi\n  returndatasize\n  0x00\n  dup1\n  returndatacopy\n  revert(0x00, returndatasize)\ntag_15:\n  pop\n  pop\n  pop\n  pop\n  mload(0x40)\n  returndatasize\n  0x20\n  dup2\n  lt\n  iszero\n  tag_16\n  jumpi\n  0x00\n  dup1\n  revert\ntag_16:\n  dup2\n  add\n  swap1\n  dup1\n  dup1\n  mload\n  swap1\n  0x20\n  add\n  swap1\n  swap3\n  swap2\n  swap1\n  pop\n  pop\n  pop\n    /* \"contracts/Pool/PoolPig.sol\":16958:17027  IUniswapV2Factory(_uniswapV2Router.factory())... */\n  0xffffffffffffffffffffffffffffffffffffffff\n  and\n  0xc9c65396\n    /* \"contracts/Pool/PoolPig.sol\":17036:17040  this */\n  address\n    /* \"contracts/Pool/PoolPig.sol\":17043:17059  _uniswapV2Router */\n  dup4\n    /* \"contracts/Pool/PoolPig.sol\":17043:17064  _uniswapV2Router.WETH */\n  0xffffffffffffffffffffffffffffffffffffffff\n  and\n  0xad5c4648\n    /* \"contracts/Pool/PoolPig.sol\":17043:17066  _uniswapV2Router.WETH() */\n  mload(0x40)\n  dup2\n  0xffffffff\n  and\n  0xe0\n  shl\n  dup2\n  mstore\n  0x04\n  add\n  0x20\n  mload(0x40)\n  dup1\n  dup4\n  sub\n  dup2\n  dup7\n  dup1\n  extcodesize\n  iszero\n  dup1\n  iszero\n  tag_17\n  jumpi\n  0x00\n  dup1\n  revert\ntag_17:\n  pop\n  gas\n  staticcall\n  iszero\n  dup1\n  iszero\n  tag_19\n  jumpi\n  returndatasize\n  0x00\n  dup1\n  returndatacopy\n  revert(0x00, returndatasize)\ntag_19:\n  pop\n  pop\n  pop\n  pop\n  mload(0x40)\n  returndatasize\n  0x20\n  dup2\n  lt\n  iszero\n  tag_20\n  jumpi\n  0x00\n  dup1\n  revert\ntag_20:\n  dup2\n  add\n  swap1\n  dup1\n  dup1\n  mload\n  swap1\n  0x20\n  add\n  swap1\n  swap3\n  swap2\n  swap1\n  pop\n  pop\n  pop\n    /* \"contracts/Pool/PoolPig.sol\":16958:17067  IUniswapV2Factory(_uniswapV2Router.factory())... */\n  mload(0x40)\n  dup4\n  0xffffffff\n  and\n  0xe0\n  shl\n  dup2\n  mstore\n  0x04\n  add\n  dup1\n  dup4\n  0xffffffffffffffffffffffffffffffffffffffff\n  and\n  dup2\n  mstore\n  0x20\n  add\n  dup3\n  0xffffffffffffffffffffffffffffffffffffffff\n  and\n  dup2\n  mstore\n  0x20\n  add\n  swap3\n  pop\n  pop\n  pop\n  0x20\n  mload(0x40)\n  dup1\n  dup4\n  sub\n  dup2\n  0x00\n  dup8\n  dup1\n  extcodesize\n  iszero\n  dup1\n  iszero\n  tag_21\n  jumpi\n  0x00\n  dup1\n  revert\ntag_21:\n  pop\n  gas\n  call\n  iszero\n  dup1\n  iszero\n  tag_23\n  jumpi\n  returndatasize\n  0x00\n  dup1\n  returndatacopy\n  revert(0x00, returndatasize)\ntag_23:\n  pop\n  pop\n  pop\n  pop\n  mload(0x40)\n  returndatasize\n  0x20\n  dup2\n  lt\n  iszero\n  tag_24\n  jumpi\n  0x00\n  dup1\n  revert\ntag_24:\n  dup2\n  add\n  swap1\n  dup1\n  dup1\n  mload\n  swap1\n  0x20\n  add\n  swap1\n  swap3\n  swap2\n  swap1\n  pop\n  pop\n  pop\n    /* \"contracts/Pool/PoolPig.sol\":16942:17067  uniswapV2Pair = IUniswapV2Factory(_uniswapV2Router.factory())... */\n  0xffffffffffffffffffffffffffffffffffffffff\n  and\n  0xa0\n  dup2\n  0xffffffffffffffffffffffffffffffffffffffff\n  and\n  0x60\n  shl\n  dup2\n  mstore\n  pop\n  pop\n    /* \"contracts/Pool/PoolPig.sol\":17146:17162  _uniswapV2Router */\n  dup1\n    /* \"contracts/Pool/PoolPig.sol\":17128:17162  uniswapV2Router = _uniswapV2Router */\n  0xffffffffffffffffffffffffffffffffffffffff\n  and\n  0x80\n  dup2\n  0xffffffffffffffffffffffffffffffffffffffff\n  and\n  0x60\n  shl\n  dup2\n  mstore\n  pop\n  pop\n    /* \"contracts/Pool/PoolPig.sol\":17262:17266  true */\n  0x01\n    /* \"contracts/Pool/PoolPig.sol\":17232:17250  _isExcludedFromFee */\n  0x06\n    /* \"contracts/Pool/PoolPig.sol\":17232:17259  _isExcludedFromFee[owner()] */\n  0x00\n    /* \"contracts/Pool/PoolPig.sol\":17251:17258  owner() */\n  tag_25\n    /* \"contracts/Pool/PoolPig.sol\":17251:17256  owner */\n  shl(0x20, tag_26)\n    /* \"contracts/Pool/PoolPig.sol\":17251:17258  owner() */\n  0x20\n  shr\n  jump\t// in\ntag_25:\n    /* \"contracts/Pool/PoolPig.sol\":17232:17259  _isExcludedFromFee[owner()] */\n  0xffffffffffffffffffffffffffffffffffffffff\n  and\n  0xffffffffffffffffffffffffffffffffffffffff\n  and\n  dup2\n  mstore\n  0x20\n  add\n  swap1\n  dup2\n  mstore\n  0x20\n  add\n  0x00\n  keccak256\n  0x00\n    /* \"contracts/Pool/PoolPig.sol\":17232:17266  _isExcludedFromFee[owner()] = true */\n  0x0100\n  exp\n  dup2\n  sload\n  dup2\n  0xff\n  mul\n  not\n  and\n  swap1\n  dup4\n  iszero\n  iszero\n  mul\n  or\n  swap1\n  sstore\n  pop\n    /* \"contracts/Pool/PoolPig.sol\":17312:17316  true */\n  0x01\n    /* \"contracts/Pool/PoolPig.sol\":17276:17294  _isExcludedFromFee */\n  0x06\n    /* \"contracts/Pool/PoolPig.sol\":17276:17309  _isExcludedFromFee[address(this)] */\n  0x00\n    /* \"contracts/Pool/PoolPig.sol\":17303:17307  this */\n  address\n    /* \"contracts/Pool/PoolPig.sol\":17276:17309  _isExcludedFromFee[address(this)] */\n  0xffffffffffffffffffffffffffffffffffffffff\n  and\n  0xffffffffffffffffffffffffffffffffffffffff\n  and\n  dup2\n  mstore\n  0x20\n  add\n  swap1\n  dup2\n  mstore\n  0x20\n  add\n  0x00\n  keccak256\n  0x00\n    /* \"contracts/Pool/PoolPig.sol\":17276:17316  _isExcludedFromFee[address(this)] = true */\n  0x0100\n  exp\n  dup2\n  sload\n  dup2\n  0xff\n  mul\n  not\n  and\n  swap1\n  dup4\n  iszero\n  iszero\n  mul\n  or\n  swap1\n  sstore\n  pop\n    /* \"contracts/Pool/PoolPig.sol\":17361:17373  _msgSender() */\n  tag_27\n    /* \"contracts/Pool/PoolPig.sol\":17361:17371  _msgSender */\n  shl(0x20, tag_10)\n    /* \"contracts/Pool/PoolPig.sol\":17361:17373  _msgSender() */\n  0x20\n  shr\n  jump\t// in\ntag_27:\n    /* \"contracts/Pool/PoolPig.sol\":17340:17383  Transfer(address(0), _msgSender(), _tTotal) */\n  0xffffffffffffffffffffffffffffffffffffffff\n  and\n    /* \"contracts/Pool/PoolPig.sol\":17357:17358  0 */\n  0x00\n    /* \"contracts/Pool/PoolPig.sol\":17340:17383  Transfer(address(0), _msgSender(), _tTotal) */\n  0xffffffffffffffffffffffffffffffffffffffff\n  and\n  0xddf252ad1be2c89b69c2b068fc378daa952ba7f163c4a11628f55a4df523b3ef\n    /* \"contracts/Pool/PoolPig.sol\":15652:15670  1000000000 * 10**9 */\n  0x0de0b6b3a7640000\n    /* \"contracts/Pool/PoolPig.sol\":17340:17383  Transfer(address(0), _msgSender(), _tTotal) */\n  mload(0x40)\n  dup1\n  dup3\n  dup2\n  mstore\n  0x20\n  add\n  swap2\n  pop\n  pop\n  mload(0x40)\n  dup1\n  swap2\n  sub\n  swap1\n  log3\n    /* \"contracts/Pool/PoolPig.sol\":16741:17390  constructor () public {... */\n  pop\n    /* \"contracts/Pool/PoolPig.sol\":15130:32696  contract PigToken is Context, IERC20, Ownable {... */\n  jump(tag_28)\n    /* \"contracts/Pool/PoolPig.sol\":2255:2359  function _msgSender() internal view virtual returns (address payable) {... */\ntag_10:\n    /* \"contracts/Pool/PoolPig.sol\":2308:2323  address payable */\n  0x00\n    /* \"contracts/Pool/PoolPig.sol\":2342:2352  msg.sender */\n  caller\n    /* \"contracts/Pool/PoolPig.sol\":2335:2352  return msg.sender */\n  swap1\n  pop\n    /* \"contracts/Pool/PoolPig.sol\":2255:2359  function _msgSender() internal view virtual returns (address payable) {... */\n  swap1\n  jump\t// out\n    /* \"contracts/Pool/PoolPig.sol\":5831:5908  function owner() public view returns (address) {... */\ntag_26:\n    /* \"contracts/Pool/PoolPig.sol\":5869:5876  address */\n  0x00\n    /* \"contracts/Pool/PoolPig.sol\":5895:5901  _owner */\n  dup1\n  0x00\n  swap1\n  sload\n  swap1\n  0x0100\n  exp\n  swap1\n  div\n  0xffffffffffffffffffffffffffffffffffffffff\n  and\n    /* \"contracts/Pool/PoolPig.sol\":5888:5901  return _owner */\n  swap1\n  pop\n    /* \"contracts/Pool/PoolPig.sol\":5831:5908  function owner() public view returns (address) {... */\n  swap1\n  jump\t// out\n    /* \"contracts/Pool/PoolPig.sol\":15130:32696  contract PigToken is Context, IERC20, Ownable {... */\ntag_3:\n  dup3\n  dup1\n  sload\n  0x01\n  dup2\n  0x01\n  and\n  iszero\n  0x0100\n  mul\n  sub\n  and\n  0x02\n  swap1\n  div\n  swap1\n  0x00\n  mstore\n  keccak256(0x00, 0x20)\n  swap1\n  0x1f\n  add\n  0x20\n  swap1\n  div\n  dup2\n  add\n  swap3\n  dup3\n  0x1f\n  lt\n  tag_32\n  jumpi\n  dup1\n  mload\n  not(0xff)\n  and\n  dup4\n  dup1\n  add\n  or\n  dup6\n  sstore\n  jump(tag_31)\ntag_32:\n  dup3\n  dup1\n  add\n  0x01\n  add\n  dup6\n  sstore\n  dup3\n  iszero\n  tag_31\n  jumpi\n  swap2\n  dup3\n  add\ntag_33:\n  dup3\n  dup2\n  gt\n  iszero\n  tag_34\n  jumpi\n  dup3\n  mload\n  dup3\n  sstore\n  swap2\n  0x20\n  add\n  swap2\n  swap1\n  0x01\n  add\n  swap1\n  jump(tag_33)\ntag_34:\ntag_31:\n  pop\n  swap1\n  pop\n  tag_35\n  swap2\n  swap1\n  tag_36\n  jump\t// in\ntag_35:\n  pop\n  swap1\n  jump\t// out\ntag_36:\ntag_37:\n  dup1\n  dup3\n  gt\n  iszero\n  tag_38\n  jumpi\n  0x00\n  dup2\n  0x00\n  swap1\n  sstore\n  pop\n  0x01\n  add\n  jump(tag_37)\ntag_38:\n  pop\n  swap1\n  jump\t// out\ntag_28:\n  shr(0x60, mload(0x80))\n  shr(0x60, mload(0xa0))\n  codecopy(0x00, dataOffset(sub_0), dataSize(sub_0))\n  assignImmutable(\"0x924caa65d1644bcda3c737cb4f972c9170b1e3eb26b1eeba5090c589a3beb7a4\")\n  assignImmutable(\"0xcbd30de1da04efa9e9dfb752a21e23c2c0c1de652015c52c119403b61435944f\")\n  return(0x00, dataSize(sub_0))\nstop\n\nsub_0: assembly {\n        /* \"contracts/Pool/PoolPig.sol\":15130:32696  contract PigToken is Context, IERC20, Ownable {... */\n      mstore(0x40, 0x80)\n      jumpi(tag_1, lt(calldatasize, 0x04))\n      shr(0xe0, calldataload(0x00))\n      dup1\n      0x5342acb4\n      gt\n      tag_40\n      jumpi\n      dup1\n      0xa457c2d7\n      gt\n      tag_41\n      jumpi\n      dup1\n      0xd543dbeb\n      gt\n      tag_42\n      jumpi\n      dup1\n      0xd543dbeb\n      eq\n      tag_35\n      jumpi\n      dup1\n      0xdd467064\n      eq\n      tag_36\n      jumpi\n      dup1\n      0xdd62ed3e\n      eq\n      tag_37\n      jumpi\n      dup1\n      0xea2f0b37\n      eq\n      tag_38\n      jumpi\n      dup1\n      0xf2fde38b\n      eq\n      tag_39\n      jumpi\n      jump(tag_2)\n    tag_42:\n      dup1\n      0xa457c2d7\n      eq\n      tag_30\n      jumpi\n      dup1\n      0xa69df4b5\n      eq\n      tag_31\n      jumpi\n      dup1\n      0xa9059cbb\n      eq\n      tag_32\n      jumpi\n      dup1\n      0xb6c52324\n      eq\n      tag_33\n      jumpi\n      dup1\n      0xc49b9a80\n      eq\n      tag_34\n      jumpi\n      jump(tag_2)\n    tag_41:\n      dup1\n      0x7d1db4a5\n      gt\n      tag_43\n      jumpi\n      dup1\n      0x7d1db4a5\n      eq\n      tag_25\n      jumpi\n      dup1\n      0x88f82020\n      eq\n      tag_26\n      jumpi\n      dup1\n      0x8da5cb5b\n      eq\n      tag_27\n      jumpi\n      dup1\n      0x8ee88c53\n      eq\n      tag_28\n      jumpi\n      dup1\n      0x95d89b41\n      eq\n      tag_29\n      jumpi\n      jump(tag_2)\n    tag_43:\n      dup1\n      0x5342acb4\n      eq\n      tag_21\n      jumpi\n      dup1\n      0x6bc87c3a\n      eq\n      tag_22\n      jumpi\n      dup1\n      0x70a08231\n      eq\n      tag_23\n      jumpi\n      dup1\n      0x715018a6\n      eq\n      tag_24\n      jumpi\n      jump(tag_2)\n    tag_40:\n      dup1\n      0x3685d419\n      gt\n      tag_44\n      jumpi\n      dup1\n      0x437823ec\n      gt\n      tag_45\n      jumpi\n      dup1\n      0x437823ec\n      eq\n      tag_16\n      jumpi\n      dup1\n      0x4549b039\n      eq\n      tag_17\n      jumpi\n      dup1\n      0x49bd5a5e\n      eq\n      tag_18\n      jumpi\n      dup1\n      0x4a74bb02\n      eq\n      tag_19\n      jumpi\n      dup1\n      0x52390c02\n      eq\n      tag_20\n      jumpi\n      jump(tag_2)\n    tag_45:\n      dup1\n      0x3685d419\n      eq\n      tag_12\n      jumpi\n      dup1\n      0x39509351\n      eq\n      tag_13\n      jumpi\n      dup1\n      0x3b124fe7\n      eq\n      tag_14\n      jumpi\n      dup1\n      0x3bd5d173\n      eq\n      tag_15\n      jumpi\n      jump(tag_2)\n    tag_44:\n      dup1\n      0x1694505e\n      gt\n      tag_46\n      jumpi\n      dup1\n      0x1694505e\n      eq\n      tag_7\n      jumpi\n      dup1\n      0x18160ddd\n      eq\n      tag_8\n      jumpi\n      dup1\n      0x23b872dd\n      eq\n      tag_9\n      jumpi\n      dup1\n      0x2d838119\n      eq\n      tag_10\n      jumpi\n      dup1\n      0x313ce567\n      eq\n      tag_11\n      jumpi\n      jump(tag_2)\n    tag_46:\n      dup1\n      0x061c82d0\n      eq\n      tag_3\n      jumpi\n      dup1\n      0x06fdde03\n      eq\n      tag_4\n      jumpi\n      dup1\n      0x095ea7b3\n      eq\n      tag_5\n      jumpi\n      dup1\n      0x13114a9d\n      eq\n      tag_6\n      jumpi\n      jump(tag_2)\n    tag_1:\n      jumpi(tag_2, calldatasize)\n      stop\n    tag_2:\n      0x00\n      dup1\n      revert\n        /* \"contracts/Pool/PoolPig.sol\":22335:22431  function setTaxFeePercent(uint256 taxFee) external onlyOwner() {... */\n    tag_3:\n      callvalue\n      dup1\n      iszero\n      tag_49\n      jumpi\n      0x00\n      dup1\n      revert\n    tag_49:\n      pop\n      tag_50\n      0x04\n      dup1\n      calldatasize\n      sub\n      0x20\n      dup2\n      lt\n      iszero\n      tag_51\n      jumpi\n      0x00\n      dup1\n      revert\n    tag_51:\n      dup2\n      add\n      swap1\n      dup1\n      dup1\n      calldataload\n      swap1\n      0x20\n      add\n      swap1\n      swap3\n      swap2\n      swap1\n      pop\n      pop\n      pop\n      tag_52\n      jump\t// in\n    tag_50:\n      stop\n        /* \"contracts/Pool/PoolPig.sol\":17396:17477  function name() public view returns (string memory) {... */\n    tag_4:\n      callvalue\n      dup1\n      iszero\n      tag_53\n      jumpi\n      0x00\n      dup1\n      revert\n    tag_53:\n      pop\n      tag_54\n      tag_55\n      jump\t// in\n    tag_54:\n      mload(0x40)\n      dup1\n      dup1\n      0x20\n      add\n      dup3\n      dup2\n      sub\n      dup3\n      mstore\n      dup4\n      dup2\n      dup2\n      mload\n      dup2\n      mstore\n      0x20\n      add\n      swap2\n      pop\n      dup1\n      mload\n      swap1\n      0x20\n      add\n      swap1\n      dup1\n      dup4\n      dup4\n      0x00\n    tag_56:\n      dup4\n      dup2\n      lt\n      iszero\n      tag_58\n      jumpi\n      dup1\n      dup3\n      add\n      mload\n      dup2\n      dup5\n      add\n      mstore\n      0x20\n      dup2\n      add\n      swap1\n      pop\n      jump(tag_56)\n    tag_58:\n      pop\n      pop\n      pop\n      pop\n      swap1\n      pop\n      swap1\n      dup2\n      add\n      swap1\n      0x1f\n      and\n      dup1\n      iszero\n      tag_59\n      jumpi\n      dup1\n      dup3\n      sub\n      dup1\n      mload\n      0x01\n      dup4\n      0x20\n      sub\n      0x0100\n      exp\n      sub\n      not\n      and\n      dup2\n      mstore\n      0x20\n      add\n      swap2\n      pop\n    tag_59:\n      pop\n      swap3\n      pop\n      pop\n      pop\n      mload(0x40)\n      dup1\n      swap2\n      sub\n      swap1\n      return\n        /* \"contracts/Pool/PoolPig.sol\":18278:18436  function approve(address spender, uint256 amount) public override returns (bool) {... */\n    tag_5:\n      callvalue\n      dup1\n      iszero\n      tag_60\n      jumpi\n      0x00\n      dup1\n      revert\n    tag_60:\n      pop\n      tag_61\n      0x04\n      dup1\n      calldatasize\n      sub\n      0x40\n      dup2\n      lt\n      iszero\n      tag_62\n      jumpi\n      0x00\n      dup1\n      revert\n    tag_62:\n      dup2\n      add\n      swap1\n      dup1\n      dup1\n      calldataload\n      0xffffffffffffffffffffffffffffffffffffffff\n      and\n      swap1\n      0x20\n      add\n      swap1\n      swap3\n      swap2\n      swap1\n      dup1\n      calldataload\n      swap1\n      0x20\n      add\n      swap1\n      swap3\n      swap2\n      swap1\n      pop\n      pop\n      pop\n      tag_63\n      jump\t// in\n    tag_61:\n      mload(0x40)\n      dup1\n      dup3\n      iszero\n      iszero\n      dup2\n      mstore\n      0x20\n      add\n      swap2\n      pop\n      pop\n      mload(0x40)\n      dup1\n      swap2\n      sub\n      swap1\n      return\n        /* \"contracts/Pool/PoolPig.sol\":19374:19459  function totalFees() public view returns (uint256) {... */\n    tag_6:\n      callvalue\n      dup1\n      iszero\n      tag_64\n      jumpi\n      0x00\n      dup1\n      revert\n    tag_64:\n      pop\n      tag_65\n      tag_66\n      jump\t// in\n    tag_65:\n      mload(0x40)\n      dup1\n      dup3\n      dup2\n      mstore\n      0x20\n      add\n      swap2\n      pop\n      pop\n      mload(0x40)\n      dup1\n      swap2\n      sub\n      swap1\n      return\n        /* \"contracts/Pool/PoolPig.sol\":16060:16111  IUniswapV2Router02 public immutable uniswapV2Router */\n    tag_7:\n      callvalue\n      dup1\n      iszero\n      tag_67\n      jumpi\n      0x00\n      dup1\n      revert\n    tag_67:\n      pop\n      tag_68\n      tag_69\n      jump\t// in\n    tag_68:\n      mload(0x40)\n      dup1\n      dup3\n      0xffffffffffffffffffffffffffffffffffffffff\n      and\n      dup2\n      mstore\n      0x20\n      add\n      swap2\n      pop\n      pop\n      mload(0x40)\n      dup1\n      swap2\n      sub\n      swap1\n      return\n        /* \"contracts/Pool/PoolPig.sol\":17661:17754  function totalSupply() public view override returns (uint256) {... */\n    tag_8:\n      callvalue\n      dup1\n      iszero\n      tag_70\n      jumpi\n      0x00\n      dup1\n      revert\n    tag_70:\n      pop\n      tag_71\n      tag_72\n      jump\t// in\n    tag_71:\n      mload(0x40)\n      dup1\n      dup3\n      dup2\n      mstore\n      0x20\n      add\n      swap2\n      pop\n      pop\n      mload(0x40)\n      dup1\n      swap2\n      sub\n      swap1\n      return\n        /* \"contracts/Pool/PoolPig.sol\":18442:18751  function transferFrom(address sender, address recipient, uint256 amount) public override returns (bool) {... */\n    tag_9:\n      callvalue\n      dup1\n      iszero\n      tag_73\n      jumpi\n      0x00\n      dup1\n      revert\n    tag_73:\n      pop\n      tag_74\n      0x04\n      dup1\n      calldatasize\n      sub\n      0x60\n      dup2\n      lt\n      iszero\n      tag_75\n      jumpi\n      0x00\n      dup1\n      revert\n    tag_75:\n      dup2\n      add\n      swap1\n      dup1\n      dup1\n      calldataload\n      0xffffffffffffffffffffffffffffffffffffffff\n      and\n      swap1\n      0x20\n      add\n      swap1\n      swap3\n      swap2\n      swap1\n      dup1\n      calldataload\n      0xffffffffffffffffffffffffffffffffffffffff\n      and\n      swap1\n      0x20\n      add\n      swap1\n      swap3\n      swap2\n      swap1\n      dup1\n      calldataload\n      swap1\n      0x20\n      add\n      swap1\n      swap3\n      swap2\n      swap1\n      pop\n      pop\n      pop\n      tag_76\n      jump\t// in\n    tag_74:\n      mload(0x40)\n      dup1\n      dup3\n      iszero\n      iszero\n      dup2\n      mstore\n      0x20\n      add\n      swap2\n      pop\n      pop\n      mload(0x40)\n      dup1\n      swap2\n      sub\n      swap1\n      return\n        /* \"contracts/Pool/PoolPig.sol\":20274:20523  function tokenFromReflection(uint256 rAmount) public view returns(uint256) {... */\n    tag_10:\n      callvalue\n      dup1\n      iszero\n      tag_77\n      jumpi\n      0x00\n      dup1\n      revert\n    tag_77:\n      pop\n      tag_78\n      0x04\n      dup1\n      calldatasize\n      sub\n      0x20\n      dup2\n      lt\n      iszero\n      tag_79\n      jumpi\n      0x00\n      dup1\n      revert\n    tag_79:\n      dup2\n      add\n      swap1\n      dup1\n      dup1\n      calldataload\n      swap1\n      0x20\n      add\n      swap1\n      swap3\n      swap2\n      swap1\n      pop\n      pop\n      pop\n      tag_80\n      jump\t// in\n    tag_78:\n      mload(0x40)\n      dup1\n      dup3\n      dup2\n      mstore\n      0x20\n      add\n      swap2\n      pop\n      pop\n      mload(0x40)\n      dup1\n      swap2\n      sub\n      swap1\n      return\n        /* \"contracts/Pool/PoolPig.sol\":17574:17655  function decimals() public view returns (uint8) {... */\n    tag_11:\n      callvalue\n      dup1\n      iszero\n      tag_81\n      jumpi\n      0x00\n      dup1\n      revert\n    tag_81:\n      pop\n      tag_82\n      tag_83\n      jump\t// in\n    tag_82:\n      mload(0x40)\n      dup1\n      dup3\n      0xff\n      and\n      dup2\n      mstore\n      0x20\n      add\n      swap2\n      pop\n      pop\n      mload(0x40)\n      dup1\n      swap2\n      sub\n      swap1\n      return\n        /* \"contracts/Pool/PoolPig.sol\":20974:21442  function includeInReward(address account) external onlyOwner() {... */\n    tag_12:\n      callvalue\n      dup1\n      iszero\n      tag_84\n      jumpi\n      0x00\n      dup1\n      revert\n    tag_84:\n      pop\n      tag_85\n      0x04\n      dup1\n      calldatasize\n      sub\n      0x20\n      dup2\n      lt\n      iszero\n      tag_86\n      jumpi\n      0x00\n      dup1\n      revert\n    tag_86:\n      dup2\n      add\n      swap1\n      dup1\n      dup1\n      calldataload\n      0xffffffffffffffffffffffffffffffffffffffff\n      and\n      swap1\n      0x20\n      add\n      swap1\n      swap3\n      swap2\n      swap1\n      pop\n      pop\n      pop\n      tag_87\n      jump\t// in\n    tag_85:\n      stop\n        /* \"contracts/Pool/PoolPig.sol\":18757:18972  function increaseAllowance(address spender, uint256 addedValue) public virtual returns (bool) {... */\n    tag_13:\n      callvalue\n      dup1\n      iszero\n      tag_88\n      jumpi\n      0x00\n      dup1\n      revert\n    tag_88:\n      pop\n      tag_89\n      0x04\n      dup1\n      calldatasize\n      sub\n      0x40\n      dup2\n      lt\n      iszero\n      tag_90\n      jumpi\n      0x00\n      dup1\n      revert\n    tag_90:\n      dup2\n      add\n      swap1\n      dup1\n      dup1\n      calldataload\n      0xffffffffffffffffffffffffffffffffffffffff\n      and\n      swap1\n      0x20\n      add\n      swap1\n      swap3\n      swap2\n      swap1\n      dup1\n      calldataload\n      swap1\n      0x20\n      add\n      swap1\n      swap3\n      swap2\n      swap1\n      pop\n      pop\n      pop\n      tag_91\n      jump\t// in\n    tag_89:\n      mload(0x40)\n      dup1\n      dup3\n      iszero\n      iszero\n      dup2\n      mstore\n      0x20\n      add\n      swap2\n      pop\n      pop\n      mload(0x40)\n      dup1\n      swap2\n      sub\n      swap1\n      return\n        /* \"contracts/Pool/PoolPig.sol\":15878:15904  uint256 public _taxFee = 2 */\n    tag_14:\n      callvalue\n      dup1\n      iszero\n      tag_92\n      jumpi\n      0x00\n      dup1\n      revert\n    tag_92:\n      pop\n      tag_93\n      tag_94\n      jump\t// in\n    tag_93:\n      mload(0x40)\n      dup1\n      dup3\n      dup2\n      mstore\n      0x20\n      add\n      swap2\n      pop\n      pop\n      mload(0x40)\n      dup1\n      swap2\n      sub\n      swap1\n      return\n        /* \"contracts/Pool/PoolPig.sol\":19465:19835  function deliver(uint256 tAmount) public {... */\n    tag_15:\n      callvalue\n      dup1\n      iszero\n      tag_95\n      jumpi\n      0x00\n      dup1\n      revert\n    tag_95:\n      pop\n      tag_96\n      0x04\n      dup1\n      calldatasize\n      sub\n      0x20\n      dup2\n      lt\n      iszero\n      tag_97\n      jumpi\n      0x00\n      dup1\n      revert\n    tag_97:\n      dup2\n      add\n      swap1\n      dup1\n      dup1\n      calldataload\n      swap1\n      0x20\n      add\n      swap1\n      swap3\n      swap2\n      swap1\n      pop\n      pop\n      pop\n      tag_98\n      jump\t// in\n    tag_96:\n      stop\n        /* \"contracts/Pool/PoolPig.sol\":22098:22207  function excludeFromFee(address account) public onlyOwner {... */\n    tag_16:\n      callvalue\n      dup1\n      iszero\n      tag_99\n      jumpi\n      0x00\n      dup1\n      revert\n    tag_99:\n      pop\n      tag_100\n      0x04\n      dup1\n      calldatasize\n      sub\n      0x20\n      dup2\n      lt\n      iszero\n      tag_101\n      jumpi\n      0x00\n      dup1\n      revert\n    tag_101:\n      dup2\n      add\n      swap1\n      dup1\n      dup1\n      calldataload\n      0xffffffffffffffffffffffffffffffffffffffff\n      and\n      swap1\n      0x20\n      add\n      swap1\n      swap3\n      swap2\n      swap1\n      pop\n      pop\n      pop\n      tag_102\n      jump\t// in\n    tag_100:\n      stop\n        /* \"contracts/Pool/PoolPig.sol\":19841:20268  function reflectionFromToken(uint256 tAmount, bool deductTransferFee) public view returns(uint256) {... */\n    tag_17:\n      callvalue\n      dup1\n      iszero\n      tag_103\n      jumpi\n      0x00\n      dup1\n      revert\n    tag_103:\n      pop\n      tag_104\n      0x04\n      dup1\n      calldatasize\n      sub\n      0x40\n      dup2\n      lt\n      iszero\n      tag_105\n      jumpi\n      0x00\n      dup1\n      revert\n    tag_105:\n      dup2\n      add\n      swap1\n      dup1\n      dup1\n      calldataload\n      swap1\n      0x20\n      add\n      swap1\n      swap3\n      swap2\n      swap1\n      dup1\n      calldataload\n      iszero\n      iszero\n      swap1\n      0x20\n      add\n      swap1\n      swap3\n      swap2\n      swap1\n      pop\n      pop\n      pop\n      tag_106\n      jump\t// in\n    tag_104:\n      mload(0x40)\n      dup1\n      dup3\n      dup2\n      mstore\n      0x20\n      add\n      swap2\n      pop\n      pop\n      mload(0x40)\n      dup1\n      swap2\n      sub\n      swap1\n      return\n        /* \"contracts/Pool/PoolPig.sol\":16117:16155  address public immutable uniswapV2Pair */\n    tag_18:\n      callvalue\n      dup1\n      iszero\n      tag_107\n      jumpi\n      0x00\n      dup1\n      revert\n    tag_107:\n      pop\n      tag_108\n      tag_109\n      jump\t// in\n    tag_108:\n      mload(0x40)\n      dup1\n      dup3\n      0xffffffffffffffffffffffffffffffffffffffff\n      and\n      dup2\n      mstore\n      0x20\n      add\n      swap2\n      pop\n      pop\n      mload(0x40)\n      dup1\n      swap2\n      sub\n      swap1\n      return\n        /* \"contracts/Pool/PoolPig.sol\":16193:16233  bool public swapAndLiquifyEnabled = true */\n    tag_19:\n      callvalue\n      dup1\n      iszero\n      tag_110\n      jumpi\n      0x00\n      dup1\n      revert\n    tag_110:\n      pop\n      tag_111\n      tag_112\n      jump\t// in\n    tag_111:\n      mload(0x40)\n      dup1\n      dup3\n      iszero\n      iszero\n      dup2\n      mstore\n      0x20\n      add\n      swap2\n      pop\n      pop\n      mload(0x40)\n      dup1\n      swap2\n      sub\n      swap1\n      return\n        /* \"contracts/Pool/PoolPig.sol\":20529:20968  function excludeFromReward(address account) public onlyOwner() {... */\n    tag_20:\n      callvalue\n      dup1\n      iszero\n      tag_113\n      jumpi\n      0x00\n      dup1\n      revert\n    tag_113:\n      pop\n      tag_114\n      0x04\n      dup1\n      calldatasize\n      sub\n      0x20\n      dup2\n      lt\n      iszero\n      tag_115\n      jumpi\n      0x00\n      dup1\n      revert\n    tag_115:\n      dup2\n      add\n      swap1\n      dup1\n      dup1\n      calldataload\n      0xffffffffffffffffffffffffffffffffffffffff\n      and\n      swap1\n      0x20\n      add\n      swap1\n      swap3\n      swap2\n      swap1\n      pop\n      pop\n      pop\n      tag_116\n      jump\t// in\n    tag_114:\n      stop\n        /* \"contracts/Pool/PoolPig.sol\":26132:26253  function isExcludedFromFee(address account) public view returns(bool) {... */\n    tag_21:\n      callvalue\n      dup1\n      iszero\n      tag_117\n      jumpi\n      0x00\n      dup1\n      revert\n    tag_117:\n      pop\n      tag_118\n      0x04\n      dup1\n      calldatasize\n      sub\n      0x20\n      dup2\n      lt\n      iszero\n      tag_119\n      jumpi\n      0x00\n      dup1\n      revert\n    tag_119:\n      dup2\n      add\n      swap1\n      dup1\n      dup1\n      calldataload\n      0xffffffffffffffffffffffffffffffffffffffff\n      and\n      swap1\n      0x20\n      add\n      swap1\n      swap3\n      swap2\n      swap1\n      pop\n      pop\n      pop\n      tag_120\n      jump\t// in\n    tag_118:\n      mload(0x40)\n      dup1\n      dup3\n      iszero\n      iszero\n      dup2\n      mstore\n      0x20\n      add\n      swap2\n      pop\n      pop\n      mload(0x40)\n      dup1\n      swap2\n      sub\n      swap1\n      return\n        /* \"contracts/Pool/PoolPig.sol\":15962:15994  uint256 public _liquidityFee = 3 */\n    tag_22:\n      callvalue\n      dup1\n      iszero\n      tag_121\n      jumpi\n      0x00\n      dup1\n      revert\n    tag_121:\n      pop\n      tag_122\n      tag_123\n      jump\t// in\n    tag_122:\n      mload(0x40)\n      dup1\n      dup3\n      dup2\n      mstore\n      0x20\n      add\n      swap2\n      pop\n      pop\n      mload(0x40)\n      dup1\n      swap2\n      sub\n      swap1\n      return\n        /* \"contracts/Pool/PoolPig.sol\":17760:17955  function balanceOf(address account) public view override returns (uint256) {... */\n    tag_23:\n      callvalue\n      dup1\n      iszero\n      tag_124\n      jumpi\n      0x00\n      dup1\n      revert\n    tag_124:\n      pop\n      tag_125\n      0x04\n      dup1\n      calldatasize\n      sub\n      0x20\n      dup2\n      lt\n      iszero\n      tag_126\n      jumpi\n      0x00\n      dup1\n      revert\n    tag_126:\n      dup2\n      add\n      swap1\n      dup1\n      dup1\n      calldataload\n      0xffffffffffffffffffffffffffffffffffffffff\n      and\n      swap1\n      0x20\n      add\n      swap1\n      swap3\n      swap2\n      swap1\n      pop\n      pop\n      pop\n      tag_127\n      jump\t// in\n    tag_125:\n      mload(0x40)\n      dup1\n      dup3\n      dup2\n      mstore\n      0x20\n      add\n      swap2\n      pop\n      pop\n      mload(0x40)\n      dup1\n      swap2\n      sub\n      swap1\n      return\n        /* \"contracts/Pool/PoolPig.sol\":6118:6263  function renounceOwnership() public virtual onlyOwner {... */\n    tag_24:\n      callvalue\n      dup1\n      iszero\n      tag_128\n      jumpi\n      0x00\n      dup1\n      revert\n    tag_128:\n      pop\n      tag_129\n      tag_130\n      jump\t// in\n    tag_129:\n      stop\n        /* \"contracts/Pool/PoolPig.sol\":16244:16291  uint256 public _maxTxAmount = 500000000 * 10**9 */\n    tag_25:\n      callvalue\n      dup1\n      iszero\n      tag_131\n      jumpi\n      0x00\n      dup1\n      revert\n    tag_131:\n      pop\n      tag_132\n      tag_133\n      jump\t// in\n    tag_132:\n      mload(0x40)\n      dup1\n      dup3\n      dup2\n      mstore\n      0x20\n      add\n      swap2\n      pop\n      pop\n      mload(0x40)\n      dup1\n      swap2\n      sub\n      swap1\n      return\n        /* \"contracts/Pool/PoolPig.sol\":19250:19368  function isExcludedFromReward(address account) public view returns (bool) {... */\n    tag_26:\n      callvalue\n      dup1\n      iszero\n      tag_134\n      jumpi\n      0x00\n      dup1\n      revert\n    tag_134:\n      pop\n      tag_135\n      0x04\n      dup1\n      calldatasize\n      sub\n      0x20\n      dup2\n      lt\n      iszero\n      tag_136\n      jumpi\n      0x00\n      dup1\n      revert\n    tag_136:\n      dup2\n      add\n      swap1\n      dup1\n      dup1\n      calldataload\n      0xffffffffffffffffffffffffffffffffffffffff\n      and\n      swap1\n      0x20\n      add\n      swap1\n      swap3\n      swap2\n      swap1\n      pop\n      pop\n      pop\n      tag_137\n      jump\t// in\n    tag_135:\n      mload(0x40)\n      dup1\n      dup3\n      iszero\n      iszero\n      dup2\n      mstore\n      0x20\n      add\n      swap2\n      pop\n      pop\n      mload(0x40)\n      dup1\n      swap2\n      sub\n      swap1\n      return\n        /* \"contracts/Pool/PoolPig.sol\":5831:5908  function owner() public view returns (address) {... */\n    tag_27:\n      callvalue\n      dup1\n      iszero\n      tag_138\n      jumpi\n      0x00\n      dup1\n      revert\n    tag_138:\n      pop\n      tag_139\n      tag_140\n      jump\t// in\n    tag_139:\n      mload(0x40)\n      dup1\n      dup3\n      0xffffffffffffffffffffffffffffffffffffffff\n      and\n      dup2\n      mstore\n      0x20\n      add\n      swap2\n      pop\n      pop\n      mload(0x40)\n      dup1\n      swap2\n      sub\n      swap1\n      return\n        /* \"contracts/Pool/PoolPig.sol\":22441:22561  function setLiquidityFeePercent(uint256 liquidityFee) external onlyOwner() {... */\n    tag_28:\n      callvalue\n      dup1\n      iszero\n      tag_141\n      jumpi\n      0x00\n      dup1\n      revert\n    tag_141:\n      pop\n      tag_142\n      0x04\n      dup1\n      calldatasize\n      sub\n      0x20\n      dup2\n      lt\n      iszero\n      tag_143\n      jumpi\n      0x00\n      dup1\n      revert\n    tag_143:\n      dup2\n      add\n      swap1\n      dup1\n      dup1\n      calldataload\n      swap1\n      0x20\n      add\n      swap1\n      swap3\n      swap2\n      swap1\n      pop\n      pop\n      pop\n      tag_144\n      jump\t// in\n    tag_142:\n      stop\n        /* \"contracts/Pool/PoolPig.sol\":17483:17568  function symbol() public view returns (string memory) {... */\n    tag_29:\n      callvalue\n      dup1\n      iszero\n      tag_145\n      jumpi\n      0x00\n      dup1\n      revert\n    tag_145:\n      pop\n      tag_146\n      tag_147\n      jump\t// in\n    tag_146:\n      mload(0x40)\n      dup1\n      dup1\n      0x20\n      add\n      dup3\n      dup2\n      sub\n      dup3\n      mstore\n      dup4\n      dup2\n      dup2\n      mload\n      dup2\n      mstore\n      0x20\n      add\n      swap2\n      pop\n      dup1\n      mload\n      swap1\n      0x20\n      add\n      swap1\n      dup1\n      dup4\n      dup4\n      0x00\n    tag_148:\n      dup4\n      dup2\n      lt\n      iszero\n      tag_150\n      jumpi\n      dup1\n      dup3\n      add\n      mload\n      dup2\n      dup5\n      add\n      mstore\n      0x20\n      dup2\n      add\n      swap1\n      pop\n      jump(tag_148)\n    tag_150:\n      pop\n      pop\n      pop\n      pop\n      swap1\n      pop\n      swap1\n      dup2\n      add\n      swap1\n      0x1f\n      and\n      dup1\n      iszero\n      tag_151\n      jumpi\n      dup1\n      dup3\n      sub\n      dup1\n      mload\n      0x01\n      dup4\n      0x20\n      sub\n      0x0100\n      exp\n      sub\n      not\n      and\n      dup2\n      mstore\n      0x20\n      add\n      swap2\n      pop\n    tag_151:\n      pop\n      swap3\n      pop\n      pop\n      pop\n      mload(0x40)\n      dup1\n      swap2\n      sub\n      swap1\n      return\n        /* \"contracts/Pool/PoolPig.sol\":18978:19244  function decreaseAllowance(address spender, uint256 subtractedValue) public virtual returns (bool) {... */\n    tag_30:\n      callvalue\n      dup1\n      iszero\n      tag_152\n      jumpi\n      0x00\n      dup1\n      revert\n    tag_152:\n      pop\n      tag_153\n      0x04\n      dup1\n      calldatasize\n      sub\n      0x40\n      dup2\n      lt\n      iszero\n      tag_154\n      jumpi\n      0x00\n      dup1\n      revert\n    tag_154:\n      dup2\n      add\n      swap1\n      dup1\n      dup1\n      calldataload\n      0xffffffffffffffffffffffffffffffffffffffff\n      and\n      swap1\n      0x20\n      add\n      swap1\n      swap3\n      swap2\n      swap1\n      dup1\n      calldataload\n      swap1\n      0x20\n      add\n      swap1\n      swap3\n      swap2\n      swap1\n      pop\n      pop\n      pop\n      tag_155\n      jump\t// in\n    tag_153:\n      mload(0x40)\n      dup1\n      dup3\n      iszero\n      iszero\n      dup2\n      mstore\n      0x20\n      add\n      swap2\n      pop\n      pop\n      mload(0x40)\n      dup1\n      swap2\n      sub\n      swap1\n      return\n        /* \"contracts/Pool/PoolPig.sol\":6957:7245  function unlock() public virtual {... */\n    tag_31:\n      callvalue\n      dup1\n      iszero\n      tag_156\n      jumpi\n      0x00\n      dup1\n      revert\n    tag_156:\n      pop\n      tag_157\n      tag_158\n      jump\t// in\n    tag_157:\n      stop\n        /* \"contracts/Pool/PoolPig.sol\":17961:18125  function transfer(address recipient, uint256 amount) public override returns (bool) {... */\n    tag_32:\n      callvalue\n      dup1\n      iszero\n      tag_159\n      jumpi\n      0x00\n      dup1\n      revert\n    tag_159:\n      pop\n      tag_160\n      0x04\n      dup1\n      calldatasize\n      sub\n      0x40\n      dup2\n      lt\n      iszero\n      tag_161\n      jumpi\n      0x00\n      dup1\n      revert\n    tag_161:\n      dup2\n      add\n      swap1\n      dup1\n      dup1\n      calldataload\n      0xffffffffffffffffffffffffffffffffffffffff\n      and\n      swap1\n      0x20\n      add\n      swap1\n      swap3\n      swap2\n      swap1\n      dup1\n      calldataload\n      swap1\n      0x20\n      add\n      swap1\n      swap3\n      swap2\n      swap1\n      pop\n      pop\n      pop\n      tag_162\n      jump\t// in\n    tag_160:\n      mload(0x40)\n      dup1\n      dup3\n      iszero\n      iszero\n      dup2\n      mstore\n      0x20\n      add\n      swap2\n      pop\n      pop\n      mload(0x40)\n      dup1\n      swap2\n      sub\n      swap1\n      return\n        /* \"contracts/Pool/PoolPig.sol\":6515:6602  function geUnlockTime() public view returns (uint256) {... */\n    tag_33:\n      callvalue\n      dup1\n      iszero\n      tag_163\n      jumpi\n      0x00\n      dup1\n      revert\n    tag_163:\n      pop\n      tag_164\n      tag_165\n      jump\t// in\n    tag_164:\n      mload(0x40)\n      dup1\n      dup3\n      dup2\n      mstore\n      0x20\n      add\n      swap2\n      pop\n      pop\n      mload(0x40)\n      dup1\n      swap2\n      sub\n      swap1\n      return\n        /* \"contracts/Pool/PoolPig.sol\":22734:22902  function setSwapAndLiquifyEnabled(bool _enabled) public onlyOwner {... */\n    tag_34:\n      callvalue\n      dup1\n      iszero\n      tag_166\n      jumpi\n      0x00\n      dup1\n      revert\n    tag_166:\n      pop\n      tag_167\n      0x04\n      dup1\n      calldatasize\n      sub\n      0x20\n      dup2\n      lt\n      iszero\n      tag_168\n      jumpi\n      0x00\n      dup1\n      revert\n    tag_168:\n      dup2\n      add\n      swap1\n      dup1\n      dup1\n      calldataload\n      iszero\n      iszero\n      swap1\n      0x20\n      add\n      swap1\n      swap3\n      swap2\n      swap1\n      pop\n      pop\n      pop\n      tag_169\n      jump\t// in\n    tag_167:\n      stop\n        /* \"contracts/Pool/PoolPig.sol\":22570:22728  function setMaxTxPercent(uint256 maxTxPercent) external onlyOwner() {... */\n    tag_35:\n      callvalue\n      dup1\n      iszero\n      tag_170\n      jumpi\n      0x00\n      dup1\n      revert\n    tag_170:\n      pop\n      tag_171\n      0x04\n      dup1\n      calldatasize\n      sub\n      0x20\n      dup2\n      lt\n      iszero\n      tag_172\n      jumpi\n      0x00\n      dup1\n      revert\n    tag_172:\n      dup2\n      add\n      swap1\n      dup1\n      dup1\n      calldataload\n      swap1\n      0x20\n      add\n      swap1\n      swap3\n      swap2\n      swap1\n      pop\n      pop\n      pop\n      tag_173\n      jump\t// in\n    tag_171:\n      stop\n        /* \"contracts/Pool/PoolPig.sol\":6675:6884  function lock(uint256 time) public virtual onlyOwner {... */\n    tag_36:\n      callvalue\n      dup1\n      iszero\n      tag_174\n      jumpi\n      0x00\n      dup1\n      revert\n    tag_174:\n      pop\n      tag_175\n      0x04\n      dup1\n      calldatasize\n      sub\n      0x20\n      dup2\n      lt\n      iszero\n      tag_176\n      jumpi\n      0x00\n      dup1\n      revert\n    tag_176:\n      dup2\n      add\n      swap1\n      dup1\n      dup1\n      calldataload\n      swap1\n      0x20\n      add\n      swap1\n      swap3\n      swap2\n      swap1\n      pop\n      pop\n      pop\n      tag_177\n      jump\t// in\n    tag_175:\n      stop\n        /* \"contracts/Pool/PoolPig.sol\":18131:18272  function allowance(address owner, address spender) public view override returns (uint256) {... */\n    tag_37:\n      callvalue\n      dup1\n      iszero\n      tag_178\n      jumpi\n      0x00\n      dup1\n      revert\n    tag_178:\n      pop\n      tag_179\n      0x04\n      dup1\n      calldatasize\n      sub\n      0x40\n      dup2\n      lt\n      iszero\n      tag_180\n      jumpi\n      0x00\n      dup1\n      revert\n    tag_180:\n      dup2\n      add\n      swap1\n      dup1\n      dup1\n      calldataload\n      0xffffffffffffffffffffffffffffffffffffffff\n      and\n      swap1\n      0x20\n      add\n      swap1\n      swap3\n      swap2\n      swap1\n      dup1\n      calldataload\n      0xffffffffffffffffffffffffffffffffffffffff\n      and\n      swap1\n      0x20\n      add\n      swap1\n      swap3\n      swap2\n      swap1\n      pop\n      pop\n      pop\n      tag_181\n      jump\t// in\n    tag_179:\n      mload(0x40)\n      dup1\n      dup3\n      dup2\n      mstore\n      0x20\n      add\n      swap2\n      pop\n      pop\n      mload(0x40)\n      dup1\n      swap2\n      sub\n      swap1\n      return\n        /* \"contracts/Pool/PoolPig.sol\":22217:22325  function includeInFee(address account) public onlyOwner {... */\n    tag_38:\n      callvalue\n      dup1\n      iszero\n      tag_182\n      jumpi\n      0x00\n      dup1\n      revert\n    tag_182:\n      pop\n      tag_183\n      0x04\n      dup1\n      calldatasize\n      sub\n      0x20\n      dup2\n      lt\n      iszero\n      tag_184\n      jumpi\n      0x00\n      dup1\n      revert\n    tag_184:\n      dup2\n      add\n      swap1\n      dup1\n      dup1\n      calldataload\n      0xffffffffffffffffffffffffffffffffffffffff\n      and\n      swap1\n      0x20\n      add\n      swap1\n      swap3\n      swap2\n      swap1\n      pop\n      pop\n      pop\n      tag_185\n      jump\t// in\n    tag_183:\n      stop\n        /* \"contracts/Pool/PoolPig.sol\":6269:6509  function transferOwnership(address newOwner) public virtual onlyOwner {... */\n    tag_39:\n      callvalue\n      dup1\n      iszero\n      tag_186\n      jumpi\n      0x00\n      dup1\n      revert\n    tag_186:\n      pop\n      tag_187\n      0x04\n      dup1\n      calldatasize\n      sub\n      0x20\n      dup2\n      lt\n      iszero\n      tag_188\n      jumpi\n      0x00\n      dup1\n      revert\n    tag_188:\n      dup2\n      add\n      swap1\n      dup1\n      dup1\n      calldataload\n      0xffffffffffffffffffffffffffffffffffffffff\n      and\n      swap1\n      0x20\n      add\n      swap1\n      swap3\n      swap2\n      swap1\n      pop\n      pop\n      pop\n      tag_189\n      jump\t// in\n    tag_187:\n      stop\n        /* \"contracts/Pool/PoolPig.sol\":22335:22431  function setTaxFeePercent(uint256 taxFee) external onlyOwner() {... */\n    tag_52:\n        /* \"contracts/Pool/PoolPig.sol\":6045:6057  _msgSender() */\n      tag_191\n        /* \"contracts/Pool/PoolPig.sol\":6045:6055  _msgSender */\n      tag_192\n        /* \"contracts/Pool/PoolPig.sol\":6045:6057  _msgSender() */\n      jump\t// in\n    tag_191:\n        /* \"contracts/Pool/PoolPig.sol\":6035:6057  _owner == _msgSender() */\n      0xffffffffffffffffffffffffffffffffffffffff\n      and\n        /* \"contracts/Pool/PoolPig.sol\":6035:6041  _owner */\n      0x00\n      dup1\n      sload\n      swap1\n      0x0100\n      exp\n      swap1\n      div\n      0xffffffffffffffffffffffffffffffffffffffff\n      and\n        /* \"contracts/Pool/PoolPig.sol\":6035:6057  _owner == _msgSender() */\n      0xffffffffffffffffffffffffffffffffffffffff\n      and\n      eq\n        /* \"contracts/Pool/PoolPig.sol\":6027:6094  require(_owner == _msgSender(), \"Ownable: caller is not the owner\") */\n      tag_193\n      jumpi\n      mload(0x40)\n      0x08c379a000000000000000000000000000000000000000000000000000000000\n      dup2\n      mstore\n      0x04\n      add\n      dup1\n      dup1\n      0x20\n      add\n      dup3\n      dup2\n      sub\n      dup3\n      mstore\n      0x20\n      dup2\n      mstore\n      0x20\n      add\n      dup1\n      0x4f776e61626c653a2063616c6c6572206973206e6f7420746865206f776e6572\n      dup2\n      mstore\n      pop\n      0x20\n      add\n      swap2\n      pop\n      pop\n      mload(0x40)\n      dup1\n      swap2\n      sub\n      swap1\n      revert\n    tag_193:\n        /* \"contracts/Pool/PoolPig.sol\":22418:22424  taxFee */\n      dup1\n        /* \"contracts/Pool/PoolPig.sol\":22408:22415  _taxFee */\n      0x0e\n        /* \"contracts/Pool/PoolPig.sol\":22408:22424  _taxFee = taxFee */\n      dup2\n      swap1\n      sstore\n      pop\n        /* \"contracts/Pool/PoolPig.sol\":22335:22431  function setTaxFeePercent(uint256 taxFee) external onlyOwner() {... */\n      pop\n      jump\t// out\n        /* \"contracts/Pool/PoolPig.sol\":17396:17477  function name() public view returns (string memory) {... */\n    tag_55:\n        /* \"contracts/Pool/PoolPig.sol\":17433:17446  string memory */\n      0x60\n        /* \"contracts/Pool/PoolPig.sol\":17465:17470  _name */\n      0x0b\n        /* \"contracts/Pool/PoolPig.sol\":17458:17470  return _name */\n      dup1\n      sload\n      0x01\n      dup2\n      0x01\n      and\n      iszero\n      0x0100\n      mul\n      sub\n      and\n      0x02\n      swap1\n      div\n      dup1\n      0x1f\n      add\n      0x20\n      dup1\n      swap2\n      div\n      mul\n      0x20\n      add\n      mload(0x40)\n      swap1\n      dup2\n      add\n      0x40\n      mstore\n      dup1\n      swap3\n      swap2\n      swap1\n      dup2\n      dup2\n      mstore\n      0x20\n      add\n      dup3\n      dup1\n      sload\n      0x01\n      dup2\n      0x01\n      and\n      iszero\n      0x0100\n      mul\n      sub\n      and\n      0x02\n      swap1\n      div\n      dup1\n      iszero\n      tag_196\n      jumpi\n      dup1\n      0x1f\n      lt\n      tag_197\n      jumpi\n      0x0100\n      dup1\n      dup4\n      sload\n      div\n      mul\n      dup4\n      mstore\n      swap2\n      0x20\n      add\n      swap2\n      jump(tag_196)\n    tag_197:\n      dup3\n      add\n      swap2\n      swap1\n      0x00\n      mstore\n      keccak256(0x00, 0x20)\n      swap1\n    tag_198:\n      dup2\n      sload\n      dup2\n      mstore\n      swap1\n      0x01\n      add\n      swap1\n      0x20\n      add\n      dup1\n      dup4\n      gt\n      tag_198\n      jumpi\n      dup3\n      swap1\n      sub\n      0x1f\n      and\n      dup3\n      add\n      swap2\n    tag_196:\n      pop\n      pop\n      pop\n      pop\n      pop\n      swap1\n      pop\n        /* \"contracts/Pool/PoolPig.sol\":17396:17477  function name() public view returns (string memory) {... */\n      swap1\n      jump\t// out\n        /* \"contracts/Pool/PoolPig.sol\":18278:18436  function approve(address spender, uint256 amount) public override returns (bool) {... */\n    tag_63:\n        /* \"contracts/Pool/PoolPig.sol\":18353:18357  bool */\n      0x00\n        /* \"contracts/Pool/PoolPig.sol\":18369:18408  _approve(_msgSender(), spender, amount) */\n      tag_200\n        /* \"contracts/Pool/PoolPig.sol\":18378:18390  _msgSender() */\n      tag_201\n        /* \"contracts/Pool/PoolPig.sol\":18378:18388  _msgSender */\n      tag_192\n        /* \"contracts/Pool/PoolPig.sol\":18378:18390  _msgSender() */\n      jump\t// in\n    tag_201:\n        /* \"contracts/Pool/PoolPig.sol\":18392:18399  spender */\n      dup5\n        /* \"contracts/Pool/PoolPig.sol\":18401:18407  amount */\n      dup5\n        /* \"contracts/Pool/PoolPig.sol\":18369:18377  _approve */\n      tag_202\n        /* \"contracts/Pool/PoolPig.sol\":18369:18408  _approve(_msgSender(), spender, amount) */\n      jump\t// in\n    tag_200:\n        /* \"contracts/Pool/PoolPig.sol\":18425:18429  true */\n      0x01\n        /* \"contracts/Pool/PoolPig.sol\":18418:18429  return true */\n      swap1\n      pop\n        /* \"contracts/Pool/PoolPig.sol\":18278:18436  function approve(address spender, uint256 amount) public override returns (bool) {... */\n      swap3\n      swap2\n      pop\n      pop\n      jump\t// out\n        /* \"contracts/Pool/PoolPig.sol\":19374:19459  function totalFees() public view returns (uint256) {... */\n    tag_66:\n        /* \"contracts/Pool/PoolPig.sol\":19416:19423  uint256 */\n      0x00\n        /* \"contracts/Pool/PoolPig.sol\":19442:19452  _tFeeTotal */\n      sload(0x0a)\n        /* \"contracts/Pool/PoolPig.sol\":19435:19452  return _tFeeTotal */\n      swap1\n      pop\n        /* \"contracts/Pool/PoolPig.sol\":19374:19459  function totalFees() public view returns (uint256) {... */\n      swap1\n      jump\t// out\n        /* \"contracts/Pool/PoolPig.sol\":16060:16111  IUniswapV2Router02 public immutable uniswapV2Router */\n    tag_69:\n      immutable(\"0xcbd30de1da04efa9e9dfb752a21e23c2c0c1de652015c52c119403b61435944f\")\n      dup2\n      jump\t// out\n        /* \"contracts/Pool/PoolPig.sol\":17661:17754  function totalSupply() public view override returns (uint256) {... */\n    tag_72:\n        /* \"contracts/Pool/PoolPig.sol\":17714:17721  uint256 */\n      0x00\n        /* \"contracts/Pool/PoolPig.sol\":15652:15670  1000000000 * 10**9 */\n      0x0de0b6b3a7640000\n        /* \"contracts/Pool/PoolPig.sol\":17733:17747  return _tTotal */\n      swap1\n      pop\n        /* \"contracts/Pool/PoolPig.sol\":17661:17754  function totalSupply() public view override returns (uint256) {... */\n      swap1\n      jump\t// out\n        /* \"contracts/Pool/PoolPig.sol\":18442:18751  function transferFrom(address sender, address recipient, uint256 amount) public override returns (bool) {... */\n    tag_76:\n        /* \"contracts/Pool/PoolPig.sol\":18540:18544  bool */\n      0x00\n        /* \"contracts/Pool/PoolPig.sol\":18556:18592  _transfer(sender, recipient, amount) */\n      tag_206\n        /* \"contracts/Pool/PoolPig.sol\":18566:18572  sender */\n      dup5\n        /* \"contracts/Pool/PoolPig.sol\":18574:18583  recipient */\n      dup5\n        /* \"contracts/Pool/PoolPig.sol\":18585:18591  amount */\n      dup5\n        /* \"contracts/Pool/PoolPig.sol\":18556:18565  _transfer */\n      tag_207\n        /* \"contracts/Pool/PoolPig.sol\":18556:18592  _transfer(sender, recipient, amount) */\n      jump\t// in\n    tag_206:\n        /* \"contracts/Pool/PoolPig.sol\":18602:18723  _approve(sender, _msgSender(), _allowances[sender][_msgSender()].sub(amount, \"ERC20: transfer amount exceeds allowance\")) */\n      tag_208\n        /* \"contracts/Pool/PoolPig.sol\":18611:18617  sender */\n      dup5\n        /* \"contracts/Pool/PoolPig.sol\":18619:18631  _msgSender() */\n      tag_209\n        /* \"contracts/Pool/PoolPig.sol\":18619:18629  _msgSender */\n      tag_192\n        /* \"contracts/Pool/PoolPig.sol\":18619:18631  _msgSender() */\n      jump\t// in\n    tag_209:\n        /* \"contracts/Pool/PoolPig.sol\":18633:18722  _allowances[sender][_msgSender()].sub(amount, \"ERC20: transfer amount exceeds allowance\") */\n      tag_210\n        /* \"contracts/Pool/PoolPig.sol\":18671:18677  amount */\n      dup6\n        /* \"contracts/Pool/PoolPig.sol\":18633:18722  _allowances[sender][_msgSender()].sub(amount, \"ERC20: transfer amount exceeds allowance\") */\n      mload(0x40)\n      dup1\n      0x60\n      add\n      0x40\n      mstore\n      dup1\n      0x28\n      dup2\n      mstore\n      0x20\n      add\n      data_974d1b4421da69cc60b481194f0dad36a5bb4e23da810da7a7fb30cdba178330\n      0x28\n      swap2\n      codecopy\n        /* \"contracts/Pool/PoolPig.sol\":18633:18644  _allowances */\n      0x05\n        /* \"contracts/Pool/PoolPig.sol\":18633:18652  _allowances[sender] */\n      0x00\n        /* \"contracts/Pool/PoolPig.sol\":18645:18651  sender */\n      dup12\n        /* \"contracts/Pool/PoolPig.sol\":18633:18652  _allowances[sender] */\n      0xffffffffffffffffffffffffffffffffffffffff\n      and\n      0xffffffffffffffffffffffffffffffffffffffff\n      and\n      dup2\n      mstore\n      0x20\n      add\n      swap1\n      dup2\n      mstore\n      0x20\n      add\n      0x00\n      keccak256\n        /* \"contracts/Pool/PoolPig.sol\":18633:18666  _allowances[sender][_msgSender()] */\n      0x00\n        /* \"contracts/Pool/PoolPig.sol\":18653:18665  _msgSender() */\n      tag_211\n        /* \"contracts/Pool/PoolPig.sol\":18653:18663  _msgSender */\n      tag_192\n        /* \"contracts/Pool/PoolPig.sol\":18653:18665  _msgSender() */\n      jump\t// in\n    tag_211:\n        /* \"contracts/Pool/PoolPig.sol\":18633:18666  _allowances[sender][_msgSender()] */\n      0xffffffffffffffffffffffffffffffffffffffff\n      and\n      0xffffffffffffffffffffffffffffffffffffffff\n      and\n      dup2\n      mstore\n      0x20\n      add\n      swap1\n      dup2\n      mstore\n      0x20\n      add\n      0x00\n      keccak256\n      sload\n        /* \"contracts/Pool/PoolPig.sol\":18633:18670  _allowances[sender][_msgSender()].sub */\n      tag_212\n      swap1\n        /* \"contracts/Pool/PoolPig.sol\":18633:18722  _allowances[sender][_msgSender()].sub(amount, \"ERC20: transfer amount exceeds allowance\") */\n      swap3\n      swap2\n      swap1\n      0xffffffff\n      and\n      jump\t// in\n    tag_210:\n        /* \"contracts/Pool/PoolPig.sol\":18602:18610  _approve */\n      tag_202\n        /* \"contracts/Pool/PoolPig.sol\":18602:18723  _approve(sender, _msgSender(), _allowances[sender][_msgSender()].sub(amount, \"ERC20: transfer amount exceeds allowance\")) */\n      jump\t// in\n    tag_208:\n        /* \"contracts/Pool/PoolPig.sol\":18740:18744  true */\n      0x01\n        /* \"contracts/Pool/PoolPig.sol\":18733:18744  return true */\n      swap1\n      pop\n        /* \"contracts/Pool/PoolPig.sol\":18442:18751  function transferFrom(address sender, address recipient, uint256 amount) public override returns (bool) {... */\n      swap4\n      swap3\n      pop\n      pop\n      pop\n      jump\t// out\n        /* \"contracts/Pool/PoolPig.sol\":20274:20523  function tokenFromReflection(uint256 rAmount) public view returns(uint256) {... */\n    tag_80:\n        /* \"contracts/Pool/PoolPig.sol\":20340:20347  uint256 */\n      0x00\n        /* \"contracts/Pool/PoolPig.sol\":20378:20385  _rTotal */\n      sload(0x09)\n        /* \"contracts/Pool/PoolPig.sol\":20367:20374  rAmount */\n      dup3\n        /* \"contracts/Pool/PoolPig.sol\":20367:20385  rAmount <= _rTotal */\n      gt\n      iszero\n        /* \"contracts/Pool/PoolPig.sol\":20359:20432  require(rAmount <= _rTotal, \"Amount must be less than total reflections\") */\n      tag_214\n      jumpi\n      mload(0x40)\n      0x08c379a000000000000000000000000000000000000000000000000000000000\n      dup2\n      mstore\n      0x04\n      add\n      dup1\n      dup1\n      0x20\n      add\n      dup3\n      dup2\n      sub\n      dup3\n      mstore\n      0x2a\n      dup2\n      mstore\n      0x20\n      add\n      dup1\n      data_22f7af55a509c3b14f0d528f087748dec8a8bf425135e3f5dc28c6a31ec6d812\n      0x2a\n      swap2\n      codecopy\n      0x40\n      add\n      swap2\n      pop\n      pop\n      mload(0x40)\n      dup1\n      swap2\n      sub\n      swap1\n      revert\n    tag_214:\n        /* \"contracts/Pool/PoolPig.sol\":20442:20461  uint256 currentRate */\n      0x00\n        /* \"contracts/Pool/PoolPig.sol\":20465:20475  _getRate() */\n      tag_215\n        /* \"contracts/Pool/PoolPig.sol\":20465:20473  _getRate */\n      tag_216\n        /* \"contracts/Pool/PoolPig.sol\":20465:20475  _getRate() */\n      jump\t// in\n    tag_215:\n        /* \"contracts/Pool/PoolPig.sol\":20442:20475  uint256 currentRate =  _getRate() */\n      swap1\n      pop\n        /* \"contracts/Pool/PoolPig.sol\":20492:20516  rAmount.div(currentRate) */\n      tag_217\n        /* \"contracts/Pool/PoolPig.sol\":20504:20515  currentRate */\n      dup2\n        /* \"contracts/Pool/PoolPig.sol\":20492:20499  rAmount */\n      dup5\n        /* \"contracts/Pool/PoolPig.sol\":20492:20503  rAmount.div */\n      tag_218\n      swap1\n        /* \"contracts/Pool/PoolPig.sol\":20492:20516  rAmount.div(currentRate) */\n      swap2\n      swap1\n      0xffffffff\n      and\n      jump\t// in\n    tag_217:\n        /* \"contracts/Pool/PoolPig.sol\":20485:20516  return rAmount.div(currentRate) */\n      swap2\n      pop\n      pop\n        /* \"contracts/Pool/PoolPig.sol\":20274:20523  function tokenFromReflection(uint256 rAmount) public view returns(uint256) {... */\n      swap2\n      swap1\n      pop\n      jump\t// out\n        /* \"contracts/Pool/PoolPig.sol\":17574:17655  function decimals() public view returns (uint8) {... */\n    tag_83:\n        /* \"contracts/Pool/PoolPig.sol\":17615:17620  uint8 */\n      0x00\n        /* \"contracts/Pool/PoolPig.sol\":17639:17648  _decimals */\n      0x0d\n      0x00\n      swap1\n      sload\n      swap1\n      0x0100\n      exp\n      swap1\n      div\n      0xff\n      and\n        /* \"contracts/Pool/PoolPig.sol\":17632:17648  return _decimals */\n      swap1\n      pop\n        /* \"contracts/Pool/PoolPig.sol\":17574:17655  function decimals() public view returns (uint8) {... */\n      swap1\n      jump\t// out\n        /* \"contracts/Pool/PoolPig.sol\":20974:21442  function includeInReward(address account) external onlyOwner() {... */\n    tag_87:\n        /* \"contracts/Pool/PoolPig.sol\":6045:6057  _msgSender() */\n      tag_221\n        /* \"contracts/Pool/PoolPig.sol\":6045:6055  _msgSender */\n      tag_192\n        /* \"contracts/Pool/PoolPig.sol\":6045:6057  _msgSender() */\n      jump\t// in\n    tag_221:\n        /* \"contracts/Pool/PoolPig.sol\":6035:6057  _owner == _msgSender() */\n      0xffffffffffffffffffffffffffffffffffffffff\n      and\n        /* \"contracts/Pool/PoolPig.sol\":6035:6041  _owner */\n      0x00\n      dup1\n      sload\n      swap1\n      0x0100\n      exp\n      swap1\n      div\n      0xffffffffffffffffffffffffffffffffffffffff\n      and\n        /* \"contracts/Pool/PoolPig.sol\":6035:6057  _owner == _msgSender() */\n      0xffffffffffffffffffffffffffffffffffffffff\n      and\n      eq\n        /* \"contracts/Pool/PoolPig.sol\":6027:6094  require(_owner == _msgSender(), \"Ownable: caller is not the owner\") */\n      tag_222\n      jumpi\n      mload(0x40)\n      0x08c379a000000000000000000000000000000000000000000000000000000000\n      dup2\n      mstore\n      0x04\n      add\n      dup1\n      dup1\n      0x20\n      add\n      dup3\n      dup2\n      sub\n      dup3\n      mstore\n      0x20\n      dup2\n      mstore\n      0x20\n      add\n      dup1\n      0x4f776e61626c653a2063616c6c6572206973206e6f7420746865206f776e6572\n      dup2\n      mstore\n      pop\n      0x20\n      add\n      swap2\n      pop\n      pop\n      mload(0x40)\n      dup1\n      swap2\n      sub\n      swap1\n      revert\n    tag_222:\n        /* \"contracts/Pool/PoolPig.sol\":21055:21066  _isExcluded */\n      0x07\n        /* \"contracts/Pool/PoolPig.sol\":21055:21075  _isExcluded[account] */\n      0x00\n        /* \"contracts/Pool/PoolPig.sol\":21067:21074  account */\n      dup3\n        /* \"contracts/Pool/PoolPig.sol\":21055:21075  _isExcluded[account] */\n      0xffffffffffffffffffffffffffffffffffffffff\n      and\n      0xffffffffffffffffffffffffffffffffffffffff\n      and\n      dup2\n      mstore\n      0x20\n      add\n      swap1\n      dup2\n      mstore\n      0x20\n      add\n      0x00\n      keccak256\n      0x00\n      swap1\n      sload\n      swap1\n      0x0100\n      exp\n      swap1\n      div\n      0xff\n      and\n        /* \"contracts/Pool/PoolPig.sol\":21047:21107  require(_isExcluded[account], \"Account is already excluded\") */\n      tag_224\n      jumpi\n      mload(0x40)\n      0x08c379a000000000000000000000000000000000000000000000000000000000\n      dup2\n      mstore\n      0x04\n      add\n      dup1\n      dup1\n      0x20\n      add\n      dup3\n      dup2\n      sub\n      dup3\n      mstore\n      0x1b\n      dup2\n      mstore\n      0x20\n      add\n      dup1\n      0x4163636f756e7420697320616c7265616479206578636c756465640000000000\n      dup2\n      mstore\n      pop\n      0x20\n      add\n      swap2\n      pop\n      pop\n      mload(0x40)\n      dup1\n      swap2\n      sub\n      swap1\n      revert\n    tag_224:\n        /* \"contracts/Pool/PoolPig.sol\":21122:21131  uint256 i */\n      0x00\n        /* \"contracts/Pool/PoolPig.sol\":21117:21436  for (uint256 i = 0; i < _excluded.length; i++) {... */\n    tag_225:\n        /* \"contracts/Pool/PoolPig.sol\":21141:21150  _excluded */\n      0x08\n        /* \"contracts/Pool/PoolPig.sol\":21141:21157  _excluded.length */\n      dup1\n      sload\n      swap1\n      pop\n        /* \"contracts/Pool/PoolPig.sol\":21137:21138  i */\n      dup2\n        /* \"contracts/Pool/PoolPig.sol\":21137:21157  i < _excluded.length */\n      lt\n        /* \"contracts/Pool/PoolPig.sol\":21117:21436  for (uint256 i = 0; i < _excluded.length; i++) {... */\n      iszero\n      tag_226\n      jumpi\n        /* \"contracts/Pool/PoolPig.sol\":21198:21205  account */\n      dup2\n        /* \"contracts/Pool/PoolPig.sol\":21182:21205  _excluded[i] == account */\n      0xffffffffffffffffffffffffffffffffffffffff\n      and\n        /* \"contracts/Pool/PoolPig.sol\":21182:21191  _excluded */\n      0x08\n        /* \"contracts/Pool/PoolPig.sol\":21192:21193  i */\n      dup3\n        /* \"contracts/Pool/PoolPig.sol\":21182:21194  _excluded[i] */\n      dup2\n      sload\n      dup2\n      lt\n      tag_228\n      jumpi\n      invalid\n    tag_228:\n      swap1\n      0x00\n      mstore\n      keccak256(0x00, 0x20)\n      add\n      0x00\n      swap1\n      sload\n      swap1\n      0x0100\n      exp\n      swap1\n      div\n      0xffffffffffffffffffffffffffffffffffffffff\n      and\n        /* \"contracts/Pool/PoolPig.sol\":21182:21205  _excluded[i] == account */\n      0xffffffffffffffffffffffffffffffffffffffff\n      and\n      eq\n        /* \"contracts/Pool/PoolPig.sol\":21178:21426  if (_excluded[i] == account) {... */\n      iszero\n      tag_230\n      jumpi\n        /* \"contracts/Pool/PoolPig.sol\":21240:21249  _excluded */\n      0x08\n        /* \"contracts/Pool/PoolPig.sol\":21269:21270  1 */\n      0x01\n        /* \"contracts/Pool/PoolPig.sol\":21250:21259  _excluded */\n      0x08\n        /* \"contracts/Pool/PoolPig.sol\":21250:21266  _excluded.length */\n      dup1\n      sload\n      swap1\n      pop\n        /* \"contracts/Pool/PoolPig.sol\":21250:21270  _excluded.length - 1 */\n      sub\n        /* \"contracts/Pool/PoolPig.sol\":21240:21271  _excluded[_excluded.length - 1] */\n      dup2\n      sload\n      dup2\n      lt\n      tag_231\n      jumpi\n      invalid\n    tag_231:\n      swap1\n      0x00\n      mstore\n      keccak256(0x00, 0x20)\n      add\n      0x00\n      swap1\n      sload\n      swap1\n      0x0100\n      exp\n      swap1\n      div\n      0xffffffffffffffffffffffffffffffffffffffff\n      and\n        /* \"contracts/Pool/PoolPig.sol\":21225:21234  _excluded */\n      0x08\n        /* \"contracts/Pool/PoolPig.sol\":21235:21236  i */\n      dup3\n        /* \"contracts/Pool/PoolPig.sol\":21225:21237  _excluded[i] */\n      dup2\n      sload\n      dup2\n      lt\n      tag_233\n      jumpi\n      invalid\n    tag_233:\n      swap1\n      0x00\n      mstore\n      keccak256(0x00, 0x20)\n      add\n      0x00\n        /* \"contracts/Pool/PoolPig.sol\":21225:21271  _excluded[i] = _excluded[_excluded.length - 1] */\n      0x0100\n      exp\n      dup2\n      sload\n      dup2\n      0xffffffffffffffffffffffffffffffffffffffff\n      mul\n      not\n      and\n      swap1\n      dup4\n      0xffffffffffffffffffffffffffffffffffffffff\n      and\n      mul\n      or\n      swap1\n      sstore\n      pop\n        /* \"contracts/Pool/PoolPig.sol\":21308:21309  0 */\n      0x00\n        /* \"contracts/Pool/PoolPig.sol\":21289:21296  _tOwned */\n      0x04\n        /* \"contracts/Pool/PoolPig.sol\":21289:21305  _tOwned[account] */\n      0x00\n        /* \"contracts/Pool/PoolPig.sol\":21297:21304  account */\n      dup5\n        /* \"contracts/Pool/PoolPig.sol\":21289:21305  _tOwned[account] */\n      0xffffffffffffffffffffffffffffffffffffffff\n      and\n      0xffffffffffffffffffffffffffffffffffffffff\n      and\n      dup2\n      mstore\n      0x20\n      add\n      swap1\n      dup2\n      mstore\n      0x20\n      add\n      0x00\n      keccak256\n        /* \"contracts/Pool/PoolPig.sol\":21289:21309  _tOwned[account] = 0 */\n      dup2\n      swap1\n      sstore\n      pop\n        /* \"contracts/Pool/PoolPig.sol\":21350:21355  false */\n      0x00\n        /* \"contracts/Pool/PoolPig.sol\":21327:21338  _isExcluded */\n      0x07\n        /* \"contracts/Pool/PoolPig.sol\":21327:21347  _isExcluded[account] */\n      0x00\n        /* \"contracts/Pool/PoolPig.sol\":21339:21346  account */\n      dup5\n        /* \"contracts/Pool/PoolPig.sol\":21327:21347  _isExcluded[account] */\n      0xffffffffffffffffffffffffffffffffffffffff\n      and\n      0xffffffffffffffffffffffffffffffffffffffff\n      and\n      dup2\n      mstore\n      0x20\n      add\n      swap1\n      dup2\n      mstore\n      0x20\n      add\n      0x00\n      keccak256\n      0x00\n        /* \"contracts/Pool/PoolPig.sol\":21327:21355  _isExcluded[account] = false */\n      0x0100\n      exp\n      dup2\n      sload\n      dup2\n      0xff\n      mul\n      not\n      and\n      swap1\n      dup4\n      iszero\n      iszero\n      mul\n      or\n      swap1\n      sstore\n      pop\n        /* \"contracts/Pool/PoolPig.sol\":21373:21382  _excluded */\n      0x08\n        /* \"contracts/Pool/PoolPig.sol\":21373:21388  _excluded.pop() */\n      dup1\n      sload\n      dup1\n      tag_235\n      jumpi\n      invalid\n    tag_235:\n      0x01\n      swap1\n      sub\n      dup2\n      dup2\n      swap1\n      0x00\n      mstore\n      keccak256(0x00, 0x20)\n      add\n      exp(0x0100, 0x00)\n      dup2\n      sload\n      swap1\n      0xffffffffffffffffffffffffffffffffffffffff\n      mul\n      not\n      and\n      swap1\n      sstore\n      swap1\n      sstore\n        /* \"contracts/Pool/PoolPig.sol\":21406:21411  break */\n      jump(tag_226)\n        /* \"contracts/Pool/PoolPig.sol\":21178:21426  if (_excluded[i] == account) {... */\n    tag_230:\n        /* \"contracts/Pool/PoolPig.sol\":21159:21162  i++ */\n      dup1\n      dup1\n      0x01\n      add\n      swap2\n      pop\n      pop\n        /* \"contracts/Pool/PoolPig.sol\":21117:21436  for (uint256 i = 0; i < _excluded.length; i++) {... */\n      jump(tag_225)\n    tag_226:\n      pop\n        /* \"contracts/Pool/PoolPig.sol\":20974:21442  function includeInReward(address account) external onlyOwner() {... */\n      pop\n      jump\t// out\n        /* \"contracts/Pool/PoolPig.sol\":18757:18972  function increaseAllowance(address spender, uint256 addedValue) public virtual returns (bool) {... */\n    tag_91:\n        /* \"contracts/Pool/PoolPig.sol\":18845:18849  bool */\n      0x00\n        /* \"contracts/Pool/PoolPig.sol\":18861:18944  _approve(_msgSender(), spender, _allowances[_msgSender()][spender].add(addedValue)) */\n      tag_238\n        /* \"contracts/Pool/PoolPig.sol\":18870:18882  _msgSender() */\n      tag_239\n        /* \"contracts/Pool/PoolPig.sol\":18870:18880  _msgSender */\n      tag_192\n        /* \"contracts/Pool/PoolPig.sol\":18870:18882  _msgSender() */\n      jump\t// in\n    tag_239:\n        /* \"contracts/Pool/PoolPig.sol\":18884:18891  spender */\n      dup5\n        /* \"contracts/Pool/PoolPig.sol\":18893:18943  _allowances[_msgSender()][spender].add(addedValue) */\n      tag_240\n        /* \"contracts/Pool/PoolPig.sol\":18932:18942  addedValue */\n      dup6\n        /* \"contracts/Pool/PoolPig.sol\":18893:18904  _allowances */\n      0x05\n        /* \"contracts/Pool/PoolPig.sol\":18893:18918  _allowances[_msgSender()] */\n      0x00\n        /* \"contracts/Pool/PoolPig.sol\":18905:18917  _msgSender() */\n      tag_241\n        /* \"contracts/Pool/PoolPig.sol\":18905:18915  _msgSender */\n      tag_192\n        /* \"contracts/Pool/PoolPig.sol\":18905:18917  _msgSender() */\n      jump\t// in\n    tag_241:\n        /* \"contracts/Pool/PoolPig.sol\":18893:18918  _allowances[_msgSender()] */\n      0xffffffffffffffffffffffffffffffffffffffff\n      and\n      0xffffffffffffffffffffffffffffffffffffffff\n      and\n      dup2\n      mstore\n      0x20\n      add\n      swap1\n      dup2\n      mstore\n      0x20\n      add\n      0x00\n      keccak256\n        /* \"contracts/Pool/PoolPig.sol\":18893:18927  _allowances[_msgSender()][spender] */\n      0x00\n        /* \"contracts/Pool/PoolPig.sol\":18919:18926  spender */\n      dup10\n        /* \"contracts/Pool/PoolPig.sol\":18893:18927  _allowances[_msgSender()][spender] */\n      0xffffffffffffffffffffffffffffffffffffffff\n      and\n      0xffffffffffffffffffffffffffffffffffffffff\n      and\n      dup2\n      mstore\n      0x20\n      add\n      swap1\n      dup2\n      mstore\n      0x20\n      add\n      0x00\n      keccak256\n      sload\n        /* \"contracts/Pool/PoolPig.sol\":18893:18931  _allowances[_msgSender()][spender].add */\n      tag_242\n      swap1\n        /* \"contracts/Pool/PoolPig.sol\":18893:18943  _allowances[_msgSender()][spender].add(addedValue) */\n      swap2\n      swap1\n      0xffffffff\n      and\n      jump\t// in\n    tag_240:\n        /* \"contracts/Pool/PoolPig.sol\":18861:18869  _approve */\n      tag_202\n        /* \"contracts/Pool/PoolPig.sol\":18861:18944  _approve(_msgSender(), spender, _allowances[_msgSender()][spender].add(addedValue)) */\n      jump\t// in\n    tag_238:\n        /* \"contracts/Pool/PoolPig.sol\":18961:18965  true */\n      0x01\n        /* \"contracts/Pool/PoolPig.sol\":18954:18965  return true */\n      swap1\n      pop\n        /* \"contracts/Pool/PoolPig.sol\":18757:18972  function increaseAllowance(address spender, uint256 addedValue) public virtual returns (bool) {... */\n      swap3\n      swap2\n      pop\n      pop\n      jump\t// out\n        /* \"contracts/Pool/PoolPig.sol\":15878:15904  uint256 public _taxFee = 2 */\n    tag_94:\n      sload(0x0e)\n      dup2\n      jump\t// out\n        /* \"contracts/Pool/PoolPig.sol\":19465:19835  function deliver(uint256 tAmount) public {... */\n    tag_98:\n        /* \"contracts/Pool/PoolPig.sol\":19516:19530  address sender */\n      0x00\n        /* \"contracts/Pool/PoolPig.sol\":19533:19545  _msgSender() */\n      tag_244\n        /* \"contracts/Pool/PoolPig.sol\":19533:19543  _msgSender */\n      tag_192\n        /* \"contracts/Pool/PoolPig.sol\":19533:19545  _msgSender() */\n      jump\t// in\n    tag_244:\n        /* \"contracts/Pool/PoolPig.sol\":19516:19545  address sender = _msgSender() */\n      swap1\n      pop\n        /* \"contracts/Pool/PoolPig.sol\":19564:19575  _isExcluded */\n      0x07\n        /* \"contracts/Pool/PoolPig.sol\":19564:19583  _isExcluded[sender] */\n      0x00\n        /* \"contracts/Pool/PoolPig.sol\":19576:19582  sender */\n      dup3\n        /* \"contracts/Pool/PoolPig.sol\":19564:19583  _isExcluded[sender] */\n      0xffffffffffffffffffffffffffffffffffffffff\n      and\n      0xffffffffffffffffffffffffffffffffffffffff\n      and\n      dup2\n      mstore\n      0x20\n      add\n      swap1\n      dup2\n      mstore\n      0x20\n      add\n      0x00\n      keccak256\n      0x00\n      swap1\n      sload\n      swap1\n      0x0100\n      exp\n      swap1\n      div\n      0xff\n      and\n        /* \"contracts/Pool/PoolPig.sol\":19563:19583  !_isExcluded[sender] */\n      iszero\n        /* \"contracts/Pool/PoolPig.sol\":19555:19632  require(!_isExcluded[sender], \"Excluded addresses cannot call this function\") */\n      tag_245\n      jumpi\n      mload(0x40)\n      0x08c379a000000000000000000000000000000000000000000000000000000000\n      dup2\n      mstore\n      0x04\n      add\n      dup1\n      dup1\n      0x20\n      add\n      dup3\n      dup2\n      sub\n      dup3\n      mstore\n      0x2c\n      dup2\n      mstore\n      0x20\n      add\n      dup1\n      data_ecefcaf5fbcf9ca6dcdb02298ba1da96f4ead317b0a4779917ecb2e5e7dc3ac4\n      0x2c\n      swap2\n      codecopy\n      0x40\n      add\n      swap2\n      pop\n      pop\n      mload(0x40)\n      dup1\n      swap2\n      sub\n      swap1\n      revert\n    tag_245:\n        /* \"contracts/Pool/PoolPig.sol\":19643:19658  uint256 rAmount */\n      0x00\n        /* \"contracts/Pool/PoolPig.sol\":19667:19686  _getValues(tAmount) */\n      tag_246\n        /* \"contracts/Pool/PoolPig.sol\":19678:19685  tAmount */\n      dup4\n        /* \"contracts/Pool/PoolPig.sol\":19667:19677  _getValues */\n      tag_247\n        /* \"contracts/Pool/PoolPig.sol\":19667:19686  _getValues(tAmount) */\n      jump\t// in\n    tag_246:\n        /* \"contracts/Pool/PoolPig.sol\":19642:19686  (uint256 rAmount,,,,,) = _getValues(tAmount) */\n      pop\n      pop\n      pop\n      pop\n      pop\n      swap1\n      pop\n        /* \"contracts/Pool/PoolPig.sol\":19714:19742  _rOwned[sender].sub(rAmount) */\n      tag_248\n        /* \"contracts/Pool/PoolPig.sol\":19734:19741  rAmount */\n      dup2\n        /* \"contracts/Pool/PoolPig.sol\":19714:19721  _rOwned */\n      0x03\n        /* \"contracts/Pool/PoolPig.sol\":19714:19729  _rOwned[sender] */\n      0x00\n        /* \"contracts/Pool/PoolPig.sol\":19722:19728  sender */\n      dup6\n        /* \"contracts/Pool/PoolPig.sol\":19714:19729  _rOwned[sender] */\n      0xffffffffffffffffffffffffffffffffffffffff\n      and\n      0xffffffffffffffffffffffffffffffffffffffff\n      and\n      dup2\n      mstore\n      0x20\n      add\n      swap1\n      dup2\n      mstore\n      0x20\n      add\n      0x00\n      keccak256\n      sload\n        /* \"contracts/Pool/PoolPig.sol\":19714:19733  _rOwned[sender].sub */\n      tag_249\n      swap1\n        /* \"contracts/Pool/PoolPig.sol\":19714:19742  _rOwned[sender].sub(rAmount) */\n      swap2\n      swap1\n      0xffffffff\n      and\n      jump\t// in\n    tag_248:\n        /* \"contracts/Pool/PoolPig.sol\":19696:19703  _rOwned */\n      0x03\n        /* \"contracts/Pool/PoolPig.sol\":19696:19711  _rOwned[sender] */\n      0x00\n        /* \"contracts/Pool/PoolPig.sol\":19704:19710  sender */\n      dup5\n        /* \"contracts/Pool/PoolPig.sol\":19696:19711  _rOwned[sender] */\n      0xffffffffffffffffffffffffffffffffffffffff\n      and\n      0xffffffffffffffffffffffffffffffffffffffff\n      and\n      dup2\n      mstore\n      0x20\n      add\n      swap1\n      dup2\n      mstore\n      0x20\n      add\n      0x00\n      keccak256\n        /* \"contracts/Pool/PoolPig.sol\":19696:19742  _rOwned[sender] = _rOwned[sender].sub(rAmount) */\n      dup2\n      swap1\n      sstore\n      pop\n        /* \"contracts/Pool/PoolPig.sol\":19762:19782  _rTotal.sub(rAmount) */\n      tag_250\n        /* \"contracts/Pool/PoolPig.sol\":19774:19781  rAmount */\n      dup2\n        /* \"contracts/Pool/PoolPig.sol\":19762:19769  _rTotal */\n      sload(0x09)\n        /* \"contracts/Pool/PoolPig.sol\":19762:19773  _rTotal.sub */\n      tag_249\n      swap1\n        /* \"contracts/Pool/PoolPig.sol\":19762:19782  _rTotal.sub(rAmount) */\n      swap2\n      swap1\n      0xffffffff\n      and\n      jump\t// in\n    tag_250:\n        /* \"contracts/Pool/PoolPig.sol\":19752:19759  _rTotal */\n      0x09\n        /* \"contracts/Pool/PoolPig.sol\":19752:19782  _rTotal = _rTotal.sub(rAmount) */\n      dup2\n      swap1\n      sstore\n      pop\n        /* \"contracts/Pool/PoolPig.sol\":19805:19828  _tFeeTotal.add(tAmount) */\n      tag_251\n        /* \"contracts/Pool/PoolPig.sol\":19820:19827  tAmount */\n      dup4\n        /* \"contracts/Pool/PoolPig.sol\":19805:19815  _tFeeTotal */\n      sload(0x0a)\n        /* \"contracts/Pool/PoolPig.sol\":19805:19819  _tFeeTotal.add */\n      tag_242\n      swap1\n        /* \"contracts/Pool/PoolPig.sol\":19805:19828  _tFeeTotal.add(tAmount) */\n      swap2\n      swap1\n      0xffffffff\n      and\n      jump\t// in\n    tag_251:\n        /* \"contracts/Pool/PoolPig.sol\":19792:19802  _tFeeTotal */\n      0x0a\n        /* \"contracts/Pool/PoolPig.sol\":19792:19828  _tFeeTotal = _tFeeTotal.add(tAmount) */\n      dup2\n      swap1\n      sstore\n      pop\n        /* \"contracts/Pool/PoolPig.sol\":19465:19835  function deliver(uint256 tAmount) public {... */\n      pop\n      pop\n      pop\n      jump\t// out\n        /* \"contracts/Pool/PoolPig.sol\":22098:22207  function excludeFromFee(address account) public onlyOwner {... */\n    tag_102:\n        /* \"contracts/Pool/PoolPig.sol\":6045:6057  _msgSender() */\n      tag_253\n        /* \"contracts/Pool/PoolPig.sol\":6045:6055  _msgSender */\n      tag_192\n        /* \"contracts/Pool/PoolPig.sol\":6045:6057  _msgSender() */\n      jump\t// in\n    tag_253:\n        /* \"contracts/Pool/PoolPig.sol\":6035:6057  _owner == _msgSender() */\n      0xffffffffffffffffffffffffffffffffffffffff\n      and\n        /* \"contracts/Pool/PoolPig.sol\":6035:6041  _owner */\n      0x00\n      dup1\n      sload\n      swap1\n      0x0100\n      exp\n      swap1\n      div\n      0xffffffffffffffffffffffffffffffffffffffff\n      and\n        /* \"contracts/Pool/PoolPig.sol\":6035:6057  _owner == _msgSender() */\n      0xffffffffffffffffffffffffffffffffffffffff\n      and\n      eq\n        /* \"contracts/Pool/PoolPig.sol\":6027:6094  require(_owner == _msgSender(), \"Ownable: caller is not the owner\") */\n      tag_254\n      jumpi\n      mload(0x40)\n      0x08c379a000000000000000000000000000000000000000000000000000000000\n      dup2\n      mstore\n      0x04\n      add\n      dup1\n      dup1\n      0x20\n      add\n      dup3\n      dup2\n      sub\n      dup3\n      mstore\n      0x20\n      dup2\n      mstore\n      0x20\n      add\n      dup1\n      0x4f776e61626c653a2063616c6c6572206973206e6f7420746865206f776e6572\n      dup2\n      mstore\n      pop\n      0x20\n      add\n      swap2\n      pop\n      pop\n      mload(0x40)\n      dup1\n      swap2\n      sub\n      swap1\n      revert\n    tag_254:\n        /* \"contracts/Pool/PoolPig.sol\":22196:22200  true */\n      0x01\n        /* \"contracts/Pool/PoolPig.sol\":22166:22184  _isExcludedFromFee */\n      0x06\n        /* \"contracts/Pool/PoolPig.sol\":22166:22193  _isExcludedFromFee[account] */\n      0x00\n        /* \"contracts/Pool/PoolPig.sol\":22185:22192  account */\n      dup4\n        /* \"contracts/Pool/PoolPig.sol\":22166:22193  _isExcludedFromFee[account] */\n      0xffffffffffffffffffffffffffffffffffffffff\n      and\n      0xffffffffffffffffffffffffffffffffffffffff\n      and\n      dup2\n      mstore\n      0x20\n      add\n      swap1\n      dup2\n      mstore\n      0x20\n      add\n      0x00\n      keccak256\n      0x00\n        /* \"contracts/Pool/PoolPig.sol\":22166:22200  _isExcludedFromFee[account] = true */\n      0x0100\n      exp\n      dup2\n      sload\n      dup2\n      0xff\n      mul\n      not\n      and\n      swap1\n      dup4\n      iszero\n      iszero\n      mul\n      or\n      swap1\n      sstore\n      pop\n        /* \"contracts/Pool/PoolPig.sol\":22098:22207  function excludeFromFee(address account) public onlyOwner {... */\n      pop\n      jump\t// out\n        /* \"contracts/Pool/PoolPig.sol\":19841:20268  function reflectionFromToken(uint256 tAmount, bool deductTransferFee) public view returns(uint256) {... */\n    tag_106:\n        /* \"contracts/Pool/PoolPig.sol\":19931:19938  uint256 */\n      0x00\n        /* \"contracts/Pool/PoolPig.sol\":15652:15670  1000000000 * 10**9 */\n      0x0de0b6b3a7640000\n        /* \"contracts/Pool/PoolPig.sol\":19958:19965  tAmount */\n      dup4\n        /* \"contracts/Pool/PoolPig.sol\":19958:19976  tAmount <= _tTotal */\n      gt\n      iszero\n        /* \"contracts/Pool/PoolPig.sol\":19950:20012  require(tAmount <= _tTotal, \"Amount must be less than supply\") */\n      tag_257\n      jumpi\n      mload(0x40)\n      0x08c379a000000000000000000000000000000000000000000000000000000000\n      dup2\n      mstore\n      0x04\n      add\n      dup1\n      dup1\n      0x20\n      add\n      dup3\n      dup2\n      sub\n      dup3\n      mstore\n      0x1f\n      dup2\n      mstore\n      0x20\n      add\n      dup1\n      0x416d6f756e74206d757374206265206c657373207468616e20737570706c7900\n      dup2\n      mstore\n      pop\n      0x20\n      add\n      swap2\n      pop\n      pop\n      mload(0x40)\n      dup1\n      swap2\n      sub\n      swap1\n      revert\n    tag_257:\n        /* \"contracts/Pool/PoolPig.sol\":20027:20044  deductTransferFee */\n      dup2\n        /* \"contracts/Pool/PoolPig.sol\":20022:20262  if (!deductTransferFee) {... */\n      tag_258\n      jumpi\n        /* \"contracts/Pool/PoolPig.sol\":20061:20076  uint256 rAmount */\n      0x00\n        /* \"contracts/Pool/PoolPig.sol\":20085:20104  _getValues(tAmount) */\n      tag_259\n        /* \"contracts/Pool/PoolPig.sol\":20096:20103  tAmount */\n      dup5\n        /* \"contracts/Pool/PoolPig.sol\":20085:20095  _getValues */\n      tag_247\n        /* \"contracts/Pool/PoolPig.sol\":20085:20104  _getValues(tAmount) */\n      jump\t// in\n    tag_259:\n        /* \"contracts/Pool/PoolPig.sol\":20060:20104  (uint256 rAmount,,,,,) = _getValues(tAmount) */\n      pop\n      pop\n      pop\n      pop\n      pop\n      swap1\n      pop\n        /* \"contracts/Pool/PoolPig.sol\":20125:20132  rAmount */\n      dup1\n        /* \"contracts/Pool/PoolPig.sol\":20118:20132  return rAmount */\n      swap2\n      pop\n      pop\n      jump(tag_256)\n        /* \"contracts/Pool/PoolPig.sol\":20022:20262  if (!deductTransferFee) {... */\n    tag_258:\n        /* \"contracts/Pool/PoolPig.sol\":20165:20188  uint256 rTransferAmount */\n      0x00\n        /* \"contracts/Pool/PoolPig.sol\":20196:20215  _getValues(tAmount) */\n      tag_261\n        /* \"contracts/Pool/PoolPig.sol\":20207:20214  tAmount */\n      dup5\n        /* \"contracts/Pool/PoolPig.sol\":20196:20206  _getValues */\n      tag_247\n        /* \"contracts/Pool/PoolPig.sol\":20196:20215  _getValues(tAmount) */\n      jump\t// in\n    tag_261:\n        /* \"contracts/Pool/PoolPig.sol\":20163:20215  (,uint256 rTransferAmount,,,,) = _getValues(tAmount) */\n      pop\n      pop\n      pop\n      pop\n      swap2\n      pop\n      pop\n        /* \"contracts/Pool/PoolPig.sol\":20236:20251  rTransferAmount */\n      dup1\n        /* \"contracts/Pool/PoolPig.sol\":20229:20251  return rTransferAmount */\n      swap2\n      pop\n      pop\n        /* \"contracts/Pool/PoolPig.sol\":19841:20268  function reflectionFromToken(uint256 tAmount, bool deductTransferFee) public view returns(uint256) {... */\n    tag_256:\n      swap3\n      swap2\n      pop\n      pop\n      jump\t// out\n        /* \"contracts/Pool/PoolPig.sol\":16117:16155  address public immutable uniswapV2Pair */\n    tag_109:\n      immutable(\"0x924caa65d1644bcda3c737cb4f972c9170b1e3eb26b1eeba5090c589a3beb7a4\")\n      dup2\n      jump\t// out\n        /* \"contracts/Pool/PoolPig.sol\":16193:16233  bool public swapAndLiquifyEnabled = true */\n    tag_112:\n      0x12\n      0x01\n      swap1\n      sload\n      swap1\n      0x0100\n      exp\n      swap1\n      div\n      0xff\n      and\n      dup2\n      jump\t// out\n        /* \"contracts/Pool/PoolPig.sol\":20529:20968  function excludeFromReward(address account) public onlyOwner() {... */\n    tag_116:\n        /* \"contracts/Pool/PoolPig.sol\":6045:6057  _msgSender() */\n      tag_263\n        /* \"contracts/Pool/PoolPig.sol\":6045:6055  _msgSender */\n      tag_192\n        /* \"contracts/Pool/PoolPig.sol\":6045:6057  _msgSender() */\n      jump\t// in\n    tag_263:\n        /* \"contracts/Pool/PoolPig.sol\":6035:6057  _owner == _msgSender() */\n      0xffffffffffffffffffffffffffffffffffffffff\n      and\n        /* \"contracts/Pool/PoolPig.sol\":6035:6041  _owner */\n      0x00\n      dup1\n      sload\n      swap1\n      0x0100\n      exp\n      swap1\n      div\n      0xffffffffffffffffffffffffffffffffffffffff\n      and\n        /* \"contracts/Pool/PoolPig.sol\":6035:6057  _owner == _msgSender() */\n      0xffffffffffffffffffffffffffffffffffffffff\n      and\n      eq\n        /* \"contracts/Pool/PoolPig.sol\":6027:6094  require(_owner == _msgSender(), \"Ownable: caller is not the owner\") */\n      tag_264\n      jumpi\n      mload(0x40)\n      0x08c379a000000000000000000000000000000000000000000000000000000000\n      dup2\n      mstore\n      0x04\n      add\n      dup1\n      dup1\n      0x20\n      add\n      dup3\n      dup2\n      sub\n      dup3\n      mstore\n      0x20\n      dup2\n      mstore\n      0x20\n      add\n      dup1\n      0x4f776e61626c653a2063616c6c6572206973206e6f7420746865206f776e6572\n      dup2\n      mstore\n      pop\n      0x20\n      add\n      swap2\n      pop\n      pop\n      mload(0x40)\n      dup1\n      swap2\n      sub\n      swap1\n      revert\n    tag_264:\n        /* \"contracts/Pool/PoolPig.sol\":20724:20735  _isExcluded */\n      0x07\n        /* \"contracts/Pool/PoolPig.sol\":20724:20744  _isExcluded[account] */\n      0x00\n        /* \"contracts/Pool/PoolPig.sol\":20736:20743  account */\n      dup3\n        /* \"contracts/Pool/PoolPig.sol\":20724:20744  _isExcluded[account] */\n      0xffffffffffffffffffffffffffffffffffffffff\n      and\n      0xffffffffffffffffffffffffffffffffffffffff\n      and\n      dup2\n      mstore\n      0x20\n      add\n      swap1\n      dup2\n      mstore\n      0x20\n      add\n      0x00\n      keccak256\n      0x00\n      swap1\n      sload\n      swap1\n      0x0100\n      exp\n      swap1\n      div\n      0xff\n      and\n        /* \"contracts/Pool/PoolPig.sol\":20723:20744  !_isExcluded[account] */\n      iszero\n        /* \"contracts/Pool/PoolPig.sol\":20715:20776  require(!_isExcluded[account], \"Account is already excluded\") */\n      tag_266\n      jumpi\n      mload(0x40)\n      0x08c379a000000000000000000000000000000000000000000000000000000000\n      dup2\n      mstore\n      0x04\n      add\n      dup1\n      dup1\n      0x20\n      add\n      dup3\n      dup2\n      sub\n      dup3\n      mstore\n      0x1b\n      dup2\n      mstore\n      0x20\n      add\n      dup1\n      0x4163636f756e7420697320616c7265616479206578636c756465640000000000\n      dup2\n      mstore\n      pop\n      0x20\n      add\n      swap2\n      pop\n      pop\n      mload(0x40)\n      dup1\n      swap2\n      sub\n      swap1\n      revert\n    tag_266:\n        /* \"contracts/Pool/PoolPig.sol\":20808:20809  0 */\n      0x00\n        /* \"contracts/Pool/PoolPig.sol\":20789:20796  _rOwned */\n      0x03\n        /* \"contracts/Pool/PoolPig.sol\":20789:20805  _rOwned[account] */\n      0x00\n        /* \"contracts/Pool/PoolPig.sol\":20797:20804  account */\n      dup4\n        /* \"contracts/Pool/PoolPig.sol\":20789:20805  _rOwned[account] */\n      0xffffffffffffffffffffffffffffffffffffffff\n      and\n      0xffffffffffffffffffffffffffffffffffffffff\n      and\n      dup2\n      mstore\n      0x20\n      add\n      swap1\n      dup2\n      mstore\n      0x20\n      add\n      0x00\n      keccak256\n      sload\n        /* \"contracts/Pool/PoolPig.sol\":20789:20809  _rOwned[account] > 0 */\n      gt\n        /* \"contracts/Pool/PoolPig.sol\":20786:20892  if(_rOwned[account] > 0) {... */\n      iszero\n      tag_267\n      jumpi\n        /* \"contracts/Pool/PoolPig.sol\":20844:20881  tokenFromReflection(_rOwned[account]) */\n      tag_268\n        /* \"contracts/Pool/PoolPig.sol\":20864:20871  _rOwned */\n      0x03\n        /* \"contracts/Pool/PoolPig.sol\":20864:20880  _rOwned[account] */\n      0x00\n        /* \"contracts/Pool/PoolPig.sol\":20872:20879  account */\n      dup4\n        /* \"contracts/Pool/PoolPig.sol\":20864:20880  _rOwned[account] */\n      0xffffffffffffffffffffffffffffffffffffffff\n      and\n      0xffffffffffffffffffffffffffffffffffffffff\n      and\n      dup2\n      mstore\n      0x20\n      add\n      swap1\n      dup2\n      mstore\n      0x20\n      add\n      0x00\n      keccak256\n      sload\n        /* \"contracts/Pool/PoolPig.sol\":20844:20863  tokenFromReflection */\n      tag_80\n        /* \"contracts/Pool/PoolPig.sol\":20844:20881  tokenFromReflection(_rOwned[account]) */\n      jump\t// in\n    tag_268:\n        /* \"contracts/Pool/PoolPig.sol\":20825:20832  _tOwned */\n      0x04\n        /* \"contracts/Pool/PoolPig.sol\":20825:20841  _tOwned[account] */\n      0x00\n        /* \"contracts/Pool/PoolPig.sol\":20833:20840  account */\n      dup4\n        /* \"contracts/Pool/PoolPig.sol\":20825:20841  _tOwned[account] */\n      0xffffffffffffffffffffffffffffffffffffffff\n      and\n      0xffffffffffffffffffffffffffffffffffffffff\n      and\n      dup2\n      mstore\n      0x20\n      add\n      swap1\n      dup2\n      mstore\n      0x20\n      add\n      0x00\n      keccak256\n        /* \"contracts/Pool/PoolPig.sol\":20825:20881  _tOwned[account] = tokenFromReflection(_rOwned[account]) */\n      dup2\n      swap1\n      sstore\n      pop\n        /* \"contracts/Pool/PoolPig.sol\":20786:20892  if(_rOwned[account] > 0) {... */\n    tag_267:\n        /* \"contracts/Pool/PoolPig.sol\":20924:20928  true */\n      0x01\n        /* \"contracts/Pool/PoolPig.sol\":20901:20912  _isExcluded */\n      0x07\n        /* \"contracts/Pool/PoolPig.sol\":20901:20921  _isExcluded[account] */\n      0x00\n        /* \"contracts/Pool/PoolPig.sol\":20913:20920  account */\n      dup4\n        /* \"contracts/Pool/PoolPig.sol\":20901:20921  _isExcluded[account] */\n      0xffffffffffffffffffffffffffffffffffffffff\n      and\n      0xffffffffffffffffffffffffffffffffffffffff\n      and\n      dup2\n      mstore\n      0x20\n      add\n      swap1\n      dup2\n      mstore\n      0x20\n      add\n      0x00\n      keccak256\n      0x00\n        /* \"contracts/Pool/PoolPig.sol\":20901:20928  _isExcluded[account] = true */\n      0x0100\n      exp\n      dup2\n      sload\n      dup2\n      0xff\n      mul\n      not\n      and\n      swap1\n      dup4\n      iszero\n      iszero\n      mul\n      or\n      swap1\n      sstore\n      pop\n        /* \"contracts/Pool/PoolPig.sol\":20938:20947  _excluded */\n      0x08\n        /* \"contracts/Pool/PoolPig.sol\":20953:20960  account */\n      dup2\n        /* \"contracts/Pool/PoolPig.sol\":20938:20961  _excluded.push(account) */\n      swap1\n      dup1\n      0x01\n      dup2\n      sload\n      add\n      dup1\n      dup3\n      sstore\n      dup1\n      swap2\n      pop\n      pop\n      0x01\n      swap1\n      sub\n      swap1\n      0x00\n      mstore\n      keccak256(0x00, 0x20)\n      add\n      0x00\n      swap1\n      swap2\n      swap1\n      swap2\n      swap1\n      swap2\n      0x0100\n      exp\n      dup2\n      sload\n      dup2\n      0xffffffffffffffffffffffffffffffffffffffff\n      mul\n      not\n      and\n      swap1\n      dup4\n      0xffffffffffffffffffffffffffffffffffffffff\n      and\n      mul\n      or\n      swap1\n      sstore\n      pop\n        /* \"contracts/Pool/PoolPig.sol\":20529:20968  function excludeFromReward(address account) public onlyOwner() {... */\n      pop\n      jump\t// out\n        /* \"contracts/Pool/PoolPig.sol\":26132:26253  function isExcludedFromFee(address account) public view returns(bool) {... */\n    tag_120:\n        /* \"contracts/Pool/PoolPig.sol\":26196:26200  bool */\n      0x00\n        /* \"contracts/Pool/PoolPig.sol\":26219:26237  _isExcludedFromFee */\n      0x06\n        /* \"contracts/Pool/PoolPig.sol\":26219:26246  _isExcludedFromFee[account] */\n      0x00\n        /* \"contracts/Pool/PoolPig.sol\":26238:26245  account */\n      dup4\n        /* \"contracts/Pool/PoolPig.sol\":26219:26246  _isExcludedFromFee[account] */\n      0xffffffffffffffffffffffffffffffffffffffff\n      and\n      0xffffffffffffffffffffffffffffffffffffffff\n      and\n      dup2\n      mstore\n      0x20\n      add\n      swap1\n      dup2\n      mstore\n      0x20\n      add\n      0x00\n      keccak256\n      0x00\n      swap1\n      sload\n      swap1\n      0x0100\n      exp\n      swap1\n      div\n      0xff\n      and\n        /* \"contracts/Pool/PoolPig.sol\":26212:26246  return _isExcludedFromFee[account] */\n      swap1\n      pop\n        /* \"contracts/Pool/PoolPig.sol\":26132:26253  function isExcludedFromFee(address account) public view returns(bool) {... */\n      swap2\n      swap1\n      pop\n      jump\t// out\n        /* \"contracts/Pool/PoolPig.sol\":15962:15994  uint256 public _liquidityFee = 3 */\n    tag_123:\n      sload(0x10)\n      dup2\n      jump\t// out\n        /* \"contracts/Pool/PoolPig.sol\":17760:17955  function balanceOf(address account) public view override returns (uint256) {... */\n    tag_127:\n        /* \"contracts/Pool/PoolPig.sol\":17826:17833  uint256 */\n      0x00\n        /* \"contracts/Pool/PoolPig.sol\":17849:17860  _isExcluded */\n      0x07\n        /* \"contracts/Pool/PoolPig.sol\":17849:17869  _isExcluded[account] */\n      0x00\n        /* \"contracts/Pool/PoolPig.sol\":17861:17868  account */\n      dup4\n        /* \"contracts/Pool/PoolPig.sol\":17849:17869  _isExcluded[account] */\n      0xffffffffffffffffffffffffffffffffffffffff\n      and\n      0xffffffffffffffffffffffffffffffffffffffff\n      and\n      dup2\n      mstore\n      0x20\n      add\n      swap1\n      dup2\n      mstore\n      0x20\n      add\n      0x00\n      keccak256\n      0x00\n      swap1\n      sload\n      swap1\n      0x0100\n      exp\n      swap1\n      div\n      0xff\n      and\n        /* \"contracts/Pool/PoolPig.sol\":17845:17894  if (_isExcluded[account]) return _tOwned[account] */\n      iszero\n      tag_272\n      jumpi\n        /* \"contracts/Pool/PoolPig.sol\":17878:17885  _tOwned */\n      0x04\n        /* \"contracts/Pool/PoolPig.sol\":17878:17894  _tOwned[account] */\n      0x00\n        /* \"contracts/Pool/PoolPig.sol\":17886:17893  account */\n      dup4\n        /* \"contracts/Pool/PoolPig.sol\":17878:17894  _tOwned[account] */\n      0xffffffffffffffffffffffffffffffffffffffff\n      and\n      0xffffffffffffffffffffffffffffffffffffffff\n      and\n      dup2\n      mstore\n      0x20\n      add\n      swap1\n      dup2\n      mstore\n      0x20\n      add\n      0x00\n      keccak256\n      sload\n        /* \"contracts/Pool/PoolPig.sol\":17871:17894  return _tOwned[account] */\n      swap1\n      pop\n      jump(tag_271)\n        /* \"contracts/Pool/PoolPig.sol\":17845:17894  if (_isExcluded[account]) return _tOwned[account] */\n    tag_272:\n        /* \"contracts/Pool/PoolPig.sol\":17911:17948  tokenFromReflection(_rOwned[account]) */\n      tag_273\n        /* \"contracts/Pool/PoolPig.sol\":17931:17938  _rOwned */\n      0x03\n        /* \"contracts/Pool/PoolPig.sol\":17931:17947  _rOwned[account] */\n      0x00\n        /* \"contracts/Pool/PoolPig.sol\":17939:17946  account */\n      dup5\n        /* \"contracts/Pool/PoolPig.sol\":17931:17947  _rOwned[account] */\n      0xffffffffffffffffffffffffffffffffffffffff\n      and\n      0xffffffffffffffffffffffffffffffffffffffff\n      and\n      dup2\n      mstore\n      0x20\n      add\n      swap1\n      dup2\n      mstore\n      0x20\n      add\n      0x00\n      keccak256\n      sload\n        /* \"contracts/Pool/PoolPig.sol\":17911:17930  tokenFromReflection */\n      tag_80\n        /* \"contracts/Pool/PoolPig.sol\":17911:17948  tokenFromReflection(_rOwned[account]) */\n      jump\t// in\n    tag_273:\n        /* \"contracts/Pool/PoolPig.sol\":17904:17948  return tokenFromReflection(_rOwned[account]) */\n      swap1\n      pop\n        /* \"contracts/Pool/PoolPig.sol\":17760:17955  function balanceOf(address account) public view override returns (uint256) {... */\n    tag_271:\n      swap2\n      swap1\n      pop\n      jump\t// out\n        /* \"contracts/Pool/PoolPig.sol\":6118:6263  function renounceOwnership() public virtual onlyOwner {... */\n    tag_130:\n        /* \"contracts/Pool/PoolPig.sol\":6045:6057  _msgSender() */\n      tag_275\n        /* \"contracts/Pool/PoolPig.sol\":6045:6055  _msgSender */\n      tag_192\n        /* \"contracts/Pool/PoolPig.sol\":6045:6057  _msgSender() */\n      jump\t// in\n    tag_275:\n        /* \"contracts/Pool/PoolPig.sol\":6035:6057  _owner == _msgSender() */\n      0xffffffffffffffffffffffffffffffffffffffff\n      and\n        /* \"contracts/Pool/PoolPig.sol\":6035:6041  _owner */\n      0x00\n      dup1\n      sload\n      swap1\n      0x0100\n      exp\n      swap1\n      div\n      0xffffffffffffffffffffffffffffffffffffffff\n      and\n        /* \"contracts/Pool/PoolPig.sol\":6035:6057  _owner == _msgSender() */\n      0xffffffffffffffffffffffffffffffffffffffff\n      and\n      eq\n        /* \"contracts/Pool/PoolPig.sol\":6027:6094  require(_owner == _msgSender(), \"Ownable: caller is not the owner\") */\n      tag_276\n      jumpi\n      mload(0x40)\n      0x08c379a000000000000000000000000000000000000000000000000000000000\n      dup2\n      mstore\n      0x04\n      add\n      dup1\n      dup1\n      0x20\n      add\n      dup3\n      dup2\n      sub\n      dup3\n      mstore\n      0x20\n      dup2\n      mstore\n      0x20\n      add\n      dup1\n      0x4f776e61626c653a2063616c6c6572206973206e6f7420746865206f776e6572\n      dup2\n      mstore\n      pop\n      0x20\n      add\n      swap2\n      pop\n      pop\n      mload(0x40)\n      dup1\n      swap2\n      sub\n      swap1\n      revert\n    tag_276:\n        /* \"contracts/Pool/PoolPig.sol\":6224:6225  0 */\n      0x00\n        /* \"contracts/Pool/PoolPig.sol\":6187:6227  OwnershipTransferred(_owner, address(0)) */\n      0xffffffffffffffffffffffffffffffffffffffff\n      and\n        /* \"contracts/Pool/PoolPig.sol\":6208:6214  _owner */\n      0x00\n      dup1\n      sload\n      swap1\n      0x0100\n      exp\n      swap1\n      div\n      0xffffffffffffffffffffffffffffffffffffffff\n      and\n        /* \"contracts/Pool/PoolPig.sol\":6187:6227  OwnershipTransferred(_owner, address(0)) */\n      0xffffffffffffffffffffffffffffffffffffffff\n      and\n      0x8be0079c531659141344cd1fd0a4f28419497f9722a3daafe3b4186f6b6457e0\n      mload(0x40)\n      mload(0x40)\n      dup1\n      swap2\n      sub\n      swap1\n      log3\n        /* \"contracts/Pool/PoolPig.sol\":6254:6255  0 */\n      0x00\n        /* \"contracts/Pool/PoolPig.sol\":6237:6243  _owner */\n      dup1\n      0x00\n        /* \"contracts/Pool/PoolPig.sol\":6237:6256  _owner = address(0) */\n      0x0100\n      exp\n      dup2\n      sload\n      dup2\n      0xffffffffffffffffffffffffffffffffffffffff\n      mul\n      not\n      and\n      swap1\n      dup4\n      0xffffffffffffffffffffffffffffffffffffffff\n      and\n      mul\n      or\n      swap1\n      sstore\n      pop\n        /* \"contracts/Pool/PoolPig.sol\":6118:6263  function renounceOwnership() public virtual onlyOwner {... */\n      jump\t// out\n        /* \"contracts/Pool/PoolPig.sol\":16244:16291  uint256 public _maxTxAmount = 500000000 * 10**9 */\n    tag_133:\n      sload(0x13)\n      dup2\n      jump\t// out\n        /* \"contracts/Pool/PoolPig.sol\":19250:19368  function isExcludedFromReward(address account) public view returns (bool) {... */\n    tag_137:\n        /* \"contracts/Pool/PoolPig.sol\":19318:19322  bool */\n      0x00\n        /* \"contracts/Pool/PoolPig.sol\":19341:19352  _isExcluded */\n      0x07\n        /* \"contracts/Pool/PoolPig.sol\":19341:19361  _isExcluded[account] */\n      0x00\n        /* \"contracts/Pool/PoolPig.sol\":19353:19360  account */\n      dup4\n        /* \"contracts/Pool/PoolPig.sol\":19341:19361  _isExcluded[account] */\n      0xffffffffffffffffffffffffffffffffffffffff\n      and\n      0xffffffffffffffffffffffffffffffffffffffff\n      and\n      dup2\n      mstore\n      0x20\n      add\n      swap1\n      dup2\n      mstore\n      0x20\n      add\n      0x00\n      keccak256\n      0x00\n      swap1\n      sload\n      swap1\n      0x0100\n      exp\n      swap1\n      div\n      0xff\n      and\n        /* \"contracts/Pool/PoolPig.sol\":19334:19361  return _isExcluded[account] */\n      swap1\n      pop\n        /* \"contracts/Pool/PoolPig.sol\":19250:19368  function isExcludedFromReward(address account) public view returns (bool) {... */\n      swap2\n      swap1\n      pop\n      jump\t// out\n        /* \"contracts/Pool/PoolPig.sol\":5831:5908  function owner() public view returns (address) {... */\n    tag_140:\n        /* \"contracts/Pool/PoolPig.sol\":5869:5876  address */\n      0x00\n        /* \"contracts/Pool/PoolPig.sol\":5895:5901  _owner */\n      dup1\n      0x00\n      swap1\n      sload\n      swap1\n      0x0100\n      exp\n      swap1\n      div\n      0xffffffffffffffffffffffffffffffffffffffff\n      and\n        /* \"contracts/Pool/PoolPig.sol\":5888:5901  return _owner */\n      swap1\n      pop\n        /* \"contracts/Pool/PoolPig.sol\":5831:5908  function owner() public view returns (address) {... */\n      swap1\n      jump\t// out\n        /* \"contracts/Pool/PoolPig.sol\":22441:22561  function setLiquidityFeePercent(uint256 liquidityFee) external onlyOwner() {... */\n    tag_144:\n        /* \"contracts/Pool/PoolPig.sol\":6045:6057  _msgSender() */\n      tag_281\n        /* \"contracts/Pool/PoolPig.sol\":6045:6055  _msgSender */\n      tag_192\n        /* \"contracts/Pool/PoolPig.sol\":6045:6057  _msgSender() */\n      jump\t// in\n    tag_281:\n        /* \"contracts/Pool/PoolPig.sol\":6035:6057  _owner == _msgSender() */\n      0xffffffffffffffffffffffffffffffffffffffff\n      and\n        /* \"contracts/Pool/PoolPig.sol\":6035:6041  _owner */\n      0x00\n      dup1\n      sload\n      swap1\n      0x0100\n      exp\n      swap1\n      div\n      0xffffffffffffffffffffffffffffffffffffffff\n      and\n        /* \"contracts/Pool/PoolPig.sol\":6035:6057  _owner == _msgSender() */\n      0xffffffffffffffffffffffffffffffffffffffff\n      and\n      eq\n        /* \"contracts/Pool/PoolPig.sol\":6027:6094  require(_owner == _msgSender(), \"Ownable: caller is not the owner\") */\n      tag_282\n      jumpi\n      mload(0x40)\n      0x08c379a000000000000000000000000000000000000000000000000000000000\n      dup2\n      mstore\n      0x04\n      add\n      dup1\n      dup1\n      0x20\n      add\n      dup3\n      dup2\n      sub\n      dup3\n      mstore\n      0x20\n      dup2\n      mstore\n      0x20\n      add\n      dup1\n      0x4f776e61626c653a2063616c6c6572206973206e6f7420746865206f776e6572\n      dup2\n      mstore\n      pop\n      0x20\n      add\n      swap2\n      pop\n      pop\n      mload(0x40)\n      dup1\n      swap2\n      sub\n      swap1\n      revert\n    tag_282:\n        /* \"contracts/Pool/PoolPig.sol\":22542:22554  liquidityFee */\n      dup1\n        /* \"contracts/Pool/PoolPig.sol\":22526:22539  _liquidityFee */\n      0x10\n        /* \"contracts/Pool/PoolPig.sol\":22526:22554  _liquidityFee = liquidityFee */\n      dup2\n      swap1\n      sstore\n      pop\n        /* \"contracts/Pool/PoolPig.sol\":22441:22561  function setLiquidityFeePercent(uint256 liquidityFee) external onlyOwner() {... */\n      pop\n      jump\t// out\n        /* \"contracts/Pool/PoolPig.sol\":17483:17568  function symbol() public view returns (string memory) {... */\n    tag_147:\n        /* \"contracts/Pool/PoolPig.sol\":17522:17535  string memory */\n      0x60\n        /* \"contracts/Pool/PoolPig.sol\":17554:17561  _symbol */\n      0x0c\n        /* \"contracts/Pool/PoolPig.sol\":17547:17561  return _symbol */\n      dup1\n      sload\n      0x01\n      dup2\n      0x01\n      and\n      iszero\n      0x0100\n      mul\n      sub\n      and\n      0x02\n      swap1\n      div\n      dup1\n      0x1f\n      add\n      0x20\n      dup1\n      swap2\n      div\n      mul\n      0x20\n      add\n      mload(0x40)\n      swap1\n      dup2\n      add\n      0x40\n      mstore\n      dup1\n      swap3\n      swap2\n      swap1\n      dup2\n      dup2\n      mstore\n      0x20\n      add\n      dup3\n      dup1\n      sload\n      0x01\n      dup2\n      0x01\n      and\n      iszero\n      0x0100\n      mul\n      sub\n      and\n      0x02\n      swap1\n      div\n      dup1\n      iszero\n      tag_285\n      jumpi\n      dup1\n      0x1f\n      lt\n      tag_286\n      jumpi\n      0x0100\n      dup1\n      dup4\n      sload\n      div\n      mul\n      dup4\n      mstore\n      swap2\n      0x20\n      add\n      swap2\n      jump(tag_285)\n    tag_286:\n      dup3\n      add\n      swap2\n      swap1\n      0x00\n      mstore\n      keccak256(0x00, 0x20)\n      swap1\n    tag_287:\n      dup2\n      sload\n      dup2\n      mstore\n      swap1\n      0x01\n      add\n      swap1\n      0x20\n      add\n      dup1\n      dup4\n      gt\n      tag_287\n      jumpi\n      dup3\n      swap1\n      sub\n      0x1f\n      and\n      dup3\n      add\n      swap2\n    tag_285:\n      pop\n      pop\n      pop\n      pop\n      pop\n      swap1\n      pop\n        /* \"contracts/Pool/PoolPig.sol\":17483:17568  function symbol() public view returns (string memory) {... */\n      swap1\n      jump\t// out\n        /* \"contracts/Pool/PoolPig.sol\":18978:19244  function decreaseAllowance(address spender, uint256 subtractedValue) public virtual returns (bool) {... */\n    tag_155:\n        /* \"contracts/Pool/PoolPig.sol\":19071:19075  bool */\n      0x00\n        /* \"contracts/Pool/PoolPig.sol\":19087:19216  _approve(_msgSender(), spender, _allowances[_msgSender()][spender].sub(subtractedValue, \"ERC20: decreased allowance below zero\")) */\n      tag_289\n        /* \"contracts/Pool/PoolPig.sol\":19096:19108  _msgSender() */\n      tag_290\n        /* \"contracts/Pool/PoolPig.sol\":19096:19106  _msgSender */\n      tag_192\n        /* \"contracts/Pool/PoolPig.sol\":19096:19108  _msgSender() */\n      jump\t// in\n    tag_290:\n        /* \"contracts/Pool/PoolPig.sol\":19110:19117  spender */\n      dup5\n        /* \"contracts/Pool/PoolPig.sol\":19119:19215  _allowances[_msgSender()][spender].sub(subtractedValue, \"ERC20: decreased allowance below zero\") */\n      tag_291\n        /* \"contracts/Pool/PoolPig.sol\":19158:19173  subtractedValue */\n      dup6\n        /* \"contracts/Pool/PoolPig.sol\":19119:19215  _allowances[_msgSender()][spender].sub(subtractedValue, \"ERC20: decreased allowance below zero\") */\n      mload(0x40)\n      dup1\n      0x60\n      add\n      0x40\n      mstore\n      dup1\n      0x25\n      dup2\n      mstore\n      0x20\n      add\n      data_f8b476f7d28209d77d4a4ac1fe36b9f8259aa1bb6bddfa6e89de7e51615cf8a8\n      0x25\n      swap2\n      codecopy\n        /* \"contracts/Pool/PoolPig.sol\":19119:19130  _allowances */\n      0x05\n        /* \"contracts/Pool/PoolPig.sol\":19119:19144  _allowances[_msgSender()] */\n      0x00\n        /* \"contracts/Pool/PoolPig.sol\":19131:19143  _msgSender() */\n      tag_292\n        /* \"contracts/Pool/PoolPig.sol\":19131:19141  _msgSender */\n      tag_192\n        /* \"contracts/Pool/PoolPig.sol\":19131:19143  _msgSender() */\n      jump\t// in\n    tag_292:\n        /* \"contracts/Pool/PoolPig.sol\":19119:19144  _allowances[_msgSender()] */\n      0xffffffffffffffffffffffffffffffffffffffff\n      and\n      0xffffffffffffffffffffffffffffffffffffffff\n      and\n      dup2\n      mstore\n      0x20\n      add\n      swap1\n      dup2\n      mstore\n      0x20\n      add\n      0x00\n      keccak256\n        /* \"contracts/Pool/PoolPig.sol\":19119:19153  _allowances[_msgSender()][spender] */\n      0x00\n        /* \"contracts/Pool/PoolPig.sol\":19145:19152  spender */\n      dup11\n        /* \"contracts/Pool/PoolPig.sol\":19119:19153  _allowances[_msgSender()][spender] */\n      0xffffffffffffffffffffffffffffffffffffffff\n      and\n      0xffffffffffffffffffffffffffffffffffffffff\n      and\n      dup2\n      mstore\n      0x20\n      add\n      swap1\n      dup2\n      mstore\n      0x20\n      add\n      0x00\n      keccak256\n      sload\n        /* \"contracts/Pool/PoolPig.sol\":19119:19157  _allowances[_msgSender()][spender].sub */\n      tag_212\n      swap1\n        /* \"contracts/Pool/PoolPig.sol\":19119:19215  _allowances[_msgSender()][spender].sub(subtractedValue, \"ERC20: decreased allowance below zero\") */\n      swap3\n      swap2\n      swap1\n      0xffffffff\n      and\n      jump\t// in\n    tag_291:\n        /* \"contracts/Pool/PoolPig.sol\":19087:19095  _approve */\n      tag_202\n        /* \"contracts/Pool/PoolPig.sol\":19087:19216  _approve(_msgSender(), spender, _allowances[_msgSender()][spender].sub(subtractedValue, \"ERC20: decreased allowance below zero\")) */\n      jump\t// in\n    tag_289:\n        /* \"contracts/Pool/PoolPig.sol\":19233:19237  true */\n      0x01\n        /* \"contracts/Pool/PoolPig.sol\":19226:19237  return true */\n      swap1\n      pop\n        /* \"contracts/Pool/PoolPig.sol\":18978:19244  function decreaseAllowance(address spender, uint256 subtractedValue) public virtual returns (bool) {... */\n      swap3\n      swap2\n      pop\n      pop\n      jump\t// out\n        /* \"contracts/Pool/PoolPig.sol\":6957:7245  function unlock() public virtual {... */\n    tag_158:\n        /* \"contracts/Pool/PoolPig.sol\":7026:7036  msg.sender */\n      caller\n        /* \"contracts/Pool/PoolPig.sol\":7008:7036  _previousOwner == msg.sender */\n      0xffffffffffffffffffffffffffffffffffffffff\n      and\n        /* \"contracts/Pool/PoolPig.sol\":7008:7022  _previousOwner */\n      0x01\n      0x00\n      swap1\n      sload\n      swap1\n      0x0100\n      exp\n      swap1\n      div\n      0xffffffffffffffffffffffffffffffffffffffff\n      and\n        /* \"contracts/Pool/PoolPig.sol\":7008:7036  _previousOwner == msg.sender */\n      0xffffffffffffffffffffffffffffffffffffffff\n      and\n      eq\n        /* \"contracts/Pool/PoolPig.sol\":7000:7076  require(_previousOwner == msg.sender, \"You don't have permission to unlock\") */\n      tag_294\n      jumpi\n      mload(0x40)\n      0x08c379a000000000000000000000000000000000000000000000000000000000\n      dup2\n      mstore\n      0x04\n      add\n      dup1\n      dup1\n      0x20\n      add\n      dup3\n      dup2\n      sub\n      dup3\n      mstore\n      0x23\n      dup2\n      mstore\n      0x20\n      add\n      dup1\n      data_f4eb59be3df39931213d374c3658377dca3f0d2b46b7bc965af767c57c74b611\n      0x23\n      swap2\n      codecopy\n      0x40\n      add\n      swap2\n      pop\n      pop\n      mload(0x40)\n      dup1\n      swap2\n      sub\n      swap1\n      revert\n    tag_294:\n        /* \"contracts/Pool/PoolPig.sol\":7100:7109  _lockTime */\n      sload(0x02)\n        /* \"contracts/Pool/PoolPig.sol\":7094:7097  now */\n      timestamp\n        /* \"contracts/Pool/PoolPig.sol\":7094:7109  now > _lockTime */\n      gt\n        /* \"contracts/Pool/PoolPig.sol\":7086:7146  require(now > _lockTime , \"Contract is locked until 7 days\") */\n      tag_295\n      jumpi\n      mload(0x40)\n      0x08c379a000000000000000000000000000000000000000000000000000000000\n      dup2\n      mstore\n      0x04\n      add\n      dup1\n      dup1\n      0x20\n      add\n      dup3\n      dup2\n      sub\n      dup3\n      mstore\n      0x1f\n      dup2\n      mstore\n      0x20\n      add\n      dup1\n      0x436f6e7472616374206973206c6f636b656420756e74696c2037206461797300\n      dup2\n      mstore\n      pop\n      0x20\n      add\n      swap2\n      pop\n      pop\n      mload(0x40)\n      dup1\n      swap2\n      sub\n      swap1\n      revert\n    tag_295:\n        /* \"contracts/Pool/PoolPig.sol\":7190:7204  _previousOwner */\n      0x01\n      0x00\n      swap1\n      sload\n      swap1\n      0x0100\n      exp\n      swap1\n      div\n      0xffffffffffffffffffffffffffffffffffffffff\n      and\n        /* \"contracts/Pool/PoolPig.sol\":7161:7205  OwnershipTransferred(_owner, _previousOwner) */\n      0xffffffffffffffffffffffffffffffffffffffff\n      and\n        /* \"contracts/Pool/PoolPig.sol\":7182:7188  _owner */\n      0x00\n      dup1\n      sload\n      swap1\n      0x0100\n      exp\n      swap1\n      div\n      0xffffffffffffffffffffffffffffffffffffffff\n      and\n        /* \"contracts/Pool/PoolPig.sol\":7161:7205  OwnershipTransferred(_owner, _previousOwner) */\n      0xffffffffffffffffffffffffffffffffffffffff\n      and\n      0x8be0079c531659141344cd1fd0a4f28419497f9722a3daafe3b4186f6b6457e0\n      mload(0x40)\n      mload(0x40)\n      dup1\n      swap2\n      sub\n      swap1\n      log3\n        /* \"contracts/Pool/PoolPig.sol\":7224:7238  _previousOwner */\n      0x01\n      0x00\n      swap1\n      sload\n      swap1\n      0x0100\n      exp\n      swap1\n      div\n      0xffffffffffffffffffffffffffffffffffffffff\n      and\n        /* \"contracts/Pool/PoolPig.sol\":7215:7221  _owner */\n      0x00\n      dup1\n        /* \"contracts/Pool/PoolPig.sol\":7215:7238  _owner = _previousOwner */\n      0x0100\n      exp\n      dup2\n      sload\n      dup2\n      0xffffffffffffffffffffffffffffffffffffffff\n      mul\n      not\n      and\n      swap1\n      dup4\n      0xffffffffffffffffffffffffffffffffffffffff\n      and\n      mul\n      or\n      swap1\n      sstore\n      pop\n        /* \"contracts/Pool/PoolPig.sol\":6957:7245  function unlock() public virtual {... */\n      jump\t// out\n        /* \"contracts/Pool/PoolPig.sol\":17961:18125  function transfer(address recipient, uint256 amount) public override returns (bool) {... */\n    tag_162:\n        /* \"contracts/Pool/PoolPig.sol\":18039:18043  bool */\n      0x00\n        /* \"contracts/Pool/PoolPig.sol\":18055:18097  _transfer(_msgSender(), recipient, amount) */\n      tag_297\n        /* \"contracts/Pool/PoolPig.sol\":18065:18077  _msgSender() */\n      tag_298\n        /* \"contracts/Pool/PoolPig.sol\":18065:18075  _msgSender */\n      tag_192\n        /* \"contracts/Pool/PoolPig.sol\":18065:18077  _msgSender() */\n      jump\t// in\n    tag_298:\n        /* \"contracts/Pool/PoolPig.sol\":18079:18088  recipient */\n      dup5\n        /* \"contracts/Pool/PoolPig.sol\":18090:18096  amount */\n      dup5\n        /* \"contracts/Pool/PoolPig.sol\":18055:18064  _transfer */\n      tag_207\n        /* \"contracts/Pool/PoolPig.sol\":18055:18097  _transfer(_msgSender(), recipient, amount) */\n      jump\t// in\n    tag_297:\n        /* \"contracts/Pool/PoolPig.sol\":18114:18118  true */\n      0x01\n        /* \"contracts/Pool/PoolPig.sol\":18107:18118  return true */\n      swap1\n      pop\n        /* \"contracts/Pool/PoolPig.sol\":17961:18125  function transfer(address recipient, uint256 amount) public override returns (bool) {... */\n      swap3\n      swap2\n      pop\n      pop\n      jump\t// out\n        /* \"contracts/Pool/PoolPig.sol\":6515:6602  function geUnlockTime() public view returns (uint256) {... */\n    tag_165:\n        /* \"contracts/Pool/PoolPig.sol\":6560:6567  uint256 */\n      0x00\n        /* \"contracts/Pool/PoolPig.sol\":6586:6595  _lockTime */\n      sload(0x02)\n        /* \"contracts/Pool/PoolPig.sol\":6579:6595  return _lockTime */\n      swap1\n      pop\n        /* \"contracts/Pool/PoolPig.sol\":6515:6602  function geUnlockTime() public view returns (uint256) {... */\n      swap1\n      jump\t// out\n        /* \"contracts/Pool/PoolPig.sol\":22734:22902  function setSwapAndLiquifyEnabled(bool _enabled) public onlyOwner {... */\n    tag_169:\n        /* \"contracts/Pool/PoolPig.sol\":6045:6057  _msgSender() */\n      tag_301\n        /* \"contracts/Pool/PoolPig.sol\":6045:6055  _msgSender */\n      tag_192\n        /* \"contracts/Pool/PoolPig.sol\":6045:6057  _msgSender() */\n      jump\t// in\n    tag_301:\n        /* \"contracts/Pool/PoolPig.sol\":6035:6057  _owner == _msgSender() */\n      0xffffffffffffffffffffffffffffffffffffffff\n      and\n        /* \"contracts/Pool/PoolPig.sol\":6035:6041  _owner */\n      0x00\n      dup1\n      sload\n      swap1\n      0x0100\n      exp\n      swap1\n      div\n      0xffffffffffffffffffffffffffffffffffffffff\n      and\n        /* \"contracts/Pool/PoolPig.sol\":6035:6057  _owner == _msgSender() */\n      0xffffffffffffffffffffffffffffffffffffffff\n      and\n      eq\n        /* \"contracts/Pool/PoolPig.sol\":6027:6094  require(_owner == _msgSender(), \"Ownable: caller is not the owner\") */\n      tag_302\n      jumpi\n      mload(0x40)\n      0x08c379a000000000000000000000000000000000000000000000000000000000\n      dup2\n      mstore\n      0x04\n      add\n      dup1\n      dup1\n      0x20\n      add\n      dup3\n      dup2\n      sub\n      dup3\n      mstore\n      0x20\n      dup2\n      mstore\n      0x20\n      add\n      dup1\n      0x4f776e61626c653a2063616c6c6572206973206e6f7420746865206f776e6572\n      dup2\n      mstore\n      pop\n      0x20\n      add\n      swap2\n      pop\n      pop\n      mload(0x40)\n      dup1\n      swap2\n      sub\n      swap1\n      revert\n    tag_302:\n        /* \"contracts/Pool/PoolPig.sol\":22834:22842  _enabled */\n      dup1\n        /* \"contracts/Pool/PoolPig.sol\":22810:22831  swapAndLiquifyEnabled */\n      0x12\n      0x01\n        /* \"contracts/Pool/PoolPig.sol\":22810:22842  swapAndLiquifyEnabled = _enabled */\n      0x0100\n      exp\n      dup2\n      sload\n      dup2\n      0xff\n      mul\n      not\n      and\n      swap1\n      dup4\n      iszero\n      iszero\n      mul\n      or\n      swap1\n      sstore\n      pop\n        /* \"contracts/Pool/PoolPig.sol\":22857:22895  SwapAndLiquifyEnabledUpdated(_enabled) */\n      0x53726dfcaf90650aa7eb35524f4d3220f07413c8d6cb404cc8c18bf5591bc159\n        /* \"contracts/Pool/PoolPig.sol\":22886:22894  _enabled */\n      dup2\n        /* \"contracts/Pool/PoolPig.sol\":22857:22895  SwapAndLiquifyEnabledUpdated(_enabled) */\n      mload(0x40)\n      dup1\n      dup3\n      iszero\n      iszero\n      dup2\n      mstore\n      0x20\n      add\n      swap2\n      pop\n      pop\n      mload(0x40)\n      dup1\n      swap2\n      sub\n      swap1\n      log1\n        /* \"contracts/Pool/PoolPig.sol\":22734:22902  function setSwapAndLiquifyEnabled(bool _enabled) public onlyOwner {... */\n      pop\n      jump\t// out\n        /* \"contracts/Pool/PoolPig.sol\":22570:22728  function setMaxTxPercent(uint256 maxTxPercent) external onlyOwner() {... */\n    tag_173:\n        /* \"contracts/Pool/PoolPig.sol\":6045:6057  _msgSender() */\n      tag_305\n        /* \"contracts/Pool/PoolPig.sol\":6045:6055  _msgSender */\n      tag_192\n        /* \"contracts/Pool/PoolPig.sol\":6045:6057  _msgSender() */\n      jump\t// in\n    tag_305:\n        /* \"contracts/Pool/PoolPig.sol\":6035:6057  _owner == _msgSender() */\n      0xffffffffffffffffffffffffffffffffffffffff\n      and\n        /* \"contracts/Pool/PoolPig.sol\":6035:6041  _owner */\n      0x00\n      dup1\n      sload\n      swap1\n      0x0100\n      exp\n      swap1\n      div\n      0xffffffffffffffffffffffffffffffffffffffff\n      and\n        /* \"contracts/Pool/PoolPig.sol\":6035:6057  _owner == _msgSender() */\n      0xffffffffffffffffffffffffffffffffffffffff\n      and\n      eq\n        /* \"contracts/Pool/PoolPig.sol\":6027:6094  require(_owner == _msgSender(), \"Ownable: caller is not the owner\") */\n      tag_306\n      jumpi\n      mload(0x40)\n      0x08c379a000000000000000000000000000000000000000000000000000000000\n      dup2\n      mstore\n      0x04\n      add\n      dup1\n      dup1\n      0x20\n      add\n      dup3\n      dup2\n      sub\n      dup3\n      mstore\n      0x20\n      dup2\n      mstore\n      0x20\n      add\n      dup1\n      0x4f776e61626c653a2063616c6c6572206973206e6f7420746865206f776e6572\n      dup2\n      mstore\n      pop\n      0x20\n      add\n      swap2\n      pop\n      pop\n      mload(0x40)\n      dup1\n      swap2\n      sub\n      swap1\n      revert\n    tag_306:\n        /* \"contracts/Pool/PoolPig.sol\":22663:22721  _tTotal.mul(maxTxPercent).div(... */\n      tag_308\n        /* \"contracts/Pool/PoolPig.sol\":22706:22711  10**2 */\n      0x64\n        /* \"contracts/Pool/PoolPig.sol\":22663:22688  _tTotal.mul(maxTxPercent) */\n      tag_309\n        /* \"contracts/Pool/PoolPig.sol\":22675:22687  maxTxPercent */\n      dup4\n        /* \"contracts/Pool/PoolPig.sol\":15652:15670  1000000000 * 10**9 */\n      0x0de0b6b3a7640000\n        /* \"contracts/Pool/PoolPig.sol\":22663:22674  _tTotal.mul */\n      tag_310\n      swap1\n        /* \"contracts/Pool/PoolPig.sol\":22663:22688  _tTotal.mul(maxTxPercent) */\n      swap2\n      swap1\n      0xffffffff\n      and\n      jump\t// in\n    tag_309:\n        /* \"contracts/Pool/PoolPig.sol\":22663:22692  _tTotal.mul(maxTxPercent).div */\n      tag_218\n      swap1\n        /* \"contracts/Pool/PoolPig.sol\":22663:22721  _tTotal.mul(maxTxPercent).div(... */\n      swap2\n      swap1\n      0xffffffff\n      and\n      jump\t// in\n    tag_308:\n        /* \"contracts/Pool/PoolPig.sol\":22648:22660  _maxTxAmount */\n      0x13\n        /* \"contracts/Pool/PoolPig.sol\":22648:22721  _maxTxAmount = _tTotal.mul(maxTxPercent).div(... */\n      dup2\n      swap1\n      sstore\n      pop\n        /* \"contracts/Pool/PoolPig.sol\":22570:22728  function setMaxTxPercent(uint256 maxTxPercent) external onlyOwner() {... */\n      pop\n      jump\t// out\n        /* \"contracts/Pool/PoolPig.sol\":6675:6884  function lock(uint256 time) public virtual onlyOwner {... */\n    tag_177:\n        /* \"contracts/Pool/PoolPig.sol\":6045:6057  _msgSender() */\n      tag_312\n        /* \"contracts/Pool/PoolPig.sol\":6045:6055  _msgSender */\n      tag_192\n        /* \"contracts/Pool/PoolPig.sol\":6045:6057  _msgSender() */\n      jump\t// in\n    tag_312:\n        /* \"contracts/Pool/PoolPig.sol\":6035:6057  _owner == _msgSender() */\n      0xffffffffffffffffffffffffffffffffffffffff\n      and\n        /* \"contracts/Pool/PoolPig.sol\":6035:6041  _owner */\n      0x00\n      dup1\n      sload\n      swap1\n      0x0100\n      exp\n      swap1\n      div\n      0xffffffffffffffffffffffffffffffffffffffff\n      and\n        /* \"contracts/Pool/PoolPig.sol\":6035:6057  _owner == _msgSender() */\n      0xffffffffffffffffffffffffffffffffffffffff\n      and\n      eq\n        /* \"contracts/Pool/PoolPig.sol\":6027:6094  require(_owner == _msgSender(), \"Ownable: caller is not the owner\") */\n      tag_313\n      jumpi\n      mload(0x40)\n      0x08c379a000000000000000000000000000000000000000000000000000000000\n      dup2\n      mstore\n      0x04\n      add\n      dup1\n      dup1\n      0x20\n      add\n      dup3\n      dup2\n      sub\n      dup3\n      mstore\n      0x20\n      dup2\n      mstore\n      0x20\n      add\n      dup1\n      0x4f776e61626c653a2063616c6c6572206973206e6f7420746865206f776e6572\n      dup2\n      mstore\n      pop\n      0x20\n      add\n      swap2\n      pop\n      pop\n      mload(0x40)\n      dup1\n      swap2\n      sub\n      swap1\n      revert\n    tag_313:\n        /* \"contracts/Pool/PoolPig.sol\":6755:6761  _owner */\n      0x00\n      dup1\n      sload\n      swap1\n      0x0100\n      exp\n      swap1\n      div\n      0xffffffffffffffffffffffffffffffffffffffff\n      and\n        /* \"contracts/Pool/PoolPig.sol\":6738:6752  _previousOwner */\n      0x01\n      0x00\n        /* \"contracts/Pool/PoolPig.sol\":6738:6761  _previousOwner = _owner */\n      0x0100\n      exp\n      dup2\n      sload\n      dup2\n      0xffffffffffffffffffffffffffffffffffffffff\n      mul\n      not\n      and\n      swap1\n      dup4\n      0xffffffffffffffffffffffffffffffffffffffff\n      and\n      mul\n      or\n      swap1\n      sstore\n      pop\n        /* \"contracts/Pool/PoolPig.sol\":6788:6789  0 */\n      0x00\n        /* \"contracts/Pool/PoolPig.sol\":6771:6777  _owner */\n      dup1\n      0x00\n        /* \"contracts/Pool/PoolPig.sol\":6771:6790  _owner = address(0) */\n      0x0100\n      exp\n      dup2\n      sload\n      dup2\n      0xffffffffffffffffffffffffffffffffffffffff\n      mul\n      not\n      and\n      swap1\n      dup4\n      0xffffffffffffffffffffffffffffffffffffffff\n      and\n      mul\n      or\n      swap1\n      sstore\n      pop\n        /* \"contracts/Pool/PoolPig.sol\":6818:6822  time */\n      dup1\n        /* \"contracts/Pool/PoolPig.sol\":6812:6815  now */\n      timestamp\n        /* \"contracts/Pool/PoolPig.sol\":6812:6822  now + time */\n      add\n        /* \"contracts/Pool/PoolPig.sol\":6800:6809  _lockTime */\n      0x02\n        /* \"contracts/Pool/PoolPig.sol\":6800:6822  _lockTime = now + time */\n      dup2\n      swap1\n      sstore\n      pop\n        /* \"contracts/Pool/PoolPig.sol\":6874:6875  0 */\n      0x00\n        /* \"contracts/Pool/PoolPig.sol\":6837:6877  OwnershipTransferred(_owner, address(0)) */\n      0xffffffffffffffffffffffffffffffffffffffff\n      and\n        /* \"contracts/Pool/PoolPig.sol\":6858:6864  _owner */\n      0x00\n      dup1\n      sload\n      swap1\n      0x0100\n      exp\n      swap1\n      div\n      0xffffffffffffffffffffffffffffffffffffffff\n      and\n        /* \"contracts/Pool/PoolPig.sol\":6837:6877  OwnershipTransferred(_owner, address(0)) */\n      0xffffffffffffffffffffffffffffffffffffffff\n      and\n      0x8be0079c531659141344cd1fd0a4f28419497f9722a3daafe3b4186f6b6457e0\n      mload(0x40)\n      mload(0x40)\n      dup1\n      swap2\n      sub\n      swap1\n      log3\n        /* \"contracts/Pool/PoolPig.sol\":6675:6884  function lock(uint256 time) public virtual onlyOwner {... */\n      pop\n      jump\t// out\n        /* \"contracts/Pool/PoolPig.sol\":18131:18272  function allowance(address owner, address spender) public view override returns (uint256) {... */\n    tag_181:\n        /* \"contracts/Pool/PoolPig.sol\":18212:18219  uint256 */\n      0x00\n        /* \"contracts/Pool/PoolPig.sol\":18238:18249  _allowances */\n      0x05\n        /* \"contracts/Pool/PoolPig.sol\":18238:18256  _allowances[owner] */\n      0x00\n        /* \"contracts/Pool/PoolPig.sol\":18250:18255  owner */\n      dup5\n        /* \"contracts/Pool/PoolPig.sol\":18238:18256  _allowances[owner] */\n      0xffffffffffffffffffffffffffffffffffffffff\n      and\n      0xffffffffffffffffffffffffffffffffffffffff\n      and\n      dup2\n      mstore\n      0x20\n      add\n      swap1\n      dup2\n      mstore\n      0x20\n      add\n      0x00\n      keccak256\n        /* \"contracts/Pool/PoolPig.sol\":18238:18265  _allowances[owner][spender] */\n      0x00\n        /* \"contracts/Pool/PoolPig.sol\":18257:18264  spender */\n      dup4\n        /* \"contracts/Pool/PoolPig.sol\":18238:18265  _allowances[owner][spender] */\n      0xffffffffffffffffffffffffffffffffffffffff\n      and\n      0xffffffffffffffffffffffffffffffffffffffff\n      and\n      dup2\n      mstore\n      0x20\n      add\n      swap1\n      dup2\n      mstore\n      0x20\n      add\n      0x00\n      keccak256\n      sload\n        /* \"contracts/Pool/PoolPig.sol\":18231:18265  return _allowances[owner][spender] */\n      swap1\n      pop\n        /* \"contracts/Pool/PoolPig.sol\":18131:18272  function allowance(address owner, address spender) public view override returns (uint256) {... */\n      swap3\n      swap2\n      pop\n      pop\n      jump\t// out\n        /* \"contracts/Pool/PoolPig.sol\":22217:22325  function includeInFee(address account) public onlyOwner {... */\n    tag_185:\n        /* \"contracts/Pool/PoolPig.sol\":6045:6057  _msgSender() */\n      tag_317\n        /* \"contracts/Pool/PoolPig.sol\":6045:6055  _msgSender */\n      tag_192\n        /* \"contracts/Pool/PoolPig.sol\":6045:6057  _msgSender() */\n      jump\t// in\n    tag_317:\n        /* \"contracts/Pool/PoolPig.sol\":6035:6057  _owner == _msgSender() */\n      0xffffffffffffffffffffffffffffffffffffffff\n      and\n        /* \"contracts/Pool/PoolPig.sol\":6035:6041  _owner */\n      0x00\n      dup1\n      sload\n      swap1\n      0x0100\n      exp\n      swap1\n      div\n      0xffffffffffffffffffffffffffffffffffffffff\n      and\n        /* \"contracts/Pool/PoolPig.sol\":6035:6057  _owner == _msgSender() */\n      0xffffffffffffffffffffffffffffffffffffffff\n      and\n      eq\n        /* \"contracts/Pool/PoolPig.sol\":6027:6094  require(_owner == _msgSender(), \"Ownable: caller is not the owner\") */\n      tag_318\n      jumpi\n      mload(0x40)\n      0x08c379a000000000000000000000000000000000000000000000000000000000\n      dup2\n      mstore\n      0x04\n      add\n      dup1\n      dup1\n      0x20\n      add\n      dup3\n      dup2\n      sub\n      dup3\n      mstore\n      0x20\n      dup2\n      mstore\n      0x20\n      add\n      dup1\n      0x4f776e61626c653a2063616c6c6572206973206e6f7420746865206f776e6572\n      dup2\n      mstore\n      pop\n      0x20\n      add\n      swap2\n      pop\n      pop\n      mload(0x40)\n      dup1\n      swap2\n      sub\n      swap1\n      revert\n    tag_318:\n        /* \"contracts/Pool/PoolPig.sol\":22313:22318  false */\n      0x00\n        /* \"contracts/Pool/PoolPig.sol\":22283:22301  _isExcludedFromFee */\n      0x06\n        /* \"contracts/Pool/PoolPig.sol\":22283:22310  _isExcludedFromFee[account] */\n      0x00\n        /* \"contracts/Pool/PoolPig.sol\":22302:22309  account */\n      dup4\n        /* \"contracts/Pool/PoolPig.sol\":22283:22310  _isExcludedFromFee[account] */\n      0xffffffffffffffffffffffffffffffffffffffff\n      and\n      0xffffffffffffffffffffffffffffffffffffffff\n      and\n      dup2\n      mstore\n      0x20\n      add\n      swap1\n      dup2\n      mstore\n      0x20\n      add\n      0x00\n      keccak256\n      0x00\n        /* \"contracts/Pool/PoolPig.sol\":22283:22318  _isExcludedFromFee[account] = false */\n      0x0100\n      exp\n      dup2\n      sload\n      dup2\n      0xff\n      mul\n      not\n      and\n      swap1\n      dup4\n      iszero\n      iszero\n      mul\n      or\n      swap1\n      sstore\n      pop\n        /* \"contracts/Pool/PoolPig.sol\":22217:22325  function includeInFee(address account) public onlyOwner {... */\n      pop\n      jump\t// out\n        /* \"contracts/Pool/PoolPig.sol\":6269:6509  function transferOwnership(address newOwner) public virtual onlyOwner {... */\n    tag_189:\n        /* \"contracts/Pool/PoolPig.sol\":6045:6057  _msgSender() */\n      tag_321\n        /* \"contracts/Pool/PoolPig.sol\":6045:6055  _msgSender */\n      tag_192\n        /* \"contracts/Pool/PoolPig.sol\":6045:6057  _msgSender() */\n      jump\t// in\n    tag_321:\n        /* \"contracts/Pool/PoolPig.sol\":6035:6057  _owner == _msgSender() */\n      0xffffffffffffffffffffffffffffffffffffffff\n      and\n        /* \"contracts/Pool/PoolPig.sol\":6035:6041  _owner */\n      0x00\n      dup1\n      sload\n      swap1\n      0x0100\n      exp\n      swap1\n      div\n      0xffffffffffffffffffffffffffffffffffffffff\n      and\n        /* \"contracts/Pool/PoolPig.sol\":6035:6057  _owner == _msgSender() */\n      0xffffffffffffffffffffffffffffffffffffffff\n      and\n      eq\n        /* \"contracts/Pool/PoolPig.sol\":6027:6094  require(_owner == _msgSender(), \"Ownable: caller is not the owner\") */\n      tag_322\n      jumpi\n      mload(0x40)\n      0x08c379a000000000000000000000000000000000000000000000000000000000\n      dup2\n      mstore\n      0x04\n      add\n      dup1\n      dup1\n      0x20\n      add\n      dup3\n      dup2\n      sub\n      dup3\n      mstore\n      0x20\n      dup2\n      mstore\n      0x20\n      add\n      dup1\n      0x4f776e61626c653a2063616c6c6572206973206e6f7420746865206f776e6572\n      dup2\n      mstore\n      pop\n      0x20\n      add\n      swap2\n      pop\n      pop\n      mload(0x40)\n      dup1\n      swap2\n      sub\n      swap1\n      revert\n    tag_322:\n        /* \"contracts/Pool/PoolPig.sol\":6377:6378  0 */\n      0x00\n        /* \"contracts/Pool/PoolPig.sol\":6357:6379  newOwner != address(0) */\n      0xffffffffffffffffffffffffffffffffffffffff\n      and\n        /* \"contracts/Pool/PoolPig.sol\":6357:6365  newOwner */\n      dup2\n        /* \"contracts/Pool/PoolPig.sol\":6357:6379  newOwner != address(0) */\n      0xffffffffffffffffffffffffffffffffffffffff\n      and\n      eq\n      iszero\n        /* \"contracts/Pool/PoolPig.sol\":6349:6422  require(newOwner != address(0), \"Ownable: new owner is the zero address\") */\n      tag_324\n      jumpi\n      mload(0x40)\n      0x08c379a000000000000000000000000000000000000000000000000000000000\n      dup2\n      mstore\n      0x04\n      add\n      dup1\n      dup1\n      0x20\n      add\n      dup3\n      dup2\n      sub\n      dup3\n      mstore\n      0x26\n      dup2\n      mstore\n      0x20\n      add\n      dup1\n      data_245f15ff17f551913a7a18385165551503906a406f905ac1c2437281a7cd0cfe\n      0x26\n      swap2\n      codecopy\n      0x40\n      add\n      swap2\n      pop\n      pop\n      mload(0x40)\n      dup1\n      swap2\n      sub\n      swap1\n      revert\n    tag_324:\n        /* \"contracts/Pool/PoolPig.sol\":6466:6474  newOwner */\n      dup1\n        /* \"contracts/Pool/PoolPig.sol\":6437:6475  OwnershipTransferred(_owner, newOwner) */\n      0xffffffffffffffffffffffffffffffffffffffff\n      and\n        /* \"contracts/Pool/PoolPig.sol\":6458:6464  _owner */\n      0x00\n      dup1\n      sload\n      swap1\n      0x0100\n      exp\n      swap1\n      div\n      0xffffffffffffffffffffffffffffffffffffffff\n      and\n        /* \"contracts/Pool/PoolPig.sol\":6437:6475  OwnershipTransferred(_owner, newOwner) */\n      0xffffffffffffffffffffffffffffffffffffffff\n      and\n      0x8be0079c531659141344cd1fd0a4f28419497f9722a3daafe3b4186f6b6457e0\n      mload(0x40)\n      mload(0x40)\n      dup1\n      swap2\n      sub\n      swap1\n      log3\n        /* \"contracts/Pool/PoolPig.sol\":6494:6502  newOwner */\n      dup1\n        /* \"contracts/Pool/PoolPig.sol\":6485:6491  _owner */\n      0x00\n      dup1\n        /* \"contracts/Pool/PoolPig.sol\":6485:6502  _owner = newOwner */\n      0x0100\n      exp\n      dup2\n      sload\n      dup2\n      0xffffffffffffffffffffffffffffffffffffffff\n      mul\n      not\n      and\n      swap1\n      dup4\n      0xffffffffffffffffffffffffffffffffffffffff\n      and\n      mul\n      or\n      swap1\n      sstore\n      pop\n        /* \"contracts/Pool/PoolPig.sol\":6269:6509  function transferOwnership(address newOwner) public virtual onlyOwner {... */\n      pop\n      jump\t// out\n        /* \"contracts/Pool/PoolPig.sol\":2255:2359  function _msgSender() internal view virtual returns (address payable) {... */\n    tag_192:\n        /* \"contracts/Pool/PoolPig.sol\":2308:2323  address payable */\n      0x00\n        /* \"contracts/Pool/PoolPig.sol\":2342:2352  msg.sender */\n      caller\n        /* \"contracts/Pool/PoolPig.sol\":2335:2352  return msg.sender */\n      swap1\n      pop\n        /* \"contracts/Pool/PoolPig.sol\":2255:2359  function _msgSender() internal view virtual returns (address payable) {... */\n      swap1\n      jump\t// out\n        /* \"contracts/Pool/PoolPig.sol\":26259:26590  function _approve(address owner, address spender, uint256 amount) private {... */\n    tag_202:\n        /* \"contracts/Pool/PoolPig.sol\":26368:26369  0 */\n      0x00\n        /* \"contracts/Pool/PoolPig.sol\":26351:26370  owner != address(0) */\n      0xffffffffffffffffffffffffffffffffffffffff\n      and\n        /* \"contracts/Pool/PoolPig.sol\":26351:26356  owner */\n      dup4\n        /* \"contracts/Pool/PoolPig.sol\":26351:26370  owner != address(0) */\n      0xffffffffffffffffffffffffffffffffffffffff\n      and\n      eq\n      iszero\n        /* \"contracts/Pool/PoolPig.sol\":26343:26411  require(owner != address(0), \"ERC20: approve from the zero address\") */\n      tag_327\n      jumpi\n      mload(0x40)\n      0x08c379a000000000000000000000000000000000000000000000000000000000\n      dup2\n      mstore\n      0x04\n      add\n      dup1\n      dup1\n      0x20\n      add\n      dup3\n      dup2\n      sub\n      dup3\n      mstore\n      0x24\n      dup2\n      mstore\n      0x20\n      add\n      dup1\n      data_c953f4879035ed60e766b34720f656aab5c697b141d924c283124ecedb91c208\n      0x24\n      swap2\n      codecopy\n      0x40\n      add\n      swap2\n      pop\n      pop\n      mload(0x40)\n      dup1\n      swap2\n      sub\n      swap1\n      revert\n    tag_327:\n        /* \"contracts/Pool/PoolPig.sol\":26448:26449  0 */\n      0x00\n        /* \"contracts/Pool/PoolPig.sol\":26429:26450  spender != address(0) */\n      0xffffffffffffffffffffffffffffffffffffffff\n      and\n        /* \"contracts/Pool/PoolPig.sol\":26429:26436  spender */\n      dup3\n        /* \"contracts/Pool/PoolPig.sol\":26429:26450  spender != address(0) */\n      0xffffffffffffffffffffffffffffffffffffffff\n      and\n      eq\n      iszero\n        /* \"contracts/Pool/PoolPig.sol\":26421:26489  require(spender != address(0), \"ERC20: approve to the zero address\") */\n      tag_328\n      jumpi\n      mload(0x40)\n      0x08c379a000000000000000000000000000000000000000000000000000000000\n      dup2\n      mstore\n      0x04\n      add\n      dup1\n      dup1\n      0x20\n      add\n      dup3\n      dup2\n      sub\n      dup3\n      mstore\n      0x22\n      dup2\n      mstore\n      0x20\n      add\n      dup1\n      data_24883cc5fe64ace9d0df1893501ecb93c77180f0ff69cca79affb3c316dc8029\n      0x22\n      swap2\n      codecopy\n      0x40\n      add\n      swap2\n      pop\n      pop\n      mload(0x40)\n      dup1\n      swap2\n      sub\n      swap1\n      revert\n    tag_328:\n        /* \"contracts/Pool/PoolPig.sol\":26530:26536  amount */\n      dup1\n        /* \"contracts/Pool/PoolPig.sol\":26500:26511  _allowances */\n      0x05\n        /* \"contracts/Pool/PoolPig.sol\":26500:26518  _allowances[owner] */\n      0x00\n        /* \"contracts/Pool/PoolPig.sol\":26512:26517  owner */\n      dup6\n        /* \"contracts/Pool/PoolPig.sol\":26500:26518  _allowances[owner] */\n      0xffffffffffffffffffffffffffffffffffffffff\n      and\n      0xffffffffffffffffffffffffffffffffffffffff\n      and\n      dup2\n      mstore\n      0x20\n      add\n      swap1\n      dup2\n      mstore\n      0x20\n      add\n      0x00\n      keccak256\n        /* \"contracts/Pool/PoolPig.sol\":26500:26527  _allowances[owner][spender] */\n      0x00\n        /* \"contracts/Pool/PoolPig.sol\":26519:26526  spender */\n      dup5\n        /* \"contracts/Pool/PoolPig.sol\":26500:26527  _allowances[owner][spender] */\n      0xffffffffffffffffffffffffffffffffffffffff\n      and\n      0xffffffffffffffffffffffffffffffffffffffff\n      and\n      dup2\n      mstore\n      0x20\n      add\n      swap1\n      dup2\n      mstore\n      0x20\n      add\n      0x00\n      keccak256\n        /* \"contracts/Pool/PoolPig.sol\":26500:26536  _allowances[owner][spender] = amount */\n      dup2\n      swap1\n      sstore\n      pop\n        /* \"contracts/Pool/PoolPig.sol\":26567:26574  spender */\n      dup2\n        /* \"contracts/Pool/PoolPig.sol\":26551:26583  Approval(owner, spender, amount) */\n      0xffffffffffffffffffffffffffffffffffffffff\n      and\n        /* \"contracts/Pool/PoolPig.sol\":26560:26565  owner */\n      dup4\n        /* \"contracts/Pool/PoolPig.sol\":26551:26583  Approval(owner, spender, amount) */\n      0xffffffffffffffffffffffffffffffffffffffff\n      and\n      0x8c5be1e5ebec7d5bd14f71427d1e84f3dd0314c0f7b2291e5b200ac8c7c3b925\n        /* \"contracts/Pool/PoolPig.sol\":26576:26582  amount */\n      dup4\n        /* \"contracts/Pool/PoolPig.sol\":26551:26583  Approval(owner, spender, amount) */\n      mload(0x40)\n      dup1\n      dup3\n      dup2\n      mstore\n      0x20\n      add\n      swap2\n      pop\n      pop\n      mload(0x40)\n      dup1\n      swap2\n      sub\n      swap1\n      log3\n        /* \"contracts/Pool/PoolPig.sol\":26259:26590  function _approve(address owner, address spender, uint256 amount) private {... */\n      pop\n      pop\n      pop\n      jump\t// out\n        /* \"contracts/Pool/PoolPig.sol\":26596:28087  function _transfer(... */\n    tag_207:\n        /* \"contracts/Pool/PoolPig.sol\":26729:26730  0 */\n      0x00\n        /* \"contracts/Pool/PoolPig.sol\":26713:26731  from != address(0) */\n      0xffffffffffffffffffffffffffffffffffffffff\n      and\n        /* \"contracts/Pool/PoolPig.sol\":26713:26717  from */\n      dup4\n        /* \"contracts/Pool/PoolPig.sol\":26713:26731  from != address(0) */\n      0xffffffffffffffffffffffffffffffffffffffff\n      and\n      eq\n      iszero\n        /* \"contracts/Pool/PoolPig.sol\":26705:26773  require(from != address(0), \"ERC20: transfer from the zero address\") */\n      tag_330\n      jumpi\n      mload(0x40)\n      0x08c379a000000000000000000000000000000000000000000000000000000000\n      dup2\n      mstore\n      0x04\n      add\n      dup1\n      dup1\n      0x20\n      add\n      dup3\n      dup2\n      sub\n      dup3\n      mstore\n      0x25\n      dup2\n      mstore\n      0x20\n      add\n      dup1\n      data_baecc556b46f4ed0f2b4cb599d60785ac8563dd2dc0a5bf12edea1c39e5e1fea\n      0x25\n      swap2\n      codecopy\n      0x40\n      add\n      swap2\n      pop\n      pop\n      mload(0x40)\n      dup1\n      swap2\n      sub\n      swap1\n      revert\n    tag_330:\n        /* \"contracts/Pool/PoolPig.sol\":26805:26806  0 */\n      0x00\n        /* \"contracts/Pool/PoolPig.sol\":26791:26807  to != address(0) */\n      0xffffffffffffffffffffffffffffffffffffffff\n      and\n        /* \"contracts/Pool/PoolPig.sol\":26791:26793  to */\n      dup3\n        /* \"contracts/Pool/PoolPig.sol\":26791:26807  to != address(0) */\n      0xffffffffffffffffffffffffffffffffffffffff\n      and\n      eq\n      iszero\n        /* \"contracts/Pool/PoolPig.sol\":26783:26847  require(to != address(0), \"ERC20: transfer to the zero address\") */\n      tag_331\n      jumpi\n      mload(0x40)\n      0x08c379a000000000000000000000000000000000000000000000000000000000\n      dup2\n      mstore\n      0x04\n      add\n      dup1\n      dup1\n      0x20\n      add\n      dup3\n      dup2\n      sub\n      dup3\n      mstore\n      0x23\n      dup2\n      mstore\n      0x20\n      add\n      dup1\n      data_0557e210f7a69a685100a7e4e3d0a7024c546085cee28910fd17d0b081d9516f\n      0x23\n      swap2\n      codecopy\n      0x40\n      add\n      swap2\n      pop\n      pop\n      mload(0x40)\n      dup1\n      swap2\n      sub\n      swap1\n      revert\n    tag_331:\n        /* \"contracts/Pool/PoolPig.sol\":26874:26875  0 */\n      0x00\n        /* \"contracts/Pool/PoolPig.sol\":26865:26871  amount */\n      dup2\n        /* \"contracts/Pool/PoolPig.sol\":26865:26875  amount > 0 */\n      gt\n        /* \"contracts/Pool/PoolPig.sol\":26857:26921  require(amount > 0, \"Transfer amount must be greater than zero\") */\n      tag_332\n      jumpi\n      mload(0x40)\n      0x08c379a000000000000000000000000000000000000000000000000000000000\n      dup2\n      mstore\n      0x04\n      add\n      dup1\n      dup1\n      0x20\n      add\n      dup3\n      dup2\n      sub\n      dup3\n      mstore\n      0x29\n      dup2\n      mstore\n      0x20\n      add\n      dup1\n      data_9edb5ab58321f35d2386ea65721c9b107daa2c273610fc16d394af2a320ba785\n      0x29\n      swap2\n      codecopy\n      0x40\n      add\n      swap2\n      pop\n      pop\n      mload(0x40)\n      dup1\n      swap2\n      sub\n      swap1\n      revert\n    tag_332:\n        /* \"contracts/Pool/PoolPig.sol\":26942:26949  owner() */\n      tag_333\n        /* \"contracts/Pool/PoolPig.sol\":26942:26947  owner */\n      tag_140\n        /* \"contracts/Pool/PoolPig.sol\":26942:26949  owner() */\n      jump\t// in\n    tag_333:\n        /* \"contracts/Pool/PoolPig.sol\":26934:26949  from != owner() */\n      0xffffffffffffffffffffffffffffffffffffffff\n      and\n        /* \"contracts/Pool/PoolPig.sol\":26934:26938  from */\n      dup4\n        /* \"contracts/Pool/PoolPig.sol\":26934:26949  from != owner() */\n      0xffffffffffffffffffffffffffffffffffffffff\n      and\n      eq\n      iszero\n        /* \"contracts/Pool/PoolPig.sol\":26934:26966  from != owner() && to != owner() */\n      dup1\n      iszero\n      tag_334\n      jumpi\n      pop\n        /* \"contracts/Pool/PoolPig.sol\":26959:26966  owner() */\n      tag_335\n        /* \"contracts/Pool/PoolPig.sol\":26959:26964  owner */\n      tag_140\n        /* \"contracts/Pool/PoolPig.sol\":26959:26966  owner() */\n      jump\t// in\n    tag_335:\n        /* \"contracts/Pool/PoolPig.sol\":26953:26966  to != owner() */\n      0xffffffffffffffffffffffffffffffffffffffff\n      and\n        /* \"contracts/Pool/PoolPig.sol\":26953:26955  to */\n      dup3\n        /* \"contracts/Pool/PoolPig.sol\":26953:26966  to != owner() */\n      0xffffffffffffffffffffffffffffffffffffffff\n      and\n      eq\n      iszero\n        /* \"contracts/Pool/PoolPig.sol\":26934:26966  from != owner() && to != owner() */\n    tag_334:\n        /* \"contracts/Pool/PoolPig.sol\":26931:27055  if(from != owner() && to != owner())... */\n      iszero\n      tag_336\n      jumpi\n        /* \"contracts/Pool/PoolPig.sol\":26998:27010  _maxTxAmount */\n      sload(0x13)\n        /* \"contracts/Pool/PoolPig.sol\":26988:26994  amount */\n      dup2\n        /* \"contracts/Pool/PoolPig.sol\":26988:27010  amount <= _maxTxAmount */\n      gt\n      iszero\n        /* \"contracts/Pool/PoolPig.sol\":26980:27055  require(amount <= _maxTxAmount, \"Transfer amount exceeds the maxTxAmount.\") */\n      tag_337\n      jumpi\n      mload(0x40)\n      0x08c379a000000000000000000000000000000000000000000000000000000000\n      dup2\n      mstore\n      0x04\n      add\n      dup1\n      dup1\n      0x20\n      add\n      dup3\n      dup2\n      sub\n      dup3\n      mstore\n      0x28\n      dup2\n      mstore\n      0x20\n      add\n      dup1\n      data_72052210969ce5fd88e52b5e685de9548acef9bb1b6d02e29c1765d0674948dd\n      0x28\n      swap2\n      codecopy\n      0x40\n      add\n      swap2\n      pop\n      pop\n      mload(0x40)\n      dup1\n      swap2\n      sub\n      swap1\n      revert\n    tag_337:\n        /* \"contracts/Pool/PoolPig.sol\":26931:27055  if(from != owner() && to != owner())... */\n    tag_336:\n        /* \"contracts/Pool/PoolPig.sol\":27066:27094  uint256 contractTokenBalance */\n      0x00\n        /* \"contracts/Pool/PoolPig.sol\":27097:27121  balanceOf(address(this)) */\n      tag_338\n        /* \"contracts/Pool/PoolPig.sol\":27115:27119  this */\n      address\n        /* \"contracts/Pool/PoolPig.sol\":27097:27106  balanceOf */\n      tag_127\n        /* \"contracts/Pool/PoolPig.sol\":27097:27121  balanceOf(address(this)) */\n      jump\t// in\n    tag_338:\n        /* \"contracts/Pool/PoolPig.sol\":27066:27121  uint256 contractTokenBalance = balanceOf(address(this)) */\n      swap1\n      pop\n        /* \"contracts/Pool/PoolPig.sol\":27167:27179  _maxTxAmount */\n      sload(0x13)\n        /* \"contracts/Pool/PoolPig.sol\":27143:27163  contractTokenBalance */\n      dup2\n        /* \"contracts/Pool/PoolPig.sol\":27143:27179  contractTokenBalance >= _maxTxAmount */\n      lt\n        /* \"contracts/Pool/PoolPig.sol\":27140:27249  if(contractTokenBalance >= _maxTxAmount)... */\n      tag_339\n      jumpi\n        /* \"contracts/Pool/PoolPig.sol\":27226:27238  _maxTxAmount */\n      sload(0x13)\n        /* \"contracts/Pool/PoolPig.sol\":27203:27238  contractTokenBalance = _maxTxAmount */\n      swap1\n      pop\n        /* \"contracts/Pool/PoolPig.sol\":27140:27249  if(contractTokenBalance >= _maxTxAmount)... */\n    tag_339:\n        /* \"contracts/Pool/PoolPig.sol\":27267:27291  bool overMinTokenBalance */\n      0x00\n        /* \"contracts/Pool/PoolPig.sol\":27318:27347  numTokensSellToAddToLiquidity */\n      sload(0x14)\n        /* \"contracts/Pool/PoolPig.sol\":27294:27314  contractTokenBalance */\n      dup3\n        /* \"contracts/Pool/PoolPig.sol\":27294:27347  contractTokenBalance >= numTokensSellToAddToLiquidity */\n      lt\n      iszero\n        /* \"contracts/Pool/PoolPig.sol\":27267:27347  bool overMinTokenBalance = contractTokenBalance >= numTokensSellToAddToLiquidity */\n      swap1\n      pop\n        /* \"contracts/Pool/PoolPig.sol\":27374:27393  overMinTokenBalance */\n      dup1\n        /* \"contracts/Pool/PoolPig.sol\":27374:27426  overMinTokenBalance &&... */\n      dup1\n      iszero\n      tag_340\n      jumpi\n      pop\n        /* \"contracts/Pool/PoolPig.sol\":27410:27426  inSwapAndLiquify */\n      0x12\n      0x00\n      swap1\n      sload\n      swap1\n      0x0100\n      exp\n      swap1\n      div\n      0xff\n      and\n        /* \"contracts/Pool/PoolPig.sol\":27409:27426  !inSwapAndLiquify */\n      iszero\n        /* \"contracts/Pool/PoolPig.sol\":27374:27426  overMinTokenBalance &&... */\n    tag_340:\n        /* \"contracts/Pool/PoolPig.sol\":27374:27463  overMinTokenBalance &&... */\n      dup1\n      iszero\n      tag_341\n      jumpi\n      pop\n        /* \"contracts/Pool/PoolPig.sol\":27450:27463  uniswapV2Pair */\n      immutable(\"0x924caa65d1644bcda3c737cb4f972c9170b1e3eb26b1eeba5090c589a3beb7a4\")\n        /* \"contracts/Pool/PoolPig.sol\":27442:27463  from != uniswapV2Pair */\n      0xffffffffffffffffffffffffffffffffffffffff\n      and\n        /* \"contracts/Pool/PoolPig.sol\":27442:27446  from */\n      dup6\n        /* \"contracts/Pool/PoolPig.sol\":27442:27463  from != uniswapV2Pair */\n      0xffffffffffffffffffffffffffffffffffffffff\n      and\n      eq\n      iszero\n        /* \"contracts/Pool/PoolPig.sol\":27374:27463  overMinTokenBalance &&... */\n    tag_341:\n        /* \"contracts/Pool/PoolPig.sol\":27374:27500  overMinTokenBalance &&... */\n      dup1\n      iszero\n      tag_342\n      jumpi\n      pop\n        /* \"contracts/Pool/PoolPig.sol\":27479:27500  swapAndLiquifyEnabled */\n      0x12\n      0x01\n      swap1\n      sload\n      swap1\n      0x0100\n      exp\n      swap1\n      div\n      0xff\n      and\n        /* \"contracts/Pool/PoolPig.sol\":27374:27500  overMinTokenBalance &&... */\n    tag_342:\n        /* \"contracts/Pool/PoolPig.sol\":27357:27666  if (... */\n      iszero\n      tag_343\n      jumpi\n        /* \"contracts/Pool/PoolPig.sol\":27548:27577  numTokensSellToAddToLiquidity */\n      sload(0x14)\n        /* \"contracts/Pool/PoolPig.sol\":27525:27577  contractTokenBalance = numTokensSellToAddToLiquidity */\n      swap2\n      pop\n        /* \"contracts/Pool/PoolPig.sol\":27619:27655  swapAndLiquify(contractTokenBalance) */\n      tag_344\n        /* \"contracts/Pool/PoolPig.sol\":27634:27654  contractTokenBalance */\n      dup3\n        /* \"contracts/Pool/PoolPig.sol\":27619:27633  swapAndLiquify */\n      tag_345\n        /* \"contracts/Pool/PoolPig.sol\":27619:27655  swapAndLiquify(contractTokenBalance) */\n      jump\t// in\n    tag_344:\n        /* \"contracts/Pool/PoolPig.sol\":27357:27666  if (... */\n    tag_343:\n        /* \"contracts/Pool/PoolPig.sol\":27744:27756  bool takeFee */\n      0x00\n        /* \"contracts/Pool/PoolPig.sol\":27759:27763  true */\n      0x01\n        /* \"contracts/Pool/PoolPig.sol\":27744:27763  bool takeFee = true */\n      swap1\n      pop\n        /* \"contracts/Pool/PoolPig.sol\":27868:27886  _isExcludedFromFee */\n      0x06\n        /* \"contracts/Pool/PoolPig.sol\":27868:27892  _isExcludedFromFee[from] */\n      0x00\n        /* \"contracts/Pool/PoolPig.sol\":27887:27891  from */\n      dup8\n        /* \"contracts/Pool/PoolPig.sol\":27868:27892  _isExcludedFromFee[from] */\n      0xffffffffffffffffffffffffffffffffffffffff\n      and\n      0xffffffffffffffffffffffffffffffffffffffff\n      and\n      dup2\n      mstore\n      0x20\n      add\n      swap1\n      dup2\n      mstore\n      0x20\n      add\n      0x00\n      keccak256\n      0x00\n      swap1\n      sload\n      swap1\n      0x0100\n      exp\n      swap1\n      div\n      0xff\n      and\n        /* \"contracts/Pool/PoolPig.sol\":27868:27918  _isExcludedFromFee[from] || _isExcludedFromFee[to] */\n      dup1\n      tag_346\n      jumpi\n      pop\n        /* \"contracts/Pool/PoolPig.sol\":27896:27914  _isExcludedFromFee */\n      0x06\n        /* \"contracts/Pool/PoolPig.sol\":27896:27918  _isExcludedFromFee[to] */\n      0x00\n        /* \"contracts/Pool/PoolPig.sol\":27915:27917  to */\n      dup7\n        /* \"contracts/Pool/PoolPig.sol\":27896:27918  _isExcludedFromFee[to] */\n      0xffffffffffffffffffffffffffffffffffffffff\n      and\n      0xffffffffffffffffffffffffffffffffffffffff\n      and\n      dup2\n      mstore\n      0x20\n      add\n      swap1\n      dup2\n      mstore\n      0x20\n      add\n      0x00\n      keccak256\n      0x00\n      swap1\n      sload\n      swap1\n      0x0100\n      exp\n      swap1\n      div\n      0xff\n      and\n        /* \"contracts/Pool/PoolPig.sol\":27868:27918  _isExcludedFromFee[from] || _isExcludedFromFee[to] */\n    tag_346:\n        /* \"contracts/Pool/PoolPig.sol\":27865:27959  if(_isExcludedFromFee[from] || _isExcludedFromFee[to]){... */\n      iszero\n      tag_347\n      jumpi\n        /* \"contracts/Pool/PoolPig.sol\":27943:27948  false */\n      0x00\n        /* \"contracts/Pool/PoolPig.sol\":27933:27948  takeFee = false */\n      swap1\n      pop\n        /* \"contracts/Pool/PoolPig.sol\":27865:27959  if(_isExcludedFromFee[from] || _isExcludedFromFee[to]){... */\n    tag_347:\n        /* \"contracts/Pool/PoolPig.sol\":28042:28080  _tokenTransfer(from,to,amount,takeFee) */\n      tag_348\n        /* \"contracts/Pool/PoolPig.sol\":28057:28061  from */\n      dup7\n        /* \"contracts/Pool/PoolPig.sol\":28062:28064  to */\n      dup7\n        /* \"contracts/Pool/PoolPig.sol\":28065:28071  amount */\n      dup7\n        /* \"contracts/Pool/PoolPig.sol\":28072:28079  takeFee */\n      dup5\n        /* \"contracts/Pool/PoolPig.sol\":28042:28056  _tokenTransfer */\n      tag_349\n        /* \"contracts/Pool/PoolPig.sol\":28042:28080  _tokenTransfer(from,to,amount,takeFee) */\n      jump\t// in\n    tag_348:\n        /* \"contracts/Pool/PoolPig.sol\":26596:28087  function _transfer(... */\n      pop\n      pop\n      pop\n      pop\n      pop\n      pop\n      jump\t// out\n        /* \"contracts/Pool/PoolPig.sol\":1073:1260  function sub(uint256 a, uint256 b, string memory errorMessage) internal pure returns (uint256) {... */\n    tag_212:\n        /* \"contracts/Pool/PoolPig.sol\":1159:1166  uint256 */\n      0x00\n        /* \"contracts/Pool/PoolPig.sol\":1191:1192  a */\n      dup4\n        /* \"contracts/Pool/PoolPig.sol\":1186:1187  b */\n      dup4\n        /* \"contracts/Pool/PoolPig.sol\":1186:1192  b <= a */\n      gt\n      iszero\n        /* \"contracts/Pool/PoolPig.sol\":1194:1206  errorMessage */\n      dup3\n        /* \"contracts/Pool/PoolPig.sol\":1178:1207  require(b <= a, errorMessage) */\n      swap1\n      tag_351\n      jumpi\n      mload(0x40)\n      0x08c379a000000000000000000000000000000000000000000000000000000000\n      dup2\n      mstore\n      0x04\n      add\n      dup1\n      dup1\n      0x20\n      add\n      dup3\n      dup2\n      sub\n      dup3\n      mstore\n      dup4\n      dup2\n      dup2\n      mload\n      dup2\n      mstore\n      0x20\n      add\n      swap2\n      pop\n      dup1\n      mload\n      swap1\n      0x20\n      add\n      swap1\n      dup1\n      dup4\n      dup4\n      0x00\n    tag_352:\n      dup4\n      dup2\n      lt\n      iszero\n      tag_354\n      jumpi\n      dup1\n      dup3\n      add\n      mload\n      dup2\n      dup5\n      add\n      mstore\n      0x20\n      dup2\n      add\n      swap1\n      pop\n      jump(tag_352)\n    tag_354:\n      pop\n      pop\n      pop\n      pop\n      swap1\n      pop\n      swap1\n      dup2\n      add\n      swap1\n      0x1f\n      and\n      dup1\n      iszero\n      tag_355\n      jumpi\n      dup1\n      dup3\n      sub\n      dup1\n      mload\n      0x01\n      dup4\n      0x20\n      sub\n      0x0100\n      exp\n      sub\n      not\n      and\n      dup2\n      mstore\n      0x20\n      add\n      swap2\n      pop\n    tag_355:\n      pop\n      swap3\n      pop\n      pop\n      pop\n      mload(0x40)\n      dup1\n      swap2\n      sub\n      swap1\n      revert\n    tag_351:\n      pop\n        /* \"contracts/Pool/PoolPig.sol\":1217:1226  uint256 c */\n      0x00\n        /* \"contracts/Pool/PoolPig.sol\":1233:1234  b */\n      dup4\n        /* \"contracts/Pool/PoolPig.sol\":1229:1230  a */\n      dup6\n        /* \"contracts/Pool/PoolPig.sol\":1229:1234  a - b */\n      sub\n        /* \"contracts/Pool/PoolPig.sol\":1217:1234  uint256 c = a - b */\n      swap1\n      pop\n        /* \"contracts/Pool/PoolPig.sol\":1252:1253  c */\n      dup1\n        /* \"contracts/Pool/PoolPig.sol\":1245:1253  return c */\n      swap2\n      pop\n      pop\n        /* \"contracts/Pool/PoolPig.sol\":1073:1260  function sub(uint256 a, uint256 b, string memory errorMessage) internal pure returns (uint256) {... */\n      swap4\n      swap3\n      pop\n      pop\n      pop\n      jump\t// out\n        /* \"contracts/Pool/PoolPig.sol\":24334:24494  function _getRate() private view returns(uint256) {... */\n    tag_216:\n        /* \"contracts/Pool/PoolPig.sol\":24375:24382  uint256 */\n      0x00\n        /* \"contracts/Pool/PoolPig.sol\":24395:24410  uint256 rSupply */\n      dup1\n        /* \"contracts/Pool/PoolPig.sol\":24412:24427  uint256 tSupply */\n      0x00\n        /* \"contracts/Pool/PoolPig.sol\":24431:24450  _getCurrentSupply() */\n      tag_357\n        /* \"contracts/Pool/PoolPig.sol\":24431:24448  _getCurrentSupply */\n      tag_358\n        /* \"contracts/Pool/PoolPig.sol\":24431:24450  _getCurrentSupply() */\n      jump\t// in\n    tag_357:\n        /* \"contracts/Pool/PoolPig.sol\":24394:24450  (uint256 rSupply, uint256 tSupply) = _getCurrentSupply() */\n      swap2\n      pop\n      swap2\n      pop\n        /* \"contracts/Pool/PoolPig.sol\":24467:24487  rSupply.div(tSupply) */\n      tag_359\n        /* \"contracts/Pool/PoolPig.sol\":24479:24486  tSupply */\n      dup2\n        /* \"contracts/Pool/PoolPig.sol\":24467:24474  rSupply */\n      dup4\n        /* \"contracts/Pool/PoolPig.sol\":24467:24478  rSupply.div */\n      tag_218\n      swap1\n        /* \"contracts/Pool/PoolPig.sol\":24467:24487  rSupply.div(tSupply) */\n      swap2\n      swap1\n      0xffffffff\n      and\n      jump\t// in\n    tag_359:\n        /* \"contracts/Pool/PoolPig.sol\":24460:24487  return rSupply.div(tSupply) */\n      swap3\n      pop\n      pop\n      pop\n        /* \"contracts/Pool/PoolPig.sol\":24334:24494  function _getRate() private view returns(uint256) {... */\n      swap1\n      jump\t// out\n        /* \"contracts/Pool/PoolPig.sol\":1511:1641  function div(uint256 a, uint256 b) internal pure returns (uint256) {... */\n    tag_218:\n        /* \"contracts/Pool/PoolPig.sol\":1569:1576  uint256 */\n      0x00\n        /* \"contracts/Pool/PoolPig.sol\":1595:1634  div(a, b, \"SafeMath: division by zero\") */\n      tag_361\n        /* \"contracts/Pool/PoolPig.sol\":1599:1600  a */\n      dup4\n        /* \"contracts/Pool/PoolPig.sol\":1602:1603  b */\n      dup4\n        /* \"contracts/Pool/PoolPig.sol\":1595:1634  div(a, b, \"SafeMath: division by zero\") */\n      mload(0x40)\n      dup1\n      0x40\n      add\n      0x40\n      mstore\n      dup1\n      0x1a\n      dup2\n      mstore\n      0x20\n      add\n      0x536166654d6174683a206469766973696f6e206279207a65726f000000000000\n      dup2\n      mstore\n      pop\n        /* \"contracts/Pool/PoolPig.sol\":1595:1598  div */\n      tag_362\n        /* \"contracts/Pool/PoolPig.sol\":1595:1634  div(a, b, \"SafeMath: division by zero\") */\n      jump\t// in\n    tag_361:\n        /* \"contracts/Pool/PoolPig.sol\":1588:1634  return div(a, b, \"SafeMath: division by zero\") */\n      swap1\n      pop\n        /* \"contracts/Pool/PoolPig.sol\":1511:1641  function div(uint256 a, uint256 b) internal pure returns (uint256) {... */\n      swap3\n      swap2\n      pop\n      pop\n      jump\t// out\n        /* \"contracts/Pool/PoolPig.sol\":753:929  function add(uint256 a, uint256 b) internal pure returns (uint256) {... */\n    tag_242:\n        /* \"contracts/Pool/PoolPig.sol\":811:818  uint256 */\n      0x00\n        /* \"contracts/Pool/PoolPig.sol\":830:839  uint256 c */\n      dup1\n        /* \"contracts/Pool/PoolPig.sol\":846:847  b */\n      dup3\n        /* \"contracts/Pool/PoolPig.sol\":842:843  a */\n      dup5\n        /* \"contracts/Pool/PoolPig.sol\":842:847  a + b */\n      add\n        /* \"contracts/Pool/PoolPig.sol\":830:847  uint256 c = a + b */\n      swap1\n      pop\n        /* \"contracts/Pool/PoolPig.sol\":870:871  a */\n      dup4\n        /* \"contracts/Pool/PoolPig.sol\":865:866  c */\n      dup2\n        /* \"contracts/Pool/PoolPig.sol\":865:871  c >= a */\n      lt\n      iszero\n        /* \"contracts/Pool/PoolPig.sol\":857:903  require(c >= a, \"SafeMath: addition overflow\") */\n      tag_364\n      jumpi\n      mload(0x40)\n      0x08c379a000000000000000000000000000000000000000000000000000000000\n      dup2\n      mstore\n      0x04\n      add\n      dup1\n      dup1\n      0x20\n      add\n      dup3\n      dup2\n      sub\n      dup3\n      mstore\n      0x1b\n      dup2\n      mstore\n      0x20\n      add\n      dup1\n      0x536166654d6174683a206164646974696f6e206f766572666c6f770000000000\n      dup2\n      mstore\n      pop\n      0x20\n      add\n      swap2\n      pop\n      pop\n      mload(0x40)\n      dup1\n      swap2\n      sub\n      swap1\n      revert\n    tag_364:\n        /* \"contracts/Pool/PoolPig.sol\":921:922  c */\n      dup1\n        /* \"contracts/Pool/PoolPig.sol\":914:922  return c */\n      swap2\n      pop\n      pop\n        /* \"contracts/Pool/PoolPig.sol\":753:929  function add(uint256 a, uint256 b) internal pure returns (uint256) {... */\n      swap3\n      swap2\n      pop\n      pop\n      jump\t// out\n        /* \"contracts/Pool/PoolPig.sol\":23153:23568  function _getValues(uint256 tAmount) private view returns (uint256, uint256, uint256, uint256, uint256, uint256) {... */\n    tag_247:\n        /* \"contracts/Pool/PoolPig.sol\":23212:23219  uint256 */\n      0x00\n        /* \"contracts/Pool/PoolPig.sol\":23221:23228  uint256 */\n      dup1\n        /* \"contracts/Pool/PoolPig.sol\":23230:23237  uint256 */\n      0x00\n        /* \"contracts/Pool/PoolPig.sol\":23239:23246  uint256 */\n      dup1\n        /* \"contracts/Pool/PoolPig.sol\":23248:23255  uint256 */\n      0x00\n        /* \"contracts/Pool/PoolPig.sol\":23257:23264  uint256 */\n      dup1\n        /* \"contracts/Pool/PoolPig.sol\":23277:23300  uint256 tTransferAmount */\n      0x00\n        /* \"contracts/Pool/PoolPig.sol\":23302:23314  uint256 tFee */\n      dup1\n        /* \"contracts/Pool/PoolPig.sol\":23316:23334  uint256 tLiquidity */\n      0x00\n        /* \"contracts/Pool/PoolPig.sol\":23338:23358  _getTValues(tAmount) */\n      tag_366\n        /* \"contracts/Pool/PoolPig.sol\":23350:23357  tAmount */\n      dup11\n        /* \"contracts/Pool/PoolPig.sol\":23338:23349  _getTValues */\n      tag_367\n        /* \"contracts/Pool/PoolPig.sol\":23338:23358  _getTValues(tAmount) */\n      jump\t// in\n    tag_366:\n        /* \"contracts/Pool/PoolPig.sol\":23276:23358  (uint256 tTransferAmount, uint256 tFee, uint256 tLiquidity) = _getTValues(tAmount) */\n      swap3\n      pop\n      swap3\n      pop\n      swap3\n      pop\n        /* \"contracts/Pool/PoolPig.sol\":23369:23384  uint256 rAmount */\n      0x00\n        /* \"contracts/Pool/PoolPig.sol\":23386:23409  uint256 rTransferAmount */\n      dup1\n        /* \"contracts/Pool/PoolPig.sol\":23411:23423  uint256 rFee */\n      0x00\n        /* \"contracts/Pool/PoolPig.sol\":23427:23477  _getRValues(tAmount, tFee, tLiquidity, _getRate()) */\n      tag_368\n        /* \"contracts/Pool/PoolPig.sol\":23439:23446  tAmount */\n      dup14\n        /* \"contracts/Pool/PoolPig.sol\":23448:23452  tFee */\n      dup7\n        /* \"contracts/Pool/PoolPig.sol\":23454:23464  tLiquidity */\n      dup7\n        /* \"contracts/Pool/PoolPig.sol\":23466:23476  _getRate() */\n      tag_369\n        /* \"contracts/Pool/PoolPig.sol\":23466:23474  _getRate */\n      tag_216\n        /* \"contracts/Pool/PoolPig.sol\":23466:23476  _getRate() */\n      jump\t// in\n    tag_369:\n        /* \"contracts/Pool/PoolPig.sol\":23427:23438  _getRValues */\n      tag_370\n        /* \"contracts/Pool/PoolPig.sol\":23427:23477  _getRValues(tAmount, tFee, tLiquidity, _getRate()) */\n      jump\t// in\n    tag_368:\n        /* \"contracts/Pool/PoolPig.sol\":23368:23477  (uint256 rAmount, uint256 rTransferAmount, uint256 rFee) = _getRValues(tAmount, tFee, tLiquidity, _getRate()) */\n      swap3\n      pop\n      swap3\n      pop\n      swap3\n      pop\n        /* \"contracts/Pool/PoolPig.sol\":23495:23502  rAmount */\n      dup3\n        /* \"contracts/Pool/PoolPig.sol\":23504:23519  rTransferAmount */\n      dup3\n        /* \"contracts/Pool/PoolPig.sol\":23521:23525  rFee */\n      dup3\n        /* \"contracts/Pool/PoolPig.sol\":23527:23542  tTransferAmount */\n      dup9\n        /* \"contracts/Pool/PoolPig.sol\":23544:23548  tFee */\n      dup9\n        /* \"contracts/Pool/PoolPig.sol\":23550:23560  tLiquidity */\n      dup9\n        /* \"contracts/Pool/PoolPig.sol\":23487:23561  return (rAmount, rTransferAmount, rFee, tTransferAmount, tFee, tLiquidity) */\n      swap12\n      pop\n      swap12\n      pop\n      swap12\n      pop\n      swap12\n      pop\n      swap12\n      pop\n      swap12\n      pop\n      pop\n      pop\n      pop\n      pop\n      pop\n      pop\n        /* \"contracts/Pool/PoolPig.sol\":23153:23568  function _getValues(uint256 tAmount) private view returns (uint256, uint256, uint256, uint256, uint256, uint256) {... */\n      swap2\n      swap4\n      swap6\n      pop\n      swap2\n      swap4\n      swap6\n      jump\t// out\n        /* \"contracts/Pool/PoolPig.sol\":934:1068  function sub(uint256 a, uint256 b) internal pure returns (uint256) {... */\n    tag_249:\n        /* \"contracts/Pool/PoolPig.sol\":992:999  uint256 */\n      0x00\n        /* \"contracts/Pool/PoolPig.sol\":1018:1061  sub(a, b, \"SafeMath: subtraction overflow\") */\n      tag_372\n        /* \"contracts/Pool/PoolPig.sol\":1022:1023  a */\n      dup4\n        /* \"contracts/Pool/PoolPig.sol\":1025:1026  b */\n      dup4\n        /* \"contracts/Pool/PoolPig.sol\":1018:1061  sub(a, b, \"SafeMath: subtraction overflow\") */\n      mload(0x40)\n      dup1\n      0x40\n      add\n      0x40\n      mstore\n      dup1\n      0x1e\n      dup2\n      mstore\n      0x20\n      add\n      0x536166654d6174683a207375627472616374696f6e206f766572666c6f770000\n      dup2\n      mstore\n      pop\n        /* \"contracts/Pool/PoolPig.sol\":1018:1021  sub */\n      tag_212\n        /* \"contracts/Pool/PoolPig.sol\":1018:1061  sub(a, b, \"SafeMath: subtraction overflow\") */\n      jump\t// in\n    tag_372:\n        /* \"contracts/Pool/PoolPig.sol\":1011:1061  return sub(a, b, \"SafeMath: subtraction overflow\") */\n      swap1\n      pop\n        /* \"contracts/Pool/PoolPig.sol\":934:1068  function sub(uint256 a, uint256 b) internal pure returns (uint256) {... */\n      swap3\n      swap2\n      pop\n      pop\n      jump\t// out\n        /* \"contracts/Pool/PoolPig.sol\":1265:1506  function mul(uint256 a, uint256 b) internal pure returns (uint256) {... */\n    tag_310:\n        /* \"contracts/Pool/PoolPig.sol\":1323:1330  uint256 */\n      0x00\n        /* \"contracts/Pool/PoolPig.sol\":1351:1352  0 */\n      dup1\n        /* \"contracts/Pool/PoolPig.sol\":1346:1347  a */\n      dup4\n        /* \"contracts/Pool/PoolPig.sol\":1346:1352  a == 0 */\n      eq\n        /* \"contracts/Pool/PoolPig.sol\":1342:1387  if (a == 0) {... */\n      iszero\n      tag_374\n      jumpi\n        /* \"contracts/Pool/PoolPig.sol\":1375:1376  0 */\n      0x00\n        /* \"contracts/Pool/PoolPig.sol\":1368:1376  return 0 */\n      swap1\n      pop\n      jump(tag_373)\n        /* \"contracts/Pool/PoolPig.sol\":1342:1387  if (a == 0) {... */\n    tag_374:\n        /* \"contracts/Pool/PoolPig.sol\":1397:1406  uint256 c */\n      0x00\n        /* \"contracts/Pool/PoolPig.sol\":1413:1414  b */\n      dup3\n        /* \"contracts/Pool/PoolPig.sol\":1409:1410  a */\n      dup5\n        /* \"contracts/Pool/PoolPig.sol\":1409:1414  a * b */\n      mul\n        /* \"contracts/Pool/PoolPig.sol\":1397:1414  uint256 c = a * b */\n      swap1\n      pop\n        /* \"contracts/Pool/PoolPig.sol\":1441:1442  b */\n      dup3\n        /* \"contracts/Pool/PoolPig.sol\":1436:1437  a */\n      dup5\n        /* \"contracts/Pool/PoolPig.sol\":1432:1433  c */\n      dup3\n        /* \"contracts/Pool/PoolPig.sol\":1432:1437  c / a */\n      dup2\n      tag_375\n      jumpi\n      invalid\n    tag_375:\n      div\n        /* \"contracts/Pool/PoolPig.sol\":1432:1442  c / a == b */\n      eq\n        /* \"contracts/Pool/PoolPig.sol\":1424:1480  require(c / a == b, \"SafeMath: multiplication overflow\") */\n      tag_376\n      jumpi\n      mload(0x40)\n      0x08c379a000000000000000000000000000000000000000000000000000000000\n      dup2\n      mstore\n      0x04\n      add\n      dup1\n      dup1\n      0x20\n      add\n      dup3\n      dup2\n      sub\n      dup3\n      mstore\n      0x21\n      dup2\n      mstore\n      0x20\n      add\n      dup1\n      data_9113bb53c2876a3805b2c9242029423fc540a728243ce887ab24c82cf119fba3\n      0x21\n      swap2\n      codecopy\n      0x40\n      add\n      swap2\n      pop\n      pop\n      mload(0x40)\n      dup1\n      swap2\n      sub\n      swap1\n      revert\n    tag_376:\n        /* \"contracts/Pool/PoolPig.sol\":1498:1499  c */\n      dup1\n        /* \"contracts/Pool/PoolPig.sol\":1491:1499  return c */\n      swap2\n      pop\n      pop\n        /* \"contracts/Pool/PoolPig.sol\":1265:1506  function mul(uint256 a, uint256 b) internal pure returns (uint256) {... */\n    tag_373:\n      swap3\n      swap2\n      pop\n      pop\n      jump\t// out\n        /* \"contracts/Pool/PoolPig.sol\":28093:29058  function swapAndLiquify(uint256 contractTokenBalance) private lockTheSwap {... */\n    tag_345:\n        /* \"contracts/Pool/PoolPig.sol\":16675:16679  true */\n      0x01\n        /* \"contracts/Pool/PoolPig.sol\":16656:16672  inSwapAndLiquify */\n      0x12\n      0x00\n        /* \"contracts/Pool/PoolPig.sol\":16656:16679  inSwapAndLiquify = true */\n      0x0100\n      exp\n      dup2\n      sload\n      dup2\n      0xff\n      mul\n      not\n      and\n      swap1\n      dup4\n      iszero\n      iszero\n      mul\n      or\n      swap1\n      sstore\n      pop\n        /* \"contracts/Pool/PoolPig.sol\":28227:28239  uint256 half */\n      0x00\n        /* \"contracts/Pool/PoolPig.sol\":28242:28269  contractTokenBalance.div(2) */\n      tag_379\n        /* \"contracts/Pool/PoolPig.sol\":28267:28268  2 */\n      0x02\n        /* \"contracts/Pool/PoolPig.sol\":28242:28262  contractTokenBalance */\n      dup4\n        /* \"contracts/Pool/PoolPig.sol\":28242:28266  contractTokenBalance.div */\n      tag_218\n      swap1\n        /* \"contracts/Pool/PoolPig.sol\":28242:28269  contractTokenBalance.div(2) */\n      swap2\n      swap1\n      0xffffffff\n      and\n      jump\t// in\n    tag_379:\n        /* \"contracts/Pool/PoolPig.sol\":28227:28269  uint256 half = contractTokenBalance.div(2) */\n      swap1\n      pop\n        /* \"contracts/Pool/PoolPig.sol\":28279:28296  uint256 otherHalf */\n      0x00\n        /* \"contracts/Pool/PoolPig.sol\":28299:28329  contractTokenBalance.sub(half) */\n      tag_380\n        /* \"contracts/Pool/PoolPig.sol\":28324:28328  half */\n      dup3\n        /* \"contracts/Pool/PoolPig.sol\":28299:28319  contractTokenBalance */\n      dup5\n        /* \"contracts/Pool/PoolPig.sol\":28299:28323  contractTokenBalance.sub */\n      tag_249\n      swap1\n        /* \"contracts/Pool/PoolPig.sol\":28299:28329  contractTokenBalance.sub(half) */\n      swap2\n      swap1\n      0xffffffff\n      and\n      jump\t// in\n    tag_380:\n        /* \"contracts/Pool/PoolPig.sol\":28279:28329  uint256 otherHalf = contractTokenBalance.sub(half) */\n      swap1\n      pop\n        /* \"contracts/Pool/PoolPig.sol\":28601:28623  uint256 initialBalance */\n      0x00\n        /* \"contracts/Pool/PoolPig.sol\":28626:28647  address(this).balance */\n      selfbalance\n        /* \"contracts/Pool/PoolPig.sol\":28601:28647  uint256 initialBalance = address(this).balance */\n      swap1\n      pop\n        /* \"contracts/Pool/PoolPig.sol\":28689:28711  swapTokensForEth(half) */\n      tag_381\n        /* \"contracts/Pool/PoolPig.sol\":28706:28710  half */\n      dup4\n        /* \"contracts/Pool/PoolPig.sol\":28689:28705  swapTokensForEth */\n      tag_382\n        /* \"contracts/Pool/PoolPig.sol\":28689:28711  swapTokensForEth(half) */\n      jump\t// in\n    tag_381:\n        /* \"contracts/Pool/PoolPig.sol\":28839:28857  uint256 newBalance */\n      0x00\n        /* \"contracts/Pool/PoolPig.sol\":28860:28901  address(this).balance.sub(initialBalance) */\n      tag_383\n        /* \"contracts/Pool/PoolPig.sol\":28886:28900  initialBalance */\n      dup3\n        /* \"contracts/Pool/PoolPig.sol\":28860:28881  address(this).balance */\n      selfbalance\n        /* \"contracts/Pool/PoolPig.sol\":28860:28885  address(this).balance.sub */\n      tag_249\n      swap1\n        /* \"contracts/Pool/PoolPig.sol\":28860:28901  address(this).balance.sub(initialBalance) */\n      swap2\n      swap1\n      0xffffffff\n      and\n      jump\t// in\n    tag_383:\n        /* \"contracts/Pool/PoolPig.sol\":28839:28901  uint256 newBalance = address(this).balance.sub(initialBalance) */\n      swap1\n      pop\n        /* \"contracts/Pool/PoolPig.sol\":28949:28984  addLiquidity(otherHalf, newBalance) */\n      tag_384\n        /* \"contracts/Pool/PoolPig.sol\":28962:28971  otherHalf */\n      dup4\n        /* \"contracts/Pool/PoolPig.sol\":28973:28983  newBalance */\n      dup3\n        /* \"contracts/Pool/PoolPig.sol\":28949:28961  addLiquidity */\n      tag_385\n        /* \"contracts/Pool/PoolPig.sol\":28949:28984  addLiquidity(otherHalf, newBalance) */\n      jump\t// in\n    tag_384:\n        /* \"contracts/Pool/PoolPig.sol\":29008:29051  SwapAndLiquify(half, newBalance, otherHalf) */\n      0x17bbfb9a6069321b6ded73bd96327c9e6b7212a5cd51ff219cd61370acafb561\n        /* \"contracts/Pool/PoolPig.sol\":29023:29027  half */\n      dup5\n        /* \"contracts/Pool/PoolPig.sol\":29029:29039  newBalance */\n      dup3\n        /* \"contracts/Pool/PoolPig.sol\":29041:29050  otherHalf */\n      dup6\n        /* \"contracts/Pool/PoolPig.sol\":29008:29051  SwapAndLiquify(half, newBalance, otherHalf) */\n      mload(0x40)\n      dup1\n      dup5\n      dup2\n      mstore\n      0x20\n      add\n      dup4\n      dup2\n      mstore\n      0x20\n      add\n      dup3\n      dup2\n      mstore\n      0x20\n      add\n      swap4\n      pop\n      pop\n      pop\n      pop\n      mload(0x40)\n      dup1\n      swap2\n      sub\n      swap1\n      log1\n        /* \"contracts/Pool/PoolPig.sol\":16689:16690  _ */\n      pop\n      pop\n      pop\n      pop\n        /* \"contracts/Pool/PoolPig.sol\":16719:16724  false */\n      0x00\n        /* \"contracts/Pool/PoolPig.sol\":16700:16716  inSwapAndLiquify */\n      0x12\n      0x00\n        /* \"contracts/Pool/PoolPig.sol\":16700:16724  inSwapAndLiquify = false */\n      0x0100\n      exp\n      dup2\n      sload\n      dup2\n      0xff\n      mul\n      not\n      and\n      swap1\n      dup4\n      iszero\n      iszero\n      mul\n      or\n      swap1\n      sstore\n      pop\n        /* \"contracts/Pool/PoolPig.sol\":28093:29058  function swapAndLiquify(uint256 contractTokenBalance) private lockTheSwap {... */\n      pop\n      jump\t// out\n        /* \"contracts/Pool/PoolPig.sol\":30221:31037  function _tokenTransfer(address sender, address recipient, uint256 amount,bool takeFee) private {... */\n    tag_349:\n        /* \"contracts/Pool/PoolPig.sol\":30331:30338  takeFee */\n      dup1\n        /* \"contracts/Pool/PoolPig.sol\":30327:30366  if(!takeFee)... */\n      tag_387\n      jumpi\n        /* \"contracts/Pool/PoolPig.sol\":30352:30366  removeAllFee() */\n      tag_388\n        /* \"contracts/Pool/PoolPig.sol\":30352:30364  removeAllFee */\n      tag_389\n        /* \"contracts/Pool/PoolPig.sol\":30352:30366  removeAllFee() */\n      jump\t// in\n    tag_388:\n        /* \"contracts/Pool/PoolPig.sol\":30327:30366  if(!takeFee)... */\n    tag_387:\n        /* \"contracts/Pool/PoolPig.sol\":30389:30400  _isExcluded */\n      0x07\n        /* \"contracts/Pool/PoolPig.sol\":30389:30408  _isExcluded[sender] */\n      0x00\n        /* \"contracts/Pool/PoolPig.sol\":30401:30407  sender */\n      dup6\n        /* \"contracts/Pool/PoolPig.sol\":30389:30408  _isExcluded[sender] */\n      0xffffffffffffffffffffffffffffffffffffffff\n      and\n      0xffffffffffffffffffffffffffffffffffffffff\n      and\n      dup2\n      mstore\n      0x20\n      add\n      swap1\n      dup2\n      mstore\n      0x20\n      add\n      0x00\n      keccak256\n      0x00\n      swap1\n      sload\n      swap1\n      0x0100\n      exp\n      swap1\n      div\n      0xff\n      and\n        /* \"contracts/Pool/PoolPig.sol\":30389:30435  _isExcluded[sender] && !_isExcluded[recipient] */\n      dup1\n      iszero\n      tag_390\n      jumpi\n      pop\n        /* \"contracts/Pool/PoolPig.sol\":30413:30424  _isExcluded */\n      0x07\n        /* \"contracts/Pool/PoolPig.sol\":30413:30435  _isExcluded[recipient] */\n      0x00\n        /* \"contracts/Pool/PoolPig.sol\":30425:30434  recipient */\n      dup5\n        /* \"contracts/Pool/PoolPig.sol\":30413:30435  _isExcluded[recipient] */\n      0xffffffffffffffffffffffffffffffffffffffff\n      and\n      0xffffffffffffffffffffffffffffffffffffffff\n      and\n      dup2\n      mstore\n      0x20\n      add\n      swap1\n      dup2\n      mstore\n      0x20\n      add\n      0x00\n      keccak256\n      0x00\n      swap1\n      sload\n      swap1\n      0x0100\n      exp\n      swap1\n      div\n      0xff\n      and\n        /* \"contracts/Pool/PoolPig.sol\":30412:30435  !_isExcluded[recipient] */\n      iszero\n        /* \"contracts/Pool/PoolPig.sol\":30389:30435  _isExcluded[sender] && !_isExcluded[recipient] */\n    tag_390:\n        /* \"contracts/Pool/PoolPig.sol\":30385:30972  if (_isExcluded[sender] && !_isExcluded[recipient]) {... */\n      iszero\n      tag_391\n      jumpi\n        /* \"contracts/Pool/PoolPig.sol\":30451:30499  _transferFromExcluded(sender, recipient, amount) */\n      tag_392\n        /* \"contracts/Pool/PoolPig.sol\":30473:30479  sender */\n      dup5\n        /* \"contracts/Pool/PoolPig.sol\":30481:30490  recipient */\n      dup5\n        /* \"contracts/Pool/PoolPig.sol\":30492:30498  amount */\n      dup5\n        /* \"contracts/Pool/PoolPig.sol\":30451:30472  _transferFromExcluded */\n      tag_393\n        /* \"contracts/Pool/PoolPig.sol\":30451:30499  _transferFromExcluded(sender, recipient, amount) */\n      jump\t// in\n    tag_392:\n        /* \"contracts/Pool/PoolPig.sol\":30385:30972  if (_isExcluded[sender] && !_isExcluded[recipient]) {... */\n      jump(tag_394)\n    tag_391:\n        /* \"contracts/Pool/PoolPig.sol\":30521:30532  _isExcluded */\n      0x07\n        /* \"contracts/Pool/PoolPig.sol\":30521:30540  _isExcluded[sender] */\n      0x00\n        /* \"contracts/Pool/PoolPig.sol\":30533:30539  sender */\n      dup6\n        /* \"contracts/Pool/PoolPig.sol\":30521:30540  _isExcluded[sender] */\n      0xffffffffffffffffffffffffffffffffffffffff\n      and\n      0xffffffffffffffffffffffffffffffffffffffff\n      and\n      dup2\n      mstore\n      0x20\n      add\n      swap1\n      dup2\n      mstore\n      0x20\n      add\n      0x00\n      keccak256\n      0x00\n      swap1\n      sload\n      swap1\n      0x0100\n      exp\n      swap1\n      div\n      0xff\n      and\n        /* \"contracts/Pool/PoolPig.sol\":30520:30540  !_isExcluded[sender] */\n      iszero\n        /* \"contracts/Pool/PoolPig.sol\":30520:30566  !_isExcluded[sender] && _isExcluded[recipient] */\n      dup1\n      iszero\n      tag_395\n      jumpi\n      pop\n        /* \"contracts/Pool/PoolPig.sol\":30544:30555  _isExcluded */\n      0x07\n        /* \"contracts/Pool/PoolPig.sol\":30544:30566  _isExcluded[recipient] */\n      0x00\n        /* \"contracts/Pool/PoolPig.sol\":30556:30565  recipient */\n      dup5\n        /* \"contracts/Pool/PoolPig.sol\":30544:30566  _isExcluded[recipient] */\n      0xffffffffffffffffffffffffffffffffffffffff\n      and\n      0xffffffffffffffffffffffffffffffffffffffff\n      and\n      dup2\n      mstore\n      0x20\n      add\n      swap1\n      dup2\n      mstore\n      0x20\n      add\n      0x00\n      keccak256\n      0x00\n      swap1\n      sload\n      swap1\n      0x0100\n      exp\n      swap1\n      div\n      0xff\n      and\n        /* \"contracts/Pool/PoolPig.sol\":30520:30566  !_isExcluded[sender] && _isExcluded[recipient] */\n    tag_395:\n        /* \"contracts/Pool/PoolPig.sol\":30516:30972  if (!_isExcluded[sender] && _isExcluded[recipient]) {... */\n      iszero\n      tag_396\n      jumpi\n        /* \"contracts/Pool/PoolPig.sol\":30582:30628  _transferToExcluded(sender, recipient, amount) */\n      tag_397\n        /* \"contracts/Pool/PoolPig.sol\":30602:30608  sender */\n      dup5\n        /* \"contracts/Pool/PoolPig.sol\":30610:30619  recipient */\n      dup5\n        /* \"contracts/Pool/PoolPig.sol\":30621:30627  amount */\n      dup5\n        /* \"contracts/Pool/PoolPig.sol\":30582:30601  _transferToExcluded */\n      tag_398\n        /* \"contracts/Pool/PoolPig.sol\":30582:30628  _transferToExcluded(sender, recipient, amount) */\n      jump\t// in\n    tag_397:\n        /* \"contracts/Pool/PoolPig.sol\":30516:30972  if (!_isExcluded[sender] && _isExcluded[recipient]) {... */\n      jump(tag_399)\n    tag_396:\n        /* \"contracts/Pool/PoolPig.sol\":30650:30661  _isExcluded */\n      0x07\n        /* \"contracts/Pool/PoolPig.sol\":30650:30669  _isExcluded[sender] */\n      0x00\n        /* \"contracts/Pool/PoolPig.sol\":30662:30668  sender */\n      dup6\n        /* \"contracts/Pool/PoolPig.sol\":30650:30669  _isExcluded[sender] */\n      0xffffffffffffffffffffffffffffffffffffffff\n      and\n      0xffffffffffffffffffffffffffffffffffffffff\n      and\n      dup2\n      mstore\n      0x20\n      add\n      swap1\n      dup2\n      mstore\n      0x20\n      add\n      0x00\n      keccak256\n      0x00\n      swap1\n      sload\n      swap1\n      0x0100\n      exp\n      swap1\n      div\n      0xff\n      and\n        /* \"contracts/Pool/PoolPig.sol\":30649:30669  !_isExcluded[sender] */\n      iszero\n        /* \"contracts/Pool/PoolPig.sol\":30649:30696  !_isExcluded[sender] && !_isExcluded[recipient] */\n      dup1\n      iszero\n      tag_400\n      jumpi\n      pop\n        /* \"contracts/Pool/PoolPig.sol\":30674:30685  _isExcluded */\n      0x07\n        /* \"contracts/Pool/PoolPig.sol\":30674:30696  _isExcluded[recipient] */\n      0x00\n        /* \"contracts/Pool/PoolPig.sol\":30686:30695  recipient */\n      dup5\n        /* \"contracts/Pool/PoolPig.sol\":30674:30696  _isExcluded[recipient] */\n      0xffffffffffffffffffffffffffffffffffffffff\n      and\n      0xffffffffffffffffffffffffffffffffffffffff\n      and\n      dup2\n      mstore\n      0x20\n      add\n      swap1\n      dup2\n      mstore\n      0x20\n      add\n      0x00\n      keccak256\n      0x00\n      swap1\n      sload\n      swap1\n      0x0100\n      exp\n      swap1\n      div\n      0xff\n      and\n        /* \"contracts/Pool/PoolPig.sol\":30673:30696  !_isExcluded[recipient] */\n      iszero\n        /* \"contracts/Pool/PoolPig.sol\":30649:30696  !_isExcluded[sender] && !_isExcluded[recipient] */\n    tag_400:\n        /* \"contracts/Pool/PoolPig.sol\":30645:30972  if (!_isExcluded[sender] && !_isExcluded[recipient]) {... */\n      iszero\n      tag_401\n      jumpi\n        /* \"contracts/Pool/PoolPig.sol\":30712:30756  _transferStandard(sender, recipient, amount) */\n      tag_402\n        /* \"contracts/Pool/PoolPig.sol\":30730:30736  sender */\n      dup5\n        /* \"contracts/Pool/PoolPig.sol\":30738:30747  recipient */\n      dup5\n        /* \"contracts/Pool/PoolPig.sol\":30749:30755  amount */\n      dup5\n        /* \"contracts/Pool/PoolPig.sol\":30712:30729  _transferStandard */\n      tag_403\n        /* \"contracts/Pool/PoolPig.sol\":30712:30756  _transferStandard(sender, recipient, amount) */\n      jump\t// in\n    tag_402:\n        /* \"contracts/Pool/PoolPig.sol\":30645:30972  if (!_isExcluded[sender] && !_isExcluded[recipient]) {... */\n      jump(tag_404)\n    tag_401:\n        /* \"contracts/Pool/PoolPig.sol\":30777:30788  _isExcluded */\n      0x07\n        /* \"contracts/Pool/PoolPig.sol\":30777:30796  _isExcluded[sender] */\n      0x00\n        /* \"contracts/Pool/PoolPig.sol\":30789:30795  sender */\n      dup6\n        /* \"contracts/Pool/PoolPig.sol\":30777:30796  _isExcluded[sender] */\n      0xffffffffffffffffffffffffffffffffffffffff\n      and\n      0xffffffffffffffffffffffffffffffffffffffff\n      and\n      dup2\n      mstore\n      0x20\n      add\n      swap1\n      dup2\n      mstore\n      0x20\n      add\n      0x00\n      keccak256\n      0x00\n      swap1\n      sload\n      swap1\n      0x0100\n      exp\n      swap1\n      div\n      0xff\n      and\n        /* \"contracts/Pool/PoolPig.sol\":30777:30822  _isExcluded[sender] && _isExcluded[recipient] */\n      dup1\n      iszero\n      tag_405\n      jumpi\n      pop\n        /* \"contracts/Pool/PoolPig.sol\":30800:30811  _isExcluded */\n      0x07\n        /* \"contracts/Pool/PoolPig.sol\":30800:30822  _isExcluded[recipient] */\n      0x00\n        /* \"contracts/Pool/PoolPig.sol\":30812:30821  recipient */\n      dup5\n        /* \"contracts/Pool/PoolPig.sol\":30800:30822  _isExcluded[recipient] */\n      0xffffffffffffffffffffffffffffffffffffffff\n      and\n      0xffffffffffffffffffffffffffffffffffffffff\n      and\n      dup2\n      mstore\n      0x20\n      add\n      swap1\n      dup2\n      mstore\n      0x20\n      add\n      0x00\n      keccak256\n      0x00\n      swap1\n      sload\n      swap1\n      0x0100\n      exp\n      swap1\n      div\n      0xff\n      and\n        /* \"contracts/Pool/PoolPig.sol\":30777:30822  _isExcluded[sender] && _isExcluded[recipient] */\n    tag_405:\n        /* \"contracts/Pool/PoolPig.sol\":30773:30972  if (_isExcluded[sender] && _isExcluded[recipient]) {... */\n      iszero\n      tag_406\n      jumpi\n        /* \"contracts/Pool/PoolPig.sol\":30838:30886  _transferBothExcluded(sender, recipient, amount) */\n      tag_407\n        /* \"contracts/Pool/PoolPig.sol\":30860:30866  sender */\n      dup5\n        /* \"contracts/Pool/PoolPig.sol\":30868:30877  recipient */\n      dup5\n        /* \"contracts/Pool/PoolPig.sol\":30879:30885  amount */\n      dup5\n        /* \"contracts/Pool/PoolPig.sol\":30838:30859  _transferBothExcluded */\n      tag_408\n        /* \"contracts/Pool/PoolPig.sol\":30838:30886  _transferBothExcluded(sender, recipient, amount) */\n      jump\t// in\n    tag_407:\n        /* \"contracts/Pool/PoolPig.sol\":30773:30972  if (_isExcluded[sender] && _isExcluded[recipient]) {... */\n      jump(tag_409)\n    tag_406:\n        /* \"contracts/Pool/PoolPig.sol\":30917:30961  _transferStandard(sender, recipient, amount) */\n      tag_410\n        /* \"contracts/Pool/PoolPig.sol\":30935:30941  sender */\n      dup5\n        /* \"contracts/Pool/PoolPig.sol\":30943:30952  recipient */\n      dup5\n        /* \"contracts/Pool/PoolPig.sol\":30954:30960  amount */\n      dup5\n        /* \"contracts/Pool/PoolPig.sol\":30917:30934  _transferStandard */\n      tag_403\n        /* \"contracts/Pool/PoolPig.sol\":30917:30961  _transferStandard(sender, recipient, amount) */\n      jump\t// in\n    tag_410:\n        /* \"contracts/Pool/PoolPig.sol\":30773:30972  if (_isExcluded[sender] && _isExcluded[recipient]) {... */\n    tag_409:\n        /* \"contracts/Pool/PoolPig.sol\":30645:30972  if (!_isExcluded[sender] && !_isExcluded[recipient]) {... */\n    tag_404:\n        /* \"contracts/Pool/PoolPig.sol\":30516:30972  if (!_isExcluded[sender] && _isExcluded[recipient]) {... */\n    tag_399:\n        /* \"contracts/Pool/PoolPig.sol\":30385:30972  if (_isExcluded[sender] && !_isExcluded[recipient]) {... */\n    tag_394:\n        /* \"contracts/Pool/PoolPig.sol\":30994:31001  takeFee */\n      dup1\n        /* \"contracts/Pool/PoolPig.sol\":30990:31030  if(!takeFee)... */\n      tag_411\n      jumpi\n        /* \"contracts/Pool/PoolPig.sol\":31015:31030  restoreAllFee() */\n      tag_412\n        /* \"contracts/Pool/PoolPig.sol\":31015:31028  restoreAllFee */\n      tag_413\n        /* \"contracts/Pool/PoolPig.sol\":31015:31030  restoreAllFee() */\n      jump\t// in\n    tag_412:\n        /* \"contracts/Pool/PoolPig.sol\":30990:31030  if(!takeFee)... */\n    tag_411:\n        /* \"contracts/Pool/PoolPig.sol\":30221:31037  function _tokenTransfer(address sender, address recipient, uint256 amount,bool takeFee) private {... */\n      pop\n      pop\n      pop\n      pop\n      jump\t// out\n        /* \"contracts/Pool/PoolPig.sol\":24500:25051  function _getCurrentSupply() private view returns(uint256, uint256) {... */\n    tag_358:\n        /* \"contracts/Pool/PoolPig.sol\":24550:24557  uint256 */\n      0x00\n        /* \"contracts/Pool/PoolPig.sol\":24559:24566  uint256 */\n      dup1\n        /* \"contracts/Pool/PoolPig.sol\":24578:24593  uint256 rSupply */\n      0x00\n        /* \"contracts/Pool/PoolPig.sol\":24596:24603  _rTotal */\n      sload(0x09)\n        /* \"contracts/Pool/PoolPig.sol\":24578:24603  uint256 rSupply = _rTotal */\n      swap1\n      pop\n        /* \"contracts/Pool/PoolPig.sol\":24613:24628  uint256 tSupply */\n      0x00\n        /* \"contracts/Pool/PoolPig.sol\":15652:15670  1000000000 * 10**9 */\n      0x0de0b6b3a7640000\n        /* \"contracts/Pool/PoolPig.sol\":24613:24638  uint256 tSupply = _tTotal */\n      swap1\n      pop\n        /* \"contracts/Pool/PoolPig.sol\":24659:24668  uint256 i */\n      0x00\n        /* \"contracts/Pool/PoolPig.sol\":24654:24939  for (uint256 i = 0; i < _excluded.length; i++) {... */\n    tag_415:\n        /* \"contracts/Pool/PoolPig.sol\":24678:24687  _excluded */\n      0x08\n        /* \"contracts/Pool/PoolPig.sol\":24678:24694  _excluded.length */\n      dup1\n      sload\n      swap1\n      pop\n        /* \"contracts/Pool/PoolPig.sol\":24674:24675  i */\n      dup2\n        /* \"contracts/Pool/PoolPig.sol\":24674:24694  i < _excluded.length */\n      lt\n        /* \"contracts/Pool/PoolPig.sol\":24654:24939  for (uint256 i = 0; i < _excluded.length; i++) {... */\n      iszero\n      tag_416\n      jumpi\n        /* \"contracts/Pool/PoolPig.sol\":24743:24750  rSupply */\n      dup3\n        /* \"contracts/Pool/PoolPig.sol\":24719:24726  _rOwned */\n      0x03\n        /* \"contracts/Pool/PoolPig.sol\":24719:24740  _rOwned[_excluded[i]] */\n      0x00\n        /* \"contracts/Pool/PoolPig.sol\":24727:24736  _excluded */\n      0x08\n        /* \"contracts/Pool/PoolPig.sol\":24737:24738  i */\n      dup5\n        /* \"contracts/Pool/PoolPig.sol\":24727:24739  _excluded[i] */\n      dup2\n      sload\n      dup2\n      lt\n      tag_418\n      jumpi\n      invalid\n    tag_418:\n      swap1\n      0x00\n      mstore\n      keccak256(0x00, 0x20)\n      add\n      0x00\n      swap1\n      sload\n      swap1\n      0x0100\n      exp\n      swap1\n      div\n      0xffffffffffffffffffffffffffffffffffffffff\n      and\n        /* \"contracts/Pool/PoolPig.sol\":24719:24740  _rOwned[_excluded[i]] */\n      0xffffffffffffffffffffffffffffffffffffffff\n      and\n      0xffffffffffffffffffffffffffffffffffffffff\n      and\n      dup2\n      mstore\n      0x20\n      add\n      swap1\n      dup2\n      mstore\n      0x20\n      add\n      0x00\n      keccak256\n      sload\n        /* \"contracts/Pool/PoolPig.sol\":24719:24750  _rOwned[_excluded[i]] > rSupply */\n      gt\n        /* \"contracts/Pool/PoolPig.sol\":24719:24785  _rOwned[_excluded[i]] > rSupply || _tOwned[_excluded[i]] > tSupply */\n      dup1\n      tag_420\n      jumpi\n      pop\n        /* \"contracts/Pool/PoolPig.sol\":24778:24785  tSupply */\n      dup2\n        /* \"contracts/Pool/PoolPig.sol\":24754:24761  _tOwned */\n      0x04\n        /* \"contracts/Pool/PoolPig.sol\":24754:24775  _tOwned[_excluded[i]] */\n      0x00\n        /* \"contracts/Pool/PoolPig.sol\":24762:24771  _excluded */\n      0x08\n        /* \"contracts/Pool/PoolPig.sol\":24772:24773  i */\n      dup5\n        /* \"contracts/Pool/PoolPig.sol\":24762:24774  _excluded[i] */\n      dup2\n      sload\n      dup2\n      lt\n      tag_421\n      jumpi\n      invalid\n    tag_421:\n      swap1\n      0x00\n      mstore\n      keccak256(0x00, 0x20)\n      add\n      0x00\n      swap1\n      sload\n      swap1\n      0x0100\n      exp\n      swap1\n      div\n      0xffffffffffffffffffffffffffffffffffffffff\n      and\n        /* \"contracts/Pool/PoolPig.sol\":24754:24775  _tOwned[_excluded[i]] */\n      0xffffffffffffffffffffffffffffffffffffffff\n      and\n      0xffffffffffffffffffffffffffffffffffffffff\n      and\n      dup2\n      mstore\n      0x20\n      add\n      swap1\n      dup2\n      mstore\n      0x20\n      add\n      0x00\n      keccak256\n      sload\n        /* \"contracts/Pool/PoolPig.sol\":24754:24785  _tOwned[_excluded[i]] > tSupply */\n      gt\n        /* \"contracts/Pool/PoolPig.sol\":24719:24785  _rOwned[_excluded[i]] > rSupply || _tOwned[_excluded[i]] > tSupply */\n    tag_420:\n        /* \"contracts/Pool/PoolPig.sol\":24715:24812  if (_rOwned[_excluded[i]] > rSupply || _tOwned[_excluded[i]] > tSupply) return (_rTotal, _tTotal) */\n      iszero\n      tag_423\n      jumpi\n        /* \"contracts/Pool/PoolPig.sol\":24795:24802  _rTotal */\n      sload(0x09)\n        /* \"contracts/Pool/PoolPig.sol\":15652:15670  1000000000 * 10**9 */\n      0x0de0b6b3a7640000\n        /* \"contracts/Pool/PoolPig.sol\":24787:24812  return (_rTotal, _tTotal) */\n      swap5\n      pop\n      swap5\n      pop\n      pop\n      pop\n      pop\n      jump(tag_414)\n        /* \"contracts/Pool/PoolPig.sol\":24715:24812  if (_rOwned[_excluded[i]] > rSupply || _tOwned[_excluded[i]] > tSupply) return (_rTotal, _tTotal) */\n    tag_423:\n        /* \"contracts/Pool/PoolPig.sol\":24836:24870  rSupply.sub(_rOwned[_excluded[i]]) */\n      tag_424\n        /* \"contracts/Pool/PoolPig.sol\":24848:24855  _rOwned */\n      0x03\n        /* \"contracts/Pool/PoolPig.sol\":24848:24869  _rOwned[_excluded[i]] */\n      0x00\n        /* \"contracts/Pool/PoolPig.sol\":24856:24865  _excluded */\n      0x08\n        /* \"contracts/Pool/PoolPig.sol\":24866:24867  i */\n      dup5\n        /* \"contracts/Pool/PoolPig.sol\":24856:24868  _excluded[i] */\n      dup2\n      sload\n      dup2\n      lt\n      tag_425\n      jumpi\n      invalid\n    tag_425:\n      swap1\n      0x00\n      mstore\n      keccak256(0x00, 0x20)\n      add\n      0x00\n      swap1\n      sload\n      swap1\n      0x0100\n      exp\n      swap1\n      div\n      0xffffffffffffffffffffffffffffffffffffffff\n      and\n        /* \"contracts/Pool/PoolPig.sol\":24848:24869  _rOwned[_excluded[i]] */\n      0xffffffffffffffffffffffffffffffffffffffff\n      and\n      0xffffffffffffffffffffffffffffffffffffffff\n      and\n      dup2\n      mstore\n      0x20\n      add\n      swap1\n      dup2\n      mstore\n      0x20\n      add\n      0x00\n      keccak256\n      sload\n        /* \"contracts/Pool/PoolPig.sol\":24836:24843  rSupply */\n      dup5\n        /* \"contracts/Pool/PoolPig.sol\":24836:24847  rSupply.sub */\n      tag_249\n      swap1\n        /* \"contracts/Pool/PoolPig.sol\":24836:24870  rSupply.sub(_rOwned[_excluded[i]]) */\n      swap2\n      swap1\n      0xffffffff\n      and\n      jump\t// in\n    tag_424:\n        /* \"contracts/Pool/PoolPig.sol\":24826:24870  rSupply = rSupply.sub(_rOwned[_excluded[i]]) */\n      swap3\n      pop\n        /* \"contracts/Pool/PoolPig.sol\":24894:24928  tSupply.sub(_tOwned[_excluded[i]]) */\n      tag_427\n        /* \"contracts/Pool/PoolPig.sol\":24906:24913  _tOwned */\n      0x04\n        /* \"contracts/Pool/PoolPig.sol\":24906:24927  _tOwned[_excluded[i]] */\n      0x00\n        /* \"contracts/Pool/PoolPig.sol\":24914:24923  _excluded */\n      0x08\n        /* \"contracts/Pool/PoolPig.sol\":24924:24925  i */\n      dup5\n        /* \"contracts/Pool/PoolPig.sol\":24914:24926  _excluded[i] */\n      dup2\n      sload\n      dup2\n      lt\n      tag_428\n      jumpi\n      invalid\n    tag_428:\n      swap1\n      0x00\n      mstore\n      keccak256(0x00, 0x20)\n      add\n      0x00\n      swap1\n      sload\n      swap1\n      0x0100\n      exp\n      swap1\n      div\n      0xffffffffffffffffffffffffffffffffffffffff\n      and\n        /* \"contracts/Pool/PoolPig.sol\":24906:24927  _tOwned[_excluded[i]] */\n      0xffffffffffffffffffffffffffffffffffffffff\n      and\n      0xffffffffffffffffffffffffffffffffffffffff\n      and\n      dup2\n      mstore\n      0x20\n      add\n      swap1\n      dup2\n      mstore\n      0x20\n      add\n      0x00\n      keccak256\n      sload\n        /* \"contracts/Pool/PoolPig.sol\":24894:24901  tSupply */\n      dup4\n        /* \"contracts/Pool/PoolPig.sol\":24894:24905  tSupply.sub */\n      tag_249\n      swap1\n        /* \"contracts/Pool/PoolPig.sol\":24894:24928  tSupply.sub(_tOwned[_excluded[i]]) */\n      swap2\n      swap1\n      0xffffffff\n      and\n      jump\t// in\n    tag_427:\n        /* \"contracts/Pool/PoolPig.sol\":24884:24928  tSupply = tSupply.sub(_tOwned[_excluded[i]]) */\n      swap2\n      pop\n        /* \"contracts/Pool/PoolPig.sol\":24696:24699  i++ */\n      dup1\n      dup1\n      0x01\n      add\n      swap2\n      pop\n      pop\n        /* \"contracts/Pool/PoolPig.sol\":24654:24939  for (uint256 i = 0; i < _excluded.length; i++) {... */\n      jump(tag_415)\n    tag_416:\n      pop\n        /* \"contracts/Pool/PoolPig.sol\":24962:24982  _rTotal.div(_tTotal) */\n      tag_430\n        /* \"contracts/Pool/PoolPig.sol\":15652:15670  1000000000 * 10**9 */\n      0x0de0b6b3a7640000\n        /* \"contracts/Pool/PoolPig.sol\":24962:24969  _rTotal */\n      sload(0x09)\n        /* \"contracts/Pool/PoolPig.sol\":24962:24973  _rTotal.div */\n      tag_218\n      swap1\n        /* \"contracts/Pool/PoolPig.sol\":24962:24982  _rTotal.div(_tTotal) */\n      swap2\n      swap1\n      0xffffffff\n      and\n      jump\t// in\n    tag_430:\n        /* \"contracts/Pool/PoolPig.sol\":24952:24959  rSupply */\n      dup3\n        /* \"contracts/Pool/PoolPig.sol\":24952:24982  rSupply < _rTotal.div(_tTotal) */\n      lt\n        /* \"contracts/Pool/PoolPig.sol\":24948:25009  if (rSupply < _rTotal.div(_tTotal)) return (_rTotal, _tTotal) */\n      iszero\n      tag_431\n      jumpi\n        /* \"contracts/Pool/PoolPig.sol\":24992:24999  _rTotal */\n      sload(0x09)\n        /* \"contracts/Pool/PoolPig.sol\":15652:15670  1000000000 * 10**9 */\n      0x0de0b6b3a7640000\n        /* \"contracts/Pool/PoolPig.sol\":24984:25009  return (_rTotal, _tTotal) */\n      swap4\n      pop\n      swap4\n      pop\n      pop\n      pop\n      jump(tag_414)\n        /* \"contracts/Pool/PoolPig.sol\":24948:25009  if (rSupply < _rTotal.div(_tTotal)) return (_rTotal, _tTotal) */\n    tag_431:\n        /* \"contracts/Pool/PoolPig.sol\":25027:25034  rSupply */\n      dup2\n        /* \"contracts/Pool/PoolPig.sol\":25036:25043  tSupply */\n      dup2\n        /* \"contracts/Pool/PoolPig.sol\":25019:25044  return (rSupply, tSupply) */\n      swap4\n      pop\n      swap4\n      pop\n      pop\n      pop\n        /* \"contracts/Pool/PoolPig.sol\":24500:25051  function _getCurrentSupply() private view returns(uint256, uint256) {... */\n    tag_414:\n      swap1\n      swap2\n      jump\t// out\n        /* \"contracts/Pool/PoolPig.sol\":1646:1918  function div(uint256 a, uint256 b, string memory errorMessage) internal pure returns (uint256) {... */\n    tag_362:\n        /* \"contracts/Pool/PoolPig.sol\":1732:1739  uint256 */\n      0x00\n        /* \"contracts/Pool/PoolPig.sol\":1763:1764  0 */\n      dup1\n        /* \"contracts/Pool/PoolPig.sol\":1759:1760  b */\n      dup4\n        /* \"contracts/Pool/PoolPig.sol\":1759:1764  b > 0 */\n      gt\n        /* \"contracts/Pool/PoolPig.sol\":1766:1778  errorMessage */\n      dup3\n        /* \"contracts/Pool/PoolPig.sol\":1751:1779  require(b > 0, errorMessage) */\n      swap1\n      tag_433\n      jumpi\n      mload(0x40)\n      0x08c379a000000000000000000000000000000000000000000000000000000000\n      dup2\n      mstore\n      0x04\n      add\n      dup1\n      dup1\n      0x20\n      add\n      dup3\n      dup2\n      sub\n      dup3\n      mstore\n      dup4\n      dup2\n      dup2\n      mload\n      dup2\n      mstore\n      0x20\n      add\n      swap2\n      pop\n      dup1\n      mload\n      swap1\n      0x20\n      add\n      swap1\n      dup1\n      dup4\n      dup4\n      0x00\n    tag_434:\n      dup4\n      dup2\n      lt\n      iszero\n      tag_436\n      jumpi\n      dup1\n      dup3\n      add\n      mload\n      dup2\n      dup5\n      add\n      mstore\n      0x20\n      dup2\n      add\n      swap1\n      pop\n      jump(tag_434)\n    tag_436:\n      pop\n      pop\n      pop\n      pop\n      swap1\n      pop\n      swap1\n      dup2\n      add\n      swap1\n      0x1f\n      and\n      dup1\n      iszero\n      tag_437\n      jumpi\n      dup1\n      dup3\n      sub\n      dup1\n      mload\n      0x01\n      dup4\n      0x20\n      sub\n      0x0100\n      exp\n      sub\n      not\n      and\n      dup2\n      mstore\n      0x20\n      add\n      swap2\n      pop\n    tag_437:\n      pop\n      swap3\n      pop\n      pop\n      pop\n      mload(0x40)\n      dup1\n      swap2\n      sub\n      swap1\n      revert\n    tag_433:\n      pop\n        /* \"contracts/Pool/PoolPig.sol\":1789:1798  uint256 c */\n      0x00\n        /* \"contracts/Pool/PoolPig.sol\":1805:1806  b */\n      dup4\n        /* \"contracts/Pool/PoolPig.sol\":1801:1802  a */\n      dup6\n        /* \"contracts/Pool/PoolPig.sol\":1801:1806  a / b */\n      dup2\n      tag_438\n      jumpi\n      invalid\n    tag_438:\n      div\n        /* \"contracts/Pool/PoolPig.sol\":1789:1806  uint256 c = a / b */\n      swap1\n      pop\n        /* \"contracts/Pool/PoolPig.sol\":1910:1911  c */\n      dup1\n        /* \"contracts/Pool/PoolPig.sol\":1903:1911  return c */\n      swap2\n      pop\n      pop\n        /* \"contracts/Pool/PoolPig.sol\":1646:1918  function div(uint256 a, uint256 b, string memory errorMessage) internal pure returns (uint256) {... */\n      swap4\n      swap3\n      pop\n      pop\n      pop\n      jump\t// out\n        /* \"contracts/Pool/PoolPig.sol\":23574:23899  function _getTValues(uint256 tAmount) private view returns (uint256, uint256, uint256) {... */\n    tag_367:\n        /* \"contracts/Pool/PoolPig.sol\":23634:23641  uint256 */\n      0x00\n        /* \"contracts/Pool/PoolPig.sol\":23643:23650  uint256 */\n      dup1\n        /* \"contracts/Pool/PoolPig.sol\":23652:23659  uint256 */\n      0x00\n        /* \"contracts/Pool/PoolPig.sol\":23671:23683  uint256 tFee */\n      dup1\n        /* \"contracts/Pool/PoolPig.sol\":23686:23710  calculateTaxFee(tAmount) */\n      tag_440\n        /* \"contracts/Pool/PoolPig.sol\":23702:23709  tAmount */\n      dup6\n        /* \"contracts/Pool/PoolPig.sol\":23686:23701  calculateTaxFee */\n      tag_441\n        /* \"contracts/Pool/PoolPig.sol\":23686:23710  calculateTaxFee(tAmount) */\n      jump\t// in\n    tag_440:\n        /* \"contracts/Pool/PoolPig.sol\":23671:23710  uint256 tFee = calculateTaxFee(tAmount) */\n      swap1\n      pop\n        /* \"contracts/Pool/PoolPig.sol\":23720:23738  uint256 tLiquidity */\n      0x00\n        /* \"contracts/Pool/PoolPig.sol\":23741:23771  calculateLiquidityFee(tAmount) */\n      tag_442\n        /* \"contracts/Pool/PoolPig.sol\":23763:23770  tAmount */\n      dup7\n        /* \"contracts/Pool/PoolPig.sol\":23741:23762  calculateLiquidityFee */\n      tag_443\n        /* \"contracts/Pool/PoolPig.sol\":23741:23771  calculateLiquidityFee(tAmount) */\n      jump\t// in\n    tag_442:\n        /* \"contracts/Pool/PoolPig.sol\":23720:23771  uint256 tLiquidity = calculateLiquidityFee(tAmount) */\n      swap1\n      pop\n        /* \"contracts/Pool/PoolPig.sol\":23781:23804  uint256 tTransferAmount */\n      0x00\n        /* \"contracts/Pool/PoolPig.sol\":23807:23840  tAmount.sub(tFee).sub(tLiquidity) */\n      tag_444\n        /* \"contracts/Pool/PoolPig.sol\":23829:23839  tLiquidity */\n      dup3\n        /* \"contracts/Pool/PoolPig.sol\":23807:23824  tAmount.sub(tFee) */\n      tag_445\n        /* \"contracts/Pool/PoolPig.sol\":23819:23823  tFee */\n      dup6\n        /* \"contracts/Pool/PoolPig.sol\":23807:23814  tAmount */\n      dup11\n        /* \"contracts/Pool/PoolPig.sol\":23807:23818  tAmount.sub */\n      tag_249\n      swap1\n        /* \"contracts/Pool/PoolPig.sol\":23807:23824  tAmount.sub(tFee) */\n      swap2\n      swap1\n      0xffffffff\n      and\n      jump\t// in\n    tag_445:\n        /* \"contracts/Pool/PoolPig.sol\":23807:23828  tAmount.sub(tFee).sub */\n      tag_249\n      swap1\n        /* \"contracts/Pool/PoolPig.sol\":23807:23840  tAmount.sub(tFee).sub(tLiquidity) */\n      swap2\n      swap1\n      0xffffffff\n      and\n      jump\t// in\n    tag_444:\n        /* \"contracts/Pool/PoolPig.sol\":23781:23840  uint256 tTransferAmount = tAmount.sub(tFee).sub(tLiquidity) */\n      swap1\n      pop\n        /* \"contracts/Pool/PoolPig.sol\":23858:23873  tTransferAmount */\n      dup1\n        /* \"contracts/Pool/PoolPig.sol\":23875:23879  tFee */\n      dup4\n        /* \"contracts/Pool/PoolPig.sol\":23881:23891  tLiquidity */\n      dup4\n        /* \"contracts/Pool/PoolPig.sol\":23850:23892  return (tTransferAmount, tFee, tLiquidity) */\n      swap6\n      pop\n      swap6\n      pop\n      swap6\n      pop\n      pop\n      pop\n      pop\n        /* \"contracts/Pool/PoolPig.sol\":23574:23899  function _getTValues(uint256 tAmount) private view returns (uint256, uint256, uint256) {... */\n      swap2\n      swap4\n      swap1\n      swap3\n      pop\n      jump\t// out\n        /* \"contracts/Pool/PoolPig.sol\":23905:24328  function _getRValues(uint256 tAmount, uint256 tFee, uint256 tLiquidity, uint256 currentRate) private pure returns (uint256, uint256, uint256) {... */\n    tag_370:\n        /* \"contracts/Pool/PoolPig.sol\":24020:24027  uint256 */\n      0x00\n        /* \"contracts/Pool/PoolPig.sol\":24029:24036  uint256 */\n      dup1\n        /* \"contracts/Pool/PoolPig.sol\":24038:24045  uint256 */\n      0x00\n        /* \"contracts/Pool/PoolPig.sol\":24057:24072  uint256 rAmount */\n      dup1\n        /* \"contracts/Pool/PoolPig.sol\":24075:24099  tAmount.mul(currentRate) */\n      tag_447\n        /* \"contracts/Pool/PoolPig.sol\":24087:24098  currentRate */\n      dup6\n        /* \"contracts/Pool/PoolPig.sol\":24075:24082  tAmount */\n      dup10\n        /* \"contracts/Pool/PoolPig.sol\":24075:24086  tAmount.mul */\n      tag_310\n      swap1\n        /* \"contracts/Pool/PoolPig.sol\":24075:24099  tAmount.mul(currentRate) */\n      swap2\n      swap1\n      0xffffffff\n      and\n      jump\t// in\n    tag_447:\n        /* \"contracts/Pool/PoolPig.sol\":24057:24099  uint256 rAmount = tAmount.mul(currentRate) */\n      swap1\n      pop\n        /* \"contracts/Pool/PoolPig.sol\":24109:24121  uint256 rFee */\n      0x00\n        /* \"contracts/Pool/PoolPig.sol\":24124:24145  tFee.mul(currentRate) */\n      tag_448\n        /* \"contracts/Pool/PoolPig.sol\":24133:24144  currentRate */\n      dup7\n        /* \"contracts/Pool/PoolPig.sol\":24124:24128  tFee */\n      dup10\n        /* \"contracts/Pool/PoolPig.sol\":24124:24132  tFee.mul */\n      tag_310\n      swap1\n        /* \"contracts/Pool/PoolPig.sol\":24124:24145  tFee.mul(currentRate) */\n      swap2\n      swap1\n      0xffffffff\n      and\n      jump\t// in\n    tag_448:\n        /* \"contracts/Pool/PoolPig.sol\":24109:24145  uint256 rFee = tFee.mul(currentRate) */\n      swap1\n      pop\n        /* \"contracts/Pool/PoolPig.sol\":24155:24173  uint256 rLiquidity */\n      0x00\n        /* \"contracts/Pool/PoolPig.sol\":24176:24203  tLiquidity.mul(currentRate) */\n      tag_449\n        /* \"contracts/Pool/PoolPig.sol\":24191:24202  currentRate */\n      dup8\n        /* \"contracts/Pool/PoolPig.sol\":24176:24186  tLiquidity */\n      dup10\n        /* \"contracts/Pool/PoolPig.sol\":24176:24190  tLiquidity.mul */\n      tag_310\n      swap1\n        /* \"contracts/Pool/PoolPig.sol\":24176:24203  tLiquidity.mul(currentRate) */\n      swap2\n      swap1\n      0xffffffff\n      and\n      jump\t// in\n    tag_449:\n        /* \"contracts/Pool/PoolPig.sol\":24155:24203  uint256 rLiquidity = tLiquidity.mul(currentRate) */\n      swap1\n      pop\n        /* \"contracts/Pool/PoolPig.sol\":24213:24236  uint256 rTransferAmount */\n      0x00\n        /* \"contracts/Pool/PoolPig.sol\":24239:24272  rAmount.sub(rFee).sub(rLiquidity) */\n      tag_450\n        /* \"contracts/Pool/PoolPig.sol\":24261:24271  rLiquidity */\n      dup3\n        /* \"contracts/Pool/PoolPig.sol\":24239:24256  rAmount.sub(rFee) */\n      tag_451\n        /* \"contracts/Pool/PoolPig.sol\":24251:24255  rFee */\n      dup6\n        /* \"contracts/Pool/PoolPig.sol\":24239:24246  rAmount */\n      dup8\n        /* \"contracts/Pool/PoolPig.sol\":24239:24250  rAmount.sub */\n      tag_249\n      swap1\n        /* \"contracts/Pool/PoolPig.sol\":24239:24256  rAmount.sub(rFee) */\n      swap2\n      swap1\n      0xffffffff\n      and\n      jump\t// in\n    tag_451:\n        /* \"contracts/Pool/PoolPig.sol\":24239:24260  rAmount.sub(rFee).sub */\n      tag_249\n      swap1\n        /* \"contracts/Pool/PoolPig.sol\":24239:24272  rAmount.sub(rFee).sub(rLiquidity) */\n      swap2\n      swap1\n      0xffffffff\n      and\n      jump\t// in\n    tag_450:\n        /* \"contracts/Pool/PoolPig.sol\":24213:24272  uint256 rTransferAmount = rAmount.sub(rFee).sub(rLiquidity) */\n      swap1\n      pop\n        /* \"contracts/Pool/PoolPig.sol\":24290:24297  rAmount */\n      dup4\n        /* \"contracts/Pool/PoolPig.sol\":24299:24314  rTransferAmount */\n      dup2\n        /* \"contracts/Pool/PoolPig.sol\":24316:24320  rFee */\n      dup5\n        /* \"contracts/Pool/PoolPig.sol\":24282:24321  return (rAmount, rTransferAmount, rFee) */\n      swap7\n      pop\n      swap7\n      pop\n      swap7\n      pop\n      pop\n      pop\n      pop\n      pop\n        /* \"contracts/Pool/PoolPig.sol\":23905:24328  function _getRValues(uint256 tAmount, uint256 tFee, uint256 tLiquidity, uint256 currentRate) private pure returns (uint256, uint256, uint256) {... */\n      swap5\n      pop\n      swap5\n      pop\n      swap5\n      swap2\n      pop\n      pop\n      jump\t// out\n        /* \"contracts/Pool/PoolPig.sol\":29064:29637  function swapTokensForEth(uint256 tokenAmount) private {... */\n    tag_382:\n        /* \"contracts/Pool/PoolPig.sol\":29188:29209  address[] memory path */\n      0x60\n        /* \"contracts/Pool/PoolPig.sol\":29226:29227  2 */\n      0x02\n        /* \"contracts/Pool/PoolPig.sol\":29212:29228  new address[](2) */\n      0xffffffffffffffff\n      dup2\n      gt\n      dup1\n      iszero\n      tag_453\n      jumpi\n      0x00\n      dup1\n      revert\n    tag_453:\n      pop\n      mload(0x40)\n      swap1\n      dup1\n      dup3\n      mstore\n      dup1\n      0x20\n      mul\n      0x20\n      add\n      dup3\n      add\n      0x40\n      mstore\n      dup1\n      iszero\n      tag_454\n      jumpi\n      dup2\n      0x20\n      add\n      0x20\n      dup3\n      mul\n      dup1\n      calldatasize\n      dup4\n      calldatacopy\n      dup1\n      dup3\n      add\n      swap2\n      pop\n      pop\n      swap1\n      pop\n    tag_454:\n      pop\n        /* \"contracts/Pool/PoolPig.sol\":29188:29228  address[] memory path = new address[](2) */\n      swap1\n      pop\n        /* \"contracts/Pool/PoolPig.sol\":29256:29260  this */\n      address\n        /* \"contracts/Pool/PoolPig.sol\":29238:29242  path */\n      dup2\n        /* \"contracts/Pool/PoolPig.sol\":29243:29244  0 */\n      0x00\n        /* \"contracts/Pool/PoolPig.sol\":29238:29245  path[0] */\n      dup2\n      mload\n      dup2\n      lt\n      tag_455\n      jumpi\n      invalid\n    tag_455:\n      0x20\n      mul\n      0x20\n      add\n      add\n        /* \"contracts/Pool/PoolPig.sol\":29238:29261  path[0] = address(this) */\n      swap1\n      0xffffffffffffffffffffffffffffffffffffffff\n      and\n      swap1\n      dup2\n      0xffffffffffffffffffffffffffffffffffffffff\n      and\n      dup2\n      mstore\n      pop\n      pop\n        /* \"contracts/Pool/PoolPig.sol\":29281:29296  uniswapV2Router */\n      immutable(\"0xcbd30de1da04efa9e9dfb752a21e23c2c0c1de652015c52c119403b61435944f\")\n        /* \"contracts/Pool/PoolPig.sol\":29281:29301  uniswapV2Router.WETH */\n      0xffffffffffffffffffffffffffffffffffffffff\n      and\n      0xad5c4648\n        /* \"contracts/Pool/PoolPig.sol\":29281:29303  uniswapV2Router.WETH() */\n      mload(0x40)\n      dup2\n      0xffffffff\n      and\n      0xe0\n      shl\n      dup2\n      mstore\n      0x04\n      add\n      0x20\n      mload(0x40)\n      dup1\n      dup4\n      sub\n      dup2\n      dup7\n      dup1\n      extcodesize\n      iszero\n      dup1\n      iszero\n      tag_456\n      jumpi\n      0x00\n      dup1\n      revert\n    tag_456:\n      pop\n      gas\n      staticcall\n      iszero\n      dup1\n      iszero\n      tag_458\n      jumpi\n      returndatasize\n      0x00\n      dup1\n      returndatacopy\n      revert(0x00, returndatasize)\n    tag_458:\n      pop\n      pop\n      pop\n      pop\n      mload(0x40)\n      returndatasize\n      0x20\n      dup2\n      lt\n      iszero\n      tag_459\n      jumpi\n      0x00\n      dup1\n      revert\n    tag_459:\n      dup2\n      add\n      swap1\n      dup1\n      dup1\n      mload\n      swap1\n      0x20\n      add\n      swap1\n      swap3\n      swap2\n      swap1\n      pop\n      pop\n      pop\n        /* \"contracts/Pool/PoolPig.sol\":29271:29275  path */\n      dup2\n        /* \"contracts/Pool/PoolPig.sol\":29276:29277  1 */\n      0x01\n        /* \"contracts/Pool/PoolPig.sol\":29271:29278  path[1] */\n      dup2\n      mload\n      dup2\n      lt\n      tag_460\n      jumpi\n      invalid\n    tag_460:\n      0x20\n      mul\n      0x20\n      add\n      add\n        /* \"contracts/Pool/PoolPig.sol\":29271:29303  path[1] = uniswapV2Router.WETH() */\n      swap1\n      0xffffffffffffffffffffffffffffffffffffffff\n      and\n      swap1\n      dup2\n      0xffffffffffffffffffffffffffffffffffffffff\n      and\n      dup2\n      mstore\n      pop\n      pop\n        /* \"contracts/Pool/PoolPig.sol\":29314:29376  _approve(address(this), address(uniswapV2Router), tokenAmount) */\n      tag_461\n        /* \"contracts/Pool/PoolPig.sol\":29331:29335  this */\n      address\n        /* \"contracts/Pool/PoolPig.sol\":29346:29361  uniswapV2Router */\n      immutable(\"0xcbd30de1da04efa9e9dfb752a21e23c2c0c1de652015c52c119403b61435944f\")\n        /* \"contracts/Pool/PoolPig.sol\":29364:29375  tokenAmount */\n      dup5\n        /* \"contracts/Pool/PoolPig.sol\":29314:29322  _approve */\n      tag_202\n        /* \"contracts/Pool/PoolPig.sol\":29314:29376  _approve(address(this), address(uniswapV2Router), tokenAmount) */\n      jump\t// in\n    tag_461:\n        /* \"contracts/Pool/PoolPig.sol\":29412:29427  uniswapV2Router */\n      immutable(\"0xcbd30de1da04efa9e9dfb752a21e23c2c0c1de652015c52c119403b61435944f\")\n        /* \"contracts/Pool/PoolPig.sol\":29412:29478  uniswapV2Router.swapExactTokensForETHSupportingFeeOnTransferTokens */\n      0xffffffffffffffffffffffffffffffffffffffff\n      and\n      0x791ac947\n        /* \"contracts/Pool/PoolPig.sol\":29492:29503  tokenAmount */\n      dup4\n        /* \"contracts/Pool/PoolPig.sol\":29517:29518  0 */\n      0x00\n        /* \"contracts/Pool/PoolPig.sol\":29560:29564  path */\n      dup5\n        /* \"contracts/Pool/PoolPig.sol\":29586:29590  this */\n      address\n        /* \"contracts/Pool/PoolPig.sol\":29605:29620  block.timestamp */\n      timestamp\n        /* \"contracts/Pool/PoolPig.sol\":29412:29630  uniswapV2Router.swapExactTokensForETHSupportingFeeOnTransferTokens(... */\n      mload(0x40)\n      dup7\n      0xffffffff\n      and\n      0xe0\n      shl\n      dup2\n      mstore\n      0x04\n      add\n      dup1\n      dup7\n      dup2\n      mstore\n      0x20\n      add\n      dup6\n      dup2\n      mstore\n      0x20\n      add\n      dup1\n      0x20\n      add\n      dup5\n      0xffffffffffffffffffffffffffffffffffffffff\n      and\n      dup2\n      mstore\n      0x20\n      add\n      dup4\n      dup2\n      mstore\n      0x20\n      add\n      dup3\n      dup2\n      sub\n      dup3\n      mstore\n      dup6\n      dup2\n      dup2\n      mload\n      dup2\n      mstore\n      0x20\n      add\n      swap2\n      pop\n      dup1\n      mload\n      swap1\n      0x20\n      add\n      swap1\n      0x20\n      mul\n      dup1\n      dup4\n      dup4\n      0x00\n    tag_462:\n      dup4\n      dup2\n      lt\n      iszero\n      tag_464\n      jumpi\n      dup1\n      dup3\n      add\n      mload\n      dup2\n      dup5\n      add\n      mstore\n      0x20\n      dup2\n      add\n      swap1\n      pop\n      jump(tag_462)\n    tag_464:\n      pop\n      pop\n      pop\n      pop\n      swap1\n      pop\n      add\n      swap7\n      pop\n      pop\n      pop\n      pop\n      pop\n      pop\n      pop\n      0x00\n      mload(0x40)\n      dup1\n      dup4\n      sub\n      dup2\n      0x00\n      dup8\n      dup1\n      extcodesize\n      iszero\n      dup1\n      iszero\n      tag_465\n      jumpi\n      0x00\n      dup1\n      revert\n    tag_465:\n      pop\n      gas\n      call\n      iszero\n      dup1\n      iszero\n      tag_467\n      jumpi\n      returndatasize\n      0x00\n      dup1\n      returndatacopy\n      revert(0x00, returndatasize)\n    tag_467:\n      pop\n      pop\n      pop\n      pop\n        /* \"contracts/Pool/PoolPig.sol\":29064:29637  function swapTokensForEth(uint256 tokenAmount) private {... */\n      pop\n      pop\n      jump\t// out\n        /* \"contracts/Pool/PoolPig.sol\":29643:30143  function addLiquidity(uint256 tokenAmount, uint256 ethAmount) private {... */\n    tag_385:\n        /* \"contracts/Pool/PoolPig.sol\":29789:29851  _approve(address(this), address(uniswapV2Router), tokenAmount) */\n      tag_469\n        /* \"contracts/Pool/PoolPig.sol\":29806:29810  this */\n      address\n        /* \"contracts/Pool/PoolPig.sol\":29821:29836  uniswapV2Router */\n      immutable(\"0xcbd30de1da04efa9e9dfb752a21e23c2c0c1de652015c52c119403b61435944f\")\n        /* \"contracts/Pool/PoolPig.sol\":29839:29850  tokenAmount */\n      dup5\n        /* \"contracts/Pool/PoolPig.sol\":29789:29797  _approve */\n      tag_202\n        /* \"contracts/Pool/PoolPig.sol\":29789:29851  _approve(address(this), address(uniswapV2Router), tokenAmount) */\n      jump\t// in\n    tag_469:\n        /* \"contracts/Pool/PoolPig.sol\":29891:29906  uniswapV2Router */\n      immutable(\"0xcbd30de1da04efa9e9dfb752a21e23c2c0c1de652015c52c119403b61435944f\")\n        /* \"contracts/Pool/PoolPig.sol\":29891:29922  uniswapV2Router.addLiquidityETH */\n      0xffffffffffffffffffffffffffffffffffffffff\n      and\n      0xf305d719\n        /* \"contracts/Pool/PoolPig.sol\":29930:29939  ethAmount */\n      dup3\n        /* \"contracts/Pool/PoolPig.sol\":29962:29966  this */\n      address\n        /* \"contracts/Pool/PoolPig.sol\":29981:29992  tokenAmount */\n      dup6\n        /* \"contracts/Pool/PoolPig.sol\":30006:30007  0 */\n      0x00\n        /* \"contracts/Pool/PoolPig.sol\":30048:30049  0 */\n      dup1\n        /* \"contracts/Pool/PoolPig.sol\":30090:30097  owner() */\n      tag_470\n        /* \"contracts/Pool/PoolPig.sol\":30090:30095  owner */\n      tag_140\n        /* \"contracts/Pool/PoolPig.sol\":30090:30097  owner() */\n      jump\t// in\n    tag_470:\n        /* \"contracts/Pool/PoolPig.sol\":30111:30126  block.timestamp */\n      timestamp\n        /* \"contracts/Pool/PoolPig.sol\":29891:30136  uniswapV2Router.addLiquidityETH{value: ethAmount}(... */\n      mload(0x40)\n      dup9\n      0xffffffff\n      and\n      0xe0\n      shl\n      dup2\n      mstore\n      0x04\n      add\n      dup1\n      dup8\n      0xffffffffffffffffffffffffffffffffffffffff\n      and\n      dup2\n      mstore\n      0x20\n      add\n      dup7\n      dup2\n      mstore\n      0x20\n      add\n      dup6\n      dup2\n      mstore\n      0x20\n      add\n      dup5\n      dup2\n      mstore\n      0x20\n      add\n      dup4\n      0xffffffffffffffffffffffffffffffffffffffff\n      and\n      dup2\n      mstore\n      0x20\n      add\n      dup3\n      dup2\n      mstore\n      0x20\n      add\n      swap7\n      pop\n      pop\n      pop\n      pop\n      pop\n      pop\n      pop\n      0x60\n      mload(0x40)\n      dup1\n      dup4\n      sub\n      dup2\n      dup6\n      dup9\n      dup1\n      extcodesize\n      iszero\n      dup1\n      iszero\n      tag_471\n      jumpi\n      0x00\n      dup1\n      revert\n    tag_471:\n      pop\n      gas\n      call\n      iszero\n      dup1\n      iszero\n      tag_473\n      jumpi\n      returndatasize\n      0x00\n      dup1\n      returndatacopy\n      revert(0x00, returndatasize)\n    tag_473:\n      pop\n      pop\n      pop\n      pop\n      pop\n      mload(0x40)\n      returndatasize\n      0x60\n      dup2\n      lt\n      iszero\n      tag_474\n      jumpi\n      0x00\n      dup1\n      revert\n    tag_474:\n      dup2\n      add\n      swap1\n      dup1\n      dup1\n      mload\n      swap1\n      0x20\n      add\n      swap1\n      swap3\n      swap2\n      swap1\n      dup1\n      mload\n      swap1\n      0x20\n      add\n      swap1\n      swap3\n      swap2\n      swap1\n      dup1\n      mload\n      swap1\n      0x20\n      add\n      swap1\n      swap3\n      swap2\n      swap1\n      pop\n      pop\n      pop\n      pop\n      pop\n      pop\n        /* \"contracts/Pool/PoolPig.sol\":29643:30143  function addLiquidity(uint256 tokenAmount, uint256 ethAmount) private {... */\n      pop\n      pop\n      jump\t// out\n        /* \"contracts/Pool/PoolPig.sol\":25748:25990  function removeAllFee() private {... */\n    tag_389:\n        /* \"contracts/Pool/PoolPig.sol\":25804:25805  0 */\n      0x00\n        /* \"contracts/Pool/PoolPig.sol\":25793:25800  _taxFee */\n      sload(0x0e)\n        /* \"contracts/Pool/PoolPig.sol\":25793:25805  _taxFee == 0 */\n      eq\n        /* \"contracts/Pool/PoolPig.sol\":25793:25827  _taxFee == 0 && _liquidityFee == 0 */\n      dup1\n      iszero\n      tag_476\n      jumpi\n      pop\n        /* \"contracts/Pool/PoolPig.sol\":25826:25827  0 */\n      0x00\n        /* \"contracts/Pool/PoolPig.sol\":25809:25822  _liquidityFee */\n      sload(0x10)\n        /* \"contracts/Pool/PoolPig.sol\":25809:25827  _liquidityFee == 0 */\n      eq\n        /* \"contracts/Pool/PoolPig.sol\":25793:25827  _taxFee == 0 && _liquidityFee == 0 */\n    tag_476:\n        /* \"contracts/Pool/PoolPig.sol\":25790:25836  if(_taxFee == 0 && _liquidityFee == 0) return; */\n      iszero\n      tag_477\n      jumpi\n        /* \"contracts/Pool/PoolPig.sol\":25829:25836  return; */\n      jump(tag_475)\n        /* \"contracts/Pool/PoolPig.sol\":25790:25836  if(_taxFee == 0 && _liquidityFee == 0) return; */\n    tag_477:\n        /* \"contracts/Pool/PoolPig.sol\":25872:25879  _taxFee */\n      sload(0x0e)\n        /* \"contracts/Pool/PoolPig.sol\":25854:25869  _previousTaxFee */\n      0x0f\n        /* \"contracts/Pool/PoolPig.sol\":25854:25879  _previousTaxFee = _taxFee */\n      dup2\n      swap1\n      sstore\n      pop\n        /* \"contracts/Pool/PoolPig.sol\":25913:25926  _liquidityFee */\n      sload(0x10)\n        /* \"contracts/Pool/PoolPig.sol\":25889:25910  _previousLiquidityFee */\n      0x11\n        /* \"contracts/Pool/PoolPig.sol\":25889:25926  _previousLiquidityFee = _liquidityFee */\n      dup2\n      swap1\n      sstore\n      pop\n        /* \"contracts/Pool/PoolPig.sol\":25955:25956  0 */\n      0x00\n        /* \"contracts/Pool/PoolPig.sol\":25945:25952  _taxFee */\n      0x0e\n        /* \"contracts/Pool/PoolPig.sol\":25945:25956  _taxFee = 0 */\n      dup2\n      swap1\n      sstore\n      pop\n        /* \"contracts/Pool/PoolPig.sol\":25982:25983  0 */\n      0x00\n        /* \"contracts/Pool/PoolPig.sol\":25966:25979  _liquidityFee */\n      0x10\n        /* \"contracts/Pool/PoolPig.sol\":25966:25983  _liquidityFee = 0 */\n      dup2\n      swap1\n      sstore\n      pop\n        /* \"contracts/Pool/PoolPig.sol\":25748:25990  function removeAllFee() private {... */\n    tag_475:\n      jump\t// out\n        /* \"contracts/Pool/PoolPig.sol\":32128:32686  function _transferFromExcluded(address sender, address recipient, uint256 tAmount) private {... */\n    tag_393:\n        /* \"contracts/Pool/PoolPig.sol\":32230:32245  uint256 rAmount */\n      0x00\n        /* \"contracts/Pool/PoolPig.sol\":32247:32270  uint256 rTransferAmount */\n      dup1\n        /* \"contracts/Pool/PoolPig.sol\":32272:32284  uint256 rFee */\n      0x00\n        /* \"contracts/Pool/PoolPig.sol\":32286:32309  uint256 tTransferAmount */\n      dup1\n        /* \"contracts/Pool/PoolPig.sol\":32311:32323  uint256 tFee */\n      0x00\n        /* \"contracts/Pool/PoolPig.sol\":32325:32343  uint256 tLiquidity */\n      dup1\n        /* \"contracts/Pool/PoolPig.sol\":32347:32366  _getValues(tAmount) */\n      tag_479\n        /* \"contracts/Pool/PoolPig.sol\":32358:32365  tAmount */\n      dup8\n        /* \"contracts/Pool/PoolPig.sol\":32347:32357  _getValues */\n      tag_247\n        /* \"contracts/Pool/PoolPig.sol\":32347:32366  _getValues(tAmount) */\n      jump\t// in\n    tag_479:\n        /* \"contracts/Pool/PoolPig.sol\":32229:32366  (uint256 rAmount, uint256 rTransferAmount, uint256 rFee, uint256 tTransferAmount, uint256 tFee, uint256 tLiquidity) = _getValues(tAmount) */\n      swap6\n      pop\n      swap6\n      pop\n      swap6\n      pop\n      swap6\n      pop\n      swap6\n      pop\n      swap6\n      pop\n        /* \"contracts/Pool/PoolPig.sol\":32394:32422  _tOwned[sender].sub(tAmount) */\n      tag_480\n        /* \"contracts/Pool/PoolPig.sol\":32414:32421  tAmount */\n      dup8\n        /* \"contracts/Pool/PoolPig.sol\":32394:32401  _tOwned */\n      0x04\n        /* \"contracts/Pool/PoolPig.sol\":32394:32409  _tOwned[sender] */\n      0x00\n        /* \"contracts/Pool/PoolPig.sol\":32402:32408  sender */\n      dup13\n        /* \"contracts/Pool/PoolPig.sol\":32394:32409  _tOwned[sender] */\n      0xffffffffffffffffffffffffffffffffffffffff\n      and\n      0xffffffffffffffffffffffffffffffffffffffff\n      and\n      dup2\n      mstore\n      0x20\n      add\n      swap1\n      dup2\n      mstore\n      0x20\n      add\n      0x00\n      keccak256\n      sload\n        /* \"contracts/Pool/PoolPig.sol\":32394:32413  _tOwned[sender].sub */\n      tag_249\n      swap1\n        /* \"contracts/Pool/PoolPig.sol\":32394:32422  _tOwned[sender].sub(tAmount) */\n      swap2\n      swap1\n      0xffffffff\n      and\n      jump\t// in\n    tag_480:\n        /* \"contracts/Pool/PoolPig.sol\":32376:32383  _tOwned */\n      0x04\n        /* \"contracts/Pool/PoolPig.sol\":32376:32391  _tOwned[sender] */\n      0x00\n        /* \"contracts/Pool/PoolPig.sol\":32384:32390  sender */\n      dup12\n        /* \"contracts/Pool/PoolPig.sol\":32376:32391  _tOwned[sender] */\n      0xffffffffffffffffffffffffffffffffffffffff\n      and\n      0xffffffffffffffffffffffffffffffffffffffff\n      and\n      dup2\n      mstore\n      0x20\n      add\n      swap1\n      dup2\n      mstore\n      0x20\n      add\n      0x00\n      keccak256\n        /* \"contracts/Pool/PoolPig.sol\":32376:32422  _tOwned[sender] = _tOwned[sender].sub(tAmount) */\n      dup2\n      swap1\n      sstore\n      pop\n        /* \"contracts/Pool/PoolPig.sol\":32450:32478  _rOwned[sender].sub(rAmount) */\n      tag_481\n        /* \"contracts/Pool/PoolPig.sol\":32470:32477  rAmount */\n      dup7\n        /* \"contracts/Pool/PoolPig.sol\":32450:32457  _rOwned */\n      0x03\n        /* \"contracts/Pool/PoolPig.sol\":32450:32465  _rOwned[sender] */\n      0x00\n        /* \"contracts/Pool/PoolPig.sol\":32458:32464  sender */\n      dup13\n        /* \"contracts/Pool/PoolPig.sol\":32450:32465  _rOwned[sender] */\n      0xffffffffffffffffffffffffffffffffffffffff\n      and\n      0xffffffffffffffffffffffffffffffffffffffff\n      and\n      dup2\n      mstore\n      0x20\n      add\n      swap1\n      dup2\n      mstore\n      0x20\n      add\n      0x00\n      keccak256\n      sload\n        /* \"contracts/Pool/PoolPig.sol\":32450:32469  _rOwned[sender].sub */\n      tag_249\n      swap1\n        /* \"contracts/Pool/PoolPig.sol\":32450:32478  _rOwned[sender].sub(rAmount) */\n      swap2\n      swap1\n      0xffffffff\n      and\n      jump\t// in\n    tag_481:\n        /* \"contracts/Pool/PoolPig.sol\":32432:32439  _rOwned */\n      0x03\n        /* \"contracts/Pool/PoolPig.sol\":32432:32447  _rOwned[sender] */\n      0x00\n        /* \"contracts/Pool/PoolPig.sol\":32440:32446  sender */\n      dup12\n        /* \"contracts/Pool/PoolPig.sol\":32432:32447  _rOwned[sender] */\n      0xffffffffffffffffffffffffffffffffffffffff\n      and\n      0xffffffffffffffffffffffffffffffffffffffff\n      and\n      dup2\n      mstore\n      0x20\n      add\n      swap1\n      dup2\n      mstore\n      0x20\n      add\n      0x00\n      keccak256\n        /* \"contracts/Pool/PoolPig.sol\":32432:32478  _rOwned[sender] = _rOwned[sender].sub(rAmount) */\n      dup2\n      swap1\n      sstore\n      pop\n        /* \"contracts/Pool/PoolPig.sol\":32509:32548  _rOwned[recipient].add(rTransferAmount) */\n      tag_482\n        /* \"contracts/Pool/PoolPig.sol\":32532:32547  rTransferAmount */\n      dup6\n        /* \"contracts/Pool/PoolPig.sol\":32509:32516  _rOwned */\n      0x03\n        /* \"contracts/Pool/PoolPig.sol\":32509:32527  _rOwned[recipient] */\n      0x00\n        /* \"contracts/Pool/PoolPig.sol\":32517:32526  recipient */\n      dup12\n        /* \"contracts/Pool/PoolPig.sol\":32509:32527  _rOwned[recipient] */\n      0xffffffffffffffffffffffffffffffffffffffff\n      and\n      0xffffffffffffffffffffffffffffffffffffffff\n      and\n      dup2\n      mstore\n      0x20\n      add\n      swap1\n      dup2\n      mstore\n      0x20\n      add\n      0x00\n      keccak256\n      sload\n        /* \"contracts/Pool/PoolPig.sol\":32509:32531  _rOwned[recipient].add */\n      tag_242\n      swap1\n        /* \"contracts/Pool/PoolPig.sol\":32509:32548  _rOwned[recipient].add(rTransferAmount) */\n      swap2\n      swap1\n      0xffffffff\n      and\n      jump\t// in\n    tag_482:\n        /* \"contracts/Pool/PoolPig.sol\":32488:32495  _rOwned */\n      0x03\n        /* \"contracts/Pool/PoolPig.sol\":32488:32506  _rOwned[recipient] */\n      0x00\n        /* \"contracts/Pool/PoolPig.sol\":32496:32505  recipient */\n      dup11\n        /* \"contracts/Pool/PoolPig.sol\":32488:32506  _rOwned[recipient] */\n      0xffffffffffffffffffffffffffffffffffffffff\n      and\n      0xffffffffffffffffffffffffffffffffffffffff\n      and\n      dup2\n      mstore\n      0x20\n      add\n      swap1\n      dup2\n      mstore\n      0x20\n      add\n      0x00\n      keccak256\n        /* \"contracts/Pool/PoolPig.sol\":32488:32548  _rOwned[recipient] = _rOwned[recipient].add(rTransferAmount) */\n      dup2\n      swap1\n      sstore\n      pop\n        /* \"contracts/Pool/PoolPig.sol\":32561:32587  _takeLiquidity(tLiquidity) */\n      tag_483\n        /* \"contracts/Pool/PoolPig.sol\":32576:32586  tLiquidity */\n      dup2\n        /* \"contracts/Pool/PoolPig.sol\":32561:32575  _takeLiquidity */\n      tag_484\n        /* \"contracts/Pool/PoolPig.sol\":32561:32587  _takeLiquidity(tLiquidity) */\n      jump\t// in\n    tag_483:\n        /* \"contracts/Pool/PoolPig.sol\":32597:32620  _reflectFee(rFee, tFee) */\n      tag_485\n        /* \"contracts/Pool/PoolPig.sol\":32609:32613  rFee */\n      dup5\n        /* \"contracts/Pool/PoolPig.sol\":32615:32619  tFee */\n      dup4\n        /* \"contracts/Pool/PoolPig.sol\":32597:32608  _reflectFee */\n      tag_486\n        /* \"contracts/Pool/PoolPig.sol\":32597:32620  _reflectFee(rFee, tFee) */\n      jump\t// in\n    tag_485:\n        /* \"contracts/Pool/PoolPig.sol\":32652:32661  recipient */\n      dup8\n        /* \"contracts/Pool/PoolPig.sol\":32635:32679  Transfer(sender, recipient, tTransferAmount) */\n      0xffffffffffffffffffffffffffffffffffffffff\n      and\n        /* \"contracts/Pool/PoolPig.sol\":32644:32650  sender */\n      dup10\n        /* \"contracts/Pool/PoolPig.sol\":32635:32679  Transfer(sender, recipient, tTransferAmount) */\n      0xffffffffffffffffffffffffffffffffffffffff\n      and\n      0xddf252ad1be2c89b69c2b068fc378daa952ba7f163c4a11628f55a4df523b3ef\n        /* \"contracts/Pool/PoolPig.sol\":32663:32678  tTransferAmount */\n      dup6\n        /* \"contracts/Pool/PoolPig.sol\":32635:32679  Transfer(sender, recipient, tTransferAmount) */\n      mload(0x40)\n      dup1\n      dup3\n      dup2\n      mstore\n      0x20\n      add\n      swap2\n      pop\n      pop\n      mload(0x40)\n      dup1\n      swap2\n      sub\n      swap1\n      log3\n        /* \"contracts/Pool/PoolPig.sol\":32128:32686  function _transferFromExcluded(address sender, address recipient, uint256 tAmount) private {... */\n      pop\n      pop\n      pop\n      pop\n      pop\n      pop\n      pop\n      pop\n      pop\n      jump\t// out\n        /* \"contracts/Pool/PoolPig.sol\":31544:32122  function _transferToExcluded(address sender, address recipient, uint256 tAmount) private {... */\n    tag_398:\n        /* \"contracts/Pool/PoolPig.sol\":31644:31659  uint256 rAmount */\n      0x00\n        /* \"contracts/Pool/PoolPig.sol\":31661:31684  uint256 rTransferAmount */\n      dup1\n        /* \"contracts/Pool/PoolPig.sol\":31686:31698  uint256 rFee */\n      0x00\n        /* \"contracts/Pool/PoolPig.sol\":31700:31723  uint256 tTransferAmount */\n      dup1\n        /* \"contracts/Pool/PoolPig.sol\":31725:31737  uint256 tFee */\n      0x00\n        /* \"contracts/Pool/PoolPig.sol\":31739:31757  uint256 tLiquidity */\n      dup1\n        /* \"contracts/Pool/PoolPig.sol\":31761:31780  _getValues(tAmount) */\n      tag_488\n        /* \"contracts/Pool/PoolPig.sol\":31772:31779  tAmount */\n      dup8\n        /* \"contracts/Pool/PoolPig.sol\":31761:31771  _getValues */\n      tag_247\n        /* \"contracts/Pool/PoolPig.sol\":31761:31780  _getValues(tAmount) */\n      jump\t// in\n    tag_488:\n        /* \"contracts/Pool/PoolPig.sol\":31643:31780  (uint256 rAmount, uint256 rTransferAmount, uint256 rFee, uint256 tTransferAmount, uint256 tFee, uint256 tLiquidity) = _getValues(tAmount) */\n      swap6\n      pop\n      swap6\n      pop\n      swap6\n      pop\n      swap6\n      pop\n      swap6\n      pop\n      swap6\n      pop\n        /* \"contracts/Pool/PoolPig.sol\":31808:31836  _rOwned[sender].sub(rAmount) */\n      tag_489\n        /* \"contracts/Pool/PoolPig.sol\":31828:31835  rAmount */\n      dup7\n        /* \"contracts/Pool/PoolPig.sol\":31808:31815  _rOwned */\n      0x03\n        /* \"contracts/Pool/PoolPig.sol\":31808:31823  _rOwned[sender] */\n      0x00\n        /* \"contracts/Pool/PoolPig.sol\":31816:31822  sender */\n      dup13\n        /* \"contracts/Pool/PoolPig.sol\":31808:31823  _rOwned[sender] */\n      0xffffffffffffffffffffffffffffffffffffffff\n      and\n      0xffffffffffffffffffffffffffffffffffffffff\n      and\n      dup2\n      mstore\n      0x20\n      add\n      swap1\n      dup2\n      mstore\n      0x20\n      add\n      0x00\n      keccak256\n      sload\n        /* \"contracts/Pool/PoolPig.sol\":31808:31827  _rOwned[sender].sub */\n      tag_249\n      swap1\n        /* \"contracts/Pool/PoolPig.sol\":31808:31836  _rOwned[sender].sub(rAmount) */\n      swap2\n      swap1\n      0xffffffff\n      and\n      jump\t// in\n    tag_489:\n        /* \"contracts/Pool/PoolPig.sol\":31790:31797  _rOwned */\n      0x03\n        /* \"contracts/Pool/PoolPig.sol\":31790:31805  _rOwned[sender] */\n      0x00\n        /* \"contracts/Pool/PoolPig.sol\":31798:31804  sender */\n      dup12\n        /* \"contracts/Pool/PoolPig.sol\":31790:31805  _rOwned[sender] */\n      0xffffffffffffffffffffffffffffffffffffffff\n      and\n      0xffffffffffffffffffffffffffffffffffffffff\n      and\n      dup2\n      mstore\n      0x20\n      add\n      swap1\n      dup2\n      mstore\n      0x20\n      add\n      0x00\n      keccak256\n        /* \"contracts/Pool/PoolPig.sol\":31790:31836  _rOwned[sender] = _rOwned[sender].sub(rAmount) */\n      dup2\n      swap1\n      sstore\n      pop\n        /* \"contracts/Pool/PoolPig.sol\":31867:31906  _tOwned[recipient].add(tTransferAmount) */\n      tag_490\n        /* \"contracts/Pool/PoolPig.sol\":31890:31905  tTransferAmount */\n      dup4\n        /* \"contracts/Pool/PoolPig.sol\":31867:31874  _tOwned */\n      0x04\n        /* \"contracts/Pool/PoolPig.sol\":31867:31885  _tOwned[recipient] */\n      0x00\n        /* \"contracts/Pool/PoolPig.sol\":31875:31884  recipient */\n      dup12\n        /* \"contracts/Pool/PoolPig.sol\":31867:31885  _tOwned[recipient] */\n      0xffffffffffffffffffffffffffffffffffffffff\n      and\n      0xffffffffffffffffffffffffffffffffffffffff\n      and\n      dup2\n      mstore\n      0x20\n      add\n      swap1\n      dup2\n      mstore\n      0x20\n      add\n      0x00\n      keccak256\n      sload\n        /* \"contracts/Pool/PoolPig.sol\":31867:31889  _tOwned[recipient].add */\n      tag_242\n      swap1\n        /* \"contracts/Pool/PoolPig.sol\":31867:31906  _tOwned[recipient].add(tTransferAmount) */\n      swap2\n      swap1\n      0xffffffff\n      and\n      jump\t// in\n    tag_490:\n        /* \"contracts/Pool/PoolPig.sol\":31846:31853  _tOwned */\n      0x04\n        /* \"contracts/Pool/PoolPig.sol\":31846:31864  _tOwned[recipient] */\n      0x00\n        /* \"contracts/Pool/PoolPig.sol\":31854:31863  recipient */\n      dup11\n        /* \"contracts/Pool/PoolPig.sol\":31846:31864  _tOwned[recipient] */\n      0xffffffffffffffffffffffffffffffffffffffff\n      and\n      0xffffffffffffffffffffffffffffffffffffffff\n      and\n      dup2\n      mstore\n      0x20\n      add\n      swap1\n      dup2\n      mstore\n      0x20\n      add\n      0x00\n      keccak256\n        /* \"contracts/Pool/PoolPig.sol\":31846:31906  _tOwned[recipient] = _tOwned[recipient].add(tTransferAmount) */\n      dup2\n      swap1\n      sstore\n      pop\n        /* \"contracts/Pool/PoolPig.sol\":31937:31976  _rOwned[recipient].add(rTransferAmount) */\n      tag_491\n        /* \"contracts/Pool/PoolPig.sol\":31960:31975  rTransferAmount */\n      dup6\n        /* \"contracts/Pool/PoolPig.sol\":31937:31944  _rOwned */\n      0x03\n        /* \"contracts/Pool/PoolPig.sol\":31937:31955  _rOwned[recipient] */\n      0x00\n        /* \"contracts/Pool/PoolPig.sol\":31945:31954  recipient */\n      dup12\n        /* \"contracts/Pool/PoolPig.sol\":31937:31955  _rOwned[recipient] */\n      0xffffffffffffffffffffffffffffffffffffffff\n      and\n      0xffffffffffffffffffffffffffffffffffffffff\n      and\n      dup2\n      mstore\n      0x20\n      add\n      swap1\n      dup2\n      mstore\n      0x20\n      add\n      0x00\n      keccak256\n      sload\n        /* \"contracts/Pool/PoolPig.sol\":31937:31959  _rOwned[recipient].add */\n      tag_242\n      swap1\n        /* \"contracts/Pool/PoolPig.sol\":31937:31976  _rOwned[recipient].add(rTransferAmount) */\n      swap2\n      swap1\n      0xffffffff\n      and\n      jump\t// in\n    tag_491:\n        /* \"contracts/Pool/PoolPig.sol\":31916:31923  _rOwned */\n      0x03\n        /* \"contracts/Pool/PoolPig.sol\":31916:31934  _rOwned[recipient] */\n      0x00\n        /* \"contracts/Pool/PoolPig.sol\":31924:31933  recipient */\n      dup11\n        /* \"contracts/Pool/PoolPig.sol\":31916:31934  _rOwned[recipient] */\n      0xffffffffffffffffffffffffffffffffffffffff\n      and\n      0xffffffffffffffffffffffffffffffffffffffff\n      and\n      dup2\n      mstore\n      0x20\n      add\n      swap1\n      dup2\n      mstore\n      0x20\n      add\n      0x00\n      keccak256\n        /* \"contracts/Pool/PoolPig.sol\":31916:31976  _rOwned[recipient] = _rOwned[recipient].add(rTransferAmount) */\n      dup2\n      swap1\n      sstore\n      pop\n        /* \"contracts/Pool/PoolPig.sol\":31997:32023  _takeLiquidity(tLiquidity) */\n      tag_492\n        /* \"contracts/Pool/PoolPig.sol\":32012:32022  tLiquidity */\n      dup2\n        /* \"contracts/Pool/PoolPig.sol\":31997:32011  _takeLiquidity */\n      tag_484\n        /* \"contracts/Pool/PoolPig.sol\":31997:32023  _takeLiquidity(tLiquidity) */\n      jump\t// in\n    tag_492:\n        /* \"contracts/Pool/PoolPig.sol\":32033:32056  _reflectFee(rFee, tFee) */\n      tag_493\n        /* \"contracts/Pool/PoolPig.sol\":32045:32049  rFee */\n      dup5\n        /* \"contracts/Pool/PoolPig.sol\":32051:32055  tFee */\n      dup4\n        /* \"contracts/Pool/PoolPig.sol\":32033:32044  _reflectFee */\n      tag_486\n        /* \"contracts/Pool/PoolPig.sol\":32033:32056  _reflectFee(rFee, tFee) */\n      jump\t// in\n    tag_493:\n        /* \"contracts/Pool/PoolPig.sol\":32088:32097  recipient */\n      dup8\n        /* \"contracts/Pool/PoolPig.sol\":32071:32115  Transfer(sender, recipient, tTransferAmount) */\n      0xffffffffffffffffffffffffffffffffffffffff\n      and\n        /* \"contracts/Pool/PoolPig.sol\":32080:32086  sender */\n      dup10\n        /* \"contracts/Pool/PoolPig.sol\":32071:32115  Transfer(sender, recipient, tTransferAmount) */\n      0xffffffffffffffffffffffffffffffffffffffff\n      and\n      0xddf252ad1be2c89b69c2b068fc378daa952ba7f163c4a11628f55a4df523b3ef\n        /* \"contracts/Pool/PoolPig.sol\":32099:32114  tTransferAmount */\n      dup6\n        /* \"contracts/Pool/PoolPig.sol\":32071:32115  Transfer(sender, recipient, tTransferAmount) */\n      mload(0x40)\n      dup1\n      dup3\n      dup2\n      mstore\n      0x20\n      add\n      swap2\n      pop\n      pop\n      mload(0x40)\n      dup1\n      swap2\n      sub\n      swap1\n      log3\n        /* \"contracts/Pool/PoolPig.sol\":31544:32122  function _transferToExcluded(address sender, address recipient, uint256 tAmount) private {... */\n      pop\n      pop\n      pop\n      pop\n      pop\n      pop\n      pop\n      pop\n      pop\n      jump\t// out\n        /* \"contracts/Pool/PoolPig.sol\":31043:31538  function _transferStandard(address sender, address recipient, uint256 tAmount) private {... */\n    tag_403:\n        /* \"contracts/Pool/PoolPig.sol\":31141:31156  uint256 rAmount */\n      0x00\n        /* \"contracts/Pool/PoolPig.sol\":31158:31181  uint256 rTransferAmount */\n      dup1\n        /* \"contracts/Pool/PoolPig.sol\":31183:31195  uint256 rFee */\n      0x00\n        /* \"contracts/Pool/PoolPig.sol\":31197:31220  uint256 tTransferAmount */\n      dup1\n        /* \"contracts/Pool/PoolPig.sol\":31222:31234  uint256 tFee */\n      0x00\n        /* \"contracts/Pool/PoolPig.sol\":31236:31254  uint256 tLiquidity */\n      dup1\n        /* \"contracts/Pool/PoolPig.sol\":31258:31277  _getValues(tAmount) */\n      tag_495\n        /* \"contracts/Pool/PoolPig.sol\":31269:31276  tAmount */\n      dup8\n        /* \"contracts/Pool/PoolPig.sol\":31258:31268  _getValues */\n      tag_247\n        /* \"contracts/Pool/PoolPig.sol\":31258:31277  _getValues(tAmount) */\n      jump\t// in\n    tag_495:\n        /* \"contracts/Pool/PoolPig.sol\":31140:31277  (uint256 rAmount, uint256 rTransferAmount, uint256 rFee, uint256 tTransferAmount, uint256 tFee, uint256 tLiquidity) = _getValues(tAmount) */\n      swap6\n      pop\n      swap6\n      pop\n      swap6\n      pop\n      swap6\n      pop\n      swap6\n      pop\n      swap6\n      pop\n        /* \"contracts/Pool/PoolPig.sol\":31305:31333  _rOwned[sender].sub(rAmount) */\n      tag_496\n        /* \"contracts/Pool/PoolPig.sol\":31325:31332  rAmount */\n      dup7\n        /* \"contracts/Pool/PoolPig.sol\":31305:31312  _rOwned */\n      0x03\n        /* \"contracts/Pool/PoolPig.sol\":31305:31320  _rOwned[sender] */\n      0x00\n        /* \"contracts/Pool/PoolPig.sol\":31313:31319  sender */\n      dup13\n        /* \"contracts/Pool/PoolPig.sol\":31305:31320  _rOwned[sender] */\n      0xffffffffffffffffffffffffffffffffffffffff\n      and\n      0xffffffffffffffffffffffffffffffffffffffff\n      and\n      dup2\n      mstore\n      0x20\n      add\n      swap1\n      dup2\n      mstore\n      0x20\n      add\n      0x00\n      keccak256\n      sload\n        /* \"contracts/Pool/PoolPig.sol\":31305:31324  _rOwned[sender].sub */\n      tag_249\n      swap1\n        /* \"contracts/Pool/PoolPig.sol\":31305:31333  _rOwned[sender].sub(rAmount) */\n      swap2\n      swap1\n      0xffffffff\n      and\n      jump\t// in\n    tag_496:\n        /* \"contracts/Pool/PoolPig.sol\":31287:31294  _rOwned */\n      0x03\n        /* \"contracts/Pool/PoolPig.sol\":31287:31302  _rOwned[sender] */\n      0x00\n        /* \"contracts/Pool/PoolPig.sol\":31295:31301  sender */\n      dup12\n        /* \"contracts/Pool/PoolPig.sol\":31287:31302  _rOwned[sender] */\n      0xffffffffffffffffffffffffffffffffffffffff\n      and\n      0xffffffffffffffffffffffffffffffffffffffff\n      and\n      dup2\n      mstore\n      0x20\n      add\n      swap1\n      dup2\n      mstore\n      0x20\n      add\n      0x00\n      keccak256\n        /* \"contracts/Pool/PoolPig.sol\":31287:31333  _rOwned[sender] = _rOwned[sender].sub(rAmount) */\n      dup2\n      swap1\n      sstore\n      pop\n        /* \"contracts/Pool/PoolPig.sol\":31364:31403  _rOwned[recipient].add(rTransferAmount) */\n      tag_497\n        /* \"contracts/Pool/PoolPig.sol\":31387:31402  rTransferAmount */\n      dup6\n        /* \"contracts/Pool/PoolPig.sol\":31364:31371  _rOwned */\n      0x03\n        /* \"contracts/Pool/PoolPig.sol\":31364:31382  _rOwned[recipient] */\n      0x00\n        /* \"contracts/Pool/PoolPig.sol\":31372:31381  recipient */\n      dup12\n        /* \"contracts/Pool/PoolPig.sol\":31364:31382  _rOwned[recipient] */\n      0xffffffffffffffffffffffffffffffffffffffff\n      and\n      0xffffffffffffffffffffffffffffffffffffffff\n      and\n      dup2\n      mstore\n      0x20\n      add\n      swap1\n      dup2\n      mstore\n      0x20\n      add\n      0x00\n      keccak256\n      sload\n        /* \"contracts/Pool/PoolPig.sol\":31364:31386  _rOwned[recipient].add */\n      tag_242\n      swap1\n        /* \"contracts/Pool/PoolPig.sol\":31364:31403  _rOwned[recipient].add(rTransferAmount) */\n      swap2\n      swap1\n      0xffffffff\n      and\n      jump\t// in\n    tag_497:\n        /* \"contracts/Pool/PoolPig.sol\":31343:31350  _rOwned */\n      0x03\n        /* \"contracts/Pool/PoolPig.sol\":31343:31361  _rOwned[recipient] */\n      0x00\n        /* \"contracts/Pool/PoolPig.sol\":31351:31360  recipient */\n      dup11\n        /* \"contracts/Pool/PoolPig.sol\":31343:31361  _rOwned[recipient] */\n      0xffffffffffffffffffffffffffffffffffffffff\n      and\n      0xffffffffffffffffffffffffffffffffffffffff\n      and\n      dup2\n      mstore\n      0x20\n      add\n      swap1\n      dup2\n      mstore\n      0x20\n      add\n      0x00\n      keccak256\n        /* \"contracts/Pool/PoolPig.sol\":31343:31403  _rOwned[recipient] = _rOwned[recipient].add(rTransferAmount) */\n      dup2\n      swap1\n      sstore\n      pop\n        /* \"contracts/Pool/PoolPig.sol\":31413:31439  _takeLiquidity(tLiquidity) */\n      tag_498\n        /* \"contracts/Pool/PoolPig.sol\":31428:31438  tLiquidity */\n      dup2\n        /* \"contracts/Pool/PoolPig.sol\":31413:31427  _takeLiquidity */\n      tag_484\n        /* \"contracts/Pool/PoolPig.sol\":31413:31439  _takeLiquidity(tLiquidity) */\n      jump\t// in\n    tag_498:\n        /* \"contracts/Pool/PoolPig.sol\":31449:31472  _reflectFee(rFee, tFee) */\n      tag_499\n        /* \"contracts/Pool/PoolPig.sol\":31461:31465  rFee */\n      dup5\n        /* \"contracts/Pool/PoolPig.sol\":31467:31471  tFee */\n      dup4\n        /* \"contracts/Pool/PoolPig.sol\":31449:31460  _reflectFee */\n      tag_486\n        /* \"contracts/Pool/PoolPig.sol\":31449:31472  _reflectFee(rFee, tFee) */\n      jump\t// in\n    tag_499:\n        /* \"contracts/Pool/PoolPig.sol\":31504:31513  recipient */\n      dup8\n        /* \"contracts/Pool/PoolPig.sol\":31487:31531  Transfer(sender, recipient, tTransferAmount) */\n      0xffffffffffffffffffffffffffffffffffffffff\n      and\n        /* \"contracts/Pool/PoolPig.sol\":31496:31502  sender */\n      dup10\n        /* \"contracts/Pool/PoolPig.sol\":31487:31531  Transfer(sender, recipient, tTransferAmount) */\n      0xffffffffffffffffffffffffffffffffffffffff\n      and\n      0xddf252ad1be2c89b69c2b068fc378daa952ba7f163c4a11628f55a4df523b3ef\n        /* \"contracts/Pool/PoolPig.sol\":31515:31530  tTransferAmount */\n      dup6\n        /* \"contracts/Pool/PoolPig.sol\":31487:31531  Transfer(sender, recipient, tTransferAmount) */\n      mload(0x40)\n      dup1\n      dup3\n      dup2\n      mstore\n      0x20\n      add\n      swap2\n      pop\n      pop\n      mload(0x40)\n      dup1\n      swap2\n      sub\n      swap1\n      log3\n        /* \"contracts/Pool/PoolPig.sol\":31043:31538  function _transferStandard(address sender, address recipient, uint256 tAmount) private {... */\n      pop\n      pop\n      pop\n      pop\n      pop\n      pop\n      pop\n      pop\n      pop\n      jump\t// out\n        /* \"contracts/Pool/PoolPig.sol\":21451:22084  function _transferBothExcluded(address sender, address recipient, uint256 tAmount) private {... */\n    tag_408:\n        /* \"contracts/Pool/PoolPig.sol\":21553:21568  uint256 rAmount */\n      0x00\n        /* \"contracts/Pool/PoolPig.sol\":21570:21593  uint256 rTransferAmount */\n      dup1\n        /* \"contracts/Pool/PoolPig.sol\":21595:21607  uint256 rFee */\n      0x00\n        /* \"contracts/Pool/PoolPig.sol\":21609:21632  uint256 tTransferAmount */\n      dup1\n        /* \"contracts/Pool/PoolPig.sol\":21634:21646  uint256 tFee */\n      0x00\n        /* \"contracts/Pool/PoolPig.sol\":21648:21666  uint256 tLiquidity */\n      dup1\n        /* \"contracts/Pool/PoolPig.sol\":21670:21689  _getValues(tAmount) */\n      tag_501\n        /* \"contracts/Pool/PoolPig.sol\":21681:21688  tAmount */\n      dup8\n        /* \"contracts/Pool/PoolPig.sol\":21670:21680  _getValues */\n      tag_247\n        /* \"contracts/Pool/PoolPig.sol\":21670:21689  _getValues(tAmount) */\n      jump\t// in\n    tag_501:\n        /* \"contracts/Pool/PoolPig.sol\":21552:21689  (uint256 rAmount, uint256 rTransferAmount, uint256 rFee, uint256 tTransferAmount, uint256 tFee, uint256 tLiquidity) = _getValues(tAmount) */\n      swap6\n      pop\n      swap6\n      pop\n      swap6\n      pop\n      swap6\n      pop\n      swap6\n      pop\n      swap6\n      pop\n        /* \"contracts/Pool/PoolPig.sol\":21717:21745  _tOwned[sender].sub(tAmount) */\n      tag_502\n        /* \"contracts/Pool/PoolPig.sol\":21737:21744  tAmount */\n      dup8\n        /* \"contracts/Pool/PoolPig.sol\":21717:21724  _tOwned */\n      0x04\n        /* \"contracts/Pool/PoolPig.sol\":21717:21732  _tOwned[sender] */\n      0x00\n        /* \"contracts/Pool/PoolPig.sol\":21725:21731  sender */\n      dup13\n        /* \"contracts/Pool/PoolPig.sol\":21717:21732  _tOwned[sender] */\n      0xffffffffffffffffffffffffffffffffffffffff\n      and\n      0xffffffffffffffffffffffffffffffffffffffff\n      and\n      dup2\n      mstore\n      0x20\n      add\n      swap1\n      dup2\n      mstore\n      0x20\n      add\n      0x00\n      keccak256\n      sload\n        /* \"contracts/Pool/PoolPig.sol\":21717:21736  _tOwned[sender].sub */\n      tag_249\n      swap1\n        /* \"contracts/Pool/PoolPig.sol\":21717:21745  _tOwned[sender].sub(tAmount) */\n      swap2\n      swap1\n      0xffffffff\n      and\n      jump\t// in\n    tag_502:\n        /* \"contracts/Pool/PoolPig.sol\":21699:21706  _tOwned */\n      0x04\n        /* \"contracts/Pool/PoolPig.sol\":21699:21714  _tOwned[sender] */\n      0x00\n        /* \"contracts/Pool/PoolPig.sol\":21707:21713  sender */\n      dup12\n        /* \"contracts/Pool/PoolPig.sol\":21699:21714  _tOwned[sender] */\n      0xffffffffffffffffffffffffffffffffffffffff\n      and\n      0xffffffffffffffffffffffffffffffffffffffff\n      and\n      dup2\n      mstore\n      0x20\n      add\n      swap1\n      dup2\n      mstore\n      0x20\n      add\n      0x00\n      keccak256\n        /* \"contracts/Pool/PoolPig.sol\":21699:21745  _tOwned[sender] = _tOwned[sender].sub(tAmount) */\n      dup2\n      swap1\n      sstore\n      pop\n        /* \"contracts/Pool/PoolPig.sol\":21773:21801  _rOwned[sender].sub(rAmount) */\n      tag_503\n        /* \"contracts/Pool/PoolPig.sol\":21793:21800  rAmount */\n      dup7\n        /* \"contracts/Pool/PoolPig.sol\":21773:21780  _rOwned */\n      0x03\n        /* \"contracts/Pool/PoolPig.sol\":21773:21788  _rOwned[sender] */\n      0x00\n        /* \"contracts/Pool/PoolPig.sol\":21781:21787  sender */\n      dup13\n        /* \"contracts/Pool/PoolPig.sol\":21773:21788  _rOwned[sender] */\n      0xffffffffffffffffffffffffffffffffffffffff\n      and\n      0xffffffffffffffffffffffffffffffffffffffff\n      and\n      dup2\n      mstore\n      0x20\n      add\n      swap1\n      dup2\n      mstore\n      0x20\n      add\n      0x00\n      keccak256\n      sload\n        /* \"contracts/Pool/PoolPig.sol\":21773:21792  _rOwned[sender].sub */\n      tag_249\n      swap1\n        /* \"contracts/Pool/PoolPig.sol\":21773:21801  _rOwned[sender].sub(rAmount) */\n      swap2\n      swap1\n      0xffffffff\n      and\n      jump\t// in\n    tag_503:\n        /* \"contracts/Pool/PoolPig.sol\":21755:21762  _rOwned */\n      0x03\n        /* \"contracts/Pool/PoolPig.sol\":21755:21770  _rOwned[sender] */\n      0x00\n        /* \"contracts/Pool/PoolPig.sol\":21763:21769  sender */\n      dup12\n        /* \"contracts/Pool/PoolPig.sol\":21755:21770  _rOwned[sender] */\n      0xffffffffffffffffffffffffffffffffffffffff\n      and\n      0xffffffffffffffffffffffffffffffffffffffff\n      and\n      dup2\n      mstore\n      0x20\n      add\n      swap1\n      dup2\n      mstore\n      0x20\n      add\n      0x00\n      keccak256\n        /* \"contracts/Pool/PoolPig.sol\":21755:21801  _rOwned[sender] = _rOwned[sender].sub(rAmount) */\n      dup2\n      swap1\n      sstore\n      pop\n        /* \"contracts/Pool/PoolPig.sol\":21832:21871  _tOwned[recipient].add(tTransferAmount) */\n      tag_504\n        /* \"contracts/Pool/PoolPig.sol\":21855:21870  tTransferAmount */\n      dup4\n        /* \"contracts/Pool/PoolPig.sol\":21832:21839  _tOwned */\n      0x04\n        /* \"contracts/Pool/PoolPig.sol\":21832:21850  _tOwned[recipient] */\n      0x00\n        /* \"contracts/Pool/PoolPig.sol\":21840:21849  recipient */\n      dup12\n        /* \"contracts/Pool/PoolPig.sol\":21832:21850  _tOwned[recipient] */\n      0xffffffffffffffffffffffffffffffffffffffff\n      and\n      0xffffffffffffffffffffffffffffffffffffffff\n      and\n      dup2\n      mstore\n      0x20\n      add\n      swap1\n      dup2\n      mstore\n      0x20\n      add\n      0x00\n      keccak256\n      sload\n        /* \"contracts/Pool/PoolPig.sol\":21832:21854  _tOwned[recipient].add */\n      tag_242\n      swap1\n        /* \"contracts/Pool/PoolPig.sol\":21832:21871  _tOwned[recipient].add(tTransferAmount) */\n      swap2\n      swap1\n      0xffffffff\n      and\n      jump\t// in\n    tag_504:\n        /* \"contracts/Pool/PoolPig.sol\":21811:21818  _tOwned */\n      0x04\n        /* \"contracts/Pool/PoolPig.sol\":21811:21829  _tOwned[recipient] */\n      0x00\n        /* \"contracts/Pool/PoolPig.sol\":21819:21828  recipient */\n      dup11\n        /* \"contracts/Pool/PoolPig.sol\":21811:21829  _tOwned[recipient] */\n      0xffffffffffffffffffffffffffffffffffffffff\n      and\n      0xffffffffffffffffffffffffffffffffffffffff\n      and\n      dup2\n      mstore\n      0x20\n      add\n      swap1\n      dup2\n      mstore\n      0x20\n      add\n      0x00\n      keccak256\n        /* \"contracts/Pool/PoolPig.sol\":21811:21871  _tOwned[recipient] = _tOwned[recipient].add(tTransferAmount) */\n      dup2\n      swap1\n      sstore\n      pop\n        /* \"contracts/Pool/PoolPig.sol\":21902:21941  _rOwned[recipient].add(rTransferAmount) */\n      tag_505\n        /* \"contracts/Pool/PoolPig.sol\":21925:21940  rTransferAmount */\n      dup6\n        /* \"contracts/Pool/PoolPig.sol\":21902:21909  _rOwned */\n      0x03\n        /* \"contracts/Pool/PoolPig.sol\":21902:21920  _rOwned[recipient] */\n      0x00\n        /* \"contracts/Pool/PoolPig.sol\":21910:21919  recipient */\n      dup12\n        /* \"contracts/Pool/PoolPig.sol\":21902:21920  _rOwned[recipient] */\n      0xffffffffffffffffffffffffffffffffffffffff\n      and\n      0xffffffffffffffffffffffffffffffffffffffff\n      and\n      dup2\n      mstore\n      0x20\n      add\n      swap1\n      dup2\n      mstore\n      0x20\n      add\n      0x00\n      keccak256\n      sload\n        /* \"contracts/Pool/PoolPig.sol\":21902:21924  _rOwned[recipient].add */\n      tag_242\n      swap1\n        /* \"contracts/Pool/PoolPig.sol\":21902:21941  _rOwned[recipient].add(rTransferAmount) */\n      swap2\n      swap1\n      0xffffffff\n      and\n      jump\t// in\n    tag_505:\n        /* \"contracts/Pool/PoolPig.sol\":21881:21888  _rOwned */\n      0x03\n        /* \"contracts/Pool/PoolPig.sol\":21881:21899  _rOwned[recipient] */\n      0x00\n        /* \"contracts/Pool/PoolPig.sol\":21889:21898  recipient */\n      dup11\n        /* \"contracts/Pool/PoolPig.sol\":21881:21899  _rOwned[recipient] */\n      0xffffffffffffffffffffffffffffffffffffffff\n      and\n      0xffffffffffffffffffffffffffffffffffffffff\n      and\n      dup2\n      mstore\n      0x20\n      add\n      swap1\n      dup2\n      mstore\n      0x20\n      add\n      0x00\n      keccak256\n        /* \"contracts/Pool/PoolPig.sol\":21881:21941  _rOwned[recipient] = _rOwned[recipient].add(rTransferAmount) */\n      dup2\n      swap1\n      sstore\n      pop\n        /* \"contracts/Pool/PoolPig.sol\":21959:21985  _takeLiquidity(tLiquidity) */\n      tag_506\n        /* \"contracts/Pool/PoolPig.sol\":21974:21984  tLiquidity */\n      dup2\n        /* \"contracts/Pool/PoolPig.sol\":21959:21973  _takeLiquidity */\n      tag_484\n        /* \"contracts/Pool/PoolPig.sol\":21959:21985  _takeLiquidity(tLiquidity) */\n      jump\t// in\n    tag_506:\n        /* \"contracts/Pool/PoolPig.sol\":21995:22018  _reflectFee(rFee, tFee) */\n      tag_507\n        /* \"contracts/Pool/PoolPig.sol\":22007:22011  rFee */\n      dup5\n        /* \"contracts/Pool/PoolPig.sol\":22013:22017  tFee */\n      dup4\n        /* \"contracts/Pool/PoolPig.sol\":21995:22006  _reflectFee */\n      tag_486\n        /* \"contracts/Pool/PoolPig.sol\":21995:22018  _reflectFee(rFee, tFee) */\n      jump\t// in\n    tag_507:\n        /* \"contracts/Pool/PoolPig.sol\":22050:22059  recipient */\n      dup8\n        /* \"contracts/Pool/PoolPig.sol\":22033:22077  Transfer(sender, recipient, tTransferAmount) */\n      0xffffffffffffffffffffffffffffffffffffffff\n      and\n        /* \"contracts/Pool/PoolPig.sol\":22042:22048  sender */\n      dup10\n        /* \"contracts/Pool/PoolPig.sol\":22033:22077  Transfer(sender, recipient, tTransferAmount) */\n      0xffffffffffffffffffffffffffffffffffffffff\n      and\n      0xddf252ad1be2c89b69c2b068fc378daa952ba7f163c4a11628f55a4df523b3ef\n        /* \"contracts/Pool/PoolPig.sol\":22061:22076  tTransferAmount */\n      dup6\n        /* \"contracts/Pool/PoolPig.sol\":22033:22077  Transfer(sender, recipient, tTransferAmount) */\n      mload(0x40)\n      dup1\n      dup3\n      dup2\n      mstore\n      0x20\n      add\n      swap2\n      pop\n      pop\n      mload(0x40)\n      dup1\n      swap2\n      sub\n      swap1\n      log3\n        /* \"contracts/Pool/PoolPig.sol\":21451:22084  function _transferBothExcluded(address sender, address recipient, uint256 tAmount) private {... */\n      pop\n      pop\n      pop\n      pop\n      pop\n      pop\n      pop\n      pop\n      pop\n      jump\t// out\n        /* \"contracts/Pool/PoolPig.sol\":26000:26122  function restoreAllFee() private {... */\n    tag_413:\n        /* \"contracts/Pool/PoolPig.sol\":26053:26068  _previousTaxFee */\n      sload(0x0f)\n        /* \"contracts/Pool/PoolPig.sol\":26043:26050  _taxFee */\n      0x0e\n        /* \"contracts/Pool/PoolPig.sol\":26043:26068  _taxFee = _previousTaxFee */\n      dup2\n      swap1\n      sstore\n      pop\n        /* \"contracts/Pool/PoolPig.sol\":26094:26115  _previousLiquidityFee */\n      sload(0x11)\n        /* \"contracts/Pool/PoolPig.sol\":26078:26091  _liquidityFee */\n      0x10\n        /* \"contracts/Pool/PoolPig.sol\":26078:26115  _liquidityFee = _previousLiquidityFee */\n      dup2\n      swap1\n      sstore\n      pop\n        /* \"contracts/Pool/PoolPig.sol\":26000:26122  function restoreAllFee() private {... */\n      jump\t// out\n        /* \"contracts/Pool/PoolPig.sol\":25420:25570  function calculateTaxFee(uint256 _amount) private view returns (uint256) {... */\n    tag_441:\n        /* \"contracts/Pool/PoolPig.sol\":25484:25491  uint256 */\n      0x00\n        /* \"contracts/Pool/PoolPig.sol\":25510:25563  _amount.mul(_taxFee).div(... */\n      tag_510\n        /* \"contracts/Pool/PoolPig.sol\":25548:25553  10**2 */\n      0x64\n        /* \"contracts/Pool/PoolPig.sol\":25510:25530  _amount.mul(_taxFee) */\n      tag_511\n        /* \"contracts/Pool/PoolPig.sol\":25522:25529  _taxFee */\n      sload(0x0e)\n        /* \"contracts/Pool/PoolPig.sol\":25510:25517  _amount */\n      dup6\n        /* \"contracts/Pool/PoolPig.sol\":25510:25521  _amount.mul */\n      tag_310\n      swap1\n        /* \"contracts/Pool/PoolPig.sol\":25510:25530  _amount.mul(_taxFee) */\n      swap2\n      swap1\n      0xffffffff\n      and\n      jump\t// in\n    tag_511:\n        /* \"contracts/Pool/PoolPig.sol\":25510:25534  _amount.mul(_taxFee).div */\n      tag_218\n      swap1\n        /* \"contracts/Pool/PoolPig.sol\":25510:25563  _amount.mul(_taxFee).div(... */\n      swap2\n      swap1\n      0xffffffff\n      and\n      jump\t// in\n    tag_510:\n        /* \"contracts/Pool/PoolPig.sol\":25503:25563  return _amount.mul(_taxFee).div(... */\n      swap1\n      pop\n        /* \"contracts/Pool/PoolPig.sol\":25420:25570  function calculateTaxFee(uint256 _amount) private view returns (uint256) {... */\n      swap2\n      swap1\n      pop\n      jump\t// out\n        /* \"contracts/Pool/PoolPig.sol\":25576:25738  function calculateLiquidityFee(uint256 _amount) private view returns (uint256) {... */\n    tag_443:\n        /* \"contracts/Pool/PoolPig.sol\":25646:25653  uint256 */\n      0x00\n        /* \"contracts/Pool/PoolPig.sol\":25672:25731  _amount.mul(_liquidityFee).div(... */\n      tag_513\n        /* \"contracts/Pool/PoolPig.sol\":25716:25721  10**2 */\n      0x64\n        /* \"contracts/Pool/PoolPig.sol\":25672:25698  _amount.mul(_liquidityFee) */\n      tag_514\n        /* \"contracts/Pool/PoolPig.sol\":25684:25697  _liquidityFee */\n      sload(0x10)\n        /* \"contracts/Pool/PoolPig.sol\":25672:25679  _amount */\n      dup6\n        /* \"contracts/Pool/PoolPig.sol\":25672:25683  _amount.mul */\n      tag_310\n      swap1\n        /* \"contracts/Pool/PoolPig.sol\":25672:25698  _amount.mul(_liquidityFee) */\n      swap2\n      swap1\n      0xffffffff\n      and\n      jump\t// in\n    tag_514:\n        /* \"contracts/Pool/PoolPig.sol\":25672:25702  _amount.mul(_liquidityFee).div */\n      tag_218\n      swap1\n        /* \"contracts/Pool/PoolPig.sol\":25672:25731  _amount.mul(_liquidityFee).div(... */\n      swap2\n      swap1\n      0xffffffff\n      and\n      jump\t// in\n    tag_513:\n        /* \"contracts/Pool/PoolPig.sol\":25665:25731  return _amount.mul(_liquidityFee).div(... */\n      swap1\n      pop\n        /* \"contracts/Pool/PoolPig.sol\":25576:25738  function calculateLiquidityFee(uint256 _amount) private view returns (uint256) {... */\n      swap2\n      swap1\n      pop\n      jump\t// out\n        /* \"contracts/Pool/PoolPig.sol\":25061:25410  function _takeLiquidity(uint256 tLiquidity) private {... */\n    tag_484:\n        /* \"contracts/Pool/PoolPig.sol\":25123:25142  uint256 currentRate */\n      0x00\n        /* \"contracts/Pool/PoolPig.sol\":25146:25156  _getRate() */\n      tag_516\n        /* \"contracts/Pool/PoolPig.sol\":25146:25154  _getRate */\n      tag_216\n        /* \"contracts/Pool/PoolPig.sol\":25146:25156  _getRate() */\n      jump\t// in\n    tag_516:\n        /* \"contracts/Pool/PoolPig.sol\":25123:25156  uint256 currentRate =  _getRate() */\n      swap1\n      pop\n        /* \"contracts/Pool/PoolPig.sol\":25166:25184  uint256 rLiquidity */\n      0x00\n        /* \"contracts/Pool/PoolPig.sol\":25187:25214  tLiquidity.mul(currentRate) */\n      tag_517\n        /* \"contracts/Pool/PoolPig.sol\":25202:25213  currentRate */\n      dup3\n        /* \"contracts/Pool/PoolPig.sol\":25187:25197  tLiquidity */\n      dup5\n        /* \"contracts/Pool/PoolPig.sol\":25187:25201  tLiquidity.mul */\n      tag_310\n      swap1\n        /* \"contracts/Pool/PoolPig.sol\":25187:25214  tLiquidity.mul(currentRate) */\n      swap2\n      swap1\n      0xffffffff\n      and\n      jump\t// in\n    tag_517:\n        /* \"contracts/Pool/PoolPig.sol\":25166:25214  uint256 rLiquidity = tLiquidity.mul(currentRate) */\n      swap1\n      pop\n        /* \"contracts/Pool/PoolPig.sol\":25249:25287  _rOwned[address(this)].add(rLiquidity) */\n      tag_518\n        /* \"contracts/Pool/PoolPig.sol\":25276:25286  rLiquidity */\n      dup2\n        /* \"contracts/Pool/PoolPig.sol\":25249:25256  _rOwned */\n      0x03\n        /* \"contracts/Pool/PoolPig.sol\":25249:25271  _rOwned[address(this)] */\n      0x00\n        /* \"contracts/Pool/PoolPig.sol\":25265:25269  this */\n      address\n        /* \"contracts/Pool/PoolPig.sol\":25249:25271  _rOwned[address(this)] */\n      0xffffffffffffffffffffffffffffffffffffffff\n      and\n      0xffffffffffffffffffffffffffffffffffffffff\n      and\n      dup2\n      mstore\n      0x20\n      add\n      swap1\n      dup2\n      mstore\n      0x20\n      add\n      0x00\n      keccak256\n      sload\n        /* \"contracts/Pool/PoolPig.sol\":25249:25275  _rOwned[address(this)].add */\n      tag_242\n      swap1\n        /* \"contracts/Pool/PoolPig.sol\":25249:25287  _rOwned[address(this)].add(rLiquidity) */\n      swap2\n      swap1\n      0xffffffff\n      and\n      jump\t// in\n    tag_518:\n        /* \"contracts/Pool/PoolPig.sol\":25224:25231  _rOwned */\n      0x03\n        /* \"contracts/Pool/PoolPig.sol\":25224:25246  _rOwned[address(this)] */\n      0x00\n        /* \"contracts/Pool/PoolPig.sol\":25240:25244  this */\n      address\n        /* \"contracts/Pool/PoolPig.sol\":25224:25246  _rOwned[address(this)] */\n      0xffffffffffffffffffffffffffffffffffffffff\n      and\n      0xffffffffffffffffffffffffffffffffffffffff\n      and\n      dup2\n      mstore\n      0x20\n      add\n      swap1\n      dup2\n      mstore\n      0x20\n      add\n      0x00\n      keccak256\n        /* \"contracts/Pool/PoolPig.sol\":25224:25287  _rOwned[address(this)] = _rOwned[address(this)].add(rLiquidity) */\n      dup2\n      swap1\n      sstore\n      pop\n        /* \"contracts/Pool/PoolPig.sol\":25300:25311  _isExcluded */\n      0x07\n        /* \"contracts/Pool/PoolPig.sol\":25300:25326  _isExcluded[address(this)] */\n      0x00\n        /* \"contracts/Pool/PoolPig.sol\":25320:25324  this */\n      address\n        /* \"contracts/Pool/PoolPig.sol\":25300:25326  _isExcluded[address(this)] */\n      0xffffffffffffffffffffffffffffffffffffffff\n      and\n      0xffffffffffffffffffffffffffffffffffffffff\n      and\n      dup2\n      mstore\n      0x20\n      add\n      swap1\n      dup2\n      mstore\n      0x20\n      add\n      0x00\n      keccak256\n      0x00\n      swap1\n      sload\n      swap1\n      0x0100\n      exp\n      swap1\n      div\n      0xff\n      and\n        /* \"contracts/Pool/PoolPig.sol\":25297:25403  if(_isExcluded[address(this)])... */\n      iszero\n      tag_519\n      jumpi\n        /* \"contracts/Pool/PoolPig.sol\":25365:25403  _tOwned[address(this)].add(tLiquidity) */\n      tag_520\n        /* \"contracts/Pool/PoolPig.sol\":25392:25402  tLiquidity */\n      dup4\n        /* \"contracts/Pool/PoolPig.sol\":25365:25372  _tOwned */\n      0x04\n        /* \"contracts/Pool/PoolPig.sol\":25365:25387  _tOwned[address(this)] */\n      0x00\n        /* \"contracts/Pool/PoolPig.sol\":25381:25385  this */\n      address\n        /* \"contracts/Pool/PoolPig.sol\":25365:25387  _tOwned[address(this)] */\n      0xffffffffffffffffffffffffffffffffffffffff\n      and\n      0xffffffffffffffffffffffffffffffffffffffff\n      and\n      dup2\n      mstore\n      0x20\n      add\n      swap1\n      dup2\n      mstore\n      0x20\n      add\n      0x00\n      keccak256\n      sload\n        /* \"contracts/Pool/PoolPig.sol\":25365:25391  _tOwned[address(this)].add */\n      tag_242\n      swap1\n        /* \"contracts/Pool/PoolPig.sol\":25365:25403  _tOwned[address(this)].add(tLiquidity) */\n      swap2\n      swap1\n      0xffffffff\n      and\n      jump\t// in\n    tag_520:\n        /* \"contracts/Pool/PoolPig.sol\":25340:25347  _tOwned */\n      0x04\n        /* \"contracts/Pool/PoolPig.sol\":25340:25362  _tOwned[address(this)] */\n      0x00\n        /* \"contracts/Pool/PoolPig.sol\":25356:25360  this */\n      address\n        /* \"contracts/Pool/PoolPig.sol\":25340:25362  _tOwned[address(this)] */\n      0xffffffffffffffffffffffffffffffffffffffff\n      and\n      0xffffffffffffffffffffffffffffffffffffffff\n      and\n      dup2\n      mstore\n      0x20\n      add\n      swap1\n      dup2\n      mstore\n      0x20\n      add\n      0x00\n      keccak256\n        /* \"contracts/Pool/PoolPig.sol\":25340:25403  _tOwned[address(this)] = _tOwned[address(this)].add(tLiquidity) */\n      dup2\n      swap1\n      sstore\n      pop\n        /* \"contracts/Pool/PoolPig.sol\":25297:25403  if(_isExcluded[address(this)])... */\n    tag_519:\n        /* \"contracts/Pool/PoolPig.sol\":25061:25410  function _takeLiquidity(uint256 tLiquidity) private {... */\n      pop\n      pop\n      pop\n      jump\t// out\n        /* \"contracts/Pool/PoolPig.sol\":23003:23147  function _reflectFee(uint256 rFee, uint256 tFee) private {... */\n    tag_486:\n        /* \"contracts/Pool/PoolPig.sol\":23080:23097  _rTotal.sub(rFee) */\n      tag_522\n        /* \"contracts/Pool/PoolPig.sol\":23092:23096  rFee */\n      dup3\n        /* \"contracts/Pool/PoolPig.sol\":23080:23087  _rTotal */\n      sload(0x09)\n        /* \"contracts/Pool/PoolPig.sol\":23080:23091  _rTotal.sub */\n      tag_249\n      swap1\n        /* \"contracts/Pool/PoolPig.sol\":23080:23097  _rTotal.sub(rFee) */\n      swap2\n      swap1\n      0xffffffff\n      and\n      jump\t// in\n    tag_522:\n        /* \"contracts/Pool/PoolPig.sol\":23070:23077  _rTotal */\n      0x09\n        /* \"contracts/Pool/PoolPig.sol\":23070:23097  _rTotal = _rTotal.sub(rFee) */\n      dup2\n      swap1\n      sstore\n      pop\n        /* \"contracts/Pool/PoolPig.sol\":23120:23140  _tFeeTotal.add(tFee) */\n      tag_523\n        /* \"contracts/Pool/PoolPig.sol\":23135:23139  tFee */\n      dup2\n        /* \"contracts/Pool/PoolPig.sol\":23120:23130  _tFeeTotal */\n      sload(0x0a)\n        /* \"contracts/Pool/PoolPig.sol\":23120:23134  _tFeeTotal.add */\n      tag_242\n      swap1\n        /* \"contracts/Pool/PoolPig.sol\":23120:23140  _tFeeTotal.add(tFee) */\n      swap2\n      swap1\n      0xffffffff\n      and\n      jump\t// in\n    tag_523:\n        /* \"contracts/Pool/PoolPig.sol\":23107:23117  _tFeeTotal */\n      0x0a\n        /* \"contracts/Pool/PoolPig.sol\":23107:23140  _tFeeTotal = _tFeeTotal.add(tFee) */\n      dup2\n      swap1\n      sstore\n      pop\n        /* \"contracts/Pool/PoolPig.sol\":23003:23147  function _reflectFee(uint256 rFee, uint256 tFee) private {... */\n      pop\n      pop\n      jump\t// out\n    stop\n    data_0557e210f7a69a685100a7e4e3d0a7024c546085cee28910fd17d0b081d9516f 45524332303a207472616e7366657220746f20746865207a65726f2061646472657373\n    data_22f7af55a509c3b14f0d528f087748dec8a8bf425135e3f5dc28c6a31ec6d812 416d6f756e74206d757374206265206c657373207468616e20746f74616c207265666c656374696f6e73\n    data_245f15ff17f551913a7a18385165551503906a406f905ac1c2437281a7cd0cfe 4f776e61626c653a206e6577206f776e657220697320746865207a65726f2061646472657373\n    data_24883cc5fe64ace9d0df1893501ecb93c77180f0ff69cca79affb3c316dc8029 45524332303a20617070726f766520746f20746865207a65726f2061646472657373\n    data_72052210969ce5fd88e52b5e685de9548acef9bb1b6d02e29c1765d0674948dd 5472616e7366657220616d6f756e74206578636565647320746865206d61785478416d6f756e742e\n    data_9113bb53c2876a3805b2c9242029423fc540a728243ce887ab24c82cf119fba3 536166654d6174683a206d756c7469706c69636174696f6e206f766572666c6f77\n    data_974d1b4421da69cc60b481194f0dad36a5bb4e23da810da7a7fb30cdba178330 45524332303a207472616e7366657220616d6f756e74206578636565647320616c6c6f77616e6365\n    data_9edb5ab58321f35d2386ea65721c9b107daa2c273610fc16d394af2a320ba785 5472616e7366657220616d6f756e74206d7573742062652067726561746572207468616e207a65726f\n    data_baecc556b46f4ed0f2b4cb599d60785ac8563dd2dc0a5bf12edea1c39e5e1fea 45524332303a207472616e736665722066726f6d20746865207a65726f2061646472657373\n    data_c953f4879035ed60e766b34720f656aab5c697b141d924c283124ecedb91c208 45524332303a20617070726f76652066726f6d20746865207a65726f2061646472657373\n    data_ecefcaf5fbcf9ca6dcdb02298ba1da96f4ead317b0a4779917ecb2e5e7dc3ac4 4578636c75646564206164647265737365732063616e6e6f742063616c6c20746869732066756e6374696f6e\n    data_f4eb59be3df39931213d374c3658377dca3f0d2b46b7bc965af767c57c74b611 596f7520646f6e27742068617665207065726d697373696f6e20746f20756e6c6f636b\n    data_f8b476f7d28209d77d4a4ac1fe36b9f8259aa1bb6bddfa6e89de7e51615cf8a8 45524332303a2064656372656173656420616c6c6f77616e63652062656c6f77207a65726f\n\n    auxdata: 0xa264697066735822122048869556ddf2f85cd09e25538b68627b8267e7a6402a3d3e820c9e6c4cf3595064736f6c634300060c0033\n}\n",
				"bytecode": {
					"linkReferences": {},
					"object": "60c0604052670de0b6b3a7640000600019816200001857fe5b06600019036009556040518060400160405280600981526020017f50696720546f6b656e0000000000000000000000000000000000000000000000815250600b90805190602001906200006d929190620005f9565b506040518060400160405280600381526020017f5049470000000000000000000000000000000000000000000000000000000000815250600c9080519060200190620000bb929190620005f9565b506009600d60006101000a81548160ff021916908360ff1602179055506002600e55600e54600f5560036010556010546011556001601260016101000a81548160ff0219169083151502179055506706f05b59d3b200006013556703782dace9d900006014553480156200012e57600080fd5b50600062000141620005c860201b60201c565b9050806000806101000a81548173ffffffffffffffffffffffffffffffffffffffff021916908373ffffffffffffffffffffffffffffffffffffffff1602179055508073ffffffffffffffffffffffffffffffffffffffff16600073ffffffffffffffffffffffffffffffffffffffff167f8be0079c531659141344cd1fd0a4f28419497f9722a3daafe3b4186f6b6457e060405160405180910390a35060095460036000620001f6620005c860201b60201c565b73ffffffffffffffffffffffffffffffffffffffff1673ffffffffffffffffffffffffffffffffffffffff1681526020019081526020016000208190555060007305ff2b0db69458a0750badebc4f9e13add608c7f90508073ffffffffffffffffffffffffffffffffffffffff1663c45a01556040518163ffffffff1660e01b815260040160206040518083038186803b1580156200029457600080fd5b505afa158015620002a9573d6000803e3d6000fd5b505050506040513d6020811015620002c057600080fd5b810190808051906020019092919050505073ffffffffffffffffffffffffffffffffffffffff1663c9c65396308373ffffffffffffffffffffffffffffffffffffffff1663ad5c46486040518163ffffffff1660e01b815260040160206040518083038186803b1580156200033457600080fd5b505afa15801562000349573d6000803e3d6000fd5b505050506040513d60208110156200036057600080fd5b81019080805190602001909291905050506040518363ffffffff1660e01b8152600401808373ffffffffffffffffffffffffffffffffffffffff1681526020018273ffffffffffffffffffffffffffffffffffffffff16815260200192505050602060405180830381600087803b158015620003db57600080fd5b505af1158015620003f0573d6000803e3d6000fd5b505050506040513d60208110156200040757600080fd5b810190808051906020019092919050505073ffffffffffffffffffffffffffffffffffffffff1660a08173ffffffffffffffffffffffffffffffffffffffff1660601b815250508073ffffffffffffffffffffffffffffffffffffffff1660808173ffffffffffffffffffffffffffffffffffffffff1660601b815250506001600660006200049b620005d060201b60201c565b73ffffffffffffffffffffffffffffffffffffffff1673ffffffffffffffffffffffffffffffffffffffff16815260200190815260200160002060006101000a81548160ff0219169083151502179055506001600660003073ffffffffffffffffffffffffffffffffffffffff1673ffffffffffffffffffffffffffffffffffffffff16815260200190815260200160002060006101000a81548160ff02191690831515021790555062000554620005c860201b60201c565b73ffffffffffffffffffffffffffffffffffffffff16600073ffffffffffffffffffffffffffffffffffffffff167fddf252ad1be2c89b69c2b068fc378daa952ba7f163c4a11628f55a4df523b3ef670de0b6b3a76400006040518082815260200191505060405180910390a3506200069f565b600033905090565b60008060009054906101000a900473ffffffffffffffffffffffffffffffffffffffff16905090565b828054600181600116156101000203166002900490600052602060002090601f016020900481019282601f106200063c57805160ff19168380011785556200066d565b828001600101855582156200066d579182015b828111156200066c5782518255916020019190600101906200064f565b5b5090506200067c919062000680565b5090565b5b808211156200069b57600081600090555060010162000681565b5090565b60805160601c60a05160601c614e57620006e7600039806118425280612fb0525080610ee65280613cb45280613da05280613dc75280613ed25280613ef95250614e576000f3fe60806040526004361061021e5760003560e01c80635342acb411610123578063a457c2d7116100ab578063d543dbeb1161006f578063d543dbeb14610bab578063dd46706414610be6578063dd62ed3e14610c21578063ea2f0b3714610ca6578063f2fde38b14610cf757610225565b8063a457c2d714610a4a578063a69df4b514610abb578063a9059cbb14610ad2578063b6c5232414610b43578063c49b9a8014610b6e57610225565b80637d1db4a5116100f25780637d1db4a5146108ac57806388f82020146108d75780638da5cb5b1461093e5780638ee88c531461097f57806395d89b41146109ba57610225565b80635342acb41461079e5780636bc87c3a1461080557806370a0823114610830578063715018a61461089557610225565b80633685d419116101a6578063437823ec11610175578063437823ec146106335780634549b0391461068457806349bd5a5e146106df5780634a74bb021461072057806352390c021461074d57610225565b80633685d4191461050b578063395093511461055c5780633b124fe7146105cd5780633bd5d173146105f857610225565b80631694505e116101ed5780631694505e1461039157806318160ddd146103d257806323b872dd146103fd5780632d8381191461048e578063313ce567146104dd57610225565b8063061c82d01461022a57806306fdde0314610265578063095ea7b3146102f557806313114a9d1461036657610225565b3661022557005b600080fd5b34801561023657600080fd5b506102636004803603602081101561024d57600080fd5b8101908080359060200190929190505050610d48565b005b34801561027157600080fd5b5061027a610e1a565b6040518080602001828103825283818151815260200191508051906020019080838360005b838110156102ba57808201518184015260208101905061029f565b50505050905090810190601f1680156102e75780820380516001836020036101000a031916815260200191505b509250505060405180910390f35b34801561030157600080fd5b5061034e6004803603604081101561031857600080fd5b81019080803573ffffffffffffffffffffffffffffffffffffffff16906020019092919080359060200190929190505050610ebc565b60405180821515815260200191505060405180910390f35b34801561037257600080fd5b5061037b610eda565b6040518082815260200191505060405180910390f35b34801561039d57600080fd5b506103a6610ee4565b604051808273ffffffffffffffffffffffffffffffffffffffff16815260200191505060405180910390f35b3480156103de57600080fd5b506103e7610f08565b6040518082815260200191505060405180910390f35b34801561040957600080fd5b506104766004803603606081101561042057600080fd5b81019080803573ffffffffffffffffffffffffffffffffffffffff169060200190929190803573ffffffffffffffffffffffffffffffffffffffff16906020019092919080359060200190929190505050610f18565b60405180821515815260200191505060405180910390f35b34801561049a57600080fd5b506104c7600480360360208110156104b157600080fd5b8101908080359060200190929190505050610ff1565b6040518082815260200191505060405180910390f35b3480156104e957600080fd5b506104f2611075565b604051808260ff16815260200191505060405180910390f35b34801561051757600080fd5b5061055a6004803603602081101561052e57600080fd5b81019080803573ffffffffffffffffffffffffffffffffffffffff16906020019092919050505061108c565b005b34801561056857600080fd5b506105b56004803603604081101561057f57600080fd5b81019080803573ffffffffffffffffffffffffffffffffffffffff16906020019092919080359060200190929190505050611416565b60405180821515815260200191505060405180910390f35b3480156105d957600080fd5b506105e26114c9565b6040518082815260200191505060405180910390f35b34801561060457600080fd5b506106316004803603602081101561061b57600080fd5b81019080803590602001909291905050506114cf565b005b34801561063f57600080fd5b506106826004803603602081101561065657600080fd5b81019080803573ffffffffffffffffffffffffffffffffffffffff169060200190929190505050611660565b005b34801561069057600080fd5b506106c9600480360360408110156106a757600080fd5b8101908080359060200190929190803515159060200190929190505050611783565b6040518082815260200191505060405180910390f35b3480156106eb57600080fd5b506106f4611840565b604051808273ffffffffffffffffffffffffffffffffffffffff16815260200191505060405180910390f35b34801561072c57600080fd5b50610735611864565b60405180821515815260200191505060405180910390f35b34801561075957600080fd5b5061079c6004803603602081101561077057600080fd5b81019080803573ffffffffffffffffffffffffffffffffffffffff169060200190929190505050611877565b005b3480156107aa57600080fd5b506107ed600480360360208110156107c157600080fd5b81019080803573ffffffffffffffffffffffffffffffffffffffff169060200190929190505050611b91565b60405180821515815260200191505060405180910390f35b34801561081157600080fd5b5061081a611be7565b6040518082815260200191505060405180910390f35b34801561083c57600080fd5b5061087f6004803603602081101561085357600080fd5b81019080803573ffffffffffffffffffffffffffffffffffffffff169060200190929190505050611bed565b6040518082815260200191505060405180910390f35b3480156108a157600080fd5b506108aa611cd8565b005b3480156108b857600080fd5b506108c1611e5e565b6040518082815260200191505060405180910390f35b3480156108e357600080fd5b50610926600480360360208110156108fa57600080fd5b81019080803573ffffffffffffffffffffffffffffffffffffffff169060200190929190505050611e64565b60405180821515815260200191505060405180910390f35b34801561094a57600080fd5b50610953611eba565b604051808273ffffffffffffffffffffffffffffffffffffffff16815260200191505060405180910390f35b34801561098b57600080fd5b506109b8600480360360208110156109a257600080fd5b8101908080359060200190929190505050611ee3565b005b3480156109c657600080fd5b506109cf611fb5565b6040518080602001828103825283818151815260200191508051906020019080838360005b83811015610a0f5780820151818401526020810190506109f4565b50505050905090810190601f168015610a3c5780820380516001836020036101000a031916815260200191505b509250505060405180910390f35b348015610a5657600080fd5b50610aa360048036036040811015610a6d57600080fd5b81019080803573ffffffffffffffffffffffffffffffffffffffff16906020019092919080359060200190929190505050612057565b60405180821515815260200191505060405180910390f35b348015610ac757600080fd5b50610ad0612124565b005b348015610ade57600080fd5b50610b2b60048036036040811015610af557600080fd5b81019080803573ffffffffffffffffffffffffffffffffffffffff16906020019092919080359060200190929190505050612341565b60405180821515815260200191505060405180910390f35b348015610b4f57600080fd5b50610b5861235f565b6040518082815260200191505060405180910390f35b348015610b7a57600080fd5b50610ba960048036036020811015610b9157600080fd5b81019080803515159060200190929190505050612369565b005b348015610bb757600080fd5b50610be460048036036020811015610bce57600080fd5b8101908080359060200190929190505050612487565b005b348015610bf257600080fd5b50610c1f60048036036020811015610c0957600080fd5b8101908080359060200190929190505050612586565b005b348015610c2d57600080fd5b50610c9060048036036040811015610c4457600080fd5b81019080803573ffffffffffffffffffffffffffffffffffffffff169060200190929190803573ffffffffffffffffffffffffffffffffffffffff169060200190929190505050612777565b6040518082815260200191505060405180910390f35b348015610cb257600080fd5b50610cf560048036036020811015610cc957600080fd5b81019080803573ffffffffffffffffffffffffffffffffffffffff1690602001909291905050506127fe565b005b348015610d0357600080fd5b50610d4660048036036020811015610d1a57600080fd5b81019080803573ffffffffffffffffffffffffffffffffffffffff169060200190929190505050612921565b005b610d50612b2c565b73ffffffffffffffffffffffffffffffffffffffff1660008054906101000a900473ffffffffffffffffffffffffffffffffffffffff1673ffffffffffffffffffffffffffffffffffffffff1614610e10576040517f08c379a00000000000000000000000000000000000000000000000000000000081526004018080602001828103825260208152602001807f4f776e61626c653a2063616c6c6572206973206e6f7420746865206f776e657281525060200191505060405180910390fd5b80600e8190555050565b6060600b8054600181600116156101000203166002900480601f016020809104026020016040519081016040528092919081815260200182805460018160011615610100020316600290048015610eb25780601f10610e8757610100808354040283529160200191610eb2565b820191906000526020600020905b815481529060010190602001808311610e9557829003601f168201915b5050505050905090565b6000610ed0610ec9612b2c565b8484612b34565b6001905092915050565b6000600a54905090565b7f000000000000000000000000000000000000000000000000000000000000000081565b6000670de0b6b3a7640000905090565b6000610f25848484612d2b565b610fe684610f31612b2c565b610fe185604051806060016040528060288152602001614d1460289139600560008b73ffffffffffffffffffffffffffffffffffffffff1673ffffffffffffffffffffffffffffffffffffffff1681526020019081526020016000206000610f97612b2c565b73ffffffffffffffffffffffffffffffffffffffff1673ffffffffffffffffffffffffffffffffffffffff168152602001908152602001600020546130f09092919063ffffffff16565b612b34565b600190509392505050565b600060095482111561104e576040517f08c379a000000000000000000000000000000000000000000000000000000000815260040180806020018281038252602a815260200180614c59602a913960400191505060405180910390fd5b60006110586131b0565b905061106d81846131db90919063ffffffff16565b915050919050565b6000600d60009054906101000a900460ff16905090565b611094612b2c565b73ffffffffffffffffffffffffffffffffffffffff1660008054906101000a900473ffffffffffffffffffffffffffffffffffffffff1673ffffffffffffffffffffffffffffffffffffffff1614611154576040517f08c379a00000000000000000000000000000000000000000000000000000000081526004018080602001828103825260208152602001807f4f776e61626c653a2063616c6c6572206973206e6f7420746865206f776e657281525060200191505060405180910390fd5b600760008273ffffffffffffffffffffffffffffffffffffffff1673ffffffffffffffffffffffffffffffffffffffff16815260200190815260200160002060009054906101000a900460ff16611213576040517f08c379a000000000000000000000000000000000000000000000000000000000815260040180806020018281038252601b8152602001807f4163636f756e7420697320616c7265616479206578636c75646564000000000081525060200191505060405180910390fd5b60005b600880549050811015611412578173ffffffffffffffffffffffffffffffffffffffff166008828154811061124757fe5b9060005260206000200160009054906101000a900473ffffffffffffffffffffffffffffffffffffffff1673ffffffffffffffffffffffffffffffffffffffff161415611405576008600160088054905003815481106112a357fe5b9060005260206000200160009054906101000a900473ffffffffffffffffffffffffffffffffffffffff16600882815481106112db57fe5b9060005260206000200160006101000a81548173ffffffffffffffffffffffffffffffffffffffff021916908373ffffffffffffffffffffffffffffffffffffffff1602179055506000600460008473ffffffffffffffffffffffffffffffffffffffff1673ffffffffffffffffffffffffffffffffffffffff168152602001908152602001600020819055506000600760008473ffffffffffffffffffffffffffffffffffffffff1673ffffffffffffffffffffffffffffffffffffffff16815260200190815260200160002060006101000a81548160ff02191690831515021790555060088054806113cb57fe5b6001900381819060005260206000200160006101000a81549073ffffffffffffffffffffffffffffffffffffffff02191690559055611412565b8080600101915050611216565b5050565b60006114bf611423612b2c565b846114ba8560056000611434612b2c565b73ffffffffffffffffffffffffffffffffffffffff1673ffffffffffffffffffffffffffffffffffffffff16815260200190815260200160002060008973ffffffffffffffffffffffffffffffffffffffff1673ffffffffffffffffffffffffffffffffffffffff1681526020019081526020016000205461322590919063ffffffff16565b612b34565b6001905092915050565b600e5481565b60006114d9612b2c565b9050600760008273ffffffffffffffffffffffffffffffffffffffff1673ffffffffffffffffffffffffffffffffffffffff16815260200190815260200160002060009054906101000a900460ff161561157e576040517f08c379a000000000000000000000000000000000000000000000000000000000815260040180806020018281038252602c815260200180614dae602c913960400191505060405180910390fd5b6000611589836132ad565b505050505090506115e281600360008573ffffffffffffffffffffffffffffffffffffffff1673ffffffffffffffffffffffffffffffffffffffff1681526020019081526020016000205461330990919063ffffffff16565b600360008473ffffffffffffffffffffffffffffffffffffffff1673ffffffffffffffffffffffffffffffffffffffff1681526020019081526020016000208190555061163a8160095461330990919063ffffffff16565b60098190555061165583600a5461322590919063ffffffff16565b600a81905550505050565b611668612b2c565b73ffffffffffffffffffffffffffffffffffffffff1660008054906101000a900473ffffffffffffffffffffffffffffffffffffffff1673ffffffffffffffffffffffffffffffffffffffff1614611728576040517f08c379a00000000000000000000000000000000000000000000000000000000081526004018080602001828103825260208152602001807f4f776e61626c653a2063616c6c6572206973206e6f7420746865206f776e657281525060200191505060405180910390fd5b6001600660008373ffffffffffffffffffffffffffffffffffffffff1673ffffffffffffffffffffffffffffffffffffffff16815260200190815260200160002060006101000a81548160ff02191690831515021790555050565b6000670de0b6b3a7640000831115611803576040517f08c379a000000000000000000000000000000000000000000000000000000000815260040180806020018281038252601f8152602001807f416d6f756e74206d757374206265206c657373207468616e20737570706c790081525060200191505060405180910390fd5b81611823576000611813846132ad565b505050505090508091505061183a565b600061182e846132ad565b50505050915050809150505b92915050565b7f000000000000000000000000000000000000000000000000000000000000000081565b601260019054906101000a900460ff1681565b61187f612b2c565b73ffffffffffffffffffffffffffffffffffffffff1660008054906101000a900473ffffffffffffffffffffffffffffffffffffffff1673ffffffffffffffffffffffffffffffffffffffff161461193f576040517f08c379a00000000000000000000000000000000000000000000000000000000081526004018080602001828103825260208152602001807f4f776e61626c653a2063616c6c6572206973206e6f7420746865206f776e657281525060200191505060405180910390fd5b600760008273ffffffffffffffffffffffffffffffffffffffff1673ffffffffffffffffffffffffffffffffffffffff16815260200190815260200160002060009054906101000a900460ff16156119ff576040517f08c379a000000000000000000000000000000000000000000000000000000000815260040180806020018281038252601b8152602001807f4163636f756e7420697320616c7265616479206578636c75646564000000000081525060200191505060405180910390fd5b6000600360008373ffffffffffffffffffffffffffffffffffffffff1673ffffffffffffffffffffffffffffffffffffffff168152602001908152602001600020541115611ad357611a8f600360008373ffffffffffffffffffffffffffffffffffffffff1673ffffffffffffffffffffffffffffffffffffffff16815260200190815260200160002054610ff1565b600460008373ffffffffffffffffffffffffffffffffffffffff1673ffffffffffffffffffffffffffffffffffffffff168152602001908152602001600020819055505b6001600760008373ffffffffffffffffffffffffffffffffffffffff1673ffffffffffffffffffffffffffffffffffffffff16815260200190815260200160002060006101000a81548160ff0219169083151502179055506008819080600181540180825580915050600190039060005260206000200160009091909190916101000a81548173ffffffffffffffffffffffffffffffffffffffff021916908373ffffffffffffffffffffffffffffffffffffffff16021790555050565b6000600660008373ffffffffffffffffffffffffffffffffffffffff1673ffffffffffffffffffffffffffffffffffffffff16815260200190815260200160002060009054906101000a900460ff169050919050565b60105481565b6000600760008373ffffffffffffffffffffffffffffffffffffffff1673ffffffffffffffffffffffffffffffffffffffff16815260200190815260200160002060009054906101000a900460ff1615611c8857600460008373ffffffffffffffffffffffffffffffffffffffff1673ffffffffffffffffffffffffffffffffffffffff168152602001908152602001600020549050611cd3565b611cd0600360008473ffffffffffffffffffffffffffffffffffffffff1673ffffffffffffffffffffffffffffffffffffffff16815260200190815260200160002054610ff1565b90505b919050565b611ce0612b2c565b73ffffffffffffffffffffffffffffffffffffffff1660008054906101000a900473ffffffffffffffffffffffffffffffffffffffff1673ffffffffffffffffffffffffffffffffffffffff1614611da0576040517f08c379a00000000000000000000000000000000000000000000000000000000081526004018080602001828103825260208152602001807f4f776e61626c653a2063616c6c6572206973206e6f7420746865206f776e657281525060200191505060405180910390fd5b600073ffffffffffffffffffffffffffffffffffffffff1660008054906101000a900473ffffffffffffffffffffffffffffffffffffffff1673ffffffffffffffffffffffffffffffffffffffff167f8be0079c531659141344cd1fd0a4f28419497f9722a3daafe3b4186f6b6457e060405160405180910390a360008060006101000a81548173ffffffffffffffffffffffffffffffffffffffff021916908373ffffffffffffffffffffffffffffffffffffffff160217905550565b60135481565b6000600760008373ffffffffffffffffffffffffffffffffffffffff1673ffffffffffffffffffffffffffffffffffffffff16815260200190815260200160002060009054906101000a900460ff169050919050565b60008060009054906101000a900473ffffffffffffffffffffffffffffffffffffffff16905090565b611eeb612b2c565b73ffffffffffffffffffffffffffffffffffffffff1660008054906101000a900473ffffffffffffffffffffffffffffffffffffffff1673ffffffffffffffffffffffffffffffffffffffff1614611fab576040517f08c379a00000000000000000000000000000000000000000000000000000000081526004018080602001828103825260208152602001807f4f776e61626c653a2063616c6c6572206973206e6f7420746865206f776e657281525060200191505060405180910390fd5b8060108190555050565b6060600c8054600181600116156101000203166002900480601f01602080910402602001604051908101604052809291908181526020018280546001816001161561010002031660029004801561204d5780601f106120225761010080835404028352916020019161204d565b820191906000526020600020905b81548152906001019060200180831161203057829003601f168201915b5050505050905090565b600061211a612064612b2c565b8461211585604051806060016040528060258152602001614dfd602591396005600061208e612b2c565b73ffffffffffffffffffffffffffffffffffffffff1673ffffffffffffffffffffffffffffffffffffffff16815260200190815260200160002060008a73ffffffffffffffffffffffffffffffffffffffff1673ffffffffffffffffffffffffffffffffffffffff168152602001908152602001600020546130f09092919063ffffffff16565b612b34565b6001905092915050565b3373ffffffffffffffffffffffffffffffffffffffff16600160009054906101000a900473ffffffffffffffffffffffffffffffffffffffff1673ffffffffffffffffffffffffffffffffffffffff16146121ca576040517f08c379a0000000000000000000000000000000000000000000000000000000008152600401808060200182810382526023815260200180614dda6023913960400191505060405180910390fd5b6002544211612241576040517f08c379a000000000000000000000000000000000000000000000000000000000815260040180806020018281038252601f8152602001807f436f6e7472616374206973206c6f636b656420756e74696c203720646179730081525060200191505060405180910390fd5b600160009054906101000a900473ffffffffffffffffffffffffffffffffffffffff1673ffffffffffffffffffffffffffffffffffffffff1660008054906101000a900473ffffffffffffffffffffffffffffffffffffffff1673ffffffffffffffffffffffffffffffffffffffff167f8be0079c531659141344cd1fd0a4f28419497f9722a3daafe3b4186f6b6457e060405160405180910390a3600160009054906101000a900473ffffffffffffffffffffffffffffffffffffffff166000806101000a81548173ffffffffffffffffffffffffffffffffffffffff021916908373ffffffffffffffffffffffffffffffffffffffff160217905550565b600061235561234e612b2c565b8484612d2b565b6001905092915050565b6000600254905090565b612371612b2c565b73ffffffffffffffffffffffffffffffffffffffff1660008054906101000a900473ffffffffffffffffffffffffffffffffffffffff1673ffffffffffffffffffffffffffffffffffffffff1614612431576040517f08c379a00000000000000000000000000000000000000000000000000000000081526004018080602001828103825260208152602001807f4f776e61626c653a2063616c6c6572206973206e6f7420746865206f776e657281525060200191505060405180910390fd5b80601260016101000a81548160ff0219169083151502179055507f53726dfcaf90650aa7eb35524f4d3220f07413c8d6cb404cc8c18bf5591bc1598160405180821515815260200191505060405180910390a150565b61248f612b2c565b73ffffffffffffffffffffffffffffffffffffffff1660008054906101000a900473ffffffffffffffffffffffffffffffffffffffff1673ffffffffffffffffffffffffffffffffffffffff161461254f576040517f08c379a00000000000000000000000000000000000000000000000000000000081526004018080602001828103825260208152602001807f4f776e61626c653a2063616c6c6572206973206e6f7420746865206f776e657281525060200191505060405180910390fd5b61257d606461256f83670de0b6b3a764000061335390919063ffffffff16565b6131db90919063ffffffff16565b60138190555050565b61258e612b2c565b73ffffffffffffffffffffffffffffffffffffffff1660008054906101000a900473ffffffffffffffffffffffffffffffffffffffff1673ffffffffffffffffffffffffffffffffffffffff161461264e576040517f08c379a00000000000000000000000000000000000000000000000000000000081526004018080602001828103825260208152602001807f4f776e61626c653a2063616c6c6572206973206e6f7420746865206f776e657281525060200191505060405180910390fd5b60008054906101000a900473ffffffffffffffffffffffffffffffffffffffff16600160006101000a81548173ffffffffffffffffffffffffffffffffffffffff021916908373ffffffffffffffffffffffffffffffffffffffff16021790555060008060006101000a81548173ffffffffffffffffffffffffffffffffffffffff021916908373ffffffffffffffffffffffffffffffffffffffff160217905550804201600281905550600073ffffffffffffffffffffffffffffffffffffffff1660008054906101000a900473ffffffffffffffffffffffffffffffffffffffff1673ffffffffffffffffffffffffffffffffffffffff167f8be0079c531659141344cd1fd0a4f28419497f9722a3daafe3b4186f6b6457e060405160405180910390a350565b6000600560008473ffffffffffffffffffffffffffffffffffffffff1673ffffffffffffffffffffffffffffffffffffffff16815260200190815260200160002060008373ffffffffffffffffffffffffffffffffffffffff1673ffffffffffffffffffffffffffffffffffffffff16815260200190815260200160002054905092915050565b612806612b2c565b73ffffffffffffffffffffffffffffffffffffffff1660008054906101000a900473ffffffffffffffffffffffffffffffffffffffff1673ffffffffffffffffffffffffffffffffffffffff16146128c6576040517f08c379a00000000000000000000000000000000000000000000000000000000081526004018080602001828103825260208152602001807f4f776e61626c653a2063616c6c6572206973206e6f7420746865206f776e657281525060200191505060405180910390fd5b6000600660008373ffffffffffffffffffffffffffffffffffffffff1673ffffffffffffffffffffffffffffffffffffffff16815260200190815260200160002060006101000a81548160ff02191690831515021790555050565b612929612b2c565b73ffffffffffffffffffffffffffffffffffffffff1660008054906101000a900473ffffffffffffffffffffffffffffffffffffffff1673ffffffffffffffffffffffffffffffffffffffff16146129e9576040517f08c379a00000000000000000000000000000000000000000000000000000000081526004018080602001828103825260208152602001807f4f776e61626c653a2063616c6c6572206973206e6f7420746865206f776e657281525060200191505060405180910390fd5b600073ffffffffffffffffffffffffffffffffffffffff168173ffffffffffffffffffffffffffffffffffffffff161415612a6f576040517f08c379a0000000000000000000000000000000000000000000000000000000008152600401808060200182810382526026815260200180614c836026913960400191505060405180910390fd5b8073ffffffffffffffffffffffffffffffffffffffff1660008054906101000a900473ffffffffffffffffffffffffffffffffffffffff1673ffffffffffffffffffffffffffffffffffffffff167f8be0079c531659141344cd1fd0a4f28419497f9722a3daafe3b4186f6b6457e060405160405180910390a3806000806101000a81548173ffffffffffffffffffffffffffffffffffffffff021916908373ffffffffffffffffffffffffffffffffffffffff16021790555050565b600033905090565b600073ffffffffffffffffffffffffffffffffffffffff168373ffffffffffffffffffffffffffffffffffffffff161415612bba576040517f08c379a0000000000000000000000000000000000000000000000000000000008152600401808060200182810382526024815260200180614d8a6024913960400191505060405180910390fd5b600073ffffffffffffffffffffffffffffffffffffffff168273ffffffffffffffffffffffffffffffffffffffff161415612c40576040517f08c379a0000000000000000000000000000000000000000000000000000000008152600401808060200182810382526022815260200180614ca96022913960400191505060405180910390fd5b80600560008573ffffffffffffffffffffffffffffffffffffffff1673ffffffffffffffffffffffffffffffffffffffff16815260200190815260200160002060008473ffffffffffffffffffffffffffffffffffffffff1673ffffffffffffffffffffffffffffffffffffffff168152602001908152602001600020819055508173ffffffffffffffffffffffffffffffffffffffff168373ffffffffffffffffffffffffffffffffffffffff167f8c5be1e5ebec7d5bd14f71427d1e84f3dd0314c0f7b2291e5b200ac8c7c3b925836040518082815260200191505060405180910390a3505050565b600073ffffffffffffffffffffffffffffffffffffffff168373ffffffffffffffffffffffffffffffffffffffff161415612db1576040517f08c379a0000000000000000000000000000000000000000000000000000000008152600401808060200182810382526025815260200180614d656025913960400191505060405180910390fd5b600073ffffffffffffffffffffffffffffffffffffffff168273ffffffffffffffffffffffffffffffffffffffff161415612e37576040517f08c379a0000000000000000000000000000000000000000000000000000000008152600401808060200182810382526023815260200180614c366023913960400191505060405180910390fd5b60008111612e90576040517f08c379a0000000000000000000000000000000000000000000000000000000008152600401808060200182810382526029815260200180614d3c6029913960400191505060405180910390fd5b612e98611eba565b73ffffffffffffffffffffffffffffffffffffffff168373ffffffffffffffffffffffffffffffffffffffff1614158015612f065750612ed6611eba565b73ffffffffffffffffffffffffffffffffffffffff168273ffffffffffffffffffffffffffffffffffffffff1614155b15612f6757601354811115612f66576040517f08c379a0000000000000000000000000000000000000000000000000000000008152600401808060200182810382526028815260200180614ccb6028913960400191505060405180910390fd5b5b6000612f7230611bed565b90506013548110612f835760135490505b60006014548210159050808015612fa75750601260009054906101000a900460ff16155b8015612fff57507f000000000000000000000000000000000000000000000000000000000000000073ffffffffffffffffffffffffffffffffffffffff168573ffffffffffffffffffffffffffffffffffffffff1614155b80156130175750601260019054906101000a900460ff165b1561302b57601454915061302a826133d9565b5b600060019050600660008773ffffffffffffffffffffffffffffffffffffffff1673ffffffffffffffffffffffffffffffffffffffff16815260200190815260200160002060009054906101000a900460ff16806130d25750600660008673ffffffffffffffffffffffffffffffffffffffff1673ffffffffffffffffffffffffffffffffffffffff16815260200190815260200160002060009054906101000a900460ff165b156130dc57600090505b6130e8868686846134bb565b505050505050565b600083831115829061319d576040517f08c379a00000000000000000000000000000000000000000000000000000000081526004018080602001828103825283818151815260200191508051906020019080838360005b83811015613162578082015181840152602081019050613147565b50505050905090810190601f16801561318f5780820380516001836020036101000a031916815260200191505b509250505060405180910390fd5b5060008385039050809150509392505050565b60008060006131bd6137cc565b915091506131d481836131db90919063ffffffff16565b9250505090565b600061321d83836040518060400160405280601a81526020017f536166654d6174683a206469766973696f6e206279207a65726f000000000000815250613a75565b905092915050565b6000808284019050838110156132a3576040517f08c379a000000000000000000000000000000000000000000000000000000000815260040180806020018281038252601b8152602001807f536166654d6174683a206164646974696f6e206f766572666c6f77000000000081525060200191505060405180910390fd5b8091505092915050565b60008060008060008060008060006132c48a613b3b565b92509250925060008060006132e28d86866132dd6131b0565b613b95565b9250925092508282828888889b509b509b509b509b509b5050505050505091939550919395565b600061334b83836040518060400160405280601e81526020017f536166654d6174683a207375627472616374696f6e206f766572666c6f7700008152506130f0565b905092915050565b60008083141561336657600090506133d3565b600082840290508284828161337757fe5b04146133ce576040517f08c379a0000000000000000000000000000000000000000000000000000000008152600401808060200182810382526021815260200180614cf36021913960400191505060405180910390fd5b809150505b92915050565b6001601260006101000a81548160ff021916908315150217905550600061340a6002836131db90919063ffffffff16565b90506000613421828461330990919063ffffffff16565b9050600047905061343183613c1e565b6000613446824761330990919063ffffffff16565b90506134528382613ecc565b7f17bbfb9a6069321b6ded73bd96327c9e6b7212a5cd51ff219cd61370acafb56184828560405180848152602001838152602001828152602001935050505060405180910390a1505050506000601260006101000a81548160ff02191690831515021790555050565b806134c9576134c861401d565b5b600760008573ffffffffffffffffffffffffffffffffffffffff1673ffffffffffffffffffffffffffffffffffffffff16815260200190815260200160002060009054906101000a900460ff16801561356c5750600760008473ffffffffffffffffffffffffffffffffffffffff1673ffffffffffffffffffffffffffffffffffffffff16815260200190815260200160002060009054906101000a900460ff16155b156135815761357c848484614060565b6137b8565b600760008573ffffffffffffffffffffffffffffffffffffffff1673ffffffffffffffffffffffffffffffffffffffff16815260200190815260200160002060009054906101000a900460ff161580156136245750600760008473ffffffffffffffffffffffffffffffffffffffff1673ffffffffffffffffffffffffffffffffffffffff16815260200190815260200160002060009054906101000a900460ff165b15613639576136348484846142c0565b6137b7565b600760008573ffffffffffffffffffffffffffffffffffffffff1673ffffffffffffffffffffffffffffffffffffffff16815260200190815260200160002060009054906101000a900460ff161580156136dd5750600760008473ffffffffffffffffffffffffffffffffffffffff1673ffffffffffffffffffffffffffffffffffffffff16815260200190815260200160002060009054906101000a900460ff16155b156136f2576136ed848484614520565b6137b6565b600760008573ffffffffffffffffffffffffffffffffffffffff1673ffffffffffffffffffffffffffffffffffffffff16815260200190815260200160002060009054906101000a900460ff1680156137945750600760008473ffffffffffffffffffffffffffffffffffffffff1673ffffffffffffffffffffffffffffffffffffffff16815260200190815260200160002060009054906101000a900460ff165b156137a9576137a48484846146eb565b6137b5565b6137b4848484614520565b5b5b5b5b806137c6576137c56149e0565b5b50505050565b600080600060095490506000670de0b6b3a7640000905060005b600880549050811015613a2c5782600360006008848154811061380557fe5b9060005260206000200160009054906101000a900473ffffffffffffffffffffffffffffffffffffffff1673ffffffffffffffffffffffffffffffffffffffff1673ffffffffffffffffffffffffffffffffffffffff1681526020019081526020016000205411806138ec575081600460006008848154811061388457fe5b9060005260206000200160009054906101000a900473ffffffffffffffffffffffffffffffffffffffff1673ffffffffffffffffffffffffffffffffffffffff1673ffffffffffffffffffffffffffffffffffffffff16815260200190815260200160002054115b1561390957600954670de0b6b3a764000094509450505050613a71565b613992600360006008848154811061391d57fe5b9060005260206000200160009054906101000a900473ffffffffffffffffffffffffffffffffffffffff1673ffffffffffffffffffffffffffffffffffffffff1673ffffffffffffffffffffffffffffffffffffffff168152602001908152602001600020548461330990919063ffffffff16565b9250613a1d60046000600884815481106139a857fe5b9060005260206000200160009054906101000a900473ffffffffffffffffffffffffffffffffffffffff1673ffffffffffffffffffffffffffffffffffffffff1673ffffffffffffffffffffffffffffffffffffffff168152602001908152602001600020548361330990919063ffffffff16565b915080806001019150506137e6565b50613a4a670de0b6b3a76400006009546131db90919063ffffffff16565b821015613a6857600954670de0b6b3a7640000935093505050613a71565b81819350935050505b9091565b60008083118290613b21576040517f08c379a00000000000000000000000000000000000000000000000000000000081526004018080602001828103825283818151815260200191508051906020019080838360005b83811015613ae6578082015181840152602081019050613acb565b50505050905090810190601f168015613b135780820380516001836020036101000a031916815260200191505b509250505060405180910390fd5b506000838581613b2d57fe5b049050809150509392505050565b600080600080613b4a856149f4565b90506000613b5786614a25565b90506000613b8082613b72858a61330990919063ffffffff16565b61330990919063ffffffff16565b90508083839550955095505050509193909250565b600080600080613bae858961335390919063ffffffff16565b90506000613bc5868961335390919063ffffffff16565b90506000613bdc878961335390919063ffffffff16565b90506000613c0582613bf7858761330990919063ffffffff16565b61330990919063ffffffff16565b9050838184965096509650505050509450945094915050565b6060600267ffffffffffffffff81118015613c3857600080fd5b50604051908082528060200260200182016040528015613c675781602001602082028036833780820191505090505b5090503081600081518110613c7857fe5b602002602001019073ffffffffffffffffffffffffffffffffffffffff16908173ffffffffffffffffffffffffffffffffffffffff16815250507f000000000000000000000000000000000000000000000000000000000000000073ffffffffffffffffffffffffffffffffffffffff1663ad5c46486040518163ffffffff1660e01b815260040160206040518083038186803b158015613d1857600080fd5b505afa158015613d2c573d6000803e3d6000fd5b505050506040513d6020811015613d4257600080fd5b810190808051906020019092919050505081600181518110613d6057fe5b602002602001019073ffffffffffffffffffffffffffffffffffffffff16908173ffffffffffffffffffffffffffffffffffffffff1681525050613dc5307f000000000000000000000000000000000000000000000000000000000000000084612b34565b7f000000000000000000000000000000000000000000000000000000000000000073ffffffffffffffffffffffffffffffffffffffff1663791ac9478360008430426040518663ffffffff1660e01b815260040180868152602001858152602001806020018473ffffffffffffffffffffffffffffffffffffffff168152602001838152602001828103825285818151815260200191508051906020019060200280838360005b83811015613e87578082015181840152602081019050613e6c565b505050509050019650505050505050600060405180830381600087803b158015613eb057600080fd5b505af1158015613ec4573d6000803e3d6000fd5b505050505050565b613ef7307f000000000000000000000000000000000000000000000000000000000000000084612b34565b7f000000000000000000000000000000000000000000000000000000000000000073ffffffffffffffffffffffffffffffffffffffff1663f305d719823085600080613f41611eba565b426040518863ffffffff1660e01b8152600401808773ffffffffffffffffffffffffffffffffffffffff1681526020018681526020018581526020018481526020018373ffffffffffffffffffffffffffffffffffffffff16815260200182815260200196505050505050506060604051808303818588803b158015613fc657600080fd5b505af1158015613fda573d6000803e3d6000fd5b50505050506040513d6060811015613ff157600080fd5b810190808051906020019092919080519060200190929190805190602001909291905050505050505050565b6000600e5414801561403157506000601054145b1561403b5761405e565b600e54600f819055506010546011819055506000600e8190555060006010819055505b565b600080600080600080614072876132ad565b9550955095509550955095506140d087600460008c73ffffffffffffffffffffffffffffffffffffffff1673ffffffffffffffffffffffffffffffffffffffff1681526020019081526020016000205461330990919063ffffffff16565b600460008b73ffffffffffffffffffffffffffffffffffffffff1673ffffffffffffffffffffffffffffffffffffffff1681526020019081526020016000208190555061416586600360008c73ffffffffffffffffffffffffffffffffffffffff1673ffffffffffffffffffffffffffffffffffffffff1681526020019081526020016000205461330990919063ffffffff16565b600360008b73ffffffffffffffffffffffffffffffffffffffff1673ffffffffffffffffffffffffffffffffffffffff168152602001908152602001600020819055506141fa85600360008b73ffffffffffffffffffffffffffffffffffffffff1673ffffffffffffffffffffffffffffffffffffffff1681526020019081526020016000205461322590919063ffffffff16565b600360008a73ffffffffffffffffffffffffffffffffffffffff1673ffffffffffffffffffffffffffffffffffffffff1681526020019081526020016000208190555061424681614a56565b6142508483614bfb565b8773ffffffffffffffffffffffffffffffffffffffff168973ffffffffffffffffffffffffffffffffffffffff167fddf252ad1be2c89b69c2b068fc378daa952ba7f163c4a11628f55a4df523b3ef856040518082815260200191505060405180910390a3505050505050505050565b6000806000806000806142d2876132ad565b95509550955095509550955061433086600360008c73ffffffffffffffffffffffffffffffffffffffff1673ffffffffffffffffffffffffffffffffffffffff1681526020019081526020016000205461330990919063ffffffff16565b600360008b73ffffffffffffffffffffffffffffffffffffffff1673ffffffffffffffffffffffffffffffffffffffff168152602001908152602001600020819055506143c583600460008b73ffffffffffffffffffffffffffffffffffffffff1673ffffffffffffffffffffffffffffffffffffffff1681526020019081526020016000205461322590919063ffffffff16565b600460008a73ffffffffffffffffffffffffffffffffffffffff1673ffffffffffffffffffffffffffffffffffffffff1681526020019081526020016000208190555061445a85600360008b73ffffffffffffffffffffffffffffffffffffffff1673ffffffffffffffffffffffffffffffffffffffff1681526020019081526020016000205461322590919063ffffffff16565b600360008a73ffffffffffffffffffffffffffffffffffffffff1673ffffffffffffffffffffffffffffffffffffffff168152602001908152602001600020819055506144a681614a56565b6144b08483614bfb565b8773ffffffffffffffffffffffffffffffffffffffff168973ffffffffffffffffffffffffffffffffffffffff167fddf252ad1be2c89b69c2b068fc378daa952ba7f163c4a11628f55a4df523b3ef856040518082815260200191505060405180910390a3505050505050505050565b600080600080600080614532876132ad565b95509550955095509550955061459086600360008c73ffffffffffffffffffffffffffffffffffffffff1673ffffffffffffffffffffffffffffffffffffffff1681526020019081526020016000205461330990919063ffffffff16565b600360008b73ffffffffffffffffffffffffffffffffffffffff1673ffffffffffffffffffffffffffffffffffffffff1681526020019081526020016000208190555061462585600360008b73ffffffffffffffffffffffffffffffffffffffff1673ffffffffffffffffffffffffffffffffffffffff1681526020019081526020016000205461322590919063ffffffff16565b600360008a73ffffffffffffffffffffffffffffffffffffffff1673ffffffffffffffffffffffffffffffffffffffff1681526020019081526020016000208190555061467181614a56565b61467b8483614bfb565b8773ffffffffffffffffffffffffffffffffffffffff168973ffffffffffffffffffffffffffffffffffffffff167fddf252ad1be2c89b69c2b068fc378daa952ba7f163c4a11628f55a4df523b3ef856040518082815260200191505060405180910390a3505050505050505050565b6000806000806000806146fd876132ad565b95509550955095509550955061475b87600460008c73ffffffffffffffffffffffffffffffffffffffff1673ffffffffffffffffffffffffffffffffffffffff1681526020019081526020016000205461330990919063ffffffff16565b600460008b73ffffffffffffffffffffffffffffffffffffffff1673ffffffffffffffffffffffffffffffffffffffff168152602001908152602001600020819055506147f086600360008c73ffffffffffffffffffffffffffffffffffffffff1673ffffffffffffffffffffffffffffffffffffffff1681526020019081526020016000205461330990919063ffffffff16565b600360008b73ffffffffffffffffffffffffffffffffffffffff1673ffffffffffffffffffffffffffffffffffffffff1681526020019081526020016000208190555061488583600460008b73ffffffffffffffffffffffffffffffffffffffff1673ffffffffffffffffffffffffffffffffffffffff1681526020019081526020016000205461322590919063ffffffff16565b600460008a73ffffffffffffffffffffffffffffffffffffffff1673ffffffffffffffffffffffffffffffffffffffff1681526020019081526020016000208190555061491a85600360008b73ffffffffffffffffffffffffffffffffffffffff1673ffffffffffffffffffffffffffffffffffffffff1681526020019081526020016000205461322590919063ffffffff16565b600360008a73ffffffffffffffffffffffffffffffffffffffff1673ffffffffffffffffffffffffffffffffffffffff1681526020019081526020016000208190555061496681614a56565b6149708483614bfb565b8773ffffffffffffffffffffffffffffffffffffffff168973ffffffffffffffffffffffffffffffffffffffff167fddf252ad1be2c89b69c2b068fc378daa952ba7f163c4a11628f55a4df523b3ef856040518082815260200191505060405180910390a3505050505050505050565b600f54600e81905550601154601081905550565b6000614a1e6064614a10600e548561335390919063ffffffff16565b6131db90919063ffffffff16565b9050919050565b6000614a4f6064614a416010548561335390919063ffffffff16565b6131db90919063ffffffff16565b9050919050565b6000614a606131b0565b90506000614a77828461335390919063ffffffff16565b9050614acb81600360003073ffffffffffffffffffffffffffffffffffffffff1673ffffffffffffffffffffffffffffffffffffffff1681526020019081526020016000205461322590919063ffffffff16565b600360003073ffffffffffffffffffffffffffffffffffffffff1673ffffffffffffffffffffffffffffffffffffffff16815260200190815260200160002081905550600760003073ffffffffffffffffffffffffffffffffffffffff1673ffffffffffffffffffffffffffffffffffffffff16815260200190815260200160002060009054906101000a900460ff1615614bf657614bb283600460003073ffffffffffffffffffffffffffffffffffffffff1673ffffffffffffffffffffffffffffffffffffffff1681526020019081526020016000205461322590919063ffffffff16565b600460003073ffffffffffffffffffffffffffffffffffffffff1673ffffffffffffffffffffffffffffffffffffffff168152602001908152602001600020819055505b505050565b614c108260095461330990919063ffffffff16565b600981905550614c2b81600a5461322590919063ffffffff16565b600a81905550505056fe45524332303a207472616e7366657220746f20746865207a65726f2061646472657373416d6f756e74206d757374206265206c657373207468616e20746f74616c207265666c656374696f6e734f776e61626c653a206e6577206f776e657220697320746865207a65726f206164647265737345524332303a20617070726f766520746f20746865207a65726f20616464726573735472616e7366657220616d6f756e74206578636565647320746865206d61785478416d6f756e742e536166654d6174683a206d756c7469706c69636174696f6e206f766572666c6f7745524332303a207472616e7366657220616d6f756e74206578636565647320616c6c6f77616e63655472616e7366657220616d6f756e74206d7573742062652067726561746572207468616e207a65726f45524332303a207472616e736665722066726f6d20746865207a65726f206164647265737345524332303a20617070726f76652066726f6d20746865207a65726f20616464726573734578636c75646564206164647265737365732063616e6e6f742063616c6c20746869732066756e6374696f6e596f7520646f6e27742068617665207065726d697373696f6e20746f20756e6c6f636b45524332303a2064656372656173656420616c6c6f77616e63652062656c6f77207a65726fa264697066735822122048869556ddf2f85cd09e25538b68627b8267e7a6402a3d3e820c9e6c4cf3595064736f6c634300060c0033",
					"opcodes": "PUSH1 0xC0 PUSH1 0x40 MSTORE PUSH8 0xDE0B6B3A7640000 PUSH1 0x0 NOT DUP2 PUSH3 0x18 JUMPI INVALID JUMPDEST MOD PUSH1 0x0 NOT SUB PUSH1 0x9 SSTORE PUSH1 0x40 MLOAD DUP1 PUSH1 0x40 ADD PUSH1 0x40 MSTORE DUP1 PUSH1 0x9 DUP2 MSTORE PUSH1 0x20 ADD PUSH32 0x50696720546F6B656E0000000000000000000000000000000000000000000000 DUP2 MSTORE POP PUSH1 0xB SWAP1 DUP1 MLOAD SWAP1 PUSH1 0x20 ADD SWAP1 PUSH3 0x6D SWAP3 SWAP2 SWAP1 PUSH3 0x5F9 JUMP JUMPDEST POP PUSH1 0x40 MLOAD DUP1 PUSH1 0x40 ADD PUSH1 0x40 MSTORE DUP1 PUSH1 0x3 DUP2 MSTORE PUSH1 0x20 ADD PUSH32 0x5049470000000000000000000000000000000000000000000000000000000000 DUP2 MSTORE POP PUSH1 0xC SWAP1 DUP1 MLOAD SWAP1 PUSH1 0x20 ADD SWAP1 PUSH3 0xBB SWAP3 SWAP2 SWAP1 PUSH3 0x5F9 JUMP JUMPDEST POP PUSH1 0x9 PUSH1 0xD PUSH1 0x0 PUSH2 0x100 EXP DUP2 SLOAD DUP2 PUSH1 0xFF MUL NOT AND SWAP1 DUP4 PUSH1 0xFF AND MUL OR SWAP1 SSTORE POP PUSH1 0x2 PUSH1 0xE SSTORE PUSH1 0xE SLOAD PUSH1 0xF SSTORE PUSH1 0x3 PUSH1 0x10 SSTORE PUSH1 0x10 SLOAD PUSH1 0x11 SSTORE PUSH1 0x1 PUSH1 0x12 PUSH1 0x1 PUSH2 0x100 EXP DUP2 SLOAD DUP2 PUSH1 0xFF MUL NOT AND SWAP1 DUP4 ISZERO ISZERO MUL OR SWAP1 SSTORE POP PUSH8 0x6F05B59D3B20000 PUSH1 0x13 SSTORE PUSH8 0x3782DACE9D90000 PUSH1 0x14 SSTORE CALLVALUE DUP1 ISZERO PUSH3 0x12E JUMPI PUSH1 0x0 DUP1 REVERT JUMPDEST POP PUSH1 0x0 PUSH3 0x141 PUSH3 0x5C8 PUSH1 0x20 SHL PUSH1 0x20 SHR JUMP JUMPDEST SWAP1 POP DUP1 PUSH1 0x0 DUP1 PUSH2 0x100 EXP DUP2 SLOAD DUP2 PUSH20 0xFFFFFFFFFFFFFFFFFFFFFFFFFFFFFFFFFFFFFFFF MUL NOT AND SWAP1 DUP4 PUSH20 0xFFFFFFFFFFFFFFFFFFFFFFFFFFFFFFFFFFFFFFFF AND MUL OR SWAP1 SSTORE POP DUP1 PUSH20 0xFFFFFFFFFFFFFFFFFFFFFFFFFFFFFFFFFFFFFFFF AND PUSH1 0x0 PUSH20 0xFFFFFFFFFFFFFFFFFFFFFFFFFFFFFFFFFFFFFFFF AND PUSH32 0x8BE0079C531659141344CD1FD0A4F28419497F9722A3DAAFE3B4186F6B6457E0 PUSH1 0x40 MLOAD PUSH1 0x40 MLOAD DUP1 SWAP2 SUB SWAP1 LOG3 POP PUSH1 0x9 SLOAD PUSH1 0x3 PUSH1 0x0 PUSH3 0x1F6 PUSH3 0x5C8 PUSH1 0x20 SHL PUSH1 0x20 SHR JUMP JUMPDEST PUSH20 0xFFFFFFFFFFFFFFFFFFFFFFFFFFFFFFFFFFFFFFFF AND PUSH20 0xFFFFFFFFFFFFFFFFFFFFFFFFFFFFFFFFFFFFFFFF AND DUP2 MSTORE PUSH1 0x20 ADD SWAP1 DUP2 MSTORE PUSH1 0x20 ADD PUSH1 0x0 KECCAK256 DUP2 SWAP1 SSTORE POP PUSH1 0x0 PUSH20 0x5FF2B0DB69458A0750BADEBC4F9E13ADD608C7F SWAP1 POP DUP1 PUSH20 0xFFFFFFFFFFFFFFFFFFFFFFFFFFFFFFFFFFFFFFFF AND PUSH4 0xC45A0155 PUSH1 0x40 MLOAD DUP2 PUSH4 0xFFFFFFFF AND PUSH1 0xE0 SHL DUP2 MSTORE PUSH1 0x4 ADD PUSH1 0x20 PUSH1 0x40 MLOAD DUP1 DUP4 SUB DUP2 DUP7 DUP1 EXTCODESIZE ISZERO DUP1 ISZERO PUSH3 0x294 JUMPI PUSH1 0x0 DUP1 REVERT JUMPDEST POP GAS STATICCALL ISZERO DUP1 ISZERO PUSH3 0x2A9 JUMPI RETURNDATASIZE PUSH1 0x0 DUP1 RETURNDATACOPY RETURNDATASIZE PUSH1 0x0 REVERT JUMPDEST POP POP POP POP PUSH1 0x40 MLOAD RETURNDATASIZE PUSH1 0x20 DUP2 LT ISZERO PUSH3 0x2C0 JUMPI PUSH1 0x0 DUP1 REVERT JUMPDEST DUP2 ADD SWAP1 DUP1 DUP1 MLOAD SWAP1 PUSH1 0x20 ADD SWAP1 SWAP3 SWAP2 SWAP1 POP POP POP PUSH20 0xFFFFFFFFFFFFFFFFFFFFFFFFFFFFFFFFFFFFFFFF AND PUSH4 0xC9C65396 ADDRESS DUP4 PUSH20 0xFFFFFFFFFFFFFFFFFFFFFFFFFFFFFFFFFFFFFFFF AND PUSH4 0xAD5C4648 PUSH1 0x40 MLOAD DUP2 PUSH4 0xFFFFFFFF AND PUSH1 0xE0 SHL DUP2 MSTORE PUSH1 0x4 ADD PUSH1 0x20 PUSH1 0x40 MLOAD DUP1 DUP4 SUB DUP2 DUP7 DUP1 EXTCODESIZE ISZERO DUP1 ISZERO PUSH3 0x334 JUMPI PUSH1 0x0 DUP1 REVERT JUMPDEST POP GAS STATICCALL ISZERO DUP1 ISZERO PUSH3 0x349 JUMPI RETURNDATASIZE PUSH1 0x0 DUP1 RETURNDATACOPY RETURNDATASIZE PUSH1 0x0 REVERT JUMPDEST POP POP POP POP PUSH1 0x40 MLOAD RETURNDATASIZE PUSH1 0x20 DUP2 LT ISZERO PUSH3 0x360 JUMPI PUSH1 0x0 DUP1 REVERT JUMPDEST DUP2 ADD SWAP1 DUP1 DUP1 MLOAD SWAP1 PUSH1 0x20 ADD SWAP1 SWAP3 SWAP2 SWAP1 POP POP POP PUSH1 0x40 MLOAD DUP4 PUSH4 0xFFFFFFFF AND PUSH1 0xE0 SHL DUP2 MSTORE PUSH1 0x4 ADD DUP1 DUP4 PUSH20 0xFFFFFFFFFFFFFFFFFFFFFFFFFFFFFFFFFFFFFFFF AND DUP2 MSTORE PUSH1 0x20 ADD DUP3 PUSH20 0xFFFFFFFFFFFFFFFFFFFFFFFFFFFFFFFFFFFFFFFF AND DUP2 MSTORE PUSH1 0x20 ADD SWAP3 POP POP POP PUSH1 0x20 PUSH1 0x40 MLOAD DUP1 DUP4 SUB DUP2 PUSH1 0x0 DUP8 DUP1 EXTCODESIZE ISZERO DUP1 ISZERO PUSH3 0x3DB JUMPI PUSH1 0x0 DUP1 REVERT JUMPDEST POP GAS CALL ISZERO DUP1 ISZERO PUSH3 0x3F0 JUMPI RETURNDATASIZE PUSH1 0x0 DUP1 RETURNDATACOPY RETURNDATASIZE PUSH1 0x0 REVERT JUMPDEST POP POP POP POP PUSH1 0x40 MLOAD RETURNDATASIZE PUSH1 0x20 DUP2 LT ISZERO PUSH3 0x407 JUMPI PUSH1 0x0 DUP1 REVERT JUMPDEST DUP2 ADD SWAP1 DUP1 DUP1 MLOAD SWAP1 PUSH1 0x20 ADD SWAP1 SWAP3 SWAP2 SWAP1 POP POP POP PUSH20 0xFFFFFFFFFFFFFFFFFFFFFFFFFFFFFFFFFFFFFFFF AND PUSH1 0xA0 DUP2 PUSH20 0xFFFFFFFFFFFFFFFFFFFFFFFFFFFFFFFFFFFFFFFF AND PUSH1 0x60 SHL DUP2 MSTORE POP POP DUP1 PUSH20 0xFFFFFFFFFFFFFFFFFFFFFFFFFFFFFFFFFFFFFFFF AND PUSH1 0x80 DUP2 PUSH20 0xFFFFFFFFFFFFFFFFFFFFFFFFFFFFFFFFFFFFFFFF AND PUSH1 0x60 SHL DUP2 MSTORE POP POP PUSH1 0x1 PUSH1 0x6 PUSH1 0x0 PUSH3 0x49B PUSH3 0x5D0 PUSH1 0x20 SHL PUSH1 0x20 SHR JUMP JUMPDEST PUSH20 0xFFFFFFFFFFFFFFFFFFFFFFFFFFFFFFFFFFFFFFFF AND PUSH20 0xFFFFFFFFFFFFFFFFFFFFFFFFFFFFFFFFFFFFFFFF AND DUP2 MSTORE PUSH1 0x20 ADD SWAP1 DUP2 MSTORE PUSH1 0x20 ADD PUSH1 0x0 KECCAK256 PUSH1 0x0 PUSH2 0x100 EXP DUP2 SLOAD DUP2 PUSH1 0xFF MUL NOT AND SWAP1 DUP4 ISZERO ISZERO MUL OR SWAP1 SSTORE POP PUSH1 0x1 PUSH1 0x6 PUSH1 0x0 ADDRESS PUSH20 0xFFFFFFFFFFFFFFFFFFFFFFFFFFFFFFFFFFFFFFFF AND PUSH20 0xFFFFFFFFFFFFFFFFFFFFFFFFFFFFFFFFFFFFFFFF AND DUP2 MSTORE PUSH1 0x20 ADD SWAP1 DUP2 MSTORE PUSH1 0x20 ADD PUSH1 0x0 KECCAK256 PUSH1 0x0 PUSH2 0x100 EXP DUP2 SLOAD DUP2 PUSH1 0xFF MUL NOT AND SWAP1 DUP4 ISZERO ISZERO MUL OR SWAP1 SSTORE POP PUSH3 0x554 PUSH3 0x5C8 PUSH1 0x20 SHL PUSH1 0x20 SHR JUMP JUMPDEST PUSH20 0xFFFFFFFFFFFFFFFFFFFFFFFFFFFFFFFFFFFFFFFF AND PUSH1 0x0 PUSH20 0xFFFFFFFFFFFFFFFFFFFFFFFFFFFFFFFFFFFFFFFF AND PUSH32 0xDDF252AD1BE2C89B69C2B068FC378DAA952BA7F163C4A11628F55A4DF523B3EF PUSH8 0xDE0B6B3A7640000 PUSH1 0x40 MLOAD DUP1 DUP3 DUP2 MSTORE PUSH1 0x20 ADD SWAP2 POP POP PUSH1 0x40 MLOAD DUP1 SWAP2 SUB SWAP1 LOG3 POP PUSH3 0x69F JUMP JUMPDEST PUSH1 0x0 CALLER SWAP1 POP SWAP1 JUMP JUMPDEST PUSH1 0x0 DUP1 PUSH1 0x0 SWAP1 SLOAD SWAP1 PUSH2 0x100 EXP SWAP1 DIV PUSH20 0xFFFFFFFFFFFFFFFFFFFFFFFFFFFFFFFFFFFFFFFF AND SWAP1 POP SWAP1 JUMP JUMPDEST DUP3 DUP1 SLOAD PUSH1 0x1 DUP2 PUSH1 0x1 AND ISZERO PUSH2 0x100 MUL SUB AND PUSH1 0x2 SWAP1 DIV SWAP1 PUSH1 0x0 MSTORE PUSH1 0x20 PUSH1 0x0 KECCAK256 SWAP1 PUSH1 0x1F ADD PUSH1 0x20 SWAP1 DIV DUP2 ADD SWAP3 DUP3 PUSH1 0x1F LT PUSH3 0x63C JUMPI DUP1 MLOAD PUSH1 0xFF NOT AND DUP4 DUP1 ADD OR DUP6 SSTORE PUSH3 0x66D JUMP JUMPDEST DUP3 DUP1 ADD PUSH1 0x1 ADD DUP6 SSTORE DUP3 ISZERO PUSH3 0x66D JUMPI SWAP2 DUP3 ADD JUMPDEST DUP3 DUP2 GT ISZERO PUSH3 0x66C JUMPI DUP3 MLOAD DUP3 SSTORE SWAP2 PUSH1 0x20 ADD SWAP2 SWAP1 PUSH1 0x1 ADD SWAP1 PUSH3 0x64F JUMP JUMPDEST JUMPDEST POP SWAP1 POP PUSH3 0x67C SWAP2 SWAP1 PUSH3 0x680 JUMP JUMPDEST POP SWAP1 JUMP JUMPDEST JUMPDEST DUP1 DUP3 GT ISZERO PUSH3 0x69B JUMPI PUSH1 0x0 DUP2 PUSH1 0x0 SWAP1 SSTORE POP PUSH1 0x1 ADD PUSH3 0x681 JUMP JUMPDEST POP SWAP1 JUMP JUMPDEST PUSH1 0x80 MLOAD PUSH1 0x60 SHR PUSH1 0xA0 MLOAD PUSH1 0x60 SHR PUSH2 0x4E57 PUSH3 0x6E7 PUSH1 0x0 CODECOPY DUP1 PUSH2 0x1842 MSTORE DUP1 PUSH2 0x2FB0 MSTORE POP DUP1 PUSH2 0xEE6 MSTORE DUP1 PUSH2 0x3CB4 MSTORE DUP1 PUSH2 0x3DA0 MSTORE DUP1 PUSH2 0x3DC7 MSTORE DUP1 PUSH2 0x3ED2 MSTORE DUP1 PUSH2 0x3EF9 MSTORE POP PUSH2 0x4E57 PUSH1 0x0 RETURN INVALID PUSH1 0x80 PUSH1 0x40 MSTORE PUSH1 0x4 CALLDATASIZE LT PUSH2 0x21E JUMPI PUSH1 0x0 CALLDATALOAD PUSH1 0xE0 SHR DUP1 PUSH4 0x5342ACB4 GT PUSH2 0x123 JUMPI DUP1 PUSH4 0xA457C2D7 GT PUSH2 0xAB JUMPI DUP1 PUSH4 0xD543DBEB GT PUSH2 0x6F JUMPI DUP1 PUSH4 0xD543DBEB EQ PUSH2 0xBAB JUMPI DUP1 PUSH4 0xDD467064 EQ PUSH2 0xBE6 JUMPI DUP1 PUSH4 0xDD62ED3E EQ PUSH2 0xC21 JUMPI DUP1 PUSH4 0xEA2F0B37 EQ PUSH2 0xCA6 JUMPI DUP1 PUSH4 0xF2FDE38B EQ PUSH2 0xCF7 JUMPI PUSH2 0x225 JUMP JUMPDEST DUP1 PUSH4 0xA457C2D7 EQ PUSH2 0xA4A JUMPI DUP1 PUSH4 0xA69DF4B5 EQ PUSH2 0xABB JUMPI DUP1 PUSH4 0xA9059CBB EQ PUSH2 0xAD2 JUMPI DUP1 PUSH4 0xB6C52324 EQ PUSH2 0xB43 JUMPI DUP1 PUSH4 0xC49B9A80 EQ PUSH2 0xB6E JUMPI PUSH2 0x225 JUMP JUMPDEST DUP1 PUSH4 0x7D1DB4A5 GT PUSH2 0xF2 JUMPI DUP1 PUSH4 0x7D1DB4A5 EQ PUSH2 0x8AC JUMPI DUP1 PUSH4 0x88F82020 EQ PUSH2 0x8D7 JUMPI DUP1 PUSH4 0x8DA5CB5B EQ PUSH2 0x93E JUMPI DUP1 PUSH4 0x8EE88C53 EQ PUSH2 0x97F JUMPI DUP1 PUSH4 0x95D89B41 EQ PUSH2 0x9BA JUMPI PUSH2 0x225 JUMP JUMPDEST DUP1 PUSH4 0x5342ACB4 EQ PUSH2 0x79E JUMPI DUP1 PUSH4 0x6BC87C3A EQ PUSH2 0x805 JUMPI DUP1 PUSH4 0x70A08231 EQ PUSH2 0x830 JUMPI DUP1 PUSH4 0x715018A6 EQ PUSH2 0x895 JUMPI PUSH2 0x225 JUMP JUMPDEST DUP1 PUSH4 0x3685D419 GT PUSH2 0x1A6 JUMPI DUP1 PUSH4 0x437823EC GT PUSH2 0x175 JUMPI DUP1 PUSH4 0x437823EC EQ PUSH2 0x633 JUMPI DUP1 PUSH4 0x4549B039 EQ PUSH2 0x684 JUMPI DUP1 PUSH4 0x49BD5A5E EQ PUSH2 0x6DF JUMPI DUP1 PUSH4 0x4A74BB02 EQ PUSH2 0x720 JUMPI DUP1 PUSH4 0x52390C02 EQ PUSH2 0x74D JUMPI PUSH2 0x225 JUMP JUMPDEST DUP1 PUSH4 0x3685D419 EQ PUSH2 0x50B JUMPI DUP1 PUSH4 0x39509351 EQ PUSH2 0x55C JUMPI DUP1 PUSH4 0x3B124FE7 EQ PUSH2 0x5CD JUMPI DUP1 PUSH4 0x3BD5D173 EQ PUSH2 0x5F8 JUMPI PUSH2 0x225 JUMP JUMPDEST DUP1 PUSH4 0x1694505E GT PUSH2 0x1ED JUMPI DUP1 PUSH4 0x1694505E EQ PUSH2 0x391 JUMPI DUP1 PUSH4 0x18160DDD EQ PUSH2 0x3D2 JUMPI DUP1 PUSH4 0x23B872DD EQ PUSH2 0x3FD JUMPI DUP1 PUSH4 0x2D838119 EQ PUSH2 0x48E JUMPI DUP1 PUSH4 0x313CE567 EQ PUSH2 0x4DD JUMPI PUSH2 0x225 JUMP JUMPDEST DUP1 PUSH4 0x61C82D0 EQ PUSH2 0x22A JUMPI DUP1 PUSH4 0x6FDDE03 EQ PUSH2 0x265 JUMPI DUP1 PUSH4 0x95EA7B3 EQ PUSH2 0x2F5 JUMPI DUP1 PUSH4 0x13114A9D EQ PUSH2 0x366 JUMPI PUSH2 0x225 JUMP JUMPDEST CALLDATASIZE PUSH2 0x225 JUMPI STOP JUMPDEST PUSH1 0x0 DUP1 REVERT JUMPDEST CALLVALUE DUP1 ISZERO PUSH2 0x236 JUMPI PUSH1 0x0 DUP1 REVERT JUMPDEST POP PUSH2 0x263 PUSH1 0x4 DUP1 CALLDATASIZE SUB PUSH1 0x20 DUP2 LT ISZERO PUSH2 0x24D JUMPI PUSH1 0x0 DUP1 REVERT JUMPDEST DUP2 ADD SWAP1 DUP1 DUP1 CALLDATALOAD SWAP1 PUSH1 0x20 ADD SWAP1 SWAP3 SWAP2 SWAP1 POP POP POP PUSH2 0xD48 JUMP JUMPDEST STOP JUMPDEST CALLVALUE DUP1 ISZERO PUSH2 0x271 JUMPI PUSH1 0x0 DUP1 REVERT JUMPDEST POP PUSH2 0x27A PUSH2 0xE1A JUMP JUMPDEST PUSH1 0x40 MLOAD DUP1 DUP1 PUSH1 0x20 ADD DUP3 DUP2 SUB DUP3 MSTORE DUP4 DUP2 DUP2 MLOAD DUP2 MSTORE PUSH1 0x20 ADD SWAP2 POP DUP1 MLOAD SWAP1 PUSH1 0x20 ADD SWAP1 DUP1 DUP4 DUP4 PUSH1 0x0 JUMPDEST DUP4 DUP2 LT ISZERO PUSH2 0x2BA JUMPI DUP1 DUP3 ADD MLOAD DUP2 DUP5 ADD MSTORE PUSH1 0x20 DUP2 ADD SWAP1 POP PUSH2 0x29F JUMP JUMPDEST POP POP POP POP SWAP1 POP SWAP1 DUP2 ADD SWAP1 PUSH1 0x1F AND DUP1 ISZERO PUSH2 0x2E7 JUMPI DUP1 DUP3 SUB DUP1 MLOAD PUSH1 0x1 DUP4 PUSH1 0x20 SUB PUSH2 0x100 EXP SUB NOT AND DUP2 MSTORE PUSH1 0x20 ADD SWAP2 POP JUMPDEST POP SWAP3 POP POP POP PUSH1 0x40 MLOAD DUP1 SWAP2 SUB SWAP1 RETURN JUMPDEST CALLVALUE DUP1 ISZERO PUSH2 0x301 JUMPI PUSH1 0x0 DUP1 REVERT JUMPDEST POP PUSH2 0x34E PUSH1 0x4 DUP1 CALLDATASIZE SUB PUSH1 0x40 DUP2 LT ISZERO PUSH2 0x318 JUMPI PUSH1 0x0 DUP1 REVERT JUMPDEST DUP2 ADD SWAP1 DUP1 DUP1 CALLDATALOAD PUSH20 0xFFFFFFFFFFFFFFFFFFFFFFFFFFFFFFFFFFFFFFFF AND SWAP1 PUSH1 0x20 ADD SWAP1 SWAP3 SWAP2 SWAP1 DUP1 CALLDATALOAD SWAP1 PUSH1 0x20 ADD SWAP1 SWAP3 SWAP2 SWAP1 POP POP POP PUSH2 0xEBC JUMP JUMPDEST PUSH1 0x40 MLOAD DUP1 DUP3 ISZERO ISZERO DUP2 MSTORE PUSH1 0x20 ADD SWAP2 POP POP PUSH1 0x40 MLOAD DUP1 SWAP2 SUB SWAP1 RETURN JUMPDEST CALLVALUE DUP1 ISZERO PUSH2 0x372 JUMPI PUSH1 0x0 DUP1 REVERT JUMPDEST POP PUSH2 0x37B PUSH2 0xEDA JUMP JUMPDEST PUSH1 0x40 MLOAD DUP1 DUP3 DUP2 MSTORE PUSH1 0x20 ADD SWAP2 POP POP PUSH1 0x40 MLOAD DUP1 SWAP2 SUB SWAP1 RETURN JUMPDEST CALLVALUE DUP1 ISZERO PUSH2 0x39D JUMPI PUSH1 0x0 DUP1 REVERT JUMPDEST POP PUSH2 0x3A6 PUSH2 0xEE4 JUMP JUMPDEST PUSH1 0x40 MLOAD DUP1 DUP3 PUSH20 0xFFFFFFFFFFFFFFFFFFFFFFFFFFFFFFFFFFFFFFFF AND DUP2 MSTORE PUSH1 0x20 ADD SWAP2 POP POP PUSH1 0x40 MLOAD DUP1 SWAP2 SUB SWAP1 RETURN JUMPDEST CALLVALUE DUP1 ISZERO PUSH2 0x3DE JUMPI PUSH1 0x0 DUP1 REVERT JUMPDEST POP PUSH2 0x3E7 PUSH2 0xF08 JUMP JUMPDEST PUSH1 0x40 MLOAD DUP1 DUP3 DUP2 MSTORE PUSH1 0x20 ADD SWAP2 POP POP PUSH1 0x40 MLOAD DUP1 SWAP2 SUB SWAP1 RETURN JUMPDEST CALLVALUE DUP1 ISZERO PUSH2 0x409 JUMPI PUSH1 0x0 DUP1 REVERT JUMPDEST POP PUSH2 0x476 PUSH1 0x4 DUP1 CALLDATASIZE SUB PUSH1 0x60 DUP2 LT ISZERO PUSH2 0x420 JUMPI PUSH1 0x0 DUP1 REVERT JUMPDEST DUP2 ADD SWAP1 DUP1 DUP1 CALLDATALOAD PUSH20 0xFFFFFFFFFFFFFFFFFFFFFFFFFFFFFFFFFFFFFFFF AND SWAP1 PUSH1 0x20 ADD SWAP1 SWAP3 SWAP2 SWAP1 DUP1 CALLDATALOAD PUSH20 0xFFFFFFFFFFFFFFFFFFFFFFFFFFFFFFFFFFFFFFFF AND SWAP1 PUSH1 0x20 ADD SWAP1 SWAP3 SWAP2 SWAP1 DUP1 CALLDATALOAD SWAP1 PUSH1 0x20 ADD SWAP1 SWAP3 SWAP2 SWAP1 POP POP POP PUSH2 0xF18 JUMP JUMPDEST PUSH1 0x40 MLOAD DUP1 DUP3 ISZERO ISZERO DUP2 MSTORE PUSH1 0x20 ADD SWAP2 POP POP PUSH1 0x40 MLOAD DUP1 SWAP2 SUB SWAP1 RETURN JUMPDEST CALLVALUE DUP1 ISZERO PUSH2 0x49A JUMPI PUSH1 0x0 DUP1 REVERT JUMPDEST POP PUSH2 0x4C7 PUSH1 0x4 DUP1 CALLDATASIZE SUB PUSH1 0x20 DUP2 LT ISZERO PUSH2 0x4B1 JUMPI PUSH1 0x0 DUP1 REVERT JUMPDEST DUP2 ADD SWAP1 DUP1 DUP1 CALLDATALOAD SWAP1 PUSH1 0x20 ADD SWAP1 SWAP3 SWAP2 SWAP1 POP POP POP PUSH2 0xFF1 JUMP JUMPDEST PUSH1 0x40 MLOAD DUP1 DUP3 DUP2 MSTORE PUSH1 0x20 ADD SWAP2 POP POP PUSH1 0x40 MLOAD DUP1 SWAP2 SUB SWAP1 RETURN JUMPDEST CALLVALUE DUP1 ISZERO PUSH2 0x4E9 JUMPI PUSH1 0x0 DUP1 REVERT JUMPDEST POP PUSH2 0x4F2 PUSH2 0x1075 JUMP JUMPDEST PUSH1 0x40 MLOAD DUP1 DUP3 PUSH1 0xFF AND DUP2 MSTORE PUSH1 0x20 ADD SWAP2 POP POP PUSH1 0x40 MLOAD DUP1 SWAP2 SUB SWAP1 RETURN JUMPDEST CALLVALUE DUP1 ISZERO PUSH2 0x517 JUMPI PUSH1 0x0 DUP1 REVERT JUMPDEST POP PUSH2 0x55A PUSH1 0x4 DUP1 CALLDATASIZE SUB PUSH1 0x20 DUP2 LT ISZERO PUSH2 0x52E JUMPI PUSH1 0x0 DUP1 REVERT JUMPDEST DUP2 ADD SWAP1 DUP1 DUP1 CALLDATALOAD PUSH20 0xFFFFFFFFFFFFFFFFFFFFFFFFFFFFFFFFFFFFFFFF AND SWAP1 PUSH1 0x20 ADD SWAP1 SWAP3 SWAP2 SWAP1 POP POP POP PUSH2 0x108C JUMP JUMPDEST STOP JUMPDEST CALLVALUE DUP1 ISZERO PUSH2 0x568 JUMPI PUSH1 0x0 DUP1 REVERT JUMPDEST POP PUSH2 0x5B5 PUSH1 0x4 DUP1 CALLDATASIZE SUB PUSH1 0x40 DUP2 LT ISZERO PUSH2 0x57F JUMPI PUSH1 0x0 DUP1 REVERT JUMPDEST DUP2 ADD SWAP1 DUP1 DUP1 CALLDATALOAD PUSH20 0xFFFFFFFFFFFFFFFFFFFFFFFFFFFFFFFFFFFFFFFF AND SWAP1 PUSH1 0x20 ADD SWAP1 SWAP3 SWAP2 SWAP1 DUP1 CALLDATALOAD SWAP1 PUSH1 0x20 ADD SWAP1 SWAP3 SWAP2 SWAP1 POP POP POP PUSH2 0x1416 JUMP JUMPDEST PUSH1 0x40 MLOAD DUP1 DUP3 ISZERO ISZERO DUP2 MSTORE PUSH1 0x20 ADD SWAP2 POP POP PUSH1 0x40 MLOAD DUP1 SWAP2 SUB SWAP1 RETURN JUMPDEST CALLVALUE DUP1 ISZERO PUSH2 0x5D9 JUMPI PUSH1 0x0 DUP1 REVERT JUMPDEST POP PUSH2 0x5E2 PUSH2 0x14C9 JUMP JUMPDEST PUSH1 0x40 MLOAD DUP1 DUP3 DUP2 MSTORE PUSH1 0x20 ADD SWAP2 POP POP PUSH1 0x40 MLOAD DUP1 SWAP2 SUB SWAP1 RETURN JUMPDEST CALLVALUE DUP1 ISZERO PUSH2 0x604 JUMPI PUSH1 0x0 DUP1 REVERT JUMPDEST POP PUSH2 0x631 PUSH1 0x4 DUP1 CALLDATASIZE SUB PUSH1 0x20 DUP2 LT ISZERO PUSH2 0x61B JUMPI PUSH1 0x0 DUP1 REVERT JUMPDEST DUP2 ADD SWAP1 DUP1 DUP1 CALLDATALOAD SWAP1 PUSH1 0x20 ADD SWAP1 SWAP3 SWAP2 SWAP1 POP POP POP PUSH2 0x14CF JUMP JUMPDEST STOP JUMPDEST CALLVALUE DUP1 ISZERO PUSH2 0x63F JUMPI PUSH1 0x0 DUP1 REVERT JUMPDEST POP PUSH2 0x682 PUSH1 0x4 DUP1 CALLDATASIZE SUB PUSH1 0x20 DUP2 LT ISZERO PUSH2 0x656 JUMPI PUSH1 0x0 DUP1 REVERT JUMPDEST DUP2 ADD SWAP1 DUP1 DUP1 CALLDATALOAD PUSH20 0xFFFFFFFFFFFFFFFFFFFFFFFFFFFFFFFFFFFFFFFF AND SWAP1 PUSH1 0x20 ADD SWAP1 SWAP3 SWAP2 SWAP1 POP POP POP PUSH2 0x1660 JUMP JUMPDEST STOP JUMPDEST CALLVALUE DUP1 ISZERO PUSH2 0x690 JUMPI PUSH1 0x0 DUP1 REVERT JUMPDEST POP PUSH2 0x6C9 PUSH1 0x4 DUP1 CALLDATASIZE SUB PUSH1 0x40 DUP2 LT ISZERO PUSH2 0x6A7 JUMPI PUSH1 0x0 DUP1 REVERT JUMPDEST DUP2 ADD SWAP1 DUP1 DUP1 CALLDATALOAD SWAP1 PUSH1 0x20 ADD SWAP1 SWAP3 SWAP2 SWAP1 DUP1 CALLDATALOAD ISZERO ISZERO SWAP1 PUSH1 0x20 ADD SWAP1 SWAP3 SWAP2 SWAP1 POP POP POP PUSH2 0x1783 JUMP JUMPDEST PUSH1 0x40 MLOAD DUP1 DUP3 DUP2 MSTORE PUSH1 0x20 ADD SWAP2 POP POP PUSH1 0x40 MLOAD DUP1 SWAP2 SUB SWAP1 RETURN JUMPDEST CALLVALUE DUP1 ISZERO PUSH2 0x6EB JUMPI PUSH1 0x0 DUP1 REVERT JUMPDEST POP PUSH2 0x6F4 PUSH2 0x1840 JUMP JUMPDEST PUSH1 0x40 MLOAD DUP1 DUP3 PUSH20 0xFFFFFFFFFFFFFFFFFFFFFFFFFFFFFFFFFFFFFFFF AND DUP2 MSTORE PUSH1 0x20 ADD SWAP2 POP POP PUSH1 0x40 MLOAD DUP1 SWAP2 SUB SWAP1 RETURN JUMPDEST CALLVALUE DUP1 ISZERO PUSH2 0x72C JUMPI PUSH1 0x0 DUP1 REVERT JUMPDEST POP PUSH2 0x735 PUSH2 0x1864 JUMP JUMPDEST PUSH1 0x40 MLOAD DUP1 DUP3 ISZERO ISZERO DUP2 MSTORE PUSH1 0x20 ADD SWAP2 POP POP PUSH1 0x40 MLOAD DUP1 SWAP2 SUB SWAP1 RETURN JUMPDEST CALLVALUE DUP1 ISZERO PUSH2 0x759 JUMPI PUSH1 0x0 DUP1 REVERT JUMPDEST POP PUSH2 0x79C PUSH1 0x4 DUP1 CALLDATASIZE SUB PUSH1 0x20 DUP2 LT ISZERO PUSH2 0x770 JUMPI PUSH1 0x0 DUP1 REVERT JUMPDEST DUP2 ADD SWAP1 DUP1 DUP1 CALLDATALOAD PUSH20 0xFFFFFFFFFFFFFFFFFFFFFFFFFFFFFFFFFFFFFFFF AND SWAP1 PUSH1 0x20 ADD SWAP1 SWAP3 SWAP2 SWAP1 POP POP POP PUSH2 0x1877 JUMP JUMPDEST STOP JUMPDEST CALLVALUE DUP1 ISZERO PUSH2 0x7AA JUMPI PUSH1 0x0 DUP1 REVERT JUMPDEST POP PUSH2 0x7ED PUSH1 0x4 DUP1 CALLDATASIZE SUB PUSH1 0x20 DUP2 LT ISZERO PUSH2 0x7C1 JUMPI PUSH1 0x0 DUP1 REVERT JUMPDEST DUP2 ADD SWAP1 DUP1 DUP1 CALLDATALOAD PUSH20 0xFFFFFFFFFFFFFFFFFFFFFFFFFFFFFFFFFFFFFFFF AND SWAP1 PUSH1 0x20 ADD SWAP1 SWAP3 SWAP2 SWAP1 POP POP POP PUSH2 0x1B91 JUMP JUMPDEST PUSH1 0x40 MLOAD DUP1 DUP3 ISZERO ISZERO DUP2 MSTORE PUSH1 0x20 ADD SWAP2 POP POP PUSH1 0x40 MLOAD DUP1 SWAP2 SUB SWAP1 RETURN JUMPDEST CALLVALUE DUP1 ISZERO PUSH2 0x811 JUMPI PUSH1 0x0 DUP1 REVERT JUMPDEST POP PUSH2 0x81A PUSH2 0x1BE7 JUMP JUMPDEST PUSH1 0x40 MLOAD DUP1 DUP3 DUP2 MSTORE PUSH1 0x20 ADD SWAP2 POP POP PUSH1 0x40 MLOAD DUP1 SWAP2 SUB SWAP1 RETURN JUMPDEST CALLVALUE DUP1 ISZERO PUSH2 0x83C JUMPI PUSH1 0x0 DUP1 REVERT JUMPDEST POP PUSH2 0x87F PUSH1 0x4 DUP1 CALLDATASIZE SUB PUSH1 0x20 DUP2 LT ISZERO PUSH2 0x853 JUMPI PUSH1 0x0 DUP1 REVERT JUMPDEST DUP2 ADD SWAP1 DUP1 DUP1 CALLDATALOAD PUSH20 0xFFFFFFFFFFFFFFFFFFFFFFFFFFFFFFFFFFFFFFFF AND SWAP1 PUSH1 0x20 ADD SWAP1 SWAP3 SWAP2 SWAP1 POP POP POP PUSH2 0x1BED JUMP JUMPDEST PUSH1 0x40 MLOAD DUP1 DUP3 DUP2 MSTORE PUSH1 0x20 ADD SWAP2 POP POP PUSH1 0x40 MLOAD DUP1 SWAP2 SUB SWAP1 RETURN JUMPDEST CALLVALUE DUP1 ISZERO PUSH2 0x8A1 JUMPI PUSH1 0x0 DUP1 REVERT JUMPDEST POP PUSH2 0x8AA PUSH2 0x1CD8 JUMP JUMPDEST STOP JUMPDEST CALLVALUE DUP1 ISZERO PUSH2 0x8B8 JUMPI PUSH1 0x0 DUP1 REVERT JUMPDEST POP PUSH2 0x8C1 PUSH2 0x1E5E JUMP JUMPDEST PUSH1 0x40 MLOAD DUP1 DUP3 DUP2 MSTORE PUSH1 0x20 ADD SWAP2 POP POP PUSH1 0x40 MLOAD DUP1 SWAP2 SUB SWAP1 RETURN JUMPDEST CALLVALUE DUP1 ISZERO PUSH2 0x8E3 JUMPI PUSH1 0x0 DUP1 REVERT JUMPDEST POP PUSH2 0x926 PUSH1 0x4 DUP1 CALLDATASIZE SUB PUSH1 0x20 DUP2 LT ISZERO PUSH2 0x8FA JUMPI PUSH1 0x0 DUP1 REVERT JUMPDEST DUP2 ADD SWAP1 DUP1 DUP1 CALLDATALOAD PUSH20 0xFFFFFFFFFFFFFFFFFFFFFFFFFFFFFFFFFFFFFFFF AND SWAP1 PUSH1 0x20 ADD SWAP1 SWAP3 SWAP2 SWAP1 POP POP POP PUSH2 0x1E64 JUMP JUMPDEST PUSH1 0x40 MLOAD DUP1 DUP3 ISZERO ISZERO DUP2 MSTORE PUSH1 0x20 ADD SWAP2 POP POP PUSH1 0x40 MLOAD DUP1 SWAP2 SUB SWAP1 RETURN JUMPDEST CALLVALUE DUP1 ISZERO PUSH2 0x94A JUMPI PUSH1 0x0 DUP1 REVERT JUMPDEST POP PUSH2 0x953 PUSH2 0x1EBA JUMP JUMPDEST PUSH1 0x40 MLOAD DUP1 DUP3 PUSH20 0xFFFFFFFFFFFFFFFFFFFFFFFFFFFFFFFFFFFFFFFF AND DUP2 MSTORE PUSH1 0x20 ADD SWAP2 POP POP PUSH1 0x40 MLOAD DUP1 SWAP2 SUB SWAP1 RETURN JUMPDEST CALLVALUE DUP1 ISZERO PUSH2 0x98B JUMPI PUSH1 0x0 DUP1 REVERT JUMPDEST POP PUSH2 0x9B8 PUSH1 0x4 DUP1 CALLDATASIZE SUB PUSH1 0x20 DUP2 LT ISZERO PUSH2 0x9A2 JUMPI PUSH1 0x0 DUP1 REVERT JUMPDEST DUP2 ADD SWAP1 DUP1 DUP1 CALLDATALOAD SWAP1 PUSH1 0x20 ADD SWAP1 SWAP3 SWAP2 SWAP1 POP POP POP PUSH2 0x1EE3 JUMP JUMPDEST STOP JUMPDEST CALLVALUE DUP1 ISZERO PUSH2 0x9C6 JUMPI PUSH1 0x0 DUP1 REVERT JUMPDEST POP PUSH2 0x9CF PUSH2 0x1FB5 JUMP JUMPDEST PUSH1 0x40 MLOAD DUP1 DUP1 PUSH1 0x20 ADD DUP3 DUP2 SUB DUP3 MSTORE DUP4 DUP2 DUP2 MLOAD DUP2 MSTORE PUSH1 0x20 ADD SWAP2 POP DUP1 MLOAD SWAP1 PUSH1 0x20 ADD SWAP1 DUP1 DUP4 DUP4 PUSH1 0x0 JUMPDEST DUP4 DUP2 LT ISZERO PUSH2 0xA0F JUMPI DUP1 DUP3 ADD MLOAD DUP2 DUP5 ADD MSTORE PUSH1 0x20 DUP2 ADD SWAP1 POP PUSH2 0x9F4 JUMP JUMPDEST POP POP POP POP SWAP1 POP SWAP1 DUP2 ADD SWAP1 PUSH1 0x1F AND DUP1 ISZERO PUSH2 0xA3C JUMPI DUP1 DUP3 SUB DUP1 MLOAD PUSH1 0x1 DUP4 PUSH1 0x20 SUB PUSH2 0x100 EXP SUB NOT AND DUP2 MSTORE PUSH1 0x20 ADD SWAP2 POP JUMPDEST POP SWAP3 POP POP POP PUSH1 0x40 MLOAD DUP1 SWAP2 SUB SWAP1 RETURN JUMPDEST CALLVALUE DUP1 ISZERO PUSH2 0xA56 JUMPI PUSH1 0x0 DUP1 REVERT JUMPDEST POP PUSH2 0xAA3 PUSH1 0x4 DUP1 CALLDATASIZE SUB PUSH1 0x40 DUP2 LT ISZERO PUSH2 0xA6D JUMPI PUSH1 0x0 DUP1 REVERT JUMPDEST DUP2 ADD SWAP1 DUP1 DUP1 CALLDATALOAD PUSH20 0xFFFFFFFFFFFFFFFFFFFFFFFFFFFFFFFFFFFFFFFF AND SWAP1 PUSH1 0x20 ADD SWAP1 SWAP3 SWAP2 SWAP1 DUP1 CALLDATALOAD SWAP1 PUSH1 0x20 ADD SWAP1 SWAP3 SWAP2 SWAP1 POP POP POP PUSH2 0x2057 JUMP JUMPDEST PUSH1 0x40 MLOAD DUP1 DUP3 ISZERO ISZERO DUP2 MSTORE PUSH1 0x20 ADD SWAP2 POP POP PUSH1 0x40 MLOAD DUP1 SWAP2 SUB SWAP1 RETURN JUMPDEST CALLVALUE DUP1 ISZERO PUSH2 0xAC7 JUMPI PUSH1 0x0 DUP1 REVERT JUMPDEST POP PUSH2 0xAD0 PUSH2 0x2124 JUMP JUMPDEST STOP JUMPDEST CALLVALUE DUP1 ISZERO PUSH2 0xADE JUMPI PUSH1 0x0 DUP1 REVERT JUMPDEST POP PUSH2 0xB2B PUSH1 0x4 DUP1 CALLDATASIZE SUB PUSH1 0x40 DUP2 LT ISZERO PUSH2 0xAF5 JUMPI PUSH1 0x0 DUP1 REVERT JUMPDEST DUP2 ADD SWAP1 DUP1 DUP1 CALLDATALOAD PUSH20 0xFFFFFFFFFFFFFFFFFFFFFFFFFFFFFFFFFFFFFFFF AND SWAP1 PUSH1 0x20 ADD SWAP1 SWAP3 SWAP2 SWAP1 DUP1 CALLDATALOAD SWAP1 PUSH1 0x20 ADD SWAP1 SWAP3 SWAP2 SWAP1 POP POP POP PUSH2 0x2341 JUMP JUMPDEST PUSH1 0x40 MLOAD DUP1 DUP3 ISZERO ISZERO DUP2 MSTORE PUSH1 0x20 ADD SWAP2 POP POP PUSH1 0x40 MLOAD DUP1 SWAP2 SUB SWAP1 RETURN JUMPDEST CALLVALUE DUP1 ISZERO PUSH2 0xB4F JUMPI PUSH1 0x0 DUP1 REVERT JUMPDEST POP PUSH2 0xB58 PUSH2 0x235F JUMP JUMPDEST PUSH1 0x40 MLOAD DUP1 DUP3 DUP2 MSTORE PUSH1 0x20 ADD SWAP2 POP POP PUSH1 0x40 MLOAD DUP1 SWAP2 SUB SWAP1 RETURN JUMPDEST CALLVALUE DUP1 ISZERO PUSH2 0xB7A JUMPI PUSH1 0x0 DUP1 REVERT JUMPDEST POP PUSH2 0xBA9 PUSH1 0x4 DUP1 CALLDATASIZE SUB PUSH1 0x20 DUP2 LT ISZERO PUSH2 0xB91 JUMPI PUSH1 0x0 DUP1 REVERT JUMPDEST DUP2 ADD SWAP1 DUP1 DUP1 CALLDATALOAD ISZERO ISZERO SWAP1 PUSH1 0x20 ADD SWAP1 SWAP3 SWAP2 SWAP1 POP POP POP PUSH2 0x2369 JUMP JUMPDEST STOP JUMPDEST CALLVALUE DUP1 ISZERO PUSH2 0xBB7 JUMPI PUSH1 0x0 DUP1 REVERT JUMPDEST POP PUSH2 0xBE4 PUSH1 0x4 DUP1 CALLDATASIZE SUB PUSH1 0x20 DUP2 LT ISZERO PUSH2 0xBCE JUMPI PUSH1 0x0 DUP1 REVERT JUMPDEST DUP2 ADD SWAP1 DUP1 DUP1 CALLDATALOAD SWAP1 PUSH1 0x20 ADD SWAP1 SWAP3 SWAP2 SWAP1 POP POP POP PUSH2 0x2487 JUMP JUMPDEST STOP JUMPDEST CALLVALUE DUP1 ISZERO PUSH2 0xBF2 JUMPI PUSH1 0x0 DUP1 REVERT JUMPDEST POP PUSH2 0xC1F PUSH1 0x4 DUP1 CALLDATASIZE SUB PUSH1 0x20 DUP2 LT ISZERO PUSH2 0xC09 JUMPI PUSH1 0x0 DUP1 REVERT JUMPDEST DUP2 ADD SWAP1 DUP1 DUP1 CALLDATALOAD SWAP1 PUSH1 0x20 ADD SWAP1 SWAP3 SWAP2 SWAP1 POP POP POP PUSH2 0x2586 JUMP JUMPDEST STOP JUMPDEST CALLVALUE DUP1 ISZERO PUSH2 0xC2D JUMPI PUSH1 0x0 DUP1 REVERT JUMPDEST POP PUSH2 0xC90 PUSH1 0x4 DUP1 CALLDATASIZE SUB PUSH1 0x40 DUP2 LT ISZERO PUSH2 0xC44 JUMPI PUSH1 0x0 DUP1 REVERT JUMPDEST DUP2 ADD SWAP1 DUP1 DUP1 CALLDATALOAD PUSH20 0xFFFFFFFFFFFFFFFFFFFFFFFFFFFFFFFFFFFFFFFF AND SWAP1 PUSH1 0x20 ADD SWAP1 SWAP3 SWAP2 SWAP1 DUP1 CALLDATALOAD PUSH20 0xFFFFFFFFFFFFFFFFFFFFFFFFFFFFFFFFFFFFFFFF AND SWAP1 PUSH1 0x20 ADD SWAP1 SWAP3 SWAP2 SWAP1 POP POP POP PUSH2 0x2777 JUMP JUMPDEST PUSH1 0x40 MLOAD DUP1 DUP3 DUP2 MSTORE PUSH1 0x20 ADD SWAP2 POP POP PUSH1 0x40 MLOAD DUP1 SWAP2 SUB SWAP1 RETURN JUMPDEST CALLVALUE DUP1 ISZERO PUSH2 0xCB2 JUMPI PUSH1 0x0 DUP1 REVERT JUMPDEST POP PUSH2 0xCF5 PUSH1 0x4 DUP1 CALLDATASIZE SUB PUSH1 0x20 DUP2 LT ISZERO PUSH2 0xCC9 JUMPI PUSH1 0x0 DUP1 REVERT JUMPDEST DUP2 ADD SWAP1 DUP1 DUP1 CALLDATALOAD PUSH20 0xFFFFFFFFFFFFFFFFFFFFFFFFFFFFFFFFFFFFFFFF AND SWAP1 PUSH1 0x20 ADD SWAP1 SWAP3 SWAP2 SWAP1 POP POP POP PUSH2 0x27FE JUMP JUMPDEST STOP JUMPDEST CALLVALUE DUP1 ISZERO PUSH2 0xD03 JUMPI PUSH1 0x0 DUP1 REVERT JUMPDEST POP PUSH2 0xD46 PUSH1 0x4 DUP1 CALLDATASIZE SUB PUSH1 0x20 DUP2 LT ISZERO PUSH2 0xD1A JUMPI PUSH1 0x0 DUP1 REVERT JUMPDEST DUP2 ADD SWAP1 DUP1 DUP1 CALLDATALOAD PUSH20 0xFFFFFFFFFFFFFFFFFFFFFFFFFFFFFFFFFFFFFFFF AND SWAP1 PUSH1 0x20 ADD SWAP1 SWAP3 SWAP2 SWAP1 POP POP POP PUSH2 0x2921 JUMP JUMPDEST STOP JUMPDEST PUSH2 0xD50 PUSH2 0x2B2C JUMP JUMPDEST PUSH20 0xFFFFFFFFFFFFFFFFFFFFFFFFFFFFFFFFFFFFFFFF AND PUSH1 0x0 DUP1 SLOAD SWAP1 PUSH2 0x100 EXP SWAP1 DIV PUSH20 0xFFFFFFFFFFFFFFFFFFFFFFFFFFFFFFFFFFFFFFFF AND PUSH20 0xFFFFFFFFFFFFFFFFFFFFFFFFFFFFFFFFFFFFFFFF AND EQ PUSH2 0xE10 JUMPI PUSH1 0x40 MLOAD PUSH32 0x8C379A000000000000000000000000000000000000000000000000000000000 DUP2 MSTORE PUSH1 0x4 ADD DUP1 DUP1 PUSH1 0x20 ADD DUP3 DUP2 SUB DUP3 MSTORE PUSH1 0x20 DUP2 MSTORE PUSH1 0x20 ADD DUP1 PUSH32 0x4F776E61626C653A2063616C6C6572206973206E6F7420746865206F776E6572 DUP2 MSTORE POP PUSH1 0x20 ADD SWAP2 POP POP PUSH1 0x40 MLOAD DUP1 SWAP2 SUB SWAP1 REVERT JUMPDEST DUP1 PUSH1 0xE DUP2 SWAP1 SSTORE POP POP JUMP JUMPDEST PUSH1 0x60 PUSH1 0xB DUP1 SLOAD PUSH1 0x1 DUP2 PUSH1 0x1 AND ISZERO PUSH2 0x100 MUL SUB AND PUSH1 0x2 SWAP1 DIV DUP1 PUSH1 0x1F ADD PUSH1 0x20 DUP1 SWAP2 DIV MUL PUSH1 0x20 ADD PUSH1 0x40 MLOAD SWAP1 DUP2 ADD PUSH1 0x40 MSTORE DUP1 SWAP3 SWAP2 SWAP1 DUP2 DUP2 MSTORE PUSH1 0x20 ADD DUP3 DUP1 SLOAD PUSH1 0x1 DUP2 PUSH1 0x1 AND ISZERO PUSH2 0x100 MUL SUB AND PUSH1 0x2 SWAP1 DIV DUP1 ISZERO PUSH2 0xEB2 JUMPI DUP1 PUSH1 0x1F LT PUSH2 0xE87 JUMPI PUSH2 0x100 DUP1 DUP4 SLOAD DIV MUL DUP4 MSTORE SWAP2 PUSH1 0x20 ADD SWAP2 PUSH2 0xEB2 JUMP JUMPDEST DUP3 ADD SWAP2 SWAP1 PUSH1 0x0 MSTORE PUSH1 0x20 PUSH1 0x0 KECCAK256 SWAP1 JUMPDEST DUP2 SLOAD DUP2 MSTORE SWAP1 PUSH1 0x1 ADD SWAP1 PUSH1 0x20 ADD DUP1 DUP4 GT PUSH2 0xE95 JUMPI DUP3 SWAP1 SUB PUSH1 0x1F AND DUP3 ADD SWAP2 JUMPDEST POP POP POP POP POP SWAP1 POP SWAP1 JUMP JUMPDEST PUSH1 0x0 PUSH2 0xED0 PUSH2 0xEC9 PUSH2 0x2B2C JUMP JUMPDEST DUP5 DUP5 PUSH2 0x2B34 JUMP JUMPDEST PUSH1 0x1 SWAP1 POP SWAP3 SWAP2 POP POP JUMP JUMPDEST PUSH1 0x0 PUSH1 0xA SLOAD SWAP1 POP SWAP1 JUMP JUMPDEST PUSH32 0x0 DUP2 JUMP JUMPDEST PUSH1 0x0 PUSH8 0xDE0B6B3A7640000 SWAP1 POP SWAP1 JUMP JUMPDEST PUSH1 0x0 PUSH2 0xF25 DUP5 DUP5 DUP5 PUSH2 0x2D2B JUMP JUMPDEST PUSH2 0xFE6 DUP5 PUSH2 0xF31 PUSH2 0x2B2C JUMP JUMPDEST PUSH2 0xFE1 DUP6 PUSH1 0x40 MLOAD DUP1 PUSH1 0x60 ADD PUSH1 0x40 MSTORE DUP1 PUSH1 0x28 DUP2 MSTORE PUSH1 0x20 ADD PUSH2 0x4D14 PUSH1 0x28 SWAP2 CODECOPY PUSH1 0x5 PUSH1 0x0 DUP12 PUSH20 0xFFFFFFFFFFFFFFFFFFFFFFFFFFFFFFFFFFFFFFFF AND PUSH20 0xFFFFFFFFFFFFFFFFFFFFFFFFFFFFFFFFFFFFFFFF AND DUP2 MSTORE PUSH1 0x20 ADD SWAP1 DUP2 MSTORE PUSH1 0x20 ADD PUSH1 0x0 KECCAK256 PUSH1 0x0 PUSH2 0xF97 PUSH2 0x2B2C JUMP JUMPDEST PUSH20 0xFFFFFFFFFFFFFFFFFFFFFFFFFFFFFFFFFFFFFFFF AND PUSH20 0xFFFFFFFFFFFFFFFFFFFFFFFFFFFFFFFFFFFFFFFF AND DUP2 MSTORE PUSH1 0x20 ADD SWAP1 DUP2 MSTORE PUSH1 0x20 ADD PUSH1 0x0 KECCAK256 SLOAD PUSH2 0x30F0 SWAP1 SWAP3 SWAP2 SWAP1 PUSH4 0xFFFFFFFF AND JUMP JUMPDEST PUSH2 0x2B34 JUMP JUMPDEST PUSH1 0x1 SWAP1 POP SWAP4 SWAP3 POP POP POP JUMP JUMPDEST PUSH1 0x0 PUSH1 0x9 SLOAD DUP3 GT ISZERO PUSH2 0x104E JUMPI PUSH1 0x40 MLOAD PUSH32 0x8C379A000000000000000000000000000000000000000000000000000000000 DUP2 MSTORE PUSH1 0x4 ADD DUP1 DUP1 PUSH1 0x20 ADD DUP3 DUP2 SUB DUP3 MSTORE PUSH1 0x2A DUP2 MSTORE PUSH1 0x20 ADD DUP1 PUSH2 0x4C59 PUSH1 0x2A SWAP2 CODECOPY PUSH1 0x40 ADD SWAP2 POP POP PUSH1 0x40 MLOAD DUP1 SWAP2 SUB SWAP1 REVERT JUMPDEST PUSH1 0x0 PUSH2 0x1058 PUSH2 0x31B0 JUMP JUMPDEST SWAP1 POP PUSH2 0x106D DUP2 DUP5 PUSH2 0x31DB SWAP1 SWAP2 SWAP1 PUSH4 0xFFFFFFFF AND JUMP JUMPDEST SWAP2 POP POP SWAP2 SWAP1 POP JUMP JUMPDEST PUSH1 0x0 PUSH1 0xD PUSH1 0x0 SWAP1 SLOAD SWAP1 PUSH2 0x100 EXP SWAP1 DIV PUSH1 0xFF AND SWAP1 POP SWAP1 JUMP JUMPDEST PUSH2 0x1094 PUSH2 0x2B2C JUMP JUMPDEST PUSH20 0xFFFFFFFFFFFFFFFFFFFFFFFFFFFFFFFFFFFFFFFF AND PUSH1 0x0 DUP1 SLOAD SWAP1 PUSH2 0x100 EXP SWAP1 DIV PUSH20 0xFFFFFFFFFFFFFFFFFFFFFFFFFFFFFFFFFFFFFFFF AND PUSH20 0xFFFFFFFFFFFFFFFFFFFFFFFFFFFFFFFFFFFFFFFF AND EQ PUSH2 0x1154 JUMPI PUSH1 0x40 MLOAD PUSH32 0x8C379A000000000000000000000000000000000000000000000000000000000 DUP2 MSTORE PUSH1 0x4 ADD DUP1 DUP1 PUSH1 0x20 ADD DUP3 DUP2 SUB DUP3 MSTORE PUSH1 0x20 DUP2 MSTORE PUSH1 0x20 ADD DUP1 PUSH32 0x4F776E61626C653A2063616C6C6572206973206E6F7420746865206F776E6572 DUP2 MSTORE POP PUSH1 0x20 ADD SWAP2 POP POP PUSH1 0x40 MLOAD DUP1 SWAP2 SUB SWAP1 REVERT JUMPDEST PUSH1 0x7 PUSH1 0x0 DUP3 PUSH20 0xFFFFFFFFFFFFFFFFFFFFFFFFFFFFFFFFFFFFFFFF AND PUSH20 0xFFFFFFFFFFFFFFFFFFFFFFFFFFFFFFFFFFFFFFFF AND DUP2 MSTORE PUSH1 0x20 ADD SWAP1 DUP2 MSTORE PUSH1 0x20 ADD PUSH1 0x0 KECCAK256 PUSH1 0x0 SWAP1 SLOAD SWAP1 PUSH2 0x100 EXP SWAP1 DIV PUSH1 0xFF AND PUSH2 0x1213 JUMPI PUSH1 0x40 MLOAD PUSH32 0x8C379A000000000000000000000000000000000000000000000000000000000 DUP2 MSTORE PUSH1 0x4 ADD DUP1 DUP1 PUSH1 0x20 ADD DUP3 DUP2 SUB DUP3 MSTORE PUSH1 0x1B DUP2 MSTORE PUSH1 0x20 ADD DUP1 PUSH32 0x4163636F756E7420697320616C7265616479206578636C756465640000000000 DUP2 MSTORE POP PUSH1 0x20 ADD SWAP2 POP POP PUSH1 0x40 MLOAD DUP1 SWAP2 SUB SWAP1 REVERT JUMPDEST PUSH1 0x0 JUMPDEST PUSH1 0x8 DUP1 SLOAD SWAP1 POP DUP2 LT ISZERO PUSH2 0x1412 JUMPI DUP2 PUSH20 0xFFFFFFFFFFFFFFFFFFFFFFFFFFFFFFFFFFFFFFFF AND PUSH1 0x8 DUP3 DUP2 SLOAD DUP2 LT PUSH2 0x1247 JUMPI INVALID JUMPDEST SWAP1 PUSH1 0x0 MSTORE PUSH1 0x20 PUSH1 0x0 KECCAK256 ADD PUSH1 0x0 SWAP1 SLOAD SWAP1 PUSH2 0x100 EXP SWAP1 DIV PUSH20 0xFFFFFFFFFFFFFFFFFFFFFFFFFFFFFFFFFFFFFFFF AND PUSH20 0xFFFFFFFFFFFFFFFFFFFFFFFFFFFFFFFFFFFFFFFF AND EQ ISZERO PUSH2 0x1405 JUMPI PUSH1 0x8 PUSH1 0x1 PUSH1 0x8 DUP1 SLOAD SWAP1 POP SUB DUP2 SLOAD DUP2 LT PUSH2 0x12A3 JUMPI INVALID JUMPDEST SWAP1 PUSH1 0x0 MSTORE PUSH1 0x20 PUSH1 0x0 KECCAK256 ADD PUSH1 0x0 SWAP1 SLOAD SWAP1 PUSH2 0x100 EXP SWAP1 DIV PUSH20 0xFFFFFFFFFFFFFFFFFFFFFFFFFFFFFFFFFFFFFFFF AND PUSH1 0x8 DUP3 DUP2 SLOAD DUP2 LT PUSH2 0x12DB JUMPI INVALID JUMPDEST SWAP1 PUSH1 0x0 MSTORE PUSH1 0x20 PUSH1 0x0 KECCAK256 ADD PUSH1 0x0 PUSH2 0x100 EXP DUP2 SLOAD DUP2 PUSH20 0xFFFFFFFFFFFFFFFFFFFFFFFFFFFFFFFFFFFFFFFF MUL NOT AND SWAP1 DUP4 PUSH20 0xFFFFFFFFFFFFFFFFFFFFFFFFFFFFFFFFFFFFFFFF AND MUL OR SWAP1 SSTORE POP PUSH1 0x0 PUSH1 0x4 PUSH1 0x0 DUP5 PUSH20 0xFFFFFFFFFFFFFFFFFFFFFFFFFFFFFFFFFFFFFFFF AND PUSH20 0xFFFFFFFFFFFFFFFFFFFFFFFFFFFFFFFFFFFFFFFF AND DUP2 MSTORE PUSH1 0x20 ADD SWAP1 DUP2 MSTORE PUSH1 0x20 ADD PUSH1 0x0 KECCAK256 DUP2 SWAP1 SSTORE POP PUSH1 0x0 PUSH1 0x7 PUSH1 0x0 DUP5 PUSH20 0xFFFFFFFFFFFFFFFFFFFFFFFFFFFFFFFFFFFFFFFF AND PUSH20 0xFFFFFFFFFFFFFFFFFFFFFFFFFFFFFFFFFFFFFFFF AND DUP2 MSTORE PUSH1 0x20 ADD SWAP1 DUP2 MSTORE PUSH1 0x20 ADD PUSH1 0x0 KECCAK256 PUSH1 0x0 PUSH2 0x100 EXP DUP2 SLOAD DUP2 PUSH1 0xFF MUL NOT AND SWAP1 DUP4 ISZERO ISZERO MUL OR SWAP1 SSTORE POP PUSH1 0x8 DUP1 SLOAD DUP1 PUSH2 0x13CB JUMPI INVALID JUMPDEST PUSH1 0x1 SWAP1 SUB DUP2 DUP2 SWAP1 PUSH1 0x0 MSTORE PUSH1 0x20 PUSH1 0x0 KECCAK256 ADD PUSH1 0x0 PUSH2 0x100 EXP DUP2 SLOAD SWAP1 PUSH20 0xFFFFFFFFFFFFFFFFFFFFFFFFFFFFFFFFFFFFFFFF MUL NOT AND SWAP1 SSTORE SWAP1 SSTORE PUSH2 0x1412 JUMP JUMPDEST DUP1 DUP1 PUSH1 0x1 ADD SWAP2 POP POP PUSH2 0x1216 JUMP JUMPDEST POP POP JUMP JUMPDEST PUSH1 0x0 PUSH2 0x14BF PUSH2 0x1423 PUSH2 0x2B2C JUMP JUMPDEST DUP5 PUSH2 0x14BA DUP6 PUSH1 0x5 PUSH1 0x0 PUSH2 0x1434 PUSH2 0x2B2C JUMP JUMPDEST PUSH20 0xFFFFFFFFFFFFFFFFFFFFFFFFFFFFFFFFFFFFFFFF AND PUSH20 0xFFFFFFFFFFFFFFFFFFFFFFFFFFFFFFFFFFFFFFFF AND DUP2 MSTORE PUSH1 0x20 ADD SWAP1 DUP2 MSTORE PUSH1 0x20 ADD PUSH1 0x0 KECCAK256 PUSH1 0x0 DUP10 PUSH20 0xFFFFFFFFFFFFFFFFFFFFFFFFFFFFFFFFFFFFFFFF AND PUSH20 0xFFFFFFFFFFFFFFFFFFFFFFFFFFFFFFFFFFFFFFFF AND DUP2 MSTORE PUSH1 0x20 ADD SWAP1 DUP2 MSTORE PUSH1 0x20 ADD PUSH1 0x0 KECCAK256 SLOAD PUSH2 0x3225 SWAP1 SWAP2 SWAP1 PUSH4 0xFFFFFFFF AND JUMP JUMPDEST PUSH2 0x2B34 JUMP JUMPDEST PUSH1 0x1 SWAP1 POP SWAP3 SWAP2 POP POP JUMP JUMPDEST PUSH1 0xE SLOAD DUP2 JUMP JUMPDEST PUSH1 0x0 PUSH2 0x14D9 PUSH2 0x2B2C JUMP JUMPDEST SWAP1 POP PUSH1 0x7 PUSH1 0x0 DUP3 PUSH20 0xFFFFFFFFFFFFFFFFFFFFFFFFFFFFFFFFFFFFFFFF AND PUSH20 0xFFFFFFFFFFFFFFFFFFFFFFFFFFFFFFFFFFFFFFFF AND DUP2 MSTORE PUSH1 0x20 ADD SWAP1 DUP2 MSTORE PUSH1 0x20 ADD PUSH1 0x0 KECCAK256 PUSH1 0x0 SWAP1 SLOAD SWAP1 PUSH2 0x100 EXP SWAP1 DIV PUSH1 0xFF AND ISZERO PUSH2 0x157E JUMPI PUSH1 0x40 MLOAD PUSH32 0x8C379A000000000000000000000000000000000000000000000000000000000 DUP2 MSTORE PUSH1 0x4 ADD DUP1 DUP1 PUSH1 0x20 ADD DUP3 DUP2 SUB DUP3 MSTORE PUSH1 0x2C DUP2 MSTORE PUSH1 0x20 ADD DUP1 PUSH2 0x4DAE PUSH1 0x2C SWAP2 CODECOPY PUSH1 0x40 ADD SWAP2 POP POP PUSH1 0x40 MLOAD DUP1 SWAP2 SUB SWAP1 REVERT JUMPDEST PUSH1 0x0 PUSH2 0x1589 DUP4 PUSH2 0x32AD JUMP JUMPDEST POP POP POP POP POP SWAP1 POP PUSH2 0x15E2 DUP2 PUSH1 0x3 PUSH1 0x0 DUP6 PUSH20 0xFFFFFFFFFFFFFFFFFFFFFFFFFFFFFFFFFFFFFFFF AND PUSH20 0xFFFFFFFFFFFFFFFFFFFFFFFFFFFFFFFFFFFFFFFF AND DUP2 MSTORE PUSH1 0x20 ADD SWAP1 DUP2 MSTORE PUSH1 0x20 ADD PUSH1 0x0 KECCAK256 SLOAD PUSH2 0x3309 SWAP1 SWAP2 SWAP1 PUSH4 0xFFFFFFFF AND JUMP JUMPDEST PUSH1 0x3 PUSH1 0x0 DUP5 PUSH20 0xFFFFFFFFFFFFFFFFFFFFFFFFFFFFFFFFFFFFFFFF AND PUSH20 0xFFFFFFFFFFFFFFFFFFFFFFFFFFFFFFFFFFFFFFFF AND DUP2 MSTORE PUSH1 0x20 ADD SWAP1 DUP2 MSTORE PUSH1 0x20 ADD PUSH1 0x0 KECCAK256 DUP2 SWAP1 SSTORE POP PUSH2 0x163A DUP2 PUSH1 0x9 SLOAD PUSH2 0x3309 SWAP1 SWAP2 SWAP1 PUSH4 0xFFFFFFFF AND JUMP JUMPDEST PUSH1 0x9 DUP2 SWAP1 SSTORE POP PUSH2 0x1655 DUP4 PUSH1 0xA SLOAD PUSH2 0x3225 SWAP1 SWAP2 SWAP1 PUSH4 0xFFFFFFFF AND JUMP JUMPDEST PUSH1 0xA DUP2 SWAP1 SSTORE POP POP POP POP JUMP JUMPDEST PUSH2 0x1668 PUSH2 0x2B2C JUMP JUMPDEST PUSH20 0xFFFFFFFFFFFFFFFFFFFFFFFFFFFFFFFFFFFFFFFF AND PUSH1 0x0 DUP1 SLOAD SWAP1 PUSH2 0x100 EXP SWAP1 DIV PUSH20 0xFFFFFFFFFFFFFFFFFFFFFFFFFFFFFFFFFFFFFFFF AND PUSH20 0xFFFFFFFFFFFFFFFFFFFFFFFFFFFFFFFFFFFFFFFF AND EQ PUSH2 0x1728 JUMPI PUSH1 0x40 MLOAD PUSH32 0x8C379A000000000000000000000000000000000000000000000000000000000 DUP2 MSTORE PUSH1 0x4 ADD DUP1 DUP1 PUSH1 0x20 ADD DUP3 DUP2 SUB DUP3 MSTORE PUSH1 0x20 DUP2 MSTORE PUSH1 0x20 ADD DUP1 PUSH32 0x4F776E61626C653A2063616C6C6572206973206E6F7420746865206F776E6572 DUP2 MSTORE POP PUSH1 0x20 ADD SWAP2 POP POP PUSH1 0x40 MLOAD DUP1 SWAP2 SUB SWAP1 REVERT JUMPDEST PUSH1 0x1 PUSH1 0x6 PUSH1 0x0 DUP4 PUSH20 0xFFFFFFFFFFFFFFFFFFFFFFFFFFFFFFFFFFFFFFFF AND PUSH20 0xFFFFFFFFFFFFFFFFFFFFFFFFFFFFFFFFFFFFFFFF AND DUP2 MSTORE PUSH1 0x20 ADD SWAP1 DUP2 MSTORE PUSH1 0x20 ADD PUSH1 0x0 KECCAK256 PUSH1 0x0 PUSH2 0x100 EXP DUP2 SLOAD DUP2 PUSH1 0xFF MUL NOT AND SWAP1 DUP4 ISZERO ISZERO MUL OR SWAP1 SSTORE POP POP JUMP JUMPDEST PUSH1 0x0 PUSH8 0xDE0B6B3A7640000 DUP4 GT ISZERO PUSH2 0x1803 JUMPI PUSH1 0x40 MLOAD PUSH32 0x8C379A000000000000000000000000000000000000000000000000000000000 DUP2 MSTORE PUSH1 0x4 ADD DUP1 DUP1 PUSH1 0x20 ADD DUP3 DUP2 SUB DUP3 MSTORE PUSH1 0x1F DUP2 MSTORE PUSH1 0x20 ADD DUP1 PUSH32 0x416D6F756E74206D757374206265206C657373207468616E20737570706C7900 DUP2 MSTORE POP PUSH1 0x20 ADD SWAP2 POP POP PUSH1 0x40 MLOAD DUP1 SWAP2 SUB SWAP1 REVERT JUMPDEST DUP2 PUSH2 0x1823 JUMPI PUSH1 0x0 PUSH2 0x1813 DUP5 PUSH2 0x32AD JUMP JUMPDEST POP POP POP POP POP SWAP1 POP DUP1 SWAP2 POP POP PUSH2 0x183A JUMP JUMPDEST PUSH1 0x0 PUSH2 0x182E DUP5 PUSH2 0x32AD JUMP JUMPDEST POP POP POP POP SWAP2 POP POP DUP1 SWAP2 POP POP JUMPDEST SWAP3 SWAP2 POP POP JUMP JUMPDEST PUSH32 0x0 DUP2 JUMP JUMPDEST PUSH1 0x12 PUSH1 0x1 SWAP1 SLOAD SWAP1 PUSH2 0x100 EXP SWAP1 DIV PUSH1 0xFF AND DUP2 JUMP JUMPDEST PUSH2 0x187F PUSH2 0x2B2C JUMP JUMPDEST PUSH20 0xFFFFFFFFFFFFFFFFFFFFFFFFFFFFFFFFFFFFFFFF AND PUSH1 0x0 DUP1 SLOAD SWAP1 PUSH2 0x100 EXP SWAP1 DIV PUSH20 0xFFFFFFFFFFFFFFFFFFFFFFFFFFFFFFFFFFFFFFFF AND PUSH20 0xFFFFFFFFFFFFFFFFFFFFFFFFFFFFFFFFFFFFFFFF AND EQ PUSH2 0x193F JUMPI PUSH1 0x40 MLOAD PUSH32 0x8C379A000000000000000000000000000000000000000000000000000000000 DUP2 MSTORE PUSH1 0x4 ADD DUP1 DUP1 PUSH1 0x20 ADD DUP3 DUP2 SUB DUP3 MSTORE PUSH1 0x20 DUP2 MSTORE PUSH1 0x20 ADD DUP1 PUSH32 0x4F776E61626C653A2063616C6C6572206973206E6F7420746865206F776E6572 DUP2 MSTORE POP PUSH1 0x20 ADD SWAP2 POP POP PUSH1 0x40 MLOAD DUP1 SWAP2 SUB SWAP1 REVERT JUMPDEST PUSH1 0x7 PUSH1 0x0 DUP3 PUSH20 0xFFFFFFFFFFFFFFFFFFFFFFFFFFFFFFFFFFFFFFFF AND PUSH20 0xFFFFFFFFFFFFFFFFFFFFFFFFFFFFFFFFFFFFFFFF AND DUP2 MSTORE PUSH1 0x20 ADD SWAP1 DUP2 MSTORE PUSH1 0x20 ADD PUSH1 0x0 KECCAK256 PUSH1 0x0 SWAP1 SLOAD SWAP1 PUSH2 0x100 EXP SWAP1 DIV PUSH1 0xFF AND ISZERO PUSH2 0x19FF JUMPI PUSH1 0x40 MLOAD PUSH32 0x8C379A000000000000000000000000000000000000000000000000000000000 DUP2 MSTORE PUSH1 0x4 ADD DUP1 DUP1 PUSH1 0x20 ADD DUP3 DUP2 SUB DUP3 MSTORE PUSH1 0x1B DUP2 MSTORE PUSH1 0x20 ADD DUP1 PUSH32 0x4163636F756E7420697320616C7265616479206578636C756465640000000000 DUP2 MSTORE POP PUSH1 0x20 ADD SWAP2 POP POP PUSH1 0x40 MLOAD DUP1 SWAP2 SUB SWAP1 REVERT JUMPDEST PUSH1 0x0 PUSH1 0x3 PUSH1 0x0 DUP4 PUSH20 0xFFFFFFFFFFFFFFFFFFFFFFFFFFFFFFFFFFFFFFFF AND PUSH20 0xFFFFFFFFFFFFFFFFFFFFFFFFFFFFFFFFFFFFFFFF AND DUP2 MSTORE PUSH1 0x20 ADD SWAP1 DUP2 MSTORE PUSH1 0x20 ADD PUSH1 0x0 KECCAK256 SLOAD GT ISZERO PUSH2 0x1AD3 JUMPI PUSH2 0x1A8F PUSH1 0x3 PUSH1 0x0 DUP4 PUSH20 0xFFFFFFFFFFFFFFFFFFFFFFFFFFFFFFFFFFFFFFFF AND PUSH20 0xFFFFFFFFFFFFFFFFFFFFFFFFFFFFFFFFFFFFFFFF AND DUP2 MSTORE PUSH1 0x20 ADD SWAP1 DUP2 MSTORE PUSH1 0x20 ADD PUSH1 0x0 KECCAK256 SLOAD PUSH2 0xFF1 JUMP JUMPDEST PUSH1 0x4 PUSH1 0x0 DUP4 PUSH20 0xFFFFFFFFFFFFFFFFFFFFFFFFFFFFFFFFFFFFFFFF AND PUSH20 0xFFFFFFFFFFFFFFFFFFFFFFFFFFFFFFFFFFFFFFFF AND DUP2 MSTORE PUSH1 0x20 ADD SWAP1 DUP2 MSTORE PUSH1 0x20 ADD PUSH1 0x0 KECCAK256 DUP2 SWAP1 SSTORE POP JUMPDEST PUSH1 0x1 PUSH1 0x7 PUSH1 0x0 DUP4 PUSH20 0xFFFFFFFFFFFFFFFFFFFFFFFFFFFFFFFFFFFFFFFF AND PUSH20 0xFFFFFFFFFFFFFFFFFFFFFFFFFFFFFFFFFFFFFFFF AND DUP2 MSTORE PUSH1 0x20 ADD SWAP1 DUP2 MSTORE PUSH1 0x20 ADD PUSH1 0x0 KECCAK256 PUSH1 0x0 PUSH2 0x100 EXP DUP2 SLOAD DUP2 PUSH1 0xFF MUL NOT AND SWAP1 DUP4 ISZERO ISZERO MUL OR SWAP1 SSTORE POP PUSH1 0x8 DUP2 SWAP1 DUP1 PUSH1 0x1 DUP2 SLOAD ADD DUP1 DUP3 SSTORE DUP1 SWAP2 POP POP PUSH1 0x1 SWAP1 SUB SWAP1 PUSH1 0x0 MSTORE PUSH1 0x20 PUSH1 0x0 KECCAK256 ADD PUSH1 0x0 SWAP1 SWAP2 SWAP1 SWAP2 SWAP1 SWAP2 PUSH2 0x100 EXP DUP2 SLOAD DUP2 PUSH20 0xFFFFFFFFFFFFFFFFFFFFFFFFFFFFFFFFFFFFFFFF MUL NOT AND SWAP1 DUP4 PUSH20 0xFFFFFFFFFFFFFFFFFFFFFFFFFFFFFFFFFFFFFFFF AND MUL OR SWAP1 SSTORE POP POP JUMP JUMPDEST PUSH1 0x0 PUSH1 0x6 PUSH1 0x0 DUP4 PUSH20 0xFFFFFFFFFFFFFFFFFFFFFFFFFFFFFFFFFFFFFFFF AND PUSH20 0xFFFFFFFFFFFFFFFFFFFFFFFFFFFFFFFFFFFFFFFF AND DUP2 MSTORE PUSH1 0x20 ADD SWAP1 DUP2 MSTORE PUSH1 0x20 ADD PUSH1 0x0 KECCAK256 PUSH1 0x0 SWAP1 SLOAD SWAP1 PUSH2 0x100 EXP SWAP1 DIV PUSH1 0xFF AND SWAP1 POP SWAP2 SWAP1 POP JUMP JUMPDEST PUSH1 0x10 SLOAD DUP2 JUMP JUMPDEST PUSH1 0x0 PUSH1 0x7 PUSH1 0x0 DUP4 PUSH20 0xFFFFFFFFFFFFFFFFFFFFFFFFFFFFFFFFFFFFFFFF AND PUSH20 0xFFFFFFFFFFFFFFFFFFFFFFFFFFFFFFFFFFFFFFFF AND DUP2 MSTORE PUSH1 0x20 ADD SWAP1 DUP2 MSTORE PUSH1 0x20 ADD PUSH1 0x0 KECCAK256 PUSH1 0x0 SWAP1 SLOAD SWAP1 PUSH2 0x100 EXP SWAP1 DIV PUSH1 0xFF AND ISZERO PUSH2 0x1C88 JUMPI PUSH1 0x4 PUSH1 0x0 DUP4 PUSH20 0xFFFFFFFFFFFFFFFFFFFFFFFFFFFFFFFFFFFFFFFF AND PUSH20 0xFFFFFFFFFFFFFFFFFFFFFFFFFFFFFFFFFFFFFFFF AND DUP2 MSTORE PUSH1 0x20 ADD SWAP1 DUP2 MSTORE PUSH1 0x20 ADD PUSH1 0x0 KECCAK256 SLOAD SWAP1 POP PUSH2 0x1CD3 JUMP JUMPDEST PUSH2 0x1CD0 PUSH1 0x3 PUSH1 0x0 DUP5 PUSH20 0xFFFFFFFFFFFFFFFFFFFFFFFFFFFFFFFFFFFFFFFF AND PUSH20 0xFFFFFFFFFFFFFFFFFFFFFFFFFFFFFFFFFFFFFFFF AND DUP2 MSTORE PUSH1 0x20 ADD SWAP1 DUP2 MSTORE PUSH1 0x20 ADD PUSH1 0x0 KECCAK256 SLOAD PUSH2 0xFF1 JUMP JUMPDEST SWAP1 POP JUMPDEST SWAP2 SWAP1 POP JUMP JUMPDEST PUSH2 0x1CE0 PUSH2 0x2B2C JUMP JUMPDEST PUSH20 0xFFFFFFFFFFFFFFFFFFFFFFFFFFFFFFFFFFFFFFFF AND PUSH1 0x0 DUP1 SLOAD SWAP1 PUSH2 0x100 EXP SWAP1 DIV PUSH20 0xFFFFFFFFFFFFFFFFFFFFFFFFFFFFFFFFFFFFFFFF AND PUSH20 0xFFFFFFFFFFFFFFFFFFFFFFFFFFFFFFFFFFFFFFFF AND EQ PUSH2 0x1DA0 JUMPI PUSH1 0x40 MLOAD PUSH32 0x8C379A000000000000000000000000000000000000000000000000000000000 DUP2 MSTORE PUSH1 0x4 ADD DUP1 DUP1 PUSH1 0x20 ADD DUP3 DUP2 SUB DUP3 MSTORE PUSH1 0x20 DUP2 MSTORE PUSH1 0x20 ADD DUP1 PUSH32 0x4F776E61626C653A2063616C6C6572206973206E6F7420746865206F776E6572 DUP2 MSTORE POP PUSH1 0x20 ADD SWAP2 POP POP PUSH1 0x40 MLOAD DUP1 SWAP2 SUB SWAP1 REVERT JUMPDEST PUSH1 0x0 PUSH20 0xFFFFFFFFFFFFFFFFFFFFFFFFFFFFFFFFFFFFFFFF AND PUSH1 0x0 DUP1 SLOAD SWAP1 PUSH2 0x100 EXP SWAP1 DIV PUSH20 0xFFFFFFFFFFFFFFFFFFFFFFFFFFFFFFFFFFFFFFFF AND PUSH20 0xFFFFFFFFFFFFFFFFFFFFFFFFFFFFFFFFFFFFFFFF AND PUSH32 0x8BE0079C531659141344CD1FD0A4F28419497F9722A3DAAFE3B4186F6B6457E0 PUSH1 0x40 MLOAD PUSH1 0x40 MLOAD DUP1 SWAP2 SUB SWAP1 LOG3 PUSH1 0x0 DUP1 PUSH1 0x0 PUSH2 0x100 EXP DUP2 SLOAD DUP2 PUSH20 0xFFFFFFFFFFFFFFFFFFFFFFFFFFFFFFFFFFFFFFFF MUL NOT AND SWAP1 DUP4 PUSH20 0xFFFFFFFFFFFFFFFFFFFFFFFFFFFFFFFFFFFFFFFF AND MUL OR SWAP1 SSTORE POP JUMP JUMPDEST PUSH1 0x13 SLOAD DUP2 JUMP JUMPDEST PUSH1 0x0 PUSH1 0x7 PUSH1 0x0 DUP4 PUSH20 0xFFFFFFFFFFFFFFFFFFFFFFFFFFFFFFFFFFFFFFFF AND PUSH20 0xFFFFFFFFFFFFFFFFFFFFFFFFFFFFFFFFFFFFFFFF AND DUP2 MSTORE PUSH1 0x20 ADD SWAP1 DUP2 MSTORE PUSH1 0x20 ADD PUSH1 0x0 KECCAK256 PUSH1 0x0 SWAP1 SLOAD SWAP1 PUSH2 0x100 EXP SWAP1 DIV PUSH1 0xFF AND SWAP1 POP SWAP2 SWAP1 POP JUMP JUMPDEST PUSH1 0x0 DUP1 PUSH1 0x0 SWAP1 SLOAD SWAP1 PUSH2 0x100 EXP SWAP1 DIV PUSH20 0xFFFFFFFFFFFFFFFFFFFFFFFFFFFFFFFFFFFFFFFF AND SWAP1 POP SWAP1 JUMP JUMPDEST PUSH2 0x1EEB PUSH2 0x2B2C JUMP JUMPDEST PUSH20 0xFFFFFFFFFFFFFFFFFFFFFFFFFFFFFFFFFFFFFFFF AND PUSH1 0x0 DUP1 SLOAD SWAP1 PUSH2 0x100 EXP SWAP1 DIV PUSH20 0xFFFFFFFFFFFFFFFFFFFFFFFFFFFFFFFFFFFFFFFF AND PUSH20 0xFFFFFFFFFFFFFFFFFFFFFFFFFFFFFFFFFFFFFFFF AND EQ PUSH2 0x1FAB JUMPI PUSH1 0x40 MLOAD PUSH32 0x8C379A000000000000000000000000000000000000000000000000000000000 DUP2 MSTORE PUSH1 0x4 ADD DUP1 DUP1 PUSH1 0x20 ADD DUP3 DUP2 SUB DUP3 MSTORE PUSH1 0x20 DUP2 MSTORE PUSH1 0x20 ADD DUP1 PUSH32 0x4F776E61626C653A2063616C6C6572206973206E6F7420746865206F776E6572 DUP2 MSTORE POP PUSH1 0x20 ADD SWAP2 POP POP PUSH1 0x40 MLOAD DUP1 SWAP2 SUB SWAP1 REVERT JUMPDEST DUP1 PUSH1 0x10 DUP2 SWAP1 SSTORE POP POP JUMP JUMPDEST PUSH1 0x60 PUSH1 0xC DUP1 SLOAD PUSH1 0x1 DUP2 PUSH1 0x1 AND ISZERO PUSH2 0x100 MUL SUB AND PUSH1 0x2 SWAP1 DIV DUP1 PUSH1 0x1F ADD PUSH1 0x20 DUP1 SWAP2 DIV MUL PUSH1 0x20 ADD PUSH1 0x40 MLOAD SWAP1 DUP2 ADD PUSH1 0x40 MSTORE DUP1 SWAP3 SWAP2 SWAP1 DUP2 DUP2 MSTORE PUSH1 0x20 ADD DUP3 DUP1 SLOAD PUSH1 0x1 DUP2 PUSH1 0x1 AND ISZERO PUSH2 0x100 MUL SUB AND PUSH1 0x2 SWAP1 DIV DUP1 ISZERO PUSH2 0x204D JUMPI DUP1 PUSH1 0x1F LT PUSH2 0x2022 JUMPI PUSH2 0x100 DUP1 DUP4 SLOAD DIV MUL DUP4 MSTORE SWAP2 PUSH1 0x20 ADD SWAP2 PUSH2 0x204D JUMP JUMPDEST DUP3 ADD SWAP2 SWAP1 PUSH1 0x0 MSTORE PUSH1 0x20 PUSH1 0x0 KECCAK256 SWAP1 JUMPDEST DUP2 SLOAD DUP2 MSTORE SWAP1 PUSH1 0x1 ADD SWAP1 PUSH1 0x20 ADD DUP1 DUP4 GT PUSH2 0x2030 JUMPI DUP3 SWAP1 SUB PUSH1 0x1F AND DUP3 ADD SWAP2 JUMPDEST POP POP POP POP POP SWAP1 POP SWAP1 JUMP JUMPDEST PUSH1 0x0 PUSH2 0x211A PUSH2 0x2064 PUSH2 0x2B2C JUMP JUMPDEST DUP5 PUSH2 0x2115 DUP6 PUSH1 0x40 MLOAD DUP1 PUSH1 0x60 ADD PUSH1 0x40 MSTORE DUP1 PUSH1 0x25 DUP2 MSTORE PUSH1 0x20 ADD PUSH2 0x4DFD PUSH1 0x25 SWAP2 CODECOPY PUSH1 0x5 PUSH1 0x0 PUSH2 0x208E PUSH2 0x2B2C JUMP JUMPDEST PUSH20 0xFFFFFFFFFFFFFFFFFFFFFFFFFFFFFFFFFFFFFFFF AND PUSH20 0xFFFFFFFFFFFFFFFFFFFFFFFFFFFFFFFFFFFFFFFF AND DUP2 MSTORE PUSH1 0x20 ADD SWAP1 DUP2 MSTORE PUSH1 0x20 ADD PUSH1 0x0 KECCAK256 PUSH1 0x0 DUP11 PUSH20 0xFFFFFFFFFFFFFFFFFFFFFFFFFFFFFFFFFFFFFFFF AND PUSH20 0xFFFFFFFFFFFFFFFFFFFFFFFFFFFFFFFFFFFFFFFF AND DUP2 MSTORE PUSH1 0x20 ADD SWAP1 DUP2 MSTORE PUSH1 0x20 ADD PUSH1 0x0 KECCAK256 SLOAD PUSH2 0x30F0 SWAP1 SWAP3 SWAP2 SWAP1 PUSH4 0xFFFFFFFF AND JUMP JUMPDEST PUSH2 0x2B34 JUMP JUMPDEST PUSH1 0x1 SWAP1 POP SWAP3 SWAP2 POP POP JUMP JUMPDEST CALLER PUSH20 0xFFFFFFFFFFFFFFFFFFFFFFFFFFFFFFFFFFFFFFFF AND PUSH1 0x1 PUSH1 0x0 SWAP1 SLOAD SWAP1 PUSH2 0x100 EXP SWAP1 DIV PUSH20 0xFFFFFFFFFFFFFFFFFFFFFFFFFFFFFFFFFFFFFFFF AND PUSH20 0xFFFFFFFFFFFFFFFFFFFFFFFFFFFFFFFFFFFFFFFF AND EQ PUSH2 0x21CA JUMPI PUSH1 0x40 MLOAD PUSH32 0x8C379A000000000000000000000000000000000000000000000000000000000 DUP2 MSTORE PUSH1 0x4 ADD DUP1 DUP1 PUSH1 0x20 ADD DUP3 DUP2 SUB DUP3 MSTORE PUSH1 0x23 DUP2 MSTORE PUSH1 0x20 ADD DUP1 PUSH2 0x4DDA PUSH1 0x23 SWAP2 CODECOPY PUSH1 0x40 ADD SWAP2 POP POP PUSH1 0x40 MLOAD DUP1 SWAP2 SUB SWAP1 REVERT JUMPDEST PUSH1 0x2 SLOAD TIMESTAMP GT PUSH2 0x2241 JUMPI PUSH1 0x40 MLOAD PUSH32 0x8C379A000000000000000000000000000000000000000000000000000000000 DUP2 MSTORE PUSH1 0x4 ADD DUP1 DUP1 PUSH1 0x20 ADD DUP3 DUP2 SUB DUP3 MSTORE PUSH1 0x1F DUP2 MSTORE PUSH1 0x20 ADD DUP1 PUSH32 0x436F6E7472616374206973206C6F636B656420756E74696C2037206461797300 DUP2 MSTORE POP PUSH1 0x20 ADD SWAP2 POP POP PUSH1 0x40 MLOAD DUP1 SWAP2 SUB SWAP1 REVERT JUMPDEST PUSH1 0x1 PUSH1 0x0 SWAP1 SLOAD SWAP1 PUSH2 0x100 EXP SWAP1 DIV PUSH20 0xFFFFFFFFFFFFFFFFFFFFFFFFFFFFFFFFFFFFFFFF AND PUSH20 0xFFFFFFFFFFFFFFFFFFFFFFFFFFFFFFFFFFFFFFFF AND PUSH1 0x0 DUP1 SLOAD SWAP1 PUSH2 0x100 EXP SWAP1 DIV PUSH20 0xFFFFFFFFFFFFFFFFFFFFFFFFFFFFFFFFFFFFFFFF AND PUSH20 0xFFFFFFFFFFFFFFFFFFFFFFFFFFFFFFFFFFFFFFFF AND PUSH32 0x8BE0079C531659141344CD1FD0A4F28419497F9722A3DAAFE3B4186F6B6457E0 PUSH1 0x40 MLOAD PUSH1 0x40 MLOAD DUP1 SWAP2 SUB SWAP1 LOG3 PUSH1 0x1 PUSH1 0x0 SWAP1 SLOAD SWAP1 PUSH2 0x100 EXP SWAP1 DIV PUSH20 0xFFFFFFFFFFFFFFFFFFFFFFFFFFFFFFFFFFFFFFFF AND PUSH1 0x0 DUP1 PUSH2 0x100 EXP DUP2 SLOAD DUP2 PUSH20 0xFFFFFFFFFFFFFFFFFFFFFFFFFFFFFFFFFFFFFFFF MUL NOT AND SWAP1 DUP4 PUSH20 0xFFFFFFFFFFFFFFFFFFFFFFFFFFFFFFFFFFFFFFFF AND MUL OR SWAP1 SSTORE POP JUMP JUMPDEST PUSH1 0x0 PUSH2 0x2355 PUSH2 0x234E PUSH2 0x2B2C JUMP JUMPDEST DUP5 DUP5 PUSH2 0x2D2B JUMP JUMPDEST PUSH1 0x1 SWAP1 POP SWAP3 SWAP2 POP POP JUMP JUMPDEST PUSH1 0x0 PUSH1 0x2 SLOAD SWAP1 POP SWAP1 JUMP JUMPDEST PUSH2 0x2371 PUSH2 0x2B2C JUMP JUMPDEST PUSH20 0xFFFFFFFFFFFFFFFFFFFFFFFFFFFFFFFFFFFFFFFF AND PUSH1 0x0 DUP1 SLOAD SWAP1 PUSH2 0x100 EXP SWAP1 DIV PUSH20 0xFFFFFFFFFFFFFFFFFFFFFFFFFFFFFFFFFFFFFFFF AND PUSH20 0xFFFFFFFFFFFFFFFFFFFFFFFFFFFFFFFFFFFFFFFF AND EQ PUSH2 0x2431 JUMPI PUSH1 0x40 MLOAD PUSH32 0x8C379A000000000000000000000000000000000000000000000000000000000 DUP2 MSTORE PUSH1 0x4 ADD DUP1 DUP1 PUSH1 0x20 ADD DUP3 DUP2 SUB DUP3 MSTORE PUSH1 0x20 DUP2 MSTORE PUSH1 0x20 ADD DUP1 PUSH32 0x4F776E61626C653A2063616C6C6572206973206E6F7420746865206F776E6572 DUP2 MSTORE POP PUSH1 0x20 ADD SWAP2 POP POP PUSH1 0x40 MLOAD DUP1 SWAP2 SUB SWAP1 REVERT JUMPDEST DUP1 PUSH1 0x12 PUSH1 0x1 PUSH2 0x100 EXP DUP2 SLOAD DUP2 PUSH1 0xFF MUL NOT AND SWAP1 DUP4 ISZERO ISZERO MUL OR SWAP1 SSTORE POP PUSH32 0x53726DFCAF90650AA7EB35524F4D3220F07413C8D6CB404CC8C18BF5591BC159 DUP2 PUSH1 0x40 MLOAD DUP1 DUP3 ISZERO ISZERO DUP2 MSTORE PUSH1 0x20 ADD SWAP2 POP POP PUSH1 0x40 MLOAD DUP1 SWAP2 SUB SWAP1 LOG1 POP JUMP JUMPDEST PUSH2 0x248F PUSH2 0x2B2C JUMP JUMPDEST PUSH20 0xFFFFFFFFFFFFFFFFFFFFFFFFFFFFFFFFFFFFFFFF AND PUSH1 0x0 DUP1 SLOAD SWAP1 PUSH2 0x100 EXP SWAP1 DIV PUSH20 0xFFFFFFFFFFFFFFFFFFFFFFFFFFFFFFFFFFFFFFFF AND PUSH20 0xFFFFFFFFFFFFFFFFFFFFFFFFFFFFFFFFFFFFFFFF AND EQ PUSH2 0x254F JUMPI PUSH1 0x40 MLOAD PUSH32 0x8C379A000000000000000000000000000000000000000000000000000000000 DUP2 MSTORE PUSH1 0x4 ADD DUP1 DUP1 PUSH1 0x20 ADD DUP3 DUP2 SUB DUP3 MSTORE PUSH1 0x20 DUP2 MSTORE PUSH1 0x20 ADD DUP1 PUSH32 0x4F776E61626C653A2063616C6C6572206973206E6F7420746865206F776E6572 DUP2 MSTORE POP PUSH1 0x20 ADD SWAP2 POP POP PUSH1 0x40 MLOAD DUP1 SWAP2 SUB SWAP1 REVERT JUMPDEST PUSH2 0x257D PUSH1 0x64 PUSH2 0x256F DUP4 PUSH8 0xDE0B6B3A7640000 PUSH2 0x3353 SWAP1 SWAP2 SWAP1 PUSH4 0xFFFFFFFF AND JUMP JUMPDEST PUSH2 0x31DB SWAP1 SWAP2 SWAP1 PUSH4 0xFFFFFFFF AND JUMP JUMPDEST PUSH1 0x13 DUP2 SWAP1 SSTORE POP POP JUMP JUMPDEST PUSH2 0x258E PUSH2 0x2B2C JUMP JUMPDEST PUSH20 0xFFFFFFFFFFFFFFFFFFFFFFFFFFFFFFFFFFFFFFFF AND PUSH1 0x0 DUP1 SLOAD SWAP1 PUSH2 0x100 EXP SWAP1 DIV PUSH20 0xFFFFFFFFFFFFFFFFFFFFFFFFFFFFFFFFFFFFFFFF AND PUSH20 0xFFFFFFFFFFFFFFFFFFFFFFFFFFFFFFFFFFFFFFFF AND EQ PUSH2 0x264E JUMPI PUSH1 0x40 MLOAD PUSH32 0x8C379A000000000000000000000000000000000000000000000000000000000 DUP2 MSTORE PUSH1 0x4 ADD DUP1 DUP1 PUSH1 0x20 ADD DUP3 DUP2 SUB DUP3 MSTORE PUSH1 0x20 DUP2 MSTORE PUSH1 0x20 ADD DUP1 PUSH32 0x4F776E61626C653A2063616C6C6572206973206E6F7420746865206F776E6572 DUP2 MSTORE POP PUSH1 0x20 ADD SWAP2 POP POP PUSH1 0x40 MLOAD DUP1 SWAP2 SUB SWAP1 REVERT JUMPDEST PUSH1 0x0 DUP1 SLOAD SWAP1 PUSH2 0x100 EXP SWAP1 DIV PUSH20 0xFFFFFFFFFFFFFFFFFFFFFFFFFFFFFFFFFFFFFFFF AND PUSH1 0x1 PUSH1 0x0 PUSH2 0x100 EXP DUP2 SLOAD DUP2 PUSH20 0xFFFFFFFFFFFFFFFFFFFFFFFFFFFFFFFFFFFFFFFF MUL NOT AND SWAP1 DUP4 PUSH20 0xFFFFFFFFFFFFFFFFFFFFFFFFFFFFFFFFFFFFFFFF AND MUL OR SWAP1 SSTORE POP PUSH1 0x0 DUP1 PUSH1 0x0 PUSH2 0x100 EXP DUP2 SLOAD DUP2 PUSH20 0xFFFFFFFFFFFFFFFFFFFFFFFFFFFFFFFFFFFFFFFF MUL NOT AND SWAP1 DUP4 PUSH20 0xFFFFFFFFFFFFFFFFFFFFFFFFFFFFFFFFFFFFFFFF AND MUL OR SWAP1 SSTORE POP DUP1 TIMESTAMP ADD PUSH1 0x2 DUP2 SWAP1 SSTORE POP PUSH1 0x0 PUSH20 0xFFFFFFFFFFFFFFFFFFFFFFFFFFFFFFFFFFFFFFFF AND PUSH1 0x0 DUP1 SLOAD SWAP1 PUSH2 0x100 EXP SWAP1 DIV PUSH20 0xFFFFFFFFFFFFFFFFFFFFFFFFFFFFFFFFFFFFFFFF AND PUSH20 0xFFFFFFFFFFFFFFFFFFFFFFFFFFFFFFFFFFFFFFFF AND PUSH32 0x8BE0079C531659141344CD1FD0A4F28419497F9722A3DAAFE3B4186F6B6457E0 PUSH1 0x40 MLOAD PUSH1 0x40 MLOAD DUP1 SWAP2 SUB SWAP1 LOG3 POP JUMP JUMPDEST PUSH1 0x0 PUSH1 0x5 PUSH1 0x0 DUP5 PUSH20 0xFFFFFFFFFFFFFFFFFFFFFFFFFFFFFFFFFFFFFFFF AND PUSH20 0xFFFFFFFFFFFFFFFFFFFFFFFFFFFFFFFFFFFFFFFF AND DUP2 MSTORE PUSH1 0x20 ADD SWAP1 DUP2 MSTORE PUSH1 0x20 ADD PUSH1 0x0 KECCAK256 PUSH1 0x0 DUP4 PUSH20 0xFFFFFFFFFFFFFFFFFFFFFFFFFFFFFFFFFFFFFFFF AND PUSH20 0xFFFFFFFFFFFFFFFFFFFFFFFFFFFFFFFFFFFFFFFF AND DUP2 MSTORE PUSH1 0x20 ADD SWAP1 DUP2 MSTORE PUSH1 0x20 ADD PUSH1 0x0 KECCAK256 SLOAD SWAP1 POP SWAP3 SWAP2 POP POP JUMP JUMPDEST PUSH2 0x2806 PUSH2 0x2B2C JUMP JUMPDEST PUSH20 0xFFFFFFFFFFFFFFFFFFFFFFFFFFFFFFFFFFFFFFFF AND PUSH1 0x0 DUP1 SLOAD SWAP1 PUSH2 0x100 EXP SWAP1 DIV PUSH20 0xFFFFFFFFFFFFFFFFFFFFFFFFFFFFFFFFFFFFFFFF AND PUSH20 0xFFFFFFFFFFFFFFFFFFFFFFFFFFFFFFFFFFFFFFFF AND EQ PUSH2 0x28C6 JUMPI PUSH1 0x40 MLOAD PUSH32 0x8C379A000000000000000000000000000000000000000000000000000000000 DUP2 MSTORE PUSH1 0x4 ADD DUP1 DUP1 PUSH1 0x20 ADD DUP3 DUP2 SUB DUP3 MSTORE PUSH1 0x20 DUP2 MSTORE PUSH1 0x20 ADD DUP1 PUSH32 0x4F776E61626C653A2063616C6C6572206973206E6F7420746865206F776E6572 DUP2 MSTORE POP PUSH1 0x20 ADD SWAP2 POP POP PUSH1 0x40 MLOAD DUP1 SWAP2 SUB SWAP1 REVERT JUMPDEST PUSH1 0x0 PUSH1 0x6 PUSH1 0x0 DUP4 PUSH20 0xFFFFFFFFFFFFFFFFFFFFFFFFFFFFFFFFFFFFFFFF AND PUSH20 0xFFFFFFFFFFFFFFFFFFFFFFFFFFFFFFFFFFFFFFFF AND DUP2 MSTORE PUSH1 0x20 ADD SWAP1 DUP2 MSTORE PUSH1 0x20 ADD PUSH1 0x0 KECCAK256 PUSH1 0x0 PUSH2 0x100 EXP DUP2 SLOAD DUP2 PUSH1 0xFF MUL NOT AND SWAP1 DUP4 ISZERO ISZERO MUL OR SWAP1 SSTORE POP POP JUMP JUMPDEST PUSH2 0x2929 PUSH2 0x2B2C JUMP JUMPDEST PUSH20 0xFFFFFFFFFFFFFFFFFFFFFFFFFFFFFFFFFFFFFFFF AND PUSH1 0x0 DUP1 SLOAD SWAP1 PUSH2 0x100 EXP SWAP1 DIV PUSH20 0xFFFFFFFFFFFFFFFFFFFFFFFFFFFFFFFFFFFFFFFF AND PUSH20 0xFFFFFFFFFFFFFFFFFFFFFFFFFFFFFFFFFFFFFFFF AND EQ PUSH2 0x29E9 JUMPI PUSH1 0x40 MLOAD PUSH32 0x8C379A000000000000000000000000000000000000000000000000000000000 DUP2 MSTORE PUSH1 0x4 ADD DUP1 DUP1 PUSH1 0x20 ADD DUP3 DUP2 SUB DUP3 MSTORE PUSH1 0x20 DUP2 MSTORE PUSH1 0x20 ADD DUP1 PUSH32 0x4F776E61626C653A2063616C6C6572206973206E6F7420746865206F776E6572 DUP2 MSTORE POP PUSH1 0x20 ADD SWAP2 POP POP PUSH1 0x40 MLOAD DUP1 SWAP2 SUB SWAP1 REVERT JUMPDEST PUSH1 0x0 PUSH20 0xFFFFFFFFFFFFFFFFFFFFFFFFFFFFFFFFFFFFFFFF AND DUP2 PUSH20 0xFFFFFFFFFFFFFFFFFFFFFFFFFFFFFFFFFFFFFFFF AND EQ ISZERO PUSH2 0x2A6F JUMPI PUSH1 0x40 MLOAD PUSH32 0x8C379A000000000000000000000000000000000000000000000000000000000 DUP2 MSTORE PUSH1 0x4 ADD DUP1 DUP1 PUSH1 0x20 ADD DUP3 DUP2 SUB DUP3 MSTORE PUSH1 0x26 DUP2 MSTORE PUSH1 0x20 ADD DUP1 PUSH2 0x4C83 PUSH1 0x26 SWAP2 CODECOPY PUSH1 0x40 ADD SWAP2 POP POP PUSH1 0x40 MLOAD DUP1 SWAP2 SUB SWAP1 REVERT JUMPDEST DUP1 PUSH20 0xFFFFFFFFFFFFFFFFFFFFFFFFFFFFFFFFFFFFFFFF AND PUSH1 0x0 DUP1 SLOAD SWAP1 PUSH2 0x100 EXP SWAP1 DIV PUSH20 0xFFFFFFFFFFFFFFFFFFFFFFFFFFFFFFFFFFFFFFFF AND PUSH20 0xFFFFFFFFFFFFFFFFFFFFFFFFFFFFFFFFFFFFFFFF AND PUSH32 0x8BE0079C531659141344CD1FD0A4F28419497F9722A3DAAFE3B4186F6B6457E0 PUSH1 0x40 MLOAD PUSH1 0x40 MLOAD DUP1 SWAP2 SUB SWAP1 LOG3 DUP1 PUSH1 0x0 DUP1 PUSH2 0x100 EXP DUP2 SLOAD DUP2 PUSH20 0xFFFFFFFFFFFFFFFFFFFFFFFFFFFFFFFFFFFFFFFF MUL NOT AND SWAP1 DUP4 PUSH20 0xFFFFFFFFFFFFFFFFFFFFFFFFFFFFFFFFFFFFFFFF AND MUL OR SWAP1 SSTORE POP POP JUMP JUMPDEST PUSH1 0x0 CALLER SWAP1 POP SWAP1 JUMP JUMPDEST PUSH1 0x0 PUSH20 0xFFFFFFFFFFFFFFFFFFFFFFFFFFFFFFFFFFFFFFFF AND DUP4 PUSH20 0xFFFFFFFFFFFFFFFFFFFFFFFFFFFFFFFFFFFFFFFF AND EQ ISZERO PUSH2 0x2BBA JUMPI PUSH1 0x40 MLOAD PUSH32 0x8C379A000000000000000000000000000000000000000000000000000000000 DUP2 MSTORE PUSH1 0x4 ADD DUP1 DUP1 PUSH1 0x20 ADD DUP3 DUP2 SUB DUP3 MSTORE PUSH1 0x24 DUP2 MSTORE PUSH1 0x20 ADD DUP1 PUSH2 0x4D8A PUSH1 0x24 SWAP2 CODECOPY PUSH1 0x40 ADD SWAP2 POP POP PUSH1 0x40 MLOAD DUP1 SWAP2 SUB SWAP1 REVERT JUMPDEST PUSH1 0x0 PUSH20 0xFFFFFFFFFFFFFFFFFFFFFFFFFFFFFFFFFFFFFFFF AND DUP3 PUSH20 0xFFFFFFFFFFFFFFFFFFFFFFFFFFFFFFFFFFFFFFFF AND EQ ISZERO PUSH2 0x2C40 JUMPI PUSH1 0x40 MLOAD PUSH32 0x8C379A000000000000000000000000000000000000000000000000000000000 DUP2 MSTORE PUSH1 0x4 ADD DUP1 DUP1 PUSH1 0x20 ADD DUP3 DUP2 SUB DUP3 MSTORE PUSH1 0x22 DUP2 MSTORE PUSH1 0x20 ADD DUP1 PUSH2 0x4CA9 PUSH1 0x22 SWAP2 CODECOPY PUSH1 0x40 ADD SWAP2 POP POP PUSH1 0x40 MLOAD DUP1 SWAP2 SUB SWAP1 REVERT JUMPDEST DUP1 PUSH1 0x5 PUSH1 0x0 DUP6 PUSH20 0xFFFFFFFFFFFFFFFFFFFFFFFFFFFFFFFFFFFFFFFF AND PUSH20 0xFFFFFFFFFFFFFFFFFFFFFFFFFFFFFFFFFFFFFFFF AND DUP2 MSTORE PUSH1 0x20 ADD SWAP1 DUP2 MSTORE PUSH1 0x20 ADD PUSH1 0x0 KECCAK256 PUSH1 0x0 DUP5 PUSH20 0xFFFFFFFFFFFFFFFFFFFFFFFFFFFFFFFFFFFFFFFF AND PUSH20 0xFFFFFFFFFFFFFFFFFFFFFFFFFFFFFFFFFFFFFFFF AND DUP2 MSTORE PUSH1 0x20 ADD SWAP1 DUP2 MSTORE PUSH1 0x20 ADD PUSH1 0x0 KECCAK256 DUP2 SWAP1 SSTORE POP DUP2 PUSH20 0xFFFFFFFFFFFFFFFFFFFFFFFFFFFFFFFFFFFFFFFF AND DUP4 PUSH20 0xFFFFFFFFFFFFFFFFFFFFFFFFFFFFFFFFFFFFFFFF AND PUSH32 0x8C5BE1E5EBEC7D5BD14F71427D1E84F3DD0314C0F7B2291E5B200AC8C7C3B925 DUP4 PUSH1 0x40 MLOAD DUP1 DUP3 DUP2 MSTORE PUSH1 0x20 ADD SWAP2 POP POP PUSH1 0x40 MLOAD DUP1 SWAP2 SUB SWAP1 LOG3 POP POP POP JUMP JUMPDEST PUSH1 0x0 PUSH20 0xFFFFFFFFFFFFFFFFFFFFFFFFFFFFFFFFFFFFFFFF AND DUP4 PUSH20 0xFFFFFFFFFFFFFFFFFFFFFFFFFFFFFFFFFFFFFFFF AND EQ ISZERO PUSH2 0x2DB1 JUMPI PUSH1 0x40 MLOAD PUSH32 0x8C379A000000000000000000000000000000000000000000000000000000000 DUP2 MSTORE PUSH1 0x4 ADD DUP1 DUP1 PUSH1 0x20 ADD DUP3 DUP2 SUB DUP3 MSTORE PUSH1 0x25 DUP2 MSTORE PUSH1 0x20 ADD DUP1 PUSH2 0x4D65 PUSH1 0x25 SWAP2 CODECOPY PUSH1 0x40 ADD SWAP2 POP POP PUSH1 0x40 MLOAD DUP1 SWAP2 SUB SWAP1 REVERT JUMPDEST PUSH1 0x0 PUSH20 0xFFFFFFFFFFFFFFFFFFFFFFFFFFFFFFFFFFFFFFFF AND DUP3 PUSH20 0xFFFFFFFFFFFFFFFFFFFFFFFFFFFFFFFFFFFFFFFF AND EQ ISZERO PUSH2 0x2E37 JUMPI PUSH1 0x40 MLOAD PUSH32 0x8C379A000000000000000000000000000000000000000000000000000000000 DUP2 MSTORE PUSH1 0x4 ADD DUP1 DUP1 PUSH1 0x20 ADD DUP3 DUP2 SUB DUP3 MSTORE PUSH1 0x23 DUP2 MSTORE PUSH1 0x20 ADD DUP1 PUSH2 0x4C36 PUSH1 0x23 SWAP2 CODECOPY PUSH1 0x40 ADD SWAP2 POP POP PUSH1 0x40 MLOAD DUP1 SWAP2 SUB SWAP1 REVERT JUMPDEST PUSH1 0x0 DUP2 GT PUSH2 0x2E90 JUMPI PUSH1 0x40 MLOAD PUSH32 0x8C379A000000000000000000000000000000000000000000000000000000000 DUP2 MSTORE PUSH1 0x4 ADD DUP1 DUP1 PUSH1 0x20 ADD DUP3 DUP2 SUB DUP3 MSTORE PUSH1 0x29 DUP2 MSTORE PUSH1 0x20 ADD DUP1 PUSH2 0x4D3C PUSH1 0x29 SWAP2 CODECOPY PUSH1 0x40 ADD SWAP2 POP POP PUSH1 0x40 MLOAD DUP1 SWAP2 SUB SWAP1 REVERT JUMPDEST PUSH2 0x2E98 PUSH2 0x1EBA JUMP JUMPDEST PUSH20 0xFFFFFFFFFFFFFFFFFFFFFFFFFFFFFFFFFFFFFFFF AND DUP4 PUSH20 0xFFFFFFFFFFFFFFFFFFFFFFFFFFFFFFFFFFFFFFFF AND EQ ISZERO DUP1 ISZERO PUSH2 0x2F06 JUMPI POP PUSH2 0x2ED6 PUSH2 0x1EBA JUMP JUMPDEST PUSH20 0xFFFFFFFFFFFFFFFFFFFFFFFFFFFFFFFFFFFFFFFF AND DUP3 PUSH20 0xFFFFFFFFFFFFFFFFFFFFFFFFFFFFFFFFFFFFFFFF AND EQ ISZERO JUMPDEST ISZERO PUSH2 0x2F67 JUMPI PUSH1 0x13 SLOAD DUP2 GT ISZERO PUSH2 0x2F66 JUMPI PUSH1 0x40 MLOAD PUSH32 0x8C379A000000000000000000000000000000000000000000000000000000000 DUP2 MSTORE PUSH1 0x4 ADD DUP1 DUP1 PUSH1 0x20 ADD DUP3 DUP2 SUB DUP3 MSTORE PUSH1 0x28 DUP2 MSTORE PUSH1 0x20 ADD DUP1 PUSH2 0x4CCB PUSH1 0x28 SWAP2 CODECOPY PUSH1 0x40 ADD SWAP2 POP POP PUSH1 0x40 MLOAD DUP1 SWAP2 SUB SWAP1 REVERT JUMPDEST JUMPDEST PUSH1 0x0 PUSH2 0x2F72 ADDRESS PUSH2 0x1BED JUMP JUMPDEST SWAP1 POP PUSH1 0x13 SLOAD DUP2 LT PUSH2 0x2F83 JUMPI PUSH1 0x13 SLOAD SWAP1 POP JUMPDEST PUSH1 0x0 PUSH1 0x14 SLOAD DUP3 LT ISZERO SWAP1 POP DUP1 DUP1 ISZERO PUSH2 0x2FA7 JUMPI POP PUSH1 0x12 PUSH1 0x0 SWAP1 SLOAD SWAP1 PUSH2 0x100 EXP SWAP1 DIV PUSH1 0xFF AND ISZERO JUMPDEST DUP1 ISZERO PUSH2 0x2FFF JUMPI POP PUSH32 0x0 PUSH20 0xFFFFFFFFFFFFFFFFFFFFFFFFFFFFFFFFFFFFFFFF AND DUP6 PUSH20 0xFFFFFFFFFFFFFFFFFFFFFFFFFFFFFFFFFFFFFFFF AND EQ ISZERO JUMPDEST DUP1 ISZERO PUSH2 0x3017 JUMPI POP PUSH1 0x12 PUSH1 0x1 SWAP1 SLOAD SWAP1 PUSH2 0x100 EXP SWAP1 DIV PUSH1 0xFF AND JUMPDEST ISZERO PUSH2 0x302B JUMPI PUSH1 0x14 SLOAD SWAP2 POP PUSH2 0x302A DUP3 PUSH2 0x33D9 JUMP JUMPDEST JUMPDEST PUSH1 0x0 PUSH1 0x1 SWAP1 POP PUSH1 0x6 PUSH1 0x0 DUP8 PUSH20 0xFFFFFFFFFFFFFFFFFFFFFFFFFFFFFFFFFFFFFFFF AND PUSH20 0xFFFFFFFFFFFFFFFFFFFFFFFFFFFFFFFFFFFFFFFF AND DUP2 MSTORE PUSH1 0x20 ADD SWAP1 DUP2 MSTORE PUSH1 0x20 ADD PUSH1 0x0 KECCAK256 PUSH1 0x0 SWAP1 SLOAD SWAP1 PUSH2 0x100 EXP SWAP1 DIV PUSH1 0xFF AND DUP1 PUSH2 0x30D2 JUMPI POP PUSH1 0x6 PUSH1 0x0 DUP7 PUSH20 0xFFFFFFFFFFFFFFFFFFFFFFFFFFFFFFFFFFFFFFFF AND PUSH20 0xFFFFFFFFFFFFFFFFFFFFFFFFFFFFFFFFFFFFFFFF AND DUP2 MSTORE PUSH1 0x20 ADD SWAP1 DUP2 MSTORE PUSH1 0x20 ADD PUSH1 0x0 KECCAK256 PUSH1 0x0 SWAP1 SLOAD SWAP1 PUSH2 0x100 EXP SWAP1 DIV PUSH1 0xFF AND JUMPDEST ISZERO PUSH2 0x30DC JUMPI PUSH1 0x0 SWAP1 POP JUMPDEST PUSH2 0x30E8 DUP7 DUP7 DUP7 DUP5 PUSH2 0x34BB JUMP JUMPDEST POP POP POP POP POP POP JUMP JUMPDEST PUSH1 0x0 DUP4 DUP4 GT ISZERO DUP3 SWAP1 PUSH2 0x319D JUMPI PUSH1 0x40 MLOAD PUSH32 0x8C379A000000000000000000000000000000000000000000000000000000000 DUP2 MSTORE PUSH1 0x4 ADD DUP1 DUP1 PUSH1 0x20 ADD DUP3 DUP2 SUB DUP3 MSTORE DUP4 DUP2 DUP2 MLOAD DUP2 MSTORE PUSH1 0x20 ADD SWAP2 POP DUP1 MLOAD SWAP1 PUSH1 0x20 ADD SWAP1 DUP1 DUP4 DUP4 PUSH1 0x0 JUMPDEST DUP4 DUP2 LT ISZERO PUSH2 0x3162 JUMPI DUP1 DUP3 ADD MLOAD DUP2 DUP5 ADD MSTORE PUSH1 0x20 DUP2 ADD SWAP1 POP PUSH2 0x3147 JUMP JUMPDEST POP POP POP POP SWAP1 POP SWAP1 DUP2 ADD SWAP1 PUSH1 0x1F AND DUP1 ISZERO PUSH2 0x318F JUMPI DUP1 DUP3 SUB DUP1 MLOAD PUSH1 0x1 DUP4 PUSH1 0x20 SUB PUSH2 0x100 EXP SUB NOT AND DUP2 MSTORE PUSH1 0x20 ADD SWAP2 POP JUMPDEST POP SWAP3 POP POP POP PUSH1 0x40 MLOAD DUP1 SWAP2 SUB SWAP1 REVERT JUMPDEST POP PUSH1 0x0 DUP4 DUP6 SUB SWAP1 POP DUP1 SWAP2 POP POP SWAP4 SWAP3 POP POP POP JUMP JUMPDEST PUSH1 0x0 DUP1 PUSH1 0x0 PUSH2 0x31BD PUSH2 0x37CC JUMP JUMPDEST SWAP2 POP SWAP2 POP PUSH2 0x31D4 DUP2 DUP4 PUSH2 0x31DB SWAP1 SWAP2 SWAP1 PUSH4 0xFFFFFFFF AND JUMP JUMPDEST SWAP3 POP POP POP SWAP1 JUMP JUMPDEST PUSH1 0x0 PUSH2 0x321D DUP4 DUP4 PUSH1 0x40 MLOAD DUP1 PUSH1 0x40 ADD PUSH1 0x40 MSTORE DUP1 PUSH1 0x1A DUP2 MSTORE PUSH1 0x20 ADD PUSH32 0x536166654D6174683A206469766973696F6E206279207A65726F000000000000 DUP2 MSTORE POP PUSH2 0x3A75 JUMP JUMPDEST SWAP1 POP SWAP3 SWAP2 POP POP JUMP JUMPDEST PUSH1 0x0 DUP1 DUP3 DUP5 ADD SWAP1 POP DUP4 DUP2 LT ISZERO PUSH2 0x32A3 JUMPI PUSH1 0x40 MLOAD PUSH32 0x8C379A000000000000000000000000000000000000000000000000000000000 DUP2 MSTORE PUSH1 0x4 ADD DUP1 DUP1 PUSH1 0x20 ADD DUP3 DUP2 SUB DUP3 MSTORE PUSH1 0x1B DUP2 MSTORE PUSH1 0x20 ADD DUP1 PUSH32 0x536166654D6174683A206164646974696F6E206F766572666C6F770000000000 DUP2 MSTORE POP PUSH1 0x20 ADD SWAP2 POP POP PUSH1 0x40 MLOAD DUP1 SWAP2 SUB SWAP1 REVERT JUMPDEST DUP1 SWAP2 POP POP SWAP3 SWAP2 POP POP JUMP JUMPDEST PUSH1 0x0 DUP1 PUSH1 0x0 DUP1 PUSH1 0x0 DUP1 PUSH1 0x0 DUP1 PUSH1 0x0 PUSH2 0x32C4 DUP11 PUSH2 0x3B3B JUMP JUMPDEST SWAP3 POP SWAP3 POP SWAP3 POP PUSH1 0x0 DUP1 PUSH1 0x0 PUSH2 0x32E2 DUP14 DUP7 DUP7 PUSH2 0x32DD PUSH2 0x31B0 JUMP JUMPDEST PUSH2 0x3B95 JUMP JUMPDEST SWAP3 POP SWAP3 POP SWAP3 POP DUP3 DUP3 DUP3 DUP9 DUP9 DUP9 SWAP12 POP SWAP12 POP SWAP12 POP SWAP12 POP SWAP12 POP SWAP12 POP POP POP POP POP POP POP SWAP2 SWAP4 SWAP6 POP SWAP2 SWAP4 SWAP6 JUMP JUMPDEST PUSH1 0x0 PUSH2 0x334B DUP4 DUP4 PUSH1 0x40 MLOAD DUP1 PUSH1 0x40 ADD PUSH1 0x40 MSTORE DUP1 PUSH1 0x1E DUP2 MSTORE PUSH1 0x20 ADD PUSH32 0x536166654D6174683A207375627472616374696F6E206F766572666C6F770000 DUP2 MSTORE POP PUSH2 0x30F0 JUMP JUMPDEST SWAP1 POP SWAP3 SWAP2 POP POP JUMP JUMPDEST PUSH1 0x0 DUP1 DUP4 EQ ISZERO PUSH2 0x3366 JUMPI PUSH1 0x0 SWAP1 POP PUSH2 0x33D3 JUMP JUMPDEST PUSH1 0x0 DUP3 DUP5 MUL SWAP1 POP DUP3 DUP5 DUP3 DUP2 PUSH2 0x3377 JUMPI INVALID JUMPDEST DIV EQ PUSH2 0x33CE JUMPI PUSH1 0x40 MLOAD PUSH32 0x8C379A000000000000000000000000000000000000000000000000000000000 DUP2 MSTORE PUSH1 0x4 ADD DUP1 DUP1 PUSH1 0x20 ADD DUP3 DUP2 SUB DUP3 MSTORE PUSH1 0x21 DUP2 MSTORE PUSH1 0x20 ADD DUP1 PUSH2 0x4CF3 PUSH1 0x21 SWAP2 CODECOPY PUSH1 0x40 ADD SWAP2 POP POP PUSH1 0x40 MLOAD DUP1 SWAP2 SUB SWAP1 REVERT JUMPDEST DUP1 SWAP2 POP POP JUMPDEST SWAP3 SWAP2 POP POP JUMP JUMPDEST PUSH1 0x1 PUSH1 0x12 PUSH1 0x0 PUSH2 0x100 EXP DUP2 SLOAD DUP2 PUSH1 0xFF MUL NOT AND SWAP1 DUP4 ISZERO ISZERO MUL OR SWAP1 SSTORE POP PUSH1 0x0 PUSH2 0x340A PUSH1 0x2 DUP4 PUSH2 0x31DB SWAP1 SWAP2 SWAP1 PUSH4 0xFFFFFFFF AND JUMP JUMPDEST SWAP1 POP PUSH1 0x0 PUSH2 0x3421 DUP3 DUP5 PUSH2 0x3309 SWAP1 SWAP2 SWAP1 PUSH4 0xFFFFFFFF AND JUMP JUMPDEST SWAP1 POP PUSH1 0x0 SELFBALANCE SWAP1 POP PUSH2 0x3431 DUP4 PUSH2 0x3C1E JUMP JUMPDEST PUSH1 0x0 PUSH2 0x3446 DUP3 SELFBALANCE PUSH2 0x3309 SWAP1 SWAP2 SWAP1 PUSH4 0xFFFFFFFF AND JUMP JUMPDEST SWAP1 POP PUSH2 0x3452 DUP4 DUP3 PUSH2 0x3ECC JUMP JUMPDEST PUSH32 0x17BBFB9A6069321B6DED73BD96327C9E6B7212A5CD51FF219CD61370ACAFB561 DUP5 DUP3 DUP6 PUSH1 0x40 MLOAD DUP1 DUP5 DUP2 MSTORE PUSH1 0x20 ADD DUP4 DUP2 MSTORE PUSH1 0x20 ADD DUP3 DUP2 MSTORE PUSH1 0x20 ADD SWAP4 POP POP POP POP PUSH1 0x40 MLOAD DUP1 SWAP2 SUB SWAP1 LOG1 POP POP POP POP PUSH1 0x0 PUSH1 0x12 PUSH1 0x0 PUSH2 0x100 EXP DUP2 SLOAD DUP2 PUSH1 0xFF MUL NOT AND SWAP1 DUP4 ISZERO ISZERO MUL OR SWAP1 SSTORE POP POP JUMP JUMPDEST DUP1 PUSH2 0x34C9 JUMPI PUSH2 0x34C8 PUSH2 0x401D JUMP JUMPDEST JUMPDEST PUSH1 0x7 PUSH1 0x0 DUP6 PUSH20 0xFFFFFFFFFFFFFFFFFFFFFFFFFFFFFFFFFFFFFFFF AND PUSH20 0xFFFFFFFFFFFFFFFFFFFFFFFFFFFFFFFFFFFFFFFF AND DUP2 MSTORE PUSH1 0x20 ADD SWAP1 DUP2 MSTORE PUSH1 0x20 ADD PUSH1 0x0 KECCAK256 PUSH1 0x0 SWAP1 SLOAD SWAP1 PUSH2 0x100 EXP SWAP1 DIV PUSH1 0xFF AND DUP1 ISZERO PUSH2 0x356C JUMPI POP PUSH1 0x7 PUSH1 0x0 DUP5 PUSH20 0xFFFFFFFFFFFFFFFFFFFFFFFFFFFFFFFFFFFFFFFF AND PUSH20 0xFFFFFFFFFFFFFFFFFFFFFFFFFFFFFFFFFFFFFFFF AND DUP2 MSTORE PUSH1 0x20 ADD SWAP1 DUP2 MSTORE PUSH1 0x20 ADD PUSH1 0x0 KECCAK256 PUSH1 0x0 SWAP1 SLOAD SWAP1 PUSH2 0x100 EXP SWAP1 DIV PUSH1 0xFF AND ISZERO JUMPDEST ISZERO PUSH2 0x3581 JUMPI PUSH2 0x357C DUP5 DUP5 DUP5 PUSH2 0x4060 JUMP JUMPDEST PUSH2 0x37B8 JUMP JUMPDEST PUSH1 0x7 PUSH1 0x0 DUP6 PUSH20 0xFFFFFFFFFFFFFFFFFFFFFFFFFFFFFFFFFFFFFFFF AND PUSH20 0xFFFFFFFFFFFFFFFFFFFFFFFFFFFFFFFFFFFFFFFF AND DUP2 MSTORE PUSH1 0x20 ADD SWAP1 DUP2 MSTORE PUSH1 0x20 ADD PUSH1 0x0 KECCAK256 PUSH1 0x0 SWAP1 SLOAD SWAP1 PUSH2 0x100 EXP SWAP1 DIV PUSH1 0xFF AND ISZERO DUP1 ISZERO PUSH2 0x3624 JUMPI POP PUSH1 0x7 PUSH1 0x0 DUP5 PUSH20 0xFFFFFFFFFFFFFFFFFFFFFFFFFFFFFFFFFFFFFFFF AND PUSH20 0xFFFFFFFFFFFFFFFFFFFFFFFFFFFFFFFFFFFFFFFF AND DUP2 MSTORE PUSH1 0x20 ADD SWAP1 DUP2 MSTORE PUSH1 0x20 ADD PUSH1 0x0 KECCAK256 PUSH1 0x0 SWAP1 SLOAD SWAP1 PUSH2 0x100 EXP SWAP1 DIV PUSH1 0xFF AND JUMPDEST ISZERO PUSH2 0x3639 JUMPI PUSH2 0x3634 DUP5 DUP5 DUP5 PUSH2 0x42C0 JUMP JUMPDEST PUSH2 0x37B7 JUMP JUMPDEST PUSH1 0x7 PUSH1 0x0 DUP6 PUSH20 0xFFFFFFFFFFFFFFFFFFFFFFFFFFFFFFFFFFFFFFFF AND PUSH20 0xFFFFFFFFFFFFFFFFFFFFFFFFFFFFFFFFFFFFFFFF AND DUP2 MSTORE PUSH1 0x20 ADD SWAP1 DUP2 MSTORE PUSH1 0x20 ADD PUSH1 0x0 KECCAK256 PUSH1 0x0 SWAP1 SLOAD SWAP1 PUSH2 0x100 EXP SWAP1 DIV PUSH1 0xFF AND ISZERO DUP1 ISZERO PUSH2 0x36DD JUMPI POP PUSH1 0x7 PUSH1 0x0 DUP5 PUSH20 0xFFFFFFFFFFFFFFFFFFFFFFFFFFFFFFFFFFFFFFFF AND PUSH20 0xFFFFFFFFFFFFFFFFFFFFFFFFFFFFFFFFFFFFFFFF AND DUP2 MSTORE PUSH1 0x20 ADD SWAP1 DUP2 MSTORE PUSH1 0x20 ADD PUSH1 0x0 KECCAK256 PUSH1 0x0 SWAP1 SLOAD SWAP1 PUSH2 0x100 EXP SWAP1 DIV PUSH1 0xFF AND ISZERO JUMPDEST ISZERO PUSH2 0x36F2 JUMPI PUSH2 0x36ED DUP5 DUP5 DUP5 PUSH2 0x4520 JUMP JUMPDEST PUSH2 0x37B6 JUMP JUMPDEST PUSH1 0x7 PUSH1 0x0 DUP6 PUSH20 0xFFFFFFFFFFFFFFFFFFFFFFFFFFFFFFFFFFFFFFFF AND PUSH20 0xFFFFFFFFFFFFFFFFFFFFFFFFFFFFFFFFFFFFFFFF AND DUP2 MSTORE PUSH1 0x20 ADD SWAP1 DUP2 MSTORE PUSH1 0x20 ADD PUSH1 0x0 KECCAK256 PUSH1 0x0 SWAP1 SLOAD SWAP1 PUSH2 0x100 EXP SWAP1 DIV PUSH1 0xFF AND DUP1 ISZERO PUSH2 0x3794 JUMPI POP PUSH1 0x7 PUSH1 0x0 DUP5 PUSH20 0xFFFFFFFFFFFFFFFFFFFFFFFFFFFFFFFFFFFFFFFF AND PUSH20 0xFFFFFFFFFFFFFFFFFFFFFFFFFFFFFFFFFFFFFFFF AND DUP2 MSTORE PUSH1 0x20 ADD SWAP1 DUP2 MSTORE PUSH1 0x20 ADD PUSH1 0x0 KECCAK256 PUSH1 0x0 SWAP1 SLOAD SWAP1 PUSH2 0x100 EXP SWAP1 DIV PUSH1 0xFF AND JUMPDEST ISZERO PUSH2 0x37A9 JUMPI PUSH2 0x37A4 DUP5 DUP5 DUP5 PUSH2 0x46EB JUMP JUMPDEST PUSH2 0x37B5 JUMP JUMPDEST PUSH2 0x37B4 DUP5 DUP5 DUP5 PUSH2 0x4520 JUMP JUMPDEST JUMPDEST JUMPDEST JUMPDEST JUMPDEST DUP1 PUSH2 0x37C6 JUMPI PUSH2 0x37C5 PUSH2 0x49E0 JUMP JUMPDEST JUMPDEST POP POP POP POP JUMP JUMPDEST PUSH1 0x0 DUP1 PUSH1 0x0 PUSH1 0x9 SLOAD SWAP1 POP PUSH1 0x0 PUSH8 0xDE0B6B3A7640000 SWAP1 POP PUSH1 0x0 JUMPDEST PUSH1 0x8 DUP1 SLOAD SWAP1 POP DUP2 LT ISZERO PUSH2 0x3A2C JUMPI DUP3 PUSH1 0x3 PUSH1 0x0 PUSH1 0x8 DUP5 DUP2 SLOAD DUP2 LT PUSH2 0x3805 JUMPI INVALID JUMPDEST SWAP1 PUSH1 0x0 MSTORE PUSH1 0x20 PUSH1 0x0 KECCAK256 ADD PUSH1 0x0 SWAP1 SLOAD SWAP1 PUSH2 0x100 EXP SWAP1 DIV PUSH20 0xFFFFFFFFFFFFFFFFFFFFFFFFFFFFFFFFFFFFFFFF AND PUSH20 0xFFFFFFFFFFFFFFFFFFFFFFFFFFFFFFFFFFFFFFFF AND PUSH20 0xFFFFFFFFFFFFFFFFFFFFFFFFFFFFFFFFFFFFFFFF AND DUP2 MSTORE PUSH1 0x20 ADD SWAP1 DUP2 MSTORE PUSH1 0x20 ADD PUSH1 0x0 KECCAK256 SLOAD GT DUP1 PUSH2 0x38EC JUMPI POP DUP2 PUSH1 0x4 PUSH1 0x0 PUSH1 0x8 DUP5 DUP2 SLOAD DUP2 LT PUSH2 0x3884 JUMPI INVALID JUMPDEST SWAP1 PUSH1 0x0 MSTORE PUSH1 0x20 PUSH1 0x0 KECCAK256 ADD PUSH1 0x0 SWAP1 SLOAD SWAP1 PUSH2 0x100 EXP SWAP1 DIV PUSH20 0xFFFFFFFFFFFFFFFFFFFFFFFFFFFFFFFFFFFFFFFF AND PUSH20 0xFFFFFFFFFFFFFFFFFFFFFFFFFFFFFFFFFFFFFFFF AND PUSH20 0xFFFFFFFFFFFFFFFFFFFFFFFFFFFFFFFFFFFFFFFF AND DUP2 MSTORE PUSH1 0x20 ADD SWAP1 DUP2 MSTORE PUSH1 0x20 ADD PUSH1 0x0 KECCAK256 SLOAD GT JUMPDEST ISZERO PUSH2 0x3909 JUMPI PUSH1 0x9 SLOAD PUSH8 0xDE0B6B3A7640000 SWAP5 POP SWAP5 POP POP POP POP PUSH2 0x3A71 JUMP JUMPDEST PUSH2 0x3992 PUSH1 0x3 PUSH1 0x0 PUSH1 0x8 DUP5 DUP2 SLOAD DUP2 LT PUSH2 0x391D JUMPI INVALID JUMPDEST SWAP1 PUSH1 0x0 MSTORE PUSH1 0x20 PUSH1 0x0 KECCAK256 ADD PUSH1 0x0 SWAP1 SLOAD SWAP1 PUSH2 0x100 EXP SWAP1 DIV PUSH20 0xFFFFFFFFFFFFFFFFFFFFFFFFFFFFFFFFFFFFFFFF AND PUSH20 0xFFFFFFFFFFFFFFFFFFFFFFFFFFFFFFFFFFFFFFFF AND PUSH20 0xFFFFFFFFFFFFFFFFFFFFFFFFFFFFFFFFFFFFFFFF AND DUP2 MSTORE PUSH1 0x20 ADD SWAP1 DUP2 MSTORE PUSH1 0x20 ADD PUSH1 0x0 KECCAK256 SLOAD DUP5 PUSH2 0x3309 SWAP1 SWAP2 SWAP1 PUSH4 0xFFFFFFFF AND JUMP JUMPDEST SWAP3 POP PUSH2 0x3A1D PUSH1 0x4 PUSH1 0x0 PUSH1 0x8 DUP5 DUP2 SLOAD DUP2 LT PUSH2 0x39A8 JUMPI INVALID JUMPDEST SWAP1 PUSH1 0x0 MSTORE PUSH1 0x20 PUSH1 0x0 KECCAK256 ADD PUSH1 0x0 SWAP1 SLOAD SWAP1 PUSH2 0x100 EXP SWAP1 DIV PUSH20 0xFFFFFFFFFFFFFFFFFFFFFFFFFFFFFFFFFFFFFFFF AND PUSH20 0xFFFFFFFFFFFFFFFFFFFFFFFFFFFFFFFFFFFFFFFF AND PUSH20 0xFFFFFFFFFFFFFFFFFFFFFFFFFFFFFFFFFFFFFFFF AND DUP2 MSTORE PUSH1 0x20 ADD SWAP1 DUP2 MSTORE PUSH1 0x20 ADD PUSH1 0x0 KECCAK256 SLOAD DUP4 PUSH2 0x3309 SWAP1 SWAP2 SWAP1 PUSH4 0xFFFFFFFF AND JUMP JUMPDEST SWAP2 POP DUP1 DUP1 PUSH1 0x1 ADD SWAP2 POP POP PUSH2 0x37E6 JUMP JUMPDEST POP PUSH2 0x3A4A PUSH8 0xDE0B6B3A7640000 PUSH1 0x9 SLOAD PUSH2 0x31DB SWAP1 SWAP2 SWAP1 PUSH4 0xFFFFFFFF AND JUMP JUMPDEST DUP3 LT ISZERO PUSH2 0x3A68 JUMPI PUSH1 0x9 SLOAD PUSH8 0xDE0B6B3A7640000 SWAP4 POP SWAP4 POP POP POP PUSH2 0x3A71 JUMP JUMPDEST DUP2 DUP2 SWAP4 POP SWAP4 POP POP POP JUMPDEST SWAP1 SWAP2 JUMP JUMPDEST PUSH1 0x0 DUP1 DUP4 GT DUP3 SWAP1 PUSH2 0x3B21 JUMPI PUSH1 0x40 MLOAD PUSH32 0x8C379A000000000000000000000000000000000000000000000000000000000 DUP2 MSTORE PUSH1 0x4 ADD DUP1 DUP1 PUSH1 0x20 ADD DUP3 DUP2 SUB DUP3 MSTORE DUP4 DUP2 DUP2 MLOAD DUP2 MSTORE PUSH1 0x20 ADD SWAP2 POP DUP1 MLOAD SWAP1 PUSH1 0x20 ADD SWAP1 DUP1 DUP4 DUP4 PUSH1 0x0 JUMPDEST DUP4 DUP2 LT ISZERO PUSH2 0x3AE6 JUMPI DUP1 DUP3 ADD MLOAD DUP2 DUP5 ADD MSTORE PUSH1 0x20 DUP2 ADD SWAP1 POP PUSH2 0x3ACB JUMP JUMPDEST POP POP POP POP SWAP1 POP SWAP1 DUP2 ADD SWAP1 PUSH1 0x1F AND DUP1 ISZERO PUSH2 0x3B13 JUMPI DUP1 DUP3 SUB DUP1 MLOAD PUSH1 0x1 DUP4 PUSH1 0x20 SUB PUSH2 0x100 EXP SUB NOT AND DUP2 MSTORE PUSH1 0x20 ADD SWAP2 POP JUMPDEST POP SWAP3 POP POP POP PUSH1 0x40 MLOAD DUP1 SWAP2 SUB SWAP1 REVERT JUMPDEST POP PUSH1 0x0 DUP4 DUP6 DUP2 PUSH2 0x3B2D JUMPI INVALID JUMPDEST DIV SWAP1 POP DUP1 SWAP2 POP POP SWAP4 SWAP3 POP POP POP JUMP JUMPDEST PUSH1 0x0 DUP1 PUSH1 0x0 DUP1 PUSH2 0x3B4A DUP6 PUSH2 0x49F4 JUMP JUMPDEST SWAP1 POP PUSH1 0x0 PUSH2 0x3B57 DUP7 PUSH2 0x4A25 JUMP JUMPDEST SWAP1 POP PUSH1 0x0 PUSH2 0x3B80 DUP3 PUSH2 0x3B72 DUP6 DUP11 PUSH2 0x3309 SWAP1 SWAP2 SWAP1 PUSH4 0xFFFFFFFF AND JUMP JUMPDEST PUSH2 0x3309 SWAP1 SWAP2 SWAP1 PUSH4 0xFFFFFFFF AND JUMP JUMPDEST SWAP1 POP DUP1 DUP4 DUP4 SWAP6 POP SWAP6 POP SWAP6 POP POP POP POP SWAP2 SWAP4 SWAP1 SWAP3 POP JUMP JUMPDEST PUSH1 0x0 DUP1 PUSH1 0x0 DUP1 PUSH2 0x3BAE DUP6 DUP10 PUSH2 0x3353 SWAP1 SWAP2 SWAP1 PUSH4 0xFFFFFFFF AND JUMP JUMPDEST SWAP1 POP PUSH1 0x0 PUSH2 0x3BC5 DUP7 DUP10 PUSH2 0x3353 SWAP1 SWAP2 SWAP1 PUSH4 0xFFFFFFFF AND JUMP JUMPDEST SWAP1 POP PUSH1 0x0 PUSH2 0x3BDC DUP8 DUP10 PUSH2 0x3353 SWAP1 SWAP2 SWAP1 PUSH4 0xFFFFFFFF AND JUMP JUMPDEST SWAP1 POP PUSH1 0x0 PUSH2 0x3C05 DUP3 PUSH2 0x3BF7 DUP6 DUP8 PUSH2 0x3309 SWAP1 SWAP2 SWAP1 PUSH4 0xFFFFFFFF AND JUMP JUMPDEST PUSH2 0x3309 SWAP1 SWAP2 SWAP1 PUSH4 0xFFFFFFFF AND JUMP JUMPDEST SWAP1 POP DUP4 DUP2 DUP5 SWAP7 POP SWAP7 POP SWAP7 POP POP POP POP POP SWAP5 POP SWAP5 POP SWAP5 SWAP2 POP POP JUMP JUMPDEST PUSH1 0x60 PUSH1 0x2 PUSH8 0xFFFFFFFFFFFFFFFF DUP2 GT DUP1 ISZERO PUSH2 0x3C38 JUMPI PUSH1 0x0 DUP1 REVERT JUMPDEST POP PUSH1 0x40 MLOAD SWAP1 DUP1 DUP3 MSTORE DUP1 PUSH1 0x20 MUL PUSH1 0x20 ADD DUP3 ADD PUSH1 0x40 MSTORE DUP1 ISZERO PUSH2 0x3C67 JUMPI DUP2 PUSH1 0x20 ADD PUSH1 0x20 DUP3 MUL DUP1 CALLDATASIZE DUP4 CALLDATACOPY DUP1 DUP3 ADD SWAP2 POP POP SWAP1 POP JUMPDEST POP SWAP1 POP ADDRESS DUP2 PUSH1 0x0 DUP2 MLOAD DUP2 LT PUSH2 0x3C78 JUMPI INVALID JUMPDEST PUSH1 0x20 MUL PUSH1 0x20 ADD ADD SWAP1 PUSH20 0xFFFFFFFFFFFFFFFFFFFFFFFFFFFFFFFFFFFFFFFF AND SWAP1 DUP2 PUSH20 0xFFFFFFFFFFFFFFFFFFFFFFFFFFFFFFFFFFFFFFFF AND DUP2 MSTORE POP POP PUSH32 0x0 PUSH20 0xFFFFFFFFFFFFFFFFFFFFFFFFFFFFFFFFFFFFFFFF AND PUSH4 0xAD5C4648 PUSH1 0x40 MLOAD DUP2 PUSH4 0xFFFFFFFF AND PUSH1 0xE0 SHL DUP2 MSTORE PUSH1 0x4 ADD PUSH1 0x20 PUSH1 0x40 MLOAD DUP1 DUP4 SUB DUP2 DUP7 DUP1 EXTCODESIZE ISZERO DUP1 ISZERO PUSH2 0x3D18 JUMPI PUSH1 0x0 DUP1 REVERT JUMPDEST POP GAS STATICCALL ISZERO DUP1 ISZERO PUSH2 0x3D2C JUMPI RETURNDATASIZE PUSH1 0x0 DUP1 RETURNDATACOPY RETURNDATASIZE PUSH1 0x0 REVERT JUMPDEST POP POP POP POP PUSH1 0x40 MLOAD RETURNDATASIZE PUSH1 0x20 DUP2 LT ISZERO PUSH2 0x3D42 JUMPI PUSH1 0x0 DUP1 REVERT JUMPDEST DUP2 ADD SWAP1 DUP1 DUP1 MLOAD SWAP1 PUSH1 0x20 ADD SWAP1 SWAP3 SWAP2 SWAP1 POP POP POP DUP2 PUSH1 0x1 DUP2 MLOAD DUP2 LT PUSH2 0x3D60 JUMPI INVALID JUMPDEST PUSH1 0x20 MUL PUSH1 0x20 ADD ADD SWAP1 PUSH20 0xFFFFFFFFFFFFFFFFFFFFFFFFFFFFFFFFFFFFFFFF AND SWAP1 DUP2 PUSH20 0xFFFFFFFFFFFFFFFFFFFFFFFFFFFFFFFFFFFFFFFF AND DUP2 MSTORE POP POP PUSH2 0x3DC5 ADDRESS PUSH32 0x0 DUP5 PUSH2 0x2B34 JUMP JUMPDEST PUSH32 0x0 PUSH20 0xFFFFFFFFFFFFFFFFFFFFFFFFFFFFFFFFFFFFFFFF AND PUSH4 0x791AC947 DUP4 PUSH1 0x0 DUP5 ADDRESS TIMESTAMP PUSH1 0x40 MLOAD DUP7 PUSH4 0xFFFFFFFF AND PUSH1 0xE0 SHL DUP2 MSTORE PUSH1 0x4 ADD DUP1 DUP7 DUP2 MSTORE PUSH1 0x20 ADD DUP6 DUP2 MSTORE PUSH1 0x20 ADD DUP1 PUSH1 0x20 ADD DUP5 PUSH20 0xFFFFFFFFFFFFFFFFFFFFFFFFFFFFFFFFFFFFFFFF AND DUP2 MSTORE PUSH1 0x20 ADD DUP4 DUP2 MSTORE PUSH1 0x20 ADD DUP3 DUP2 SUB DUP3 MSTORE DUP6 DUP2 DUP2 MLOAD DUP2 MSTORE PUSH1 0x20 ADD SWAP2 POP DUP1 MLOAD SWAP1 PUSH1 0x20 ADD SWAP1 PUSH1 0x20 MUL DUP1 DUP4 DUP4 PUSH1 0x0 JUMPDEST DUP4 DUP2 LT ISZERO PUSH2 0x3E87 JUMPI DUP1 DUP3 ADD MLOAD DUP2 DUP5 ADD MSTORE PUSH1 0x20 DUP2 ADD SWAP1 POP PUSH2 0x3E6C JUMP JUMPDEST POP POP POP POP SWAP1 POP ADD SWAP7 POP POP POP POP POP POP POP PUSH1 0x0 PUSH1 0x40 MLOAD DUP1 DUP4 SUB DUP2 PUSH1 0x0 DUP8 DUP1 EXTCODESIZE ISZERO DUP1 ISZERO PUSH2 0x3EB0 JUMPI PUSH1 0x0 DUP1 REVERT JUMPDEST POP GAS CALL ISZERO DUP1 ISZERO PUSH2 0x3EC4 JUMPI RETURNDATASIZE PUSH1 0x0 DUP1 RETURNDATACOPY RETURNDATASIZE PUSH1 0x0 REVERT JUMPDEST POP POP POP POP POP POP JUMP JUMPDEST PUSH2 0x3EF7 ADDRESS PUSH32 0x0 DUP5 PUSH2 0x2B34 JUMP JUMPDEST PUSH32 0x0 PUSH20 0xFFFFFFFFFFFFFFFFFFFFFFFFFFFFFFFFFFFFFFFF AND PUSH4 0xF305D719 DUP3 ADDRESS DUP6 PUSH1 0x0 DUP1 PUSH2 0x3F41 PUSH2 0x1EBA JUMP JUMPDEST TIMESTAMP PUSH1 0x40 MLOAD DUP9 PUSH4 0xFFFFFFFF AND PUSH1 0xE0 SHL DUP2 MSTORE PUSH1 0x4 ADD DUP1 DUP8 PUSH20 0xFFFFFFFFFFFFFFFFFFFFFFFFFFFFFFFFFFFFFFFF AND DUP2 MSTORE PUSH1 0x20 ADD DUP7 DUP2 MSTORE PUSH1 0x20 ADD DUP6 DUP2 MSTORE PUSH1 0x20 ADD DUP5 DUP2 MSTORE PUSH1 0x20 ADD DUP4 PUSH20 0xFFFFFFFFFFFFFFFFFFFFFFFFFFFFFFFFFFFFFFFF AND DUP2 MSTORE PUSH1 0x20 ADD DUP3 DUP2 MSTORE PUSH1 0x20 ADD SWAP7 POP POP POP POP POP POP POP PUSH1 0x60 PUSH1 0x40 MLOAD DUP1 DUP4 SUB DUP2 DUP6 DUP9 DUP1 EXTCODESIZE ISZERO DUP1 ISZERO PUSH2 0x3FC6 JUMPI PUSH1 0x0 DUP1 REVERT JUMPDEST POP GAS CALL ISZERO DUP1 ISZERO PUSH2 0x3FDA JUMPI RETURNDATASIZE PUSH1 0x0 DUP1 RETURNDATACOPY RETURNDATASIZE PUSH1 0x0 REVERT JUMPDEST POP POP POP POP POP PUSH1 0x40 MLOAD RETURNDATASIZE PUSH1 0x60 DUP2 LT ISZERO PUSH2 0x3FF1 JUMPI PUSH1 0x0 DUP1 REVERT JUMPDEST DUP2 ADD SWAP1 DUP1 DUP1 MLOAD SWAP1 PUSH1 0x20 ADD SWAP1 SWAP3 SWAP2 SWAP1 DUP1 MLOAD SWAP1 PUSH1 0x20 ADD SWAP1 SWAP3 SWAP2 SWAP1 DUP1 MLOAD SWAP1 PUSH1 0x20 ADD SWAP1 SWAP3 SWAP2 SWAP1 POP POP POP POP POP POP POP POP JUMP JUMPDEST PUSH1 0x0 PUSH1 0xE SLOAD EQ DUP1 ISZERO PUSH2 0x4031 JUMPI POP PUSH1 0x0 PUSH1 0x10 SLOAD EQ JUMPDEST ISZERO PUSH2 0x403B JUMPI PUSH2 0x405E JUMP JUMPDEST PUSH1 0xE SLOAD PUSH1 0xF DUP2 SWAP1 SSTORE POP PUSH1 0x10 SLOAD PUSH1 0x11 DUP2 SWAP1 SSTORE POP PUSH1 0x0 PUSH1 0xE DUP2 SWAP1 SSTORE POP PUSH1 0x0 PUSH1 0x10 DUP2 SWAP1 SSTORE POP JUMPDEST JUMP JUMPDEST PUSH1 0x0 DUP1 PUSH1 0x0 DUP1 PUSH1 0x0 DUP1 PUSH2 0x4072 DUP8 PUSH2 0x32AD JUMP JUMPDEST SWAP6 POP SWAP6 POP SWAP6 POP SWAP6 POP SWAP6 POP SWAP6 POP PUSH2 0x40D0 DUP8 PUSH1 0x4 PUSH1 0x0 DUP13 PUSH20 0xFFFFFFFFFFFFFFFFFFFFFFFFFFFFFFFFFFFFFFFF AND PUSH20 0xFFFFFFFFFFFFFFFFFFFFFFFFFFFFFFFFFFFFFFFF AND DUP2 MSTORE PUSH1 0x20 ADD SWAP1 DUP2 MSTORE PUSH1 0x20 ADD PUSH1 0x0 KECCAK256 SLOAD PUSH2 0x3309 SWAP1 SWAP2 SWAP1 PUSH4 0xFFFFFFFF AND JUMP JUMPDEST PUSH1 0x4 PUSH1 0x0 DUP12 PUSH20 0xFFFFFFFFFFFFFFFFFFFFFFFFFFFFFFFFFFFFFFFF AND PUSH20 0xFFFFFFFFFFFFFFFFFFFFFFFFFFFFFFFFFFFFFFFF AND DUP2 MSTORE PUSH1 0x20 ADD SWAP1 DUP2 MSTORE PUSH1 0x20 ADD PUSH1 0x0 KECCAK256 DUP2 SWAP1 SSTORE POP PUSH2 0x4165 DUP7 PUSH1 0x3 PUSH1 0x0 DUP13 PUSH20 0xFFFFFFFFFFFFFFFFFFFFFFFFFFFFFFFFFFFFFFFF AND PUSH20 0xFFFFFFFFFFFFFFFFFFFFFFFFFFFFFFFFFFFFFFFF AND DUP2 MSTORE PUSH1 0x20 ADD SWAP1 DUP2 MSTORE PUSH1 0x20 ADD PUSH1 0x0 KECCAK256 SLOAD PUSH2 0x3309 SWAP1 SWAP2 SWAP1 PUSH4 0xFFFFFFFF AND JUMP JUMPDEST PUSH1 0x3 PUSH1 0x0 DUP12 PUSH20 0xFFFFFFFFFFFFFFFFFFFFFFFFFFFFFFFFFFFFFFFF AND PUSH20 0xFFFFFFFFFFFFFFFFFFFFFFFFFFFFFFFFFFFFFFFF AND DUP2 MSTORE PUSH1 0x20 ADD SWAP1 DUP2 MSTORE PUSH1 0x20 ADD PUSH1 0x0 KECCAK256 DUP2 SWAP1 SSTORE POP PUSH2 0x41FA DUP6 PUSH1 0x3 PUSH1 0x0 DUP12 PUSH20 0xFFFFFFFFFFFFFFFFFFFFFFFFFFFFFFFFFFFFFFFF AND PUSH20 0xFFFFFFFFFFFFFFFFFFFFFFFFFFFFFFFFFFFFFFFF AND DUP2 MSTORE PUSH1 0x20 ADD SWAP1 DUP2 MSTORE PUSH1 0x20 ADD PUSH1 0x0 KECCAK256 SLOAD PUSH2 0x3225 SWAP1 SWAP2 SWAP1 PUSH4 0xFFFFFFFF AND JUMP JUMPDEST PUSH1 0x3 PUSH1 0x0 DUP11 PUSH20 0xFFFFFFFFFFFFFFFFFFFFFFFFFFFFFFFFFFFFFFFF AND PUSH20 0xFFFFFFFFFFFFFFFFFFFFFFFFFFFFFFFFFFFFFFFF AND DUP2 MSTORE PUSH1 0x20 ADD SWAP1 DUP2 MSTORE PUSH1 0x20 ADD PUSH1 0x0 KECCAK256 DUP2 SWAP1 SSTORE POP PUSH2 0x4246 DUP2 PUSH2 0x4A56 JUMP JUMPDEST PUSH2 0x4250 DUP5 DUP4 PUSH2 0x4BFB JUMP JUMPDEST DUP8 PUSH20 0xFFFFFFFFFFFFFFFFFFFFFFFFFFFFFFFFFFFFFFFF AND DUP10 PUSH20 0xFFFFFFFFFFFFFFFFFFFFFFFFFFFFFFFFFFFFFFFF AND PUSH32 0xDDF252AD1BE2C89B69C2B068FC378DAA952BA7F163C4A11628F55A4DF523B3EF DUP6 PUSH1 0x40 MLOAD DUP1 DUP3 DUP2 MSTORE PUSH1 0x20 ADD SWAP2 POP POP PUSH1 0x40 MLOAD DUP1 SWAP2 SUB SWAP1 LOG3 POP POP POP POP POP POP POP POP POP JUMP JUMPDEST PUSH1 0x0 DUP1 PUSH1 0x0 DUP1 PUSH1 0x0 DUP1 PUSH2 0x42D2 DUP8 PUSH2 0x32AD JUMP JUMPDEST SWAP6 POP SWAP6 POP SWAP6 POP SWAP6 POP SWAP6 POP SWAP6 POP PUSH2 0x4330 DUP7 PUSH1 0x3 PUSH1 0x0 DUP13 PUSH20 0xFFFFFFFFFFFFFFFFFFFFFFFFFFFFFFFFFFFFFFFF AND PUSH20 0xFFFFFFFFFFFFFFFFFFFFFFFFFFFFFFFFFFFFFFFF AND DUP2 MSTORE PUSH1 0x20 ADD SWAP1 DUP2 MSTORE PUSH1 0x20 ADD PUSH1 0x0 KECCAK256 SLOAD PUSH2 0x3309 SWAP1 SWAP2 SWAP1 PUSH4 0xFFFFFFFF AND JUMP JUMPDEST PUSH1 0x3 PUSH1 0x0 DUP12 PUSH20 0xFFFFFFFFFFFFFFFFFFFFFFFFFFFFFFFFFFFFFFFF AND PUSH20 0xFFFFFFFFFFFFFFFFFFFFFFFFFFFFFFFFFFFFFFFF AND DUP2 MSTORE PUSH1 0x20 ADD SWAP1 DUP2 MSTORE PUSH1 0x20 ADD PUSH1 0x0 KECCAK256 DUP2 SWAP1 SSTORE POP PUSH2 0x43C5 DUP4 PUSH1 0x4 PUSH1 0x0 DUP12 PUSH20 0xFFFFFFFFFFFFFFFFFFFFFFFFFFFFFFFFFFFFFFFF AND PUSH20 0xFFFFFFFFFFFFFFFFFFFFFFFFFFFFFFFFFFFFFFFF AND DUP2 MSTORE PUSH1 0x20 ADD SWAP1 DUP2 MSTORE PUSH1 0x20 ADD PUSH1 0x0 KECCAK256 SLOAD PUSH2 0x3225 SWAP1 SWAP2 SWAP1 PUSH4 0xFFFFFFFF AND JUMP JUMPDEST PUSH1 0x4 PUSH1 0x0 DUP11 PUSH20 0xFFFFFFFFFFFFFFFFFFFFFFFFFFFFFFFFFFFFFFFF AND PUSH20 0xFFFFFFFFFFFFFFFFFFFFFFFFFFFFFFFFFFFFFFFF AND DUP2 MSTORE PUSH1 0x20 ADD SWAP1 DUP2 MSTORE PUSH1 0x20 ADD PUSH1 0x0 KECCAK256 DUP2 SWAP1 SSTORE POP PUSH2 0x445A DUP6 PUSH1 0x3 PUSH1 0x0 DUP12 PUSH20 0xFFFFFFFFFFFFFFFFFFFFFFFFFFFFFFFFFFFFFFFF AND PUSH20 0xFFFFFFFFFFFFFFFFFFFFFFFFFFFFFFFFFFFFFFFF AND DUP2 MSTORE PUSH1 0x20 ADD SWAP1 DUP2 MSTORE PUSH1 0x20 ADD PUSH1 0x0 KECCAK256 SLOAD PUSH2 0x3225 SWAP1 SWAP2 SWAP1 PUSH4 0xFFFFFFFF AND JUMP JUMPDEST PUSH1 0x3 PUSH1 0x0 DUP11 PUSH20 0xFFFFFFFFFFFFFFFFFFFFFFFFFFFFFFFFFFFFFFFF AND PUSH20 0xFFFFFFFFFFFFFFFFFFFFFFFFFFFFFFFFFFFFFFFF AND DUP2 MSTORE PUSH1 0x20 ADD SWAP1 DUP2 MSTORE PUSH1 0x20 ADD PUSH1 0x0 KECCAK256 DUP2 SWAP1 SSTORE POP PUSH2 0x44A6 DUP2 PUSH2 0x4A56 JUMP JUMPDEST PUSH2 0x44B0 DUP5 DUP4 PUSH2 0x4BFB JUMP JUMPDEST DUP8 PUSH20 0xFFFFFFFFFFFFFFFFFFFFFFFFFFFFFFFFFFFFFFFF AND DUP10 PUSH20 0xFFFFFFFFFFFFFFFFFFFFFFFFFFFFFFFFFFFFFFFF AND PUSH32 0xDDF252AD1BE2C89B69C2B068FC378DAA952BA7F163C4A11628F55A4DF523B3EF DUP6 PUSH1 0x40 MLOAD DUP1 DUP3 DUP2 MSTORE PUSH1 0x20 ADD SWAP2 POP POP PUSH1 0x40 MLOAD DUP1 SWAP2 SUB SWAP1 LOG3 POP POP POP POP POP POP POP POP POP JUMP JUMPDEST PUSH1 0x0 DUP1 PUSH1 0x0 DUP1 PUSH1 0x0 DUP1 PUSH2 0x4532 DUP8 PUSH2 0x32AD JUMP JUMPDEST SWAP6 POP SWAP6 POP SWAP6 POP SWAP6 POP SWAP6 POP SWAP6 POP PUSH2 0x4590 DUP7 PUSH1 0x3 PUSH1 0x0 DUP13 PUSH20 0xFFFFFFFFFFFFFFFFFFFFFFFFFFFFFFFFFFFFFFFF AND PUSH20 0xFFFFFFFFFFFFFFFFFFFFFFFFFFFFFFFFFFFFFFFF AND DUP2 MSTORE PUSH1 0x20 ADD SWAP1 DUP2 MSTORE PUSH1 0x20 ADD PUSH1 0x0 KECCAK256 SLOAD PUSH2 0x3309 SWAP1 SWAP2 SWAP1 PUSH4 0xFFFFFFFF AND JUMP JUMPDEST PUSH1 0x3 PUSH1 0x0 DUP12 PUSH20 0xFFFFFFFFFFFFFFFFFFFFFFFFFFFFFFFFFFFFFFFF AND PUSH20 0xFFFFFFFFFFFFFFFFFFFFFFFFFFFFFFFFFFFFFFFF AND DUP2 MSTORE PUSH1 0x20 ADD SWAP1 DUP2 MSTORE PUSH1 0x20 ADD PUSH1 0x0 KECCAK256 DUP2 SWAP1 SSTORE POP PUSH2 0x4625 DUP6 PUSH1 0x3 PUSH1 0x0 DUP12 PUSH20 0xFFFFFFFFFFFFFFFFFFFFFFFFFFFFFFFFFFFFFFFF AND PUSH20 0xFFFFFFFFFFFFFFFFFFFFFFFFFFFFFFFFFFFFFFFF AND DUP2 MSTORE PUSH1 0x20 ADD SWAP1 DUP2 MSTORE PUSH1 0x20 ADD PUSH1 0x0 KECCAK256 SLOAD PUSH2 0x3225 SWAP1 SWAP2 SWAP1 PUSH4 0xFFFFFFFF AND JUMP JUMPDEST PUSH1 0x3 PUSH1 0x0 DUP11 PUSH20 0xFFFFFFFFFFFFFFFFFFFFFFFFFFFFFFFFFFFFFFFF AND PUSH20 0xFFFFFFFFFFFFFFFFFFFFFFFFFFFFFFFFFFFFFFFF AND DUP2 MSTORE PUSH1 0x20 ADD SWAP1 DUP2 MSTORE PUSH1 0x20 ADD PUSH1 0x0 KECCAK256 DUP2 SWAP1 SSTORE POP PUSH2 0x4671 DUP2 PUSH2 0x4A56 JUMP JUMPDEST PUSH2 0x467B DUP5 DUP4 PUSH2 0x4BFB JUMP JUMPDEST DUP8 PUSH20 0xFFFFFFFFFFFFFFFFFFFFFFFFFFFFFFFFFFFFFFFF AND DUP10 PUSH20 0xFFFFFFFFFFFFFFFFFFFFFFFFFFFFFFFFFFFFFFFF AND PUSH32 0xDDF252AD1BE2C89B69C2B068FC378DAA952BA7F163C4A11628F55A4DF523B3EF DUP6 PUSH1 0x40 MLOAD DUP1 DUP3 DUP2 MSTORE PUSH1 0x20 ADD SWAP2 POP POP PUSH1 0x40 MLOAD DUP1 SWAP2 SUB SWAP1 LOG3 POP POP POP POP POP POP POP POP POP JUMP JUMPDEST PUSH1 0x0 DUP1 PUSH1 0x0 DUP1 PUSH1 0x0 DUP1 PUSH2 0x46FD DUP8 PUSH2 0x32AD JUMP JUMPDEST SWAP6 POP SWAP6 POP SWAP6 POP SWAP6 POP SWAP6 POP SWAP6 POP PUSH2 0x475B DUP8 PUSH1 0x4 PUSH1 0x0 DUP13 PUSH20 0xFFFFFFFFFFFFFFFFFFFFFFFFFFFFFFFFFFFFFFFF AND PUSH20 0xFFFFFFFFFFFFFFFFFFFFFFFFFFFFFFFFFFFFFFFF AND DUP2 MSTORE PUSH1 0x20 ADD SWAP1 DUP2 MSTORE PUSH1 0x20 ADD PUSH1 0x0 KECCAK256 SLOAD PUSH2 0x3309 SWAP1 SWAP2 SWAP1 PUSH4 0xFFFFFFFF AND JUMP JUMPDEST PUSH1 0x4 PUSH1 0x0 DUP12 PUSH20 0xFFFFFFFFFFFFFFFFFFFFFFFFFFFFFFFFFFFFFFFF AND PUSH20 0xFFFFFFFFFFFFFFFFFFFFFFFFFFFFFFFFFFFFFFFF AND DUP2 MSTORE PUSH1 0x20 ADD SWAP1 DUP2 MSTORE PUSH1 0x20 ADD PUSH1 0x0 KECCAK256 DUP2 SWAP1 SSTORE POP PUSH2 0x47F0 DUP7 PUSH1 0x3 PUSH1 0x0 DUP13 PUSH20 0xFFFFFFFFFFFFFFFFFFFFFFFFFFFFFFFFFFFFFFFF AND PUSH20 0xFFFFFFFFFFFFFFFFFFFFFFFFFFFFFFFFFFFFFFFF AND DUP2 MSTORE PUSH1 0x20 ADD SWAP1 DUP2 MSTORE PUSH1 0x20 ADD PUSH1 0x0 KECCAK256 SLOAD PUSH2 0x3309 SWAP1 SWAP2 SWAP1 PUSH4 0xFFFFFFFF AND JUMP JUMPDEST PUSH1 0x3 PUSH1 0x0 DUP12 PUSH20 0xFFFFFFFFFFFFFFFFFFFFFFFFFFFFFFFFFFFFFFFF AND PUSH20 0xFFFFFFFFFFFFFFFFFFFFFFFFFFFFFFFFFFFFFFFF AND DUP2 MSTORE PUSH1 0x20 ADD SWAP1 DUP2 MSTORE PUSH1 0x20 ADD PUSH1 0x0 KECCAK256 DUP2 SWAP1 SSTORE POP PUSH2 0x4885 DUP4 PUSH1 0x4 PUSH1 0x0 DUP12 PUSH20 0xFFFFFFFFFFFFFFFFFFFFFFFFFFFFFFFFFFFFFFFF AND PUSH20 0xFFFFFFFFFFFFFFFFFFFFFFFFFFFFFFFFFFFFFFFF AND DUP2 MSTORE PUSH1 0x20 ADD SWAP1 DUP2 MSTORE PUSH1 0x20 ADD PUSH1 0x0 KECCAK256 SLOAD PUSH2 0x3225 SWAP1 SWAP2 SWAP1 PUSH4 0xFFFFFFFF AND JUMP JUMPDEST PUSH1 0x4 PUSH1 0x0 DUP11 PUSH20 0xFFFFFFFFFFFFFFFFFFFFFFFFFFFFFFFFFFFFFFFF AND PUSH20 0xFFFFFFFFFFFFFFFFFFFFFFFFFFFFFFFFFFFFFFFF AND DUP2 MSTORE PUSH1 0x20 ADD SWAP1 DUP2 MSTORE PUSH1 0x20 ADD PUSH1 0x0 KECCAK256 DUP2 SWAP1 SSTORE POP PUSH2 0x491A DUP6 PUSH1 0x3 PUSH1 0x0 DUP12 PUSH20 0xFFFFFFFFFFFFFFFFFFFFFFFFFFFFFFFFFFFFFFFF AND PUSH20 0xFFFFFFFFFFFFFFFFFFFFFFFFFFFFFFFFFFFFFFFF AND DUP2 MSTORE PUSH1 0x20 ADD SWAP1 DUP2 MSTORE PUSH1 0x20 ADD PUSH1 0x0 KECCAK256 SLOAD PUSH2 0x3225 SWAP1 SWAP2 SWAP1 PUSH4 0xFFFFFFFF AND JUMP JUMPDEST PUSH1 0x3 PUSH1 0x0 DUP11 PUSH20 0xFFFFFFFFFFFFFFFFFFFFFFFFFFFFFFFFFFFFFFFF AND PUSH20 0xFFFFFFFFFFFFFFFFFFFFFFFFFFFFFFFFFFFFFFFF AND DUP2 MSTORE PUSH1 0x20 ADD SWAP1 DUP2 MSTORE PUSH1 0x20 ADD PUSH1 0x0 KECCAK256 DUP2 SWAP1 SSTORE POP PUSH2 0x4966 DUP2 PUSH2 0x4A56 JUMP JUMPDEST PUSH2 0x4970 DUP5 DUP4 PUSH2 0x4BFB JUMP JUMPDEST DUP8 PUSH20 0xFFFFFFFFFFFFFFFFFFFFFFFFFFFFFFFFFFFFFFFF AND DUP10 PUSH20 0xFFFFFFFFFFFFFFFFFFFFFFFFFFFFFFFFFFFFFFFF AND PUSH32 0xDDF252AD1BE2C89B69C2B068FC378DAA952BA7F163C4A11628F55A4DF523B3EF DUP6 PUSH1 0x40 MLOAD DUP1 DUP3 DUP2 MSTORE PUSH1 0x20 ADD SWAP2 POP POP PUSH1 0x40 MLOAD DUP1 SWAP2 SUB SWAP1 LOG3 POP POP POP POP POP POP POP POP POP JUMP JUMPDEST PUSH1 0xF SLOAD PUSH1 0xE DUP2 SWAP1 SSTORE POP PUSH1 0x11 SLOAD PUSH1 0x10 DUP2 SWAP1 SSTORE POP JUMP JUMPDEST PUSH1 0x0 PUSH2 0x4A1E PUSH1 0x64 PUSH2 0x4A10 PUSH1 0xE SLOAD DUP6 PUSH2 0x3353 SWAP1 SWAP2 SWAP1 PUSH4 0xFFFFFFFF AND JUMP JUMPDEST PUSH2 0x31DB SWAP1 SWAP2 SWAP1 PUSH4 0xFFFFFFFF AND JUMP JUMPDEST SWAP1 POP SWAP2 SWAP1 POP JUMP JUMPDEST PUSH1 0x0 PUSH2 0x4A4F PUSH1 0x64 PUSH2 0x4A41 PUSH1 0x10 SLOAD DUP6 PUSH2 0x3353 SWAP1 SWAP2 SWAP1 PUSH4 0xFFFFFFFF AND JUMP JUMPDEST PUSH2 0x31DB SWAP1 SWAP2 SWAP1 PUSH4 0xFFFFFFFF AND JUMP JUMPDEST SWAP1 POP SWAP2 SWAP1 POP JUMP JUMPDEST PUSH1 0x0 PUSH2 0x4A60 PUSH2 0x31B0 JUMP JUMPDEST SWAP1 POP PUSH1 0x0 PUSH2 0x4A77 DUP3 DUP5 PUSH2 0x3353 SWAP1 SWAP2 SWAP1 PUSH4 0xFFFFFFFF AND JUMP JUMPDEST SWAP1 POP PUSH2 0x4ACB DUP2 PUSH1 0x3 PUSH1 0x0 ADDRESS PUSH20 0xFFFFFFFFFFFFFFFFFFFFFFFFFFFFFFFFFFFFFFFF AND PUSH20 0xFFFFFFFFFFFFFFFFFFFFFFFFFFFFFFFFFFFFFFFF AND DUP2 MSTORE PUSH1 0x20 ADD SWAP1 DUP2 MSTORE PUSH1 0x20 ADD PUSH1 0x0 KECCAK256 SLOAD PUSH2 0x3225 SWAP1 SWAP2 SWAP1 PUSH4 0xFFFFFFFF AND JUMP JUMPDEST PUSH1 0x3 PUSH1 0x0 ADDRESS PUSH20 0xFFFFFFFFFFFFFFFFFFFFFFFFFFFFFFFFFFFFFFFF AND PUSH20 0xFFFFFFFFFFFFFFFFFFFFFFFFFFFFFFFFFFFFFFFF AND DUP2 MSTORE PUSH1 0x20 ADD SWAP1 DUP2 MSTORE PUSH1 0x20 ADD PUSH1 0x0 KECCAK256 DUP2 SWAP1 SSTORE POP PUSH1 0x7 PUSH1 0x0 ADDRESS PUSH20 0xFFFFFFFFFFFFFFFFFFFFFFFFFFFFFFFFFFFFFFFF AND PUSH20 0xFFFFFFFFFFFFFFFFFFFFFFFFFFFFFFFFFFFFFFFF AND DUP2 MSTORE PUSH1 0x20 ADD SWAP1 DUP2 MSTORE PUSH1 0x20 ADD PUSH1 0x0 KECCAK256 PUSH1 0x0 SWAP1 SLOAD SWAP1 PUSH2 0x100 EXP SWAP1 DIV PUSH1 0xFF AND ISZERO PUSH2 0x4BF6 JUMPI PUSH2 0x4BB2 DUP4 PUSH1 0x4 PUSH1 0x0 ADDRESS PUSH20 0xFFFFFFFFFFFFFFFFFFFFFFFFFFFFFFFFFFFFFFFF AND PUSH20 0xFFFFFFFFFFFFFFFFFFFFFFFFFFFFFFFFFFFFFFFF AND DUP2 MSTORE PUSH1 0x20 ADD SWAP1 DUP2 MSTORE PUSH1 0x20 ADD PUSH1 0x0 KECCAK256 SLOAD PUSH2 0x3225 SWAP1 SWAP2 SWAP1 PUSH4 0xFFFFFFFF AND JUMP JUMPDEST PUSH1 0x4 PUSH1 0x0 ADDRESS PUSH20 0xFFFFFFFFFFFFFFFFFFFFFFFFFFFFFFFFFFFFFFFF AND PUSH20 0xFFFFFFFFFFFFFFFFFFFFFFFFFFFFFFFFFFFFFFFF AND DUP2 MSTORE PUSH1 0x20 ADD SWAP1 DUP2 MSTORE PUSH1 0x20 ADD PUSH1 0x0 KECCAK256 DUP2 SWAP1 SSTORE POP JUMPDEST POP POP POP JUMP JUMPDEST PUSH2 0x4C10 DUP3 PUSH1 0x9 SLOAD PUSH2 0x3309 SWAP1 SWAP2 SWAP1 PUSH4 0xFFFFFFFF AND JUMP JUMPDEST PUSH1 0x9 DUP2 SWAP1 SSTORE POP PUSH2 0x4C2B DUP2 PUSH1 0xA SLOAD PUSH2 0x3225 SWAP1 SWAP2 SWAP1 PUSH4 0xFFFFFFFF AND JUMP JUMPDEST PUSH1 0xA DUP2 SWAP1 SSTORE POP POP POP JUMP INVALID GASLIMIT MSTORE NUMBER ORIGIN ADDRESS GASPRICE KECCAK256 PUSH21 0x72616E7366657220746F20746865207A65726F2061 PUSH5 0x6472657373 COINBASE PUSH14 0x6F756E74206D757374206265206C PUSH6 0x737320746861 PUSH15 0x20746F74616C207265666C65637469 PUSH16 0x6E734F776E61626C653A206E6577206F PUSH24 0x6E657220697320746865207A65726F206164647265737345 MSTORE NUMBER ORIGIN ADDRESS GASPRICE KECCAK256 PUSH2 0x7070 PUSH19 0x6F766520746F20746865207A65726F20616464 PUSH19 0x6573735472616E7366657220616D6F756E7420 PUSH6 0x786365656473 KECCAK256 PUSH21 0x6865206D61785478416D6F756E742E536166654D61 PUSH21 0x683A206D756C7469706C69636174696F6E206F7665 PUSH19 0x666C6F7745524332303A207472616E73666572 KECCAK256 PUSH2 0x6D6F PUSH22 0x6E74206578636565647320616C6C6F77616E63655472 PUSH2 0x6E73 PUSH7 0x657220616D6F75 PUSH15 0x74206D757374206265206772656174 PUSH6 0x72207468616E KECCAK256 PUSH27 0x65726F45524332303A207472616E736665722066726F6D20746865 KECCAK256 PUSH27 0x65726F206164647265737345524332303A20617070726F76652066 PUSH19 0x6F6D20746865207A65726F2061646472657373 GASLIMIT PUSH25 0x636C75646564206164647265737365732063616E6E6F742063 PUSH2 0x6C6C KECCAK256 PUSH21 0x6869732066756E6374696F6E596F7520646F6E2774 KECCAK256 PUSH9 0x617665207065726D69 PUSH20 0x73696F6E20746F20756E6C6F636B45524332303A KECCAK256 PUSH5 0x6563726561 PUSH20 0x656420616C6C6F77616E63652062656C6F77207A PUSH6 0x726FA2646970 PUSH7 0x73582212204886 SWAP6 JUMP 0xDD CALLCODE 0xF8 0x5C 0xD0 SWAP15 0x25 MSTORE8 DUP12 PUSH9 0x627B8267E7A6402A3D RETURNDATACOPY DUP3 0xC SWAP15 PUSH13 0x4CF3595064736F6C634300060C STOP CALLER "
				},
				"gasEstimates": {
					"creation": {
						"codeDepositCost": "4011000",
						"executionCost": "infinite",
						"totalCost": "infinite"
					},
					"external": {
						"_liquidityFee()": "1073",
						"_maxTxAmount()": "1050",
						"_taxFee()": "1095",
						"allowance(address,address)": "1409",
						"approve(address,uint256)": "infinite",
						"balanceOf(address)": "infinite",
						"decimals()": "1189",
						"decreaseAllowance(address,uint256)": "infinite",
						"deliver(uint256)": "infinite",
						"excludeFromFee(address)": "22138",
						"excludeFromReward(address)": "infinite",
						"geUnlockTime()": "1124",
						"includeInFee(address)": "22203",
						"includeInReward(address)": "infinite",
						"increaseAllowance(address,uint256)": "infinite",
						"isExcludedFromFee(address)": "1284",
						"isExcludedFromReward(address)": "1305",
						"lock(uint256)": "66160",
						"name()": "infinite",
						"owner()": "1144",
						"reflectionFromToken(uint256,bool)": "infinite",
						"renounceOwnership()": "24403",
						"setLiquidityFeePercent(uint256)": "21255",
						"setMaxTxPercent(uint256)": "infinite",
						"setSwapAndLiquifyEnabled(bool)": "23259",
						"setTaxFeePercent(uint256)": "21191",
						"swapAndLiquifyEnabled()": "1208",
						"symbol()": "infinite",
						"tokenFromReflection(uint256)": "infinite",
						"totalFees()": "1126",
						"totalSupply()": "281",
						"transfer(address,uint256)": "infinite",
						"transferFrom(address,address,uint256)": "infinite",
						"transferOwnership(address)": "infinite",
						"uniswapV2Pair()": "infinite",
						"uniswapV2Router()": "infinite",
						"unlock()": "infinite"
					},
					"internal": {
						"_approve(address,address,uint256)": "infinite",
						"_getCurrentSupply()": "infinite",
						"_getRValues(uint256,uint256,uint256,uint256)": "infinite",
						"_getRate()": "infinite",
						"_getTValues(uint256)": "infinite",
						"_getValues(uint256)": "infinite",
						"_reflectFee(uint256,uint256)": "infinite",
						"_takeLiquidity(uint256)": "infinite",
						"_tokenTransfer(address,address,uint256,bool)": "infinite",
						"_transfer(address,address,uint256)": "infinite",
						"_transferBothExcluded(address,address,uint256)": "infinite",
						"_transferFromExcluded(address,address,uint256)": "infinite",
						"_transferStandard(address,address,uint256)": "infinite",
						"_transferToExcluded(address,address,uint256)": "infinite",
						"addLiquidity(uint256,uint256)": "infinite",
						"calculateLiquidityFee(uint256)": "infinite",
						"calculateTaxFee(uint256)": "infinite",
						"removeAllFee()": "53323",
						"restoreAllFee()": "41637",
						"swapAndLiquify(uint256)": "infinite",
						"swapTokensForEth(uint256)": "infinite"
					}
				},
				"methodIdentifiers": {
					"_liquidityFee()": "6bc87c3a",
					"_maxTxAmount()": "7d1db4a5",
					"_taxFee()": "3b124fe7",
					"allowance(address,address)": "dd62ed3e",
					"approve(address,uint256)": "095ea7b3",
					"balanceOf(address)": "70a08231",
					"decimals()": "313ce567",
					"decreaseAllowance(address,uint256)": "a457c2d7",
					"deliver(uint256)": "3bd5d173",
					"excludeFromFee(address)": "437823ec",
					"excludeFromReward(address)": "52390c02",
					"geUnlockTime()": "b6c52324",
					"includeInFee(address)": "ea2f0b37",
					"includeInReward(address)": "3685d419",
					"increaseAllowance(address,uint256)": "39509351",
					"isExcludedFromFee(address)": "5342acb4",
					"isExcludedFromReward(address)": "88f82020",
					"lock(uint256)": "dd467064",
					"name()": "06fdde03",
					"owner()": "8da5cb5b",
					"reflectionFromToken(uint256,bool)": "4549b039",
					"renounceOwnership()": "715018a6",
					"setLiquidityFeePercent(uint256)": "8ee88c53",
					"setMaxTxPercent(uint256)": "d543dbeb",
					"setSwapAndLiquifyEnabled(bool)": "c49b9a80",
					"setTaxFeePercent(uint256)": "061c82d0",
					"swapAndLiquifyEnabled()": "4a74bb02",
					"symbol()": "95d89b41",
					"tokenFromReflection(uint256)": "2d838119",
					"totalFees()": "13114a9d",
					"totalSupply()": "18160ddd",
					"transfer(address,uint256)": "a9059cbb",
					"transferFrom(address,address,uint256)": "23b872dd",
					"transferOwnership(address)": "f2fde38b",
					"uniswapV2Pair()": "49bd5a5e",
					"uniswapV2Router()": "1694505e",
					"unlock()": "a69df4b5"
				}
			},
			"storageLayout": {
				"storage": [
					{
						"astId": 473,
						"contract": "contracts/Pool/PoolPig.sol:PigToken",
						"label": "_owner",
						"offset": 0,
						"slot": "0",
						"type": "t_address"
					},
					{
						"astId": 475,
						"contract": "contracts/Pool/PoolPig.sol:PigToken",
						"label": "_previousOwner",
						"offset": 0,
						"slot": "1",
						"type": "t_address"
					},
					{
						"astId": 477,
						"contract": "contracts/Pool/PoolPig.sol:PigToken",
						"label": "_lockTime",
						"offset": 0,
						"slot": "2",
						"type": "t_uint256"
					},
					{
						"astId": 1353,
						"contract": "contracts/Pool/PoolPig.sol:PigToken",
						"label": "_rOwned",
						"offset": 0,
						"slot": "3",
						"type": "t_mapping(t_address,t_uint256)"
					},
					{
						"astId": 1357,
						"contract": "contracts/Pool/PoolPig.sol:PigToken",
						"label": "_tOwned",
						"offset": 0,
						"slot": "4",
						"type": "t_mapping(t_address,t_uint256)"
					},
					{
						"astId": 1363,
						"contract": "contracts/Pool/PoolPig.sol:PigToken",
						"label": "_allowances",
						"offset": 0,
						"slot": "5",
						"type": "t_mapping(t_address,t_mapping(t_address,t_uint256))"
					},
					{
						"astId": 1367,
						"contract": "contracts/Pool/PoolPig.sol:PigToken",
						"label": "_isExcludedFromFee",
						"offset": 0,
						"slot": "6",
						"type": "t_mapping(t_address,t_bool)"
					},
					{
						"astId": 1371,
						"contract": "contracts/Pool/PoolPig.sol:PigToken",
						"label": "_isExcluded",
						"offset": 0,
						"slot": "7",
						"type": "t_mapping(t_address,t_bool)"
					},
					{
						"astId": 1374,
						"contract": "contracts/Pool/PoolPig.sol:PigToken",
						"label": "_excluded",
						"offset": 0,
						"slot": "8",
						"type": "t_array(t_address)dyn_storage"
					},
					{
						"astId": 1397,
						"contract": "contracts/Pool/PoolPig.sol:PigToken",
						"label": "_rTotal",
						"offset": 0,
						"slot": "9",
						"type": "t_uint256"
					},
					{
						"astId": 1399,
						"contract": "contracts/Pool/PoolPig.sol:PigToken",
						"label": "_tFeeTotal",
						"offset": 0,
						"slot": "10",
						"type": "t_uint256"
					},
					{
						"astId": 1402,
						"contract": "contracts/Pool/PoolPig.sol:PigToken",
						"label": "_name",
						"offset": 0,
						"slot": "11",
						"type": "t_string_storage"
					},
					{
						"astId": 1405,
						"contract": "contracts/Pool/PoolPig.sol:PigToken",
						"label": "_symbol",
						"offset": 0,
						"slot": "12",
						"type": "t_string_storage"
					},
					{
						"astId": 1408,
						"contract": "contracts/Pool/PoolPig.sol:PigToken",
						"label": "_decimals",
						"offset": 0,
						"slot": "13",
						"type": "t_uint8"
					},
					{
						"astId": 1411,
						"contract": "contracts/Pool/PoolPig.sol:PigToken",
						"label": "_taxFee",
						"offset": 0,
						"slot": "14",
						"type": "t_uint256"
					},
					{
						"astId": 1414,
						"contract": "contracts/Pool/PoolPig.sol:PigToken",
						"label": "_previousTaxFee",
						"offset": 0,
						"slot": "15",
						"type": "t_uint256"
					},
					{
						"astId": 1417,
						"contract": "contracts/Pool/PoolPig.sol:PigToken",
						"label": "_liquidityFee",
						"offset": 0,
						"slot": "16",
						"type": "t_uint256"
					},
					{
						"astId": 1420,
						"contract": "contracts/Pool/PoolPig.sol:PigToken",
						"label": "_previousLiquidityFee",
						"offset": 0,
						"slot": "17",
						"type": "t_uint256"
					},
					{
						"astId": 1426,
						"contract": "contracts/Pool/PoolPig.sol:PigToken",
						"label": "inSwapAndLiquify",
						"offset": 0,
						"slot": "18",
						"type": "t_bool"
					},
					{
						"astId": 1429,
						"contract": "contracts/Pool/PoolPig.sol:PigToken",
						"label": "swapAndLiquifyEnabled",
						"offset": 1,
						"slot": "18",
						"type": "t_bool"
					},
					{
						"astId": 1436,
						"contract": "contracts/Pool/PoolPig.sol:PigToken",
						"label": "_maxTxAmount",
						"offset": 0,
						"slot": "19",
						"type": "t_uint256"
					},
					{
						"astId": 1443,
						"contract": "contracts/Pool/PoolPig.sol:PigToken",
						"label": "numTokensSellToAddToLiquidity",
						"offset": 0,
						"slot": "20",
						"type": "t_uint256"
					}
				],
				"types": {
					"t_address": {
						"encoding": "inplace",
						"label": "address",
						"numberOfBytes": "20"
					},
					"t_array(t_address)dyn_storage": {
						"base": "t_address",
						"encoding": "dynamic_array",
						"label": "address[]",
						"numberOfBytes": "32"
					},
					"t_bool": {
						"encoding": "inplace",
						"label": "bool",
						"numberOfBytes": "1"
					},
					"t_mapping(t_address,t_bool)": {
						"encoding": "mapping",
						"key": "t_address",
						"label": "mapping(address => bool)",
						"numberOfBytes": "32",
						"value": "t_bool"
					},
					"t_mapping(t_address,t_mapping(t_address,t_uint256))": {
						"encoding": "mapping",
						"key": "t_address",
						"label": "mapping(address => mapping(address => uint256))",
						"numberOfBytes": "32",
						"value": "t_mapping(t_address,t_uint256)"
					},
					"t_mapping(t_address,t_uint256)": {
						"encoding": "mapping",
						"key": "t_address",
						"label": "mapping(address => uint256)",
						"numberOfBytes": "32",
						"value": "t_uint256"
					},
					"t_string_storage": {
						"encoding": "bytes",
						"label": "string",
						"numberOfBytes": "32"
					},
					"t_uint256": {
						"encoding": "inplace",
						"label": "uint256",
						"numberOfBytes": "32"
					},
					"t_uint8": {
						"encoding": "inplace",
						"label": "uint8",
						"numberOfBytes": "1"
					}
				}
			},
			"userdoc": {
				"kind": "user",
				"methods": {},
				"version": 1
			}
		}
	}
}