{
	"contracts/Pool/Pool.sol": {
		"World_Step": {
			"abi": [
				{
					"inputs": [],
					"stateMutability": "nonpayable",
					"type": "constructor"
				},
				{
					"anonymous": false,
					"inputs": [
						{
							"indexed": true,
							"internalType": "address",
							"name": "owner",
							"type": "address"
						},
						{
							"indexed": true,
							"internalType": "address",
							"name": "spender",
							"type": "address"
						},
						{
							"indexed": false,
							"internalType": "uint256",
							"name": "value",
							"type": "uint256"
						}
					],
					"name": "Approval",
					"type": "event"
				},
				{
					"anonymous": false,
					"inputs": [
						{
							"indexed": true,
							"internalType": "address",
							"name": "previousOwner",
							"type": "address"
						},
						{
							"indexed": true,
							"internalType": "address",
							"name": "newOwner",
							"type": "address"
						}
					],
					"name": "OwnershipTransferred",
					"type": "event"
				},
				{
					"anonymous": false,
					"inputs": [
						{
							"indexed": true,
							"internalType": "address",
							"name": "from",
							"type": "address"
						},
						{
							"indexed": true,
							"internalType": "address",
							"name": "to",
							"type": "address"
						},
						{
							"indexed": false,
							"internalType": "uint256",
							"name": "value",
							"type": "uint256"
						}
					],
					"name": "Transfer",
					"type": "event"
				},
				{
					"anonymous": false,
					"inputs": [
						{
							"indexed": true,
							"internalType": "address",
							"name": "previous",
							"type": "address"
						},
						{
							"indexed": true,
							"internalType": "address",
							"name": "adr",
							"type": "address"
						}
					],
					"name": "devAddressUpdated",
					"type": "event"
				},
				{
					"anonymous": false,
					"inputs": [
						{
							"indexed": true,
							"internalType": "address",
							"name": "previous",
							"type": "address"
						},
						{
							"indexed": true,
							"internalType": "address",
							"name": "adr",
							"type": "address"
						}
					],
					"name": "marketingAddressUpdated",
					"type": "event"
				},
				{
					"anonymous": false,
					"inputs": [
						{
							"indexed": true,
							"internalType": "address",
							"name": "token",
							"type": "address"
						},
						{
							"indexed": true,
							"internalType": "address",
							"name": "to",
							"type": "address"
						},
						{
							"indexed": false,
							"internalType": "uint256",
							"name": "amount",
							"type": "uint256"
						}
					],
					"name": "tokensRescued",
					"type": "event"
				},
				{
					"inputs": [],
					"name": "_factory",
					"outputs": [
						{
							"internalType": "address",
							"name": "",
							"type": "address"
						}
					],
					"stateMutability": "view",
					"type": "function"
				},
				{
					"inputs": [],
					"name": "_test",
					"outputs": [],
					"stateMutability": "nonpayable",
					"type": "function"
				},
				{
					"inputs": [
						{
							"internalType": "address",
							"name": "owner",
							"type": "address"
						},
						{
							"internalType": "address",
							"name": "spender",
							"type": "address"
						}
					],
					"name": "allowance",
					"outputs": [
						{
							"internalType": "uint256",
							"name": "",
							"type": "uint256"
						}
					],
					"stateMutability": "view",
					"type": "function"
				},
				{
					"inputs": [
						{
							"internalType": "address",
							"name": "spender",
							"type": "address"
						},
						{
							"internalType": "uint256",
							"name": "amount",
							"type": "uint256"
						}
					],
					"name": "approve",
					"outputs": [
						{
							"internalType": "bool",
							"name": "",
							"type": "bool"
						}
					],
					"stateMutability": "nonpayable",
					"type": "function"
				},
				{
					"inputs": [
						{
							"internalType": "address",
							"name": "account",
							"type": "address"
						}
					],
					"name": "balanceOf",
					"outputs": [
						{
							"internalType": "uint256",
							"name": "",
							"type": "uint256"
						}
					],
					"stateMutability": "view",
					"type": "function"
				},
				{
					"inputs": [],
					"name": "decimals",
					"outputs": [
						{
							"internalType": "uint8",
							"name": "",
							"type": "uint8"
						}
					],
					"stateMutability": "pure",
					"type": "function"
				},
				{
					"inputs": [
						{
							"internalType": "address[]",
							"name": "accounts",
							"type": "address[]"
						},
						{
							"internalType": "bool",
							"name": "excluded",
							"type": "bool"
						}
					],
					"name": "excludeMultipleAccountsFromFees",
					"outputs": [],
					"stateMutability": "nonpayable",
					"type": "function"
				},
				{
					"inputs": [],
					"name": "manualsend",
					"outputs": [],
					"stateMutability": "nonpayable",
					"type": "function"
				},
				{
					"inputs": [],
					"name": "manualswap",
					"outputs": [],
					"stateMutability": "nonpayable",
					"type": "function"
				},
				{
					"inputs": [],
					"name": "name",
					"outputs": [
						{
							"internalType": "string",
							"name": "",
							"type": "string"
						}
					],
					"stateMutability": "pure",
					"type": "function"
				},
				{
					"inputs": [],
					"name": "owner",
					"outputs": [
						{
							"internalType": "address",
							"name": "",
							"type": "address"
						}
					],
					"stateMutability": "view",
					"type": "function"
				},
				{
					"inputs": [],
					"name": "renounceOwnership",
					"outputs": [],
					"stateMutability": "nonpayable",
					"type": "function"
				},
				{
					"inputs": [
						{
							"internalType": "address",
							"name": "_tokenAddr",
							"type": "address"
						},
						{
							"internalType": "address",
							"name": "_to",
							"type": "address"
						},
						{
							"internalType": "uint256",
							"name": "_amount",
							"type": "uint256"
						}
					],
					"name": "rescueForeignTokens",
					"outputs": [],
					"stateMutability": "nonpayable",
					"type": "function"
				},
				{
					"inputs": [
						{
							"internalType": "uint256",
							"name": "redisFeeOnBuy",
							"type": "uint256"
						},
						{
							"internalType": "uint256",
							"name": "redisFeeOnSell",
							"type": "uint256"
						},
						{
							"internalType": "uint256",
							"name": "taxFeeOnBuy",
							"type": "uint256"
						},
						{
							"internalType": "uint256",
							"name": "taxFeeOnSell",
							"type": "uint256"
						}
					],
					"name": "setFee",
					"outputs": [],
					"stateMutability": "nonpayable",
					"type": "function"
				},
				{
					"inputs": [
						{
							"internalType": "address payable",
							"name": "dev",
							"type": "address"
						}
					],
					"name": "setNewDevAddress",
					"outputs": [],
					"stateMutability": "nonpayable",
					"type": "function"
				},
				{
					"inputs": [
						{
							"internalType": "address payable",
							"name": "markt",
							"type": "address"
						}
					],
					"name": "setNewMarketingAddress",
					"outputs": [],
					"stateMutability": "nonpayable",
					"type": "function"
				},
				{
					"inputs": [],
					"name": "symbol",
					"outputs": [
						{
							"internalType": "string",
							"name": "",
							"type": "string"
						}
					],
					"stateMutability": "pure",
					"type": "function"
				},
				{
					"inputs": [
						{
							"internalType": "bool",
							"name": "_swapEnabled",
							"type": "bool"
						}
					],
					"name": "toggleSwap",
					"outputs": [],
					"stateMutability": "nonpayable",
					"type": "function"
				},
				{
					"inputs": [],
					"name": "totalSupply",
					"outputs": [
						{
							"internalType": "uint256",
							"name": "",
							"type": "uint256"
						}
					],
					"stateMutability": "pure",
					"type": "function"
				},
				{
					"inputs": [
						{
							"internalType": "address",
							"name": "recipient",
							"type": "address"
						},
						{
							"internalType": "uint256",
							"name": "amount",
							"type": "uint256"
						}
					],
					"name": "transfer",
					"outputs": [
						{
							"internalType": "bool",
							"name": "",
							"type": "bool"
						}
					],
					"stateMutability": "nonpayable",
					"type": "function"
				},
				{
					"inputs": [
						{
							"internalType": "address",
							"name": "sender",
							"type": "address"
						},
						{
							"internalType": "address",
							"name": "recipient",
							"type": "address"
						},
						{
							"internalType": "uint256",
							"name": "amount",
							"type": "uint256"
						}
					],
					"name": "transferFrom",
					"outputs": [
						{
							"internalType": "bool",
							"name": "",
							"type": "bool"
						}
					],
					"stateMutability": "nonpayable",
					"type": "function"
				},
				{
					"inputs": [
						{
							"internalType": "address",
							"name": "newOwner",
							"type": "address"
						}
					],
					"name": "transferOwnership",
					"outputs": [],
					"stateMutability": "nonpayable",
					"type": "function"
				},
				{
					"inputs": [],
					"name": "uniswapV2Factory",
					"outputs": [
						{
							"internalType": "contract IUniswapV2Factory",
							"name": "",
							"type": "address"
						}
					],
					"stateMutability": "view",
					"type": "function"
				},
				{
					"inputs": [],
					"name": "uniswapV2Pair",
					"outputs": [
						{
							"internalType": "address",
							"name": "",
							"type": "address"
						}
					],
					"stateMutability": "view",
					"type": "function"
				},
				{
					"inputs": [],
					"name": "uniswapV2Router",
					"outputs": [
						{
							"internalType": "contract IUniswapV2Router02",
							"name": "",
							"type": "address"
						}
					],
					"stateMutability": "view",
					"type": "function"
				},
				{
					"stateMutability": "payable",
					"type": "receive"
				}
			],
			"devdoc": {
				"kind": "dev",
				"methods": {},
				"version": 1
			},
			"evm": {
				"assembly": "    /* \"contracts/Pool/Pool.sol\":4019:15886  contract World_Step is Context, IERC20, Ownable {... */\n  mstore(0x40, 0x80)\n    /* \"contracts/Pool/Pool.sol\":4427:4445  1000000000 * 10**9 */\n  0x0de0b6b3a7640000\n    /* \"contracts/Pool/Pool.sol\":4384:4385  0 */\n  0x00\n    /* \"contracts/Pool/Pool.sol\":4375:4386  ~uint256(0) */\n  not\n    /* \"contracts/Pool/Pool.sol\":4485:4498  MAX % _tTotal */\n  tag_1\n  swap2\n  swap1\n  tag_2\n  jump\t// in\ntag_1:\n    /* \"contracts/Pool/Pool.sol\":4384:4385  0 */\n  0x00\n    /* \"contracts/Pool/Pool.sol\":4375:4386  ~uint256(0) */\n  not\n    /* \"contracts/Pool/Pool.sol\":4478:4499  MAX - (MAX % _tTotal) */\n  tag_3\n  swap2\n  swap1\n  tag_4\n  jump\t// in\ntag_3:\n    /* \"contracts/Pool/Pool.sol\":4451:4500  uint256 private _rTotal = (MAX - (MAX % _tTotal)) */\n  0x06\n  sstore\n    /* \"contracts/Pool/Pool.sol\":4576:4577  1 */\n  0x01\n    /* \"contracts/Pool/Pool.sol\":4543:4577  uint256 private _redisFeeOnBuy = 1 */\n  0x08\n  sstore\n    /* \"contracts/Pool/Pool.sol\":4614:4615  3 */\n  0x03\n    /* \"contracts/Pool/Pool.sol\":4583:4615  uint256 private _taxFeeOnBuy = 3 */\n  0x09\n  sstore\n    /* \"contracts/Pool/Pool.sol\":4660:4661  1 */\n  0x01\n    /* \"contracts/Pool/Pool.sol\":4626:4661  uint256 private _redisFeeOnSell = 1 */\n  0x0a\n  sstore\n    /* \"contracts/Pool/Pool.sol\":4699:4700  3 */\n  0x03\n    /* \"contracts/Pool/Pool.sol\":4667:4700  uint256 private _taxFeeOnSell = 3 */\n  0x0b\n  sstore\n    /* \"contracts/Pool/Pool.sol\":4972:5014  0x8492cbd894686D7e98214541903c7BA6f94928D6 */\n  0x8492cbd894686d7e98214541903c7ba6f94928d6\n    /* \"contracts/Pool/Pool.sol\":4918:5015  address payable private _developmentAddress = payable(0x8492cbd894686D7e98214541903c7BA6f94928D6) */\n  0x0e\n  exp(0x0100, 0x00)\n  dup2\n  sload\n  dup2\n  0xffffffffffffffffffffffffffffffffffffffff\n  mul\n  not\n  and\n  swap1\n  dup4\n  0xffffffffffffffffffffffffffffffffffffffff\n  and\n  mul\n  or\n  swap1\n  sstore\n  pop\n    /* \"contracts/Pool/Pool.sol\":5073:5115  0xa4eD7aa4eF5deB0A63e97d9Cb77445aE553feb1d */\n  0xa4ed7aa4ef5deb0a63e97d9cb77445ae553feb1d\n    /* \"contracts/Pool/Pool.sol\":5021:5116  address payable private _marketingAddress = payable(0xa4eD7aa4eF5deB0A63e97d9Cb77445aE553feb1d) */\n  0x0f\n  exp(0x0100, 0x00)\n  dup2\n  sload\n  dup2\n  0xffffffffffffffffffffffffffffffffffffffff\n  mul\n  not\n  and\n  swap1\n  dup4\n  0xffffffffffffffffffffffffffffffffffffffff\n  and\n  mul\n  or\n  swap1\n  sstore\n  pop\n    /* \"contracts/Pool/Pool.sol\":5168:5210  0xe061915592536656a92B9fd59e46b19eF920692F */\n  0xe061915592536656a92b9fd59e46b19ef920692f\n    /* \"contracts/Pool/Pool.sol\":5122:5211  address payable private _rewardPool = payable(0xe061915592536656a92B9fd59e46b19eF920692F) */\n  0x10\n  exp(0x0100, 0x00)\n  dup2\n  sload\n  dup2\n  0xffffffffffffffffffffffffffffffffffffffff\n  mul\n  not\n  and\n  swap1\n  dup4\n  0xffffffffffffffffffffffffffffffffffffffff\n  and\n  mul\n  or\n  swap1\n  sstore\n  pop\n    /* \"contracts/Pool/Pool.sol\":5400:5405  false */\n  0x00\n    /* \"contracts/Pool/Pool.sol\":5378:5405  bool private inSwap = false */\n  0x14\n  dup1\n  0x0100\n  exp\n  dup2\n  sload\n  dup2\n  0xff\n  mul\n  not\n  and\n  swap1\n  dup4\n  iszero\n  iszero\n  mul\n  or\n  swap1\n  sstore\n  pop\n    /* \"contracts/Pool/Pool.sol\":5438:5442  true */\n  0x01\n    /* \"contracts/Pool/Pool.sol\":5411:5442  bool private swapEnabled = true */\n  0x14\n  exp(0x0100, 0x15)\n  dup2\n  sload\n  dup2\n  0xff\n  mul\n  not\n  and\n  swap1\n  dup4\n  iszero\n  iszero\n  mul\n  or\n  swap1\n  sstore\n  pop\n    /* \"contracts/Pool/Pool.sol\":5549:6173  constructor () {... */\n  callvalue\n  dup1\n  iszero\n  tag_5\n  jumpi\n  0x00\n  dup1\n  revert\ntag_5:\n  pop\n    /* \"contracts/Pool/Pool.sol\":3286:3303  address msgSender */\n  0x00\n    /* \"contracts/Pool/Pool.sol\":3306:3318  _msgSender() */\n  tag_9\n    /* \"contracts/Pool/Pool.sol\":3306:3316  _msgSender */\n  shl(0x20, tag_10)\n    /* \"contracts/Pool/Pool.sol\":3306:3318  _msgSender() */\n  0x20\n  shr\n  jump\t// in\ntag_9:\n    /* \"contracts/Pool/Pool.sol\":3286:3318  address msgSender = _msgSender() */\n  swap1\n  pop\n    /* \"contracts/Pool/Pool.sol\":3337:3346  msgSender */\n  dup1\n    /* \"contracts/Pool/Pool.sol\":3328:3334  _owner */\n  0x00\n  dup1\n    /* \"contracts/Pool/Pool.sol\":3328:3346  _owner = msgSender */\n  0x0100\n  exp\n  dup2\n  sload\n  dup2\n  0xffffffffffffffffffffffffffffffffffffffff\n  mul\n  not\n  and\n  swap1\n  dup4\n  0xffffffffffffffffffffffffffffffffffffffff\n  and\n  mul\n  or\n  swap1\n  sstore\n  pop\n    /* \"contracts/Pool/Pool.sol\":3394:3403  msgSender */\n  dup1\n    /* \"contracts/Pool/Pool.sol\":3361:3404  OwnershipTransferred(address(0), msgSender) */\n  0xffffffffffffffffffffffffffffffffffffffff\n  and\n    /* \"contracts/Pool/Pool.sol\":3390:3391  0 */\n  0x00\n    /* \"contracts/Pool/Pool.sol\":3361:3404  OwnershipTransferred(address(0), msgSender) */\n  0xffffffffffffffffffffffffffffffffffffffff\n  and\n  0x8be0079c531659141344cd1fd0a4f28419497f9722a3daafe3b4186f6b6457e0\n  mload(0x40)\n  mload(0x40)\n  dup1\n  swap2\n  sub\n  swap1\n  log3\n    /* \"contracts/Pool/Pool.sol\":3276:3411  {... */\n  pop\n    /* \"contracts/Pool/Pool.sol\":5598:5605  _rTotal */\n  sload(0x06)\n    /* \"contracts/Pool/Pool.sol\":5574:5581  _rOwned */\n  0x02\n    /* \"contracts/Pool/Pool.sol\":5574:5595  _rOwned[_msgSender()] */\n  0x00\n    /* \"contracts/Pool/Pool.sol\":5582:5594  _msgSender() */\n  tag_12\n    /* \"contracts/Pool/Pool.sol\":5582:5592  _msgSender */\n  shl(0x20, tag_10)\n    /* \"contracts/Pool/Pool.sol\":5582:5594  _msgSender() */\n  0x20\n  shr\n  jump\t// in\ntag_12:\n    /* \"contracts/Pool/Pool.sol\":5574:5595  _rOwned[_msgSender()] */\n  0xffffffffffffffffffffffffffffffffffffffff\n  and\n  0xffffffffffffffffffffffffffffffffffffffff\n  and\n  dup2\n  mstore\n  0x20\n  add\n  swap1\n  dup2\n  mstore\n  0x20\n  add\n  0x00\n  keccak256\n    /* \"contracts/Pool/Pool.sol\":5574:5605  _rOwned[_msgSender()] = _rTotal */\n  dup2\n  swap1\n  sstore\n  pop\n    /* \"contracts/Pool/Pool.sol\":5615:5650  IUniswapV2Router02 _uniswapV2Router */\n  0x00\n    /* \"contracts/Pool/Pool.sol\":5680:5722  0x9Ac64Cc6e4415144C455BD8E4837Fea55603e5c3 */\n  0x9ac64cc6e4415144c455bd8e4837fea55603e5c3\n    /* \"contracts/Pool/Pool.sol\":5615:5724  IUniswapV2Router02 _uniswapV2Router = IUniswapV2Router02(address(0x9Ac64Cc6e4415144C455BD8E4837Fea55603e5c3)) */\n  swap1\n  pop\n    /* \"contracts/Pool/Pool.sol\":5752:5768  _uniswapV2Router */\n  dup1\n    /* \"contracts/Pool/Pool.sol\":5734:5749  uniswapV2Router */\n  0x11\n  0x00\n    /* \"contracts/Pool/Pool.sol\":5734:5768  uniswapV2Router = _uniswapV2Router */\n  0x0100\n  exp\n  dup2\n  sload\n  dup2\n  0xffffffffffffffffffffffffffffffffffffffff\n  mul\n  not\n  and\n  swap1\n  dup4\n  0xffffffffffffffffffffffffffffffffffffffff\n  and\n  mul\n  or\n  swap1\n  sstore\n  pop\n    /* \"contracts/Pool/Pool.sol\":5812:5828  _uniswapV2Router */\n  dup1\n    /* \"contracts/Pool/Pool.sol\":5812:5836  _uniswapV2Router.factory */\n  0xffffffffffffffffffffffffffffffffffffffff\n  and\n  0xc45a0155\n    /* \"contracts/Pool/Pool.sol\":5812:5838  _uniswapV2Router.factory() */\n  mload(0x40)\n  dup2\n  0xffffffff\n  and\n  0xe0\n  shl\n  dup2\n  mstore\n  0x04\n  add\n  0x20\n  mload(0x40)\n  dup1\n  dup4\n  sub\n  dup2\n  dup7\n  gas\n  staticcall\n  iszero\n  dup1\n  iszero\n  tag_14\n  jumpi\n  returndatasize\n  0x00\n  dup1\n  returndatacopy\n  revert(0x00, returndatasize)\ntag_14:\n  pop\n  pop\n  pop\n  pop\n  mload(0x40)\n  returndatasize\n  not(0x1f)\n  0x1f\n  dup3\n  add\n  and\n  dup3\n  add\n  dup1\n  0x40\n  mstore\n  pop\n  dup2\n  add\n  swap1\n  tag_15\n  swap2\n  swap1\n  tag_16\n  jump\t// in\ntag_15:\n    /* \"contracts/Pool/Pool.sol\":5794:5863  IUniswapV2Factory(_uniswapV2Router.factory())... */\n  0xffffffffffffffffffffffffffffffffffffffff\n  and\n  0xc9c65396\n    /* \"contracts/Pool/Pool.sol\":5872:5876  this */\n  address\n    /* \"contracts/Pool/Pool.sol\":5879:5895  _uniswapV2Router */\n  dup4\n    /* \"contracts/Pool/Pool.sol\":5879:5900  _uniswapV2Router.WETH */\n  0xffffffffffffffffffffffffffffffffffffffff\n  and\n  0xad5c4648\n    /* \"contracts/Pool/Pool.sol\":5879:5902  _uniswapV2Router.WETH() */\n  mload(0x40)\n  dup2\n  0xffffffff\n  and\n  0xe0\n  shl\n  dup2\n  mstore\n  0x04\n  add\n  0x20\n  mload(0x40)\n  dup1\n  dup4\n  sub\n  dup2\n  dup7\n  gas\n  staticcall\n  iszero\n  dup1\n  iszero\n  tag_18\n  jumpi\n  returndatasize\n  0x00\n  dup1\n  returndatacopy\n  revert(0x00, returndatasize)\ntag_18:\n  pop\n  pop\n  pop\n  pop\n  mload(0x40)\n  returndatasize\n  not(0x1f)\n  0x1f\n  dup3\n  add\n  and\n  dup3\n  add\n  dup1\n  0x40\n  mstore\n  pop\n  dup2\n  add\n  swap1\n  tag_19\n  swap2\n  swap1\n  tag_16\n  jump\t// in\ntag_19:\n    /* \"contracts/Pool/Pool.sol\":5794:5904  IUniswapV2Factory(_uniswapV2Router.factory())... */\n  mload(0x40)\n  dup4\n  0xffffffff\n  and\n  0xe0\n  shl\n  dup2\n  mstore\n  0x04\n  add\n  tag_20\n  swap3\n  swap2\n  swap1\n  tag_21\n  jump\t// in\ntag_20:\n  0x20\n  mload(0x40)\n  dup1\n  dup4\n  sub\n  dup2\n  0x00\n  dup8\n  gas\n  call\n  iszero\n  dup1\n  iszero\n  tag_23\n  jumpi\n  returndatasize\n  0x00\n  dup1\n  returndatacopy\n  revert(0x00, returndatasize)\ntag_23:\n  pop\n  pop\n  pop\n  pop\n  mload(0x40)\n  returndatasize\n  not(0x1f)\n  0x1f\n  dup3\n  add\n  and\n  dup3\n  add\n  dup1\n  0x40\n  mstore\n  pop\n  dup2\n  add\n  swap1\n  tag_24\n  swap2\n  swap1\n  tag_16\n  jump\t// in\ntag_24:\n    /* \"contracts/Pool/Pool.sol\":5778:5791  uniswapV2Pair */\n  0x14\n  0x00\n    /* \"contracts/Pool/Pool.sol\":5778:5904  uniswapV2Pair = IUniswapV2Factory(_uniswapV2Router.factory())... */\n  0x0100\n  exp\n  dup2\n  sload\n  dup2\n  0xffffffffffffffffffffffffffffffffffffffff\n  mul\n  not\n  and\n  swap1\n  dup4\n  0xffffffffffffffffffffffffffffffffffffffff\n  and\n  mul\n  or\n  swap1\n  sstore\n  pop\n    /* \"contracts/Pool/Pool.sol\":5944:5948  true */\n  0x01\n    /* \"contracts/Pool/Pool.sol\":5914:5932  _isExcludedFromFee */\n  0x05\n    /* \"contracts/Pool/Pool.sol\":5914:5941  _isExcludedFromFee[owner()] */\n  0x00\n    /* \"contracts/Pool/Pool.sol\":5933:5940  owner() */\n  tag_25\n    /* \"contracts/Pool/Pool.sol\":5933:5938  owner */\n  shl(0x20, tag_26)\n    /* \"contracts/Pool/Pool.sol\":5933:5940  owner() */\n  0x20\n  shr\n  jump\t// in\ntag_25:\n    /* \"contracts/Pool/Pool.sol\":5914:5941  _isExcludedFromFee[owner()] */\n  0xffffffffffffffffffffffffffffffffffffffff\n  and\n  0xffffffffffffffffffffffffffffffffffffffff\n  and\n  dup2\n  mstore\n  0x20\n  add\n  swap1\n  dup2\n  mstore\n  0x20\n  add\n  0x00\n  keccak256\n  0x00\n    /* \"contracts/Pool/Pool.sol\":5914:5948  _isExcludedFromFee[owner()] = true */\n  0x0100\n  exp\n  dup2\n  sload\n  dup2\n  0xff\n  mul\n  not\n  and\n  swap1\n  dup4\n  iszero\n  iszero\n  mul\n  or\n  swap1\n  sstore\n  pop\n    /* \"contracts/Pool/Pool.sol\":5994:5998  true */\n  0x01\n    /* \"contracts/Pool/Pool.sol\":5958:5976  _isExcludedFromFee */\n  0x05\n    /* \"contracts/Pool/Pool.sol\":5958:5991  _isExcludedFromFee[address(this)] */\n  0x00\n    /* \"contracts/Pool/Pool.sol\":5985:5989  this */\n  address\n    /* \"contracts/Pool/Pool.sol\":5958:5991  _isExcludedFromFee[address(this)] */\n  0xffffffffffffffffffffffffffffffffffffffff\n  and\n  0xffffffffffffffffffffffffffffffffffffffff\n  and\n  dup2\n  mstore\n  0x20\n  add\n  swap1\n  dup2\n  mstore\n  0x20\n  add\n  0x00\n  keccak256\n  0x00\n    /* \"contracts/Pool/Pool.sol\":5958:5998  _isExcludedFromFee[address(this)] = true */\n  0x0100\n  exp\n  dup2\n  sload\n  dup2\n  0xff\n  mul\n  not\n  and\n  swap1\n  dup4\n  iszero\n  iszero\n  mul\n  or\n  swap1\n  sstore\n  pop\n    /* \"contracts/Pool/Pool.sol\":6050:6054  true */\n  0x01\n    /* \"contracts/Pool/Pool.sol\":6008:6026  _isExcludedFromFee */\n  0x05\n    /* \"contracts/Pool/Pool.sol\":6008:6047  _isExcludedFromFee[_developmentAddress] */\n  0x00\n    /* \"contracts/Pool/Pool.sol\":6027:6046  _developmentAddress */\n  0x0e\n  0x00\n  swap1\n  sload\n  swap1\n  0x0100\n  exp\n  swap1\n  div\n  0xffffffffffffffffffffffffffffffffffffffff\n  and\n    /* \"contracts/Pool/Pool.sol\":6008:6047  _isExcludedFromFee[_developmentAddress] */\n  0xffffffffffffffffffffffffffffffffffffffff\n  and\n  0xffffffffffffffffffffffffffffffffffffffff\n  and\n  dup2\n  mstore\n  0x20\n  add\n  swap1\n  dup2\n  mstore\n  0x20\n  add\n  0x00\n  keccak256\n  0x00\n    /* \"contracts/Pool/Pool.sol\":6008:6054  _isExcludedFromFee[_developmentAddress] = true */\n  0x0100\n  exp\n  dup2\n  sload\n  dup2\n  0xff\n  mul\n  not\n  and\n  swap1\n  dup4\n  iszero\n  iszero\n  mul\n  or\n  swap1\n  sstore\n  pop\n    /* \"contracts/Pool/Pool.sol\":6104:6108  true */\n  0x01\n    /* \"contracts/Pool/Pool.sol\":6064:6082  _isExcludedFromFee */\n  0x05\n    /* \"contracts/Pool/Pool.sol\":6064:6101  _isExcludedFromFee[_marketingAddress] */\n  0x00\n    /* \"contracts/Pool/Pool.sol\":6083:6100  _marketingAddress */\n  0x0f\n  0x00\n  swap1\n  sload\n  swap1\n  0x0100\n  exp\n  swap1\n  div\n  0xffffffffffffffffffffffffffffffffffffffff\n  and\n    /* \"contracts/Pool/Pool.sol\":6064:6101  _isExcludedFromFee[_marketingAddress] */\n  0xffffffffffffffffffffffffffffffffffffffff\n  and\n  0xffffffffffffffffffffffffffffffffffffffff\n  and\n  dup2\n  mstore\n  0x20\n  add\n  swap1\n  dup2\n  mstore\n  0x20\n  add\n  0x00\n  keccak256\n  0x00\n    /* \"contracts/Pool/Pool.sol\":6064:6108  _isExcludedFromFee[_marketingAddress] = true */\n  0x0100\n  exp\n  dup2\n  sload\n  dup2\n  0xff\n  mul\n  not\n  and\n  swap1\n  dup4\n  iszero\n  iszero\n  mul\n  or\n  swap1\n  sstore\n  pop\n    /* \"contracts/Pool/Pool.sol\":6144:6156  _msgSender() */\n  tag_27\n    /* \"contracts/Pool/Pool.sol\":6144:6154  _msgSender */\n  shl(0x20, tag_10)\n    /* \"contracts/Pool/Pool.sol\":6144:6156  _msgSender() */\n  0x20\n  shr\n  jump\t// in\ntag_27:\n    /* \"contracts/Pool/Pool.sol\":6123:6166  Transfer(address(0), _msgSender(), _tTotal) */\n  0xffffffffffffffffffffffffffffffffffffffff\n  and\n    /* \"contracts/Pool/Pool.sol\":6140:6141  0 */\n  0x00\n    /* \"contracts/Pool/Pool.sol\":6123:6166  Transfer(address(0), _msgSender(), _tTotal) */\n  0xffffffffffffffffffffffffffffffffffffffff\n  and\n  0xddf252ad1be2c89b69c2b068fc378daa952ba7f163c4a11628f55a4df523b3ef\n    /* \"contracts/Pool/Pool.sol\":4427:4445  1000000000 * 10**9 */\n  0x0de0b6b3a7640000\n    /* \"contracts/Pool/Pool.sol\":6123:6166  Transfer(address(0), _msgSender(), _tTotal) */\n  mload(0x40)\n  tag_28\n  swap2\n  swap1\n  tag_29\n  jump\t// in\ntag_28:\n  mload(0x40)\n  dup1\n  swap2\n  sub\n  swap1\n  log3\n    /* \"contracts/Pool/Pool.sol\":5564:6173  {... */\n  pop\n    /* \"contracts/Pool/Pool.sol\":4019:15886  contract World_Step is Context, IERC20, Ownable {... */\n  jump(tag_30)\n    /* \"contracts/Pool/Pool.sol\":1953:2049  function _msgSender() internal view virtual returns (address) {... */\ntag_10:\n    /* \"contracts/Pool/Pool.sol\":2006:2013  address */\n  0x00\n    /* \"contracts/Pool/Pool.sol\":2032:2042  msg.sender */\n  caller\n    /* \"contracts/Pool/Pool.sol\":2025:2042  return msg.sender */\n  swap1\n  pop\n    /* \"contracts/Pool/Pool.sol\":1953:2049  function _msgSender() internal view virtual returns (address) {... */\n  swap1\n  jump\t// out\n    /* \"contracts/Pool/Pool.sol\":3417:3494  function owner() public view returns (address) {... */\ntag_26:\n    /* \"contracts/Pool/Pool.sol\":3455:3462  address */\n  0x00\n    /* \"contracts/Pool/Pool.sol\":3481:3487  _owner */\n  dup1\n  0x00\n  swap1\n  sload\n  swap1\n  0x0100\n  exp\n  swap1\n  div\n  0xffffffffffffffffffffffffffffffffffffffff\n  and\n    /* \"contracts/Pool/Pool.sol\":3474:3487  return _owner */\n  swap1\n  pop\n    /* \"contracts/Pool/Pool.sol\":3417:3494  function owner() public view returns (address) {... */\n  swap1\n  jump\t// out\n    /* \"#utility.yul\":7:84   */\ntag_33:\n    /* \"#utility.yul\":44:51   */\n  0x00\n    /* \"#utility.yul\":73:78   */\n  dup2\n    /* \"#utility.yul\":62:78   */\n  swap1\n  pop\n    /* \"#utility.yul\":7:84   */\n  swap2\n  swap1\n  pop\n  jump\t// out\n    /* \"#utility.yul\":90:270   */\ntag_34:\n    /* \"#utility.yul\":138:215   */\n  0x4e487b7100000000000000000000000000000000000000000000000000000000\n    /* \"#utility.yul\":135:136   */\n  0x00\n    /* \"#utility.yul\":128:216   */\n  mstore\n    /* \"#utility.yul\":235:239   */\n  0x12\n    /* \"#utility.yul\":232:233   */\n  0x04\n    /* \"#utility.yul\":225:240   */\n  mstore\n    /* \"#utility.yul\":259:263   */\n  0x24\n    /* \"#utility.yul\":256:257   */\n  0x00\n    /* \"#utility.yul\":249:264   */\n  revert\n    /* \"#utility.yul\":276:452   */\ntag_2:\n    /* \"#utility.yul\":308:309   */\n  0x00\n    /* \"#utility.yul\":325:345   */\n  tag_49\n    /* \"#utility.yul\":343:344   */\n  dup3\n    /* \"#utility.yul\":325:345   */\n  tag_33\n  jump\t// in\ntag_49:\n    /* \"#utility.yul\":320:345   */\n  swap2\n  pop\n    /* \"#utility.yul\":359:379   */\n  tag_50\n    /* \"#utility.yul\":377:378   */\n  dup4\n    /* \"#utility.yul\":359:379   */\n  tag_33\n  jump\t// in\ntag_50:\n    /* \"#utility.yul\":354:379   */\n  swap3\n  pop\n    /* \"#utility.yul\":398:399   */\n  dup3\n    /* \"#utility.yul\":388:423   */\n  tag_51\n  jumpi\n    /* \"#utility.yul\":403:421   */\n  tag_52\n  tag_34\n  jump\t// in\ntag_52:\n    /* \"#utility.yul\":388:423   */\ntag_51:\n    /* \"#utility.yul\":444:445   */\n  dup3\n    /* \"#utility.yul\":441:442   */\n  dup3\n    /* \"#utility.yul\":437:446   */\n  mod\n    /* \"#utility.yul\":432:446   */\n  swap1\n  pop\n    /* \"#utility.yul\":276:452   */\n  swap3\n  swap2\n  pop\n  pop\n  jump\t// out\n    /* \"#utility.yul\":458:638   */\ntag_35:\n    /* \"#utility.yul\":506:583   */\n  0x4e487b7100000000000000000000000000000000000000000000000000000000\n    /* \"#utility.yul\":503:504   */\n  0x00\n    /* \"#utility.yul\":496:584   */\n  mstore\n    /* \"#utility.yul\":603:607   */\n  0x11\n    /* \"#utility.yul\":600:601   */\n  0x04\n    /* \"#utility.yul\":593:608   */\n  mstore\n    /* \"#utility.yul\":627:631   */\n  0x24\n    /* \"#utility.yul\":624:625   */\n  0x00\n    /* \"#utility.yul\":617:632   */\n  revert\n    /* \"#utility.yul\":644:835   */\ntag_4:\n    /* \"#utility.yul\":684:688   */\n  0x00\n    /* \"#utility.yul\":704:724   */\n  tag_55\n    /* \"#utility.yul\":722:723   */\n  dup3\n    /* \"#utility.yul\":704:724   */\n  tag_33\n  jump\t// in\ntag_55:\n    /* \"#utility.yul\":699:724   */\n  swap2\n  pop\n    /* \"#utility.yul\":738:758   */\n  tag_56\n    /* \"#utility.yul\":756:757   */\n  dup4\n    /* \"#utility.yul\":738:758   */\n  tag_33\n  jump\t// in\ntag_56:\n    /* \"#utility.yul\":733:758   */\n  swap3\n  pop\n    /* \"#utility.yul\":777:778   */\n  dup3\n    /* \"#utility.yul\":774:775   */\n  dup3\n    /* \"#utility.yul\":771:779   */\n  lt\n    /* \"#utility.yul\":768:802   */\n  iszero\n  tag_57\n  jumpi\n    /* \"#utility.yul\":782:800   */\n  tag_58\n  tag_35\n  jump\t// in\ntag_58:\n    /* \"#utility.yul\":768:802   */\ntag_57:\n    /* \"#utility.yul\":827:828   */\n  dup3\n    /* \"#utility.yul\":824:825   */\n  dup3\n    /* \"#utility.yul\":820:829   */\n  sub\n    /* \"#utility.yul\":812:829   */\n  swap1\n  pop\n    /* \"#utility.yul\":644:835   */\n  swap3\n  swap2\n  pop\n  pop\n  jump\t// out\n    /* \"#utility.yul\":922:1039   */\ntag_37:\n    /* \"#utility.yul\":1031:1032   */\n  0x00\n    /* \"#utility.yul\":1028:1029   */\n  dup1\n    /* \"#utility.yul\":1021:1033   */\n  revert\n    /* \"#utility.yul\":1168:1294   */\ntag_39:\n    /* \"#utility.yul\":1205:1212   */\n  0x00\n    /* \"#utility.yul\":1245:1287   */\n  0xffffffffffffffffffffffffffffffffffffffff\n    /* \"#utility.yul\":1238:1243   */\n  dup3\n    /* \"#utility.yul\":1234:1288   */\n  and\n    /* \"#utility.yul\":1223:1288   */\n  swap1\n  pop\n    /* \"#utility.yul\":1168:1294   */\n  swap2\n  swap1\n  pop\n  jump\t// out\n    /* \"#utility.yul\":1300:1396   */\ntag_40:\n    /* \"#utility.yul\":1337:1344   */\n  0x00\n    /* \"#utility.yul\":1366:1390   */\n  tag_64\n    /* \"#utility.yul\":1384:1389   */\n  dup3\n    /* \"#utility.yul\":1366:1390   */\n  tag_39\n  jump\t// in\ntag_64:\n    /* \"#utility.yul\":1355:1390   */\n  swap1\n  pop\n    /* \"#utility.yul\":1300:1396   */\n  swap2\n  swap1\n  pop\n  jump\t// out\n    /* \"#utility.yul\":1402:1524   */\ntag_41:\n    /* \"#utility.yul\":1475:1499   */\n  tag_66\n    /* \"#utility.yul\":1493:1498   */\n  dup2\n    /* \"#utility.yul\":1475:1499   */\n  tag_40\n  jump\t// in\ntag_66:\n    /* \"#utility.yul\":1468:1473   */\n  dup2\n    /* \"#utility.yul\":1465:1500   */\n  eq\n    /* \"#utility.yul\":1455:1518   */\n  tag_67\n  jumpi\n    /* \"#utility.yul\":1514:1515   */\n  0x00\n    /* \"#utility.yul\":1511:1512   */\n  dup1\n    /* \"#utility.yul\":1504:1516   */\n  revert\n    /* \"#utility.yul\":1455:1518   */\ntag_67:\n    /* \"#utility.yul\":1402:1524   */\n  pop\n  jump\t// out\n    /* \"#utility.yul\":1530:1673   */\ntag_42:\n    /* \"#utility.yul\":1587:1592   */\n  0x00\n    /* \"#utility.yul\":1618:1624   */\n  dup2\n    /* \"#utility.yul\":1612:1625   */\n  mload\n    /* \"#utility.yul\":1603:1625   */\n  swap1\n  pop\n    /* \"#utility.yul\":1634:1667   */\n  tag_69\n    /* \"#utility.yul\":1661:1666   */\n  dup2\n    /* \"#utility.yul\":1634:1667   */\n  tag_41\n  jump\t// in\ntag_69:\n    /* \"#utility.yul\":1530:1673   */\n  swap3\n  swap2\n  pop\n  pop\n  jump\t// out\n    /* \"#utility.yul\":1679:2030   */\ntag_16:\n    /* \"#utility.yul\":1749:1755   */\n  0x00\n    /* \"#utility.yul\":1798:1800   */\n  0x20\n    /* \"#utility.yul\":1786:1795   */\n  dup3\n    /* \"#utility.yul\":1777:1784   */\n  dup5\n    /* \"#utility.yul\":1773:1796   */\n  sub\n    /* \"#utility.yul\":1769:1801   */\n  slt\n    /* \"#utility.yul\":1766:1885   */\n  iszero\n  tag_71\n  jumpi\n    /* \"#utility.yul\":1804:1883   */\n  tag_72\n  tag_37\n  jump\t// in\ntag_72:\n    /* \"#utility.yul\":1766:1885   */\ntag_71:\n    /* \"#utility.yul\":1924:1925   */\n  0x00\n    /* \"#utility.yul\":1949:2013   */\n  tag_73\n    /* \"#utility.yul\":2005:2012   */\n  dup5\n    /* \"#utility.yul\":1996:2002   */\n  dup3\n    /* \"#utility.yul\":1985:1994   */\n  dup6\n    /* \"#utility.yul\":1981:2003   */\n  add\n    /* \"#utility.yul\":1949:2013   */\n  tag_42\n  jump\t// in\ntag_73:\n    /* \"#utility.yul\":1939:2013   */\n  swap2\n  pop\n    /* \"#utility.yul\":1895:2023   */\n  pop\n    /* \"#utility.yul\":1679:2030   */\n  swap3\n  swap2\n  pop\n  pop\n  jump\t// out\n    /* \"#utility.yul\":2036:2154   */\ntag_43:\n    /* \"#utility.yul\":2123:2147   */\n  tag_75\n    /* \"#utility.yul\":2141:2146   */\n  dup2\n    /* \"#utility.yul\":2123:2147   */\n  tag_40\n  jump\t// in\ntag_75:\n    /* \"#utility.yul\":2118:2121   */\n  dup3\n    /* \"#utility.yul\":2111:2148   */\n  mstore\n    /* \"#utility.yul\":2036:2154   */\n  pop\n  pop\n  jump\t// out\n    /* \"#utility.yul\":2160:2492   */\ntag_21:\n    /* \"#utility.yul\":2281:2285   */\n  0x00\n    /* \"#utility.yul\":2319:2321   */\n  0x40\n    /* \"#utility.yul\":2308:2317   */\n  dup3\n    /* \"#utility.yul\":2304:2322   */\n  add\n    /* \"#utility.yul\":2296:2322   */\n  swap1\n  pop\n    /* \"#utility.yul\":2332:2403   */\n  tag_77\n    /* \"#utility.yul\":2400:2401   */\n  0x00\n    /* \"#utility.yul\":2389:2398   */\n  dup4\n    /* \"#utility.yul\":2385:2402   */\n  add\n    /* \"#utility.yul\":2376:2382   */\n  dup6\n    /* \"#utility.yul\":2332:2403   */\n  tag_43\n  jump\t// in\ntag_77:\n    /* \"#utility.yul\":2413:2485   */\n  tag_78\n    /* \"#utility.yul\":2481:2483   */\n  0x20\n    /* \"#utility.yul\":2470:2479   */\n  dup4\n    /* \"#utility.yul\":2466:2484   */\n  add\n    /* \"#utility.yul\":2457:2463   */\n  dup5\n    /* \"#utility.yul\":2413:2485   */\n  tag_43\n  jump\t// in\ntag_78:\n    /* \"#utility.yul\":2160:2492   */\n  swap4\n  swap3\n  pop\n  pop\n  pop\n  jump\t// out\n    /* \"#utility.yul\":2498:2616   */\ntag_44:\n    /* \"#utility.yul\":2585:2609   */\n  tag_80\n    /* \"#utility.yul\":2603:2608   */\n  dup2\n    /* \"#utility.yul\":2585:2609   */\n  tag_33\n  jump\t// in\ntag_80:\n    /* \"#utility.yul\":2580:2583   */\n  dup3\n    /* \"#utility.yul\":2573:2610   */\n  mstore\n    /* \"#utility.yul\":2498:2616   */\n  pop\n  pop\n  jump\t// out\n    /* \"#utility.yul\":2622:2844   */\ntag_29:\n    /* \"#utility.yul\":2715:2719   */\n  0x00\n    /* \"#utility.yul\":2753:2755   */\n  0x20\n    /* \"#utility.yul\":2742:2751   */\n  dup3\n    /* \"#utility.yul\":2738:2756   */\n  add\n    /* \"#utility.yul\":2730:2756   */\n  swap1\n  pop\n    /* \"#utility.yul\":2766:2837   */\n  tag_82\n    /* \"#utility.yul\":2834:2835   */\n  0x00\n    /* \"#utility.yul\":2823:2832   */\n  dup4\n    /* \"#utility.yul\":2819:2836   */\n  add\n    /* \"#utility.yul\":2810:2816   */\n  dup5\n    /* \"#utility.yul\":2766:2837   */\n  tag_44\n  jump\t// in\ntag_82:\n    /* \"#utility.yul\":2622:2844   */\n  swap3\n  swap2\n  pop\n  pop\n  jump\t// out\n    /* \"contracts/Pool/Pool.sol\":4019:15886  contract World_Step is Context, IERC20, Ownable {... */\ntag_30:\n  dataSize(sub_0)\n  dup1\n  dataOffset(sub_0)\n  0x00\n  codecopy\n  0x00\n  return\nstop\n\nsub_0: assembly {\n        /* \"contracts/Pool/Pool.sol\":4019:15886  contract World_Step is Context, IERC20, Ownable {... */\n      mstore(0x40, 0x80)\n      jumpi(tag_1, lt(calldatasize, 0x04))\n      shr(0xe0, calldataload(0x00))\n      dup1\n      0x758dbe03\n      gt\n      tag_28\n      jumpi\n      dup1\n      0xaad5c023\n      gt\n      tag_29\n      jumpi\n      dup1\n      0xc5cc6b6a\n      gt\n      tag_30\n      jumpi\n      dup1\n      0xc5cc6b6a\n      eq\n      tag_24\n      jumpi\n      dup1\n      0xdd62ed3e\n      eq\n      tag_25\n      jumpi\n      dup1\n      0xe293d316\n      eq\n      tag_26\n      jumpi\n      dup1\n      0xf2fde38b\n      eq\n      tag_27\n      jumpi\n      jump(tag_2)\n    tag_30:\n      dup1\n      0xaad5c023\n      eq\n      tag_21\n      jumpi\n      dup1\n      0xc3c8cd80\n      eq\n      tag_22\n      jumpi\n      dup1\n      0xc492f046\n      eq\n      tag_23\n      jumpi\n      jump(tag_2)\n    tag_29:\n      dup1\n      0x758dbe03\n      eq\n      tag_15\n      jumpi\n      dup1\n      0x8da5cb5b\n      eq\n      tag_16\n      jumpi\n      dup1\n      0x95d89b41\n      eq\n      tag_17\n      jumpi\n      dup1\n      0xa2a957bb\n      eq\n      tag_18\n      jumpi\n      dup1\n      0xa6246d09\n      eq\n      tag_19\n      jumpi\n      dup1\n      0xa9059cbb\n      eq\n      tag_20\n      jumpi\n      jump(tag_2)\n    tag_28:\n      dup1\n      0x49bd5a5e\n      gt\n      tag_31\n      jumpi\n      dup1\n      0x49bd5a5e\n      eq\n      tag_9\n      jumpi\n      dup1\n      0x59d0f713\n      eq\n      tag_10\n      jumpi\n      dup1\n      0x6d8aa8f8\n      eq\n      tag_11\n      jumpi\n      dup1\n      0x6fc3eaec\n      eq\n      tag_12\n      jumpi\n      dup1\n      0x70a08231\n      eq\n      tag_13\n      jumpi\n      dup1\n      0x715018a6\n      eq\n      tag_14\n      jumpi\n      jump(tag_2)\n    tag_31:\n      dup1\n      0x06fdde03\n      eq\n      tag_3\n      jumpi\n      dup1\n      0x095ea7b3\n      eq\n      tag_4\n      jumpi\n      dup1\n      0x1694505e\n      eq\n      tag_5\n      jumpi\n      dup1\n      0x18160ddd\n      eq\n      tag_6\n      jumpi\n      dup1\n      0x23b872dd\n      eq\n      tag_7\n      jumpi\n      dup1\n      0x313ce567\n      eq\n      tag_8\n      jumpi\n      jump(tag_2)\n    tag_1:\n      jumpi(tag_2, calldatasize)\n      stop\n    tag_2:\n      0x00\n      dup1\n      revert\n        /* \"contracts/Pool/Pool.sol\":6332:6413  function name() public pure returns (string memory) {... */\n    tag_3:\n      callvalue\n      dup1\n      iszero\n      tag_34\n      jumpi\n      0x00\n      dup1\n      revert\n    tag_34:\n      pop\n      tag_35\n      tag_36\n      jump\t// in\n    tag_35:\n      mload(0x40)\n      tag_37\n      swap2\n      swap1\n      tag_38\n      jump\t// in\n    tag_37:\n      mload(0x40)\n      dup1\n      swap2\n      sub\n      swap1\n      return\n        /* \"contracts/Pool/Pool.sol\":7155:7313  function approve(address spender, uint256 amount) public override returns (bool) {... */\n    tag_4:\n      callvalue\n      dup1\n      iszero\n      tag_39\n      jumpi\n      0x00\n      dup1\n      revert\n    tag_39:\n      pop\n      tag_40\n      0x04\n      dup1\n      calldatasize\n      sub\n      dup2\n      add\n      swap1\n      tag_41\n      swap2\n      swap1\n      tag_42\n      jump\t// in\n    tag_41:\n      tag_43\n      jump\t// in\n    tag_40:\n      mload(0x40)\n      tag_44\n      swap2\n      swap1\n      tag_45\n      jump\t// in\n    tag_44:\n      mload(0x40)\n      dup1\n      swap2\n      sub\n      swap1\n      return\n        /* \"contracts/Pool/Pool.sol\":5219:5260  IUniswapV2Router02 public uniswapV2Router */\n    tag_5:\n      callvalue\n      dup1\n      iszero\n      tag_46\n      jumpi\n      0x00\n      dup1\n      revert\n    tag_46:\n      pop\n      tag_47\n      tag_48\n      jump\t// in\n    tag_47:\n      mload(0x40)\n      tag_49\n      swap2\n      swap1\n      tag_50\n      jump\t// in\n    tag_49:\n      mload(0x40)\n      dup1\n      swap2\n      sub\n      swap1\n      return\n        /* \"contracts/Pool/Pool.sol\":6597:6690  function totalSupply() public pure override returns (uint256) {... */\n    tag_6:\n      callvalue\n      dup1\n      iszero\n      tag_51\n      jumpi\n      0x00\n      dup1\n      revert\n    tag_51:\n      pop\n      tag_52\n      tag_53\n      jump\t// in\n    tag_52:\n      mload(0x40)\n      tag_54\n      swap2\n      swap1\n      tag_55\n      jump\t// in\n    tag_54:\n      mload(0x40)\n      dup1\n      swap2\n      sub\n      swap1\n      return\n        /* \"contracts/Pool/Pool.sol\":7319:7628  function transferFrom(address sender, address recipient, uint256 amount) public override returns (bool) {... */\n    tag_7:\n      callvalue\n      dup1\n      iszero\n      tag_56\n      jumpi\n      0x00\n      dup1\n      revert\n    tag_56:\n      pop\n      tag_57\n      0x04\n      dup1\n      calldatasize\n      sub\n      dup2\n      add\n      swap1\n      tag_58\n      swap2\n      swap1\n      tag_59\n      jump\t// in\n    tag_58:\n      tag_60\n      jump\t// in\n    tag_57:\n      mload(0x40)\n      tag_61\n      swap2\n      swap1\n      tag_45\n      jump\t// in\n    tag_61:\n      mload(0x40)\n      dup1\n      swap2\n      sub\n      swap1\n      return\n        /* \"contracts/Pool/Pool.sol\":6510:6591  function decimals() public pure returns (uint8) {... */\n    tag_8:\n      callvalue\n      dup1\n      iszero\n      tag_62\n      jumpi\n      0x00\n      dup1\n      revert\n    tag_62:\n      pop\n      tag_63\n      tag_64\n      jump\t// in\n    tag_63:\n      mload(0x40)\n      tag_65\n      swap2\n      swap1\n      tag_66\n      jump\t// in\n    tag_65:\n      mload(0x40)\n      dup1\n      swap2\n      sub\n      swap1\n      return\n        /* \"contracts/Pool/Pool.sol\":5343:5371  address public uniswapV2Pair */\n    tag_9:\n      callvalue\n      dup1\n      iszero\n      tag_67\n      jumpi\n      0x00\n      dup1\n      revert\n    tag_67:\n      pop\n      tag_68\n      tag_69\n      jump\t// in\n    tag_68:\n      mload(0x40)\n      tag_70\n      swap2\n      swap1\n      tag_71\n      jump\t// in\n    tag_70:\n      mload(0x40)\n      dup1\n      swap2\n      sub\n      swap1\n      return\n        /* \"contracts/Pool/Pool.sol\":5266:5307  IUniswapV2Factory public uniswapV2Factory */\n    tag_10:\n      callvalue\n      dup1\n      iszero\n      tag_72\n      jumpi\n      0x00\n      dup1\n      revert\n    tag_72:\n      pop\n      tag_73\n      tag_74\n      jump\t// in\n    tag_73:\n      mload(0x40)\n      tag_75\n      swap2\n      swap1\n      tag_76\n      jump\t// in\n    tag_75:\n      mload(0x40)\n      dup1\n      swap2\n      sub\n      swap1\n      return\n        /* \"contracts/Pool/Pool.sol\":15551:15648  function toggleSwap(bool _swapEnabled) public onlyDev {... */\n    tag_11:\n      callvalue\n      dup1\n      iszero\n      tag_77\n      jumpi\n      0x00\n      dup1\n      revert\n    tag_77:\n      pop\n      tag_78\n      0x04\n      dup1\n      calldatasize\n      sub\n      dup2\n      add\n      swap1\n      tag_79\n      swap2\n      swap1\n      tag_80\n      jump\t// in\n    tag_79:\n      tag_81\n      jump\t// in\n    tag_78:\n      stop\n        /* \"contracts/Pool/Pool.sol\":14731:14989  function manualsend() external {... */\n    tag_12:\n      callvalue\n      dup1\n      iszero\n      tag_82\n      jumpi\n      0x00\n      dup1\n      revert\n    tag_82:\n      pop\n      tag_83\n      tag_84\n      jump\t// in\n    tag_83:\n      stop\n        /* \"contracts/Pool/Pool.sol\":6696:6832  function balanceOf(address account) public view override returns (uint256) {... */\n    tag_13:\n      callvalue\n      dup1\n      iszero\n      tag_85\n      jumpi\n      0x00\n      dup1\n      revert\n    tag_85:\n      pop\n      tag_86\n      0x04\n      dup1\n      calldatasize\n      sub\n      dup2\n      add\n      swap1\n      tag_87\n      swap2\n      swap1\n      tag_88\n      jump\t// in\n    tag_87:\n      tag_89\n      jump\t// in\n    tag_86:\n      mload(0x40)\n      tag_90\n      swap2\n      swap1\n      tag_55\n      jump\t// in\n    tag_90:\n      mload(0x40)\n      dup1\n      swap2\n      sub\n      swap1\n      return\n        /* \"contracts/Pool/Pool.sol\":3613:3758  function renounceOwnership() public virtual onlyOwner {... */\n    tag_14:\n      callvalue\n      dup1\n      iszero\n      tag_91\n      jumpi\n      0x00\n      dup1\n      revert\n    tag_91:\n      pop\n      tag_92\n      tag_93\n      jump\t// in\n    tag_92:\n      stop\n        /* \"contracts/Pool/Pool.sol\":11680:11913  function setNewMarketingAddress(address payable markt) public onlyDev() {... */\n    tag_15:\n      callvalue\n      dup1\n      iszero\n      tag_94\n      jumpi\n      0x00\n      dup1\n      revert\n    tag_94:\n      pop\n      tag_95\n      0x04\n      dup1\n      calldatasize\n      sub\n      dup2\n      add\n      swap1\n      tag_96\n      swap2\n      swap1\n      tag_97\n      jump\t// in\n    tag_96:\n      tag_98\n      jump\t// in\n    tag_95:\n      stop\n        /* \"contracts/Pool/Pool.sol\":3417:3494  function owner() public view returns (address) {... */\n    tag_16:\n      callvalue\n      dup1\n      iszero\n      tag_99\n      jumpi\n      0x00\n      dup1\n      revert\n    tag_99:\n      pop\n      tag_100\n      tag_101\n      jump\t// in\n    tag_100:\n      mload(0x40)\n      tag_102\n      swap2\n      swap1\n      tag_71\n      jump\t// in\n    tag_102:\n      mload(0x40)\n      dup1\n      swap2\n      sub\n      swap1\n      return\n        /* \"contracts/Pool/Pool.sol\":6419:6504  function symbol() public pure returns (string memory) {... */\n    tag_17:\n      callvalue\n      dup1\n      iszero\n      tag_103\n      jumpi\n      0x00\n      dup1\n      revert\n    tag_103:\n      pop\n      tag_104\n      tag_105\n      jump\t// in\n    tag_104:\n      mload(0x40)\n      tag_106\n      swap2\n      swap1\n      tag_38\n      jump\t// in\n    tag_106:\n      mload(0x40)\n      dup1\n      swap2\n      sub\n      swap1\n      return\n        /* \"contracts/Pool/Pool.sol\":14999:15541  function setFee(uint256 redisFeeOnBuy, uint256 redisFeeOnSell, uint256 taxFeeOnBuy, uint256 taxFeeOnSell) public onlyDev {... */\n    tag_18:\n      callvalue\n      dup1\n      iszero\n      tag_107\n      jumpi\n      0x00\n      dup1\n      revert\n    tag_107:\n      pop\n      tag_108\n      0x04\n      dup1\n      calldatasize\n      sub\n      dup2\n      add\n      swap1\n      tag_109\n      swap2\n      swap1\n      tag_110\n      jump\t// in\n    tag_109:\n      tag_111\n      jump\t// in\n    tag_108:\n      stop\n        /* \"contracts/Pool/Pool.sol\":8503:8718  function _test() public { ... */\n    tag_19:\n      callvalue\n      dup1\n      iszero\n      tag_112\n      jumpi\n      0x00\n      dup1\n      revert\n    tag_112:\n      pop\n      tag_113\n      tag_114\n      jump\t// in\n    tag_113:\n      stop\n        /* \"contracts/Pool/Pool.sol\":6838:7002  function transfer(address recipient, uint256 amount) public override returns (bool) {... */\n    tag_20:\n      callvalue\n      dup1\n      iszero\n      tag_115\n      jumpi\n      0x00\n      dup1\n      revert\n    tag_115:\n      pop\n      tag_116\n      0x04\n      dup1\n      calldatasize\n      sub\n      dup2\n      add\n      swap1\n      tag_117\n      swap2\n      swap1\n      tag_42\n      jump\t// in\n    tag_117:\n      tag_118\n      jump\t// in\n    tag_116:\n      mload(0x40)\n      tag_119\n      swap2\n      swap1\n      tag_45\n      jump\t// in\n    tag_119:\n      mload(0x40)\n      dup1\n      swap2\n      sub\n      swap1\n      return\n        /* \"contracts/Pool/Pool.sol\":11367:11588  function setNewDevAddress(address payable dev) public onlyDev() {... */\n    tag_21:\n      callvalue\n      dup1\n      iszero\n      tag_120\n      jumpi\n      0x00\n      dup1\n      revert\n    tag_120:\n      pop\n      tag_121\n      0x04\n      dup1\n      calldatasize\n      sub\n      dup2\n      add\n      swap1\n      tag_122\n      swap2\n      swap1\n      tag_97\n      jump\t// in\n    tag_122:\n      tag_123\n      jump\t// in\n    tag_121:\n      stop\n        /* \"contracts/Pool/Pool.sol\":14466:14725  function manualswap() external {... */\n    tag_22:\n      callvalue\n      dup1\n      iszero\n      tag_124\n      jumpi\n      0x00\n      dup1\n      revert\n    tag_124:\n      pop\n      tag_125\n      tag_126\n      jump\t// in\n    tag_125:\n      stop\n        /* \"contracts/Pool/Pool.sol\":15654:15884  function excludeMultipleAccountsFromFees(address[] calldata accounts, bool excluded) public onlyOwner {... */\n    tag_23:\n      callvalue\n      dup1\n      iszero\n      tag_127\n      jumpi\n      0x00\n      dup1\n      revert\n    tag_127:\n      pop\n      tag_128\n      0x04\n      dup1\n      calldatasize\n      sub\n      dup2\n      add\n      swap1\n      tag_129\n      swap2\n      swap1\n      tag_130\n      jump\t// in\n    tag_129:\n      tag_131\n      jump\t// in\n    tag_128:\n      stop\n        /* \"contracts/Pool/Pool.sol\":5314:5337  address public _factory */\n    tag_24:\n      callvalue\n      dup1\n      iszero\n      tag_132\n      jumpi\n      0x00\n      dup1\n      revert\n    tag_132:\n      pop\n      tag_133\n      tag_134\n      jump\t// in\n    tag_133:\n      mload(0x40)\n      tag_135\n      swap2\n      swap1\n      tag_71\n      jump\t// in\n    tag_135:\n      mload(0x40)\n      dup1\n      swap2\n      sub\n      swap1\n      return\n        /* \"contracts/Pool/Pool.sol\":7008:7149  function allowance(address owner, address spender) public view override returns (uint256) {... */\n    tag_25:\n      callvalue\n      dup1\n      iszero\n      tag_136\n      jumpi\n      0x00\n      dup1\n      revert\n    tag_136:\n      pop\n      tag_137\n      0x04\n      dup1\n      calldatasize\n      sub\n      dup2\n      add\n      swap1\n      tag_138\n      swap2\n      swap1\n      tag_139\n      jump\t// in\n    tag_138:\n      tag_140\n      jump\t// in\n    tag_137:\n      mload(0x40)\n      tag_141\n      swap2\n      swap1\n      tag_55\n      jump\t// in\n    tag_141:\n      mload(0x40)\n      dup1\n      swap2\n      sub\n      swap1\n      return\n        /* \"contracts/Pool/Pool.sol\":11076:11281  function rescueForeignTokens(address _tokenAddr, address _to, uint _amount) public onlyDev() {... */\n    tag_26:\n      callvalue\n      dup1\n      iszero\n      tag_142\n      jumpi\n      0x00\n      dup1\n      revert\n    tag_142:\n      pop\n      tag_143\n      0x04\n      dup1\n      calldatasize\n      sub\n      dup2\n      add\n      swap1\n      tag_144\n      swap2\n      swap1\n      tag_59\n      jump\t// in\n    tag_144:\n      tag_145\n      jump\t// in\n    tag_143:\n      stop\n        /* \"contracts/Pool/Pool.sol\":3857:4014  function transferOwnership(address newOwner) public virtual onlyOwner {... */\n    tag_27:\n      callvalue\n      dup1\n      iszero\n      tag_146\n      jumpi\n      0x00\n      dup1\n      revert\n    tag_146:\n      pop\n      tag_147\n      0x04\n      dup1\n      calldatasize\n      sub\n      dup2\n      add\n      swap1\n      tag_148\n      swap2\n      swap1\n      tag_88\n      jump\t// in\n    tag_148:\n      tag_149\n      jump\t// in\n    tag_147:\n      stop\n        /* \"contracts/Pool/Pool.sol\":6332:6413  function name() public pure returns (string memory) {... */\n    tag_36:\n        /* \"contracts/Pool/Pool.sol\":6369:6382  string memory */\n      0x60\n        /* \"contracts/Pool/Pool.sol\":6401:6406  _name */\n      mload(0x40)\n      dup1\n      0x40\n      add\n      0x40\n      mstore\n      dup1\n      0x0a\n      dup2\n      mstore\n      0x20\n      add\n      0x576f726c64205374657000000000000000000000000000000000000000000000\n      dup2\n      mstore\n      pop\n        /* \"contracts/Pool/Pool.sol\":6394:6406  return _name */\n      swap1\n      pop\n        /* \"contracts/Pool/Pool.sol\":6332:6413  function name() public pure returns (string memory) {... */\n      swap1\n      jump\t// out\n        /* \"contracts/Pool/Pool.sol\":7155:7313  function approve(address spender, uint256 amount) public override returns (bool) {... */\n    tag_43:\n        /* \"contracts/Pool/Pool.sol\":7230:7234  bool */\n      0x00\n        /* \"contracts/Pool/Pool.sol\":7246:7285  _approve(_msgSender(), spender, amount) */\n      tag_152\n        /* \"contracts/Pool/Pool.sol\":7255:7267  _msgSender() */\n      tag_153\n        /* \"contracts/Pool/Pool.sol\":7255:7265  _msgSender */\n      tag_154\n        /* \"contracts/Pool/Pool.sol\":7255:7267  _msgSender() */\n      jump\t// in\n    tag_153:\n        /* \"contracts/Pool/Pool.sol\":7269:7276  spender */\n      dup5\n        /* \"contracts/Pool/Pool.sol\":7278:7284  amount */\n      dup5\n        /* \"contracts/Pool/Pool.sol\":7246:7254  _approve */\n      tag_155\n        /* \"contracts/Pool/Pool.sol\":7246:7285  _approve(_msgSender(), spender, amount) */\n      jump\t// in\n    tag_152:\n        /* \"contracts/Pool/Pool.sol\":7302:7306  true */\n      0x01\n        /* \"contracts/Pool/Pool.sol\":7295:7306  return true */\n      swap1\n      pop\n        /* \"contracts/Pool/Pool.sol\":7155:7313  function approve(address spender, uint256 amount) public override returns (bool) {... */\n      swap3\n      swap2\n      pop\n      pop\n      jump\t// out\n        /* \"contracts/Pool/Pool.sol\":5219:5260  IUniswapV2Router02 public uniswapV2Router */\n    tag_48:\n      0x11\n      0x00\n      swap1\n      sload\n      swap1\n      0x0100\n      exp\n      swap1\n      div\n      0xffffffffffffffffffffffffffffffffffffffff\n      and\n      dup2\n      jump\t// out\n        /* \"contracts/Pool/Pool.sol\":6597:6690  function totalSupply() public pure override returns (uint256) {... */\n    tag_53:\n        /* \"contracts/Pool/Pool.sol\":6650:6657  uint256 */\n      0x00\n        /* \"contracts/Pool/Pool.sol\":4427:4445  1000000000 * 10**9 */\n      0x0de0b6b3a7640000\n        /* \"contracts/Pool/Pool.sol\":6669:6683  return _tTotal */\n      swap1\n      pop\n        /* \"contracts/Pool/Pool.sol\":6597:6690  function totalSupply() public pure override returns (uint256) {... */\n      swap1\n      jump\t// out\n        /* \"contracts/Pool/Pool.sol\":7319:7628  function transferFrom(address sender, address recipient, uint256 amount) public override returns (bool) {... */\n    tag_60:\n        /* \"contracts/Pool/Pool.sol\":7417:7421  bool */\n      0x00\n        /* \"contracts/Pool/Pool.sol\":7433:7469  _transfer(sender, recipient, amount) */\n      tag_158\n        /* \"contracts/Pool/Pool.sol\":7443:7449  sender */\n      dup5\n        /* \"contracts/Pool/Pool.sol\":7451:7460  recipient */\n      dup5\n        /* \"contracts/Pool/Pool.sol\":7462:7468  amount */\n      dup5\n        /* \"contracts/Pool/Pool.sol\":7433:7442  _transfer */\n      tag_159\n        /* \"contracts/Pool/Pool.sol\":7433:7469  _transfer(sender, recipient, amount) */\n      jump\t// in\n    tag_158:\n        /* \"contracts/Pool/Pool.sol\":7479:7600  _approve(sender, _msgSender(), _allowances[sender][_msgSender()].sub(amount, \"ERC20: transfer amount exceeds allowance\")) */\n      tag_160\n        /* \"contracts/Pool/Pool.sol\":7488:7494  sender */\n      dup5\n        /* \"contracts/Pool/Pool.sol\":7496:7508  _msgSender() */\n      tag_161\n        /* \"contracts/Pool/Pool.sol\":7496:7506  _msgSender */\n      tag_154\n        /* \"contracts/Pool/Pool.sol\":7496:7508  _msgSender() */\n      jump\t// in\n    tag_161:\n        /* \"contracts/Pool/Pool.sol\":7510:7599  _allowances[sender][_msgSender()].sub(amount, \"ERC20: transfer amount exceeds allowance\") */\n      tag_162\n        /* \"contracts/Pool/Pool.sol\":7548:7554  amount */\n      dup6\n        /* \"contracts/Pool/Pool.sol\":7510:7599  _allowances[sender][_msgSender()].sub(amount, \"ERC20: transfer amount exceeds allowance\") */\n      mload(0x40)\n      dup1\n      0x60\n      add\n      0x40\n      mstore\n      dup1\n      0x28\n      dup2\n      mstore\n      0x20\n      add\n      data_974d1b4421da69cc60b481194f0dad36a5bb4e23da810da7a7fb30cdba178330\n      0x28\n      swap2\n      codecopy\n        /* \"contracts/Pool/Pool.sol\":7510:7521  _allowances */\n      0x04\n        /* \"contracts/Pool/Pool.sol\":7510:7529  _allowances[sender] */\n      0x00\n        /* \"contracts/Pool/Pool.sol\":7522:7528  sender */\n      dup12\n        /* \"contracts/Pool/Pool.sol\":7510:7529  _allowances[sender] */\n      0xffffffffffffffffffffffffffffffffffffffff\n      and\n      0xffffffffffffffffffffffffffffffffffffffff\n      and\n      dup2\n      mstore\n      0x20\n      add\n      swap1\n      dup2\n      mstore\n      0x20\n      add\n      0x00\n      keccak256\n        /* \"contracts/Pool/Pool.sol\":7510:7543  _allowances[sender][_msgSender()] */\n      0x00\n        /* \"contracts/Pool/Pool.sol\":7530:7542  _msgSender() */\n      tag_163\n        /* \"contracts/Pool/Pool.sol\":7530:7540  _msgSender */\n      tag_154\n        /* \"contracts/Pool/Pool.sol\":7530:7542  _msgSender() */\n      jump\t// in\n    tag_163:\n        /* \"contracts/Pool/Pool.sol\":7510:7543  _allowances[sender][_msgSender()] */\n      0xffffffffffffffffffffffffffffffffffffffff\n      and\n      0xffffffffffffffffffffffffffffffffffffffff\n      and\n      dup2\n      mstore\n      0x20\n      add\n      swap1\n      dup2\n      mstore\n      0x20\n      add\n      0x00\n      keccak256\n      sload\n        /* \"contracts/Pool/Pool.sol\":7510:7547  _allowances[sender][_msgSender()].sub */\n      tag_164\n      swap1\n        /* \"contracts/Pool/Pool.sol\":7510:7599  _allowances[sender][_msgSender()].sub(amount, \"ERC20: transfer amount exceeds allowance\") */\n      swap3\n      swap2\n      swap1\n      0xffffffff\n      and\n      jump\t// in\n    tag_162:\n        /* \"contracts/Pool/Pool.sol\":7479:7487  _approve */\n      tag_155\n        /* \"contracts/Pool/Pool.sol\":7479:7600  _approve(sender, _msgSender(), _allowances[sender][_msgSender()].sub(amount, \"ERC20: transfer amount exceeds allowance\")) */\n      jump\t// in\n    tag_160:\n        /* \"contracts/Pool/Pool.sol\":7617:7621  true */\n      0x01\n        /* \"contracts/Pool/Pool.sol\":7610:7621  return true */\n      swap1\n      pop\n        /* \"contracts/Pool/Pool.sol\":7319:7628  function transferFrom(address sender, address recipient, uint256 amount) public override returns (bool) {... */\n      swap4\n      swap3\n      pop\n      pop\n      pop\n      jump\t// out\n        /* \"contracts/Pool/Pool.sol\":6510:6591  function decimals() public pure returns (uint8) {... */\n    tag_64:\n        /* \"contracts/Pool/Pool.sol\":6551:6556  uint8 */\n      0x00\n        /* \"contracts/Pool/Pool.sol\":4906:4907  9 */\n      0x09\n        /* \"contracts/Pool/Pool.sol\":6568:6584  return _decimals */\n      swap1\n      pop\n        /* \"contracts/Pool/Pool.sol\":6510:6591  function decimals() public pure returns (uint8) {... */\n      swap1\n      jump\t// out\n        /* \"contracts/Pool/Pool.sol\":5343:5371  address public uniswapV2Pair */\n    tag_69:\n      0x14\n      0x00\n      swap1\n      sload\n      swap1\n      0x0100\n      exp\n      swap1\n      div\n      0xffffffffffffffffffffffffffffffffffffffff\n      and\n      dup2\n      jump\t// out\n        /* \"contracts/Pool/Pool.sol\":5266:5307  IUniswapV2Factory public uniswapV2Factory */\n    tag_74:\n      0x12\n      0x00\n      swap1\n      sload\n      swap1\n      0x0100\n      exp\n      swap1\n      div\n      0xffffffffffffffffffffffffffffffffffffffff\n      and\n      dup2\n      jump\t// out\n        /* \"contracts/Pool/Pool.sol\":15551:15648  function toggleSwap(bool _swapEnabled) public onlyDev {... */\n    tag_81:\n        /* \"contracts/Pool/Pool.sol\":6229:6241  _msgSender() */\n      tag_167\n        /* \"contracts/Pool/Pool.sol\":6229:6239  _msgSender */\n      tag_154\n        /* \"contracts/Pool/Pool.sol\":6229:6241  _msgSender() */\n      jump\t// in\n    tag_167:\n        /* \"contracts/Pool/Pool.sol\":6218:6241  owner() == _msgSender() */\n      0xffffffffffffffffffffffffffffffffffffffff\n      and\n        /* \"contracts/Pool/Pool.sol\":6218:6225  owner() */\n      tag_168\n        /* \"contracts/Pool/Pool.sol\":6218:6223  owner */\n      tag_101\n        /* \"contracts/Pool/Pool.sol\":6218:6225  owner() */\n      jump\t// in\n    tag_168:\n        /* \"contracts/Pool/Pool.sol\":6218:6241  owner() == _msgSender() */\n      0xffffffffffffffffffffffffffffffffffffffff\n      and\n      eq\n        /* \"contracts/Pool/Pool.sol\":6218:6280  owner() == _msgSender() || _developmentAddress == _msgSender() */\n      dup1\n      tag_169\n      jumpi\n      pop\n        /* \"contracts/Pool/Pool.sol\":6268:6280  _msgSender() */\n      tag_170\n        /* \"contracts/Pool/Pool.sol\":6268:6278  _msgSender */\n      tag_154\n        /* \"contracts/Pool/Pool.sol\":6268:6280  _msgSender() */\n      jump\t// in\n    tag_170:\n        /* \"contracts/Pool/Pool.sol\":6245:6280  _developmentAddress == _msgSender() */\n      0xffffffffffffffffffffffffffffffffffffffff\n      and\n        /* \"contracts/Pool/Pool.sol\":6245:6264  _developmentAddress */\n      0x0e\n      0x00\n      swap1\n      sload\n      swap1\n      0x0100\n      exp\n      swap1\n      div\n      0xffffffffffffffffffffffffffffffffffffffff\n      and\n        /* \"contracts/Pool/Pool.sol\":6245:6280  _developmentAddress == _msgSender() */\n      0xffffffffffffffffffffffffffffffffffffffff\n      and\n      eq\n        /* \"contracts/Pool/Pool.sol\":6218:6280  owner() == _msgSender() || _developmentAddress == _msgSender() */\n    tag_169:\n        /* \"contracts/Pool/Pool.sol\":6210:6306  require(owner() == _msgSender() || _developmentAddress == _msgSender(), \"Caller is not the dev\") */\n      tag_171\n      jumpi\n      mload(0x40)\n      0x08c379a000000000000000000000000000000000000000000000000000000000\n      dup2\n      mstore\n      0x04\n      add\n      tag_172\n      swap1\n      tag_173\n      jump\t// in\n    tag_172:\n      mload(0x40)\n      dup1\n      swap2\n      sub\n      swap1\n      revert\n    tag_171:\n        /* \"contracts/Pool/Pool.sol\":15629:15641  _swapEnabled */\n      dup1\n        /* \"contracts/Pool/Pool.sol\":15615:15626  swapEnabled */\n      0x14\n      0x15\n        /* \"contracts/Pool/Pool.sol\":15615:15641  swapEnabled = _swapEnabled */\n      0x0100\n      exp\n      dup2\n      sload\n      dup2\n      0xff\n      mul\n      not\n      and\n      swap1\n      dup4\n      iszero\n      iszero\n      mul\n      or\n      swap1\n      sstore\n      pop\n        /* \"contracts/Pool/Pool.sol\":15551:15648  function toggleSwap(bool _swapEnabled) public onlyDev {... */\n      pop\n      jump\t// out\n        /* \"contracts/Pool/Pool.sol\":14731:14989  function manualsend() external {... */\n    tag_84:\n        /* \"contracts/Pool/Pool.sol\":14796:14815  _developmentAddress */\n      0x0e\n      0x00\n      swap1\n      sload\n      swap1\n      0x0100\n      exp\n      swap1\n      div\n      0xffffffffffffffffffffffffffffffffffffffff\n      and\n        /* \"contracts/Pool/Pool.sol\":14780:14815  _msgSender() == _developmentAddress */\n      0xffffffffffffffffffffffffffffffffffffffff\n      and\n        /* \"contracts/Pool/Pool.sol\":14780:14792  _msgSender() */\n      tag_176\n        /* \"contracts/Pool/Pool.sol\":14780:14790  _msgSender */\n      tag_154\n        /* \"contracts/Pool/Pool.sol\":14780:14792  _msgSender() */\n      jump\t// in\n    tag_176:\n        /* \"contracts/Pool/Pool.sol\":14780:14815  _msgSender() == _developmentAddress */\n      0xffffffffffffffffffffffffffffffffffffffff\n      and\n      eq\n        /* \"contracts/Pool/Pool.sol\":14780:14852  _msgSender() == _developmentAddress || _msgSender() == _marketingAddress */\n      dup1\n      tag_177\n      jumpi\n      pop\n        /* \"contracts/Pool/Pool.sol\":14835:14852  _marketingAddress */\n      0x0f\n      0x00\n      swap1\n      sload\n      swap1\n      0x0100\n      exp\n      swap1\n      div\n      0xffffffffffffffffffffffffffffffffffffffff\n      and\n        /* \"contracts/Pool/Pool.sol\":14819:14852  _msgSender() == _marketingAddress */\n      0xffffffffffffffffffffffffffffffffffffffff\n      and\n        /* \"contracts/Pool/Pool.sol\":14819:14831  _msgSender() */\n      tag_178\n        /* \"contracts/Pool/Pool.sol\":14819:14829  _msgSender */\n      tag_154\n        /* \"contracts/Pool/Pool.sol\":14819:14831  _msgSender() */\n      jump\t// in\n    tag_178:\n        /* \"contracts/Pool/Pool.sol\":14819:14852  _msgSender() == _marketingAddress */\n      0xffffffffffffffffffffffffffffffffffffffff\n      and\n      eq\n        /* \"contracts/Pool/Pool.sol\":14780:14852  _msgSender() == _developmentAddress || _msgSender() == _marketingAddress */\n    tag_177:\n        /* \"contracts/Pool/Pool.sol\":14780:14879  _msgSender() == _developmentAddress || _msgSender() == _marketingAddress || _msgSender() == owner() */\n      dup1\n      tag_179\n      jumpi\n      pop\n        /* \"contracts/Pool/Pool.sol\":14872:14879  owner() */\n      tag_180\n        /* \"contracts/Pool/Pool.sol\":14872:14877  owner */\n      tag_101\n        /* \"contracts/Pool/Pool.sol\":14872:14879  owner() */\n      jump\t// in\n    tag_180:\n        /* \"contracts/Pool/Pool.sol\":14856:14879  _msgSender() == owner() */\n      0xffffffffffffffffffffffffffffffffffffffff\n      and\n        /* \"contracts/Pool/Pool.sol\":14856:14868  _msgSender() */\n      tag_181\n        /* \"contracts/Pool/Pool.sol\":14856:14866  _msgSender */\n      tag_154\n        /* \"contracts/Pool/Pool.sol\":14856:14868  _msgSender() */\n      jump\t// in\n    tag_181:\n        /* \"contracts/Pool/Pool.sol\":14856:14879  _msgSender() == owner() */\n      0xffffffffffffffffffffffffffffffffffffffff\n      and\n      eq\n        /* \"contracts/Pool/Pool.sol\":14780:14879  _msgSender() == _developmentAddress || _msgSender() == _marketingAddress || _msgSender() == owner() */\n    tag_179:\n        /* \"contracts/Pool/Pool.sol\":14772:14880  require(_msgSender() == _developmentAddress || _msgSender() == _marketingAddress || _msgSender() == owner()) */\n      tag_182\n      jumpi\n      0x00\n      dup1\n      revert\n    tag_182:\n        /* \"contracts/Pool/Pool.sol\":14890:14916  uint256 contractETHBalance */\n      0x00\n        /* \"contracts/Pool/Pool.sol\":14919:14940  address(this).balance */\n      selfbalance\n        /* \"contracts/Pool/Pool.sol\":14890:14940  uint256 contractETHBalance = address(this).balance */\n      swap1\n      pop\n        /* \"contracts/Pool/Pool.sol\":14950:14982  sendETHToFee(contractETHBalance) */\n      tag_183\n        /* \"contracts/Pool/Pool.sol\":14963:14981  contractETHBalance */\n      dup2\n        /* \"contracts/Pool/Pool.sol\":14950:14962  sendETHToFee */\n      tag_184\n        /* \"contracts/Pool/Pool.sol\":14950:14982  sendETHToFee(contractETHBalance) */\n      jump\t// in\n    tag_183:\n        /* \"contracts/Pool/Pool.sol\":14762:14989  {... */\n      pop\n        /* \"contracts/Pool/Pool.sol\":14731:14989  function manualsend() external {... */\n      jump\t// out\n        /* \"contracts/Pool/Pool.sol\":6696:6832  function balanceOf(address account) public view override returns (uint256) {... */\n    tag_89:\n        /* \"contracts/Pool/Pool.sol\":6762:6769  uint256 */\n      0x00\n        /* \"contracts/Pool/Pool.sol\":6788:6825  tokenFromReflection(_rOwned[account]) */\n      tag_186\n        /* \"contracts/Pool/Pool.sol\":6808:6815  _rOwned */\n      0x02\n        /* \"contracts/Pool/Pool.sol\":6808:6824  _rOwned[account] */\n      0x00\n        /* \"contracts/Pool/Pool.sol\":6816:6823  account */\n      dup5\n        /* \"contracts/Pool/Pool.sol\":6808:6824  _rOwned[account] */\n      0xffffffffffffffffffffffffffffffffffffffff\n      and\n      0xffffffffffffffffffffffffffffffffffffffff\n      and\n      dup2\n      mstore\n      0x20\n      add\n      swap1\n      dup2\n      mstore\n      0x20\n      add\n      0x00\n      keccak256\n      sload\n        /* \"contracts/Pool/Pool.sol\":6788:6807  tokenFromReflection */\n      tag_187\n        /* \"contracts/Pool/Pool.sol\":6788:6825  tokenFromReflection(_rOwned[account]) */\n      jump\t// in\n    tag_186:\n        /* \"contracts/Pool/Pool.sol\":6781:6825  return tokenFromReflection(_rOwned[account]) */\n      swap1\n      pop\n        /* \"contracts/Pool/Pool.sol\":6696:6832  function balanceOf(address account) public view override returns (uint256) {... */\n      swap2\n      swap1\n      pop\n      jump\t// out\n        /* \"contracts/Pool/Pool.sol\":3613:3758  function renounceOwnership() public virtual onlyOwner {... */\n    tag_93:\n        /* \"contracts/Pool/Pool.sol\":3549:3561  _msgSender() */\n      tag_189\n        /* \"contracts/Pool/Pool.sol\":3549:3559  _msgSender */\n      tag_154\n        /* \"contracts/Pool/Pool.sol\":3549:3561  _msgSender() */\n      jump\t// in\n    tag_189:\n        /* \"contracts/Pool/Pool.sol\":3539:3561  _owner == _msgSender() */\n      0xffffffffffffffffffffffffffffffffffffffff\n      and\n        /* \"contracts/Pool/Pool.sol\":3539:3545  _owner */\n      0x00\n      dup1\n      sload\n      swap1\n      0x0100\n      exp\n      swap1\n      div\n      0xffffffffffffffffffffffffffffffffffffffff\n      and\n        /* \"contracts/Pool/Pool.sol\":3539:3561  _owner == _msgSender() */\n      0xffffffffffffffffffffffffffffffffffffffff\n      and\n      eq\n        /* \"contracts/Pool/Pool.sol\":3531:3589  require(_owner == _msgSender(), \"Caller is not the owner\") */\n      tag_190\n      jumpi\n      mload(0x40)\n      0x08c379a000000000000000000000000000000000000000000000000000000000\n      dup2\n      mstore\n      0x04\n      add\n      tag_191\n      swap1\n      tag_192\n      jump\t// in\n    tag_191:\n      mload(0x40)\n      dup1\n      swap2\n      sub\n      swap1\n      revert\n    tag_190:\n        /* \"contracts/Pool/Pool.sol\":3719:3720  0 */\n      0x00\n        /* \"contracts/Pool/Pool.sol\":3682:3722  OwnershipTransferred(_owner, address(0)) */\n      0xffffffffffffffffffffffffffffffffffffffff\n      and\n        /* \"contracts/Pool/Pool.sol\":3703:3709  _owner */\n      0x00\n      dup1\n      sload\n      swap1\n      0x0100\n      exp\n      swap1\n      div\n      0xffffffffffffffffffffffffffffffffffffffff\n      and\n        /* \"contracts/Pool/Pool.sol\":3682:3722  OwnershipTransferred(_owner, address(0)) */\n      0xffffffffffffffffffffffffffffffffffffffff\n      and\n      0x8be0079c531659141344cd1fd0a4f28419497f9722a3daafe3b4186f6b6457e0\n      mload(0x40)\n      mload(0x40)\n      dup1\n      swap2\n      sub\n      swap1\n      log3\n        /* \"contracts/Pool/Pool.sol\":3749:3750  0 */\n      0x00\n        /* \"contracts/Pool/Pool.sol\":3732:3738  _owner */\n      dup1\n      0x00\n        /* \"contracts/Pool/Pool.sol\":3732:3751  _owner = address(0) */\n      0x0100\n      exp\n      dup2\n      sload\n      dup2\n      0xffffffffffffffffffffffffffffffffffffffff\n      mul\n      not\n      and\n      swap1\n      dup4\n      0xffffffffffffffffffffffffffffffffffffffff\n      and\n      mul\n      or\n      swap1\n      sstore\n      pop\n        /* \"contracts/Pool/Pool.sol\":3613:3758  function renounceOwnership() public virtual onlyOwner {... */\n      jump\t// out\n        /* \"contracts/Pool/Pool.sol\":11680:11913  function setNewMarketingAddress(address payable markt) public onlyDev() {... */\n    tag_98:\n        /* \"contracts/Pool/Pool.sol\":6229:6241  _msgSender() */\n      tag_195\n        /* \"contracts/Pool/Pool.sol\":6229:6239  _msgSender */\n      tag_154\n        /* \"contracts/Pool/Pool.sol\":6229:6241  _msgSender() */\n      jump\t// in\n    tag_195:\n        /* \"contracts/Pool/Pool.sol\":6218:6241  owner() == _msgSender() */\n      0xffffffffffffffffffffffffffffffffffffffff\n      and\n        /* \"contracts/Pool/Pool.sol\":6218:6225  owner() */\n      tag_196\n        /* \"contracts/Pool/Pool.sol\":6218:6223  owner */\n      tag_101\n        /* \"contracts/Pool/Pool.sol\":6218:6225  owner() */\n      jump\t// in\n    tag_196:\n        /* \"contracts/Pool/Pool.sol\":6218:6241  owner() == _msgSender() */\n      0xffffffffffffffffffffffffffffffffffffffff\n      and\n      eq\n        /* \"contracts/Pool/Pool.sol\":6218:6280  owner() == _msgSender() || _developmentAddress == _msgSender() */\n      dup1\n      tag_197\n      jumpi\n      pop\n        /* \"contracts/Pool/Pool.sol\":6268:6280  _msgSender() */\n      tag_198\n        /* \"contracts/Pool/Pool.sol\":6268:6278  _msgSender */\n      tag_154\n        /* \"contracts/Pool/Pool.sol\":6268:6280  _msgSender() */\n      jump\t// in\n    tag_198:\n        /* \"contracts/Pool/Pool.sol\":6245:6280  _developmentAddress == _msgSender() */\n      0xffffffffffffffffffffffffffffffffffffffff\n      and\n        /* \"contracts/Pool/Pool.sol\":6245:6264  _developmentAddress */\n      0x0e\n      0x00\n      swap1\n      sload\n      swap1\n      0x0100\n      exp\n      swap1\n      div\n      0xffffffffffffffffffffffffffffffffffffffff\n      and\n        /* \"contracts/Pool/Pool.sol\":6245:6280  _developmentAddress == _msgSender() */\n      0xffffffffffffffffffffffffffffffffffffffff\n      and\n      eq\n        /* \"contracts/Pool/Pool.sol\":6218:6280  owner() == _msgSender() || _developmentAddress == _msgSender() */\n    tag_197:\n        /* \"contracts/Pool/Pool.sol\":6210:6306  require(owner() == _msgSender() || _developmentAddress == _msgSender(), \"Caller is not the dev\") */\n      tag_199\n      jumpi\n      mload(0x40)\n      0x08c379a000000000000000000000000000000000000000000000000000000000\n      dup2\n      mstore\n      0x04\n      add\n      tag_200\n      swap1\n      tag_173\n      jump\t// in\n    tag_200:\n      mload(0x40)\n      dup1\n      swap2\n      sub\n      swap1\n      revert\n    tag_199:\n        /* \"contracts/Pool/Pool.sol\":11810:11815  markt */\n      dup1\n        /* \"contracts/Pool/Pool.sol\":11767:11816  marketingAddressUpdated(_marketingAddress, markt) */\n      0xffffffffffffffffffffffffffffffffffffffff\n      and\n        /* \"contracts/Pool/Pool.sol\":11791:11808  _marketingAddress */\n      0x0f\n      0x00\n      swap1\n      sload\n      swap1\n      0x0100\n      exp\n      swap1\n      div\n      0xffffffffffffffffffffffffffffffffffffffff\n      and\n        /* \"contracts/Pool/Pool.sol\":11767:11816  marketingAddressUpdated(_marketingAddress, markt) */\n      0xffffffffffffffffffffffffffffffffffffffff\n      and\n      0xa64373a629bc0c09eacf8a9cc2c7b070fa0a8b7e2e9b8aaee408a3c02eb1676b\n      mload(0x40)\n      mload(0x40)\n      dup1\n      swap2\n      sub\n      swap1\n      log3\n        /* \"contracts/Pool/Pool.sol\":11847:11852  markt */\n      dup1\n        /* \"contracts/Pool/Pool.sol\":11827:11844  _marketingAddress */\n      0x0f\n      0x00\n        /* \"contracts/Pool/Pool.sol\":11827:11852  _marketingAddress = markt */\n      0x0100\n      exp\n      dup2\n      sload\n      dup2\n      0xffffffffffffffffffffffffffffffffffffffff\n      mul\n      not\n      and\n      swap1\n      dup4\n      0xffffffffffffffffffffffffffffffffffffffff\n      and\n      mul\n      or\n      swap1\n      sstore\n      pop\n        /* \"contracts/Pool/Pool.sol\":11902:11906  true */\n      0x01\n        /* \"contracts/Pool/Pool.sol\":11862:11880  _isExcludedFromFee */\n      0x05\n        /* \"contracts/Pool/Pool.sol\":11862:11899  _isExcludedFromFee[_marketingAddress] */\n      0x00\n        /* \"contracts/Pool/Pool.sol\":11881:11898  _marketingAddress */\n      0x0f\n      0x00\n      swap1\n      sload\n      swap1\n      0x0100\n      exp\n      swap1\n      div\n      0xffffffffffffffffffffffffffffffffffffffff\n      and\n        /* \"contracts/Pool/Pool.sol\":11862:11899  _isExcludedFromFee[_marketingAddress] */\n      0xffffffffffffffffffffffffffffffffffffffff\n      and\n      0xffffffffffffffffffffffffffffffffffffffff\n      and\n      dup2\n      mstore\n      0x20\n      add\n      swap1\n      dup2\n      mstore\n      0x20\n      add\n      0x00\n      keccak256\n      0x00\n        /* \"contracts/Pool/Pool.sol\":11862:11906  _isExcludedFromFee[_marketingAddress] = true */\n      0x0100\n      exp\n      dup2\n      sload\n      dup2\n      0xff\n      mul\n      not\n      and\n      swap1\n      dup4\n      iszero\n      iszero\n      mul\n      or\n      swap1\n      sstore\n      pop\n        /* \"contracts/Pool/Pool.sol\":11680:11913  function setNewMarketingAddress(address payable markt) public onlyDev() {... */\n      pop\n      jump\t// out\n        /* \"contracts/Pool/Pool.sol\":3417:3494  function owner() public view returns (address) {... */\n    tag_101:\n        /* \"contracts/Pool/Pool.sol\":3455:3462  address */\n      0x00\n        /* \"contracts/Pool/Pool.sol\":3481:3487  _owner */\n      dup1\n      0x00\n      swap1\n      sload\n      swap1\n      0x0100\n      exp\n      swap1\n      div\n      0xffffffffffffffffffffffffffffffffffffffff\n      and\n        /* \"contracts/Pool/Pool.sol\":3474:3487  return _owner */\n      swap1\n      pop\n        /* \"contracts/Pool/Pool.sol\":3417:3494  function owner() public view returns (address) {... */\n      swap1\n      jump\t// out\n        /* \"contracts/Pool/Pool.sol\":6419:6504  function symbol() public pure returns (string memory) {... */\n    tag_105:\n        /* \"contracts/Pool/Pool.sol\":6458:6471  string memory */\n      0x60\n        /* \"contracts/Pool/Pool.sol\":6490:6497  _symbol */\n      mload(0x40)\n      dup1\n      0x40\n      add\n      0x40\n      mstore\n      dup1\n      0x03\n      dup2\n      mstore\n      0x20\n      add\n      0x5753500000000000000000000000000000000000000000000000000000000000\n      dup2\n      mstore\n      pop\n        /* \"contracts/Pool/Pool.sol\":6483:6497  return _symbol */\n      swap1\n      pop\n        /* \"contracts/Pool/Pool.sol\":6419:6504  function symbol() public pure returns (string memory) {... */\n      swap1\n      jump\t// out\n        /* \"contracts/Pool/Pool.sol\":14999:15541  function setFee(uint256 redisFeeOnBuy, uint256 redisFeeOnSell, uint256 taxFeeOnBuy, uint256 taxFeeOnSell) public onlyDev {... */\n    tag_111:\n        /* \"contracts/Pool/Pool.sol\":6229:6241  _msgSender() */\n      tag_205\n        /* \"contracts/Pool/Pool.sol\":6229:6239  _msgSender */\n      tag_154\n        /* \"contracts/Pool/Pool.sol\":6229:6241  _msgSender() */\n      jump\t// in\n    tag_205:\n        /* \"contracts/Pool/Pool.sol\":6218:6241  owner() == _msgSender() */\n      0xffffffffffffffffffffffffffffffffffffffff\n      and\n        /* \"contracts/Pool/Pool.sol\":6218:6225  owner() */\n      tag_206\n        /* \"contracts/Pool/Pool.sol\":6218:6223  owner */\n      tag_101\n        /* \"contracts/Pool/Pool.sol\":6218:6225  owner() */\n      jump\t// in\n    tag_206:\n        /* \"contracts/Pool/Pool.sol\":6218:6241  owner() == _msgSender() */\n      0xffffffffffffffffffffffffffffffffffffffff\n      and\n      eq\n        /* \"contracts/Pool/Pool.sol\":6218:6280  owner() == _msgSender() || _developmentAddress == _msgSender() */\n      dup1\n      tag_207\n      jumpi\n      pop\n        /* \"contracts/Pool/Pool.sol\":6268:6280  _msgSender() */\n      tag_208\n        /* \"contracts/Pool/Pool.sol\":6268:6278  _msgSender */\n      tag_154\n        /* \"contracts/Pool/Pool.sol\":6268:6280  _msgSender() */\n      jump\t// in\n    tag_208:\n        /* \"contracts/Pool/Pool.sol\":6245:6280  _developmentAddress == _msgSender() */\n      0xffffffffffffffffffffffffffffffffffffffff\n      and\n        /* \"contracts/Pool/Pool.sol\":6245:6264  _developmentAddress */\n      0x0e\n      0x00\n      swap1\n      sload\n      swap1\n      0x0100\n      exp\n      swap1\n      div\n      0xffffffffffffffffffffffffffffffffffffffff\n      and\n        /* \"contracts/Pool/Pool.sol\":6245:6280  _developmentAddress == _msgSender() */\n      0xffffffffffffffffffffffffffffffffffffffff\n      and\n      eq\n        /* \"contracts/Pool/Pool.sol\":6218:6280  owner() == _msgSender() || _developmentAddress == _msgSender() */\n    tag_207:\n        /* \"contracts/Pool/Pool.sol\":6210:6306  require(owner() == _msgSender() || _developmentAddress == _msgSender(), \"Caller is not the dev\") */\n      tag_209\n      jumpi\n      mload(0x40)\n      0x08c379a000000000000000000000000000000000000000000000000000000000\n      dup2\n      mstore\n      0x04\n      add\n      tag_210\n      swap1\n      tag_173\n      jump\t// in\n    tag_210:\n      mload(0x40)\n      dup1\n      swap2\n      sub\n      swap1\n      revert\n    tag_209:\n        /* \"contracts/Pool/Pool.sol\":15151:15153  11 */\n      0x0b\n        /* \"contracts/Pool/Pool.sol\":15135:15148  redisFeeOnBuy */\n      dup5\n        /* \"contracts/Pool/Pool.sol\":15135:15153  redisFeeOnBuy < 11 */\n      lt\n        /* \"contracts/Pool/Pool.sol\":15127:15187  require(redisFeeOnBuy < 11, \"Redis cannot be more than 10.\") */\n      tag_212\n      jumpi\n      mload(0x40)\n      0x08c379a000000000000000000000000000000000000000000000000000000000\n      dup2\n      mstore\n      0x04\n      add\n      tag_213\n      swap1\n      tag_214\n      jump\t// in\n    tag_213:\n      mload(0x40)\n      dup1\n      swap2\n      sub\n      swap1\n      revert\n    tag_212:\n        /* \"contracts/Pool/Pool.sol\":15219:15221  11 */\n      0x0b\n        /* \"contracts/Pool/Pool.sol\":15202:15216  redisFeeOnSell */\n      dup4\n        /* \"contracts/Pool/Pool.sol\":15202:15221  redisFeeOnSell < 11 */\n      lt\n        /* \"contracts/Pool/Pool.sol\":15194:15255  require(redisFeeOnSell < 11, \"Redis cannot be more than 10.\") */\n      tag_215\n      jumpi\n      mload(0x40)\n      0x08c379a000000000000000000000000000000000000000000000000000000000\n      dup2\n      mstore\n      0x04\n      add\n      tag_216\n      swap1\n      tag_214\n      jump\t// in\n    tag_216:\n      mload(0x40)\n      dup1\n      swap2\n      sub\n      swap1\n      revert\n    tag_215:\n        /* \"contracts/Pool/Pool.sol\":15284:15285  7 */\n      0x07\n        /* \"contracts/Pool/Pool.sol\":15270:15281  taxFeeOnBuy */\n      dup3\n        /* \"contracts/Pool/Pool.sol\":15270:15285  taxFeeOnBuy < 7 */\n      lt\n        /* \"contracts/Pool/Pool.sol\":15262:15316  require(taxFeeOnBuy < 7, \"Tax cannot be more than 6.\") */\n      tag_217\n      jumpi\n      mload(0x40)\n      0x08c379a000000000000000000000000000000000000000000000000000000000\n      dup2\n      mstore\n      0x04\n      add\n      tag_218\n      swap1\n      tag_219\n      jump\t// in\n    tag_218:\n      mload(0x40)\n      dup1\n      swap2\n      sub\n      swap1\n      revert\n    tag_217:\n        /* \"contracts/Pool/Pool.sol\":15346:15347  7 */\n      0x07\n        /* \"contracts/Pool/Pool.sol\":15331:15343  taxFeeOnSell */\n      dup2\n        /* \"contracts/Pool/Pool.sol\":15331:15347  taxFeeOnSell < 7 */\n      lt\n        /* \"contracts/Pool/Pool.sol\":15323:15378  require(taxFeeOnSell < 7, \"Tax cannot be more than 6.\") */\n      tag_220\n      jumpi\n      mload(0x40)\n      0x08c379a000000000000000000000000000000000000000000000000000000000\n      dup2\n      mstore\n      0x04\n      add\n      tag_221\n      swap1\n      tag_219\n      jump\t// in\n    tag_221:\n      mload(0x40)\n      dup1\n      swap2\n      sub\n      swap1\n      revert\n    tag_220:\n        /* \"contracts/Pool/Pool.sol\":15405:15418  redisFeeOnBuy */\n      dup4\n        /* \"contracts/Pool/Pool.sol\":15388:15402  _redisFeeOnBuy */\n      0x08\n        /* \"contracts/Pool/Pool.sol\":15388:15418  _redisFeeOnBuy = redisFeeOnBuy */\n      dup2\n      swap1\n      sstore\n      pop\n        /* \"contracts/Pool/Pool.sol\":15446:15460  redisFeeOnSell */\n      dup3\n        /* \"contracts/Pool/Pool.sol\":15428:15443  _redisFeeOnSell */\n      0x0a\n        /* \"contracts/Pool/Pool.sol\":15428:15460  _redisFeeOnSell = redisFeeOnSell */\n      dup2\n      swap1\n      sstore\n      pop\n        /* \"contracts/Pool/Pool.sol\":15485:15496  taxFeeOnBuy */\n      dup2\n        /* \"contracts/Pool/Pool.sol\":15470:15482  _taxFeeOnBuy */\n      0x09\n        /* \"contracts/Pool/Pool.sol\":15470:15496  _taxFeeOnBuy = taxFeeOnBuy */\n      dup2\n      swap1\n      sstore\n      pop\n        /* \"contracts/Pool/Pool.sol\":15522:15534  taxFeeOnSell */\n      dup1\n        /* \"contracts/Pool/Pool.sol\":15506:15519  _taxFeeOnSell */\n      0x0b\n        /* \"contracts/Pool/Pool.sol\":15506:15534  _taxFeeOnSell = taxFeeOnSell */\n      dup2\n      swap1\n      sstore\n      pop\n        /* \"contracts/Pool/Pool.sol\":14999:15541  function setFee(uint256 redisFeeOnBuy, uint256 redisFeeOnSell, uint256 taxFeeOnBuy, uint256 taxFeeOnSell) public onlyDev {... */\n      pop\n      pop\n      pop\n      pop\n      jump\t// out\n        /* \"contracts/Pool/Pool.sol\":8503:8718  function _test() public { ... */\n    tag_114:\n        /* \"contracts/Pool/Pool.sol\":8538:8566  uint256 contractTokenBalance */\n      0x00\n        /* \"contracts/Pool/Pool.sol\":8569:8593  balanceOf(address(this)) */\n      tag_223\n        /* \"contracts/Pool/Pool.sol\":8587:8591  this */\n      address\n        /* \"contracts/Pool/Pool.sol\":8569:8578  balanceOf */\n      tag_89\n        /* \"contracts/Pool/Pool.sol\":8569:8593  balanceOf(address(this)) */\n      jump\t// in\n    tag_223:\n        /* \"contracts/Pool/Pool.sol\":8538:8593  uint256 contractTokenBalance = balanceOf(address(this)) */\n      swap1\n      pop\n        /* \"contracts/Pool/Pool.sol\":8634:8635  0 */\n      0x00\n        /* \"contracts/Pool/Pool.sol\":8611:8631  contractTokenBalance */\n      dup2\n        /* \"contracts/Pool/Pool.sol\":8611:8635  contractTokenBalance > 0 */\n      gt\n        /* \"contracts/Pool/Pool.sol\":8607:8710  if (contractTokenBalance > 0) {... */\n      iszero\n      tag_224\n      jumpi\n        /* \"contracts/Pool/Pool.sol\":8656:8694  swapTokensForEth(contractTokenBalance) */\n      tag_225\n        /* \"contracts/Pool/Pool.sol\":8673:8693  contractTokenBalance */\n      dup2\n        /* \"contracts/Pool/Pool.sol\":8656:8672  swapTokensForEth */\n      tag_226\n        /* \"contracts/Pool/Pool.sol\":8656:8694  swapTokensForEth(contractTokenBalance) */\n      jump\t// in\n    tag_225:\n        /* \"contracts/Pool/Pool.sol\":8607:8710  if (contractTokenBalance > 0) {... */\n    tag_224:\n        /* \"contracts/Pool/Pool.sol\":8527:8718  { ... */\n      pop\n        /* \"contracts/Pool/Pool.sol\":8503:8718  function _test() public { ... */\n      jump\t// out\n        /* \"contracts/Pool/Pool.sol\":6838:7002  function transfer(address recipient, uint256 amount) public override returns (bool) {... */\n    tag_118:\n        /* \"contracts/Pool/Pool.sol\":6916:6920  bool */\n      0x00\n        /* \"contracts/Pool/Pool.sol\":6932:6974  _transfer(_msgSender(), recipient, amount) */\n      tag_228\n        /* \"contracts/Pool/Pool.sol\":6942:6954  _msgSender() */\n      tag_229\n        /* \"contracts/Pool/Pool.sol\":6942:6952  _msgSender */\n      tag_154\n        /* \"contracts/Pool/Pool.sol\":6942:6954  _msgSender() */\n      jump\t// in\n    tag_229:\n        /* \"contracts/Pool/Pool.sol\":6956:6965  recipient */\n      dup5\n        /* \"contracts/Pool/Pool.sol\":6967:6973  amount */\n      dup5\n        /* \"contracts/Pool/Pool.sol\":6932:6941  _transfer */\n      tag_159\n        /* \"contracts/Pool/Pool.sol\":6932:6974  _transfer(_msgSender(), recipient, amount) */\n      jump\t// in\n    tag_228:\n        /* \"contracts/Pool/Pool.sol\":6991:6995  true */\n      0x01\n        /* \"contracts/Pool/Pool.sol\":6984:6995  return true */\n      swap1\n      pop\n        /* \"contracts/Pool/Pool.sol\":6838:7002  function transfer(address recipient, uint256 amount) public override returns (bool) {... */\n      swap3\n      swap2\n      pop\n      pop\n      jump\t// out\n        /* \"contracts/Pool/Pool.sol\":11367:11588  function setNewDevAddress(address payable dev) public onlyDev() {... */\n    tag_123:\n        /* \"contracts/Pool/Pool.sol\":6229:6241  _msgSender() */\n      tag_231\n        /* \"contracts/Pool/Pool.sol\":6229:6239  _msgSender */\n      tag_154\n        /* \"contracts/Pool/Pool.sol\":6229:6241  _msgSender() */\n      jump\t// in\n    tag_231:\n        /* \"contracts/Pool/Pool.sol\":6218:6241  owner() == _msgSender() */\n      0xffffffffffffffffffffffffffffffffffffffff\n      and\n        /* \"contracts/Pool/Pool.sol\":6218:6225  owner() */\n      tag_232\n        /* \"contracts/Pool/Pool.sol\":6218:6223  owner */\n      tag_101\n        /* \"contracts/Pool/Pool.sol\":6218:6225  owner() */\n      jump\t// in\n    tag_232:\n        /* \"contracts/Pool/Pool.sol\":6218:6241  owner() == _msgSender() */\n      0xffffffffffffffffffffffffffffffffffffffff\n      and\n      eq\n        /* \"contracts/Pool/Pool.sol\":6218:6280  owner() == _msgSender() || _developmentAddress == _msgSender() */\n      dup1\n      tag_233\n      jumpi\n      pop\n        /* \"contracts/Pool/Pool.sol\":6268:6280  _msgSender() */\n      tag_234\n        /* \"contracts/Pool/Pool.sol\":6268:6278  _msgSender */\n      tag_154\n        /* \"contracts/Pool/Pool.sol\":6268:6280  _msgSender() */\n      jump\t// in\n    tag_234:\n        /* \"contracts/Pool/Pool.sol\":6245:6280  _developmentAddress == _msgSender() */\n      0xffffffffffffffffffffffffffffffffffffffff\n      and\n        /* \"contracts/Pool/Pool.sol\":6245:6264  _developmentAddress */\n      0x0e\n      0x00\n      swap1\n      sload\n      swap1\n      0x0100\n      exp\n      swap1\n      div\n      0xffffffffffffffffffffffffffffffffffffffff\n      and\n        /* \"contracts/Pool/Pool.sol\":6245:6280  _developmentAddress == _msgSender() */\n      0xffffffffffffffffffffffffffffffffffffffff\n      and\n      eq\n        /* \"contracts/Pool/Pool.sol\":6218:6280  owner() == _msgSender() || _developmentAddress == _msgSender() */\n    tag_233:\n        /* \"contracts/Pool/Pool.sol\":6210:6306  require(owner() == _msgSender() || _developmentAddress == _msgSender(), \"Caller is not the dev\") */\n      tag_235\n      jumpi\n      mload(0x40)\n      0x08c379a000000000000000000000000000000000000000000000000000000000\n      dup2\n      mstore\n      0x04\n      add\n      tag_236\n      swap1\n      tag_173\n      jump\t// in\n    tag_236:\n      mload(0x40)\n      dup1\n      swap2\n      sub\n      swap1\n      revert\n    tag_235:\n        /* \"contracts/Pool/Pool.sol\":11485:11488  dev */\n      dup1\n        /* \"contracts/Pool/Pool.sol\":11446:11489  devAddressUpdated(_developmentAddress, dev) */\n      0xffffffffffffffffffffffffffffffffffffffff\n      and\n        /* \"contracts/Pool/Pool.sol\":11464:11483  _developmentAddress */\n      0x0e\n      0x00\n      swap1\n      sload\n      swap1\n      0x0100\n      exp\n      swap1\n      div\n      0xffffffffffffffffffffffffffffffffffffffff\n      and\n        /* \"contracts/Pool/Pool.sol\":11446:11489  devAddressUpdated(_developmentAddress, dev) */\n      0xffffffffffffffffffffffffffffffffffffffff\n      and\n      0xfbbc329437e8c79f847e170730ad6dd04106b7511cad70d06d635886d92de83c\n      mload(0x40)\n      mload(0x40)\n      dup1\n      swap2\n      sub\n      swap1\n      log3\n        /* \"contracts/Pool/Pool.sol\":11522:11525  dev */\n      dup1\n        /* \"contracts/Pool/Pool.sol\":11500:11519  _developmentAddress */\n      0x0e\n      0x00\n        /* \"contracts/Pool/Pool.sol\":11500:11525  _developmentAddress = dev */\n      0x0100\n      exp\n      dup2\n      sload\n      dup2\n      0xffffffffffffffffffffffffffffffffffffffff\n      mul\n      not\n      and\n      swap1\n      dup4\n      0xffffffffffffffffffffffffffffffffffffffff\n      and\n      mul\n      or\n      swap1\n      sstore\n      pop\n        /* \"contracts/Pool/Pool.sol\":11577:11581  true */\n      0x01\n        /* \"contracts/Pool/Pool.sol\":11535:11553  _isExcludedFromFee */\n      0x05\n        /* \"contracts/Pool/Pool.sol\":11535:11574  _isExcludedFromFee[_developmentAddress] */\n      0x00\n        /* \"contracts/Pool/Pool.sol\":11554:11573  _developmentAddress */\n      0x0e\n      0x00\n      swap1\n      sload\n      swap1\n      0x0100\n      exp\n      swap1\n      div\n      0xffffffffffffffffffffffffffffffffffffffff\n      and\n        /* \"contracts/Pool/Pool.sol\":11535:11574  _isExcludedFromFee[_developmentAddress] */\n      0xffffffffffffffffffffffffffffffffffffffff\n      and\n      0xffffffffffffffffffffffffffffffffffffffff\n      and\n      dup2\n      mstore\n      0x20\n      add\n      swap1\n      dup2\n      mstore\n      0x20\n      add\n      0x00\n      keccak256\n      0x00\n        /* \"contracts/Pool/Pool.sol\":11535:11581  _isExcludedFromFee[_developmentAddress] = true */\n      0x0100\n      exp\n      dup2\n      sload\n      dup2\n      0xff\n      mul\n      not\n      and\n      swap1\n      dup4\n      iszero\n      iszero\n      mul\n      or\n      swap1\n      sstore\n      pop\n        /* \"contracts/Pool/Pool.sol\":11367:11588  function setNewDevAddress(address payable dev) public onlyDev() {... */\n      pop\n      jump\t// out\n        /* \"contracts/Pool/Pool.sol\":14466:14725  function manualswap() external {... */\n    tag_126:\n        /* \"contracts/Pool/Pool.sol\":14531:14550  _developmentAddress */\n      0x0e\n      0x00\n      swap1\n      sload\n      swap1\n      0x0100\n      exp\n      swap1\n      div\n      0xffffffffffffffffffffffffffffffffffffffff\n      and\n        /* \"contracts/Pool/Pool.sol\":14515:14550  _msgSender() == _developmentAddress */\n      0xffffffffffffffffffffffffffffffffffffffff\n      and\n        /* \"contracts/Pool/Pool.sol\":14515:14527  _msgSender() */\n      tag_239\n        /* \"contracts/Pool/Pool.sol\":14515:14525  _msgSender */\n      tag_154\n        /* \"contracts/Pool/Pool.sol\":14515:14527  _msgSender() */\n      jump\t// in\n    tag_239:\n        /* \"contracts/Pool/Pool.sol\":14515:14550  _msgSender() == _developmentAddress */\n      0xffffffffffffffffffffffffffffffffffffffff\n      and\n      eq\n        /* \"contracts/Pool/Pool.sol\":14515:14587  _msgSender() == _developmentAddress || _msgSender() == _marketingAddress */\n      dup1\n      tag_240\n      jumpi\n      pop\n        /* \"contracts/Pool/Pool.sol\":14570:14587  _marketingAddress */\n      0x0f\n      0x00\n      swap1\n      sload\n      swap1\n      0x0100\n      exp\n      swap1\n      div\n      0xffffffffffffffffffffffffffffffffffffffff\n      and\n        /* \"contracts/Pool/Pool.sol\":14554:14587  _msgSender() == _marketingAddress */\n      0xffffffffffffffffffffffffffffffffffffffff\n      and\n        /* \"contracts/Pool/Pool.sol\":14554:14566  _msgSender() */\n      tag_241\n        /* \"contracts/Pool/Pool.sol\":14554:14564  _msgSender */\n      tag_154\n        /* \"contracts/Pool/Pool.sol\":14554:14566  _msgSender() */\n      jump\t// in\n    tag_241:\n        /* \"contracts/Pool/Pool.sol\":14554:14587  _msgSender() == _marketingAddress */\n      0xffffffffffffffffffffffffffffffffffffffff\n      and\n      eq\n        /* \"contracts/Pool/Pool.sol\":14515:14587  _msgSender() == _developmentAddress || _msgSender() == _marketingAddress */\n    tag_240:\n        /* \"contracts/Pool/Pool.sol\":14515:14614  _msgSender() == _developmentAddress || _msgSender() == _marketingAddress || _msgSender() == owner() */\n      dup1\n      tag_242\n      jumpi\n      pop\n        /* \"contracts/Pool/Pool.sol\":14607:14614  owner() */\n      tag_243\n        /* \"contracts/Pool/Pool.sol\":14607:14612  owner */\n      tag_101\n        /* \"contracts/Pool/Pool.sol\":14607:14614  owner() */\n      jump\t// in\n    tag_243:\n        /* \"contracts/Pool/Pool.sol\":14591:14614  _msgSender() == owner() */\n      0xffffffffffffffffffffffffffffffffffffffff\n      and\n        /* \"contracts/Pool/Pool.sol\":14591:14603  _msgSender() */\n      tag_244\n        /* \"contracts/Pool/Pool.sol\":14591:14601  _msgSender */\n      tag_154\n        /* \"contracts/Pool/Pool.sol\":14591:14603  _msgSender() */\n      jump\t// in\n    tag_244:\n        /* \"contracts/Pool/Pool.sol\":14591:14614  _msgSender() == owner() */\n      0xffffffffffffffffffffffffffffffffffffffff\n      and\n      eq\n        /* \"contracts/Pool/Pool.sol\":14515:14614  _msgSender() == _developmentAddress || _msgSender() == _marketingAddress || _msgSender() == owner() */\n    tag_242:\n        /* \"contracts/Pool/Pool.sol\":14507:14615  require(_msgSender() == _developmentAddress || _msgSender() == _marketingAddress || _msgSender() == owner()) */\n      tag_245\n      jumpi\n      0x00\n      dup1\n      revert\n    tag_245:\n        /* \"contracts/Pool/Pool.sol\":14625:14648  uint256 contractBalance */\n      0x00\n        /* \"contracts/Pool/Pool.sol\":14651:14675  balanceOf(address(this)) */\n      tag_246\n        /* \"contracts/Pool/Pool.sol\":14669:14673  this */\n      address\n        /* \"contracts/Pool/Pool.sol\":14651:14660  balanceOf */\n      tag_89\n        /* \"contracts/Pool/Pool.sol\":14651:14675  balanceOf(address(this)) */\n      jump\t// in\n    tag_246:\n        /* \"contracts/Pool/Pool.sol\":14625:14675  uint256 contractBalance = balanceOf(address(this)) */\n      swap1\n      pop\n        /* \"contracts/Pool/Pool.sol\":14685:14718  swapTokensForEth(contractBalance) */\n      tag_247\n        /* \"contracts/Pool/Pool.sol\":14702:14717  contractBalance */\n      dup2\n        /* \"contracts/Pool/Pool.sol\":14685:14701  swapTokensForEth */\n      tag_226\n        /* \"contracts/Pool/Pool.sol\":14685:14718  swapTokensForEth(contractBalance) */\n      jump\t// in\n    tag_247:\n        /* \"contracts/Pool/Pool.sol\":14497:14725  {... */\n      pop\n        /* \"contracts/Pool/Pool.sol\":14466:14725  function manualswap() external {... */\n      jump\t// out\n        /* \"contracts/Pool/Pool.sol\":15654:15884  function excludeMultipleAccountsFromFees(address[] calldata accounts, bool excluded) public onlyOwner {... */\n    tag_131:\n        /* \"contracts/Pool/Pool.sol\":3549:3561  _msgSender() */\n      tag_249\n        /* \"contracts/Pool/Pool.sol\":3549:3559  _msgSender */\n      tag_154\n        /* \"contracts/Pool/Pool.sol\":3549:3561  _msgSender() */\n      jump\t// in\n    tag_249:\n        /* \"contracts/Pool/Pool.sol\":3539:3561  _owner == _msgSender() */\n      0xffffffffffffffffffffffffffffffffffffffff\n      and\n        /* \"contracts/Pool/Pool.sol\":3539:3545  _owner */\n      0x00\n      dup1\n      sload\n      swap1\n      0x0100\n      exp\n      swap1\n      div\n      0xffffffffffffffffffffffffffffffffffffffff\n      and\n        /* \"contracts/Pool/Pool.sol\":3539:3561  _owner == _msgSender() */\n      0xffffffffffffffffffffffffffffffffffffffff\n      and\n      eq\n        /* \"contracts/Pool/Pool.sol\":3531:3589  require(_owner == _msgSender(), \"Caller is not the owner\") */\n      tag_250\n      jumpi\n      mload(0x40)\n      0x08c379a000000000000000000000000000000000000000000000000000000000\n      dup2\n      mstore\n      0x04\n      add\n      tag_251\n      swap1\n      tag_192\n      jump\t// in\n    tag_251:\n      mload(0x40)\n      dup1\n      swap2\n      sub\n      swap1\n      revert\n    tag_250:\n        /* \"contracts/Pool/Pool.sol\":15770:15779  uint256 i */\n      0x00\n        /* \"contracts/Pool/Pool.sol\":15766:15878  for(uint256 i = 0; i < accounts.length; i++) {... */\n    tag_253:\n        /* \"contracts/Pool/Pool.sol\":15789:15797  accounts */\n      dup4\n      dup4\n        /* \"contracts/Pool/Pool.sol\":15789:15804  accounts.length */\n      swap1\n      pop\n        /* \"contracts/Pool/Pool.sol\":15785:15786  i */\n      dup2\n        /* \"contracts/Pool/Pool.sol\":15785:15804  i < accounts.length */\n      lt\n        /* \"contracts/Pool/Pool.sol\":15766:15878  for(uint256 i = 0; i < accounts.length; i++) {... */\n      iszero\n      tag_254\n      jumpi\n        /* \"contracts/Pool/Pool.sol\":15859:15867  excluded */\n      dup2\n        /* \"contracts/Pool/Pool.sol\":15825:15843  _isExcludedFromFee */\n      0x05\n        /* \"contracts/Pool/Pool.sol\":15825:15856  _isExcludedFromFee[accounts[i]] */\n      0x00\n        /* \"contracts/Pool/Pool.sol\":15844:15852  accounts */\n      dup7\n      dup7\n        /* \"contracts/Pool/Pool.sol\":15853:15854  i */\n      dup6\n        /* \"contracts/Pool/Pool.sol\":15844:15855  accounts[i] */\n      dup2\n      dup2\n      lt\n      tag_256\n      jumpi\n      tag_257\n      tag_258\n      jump\t// in\n    tag_257:\n    tag_256:\n      swap1\n      pop\n      0x20\n      mul\n      add\n      0x20\n      dup2\n      add\n      swap1\n      tag_259\n      swap2\n      swap1\n      tag_88\n      jump\t// in\n    tag_259:\n        /* \"contracts/Pool/Pool.sol\":15825:15856  _isExcludedFromFee[accounts[i]] */\n      0xffffffffffffffffffffffffffffffffffffffff\n      and\n      0xffffffffffffffffffffffffffffffffffffffff\n      and\n      dup2\n      mstore\n      0x20\n      add\n      swap1\n      dup2\n      mstore\n      0x20\n      add\n      0x00\n      keccak256\n      0x00\n        /* \"contracts/Pool/Pool.sol\":15825:15867  _isExcludedFromFee[accounts[i]] = excluded */\n      0x0100\n      exp\n      dup2\n      sload\n      dup2\n      0xff\n      mul\n      not\n      and\n      swap1\n      dup4\n      iszero\n      iszero\n      mul\n      or\n      swap1\n      sstore\n      pop\n        /* \"contracts/Pool/Pool.sol\":15806:15809  i++ */\n      dup1\n      dup1\n      tag_260\n      swap1\n      tag_261\n      jump\t// in\n    tag_260:\n      swap2\n      pop\n      pop\n        /* \"contracts/Pool/Pool.sol\":15766:15878  for(uint256 i = 0; i < accounts.length; i++) {... */\n      jump(tag_253)\n    tag_254:\n      pop\n        /* \"contracts/Pool/Pool.sol\":15654:15884  function excludeMultipleAccountsFromFees(address[] calldata accounts, bool excluded) public onlyOwner {... */\n      pop\n      pop\n      pop\n      jump\t// out\n        /* \"contracts/Pool/Pool.sol\":5314:5337  address public _factory */\n    tag_134:\n      0x13\n      0x00\n      swap1\n      sload\n      swap1\n      0x0100\n      exp\n      swap1\n      div\n      0xffffffffffffffffffffffffffffffffffffffff\n      and\n      dup2\n      jump\t// out\n        /* \"contracts/Pool/Pool.sol\":7008:7149  function allowance(address owner, address spender) public view override returns (uint256) {... */\n    tag_140:\n        /* \"contracts/Pool/Pool.sol\":7089:7096  uint256 */\n      0x00\n        /* \"contracts/Pool/Pool.sol\":7115:7126  _allowances */\n      0x04\n        /* \"contracts/Pool/Pool.sol\":7115:7133  _allowances[owner] */\n      0x00\n        /* \"contracts/Pool/Pool.sol\":7127:7132  owner */\n      dup5\n        /* \"contracts/Pool/Pool.sol\":7115:7133  _allowances[owner] */\n      0xffffffffffffffffffffffffffffffffffffffff\n      and\n      0xffffffffffffffffffffffffffffffffffffffff\n      and\n      dup2\n      mstore\n      0x20\n      add\n      swap1\n      dup2\n      mstore\n      0x20\n      add\n      0x00\n      keccak256\n        /* \"contracts/Pool/Pool.sol\":7115:7142  _allowances[owner][spender] */\n      0x00\n        /* \"contracts/Pool/Pool.sol\":7134:7141  spender */\n      dup4\n        /* \"contracts/Pool/Pool.sol\":7115:7142  _allowances[owner][spender] */\n      0xffffffffffffffffffffffffffffffffffffffff\n      and\n      0xffffffffffffffffffffffffffffffffffffffff\n      and\n      dup2\n      mstore\n      0x20\n      add\n      swap1\n      dup2\n      mstore\n      0x20\n      add\n      0x00\n      keccak256\n      sload\n        /* \"contracts/Pool/Pool.sol\":7108:7142  return _allowances[owner][spender] */\n      swap1\n      pop\n        /* \"contracts/Pool/Pool.sol\":7008:7149  function allowance(address owner, address spender) public view override returns (uint256) {... */\n      swap3\n      swap2\n      pop\n      pop\n      jump\t// out\n        /* \"contracts/Pool/Pool.sol\":11076:11281  function rescueForeignTokens(address _tokenAddr, address _to, uint _amount) public onlyDev() {... */\n    tag_145:\n        /* \"contracts/Pool/Pool.sol\":6229:6241  _msgSender() */\n      tag_264\n        /* \"contracts/Pool/Pool.sol\":6229:6239  _msgSender */\n      tag_154\n        /* \"contracts/Pool/Pool.sol\":6229:6241  _msgSender() */\n      jump\t// in\n    tag_264:\n        /* \"contracts/Pool/Pool.sol\":6218:6241  owner() == _msgSender() */\n      0xffffffffffffffffffffffffffffffffffffffff\n      and\n        /* \"contracts/Pool/Pool.sol\":6218:6225  owner() */\n      tag_265\n        /* \"contracts/Pool/Pool.sol\":6218:6223  owner */\n      tag_101\n        /* \"contracts/Pool/Pool.sol\":6218:6225  owner() */\n      jump\t// in\n    tag_265:\n        /* \"contracts/Pool/Pool.sol\":6218:6241  owner() == _msgSender() */\n      0xffffffffffffffffffffffffffffffffffffffff\n      and\n      eq\n        /* \"contracts/Pool/Pool.sol\":6218:6280  owner() == _msgSender() || _developmentAddress == _msgSender() */\n      dup1\n      tag_266\n      jumpi\n      pop\n        /* \"contracts/Pool/Pool.sol\":6268:6280  _msgSender() */\n      tag_267\n        /* \"contracts/Pool/Pool.sol\":6268:6278  _msgSender */\n      tag_154\n        /* \"contracts/Pool/Pool.sol\":6268:6280  _msgSender() */\n      jump\t// in\n    tag_267:\n        /* \"contracts/Pool/Pool.sol\":6245:6280  _developmentAddress == _msgSender() */\n      0xffffffffffffffffffffffffffffffffffffffff\n      and\n        /* \"contracts/Pool/Pool.sol\":6245:6264  _developmentAddress */\n      0x0e\n      0x00\n      swap1\n      sload\n      swap1\n      0x0100\n      exp\n      swap1\n      div\n      0xffffffffffffffffffffffffffffffffffffffff\n      and\n        /* \"contracts/Pool/Pool.sol\":6245:6280  _developmentAddress == _msgSender() */\n      0xffffffffffffffffffffffffffffffffffffffff\n      and\n      eq\n        /* \"contracts/Pool/Pool.sol\":6218:6280  owner() == _msgSender() || _developmentAddress == _msgSender() */\n    tag_266:\n        /* \"contracts/Pool/Pool.sol\":6210:6306  require(owner() == _msgSender() || _developmentAddress == _msgSender(), \"Caller is not the dev\") */\n      tag_268\n      jumpi\n      mload(0x40)\n      0x08c379a000000000000000000000000000000000000000000000000000000000\n      dup2\n      mstore\n      0x04\n      add\n      tag_269\n      swap1\n      tag_173\n      jump\t// in\n    tag_269:\n      mload(0x40)\n      dup1\n      swap2\n      sub\n      swap1\n      revert\n    tag_268:\n        /* \"contracts/Pool/Pool.sol\":11210:11213  _to */\n      dup2\n        /* \"contracts/Pool/Pool.sol\":11184:11223  tokensRescued(_tokenAddr, _to, _amount) */\n      0xffffffffffffffffffffffffffffffffffffffff\n      and\n        /* \"contracts/Pool/Pool.sol\":11198:11208  _tokenAddr */\n      dup4\n        /* \"contracts/Pool/Pool.sol\":11184:11223  tokensRescued(_tokenAddr, _to, _amount) */\n      0xffffffffffffffffffffffffffffffffffffffff\n      and\n      0x47c33aa230eb5fd181505aa7befeaddd9b8a6f983989cea73a7868448c3a9ed9\n        /* \"contracts/Pool/Pool.sol\":11215:11222  _amount */\n      dup4\n        /* \"contracts/Pool/Pool.sol\":11184:11223  tokensRescued(_tokenAddr, _to, _amount) */\n      mload(0x40)\n      tag_271\n      swap2\n      swap1\n      tag_55\n      jump\t// in\n    tag_271:\n      mload(0x40)\n      dup1\n      swap2\n      sub\n      swap1\n      log3\n        /* \"contracts/Pool/Pool.sol\":11240:11250  _tokenAddr */\n      dup3\n        /* \"contracts/Pool/Pool.sol\":11234:11260  Token(_tokenAddr).transfer */\n      0xffffffffffffffffffffffffffffffffffffffff\n      and\n      0xa9059cbb\n        /* \"contracts/Pool/Pool.sol\":11261:11264  _to */\n      dup4\n        /* \"contracts/Pool/Pool.sol\":11266:11273  _amount */\n      dup4\n        /* \"contracts/Pool/Pool.sol\":11234:11274  Token(_tokenAddr).transfer(_to, _amount) */\n      mload(0x40)\n      dup4\n      0xffffffff\n      and\n      0xe0\n      shl\n      dup2\n      mstore\n      0x04\n      add\n      tag_272\n      swap3\n      swap2\n      swap1\n      tag_273\n      jump\t// in\n    tag_272:\n      0x20\n      mload(0x40)\n      dup1\n      dup4\n      sub\n      dup2\n      0x00\n      dup8\n      gas\n      call\n      iszero\n      dup1\n      iszero\n      tag_275\n      jumpi\n      returndatasize\n      0x00\n      dup1\n      returndatacopy\n      revert(0x00, returndatasize)\n    tag_275:\n      pop\n      pop\n      pop\n      pop\n      mload(0x40)\n      returndatasize\n      not(0x1f)\n      0x1f\n      dup3\n      add\n      and\n      dup3\n      add\n      dup1\n      0x40\n      mstore\n      pop\n      dup2\n      add\n      swap1\n      tag_276\n      swap2\n      swap1\n      tag_277\n      jump\t// in\n    tag_276:\n      pop\n        /* \"contracts/Pool/Pool.sol\":11076:11281  function rescueForeignTokens(address _tokenAddr, address _to, uint _amount) public onlyDev() {... */\n      pop\n      pop\n      pop\n      jump\t// out\n        /* \"contracts/Pool/Pool.sol\":3857:4014  function transferOwnership(address newOwner) public virtual onlyOwner {... */\n    tag_149:\n        /* \"contracts/Pool/Pool.sol\":3549:3561  _msgSender() */\n      tag_279\n        /* \"contracts/Pool/Pool.sol\":3549:3559  _msgSender */\n      tag_154\n        /* \"contracts/Pool/Pool.sol\":3549:3561  _msgSender() */\n      jump\t// in\n    tag_279:\n        /* \"contracts/Pool/Pool.sol\":3539:3561  _owner == _msgSender() */\n      0xffffffffffffffffffffffffffffffffffffffff\n      and\n        /* \"contracts/Pool/Pool.sol\":3539:3545  _owner */\n      0x00\n      dup1\n      sload\n      swap1\n      0x0100\n      exp\n      swap1\n      div\n      0xffffffffffffffffffffffffffffffffffffffff\n      and\n        /* \"contracts/Pool/Pool.sol\":3539:3561  _owner == _msgSender() */\n      0xffffffffffffffffffffffffffffffffffffffff\n      and\n      eq\n        /* \"contracts/Pool/Pool.sol\":3531:3589  require(_owner == _msgSender(), \"Caller is not the owner\") */\n      tag_280\n      jumpi\n      mload(0x40)\n      0x08c379a000000000000000000000000000000000000000000000000000000000\n      dup2\n      mstore\n      0x04\n      add\n      tag_281\n      swap1\n      tag_192\n      jump\t// in\n    tag_281:\n      mload(0x40)\n      dup1\n      swap2\n      sub\n      swap1\n      revert\n    tag_280:\n        /* \"contracts/Pool/Pool.sol\":3971:3979  newOwner */\n      dup1\n        /* \"contracts/Pool/Pool.sol\":3942:3980  OwnershipTransferred(_owner, newOwner) */\n      0xffffffffffffffffffffffffffffffffffffffff\n      and\n        /* \"contracts/Pool/Pool.sol\":3963:3969  _owner */\n      0x00\n      dup1\n      sload\n      swap1\n      0x0100\n      exp\n      swap1\n      div\n      0xffffffffffffffffffffffffffffffffffffffff\n      and\n        /* \"contracts/Pool/Pool.sol\":3942:3980  OwnershipTransferred(_owner, newOwner) */\n      0xffffffffffffffffffffffffffffffffffffffff\n      and\n      0x8be0079c531659141344cd1fd0a4f28419497f9722a3daafe3b4186f6b6457e0\n      mload(0x40)\n      mload(0x40)\n      dup1\n      swap2\n      sub\n      swap1\n      log3\n        /* \"contracts/Pool/Pool.sol\":3999:4007  newOwner */\n      dup1\n        /* \"contracts/Pool/Pool.sol\":3990:3996  _owner */\n      0x00\n      dup1\n        /* \"contracts/Pool/Pool.sol\":3990:4007  _owner = newOwner */\n      0x0100\n      exp\n      dup2\n      sload\n      dup2\n      0xffffffffffffffffffffffffffffffffffffffff\n      mul\n      not\n      and\n      swap1\n      dup4\n      0xffffffffffffffffffffffffffffffffffffffff\n      and\n      mul\n      or\n      swap1\n      sstore\n      pop\n        /* \"contracts/Pool/Pool.sol\":3857:4014  function transferOwnership(address newOwner) public virtual onlyOwner {... */\n      pop\n      jump\t// out\n        /* \"contracts/Pool/Pool.sol\":1953:2049  function _msgSender() internal view virtual returns (address) {... */\n    tag_154:\n        /* \"contracts/Pool/Pool.sol\":2006:2013  address */\n      0x00\n        /* \"contracts/Pool/Pool.sol\":2032:2042  msg.sender */\n      caller\n        /* \"contracts/Pool/Pool.sol\":2025:2042  return msg.sender */\n      swap1\n      pop\n        /* \"contracts/Pool/Pool.sol\":1953:2049  function _msgSender() internal view virtual returns (address) {... */\n      swap1\n      jump\t// out\n        /* \"contracts/Pool/Pool.sol\":7891:8221  function _approve(address owner, address spender, uint256 amount) private {... */\n    tag_155:\n        /* \"contracts/Pool/Pool.sol\":8000:8001  0 */\n      0x00\n        /* \"contracts/Pool/Pool.sol\":7983:8002  owner != address(0) */\n      0xffffffffffffffffffffffffffffffffffffffff\n      and\n        /* \"contracts/Pool/Pool.sol\":7983:7988  owner */\n      dup4\n        /* \"contracts/Pool/Pool.sol\":7983:8002  owner != address(0) */\n      0xffffffffffffffffffffffffffffffffffffffff\n      and\n      sub\n        /* \"contracts/Pool/Pool.sol\":7975:8043  require(owner != address(0), \"ERC20: approve from the zero address\") */\n      tag_285\n      jumpi\n      mload(0x40)\n      0x08c379a000000000000000000000000000000000000000000000000000000000\n      dup2\n      mstore\n      0x04\n      add\n      tag_286\n      swap1\n      tag_287\n      jump\t// in\n    tag_286:\n      mload(0x40)\n      dup1\n      swap2\n      sub\n      swap1\n      revert\n    tag_285:\n        /* \"contracts/Pool/Pool.sol\":8080:8081  0 */\n      0x00\n        /* \"contracts/Pool/Pool.sol\":8061:8082  spender != address(0) */\n      0xffffffffffffffffffffffffffffffffffffffff\n      and\n        /* \"contracts/Pool/Pool.sol\":8061:8068  spender */\n      dup3\n        /* \"contracts/Pool/Pool.sol\":8061:8082  spender != address(0) */\n      0xffffffffffffffffffffffffffffffffffffffff\n      and\n      sub\n        /* \"contracts/Pool/Pool.sol\":8053:8121  require(spender != address(0), \"ERC20: approve to the zero address\") */\n      tag_288\n      jumpi\n      mload(0x40)\n      0x08c379a000000000000000000000000000000000000000000000000000000000\n      dup2\n      mstore\n      0x04\n      add\n      tag_289\n      swap1\n      tag_290\n      jump\t// in\n    tag_289:\n      mload(0x40)\n      dup1\n      swap2\n      sub\n      swap1\n      revert\n    tag_288:\n        /* \"contracts/Pool/Pool.sol\":8161:8167  amount */\n      dup1\n        /* \"contracts/Pool/Pool.sol\":8131:8142  _allowances */\n      0x04\n        /* \"contracts/Pool/Pool.sol\":8131:8149  _allowances[owner] */\n      0x00\n        /* \"contracts/Pool/Pool.sol\":8143:8148  owner */\n      dup6\n        /* \"contracts/Pool/Pool.sol\":8131:8149  _allowances[owner] */\n      0xffffffffffffffffffffffffffffffffffffffff\n      and\n      0xffffffffffffffffffffffffffffffffffffffff\n      and\n      dup2\n      mstore\n      0x20\n      add\n      swap1\n      dup2\n      mstore\n      0x20\n      add\n      0x00\n      keccak256\n        /* \"contracts/Pool/Pool.sol\":8131:8158  _allowances[owner][spender] */\n      0x00\n        /* \"contracts/Pool/Pool.sol\":8150:8157  spender */\n      dup5\n        /* \"contracts/Pool/Pool.sol\":8131:8158  _allowances[owner][spender] */\n      0xffffffffffffffffffffffffffffffffffffffff\n      and\n      0xffffffffffffffffffffffffffffffffffffffff\n      and\n      dup2\n      mstore\n      0x20\n      add\n      swap1\n      dup2\n      mstore\n      0x20\n      add\n      0x00\n      keccak256\n        /* \"contracts/Pool/Pool.sol\":8131:8167  _allowances[owner][spender] = amount */\n      dup2\n      swap1\n      sstore\n      pop\n        /* \"contracts/Pool/Pool.sol\":8198:8205  spender */\n      dup2\n        /* \"contracts/Pool/Pool.sol\":8182:8214  Approval(owner, spender, amount) */\n      0xffffffffffffffffffffffffffffffffffffffff\n      and\n        /* \"contracts/Pool/Pool.sol\":8191:8196  owner */\n      dup4\n        /* \"contracts/Pool/Pool.sol\":8182:8214  Approval(owner, spender, amount) */\n      0xffffffffffffffffffffffffffffffffffffffff\n      and\n      0x8c5be1e5ebec7d5bd14f71427d1e84f3dd0314c0f7b2291e5b200ac8c7c3b925\n        /* \"contracts/Pool/Pool.sol\":8207:8213  amount */\n      dup4\n        /* \"contracts/Pool/Pool.sol\":8182:8214  Approval(owner, spender, amount) */\n      mload(0x40)\n      tag_291\n      swap2\n      swap1\n      tag_55\n      jump\t// in\n    tag_291:\n      mload(0x40)\n      dup1\n      swap2\n      sub\n      swap1\n      log3\n        /* \"contracts/Pool/Pool.sol\":7891:8221  function _approve(address owner, address spender, uint256 amount) private {... */\n      pop\n      pop\n      pop\n      jump\t// out\n        /* \"contracts/Pool/Pool.sol\":8724:10187  function _transfer(address from, address to, uint256 amount) private {... */\n    tag_159:\n        /* \"contracts/Pool/Pool.sol\":8827:8828  0 */\n      0x00\n        /* \"contracts/Pool/Pool.sol\":8811:8829  from != address(0) */\n      0xffffffffffffffffffffffffffffffffffffffff\n      and\n        /* \"contracts/Pool/Pool.sol\":8811:8815  from */\n      dup4\n        /* \"contracts/Pool/Pool.sol\":8811:8829  from != address(0) */\n      0xffffffffffffffffffffffffffffffffffffffff\n      and\n      sub\n        /* \"contracts/Pool/Pool.sol\":8803:8871  require(from != address(0), \"ERC20: transfer from the zero address\") */\n      tag_293\n      jumpi\n      mload(0x40)\n      0x08c379a000000000000000000000000000000000000000000000000000000000\n      dup2\n      mstore\n      0x04\n      add\n      tag_294\n      swap1\n      tag_295\n      jump\t// in\n    tag_294:\n      mload(0x40)\n      dup1\n      swap2\n      sub\n      swap1\n      revert\n    tag_293:\n        /* \"contracts/Pool/Pool.sol\":8903:8904  0 */\n      0x00\n        /* \"contracts/Pool/Pool.sol\":8889:8905  to != address(0) */\n      0xffffffffffffffffffffffffffffffffffffffff\n      and\n        /* \"contracts/Pool/Pool.sol\":8889:8891  to */\n      dup3\n        /* \"contracts/Pool/Pool.sol\":8889:8905  to != address(0) */\n      0xffffffffffffffffffffffffffffffffffffffff\n      and\n      sub\n        /* \"contracts/Pool/Pool.sol\":8881:8945  require(to != address(0), \"ERC20: transfer to the zero address\") */\n      tag_296\n      jumpi\n      mload(0x40)\n      0x08c379a000000000000000000000000000000000000000000000000000000000\n      dup2\n      mstore\n      0x04\n      add\n      tag_297\n      swap1\n      tag_298\n      jump\t// in\n    tag_297:\n      mload(0x40)\n      dup1\n      swap2\n      sub\n      swap1\n      revert\n    tag_296:\n        /* \"contracts/Pool/Pool.sol\":8972:8973  0 */\n      0x00\n        /* \"contracts/Pool/Pool.sol\":8963:8969  amount */\n      dup2\n        /* \"contracts/Pool/Pool.sol\":8963:8973  amount > 0 */\n      gt\n        /* \"contracts/Pool/Pool.sol\":8955:9019  require(amount > 0, \"Transfer amount must be greater than zero\") */\n      tag_299\n      jumpi\n      mload(0x40)\n      0x08c379a000000000000000000000000000000000000000000000000000000000\n      dup2\n      mstore\n      0x04\n      add\n      tag_300\n      swap1\n      tag_301\n      jump\t// in\n    tag_300:\n      mload(0x40)\n      dup1\n      swap2\n      sub\n      swap1\n      revert\n    tag_299:\n        /* \"contracts/Pool/Pool.sol\":9050:9051  0 */\n      0x00\n        /* \"contracts/Pool/Pool.sol\":9038:9047  _redisFee */\n      0x0c\n        /* \"contracts/Pool/Pool.sol\":9038:9051  _redisFee = 0 */\n      dup2\n      swap1\n      sstore\n      pop\n        /* \"contracts/Pool/Pool.sol\":9071:9072  0 */\n      0x00\n        /* \"contracts/Pool/Pool.sol\":9061:9068  _taxFee */\n      0x0d\n        /* \"contracts/Pool/Pool.sol\":9061:9072  _taxFee = 0 */\n      dup2\n      swap1\n      sstore\n      pop\n        /* \"contracts/Pool/Pool.sol\":9094:9101  owner() */\n      tag_302\n        /* \"contracts/Pool/Pool.sol\":9094:9099  owner */\n      tag_101\n        /* \"contracts/Pool/Pool.sol\":9094:9101  owner() */\n      jump\t// in\n    tag_302:\n        /* \"contracts/Pool/Pool.sol\":9086:9101  from != owner() */\n      0xffffffffffffffffffffffffffffffffffffffff\n      and\n        /* \"contracts/Pool/Pool.sol\":9086:9090  from */\n      dup4\n        /* \"contracts/Pool/Pool.sol\":9086:9101  from != owner() */\n      0xffffffffffffffffffffffffffffffffffffffff\n      and\n      eq\n      iszero\n        /* \"contracts/Pool/Pool.sol\":9086:9118  from != owner() && to != owner() */\n      dup1\n      iszero\n      tag_303\n      jumpi\n      pop\n        /* \"contracts/Pool/Pool.sol\":9111:9118  owner() */\n      tag_304\n        /* \"contracts/Pool/Pool.sol\":9111:9116  owner */\n      tag_101\n        /* \"contracts/Pool/Pool.sol\":9111:9118  owner() */\n      jump\t// in\n    tag_304:\n        /* \"contracts/Pool/Pool.sol\":9105:9118  to != owner() */\n      0xffffffffffffffffffffffffffffffffffffffff\n      and\n        /* \"contracts/Pool/Pool.sol\":9105:9107  to */\n      dup3\n        /* \"contracts/Pool/Pool.sol\":9105:9118  to != owner() */\n      0xffffffffffffffffffffffffffffffffffffffff\n      and\n      eq\n      iszero\n        /* \"contracts/Pool/Pool.sol\":9086:9118  from != owner() && to != owner() */\n    tag_303:\n        /* \"contracts/Pool/Pool.sol\":9082:10140  if (from != owner() && to != owner()) {... */\n      iszero\n      tag_305\n      jumpi\n        /* \"contracts/Pool/Pool.sol\":9134:9162  uint256 contractTokenBalance */\n      0x00\n        /* \"contracts/Pool/Pool.sol\":9165:9189  balanceOf(address(this)) */\n      tag_306\n        /* \"contracts/Pool/Pool.sol\":9183:9187  this */\n      address\n        /* \"contracts/Pool/Pool.sol\":9165:9174  balanceOf */\n      tag_89\n        /* \"contracts/Pool/Pool.sol\":9165:9189  balanceOf(address(this)) */\n      jump\t// in\n    tag_306:\n        /* \"contracts/Pool/Pool.sol\":9134:9189  uint256 contractTokenBalance = balanceOf(address(this)) */\n      swap1\n      pop\n        /* \"contracts/Pool/Pool.sol\":9208:9214  inSwap */\n      0x14\n      dup1\n      sload\n      swap1\n      0x0100\n      exp\n      swap1\n      div\n      0xff\n      and\n        /* \"contracts/Pool/Pool.sol\":9207:9214  !inSwap */\n      iszero\n        /* \"contracts/Pool/Pool.sol\":9207:9239  !inSwap && from != uniswapV2Pair */\n      dup1\n      iszero\n      tag_307\n      jumpi\n      pop\n        /* \"contracts/Pool/Pool.sol\":9226:9239  uniswapV2Pair */\n      0x14\n      0x00\n      swap1\n      sload\n      swap1\n      0x0100\n      exp\n      swap1\n      div\n      0xffffffffffffffffffffffffffffffffffffffff\n      and\n        /* \"contracts/Pool/Pool.sol\":9218:9239  from != uniswapV2Pair */\n      0xffffffffffffffffffffffffffffffffffffffff\n      and\n        /* \"contracts/Pool/Pool.sol\":9218:9222  from */\n      dup5\n        /* \"contracts/Pool/Pool.sol\":9218:9239  from != uniswapV2Pair */\n      0xffffffffffffffffffffffffffffffffffffffff\n      and\n      eq\n      iszero\n        /* \"contracts/Pool/Pool.sol\":9207:9239  !inSwap && from != uniswapV2Pair */\n    tag_307:\n        /* \"contracts/Pool/Pool.sol\":9207:9254  !inSwap && from != uniswapV2Pair && swapEnabled */\n      dup1\n      iszero\n      tag_308\n      jumpi\n      pop\n        /* \"contracts/Pool/Pool.sol\":9243:9254  swapEnabled */\n      0x14\n      0x15\n      swap1\n      sload\n      swap1\n      0x0100\n      exp\n      swap1\n      div\n      0xff\n      and\n        /* \"contracts/Pool/Pool.sol\":9207:9254  !inSwap && from != uniswapV2Pair && swapEnabled */\n    tag_308:\n        /* \"contracts/Pool/Pool.sol\":9207:9282  !inSwap && from != uniswapV2Pair && swapEnabled && contractTokenBalance > 0 */\n      dup1\n      iszero\n      tag_309\n      jumpi\n      pop\n        /* \"contracts/Pool/Pool.sol\":9281:9282  0 */\n      0x00\n        /* \"contracts/Pool/Pool.sol\":9258:9278  contractTokenBalance */\n      dup2\n        /* \"contracts/Pool/Pool.sol\":9258:9282  contractTokenBalance > 0 */\n      gt\n        /* \"contracts/Pool/Pool.sol\":9207:9282  !inSwap && from != uniswapV2Pair && swapEnabled && contractTokenBalance > 0 */\n    tag_309:\n        /* \"contracts/Pool/Pool.sol\":9203:9543  if (!inSwap && from != uniswapV2Pair && swapEnabled && contractTokenBalance > 0) {... */\n      iszero\n      tag_310\n      jumpi\n        /* \"contracts/Pool/Pool.sol\":9302:9340  swapTokensForEth(contractTokenBalance) */\n      tag_311\n        /* \"contracts/Pool/Pool.sol\":9319:9339  contractTokenBalance */\n      dup2\n        /* \"contracts/Pool/Pool.sol\":9302:9318  swapTokensForEth */\n      tag_226\n        /* \"contracts/Pool/Pool.sol\":9302:9340  swapTokensForEth(contractTokenBalance) */\n      jump\t// in\n    tag_311:\n        /* \"contracts/Pool/Pool.sol\":9358:9384  uint256 contractETHBalance */\n      0x00\n        /* \"contracts/Pool/Pool.sol\":9387:9408  address(this).balance */\n      selfbalance\n        /* \"contracts/Pool/Pool.sol\":9358:9408  uint256 contractETHBalance = address(this).balance */\n      swap1\n      pop\n        /* \"contracts/Pool/Pool.sol\":9450:9451  0 */\n      0x00\n        /* \"contracts/Pool/Pool.sol\":9429:9447  contractETHBalance */\n      dup2\n        /* \"contracts/Pool/Pool.sol\":9429:9451  contractETHBalance > 0 */\n      gt\n        /* \"contracts/Pool/Pool.sol\":9426:9529  if(contractETHBalance > 0) {... */\n      iszero\n      tag_312\n      jumpi\n        /* \"contracts/Pool/Pool.sol\":9475:9510  sendETHToFee(address(this).balance) */\n      tag_313\n        /* \"contracts/Pool/Pool.sol\":9488:9509  address(this).balance */\n      selfbalance\n        /* \"contracts/Pool/Pool.sol\":9475:9487  sendETHToFee */\n      tag_184\n        /* \"contracts/Pool/Pool.sol\":9475:9510  sendETHToFee(address(this).balance) */\n      jump\t// in\n    tag_313:\n        /* \"contracts/Pool/Pool.sol\":9426:9529  if(contractETHBalance > 0) {... */\n    tag_312:\n        /* \"contracts/Pool/Pool.sol\":9284:9543  {... */\n      pop\n        /* \"contracts/Pool/Pool.sol\":9203:9543  if (!inSwap && from != uniswapV2Pair && swapEnabled && contractTokenBalance > 0) {... */\n    tag_310:\n        /* \"contracts/Pool/Pool.sol\":9580:9593  uniswapV2Pair */\n      0x14\n      0x00\n      swap1\n      sload\n      swap1\n      0x0100\n      exp\n      swap1\n      div\n      0xffffffffffffffffffffffffffffffffffffffff\n      and\n        /* \"contracts/Pool/Pool.sol\":9572:9593  from == uniswapV2Pair */\n      0xffffffffffffffffffffffffffffffffffffffff\n      and\n        /* \"contracts/Pool/Pool.sol\":9572:9576  from */\n      dup5\n        /* \"contracts/Pool/Pool.sol\":9572:9593  from == uniswapV2Pair */\n      0xffffffffffffffffffffffffffffffffffffffff\n      and\n      eq\n        /* \"contracts/Pool/Pool.sol\":9572:9627  from == uniswapV2Pair && to != address(uniswapV2Router) */\n      dup1\n      iszero\n      tag_314\n      jumpi\n      pop\n        /* \"contracts/Pool/Pool.sol\":9611:9626  uniswapV2Router */\n      0x11\n      0x00\n      swap1\n      sload\n      swap1\n      0x0100\n      exp\n      swap1\n      div\n      0xffffffffffffffffffffffffffffffffffffffff\n      and\n        /* \"contracts/Pool/Pool.sol\":9597:9627  to != address(uniswapV2Router) */\n      0xffffffffffffffffffffffffffffffffffffffff\n      and\n        /* \"contracts/Pool/Pool.sol\":9597:9599  to */\n      dup4\n        /* \"contracts/Pool/Pool.sol\":9597:9627  to != address(uniswapV2Router) */\n      0xffffffffffffffffffffffffffffffffffffffff\n      and\n      eq\n      iszero\n        /* \"contracts/Pool/Pool.sol\":9572:9627  from == uniswapV2Pair && to != address(uniswapV2Router) */\n    tag_314:\n        /* \"contracts/Pool/Pool.sol\":9569:9728  if(from == uniswapV2Pair && to != address(uniswapV2Router)) {... */\n      iszero\n      tag_315\n      jumpi\n        /* \"contracts/Pool/Pool.sol\":9659:9673  _redisFeeOnBuy */\n      sload(0x08)\n        /* \"contracts/Pool/Pool.sol\":9647:9656  _redisFee */\n      0x0c\n        /* \"contracts/Pool/Pool.sol\":9647:9673  _redisFee = _redisFeeOnBuy */\n      dup2\n      swap1\n      sstore\n      pop\n        /* \"contracts/Pool/Pool.sol\":9701:9713  _taxFeeOnBuy */\n      sload(0x09)\n        /* \"contracts/Pool/Pool.sol\":9691:9698  _taxFee */\n      0x0d\n        /* \"contracts/Pool/Pool.sol\":9691:9713  _taxFee = _taxFeeOnBuy */\n      dup2\n      swap1\n      sstore\n      pop\n        /* \"contracts/Pool/Pool.sol\":9569:9728  if(from == uniswapV2Pair && to != address(uniswapV2Router)) {... */\n    tag_315:\n        /* \"contracts/Pool/Pool.sol\":9756:9769  uniswapV2Pair */\n      0x14\n      0x00\n      swap1\n      sload\n      swap1\n      0x0100\n      exp\n      swap1\n      div\n      0xffffffffffffffffffffffffffffffffffffffff\n      and\n        /* \"contracts/Pool/Pool.sol\":9750:9769  to == uniswapV2Pair */\n      0xffffffffffffffffffffffffffffffffffffffff\n      and\n        /* \"contracts/Pool/Pool.sol\":9750:9752  to */\n      dup4\n        /* \"contracts/Pool/Pool.sol\":9750:9769  to == uniswapV2Pair */\n      0xffffffffffffffffffffffffffffffffffffffff\n      and\n      eq\n        /* \"contracts/Pool/Pool.sol\":9750:9805  to == uniswapV2Pair && from != address(uniswapV2Router) */\n      dup1\n      iszero\n      tag_316\n      jumpi\n      pop\n        /* \"contracts/Pool/Pool.sol\":9789:9804  uniswapV2Router */\n      0x11\n      0x00\n      swap1\n      sload\n      swap1\n      0x0100\n      exp\n      swap1\n      div\n      0xffffffffffffffffffffffffffffffffffffffff\n      and\n        /* \"contracts/Pool/Pool.sol\":9773:9805  from != address(uniswapV2Router) */\n      0xffffffffffffffffffffffffffffffffffffffff\n      and\n        /* \"contracts/Pool/Pool.sol\":9773:9777  from */\n      dup5\n        /* \"contracts/Pool/Pool.sol\":9773:9805  from != address(uniswapV2Router) */\n      0xffffffffffffffffffffffffffffffffffffffff\n      and\n      eq\n      iszero\n        /* \"contracts/Pool/Pool.sol\":9750:9805  to == uniswapV2Pair && from != address(uniswapV2Router) */\n    tag_316:\n        /* \"contracts/Pool/Pool.sol\":9746:9908  if (to == uniswapV2Pair && from != address(uniswapV2Router)) {... */\n      iszero\n      tag_317\n      jumpi\n        /* \"contracts/Pool/Pool.sol\":9837:9852  _redisFeeOnSell */\n      sload(0x0a)\n        /* \"contracts/Pool/Pool.sol\":9825:9834  _redisFee */\n      0x0c\n        /* \"contracts/Pool/Pool.sol\":9825:9852  _redisFee = _redisFeeOnSell */\n      dup2\n      swap1\n      sstore\n      pop\n        /* \"contracts/Pool/Pool.sol\":9880:9893  _taxFeeOnSell */\n      sload(0x0b)\n        /* \"contracts/Pool/Pool.sol\":9870:9877  _taxFee */\n      0x0d\n        /* \"contracts/Pool/Pool.sol\":9870:9893  _taxFee = _taxFeeOnSell */\n      dup2\n      swap1\n      sstore\n      pop\n        /* \"contracts/Pool/Pool.sol\":9746:9908  if (to == uniswapV2Pair && from != address(uniswapV2Router)) {... */\n    tag_317:\n        /* \"contracts/Pool/Pool.sol\":9939:9957  _isExcludedFromFee */\n      0x05\n        /* \"contracts/Pool/Pool.sol\":9939:9963  _isExcludedFromFee[from] */\n      0x00\n        /* \"contracts/Pool/Pool.sol\":9958:9962  from */\n      dup6\n        /* \"contracts/Pool/Pool.sol\":9939:9963  _isExcludedFromFee[from] */\n      0xffffffffffffffffffffffffffffffffffffffff\n      and\n      0xffffffffffffffffffffffffffffffffffffffff\n      and\n      dup2\n      mstore\n      0x20\n      add\n      swap1\n      dup2\n      mstore\n      0x20\n      add\n      0x00\n      keccak256\n      0x00\n      swap1\n      sload\n      swap1\n      0x0100\n      exp\n      swap1\n      div\n      0xff\n      and\n        /* \"contracts/Pool/Pool.sol\":9939:9989  _isExcludedFromFee[from] || _isExcludedFromFee[to] */\n      dup1\n      tag_318\n      jumpi\n      pop\n        /* \"contracts/Pool/Pool.sol\":9967:9985  _isExcludedFromFee */\n      0x05\n        /* \"contracts/Pool/Pool.sol\":9967:9989  _isExcludedFromFee[to] */\n      0x00\n        /* \"contracts/Pool/Pool.sol\":9986:9988  to */\n      dup5\n        /* \"contracts/Pool/Pool.sol\":9967:9989  _isExcludedFromFee[to] */\n      0xffffffffffffffffffffffffffffffffffffffff\n      and\n      0xffffffffffffffffffffffffffffffffffffffff\n      and\n      dup2\n      mstore\n      0x20\n      add\n      swap1\n      dup2\n      mstore\n      0x20\n      add\n      0x00\n      keccak256\n      0x00\n      swap1\n      sload\n      swap1\n      0x0100\n      exp\n      swap1\n      div\n      0xff\n      and\n        /* \"contracts/Pool/Pool.sol\":9939:9989  _isExcludedFromFee[from] || _isExcludedFromFee[to] */\n    tag_318:\n        /* \"contracts/Pool/Pool.sol\":9938:10040  (_isExcludedFromFee[from] || _isExcludedFromFee[to]) || (from != uniswapV2Pair && to != uniswapV2Pair) */\n      dup1\n      tag_319\n      jumpi\n      pop\n        /* \"contracts/Pool/Pool.sol\":10003:10016  uniswapV2Pair */\n      0x14\n      0x00\n      swap1\n      sload\n      swap1\n      0x0100\n      exp\n      swap1\n      div\n      0xffffffffffffffffffffffffffffffffffffffff\n      and\n        /* \"contracts/Pool/Pool.sol\":9995:10016  from != uniswapV2Pair */\n      0xffffffffffffffffffffffffffffffffffffffff\n      and\n        /* \"contracts/Pool/Pool.sol\":9995:9999  from */\n      dup5\n        /* \"contracts/Pool/Pool.sol\":9995:10016  from != uniswapV2Pair */\n      0xffffffffffffffffffffffffffffffffffffffff\n      and\n      eq\n      iszero\n        /* \"contracts/Pool/Pool.sol\":9995:10039  from != uniswapV2Pair && to != uniswapV2Pair */\n      dup1\n      iszero\n      tag_320\n      jumpi\n      pop\n        /* \"contracts/Pool/Pool.sol\":10026:10039  uniswapV2Pair */\n      0x14\n      0x00\n      swap1\n      sload\n      swap1\n      0x0100\n      exp\n      swap1\n      div\n      0xffffffffffffffffffffffffffffffffffffffff\n      and\n        /* \"contracts/Pool/Pool.sol\":10020:10039  to != uniswapV2Pair */\n      0xffffffffffffffffffffffffffffffffffffffff\n      and\n        /* \"contracts/Pool/Pool.sol\":10020:10022  to */\n      dup4\n        /* \"contracts/Pool/Pool.sol\":10020:10039  to != uniswapV2Pair */\n      0xffffffffffffffffffffffffffffffffffffffff\n      and\n      eq\n      iszero\n        /* \"contracts/Pool/Pool.sol\":9995:10039  from != uniswapV2Pair && to != uniswapV2Pair */\n    tag_320:\n        /* \"contracts/Pool/Pool.sol\":9938:10040  (_isExcludedFromFee[from] || _isExcludedFromFee[to]) || (from != uniswapV2Pair && to != uniswapV2Pair) */\n    tag_319:\n        /* \"contracts/Pool/Pool.sol\":9934:10117  if ((_isExcludedFromFee[from] || _isExcludedFromFee[to]) || (from != uniswapV2Pair && to != uniswapV2Pair)) {... */\n      iszero\n      tag_321\n      jumpi\n        /* \"contracts/Pool/Pool.sol\":10072:10073  0 */\n      0x00\n        /* \"contracts/Pool/Pool.sol\":10060:10069  _redisFee */\n      0x0c\n        /* \"contracts/Pool/Pool.sol\":10060:10073  _redisFee = 0 */\n      dup2\n      swap1\n      sstore\n      pop\n        /* \"contracts/Pool/Pool.sol\":10101:10102  0 */\n      0x00\n        /* \"contracts/Pool/Pool.sol\":10091:10098  _taxFee */\n      0x0d\n        /* \"contracts/Pool/Pool.sol\":10091:10102  _taxFee = 0 */\n      dup2\n      swap1\n      sstore\n      pop\n        /* \"contracts/Pool/Pool.sol\":9934:10117  if ((_isExcludedFromFee[from] || _isExcludedFromFee[to]) || (from != uniswapV2Pair && to != uniswapV2Pair)) {... */\n    tag_321:\n        /* \"contracts/Pool/Pool.sol\":9120:10140  {... */\n      pop\n        /* \"contracts/Pool/Pool.sol\":9082:10140  if (from != owner() && to != owner()) {... */\n    tag_305:\n        /* \"contracts/Pool/Pool.sol\":10150:10180  _tokenTransfer(from,to,amount) */\n      tag_322\n        /* \"contracts/Pool/Pool.sol\":10165:10169  from */\n      dup4\n        /* \"contracts/Pool/Pool.sol\":10170:10172  to */\n      dup4\n        /* \"contracts/Pool/Pool.sol\":10173:10179  amount */\n      dup4\n        /* \"contracts/Pool/Pool.sol\":10150:10164  _tokenTransfer */\n      tag_323\n        /* \"contracts/Pool/Pool.sol\":10150:10180  _tokenTransfer(from,to,amount) */\n      jump\t// in\n    tag_322:\n        /* \"contracts/Pool/Pool.sol\":8724:10187  function _transfer(address from, address to, uint256 amount) private {... */\n      pop\n      pop\n      pop\n      jump\t// out\n        /* \"contracts/Pool/Pool.sol\":2399:2585  function sub(uint256 a, uint256 b, string memory errorMessage) internal pure returns (uint256) {... */\n    tag_164:\n        /* \"contracts/Pool/Pool.sol\":2485:2492  uint256 */\n      0x00\n        /* \"contracts/Pool/Pool.sol\":2517:2518  a */\n      dup4\n        /* \"contracts/Pool/Pool.sol\":2512:2513  b */\n      dup4\n        /* \"contracts/Pool/Pool.sol\":2512:2518  b <= a */\n      gt\n      iszero\n        /* \"contracts/Pool/Pool.sol\":2520:2532  errorMessage */\n      dup3\n        /* \"contracts/Pool/Pool.sol\":2504:2533  require(b <= a, errorMessage) */\n      swap1\n      tag_325\n      jumpi\n      mload(0x40)\n      0x08c379a000000000000000000000000000000000000000000000000000000000\n      dup2\n      mstore\n      0x04\n      add\n      tag_326\n      swap2\n      swap1\n      tag_38\n      jump\t// in\n    tag_326:\n      mload(0x40)\n      dup1\n      swap2\n      sub\n      swap1\n      revert\n    tag_325:\n      pop\n        /* \"contracts/Pool/Pool.sol\":2543:2552  uint256 c */\n      0x00\n        /* \"contracts/Pool/Pool.sol\":2559:2560  b */\n      dup4\n        /* \"contracts/Pool/Pool.sol\":2555:2556  a */\n      dup6\n        /* \"contracts/Pool/Pool.sol\":2555:2560  a - b */\n      tag_327\n      swap2\n      swap1\n      tag_328\n      jump\t// in\n    tag_327:\n        /* \"contracts/Pool/Pool.sol\":2543:2560  uint256 c = a - b */\n      swap1\n      pop\n        /* \"contracts/Pool/Pool.sol\":2577:2578  c */\n      dup1\n        /* \"contracts/Pool/Pool.sol\":2570:2578  return c */\n      swap2\n      pop\n      pop\n        /* \"contracts/Pool/Pool.sol\":2399:2585  function sub(uint256 a, uint256 b, string memory errorMessage) internal pure returns (uint256) {... */\n      swap4\n      swap3\n      pop\n      pop\n      pop\n      jump\t// out\n        /* \"contracts/Pool/Pool.sol\":10678:10835  function sendETHToFee(uint256 amount) private {... */\n    tag_184:\n        /* \"contracts/Pool/Pool.sol\":10734:10753  _developmentAddress */\n      0x0e\n      0x00\n      swap1\n      sload\n      swap1\n      0x0100\n      exp\n      swap1\n      div\n      0xffffffffffffffffffffffffffffffffffffffff\n      and\n        /* \"contracts/Pool/Pool.sol\":10734:10762  _developmentAddress.transfer */\n      0xffffffffffffffffffffffffffffffffffffffff\n      and\n        /* \"contracts/Pool/Pool.sol\":10734:10777  _developmentAddress.transfer(amount.div(2)) */\n      0x08fc\n        /* \"contracts/Pool/Pool.sol\":10763:10776  amount.div(2) */\n      tag_330\n        /* \"contracts/Pool/Pool.sol\":10774:10775  2 */\n      0x02\n        /* \"contracts/Pool/Pool.sol\":10763:10769  amount */\n      dup5\n        /* \"contracts/Pool/Pool.sol\":10763:10773  amount.div */\n      tag_331\n      swap1\n        /* \"contracts/Pool/Pool.sol\":10763:10776  amount.div(2) */\n      swap2\n      swap1\n      0xffffffff\n      and\n      jump\t// in\n    tag_330:\n        /* \"contracts/Pool/Pool.sol\":10734:10777  _developmentAddress.transfer(amount.div(2)) */\n      swap1\n      dup2\n      iszero\n      mul\n      swap1\n      mload(0x40)\n      0x00\n      mload(0x40)\n      dup1\n      dup4\n      sub\n      dup2\n      dup6\n      dup9\n      dup9\n      call\n      swap4\n      pop\n      pop\n      pop\n      pop\n      iszero\n      dup1\n      iszero\n      tag_333\n      jumpi\n      returndatasize\n      0x00\n      dup1\n      returndatacopy\n      revert(0x00, returndatasize)\n    tag_333:\n      pop\n        /* \"contracts/Pool/Pool.sol\":10787:10804  _marketingAddress */\n      0x0f\n      0x00\n      swap1\n      sload\n      swap1\n      0x0100\n      exp\n      swap1\n      div\n      0xffffffffffffffffffffffffffffffffffffffff\n      and\n        /* \"contracts/Pool/Pool.sol\":10787:10813  _marketingAddress.transfer */\n      0xffffffffffffffffffffffffffffffffffffffff\n      and\n        /* \"contracts/Pool/Pool.sol\":10787:10828  _marketingAddress.transfer(amount.div(2)) */\n      0x08fc\n        /* \"contracts/Pool/Pool.sol\":10814:10827  amount.div(2) */\n      tag_334\n        /* \"contracts/Pool/Pool.sol\":10825:10826  2 */\n      0x02\n        /* \"contracts/Pool/Pool.sol\":10814:10820  amount */\n      dup5\n        /* \"contracts/Pool/Pool.sol\":10814:10824  amount.div */\n      tag_331\n      swap1\n        /* \"contracts/Pool/Pool.sol\":10814:10827  amount.div(2) */\n      swap2\n      swap1\n      0xffffffff\n      and\n      jump\t// in\n    tag_334:\n        /* \"contracts/Pool/Pool.sol\":10787:10828  _marketingAddress.transfer(amount.div(2)) */\n      swap1\n      dup2\n      iszero\n      mul\n      swap1\n      mload(0x40)\n      0x00\n      mload(0x40)\n      dup1\n      dup4\n      sub\n      dup2\n      dup6\n      dup9\n      dup9\n      call\n      swap4\n      pop\n      pop\n      pop\n      pop\n      iszero\n      dup1\n      iszero\n      tag_336\n      jumpi\n      returndatasize\n      0x00\n      dup1\n      returndatacopy\n      revert(0x00, returndatasize)\n    tag_336:\n      pop\n        /* \"contracts/Pool/Pool.sol\":10678:10835  function sendETHToFee(uint256 amount) private {... */\n      pop\n      jump\t// out\n        /* \"contracts/Pool/Pool.sol\":7634:7884  function tokenFromReflection(uint256 rAmount) private view returns(uint256) {... */\n    tag_187:\n        /* \"contracts/Pool/Pool.sol\":7701:7708  uint256 */\n      0x00\n        /* \"contracts/Pool/Pool.sol\":7739:7746  _rTotal */\n      sload(0x06)\n        /* \"contracts/Pool/Pool.sol\":7728:7735  rAmount */\n      dup3\n        /* \"contracts/Pool/Pool.sol\":7728:7746  rAmount <= _rTotal */\n      gt\n      iszero\n        /* \"contracts/Pool/Pool.sol\":7720:7793  require(rAmount <= _rTotal, \"Amount must be less than total reflections\") */\n      tag_338\n      jumpi\n      mload(0x40)\n      0x08c379a000000000000000000000000000000000000000000000000000000000\n      dup2\n      mstore\n      0x04\n      add\n      tag_339\n      swap1\n      tag_340\n      jump\t// in\n    tag_339:\n      mload(0x40)\n      dup1\n      swap2\n      sub\n      swap1\n      revert\n    tag_338:\n        /* \"contracts/Pool/Pool.sol\":7803:7822  uint256 currentRate */\n      0x00\n        /* \"contracts/Pool/Pool.sol\":7826:7836  _getRate() */\n      tag_341\n        /* \"contracts/Pool/Pool.sol\":7826:7834  _getRate */\n      tag_342\n        /* \"contracts/Pool/Pool.sol\":7826:7836  _getRate() */\n      jump\t// in\n    tag_341:\n        /* \"contracts/Pool/Pool.sol\":7803:7836  uint256 currentRate =  _getRate() */\n      swap1\n      pop\n        /* \"contracts/Pool/Pool.sol\":7853:7877  rAmount.div(currentRate) */\n      tag_343\n        /* \"contracts/Pool/Pool.sol\":7865:7876  currentRate */\n      dup2\n        /* \"contracts/Pool/Pool.sol\":7853:7860  rAmount */\n      dup5\n        /* \"contracts/Pool/Pool.sol\":7853:7864  rAmount.div */\n      tag_331\n      swap1\n        /* \"contracts/Pool/Pool.sol\":7853:7877  rAmount.div(currentRate) */\n      swap2\n      swap1\n      0xffffffff\n      and\n      jump\t// in\n    tag_343:\n        /* \"contracts/Pool/Pool.sol\":7846:7877  return rAmount.div(currentRate) */\n      swap2\n      pop\n      pop\n        /* \"contracts/Pool/Pool.sol\":7634:7884  function tokenFromReflection(uint256 rAmount) private view returns(uint256) {... */\n      swap2\n      swap1\n      pop\n      jump\t// out\n        /* \"contracts/Pool/Pool.sol\":10193:10664  function swapTokensForEth(uint256 tokenAmount) private lockTheSwap {... */\n    tag_226:\n        /* \"contracts/Pool/Pool.sol\":5493:5497  true */\n      0x01\n        /* \"contracts/Pool/Pool.sol\":5484:5490  inSwap */\n      0x14\n      dup1\n        /* \"contracts/Pool/Pool.sol\":5484:5497  inSwap = true */\n      0x0100\n      exp\n      dup2\n      sload\n      dup2\n      0xff\n      mul\n      not\n      and\n      swap1\n      dup4\n      iszero\n      iszero\n      mul\n      or\n      swap1\n      sstore\n      pop\n        /* \"contracts/Pool/Pool.sol\":10270:10291  address[] memory path */\n      0x00\n        /* \"contracts/Pool/Pool.sol\":10308:10309  2 */\n      0x02\n        /* \"contracts/Pool/Pool.sol\":10294:10310  new address[](2) */\n      0xffffffffffffffff\n      dup2\n      gt\n      iszero\n      tag_346\n      jumpi\n      tag_347\n      tag_348\n      jump\t// in\n    tag_347:\n    tag_346:\n      mload(0x40)\n      swap1\n      dup1\n      dup3\n      mstore\n      dup1\n      0x20\n      mul\n      0x20\n      add\n      dup3\n      add\n      0x40\n      mstore\n      dup1\n      iszero\n      tag_349\n      jumpi\n      dup2\n      0x20\n      add\n      0x20\n      dup3\n      mul\n      dup1\n      calldatasize\n      dup4\n      calldatacopy\n      dup1\n      dup3\n      add\n      swap2\n      pop\n      pop\n      swap1\n      pop\n    tag_349:\n      pop\n        /* \"contracts/Pool/Pool.sol\":10270:10310  address[] memory path = new address[](2) */\n      swap1\n      pop\n        /* \"contracts/Pool/Pool.sol\":10338:10342  this */\n      address\n        /* \"contracts/Pool/Pool.sol\":10320:10324  path */\n      dup2\n        /* \"contracts/Pool/Pool.sol\":10325:10326  0 */\n      0x00\n        /* \"contracts/Pool/Pool.sol\":10320:10327  path[0] */\n      dup2\n      mload\n      dup2\n      lt\n      tag_350\n      jumpi\n      tag_351\n      tag_258\n      jump\t// in\n    tag_351:\n    tag_350:\n      0x20\n      mul\n      0x20\n      add\n      add\n        /* \"contracts/Pool/Pool.sol\":10320:10343  path[0] = address(this) */\n      swap1\n      0xffffffffffffffffffffffffffffffffffffffff\n      and\n      swap1\n      dup2\n      0xffffffffffffffffffffffffffffffffffffffff\n      and\n      dup2\n      mstore\n      pop\n      pop\n        /* \"contracts/Pool/Pool.sol\":10363:10378  uniswapV2Router */\n      0x11\n      0x00\n      swap1\n      sload\n      swap1\n      0x0100\n      exp\n      swap1\n      div\n      0xffffffffffffffffffffffffffffffffffffffff\n      and\n        /* \"contracts/Pool/Pool.sol\":10363:10383  uniswapV2Router.WETH */\n      0xffffffffffffffffffffffffffffffffffffffff\n      and\n      0xad5c4648\n        /* \"contracts/Pool/Pool.sol\":10363:10385  uniswapV2Router.WETH() */\n      mload(0x40)\n      dup2\n      0xffffffff\n      and\n      0xe0\n      shl\n      dup2\n      mstore\n      0x04\n      add\n      0x20\n      mload(0x40)\n      dup1\n      dup4\n      sub\n      dup2\n      dup7\n      gas\n      staticcall\n      iszero\n      dup1\n      iszero\n      tag_353\n      jumpi\n      returndatasize\n      0x00\n      dup1\n      returndatacopy\n      revert(0x00, returndatasize)\n    tag_353:\n      pop\n      pop\n      pop\n      pop\n      mload(0x40)\n      returndatasize\n      not(0x1f)\n      0x1f\n      dup3\n      add\n      and\n      dup3\n      add\n      dup1\n      0x40\n      mstore\n      pop\n      dup2\n      add\n      swap1\n      tag_354\n      swap2\n      swap1\n      tag_355\n      jump\t// in\n    tag_354:\n        /* \"contracts/Pool/Pool.sol\":10353:10357  path */\n      dup2\n        /* \"contracts/Pool/Pool.sol\":10358:10359  1 */\n      0x01\n        /* \"contracts/Pool/Pool.sol\":10353:10360  path[1] */\n      dup2\n      mload\n      dup2\n      lt\n      tag_356\n      jumpi\n      tag_357\n      tag_258\n      jump\t// in\n    tag_357:\n    tag_356:\n      0x20\n      mul\n      0x20\n      add\n      add\n        /* \"contracts/Pool/Pool.sol\":10353:10385  path[1] = uniswapV2Router.WETH() */\n      swap1\n      0xffffffffffffffffffffffffffffffffffffffff\n      and\n      swap1\n      dup2\n      0xffffffffffffffffffffffffffffffffffffffff\n      and\n      dup2\n      mstore\n      pop\n      pop\n        /* \"contracts/Pool/Pool.sol\":10395:10457  _approve(address(this), address(uniswapV2Router), tokenAmount) */\n      tag_358\n        /* \"contracts/Pool/Pool.sol\":10412:10416  this */\n      address\n        /* \"contracts/Pool/Pool.sol\":10427:10442  uniswapV2Router */\n      0x11\n      0x00\n      swap1\n      sload\n      swap1\n      0x0100\n      exp\n      swap1\n      div\n      0xffffffffffffffffffffffffffffffffffffffff\n      and\n        /* \"contracts/Pool/Pool.sol\":10445:10456  tokenAmount */\n      dup5\n        /* \"contracts/Pool/Pool.sol\":10395:10403  _approve */\n      tag_155\n        /* \"contracts/Pool/Pool.sol\":10395:10457  _approve(address(this), address(uniswapV2Router), tokenAmount) */\n      jump\t// in\n    tag_358:\n        /* \"contracts/Pool/Pool.sol\":10467:10482  uniswapV2Router */\n      0x11\n      0x00\n      swap1\n      sload\n      swap1\n      0x0100\n      exp\n      swap1\n      div\n      0xffffffffffffffffffffffffffffffffffffffff\n      and\n        /* \"contracts/Pool/Pool.sol\":10467:10533  uniswapV2Router.swapExactTokensForETHSupportingFeeOnTransferTokens */\n      0xffffffffffffffffffffffffffffffffffffffff\n      and\n      0x791ac947\n        /* \"contracts/Pool/Pool.sol\":10547:10558  tokenAmount */\n      dup4\n        /* \"contracts/Pool/Pool.sol\":10572:10573  0 */\n      0x00\n        /* \"contracts/Pool/Pool.sol\":10587:10591  path */\n      dup5\n        /* \"contracts/Pool/Pool.sol\":10613:10617  this */\n      address\n        /* \"contracts/Pool/Pool.sol\":10632:10647  block.timestamp */\n      timestamp\n        /* \"contracts/Pool/Pool.sol\":10467:10657  uniswapV2Router.swapExactTokensForETHSupportingFeeOnTransferTokens(... */\n      mload(0x40)\n      dup7\n      0xffffffff\n      and\n      0xe0\n      shl\n      dup2\n      mstore\n      0x04\n      add\n      tag_359\n      swap6\n      swap5\n      swap4\n      swap3\n      swap2\n      swap1\n      tag_360\n      jump\t// in\n    tag_359:\n      0x00\n      mload(0x40)\n      dup1\n      dup4\n      sub\n      dup2\n      0x00\n      dup8\n      dup1\n      extcodesize\n      iszero\n      dup1\n      iszero\n      tag_361\n      jumpi\n      0x00\n      dup1\n      revert\n    tag_361:\n      pop\n      gas\n      call\n      iszero\n      dup1\n      iszero\n      tag_363\n      jumpi\n      returndatasize\n      0x00\n      dup1\n      returndatacopy\n      revert(0x00, returndatasize)\n    tag_363:\n      pop\n      pop\n      pop\n      pop\n        /* \"contracts/Pool/Pool.sol\":10260:10664  {... */\n      pop\n        /* \"contracts/Pool/Pool.sol\":5527:5532  false */\n      0x00\n        /* \"contracts/Pool/Pool.sol\":5518:5524  inSwap */\n      0x14\n      dup1\n        /* \"contracts/Pool/Pool.sol\":5518:5532  inSwap = false */\n      0x0100\n      exp\n      dup2\n      sload\n      dup2\n      0xff\n      mul\n      not\n      and\n      swap1\n      dup4\n      iszero\n      iszero\n      mul\n      or\n      swap1\n      sstore\n      pop\n        /* \"contracts/Pool/Pool.sol\":10193:10664  function swapTokensForEth(uint256 tokenAmount) private lockTheSwap {... */\n      pop\n      jump\t// out\n        /* \"contracts/Pool/Pool.sol\":10845:10989  function _tokenTransfer(address sender, address recipient, uint256 amount) private {... */\n    tag_323:\n        /* \"contracts/Pool/Pool.sol\":10938:10982  _transferStandard(sender, recipient, amount) */\n      tag_365\n        /* \"contracts/Pool/Pool.sol\":10956:10962  sender */\n      dup4\n        /* \"contracts/Pool/Pool.sol\":10964:10973  recipient */\n      dup4\n        /* \"contracts/Pool/Pool.sol\":10975:10981  amount */\n      dup4\n        /* \"contracts/Pool/Pool.sol\":10938:10955  _transferStandard */\n      tag_366\n        /* \"contracts/Pool/Pool.sol\":10938:10982  _transferStandard(sender, recipient, amount) */\n      jump\t// in\n    tag_365:\n        /* \"contracts/Pool/Pool.sol\":10845:10989  function _tokenTransfer(address sender, address recipient, uint256 amount) private {... */\n      pop\n      pop\n      pop\n      jump\t// out\n        /* \"contracts/Pool/Pool.sol\":2836:2966  function div(uint256 a, uint256 b) internal pure returns (uint256) {... */\n    tag_331:\n        /* \"contracts/Pool/Pool.sol\":2894:2901  uint256 */\n      0x00\n        /* \"contracts/Pool/Pool.sol\":2920:2959  div(a, b, \"SafeMath: division by zero\") */\n      tag_368\n        /* \"contracts/Pool/Pool.sol\":2924:2925  a */\n      dup4\n        /* \"contracts/Pool/Pool.sol\":2927:2928  b */\n      dup4\n        /* \"contracts/Pool/Pool.sol\":2920:2959  div(a, b, \"SafeMath: division by zero\") */\n      mload(0x40)\n      dup1\n      0x40\n      add\n      0x40\n      mstore\n      dup1\n      0x1a\n      dup2\n      mstore\n      0x20\n      add\n      0x536166654d6174683a206469766973696f6e206279207a65726f000000000000\n      dup2\n      mstore\n      pop\n        /* \"contracts/Pool/Pool.sol\":2920:2923  div */\n      tag_369\n        /* \"contracts/Pool/Pool.sol\":2920:2959  div(a, b, \"SafeMath: division by zero\") */\n      jump\t// in\n    tag_368:\n        /* \"contracts/Pool/Pool.sol\":2913:2959  return div(a, b, \"SafeMath: division by zero\") */\n      swap1\n      pop\n        /* \"contracts/Pool/Pool.sol\":2836:2966  function div(uint256 a, uint256 b) internal pure returns (uint256) {... */\n      swap3\n      swap2\n      pop\n      pop\n      jump\t// out\n        /* \"contracts/Pool/Pool.sol\":14037:14197  function _getRate() private view returns(uint256) {... */\n    tag_342:\n        /* \"contracts/Pool/Pool.sol\":14078:14085  uint256 */\n      0x00\n        /* \"contracts/Pool/Pool.sol\":14098:14113  uint256 rSupply */\n      dup1\n        /* \"contracts/Pool/Pool.sol\":14115:14130  uint256 tSupply */\n      0x00\n        /* \"contracts/Pool/Pool.sol\":14134:14153  _getCurrentSupply() */\n      tag_371\n        /* \"contracts/Pool/Pool.sol\":14134:14151  _getCurrentSupply */\n      tag_372\n        /* \"contracts/Pool/Pool.sol\":14134:14153  _getCurrentSupply() */\n      jump\t// in\n    tag_371:\n        /* \"contracts/Pool/Pool.sol\":14097:14153  (uint256 rSupply, uint256 tSupply) = _getCurrentSupply() */\n      swap2\n      pop\n      swap2\n      pop\n        /* \"contracts/Pool/Pool.sol\":14170:14190  rSupply.div(tSupply) */\n      tag_373\n        /* \"contracts/Pool/Pool.sol\":14182:14189  tSupply */\n      dup2\n        /* \"contracts/Pool/Pool.sol\":14170:14177  rSupply */\n      dup4\n        /* \"contracts/Pool/Pool.sol\":14170:14181  rSupply.div */\n      tag_331\n      swap1\n        /* \"contracts/Pool/Pool.sol\":14170:14190  rSupply.div(tSupply) */\n      swap2\n      swap1\n      0xffffffff\n      and\n      jump\t// in\n    tag_373:\n        /* \"contracts/Pool/Pool.sol\":14163:14190  return rSupply.div(tSupply) */\n      swap3\n      pop\n      pop\n      pop\n        /* \"contracts/Pool/Pool.sol\":14037:14197  function _getRate() private view returns(uint256) {... */\n      swap1\n      jump\t// out\n        /* \"contracts/Pool/Pool.sol\":11919:12400  function _transferStandard(address sender, address recipient, uint256 tAmount) private {... */\n    tag_366:\n        /* \"contracts/Pool/Pool.sol\":12017:12032  uint256 rAmount */\n      0x00\n        /* \"contracts/Pool/Pool.sol\":12034:12057  uint256 rTransferAmount */\n      dup1\n        /* \"contracts/Pool/Pool.sol\":12059:12071  uint256 rFee */\n      0x00\n        /* \"contracts/Pool/Pool.sol\":12073:12096  uint256 tTransferAmount */\n      dup1\n        /* \"contracts/Pool/Pool.sol\":12098:12110  uint256 tFee */\n      0x00\n        /* \"contracts/Pool/Pool.sol\":12112:12125  uint256 tTeam */\n      dup1\n        /* \"contracts/Pool/Pool.sol\":12129:12148  _getValues(tAmount) */\n      tag_375\n        /* \"contracts/Pool/Pool.sol\":12140:12147  tAmount */\n      dup8\n        /* \"contracts/Pool/Pool.sol\":12129:12139  _getValues */\n      tag_376\n        /* \"contracts/Pool/Pool.sol\":12129:12148  _getValues(tAmount) */\n      jump\t// in\n    tag_375:\n        /* \"contracts/Pool/Pool.sol\":12016:12148  (uint256 rAmount, uint256 rTransferAmount, uint256 rFee, uint256 tTransferAmount, uint256 tFee, uint256 tTeam) = _getValues(tAmount) */\n      swap6\n      pop\n      swap6\n      pop\n      swap6\n      pop\n      swap6\n      pop\n      swap6\n      pop\n      swap6\n      pop\n        /* \"contracts/Pool/Pool.sol\":12176:12204  _rOwned[sender].sub(rAmount) */\n      tag_377\n        /* \"contracts/Pool/Pool.sol\":12196:12203  rAmount */\n      dup7\n        /* \"contracts/Pool/Pool.sol\":12176:12183  _rOwned */\n      0x02\n        /* \"contracts/Pool/Pool.sol\":12176:12191  _rOwned[sender] */\n      0x00\n        /* \"contracts/Pool/Pool.sol\":12184:12190  sender */\n      dup13\n        /* \"contracts/Pool/Pool.sol\":12176:12191  _rOwned[sender] */\n      0xffffffffffffffffffffffffffffffffffffffff\n      and\n      0xffffffffffffffffffffffffffffffffffffffff\n      and\n      dup2\n      mstore\n      0x20\n      add\n      swap1\n      dup2\n      mstore\n      0x20\n      add\n      0x00\n      keccak256\n      sload\n        /* \"contracts/Pool/Pool.sol\":12176:12195  _rOwned[sender].sub */\n      tag_378\n      swap1\n        /* \"contracts/Pool/Pool.sol\":12176:12204  _rOwned[sender].sub(rAmount) */\n      swap2\n      swap1\n      0xffffffff\n      and\n      jump\t// in\n    tag_377:\n        /* \"contracts/Pool/Pool.sol\":12158:12165  _rOwned */\n      0x02\n        /* \"contracts/Pool/Pool.sol\":12158:12173  _rOwned[sender] */\n      0x00\n        /* \"contracts/Pool/Pool.sol\":12166:12172  sender */\n      dup12\n        /* \"contracts/Pool/Pool.sol\":12158:12173  _rOwned[sender] */\n      0xffffffffffffffffffffffffffffffffffffffff\n      and\n      0xffffffffffffffffffffffffffffffffffffffff\n      and\n      dup2\n      mstore\n      0x20\n      add\n      swap1\n      dup2\n      mstore\n      0x20\n      add\n      0x00\n      keccak256\n        /* \"contracts/Pool/Pool.sol\":12158:12204  _rOwned[sender] = _rOwned[sender].sub(rAmount) */\n      dup2\n      swap1\n      sstore\n      pop\n        /* \"contracts/Pool/Pool.sol\":12235:12274  _rOwned[recipient].add(rTransferAmount) */\n      tag_379\n        /* \"contracts/Pool/Pool.sol\":12258:12273  rTransferAmount */\n      dup6\n        /* \"contracts/Pool/Pool.sol\":12235:12242  _rOwned */\n      0x02\n        /* \"contracts/Pool/Pool.sol\":12235:12253  _rOwned[recipient] */\n      0x00\n        /* \"contracts/Pool/Pool.sol\":12243:12252  recipient */\n      dup12\n        /* \"contracts/Pool/Pool.sol\":12235:12253  _rOwned[recipient] */\n      0xffffffffffffffffffffffffffffffffffffffff\n      and\n      0xffffffffffffffffffffffffffffffffffffffff\n      and\n      dup2\n      mstore\n      0x20\n      add\n      swap1\n      dup2\n      mstore\n      0x20\n      add\n      0x00\n      keccak256\n      sload\n        /* \"contracts/Pool/Pool.sol\":12235:12257  _rOwned[recipient].add */\n      tag_380\n      swap1\n        /* \"contracts/Pool/Pool.sol\":12235:12274  _rOwned[recipient].add(rTransferAmount) */\n      swap2\n      swap1\n      0xffffffff\n      and\n      jump\t// in\n    tag_379:\n        /* \"contracts/Pool/Pool.sol\":12214:12221  _rOwned */\n      0x02\n        /* \"contracts/Pool/Pool.sol\":12214:12232  _rOwned[recipient] */\n      0x00\n        /* \"contracts/Pool/Pool.sol\":12222:12231  recipient */\n      dup11\n        /* \"contracts/Pool/Pool.sol\":12214:12232  _rOwned[recipient] */\n      0xffffffffffffffffffffffffffffffffffffffff\n      and\n      0xffffffffffffffffffffffffffffffffffffffff\n      and\n      dup2\n      mstore\n      0x20\n      add\n      swap1\n      dup2\n      mstore\n      0x20\n      add\n      0x00\n      keccak256\n        /* \"contracts/Pool/Pool.sol\":12214:12274  _rOwned[recipient] = _rOwned[recipient].add(rTransferAmount) */\n      dup2\n      swap1\n      sstore\n      pop\n        /* \"contracts/Pool/Pool.sol\":12285:12301  _takeTeam(tTeam) */\n      tag_381\n        /* \"contracts/Pool/Pool.sol\":12295:12300  tTeam */\n      dup2\n        /* \"contracts/Pool/Pool.sol\":12285:12294  _takeTeam */\n      tag_382\n        /* \"contracts/Pool/Pool.sol\":12285:12301  _takeTeam(tTeam) */\n      jump\t// in\n    tag_381:\n        /* \"contracts/Pool/Pool.sol\":12311:12334  _reflectFee(rFee, tFee) */\n      tag_383\n        /* \"contracts/Pool/Pool.sol\":12323:12327  rFee */\n      dup5\n        /* \"contracts/Pool/Pool.sol\":12329:12333  tFee */\n      dup4\n        /* \"contracts/Pool/Pool.sol\":12311:12322  _reflectFee */\n      tag_384\n        /* \"contracts/Pool/Pool.sol\":12311:12334  _reflectFee(rFee, tFee) */\n      jump\t// in\n    tag_383:\n        /* \"contracts/Pool/Pool.sol\":12366:12375  recipient */\n      dup8\n        /* \"contracts/Pool/Pool.sol\":12349:12393  Transfer(sender, recipient, tTransferAmount) */\n      0xffffffffffffffffffffffffffffffffffffffff\n      and\n        /* \"contracts/Pool/Pool.sol\":12358:12364  sender */\n      dup10\n        /* \"contracts/Pool/Pool.sol\":12349:12393  Transfer(sender, recipient, tTransferAmount) */\n      0xffffffffffffffffffffffffffffffffffffffff\n      and\n      0xddf252ad1be2c89b69c2b068fc378daa952ba7f163c4a11628f55a4df523b3ef\n        /* \"contracts/Pool/Pool.sol\":12377:12392  tTransferAmount */\n      dup6\n        /* \"contracts/Pool/Pool.sol\":12349:12393  Transfer(sender, recipient, tTransferAmount) */\n      mload(0x40)\n      tag_385\n      swap2\n      swap1\n      tag_55\n      jump\t// in\n    tag_385:\n      mload(0x40)\n      dup1\n      swap2\n      sub\n      swap1\n      log3\n        /* \"contracts/Pool/Pool.sol\":12006:12400  {... */\n      pop\n      pop\n      pop\n      pop\n      pop\n      pop\n        /* \"contracts/Pool/Pool.sol\":11919:12400  function _transferStandard(address sender, address recipient, uint256 tAmount) private {... */\n      pop\n      pop\n      pop\n      jump\t// out\n        /* \"contracts/Pool/Pool.sol\":2972:3157  function div(uint256 a, uint256 b, string memory errorMessage) internal pure returns (uint256) {... */\n    tag_369:\n        /* \"contracts/Pool/Pool.sol\":3058:3065  uint256 */\n      0x00\n        /* \"contracts/Pool/Pool.sol\":3089:3090  0 */\n      dup1\n        /* \"contracts/Pool/Pool.sol\":3085:3086  b */\n      dup4\n        /* \"contracts/Pool/Pool.sol\":3085:3090  b > 0 */\n      gt\n        /* \"contracts/Pool/Pool.sol\":3092:3104  errorMessage */\n      dup3\n        /* \"contracts/Pool/Pool.sol\":3077:3105  require(b > 0, errorMessage) */\n      swap1\n      tag_387\n      jumpi\n      mload(0x40)\n      0x08c379a000000000000000000000000000000000000000000000000000000000\n      dup2\n      mstore\n      0x04\n      add\n      tag_388\n      swap2\n      swap1\n      tag_38\n      jump\t// in\n    tag_388:\n      mload(0x40)\n      dup1\n      swap2\n      sub\n      swap1\n      revert\n    tag_387:\n      pop\n        /* \"contracts/Pool/Pool.sol\":3115:3124  uint256 c */\n      0x00\n        /* \"contracts/Pool/Pool.sol\":3131:3132  b */\n      dup4\n        /* \"contracts/Pool/Pool.sol\":3127:3128  a */\n      dup6\n        /* \"contracts/Pool/Pool.sol\":3127:3132  a / b */\n      tag_389\n      swap2\n      swap1\n      tag_390\n      jump\t// in\n    tag_389:\n        /* \"contracts/Pool/Pool.sol\":3115:3132  uint256 c = a / b */\n      swap1\n      pop\n        /* \"contracts/Pool/Pool.sol\":3149:3150  c */\n      dup1\n        /* \"contracts/Pool/Pool.sol\":3142:3150  return c */\n      swap2\n      pop\n      pop\n        /* \"contracts/Pool/Pool.sol\":2972:3157  function div(uint256 a, uint256 b, string memory errorMessage) internal pure returns (uint256) {... */\n      swap4\n      swap3\n      pop\n      pop\n      pop\n      jump\t// out\n        /* \"contracts/Pool/Pool.sol\":14203:14460  function _getCurrentSupply() private view returns(uint256, uint256) {... */\n    tag_372:\n        /* \"contracts/Pool/Pool.sol\":14253:14260  uint256 */\n      0x00\n        /* \"contracts/Pool/Pool.sol\":14262:14269  uint256 */\n      dup1\n        /* \"contracts/Pool/Pool.sol\":14281:14296  uint256 rSupply */\n      0x00\n        /* \"contracts/Pool/Pool.sol\":14299:14306  _rTotal */\n      sload(0x06)\n        /* \"contracts/Pool/Pool.sol\":14281:14306  uint256 rSupply = _rTotal */\n      swap1\n      pop\n        /* \"contracts/Pool/Pool.sol\":14316:14331  uint256 tSupply */\n      0x00\n        /* \"contracts/Pool/Pool.sol\":4427:4445  1000000000 * 10**9 */\n      0x0de0b6b3a7640000\n        /* \"contracts/Pool/Pool.sol\":14316:14341  uint256 tSupply = _tTotal */\n      swap1\n      pop\n        /* \"contracts/Pool/Pool.sol\":14371:14391  _rTotal.div(_tTotal) */\n      tag_392\n        /* \"contracts/Pool/Pool.sol\":4427:4445  1000000000 * 10**9 */\n      0x0de0b6b3a7640000\n        /* \"contracts/Pool/Pool.sol\":14371:14378  _rTotal */\n      sload(0x06)\n        /* \"contracts/Pool/Pool.sol\":14371:14382  _rTotal.div */\n      tag_331\n      swap1\n        /* \"contracts/Pool/Pool.sol\":14371:14391  _rTotal.div(_tTotal) */\n      swap2\n      swap1\n      0xffffffff\n      and\n      jump\t// in\n    tag_392:\n        /* \"contracts/Pool/Pool.sol\":14361:14368  rSupply */\n      dup3\n        /* \"contracts/Pool/Pool.sol\":14361:14391  rSupply < _rTotal.div(_tTotal) */\n      lt\n        /* \"contracts/Pool/Pool.sol\":14357:14418  if (rSupply < _rTotal.div(_tTotal)) return (_rTotal, _tTotal) */\n      iszero\n      tag_393\n      jumpi\n        /* \"contracts/Pool/Pool.sol\":14401:14408  _rTotal */\n      sload(0x06)\n        /* \"contracts/Pool/Pool.sol\":4427:4445  1000000000 * 10**9 */\n      0x0de0b6b3a7640000\n        /* \"contracts/Pool/Pool.sol\":14393:14418  return (_rTotal, _tTotal) */\n      swap4\n      pop\n      swap4\n      pop\n      pop\n      pop\n      jump(tag_391)\n        /* \"contracts/Pool/Pool.sol\":14357:14418  if (rSupply < _rTotal.div(_tTotal)) return (_rTotal, _tTotal) */\n    tag_393:\n        /* \"contracts/Pool/Pool.sol\":14436:14443  rSupply */\n      dup2\n        /* \"contracts/Pool/Pool.sol\":14445:14452  tSupply */\n      dup2\n        /* \"contracts/Pool/Pool.sol\":14428:14453  return (rSupply, tSupply) */\n      swap4\n      pop\n      swap4\n      pop\n      pop\n      pop\n        /* \"contracts/Pool/Pool.sol\":14203:14460  function _getCurrentSupply() private view returns(uint256, uint256) {... */\n    tag_391:\n      swap1\n      swap2\n      jump\t// out\n        /* \"contracts/Pool/Pool.sol\":12809:13273  function _getValues(uint256 tAmount) private view returns (uint256, uint256, uint256, uint256, uint256, uint256) {... */\n    tag_376:\n        /* \"contracts/Pool/Pool.sol\":12868:12875  uint256 */\n      0x00\n        /* \"contracts/Pool/Pool.sol\":12877:12884  uint256 */\n      dup1\n        /* \"contracts/Pool/Pool.sol\":12886:12893  uint256 */\n      0x00\n        /* \"contracts/Pool/Pool.sol\":12895:12902  uint256 */\n      dup1\n        /* \"contracts/Pool/Pool.sol\":12904:12911  uint256 */\n      0x00\n        /* \"contracts/Pool/Pool.sol\":12913:12920  uint256 */\n      dup1\n        /* \"contracts/Pool/Pool.sol\":12933:12956  uint256 tTransferAmount */\n      0x00\n        /* \"contracts/Pool/Pool.sol\":12958:12970  uint256 tFee */\n      dup1\n        /* \"contracts/Pool/Pool.sol\":12972:12985  uint256 tTeam */\n      0x00\n        /* \"contracts/Pool/Pool.sol\":12989:13029  _getTValues(tAmount, _redisFee, _taxFee) */\n      tag_395\n        /* \"contracts/Pool/Pool.sol\":13001:13008  tAmount */\n      dup11\n        /* \"contracts/Pool/Pool.sol\":13010:13019  _redisFee */\n      sload(0x0c)\n        /* \"contracts/Pool/Pool.sol\":13021:13028  _taxFee */\n      sload(0x0d)\n        /* \"contracts/Pool/Pool.sol\":12989:13000  _getTValues */\n      tag_396\n        /* \"contracts/Pool/Pool.sol\":12989:13029  _getTValues(tAmount, _redisFee, _taxFee) */\n      jump\t// in\n    tag_395:\n        /* \"contracts/Pool/Pool.sol\":12932:13029  (uint256 tTransferAmount, uint256 tFee, uint256 tTeam) = _getTValues(tAmount, _redisFee, _taxFee) */\n      swap3\n      pop\n      swap3\n      pop\n      swap3\n      pop\n        /* \"contracts/Pool/Pool.sol\":13039:13058  uint256 currentRate */\n      0x00\n        /* \"contracts/Pool/Pool.sol\":13062:13072  _getRate() */\n      tag_397\n        /* \"contracts/Pool/Pool.sol\":13062:13070  _getRate */\n      tag_342\n        /* \"contracts/Pool/Pool.sol\":13062:13072  _getRate() */\n      jump\t// in\n    tag_397:\n        /* \"contracts/Pool/Pool.sol\":13039:13072  uint256 currentRate =  _getRate() */\n      swap1\n      pop\n        /* \"contracts/Pool/Pool.sol\":13083:13098  uint256 rAmount */\n      0x00\n        /* \"contracts/Pool/Pool.sol\":13100:13123  uint256 rTransferAmount */\n      dup1\n        /* \"contracts/Pool/Pool.sol\":13125:13137  uint256 rFee */\n      0x00\n        /* \"contracts/Pool/Pool.sol\":13141:13187  _getRValues(tAmount, tFee, tTeam, currentRate) */\n      tag_398\n        /* \"contracts/Pool/Pool.sol\":13153:13160  tAmount */\n      dup15\n        /* \"contracts/Pool/Pool.sol\":13162:13166  tFee */\n      dup8\n        /* \"contracts/Pool/Pool.sol\":13168:13173  tTeam */\n      dup8\n        /* \"contracts/Pool/Pool.sol\":13175:13186  currentRate */\n      dup8\n        /* \"contracts/Pool/Pool.sol\":13141:13152  _getRValues */\n      tag_399\n        /* \"contracts/Pool/Pool.sol\":13141:13187  _getRValues(tAmount, tFee, tTeam, currentRate) */\n      jump\t// in\n    tag_398:\n        /* \"contracts/Pool/Pool.sol\":13082:13187  (uint256 rAmount, uint256 rTransferAmount, uint256 rFee) = _getRValues(tAmount, tFee, tTeam, currentRate) */\n      swap3\n      pop\n      swap3\n      pop\n      swap3\n      pop\n        /* \"contracts/Pool/Pool.sol\":13205:13212  rAmount */\n      dup3\n        /* \"contracts/Pool/Pool.sol\":13214:13229  rTransferAmount */\n      dup3\n        /* \"contracts/Pool/Pool.sol\":13231:13235  rFee */\n      dup3\n        /* \"contracts/Pool/Pool.sol\":13237:13252  tTransferAmount */\n      dup10\n        /* \"contracts/Pool/Pool.sol\":13254:13258  tFee */\n      dup10\n        /* \"contracts/Pool/Pool.sol\":13260:13265  tTeam */\n      dup10\n        /* \"contracts/Pool/Pool.sol\":13197:13266  return (rAmount, rTransferAmount, rFee, tTransferAmount, tFee, tTeam) */\n      swap13\n      pop\n      swap13\n      pop\n      swap13\n      pop\n      swap13\n      pop\n      swap13\n      pop\n      swap13\n      pop\n      pop\n      pop\n      pop\n      pop\n      pop\n      pop\n      pop\n        /* \"contracts/Pool/Pool.sol\":12809:13273  function _getValues(uint256 tAmount) private view returns (uint256, uint256, uint256, uint256, uint256, uint256) {... */\n      swap2\n      swap4\n      swap6\n      pop\n      swap2\n      swap4\n      swap6\n      jump\t// out\n        /* \"contracts/Pool/Pool.sol\":2259:2393  function sub(uint256 a, uint256 b) internal pure returns (uint256) {... */\n    tag_378:\n        /* \"contracts/Pool/Pool.sol\":2317:2324  uint256 */\n      0x00\n        /* \"contracts/Pool/Pool.sol\":2343:2386  sub(a, b, \"SafeMath: subtraction overflow\") */\n      tag_401\n        /* \"contracts/Pool/Pool.sol\":2347:2348  a */\n      dup4\n        /* \"contracts/Pool/Pool.sol\":2350:2351  b */\n      dup4\n        /* \"contracts/Pool/Pool.sol\":2343:2386  sub(a, b, \"SafeMath: subtraction overflow\") */\n      mload(0x40)\n      dup1\n      0x40\n      add\n      0x40\n      mstore\n      dup1\n      0x1e\n      dup2\n      mstore\n      0x20\n      add\n      0x536166654d6174683a207375627472616374696f6e206f766572666c6f770000\n      dup2\n      mstore\n      pop\n        /* \"contracts/Pool/Pool.sol\":2343:2346  sub */\n      tag_164\n        /* \"contracts/Pool/Pool.sol\":2343:2386  sub(a, b, \"SafeMath: subtraction overflow\") */\n      jump\t// in\n    tag_401:\n        /* \"contracts/Pool/Pool.sol\":2336:2386  return sub(a, b, \"SafeMath: subtraction overflow\") */\n      swap1\n      pop\n        /* \"contracts/Pool/Pool.sol\":2259:2393  function sub(uint256 a, uint256 b) internal pure returns (uint256) {... */\n      swap3\n      swap2\n      pop\n      pop\n      jump\t// out\n        /* \"contracts/Pool/Pool.sol\":2078:2253  function add(uint256 a, uint256 b) internal pure returns (uint256) {... */\n    tag_380:\n        /* \"contracts/Pool/Pool.sol\":2136:2143  uint256 */\n      0x00\n        /* \"contracts/Pool/Pool.sol\":2155:2164  uint256 c */\n      dup1\n        /* \"contracts/Pool/Pool.sol\":2171:2172  b */\n      dup3\n        /* \"contracts/Pool/Pool.sol\":2167:2168  a */\n      dup5\n        /* \"contracts/Pool/Pool.sol\":2167:2172  a + b */\n      tag_403\n      swap2\n      swap1\n      tag_404\n      jump\t// in\n    tag_403:\n        /* \"contracts/Pool/Pool.sol\":2155:2172  uint256 c = a + b */\n      swap1\n      pop\n        /* \"contracts/Pool/Pool.sol\":2195:2196  a */\n      dup4\n        /* \"contracts/Pool/Pool.sol\":2190:2191  c */\n      dup2\n        /* \"contracts/Pool/Pool.sol\":2190:2196  c >= a */\n      lt\n      iszero\n        /* \"contracts/Pool/Pool.sol\":2182:2228  require(c >= a, \"SafeMath: addition overflow\") */\n      tag_405\n      jumpi\n      mload(0x40)\n      0x08c379a000000000000000000000000000000000000000000000000000000000\n      dup2\n      mstore\n      0x04\n      add\n      tag_406\n      swap1\n      tag_407\n      jump\t// in\n    tag_406:\n      mload(0x40)\n      dup1\n      swap2\n      sub\n      swap1\n      revert\n    tag_405:\n        /* \"contracts/Pool/Pool.sol\":2245:2246  c */\n      dup1\n        /* \"contracts/Pool/Pool.sol\":2238:2246  return c */\n      swap2\n      pop\n      pop\n        /* \"contracts/Pool/Pool.sol\":2078:2253  function add(uint256 a, uint256 b) internal pure returns (uint256) {... */\n      swap3\n      swap2\n      pop\n      pop\n      jump\t// out\n        /* \"contracts/Pool/Pool.sol\":12406:12614  function _takeTeam(uint256 tTeam) private {... */\n    tag_382:\n        /* \"contracts/Pool/Pool.sol\":12458:12477  uint256 currentRate */\n      0x00\n        /* \"contracts/Pool/Pool.sol\":12481:12491  _getRate() */\n      tag_409\n        /* \"contracts/Pool/Pool.sol\":12481:12489  _getRate */\n      tag_342\n        /* \"contracts/Pool/Pool.sol\":12481:12491  _getRate() */\n      jump\t// in\n    tag_409:\n        /* \"contracts/Pool/Pool.sol\":12458:12491  uint256 currentRate =  _getRate() */\n      swap1\n      pop\n        /* \"contracts/Pool/Pool.sol\":12501:12514  uint256 rTeam */\n      0x00\n        /* \"contracts/Pool/Pool.sol\":12517:12539  tTeam.mul(currentRate) */\n      tag_410\n        /* \"contracts/Pool/Pool.sol\":12527:12538  currentRate */\n      dup3\n        /* \"contracts/Pool/Pool.sol\":12517:12522  tTeam */\n      dup5\n        /* \"contracts/Pool/Pool.sol\":12517:12526  tTeam.mul */\n      tag_411\n      swap1\n        /* \"contracts/Pool/Pool.sol\":12517:12539  tTeam.mul(currentRate) */\n      swap2\n      swap1\n      0xffffffff\n      and\n      jump\t// in\n    tag_410:\n        /* \"contracts/Pool/Pool.sol\":12501:12539  uint256 rTeam = tTeam.mul(currentRate) */\n      swap1\n      pop\n        /* \"contracts/Pool/Pool.sol\":12574:12607  _rOwned[address(this)].add(rTeam) */\n      tag_412\n        /* \"contracts/Pool/Pool.sol\":12601:12606  rTeam */\n      dup2\n        /* \"contracts/Pool/Pool.sol\":12574:12581  _rOwned */\n      0x02\n        /* \"contracts/Pool/Pool.sol\":12574:12596  _rOwned[address(this)] */\n      0x00\n        /* \"contracts/Pool/Pool.sol\":12590:12594  this */\n      address\n        /* \"contracts/Pool/Pool.sol\":12574:12596  _rOwned[address(this)] */\n      0xffffffffffffffffffffffffffffffffffffffff\n      and\n      0xffffffffffffffffffffffffffffffffffffffff\n      and\n      dup2\n      mstore\n      0x20\n      add\n      swap1\n      dup2\n      mstore\n      0x20\n      add\n      0x00\n      keccak256\n      sload\n        /* \"contracts/Pool/Pool.sol\":12574:12600  _rOwned[address(this)].add */\n      tag_380\n      swap1\n        /* \"contracts/Pool/Pool.sol\":12574:12607  _rOwned[address(this)].add(rTeam) */\n      swap2\n      swap1\n      0xffffffff\n      and\n      jump\t// in\n    tag_412:\n        /* \"contracts/Pool/Pool.sol\":12549:12556  _rOwned */\n      0x02\n        /* \"contracts/Pool/Pool.sol\":12549:12571  _rOwned[address(this)] */\n      0x00\n        /* \"contracts/Pool/Pool.sol\":12565:12569  this */\n      address\n        /* \"contracts/Pool/Pool.sol\":12549:12571  _rOwned[address(this)] */\n      0xffffffffffffffffffffffffffffffffffffffff\n      and\n      0xffffffffffffffffffffffffffffffffffffffff\n      and\n      dup2\n      mstore\n      0x20\n      add\n      swap1\n      dup2\n      mstore\n      0x20\n      add\n      0x00\n      keccak256\n        /* \"contracts/Pool/Pool.sol\":12549:12607  _rOwned[address(this)] = _rOwned[address(this)].add(rTeam) */\n      dup2\n      swap1\n      sstore\n      pop\n        /* \"contracts/Pool/Pool.sol\":12448:12614  {... */\n      pop\n      pop\n        /* \"contracts/Pool/Pool.sol\":12406:12614  function _takeTeam(uint256 tTeam) private {... */\n      pop\n      jump\t// out\n        /* \"contracts/Pool/Pool.sol\":12620:12764  function _reflectFee(uint256 rFee, uint256 tFee) private {... */\n    tag_384:\n        /* \"contracts/Pool/Pool.sol\":12697:12714  _rTotal.sub(rFee) */\n      tag_414\n        /* \"contracts/Pool/Pool.sol\":12709:12713  rFee */\n      dup3\n        /* \"contracts/Pool/Pool.sol\":12697:12704  _rTotal */\n      sload(0x06)\n        /* \"contracts/Pool/Pool.sol\":12697:12708  _rTotal.sub */\n      tag_378\n      swap1\n        /* \"contracts/Pool/Pool.sol\":12697:12714  _rTotal.sub(rFee) */\n      swap2\n      swap1\n      0xffffffff\n      and\n      jump\t// in\n    tag_414:\n        /* \"contracts/Pool/Pool.sol\":12687:12694  _rTotal */\n      0x06\n        /* \"contracts/Pool/Pool.sol\":12687:12714  _rTotal = _rTotal.sub(rFee) */\n      dup2\n      swap1\n      sstore\n      pop\n        /* \"contracts/Pool/Pool.sol\":12737:12757  _tFeeTotal.add(tFee) */\n      tag_415\n        /* \"contracts/Pool/Pool.sol\":12752:12756  tFee */\n      dup2\n        /* \"contracts/Pool/Pool.sol\":12737:12747  _tFeeTotal */\n      sload(0x07)\n        /* \"contracts/Pool/Pool.sol\":12737:12751  _tFeeTotal.add */\n      tag_380\n      swap1\n        /* \"contracts/Pool/Pool.sol\":12737:12757  _tFeeTotal.add(tFee) */\n      swap2\n      swap1\n      0xffffffff\n      and\n      jump\t// in\n    tag_415:\n        /* \"contracts/Pool/Pool.sol\":12724:12734  _tFeeTotal */\n      0x07\n        /* \"contracts/Pool/Pool.sol\":12724:12757  _tFeeTotal = _tFeeTotal.add(tFee) */\n      dup2\n      swap1\n      sstore\n      pop\n        /* \"contracts/Pool/Pool.sol\":12620:12764  function _reflectFee(uint256 rFee, uint256 tFee) private {... */\n      pop\n      pop\n      jump\t// out\n        /* \"contracts/Pool/Pool.sol\":13279:13625  function _getTValues(uint256 tAmount, uint256 taxFee, uint256 TeamFee) private pure returns (uint256, uint256, uint256) {... */\n    tag_396:\n        /* \"contracts/Pool/Pool.sol\":13372:13379  uint256 */\n      0x00\n        /* \"contracts/Pool/Pool.sol\":13381:13388  uint256 */\n      dup1\n        /* \"contracts/Pool/Pool.sol\":13390:13397  uint256 */\n      0x00\n        /* \"contracts/Pool/Pool.sol\":13409:13421  uint256 tFee */\n      dup1\n        /* \"contracts/Pool/Pool.sol\":13424:13452  tAmount.mul(taxFee).div(100) */\n      tag_417\n        /* \"contracts/Pool/Pool.sol\":13448:13451  100 */\n      0x64\n        /* \"contracts/Pool/Pool.sol\":13424:13443  tAmount.mul(taxFee) */\n      tag_418\n        /* \"contracts/Pool/Pool.sol\":13436:13442  taxFee */\n      dup9\n        /* \"contracts/Pool/Pool.sol\":13424:13431  tAmount */\n      dup11\n        /* \"contracts/Pool/Pool.sol\":13424:13435  tAmount.mul */\n      tag_411\n      swap1\n        /* \"contracts/Pool/Pool.sol\":13424:13443  tAmount.mul(taxFee) */\n      swap2\n      swap1\n      0xffffffff\n      and\n      jump\t// in\n    tag_418:\n        /* \"contracts/Pool/Pool.sol\":13424:13447  tAmount.mul(taxFee).div */\n      tag_331\n      swap1\n        /* \"contracts/Pool/Pool.sol\":13424:13452  tAmount.mul(taxFee).div(100) */\n      swap2\n      swap1\n      0xffffffff\n      and\n      jump\t// in\n    tag_417:\n        /* \"contracts/Pool/Pool.sol\":13409:13452  uint256 tFee = tAmount.mul(taxFee).div(100) */\n      swap1\n      pop\n        /* \"contracts/Pool/Pool.sol\":13462:13475  uint256 tTeam */\n      0x00\n        /* \"contracts/Pool/Pool.sol\":13478:13507  tAmount.mul(TeamFee).div(100) */\n      tag_419\n        /* \"contracts/Pool/Pool.sol\":13503:13506  100 */\n      0x64\n        /* \"contracts/Pool/Pool.sol\":13478:13498  tAmount.mul(TeamFee) */\n      tag_420\n        /* \"contracts/Pool/Pool.sol\":13490:13497  TeamFee */\n      dup9\n        /* \"contracts/Pool/Pool.sol\":13478:13485  tAmount */\n      dup12\n        /* \"contracts/Pool/Pool.sol\":13478:13489  tAmount.mul */\n      tag_411\n      swap1\n        /* \"contracts/Pool/Pool.sol\":13478:13498  tAmount.mul(TeamFee) */\n      swap2\n      swap1\n      0xffffffff\n      and\n      jump\t// in\n    tag_420:\n        /* \"contracts/Pool/Pool.sol\":13478:13502  tAmount.mul(TeamFee).div */\n      tag_331\n      swap1\n        /* \"contracts/Pool/Pool.sol\":13478:13507  tAmount.mul(TeamFee).div(100) */\n      swap2\n      swap1\n      0xffffffff\n      and\n      jump\t// in\n    tag_419:\n        /* \"contracts/Pool/Pool.sol\":13462:13507  uint256 tTeam = tAmount.mul(TeamFee).div(100) */\n      swap1\n      pop\n        /* \"contracts/Pool/Pool.sol\":13517:13540  uint256 tTransferAmount */\n      0x00\n        /* \"contracts/Pool/Pool.sol\":13543:13571  tAmount.sub(tFee).sub(tTeam) */\n      tag_421\n        /* \"contracts/Pool/Pool.sol\":13565:13570  tTeam */\n      dup3\n        /* \"contracts/Pool/Pool.sol\":13543:13560  tAmount.sub(tFee) */\n      tag_422\n        /* \"contracts/Pool/Pool.sol\":13555:13559  tFee */\n      dup6\n        /* \"contracts/Pool/Pool.sol\":13543:13550  tAmount */\n      dup13\n        /* \"contracts/Pool/Pool.sol\":13543:13554  tAmount.sub */\n      tag_378\n      swap1\n        /* \"contracts/Pool/Pool.sol\":13543:13560  tAmount.sub(tFee) */\n      swap2\n      swap1\n      0xffffffff\n      and\n      jump\t// in\n    tag_422:\n        /* \"contracts/Pool/Pool.sol\":13543:13564  tAmount.sub(tFee).sub */\n      tag_378\n      swap1\n        /* \"contracts/Pool/Pool.sol\":13543:13571  tAmount.sub(tFee).sub(tTeam) */\n      swap2\n      swap1\n      0xffffffff\n      and\n      jump\t// in\n    tag_421:\n        /* \"contracts/Pool/Pool.sol\":13517:13571  uint256 tTransferAmount = tAmount.sub(tFee).sub(tTeam) */\n      swap1\n      pop\n        /* \"contracts/Pool/Pool.sol\":13589:13604  tTransferAmount */\n      dup1\n        /* \"contracts/Pool/Pool.sol\":13606:13610  tFee */\n      dup4\n        /* \"contracts/Pool/Pool.sol\":13612:13617  tTeam */\n      dup4\n        /* \"contracts/Pool/Pool.sol\":13581:13618  return (tTransferAmount, tFee, tTeam) */\n      swap6\n      pop\n      swap6\n      pop\n      swap6\n      pop\n      pop\n      pop\n      pop\n        /* \"contracts/Pool/Pool.sol\":13279:13625  function _getTValues(uint256 tAmount, uint256 taxFee, uint256 TeamFee) private pure returns (uint256, uint256, uint256) {... */\n      swap4\n      pop\n      swap4\n      pop\n      swap4\n      swap1\n      pop\n      jump\t// out\n        /* \"contracts/Pool/Pool.sol\":13631:14034  function _getRValues(uint256 tAmount, uint256 tFee, uint256 tTeam, uint256 currentRate) private pure returns (uint256, uint256, uint256) {... */\n    tag_399:\n        /* \"contracts/Pool/Pool.sol\":13741:13748  uint256 */\n      0x00\n        /* \"contracts/Pool/Pool.sol\":13750:13757  uint256 */\n      dup1\n        /* \"contracts/Pool/Pool.sol\":13759:13766  uint256 */\n      0x00\n        /* \"contracts/Pool/Pool.sol\":13778:13793  uint256 rAmount */\n      dup1\n        /* \"contracts/Pool/Pool.sol\":13796:13820  tAmount.mul(currentRate) */\n      tag_424\n        /* \"contracts/Pool/Pool.sol\":13808:13819  currentRate */\n      dup6\n        /* \"contracts/Pool/Pool.sol\":13796:13803  tAmount */\n      dup10\n        /* \"contracts/Pool/Pool.sol\":13796:13807  tAmount.mul */\n      tag_411\n      swap1\n        /* \"contracts/Pool/Pool.sol\":13796:13820  tAmount.mul(currentRate) */\n      swap2\n      swap1\n      0xffffffff\n      and\n      jump\t// in\n    tag_424:\n        /* \"contracts/Pool/Pool.sol\":13778:13820  uint256 rAmount = tAmount.mul(currentRate) */\n      swap1\n      pop\n        /* \"contracts/Pool/Pool.sol\":13830:13842  uint256 rFee */\n      0x00\n        /* \"contracts/Pool/Pool.sol\":13845:13866  tFee.mul(currentRate) */\n      tag_425\n        /* \"contracts/Pool/Pool.sol\":13854:13865  currentRate */\n      dup7\n        /* \"contracts/Pool/Pool.sol\":13845:13849  tFee */\n      dup10\n        /* \"contracts/Pool/Pool.sol\":13845:13853  tFee.mul */\n      tag_411\n      swap1\n        /* \"contracts/Pool/Pool.sol\":13845:13866  tFee.mul(currentRate) */\n      swap2\n      swap1\n      0xffffffff\n      and\n      jump\t// in\n    tag_425:\n        /* \"contracts/Pool/Pool.sol\":13830:13866  uint256 rFee = tFee.mul(currentRate) */\n      swap1\n      pop\n        /* \"contracts/Pool/Pool.sol\":13876:13889  uint256 rTeam */\n      0x00\n        /* \"contracts/Pool/Pool.sol\":13892:13914  tTeam.mul(currentRate) */\n      tag_426\n        /* \"contracts/Pool/Pool.sol\":13902:13913  currentRate */\n      dup8\n        /* \"contracts/Pool/Pool.sol\":13892:13897  tTeam */\n      dup10\n        /* \"contracts/Pool/Pool.sol\":13892:13901  tTeam.mul */\n      tag_411\n      swap1\n        /* \"contracts/Pool/Pool.sol\":13892:13914  tTeam.mul(currentRate) */\n      swap2\n      swap1\n      0xffffffff\n      and\n      jump\t// in\n    tag_426:\n        /* \"contracts/Pool/Pool.sol\":13876:13914  uint256 rTeam = tTeam.mul(currentRate) */\n      swap1\n      pop\n        /* \"contracts/Pool/Pool.sol\":13924:13947  uint256 rTransferAmount */\n      0x00\n        /* \"contracts/Pool/Pool.sol\":13950:13978  rAmount.sub(rFee).sub(rTeam) */\n      tag_427\n        /* \"contracts/Pool/Pool.sol\":13972:13977  rTeam */\n      dup3\n        /* \"contracts/Pool/Pool.sol\":13950:13967  rAmount.sub(rFee) */\n      tag_428\n        /* \"contracts/Pool/Pool.sol\":13962:13966  rFee */\n      dup6\n        /* \"contracts/Pool/Pool.sol\":13950:13957  rAmount */\n      dup8\n        /* \"contracts/Pool/Pool.sol\":13950:13961  rAmount.sub */\n      tag_378\n      swap1\n        /* \"contracts/Pool/Pool.sol\":13950:13967  rAmount.sub(rFee) */\n      swap2\n      swap1\n      0xffffffff\n      and\n      jump\t// in\n    tag_428:\n        /* \"contracts/Pool/Pool.sol\":13950:13971  rAmount.sub(rFee).sub */\n      tag_378\n      swap1\n        /* \"contracts/Pool/Pool.sol\":13950:13978  rAmount.sub(rFee).sub(rTeam) */\n      swap2\n      swap1\n      0xffffffff\n      and\n      jump\t// in\n    tag_427:\n        /* \"contracts/Pool/Pool.sol\":13924:13978  uint256 rTransferAmount = rAmount.sub(rFee).sub(rTeam) */\n      swap1\n      pop\n        /* \"contracts/Pool/Pool.sol\":13996:14003  rAmount */\n      dup4\n        /* \"contracts/Pool/Pool.sol\":14005:14020  rTransferAmount */\n      dup2\n        /* \"contracts/Pool/Pool.sol\":14022:14026  rFee */\n      dup5\n        /* \"contracts/Pool/Pool.sol\":13988:14027  return (rAmount, rTransferAmount, rFee) */\n      swap7\n      pop\n      swap7\n      pop\n      swap7\n      pop\n      pop\n      pop\n      pop\n      pop\n        /* \"contracts/Pool/Pool.sol\":13631:14034  function _getRValues(uint256 tAmount, uint256 tFee, uint256 tTeam, uint256 currentRate) private pure returns (uint256, uint256, uint256) {... */\n      swap5\n      pop\n      swap5\n      pop\n      swap5\n      swap2\n      pop\n      pop\n      jump\t// out\n        /* \"contracts/Pool/Pool.sol\":2591:2830  function mul(uint256 a, uint256 b) internal pure returns (uint256) {... */\n    tag_411:\n        /* \"contracts/Pool/Pool.sol\":2649:2656  uint256 */\n      0x00\n        /* \"contracts/Pool/Pool.sol\":2677:2678  0 */\n      dup1\n        /* \"contracts/Pool/Pool.sol\":2672:2673  a */\n      dup4\n        /* \"contracts/Pool/Pool.sol\":2672:2678  a == 0 */\n      sub\n        /* \"contracts/Pool/Pool.sol\":2668:2713  if (a == 0) {... */\n      tag_430\n      jumpi\n        /* \"contracts/Pool/Pool.sol\":2701:2702  0 */\n      0x00\n        /* \"contracts/Pool/Pool.sol\":2694:2702  return 0 */\n      swap1\n      pop\n      jump(tag_429)\n        /* \"contracts/Pool/Pool.sol\":2668:2713  if (a == 0) {... */\n    tag_430:\n        /* \"contracts/Pool/Pool.sol\":2722:2731  uint256 c */\n      0x00\n        /* \"contracts/Pool/Pool.sol\":2738:2739  b */\n      dup3\n        /* \"contracts/Pool/Pool.sol\":2734:2735  a */\n      dup5\n        /* \"contracts/Pool/Pool.sol\":2734:2739  a * b */\n      tag_431\n      swap2\n      swap1\n      tag_432\n      jump\t// in\n    tag_431:\n        /* \"contracts/Pool/Pool.sol\":2722:2739  uint256 c = a * b */\n      swap1\n      pop\n        /* \"contracts/Pool/Pool.sol\":2766:2767  b */\n      dup3\n        /* \"contracts/Pool/Pool.sol\":2761:2762  a */\n      dup5\n        /* \"contracts/Pool/Pool.sol\":2757:2758  c */\n      dup3\n        /* \"contracts/Pool/Pool.sol\":2757:2762  c / a */\n      tag_433\n      swap2\n      swap1\n      tag_390\n      jump\t// in\n    tag_433:\n        /* \"contracts/Pool/Pool.sol\":2757:2767  c / a == b */\n      eq\n        /* \"contracts/Pool/Pool.sol\":2749:2805  require(c / a == b, \"SafeMath: multiplication overflow\") */\n      tag_434\n      jumpi\n      mload(0x40)\n      0x08c379a000000000000000000000000000000000000000000000000000000000\n      dup2\n      mstore\n      0x04\n      add\n      tag_435\n      swap1\n      tag_436\n      jump\t// in\n    tag_435:\n      mload(0x40)\n      dup1\n      swap2\n      sub\n      swap1\n      revert\n    tag_434:\n        /* \"contracts/Pool/Pool.sol\":2822:2823  c */\n      dup1\n        /* \"contracts/Pool/Pool.sol\":2815:2823  return c */\n      swap2\n      pop\n      pop\n        /* \"contracts/Pool/Pool.sol\":2591:2830  function mul(uint256 a, uint256 b) internal pure returns (uint256) {... */\n    tag_429:\n      swap3\n      swap2\n      pop\n      pop\n      jump\t// out\n        /* \"#utility.yul\":7:106   */\n    tag_437:\n        /* \"#utility.yul\":59:65   */\n      0x00\n        /* \"#utility.yul\":93:98   */\n      dup2\n        /* \"#utility.yul\":87:99   */\n      mload\n        /* \"#utility.yul\":77:99   */\n      swap1\n      pop\n        /* \"#utility.yul\":7:106   */\n      swap2\n      swap1\n      pop\n      jump\t// out\n        /* \"#utility.yul\":112:281   */\n    tag_438:\n        /* \"#utility.yul\":196:207   */\n      0x00\n        /* \"#utility.yul\":230:236   */\n      dup3\n        /* \"#utility.yul\":225:228   */\n      dup3\n        /* \"#utility.yul\":218:237   */\n      mstore\n        /* \"#utility.yul\":270:274   */\n      0x20\n        /* \"#utility.yul\":265:268   */\n      dup3\n        /* \"#utility.yul\":261:275   */\n      add\n        /* \"#utility.yul\":246:275   */\n      swap1\n      pop\n        /* \"#utility.yul\":112:281   */\n      swap3\n      swap2\n      pop\n      pop\n      jump\t// out\n        /* \"#utility.yul\":287:594   */\n    tag_439:\n        /* \"#utility.yul\":355:356   */\n      0x00\n        /* \"#utility.yul\":365:478   */\n    tag_516:\n        /* \"#utility.yul\":379:385   */\n      dup4\n        /* \"#utility.yul\":376:377   */\n      dup2\n        /* \"#utility.yul\":373:386   */\n      lt\n        /* \"#utility.yul\":365:478   */\n      iszero\n      tag_518\n      jumpi\n        /* \"#utility.yul\":464:465   */\n      dup1\n        /* \"#utility.yul\":459:462   */\n      dup3\n        /* \"#utility.yul\":455:466   */\n      add\n        /* \"#utility.yul\":449:467   */\n      mload\n        /* \"#utility.yul\":445:446   */\n      dup2\n        /* \"#utility.yul\":440:443   */\n      dup5\n        /* \"#utility.yul\":436:447   */\n      add\n        /* \"#utility.yul\":429:468   */\n      mstore\n        /* \"#utility.yul\":401:403   */\n      0x20\n        /* \"#utility.yul\":398:399   */\n      dup2\n        /* \"#utility.yul\":394:404   */\n      add\n        /* \"#utility.yul\":389:404   */\n      swap1\n      pop\n        /* \"#utility.yul\":365:478   */\n      jump(tag_516)\n    tag_518:\n        /* \"#utility.yul\":496:502   */\n      dup4\n        /* \"#utility.yul\":493:494   */\n      dup2\n        /* \"#utility.yul\":490:503   */\n      gt\n        /* \"#utility.yul\":487:588   */\n      iszero\n      tag_519\n      jumpi\n        /* \"#utility.yul\":576:577   */\n      0x00\n        /* \"#utility.yul\":567:573   */\n      dup5\n        /* \"#utility.yul\":562:565   */\n      dup5\n        /* \"#utility.yul\":558:574   */\n      add\n        /* \"#utility.yul\":551:578   */\n      mstore\n        /* \"#utility.yul\":487:588   */\n    tag_519:\n        /* \"#utility.yul\":336:594   */\n      pop\n        /* \"#utility.yul\":287:594   */\n      pop\n      pop\n      pop\n      jump\t// out\n        /* \"#utility.yul\":600:702   */\n    tag_440:\n        /* \"#utility.yul\":641:647   */\n      0x00\n        /* \"#utility.yul\":692:694   */\n      0x1f\n        /* \"#utility.yul\":688:695   */\n      not\n        /* \"#utility.yul\":683:685   */\n      0x1f\n        /* \"#utility.yul\":676:681   */\n      dup4\n        /* \"#utility.yul\":672:686   */\n      add\n        /* \"#utility.yul\":668:696   */\n      and\n        /* \"#utility.yul\":658:696   */\n      swap1\n      pop\n        /* \"#utility.yul\":600:702   */\n      swap2\n      swap1\n      pop\n      jump\t// out\n        /* \"#utility.yul\":708:1072   */\n    tag_441:\n        /* \"#utility.yul\":796:799   */\n      0x00\n        /* \"#utility.yul\":824:863   */\n      tag_522\n        /* \"#utility.yul\":857:862   */\n      dup3\n        /* \"#utility.yul\":824:863   */\n      tag_437\n      jump\t// in\n    tag_522:\n        /* \"#utility.yul\":879:950   */\n      tag_523\n        /* \"#utility.yul\":943:949   */\n      dup2\n        /* \"#utility.yul\":938:941   */\n      dup6\n        /* \"#utility.yul\":879:950   */\n      tag_438\n      jump\t// in\n    tag_523:\n        /* \"#utility.yul\":872:950   */\n      swap4\n      pop\n        /* \"#utility.yul\":959:1011   */\n      tag_524\n        /* \"#utility.yul\":1004:1010   */\n      dup2\n        /* \"#utility.yul\":999:1002   */\n      dup6\n        /* \"#utility.yul\":992:996   */\n      0x20\n        /* \"#utility.yul\":985:990   */\n      dup7\n        /* \"#utility.yul\":981:997   */\n      add\n        /* \"#utility.yul\":959:1011   */\n      tag_439\n      jump\t// in\n    tag_524:\n        /* \"#utility.yul\":1036:1065   */\n      tag_525\n        /* \"#utility.yul\":1058:1064   */\n      dup2\n        /* \"#utility.yul\":1036:1065   */\n      tag_440\n      jump\t// in\n    tag_525:\n        /* \"#utility.yul\":1031:1034   */\n      dup5\n        /* \"#utility.yul\":1027:1066   */\n      add\n        /* \"#utility.yul\":1020:1066   */\n      swap2\n      pop\n        /* \"#utility.yul\":800:1072   */\n      pop\n        /* \"#utility.yul\":708:1072   */\n      swap3\n      swap2\n      pop\n      pop\n      jump\t// out\n        /* \"#utility.yul\":1078:1391   */\n    tag_38:\n        /* \"#utility.yul\":1191:1195   */\n      0x00\n        /* \"#utility.yul\":1229:1231   */\n      0x20\n        /* \"#utility.yul\":1218:1227   */\n      dup3\n        /* \"#utility.yul\":1214:1232   */\n      add\n        /* \"#utility.yul\":1206:1232   */\n      swap1\n      pop\n        /* \"#utility.yul\":1278:1287   */\n      dup2\n        /* \"#utility.yul\":1272:1276   */\n      dup2\n        /* \"#utility.yul\":1268:1288   */\n      sub\n        /* \"#utility.yul\":1264:1265   */\n      0x00\n        /* \"#utility.yul\":1253:1262   */\n      dup4\n        /* \"#utility.yul\":1249:1266   */\n      add\n        /* \"#utility.yul\":1242:1289   */\n      mstore\n        /* \"#utility.yul\":1306:1384   */\n      tag_527\n        /* \"#utility.yul\":1379:1383   */\n      dup2\n        /* \"#utility.yul\":1370:1376   */\n      dup5\n        /* \"#utility.yul\":1306:1384   */\n      tag_441\n      jump\t// in\n    tag_527:\n        /* \"#utility.yul\":1298:1384   */\n      swap1\n      pop\n        /* \"#utility.yul\":1078:1391   */\n      swap3\n      swap2\n      pop\n      pop\n      jump\t// out\n        /* \"#utility.yul\":1478:1595   */\n    tag_443:\n        /* \"#utility.yul\":1587:1588   */\n      0x00\n        /* \"#utility.yul\":1584:1585   */\n      dup1\n        /* \"#utility.yul\":1577:1589   */\n      revert\n        /* \"#utility.yul\":1601:1718   */\n    tag_444:\n        /* \"#utility.yul\":1710:1711   */\n      0x00\n        /* \"#utility.yul\":1707:1708   */\n      dup1\n        /* \"#utility.yul\":1700:1712   */\n      revert\n        /* \"#utility.yul\":1724:1850   */\n    tag_445:\n        /* \"#utility.yul\":1761:1768   */\n      0x00\n        /* \"#utility.yul\":1801:1843   */\n      0xffffffffffffffffffffffffffffffffffffffff\n        /* \"#utility.yul\":1794:1799   */\n      dup3\n        /* \"#utility.yul\":1790:1844   */\n      and\n        /* \"#utility.yul\":1779:1844   */\n      swap1\n      pop\n        /* \"#utility.yul\":1724:1850   */\n      swap2\n      swap1\n      pop\n      jump\t// out\n        /* \"#utility.yul\":1856:1952   */\n    tag_446:\n        /* \"#utility.yul\":1893:1900   */\n      0x00\n        /* \"#utility.yul\":1922:1946   */\n      tag_533\n        /* \"#utility.yul\":1940:1945   */\n      dup3\n        /* \"#utility.yul\":1922:1946   */\n      tag_445\n      jump\t// in\n    tag_533:\n        /* \"#utility.yul\":1911:1946   */\n      swap1\n      pop\n        /* \"#utility.yul\":1856:1952   */\n      swap2\n      swap1\n      pop\n      jump\t// out\n        /* \"#utility.yul\":1958:2080   */\n    tag_447:\n        /* \"#utility.yul\":2031:2055   */\n      tag_535\n        /* \"#utility.yul\":2049:2054   */\n      dup2\n        /* \"#utility.yul\":2031:2055   */\n      tag_446\n      jump\t// in\n    tag_535:\n        /* \"#utility.yul\":2024:2029   */\n      dup2\n        /* \"#utility.yul\":2021:2056   */\n      eq\n        /* \"#utility.yul\":2011:2074   */\n      tag_536\n      jumpi\n        /* \"#utility.yul\":2070:2071   */\n      0x00\n        /* \"#utility.yul\":2067:2068   */\n      dup1\n        /* \"#utility.yul\":2060:2072   */\n      revert\n        /* \"#utility.yul\":2011:2074   */\n    tag_536:\n        /* \"#utility.yul\":1958:2080   */\n      pop\n      jump\t// out\n        /* \"#utility.yul\":2086:2225   */\n    tag_448:\n        /* \"#utility.yul\":2132:2137   */\n      0x00\n        /* \"#utility.yul\":2170:2176   */\n      dup2\n        /* \"#utility.yul\":2157:2177   */\n      calldataload\n        /* \"#utility.yul\":2148:2177   */\n      swap1\n      pop\n        /* \"#utility.yul\":2186:2219   */\n      tag_538\n        /* \"#utility.yul\":2213:2218   */\n      dup2\n        /* \"#utility.yul\":2186:2219   */\n      tag_447\n      jump\t// in\n    tag_538:\n        /* \"#utility.yul\":2086:2225   */\n      swap3\n      swap2\n      pop\n      pop\n      jump\t// out\n        /* \"#utility.yul\":2231:2308   */\n    tag_449:\n        /* \"#utility.yul\":2268:2275   */\n      0x00\n        /* \"#utility.yul\":2297:2302   */\n      dup2\n        /* \"#utility.yul\":2286:2302   */\n      swap1\n      pop\n        /* \"#utility.yul\":2231:2308   */\n      swap2\n      swap1\n      pop\n      jump\t// out\n        /* \"#utility.yul\":2314:2436   */\n    tag_450:\n        /* \"#utility.yul\":2387:2411   */\n      tag_541\n        /* \"#utility.yul\":2405:2410   */\n      dup2\n        /* \"#utility.yul\":2387:2411   */\n      tag_449\n      jump\t// in\n    tag_541:\n        /* \"#utility.yul\":2380:2385   */\n      dup2\n        /* \"#utility.yul\":2377:2412   */\n      eq\n        /* \"#utility.yul\":2367:2430   */\n      tag_542\n      jumpi\n        /* \"#utility.yul\":2426:2427   */\n      0x00\n        /* \"#utility.yul\":2423:2424   */\n      dup1\n        /* \"#utility.yul\":2416:2428   */\n      revert\n        /* \"#utility.yul\":2367:2430   */\n    tag_542:\n        /* \"#utility.yul\":2314:2436   */\n      pop\n      jump\t// out\n        /* \"#utility.yul\":2442:2581   */\n    tag_451:\n        /* \"#utility.yul\":2488:2493   */\n      0x00\n        /* \"#utility.yul\":2526:2532   */\n      dup2\n        /* \"#utility.yul\":2513:2533   */\n      calldataload\n        /* \"#utility.yul\":2504:2533   */\n      swap1\n      pop\n        /* \"#utility.yul\":2542:2575   */\n      tag_544\n        /* \"#utility.yul\":2569:2574   */\n      dup2\n        /* \"#utility.yul\":2542:2575   */\n      tag_450\n      jump\t// in\n    tag_544:\n        /* \"#utility.yul\":2442:2581   */\n      swap3\n      swap2\n      pop\n      pop\n      jump\t// out\n        /* \"#utility.yul\":2587:3061   */\n    tag_42:\n        /* \"#utility.yul\":2655:2661   */\n      0x00\n        /* \"#utility.yul\":2663:2669   */\n      dup1\n        /* \"#utility.yul\":2712:2714   */\n      0x40\n        /* \"#utility.yul\":2700:2709   */\n      dup4\n        /* \"#utility.yul\":2691:2698   */\n      dup6\n        /* \"#utility.yul\":2687:2710   */\n      sub\n        /* \"#utility.yul\":2683:2715   */\n      slt\n        /* \"#utility.yul\":2680:2799   */\n      iszero\n      tag_546\n      jumpi\n        /* \"#utility.yul\":2718:2797   */\n      tag_547\n      tag_443\n      jump\t// in\n    tag_547:\n        /* \"#utility.yul\":2680:2799   */\n    tag_546:\n        /* \"#utility.yul\":2838:2839   */\n      0x00\n        /* \"#utility.yul\":2863:2916   */\n      tag_548\n        /* \"#utility.yul\":2908:2915   */\n      dup6\n        /* \"#utility.yul\":2899:2905   */\n      dup3\n        /* \"#utility.yul\":2888:2897   */\n      dup7\n        /* \"#utility.yul\":2884:2906   */\n      add\n        /* \"#utility.yul\":2863:2916   */\n      tag_448\n      jump\t// in\n    tag_548:\n        /* \"#utility.yul\":2853:2916   */\n      swap3\n      pop\n        /* \"#utility.yul\":2809:2926   */\n      pop\n        /* \"#utility.yul\":2965:2967   */\n      0x20\n        /* \"#utility.yul\":2991:3044   */\n      tag_549\n        /* \"#utility.yul\":3036:3043   */\n      dup6\n        /* \"#utility.yul\":3027:3033   */\n      dup3\n        /* \"#utility.yul\":3016:3025   */\n      dup7\n        /* \"#utility.yul\":3012:3034   */\n      add\n        /* \"#utility.yul\":2991:3044   */\n      tag_451\n      jump\t// in\n    tag_549:\n        /* \"#utility.yul\":2981:3044   */\n      swap2\n      pop\n        /* \"#utility.yul\":2936:3054   */\n      pop\n        /* \"#utility.yul\":2587:3061   */\n      swap3\n      pop\n      swap3\n      swap1\n      pop\n      jump\t// out\n        /* \"#utility.yul\":3067:3157   */\n    tag_452:\n        /* \"#utility.yul\":3101:3108   */\n      0x00\n        /* \"#utility.yul\":3144:3149   */\n      dup2\n        /* \"#utility.yul\":3137:3150   */\n      iszero\n        /* \"#utility.yul\":3130:3151   */\n      iszero\n        /* \"#utility.yul\":3119:3151   */\n      swap1\n      pop\n        /* \"#utility.yul\":3067:3157   */\n      swap2\n      swap1\n      pop\n      jump\t// out\n        /* \"#utility.yul\":3163:3272   */\n    tag_453:\n        /* \"#utility.yul\":3244:3265   */\n      tag_552\n        /* \"#utility.yul\":3259:3264   */\n      dup2\n        /* \"#utility.yul\":3244:3265   */\n      tag_452\n      jump\t// in\n    tag_552:\n        /* \"#utility.yul\":3239:3242   */\n      dup3\n        /* \"#utility.yul\":3232:3266   */\n      mstore\n        /* \"#utility.yul\":3163:3272   */\n      pop\n      pop\n      jump\t// out\n        /* \"#utility.yul\":3278:3488   */\n    tag_45:\n        /* \"#utility.yul\":3365:3369   */\n      0x00\n        /* \"#utility.yul\":3403:3405   */\n      0x20\n        /* \"#utility.yul\":3392:3401   */\n      dup3\n        /* \"#utility.yul\":3388:3406   */\n      add\n        /* \"#utility.yul\":3380:3406   */\n      swap1\n      pop\n        /* \"#utility.yul\":3416:3481   */\n      tag_554\n        /* \"#utility.yul\":3478:3479   */\n      0x00\n        /* \"#utility.yul\":3467:3476   */\n      dup4\n        /* \"#utility.yul\":3463:3480   */\n      add\n        /* \"#utility.yul\":3454:3460   */\n      dup5\n        /* \"#utility.yul\":3416:3481   */\n      tag_453\n      jump\t// in\n    tag_554:\n        /* \"#utility.yul\":3278:3488   */\n      swap3\n      swap2\n      pop\n      pop\n      jump\t// out\n        /* \"#utility.yul\":3494:3554   */\n    tag_454:\n        /* \"#utility.yul\":3522:3525   */\n      0x00\n        /* \"#utility.yul\":3543:3548   */\n      dup2\n        /* \"#utility.yul\":3536:3548   */\n      swap1\n      pop\n        /* \"#utility.yul\":3494:3554   */\n      swap2\n      swap1\n      pop\n      jump\t// out\n        /* \"#utility.yul\":3560:3702   */\n    tag_455:\n        /* \"#utility.yul\":3610:3619   */\n      0x00\n        /* \"#utility.yul\":3643:3696   */\n      tag_557\n        /* \"#utility.yul\":3661:3695   */\n      tag_558\n        /* \"#utility.yul\":3670:3694   */\n      tag_559\n        /* \"#utility.yul\":3688:3693   */\n      dup5\n        /* \"#utility.yul\":3670:3694   */\n      tag_445\n      jump\t// in\n    tag_559:\n        /* \"#utility.yul\":3661:3695   */\n      tag_454\n      jump\t// in\n    tag_558:\n        /* \"#utility.yul\":3643:3696   */\n      tag_445\n      jump\t// in\n    tag_557:\n        /* \"#utility.yul\":3630:3696   */\n      swap1\n      pop\n        /* \"#utility.yul\":3560:3702   */\n      swap2\n      swap1\n      pop\n      jump\t// out\n        /* \"#utility.yul\":3708:3834   */\n    tag_456:\n        /* \"#utility.yul\":3758:3767   */\n      0x00\n        /* \"#utility.yul\":3791:3828   */\n      tag_561\n        /* \"#utility.yul\":3822:3827   */\n      dup3\n        /* \"#utility.yul\":3791:3828   */\n      tag_455\n      jump\t// in\n    tag_561:\n        /* \"#utility.yul\":3778:3828   */\n      swap1\n      pop\n        /* \"#utility.yul\":3708:3834   */\n      swap2\n      swap1\n      pop\n      jump\t// out\n        /* \"#utility.yul\":3840:3992   */\n    tag_457:\n        /* \"#utility.yul\":3916:3925   */\n      0x00\n        /* \"#utility.yul\":3949:3986   */\n      tag_563\n        /* \"#utility.yul\":3980:3985   */\n      dup3\n        /* \"#utility.yul\":3949:3986   */\n      tag_456\n      jump\t// in\n    tag_563:\n        /* \"#utility.yul\":3936:3986   */\n      swap1\n      pop\n        /* \"#utility.yul\":3840:3992   */\n      swap2\n      swap1\n      pop\n      jump\t// out\n        /* \"#utility.yul\":3998:4181   */\n    tag_458:\n        /* \"#utility.yul\":4111:4174   */\n      tag_565\n        /* \"#utility.yul\":4168:4173   */\n      dup2\n        /* \"#utility.yul\":4111:4174   */\n      tag_457\n      jump\t// in\n    tag_565:\n        /* \"#utility.yul\":4106:4109   */\n      dup3\n        /* \"#utility.yul\":4099:4175   */\n      mstore\n        /* \"#utility.yul\":3998:4181   */\n      pop\n      pop\n      jump\t// out\n        /* \"#utility.yul\":4187:4461   */\n    tag_50:\n        /* \"#utility.yul\":4306:4310   */\n      0x00\n        /* \"#utility.yul\":4344:4346   */\n      0x20\n        /* \"#utility.yul\":4333:4342   */\n      dup3\n        /* \"#utility.yul\":4329:4347   */\n      add\n        /* \"#utility.yul\":4321:4347   */\n      swap1\n      pop\n        /* \"#utility.yul\":4357:4454   */\n      tag_567\n        /* \"#utility.yul\":4451:4452   */\n      0x00\n        /* \"#utility.yul\":4440:4449   */\n      dup4\n        /* \"#utility.yul\":4436:4453   */\n      add\n        /* \"#utility.yul\":4427:4433   */\n      dup5\n        /* \"#utility.yul\":4357:4454   */\n      tag_458\n      jump\t// in\n    tag_567:\n        /* \"#utility.yul\":4187:4461   */\n      swap3\n      swap2\n      pop\n      pop\n      jump\t// out\n        /* \"#utility.yul\":4467:4585   */\n    tag_459:\n        /* \"#utility.yul\":4554:4578   */\n      tag_569\n        /* \"#utility.yul\":4572:4577   */\n      dup2\n        /* \"#utility.yul\":4554:4578   */\n      tag_449\n      jump\t// in\n    tag_569:\n        /* \"#utility.yul\":4549:4552   */\n      dup3\n        /* \"#utility.yul\":4542:4579   */\n      mstore\n        /* \"#utility.yul\":4467:4585   */\n      pop\n      pop\n      jump\t// out\n        /* \"#utility.yul\":4591:4813   */\n    tag_55:\n        /* \"#utility.yul\":4684:4688   */\n      0x00\n        /* \"#utility.yul\":4722:4724   */\n      0x20\n        /* \"#utility.yul\":4711:4720   */\n      dup3\n        /* \"#utility.yul\":4707:4725   */\n      add\n        /* \"#utility.yul\":4699:4725   */\n      swap1\n      pop\n        /* \"#utility.yul\":4735:4806   */\n      tag_571\n        /* \"#utility.yul\":4803:4804   */\n      0x00\n        /* \"#utility.yul\":4792:4801   */\n      dup4\n        /* \"#utility.yul\":4788:4805   */\n      add\n        /* \"#utility.yul\":4779:4785   */\n      dup5\n        /* \"#utility.yul\":4735:4806   */\n      tag_459\n      jump\t// in\n    tag_571:\n        /* \"#utility.yul\":4591:4813   */\n      swap3\n      swap2\n      pop\n      pop\n      jump\t// out\n        /* \"#utility.yul\":4819:5438   */\n    tag_59:\n        /* \"#utility.yul\":4896:4902   */\n      0x00\n        /* \"#utility.yul\":4904:4910   */\n      dup1\n        /* \"#utility.yul\":4912:4918   */\n      0x00\n        /* \"#utility.yul\":4961:4963   */\n      0x60\n        /* \"#utility.yul\":4949:4958   */\n      dup5\n        /* \"#utility.yul\":4940:4947   */\n      dup7\n        /* \"#utility.yul\":4936:4959   */\n      sub\n        /* \"#utility.yul\":4932:4964   */\n      slt\n        /* \"#utility.yul\":4929:5048   */\n      iszero\n      tag_573\n      jumpi\n        /* \"#utility.yul\":4967:5046   */\n      tag_574\n      tag_443\n      jump\t// in\n    tag_574:\n        /* \"#utility.yul\":4929:5048   */\n    tag_573:\n        /* \"#utility.yul\":5087:5088   */\n      0x00\n        /* \"#utility.yul\":5112:5165   */\n      tag_575\n        /* \"#utility.yul\":5157:5164   */\n      dup7\n        /* \"#utility.yul\":5148:5154   */\n      dup3\n        /* \"#utility.yul\":5137:5146   */\n      dup8\n        /* \"#utility.yul\":5133:5155   */\n      add\n        /* \"#utility.yul\":5112:5165   */\n      tag_448\n      jump\t// in\n    tag_575:\n        /* \"#utility.yul\":5102:5165   */\n      swap4\n      pop\n        /* \"#utility.yul\":5058:5175   */\n      pop\n        /* \"#utility.yul\":5214:5216   */\n      0x20\n        /* \"#utility.yul\":5240:5293   */\n      tag_576\n        /* \"#utility.yul\":5285:5292   */\n      dup7\n        /* \"#utility.yul\":5276:5282   */\n      dup3\n        /* \"#utility.yul\":5265:5274   */\n      dup8\n        /* \"#utility.yul\":5261:5283   */\n      add\n        /* \"#utility.yul\":5240:5293   */\n      tag_448\n      jump\t// in\n    tag_576:\n        /* \"#utility.yul\":5230:5293   */\n      swap3\n      pop\n        /* \"#utility.yul\":5185:5303   */\n      pop\n        /* \"#utility.yul\":5342:5344   */\n      0x40\n        /* \"#utility.yul\":5368:5421   */\n      tag_577\n        /* \"#utility.yul\":5413:5420   */\n      dup7\n        /* \"#utility.yul\":5404:5410   */\n      dup3\n        /* \"#utility.yul\":5393:5402   */\n      dup8\n        /* \"#utility.yul\":5389:5411   */\n      add\n        /* \"#utility.yul\":5368:5421   */\n      tag_451\n      jump\t// in\n    tag_577:\n        /* \"#utility.yul\":5358:5421   */\n      swap2\n      pop\n        /* \"#utility.yul\":5313:5431   */\n      pop\n        /* \"#utility.yul\":4819:5438   */\n      swap3\n      pop\n      swap3\n      pop\n      swap3\n      jump\t// out\n        /* \"#utility.yul\":5444:5530   */\n    tag_460:\n        /* \"#utility.yul\":5479:5486   */\n      0x00\n        /* \"#utility.yul\":5519:5523   */\n      0xff\n        /* \"#utility.yul\":5512:5517   */\n      dup3\n        /* \"#utility.yul\":5508:5524   */\n      and\n        /* \"#utility.yul\":5497:5524   */\n      swap1\n      pop\n        /* \"#utility.yul\":5444:5530   */\n      swap2\n      swap1\n      pop\n      jump\t// out\n        /* \"#utility.yul\":5536:5648   */\n    tag_461:\n        /* \"#utility.yul\":5619:5641   */\n      tag_580\n        /* \"#utility.yul\":5635:5640   */\n      dup2\n        /* \"#utility.yul\":5619:5641   */\n      tag_460\n      jump\t// in\n    tag_580:\n        /* \"#utility.yul\":5614:5617   */\n      dup3\n        /* \"#utility.yul\":5607:5642   */\n      mstore\n        /* \"#utility.yul\":5536:5648   */\n      pop\n      pop\n      jump\t// out\n        /* \"#utility.yul\":5654:5868   */\n    tag_66:\n        /* \"#utility.yul\":5743:5747   */\n      0x00\n        /* \"#utility.yul\":5781:5783   */\n      0x20\n        /* \"#utility.yul\":5770:5779   */\n      dup3\n        /* \"#utility.yul\":5766:5784   */\n      add\n        /* \"#utility.yul\":5758:5784   */\n      swap1\n      pop\n        /* \"#utility.yul\":5794:5861   */\n      tag_582\n        /* \"#utility.yul\":5858:5859   */\n      0x00\n        /* \"#utility.yul\":5847:5856   */\n      dup4\n        /* \"#utility.yul\":5843:5860   */\n      add\n        /* \"#utility.yul\":5834:5840   */\n      dup5\n        /* \"#utility.yul\":5794:5861   */\n      tag_461\n      jump\t// in\n    tag_582:\n        /* \"#utility.yul\":5654:5868   */\n      swap3\n      swap2\n      pop\n      pop\n      jump\t// out\n        /* \"#utility.yul\":5874:5992   */\n    tag_462:\n        /* \"#utility.yul\":5961:5985   */\n      tag_584\n        /* \"#utility.yul\":5979:5984   */\n      dup2\n        /* \"#utility.yul\":5961:5985   */\n      tag_446\n      jump\t// in\n    tag_584:\n        /* \"#utility.yul\":5956:5959   */\n      dup3\n        /* \"#utility.yul\":5949:5986   */\n      mstore\n        /* \"#utility.yul\":5874:5992   */\n      pop\n      pop\n      jump\t// out\n        /* \"#utility.yul\":5998:6220   */\n    tag_71:\n        /* \"#utility.yul\":6091:6095   */\n      0x00\n        /* \"#utility.yul\":6129:6131   */\n      0x20\n        /* \"#utility.yul\":6118:6127   */\n      dup3\n        /* \"#utility.yul\":6114:6132   */\n      add\n        /* \"#utility.yul\":6106:6132   */\n      swap1\n      pop\n        /* \"#utility.yul\":6142:6213   */\n      tag_586\n        /* \"#utility.yul\":6210:6211   */\n      0x00\n        /* \"#utility.yul\":6199:6208   */\n      dup4\n        /* \"#utility.yul\":6195:6212   */\n      add\n        /* \"#utility.yul\":6186:6192   */\n      dup5\n        /* \"#utility.yul\":6142:6213   */\n      tag_462\n      jump\t// in\n    tag_586:\n        /* \"#utility.yul\":5998:6220   */\n      swap3\n      swap2\n      pop\n      pop\n      jump\t// out\n        /* \"#utility.yul\":6226:6376   */\n    tag_463:\n        /* \"#utility.yul\":6300:6309   */\n      0x00\n        /* \"#utility.yul\":6333:6370   */\n      tag_588\n        /* \"#utility.yul\":6364:6369   */\n      dup3\n        /* \"#utility.yul\":6333:6370   */\n      tag_456\n      jump\t// in\n    tag_588:\n        /* \"#utility.yul\":6320:6370   */\n      swap1\n      pop\n        /* \"#utility.yul\":6226:6376   */\n      swap2\n      swap1\n      pop\n      jump\t// out\n        /* \"#utility.yul\":6382:6561   */\n    tag_464:\n        /* \"#utility.yul\":6493:6554   */\n      tag_590\n        /* \"#utility.yul\":6548:6553   */\n      dup2\n        /* \"#utility.yul\":6493:6554   */\n      tag_463\n      jump\t// in\n    tag_590:\n        /* \"#utility.yul\":6488:6491   */\n      dup3\n        /* \"#utility.yul\":6481:6555   */\n      mstore\n        /* \"#utility.yul\":6382:6561   */\n      pop\n      pop\n      jump\t// out\n        /* \"#utility.yul\":6567:6837   */\n    tag_76:\n        /* \"#utility.yul\":6684:6688   */\n      0x00\n        /* \"#utility.yul\":6722:6724   */\n      0x20\n        /* \"#utility.yul\":6711:6720   */\n      dup3\n        /* \"#utility.yul\":6707:6725   */\n      add\n        /* \"#utility.yul\":6699:6725   */\n      swap1\n      pop\n        /* \"#utility.yul\":6735:6830   */\n      tag_592\n        /* \"#utility.yul\":6827:6828   */\n      0x00\n        /* \"#utility.yul\":6816:6825   */\n      dup4\n        /* \"#utility.yul\":6812:6829   */\n      add\n        /* \"#utility.yul\":6803:6809   */\n      dup5\n        /* \"#utility.yul\":6735:6830   */\n      tag_464\n      jump\t// in\n    tag_592:\n        /* \"#utility.yul\":6567:6837   */\n      swap3\n      swap2\n      pop\n      pop\n      jump\t// out\n        /* \"#utility.yul\":6843:6959   */\n    tag_465:\n        /* \"#utility.yul\":6913:6934   */\n      tag_594\n        /* \"#utility.yul\":6928:6933   */\n      dup2\n        /* \"#utility.yul\":6913:6934   */\n      tag_452\n      jump\t// in\n    tag_594:\n        /* \"#utility.yul\":6906:6911   */\n      dup2\n        /* \"#utility.yul\":6903:6935   */\n      eq\n        /* \"#utility.yul\":6893:6953   */\n      tag_595\n      jumpi\n        /* \"#utility.yul\":6949:6950   */\n      0x00\n        /* \"#utility.yul\":6946:6947   */\n      dup1\n        /* \"#utility.yul\":6939:6951   */\n      revert\n        /* \"#utility.yul\":6893:6953   */\n    tag_595:\n        /* \"#utility.yul\":6843:6959   */\n      pop\n      jump\t// out\n        /* \"#utility.yul\":6965:7098   */\n    tag_466:\n        /* \"#utility.yul\":7008:7013   */\n      0x00\n        /* \"#utility.yul\":7046:7052   */\n      dup2\n        /* \"#utility.yul\":7033:7053   */\n      calldataload\n        /* \"#utility.yul\":7024:7053   */\n      swap1\n      pop\n        /* \"#utility.yul\":7062:7092   */\n      tag_597\n        /* \"#utility.yul\":7086:7091   */\n      dup2\n        /* \"#utility.yul\":7062:7092   */\n      tag_465\n      jump\t// in\n    tag_597:\n        /* \"#utility.yul\":6965:7098   */\n      swap3\n      swap2\n      pop\n      pop\n      jump\t// out\n        /* \"#utility.yul\":7104:7427   */\n    tag_80:\n        /* \"#utility.yul\":7160:7166   */\n      0x00\n        /* \"#utility.yul\":7209:7211   */\n      0x20\n        /* \"#utility.yul\":7197:7206   */\n      dup3\n        /* \"#utility.yul\":7188:7195   */\n      dup5\n        /* \"#utility.yul\":7184:7207   */\n      sub\n        /* \"#utility.yul\":7180:7212   */\n      slt\n        /* \"#utility.yul\":7177:7296   */\n      iszero\n      tag_599\n      jumpi\n        /* \"#utility.yul\":7215:7294   */\n      tag_600\n      tag_443\n      jump\t// in\n    tag_600:\n        /* \"#utility.yul\":7177:7296   */\n    tag_599:\n        /* \"#utility.yul\":7335:7336   */\n      0x00\n        /* \"#utility.yul\":7360:7410   */\n      tag_601\n        /* \"#utility.yul\":7402:7409   */\n      dup5\n        /* \"#utility.yul\":7393:7399   */\n      dup3\n        /* \"#utility.yul\":7382:7391   */\n      dup6\n        /* \"#utility.yul\":7378:7400   */\n      add\n        /* \"#utility.yul\":7360:7410   */\n      tag_466\n      jump\t// in\n    tag_601:\n        /* \"#utility.yul\":7350:7410   */\n      swap2\n      pop\n        /* \"#utility.yul\":7306:7420   */\n      pop\n        /* \"#utility.yul\":7104:7427   */\n      swap3\n      swap2\n      pop\n      pop\n      jump\t// out\n        /* \"#utility.yul\":7433:7762   */\n    tag_88:\n        /* \"#utility.yul\":7492:7498   */\n      0x00\n        /* \"#utility.yul\":7541:7543   */\n      0x20\n        /* \"#utility.yul\":7529:7538   */\n      dup3\n        /* \"#utility.yul\":7520:7527   */\n      dup5\n        /* \"#utility.yul\":7516:7539   */\n      sub\n        /* \"#utility.yul\":7512:7544   */\n      slt\n        /* \"#utility.yul\":7509:7628   */\n      iszero\n      tag_603\n      jumpi\n        /* \"#utility.yul\":7547:7626   */\n      tag_604\n      tag_443\n      jump\t// in\n    tag_604:\n        /* \"#utility.yul\":7509:7628   */\n    tag_603:\n        /* \"#utility.yul\":7667:7668   */\n      0x00\n        /* \"#utility.yul\":7692:7745   */\n      tag_605\n        /* \"#utility.yul\":7737:7744   */\n      dup5\n        /* \"#utility.yul\":7728:7734   */\n      dup3\n        /* \"#utility.yul\":7717:7726   */\n      dup6\n        /* \"#utility.yul\":7713:7735   */\n      add\n        /* \"#utility.yul\":7692:7745   */\n      tag_448\n      jump\t// in\n    tag_605:\n        /* \"#utility.yul\":7682:7745   */\n      swap2\n      pop\n        /* \"#utility.yul\":7638:7755   */\n      pop\n        /* \"#utility.yul\":7433:7762   */\n      swap3\n      swap2\n      pop\n      pop\n      jump\t// out\n        /* \"#utility.yul\":7768:7872   */\n    tag_467:\n        /* \"#utility.yul\":7813:7820   */\n      0x00\n        /* \"#utility.yul\":7842:7866   */\n      tag_607\n        /* \"#utility.yul\":7860:7865   */\n      dup3\n        /* \"#utility.yul\":7842:7866   */\n      tag_445\n      jump\t// in\n    tag_607:\n        /* \"#utility.yul\":7831:7866   */\n      swap1\n      pop\n        /* \"#utility.yul\":7768:7872   */\n      swap2\n      swap1\n      pop\n      jump\t// out\n        /* \"#utility.yul\":7878:8016   */\n    tag_468:\n        /* \"#utility.yul\":7959:7991   */\n      tag_609\n        /* \"#utility.yul\":7985:7990   */\n      dup2\n        /* \"#utility.yul\":7959:7991   */\n      tag_467\n      jump\t// in\n    tag_609:\n        /* \"#utility.yul\":7952:7957   */\n      dup2\n        /* \"#utility.yul\":7949:7992   */\n      eq\n        /* \"#utility.yul\":7939:8010   */\n      tag_610\n      jumpi\n        /* \"#utility.yul\":8006:8007   */\n      0x00\n        /* \"#utility.yul\":8003:8004   */\n      dup1\n        /* \"#utility.yul\":7996:8008   */\n      revert\n        /* \"#utility.yul\":7939:8010   */\n    tag_610:\n        /* \"#utility.yul\":7878:8016   */\n      pop\n      jump\t// out\n        /* \"#utility.yul\":8022:8177   */\n    tag_469:\n        /* \"#utility.yul\":8076:8081   */\n      0x00\n        /* \"#utility.yul\":8114:8120   */\n      dup2\n        /* \"#utility.yul\":8101:8121   */\n      calldataload\n        /* \"#utility.yul\":8092:8121   */\n      swap1\n      pop\n        /* \"#utility.yul\":8130:8171   */\n      tag_612\n        /* \"#utility.yul\":8165:8170   */\n      dup2\n        /* \"#utility.yul\":8130:8171   */\n      tag_468\n      jump\t// in\n    tag_612:\n        /* \"#utility.yul\":8022:8177   */\n      swap3\n      swap2\n      pop\n      pop\n      jump\t// out\n        /* \"#utility.yul\":8183:8528   */\n    tag_97:\n        /* \"#utility.yul\":8250:8256   */\n      0x00\n        /* \"#utility.yul\":8299:8301   */\n      0x20\n        /* \"#utility.yul\":8287:8296   */\n      dup3\n        /* \"#utility.yul\":8278:8285   */\n      dup5\n        /* \"#utility.yul\":8274:8297   */\n      sub\n        /* \"#utility.yul\":8270:8302   */\n      slt\n        /* \"#utility.yul\":8267:8386   */\n      iszero\n      tag_614\n      jumpi\n        /* \"#utility.yul\":8305:8384   */\n      tag_615\n      tag_443\n      jump\t// in\n    tag_615:\n        /* \"#utility.yul\":8267:8386   */\n    tag_614:\n        /* \"#utility.yul\":8425:8426   */\n      0x00\n        /* \"#utility.yul\":8450:8511   */\n      tag_616\n        /* \"#utility.yul\":8503:8510   */\n      dup5\n        /* \"#utility.yul\":8494:8500   */\n      dup3\n        /* \"#utility.yul\":8483:8492   */\n      dup6\n        /* \"#utility.yul\":8479:8501   */\n      add\n        /* \"#utility.yul\":8450:8511   */\n      tag_469\n      jump\t// in\n    tag_616:\n        /* \"#utility.yul\":8440:8511   */\n      swap2\n      pop\n        /* \"#utility.yul\":8396:8521   */\n      pop\n        /* \"#utility.yul\":8183:8528   */\n      swap3\n      swap2\n      pop\n      pop\n      jump\t// out\n        /* \"#utility.yul\":8534:9299   */\n    tag_110:\n        /* \"#utility.yul\":8620:8626   */\n      0x00\n        /* \"#utility.yul\":8628:8634   */\n      dup1\n        /* \"#utility.yul\":8636:8642   */\n      0x00\n        /* \"#utility.yul\":8644:8650   */\n      dup1\n        /* \"#utility.yul\":8693:8696   */\n      0x80\n        /* \"#utility.yul\":8681:8690   */\n      dup6\n        /* \"#utility.yul\":8672:8679   */\n      dup8\n        /* \"#utility.yul\":8668:8691   */\n      sub\n        /* \"#utility.yul\":8664:8697   */\n      slt\n        /* \"#utility.yul\":8661:8781   */\n      iszero\n      tag_618\n      jumpi\n        /* \"#utility.yul\":8700:8779   */\n      tag_619\n      tag_443\n      jump\t// in\n    tag_619:\n        /* \"#utility.yul\":8661:8781   */\n    tag_618:\n        /* \"#utility.yul\":8820:8821   */\n      0x00\n        /* \"#utility.yul\":8845:8898   */\n      tag_620\n        /* \"#utility.yul\":8890:8897   */\n      dup8\n        /* \"#utility.yul\":8881:8887   */\n      dup3\n        /* \"#utility.yul\":8870:8879   */\n      dup9\n        /* \"#utility.yul\":8866:8888   */\n      add\n        /* \"#utility.yul\":8845:8898   */\n      tag_451\n      jump\t// in\n    tag_620:\n        /* \"#utility.yul\":8835:8898   */\n      swap5\n      pop\n        /* \"#utility.yul\":8791:8908   */\n      pop\n        /* \"#utility.yul\":8947:8949   */\n      0x20\n        /* \"#utility.yul\":8973:9026   */\n      tag_621\n        /* \"#utility.yul\":9018:9025   */\n      dup8\n        /* \"#utility.yul\":9009:9015   */\n      dup3\n        /* \"#utility.yul\":8998:9007   */\n      dup9\n        /* \"#utility.yul\":8994:9016   */\n      add\n        /* \"#utility.yul\":8973:9026   */\n      tag_451\n      jump\t// in\n    tag_621:\n        /* \"#utility.yul\":8963:9026   */\n      swap4\n      pop\n        /* \"#utility.yul\":8918:9036   */\n      pop\n        /* \"#utility.yul\":9075:9077   */\n      0x40\n        /* \"#utility.yul\":9101:9154   */\n      tag_622\n        /* \"#utility.yul\":9146:9153   */\n      dup8\n        /* \"#utility.yul\":9137:9143   */\n      dup3\n        /* \"#utility.yul\":9126:9135   */\n      dup9\n        /* \"#utility.yul\":9122:9144   */\n      add\n        /* \"#utility.yul\":9101:9154   */\n      tag_451\n      jump\t// in\n    tag_622:\n        /* \"#utility.yul\":9091:9154   */\n      swap3\n      pop\n        /* \"#utility.yul\":9046:9164   */\n      pop\n        /* \"#utility.yul\":9203:9205   */\n      0x60\n        /* \"#utility.yul\":9229:9282   */\n      tag_623\n        /* \"#utility.yul\":9274:9281   */\n      dup8\n        /* \"#utility.yul\":9265:9271   */\n      dup3\n        /* \"#utility.yul\":9254:9263   */\n      dup9\n        /* \"#utility.yul\":9250:9272   */\n      add\n        /* \"#utility.yul\":9229:9282   */\n      tag_451\n      jump\t// in\n    tag_623:\n        /* \"#utility.yul\":9219:9282   */\n      swap2\n      pop\n        /* \"#utility.yul\":9174:9292   */\n      pop\n        /* \"#utility.yul\":8534:9299   */\n      swap3\n      swap6\n      swap2\n      swap5\n      pop\n      swap3\n      pop\n      jump\t// out\n        /* \"#utility.yul\":9305:9422   */\n    tag_470:\n        /* \"#utility.yul\":9414:9415   */\n      0x00\n        /* \"#utility.yul\":9411:9412   */\n      dup1\n        /* \"#utility.yul\":9404:9416   */\n      revert\n        /* \"#utility.yul\":9428:9545   */\n    tag_471:\n        /* \"#utility.yul\":9537:9538   */\n      0x00\n        /* \"#utility.yul\":9534:9535   */\n      dup1\n        /* \"#utility.yul\":9527:9539   */\n      revert\n        /* \"#utility.yul\":9551:9668   */\n    tag_472:\n        /* \"#utility.yul\":9660:9661   */\n      0x00\n        /* \"#utility.yul\":9657:9658   */\n      dup1\n        /* \"#utility.yul\":9650:9662   */\n      revert\n        /* \"#utility.yul\":9691:10259   */\n    tag_473:\n        /* \"#utility.yul\":9764:9772   */\n      0x00\n        /* \"#utility.yul\":9774:9780   */\n      dup1\n        /* \"#utility.yul\":9824:9827   */\n      dup4\n        /* \"#utility.yul\":9817:9821   */\n      0x1f\n        /* \"#utility.yul\":9809:9815   */\n      dup5\n        /* \"#utility.yul\":9805:9822   */\n      add\n        /* \"#utility.yul\":9801:9828   */\n      slt\n        /* \"#utility.yul\":9791:9913   */\n      tag_628\n      jumpi\n        /* \"#utility.yul\":9832:9911   */\n      tag_629\n      tag_470\n      jump\t// in\n    tag_629:\n        /* \"#utility.yul\":9791:9913   */\n    tag_628:\n        /* \"#utility.yul\":9945:9951   */\n      dup3\n        /* \"#utility.yul\":9932:9952   */\n      calldataload\n        /* \"#utility.yul\":9922:9952   */\n      swap1\n      pop\n        /* \"#utility.yul\":9975:9993   */\n      0xffffffffffffffff\n        /* \"#utility.yul\":9967:9973   */\n      dup2\n        /* \"#utility.yul\":9964:9994   */\n      gt\n        /* \"#utility.yul\":9961:10078   */\n      iszero\n      tag_630\n      jumpi\n        /* \"#utility.yul\":9997:10076   */\n      tag_631\n      tag_471\n      jump\t// in\n    tag_631:\n        /* \"#utility.yul\":9961:10078   */\n    tag_630:\n        /* \"#utility.yul\":10111:10115   */\n      0x20\n        /* \"#utility.yul\":10103:10109   */\n      dup4\n        /* \"#utility.yul\":10099:10116   */\n      add\n        /* \"#utility.yul\":10087:10116   */\n      swap2\n      pop\n        /* \"#utility.yul\":10165:10168   */\n      dup4\n        /* \"#utility.yul\":10157:10161   */\n      0x20\n        /* \"#utility.yul\":10149:10155   */\n      dup3\n        /* \"#utility.yul\":10145:10162   */\n      mul\n        /* \"#utility.yul\":10135:10143   */\n      dup4\n        /* \"#utility.yul\":10131:10163   */\n      add\n        /* \"#utility.yul\":10128:10169   */\n      gt\n        /* \"#utility.yul\":10125:10253   */\n      iszero\n      tag_632\n      jumpi\n        /* \"#utility.yul\":10172:10251   */\n      tag_633\n      tag_472\n      jump\t// in\n    tag_633:\n        /* \"#utility.yul\":10125:10253   */\n    tag_632:\n        /* \"#utility.yul\":9691:10259   */\n      swap3\n      pop\n      swap3\n      swap1\n      pop\n      jump\t// out\n        /* \"#utility.yul\":10265:10963   */\n    tag_130:\n        /* \"#utility.yul\":10357:10363   */\n      0x00\n        /* \"#utility.yul\":10365:10371   */\n      dup1\n        /* \"#utility.yul\":10373:10379   */\n      0x00\n        /* \"#utility.yul\":10422:10424   */\n      0x40\n        /* \"#utility.yul\":10410:10419   */\n      dup5\n        /* \"#utility.yul\":10401:10408   */\n      dup7\n        /* \"#utility.yul\":10397:10420   */\n      sub\n        /* \"#utility.yul\":10393:10425   */\n      slt\n        /* \"#utility.yul\":10390:10509   */\n      iszero\n      tag_635\n      jumpi\n        /* \"#utility.yul\":10428:10507   */\n      tag_636\n      tag_443\n      jump\t// in\n    tag_636:\n        /* \"#utility.yul\":10390:10509   */\n    tag_635:\n        /* \"#utility.yul\":10576:10577   */\n      0x00\n        /* \"#utility.yul\":10565:10574   */\n      dup5\n        /* \"#utility.yul\":10561:10578   */\n      add\n        /* \"#utility.yul\":10548:10579   */\n      calldataload\n        /* \"#utility.yul\":10606:10624   */\n      0xffffffffffffffff\n        /* \"#utility.yul\":10598:10604   */\n      dup2\n        /* \"#utility.yul\":10595:10625   */\n      gt\n        /* \"#utility.yul\":10592:10709   */\n      iszero\n      tag_637\n      jumpi\n        /* \"#utility.yul\":10628:10707   */\n      tag_638\n      tag_444\n      jump\t// in\n    tag_638:\n        /* \"#utility.yul\":10592:10709   */\n    tag_637:\n        /* \"#utility.yul\":10741:10821   */\n      tag_639\n        /* \"#utility.yul\":10813:10820   */\n      dup7\n        /* \"#utility.yul\":10804:10810   */\n      dup3\n        /* \"#utility.yul\":10793:10802   */\n      dup8\n        /* \"#utility.yul\":10789:10811   */\n      add\n        /* \"#utility.yul\":10741:10821   */\n      tag_473\n      jump\t// in\n    tag_639:\n        /* \"#utility.yul\":10723:10821   */\n      swap4\n      pop\n      swap4\n      pop\n        /* \"#utility.yul\":10519:10831   */\n      pop\n        /* \"#utility.yul\":10870:10872   */\n      0x20\n        /* \"#utility.yul\":10896:10946   */\n      tag_640\n        /* \"#utility.yul\":10938:10945   */\n      dup7\n        /* \"#utility.yul\":10929:10935   */\n      dup3\n        /* \"#utility.yul\":10918:10927   */\n      dup8\n        /* \"#utility.yul\":10914:10936   */\n      add\n        /* \"#utility.yul\":10896:10946   */\n      tag_466\n      jump\t// in\n    tag_640:\n        /* \"#utility.yul\":10886:10946   */\n      swap2\n      pop\n        /* \"#utility.yul\":10841:10956   */\n      pop\n        /* \"#utility.yul\":10265:10963   */\n      swap3\n      pop\n      swap3\n      pop\n      swap3\n      jump\t// out\n        /* \"#utility.yul\":10969:11443   */\n    tag_139:\n        /* \"#utility.yul\":11037:11043   */\n      0x00\n        /* \"#utility.yul\":11045:11051   */\n      dup1\n        /* \"#utility.yul\":11094:11096   */\n      0x40\n        /* \"#utility.yul\":11082:11091   */\n      dup4\n        /* \"#utility.yul\":11073:11080   */\n      dup6\n        /* \"#utility.yul\":11069:11092   */\n      sub\n        /* \"#utility.yul\":11065:11097   */\n      slt\n        /* \"#utility.yul\":11062:11181   */\n      iszero\n      tag_642\n      jumpi\n        /* \"#utility.yul\":11100:11179   */\n      tag_643\n      tag_443\n      jump\t// in\n    tag_643:\n        /* \"#utility.yul\":11062:11181   */\n    tag_642:\n        /* \"#utility.yul\":11220:11221   */\n      0x00\n        /* \"#utility.yul\":11245:11298   */\n      tag_644\n        /* \"#utility.yul\":11290:11297   */\n      dup6\n        /* \"#utility.yul\":11281:11287   */\n      dup3\n        /* \"#utility.yul\":11270:11279   */\n      dup7\n        /* \"#utility.yul\":11266:11288   */\n      add\n        /* \"#utility.yul\":11245:11298   */\n      tag_448\n      jump\t// in\n    tag_644:\n        /* \"#utility.yul\":11235:11298   */\n      swap3\n      pop\n        /* \"#utility.yul\":11191:11308   */\n      pop\n        /* \"#utility.yul\":11347:11349   */\n      0x20\n        /* \"#utility.yul\":11373:11426   */\n      tag_645\n        /* \"#utility.yul\":11418:11425   */\n      dup6\n        /* \"#utility.yul\":11409:11415   */\n      dup3\n        /* \"#utility.yul\":11398:11407   */\n      dup7\n        /* \"#utility.yul\":11394:11416   */\n      add\n        /* \"#utility.yul\":11373:11426   */\n      tag_448\n      jump\t// in\n    tag_645:\n        /* \"#utility.yul\":11363:11426   */\n      swap2\n      pop\n        /* \"#utility.yul\":11318:11436   */\n      pop\n        /* \"#utility.yul\":10969:11443   */\n      swap3\n      pop\n      swap3\n      swap1\n      pop\n      jump\t// out\n        /* \"#utility.yul\":11449:11620   */\n    tag_474:\n        /* \"#utility.yul\":11589:11612   */\n      0x43616c6c6572206973206e6f7420746865206465760000000000000000000000\n        /* \"#utility.yul\":11585:11586   */\n      0x00\n        /* \"#utility.yul\":11577:11583   */\n      dup3\n        /* \"#utility.yul\":11573:11587   */\n      add\n        /* \"#utility.yul\":11566:11613   */\n      mstore\n        /* \"#utility.yul\":11449:11620   */\n      pop\n      jump\t// out\n        /* \"#utility.yul\":11626:11992   */\n    tag_475:\n        /* \"#utility.yul\":11768:11771   */\n      0x00\n        /* \"#utility.yul\":11789:11856   */\n      tag_648\n        /* \"#utility.yul\":11853:11855   */\n      0x15\n        /* \"#utility.yul\":11848:11851   */\n      dup4\n        /* \"#utility.yul\":11789:11856   */\n      tag_438\n      jump\t// in\n    tag_648:\n        /* \"#utility.yul\":11782:11856   */\n      swap2\n      pop\n        /* \"#utility.yul\":11865:11958   */\n      tag_649\n        /* \"#utility.yul\":11954:11957   */\n      dup3\n        /* \"#utility.yul\":11865:11958   */\n      tag_474\n      jump\t// in\n    tag_649:\n        /* \"#utility.yul\":11983:11985   */\n      0x20\n        /* \"#utility.yul\":11978:11981   */\n      dup3\n        /* \"#utility.yul\":11974:11986   */\n      add\n        /* \"#utility.yul\":11967:11986   */\n      swap1\n      pop\n        /* \"#utility.yul\":11626:11992   */\n      swap2\n      swap1\n      pop\n      jump\t// out\n        /* \"#utility.yul\":11998:12417   */\n    tag_173:\n        /* \"#utility.yul\":12164:12168   */\n      0x00\n        /* \"#utility.yul\":12202:12204   */\n      0x20\n        /* \"#utility.yul\":12191:12200   */\n      dup3\n        /* \"#utility.yul\":12187:12205   */\n      add\n        /* \"#utility.yul\":12179:12205   */\n      swap1\n      pop\n        /* \"#utility.yul\":12251:12260   */\n      dup2\n        /* \"#utility.yul\":12245:12249   */\n      dup2\n        /* \"#utility.yul\":12241:12261   */\n      sub\n        /* \"#utility.yul\":12237:12238   */\n      0x00\n        /* \"#utility.yul\":12226:12235   */\n      dup4\n        /* \"#utility.yul\":12222:12239   */\n      add\n        /* \"#utility.yul\":12215:12262   */\n      mstore\n        /* \"#utility.yul\":12279:12410   */\n      tag_651\n        /* \"#utility.yul\":12405:12409   */\n      dup2\n        /* \"#utility.yul\":12279:12410   */\n      tag_475\n      jump\t// in\n    tag_651:\n        /* \"#utility.yul\":12271:12410   */\n      swap1\n      pop\n        /* \"#utility.yul\":11998:12417   */\n      swap2\n      swap1\n      pop\n      jump\t// out\n        /* \"#utility.yul\":12423:12596   */\n    tag_476:\n        /* \"#utility.yul\":12563:12588   */\n      0x43616c6c6572206973206e6f7420746865206f776e6572000000000000000000\n        /* \"#utility.yul\":12559:12560   */\n      0x00\n        /* \"#utility.yul\":12551:12557   */\n      dup3\n        /* \"#utility.yul\":12547:12561   */\n      add\n        /* \"#utility.yul\":12540:12589   */\n      mstore\n        /* \"#utility.yul\":12423:12596   */\n      pop\n      jump\t// out\n        /* \"#utility.yul\":12602:12968   */\n    tag_477:\n        /* \"#utility.yul\":12744:12747   */\n      0x00\n        /* \"#utility.yul\":12765:12832   */\n      tag_654\n        /* \"#utility.yul\":12829:12831   */\n      0x17\n        /* \"#utility.yul\":12824:12827   */\n      dup4\n        /* \"#utility.yul\":12765:12832   */\n      tag_438\n      jump\t// in\n    tag_654:\n        /* \"#utility.yul\":12758:12832   */\n      swap2\n      pop\n        /* \"#utility.yul\":12841:12934   */\n      tag_655\n        /* \"#utility.yul\":12930:12933   */\n      dup3\n        /* \"#utility.yul\":12841:12934   */\n      tag_476\n      jump\t// in\n    tag_655:\n        /* \"#utility.yul\":12959:12961   */\n      0x20\n        /* \"#utility.yul\":12954:12957   */\n      dup3\n        /* \"#utility.yul\":12950:12962   */\n      add\n        /* \"#utility.yul\":12943:12962   */\n      swap1\n      pop\n        /* \"#utility.yul\":12602:12968   */\n      swap2\n      swap1\n      pop\n      jump\t// out\n        /* \"#utility.yul\":12974:13393   */\n    tag_192:\n        /* \"#utility.yul\":13140:13144   */\n      0x00\n        /* \"#utility.yul\":13178:13180   */\n      0x20\n        /* \"#utility.yul\":13167:13176   */\n      dup3\n        /* \"#utility.yul\":13163:13181   */\n      add\n        /* \"#utility.yul\":13155:13181   */\n      swap1\n      pop\n        /* \"#utility.yul\":13227:13236   */\n      dup2\n        /* \"#utility.yul\":13221:13225   */\n      dup2\n        /* \"#utility.yul\":13217:13237   */\n      sub\n        /* \"#utility.yul\":13213:13214   */\n      0x00\n        /* \"#utility.yul\":13202:13211   */\n      dup4\n        /* \"#utility.yul\":13198:13215   */\n      add\n        /* \"#utility.yul\":13191:13238   */\n      mstore\n        /* \"#utility.yul\":13255:13386   */\n      tag_657\n        /* \"#utility.yul\":13381:13385   */\n      dup2\n        /* \"#utility.yul\":13255:13386   */\n      tag_477\n      jump\t// in\n    tag_657:\n        /* \"#utility.yul\":13247:13386   */\n      swap1\n      pop\n        /* \"#utility.yul\":12974:13393   */\n      swap2\n      swap1\n      pop\n      jump\t// out\n        /* \"#utility.yul\":13399:13578   */\n    tag_478:\n        /* \"#utility.yul\":13539:13570   */\n      0x52656469732063616e6e6f74206265206d6f7265207468616e2031302e000000\n        /* \"#utility.yul\":13535:13536   */\n      0x00\n        /* \"#utility.yul\":13527:13533   */\n      dup3\n        /* \"#utility.yul\":13523:13537   */\n      add\n        /* \"#utility.yul\":13516:13571   */\n      mstore\n        /* \"#utility.yul\":13399:13578   */\n      pop\n      jump\t// out\n        /* \"#utility.yul\":13584:13950   */\n    tag_479:\n        /* \"#utility.yul\":13726:13729   */\n      0x00\n        /* \"#utility.yul\":13747:13814   */\n      tag_660\n        /* \"#utility.yul\":13811:13813   */\n      0x1d\n        /* \"#utility.yul\":13806:13809   */\n      dup4\n        /* \"#utility.yul\":13747:13814   */\n      tag_438\n      jump\t// in\n    tag_660:\n        /* \"#utility.yul\":13740:13814   */\n      swap2\n      pop\n        /* \"#utility.yul\":13823:13916   */\n      tag_661\n        /* \"#utility.yul\":13912:13915   */\n      dup3\n        /* \"#utility.yul\":13823:13916   */\n      tag_478\n      jump\t// in\n    tag_661:\n        /* \"#utility.yul\":13941:13943   */\n      0x20\n        /* \"#utility.yul\":13936:13939   */\n      dup3\n        /* \"#utility.yul\":13932:13944   */\n      add\n        /* \"#utility.yul\":13925:13944   */\n      swap1\n      pop\n        /* \"#utility.yul\":13584:13950   */\n      swap2\n      swap1\n      pop\n      jump\t// out\n        /* \"#utility.yul\":13956:14375   */\n    tag_214:\n        /* \"#utility.yul\":14122:14126   */\n      0x00\n        /* \"#utility.yul\":14160:14162   */\n      0x20\n        /* \"#utility.yul\":14149:14158   */\n      dup3\n        /* \"#utility.yul\":14145:14163   */\n      add\n        /* \"#utility.yul\":14137:14163   */\n      swap1\n      pop\n        /* \"#utility.yul\":14209:14218   */\n      dup2\n        /* \"#utility.yul\":14203:14207   */\n      dup2\n        /* \"#utility.yul\":14199:14219   */\n      sub\n        /* \"#utility.yul\":14195:14196   */\n      0x00\n        /* \"#utility.yul\":14184:14193   */\n      dup4\n        /* \"#utility.yul\":14180:14197   */\n      add\n        /* \"#utility.yul\":14173:14220   */\n      mstore\n        /* \"#utility.yul\":14237:14368   */\n      tag_663\n        /* \"#utility.yul\":14363:14367   */\n      dup2\n        /* \"#utility.yul\":14237:14368   */\n      tag_479\n      jump\t// in\n    tag_663:\n        /* \"#utility.yul\":14229:14368   */\n      swap1\n      pop\n        /* \"#utility.yul\":13956:14375   */\n      swap2\n      swap1\n      pop\n      jump\t// out\n        /* \"#utility.yul\":14381:14557   */\n    tag_480:\n        /* \"#utility.yul\":14521:14549   */\n      0x5461782063616e6e6f74206265206d6f7265207468616e20362e000000000000\n        /* \"#utility.yul\":14517:14518   */\n      0x00\n        /* \"#utility.yul\":14509:14515   */\n      dup3\n        /* \"#utility.yul\":14505:14519   */\n      add\n        /* \"#utility.yul\":14498:14550   */\n      mstore\n        /* \"#utility.yul\":14381:14557   */\n      pop\n      jump\t// out\n        /* \"#utility.yul\":14563:14929   */\n    tag_481:\n        /* \"#utility.yul\":14705:14708   */\n      0x00\n        /* \"#utility.yul\":14726:14793   */\n      tag_666\n        /* \"#utility.yul\":14790:14792   */\n      0x1a\n        /* \"#utility.yul\":14785:14788   */\n      dup4\n        /* \"#utility.yul\":14726:14793   */\n      tag_438\n      jump\t// in\n    tag_666:\n        /* \"#utility.yul\":14719:14793   */\n      swap2\n      pop\n        /* \"#utility.yul\":14802:14895   */\n      tag_667\n        /* \"#utility.yul\":14891:14894   */\n      dup3\n        /* \"#utility.yul\":14802:14895   */\n      tag_480\n      jump\t// in\n    tag_667:\n        /* \"#utility.yul\":14920:14922   */\n      0x20\n        /* \"#utility.yul\":14915:14918   */\n      dup3\n        /* \"#utility.yul\":14911:14923   */\n      add\n        /* \"#utility.yul\":14904:14923   */\n      swap1\n      pop\n        /* \"#utility.yul\":14563:14929   */\n      swap2\n      swap1\n      pop\n      jump\t// out\n        /* \"#utility.yul\":14935:15354   */\n    tag_219:\n        /* \"#utility.yul\":15101:15105   */\n      0x00\n        /* \"#utility.yul\":15139:15141   */\n      0x20\n        /* \"#utility.yul\":15128:15137   */\n      dup3\n        /* \"#utility.yul\":15124:15142   */\n      add\n        /* \"#utility.yul\":15116:15142   */\n      swap1\n      pop\n        /* \"#utility.yul\":15188:15197   */\n      dup2\n        /* \"#utility.yul\":15182:15186   */\n      dup2\n        /* \"#utility.yul\":15178:15198   */\n      sub\n        /* \"#utility.yul\":15174:15175   */\n      0x00\n        /* \"#utility.yul\":15163:15172   */\n      dup4\n        /* \"#utility.yul\":15159:15176   */\n      add\n        /* \"#utility.yul\":15152:15199   */\n      mstore\n        /* \"#utility.yul\":15216:15347   */\n      tag_669\n        /* \"#utility.yul\":15342:15346   */\n      dup2\n        /* \"#utility.yul\":15216:15347   */\n      tag_481\n      jump\t// in\n    tag_669:\n        /* \"#utility.yul\":15208:15347   */\n      swap1\n      pop\n        /* \"#utility.yul\":14935:15354   */\n      swap2\n      swap1\n      pop\n      jump\t// out\n        /* \"#utility.yul\":15360:15540   */\n    tag_258:\n        /* \"#utility.yul\":15408:15485   */\n      0x4e487b7100000000000000000000000000000000000000000000000000000000\n        /* \"#utility.yul\":15405:15406   */\n      0x00\n        /* \"#utility.yul\":15398:15486   */\n      mstore\n        /* \"#utility.yul\":15505:15509   */\n      0x32\n        /* \"#utility.yul\":15502:15503   */\n      0x04\n        /* \"#utility.yul\":15495:15510   */\n      mstore\n        /* \"#utility.yul\":15529:15533   */\n      0x24\n        /* \"#utility.yul\":15526:15527   */\n      0x00\n        /* \"#utility.yul\":15519:15534   */\n      revert\n        /* \"#utility.yul\":15546:15726   */\n    tag_482:\n        /* \"#utility.yul\":15594:15671   */\n      0x4e487b7100000000000000000000000000000000000000000000000000000000\n        /* \"#utility.yul\":15591:15592   */\n      0x00\n        /* \"#utility.yul\":15584:15672   */\n      mstore\n        /* \"#utility.yul\":15691:15695   */\n      0x11\n        /* \"#utility.yul\":15688:15689   */\n      0x04\n        /* \"#utility.yul\":15681:15696   */\n      mstore\n        /* \"#utility.yul\":15715:15719   */\n      0x24\n        /* \"#utility.yul\":15712:15713   */\n      0x00\n        /* \"#utility.yul\":15705:15720   */\n      revert\n        /* \"#utility.yul\":15732:15965   */\n    tag_261:\n        /* \"#utility.yul\":15771:15774   */\n      0x00\n        /* \"#utility.yul\":15794:15818   */\n      tag_673\n        /* \"#utility.yul\":15812:15817   */\n      dup3\n        /* \"#utility.yul\":15794:15818   */\n      tag_449\n      jump\t// in\n    tag_673:\n        /* \"#utility.yul\":15785:15818   */\n      swap2\n      pop\n        /* \"#utility.yul\":15840:15906   */\n      0xffffffffffffffffffffffffffffffffffffffffffffffffffffffffffffffff\n        /* \"#utility.yul\":15833:15838   */\n      dup3\n        /* \"#utility.yul\":15830:15907   */\n      sub\n        /* \"#utility.yul\":15827:15930   */\n      tag_674\n      jumpi\n        /* \"#utility.yul\":15910:15928   */\n      tag_675\n      tag_482\n      jump\t// in\n    tag_675:\n        /* \"#utility.yul\":15827:15930   */\n    tag_674:\n        /* \"#utility.yul\":15957:15958   */\n      0x01\n        /* \"#utility.yul\":15950:15955   */\n      dup3\n        /* \"#utility.yul\":15946:15959   */\n      add\n        /* \"#utility.yul\":15939:15959   */\n      swap1\n      pop\n        /* \"#utility.yul\":15732:15965   */\n      swap2\n      swap1\n      pop\n      jump\t// out\n        /* \"#utility.yul\":15971:16303   */\n    tag_273:\n        /* \"#utility.yul\":16092:16096   */\n      0x00\n        /* \"#utility.yul\":16130:16132   */\n      0x40\n        /* \"#utility.yul\":16119:16128   */\n      dup3\n        /* \"#utility.yul\":16115:16133   */\n      add\n        /* \"#utility.yul\":16107:16133   */\n      swap1\n      pop\n        /* \"#utility.yul\":16143:16214   */\n      tag_677\n        /* \"#utility.yul\":16211:16212   */\n      0x00\n        /* \"#utility.yul\":16200:16209   */\n      dup4\n        /* \"#utility.yul\":16196:16213   */\n      add\n        /* \"#utility.yul\":16187:16193   */\n      dup6\n        /* \"#utility.yul\":16143:16214   */\n      tag_462\n      jump\t// in\n    tag_677:\n        /* \"#utility.yul\":16224:16296   */\n      tag_678\n        /* \"#utility.yul\":16292:16294   */\n      0x20\n        /* \"#utility.yul\":16281:16290   */\n      dup4\n        /* \"#utility.yul\":16277:16295   */\n      add\n        /* \"#utility.yul\":16268:16274   */\n      dup5\n        /* \"#utility.yul\":16224:16296   */\n      tag_459\n      jump\t// in\n    tag_678:\n        /* \"#utility.yul\":15971:16303   */\n      swap4\n      swap3\n      pop\n      pop\n      pop\n      jump\t// out\n        /* \"#utility.yul\":16309:16446   */\n    tag_483:\n        /* \"#utility.yul\":16363:16368   */\n      0x00\n        /* \"#utility.yul\":16394:16400   */\n      dup2\n        /* \"#utility.yul\":16388:16401   */\n      mload\n        /* \"#utility.yul\":16379:16401   */\n      swap1\n      pop\n        /* \"#utility.yul\":16410:16440   */\n      tag_680\n        /* \"#utility.yul\":16434:16439   */\n      dup2\n        /* \"#utility.yul\":16410:16440   */\n      tag_465\n      jump\t// in\n    tag_680:\n        /* \"#utility.yul\":16309:16446   */\n      swap3\n      swap2\n      pop\n      pop\n      jump\t// out\n        /* \"#utility.yul\":16452:16797   */\n    tag_277:\n        /* \"#utility.yul\":16519:16525   */\n      0x00\n        /* \"#utility.yul\":16568:16570   */\n      0x20\n        /* \"#utility.yul\":16556:16565   */\n      dup3\n        /* \"#utility.yul\":16547:16554   */\n      dup5\n        /* \"#utility.yul\":16543:16566   */\n      sub\n        /* \"#utility.yul\":16539:16571   */\n      slt\n        /* \"#utility.yul\":16536:16655   */\n      iszero\n      tag_682\n      jumpi\n        /* \"#utility.yul\":16574:16653   */\n      tag_683\n      tag_443\n      jump\t// in\n    tag_683:\n        /* \"#utility.yul\":16536:16655   */\n    tag_682:\n        /* \"#utility.yul\":16694:16695   */\n      0x00\n        /* \"#utility.yul\":16719:16780   */\n      tag_684\n        /* \"#utility.yul\":16772:16779   */\n      dup5\n        /* \"#utility.yul\":16763:16769   */\n      dup3\n        /* \"#utility.yul\":16752:16761   */\n      dup6\n        /* \"#utility.yul\":16748:16770   */\n      add\n        /* \"#utility.yul\":16719:16780   */\n      tag_483\n      jump\t// in\n    tag_684:\n        /* \"#utility.yul\":16709:16780   */\n      swap2\n      pop\n        /* \"#utility.yul\":16665:16790   */\n      pop\n        /* \"#utility.yul\":16452:16797   */\n      swap3\n      swap2\n      pop\n      pop\n      jump\t// out\n        /* \"#utility.yul\":16803:17026   */\n    tag_484:\n        /* \"#utility.yul\":16943:16977   */\n      0x45524332303a20617070726f76652066726f6d20746865207a65726f20616464\n        /* \"#utility.yul\":16939:16940   */\n      0x00\n        /* \"#utility.yul\":16931:16937   */\n      dup3\n        /* \"#utility.yul\":16927:16941   */\n      add\n        /* \"#utility.yul\":16920:16978   */\n      mstore\n        /* \"#utility.yul\":17012:17018   */\n      0x7265737300000000000000000000000000000000000000000000000000000000\n        /* \"#utility.yul\":17007:17009   */\n      0x20\n        /* \"#utility.yul\":16999:17005   */\n      dup3\n        /* \"#utility.yul\":16995:17010   */\n      add\n        /* \"#utility.yul\":16988:17019   */\n      mstore\n        /* \"#utility.yul\":16803:17026   */\n      pop\n      jump\t// out\n        /* \"#utility.yul\":17032:17398   */\n    tag_485:\n        /* \"#utility.yul\":17174:17177   */\n      0x00\n        /* \"#utility.yul\":17195:17262   */\n      tag_687\n        /* \"#utility.yul\":17259:17261   */\n      0x24\n        /* \"#utility.yul\":17254:17257   */\n      dup4\n        /* \"#utility.yul\":17195:17262   */\n      tag_438\n      jump\t// in\n    tag_687:\n        /* \"#utility.yul\":17188:17262   */\n      swap2\n      pop\n        /* \"#utility.yul\":17271:17364   */\n      tag_688\n        /* \"#utility.yul\":17360:17363   */\n      dup3\n        /* \"#utility.yul\":17271:17364   */\n      tag_484\n      jump\t// in\n    tag_688:\n        /* \"#utility.yul\":17389:17391   */\n      0x40\n        /* \"#utility.yul\":17384:17387   */\n      dup3\n        /* \"#utility.yul\":17380:17392   */\n      add\n        /* \"#utility.yul\":17373:17392   */\n      swap1\n      pop\n        /* \"#utility.yul\":17032:17398   */\n      swap2\n      swap1\n      pop\n      jump\t// out\n        /* \"#utility.yul\":17404:17823   */\n    tag_287:\n        /* \"#utility.yul\":17570:17574   */\n      0x00\n        /* \"#utility.yul\":17608:17610   */\n      0x20\n        /* \"#utility.yul\":17597:17606   */\n      dup3\n        /* \"#utility.yul\":17593:17611   */\n      add\n        /* \"#utility.yul\":17585:17611   */\n      swap1\n      pop\n        /* \"#utility.yul\":17657:17666   */\n      dup2\n        /* \"#utility.yul\":17651:17655   */\n      dup2\n        /* \"#utility.yul\":17647:17667   */\n      sub\n        /* \"#utility.yul\":17643:17644   */\n      0x00\n        /* \"#utility.yul\":17632:17641   */\n      dup4\n        /* \"#utility.yul\":17628:17645   */\n      add\n        /* \"#utility.yul\":17621:17668   */\n      mstore\n        /* \"#utility.yul\":17685:17816   */\n      tag_690\n        /* \"#utility.yul\":17811:17815   */\n      dup2\n        /* \"#utility.yul\":17685:17816   */\n      tag_485\n      jump\t// in\n    tag_690:\n        /* \"#utility.yul\":17677:17816   */\n      swap1\n      pop\n        /* \"#utility.yul\":17404:17823   */\n      swap2\n      swap1\n      pop\n      jump\t// out\n        /* \"#utility.yul\":17829:18050   */\n    tag_486:\n        /* \"#utility.yul\":17969:18003   */\n      0x45524332303a20617070726f766520746f20746865207a65726f206164647265\n        /* \"#utility.yul\":17965:17966   */\n      0x00\n        /* \"#utility.yul\":17957:17963   */\n      dup3\n        /* \"#utility.yul\":17953:17967   */\n      add\n        /* \"#utility.yul\":17946:18004   */\n      mstore\n        /* \"#utility.yul\":18038:18042   */\n      0x7373000000000000000000000000000000000000000000000000000000000000\n        /* \"#utility.yul\":18033:18035   */\n      0x20\n        /* \"#utility.yul\":18025:18031   */\n      dup3\n        /* \"#utility.yul\":18021:18036   */\n      add\n        /* \"#utility.yul\":18014:18043   */\n      mstore\n        /* \"#utility.yul\":17829:18050   */\n      pop\n      jump\t// out\n        /* \"#utility.yul\":18056:18422   */\n    tag_487:\n        /* \"#utility.yul\":18198:18201   */\n      0x00\n        /* \"#utility.yul\":18219:18286   */\n      tag_693\n        /* \"#utility.yul\":18283:18285   */\n      0x22\n        /* \"#utility.yul\":18278:18281   */\n      dup4\n        /* \"#utility.yul\":18219:18286   */\n      tag_438\n      jump\t// in\n    tag_693:\n        /* \"#utility.yul\":18212:18286   */\n      swap2\n      pop\n        /* \"#utility.yul\":18295:18388   */\n      tag_694\n        /* \"#utility.yul\":18384:18387   */\n      dup3\n        /* \"#utility.yul\":18295:18388   */\n      tag_486\n      jump\t// in\n    tag_694:\n        /* \"#utility.yul\":18413:18415   */\n      0x40\n        /* \"#utility.yul\":18408:18411   */\n      dup3\n        /* \"#utility.yul\":18404:18416   */\n      add\n        /* \"#utility.yul\":18397:18416   */\n      swap1\n      pop\n        /* \"#utility.yul\":18056:18422   */\n      swap2\n      swap1\n      pop\n      jump\t// out\n        /* \"#utility.yul\":18428:18847   */\n    tag_290:\n        /* \"#utility.yul\":18594:18598   */\n      0x00\n        /* \"#utility.yul\":18632:18634   */\n      0x20\n        /* \"#utility.yul\":18621:18630   */\n      dup3\n        /* \"#utility.yul\":18617:18635   */\n      add\n        /* \"#utility.yul\":18609:18635   */\n      swap1\n      pop\n        /* \"#utility.yul\":18681:18690   */\n      dup2\n        /* \"#utility.yul\":18675:18679   */\n      dup2\n        /* \"#utility.yul\":18671:18691   */\n      sub\n        /* \"#utility.yul\":18667:18668   */\n      0x00\n        /* \"#utility.yul\":18656:18665   */\n      dup4\n        /* \"#utility.yul\":18652:18669   */\n      add\n        /* \"#utility.yul\":18645:18692   */\n      mstore\n        /* \"#utility.yul\":18709:18840   */\n      tag_696\n        /* \"#utility.yul\":18835:18839   */\n      dup2\n        /* \"#utility.yul\":18709:18840   */\n      tag_487\n      jump\t// in\n    tag_696:\n        /* \"#utility.yul\":18701:18840   */\n      swap1\n      pop\n        /* \"#utility.yul\":18428:18847   */\n      swap2\n      swap1\n      pop\n      jump\t// out\n        /* \"#utility.yul\":18853:19077   */\n    tag_488:\n        /* \"#utility.yul\":18993:19027   */\n      0x45524332303a207472616e736665722066726f6d20746865207a65726f206164\n        /* \"#utility.yul\":18989:18990   */\n      0x00\n        /* \"#utility.yul\":18981:18987   */\n      dup3\n        /* \"#utility.yul\":18977:18991   */\n      add\n        /* \"#utility.yul\":18970:19028   */\n      mstore\n        /* \"#utility.yul\":19062:19069   */\n      0x6472657373000000000000000000000000000000000000000000000000000000\n        /* \"#utility.yul\":19057:19059   */\n      0x20\n        /* \"#utility.yul\":19049:19055   */\n      dup3\n        /* \"#utility.yul\":19045:19060   */\n      add\n        /* \"#utility.yul\":19038:19070   */\n      mstore\n        /* \"#utility.yul\":18853:19077   */\n      pop\n      jump\t// out\n        /* \"#utility.yul\":19083:19449   */\n    tag_489:\n        /* \"#utility.yul\":19225:19228   */\n      0x00\n        /* \"#utility.yul\":19246:19313   */\n      tag_699\n        /* \"#utility.yul\":19310:19312   */\n      0x25\n        /* \"#utility.yul\":19305:19308   */\n      dup4\n        /* \"#utility.yul\":19246:19313   */\n      tag_438\n      jump\t// in\n    tag_699:\n        /* \"#utility.yul\":19239:19313   */\n      swap2\n      pop\n        /* \"#utility.yul\":19322:19415   */\n      tag_700\n        /* \"#utility.yul\":19411:19414   */\n      dup3\n        /* \"#utility.yul\":19322:19415   */\n      tag_488\n      jump\t// in\n    tag_700:\n        /* \"#utility.yul\":19440:19442   */\n      0x40\n        /* \"#utility.yul\":19435:19438   */\n      dup3\n        /* \"#utility.yul\":19431:19443   */\n      add\n        /* \"#utility.yul\":19424:19443   */\n      swap1\n      pop\n        /* \"#utility.yul\":19083:19449   */\n      swap2\n      swap1\n      pop\n      jump\t// out\n        /* \"#utility.yul\":19455:19874   */\n    tag_295:\n        /* \"#utility.yul\":19621:19625   */\n      0x00\n        /* \"#utility.yul\":19659:19661   */\n      0x20\n        /* \"#utility.yul\":19648:19657   */\n      dup3\n        /* \"#utility.yul\":19644:19662   */\n      add\n        /* \"#utility.yul\":19636:19662   */\n      swap1\n      pop\n        /* \"#utility.yul\":19708:19717   */\n      dup2\n        /* \"#utility.yul\":19702:19706   */\n      dup2\n        /* \"#utility.yul\":19698:19718   */\n      sub\n        /* \"#utility.yul\":19694:19695   */\n      0x00\n        /* \"#utility.yul\":19683:19692   */\n      dup4\n        /* \"#utility.yul\":19679:19696   */\n      add\n        /* \"#utility.yul\":19672:19719   */\n      mstore\n        /* \"#utility.yul\":19736:19867   */\n      tag_702\n        /* \"#utility.yul\":19862:19866   */\n      dup2\n        /* \"#utility.yul\":19736:19867   */\n      tag_489\n      jump\t// in\n    tag_702:\n        /* \"#utility.yul\":19728:19867   */\n      swap1\n      pop\n        /* \"#utility.yul\":19455:19874   */\n      swap2\n      swap1\n      pop\n      jump\t// out\n        /* \"#utility.yul\":19880:20102   */\n    tag_490:\n        /* \"#utility.yul\":20020:20054   */\n      0x45524332303a207472616e7366657220746f20746865207a65726f2061646472\n        /* \"#utility.yul\":20016:20017   */\n      0x00\n        /* \"#utility.yul\":20008:20014   */\n      dup3\n        /* \"#utility.yul\":20004:20018   */\n      add\n        /* \"#utility.yul\":19997:20055   */\n      mstore\n        /* \"#utility.yul\":20089:20094   */\n      0x6573730000000000000000000000000000000000000000000000000000000000\n        /* \"#utility.yul\":20084:20086   */\n      0x20\n        /* \"#utility.yul\":20076:20082   */\n      dup3\n        /* \"#utility.yul\":20072:20087   */\n      add\n        /* \"#utility.yul\":20065:20095   */\n      mstore\n        /* \"#utility.yul\":19880:20102   */\n      pop\n      jump\t// out\n        /* \"#utility.yul\":20108:20474   */\n    tag_491:\n        /* \"#utility.yul\":20250:20253   */\n      0x00\n        /* \"#utility.yul\":20271:20338   */\n      tag_705\n        /* \"#utility.yul\":20335:20337   */\n      0x23\n        /* \"#utility.yul\":20330:20333   */\n      dup4\n        /* \"#utility.yul\":20271:20338   */\n      tag_438\n      jump\t// in\n    tag_705:\n        /* \"#utility.yul\":20264:20338   */\n      swap2\n      pop\n        /* \"#utility.yul\":20347:20440   */\n      tag_706\n        /* \"#utility.yul\":20436:20439   */\n      dup3\n        /* \"#utility.yul\":20347:20440   */\n      tag_490\n      jump\t// in\n    tag_706:\n        /* \"#utility.yul\":20465:20467   */\n      0x40\n        /* \"#utility.yul\":20460:20463   */\n      dup3\n        /* \"#utility.yul\":20456:20468   */\n      add\n        /* \"#utility.yul\":20449:20468   */\n      swap1\n      pop\n        /* \"#utility.yul\":20108:20474   */\n      swap2\n      swap1\n      pop\n      jump\t// out\n        /* \"#utility.yul\":20480:20899   */\n    tag_298:\n        /* \"#utility.yul\":20646:20650   */\n      0x00\n        /* \"#utility.yul\":20684:20686   */\n      0x20\n        /* \"#utility.yul\":20673:20682   */\n      dup3\n        /* \"#utility.yul\":20669:20687   */\n      add\n        /* \"#utility.yul\":20661:20687   */\n      swap1\n      pop\n        /* \"#utility.yul\":20733:20742   */\n      dup2\n        /* \"#utility.yul\":20727:20731   */\n      dup2\n        /* \"#utility.yul\":20723:20743   */\n      sub\n        /* \"#utility.yul\":20719:20720   */\n      0x00\n        /* \"#utility.yul\":20708:20717   */\n      dup4\n        /* \"#utility.yul\":20704:20721   */\n      add\n        /* \"#utility.yul\":20697:20744   */\n      mstore\n        /* \"#utility.yul\":20761:20892   */\n      tag_708\n        /* \"#utility.yul\":20887:20891   */\n      dup2\n        /* \"#utility.yul\":20761:20892   */\n      tag_491\n      jump\t// in\n    tag_708:\n        /* \"#utility.yul\":20753:20892   */\n      swap1\n      pop\n        /* \"#utility.yul\":20480:20899   */\n      swap2\n      swap1\n      pop\n      jump\t// out\n        /* \"#utility.yul\":20905:21133   */\n    tag_492:\n        /* \"#utility.yul\":21045:21079   */\n      0x5472616e7366657220616d6f756e74206d757374206265206772656174657220\n        /* \"#utility.yul\":21041:21042   */\n      0x00\n        /* \"#utility.yul\":21033:21039   */\n      dup3\n        /* \"#utility.yul\":21029:21043   */\n      add\n        /* \"#utility.yul\":21022:21080   */\n      mstore\n        /* \"#utility.yul\":21114:21125   */\n      0x7468616e207a65726f0000000000000000000000000000000000000000000000\n        /* \"#utility.yul\":21109:21111   */\n      0x20\n        /* \"#utility.yul\":21101:21107   */\n      dup3\n        /* \"#utility.yul\":21097:21112   */\n      add\n        /* \"#utility.yul\":21090:21126   */\n      mstore\n        /* \"#utility.yul\":20905:21133   */\n      pop\n      jump\t// out\n        /* \"#utility.yul\":21139:21505   */\n    tag_493:\n        /* \"#utility.yul\":21281:21284   */\n      0x00\n        /* \"#utility.yul\":21302:21369   */\n      tag_711\n        /* \"#utility.yul\":21366:21368   */\n      0x29\n        /* \"#utility.yul\":21361:21364   */\n      dup4\n        /* \"#utility.yul\":21302:21369   */\n      tag_438\n      jump\t// in\n    tag_711:\n        /* \"#utility.yul\":21295:21369   */\n      swap2\n      pop\n        /* \"#utility.yul\":21378:21471   */\n      tag_712\n        /* \"#utility.yul\":21467:21470   */\n      dup3\n        /* \"#utility.yul\":21378:21471   */\n      tag_492\n      jump\t// in\n    tag_712:\n        /* \"#utility.yul\":21496:21498   */\n      0x40\n        /* \"#utility.yul\":21491:21494   */\n      dup3\n        /* \"#utility.yul\":21487:21499   */\n      add\n        /* \"#utility.yul\":21480:21499   */\n      swap1\n      pop\n        /* \"#utility.yul\":21139:21505   */\n      swap2\n      swap1\n      pop\n      jump\t// out\n        /* \"#utility.yul\":21511:21930   */\n    tag_301:\n        /* \"#utility.yul\":21677:21681   */\n      0x00\n        /* \"#utility.yul\":21715:21717   */\n      0x20\n        /* \"#utility.yul\":21704:21713   */\n      dup3\n        /* \"#utility.yul\":21700:21718   */\n      add\n        /* \"#utility.yul\":21692:21718   */\n      swap1\n      pop\n        /* \"#utility.yul\":21764:21773   */\n      dup2\n        /* \"#utility.yul\":21758:21762   */\n      dup2\n        /* \"#utility.yul\":21754:21774   */\n      sub\n        /* \"#utility.yul\":21750:21751   */\n      0x00\n        /* \"#utility.yul\":21739:21748   */\n      dup4\n        /* \"#utility.yul\":21735:21752   */\n      add\n        /* \"#utility.yul\":21728:21775   */\n      mstore\n        /* \"#utility.yul\":21792:21923   */\n      tag_714\n        /* \"#utility.yul\":21918:21922   */\n      dup2\n        /* \"#utility.yul\":21792:21923   */\n      tag_493\n      jump\t// in\n    tag_714:\n        /* \"#utility.yul\":21784:21923   */\n      swap1\n      pop\n        /* \"#utility.yul\":21511:21930   */\n      swap2\n      swap1\n      pop\n      jump\t// out\n        /* \"#utility.yul\":21936:22127   */\n    tag_328:\n        /* \"#utility.yul\":21976:21980   */\n      0x00\n        /* \"#utility.yul\":21996:22016   */\n      tag_716\n        /* \"#utility.yul\":22014:22015   */\n      dup3\n        /* \"#utility.yul\":21996:22016   */\n      tag_449\n      jump\t// in\n    tag_716:\n        /* \"#utility.yul\":21991:22016   */\n      swap2\n      pop\n        /* \"#utility.yul\":22030:22050   */\n      tag_717\n        /* \"#utility.yul\":22048:22049   */\n      dup4\n        /* \"#utility.yul\":22030:22050   */\n      tag_449\n      jump\t// in\n    tag_717:\n        /* \"#utility.yul\":22025:22050   */\n      swap3\n      pop\n        /* \"#utility.yul\":22069:22070   */\n      dup3\n        /* \"#utility.yul\":22066:22067   */\n      dup3\n        /* \"#utility.yul\":22063:22071   */\n      lt\n        /* \"#utility.yul\":22060:22094   */\n      iszero\n      tag_718\n      jumpi\n        /* \"#utility.yul\":22074:22092   */\n      tag_719\n      tag_482\n      jump\t// in\n    tag_719:\n        /* \"#utility.yul\":22060:22094   */\n    tag_718:\n        /* \"#utility.yul\":22119:22120   */\n      dup3\n        /* \"#utility.yul\":22116:22117   */\n      dup3\n        /* \"#utility.yul\":22112:22121   */\n      sub\n        /* \"#utility.yul\":22104:22121   */\n      swap1\n      pop\n        /* \"#utility.yul\":21936:22127   */\n      swap3\n      swap2\n      pop\n      pop\n      jump\t// out\n        /* \"#utility.yul\":22133:22362   */\n    tag_494:\n        /* \"#utility.yul\":22273:22307   */\n      0x416d6f756e74206d757374206265206c657373207468616e20746f74616c2072\n        /* \"#utility.yul\":22269:22270   */\n      0x00\n        /* \"#utility.yul\":22261:22267   */\n      dup3\n        /* \"#utility.yul\":22257:22271   */\n      add\n        /* \"#utility.yul\":22250:22308   */\n      mstore\n        /* \"#utility.yul\":22342:22354   */\n      0x65666c656374696f6e7300000000000000000000000000000000000000000000\n        /* \"#utility.yul\":22337:22339   */\n      0x20\n        /* \"#utility.yul\":22329:22335   */\n      dup3\n        /* \"#utility.yul\":22325:22340   */\n      add\n        /* \"#utility.yul\":22318:22355   */\n      mstore\n        /* \"#utility.yul\":22133:22362   */\n      pop\n      jump\t// out\n        /* \"#utility.yul\":22368:22734   */\n    tag_495:\n        /* \"#utility.yul\":22510:22513   */\n      0x00\n        /* \"#utility.yul\":22531:22598   */\n      tag_722\n        /* \"#utility.yul\":22595:22597   */\n      0x2a\n        /* \"#utility.yul\":22590:22593   */\n      dup4\n        /* \"#utility.yul\":22531:22598   */\n      tag_438\n      jump\t// in\n    tag_722:\n        /* \"#utility.yul\":22524:22598   */\n      swap2\n      pop\n        /* \"#utility.yul\":22607:22700   */\n      tag_723\n        /* \"#utility.yul\":22696:22699   */\n      dup3\n        /* \"#utility.yul\":22607:22700   */\n      tag_494\n      jump\t// in\n    tag_723:\n        /* \"#utility.yul\":22725:22727   */\n      0x40\n        /* \"#utility.yul\":22720:22723   */\n      dup3\n        /* \"#utility.yul\":22716:22728   */\n      add\n        /* \"#utility.yul\":22709:22728   */\n      swap1\n      pop\n        /* \"#utility.yul\":22368:22734   */\n      swap2\n      swap1\n      pop\n      jump\t// out\n        /* \"#utility.yul\":22740:23159   */\n    tag_340:\n        /* \"#utility.yul\":22906:22910   */\n      0x00\n        /* \"#utility.yul\":22944:22946   */\n      0x20\n        /* \"#utility.yul\":22933:22942   */\n      dup3\n        /* \"#utility.yul\":22929:22947   */\n      add\n        /* \"#utility.yul\":22921:22947   */\n      swap1\n      pop\n        /* \"#utility.yul\":22993:23002   */\n      dup2\n        /* \"#utility.yul\":22987:22991   */\n      dup2\n        /* \"#utility.yul\":22983:23003   */\n      sub\n        /* \"#utility.yul\":22979:22980   */\n      0x00\n        /* \"#utility.yul\":22968:22977   */\n      dup4\n        /* \"#utility.yul\":22964:22981   */\n      add\n        /* \"#utility.yul\":22957:23004   */\n      mstore\n        /* \"#utility.yul\":23021:23152   */\n      tag_725\n        /* \"#utility.yul\":23147:23151   */\n      dup2\n        /* \"#utility.yul\":23021:23152   */\n      tag_495\n      jump\t// in\n    tag_725:\n        /* \"#utility.yul\":23013:23152   */\n      swap1\n      pop\n        /* \"#utility.yul\":22740:23159   */\n      swap2\n      swap1\n      pop\n      jump\t// out\n        /* \"#utility.yul\":23165:23345   */\n    tag_348:\n        /* \"#utility.yul\":23213:23290   */\n      0x4e487b7100000000000000000000000000000000000000000000000000000000\n        /* \"#utility.yul\":23210:23211   */\n      0x00\n        /* \"#utility.yul\":23203:23291   */\n      mstore\n        /* \"#utility.yul\":23310:23314   */\n      0x41\n        /* \"#utility.yul\":23307:23308   */\n      0x04\n        /* \"#utility.yul\":23300:23315   */\n      mstore\n        /* \"#utility.yul\":23334:23338   */\n      0x24\n        /* \"#utility.yul\":23331:23332   */\n      0x00\n        /* \"#utility.yul\":23324:23339   */\n      revert\n        /* \"#utility.yul\":23351:23494   */\n    tag_496:\n        /* \"#utility.yul\":23408:23413   */\n      0x00\n        /* \"#utility.yul\":23439:23445   */\n      dup2\n        /* \"#utility.yul\":23433:23446   */\n      mload\n        /* \"#utility.yul\":23424:23446   */\n      swap1\n      pop\n        /* \"#utility.yul\":23455:23488   */\n      tag_728\n        /* \"#utility.yul\":23482:23487   */\n      dup2\n        /* \"#utility.yul\":23455:23488   */\n      tag_447\n      jump\t// in\n    tag_728:\n        /* \"#utility.yul\":23351:23494   */\n      swap3\n      swap2\n      pop\n      pop\n      jump\t// out\n        /* \"#utility.yul\":23500:23851   */\n    tag_355:\n        /* \"#utility.yul\":23570:23576   */\n      0x00\n        /* \"#utility.yul\":23619:23621   */\n      0x20\n        /* \"#utility.yul\":23607:23616   */\n      dup3\n        /* \"#utility.yul\":23598:23605   */\n      dup5\n        /* \"#utility.yul\":23594:23617   */\n      sub\n        /* \"#utility.yul\":23590:23622   */\n      slt\n        /* \"#utility.yul\":23587:23706   */\n      iszero\n      tag_730\n      jumpi\n        /* \"#utility.yul\":23625:23704   */\n      tag_731\n      tag_443\n      jump\t// in\n    tag_731:\n        /* \"#utility.yul\":23587:23706   */\n    tag_730:\n        /* \"#utility.yul\":23745:23746   */\n      0x00\n        /* \"#utility.yul\":23770:23834   */\n      tag_732\n        /* \"#utility.yul\":23826:23833   */\n      dup5\n        /* \"#utility.yul\":23817:23823   */\n      dup3\n        /* \"#utility.yul\":23806:23815   */\n      dup6\n        /* \"#utility.yul\":23802:23824   */\n      add\n        /* \"#utility.yul\":23770:23834   */\n      tag_496\n      jump\t// in\n    tag_732:\n        /* \"#utility.yul\":23760:23834   */\n      swap2\n      pop\n        /* \"#utility.yul\":23716:23844   */\n      pop\n        /* \"#utility.yul\":23500:23851   */\n      swap3\n      swap2\n      pop\n      pop\n      jump\t// out\n        /* \"#utility.yul\":23857:23942   */\n    tag_497:\n        /* \"#utility.yul\":23902:23909   */\n      0x00\n        /* \"#utility.yul\":23931:23936   */\n      dup2\n        /* \"#utility.yul\":23920:23936   */\n      swap1\n      pop\n        /* \"#utility.yul\":23857:23942   */\n      swap2\n      swap1\n      pop\n      jump\t// out\n        /* \"#utility.yul\":23948:24106   */\n    tag_498:\n        /* \"#utility.yul\":24006:24015   */\n      0x00\n        /* \"#utility.yul\":24039:24100   */\n      tag_735\n        /* \"#utility.yul\":24057:24099   */\n      tag_736\n        /* \"#utility.yul\":24066:24098   */\n      tag_737\n        /* \"#utility.yul\":24092:24097   */\n      dup5\n        /* \"#utility.yul\":24066:24098   */\n      tag_497\n      jump\t// in\n    tag_737:\n        /* \"#utility.yul\":24057:24099   */\n      tag_454\n      jump\t// in\n    tag_736:\n        /* \"#utility.yul\":24039:24100   */\n      tag_449\n      jump\t// in\n    tag_735:\n        /* \"#utility.yul\":24026:24100   */\n      swap1\n      pop\n        /* \"#utility.yul\":23948:24106   */\n      swap2\n      swap1\n      pop\n      jump\t// out\n        /* \"#utility.yul\":24112:24259   */\n    tag_499:\n        /* \"#utility.yul\":24207:24252   */\n      tag_739\n        /* \"#utility.yul\":24246:24251   */\n      dup2\n        /* \"#utility.yul\":24207:24252   */\n      tag_498\n      jump\t// in\n    tag_739:\n        /* \"#utility.yul\":24202:24205   */\n      dup3\n        /* \"#utility.yul\":24195:24253   */\n      mstore\n        /* \"#utility.yul\":24112:24259   */\n      pop\n      pop\n      jump\t// out\n        /* \"#utility.yul\":24265:24379   */\n    tag_500:\n        /* \"#utility.yul\":24332:24338   */\n      0x00\n        /* \"#utility.yul\":24366:24371   */\n      dup2\n        /* \"#utility.yul\":24360:24372   */\n      mload\n        /* \"#utility.yul\":24350:24372   */\n      swap1\n      pop\n        /* \"#utility.yul\":24265:24379   */\n      swap2\n      swap1\n      pop\n      jump\t// out\n        /* \"#utility.yul\":24385:24569   */\n    tag_501:\n        /* \"#utility.yul\":24484:24495   */\n      0x00\n        /* \"#utility.yul\":24518:24524   */\n      dup3\n        /* \"#utility.yul\":24513:24516   */\n      dup3\n        /* \"#utility.yul\":24506:24525   */\n      mstore\n        /* \"#utility.yul\":24558:24562   */\n      0x20\n        /* \"#utility.yul\":24553:24556   */\n      dup3\n        /* \"#utility.yul\":24549:24563   */\n      add\n        /* \"#utility.yul\":24534:24563   */\n      swap1\n      pop\n        /* \"#utility.yul\":24385:24569   */\n      swap3\n      swap2\n      pop\n      pop\n      jump\t// out\n        /* \"#utility.yul\":24575:24707   */\n    tag_502:\n        /* \"#utility.yul\":24642:24646   */\n      0x00\n        /* \"#utility.yul\":24665:24668   */\n      dup2\n        /* \"#utility.yul\":24657:24668   */\n      swap1\n      pop\n        /* \"#utility.yul\":24695:24699   */\n      0x20\n        /* \"#utility.yul\":24690:24693   */\n      dup3\n        /* \"#utility.yul\":24686:24700   */\n      add\n        /* \"#utility.yul\":24678:24700   */\n      swap1\n      pop\n        /* \"#utility.yul\":24575:24707   */\n      swap2\n      swap1\n      pop\n      jump\t// out\n        /* \"#utility.yul\":24713:24821   */\n    tag_503:\n        /* \"#utility.yul\":24790:24814   */\n      tag_744\n        /* \"#utility.yul\":24808:24813   */\n      dup2\n        /* \"#utility.yul\":24790:24814   */\n      tag_446\n      jump\t// in\n    tag_744:\n        /* \"#utility.yul\":24785:24788   */\n      dup3\n        /* \"#utility.yul\":24778:24815   */\n      mstore\n        /* \"#utility.yul\":24713:24821   */\n      pop\n      pop\n      jump\t// out\n        /* \"#utility.yul\":24827:25006   */\n    tag_504:\n        /* \"#utility.yul\":24896:24906   */\n      0x00\n        /* \"#utility.yul\":24917:24963   */\n      tag_746\n        /* \"#utility.yul\":24959:24962   */\n      dup4\n        /* \"#utility.yul\":24951:24957   */\n      dup4\n        /* \"#utility.yul\":24917:24963   */\n      tag_503\n      jump\t// in\n    tag_746:\n        /* \"#utility.yul\":24995:24999   */\n      0x20\n        /* \"#utility.yul\":24990:24993   */\n      dup4\n        /* \"#utility.yul\":24986:25000   */\n      add\n        /* \"#utility.yul\":24972:25000   */\n      swap1\n      pop\n        /* \"#utility.yul\":24827:25006   */\n      swap3\n      swap2\n      pop\n      pop\n      jump\t// out\n        /* \"#utility.yul\":25012:25125   */\n    tag_505:\n        /* \"#utility.yul\":25082:25086   */\n      0x00\n        /* \"#utility.yul\":25114:25118   */\n      0x20\n        /* \"#utility.yul\":25109:25112   */\n      dup3\n        /* \"#utility.yul\":25105:25119   */\n      add\n        /* \"#utility.yul\":25097:25119   */\n      swap1\n      pop\n        /* \"#utility.yul\":25012:25125   */\n      swap2\n      swap1\n      pop\n      jump\t// out\n        /* \"#utility.yul\":25161:25893   */\n    tag_506:\n        /* \"#utility.yul\":25280:25283   */\n      0x00\n        /* \"#utility.yul\":25309:25363   */\n      tag_749\n        /* \"#utility.yul\":25357:25362   */\n      dup3\n        /* \"#utility.yul\":25309:25363   */\n      tag_500\n      jump\t// in\n    tag_749:\n        /* \"#utility.yul\":25379:25465   */\n      tag_750\n        /* \"#utility.yul\":25458:25464   */\n      dup2\n        /* \"#utility.yul\":25453:25456   */\n      dup6\n        /* \"#utility.yul\":25379:25465   */\n      tag_501\n      jump\t// in\n    tag_750:\n        /* \"#utility.yul\":25372:25465   */\n      swap4\n      pop\n        /* \"#utility.yul\":25489:25545   */\n      tag_751\n        /* \"#utility.yul\":25539:25544   */\n      dup4\n        /* \"#utility.yul\":25489:25545   */\n      tag_502\n      jump\t// in\n    tag_751:\n        /* \"#utility.yul\":25568:25575   */\n      dup1\n        /* \"#utility.yul\":25599:25600   */\n      0x00\n        /* \"#utility.yul\":25584:25868   */\n    tag_752:\n        /* \"#utility.yul\":25609:25615   */\n      dup4\n        /* \"#utility.yul\":25606:25607   */\n      dup2\n        /* \"#utility.yul\":25603:25616   */\n      lt\n        /* \"#utility.yul\":25584:25868   */\n      iszero\n      tag_754\n      jumpi\n        /* \"#utility.yul\":25685:25691   */\n      dup2\n        /* \"#utility.yul\":25679:25692   */\n      mload\n        /* \"#utility.yul\":25712:25775   */\n      tag_755\n        /* \"#utility.yul\":25771:25774   */\n      dup9\n        /* \"#utility.yul\":25756:25769   */\n      dup3\n        /* \"#utility.yul\":25712:25775   */\n      tag_504\n      jump\t// in\n    tag_755:\n        /* \"#utility.yul\":25705:25775   */\n      swap8\n      pop\n        /* \"#utility.yul\":25798:25858   */\n      tag_756\n        /* \"#utility.yul\":25851:25857   */\n      dup4\n        /* \"#utility.yul\":25798:25858   */\n      tag_505\n      jump\t// in\n    tag_756:\n        /* \"#utility.yul\":25788:25858   */\n      swap3\n      pop\n        /* \"#utility.yul\":25644:25868   */\n      pop\n        /* \"#utility.yul\":25631:25632   */\n      0x01\n        /* \"#utility.yul\":25628:25629   */\n      dup2\n        /* \"#utility.yul\":25624:25633   */\n      add\n        /* \"#utility.yul\":25619:25633   */\n      swap1\n      pop\n        /* \"#utility.yul\":25584:25868   */\n      jump(tag_752)\n    tag_754:\n        /* \"#utility.yul\":25588:25602   */\n      pop\n        /* \"#utility.yul\":25884:25887   */\n      dup6\n        /* \"#utility.yul\":25877:25887   */\n      swap4\n      pop\n        /* \"#utility.yul\":25285:25893   */\n      pop\n      pop\n      pop\n        /* \"#utility.yul\":25161:25893   */\n      swap3\n      swap2\n      pop\n      pop\n      jump\t// out\n        /* \"#utility.yul\":25899:26730   */\n    tag_360:\n        /* \"#utility.yul\":26162:26166   */\n      0x00\n        /* \"#utility.yul\":26200:26203   */\n      0xa0\n        /* \"#utility.yul\":26189:26198   */\n      dup3\n        /* \"#utility.yul\":26185:26204   */\n      add\n        /* \"#utility.yul\":26177:26204   */\n      swap1\n      pop\n        /* \"#utility.yul\":26214:26285   */\n      tag_758\n        /* \"#utility.yul\":26282:26283   */\n      0x00\n        /* \"#utility.yul\":26271:26280   */\n      dup4\n        /* \"#utility.yul\":26267:26284   */\n      add\n        /* \"#utility.yul\":26258:26264   */\n      dup9\n        /* \"#utility.yul\":26214:26285   */\n      tag_459\n      jump\t// in\n    tag_758:\n        /* \"#utility.yul\":26295:26375   */\n      tag_759\n        /* \"#utility.yul\":26371:26373   */\n      0x20\n        /* \"#utility.yul\":26360:26369   */\n      dup4\n        /* \"#utility.yul\":26356:26374   */\n      add\n        /* \"#utility.yul\":26347:26353   */\n      dup8\n        /* \"#utility.yul\":26295:26375   */\n      tag_499\n      jump\t// in\n    tag_759:\n        /* \"#utility.yul\":26422:26431   */\n      dup2\n        /* \"#utility.yul\":26416:26420   */\n      dup2\n        /* \"#utility.yul\":26412:26432   */\n      sub\n        /* \"#utility.yul\":26407:26409   */\n      0x40\n        /* \"#utility.yul\":26396:26405   */\n      dup4\n        /* \"#utility.yul\":26392:26410   */\n      add\n        /* \"#utility.yul\":26385:26433   */\n      mstore\n        /* \"#utility.yul\":26450:26558   */\n      tag_760\n        /* \"#utility.yul\":26553:26557   */\n      dup2\n        /* \"#utility.yul\":26544:26550   */\n      dup7\n        /* \"#utility.yul\":26450:26558   */\n      tag_506\n      jump\t// in\n    tag_760:\n        /* \"#utility.yul\":26442:26558   */\n      swap1\n      pop\n        /* \"#utility.yul\":26568:26640   */\n      tag_761\n        /* \"#utility.yul\":26636:26638   */\n      0x60\n        /* \"#utility.yul\":26625:26634   */\n      dup4\n        /* \"#utility.yul\":26621:26639   */\n      add\n        /* \"#utility.yul\":26612:26618   */\n      dup6\n        /* \"#utility.yul\":26568:26640   */\n      tag_462\n      jump\t// in\n    tag_761:\n        /* \"#utility.yul\":26650:26723   */\n      tag_762\n        /* \"#utility.yul\":26718:26721   */\n      0x80\n        /* \"#utility.yul\":26707:26716   */\n      dup4\n        /* \"#utility.yul\":26703:26722   */\n      add\n        /* \"#utility.yul\":26694:26700   */\n      dup5\n        /* \"#utility.yul\":26650:26723   */\n      tag_459\n      jump\t// in\n    tag_762:\n        /* \"#utility.yul\":25899:26730   */\n      swap7\n      swap6\n      pop\n      pop\n      pop\n      pop\n      pop\n      pop\n      jump\t// out\n        /* \"#utility.yul\":26736:26916   */\n    tag_507:\n        /* \"#utility.yul\":26784:26861   */\n      0x4e487b7100000000000000000000000000000000000000000000000000000000\n        /* \"#utility.yul\":26781:26782   */\n      0x00\n        /* \"#utility.yul\":26774:26862   */\n      mstore\n        /* \"#utility.yul\":26881:26885   */\n      0x12\n        /* \"#utility.yul\":26878:26879   */\n      0x04\n        /* \"#utility.yul\":26871:26886   */\n      mstore\n        /* \"#utility.yul\":26905:26909   */\n      0x24\n        /* \"#utility.yul\":26902:26903   */\n      0x00\n        /* \"#utility.yul\":26895:26910   */\n      revert\n        /* \"#utility.yul\":26922:27107   */\n    tag_390:\n        /* \"#utility.yul\":26962:26963   */\n      0x00\n        /* \"#utility.yul\":26979:26999   */\n      tag_765\n        /* \"#utility.yul\":26997:26998   */\n      dup3\n        /* \"#utility.yul\":26979:26999   */\n      tag_449\n      jump\t// in\n    tag_765:\n        /* \"#utility.yul\":26974:26999   */\n      swap2\n      pop\n        /* \"#utility.yul\":27013:27033   */\n      tag_766\n        /* \"#utility.yul\":27031:27032   */\n      dup4\n        /* \"#utility.yul\":27013:27033   */\n      tag_449\n      jump\t// in\n    tag_766:\n        /* \"#utility.yul\":27008:27033   */\n      swap3\n      pop\n        /* \"#utility.yul\":27052:27053   */\n      dup3\n        /* \"#utility.yul\":27042:27077   */\n      tag_767\n      jumpi\n        /* \"#utility.yul\":27057:27075   */\n      tag_768\n      tag_507\n      jump\t// in\n    tag_768:\n        /* \"#utility.yul\":27042:27077   */\n    tag_767:\n        /* \"#utility.yul\":27099:27100   */\n      dup3\n        /* \"#utility.yul\":27096:27097   */\n      dup3\n        /* \"#utility.yul\":27092:27101   */\n      div\n        /* \"#utility.yul\":27087:27101   */\n      swap1\n      pop\n        /* \"#utility.yul\":26922:27107   */\n      swap3\n      swap2\n      pop\n      pop\n      jump\t// out\n        /* \"#utility.yul\":27113:27418   */\n    tag_404:\n        /* \"#utility.yul\":27153:27156   */\n      0x00\n        /* \"#utility.yul\":27172:27192   */\n      tag_770\n        /* \"#utility.yul\":27190:27191   */\n      dup3\n        /* \"#utility.yul\":27172:27192   */\n      tag_449\n      jump\t// in\n    tag_770:\n        /* \"#utility.yul\":27167:27192   */\n      swap2\n      pop\n        /* \"#utility.yul\":27206:27226   */\n      tag_771\n        /* \"#utility.yul\":27224:27225   */\n      dup4\n        /* \"#utility.yul\":27206:27226   */\n      tag_449\n      jump\t// in\n    tag_771:\n        /* \"#utility.yul\":27201:27226   */\n      swap3\n      pop\n        /* \"#utility.yul\":27360:27361   */\n      dup3\n        /* \"#utility.yul\":27292:27358   */\n      0xffffffffffffffffffffffffffffffffffffffffffffffffffffffffffffffff\n        /* \"#utility.yul\":27288:27362   */\n      sub\n        /* \"#utility.yul\":27285:27286   */\n      dup3\n        /* \"#utility.yul\":27282:27363   */\n      gt\n        /* \"#utility.yul\":27279:27386   */\n      iszero\n      tag_772\n      jumpi\n        /* \"#utility.yul\":27366:27384   */\n      tag_773\n      tag_482\n      jump\t// in\n    tag_773:\n        /* \"#utility.yul\":27279:27386   */\n    tag_772:\n        /* \"#utility.yul\":27410:27411   */\n      dup3\n        /* \"#utility.yul\":27407:27408   */\n      dup3\n        /* \"#utility.yul\":27403:27412   */\n      add\n        /* \"#utility.yul\":27396:27412   */\n      swap1\n      pop\n        /* \"#utility.yul\":27113:27418   */\n      swap3\n      swap2\n      pop\n      pop\n      jump\t// out\n        /* \"#utility.yul\":27424:27601   */\n    tag_508:\n        /* \"#utility.yul\":27564:27593   */\n      0x536166654d6174683a206164646974696f6e206f766572666c6f770000000000\n        /* \"#utility.yul\":27560:27561   */\n      0x00\n        /* \"#utility.yul\":27552:27558   */\n      dup3\n        /* \"#utility.yul\":27548:27562   */\n      add\n        /* \"#utility.yul\":27541:27594   */\n      mstore\n        /* \"#utility.yul\":27424:27601   */\n      pop\n      jump\t// out\n        /* \"#utility.yul\":27607:27973   */\n    tag_509:\n        /* \"#utility.yul\":27749:27752   */\n      0x00\n        /* \"#utility.yul\":27770:27837   */\n      tag_776\n        /* \"#utility.yul\":27834:27836   */\n      0x1b\n        /* \"#utility.yul\":27829:27832   */\n      dup4\n        /* \"#utility.yul\":27770:27837   */\n      tag_438\n      jump\t// in\n    tag_776:\n        /* \"#utility.yul\":27763:27837   */\n      swap2\n      pop\n        /* \"#utility.yul\":27846:27939   */\n      tag_777\n        /* \"#utility.yul\":27935:27938   */\n      dup3\n        /* \"#utility.yul\":27846:27939   */\n      tag_508\n      jump\t// in\n    tag_777:\n        /* \"#utility.yul\":27964:27966   */\n      0x20\n        /* \"#utility.yul\":27959:27962   */\n      dup3\n        /* \"#utility.yul\":27955:27967   */\n      add\n        /* \"#utility.yul\":27948:27967   */\n      swap1\n      pop\n        /* \"#utility.yul\":27607:27973   */\n      swap2\n      swap1\n      pop\n      jump\t// out\n        /* \"#utility.yul\":27979:28398   */\n    tag_407:\n        /* \"#utility.yul\":28145:28149   */\n      0x00\n        /* \"#utility.yul\":28183:28185   */\n      0x20\n        /* \"#utility.yul\":28172:28181   */\n      dup3\n        /* \"#utility.yul\":28168:28186   */\n      add\n        /* \"#utility.yul\":28160:28186   */\n      swap1\n      pop\n        /* \"#utility.yul\":28232:28241   */\n      dup2\n        /* \"#utility.yul\":28226:28230   */\n      dup2\n        /* \"#utility.yul\":28222:28242   */\n      sub\n        /* \"#utility.yul\":28218:28219   */\n      0x00\n        /* \"#utility.yul\":28207:28216   */\n      dup4\n        /* \"#utility.yul\":28203:28220   */\n      add\n        /* \"#utility.yul\":28196:28243   */\n      mstore\n        /* \"#utility.yul\":28260:28391   */\n      tag_779\n        /* \"#utility.yul\":28386:28390   */\n      dup2\n        /* \"#utility.yul\":28260:28391   */\n      tag_509\n      jump\t// in\n    tag_779:\n        /* \"#utility.yul\":28252:28391   */\n      swap1\n      pop\n        /* \"#utility.yul\":27979:28398   */\n      swap2\n      swap1\n      pop\n      jump\t// out\n        /* \"#utility.yul\":28404:28752   */\n    tag_432:\n        /* \"#utility.yul\":28444:28451   */\n      0x00\n        /* \"#utility.yul\":28467:28487   */\n      tag_781\n        /* \"#utility.yul\":28485:28486   */\n      dup3\n        /* \"#utility.yul\":28467:28487   */\n      tag_449\n      jump\t// in\n    tag_781:\n        /* \"#utility.yul\":28462:28487   */\n      swap2\n      pop\n        /* \"#utility.yul\":28501:28521   */\n      tag_782\n        /* \"#utility.yul\":28519:28520   */\n      dup4\n        /* \"#utility.yul\":28501:28521   */\n      tag_449\n      jump\t// in\n    tag_782:\n        /* \"#utility.yul\":28496:28521   */\n      swap3\n      pop\n        /* \"#utility.yul\":28689:28690   */\n      dup2\n        /* \"#utility.yul\":28621:28687   */\n      0xffffffffffffffffffffffffffffffffffffffffffffffffffffffffffffffff\n        /* \"#utility.yul\":28617:28691   */\n      div\n        /* \"#utility.yul\":28614:28615   */\n      dup4\n        /* \"#utility.yul\":28611:28692   */\n      gt\n        /* \"#utility.yul\":28606:28607   */\n      dup3\n        /* \"#utility.yul\":28599:28608   */\n      iszero\n        /* \"#utility.yul\":28592:28609   */\n      iszero\n        /* \"#utility.yul\":28588:28693   */\n      and\n        /* \"#utility.yul\":28585:28716   */\n      iszero\n      tag_783\n      jumpi\n        /* \"#utility.yul\":28696:28714   */\n      tag_784\n      tag_482\n      jump\t// in\n    tag_784:\n        /* \"#utility.yul\":28585:28716   */\n    tag_783:\n        /* \"#utility.yul\":28744:28745   */\n      dup3\n        /* \"#utility.yul\":28741:28742   */\n      dup3\n        /* \"#utility.yul\":28737:28746   */\n      mul\n        /* \"#utility.yul\":28726:28746   */\n      swap1\n      pop\n        /* \"#utility.yul\":28404:28752   */\n      swap3\n      swap2\n      pop\n      pop\n      jump\t// out\n        /* \"#utility.yul\":28758:28978   */\n    tag_510:\n        /* \"#utility.yul\":28898:28932   */\n      0x536166654d6174683a206d756c7469706c69636174696f6e206f766572666c6f\n        /* \"#utility.yul\":28894:28895   */\n      0x00\n        /* \"#utility.yul\":28886:28892   */\n      dup3\n        /* \"#utility.yul\":28882:28896   */\n      add\n        /* \"#utility.yul\":28875:28933   */\n      mstore\n        /* \"#utility.yul\":28967:28970   */\n      0x7700000000000000000000000000000000000000000000000000000000000000\n        /* \"#utility.yul\":28962:28964   */\n      0x20\n        /* \"#utility.yul\":28954:28960   */\n      dup3\n        /* \"#utility.yul\":28950:28965   */\n      add\n        /* \"#utility.yul\":28943:28971   */\n      mstore\n        /* \"#utility.yul\":28758:28978   */\n      pop\n      jump\t// out\n        /* \"#utility.yul\":28984:29350   */\n    tag_511:\n        /* \"#utility.yul\":29126:29129   */\n      0x00\n        /* \"#utility.yul\":29147:29214   */\n      tag_787\n        /* \"#utility.yul\":29211:29213   */\n      0x21\n        /* \"#utility.yul\":29206:29209   */\n      dup4\n        /* \"#utility.yul\":29147:29214   */\n      tag_438\n      jump\t// in\n    tag_787:\n        /* \"#utility.yul\":29140:29214   */\n      swap2\n      pop\n        /* \"#utility.yul\":29223:29316   */\n      tag_788\n        /* \"#utility.yul\":29312:29315   */\n      dup3\n        /* \"#utility.yul\":29223:29316   */\n      tag_510\n      jump\t// in\n    tag_788:\n        /* \"#utility.yul\":29341:29343   */\n      0x40\n        /* \"#utility.yul\":29336:29339   */\n      dup3\n        /* \"#utility.yul\":29332:29344   */\n      add\n        /* \"#utility.yul\":29325:29344   */\n      swap1\n      pop\n        /* \"#utility.yul\":28984:29350   */\n      swap2\n      swap1\n      pop\n      jump\t// out\n        /* \"#utility.yul\":29356:29775   */\n    tag_436:\n        /* \"#utility.yul\":29522:29526   */\n      0x00\n        /* \"#utility.yul\":29560:29562   */\n      0x20\n        /* \"#utility.yul\":29549:29558   */\n      dup3\n        /* \"#utility.yul\":29545:29563   */\n      add\n        /* \"#utility.yul\":29537:29563   */\n      swap1\n      pop\n        /* \"#utility.yul\":29609:29618   */\n      dup2\n        /* \"#utility.yul\":29603:29607   */\n      dup2\n        /* \"#utility.yul\":29599:29619   */\n      sub\n        /* \"#utility.yul\":29595:29596   */\n      0x00\n        /* \"#utility.yul\":29584:29593   */\n      dup4\n        /* \"#utility.yul\":29580:29597   */\n      add\n        /* \"#utility.yul\":29573:29620   */\n      mstore\n        /* \"#utility.yul\":29637:29768   */\n      tag_790\n        /* \"#utility.yul\":29763:29767   */\n      dup2\n        /* \"#utility.yul\":29637:29768   */\n      tag_511\n      jump\t// in\n    tag_790:\n        /* \"#utility.yul\":29629:29768   */\n      swap1\n      pop\n        /* \"#utility.yul\":29356:29775   */\n      swap2\n      swap1\n      pop\n      jump\t// out\n    stop\n    data_974d1b4421da69cc60b481194f0dad36a5bb4e23da810da7a7fb30cdba178330 45524332303a207472616e7366657220616d6f756e74206578636565647320616c6c6f77616e6365\n\n    auxdata: 0xa264697066735822122081ec5ec3c0802fe987334c97da565b410e3de66c49bd5979933ae33579d2d62964736f6c634300080d0033\n}\n",
				"bytecode": {
					"linkReferences": {},
					"object": "6080604052670de0b6b3a76400006000196200001c91906200072b565b6000196200002b919062000792565b600655600160085560036009556001600a556003600b55738492cbd894686d7e98214541903c7ba6f94928d6600e60006101000a81548173ffffffffffffffffffffffffffffffffffffffff021916908373ffffffffffffffffffffffffffffffffffffffff16021790555073a4ed7aa4ef5deb0a63e97d9cb77445ae553feb1d600f60006101000a81548173ffffffffffffffffffffffffffffffffffffffff021916908373ffffffffffffffffffffffffffffffffffffffff16021790555073e061915592536656a92b9fd59e46b19ef920692f601060006101000a81548173ffffffffffffffffffffffffffffffffffffffff021916908373ffffffffffffffffffffffffffffffffffffffff16021790555060006014806101000a81548160ff0219169083151502179055506001601460156101000a81548160ff0219169083151502179055503480156200018357600080fd5b50600062000196620006c160201b60201c565b9050806000806101000a81548173ffffffffffffffffffffffffffffffffffffffff021916908373ffffffffffffffffffffffffffffffffffffffff1602179055508073ffffffffffffffffffffffffffffffffffffffff16600073ffffffffffffffffffffffffffffffffffffffff167f8be0079c531659141344cd1fd0a4f28419497f9722a3daafe3b4186f6b6457e060405160405180910390a350600654600260006200024b620006c160201b60201c565b73ffffffffffffffffffffffffffffffffffffffff1673ffffffffffffffffffffffffffffffffffffffff168152602001908152602001600020819055506000739ac64cc6e4415144c455bd8e4837fea55603e5c3905080601160006101000a81548173ffffffffffffffffffffffffffffffffffffffff021916908373ffffffffffffffffffffffffffffffffffffffff1602179055508073ffffffffffffffffffffffffffffffffffffffff1663c45a01556040518163ffffffff1660e01b8152600401602060405180830381865afa1580156200032f573d6000803e3d6000fd5b505050506040513d601f19601f8201168201806040525081019062000355919062000837565b73ffffffffffffffffffffffffffffffffffffffff1663c9c65396308373ffffffffffffffffffffffffffffffffffffffff1663ad5c46486040518163ffffffff1660e01b8152600401602060405180830381865afa158015620003bd573d6000803e3d6000fd5b505050506040513d601f19601f82011682018060405250810190620003e3919062000837565b6040518363ffffffff1660e01b8152600401620004029291906200087a565b6020604051808303816000875af115801562000422573d6000803e3d6000fd5b505050506040513d601f19601f8201168201806040525081019062000448919062000837565b601460006101000a81548173ffffffffffffffffffffffffffffffffffffffff021916908373ffffffffffffffffffffffffffffffffffffffff1602179055506001600560006200049e620006c960201b60201c565b73ffffffffffffffffffffffffffffffffffffffff1673ffffffffffffffffffffffffffffffffffffffff16815260200190815260200160002060006101000a81548160ff0219169083151502179055506001600560003073ffffffffffffffffffffffffffffffffffffffff1673ffffffffffffffffffffffffffffffffffffffff16815260200190815260200160002060006101000a81548160ff021916908315150217905550600160056000600e60009054906101000a900473ffffffffffffffffffffffffffffffffffffffff1673ffffffffffffffffffffffffffffffffffffffff1673ffffffffffffffffffffffffffffffffffffffff16815260200190815260200160002060006101000a81548160ff021916908315150217905550600160056000600f60009054906101000a900473ffffffffffffffffffffffffffffffffffffffff1673ffffffffffffffffffffffffffffffffffffffff1673ffffffffffffffffffffffffffffffffffffffff16815260200190815260200160002060006101000a81548160ff0219169083151502179055506200064b620006c160201b60201c565b73ffffffffffffffffffffffffffffffffffffffff16600073ffffffffffffffffffffffffffffffffffffffff167fddf252ad1be2c89b69c2b068fc378daa952ba7f163c4a11628f55a4df523b3ef670de0b6b3a7640000604051620006b29190620008b8565b60405180910390a350620008d5565b600033905090565b60008060009054906101000a900473ffffffffffffffffffffffffffffffffffffffff16905090565b6000819050919050565b7f4e487b7100000000000000000000000000000000000000000000000000000000600052601260045260246000fd5b60006200073882620006f2565b91506200074583620006f2565b925082620007585762000757620006fc565b5b828206905092915050565b7f4e487b7100000000000000000000000000000000000000000000000000000000600052601160045260246000fd5b60006200079f82620006f2565b9150620007ac83620006f2565b925082821015620007c257620007c162000763565b5b828203905092915050565b600080fd5b600073ffffffffffffffffffffffffffffffffffffffff82169050919050565b6000620007ff82620007d2565b9050919050565b6200081181620007f2565b81146200081d57600080fd5b50565b600081519050620008318162000806565b92915050565b60006020828403121562000850576200084f620007cd565b5b6000620008608482850162000820565b91505092915050565b6200087481620007f2565b82525050565b600060408201905062000891600083018562000869565b620008a0602083018462000869565b9392505050565b620008b281620006f2565b82525050565b6000602082019050620008cf6000830184620008a7565b92915050565b613a9180620008e56000396000f3fe60806040526004361061016a5760003560e01c8063758dbe03116100d1578063aad5c0231161008a578063c5cc6b6a11610064578063c5cc6b6a146104eb578063dd62ed3e14610516578063e293d31614610553578063f2fde38b1461057c57610171565b8063aad5c02314610482578063c3c8cd80146104ab578063c492f046146104c257610171565b8063758dbe03146103865780638da5cb5b146103af57806395d89b41146103da578063a2a957bb14610405578063a6246d091461042e578063a9059cbb1461044557610171565b806349bd5a5e1161012357806349bd5a5e1461029c57806359d0f713146102c75780636d8aa8f8146102f25780636fc3eaec1461031b57806370a0823114610332578063715018a61461036f57610171565b806306fdde0314610176578063095ea7b3146101a15780631694505e146101de57806318160ddd1461020957806323b872dd14610234578063313ce5671461027157610171565b3661017157005b600080fd5b34801561018257600080fd5b5061018b6105a5565b6040516101989190612ad9565b60405180910390f35b3480156101ad57600080fd5b506101c860048036038101906101c39190612b99565b6105e2565b6040516101d59190612bf4565b60405180910390f35b3480156101ea57600080fd5b506101f3610600565b6040516102009190612c6e565b60405180910390f35b34801561021557600080fd5b5061021e610626565b60405161022b9190612c98565b60405180910390f35b34801561024057600080fd5b5061025b60048036038101906102569190612cb3565b610636565b6040516102689190612bf4565b60405180910390f35b34801561027d57600080fd5b5061028661070f565b6040516102939190612d22565b60405180910390f35b3480156102a857600080fd5b506102b1610718565b6040516102be9190612d4c565b60405180910390f35b3480156102d357600080fd5b506102dc61073e565b6040516102e99190612d88565b60405180910390f35b3480156102fe57600080fd5b5061031960048036038101906103149190612dcf565b610764565b005b34801561032757600080fd5b5061033061085c565b005b34801561033e57600080fd5b5061035960048036038101906103549190612dfc565b610971565b6040516103669190612c98565b60405180910390f35b34801561037b57600080fd5b506103846109c2565b005b34801561039257600080fd5b506103ad60048036038101906103a89190612e67565b610b15565b005b3480156103bb57600080fd5b506103c4610d2a565b6040516103d19190612d4c565b60405180910390f35b3480156103e657600080fd5b506103ef610d53565b6040516103fc9190612ad9565b60405180910390f35b34801561041157600080fd5b5061042c60048036038101906104279190612e94565b610d90565b005b34801561043a57600080fd5b50610443610f99565b005b34801561045157600080fd5b5061046c60048036038101906104679190612b99565b610fbc565b6040516104799190612bf4565b60405180910390f35b34801561048e57600080fd5b506104a960048036038101906104a49190612e67565b610fda565b005b3480156104b757600080fd5b506104c06111ef565b005b3480156104ce57600080fd5b506104e960048036038101906104e49190612f60565b61130c565b005b3480156104f757600080fd5b50610500611446565b60405161050d9190612d4c565b60405180910390f35b34801561052257600080fd5b5061053d60048036038101906105389190612fc0565b61146c565b60405161054a9190612c98565b60405180910390f35b34801561055f57600080fd5b5061057a60048036038101906105759190612cb3565b6114f3565b005b34801561058857600080fd5b506105a3600480360381019061059e9190612dfc565b6116b7565b005b60606040518060400160405280600a81526020017f576f726c64205374657000000000000000000000000000000000000000000000815250905090565b60006105f66105ef611809565b8484611811565b6001905092915050565b601160009054906101000a900473ffffffffffffffffffffffffffffffffffffffff1681565b6000670de0b6b3a7640000905090565b60006106438484846119da565b6107048461064f611809565b6106ff85604051806060016040528060288152602001613a3460289139600460008b73ffffffffffffffffffffffffffffffffffffffff1673ffffffffffffffffffffffffffffffffffffffff16815260200190815260200160002060006106b5611809565b73ffffffffffffffffffffffffffffffffffffffff1673ffffffffffffffffffffffffffffffffffffffff16815260200190815260200160002054611f4a9092919063ffffffff16565b611811565b600190509392505050565b60006009905090565b601460009054906101000a900473ffffffffffffffffffffffffffffffffffffffff1681565b601260009054906101000a900473ffffffffffffffffffffffffffffffffffffffff1681565b61076c611809565b73ffffffffffffffffffffffffffffffffffffffff1661078a610d2a565b73ffffffffffffffffffffffffffffffffffffffff16148061080057506107af611809565b73ffffffffffffffffffffffffffffffffffffffff16600e60009054906101000a900473ffffffffffffffffffffffffffffffffffffffff1673ffffffffffffffffffffffffffffffffffffffff16145b61083f576040517f08c379a00000000000000000000000000000000000000000000000000000000081526004016108369061304c565b60405180910390fd5b80601460156101000a81548160ff02191690831515021790555050565b600e60009054906101000a900473ffffffffffffffffffffffffffffffffffffffff1673ffffffffffffffffffffffffffffffffffffffff1661089d611809565b73ffffffffffffffffffffffffffffffffffffffff1614806109135750600f60009054906101000a900473ffffffffffffffffffffffffffffffffffffffff1673ffffffffffffffffffffffffffffffffffffffff166108fb611809565b73ffffffffffffffffffffffffffffffffffffffff16145b806109575750610921610d2a565b73ffffffffffffffffffffffffffffffffffffffff1661093f611809565b73ffffffffffffffffffffffffffffffffffffffff16145b61096057600080fd5b600047905061096e81611fae565b50565b60006109bb600260008473ffffffffffffffffffffffffffffffffffffffff1673ffffffffffffffffffffffffffffffffffffffff168152602001908152602001600020546120a9565b9050919050565b6109ca611809565b73ffffffffffffffffffffffffffffffffffffffff1660008054906101000a900473ffffffffffffffffffffffffffffffffffffffff1673ffffffffffffffffffffffffffffffffffffffff1614610a57576040517f08c379a0000000000000000000000000000000000000000000000000000000008152600401610a4e906130b8565b60405180910390fd5b600073ffffffffffffffffffffffffffffffffffffffff1660008054906101000a900473ffffffffffffffffffffffffffffffffffffffff1673ffffffffffffffffffffffffffffffffffffffff167f8be0079c531659141344cd1fd0a4f28419497f9722a3daafe3b4186f6b6457e060405160405180910390a360008060006101000a81548173ffffffffffffffffffffffffffffffffffffffff021916908373ffffffffffffffffffffffffffffffffffffffff160217905550565b610b1d611809565b73ffffffffffffffffffffffffffffffffffffffff16610b3b610d2a565b73ffffffffffffffffffffffffffffffffffffffff161480610bb15750610b60611809565b73ffffffffffffffffffffffffffffffffffffffff16600e60009054906101000a900473ffffffffffffffffffffffffffffffffffffffff1673ffffffffffffffffffffffffffffffffffffffff16145b610bf0576040517f08c379a0000000000000000000000000000000000000000000000000000000008152600401610be79061304c565b60405180910390fd5b8073ffffffffffffffffffffffffffffffffffffffff16600f60009054906101000a900473ffffffffffffffffffffffffffffffffffffffff1673ffffffffffffffffffffffffffffffffffffffff167fa64373a629bc0c09eacf8a9cc2c7b070fa0a8b7e2e9b8aaee408a3c02eb1676b60405160405180910390a380600f60006101000a81548173ffffffffffffffffffffffffffffffffffffffff021916908373ffffffffffffffffffffffffffffffffffffffff160217905550600160056000600f60009054906101000a900473ffffffffffffffffffffffffffffffffffffffff1673ffffffffffffffffffffffffffffffffffffffff1673ffffffffffffffffffffffffffffffffffffffff16815260200190815260200160002060006101000a81548160ff02191690831515021790555050565b60008060009054906101000a900473ffffffffffffffffffffffffffffffffffffffff16905090565b60606040518060400160405280600381526020017f5753500000000000000000000000000000000000000000000000000000000000815250905090565b610d98611809565b73ffffffffffffffffffffffffffffffffffffffff16610db6610d2a565b73ffffffffffffffffffffffffffffffffffffffff161480610e2c5750610ddb611809565b73ffffffffffffffffffffffffffffffffffffffff16600e60009054906101000a900473ffffffffffffffffffffffffffffffffffffffff1673ffffffffffffffffffffffffffffffffffffffff16145b610e6b576040517f08c379a0000000000000000000000000000000000000000000000000000000008152600401610e629061304c565b60405180910390fd5b600b8410610eae576040517f08c379a0000000000000000000000000000000000000000000000000000000008152600401610ea590613124565b60405180910390fd5b600b8310610ef1576040517f08c379a0000000000000000000000000000000000000000000000000000000008152600401610ee890613124565b60405180910390fd5b60078210610f34576040517f08c379a0000000000000000000000000000000000000000000000000000000008152600401610f2b90613190565b60405180910390fd5b60078110610f77576040517f08c379a0000000000000000000000000000000000000000000000000000000008152600401610f6e90613190565b60405180910390fd5b8360088190555082600a819055508160098190555080600b8190555050505050565b6000610fa430610971565b90506000811115610fb957610fb881612117565b5b50565b6000610fd0610fc9611809565b84846119da565b6001905092915050565b610fe2611809565b73ffffffffffffffffffffffffffffffffffffffff16611000610d2a565b73ffffffffffffffffffffffffffffffffffffffff1614806110765750611025611809565b73ffffffffffffffffffffffffffffffffffffffff16600e60009054906101000a900473ffffffffffffffffffffffffffffffffffffffff1673ffffffffffffffffffffffffffffffffffffffff16145b6110b5576040517f08c379a00000000000000000000000000000000000000000000000000000000081526004016110ac9061304c565b60405180910390fd5b8073ffffffffffffffffffffffffffffffffffffffff16600e60009054906101000a900473ffffffffffffffffffffffffffffffffffffffff1673ffffffffffffffffffffffffffffffffffffffff167ffbbc329437e8c79f847e170730ad6dd04106b7511cad70d06d635886d92de83c60405160405180910390a380600e60006101000a81548173ffffffffffffffffffffffffffffffffffffffff021916908373ffffffffffffffffffffffffffffffffffffffff160217905550600160056000600e60009054906101000a900473ffffffffffffffffffffffffffffffffffffffff1673ffffffffffffffffffffffffffffffffffffffff1673ffffffffffffffffffffffffffffffffffffffff16815260200190815260200160002060006101000a81548160ff02191690831515021790555050565b600e60009054906101000a900473ffffffffffffffffffffffffffffffffffffffff1673ffffffffffffffffffffffffffffffffffffffff16611230611809565b73ffffffffffffffffffffffffffffffffffffffff1614806112a65750600f60009054906101000a900473ffffffffffffffffffffffffffffffffffffffff1673ffffffffffffffffffffffffffffffffffffffff1661128e611809565b73ffffffffffffffffffffffffffffffffffffffff16145b806112ea57506112b4610d2a565b73ffffffffffffffffffffffffffffffffffffffff166112d2611809565b73ffffffffffffffffffffffffffffffffffffffff16145b6112f357600080fd5b60006112fe30610971565b905061130981612117565b50565b611314611809565b73ffffffffffffffffffffffffffffffffffffffff1660008054906101000a900473ffffffffffffffffffffffffffffffffffffffff1673ffffffffffffffffffffffffffffffffffffffff16146113a1576040517f08c379a0000000000000000000000000000000000000000000000000000000008152600401611398906130b8565b60405180910390fd5b60005b838390508110156114405781600560008686858181106113c7576113c66131b0565b5b90506020020160208101906113dc9190612dfc565b73ffffffffffffffffffffffffffffffffffffffff1673ffffffffffffffffffffffffffffffffffffffff16815260200190815260200160002060006101000a81548160ff02191690831515021790555080806114389061320e565b9150506113a4565b50505050565b601360009054906101000a900473ffffffffffffffffffffffffffffffffffffffff1681565b6000600460008473ffffffffffffffffffffffffffffffffffffffff1673ffffffffffffffffffffffffffffffffffffffff16815260200190815260200160002060008373ffffffffffffffffffffffffffffffffffffffff1673ffffffffffffffffffffffffffffffffffffffff16815260200190815260200160002054905092915050565b6114fb611809565b73ffffffffffffffffffffffffffffffffffffffff16611519610d2a565b73ffffffffffffffffffffffffffffffffffffffff16148061158f575061153e611809565b73ffffffffffffffffffffffffffffffffffffffff16600e60009054906101000a900473ffffffffffffffffffffffffffffffffffffffff1673ffffffffffffffffffffffffffffffffffffffff16145b6115ce576040517f08c379a00000000000000000000000000000000000000000000000000000000081526004016115c59061304c565b60405180910390fd5b8173ffffffffffffffffffffffffffffffffffffffff168373ffffffffffffffffffffffffffffffffffffffff167f47c33aa230eb5fd181505aa7befeaddd9b8a6f983989cea73a7868448c3a9ed98360405161162b9190612c98565b60405180910390a38273ffffffffffffffffffffffffffffffffffffffff1663a9059cbb83836040518363ffffffff1660e01b815260040161166e929190613256565b6020604051808303816000875af115801561168d573d6000803e3d6000fd5b505050506040513d601f19601f820116820180604052508101906116b19190613294565b50505050565b6116bf611809565b73ffffffffffffffffffffffffffffffffffffffff1660008054906101000a900473ffffffffffffffffffffffffffffffffffffffff1673ffffffffffffffffffffffffffffffffffffffff161461174c576040517f08c379a0000000000000000000000000000000000000000000000000000000008152600401611743906130b8565b60405180910390fd5b8073ffffffffffffffffffffffffffffffffffffffff1660008054906101000a900473ffffffffffffffffffffffffffffffffffffffff1673ffffffffffffffffffffffffffffffffffffffff167f8be0079c531659141344cd1fd0a4f28419497f9722a3daafe3b4186f6b6457e060405160405180910390a3806000806101000a81548173ffffffffffffffffffffffffffffffffffffffff021916908373ffffffffffffffffffffffffffffffffffffffff16021790555050565b600033905090565b600073ffffffffffffffffffffffffffffffffffffffff168373ffffffffffffffffffffffffffffffffffffffff1603611880576040517f08c379a000000000000000000000000000000000000000000000000000000000815260040161187790613333565b60405180910390fd5b600073ffffffffffffffffffffffffffffffffffffffff168273ffffffffffffffffffffffffffffffffffffffff16036118ef576040517f08c379a00000000000000000000000000000000000000000000000000000000081526004016118e6906133c5565b60405180910390fd5b80600460008573ffffffffffffffffffffffffffffffffffffffff1673ffffffffffffffffffffffffffffffffffffffff16815260200190815260200160002060008473ffffffffffffffffffffffffffffffffffffffff1673ffffffffffffffffffffffffffffffffffffffff168152602001908152602001600020819055508173ffffffffffffffffffffffffffffffffffffffff168373ffffffffffffffffffffffffffffffffffffffff167f8c5be1e5ebec7d5bd14f71427d1e84f3dd0314c0f7b2291e5b200ac8c7c3b925836040516119cd9190612c98565b60405180910390a3505050565b600073ffffffffffffffffffffffffffffffffffffffff168373ffffffffffffffffffffffffffffffffffffffff1603611a49576040517f08c379a0000000000000000000000000000000000000000000000000000000008152600401611a4090613457565b60405180910390fd5b600073ffffffffffffffffffffffffffffffffffffffff168273ffffffffffffffffffffffffffffffffffffffff1603611ab8576040517f08c379a0000000000000000000000000000000000000000000000000000000008152600401611aaf906134e9565b60405180910390fd5b60008111611afb576040517f08c379a0000000000000000000000000000000000000000000000000000000008152600401611af29061357b565b60405180910390fd5b6000600c819055506000600d81905550611b13610d2a565b73ffffffffffffffffffffffffffffffffffffffff168373ffffffffffffffffffffffffffffffffffffffff1614158015611b815750611b51610d2a565b73ffffffffffffffffffffffffffffffffffffffff168273ffffffffffffffffffffffffffffffffffffffff1614155b15611f3a576000611b9130610971565b905060148054906101000a900460ff16158015611bfc5750601460009054906101000a900473ffffffffffffffffffffffffffffffffffffffff1673ffffffffffffffffffffffffffffffffffffffff168473ffffffffffffffffffffffffffffffffffffffff1614155b8015611c145750601460159054906101000a900460ff165b8015611c205750600081115b15611c4857611c2e81612117565b60004790506000811115611c4657611c4547611fae565b5b505b601460009054906101000a900473ffffffffffffffffffffffffffffffffffffffff1673ffffffffffffffffffffffffffffffffffffffff168473ffffffffffffffffffffffffffffffffffffffff16148015611cf35750601160009054906101000a900473ffffffffffffffffffffffffffffffffffffffff1673ffffffffffffffffffffffffffffffffffffffff168373ffffffffffffffffffffffffffffffffffffffff1614155b15611d0b57600854600c81905550600954600d819055505b601460009054906101000a900473ffffffffffffffffffffffffffffffffffffffff1673ffffffffffffffffffffffffffffffffffffffff168373ffffffffffffffffffffffffffffffffffffffff16148015611db65750601160009054906101000a900473ffffffffffffffffffffffffffffffffffffffff1673ffffffffffffffffffffffffffffffffffffffff168473ffffffffffffffffffffffffffffffffffffffff1614155b15611dce57600a54600c81905550600b54600d819055505b600560008573ffffffffffffffffffffffffffffffffffffffff1673ffffffffffffffffffffffffffffffffffffffff16815260200190815260200160002060009054906101000a900460ff1680611e6f5750600560008473ffffffffffffffffffffffffffffffffffffffff1673ffffffffffffffffffffffffffffffffffffffff16815260200190815260200160002060009054906101000a900460ff165b80611f225750601460009054906101000a900473ffffffffffffffffffffffffffffffffffffffff1673ffffffffffffffffffffffffffffffffffffffff168473ffffffffffffffffffffffffffffffffffffffff1614158015611f215750601460009054906101000a900473ffffffffffffffffffffffffffffffffffffffff1673ffffffffffffffffffffffffffffffffffffffff168373ffffffffffffffffffffffffffffffffffffffff1614155b5b15611f38576000600c819055506000600d819055505b505b611f4583838361238e565b505050565b6000838311158290611f92576040517f08c379a0000000000000000000000000000000000000000000000000000000008152600401611f899190612ad9565b60405180910390fd5b5060008385611fa1919061359b565b9050809150509392505050565b600e60009054906101000a900473ffffffffffffffffffffffffffffffffffffffff1673ffffffffffffffffffffffffffffffffffffffff166108fc611ffe60028461239e90919063ffffffff16565b9081150290604051600060405180830381858888f19350505050158015612029573d6000803e3d6000fd5b50600f60009054906101000a900473ffffffffffffffffffffffffffffffffffffffff1673ffffffffffffffffffffffffffffffffffffffff166108fc61207a60028461239e90919063ffffffff16565b9081150290604051600060405180830381858888f193505050501580156120a5573d6000803e3d6000fd5b5050565b60006006548211156120f0576040517f08c379a00000000000000000000000000000000000000000000000000000000081526004016120e790613641565b60405180910390fd5b60006120fa6123e8565b905061210f818461239e90919063ffffffff16565b915050919050565b60016014806101000a81548160ff0219169083151502179055506000600267ffffffffffffffff81111561214e5761214d613661565b5b60405190808252806020026020018201604052801561217c5781602001602082028036833780820191505090505b5090503081600081518110612194576121936131b0565b5b602002602001019073ffffffffffffffffffffffffffffffffffffffff16908173ffffffffffffffffffffffffffffffffffffffff1681525050601160009054906101000a900473ffffffffffffffffffffffffffffffffffffffff1673ffffffffffffffffffffffffffffffffffffffff1663ad5c46486040518163ffffffff1660e01b8152600401602060405180830381865afa15801561223b573d6000803e3d6000fd5b505050506040513d601f19601f8201168201806040525081019061225f91906136a5565b81600181518110612273576122726131b0565b5b602002602001019073ffffffffffffffffffffffffffffffffffffffff16908173ffffffffffffffffffffffffffffffffffffffff16815250506122da30601160009054906101000a900473ffffffffffffffffffffffffffffffffffffffff1684611811565b601160009054906101000a900473ffffffffffffffffffffffffffffffffffffffff1673ffffffffffffffffffffffffffffffffffffffff1663791ac9478360008430426040518663ffffffff1660e01b815260040161233e9594939291906137cb565b600060405180830381600087803b15801561235857600080fd5b505af115801561236c573d6000803e3d6000fd5b505050505060006014806101000a81548160ff02191690831515021790555050565b612399838383612413565b505050565b60006123e083836040518060400160405280601a81526020017f536166654d6174683a206469766973696f6e206279207a65726f0000000000008152506125de565b905092915050565b60008060006123f5612641565b9150915061240c818361239e90919063ffffffff16565b9250505090565b600080600080600080612425876126a0565b95509550955095509550955061248386600260008c73ffffffffffffffffffffffffffffffffffffffff1673ffffffffffffffffffffffffffffffffffffffff1681526020019081526020016000205461270890919063ffffffff16565b600260008b73ffffffffffffffffffffffffffffffffffffffff1673ffffffffffffffffffffffffffffffffffffffff1681526020019081526020016000208190555061251885600260008b73ffffffffffffffffffffffffffffffffffffffff1673ffffffffffffffffffffffffffffffffffffffff1681526020019081526020016000205461275290919063ffffffff16565b600260008a73ffffffffffffffffffffffffffffffffffffffff1673ffffffffffffffffffffffffffffffffffffffff16815260200190815260200160002081905550612564816127b0565b61256e848361286d565b8773ffffffffffffffffffffffffffffffffffffffff168973ffffffffffffffffffffffffffffffffffffffff167fddf252ad1be2c89b69c2b068fc378daa952ba7f163c4a11628f55a4df523b3ef856040516125cb9190612c98565b60405180910390a3505050505050505050565b60008083118290612625576040517f08c379a000000000000000000000000000000000000000000000000000000000815260040161261c9190612ad9565b60405180910390fd5b50600083856126349190613854565b9050809150509392505050565b600080600060065490506000670de0b6b3a76400009050612675670de0b6b3a764000060065461239e90919063ffffffff16565b82101561269357600654670de0b6b3a764000093509350505061269c565b81819350935050505b9091565b60008060008060008060008060006126bd8a600c54600d546128a7565b92509250925060006126cd6123e8565b905060008060006126e08e87878761293d565b9250925092508282828989899c509c509c509c509c509c505050505050505091939550919395565b600061274a83836040518060400160405280601e81526020017f536166654d6174683a207375627472616374696f6e206f766572666c6f770000815250611f4a565b905092915050565b60008082846127619190613885565b9050838110156127a6576040517f08c379a000000000000000000000000000000000000000000000000000000000815260040161279d90613927565b60405180910390fd5b8091505092915050565b60006127ba6123e8565b905060006127d182846129c690919063ffffffff16565b905061282581600260003073ffffffffffffffffffffffffffffffffffffffff1673ffffffffffffffffffffffffffffffffffffffff1681526020019081526020016000205461275290919063ffffffff16565b600260003073ffffffffffffffffffffffffffffffffffffffff1673ffffffffffffffffffffffffffffffffffffffff16815260200190815260200160002081905550505050565b6128828260065461270890919063ffffffff16565b60068190555061289d8160075461275290919063ffffffff16565b6007819055505050565b6000806000806128d360646128c5888a6129c690919063ffffffff16565b61239e90919063ffffffff16565b905060006128fd60646128ef888b6129c690919063ffffffff16565b61239e90919063ffffffff16565b9050600061292682612918858c61270890919063ffffffff16565b61270890919063ffffffff16565b905080838395509550955050505093509350939050565b60008060008061295685896129c690919063ffffffff16565b9050600061296d86896129c690919063ffffffff16565b9050600061298487896129c690919063ffffffff16565b905060006129ad8261299f858761270890919063ffffffff16565b61270890919063ffffffff16565b9050838184965096509650505050509450945094915050565b60008083036129d85760009050612a3a565b600082846129e69190613947565b90508284826129f59190613854565b14612a35576040517f08c379a0000000000000000000000000000000000000000000000000000000008152600401612a2c90613a13565b60405180910390fd5b809150505b92915050565b600081519050919050565b600082825260208201905092915050565b60005b83811015612a7a578082015181840152602081019050612a5f565b83811115612a89576000848401525b50505050565b6000601f19601f8301169050919050565b6000612aab82612a40565b612ab58185612a4b565b9350612ac5818560208601612a5c565b612ace81612a8f565b840191505092915050565b60006020820190508181036000830152612af38184612aa0565b905092915050565b600080fd5b600080fd5b600073ffffffffffffffffffffffffffffffffffffffff82169050919050565b6000612b3082612b05565b9050919050565b612b4081612b25565b8114612b4b57600080fd5b50565b600081359050612b5d81612b37565b92915050565b6000819050919050565b612b7681612b63565b8114612b8157600080fd5b50565b600081359050612b9381612b6d565b92915050565b60008060408385031215612bb057612baf612afb565b5b6000612bbe85828601612b4e565b9250506020612bcf85828601612b84565b9150509250929050565b60008115159050919050565b612bee81612bd9565b82525050565b6000602082019050612c096000830184612be5565b92915050565b6000819050919050565b6000612c34612c2f612c2a84612b05565b612c0f565b612b05565b9050919050565b6000612c4682612c19565b9050919050565b6000612c5882612c3b565b9050919050565b612c6881612c4d565b82525050565b6000602082019050612c836000830184612c5f565b92915050565b612c9281612b63565b82525050565b6000602082019050612cad6000830184612c89565b92915050565b600080600060608486031215612ccc57612ccb612afb565b5b6000612cda86828701612b4e565b9350506020612ceb86828701612b4e565b9250506040612cfc86828701612b84565b9150509250925092565b600060ff82169050919050565b612d1c81612d06565b82525050565b6000602082019050612d376000830184612d13565b92915050565b612d4681612b25565b82525050565b6000602082019050612d616000830184612d3d565b92915050565b6000612d7282612c3b565b9050919050565b612d8281612d67565b82525050565b6000602082019050612d9d6000830184612d79565b92915050565b612dac81612bd9565b8114612db757600080fd5b50565b600081359050612dc981612da3565b92915050565b600060208284031215612de557612de4612afb565b5b6000612df384828501612dba565b91505092915050565b600060208284031215612e1257612e11612afb565b5b6000612e2084828501612b4e565b91505092915050565b6000612e3482612b05565b9050919050565b612e4481612e29565b8114612e4f57600080fd5b50565b600081359050612e6181612e3b565b92915050565b600060208284031215612e7d57612e7c612afb565b5b6000612e8b84828501612e52565b91505092915050565b60008060008060808587031215612eae57612ead612afb565b5b6000612ebc87828801612b84565b9450506020612ecd87828801612b84565b9350506040612ede87828801612b84565b9250506060612eef87828801612b84565b91505092959194509250565b600080fd5b600080fd5b600080fd5b60008083601f840112612f2057612f1f612efb565b5b8235905067ffffffffffffffff811115612f3d57612f3c612f00565b5b602083019150836020820283011115612f5957612f58612f05565b5b9250929050565b600080600060408486031215612f7957612f78612afb565b5b600084013567ffffffffffffffff811115612f9757612f96612b00565b5b612fa386828701612f0a565b93509350506020612fb686828701612dba565b9150509250925092565b60008060408385031215612fd757612fd6612afb565b5b6000612fe585828601612b4e565b9250506020612ff685828601612b4e565b9150509250929050565b7f43616c6c6572206973206e6f7420746865206465760000000000000000000000600082015250565b6000613036601583612a4b565b915061304182613000565b602082019050919050565b6000602082019050818103600083015261306581613029565b9050919050565b7f43616c6c6572206973206e6f7420746865206f776e6572000000000000000000600082015250565b60006130a2601783612a4b565b91506130ad8261306c565b602082019050919050565b600060208201905081810360008301526130d181613095565b9050919050565b7f52656469732063616e6e6f74206265206d6f7265207468616e2031302e000000600082015250565b600061310e601d83612a4b565b9150613119826130d8565b602082019050919050565b6000602082019050818103600083015261313d81613101565b9050919050565b7f5461782063616e6e6f74206265206d6f7265207468616e20362e000000000000600082015250565b600061317a601a83612a4b565b915061318582613144565b602082019050919050565b600060208201905081810360008301526131a98161316d565b9050919050565b7f4e487b7100000000000000000000000000000000000000000000000000000000600052603260045260246000fd5b7f4e487b7100000000000000000000000000000000000000000000000000000000600052601160045260246000fd5b600061321982612b63565b91507fffffffffffffffffffffffffffffffffffffffffffffffffffffffffffffffff820361324b5761324a6131df565b5b600182019050919050565b600060408201905061326b6000830185612d3d565b6132786020830184612c89565b9392505050565b60008151905061328e81612da3565b92915050565b6000602082840312156132aa576132a9612afb565b5b60006132b88482850161327f565b91505092915050565b7f45524332303a20617070726f76652066726f6d20746865207a65726f2061646460008201527f7265737300000000000000000000000000000000000000000000000000000000602082015250565b600061331d602483612a4b565b9150613328826132c1565b604082019050919050565b6000602082019050818103600083015261334c81613310565b9050919050565b7f45524332303a20617070726f766520746f20746865207a65726f20616464726560008201527f7373000000000000000000000000000000000000000000000000000000000000602082015250565b60006133af602283612a4b565b91506133ba82613353565b604082019050919050565b600060208201905081810360008301526133de816133a2565b9050919050565b7f45524332303a207472616e736665722066726f6d20746865207a65726f20616460008201527f6472657373000000000000000000000000000000000000000000000000000000602082015250565b6000613441602583612a4b565b915061344c826133e5565b604082019050919050565b6000602082019050818103600083015261347081613434565b9050919050565b7f45524332303a207472616e7366657220746f20746865207a65726f206164647260008201527f6573730000000000000000000000000000000000000000000000000000000000602082015250565b60006134d3602383612a4b565b91506134de82613477565b604082019050919050565b60006020820190508181036000830152613502816134c6565b9050919050565b7f5472616e7366657220616d6f756e74206d75737420626520677265617465722060008201527f7468616e207a65726f0000000000000000000000000000000000000000000000602082015250565b6000613565602983612a4b565b915061357082613509565b604082019050919050565b6000602082019050818103600083015261359481613558565b9050919050565b60006135a682612b63565b91506135b183612b63565b9250828210156135c4576135c36131df565b5b828203905092915050565b7f416d6f756e74206d757374206265206c657373207468616e20746f74616c207260008201527f65666c656374696f6e7300000000000000000000000000000000000000000000602082015250565b600061362b602a83612a4b565b9150613636826135cf565b604082019050919050565b6000602082019050818103600083015261365a8161361e565b9050919050565b7f4e487b7100000000000000000000000000000000000000000000000000000000600052604160045260246000fd5b60008151905061369f81612b37565b92915050565b6000602082840312156136bb576136ba612afb565b5b60006136c984828501613690565b91505092915050565b6000819050919050565b60006136f76136f26136ed846136d2565b612c0f565b612b63565b9050919050565b613707816136dc565b82525050565b600081519050919050565b600082825260208201905092915050565b6000819050602082019050919050565b61374281612b25565b82525050565b60006137548383613739565b60208301905092915050565b6000602082019050919050565b60006137788261370d565b6137828185613718565b935061378d83613729565b8060005b838110156137be5781516137a58882613748565b97506137b083613760565b925050600181019050613791565b5085935050505092915050565b600060a0820190506137e06000830188612c89565b6137ed60208301876136fe565b81810360408301526137ff818661376d565b905061380e6060830185612d3d565b61381b6080830184612c89565b9695505050505050565b7f4e487b7100000000000000000000000000000000000000000000000000000000600052601260045260246000fd5b600061385f82612b63565b915061386a83612b63565b92508261387a57613879613825565b5b828204905092915050565b600061389082612b63565b915061389b83612b63565b9250827fffffffffffffffffffffffffffffffffffffffffffffffffffffffffffffffff038211156138d0576138cf6131df565b5b828201905092915050565b7f536166654d6174683a206164646974696f6e206f766572666c6f770000000000600082015250565b6000613911601b83612a4b565b915061391c826138db565b602082019050919050565b6000602082019050818103600083015261394081613904565b9050919050565b600061395282612b63565b915061395d83612b63565b9250817fffffffffffffffffffffffffffffffffffffffffffffffffffffffffffffffff0483118215151615613996576139956131df565b5b828202905092915050565b7f536166654d6174683a206d756c7469706c69636174696f6e206f766572666c6f60008201527f7700000000000000000000000000000000000000000000000000000000000000602082015250565b60006139fd602183612a4b565b9150613a08826139a1565b604082019050919050565b60006020820190508181036000830152613a2c816139f0565b905091905056fe45524332303a207472616e7366657220616d6f756e74206578636565647320616c6c6f77616e6365a264697066735822122081ec5ec3c0802fe987334c97da565b410e3de66c49bd5979933ae33579d2d62964736f6c634300080d0033",
					"opcodes": "PUSH1 0x80 PUSH1 0x40 MSTORE PUSH8 0xDE0B6B3A7640000 PUSH1 0x0 NOT PUSH3 0x1C SWAP2 SWAP1 PUSH3 0x72B JUMP JUMPDEST PUSH1 0x0 NOT PUSH3 0x2B SWAP2 SWAP1 PUSH3 0x792 JUMP JUMPDEST PUSH1 0x6 SSTORE PUSH1 0x1 PUSH1 0x8 SSTORE PUSH1 0x3 PUSH1 0x9 SSTORE PUSH1 0x1 PUSH1 0xA SSTORE PUSH1 0x3 PUSH1 0xB SSTORE PUSH20 0x8492CBD894686D7E98214541903C7BA6F94928D6 PUSH1 0xE PUSH1 0x0 PUSH2 0x100 EXP DUP2 SLOAD DUP2 PUSH20 0xFFFFFFFFFFFFFFFFFFFFFFFFFFFFFFFFFFFFFFFF MUL NOT AND SWAP1 DUP4 PUSH20 0xFFFFFFFFFFFFFFFFFFFFFFFFFFFFFFFFFFFFFFFF AND MUL OR SWAP1 SSTORE POP PUSH20 0xA4ED7AA4EF5DEB0A63E97D9CB77445AE553FEB1D PUSH1 0xF PUSH1 0x0 PUSH2 0x100 EXP DUP2 SLOAD DUP2 PUSH20 0xFFFFFFFFFFFFFFFFFFFFFFFFFFFFFFFFFFFFFFFF MUL NOT AND SWAP1 DUP4 PUSH20 0xFFFFFFFFFFFFFFFFFFFFFFFFFFFFFFFFFFFFFFFF AND MUL OR SWAP1 SSTORE POP PUSH20 0xE061915592536656A92B9FD59E46B19EF920692F PUSH1 0x10 PUSH1 0x0 PUSH2 0x100 EXP DUP2 SLOAD DUP2 PUSH20 0xFFFFFFFFFFFFFFFFFFFFFFFFFFFFFFFFFFFFFFFF MUL NOT AND SWAP1 DUP4 PUSH20 0xFFFFFFFFFFFFFFFFFFFFFFFFFFFFFFFFFFFFFFFF AND MUL OR SWAP1 SSTORE POP PUSH1 0x0 PUSH1 0x14 DUP1 PUSH2 0x100 EXP DUP2 SLOAD DUP2 PUSH1 0xFF MUL NOT AND SWAP1 DUP4 ISZERO ISZERO MUL OR SWAP1 SSTORE POP PUSH1 0x1 PUSH1 0x14 PUSH1 0x15 PUSH2 0x100 EXP DUP2 SLOAD DUP2 PUSH1 0xFF MUL NOT AND SWAP1 DUP4 ISZERO ISZERO MUL OR SWAP1 SSTORE POP CALLVALUE DUP1 ISZERO PUSH3 0x183 JUMPI PUSH1 0x0 DUP1 REVERT JUMPDEST POP PUSH1 0x0 PUSH3 0x196 PUSH3 0x6C1 PUSH1 0x20 SHL PUSH1 0x20 SHR JUMP JUMPDEST SWAP1 POP DUP1 PUSH1 0x0 DUP1 PUSH2 0x100 EXP DUP2 SLOAD DUP2 PUSH20 0xFFFFFFFFFFFFFFFFFFFFFFFFFFFFFFFFFFFFFFFF MUL NOT AND SWAP1 DUP4 PUSH20 0xFFFFFFFFFFFFFFFFFFFFFFFFFFFFFFFFFFFFFFFF AND MUL OR SWAP1 SSTORE POP DUP1 PUSH20 0xFFFFFFFFFFFFFFFFFFFFFFFFFFFFFFFFFFFFFFFF AND PUSH1 0x0 PUSH20 0xFFFFFFFFFFFFFFFFFFFFFFFFFFFFFFFFFFFFFFFF AND PUSH32 0x8BE0079C531659141344CD1FD0A4F28419497F9722A3DAAFE3B4186F6B6457E0 PUSH1 0x40 MLOAD PUSH1 0x40 MLOAD DUP1 SWAP2 SUB SWAP1 LOG3 POP PUSH1 0x6 SLOAD PUSH1 0x2 PUSH1 0x0 PUSH3 0x24B PUSH3 0x6C1 PUSH1 0x20 SHL PUSH1 0x20 SHR JUMP JUMPDEST PUSH20 0xFFFFFFFFFFFFFFFFFFFFFFFFFFFFFFFFFFFFFFFF AND PUSH20 0xFFFFFFFFFFFFFFFFFFFFFFFFFFFFFFFFFFFFFFFF AND DUP2 MSTORE PUSH1 0x20 ADD SWAP1 DUP2 MSTORE PUSH1 0x20 ADD PUSH1 0x0 KECCAK256 DUP2 SWAP1 SSTORE POP PUSH1 0x0 PUSH20 0x9AC64CC6E4415144C455BD8E4837FEA55603E5C3 SWAP1 POP DUP1 PUSH1 0x11 PUSH1 0x0 PUSH2 0x100 EXP DUP2 SLOAD DUP2 PUSH20 0xFFFFFFFFFFFFFFFFFFFFFFFFFFFFFFFFFFFFFFFF MUL NOT AND SWAP1 DUP4 PUSH20 0xFFFFFFFFFFFFFFFFFFFFFFFFFFFFFFFFFFFFFFFF AND MUL OR SWAP1 SSTORE POP DUP1 PUSH20 0xFFFFFFFFFFFFFFFFFFFFFFFFFFFFFFFFFFFFFFFF AND PUSH4 0xC45A0155 PUSH1 0x40 MLOAD DUP2 PUSH4 0xFFFFFFFF AND PUSH1 0xE0 SHL DUP2 MSTORE PUSH1 0x4 ADD PUSH1 0x20 PUSH1 0x40 MLOAD DUP1 DUP4 SUB DUP2 DUP7 GAS STATICCALL ISZERO DUP1 ISZERO PUSH3 0x32F JUMPI RETURNDATASIZE PUSH1 0x0 DUP1 RETURNDATACOPY RETURNDATASIZE PUSH1 0x0 REVERT JUMPDEST POP POP POP POP PUSH1 0x40 MLOAD RETURNDATASIZE PUSH1 0x1F NOT PUSH1 0x1F DUP3 ADD AND DUP3 ADD DUP1 PUSH1 0x40 MSTORE POP DUP2 ADD SWAP1 PUSH3 0x355 SWAP2 SWAP1 PUSH3 0x837 JUMP JUMPDEST PUSH20 0xFFFFFFFFFFFFFFFFFFFFFFFFFFFFFFFFFFFFFFFF AND PUSH4 0xC9C65396 ADDRESS DUP4 PUSH20 0xFFFFFFFFFFFFFFFFFFFFFFFFFFFFFFFFFFFFFFFF AND PUSH4 0xAD5C4648 PUSH1 0x40 MLOAD DUP2 PUSH4 0xFFFFFFFF AND PUSH1 0xE0 SHL DUP2 MSTORE PUSH1 0x4 ADD PUSH1 0x20 PUSH1 0x40 MLOAD DUP1 DUP4 SUB DUP2 DUP7 GAS STATICCALL ISZERO DUP1 ISZERO PUSH3 0x3BD JUMPI RETURNDATASIZE PUSH1 0x0 DUP1 RETURNDATACOPY RETURNDATASIZE PUSH1 0x0 REVERT JUMPDEST POP POP POP POP PUSH1 0x40 MLOAD RETURNDATASIZE PUSH1 0x1F NOT PUSH1 0x1F DUP3 ADD AND DUP3 ADD DUP1 PUSH1 0x40 MSTORE POP DUP2 ADD SWAP1 PUSH3 0x3E3 SWAP2 SWAP1 PUSH3 0x837 JUMP JUMPDEST PUSH1 0x40 MLOAD DUP4 PUSH4 0xFFFFFFFF AND PUSH1 0xE0 SHL DUP2 MSTORE PUSH1 0x4 ADD PUSH3 0x402 SWAP3 SWAP2 SWAP1 PUSH3 0x87A JUMP JUMPDEST PUSH1 0x20 PUSH1 0x40 MLOAD DUP1 DUP4 SUB DUP2 PUSH1 0x0 DUP8 GAS CALL ISZERO DUP1 ISZERO PUSH3 0x422 JUMPI RETURNDATASIZE PUSH1 0x0 DUP1 RETURNDATACOPY RETURNDATASIZE PUSH1 0x0 REVERT JUMPDEST POP POP POP POP PUSH1 0x40 MLOAD RETURNDATASIZE PUSH1 0x1F NOT PUSH1 0x1F DUP3 ADD AND DUP3 ADD DUP1 PUSH1 0x40 MSTORE POP DUP2 ADD SWAP1 PUSH3 0x448 SWAP2 SWAP1 PUSH3 0x837 JUMP JUMPDEST PUSH1 0x14 PUSH1 0x0 PUSH2 0x100 EXP DUP2 SLOAD DUP2 PUSH20 0xFFFFFFFFFFFFFFFFFFFFFFFFFFFFFFFFFFFFFFFF MUL NOT AND SWAP1 DUP4 PUSH20 0xFFFFFFFFFFFFFFFFFFFFFFFFFFFFFFFFFFFFFFFF AND MUL OR SWAP1 SSTORE POP PUSH1 0x1 PUSH1 0x5 PUSH1 0x0 PUSH3 0x49E PUSH3 0x6C9 PUSH1 0x20 SHL PUSH1 0x20 SHR JUMP JUMPDEST PUSH20 0xFFFFFFFFFFFFFFFFFFFFFFFFFFFFFFFFFFFFFFFF AND PUSH20 0xFFFFFFFFFFFFFFFFFFFFFFFFFFFFFFFFFFFFFFFF AND DUP2 MSTORE PUSH1 0x20 ADD SWAP1 DUP2 MSTORE PUSH1 0x20 ADD PUSH1 0x0 KECCAK256 PUSH1 0x0 PUSH2 0x100 EXP DUP2 SLOAD DUP2 PUSH1 0xFF MUL NOT AND SWAP1 DUP4 ISZERO ISZERO MUL OR SWAP1 SSTORE POP PUSH1 0x1 PUSH1 0x5 PUSH1 0x0 ADDRESS PUSH20 0xFFFFFFFFFFFFFFFFFFFFFFFFFFFFFFFFFFFFFFFF AND PUSH20 0xFFFFFFFFFFFFFFFFFFFFFFFFFFFFFFFFFFFFFFFF AND DUP2 MSTORE PUSH1 0x20 ADD SWAP1 DUP2 MSTORE PUSH1 0x20 ADD PUSH1 0x0 KECCAK256 PUSH1 0x0 PUSH2 0x100 EXP DUP2 SLOAD DUP2 PUSH1 0xFF MUL NOT AND SWAP1 DUP4 ISZERO ISZERO MUL OR SWAP1 SSTORE POP PUSH1 0x1 PUSH1 0x5 PUSH1 0x0 PUSH1 0xE PUSH1 0x0 SWAP1 SLOAD SWAP1 PUSH2 0x100 EXP SWAP1 DIV PUSH20 0xFFFFFFFFFFFFFFFFFFFFFFFFFFFFFFFFFFFFFFFF AND PUSH20 0xFFFFFFFFFFFFFFFFFFFFFFFFFFFFFFFFFFFFFFFF AND PUSH20 0xFFFFFFFFFFFFFFFFFFFFFFFFFFFFFFFFFFFFFFFF AND DUP2 MSTORE PUSH1 0x20 ADD SWAP1 DUP2 MSTORE PUSH1 0x20 ADD PUSH1 0x0 KECCAK256 PUSH1 0x0 PUSH2 0x100 EXP DUP2 SLOAD DUP2 PUSH1 0xFF MUL NOT AND SWAP1 DUP4 ISZERO ISZERO MUL OR SWAP1 SSTORE POP PUSH1 0x1 PUSH1 0x5 PUSH1 0x0 PUSH1 0xF PUSH1 0x0 SWAP1 SLOAD SWAP1 PUSH2 0x100 EXP SWAP1 DIV PUSH20 0xFFFFFFFFFFFFFFFFFFFFFFFFFFFFFFFFFFFFFFFF AND PUSH20 0xFFFFFFFFFFFFFFFFFFFFFFFFFFFFFFFFFFFFFFFF AND PUSH20 0xFFFFFFFFFFFFFFFFFFFFFFFFFFFFFFFFFFFFFFFF AND DUP2 MSTORE PUSH1 0x20 ADD SWAP1 DUP2 MSTORE PUSH1 0x20 ADD PUSH1 0x0 KECCAK256 PUSH1 0x0 PUSH2 0x100 EXP DUP2 SLOAD DUP2 PUSH1 0xFF MUL NOT AND SWAP1 DUP4 ISZERO ISZERO MUL OR SWAP1 SSTORE POP PUSH3 0x64B PUSH3 0x6C1 PUSH1 0x20 SHL PUSH1 0x20 SHR JUMP JUMPDEST PUSH20 0xFFFFFFFFFFFFFFFFFFFFFFFFFFFFFFFFFFFFFFFF AND PUSH1 0x0 PUSH20 0xFFFFFFFFFFFFFFFFFFFFFFFFFFFFFFFFFFFFFFFF AND PUSH32 0xDDF252AD1BE2C89B69C2B068FC378DAA952BA7F163C4A11628F55A4DF523B3EF PUSH8 0xDE0B6B3A7640000 PUSH1 0x40 MLOAD PUSH3 0x6B2 SWAP2 SWAP1 PUSH3 0x8B8 JUMP JUMPDEST PUSH1 0x40 MLOAD DUP1 SWAP2 SUB SWAP1 LOG3 POP PUSH3 0x8D5 JUMP JUMPDEST PUSH1 0x0 CALLER SWAP1 POP SWAP1 JUMP JUMPDEST PUSH1 0x0 DUP1 PUSH1 0x0 SWAP1 SLOAD SWAP1 PUSH2 0x100 EXP SWAP1 DIV PUSH20 0xFFFFFFFFFFFFFFFFFFFFFFFFFFFFFFFFFFFFFFFF AND SWAP1 POP SWAP1 JUMP JUMPDEST PUSH1 0x0 DUP2 SWAP1 POP SWAP2 SWAP1 POP JUMP JUMPDEST PUSH32 0x4E487B7100000000000000000000000000000000000000000000000000000000 PUSH1 0x0 MSTORE PUSH1 0x12 PUSH1 0x4 MSTORE PUSH1 0x24 PUSH1 0x0 REVERT JUMPDEST PUSH1 0x0 PUSH3 0x738 DUP3 PUSH3 0x6F2 JUMP JUMPDEST SWAP2 POP PUSH3 0x745 DUP4 PUSH3 0x6F2 JUMP JUMPDEST SWAP3 POP DUP3 PUSH3 0x758 JUMPI PUSH3 0x757 PUSH3 0x6FC JUMP JUMPDEST JUMPDEST DUP3 DUP3 MOD SWAP1 POP SWAP3 SWAP2 POP POP JUMP JUMPDEST PUSH32 0x4E487B7100000000000000000000000000000000000000000000000000000000 PUSH1 0x0 MSTORE PUSH1 0x11 PUSH1 0x4 MSTORE PUSH1 0x24 PUSH1 0x0 REVERT JUMPDEST PUSH1 0x0 PUSH3 0x79F DUP3 PUSH3 0x6F2 JUMP JUMPDEST SWAP2 POP PUSH3 0x7AC DUP4 PUSH3 0x6F2 JUMP JUMPDEST SWAP3 POP DUP3 DUP3 LT ISZERO PUSH3 0x7C2 JUMPI PUSH3 0x7C1 PUSH3 0x763 JUMP JUMPDEST JUMPDEST DUP3 DUP3 SUB SWAP1 POP SWAP3 SWAP2 POP POP JUMP JUMPDEST PUSH1 0x0 DUP1 REVERT JUMPDEST PUSH1 0x0 PUSH20 0xFFFFFFFFFFFFFFFFFFFFFFFFFFFFFFFFFFFFFFFF DUP3 AND SWAP1 POP SWAP2 SWAP1 POP JUMP JUMPDEST PUSH1 0x0 PUSH3 0x7FF DUP3 PUSH3 0x7D2 JUMP JUMPDEST SWAP1 POP SWAP2 SWAP1 POP JUMP JUMPDEST PUSH3 0x811 DUP2 PUSH3 0x7F2 JUMP JUMPDEST DUP2 EQ PUSH3 0x81D JUMPI PUSH1 0x0 DUP1 REVERT JUMPDEST POP JUMP JUMPDEST PUSH1 0x0 DUP2 MLOAD SWAP1 POP PUSH3 0x831 DUP2 PUSH3 0x806 JUMP JUMPDEST SWAP3 SWAP2 POP POP JUMP JUMPDEST PUSH1 0x0 PUSH1 0x20 DUP3 DUP5 SUB SLT ISZERO PUSH3 0x850 JUMPI PUSH3 0x84F PUSH3 0x7CD JUMP JUMPDEST JUMPDEST PUSH1 0x0 PUSH3 0x860 DUP5 DUP3 DUP6 ADD PUSH3 0x820 JUMP JUMPDEST SWAP2 POP POP SWAP3 SWAP2 POP POP JUMP JUMPDEST PUSH3 0x874 DUP2 PUSH3 0x7F2 JUMP JUMPDEST DUP3 MSTORE POP POP JUMP JUMPDEST PUSH1 0x0 PUSH1 0x40 DUP3 ADD SWAP1 POP PUSH3 0x891 PUSH1 0x0 DUP4 ADD DUP6 PUSH3 0x869 JUMP JUMPDEST PUSH3 0x8A0 PUSH1 0x20 DUP4 ADD DUP5 PUSH3 0x869 JUMP JUMPDEST SWAP4 SWAP3 POP POP POP JUMP JUMPDEST PUSH3 0x8B2 DUP2 PUSH3 0x6F2 JUMP JUMPDEST DUP3 MSTORE POP POP JUMP JUMPDEST PUSH1 0x0 PUSH1 0x20 DUP3 ADD SWAP1 POP PUSH3 0x8CF PUSH1 0x0 DUP4 ADD DUP5 PUSH3 0x8A7 JUMP JUMPDEST SWAP3 SWAP2 POP POP JUMP JUMPDEST PUSH2 0x3A91 DUP1 PUSH3 0x8E5 PUSH1 0x0 CODECOPY PUSH1 0x0 RETURN INVALID PUSH1 0x80 PUSH1 0x40 MSTORE PUSH1 0x4 CALLDATASIZE LT PUSH2 0x16A JUMPI PUSH1 0x0 CALLDATALOAD PUSH1 0xE0 SHR DUP1 PUSH4 0x758DBE03 GT PUSH2 0xD1 JUMPI DUP1 PUSH4 0xAAD5C023 GT PUSH2 0x8A JUMPI DUP1 PUSH4 0xC5CC6B6A GT PUSH2 0x64 JUMPI DUP1 PUSH4 0xC5CC6B6A EQ PUSH2 0x4EB JUMPI DUP1 PUSH4 0xDD62ED3E EQ PUSH2 0x516 JUMPI DUP1 PUSH4 0xE293D316 EQ PUSH2 0x553 JUMPI DUP1 PUSH4 0xF2FDE38B EQ PUSH2 0x57C JUMPI PUSH2 0x171 JUMP JUMPDEST DUP1 PUSH4 0xAAD5C023 EQ PUSH2 0x482 JUMPI DUP1 PUSH4 0xC3C8CD80 EQ PUSH2 0x4AB JUMPI DUP1 PUSH4 0xC492F046 EQ PUSH2 0x4C2 JUMPI PUSH2 0x171 JUMP JUMPDEST DUP1 PUSH4 0x758DBE03 EQ PUSH2 0x386 JUMPI DUP1 PUSH4 0x8DA5CB5B EQ PUSH2 0x3AF JUMPI DUP1 PUSH4 0x95D89B41 EQ PUSH2 0x3DA JUMPI DUP1 PUSH4 0xA2A957BB EQ PUSH2 0x405 JUMPI DUP1 PUSH4 0xA6246D09 EQ PUSH2 0x42E JUMPI DUP1 PUSH4 0xA9059CBB EQ PUSH2 0x445 JUMPI PUSH2 0x171 JUMP JUMPDEST DUP1 PUSH4 0x49BD5A5E GT PUSH2 0x123 JUMPI DUP1 PUSH4 0x49BD5A5E EQ PUSH2 0x29C JUMPI DUP1 PUSH4 0x59D0F713 EQ PUSH2 0x2C7 JUMPI DUP1 PUSH4 0x6D8AA8F8 EQ PUSH2 0x2F2 JUMPI DUP1 PUSH4 0x6FC3EAEC EQ PUSH2 0x31B JUMPI DUP1 PUSH4 0x70A08231 EQ PUSH2 0x332 JUMPI DUP1 PUSH4 0x715018A6 EQ PUSH2 0x36F JUMPI PUSH2 0x171 JUMP JUMPDEST DUP1 PUSH4 0x6FDDE03 EQ PUSH2 0x176 JUMPI DUP1 PUSH4 0x95EA7B3 EQ PUSH2 0x1A1 JUMPI DUP1 PUSH4 0x1694505E EQ PUSH2 0x1DE JUMPI DUP1 PUSH4 0x18160DDD EQ PUSH2 0x209 JUMPI DUP1 PUSH4 0x23B872DD EQ PUSH2 0x234 JUMPI DUP1 PUSH4 0x313CE567 EQ PUSH2 0x271 JUMPI PUSH2 0x171 JUMP JUMPDEST CALLDATASIZE PUSH2 0x171 JUMPI STOP JUMPDEST PUSH1 0x0 DUP1 REVERT JUMPDEST CALLVALUE DUP1 ISZERO PUSH2 0x182 JUMPI PUSH1 0x0 DUP1 REVERT JUMPDEST POP PUSH2 0x18B PUSH2 0x5A5 JUMP JUMPDEST PUSH1 0x40 MLOAD PUSH2 0x198 SWAP2 SWAP1 PUSH2 0x2AD9 JUMP JUMPDEST PUSH1 0x40 MLOAD DUP1 SWAP2 SUB SWAP1 RETURN JUMPDEST CALLVALUE DUP1 ISZERO PUSH2 0x1AD JUMPI PUSH1 0x0 DUP1 REVERT JUMPDEST POP PUSH2 0x1C8 PUSH1 0x4 DUP1 CALLDATASIZE SUB DUP2 ADD SWAP1 PUSH2 0x1C3 SWAP2 SWAP1 PUSH2 0x2B99 JUMP JUMPDEST PUSH2 0x5E2 JUMP JUMPDEST PUSH1 0x40 MLOAD PUSH2 0x1D5 SWAP2 SWAP1 PUSH2 0x2BF4 JUMP JUMPDEST PUSH1 0x40 MLOAD DUP1 SWAP2 SUB SWAP1 RETURN JUMPDEST CALLVALUE DUP1 ISZERO PUSH2 0x1EA JUMPI PUSH1 0x0 DUP1 REVERT JUMPDEST POP PUSH2 0x1F3 PUSH2 0x600 JUMP JUMPDEST PUSH1 0x40 MLOAD PUSH2 0x200 SWAP2 SWAP1 PUSH2 0x2C6E JUMP JUMPDEST PUSH1 0x40 MLOAD DUP1 SWAP2 SUB SWAP1 RETURN JUMPDEST CALLVALUE DUP1 ISZERO PUSH2 0x215 JUMPI PUSH1 0x0 DUP1 REVERT JUMPDEST POP PUSH2 0x21E PUSH2 0x626 JUMP JUMPDEST PUSH1 0x40 MLOAD PUSH2 0x22B SWAP2 SWAP1 PUSH2 0x2C98 JUMP JUMPDEST PUSH1 0x40 MLOAD DUP1 SWAP2 SUB SWAP1 RETURN JUMPDEST CALLVALUE DUP1 ISZERO PUSH2 0x240 JUMPI PUSH1 0x0 DUP1 REVERT JUMPDEST POP PUSH2 0x25B PUSH1 0x4 DUP1 CALLDATASIZE SUB DUP2 ADD SWAP1 PUSH2 0x256 SWAP2 SWAP1 PUSH2 0x2CB3 JUMP JUMPDEST PUSH2 0x636 JUMP JUMPDEST PUSH1 0x40 MLOAD PUSH2 0x268 SWAP2 SWAP1 PUSH2 0x2BF4 JUMP JUMPDEST PUSH1 0x40 MLOAD DUP1 SWAP2 SUB SWAP1 RETURN JUMPDEST CALLVALUE DUP1 ISZERO PUSH2 0x27D JUMPI PUSH1 0x0 DUP1 REVERT JUMPDEST POP PUSH2 0x286 PUSH2 0x70F JUMP JUMPDEST PUSH1 0x40 MLOAD PUSH2 0x293 SWAP2 SWAP1 PUSH2 0x2D22 JUMP JUMPDEST PUSH1 0x40 MLOAD DUP1 SWAP2 SUB SWAP1 RETURN JUMPDEST CALLVALUE DUP1 ISZERO PUSH2 0x2A8 JUMPI PUSH1 0x0 DUP1 REVERT JUMPDEST POP PUSH2 0x2B1 PUSH2 0x718 JUMP JUMPDEST PUSH1 0x40 MLOAD PUSH2 0x2BE SWAP2 SWAP1 PUSH2 0x2D4C JUMP JUMPDEST PUSH1 0x40 MLOAD DUP1 SWAP2 SUB SWAP1 RETURN JUMPDEST CALLVALUE DUP1 ISZERO PUSH2 0x2D3 JUMPI PUSH1 0x0 DUP1 REVERT JUMPDEST POP PUSH2 0x2DC PUSH2 0x73E JUMP JUMPDEST PUSH1 0x40 MLOAD PUSH2 0x2E9 SWAP2 SWAP1 PUSH2 0x2D88 JUMP JUMPDEST PUSH1 0x40 MLOAD DUP1 SWAP2 SUB SWAP1 RETURN JUMPDEST CALLVALUE DUP1 ISZERO PUSH2 0x2FE JUMPI PUSH1 0x0 DUP1 REVERT JUMPDEST POP PUSH2 0x319 PUSH1 0x4 DUP1 CALLDATASIZE SUB DUP2 ADD SWAP1 PUSH2 0x314 SWAP2 SWAP1 PUSH2 0x2DCF JUMP JUMPDEST PUSH2 0x764 JUMP JUMPDEST STOP JUMPDEST CALLVALUE DUP1 ISZERO PUSH2 0x327 JUMPI PUSH1 0x0 DUP1 REVERT JUMPDEST POP PUSH2 0x330 PUSH2 0x85C JUMP JUMPDEST STOP JUMPDEST CALLVALUE DUP1 ISZERO PUSH2 0x33E JUMPI PUSH1 0x0 DUP1 REVERT JUMPDEST POP PUSH2 0x359 PUSH1 0x4 DUP1 CALLDATASIZE SUB DUP2 ADD SWAP1 PUSH2 0x354 SWAP2 SWAP1 PUSH2 0x2DFC JUMP JUMPDEST PUSH2 0x971 JUMP JUMPDEST PUSH1 0x40 MLOAD PUSH2 0x366 SWAP2 SWAP1 PUSH2 0x2C98 JUMP JUMPDEST PUSH1 0x40 MLOAD DUP1 SWAP2 SUB SWAP1 RETURN JUMPDEST CALLVALUE DUP1 ISZERO PUSH2 0x37B JUMPI PUSH1 0x0 DUP1 REVERT JUMPDEST POP PUSH2 0x384 PUSH2 0x9C2 JUMP JUMPDEST STOP JUMPDEST CALLVALUE DUP1 ISZERO PUSH2 0x392 JUMPI PUSH1 0x0 DUP1 REVERT JUMPDEST POP PUSH2 0x3AD PUSH1 0x4 DUP1 CALLDATASIZE SUB DUP2 ADD SWAP1 PUSH2 0x3A8 SWAP2 SWAP1 PUSH2 0x2E67 JUMP JUMPDEST PUSH2 0xB15 JUMP JUMPDEST STOP JUMPDEST CALLVALUE DUP1 ISZERO PUSH2 0x3BB JUMPI PUSH1 0x0 DUP1 REVERT JUMPDEST POP PUSH2 0x3C4 PUSH2 0xD2A JUMP JUMPDEST PUSH1 0x40 MLOAD PUSH2 0x3D1 SWAP2 SWAP1 PUSH2 0x2D4C JUMP JUMPDEST PUSH1 0x40 MLOAD DUP1 SWAP2 SUB SWAP1 RETURN JUMPDEST CALLVALUE DUP1 ISZERO PUSH2 0x3E6 JUMPI PUSH1 0x0 DUP1 REVERT JUMPDEST POP PUSH2 0x3EF PUSH2 0xD53 JUMP JUMPDEST PUSH1 0x40 MLOAD PUSH2 0x3FC SWAP2 SWAP1 PUSH2 0x2AD9 JUMP JUMPDEST PUSH1 0x40 MLOAD DUP1 SWAP2 SUB SWAP1 RETURN JUMPDEST CALLVALUE DUP1 ISZERO PUSH2 0x411 JUMPI PUSH1 0x0 DUP1 REVERT JUMPDEST POP PUSH2 0x42C PUSH1 0x4 DUP1 CALLDATASIZE SUB DUP2 ADD SWAP1 PUSH2 0x427 SWAP2 SWAP1 PUSH2 0x2E94 JUMP JUMPDEST PUSH2 0xD90 JUMP JUMPDEST STOP JUMPDEST CALLVALUE DUP1 ISZERO PUSH2 0x43A JUMPI PUSH1 0x0 DUP1 REVERT JUMPDEST POP PUSH2 0x443 PUSH2 0xF99 JUMP JUMPDEST STOP JUMPDEST CALLVALUE DUP1 ISZERO PUSH2 0x451 JUMPI PUSH1 0x0 DUP1 REVERT JUMPDEST POP PUSH2 0x46C PUSH1 0x4 DUP1 CALLDATASIZE SUB DUP2 ADD SWAP1 PUSH2 0x467 SWAP2 SWAP1 PUSH2 0x2B99 JUMP JUMPDEST PUSH2 0xFBC JUMP JUMPDEST PUSH1 0x40 MLOAD PUSH2 0x479 SWAP2 SWAP1 PUSH2 0x2BF4 JUMP JUMPDEST PUSH1 0x40 MLOAD DUP1 SWAP2 SUB SWAP1 RETURN JUMPDEST CALLVALUE DUP1 ISZERO PUSH2 0x48E JUMPI PUSH1 0x0 DUP1 REVERT JUMPDEST POP PUSH2 0x4A9 PUSH1 0x4 DUP1 CALLDATASIZE SUB DUP2 ADD SWAP1 PUSH2 0x4A4 SWAP2 SWAP1 PUSH2 0x2E67 JUMP JUMPDEST PUSH2 0xFDA JUMP JUMPDEST STOP JUMPDEST CALLVALUE DUP1 ISZERO PUSH2 0x4B7 JUMPI PUSH1 0x0 DUP1 REVERT JUMPDEST POP PUSH2 0x4C0 PUSH2 0x11EF JUMP JUMPDEST STOP JUMPDEST CALLVALUE DUP1 ISZERO PUSH2 0x4CE JUMPI PUSH1 0x0 DUP1 REVERT JUMPDEST POP PUSH2 0x4E9 PUSH1 0x4 DUP1 CALLDATASIZE SUB DUP2 ADD SWAP1 PUSH2 0x4E4 SWAP2 SWAP1 PUSH2 0x2F60 JUMP JUMPDEST PUSH2 0x130C JUMP JUMPDEST STOP JUMPDEST CALLVALUE DUP1 ISZERO PUSH2 0x4F7 JUMPI PUSH1 0x0 DUP1 REVERT JUMPDEST POP PUSH2 0x500 PUSH2 0x1446 JUMP JUMPDEST PUSH1 0x40 MLOAD PUSH2 0x50D SWAP2 SWAP1 PUSH2 0x2D4C JUMP JUMPDEST PUSH1 0x40 MLOAD DUP1 SWAP2 SUB SWAP1 RETURN JUMPDEST CALLVALUE DUP1 ISZERO PUSH2 0x522 JUMPI PUSH1 0x0 DUP1 REVERT JUMPDEST POP PUSH2 0x53D PUSH1 0x4 DUP1 CALLDATASIZE SUB DUP2 ADD SWAP1 PUSH2 0x538 SWAP2 SWAP1 PUSH2 0x2FC0 JUMP JUMPDEST PUSH2 0x146C JUMP JUMPDEST PUSH1 0x40 MLOAD PUSH2 0x54A SWAP2 SWAP1 PUSH2 0x2C98 JUMP JUMPDEST PUSH1 0x40 MLOAD DUP1 SWAP2 SUB SWAP1 RETURN JUMPDEST CALLVALUE DUP1 ISZERO PUSH2 0x55F JUMPI PUSH1 0x0 DUP1 REVERT JUMPDEST POP PUSH2 0x57A PUSH1 0x4 DUP1 CALLDATASIZE SUB DUP2 ADD SWAP1 PUSH2 0x575 SWAP2 SWAP1 PUSH2 0x2CB3 JUMP JUMPDEST PUSH2 0x14F3 JUMP JUMPDEST STOP JUMPDEST CALLVALUE DUP1 ISZERO PUSH2 0x588 JUMPI PUSH1 0x0 DUP1 REVERT JUMPDEST POP PUSH2 0x5A3 PUSH1 0x4 DUP1 CALLDATASIZE SUB DUP2 ADD SWAP1 PUSH2 0x59E SWAP2 SWAP1 PUSH2 0x2DFC JUMP JUMPDEST PUSH2 0x16B7 JUMP JUMPDEST STOP JUMPDEST PUSH1 0x60 PUSH1 0x40 MLOAD DUP1 PUSH1 0x40 ADD PUSH1 0x40 MSTORE DUP1 PUSH1 0xA DUP2 MSTORE PUSH1 0x20 ADD PUSH32 0x576F726C64205374657000000000000000000000000000000000000000000000 DUP2 MSTORE POP SWAP1 POP SWAP1 JUMP JUMPDEST PUSH1 0x0 PUSH2 0x5F6 PUSH2 0x5EF PUSH2 0x1809 JUMP JUMPDEST DUP5 DUP5 PUSH2 0x1811 JUMP JUMPDEST PUSH1 0x1 SWAP1 POP SWAP3 SWAP2 POP POP JUMP JUMPDEST PUSH1 0x11 PUSH1 0x0 SWAP1 SLOAD SWAP1 PUSH2 0x100 EXP SWAP1 DIV PUSH20 0xFFFFFFFFFFFFFFFFFFFFFFFFFFFFFFFFFFFFFFFF AND DUP2 JUMP JUMPDEST PUSH1 0x0 PUSH8 0xDE0B6B3A7640000 SWAP1 POP SWAP1 JUMP JUMPDEST PUSH1 0x0 PUSH2 0x643 DUP5 DUP5 DUP5 PUSH2 0x19DA JUMP JUMPDEST PUSH2 0x704 DUP5 PUSH2 0x64F PUSH2 0x1809 JUMP JUMPDEST PUSH2 0x6FF DUP6 PUSH1 0x40 MLOAD DUP1 PUSH1 0x60 ADD PUSH1 0x40 MSTORE DUP1 PUSH1 0x28 DUP2 MSTORE PUSH1 0x20 ADD PUSH2 0x3A34 PUSH1 0x28 SWAP2 CODECOPY PUSH1 0x4 PUSH1 0x0 DUP12 PUSH20 0xFFFFFFFFFFFFFFFFFFFFFFFFFFFFFFFFFFFFFFFF AND PUSH20 0xFFFFFFFFFFFFFFFFFFFFFFFFFFFFFFFFFFFFFFFF AND DUP2 MSTORE PUSH1 0x20 ADD SWAP1 DUP2 MSTORE PUSH1 0x20 ADD PUSH1 0x0 KECCAK256 PUSH1 0x0 PUSH2 0x6B5 PUSH2 0x1809 JUMP JUMPDEST PUSH20 0xFFFFFFFFFFFFFFFFFFFFFFFFFFFFFFFFFFFFFFFF AND PUSH20 0xFFFFFFFFFFFFFFFFFFFFFFFFFFFFFFFFFFFFFFFF AND DUP2 MSTORE PUSH1 0x20 ADD SWAP1 DUP2 MSTORE PUSH1 0x20 ADD PUSH1 0x0 KECCAK256 SLOAD PUSH2 0x1F4A SWAP1 SWAP3 SWAP2 SWAP1 PUSH4 0xFFFFFFFF AND JUMP JUMPDEST PUSH2 0x1811 JUMP JUMPDEST PUSH1 0x1 SWAP1 POP SWAP4 SWAP3 POP POP POP JUMP JUMPDEST PUSH1 0x0 PUSH1 0x9 SWAP1 POP SWAP1 JUMP JUMPDEST PUSH1 0x14 PUSH1 0x0 SWAP1 SLOAD SWAP1 PUSH2 0x100 EXP SWAP1 DIV PUSH20 0xFFFFFFFFFFFFFFFFFFFFFFFFFFFFFFFFFFFFFFFF AND DUP2 JUMP JUMPDEST PUSH1 0x12 PUSH1 0x0 SWAP1 SLOAD SWAP1 PUSH2 0x100 EXP SWAP1 DIV PUSH20 0xFFFFFFFFFFFFFFFFFFFFFFFFFFFFFFFFFFFFFFFF AND DUP2 JUMP JUMPDEST PUSH2 0x76C PUSH2 0x1809 JUMP JUMPDEST PUSH20 0xFFFFFFFFFFFFFFFFFFFFFFFFFFFFFFFFFFFFFFFF AND PUSH2 0x78A PUSH2 0xD2A JUMP JUMPDEST PUSH20 0xFFFFFFFFFFFFFFFFFFFFFFFFFFFFFFFFFFFFFFFF AND EQ DUP1 PUSH2 0x800 JUMPI POP PUSH2 0x7AF PUSH2 0x1809 JUMP JUMPDEST PUSH20 0xFFFFFFFFFFFFFFFFFFFFFFFFFFFFFFFFFFFFFFFF AND PUSH1 0xE PUSH1 0x0 SWAP1 SLOAD SWAP1 PUSH2 0x100 EXP SWAP1 DIV PUSH20 0xFFFFFFFFFFFFFFFFFFFFFFFFFFFFFFFFFFFFFFFF AND PUSH20 0xFFFFFFFFFFFFFFFFFFFFFFFFFFFFFFFFFFFFFFFF AND EQ JUMPDEST PUSH2 0x83F JUMPI PUSH1 0x40 MLOAD PUSH32 0x8C379A000000000000000000000000000000000000000000000000000000000 DUP2 MSTORE PUSH1 0x4 ADD PUSH2 0x836 SWAP1 PUSH2 0x304C JUMP JUMPDEST PUSH1 0x40 MLOAD DUP1 SWAP2 SUB SWAP1 REVERT JUMPDEST DUP1 PUSH1 0x14 PUSH1 0x15 PUSH2 0x100 EXP DUP2 SLOAD DUP2 PUSH1 0xFF MUL NOT AND SWAP1 DUP4 ISZERO ISZERO MUL OR SWAP1 SSTORE POP POP JUMP JUMPDEST PUSH1 0xE PUSH1 0x0 SWAP1 SLOAD SWAP1 PUSH2 0x100 EXP SWAP1 DIV PUSH20 0xFFFFFFFFFFFFFFFFFFFFFFFFFFFFFFFFFFFFFFFF AND PUSH20 0xFFFFFFFFFFFFFFFFFFFFFFFFFFFFFFFFFFFFFFFF AND PUSH2 0x89D PUSH2 0x1809 JUMP JUMPDEST PUSH20 0xFFFFFFFFFFFFFFFFFFFFFFFFFFFFFFFFFFFFFFFF AND EQ DUP1 PUSH2 0x913 JUMPI POP PUSH1 0xF PUSH1 0x0 SWAP1 SLOAD SWAP1 PUSH2 0x100 EXP SWAP1 DIV PUSH20 0xFFFFFFFFFFFFFFFFFFFFFFFFFFFFFFFFFFFFFFFF AND PUSH20 0xFFFFFFFFFFFFFFFFFFFFFFFFFFFFFFFFFFFFFFFF AND PUSH2 0x8FB PUSH2 0x1809 JUMP JUMPDEST PUSH20 0xFFFFFFFFFFFFFFFFFFFFFFFFFFFFFFFFFFFFFFFF AND EQ JUMPDEST DUP1 PUSH2 0x957 JUMPI POP PUSH2 0x921 PUSH2 0xD2A JUMP JUMPDEST PUSH20 0xFFFFFFFFFFFFFFFFFFFFFFFFFFFFFFFFFFFFFFFF AND PUSH2 0x93F PUSH2 0x1809 JUMP JUMPDEST PUSH20 0xFFFFFFFFFFFFFFFFFFFFFFFFFFFFFFFFFFFFFFFF AND EQ JUMPDEST PUSH2 0x960 JUMPI PUSH1 0x0 DUP1 REVERT JUMPDEST PUSH1 0x0 SELFBALANCE SWAP1 POP PUSH2 0x96E DUP2 PUSH2 0x1FAE JUMP JUMPDEST POP JUMP JUMPDEST PUSH1 0x0 PUSH2 0x9BB PUSH1 0x2 PUSH1 0x0 DUP5 PUSH20 0xFFFFFFFFFFFFFFFFFFFFFFFFFFFFFFFFFFFFFFFF AND PUSH20 0xFFFFFFFFFFFFFFFFFFFFFFFFFFFFFFFFFFFFFFFF AND DUP2 MSTORE PUSH1 0x20 ADD SWAP1 DUP2 MSTORE PUSH1 0x20 ADD PUSH1 0x0 KECCAK256 SLOAD PUSH2 0x20A9 JUMP JUMPDEST SWAP1 POP SWAP2 SWAP1 POP JUMP JUMPDEST PUSH2 0x9CA PUSH2 0x1809 JUMP JUMPDEST PUSH20 0xFFFFFFFFFFFFFFFFFFFFFFFFFFFFFFFFFFFFFFFF AND PUSH1 0x0 DUP1 SLOAD SWAP1 PUSH2 0x100 EXP SWAP1 DIV PUSH20 0xFFFFFFFFFFFFFFFFFFFFFFFFFFFFFFFFFFFFFFFF AND PUSH20 0xFFFFFFFFFFFFFFFFFFFFFFFFFFFFFFFFFFFFFFFF AND EQ PUSH2 0xA57 JUMPI PUSH1 0x40 MLOAD PUSH32 0x8C379A000000000000000000000000000000000000000000000000000000000 DUP2 MSTORE PUSH1 0x4 ADD PUSH2 0xA4E SWAP1 PUSH2 0x30B8 JUMP JUMPDEST PUSH1 0x40 MLOAD DUP1 SWAP2 SUB SWAP1 REVERT JUMPDEST PUSH1 0x0 PUSH20 0xFFFFFFFFFFFFFFFFFFFFFFFFFFFFFFFFFFFFFFFF AND PUSH1 0x0 DUP1 SLOAD SWAP1 PUSH2 0x100 EXP SWAP1 DIV PUSH20 0xFFFFFFFFFFFFFFFFFFFFFFFFFFFFFFFFFFFFFFFF AND PUSH20 0xFFFFFFFFFFFFFFFFFFFFFFFFFFFFFFFFFFFFFFFF AND PUSH32 0x8BE0079C531659141344CD1FD0A4F28419497F9722A3DAAFE3B4186F6B6457E0 PUSH1 0x40 MLOAD PUSH1 0x40 MLOAD DUP1 SWAP2 SUB SWAP1 LOG3 PUSH1 0x0 DUP1 PUSH1 0x0 PUSH2 0x100 EXP DUP2 SLOAD DUP2 PUSH20 0xFFFFFFFFFFFFFFFFFFFFFFFFFFFFFFFFFFFFFFFF MUL NOT AND SWAP1 DUP4 PUSH20 0xFFFFFFFFFFFFFFFFFFFFFFFFFFFFFFFFFFFFFFFF AND MUL OR SWAP1 SSTORE POP JUMP JUMPDEST PUSH2 0xB1D PUSH2 0x1809 JUMP JUMPDEST PUSH20 0xFFFFFFFFFFFFFFFFFFFFFFFFFFFFFFFFFFFFFFFF AND PUSH2 0xB3B PUSH2 0xD2A JUMP JUMPDEST PUSH20 0xFFFFFFFFFFFFFFFFFFFFFFFFFFFFFFFFFFFFFFFF AND EQ DUP1 PUSH2 0xBB1 JUMPI POP PUSH2 0xB60 PUSH2 0x1809 JUMP JUMPDEST PUSH20 0xFFFFFFFFFFFFFFFFFFFFFFFFFFFFFFFFFFFFFFFF AND PUSH1 0xE PUSH1 0x0 SWAP1 SLOAD SWAP1 PUSH2 0x100 EXP SWAP1 DIV PUSH20 0xFFFFFFFFFFFFFFFFFFFFFFFFFFFFFFFFFFFFFFFF AND PUSH20 0xFFFFFFFFFFFFFFFFFFFFFFFFFFFFFFFFFFFFFFFF AND EQ JUMPDEST PUSH2 0xBF0 JUMPI PUSH1 0x40 MLOAD PUSH32 0x8C379A000000000000000000000000000000000000000000000000000000000 DUP2 MSTORE PUSH1 0x4 ADD PUSH2 0xBE7 SWAP1 PUSH2 0x304C JUMP JUMPDEST PUSH1 0x40 MLOAD DUP1 SWAP2 SUB SWAP1 REVERT JUMPDEST DUP1 PUSH20 0xFFFFFFFFFFFFFFFFFFFFFFFFFFFFFFFFFFFFFFFF AND PUSH1 0xF PUSH1 0x0 SWAP1 SLOAD SWAP1 PUSH2 0x100 EXP SWAP1 DIV PUSH20 0xFFFFFFFFFFFFFFFFFFFFFFFFFFFFFFFFFFFFFFFF AND PUSH20 0xFFFFFFFFFFFFFFFFFFFFFFFFFFFFFFFFFFFFFFFF AND PUSH32 0xA64373A629BC0C09EACF8A9CC2C7B070FA0A8B7E2E9B8AAEE408A3C02EB1676B PUSH1 0x40 MLOAD PUSH1 0x40 MLOAD DUP1 SWAP2 SUB SWAP1 LOG3 DUP1 PUSH1 0xF PUSH1 0x0 PUSH2 0x100 EXP DUP2 SLOAD DUP2 PUSH20 0xFFFFFFFFFFFFFFFFFFFFFFFFFFFFFFFFFFFFFFFF MUL NOT AND SWAP1 DUP4 PUSH20 0xFFFFFFFFFFFFFFFFFFFFFFFFFFFFFFFFFFFFFFFF AND MUL OR SWAP1 SSTORE POP PUSH1 0x1 PUSH1 0x5 PUSH1 0x0 PUSH1 0xF PUSH1 0x0 SWAP1 SLOAD SWAP1 PUSH2 0x100 EXP SWAP1 DIV PUSH20 0xFFFFFFFFFFFFFFFFFFFFFFFFFFFFFFFFFFFFFFFF AND PUSH20 0xFFFFFFFFFFFFFFFFFFFFFFFFFFFFFFFFFFFFFFFF AND PUSH20 0xFFFFFFFFFFFFFFFFFFFFFFFFFFFFFFFFFFFFFFFF AND DUP2 MSTORE PUSH1 0x20 ADD SWAP1 DUP2 MSTORE PUSH1 0x20 ADD PUSH1 0x0 KECCAK256 PUSH1 0x0 PUSH2 0x100 EXP DUP2 SLOAD DUP2 PUSH1 0xFF MUL NOT AND SWAP1 DUP4 ISZERO ISZERO MUL OR SWAP1 SSTORE POP POP JUMP JUMPDEST PUSH1 0x0 DUP1 PUSH1 0x0 SWAP1 SLOAD SWAP1 PUSH2 0x100 EXP SWAP1 DIV PUSH20 0xFFFFFFFFFFFFFFFFFFFFFFFFFFFFFFFFFFFFFFFF AND SWAP1 POP SWAP1 JUMP JUMPDEST PUSH1 0x60 PUSH1 0x40 MLOAD DUP1 PUSH1 0x40 ADD PUSH1 0x40 MSTORE DUP1 PUSH1 0x3 DUP2 MSTORE PUSH1 0x20 ADD PUSH32 0x5753500000000000000000000000000000000000000000000000000000000000 DUP2 MSTORE POP SWAP1 POP SWAP1 JUMP JUMPDEST PUSH2 0xD98 PUSH2 0x1809 JUMP JUMPDEST PUSH20 0xFFFFFFFFFFFFFFFFFFFFFFFFFFFFFFFFFFFFFFFF AND PUSH2 0xDB6 PUSH2 0xD2A JUMP JUMPDEST PUSH20 0xFFFFFFFFFFFFFFFFFFFFFFFFFFFFFFFFFFFFFFFF AND EQ DUP1 PUSH2 0xE2C JUMPI POP PUSH2 0xDDB PUSH2 0x1809 JUMP JUMPDEST PUSH20 0xFFFFFFFFFFFFFFFFFFFFFFFFFFFFFFFFFFFFFFFF AND PUSH1 0xE PUSH1 0x0 SWAP1 SLOAD SWAP1 PUSH2 0x100 EXP SWAP1 DIV PUSH20 0xFFFFFFFFFFFFFFFFFFFFFFFFFFFFFFFFFFFFFFFF AND PUSH20 0xFFFFFFFFFFFFFFFFFFFFFFFFFFFFFFFFFFFFFFFF AND EQ JUMPDEST PUSH2 0xE6B JUMPI PUSH1 0x40 MLOAD PUSH32 0x8C379A000000000000000000000000000000000000000000000000000000000 DUP2 MSTORE PUSH1 0x4 ADD PUSH2 0xE62 SWAP1 PUSH2 0x304C JUMP JUMPDEST PUSH1 0x40 MLOAD DUP1 SWAP2 SUB SWAP1 REVERT JUMPDEST PUSH1 0xB DUP5 LT PUSH2 0xEAE JUMPI PUSH1 0x40 MLOAD PUSH32 0x8C379A000000000000000000000000000000000000000000000000000000000 DUP2 MSTORE PUSH1 0x4 ADD PUSH2 0xEA5 SWAP1 PUSH2 0x3124 JUMP JUMPDEST PUSH1 0x40 MLOAD DUP1 SWAP2 SUB SWAP1 REVERT JUMPDEST PUSH1 0xB DUP4 LT PUSH2 0xEF1 JUMPI PUSH1 0x40 MLOAD PUSH32 0x8C379A000000000000000000000000000000000000000000000000000000000 DUP2 MSTORE PUSH1 0x4 ADD PUSH2 0xEE8 SWAP1 PUSH2 0x3124 JUMP JUMPDEST PUSH1 0x40 MLOAD DUP1 SWAP2 SUB SWAP1 REVERT JUMPDEST PUSH1 0x7 DUP3 LT PUSH2 0xF34 JUMPI PUSH1 0x40 MLOAD PUSH32 0x8C379A000000000000000000000000000000000000000000000000000000000 DUP2 MSTORE PUSH1 0x4 ADD PUSH2 0xF2B SWAP1 PUSH2 0x3190 JUMP JUMPDEST PUSH1 0x40 MLOAD DUP1 SWAP2 SUB SWAP1 REVERT JUMPDEST PUSH1 0x7 DUP2 LT PUSH2 0xF77 JUMPI PUSH1 0x40 MLOAD PUSH32 0x8C379A000000000000000000000000000000000000000000000000000000000 DUP2 MSTORE PUSH1 0x4 ADD PUSH2 0xF6E SWAP1 PUSH2 0x3190 JUMP JUMPDEST PUSH1 0x40 MLOAD DUP1 SWAP2 SUB SWAP1 REVERT JUMPDEST DUP4 PUSH1 0x8 DUP2 SWAP1 SSTORE POP DUP3 PUSH1 0xA DUP2 SWAP1 SSTORE POP DUP2 PUSH1 0x9 DUP2 SWAP1 SSTORE POP DUP1 PUSH1 0xB DUP2 SWAP1 SSTORE POP POP POP POP POP JUMP JUMPDEST PUSH1 0x0 PUSH2 0xFA4 ADDRESS PUSH2 0x971 JUMP JUMPDEST SWAP1 POP PUSH1 0x0 DUP2 GT ISZERO PUSH2 0xFB9 JUMPI PUSH2 0xFB8 DUP2 PUSH2 0x2117 JUMP JUMPDEST JUMPDEST POP JUMP JUMPDEST PUSH1 0x0 PUSH2 0xFD0 PUSH2 0xFC9 PUSH2 0x1809 JUMP JUMPDEST DUP5 DUP5 PUSH2 0x19DA JUMP JUMPDEST PUSH1 0x1 SWAP1 POP SWAP3 SWAP2 POP POP JUMP JUMPDEST PUSH2 0xFE2 PUSH2 0x1809 JUMP JUMPDEST PUSH20 0xFFFFFFFFFFFFFFFFFFFFFFFFFFFFFFFFFFFFFFFF AND PUSH2 0x1000 PUSH2 0xD2A JUMP JUMPDEST PUSH20 0xFFFFFFFFFFFFFFFFFFFFFFFFFFFFFFFFFFFFFFFF AND EQ DUP1 PUSH2 0x1076 JUMPI POP PUSH2 0x1025 PUSH2 0x1809 JUMP JUMPDEST PUSH20 0xFFFFFFFFFFFFFFFFFFFFFFFFFFFFFFFFFFFFFFFF AND PUSH1 0xE PUSH1 0x0 SWAP1 SLOAD SWAP1 PUSH2 0x100 EXP SWAP1 DIV PUSH20 0xFFFFFFFFFFFFFFFFFFFFFFFFFFFFFFFFFFFFFFFF AND PUSH20 0xFFFFFFFFFFFFFFFFFFFFFFFFFFFFFFFFFFFFFFFF AND EQ JUMPDEST PUSH2 0x10B5 JUMPI PUSH1 0x40 MLOAD PUSH32 0x8C379A000000000000000000000000000000000000000000000000000000000 DUP2 MSTORE PUSH1 0x4 ADD PUSH2 0x10AC SWAP1 PUSH2 0x304C JUMP JUMPDEST PUSH1 0x40 MLOAD DUP1 SWAP2 SUB SWAP1 REVERT JUMPDEST DUP1 PUSH20 0xFFFFFFFFFFFFFFFFFFFFFFFFFFFFFFFFFFFFFFFF AND PUSH1 0xE PUSH1 0x0 SWAP1 SLOAD SWAP1 PUSH2 0x100 EXP SWAP1 DIV PUSH20 0xFFFFFFFFFFFFFFFFFFFFFFFFFFFFFFFFFFFFFFFF AND PUSH20 0xFFFFFFFFFFFFFFFFFFFFFFFFFFFFFFFFFFFFFFFF AND PUSH32 0xFBBC329437E8C79F847E170730AD6DD04106B7511CAD70D06D635886D92DE83C PUSH1 0x40 MLOAD PUSH1 0x40 MLOAD DUP1 SWAP2 SUB SWAP1 LOG3 DUP1 PUSH1 0xE PUSH1 0x0 PUSH2 0x100 EXP DUP2 SLOAD DUP2 PUSH20 0xFFFFFFFFFFFFFFFFFFFFFFFFFFFFFFFFFFFFFFFF MUL NOT AND SWAP1 DUP4 PUSH20 0xFFFFFFFFFFFFFFFFFFFFFFFFFFFFFFFFFFFFFFFF AND MUL OR SWAP1 SSTORE POP PUSH1 0x1 PUSH1 0x5 PUSH1 0x0 PUSH1 0xE PUSH1 0x0 SWAP1 SLOAD SWAP1 PUSH2 0x100 EXP SWAP1 DIV PUSH20 0xFFFFFFFFFFFFFFFFFFFFFFFFFFFFFFFFFFFFFFFF AND PUSH20 0xFFFFFFFFFFFFFFFFFFFFFFFFFFFFFFFFFFFFFFFF AND PUSH20 0xFFFFFFFFFFFFFFFFFFFFFFFFFFFFFFFFFFFFFFFF AND DUP2 MSTORE PUSH1 0x20 ADD SWAP1 DUP2 MSTORE PUSH1 0x20 ADD PUSH1 0x0 KECCAK256 PUSH1 0x0 PUSH2 0x100 EXP DUP2 SLOAD DUP2 PUSH1 0xFF MUL NOT AND SWAP1 DUP4 ISZERO ISZERO MUL OR SWAP1 SSTORE POP POP JUMP JUMPDEST PUSH1 0xE PUSH1 0x0 SWAP1 SLOAD SWAP1 PUSH2 0x100 EXP SWAP1 DIV PUSH20 0xFFFFFFFFFFFFFFFFFFFFFFFFFFFFFFFFFFFFFFFF AND PUSH20 0xFFFFFFFFFFFFFFFFFFFFFFFFFFFFFFFFFFFFFFFF AND PUSH2 0x1230 PUSH2 0x1809 JUMP JUMPDEST PUSH20 0xFFFFFFFFFFFFFFFFFFFFFFFFFFFFFFFFFFFFFFFF AND EQ DUP1 PUSH2 0x12A6 JUMPI POP PUSH1 0xF PUSH1 0x0 SWAP1 SLOAD SWAP1 PUSH2 0x100 EXP SWAP1 DIV PUSH20 0xFFFFFFFFFFFFFFFFFFFFFFFFFFFFFFFFFFFFFFFF AND PUSH20 0xFFFFFFFFFFFFFFFFFFFFFFFFFFFFFFFFFFFFFFFF AND PUSH2 0x128E PUSH2 0x1809 JUMP JUMPDEST PUSH20 0xFFFFFFFFFFFFFFFFFFFFFFFFFFFFFFFFFFFFFFFF AND EQ JUMPDEST DUP1 PUSH2 0x12EA JUMPI POP PUSH2 0x12B4 PUSH2 0xD2A JUMP JUMPDEST PUSH20 0xFFFFFFFFFFFFFFFFFFFFFFFFFFFFFFFFFFFFFFFF AND PUSH2 0x12D2 PUSH2 0x1809 JUMP JUMPDEST PUSH20 0xFFFFFFFFFFFFFFFFFFFFFFFFFFFFFFFFFFFFFFFF AND EQ JUMPDEST PUSH2 0x12F3 JUMPI PUSH1 0x0 DUP1 REVERT JUMPDEST PUSH1 0x0 PUSH2 0x12FE ADDRESS PUSH2 0x971 JUMP JUMPDEST SWAP1 POP PUSH2 0x1309 DUP2 PUSH2 0x2117 JUMP JUMPDEST POP JUMP JUMPDEST PUSH2 0x1314 PUSH2 0x1809 JUMP JUMPDEST PUSH20 0xFFFFFFFFFFFFFFFFFFFFFFFFFFFFFFFFFFFFFFFF AND PUSH1 0x0 DUP1 SLOAD SWAP1 PUSH2 0x100 EXP SWAP1 DIV PUSH20 0xFFFFFFFFFFFFFFFFFFFFFFFFFFFFFFFFFFFFFFFF AND PUSH20 0xFFFFFFFFFFFFFFFFFFFFFFFFFFFFFFFFFFFFFFFF AND EQ PUSH2 0x13A1 JUMPI PUSH1 0x40 MLOAD PUSH32 0x8C379A000000000000000000000000000000000000000000000000000000000 DUP2 MSTORE PUSH1 0x4 ADD PUSH2 0x1398 SWAP1 PUSH2 0x30B8 JUMP JUMPDEST PUSH1 0x40 MLOAD DUP1 SWAP2 SUB SWAP1 REVERT JUMPDEST PUSH1 0x0 JUMPDEST DUP4 DUP4 SWAP1 POP DUP2 LT ISZERO PUSH2 0x1440 JUMPI DUP2 PUSH1 0x5 PUSH1 0x0 DUP7 DUP7 DUP6 DUP2 DUP2 LT PUSH2 0x13C7 JUMPI PUSH2 0x13C6 PUSH2 0x31B0 JUMP JUMPDEST JUMPDEST SWAP1 POP PUSH1 0x20 MUL ADD PUSH1 0x20 DUP2 ADD SWAP1 PUSH2 0x13DC SWAP2 SWAP1 PUSH2 0x2DFC JUMP JUMPDEST PUSH20 0xFFFFFFFFFFFFFFFFFFFFFFFFFFFFFFFFFFFFFFFF AND PUSH20 0xFFFFFFFFFFFFFFFFFFFFFFFFFFFFFFFFFFFFFFFF AND DUP2 MSTORE PUSH1 0x20 ADD SWAP1 DUP2 MSTORE PUSH1 0x20 ADD PUSH1 0x0 KECCAK256 PUSH1 0x0 PUSH2 0x100 EXP DUP2 SLOAD DUP2 PUSH1 0xFF MUL NOT AND SWAP1 DUP4 ISZERO ISZERO MUL OR SWAP1 SSTORE POP DUP1 DUP1 PUSH2 0x1438 SWAP1 PUSH2 0x320E JUMP JUMPDEST SWAP2 POP POP PUSH2 0x13A4 JUMP JUMPDEST POP POP POP POP JUMP JUMPDEST PUSH1 0x13 PUSH1 0x0 SWAP1 SLOAD SWAP1 PUSH2 0x100 EXP SWAP1 DIV PUSH20 0xFFFFFFFFFFFFFFFFFFFFFFFFFFFFFFFFFFFFFFFF AND DUP2 JUMP JUMPDEST PUSH1 0x0 PUSH1 0x4 PUSH1 0x0 DUP5 PUSH20 0xFFFFFFFFFFFFFFFFFFFFFFFFFFFFFFFFFFFFFFFF AND PUSH20 0xFFFFFFFFFFFFFFFFFFFFFFFFFFFFFFFFFFFFFFFF AND DUP2 MSTORE PUSH1 0x20 ADD SWAP1 DUP2 MSTORE PUSH1 0x20 ADD PUSH1 0x0 KECCAK256 PUSH1 0x0 DUP4 PUSH20 0xFFFFFFFFFFFFFFFFFFFFFFFFFFFFFFFFFFFFFFFF AND PUSH20 0xFFFFFFFFFFFFFFFFFFFFFFFFFFFFFFFFFFFFFFFF AND DUP2 MSTORE PUSH1 0x20 ADD SWAP1 DUP2 MSTORE PUSH1 0x20 ADD PUSH1 0x0 KECCAK256 SLOAD SWAP1 POP SWAP3 SWAP2 POP POP JUMP JUMPDEST PUSH2 0x14FB PUSH2 0x1809 JUMP JUMPDEST PUSH20 0xFFFFFFFFFFFFFFFFFFFFFFFFFFFFFFFFFFFFFFFF AND PUSH2 0x1519 PUSH2 0xD2A JUMP JUMPDEST PUSH20 0xFFFFFFFFFFFFFFFFFFFFFFFFFFFFFFFFFFFFFFFF AND EQ DUP1 PUSH2 0x158F JUMPI POP PUSH2 0x153E PUSH2 0x1809 JUMP JUMPDEST PUSH20 0xFFFFFFFFFFFFFFFFFFFFFFFFFFFFFFFFFFFFFFFF AND PUSH1 0xE PUSH1 0x0 SWAP1 SLOAD SWAP1 PUSH2 0x100 EXP SWAP1 DIV PUSH20 0xFFFFFFFFFFFFFFFFFFFFFFFFFFFFFFFFFFFFFFFF AND PUSH20 0xFFFFFFFFFFFFFFFFFFFFFFFFFFFFFFFFFFFFFFFF AND EQ JUMPDEST PUSH2 0x15CE JUMPI PUSH1 0x40 MLOAD PUSH32 0x8C379A000000000000000000000000000000000000000000000000000000000 DUP2 MSTORE PUSH1 0x4 ADD PUSH2 0x15C5 SWAP1 PUSH2 0x304C JUMP JUMPDEST PUSH1 0x40 MLOAD DUP1 SWAP2 SUB SWAP1 REVERT JUMPDEST DUP2 PUSH20 0xFFFFFFFFFFFFFFFFFFFFFFFFFFFFFFFFFFFFFFFF AND DUP4 PUSH20 0xFFFFFFFFFFFFFFFFFFFFFFFFFFFFFFFFFFFFFFFF AND PUSH32 0x47C33AA230EB5FD181505AA7BEFEADDD9B8A6F983989CEA73A7868448C3A9ED9 DUP4 PUSH1 0x40 MLOAD PUSH2 0x162B SWAP2 SWAP1 PUSH2 0x2C98 JUMP JUMPDEST PUSH1 0x40 MLOAD DUP1 SWAP2 SUB SWAP1 LOG3 DUP3 PUSH20 0xFFFFFFFFFFFFFFFFFFFFFFFFFFFFFFFFFFFFFFFF AND PUSH4 0xA9059CBB DUP4 DUP4 PUSH1 0x40 MLOAD DUP4 PUSH4 0xFFFFFFFF AND PUSH1 0xE0 SHL DUP2 MSTORE PUSH1 0x4 ADD PUSH2 0x166E SWAP3 SWAP2 SWAP1 PUSH2 0x3256 JUMP JUMPDEST PUSH1 0x20 PUSH1 0x40 MLOAD DUP1 DUP4 SUB DUP2 PUSH1 0x0 DUP8 GAS CALL ISZERO DUP1 ISZERO PUSH2 0x168D JUMPI RETURNDATASIZE PUSH1 0x0 DUP1 RETURNDATACOPY RETURNDATASIZE PUSH1 0x0 REVERT JUMPDEST POP POP POP POP PUSH1 0x40 MLOAD RETURNDATASIZE PUSH1 0x1F NOT PUSH1 0x1F DUP3 ADD AND DUP3 ADD DUP1 PUSH1 0x40 MSTORE POP DUP2 ADD SWAP1 PUSH2 0x16B1 SWAP2 SWAP1 PUSH2 0x3294 JUMP JUMPDEST POP POP POP POP JUMP JUMPDEST PUSH2 0x16BF PUSH2 0x1809 JUMP JUMPDEST PUSH20 0xFFFFFFFFFFFFFFFFFFFFFFFFFFFFFFFFFFFFFFFF AND PUSH1 0x0 DUP1 SLOAD SWAP1 PUSH2 0x100 EXP SWAP1 DIV PUSH20 0xFFFFFFFFFFFFFFFFFFFFFFFFFFFFFFFFFFFFFFFF AND PUSH20 0xFFFFFFFFFFFFFFFFFFFFFFFFFFFFFFFFFFFFFFFF AND EQ PUSH2 0x174C JUMPI PUSH1 0x40 MLOAD PUSH32 0x8C379A000000000000000000000000000000000000000000000000000000000 DUP2 MSTORE PUSH1 0x4 ADD PUSH2 0x1743 SWAP1 PUSH2 0x30B8 JUMP JUMPDEST PUSH1 0x40 MLOAD DUP1 SWAP2 SUB SWAP1 REVERT JUMPDEST DUP1 PUSH20 0xFFFFFFFFFFFFFFFFFFFFFFFFFFFFFFFFFFFFFFFF AND PUSH1 0x0 DUP1 SLOAD SWAP1 PUSH2 0x100 EXP SWAP1 DIV PUSH20 0xFFFFFFFFFFFFFFFFFFFFFFFFFFFFFFFFFFFFFFFF AND PUSH20 0xFFFFFFFFFFFFFFFFFFFFFFFFFFFFFFFFFFFFFFFF AND PUSH32 0x8BE0079C531659141344CD1FD0A4F28419497F9722A3DAAFE3B4186F6B6457E0 PUSH1 0x40 MLOAD PUSH1 0x40 MLOAD DUP1 SWAP2 SUB SWAP1 LOG3 DUP1 PUSH1 0x0 DUP1 PUSH2 0x100 EXP DUP2 SLOAD DUP2 PUSH20 0xFFFFFFFFFFFFFFFFFFFFFFFFFFFFFFFFFFFFFFFF MUL NOT AND SWAP1 DUP4 PUSH20 0xFFFFFFFFFFFFFFFFFFFFFFFFFFFFFFFFFFFFFFFF AND MUL OR SWAP1 SSTORE POP POP JUMP JUMPDEST PUSH1 0x0 CALLER SWAP1 POP SWAP1 JUMP JUMPDEST PUSH1 0x0 PUSH20 0xFFFFFFFFFFFFFFFFFFFFFFFFFFFFFFFFFFFFFFFF AND DUP4 PUSH20 0xFFFFFFFFFFFFFFFFFFFFFFFFFFFFFFFFFFFFFFFF AND SUB PUSH2 0x1880 JUMPI PUSH1 0x40 MLOAD PUSH32 0x8C379A000000000000000000000000000000000000000000000000000000000 DUP2 MSTORE PUSH1 0x4 ADD PUSH2 0x1877 SWAP1 PUSH2 0x3333 JUMP JUMPDEST PUSH1 0x40 MLOAD DUP1 SWAP2 SUB SWAP1 REVERT JUMPDEST PUSH1 0x0 PUSH20 0xFFFFFFFFFFFFFFFFFFFFFFFFFFFFFFFFFFFFFFFF AND DUP3 PUSH20 0xFFFFFFFFFFFFFFFFFFFFFFFFFFFFFFFFFFFFFFFF AND SUB PUSH2 0x18EF JUMPI PUSH1 0x40 MLOAD PUSH32 0x8C379A000000000000000000000000000000000000000000000000000000000 DUP2 MSTORE PUSH1 0x4 ADD PUSH2 0x18E6 SWAP1 PUSH2 0x33C5 JUMP JUMPDEST PUSH1 0x40 MLOAD DUP1 SWAP2 SUB SWAP1 REVERT JUMPDEST DUP1 PUSH1 0x4 PUSH1 0x0 DUP6 PUSH20 0xFFFFFFFFFFFFFFFFFFFFFFFFFFFFFFFFFFFFFFFF AND PUSH20 0xFFFFFFFFFFFFFFFFFFFFFFFFFFFFFFFFFFFFFFFF AND DUP2 MSTORE PUSH1 0x20 ADD SWAP1 DUP2 MSTORE PUSH1 0x20 ADD PUSH1 0x0 KECCAK256 PUSH1 0x0 DUP5 PUSH20 0xFFFFFFFFFFFFFFFFFFFFFFFFFFFFFFFFFFFFFFFF AND PUSH20 0xFFFFFFFFFFFFFFFFFFFFFFFFFFFFFFFFFFFFFFFF AND DUP2 MSTORE PUSH1 0x20 ADD SWAP1 DUP2 MSTORE PUSH1 0x20 ADD PUSH1 0x0 KECCAK256 DUP2 SWAP1 SSTORE POP DUP2 PUSH20 0xFFFFFFFFFFFFFFFFFFFFFFFFFFFFFFFFFFFFFFFF AND DUP4 PUSH20 0xFFFFFFFFFFFFFFFFFFFFFFFFFFFFFFFFFFFFFFFF AND PUSH32 0x8C5BE1E5EBEC7D5BD14F71427D1E84F3DD0314C0F7B2291E5B200AC8C7C3B925 DUP4 PUSH1 0x40 MLOAD PUSH2 0x19CD SWAP2 SWAP1 PUSH2 0x2C98 JUMP JUMPDEST PUSH1 0x40 MLOAD DUP1 SWAP2 SUB SWAP1 LOG3 POP POP POP JUMP JUMPDEST PUSH1 0x0 PUSH20 0xFFFFFFFFFFFFFFFFFFFFFFFFFFFFFFFFFFFFFFFF AND DUP4 PUSH20 0xFFFFFFFFFFFFFFFFFFFFFFFFFFFFFFFFFFFFFFFF AND SUB PUSH2 0x1A49 JUMPI PUSH1 0x40 MLOAD PUSH32 0x8C379A000000000000000000000000000000000000000000000000000000000 DUP2 MSTORE PUSH1 0x4 ADD PUSH2 0x1A40 SWAP1 PUSH2 0x3457 JUMP JUMPDEST PUSH1 0x40 MLOAD DUP1 SWAP2 SUB SWAP1 REVERT JUMPDEST PUSH1 0x0 PUSH20 0xFFFFFFFFFFFFFFFFFFFFFFFFFFFFFFFFFFFFFFFF AND DUP3 PUSH20 0xFFFFFFFFFFFFFFFFFFFFFFFFFFFFFFFFFFFFFFFF AND SUB PUSH2 0x1AB8 JUMPI PUSH1 0x40 MLOAD PUSH32 0x8C379A000000000000000000000000000000000000000000000000000000000 DUP2 MSTORE PUSH1 0x4 ADD PUSH2 0x1AAF SWAP1 PUSH2 0x34E9 JUMP JUMPDEST PUSH1 0x40 MLOAD DUP1 SWAP2 SUB SWAP1 REVERT JUMPDEST PUSH1 0x0 DUP2 GT PUSH2 0x1AFB JUMPI PUSH1 0x40 MLOAD PUSH32 0x8C379A000000000000000000000000000000000000000000000000000000000 DUP2 MSTORE PUSH1 0x4 ADD PUSH2 0x1AF2 SWAP1 PUSH2 0x357B JUMP JUMPDEST PUSH1 0x40 MLOAD DUP1 SWAP2 SUB SWAP1 REVERT JUMPDEST PUSH1 0x0 PUSH1 0xC DUP2 SWAP1 SSTORE POP PUSH1 0x0 PUSH1 0xD DUP2 SWAP1 SSTORE POP PUSH2 0x1B13 PUSH2 0xD2A JUMP JUMPDEST PUSH20 0xFFFFFFFFFFFFFFFFFFFFFFFFFFFFFFFFFFFFFFFF AND DUP4 PUSH20 0xFFFFFFFFFFFFFFFFFFFFFFFFFFFFFFFFFFFFFFFF AND EQ ISZERO DUP1 ISZERO PUSH2 0x1B81 JUMPI POP PUSH2 0x1B51 PUSH2 0xD2A JUMP JUMPDEST PUSH20 0xFFFFFFFFFFFFFFFFFFFFFFFFFFFFFFFFFFFFFFFF AND DUP3 PUSH20 0xFFFFFFFFFFFFFFFFFFFFFFFFFFFFFFFFFFFFFFFF AND EQ ISZERO JUMPDEST ISZERO PUSH2 0x1F3A JUMPI PUSH1 0x0 PUSH2 0x1B91 ADDRESS PUSH2 0x971 JUMP JUMPDEST SWAP1 POP PUSH1 0x14 DUP1 SLOAD SWAP1 PUSH2 0x100 EXP SWAP1 DIV PUSH1 0xFF AND ISZERO DUP1 ISZERO PUSH2 0x1BFC JUMPI POP PUSH1 0x14 PUSH1 0x0 SWAP1 SLOAD SWAP1 PUSH2 0x100 EXP SWAP1 DIV PUSH20 0xFFFFFFFFFFFFFFFFFFFFFFFFFFFFFFFFFFFFFFFF AND PUSH20 0xFFFFFFFFFFFFFFFFFFFFFFFFFFFFFFFFFFFFFFFF AND DUP5 PUSH20 0xFFFFFFFFFFFFFFFFFFFFFFFFFFFFFFFFFFFFFFFF AND EQ ISZERO JUMPDEST DUP1 ISZERO PUSH2 0x1C14 JUMPI POP PUSH1 0x14 PUSH1 0x15 SWAP1 SLOAD SWAP1 PUSH2 0x100 EXP SWAP1 DIV PUSH1 0xFF AND JUMPDEST DUP1 ISZERO PUSH2 0x1C20 JUMPI POP PUSH1 0x0 DUP2 GT JUMPDEST ISZERO PUSH2 0x1C48 JUMPI PUSH2 0x1C2E DUP2 PUSH2 0x2117 JUMP JUMPDEST PUSH1 0x0 SELFBALANCE SWAP1 POP PUSH1 0x0 DUP2 GT ISZERO PUSH2 0x1C46 JUMPI PUSH2 0x1C45 SELFBALANCE PUSH2 0x1FAE JUMP JUMPDEST JUMPDEST POP JUMPDEST PUSH1 0x14 PUSH1 0x0 SWAP1 SLOAD SWAP1 PUSH2 0x100 EXP SWAP1 DIV PUSH20 0xFFFFFFFFFFFFFFFFFFFFFFFFFFFFFFFFFFFFFFFF AND PUSH20 0xFFFFFFFFFFFFFFFFFFFFFFFFFFFFFFFFFFFFFFFF AND DUP5 PUSH20 0xFFFFFFFFFFFFFFFFFFFFFFFFFFFFFFFFFFFFFFFF AND EQ DUP1 ISZERO PUSH2 0x1CF3 JUMPI POP PUSH1 0x11 PUSH1 0x0 SWAP1 SLOAD SWAP1 PUSH2 0x100 EXP SWAP1 DIV PUSH20 0xFFFFFFFFFFFFFFFFFFFFFFFFFFFFFFFFFFFFFFFF AND PUSH20 0xFFFFFFFFFFFFFFFFFFFFFFFFFFFFFFFFFFFFFFFF AND DUP4 PUSH20 0xFFFFFFFFFFFFFFFFFFFFFFFFFFFFFFFFFFFFFFFF AND EQ ISZERO JUMPDEST ISZERO PUSH2 0x1D0B JUMPI PUSH1 0x8 SLOAD PUSH1 0xC DUP2 SWAP1 SSTORE POP PUSH1 0x9 SLOAD PUSH1 0xD DUP2 SWAP1 SSTORE POP JUMPDEST PUSH1 0x14 PUSH1 0x0 SWAP1 SLOAD SWAP1 PUSH2 0x100 EXP SWAP1 DIV PUSH20 0xFFFFFFFFFFFFFFFFFFFFFFFFFFFFFFFFFFFFFFFF AND PUSH20 0xFFFFFFFFFFFFFFFFFFFFFFFFFFFFFFFFFFFFFFFF AND DUP4 PUSH20 0xFFFFFFFFFFFFFFFFFFFFFFFFFFFFFFFFFFFFFFFF AND EQ DUP1 ISZERO PUSH2 0x1DB6 JUMPI POP PUSH1 0x11 PUSH1 0x0 SWAP1 SLOAD SWAP1 PUSH2 0x100 EXP SWAP1 DIV PUSH20 0xFFFFFFFFFFFFFFFFFFFFFFFFFFFFFFFFFFFFFFFF AND PUSH20 0xFFFFFFFFFFFFFFFFFFFFFFFFFFFFFFFFFFFFFFFF AND DUP5 PUSH20 0xFFFFFFFFFFFFFFFFFFFFFFFFFFFFFFFFFFFFFFFF AND EQ ISZERO JUMPDEST ISZERO PUSH2 0x1DCE JUMPI PUSH1 0xA SLOAD PUSH1 0xC DUP2 SWAP1 SSTORE POP PUSH1 0xB SLOAD PUSH1 0xD DUP2 SWAP1 SSTORE POP JUMPDEST PUSH1 0x5 PUSH1 0x0 DUP6 PUSH20 0xFFFFFFFFFFFFFFFFFFFFFFFFFFFFFFFFFFFFFFFF AND PUSH20 0xFFFFFFFFFFFFFFFFFFFFFFFFFFFFFFFFFFFFFFFF AND DUP2 MSTORE PUSH1 0x20 ADD SWAP1 DUP2 MSTORE PUSH1 0x20 ADD PUSH1 0x0 KECCAK256 PUSH1 0x0 SWAP1 SLOAD SWAP1 PUSH2 0x100 EXP SWAP1 DIV PUSH1 0xFF AND DUP1 PUSH2 0x1E6F JUMPI POP PUSH1 0x5 PUSH1 0x0 DUP5 PUSH20 0xFFFFFFFFFFFFFFFFFFFFFFFFFFFFFFFFFFFFFFFF AND PUSH20 0xFFFFFFFFFFFFFFFFFFFFFFFFFFFFFFFFFFFFFFFF AND DUP2 MSTORE PUSH1 0x20 ADD SWAP1 DUP2 MSTORE PUSH1 0x20 ADD PUSH1 0x0 KECCAK256 PUSH1 0x0 SWAP1 SLOAD SWAP1 PUSH2 0x100 EXP SWAP1 DIV PUSH1 0xFF AND JUMPDEST DUP1 PUSH2 0x1F22 JUMPI POP PUSH1 0x14 PUSH1 0x0 SWAP1 SLOAD SWAP1 PUSH2 0x100 EXP SWAP1 DIV PUSH20 0xFFFFFFFFFFFFFFFFFFFFFFFFFFFFFFFFFFFFFFFF AND PUSH20 0xFFFFFFFFFFFFFFFFFFFFFFFFFFFFFFFFFFFFFFFF AND DUP5 PUSH20 0xFFFFFFFFFFFFFFFFFFFFFFFFFFFFFFFFFFFFFFFF AND EQ ISZERO DUP1 ISZERO PUSH2 0x1F21 JUMPI POP PUSH1 0x14 PUSH1 0x0 SWAP1 SLOAD SWAP1 PUSH2 0x100 EXP SWAP1 DIV PUSH20 0xFFFFFFFFFFFFFFFFFFFFFFFFFFFFFFFFFFFFFFFF AND PUSH20 0xFFFFFFFFFFFFFFFFFFFFFFFFFFFFFFFFFFFFFFFF AND DUP4 PUSH20 0xFFFFFFFFFFFFFFFFFFFFFFFFFFFFFFFFFFFFFFFF AND EQ ISZERO JUMPDEST JUMPDEST ISZERO PUSH2 0x1F38 JUMPI PUSH1 0x0 PUSH1 0xC DUP2 SWAP1 SSTORE POP PUSH1 0x0 PUSH1 0xD DUP2 SWAP1 SSTORE POP JUMPDEST POP JUMPDEST PUSH2 0x1F45 DUP4 DUP4 DUP4 PUSH2 0x238E JUMP JUMPDEST POP POP POP JUMP JUMPDEST PUSH1 0x0 DUP4 DUP4 GT ISZERO DUP3 SWAP1 PUSH2 0x1F92 JUMPI PUSH1 0x40 MLOAD PUSH32 0x8C379A000000000000000000000000000000000000000000000000000000000 DUP2 MSTORE PUSH1 0x4 ADD PUSH2 0x1F89 SWAP2 SWAP1 PUSH2 0x2AD9 JUMP JUMPDEST PUSH1 0x40 MLOAD DUP1 SWAP2 SUB SWAP1 REVERT JUMPDEST POP PUSH1 0x0 DUP4 DUP6 PUSH2 0x1FA1 SWAP2 SWAP1 PUSH2 0x359B JUMP JUMPDEST SWAP1 POP DUP1 SWAP2 POP POP SWAP4 SWAP3 POP POP POP JUMP JUMPDEST PUSH1 0xE PUSH1 0x0 SWAP1 SLOAD SWAP1 PUSH2 0x100 EXP SWAP1 DIV PUSH20 0xFFFFFFFFFFFFFFFFFFFFFFFFFFFFFFFFFFFFFFFF AND PUSH20 0xFFFFFFFFFFFFFFFFFFFFFFFFFFFFFFFFFFFFFFFF AND PUSH2 0x8FC PUSH2 0x1FFE PUSH1 0x2 DUP5 PUSH2 0x239E SWAP1 SWAP2 SWAP1 PUSH4 0xFFFFFFFF AND JUMP JUMPDEST SWAP1 DUP2 ISZERO MUL SWAP1 PUSH1 0x40 MLOAD PUSH1 0x0 PUSH1 0x40 MLOAD DUP1 DUP4 SUB DUP2 DUP6 DUP9 DUP9 CALL SWAP4 POP POP POP POP ISZERO DUP1 ISZERO PUSH2 0x2029 JUMPI RETURNDATASIZE PUSH1 0x0 DUP1 RETURNDATACOPY RETURNDATASIZE PUSH1 0x0 REVERT JUMPDEST POP PUSH1 0xF PUSH1 0x0 SWAP1 SLOAD SWAP1 PUSH2 0x100 EXP SWAP1 DIV PUSH20 0xFFFFFFFFFFFFFFFFFFFFFFFFFFFFFFFFFFFFFFFF AND PUSH20 0xFFFFFFFFFFFFFFFFFFFFFFFFFFFFFFFFFFFFFFFF AND PUSH2 0x8FC PUSH2 0x207A PUSH1 0x2 DUP5 PUSH2 0x239E SWAP1 SWAP2 SWAP1 PUSH4 0xFFFFFFFF AND JUMP JUMPDEST SWAP1 DUP2 ISZERO MUL SWAP1 PUSH1 0x40 MLOAD PUSH1 0x0 PUSH1 0x40 MLOAD DUP1 DUP4 SUB DUP2 DUP6 DUP9 DUP9 CALL SWAP4 POP POP POP POP ISZERO DUP1 ISZERO PUSH2 0x20A5 JUMPI RETURNDATASIZE PUSH1 0x0 DUP1 RETURNDATACOPY RETURNDATASIZE PUSH1 0x0 REVERT JUMPDEST POP POP JUMP JUMPDEST PUSH1 0x0 PUSH1 0x6 SLOAD DUP3 GT ISZERO PUSH2 0x20F0 JUMPI PUSH1 0x40 MLOAD PUSH32 0x8C379A000000000000000000000000000000000000000000000000000000000 DUP2 MSTORE PUSH1 0x4 ADD PUSH2 0x20E7 SWAP1 PUSH2 0x3641 JUMP JUMPDEST PUSH1 0x40 MLOAD DUP1 SWAP2 SUB SWAP1 REVERT JUMPDEST PUSH1 0x0 PUSH2 0x20FA PUSH2 0x23E8 JUMP JUMPDEST SWAP1 POP PUSH2 0x210F DUP2 DUP5 PUSH2 0x239E SWAP1 SWAP2 SWAP1 PUSH4 0xFFFFFFFF AND JUMP JUMPDEST SWAP2 POP POP SWAP2 SWAP1 POP JUMP JUMPDEST PUSH1 0x1 PUSH1 0x14 DUP1 PUSH2 0x100 EXP DUP2 SLOAD DUP2 PUSH1 0xFF MUL NOT AND SWAP1 DUP4 ISZERO ISZERO MUL OR SWAP1 SSTORE POP PUSH1 0x0 PUSH1 0x2 PUSH8 0xFFFFFFFFFFFFFFFF DUP2 GT ISZERO PUSH2 0x214E JUMPI PUSH2 0x214D PUSH2 0x3661 JUMP JUMPDEST JUMPDEST PUSH1 0x40 MLOAD SWAP1 DUP1 DUP3 MSTORE DUP1 PUSH1 0x20 MUL PUSH1 0x20 ADD DUP3 ADD PUSH1 0x40 MSTORE DUP1 ISZERO PUSH2 0x217C JUMPI DUP2 PUSH1 0x20 ADD PUSH1 0x20 DUP3 MUL DUP1 CALLDATASIZE DUP4 CALLDATACOPY DUP1 DUP3 ADD SWAP2 POP POP SWAP1 POP JUMPDEST POP SWAP1 POP ADDRESS DUP2 PUSH1 0x0 DUP2 MLOAD DUP2 LT PUSH2 0x2194 JUMPI PUSH2 0x2193 PUSH2 0x31B0 JUMP JUMPDEST JUMPDEST PUSH1 0x20 MUL PUSH1 0x20 ADD ADD SWAP1 PUSH20 0xFFFFFFFFFFFFFFFFFFFFFFFFFFFFFFFFFFFFFFFF AND SWAP1 DUP2 PUSH20 0xFFFFFFFFFFFFFFFFFFFFFFFFFFFFFFFFFFFFFFFF AND DUP2 MSTORE POP POP PUSH1 0x11 PUSH1 0x0 SWAP1 SLOAD SWAP1 PUSH2 0x100 EXP SWAP1 DIV PUSH20 0xFFFFFFFFFFFFFFFFFFFFFFFFFFFFFFFFFFFFFFFF AND PUSH20 0xFFFFFFFFFFFFFFFFFFFFFFFFFFFFFFFFFFFFFFFF AND PUSH4 0xAD5C4648 PUSH1 0x40 MLOAD DUP2 PUSH4 0xFFFFFFFF AND PUSH1 0xE0 SHL DUP2 MSTORE PUSH1 0x4 ADD PUSH1 0x20 PUSH1 0x40 MLOAD DUP1 DUP4 SUB DUP2 DUP7 GAS STATICCALL ISZERO DUP1 ISZERO PUSH2 0x223B JUMPI RETURNDATASIZE PUSH1 0x0 DUP1 RETURNDATACOPY RETURNDATASIZE PUSH1 0x0 REVERT JUMPDEST POP POP POP POP PUSH1 0x40 MLOAD RETURNDATASIZE PUSH1 0x1F NOT PUSH1 0x1F DUP3 ADD AND DUP3 ADD DUP1 PUSH1 0x40 MSTORE POP DUP2 ADD SWAP1 PUSH2 0x225F SWAP2 SWAP1 PUSH2 0x36A5 JUMP JUMPDEST DUP2 PUSH1 0x1 DUP2 MLOAD DUP2 LT PUSH2 0x2273 JUMPI PUSH2 0x2272 PUSH2 0x31B0 JUMP JUMPDEST JUMPDEST PUSH1 0x20 MUL PUSH1 0x20 ADD ADD SWAP1 PUSH20 0xFFFFFFFFFFFFFFFFFFFFFFFFFFFFFFFFFFFFFFFF AND SWAP1 DUP2 PUSH20 0xFFFFFFFFFFFFFFFFFFFFFFFFFFFFFFFFFFFFFFFF AND DUP2 MSTORE POP POP PUSH2 0x22DA ADDRESS PUSH1 0x11 PUSH1 0x0 SWAP1 SLOAD SWAP1 PUSH2 0x100 EXP SWAP1 DIV PUSH20 0xFFFFFFFFFFFFFFFFFFFFFFFFFFFFFFFFFFFFFFFF AND DUP5 PUSH2 0x1811 JUMP JUMPDEST PUSH1 0x11 PUSH1 0x0 SWAP1 SLOAD SWAP1 PUSH2 0x100 EXP SWAP1 DIV PUSH20 0xFFFFFFFFFFFFFFFFFFFFFFFFFFFFFFFFFFFFFFFF AND PUSH20 0xFFFFFFFFFFFFFFFFFFFFFFFFFFFFFFFFFFFFFFFF AND PUSH4 0x791AC947 DUP4 PUSH1 0x0 DUP5 ADDRESS TIMESTAMP PUSH1 0x40 MLOAD DUP7 PUSH4 0xFFFFFFFF AND PUSH1 0xE0 SHL DUP2 MSTORE PUSH1 0x4 ADD PUSH2 0x233E SWAP6 SWAP5 SWAP4 SWAP3 SWAP2 SWAP1 PUSH2 0x37CB JUMP JUMPDEST PUSH1 0x0 PUSH1 0x40 MLOAD DUP1 DUP4 SUB DUP2 PUSH1 0x0 DUP8 DUP1 EXTCODESIZE ISZERO DUP1 ISZERO PUSH2 0x2358 JUMPI PUSH1 0x0 DUP1 REVERT JUMPDEST POP GAS CALL ISZERO DUP1 ISZERO PUSH2 0x236C JUMPI RETURNDATASIZE PUSH1 0x0 DUP1 RETURNDATACOPY RETURNDATASIZE PUSH1 0x0 REVERT JUMPDEST POP POP POP POP POP PUSH1 0x0 PUSH1 0x14 DUP1 PUSH2 0x100 EXP DUP2 SLOAD DUP2 PUSH1 0xFF MUL NOT AND SWAP1 DUP4 ISZERO ISZERO MUL OR SWAP1 SSTORE POP POP JUMP JUMPDEST PUSH2 0x2399 DUP4 DUP4 DUP4 PUSH2 0x2413 JUMP JUMPDEST POP POP POP JUMP JUMPDEST PUSH1 0x0 PUSH2 0x23E0 DUP4 DUP4 PUSH1 0x40 MLOAD DUP1 PUSH1 0x40 ADD PUSH1 0x40 MSTORE DUP1 PUSH1 0x1A DUP2 MSTORE PUSH1 0x20 ADD PUSH32 0x536166654D6174683A206469766973696F6E206279207A65726F000000000000 DUP2 MSTORE POP PUSH2 0x25DE JUMP JUMPDEST SWAP1 POP SWAP3 SWAP2 POP POP JUMP JUMPDEST PUSH1 0x0 DUP1 PUSH1 0x0 PUSH2 0x23F5 PUSH2 0x2641 JUMP JUMPDEST SWAP2 POP SWAP2 POP PUSH2 0x240C DUP2 DUP4 PUSH2 0x239E SWAP1 SWAP2 SWAP1 PUSH4 0xFFFFFFFF AND JUMP JUMPDEST SWAP3 POP POP POP SWAP1 JUMP JUMPDEST PUSH1 0x0 DUP1 PUSH1 0x0 DUP1 PUSH1 0x0 DUP1 PUSH2 0x2425 DUP8 PUSH2 0x26A0 JUMP JUMPDEST SWAP6 POP SWAP6 POP SWAP6 POP SWAP6 POP SWAP6 POP SWAP6 POP PUSH2 0x2483 DUP7 PUSH1 0x2 PUSH1 0x0 DUP13 PUSH20 0xFFFFFFFFFFFFFFFFFFFFFFFFFFFFFFFFFFFFFFFF AND PUSH20 0xFFFFFFFFFFFFFFFFFFFFFFFFFFFFFFFFFFFFFFFF AND DUP2 MSTORE PUSH1 0x20 ADD SWAP1 DUP2 MSTORE PUSH1 0x20 ADD PUSH1 0x0 KECCAK256 SLOAD PUSH2 0x2708 SWAP1 SWAP2 SWAP1 PUSH4 0xFFFFFFFF AND JUMP JUMPDEST PUSH1 0x2 PUSH1 0x0 DUP12 PUSH20 0xFFFFFFFFFFFFFFFFFFFFFFFFFFFFFFFFFFFFFFFF AND PUSH20 0xFFFFFFFFFFFFFFFFFFFFFFFFFFFFFFFFFFFFFFFF AND DUP2 MSTORE PUSH1 0x20 ADD SWAP1 DUP2 MSTORE PUSH1 0x20 ADD PUSH1 0x0 KECCAK256 DUP2 SWAP1 SSTORE POP PUSH2 0x2518 DUP6 PUSH1 0x2 PUSH1 0x0 DUP12 PUSH20 0xFFFFFFFFFFFFFFFFFFFFFFFFFFFFFFFFFFFFFFFF AND PUSH20 0xFFFFFFFFFFFFFFFFFFFFFFFFFFFFFFFFFFFFFFFF AND DUP2 MSTORE PUSH1 0x20 ADD SWAP1 DUP2 MSTORE PUSH1 0x20 ADD PUSH1 0x0 KECCAK256 SLOAD PUSH2 0x2752 SWAP1 SWAP2 SWAP1 PUSH4 0xFFFFFFFF AND JUMP JUMPDEST PUSH1 0x2 PUSH1 0x0 DUP11 PUSH20 0xFFFFFFFFFFFFFFFFFFFFFFFFFFFFFFFFFFFFFFFF AND PUSH20 0xFFFFFFFFFFFFFFFFFFFFFFFFFFFFFFFFFFFFFFFF AND DUP2 MSTORE PUSH1 0x20 ADD SWAP1 DUP2 MSTORE PUSH1 0x20 ADD PUSH1 0x0 KECCAK256 DUP2 SWAP1 SSTORE POP PUSH2 0x2564 DUP2 PUSH2 0x27B0 JUMP JUMPDEST PUSH2 0x256E DUP5 DUP4 PUSH2 0x286D JUMP JUMPDEST DUP8 PUSH20 0xFFFFFFFFFFFFFFFFFFFFFFFFFFFFFFFFFFFFFFFF AND DUP10 PUSH20 0xFFFFFFFFFFFFFFFFFFFFFFFFFFFFFFFFFFFFFFFF AND PUSH32 0xDDF252AD1BE2C89B69C2B068FC378DAA952BA7F163C4A11628F55A4DF523B3EF DUP6 PUSH1 0x40 MLOAD PUSH2 0x25CB SWAP2 SWAP1 PUSH2 0x2C98 JUMP JUMPDEST PUSH1 0x40 MLOAD DUP1 SWAP2 SUB SWAP1 LOG3 POP POP POP POP POP POP POP POP POP JUMP JUMPDEST PUSH1 0x0 DUP1 DUP4 GT DUP3 SWAP1 PUSH2 0x2625 JUMPI PUSH1 0x40 MLOAD PUSH32 0x8C379A000000000000000000000000000000000000000000000000000000000 DUP2 MSTORE PUSH1 0x4 ADD PUSH2 0x261C SWAP2 SWAP1 PUSH2 0x2AD9 JUMP JUMPDEST PUSH1 0x40 MLOAD DUP1 SWAP2 SUB SWAP1 REVERT JUMPDEST POP PUSH1 0x0 DUP4 DUP6 PUSH2 0x2634 SWAP2 SWAP1 PUSH2 0x3854 JUMP JUMPDEST SWAP1 POP DUP1 SWAP2 POP POP SWAP4 SWAP3 POP POP POP JUMP JUMPDEST PUSH1 0x0 DUP1 PUSH1 0x0 PUSH1 0x6 SLOAD SWAP1 POP PUSH1 0x0 PUSH8 0xDE0B6B3A7640000 SWAP1 POP PUSH2 0x2675 PUSH8 0xDE0B6B3A7640000 PUSH1 0x6 SLOAD PUSH2 0x239E SWAP1 SWAP2 SWAP1 PUSH4 0xFFFFFFFF AND JUMP JUMPDEST DUP3 LT ISZERO PUSH2 0x2693 JUMPI PUSH1 0x6 SLOAD PUSH8 0xDE0B6B3A7640000 SWAP4 POP SWAP4 POP POP POP PUSH2 0x269C JUMP JUMPDEST DUP2 DUP2 SWAP4 POP SWAP4 POP POP POP JUMPDEST SWAP1 SWAP2 JUMP JUMPDEST PUSH1 0x0 DUP1 PUSH1 0x0 DUP1 PUSH1 0x0 DUP1 PUSH1 0x0 DUP1 PUSH1 0x0 PUSH2 0x26BD DUP11 PUSH1 0xC SLOAD PUSH1 0xD SLOAD PUSH2 0x28A7 JUMP JUMPDEST SWAP3 POP SWAP3 POP SWAP3 POP PUSH1 0x0 PUSH2 0x26CD PUSH2 0x23E8 JUMP JUMPDEST SWAP1 POP PUSH1 0x0 DUP1 PUSH1 0x0 PUSH2 0x26E0 DUP15 DUP8 DUP8 DUP8 PUSH2 0x293D JUMP JUMPDEST SWAP3 POP SWAP3 POP SWAP3 POP DUP3 DUP3 DUP3 DUP10 DUP10 DUP10 SWAP13 POP SWAP13 POP SWAP13 POP SWAP13 POP SWAP13 POP SWAP13 POP POP POP POP POP POP POP POP SWAP2 SWAP4 SWAP6 POP SWAP2 SWAP4 SWAP6 JUMP JUMPDEST PUSH1 0x0 PUSH2 0x274A DUP4 DUP4 PUSH1 0x40 MLOAD DUP1 PUSH1 0x40 ADD PUSH1 0x40 MSTORE DUP1 PUSH1 0x1E DUP2 MSTORE PUSH1 0x20 ADD PUSH32 0x536166654D6174683A207375627472616374696F6E206F766572666C6F770000 DUP2 MSTORE POP PUSH2 0x1F4A JUMP JUMPDEST SWAP1 POP SWAP3 SWAP2 POP POP JUMP JUMPDEST PUSH1 0x0 DUP1 DUP3 DUP5 PUSH2 0x2761 SWAP2 SWAP1 PUSH2 0x3885 JUMP JUMPDEST SWAP1 POP DUP4 DUP2 LT ISZERO PUSH2 0x27A6 JUMPI PUSH1 0x40 MLOAD PUSH32 0x8C379A000000000000000000000000000000000000000000000000000000000 DUP2 MSTORE PUSH1 0x4 ADD PUSH2 0x279D SWAP1 PUSH2 0x3927 JUMP JUMPDEST PUSH1 0x40 MLOAD DUP1 SWAP2 SUB SWAP1 REVERT JUMPDEST DUP1 SWAP2 POP POP SWAP3 SWAP2 POP POP JUMP JUMPDEST PUSH1 0x0 PUSH2 0x27BA PUSH2 0x23E8 JUMP JUMPDEST SWAP1 POP PUSH1 0x0 PUSH2 0x27D1 DUP3 DUP5 PUSH2 0x29C6 SWAP1 SWAP2 SWAP1 PUSH4 0xFFFFFFFF AND JUMP JUMPDEST SWAP1 POP PUSH2 0x2825 DUP2 PUSH1 0x2 PUSH1 0x0 ADDRESS PUSH20 0xFFFFFFFFFFFFFFFFFFFFFFFFFFFFFFFFFFFFFFFF AND PUSH20 0xFFFFFFFFFFFFFFFFFFFFFFFFFFFFFFFFFFFFFFFF AND DUP2 MSTORE PUSH1 0x20 ADD SWAP1 DUP2 MSTORE PUSH1 0x20 ADD PUSH1 0x0 KECCAK256 SLOAD PUSH2 0x2752 SWAP1 SWAP2 SWAP1 PUSH4 0xFFFFFFFF AND JUMP JUMPDEST PUSH1 0x2 PUSH1 0x0 ADDRESS PUSH20 0xFFFFFFFFFFFFFFFFFFFFFFFFFFFFFFFFFFFFFFFF AND PUSH20 0xFFFFFFFFFFFFFFFFFFFFFFFFFFFFFFFFFFFFFFFF AND DUP2 MSTORE PUSH1 0x20 ADD SWAP1 DUP2 MSTORE PUSH1 0x20 ADD PUSH1 0x0 KECCAK256 DUP2 SWAP1 SSTORE POP POP POP POP JUMP JUMPDEST PUSH2 0x2882 DUP3 PUSH1 0x6 SLOAD PUSH2 0x2708 SWAP1 SWAP2 SWAP1 PUSH4 0xFFFFFFFF AND JUMP JUMPDEST PUSH1 0x6 DUP2 SWAP1 SSTORE POP PUSH2 0x289D DUP2 PUSH1 0x7 SLOAD PUSH2 0x2752 SWAP1 SWAP2 SWAP1 PUSH4 0xFFFFFFFF AND JUMP JUMPDEST PUSH1 0x7 DUP2 SWAP1 SSTORE POP POP POP JUMP JUMPDEST PUSH1 0x0 DUP1 PUSH1 0x0 DUP1 PUSH2 0x28D3 PUSH1 0x64 PUSH2 0x28C5 DUP9 DUP11 PUSH2 0x29C6 SWAP1 SWAP2 SWAP1 PUSH4 0xFFFFFFFF AND JUMP JUMPDEST PUSH2 0x239E SWAP1 SWAP2 SWAP1 PUSH4 0xFFFFFFFF AND JUMP JUMPDEST SWAP1 POP PUSH1 0x0 PUSH2 0x28FD PUSH1 0x64 PUSH2 0x28EF DUP9 DUP12 PUSH2 0x29C6 SWAP1 SWAP2 SWAP1 PUSH4 0xFFFFFFFF AND JUMP JUMPDEST PUSH2 0x239E SWAP1 SWAP2 SWAP1 PUSH4 0xFFFFFFFF AND JUMP JUMPDEST SWAP1 POP PUSH1 0x0 PUSH2 0x2926 DUP3 PUSH2 0x2918 DUP6 DUP13 PUSH2 0x2708 SWAP1 SWAP2 SWAP1 PUSH4 0xFFFFFFFF AND JUMP JUMPDEST PUSH2 0x2708 SWAP1 SWAP2 SWAP1 PUSH4 0xFFFFFFFF AND JUMP JUMPDEST SWAP1 POP DUP1 DUP4 DUP4 SWAP6 POP SWAP6 POP SWAP6 POP POP POP POP SWAP4 POP SWAP4 POP SWAP4 SWAP1 POP JUMP JUMPDEST PUSH1 0x0 DUP1 PUSH1 0x0 DUP1 PUSH2 0x2956 DUP6 DUP10 PUSH2 0x29C6 SWAP1 SWAP2 SWAP1 PUSH4 0xFFFFFFFF AND JUMP JUMPDEST SWAP1 POP PUSH1 0x0 PUSH2 0x296D DUP7 DUP10 PUSH2 0x29C6 SWAP1 SWAP2 SWAP1 PUSH4 0xFFFFFFFF AND JUMP JUMPDEST SWAP1 POP PUSH1 0x0 PUSH2 0x2984 DUP8 DUP10 PUSH2 0x29C6 SWAP1 SWAP2 SWAP1 PUSH4 0xFFFFFFFF AND JUMP JUMPDEST SWAP1 POP PUSH1 0x0 PUSH2 0x29AD DUP3 PUSH2 0x299F DUP6 DUP8 PUSH2 0x2708 SWAP1 SWAP2 SWAP1 PUSH4 0xFFFFFFFF AND JUMP JUMPDEST PUSH2 0x2708 SWAP1 SWAP2 SWAP1 PUSH4 0xFFFFFFFF AND JUMP JUMPDEST SWAP1 POP DUP4 DUP2 DUP5 SWAP7 POP SWAP7 POP SWAP7 POP POP POP POP POP SWAP5 POP SWAP5 POP SWAP5 SWAP2 POP POP JUMP JUMPDEST PUSH1 0x0 DUP1 DUP4 SUB PUSH2 0x29D8 JUMPI PUSH1 0x0 SWAP1 POP PUSH2 0x2A3A JUMP JUMPDEST PUSH1 0x0 DUP3 DUP5 PUSH2 0x29E6 SWAP2 SWAP1 PUSH2 0x3947 JUMP JUMPDEST SWAP1 POP DUP3 DUP5 DUP3 PUSH2 0x29F5 SWAP2 SWAP1 PUSH2 0x3854 JUMP JUMPDEST EQ PUSH2 0x2A35 JUMPI PUSH1 0x40 MLOAD PUSH32 0x8C379A000000000000000000000000000000000000000000000000000000000 DUP2 MSTORE PUSH1 0x4 ADD PUSH2 0x2A2C SWAP1 PUSH2 0x3A13 JUMP JUMPDEST PUSH1 0x40 MLOAD DUP1 SWAP2 SUB SWAP1 REVERT JUMPDEST DUP1 SWAP2 POP POP JUMPDEST SWAP3 SWAP2 POP POP JUMP JUMPDEST PUSH1 0x0 DUP2 MLOAD SWAP1 POP SWAP2 SWAP1 POP JUMP JUMPDEST PUSH1 0x0 DUP3 DUP3 MSTORE PUSH1 0x20 DUP3 ADD SWAP1 POP SWAP3 SWAP2 POP POP JUMP JUMPDEST PUSH1 0x0 JUMPDEST DUP4 DUP2 LT ISZERO PUSH2 0x2A7A JUMPI DUP1 DUP3 ADD MLOAD DUP2 DUP5 ADD MSTORE PUSH1 0x20 DUP2 ADD SWAP1 POP PUSH2 0x2A5F JUMP JUMPDEST DUP4 DUP2 GT ISZERO PUSH2 0x2A89 JUMPI PUSH1 0x0 DUP5 DUP5 ADD MSTORE JUMPDEST POP POP POP POP JUMP JUMPDEST PUSH1 0x0 PUSH1 0x1F NOT PUSH1 0x1F DUP4 ADD AND SWAP1 POP SWAP2 SWAP1 POP JUMP JUMPDEST PUSH1 0x0 PUSH2 0x2AAB DUP3 PUSH2 0x2A40 JUMP JUMPDEST PUSH2 0x2AB5 DUP2 DUP6 PUSH2 0x2A4B JUMP JUMPDEST SWAP4 POP PUSH2 0x2AC5 DUP2 DUP6 PUSH1 0x20 DUP7 ADD PUSH2 0x2A5C JUMP JUMPDEST PUSH2 0x2ACE DUP2 PUSH2 0x2A8F JUMP JUMPDEST DUP5 ADD SWAP2 POP POP SWAP3 SWAP2 POP POP JUMP JUMPDEST PUSH1 0x0 PUSH1 0x20 DUP3 ADD SWAP1 POP DUP2 DUP2 SUB PUSH1 0x0 DUP4 ADD MSTORE PUSH2 0x2AF3 DUP2 DUP5 PUSH2 0x2AA0 JUMP JUMPDEST SWAP1 POP SWAP3 SWAP2 POP POP JUMP JUMPDEST PUSH1 0x0 DUP1 REVERT JUMPDEST PUSH1 0x0 DUP1 REVERT JUMPDEST PUSH1 0x0 PUSH20 0xFFFFFFFFFFFFFFFFFFFFFFFFFFFFFFFFFFFFFFFF DUP3 AND SWAP1 POP SWAP2 SWAP1 POP JUMP JUMPDEST PUSH1 0x0 PUSH2 0x2B30 DUP3 PUSH2 0x2B05 JUMP JUMPDEST SWAP1 POP SWAP2 SWAP1 POP JUMP JUMPDEST PUSH2 0x2B40 DUP2 PUSH2 0x2B25 JUMP JUMPDEST DUP2 EQ PUSH2 0x2B4B JUMPI PUSH1 0x0 DUP1 REVERT JUMPDEST POP JUMP JUMPDEST PUSH1 0x0 DUP2 CALLDATALOAD SWAP1 POP PUSH2 0x2B5D DUP2 PUSH2 0x2B37 JUMP JUMPDEST SWAP3 SWAP2 POP POP JUMP JUMPDEST PUSH1 0x0 DUP2 SWAP1 POP SWAP2 SWAP1 POP JUMP JUMPDEST PUSH2 0x2B76 DUP2 PUSH2 0x2B63 JUMP JUMPDEST DUP2 EQ PUSH2 0x2B81 JUMPI PUSH1 0x0 DUP1 REVERT JUMPDEST POP JUMP JUMPDEST PUSH1 0x0 DUP2 CALLDATALOAD SWAP1 POP PUSH2 0x2B93 DUP2 PUSH2 0x2B6D JUMP JUMPDEST SWAP3 SWAP2 POP POP JUMP JUMPDEST PUSH1 0x0 DUP1 PUSH1 0x40 DUP4 DUP6 SUB SLT ISZERO PUSH2 0x2BB0 JUMPI PUSH2 0x2BAF PUSH2 0x2AFB JUMP JUMPDEST JUMPDEST PUSH1 0x0 PUSH2 0x2BBE DUP6 DUP3 DUP7 ADD PUSH2 0x2B4E JUMP JUMPDEST SWAP3 POP POP PUSH1 0x20 PUSH2 0x2BCF DUP6 DUP3 DUP7 ADD PUSH2 0x2B84 JUMP JUMPDEST SWAP2 POP POP SWAP3 POP SWAP3 SWAP1 POP JUMP JUMPDEST PUSH1 0x0 DUP2 ISZERO ISZERO SWAP1 POP SWAP2 SWAP1 POP JUMP JUMPDEST PUSH2 0x2BEE DUP2 PUSH2 0x2BD9 JUMP JUMPDEST DUP3 MSTORE POP POP JUMP JUMPDEST PUSH1 0x0 PUSH1 0x20 DUP3 ADD SWAP1 POP PUSH2 0x2C09 PUSH1 0x0 DUP4 ADD DUP5 PUSH2 0x2BE5 JUMP JUMPDEST SWAP3 SWAP2 POP POP JUMP JUMPDEST PUSH1 0x0 DUP2 SWAP1 POP SWAP2 SWAP1 POP JUMP JUMPDEST PUSH1 0x0 PUSH2 0x2C34 PUSH2 0x2C2F PUSH2 0x2C2A DUP5 PUSH2 0x2B05 JUMP JUMPDEST PUSH2 0x2C0F JUMP JUMPDEST PUSH2 0x2B05 JUMP JUMPDEST SWAP1 POP SWAP2 SWAP1 POP JUMP JUMPDEST PUSH1 0x0 PUSH2 0x2C46 DUP3 PUSH2 0x2C19 JUMP JUMPDEST SWAP1 POP SWAP2 SWAP1 POP JUMP JUMPDEST PUSH1 0x0 PUSH2 0x2C58 DUP3 PUSH2 0x2C3B JUMP JUMPDEST SWAP1 POP SWAP2 SWAP1 POP JUMP JUMPDEST PUSH2 0x2C68 DUP2 PUSH2 0x2C4D JUMP JUMPDEST DUP3 MSTORE POP POP JUMP JUMPDEST PUSH1 0x0 PUSH1 0x20 DUP3 ADD SWAP1 POP PUSH2 0x2C83 PUSH1 0x0 DUP4 ADD DUP5 PUSH2 0x2C5F JUMP JUMPDEST SWAP3 SWAP2 POP POP JUMP JUMPDEST PUSH2 0x2C92 DUP2 PUSH2 0x2B63 JUMP JUMPDEST DUP3 MSTORE POP POP JUMP JUMPDEST PUSH1 0x0 PUSH1 0x20 DUP3 ADD SWAP1 POP PUSH2 0x2CAD PUSH1 0x0 DUP4 ADD DUP5 PUSH2 0x2C89 JUMP JUMPDEST SWAP3 SWAP2 POP POP JUMP JUMPDEST PUSH1 0x0 DUP1 PUSH1 0x0 PUSH1 0x60 DUP5 DUP7 SUB SLT ISZERO PUSH2 0x2CCC JUMPI PUSH2 0x2CCB PUSH2 0x2AFB JUMP JUMPDEST JUMPDEST PUSH1 0x0 PUSH2 0x2CDA DUP7 DUP3 DUP8 ADD PUSH2 0x2B4E JUMP JUMPDEST SWAP4 POP POP PUSH1 0x20 PUSH2 0x2CEB DUP7 DUP3 DUP8 ADD PUSH2 0x2B4E JUMP JUMPDEST SWAP3 POP POP PUSH1 0x40 PUSH2 0x2CFC DUP7 DUP3 DUP8 ADD PUSH2 0x2B84 JUMP JUMPDEST SWAP2 POP POP SWAP3 POP SWAP3 POP SWAP3 JUMP JUMPDEST PUSH1 0x0 PUSH1 0xFF DUP3 AND SWAP1 POP SWAP2 SWAP1 POP JUMP JUMPDEST PUSH2 0x2D1C DUP2 PUSH2 0x2D06 JUMP JUMPDEST DUP3 MSTORE POP POP JUMP JUMPDEST PUSH1 0x0 PUSH1 0x20 DUP3 ADD SWAP1 POP PUSH2 0x2D37 PUSH1 0x0 DUP4 ADD DUP5 PUSH2 0x2D13 JUMP JUMPDEST SWAP3 SWAP2 POP POP JUMP JUMPDEST PUSH2 0x2D46 DUP2 PUSH2 0x2B25 JUMP JUMPDEST DUP3 MSTORE POP POP JUMP JUMPDEST PUSH1 0x0 PUSH1 0x20 DUP3 ADD SWAP1 POP PUSH2 0x2D61 PUSH1 0x0 DUP4 ADD DUP5 PUSH2 0x2D3D JUMP JUMPDEST SWAP3 SWAP2 POP POP JUMP JUMPDEST PUSH1 0x0 PUSH2 0x2D72 DUP3 PUSH2 0x2C3B JUMP JUMPDEST SWAP1 POP SWAP2 SWAP1 POP JUMP JUMPDEST PUSH2 0x2D82 DUP2 PUSH2 0x2D67 JUMP JUMPDEST DUP3 MSTORE POP POP JUMP JUMPDEST PUSH1 0x0 PUSH1 0x20 DUP3 ADD SWAP1 POP PUSH2 0x2D9D PUSH1 0x0 DUP4 ADD DUP5 PUSH2 0x2D79 JUMP JUMPDEST SWAP3 SWAP2 POP POP JUMP JUMPDEST PUSH2 0x2DAC DUP2 PUSH2 0x2BD9 JUMP JUMPDEST DUP2 EQ PUSH2 0x2DB7 JUMPI PUSH1 0x0 DUP1 REVERT JUMPDEST POP JUMP JUMPDEST PUSH1 0x0 DUP2 CALLDATALOAD SWAP1 POP PUSH2 0x2DC9 DUP2 PUSH2 0x2DA3 JUMP JUMPDEST SWAP3 SWAP2 POP POP JUMP JUMPDEST PUSH1 0x0 PUSH1 0x20 DUP3 DUP5 SUB SLT ISZERO PUSH2 0x2DE5 JUMPI PUSH2 0x2DE4 PUSH2 0x2AFB JUMP JUMPDEST JUMPDEST PUSH1 0x0 PUSH2 0x2DF3 DUP5 DUP3 DUP6 ADD PUSH2 0x2DBA JUMP JUMPDEST SWAP2 POP POP SWAP3 SWAP2 POP POP JUMP JUMPDEST PUSH1 0x0 PUSH1 0x20 DUP3 DUP5 SUB SLT ISZERO PUSH2 0x2E12 JUMPI PUSH2 0x2E11 PUSH2 0x2AFB JUMP JUMPDEST JUMPDEST PUSH1 0x0 PUSH2 0x2E20 DUP5 DUP3 DUP6 ADD PUSH2 0x2B4E JUMP JUMPDEST SWAP2 POP POP SWAP3 SWAP2 POP POP JUMP JUMPDEST PUSH1 0x0 PUSH2 0x2E34 DUP3 PUSH2 0x2B05 JUMP JUMPDEST SWAP1 POP SWAP2 SWAP1 POP JUMP JUMPDEST PUSH2 0x2E44 DUP2 PUSH2 0x2E29 JUMP JUMPDEST DUP2 EQ PUSH2 0x2E4F JUMPI PUSH1 0x0 DUP1 REVERT JUMPDEST POP JUMP JUMPDEST PUSH1 0x0 DUP2 CALLDATALOAD SWAP1 POP PUSH2 0x2E61 DUP2 PUSH2 0x2E3B JUMP JUMPDEST SWAP3 SWAP2 POP POP JUMP JUMPDEST PUSH1 0x0 PUSH1 0x20 DUP3 DUP5 SUB SLT ISZERO PUSH2 0x2E7D JUMPI PUSH2 0x2E7C PUSH2 0x2AFB JUMP JUMPDEST JUMPDEST PUSH1 0x0 PUSH2 0x2E8B DUP5 DUP3 DUP6 ADD PUSH2 0x2E52 JUMP JUMPDEST SWAP2 POP POP SWAP3 SWAP2 POP POP JUMP JUMPDEST PUSH1 0x0 DUP1 PUSH1 0x0 DUP1 PUSH1 0x80 DUP6 DUP8 SUB SLT ISZERO PUSH2 0x2EAE JUMPI PUSH2 0x2EAD PUSH2 0x2AFB JUMP JUMPDEST JUMPDEST PUSH1 0x0 PUSH2 0x2EBC DUP8 DUP3 DUP9 ADD PUSH2 0x2B84 JUMP JUMPDEST SWAP5 POP POP PUSH1 0x20 PUSH2 0x2ECD DUP8 DUP3 DUP9 ADD PUSH2 0x2B84 JUMP JUMPDEST SWAP4 POP POP PUSH1 0x40 PUSH2 0x2EDE DUP8 DUP3 DUP9 ADD PUSH2 0x2B84 JUMP JUMPDEST SWAP3 POP POP PUSH1 0x60 PUSH2 0x2EEF DUP8 DUP3 DUP9 ADD PUSH2 0x2B84 JUMP JUMPDEST SWAP2 POP POP SWAP3 SWAP6 SWAP2 SWAP5 POP SWAP3 POP JUMP JUMPDEST PUSH1 0x0 DUP1 REVERT JUMPDEST PUSH1 0x0 DUP1 REVERT JUMPDEST PUSH1 0x0 DUP1 REVERT JUMPDEST PUSH1 0x0 DUP1 DUP4 PUSH1 0x1F DUP5 ADD SLT PUSH2 0x2F20 JUMPI PUSH2 0x2F1F PUSH2 0x2EFB JUMP JUMPDEST JUMPDEST DUP3 CALLDATALOAD SWAP1 POP PUSH8 0xFFFFFFFFFFFFFFFF DUP2 GT ISZERO PUSH2 0x2F3D JUMPI PUSH2 0x2F3C PUSH2 0x2F00 JUMP JUMPDEST JUMPDEST PUSH1 0x20 DUP4 ADD SWAP2 POP DUP4 PUSH1 0x20 DUP3 MUL DUP4 ADD GT ISZERO PUSH2 0x2F59 JUMPI PUSH2 0x2F58 PUSH2 0x2F05 JUMP JUMPDEST JUMPDEST SWAP3 POP SWAP3 SWAP1 POP JUMP JUMPDEST PUSH1 0x0 DUP1 PUSH1 0x0 PUSH1 0x40 DUP5 DUP7 SUB SLT ISZERO PUSH2 0x2F79 JUMPI PUSH2 0x2F78 PUSH2 0x2AFB JUMP JUMPDEST JUMPDEST PUSH1 0x0 DUP5 ADD CALLDATALOAD PUSH8 0xFFFFFFFFFFFFFFFF DUP2 GT ISZERO PUSH2 0x2F97 JUMPI PUSH2 0x2F96 PUSH2 0x2B00 JUMP JUMPDEST JUMPDEST PUSH2 0x2FA3 DUP7 DUP3 DUP8 ADD PUSH2 0x2F0A JUMP JUMPDEST SWAP4 POP SWAP4 POP POP PUSH1 0x20 PUSH2 0x2FB6 DUP7 DUP3 DUP8 ADD PUSH2 0x2DBA JUMP JUMPDEST SWAP2 POP POP SWAP3 POP SWAP3 POP SWAP3 JUMP JUMPDEST PUSH1 0x0 DUP1 PUSH1 0x40 DUP4 DUP6 SUB SLT ISZERO PUSH2 0x2FD7 JUMPI PUSH2 0x2FD6 PUSH2 0x2AFB JUMP JUMPDEST JUMPDEST PUSH1 0x0 PUSH2 0x2FE5 DUP6 DUP3 DUP7 ADD PUSH2 0x2B4E JUMP JUMPDEST SWAP3 POP POP PUSH1 0x20 PUSH2 0x2FF6 DUP6 DUP3 DUP7 ADD PUSH2 0x2B4E JUMP JUMPDEST SWAP2 POP POP SWAP3 POP SWAP3 SWAP1 POP JUMP JUMPDEST PUSH32 0x43616C6C6572206973206E6F7420746865206465760000000000000000000000 PUSH1 0x0 DUP3 ADD MSTORE POP JUMP JUMPDEST PUSH1 0x0 PUSH2 0x3036 PUSH1 0x15 DUP4 PUSH2 0x2A4B JUMP JUMPDEST SWAP2 POP PUSH2 0x3041 DUP3 PUSH2 0x3000 JUMP JUMPDEST PUSH1 0x20 DUP3 ADD SWAP1 POP SWAP2 SWAP1 POP JUMP JUMPDEST PUSH1 0x0 PUSH1 0x20 DUP3 ADD SWAP1 POP DUP2 DUP2 SUB PUSH1 0x0 DUP4 ADD MSTORE PUSH2 0x3065 DUP2 PUSH2 0x3029 JUMP JUMPDEST SWAP1 POP SWAP2 SWAP1 POP JUMP JUMPDEST PUSH32 0x43616C6C6572206973206E6F7420746865206F776E6572000000000000000000 PUSH1 0x0 DUP3 ADD MSTORE POP JUMP JUMPDEST PUSH1 0x0 PUSH2 0x30A2 PUSH1 0x17 DUP4 PUSH2 0x2A4B JUMP JUMPDEST SWAP2 POP PUSH2 0x30AD DUP3 PUSH2 0x306C JUMP JUMPDEST PUSH1 0x20 DUP3 ADD SWAP1 POP SWAP2 SWAP1 POP JUMP JUMPDEST PUSH1 0x0 PUSH1 0x20 DUP3 ADD SWAP1 POP DUP2 DUP2 SUB PUSH1 0x0 DUP4 ADD MSTORE PUSH2 0x30D1 DUP2 PUSH2 0x3095 JUMP JUMPDEST SWAP1 POP SWAP2 SWAP1 POP JUMP JUMPDEST PUSH32 0x52656469732063616E6E6F74206265206D6F7265207468616E2031302E000000 PUSH1 0x0 DUP3 ADD MSTORE POP JUMP JUMPDEST PUSH1 0x0 PUSH2 0x310E PUSH1 0x1D DUP4 PUSH2 0x2A4B JUMP JUMPDEST SWAP2 POP PUSH2 0x3119 DUP3 PUSH2 0x30D8 JUMP JUMPDEST PUSH1 0x20 DUP3 ADD SWAP1 POP SWAP2 SWAP1 POP JUMP JUMPDEST PUSH1 0x0 PUSH1 0x20 DUP3 ADD SWAP1 POP DUP2 DUP2 SUB PUSH1 0x0 DUP4 ADD MSTORE PUSH2 0x313D DUP2 PUSH2 0x3101 JUMP JUMPDEST SWAP1 POP SWAP2 SWAP1 POP JUMP JUMPDEST PUSH32 0x5461782063616E6E6F74206265206D6F7265207468616E20362E000000000000 PUSH1 0x0 DUP3 ADD MSTORE POP JUMP JUMPDEST PUSH1 0x0 PUSH2 0x317A PUSH1 0x1A DUP4 PUSH2 0x2A4B JUMP JUMPDEST SWAP2 POP PUSH2 0x3185 DUP3 PUSH2 0x3144 JUMP JUMPDEST PUSH1 0x20 DUP3 ADD SWAP1 POP SWAP2 SWAP1 POP JUMP JUMPDEST PUSH1 0x0 PUSH1 0x20 DUP3 ADD SWAP1 POP DUP2 DUP2 SUB PUSH1 0x0 DUP4 ADD MSTORE PUSH2 0x31A9 DUP2 PUSH2 0x316D JUMP JUMPDEST SWAP1 POP SWAP2 SWAP1 POP JUMP JUMPDEST PUSH32 0x4E487B7100000000000000000000000000000000000000000000000000000000 PUSH1 0x0 MSTORE PUSH1 0x32 PUSH1 0x4 MSTORE PUSH1 0x24 PUSH1 0x0 REVERT JUMPDEST PUSH32 0x4E487B7100000000000000000000000000000000000000000000000000000000 PUSH1 0x0 MSTORE PUSH1 0x11 PUSH1 0x4 MSTORE PUSH1 0x24 PUSH1 0x0 REVERT JUMPDEST PUSH1 0x0 PUSH2 0x3219 DUP3 PUSH2 0x2B63 JUMP JUMPDEST SWAP2 POP PUSH32 0xFFFFFFFFFFFFFFFFFFFFFFFFFFFFFFFFFFFFFFFFFFFFFFFFFFFFFFFFFFFFFFFF DUP3 SUB PUSH2 0x324B JUMPI PUSH2 0x324A PUSH2 0x31DF JUMP JUMPDEST JUMPDEST PUSH1 0x1 DUP3 ADD SWAP1 POP SWAP2 SWAP1 POP JUMP JUMPDEST PUSH1 0x0 PUSH1 0x40 DUP3 ADD SWAP1 POP PUSH2 0x326B PUSH1 0x0 DUP4 ADD DUP6 PUSH2 0x2D3D JUMP JUMPDEST PUSH2 0x3278 PUSH1 0x20 DUP4 ADD DUP5 PUSH2 0x2C89 JUMP JUMPDEST SWAP4 SWAP3 POP POP POP JUMP JUMPDEST PUSH1 0x0 DUP2 MLOAD SWAP1 POP PUSH2 0x328E DUP2 PUSH2 0x2DA3 JUMP JUMPDEST SWAP3 SWAP2 POP POP JUMP JUMPDEST PUSH1 0x0 PUSH1 0x20 DUP3 DUP5 SUB SLT ISZERO PUSH2 0x32AA JUMPI PUSH2 0x32A9 PUSH2 0x2AFB JUMP JUMPDEST JUMPDEST PUSH1 0x0 PUSH2 0x32B8 DUP5 DUP3 DUP6 ADD PUSH2 0x327F JUMP JUMPDEST SWAP2 POP POP SWAP3 SWAP2 POP POP JUMP JUMPDEST PUSH32 0x45524332303A20617070726F76652066726F6D20746865207A65726F20616464 PUSH1 0x0 DUP3 ADD MSTORE PUSH32 0x7265737300000000000000000000000000000000000000000000000000000000 PUSH1 0x20 DUP3 ADD MSTORE POP JUMP JUMPDEST PUSH1 0x0 PUSH2 0x331D PUSH1 0x24 DUP4 PUSH2 0x2A4B JUMP JUMPDEST SWAP2 POP PUSH2 0x3328 DUP3 PUSH2 0x32C1 JUMP JUMPDEST PUSH1 0x40 DUP3 ADD SWAP1 POP SWAP2 SWAP1 POP JUMP JUMPDEST PUSH1 0x0 PUSH1 0x20 DUP3 ADD SWAP1 POP DUP2 DUP2 SUB PUSH1 0x0 DUP4 ADD MSTORE PUSH2 0x334C DUP2 PUSH2 0x3310 JUMP JUMPDEST SWAP1 POP SWAP2 SWAP1 POP JUMP JUMPDEST PUSH32 0x45524332303A20617070726F766520746F20746865207A65726F206164647265 PUSH1 0x0 DUP3 ADD MSTORE PUSH32 0x7373000000000000000000000000000000000000000000000000000000000000 PUSH1 0x20 DUP3 ADD MSTORE POP JUMP JUMPDEST PUSH1 0x0 PUSH2 0x33AF PUSH1 0x22 DUP4 PUSH2 0x2A4B JUMP JUMPDEST SWAP2 POP PUSH2 0x33BA DUP3 PUSH2 0x3353 JUMP JUMPDEST PUSH1 0x40 DUP3 ADD SWAP1 POP SWAP2 SWAP1 POP JUMP JUMPDEST PUSH1 0x0 PUSH1 0x20 DUP3 ADD SWAP1 POP DUP2 DUP2 SUB PUSH1 0x0 DUP4 ADD MSTORE PUSH2 0x33DE DUP2 PUSH2 0x33A2 JUMP JUMPDEST SWAP1 POP SWAP2 SWAP1 POP JUMP JUMPDEST PUSH32 0x45524332303A207472616E736665722066726F6D20746865207A65726F206164 PUSH1 0x0 DUP3 ADD MSTORE PUSH32 0x6472657373000000000000000000000000000000000000000000000000000000 PUSH1 0x20 DUP3 ADD MSTORE POP JUMP JUMPDEST PUSH1 0x0 PUSH2 0x3441 PUSH1 0x25 DUP4 PUSH2 0x2A4B JUMP JUMPDEST SWAP2 POP PUSH2 0x344C DUP3 PUSH2 0x33E5 JUMP JUMPDEST PUSH1 0x40 DUP3 ADD SWAP1 POP SWAP2 SWAP1 POP JUMP JUMPDEST PUSH1 0x0 PUSH1 0x20 DUP3 ADD SWAP1 POP DUP2 DUP2 SUB PUSH1 0x0 DUP4 ADD MSTORE PUSH2 0x3470 DUP2 PUSH2 0x3434 JUMP JUMPDEST SWAP1 POP SWAP2 SWAP1 POP JUMP JUMPDEST PUSH32 0x45524332303A207472616E7366657220746F20746865207A65726F2061646472 PUSH1 0x0 DUP3 ADD MSTORE PUSH32 0x6573730000000000000000000000000000000000000000000000000000000000 PUSH1 0x20 DUP3 ADD MSTORE POP JUMP JUMPDEST PUSH1 0x0 PUSH2 0x34D3 PUSH1 0x23 DUP4 PUSH2 0x2A4B JUMP JUMPDEST SWAP2 POP PUSH2 0x34DE DUP3 PUSH2 0x3477 JUMP JUMPDEST PUSH1 0x40 DUP3 ADD SWAP1 POP SWAP2 SWAP1 POP JUMP JUMPDEST PUSH1 0x0 PUSH1 0x20 DUP3 ADD SWAP1 POP DUP2 DUP2 SUB PUSH1 0x0 DUP4 ADD MSTORE PUSH2 0x3502 DUP2 PUSH2 0x34C6 JUMP JUMPDEST SWAP1 POP SWAP2 SWAP1 POP JUMP JUMPDEST PUSH32 0x5472616E7366657220616D6F756E74206D757374206265206772656174657220 PUSH1 0x0 DUP3 ADD MSTORE PUSH32 0x7468616E207A65726F0000000000000000000000000000000000000000000000 PUSH1 0x20 DUP3 ADD MSTORE POP JUMP JUMPDEST PUSH1 0x0 PUSH2 0x3565 PUSH1 0x29 DUP4 PUSH2 0x2A4B JUMP JUMPDEST SWAP2 POP PUSH2 0x3570 DUP3 PUSH2 0x3509 JUMP JUMPDEST PUSH1 0x40 DUP3 ADD SWAP1 POP SWAP2 SWAP1 POP JUMP JUMPDEST PUSH1 0x0 PUSH1 0x20 DUP3 ADD SWAP1 POP DUP2 DUP2 SUB PUSH1 0x0 DUP4 ADD MSTORE PUSH2 0x3594 DUP2 PUSH2 0x3558 JUMP JUMPDEST SWAP1 POP SWAP2 SWAP1 POP JUMP JUMPDEST PUSH1 0x0 PUSH2 0x35A6 DUP3 PUSH2 0x2B63 JUMP JUMPDEST SWAP2 POP PUSH2 0x35B1 DUP4 PUSH2 0x2B63 JUMP JUMPDEST SWAP3 POP DUP3 DUP3 LT ISZERO PUSH2 0x35C4 JUMPI PUSH2 0x35C3 PUSH2 0x31DF JUMP JUMPDEST JUMPDEST DUP3 DUP3 SUB SWAP1 POP SWAP3 SWAP2 POP POP JUMP JUMPDEST PUSH32 0x416D6F756E74206D757374206265206C657373207468616E20746F74616C2072 PUSH1 0x0 DUP3 ADD MSTORE PUSH32 0x65666C656374696F6E7300000000000000000000000000000000000000000000 PUSH1 0x20 DUP3 ADD MSTORE POP JUMP JUMPDEST PUSH1 0x0 PUSH2 0x362B PUSH1 0x2A DUP4 PUSH2 0x2A4B JUMP JUMPDEST SWAP2 POP PUSH2 0x3636 DUP3 PUSH2 0x35CF JUMP JUMPDEST PUSH1 0x40 DUP3 ADD SWAP1 POP SWAP2 SWAP1 POP JUMP JUMPDEST PUSH1 0x0 PUSH1 0x20 DUP3 ADD SWAP1 POP DUP2 DUP2 SUB PUSH1 0x0 DUP4 ADD MSTORE PUSH2 0x365A DUP2 PUSH2 0x361E JUMP JUMPDEST SWAP1 POP SWAP2 SWAP1 POP JUMP JUMPDEST PUSH32 0x4E487B7100000000000000000000000000000000000000000000000000000000 PUSH1 0x0 MSTORE PUSH1 0x41 PUSH1 0x4 MSTORE PUSH1 0x24 PUSH1 0x0 REVERT JUMPDEST PUSH1 0x0 DUP2 MLOAD SWAP1 POP PUSH2 0x369F DUP2 PUSH2 0x2B37 JUMP JUMPDEST SWAP3 SWAP2 POP POP JUMP JUMPDEST PUSH1 0x0 PUSH1 0x20 DUP3 DUP5 SUB SLT ISZERO PUSH2 0x36BB JUMPI PUSH2 0x36BA PUSH2 0x2AFB JUMP JUMPDEST JUMPDEST PUSH1 0x0 PUSH2 0x36C9 DUP5 DUP3 DUP6 ADD PUSH2 0x3690 JUMP JUMPDEST SWAP2 POP POP SWAP3 SWAP2 POP POP JUMP JUMPDEST PUSH1 0x0 DUP2 SWAP1 POP SWAP2 SWAP1 POP JUMP JUMPDEST PUSH1 0x0 PUSH2 0x36F7 PUSH2 0x36F2 PUSH2 0x36ED DUP5 PUSH2 0x36D2 JUMP JUMPDEST PUSH2 0x2C0F JUMP JUMPDEST PUSH2 0x2B63 JUMP JUMPDEST SWAP1 POP SWAP2 SWAP1 POP JUMP JUMPDEST PUSH2 0x3707 DUP2 PUSH2 0x36DC JUMP JUMPDEST DUP3 MSTORE POP POP JUMP JUMPDEST PUSH1 0x0 DUP2 MLOAD SWAP1 POP SWAP2 SWAP1 POP JUMP JUMPDEST PUSH1 0x0 DUP3 DUP3 MSTORE PUSH1 0x20 DUP3 ADD SWAP1 POP SWAP3 SWAP2 POP POP JUMP JUMPDEST PUSH1 0x0 DUP2 SWAP1 POP PUSH1 0x20 DUP3 ADD SWAP1 POP SWAP2 SWAP1 POP JUMP JUMPDEST PUSH2 0x3742 DUP2 PUSH2 0x2B25 JUMP JUMPDEST DUP3 MSTORE POP POP JUMP JUMPDEST PUSH1 0x0 PUSH2 0x3754 DUP4 DUP4 PUSH2 0x3739 JUMP JUMPDEST PUSH1 0x20 DUP4 ADD SWAP1 POP SWAP3 SWAP2 POP POP JUMP JUMPDEST PUSH1 0x0 PUSH1 0x20 DUP3 ADD SWAP1 POP SWAP2 SWAP1 POP JUMP JUMPDEST PUSH1 0x0 PUSH2 0x3778 DUP3 PUSH2 0x370D JUMP JUMPDEST PUSH2 0x3782 DUP2 DUP6 PUSH2 0x3718 JUMP JUMPDEST SWAP4 POP PUSH2 0x378D DUP4 PUSH2 0x3729 JUMP JUMPDEST DUP1 PUSH1 0x0 JUMPDEST DUP4 DUP2 LT ISZERO PUSH2 0x37BE JUMPI DUP2 MLOAD PUSH2 0x37A5 DUP9 DUP3 PUSH2 0x3748 JUMP JUMPDEST SWAP8 POP PUSH2 0x37B0 DUP4 PUSH2 0x3760 JUMP JUMPDEST SWAP3 POP POP PUSH1 0x1 DUP2 ADD SWAP1 POP PUSH2 0x3791 JUMP JUMPDEST POP DUP6 SWAP4 POP POP POP POP SWAP3 SWAP2 POP POP JUMP JUMPDEST PUSH1 0x0 PUSH1 0xA0 DUP3 ADD SWAP1 POP PUSH2 0x37E0 PUSH1 0x0 DUP4 ADD DUP9 PUSH2 0x2C89 JUMP JUMPDEST PUSH2 0x37ED PUSH1 0x20 DUP4 ADD DUP8 PUSH2 0x36FE JUMP JUMPDEST DUP2 DUP2 SUB PUSH1 0x40 DUP4 ADD MSTORE PUSH2 0x37FF DUP2 DUP7 PUSH2 0x376D JUMP JUMPDEST SWAP1 POP PUSH2 0x380E PUSH1 0x60 DUP4 ADD DUP6 PUSH2 0x2D3D JUMP JUMPDEST PUSH2 0x381B PUSH1 0x80 DUP4 ADD DUP5 PUSH2 0x2C89 JUMP JUMPDEST SWAP7 SWAP6 POP POP POP POP POP POP JUMP JUMPDEST PUSH32 0x4E487B7100000000000000000000000000000000000000000000000000000000 PUSH1 0x0 MSTORE PUSH1 0x12 PUSH1 0x4 MSTORE PUSH1 0x24 PUSH1 0x0 REVERT JUMPDEST PUSH1 0x0 PUSH2 0x385F DUP3 PUSH2 0x2B63 JUMP JUMPDEST SWAP2 POP PUSH2 0x386A DUP4 PUSH2 0x2B63 JUMP JUMPDEST SWAP3 POP DUP3 PUSH2 0x387A JUMPI PUSH2 0x3879 PUSH2 0x3825 JUMP JUMPDEST JUMPDEST DUP3 DUP3 DIV SWAP1 POP SWAP3 SWAP2 POP POP JUMP JUMPDEST PUSH1 0x0 PUSH2 0x3890 DUP3 PUSH2 0x2B63 JUMP JUMPDEST SWAP2 POP PUSH2 0x389B DUP4 PUSH2 0x2B63 JUMP JUMPDEST SWAP3 POP DUP3 PUSH32 0xFFFFFFFFFFFFFFFFFFFFFFFFFFFFFFFFFFFFFFFFFFFFFFFFFFFFFFFFFFFFFFFF SUB DUP3 GT ISZERO PUSH2 0x38D0 JUMPI PUSH2 0x38CF PUSH2 0x31DF JUMP JUMPDEST JUMPDEST DUP3 DUP3 ADD SWAP1 POP SWAP3 SWAP2 POP POP JUMP JUMPDEST PUSH32 0x536166654D6174683A206164646974696F6E206F766572666C6F770000000000 PUSH1 0x0 DUP3 ADD MSTORE POP JUMP JUMPDEST PUSH1 0x0 PUSH2 0x3911 PUSH1 0x1B DUP4 PUSH2 0x2A4B JUMP JUMPDEST SWAP2 POP PUSH2 0x391C DUP3 PUSH2 0x38DB JUMP JUMPDEST PUSH1 0x20 DUP3 ADD SWAP1 POP SWAP2 SWAP1 POP JUMP JUMPDEST PUSH1 0x0 PUSH1 0x20 DUP3 ADD SWAP1 POP DUP2 DUP2 SUB PUSH1 0x0 DUP4 ADD MSTORE PUSH2 0x3940 DUP2 PUSH2 0x3904 JUMP JUMPDEST SWAP1 POP SWAP2 SWAP1 POP JUMP JUMPDEST PUSH1 0x0 PUSH2 0x3952 DUP3 PUSH2 0x2B63 JUMP JUMPDEST SWAP2 POP PUSH2 0x395D DUP4 PUSH2 0x2B63 JUMP JUMPDEST SWAP3 POP DUP2 PUSH32 0xFFFFFFFFFFFFFFFFFFFFFFFFFFFFFFFFFFFFFFFFFFFFFFFFFFFFFFFFFFFFFFFF DIV DUP4 GT DUP3 ISZERO ISZERO AND ISZERO PUSH2 0x3996 JUMPI PUSH2 0x3995 PUSH2 0x31DF JUMP JUMPDEST JUMPDEST DUP3 DUP3 MUL SWAP1 POP SWAP3 SWAP2 POP POP JUMP JUMPDEST PUSH32 0x536166654D6174683A206D756C7469706C69636174696F6E206F766572666C6F PUSH1 0x0 DUP3 ADD MSTORE PUSH32 0x7700000000000000000000000000000000000000000000000000000000000000 PUSH1 0x20 DUP3 ADD MSTORE POP JUMP JUMPDEST PUSH1 0x0 PUSH2 0x39FD PUSH1 0x21 DUP4 PUSH2 0x2A4B JUMP JUMPDEST SWAP2 POP PUSH2 0x3A08 DUP3 PUSH2 0x39A1 JUMP JUMPDEST PUSH1 0x40 DUP3 ADD SWAP1 POP SWAP2 SWAP1 POP JUMP JUMPDEST PUSH1 0x0 PUSH1 0x20 DUP3 ADD SWAP1 POP DUP2 DUP2 SUB PUSH1 0x0 DUP4 ADD MSTORE PUSH2 0x3A2C DUP2 PUSH2 0x39F0 JUMP JUMPDEST SWAP1 POP SWAP2 SWAP1 POP JUMP INVALID GASLIMIT MSTORE NUMBER ORIGIN ADDRESS GASPRICE KECCAK256 PUSH21 0x72616E7366657220616D6F756E7420657863656564 PUSH20 0x20616C6C6F77616E6365A2646970667358221220 DUP2 0xEC 0x5E 0xC3 0xC0 DUP1 0x2F 0xE9 DUP8 CALLER 0x4C SWAP8 0xDA JUMP JUMPDEST COINBASE 0xE RETURNDATASIZE 0xE6 PUSH13 0x49BD5979933AE33579D2D62964 PUSH20 0x6F6C634300080D00330000000000000000000000 "
				},
				"gasEstimates": {
					"creation": {
						"codeDepositCost": "2998600",
						"executionCost": "infinite",
						"totalCost": "infinite"
					},
					"external": {
						"_factory()": "2558",
						"_test()": "infinite",
						"allowance(address,address)": "infinite",
						"approve(address,uint256)": "infinite",
						"balanceOf(address)": "infinite",
						"decimals()": "477",
						"excludeMultipleAccountsFromFees(address[],bool)": "infinite",
						"manualsend()": "infinite",
						"manualswap()": "infinite",
						"name()": "infinite",
						"owner()": "2567",
						"renounceOwnership()": "30424",
						"rescueForeignTokens(address,address,uint256)": "infinite",
						"setFee(uint256,uint256,uint256,uint256)": "infinite",
						"setNewDevAddress(address)": "infinite",
						"setNewMarketingAddress(address)": "infinite",
						"symbol()": "infinite",
						"toggleSwap(bool)": "infinite",
						"totalSupply()": "427",
						"transfer(address,uint256)": "infinite",
						"transferFrom(address,address,uint256)": "infinite",
						"transferOwnership(address)": "30712",
						"uniswapV2Factory()": "infinite",
						"uniswapV2Pair()": "2537",
						"uniswapV2Router()": "infinite"
					},
					"internal": {
						"_approve(address,address,uint256)": "infinite",
						"_getCurrentSupply()": "infinite",
						"_getRValues(uint256,uint256,uint256,uint256)": "infinite",
						"_getRate()": "infinite",
						"_getTValues(uint256,uint256,uint256)": "infinite",
						"_getValues(uint256)": "infinite",
						"_reflectFee(uint256,uint256)": "infinite",
						"_takeTeam(uint256)": "infinite",
						"_tokenTransfer(address,address,uint256)": "infinite",
						"_transfer(address,address,uint256)": "infinite",
						"_transferStandard(address,address,uint256)": "infinite",
						"sendETHToFee(uint256)": "infinite",
						"swapTokensForEth(uint256)": "infinite",
						"tokenFromReflection(uint256)": "infinite"
					}
				},
				"methodIdentifiers": {
					"_factory()": "c5cc6b6a",
					"_test()": "a6246d09",
					"allowance(address,address)": "dd62ed3e",
					"approve(address,uint256)": "095ea7b3",
					"balanceOf(address)": "70a08231",
					"decimals()": "313ce567",
					"excludeMultipleAccountsFromFees(address[],bool)": "c492f046",
					"manualsend()": "6fc3eaec",
					"manualswap()": "c3c8cd80",
					"name()": "06fdde03",
					"owner()": "8da5cb5b",
					"renounceOwnership()": "715018a6",
					"rescueForeignTokens(address,address,uint256)": "e293d316",
					"setFee(uint256,uint256,uint256,uint256)": "a2a957bb",
					"setNewDevAddress(address)": "aad5c023",
					"setNewMarketingAddress(address)": "758dbe03",
					"symbol()": "95d89b41",
					"toggleSwap(bool)": "6d8aa8f8",
					"totalSupply()": "18160ddd",
					"transfer(address,uint256)": "a9059cbb",
					"transferFrom(address,address,uint256)": "23b872dd",
					"transferOwnership(address)": "f2fde38b",
					"uniswapV2Factory()": "59d0f713",
					"uniswapV2Pair()": "49bd5a5e",
					"uniswapV2Router()": "1694505e"
				}
			},
			"storageLayout": {
				"storage": [
					{
						"astId": 330,
						"contract": "contracts/Pool/Pool.sol:World_Step",
						"label": "_owner",
						"offset": 0,
						"slot": "0",
						"type": "t_address"
					},
					{
						"astId": 332,
						"contract": "contracts/Pool/Pool.sol:World_Step",
						"label": "_previousOwner",
						"offset": 0,
						"slot": "1",
						"type": "t_address"
					},
					{
						"astId": 431,
						"contract": "contracts/Pool/Pool.sol:World_Step",
						"label": "_rOwned",
						"offset": 0,
						"slot": "2",
						"type": "t_mapping(t_address,t_uint256)"
					},
					{
						"astId": 435,
						"contract": "contracts/Pool/Pool.sol:World_Step",
						"label": "_tOwned",
						"offset": 0,
						"slot": "3",
						"type": "t_mapping(t_address,t_uint256)"
					},
					{
						"astId": 441,
						"contract": "contracts/Pool/Pool.sol:World_Step",
						"label": "_allowances",
						"offset": 0,
						"slot": "4",
						"type": "t_mapping(t_address,t_mapping(t_address,t_uint256))"
					},
					{
						"astId": 445,
						"contract": "contracts/Pool/Pool.sol:World_Step",
						"label": "_isExcludedFromFee",
						"offset": 0,
						"slot": "5",
						"type": "t_mapping(t_address,t_bool)"
					},
					{
						"astId": 468,
						"contract": "contracts/Pool/Pool.sol:World_Step",
						"label": "_rTotal",
						"offset": 0,
						"slot": "6",
						"type": "t_uint256"
					},
					{
						"astId": 470,
						"contract": "contracts/Pool/Pool.sol:World_Step",
						"label": "_tFeeTotal",
						"offset": 0,
						"slot": "7",
						"type": "t_uint256"
					},
					{
						"astId": 473,
						"contract": "contracts/Pool/Pool.sol:World_Step",
						"label": "_redisFeeOnBuy",
						"offset": 0,
						"slot": "8",
						"type": "t_uint256"
					},
					{
						"astId": 476,
						"contract": "contracts/Pool/Pool.sol:World_Step",
						"label": "_taxFeeOnBuy",
						"offset": 0,
						"slot": "9",
						"type": "t_uint256"
					},
					{
						"astId": 479,
						"contract": "contracts/Pool/Pool.sol:World_Step",
						"label": "_redisFeeOnSell",
						"offset": 0,
						"slot": "10",
						"type": "t_uint256"
					},
					{
						"astId": 482,
						"contract": "contracts/Pool/Pool.sol:World_Step",
						"label": "_taxFeeOnSell",
						"offset": 0,
						"slot": "11",
						"type": "t_uint256"
					},
					{
						"astId": 484,
						"contract": "contracts/Pool/Pool.sol:World_Step",
						"label": "_redisFee",
						"offset": 0,
						"slot": "12",
						"type": "t_uint256"
					},
					{
						"astId": 486,
						"contract": "contracts/Pool/Pool.sol:World_Step",
						"label": "_taxFee",
						"offset": 0,
						"slot": "13",
						"type": "t_uint256"
					},
					{
						"astId": 501,
						"contract": "contracts/Pool/Pool.sol:World_Step",
						"label": "_developmentAddress",
						"offset": 0,
						"slot": "14",
						"type": "t_address_payable"
					},
					{
						"astId": 507,
						"contract": "contracts/Pool/Pool.sol:World_Step",
						"label": "_marketingAddress",
						"offset": 0,
						"slot": "15",
						"type": "t_address_payable"
					},
					{
						"astId": 513,
						"contract": "contracts/Pool/Pool.sol:World_Step",
						"label": "_rewardPool",
						"offset": 0,
						"slot": "16",
						"type": "t_address_payable"
					},
					{
						"astId": 516,
						"contract": "contracts/Pool/Pool.sol:World_Step",
						"label": "uniswapV2Router",
						"offset": 0,
						"slot": "17",
						"type": "t_contract(IUniswapV2Router02)170"
					},
					{
						"astId": 519,
						"contract": "contracts/Pool/Pool.sol:World_Step",
						"label": "uniswapV2Factory",
						"offset": 0,
						"slot": "18",
						"type": "t_contract(IUniswapV2Factory)99"
					},
					{
						"astId": 521,
						"contract": "contracts/Pool/Pool.sol:World_Step",
						"label": "_factory",
						"offset": 0,
						"slot": "19",
						"type": "t_address"
					},
					{
						"astId": 523,
						"contract": "contracts/Pool/Pool.sol:World_Step",
						"label": "uniswapV2Pair",
						"offset": 0,
						"slot": "20",
						"type": "t_address"
					},
					{
						"astId": 526,
						"contract": "contracts/Pool/Pool.sol:World_Step",
						"label": "inSwap",
						"offset": 20,
						"slot": "20",
						"type": "t_bool"
					},
					{
						"astId": 529,
						"contract": "contracts/Pool/Pool.sol:World_Step",
						"label": "swapEnabled",
						"offset": 21,
						"slot": "20",
						"type": "t_bool"
					}
				],
				"types": {
					"t_address": {
						"encoding": "inplace",
						"label": "address",
						"numberOfBytes": "20"
					},
					"t_address_payable": {
						"encoding": "inplace",
						"label": "address payable",
						"numberOfBytes": "20"
					},
					"t_bool": {
						"encoding": "inplace",
						"label": "bool",
						"numberOfBytes": "1"
					},
					"t_contract(IUniswapV2Factory)99": {
						"encoding": "inplace",
						"label": "contract IUniswapV2Factory",
						"numberOfBytes": "20"
					},
					"t_contract(IUniswapV2Router02)170": {
						"encoding": "inplace",
						"label": "contract IUniswapV2Router02",
						"numberOfBytes": "20"
					},
					"t_mapping(t_address,t_bool)": {
						"encoding": "mapping",
						"key": "t_address",
						"label": "mapping(address => bool)",
						"numberOfBytes": "32",
						"value": "t_bool"
					},
					"t_mapping(t_address,t_mapping(t_address,t_uint256))": {
						"encoding": "mapping",
						"key": "t_address",
						"label": "mapping(address => mapping(address => uint256))",
						"numberOfBytes": "32",
						"value": "t_mapping(t_address,t_uint256)"
					},
					"t_mapping(t_address,t_uint256)": {
						"encoding": "mapping",
						"key": "t_address",
						"label": "mapping(address => uint256)",
						"numberOfBytes": "32",
						"value": "t_uint256"
					},
					"t_uint256": {
						"encoding": "inplace",
						"label": "uint256",
						"numberOfBytes": "32"
					}
				}
			},
			"userdoc": {
				"kind": "user",
				"methods": {},
				"version": 1
			}
		}
	}
}