{
	"contracts/Pool/PoolPig.sol": {
		"PigToken": {
			"abi": [
				{
					"inputs": [],
					"stateMutability": "nonpayable",
					"type": "constructor"
				},
				{
					"anonymous": false,
					"inputs": [
						{
							"indexed": true,
							"internalType": "address",
							"name": "owner",
							"type": "address"
						},
						{
							"indexed": true,
							"internalType": "address",
							"name": "spender",
							"type": "address"
						},
						{
							"indexed": false,
							"internalType": "uint256",
							"name": "value",
							"type": "uint256"
						}
					],
					"name": "Approval",
					"type": "event"
				},
				{
					"anonymous": false,
					"inputs": [
						{
							"indexed": false,
							"internalType": "uint256",
							"name": "minTokensBeforeSwap",
							"type": "uint256"
						}
					],
					"name": "MinTokensBeforeSwapUpdated",
					"type": "event"
				},
				{
					"anonymous": false,
					"inputs": [
						{
							"indexed": true,
							"internalType": "address",
							"name": "previousOwner",
							"type": "address"
						},
						{
							"indexed": true,
							"internalType": "address",
							"name": "newOwner",
							"type": "address"
						}
					],
					"name": "OwnershipTransferred",
					"type": "event"
				},
				{
					"anonymous": false,
					"inputs": [
						{
							"indexed": false,
							"internalType": "uint256",
							"name": "tokensSwapped",
							"type": "uint256"
						},
						{
							"indexed": false,
							"internalType": "uint256",
							"name": "ethReceived",
							"type": "uint256"
						},
						{
							"indexed": false,
							"internalType": "uint256",
							"name": "tokensIntoLiqudity",
							"type": "uint256"
						}
					],
					"name": "SwapAndLiquify",
					"type": "event"
				},
				{
					"anonymous": false,
					"inputs": [
						{
							"indexed": false,
							"internalType": "bool",
							"name": "enabled",
							"type": "bool"
						}
					],
					"name": "SwapAndLiquifyEnabledUpdated",
					"type": "event"
				},
				{
					"anonymous": false,
					"inputs": [
						{
							"indexed": true,
							"internalType": "address",
							"name": "from",
							"type": "address"
						},
						{
							"indexed": true,
							"internalType": "address",
							"name": "to",
							"type": "address"
						},
						{
							"indexed": false,
							"internalType": "uint256",
							"name": "value",
							"type": "uint256"
						}
					],
					"name": "Transfer",
					"type": "event"
				},
				{
					"inputs": [],
					"name": "_liquidityFee",
					"outputs": [
						{
							"internalType": "uint256",
							"name": "",
							"type": "uint256"
						}
					],
					"stateMutability": "view",
					"type": "function"
				},
				{
					"inputs": [],
					"name": "_maxTxAmount",
					"outputs": [
						{
							"internalType": "uint256",
							"name": "",
							"type": "uint256"
						}
					],
					"stateMutability": "view",
					"type": "function"
				},
				{
					"inputs": [],
					"name": "_taxFee",
					"outputs": [
						{
							"internalType": "uint256",
							"name": "",
							"type": "uint256"
						}
					],
					"stateMutability": "view",
					"type": "function"
				},
				{
					"inputs": [
						{
							"internalType": "address",
							"name": "owner",
							"type": "address"
						},
						{
							"internalType": "address",
							"name": "spender",
							"type": "address"
						}
					],
					"name": "allowance",
					"outputs": [
						{
							"internalType": "uint256",
							"name": "",
							"type": "uint256"
						}
					],
					"stateMutability": "view",
					"type": "function"
				},
				{
					"inputs": [
						{
							"internalType": "address",
							"name": "spender",
							"type": "address"
						},
						{
							"internalType": "uint256",
							"name": "amount",
							"type": "uint256"
						}
					],
					"name": "approve",
					"outputs": [
						{
							"internalType": "bool",
							"name": "",
							"type": "bool"
						}
					],
					"stateMutability": "nonpayable",
					"type": "function"
				},
				{
					"inputs": [
						{
							"internalType": "address",
							"name": "account",
							"type": "address"
						}
					],
					"name": "balanceOf",
					"outputs": [
						{
							"internalType": "uint256",
							"name": "",
							"type": "uint256"
						}
					],
					"stateMutability": "view",
					"type": "function"
				},
				{
					"inputs": [],
					"name": "decimals",
					"outputs": [
						{
							"internalType": "uint8",
							"name": "",
							"type": "uint8"
						}
					],
					"stateMutability": "view",
					"type": "function"
				},
				{
					"inputs": [
						{
							"internalType": "address",
							"name": "spender",
							"type": "address"
						},
						{
							"internalType": "uint256",
							"name": "subtractedValue",
							"type": "uint256"
						}
					],
					"name": "decreaseAllowance",
					"outputs": [
						{
							"internalType": "bool",
							"name": "",
							"type": "bool"
						}
					],
					"stateMutability": "nonpayable",
					"type": "function"
				},
				{
					"inputs": [
						{
							"internalType": "uint256",
							"name": "tAmount",
							"type": "uint256"
						}
					],
					"name": "deliver",
					"outputs": [],
					"stateMutability": "nonpayable",
					"type": "function"
				},
				{
					"inputs": [
						{
							"internalType": "address",
							"name": "account",
							"type": "address"
						}
					],
					"name": "excludeFromFee",
					"outputs": [],
					"stateMutability": "nonpayable",
					"type": "function"
				},
				{
					"inputs": [
						{
							"internalType": "address",
							"name": "account",
							"type": "address"
						}
					],
					"name": "excludeFromReward",
					"outputs": [],
					"stateMutability": "nonpayable",
					"type": "function"
				},
				{
					"inputs": [],
					"name": "geUnlockTime",
					"outputs": [
						{
							"internalType": "uint256",
							"name": "",
							"type": "uint256"
						}
					],
					"stateMutability": "view",
					"type": "function"
				},
				{
					"inputs": [
						{
							"internalType": "address",
							"name": "account",
							"type": "address"
						}
					],
					"name": "includeInFee",
					"outputs": [],
					"stateMutability": "nonpayable",
					"type": "function"
				},
				{
					"inputs": [
						{
							"internalType": "address",
							"name": "account",
							"type": "address"
						}
					],
					"name": "includeInReward",
					"outputs": [],
					"stateMutability": "nonpayable",
					"type": "function"
				},
				{
					"inputs": [
						{
							"internalType": "address",
							"name": "spender",
							"type": "address"
						},
						{
							"internalType": "uint256",
							"name": "addedValue",
							"type": "uint256"
						}
					],
					"name": "increaseAllowance",
					"outputs": [
						{
							"internalType": "bool",
							"name": "",
							"type": "bool"
						}
					],
					"stateMutability": "nonpayable",
					"type": "function"
				},
				{
					"inputs": [
						{
							"internalType": "address",
							"name": "account",
							"type": "address"
						}
					],
					"name": "isExcludedFromFee",
					"outputs": [
						{
							"internalType": "bool",
							"name": "",
							"type": "bool"
						}
					],
					"stateMutability": "view",
					"type": "function"
				},
				{
					"inputs": [
						{
							"internalType": "address",
							"name": "account",
							"type": "address"
						}
					],
					"name": "isExcludedFromReward",
					"outputs": [
						{
							"internalType": "bool",
							"name": "",
							"type": "bool"
						}
					],
					"stateMutability": "view",
					"type": "function"
				},
				{
					"inputs": [
						{
							"internalType": "uint256",
							"name": "time",
							"type": "uint256"
						}
					],
					"name": "lock",
					"outputs": [],
					"stateMutability": "nonpayable",
					"type": "function"
				},
				{
					"inputs": [],
					"name": "name",
					"outputs": [
						{
							"internalType": "string",
							"name": "",
							"type": "string"
						}
					],
					"stateMutability": "view",
					"type": "function"
				},
				{
					"inputs": [],
					"name": "owner",
					"outputs": [
						{
							"internalType": "address",
							"name": "",
							"type": "address"
						}
					],
					"stateMutability": "view",
					"type": "function"
				},
				{
					"inputs": [
						{
							"internalType": "uint256",
							"name": "tAmount",
							"type": "uint256"
						},
						{
							"internalType": "bool",
							"name": "deductTransferFee",
							"type": "bool"
						}
					],
					"name": "reflectionFromToken",
					"outputs": [
						{
							"internalType": "uint256",
							"name": "",
							"type": "uint256"
						}
					],
					"stateMutability": "view",
					"type": "function"
				},
				{
					"inputs": [],
					"name": "renounceOwnership",
					"outputs": [],
					"stateMutability": "nonpayable",
					"type": "function"
				},
				{
					"inputs": [
						{
							"internalType": "uint256",
							"name": "liquidityFee",
							"type": "uint256"
						}
					],
					"name": "setLiquidityFeePercent",
					"outputs": [],
					"stateMutability": "nonpayable",
					"type": "function"
				},
				{
					"inputs": [
						{
							"internalType": "uint256",
							"name": "maxTxPercent",
							"type": "uint256"
						}
					],
					"name": "setMaxTxPercent",
					"outputs": [],
					"stateMutability": "nonpayable",
					"type": "function"
				},
				{
					"inputs": [
						{
							"internalType": "bool",
							"name": "_enabled",
							"type": "bool"
						}
					],
					"name": "setSwapAndLiquifyEnabled",
					"outputs": [],
					"stateMutability": "nonpayable",
					"type": "function"
				},
				{
					"inputs": [
						{
							"internalType": "uint256",
							"name": "taxFee",
							"type": "uint256"
						}
					],
					"name": "setTaxFeePercent",
					"outputs": [],
					"stateMutability": "nonpayable",
					"type": "function"
				},
				{
					"inputs": [],
					"name": "swapAndLiquifyEnabled",
					"outputs": [
						{
							"internalType": "bool",
							"name": "",
							"type": "bool"
						}
					],
					"stateMutability": "view",
					"type": "function"
				},
				{
					"inputs": [],
					"name": "symbol",
					"outputs": [
						{
							"internalType": "string",
							"name": "",
							"type": "string"
						}
					],
					"stateMutability": "view",
					"type": "function"
				},
				{
					"inputs": [
						{
							"internalType": "uint256",
							"name": "rAmount",
							"type": "uint256"
						}
					],
					"name": "tokenFromReflection",
					"outputs": [
						{
							"internalType": "uint256",
							"name": "",
							"type": "uint256"
						}
					],
					"stateMutability": "view",
					"type": "function"
				},
				{
					"inputs": [],
					"name": "totalFees",
					"outputs": [
						{
							"internalType": "uint256",
							"name": "",
							"type": "uint256"
						}
					],
					"stateMutability": "view",
					"type": "function"
				},
				{
					"inputs": [],
					"name": "totalSupply",
					"outputs": [
						{
							"internalType": "uint256",
							"name": "",
							"type": "uint256"
						}
					],
					"stateMutability": "view",
					"type": "function"
				},
				{
					"inputs": [
						{
							"internalType": "address",
							"name": "recipient",
							"type": "address"
						},
						{
							"internalType": "uint256",
							"name": "amount",
							"type": "uint256"
						}
					],
					"name": "transfer",
					"outputs": [
						{
							"internalType": "bool",
							"name": "",
							"type": "bool"
						}
					],
					"stateMutability": "nonpayable",
					"type": "function"
				},
				{
					"inputs": [
						{
							"internalType": "address",
							"name": "sender",
							"type": "address"
						},
						{
							"internalType": "address",
							"name": "recipient",
							"type": "address"
						},
						{
							"internalType": "uint256",
							"name": "amount",
							"type": "uint256"
						}
					],
					"name": "transferFrom",
					"outputs": [
						{
							"internalType": "bool",
							"name": "",
							"type": "bool"
						}
					],
					"stateMutability": "nonpayable",
					"type": "function"
				},
				{
					"inputs": [
						{
							"internalType": "address",
							"name": "newOwner",
							"type": "address"
						}
					],
					"name": "transferOwnership",
					"outputs": [],
					"stateMutability": "nonpayable",
					"type": "function"
				},
				{
					"inputs": [],
					"name": "uniswapV2Pair",
					"outputs": [
						{
							"internalType": "address",
							"name": "",
							"type": "address"
						}
					],
					"stateMutability": "view",
					"type": "function"
				},
				{
					"inputs": [],
					"name": "uniswapV2Router",
					"outputs": [
						{
							"internalType": "contract IUniswapV2Router02",
							"name": "",
							"type": "address"
						}
					],
					"stateMutability": "view",
					"type": "function"
				},
				{
					"inputs": [],
					"name": "unlock",
					"outputs": [],
					"stateMutability": "nonpayable",
					"type": "function"
				},
				{
					"stateMutability": "payable",
					"type": "receive"
				}
			],
			"devdoc": {
				"kind": "dev",
				"methods": {
					"owner()": {
						"details": "Returns the address of the current owner."
					}
				},
				"version": 1
			},
			"evm": {
				"assembly": "    /* \"contracts/Pool/PoolPig.sol\":15130:32706  contract PigToken is Context, IERC20, Ownable {... */\n  mstore(0x40, 0xc0)\n    /* \"contracts/Pool/PoolPig.sol\":15652:15670  1000000000 * 10**9 */\n  0x0de0b6b3a7640000\n    /* \"contracts/Pool/PoolPig.sol\":15609:15610  0 */\n  0x00\n    /* \"contracts/Pool/PoolPig.sol\":15600:15611  ~uint256(0) */\n  not\n    /* \"contracts/Pool/PoolPig.sol\":15710:15723  MAX % _tTotal */\n  dup2\n  tag_1\n  jumpi\n  invalid\ntag_1:\n  mod\n    /* \"contracts/Pool/PoolPig.sol\":15609:15610  0 */\n  0x00\n    /* \"contracts/Pool/PoolPig.sol\":15600:15611  ~uint256(0) */\n  not\n    /* \"contracts/Pool/PoolPig.sol\":15703:15724  MAX - (MAX % _tTotal) */\n  sub\n    /* \"contracts/Pool/PoolPig.sol\":15676:15725  uint256 private _rTotal = (MAX - (MAX % _tTotal)) */\n  0x09\n  sstore\n    /* \"contracts/Pool/PoolPig.sol\":15764:15798  string private _name = \"Pig Token\" */\n  mload(0x40)\n  dup1\n  0x40\n  add\n  0x40\n  mstore\n  dup1\n  0x09\n  dup2\n  mstore\n  0x20\n  add\n  0x50696720546f6b656e0000000000000000000000000000000000000000000000\n  dup2\n  mstore\n  pop\n  0x0b\n  swap1\n  dup1\n  mload\n  swap1\n  0x20\n  add\n  swap1\n  tag_2\n  swap3\n  swap2\n  swap1\n  tag_3\n  jump\t// in\ntag_2:\n  pop\n    /* \"contracts/Pool/PoolPig.sol\":15804:15834  string private _symbol = \"PIG\" */\n  mload(0x40)\n  dup1\n  0x40\n  add\n  0x40\n  mstore\n  dup1\n  0x03\n  dup2\n  mstore\n  0x20\n  add\n  0x5049470000000000000000000000000000000000000000000000000000000000\n  dup2\n  mstore\n  pop\n  0x0c\n  swap1\n  dup1\n  mload\n  swap1\n  0x20\n  add\n  swap1\n  tag_4\n  swap3\n  swap2\n  swap1\n  tag_3\n  jump\t// in\ntag_4:\n  pop\n    /* \"contracts/Pool/PoolPig.sol\":15866:15867  9 */\n  0x09\n    /* \"contracts/Pool/PoolPig.sol\":15840:15867  uint8 private _decimals = 9 */\n  0x0d\n  exp(0x0100, 0x00)\n  dup2\n  sload\n  dup2\n  0xff\n  mul\n  not\n  and\n  swap1\n  dup4\n  0xff\n  and\n  mul\n  or\n  swap1\n  sstore\n  pop\n    /* \"contracts/Pool/PoolPig.sol\":15903:15904  2 */\n  0x02\n    /* \"contracts/Pool/PoolPig.sol\":15878:15904  uint256 public _taxFee = 2 */\n  0x0e\n  sstore\n    /* \"contracts/Pool/PoolPig.sol\":15944:15951  _taxFee */\n  sload(0x0e)\n    /* \"contracts/Pool/PoolPig.sol\":15910:15951  uint256 private _previousTaxFee = _taxFee */\n  0x0f\n  sstore\n    /* \"contracts/Pool/PoolPig.sol\":15993:15994  3 */\n  0x03\n    /* \"contracts/Pool/PoolPig.sol\":15962:15994  uint256 public _liquidityFee = 3 */\n  0x10\n  sstore\n    /* \"contracts/Pool/PoolPig.sol\":16040:16053  _liquidityFee */\n  sload(0x10)\n    /* \"contracts/Pool/PoolPig.sol\":16000:16053  uint256 private _previousLiquidityFee = _liquidityFee */\n  0x11\n  sstore\n    /* \"contracts/Pool/PoolPig.sol\":16229:16233  true */\n  0x01\n    /* \"contracts/Pool/PoolPig.sol\":16193:16233  bool public swapAndLiquifyEnabled = true */\n  0x12\n  exp(0x0100, 0x01)\n  dup2\n  sload\n  dup2\n  0xff\n  mul\n  not\n  and\n  swap1\n  dup4\n  iszero\n  iszero\n  mul\n  or\n  swap1\n  sstore\n  pop\n    /* \"contracts/Pool/PoolPig.sol\":16274:16291  500000000 * 10**9 */\n  0x06f05b59d3b20000\n    /* \"contracts/Pool/PoolPig.sol\":16244:16291  uint256 public _maxTxAmount = 500000000 * 10**9 */\n  0x13\n  sstore\n    /* \"contracts/Pool/PoolPig.sol\":16345:16370  250000000 * 10**6 * 10**9 */\n  0x34f086f3b33b68400000\n    /* \"contracts/Pool/PoolPig.sol\":16297:16370  uint256 private numTokensSellToAddToLiquidity = 250000000 * 10**6 * 10**9 */\n  0x14\n  sstore\n    /* \"contracts/Pool/PoolPig.sol\":16751:17400  constructor () public {... */\n  callvalue\n  dup1\n  iszero\n  tag_5\n  jumpi\n  0x00\n  dup1\n  revert\ntag_5:\n  pop\n    /* \"contracts/Pool/PoolPig.sol\":5630:5647  address msgSender */\n  0x00\n    /* \"contracts/Pool/PoolPig.sol\":5650:5662  _msgSender() */\n  tag_9\n    /* \"contracts/Pool/PoolPig.sol\":5650:5660  _msgSender */\n  shl(0x20, tag_10)\n    /* \"contracts/Pool/PoolPig.sol\":5650:5662  _msgSender() */\n  0x20\n  shr\n  jump\t// in\ntag_9:\n    /* \"contracts/Pool/PoolPig.sol\":5630:5662  address msgSender = _msgSender() */\n  swap1\n  pop\n    /* \"contracts/Pool/PoolPig.sol\":5681:5690  msgSender */\n  dup1\n    /* \"contracts/Pool/PoolPig.sol\":5672:5678  _owner */\n  0x00\n  dup1\n    /* \"contracts/Pool/PoolPig.sol\":5672:5690  _owner = msgSender */\n  0x0100\n  exp\n  dup2\n  sload\n  dup2\n  0xffffffffffffffffffffffffffffffffffffffff\n  mul\n  not\n  and\n  swap1\n  dup4\n  0xffffffffffffffffffffffffffffffffffffffff\n  and\n  mul\n  or\n  swap1\n  sstore\n  pop\n    /* \"contracts/Pool/PoolPig.sol\":5738:5747  msgSender */\n  dup1\n    /* \"contracts/Pool/PoolPig.sol\":5705:5748  OwnershipTransferred(address(0), msgSender) */\n  0xffffffffffffffffffffffffffffffffffffffff\n  and\n    /* \"contracts/Pool/PoolPig.sol\":5734:5735  0 */\n  0x00\n    /* \"contracts/Pool/PoolPig.sol\":5705:5748  OwnershipTransferred(address(0), msgSender) */\n  0xffffffffffffffffffffffffffffffffffffffff\n  and\n  0x8be0079c531659141344cd1fd0a4f28419497f9722a3daafe3b4186f6b6457e0\n  mload(0x40)\n  mload(0x40)\n  dup1\n  swap2\n  sub\n  swap1\n  log3\n    /* \"contracts/Pool/PoolPig.sol\":5596:5755  constructor () internal {... */\n  pop\n    /* \"contracts/Pool/PoolPig.sol\":16807:16814  _rTotal */\n  sload(0x09)\n    /* \"contracts/Pool/PoolPig.sol\":16783:16790  _rOwned */\n  0x03\n    /* \"contracts/Pool/PoolPig.sol\":16783:16804  _rOwned[_msgSender()] */\n  0x00\n    /* \"contracts/Pool/PoolPig.sol\":16791:16803  _msgSender() */\n  tag_12\n    /* \"contracts/Pool/PoolPig.sol\":16791:16801  _msgSender */\n  shl(0x20, tag_10)\n    /* \"contracts/Pool/PoolPig.sol\":16791:16803  _msgSender() */\n  0x20\n  shr\n  jump\t// in\ntag_12:\n    /* \"contracts/Pool/PoolPig.sol\":16783:16804  _rOwned[_msgSender()] */\n  0xffffffffffffffffffffffffffffffffffffffff\n  and\n  0xffffffffffffffffffffffffffffffffffffffff\n  and\n  dup2\n  mstore\n  0x20\n  add\n  swap1\n  dup2\n  mstore\n  0x20\n  add\n  0x00\n  keccak256\n    /* \"contracts/Pool/PoolPig.sol\":16783:16814  _rOwned[_msgSender()] = _rTotal */\n  dup2\n  swap1\n  sstore\n  pop\n    /* \"contracts/Pool/PoolPig.sol\":16833:16868  IUniswapV2Router02 _uniswapV2Router */\n  0x00\n    /* \"contracts/Pool/PoolPig.sol\":16890:16932  0x05fF2B0DB69458A0750badebc4f9e13aDd608C7F */\n  0x05ff2b0db69458a0750badebc4f9e13add608c7f\n    /* \"contracts/Pool/PoolPig.sol\":16833:16933  IUniswapV2Router02 _uniswapV2Router = IUniswapV2Router02(0x05fF2B0DB69458A0750badebc4f9e13aDd608C7F) */\n  swap1\n  pop\n    /* \"contracts/Pool/PoolPig.sol\":16986:17002  _uniswapV2Router */\n  dup1\n    /* \"contracts/Pool/PoolPig.sol\":16986:17010  _uniswapV2Router.factory */\n  0xffffffffffffffffffffffffffffffffffffffff\n  and\n  0xc45a0155\n    /* \"contracts/Pool/PoolPig.sol\":16986:17012  _uniswapV2Router.factory() */\n  mload(0x40)\n  dup2\n  0xffffffff\n  and\n  0xe0\n  shl\n  dup2\n  mstore\n  0x04\n  add\n  0x20\n  mload(0x40)\n  dup1\n  dup4\n  sub\n  dup2\n  dup7\n  dup1\n  extcodesize\n  iszero\n  dup1\n  iszero\n  tag_13\n  jumpi\n  0x00\n  dup1\n  revert\ntag_13:\n  pop\n  gas\n  staticcall\n  iszero\n  dup1\n  iszero\n  tag_15\n  jumpi\n  returndatasize\n  0x00\n  dup1\n  returndatacopy\n  revert(0x00, returndatasize)\ntag_15:\n  pop\n  pop\n  pop\n  pop\n  mload(0x40)\n  returndatasize\n  0x20\n  dup2\n  lt\n  iszero\n  tag_16\n  jumpi\n  0x00\n  dup1\n  revert\ntag_16:\n  dup2\n  add\n  swap1\n  dup1\n  dup1\n  mload\n  swap1\n  0x20\n  add\n  swap1\n  swap3\n  swap2\n  swap1\n  pop\n  pop\n  pop\n    /* \"contracts/Pool/PoolPig.sol\":16968:17037  IUniswapV2Factory(_uniswapV2Router.factory())... */\n  0xffffffffffffffffffffffffffffffffffffffff\n  and\n  0xc9c65396\n    /* \"contracts/Pool/PoolPig.sol\":17046:17050  this */\n  address\n    /* \"contracts/Pool/PoolPig.sol\":17053:17069  _uniswapV2Router */\n  dup4\n    /* \"contracts/Pool/PoolPig.sol\":17053:17074  _uniswapV2Router.WETH */\n  0xffffffffffffffffffffffffffffffffffffffff\n  and\n  0xad5c4648\n    /* \"contracts/Pool/PoolPig.sol\":17053:17076  _uniswapV2Router.WETH() */\n  mload(0x40)\n  dup2\n  0xffffffff\n  and\n  0xe0\n  shl\n  dup2\n  mstore\n  0x04\n  add\n  0x20\n  mload(0x40)\n  dup1\n  dup4\n  sub\n  dup2\n  dup7\n  dup1\n  extcodesize\n  iszero\n  dup1\n  iszero\n  tag_17\n  jumpi\n  0x00\n  dup1\n  revert\ntag_17:\n  pop\n  gas\n  staticcall\n  iszero\n  dup1\n  iszero\n  tag_19\n  jumpi\n  returndatasize\n  0x00\n  dup1\n  returndatacopy\n  revert(0x00, returndatasize)\ntag_19:\n  pop\n  pop\n  pop\n  pop\n  mload(0x40)\n  returndatasize\n  0x20\n  dup2\n  lt\n  iszero\n  tag_20\n  jumpi\n  0x00\n  dup1\n  revert\ntag_20:\n  dup2\n  add\n  swap1\n  dup1\n  dup1\n  mload\n  swap1\n  0x20\n  add\n  swap1\n  swap3\n  swap2\n  swap1\n  pop\n  pop\n  pop\n    /* \"contracts/Pool/PoolPig.sol\":16968:17077  IUniswapV2Factory(_uniswapV2Router.factory())... */\n  mload(0x40)\n  dup4\n  0xffffffff\n  and\n  0xe0\n  shl\n  dup2\n  mstore\n  0x04\n  add\n  dup1\n  dup4\n  0xffffffffffffffffffffffffffffffffffffffff\n  and\n  dup2\n  mstore\n  0x20\n  add\n  dup3\n  0xffffffffffffffffffffffffffffffffffffffff\n  and\n  dup2\n  mstore\n  0x20\n  add\n  swap3\n  pop\n  pop\n  pop\n  0x20\n  mload(0x40)\n  dup1\n  dup4\n  sub\n  dup2\n  0x00\n  dup8\n  dup1\n  extcodesize\n  iszero\n  dup1\n  iszero\n  tag_21\n  jumpi\n  0x00\n  dup1\n  revert\ntag_21:\n  pop\n  gas\n  call\n  iszero\n  dup1\n  iszero\n  tag_23\n  jumpi\n  returndatasize\n  0x00\n  dup1\n  returndatacopy\n  revert(0x00, returndatasize)\ntag_23:\n  pop\n  pop\n  pop\n  pop\n  mload(0x40)\n  returndatasize\n  0x20\n  dup2\n  lt\n  iszero\n  tag_24\n  jumpi\n  0x00\n  dup1\n  revert\ntag_24:\n  dup2\n  add\n  swap1\n  dup1\n  dup1\n  mload\n  swap1\n  0x20\n  add\n  swap1\n  swap3\n  swap2\n  swap1\n  pop\n  pop\n  pop\n    /* \"contracts/Pool/PoolPig.sol\":16952:17077  uniswapV2Pair = IUniswapV2Factory(_uniswapV2Router.factory())... */\n  0xffffffffffffffffffffffffffffffffffffffff\n  and\n  0xa0\n  dup2\n  0xffffffffffffffffffffffffffffffffffffffff\n  and\n  0x60\n  shl\n  dup2\n  mstore\n  pop\n  pop\n    /* \"contracts/Pool/PoolPig.sol\":17156:17172  _uniswapV2Router */\n  dup1\n    /* \"contracts/Pool/PoolPig.sol\":17138:17172  uniswapV2Router = _uniswapV2Router */\n  0xffffffffffffffffffffffffffffffffffffffff\n  and\n  0x80\n  dup2\n  0xffffffffffffffffffffffffffffffffffffffff\n  and\n  0x60\n  shl\n  dup2\n  mstore\n  pop\n  pop\n    /* \"contracts/Pool/PoolPig.sol\":17272:17276  true */\n  0x01\n    /* \"contracts/Pool/PoolPig.sol\":17242:17260  _isExcludedFromFee */\n  0x06\n    /* \"contracts/Pool/PoolPig.sol\":17242:17269  _isExcludedFromFee[owner()] */\n  0x00\n    /* \"contracts/Pool/PoolPig.sol\":17261:17268  owner() */\n  tag_25\n    /* \"contracts/Pool/PoolPig.sol\":17261:17266  owner */\n  shl(0x20, tag_26)\n    /* \"contracts/Pool/PoolPig.sol\":17261:17268  owner() */\n  0x20\n  shr\n  jump\t// in\ntag_25:\n    /* \"contracts/Pool/PoolPig.sol\":17242:17269  _isExcludedFromFee[owner()] */\n  0xffffffffffffffffffffffffffffffffffffffff\n  and\n  0xffffffffffffffffffffffffffffffffffffffff\n  and\n  dup2\n  mstore\n  0x20\n  add\n  swap1\n  dup2\n  mstore\n  0x20\n  add\n  0x00\n  keccak256\n  0x00\n    /* \"contracts/Pool/PoolPig.sol\":17242:17276  _isExcludedFromFee[owner()] = true */\n  0x0100\n  exp\n  dup2\n  sload\n  dup2\n  0xff\n  mul\n  not\n  and\n  swap1\n  dup4\n  iszero\n  iszero\n  mul\n  or\n  swap1\n  sstore\n  pop\n    /* \"contracts/Pool/PoolPig.sol\":17322:17326  true */\n  0x01\n    /* \"contracts/Pool/PoolPig.sol\":17286:17304  _isExcludedFromFee */\n  0x06\n    /* \"contracts/Pool/PoolPig.sol\":17286:17319  _isExcludedFromFee[address(this)] */\n  0x00\n    /* \"contracts/Pool/PoolPig.sol\":17313:17317  this */\n  address\n    /* \"contracts/Pool/PoolPig.sol\":17286:17319  _isExcludedFromFee[address(this)] */\n  0xffffffffffffffffffffffffffffffffffffffff\n  and\n  0xffffffffffffffffffffffffffffffffffffffff\n  and\n  dup2\n  mstore\n  0x20\n  add\n  swap1\n  dup2\n  mstore\n  0x20\n  add\n  0x00\n  keccak256\n  0x00\n    /* \"contracts/Pool/PoolPig.sol\":17286:17326  _isExcludedFromFee[address(this)] = true */\n  0x0100\n  exp\n  dup2\n  sload\n  dup2\n  0xff\n  mul\n  not\n  and\n  swap1\n  dup4\n  iszero\n  iszero\n  mul\n  or\n  swap1\n  sstore\n  pop\n    /* \"contracts/Pool/PoolPig.sol\":17371:17383  _msgSender() */\n  tag_27\n    /* \"contracts/Pool/PoolPig.sol\":17371:17381  _msgSender */\n  shl(0x20, tag_10)\n    /* \"contracts/Pool/PoolPig.sol\":17371:17383  _msgSender() */\n  0x20\n  shr\n  jump\t// in\ntag_27:\n    /* \"contracts/Pool/PoolPig.sol\":17350:17393  Transfer(address(0), _msgSender(), _tTotal) */\n  0xffffffffffffffffffffffffffffffffffffffff\n  and\n    /* \"contracts/Pool/PoolPig.sol\":17367:17368  0 */\n  0x00\n    /* \"contracts/Pool/PoolPig.sol\":17350:17393  Transfer(address(0), _msgSender(), _tTotal) */\n  0xffffffffffffffffffffffffffffffffffffffff\n  and\n  0xddf252ad1be2c89b69c2b068fc378daa952ba7f163c4a11628f55a4df523b3ef\n    /* \"contracts/Pool/PoolPig.sol\":15652:15670  1000000000 * 10**9 */\n  0x0de0b6b3a7640000\n    /* \"contracts/Pool/PoolPig.sol\":17350:17393  Transfer(address(0), _msgSender(), _tTotal) */\n  mload(0x40)\n  dup1\n  dup3\n  dup2\n  mstore\n  0x20\n  add\n  swap2\n  pop\n  pop\n  mload(0x40)\n  dup1\n  swap2\n  sub\n  swap1\n  log3\n    /* \"contracts/Pool/PoolPig.sol\":16751:17400  constructor () public {... */\n  pop\n    /* \"contracts/Pool/PoolPig.sol\":15130:32706  contract PigToken is Context, IERC20, Ownable {... */\n  jump(tag_28)\n    /* \"contracts/Pool/PoolPig.sol\":2255:2359  function _msgSender() internal view virtual returns (address payable) {... */\ntag_10:\n    /* \"contracts/Pool/PoolPig.sol\":2308:2323  address payable */\n  0x00\n    /* \"contracts/Pool/PoolPig.sol\":2342:2352  msg.sender */\n  caller\n    /* \"contracts/Pool/PoolPig.sol\":2335:2352  return msg.sender */\n  swap1\n  pop\n    /* \"contracts/Pool/PoolPig.sol\":2255:2359  function _msgSender() internal view virtual returns (address payable) {... */\n  swap1\n  jump\t// out\n    /* \"contracts/Pool/PoolPig.sol\":5831:5908  function owner() public view returns (address) {... */\ntag_26:\n    /* \"contracts/Pool/PoolPig.sol\":5869:5876  address */\n  0x00\n    /* \"contracts/Pool/PoolPig.sol\":5895:5901  _owner */\n  dup1\n  0x00\n  swap1\n  sload\n  swap1\n  0x0100\n  exp\n  swap1\n  div\n  0xffffffffffffffffffffffffffffffffffffffff\n  and\n    /* \"contracts/Pool/PoolPig.sol\":5888:5901  return _owner */\n  swap1\n  pop\n    /* \"contracts/Pool/PoolPig.sol\":5831:5908  function owner() public view returns (address) {... */\n  swap1\n  jump\t// out\n    /* \"contracts/Pool/PoolPig.sol\":15130:32706  contract PigToken is Context, IERC20, Ownable {... */\ntag_3:\n  dup3\n  dup1\n  sload\n  0x01\n  dup2\n  0x01\n  and\n  iszero\n  0x0100\n  mul\n  sub\n  and\n  0x02\n  swap1\n  div\n  swap1\n  0x00\n  mstore\n  keccak256(0x00, 0x20)\n  swap1\n  0x1f\n  add\n  0x20\n  swap1\n  div\n  dup2\n  add\n  swap3\n  dup3\n  0x1f\n  lt\n  tag_32\n  jumpi\n  dup1\n  mload\n  not(0xff)\n  and\n  dup4\n  dup1\n  add\n  or\n  dup6\n  sstore\n  jump(tag_31)\ntag_32:\n  dup3\n  dup1\n  add\n  0x01\n  add\n  dup6\n  sstore\n  dup3\n  iszero\n  tag_31\n  jumpi\n  swap2\n  dup3\n  add\ntag_33:\n  dup3\n  dup2\n  gt\n  iszero\n  tag_34\n  jumpi\n  dup3\n  mload\n  dup3\n  sstore\n  swap2\n  0x20\n  add\n  swap2\n  swap1\n  0x01\n  add\n  swap1\n  jump(tag_33)\ntag_34:\ntag_31:\n  pop\n  swap1\n  pop\n  tag_35\n  swap2\n  swap1\n  tag_36\n  jump\t// in\ntag_35:\n  pop\n  swap1\n  jump\t// out\ntag_36:\ntag_37:\n  dup1\n  dup3\n  gt\n  iszero\n  tag_38\n  jumpi\n  0x00\n  dup2\n  0x00\n  swap1\n  sstore\n  pop\n  0x01\n  add\n  jump(tag_37)\ntag_38:\n  pop\n  swap1\n  jump\t// out\ntag_28:\n  shr(0x60, mload(0x80))\n  shr(0x60, mload(0xa0))\n  codecopy(0x00, dataOffset(sub_0), dataSize(sub_0))\n  assignImmutable(\"0x924caa65d1644bcda3c737cb4f972c9170b1e3eb26b1eeba5090c589a3beb7a4\")\n  assignImmutable(\"0xcbd30de1da04efa9e9dfb752a21e23c2c0c1de652015c52c119403b61435944f\")\n  return(0x00, dataSize(sub_0))\nstop\n\nsub_0: assembly {\n        /* \"contracts/Pool/PoolPig.sol\":15130:32706  contract PigToken is Context, IERC20, Ownable {... */\n      mstore(0x40, 0x80)\n      jumpi(tag_1, lt(calldatasize, 0x04))\n      shr(0xe0, calldataload(0x00))\n      dup1\n      0x5342acb4\n      gt\n      tag_40\n      jumpi\n      dup1\n      0xa457c2d7\n      gt\n      tag_41\n      jumpi\n      dup1\n      0xd543dbeb\n      gt\n      tag_42\n      jumpi\n      dup1\n      0xd543dbeb\n      eq\n      tag_35\n      jumpi\n      dup1\n      0xdd467064\n      eq\n      tag_36\n      jumpi\n      dup1\n      0xdd62ed3e\n      eq\n      tag_37\n      jumpi\n      dup1\n      0xea2f0b37\n      eq\n      tag_38\n      jumpi\n      dup1\n      0xf2fde38b\n      eq\n      tag_39\n      jumpi\n      jump(tag_2)\n    tag_42:\n      dup1\n      0xa457c2d7\n      eq\n      tag_30\n      jumpi\n      dup1\n      0xa69df4b5\n      eq\n      tag_31\n      jumpi\n      dup1\n      0xa9059cbb\n      eq\n      tag_32\n      jumpi\n      dup1\n      0xb6c52324\n      eq\n      tag_33\n      jumpi\n      dup1\n      0xc49b9a80\n      eq\n      tag_34\n      jumpi\n      jump(tag_2)\n    tag_41:\n      dup1\n      0x7d1db4a5\n      gt\n      tag_43\n      jumpi\n      dup1\n      0x7d1db4a5\n      eq\n      tag_25\n      jumpi\n      dup1\n      0x88f82020\n      eq\n      tag_26\n      jumpi\n      dup1\n      0x8da5cb5b\n      eq\n      tag_27\n      jumpi\n      dup1\n      0x8ee88c53\n      eq\n      tag_28\n      jumpi\n      dup1\n      0x95d89b41\n      eq\n      tag_29\n      jumpi\n      jump(tag_2)\n    tag_43:\n      dup1\n      0x5342acb4\n      eq\n      tag_21\n      jumpi\n      dup1\n      0x6bc87c3a\n      eq\n      tag_22\n      jumpi\n      dup1\n      0x70a08231\n      eq\n      tag_23\n      jumpi\n      dup1\n      0x715018a6\n      eq\n      tag_24\n      jumpi\n      jump(tag_2)\n    tag_40:\n      dup1\n      0x3685d419\n      gt\n      tag_44\n      jumpi\n      dup1\n      0x437823ec\n      gt\n      tag_45\n      jumpi\n      dup1\n      0x437823ec\n      eq\n      tag_16\n      jumpi\n      dup1\n      0x4549b039\n      eq\n      tag_17\n      jumpi\n      dup1\n      0x49bd5a5e\n      eq\n      tag_18\n      jumpi\n      dup1\n      0x4a74bb02\n      eq\n      tag_19\n      jumpi\n      dup1\n      0x52390c02\n      eq\n      tag_20\n      jumpi\n      jump(tag_2)\n    tag_45:\n      dup1\n      0x3685d419\n      eq\n      tag_12\n      jumpi\n      dup1\n      0x39509351\n      eq\n      tag_13\n      jumpi\n      dup1\n      0x3b124fe7\n      eq\n      tag_14\n      jumpi\n      dup1\n      0x3bd5d173\n      eq\n      tag_15\n      jumpi\n      jump(tag_2)\n    tag_44:\n      dup1\n      0x1694505e\n      gt\n      tag_46\n      jumpi\n      dup1\n      0x1694505e\n      eq\n      tag_7\n      jumpi\n      dup1\n      0x18160ddd\n      eq\n      tag_8\n      jumpi\n      dup1\n      0x23b872dd\n      eq\n      tag_9\n      jumpi\n      dup1\n      0x2d838119\n      eq\n      tag_10\n      jumpi\n      dup1\n      0x313ce567\n      eq\n      tag_11\n      jumpi\n      jump(tag_2)\n    tag_46:\n      dup1\n      0x061c82d0\n      eq\n      tag_3\n      jumpi\n      dup1\n      0x06fdde03\n      eq\n      tag_4\n      jumpi\n      dup1\n      0x095ea7b3\n      eq\n      tag_5\n      jumpi\n      dup1\n      0x13114a9d\n      eq\n      tag_6\n      jumpi\n      jump(tag_2)\n    tag_1:\n      jumpi(tag_2, calldatasize)\n      stop\n    tag_2:\n      0x00\n      dup1\n      revert\n        /* \"contracts/Pool/PoolPig.sol\":22345:22441  function setTaxFeePercent(uint256 taxFee) external onlyOwner() {... */\n    tag_3:\n      callvalue\n      dup1\n      iszero\n      tag_49\n      jumpi\n      0x00\n      dup1\n      revert\n    tag_49:\n      pop\n      tag_50\n      0x04\n      dup1\n      calldatasize\n      sub\n      0x20\n      dup2\n      lt\n      iszero\n      tag_51\n      jumpi\n      0x00\n      dup1\n      revert\n    tag_51:\n      dup2\n      add\n      swap1\n      dup1\n      dup1\n      calldataload\n      swap1\n      0x20\n      add\n      swap1\n      swap3\n      swap2\n      swap1\n      pop\n      pop\n      pop\n      tag_52\n      jump\t// in\n    tag_50:\n      stop\n        /* \"contracts/Pool/PoolPig.sol\":17406:17487  function name() public view returns (string memory) {... */\n    tag_4:\n      callvalue\n      dup1\n      iszero\n      tag_53\n      jumpi\n      0x00\n      dup1\n      revert\n    tag_53:\n      pop\n      tag_54\n      tag_55\n      jump\t// in\n    tag_54:\n      mload(0x40)\n      dup1\n      dup1\n      0x20\n      add\n      dup3\n      dup2\n      sub\n      dup3\n      mstore\n      dup4\n      dup2\n      dup2\n      mload\n      dup2\n      mstore\n      0x20\n      add\n      swap2\n      pop\n      dup1\n      mload\n      swap1\n      0x20\n      add\n      swap1\n      dup1\n      dup4\n      dup4\n      0x00\n    tag_56:\n      dup4\n      dup2\n      lt\n      iszero\n      tag_58\n      jumpi\n      dup1\n      dup3\n      add\n      mload\n      dup2\n      dup5\n      add\n      mstore\n      0x20\n      dup2\n      add\n      swap1\n      pop\n      jump(tag_56)\n    tag_58:\n      pop\n      pop\n      pop\n      pop\n      swap1\n      pop\n      swap1\n      dup2\n      add\n      swap1\n      0x1f\n      and\n      dup1\n      iszero\n      tag_59\n      jumpi\n      dup1\n      dup3\n      sub\n      dup1\n      mload\n      0x01\n      dup4\n      0x20\n      sub\n      0x0100\n      exp\n      sub\n      not\n      and\n      dup2\n      mstore\n      0x20\n      add\n      swap2\n      pop\n    tag_59:\n      pop\n      swap3\n      pop\n      pop\n      pop\n      mload(0x40)\n      dup1\n      swap2\n      sub\n      swap1\n      return\n        /* \"contracts/Pool/PoolPig.sol\":18288:18446  function approve(address spender, uint256 amount) public override returns (bool) {... */\n    tag_5:\n      callvalue\n      dup1\n      iszero\n      tag_60\n      jumpi\n      0x00\n      dup1\n      revert\n    tag_60:\n      pop\n      tag_61\n      0x04\n      dup1\n      calldatasize\n      sub\n      0x40\n      dup2\n      lt\n      iszero\n      tag_62\n      jumpi\n      0x00\n      dup1\n      revert\n    tag_62:\n      dup2\n      add\n      swap1\n      dup1\n      dup1\n      calldataload\n      0xffffffffffffffffffffffffffffffffffffffff\n      and\n      swap1\n      0x20\n      add\n      swap1\n      swap3\n      swap2\n      swap1\n      dup1\n      calldataload\n      swap1\n      0x20\n      add\n      swap1\n      swap3\n      swap2\n      swap1\n      pop\n      pop\n      pop\n      tag_63\n      jump\t// in\n    tag_61:\n      mload(0x40)\n      dup1\n      dup3\n      iszero\n      iszero\n      dup2\n      mstore\n      0x20\n      add\n      swap2\n      pop\n      pop\n      mload(0x40)\n      dup1\n      swap2\n      sub\n      swap1\n      return\n        /* \"contracts/Pool/PoolPig.sol\":19384:19469  function totalFees() public view returns (uint256) {... */\n    tag_6:\n      callvalue\n      dup1\n      iszero\n      tag_64\n      jumpi\n      0x00\n      dup1\n      revert\n    tag_64:\n      pop\n      tag_65\n      tag_66\n      jump\t// in\n    tag_65:\n      mload(0x40)\n      dup1\n      dup3\n      dup2\n      mstore\n      0x20\n      add\n      swap2\n      pop\n      pop\n      mload(0x40)\n      dup1\n      swap2\n      sub\n      swap1\n      return\n        /* \"contracts/Pool/PoolPig.sol\":16060:16111  IUniswapV2Router02 public immutable uniswapV2Router */\n    tag_7:\n      callvalue\n      dup1\n      iszero\n      tag_67\n      jumpi\n      0x00\n      dup1\n      revert\n    tag_67:\n      pop\n      tag_68\n      tag_69\n      jump\t// in\n    tag_68:\n      mload(0x40)\n      dup1\n      dup3\n      0xffffffffffffffffffffffffffffffffffffffff\n      and\n      dup2\n      mstore\n      0x20\n      add\n      swap2\n      pop\n      pop\n      mload(0x40)\n      dup1\n      swap2\n      sub\n      swap1\n      return\n        /* \"contracts/Pool/PoolPig.sol\":17671:17764  function totalSupply() public view override returns (uint256) {... */\n    tag_8:\n      callvalue\n      dup1\n      iszero\n      tag_70\n      jumpi\n      0x00\n      dup1\n      revert\n    tag_70:\n      pop\n      tag_71\n      tag_72\n      jump\t// in\n    tag_71:\n      mload(0x40)\n      dup1\n      dup3\n      dup2\n      mstore\n      0x20\n      add\n      swap2\n      pop\n      pop\n      mload(0x40)\n      dup1\n      swap2\n      sub\n      swap1\n      return\n        /* \"contracts/Pool/PoolPig.sol\":18452:18761  function transferFrom(address sender, address recipient, uint256 amount) public override returns (bool) {... */\n    tag_9:\n      callvalue\n      dup1\n      iszero\n      tag_73\n      jumpi\n      0x00\n      dup1\n      revert\n    tag_73:\n      pop\n      tag_74\n      0x04\n      dup1\n      calldatasize\n      sub\n      0x60\n      dup2\n      lt\n      iszero\n      tag_75\n      jumpi\n      0x00\n      dup1\n      revert\n    tag_75:\n      dup2\n      add\n      swap1\n      dup1\n      dup1\n      calldataload\n      0xffffffffffffffffffffffffffffffffffffffff\n      and\n      swap1\n      0x20\n      add\n      swap1\n      swap3\n      swap2\n      swap1\n      dup1\n      calldataload\n      0xffffffffffffffffffffffffffffffffffffffff\n      and\n      swap1\n      0x20\n      add\n      swap1\n      swap3\n      swap2\n      swap1\n      dup1\n      calldataload\n      swap1\n      0x20\n      add\n      swap1\n      swap3\n      swap2\n      swap1\n      pop\n      pop\n      pop\n      tag_76\n      jump\t// in\n    tag_74:\n      mload(0x40)\n      dup1\n      dup3\n      iszero\n      iszero\n      dup2\n      mstore\n      0x20\n      add\n      swap2\n      pop\n      pop\n      mload(0x40)\n      dup1\n      swap2\n      sub\n      swap1\n      return\n        /* \"contracts/Pool/PoolPig.sol\":20284:20533  function tokenFromReflection(uint256 rAmount) public view returns(uint256) {... */\n    tag_10:\n      callvalue\n      dup1\n      iszero\n      tag_77\n      jumpi\n      0x00\n      dup1\n      revert\n    tag_77:\n      pop\n      tag_78\n      0x04\n      dup1\n      calldatasize\n      sub\n      0x20\n      dup2\n      lt\n      iszero\n      tag_79\n      jumpi\n      0x00\n      dup1\n      revert\n    tag_79:\n      dup2\n      add\n      swap1\n      dup1\n      dup1\n      calldataload\n      swap1\n      0x20\n      add\n      swap1\n      swap3\n      swap2\n      swap1\n      pop\n      pop\n      pop\n      tag_80\n      jump\t// in\n    tag_78:\n      mload(0x40)\n      dup1\n      dup3\n      dup2\n      mstore\n      0x20\n      add\n      swap2\n      pop\n      pop\n      mload(0x40)\n      dup1\n      swap2\n      sub\n      swap1\n      return\n        /* \"contracts/Pool/PoolPig.sol\":17584:17665  function decimals() public view returns (uint8) {... */\n    tag_11:\n      callvalue\n      dup1\n      iszero\n      tag_81\n      jumpi\n      0x00\n      dup1\n      revert\n    tag_81:\n      pop\n      tag_82\n      tag_83\n      jump\t// in\n    tag_82:\n      mload(0x40)\n      dup1\n      dup3\n      0xff\n      and\n      dup2\n      mstore\n      0x20\n      add\n      swap2\n      pop\n      pop\n      mload(0x40)\n      dup1\n      swap2\n      sub\n      swap1\n      return\n        /* \"contracts/Pool/PoolPig.sol\":20984:21452  function includeInReward(address account) external onlyOwner() {... */\n    tag_12:\n      callvalue\n      dup1\n      iszero\n      tag_84\n      jumpi\n      0x00\n      dup1\n      revert\n    tag_84:\n      pop\n      tag_85\n      0x04\n      dup1\n      calldatasize\n      sub\n      0x20\n      dup2\n      lt\n      iszero\n      tag_86\n      jumpi\n      0x00\n      dup1\n      revert\n    tag_86:\n      dup2\n      add\n      swap1\n      dup1\n      dup1\n      calldataload\n      0xffffffffffffffffffffffffffffffffffffffff\n      and\n      swap1\n      0x20\n      add\n      swap1\n      swap3\n      swap2\n      swap1\n      pop\n      pop\n      pop\n      tag_87\n      jump\t// in\n    tag_85:\n      stop\n        /* \"contracts/Pool/PoolPig.sol\":18767:18982  function increaseAllowance(address spender, uint256 addedValue) public virtual returns (bool) {... */\n    tag_13:\n      callvalue\n      dup1\n      iszero\n      tag_88\n      jumpi\n      0x00\n      dup1\n      revert\n    tag_88:\n      pop\n      tag_89\n      0x04\n      dup1\n      calldatasize\n      sub\n      0x40\n      dup2\n      lt\n      iszero\n      tag_90\n      jumpi\n      0x00\n      dup1\n      revert\n    tag_90:\n      dup2\n      add\n      swap1\n      dup1\n      dup1\n      calldataload\n      0xffffffffffffffffffffffffffffffffffffffff\n      and\n      swap1\n      0x20\n      add\n      swap1\n      swap3\n      swap2\n      swap1\n      dup1\n      calldataload\n      swap1\n      0x20\n      add\n      swap1\n      swap3\n      swap2\n      swap1\n      pop\n      pop\n      pop\n      tag_91\n      jump\t// in\n    tag_89:\n      mload(0x40)\n      dup1\n      dup3\n      iszero\n      iszero\n      dup2\n      mstore\n      0x20\n      add\n      swap2\n      pop\n      pop\n      mload(0x40)\n      dup1\n      swap2\n      sub\n      swap1\n      return\n        /* \"contracts/Pool/PoolPig.sol\":15878:15904  uint256 public _taxFee = 2 */\n    tag_14:\n      callvalue\n      dup1\n      iszero\n      tag_92\n      jumpi\n      0x00\n      dup1\n      revert\n    tag_92:\n      pop\n      tag_93\n      tag_94\n      jump\t// in\n    tag_93:\n      mload(0x40)\n      dup1\n      dup3\n      dup2\n      mstore\n      0x20\n      add\n      swap2\n      pop\n      pop\n      mload(0x40)\n      dup1\n      swap2\n      sub\n      swap1\n      return\n        /* \"contracts/Pool/PoolPig.sol\":19475:19845  function deliver(uint256 tAmount) public {... */\n    tag_15:\n      callvalue\n      dup1\n      iszero\n      tag_95\n      jumpi\n      0x00\n      dup1\n      revert\n    tag_95:\n      pop\n      tag_96\n      0x04\n      dup1\n      calldatasize\n      sub\n      0x20\n      dup2\n      lt\n      iszero\n      tag_97\n      jumpi\n      0x00\n      dup1\n      revert\n    tag_97:\n      dup2\n      add\n      swap1\n      dup1\n      dup1\n      calldataload\n      swap1\n      0x20\n      add\n      swap1\n      swap3\n      swap2\n      swap1\n      pop\n      pop\n      pop\n      tag_98\n      jump\t// in\n    tag_96:\n      stop\n        /* \"contracts/Pool/PoolPig.sol\":22108:22217  function excludeFromFee(address account) public onlyOwner {... */\n    tag_16:\n      callvalue\n      dup1\n      iszero\n      tag_99\n      jumpi\n      0x00\n      dup1\n      revert\n    tag_99:\n      pop\n      tag_100\n      0x04\n      dup1\n      calldatasize\n      sub\n      0x20\n      dup2\n      lt\n      iszero\n      tag_101\n      jumpi\n      0x00\n      dup1\n      revert\n    tag_101:\n      dup2\n      add\n      swap1\n      dup1\n      dup1\n      calldataload\n      0xffffffffffffffffffffffffffffffffffffffff\n      and\n      swap1\n      0x20\n      add\n      swap1\n      swap3\n      swap2\n      swap1\n      pop\n      pop\n      pop\n      tag_102\n      jump\t// in\n    tag_100:\n      stop\n        /* \"contracts/Pool/PoolPig.sol\":19851:20278  function reflectionFromToken(uint256 tAmount, bool deductTransferFee) public view returns(uint256) {... */\n    tag_17:\n      callvalue\n      dup1\n      iszero\n      tag_103\n      jumpi\n      0x00\n      dup1\n      revert\n    tag_103:\n      pop\n      tag_104\n      0x04\n      dup1\n      calldatasize\n      sub\n      0x40\n      dup2\n      lt\n      iszero\n      tag_105\n      jumpi\n      0x00\n      dup1\n      revert\n    tag_105:\n      dup2\n      add\n      swap1\n      dup1\n      dup1\n      calldataload\n      swap1\n      0x20\n      add\n      swap1\n      swap3\n      swap2\n      swap1\n      dup1\n      calldataload\n      iszero\n      iszero\n      swap1\n      0x20\n      add\n      swap1\n      swap3\n      swap2\n      swap1\n      pop\n      pop\n      pop\n      tag_106\n      jump\t// in\n    tag_104:\n      mload(0x40)\n      dup1\n      dup3\n      dup2\n      mstore\n      0x20\n      add\n      swap2\n      pop\n      pop\n      mload(0x40)\n      dup1\n      swap2\n      sub\n      swap1\n      return\n        /* \"contracts/Pool/PoolPig.sol\":16117:16155  address public immutable uniswapV2Pair */\n    tag_18:\n      callvalue\n      dup1\n      iszero\n      tag_107\n      jumpi\n      0x00\n      dup1\n      revert\n    tag_107:\n      pop\n      tag_108\n      tag_109\n      jump\t// in\n    tag_108:\n      mload(0x40)\n      dup1\n      dup3\n      0xffffffffffffffffffffffffffffffffffffffff\n      and\n      dup2\n      mstore\n      0x20\n      add\n      swap2\n      pop\n      pop\n      mload(0x40)\n      dup1\n      swap2\n      sub\n      swap1\n      return\n        /* \"contracts/Pool/PoolPig.sol\":16193:16233  bool public swapAndLiquifyEnabled = true */\n    tag_19:\n      callvalue\n      dup1\n      iszero\n      tag_110\n      jumpi\n      0x00\n      dup1\n      revert\n    tag_110:\n      pop\n      tag_111\n      tag_112\n      jump\t// in\n    tag_111:\n      mload(0x40)\n      dup1\n      dup3\n      iszero\n      iszero\n      dup2\n      mstore\n      0x20\n      add\n      swap2\n      pop\n      pop\n      mload(0x40)\n      dup1\n      swap2\n      sub\n      swap1\n      return\n        /* \"contracts/Pool/PoolPig.sol\":20539:20978  function excludeFromReward(address account) public onlyOwner() {... */\n    tag_20:\n      callvalue\n      dup1\n      iszero\n      tag_113\n      jumpi\n      0x00\n      dup1\n      revert\n    tag_113:\n      pop\n      tag_114\n      0x04\n      dup1\n      calldatasize\n      sub\n      0x20\n      dup2\n      lt\n      iszero\n      tag_115\n      jumpi\n      0x00\n      dup1\n      revert\n    tag_115:\n      dup2\n      add\n      swap1\n      dup1\n      dup1\n      calldataload\n      0xffffffffffffffffffffffffffffffffffffffff\n      and\n      swap1\n      0x20\n      add\n      swap1\n      swap3\n      swap2\n      swap1\n      pop\n      pop\n      pop\n      tag_116\n      jump\t// in\n    tag_114:\n      stop\n        /* \"contracts/Pool/PoolPig.sol\":26142:26263  function isExcludedFromFee(address account) public view returns(bool) {... */\n    tag_21:\n      callvalue\n      dup1\n      iszero\n      tag_117\n      jumpi\n      0x00\n      dup1\n      revert\n    tag_117:\n      pop\n      tag_118\n      0x04\n      dup1\n      calldatasize\n      sub\n      0x20\n      dup2\n      lt\n      iszero\n      tag_119\n      jumpi\n      0x00\n      dup1\n      revert\n    tag_119:\n      dup2\n      add\n      swap1\n      dup1\n      dup1\n      calldataload\n      0xffffffffffffffffffffffffffffffffffffffff\n      and\n      swap1\n      0x20\n      add\n      swap1\n      swap3\n      swap2\n      swap1\n      pop\n      pop\n      pop\n      tag_120\n      jump\t// in\n    tag_118:\n      mload(0x40)\n      dup1\n      dup3\n      iszero\n      iszero\n      dup2\n      mstore\n      0x20\n      add\n      swap2\n      pop\n      pop\n      mload(0x40)\n      dup1\n      swap2\n      sub\n      swap1\n      return\n        /* \"contracts/Pool/PoolPig.sol\":15962:15994  uint256 public _liquidityFee = 3 */\n    tag_22:\n      callvalue\n      dup1\n      iszero\n      tag_121\n      jumpi\n      0x00\n      dup1\n      revert\n    tag_121:\n      pop\n      tag_122\n      tag_123\n      jump\t// in\n    tag_122:\n      mload(0x40)\n      dup1\n      dup3\n      dup2\n      mstore\n      0x20\n      add\n      swap2\n      pop\n      pop\n      mload(0x40)\n      dup1\n      swap2\n      sub\n      swap1\n      return\n        /* \"contracts/Pool/PoolPig.sol\":17770:17965  function balanceOf(address account) public view override returns (uint256) {... */\n    tag_23:\n      callvalue\n      dup1\n      iszero\n      tag_124\n      jumpi\n      0x00\n      dup1\n      revert\n    tag_124:\n      pop\n      tag_125\n      0x04\n      dup1\n      calldatasize\n      sub\n      0x20\n      dup2\n      lt\n      iszero\n      tag_126\n      jumpi\n      0x00\n      dup1\n      revert\n    tag_126:\n      dup2\n      add\n      swap1\n      dup1\n      dup1\n      calldataload\n      0xffffffffffffffffffffffffffffffffffffffff\n      and\n      swap1\n      0x20\n      add\n      swap1\n      swap3\n      swap2\n      swap1\n      pop\n      pop\n      pop\n      tag_127\n      jump\t// in\n    tag_125:\n      mload(0x40)\n      dup1\n      dup3\n      dup2\n      mstore\n      0x20\n      add\n      swap2\n      pop\n      pop\n      mload(0x40)\n      dup1\n      swap2\n      sub\n      swap1\n      return\n        /* \"contracts/Pool/PoolPig.sol\":6118:6263  function renounceOwnership() public virtual onlyOwner {... */\n    tag_24:\n      callvalue\n      dup1\n      iszero\n      tag_128\n      jumpi\n      0x00\n      dup1\n      revert\n    tag_128:\n      pop\n      tag_129\n      tag_130\n      jump\t// in\n    tag_129:\n      stop\n        /* \"contracts/Pool/PoolPig.sol\":16244:16291  uint256 public _maxTxAmount = 500000000 * 10**9 */\n    tag_25:\n      callvalue\n      dup1\n      iszero\n      tag_131\n      jumpi\n      0x00\n      dup1\n      revert\n    tag_131:\n      pop\n      tag_132\n      tag_133\n      jump\t// in\n    tag_132:\n      mload(0x40)\n      dup1\n      dup3\n      dup2\n      mstore\n      0x20\n      add\n      swap2\n      pop\n      pop\n      mload(0x40)\n      dup1\n      swap2\n      sub\n      swap1\n      return\n        /* \"contracts/Pool/PoolPig.sol\":19260:19378  function isExcludedFromReward(address account) public view returns (bool) {... */\n    tag_26:\n      callvalue\n      dup1\n      iszero\n      tag_134\n      jumpi\n      0x00\n      dup1\n      revert\n    tag_134:\n      pop\n      tag_135\n      0x04\n      dup1\n      calldatasize\n      sub\n      0x20\n      dup2\n      lt\n      iszero\n      tag_136\n      jumpi\n      0x00\n      dup1\n      revert\n    tag_136:\n      dup2\n      add\n      swap1\n      dup1\n      dup1\n      calldataload\n      0xffffffffffffffffffffffffffffffffffffffff\n      and\n      swap1\n      0x20\n      add\n      swap1\n      swap3\n      swap2\n      swap1\n      pop\n      pop\n      pop\n      tag_137\n      jump\t// in\n    tag_135:\n      mload(0x40)\n      dup1\n      dup3\n      iszero\n      iszero\n      dup2\n      mstore\n      0x20\n      add\n      swap2\n      pop\n      pop\n      mload(0x40)\n      dup1\n      swap2\n      sub\n      swap1\n      return\n        /* \"contracts/Pool/PoolPig.sol\":5831:5908  function owner() public view returns (address) {... */\n    tag_27:\n      callvalue\n      dup1\n      iszero\n      tag_138\n      jumpi\n      0x00\n      dup1\n      revert\n    tag_138:\n      pop\n      tag_139\n      tag_140\n      jump\t// in\n    tag_139:\n      mload(0x40)\n      dup1\n      dup3\n      0xffffffffffffffffffffffffffffffffffffffff\n      and\n      dup2\n      mstore\n      0x20\n      add\n      swap2\n      pop\n      pop\n      mload(0x40)\n      dup1\n      swap2\n      sub\n      swap1\n      return\n        /* \"contracts/Pool/PoolPig.sol\":22451:22571  function setLiquidityFeePercent(uint256 liquidityFee) external onlyOwner() {... */\n    tag_28:\n      callvalue\n      dup1\n      iszero\n      tag_141\n      jumpi\n      0x00\n      dup1\n      revert\n    tag_141:\n      pop\n      tag_142\n      0x04\n      dup1\n      calldatasize\n      sub\n      0x20\n      dup2\n      lt\n      iszero\n      tag_143\n      jumpi\n      0x00\n      dup1\n      revert\n    tag_143:\n      dup2\n      add\n      swap1\n      dup1\n      dup1\n      calldataload\n      swap1\n      0x20\n      add\n      swap1\n      swap3\n      swap2\n      swap1\n      pop\n      pop\n      pop\n      tag_144\n      jump\t// in\n    tag_142:\n      stop\n        /* \"contracts/Pool/PoolPig.sol\":17493:17578  function symbol() public view returns (string memory) {... */\n    tag_29:\n      callvalue\n      dup1\n      iszero\n      tag_145\n      jumpi\n      0x00\n      dup1\n      revert\n    tag_145:\n      pop\n      tag_146\n      tag_147\n      jump\t// in\n    tag_146:\n      mload(0x40)\n      dup1\n      dup1\n      0x20\n      add\n      dup3\n      dup2\n      sub\n      dup3\n      mstore\n      dup4\n      dup2\n      dup2\n      mload\n      dup2\n      mstore\n      0x20\n      add\n      swap2\n      pop\n      dup1\n      mload\n      swap1\n      0x20\n      add\n      swap1\n      dup1\n      dup4\n      dup4\n      0x00\n    tag_148:\n      dup4\n      dup2\n      lt\n      iszero\n      tag_150\n      jumpi\n      dup1\n      dup3\n      add\n      mload\n      dup2\n      dup5\n      add\n      mstore\n      0x20\n      dup2\n      add\n      swap1\n      pop\n      jump(tag_148)\n    tag_150:\n      pop\n      pop\n      pop\n      pop\n      swap1\n      pop\n      swap1\n      dup2\n      add\n      swap1\n      0x1f\n      and\n      dup1\n      iszero\n      tag_151\n      jumpi\n      dup1\n      dup3\n      sub\n      dup1\n      mload\n      0x01\n      dup4\n      0x20\n      sub\n      0x0100\n      exp\n      sub\n      not\n      and\n      dup2\n      mstore\n      0x20\n      add\n      swap2\n      pop\n    tag_151:\n      pop\n      swap3\n      pop\n      pop\n      pop\n      mload(0x40)\n      dup1\n      swap2\n      sub\n      swap1\n      return\n        /* \"contracts/Pool/PoolPig.sol\":18988:19254  function decreaseAllowance(address spender, uint256 subtractedValue) public virtual returns (bool) {... */\n    tag_30:\n      callvalue\n      dup1\n      iszero\n      tag_152\n      jumpi\n      0x00\n      dup1\n      revert\n    tag_152:\n      pop\n      tag_153\n      0x04\n      dup1\n      calldatasize\n      sub\n      0x40\n      dup2\n      lt\n      iszero\n      tag_154\n      jumpi\n      0x00\n      dup1\n      revert\n    tag_154:\n      dup2\n      add\n      swap1\n      dup1\n      dup1\n      calldataload\n      0xffffffffffffffffffffffffffffffffffffffff\n      and\n      swap1\n      0x20\n      add\n      swap1\n      swap3\n      swap2\n      swap1\n      dup1\n      calldataload\n      swap1\n      0x20\n      add\n      swap1\n      swap3\n      swap2\n      swap1\n      pop\n      pop\n      pop\n      tag_155\n      jump\t// in\n    tag_153:\n      mload(0x40)\n      dup1\n      dup3\n      iszero\n      iszero\n      dup2\n      mstore\n      0x20\n      add\n      swap2\n      pop\n      pop\n      mload(0x40)\n      dup1\n      swap2\n      sub\n      swap1\n      return\n        /* \"contracts/Pool/PoolPig.sol\":6957:7245  function unlock() public virtual {... */\n    tag_31:\n      callvalue\n      dup1\n      iszero\n      tag_156\n      jumpi\n      0x00\n      dup1\n      revert\n    tag_156:\n      pop\n      tag_157\n      tag_158\n      jump\t// in\n    tag_157:\n      stop\n        /* \"contracts/Pool/PoolPig.sol\":17971:18135  function transfer(address recipient, uint256 amount) public override returns (bool) {... */\n    tag_32:\n      callvalue\n      dup1\n      iszero\n      tag_159\n      jumpi\n      0x00\n      dup1\n      revert\n    tag_159:\n      pop\n      tag_160\n      0x04\n      dup1\n      calldatasize\n      sub\n      0x40\n      dup2\n      lt\n      iszero\n      tag_161\n      jumpi\n      0x00\n      dup1\n      revert\n    tag_161:\n      dup2\n      add\n      swap1\n      dup1\n      dup1\n      calldataload\n      0xffffffffffffffffffffffffffffffffffffffff\n      and\n      swap1\n      0x20\n      add\n      swap1\n      swap3\n      swap2\n      swap1\n      dup1\n      calldataload\n      swap1\n      0x20\n      add\n      swap1\n      swap3\n      swap2\n      swap1\n      pop\n      pop\n      pop\n      tag_162\n      jump\t// in\n    tag_160:\n      mload(0x40)\n      dup1\n      dup3\n      iszero\n      iszero\n      dup2\n      mstore\n      0x20\n      add\n      swap2\n      pop\n      pop\n      mload(0x40)\n      dup1\n      swap2\n      sub\n      swap1\n      return\n        /* \"contracts/Pool/PoolPig.sol\":6515:6602  function geUnlockTime() public view returns (uint256) {... */\n    tag_33:\n      callvalue\n      dup1\n      iszero\n      tag_163\n      jumpi\n      0x00\n      dup1\n      revert\n    tag_163:\n      pop\n      tag_164\n      tag_165\n      jump\t// in\n    tag_164:\n      mload(0x40)\n      dup1\n      dup3\n      dup2\n      mstore\n      0x20\n      add\n      swap2\n      pop\n      pop\n      mload(0x40)\n      dup1\n      swap2\n      sub\n      swap1\n      return\n        /* \"contracts/Pool/PoolPig.sol\":22744:22912  function setSwapAndLiquifyEnabled(bool _enabled) public onlyOwner {... */\n    tag_34:\n      callvalue\n      dup1\n      iszero\n      tag_166\n      jumpi\n      0x00\n      dup1\n      revert\n    tag_166:\n      pop\n      tag_167\n      0x04\n      dup1\n      calldatasize\n      sub\n      0x20\n      dup2\n      lt\n      iszero\n      tag_168\n      jumpi\n      0x00\n      dup1\n      revert\n    tag_168:\n      dup2\n      add\n      swap1\n      dup1\n      dup1\n      calldataload\n      iszero\n      iszero\n      swap1\n      0x20\n      add\n      swap1\n      swap3\n      swap2\n      swap1\n      pop\n      pop\n      pop\n      tag_169\n      jump\t// in\n    tag_167:\n      stop\n        /* \"contracts/Pool/PoolPig.sol\":22580:22738  function setMaxTxPercent(uint256 maxTxPercent) external onlyOwner() {... */\n    tag_35:\n      callvalue\n      dup1\n      iszero\n      tag_170\n      jumpi\n      0x00\n      dup1\n      revert\n    tag_170:\n      pop\n      tag_171\n      0x04\n      dup1\n      calldatasize\n      sub\n      0x20\n      dup2\n      lt\n      iszero\n      tag_172\n      jumpi\n      0x00\n      dup1\n      revert\n    tag_172:\n      dup2\n      add\n      swap1\n      dup1\n      dup1\n      calldataload\n      swap1\n      0x20\n      add\n      swap1\n      swap3\n      swap2\n      swap1\n      pop\n      pop\n      pop\n      tag_173\n      jump\t// in\n    tag_171:\n      stop\n        /* \"contracts/Pool/PoolPig.sol\":6675:6884  function lock(uint256 time) public virtual onlyOwner {... */\n    tag_36:\n      callvalue\n      dup1\n      iszero\n      tag_174\n      jumpi\n      0x00\n      dup1\n      revert\n    tag_174:\n      pop\n      tag_175\n      0x04\n      dup1\n      calldatasize\n      sub\n      0x20\n      dup2\n      lt\n      iszero\n      tag_176\n      jumpi\n      0x00\n      dup1\n      revert\n    tag_176:\n      dup2\n      add\n      swap1\n      dup1\n      dup1\n      calldataload\n      swap1\n      0x20\n      add\n      swap1\n      swap3\n      swap2\n      swap1\n      pop\n      pop\n      pop\n      tag_177\n      jump\t// in\n    tag_175:\n      stop\n        /* \"contracts/Pool/PoolPig.sol\":18141:18282  function allowance(address owner, address spender) public view override returns (uint256) {... */\n    tag_37:\n      callvalue\n      dup1\n      iszero\n      tag_178\n      jumpi\n      0x00\n      dup1\n      revert\n    tag_178:\n      pop\n      tag_179\n      0x04\n      dup1\n      calldatasize\n      sub\n      0x40\n      dup2\n      lt\n      iszero\n      tag_180\n      jumpi\n      0x00\n      dup1\n      revert\n    tag_180:\n      dup2\n      add\n      swap1\n      dup1\n      dup1\n      calldataload\n      0xffffffffffffffffffffffffffffffffffffffff\n      and\n      swap1\n      0x20\n      add\n      swap1\n      swap3\n      swap2\n      swap1\n      dup1\n      calldataload\n      0xffffffffffffffffffffffffffffffffffffffff\n      and\n      swap1\n      0x20\n      add\n      swap1\n      swap3\n      swap2\n      swap1\n      pop\n      pop\n      pop\n      tag_181\n      jump\t// in\n    tag_179:\n      mload(0x40)\n      dup1\n      dup3\n      dup2\n      mstore\n      0x20\n      add\n      swap2\n      pop\n      pop\n      mload(0x40)\n      dup1\n      swap2\n      sub\n      swap1\n      return\n        /* \"contracts/Pool/PoolPig.sol\":22227:22335  function includeInFee(address account) public onlyOwner {... */\n    tag_38:\n      callvalue\n      dup1\n      iszero\n      tag_182\n      jumpi\n      0x00\n      dup1\n      revert\n    tag_182:\n      pop\n      tag_183\n      0x04\n      dup1\n      calldatasize\n      sub\n      0x20\n      dup2\n      lt\n      iszero\n      tag_184\n      jumpi\n      0x00\n      dup1\n      revert\n    tag_184:\n      dup2\n      add\n      swap1\n      dup1\n      dup1\n      calldataload\n      0xffffffffffffffffffffffffffffffffffffffff\n      and\n      swap1\n      0x20\n      add\n      swap1\n      swap3\n      swap2\n      swap1\n      pop\n      pop\n      pop\n      tag_185\n      jump\t// in\n    tag_183:\n      stop\n        /* \"contracts/Pool/PoolPig.sol\":6269:6509  function transferOwnership(address newOwner) public virtual onlyOwner {... */\n    tag_39:\n      callvalue\n      dup1\n      iszero\n      tag_186\n      jumpi\n      0x00\n      dup1\n      revert\n    tag_186:\n      pop\n      tag_187\n      0x04\n      dup1\n      calldatasize\n      sub\n      0x20\n      dup2\n      lt\n      iszero\n      tag_188\n      jumpi\n      0x00\n      dup1\n      revert\n    tag_188:\n      dup2\n      add\n      swap1\n      dup1\n      dup1\n      calldataload\n      0xffffffffffffffffffffffffffffffffffffffff\n      and\n      swap1\n      0x20\n      add\n      swap1\n      swap3\n      swap2\n      swap1\n      pop\n      pop\n      pop\n      tag_189\n      jump\t// in\n    tag_187:\n      stop\n        /* \"contracts/Pool/PoolPig.sol\":22345:22441  function setTaxFeePercent(uint256 taxFee) external onlyOwner() {... */\n    tag_52:\n        /* \"contracts/Pool/PoolPig.sol\":6045:6057  _msgSender() */\n      tag_191\n        /* \"contracts/Pool/PoolPig.sol\":6045:6055  _msgSender */\n      tag_192\n        /* \"contracts/Pool/PoolPig.sol\":6045:6057  _msgSender() */\n      jump\t// in\n    tag_191:\n        /* \"contracts/Pool/PoolPig.sol\":6035:6057  _owner == _msgSender() */\n      0xffffffffffffffffffffffffffffffffffffffff\n      and\n        /* \"contracts/Pool/PoolPig.sol\":6035:6041  _owner */\n      0x00\n      dup1\n      sload\n      swap1\n      0x0100\n      exp\n      swap1\n      div\n      0xffffffffffffffffffffffffffffffffffffffff\n      and\n        /* \"contracts/Pool/PoolPig.sol\":6035:6057  _owner == _msgSender() */\n      0xffffffffffffffffffffffffffffffffffffffff\n      and\n      eq\n        /* \"contracts/Pool/PoolPig.sol\":6027:6094  require(_owner == _msgSender(), \"Ownable: caller is not the owner\") */\n      tag_193\n      jumpi\n      mload(0x40)\n      0x08c379a000000000000000000000000000000000000000000000000000000000\n      dup2\n      mstore\n      0x04\n      add\n      dup1\n      dup1\n      0x20\n      add\n      dup3\n      dup2\n      sub\n      dup3\n      mstore\n      0x20\n      dup2\n      mstore\n      0x20\n      add\n      dup1\n      0x4f776e61626c653a2063616c6c6572206973206e6f7420746865206f776e6572\n      dup2\n      mstore\n      pop\n      0x20\n      add\n      swap2\n      pop\n      pop\n      mload(0x40)\n      dup1\n      swap2\n      sub\n      swap1\n      revert\n    tag_193:\n        /* \"contracts/Pool/PoolPig.sol\":22428:22434  taxFee */\n      dup1\n        /* \"contracts/Pool/PoolPig.sol\":22418:22425  _taxFee */\n      0x0e\n        /* \"contracts/Pool/PoolPig.sol\":22418:22434  _taxFee = taxFee */\n      dup2\n      swap1\n      sstore\n      pop\n        /* \"contracts/Pool/PoolPig.sol\":22345:22441  function setTaxFeePercent(uint256 taxFee) external onlyOwner() {... */\n      pop\n      jump\t// out\n        /* \"contracts/Pool/PoolPig.sol\":17406:17487  function name() public view returns (string memory) {... */\n    tag_55:\n        /* \"contracts/Pool/PoolPig.sol\":17443:17456  string memory */\n      0x60\n        /* \"contracts/Pool/PoolPig.sol\":17475:17480  _name */\n      0x0b\n        /* \"contracts/Pool/PoolPig.sol\":17468:17480  return _name */\n      dup1\n      sload\n      0x01\n      dup2\n      0x01\n      and\n      iszero\n      0x0100\n      mul\n      sub\n      and\n      0x02\n      swap1\n      div\n      dup1\n      0x1f\n      add\n      0x20\n      dup1\n      swap2\n      div\n      mul\n      0x20\n      add\n      mload(0x40)\n      swap1\n      dup2\n      add\n      0x40\n      mstore\n      dup1\n      swap3\n      swap2\n      swap1\n      dup2\n      dup2\n      mstore\n      0x20\n      add\n      dup3\n      dup1\n      sload\n      0x01\n      dup2\n      0x01\n      and\n      iszero\n      0x0100\n      mul\n      sub\n      and\n      0x02\n      swap1\n      div\n      dup1\n      iszero\n      tag_196\n      jumpi\n      dup1\n      0x1f\n      lt\n      tag_197\n      jumpi\n      0x0100\n      dup1\n      dup4\n      sload\n      div\n      mul\n      dup4\n      mstore\n      swap2\n      0x20\n      add\n      swap2\n      jump(tag_196)\n    tag_197:\n      dup3\n      add\n      swap2\n      swap1\n      0x00\n      mstore\n      keccak256(0x00, 0x20)\n      swap1\n    tag_198:\n      dup2\n      sload\n      dup2\n      mstore\n      swap1\n      0x01\n      add\n      swap1\n      0x20\n      add\n      dup1\n      dup4\n      gt\n      tag_198\n      jumpi\n      dup3\n      swap1\n      sub\n      0x1f\n      and\n      dup3\n      add\n      swap2\n    tag_196:\n      pop\n      pop\n      pop\n      pop\n      pop\n      swap1\n      pop\n        /* \"contracts/Pool/PoolPig.sol\":17406:17487  function name() public view returns (string memory) {... */\n      swap1\n      jump\t// out\n        /* \"contracts/Pool/PoolPig.sol\":18288:18446  function approve(address spender, uint256 amount) public override returns (bool) {... */\n    tag_63:\n        /* \"contracts/Pool/PoolPig.sol\":18363:18367  bool */\n      0x00\n        /* \"contracts/Pool/PoolPig.sol\":18379:18418  _approve(_msgSender(), spender, amount) */\n      tag_200\n        /* \"contracts/Pool/PoolPig.sol\":18388:18400  _msgSender() */\n      tag_201\n        /* \"contracts/Pool/PoolPig.sol\":18388:18398  _msgSender */\n      tag_192\n        /* \"contracts/Pool/PoolPig.sol\":18388:18400  _msgSender() */\n      jump\t// in\n    tag_201:\n        /* \"contracts/Pool/PoolPig.sol\":18402:18409  spender */\n      dup5\n        /* \"contracts/Pool/PoolPig.sol\":18411:18417  amount */\n      dup5\n        /* \"contracts/Pool/PoolPig.sol\":18379:18387  _approve */\n      tag_202\n        /* \"contracts/Pool/PoolPig.sol\":18379:18418  _approve(_msgSender(), spender, amount) */\n      jump\t// in\n    tag_200:\n        /* \"contracts/Pool/PoolPig.sol\":18435:18439  true */\n      0x01\n        /* \"contracts/Pool/PoolPig.sol\":18428:18439  return true */\n      swap1\n      pop\n        /* \"contracts/Pool/PoolPig.sol\":18288:18446  function approve(address spender, uint256 amount) public override returns (bool) {... */\n      swap3\n      swap2\n      pop\n      pop\n      jump\t// out\n        /* \"contracts/Pool/PoolPig.sol\":19384:19469  function totalFees() public view returns (uint256) {... */\n    tag_66:\n        /* \"contracts/Pool/PoolPig.sol\":19426:19433  uint256 */\n      0x00\n        /* \"contracts/Pool/PoolPig.sol\":19452:19462  _tFeeTotal */\n      sload(0x0a)\n        /* \"contracts/Pool/PoolPig.sol\":19445:19462  return _tFeeTotal */\n      swap1\n      pop\n        /* \"contracts/Pool/PoolPig.sol\":19384:19469  function totalFees() public view returns (uint256) {... */\n      swap1\n      jump\t// out\n        /* \"contracts/Pool/PoolPig.sol\":16060:16111  IUniswapV2Router02 public immutable uniswapV2Router */\n    tag_69:\n      immutable(\"0xcbd30de1da04efa9e9dfb752a21e23c2c0c1de652015c52c119403b61435944f\")\n      dup2\n      jump\t// out\n        /* \"contracts/Pool/PoolPig.sol\":17671:17764  function totalSupply() public view override returns (uint256) {... */\n    tag_72:\n        /* \"contracts/Pool/PoolPig.sol\":17724:17731  uint256 */\n      0x00\n        /* \"contracts/Pool/PoolPig.sol\":15652:15670  1000000000 * 10**9 */\n      0x0de0b6b3a7640000\n        /* \"contracts/Pool/PoolPig.sol\":17743:17757  return _tTotal */\n      swap1\n      pop\n        /* \"contracts/Pool/PoolPig.sol\":17671:17764  function totalSupply() public view override returns (uint256) {... */\n      swap1\n      jump\t// out\n        /* \"contracts/Pool/PoolPig.sol\":18452:18761  function transferFrom(address sender, address recipient, uint256 amount) public override returns (bool) {... */\n    tag_76:\n        /* \"contracts/Pool/PoolPig.sol\":18550:18554  bool */\n      0x00\n        /* \"contracts/Pool/PoolPig.sol\":18566:18602  _transfer(sender, recipient, amount) */\n      tag_206\n        /* \"contracts/Pool/PoolPig.sol\":18576:18582  sender */\n      dup5\n        /* \"contracts/Pool/PoolPig.sol\":18584:18593  recipient */\n      dup5\n        /* \"contracts/Pool/PoolPig.sol\":18595:18601  amount */\n      dup5\n        /* \"contracts/Pool/PoolPig.sol\":18566:18575  _transfer */\n      tag_207\n        /* \"contracts/Pool/PoolPig.sol\":18566:18602  _transfer(sender, recipient, amount) */\n      jump\t// in\n    tag_206:\n        /* \"contracts/Pool/PoolPig.sol\":18612:18733  _approve(sender, _msgSender(), _allowances[sender][_msgSender()].sub(amount, \"ERC20: transfer amount exceeds allowance\")) */\n      tag_208\n        /* \"contracts/Pool/PoolPig.sol\":18621:18627  sender */\n      dup5\n        /* \"contracts/Pool/PoolPig.sol\":18629:18641  _msgSender() */\n      tag_209\n        /* \"contracts/Pool/PoolPig.sol\":18629:18639  _msgSender */\n      tag_192\n        /* \"contracts/Pool/PoolPig.sol\":18629:18641  _msgSender() */\n      jump\t// in\n    tag_209:\n        /* \"contracts/Pool/PoolPig.sol\":18643:18732  _allowances[sender][_msgSender()].sub(amount, \"ERC20: transfer amount exceeds allowance\") */\n      tag_210\n        /* \"contracts/Pool/PoolPig.sol\":18681:18687  amount */\n      dup6\n        /* \"contracts/Pool/PoolPig.sol\":18643:18732  _allowances[sender][_msgSender()].sub(amount, \"ERC20: transfer amount exceeds allowance\") */\n      mload(0x40)\n      dup1\n      0x60\n      add\n      0x40\n      mstore\n      dup1\n      0x28\n      dup2\n      mstore\n      0x20\n      add\n      data_974d1b4421da69cc60b481194f0dad36a5bb4e23da810da7a7fb30cdba178330\n      0x28\n      swap2\n      codecopy\n        /* \"contracts/Pool/PoolPig.sol\":18643:18654  _allowances */\n      0x05\n        /* \"contracts/Pool/PoolPig.sol\":18643:18662  _allowances[sender] */\n      0x00\n        /* \"contracts/Pool/PoolPig.sol\":18655:18661  sender */\n      dup12\n        /* \"contracts/Pool/PoolPig.sol\":18643:18662  _allowances[sender] */\n      0xffffffffffffffffffffffffffffffffffffffff\n      and\n      0xffffffffffffffffffffffffffffffffffffffff\n      and\n      dup2\n      mstore\n      0x20\n      add\n      swap1\n      dup2\n      mstore\n      0x20\n      add\n      0x00\n      keccak256\n        /* \"contracts/Pool/PoolPig.sol\":18643:18676  _allowances[sender][_msgSender()] */\n      0x00\n        /* \"contracts/Pool/PoolPig.sol\":18663:18675  _msgSender() */\n      tag_211\n        /* \"contracts/Pool/PoolPig.sol\":18663:18673  _msgSender */\n      tag_192\n        /* \"contracts/Pool/PoolPig.sol\":18663:18675  _msgSender() */\n      jump\t// in\n    tag_211:\n        /* \"contracts/Pool/PoolPig.sol\":18643:18676  _allowances[sender][_msgSender()] */\n      0xffffffffffffffffffffffffffffffffffffffff\n      and\n      0xffffffffffffffffffffffffffffffffffffffff\n      and\n      dup2\n      mstore\n      0x20\n      add\n      swap1\n      dup2\n      mstore\n      0x20\n      add\n      0x00\n      keccak256\n      sload\n        /* \"contracts/Pool/PoolPig.sol\":18643:18680  _allowances[sender][_msgSender()].sub */\n      tag_212\n      swap1\n        /* \"contracts/Pool/PoolPig.sol\":18643:18732  _allowances[sender][_msgSender()].sub(amount, \"ERC20: transfer amount exceeds allowance\") */\n      swap3\n      swap2\n      swap1\n      0xffffffff\n      and\n      jump\t// in\n    tag_210:\n        /* \"contracts/Pool/PoolPig.sol\":18612:18620  _approve */\n      tag_202\n        /* \"contracts/Pool/PoolPig.sol\":18612:18733  _approve(sender, _msgSender(), _allowances[sender][_msgSender()].sub(amount, \"ERC20: transfer amount exceeds allowance\")) */\n      jump\t// in\n    tag_208:\n        /* \"contracts/Pool/PoolPig.sol\":18750:18754  true */\n      0x01\n        /* \"contracts/Pool/PoolPig.sol\":18743:18754  return true */\n      swap1\n      pop\n        /* \"contracts/Pool/PoolPig.sol\":18452:18761  function transferFrom(address sender, address recipient, uint256 amount) public override returns (bool) {... */\n      swap4\n      swap3\n      pop\n      pop\n      pop\n      jump\t// out\n        /* \"contracts/Pool/PoolPig.sol\":20284:20533  function tokenFromReflection(uint256 rAmount) public view returns(uint256) {... */\n    tag_80:\n        /* \"contracts/Pool/PoolPig.sol\":20350:20357  uint256 */\n      0x00\n        /* \"contracts/Pool/PoolPig.sol\":20388:20395  _rTotal */\n      sload(0x09)\n        /* \"contracts/Pool/PoolPig.sol\":20377:20384  rAmount */\n      dup3\n        /* \"contracts/Pool/PoolPig.sol\":20377:20395  rAmount <= _rTotal */\n      gt\n      iszero\n        /* \"contracts/Pool/PoolPig.sol\":20369:20442  require(rAmount <= _rTotal, \"Amount must be less than total reflections\") */\n      tag_214\n      jumpi\n      mload(0x40)\n      0x08c379a000000000000000000000000000000000000000000000000000000000\n      dup2\n      mstore\n      0x04\n      add\n      dup1\n      dup1\n      0x20\n      add\n      dup3\n      dup2\n      sub\n      dup3\n      mstore\n      0x2a\n      dup2\n      mstore\n      0x20\n      add\n      dup1\n      data_22f7af55a509c3b14f0d528f087748dec8a8bf425135e3f5dc28c6a31ec6d812\n      0x2a\n      swap2\n      codecopy\n      0x40\n      add\n      swap2\n      pop\n      pop\n      mload(0x40)\n      dup1\n      swap2\n      sub\n      swap1\n      revert\n    tag_214:\n        /* \"contracts/Pool/PoolPig.sol\":20452:20471  uint256 currentRate */\n      0x00\n        /* \"contracts/Pool/PoolPig.sol\":20475:20485  _getRate() */\n      tag_215\n        /* \"contracts/Pool/PoolPig.sol\":20475:20483  _getRate */\n      tag_216\n        /* \"contracts/Pool/PoolPig.sol\":20475:20485  _getRate() */\n      jump\t// in\n    tag_215:\n        /* \"contracts/Pool/PoolPig.sol\":20452:20485  uint256 currentRate =  _getRate() */\n      swap1\n      pop\n        /* \"contracts/Pool/PoolPig.sol\":20502:20526  rAmount.div(currentRate) */\n      tag_217\n        /* \"contracts/Pool/PoolPig.sol\":20514:20525  currentRate */\n      dup2\n        /* \"contracts/Pool/PoolPig.sol\":20502:20509  rAmount */\n      dup5\n        /* \"contracts/Pool/PoolPig.sol\":20502:20513  rAmount.div */\n      tag_218\n      swap1\n        /* \"contracts/Pool/PoolPig.sol\":20502:20526  rAmount.div(currentRate) */\n      swap2\n      swap1\n      0xffffffff\n      and\n      jump\t// in\n    tag_217:\n        /* \"contracts/Pool/PoolPig.sol\":20495:20526  return rAmount.div(currentRate) */\n      swap2\n      pop\n      pop\n        /* \"contracts/Pool/PoolPig.sol\":20284:20533  function tokenFromReflection(uint256 rAmount) public view returns(uint256) {... */\n      swap2\n      swap1\n      pop\n      jump\t// out\n        /* \"contracts/Pool/PoolPig.sol\":17584:17665  function decimals() public view returns (uint8) {... */\n    tag_83:\n        /* \"contracts/Pool/PoolPig.sol\":17625:17630  uint8 */\n      0x00\n        /* \"contracts/Pool/PoolPig.sol\":17649:17658  _decimals */\n      0x0d\n      0x00\n      swap1\n      sload\n      swap1\n      0x0100\n      exp\n      swap1\n      div\n      0xff\n      and\n        /* \"contracts/Pool/PoolPig.sol\":17642:17658  return _decimals */\n      swap1\n      pop\n        /* \"contracts/Pool/PoolPig.sol\":17584:17665  function decimals() public view returns (uint8) {... */\n      swap1\n      jump\t// out\n        /* \"contracts/Pool/PoolPig.sol\":20984:21452  function includeInReward(address account) external onlyOwner() {... */\n    tag_87:\n        /* \"contracts/Pool/PoolPig.sol\":6045:6057  _msgSender() */\n      tag_221\n        /* \"contracts/Pool/PoolPig.sol\":6045:6055  _msgSender */\n      tag_192\n        /* \"contracts/Pool/PoolPig.sol\":6045:6057  _msgSender() */\n      jump\t// in\n    tag_221:\n        /* \"contracts/Pool/PoolPig.sol\":6035:6057  _owner == _msgSender() */\n      0xffffffffffffffffffffffffffffffffffffffff\n      and\n        /* \"contracts/Pool/PoolPig.sol\":6035:6041  _owner */\n      0x00\n      dup1\n      sload\n      swap1\n      0x0100\n      exp\n      swap1\n      div\n      0xffffffffffffffffffffffffffffffffffffffff\n      and\n        /* \"contracts/Pool/PoolPig.sol\":6035:6057  _owner == _msgSender() */\n      0xffffffffffffffffffffffffffffffffffffffff\n      and\n      eq\n        /* \"contracts/Pool/PoolPig.sol\":6027:6094  require(_owner == _msgSender(), \"Ownable: caller is not the owner\") */\n      tag_222\n      jumpi\n      mload(0x40)\n      0x08c379a000000000000000000000000000000000000000000000000000000000\n      dup2\n      mstore\n      0x04\n      add\n      dup1\n      dup1\n      0x20\n      add\n      dup3\n      dup2\n      sub\n      dup3\n      mstore\n      0x20\n      dup2\n      mstore\n      0x20\n      add\n      dup1\n      0x4f776e61626c653a2063616c6c6572206973206e6f7420746865206f776e6572\n      dup2\n      mstore\n      pop\n      0x20\n      add\n      swap2\n      pop\n      pop\n      mload(0x40)\n      dup1\n      swap2\n      sub\n      swap1\n      revert\n    tag_222:\n        /* \"contracts/Pool/PoolPig.sol\":21065:21076  _isExcluded */\n      0x07\n        /* \"contracts/Pool/PoolPig.sol\":21065:21085  _isExcluded[account] */\n      0x00\n        /* \"contracts/Pool/PoolPig.sol\":21077:21084  account */\n      dup3\n        /* \"contracts/Pool/PoolPig.sol\":21065:21085  _isExcluded[account] */\n      0xffffffffffffffffffffffffffffffffffffffff\n      and\n      0xffffffffffffffffffffffffffffffffffffffff\n      and\n      dup2\n      mstore\n      0x20\n      add\n      swap1\n      dup2\n      mstore\n      0x20\n      add\n      0x00\n      keccak256\n      0x00\n      swap1\n      sload\n      swap1\n      0x0100\n      exp\n      swap1\n      div\n      0xff\n      and\n        /* \"contracts/Pool/PoolPig.sol\":21057:21117  require(_isExcluded[account], \"Account is already excluded\") */\n      tag_224\n      jumpi\n      mload(0x40)\n      0x08c379a000000000000000000000000000000000000000000000000000000000\n      dup2\n      mstore\n      0x04\n      add\n      dup1\n      dup1\n      0x20\n      add\n      dup3\n      dup2\n      sub\n      dup3\n      mstore\n      0x1b\n      dup2\n      mstore\n      0x20\n      add\n      dup1\n      0x4163636f756e7420697320616c7265616479206578636c756465640000000000\n      dup2\n      mstore\n      pop\n      0x20\n      add\n      swap2\n      pop\n      pop\n      mload(0x40)\n      dup1\n      swap2\n      sub\n      swap1\n      revert\n    tag_224:\n        /* \"contracts/Pool/PoolPig.sol\":21132:21141  uint256 i */\n      0x00\n        /* \"contracts/Pool/PoolPig.sol\":21127:21446  for (uint256 i = 0; i < _excluded.length; i++) {... */\n    tag_225:\n        /* \"contracts/Pool/PoolPig.sol\":21151:21160  _excluded */\n      0x08\n        /* \"contracts/Pool/PoolPig.sol\":21151:21167  _excluded.length */\n      dup1\n      sload\n      swap1\n      pop\n        /* \"contracts/Pool/PoolPig.sol\":21147:21148  i */\n      dup2\n        /* \"contracts/Pool/PoolPig.sol\":21147:21167  i < _excluded.length */\n      lt\n        /* \"contracts/Pool/PoolPig.sol\":21127:21446  for (uint256 i = 0; i < _excluded.length; i++) {... */\n      iszero\n      tag_226\n      jumpi\n        /* \"contracts/Pool/PoolPig.sol\":21208:21215  account */\n      dup2\n        /* \"contracts/Pool/PoolPig.sol\":21192:21215  _excluded[i] == account */\n      0xffffffffffffffffffffffffffffffffffffffff\n      and\n        /* \"contracts/Pool/PoolPig.sol\":21192:21201  _excluded */\n      0x08\n        /* \"contracts/Pool/PoolPig.sol\":21202:21203  i */\n      dup3\n        /* \"contracts/Pool/PoolPig.sol\":21192:21204  _excluded[i] */\n      dup2\n      sload\n      dup2\n      lt\n      tag_228\n      jumpi\n      invalid\n    tag_228:\n      swap1\n      0x00\n      mstore\n      keccak256(0x00, 0x20)\n      add\n      0x00\n      swap1\n      sload\n      swap1\n      0x0100\n      exp\n      swap1\n      div\n      0xffffffffffffffffffffffffffffffffffffffff\n      and\n        /* \"contracts/Pool/PoolPig.sol\":21192:21215  _excluded[i] == account */\n      0xffffffffffffffffffffffffffffffffffffffff\n      and\n      eq\n        /* \"contracts/Pool/PoolPig.sol\":21188:21436  if (_excluded[i] == account) {... */\n      iszero\n      tag_230\n      jumpi\n        /* \"contracts/Pool/PoolPig.sol\":21250:21259  _excluded */\n      0x08\n        /* \"contracts/Pool/PoolPig.sol\":21279:21280  1 */\n      0x01\n        /* \"contracts/Pool/PoolPig.sol\":21260:21269  _excluded */\n      0x08\n        /* \"contracts/Pool/PoolPig.sol\":21260:21276  _excluded.length */\n      dup1\n      sload\n      swap1\n      pop\n        /* \"contracts/Pool/PoolPig.sol\":21260:21280  _excluded.length - 1 */\n      sub\n        /* \"contracts/Pool/PoolPig.sol\":21250:21281  _excluded[_excluded.length - 1] */\n      dup2\n      sload\n      dup2\n      lt\n      tag_231\n      jumpi\n      invalid\n    tag_231:\n      swap1\n      0x00\n      mstore\n      keccak256(0x00, 0x20)\n      add\n      0x00\n      swap1\n      sload\n      swap1\n      0x0100\n      exp\n      swap1\n      div\n      0xffffffffffffffffffffffffffffffffffffffff\n      and\n        /* \"contracts/Pool/PoolPig.sol\":21235:21244  _excluded */\n      0x08\n        /* \"contracts/Pool/PoolPig.sol\":21245:21246  i */\n      dup3\n        /* \"contracts/Pool/PoolPig.sol\":21235:21247  _excluded[i] */\n      dup2\n      sload\n      dup2\n      lt\n      tag_233\n      jumpi\n      invalid\n    tag_233:\n      swap1\n      0x00\n      mstore\n      keccak256(0x00, 0x20)\n      add\n      0x00\n        /* \"contracts/Pool/PoolPig.sol\":21235:21281  _excluded[i] = _excluded[_excluded.length - 1] */\n      0x0100\n      exp\n      dup2\n      sload\n      dup2\n      0xffffffffffffffffffffffffffffffffffffffff\n      mul\n      not\n      and\n      swap1\n      dup4\n      0xffffffffffffffffffffffffffffffffffffffff\n      and\n      mul\n      or\n      swap1\n      sstore\n      pop\n        /* \"contracts/Pool/PoolPig.sol\":21318:21319  0 */\n      0x00\n        /* \"contracts/Pool/PoolPig.sol\":21299:21306  _tOwned */\n      0x04\n        /* \"contracts/Pool/PoolPig.sol\":21299:21315  _tOwned[account] */\n      0x00\n        /* \"contracts/Pool/PoolPig.sol\":21307:21314  account */\n      dup5\n        /* \"contracts/Pool/PoolPig.sol\":21299:21315  _tOwned[account] */\n      0xffffffffffffffffffffffffffffffffffffffff\n      and\n      0xffffffffffffffffffffffffffffffffffffffff\n      and\n      dup2\n      mstore\n      0x20\n      add\n      swap1\n      dup2\n      mstore\n      0x20\n      add\n      0x00\n      keccak256\n        /* \"contracts/Pool/PoolPig.sol\":21299:21319  _tOwned[account] = 0 */\n      dup2\n      swap1\n      sstore\n      pop\n        /* \"contracts/Pool/PoolPig.sol\":21360:21365  false */\n      0x00\n        /* \"contracts/Pool/PoolPig.sol\":21337:21348  _isExcluded */\n      0x07\n        /* \"contracts/Pool/PoolPig.sol\":21337:21357  _isExcluded[account] */\n      0x00\n        /* \"contracts/Pool/PoolPig.sol\":21349:21356  account */\n      dup5\n        /* \"contracts/Pool/PoolPig.sol\":21337:21357  _isExcluded[account] */\n      0xffffffffffffffffffffffffffffffffffffffff\n      and\n      0xffffffffffffffffffffffffffffffffffffffff\n      and\n      dup2\n      mstore\n      0x20\n      add\n      swap1\n      dup2\n      mstore\n      0x20\n      add\n      0x00\n      keccak256\n      0x00\n        /* \"contracts/Pool/PoolPig.sol\":21337:21365  _isExcluded[account] = false */\n      0x0100\n      exp\n      dup2\n      sload\n      dup2\n      0xff\n      mul\n      not\n      and\n      swap1\n      dup4\n      iszero\n      iszero\n      mul\n      or\n      swap1\n      sstore\n      pop\n        /* \"contracts/Pool/PoolPig.sol\":21383:21392  _excluded */\n      0x08\n        /* \"contracts/Pool/PoolPig.sol\":21383:21398  _excluded.pop() */\n      dup1\n      sload\n      dup1\n      tag_235\n      jumpi\n      invalid\n    tag_235:\n      0x01\n      swap1\n      sub\n      dup2\n      dup2\n      swap1\n      0x00\n      mstore\n      keccak256(0x00, 0x20)\n      add\n      exp(0x0100, 0x00)\n      dup2\n      sload\n      swap1\n      0xffffffffffffffffffffffffffffffffffffffff\n      mul\n      not\n      and\n      swap1\n      sstore\n      swap1\n      sstore\n        /* \"contracts/Pool/PoolPig.sol\":21416:21421  break */\n      jump(tag_226)\n        /* \"contracts/Pool/PoolPig.sol\":21188:21436  if (_excluded[i] == account) {... */\n    tag_230:\n        /* \"contracts/Pool/PoolPig.sol\":21169:21172  i++ */\n      dup1\n      dup1\n      0x01\n      add\n      swap2\n      pop\n      pop\n        /* \"contracts/Pool/PoolPig.sol\":21127:21446  for (uint256 i = 0; i < _excluded.length; i++) {... */\n      jump(tag_225)\n    tag_226:\n      pop\n        /* \"contracts/Pool/PoolPig.sol\":20984:21452  function includeInReward(address account) external onlyOwner() {... */\n      pop\n      jump\t// out\n        /* \"contracts/Pool/PoolPig.sol\":18767:18982  function increaseAllowance(address spender, uint256 addedValue) public virtual returns (bool) {... */\n    tag_91:\n        /* \"contracts/Pool/PoolPig.sol\":18855:18859  bool */\n      0x00\n        /* \"contracts/Pool/PoolPig.sol\":18871:18954  _approve(_msgSender(), spender, _allowances[_msgSender()][spender].add(addedValue)) */\n      tag_238\n        /* \"contracts/Pool/PoolPig.sol\":18880:18892  _msgSender() */\n      tag_239\n        /* \"contracts/Pool/PoolPig.sol\":18880:18890  _msgSender */\n      tag_192\n        /* \"contracts/Pool/PoolPig.sol\":18880:18892  _msgSender() */\n      jump\t// in\n    tag_239:\n        /* \"contracts/Pool/PoolPig.sol\":18894:18901  spender */\n      dup5\n        /* \"contracts/Pool/PoolPig.sol\":18903:18953  _allowances[_msgSender()][spender].add(addedValue) */\n      tag_240\n        /* \"contracts/Pool/PoolPig.sol\":18942:18952  addedValue */\n      dup6\n        /* \"contracts/Pool/PoolPig.sol\":18903:18914  _allowances */\n      0x05\n        /* \"contracts/Pool/PoolPig.sol\":18903:18928  _allowances[_msgSender()] */\n      0x00\n        /* \"contracts/Pool/PoolPig.sol\":18915:18927  _msgSender() */\n      tag_241\n        /* \"contracts/Pool/PoolPig.sol\":18915:18925  _msgSender */\n      tag_192\n        /* \"contracts/Pool/PoolPig.sol\":18915:18927  _msgSender() */\n      jump\t// in\n    tag_241:\n        /* \"contracts/Pool/PoolPig.sol\":18903:18928  _allowances[_msgSender()] */\n      0xffffffffffffffffffffffffffffffffffffffff\n      and\n      0xffffffffffffffffffffffffffffffffffffffff\n      and\n      dup2\n      mstore\n      0x20\n      add\n      swap1\n      dup2\n      mstore\n      0x20\n      add\n      0x00\n      keccak256\n        /* \"contracts/Pool/PoolPig.sol\":18903:18937  _allowances[_msgSender()][spender] */\n      0x00\n        /* \"contracts/Pool/PoolPig.sol\":18929:18936  spender */\n      dup10\n        /* \"contracts/Pool/PoolPig.sol\":18903:18937  _allowances[_msgSender()][spender] */\n      0xffffffffffffffffffffffffffffffffffffffff\n      and\n      0xffffffffffffffffffffffffffffffffffffffff\n      and\n      dup2\n      mstore\n      0x20\n      add\n      swap1\n      dup2\n      mstore\n      0x20\n      add\n      0x00\n      keccak256\n      sload\n        /* \"contracts/Pool/PoolPig.sol\":18903:18941  _allowances[_msgSender()][spender].add */\n      tag_242\n      swap1\n        /* \"contracts/Pool/PoolPig.sol\":18903:18953  _allowances[_msgSender()][spender].add(addedValue) */\n      swap2\n      swap1\n      0xffffffff\n      and\n      jump\t// in\n    tag_240:\n        /* \"contracts/Pool/PoolPig.sol\":18871:18879  _approve */\n      tag_202\n        /* \"contracts/Pool/PoolPig.sol\":18871:18954  _approve(_msgSender(), spender, _allowances[_msgSender()][spender].add(addedValue)) */\n      jump\t// in\n    tag_238:\n        /* \"contracts/Pool/PoolPig.sol\":18971:18975  true */\n      0x01\n        /* \"contracts/Pool/PoolPig.sol\":18964:18975  return true */\n      swap1\n      pop\n        /* \"contracts/Pool/PoolPig.sol\":18767:18982  function increaseAllowance(address spender, uint256 addedValue) public virtual returns (bool) {... */\n      swap3\n      swap2\n      pop\n      pop\n      jump\t// out\n        /* \"contracts/Pool/PoolPig.sol\":15878:15904  uint256 public _taxFee = 2 */\n    tag_94:\n      sload(0x0e)\n      dup2\n      jump\t// out\n        /* \"contracts/Pool/PoolPig.sol\":19475:19845  function deliver(uint256 tAmount) public {... */\n    tag_98:\n        /* \"contracts/Pool/PoolPig.sol\":19526:19540  address sender */\n      0x00\n        /* \"contracts/Pool/PoolPig.sol\":19543:19555  _msgSender() */\n      tag_244\n        /* \"contracts/Pool/PoolPig.sol\":19543:19553  _msgSender */\n      tag_192\n        /* \"contracts/Pool/PoolPig.sol\":19543:19555  _msgSender() */\n      jump\t// in\n    tag_244:\n        /* \"contracts/Pool/PoolPig.sol\":19526:19555  address sender = _msgSender() */\n      swap1\n      pop\n        /* \"contracts/Pool/PoolPig.sol\":19574:19585  _isExcluded */\n      0x07\n        /* \"contracts/Pool/PoolPig.sol\":19574:19593  _isExcluded[sender] */\n      0x00\n        /* \"contracts/Pool/PoolPig.sol\":19586:19592  sender */\n      dup3\n        /* \"contracts/Pool/PoolPig.sol\":19574:19593  _isExcluded[sender] */\n      0xffffffffffffffffffffffffffffffffffffffff\n      and\n      0xffffffffffffffffffffffffffffffffffffffff\n      and\n      dup2\n      mstore\n      0x20\n      add\n      swap1\n      dup2\n      mstore\n      0x20\n      add\n      0x00\n      keccak256\n      0x00\n      swap1\n      sload\n      swap1\n      0x0100\n      exp\n      swap1\n      div\n      0xff\n      and\n        /* \"contracts/Pool/PoolPig.sol\":19573:19593  !_isExcluded[sender] */\n      iszero\n        /* \"contracts/Pool/PoolPig.sol\":19565:19642  require(!_isExcluded[sender], \"Excluded addresses cannot call this function\") */\n      tag_245\n      jumpi\n      mload(0x40)\n      0x08c379a000000000000000000000000000000000000000000000000000000000\n      dup2\n      mstore\n      0x04\n      add\n      dup1\n      dup1\n      0x20\n      add\n      dup3\n      dup2\n      sub\n      dup3\n      mstore\n      0x2c\n      dup2\n      mstore\n      0x20\n      add\n      dup1\n      data_ecefcaf5fbcf9ca6dcdb02298ba1da96f4ead317b0a4779917ecb2e5e7dc3ac4\n      0x2c\n      swap2\n      codecopy\n      0x40\n      add\n      swap2\n      pop\n      pop\n      mload(0x40)\n      dup1\n      swap2\n      sub\n      swap1\n      revert\n    tag_245:\n        /* \"contracts/Pool/PoolPig.sol\":19653:19668  uint256 rAmount */\n      0x00\n        /* \"contracts/Pool/PoolPig.sol\":19677:19696  _getValues(tAmount) */\n      tag_246\n        /* \"contracts/Pool/PoolPig.sol\":19688:19695  tAmount */\n      dup4\n        /* \"contracts/Pool/PoolPig.sol\":19677:19687  _getValues */\n      tag_247\n        /* \"contracts/Pool/PoolPig.sol\":19677:19696  _getValues(tAmount) */\n      jump\t// in\n    tag_246:\n        /* \"contracts/Pool/PoolPig.sol\":19652:19696  (uint256 rAmount,,,,,) = _getValues(tAmount) */\n      pop\n      pop\n      pop\n      pop\n      pop\n      swap1\n      pop\n        /* \"contracts/Pool/PoolPig.sol\":19724:19752  _rOwned[sender].sub(rAmount) */\n      tag_248\n        /* \"contracts/Pool/PoolPig.sol\":19744:19751  rAmount */\n      dup2\n        /* \"contracts/Pool/PoolPig.sol\":19724:19731  _rOwned */\n      0x03\n        /* \"contracts/Pool/PoolPig.sol\":19724:19739  _rOwned[sender] */\n      0x00\n        /* \"contracts/Pool/PoolPig.sol\":19732:19738  sender */\n      dup6\n        /* \"contracts/Pool/PoolPig.sol\":19724:19739  _rOwned[sender] */\n      0xffffffffffffffffffffffffffffffffffffffff\n      and\n      0xffffffffffffffffffffffffffffffffffffffff\n      and\n      dup2\n      mstore\n      0x20\n      add\n      swap1\n      dup2\n      mstore\n      0x20\n      add\n      0x00\n      keccak256\n      sload\n        /* \"contracts/Pool/PoolPig.sol\":19724:19743  _rOwned[sender].sub */\n      tag_249\n      swap1\n        /* \"contracts/Pool/PoolPig.sol\":19724:19752  _rOwned[sender].sub(rAmount) */\n      swap2\n      swap1\n      0xffffffff\n      and\n      jump\t// in\n    tag_248:\n        /* \"contracts/Pool/PoolPig.sol\":19706:19713  _rOwned */\n      0x03\n        /* \"contracts/Pool/PoolPig.sol\":19706:19721  _rOwned[sender] */\n      0x00\n        /* \"contracts/Pool/PoolPig.sol\":19714:19720  sender */\n      dup5\n        /* \"contracts/Pool/PoolPig.sol\":19706:19721  _rOwned[sender] */\n      0xffffffffffffffffffffffffffffffffffffffff\n      and\n      0xffffffffffffffffffffffffffffffffffffffff\n      and\n      dup2\n      mstore\n      0x20\n      add\n      swap1\n      dup2\n      mstore\n      0x20\n      add\n      0x00\n      keccak256\n        /* \"contracts/Pool/PoolPig.sol\":19706:19752  _rOwned[sender] = _rOwned[sender].sub(rAmount) */\n      dup2\n      swap1\n      sstore\n      pop\n        /* \"contracts/Pool/PoolPig.sol\":19772:19792  _rTotal.sub(rAmount) */\n      tag_250\n        /* \"contracts/Pool/PoolPig.sol\":19784:19791  rAmount */\n      dup2\n        /* \"contracts/Pool/PoolPig.sol\":19772:19779  _rTotal */\n      sload(0x09)\n        /* \"contracts/Pool/PoolPig.sol\":19772:19783  _rTotal.sub */\n      tag_249\n      swap1\n        /* \"contracts/Pool/PoolPig.sol\":19772:19792  _rTotal.sub(rAmount) */\n      swap2\n      swap1\n      0xffffffff\n      and\n      jump\t// in\n    tag_250:\n        /* \"contracts/Pool/PoolPig.sol\":19762:19769  _rTotal */\n      0x09\n        /* \"contracts/Pool/PoolPig.sol\":19762:19792  _rTotal = _rTotal.sub(rAmount) */\n      dup2\n      swap1\n      sstore\n      pop\n        /* \"contracts/Pool/PoolPig.sol\":19815:19838  _tFeeTotal.add(tAmount) */\n      tag_251\n        /* \"contracts/Pool/PoolPig.sol\":19830:19837  tAmount */\n      dup4\n        /* \"contracts/Pool/PoolPig.sol\":19815:19825  _tFeeTotal */\n      sload(0x0a)\n        /* \"contracts/Pool/PoolPig.sol\":19815:19829  _tFeeTotal.add */\n      tag_242\n      swap1\n        /* \"contracts/Pool/PoolPig.sol\":19815:19838  _tFeeTotal.add(tAmount) */\n      swap2\n      swap1\n      0xffffffff\n      and\n      jump\t// in\n    tag_251:\n        /* \"contracts/Pool/PoolPig.sol\":19802:19812  _tFeeTotal */\n      0x0a\n        /* \"contracts/Pool/PoolPig.sol\":19802:19838  _tFeeTotal = _tFeeTotal.add(tAmount) */\n      dup2\n      swap1\n      sstore\n      pop\n        /* \"contracts/Pool/PoolPig.sol\":19475:19845  function deliver(uint256 tAmount) public {... */\n      pop\n      pop\n      pop\n      jump\t// out\n        /* \"contracts/Pool/PoolPig.sol\":22108:22217  function excludeFromFee(address account) public onlyOwner {... */\n    tag_102:\n        /* \"contracts/Pool/PoolPig.sol\":6045:6057  _msgSender() */\n      tag_253\n        /* \"contracts/Pool/PoolPig.sol\":6045:6055  _msgSender */\n      tag_192\n        /* \"contracts/Pool/PoolPig.sol\":6045:6057  _msgSender() */\n      jump\t// in\n    tag_253:\n        /* \"contracts/Pool/PoolPig.sol\":6035:6057  _owner == _msgSender() */\n      0xffffffffffffffffffffffffffffffffffffffff\n      and\n        /* \"contracts/Pool/PoolPig.sol\":6035:6041  _owner */\n      0x00\n      dup1\n      sload\n      swap1\n      0x0100\n      exp\n      swap1\n      div\n      0xffffffffffffffffffffffffffffffffffffffff\n      and\n        /* \"contracts/Pool/PoolPig.sol\":6035:6057  _owner == _msgSender() */\n      0xffffffffffffffffffffffffffffffffffffffff\n      and\n      eq\n        /* \"contracts/Pool/PoolPig.sol\":6027:6094  require(_owner == _msgSender(), \"Ownable: caller is not the owner\") */\n      tag_254\n      jumpi\n      mload(0x40)\n      0x08c379a000000000000000000000000000000000000000000000000000000000\n      dup2\n      mstore\n      0x04\n      add\n      dup1\n      dup1\n      0x20\n      add\n      dup3\n      dup2\n      sub\n      dup3\n      mstore\n      0x20\n      dup2\n      mstore\n      0x20\n      add\n      dup1\n      0x4f776e61626c653a2063616c6c6572206973206e6f7420746865206f776e6572\n      dup2\n      mstore\n      pop\n      0x20\n      add\n      swap2\n      pop\n      pop\n      mload(0x40)\n      dup1\n      swap2\n      sub\n      swap1\n      revert\n    tag_254:\n        /* \"contracts/Pool/PoolPig.sol\":22206:22210  true */\n      0x01\n        /* \"contracts/Pool/PoolPig.sol\":22176:22194  _isExcludedFromFee */\n      0x06\n        /* \"contracts/Pool/PoolPig.sol\":22176:22203  _isExcludedFromFee[account] */\n      0x00\n        /* \"contracts/Pool/PoolPig.sol\":22195:22202  account */\n      dup4\n        /* \"contracts/Pool/PoolPig.sol\":22176:22203  _isExcludedFromFee[account] */\n      0xffffffffffffffffffffffffffffffffffffffff\n      and\n      0xffffffffffffffffffffffffffffffffffffffff\n      and\n      dup2\n      mstore\n      0x20\n      add\n      swap1\n      dup2\n      mstore\n      0x20\n      add\n      0x00\n      keccak256\n      0x00\n        /* \"contracts/Pool/PoolPig.sol\":22176:22210  _isExcludedFromFee[account] = true */\n      0x0100\n      exp\n      dup2\n      sload\n      dup2\n      0xff\n      mul\n      not\n      and\n      swap1\n      dup4\n      iszero\n      iszero\n      mul\n      or\n      swap1\n      sstore\n      pop\n        /* \"contracts/Pool/PoolPig.sol\":22108:22217  function excludeFromFee(address account) public onlyOwner {... */\n      pop\n      jump\t// out\n        /* \"contracts/Pool/PoolPig.sol\":19851:20278  function reflectionFromToken(uint256 tAmount, bool deductTransferFee) public view returns(uint256) {... */\n    tag_106:\n        /* \"contracts/Pool/PoolPig.sol\":19941:19948  uint256 */\n      0x00\n        /* \"contracts/Pool/PoolPig.sol\":15652:15670  1000000000 * 10**9 */\n      0x0de0b6b3a7640000\n        /* \"contracts/Pool/PoolPig.sol\":19968:19975  tAmount */\n      dup4\n        /* \"contracts/Pool/PoolPig.sol\":19968:19986  tAmount <= _tTotal */\n      gt\n      iszero\n        /* \"contracts/Pool/PoolPig.sol\":19960:20022  require(tAmount <= _tTotal, \"Amount must be less than supply\") */\n      tag_257\n      jumpi\n      mload(0x40)\n      0x08c379a000000000000000000000000000000000000000000000000000000000\n      dup2\n      mstore\n      0x04\n      add\n      dup1\n      dup1\n      0x20\n      add\n      dup3\n      dup2\n      sub\n      dup3\n      mstore\n      0x1f\n      dup2\n      mstore\n      0x20\n      add\n      dup1\n      0x416d6f756e74206d757374206265206c657373207468616e20737570706c7900\n      dup2\n      mstore\n      pop\n      0x20\n      add\n      swap2\n      pop\n      pop\n      mload(0x40)\n      dup1\n      swap2\n      sub\n      swap1\n      revert\n    tag_257:\n        /* \"contracts/Pool/PoolPig.sol\":20037:20054  deductTransferFee */\n      dup2\n        /* \"contracts/Pool/PoolPig.sol\":20032:20272  if (!deductTransferFee) {... */\n      tag_258\n      jumpi\n        /* \"contracts/Pool/PoolPig.sol\":20071:20086  uint256 rAmount */\n      0x00\n        /* \"contracts/Pool/PoolPig.sol\":20095:20114  _getValues(tAmount) */\n      tag_259\n        /* \"contracts/Pool/PoolPig.sol\":20106:20113  tAmount */\n      dup5\n        /* \"contracts/Pool/PoolPig.sol\":20095:20105  _getValues */\n      tag_247\n        /* \"contracts/Pool/PoolPig.sol\":20095:20114  _getValues(tAmount) */\n      jump\t// in\n    tag_259:\n        /* \"contracts/Pool/PoolPig.sol\":20070:20114  (uint256 rAmount,,,,,) = _getValues(tAmount) */\n      pop\n      pop\n      pop\n      pop\n      pop\n      swap1\n      pop\n        /* \"contracts/Pool/PoolPig.sol\":20135:20142  rAmount */\n      dup1\n        /* \"contracts/Pool/PoolPig.sol\":20128:20142  return rAmount */\n      swap2\n      pop\n      pop\n      jump(tag_256)\n        /* \"contracts/Pool/PoolPig.sol\":20032:20272  if (!deductTransferFee) {... */\n    tag_258:\n        /* \"contracts/Pool/PoolPig.sol\":20175:20198  uint256 rTransferAmount */\n      0x00\n        /* \"contracts/Pool/PoolPig.sol\":20206:20225  _getValues(tAmount) */\n      tag_261\n        /* \"contracts/Pool/PoolPig.sol\":20217:20224  tAmount */\n      dup5\n        /* \"contracts/Pool/PoolPig.sol\":20206:20216  _getValues */\n      tag_247\n        /* \"contracts/Pool/PoolPig.sol\":20206:20225  _getValues(tAmount) */\n      jump\t// in\n    tag_261:\n        /* \"contracts/Pool/PoolPig.sol\":20173:20225  (,uint256 rTransferAmount,,,,) = _getValues(tAmount) */\n      pop\n      pop\n      pop\n      pop\n      swap2\n      pop\n      pop\n        /* \"contracts/Pool/PoolPig.sol\":20246:20261  rTransferAmount */\n      dup1\n        /* \"contracts/Pool/PoolPig.sol\":20239:20261  return rTransferAmount */\n      swap2\n      pop\n      pop\n        /* \"contracts/Pool/PoolPig.sol\":19851:20278  function reflectionFromToken(uint256 tAmount, bool deductTransferFee) public view returns(uint256) {... */\n    tag_256:\n      swap3\n      swap2\n      pop\n      pop\n      jump\t// out\n        /* \"contracts/Pool/PoolPig.sol\":16117:16155  address public immutable uniswapV2Pair */\n    tag_109:\n      immutable(\"0x924caa65d1644bcda3c737cb4f972c9170b1e3eb26b1eeba5090c589a3beb7a4\")\n      dup2\n      jump\t// out\n        /* \"contracts/Pool/PoolPig.sol\":16193:16233  bool public swapAndLiquifyEnabled = true */\n    tag_112:\n      0x12\n      0x01\n      swap1\n      sload\n      swap1\n      0x0100\n      exp\n      swap1\n      div\n      0xff\n      and\n      dup2\n      jump\t// out\n        /* \"contracts/Pool/PoolPig.sol\":20539:20978  function excludeFromReward(address account) public onlyOwner() {... */\n    tag_116:\n        /* \"contracts/Pool/PoolPig.sol\":6045:6057  _msgSender() */\n      tag_263\n        /* \"contracts/Pool/PoolPig.sol\":6045:6055  _msgSender */\n      tag_192\n        /* \"contracts/Pool/PoolPig.sol\":6045:6057  _msgSender() */\n      jump\t// in\n    tag_263:\n        /* \"contracts/Pool/PoolPig.sol\":6035:6057  _owner == _msgSender() */\n      0xffffffffffffffffffffffffffffffffffffffff\n      and\n        /* \"contracts/Pool/PoolPig.sol\":6035:6041  _owner */\n      0x00\n      dup1\n      sload\n      swap1\n      0x0100\n      exp\n      swap1\n      div\n      0xffffffffffffffffffffffffffffffffffffffff\n      and\n        /* \"contracts/Pool/PoolPig.sol\":6035:6057  _owner == _msgSender() */\n      0xffffffffffffffffffffffffffffffffffffffff\n      and\n      eq\n        /* \"contracts/Pool/PoolPig.sol\":6027:6094  require(_owner == _msgSender(), \"Ownable: caller is not the owner\") */\n      tag_264\n      jumpi\n      mload(0x40)\n      0x08c379a000000000000000000000000000000000000000000000000000000000\n      dup2\n      mstore\n      0x04\n      add\n      dup1\n      dup1\n      0x20\n      add\n      dup3\n      dup2\n      sub\n      dup3\n      mstore\n      0x20\n      dup2\n      mstore\n      0x20\n      add\n      dup1\n      0x4f776e61626c653a2063616c6c6572206973206e6f7420746865206f776e6572\n      dup2\n      mstore\n      pop\n      0x20\n      add\n      swap2\n      pop\n      pop\n      mload(0x40)\n      dup1\n      swap2\n      sub\n      swap1\n      revert\n    tag_264:\n        /* \"contracts/Pool/PoolPig.sol\":20734:20745  _isExcluded */\n      0x07\n        /* \"contracts/Pool/PoolPig.sol\":20734:20754  _isExcluded[account] */\n      0x00\n        /* \"contracts/Pool/PoolPig.sol\":20746:20753  account */\n      dup3\n        /* \"contracts/Pool/PoolPig.sol\":20734:20754  _isExcluded[account] */\n      0xffffffffffffffffffffffffffffffffffffffff\n      and\n      0xffffffffffffffffffffffffffffffffffffffff\n      and\n      dup2\n      mstore\n      0x20\n      add\n      swap1\n      dup2\n      mstore\n      0x20\n      add\n      0x00\n      keccak256\n      0x00\n      swap1\n      sload\n      swap1\n      0x0100\n      exp\n      swap1\n      div\n      0xff\n      and\n        /* \"contracts/Pool/PoolPig.sol\":20733:20754  !_isExcluded[account] */\n      iszero\n        /* \"contracts/Pool/PoolPig.sol\":20725:20786  require(!_isExcluded[account], \"Account is already excluded\") */\n      tag_266\n      jumpi\n      mload(0x40)\n      0x08c379a000000000000000000000000000000000000000000000000000000000\n      dup2\n      mstore\n      0x04\n      add\n      dup1\n      dup1\n      0x20\n      add\n      dup3\n      dup2\n      sub\n      dup3\n      mstore\n      0x1b\n      dup2\n      mstore\n      0x20\n      add\n      dup1\n      0x4163636f756e7420697320616c7265616479206578636c756465640000000000\n      dup2\n      mstore\n      pop\n      0x20\n      add\n      swap2\n      pop\n      pop\n      mload(0x40)\n      dup1\n      swap2\n      sub\n      swap1\n      revert\n    tag_266:\n        /* \"contracts/Pool/PoolPig.sol\":20818:20819  0 */\n      0x00\n        /* \"contracts/Pool/PoolPig.sol\":20799:20806  _rOwned */\n      0x03\n        /* \"contracts/Pool/PoolPig.sol\":20799:20815  _rOwned[account] */\n      0x00\n        /* \"contracts/Pool/PoolPig.sol\":20807:20814  account */\n      dup4\n        /* \"contracts/Pool/PoolPig.sol\":20799:20815  _rOwned[account] */\n      0xffffffffffffffffffffffffffffffffffffffff\n      and\n      0xffffffffffffffffffffffffffffffffffffffff\n      and\n      dup2\n      mstore\n      0x20\n      add\n      swap1\n      dup2\n      mstore\n      0x20\n      add\n      0x00\n      keccak256\n      sload\n        /* \"contracts/Pool/PoolPig.sol\":20799:20819  _rOwned[account] > 0 */\n      gt\n        /* \"contracts/Pool/PoolPig.sol\":20796:20902  if(_rOwned[account] > 0) {... */\n      iszero\n      tag_267\n      jumpi\n        /* \"contracts/Pool/PoolPig.sol\":20854:20891  tokenFromReflection(_rOwned[account]) */\n      tag_268\n        /* \"contracts/Pool/PoolPig.sol\":20874:20881  _rOwned */\n      0x03\n        /* \"contracts/Pool/PoolPig.sol\":20874:20890  _rOwned[account] */\n      0x00\n        /* \"contracts/Pool/PoolPig.sol\":20882:20889  account */\n      dup4\n        /* \"contracts/Pool/PoolPig.sol\":20874:20890  _rOwned[account] */\n      0xffffffffffffffffffffffffffffffffffffffff\n      and\n      0xffffffffffffffffffffffffffffffffffffffff\n      and\n      dup2\n      mstore\n      0x20\n      add\n      swap1\n      dup2\n      mstore\n      0x20\n      add\n      0x00\n      keccak256\n      sload\n        /* \"contracts/Pool/PoolPig.sol\":20854:20873  tokenFromReflection */\n      tag_80\n        /* \"contracts/Pool/PoolPig.sol\":20854:20891  tokenFromReflection(_rOwned[account]) */\n      jump\t// in\n    tag_268:\n        /* \"contracts/Pool/PoolPig.sol\":20835:20842  _tOwned */\n      0x04\n        /* \"contracts/Pool/PoolPig.sol\":20835:20851  _tOwned[account] */\n      0x00\n        /* \"contracts/Pool/PoolPig.sol\":20843:20850  account */\n      dup4\n        /* \"contracts/Pool/PoolPig.sol\":20835:20851  _tOwned[account] */\n      0xffffffffffffffffffffffffffffffffffffffff\n      and\n      0xffffffffffffffffffffffffffffffffffffffff\n      and\n      dup2\n      mstore\n      0x20\n      add\n      swap1\n      dup2\n      mstore\n      0x20\n      add\n      0x00\n      keccak256\n        /* \"contracts/Pool/PoolPig.sol\":20835:20891  _tOwned[account] = tokenFromReflection(_rOwned[account]) */\n      dup2\n      swap1\n      sstore\n      pop\n        /* \"contracts/Pool/PoolPig.sol\":20796:20902  if(_rOwned[account] > 0) {... */\n    tag_267:\n        /* \"contracts/Pool/PoolPig.sol\":20934:20938  true */\n      0x01\n        /* \"contracts/Pool/PoolPig.sol\":20911:20922  _isExcluded */\n      0x07\n        /* \"contracts/Pool/PoolPig.sol\":20911:20931  _isExcluded[account] */\n      0x00\n        /* \"contracts/Pool/PoolPig.sol\":20923:20930  account */\n      dup4\n        /* \"contracts/Pool/PoolPig.sol\":20911:20931  _isExcluded[account] */\n      0xffffffffffffffffffffffffffffffffffffffff\n      and\n      0xffffffffffffffffffffffffffffffffffffffff\n      and\n      dup2\n      mstore\n      0x20\n      add\n      swap1\n      dup2\n      mstore\n      0x20\n      add\n      0x00\n      keccak256\n      0x00\n        /* \"contracts/Pool/PoolPig.sol\":20911:20938  _isExcluded[account] = true */\n      0x0100\n      exp\n      dup2\n      sload\n      dup2\n      0xff\n      mul\n      not\n      and\n      swap1\n      dup4\n      iszero\n      iszero\n      mul\n      or\n      swap1\n      sstore\n      pop\n        /* \"contracts/Pool/PoolPig.sol\":20948:20957  _excluded */\n      0x08\n        /* \"contracts/Pool/PoolPig.sol\":20963:20970  account */\n      dup2\n        /* \"contracts/Pool/PoolPig.sol\":20948:20971  _excluded.push(account) */\n      swap1\n      dup1\n      0x01\n      dup2\n      sload\n      add\n      dup1\n      dup3\n      sstore\n      dup1\n      swap2\n      pop\n      pop\n      0x01\n      swap1\n      sub\n      swap1\n      0x00\n      mstore\n      keccak256(0x00, 0x20)\n      add\n      0x00\n      swap1\n      swap2\n      swap1\n      swap2\n      swap1\n      swap2\n      0x0100\n      exp\n      dup2\n      sload\n      dup2\n      0xffffffffffffffffffffffffffffffffffffffff\n      mul\n      not\n      and\n      swap1\n      dup4\n      0xffffffffffffffffffffffffffffffffffffffff\n      and\n      mul\n      or\n      swap1\n      sstore\n      pop\n        /* \"contracts/Pool/PoolPig.sol\":20539:20978  function excludeFromReward(address account) public onlyOwner() {... */\n      pop\n      jump\t// out\n        /* \"contracts/Pool/PoolPig.sol\":26142:26263  function isExcludedFromFee(address account) public view returns(bool) {... */\n    tag_120:\n        /* \"contracts/Pool/PoolPig.sol\":26206:26210  bool */\n      0x00\n        /* \"contracts/Pool/PoolPig.sol\":26229:26247  _isExcludedFromFee */\n      0x06\n        /* \"contracts/Pool/PoolPig.sol\":26229:26256  _isExcludedFromFee[account] */\n      0x00\n        /* \"contracts/Pool/PoolPig.sol\":26248:26255  account */\n      dup4\n        /* \"contracts/Pool/PoolPig.sol\":26229:26256  _isExcludedFromFee[account] */\n      0xffffffffffffffffffffffffffffffffffffffff\n      and\n      0xffffffffffffffffffffffffffffffffffffffff\n      and\n      dup2\n      mstore\n      0x20\n      add\n      swap1\n      dup2\n      mstore\n      0x20\n      add\n      0x00\n      keccak256\n      0x00\n      swap1\n      sload\n      swap1\n      0x0100\n      exp\n      swap1\n      div\n      0xff\n      and\n        /* \"contracts/Pool/PoolPig.sol\":26222:26256  return _isExcludedFromFee[account] */\n      swap1\n      pop\n        /* \"contracts/Pool/PoolPig.sol\":26142:26263  function isExcludedFromFee(address account) public view returns(bool) {... */\n      swap2\n      swap1\n      pop\n      jump\t// out\n        /* \"contracts/Pool/PoolPig.sol\":15962:15994  uint256 public _liquidityFee = 3 */\n    tag_123:\n      sload(0x10)\n      dup2\n      jump\t// out\n        /* \"contracts/Pool/PoolPig.sol\":17770:17965  function balanceOf(address account) public view override returns (uint256) {... */\n    tag_127:\n        /* \"contracts/Pool/PoolPig.sol\":17836:17843  uint256 */\n      0x00\n        /* \"contracts/Pool/PoolPig.sol\":17859:17870  _isExcluded */\n      0x07\n        /* \"contracts/Pool/PoolPig.sol\":17859:17879  _isExcluded[account] */\n      0x00\n        /* \"contracts/Pool/PoolPig.sol\":17871:17878  account */\n      dup4\n        /* \"contracts/Pool/PoolPig.sol\":17859:17879  _isExcluded[account] */\n      0xffffffffffffffffffffffffffffffffffffffff\n      and\n      0xffffffffffffffffffffffffffffffffffffffff\n      and\n      dup2\n      mstore\n      0x20\n      add\n      swap1\n      dup2\n      mstore\n      0x20\n      add\n      0x00\n      keccak256\n      0x00\n      swap1\n      sload\n      swap1\n      0x0100\n      exp\n      swap1\n      div\n      0xff\n      and\n        /* \"contracts/Pool/PoolPig.sol\":17855:17904  if (_isExcluded[account]) return _tOwned[account] */\n      iszero\n      tag_272\n      jumpi\n        /* \"contracts/Pool/PoolPig.sol\":17888:17895  _tOwned */\n      0x04\n        /* \"contracts/Pool/PoolPig.sol\":17888:17904  _tOwned[account] */\n      0x00\n        /* \"contracts/Pool/PoolPig.sol\":17896:17903  account */\n      dup4\n        /* \"contracts/Pool/PoolPig.sol\":17888:17904  _tOwned[account] */\n      0xffffffffffffffffffffffffffffffffffffffff\n      and\n      0xffffffffffffffffffffffffffffffffffffffff\n      and\n      dup2\n      mstore\n      0x20\n      add\n      swap1\n      dup2\n      mstore\n      0x20\n      add\n      0x00\n      keccak256\n      sload\n        /* \"contracts/Pool/PoolPig.sol\":17881:17904  return _tOwned[account] */\n      swap1\n      pop\n      jump(tag_271)\n        /* \"contracts/Pool/PoolPig.sol\":17855:17904  if (_isExcluded[account]) return _tOwned[account] */\n    tag_272:\n        /* \"contracts/Pool/PoolPig.sol\":17921:17958  tokenFromReflection(_rOwned[account]) */\n      tag_273\n        /* \"contracts/Pool/PoolPig.sol\":17941:17948  _rOwned */\n      0x03\n        /* \"contracts/Pool/PoolPig.sol\":17941:17957  _rOwned[account] */\n      0x00\n        /* \"contracts/Pool/PoolPig.sol\":17949:17956  account */\n      dup5\n        /* \"contracts/Pool/PoolPig.sol\":17941:17957  _rOwned[account] */\n      0xffffffffffffffffffffffffffffffffffffffff\n      and\n      0xffffffffffffffffffffffffffffffffffffffff\n      and\n      dup2\n      mstore\n      0x20\n      add\n      swap1\n      dup2\n      mstore\n      0x20\n      add\n      0x00\n      keccak256\n      sload\n        /* \"contracts/Pool/PoolPig.sol\":17921:17940  tokenFromReflection */\n      tag_80\n        /* \"contracts/Pool/PoolPig.sol\":17921:17958  tokenFromReflection(_rOwned[account]) */\n      jump\t// in\n    tag_273:\n        /* \"contracts/Pool/PoolPig.sol\":17914:17958  return tokenFromReflection(_rOwned[account]) */\n      swap1\n      pop\n        /* \"contracts/Pool/PoolPig.sol\":17770:17965  function balanceOf(address account) public view override returns (uint256) {... */\n    tag_271:\n      swap2\n      swap1\n      pop\n      jump\t// out\n        /* \"contracts/Pool/PoolPig.sol\":6118:6263  function renounceOwnership() public virtual onlyOwner {... */\n    tag_130:\n        /* \"contracts/Pool/PoolPig.sol\":6045:6057  _msgSender() */\n      tag_275\n        /* \"contracts/Pool/PoolPig.sol\":6045:6055  _msgSender */\n      tag_192\n        /* \"contracts/Pool/PoolPig.sol\":6045:6057  _msgSender() */\n      jump\t// in\n    tag_275:\n        /* \"contracts/Pool/PoolPig.sol\":6035:6057  _owner == _msgSender() */\n      0xffffffffffffffffffffffffffffffffffffffff\n      and\n        /* \"contracts/Pool/PoolPig.sol\":6035:6041  _owner */\n      0x00\n      dup1\n      sload\n      swap1\n      0x0100\n      exp\n      swap1\n      div\n      0xffffffffffffffffffffffffffffffffffffffff\n      and\n        /* \"contracts/Pool/PoolPig.sol\":6035:6057  _owner == _msgSender() */\n      0xffffffffffffffffffffffffffffffffffffffff\n      and\n      eq\n        /* \"contracts/Pool/PoolPig.sol\":6027:6094  require(_owner == _msgSender(), \"Ownable: caller is not the owner\") */\n      tag_276\n      jumpi\n      mload(0x40)\n      0x08c379a000000000000000000000000000000000000000000000000000000000\n      dup2\n      mstore\n      0x04\n      add\n      dup1\n      dup1\n      0x20\n      add\n      dup3\n      dup2\n      sub\n      dup3\n      mstore\n      0x20\n      dup2\n      mstore\n      0x20\n      add\n      dup1\n      0x4f776e61626c653a2063616c6c6572206973206e6f7420746865206f776e6572\n      dup2\n      mstore\n      pop\n      0x20\n      add\n      swap2\n      pop\n      pop\n      mload(0x40)\n      dup1\n      swap2\n      sub\n      swap1\n      revert\n    tag_276:\n        /* \"contracts/Pool/PoolPig.sol\":6224:6225  0 */\n      0x00\n        /* \"contracts/Pool/PoolPig.sol\":6187:6227  OwnershipTransferred(_owner, address(0)) */\n      0xffffffffffffffffffffffffffffffffffffffff\n      and\n        /* \"contracts/Pool/PoolPig.sol\":6208:6214  _owner */\n      0x00\n      dup1\n      sload\n      swap1\n      0x0100\n      exp\n      swap1\n      div\n      0xffffffffffffffffffffffffffffffffffffffff\n      and\n        /* \"contracts/Pool/PoolPig.sol\":6187:6227  OwnershipTransferred(_owner, address(0)) */\n      0xffffffffffffffffffffffffffffffffffffffff\n      and\n      0x8be0079c531659141344cd1fd0a4f28419497f9722a3daafe3b4186f6b6457e0\n      mload(0x40)\n      mload(0x40)\n      dup1\n      swap2\n      sub\n      swap1\n      log3\n        /* \"contracts/Pool/PoolPig.sol\":6254:6255  0 */\n      0x00\n        /* \"contracts/Pool/PoolPig.sol\":6237:6243  _owner */\n      dup1\n      0x00\n        /* \"contracts/Pool/PoolPig.sol\":6237:6256  _owner = address(0) */\n      0x0100\n      exp\n      dup2\n      sload\n      dup2\n      0xffffffffffffffffffffffffffffffffffffffff\n      mul\n      not\n      and\n      swap1\n      dup4\n      0xffffffffffffffffffffffffffffffffffffffff\n      and\n      mul\n      or\n      swap1\n      sstore\n      pop\n        /* \"contracts/Pool/PoolPig.sol\":6118:6263  function renounceOwnership() public virtual onlyOwner {... */\n      jump\t// out\n        /* \"contracts/Pool/PoolPig.sol\":16244:16291  uint256 public _maxTxAmount = 500000000 * 10**9 */\n    tag_133:\n      sload(0x13)\n      dup2\n      jump\t// out\n        /* \"contracts/Pool/PoolPig.sol\":19260:19378  function isExcludedFromReward(address account) public view returns (bool) {... */\n    tag_137:\n        /* \"contracts/Pool/PoolPig.sol\":19328:19332  bool */\n      0x00\n        /* \"contracts/Pool/PoolPig.sol\":19351:19362  _isExcluded */\n      0x07\n        /* \"contracts/Pool/PoolPig.sol\":19351:19371  _isExcluded[account] */\n      0x00\n        /* \"contracts/Pool/PoolPig.sol\":19363:19370  account */\n      dup4\n        /* \"contracts/Pool/PoolPig.sol\":19351:19371  _isExcluded[account] */\n      0xffffffffffffffffffffffffffffffffffffffff\n      and\n      0xffffffffffffffffffffffffffffffffffffffff\n      and\n      dup2\n      mstore\n      0x20\n      add\n      swap1\n      dup2\n      mstore\n      0x20\n      add\n      0x00\n      keccak256\n      0x00\n      swap1\n      sload\n      swap1\n      0x0100\n      exp\n      swap1\n      div\n      0xff\n      and\n        /* \"contracts/Pool/PoolPig.sol\":19344:19371  return _isExcluded[account] */\n      swap1\n      pop\n        /* \"contracts/Pool/PoolPig.sol\":19260:19378  function isExcludedFromReward(address account) public view returns (bool) {... */\n      swap2\n      swap1\n      pop\n      jump\t// out\n        /* \"contracts/Pool/PoolPig.sol\":5831:5908  function owner() public view returns (address) {... */\n    tag_140:\n        /* \"contracts/Pool/PoolPig.sol\":5869:5876  address */\n      0x00\n        /* \"contracts/Pool/PoolPig.sol\":5895:5901  _owner */\n      dup1\n      0x00\n      swap1\n      sload\n      swap1\n      0x0100\n      exp\n      swap1\n      div\n      0xffffffffffffffffffffffffffffffffffffffff\n      and\n        /* \"contracts/Pool/PoolPig.sol\":5888:5901  return _owner */\n      swap1\n      pop\n        /* \"contracts/Pool/PoolPig.sol\":5831:5908  function owner() public view returns (address) {... */\n      swap1\n      jump\t// out\n        /* \"contracts/Pool/PoolPig.sol\":22451:22571  function setLiquidityFeePercent(uint256 liquidityFee) external onlyOwner() {... */\n    tag_144:\n        /* \"contracts/Pool/PoolPig.sol\":6045:6057  _msgSender() */\n      tag_281\n        /* \"contracts/Pool/PoolPig.sol\":6045:6055  _msgSender */\n      tag_192\n        /* \"contracts/Pool/PoolPig.sol\":6045:6057  _msgSender() */\n      jump\t// in\n    tag_281:\n        /* \"contracts/Pool/PoolPig.sol\":6035:6057  _owner == _msgSender() */\n      0xffffffffffffffffffffffffffffffffffffffff\n      and\n        /* \"contracts/Pool/PoolPig.sol\":6035:6041  _owner */\n      0x00\n      dup1\n      sload\n      swap1\n      0x0100\n      exp\n      swap1\n      div\n      0xffffffffffffffffffffffffffffffffffffffff\n      and\n        /* \"contracts/Pool/PoolPig.sol\":6035:6057  _owner == _msgSender() */\n      0xffffffffffffffffffffffffffffffffffffffff\n      and\n      eq\n        /* \"contracts/Pool/PoolPig.sol\":6027:6094  require(_owner == _msgSender(), \"Ownable: caller is not the owner\") */\n      tag_282\n      jumpi\n      mload(0x40)\n      0x08c379a000000000000000000000000000000000000000000000000000000000\n      dup2\n      mstore\n      0x04\n      add\n      dup1\n      dup1\n      0x20\n      add\n      dup3\n      dup2\n      sub\n      dup3\n      mstore\n      0x20\n      dup2\n      mstore\n      0x20\n      add\n      dup1\n      0x4f776e61626c653a2063616c6c6572206973206e6f7420746865206f776e6572\n      dup2\n      mstore\n      pop\n      0x20\n      add\n      swap2\n      pop\n      pop\n      mload(0x40)\n      dup1\n      swap2\n      sub\n      swap1\n      revert\n    tag_282:\n        /* \"contracts/Pool/PoolPig.sol\":22552:22564  liquidityFee */\n      dup1\n        /* \"contracts/Pool/PoolPig.sol\":22536:22549  _liquidityFee */\n      0x10\n        /* \"contracts/Pool/PoolPig.sol\":22536:22564  _liquidityFee = liquidityFee */\n      dup2\n      swap1\n      sstore\n      pop\n        /* \"contracts/Pool/PoolPig.sol\":22451:22571  function setLiquidityFeePercent(uint256 liquidityFee) external onlyOwner() {... */\n      pop\n      jump\t// out\n        /* \"contracts/Pool/PoolPig.sol\":17493:17578  function symbol() public view returns (string memory) {... */\n    tag_147:\n        /* \"contracts/Pool/PoolPig.sol\":17532:17545  string memory */\n      0x60\n        /* \"contracts/Pool/PoolPig.sol\":17564:17571  _symbol */\n      0x0c\n        /* \"contracts/Pool/PoolPig.sol\":17557:17571  return _symbol */\n      dup1\n      sload\n      0x01\n      dup2\n      0x01\n      and\n      iszero\n      0x0100\n      mul\n      sub\n      and\n      0x02\n      swap1\n      div\n      dup1\n      0x1f\n      add\n      0x20\n      dup1\n      swap2\n      div\n      mul\n      0x20\n      add\n      mload(0x40)\n      swap1\n      dup2\n      add\n      0x40\n      mstore\n      dup1\n      swap3\n      swap2\n      swap1\n      dup2\n      dup2\n      mstore\n      0x20\n      add\n      dup3\n      dup1\n      sload\n      0x01\n      dup2\n      0x01\n      and\n      iszero\n      0x0100\n      mul\n      sub\n      and\n      0x02\n      swap1\n      div\n      dup1\n      iszero\n      tag_285\n      jumpi\n      dup1\n      0x1f\n      lt\n      tag_286\n      jumpi\n      0x0100\n      dup1\n      dup4\n      sload\n      div\n      mul\n      dup4\n      mstore\n      swap2\n      0x20\n      add\n      swap2\n      jump(tag_285)\n    tag_286:\n      dup3\n      add\n      swap2\n      swap1\n      0x00\n      mstore\n      keccak256(0x00, 0x20)\n      swap1\n    tag_287:\n      dup2\n      sload\n      dup2\n      mstore\n      swap1\n      0x01\n      add\n      swap1\n      0x20\n      add\n      dup1\n      dup4\n      gt\n      tag_287\n      jumpi\n      dup3\n      swap1\n      sub\n      0x1f\n      and\n      dup3\n      add\n      swap2\n    tag_285:\n      pop\n      pop\n      pop\n      pop\n      pop\n      swap1\n      pop\n        /* \"contracts/Pool/PoolPig.sol\":17493:17578  function symbol() public view returns (string memory) {... */\n      swap1\n      jump\t// out\n        /* \"contracts/Pool/PoolPig.sol\":18988:19254  function decreaseAllowance(address spender, uint256 subtractedValue) public virtual returns (bool) {... */\n    tag_155:\n        /* \"contracts/Pool/PoolPig.sol\":19081:19085  bool */\n      0x00\n        /* \"contracts/Pool/PoolPig.sol\":19097:19226  _approve(_msgSender(), spender, _allowances[_msgSender()][spender].sub(subtractedValue, \"ERC20: decreased allowance below zero\")) */\n      tag_289\n        /* \"contracts/Pool/PoolPig.sol\":19106:19118  _msgSender() */\n      tag_290\n        /* \"contracts/Pool/PoolPig.sol\":19106:19116  _msgSender */\n      tag_192\n        /* \"contracts/Pool/PoolPig.sol\":19106:19118  _msgSender() */\n      jump\t// in\n    tag_290:\n        /* \"contracts/Pool/PoolPig.sol\":19120:19127  spender */\n      dup5\n        /* \"contracts/Pool/PoolPig.sol\":19129:19225  _allowances[_msgSender()][spender].sub(subtractedValue, \"ERC20: decreased allowance below zero\") */\n      tag_291\n        /* \"contracts/Pool/PoolPig.sol\":19168:19183  subtractedValue */\n      dup6\n        /* \"contracts/Pool/PoolPig.sol\":19129:19225  _allowances[_msgSender()][spender].sub(subtractedValue, \"ERC20: decreased allowance below zero\") */\n      mload(0x40)\n      dup1\n      0x60\n      add\n      0x40\n      mstore\n      dup1\n      0x25\n      dup2\n      mstore\n      0x20\n      add\n      data_f8b476f7d28209d77d4a4ac1fe36b9f8259aa1bb6bddfa6e89de7e51615cf8a8\n      0x25\n      swap2\n      codecopy\n        /* \"contracts/Pool/PoolPig.sol\":19129:19140  _allowances */\n      0x05\n        /* \"contracts/Pool/PoolPig.sol\":19129:19154  _allowances[_msgSender()] */\n      0x00\n        /* \"contracts/Pool/PoolPig.sol\":19141:19153  _msgSender() */\n      tag_292\n        /* \"contracts/Pool/PoolPig.sol\":19141:19151  _msgSender */\n      tag_192\n        /* \"contracts/Pool/PoolPig.sol\":19141:19153  _msgSender() */\n      jump\t// in\n    tag_292:\n        /* \"contracts/Pool/PoolPig.sol\":19129:19154  _allowances[_msgSender()] */\n      0xffffffffffffffffffffffffffffffffffffffff\n      and\n      0xffffffffffffffffffffffffffffffffffffffff\n      and\n      dup2\n      mstore\n      0x20\n      add\n      swap1\n      dup2\n      mstore\n      0x20\n      add\n      0x00\n      keccak256\n        /* \"contracts/Pool/PoolPig.sol\":19129:19163  _allowances[_msgSender()][spender] */\n      0x00\n        /* \"contracts/Pool/PoolPig.sol\":19155:19162  spender */\n      dup11\n        /* \"contracts/Pool/PoolPig.sol\":19129:19163  _allowances[_msgSender()][spender] */\n      0xffffffffffffffffffffffffffffffffffffffff\n      and\n      0xffffffffffffffffffffffffffffffffffffffff\n      and\n      dup2\n      mstore\n      0x20\n      add\n      swap1\n      dup2\n      mstore\n      0x20\n      add\n      0x00\n      keccak256\n      sload\n        /* \"contracts/Pool/PoolPig.sol\":19129:19167  _allowances[_msgSender()][spender].sub */\n      tag_212\n      swap1\n        /* \"contracts/Pool/PoolPig.sol\":19129:19225  _allowances[_msgSender()][spender].sub(subtractedValue, \"ERC20: decreased allowance below zero\") */\n      swap3\n      swap2\n      swap1\n      0xffffffff\n      and\n      jump\t// in\n    tag_291:\n        /* \"contracts/Pool/PoolPig.sol\":19097:19105  _approve */\n      tag_202\n        /* \"contracts/Pool/PoolPig.sol\":19097:19226  _approve(_msgSender(), spender, _allowances[_msgSender()][spender].sub(subtractedValue, \"ERC20: decreased allowance below zero\")) */\n      jump\t// in\n    tag_289:\n        /* \"contracts/Pool/PoolPig.sol\":19243:19247  true */\n      0x01\n        /* \"contracts/Pool/PoolPig.sol\":19236:19247  return true */\n      swap1\n      pop\n        /* \"contracts/Pool/PoolPig.sol\":18988:19254  function decreaseAllowance(address spender, uint256 subtractedValue) public virtual returns (bool) {... */\n      swap3\n      swap2\n      pop\n      pop\n      jump\t// out\n        /* \"contracts/Pool/PoolPig.sol\":6957:7245  function unlock() public virtual {... */\n    tag_158:\n        /* \"contracts/Pool/PoolPig.sol\":7026:7036  msg.sender */\n      caller\n        /* \"contracts/Pool/PoolPig.sol\":7008:7036  _previousOwner == msg.sender */\n      0xffffffffffffffffffffffffffffffffffffffff\n      and\n        /* \"contracts/Pool/PoolPig.sol\":7008:7022  _previousOwner */\n      0x01\n      0x00\n      swap1\n      sload\n      swap1\n      0x0100\n      exp\n      swap1\n      div\n      0xffffffffffffffffffffffffffffffffffffffff\n      and\n        /* \"contracts/Pool/PoolPig.sol\":7008:7036  _previousOwner == msg.sender */\n      0xffffffffffffffffffffffffffffffffffffffff\n      and\n      eq\n        /* \"contracts/Pool/PoolPig.sol\":7000:7076  require(_previousOwner == msg.sender, \"You don't have permission to unlock\") */\n      tag_294\n      jumpi\n      mload(0x40)\n      0x08c379a000000000000000000000000000000000000000000000000000000000\n      dup2\n      mstore\n      0x04\n      add\n      dup1\n      dup1\n      0x20\n      add\n      dup3\n      dup2\n      sub\n      dup3\n      mstore\n      0x23\n      dup2\n      mstore\n      0x20\n      add\n      dup1\n      data_f4eb59be3df39931213d374c3658377dca3f0d2b46b7bc965af767c57c74b611\n      0x23\n      swap2\n      codecopy\n      0x40\n      add\n      swap2\n      pop\n      pop\n      mload(0x40)\n      dup1\n      swap2\n      sub\n      swap1\n      revert\n    tag_294:\n        /* \"contracts/Pool/PoolPig.sol\":7100:7109  _lockTime */\n      sload(0x02)\n        /* \"contracts/Pool/PoolPig.sol\":7094:7097  now */\n      timestamp\n        /* \"contracts/Pool/PoolPig.sol\":7094:7109  now > _lockTime */\n      gt\n        /* \"contracts/Pool/PoolPig.sol\":7086:7146  require(now > _lockTime , \"Contract is locked until 7 days\") */\n      tag_295\n      jumpi\n      mload(0x40)\n      0x08c379a000000000000000000000000000000000000000000000000000000000\n      dup2\n      mstore\n      0x04\n      add\n      dup1\n      dup1\n      0x20\n      add\n      dup3\n      dup2\n      sub\n      dup3\n      mstore\n      0x1f\n      dup2\n      mstore\n      0x20\n      add\n      dup1\n      0x436f6e7472616374206973206c6f636b656420756e74696c2037206461797300\n      dup2\n      mstore\n      pop\n      0x20\n      add\n      swap2\n      pop\n      pop\n      mload(0x40)\n      dup1\n      swap2\n      sub\n      swap1\n      revert\n    tag_295:\n        /* \"contracts/Pool/PoolPig.sol\":7190:7204  _previousOwner */\n      0x01\n      0x00\n      swap1\n      sload\n      swap1\n      0x0100\n      exp\n      swap1\n      div\n      0xffffffffffffffffffffffffffffffffffffffff\n      and\n        /* \"contracts/Pool/PoolPig.sol\":7161:7205  OwnershipTransferred(_owner, _previousOwner) */\n      0xffffffffffffffffffffffffffffffffffffffff\n      and\n        /* \"contracts/Pool/PoolPig.sol\":7182:7188  _owner */\n      0x00\n      dup1\n      sload\n      swap1\n      0x0100\n      exp\n      swap1\n      div\n      0xffffffffffffffffffffffffffffffffffffffff\n      and\n        /* \"contracts/Pool/PoolPig.sol\":7161:7205  OwnershipTransferred(_owner, _previousOwner) */\n      0xffffffffffffffffffffffffffffffffffffffff\n      and\n      0x8be0079c531659141344cd1fd0a4f28419497f9722a3daafe3b4186f6b6457e0\n      mload(0x40)\n      mload(0x40)\n      dup1\n      swap2\n      sub\n      swap1\n      log3\n        /* \"contracts/Pool/PoolPig.sol\":7224:7238  _previousOwner */\n      0x01\n      0x00\n      swap1\n      sload\n      swap1\n      0x0100\n      exp\n      swap1\n      div\n      0xffffffffffffffffffffffffffffffffffffffff\n      and\n        /* \"contracts/Pool/PoolPig.sol\":7215:7221  _owner */\n      0x00\n      dup1\n        /* \"contracts/Pool/PoolPig.sol\":7215:7238  _owner = _previousOwner */\n      0x0100\n      exp\n      dup2\n      sload\n      dup2\n      0xffffffffffffffffffffffffffffffffffffffff\n      mul\n      not\n      and\n      swap1\n      dup4\n      0xffffffffffffffffffffffffffffffffffffffff\n      and\n      mul\n      or\n      swap1\n      sstore\n      pop\n        /* \"contracts/Pool/PoolPig.sol\":6957:7245  function unlock() public virtual {... */\n      jump\t// out\n        /* \"contracts/Pool/PoolPig.sol\":17971:18135  function transfer(address recipient, uint256 amount) public override returns (bool) {... */\n    tag_162:\n        /* \"contracts/Pool/PoolPig.sol\":18049:18053  bool */\n      0x00\n        /* \"contracts/Pool/PoolPig.sol\":18065:18107  _transfer(_msgSender(), recipient, amount) */\n      tag_297\n        /* \"contracts/Pool/PoolPig.sol\":18075:18087  _msgSender() */\n      tag_298\n        /* \"contracts/Pool/PoolPig.sol\":18075:18085  _msgSender */\n      tag_192\n        /* \"contracts/Pool/PoolPig.sol\":18075:18087  _msgSender() */\n      jump\t// in\n    tag_298:\n        /* \"contracts/Pool/PoolPig.sol\":18089:18098  recipient */\n      dup5\n        /* \"contracts/Pool/PoolPig.sol\":18100:18106  amount */\n      dup5\n        /* \"contracts/Pool/PoolPig.sol\":18065:18074  _transfer */\n      tag_207\n        /* \"contracts/Pool/PoolPig.sol\":18065:18107  _transfer(_msgSender(), recipient, amount) */\n      jump\t// in\n    tag_297:\n        /* \"contracts/Pool/PoolPig.sol\":18124:18128  true */\n      0x01\n        /* \"contracts/Pool/PoolPig.sol\":18117:18128  return true */\n      swap1\n      pop\n        /* \"contracts/Pool/PoolPig.sol\":17971:18135  function transfer(address recipient, uint256 amount) public override returns (bool) {... */\n      swap3\n      swap2\n      pop\n      pop\n      jump\t// out\n        /* \"contracts/Pool/PoolPig.sol\":6515:6602  function geUnlockTime() public view returns (uint256) {... */\n    tag_165:\n        /* \"contracts/Pool/PoolPig.sol\":6560:6567  uint256 */\n      0x00\n        /* \"contracts/Pool/PoolPig.sol\":6586:6595  _lockTime */\n      sload(0x02)\n        /* \"contracts/Pool/PoolPig.sol\":6579:6595  return _lockTime */\n      swap1\n      pop\n        /* \"contracts/Pool/PoolPig.sol\":6515:6602  function geUnlockTime() public view returns (uint256) {... */\n      swap1\n      jump\t// out\n        /* \"contracts/Pool/PoolPig.sol\":22744:22912  function setSwapAndLiquifyEnabled(bool _enabled) public onlyOwner {... */\n    tag_169:\n        /* \"contracts/Pool/PoolPig.sol\":6045:6057  _msgSender() */\n      tag_301\n        /* \"contracts/Pool/PoolPig.sol\":6045:6055  _msgSender */\n      tag_192\n        /* \"contracts/Pool/PoolPig.sol\":6045:6057  _msgSender() */\n      jump\t// in\n    tag_301:\n        /* \"contracts/Pool/PoolPig.sol\":6035:6057  _owner == _msgSender() */\n      0xffffffffffffffffffffffffffffffffffffffff\n      and\n        /* \"contracts/Pool/PoolPig.sol\":6035:6041  _owner */\n      0x00\n      dup1\n      sload\n      swap1\n      0x0100\n      exp\n      swap1\n      div\n      0xffffffffffffffffffffffffffffffffffffffff\n      and\n        /* \"contracts/Pool/PoolPig.sol\":6035:6057  _owner == _msgSender() */\n      0xffffffffffffffffffffffffffffffffffffffff\n      and\n      eq\n        /* \"contracts/Pool/PoolPig.sol\":6027:6094  require(_owner == _msgSender(), \"Ownable: caller is not the owner\") */\n      tag_302\n      jumpi\n      mload(0x40)\n      0x08c379a000000000000000000000000000000000000000000000000000000000\n      dup2\n      mstore\n      0x04\n      add\n      dup1\n      dup1\n      0x20\n      add\n      dup3\n      dup2\n      sub\n      dup3\n      mstore\n      0x20\n      dup2\n      mstore\n      0x20\n      add\n      dup1\n      0x4f776e61626c653a2063616c6c6572206973206e6f7420746865206f776e6572\n      dup2\n      mstore\n      pop\n      0x20\n      add\n      swap2\n      pop\n      pop\n      mload(0x40)\n      dup1\n      swap2\n      sub\n      swap1\n      revert\n    tag_302:\n        /* \"contracts/Pool/PoolPig.sol\":22844:22852  _enabled */\n      dup1\n        /* \"contracts/Pool/PoolPig.sol\":22820:22841  swapAndLiquifyEnabled */\n      0x12\n      0x01\n        /* \"contracts/Pool/PoolPig.sol\":22820:22852  swapAndLiquifyEnabled = _enabled */\n      0x0100\n      exp\n      dup2\n      sload\n      dup2\n      0xff\n      mul\n      not\n      and\n      swap1\n      dup4\n      iszero\n      iszero\n      mul\n      or\n      swap1\n      sstore\n      pop\n        /* \"contracts/Pool/PoolPig.sol\":22867:22905  SwapAndLiquifyEnabledUpdated(_enabled) */\n      0x53726dfcaf90650aa7eb35524f4d3220f07413c8d6cb404cc8c18bf5591bc159\n        /* \"contracts/Pool/PoolPig.sol\":22896:22904  _enabled */\n      dup2\n        /* \"contracts/Pool/PoolPig.sol\":22867:22905  SwapAndLiquifyEnabledUpdated(_enabled) */\n      mload(0x40)\n      dup1\n      dup3\n      iszero\n      iszero\n      dup2\n      mstore\n      0x20\n      add\n      swap2\n      pop\n      pop\n      mload(0x40)\n      dup1\n      swap2\n      sub\n      swap1\n      log1\n        /* \"contracts/Pool/PoolPig.sol\":22744:22912  function setSwapAndLiquifyEnabled(bool _enabled) public onlyOwner {... */\n      pop\n      jump\t// out\n        /* \"contracts/Pool/PoolPig.sol\":22580:22738  function setMaxTxPercent(uint256 maxTxPercent) external onlyOwner() {... */\n    tag_173:\n        /* \"contracts/Pool/PoolPig.sol\":6045:6057  _msgSender() */\n      tag_305\n        /* \"contracts/Pool/PoolPig.sol\":6045:6055  _msgSender */\n      tag_192\n        /* \"contracts/Pool/PoolPig.sol\":6045:6057  _msgSender() */\n      jump\t// in\n    tag_305:\n        /* \"contracts/Pool/PoolPig.sol\":6035:6057  _owner == _msgSender() */\n      0xffffffffffffffffffffffffffffffffffffffff\n      and\n        /* \"contracts/Pool/PoolPig.sol\":6035:6041  _owner */\n      0x00\n      dup1\n      sload\n      swap1\n      0x0100\n      exp\n      swap1\n      div\n      0xffffffffffffffffffffffffffffffffffffffff\n      and\n        /* \"contracts/Pool/PoolPig.sol\":6035:6057  _owner == _msgSender() */\n      0xffffffffffffffffffffffffffffffffffffffff\n      and\n      eq\n        /* \"contracts/Pool/PoolPig.sol\":6027:6094  require(_owner == _msgSender(), \"Ownable: caller is not the owner\") */\n      tag_306\n      jumpi\n      mload(0x40)\n      0x08c379a000000000000000000000000000000000000000000000000000000000\n      dup2\n      mstore\n      0x04\n      add\n      dup1\n      dup1\n      0x20\n      add\n      dup3\n      dup2\n      sub\n      dup3\n      mstore\n      0x20\n      dup2\n      mstore\n      0x20\n      add\n      dup1\n      0x4f776e61626c653a2063616c6c6572206973206e6f7420746865206f776e6572\n      dup2\n      mstore\n      pop\n      0x20\n      add\n      swap2\n      pop\n      pop\n      mload(0x40)\n      dup1\n      swap2\n      sub\n      swap1\n      revert\n    tag_306:\n        /* \"contracts/Pool/PoolPig.sol\":22673:22731  _tTotal.mul(maxTxPercent).div(... */\n      tag_308\n        /* \"contracts/Pool/PoolPig.sol\":22716:22721  10**2 */\n      0x64\n        /* \"contracts/Pool/PoolPig.sol\":22673:22698  _tTotal.mul(maxTxPercent) */\n      tag_309\n        /* \"contracts/Pool/PoolPig.sol\":22685:22697  maxTxPercent */\n      dup4\n        /* \"contracts/Pool/PoolPig.sol\":15652:15670  1000000000 * 10**9 */\n      0x0de0b6b3a7640000\n        /* \"contracts/Pool/PoolPig.sol\":22673:22684  _tTotal.mul */\n      tag_310\n      swap1\n        /* \"contracts/Pool/PoolPig.sol\":22673:22698  _tTotal.mul(maxTxPercent) */\n      swap2\n      swap1\n      0xffffffff\n      and\n      jump\t// in\n    tag_309:\n        /* \"contracts/Pool/PoolPig.sol\":22673:22702  _tTotal.mul(maxTxPercent).div */\n      tag_218\n      swap1\n        /* \"contracts/Pool/PoolPig.sol\":22673:22731  _tTotal.mul(maxTxPercent).div(... */\n      swap2\n      swap1\n      0xffffffff\n      and\n      jump\t// in\n    tag_308:\n        /* \"contracts/Pool/PoolPig.sol\":22658:22670  _maxTxAmount */\n      0x13\n        /* \"contracts/Pool/PoolPig.sol\":22658:22731  _maxTxAmount = _tTotal.mul(maxTxPercent).div(... */\n      dup2\n      swap1\n      sstore\n      pop\n        /* \"contracts/Pool/PoolPig.sol\":22580:22738  function setMaxTxPercent(uint256 maxTxPercent) external onlyOwner() {... */\n      pop\n      jump\t// out\n        /* \"contracts/Pool/PoolPig.sol\":6675:6884  function lock(uint256 time) public virtual onlyOwner {... */\n    tag_177:\n        /* \"contracts/Pool/PoolPig.sol\":6045:6057  _msgSender() */\n      tag_312\n        /* \"contracts/Pool/PoolPig.sol\":6045:6055  _msgSender */\n      tag_192\n        /* \"contracts/Pool/PoolPig.sol\":6045:6057  _msgSender() */\n      jump\t// in\n    tag_312:\n        /* \"contracts/Pool/PoolPig.sol\":6035:6057  _owner == _msgSender() */\n      0xffffffffffffffffffffffffffffffffffffffff\n      and\n        /* \"contracts/Pool/PoolPig.sol\":6035:6041  _owner */\n      0x00\n      dup1\n      sload\n      swap1\n      0x0100\n      exp\n      swap1\n      div\n      0xffffffffffffffffffffffffffffffffffffffff\n      and\n        /* \"contracts/Pool/PoolPig.sol\":6035:6057  _owner == _msgSender() */\n      0xffffffffffffffffffffffffffffffffffffffff\n      and\n      eq\n        /* \"contracts/Pool/PoolPig.sol\":6027:6094  require(_owner == _msgSender(), \"Ownable: caller is not the owner\") */\n      tag_313\n      jumpi\n      mload(0x40)\n      0x08c379a000000000000000000000000000000000000000000000000000000000\n      dup2\n      mstore\n      0x04\n      add\n      dup1\n      dup1\n      0x20\n      add\n      dup3\n      dup2\n      sub\n      dup3\n      mstore\n      0x20\n      dup2\n      mstore\n      0x20\n      add\n      dup1\n      0x4f776e61626c653a2063616c6c6572206973206e6f7420746865206f776e6572\n      dup2\n      mstore\n      pop\n      0x20\n      add\n      swap2\n      pop\n      pop\n      mload(0x40)\n      dup1\n      swap2\n      sub\n      swap1\n      revert\n    tag_313:\n        /* \"contracts/Pool/PoolPig.sol\":6755:6761  _owner */\n      0x00\n      dup1\n      sload\n      swap1\n      0x0100\n      exp\n      swap1\n      div\n      0xffffffffffffffffffffffffffffffffffffffff\n      and\n        /* \"contracts/Pool/PoolPig.sol\":6738:6752  _previousOwner */\n      0x01\n      0x00\n        /* \"contracts/Pool/PoolPig.sol\":6738:6761  _previousOwner = _owner */\n      0x0100\n      exp\n      dup2\n      sload\n      dup2\n      0xffffffffffffffffffffffffffffffffffffffff\n      mul\n      not\n      and\n      swap1\n      dup4\n      0xffffffffffffffffffffffffffffffffffffffff\n      and\n      mul\n      or\n      swap1\n      sstore\n      pop\n        /* \"contracts/Pool/PoolPig.sol\":6788:6789  0 */\n      0x00\n        /* \"contracts/Pool/PoolPig.sol\":6771:6777  _owner */\n      dup1\n      0x00\n        /* \"contracts/Pool/PoolPig.sol\":6771:6790  _owner = address(0) */\n      0x0100\n      exp\n      dup2\n      sload\n      dup2\n      0xffffffffffffffffffffffffffffffffffffffff\n      mul\n      not\n      and\n      swap1\n      dup4\n      0xffffffffffffffffffffffffffffffffffffffff\n      and\n      mul\n      or\n      swap1\n      sstore\n      pop\n        /* \"contracts/Pool/PoolPig.sol\":6818:6822  time */\n      dup1\n        /* \"contracts/Pool/PoolPig.sol\":6812:6815  now */\n      timestamp\n        /* \"contracts/Pool/PoolPig.sol\":6812:6822  now + time */\n      add\n        /* \"contracts/Pool/PoolPig.sol\":6800:6809  _lockTime */\n      0x02\n        /* \"contracts/Pool/PoolPig.sol\":6800:6822  _lockTime = now + time */\n      dup2\n      swap1\n      sstore\n      pop\n        /* \"contracts/Pool/PoolPig.sol\":6874:6875  0 */\n      0x00\n        /* \"contracts/Pool/PoolPig.sol\":6837:6877  OwnershipTransferred(_owner, address(0)) */\n      0xffffffffffffffffffffffffffffffffffffffff\n      and\n        /* \"contracts/Pool/PoolPig.sol\":6858:6864  _owner */\n      0x00\n      dup1\n      sload\n      swap1\n      0x0100\n      exp\n      swap1\n      div\n      0xffffffffffffffffffffffffffffffffffffffff\n      and\n        /* \"contracts/Pool/PoolPig.sol\":6837:6877  OwnershipTransferred(_owner, address(0)) */\n      0xffffffffffffffffffffffffffffffffffffffff\n      and\n      0x8be0079c531659141344cd1fd0a4f28419497f9722a3daafe3b4186f6b6457e0\n      mload(0x40)\n      mload(0x40)\n      dup1\n      swap2\n      sub\n      swap1\n      log3\n        /* \"contracts/Pool/PoolPig.sol\":6675:6884  function lock(uint256 time) public virtual onlyOwner {... */\n      pop\n      jump\t// out\n        /* \"contracts/Pool/PoolPig.sol\":18141:18282  function allowance(address owner, address spender) public view override returns (uint256) {... */\n    tag_181:\n        /* \"contracts/Pool/PoolPig.sol\":18222:18229  uint256 */\n      0x00\n        /* \"contracts/Pool/PoolPig.sol\":18248:18259  _allowances */\n      0x05\n        /* \"contracts/Pool/PoolPig.sol\":18248:18266  _allowances[owner] */\n      0x00\n        /* \"contracts/Pool/PoolPig.sol\":18260:18265  owner */\n      dup5\n        /* \"contracts/Pool/PoolPig.sol\":18248:18266  _allowances[owner] */\n      0xffffffffffffffffffffffffffffffffffffffff\n      and\n      0xffffffffffffffffffffffffffffffffffffffff\n      and\n      dup2\n      mstore\n      0x20\n      add\n      swap1\n      dup2\n      mstore\n      0x20\n      add\n      0x00\n      keccak256\n        /* \"contracts/Pool/PoolPig.sol\":18248:18275  _allowances[owner][spender] */\n      0x00\n        /* \"contracts/Pool/PoolPig.sol\":18267:18274  spender */\n      dup4\n        /* \"contracts/Pool/PoolPig.sol\":18248:18275  _allowances[owner][spender] */\n      0xffffffffffffffffffffffffffffffffffffffff\n      and\n      0xffffffffffffffffffffffffffffffffffffffff\n      and\n      dup2\n      mstore\n      0x20\n      add\n      swap1\n      dup2\n      mstore\n      0x20\n      add\n      0x00\n      keccak256\n      sload\n        /* \"contracts/Pool/PoolPig.sol\":18241:18275  return _allowances[owner][spender] */\n      swap1\n      pop\n        /* \"contracts/Pool/PoolPig.sol\":18141:18282  function allowance(address owner, address spender) public view override returns (uint256) {... */\n      swap3\n      swap2\n      pop\n      pop\n      jump\t// out\n        /* \"contracts/Pool/PoolPig.sol\":22227:22335  function includeInFee(address account) public onlyOwner {... */\n    tag_185:\n        /* \"contracts/Pool/PoolPig.sol\":6045:6057  _msgSender() */\n      tag_317\n        /* \"contracts/Pool/PoolPig.sol\":6045:6055  _msgSender */\n      tag_192\n        /* \"contracts/Pool/PoolPig.sol\":6045:6057  _msgSender() */\n      jump\t// in\n    tag_317:\n        /* \"contracts/Pool/PoolPig.sol\":6035:6057  _owner == _msgSender() */\n      0xffffffffffffffffffffffffffffffffffffffff\n      and\n        /* \"contracts/Pool/PoolPig.sol\":6035:6041  _owner */\n      0x00\n      dup1\n      sload\n      swap1\n      0x0100\n      exp\n      swap1\n      div\n      0xffffffffffffffffffffffffffffffffffffffff\n      and\n        /* \"contracts/Pool/PoolPig.sol\":6035:6057  _owner == _msgSender() */\n      0xffffffffffffffffffffffffffffffffffffffff\n      and\n      eq\n        /* \"contracts/Pool/PoolPig.sol\":6027:6094  require(_owner == _msgSender(), \"Ownable: caller is not the owner\") */\n      tag_318\n      jumpi\n      mload(0x40)\n      0x08c379a000000000000000000000000000000000000000000000000000000000\n      dup2\n      mstore\n      0x04\n      add\n      dup1\n      dup1\n      0x20\n      add\n      dup3\n      dup2\n      sub\n      dup3\n      mstore\n      0x20\n      dup2\n      mstore\n      0x20\n      add\n      dup1\n      0x4f776e61626c653a2063616c6c6572206973206e6f7420746865206f776e6572\n      dup2\n      mstore\n      pop\n      0x20\n      add\n      swap2\n      pop\n      pop\n      mload(0x40)\n      dup1\n      swap2\n      sub\n      swap1\n      revert\n    tag_318:\n        /* \"contracts/Pool/PoolPig.sol\":22323:22328  false */\n      0x00\n        /* \"contracts/Pool/PoolPig.sol\":22293:22311  _isExcludedFromFee */\n      0x06\n        /* \"contracts/Pool/PoolPig.sol\":22293:22320  _isExcludedFromFee[account] */\n      0x00\n        /* \"contracts/Pool/PoolPig.sol\":22312:22319  account */\n      dup4\n        /* \"contracts/Pool/PoolPig.sol\":22293:22320  _isExcludedFromFee[account] */\n      0xffffffffffffffffffffffffffffffffffffffff\n      and\n      0xffffffffffffffffffffffffffffffffffffffff\n      and\n      dup2\n      mstore\n      0x20\n      add\n      swap1\n      dup2\n      mstore\n      0x20\n      add\n      0x00\n      keccak256\n      0x00\n        /* \"contracts/Pool/PoolPig.sol\":22293:22328  _isExcludedFromFee[account] = false */\n      0x0100\n      exp\n      dup2\n      sload\n      dup2\n      0xff\n      mul\n      not\n      and\n      swap1\n      dup4\n      iszero\n      iszero\n      mul\n      or\n      swap1\n      sstore\n      pop\n        /* \"contracts/Pool/PoolPig.sol\":22227:22335  function includeInFee(address account) public onlyOwner {... */\n      pop\n      jump\t// out\n        /* \"contracts/Pool/PoolPig.sol\":6269:6509  function transferOwnership(address newOwner) public virtual onlyOwner {... */\n    tag_189:\n        /* \"contracts/Pool/PoolPig.sol\":6045:6057  _msgSender() */\n      tag_321\n        /* \"contracts/Pool/PoolPig.sol\":6045:6055  _msgSender */\n      tag_192\n        /* \"contracts/Pool/PoolPig.sol\":6045:6057  _msgSender() */\n      jump\t// in\n    tag_321:\n        /* \"contracts/Pool/PoolPig.sol\":6035:6057  _owner == _msgSender() */\n      0xffffffffffffffffffffffffffffffffffffffff\n      and\n        /* \"contracts/Pool/PoolPig.sol\":6035:6041  _owner */\n      0x00\n      dup1\n      sload\n      swap1\n      0x0100\n      exp\n      swap1\n      div\n      0xffffffffffffffffffffffffffffffffffffffff\n      and\n        /* \"contracts/Pool/PoolPig.sol\":6035:6057  _owner == _msgSender() */\n      0xffffffffffffffffffffffffffffffffffffffff\n      and\n      eq\n        /* \"contracts/Pool/PoolPig.sol\":6027:6094  require(_owner == _msgSender(), \"Ownable: caller is not the owner\") */\n      tag_322\n      jumpi\n      mload(0x40)\n      0x08c379a000000000000000000000000000000000000000000000000000000000\n      dup2\n      mstore\n      0x04\n      add\n      dup1\n      dup1\n      0x20\n      add\n      dup3\n      dup2\n      sub\n      dup3\n      mstore\n      0x20\n      dup2\n      mstore\n      0x20\n      add\n      dup1\n      0x4f776e61626c653a2063616c6c6572206973206e6f7420746865206f776e6572\n      dup2\n      mstore\n      pop\n      0x20\n      add\n      swap2\n      pop\n      pop\n      mload(0x40)\n      dup1\n      swap2\n      sub\n      swap1\n      revert\n    tag_322:\n        /* \"contracts/Pool/PoolPig.sol\":6377:6378  0 */\n      0x00\n        /* \"contracts/Pool/PoolPig.sol\":6357:6379  newOwner != address(0) */\n      0xffffffffffffffffffffffffffffffffffffffff\n      and\n        /* \"contracts/Pool/PoolPig.sol\":6357:6365  newOwner */\n      dup2\n        /* \"contracts/Pool/PoolPig.sol\":6357:6379  newOwner != address(0) */\n      0xffffffffffffffffffffffffffffffffffffffff\n      and\n      eq\n      iszero\n        /* \"contracts/Pool/PoolPig.sol\":6349:6422  require(newOwner != address(0), \"Ownable: new owner is the zero address\") */\n      tag_324\n      jumpi\n      mload(0x40)\n      0x08c379a000000000000000000000000000000000000000000000000000000000\n      dup2\n      mstore\n      0x04\n      add\n      dup1\n      dup1\n      0x20\n      add\n      dup3\n      dup2\n      sub\n      dup3\n      mstore\n      0x26\n      dup2\n      mstore\n      0x20\n      add\n      dup1\n      data_245f15ff17f551913a7a18385165551503906a406f905ac1c2437281a7cd0cfe\n      0x26\n      swap2\n      codecopy\n      0x40\n      add\n      swap2\n      pop\n      pop\n      mload(0x40)\n      dup1\n      swap2\n      sub\n      swap1\n      revert\n    tag_324:\n        /* \"contracts/Pool/PoolPig.sol\":6466:6474  newOwner */\n      dup1\n        /* \"contracts/Pool/PoolPig.sol\":6437:6475  OwnershipTransferred(_owner, newOwner) */\n      0xffffffffffffffffffffffffffffffffffffffff\n      and\n        /* \"contracts/Pool/PoolPig.sol\":6458:6464  _owner */\n      0x00\n      dup1\n      sload\n      swap1\n      0x0100\n      exp\n      swap1\n      div\n      0xffffffffffffffffffffffffffffffffffffffff\n      and\n        /* \"contracts/Pool/PoolPig.sol\":6437:6475  OwnershipTransferred(_owner, newOwner) */\n      0xffffffffffffffffffffffffffffffffffffffff\n      and\n      0x8be0079c531659141344cd1fd0a4f28419497f9722a3daafe3b4186f6b6457e0\n      mload(0x40)\n      mload(0x40)\n      dup1\n      swap2\n      sub\n      swap1\n      log3\n        /* \"contracts/Pool/PoolPig.sol\":6494:6502  newOwner */\n      dup1\n        /* \"contracts/Pool/PoolPig.sol\":6485:6491  _owner */\n      0x00\n      dup1\n        /* \"contracts/Pool/PoolPig.sol\":6485:6502  _owner = newOwner */\n      0x0100\n      exp\n      dup2\n      sload\n      dup2\n      0xffffffffffffffffffffffffffffffffffffffff\n      mul\n      not\n      and\n      swap1\n      dup4\n      0xffffffffffffffffffffffffffffffffffffffff\n      and\n      mul\n      or\n      swap1\n      sstore\n      pop\n        /* \"contracts/Pool/PoolPig.sol\":6269:6509  function transferOwnership(address newOwner) public virtual onlyOwner {... */\n      pop\n      jump\t// out\n        /* \"contracts/Pool/PoolPig.sol\":2255:2359  function _msgSender() internal view virtual returns (address payable) {... */\n    tag_192:\n        /* \"contracts/Pool/PoolPig.sol\":2308:2323  address payable */\n      0x00\n        /* \"contracts/Pool/PoolPig.sol\":2342:2352  msg.sender */\n      caller\n        /* \"contracts/Pool/PoolPig.sol\":2335:2352  return msg.sender */\n      swap1\n      pop\n        /* \"contracts/Pool/PoolPig.sol\":2255:2359  function _msgSender() internal view virtual returns (address payable) {... */\n      swap1\n      jump\t// out\n        /* \"contracts/Pool/PoolPig.sol\":26269:26600  function _approve(address owner, address spender, uint256 amount) private {... */\n    tag_202:\n        /* \"contracts/Pool/PoolPig.sol\":26378:26379  0 */\n      0x00\n        /* \"contracts/Pool/PoolPig.sol\":26361:26380  owner != address(0) */\n      0xffffffffffffffffffffffffffffffffffffffff\n      and\n        /* \"contracts/Pool/PoolPig.sol\":26361:26366  owner */\n      dup4\n        /* \"contracts/Pool/PoolPig.sol\":26361:26380  owner != address(0) */\n      0xffffffffffffffffffffffffffffffffffffffff\n      and\n      eq\n      iszero\n        /* \"contracts/Pool/PoolPig.sol\":26353:26421  require(owner != address(0), \"ERC20: approve from the zero address\") */\n      tag_327\n      jumpi\n      mload(0x40)\n      0x08c379a000000000000000000000000000000000000000000000000000000000\n      dup2\n      mstore\n      0x04\n      add\n      dup1\n      dup1\n      0x20\n      add\n      dup3\n      dup2\n      sub\n      dup3\n      mstore\n      0x24\n      dup2\n      mstore\n      0x20\n      add\n      dup1\n      data_c953f4879035ed60e766b34720f656aab5c697b141d924c283124ecedb91c208\n      0x24\n      swap2\n      codecopy\n      0x40\n      add\n      swap2\n      pop\n      pop\n      mload(0x40)\n      dup1\n      swap2\n      sub\n      swap1\n      revert\n    tag_327:\n        /* \"contracts/Pool/PoolPig.sol\":26458:26459  0 */\n      0x00\n        /* \"contracts/Pool/PoolPig.sol\":26439:26460  spender != address(0) */\n      0xffffffffffffffffffffffffffffffffffffffff\n      and\n        /* \"contracts/Pool/PoolPig.sol\":26439:26446  spender */\n      dup3\n        /* \"contracts/Pool/PoolPig.sol\":26439:26460  spender != address(0) */\n      0xffffffffffffffffffffffffffffffffffffffff\n      and\n      eq\n      iszero\n        /* \"contracts/Pool/PoolPig.sol\":26431:26499  require(spender != address(0), \"ERC20: approve to the zero address\") */\n      tag_328\n      jumpi\n      mload(0x40)\n      0x08c379a000000000000000000000000000000000000000000000000000000000\n      dup2\n      mstore\n      0x04\n      add\n      dup1\n      dup1\n      0x20\n      add\n      dup3\n      dup2\n      sub\n      dup3\n      mstore\n      0x22\n      dup2\n      mstore\n      0x20\n      add\n      dup1\n      data_24883cc5fe64ace9d0df1893501ecb93c77180f0ff69cca79affb3c316dc8029\n      0x22\n      swap2\n      codecopy\n      0x40\n      add\n      swap2\n      pop\n      pop\n      mload(0x40)\n      dup1\n      swap2\n      sub\n      swap1\n      revert\n    tag_328:\n        /* \"contracts/Pool/PoolPig.sol\":26540:26546  amount */\n      dup1\n        /* \"contracts/Pool/PoolPig.sol\":26510:26521  _allowances */\n      0x05\n        /* \"contracts/Pool/PoolPig.sol\":26510:26528  _allowances[owner] */\n      0x00\n        /* \"contracts/Pool/PoolPig.sol\":26522:26527  owner */\n      dup6\n        /* \"contracts/Pool/PoolPig.sol\":26510:26528  _allowances[owner] */\n      0xffffffffffffffffffffffffffffffffffffffff\n      and\n      0xffffffffffffffffffffffffffffffffffffffff\n      and\n      dup2\n      mstore\n      0x20\n      add\n      swap1\n      dup2\n      mstore\n      0x20\n      add\n      0x00\n      keccak256\n        /* \"contracts/Pool/PoolPig.sol\":26510:26537  _allowances[owner][spender] */\n      0x00\n        /* \"contracts/Pool/PoolPig.sol\":26529:26536  spender */\n      dup5\n        /* \"contracts/Pool/PoolPig.sol\":26510:26537  _allowances[owner][spender] */\n      0xffffffffffffffffffffffffffffffffffffffff\n      and\n      0xffffffffffffffffffffffffffffffffffffffff\n      and\n      dup2\n      mstore\n      0x20\n      add\n      swap1\n      dup2\n      mstore\n      0x20\n      add\n      0x00\n      keccak256\n        /* \"contracts/Pool/PoolPig.sol\":26510:26546  _allowances[owner][spender] = amount */\n      dup2\n      swap1\n      sstore\n      pop\n        /* \"contracts/Pool/PoolPig.sol\":26577:26584  spender */\n      dup2\n        /* \"contracts/Pool/PoolPig.sol\":26561:26593  Approval(owner, spender, amount) */\n      0xffffffffffffffffffffffffffffffffffffffff\n      and\n        /* \"contracts/Pool/PoolPig.sol\":26570:26575  owner */\n      dup4\n        /* \"contracts/Pool/PoolPig.sol\":26561:26593  Approval(owner, spender, amount) */\n      0xffffffffffffffffffffffffffffffffffffffff\n      and\n      0x8c5be1e5ebec7d5bd14f71427d1e84f3dd0314c0f7b2291e5b200ac8c7c3b925\n        /* \"contracts/Pool/PoolPig.sol\":26586:26592  amount */\n      dup4\n        /* \"contracts/Pool/PoolPig.sol\":26561:26593  Approval(owner, spender, amount) */\n      mload(0x40)\n      dup1\n      dup3\n      dup2\n      mstore\n      0x20\n      add\n      swap2\n      pop\n      pop\n      mload(0x40)\n      dup1\n      swap2\n      sub\n      swap1\n      log3\n        /* \"contracts/Pool/PoolPig.sol\":26269:26600  function _approve(address owner, address spender, uint256 amount) private {... */\n      pop\n      pop\n      pop\n      jump\t// out\n        /* \"contracts/Pool/PoolPig.sol\":26606:28097  function _transfer(... */\n    tag_207:\n        /* \"contracts/Pool/PoolPig.sol\":26739:26740  0 */\n      0x00\n        /* \"contracts/Pool/PoolPig.sol\":26723:26741  from != address(0) */\n      0xffffffffffffffffffffffffffffffffffffffff\n      and\n        /* \"contracts/Pool/PoolPig.sol\":26723:26727  from */\n      dup4\n        /* \"contracts/Pool/PoolPig.sol\":26723:26741  from != address(0) */\n      0xffffffffffffffffffffffffffffffffffffffff\n      and\n      eq\n      iszero\n        /* \"contracts/Pool/PoolPig.sol\":26715:26783  require(from != address(0), \"ERC20: transfer from the zero address\") */\n      tag_330\n      jumpi\n      mload(0x40)\n      0x08c379a000000000000000000000000000000000000000000000000000000000\n      dup2\n      mstore\n      0x04\n      add\n      dup1\n      dup1\n      0x20\n      add\n      dup3\n      dup2\n      sub\n      dup3\n      mstore\n      0x25\n      dup2\n      mstore\n      0x20\n      add\n      dup1\n      data_baecc556b46f4ed0f2b4cb599d60785ac8563dd2dc0a5bf12edea1c39e5e1fea\n      0x25\n      swap2\n      codecopy\n      0x40\n      add\n      swap2\n      pop\n      pop\n      mload(0x40)\n      dup1\n      swap2\n      sub\n      swap1\n      revert\n    tag_330:\n        /* \"contracts/Pool/PoolPig.sol\":26815:26816  0 */\n      0x00\n        /* \"contracts/Pool/PoolPig.sol\":26801:26817  to != address(0) */\n      0xffffffffffffffffffffffffffffffffffffffff\n      and\n        /* \"contracts/Pool/PoolPig.sol\":26801:26803  to */\n      dup3\n        /* \"contracts/Pool/PoolPig.sol\":26801:26817  to != address(0) */\n      0xffffffffffffffffffffffffffffffffffffffff\n      and\n      eq\n      iszero\n        /* \"contracts/Pool/PoolPig.sol\":26793:26857  require(to != address(0), \"ERC20: transfer to the zero address\") */\n      tag_331\n      jumpi\n      mload(0x40)\n      0x08c379a000000000000000000000000000000000000000000000000000000000\n      dup2\n      mstore\n      0x04\n      add\n      dup1\n      dup1\n      0x20\n      add\n      dup3\n      dup2\n      sub\n      dup3\n      mstore\n      0x23\n      dup2\n      mstore\n      0x20\n      add\n      dup1\n      data_0557e210f7a69a685100a7e4e3d0a7024c546085cee28910fd17d0b081d9516f\n      0x23\n      swap2\n      codecopy\n      0x40\n      add\n      swap2\n      pop\n      pop\n      mload(0x40)\n      dup1\n      swap2\n      sub\n      swap1\n      revert\n    tag_331:\n        /* \"contracts/Pool/PoolPig.sol\":26884:26885  0 */\n      0x00\n        /* \"contracts/Pool/PoolPig.sol\":26875:26881  amount */\n      dup2\n        /* \"contracts/Pool/PoolPig.sol\":26875:26885  amount > 0 */\n      gt\n        /* \"contracts/Pool/PoolPig.sol\":26867:26931  require(amount > 0, \"Transfer amount must be greater than zero\") */\n      tag_332\n      jumpi\n      mload(0x40)\n      0x08c379a000000000000000000000000000000000000000000000000000000000\n      dup2\n      mstore\n      0x04\n      add\n      dup1\n      dup1\n      0x20\n      add\n      dup3\n      dup2\n      sub\n      dup3\n      mstore\n      0x29\n      dup2\n      mstore\n      0x20\n      add\n      dup1\n      data_9edb5ab58321f35d2386ea65721c9b107daa2c273610fc16d394af2a320ba785\n      0x29\n      swap2\n      codecopy\n      0x40\n      add\n      swap2\n      pop\n      pop\n      mload(0x40)\n      dup1\n      swap2\n      sub\n      swap1\n      revert\n    tag_332:\n        /* \"contracts/Pool/PoolPig.sol\":26952:26959  owner() */\n      tag_333\n        /* \"contracts/Pool/PoolPig.sol\":26952:26957  owner */\n      tag_140\n        /* \"contracts/Pool/PoolPig.sol\":26952:26959  owner() */\n      jump\t// in\n    tag_333:\n        /* \"contracts/Pool/PoolPig.sol\":26944:26959  from != owner() */\n      0xffffffffffffffffffffffffffffffffffffffff\n      and\n        /* \"contracts/Pool/PoolPig.sol\":26944:26948  from */\n      dup4\n        /* \"contracts/Pool/PoolPig.sol\":26944:26959  from != owner() */\n      0xffffffffffffffffffffffffffffffffffffffff\n      and\n      eq\n      iszero\n        /* \"contracts/Pool/PoolPig.sol\":26944:26976  from != owner() && to != owner() */\n      dup1\n      iszero\n      tag_334\n      jumpi\n      pop\n        /* \"contracts/Pool/PoolPig.sol\":26969:26976  owner() */\n      tag_335\n        /* \"contracts/Pool/PoolPig.sol\":26969:26974  owner */\n      tag_140\n        /* \"contracts/Pool/PoolPig.sol\":26969:26976  owner() */\n      jump\t// in\n    tag_335:\n        /* \"contracts/Pool/PoolPig.sol\":26963:26976  to != owner() */\n      0xffffffffffffffffffffffffffffffffffffffff\n      and\n        /* \"contracts/Pool/PoolPig.sol\":26963:26965  to */\n      dup3\n        /* \"contracts/Pool/PoolPig.sol\":26963:26976  to != owner() */\n      0xffffffffffffffffffffffffffffffffffffffff\n      and\n      eq\n      iszero\n        /* \"contracts/Pool/PoolPig.sol\":26944:26976  from != owner() && to != owner() */\n    tag_334:\n        /* \"contracts/Pool/PoolPig.sol\":26941:27065  if(from != owner() && to != owner())... */\n      iszero\n      tag_336\n      jumpi\n        /* \"contracts/Pool/PoolPig.sol\":27008:27020  _maxTxAmount */\n      sload(0x13)\n        /* \"contracts/Pool/PoolPig.sol\":26998:27004  amount */\n      dup2\n        /* \"contracts/Pool/PoolPig.sol\":26998:27020  amount <= _maxTxAmount */\n      gt\n      iszero\n        /* \"contracts/Pool/PoolPig.sol\":26990:27065  require(amount <= _maxTxAmount, \"Transfer amount exceeds the maxTxAmount.\") */\n      tag_337\n      jumpi\n      mload(0x40)\n      0x08c379a000000000000000000000000000000000000000000000000000000000\n      dup2\n      mstore\n      0x04\n      add\n      dup1\n      dup1\n      0x20\n      add\n      dup3\n      dup2\n      sub\n      dup3\n      mstore\n      0x28\n      dup2\n      mstore\n      0x20\n      add\n      dup1\n      data_72052210969ce5fd88e52b5e685de9548acef9bb1b6d02e29c1765d0674948dd\n      0x28\n      swap2\n      codecopy\n      0x40\n      add\n      swap2\n      pop\n      pop\n      mload(0x40)\n      dup1\n      swap2\n      sub\n      swap1\n      revert\n    tag_337:\n        /* \"contracts/Pool/PoolPig.sol\":26941:27065  if(from != owner() && to != owner())... */\n    tag_336:\n        /* \"contracts/Pool/PoolPig.sol\":27076:27104  uint256 contractTokenBalance */\n      0x00\n        /* \"contracts/Pool/PoolPig.sol\":27107:27131  balanceOf(address(this)) */\n      tag_338\n        /* \"contracts/Pool/PoolPig.sol\":27125:27129  this */\n      address\n        /* \"contracts/Pool/PoolPig.sol\":27107:27116  balanceOf */\n      tag_127\n        /* \"contracts/Pool/PoolPig.sol\":27107:27131  balanceOf(address(this)) */\n      jump\t// in\n    tag_338:\n        /* \"contracts/Pool/PoolPig.sol\":27076:27131  uint256 contractTokenBalance = balanceOf(address(this)) */\n      swap1\n      pop\n        /* \"contracts/Pool/PoolPig.sol\":27177:27189  _maxTxAmount */\n      sload(0x13)\n        /* \"contracts/Pool/PoolPig.sol\":27153:27173  contractTokenBalance */\n      dup2\n        /* \"contracts/Pool/PoolPig.sol\":27153:27189  contractTokenBalance >= _maxTxAmount */\n      lt\n        /* \"contracts/Pool/PoolPig.sol\":27150:27259  if(contractTokenBalance >= _maxTxAmount)... */\n      tag_339\n      jumpi\n        /* \"contracts/Pool/PoolPig.sol\":27236:27248  _maxTxAmount */\n      sload(0x13)\n        /* \"contracts/Pool/PoolPig.sol\":27213:27248  contractTokenBalance = _maxTxAmount */\n      swap1\n      pop\n        /* \"contracts/Pool/PoolPig.sol\":27150:27259  if(contractTokenBalance >= _maxTxAmount)... */\n    tag_339:\n        /* \"contracts/Pool/PoolPig.sol\":27277:27301  bool overMinTokenBalance */\n      0x00\n        /* \"contracts/Pool/PoolPig.sol\":27328:27357  numTokensSellToAddToLiquidity */\n      sload(0x14)\n        /* \"contracts/Pool/PoolPig.sol\":27304:27324  contractTokenBalance */\n      dup3\n        /* \"contracts/Pool/PoolPig.sol\":27304:27357  contractTokenBalance >= numTokensSellToAddToLiquidity */\n      lt\n      iszero\n        /* \"contracts/Pool/PoolPig.sol\":27277:27357  bool overMinTokenBalance = contractTokenBalance >= numTokensSellToAddToLiquidity */\n      swap1\n      pop\n        /* \"contracts/Pool/PoolPig.sol\":27384:27403  overMinTokenBalance */\n      dup1\n        /* \"contracts/Pool/PoolPig.sol\":27384:27436  overMinTokenBalance &&... */\n      dup1\n      iszero\n      tag_340\n      jumpi\n      pop\n        /* \"contracts/Pool/PoolPig.sol\":27420:27436  inSwapAndLiquify */\n      0x12\n      0x00\n      swap1\n      sload\n      swap1\n      0x0100\n      exp\n      swap1\n      div\n      0xff\n      and\n        /* \"contracts/Pool/PoolPig.sol\":27419:27436  !inSwapAndLiquify */\n      iszero\n        /* \"contracts/Pool/PoolPig.sol\":27384:27436  overMinTokenBalance &&... */\n    tag_340:\n        /* \"contracts/Pool/PoolPig.sol\":27384:27473  overMinTokenBalance &&... */\n      dup1\n      iszero\n      tag_341\n      jumpi\n      pop\n        /* \"contracts/Pool/PoolPig.sol\":27460:27473  uniswapV2Pair */\n      immutable(\"0x924caa65d1644bcda3c737cb4f972c9170b1e3eb26b1eeba5090c589a3beb7a4\")\n        /* \"contracts/Pool/PoolPig.sol\":27452:27473  from != uniswapV2Pair */\n      0xffffffffffffffffffffffffffffffffffffffff\n      and\n        /* \"contracts/Pool/PoolPig.sol\":27452:27456  from */\n      dup6\n        /* \"contracts/Pool/PoolPig.sol\":27452:27473  from != uniswapV2Pair */\n      0xffffffffffffffffffffffffffffffffffffffff\n      and\n      eq\n      iszero\n        /* \"contracts/Pool/PoolPig.sol\":27384:27473  overMinTokenBalance &&... */\n    tag_341:\n        /* \"contracts/Pool/PoolPig.sol\":27384:27510  overMinTokenBalance &&... */\n      dup1\n      iszero\n      tag_342\n      jumpi\n      pop\n        /* \"contracts/Pool/PoolPig.sol\":27489:27510  swapAndLiquifyEnabled */\n      0x12\n      0x01\n      swap1\n      sload\n      swap1\n      0x0100\n      exp\n      swap1\n      div\n      0xff\n      and\n        /* \"contracts/Pool/PoolPig.sol\":27384:27510  overMinTokenBalance &&... */\n    tag_342:\n        /* \"contracts/Pool/PoolPig.sol\":27367:27676  if (... */\n      iszero\n      tag_343\n      jumpi\n        /* \"contracts/Pool/PoolPig.sol\":27558:27587  numTokensSellToAddToLiquidity */\n      sload(0x14)\n        /* \"contracts/Pool/PoolPig.sol\":27535:27587  contractTokenBalance = numTokensSellToAddToLiquidity */\n      swap2\n      pop\n        /* \"contracts/Pool/PoolPig.sol\":27629:27665  swapAndLiquify(contractTokenBalance) */\n      tag_344\n        /* \"contracts/Pool/PoolPig.sol\":27644:27664  contractTokenBalance */\n      dup3\n        /* \"contracts/Pool/PoolPig.sol\":27629:27643  swapAndLiquify */\n      tag_345\n        /* \"contracts/Pool/PoolPig.sol\":27629:27665  swapAndLiquify(contractTokenBalance) */\n      jump\t// in\n    tag_344:\n        /* \"contracts/Pool/PoolPig.sol\":27367:27676  if (... */\n    tag_343:\n        /* \"contracts/Pool/PoolPig.sol\":27754:27766  bool takeFee */\n      0x00\n        /* \"contracts/Pool/PoolPig.sol\":27769:27773  true */\n      0x01\n        /* \"contracts/Pool/PoolPig.sol\":27754:27773  bool takeFee = true */\n      swap1\n      pop\n        /* \"contracts/Pool/PoolPig.sol\":27878:27896  _isExcludedFromFee */\n      0x06\n        /* \"contracts/Pool/PoolPig.sol\":27878:27902  _isExcludedFromFee[from] */\n      0x00\n        /* \"contracts/Pool/PoolPig.sol\":27897:27901  from */\n      dup8\n        /* \"contracts/Pool/PoolPig.sol\":27878:27902  _isExcludedFromFee[from] */\n      0xffffffffffffffffffffffffffffffffffffffff\n      and\n      0xffffffffffffffffffffffffffffffffffffffff\n      and\n      dup2\n      mstore\n      0x20\n      add\n      swap1\n      dup2\n      mstore\n      0x20\n      add\n      0x00\n      keccak256\n      0x00\n      swap1\n      sload\n      swap1\n      0x0100\n      exp\n      swap1\n      div\n      0xff\n      and\n        /* \"contracts/Pool/PoolPig.sol\":27878:27928  _isExcludedFromFee[from] || _isExcludedFromFee[to] */\n      dup1\n      tag_346\n      jumpi\n      pop\n        /* \"contracts/Pool/PoolPig.sol\":27906:27924  _isExcludedFromFee */\n      0x06\n        /* \"contracts/Pool/PoolPig.sol\":27906:27928  _isExcludedFromFee[to] */\n      0x00\n        /* \"contracts/Pool/PoolPig.sol\":27925:27927  to */\n      dup7\n        /* \"contracts/Pool/PoolPig.sol\":27906:27928  _isExcludedFromFee[to] */\n      0xffffffffffffffffffffffffffffffffffffffff\n      and\n      0xffffffffffffffffffffffffffffffffffffffff\n      and\n      dup2\n      mstore\n      0x20\n      add\n      swap1\n      dup2\n      mstore\n      0x20\n      add\n      0x00\n      keccak256\n      0x00\n      swap1\n      sload\n      swap1\n      0x0100\n      exp\n      swap1\n      div\n      0xff\n      and\n        /* \"contracts/Pool/PoolPig.sol\":27878:27928  _isExcludedFromFee[from] || _isExcludedFromFee[to] */\n    tag_346:\n        /* \"contracts/Pool/PoolPig.sol\":27875:27969  if(_isExcludedFromFee[from] || _isExcludedFromFee[to]){... */\n      iszero\n      tag_347\n      jumpi\n        /* \"contracts/Pool/PoolPig.sol\":27953:27958  false */\n      0x00\n        /* \"contracts/Pool/PoolPig.sol\":27943:27958  takeFee = false */\n      swap1\n      pop\n        /* \"contracts/Pool/PoolPig.sol\":27875:27969  if(_isExcludedFromFee[from] || _isExcludedFromFee[to]){... */\n    tag_347:\n        /* \"contracts/Pool/PoolPig.sol\":28052:28090  _tokenTransfer(from,to,amount,takeFee) */\n      tag_348\n        /* \"contracts/Pool/PoolPig.sol\":28067:28071  from */\n      dup7\n        /* \"contracts/Pool/PoolPig.sol\":28072:28074  to */\n      dup7\n        /* \"contracts/Pool/PoolPig.sol\":28075:28081  amount */\n      dup7\n        /* \"contracts/Pool/PoolPig.sol\":28082:28089  takeFee */\n      dup5\n        /* \"contracts/Pool/PoolPig.sol\":28052:28066  _tokenTransfer */\n      tag_349\n        /* \"contracts/Pool/PoolPig.sol\":28052:28090  _tokenTransfer(from,to,amount,takeFee) */\n      jump\t// in\n    tag_348:\n        /* \"contracts/Pool/PoolPig.sol\":26606:28097  function _transfer(... */\n      pop\n      pop\n      pop\n      pop\n      pop\n      pop\n      jump\t// out\n        /* \"contracts/Pool/PoolPig.sol\":1073:1260  function sub(uint256 a, uint256 b, string memory errorMessage) internal pure returns (uint256) {... */\n    tag_212:\n        /* \"contracts/Pool/PoolPig.sol\":1159:1166  uint256 */\n      0x00\n        /* \"contracts/Pool/PoolPig.sol\":1191:1192  a */\n      dup4\n        /* \"contracts/Pool/PoolPig.sol\":1186:1187  b */\n      dup4\n        /* \"contracts/Pool/PoolPig.sol\":1186:1192  b <= a */\n      gt\n      iszero\n        /* \"contracts/Pool/PoolPig.sol\":1194:1206  errorMessage */\n      dup3\n        /* \"contracts/Pool/PoolPig.sol\":1178:1207  require(b <= a, errorMessage) */\n      swap1\n      tag_351\n      jumpi\n      mload(0x40)\n      0x08c379a000000000000000000000000000000000000000000000000000000000\n      dup2\n      mstore\n      0x04\n      add\n      dup1\n      dup1\n      0x20\n      add\n      dup3\n      dup2\n      sub\n      dup3\n      mstore\n      dup4\n      dup2\n      dup2\n      mload\n      dup2\n      mstore\n      0x20\n      add\n      swap2\n      pop\n      dup1\n      mload\n      swap1\n      0x20\n      add\n      swap1\n      dup1\n      dup4\n      dup4\n      0x00\n    tag_352:\n      dup4\n      dup2\n      lt\n      iszero\n      tag_354\n      jumpi\n      dup1\n      dup3\n      add\n      mload\n      dup2\n      dup5\n      add\n      mstore\n      0x20\n      dup2\n      add\n      swap1\n      pop\n      jump(tag_352)\n    tag_354:\n      pop\n      pop\n      pop\n      pop\n      swap1\n      pop\n      swap1\n      dup2\n      add\n      swap1\n      0x1f\n      and\n      dup1\n      iszero\n      tag_355\n      jumpi\n      dup1\n      dup3\n      sub\n      dup1\n      mload\n      0x01\n      dup4\n      0x20\n      sub\n      0x0100\n      exp\n      sub\n      not\n      and\n      dup2\n      mstore\n      0x20\n      add\n      swap2\n      pop\n    tag_355:\n      pop\n      swap3\n      pop\n      pop\n      pop\n      mload(0x40)\n      dup1\n      swap2\n      sub\n      swap1\n      revert\n    tag_351:\n      pop\n        /* \"contracts/Pool/PoolPig.sol\":1217:1226  uint256 c */\n      0x00\n        /* \"contracts/Pool/PoolPig.sol\":1233:1234  b */\n      dup4\n        /* \"contracts/Pool/PoolPig.sol\":1229:1230  a */\n      dup6\n        /* \"contracts/Pool/PoolPig.sol\":1229:1234  a - b */\n      sub\n        /* \"contracts/Pool/PoolPig.sol\":1217:1234  uint256 c = a - b */\n      swap1\n      pop\n        /* \"contracts/Pool/PoolPig.sol\":1252:1253  c */\n      dup1\n        /* \"contracts/Pool/PoolPig.sol\":1245:1253  return c */\n      swap2\n      pop\n      pop\n        /* \"contracts/Pool/PoolPig.sol\":1073:1260  function sub(uint256 a, uint256 b, string memory errorMessage) internal pure returns (uint256) {... */\n      swap4\n      swap3\n      pop\n      pop\n      pop\n      jump\t// out\n        /* \"contracts/Pool/PoolPig.sol\":24344:24504  function _getRate() private view returns(uint256) {... */\n    tag_216:\n        /* \"contracts/Pool/PoolPig.sol\":24385:24392  uint256 */\n      0x00\n        /* \"contracts/Pool/PoolPig.sol\":24405:24420  uint256 rSupply */\n      dup1\n        /* \"contracts/Pool/PoolPig.sol\":24422:24437  uint256 tSupply */\n      0x00\n        /* \"contracts/Pool/PoolPig.sol\":24441:24460  _getCurrentSupply() */\n      tag_357\n        /* \"contracts/Pool/PoolPig.sol\":24441:24458  _getCurrentSupply */\n      tag_358\n        /* \"contracts/Pool/PoolPig.sol\":24441:24460  _getCurrentSupply() */\n      jump\t// in\n    tag_357:\n        /* \"contracts/Pool/PoolPig.sol\":24404:24460  (uint256 rSupply, uint256 tSupply) = _getCurrentSupply() */\n      swap2\n      pop\n      swap2\n      pop\n        /* \"contracts/Pool/PoolPig.sol\":24477:24497  rSupply.div(tSupply) */\n      tag_359\n        /* \"contracts/Pool/PoolPig.sol\":24489:24496  tSupply */\n      dup2\n        /* \"contracts/Pool/PoolPig.sol\":24477:24484  rSupply */\n      dup4\n        /* \"contracts/Pool/PoolPig.sol\":24477:24488  rSupply.div */\n      tag_218\n      swap1\n        /* \"contracts/Pool/PoolPig.sol\":24477:24497  rSupply.div(tSupply) */\n      swap2\n      swap1\n      0xffffffff\n      and\n      jump\t// in\n    tag_359:\n        /* \"contracts/Pool/PoolPig.sol\":24470:24497  return rSupply.div(tSupply) */\n      swap3\n      pop\n      pop\n      pop\n        /* \"contracts/Pool/PoolPig.sol\":24344:24504  function _getRate() private view returns(uint256) {... */\n      swap1\n      jump\t// out\n        /* \"contracts/Pool/PoolPig.sol\":1511:1641  function div(uint256 a, uint256 b) internal pure returns (uint256) {... */\n    tag_218:\n        /* \"contracts/Pool/PoolPig.sol\":1569:1576  uint256 */\n      0x00\n        /* \"contracts/Pool/PoolPig.sol\":1595:1634  div(a, b, \"SafeMath: division by zero\") */\n      tag_361\n        /* \"contracts/Pool/PoolPig.sol\":1599:1600  a */\n      dup4\n        /* \"contracts/Pool/PoolPig.sol\":1602:1603  b */\n      dup4\n        /* \"contracts/Pool/PoolPig.sol\":1595:1634  div(a, b, \"SafeMath: division by zero\") */\n      mload(0x40)\n      dup1\n      0x40\n      add\n      0x40\n      mstore\n      dup1\n      0x1a\n      dup2\n      mstore\n      0x20\n      add\n      0x536166654d6174683a206469766973696f6e206279207a65726f000000000000\n      dup2\n      mstore\n      pop\n        /* \"contracts/Pool/PoolPig.sol\":1595:1598  div */\n      tag_362\n        /* \"contracts/Pool/PoolPig.sol\":1595:1634  div(a, b, \"SafeMath: division by zero\") */\n      jump\t// in\n    tag_361:\n        /* \"contracts/Pool/PoolPig.sol\":1588:1634  return div(a, b, \"SafeMath: division by zero\") */\n      swap1\n      pop\n        /* \"contracts/Pool/PoolPig.sol\":1511:1641  function div(uint256 a, uint256 b) internal pure returns (uint256) {... */\n      swap3\n      swap2\n      pop\n      pop\n      jump\t// out\n        /* \"contracts/Pool/PoolPig.sol\":753:929  function add(uint256 a, uint256 b) internal pure returns (uint256) {... */\n    tag_242:\n        /* \"contracts/Pool/PoolPig.sol\":811:818  uint256 */\n      0x00\n        /* \"contracts/Pool/PoolPig.sol\":830:839  uint256 c */\n      dup1\n        /* \"contracts/Pool/PoolPig.sol\":846:847  b */\n      dup3\n        /* \"contracts/Pool/PoolPig.sol\":842:843  a */\n      dup5\n        /* \"contracts/Pool/PoolPig.sol\":842:847  a + b */\n      add\n        /* \"contracts/Pool/PoolPig.sol\":830:847  uint256 c = a + b */\n      swap1\n      pop\n        /* \"contracts/Pool/PoolPig.sol\":870:871  a */\n      dup4\n        /* \"contracts/Pool/PoolPig.sol\":865:866  c */\n      dup2\n        /* \"contracts/Pool/PoolPig.sol\":865:871  c >= a */\n      lt\n      iszero\n        /* \"contracts/Pool/PoolPig.sol\":857:903  require(c >= a, \"SafeMath: addition overflow\") */\n      tag_364\n      jumpi\n      mload(0x40)\n      0x08c379a000000000000000000000000000000000000000000000000000000000\n      dup2\n      mstore\n      0x04\n      add\n      dup1\n      dup1\n      0x20\n      add\n      dup3\n      dup2\n      sub\n      dup3\n      mstore\n      0x1b\n      dup2\n      mstore\n      0x20\n      add\n      dup1\n      0x536166654d6174683a206164646974696f6e206f766572666c6f770000000000\n      dup2\n      mstore\n      pop\n      0x20\n      add\n      swap2\n      pop\n      pop\n      mload(0x40)\n      dup1\n      swap2\n      sub\n      swap1\n      revert\n    tag_364:\n        /* \"contracts/Pool/PoolPig.sol\":921:922  c */\n      dup1\n        /* \"contracts/Pool/PoolPig.sol\":914:922  return c */\n      swap2\n      pop\n      pop\n        /* \"contracts/Pool/PoolPig.sol\":753:929  function add(uint256 a, uint256 b) internal pure returns (uint256) {... */\n      swap3\n      swap2\n      pop\n      pop\n      jump\t// out\n        /* \"contracts/Pool/PoolPig.sol\":23163:23578  function _getValues(uint256 tAmount) private view returns (uint256, uint256, uint256, uint256, uint256, uint256) {... */\n    tag_247:\n        /* \"contracts/Pool/PoolPig.sol\":23222:23229  uint256 */\n      0x00\n        /* \"contracts/Pool/PoolPig.sol\":23231:23238  uint256 */\n      dup1\n        /* \"contracts/Pool/PoolPig.sol\":23240:23247  uint256 */\n      0x00\n        /* \"contracts/Pool/PoolPig.sol\":23249:23256  uint256 */\n      dup1\n        /* \"contracts/Pool/PoolPig.sol\":23258:23265  uint256 */\n      0x00\n        /* \"contracts/Pool/PoolPig.sol\":23267:23274  uint256 */\n      dup1\n        /* \"contracts/Pool/PoolPig.sol\":23287:23310  uint256 tTransferAmount */\n      0x00\n        /* \"contracts/Pool/PoolPig.sol\":23312:23324  uint256 tFee */\n      dup1\n        /* \"contracts/Pool/PoolPig.sol\":23326:23344  uint256 tLiquidity */\n      0x00\n        /* \"contracts/Pool/PoolPig.sol\":23348:23368  _getTValues(tAmount) */\n      tag_366\n        /* \"contracts/Pool/PoolPig.sol\":23360:23367  tAmount */\n      dup11\n        /* \"contracts/Pool/PoolPig.sol\":23348:23359  _getTValues */\n      tag_367\n        /* \"contracts/Pool/PoolPig.sol\":23348:23368  _getTValues(tAmount) */\n      jump\t// in\n    tag_366:\n        /* \"contracts/Pool/PoolPig.sol\":23286:23368  (uint256 tTransferAmount, uint256 tFee, uint256 tLiquidity) = _getTValues(tAmount) */\n      swap3\n      pop\n      swap3\n      pop\n      swap3\n      pop\n        /* \"contracts/Pool/PoolPig.sol\":23379:23394  uint256 rAmount */\n      0x00\n        /* \"contracts/Pool/PoolPig.sol\":23396:23419  uint256 rTransferAmount */\n      dup1\n        /* \"contracts/Pool/PoolPig.sol\":23421:23433  uint256 rFee */\n      0x00\n        /* \"contracts/Pool/PoolPig.sol\":23437:23487  _getRValues(tAmount, tFee, tLiquidity, _getRate()) */\n      tag_368\n        /* \"contracts/Pool/PoolPig.sol\":23449:23456  tAmount */\n      dup14\n        /* \"contracts/Pool/PoolPig.sol\":23458:23462  tFee */\n      dup7\n        /* \"contracts/Pool/PoolPig.sol\":23464:23474  tLiquidity */\n      dup7\n        /* \"contracts/Pool/PoolPig.sol\":23476:23486  _getRate() */\n      tag_369\n        /* \"contracts/Pool/PoolPig.sol\":23476:23484  _getRate */\n      tag_216\n        /* \"contracts/Pool/PoolPig.sol\":23476:23486  _getRate() */\n      jump\t// in\n    tag_369:\n        /* \"contracts/Pool/PoolPig.sol\":23437:23448  _getRValues */\n      tag_370\n        /* \"contracts/Pool/PoolPig.sol\":23437:23487  _getRValues(tAmount, tFee, tLiquidity, _getRate()) */\n      jump\t// in\n    tag_368:\n        /* \"contracts/Pool/PoolPig.sol\":23378:23487  (uint256 rAmount, uint256 rTransferAmount, uint256 rFee) = _getRValues(tAmount, tFee, tLiquidity, _getRate()) */\n      swap3\n      pop\n      swap3\n      pop\n      swap3\n      pop\n        /* \"contracts/Pool/PoolPig.sol\":23505:23512  rAmount */\n      dup3\n        /* \"contracts/Pool/PoolPig.sol\":23514:23529  rTransferAmount */\n      dup3\n        /* \"contracts/Pool/PoolPig.sol\":23531:23535  rFee */\n      dup3\n        /* \"contracts/Pool/PoolPig.sol\":23537:23552  tTransferAmount */\n      dup9\n        /* \"contracts/Pool/PoolPig.sol\":23554:23558  tFee */\n      dup9\n        /* \"contracts/Pool/PoolPig.sol\":23560:23570  tLiquidity */\n      dup9\n        /* \"contracts/Pool/PoolPig.sol\":23497:23571  return (rAmount, rTransferAmount, rFee, tTransferAmount, tFee, tLiquidity) */\n      swap12\n      pop\n      swap12\n      pop\n      swap12\n      pop\n      swap12\n      pop\n      swap12\n      pop\n      swap12\n      pop\n      pop\n      pop\n      pop\n      pop\n      pop\n      pop\n        /* \"contracts/Pool/PoolPig.sol\":23163:23578  function _getValues(uint256 tAmount) private view returns (uint256, uint256, uint256, uint256, uint256, uint256) {... */\n      swap2\n      swap4\n      swap6\n      pop\n      swap2\n      swap4\n      swap6\n      jump\t// out\n        /* \"contracts/Pool/PoolPig.sol\":934:1068  function sub(uint256 a, uint256 b) internal pure returns (uint256) {... */\n    tag_249:\n        /* \"contracts/Pool/PoolPig.sol\":992:999  uint256 */\n      0x00\n        /* \"contracts/Pool/PoolPig.sol\":1018:1061  sub(a, b, \"SafeMath: subtraction overflow\") */\n      tag_372\n        /* \"contracts/Pool/PoolPig.sol\":1022:1023  a */\n      dup4\n        /* \"contracts/Pool/PoolPig.sol\":1025:1026  b */\n      dup4\n        /* \"contracts/Pool/PoolPig.sol\":1018:1061  sub(a, b, \"SafeMath: subtraction overflow\") */\n      mload(0x40)\n      dup1\n      0x40\n      add\n      0x40\n      mstore\n      dup1\n      0x1e\n      dup2\n      mstore\n      0x20\n      add\n      0x536166654d6174683a207375627472616374696f6e206f766572666c6f770000\n      dup2\n      mstore\n      pop\n        /* \"contracts/Pool/PoolPig.sol\":1018:1021  sub */\n      tag_212\n        /* \"contracts/Pool/PoolPig.sol\":1018:1061  sub(a, b, \"SafeMath: subtraction overflow\") */\n      jump\t// in\n    tag_372:\n        /* \"contracts/Pool/PoolPig.sol\":1011:1061  return sub(a, b, \"SafeMath: subtraction overflow\") */\n      swap1\n      pop\n        /* \"contracts/Pool/PoolPig.sol\":934:1068  function sub(uint256 a, uint256 b) internal pure returns (uint256) {... */\n      swap3\n      swap2\n      pop\n      pop\n      jump\t// out\n        /* \"contracts/Pool/PoolPig.sol\":1265:1506  function mul(uint256 a, uint256 b) internal pure returns (uint256) {... */\n    tag_310:\n        /* \"contracts/Pool/PoolPig.sol\":1323:1330  uint256 */\n      0x00\n        /* \"contracts/Pool/PoolPig.sol\":1351:1352  0 */\n      dup1\n        /* \"contracts/Pool/PoolPig.sol\":1346:1347  a */\n      dup4\n        /* \"contracts/Pool/PoolPig.sol\":1346:1352  a == 0 */\n      eq\n        /* \"contracts/Pool/PoolPig.sol\":1342:1387  if (a == 0) {... */\n      iszero\n      tag_374\n      jumpi\n        /* \"contracts/Pool/PoolPig.sol\":1375:1376  0 */\n      0x00\n        /* \"contracts/Pool/PoolPig.sol\":1368:1376  return 0 */\n      swap1\n      pop\n      jump(tag_373)\n        /* \"contracts/Pool/PoolPig.sol\":1342:1387  if (a == 0) {... */\n    tag_374:\n        /* \"contracts/Pool/PoolPig.sol\":1397:1406  uint256 c */\n      0x00\n        /* \"contracts/Pool/PoolPig.sol\":1413:1414  b */\n      dup3\n        /* \"contracts/Pool/PoolPig.sol\":1409:1410  a */\n      dup5\n        /* \"contracts/Pool/PoolPig.sol\":1409:1414  a * b */\n      mul\n        /* \"contracts/Pool/PoolPig.sol\":1397:1414  uint256 c = a * b */\n      swap1\n      pop\n        /* \"contracts/Pool/PoolPig.sol\":1441:1442  b */\n      dup3\n        /* \"contracts/Pool/PoolPig.sol\":1436:1437  a */\n      dup5\n        /* \"contracts/Pool/PoolPig.sol\":1432:1433  c */\n      dup3\n        /* \"contracts/Pool/PoolPig.sol\":1432:1437  c / a */\n      dup2\n      tag_375\n      jumpi\n      invalid\n    tag_375:\n      div\n        /* \"contracts/Pool/PoolPig.sol\":1432:1442  c / a == b */\n      eq\n        /* \"contracts/Pool/PoolPig.sol\":1424:1480  require(c / a == b, \"SafeMath: multiplication overflow\") */\n      tag_376\n      jumpi\n      mload(0x40)\n      0x08c379a000000000000000000000000000000000000000000000000000000000\n      dup2\n      mstore\n      0x04\n      add\n      dup1\n      dup1\n      0x20\n      add\n      dup3\n      dup2\n      sub\n      dup3\n      mstore\n      0x21\n      dup2\n      mstore\n      0x20\n      add\n      dup1\n      data_9113bb53c2876a3805b2c9242029423fc540a728243ce887ab24c82cf119fba3\n      0x21\n      swap2\n      codecopy\n      0x40\n      add\n      swap2\n      pop\n      pop\n      mload(0x40)\n      dup1\n      swap2\n      sub\n      swap1\n      revert\n    tag_376:\n        /* \"contracts/Pool/PoolPig.sol\":1498:1499  c */\n      dup1\n        /* \"contracts/Pool/PoolPig.sol\":1491:1499  return c */\n      swap2\n      pop\n      pop\n        /* \"contracts/Pool/PoolPig.sol\":1265:1506  function mul(uint256 a, uint256 b) internal pure returns (uint256) {... */\n    tag_373:\n      swap3\n      swap2\n      pop\n      pop\n      jump\t// out\n        /* \"contracts/Pool/PoolPig.sol\":28103:29068  function swapAndLiquify(uint256 contractTokenBalance) private lockTheSwap {... */\n    tag_345:\n        /* \"contracts/Pool/PoolPig.sol\":16685:16689  true */\n      0x01\n        /* \"contracts/Pool/PoolPig.sol\":16666:16682  inSwapAndLiquify */\n      0x12\n      0x00\n        /* \"contracts/Pool/PoolPig.sol\":16666:16689  inSwapAndLiquify = true */\n      0x0100\n      exp\n      dup2\n      sload\n      dup2\n      0xff\n      mul\n      not\n      and\n      swap1\n      dup4\n      iszero\n      iszero\n      mul\n      or\n      swap1\n      sstore\n      pop\n        /* \"contracts/Pool/PoolPig.sol\":28237:28249  uint256 half */\n      0x00\n        /* \"contracts/Pool/PoolPig.sol\":28252:28279  contractTokenBalance.div(2) */\n      tag_379\n        /* \"contracts/Pool/PoolPig.sol\":28277:28278  2 */\n      0x02\n        /* \"contracts/Pool/PoolPig.sol\":28252:28272  contractTokenBalance */\n      dup4\n        /* \"contracts/Pool/PoolPig.sol\":28252:28276  contractTokenBalance.div */\n      tag_218\n      swap1\n        /* \"contracts/Pool/PoolPig.sol\":28252:28279  contractTokenBalance.div(2) */\n      swap2\n      swap1\n      0xffffffff\n      and\n      jump\t// in\n    tag_379:\n        /* \"contracts/Pool/PoolPig.sol\":28237:28279  uint256 half = contractTokenBalance.div(2) */\n      swap1\n      pop\n        /* \"contracts/Pool/PoolPig.sol\":28289:28306  uint256 otherHalf */\n      0x00\n        /* \"contracts/Pool/PoolPig.sol\":28309:28339  contractTokenBalance.sub(half) */\n      tag_380\n        /* \"contracts/Pool/PoolPig.sol\":28334:28338  half */\n      dup3\n        /* \"contracts/Pool/PoolPig.sol\":28309:28329  contractTokenBalance */\n      dup5\n        /* \"contracts/Pool/PoolPig.sol\":28309:28333  contractTokenBalance.sub */\n      tag_249\n      swap1\n        /* \"contracts/Pool/PoolPig.sol\":28309:28339  contractTokenBalance.sub(half) */\n      swap2\n      swap1\n      0xffffffff\n      and\n      jump\t// in\n    tag_380:\n        /* \"contracts/Pool/PoolPig.sol\":28289:28339  uint256 otherHalf = contractTokenBalance.sub(half) */\n      swap1\n      pop\n        /* \"contracts/Pool/PoolPig.sol\":28611:28633  uint256 initialBalance */\n      0x00\n        /* \"contracts/Pool/PoolPig.sol\":28636:28657  address(this).balance */\n      selfbalance\n        /* \"contracts/Pool/PoolPig.sol\":28611:28657  uint256 initialBalance = address(this).balance */\n      swap1\n      pop\n        /* \"contracts/Pool/PoolPig.sol\":28699:28721  swapTokensForEth(half) */\n      tag_381\n        /* \"contracts/Pool/PoolPig.sol\":28716:28720  half */\n      dup4\n        /* \"contracts/Pool/PoolPig.sol\":28699:28715  swapTokensForEth */\n      tag_382\n        /* \"contracts/Pool/PoolPig.sol\":28699:28721  swapTokensForEth(half) */\n      jump\t// in\n    tag_381:\n        /* \"contracts/Pool/PoolPig.sol\":28849:28867  uint256 newBalance */\n      0x00\n        /* \"contracts/Pool/PoolPig.sol\":28870:28911  address(this).balance.sub(initialBalance) */\n      tag_383\n        /* \"contracts/Pool/PoolPig.sol\":28896:28910  initialBalance */\n      dup3\n        /* \"contracts/Pool/PoolPig.sol\":28870:28891  address(this).balance */\n      selfbalance\n        /* \"contracts/Pool/PoolPig.sol\":28870:28895  address(this).balance.sub */\n      tag_249\n      swap1\n        /* \"contracts/Pool/PoolPig.sol\":28870:28911  address(this).balance.sub(initialBalance) */\n      swap2\n      swap1\n      0xffffffff\n      and\n      jump\t// in\n    tag_383:\n        /* \"contracts/Pool/PoolPig.sol\":28849:28911  uint256 newBalance = address(this).balance.sub(initialBalance) */\n      swap1\n      pop\n        /* \"contracts/Pool/PoolPig.sol\":28959:28994  addLiquidity(otherHalf, newBalance) */\n      tag_384\n        /* \"contracts/Pool/PoolPig.sol\":28972:28981  otherHalf */\n      dup4\n        /* \"contracts/Pool/PoolPig.sol\":28983:28993  newBalance */\n      dup3\n        /* \"contracts/Pool/PoolPig.sol\":28959:28971  addLiquidity */\n      tag_385\n        /* \"contracts/Pool/PoolPig.sol\":28959:28994  addLiquidity(otherHalf, newBalance) */\n      jump\t// in\n    tag_384:\n        /* \"contracts/Pool/PoolPig.sol\":29018:29061  SwapAndLiquify(half, newBalance, otherHalf) */\n      0x17bbfb9a6069321b6ded73bd96327c9e6b7212a5cd51ff219cd61370acafb561\n        /* \"contracts/Pool/PoolPig.sol\":29033:29037  half */\n      dup5\n        /* \"contracts/Pool/PoolPig.sol\":29039:29049  newBalance */\n      dup3\n        /* \"contracts/Pool/PoolPig.sol\":29051:29060  otherHalf */\n      dup6\n        /* \"contracts/Pool/PoolPig.sol\":29018:29061  SwapAndLiquify(half, newBalance, otherHalf) */\n      mload(0x40)\n      dup1\n      dup5\n      dup2\n      mstore\n      0x20\n      add\n      dup4\n      dup2\n      mstore\n      0x20\n      add\n      dup3\n      dup2\n      mstore\n      0x20\n      add\n      swap4\n      pop\n      pop\n      pop\n      pop\n      mload(0x40)\n      dup1\n      swap2\n      sub\n      swap1\n      log1\n        /* \"contracts/Pool/PoolPig.sol\":16699:16700  _ */\n      pop\n      pop\n      pop\n      pop\n        /* \"contracts/Pool/PoolPig.sol\":16729:16734  false */\n      0x00\n        /* \"contracts/Pool/PoolPig.sol\":16710:16726  inSwapAndLiquify */\n      0x12\n      0x00\n        /* \"contracts/Pool/PoolPig.sol\":16710:16734  inSwapAndLiquify = false */\n      0x0100\n      exp\n      dup2\n      sload\n      dup2\n      0xff\n      mul\n      not\n      and\n      swap1\n      dup4\n      iszero\n      iszero\n      mul\n      or\n      swap1\n      sstore\n      pop\n        /* \"contracts/Pool/PoolPig.sol\":28103:29068  function swapAndLiquify(uint256 contractTokenBalance) private lockTheSwap {... */\n      pop\n      jump\t// out\n        /* \"contracts/Pool/PoolPig.sol\":30231:31047  function _tokenTransfer(address sender, address recipient, uint256 amount,bool takeFee) private {... */\n    tag_349:\n        /* \"contracts/Pool/PoolPig.sol\":30341:30348  takeFee */\n      dup1\n        /* \"contracts/Pool/PoolPig.sol\":30337:30376  if(!takeFee)... */\n      tag_387\n      jumpi\n        /* \"contracts/Pool/PoolPig.sol\":30362:30376  removeAllFee() */\n      tag_388\n        /* \"contracts/Pool/PoolPig.sol\":30362:30374  removeAllFee */\n      tag_389\n        /* \"contracts/Pool/PoolPig.sol\":30362:30376  removeAllFee() */\n      jump\t// in\n    tag_388:\n        /* \"contracts/Pool/PoolPig.sol\":30337:30376  if(!takeFee)... */\n    tag_387:\n        /* \"contracts/Pool/PoolPig.sol\":30399:30410  _isExcluded */\n      0x07\n        /* \"contracts/Pool/PoolPig.sol\":30399:30418  _isExcluded[sender] */\n      0x00\n        /* \"contracts/Pool/PoolPig.sol\":30411:30417  sender */\n      dup6\n        /* \"contracts/Pool/PoolPig.sol\":30399:30418  _isExcluded[sender] */\n      0xffffffffffffffffffffffffffffffffffffffff\n      and\n      0xffffffffffffffffffffffffffffffffffffffff\n      and\n      dup2\n      mstore\n      0x20\n      add\n      swap1\n      dup2\n      mstore\n      0x20\n      add\n      0x00\n      keccak256\n      0x00\n      swap1\n      sload\n      swap1\n      0x0100\n      exp\n      swap1\n      div\n      0xff\n      and\n        /* \"contracts/Pool/PoolPig.sol\":30399:30445  _isExcluded[sender] && !_isExcluded[recipient] */\n      dup1\n      iszero\n      tag_390\n      jumpi\n      pop\n        /* \"contracts/Pool/PoolPig.sol\":30423:30434  _isExcluded */\n      0x07\n        /* \"contracts/Pool/PoolPig.sol\":30423:30445  _isExcluded[recipient] */\n      0x00\n        /* \"contracts/Pool/PoolPig.sol\":30435:30444  recipient */\n      dup5\n        /* \"contracts/Pool/PoolPig.sol\":30423:30445  _isExcluded[recipient] */\n      0xffffffffffffffffffffffffffffffffffffffff\n      and\n      0xffffffffffffffffffffffffffffffffffffffff\n      and\n      dup2\n      mstore\n      0x20\n      add\n      swap1\n      dup2\n      mstore\n      0x20\n      add\n      0x00\n      keccak256\n      0x00\n      swap1\n      sload\n      swap1\n      0x0100\n      exp\n      swap1\n      div\n      0xff\n      and\n        /* \"contracts/Pool/PoolPig.sol\":30422:30445  !_isExcluded[recipient] */\n      iszero\n        /* \"contracts/Pool/PoolPig.sol\":30399:30445  _isExcluded[sender] && !_isExcluded[recipient] */\n    tag_390:\n        /* \"contracts/Pool/PoolPig.sol\":30395:30982  if (_isExcluded[sender] && !_isExcluded[recipient]) {... */\n      iszero\n      tag_391\n      jumpi\n        /* \"contracts/Pool/PoolPig.sol\":30461:30509  _transferFromExcluded(sender, recipient, amount) */\n      tag_392\n        /* \"contracts/Pool/PoolPig.sol\":30483:30489  sender */\n      dup5\n        /* \"contracts/Pool/PoolPig.sol\":30491:30500  recipient */\n      dup5\n        /* \"contracts/Pool/PoolPig.sol\":30502:30508  amount */\n      dup5\n        /* \"contracts/Pool/PoolPig.sol\":30461:30482  _transferFromExcluded */\n      tag_393\n        /* \"contracts/Pool/PoolPig.sol\":30461:30509  _transferFromExcluded(sender, recipient, amount) */\n      jump\t// in\n    tag_392:\n        /* \"contracts/Pool/PoolPig.sol\":30395:30982  if (_isExcluded[sender] && !_isExcluded[recipient]) {... */\n      jump(tag_394)\n    tag_391:\n        /* \"contracts/Pool/PoolPig.sol\":30531:30542  _isExcluded */\n      0x07\n        /* \"contracts/Pool/PoolPig.sol\":30531:30550  _isExcluded[sender] */\n      0x00\n        /* \"contracts/Pool/PoolPig.sol\":30543:30549  sender */\n      dup6\n        /* \"contracts/Pool/PoolPig.sol\":30531:30550  _isExcluded[sender] */\n      0xffffffffffffffffffffffffffffffffffffffff\n      and\n      0xffffffffffffffffffffffffffffffffffffffff\n      and\n      dup2\n      mstore\n      0x20\n      add\n      swap1\n      dup2\n      mstore\n      0x20\n      add\n      0x00\n      keccak256\n      0x00\n      swap1\n      sload\n      swap1\n      0x0100\n      exp\n      swap1\n      div\n      0xff\n      and\n        /* \"contracts/Pool/PoolPig.sol\":30530:30550  !_isExcluded[sender] */\n      iszero\n        /* \"contracts/Pool/PoolPig.sol\":30530:30576  !_isExcluded[sender] && _isExcluded[recipient] */\n      dup1\n      iszero\n      tag_395\n      jumpi\n      pop\n        /* \"contracts/Pool/PoolPig.sol\":30554:30565  _isExcluded */\n      0x07\n        /* \"contracts/Pool/PoolPig.sol\":30554:30576  _isExcluded[recipient] */\n      0x00\n        /* \"contracts/Pool/PoolPig.sol\":30566:30575  recipient */\n      dup5\n        /* \"contracts/Pool/PoolPig.sol\":30554:30576  _isExcluded[recipient] */\n      0xffffffffffffffffffffffffffffffffffffffff\n      and\n      0xffffffffffffffffffffffffffffffffffffffff\n      and\n      dup2\n      mstore\n      0x20\n      add\n      swap1\n      dup2\n      mstore\n      0x20\n      add\n      0x00\n      keccak256\n      0x00\n      swap1\n      sload\n      swap1\n      0x0100\n      exp\n      swap1\n      div\n      0xff\n      and\n        /* \"contracts/Pool/PoolPig.sol\":30530:30576  !_isExcluded[sender] && _isExcluded[recipient] */\n    tag_395:\n        /* \"contracts/Pool/PoolPig.sol\":30526:30982  if (!_isExcluded[sender] && _isExcluded[recipient]) {... */\n      iszero\n      tag_396\n      jumpi\n        /* \"contracts/Pool/PoolPig.sol\":30592:30638  _transferToExcluded(sender, recipient, amount) */\n      tag_397\n        /* \"contracts/Pool/PoolPig.sol\":30612:30618  sender */\n      dup5\n        /* \"contracts/Pool/PoolPig.sol\":30620:30629  recipient */\n      dup5\n        /* \"contracts/Pool/PoolPig.sol\":30631:30637  amount */\n      dup5\n        /* \"contracts/Pool/PoolPig.sol\":30592:30611  _transferToExcluded */\n      tag_398\n        /* \"contracts/Pool/PoolPig.sol\":30592:30638  _transferToExcluded(sender, recipient, amount) */\n      jump\t// in\n    tag_397:\n        /* \"contracts/Pool/PoolPig.sol\":30526:30982  if (!_isExcluded[sender] && _isExcluded[recipient]) {... */\n      jump(tag_399)\n    tag_396:\n        /* \"contracts/Pool/PoolPig.sol\":30660:30671  _isExcluded */\n      0x07\n        /* \"contracts/Pool/PoolPig.sol\":30660:30679  _isExcluded[sender] */\n      0x00\n        /* \"contracts/Pool/PoolPig.sol\":30672:30678  sender */\n      dup6\n        /* \"contracts/Pool/PoolPig.sol\":30660:30679  _isExcluded[sender] */\n      0xffffffffffffffffffffffffffffffffffffffff\n      and\n      0xffffffffffffffffffffffffffffffffffffffff\n      and\n      dup2\n      mstore\n      0x20\n      add\n      swap1\n      dup2\n      mstore\n      0x20\n      add\n      0x00\n      keccak256\n      0x00\n      swap1\n      sload\n      swap1\n      0x0100\n      exp\n      swap1\n      div\n      0xff\n      and\n        /* \"contracts/Pool/PoolPig.sol\":30659:30679  !_isExcluded[sender] */\n      iszero\n        /* \"contracts/Pool/PoolPig.sol\":30659:30706  !_isExcluded[sender] && !_isExcluded[recipient] */\n      dup1\n      iszero\n      tag_400\n      jumpi\n      pop\n        /* \"contracts/Pool/PoolPig.sol\":30684:30695  _isExcluded */\n      0x07\n        /* \"contracts/Pool/PoolPig.sol\":30684:30706  _isExcluded[recipient] */\n      0x00\n        /* \"contracts/Pool/PoolPig.sol\":30696:30705  recipient */\n      dup5\n        /* \"contracts/Pool/PoolPig.sol\":30684:30706  _isExcluded[recipient] */\n      0xffffffffffffffffffffffffffffffffffffffff\n      and\n      0xffffffffffffffffffffffffffffffffffffffff\n      and\n      dup2\n      mstore\n      0x20\n      add\n      swap1\n      dup2\n      mstore\n      0x20\n      add\n      0x00\n      keccak256\n      0x00\n      swap1\n      sload\n      swap1\n      0x0100\n      exp\n      swap1\n      div\n      0xff\n      and\n        /* \"contracts/Pool/PoolPig.sol\":30683:30706  !_isExcluded[recipient] */\n      iszero\n        /* \"contracts/Pool/PoolPig.sol\":30659:30706  !_isExcluded[sender] && !_isExcluded[recipient] */\n    tag_400:\n        /* \"contracts/Pool/PoolPig.sol\":30655:30982  if (!_isExcluded[sender] && !_isExcluded[recipient]) {... */\n      iszero\n      tag_401\n      jumpi\n        /* \"contracts/Pool/PoolPig.sol\":30722:30766  _transferStandard(sender, recipient, amount) */\n      tag_402\n        /* \"contracts/Pool/PoolPig.sol\":30740:30746  sender */\n      dup5\n        /* \"contracts/Pool/PoolPig.sol\":30748:30757  recipient */\n      dup5\n        /* \"contracts/Pool/PoolPig.sol\":30759:30765  amount */\n      dup5\n        /* \"contracts/Pool/PoolPig.sol\":30722:30739  _transferStandard */\n      tag_403\n        /* \"contracts/Pool/PoolPig.sol\":30722:30766  _transferStandard(sender, recipient, amount) */\n      jump\t// in\n    tag_402:\n        /* \"contracts/Pool/PoolPig.sol\":30655:30982  if (!_isExcluded[sender] && !_isExcluded[recipient]) {... */\n      jump(tag_404)\n    tag_401:\n        /* \"contracts/Pool/PoolPig.sol\":30787:30798  _isExcluded */\n      0x07\n        /* \"contracts/Pool/PoolPig.sol\":30787:30806  _isExcluded[sender] */\n      0x00\n        /* \"contracts/Pool/PoolPig.sol\":30799:30805  sender */\n      dup6\n        /* \"contracts/Pool/PoolPig.sol\":30787:30806  _isExcluded[sender] */\n      0xffffffffffffffffffffffffffffffffffffffff\n      and\n      0xffffffffffffffffffffffffffffffffffffffff\n      and\n      dup2\n      mstore\n      0x20\n      add\n      swap1\n      dup2\n      mstore\n      0x20\n      add\n      0x00\n      keccak256\n      0x00\n      swap1\n      sload\n      swap1\n      0x0100\n      exp\n      swap1\n      div\n      0xff\n      and\n        /* \"contracts/Pool/PoolPig.sol\":30787:30832  _isExcluded[sender] && _isExcluded[recipient] */\n      dup1\n      iszero\n      tag_405\n      jumpi\n      pop\n        /* \"contracts/Pool/PoolPig.sol\":30810:30821  _isExcluded */\n      0x07\n        /* \"contracts/Pool/PoolPig.sol\":30810:30832  _isExcluded[recipient] */\n      0x00\n        /* \"contracts/Pool/PoolPig.sol\":30822:30831  recipient */\n      dup5\n        /* \"contracts/Pool/PoolPig.sol\":30810:30832  _isExcluded[recipient] */\n      0xffffffffffffffffffffffffffffffffffffffff\n      and\n      0xffffffffffffffffffffffffffffffffffffffff\n      and\n      dup2\n      mstore\n      0x20\n      add\n      swap1\n      dup2\n      mstore\n      0x20\n      add\n      0x00\n      keccak256\n      0x00\n      swap1\n      sload\n      swap1\n      0x0100\n      exp\n      swap1\n      div\n      0xff\n      and\n        /* \"contracts/Pool/PoolPig.sol\":30787:30832  _isExcluded[sender] && _isExcluded[recipient] */\n    tag_405:\n        /* \"contracts/Pool/PoolPig.sol\":30783:30982  if (_isExcluded[sender] && _isExcluded[recipient]) {... */\n      iszero\n      tag_406\n      jumpi\n        /* \"contracts/Pool/PoolPig.sol\":30848:30896  _transferBothExcluded(sender, recipient, amount) */\n      tag_407\n        /* \"contracts/Pool/PoolPig.sol\":30870:30876  sender */\n      dup5\n        /* \"contracts/Pool/PoolPig.sol\":30878:30887  recipient */\n      dup5\n        /* \"contracts/Pool/PoolPig.sol\":30889:30895  amount */\n      dup5\n        /* \"contracts/Pool/PoolPig.sol\":30848:30869  _transferBothExcluded */\n      tag_408\n        /* \"contracts/Pool/PoolPig.sol\":30848:30896  _transferBothExcluded(sender, recipient, amount) */\n      jump\t// in\n    tag_407:\n        /* \"contracts/Pool/PoolPig.sol\":30783:30982  if (_isExcluded[sender] && _isExcluded[recipient]) {... */\n      jump(tag_409)\n    tag_406:\n        /* \"contracts/Pool/PoolPig.sol\":30927:30971  _transferStandard(sender, recipient, amount) */\n      tag_410\n        /* \"contracts/Pool/PoolPig.sol\":30945:30951  sender */\n      dup5\n        /* \"contracts/Pool/PoolPig.sol\":30953:30962  recipient */\n      dup5\n        /* \"contracts/Pool/PoolPig.sol\":30964:30970  amount */\n      dup5\n        /* \"contracts/Pool/PoolPig.sol\":30927:30944  _transferStandard */\n      tag_403\n        /* \"contracts/Pool/PoolPig.sol\":30927:30971  _transferStandard(sender, recipient, amount) */\n      jump\t// in\n    tag_410:\n        /* \"contracts/Pool/PoolPig.sol\":30783:30982  if (_isExcluded[sender] && _isExcluded[recipient]) {... */\n    tag_409:\n        /* \"contracts/Pool/PoolPig.sol\":30655:30982  if (!_isExcluded[sender] && !_isExcluded[recipient]) {... */\n    tag_404:\n        /* \"contracts/Pool/PoolPig.sol\":30526:30982  if (!_isExcluded[sender] && _isExcluded[recipient]) {... */\n    tag_399:\n        /* \"contracts/Pool/PoolPig.sol\":30395:30982  if (_isExcluded[sender] && !_isExcluded[recipient]) {... */\n    tag_394:\n        /* \"contracts/Pool/PoolPig.sol\":31004:31011  takeFee */\n      dup1\n        /* \"contracts/Pool/PoolPig.sol\":31000:31040  if(!takeFee)... */\n      tag_411\n      jumpi\n        /* \"contracts/Pool/PoolPig.sol\":31025:31040  restoreAllFee() */\n      tag_412\n        /* \"contracts/Pool/PoolPig.sol\":31025:31038  restoreAllFee */\n      tag_413\n        /* \"contracts/Pool/PoolPig.sol\":31025:31040  restoreAllFee() */\n      jump\t// in\n    tag_412:\n        /* \"contracts/Pool/PoolPig.sol\":31000:31040  if(!takeFee)... */\n    tag_411:\n        /* \"contracts/Pool/PoolPig.sol\":30231:31047  function _tokenTransfer(address sender, address recipient, uint256 amount,bool takeFee) private {... */\n      pop\n      pop\n      pop\n      pop\n      jump\t// out\n        /* \"contracts/Pool/PoolPig.sol\":24510:25061  function _getCurrentSupply() private view returns(uint256, uint256) {... */\n    tag_358:\n        /* \"contracts/Pool/PoolPig.sol\":24560:24567  uint256 */\n      0x00\n        /* \"contracts/Pool/PoolPig.sol\":24569:24576  uint256 */\n      dup1\n        /* \"contracts/Pool/PoolPig.sol\":24588:24603  uint256 rSupply */\n      0x00\n        /* \"contracts/Pool/PoolPig.sol\":24606:24613  _rTotal */\n      sload(0x09)\n        /* \"contracts/Pool/PoolPig.sol\":24588:24613  uint256 rSupply = _rTotal */\n      swap1\n      pop\n        /* \"contracts/Pool/PoolPig.sol\":24623:24638  uint256 tSupply */\n      0x00\n        /* \"contracts/Pool/PoolPig.sol\":15652:15670  1000000000 * 10**9 */\n      0x0de0b6b3a7640000\n        /* \"contracts/Pool/PoolPig.sol\":24623:24648  uint256 tSupply = _tTotal */\n      swap1\n      pop\n        /* \"contracts/Pool/PoolPig.sol\":24669:24678  uint256 i */\n      0x00\n        /* \"contracts/Pool/PoolPig.sol\":24664:24949  for (uint256 i = 0; i < _excluded.length; i++) {... */\n    tag_415:\n        /* \"contracts/Pool/PoolPig.sol\":24688:24697  _excluded */\n      0x08\n        /* \"contracts/Pool/PoolPig.sol\":24688:24704  _excluded.length */\n      dup1\n      sload\n      swap1\n      pop\n        /* \"contracts/Pool/PoolPig.sol\":24684:24685  i */\n      dup2\n        /* \"contracts/Pool/PoolPig.sol\":24684:24704  i < _excluded.length */\n      lt\n        /* \"contracts/Pool/PoolPig.sol\":24664:24949  for (uint256 i = 0; i < _excluded.length; i++) {... */\n      iszero\n      tag_416\n      jumpi\n        /* \"contracts/Pool/PoolPig.sol\":24753:24760  rSupply */\n      dup3\n        /* \"contracts/Pool/PoolPig.sol\":24729:24736  _rOwned */\n      0x03\n        /* \"contracts/Pool/PoolPig.sol\":24729:24750  _rOwned[_excluded[i]] */\n      0x00\n        /* \"contracts/Pool/PoolPig.sol\":24737:24746  _excluded */\n      0x08\n        /* \"contracts/Pool/PoolPig.sol\":24747:24748  i */\n      dup5\n        /* \"contracts/Pool/PoolPig.sol\":24737:24749  _excluded[i] */\n      dup2\n      sload\n      dup2\n      lt\n      tag_418\n      jumpi\n      invalid\n    tag_418:\n      swap1\n      0x00\n      mstore\n      keccak256(0x00, 0x20)\n      add\n      0x00\n      swap1\n      sload\n      swap1\n      0x0100\n      exp\n      swap1\n      div\n      0xffffffffffffffffffffffffffffffffffffffff\n      and\n        /* \"contracts/Pool/PoolPig.sol\":24729:24750  _rOwned[_excluded[i]] */\n      0xffffffffffffffffffffffffffffffffffffffff\n      and\n      0xffffffffffffffffffffffffffffffffffffffff\n      and\n      dup2\n      mstore\n      0x20\n      add\n      swap1\n      dup2\n      mstore\n      0x20\n      add\n      0x00\n      keccak256\n      sload\n        /* \"contracts/Pool/PoolPig.sol\":24729:24760  _rOwned[_excluded[i]] > rSupply */\n      gt\n        /* \"contracts/Pool/PoolPig.sol\":24729:24795  _rOwned[_excluded[i]] > rSupply || _tOwned[_excluded[i]] > tSupply */\n      dup1\n      tag_420\n      jumpi\n      pop\n        /* \"contracts/Pool/PoolPig.sol\":24788:24795  tSupply */\n      dup2\n        /* \"contracts/Pool/PoolPig.sol\":24764:24771  _tOwned */\n      0x04\n        /* \"contracts/Pool/PoolPig.sol\":24764:24785  _tOwned[_excluded[i]] */\n      0x00\n        /* \"contracts/Pool/PoolPig.sol\":24772:24781  _excluded */\n      0x08\n        /* \"contracts/Pool/PoolPig.sol\":24782:24783  i */\n      dup5\n        /* \"contracts/Pool/PoolPig.sol\":24772:24784  _excluded[i] */\n      dup2\n      sload\n      dup2\n      lt\n      tag_421\n      jumpi\n      invalid\n    tag_421:\n      swap1\n      0x00\n      mstore\n      keccak256(0x00, 0x20)\n      add\n      0x00\n      swap1\n      sload\n      swap1\n      0x0100\n      exp\n      swap1\n      div\n      0xffffffffffffffffffffffffffffffffffffffff\n      and\n        /* \"contracts/Pool/PoolPig.sol\":24764:24785  _tOwned[_excluded[i]] */\n      0xffffffffffffffffffffffffffffffffffffffff\n      and\n      0xffffffffffffffffffffffffffffffffffffffff\n      and\n      dup2\n      mstore\n      0x20\n      add\n      swap1\n      dup2\n      mstore\n      0x20\n      add\n      0x00\n      keccak256\n      sload\n        /* \"contracts/Pool/PoolPig.sol\":24764:24795  _tOwned[_excluded[i]] > tSupply */\n      gt\n        /* \"contracts/Pool/PoolPig.sol\":24729:24795  _rOwned[_excluded[i]] > rSupply || _tOwned[_excluded[i]] > tSupply */\n    tag_420:\n        /* \"contracts/Pool/PoolPig.sol\":24725:24822  if (_rOwned[_excluded[i]] > rSupply || _tOwned[_excluded[i]] > tSupply) return (_rTotal, _tTotal) */\n      iszero\n      tag_423\n      jumpi\n        /* \"contracts/Pool/PoolPig.sol\":24805:24812  _rTotal */\n      sload(0x09)\n        /* \"contracts/Pool/PoolPig.sol\":15652:15670  1000000000 * 10**9 */\n      0x0de0b6b3a7640000\n        /* \"contracts/Pool/PoolPig.sol\":24797:24822  return (_rTotal, _tTotal) */\n      swap5\n      pop\n      swap5\n      pop\n      pop\n      pop\n      pop\n      jump(tag_414)\n        /* \"contracts/Pool/PoolPig.sol\":24725:24822  if (_rOwned[_excluded[i]] > rSupply || _tOwned[_excluded[i]] > tSupply) return (_rTotal, _tTotal) */\n    tag_423:\n        /* \"contracts/Pool/PoolPig.sol\":24846:24880  rSupply.sub(_rOwned[_excluded[i]]) */\n      tag_424\n        /* \"contracts/Pool/PoolPig.sol\":24858:24865  _rOwned */\n      0x03\n        /* \"contracts/Pool/PoolPig.sol\":24858:24879  _rOwned[_excluded[i]] */\n      0x00\n        /* \"contracts/Pool/PoolPig.sol\":24866:24875  _excluded */\n      0x08\n        /* \"contracts/Pool/PoolPig.sol\":24876:24877  i */\n      dup5\n        /* \"contracts/Pool/PoolPig.sol\":24866:24878  _excluded[i] */\n      dup2\n      sload\n      dup2\n      lt\n      tag_425\n      jumpi\n      invalid\n    tag_425:\n      swap1\n      0x00\n      mstore\n      keccak256(0x00, 0x20)\n      add\n      0x00\n      swap1\n      sload\n      swap1\n      0x0100\n      exp\n      swap1\n      div\n      0xffffffffffffffffffffffffffffffffffffffff\n      and\n        /* \"contracts/Pool/PoolPig.sol\":24858:24879  _rOwned[_excluded[i]] */\n      0xffffffffffffffffffffffffffffffffffffffff\n      and\n      0xffffffffffffffffffffffffffffffffffffffff\n      and\n      dup2\n      mstore\n      0x20\n      add\n      swap1\n      dup2\n      mstore\n      0x20\n      add\n      0x00\n      keccak256\n      sload\n        /* \"contracts/Pool/PoolPig.sol\":24846:24853  rSupply */\n      dup5\n        /* \"contracts/Pool/PoolPig.sol\":24846:24857  rSupply.sub */\n      tag_249\n      swap1\n        /* \"contracts/Pool/PoolPig.sol\":24846:24880  rSupply.sub(_rOwned[_excluded[i]]) */\n      swap2\n      swap1\n      0xffffffff\n      and\n      jump\t// in\n    tag_424:\n        /* \"contracts/Pool/PoolPig.sol\":24836:24880  rSupply = rSupply.sub(_rOwned[_excluded[i]]) */\n      swap3\n      pop\n        /* \"contracts/Pool/PoolPig.sol\":24904:24938  tSupply.sub(_tOwned[_excluded[i]]) */\n      tag_427\n        /* \"contracts/Pool/PoolPig.sol\":24916:24923  _tOwned */\n      0x04\n        /* \"contracts/Pool/PoolPig.sol\":24916:24937  _tOwned[_excluded[i]] */\n      0x00\n        /* \"contracts/Pool/PoolPig.sol\":24924:24933  _excluded */\n      0x08\n        /* \"contracts/Pool/PoolPig.sol\":24934:24935  i */\n      dup5\n        /* \"contracts/Pool/PoolPig.sol\":24924:24936  _excluded[i] */\n      dup2\n      sload\n      dup2\n      lt\n      tag_428\n      jumpi\n      invalid\n    tag_428:\n      swap1\n      0x00\n      mstore\n      keccak256(0x00, 0x20)\n      add\n      0x00\n      swap1\n      sload\n      swap1\n      0x0100\n      exp\n      swap1\n      div\n      0xffffffffffffffffffffffffffffffffffffffff\n      and\n        /* \"contracts/Pool/PoolPig.sol\":24916:24937  _tOwned[_excluded[i]] */\n      0xffffffffffffffffffffffffffffffffffffffff\n      and\n      0xffffffffffffffffffffffffffffffffffffffff\n      and\n      dup2\n      mstore\n      0x20\n      add\n      swap1\n      dup2\n      mstore\n      0x20\n      add\n      0x00\n      keccak256\n      sload\n        /* \"contracts/Pool/PoolPig.sol\":24904:24911  tSupply */\n      dup4\n        /* \"contracts/Pool/PoolPig.sol\":24904:24915  tSupply.sub */\n      tag_249\n      swap1\n        /* \"contracts/Pool/PoolPig.sol\":24904:24938  tSupply.sub(_tOwned[_excluded[i]]) */\n      swap2\n      swap1\n      0xffffffff\n      and\n      jump\t// in\n    tag_427:\n        /* \"contracts/Pool/PoolPig.sol\":24894:24938  tSupply = tSupply.sub(_tOwned[_excluded[i]]) */\n      swap2\n      pop\n        /* \"contracts/Pool/PoolPig.sol\":24706:24709  i++ */\n      dup1\n      dup1\n      0x01\n      add\n      swap2\n      pop\n      pop\n        /* \"contracts/Pool/PoolPig.sol\":24664:24949  for (uint256 i = 0; i < _excluded.length; i++) {... */\n      jump(tag_415)\n    tag_416:\n      pop\n        /* \"contracts/Pool/PoolPig.sol\":24972:24992  _rTotal.div(_tTotal) */\n      tag_430\n        /* \"contracts/Pool/PoolPig.sol\":15652:15670  1000000000 * 10**9 */\n      0x0de0b6b3a7640000\n        /* \"contracts/Pool/PoolPig.sol\":24972:24979  _rTotal */\n      sload(0x09)\n        /* \"contracts/Pool/PoolPig.sol\":24972:24983  _rTotal.div */\n      tag_218\n      swap1\n        /* \"contracts/Pool/PoolPig.sol\":24972:24992  _rTotal.div(_tTotal) */\n      swap2\n      swap1\n      0xffffffff\n      and\n      jump\t// in\n    tag_430:\n        /* \"contracts/Pool/PoolPig.sol\":24962:24969  rSupply */\n      dup3\n        /* \"contracts/Pool/PoolPig.sol\":24962:24992  rSupply < _rTotal.div(_tTotal) */\n      lt\n        /* \"contracts/Pool/PoolPig.sol\":24958:25019  if (rSupply < _rTotal.div(_tTotal)) return (_rTotal, _tTotal) */\n      iszero\n      tag_431\n      jumpi\n        /* \"contracts/Pool/PoolPig.sol\":25002:25009  _rTotal */\n      sload(0x09)\n        /* \"contracts/Pool/PoolPig.sol\":15652:15670  1000000000 * 10**9 */\n      0x0de0b6b3a7640000\n        /* \"contracts/Pool/PoolPig.sol\":24994:25019  return (_rTotal, _tTotal) */\n      swap4\n      pop\n      swap4\n      pop\n      pop\n      pop\n      jump(tag_414)\n        /* \"contracts/Pool/PoolPig.sol\":24958:25019  if (rSupply < _rTotal.div(_tTotal)) return (_rTotal, _tTotal) */\n    tag_431:\n        /* \"contracts/Pool/PoolPig.sol\":25037:25044  rSupply */\n      dup2\n        /* \"contracts/Pool/PoolPig.sol\":25046:25053  tSupply */\n      dup2\n        /* \"contracts/Pool/PoolPig.sol\":25029:25054  return (rSupply, tSupply) */\n      swap4\n      pop\n      swap4\n      pop\n      pop\n      pop\n        /* \"contracts/Pool/PoolPig.sol\":24510:25061  function _getCurrentSupply() private view returns(uint256, uint256) {... */\n    tag_414:\n      swap1\n      swap2\n      jump\t// out\n        /* \"contracts/Pool/PoolPig.sol\":1646:1918  function div(uint256 a, uint256 b, string memory errorMessage) internal pure returns (uint256) {... */\n    tag_362:\n        /* \"contracts/Pool/PoolPig.sol\":1732:1739  uint256 */\n      0x00\n        /* \"contracts/Pool/PoolPig.sol\":1763:1764  0 */\n      dup1\n        /* \"contracts/Pool/PoolPig.sol\":1759:1760  b */\n      dup4\n        /* \"contracts/Pool/PoolPig.sol\":1759:1764  b > 0 */\n      gt\n        /* \"contracts/Pool/PoolPig.sol\":1766:1778  errorMessage */\n      dup3\n        /* \"contracts/Pool/PoolPig.sol\":1751:1779  require(b > 0, errorMessage) */\n      swap1\n      tag_433\n      jumpi\n      mload(0x40)\n      0x08c379a000000000000000000000000000000000000000000000000000000000\n      dup2\n      mstore\n      0x04\n      add\n      dup1\n      dup1\n      0x20\n      add\n      dup3\n      dup2\n      sub\n      dup3\n      mstore\n      dup4\n      dup2\n      dup2\n      mload\n      dup2\n      mstore\n      0x20\n      add\n      swap2\n      pop\n      dup1\n      mload\n      swap1\n      0x20\n      add\n      swap1\n      dup1\n      dup4\n      dup4\n      0x00\n    tag_434:\n      dup4\n      dup2\n      lt\n      iszero\n      tag_436\n      jumpi\n      dup1\n      dup3\n      add\n      mload\n      dup2\n      dup5\n      add\n      mstore\n      0x20\n      dup2\n      add\n      swap1\n      pop\n      jump(tag_434)\n    tag_436:\n      pop\n      pop\n      pop\n      pop\n      swap1\n      pop\n      swap1\n      dup2\n      add\n      swap1\n      0x1f\n      and\n      dup1\n      iszero\n      tag_437\n      jumpi\n      dup1\n      dup3\n      sub\n      dup1\n      mload\n      0x01\n      dup4\n      0x20\n      sub\n      0x0100\n      exp\n      sub\n      not\n      and\n      dup2\n      mstore\n      0x20\n      add\n      swap2\n      pop\n    tag_437:\n      pop\n      swap3\n      pop\n      pop\n      pop\n      mload(0x40)\n      dup1\n      swap2\n      sub\n      swap1\n      revert\n    tag_433:\n      pop\n        /* \"contracts/Pool/PoolPig.sol\":1789:1798  uint256 c */\n      0x00\n        /* \"contracts/Pool/PoolPig.sol\":1805:1806  b */\n      dup4\n        /* \"contracts/Pool/PoolPig.sol\":1801:1802  a */\n      dup6\n        /* \"contracts/Pool/PoolPig.sol\":1801:1806  a / b */\n      dup2\n      tag_438\n      jumpi\n      invalid\n    tag_438:\n      div\n        /* \"contracts/Pool/PoolPig.sol\":1789:1806  uint256 c = a / b */\n      swap1\n      pop\n        /* \"contracts/Pool/PoolPig.sol\":1910:1911  c */\n      dup1\n        /* \"contracts/Pool/PoolPig.sol\":1903:1911  return c */\n      swap2\n      pop\n      pop\n        /* \"contracts/Pool/PoolPig.sol\":1646:1918  function div(uint256 a, uint256 b, string memory errorMessage) internal pure returns (uint256) {... */\n      swap4\n      swap3\n      pop\n      pop\n      pop\n      jump\t// out\n        /* \"contracts/Pool/PoolPig.sol\":23584:23909  function _getTValues(uint256 tAmount) private view returns (uint256, uint256, uint256) {... */\n    tag_367:\n        /* \"contracts/Pool/PoolPig.sol\":23644:23651  uint256 */\n      0x00\n        /* \"contracts/Pool/PoolPig.sol\":23653:23660  uint256 */\n      dup1\n        /* \"contracts/Pool/PoolPig.sol\":23662:23669  uint256 */\n      0x00\n        /* \"contracts/Pool/PoolPig.sol\":23681:23693  uint256 tFee */\n      dup1\n        /* \"contracts/Pool/PoolPig.sol\":23696:23720  calculateTaxFee(tAmount) */\n      tag_440\n        /* \"contracts/Pool/PoolPig.sol\":23712:23719  tAmount */\n      dup6\n        /* \"contracts/Pool/PoolPig.sol\":23696:23711  calculateTaxFee */\n      tag_441\n        /* \"contracts/Pool/PoolPig.sol\":23696:23720  calculateTaxFee(tAmount) */\n      jump\t// in\n    tag_440:\n        /* \"contracts/Pool/PoolPig.sol\":23681:23720  uint256 tFee = calculateTaxFee(tAmount) */\n      swap1\n      pop\n        /* \"contracts/Pool/PoolPig.sol\":23730:23748  uint256 tLiquidity */\n      0x00\n        /* \"contracts/Pool/PoolPig.sol\":23751:23781  calculateLiquidityFee(tAmount) */\n      tag_442\n        /* \"contracts/Pool/PoolPig.sol\":23773:23780  tAmount */\n      dup7\n        /* \"contracts/Pool/PoolPig.sol\":23751:23772  calculateLiquidityFee */\n      tag_443\n        /* \"contracts/Pool/PoolPig.sol\":23751:23781  calculateLiquidityFee(tAmount) */\n      jump\t// in\n    tag_442:\n        /* \"contracts/Pool/PoolPig.sol\":23730:23781  uint256 tLiquidity = calculateLiquidityFee(tAmount) */\n      swap1\n      pop\n        /* \"contracts/Pool/PoolPig.sol\":23791:23814  uint256 tTransferAmount */\n      0x00\n        /* \"contracts/Pool/PoolPig.sol\":23817:23850  tAmount.sub(tFee).sub(tLiquidity) */\n      tag_444\n        /* \"contracts/Pool/PoolPig.sol\":23839:23849  tLiquidity */\n      dup3\n        /* \"contracts/Pool/PoolPig.sol\":23817:23834  tAmount.sub(tFee) */\n      tag_445\n        /* \"contracts/Pool/PoolPig.sol\":23829:23833  tFee */\n      dup6\n        /* \"contracts/Pool/PoolPig.sol\":23817:23824  tAmount */\n      dup11\n        /* \"contracts/Pool/PoolPig.sol\":23817:23828  tAmount.sub */\n      tag_249\n      swap1\n        /* \"contracts/Pool/PoolPig.sol\":23817:23834  tAmount.sub(tFee) */\n      swap2\n      swap1\n      0xffffffff\n      and\n      jump\t// in\n    tag_445:\n        /* \"contracts/Pool/PoolPig.sol\":23817:23838  tAmount.sub(tFee).sub */\n      tag_249\n      swap1\n        /* \"contracts/Pool/PoolPig.sol\":23817:23850  tAmount.sub(tFee).sub(tLiquidity) */\n      swap2\n      swap1\n      0xffffffff\n      and\n      jump\t// in\n    tag_444:\n        /* \"contracts/Pool/PoolPig.sol\":23791:23850  uint256 tTransferAmount = tAmount.sub(tFee).sub(tLiquidity) */\n      swap1\n      pop\n        /* \"contracts/Pool/PoolPig.sol\":23868:23883  tTransferAmount */\n      dup1\n        /* \"contracts/Pool/PoolPig.sol\":23885:23889  tFee */\n      dup4\n        /* \"contracts/Pool/PoolPig.sol\":23891:23901  tLiquidity */\n      dup4\n        /* \"contracts/Pool/PoolPig.sol\":23860:23902  return (tTransferAmount, tFee, tLiquidity) */\n      swap6\n      pop\n      swap6\n      pop\n      swap6\n      pop\n      pop\n      pop\n      pop\n        /* \"contracts/Pool/PoolPig.sol\":23584:23909  function _getTValues(uint256 tAmount) private view returns (uint256, uint256, uint256) {... */\n      swap2\n      swap4\n      swap1\n      swap3\n      pop\n      jump\t// out\n        /* \"contracts/Pool/PoolPig.sol\":23915:24338  function _getRValues(uint256 tAmount, uint256 tFee, uint256 tLiquidity, uint256 currentRate) private pure returns (uint256, uint256, uint256) {... */\n    tag_370:\n        /* \"contracts/Pool/PoolPig.sol\":24030:24037  uint256 */\n      0x00\n        /* \"contracts/Pool/PoolPig.sol\":24039:24046  uint256 */\n      dup1\n        /* \"contracts/Pool/PoolPig.sol\":24048:24055  uint256 */\n      0x00\n        /* \"contracts/Pool/PoolPig.sol\":24067:24082  uint256 rAmount */\n      dup1\n        /* \"contracts/Pool/PoolPig.sol\":24085:24109  tAmount.mul(currentRate) */\n      tag_447\n        /* \"contracts/Pool/PoolPig.sol\":24097:24108  currentRate */\n      dup6\n        /* \"contracts/Pool/PoolPig.sol\":24085:24092  tAmount */\n      dup10\n        /* \"contracts/Pool/PoolPig.sol\":24085:24096  tAmount.mul */\n      tag_310\n      swap1\n        /* \"contracts/Pool/PoolPig.sol\":24085:24109  tAmount.mul(currentRate) */\n      swap2\n      swap1\n      0xffffffff\n      and\n      jump\t// in\n    tag_447:\n        /* \"contracts/Pool/PoolPig.sol\":24067:24109  uint256 rAmount = tAmount.mul(currentRate) */\n      swap1\n      pop\n        /* \"contracts/Pool/PoolPig.sol\":24119:24131  uint256 rFee */\n      0x00\n        /* \"contracts/Pool/PoolPig.sol\":24134:24155  tFee.mul(currentRate) */\n      tag_448\n        /* \"contracts/Pool/PoolPig.sol\":24143:24154  currentRate */\n      dup7\n        /* \"contracts/Pool/PoolPig.sol\":24134:24138  tFee */\n      dup10\n        /* \"contracts/Pool/PoolPig.sol\":24134:24142  tFee.mul */\n      tag_310\n      swap1\n        /* \"contracts/Pool/PoolPig.sol\":24134:24155  tFee.mul(currentRate) */\n      swap2\n      swap1\n      0xffffffff\n      and\n      jump\t// in\n    tag_448:\n        /* \"contracts/Pool/PoolPig.sol\":24119:24155  uint256 rFee = tFee.mul(currentRate) */\n      swap1\n      pop\n        /* \"contracts/Pool/PoolPig.sol\":24165:24183  uint256 rLiquidity */\n      0x00\n        /* \"contracts/Pool/PoolPig.sol\":24186:24213  tLiquidity.mul(currentRate) */\n      tag_449\n        /* \"contracts/Pool/PoolPig.sol\":24201:24212  currentRate */\n      dup8\n        /* \"contracts/Pool/PoolPig.sol\":24186:24196  tLiquidity */\n      dup10\n        /* \"contracts/Pool/PoolPig.sol\":24186:24200  tLiquidity.mul */\n      tag_310\n      swap1\n        /* \"contracts/Pool/PoolPig.sol\":24186:24213  tLiquidity.mul(currentRate) */\n      swap2\n      swap1\n      0xffffffff\n      and\n      jump\t// in\n    tag_449:\n        /* \"contracts/Pool/PoolPig.sol\":24165:24213  uint256 rLiquidity = tLiquidity.mul(currentRate) */\n      swap1\n      pop\n        /* \"contracts/Pool/PoolPig.sol\":24223:24246  uint256 rTransferAmount */\n      0x00\n        /* \"contracts/Pool/PoolPig.sol\":24249:24282  rAmount.sub(rFee).sub(rLiquidity) */\n      tag_450\n        /* \"contracts/Pool/PoolPig.sol\":24271:24281  rLiquidity */\n      dup3\n        /* \"contracts/Pool/PoolPig.sol\":24249:24266  rAmount.sub(rFee) */\n      tag_451\n        /* \"contracts/Pool/PoolPig.sol\":24261:24265  rFee */\n      dup6\n        /* \"contracts/Pool/PoolPig.sol\":24249:24256  rAmount */\n      dup8\n        /* \"contracts/Pool/PoolPig.sol\":24249:24260  rAmount.sub */\n      tag_249\n      swap1\n        /* \"contracts/Pool/PoolPig.sol\":24249:24266  rAmount.sub(rFee) */\n      swap2\n      swap1\n      0xffffffff\n      and\n      jump\t// in\n    tag_451:\n        /* \"contracts/Pool/PoolPig.sol\":24249:24270  rAmount.sub(rFee).sub */\n      tag_249\n      swap1\n        /* \"contracts/Pool/PoolPig.sol\":24249:24282  rAmount.sub(rFee).sub(rLiquidity) */\n      swap2\n      swap1\n      0xffffffff\n      and\n      jump\t// in\n    tag_450:\n        /* \"contracts/Pool/PoolPig.sol\":24223:24282  uint256 rTransferAmount = rAmount.sub(rFee).sub(rLiquidity) */\n      swap1\n      pop\n        /* \"contracts/Pool/PoolPig.sol\":24300:24307  rAmount */\n      dup4\n        /* \"contracts/Pool/PoolPig.sol\":24309:24324  rTransferAmount */\n      dup2\n        /* \"contracts/Pool/PoolPig.sol\":24326:24330  rFee */\n      dup5\n        /* \"contracts/Pool/PoolPig.sol\":24292:24331  return (rAmount, rTransferAmount, rFee) */\n      swap7\n      pop\n      swap7\n      pop\n      swap7\n      pop\n      pop\n      pop\n      pop\n      pop\n        /* \"contracts/Pool/PoolPig.sol\":23915:24338  function _getRValues(uint256 tAmount, uint256 tFee, uint256 tLiquidity, uint256 currentRate) private pure returns (uint256, uint256, uint256) {... */\n      swap5\n      pop\n      swap5\n      pop\n      swap5\n      swap2\n      pop\n      pop\n      jump\t// out\n        /* \"contracts/Pool/PoolPig.sol\":29074:29647  function swapTokensForEth(uint256 tokenAmount) private {... */\n    tag_382:\n        /* \"contracts/Pool/PoolPig.sol\":29198:29219  address[] memory path */\n      0x60\n        /* \"contracts/Pool/PoolPig.sol\":29236:29237  2 */\n      0x02\n        /* \"contracts/Pool/PoolPig.sol\":29222:29238  new address[](2) */\n      0xffffffffffffffff\n      dup2\n      gt\n      dup1\n      iszero\n      tag_453\n      jumpi\n      0x00\n      dup1\n      revert\n    tag_453:\n      pop\n      mload(0x40)\n      swap1\n      dup1\n      dup3\n      mstore\n      dup1\n      0x20\n      mul\n      0x20\n      add\n      dup3\n      add\n      0x40\n      mstore\n      dup1\n      iszero\n      tag_454\n      jumpi\n      dup2\n      0x20\n      add\n      0x20\n      dup3\n      mul\n      dup1\n      calldatasize\n      dup4\n      calldatacopy\n      dup1\n      dup3\n      add\n      swap2\n      pop\n      pop\n      swap1\n      pop\n    tag_454:\n      pop\n        /* \"contracts/Pool/PoolPig.sol\":29198:29238  address[] memory path = new address[](2) */\n      swap1\n      pop\n        /* \"contracts/Pool/PoolPig.sol\":29266:29270  this */\n      address\n        /* \"contracts/Pool/PoolPig.sol\":29248:29252  path */\n      dup2\n        /* \"contracts/Pool/PoolPig.sol\":29253:29254  0 */\n      0x00\n        /* \"contracts/Pool/PoolPig.sol\":29248:29255  path[0] */\n      dup2\n      mload\n      dup2\n      lt\n      tag_455\n      jumpi\n      invalid\n    tag_455:\n      0x20\n      mul\n      0x20\n      add\n      add\n        /* \"contracts/Pool/PoolPig.sol\":29248:29271  path[0] = address(this) */\n      swap1\n      0xffffffffffffffffffffffffffffffffffffffff\n      and\n      swap1\n      dup2\n      0xffffffffffffffffffffffffffffffffffffffff\n      and\n      dup2\n      mstore\n      pop\n      pop\n        /* \"contracts/Pool/PoolPig.sol\":29291:29306  uniswapV2Router */\n      immutable(\"0xcbd30de1da04efa9e9dfb752a21e23c2c0c1de652015c52c119403b61435944f\")\n        /* \"contracts/Pool/PoolPig.sol\":29291:29311  uniswapV2Router.WETH */\n      0xffffffffffffffffffffffffffffffffffffffff\n      and\n      0xad5c4648\n        /* \"contracts/Pool/PoolPig.sol\":29291:29313  uniswapV2Router.WETH() */\n      mload(0x40)\n      dup2\n      0xffffffff\n      and\n      0xe0\n      shl\n      dup2\n      mstore\n      0x04\n      add\n      0x20\n      mload(0x40)\n      dup1\n      dup4\n      sub\n      dup2\n      dup7\n      dup1\n      extcodesize\n      iszero\n      dup1\n      iszero\n      tag_456\n      jumpi\n      0x00\n      dup1\n      revert\n    tag_456:\n      pop\n      gas\n      staticcall\n      iszero\n      dup1\n      iszero\n      tag_458\n      jumpi\n      returndatasize\n      0x00\n      dup1\n      returndatacopy\n      revert(0x00, returndatasize)\n    tag_458:\n      pop\n      pop\n      pop\n      pop\n      mload(0x40)\n      returndatasize\n      0x20\n      dup2\n      lt\n      iszero\n      tag_459\n      jumpi\n      0x00\n      dup1\n      revert\n    tag_459:\n      dup2\n      add\n      swap1\n      dup1\n      dup1\n      mload\n      swap1\n      0x20\n      add\n      swap1\n      swap3\n      swap2\n      swap1\n      pop\n      pop\n      pop\n        /* \"contracts/Pool/PoolPig.sol\":29281:29285  path */\n      dup2\n        /* \"contracts/Pool/PoolPig.sol\":29286:29287  1 */\n      0x01\n        /* \"contracts/Pool/PoolPig.sol\":29281:29288  path[1] */\n      dup2\n      mload\n      dup2\n      lt\n      tag_460\n      jumpi\n      invalid\n    tag_460:\n      0x20\n      mul\n      0x20\n      add\n      add\n        /* \"contracts/Pool/PoolPig.sol\":29281:29313  path[1] = uniswapV2Router.WETH() */\n      swap1\n      0xffffffffffffffffffffffffffffffffffffffff\n      and\n      swap1\n      dup2\n      0xffffffffffffffffffffffffffffffffffffffff\n      and\n      dup2\n      mstore\n      pop\n      pop\n        /* \"contracts/Pool/PoolPig.sol\":29324:29386  _approve(address(this), address(uniswapV2Router), tokenAmount) */\n      tag_461\n        /* \"contracts/Pool/PoolPig.sol\":29341:29345  this */\n      address\n        /* \"contracts/Pool/PoolPig.sol\":29356:29371  uniswapV2Router */\n      immutable(\"0xcbd30de1da04efa9e9dfb752a21e23c2c0c1de652015c52c119403b61435944f\")\n        /* \"contracts/Pool/PoolPig.sol\":29374:29385  tokenAmount */\n      dup5\n        /* \"contracts/Pool/PoolPig.sol\":29324:29332  _approve */\n      tag_202\n        /* \"contracts/Pool/PoolPig.sol\":29324:29386  _approve(address(this), address(uniswapV2Router), tokenAmount) */\n      jump\t// in\n    tag_461:\n        /* \"contracts/Pool/PoolPig.sol\":29422:29437  uniswapV2Router */\n      immutable(\"0xcbd30de1da04efa9e9dfb752a21e23c2c0c1de652015c52c119403b61435944f\")\n        /* \"contracts/Pool/PoolPig.sol\":29422:29488  uniswapV2Router.swapExactTokensForETHSupportingFeeOnTransferTokens */\n      0xffffffffffffffffffffffffffffffffffffffff\n      and\n      0x791ac947\n        /* \"contracts/Pool/PoolPig.sol\":29502:29513  tokenAmount */\n      dup4\n        /* \"contracts/Pool/PoolPig.sol\":29527:29528  0 */\n      0x00\n        /* \"contracts/Pool/PoolPig.sol\":29570:29574  path */\n      dup5\n        /* \"contracts/Pool/PoolPig.sol\":29596:29600  this */\n      address\n        /* \"contracts/Pool/PoolPig.sol\":29615:29630  block.timestamp */\n      timestamp\n        /* \"contracts/Pool/PoolPig.sol\":29422:29640  uniswapV2Router.swapExactTokensForETHSupportingFeeOnTransferTokens(... */\n      mload(0x40)\n      dup7\n      0xffffffff\n      and\n      0xe0\n      shl\n      dup2\n      mstore\n      0x04\n      add\n      dup1\n      dup7\n      dup2\n      mstore\n      0x20\n      add\n      dup6\n      dup2\n      mstore\n      0x20\n      add\n      dup1\n      0x20\n      add\n      dup5\n      0xffffffffffffffffffffffffffffffffffffffff\n      and\n      dup2\n      mstore\n      0x20\n      add\n      dup4\n      dup2\n      mstore\n      0x20\n      add\n      dup3\n      dup2\n      sub\n      dup3\n      mstore\n      dup6\n      dup2\n      dup2\n      mload\n      dup2\n      mstore\n      0x20\n      add\n      swap2\n      pop\n      dup1\n      mload\n      swap1\n      0x20\n      add\n      swap1\n      0x20\n      mul\n      dup1\n      dup4\n      dup4\n      0x00\n    tag_462:\n      dup4\n      dup2\n      lt\n      iszero\n      tag_464\n      jumpi\n      dup1\n      dup3\n      add\n      mload\n      dup2\n      dup5\n      add\n      mstore\n      0x20\n      dup2\n      add\n      swap1\n      pop\n      jump(tag_462)\n    tag_464:\n      pop\n      pop\n      pop\n      pop\n      swap1\n      pop\n      add\n      swap7\n      pop\n      pop\n      pop\n      pop\n      pop\n      pop\n      pop\n      0x00\n      mload(0x40)\n      dup1\n      dup4\n      sub\n      dup2\n      0x00\n      dup8\n      dup1\n      extcodesize\n      iszero\n      dup1\n      iszero\n      tag_465\n      jumpi\n      0x00\n      dup1\n      revert\n    tag_465:\n      pop\n      gas\n      call\n      iszero\n      dup1\n      iszero\n      tag_467\n      jumpi\n      returndatasize\n      0x00\n      dup1\n      returndatacopy\n      revert(0x00, returndatasize)\n    tag_467:\n      pop\n      pop\n      pop\n      pop\n        /* \"contracts/Pool/PoolPig.sol\":29074:29647  function swapTokensForEth(uint256 tokenAmount) private {... */\n      pop\n      pop\n      jump\t// out\n        /* \"contracts/Pool/PoolPig.sol\":29653:30153  function addLiquidity(uint256 tokenAmount, uint256 ethAmount) private {... */\n    tag_385:\n        /* \"contracts/Pool/PoolPig.sol\":29799:29861  _approve(address(this), address(uniswapV2Router), tokenAmount) */\n      tag_469\n        /* \"contracts/Pool/PoolPig.sol\":29816:29820  this */\n      address\n        /* \"contracts/Pool/PoolPig.sol\":29831:29846  uniswapV2Router */\n      immutable(\"0xcbd30de1da04efa9e9dfb752a21e23c2c0c1de652015c52c119403b61435944f\")\n        /* \"contracts/Pool/PoolPig.sol\":29849:29860  tokenAmount */\n      dup5\n        /* \"contracts/Pool/PoolPig.sol\":29799:29807  _approve */\n      tag_202\n        /* \"contracts/Pool/PoolPig.sol\":29799:29861  _approve(address(this), address(uniswapV2Router), tokenAmount) */\n      jump\t// in\n    tag_469:\n        /* \"contracts/Pool/PoolPig.sol\":29901:29916  uniswapV2Router */\n      immutable(\"0xcbd30de1da04efa9e9dfb752a21e23c2c0c1de652015c52c119403b61435944f\")\n        /* \"contracts/Pool/PoolPig.sol\":29901:29932  uniswapV2Router.addLiquidityETH */\n      0xffffffffffffffffffffffffffffffffffffffff\n      and\n      0xf305d719\n        /* \"contracts/Pool/PoolPig.sol\":29940:29949  ethAmount */\n      dup3\n        /* \"contracts/Pool/PoolPig.sol\":29972:29976  this */\n      address\n        /* \"contracts/Pool/PoolPig.sol\":29991:30002  tokenAmount */\n      dup6\n        /* \"contracts/Pool/PoolPig.sol\":30016:30017  0 */\n      0x00\n        /* \"contracts/Pool/PoolPig.sol\":30058:30059  0 */\n      dup1\n        /* \"contracts/Pool/PoolPig.sol\":30100:30107  owner() */\n      tag_470\n        /* \"contracts/Pool/PoolPig.sol\":30100:30105  owner */\n      tag_140\n        /* \"contracts/Pool/PoolPig.sol\":30100:30107  owner() */\n      jump\t// in\n    tag_470:\n        /* \"contracts/Pool/PoolPig.sol\":30121:30136  block.timestamp */\n      timestamp\n        /* \"contracts/Pool/PoolPig.sol\":29901:30146  uniswapV2Router.addLiquidityETH{value: ethAmount}(... */\n      mload(0x40)\n      dup9\n      0xffffffff\n      and\n      0xe0\n      shl\n      dup2\n      mstore\n      0x04\n      add\n      dup1\n      dup8\n      0xffffffffffffffffffffffffffffffffffffffff\n      and\n      dup2\n      mstore\n      0x20\n      add\n      dup7\n      dup2\n      mstore\n      0x20\n      add\n      dup6\n      dup2\n      mstore\n      0x20\n      add\n      dup5\n      dup2\n      mstore\n      0x20\n      add\n      dup4\n      0xffffffffffffffffffffffffffffffffffffffff\n      and\n      dup2\n      mstore\n      0x20\n      add\n      dup3\n      dup2\n      mstore\n      0x20\n      add\n      swap7\n      pop\n      pop\n      pop\n      pop\n      pop\n      pop\n      pop\n      0x60\n      mload(0x40)\n      dup1\n      dup4\n      sub\n      dup2\n      dup6\n      dup9\n      dup1\n      extcodesize\n      iszero\n      dup1\n      iszero\n      tag_471\n      jumpi\n      0x00\n      dup1\n      revert\n    tag_471:\n      pop\n      gas\n      call\n      iszero\n      dup1\n      iszero\n      tag_473\n      jumpi\n      returndatasize\n      0x00\n      dup1\n      returndatacopy\n      revert(0x00, returndatasize)\n    tag_473:\n      pop\n      pop\n      pop\n      pop\n      pop\n      mload(0x40)\n      returndatasize\n      0x60\n      dup2\n      lt\n      iszero\n      tag_474\n      jumpi\n      0x00\n      dup1\n      revert\n    tag_474:\n      dup2\n      add\n      swap1\n      dup1\n      dup1\n      mload\n      swap1\n      0x20\n      add\n      swap1\n      swap3\n      swap2\n      swap1\n      dup1\n      mload\n      swap1\n      0x20\n      add\n      swap1\n      swap3\n      swap2\n      swap1\n      dup1\n      mload\n      swap1\n      0x20\n      add\n      swap1\n      swap3\n      swap2\n      swap1\n      pop\n      pop\n      pop\n      pop\n      pop\n      pop\n        /* \"contracts/Pool/PoolPig.sol\":29653:30153  function addLiquidity(uint256 tokenAmount, uint256 ethAmount) private {... */\n      pop\n      pop\n      jump\t// out\n        /* \"contracts/Pool/PoolPig.sol\":25758:26000  function removeAllFee() private {... */\n    tag_389:\n        /* \"contracts/Pool/PoolPig.sol\":25814:25815  0 */\n      0x00\n        /* \"contracts/Pool/PoolPig.sol\":25803:25810  _taxFee */\n      sload(0x0e)\n        /* \"contracts/Pool/PoolPig.sol\":25803:25815  _taxFee == 0 */\n      eq\n        /* \"contracts/Pool/PoolPig.sol\":25803:25837  _taxFee == 0 && _liquidityFee == 0 */\n      dup1\n      iszero\n      tag_476\n      jumpi\n      pop\n        /* \"contracts/Pool/PoolPig.sol\":25836:25837  0 */\n      0x00\n        /* \"contracts/Pool/PoolPig.sol\":25819:25832  _liquidityFee */\n      sload(0x10)\n        /* \"contracts/Pool/PoolPig.sol\":25819:25837  _liquidityFee == 0 */\n      eq\n        /* \"contracts/Pool/PoolPig.sol\":25803:25837  _taxFee == 0 && _liquidityFee == 0 */\n    tag_476:\n        /* \"contracts/Pool/PoolPig.sol\":25800:25846  if(_taxFee == 0 && _liquidityFee == 0) return; */\n      iszero\n      tag_477\n      jumpi\n        /* \"contracts/Pool/PoolPig.sol\":25839:25846  return; */\n      jump(tag_475)\n        /* \"contracts/Pool/PoolPig.sol\":25800:25846  if(_taxFee == 0 && _liquidityFee == 0) return; */\n    tag_477:\n        /* \"contracts/Pool/PoolPig.sol\":25882:25889  _taxFee */\n      sload(0x0e)\n        /* \"contracts/Pool/PoolPig.sol\":25864:25879  _previousTaxFee */\n      0x0f\n        /* \"contracts/Pool/PoolPig.sol\":25864:25889  _previousTaxFee = _taxFee */\n      dup2\n      swap1\n      sstore\n      pop\n        /* \"contracts/Pool/PoolPig.sol\":25923:25936  _liquidityFee */\n      sload(0x10)\n        /* \"contracts/Pool/PoolPig.sol\":25899:25920  _previousLiquidityFee */\n      0x11\n        /* \"contracts/Pool/PoolPig.sol\":25899:25936  _previousLiquidityFee = _liquidityFee */\n      dup2\n      swap1\n      sstore\n      pop\n        /* \"contracts/Pool/PoolPig.sol\":25965:25966  0 */\n      0x00\n        /* \"contracts/Pool/PoolPig.sol\":25955:25962  _taxFee */\n      0x0e\n        /* \"contracts/Pool/PoolPig.sol\":25955:25966  _taxFee = 0 */\n      dup2\n      swap1\n      sstore\n      pop\n        /* \"contracts/Pool/PoolPig.sol\":25992:25993  0 */\n      0x00\n        /* \"contracts/Pool/PoolPig.sol\":25976:25989  _liquidityFee */\n      0x10\n        /* \"contracts/Pool/PoolPig.sol\":25976:25993  _liquidityFee = 0 */\n      dup2\n      swap1\n      sstore\n      pop\n        /* \"contracts/Pool/PoolPig.sol\":25758:26000  function removeAllFee() private {... */\n    tag_475:\n      jump\t// out\n        /* \"contracts/Pool/PoolPig.sol\":32138:32696  function _transferFromExcluded(address sender, address recipient, uint256 tAmount) private {... */\n    tag_393:\n        /* \"contracts/Pool/PoolPig.sol\":32240:32255  uint256 rAmount */\n      0x00\n        /* \"contracts/Pool/PoolPig.sol\":32257:32280  uint256 rTransferAmount */\n      dup1\n        /* \"contracts/Pool/PoolPig.sol\":32282:32294  uint256 rFee */\n      0x00\n        /* \"contracts/Pool/PoolPig.sol\":32296:32319  uint256 tTransferAmount */\n      dup1\n        /* \"contracts/Pool/PoolPig.sol\":32321:32333  uint256 tFee */\n      0x00\n        /* \"contracts/Pool/PoolPig.sol\":32335:32353  uint256 tLiquidity */\n      dup1\n        /* \"contracts/Pool/PoolPig.sol\":32357:32376  _getValues(tAmount) */\n      tag_479\n        /* \"contracts/Pool/PoolPig.sol\":32368:32375  tAmount */\n      dup8\n        /* \"contracts/Pool/PoolPig.sol\":32357:32367  _getValues */\n      tag_247\n        /* \"contracts/Pool/PoolPig.sol\":32357:32376  _getValues(tAmount) */\n      jump\t// in\n    tag_479:\n        /* \"contracts/Pool/PoolPig.sol\":32239:32376  (uint256 rAmount, uint256 rTransferAmount, uint256 rFee, uint256 tTransferAmount, uint256 tFee, uint256 tLiquidity) = _getValues(tAmount) */\n      swap6\n      pop\n      swap6\n      pop\n      swap6\n      pop\n      swap6\n      pop\n      swap6\n      pop\n      swap6\n      pop\n        /* \"contracts/Pool/PoolPig.sol\":32404:32432  _tOwned[sender].sub(tAmount) */\n      tag_480\n        /* \"contracts/Pool/PoolPig.sol\":32424:32431  tAmount */\n      dup8\n        /* \"contracts/Pool/PoolPig.sol\":32404:32411  _tOwned */\n      0x04\n        /* \"contracts/Pool/PoolPig.sol\":32404:32419  _tOwned[sender] */\n      0x00\n        /* \"contracts/Pool/PoolPig.sol\":32412:32418  sender */\n      dup13\n        /* \"contracts/Pool/PoolPig.sol\":32404:32419  _tOwned[sender] */\n      0xffffffffffffffffffffffffffffffffffffffff\n      and\n      0xffffffffffffffffffffffffffffffffffffffff\n      and\n      dup2\n      mstore\n      0x20\n      add\n      swap1\n      dup2\n      mstore\n      0x20\n      add\n      0x00\n      keccak256\n      sload\n        /* \"contracts/Pool/PoolPig.sol\":32404:32423  _tOwned[sender].sub */\n      tag_249\n      swap1\n        /* \"contracts/Pool/PoolPig.sol\":32404:32432  _tOwned[sender].sub(tAmount) */\n      swap2\n      swap1\n      0xffffffff\n      and\n      jump\t// in\n    tag_480:\n        /* \"contracts/Pool/PoolPig.sol\":32386:32393  _tOwned */\n      0x04\n        /* \"contracts/Pool/PoolPig.sol\":32386:32401  _tOwned[sender] */\n      0x00\n        /* \"contracts/Pool/PoolPig.sol\":32394:32400  sender */\n      dup12\n        /* \"contracts/Pool/PoolPig.sol\":32386:32401  _tOwned[sender] */\n      0xffffffffffffffffffffffffffffffffffffffff\n      and\n      0xffffffffffffffffffffffffffffffffffffffff\n      and\n      dup2\n      mstore\n      0x20\n      add\n      swap1\n      dup2\n      mstore\n      0x20\n      add\n      0x00\n      keccak256\n        /* \"contracts/Pool/PoolPig.sol\":32386:32432  _tOwned[sender] = _tOwned[sender].sub(tAmount) */\n      dup2\n      swap1\n      sstore\n      pop\n        /* \"contracts/Pool/PoolPig.sol\":32460:32488  _rOwned[sender].sub(rAmount) */\n      tag_481\n        /* \"contracts/Pool/PoolPig.sol\":32480:32487  rAmount */\n      dup7\n        /* \"contracts/Pool/PoolPig.sol\":32460:32467  _rOwned */\n      0x03\n        /* \"contracts/Pool/PoolPig.sol\":32460:32475  _rOwned[sender] */\n      0x00\n        /* \"contracts/Pool/PoolPig.sol\":32468:32474  sender */\n      dup13\n        /* \"contracts/Pool/PoolPig.sol\":32460:32475  _rOwned[sender] */\n      0xffffffffffffffffffffffffffffffffffffffff\n      and\n      0xffffffffffffffffffffffffffffffffffffffff\n      and\n      dup2\n      mstore\n      0x20\n      add\n      swap1\n      dup2\n      mstore\n      0x20\n      add\n      0x00\n      keccak256\n      sload\n        /* \"contracts/Pool/PoolPig.sol\":32460:32479  _rOwned[sender].sub */\n      tag_249\n      swap1\n        /* \"contracts/Pool/PoolPig.sol\":32460:32488  _rOwned[sender].sub(rAmount) */\n      swap2\n      swap1\n      0xffffffff\n      and\n      jump\t// in\n    tag_481:\n        /* \"contracts/Pool/PoolPig.sol\":32442:32449  _rOwned */\n      0x03\n        /* \"contracts/Pool/PoolPig.sol\":32442:32457  _rOwned[sender] */\n      0x00\n        /* \"contracts/Pool/PoolPig.sol\":32450:32456  sender */\n      dup12\n        /* \"contracts/Pool/PoolPig.sol\":32442:32457  _rOwned[sender] */\n      0xffffffffffffffffffffffffffffffffffffffff\n      and\n      0xffffffffffffffffffffffffffffffffffffffff\n      and\n      dup2\n      mstore\n      0x20\n      add\n      swap1\n      dup2\n      mstore\n      0x20\n      add\n      0x00\n      keccak256\n        /* \"contracts/Pool/PoolPig.sol\":32442:32488  _rOwned[sender] = _rOwned[sender].sub(rAmount) */\n      dup2\n      swap1\n      sstore\n      pop\n        /* \"contracts/Pool/PoolPig.sol\":32519:32558  _rOwned[recipient].add(rTransferAmount) */\n      tag_482\n        /* \"contracts/Pool/PoolPig.sol\":32542:32557  rTransferAmount */\n      dup6\n        /* \"contracts/Pool/PoolPig.sol\":32519:32526  _rOwned */\n      0x03\n        /* \"contracts/Pool/PoolPig.sol\":32519:32537  _rOwned[recipient] */\n      0x00\n        /* \"contracts/Pool/PoolPig.sol\":32527:32536  recipient */\n      dup12\n        /* \"contracts/Pool/PoolPig.sol\":32519:32537  _rOwned[recipient] */\n      0xffffffffffffffffffffffffffffffffffffffff\n      and\n      0xffffffffffffffffffffffffffffffffffffffff\n      and\n      dup2\n      mstore\n      0x20\n      add\n      swap1\n      dup2\n      mstore\n      0x20\n      add\n      0x00\n      keccak256\n      sload\n        /* \"contracts/Pool/PoolPig.sol\":32519:32541  _rOwned[recipient].add */\n      tag_242\n      swap1\n        /* \"contracts/Pool/PoolPig.sol\":32519:32558  _rOwned[recipient].add(rTransferAmount) */\n      swap2\n      swap1\n      0xffffffff\n      and\n      jump\t// in\n    tag_482:\n        /* \"contracts/Pool/PoolPig.sol\":32498:32505  _rOwned */\n      0x03\n        /* \"contracts/Pool/PoolPig.sol\":32498:32516  _rOwned[recipient] */\n      0x00\n        /* \"contracts/Pool/PoolPig.sol\":32506:32515  recipient */\n      dup11\n        /* \"contracts/Pool/PoolPig.sol\":32498:32516  _rOwned[recipient] */\n      0xffffffffffffffffffffffffffffffffffffffff\n      and\n      0xffffffffffffffffffffffffffffffffffffffff\n      and\n      dup2\n      mstore\n      0x20\n      add\n      swap1\n      dup2\n      mstore\n      0x20\n      add\n      0x00\n      keccak256\n        /* \"contracts/Pool/PoolPig.sol\":32498:32558  _rOwned[recipient] = _rOwned[recipient].add(rTransferAmount) */\n      dup2\n      swap1\n      sstore\n      pop\n        /* \"contracts/Pool/PoolPig.sol\":32571:32597  _takeLiquidity(tLiquidity) */\n      tag_483\n        /* \"contracts/Pool/PoolPig.sol\":32586:32596  tLiquidity */\n      dup2\n        /* \"contracts/Pool/PoolPig.sol\":32571:32585  _takeLiquidity */\n      tag_484\n        /* \"contracts/Pool/PoolPig.sol\":32571:32597  _takeLiquidity(tLiquidity) */\n      jump\t// in\n    tag_483:\n        /* \"contracts/Pool/PoolPig.sol\":32607:32630  _reflectFee(rFee, tFee) */\n      tag_485\n        /* \"contracts/Pool/PoolPig.sol\":32619:32623  rFee */\n      dup5\n        /* \"contracts/Pool/PoolPig.sol\":32625:32629  tFee */\n      dup4\n        /* \"contracts/Pool/PoolPig.sol\":32607:32618  _reflectFee */\n      tag_486\n        /* \"contracts/Pool/PoolPig.sol\":32607:32630  _reflectFee(rFee, tFee) */\n      jump\t// in\n    tag_485:\n        /* \"contracts/Pool/PoolPig.sol\":32662:32671  recipient */\n      dup8\n        /* \"contracts/Pool/PoolPig.sol\":32645:32689  Transfer(sender, recipient, tTransferAmount) */\n      0xffffffffffffffffffffffffffffffffffffffff\n      and\n        /* \"contracts/Pool/PoolPig.sol\":32654:32660  sender */\n      dup10\n        /* \"contracts/Pool/PoolPig.sol\":32645:32689  Transfer(sender, recipient, tTransferAmount) */\n      0xffffffffffffffffffffffffffffffffffffffff\n      and\n      0xddf252ad1be2c89b69c2b068fc378daa952ba7f163c4a11628f55a4df523b3ef\n        /* \"contracts/Pool/PoolPig.sol\":32673:32688  tTransferAmount */\n      dup6\n        /* \"contracts/Pool/PoolPig.sol\":32645:32689  Transfer(sender, recipient, tTransferAmount) */\n      mload(0x40)\n      dup1\n      dup3\n      dup2\n      mstore\n      0x20\n      add\n      swap2\n      pop\n      pop\n      mload(0x40)\n      dup1\n      swap2\n      sub\n      swap1\n      log3\n        /* \"contracts/Pool/PoolPig.sol\":32138:32696  function _transferFromExcluded(address sender, address recipient, uint256 tAmount) private {... */\n      pop\n      pop\n      pop\n      pop\n      pop\n      pop\n      pop\n      pop\n      pop\n      jump\t// out\n        /* \"contracts/Pool/PoolPig.sol\":31554:32132  function _transferToExcluded(address sender, address recipient, uint256 tAmount) private {... */\n    tag_398:\n        /* \"contracts/Pool/PoolPig.sol\":31654:31669  uint256 rAmount */\n      0x00\n        /* \"contracts/Pool/PoolPig.sol\":31671:31694  uint256 rTransferAmount */\n      dup1\n        /* \"contracts/Pool/PoolPig.sol\":31696:31708  uint256 rFee */\n      0x00\n        /* \"contracts/Pool/PoolPig.sol\":31710:31733  uint256 tTransferAmount */\n      dup1\n        /* \"contracts/Pool/PoolPig.sol\":31735:31747  uint256 tFee */\n      0x00\n        /* \"contracts/Pool/PoolPig.sol\":31749:31767  uint256 tLiquidity */\n      dup1\n        /* \"contracts/Pool/PoolPig.sol\":31771:31790  _getValues(tAmount) */\n      tag_488\n        /* \"contracts/Pool/PoolPig.sol\":31782:31789  tAmount */\n      dup8\n        /* \"contracts/Pool/PoolPig.sol\":31771:31781  _getValues */\n      tag_247\n        /* \"contracts/Pool/PoolPig.sol\":31771:31790  _getValues(tAmount) */\n      jump\t// in\n    tag_488:\n        /* \"contracts/Pool/PoolPig.sol\":31653:31790  (uint256 rAmount, uint256 rTransferAmount, uint256 rFee, uint256 tTransferAmount, uint256 tFee, uint256 tLiquidity) = _getValues(tAmount) */\n      swap6\n      pop\n      swap6\n      pop\n      swap6\n      pop\n      swap6\n      pop\n      swap6\n      pop\n      swap6\n      pop\n        /* \"contracts/Pool/PoolPig.sol\":31818:31846  _rOwned[sender].sub(rAmount) */\n      tag_489\n        /* \"contracts/Pool/PoolPig.sol\":31838:31845  rAmount */\n      dup7\n        /* \"contracts/Pool/PoolPig.sol\":31818:31825  _rOwned */\n      0x03\n        /* \"contracts/Pool/PoolPig.sol\":31818:31833  _rOwned[sender] */\n      0x00\n        /* \"contracts/Pool/PoolPig.sol\":31826:31832  sender */\n      dup13\n        /* \"contracts/Pool/PoolPig.sol\":31818:31833  _rOwned[sender] */\n      0xffffffffffffffffffffffffffffffffffffffff\n      and\n      0xffffffffffffffffffffffffffffffffffffffff\n      and\n      dup2\n      mstore\n      0x20\n      add\n      swap1\n      dup2\n      mstore\n      0x20\n      add\n      0x00\n      keccak256\n      sload\n        /* \"contracts/Pool/PoolPig.sol\":31818:31837  _rOwned[sender].sub */\n      tag_249\n      swap1\n        /* \"contracts/Pool/PoolPig.sol\":31818:31846  _rOwned[sender].sub(rAmount) */\n      swap2\n      swap1\n      0xffffffff\n      and\n      jump\t// in\n    tag_489:\n        /* \"contracts/Pool/PoolPig.sol\":31800:31807  _rOwned */\n      0x03\n        /* \"contracts/Pool/PoolPig.sol\":31800:31815  _rOwned[sender] */\n      0x00\n        /* \"contracts/Pool/PoolPig.sol\":31808:31814  sender */\n      dup12\n        /* \"contracts/Pool/PoolPig.sol\":31800:31815  _rOwned[sender] */\n      0xffffffffffffffffffffffffffffffffffffffff\n      and\n      0xffffffffffffffffffffffffffffffffffffffff\n      and\n      dup2\n      mstore\n      0x20\n      add\n      swap1\n      dup2\n      mstore\n      0x20\n      add\n      0x00\n      keccak256\n        /* \"contracts/Pool/PoolPig.sol\":31800:31846  _rOwned[sender] = _rOwned[sender].sub(rAmount) */\n      dup2\n      swap1\n      sstore\n      pop\n        /* \"contracts/Pool/PoolPig.sol\":31877:31916  _tOwned[recipient].add(tTransferAmount) */\n      tag_490\n        /* \"contracts/Pool/PoolPig.sol\":31900:31915  tTransferAmount */\n      dup4\n        /* \"contracts/Pool/PoolPig.sol\":31877:31884  _tOwned */\n      0x04\n        /* \"contracts/Pool/PoolPig.sol\":31877:31895  _tOwned[recipient] */\n      0x00\n        /* \"contracts/Pool/PoolPig.sol\":31885:31894  recipient */\n      dup12\n        /* \"contracts/Pool/PoolPig.sol\":31877:31895  _tOwned[recipient] */\n      0xffffffffffffffffffffffffffffffffffffffff\n      and\n      0xffffffffffffffffffffffffffffffffffffffff\n      and\n      dup2\n      mstore\n      0x20\n      add\n      swap1\n      dup2\n      mstore\n      0x20\n      add\n      0x00\n      keccak256\n      sload\n        /* \"contracts/Pool/PoolPig.sol\":31877:31899  _tOwned[recipient].add */\n      tag_242\n      swap1\n        /* \"contracts/Pool/PoolPig.sol\":31877:31916  _tOwned[recipient].add(tTransferAmount) */\n      swap2\n      swap1\n      0xffffffff\n      and\n      jump\t// in\n    tag_490:\n        /* \"contracts/Pool/PoolPig.sol\":31856:31863  _tOwned */\n      0x04\n        /* \"contracts/Pool/PoolPig.sol\":31856:31874  _tOwned[recipient] */\n      0x00\n        /* \"contracts/Pool/PoolPig.sol\":31864:31873  recipient */\n      dup11\n        /* \"contracts/Pool/PoolPig.sol\":31856:31874  _tOwned[recipient] */\n      0xffffffffffffffffffffffffffffffffffffffff\n      and\n      0xffffffffffffffffffffffffffffffffffffffff\n      and\n      dup2\n      mstore\n      0x20\n      add\n      swap1\n      dup2\n      mstore\n      0x20\n      add\n      0x00\n      keccak256\n        /* \"contracts/Pool/PoolPig.sol\":31856:31916  _tOwned[recipient] = _tOwned[recipient].add(tTransferAmount) */\n      dup2\n      swap1\n      sstore\n      pop\n        /* \"contracts/Pool/PoolPig.sol\":31947:31986  _rOwned[recipient].add(rTransferAmount) */\n      tag_491\n        /* \"contracts/Pool/PoolPig.sol\":31970:31985  rTransferAmount */\n      dup6\n        /* \"contracts/Pool/PoolPig.sol\":31947:31954  _rOwned */\n      0x03\n        /* \"contracts/Pool/PoolPig.sol\":31947:31965  _rOwned[recipient] */\n      0x00\n        /* \"contracts/Pool/PoolPig.sol\":31955:31964  recipient */\n      dup12\n        /* \"contracts/Pool/PoolPig.sol\":31947:31965  _rOwned[recipient] */\n      0xffffffffffffffffffffffffffffffffffffffff\n      and\n      0xffffffffffffffffffffffffffffffffffffffff\n      and\n      dup2\n      mstore\n      0x20\n      add\n      swap1\n      dup2\n      mstore\n      0x20\n      add\n      0x00\n      keccak256\n      sload\n        /* \"contracts/Pool/PoolPig.sol\":31947:31969  _rOwned[recipient].add */\n      tag_242\n      swap1\n        /* \"contracts/Pool/PoolPig.sol\":31947:31986  _rOwned[recipient].add(rTransferAmount) */\n      swap2\n      swap1\n      0xffffffff\n      and\n      jump\t// in\n    tag_491:\n        /* \"contracts/Pool/PoolPig.sol\":31926:31933  _rOwned */\n      0x03\n        /* \"contracts/Pool/PoolPig.sol\":31926:31944  _rOwned[recipient] */\n      0x00\n        /* \"contracts/Pool/PoolPig.sol\":31934:31943  recipient */\n      dup11\n        /* \"contracts/Pool/PoolPig.sol\":31926:31944  _rOwned[recipient] */\n      0xffffffffffffffffffffffffffffffffffffffff\n      and\n      0xffffffffffffffffffffffffffffffffffffffff\n      and\n      dup2\n      mstore\n      0x20\n      add\n      swap1\n      dup2\n      mstore\n      0x20\n      add\n      0x00\n      keccak256\n        /* \"contracts/Pool/PoolPig.sol\":31926:31986  _rOwned[recipient] = _rOwned[recipient].add(rTransferAmount) */\n      dup2\n      swap1\n      sstore\n      pop\n        /* \"contracts/Pool/PoolPig.sol\":32007:32033  _takeLiquidity(tLiquidity) */\n      tag_492\n        /* \"contracts/Pool/PoolPig.sol\":32022:32032  tLiquidity */\n      dup2\n        /* \"contracts/Pool/PoolPig.sol\":32007:32021  _takeLiquidity */\n      tag_484\n        /* \"contracts/Pool/PoolPig.sol\":32007:32033  _takeLiquidity(tLiquidity) */\n      jump\t// in\n    tag_492:\n        /* \"contracts/Pool/PoolPig.sol\":32043:32066  _reflectFee(rFee, tFee) */\n      tag_493\n        /* \"contracts/Pool/PoolPig.sol\":32055:32059  rFee */\n      dup5\n        /* \"contracts/Pool/PoolPig.sol\":32061:32065  tFee */\n      dup4\n        /* \"contracts/Pool/PoolPig.sol\":32043:32054  _reflectFee */\n      tag_486\n        /* \"contracts/Pool/PoolPig.sol\":32043:32066  _reflectFee(rFee, tFee) */\n      jump\t// in\n    tag_493:\n        /* \"contracts/Pool/PoolPig.sol\":32098:32107  recipient */\n      dup8\n        /* \"contracts/Pool/PoolPig.sol\":32081:32125  Transfer(sender, recipient, tTransferAmount) */\n      0xffffffffffffffffffffffffffffffffffffffff\n      and\n        /* \"contracts/Pool/PoolPig.sol\":32090:32096  sender */\n      dup10\n        /* \"contracts/Pool/PoolPig.sol\":32081:32125  Transfer(sender, recipient, tTransferAmount) */\n      0xffffffffffffffffffffffffffffffffffffffff\n      and\n      0xddf252ad1be2c89b69c2b068fc378daa952ba7f163c4a11628f55a4df523b3ef\n        /* \"contracts/Pool/PoolPig.sol\":32109:32124  tTransferAmount */\n      dup6\n        /* \"contracts/Pool/PoolPig.sol\":32081:32125  Transfer(sender, recipient, tTransferAmount) */\n      mload(0x40)\n      dup1\n      dup3\n      dup2\n      mstore\n      0x20\n      add\n      swap2\n      pop\n      pop\n      mload(0x40)\n      dup1\n      swap2\n      sub\n      swap1\n      log3\n        /* \"contracts/Pool/PoolPig.sol\":31554:32132  function _transferToExcluded(address sender, address recipient, uint256 tAmount) private {... */\n      pop\n      pop\n      pop\n      pop\n      pop\n      pop\n      pop\n      pop\n      pop\n      jump\t// out\n        /* \"contracts/Pool/PoolPig.sol\":31053:31548  function _transferStandard(address sender, address recipient, uint256 tAmount) private {... */\n    tag_403:\n        /* \"contracts/Pool/PoolPig.sol\":31151:31166  uint256 rAmount */\n      0x00\n        /* \"contracts/Pool/PoolPig.sol\":31168:31191  uint256 rTransferAmount */\n      dup1\n        /* \"contracts/Pool/PoolPig.sol\":31193:31205  uint256 rFee */\n      0x00\n        /* \"contracts/Pool/PoolPig.sol\":31207:31230  uint256 tTransferAmount */\n      dup1\n        /* \"contracts/Pool/PoolPig.sol\":31232:31244  uint256 tFee */\n      0x00\n        /* \"contracts/Pool/PoolPig.sol\":31246:31264  uint256 tLiquidity */\n      dup1\n        /* \"contracts/Pool/PoolPig.sol\":31268:31287  _getValues(tAmount) */\n      tag_495\n        /* \"contracts/Pool/PoolPig.sol\":31279:31286  tAmount */\n      dup8\n        /* \"contracts/Pool/PoolPig.sol\":31268:31278  _getValues */\n      tag_247\n        /* \"contracts/Pool/PoolPig.sol\":31268:31287  _getValues(tAmount) */\n      jump\t// in\n    tag_495:\n        /* \"contracts/Pool/PoolPig.sol\":31150:31287  (uint256 rAmount, uint256 rTransferAmount, uint256 rFee, uint256 tTransferAmount, uint256 tFee, uint256 tLiquidity) = _getValues(tAmount) */\n      swap6\n      pop\n      swap6\n      pop\n      swap6\n      pop\n      swap6\n      pop\n      swap6\n      pop\n      swap6\n      pop\n        /* \"contracts/Pool/PoolPig.sol\":31315:31343  _rOwned[sender].sub(rAmount) */\n      tag_496\n        /* \"contracts/Pool/PoolPig.sol\":31335:31342  rAmount */\n      dup7\n        /* \"contracts/Pool/PoolPig.sol\":31315:31322  _rOwned */\n      0x03\n        /* \"contracts/Pool/PoolPig.sol\":31315:31330  _rOwned[sender] */\n      0x00\n        /* \"contracts/Pool/PoolPig.sol\":31323:31329  sender */\n      dup13\n        /* \"contracts/Pool/PoolPig.sol\":31315:31330  _rOwned[sender] */\n      0xffffffffffffffffffffffffffffffffffffffff\n      and\n      0xffffffffffffffffffffffffffffffffffffffff\n      and\n      dup2\n      mstore\n      0x20\n      add\n      swap1\n      dup2\n      mstore\n      0x20\n      add\n      0x00\n      keccak256\n      sload\n        /* \"contracts/Pool/PoolPig.sol\":31315:31334  _rOwned[sender].sub */\n      tag_249\n      swap1\n        /* \"contracts/Pool/PoolPig.sol\":31315:31343  _rOwned[sender].sub(rAmount) */\n      swap2\n      swap1\n      0xffffffff\n      and\n      jump\t// in\n    tag_496:\n        /* \"contracts/Pool/PoolPig.sol\":31297:31304  _rOwned */\n      0x03\n        /* \"contracts/Pool/PoolPig.sol\":31297:31312  _rOwned[sender] */\n      0x00\n        /* \"contracts/Pool/PoolPig.sol\":31305:31311  sender */\n      dup12\n        /* \"contracts/Pool/PoolPig.sol\":31297:31312  _rOwned[sender] */\n      0xffffffffffffffffffffffffffffffffffffffff\n      and\n      0xffffffffffffffffffffffffffffffffffffffff\n      and\n      dup2\n      mstore\n      0x20\n      add\n      swap1\n      dup2\n      mstore\n      0x20\n      add\n      0x00\n      keccak256\n        /* \"contracts/Pool/PoolPig.sol\":31297:31343  _rOwned[sender] = _rOwned[sender].sub(rAmount) */\n      dup2\n      swap1\n      sstore\n      pop\n        /* \"contracts/Pool/PoolPig.sol\":31374:31413  _rOwned[recipient].add(rTransferAmount) */\n      tag_497\n        /* \"contracts/Pool/PoolPig.sol\":31397:31412  rTransferAmount */\n      dup6\n        /* \"contracts/Pool/PoolPig.sol\":31374:31381  _rOwned */\n      0x03\n        /* \"contracts/Pool/PoolPig.sol\":31374:31392  _rOwned[recipient] */\n      0x00\n        /* \"contracts/Pool/PoolPig.sol\":31382:31391  recipient */\n      dup12\n        /* \"contracts/Pool/PoolPig.sol\":31374:31392  _rOwned[recipient] */\n      0xffffffffffffffffffffffffffffffffffffffff\n      and\n      0xffffffffffffffffffffffffffffffffffffffff\n      and\n      dup2\n      mstore\n      0x20\n      add\n      swap1\n      dup2\n      mstore\n      0x20\n      add\n      0x00\n      keccak256\n      sload\n        /* \"contracts/Pool/PoolPig.sol\":31374:31396  _rOwned[recipient].add */\n      tag_242\n      swap1\n        /* \"contracts/Pool/PoolPig.sol\":31374:31413  _rOwned[recipient].add(rTransferAmount) */\n      swap2\n      swap1\n      0xffffffff\n      and\n      jump\t// in\n    tag_497:\n        /* \"contracts/Pool/PoolPig.sol\":31353:31360  _rOwned */\n      0x03\n        /* \"contracts/Pool/PoolPig.sol\":31353:31371  _rOwned[recipient] */\n      0x00\n        /* \"contracts/Pool/PoolPig.sol\":31361:31370  recipient */\n      dup11\n        /* \"contracts/Pool/PoolPig.sol\":31353:31371  _rOwned[recipient] */\n      0xffffffffffffffffffffffffffffffffffffffff\n      and\n      0xffffffffffffffffffffffffffffffffffffffff\n      and\n      dup2\n      mstore\n      0x20\n      add\n      swap1\n      dup2\n      mstore\n      0x20\n      add\n      0x00\n      keccak256\n        /* \"contracts/Pool/PoolPig.sol\":31353:31413  _rOwned[recipient] = _rOwned[recipient].add(rTransferAmount) */\n      dup2\n      swap1\n      sstore\n      pop\n        /* \"contracts/Pool/PoolPig.sol\":31423:31449  _takeLiquidity(tLiquidity) */\n      tag_498\n        /* \"contracts/Pool/PoolPig.sol\":31438:31448  tLiquidity */\n      dup2\n        /* \"contracts/Pool/PoolPig.sol\":31423:31437  _takeLiquidity */\n      tag_484\n        /* \"contracts/Pool/PoolPig.sol\":31423:31449  _takeLiquidity(tLiquidity) */\n      jump\t// in\n    tag_498:\n        /* \"contracts/Pool/PoolPig.sol\":31459:31482  _reflectFee(rFee, tFee) */\n      tag_499\n        /* \"contracts/Pool/PoolPig.sol\":31471:31475  rFee */\n      dup5\n        /* \"contracts/Pool/PoolPig.sol\":31477:31481  tFee */\n      dup4\n        /* \"contracts/Pool/PoolPig.sol\":31459:31470  _reflectFee */\n      tag_486\n        /* \"contracts/Pool/PoolPig.sol\":31459:31482  _reflectFee(rFee, tFee) */\n      jump\t// in\n    tag_499:\n        /* \"contracts/Pool/PoolPig.sol\":31514:31523  recipient */\n      dup8\n        /* \"contracts/Pool/PoolPig.sol\":31497:31541  Transfer(sender, recipient, tTransferAmount) */\n      0xffffffffffffffffffffffffffffffffffffffff\n      and\n        /* \"contracts/Pool/PoolPig.sol\":31506:31512  sender */\n      dup10\n        /* \"contracts/Pool/PoolPig.sol\":31497:31541  Transfer(sender, recipient, tTransferAmount) */\n      0xffffffffffffffffffffffffffffffffffffffff\n      and\n      0xddf252ad1be2c89b69c2b068fc378daa952ba7f163c4a11628f55a4df523b3ef\n        /* \"contracts/Pool/PoolPig.sol\":31525:31540  tTransferAmount */\n      dup6\n        /* \"contracts/Pool/PoolPig.sol\":31497:31541  Transfer(sender, recipient, tTransferAmount) */\n      mload(0x40)\n      dup1\n      dup3\n      dup2\n      mstore\n      0x20\n      add\n      swap2\n      pop\n      pop\n      mload(0x40)\n      dup1\n      swap2\n      sub\n      swap1\n      log3\n        /* \"contracts/Pool/PoolPig.sol\":31053:31548  function _transferStandard(address sender, address recipient, uint256 tAmount) private {... */\n      pop\n      pop\n      pop\n      pop\n      pop\n      pop\n      pop\n      pop\n      pop\n      jump\t// out\n        /* \"contracts/Pool/PoolPig.sol\":21461:22094  function _transferBothExcluded(address sender, address recipient, uint256 tAmount) private {... */\n    tag_408:\n        /* \"contracts/Pool/PoolPig.sol\":21563:21578  uint256 rAmount */\n      0x00\n        /* \"contracts/Pool/PoolPig.sol\":21580:21603  uint256 rTransferAmount */\n      dup1\n        /* \"contracts/Pool/PoolPig.sol\":21605:21617  uint256 rFee */\n      0x00\n        /* \"contracts/Pool/PoolPig.sol\":21619:21642  uint256 tTransferAmount */\n      dup1\n        /* \"contracts/Pool/PoolPig.sol\":21644:21656  uint256 tFee */\n      0x00\n        /* \"contracts/Pool/PoolPig.sol\":21658:21676  uint256 tLiquidity */\n      dup1\n        /* \"contracts/Pool/PoolPig.sol\":21680:21699  _getValues(tAmount) */\n      tag_501\n        /* \"contracts/Pool/PoolPig.sol\":21691:21698  tAmount */\n      dup8\n        /* \"contracts/Pool/PoolPig.sol\":21680:21690  _getValues */\n      tag_247\n        /* \"contracts/Pool/PoolPig.sol\":21680:21699  _getValues(tAmount) */\n      jump\t// in\n    tag_501:\n        /* \"contracts/Pool/PoolPig.sol\":21562:21699  (uint256 rAmount, uint256 rTransferAmount, uint256 rFee, uint256 tTransferAmount, uint256 tFee, uint256 tLiquidity) = _getValues(tAmount) */\n      swap6\n      pop\n      swap6\n      pop\n      swap6\n      pop\n      swap6\n      pop\n      swap6\n      pop\n      swap6\n      pop\n        /* \"contracts/Pool/PoolPig.sol\":21727:21755  _tOwned[sender].sub(tAmount) */\n      tag_502\n        /* \"contracts/Pool/PoolPig.sol\":21747:21754  tAmount */\n      dup8\n        /* \"contracts/Pool/PoolPig.sol\":21727:21734  _tOwned */\n      0x04\n        /* \"contracts/Pool/PoolPig.sol\":21727:21742  _tOwned[sender] */\n      0x00\n        /* \"contracts/Pool/PoolPig.sol\":21735:21741  sender */\n      dup13\n        /* \"contracts/Pool/PoolPig.sol\":21727:21742  _tOwned[sender] */\n      0xffffffffffffffffffffffffffffffffffffffff\n      and\n      0xffffffffffffffffffffffffffffffffffffffff\n      and\n      dup2\n      mstore\n      0x20\n      add\n      swap1\n      dup2\n      mstore\n      0x20\n      add\n      0x00\n      keccak256\n      sload\n        /* \"contracts/Pool/PoolPig.sol\":21727:21746  _tOwned[sender].sub */\n      tag_249\n      swap1\n        /* \"contracts/Pool/PoolPig.sol\":21727:21755  _tOwned[sender].sub(tAmount) */\n      swap2\n      swap1\n      0xffffffff\n      and\n      jump\t// in\n    tag_502:\n        /* \"contracts/Pool/PoolPig.sol\":21709:21716  _tOwned */\n      0x04\n        /* \"contracts/Pool/PoolPig.sol\":21709:21724  _tOwned[sender] */\n      0x00\n        /* \"contracts/Pool/PoolPig.sol\":21717:21723  sender */\n      dup12\n        /* \"contracts/Pool/PoolPig.sol\":21709:21724  _tOwned[sender] */\n      0xffffffffffffffffffffffffffffffffffffffff\n      and\n      0xffffffffffffffffffffffffffffffffffffffff\n      and\n      dup2\n      mstore\n      0x20\n      add\n      swap1\n      dup2\n      mstore\n      0x20\n      add\n      0x00\n      keccak256\n        /* \"contracts/Pool/PoolPig.sol\":21709:21755  _tOwned[sender] = _tOwned[sender].sub(tAmount) */\n      dup2\n      swap1\n      sstore\n      pop\n        /* \"contracts/Pool/PoolPig.sol\":21783:21811  _rOwned[sender].sub(rAmount) */\n      tag_503\n        /* \"contracts/Pool/PoolPig.sol\":21803:21810  rAmount */\n      dup7\n        /* \"contracts/Pool/PoolPig.sol\":21783:21790  _rOwned */\n      0x03\n        /* \"contracts/Pool/PoolPig.sol\":21783:21798  _rOwned[sender] */\n      0x00\n        /* \"contracts/Pool/PoolPig.sol\":21791:21797  sender */\n      dup13\n        /* \"contracts/Pool/PoolPig.sol\":21783:21798  _rOwned[sender] */\n      0xffffffffffffffffffffffffffffffffffffffff\n      and\n      0xffffffffffffffffffffffffffffffffffffffff\n      and\n      dup2\n      mstore\n      0x20\n      add\n      swap1\n      dup2\n      mstore\n      0x20\n      add\n      0x00\n      keccak256\n      sload\n        /* \"contracts/Pool/PoolPig.sol\":21783:21802  _rOwned[sender].sub */\n      tag_249\n      swap1\n        /* \"contracts/Pool/PoolPig.sol\":21783:21811  _rOwned[sender].sub(rAmount) */\n      swap2\n      swap1\n      0xffffffff\n      and\n      jump\t// in\n    tag_503:\n        /* \"contracts/Pool/PoolPig.sol\":21765:21772  _rOwned */\n      0x03\n        /* \"contracts/Pool/PoolPig.sol\":21765:21780  _rOwned[sender] */\n      0x00\n        /* \"contracts/Pool/PoolPig.sol\":21773:21779  sender */\n      dup12\n        /* \"contracts/Pool/PoolPig.sol\":21765:21780  _rOwned[sender] */\n      0xffffffffffffffffffffffffffffffffffffffff\n      and\n      0xffffffffffffffffffffffffffffffffffffffff\n      and\n      dup2\n      mstore\n      0x20\n      add\n      swap1\n      dup2\n      mstore\n      0x20\n      add\n      0x00\n      keccak256\n        /* \"contracts/Pool/PoolPig.sol\":21765:21811  _rOwned[sender] = _rOwned[sender].sub(rAmount) */\n      dup2\n      swap1\n      sstore\n      pop\n        /* \"contracts/Pool/PoolPig.sol\":21842:21881  _tOwned[recipient].add(tTransferAmount) */\n      tag_504\n        /* \"contracts/Pool/PoolPig.sol\":21865:21880  tTransferAmount */\n      dup4\n        /* \"contracts/Pool/PoolPig.sol\":21842:21849  _tOwned */\n      0x04\n        /* \"contracts/Pool/PoolPig.sol\":21842:21860  _tOwned[recipient] */\n      0x00\n        /* \"contracts/Pool/PoolPig.sol\":21850:21859  recipient */\n      dup12\n        /* \"contracts/Pool/PoolPig.sol\":21842:21860  _tOwned[recipient] */\n      0xffffffffffffffffffffffffffffffffffffffff\n      and\n      0xffffffffffffffffffffffffffffffffffffffff\n      and\n      dup2\n      mstore\n      0x20\n      add\n      swap1\n      dup2\n      mstore\n      0x20\n      add\n      0x00\n      keccak256\n      sload\n        /* \"contracts/Pool/PoolPig.sol\":21842:21864  _tOwned[recipient].add */\n      tag_242\n      swap1\n        /* \"contracts/Pool/PoolPig.sol\":21842:21881  _tOwned[recipient].add(tTransferAmount) */\n      swap2\n      swap1\n      0xffffffff\n      and\n      jump\t// in\n    tag_504:\n        /* \"contracts/Pool/PoolPig.sol\":21821:21828  _tOwned */\n      0x04\n        /* \"contracts/Pool/PoolPig.sol\":21821:21839  _tOwned[recipient] */\n      0x00\n        /* \"contracts/Pool/PoolPig.sol\":21829:21838  recipient */\n      dup11\n        /* \"contracts/Pool/PoolPig.sol\":21821:21839  _tOwned[recipient] */\n      0xffffffffffffffffffffffffffffffffffffffff\n      and\n      0xffffffffffffffffffffffffffffffffffffffff\n      and\n      dup2\n      mstore\n      0x20\n      add\n      swap1\n      dup2\n      mstore\n      0x20\n      add\n      0x00\n      keccak256\n        /* \"contracts/Pool/PoolPig.sol\":21821:21881  _tOwned[recipient] = _tOwned[recipient].add(tTransferAmount) */\n      dup2\n      swap1\n      sstore\n      pop\n        /* \"contracts/Pool/PoolPig.sol\":21912:21951  _rOwned[recipient].add(rTransferAmount) */\n      tag_505\n        /* \"contracts/Pool/PoolPig.sol\":21935:21950  rTransferAmount */\n      dup6\n        /* \"contracts/Pool/PoolPig.sol\":21912:21919  _rOwned */\n      0x03\n        /* \"contracts/Pool/PoolPig.sol\":21912:21930  _rOwned[recipient] */\n      0x00\n        /* \"contracts/Pool/PoolPig.sol\":21920:21929  recipient */\n      dup12\n        /* \"contracts/Pool/PoolPig.sol\":21912:21930  _rOwned[recipient] */\n      0xffffffffffffffffffffffffffffffffffffffff\n      and\n      0xffffffffffffffffffffffffffffffffffffffff\n      and\n      dup2\n      mstore\n      0x20\n      add\n      swap1\n      dup2\n      mstore\n      0x20\n      add\n      0x00\n      keccak256\n      sload\n        /* \"contracts/Pool/PoolPig.sol\":21912:21934  _rOwned[recipient].add */\n      tag_242\n      swap1\n        /* \"contracts/Pool/PoolPig.sol\":21912:21951  _rOwned[recipient].add(rTransferAmount) */\n      swap2\n      swap1\n      0xffffffff\n      and\n      jump\t// in\n    tag_505:\n        /* \"contracts/Pool/PoolPig.sol\":21891:21898  _rOwned */\n      0x03\n        /* \"contracts/Pool/PoolPig.sol\":21891:21909  _rOwned[recipient] */\n      0x00\n        /* \"contracts/Pool/PoolPig.sol\":21899:21908  recipient */\n      dup11\n        /* \"contracts/Pool/PoolPig.sol\":21891:21909  _rOwned[recipient] */\n      0xffffffffffffffffffffffffffffffffffffffff\n      and\n      0xffffffffffffffffffffffffffffffffffffffff\n      and\n      dup2\n      mstore\n      0x20\n      add\n      swap1\n      dup2\n      mstore\n      0x20\n      add\n      0x00\n      keccak256\n        /* \"contracts/Pool/PoolPig.sol\":21891:21951  _rOwned[recipient] = _rOwned[recipient].add(rTransferAmount) */\n      dup2\n      swap1\n      sstore\n      pop\n        /* \"contracts/Pool/PoolPig.sol\":21969:21995  _takeLiquidity(tLiquidity) */\n      tag_506\n        /* \"contracts/Pool/PoolPig.sol\":21984:21994  tLiquidity */\n      dup2\n        /* \"contracts/Pool/PoolPig.sol\":21969:21983  _takeLiquidity */\n      tag_484\n        /* \"contracts/Pool/PoolPig.sol\":21969:21995  _takeLiquidity(tLiquidity) */\n      jump\t// in\n    tag_506:\n        /* \"contracts/Pool/PoolPig.sol\":22005:22028  _reflectFee(rFee, tFee) */\n      tag_507\n        /* \"contracts/Pool/PoolPig.sol\":22017:22021  rFee */\n      dup5\n        /* \"contracts/Pool/PoolPig.sol\":22023:22027  tFee */\n      dup4\n        /* \"contracts/Pool/PoolPig.sol\":22005:22016  _reflectFee */\n      tag_486\n        /* \"contracts/Pool/PoolPig.sol\":22005:22028  _reflectFee(rFee, tFee) */\n      jump\t// in\n    tag_507:\n        /* \"contracts/Pool/PoolPig.sol\":22060:22069  recipient */\n      dup8\n        /* \"contracts/Pool/PoolPig.sol\":22043:22087  Transfer(sender, recipient, tTransferAmount) */\n      0xffffffffffffffffffffffffffffffffffffffff\n      and\n        /* \"contracts/Pool/PoolPig.sol\":22052:22058  sender */\n      dup10\n        /* \"contracts/Pool/PoolPig.sol\":22043:22087  Transfer(sender, recipient, tTransferAmount) */\n      0xffffffffffffffffffffffffffffffffffffffff\n      and\n      0xddf252ad1be2c89b69c2b068fc378daa952ba7f163c4a11628f55a4df523b3ef\n        /* \"contracts/Pool/PoolPig.sol\":22071:22086  tTransferAmount */\n      dup6\n        /* \"contracts/Pool/PoolPig.sol\":22043:22087  Transfer(sender, recipient, tTransferAmount) */\n      mload(0x40)\n      dup1\n      dup3\n      dup2\n      mstore\n      0x20\n      add\n      swap2\n      pop\n      pop\n      mload(0x40)\n      dup1\n      swap2\n      sub\n      swap1\n      log3\n        /* \"contracts/Pool/PoolPig.sol\":21461:22094  function _transferBothExcluded(address sender, address recipient, uint256 tAmount) private {... */\n      pop\n      pop\n      pop\n      pop\n      pop\n      pop\n      pop\n      pop\n      pop\n      jump\t// out\n        /* \"contracts/Pool/PoolPig.sol\":26010:26132  function restoreAllFee() private {... */\n    tag_413:\n        /* \"contracts/Pool/PoolPig.sol\":26063:26078  _previousTaxFee */\n      sload(0x0f)\n        /* \"contracts/Pool/PoolPig.sol\":26053:26060  _taxFee */\n      0x0e\n        /* \"contracts/Pool/PoolPig.sol\":26053:26078  _taxFee = _previousTaxFee */\n      dup2\n      swap1\n      sstore\n      pop\n        /* \"contracts/Pool/PoolPig.sol\":26104:26125  _previousLiquidityFee */\n      sload(0x11)\n        /* \"contracts/Pool/PoolPig.sol\":26088:26101  _liquidityFee */\n      0x10\n        /* \"contracts/Pool/PoolPig.sol\":26088:26125  _liquidityFee = _previousLiquidityFee */\n      dup2\n      swap1\n      sstore\n      pop\n        /* \"contracts/Pool/PoolPig.sol\":26010:26132  function restoreAllFee() private {... */\n      jump\t// out\n        /* \"contracts/Pool/PoolPig.sol\":25430:25580  function calculateTaxFee(uint256 _amount) private view returns (uint256) {... */\n    tag_441:\n        /* \"contracts/Pool/PoolPig.sol\":25494:25501  uint256 */\n      0x00\n        /* \"contracts/Pool/PoolPig.sol\":25520:25573  _amount.mul(_taxFee).div(... */\n      tag_510\n        /* \"contracts/Pool/PoolPig.sol\":25558:25563  10**2 */\n      0x64\n        /* \"contracts/Pool/PoolPig.sol\":25520:25540  _amount.mul(_taxFee) */\n      tag_511\n        /* \"contracts/Pool/PoolPig.sol\":25532:25539  _taxFee */\n      sload(0x0e)\n        /* \"contracts/Pool/PoolPig.sol\":25520:25527  _amount */\n      dup6\n        /* \"contracts/Pool/PoolPig.sol\":25520:25531  _amount.mul */\n      tag_310\n      swap1\n        /* \"contracts/Pool/PoolPig.sol\":25520:25540  _amount.mul(_taxFee) */\n      swap2\n      swap1\n      0xffffffff\n      and\n      jump\t// in\n    tag_511:\n        /* \"contracts/Pool/PoolPig.sol\":25520:25544  _amount.mul(_taxFee).div */\n      tag_218\n      swap1\n        /* \"contracts/Pool/PoolPig.sol\":25520:25573  _amount.mul(_taxFee).div(... */\n      swap2\n      swap1\n      0xffffffff\n      and\n      jump\t// in\n    tag_510:\n        /* \"contracts/Pool/PoolPig.sol\":25513:25573  return _amount.mul(_taxFee).div(... */\n      swap1\n      pop\n        /* \"contracts/Pool/PoolPig.sol\":25430:25580  function calculateTaxFee(uint256 _amount) private view returns (uint256) {... */\n      swap2\n      swap1\n      pop\n      jump\t// out\n        /* \"contracts/Pool/PoolPig.sol\":25586:25748  function calculateLiquidityFee(uint256 _amount) private view returns (uint256) {... */\n    tag_443:\n        /* \"contracts/Pool/PoolPig.sol\":25656:25663  uint256 */\n      0x00\n        /* \"contracts/Pool/PoolPig.sol\":25682:25741  _amount.mul(_liquidityFee).div(... */\n      tag_513\n        /* \"contracts/Pool/PoolPig.sol\":25726:25731  10**2 */\n      0x64\n        /* \"contracts/Pool/PoolPig.sol\":25682:25708  _amount.mul(_liquidityFee) */\n      tag_514\n        /* \"contracts/Pool/PoolPig.sol\":25694:25707  _liquidityFee */\n      sload(0x10)\n        /* \"contracts/Pool/PoolPig.sol\":25682:25689  _amount */\n      dup6\n        /* \"contracts/Pool/PoolPig.sol\":25682:25693  _amount.mul */\n      tag_310\n      swap1\n        /* \"contracts/Pool/PoolPig.sol\":25682:25708  _amount.mul(_liquidityFee) */\n      swap2\n      swap1\n      0xffffffff\n      and\n      jump\t// in\n    tag_514:\n        /* \"contracts/Pool/PoolPig.sol\":25682:25712  _amount.mul(_liquidityFee).div */\n      tag_218\n      swap1\n        /* \"contracts/Pool/PoolPig.sol\":25682:25741  _amount.mul(_liquidityFee).div(... */\n      swap2\n      swap1\n      0xffffffff\n      and\n      jump\t// in\n    tag_513:\n        /* \"contracts/Pool/PoolPig.sol\":25675:25741  return _amount.mul(_liquidityFee).div(... */\n      swap1\n      pop\n        /* \"contracts/Pool/PoolPig.sol\":25586:25748  function calculateLiquidityFee(uint256 _amount) private view returns (uint256) {... */\n      swap2\n      swap1\n      pop\n      jump\t// out\n        /* \"contracts/Pool/PoolPig.sol\":25071:25420  function _takeLiquidity(uint256 tLiquidity) private {... */\n    tag_484:\n        /* \"contracts/Pool/PoolPig.sol\":25133:25152  uint256 currentRate */\n      0x00\n        /* \"contracts/Pool/PoolPig.sol\":25156:25166  _getRate() */\n      tag_516\n        /* \"contracts/Pool/PoolPig.sol\":25156:25164  _getRate */\n      tag_216\n        /* \"contracts/Pool/PoolPig.sol\":25156:25166  _getRate() */\n      jump\t// in\n    tag_516:\n        /* \"contracts/Pool/PoolPig.sol\":25133:25166  uint256 currentRate =  _getRate() */\n      swap1\n      pop\n        /* \"contracts/Pool/PoolPig.sol\":25176:25194  uint256 rLiquidity */\n      0x00\n        /* \"contracts/Pool/PoolPig.sol\":25197:25224  tLiquidity.mul(currentRate) */\n      tag_517\n        /* \"contracts/Pool/PoolPig.sol\":25212:25223  currentRate */\n      dup3\n        /* \"contracts/Pool/PoolPig.sol\":25197:25207  tLiquidity */\n      dup5\n        /* \"contracts/Pool/PoolPig.sol\":25197:25211  tLiquidity.mul */\n      tag_310\n      swap1\n        /* \"contracts/Pool/PoolPig.sol\":25197:25224  tLiquidity.mul(currentRate) */\n      swap2\n      swap1\n      0xffffffff\n      and\n      jump\t// in\n    tag_517:\n        /* \"contracts/Pool/PoolPig.sol\":25176:25224  uint256 rLiquidity = tLiquidity.mul(currentRate) */\n      swap1\n      pop\n        /* \"contracts/Pool/PoolPig.sol\":25259:25297  _rOwned[address(this)].add(rLiquidity) */\n      tag_518\n        /* \"contracts/Pool/PoolPig.sol\":25286:25296  rLiquidity */\n      dup2\n        /* \"contracts/Pool/PoolPig.sol\":25259:25266  _rOwned */\n      0x03\n        /* \"contracts/Pool/PoolPig.sol\":25259:25281  _rOwned[address(this)] */\n      0x00\n        /* \"contracts/Pool/PoolPig.sol\":25275:25279  this */\n      address\n        /* \"contracts/Pool/PoolPig.sol\":25259:25281  _rOwned[address(this)] */\n      0xffffffffffffffffffffffffffffffffffffffff\n      and\n      0xffffffffffffffffffffffffffffffffffffffff\n      and\n      dup2\n      mstore\n      0x20\n      add\n      swap1\n      dup2\n      mstore\n      0x20\n      add\n      0x00\n      keccak256\n      sload\n        /* \"contracts/Pool/PoolPig.sol\":25259:25285  _rOwned[address(this)].add */\n      tag_242\n      swap1\n        /* \"contracts/Pool/PoolPig.sol\":25259:25297  _rOwned[address(this)].add(rLiquidity) */\n      swap2\n      swap1\n      0xffffffff\n      and\n      jump\t// in\n    tag_518:\n        /* \"contracts/Pool/PoolPig.sol\":25234:25241  _rOwned */\n      0x03\n        /* \"contracts/Pool/PoolPig.sol\":25234:25256  _rOwned[address(this)] */\n      0x00\n        /* \"contracts/Pool/PoolPig.sol\":25250:25254  this */\n      address\n        /* \"contracts/Pool/PoolPig.sol\":25234:25256  _rOwned[address(this)] */\n      0xffffffffffffffffffffffffffffffffffffffff\n      and\n      0xffffffffffffffffffffffffffffffffffffffff\n      and\n      dup2\n      mstore\n      0x20\n      add\n      swap1\n      dup2\n      mstore\n      0x20\n      add\n      0x00\n      keccak256\n        /* \"contracts/Pool/PoolPig.sol\":25234:25297  _rOwned[address(this)] = _rOwned[address(this)].add(rLiquidity) */\n      dup2\n      swap1\n      sstore\n      pop\n        /* \"contracts/Pool/PoolPig.sol\":25310:25321  _isExcluded */\n      0x07\n        /* \"contracts/Pool/PoolPig.sol\":25310:25336  _isExcluded[address(this)] */\n      0x00\n        /* \"contracts/Pool/PoolPig.sol\":25330:25334  this */\n      address\n        /* \"contracts/Pool/PoolPig.sol\":25310:25336  _isExcluded[address(this)] */\n      0xffffffffffffffffffffffffffffffffffffffff\n      and\n      0xffffffffffffffffffffffffffffffffffffffff\n      and\n      dup2\n      mstore\n      0x20\n      add\n      swap1\n      dup2\n      mstore\n      0x20\n      add\n      0x00\n      keccak256\n      0x00\n      swap1\n      sload\n      swap1\n      0x0100\n      exp\n      swap1\n      div\n      0xff\n      and\n        /* \"contracts/Pool/PoolPig.sol\":25307:25413  if(_isExcluded[address(this)])... */\n      iszero\n      tag_519\n      jumpi\n        /* \"contracts/Pool/PoolPig.sol\":25375:25413  _tOwned[address(this)].add(tLiquidity) */\n      tag_520\n        /* \"contracts/Pool/PoolPig.sol\":25402:25412  tLiquidity */\n      dup4\n        /* \"contracts/Pool/PoolPig.sol\":25375:25382  _tOwned */\n      0x04\n        /* \"contracts/Pool/PoolPig.sol\":25375:25397  _tOwned[address(this)] */\n      0x00\n        /* \"contracts/Pool/PoolPig.sol\":25391:25395  this */\n      address\n        /* \"contracts/Pool/PoolPig.sol\":25375:25397  _tOwned[address(this)] */\n      0xffffffffffffffffffffffffffffffffffffffff\n      and\n      0xffffffffffffffffffffffffffffffffffffffff\n      and\n      dup2\n      mstore\n      0x20\n      add\n      swap1\n      dup2\n      mstore\n      0x20\n      add\n      0x00\n      keccak256\n      sload\n        /* \"contracts/Pool/PoolPig.sol\":25375:25401  _tOwned[address(this)].add */\n      tag_242\n      swap1\n        /* \"contracts/Pool/PoolPig.sol\":25375:25413  _tOwned[address(this)].add(tLiquidity) */\n      swap2\n      swap1\n      0xffffffff\n      and\n      jump\t// in\n    tag_520:\n        /* \"contracts/Pool/PoolPig.sol\":25350:25357  _tOwned */\n      0x04\n        /* \"contracts/Pool/PoolPig.sol\":25350:25372  _tOwned[address(this)] */\n      0x00\n        /* \"contracts/Pool/PoolPig.sol\":25366:25370  this */\n      address\n        /* \"contracts/Pool/PoolPig.sol\":25350:25372  _tOwned[address(this)] */\n      0xffffffffffffffffffffffffffffffffffffffff\n      and\n      0xffffffffffffffffffffffffffffffffffffffff\n      and\n      dup2\n      mstore\n      0x20\n      add\n      swap1\n      dup2\n      mstore\n      0x20\n      add\n      0x00\n      keccak256\n        /* \"contracts/Pool/PoolPig.sol\":25350:25413  _tOwned[address(this)] = _tOwned[address(this)].add(tLiquidity) */\n      dup2\n      swap1\n      sstore\n      pop\n        /* \"contracts/Pool/PoolPig.sol\":25307:25413  if(_isExcluded[address(this)])... */\n    tag_519:\n        /* \"contracts/Pool/PoolPig.sol\":25071:25420  function _takeLiquidity(uint256 tLiquidity) private {... */\n      pop\n      pop\n      pop\n      jump\t// out\n        /* \"contracts/Pool/PoolPig.sol\":23013:23157  function _reflectFee(uint256 rFee, uint256 tFee) private {... */\n    tag_486:\n        /* \"contracts/Pool/PoolPig.sol\":23090:23107  _rTotal.sub(rFee) */\n      tag_522\n        /* \"contracts/Pool/PoolPig.sol\":23102:23106  rFee */\n      dup3\n        /* \"contracts/Pool/PoolPig.sol\":23090:23097  _rTotal */\n      sload(0x09)\n        /* \"contracts/Pool/PoolPig.sol\":23090:23101  _rTotal.sub */\n      tag_249\n      swap1\n        /* \"contracts/Pool/PoolPig.sol\":23090:23107  _rTotal.sub(rFee) */\n      swap2\n      swap1\n      0xffffffff\n      and\n      jump\t// in\n    tag_522:\n        /* \"contracts/Pool/PoolPig.sol\":23080:23087  _rTotal */\n      0x09\n        /* \"contracts/Pool/PoolPig.sol\":23080:23107  _rTotal = _rTotal.sub(rFee) */\n      dup2\n      swap1\n      sstore\n      pop\n        /* \"contracts/Pool/PoolPig.sol\":23130:23150  _tFeeTotal.add(tFee) */\n      tag_523\n        /* \"contracts/Pool/PoolPig.sol\":23145:23149  tFee */\n      dup2\n        /* \"contracts/Pool/PoolPig.sol\":23130:23140  _tFeeTotal */\n      sload(0x0a)\n        /* \"contracts/Pool/PoolPig.sol\":23130:23144  _tFeeTotal.add */\n      tag_242\n      swap1\n        /* \"contracts/Pool/PoolPig.sol\":23130:23150  _tFeeTotal.add(tFee) */\n      swap2\n      swap1\n      0xffffffff\n      and\n      jump\t// in\n    tag_523:\n        /* \"contracts/Pool/PoolPig.sol\":23117:23127  _tFeeTotal */\n      0x0a\n        /* \"contracts/Pool/PoolPig.sol\":23117:23150  _tFeeTotal = _tFeeTotal.add(tFee) */\n      dup2\n      swap1\n      sstore\n      pop\n        /* \"contracts/Pool/PoolPig.sol\":23013:23157  function _reflectFee(uint256 rFee, uint256 tFee) private {... */\n      pop\n      pop\n      jump\t// out\n    stop\n    data_0557e210f7a69a685100a7e4e3d0a7024c546085cee28910fd17d0b081d9516f 45524332303a207472616e7366657220746f20746865207a65726f2061646472657373\n    data_22f7af55a509c3b14f0d528f087748dec8a8bf425135e3f5dc28c6a31ec6d812 416d6f756e74206d757374206265206c657373207468616e20746f74616c207265666c656374696f6e73\n    data_245f15ff17f551913a7a18385165551503906a406f905ac1c2437281a7cd0cfe 4f776e61626c653a206e6577206f776e657220697320746865207a65726f2061646472657373\n    data_24883cc5fe64ace9d0df1893501ecb93c77180f0ff69cca79affb3c316dc8029 45524332303a20617070726f766520746f20746865207a65726f2061646472657373\n    data_72052210969ce5fd88e52b5e685de9548acef9bb1b6d02e29c1765d0674948dd 5472616e7366657220616d6f756e74206578636565647320746865206d61785478416d6f756e742e\n    data_9113bb53c2876a3805b2c9242029423fc540a728243ce887ab24c82cf119fba3 536166654d6174683a206d756c7469706c69636174696f6e206f766572666c6f77\n    data_974d1b4421da69cc60b481194f0dad36a5bb4e23da810da7a7fb30cdba178330 45524332303a207472616e7366657220616d6f756e74206578636565647320616c6c6f77616e6365\n    data_9edb5ab58321f35d2386ea65721c9b107daa2c273610fc16d394af2a320ba785 5472616e7366657220616d6f756e74206d7573742062652067726561746572207468616e207a65726f\n    data_baecc556b46f4ed0f2b4cb599d60785ac8563dd2dc0a5bf12edea1c39e5e1fea 45524332303a207472616e736665722066726f6d20746865207a65726f2061646472657373\n    data_c953f4879035ed60e766b34720f656aab5c697b141d924c283124ecedb91c208 45524332303a20617070726f76652066726f6d20746865207a65726f2061646472657373\n    data_ecefcaf5fbcf9ca6dcdb02298ba1da96f4ead317b0a4779917ecb2e5e7dc3ac4 4578636c75646564206164647265737365732063616e6e6f742063616c6c20746869732066756e6374696f6e\n    data_f4eb59be3df39931213d374c3658377dca3f0d2b46b7bc965af767c57c74b611 596f7520646f6e27742068617665207065726d697373696f6e20746f20756e6c6f636b\n    data_f8b476f7d28209d77d4a4ac1fe36b9f8259aa1bb6bddfa6e89de7e51615cf8a8 45524332303a2064656372656173656420616c6c6f77616e63652062656c6f77207a65726f\n\n    auxdata: 0xa2646970667358221220dec958bf457b0c27e564d932c9d9d3eff72471956eeb7427b5ae344c30d8461d64736f6c634300060c0033\n}\n",
				"bytecode": {
					"linkReferences": {},
					"object": "60c0604052670de0b6b3a7640000600019816200001857fe5b06600019036009556040518060400160405280600981526020017f50696720546f6b656e0000000000000000000000000000000000000000000000815250600b90805190602001906200006d929190620005fb565b506040518060400160405280600381526020017f5049470000000000000000000000000000000000000000000000000000000000815250600c9080519060200190620000bb929190620005fb565b506009600d60006101000a81548160ff021916908360ff1602179055506002600e55600e54600f5560036010556010546011556001601260016101000a81548160ff0219169083151502179055506706f05b59d3b200006013556934f086f3b33b684000006014553480156200013057600080fd5b50600062000143620005ca60201b60201c565b9050806000806101000a81548173ffffffffffffffffffffffffffffffffffffffff021916908373ffffffffffffffffffffffffffffffffffffffff1602179055508073ffffffffffffffffffffffffffffffffffffffff16600073ffffffffffffffffffffffffffffffffffffffff167f8be0079c531659141344cd1fd0a4f28419497f9722a3daafe3b4186f6b6457e060405160405180910390a35060095460036000620001f8620005ca60201b60201c565b73ffffffffffffffffffffffffffffffffffffffff1673ffffffffffffffffffffffffffffffffffffffff1681526020019081526020016000208190555060007305ff2b0db69458a0750badebc4f9e13add608c7f90508073ffffffffffffffffffffffffffffffffffffffff1663c45a01556040518163ffffffff1660e01b815260040160206040518083038186803b1580156200029657600080fd5b505afa158015620002ab573d6000803e3d6000fd5b505050506040513d6020811015620002c257600080fd5b810190808051906020019092919050505073ffffffffffffffffffffffffffffffffffffffff1663c9c65396308373ffffffffffffffffffffffffffffffffffffffff1663ad5c46486040518163ffffffff1660e01b815260040160206040518083038186803b1580156200033657600080fd5b505afa1580156200034b573d6000803e3d6000fd5b505050506040513d60208110156200036257600080fd5b81019080805190602001909291905050506040518363ffffffff1660e01b8152600401808373ffffffffffffffffffffffffffffffffffffffff1681526020018273ffffffffffffffffffffffffffffffffffffffff16815260200192505050602060405180830381600087803b158015620003dd57600080fd5b505af1158015620003f2573d6000803e3d6000fd5b505050506040513d60208110156200040957600080fd5b810190808051906020019092919050505073ffffffffffffffffffffffffffffffffffffffff1660a08173ffffffffffffffffffffffffffffffffffffffff1660601b815250508073ffffffffffffffffffffffffffffffffffffffff1660808173ffffffffffffffffffffffffffffffffffffffff1660601b815250506001600660006200049d620005d260201b60201c565b73ffffffffffffffffffffffffffffffffffffffff1673ffffffffffffffffffffffffffffffffffffffff16815260200190815260200160002060006101000a81548160ff0219169083151502179055506001600660003073ffffffffffffffffffffffffffffffffffffffff1673ffffffffffffffffffffffffffffffffffffffff16815260200190815260200160002060006101000a81548160ff02191690831515021790555062000556620005ca60201b60201c565b73ffffffffffffffffffffffffffffffffffffffff16600073ffffffffffffffffffffffffffffffffffffffff167fddf252ad1be2c89b69c2b068fc378daa952ba7f163c4a11628f55a4df523b3ef670de0b6b3a76400006040518082815260200191505060405180910390a350620006a1565b600033905090565b60008060009054906101000a900473ffffffffffffffffffffffffffffffffffffffff16905090565b828054600181600116156101000203166002900490600052602060002090601f016020900481019282601f106200063e57805160ff19168380011785556200066f565b828001600101855582156200066f579182015b828111156200066e57825182559160200191906001019062000651565b5b5090506200067e919062000682565b5090565b5b808211156200069d57600081600090555060010162000683565b5090565b60805160601c60a05160601c614e57620006e9600039806118425280612fb0525080610ee65280613cb45280613da05280613dc75280613ed25280613ef95250614e576000f3fe60806040526004361061021e5760003560e01c80635342acb411610123578063a457c2d7116100ab578063d543dbeb1161006f578063d543dbeb14610bab578063dd46706414610be6578063dd62ed3e14610c21578063ea2f0b3714610ca6578063f2fde38b14610cf757610225565b8063a457c2d714610a4a578063a69df4b514610abb578063a9059cbb14610ad2578063b6c5232414610b43578063c49b9a8014610b6e57610225565b80637d1db4a5116100f25780637d1db4a5146108ac57806388f82020146108d75780638da5cb5b1461093e5780638ee88c531461097f57806395d89b41146109ba57610225565b80635342acb41461079e5780636bc87c3a1461080557806370a0823114610830578063715018a61461089557610225565b80633685d419116101a6578063437823ec11610175578063437823ec146106335780634549b0391461068457806349bd5a5e146106df5780634a74bb021461072057806352390c021461074d57610225565b80633685d4191461050b578063395093511461055c5780633b124fe7146105cd5780633bd5d173146105f857610225565b80631694505e116101ed5780631694505e1461039157806318160ddd146103d257806323b872dd146103fd5780632d8381191461048e578063313ce567146104dd57610225565b8063061c82d01461022a57806306fdde0314610265578063095ea7b3146102f557806313114a9d1461036657610225565b3661022557005b600080fd5b34801561023657600080fd5b506102636004803603602081101561024d57600080fd5b8101908080359060200190929190505050610d48565b005b34801561027157600080fd5b5061027a610e1a565b6040518080602001828103825283818151815260200191508051906020019080838360005b838110156102ba57808201518184015260208101905061029f565b50505050905090810190601f1680156102e75780820380516001836020036101000a031916815260200191505b509250505060405180910390f35b34801561030157600080fd5b5061034e6004803603604081101561031857600080fd5b81019080803573ffffffffffffffffffffffffffffffffffffffff16906020019092919080359060200190929190505050610ebc565b60405180821515815260200191505060405180910390f35b34801561037257600080fd5b5061037b610eda565b6040518082815260200191505060405180910390f35b34801561039d57600080fd5b506103a6610ee4565b604051808273ffffffffffffffffffffffffffffffffffffffff16815260200191505060405180910390f35b3480156103de57600080fd5b506103e7610f08565b6040518082815260200191505060405180910390f35b34801561040957600080fd5b506104766004803603606081101561042057600080fd5b81019080803573ffffffffffffffffffffffffffffffffffffffff169060200190929190803573ffffffffffffffffffffffffffffffffffffffff16906020019092919080359060200190929190505050610f18565b60405180821515815260200191505060405180910390f35b34801561049a57600080fd5b506104c7600480360360208110156104b157600080fd5b8101908080359060200190929190505050610ff1565b6040518082815260200191505060405180910390f35b3480156104e957600080fd5b506104f2611075565b604051808260ff16815260200191505060405180910390f35b34801561051757600080fd5b5061055a6004803603602081101561052e57600080fd5b81019080803573ffffffffffffffffffffffffffffffffffffffff16906020019092919050505061108c565b005b34801561056857600080fd5b506105b56004803603604081101561057f57600080fd5b81019080803573ffffffffffffffffffffffffffffffffffffffff16906020019092919080359060200190929190505050611416565b60405180821515815260200191505060405180910390f35b3480156105d957600080fd5b506105e26114c9565b6040518082815260200191505060405180910390f35b34801561060457600080fd5b506106316004803603602081101561061b57600080fd5b81019080803590602001909291905050506114cf565b005b34801561063f57600080fd5b506106826004803603602081101561065657600080fd5b81019080803573ffffffffffffffffffffffffffffffffffffffff169060200190929190505050611660565b005b34801561069057600080fd5b506106c9600480360360408110156106a757600080fd5b8101908080359060200190929190803515159060200190929190505050611783565b6040518082815260200191505060405180910390f35b3480156106eb57600080fd5b506106f4611840565b604051808273ffffffffffffffffffffffffffffffffffffffff16815260200191505060405180910390f35b34801561072c57600080fd5b50610735611864565b60405180821515815260200191505060405180910390f35b34801561075957600080fd5b5061079c6004803603602081101561077057600080fd5b81019080803573ffffffffffffffffffffffffffffffffffffffff169060200190929190505050611877565b005b3480156107aa57600080fd5b506107ed600480360360208110156107c157600080fd5b81019080803573ffffffffffffffffffffffffffffffffffffffff169060200190929190505050611b91565b60405180821515815260200191505060405180910390f35b34801561081157600080fd5b5061081a611be7565b6040518082815260200191505060405180910390f35b34801561083c57600080fd5b5061087f6004803603602081101561085357600080fd5b81019080803573ffffffffffffffffffffffffffffffffffffffff169060200190929190505050611bed565b6040518082815260200191505060405180910390f35b3480156108a157600080fd5b506108aa611cd8565b005b3480156108b857600080fd5b506108c1611e5e565b6040518082815260200191505060405180910390f35b3480156108e357600080fd5b50610926600480360360208110156108fa57600080fd5b81019080803573ffffffffffffffffffffffffffffffffffffffff169060200190929190505050611e64565b60405180821515815260200191505060405180910390f35b34801561094a57600080fd5b50610953611eba565b604051808273ffffffffffffffffffffffffffffffffffffffff16815260200191505060405180910390f35b34801561098b57600080fd5b506109b8600480360360208110156109a257600080fd5b8101908080359060200190929190505050611ee3565b005b3480156109c657600080fd5b506109cf611fb5565b6040518080602001828103825283818151815260200191508051906020019080838360005b83811015610a0f5780820151818401526020810190506109f4565b50505050905090810190601f168015610a3c5780820380516001836020036101000a031916815260200191505b509250505060405180910390f35b348015610a5657600080fd5b50610aa360048036036040811015610a6d57600080fd5b81019080803573ffffffffffffffffffffffffffffffffffffffff16906020019092919080359060200190929190505050612057565b60405180821515815260200191505060405180910390f35b348015610ac757600080fd5b50610ad0612124565b005b348015610ade57600080fd5b50610b2b60048036036040811015610af557600080fd5b81019080803573ffffffffffffffffffffffffffffffffffffffff16906020019092919080359060200190929190505050612341565b60405180821515815260200191505060405180910390f35b348015610b4f57600080fd5b50610b5861235f565b6040518082815260200191505060405180910390f35b348015610b7a57600080fd5b50610ba960048036036020811015610b9157600080fd5b81019080803515159060200190929190505050612369565b005b348015610bb757600080fd5b50610be460048036036020811015610bce57600080fd5b8101908080359060200190929190505050612487565b005b348015610bf257600080fd5b50610c1f60048036036020811015610c0957600080fd5b8101908080359060200190929190505050612586565b005b348015610c2d57600080fd5b50610c9060048036036040811015610c4457600080fd5b81019080803573ffffffffffffffffffffffffffffffffffffffff169060200190929190803573ffffffffffffffffffffffffffffffffffffffff169060200190929190505050612777565b6040518082815260200191505060405180910390f35b348015610cb257600080fd5b50610cf560048036036020811015610cc957600080fd5b81019080803573ffffffffffffffffffffffffffffffffffffffff1690602001909291905050506127fe565b005b348015610d0357600080fd5b50610d4660048036036020811015610d1a57600080fd5b81019080803573ffffffffffffffffffffffffffffffffffffffff169060200190929190505050612921565b005b610d50612b2c565b73ffffffffffffffffffffffffffffffffffffffff1660008054906101000a900473ffffffffffffffffffffffffffffffffffffffff1673ffffffffffffffffffffffffffffffffffffffff1614610e10576040517f08c379a00000000000000000000000000000000000000000000000000000000081526004018080602001828103825260208152602001807f4f776e61626c653a2063616c6c6572206973206e6f7420746865206f776e657281525060200191505060405180910390fd5b80600e8190555050565b6060600b8054600181600116156101000203166002900480601f016020809104026020016040519081016040528092919081815260200182805460018160011615610100020316600290048015610eb25780601f10610e8757610100808354040283529160200191610eb2565b820191906000526020600020905b815481529060010190602001808311610e9557829003601f168201915b5050505050905090565b6000610ed0610ec9612b2c565b8484612b34565b6001905092915050565b6000600a54905090565b7f000000000000000000000000000000000000000000000000000000000000000081565b6000670de0b6b3a7640000905090565b6000610f25848484612d2b565b610fe684610f31612b2c565b610fe185604051806060016040528060288152602001614d1460289139600560008b73ffffffffffffffffffffffffffffffffffffffff1673ffffffffffffffffffffffffffffffffffffffff1681526020019081526020016000206000610f97612b2c565b73ffffffffffffffffffffffffffffffffffffffff1673ffffffffffffffffffffffffffffffffffffffff168152602001908152602001600020546130f09092919063ffffffff16565b612b34565b600190509392505050565b600060095482111561104e576040517f08c379a000000000000000000000000000000000000000000000000000000000815260040180806020018281038252602a815260200180614c59602a913960400191505060405180910390fd5b60006110586131b0565b905061106d81846131db90919063ffffffff16565b915050919050565b6000600d60009054906101000a900460ff16905090565b611094612b2c565b73ffffffffffffffffffffffffffffffffffffffff1660008054906101000a900473ffffffffffffffffffffffffffffffffffffffff1673ffffffffffffffffffffffffffffffffffffffff1614611154576040517f08c379a00000000000000000000000000000000000000000000000000000000081526004018080602001828103825260208152602001807f4f776e61626c653a2063616c6c6572206973206e6f7420746865206f776e657281525060200191505060405180910390fd5b600760008273ffffffffffffffffffffffffffffffffffffffff1673ffffffffffffffffffffffffffffffffffffffff16815260200190815260200160002060009054906101000a900460ff16611213576040517f08c379a000000000000000000000000000000000000000000000000000000000815260040180806020018281038252601b8152602001807f4163636f756e7420697320616c7265616479206578636c75646564000000000081525060200191505060405180910390fd5b60005b600880549050811015611412578173ffffffffffffffffffffffffffffffffffffffff166008828154811061124757fe5b9060005260206000200160009054906101000a900473ffffffffffffffffffffffffffffffffffffffff1673ffffffffffffffffffffffffffffffffffffffff161415611405576008600160088054905003815481106112a357fe5b9060005260206000200160009054906101000a900473ffffffffffffffffffffffffffffffffffffffff16600882815481106112db57fe5b9060005260206000200160006101000a81548173ffffffffffffffffffffffffffffffffffffffff021916908373ffffffffffffffffffffffffffffffffffffffff1602179055506000600460008473ffffffffffffffffffffffffffffffffffffffff1673ffffffffffffffffffffffffffffffffffffffff168152602001908152602001600020819055506000600760008473ffffffffffffffffffffffffffffffffffffffff1673ffffffffffffffffffffffffffffffffffffffff16815260200190815260200160002060006101000a81548160ff02191690831515021790555060088054806113cb57fe5b6001900381819060005260206000200160006101000a81549073ffffffffffffffffffffffffffffffffffffffff02191690559055611412565b8080600101915050611216565b5050565b60006114bf611423612b2c565b846114ba8560056000611434612b2c565b73ffffffffffffffffffffffffffffffffffffffff1673ffffffffffffffffffffffffffffffffffffffff16815260200190815260200160002060008973ffffffffffffffffffffffffffffffffffffffff1673ffffffffffffffffffffffffffffffffffffffff1681526020019081526020016000205461322590919063ffffffff16565b612b34565b6001905092915050565b600e5481565b60006114d9612b2c565b9050600760008273ffffffffffffffffffffffffffffffffffffffff1673ffffffffffffffffffffffffffffffffffffffff16815260200190815260200160002060009054906101000a900460ff161561157e576040517f08c379a000000000000000000000000000000000000000000000000000000000815260040180806020018281038252602c815260200180614dae602c913960400191505060405180910390fd5b6000611589836132ad565b505050505090506115e281600360008573ffffffffffffffffffffffffffffffffffffffff1673ffffffffffffffffffffffffffffffffffffffff1681526020019081526020016000205461330990919063ffffffff16565b600360008473ffffffffffffffffffffffffffffffffffffffff1673ffffffffffffffffffffffffffffffffffffffff1681526020019081526020016000208190555061163a8160095461330990919063ffffffff16565b60098190555061165583600a5461322590919063ffffffff16565b600a81905550505050565b611668612b2c565b73ffffffffffffffffffffffffffffffffffffffff1660008054906101000a900473ffffffffffffffffffffffffffffffffffffffff1673ffffffffffffffffffffffffffffffffffffffff1614611728576040517f08c379a00000000000000000000000000000000000000000000000000000000081526004018080602001828103825260208152602001807f4f776e61626c653a2063616c6c6572206973206e6f7420746865206f776e657281525060200191505060405180910390fd5b6001600660008373ffffffffffffffffffffffffffffffffffffffff1673ffffffffffffffffffffffffffffffffffffffff16815260200190815260200160002060006101000a81548160ff02191690831515021790555050565b6000670de0b6b3a7640000831115611803576040517f08c379a000000000000000000000000000000000000000000000000000000000815260040180806020018281038252601f8152602001807f416d6f756e74206d757374206265206c657373207468616e20737570706c790081525060200191505060405180910390fd5b81611823576000611813846132ad565b505050505090508091505061183a565b600061182e846132ad565b50505050915050809150505b92915050565b7f000000000000000000000000000000000000000000000000000000000000000081565b601260019054906101000a900460ff1681565b61187f612b2c565b73ffffffffffffffffffffffffffffffffffffffff1660008054906101000a900473ffffffffffffffffffffffffffffffffffffffff1673ffffffffffffffffffffffffffffffffffffffff161461193f576040517f08c379a00000000000000000000000000000000000000000000000000000000081526004018080602001828103825260208152602001807f4f776e61626c653a2063616c6c6572206973206e6f7420746865206f776e657281525060200191505060405180910390fd5b600760008273ffffffffffffffffffffffffffffffffffffffff1673ffffffffffffffffffffffffffffffffffffffff16815260200190815260200160002060009054906101000a900460ff16156119ff576040517f08c379a000000000000000000000000000000000000000000000000000000000815260040180806020018281038252601b8152602001807f4163636f756e7420697320616c7265616479206578636c75646564000000000081525060200191505060405180910390fd5b6000600360008373ffffffffffffffffffffffffffffffffffffffff1673ffffffffffffffffffffffffffffffffffffffff168152602001908152602001600020541115611ad357611a8f600360008373ffffffffffffffffffffffffffffffffffffffff1673ffffffffffffffffffffffffffffffffffffffff16815260200190815260200160002054610ff1565b600460008373ffffffffffffffffffffffffffffffffffffffff1673ffffffffffffffffffffffffffffffffffffffff168152602001908152602001600020819055505b6001600760008373ffffffffffffffffffffffffffffffffffffffff1673ffffffffffffffffffffffffffffffffffffffff16815260200190815260200160002060006101000a81548160ff0219169083151502179055506008819080600181540180825580915050600190039060005260206000200160009091909190916101000a81548173ffffffffffffffffffffffffffffffffffffffff021916908373ffffffffffffffffffffffffffffffffffffffff16021790555050565b6000600660008373ffffffffffffffffffffffffffffffffffffffff1673ffffffffffffffffffffffffffffffffffffffff16815260200190815260200160002060009054906101000a900460ff169050919050565b60105481565b6000600760008373ffffffffffffffffffffffffffffffffffffffff1673ffffffffffffffffffffffffffffffffffffffff16815260200190815260200160002060009054906101000a900460ff1615611c8857600460008373ffffffffffffffffffffffffffffffffffffffff1673ffffffffffffffffffffffffffffffffffffffff168152602001908152602001600020549050611cd3565b611cd0600360008473ffffffffffffffffffffffffffffffffffffffff1673ffffffffffffffffffffffffffffffffffffffff16815260200190815260200160002054610ff1565b90505b919050565b611ce0612b2c565b73ffffffffffffffffffffffffffffffffffffffff1660008054906101000a900473ffffffffffffffffffffffffffffffffffffffff1673ffffffffffffffffffffffffffffffffffffffff1614611da0576040517f08c379a00000000000000000000000000000000000000000000000000000000081526004018080602001828103825260208152602001807f4f776e61626c653a2063616c6c6572206973206e6f7420746865206f776e657281525060200191505060405180910390fd5b600073ffffffffffffffffffffffffffffffffffffffff1660008054906101000a900473ffffffffffffffffffffffffffffffffffffffff1673ffffffffffffffffffffffffffffffffffffffff167f8be0079c531659141344cd1fd0a4f28419497f9722a3daafe3b4186f6b6457e060405160405180910390a360008060006101000a81548173ffffffffffffffffffffffffffffffffffffffff021916908373ffffffffffffffffffffffffffffffffffffffff160217905550565b60135481565b6000600760008373ffffffffffffffffffffffffffffffffffffffff1673ffffffffffffffffffffffffffffffffffffffff16815260200190815260200160002060009054906101000a900460ff169050919050565b60008060009054906101000a900473ffffffffffffffffffffffffffffffffffffffff16905090565b611eeb612b2c565b73ffffffffffffffffffffffffffffffffffffffff1660008054906101000a900473ffffffffffffffffffffffffffffffffffffffff1673ffffffffffffffffffffffffffffffffffffffff1614611fab576040517f08c379a00000000000000000000000000000000000000000000000000000000081526004018080602001828103825260208152602001807f4f776e61626c653a2063616c6c6572206973206e6f7420746865206f776e657281525060200191505060405180910390fd5b8060108190555050565b6060600c8054600181600116156101000203166002900480601f01602080910402602001604051908101604052809291908181526020018280546001816001161561010002031660029004801561204d5780601f106120225761010080835404028352916020019161204d565b820191906000526020600020905b81548152906001019060200180831161203057829003601f168201915b5050505050905090565b600061211a612064612b2c565b8461211585604051806060016040528060258152602001614dfd602591396005600061208e612b2c565b73ffffffffffffffffffffffffffffffffffffffff1673ffffffffffffffffffffffffffffffffffffffff16815260200190815260200160002060008a73ffffffffffffffffffffffffffffffffffffffff1673ffffffffffffffffffffffffffffffffffffffff168152602001908152602001600020546130f09092919063ffffffff16565b612b34565b6001905092915050565b3373ffffffffffffffffffffffffffffffffffffffff16600160009054906101000a900473ffffffffffffffffffffffffffffffffffffffff1673ffffffffffffffffffffffffffffffffffffffff16146121ca576040517f08c379a0000000000000000000000000000000000000000000000000000000008152600401808060200182810382526023815260200180614dda6023913960400191505060405180910390fd5b6002544211612241576040517f08c379a000000000000000000000000000000000000000000000000000000000815260040180806020018281038252601f8152602001807f436f6e7472616374206973206c6f636b656420756e74696c203720646179730081525060200191505060405180910390fd5b600160009054906101000a900473ffffffffffffffffffffffffffffffffffffffff1673ffffffffffffffffffffffffffffffffffffffff1660008054906101000a900473ffffffffffffffffffffffffffffffffffffffff1673ffffffffffffffffffffffffffffffffffffffff167f8be0079c531659141344cd1fd0a4f28419497f9722a3daafe3b4186f6b6457e060405160405180910390a3600160009054906101000a900473ffffffffffffffffffffffffffffffffffffffff166000806101000a81548173ffffffffffffffffffffffffffffffffffffffff021916908373ffffffffffffffffffffffffffffffffffffffff160217905550565b600061235561234e612b2c565b8484612d2b565b6001905092915050565b6000600254905090565b612371612b2c565b73ffffffffffffffffffffffffffffffffffffffff1660008054906101000a900473ffffffffffffffffffffffffffffffffffffffff1673ffffffffffffffffffffffffffffffffffffffff1614612431576040517f08c379a00000000000000000000000000000000000000000000000000000000081526004018080602001828103825260208152602001807f4f776e61626c653a2063616c6c6572206973206e6f7420746865206f776e657281525060200191505060405180910390fd5b80601260016101000a81548160ff0219169083151502179055507f53726dfcaf90650aa7eb35524f4d3220f07413c8d6cb404cc8c18bf5591bc1598160405180821515815260200191505060405180910390a150565b61248f612b2c565b73ffffffffffffffffffffffffffffffffffffffff1660008054906101000a900473ffffffffffffffffffffffffffffffffffffffff1673ffffffffffffffffffffffffffffffffffffffff161461254f576040517f08c379a00000000000000000000000000000000000000000000000000000000081526004018080602001828103825260208152602001807f4f776e61626c653a2063616c6c6572206973206e6f7420746865206f776e657281525060200191505060405180910390fd5b61257d606461256f83670de0b6b3a764000061335390919063ffffffff16565b6131db90919063ffffffff16565b60138190555050565b61258e612b2c565b73ffffffffffffffffffffffffffffffffffffffff1660008054906101000a900473ffffffffffffffffffffffffffffffffffffffff1673ffffffffffffffffffffffffffffffffffffffff161461264e576040517f08c379a00000000000000000000000000000000000000000000000000000000081526004018080602001828103825260208152602001807f4f776e61626c653a2063616c6c6572206973206e6f7420746865206f776e657281525060200191505060405180910390fd5b60008054906101000a900473ffffffffffffffffffffffffffffffffffffffff16600160006101000a81548173ffffffffffffffffffffffffffffffffffffffff021916908373ffffffffffffffffffffffffffffffffffffffff16021790555060008060006101000a81548173ffffffffffffffffffffffffffffffffffffffff021916908373ffffffffffffffffffffffffffffffffffffffff160217905550804201600281905550600073ffffffffffffffffffffffffffffffffffffffff1660008054906101000a900473ffffffffffffffffffffffffffffffffffffffff1673ffffffffffffffffffffffffffffffffffffffff167f8be0079c531659141344cd1fd0a4f28419497f9722a3daafe3b4186f6b6457e060405160405180910390a350565b6000600560008473ffffffffffffffffffffffffffffffffffffffff1673ffffffffffffffffffffffffffffffffffffffff16815260200190815260200160002060008373ffffffffffffffffffffffffffffffffffffffff1673ffffffffffffffffffffffffffffffffffffffff16815260200190815260200160002054905092915050565b612806612b2c565b73ffffffffffffffffffffffffffffffffffffffff1660008054906101000a900473ffffffffffffffffffffffffffffffffffffffff1673ffffffffffffffffffffffffffffffffffffffff16146128c6576040517f08c379a00000000000000000000000000000000000000000000000000000000081526004018080602001828103825260208152602001807f4f776e61626c653a2063616c6c6572206973206e6f7420746865206f776e657281525060200191505060405180910390fd5b6000600660008373ffffffffffffffffffffffffffffffffffffffff1673ffffffffffffffffffffffffffffffffffffffff16815260200190815260200160002060006101000a81548160ff02191690831515021790555050565b612929612b2c565b73ffffffffffffffffffffffffffffffffffffffff1660008054906101000a900473ffffffffffffffffffffffffffffffffffffffff1673ffffffffffffffffffffffffffffffffffffffff16146129e9576040517f08c379a00000000000000000000000000000000000000000000000000000000081526004018080602001828103825260208152602001807f4f776e61626c653a2063616c6c6572206973206e6f7420746865206f776e657281525060200191505060405180910390fd5b600073ffffffffffffffffffffffffffffffffffffffff168173ffffffffffffffffffffffffffffffffffffffff161415612a6f576040517f08c379a0000000000000000000000000000000000000000000000000000000008152600401808060200182810382526026815260200180614c836026913960400191505060405180910390fd5b8073ffffffffffffffffffffffffffffffffffffffff1660008054906101000a900473ffffffffffffffffffffffffffffffffffffffff1673ffffffffffffffffffffffffffffffffffffffff167f8be0079c531659141344cd1fd0a4f28419497f9722a3daafe3b4186f6b6457e060405160405180910390a3806000806101000a81548173ffffffffffffffffffffffffffffffffffffffff021916908373ffffffffffffffffffffffffffffffffffffffff16021790555050565b600033905090565b600073ffffffffffffffffffffffffffffffffffffffff168373ffffffffffffffffffffffffffffffffffffffff161415612bba576040517f08c379a0000000000000000000000000000000000000000000000000000000008152600401808060200182810382526024815260200180614d8a6024913960400191505060405180910390fd5b600073ffffffffffffffffffffffffffffffffffffffff168273ffffffffffffffffffffffffffffffffffffffff161415612c40576040517f08c379a0000000000000000000000000000000000000000000000000000000008152600401808060200182810382526022815260200180614ca96022913960400191505060405180910390fd5b80600560008573ffffffffffffffffffffffffffffffffffffffff1673ffffffffffffffffffffffffffffffffffffffff16815260200190815260200160002060008473ffffffffffffffffffffffffffffffffffffffff1673ffffffffffffffffffffffffffffffffffffffff168152602001908152602001600020819055508173ffffffffffffffffffffffffffffffffffffffff168373ffffffffffffffffffffffffffffffffffffffff167f8c5be1e5ebec7d5bd14f71427d1e84f3dd0314c0f7b2291e5b200ac8c7c3b925836040518082815260200191505060405180910390a3505050565b600073ffffffffffffffffffffffffffffffffffffffff168373ffffffffffffffffffffffffffffffffffffffff161415612db1576040517f08c379a0000000000000000000000000000000000000000000000000000000008152600401808060200182810382526025815260200180614d656025913960400191505060405180910390fd5b600073ffffffffffffffffffffffffffffffffffffffff168273ffffffffffffffffffffffffffffffffffffffff161415612e37576040517f08c379a0000000000000000000000000000000000000000000000000000000008152600401808060200182810382526023815260200180614c366023913960400191505060405180910390fd5b60008111612e90576040517f08c379a0000000000000000000000000000000000000000000000000000000008152600401808060200182810382526029815260200180614d3c6029913960400191505060405180910390fd5b612e98611eba565b73ffffffffffffffffffffffffffffffffffffffff168373ffffffffffffffffffffffffffffffffffffffff1614158015612f065750612ed6611eba565b73ffffffffffffffffffffffffffffffffffffffff168273ffffffffffffffffffffffffffffffffffffffff1614155b15612f6757601354811115612f66576040517f08c379a0000000000000000000000000000000000000000000000000000000008152600401808060200182810382526028815260200180614ccb6028913960400191505060405180910390fd5b5b6000612f7230611bed565b90506013548110612f835760135490505b60006014548210159050808015612fa75750601260009054906101000a900460ff16155b8015612fff57507f000000000000000000000000000000000000000000000000000000000000000073ffffffffffffffffffffffffffffffffffffffff168573ffffffffffffffffffffffffffffffffffffffff1614155b80156130175750601260019054906101000a900460ff165b1561302b57601454915061302a826133d9565b5b600060019050600660008773ffffffffffffffffffffffffffffffffffffffff1673ffffffffffffffffffffffffffffffffffffffff16815260200190815260200160002060009054906101000a900460ff16806130d25750600660008673ffffffffffffffffffffffffffffffffffffffff1673ffffffffffffffffffffffffffffffffffffffff16815260200190815260200160002060009054906101000a900460ff165b156130dc57600090505b6130e8868686846134bb565b505050505050565b600083831115829061319d576040517f08c379a00000000000000000000000000000000000000000000000000000000081526004018080602001828103825283818151815260200191508051906020019080838360005b83811015613162578082015181840152602081019050613147565b50505050905090810190601f16801561318f5780820380516001836020036101000a031916815260200191505b509250505060405180910390fd5b5060008385039050809150509392505050565b60008060006131bd6137cc565b915091506131d481836131db90919063ffffffff16565b9250505090565b600061321d83836040518060400160405280601a81526020017f536166654d6174683a206469766973696f6e206279207a65726f000000000000815250613a75565b905092915050565b6000808284019050838110156132a3576040517f08c379a000000000000000000000000000000000000000000000000000000000815260040180806020018281038252601b8152602001807f536166654d6174683a206164646974696f6e206f766572666c6f77000000000081525060200191505060405180910390fd5b8091505092915050565b60008060008060008060008060006132c48a613b3b565b92509250925060008060006132e28d86866132dd6131b0565b613b95565b9250925092508282828888889b509b509b509b509b509b5050505050505091939550919395565b600061334b83836040518060400160405280601e81526020017f536166654d6174683a207375627472616374696f6e206f766572666c6f7700008152506130f0565b905092915050565b60008083141561336657600090506133d3565b600082840290508284828161337757fe5b04146133ce576040517f08c379a0000000000000000000000000000000000000000000000000000000008152600401808060200182810382526021815260200180614cf36021913960400191505060405180910390fd5b809150505b92915050565b6001601260006101000a81548160ff021916908315150217905550600061340a6002836131db90919063ffffffff16565b90506000613421828461330990919063ffffffff16565b9050600047905061343183613c1e565b6000613446824761330990919063ffffffff16565b90506134528382613ecc565b7f17bbfb9a6069321b6ded73bd96327c9e6b7212a5cd51ff219cd61370acafb56184828560405180848152602001838152602001828152602001935050505060405180910390a1505050506000601260006101000a81548160ff02191690831515021790555050565b806134c9576134c861401d565b5b600760008573ffffffffffffffffffffffffffffffffffffffff1673ffffffffffffffffffffffffffffffffffffffff16815260200190815260200160002060009054906101000a900460ff16801561356c5750600760008473ffffffffffffffffffffffffffffffffffffffff1673ffffffffffffffffffffffffffffffffffffffff16815260200190815260200160002060009054906101000a900460ff16155b156135815761357c848484614060565b6137b8565b600760008573ffffffffffffffffffffffffffffffffffffffff1673ffffffffffffffffffffffffffffffffffffffff16815260200190815260200160002060009054906101000a900460ff161580156136245750600760008473ffffffffffffffffffffffffffffffffffffffff1673ffffffffffffffffffffffffffffffffffffffff16815260200190815260200160002060009054906101000a900460ff165b15613639576136348484846142c0565b6137b7565b600760008573ffffffffffffffffffffffffffffffffffffffff1673ffffffffffffffffffffffffffffffffffffffff16815260200190815260200160002060009054906101000a900460ff161580156136dd5750600760008473ffffffffffffffffffffffffffffffffffffffff1673ffffffffffffffffffffffffffffffffffffffff16815260200190815260200160002060009054906101000a900460ff16155b156136f2576136ed848484614520565b6137b6565b600760008573ffffffffffffffffffffffffffffffffffffffff1673ffffffffffffffffffffffffffffffffffffffff16815260200190815260200160002060009054906101000a900460ff1680156137945750600760008473ffffffffffffffffffffffffffffffffffffffff1673ffffffffffffffffffffffffffffffffffffffff16815260200190815260200160002060009054906101000a900460ff165b156137a9576137a48484846146eb565b6137b5565b6137b4848484614520565b5b5b5b5b806137c6576137c56149e0565b5b50505050565b600080600060095490506000670de0b6b3a7640000905060005b600880549050811015613a2c5782600360006008848154811061380557fe5b9060005260206000200160009054906101000a900473ffffffffffffffffffffffffffffffffffffffff1673ffffffffffffffffffffffffffffffffffffffff1673ffffffffffffffffffffffffffffffffffffffff1681526020019081526020016000205411806138ec575081600460006008848154811061388457fe5b9060005260206000200160009054906101000a900473ffffffffffffffffffffffffffffffffffffffff1673ffffffffffffffffffffffffffffffffffffffff1673ffffffffffffffffffffffffffffffffffffffff16815260200190815260200160002054115b1561390957600954670de0b6b3a764000094509450505050613a71565b613992600360006008848154811061391d57fe5b9060005260206000200160009054906101000a900473ffffffffffffffffffffffffffffffffffffffff1673ffffffffffffffffffffffffffffffffffffffff1673ffffffffffffffffffffffffffffffffffffffff168152602001908152602001600020548461330990919063ffffffff16565b9250613a1d60046000600884815481106139a857fe5b9060005260206000200160009054906101000a900473ffffffffffffffffffffffffffffffffffffffff1673ffffffffffffffffffffffffffffffffffffffff1673ffffffffffffffffffffffffffffffffffffffff168152602001908152602001600020548361330990919063ffffffff16565b915080806001019150506137e6565b50613a4a670de0b6b3a76400006009546131db90919063ffffffff16565b821015613a6857600954670de0b6b3a7640000935093505050613a71565b81819350935050505b9091565b60008083118290613b21576040517f08c379a00000000000000000000000000000000000000000000000000000000081526004018080602001828103825283818151815260200191508051906020019080838360005b83811015613ae6578082015181840152602081019050613acb565b50505050905090810190601f168015613b135780820380516001836020036101000a031916815260200191505b509250505060405180910390fd5b506000838581613b2d57fe5b049050809150509392505050565b600080600080613b4a856149f4565b90506000613b5786614a25565b90506000613b8082613b72858a61330990919063ffffffff16565b61330990919063ffffffff16565b90508083839550955095505050509193909250565b600080600080613bae858961335390919063ffffffff16565b90506000613bc5868961335390919063ffffffff16565b90506000613bdc878961335390919063ffffffff16565b90506000613c0582613bf7858761330990919063ffffffff16565b61330990919063ffffffff16565b9050838184965096509650505050509450945094915050565b6060600267ffffffffffffffff81118015613c3857600080fd5b50604051908082528060200260200182016040528015613c675781602001602082028036833780820191505090505b5090503081600081518110613c7857fe5b602002602001019073ffffffffffffffffffffffffffffffffffffffff16908173ffffffffffffffffffffffffffffffffffffffff16815250507f000000000000000000000000000000000000000000000000000000000000000073ffffffffffffffffffffffffffffffffffffffff1663ad5c46486040518163ffffffff1660e01b815260040160206040518083038186803b158015613d1857600080fd5b505afa158015613d2c573d6000803e3d6000fd5b505050506040513d6020811015613d4257600080fd5b810190808051906020019092919050505081600181518110613d6057fe5b602002602001019073ffffffffffffffffffffffffffffffffffffffff16908173ffffffffffffffffffffffffffffffffffffffff1681525050613dc5307f000000000000000000000000000000000000000000000000000000000000000084612b34565b7f000000000000000000000000000000000000000000000000000000000000000073ffffffffffffffffffffffffffffffffffffffff1663791ac9478360008430426040518663ffffffff1660e01b815260040180868152602001858152602001806020018473ffffffffffffffffffffffffffffffffffffffff168152602001838152602001828103825285818151815260200191508051906020019060200280838360005b83811015613e87578082015181840152602081019050613e6c565b505050509050019650505050505050600060405180830381600087803b158015613eb057600080fd5b505af1158015613ec4573d6000803e3d6000fd5b505050505050565b613ef7307f000000000000000000000000000000000000000000000000000000000000000084612b34565b7f000000000000000000000000000000000000000000000000000000000000000073ffffffffffffffffffffffffffffffffffffffff1663f305d719823085600080613f41611eba565b426040518863ffffffff1660e01b8152600401808773ffffffffffffffffffffffffffffffffffffffff1681526020018681526020018581526020018481526020018373ffffffffffffffffffffffffffffffffffffffff16815260200182815260200196505050505050506060604051808303818588803b158015613fc657600080fd5b505af1158015613fda573d6000803e3d6000fd5b50505050506040513d6060811015613ff157600080fd5b810190808051906020019092919080519060200190929190805190602001909291905050505050505050565b6000600e5414801561403157506000601054145b1561403b5761405e565b600e54600f819055506010546011819055506000600e8190555060006010819055505b565b600080600080600080614072876132ad565b9550955095509550955095506140d087600460008c73ffffffffffffffffffffffffffffffffffffffff1673ffffffffffffffffffffffffffffffffffffffff1681526020019081526020016000205461330990919063ffffffff16565b600460008b73ffffffffffffffffffffffffffffffffffffffff1673ffffffffffffffffffffffffffffffffffffffff1681526020019081526020016000208190555061416586600360008c73ffffffffffffffffffffffffffffffffffffffff1673ffffffffffffffffffffffffffffffffffffffff1681526020019081526020016000205461330990919063ffffffff16565b600360008b73ffffffffffffffffffffffffffffffffffffffff1673ffffffffffffffffffffffffffffffffffffffff168152602001908152602001600020819055506141fa85600360008b73ffffffffffffffffffffffffffffffffffffffff1673ffffffffffffffffffffffffffffffffffffffff1681526020019081526020016000205461322590919063ffffffff16565b600360008a73ffffffffffffffffffffffffffffffffffffffff1673ffffffffffffffffffffffffffffffffffffffff1681526020019081526020016000208190555061424681614a56565b6142508483614bfb565b8773ffffffffffffffffffffffffffffffffffffffff168973ffffffffffffffffffffffffffffffffffffffff167fddf252ad1be2c89b69c2b068fc378daa952ba7f163c4a11628f55a4df523b3ef856040518082815260200191505060405180910390a3505050505050505050565b6000806000806000806142d2876132ad565b95509550955095509550955061433086600360008c73ffffffffffffffffffffffffffffffffffffffff1673ffffffffffffffffffffffffffffffffffffffff1681526020019081526020016000205461330990919063ffffffff16565b600360008b73ffffffffffffffffffffffffffffffffffffffff1673ffffffffffffffffffffffffffffffffffffffff168152602001908152602001600020819055506143c583600460008b73ffffffffffffffffffffffffffffffffffffffff1673ffffffffffffffffffffffffffffffffffffffff1681526020019081526020016000205461322590919063ffffffff16565b600460008a73ffffffffffffffffffffffffffffffffffffffff1673ffffffffffffffffffffffffffffffffffffffff1681526020019081526020016000208190555061445a85600360008b73ffffffffffffffffffffffffffffffffffffffff1673ffffffffffffffffffffffffffffffffffffffff1681526020019081526020016000205461322590919063ffffffff16565b600360008a73ffffffffffffffffffffffffffffffffffffffff1673ffffffffffffffffffffffffffffffffffffffff168152602001908152602001600020819055506144a681614a56565b6144b08483614bfb565b8773ffffffffffffffffffffffffffffffffffffffff168973ffffffffffffffffffffffffffffffffffffffff167fddf252ad1be2c89b69c2b068fc378daa952ba7f163c4a11628f55a4df523b3ef856040518082815260200191505060405180910390a3505050505050505050565b600080600080600080614532876132ad565b95509550955095509550955061459086600360008c73ffffffffffffffffffffffffffffffffffffffff1673ffffffffffffffffffffffffffffffffffffffff1681526020019081526020016000205461330990919063ffffffff16565b600360008b73ffffffffffffffffffffffffffffffffffffffff1673ffffffffffffffffffffffffffffffffffffffff1681526020019081526020016000208190555061462585600360008b73ffffffffffffffffffffffffffffffffffffffff1673ffffffffffffffffffffffffffffffffffffffff1681526020019081526020016000205461322590919063ffffffff16565b600360008a73ffffffffffffffffffffffffffffffffffffffff1673ffffffffffffffffffffffffffffffffffffffff1681526020019081526020016000208190555061467181614a56565b61467b8483614bfb565b8773ffffffffffffffffffffffffffffffffffffffff168973ffffffffffffffffffffffffffffffffffffffff167fddf252ad1be2c89b69c2b068fc378daa952ba7f163c4a11628f55a4df523b3ef856040518082815260200191505060405180910390a3505050505050505050565b6000806000806000806146fd876132ad565b95509550955095509550955061475b87600460008c73ffffffffffffffffffffffffffffffffffffffff1673ffffffffffffffffffffffffffffffffffffffff1681526020019081526020016000205461330990919063ffffffff16565b600460008b73ffffffffffffffffffffffffffffffffffffffff1673ffffffffffffffffffffffffffffffffffffffff168152602001908152602001600020819055506147f086600360008c73ffffffffffffffffffffffffffffffffffffffff1673ffffffffffffffffffffffffffffffffffffffff1681526020019081526020016000205461330990919063ffffffff16565b600360008b73ffffffffffffffffffffffffffffffffffffffff1673ffffffffffffffffffffffffffffffffffffffff1681526020019081526020016000208190555061488583600460008b73ffffffffffffffffffffffffffffffffffffffff1673ffffffffffffffffffffffffffffffffffffffff1681526020019081526020016000205461322590919063ffffffff16565b600460008a73ffffffffffffffffffffffffffffffffffffffff1673ffffffffffffffffffffffffffffffffffffffff1681526020019081526020016000208190555061491a85600360008b73ffffffffffffffffffffffffffffffffffffffff1673ffffffffffffffffffffffffffffffffffffffff1681526020019081526020016000205461322590919063ffffffff16565b600360008a73ffffffffffffffffffffffffffffffffffffffff1673ffffffffffffffffffffffffffffffffffffffff1681526020019081526020016000208190555061496681614a56565b6149708483614bfb565b8773ffffffffffffffffffffffffffffffffffffffff168973ffffffffffffffffffffffffffffffffffffffff167fddf252ad1be2c89b69c2b068fc378daa952ba7f163c4a11628f55a4df523b3ef856040518082815260200191505060405180910390a3505050505050505050565b600f54600e81905550601154601081905550565b6000614a1e6064614a10600e548561335390919063ffffffff16565b6131db90919063ffffffff16565b9050919050565b6000614a4f6064614a416010548561335390919063ffffffff16565b6131db90919063ffffffff16565b9050919050565b6000614a606131b0565b90506000614a77828461335390919063ffffffff16565b9050614acb81600360003073ffffffffffffffffffffffffffffffffffffffff1673ffffffffffffffffffffffffffffffffffffffff1681526020019081526020016000205461322590919063ffffffff16565b600360003073ffffffffffffffffffffffffffffffffffffffff1673ffffffffffffffffffffffffffffffffffffffff16815260200190815260200160002081905550600760003073ffffffffffffffffffffffffffffffffffffffff1673ffffffffffffffffffffffffffffffffffffffff16815260200190815260200160002060009054906101000a900460ff1615614bf657614bb283600460003073ffffffffffffffffffffffffffffffffffffffff1673ffffffffffffffffffffffffffffffffffffffff1681526020019081526020016000205461322590919063ffffffff16565b600460003073ffffffffffffffffffffffffffffffffffffffff1673ffffffffffffffffffffffffffffffffffffffff168152602001908152602001600020819055505b505050565b614c108260095461330990919063ffffffff16565b600981905550614c2b81600a5461322590919063ffffffff16565b600a81905550505056fe45524332303a207472616e7366657220746f20746865207a65726f2061646472657373416d6f756e74206d757374206265206c657373207468616e20746f74616c207265666c656374696f6e734f776e61626c653a206e6577206f776e657220697320746865207a65726f206164647265737345524332303a20617070726f766520746f20746865207a65726f20616464726573735472616e7366657220616d6f756e74206578636565647320746865206d61785478416d6f756e742e536166654d6174683a206d756c7469706c69636174696f6e206f766572666c6f7745524332303a207472616e7366657220616d6f756e74206578636565647320616c6c6f77616e63655472616e7366657220616d6f756e74206d7573742062652067726561746572207468616e207a65726f45524332303a207472616e736665722066726f6d20746865207a65726f206164647265737345524332303a20617070726f76652066726f6d20746865207a65726f20616464726573734578636c75646564206164647265737365732063616e6e6f742063616c6c20746869732066756e6374696f6e596f7520646f6e27742068617665207065726d697373696f6e20746f20756e6c6f636b45524332303a2064656372656173656420616c6c6f77616e63652062656c6f77207a65726fa2646970667358221220dec958bf457b0c27e564d932c9d9d3eff72471956eeb7427b5ae344c30d8461d64736f6c634300060c0033",
					"opcodes": "PUSH1 0xC0 PUSH1 0x40 MSTORE PUSH8 0xDE0B6B3A7640000 PUSH1 0x0 NOT DUP2 PUSH3 0x18 JUMPI INVALID JUMPDEST MOD PUSH1 0x0 NOT SUB PUSH1 0x9 SSTORE PUSH1 0x40 MLOAD DUP1 PUSH1 0x40 ADD PUSH1 0x40 MSTORE DUP1 PUSH1 0x9 DUP2 MSTORE PUSH1 0x20 ADD PUSH32 0x50696720546F6B656E0000000000000000000000000000000000000000000000 DUP2 MSTORE POP PUSH1 0xB SWAP1 DUP1 MLOAD SWAP1 PUSH1 0x20 ADD SWAP1 PUSH3 0x6D SWAP3 SWAP2 SWAP1 PUSH3 0x5FB JUMP JUMPDEST POP PUSH1 0x40 MLOAD DUP1 PUSH1 0x40 ADD PUSH1 0x40 MSTORE DUP1 PUSH1 0x3 DUP2 MSTORE PUSH1 0x20 ADD PUSH32 0x5049470000000000000000000000000000000000000000000000000000000000 DUP2 MSTORE POP PUSH1 0xC SWAP1 DUP1 MLOAD SWAP1 PUSH1 0x20 ADD SWAP1 PUSH3 0xBB SWAP3 SWAP2 SWAP1 PUSH3 0x5FB JUMP JUMPDEST POP PUSH1 0x9 PUSH1 0xD PUSH1 0x0 PUSH2 0x100 EXP DUP2 SLOAD DUP2 PUSH1 0xFF MUL NOT AND SWAP1 DUP4 PUSH1 0xFF AND MUL OR SWAP1 SSTORE POP PUSH1 0x2 PUSH1 0xE SSTORE PUSH1 0xE SLOAD PUSH1 0xF SSTORE PUSH1 0x3 PUSH1 0x10 SSTORE PUSH1 0x10 SLOAD PUSH1 0x11 SSTORE PUSH1 0x1 PUSH1 0x12 PUSH1 0x1 PUSH2 0x100 EXP DUP2 SLOAD DUP2 PUSH1 0xFF MUL NOT AND SWAP1 DUP4 ISZERO ISZERO MUL OR SWAP1 SSTORE POP PUSH8 0x6F05B59D3B20000 PUSH1 0x13 SSTORE PUSH10 0x34F086F3B33B68400000 PUSH1 0x14 SSTORE CALLVALUE DUP1 ISZERO PUSH3 0x130 JUMPI PUSH1 0x0 DUP1 REVERT JUMPDEST POP PUSH1 0x0 PUSH3 0x143 PUSH3 0x5CA PUSH1 0x20 SHL PUSH1 0x20 SHR JUMP JUMPDEST SWAP1 POP DUP1 PUSH1 0x0 DUP1 PUSH2 0x100 EXP DUP2 SLOAD DUP2 PUSH20 0xFFFFFFFFFFFFFFFFFFFFFFFFFFFFFFFFFFFFFFFF MUL NOT AND SWAP1 DUP4 PUSH20 0xFFFFFFFFFFFFFFFFFFFFFFFFFFFFFFFFFFFFFFFF AND MUL OR SWAP1 SSTORE POP DUP1 PUSH20 0xFFFFFFFFFFFFFFFFFFFFFFFFFFFFFFFFFFFFFFFF AND PUSH1 0x0 PUSH20 0xFFFFFFFFFFFFFFFFFFFFFFFFFFFFFFFFFFFFFFFF AND PUSH32 0x8BE0079C531659141344CD1FD0A4F28419497F9722A3DAAFE3B4186F6B6457E0 PUSH1 0x40 MLOAD PUSH1 0x40 MLOAD DUP1 SWAP2 SUB SWAP1 LOG3 POP PUSH1 0x9 SLOAD PUSH1 0x3 PUSH1 0x0 PUSH3 0x1F8 PUSH3 0x5CA PUSH1 0x20 SHL PUSH1 0x20 SHR JUMP JUMPDEST PUSH20 0xFFFFFFFFFFFFFFFFFFFFFFFFFFFFFFFFFFFFFFFF AND PUSH20 0xFFFFFFFFFFFFFFFFFFFFFFFFFFFFFFFFFFFFFFFF AND DUP2 MSTORE PUSH1 0x20 ADD SWAP1 DUP2 MSTORE PUSH1 0x20 ADD PUSH1 0x0 KECCAK256 DUP2 SWAP1 SSTORE POP PUSH1 0x0 PUSH20 0x5FF2B0DB69458A0750BADEBC4F9E13ADD608C7F SWAP1 POP DUP1 PUSH20 0xFFFFFFFFFFFFFFFFFFFFFFFFFFFFFFFFFFFFFFFF AND PUSH4 0xC45A0155 PUSH1 0x40 MLOAD DUP2 PUSH4 0xFFFFFFFF AND PUSH1 0xE0 SHL DUP2 MSTORE PUSH1 0x4 ADD PUSH1 0x20 PUSH1 0x40 MLOAD DUP1 DUP4 SUB DUP2 DUP7 DUP1 EXTCODESIZE ISZERO DUP1 ISZERO PUSH3 0x296 JUMPI PUSH1 0x0 DUP1 REVERT JUMPDEST POP GAS STATICCALL ISZERO DUP1 ISZERO PUSH3 0x2AB JUMPI RETURNDATASIZE PUSH1 0x0 DUP1 RETURNDATACOPY RETURNDATASIZE PUSH1 0x0 REVERT JUMPDEST POP POP POP POP PUSH1 0x40 MLOAD RETURNDATASIZE PUSH1 0x20 DUP2 LT ISZERO PUSH3 0x2C2 JUMPI PUSH1 0x0 DUP1 REVERT JUMPDEST DUP2 ADD SWAP1 DUP1 DUP1 MLOAD SWAP1 PUSH1 0x20 ADD SWAP1 SWAP3 SWAP2 SWAP1 POP POP POP PUSH20 0xFFFFFFFFFFFFFFFFFFFFFFFFFFFFFFFFFFFFFFFF AND PUSH4 0xC9C65396 ADDRESS DUP4 PUSH20 0xFFFFFFFFFFFFFFFFFFFFFFFFFFFFFFFFFFFFFFFF AND PUSH4 0xAD5C4648 PUSH1 0x40 MLOAD DUP2 PUSH4 0xFFFFFFFF AND PUSH1 0xE0 SHL DUP2 MSTORE PUSH1 0x4 ADD PUSH1 0x20 PUSH1 0x40 MLOAD DUP1 DUP4 SUB DUP2 DUP7 DUP1 EXTCODESIZE ISZERO DUP1 ISZERO PUSH3 0x336 JUMPI PUSH1 0x0 DUP1 REVERT JUMPDEST POP GAS STATICCALL ISZERO DUP1 ISZERO PUSH3 0x34B JUMPI RETURNDATASIZE PUSH1 0x0 DUP1 RETURNDATACOPY RETURNDATASIZE PUSH1 0x0 REVERT JUMPDEST POP POP POP POP PUSH1 0x40 MLOAD RETURNDATASIZE PUSH1 0x20 DUP2 LT ISZERO PUSH3 0x362 JUMPI PUSH1 0x0 DUP1 REVERT JUMPDEST DUP2 ADD SWAP1 DUP1 DUP1 MLOAD SWAP1 PUSH1 0x20 ADD SWAP1 SWAP3 SWAP2 SWAP1 POP POP POP PUSH1 0x40 MLOAD DUP4 PUSH4 0xFFFFFFFF AND PUSH1 0xE0 SHL DUP2 MSTORE PUSH1 0x4 ADD DUP1 DUP4 PUSH20 0xFFFFFFFFFFFFFFFFFFFFFFFFFFFFFFFFFFFFFFFF AND DUP2 MSTORE PUSH1 0x20 ADD DUP3 PUSH20 0xFFFFFFFFFFFFFFFFFFFFFFFFFFFFFFFFFFFFFFFF AND DUP2 MSTORE PUSH1 0x20 ADD SWAP3 POP POP POP PUSH1 0x20 PUSH1 0x40 MLOAD DUP1 DUP4 SUB DUP2 PUSH1 0x0 DUP8 DUP1 EXTCODESIZE ISZERO DUP1 ISZERO PUSH3 0x3DD JUMPI PUSH1 0x0 DUP1 REVERT JUMPDEST POP GAS CALL ISZERO DUP1 ISZERO PUSH3 0x3F2 JUMPI RETURNDATASIZE PUSH1 0x0 DUP1 RETURNDATACOPY RETURNDATASIZE PUSH1 0x0 REVERT JUMPDEST POP POP POP POP PUSH1 0x40 MLOAD RETURNDATASIZE PUSH1 0x20 DUP2 LT ISZERO PUSH3 0x409 JUMPI PUSH1 0x0 DUP1 REVERT JUMPDEST DUP2 ADD SWAP1 DUP1 DUP1 MLOAD SWAP1 PUSH1 0x20 ADD SWAP1 SWAP3 SWAP2 SWAP1 POP POP POP PUSH20 0xFFFFFFFFFFFFFFFFFFFFFFFFFFFFFFFFFFFFFFFF AND PUSH1 0xA0 DUP2 PUSH20 0xFFFFFFFFFFFFFFFFFFFFFFFFFFFFFFFFFFFFFFFF AND PUSH1 0x60 SHL DUP2 MSTORE POP POP DUP1 PUSH20 0xFFFFFFFFFFFFFFFFFFFFFFFFFFFFFFFFFFFFFFFF AND PUSH1 0x80 DUP2 PUSH20 0xFFFFFFFFFFFFFFFFFFFFFFFFFFFFFFFFFFFFFFFF AND PUSH1 0x60 SHL DUP2 MSTORE POP POP PUSH1 0x1 PUSH1 0x6 PUSH1 0x0 PUSH3 0x49D PUSH3 0x5D2 PUSH1 0x20 SHL PUSH1 0x20 SHR JUMP JUMPDEST PUSH20 0xFFFFFFFFFFFFFFFFFFFFFFFFFFFFFFFFFFFFFFFF AND PUSH20 0xFFFFFFFFFFFFFFFFFFFFFFFFFFFFFFFFFFFFFFFF AND DUP2 MSTORE PUSH1 0x20 ADD SWAP1 DUP2 MSTORE PUSH1 0x20 ADD PUSH1 0x0 KECCAK256 PUSH1 0x0 PUSH2 0x100 EXP DUP2 SLOAD DUP2 PUSH1 0xFF MUL NOT AND SWAP1 DUP4 ISZERO ISZERO MUL OR SWAP1 SSTORE POP PUSH1 0x1 PUSH1 0x6 PUSH1 0x0 ADDRESS PUSH20 0xFFFFFFFFFFFFFFFFFFFFFFFFFFFFFFFFFFFFFFFF AND PUSH20 0xFFFFFFFFFFFFFFFFFFFFFFFFFFFFFFFFFFFFFFFF AND DUP2 MSTORE PUSH1 0x20 ADD SWAP1 DUP2 MSTORE PUSH1 0x20 ADD PUSH1 0x0 KECCAK256 PUSH1 0x0 PUSH2 0x100 EXP DUP2 SLOAD DUP2 PUSH1 0xFF MUL NOT AND SWAP1 DUP4 ISZERO ISZERO MUL OR SWAP1 SSTORE POP PUSH3 0x556 PUSH3 0x5CA PUSH1 0x20 SHL PUSH1 0x20 SHR JUMP JUMPDEST PUSH20 0xFFFFFFFFFFFFFFFFFFFFFFFFFFFFFFFFFFFFFFFF AND PUSH1 0x0 PUSH20 0xFFFFFFFFFFFFFFFFFFFFFFFFFFFFFFFFFFFFFFFF AND PUSH32 0xDDF252AD1BE2C89B69C2B068FC378DAA952BA7F163C4A11628F55A4DF523B3EF PUSH8 0xDE0B6B3A7640000 PUSH1 0x40 MLOAD DUP1 DUP3 DUP2 MSTORE PUSH1 0x20 ADD SWAP2 POP POP PUSH1 0x40 MLOAD DUP1 SWAP2 SUB SWAP1 LOG3 POP PUSH3 0x6A1 JUMP JUMPDEST PUSH1 0x0 CALLER SWAP1 POP SWAP1 JUMP JUMPDEST PUSH1 0x0 DUP1 PUSH1 0x0 SWAP1 SLOAD SWAP1 PUSH2 0x100 EXP SWAP1 DIV PUSH20 0xFFFFFFFFFFFFFFFFFFFFFFFFFFFFFFFFFFFFFFFF AND SWAP1 POP SWAP1 JUMP JUMPDEST DUP3 DUP1 SLOAD PUSH1 0x1 DUP2 PUSH1 0x1 AND ISZERO PUSH2 0x100 MUL SUB AND PUSH1 0x2 SWAP1 DIV SWAP1 PUSH1 0x0 MSTORE PUSH1 0x20 PUSH1 0x0 KECCAK256 SWAP1 PUSH1 0x1F ADD PUSH1 0x20 SWAP1 DIV DUP2 ADD SWAP3 DUP3 PUSH1 0x1F LT PUSH3 0x63E JUMPI DUP1 MLOAD PUSH1 0xFF NOT AND DUP4 DUP1 ADD OR DUP6 SSTORE PUSH3 0x66F JUMP JUMPDEST DUP3 DUP1 ADD PUSH1 0x1 ADD DUP6 SSTORE DUP3 ISZERO PUSH3 0x66F JUMPI SWAP2 DUP3 ADD JUMPDEST DUP3 DUP2 GT ISZERO PUSH3 0x66E JUMPI DUP3 MLOAD DUP3 SSTORE SWAP2 PUSH1 0x20 ADD SWAP2 SWAP1 PUSH1 0x1 ADD SWAP1 PUSH3 0x651 JUMP JUMPDEST JUMPDEST POP SWAP1 POP PUSH3 0x67E SWAP2 SWAP1 PUSH3 0x682 JUMP JUMPDEST POP SWAP1 JUMP JUMPDEST JUMPDEST DUP1 DUP3 GT ISZERO PUSH3 0x69D JUMPI PUSH1 0x0 DUP2 PUSH1 0x0 SWAP1 SSTORE POP PUSH1 0x1 ADD PUSH3 0x683 JUMP JUMPDEST POP SWAP1 JUMP JUMPDEST PUSH1 0x80 MLOAD PUSH1 0x60 SHR PUSH1 0xA0 MLOAD PUSH1 0x60 SHR PUSH2 0x4E57 PUSH3 0x6E9 PUSH1 0x0 CODECOPY DUP1 PUSH2 0x1842 MSTORE DUP1 PUSH2 0x2FB0 MSTORE POP DUP1 PUSH2 0xEE6 MSTORE DUP1 PUSH2 0x3CB4 MSTORE DUP1 PUSH2 0x3DA0 MSTORE DUP1 PUSH2 0x3DC7 MSTORE DUP1 PUSH2 0x3ED2 MSTORE DUP1 PUSH2 0x3EF9 MSTORE POP PUSH2 0x4E57 PUSH1 0x0 RETURN INVALID PUSH1 0x80 PUSH1 0x40 MSTORE PUSH1 0x4 CALLDATASIZE LT PUSH2 0x21E JUMPI PUSH1 0x0 CALLDATALOAD PUSH1 0xE0 SHR DUP1 PUSH4 0x5342ACB4 GT PUSH2 0x123 JUMPI DUP1 PUSH4 0xA457C2D7 GT PUSH2 0xAB JUMPI DUP1 PUSH4 0xD543DBEB GT PUSH2 0x6F JUMPI DUP1 PUSH4 0xD543DBEB EQ PUSH2 0xBAB JUMPI DUP1 PUSH4 0xDD467064 EQ PUSH2 0xBE6 JUMPI DUP1 PUSH4 0xDD62ED3E EQ PUSH2 0xC21 JUMPI DUP1 PUSH4 0xEA2F0B37 EQ PUSH2 0xCA6 JUMPI DUP1 PUSH4 0xF2FDE38B EQ PUSH2 0xCF7 JUMPI PUSH2 0x225 JUMP JUMPDEST DUP1 PUSH4 0xA457C2D7 EQ PUSH2 0xA4A JUMPI DUP1 PUSH4 0xA69DF4B5 EQ PUSH2 0xABB JUMPI DUP1 PUSH4 0xA9059CBB EQ PUSH2 0xAD2 JUMPI DUP1 PUSH4 0xB6C52324 EQ PUSH2 0xB43 JUMPI DUP1 PUSH4 0xC49B9A80 EQ PUSH2 0xB6E JUMPI PUSH2 0x225 JUMP JUMPDEST DUP1 PUSH4 0x7D1DB4A5 GT PUSH2 0xF2 JUMPI DUP1 PUSH4 0x7D1DB4A5 EQ PUSH2 0x8AC JUMPI DUP1 PUSH4 0x88F82020 EQ PUSH2 0x8D7 JUMPI DUP1 PUSH4 0x8DA5CB5B EQ PUSH2 0x93E JUMPI DUP1 PUSH4 0x8EE88C53 EQ PUSH2 0x97F JUMPI DUP1 PUSH4 0x95D89B41 EQ PUSH2 0x9BA JUMPI PUSH2 0x225 JUMP JUMPDEST DUP1 PUSH4 0x5342ACB4 EQ PUSH2 0x79E JUMPI DUP1 PUSH4 0x6BC87C3A EQ PUSH2 0x805 JUMPI DUP1 PUSH4 0x70A08231 EQ PUSH2 0x830 JUMPI DUP1 PUSH4 0x715018A6 EQ PUSH2 0x895 JUMPI PUSH2 0x225 JUMP JUMPDEST DUP1 PUSH4 0x3685D419 GT PUSH2 0x1A6 JUMPI DUP1 PUSH4 0x437823EC GT PUSH2 0x175 JUMPI DUP1 PUSH4 0x437823EC EQ PUSH2 0x633 JUMPI DUP1 PUSH4 0x4549B039 EQ PUSH2 0x684 JUMPI DUP1 PUSH4 0x49BD5A5E EQ PUSH2 0x6DF JUMPI DUP1 PUSH4 0x4A74BB02 EQ PUSH2 0x720 JUMPI DUP1 PUSH4 0x52390C02 EQ PUSH2 0x74D JUMPI PUSH2 0x225 JUMP JUMPDEST DUP1 PUSH4 0x3685D419 EQ PUSH2 0x50B JUMPI DUP1 PUSH4 0x39509351 EQ PUSH2 0x55C JUMPI DUP1 PUSH4 0x3B124FE7 EQ PUSH2 0x5CD JUMPI DUP1 PUSH4 0x3BD5D173 EQ PUSH2 0x5F8 JUMPI PUSH2 0x225 JUMP JUMPDEST DUP1 PUSH4 0x1694505E GT PUSH2 0x1ED JUMPI DUP1 PUSH4 0x1694505E EQ PUSH2 0x391 JUMPI DUP1 PUSH4 0x18160DDD EQ PUSH2 0x3D2 JUMPI DUP1 PUSH4 0x23B872DD EQ PUSH2 0x3FD JUMPI DUP1 PUSH4 0x2D838119 EQ PUSH2 0x48E JUMPI DUP1 PUSH4 0x313CE567 EQ PUSH2 0x4DD JUMPI PUSH2 0x225 JUMP JUMPDEST DUP1 PUSH4 0x61C82D0 EQ PUSH2 0x22A JUMPI DUP1 PUSH4 0x6FDDE03 EQ PUSH2 0x265 JUMPI DUP1 PUSH4 0x95EA7B3 EQ PUSH2 0x2F5 JUMPI DUP1 PUSH4 0x13114A9D EQ PUSH2 0x366 JUMPI PUSH2 0x225 JUMP JUMPDEST CALLDATASIZE PUSH2 0x225 JUMPI STOP JUMPDEST PUSH1 0x0 DUP1 REVERT JUMPDEST CALLVALUE DUP1 ISZERO PUSH2 0x236 JUMPI PUSH1 0x0 DUP1 REVERT JUMPDEST POP PUSH2 0x263 PUSH1 0x4 DUP1 CALLDATASIZE SUB PUSH1 0x20 DUP2 LT ISZERO PUSH2 0x24D JUMPI PUSH1 0x0 DUP1 REVERT JUMPDEST DUP2 ADD SWAP1 DUP1 DUP1 CALLDATALOAD SWAP1 PUSH1 0x20 ADD SWAP1 SWAP3 SWAP2 SWAP1 POP POP POP PUSH2 0xD48 JUMP JUMPDEST STOP JUMPDEST CALLVALUE DUP1 ISZERO PUSH2 0x271 JUMPI PUSH1 0x0 DUP1 REVERT JUMPDEST POP PUSH2 0x27A PUSH2 0xE1A JUMP JUMPDEST PUSH1 0x40 MLOAD DUP1 DUP1 PUSH1 0x20 ADD DUP3 DUP2 SUB DUP3 MSTORE DUP4 DUP2 DUP2 MLOAD DUP2 MSTORE PUSH1 0x20 ADD SWAP2 POP DUP1 MLOAD SWAP1 PUSH1 0x20 ADD SWAP1 DUP1 DUP4 DUP4 PUSH1 0x0 JUMPDEST DUP4 DUP2 LT ISZERO PUSH2 0x2BA JUMPI DUP1 DUP3 ADD MLOAD DUP2 DUP5 ADD MSTORE PUSH1 0x20 DUP2 ADD SWAP1 POP PUSH2 0x29F JUMP JUMPDEST POP POP POP POP SWAP1 POP SWAP1 DUP2 ADD SWAP1 PUSH1 0x1F AND DUP1 ISZERO PUSH2 0x2E7 JUMPI DUP1 DUP3 SUB DUP1 MLOAD PUSH1 0x1 DUP4 PUSH1 0x20 SUB PUSH2 0x100 EXP SUB NOT AND DUP2 MSTORE PUSH1 0x20 ADD SWAP2 POP JUMPDEST POP SWAP3 POP POP POP PUSH1 0x40 MLOAD DUP1 SWAP2 SUB SWAP1 RETURN JUMPDEST CALLVALUE DUP1 ISZERO PUSH2 0x301 JUMPI PUSH1 0x0 DUP1 REVERT JUMPDEST POP PUSH2 0x34E PUSH1 0x4 DUP1 CALLDATASIZE SUB PUSH1 0x40 DUP2 LT ISZERO PUSH2 0x318 JUMPI PUSH1 0x0 DUP1 REVERT JUMPDEST DUP2 ADD SWAP1 DUP1 DUP1 CALLDATALOAD PUSH20 0xFFFFFFFFFFFFFFFFFFFFFFFFFFFFFFFFFFFFFFFF AND SWAP1 PUSH1 0x20 ADD SWAP1 SWAP3 SWAP2 SWAP1 DUP1 CALLDATALOAD SWAP1 PUSH1 0x20 ADD SWAP1 SWAP3 SWAP2 SWAP1 POP POP POP PUSH2 0xEBC JUMP JUMPDEST PUSH1 0x40 MLOAD DUP1 DUP3 ISZERO ISZERO DUP2 MSTORE PUSH1 0x20 ADD SWAP2 POP POP PUSH1 0x40 MLOAD DUP1 SWAP2 SUB SWAP1 RETURN JUMPDEST CALLVALUE DUP1 ISZERO PUSH2 0x372 JUMPI PUSH1 0x0 DUP1 REVERT JUMPDEST POP PUSH2 0x37B PUSH2 0xEDA JUMP JUMPDEST PUSH1 0x40 MLOAD DUP1 DUP3 DUP2 MSTORE PUSH1 0x20 ADD SWAP2 POP POP PUSH1 0x40 MLOAD DUP1 SWAP2 SUB SWAP1 RETURN JUMPDEST CALLVALUE DUP1 ISZERO PUSH2 0x39D JUMPI PUSH1 0x0 DUP1 REVERT JUMPDEST POP PUSH2 0x3A6 PUSH2 0xEE4 JUMP JUMPDEST PUSH1 0x40 MLOAD DUP1 DUP3 PUSH20 0xFFFFFFFFFFFFFFFFFFFFFFFFFFFFFFFFFFFFFFFF AND DUP2 MSTORE PUSH1 0x20 ADD SWAP2 POP POP PUSH1 0x40 MLOAD DUP1 SWAP2 SUB SWAP1 RETURN JUMPDEST CALLVALUE DUP1 ISZERO PUSH2 0x3DE JUMPI PUSH1 0x0 DUP1 REVERT JUMPDEST POP PUSH2 0x3E7 PUSH2 0xF08 JUMP JUMPDEST PUSH1 0x40 MLOAD DUP1 DUP3 DUP2 MSTORE PUSH1 0x20 ADD SWAP2 POP POP PUSH1 0x40 MLOAD DUP1 SWAP2 SUB SWAP1 RETURN JUMPDEST CALLVALUE DUP1 ISZERO PUSH2 0x409 JUMPI PUSH1 0x0 DUP1 REVERT JUMPDEST POP PUSH2 0x476 PUSH1 0x4 DUP1 CALLDATASIZE SUB PUSH1 0x60 DUP2 LT ISZERO PUSH2 0x420 JUMPI PUSH1 0x0 DUP1 REVERT JUMPDEST DUP2 ADD SWAP1 DUP1 DUP1 CALLDATALOAD PUSH20 0xFFFFFFFFFFFFFFFFFFFFFFFFFFFFFFFFFFFFFFFF AND SWAP1 PUSH1 0x20 ADD SWAP1 SWAP3 SWAP2 SWAP1 DUP1 CALLDATALOAD PUSH20 0xFFFFFFFFFFFFFFFFFFFFFFFFFFFFFFFFFFFFFFFF AND SWAP1 PUSH1 0x20 ADD SWAP1 SWAP3 SWAP2 SWAP1 DUP1 CALLDATALOAD SWAP1 PUSH1 0x20 ADD SWAP1 SWAP3 SWAP2 SWAP1 POP POP POP PUSH2 0xF18 JUMP JUMPDEST PUSH1 0x40 MLOAD DUP1 DUP3 ISZERO ISZERO DUP2 MSTORE PUSH1 0x20 ADD SWAP2 POP POP PUSH1 0x40 MLOAD DUP1 SWAP2 SUB SWAP1 RETURN JUMPDEST CALLVALUE DUP1 ISZERO PUSH2 0x49A JUMPI PUSH1 0x0 DUP1 REVERT JUMPDEST POP PUSH2 0x4C7 PUSH1 0x4 DUP1 CALLDATASIZE SUB PUSH1 0x20 DUP2 LT ISZERO PUSH2 0x4B1 JUMPI PUSH1 0x0 DUP1 REVERT JUMPDEST DUP2 ADD SWAP1 DUP1 DUP1 CALLDATALOAD SWAP1 PUSH1 0x20 ADD SWAP1 SWAP3 SWAP2 SWAP1 POP POP POP PUSH2 0xFF1 JUMP JUMPDEST PUSH1 0x40 MLOAD DUP1 DUP3 DUP2 MSTORE PUSH1 0x20 ADD SWAP2 POP POP PUSH1 0x40 MLOAD DUP1 SWAP2 SUB SWAP1 RETURN JUMPDEST CALLVALUE DUP1 ISZERO PUSH2 0x4E9 JUMPI PUSH1 0x0 DUP1 REVERT JUMPDEST POP PUSH2 0x4F2 PUSH2 0x1075 JUMP JUMPDEST PUSH1 0x40 MLOAD DUP1 DUP3 PUSH1 0xFF AND DUP2 MSTORE PUSH1 0x20 ADD SWAP2 POP POP PUSH1 0x40 MLOAD DUP1 SWAP2 SUB SWAP1 RETURN JUMPDEST CALLVALUE DUP1 ISZERO PUSH2 0x517 JUMPI PUSH1 0x0 DUP1 REVERT JUMPDEST POP PUSH2 0x55A PUSH1 0x4 DUP1 CALLDATASIZE SUB PUSH1 0x20 DUP2 LT ISZERO PUSH2 0x52E JUMPI PUSH1 0x0 DUP1 REVERT JUMPDEST DUP2 ADD SWAP1 DUP1 DUP1 CALLDATALOAD PUSH20 0xFFFFFFFFFFFFFFFFFFFFFFFFFFFFFFFFFFFFFFFF AND SWAP1 PUSH1 0x20 ADD SWAP1 SWAP3 SWAP2 SWAP1 POP POP POP PUSH2 0x108C JUMP JUMPDEST STOP JUMPDEST CALLVALUE DUP1 ISZERO PUSH2 0x568 JUMPI PUSH1 0x0 DUP1 REVERT JUMPDEST POP PUSH2 0x5B5 PUSH1 0x4 DUP1 CALLDATASIZE SUB PUSH1 0x40 DUP2 LT ISZERO PUSH2 0x57F JUMPI PUSH1 0x0 DUP1 REVERT JUMPDEST DUP2 ADD SWAP1 DUP1 DUP1 CALLDATALOAD PUSH20 0xFFFFFFFFFFFFFFFFFFFFFFFFFFFFFFFFFFFFFFFF AND SWAP1 PUSH1 0x20 ADD SWAP1 SWAP3 SWAP2 SWAP1 DUP1 CALLDATALOAD SWAP1 PUSH1 0x20 ADD SWAP1 SWAP3 SWAP2 SWAP1 POP POP POP PUSH2 0x1416 JUMP JUMPDEST PUSH1 0x40 MLOAD DUP1 DUP3 ISZERO ISZERO DUP2 MSTORE PUSH1 0x20 ADD SWAP2 POP POP PUSH1 0x40 MLOAD DUP1 SWAP2 SUB SWAP1 RETURN JUMPDEST CALLVALUE DUP1 ISZERO PUSH2 0x5D9 JUMPI PUSH1 0x0 DUP1 REVERT JUMPDEST POP PUSH2 0x5E2 PUSH2 0x14C9 JUMP JUMPDEST PUSH1 0x40 MLOAD DUP1 DUP3 DUP2 MSTORE PUSH1 0x20 ADD SWAP2 POP POP PUSH1 0x40 MLOAD DUP1 SWAP2 SUB SWAP1 RETURN JUMPDEST CALLVALUE DUP1 ISZERO PUSH2 0x604 JUMPI PUSH1 0x0 DUP1 REVERT JUMPDEST POP PUSH2 0x631 PUSH1 0x4 DUP1 CALLDATASIZE SUB PUSH1 0x20 DUP2 LT ISZERO PUSH2 0x61B JUMPI PUSH1 0x0 DUP1 REVERT JUMPDEST DUP2 ADD SWAP1 DUP1 DUP1 CALLDATALOAD SWAP1 PUSH1 0x20 ADD SWAP1 SWAP3 SWAP2 SWAP1 POP POP POP PUSH2 0x14CF JUMP JUMPDEST STOP JUMPDEST CALLVALUE DUP1 ISZERO PUSH2 0x63F JUMPI PUSH1 0x0 DUP1 REVERT JUMPDEST POP PUSH2 0x682 PUSH1 0x4 DUP1 CALLDATASIZE SUB PUSH1 0x20 DUP2 LT ISZERO PUSH2 0x656 JUMPI PUSH1 0x0 DUP1 REVERT JUMPDEST DUP2 ADD SWAP1 DUP1 DUP1 CALLDATALOAD PUSH20 0xFFFFFFFFFFFFFFFFFFFFFFFFFFFFFFFFFFFFFFFF AND SWAP1 PUSH1 0x20 ADD SWAP1 SWAP3 SWAP2 SWAP1 POP POP POP PUSH2 0x1660 JUMP JUMPDEST STOP JUMPDEST CALLVALUE DUP1 ISZERO PUSH2 0x690 JUMPI PUSH1 0x0 DUP1 REVERT JUMPDEST POP PUSH2 0x6C9 PUSH1 0x4 DUP1 CALLDATASIZE SUB PUSH1 0x40 DUP2 LT ISZERO PUSH2 0x6A7 JUMPI PUSH1 0x0 DUP1 REVERT JUMPDEST DUP2 ADD SWAP1 DUP1 DUP1 CALLDATALOAD SWAP1 PUSH1 0x20 ADD SWAP1 SWAP3 SWAP2 SWAP1 DUP1 CALLDATALOAD ISZERO ISZERO SWAP1 PUSH1 0x20 ADD SWAP1 SWAP3 SWAP2 SWAP1 POP POP POP PUSH2 0x1783 JUMP JUMPDEST PUSH1 0x40 MLOAD DUP1 DUP3 DUP2 MSTORE PUSH1 0x20 ADD SWAP2 POP POP PUSH1 0x40 MLOAD DUP1 SWAP2 SUB SWAP1 RETURN JUMPDEST CALLVALUE DUP1 ISZERO PUSH2 0x6EB JUMPI PUSH1 0x0 DUP1 REVERT JUMPDEST POP PUSH2 0x6F4 PUSH2 0x1840 JUMP JUMPDEST PUSH1 0x40 MLOAD DUP1 DUP3 PUSH20 0xFFFFFFFFFFFFFFFFFFFFFFFFFFFFFFFFFFFFFFFF AND DUP2 MSTORE PUSH1 0x20 ADD SWAP2 POP POP PUSH1 0x40 MLOAD DUP1 SWAP2 SUB SWAP1 RETURN JUMPDEST CALLVALUE DUP1 ISZERO PUSH2 0x72C JUMPI PUSH1 0x0 DUP1 REVERT JUMPDEST POP PUSH2 0x735 PUSH2 0x1864 JUMP JUMPDEST PUSH1 0x40 MLOAD DUP1 DUP3 ISZERO ISZERO DUP2 MSTORE PUSH1 0x20 ADD SWAP2 POP POP PUSH1 0x40 MLOAD DUP1 SWAP2 SUB SWAP1 RETURN JUMPDEST CALLVALUE DUP1 ISZERO PUSH2 0x759 JUMPI PUSH1 0x0 DUP1 REVERT JUMPDEST POP PUSH2 0x79C PUSH1 0x4 DUP1 CALLDATASIZE SUB PUSH1 0x20 DUP2 LT ISZERO PUSH2 0x770 JUMPI PUSH1 0x0 DUP1 REVERT JUMPDEST DUP2 ADD SWAP1 DUP1 DUP1 CALLDATALOAD PUSH20 0xFFFFFFFFFFFFFFFFFFFFFFFFFFFFFFFFFFFFFFFF AND SWAP1 PUSH1 0x20 ADD SWAP1 SWAP3 SWAP2 SWAP1 POP POP POP PUSH2 0x1877 JUMP JUMPDEST STOP JUMPDEST CALLVALUE DUP1 ISZERO PUSH2 0x7AA JUMPI PUSH1 0x0 DUP1 REVERT JUMPDEST POP PUSH2 0x7ED PUSH1 0x4 DUP1 CALLDATASIZE SUB PUSH1 0x20 DUP2 LT ISZERO PUSH2 0x7C1 JUMPI PUSH1 0x0 DUP1 REVERT JUMPDEST DUP2 ADD SWAP1 DUP1 DUP1 CALLDATALOAD PUSH20 0xFFFFFFFFFFFFFFFFFFFFFFFFFFFFFFFFFFFFFFFF AND SWAP1 PUSH1 0x20 ADD SWAP1 SWAP3 SWAP2 SWAP1 POP POP POP PUSH2 0x1B91 JUMP JUMPDEST PUSH1 0x40 MLOAD DUP1 DUP3 ISZERO ISZERO DUP2 MSTORE PUSH1 0x20 ADD SWAP2 POP POP PUSH1 0x40 MLOAD DUP1 SWAP2 SUB SWAP1 RETURN JUMPDEST CALLVALUE DUP1 ISZERO PUSH2 0x811 JUMPI PUSH1 0x0 DUP1 REVERT JUMPDEST POP PUSH2 0x81A PUSH2 0x1BE7 JUMP JUMPDEST PUSH1 0x40 MLOAD DUP1 DUP3 DUP2 MSTORE PUSH1 0x20 ADD SWAP2 POP POP PUSH1 0x40 MLOAD DUP1 SWAP2 SUB SWAP1 RETURN JUMPDEST CALLVALUE DUP1 ISZERO PUSH2 0x83C JUMPI PUSH1 0x0 DUP1 REVERT JUMPDEST POP PUSH2 0x87F PUSH1 0x4 DUP1 CALLDATASIZE SUB PUSH1 0x20 DUP2 LT ISZERO PUSH2 0x853 JUMPI PUSH1 0x0 DUP1 REVERT JUMPDEST DUP2 ADD SWAP1 DUP1 DUP1 CALLDATALOAD PUSH20 0xFFFFFFFFFFFFFFFFFFFFFFFFFFFFFFFFFFFFFFFF AND SWAP1 PUSH1 0x20 ADD SWAP1 SWAP3 SWAP2 SWAP1 POP POP POP PUSH2 0x1BED JUMP JUMPDEST PUSH1 0x40 MLOAD DUP1 DUP3 DUP2 MSTORE PUSH1 0x20 ADD SWAP2 POP POP PUSH1 0x40 MLOAD DUP1 SWAP2 SUB SWAP1 RETURN JUMPDEST CALLVALUE DUP1 ISZERO PUSH2 0x8A1 JUMPI PUSH1 0x0 DUP1 REVERT JUMPDEST POP PUSH2 0x8AA PUSH2 0x1CD8 JUMP JUMPDEST STOP JUMPDEST CALLVALUE DUP1 ISZERO PUSH2 0x8B8 JUMPI PUSH1 0x0 DUP1 REVERT JUMPDEST POP PUSH2 0x8C1 PUSH2 0x1E5E JUMP JUMPDEST PUSH1 0x40 MLOAD DUP1 DUP3 DUP2 MSTORE PUSH1 0x20 ADD SWAP2 POP POP PUSH1 0x40 MLOAD DUP1 SWAP2 SUB SWAP1 RETURN JUMPDEST CALLVALUE DUP1 ISZERO PUSH2 0x8E3 JUMPI PUSH1 0x0 DUP1 REVERT JUMPDEST POP PUSH2 0x926 PUSH1 0x4 DUP1 CALLDATASIZE SUB PUSH1 0x20 DUP2 LT ISZERO PUSH2 0x8FA JUMPI PUSH1 0x0 DUP1 REVERT JUMPDEST DUP2 ADD SWAP1 DUP1 DUP1 CALLDATALOAD PUSH20 0xFFFFFFFFFFFFFFFFFFFFFFFFFFFFFFFFFFFFFFFF AND SWAP1 PUSH1 0x20 ADD SWAP1 SWAP3 SWAP2 SWAP1 POP POP POP PUSH2 0x1E64 JUMP JUMPDEST PUSH1 0x40 MLOAD DUP1 DUP3 ISZERO ISZERO DUP2 MSTORE PUSH1 0x20 ADD SWAP2 POP POP PUSH1 0x40 MLOAD DUP1 SWAP2 SUB SWAP1 RETURN JUMPDEST CALLVALUE DUP1 ISZERO PUSH2 0x94A JUMPI PUSH1 0x0 DUP1 REVERT JUMPDEST POP PUSH2 0x953 PUSH2 0x1EBA JUMP JUMPDEST PUSH1 0x40 MLOAD DUP1 DUP3 PUSH20 0xFFFFFFFFFFFFFFFFFFFFFFFFFFFFFFFFFFFFFFFF AND DUP2 MSTORE PUSH1 0x20 ADD SWAP2 POP POP PUSH1 0x40 MLOAD DUP1 SWAP2 SUB SWAP1 RETURN JUMPDEST CALLVALUE DUP1 ISZERO PUSH2 0x98B JUMPI PUSH1 0x0 DUP1 REVERT JUMPDEST POP PUSH2 0x9B8 PUSH1 0x4 DUP1 CALLDATASIZE SUB PUSH1 0x20 DUP2 LT ISZERO PUSH2 0x9A2 JUMPI PUSH1 0x0 DUP1 REVERT JUMPDEST DUP2 ADD SWAP1 DUP1 DUP1 CALLDATALOAD SWAP1 PUSH1 0x20 ADD SWAP1 SWAP3 SWAP2 SWAP1 POP POP POP PUSH2 0x1EE3 JUMP JUMPDEST STOP JUMPDEST CALLVALUE DUP1 ISZERO PUSH2 0x9C6 JUMPI PUSH1 0x0 DUP1 REVERT JUMPDEST POP PUSH2 0x9CF PUSH2 0x1FB5 JUMP JUMPDEST PUSH1 0x40 MLOAD DUP1 DUP1 PUSH1 0x20 ADD DUP3 DUP2 SUB DUP3 MSTORE DUP4 DUP2 DUP2 MLOAD DUP2 MSTORE PUSH1 0x20 ADD SWAP2 POP DUP1 MLOAD SWAP1 PUSH1 0x20 ADD SWAP1 DUP1 DUP4 DUP4 PUSH1 0x0 JUMPDEST DUP4 DUP2 LT ISZERO PUSH2 0xA0F JUMPI DUP1 DUP3 ADD MLOAD DUP2 DUP5 ADD MSTORE PUSH1 0x20 DUP2 ADD SWAP1 POP PUSH2 0x9F4 JUMP JUMPDEST POP POP POP POP SWAP1 POP SWAP1 DUP2 ADD SWAP1 PUSH1 0x1F AND DUP1 ISZERO PUSH2 0xA3C JUMPI DUP1 DUP3 SUB DUP1 MLOAD PUSH1 0x1 DUP4 PUSH1 0x20 SUB PUSH2 0x100 EXP SUB NOT AND DUP2 MSTORE PUSH1 0x20 ADD SWAP2 POP JUMPDEST POP SWAP3 POP POP POP PUSH1 0x40 MLOAD DUP1 SWAP2 SUB SWAP1 RETURN JUMPDEST CALLVALUE DUP1 ISZERO PUSH2 0xA56 JUMPI PUSH1 0x0 DUP1 REVERT JUMPDEST POP PUSH2 0xAA3 PUSH1 0x4 DUP1 CALLDATASIZE SUB PUSH1 0x40 DUP2 LT ISZERO PUSH2 0xA6D JUMPI PUSH1 0x0 DUP1 REVERT JUMPDEST DUP2 ADD SWAP1 DUP1 DUP1 CALLDATALOAD PUSH20 0xFFFFFFFFFFFFFFFFFFFFFFFFFFFFFFFFFFFFFFFF AND SWAP1 PUSH1 0x20 ADD SWAP1 SWAP3 SWAP2 SWAP1 DUP1 CALLDATALOAD SWAP1 PUSH1 0x20 ADD SWAP1 SWAP3 SWAP2 SWAP1 POP POP POP PUSH2 0x2057 JUMP JUMPDEST PUSH1 0x40 MLOAD DUP1 DUP3 ISZERO ISZERO DUP2 MSTORE PUSH1 0x20 ADD SWAP2 POP POP PUSH1 0x40 MLOAD DUP1 SWAP2 SUB SWAP1 RETURN JUMPDEST CALLVALUE DUP1 ISZERO PUSH2 0xAC7 JUMPI PUSH1 0x0 DUP1 REVERT JUMPDEST POP PUSH2 0xAD0 PUSH2 0x2124 JUMP JUMPDEST STOP JUMPDEST CALLVALUE DUP1 ISZERO PUSH2 0xADE JUMPI PUSH1 0x0 DUP1 REVERT JUMPDEST POP PUSH2 0xB2B PUSH1 0x4 DUP1 CALLDATASIZE SUB PUSH1 0x40 DUP2 LT ISZERO PUSH2 0xAF5 JUMPI PUSH1 0x0 DUP1 REVERT JUMPDEST DUP2 ADD SWAP1 DUP1 DUP1 CALLDATALOAD PUSH20 0xFFFFFFFFFFFFFFFFFFFFFFFFFFFFFFFFFFFFFFFF AND SWAP1 PUSH1 0x20 ADD SWAP1 SWAP3 SWAP2 SWAP1 DUP1 CALLDATALOAD SWAP1 PUSH1 0x20 ADD SWAP1 SWAP3 SWAP2 SWAP1 POP POP POP PUSH2 0x2341 JUMP JUMPDEST PUSH1 0x40 MLOAD DUP1 DUP3 ISZERO ISZERO DUP2 MSTORE PUSH1 0x20 ADD SWAP2 POP POP PUSH1 0x40 MLOAD DUP1 SWAP2 SUB SWAP1 RETURN JUMPDEST CALLVALUE DUP1 ISZERO PUSH2 0xB4F JUMPI PUSH1 0x0 DUP1 REVERT JUMPDEST POP PUSH2 0xB58 PUSH2 0x235F JUMP JUMPDEST PUSH1 0x40 MLOAD DUP1 DUP3 DUP2 MSTORE PUSH1 0x20 ADD SWAP2 POP POP PUSH1 0x40 MLOAD DUP1 SWAP2 SUB SWAP1 RETURN JUMPDEST CALLVALUE DUP1 ISZERO PUSH2 0xB7A JUMPI PUSH1 0x0 DUP1 REVERT JUMPDEST POP PUSH2 0xBA9 PUSH1 0x4 DUP1 CALLDATASIZE SUB PUSH1 0x20 DUP2 LT ISZERO PUSH2 0xB91 JUMPI PUSH1 0x0 DUP1 REVERT JUMPDEST DUP2 ADD SWAP1 DUP1 DUP1 CALLDATALOAD ISZERO ISZERO SWAP1 PUSH1 0x20 ADD SWAP1 SWAP3 SWAP2 SWAP1 POP POP POP PUSH2 0x2369 JUMP JUMPDEST STOP JUMPDEST CALLVALUE DUP1 ISZERO PUSH2 0xBB7 JUMPI PUSH1 0x0 DUP1 REVERT JUMPDEST POP PUSH2 0xBE4 PUSH1 0x4 DUP1 CALLDATASIZE SUB PUSH1 0x20 DUP2 LT ISZERO PUSH2 0xBCE JUMPI PUSH1 0x0 DUP1 REVERT JUMPDEST DUP2 ADD SWAP1 DUP1 DUP1 CALLDATALOAD SWAP1 PUSH1 0x20 ADD SWAP1 SWAP3 SWAP2 SWAP1 POP POP POP PUSH2 0x2487 JUMP JUMPDEST STOP JUMPDEST CALLVALUE DUP1 ISZERO PUSH2 0xBF2 JUMPI PUSH1 0x0 DUP1 REVERT JUMPDEST POP PUSH2 0xC1F PUSH1 0x4 DUP1 CALLDATASIZE SUB PUSH1 0x20 DUP2 LT ISZERO PUSH2 0xC09 JUMPI PUSH1 0x0 DUP1 REVERT JUMPDEST DUP2 ADD SWAP1 DUP1 DUP1 CALLDATALOAD SWAP1 PUSH1 0x20 ADD SWAP1 SWAP3 SWAP2 SWAP1 POP POP POP PUSH2 0x2586 JUMP JUMPDEST STOP JUMPDEST CALLVALUE DUP1 ISZERO PUSH2 0xC2D JUMPI PUSH1 0x0 DUP1 REVERT JUMPDEST POP PUSH2 0xC90 PUSH1 0x4 DUP1 CALLDATASIZE SUB PUSH1 0x40 DUP2 LT ISZERO PUSH2 0xC44 JUMPI PUSH1 0x0 DUP1 REVERT JUMPDEST DUP2 ADD SWAP1 DUP1 DUP1 CALLDATALOAD PUSH20 0xFFFFFFFFFFFFFFFFFFFFFFFFFFFFFFFFFFFFFFFF AND SWAP1 PUSH1 0x20 ADD SWAP1 SWAP3 SWAP2 SWAP1 DUP1 CALLDATALOAD PUSH20 0xFFFFFFFFFFFFFFFFFFFFFFFFFFFFFFFFFFFFFFFF AND SWAP1 PUSH1 0x20 ADD SWAP1 SWAP3 SWAP2 SWAP1 POP POP POP PUSH2 0x2777 JUMP JUMPDEST PUSH1 0x40 MLOAD DUP1 DUP3 DUP2 MSTORE PUSH1 0x20 ADD SWAP2 POP POP PUSH1 0x40 MLOAD DUP1 SWAP2 SUB SWAP1 RETURN JUMPDEST CALLVALUE DUP1 ISZERO PUSH2 0xCB2 JUMPI PUSH1 0x0 DUP1 REVERT JUMPDEST POP PUSH2 0xCF5 PUSH1 0x4 DUP1 CALLDATASIZE SUB PUSH1 0x20 DUP2 LT ISZERO PUSH2 0xCC9 JUMPI PUSH1 0x0 DUP1 REVERT JUMPDEST DUP2 ADD SWAP1 DUP1 DUP1 CALLDATALOAD PUSH20 0xFFFFFFFFFFFFFFFFFFFFFFFFFFFFFFFFFFFFFFFF AND SWAP1 PUSH1 0x20 ADD SWAP1 SWAP3 SWAP2 SWAP1 POP POP POP PUSH2 0x27FE JUMP JUMPDEST STOP JUMPDEST CALLVALUE DUP1 ISZERO PUSH2 0xD03 JUMPI PUSH1 0x0 DUP1 REVERT JUMPDEST POP PUSH2 0xD46 PUSH1 0x4 DUP1 CALLDATASIZE SUB PUSH1 0x20 DUP2 LT ISZERO PUSH2 0xD1A JUMPI PUSH1 0x0 DUP1 REVERT JUMPDEST DUP2 ADD SWAP1 DUP1 DUP1 CALLDATALOAD PUSH20 0xFFFFFFFFFFFFFFFFFFFFFFFFFFFFFFFFFFFFFFFF AND SWAP1 PUSH1 0x20 ADD SWAP1 SWAP3 SWAP2 SWAP1 POP POP POP PUSH2 0x2921 JUMP JUMPDEST STOP JUMPDEST PUSH2 0xD50 PUSH2 0x2B2C JUMP JUMPDEST PUSH20 0xFFFFFFFFFFFFFFFFFFFFFFFFFFFFFFFFFFFFFFFF AND PUSH1 0x0 DUP1 SLOAD SWAP1 PUSH2 0x100 EXP SWAP1 DIV PUSH20 0xFFFFFFFFFFFFFFFFFFFFFFFFFFFFFFFFFFFFFFFF AND PUSH20 0xFFFFFFFFFFFFFFFFFFFFFFFFFFFFFFFFFFFFFFFF AND EQ PUSH2 0xE10 JUMPI PUSH1 0x40 MLOAD PUSH32 0x8C379A000000000000000000000000000000000000000000000000000000000 DUP2 MSTORE PUSH1 0x4 ADD DUP1 DUP1 PUSH1 0x20 ADD DUP3 DUP2 SUB DUP3 MSTORE PUSH1 0x20 DUP2 MSTORE PUSH1 0x20 ADD DUP1 PUSH32 0x4F776E61626C653A2063616C6C6572206973206E6F7420746865206F776E6572 DUP2 MSTORE POP PUSH1 0x20 ADD SWAP2 POP POP PUSH1 0x40 MLOAD DUP1 SWAP2 SUB SWAP1 REVERT JUMPDEST DUP1 PUSH1 0xE DUP2 SWAP1 SSTORE POP POP JUMP JUMPDEST PUSH1 0x60 PUSH1 0xB DUP1 SLOAD PUSH1 0x1 DUP2 PUSH1 0x1 AND ISZERO PUSH2 0x100 MUL SUB AND PUSH1 0x2 SWAP1 DIV DUP1 PUSH1 0x1F ADD PUSH1 0x20 DUP1 SWAP2 DIV MUL PUSH1 0x20 ADD PUSH1 0x40 MLOAD SWAP1 DUP2 ADD PUSH1 0x40 MSTORE DUP1 SWAP3 SWAP2 SWAP1 DUP2 DUP2 MSTORE PUSH1 0x20 ADD DUP3 DUP1 SLOAD PUSH1 0x1 DUP2 PUSH1 0x1 AND ISZERO PUSH2 0x100 MUL SUB AND PUSH1 0x2 SWAP1 DIV DUP1 ISZERO PUSH2 0xEB2 JUMPI DUP1 PUSH1 0x1F LT PUSH2 0xE87 JUMPI PUSH2 0x100 DUP1 DUP4 SLOAD DIV MUL DUP4 MSTORE SWAP2 PUSH1 0x20 ADD SWAP2 PUSH2 0xEB2 JUMP JUMPDEST DUP3 ADD SWAP2 SWAP1 PUSH1 0x0 MSTORE PUSH1 0x20 PUSH1 0x0 KECCAK256 SWAP1 JUMPDEST DUP2 SLOAD DUP2 MSTORE SWAP1 PUSH1 0x1 ADD SWAP1 PUSH1 0x20 ADD DUP1 DUP4 GT PUSH2 0xE95 JUMPI DUP3 SWAP1 SUB PUSH1 0x1F AND DUP3 ADD SWAP2 JUMPDEST POP POP POP POP POP SWAP1 POP SWAP1 JUMP JUMPDEST PUSH1 0x0 PUSH2 0xED0 PUSH2 0xEC9 PUSH2 0x2B2C JUMP JUMPDEST DUP5 DUP5 PUSH2 0x2B34 JUMP JUMPDEST PUSH1 0x1 SWAP1 POP SWAP3 SWAP2 POP POP JUMP JUMPDEST PUSH1 0x0 PUSH1 0xA SLOAD SWAP1 POP SWAP1 JUMP JUMPDEST PUSH32 0x0 DUP2 JUMP JUMPDEST PUSH1 0x0 PUSH8 0xDE0B6B3A7640000 SWAP1 POP SWAP1 JUMP JUMPDEST PUSH1 0x0 PUSH2 0xF25 DUP5 DUP5 DUP5 PUSH2 0x2D2B JUMP JUMPDEST PUSH2 0xFE6 DUP5 PUSH2 0xF31 PUSH2 0x2B2C JUMP JUMPDEST PUSH2 0xFE1 DUP6 PUSH1 0x40 MLOAD DUP1 PUSH1 0x60 ADD PUSH1 0x40 MSTORE DUP1 PUSH1 0x28 DUP2 MSTORE PUSH1 0x20 ADD PUSH2 0x4D14 PUSH1 0x28 SWAP2 CODECOPY PUSH1 0x5 PUSH1 0x0 DUP12 PUSH20 0xFFFFFFFFFFFFFFFFFFFFFFFFFFFFFFFFFFFFFFFF AND PUSH20 0xFFFFFFFFFFFFFFFFFFFFFFFFFFFFFFFFFFFFFFFF AND DUP2 MSTORE PUSH1 0x20 ADD SWAP1 DUP2 MSTORE PUSH1 0x20 ADD PUSH1 0x0 KECCAK256 PUSH1 0x0 PUSH2 0xF97 PUSH2 0x2B2C JUMP JUMPDEST PUSH20 0xFFFFFFFFFFFFFFFFFFFFFFFFFFFFFFFFFFFFFFFF AND PUSH20 0xFFFFFFFFFFFFFFFFFFFFFFFFFFFFFFFFFFFFFFFF AND DUP2 MSTORE PUSH1 0x20 ADD SWAP1 DUP2 MSTORE PUSH1 0x20 ADD PUSH1 0x0 KECCAK256 SLOAD PUSH2 0x30F0 SWAP1 SWAP3 SWAP2 SWAP1 PUSH4 0xFFFFFFFF AND JUMP JUMPDEST PUSH2 0x2B34 JUMP JUMPDEST PUSH1 0x1 SWAP1 POP SWAP4 SWAP3 POP POP POP JUMP JUMPDEST PUSH1 0x0 PUSH1 0x9 SLOAD DUP3 GT ISZERO PUSH2 0x104E JUMPI PUSH1 0x40 MLOAD PUSH32 0x8C379A000000000000000000000000000000000000000000000000000000000 DUP2 MSTORE PUSH1 0x4 ADD DUP1 DUP1 PUSH1 0x20 ADD DUP3 DUP2 SUB DUP3 MSTORE PUSH1 0x2A DUP2 MSTORE PUSH1 0x20 ADD DUP1 PUSH2 0x4C59 PUSH1 0x2A SWAP2 CODECOPY PUSH1 0x40 ADD SWAP2 POP POP PUSH1 0x40 MLOAD DUP1 SWAP2 SUB SWAP1 REVERT JUMPDEST PUSH1 0x0 PUSH2 0x1058 PUSH2 0x31B0 JUMP JUMPDEST SWAP1 POP PUSH2 0x106D DUP2 DUP5 PUSH2 0x31DB SWAP1 SWAP2 SWAP1 PUSH4 0xFFFFFFFF AND JUMP JUMPDEST SWAP2 POP POP SWAP2 SWAP1 POP JUMP JUMPDEST PUSH1 0x0 PUSH1 0xD PUSH1 0x0 SWAP1 SLOAD SWAP1 PUSH2 0x100 EXP SWAP1 DIV PUSH1 0xFF AND SWAP1 POP SWAP1 JUMP JUMPDEST PUSH2 0x1094 PUSH2 0x2B2C JUMP JUMPDEST PUSH20 0xFFFFFFFFFFFFFFFFFFFFFFFFFFFFFFFFFFFFFFFF AND PUSH1 0x0 DUP1 SLOAD SWAP1 PUSH2 0x100 EXP SWAP1 DIV PUSH20 0xFFFFFFFFFFFFFFFFFFFFFFFFFFFFFFFFFFFFFFFF AND PUSH20 0xFFFFFFFFFFFFFFFFFFFFFFFFFFFFFFFFFFFFFFFF AND EQ PUSH2 0x1154 JUMPI PUSH1 0x40 MLOAD PUSH32 0x8C379A000000000000000000000000000000000000000000000000000000000 DUP2 MSTORE PUSH1 0x4 ADD DUP1 DUP1 PUSH1 0x20 ADD DUP3 DUP2 SUB DUP3 MSTORE PUSH1 0x20 DUP2 MSTORE PUSH1 0x20 ADD DUP1 PUSH32 0x4F776E61626C653A2063616C6C6572206973206E6F7420746865206F776E6572 DUP2 MSTORE POP PUSH1 0x20 ADD SWAP2 POP POP PUSH1 0x40 MLOAD DUP1 SWAP2 SUB SWAP1 REVERT JUMPDEST PUSH1 0x7 PUSH1 0x0 DUP3 PUSH20 0xFFFFFFFFFFFFFFFFFFFFFFFFFFFFFFFFFFFFFFFF AND PUSH20 0xFFFFFFFFFFFFFFFFFFFFFFFFFFFFFFFFFFFFFFFF AND DUP2 MSTORE PUSH1 0x20 ADD SWAP1 DUP2 MSTORE PUSH1 0x20 ADD PUSH1 0x0 KECCAK256 PUSH1 0x0 SWAP1 SLOAD SWAP1 PUSH2 0x100 EXP SWAP1 DIV PUSH1 0xFF AND PUSH2 0x1213 JUMPI PUSH1 0x40 MLOAD PUSH32 0x8C379A000000000000000000000000000000000000000000000000000000000 DUP2 MSTORE PUSH1 0x4 ADD DUP1 DUP1 PUSH1 0x20 ADD DUP3 DUP2 SUB DUP3 MSTORE PUSH1 0x1B DUP2 MSTORE PUSH1 0x20 ADD DUP1 PUSH32 0x4163636F756E7420697320616C7265616479206578636C756465640000000000 DUP2 MSTORE POP PUSH1 0x20 ADD SWAP2 POP POP PUSH1 0x40 MLOAD DUP1 SWAP2 SUB SWAP1 REVERT JUMPDEST PUSH1 0x0 JUMPDEST PUSH1 0x8 DUP1 SLOAD SWAP1 POP DUP2 LT ISZERO PUSH2 0x1412 JUMPI DUP2 PUSH20 0xFFFFFFFFFFFFFFFFFFFFFFFFFFFFFFFFFFFFFFFF AND PUSH1 0x8 DUP3 DUP2 SLOAD DUP2 LT PUSH2 0x1247 JUMPI INVALID JUMPDEST SWAP1 PUSH1 0x0 MSTORE PUSH1 0x20 PUSH1 0x0 KECCAK256 ADD PUSH1 0x0 SWAP1 SLOAD SWAP1 PUSH2 0x100 EXP SWAP1 DIV PUSH20 0xFFFFFFFFFFFFFFFFFFFFFFFFFFFFFFFFFFFFFFFF AND PUSH20 0xFFFFFFFFFFFFFFFFFFFFFFFFFFFFFFFFFFFFFFFF AND EQ ISZERO PUSH2 0x1405 JUMPI PUSH1 0x8 PUSH1 0x1 PUSH1 0x8 DUP1 SLOAD SWAP1 POP SUB DUP2 SLOAD DUP2 LT PUSH2 0x12A3 JUMPI INVALID JUMPDEST SWAP1 PUSH1 0x0 MSTORE PUSH1 0x20 PUSH1 0x0 KECCAK256 ADD PUSH1 0x0 SWAP1 SLOAD SWAP1 PUSH2 0x100 EXP SWAP1 DIV PUSH20 0xFFFFFFFFFFFFFFFFFFFFFFFFFFFFFFFFFFFFFFFF AND PUSH1 0x8 DUP3 DUP2 SLOAD DUP2 LT PUSH2 0x12DB JUMPI INVALID JUMPDEST SWAP1 PUSH1 0x0 MSTORE PUSH1 0x20 PUSH1 0x0 KECCAK256 ADD PUSH1 0x0 PUSH2 0x100 EXP DUP2 SLOAD DUP2 PUSH20 0xFFFFFFFFFFFFFFFFFFFFFFFFFFFFFFFFFFFFFFFF MUL NOT AND SWAP1 DUP4 PUSH20 0xFFFFFFFFFFFFFFFFFFFFFFFFFFFFFFFFFFFFFFFF AND MUL OR SWAP1 SSTORE POP PUSH1 0x0 PUSH1 0x4 PUSH1 0x0 DUP5 PUSH20 0xFFFFFFFFFFFFFFFFFFFFFFFFFFFFFFFFFFFFFFFF AND PUSH20 0xFFFFFFFFFFFFFFFFFFFFFFFFFFFFFFFFFFFFFFFF AND DUP2 MSTORE PUSH1 0x20 ADD SWAP1 DUP2 MSTORE PUSH1 0x20 ADD PUSH1 0x0 KECCAK256 DUP2 SWAP1 SSTORE POP PUSH1 0x0 PUSH1 0x7 PUSH1 0x0 DUP5 PUSH20 0xFFFFFFFFFFFFFFFFFFFFFFFFFFFFFFFFFFFFFFFF AND PUSH20 0xFFFFFFFFFFFFFFFFFFFFFFFFFFFFFFFFFFFFFFFF AND DUP2 MSTORE PUSH1 0x20 ADD SWAP1 DUP2 MSTORE PUSH1 0x20 ADD PUSH1 0x0 KECCAK256 PUSH1 0x0 PUSH2 0x100 EXP DUP2 SLOAD DUP2 PUSH1 0xFF MUL NOT AND SWAP1 DUP4 ISZERO ISZERO MUL OR SWAP1 SSTORE POP PUSH1 0x8 DUP1 SLOAD DUP1 PUSH2 0x13CB JUMPI INVALID JUMPDEST PUSH1 0x1 SWAP1 SUB DUP2 DUP2 SWAP1 PUSH1 0x0 MSTORE PUSH1 0x20 PUSH1 0x0 KECCAK256 ADD PUSH1 0x0 PUSH2 0x100 EXP DUP2 SLOAD SWAP1 PUSH20 0xFFFFFFFFFFFFFFFFFFFFFFFFFFFFFFFFFFFFFFFF MUL NOT AND SWAP1 SSTORE SWAP1 SSTORE PUSH2 0x1412 JUMP JUMPDEST DUP1 DUP1 PUSH1 0x1 ADD SWAP2 POP POP PUSH2 0x1216 JUMP JUMPDEST POP POP JUMP JUMPDEST PUSH1 0x0 PUSH2 0x14BF PUSH2 0x1423 PUSH2 0x2B2C JUMP JUMPDEST DUP5 PUSH2 0x14BA DUP6 PUSH1 0x5 PUSH1 0x0 PUSH2 0x1434 PUSH2 0x2B2C JUMP JUMPDEST PUSH20 0xFFFFFFFFFFFFFFFFFFFFFFFFFFFFFFFFFFFFFFFF AND PUSH20 0xFFFFFFFFFFFFFFFFFFFFFFFFFFFFFFFFFFFFFFFF AND DUP2 MSTORE PUSH1 0x20 ADD SWAP1 DUP2 MSTORE PUSH1 0x20 ADD PUSH1 0x0 KECCAK256 PUSH1 0x0 DUP10 PUSH20 0xFFFFFFFFFFFFFFFFFFFFFFFFFFFFFFFFFFFFFFFF AND PUSH20 0xFFFFFFFFFFFFFFFFFFFFFFFFFFFFFFFFFFFFFFFF AND DUP2 MSTORE PUSH1 0x20 ADD SWAP1 DUP2 MSTORE PUSH1 0x20 ADD PUSH1 0x0 KECCAK256 SLOAD PUSH2 0x3225 SWAP1 SWAP2 SWAP1 PUSH4 0xFFFFFFFF AND JUMP JUMPDEST PUSH2 0x2B34 JUMP JUMPDEST PUSH1 0x1 SWAP1 POP SWAP3 SWAP2 POP POP JUMP JUMPDEST PUSH1 0xE SLOAD DUP2 JUMP JUMPDEST PUSH1 0x0 PUSH2 0x14D9 PUSH2 0x2B2C JUMP JUMPDEST SWAP1 POP PUSH1 0x7 PUSH1 0x0 DUP3 PUSH20 0xFFFFFFFFFFFFFFFFFFFFFFFFFFFFFFFFFFFFFFFF AND PUSH20 0xFFFFFFFFFFFFFFFFFFFFFFFFFFFFFFFFFFFFFFFF AND DUP2 MSTORE PUSH1 0x20 ADD SWAP1 DUP2 MSTORE PUSH1 0x20 ADD PUSH1 0x0 KECCAK256 PUSH1 0x0 SWAP1 SLOAD SWAP1 PUSH2 0x100 EXP SWAP1 DIV PUSH1 0xFF AND ISZERO PUSH2 0x157E JUMPI PUSH1 0x40 MLOAD PUSH32 0x8C379A000000000000000000000000000000000000000000000000000000000 DUP2 MSTORE PUSH1 0x4 ADD DUP1 DUP1 PUSH1 0x20 ADD DUP3 DUP2 SUB DUP3 MSTORE PUSH1 0x2C DUP2 MSTORE PUSH1 0x20 ADD DUP1 PUSH2 0x4DAE PUSH1 0x2C SWAP2 CODECOPY PUSH1 0x40 ADD SWAP2 POP POP PUSH1 0x40 MLOAD DUP1 SWAP2 SUB SWAP1 REVERT JUMPDEST PUSH1 0x0 PUSH2 0x1589 DUP4 PUSH2 0x32AD JUMP JUMPDEST POP POP POP POP POP SWAP1 POP PUSH2 0x15E2 DUP2 PUSH1 0x3 PUSH1 0x0 DUP6 PUSH20 0xFFFFFFFFFFFFFFFFFFFFFFFFFFFFFFFFFFFFFFFF AND PUSH20 0xFFFFFFFFFFFFFFFFFFFFFFFFFFFFFFFFFFFFFFFF AND DUP2 MSTORE PUSH1 0x20 ADD SWAP1 DUP2 MSTORE PUSH1 0x20 ADD PUSH1 0x0 KECCAK256 SLOAD PUSH2 0x3309 SWAP1 SWAP2 SWAP1 PUSH4 0xFFFFFFFF AND JUMP JUMPDEST PUSH1 0x3 PUSH1 0x0 DUP5 PUSH20 0xFFFFFFFFFFFFFFFFFFFFFFFFFFFFFFFFFFFFFFFF AND PUSH20 0xFFFFFFFFFFFFFFFFFFFFFFFFFFFFFFFFFFFFFFFF AND DUP2 MSTORE PUSH1 0x20 ADD SWAP1 DUP2 MSTORE PUSH1 0x20 ADD PUSH1 0x0 KECCAK256 DUP2 SWAP1 SSTORE POP PUSH2 0x163A DUP2 PUSH1 0x9 SLOAD PUSH2 0x3309 SWAP1 SWAP2 SWAP1 PUSH4 0xFFFFFFFF AND JUMP JUMPDEST PUSH1 0x9 DUP2 SWAP1 SSTORE POP PUSH2 0x1655 DUP4 PUSH1 0xA SLOAD PUSH2 0x3225 SWAP1 SWAP2 SWAP1 PUSH4 0xFFFFFFFF AND JUMP JUMPDEST PUSH1 0xA DUP2 SWAP1 SSTORE POP POP POP POP JUMP JUMPDEST PUSH2 0x1668 PUSH2 0x2B2C JUMP JUMPDEST PUSH20 0xFFFFFFFFFFFFFFFFFFFFFFFFFFFFFFFFFFFFFFFF AND PUSH1 0x0 DUP1 SLOAD SWAP1 PUSH2 0x100 EXP SWAP1 DIV PUSH20 0xFFFFFFFFFFFFFFFFFFFFFFFFFFFFFFFFFFFFFFFF AND PUSH20 0xFFFFFFFFFFFFFFFFFFFFFFFFFFFFFFFFFFFFFFFF AND EQ PUSH2 0x1728 JUMPI PUSH1 0x40 MLOAD PUSH32 0x8C379A000000000000000000000000000000000000000000000000000000000 DUP2 MSTORE PUSH1 0x4 ADD DUP1 DUP1 PUSH1 0x20 ADD DUP3 DUP2 SUB DUP3 MSTORE PUSH1 0x20 DUP2 MSTORE PUSH1 0x20 ADD DUP1 PUSH32 0x4F776E61626C653A2063616C6C6572206973206E6F7420746865206F776E6572 DUP2 MSTORE POP PUSH1 0x20 ADD SWAP2 POP POP PUSH1 0x40 MLOAD DUP1 SWAP2 SUB SWAP1 REVERT JUMPDEST PUSH1 0x1 PUSH1 0x6 PUSH1 0x0 DUP4 PUSH20 0xFFFFFFFFFFFFFFFFFFFFFFFFFFFFFFFFFFFFFFFF AND PUSH20 0xFFFFFFFFFFFFFFFFFFFFFFFFFFFFFFFFFFFFFFFF AND DUP2 MSTORE PUSH1 0x20 ADD SWAP1 DUP2 MSTORE PUSH1 0x20 ADD PUSH1 0x0 KECCAK256 PUSH1 0x0 PUSH2 0x100 EXP DUP2 SLOAD DUP2 PUSH1 0xFF MUL NOT AND SWAP1 DUP4 ISZERO ISZERO MUL OR SWAP1 SSTORE POP POP JUMP JUMPDEST PUSH1 0x0 PUSH8 0xDE0B6B3A7640000 DUP4 GT ISZERO PUSH2 0x1803 JUMPI PUSH1 0x40 MLOAD PUSH32 0x8C379A000000000000000000000000000000000000000000000000000000000 DUP2 MSTORE PUSH1 0x4 ADD DUP1 DUP1 PUSH1 0x20 ADD DUP3 DUP2 SUB DUP3 MSTORE PUSH1 0x1F DUP2 MSTORE PUSH1 0x20 ADD DUP1 PUSH32 0x416D6F756E74206D757374206265206C657373207468616E20737570706C7900 DUP2 MSTORE POP PUSH1 0x20 ADD SWAP2 POP POP PUSH1 0x40 MLOAD DUP1 SWAP2 SUB SWAP1 REVERT JUMPDEST DUP2 PUSH2 0x1823 JUMPI PUSH1 0x0 PUSH2 0x1813 DUP5 PUSH2 0x32AD JUMP JUMPDEST POP POP POP POP POP SWAP1 POP DUP1 SWAP2 POP POP PUSH2 0x183A JUMP JUMPDEST PUSH1 0x0 PUSH2 0x182E DUP5 PUSH2 0x32AD JUMP JUMPDEST POP POP POP POP SWAP2 POP POP DUP1 SWAP2 POP POP JUMPDEST SWAP3 SWAP2 POP POP JUMP JUMPDEST PUSH32 0x0 DUP2 JUMP JUMPDEST PUSH1 0x12 PUSH1 0x1 SWAP1 SLOAD SWAP1 PUSH2 0x100 EXP SWAP1 DIV PUSH1 0xFF AND DUP2 JUMP JUMPDEST PUSH2 0x187F PUSH2 0x2B2C JUMP JUMPDEST PUSH20 0xFFFFFFFFFFFFFFFFFFFFFFFFFFFFFFFFFFFFFFFF AND PUSH1 0x0 DUP1 SLOAD SWAP1 PUSH2 0x100 EXP SWAP1 DIV PUSH20 0xFFFFFFFFFFFFFFFFFFFFFFFFFFFFFFFFFFFFFFFF AND PUSH20 0xFFFFFFFFFFFFFFFFFFFFFFFFFFFFFFFFFFFFFFFF AND EQ PUSH2 0x193F JUMPI PUSH1 0x40 MLOAD PUSH32 0x8C379A000000000000000000000000000000000000000000000000000000000 DUP2 MSTORE PUSH1 0x4 ADD DUP1 DUP1 PUSH1 0x20 ADD DUP3 DUP2 SUB DUP3 MSTORE PUSH1 0x20 DUP2 MSTORE PUSH1 0x20 ADD DUP1 PUSH32 0x4F776E61626C653A2063616C6C6572206973206E6F7420746865206F776E6572 DUP2 MSTORE POP PUSH1 0x20 ADD SWAP2 POP POP PUSH1 0x40 MLOAD DUP1 SWAP2 SUB SWAP1 REVERT JUMPDEST PUSH1 0x7 PUSH1 0x0 DUP3 PUSH20 0xFFFFFFFFFFFFFFFFFFFFFFFFFFFFFFFFFFFFFFFF AND PUSH20 0xFFFFFFFFFFFFFFFFFFFFFFFFFFFFFFFFFFFFFFFF AND DUP2 MSTORE PUSH1 0x20 ADD SWAP1 DUP2 MSTORE PUSH1 0x20 ADD PUSH1 0x0 KECCAK256 PUSH1 0x0 SWAP1 SLOAD SWAP1 PUSH2 0x100 EXP SWAP1 DIV PUSH1 0xFF AND ISZERO PUSH2 0x19FF JUMPI PUSH1 0x40 MLOAD PUSH32 0x8C379A000000000000000000000000000000000000000000000000000000000 DUP2 MSTORE PUSH1 0x4 ADD DUP1 DUP1 PUSH1 0x20 ADD DUP3 DUP2 SUB DUP3 MSTORE PUSH1 0x1B DUP2 MSTORE PUSH1 0x20 ADD DUP1 PUSH32 0x4163636F756E7420697320616C7265616479206578636C756465640000000000 DUP2 MSTORE POP PUSH1 0x20 ADD SWAP2 POP POP PUSH1 0x40 MLOAD DUP1 SWAP2 SUB SWAP1 REVERT JUMPDEST PUSH1 0x0 PUSH1 0x3 PUSH1 0x0 DUP4 PUSH20 0xFFFFFFFFFFFFFFFFFFFFFFFFFFFFFFFFFFFFFFFF AND PUSH20 0xFFFFFFFFFFFFFFFFFFFFFFFFFFFFFFFFFFFFFFFF AND DUP2 MSTORE PUSH1 0x20 ADD SWAP1 DUP2 MSTORE PUSH1 0x20 ADD PUSH1 0x0 KECCAK256 SLOAD GT ISZERO PUSH2 0x1AD3 JUMPI PUSH2 0x1A8F PUSH1 0x3 PUSH1 0x0 DUP4 PUSH20 0xFFFFFFFFFFFFFFFFFFFFFFFFFFFFFFFFFFFFFFFF AND PUSH20 0xFFFFFFFFFFFFFFFFFFFFFFFFFFFFFFFFFFFFFFFF AND DUP2 MSTORE PUSH1 0x20 ADD SWAP1 DUP2 MSTORE PUSH1 0x20 ADD PUSH1 0x0 KECCAK256 SLOAD PUSH2 0xFF1 JUMP JUMPDEST PUSH1 0x4 PUSH1 0x0 DUP4 PUSH20 0xFFFFFFFFFFFFFFFFFFFFFFFFFFFFFFFFFFFFFFFF AND PUSH20 0xFFFFFFFFFFFFFFFFFFFFFFFFFFFFFFFFFFFFFFFF AND DUP2 MSTORE PUSH1 0x20 ADD SWAP1 DUP2 MSTORE PUSH1 0x20 ADD PUSH1 0x0 KECCAK256 DUP2 SWAP1 SSTORE POP JUMPDEST PUSH1 0x1 PUSH1 0x7 PUSH1 0x0 DUP4 PUSH20 0xFFFFFFFFFFFFFFFFFFFFFFFFFFFFFFFFFFFFFFFF AND PUSH20 0xFFFFFFFFFFFFFFFFFFFFFFFFFFFFFFFFFFFFFFFF AND DUP2 MSTORE PUSH1 0x20 ADD SWAP1 DUP2 MSTORE PUSH1 0x20 ADD PUSH1 0x0 KECCAK256 PUSH1 0x0 PUSH2 0x100 EXP DUP2 SLOAD DUP2 PUSH1 0xFF MUL NOT AND SWAP1 DUP4 ISZERO ISZERO MUL OR SWAP1 SSTORE POP PUSH1 0x8 DUP2 SWAP1 DUP1 PUSH1 0x1 DUP2 SLOAD ADD DUP1 DUP3 SSTORE DUP1 SWAP2 POP POP PUSH1 0x1 SWAP1 SUB SWAP1 PUSH1 0x0 MSTORE PUSH1 0x20 PUSH1 0x0 KECCAK256 ADD PUSH1 0x0 SWAP1 SWAP2 SWAP1 SWAP2 SWAP1 SWAP2 PUSH2 0x100 EXP DUP2 SLOAD DUP2 PUSH20 0xFFFFFFFFFFFFFFFFFFFFFFFFFFFFFFFFFFFFFFFF MUL NOT AND SWAP1 DUP4 PUSH20 0xFFFFFFFFFFFFFFFFFFFFFFFFFFFFFFFFFFFFFFFF AND MUL OR SWAP1 SSTORE POP POP JUMP JUMPDEST PUSH1 0x0 PUSH1 0x6 PUSH1 0x0 DUP4 PUSH20 0xFFFFFFFFFFFFFFFFFFFFFFFFFFFFFFFFFFFFFFFF AND PUSH20 0xFFFFFFFFFFFFFFFFFFFFFFFFFFFFFFFFFFFFFFFF AND DUP2 MSTORE PUSH1 0x20 ADD SWAP1 DUP2 MSTORE PUSH1 0x20 ADD PUSH1 0x0 KECCAK256 PUSH1 0x0 SWAP1 SLOAD SWAP1 PUSH2 0x100 EXP SWAP1 DIV PUSH1 0xFF AND SWAP1 POP SWAP2 SWAP1 POP JUMP JUMPDEST PUSH1 0x10 SLOAD DUP2 JUMP JUMPDEST PUSH1 0x0 PUSH1 0x7 PUSH1 0x0 DUP4 PUSH20 0xFFFFFFFFFFFFFFFFFFFFFFFFFFFFFFFFFFFFFFFF AND PUSH20 0xFFFFFFFFFFFFFFFFFFFFFFFFFFFFFFFFFFFFFFFF AND DUP2 MSTORE PUSH1 0x20 ADD SWAP1 DUP2 MSTORE PUSH1 0x20 ADD PUSH1 0x0 KECCAK256 PUSH1 0x0 SWAP1 SLOAD SWAP1 PUSH2 0x100 EXP SWAP1 DIV PUSH1 0xFF AND ISZERO PUSH2 0x1C88 JUMPI PUSH1 0x4 PUSH1 0x0 DUP4 PUSH20 0xFFFFFFFFFFFFFFFFFFFFFFFFFFFFFFFFFFFFFFFF AND PUSH20 0xFFFFFFFFFFFFFFFFFFFFFFFFFFFFFFFFFFFFFFFF AND DUP2 MSTORE PUSH1 0x20 ADD SWAP1 DUP2 MSTORE PUSH1 0x20 ADD PUSH1 0x0 KECCAK256 SLOAD SWAP1 POP PUSH2 0x1CD3 JUMP JUMPDEST PUSH2 0x1CD0 PUSH1 0x3 PUSH1 0x0 DUP5 PUSH20 0xFFFFFFFFFFFFFFFFFFFFFFFFFFFFFFFFFFFFFFFF AND PUSH20 0xFFFFFFFFFFFFFFFFFFFFFFFFFFFFFFFFFFFFFFFF AND DUP2 MSTORE PUSH1 0x20 ADD SWAP1 DUP2 MSTORE PUSH1 0x20 ADD PUSH1 0x0 KECCAK256 SLOAD PUSH2 0xFF1 JUMP JUMPDEST SWAP1 POP JUMPDEST SWAP2 SWAP1 POP JUMP JUMPDEST PUSH2 0x1CE0 PUSH2 0x2B2C JUMP JUMPDEST PUSH20 0xFFFFFFFFFFFFFFFFFFFFFFFFFFFFFFFFFFFFFFFF AND PUSH1 0x0 DUP1 SLOAD SWAP1 PUSH2 0x100 EXP SWAP1 DIV PUSH20 0xFFFFFFFFFFFFFFFFFFFFFFFFFFFFFFFFFFFFFFFF AND PUSH20 0xFFFFFFFFFFFFFFFFFFFFFFFFFFFFFFFFFFFFFFFF AND EQ PUSH2 0x1DA0 JUMPI PUSH1 0x40 MLOAD PUSH32 0x8C379A000000000000000000000000000000000000000000000000000000000 DUP2 MSTORE PUSH1 0x4 ADD DUP1 DUP1 PUSH1 0x20 ADD DUP3 DUP2 SUB DUP3 MSTORE PUSH1 0x20 DUP2 MSTORE PUSH1 0x20 ADD DUP1 PUSH32 0x4F776E61626C653A2063616C6C6572206973206E6F7420746865206F776E6572 DUP2 MSTORE POP PUSH1 0x20 ADD SWAP2 POP POP PUSH1 0x40 MLOAD DUP1 SWAP2 SUB SWAP1 REVERT JUMPDEST PUSH1 0x0 PUSH20 0xFFFFFFFFFFFFFFFFFFFFFFFFFFFFFFFFFFFFFFFF AND PUSH1 0x0 DUP1 SLOAD SWAP1 PUSH2 0x100 EXP SWAP1 DIV PUSH20 0xFFFFFFFFFFFFFFFFFFFFFFFFFFFFFFFFFFFFFFFF AND PUSH20 0xFFFFFFFFFFFFFFFFFFFFFFFFFFFFFFFFFFFFFFFF AND PUSH32 0x8BE0079C531659141344CD1FD0A4F28419497F9722A3DAAFE3B4186F6B6457E0 PUSH1 0x40 MLOAD PUSH1 0x40 MLOAD DUP1 SWAP2 SUB SWAP1 LOG3 PUSH1 0x0 DUP1 PUSH1 0x0 PUSH2 0x100 EXP DUP2 SLOAD DUP2 PUSH20 0xFFFFFFFFFFFFFFFFFFFFFFFFFFFFFFFFFFFFFFFF MUL NOT AND SWAP1 DUP4 PUSH20 0xFFFFFFFFFFFFFFFFFFFFFFFFFFFFFFFFFFFFFFFF AND MUL OR SWAP1 SSTORE POP JUMP JUMPDEST PUSH1 0x13 SLOAD DUP2 JUMP JUMPDEST PUSH1 0x0 PUSH1 0x7 PUSH1 0x0 DUP4 PUSH20 0xFFFFFFFFFFFFFFFFFFFFFFFFFFFFFFFFFFFFFFFF AND PUSH20 0xFFFFFFFFFFFFFFFFFFFFFFFFFFFFFFFFFFFFFFFF AND DUP2 MSTORE PUSH1 0x20 ADD SWAP1 DUP2 MSTORE PUSH1 0x20 ADD PUSH1 0x0 KECCAK256 PUSH1 0x0 SWAP1 SLOAD SWAP1 PUSH2 0x100 EXP SWAP1 DIV PUSH1 0xFF AND SWAP1 POP SWAP2 SWAP1 POP JUMP JUMPDEST PUSH1 0x0 DUP1 PUSH1 0x0 SWAP1 SLOAD SWAP1 PUSH2 0x100 EXP SWAP1 DIV PUSH20 0xFFFFFFFFFFFFFFFFFFFFFFFFFFFFFFFFFFFFFFFF AND SWAP1 POP SWAP1 JUMP JUMPDEST PUSH2 0x1EEB PUSH2 0x2B2C JUMP JUMPDEST PUSH20 0xFFFFFFFFFFFFFFFFFFFFFFFFFFFFFFFFFFFFFFFF AND PUSH1 0x0 DUP1 SLOAD SWAP1 PUSH2 0x100 EXP SWAP1 DIV PUSH20 0xFFFFFFFFFFFFFFFFFFFFFFFFFFFFFFFFFFFFFFFF AND PUSH20 0xFFFFFFFFFFFFFFFFFFFFFFFFFFFFFFFFFFFFFFFF AND EQ PUSH2 0x1FAB JUMPI PUSH1 0x40 MLOAD PUSH32 0x8C379A000000000000000000000000000000000000000000000000000000000 DUP2 MSTORE PUSH1 0x4 ADD DUP1 DUP1 PUSH1 0x20 ADD DUP3 DUP2 SUB DUP3 MSTORE PUSH1 0x20 DUP2 MSTORE PUSH1 0x20 ADD DUP1 PUSH32 0x4F776E61626C653A2063616C6C6572206973206E6F7420746865206F776E6572 DUP2 MSTORE POP PUSH1 0x20 ADD SWAP2 POP POP PUSH1 0x40 MLOAD DUP1 SWAP2 SUB SWAP1 REVERT JUMPDEST DUP1 PUSH1 0x10 DUP2 SWAP1 SSTORE POP POP JUMP JUMPDEST PUSH1 0x60 PUSH1 0xC DUP1 SLOAD PUSH1 0x1 DUP2 PUSH1 0x1 AND ISZERO PUSH2 0x100 MUL SUB AND PUSH1 0x2 SWAP1 DIV DUP1 PUSH1 0x1F ADD PUSH1 0x20 DUP1 SWAP2 DIV MUL PUSH1 0x20 ADD PUSH1 0x40 MLOAD SWAP1 DUP2 ADD PUSH1 0x40 MSTORE DUP1 SWAP3 SWAP2 SWAP1 DUP2 DUP2 MSTORE PUSH1 0x20 ADD DUP3 DUP1 SLOAD PUSH1 0x1 DUP2 PUSH1 0x1 AND ISZERO PUSH2 0x100 MUL SUB AND PUSH1 0x2 SWAP1 DIV DUP1 ISZERO PUSH2 0x204D JUMPI DUP1 PUSH1 0x1F LT PUSH2 0x2022 JUMPI PUSH2 0x100 DUP1 DUP4 SLOAD DIV MUL DUP4 MSTORE SWAP2 PUSH1 0x20 ADD SWAP2 PUSH2 0x204D JUMP JUMPDEST DUP3 ADD SWAP2 SWAP1 PUSH1 0x0 MSTORE PUSH1 0x20 PUSH1 0x0 KECCAK256 SWAP1 JUMPDEST DUP2 SLOAD DUP2 MSTORE SWAP1 PUSH1 0x1 ADD SWAP1 PUSH1 0x20 ADD DUP1 DUP4 GT PUSH2 0x2030 JUMPI DUP3 SWAP1 SUB PUSH1 0x1F AND DUP3 ADD SWAP2 JUMPDEST POP POP POP POP POP SWAP1 POP SWAP1 JUMP JUMPDEST PUSH1 0x0 PUSH2 0x211A PUSH2 0x2064 PUSH2 0x2B2C JUMP JUMPDEST DUP5 PUSH2 0x2115 DUP6 PUSH1 0x40 MLOAD DUP1 PUSH1 0x60 ADD PUSH1 0x40 MSTORE DUP1 PUSH1 0x25 DUP2 MSTORE PUSH1 0x20 ADD PUSH2 0x4DFD PUSH1 0x25 SWAP2 CODECOPY PUSH1 0x5 PUSH1 0x0 PUSH2 0x208E PUSH2 0x2B2C JUMP JUMPDEST PUSH20 0xFFFFFFFFFFFFFFFFFFFFFFFFFFFFFFFFFFFFFFFF AND PUSH20 0xFFFFFFFFFFFFFFFFFFFFFFFFFFFFFFFFFFFFFFFF AND DUP2 MSTORE PUSH1 0x20 ADD SWAP1 DUP2 MSTORE PUSH1 0x20 ADD PUSH1 0x0 KECCAK256 PUSH1 0x0 DUP11 PUSH20 0xFFFFFFFFFFFFFFFFFFFFFFFFFFFFFFFFFFFFFFFF AND PUSH20 0xFFFFFFFFFFFFFFFFFFFFFFFFFFFFFFFFFFFFFFFF AND DUP2 MSTORE PUSH1 0x20 ADD SWAP1 DUP2 MSTORE PUSH1 0x20 ADD PUSH1 0x0 KECCAK256 SLOAD PUSH2 0x30F0 SWAP1 SWAP3 SWAP2 SWAP1 PUSH4 0xFFFFFFFF AND JUMP JUMPDEST PUSH2 0x2B34 JUMP JUMPDEST PUSH1 0x1 SWAP1 POP SWAP3 SWAP2 POP POP JUMP JUMPDEST CALLER PUSH20 0xFFFFFFFFFFFFFFFFFFFFFFFFFFFFFFFFFFFFFFFF AND PUSH1 0x1 PUSH1 0x0 SWAP1 SLOAD SWAP1 PUSH2 0x100 EXP SWAP1 DIV PUSH20 0xFFFFFFFFFFFFFFFFFFFFFFFFFFFFFFFFFFFFFFFF AND PUSH20 0xFFFFFFFFFFFFFFFFFFFFFFFFFFFFFFFFFFFFFFFF AND EQ PUSH2 0x21CA JUMPI PUSH1 0x40 MLOAD PUSH32 0x8C379A000000000000000000000000000000000000000000000000000000000 DUP2 MSTORE PUSH1 0x4 ADD DUP1 DUP1 PUSH1 0x20 ADD DUP3 DUP2 SUB DUP3 MSTORE PUSH1 0x23 DUP2 MSTORE PUSH1 0x20 ADD DUP1 PUSH2 0x4DDA PUSH1 0x23 SWAP2 CODECOPY PUSH1 0x40 ADD SWAP2 POP POP PUSH1 0x40 MLOAD DUP1 SWAP2 SUB SWAP1 REVERT JUMPDEST PUSH1 0x2 SLOAD TIMESTAMP GT PUSH2 0x2241 JUMPI PUSH1 0x40 MLOAD PUSH32 0x8C379A000000000000000000000000000000000000000000000000000000000 DUP2 MSTORE PUSH1 0x4 ADD DUP1 DUP1 PUSH1 0x20 ADD DUP3 DUP2 SUB DUP3 MSTORE PUSH1 0x1F DUP2 MSTORE PUSH1 0x20 ADD DUP1 PUSH32 0x436F6E7472616374206973206C6F636B656420756E74696C2037206461797300 DUP2 MSTORE POP PUSH1 0x20 ADD SWAP2 POP POP PUSH1 0x40 MLOAD DUP1 SWAP2 SUB SWAP1 REVERT JUMPDEST PUSH1 0x1 PUSH1 0x0 SWAP1 SLOAD SWAP1 PUSH2 0x100 EXP SWAP1 DIV PUSH20 0xFFFFFFFFFFFFFFFFFFFFFFFFFFFFFFFFFFFFFFFF AND PUSH20 0xFFFFFFFFFFFFFFFFFFFFFFFFFFFFFFFFFFFFFFFF AND PUSH1 0x0 DUP1 SLOAD SWAP1 PUSH2 0x100 EXP SWAP1 DIV PUSH20 0xFFFFFFFFFFFFFFFFFFFFFFFFFFFFFFFFFFFFFFFF AND PUSH20 0xFFFFFFFFFFFFFFFFFFFFFFFFFFFFFFFFFFFFFFFF AND PUSH32 0x8BE0079C531659141344CD1FD0A4F28419497F9722A3DAAFE3B4186F6B6457E0 PUSH1 0x40 MLOAD PUSH1 0x40 MLOAD DUP1 SWAP2 SUB SWAP1 LOG3 PUSH1 0x1 PUSH1 0x0 SWAP1 SLOAD SWAP1 PUSH2 0x100 EXP SWAP1 DIV PUSH20 0xFFFFFFFFFFFFFFFFFFFFFFFFFFFFFFFFFFFFFFFF AND PUSH1 0x0 DUP1 PUSH2 0x100 EXP DUP2 SLOAD DUP2 PUSH20 0xFFFFFFFFFFFFFFFFFFFFFFFFFFFFFFFFFFFFFFFF MUL NOT AND SWAP1 DUP4 PUSH20 0xFFFFFFFFFFFFFFFFFFFFFFFFFFFFFFFFFFFFFFFF AND MUL OR SWAP1 SSTORE POP JUMP JUMPDEST PUSH1 0x0 PUSH2 0x2355 PUSH2 0x234E PUSH2 0x2B2C JUMP JUMPDEST DUP5 DUP5 PUSH2 0x2D2B JUMP JUMPDEST PUSH1 0x1 SWAP1 POP SWAP3 SWAP2 POP POP JUMP JUMPDEST PUSH1 0x0 PUSH1 0x2 SLOAD SWAP1 POP SWAP1 JUMP JUMPDEST PUSH2 0x2371 PUSH2 0x2B2C JUMP JUMPDEST PUSH20 0xFFFFFFFFFFFFFFFFFFFFFFFFFFFFFFFFFFFFFFFF AND PUSH1 0x0 DUP1 SLOAD SWAP1 PUSH2 0x100 EXP SWAP1 DIV PUSH20 0xFFFFFFFFFFFFFFFFFFFFFFFFFFFFFFFFFFFFFFFF AND PUSH20 0xFFFFFFFFFFFFFFFFFFFFFFFFFFFFFFFFFFFFFFFF AND EQ PUSH2 0x2431 JUMPI PUSH1 0x40 MLOAD PUSH32 0x8C379A000000000000000000000000000000000000000000000000000000000 DUP2 MSTORE PUSH1 0x4 ADD DUP1 DUP1 PUSH1 0x20 ADD DUP3 DUP2 SUB DUP3 MSTORE PUSH1 0x20 DUP2 MSTORE PUSH1 0x20 ADD DUP1 PUSH32 0x4F776E61626C653A2063616C6C6572206973206E6F7420746865206F776E6572 DUP2 MSTORE POP PUSH1 0x20 ADD SWAP2 POP POP PUSH1 0x40 MLOAD DUP1 SWAP2 SUB SWAP1 REVERT JUMPDEST DUP1 PUSH1 0x12 PUSH1 0x1 PUSH2 0x100 EXP DUP2 SLOAD DUP2 PUSH1 0xFF MUL NOT AND SWAP1 DUP4 ISZERO ISZERO MUL OR SWAP1 SSTORE POP PUSH32 0x53726DFCAF90650AA7EB35524F4D3220F07413C8D6CB404CC8C18BF5591BC159 DUP2 PUSH1 0x40 MLOAD DUP1 DUP3 ISZERO ISZERO DUP2 MSTORE PUSH1 0x20 ADD SWAP2 POP POP PUSH1 0x40 MLOAD DUP1 SWAP2 SUB SWAP1 LOG1 POP JUMP JUMPDEST PUSH2 0x248F PUSH2 0x2B2C JUMP JUMPDEST PUSH20 0xFFFFFFFFFFFFFFFFFFFFFFFFFFFFFFFFFFFFFFFF AND PUSH1 0x0 DUP1 SLOAD SWAP1 PUSH2 0x100 EXP SWAP1 DIV PUSH20 0xFFFFFFFFFFFFFFFFFFFFFFFFFFFFFFFFFFFFFFFF AND PUSH20 0xFFFFFFFFFFFFFFFFFFFFFFFFFFFFFFFFFFFFFFFF AND EQ PUSH2 0x254F JUMPI PUSH1 0x40 MLOAD PUSH32 0x8C379A000000000000000000000000000000000000000000000000000000000 DUP2 MSTORE PUSH1 0x4 ADD DUP1 DUP1 PUSH1 0x20 ADD DUP3 DUP2 SUB DUP3 MSTORE PUSH1 0x20 DUP2 MSTORE PUSH1 0x20 ADD DUP1 PUSH32 0x4F776E61626C653A2063616C6C6572206973206E6F7420746865206F776E6572 DUP2 MSTORE POP PUSH1 0x20 ADD SWAP2 POP POP PUSH1 0x40 MLOAD DUP1 SWAP2 SUB SWAP1 REVERT JUMPDEST PUSH2 0x257D PUSH1 0x64 PUSH2 0x256F DUP4 PUSH8 0xDE0B6B3A7640000 PUSH2 0x3353 SWAP1 SWAP2 SWAP1 PUSH4 0xFFFFFFFF AND JUMP JUMPDEST PUSH2 0x31DB SWAP1 SWAP2 SWAP1 PUSH4 0xFFFFFFFF AND JUMP JUMPDEST PUSH1 0x13 DUP2 SWAP1 SSTORE POP POP JUMP JUMPDEST PUSH2 0x258E PUSH2 0x2B2C JUMP JUMPDEST PUSH20 0xFFFFFFFFFFFFFFFFFFFFFFFFFFFFFFFFFFFFFFFF AND PUSH1 0x0 DUP1 SLOAD SWAP1 PUSH2 0x100 EXP SWAP1 DIV PUSH20 0xFFFFFFFFFFFFFFFFFFFFFFFFFFFFFFFFFFFFFFFF AND PUSH20 0xFFFFFFFFFFFFFFFFFFFFFFFFFFFFFFFFFFFFFFFF AND EQ PUSH2 0x264E JUMPI PUSH1 0x40 MLOAD PUSH32 0x8C379A000000000000000000000000000000000000000000000000000000000 DUP2 MSTORE PUSH1 0x4 ADD DUP1 DUP1 PUSH1 0x20 ADD DUP3 DUP2 SUB DUP3 MSTORE PUSH1 0x20 DUP2 MSTORE PUSH1 0x20 ADD DUP1 PUSH32 0x4F776E61626C653A2063616C6C6572206973206E6F7420746865206F776E6572 DUP2 MSTORE POP PUSH1 0x20 ADD SWAP2 POP POP PUSH1 0x40 MLOAD DUP1 SWAP2 SUB SWAP1 REVERT JUMPDEST PUSH1 0x0 DUP1 SLOAD SWAP1 PUSH2 0x100 EXP SWAP1 DIV PUSH20 0xFFFFFFFFFFFFFFFFFFFFFFFFFFFFFFFFFFFFFFFF AND PUSH1 0x1 PUSH1 0x0 PUSH2 0x100 EXP DUP2 SLOAD DUP2 PUSH20 0xFFFFFFFFFFFFFFFFFFFFFFFFFFFFFFFFFFFFFFFF MUL NOT AND SWAP1 DUP4 PUSH20 0xFFFFFFFFFFFFFFFFFFFFFFFFFFFFFFFFFFFFFFFF AND MUL OR SWAP1 SSTORE POP PUSH1 0x0 DUP1 PUSH1 0x0 PUSH2 0x100 EXP DUP2 SLOAD DUP2 PUSH20 0xFFFFFFFFFFFFFFFFFFFFFFFFFFFFFFFFFFFFFFFF MUL NOT AND SWAP1 DUP4 PUSH20 0xFFFFFFFFFFFFFFFFFFFFFFFFFFFFFFFFFFFFFFFF AND MUL OR SWAP1 SSTORE POP DUP1 TIMESTAMP ADD PUSH1 0x2 DUP2 SWAP1 SSTORE POP PUSH1 0x0 PUSH20 0xFFFFFFFFFFFFFFFFFFFFFFFFFFFFFFFFFFFFFFFF AND PUSH1 0x0 DUP1 SLOAD SWAP1 PUSH2 0x100 EXP SWAP1 DIV PUSH20 0xFFFFFFFFFFFFFFFFFFFFFFFFFFFFFFFFFFFFFFFF AND PUSH20 0xFFFFFFFFFFFFFFFFFFFFFFFFFFFFFFFFFFFFFFFF AND PUSH32 0x8BE0079C531659141344CD1FD0A4F28419497F9722A3DAAFE3B4186F6B6457E0 PUSH1 0x40 MLOAD PUSH1 0x40 MLOAD DUP1 SWAP2 SUB SWAP1 LOG3 POP JUMP JUMPDEST PUSH1 0x0 PUSH1 0x5 PUSH1 0x0 DUP5 PUSH20 0xFFFFFFFFFFFFFFFFFFFFFFFFFFFFFFFFFFFFFFFF AND PUSH20 0xFFFFFFFFFFFFFFFFFFFFFFFFFFFFFFFFFFFFFFFF AND DUP2 MSTORE PUSH1 0x20 ADD SWAP1 DUP2 MSTORE PUSH1 0x20 ADD PUSH1 0x0 KECCAK256 PUSH1 0x0 DUP4 PUSH20 0xFFFFFFFFFFFFFFFFFFFFFFFFFFFFFFFFFFFFFFFF AND PUSH20 0xFFFFFFFFFFFFFFFFFFFFFFFFFFFFFFFFFFFFFFFF AND DUP2 MSTORE PUSH1 0x20 ADD SWAP1 DUP2 MSTORE PUSH1 0x20 ADD PUSH1 0x0 KECCAK256 SLOAD SWAP1 POP SWAP3 SWAP2 POP POP JUMP JUMPDEST PUSH2 0x2806 PUSH2 0x2B2C JUMP JUMPDEST PUSH20 0xFFFFFFFFFFFFFFFFFFFFFFFFFFFFFFFFFFFFFFFF AND PUSH1 0x0 DUP1 SLOAD SWAP1 PUSH2 0x100 EXP SWAP1 DIV PUSH20 0xFFFFFFFFFFFFFFFFFFFFFFFFFFFFFFFFFFFFFFFF AND PUSH20 0xFFFFFFFFFFFFFFFFFFFFFFFFFFFFFFFFFFFFFFFF AND EQ PUSH2 0x28C6 JUMPI PUSH1 0x40 MLOAD PUSH32 0x8C379A000000000000000000000000000000000000000000000000000000000 DUP2 MSTORE PUSH1 0x4 ADD DUP1 DUP1 PUSH1 0x20 ADD DUP3 DUP2 SUB DUP3 MSTORE PUSH1 0x20 DUP2 MSTORE PUSH1 0x20 ADD DUP1 PUSH32 0x4F776E61626C653A2063616C6C6572206973206E6F7420746865206F776E6572 DUP2 MSTORE POP PUSH1 0x20 ADD SWAP2 POP POP PUSH1 0x40 MLOAD DUP1 SWAP2 SUB SWAP1 REVERT JUMPDEST PUSH1 0x0 PUSH1 0x6 PUSH1 0x0 DUP4 PUSH20 0xFFFFFFFFFFFFFFFFFFFFFFFFFFFFFFFFFFFFFFFF AND PUSH20 0xFFFFFFFFFFFFFFFFFFFFFFFFFFFFFFFFFFFFFFFF AND DUP2 MSTORE PUSH1 0x20 ADD SWAP1 DUP2 MSTORE PUSH1 0x20 ADD PUSH1 0x0 KECCAK256 PUSH1 0x0 PUSH2 0x100 EXP DUP2 SLOAD DUP2 PUSH1 0xFF MUL NOT AND SWAP1 DUP4 ISZERO ISZERO MUL OR SWAP1 SSTORE POP POP JUMP JUMPDEST PUSH2 0x2929 PUSH2 0x2B2C JUMP JUMPDEST PUSH20 0xFFFFFFFFFFFFFFFFFFFFFFFFFFFFFFFFFFFFFFFF AND PUSH1 0x0 DUP1 SLOAD SWAP1 PUSH2 0x100 EXP SWAP1 DIV PUSH20 0xFFFFFFFFFFFFFFFFFFFFFFFFFFFFFFFFFFFFFFFF AND PUSH20 0xFFFFFFFFFFFFFFFFFFFFFFFFFFFFFFFFFFFFFFFF AND EQ PUSH2 0x29E9 JUMPI PUSH1 0x40 MLOAD PUSH32 0x8C379A000000000000000000000000000000000000000000000000000000000 DUP2 MSTORE PUSH1 0x4 ADD DUP1 DUP1 PUSH1 0x20 ADD DUP3 DUP2 SUB DUP3 MSTORE PUSH1 0x20 DUP2 MSTORE PUSH1 0x20 ADD DUP1 PUSH32 0x4F776E61626C653A2063616C6C6572206973206E6F7420746865206F776E6572 DUP2 MSTORE POP PUSH1 0x20 ADD SWAP2 POP POP PUSH1 0x40 MLOAD DUP1 SWAP2 SUB SWAP1 REVERT JUMPDEST PUSH1 0x0 PUSH20 0xFFFFFFFFFFFFFFFFFFFFFFFFFFFFFFFFFFFFFFFF AND DUP2 PUSH20 0xFFFFFFFFFFFFFFFFFFFFFFFFFFFFFFFFFFFFFFFF AND EQ ISZERO PUSH2 0x2A6F JUMPI PUSH1 0x40 MLOAD PUSH32 0x8C379A000000000000000000000000000000000000000000000000000000000 DUP2 MSTORE PUSH1 0x4 ADD DUP1 DUP1 PUSH1 0x20 ADD DUP3 DUP2 SUB DUP3 MSTORE PUSH1 0x26 DUP2 MSTORE PUSH1 0x20 ADD DUP1 PUSH2 0x4C83 PUSH1 0x26 SWAP2 CODECOPY PUSH1 0x40 ADD SWAP2 POP POP PUSH1 0x40 MLOAD DUP1 SWAP2 SUB SWAP1 REVERT JUMPDEST DUP1 PUSH20 0xFFFFFFFFFFFFFFFFFFFFFFFFFFFFFFFFFFFFFFFF AND PUSH1 0x0 DUP1 SLOAD SWAP1 PUSH2 0x100 EXP SWAP1 DIV PUSH20 0xFFFFFFFFFFFFFFFFFFFFFFFFFFFFFFFFFFFFFFFF AND PUSH20 0xFFFFFFFFFFFFFFFFFFFFFFFFFFFFFFFFFFFFFFFF AND PUSH32 0x8BE0079C531659141344CD1FD0A4F28419497F9722A3DAAFE3B4186F6B6457E0 PUSH1 0x40 MLOAD PUSH1 0x40 MLOAD DUP1 SWAP2 SUB SWAP1 LOG3 DUP1 PUSH1 0x0 DUP1 PUSH2 0x100 EXP DUP2 SLOAD DUP2 PUSH20 0xFFFFFFFFFFFFFFFFFFFFFFFFFFFFFFFFFFFFFFFF MUL NOT AND SWAP1 DUP4 PUSH20 0xFFFFFFFFFFFFFFFFFFFFFFFFFFFFFFFFFFFFFFFF AND MUL OR SWAP1 SSTORE POP POP JUMP JUMPDEST PUSH1 0x0 CALLER SWAP1 POP SWAP1 JUMP JUMPDEST PUSH1 0x0 PUSH20 0xFFFFFFFFFFFFFFFFFFFFFFFFFFFFFFFFFFFFFFFF AND DUP4 PUSH20 0xFFFFFFFFFFFFFFFFFFFFFFFFFFFFFFFFFFFFFFFF AND EQ ISZERO PUSH2 0x2BBA JUMPI PUSH1 0x40 MLOAD PUSH32 0x8C379A000000000000000000000000000000000000000000000000000000000 DUP2 MSTORE PUSH1 0x4 ADD DUP1 DUP1 PUSH1 0x20 ADD DUP3 DUP2 SUB DUP3 MSTORE PUSH1 0x24 DUP2 MSTORE PUSH1 0x20 ADD DUP1 PUSH2 0x4D8A PUSH1 0x24 SWAP2 CODECOPY PUSH1 0x40 ADD SWAP2 POP POP PUSH1 0x40 MLOAD DUP1 SWAP2 SUB SWAP1 REVERT JUMPDEST PUSH1 0x0 PUSH20 0xFFFFFFFFFFFFFFFFFFFFFFFFFFFFFFFFFFFFFFFF AND DUP3 PUSH20 0xFFFFFFFFFFFFFFFFFFFFFFFFFFFFFFFFFFFFFFFF AND EQ ISZERO PUSH2 0x2C40 JUMPI PUSH1 0x40 MLOAD PUSH32 0x8C379A000000000000000000000000000000000000000000000000000000000 DUP2 MSTORE PUSH1 0x4 ADD DUP1 DUP1 PUSH1 0x20 ADD DUP3 DUP2 SUB DUP3 MSTORE PUSH1 0x22 DUP2 MSTORE PUSH1 0x20 ADD DUP1 PUSH2 0x4CA9 PUSH1 0x22 SWAP2 CODECOPY PUSH1 0x40 ADD SWAP2 POP POP PUSH1 0x40 MLOAD DUP1 SWAP2 SUB SWAP1 REVERT JUMPDEST DUP1 PUSH1 0x5 PUSH1 0x0 DUP6 PUSH20 0xFFFFFFFFFFFFFFFFFFFFFFFFFFFFFFFFFFFFFFFF AND PUSH20 0xFFFFFFFFFFFFFFFFFFFFFFFFFFFFFFFFFFFFFFFF AND DUP2 MSTORE PUSH1 0x20 ADD SWAP1 DUP2 MSTORE PUSH1 0x20 ADD PUSH1 0x0 KECCAK256 PUSH1 0x0 DUP5 PUSH20 0xFFFFFFFFFFFFFFFFFFFFFFFFFFFFFFFFFFFFFFFF AND PUSH20 0xFFFFFFFFFFFFFFFFFFFFFFFFFFFFFFFFFFFFFFFF AND DUP2 MSTORE PUSH1 0x20 ADD SWAP1 DUP2 MSTORE PUSH1 0x20 ADD PUSH1 0x0 KECCAK256 DUP2 SWAP1 SSTORE POP DUP2 PUSH20 0xFFFFFFFFFFFFFFFFFFFFFFFFFFFFFFFFFFFFFFFF AND DUP4 PUSH20 0xFFFFFFFFFFFFFFFFFFFFFFFFFFFFFFFFFFFFFFFF AND PUSH32 0x8C5BE1E5EBEC7D5BD14F71427D1E84F3DD0314C0F7B2291E5B200AC8C7C3B925 DUP4 PUSH1 0x40 MLOAD DUP1 DUP3 DUP2 MSTORE PUSH1 0x20 ADD SWAP2 POP POP PUSH1 0x40 MLOAD DUP1 SWAP2 SUB SWAP1 LOG3 POP POP POP JUMP JUMPDEST PUSH1 0x0 PUSH20 0xFFFFFFFFFFFFFFFFFFFFFFFFFFFFFFFFFFFFFFFF AND DUP4 PUSH20 0xFFFFFFFFFFFFFFFFFFFFFFFFFFFFFFFFFFFFFFFF AND EQ ISZERO PUSH2 0x2DB1 JUMPI PUSH1 0x40 MLOAD PUSH32 0x8C379A000000000000000000000000000000000000000000000000000000000 DUP2 MSTORE PUSH1 0x4 ADD DUP1 DUP1 PUSH1 0x20 ADD DUP3 DUP2 SUB DUP3 MSTORE PUSH1 0x25 DUP2 MSTORE PUSH1 0x20 ADD DUP1 PUSH2 0x4D65 PUSH1 0x25 SWAP2 CODECOPY PUSH1 0x40 ADD SWAP2 POP POP PUSH1 0x40 MLOAD DUP1 SWAP2 SUB SWAP1 REVERT JUMPDEST PUSH1 0x0 PUSH20 0xFFFFFFFFFFFFFFFFFFFFFFFFFFFFFFFFFFFFFFFF AND DUP3 PUSH20 0xFFFFFFFFFFFFFFFFFFFFFFFFFFFFFFFFFFFFFFFF AND EQ ISZERO PUSH2 0x2E37 JUMPI PUSH1 0x40 MLOAD PUSH32 0x8C379A000000000000000000000000000000000000000000000000000000000 DUP2 MSTORE PUSH1 0x4 ADD DUP1 DUP1 PUSH1 0x20 ADD DUP3 DUP2 SUB DUP3 MSTORE PUSH1 0x23 DUP2 MSTORE PUSH1 0x20 ADD DUP1 PUSH2 0x4C36 PUSH1 0x23 SWAP2 CODECOPY PUSH1 0x40 ADD SWAP2 POP POP PUSH1 0x40 MLOAD DUP1 SWAP2 SUB SWAP1 REVERT JUMPDEST PUSH1 0x0 DUP2 GT PUSH2 0x2E90 JUMPI PUSH1 0x40 MLOAD PUSH32 0x8C379A000000000000000000000000000000000000000000000000000000000 DUP2 MSTORE PUSH1 0x4 ADD DUP1 DUP1 PUSH1 0x20 ADD DUP3 DUP2 SUB DUP3 MSTORE PUSH1 0x29 DUP2 MSTORE PUSH1 0x20 ADD DUP1 PUSH2 0x4D3C PUSH1 0x29 SWAP2 CODECOPY PUSH1 0x40 ADD SWAP2 POP POP PUSH1 0x40 MLOAD DUP1 SWAP2 SUB SWAP1 REVERT JUMPDEST PUSH2 0x2E98 PUSH2 0x1EBA JUMP JUMPDEST PUSH20 0xFFFFFFFFFFFFFFFFFFFFFFFFFFFFFFFFFFFFFFFF AND DUP4 PUSH20 0xFFFFFFFFFFFFFFFFFFFFFFFFFFFFFFFFFFFFFFFF AND EQ ISZERO DUP1 ISZERO PUSH2 0x2F06 JUMPI POP PUSH2 0x2ED6 PUSH2 0x1EBA JUMP JUMPDEST PUSH20 0xFFFFFFFFFFFFFFFFFFFFFFFFFFFFFFFFFFFFFFFF AND DUP3 PUSH20 0xFFFFFFFFFFFFFFFFFFFFFFFFFFFFFFFFFFFFFFFF AND EQ ISZERO JUMPDEST ISZERO PUSH2 0x2F67 JUMPI PUSH1 0x13 SLOAD DUP2 GT ISZERO PUSH2 0x2F66 JUMPI PUSH1 0x40 MLOAD PUSH32 0x8C379A000000000000000000000000000000000000000000000000000000000 DUP2 MSTORE PUSH1 0x4 ADD DUP1 DUP1 PUSH1 0x20 ADD DUP3 DUP2 SUB DUP3 MSTORE PUSH1 0x28 DUP2 MSTORE PUSH1 0x20 ADD DUP1 PUSH2 0x4CCB PUSH1 0x28 SWAP2 CODECOPY PUSH1 0x40 ADD SWAP2 POP POP PUSH1 0x40 MLOAD DUP1 SWAP2 SUB SWAP1 REVERT JUMPDEST JUMPDEST PUSH1 0x0 PUSH2 0x2F72 ADDRESS PUSH2 0x1BED JUMP JUMPDEST SWAP1 POP PUSH1 0x13 SLOAD DUP2 LT PUSH2 0x2F83 JUMPI PUSH1 0x13 SLOAD SWAP1 POP JUMPDEST PUSH1 0x0 PUSH1 0x14 SLOAD DUP3 LT ISZERO SWAP1 POP DUP1 DUP1 ISZERO PUSH2 0x2FA7 JUMPI POP PUSH1 0x12 PUSH1 0x0 SWAP1 SLOAD SWAP1 PUSH2 0x100 EXP SWAP1 DIV PUSH1 0xFF AND ISZERO JUMPDEST DUP1 ISZERO PUSH2 0x2FFF JUMPI POP PUSH32 0x0 PUSH20 0xFFFFFFFFFFFFFFFFFFFFFFFFFFFFFFFFFFFFFFFF AND DUP6 PUSH20 0xFFFFFFFFFFFFFFFFFFFFFFFFFFFFFFFFFFFFFFFF AND EQ ISZERO JUMPDEST DUP1 ISZERO PUSH2 0x3017 JUMPI POP PUSH1 0x12 PUSH1 0x1 SWAP1 SLOAD SWAP1 PUSH2 0x100 EXP SWAP1 DIV PUSH1 0xFF AND JUMPDEST ISZERO PUSH2 0x302B JUMPI PUSH1 0x14 SLOAD SWAP2 POP PUSH2 0x302A DUP3 PUSH2 0x33D9 JUMP JUMPDEST JUMPDEST PUSH1 0x0 PUSH1 0x1 SWAP1 POP PUSH1 0x6 PUSH1 0x0 DUP8 PUSH20 0xFFFFFFFFFFFFFFFFFFFFFFFFFFFFFFFFFFFFFFFF AND PUSH20 0xFFFFFFFFFFFFFFFFFFFFFFFFFFFFFFFFFFFFFFFF AND DUP2 MSTORE PUSH1 0x20 ADD SWAP1 DUP2 MSTORE PUSH1 0x20 ADD PUSH1 0x0 KECCAK256 PUSH1 0x0 SWAP1 SLOAD SWAP1 PUSH2 0x100 EXP SWAP1 DIV PUSH1 0xFF AND DUP1 PUSH2 0x30D2 JUMPI POP PUSH1 0x6 PUSH1 0x0 DUP7 PUSH20 0xFFFFFFFFFFFFFFFFFFFFFFFFFFFFFFFFFFFFFFFF AND PUSH20 0xFFFFFFFFFFFFFFFFFFFFFFFFFFFFFFFFFFFFFFFF AND DUP2 MSTORE PUSH1 0x20 ADD SWAP1 DUP2 MSTORE PUSH1 0x20 ADD PUSH1 0x0 KECCAK256 PUSH1 0x0 SWAP1 SLOAD SWAP1 PUSH2 0x100 EXP SWAP1 DIV PUSH1 0xFF AND JUMPDEST ISZERO PUSH2 0x30DC JUMPI PUSH1 0x0 SWAP1 POP JUMPDEST PUSH2 0x30E8 DUP7 DUP7 DUP7 DUP5 PUSH2 0x34BB JUMP JUMPDEST POP POP POP POP POP POP JUMP JUMPDEST PUSH1 0x0 DUP4 DUP4 GT ISZERO DUP3 SWAP1 PUSH2 0x319D JUMPI PUSH1 0x40 MLOAD PUSH32 0x8C379A000000000000000000000000000000000000000000000000000000000 DUP2 MSTORE PUSH1 0x4 ADD DUP1 DUP1 PUSH1 0x20 ADD DUP3 DUP2 SUB DUP3 MSTORE DUP4 DUP2 DUP2 MLOAD DUP2 MSTORE PUSH1 0x20 ADD SWAP2 POP DUP1 MLOAD SWAP1 PUSH1 0x20 ADD SWAP1 DUP1 DUP4 DUP4 PUSH1 0x0 JUMPDEST DUP4 DUP2 LT ISZERO PUSH2 0x3162 JUMPI DUP1 DUP3 ADD MLOAD DUP2 DUP5 ADD MSTORE PUSH1 0x20 DUP2 ADD SWAP1 POP PUSH2 0x3147 JUMP JUMPDEST POP POP POP POP SWAP1 POP SWAP1 DUP2 ADD SWAP1 PUSH1 0x1F AND DUP1 ISZERO PUSH2 0x318F JUMPI DUP1 DUP3 SUB DUP1 MLOAD PUSH1 0x1 DUP4 PUSH1 0x20 SUB PUSH2 0x100 EXP SUB NOT AND DUP2 MSTORE PUSH1 0x20 ADD SWAP2 POP JUMPDEST POP SWAP3 POP POP POP PUSH1 0x40 MLOAD DUP1 SWAP2 SUB SWAP1 REVERT JUMPDEST POP PUSH1 0x0 DUP4 DUP6 SUB SWAP1 POP DUP1 SWAP2 POP POP SWAP4 SWAP3 POP POP POP JUMP JUMPDEST PUSH1 0x0 DUP1 PUSH1 0x0 PUSH2 0x31BD PUSH2 0x37CC JUMP JUMPDEST SWAP2 POP SWAP2 POP PUSH2 0x31D4 DUP2 DUP4 PUSH2 0x31DB SWAP1 SWAP2 SWAP1 PUSH4 0xFFFFFFFF AND JUMP JUMPDEST SWAP3 POP POP POP SWAP1 JUMP JUMPDEST PUSH1 0x0 PUSH2 0x321D DUP4 DUP4 PUSH1 0x40 MLOAD DUP1 PUSH1 0x40 ADD PUSH1 0x40 MSTORE DUP1 PUSH1 0x1A DUP2 MSTORE PUSH1 0x20 ADD PUSH32 0x536166654D6174683A206469766973696F6E206279207A65726F000000000000 DUP2 MSTORE POP PUSH2 0x3A75 JUMP JUMPDEST SWAP1 POP SWAP3 SWAP2 POP POP JUMP JUMPDEST PUSH1 0x0 DUP1 DUP3 DUP5 ADD SWAP1 POP DUP4 DUP2 LT ISZERO PUSH2 0x32A3 JUMPI PUSH1 0x40 MLOAD PUSH32 0x8C379A000000000000000000000000000000000000000000000000000000000 DUP2 MSTORE PUSH1 0x4 ADD DUP1 DUP1 PUSH1 0x20 ADD DUP3 DUP2 SUB DUP3 MSTORE PUSH1 0x1B DUP2 MSTORE PUSH1 0x20 ADD DUP1 PUSH32 0x536166654D6174683A206164646974696F6E206F766572666C6F770000000000 DUP2 MSTORE POP PUSH1 0x20 ADD SWAP2 POP POP PUSH1 0x40 MLOAD DUP1 SWAP2 SUB SWAP1 REVERT JUMPDEST DUP1 SWAP2 POP POP SWAP3 SWAP2 POP POP JUMP JUMPDEST PUSH1 0x0 DUP1 PUSH1 0x0 DUP1 PUSH1 0x0 DUP1 PUSH1 0x0 DUP1 PUSH1 0x0 PUSH2 0x32C4 DUP11 PUSH2 0x3B3B JUMP JUMPDEST SWAP3 POP SWAP3 POP SWAP3 POP PUSH1 0x0 DUP1 PUSH1 0x0 PUSH2 0x32E2 DUP14 DUP7 DUP7 PUSH2 0x32DD PUSH2 0x31B0 JUMP JUMPDEST PUSH2 0x3B95 JUMP JUMPDEST SWAP3 POP SWAP3 POP SWAP3 POP DUP3 DUP3 DUP3 DUP9 DUP9 DUP9 SWAP12 POP SWAP12 POP SWAP12 POP SWAP12 POP SWAP12 POP SWAP12 POP POP POP POP POP POP POP SWAP2 SWAP4 SWAP6 POP SWAP2 SWAP4 SWAP6 JUMP JUMPDEST PUSH1 0x0 PUSH2 0x334B DUP4 DUP4 PUSH1 0x40 MLOAD DUP1 PUSH1 0x40 ADD PUSH1 0x40 MSTORE DUP1 PUSH1 0x1E DUP2 MSTORE PUSH1 0x20 ADD PUSH32 0x536166654D6174683A207375627472616374696F6E206F766572666C6F770000 DUP2 MSTORE POP PUSH2 0x30F0 JUMP JUMPDEST SWAP1 POP SWAP3 SWAP2 POP POP JUMP JUMPDEST PUSH1 0x0 DUP1 DUP4 EQ ISZERO PUSH2 0x3366 JUMPI PUSH1 0x0 SWAP1 POP PUSH2 0x33D3 JUMP JUMPDEST PUSH1 0x0 DUP3 DUP5 MUL SWAP1 POP DUP3 DUP5 DUP3 DUP2 PUSH2 0x3377 JUMPI INVALID JUMPDEST DIV EQ PUSH2 0x33CE JUMPI PUSH1 0x40 MLOAD PUSH32 0x8C379A000000000000000000000000000000000000000000000000000000000 DUP2 MSTORE PUSH1 0x4 ADD DUP1 DUP1 PUSH1 0x20 ADD DUP3 DUP2 SUB DUP3 MSTORE PUSH1 0x21 DUP2 MSTORE PUSH1 0x20 ADD DUP1 PUSH2 0x4CF3 PUSH1 0x21 SWAP2 CODECOPY PUSH1 0x40 ADD SWAP2 POP POP PUSH1 0x40 MLOAD DUP1 SWAP2 SUB SWAP1 REVERT JUMPDEST DUP1 SWAP2 POP POP JUMPDEST SWAP3 SWAP2 POP POP JUMP JUMPDEST PUSH1 0x1 PUSH1 0x12 PUSH1 0x0 PUSH2 0x100 EXP DUP2 SLOAD DUP2 PUSH1 0xFF MUL NOT AND SWAP1 DUP4 ISZERO ISZERO MUL OR SWAP1 SSTORE POP PUSH1 0x0 PUSH2 0x340A PUSH1 0x2 DUP4 PUSH2 0x31DB SWAP1 SWAP2 SWAP1 PUSH4 0xFFFFFFFF AND JUMP JUMPDEST SWAP1 POP PUSH1 0x0 PUSH2 0x3421 DUP3 DUP5 PUSH2 0x3309 SWAP1 SWAP2 SWAP1 PUSH4 0xFFFFFFFF AND JUMP JUMPDEST SWAP1 POP PUSH1 0x0 SELFBALANCE SWAP1 POP PUSH2 0x3431 DUP4 PUSH2 0x3C1E JUMP JUMPDEST PUSH1 0x0 PUSH2 0x3446 DUP3 SELFBALANCE PUSH2 0x3309 SWAP1 SWAP2 SWAP1 PUSH4 0xFFFFFFFF AND JUMP JUMPDEST SWAP1 POP PUSH2 0x3452 DUP4 DUP3 PUSH2 0x3ECC JUMP JUMPDEST PUSH32 0x17BBFB9A6069321B6DED73BD96327C9E6B7212A5CD51FF219CD61370ACAFB561 DUP5 DUP3 DUP6 PUSH1 0x40 MLOAD DUP1 DUP5 DUP2 MSTORE PUSH1 0x20 ADD DUP4 DUP2 MSTORE PUSH1 0x20 ADD DUP3 DUP2 MSTORE PUSH1 0x20 ADD SWAP4 POP POP POP POP PUSH1 0x40 MLOAD DUP1 SWAP2 SUB SWAP1 LOG1 POP POP POP POP PUSH1 0x0 PUSH1 0x12 PUSH1 0x0 PUSH2 0x100 EXP DUP2 SLOAD DUP2 PUSH1 0xFF MUL NOT AND SWAP1 DUP4 ISZERO ISZERO MUL OR SWAP1 SSTORE POP POP JUMP JUMPDEST DUP1 PUSH2 0x34C9 JUMPI PUSH2 0x34C8 PUSH2 0x401D JUMP JUMPDEST JUMPDEST PUSH1 0x7 PUSH1 0x0 DUP6 PUSH20 0xFFFFFFFFFFFFFFFFFFFFFFFFFFFFFFFFFFFFFFFF AND PUSH20 0xFFFFFFFFFFFFFFFFFFFFFFFFFFFFFFFFFFFFFFFF AND DUP2 MSTORE PUSH1 0x20 ADD SWAP1 DUP2 MSTORE PUSH1 0x20 ADD PUSH1 0x0 KECCAK256 PUSH1 0x0 SWAP1 SLOAD SWAP1 PUSH2 0x100 EXP SWAP1 DIV PUSH1 0xFF AND DUP1 ISZERO PUSH2 0x356C JUMPI POP PUSH1 0x7 PUSH1 0x0 DUP5 PUSH20 0xFFFFFFFFFFFFFFFFFFFFFFFFFFFFFFFFFFFFFFFF AND PUSH20 0xFFFFFFFFFFFFFFFFFFFFFFFFFFFFFFFFFFFFFFFF AND DUP2 MSTORE PUSH1 0x20 ADD SWAP1 DUP2 MSTORE PUSH1 0x20 ADD PUSH1 0x0 KECCAK256 PUSH1 0x0 SWAP1 SLOAD SWAP1 PUSH2 0x100 EXP SWAP1 DIV PUSH1 0xFF AND ISZERO JUMPDEST ISZERO PUSH2 0x3581 JUMPI PUSH2 0x357C DUP5 DUP5 DUP5 PUSH2 0x4060 JUMP JUMPDEST PUSH2 0x37B8 JUMP JUMPDEST PUSH1 0x7 PUSH1 0x0 DUP6 PUSH20 0xFFFFFFFFFFFFFFFFFFFFFFFFFFFFFFFFFFFFFFFF AND PUSH20 0xFFFFFFFFFFFFFFFFFFFFFFFFFFFFFFFFFFFFFFFF AND DUP2 MSTORE PUSH1 0x20 ADD SWAP1 DUP2 MSTORE PUSH1 0x20 ADD PUSH1 0x0 KECCAK256 PUSH1 0x0 SWAP1 SLOAD SWAP1 PUSH2 0x100 EXP SWAP1 DIV PUSH1 0xFF AND ISZERO DUP1 ISZERO PUSH2 0x3624 JUMPI POP PUSH1 0x7 PUSH1 0x0 DUP5 PUSH20 0xFFFFFFFFFFFFFFFFFFFFFFFFFFFFFFFFFFFFFFFF AND PUSH20 0xFFFFFFFFFFFFFFFFFFFFFFFFFFFFFFFFFFFFFFFF AND DUP2 MSTORE PUSH1 0x20 ADD SWAP1 DUP2 MSTORE PUSH1 0x20 ADD PUSH1 0x0 KECCAK256 PUSH1 0x0 SWAP1 SLOAD SWAP1 PUSH2 0x100 EXP SWAP1 DIV PUSH1 0xFF AND JUMPDEST ISZERO PUSH2 0x3639 JUMPI PUSH2 0x3634 DUP5 DUP5 DUP5 PUSH2 0x42C0 JUMP JUMPDEST PUSH2 0x37B7 JUMP JUMPDEST PUSH1 0x7 PUSH1 0x0 DUP6 PUSH20 0xFFFFFFFFFFFFFFFFFFFFFFFFFFFFFFFFFFFFFFFF AND PUSH20 0xFFFFFFFFFFFFFFFFFFFFFFFFFFFFFFFFFFFFFFFF AND DUP2 MSTORE PUSH1 0x20 ADD SWAP1 DUP2 MSTORE PUSH1 0x20 ADD PUSH1 0x0 KECCAK256 PUSH1 0x0 SWAP1 SLOAD SWAP1 PUSH2 0x100 EXP SWAP1 DIV PUSH1 0xFF AND ISZERO DUP1 ISZERO PUSH2 0x36DD JUMPI POP PUSH1 0x7 PUSH1 0x0 DUP5 PUSH20 0xFFFFFFFFFFFFFFFFFFFFFFFFFFFFFFFFFFFFFFFF AND PUSH20 0xFFFFFFFFFFFFFFFFFFFFFFFFFFFFFFFFFFFFFFFF AND DUP2 MSTORE PUSH1 0x20 ADD SWAP1 DUP2 MSTORE PUSH1 0x20 ADD PUSH1 0x0 KECCAK256 PUSH1 0x0 SWAP1 SLOAD SWAP1 PUSH2 0x100 EXP SWAP1 DIV PUSH1 0xFF AND ISZERO JUMPDEST ISZERO PUSH2 0x36F2 JUMPI PUSH2 0x36ED DUP5 DUP5 DUP5 PUSH2 0x4520 JUMP JUMPDEST PUSH2 0x37B6 JUMP JUMPDEST PUSH1 0x7 PUSH1 0x0 DUP6 PUSH20 0xFFFFFFFFFFFFFFFFFFFFFFFFFFFFFFFFFFFFFFFF AND PUSH20 0xFFFFFFFFFFFFFFFFFFFFFFFFFFFFFFFFFFFFFFFF AND DUP2 MSTORE PUSH1 0x20 ADD SWAP1 DUP2 MSTORE PUSH1 0x20 ADD PUSH1 0x0 KECCAK256 PUSH1 0x0 SWAP1 SLOAD SWAP1 PUSH2 0x100 EXP SWAP1 DIV PUSH1 0xFF AND DUP1 ISZERO PUSH2 0x3794 JUMPI POP PUSH1 0x7 PUSH1 0x0 DUP5 PUSH20 0xFFFFFFFFFFFFFFFFFFFFFFFFFFFFFFFFFFFFFFFF AND PUSH20 0xFFFFFFFFFFFFFFFFFFFFFFFFFFFFFFFFFFFFFFFF AND DUP2 MSTORE PUSH1 0x20 ADD SWAP1 DUP2 MSTORE PUSH1 0x20 ADD PUSH1 0x0 KECCAK256 PUSH1 0x0 SWAP1 SLOAD SWAP1 PUSH2 0x100 EXP SWAP1 DIV PUSH1 0xFF AND JUMPDEST ISZERO PUSH2 0x37A9 JUMPI PUSH2 0x37A4 DUP5 DUP5 DUP5 PUSH2 0x46EB JUMP JUMPDEST PUSH2 0x37B5 JUMP JUMPDEST PUSH2 0x37B4 DUP5 DUP5 DUP5 PUSH2 0x4520 JUMP JUMPDEST JUMPDEST JUMPDEST JUMPDEST JUMPDEST DUP1 PUSH2 0x37C6 JUMPI PUSH2 0x37C5 PUSH2 0x49E0 JUMP JUMPDEST JUMPDEST POP POP POP POP JUMP JUMPDEST PUSH1 0x0 DUP1 PUSH1 0x0 PUSH1 0x9 SLOAD SWAP1 POP PUSH1 0x0 PUSH8 0xDE0B6B3A7640000 SWAP1 POP PUSH1 0x0 JUMPDEST PUSH1 0x8 DUP1 SLOAD SWAP1 POP DUP2 LT ISZERO PUSH2 0x3A2C JUMPI DUP3 PUSH1 0x3 PUSH1 0x0 PUSH1 0x8 DUP5 DUP2 SLOAD DUP2 LT PUSH2 0x3805 JUMPI INVALID JUMPDEST SWAP1 PUSH1 0x0 MSTORE PUSH1 0x20 PUSH1 0x0 KECCAK256 ADD PUSH1 0x0 SWAP1 SLOAD SWAP1 PUSH2 0x100 EXP SWAP1 DIV PUSH20 0xFFFFFFFFFFFFFFFFFFFFFFFFFFFFFFFFFFFFFFFF AND PUSH20 0xFFFFFFFFFFFFFFFFFFFFFFFFFFFFFFFFFFFFFFFF AND PUSH20 0xFFFFFFFFFFFFFFFFFFFFFFFFFFFFFFFFFFFFFFFF AND DUP2 MSTORE PUSH1 0x20 ADD SWAP1 DUP2 MSTORE PUSH1 0x20 ADD PUSH1 0x0 KECCAK256 SLOAD GT DUP1 PUSH2 0x38EC JUMPI POP DUP2 PUSH1 0x4 PUSH1 0x0 PUSH1 0x8 DUP5 DUP2 SLOAD DUP2 LT PUSH2 0x3884 JUMPI INVALID JUMPDEST SWAP1 PUSH1 0x0 MSTORE PUSH1 0x20 PUSH1 0x0 KECCAK256 ADD PUSH1 0x0 SWAP1 SLOAD SWAP1 PUSH2 0x100 EXP SWAP1 DIV PUSH20 0xFFFFFFFFFFFFFFFFFFFFFFFFFFFFFFFFFFFFFFFF AND PUSH20 0xFFFFFFFFFFFFFFFFFFFFFFFFFFFFFFFFFFFFFFFF AND PUSH20 0xFFFFFFFFFFFFFFFFFFFFFFFFFFFFFFFFFFFFFFFF AND DUP2 MSTORE PUSH1 0x20 ADD SWAP1 DUP2 MSTORE PUSH1 0x20 ADD PUSH1 0x0 KECCAK256 SLOAD GT JUMPDEST ISZERO PUSH2 0x3909 JUMPI PUSH1 0x9 SLOAD PUSH8 0xDE0B6B3A7640000 SWAP5 POP SWAP5 POP POP POP POP PUSH2 0x3A71 JUMP JUMPDEST PUSH2 0x3992 PUSH1 0x3 PUSH1 0x0 PUSH1 0x8 DUP5 DUP2 SLOAD DUP2 LT PUSH2 0x391D JUMPI INVALID JUMPDEST SWAP1 PUSH1 0x0 MSTORE PUSH1 0x20 PUSH1 0x0 KECCAK256 ADD PUSH1 0x0 SWAP1 SLOAD SWAP1 PUSH2 0x100 EXP SWAP1 DIV PUSH20 0xFFFFFFFFFFFFFFFFFFFFFFFFFFFFFFFFFFFFFFFF AND PUSH20 0xFFFFFFFFFFFFFFFFFFFFFFFFFFFFFFFFFFFFFFFF AND PUSH20 0xFFFFFFFFFFFFFFFFFFFFFFFFFFFFFFFFFFFFFFFF AND DUP2 MSTORE PUSH1 0x20 ADD SWAP1 DUP2 MSTORE PUSH1 0x20 ADD PUSH1 0x0 KECCAK256 SLOAD DUP5 PUSH2 0x3309 SWAP1 SWAP2 SWAP1 PUSH4 0xFFFFFFFF AND JUMP JUMPDEST SWAP3 POP PUSH2 0x3A1D PUSH1 0x4 PUSH1 0x0 PUSH1 0x8 DUP5 DUP2 SLOAD DUP2 LT PUSH2 0x39A8 JUMPI INVALID JUMPDEST SWAP1 PUSH1 0x0 MSTORE PUSH1 0x20 PUSH1 0x0 KECCAK256 ADD PUSH1 0x0 SWAP1 SLOAD SWAP1 PUSH2 0x100 EXP SWAP1 DIV PUSH20 0xFFFFFFFFFFFFFFFFFFFFFFFFFFFFFFFFFFFFFFFF AND PUSH20 0xFFFFFFFFFFFFFFFFFFFFFFFFFFFFFFFFFFFFFFFF AND PUSH20 0xFFFFFFFFFFFFFFFFFFFFFFFFFFFFFFFFFFFFFFFF AND DUP2 MSTORE PUSH1 0x20 ADD SWAP1 DUP2 MSTORE PUSH1 0x20 ADD PUSH1 0x0 KECCAK256 SLOAD DUP4 PUSH2 0x3309 SWAP1 SWAP2 SWAP1 PUSH4 0xFFFFFFFF AND JUMP JUMPDEST SWAP2 POP DUP1 DUP1 PUSH1 0x1 ADD SWAP2 POP POP PUSH2 0x37E6 JUMP JUMPDEST POP PUSH2 0x3A4A PUSH8 0xDE0B6B3A7640000 PUSH1 0x9 SLOAD PUSH2 0x31DB SWAP1 SWAP2 SWAP1 PUSH4 0xFFFFFFFF AND JUMP JUMPDEST DUP3 LT ISZERO PUSH2 0x3A68 JUMPI PUSH1 0x9 SLOAD PUSH8 0xDE0B6B3A7640000 SWAP4 POP SWAP4 POP POP POP PUSH2 0x3A71 JUMP JUMPDEST DUP2 DUP2 SWAP4 POP SWAP4 POP POP POP JUMPDEST SWAP1 SWAP2 JUMP JUMPDEST PUSH1 0x0 DUP1 DUP4 GT DUP3 SWAP1 PUSH2 0x3B21 JUMPI PUSH1 0x40 MLOAD PUSH32 0x8C379A000000000000000000000000000000000000000000000000000000000 DUP2 MSTORE PUSH1 0x4 ADD DUP1 DUP1 PUSH1 0x20 ADD DUP3 DUP2 SUB DUP3 MSTORE DUP4 DUP2 DUP2 MLOAD DUP2 MSTORE PUSH1 0x20 ADD SWAP2 POP DUP1 MLOAD SWAP1 PUSH1 0x20 ADD SWAP1 DUP1 DUP4 DUP4 PUSH1 0x0 JUMPDEST DUP4 DUP2 LT ISZERO PUSH2 0x3AE6 JUMPI DUP1 DUP3 ADD MLOAD DUP2 DUP5 ADD MSTORE PUSH1 0x20 DUP2 ADD SWAP1 POP PUSH2 0x3ACB JUMP JUMPDEST POP POP POP POP SWAP1 POP SWAP1 DUP2 ADD SWAP1 PUSH1 0x1F AND DUP1 ISZERO PUSH2 0x3B13 JUMPI DUP1 DUP3 SUB DUP1 MLOAD PUSH1 0x1 DUP4 PUSH1 0x20 SUB PUSH2 0x100 EXP SUB NOT AND DUP2 MSTORE PUSH1 0x20 ADD SWAP2 POP JUMPDEST POP SWAP3 POP POP POP PUSH1 0x40 MLOAD DUP1 SWAP2 SUB SWAP1 REVERT JUMPDEST POP PUSH1 0x0 DUP4 DUP6 DUP2 PUSH2 0x3B2D JUMPI INVALID JUMPDEST DIV SWAP1 POP DUP1 SWAP2 POP POP SWAP4 SWAP3 POP POP POP JUMP JUMPDEST PUSH1 0x0 DUP1 PUSH1 0x0 DUP1 PUSH2 0x3B4A DUP6 PUSH2 0x49F4 JUMP JUMPDEST SWAP1 POP PUSH1 0x0 PUSH2 0x3B57 DUP7 PUSH2 0x4A25 JUMP JUMPDEST SWAP1 POP PUSH1 0x0 PUSH2 0x3B80 DUP3 PUSH2 0x3B72 DUP6 DUP11 PUSH2 0x3309 SWAP1 SWAP2 SWAP1 PUSH4 0xFFFFFFFF AND JUMP JUMPDEST PUSH2 0x3309 SWAP1 SWAP2 SWAP1 PUSH4 0xFFFFFFFF AND JUMP JUMPDEST SWAP1 POP DUP1 DUP4 DUP4 SWAP6 POP SWAP6 POP SWAP6 POP POP POP POP SWAP2 SWAP4 SWAP1 SWAP3 POP JUMP JUMPDEST PUSH1 0x0 DUP1 PUSH1 0x0 DUP1 PUSH2 0x3BAE DUP6 DUP10 PUSH2 0x3353 SWAP1 SWAP2 SWAP1 PUSH4 0xFFFFFFFF AND JUMP JUMPDEST SWAP1 POP PUSH1 0x0 PUSH2 0x3BC5 DUP7 DUP10 PUSH2 0x3353 SWAP1 SWAP2 SWAP1 PUSH4 0xFFFFFFFF AND JUMP JUMPDEST SWAP1 POP PUSH1 0x0 PUSH2 0x3BDC DUP8 DUP10 PUSH2 0x3353 SWAP1 SWAP2 SWAP1 PUSH4 0xFFFFFFFF AND JUMP JUMPDEST SWAP1 POP PUSH1 0x0 PUSH2 0x3C05 DUP3 PUSH2 0x3BF7 DUP6 DUP8 PUSH2 0x3309 SWAP1 SWAP2 SWAP1 PUSH4 0xFFFFFFFF AND JUMP JUMPDEST PUSH2 0x3309 SWAP1 SWAP2 SWAP1 PUSH4 0xFFFFFFFF AND JUMP JUMPDEST SWAP1 POP DUP4 DUP2 DUP5 SWAP7 POP SWAP7 POP SWAP7 POP POP POP POP POP SWAP5 POP SWAP5 POP SWAP5 SWAP2 POP POP JUMP JUMPDEST PUSH1 0x60 PUSH1 0x2 PUSH8 0xFFFFFFFFFFFFFFFF DUP2 GT DUP1 ISZERO PUSH2 0x3C38 JUMPI PUSH1 0x0 DUP1 REVERT JUMPDEST POP PUSH1 0x40 MLOAD SWAP1 DUP1 DUP3 MSTORE DUP1 PUSH1 0x20 MUL PUSH1 0x20 ADD DUP3 ADD PUSH1 0x40 MSTORE DUP1 ISZERO PUSH2 0x3C67 JUMPI DUP2 PUSH1 0x20 ADD PUSH1 0x20 DUP3 MUL DUP1 CALLDATASIZE DUP4 CALLDATACOPY DUP1 DUP3 ADD SWAP2 POP POP SWAP1 POP JUMPDEST POP SWAP1 POP ADDRESS DUP2 PUSH1 0x0 DUP2 MLOAD DUP2 LT PUSH2 0x3C78 JUMPI INVALID JUMPDEST PUSH1 0x20 MUL PUSH1 0x20 ADD ADD SWAP1 PUSH20 0xFFFFFFFFFFFFFFFFFFFFFFFFFFFFFFFFFFFFFFFF AND SWAP1 DUP2 PUSH20 0xFFFFFFFFFFFFFFFFFFFFFFFFFFFFFFFFFFFFFFFF AND DUP2 MSTORE POP POP PUSH32 0x0 PUSH20 0xFFFFFFFFFFFFFFFFFFFFFFFFFFFFFFFFFFFFFFFF AND PUSH4 0xAD5C4648 PUSH1 0x40 MLOAD DUP2 PUSH4 0xFFFFFFFF AND PUSH1 0xE0 SHL DUP2 MSTORE PUSH1 0x4 ADD PUSH1 0x20 PUSH1 0x40 MLOAD DUP1 DUP4 SUB DUP2 DUP7 DUP1 EXTCODESIZE ISZERO DUP1 ISZERO PUSH2 0x3D18 JUMPI PUSH1 0x0 DUP1 REVERT JUMPDEST POP GAS STATICCALL ISZERO DUP1 ISZERO PUSH2 0x3D2C JUMPI RETURNDATASIZE PUSH1 0x0 DUP1 RETURNDATACOPY RETURNDATASIZE PUSH1 0x0 REVERT JUMPDEST POP POP POP POP PUSH1 0x40 MLOAD RETURNDATASIZE PUSH1 0x20 DUP2 LT ISZERO PUSH2 0x3D42 JUMPI PUSH1 0x0 DUP1 REVERT JUMPDEST DUP2 ADD SWAP1 DUP1 DUP1 MLOAD SWAP1 PUSH1 0x20 ADD SWAP1 SWAP3 SWAP2 SWAP1 POP POP POP DUP2 PUSH1 0x1 DUP2 MLOAD DUP2 LT PUSH2 0x3D60 JUMPI INVALID JUMPDEST PUSH1 0x20 MUL PUSH1 0x20 ADD ADD SWAP1 PUSH20 0xFFFFFFFFFFFFFFFFFFFFFFFFFFFFFFFFFFFFFFFF AND SWAP1 DUP2 PUSH20 0xFFFFFFFFFFFFFFFFFFFFFFFFFFFFFFFFFFFFFFFF AND DUP2 MSTORE POP POP PUSH2 0x3DC5 ADDRESS PUSH32 0x0 DUP5 PUSH2 0x2B34 JUMP JUMPDEST PUSH32 0x0 PUSH20 0xFFFFFFFFFFFFFFFFFFFFFFFFFFFFFFFFFFFFFFFF AND PUSH4 0x791AC947 DUP4 PUSH1 0x0 DUP5 ADDRESS TIMESTAMP PUSH1 0x40 MLOAD DUP7 PUSH4 0xFFFFFFFF AND PUSH1 0xE0 SHL DUP2 MSTORE PUSH1 0x4 ADD DUP1 DUP7 DUP2 MSTORE PUSH1 0x20 ADD DUP6 DUP2 MSTORE PUSH1 0x20 ADD DUP1 PUSH1 0x20 ADD DUP5 PUSH20 0xFFFFFFFFFFFFFFFFFFFFFFFFFFFFFFFFFFFFFFFF AND DUP2 MSTORE PUSH1 0x20 ADD DUP4 DUP2 MSTORE PUSH1 0x20 ADD DUP3 DUP2 SUB DUP3 MSTORE DUP6 DUP2 DUP2 MLOAD DUP2 MSTORE PUSH1 0x20 ADD SWAP2 POP DUP1 MLOAD SWAP1 PUSH1 0x20 ADD SWAP1 PUSH1 0x20 MUL DUP1 DUP4 DUP4 PUSH1 0x0 JUMPDEST DUP4 DUP2 LT ISZERO PUSH2 0x3E87 JUMPI DUP1 DUP3 ADD MLOAD DUP2 DUP5 ADD MSTORE PUSH1 0x20 DUP2 ADD SWAP1 POP PUSH2 0x3E6C JUMP JUMPDEST POP POP POP POP SWAP1 POP ADD SWAP7 POP POP POP POP POP POP POP PUSH1 0x0 PUSH1 0x40 MLOAD DUP1 DUP4 SUB DUP2 PUSH1 0x0 DUP8 DUP1 EXTCODESIZE ISZERO DUP1 ISZERO PUSH2 0x3EB0 JUMPI PUSH1 0x0 DUP1 REVERT JUMPDEST POP GAS CALL ISZERO DUP1 ISZERO PUSH2 0x3EC4 JUMPI RETURNDATASIZE PUSH1 0x0 DUP1 RETURNDATACOPY RETURNDATASIZE PUSH1 0x0 REVERT JUMPDEST POP POP POP POP POP POP JUMP JUMPDEST PUSH2 0x3EF7 ADDRESS PUSH32 0x0 DUP5 PUSH2 0x2B34 JUMP JUMPDEST PUSH32 0x0 PUSH20 0xFFFFFFFFFFFFFFFFFFFFFFFFFFFFFFFFFFFFFFFF AND PUSH4 0xF305D719 DUP3 ADDRESS DUP6 PUSH1 0x0 DUP1 PUSH2 0x3F41 PUSH2 0x1EBA JUMP JUMPDEST TIMESTAMP PUSH1 0x40 MLOAD DUP9 PUSH4 0xFFFFFFFF AND PUSH1 0xE0 SHL DUP2 MSTORE PUSH1 0x4 ADD DUP1 DUP8 PUSH20 0xFFFFFFFFFFFFFFFFFFFFFFFFFFFFFFFFFFFFFFFF AND DUP2 MSTORE PUSH1 0x20 ADD DUP7 DUP2 MSTORE PUSH1 0x20 ADD DUP6 DUP2 MSTORE PUSH1 0x20 ADD DUP5 DUP2 MSTORE PUSH1 0x20 ADD DUP4 PUSH20 0xFFFFFFFFFFFFFFFFFFFFFFFFFFFFFFFFFFFFFFFF AND DUP2 MSTORE PUSH1 0x20 ADD DUP3 DUP2 MSTORE PUSH1 0x20 ADD SWAP7 POP POP POP POP POP POP POP PUSH1 0x60 PUSH1 0x40 MLOAD DUP1 DUP4 SUB DUP2 DUP6 DUP9 DUP1 EXTCODESIZE ISZERO DUP1 ISZERO PUSH2 0x3FC6 JUMPI PUSH1 0x0 DUP1 REVERT JUMPDEST POP GAS CALL ISZERO DUP1 ISZERO PUSH2 0x3FDA JUMPI RETURNDATASIZE PUSH1 0x0 DUP1 RETURNDATACOPY RETURNDATASIZE PUSH1 0x0 REVERT JUMPDEST POP POP POP POP POP PUSH1 0x40 MLOAD RETURNDATASIZE PUSH1 0x60 DUP2 LT ISZERO PUSH2 0x3FF1 JUMPI PUSH1 0x0 DUP1 REVERT JUMPDEST DUP2 ADD SWAP1 DUP1 DUP1 MLOAD SWAP1 PUSH1 0x20 ADD SWAP1 SWAP3 SWAP2 SWAP1 DUP1 MLOAD SWAP1 PUSH1 0x20 ADD SWAP1 SWAP3 SWAP2 SWAP1 DUP1 MLOAD SWAP1 PUSH1 0x20 ADD SWAP1 SWAP3 SWAP2 SWAP1 POP POP POP POP POP POP POP POP JUMP JUMPDEST PUSH1 0x0 PUSH1 0xE SLOAD EQ DUP1 ISZERO PUSH2 0x4031 JUMPI POP PUSH1 0x0 PUSH1 0x10 SLOAD EQ JUMPDEST ISZERO PUSH2 0x403B JUMPI PUSH2 0x405E JUMP JUMPDEST PUSH1 0xE SLOAD PUSH1 0xF DUP2 SWAP1 SSTORE POP PUSH1 0x10 SLOAD PUSH1 0x11 DUP2 SWAP1 SSTORE POP PUSH1 0x0 PUSH1 0xE DUP2 SWAP1 SSTORE POP PUSH1 0x0 PUSH1 0x10 DUP2 SWAP1 SSTORE POP JUMPDEST JUMP JUMPDEST PUSH1 0x0 DUP1 PUSH1 0x0 DUP1 PUSH1 0x0 DUP1 PUSH2 0x4072 DUP8 PUSH2 0x32AD JUMP JUMPDEST SWAP6 POP SWAP6 POP SWAP6 POP SWAP6 POP SWAP6 POP SWAP6 POP PUSH2 0x40D0 DUP8 PUSH1 0x4 PUSH1 0x0 DUP13 PUSH20 0xFFFFFFFFFFFFFFFFFFFFFFFFFFFFFFFFFFFFFFFF AND PUSH20 0xFFFFFFFFFFFFFFFFFFFFFFFFFFFFFFFFFFFFFFFF AND DUP2 MSTORE PUSH1 0x20 ADD SWAP1 DUP2 MSTORE PUSH1 0x20 ADD PUSH1 0x0 KECCAK256 SLOAD PUSH2 0x3309 SWAP1 SWAP2 SWAP1 PUSH4 0xFFFFFFFF AND JUMP JUMPDEST PUSH1 0x4 PUSH1 0x0 DUP12 PUSH20 0xFFFFFFFFFFFFFFFFFFFFFFFFFFFFFFFFFFFFFFFF AND PUSH20 0xFFFFFFFFFFFFFFFFFFFFFFFFFFFFFFFFFFFFFFFF AND DUP2 MSTORE PUSH1 0x20 ADD SWAP1 DUP2 MSTORE PUSH1 0x20 ADD PUSH1 0x0 KECCAK256 DUP2 SWAP1 SSTORE POP PUSH2 0x4165 DUP7 PUSH1 0x3 PUSH1 0x0 DUP13 PUSH20 0xFFFFFFFFFFFFFFFFFFFFFFFFFFFFFFFFFFFFFFFF AND PUSH20 0xFFFFFFFFFFFFFFFFFFFFFFFFFFFFFFFFFFFFFFFF AND DUP2 MSTORE PUSH1 0x20 ADD SWAP1 DUP2 MSTORE PUSH1 0x20 ADD PUSH1 0x0 KECCAK256 SLOAD PUSH2 0x3309 SWAP1 SWAP2 SWAP1 PUSH4 0xFFFFFFFF AND JUMP JUMPDEST PUSH1 0x3 PUSH1 0x0 DUP12 PUSH20 0xFFFFFFFFFFFFFFFFFFFFFFFFFFFFFFFFFFFFFFFF AND PUSH20 0xFFFFFFFFFFFFFFFFFFFFFFFFFFFFFFFFFFFFFFFF AND DUP2 MSTORE PUSH1 0x20 ADD SWAP1 DUP2 MSTORE PUSH1 0x20 ADD PUSH1 0x0 KECCAK256 DUP2 SWAP1 SSTORE POP PUSH2 0x41FA DUP6 PUSH1 0x3 PUSH1 0x0 DUP12 PUSH20 0xFFFFFFFFFFFFFFFFFFFFFFFFFFFFFFFFFFFFFFFF AND PUSH20 0xFFFFFFFFFFFFFFFFFFFFFFFFFFFFFFFFFFFFFFFF AND DUP2 MSTORE PUSH1 0x20 ADD SWAP1 DUP2 MSTORE PUSH1 0x20 ADD PUSH1 0x0 KECCAK256 SLOAD PUSH2 0x3225 SWAP1 SWAP2 SWAP1 PUSH4 0xFFFFFFFF AND JUMP JUMPDEST PUSH1 0x3 PUSH1 0x0 DUP11 PUSH20 0xFFFFFFFFFFFFFFFFFFFFFFFFFFFFFFFFFFFFFFFF AND PUSH20 0xFFFFFFFFFFFFFFFFFFFFFFFFFFFFFFFFFFFFFFFF AND DUP2 MSTORE PUSH1 0x20 ADD SWAP1 DUP2 MSTORE PUSH1 0x20 ADD PUSH1 0x0 KECCAK256 DUP2 SWAP1 SSTORE POP PUSH2 0x4246 DUP2 PUSH2 0x4A56 JUMP JUMPDEST PUSH2 0x4250 DUP5 DUP4 PUSH2 0x4BFB JUMP JUMPDEST DUP8 PUSH20 0xFFFFFFFFFFFFFFFFFFFFFFFFFFFFFFFFFFFFFFFF AND DUP10 PUSH20 0xFFFFFFFFFFFFFFFFFFFFFFFFFFFFFFFFFFFFFFFF AND PUSH32 0xDDF252AD1BE2C89B69C2B068FC378DAA952BA7F163C4A11628F55A4DF523B3EF DUP6 PUSH1 0x40 MLOAD DUP1 DUP3 DUP2 MSTORE PUSH1 0x20 ADD SWAP2 POP POP PUSH1 0x40 MLOAD DUP1 SWAP2 SUB SWAP1 LOG3 POP POP POP POP POP POP POP POP POP JUMP JUMPDEST PUSH1 0x0 DUP1 PUSH1 0x0 DUP1 PUSH1 0x0 DUP1 PUSH2 0x42D2 DUP8 PUSH2 0x32AD JUMP JUMPDEST SWAP6 POP SWAP6 POP SWAP6 POP SWAP6 POP SWAP6 POP SWAP6 POP PUSH2 0x4330 DUP7 PUSH1 0x3 PUSH1 0x0 DUP13 PUSH20 0xFFFFFFFFFFFFFFFFFFFFFFFFFFFFFFFFFFFFFFFF AND PUSH20 0xFFFFFFFFFFFFFFFFFFFFFFFFFFFFFFFFFFFFFFFF AND DUP2 MSTORE PUSH1 0x20 ADD SWAP1 DUP2 MSTORE PUSH1 0x20 ADD PUSH1 0x0 KECCAK256 SLOAD PUSH2 0x3309 SWAP1 SWAP2 SWAP1 PUSH4 0xFFFFFFFF AND JUMP JUMPDEST PUSH1 0x3 PUSH1 0x0 DUP12 PUSH20 0xFFFFFFFFFFFFFFFFFFFFFFFFFFFFFFFFFFFFFFFF AND PUSH20 0xFFFFFFFFFFFFFFFFFFFFFFFFFFFFFFFFFFFFFFFF AND DUP2 MSTORE PUSH1 0x20 ADD SWAP1 DUP2 MSTORE PUSH1 0x20 ADD PUSH1 0x0 KECCAK256 DUP2 SWAP1 SSTORE POP PUSH2 0x43C5 DUP4 PUSH1 0x4 PUSH1 0x0 DUP12 PUSH20 0xFFFFFFFFFFFFFFFFFFFFFFFFFFFFFFFFFFFFFFFF AND PUSH20 0xFFFFFFFFFFFFFFFFFFFFFFFFFFFFFFFFFFFFFFFF AND DUP2 MSTORE PUSH1 0x20 ADD SWAP1 DUP2 MSTORE PUSH1 0x20 ADD PUSH1 0x0 KECCAK256 SLOAD PUSH2 0x3225 SWAP1 SWAP2 SWAP1 PUSH4 0xFFFFFFFF AND JUMP JUMPDEST PUSH1 0x4 PUSH1 0x0 DUP11 PUSH20 0xFFFFFFFFFFFFFFFFFFFFFFFFFFFFFFFFFFFFFFFF AND PUSH20 0xFFFFFFFFFFFFFFFFFFFFFFFFFFFFFFFFFFFFFFFF AND DUP2 MSTORE PUSH1 0x20 ADD SWAP1 DUP2 MSTORE PUSH1 0x20 ADD PUSH1 0x0 KECCAK256 DUP2 SWAP1 SSTORE POP PUSH2 0x445A DUP6 PUSH1 0x3 PUSH1 0x0 DUP12 PUSH20 0xFFFFFFFFFFFFFFFFFFFFFFFFFFFFFFFFFFFFFFFF AND PUSH20 0xFFFFFFFFFFFFFFFFFFFFFFFFFFFFFFFFFFFFFFFF AND DUP2 MSTORE PUSH1 0x20 ADD SWAP1 DUP2 MSTORE PUSH1 0x20 ADD PUSH1 0x0 KECCAK256 SLOAD PUSH2 0x3225 SWAP1 SWAP2 SWAP1 PUSH4 0xFFFFFFFF AND JUMP JUMPDEST PUSH1 0x3 PUSH1 0x0 DUP11 PUSH20 0xFFFFFFFFFFFFFFFFFFFFFFFFFFFFFFFFFFFFFFFF AND PUSH20 0xFFFFFFFFFFFFFFFFFFFFFFFFFFFFFFFFFFFFFFFF AND DUP2 MSTORE PUSH1 0x20 ADD SWAP1 DUP2 MSTORE PUSH1 0x20 ADD PUSH1 0x0 KECCAK256 DUP2 SWAP1 SSTORE POP PUSH2 0x44A6 DUP2 PUSH2 0x4A56 JUMP JUMPDEST PUSH2 0x44B0 DUP5 DUP4 PUSH2 0x4BFB JUMP JUMPDEST DUP8 PUSH20 0xFFFFFFFFFFFFFFFFFFFFFFFFFFFFFFFFFFFFFFFF AND DUP10 PUSH20 0xFFFFFFFFFFFFFFFFFFFFFFFFFFFFFFFFFFFFFFFF AND PUSH32 0xDDF252AD1BE2C89B69C2B068FC378DAA952BA7F163C4A11628F55A4DF523B3EF DUP6 PUSH1 0x40 MLOAD DUP1 DUP3 DUP2 MSTORE PUSH1 0x20 ADD SWAP2 POP POP PUSH1 0x40 MLOAD DUP1 SWAP2 SUB SWAP1 LOG3 POP POP POP POP POP POP POP POP POP JUMP JUMPDEST PUSH1 0x0 DUP1 PUSH1 0x0 DUP1 PUSH1 0x0 DUP1 PUSH2 0x4532 DUP8 PUSH2 0x32AD JUMP JUMPDEST SWAP6 POP SWAP6 POP SWAP6 POP SWAP6 POP SWAP6 POP SWAP6 POP PUSH2 0x4590 DUP7 PUSH1 0x3 PUSH1 0x0 DUP13 PUSH20 0xFFFFFFFFFFFFFFFFFFFFFFFFFFFFFFFFFFFFFFFF AND PUSH20 0xFFFFFFFFFFFFFFFFFFFFFFFFFFFFFFFFFFFFFFFF AND DUP2 MSTORE PUSH1 0x20 ADD SWAP1 DUP2 MSTORE PUSH1 0x20 ADD PUSH1 0x0 KECCAK256 SLOAD PUSH2 0x3309 SWAP1 SWAP2 SWAP1 PUSH4 0xFFFFFFFF AND JUMP JUMPDEST PUSH1 0x3 PUSH1 0x0 DUP12 PUSH20 0xFFFFFFFFFFFFFFFFFFFFFFFFFFFFFFFFFFFFFFFF AND PUSH20 0xFFFFFFFFFFFFFFFFFFFFFFFFFFFFFFFFFFFFFFFF AND DUP2 MSTORE PUSH1 0x20 ADD SWAP1 DUP2 MSTORE PUSH1 0x20 ADD PUSH1 0x0 KECCAK256 DUP2 SWAP1 SSTORE POP PUSH2 0x4625 DUP6 PUSH1 0x3 PUSH1 0x0 DUP12 PUSH20 0xFFFFFFFFFFFFFFFFFFFFFFFFFFFFFFFFFFFFFFFF AND PUSH20 0xFFFFFFFFFFFFFFFFFFFFFFFFFFFFFFFFFFFFFFFF AND DUP2 MSTORE PUSH1 0x20 ADD SWAP1 DUP2 MSTORE PUSH1 0x20 ADD PUSH1 0x0 KECCAK256 SLOAD PUSH2 0x3225 SWAP1 SWAP2 SWAP1 PUSH4 0xFFFFFFFF AND JUMP JUMPDEST PUSH1 0x3 PUSH1 0x0 DUP11 PUSH20 0xFFFFFFFFFFFFFFFFFFFFFFFFFFFFFFFFFFFFFFFF AND PUSH20 0xFFFFFFFFFFFFFFFFFFFFFFFFFFFFFFFFFFFFFFFF AND DUP2 MSTORE PUSH1 0x20 ADD SWAP1 DUP2 MSTORE PUSH1 0x20 ADD PUSH1 0x0 KECCAK256 DUP2 SWAP1 SSTORE POP PUSH2 0x4671 DUP2 PUSH2 0x4A56 JUMP JUMPDEST PUSH2 0x467B DUP5 DUP4 PUSH2 0x4BFB JUMP JUMPDEST DUP8 PUSH20 0xFFFFFFFFFFFFFFFFFFFFFFFFFFFFFFFFFFFFFFFF AND DUP10 PUSH20 0xFFFFFFFFFFFFFFFFFFFFFFFFFFFFFFFFFFFFFFFF AND PUSH32 0xDDF252AD1BE2C89B69C2B068FC378DAA952BA7F163C4A11628F55A4DF523B3EF DUP6 PUSH1 0x40 MLOAD DUP1 DUP3 DUP2 MSTORE PUSH1 0x20 ADD SWAP2 POP POP PUSH1 0x40 MLOAD DUP1 SWAP2 SUB SWAP1 LOG3 POP POP POP POP POP POP POP POP POP JUMP JUMPDEST PUSH1 0x0 DUP1 PUSH1 0x0 DUP1 PUSH1 0x0 DUP1 PUSH2 0x46FD DUP8 PUSH2 0x32AD JUMP JUMPDEST SWAP6 POP SWAP6 POP SWAP6 POP SWAP6 POP SWAP6 POP SWAP6 POP PUSH2 0x475B DUP8 PUSH1 0x4 PUSH1 0x0 DUP13 PUSH20 0xFFFFFFFFFFFFFFFFFFFFFFFFFFFFFFFFFFFFFFFF AND PUSH20 0xFFFFFFFFFFFFFFFFFFFFFFFFFFFFFFFFFFFFFFFF AND DUP2 MSTORE PUSH1 0x20 ADD SWAP1 DUP2 MSTORE PUSH1 0x20 ADD PUSH1 0x0 KECCAK256 SLOAD PUSH2 0x3309 SWAP1 SWAP2 SWAP1 PUSH4 0xFFFFFFFF AND JUMP JUMPDEST PUSH1 0x4 PUSH1 0x0 DUP12 PUSH20 0xFFFFFFFFFFFFFFFFFFFFFFFFFFFFFFFFFFFFFFFF AND PUSH20 0xFFFFFFFFFFFFFFFFFFFFFFFFFFFFFFFFFFFFFFFF AND DUP2 MSTORE PUSH1 0x20 ADD SWAP1 DUP2 MSTORE PUSH1 0x20 ADD PUSH1 0x0 KECCAK256 DUP2 SWAP1 SSTORE POP PUSH2 0x47F0 DUP7 PUSH1 0x3 PUSH1 0x0 DUP13 PUSH20 0xFFFFFFFFFFFFFFFFFFFFFFFFFFFFFFFFFFFFFFFF AND PUSH20 0xFFFFFFFFFFFFFFFFFFFFFFFFFFFFFFFFFFFFFFFF AND DUP2 MSTORE PUSH1 0x20 ADD SWAP1 DUP2 MSTORE PUSH1 0x20 ADD PUSH1 0x0 KECCAK256 SLOAD PUSH2 0x3309 SWAP1 SWAP2 SWAP1 PUSH4 0xFFFFFFFF AND JUMP JUMPDEST PUSH1 0x3 PUSH1 0x0 DUP12 PUSH20 0xFFFFFFFFFFFFFFFFFFFFFFFFFFFFFFFFFFFFFFFF AND PUSH20 0xFFFFFFFFFFFFFFFFFFFFFFFFFFFFFFFFFFFFFFFF AND DUP2 MSTORE PUSH1 0x20 ADD SWAP1 DUP2 MSTORE PUSH1 0x20 ADD PUSH1 0x0 KECCAK256 DUP2 SWAP1 SSTORE POP PUSH2 0x4885 DUP4 PUSH1 0x4 PUSH1 0x0 DUP12 PUSH20 0xFFFFFFFFFFFFFFFFFFFFFFFFFFFFFFFFFFFFFFFF AND PUSH20 0xFFFFFFFFFFFFFFFFFFFFFFFFFFFFFFFFFFFFFFFF AND DUP2 MSTORE PUSH1 0x20 ADD SWAP1 DUP2 MSTORE PUSH1 0x20 ADD PUSH1 0x0 KECCAK256 SLOAD PUSH2 0x3225 SWAP1 SWAP2 SWAP1 PUSH4 0xFFFFFFFF AND JUMP JUMPDEST PUSH1 0x4 PUSH1 0x0 DUP11 PUSH20 0xFFFFFFFFFFFFFFFFFFFFFFFFFFFFFFFFFFFFFFFF AND PUSH20 0xFFFFFFFFFFFFFFFFFFFFFFFFFFFFFFFFFFFFFFFF AND DUP2 MSTORE PUSH1 0x20 ADD SWAP1 DUP2 MSTORE PUSH1 0x20 ADD PUSH1 0x0 KECCAK256 DUP2 SWAP1 SSTORE POP PUSH2 0x491A DUP6 PUSH1 0x3 PUSH1 0x0 DUP12 PUSH20 0xFFFFFFFFFFFFFFFFFFFFFFFFFFFFFFFFFFFFFFFF AND PUSH20 0xFFFFFFFFFFFFFFFFFFFFFFFFFFFFFFFFFFFFFFFF AND DUP2 MSTORE PUSH1 0x20 ADD SWAP1 DUP2 MSTORE PUSH1 0x20 ADD PUSH1 0x0 KECCAK256 SLOAD PUSH2 0x3225 SWAP1 SWAP2 SWAP1 PUSH4 0xFFFFFFFF AND JUMP JUMPDEST PUSH1 0x3 PUSH1 0x0 DUP11 PUSH20 0xFFFFFFFFFFFFFFFFFFFFFFFFFFFFFFFFFFFFFFFF AND PUSH20 0xFFFFFFFFFFFFFFFFFFFFFFFFFFFFFFFFFFFFFFFF AND DUP2 MSTORE PUSH1 0x20 ADD SWAP1 DUP2 MSTORE PUSH1 0x20 ADD PUSH1 0x0 KECCAK256 DUP2 SWAP1 SSTORE POP PUSH2 0x4966 DUP2 PUSH2 0x4A56 JUMP JUMPDEST PUSH2 0x4970 DUP5 DUP4 PUSH2 0x4BFB JUMP JUMPDEST DUP8 PUSH20 0xFFFFFFFFFFFFFFFFFFFFFFFFFFFFFFFFFFFFFFFF AND DUP10 PUSH20 0xFFFFFFFFFFFFFFFFFFFFFFFFFFFFFFFFFFFFFFFF AND PUSH32 0xDDF252AD1BE2C89B69C2B068FC378DAA952BA7F163C4A11628F55A4DF523B3EF DUP6 PUSH1 0x40 MLOAD DUP1 DUP3 DUP2 MSTORE PUSH1 0x20 ADD SWAP2 POP POP PUSH1 0x40 MLOAD DUP1 SWAP2 SUB SWAP1 LOG3 POP POP POP POP POP POP POP POP POP JUMP JUMPDEST PUSH1 0xF SLOAD PUSH1 0xE DUP2 SWAP1 SSTORE POP PUSH1 0x11 SLOAD PUSH1 0x10 DUP2 SWAP1 SSTORE POP JUMP JUMPDEST PUSH1 0x0 PUSH2 0x4A1E PUSH1 0x64 PUSH2 0x4A10 PUSH1 0xE SLOAD DUP6 PUSH2 0x3353 SWAP1 SWAP2 SWAP1 PUSH4 0xFFFFFFFF AND JUMP JUMPDEST PUSH2 0x31DB SWAP1 SWAP2 SWAP1 PUSH4 0xFFFFFFFF AND JUMP JUMPDEST SWAP1 POP SWAP2 SWAP1 POP JUMP JUMPDEST PUSH1 0x0 PUSH2 0x4A4F PUSH1 0x64 PUSH2 0x4A41 PUSH1 0x10 SLOAD DUP6 PUSH2 0x3353 SWAP1 SWAP2 SWAP1 PUSH4 0xFFFFFFFF AND JUMP JUMPDEST PUSH2 0x31DB SWAP1 SWAP2 SWAP1 PUSH4 0xFFFFFFFF AND JUMP JUMPDEST SWAP1 POP SWAP2 SWAP1 POP JUMP JUMPDEST PUSH1 0x0 PUSH2 0x4A60 PUSH2 0x31B0 JUMP JUMPDEST SWAP1 POP PUSH1 0x0 PUSH2 0x4A77 DUP3 DUP5 PUSH2 0x3353 SWAP1 SWAP2 SWAP1 PUSH4 0xFFFFFFFF AND JUMP JUMPDEST SWAP1 POP PUSH2 0x4ACB DUP2 PUSH1 0x3 PUSH1 0x0 ADDRESS PUSH20 0xFFFFFFFFFFFFFFFFFFFFFFFFFFFFFFFFFFFFFFFF AND PUSH20 0xFFFFFFFFFFFFFFFFFFFFFFFFFFFFFFFFFFFFFFFF AND DUP2 MSTORE PUSH1 0x20 ADD SWAP1 DUP2 MSTORE PUSH1 0x20 ADD PUSH1 0x0 KECCAK256 SLOAD PUSH2 0x3225 SWAP1 SWAP2 SWAP1 PUSH4 0xFFFFFFFF AND JUMP JUMPDEST PUSH1 0x3 PUSH1 0x0 ADDRESS PUSH20 0xFFFFFFFFFFFFFFFFFFFFFFFFFFFFFFFFFFFFFFFF AND PUSH20 0xFFFFFFFFFFFFFFFFFFFFFFFFFFFFFFFFFFFFFFFF AND DUP2 MSTORE PUSH1 0x20 ADD SWAP1 DUP2 MSTORE PUSH1 0x20 ADD PUSH1 0x0 KECCAK256 DUP2 SWAP1 SSTORE POP PUSH1 0x7 PUSH1 0x0 ADDRESS PUSH20 0xFFFFFFFFFFFFFFFFFFFFFFFFFFFFFFFFFFFFFFFF AND PUSH20 0xFFFFFFFFFFFFFFFFFFFFFFFFFFFFFFFFFFFFFFFF AND DUP2 MSTORE PUSH1 0x20 ADD SWAP1 DUP2 MSTORE PUSH1 0x20 ADD PUSH1 0x0 KECCAK256 PUSH1 0x0 SWAP1 SLOAD SWAP1 PUSH2 0x100 EXP SWAP1 DIV PUSH1 0xFF AND ISZERO PUSH2 0x4BF6 JUMPI PUSH2 0x4BB2 DUP4 PUSH1 0x4 PUSH1 0x0 ADDRESS PUSH20 0xFFFFFFFFFFFFFFFFFFFFFFFFFFFFFFFFFFFFFFFF AND PUSH20 0xFFFFFFFFFFFFFFFFFFFFFFFFFFFFFFFFFFFFFFFF AND DUP2 MSTORE PUSH1 0x20 ADD SWAP1 DUP2 MSTORE PUSH1 0x20 ADD PUSH1 0x0 KECCAK256 SLOAD PUSH2 0x3225 SWAP1 SWAP2 SWAP1 PUSH4 0xFFFFFFFF AND JUMP JUMPDEST PUSH1 0x4 PUSH1 0x0 ADDRESS PUSH20 0xFFFFFFFFFFFFFFFFFFFFFFFFFFFFFFFFFFFFFFFF AND PUSH20 0xFFFFFFFFFFFFFFFFFFFFFFFFFFFFFFFFFFFFFFFF AND DUP2 MSTORE PUSH1 0x20 ADD SWAP1 DUP2 MSTORE PUSH1 0x20 ADD PUSH1 0x0 KECCAK256 DUP2 SWAP1 SSTORE POP JUMPDEST POP POP POP JUMP JUMPDEST PUSH2 0x4C10 DUP3 PUSH1 0x9 SLOAD PUSH2 0x3309 SWAP1 SWAP2 SWAP1 PUSH4 0xFFFFFFFF AND JUMP JUMPDEST PUSH1 0x9 DUP2 SWAP1 SSTORE POP PUSH2 0x4C2B DUP2 PUSH1 0xA SLOAD PUSH2 0x3225 SWAP1 SWAP2 SWAP1 PUSH4 0xFFFFFFFF AND JUMP JUMPDEST PUSH1 0xA DUP2 SWAP1 SSTORE POP POP POP JUMP INVALID GASLIMIT MSTORE NUMBER ORIGIN ADDRESS GASPRICE KECCAK256 PUSH21 0x72616E7366657220746F20746865207A65726F2061 PUSH5 0x6472657373 COINBASE PUSH14 0x6F756E74206D757374206265206C PUSH6 0x737320746861 PUSH15 0x20746F74616C207265666C65637469 PUSH16 0x6E734F776E61626C653A206E6577206F PUSH24 0x6E657220697320746865207A65726F206164647265737345 MSTORE NUMBER ORIGIN ADDRESS GASPRICE KECCAK256 PUSH2 0x7070 PUSH19 0x6F766520746F20746865207A65726F20616464 PUSH19 0x6573735472616E7366657220616D6F756E7420 PUSH6 0x786365656473 KECCAK256 PUSH21 0x6865206D61785478416D6F756E742E536166654D61 PUSH21 0x683A206D756C7469706C69636174696F6E206F7665 PUSH19 0x666C6F7745524332303A207472616E73666572 KECCAK256 PUSH2 0x6D6F PUSH22 0x6E74206578636565647320616C6C6F77616E63655472 PUSH2 0x6E73 PUSH7 0x657220616D6F75 PUSH15 0x74206D757374206265206772656174 PUSH6 0x72207468616E KECCAK256 PUSH27 0x65726F45524332303A207472616E736665722066726F6D20746865 KECCAK256 PUSH27 0x65726F206164647265737345524332303A20617070726F76652066 PUSH19 0x6F6D20746865207A65726F2061646472657373 GASLIMIT PUSH25 0x636C75646564206164647265737365732063616E6E6F742063 PUSH2 0x6C6C KECCAK256 PUSH21 0x6869732066756E6374696F6E596F7520646F6E2774 KECCAK256 PUSH9 0x617665207065726D69 PUSH20 0x73696F6E20746F20756E6C6F636B45524332303A KECCAK256 PUSH5 0x6563726561 PUSH20 0x656420616C6C6F77616E63652062656C6F77207A PUSH6 0x726FA2646970 PUSH7 0x7358221220DEC9 PC 0xBF GASLIMIT PUSH28 0xC27E564D932C9D9D3EFF72471956EEB7427B5AE344C30D8461D6473 PUSH16 0x6C634300060C00330000000000000000 "
				},
				"gasEstimates": {
					"creation": {
						"codeDepositCost": "4011000",
						"executionCost": "infinite",
						"totalCost": "infinite"
					},
					"external": {
						"_liquidityFee()": "1073",
						"_maxTxAmount()": "1050",
						"_taxFee()": "1095",
						"allowance(address,address)": "1409",
						"approve(address,uint256)": "infinite",
						"balanceOf(address)": "infinite",
						"decimals()": "1189",
						"decreaseAllowance(address,uint256)": "infinite",
						"deliver(uint256)": "infinite",
						"excludeFromFee(address)": "22138",
						"excludeFromReward(address)": "infinite",
						"geUnlockTime()": "1124",
						"includeInFee(address)": "22203",
						"includeInReward(address)": "infinite",
						"increaseAllowance(address,uint256)": "infinite",
						"isExcludedFromFee(address)": "1284",
						"isExcludedFromReward(address)": "1305",
						"lock(uint256)": "66160",
						"name()": "infinite",
						"owner()": "1144",
						"reflectionFromToken(uint256,bool)": "infinite",
						"renounceOwnership()": "24403",
						"setLiquidityFeePercent(uint256)": "21255",
						"setMaxTxPercent(uint256)": "infinite",
						"setSwapAndLiquifyEnabled(bool)": "23259",
						"setTaxFeePercent(uint256)": "21191",
						"swapAndLiquifyEnabled()": "1208",
						"symbol()": "infinite",
						"tokenFromReflection(uint256)": "infinite",
						"totalFees()": "1126",
						"totalSupply()": "281",
						"transfer(address,uint256)": "infinite",
						"transferFrom(address,address,uint256)": "infinite",
						"transferOwnership(address)": "infinite",
						"uniswapV2Pair()": "infinite",
						"uniswapV2Router()": "infinite",
						"unlock()": "infinite"
					},
					"internal": {
						"_approve(address,address,uint256)": "infinite",
						"_getCurrentSupply()": "infinite",
						"_getRValues(uint256,uint256,uint256,uint256)": "infinite",
						"_getRate()": "infinite",
						"_getTValues(uint256)": "infinite",
						"_getValues(uint256)": "infinite",
						"_reflectFee(uint256,uint256)": "infinite",
						"_takeLiquidity(uint256)": "infinite",
						"_tokenTransfer(address,address,uint256,bool)": "infinite",
						"_transfer(address,address,uint256)": "infinite",
						"_transferBothExcluded(address,address,uint256)": "infinite",
						"_transferFromExcluded(address,address,uint256)": "infinite",
						"_transferStandard(address,address,uint256)": "infinite",
						"_transferToExcluded(address,address,uint256)": "infinite",
						"addLiquidity(uint256,uint256)": "infinite",
						"calculateLiquidityFee(uint256)": "infinite",
						"calculateTaxFee(uint256)": "infinite",
						"removeAllFee()": "53323",
						"restoreAllFee()": "41637",
						"swapAndLiquify(uint256)": "infinite",
						"swapTokensForEth(uint256)": "infinite"
					}
				},
				"methodIdentifiers": {
					"_liquidityFee()": "6bc87c3a",
					"_maxTxAmount()": "7d1db4a5",
					"_taxFee()": "3b124fe7",
					"allowance(address,address)": "dd62ed3e",
					"approve(address,uint256)": "095ea7b3",
					"balanceOf(address)": "70a08231",
					"decimals()": "313ce567",
					"decreaseAllowance(address,uint256)": "a457c2d7",
					"deliver(uint256)": "3bd5d173",
					"excludeFromFee(address)": "437823ec",
					"excludeFromReward(address)": "52390c02",
					"geUnlockTime()": "b6c52324",
					"includeInFee(address)": "ea2f0b37",
					"includeInReward(address)": "3685d419",
					"increaseAllowance(address,uint256)": "39509351",
					"isExcludedFromFee(address)": "5342acb4",
					"isExcludedFromReward(address)": "88f82020",
					"lock(uint256)": "dd467064",
					"name()": "06fdde03",
					"owner()": "8da5cb5b",
					"reflectionFromToken(uint256,bool)": "4549b039",
					"renounceOwnership()": "715018a6",
					"setLiquidityFeePercent(uint256)": "8ee88c53",
					"setMaxTxPercent(uint256)": "d543dbeb",
					"setSwapAndLiquifyEnabled(bool)": "c49b9a80",
					"setTaxFeePercent(uint256)": "061c82d0",
					"swapAndLiquifyEnabled()": "4a74bb02",
					"symbol()": "95d89b41",
					"tokenFromReflection(uint256)": "2d838119",
					"totalFees()": "13114a9d",
					"totalSupply()": "18160ddd",
					"transfer(address,uint256)": "a9059cbb",
					"transferFrom(address,address,uint256)": "23b872dd",
					"transferOwnership(address)": "f2fde38b",
					"uniswapV2Pair()": "49bd5a5e",
					"uniswapV2Router()": "1694505e",
					"unlock()": "a69df4b5"
				}
			},
			"storageLayout": {
				"storage": [
					{
						"astId": 473,
						"contract": "contracts/Pool/PoolPig.sol:PigToken",
						"label": "_owner",
						"offset": 0,
						"slot": "0",
						"type": "t_address"
					},
					{
						"astId": 475,
						"contract": "contracts/Pool/PoolPig.sol:PigToken",
						"label": "_previousOwner",
						"offset": 0,
						"slot": "1",
						"type": "t_address"
					},
					{
						"astId": 477,
						"contract": "contracts/Pool/PoolPig.sol:PigToken",
						"label": "_lockTime",
						"offset": 0,
						"slot": "2",
						"type": "t_uint256"
					},
					{
						"astId": 1353,
						"contract": "contracts/Pool/PoolPig.sol:PigToken",
						"label": "_rOwned",
						"offset": 0,
						"slot": "3",
						"type": "t_mapping(t_address,t_uint256)"
					},
					{
						"astId": 1357,
						"contract": "contracts/Pool/PoolPig.sol:PigToken",
						"label": "_tOwned",
						"offset": 0,
						"slot": "4",
						"type": "t_mapping(t_address,t_uint256)"
					},
					{
						"astId": 1363,
						"contract": "contracts/Pool/PoolPig.sol:PigToken",
						"label": "_allowances",
						"offset": 0,
						"slot": "5",
						"type": "t_mapping(t_address,t_mapping(t_address,t_uint256))"
					},
					{
						"astId": 1367,
						"contract": "contracts/Pool/PoolPig.sol:PigToken",
						"label": "_isExcludedFromFee",
						"offset": 0,
						"slot": "6",
						"type": "t_mapping(t_address,t_bool)"
					},
					{
						"astId": 1371,
						"contract": "contracts/Pool/PoolPig.sol:PigToken",
						"label": "_isExcluded",
						"offset": 0,
						"slot": "7",
						"type": "t_mapping(t_address,t_bool)"
					},
					{
						"astId": 1374,
						"contract": "contracts/Pool/PoolPig.sol:PigToken",
						"label": "_excluded",
						"offset": 0,
						"slot": "8",
						"type": "t_array(t_address)dyn_storage"
					},
					{
						"astId": 1397,
						"contract": "contracts/Pool/PoolPig.sol:PigToken",
						"label": "_rTotal",
						"offset": 0,
						"slot": "9",
						"type": "t_uint256"
					},
					{
						"astId": 1399,
						"contract": "contracts/Pool/PoolPig.sol:PigToken",
						"label": "_tFeeTotal",
						"offset": 0,
						"slot": "10",
						"type": "t_uint256"
					},
					{
						"astId": 1402,
						"contract": "contracts/Pool/PoolPig.sol:PigToken",
						"label": "_name",
						"offset": 0,
						"slot": "11",
						"type": "t_string_storage"
					},
					{
						"astId": 1405,
						"contract": "contracts/Pool/PoolPig.sol:PigToken",
						"label": "_symbol",
						"offset": 0,
						"slot": "12",
						"type": "t_string_storage"
					},
					{
						"astId": 1408,
						"contract": "contracts/Pool/PoolPig.sol:PigToken",
						"label": "_decimals",
						"offset": 0,
						"slot": "13",
						"type": "t_uint8"
					},
					{
						"astId": 1411,
						"contract": "contracts/Pool/PoolPig.sol:PigToken",
						"label": "_taxFee",
						"offset": 0,
						"slot": "14",
						"type": "t_uint256"
					},
					{
						"astId": 1414,
						"contract": "contracts/Pool/PoolPig.sol:PigToken",
						"label": "_previousTaxFee",
						"offset": 0,
						"slot": "15",
						"type": "t_uint256"
					},
					{
						"astId": 1417,
						"contract": "contracts/Pool/PoolPig.sol:PigToken",
						"label": "_liquidityFee",
						"offset": 0,
						"slot": "16",
						"type": "t_uint256"
					},
					{
						"astId": 1420,
						"contract": "contracts/Pool/PoolPig.sol:PigToken",
						"label": "_previousLiquidityFee",
						"offset": 0,
						"slot": "17",
						"type": "t_uint256"
					},
					{
						"astId": 1426,
						"contract": "contracts/Pool/PoolPig.sol:PigToken",
						"label": "inSwapAndLiquify",
						"offset": 0,
						"slot": "18",
						"type": "t_bool"
					},
					{
						"astId": 1429,
						"contract": "contracts/Pool/PoolPig.sol:PigToken",
						"label": "swapAndLiquifyEnabled",
						"offset": 1,
						"slot": "18",
						"type": "t_bool"
					},
					{
						"astId": 1436,
						"contract": "contracts/Pool/PoolPig.sol:PigToken",
						"label": "_maxTxAmount",
						"offset": 0,
						"slot": "19",
						"type": "t_uint256"
					},
					{
						"astId": 1447,
						"contract": "contracts/Pool/PoolPig.sol:PigToken",
						"label": "numTokensSellToAddToLiquidity",
						"offset": 0,
						"slot": "20",
						"type": "t_uint256"
					}
				],
				"types": {
					"t_address": {
						"encoding": "inplace",
						"label": "address",
						"numberOfBytes": "20"
					},
					"t_array(t_address)dyn_storage": {
						"base": "t_address",
						"encoding": "dynamic_array",
						"label": "address[]",
						"numberOfBytes": "32"
					},
					"t_bool": {
						"encoding": "inplace",
						"label": "bool",
						"numberOfBytes": "1"
					},
					"t_mapping(t_address,t_bool)": {
						"encoding": "mapping",
						"key": "t_address",
						"label": "mapping(address => bool)",
						"numberOfBytes": "32",
						"value": "t_bool"
					},
					"t_mapping(t_address,t_mapping(t_address,t_uint256))": {
						"encoding": "mapping",
						"key": "t_address",
						"label": "mapping(address => mapping(address => uint256))",
						"numberOfBytes": "32",
						"value": "t_mapping(t_address,t_uint256)"
					},
					"t_mapping(t_address,t_uint256)": {
						"encoding": "mapping",
						"key": "t_address",
						"label": "mapping(address => uint256)",
						"numberOfBytes": "32",
						"value": "t_uint256"
					},
					"t_string_storage": {
						"encoding": "bytes",
						"label": "string",
						"numberOfBytes": "32"
					},
					"t_uint256": {
						"encoding": "inplace",
						"label": "uint256",
						"numberOfBytes": "32"
					},
					"t_uint8": {
						"encoding": "inplace",
						"label": "uint8",
						"numberOfBytes": "1"
					}
				}
			},
			"userdoc": {
				"kind": "user",
				"methods": {},
				"version": 1
			}
		}
	}
}