{
	"contracts/Pool/Pool.sol": {
		"World_Step": {
			"abi": [
				{
					"inputs": [],
					"stateMutability": "nonpayable",
					"type": "constructor"
				},
				{
					"anonymous": false,
					"inputs": [
						{
							"indexed": true,
							"internalType": "address",
							"name": "owner",
							"type": "address"
						},
						{
							"indexed": true,
							"internalType": "address",
							"name": "spender",
							"type": "address"
						},
						{
							"indexed": false,
							"internalType": "uint256",
							"name": "value",
							"type": "uint256"
						}
					],
					"name": "Approval",
					"type": "event"
				},
				{
					"anonymous": false,
					"inputs": [
						{
							"indexed": true,
							"internalType": "address",
							"name": "previousOwner",
							"type": "address"
						},
						{
							"indexed": true,
							"internalType": "address",
							"name": "newOwner",
							"type": "address"
						}
					],
					"name": "OwnershipTransferred",
					"type": "event"
				},
				{
					"anonymous": false,
					"inputs": [
						{
							"indexed": true,
							"internalType": "address",
							"name": "from",
							"type": "address"
						},
						{
							"indexed": true,
							"internalType": "address",
							"name": "to",
							"type": "address"
						},
						{
							"indexed": false,
							"internalType": "uint256",
							"name": "value",
							"type": "uint256"
						}
					],
					"name": "Transfer",
					"type": "event"
				},
				{
					"anonymous": false,
					"inputs": [
						{
							"indexed": true,
							"internalType": "address",
							"name": "previous",
							"type": "address"
						},
						{
							"indexed": true,
							"internalType": "address",
							"name": "adr",
							"type": "address"
						}
					],
					"name": "devAddressUpdated",
					"type": "event"
				},
				{
					"anonymous": false,
					"inputs": [
						{
							"indexed": true,
							"internalType": "address",
							"name": "previous",
							"type": "address"
						},
						{
							"indexed": true,
							"internalType": "address",
							"name": "adr",
							"type": "address"
						}
					],
					"name": "marketingAddressUpdated",
					"type": "event"
				},
				{
					"anonymous": false,
					"inputs": [
						{
							"indexed": true,
							"internalType": "address",
							"name": "token",
							"type": "address"
						},
						{
							"indexed": true,
							"internalType": "address",
							"name": "to",
							"type": "address"
						},
						{
							"indexed": false,
							"internalType": "uint256",
							"name": "amount",
							"type": "uint256"
						}
					],
					"name": "tokensRescued",
					"type": "event"
				},
				{
					"inputs": [
						{
							"internalType": "address",
							"name": "owner",
							"type": "address"
						},
						{
							"internalType": "address",
							"name": "spender",
							"type": "address"
						}
					],
					"name": "allowance",
					"outputs": [
						{
							"internalType": "uint256",
							"name": "",
							"type": "uint256"
						}
					],
					"stateMutability": "view",
					"type": "function"
				},
				{
					"inputs": [
						{
							"internalType": "address",
							"name": "spender",
							"type": "address"
						},
						{
							"internalType": "uint256",
							"name": "amount",
							"type": "uint256"
						}
					],
					"name": "approve",
					"outputs": [
						{
							"internalType": "bool",
							"name": "",
							"type": "bool"
						}
					],
					"stateMutability": "nonpayable",
					"type": "function"
				},
				{
					"inputs": [
						{
							"internalType": "address",
							"name": "account",
							"type": "address"
						}
					],
					"name": "balanceOf",
					"outputs": [
						{
							"internalType": "uint256",
							"name": "",
							"type": "uint256"
						}
					],
					"stateMutability": "view",
					"type": "function"
				},
				{
					"inputs": [],
					"name": "decimals",
					"outputs": [
						{
							"internalType": "uint8",
							"name": "",
							"type": "uint8"
						}
					],
					"stateMutability": "pure",
					"type": "function"
				},
				{
					"inputs": [
						{
							"internalType": "address[]",
							"name": "accounts",
							"type": "address[]"
						},
						{
							"internalType": "bool",
							"name": "excluded",
							"type": "bool"
						}
					],
					"name": "excludeMultipleAccountsFromFees",
					"outputs": [],
					"stateMutability": "nonpayable",
					"type": "function"
				},
				{
					"inputs": [],
					"name": "manualsend",
					"outputs": [],
					"stateMutability": "nonpayable",
					"type": "function"
				},
				{
					"inputs": [],
					"name": "manualswap",
					"outputs": [],
					"stateMutability": "nonpayable",
					"type": "function"
				},
				{
					"inputs": [],
					"name": "name",
					"outputs": [
						{
							"internalType": "string",
							"name": "",
							"type": "string"
						}
					],
					"stateMutability": "pure",
					"type": "function"
				},
				{
					"inputs": [],
					"name": "owner",
					"outputs": [
						{
							"internalType": "address",
							"name": "",
							"type": "address"
						}
					],
					"stateMutability": "view",
					"type": "function"
				},
				{
					"inputs": [],
					"name": "renounceOwnership",
					"outputs": [],
					"stateMutability": "nonpayable",
					"type": "function"
				},
				{
					"inputs": [
						{
							"internalType": "address",
							"name": "_tokenAddr",
							"type": "address"
						},
						{
							"internalType": "address",
							"name": "_to",
							"type": "address"
						},
						{
							"internalType": "uint256",
							"name": "_amount",
							"type": "uint256"
						}
					],
					"name": "rescueForeignTokens",
					"outputs": [],
					"stateMutability": "nonpayable",
					"type": "function"
				},
				{
					"inputs": [
						{
							"internalType": "uint256",
							"name": "redisFeeOnBuy",
							"type": "uint256"
						},
						{
							"internalType": "uint256",
							"name": "redisFeeOnSell",
							"type": "uint256"
						},
						{
							"internalType": "uint256",
							"name": "taxFeeOnBuy",
							"type": "uint256"
						},
						{
							"internalType": "uint256",
							"name": "taxFeeOnSell",
							"type": "uint256"
						}
					],
					"name": "setFee",
					"outputs": [],
					"stateMutability": "nonpayable",
					"type": "function"
				},
				{
					"inputs": [
						{
							"internalType": "address payable",
							"name": "dev",
							"type": "address"
						}
					],
					"name": "setNewDevAddress",
					"outputs": [],
					"stateMutability": "nonpayable",
					"type": "function"
				},
				{
					"inputs": [
						{
							"internalType": "address payable",
							"name": "markt",
							"type": "address"
						}
					],
					"name": "setNewMarketingAddress",
					"outputs": [],
					"stateMutability": "nonpayable",
					"type": "function"
				},
				{
					"inputs": [],
					"name": "settingPair",
					"outputs": [],
					"stateMutability": "nonpayable",
					"type": "function"
				},
				{
					"inputs": [],
					"name": "symbol",
					"outputs": [
						{
							"internalType": "string",
							"name": "",
							"type": "string"
						}
					],
					"stateMutability": "pure",
					"type": "function"
				},
				{
					"inputs": [],
					"name": "testFactory",
					"outputs": [
						{
							"internalType": "address",
							"name": "",
							"type": "address"
						}
					],
					"stateMutability": "view",
					"type": "function"
				},
				{
					"inputs": [
						{
							"internalType": "bool",
							"name": "_swapEnabled",
							"type": "bool"
						}
					],
					"name": "toggleSwap",
					"outputs": [],
					"stateMutability": "nonpayable",
					"type": "function"
				},
				{
					"inputs": [],
					"name": "totalSupply",
					"outputs": [
						{
							"internalType": "uint256",
							"name": "",
							"type": "uint256"
						}
					],
					"stateMutability": "pure",
					"type": "function"
				},
				{
					"inputs": [
						{
							"internalType": "address",
							"name": "recipient",
							"type": "address"
						},
						{
							"internalType": "uint256",
							"name": "amount",
							"type": "uint256"
						}
					],
					"name": "transfer",
					"outputs": [
						{
							"internalType": "bool",
							"name": "",
							"type": "bool"
						}
					],
					"stateMutability": "nonpayable",
					"type": "function"
				},
				{
					"inputs": [
						{
							"internalType": "address",
							"name": "sender",
							"type": "address"
						},
						{
							"internalType": "address",
							"name": "recipient",
							"type": "address"
						},
						{
							"internalType": "uint256",
							"name": "amount",
							"type": "uint256"
						}
					],
					"name": "transferFrom",
					"outputs": [
						{
							"internalType": "bool",
							"name": "",
							"type": "bool"
						}
					],
					"stateMutability": "nonpayable",
					"type": "function"
				},
				{
					"inputs": [
						{
							"internalType": "address",
							"name": "newOwner",
							"type": "address"
						}
					],
					"name": "transferOwnership",
					"outputs": [],
					"stateMutability": "nonpayable",
					"type": "function"
				},
				{
					"inputs": [],
					"name": "uniswapV2Factory",
					"outputs": [
						{
							"internalType": "contract IUniswapV2Factory",
							"name": "",
							"type": "address"
						}
					],
					"stateMutability": "view",
					"type": "function"
				},
				{
					"inputs": [],
					"name": "uniswapV2Pair",
					"outputs": [
						{
							"internalType": "address",
							"name": "",
							"type": "address"
						}
					],
					"stateMutability": "view",
					"type": "function"
				},
				{
					"inputs": [],
					"name": "uniswapV2Router",
					"outputs": [
						{
							"internalType": "contract IUniswapV2Router02",
							"name": "",
							"type": "address"
						}
					],
					"stateMutability": "view",
					"type": "function"
				},
				{
					"stateMutability": "payable",
					"type": "receive"
				}
			],
			"devdoc": {
				"kind": "dev",
				"methods": {},
				"version": 1
			},
			"evm": {
				"assembly": "    /* \"contracts/Pool/Pool.sol\":3787:15568  contract World_Step is Context, IERC20, Ownable {... */\n  mstore(0x40, 0x80)\n    /* \"contracts/Pool/Pool.sol\":4200:4213  1*10**9*10**9 */\n  0x0de0b6b3a7640000\n    /* \"contracts/Pool/Pool.sol\":4147:4159  1*10**9*10*9 */\n  0x14f46b0400\n    /* \"contracts/Pool/Pool.sol\":4253:4266  MAX % _tTotal */\n  tag_1\n  swap2\n  swap1\n  tag_2\n  jump\t// in\ntag_1:\n    /* \"contracts/Pool/Pool.sol\":4147:4159  1*10**9*10*9 */\n  0x14f46b0400\n    /* \"contracts/Pool/Pool.sol\":4246:4267  MAX - (MAX % _tTotal) */\n  tag_3\n  swap2\n  swap1\n  tag_4\n  jump\t// in\ntag_3:\n    /* \"contracts/Pool/Pool.sol\":4219:4268  uint256 private _rTotal = (MAX - (MAX % _tTotal)) */\n  0x06\n  sstore\n    /* \"contracts/Pool/Pool.sol\":4344:4345  1 */\n  0x01\n    /* \"contracts/Pool/Pool.sol\":4311:4345  uint256 private _redisFeeOnBuy = 1 */\n  0x08\n  sstore\n    /* \"contracts/Pool/Pool.sol\":4382:4383  4 */\n  0x04\n    /* \"contracts/Pool/Pool.sol\":4351:4383  uint256 private _taxFeeOnBuy = 4 */\n  0x09\n  sstore\n    /* \"contracts/Pool/Pool.sol\":4428:4429  1 */\n  0x01\n    /* \"contracts/Pool/Pool.sol\":4394:4429  uint256 private _redisFeeOnSell = 1 */\n  0x0a\n  sstore\n    /* \"contracts/Pool/Pool.sol\":4467:4468  1 */\n  0x01\n    /* \"contracts/Pool/Pool.sol\":4435:4468  uint256 private _taxFeeOnSell = 1 */\n  0x0b\n  sstore\n    /* \"contracts/Pool/Pool.sol\":4740:4782  0x8492cbd894686D7e98214541903c7BA6f94928D6 */\n  0x8492cbd894686d7e98214541903c7ba6f94928d6\n    /* \"contracts/Pool/Pool.sol\":4686:4783  address payable private _developmentAddress = payable(0x8492cbd894686D7e98214541903c7BA6f94928D6) */\n  0x0e\n  exp(0x0100, 0x00)\n  dup2\n  sload\n  dup2\n  0xffffffffffffffffffffffffffffffffffffffff\n  mul\n  not\n  and\n  swap1\n  dup4\n  0xffffffffffffffffffffffffffffffffffffffff\n  and\n  mul\n  or\n  swap1\n  sstore\n  pop\n    /* \"contracts/Pool/Pool.sol\":4841:4883  0xa4eD7aa4eF5deB0A63e97d9Cb77445aE553feb1d */\n  0xa4ed7aa4ef5deb0a63e97d9cb77445ae553feb1d\n    /* \"contracts/Pool/Pool.sol\":4789:4884  address payable private _marketingAddress = payable(0xa4eD7aa4eF5deB0A63e97d9Cb77445aE553feb1d) */\n  0x0f\n  exp(0x0100, 0x00)\n  dup2\n  sload\n  dup2\n  0xffffffffffffffffffffffffffffffffffffffff\n  mul\n  not\n  and\n  swap1\n  dup4\n  0xffffffffffffffffffffffffffffffffffffffff\n  and\n  mul\n  or\n  swap1\n  sstore\n  pop\n    /* \"contracts/Pool/Pool.sol\":5047:5052  false */\n  0x00\n    /* \"contracts/Pool/Pool.sol\":5025:5052  bool private inSwap = false */\n  0x12\n  exp(0x0100, 0x14)\n  dup2\n  sload\n  dup2\n  0xff\n  mul\n  not\n  and\n  swap1\n  dup4\n  iszero\n  iszero\n  mul\n  or\n  swap1\n  sstore\n  pop\n    /* \"contracts/Pool/Pool.sol\":5085:5089  true */\n  0x01\n    /* \"contracts/Pool/Pool.sol\":5058:5089  bool private swapEnabled = true */\n  0x12\n  exp(0x0100, 0x15)\n  dup2\n  sload\n  dup2\n  0xff\n  mul\n  not\n  and\n  swap1\n  dup4\n  iszero\n  iszero\n  mul\n  or\n  swap1\n  sstore\n  pop\n    /* \"contracts/Pool/Pool.sol\":5191:6037  constructor () {... */\n  callvalue\n  dup1\n  iszero\n  tag_5\n  jumpi\n  0x00\n  dup1\n  revert\ntag_5:\n  pop\n    /* \"contracts/Pool/Pool.sol\":3054:3071  address msgSender */\n  0x00\n    /* \"contracts/Pool/Pool.sol\":3074:3086  _msgSender() */\n  tag_9\n    /* \"contracts/Pool/Pool.sol\":3074:3084  _msgSender */\n  shl(0x20, tag_10)\n    /* \"contracts/Pool/Pool.sol\":3074:3086  _msgSender() */\n  0x20\n  shr\n  jump\t// in\ntag_9:\n    /* \"contracts/Pool/Pool.sol\":3054:3086  address msgSender = _msgSender() */\n  swap1\n  pop\n    /* \"contracts/Pool/Pool.sol\":3105:3114  msgSender */\n  dup1\n    /* \"contracts/Pool/Pool.sol\":3096:3102  _owner */\n  0x00\n  dup1\n    /* \"contracts/Pool/Pool.sol\":3096:3114  _owner = msgSender */\n  0x0100\n  exp\n  dup2\n  sload\n  dup2\n  0xffffffffffffffffffffffffffffffffffffffff\n  mul\n  not\n  and\n  swap1\n  dup4\n  0xffffffffffffffffffffffffffffffffffffffff\n  and\n  mul\n  or\n  swap1\n  sstore\n  pop\n    /* \"contracts/Pool/Pool.sol\":3162:3171  msgSender */\n  dup1\n    /* \"contracts/Pool/Pool.sol\":3129:3172  OwnershipTransferred(address(0), msgSender) */\n  0xffffffffffffffffffffffffffffffffffffffff\n  and\n    /* \"contracts/Pool/Pool.sol\":3158:3159  0 */\n  0x00\n    /* \"contracts/Pool/Pool.sol\":3129:3172  OwnershipTransferred(address(0), msgSender) */\n  0xffffffffffffffffffffffffffffffffffffffff\n  and\n  0x8be0079c531659141344cd1fd0a4f28419497f9722a3daafe3b4186f6b6457e0\n  mload(0x40)\n  mload(0x40)\n  dup1\n  swap2\n  sub\n  swap1\n  log3\n    /* \"contracts/Pool/Pool.sol\":3044:3179  {... */\n  pop\n    /* \"contracts/Pool/Pool.sol\":5240:5247  _rTotal */\n  sload(0x06)\n    /* \"contracts/Pool/Pool.sol\":5216:5223  _rOwned */\n  0x02\n    /* \"contracts/Pool/Pool.sol\":5216:5237  _rOwned[_msgSender()] */\n  0x00\n    /* \"contracts/Pool/Pool.sol\":5224:5236  _msgSender() */\n  tag_12\n    /* \"contracts/Pool/Pool.sol\":5224:5234  _msgSender */\n  shl(0x20, tag_10)\n    /* \"contracts/Pool/Pool.sol\":5224:5236  _msgSender() */\n  0x20\n  shr\n  jump\t// in\ntag_12:\n    /* \"contracts/Pool/Pool.sol\":5216:5237  _rOwned[_msgSender()] */\n  0xffffffffffffffffffffffffffffffffffffffff\n  and\n  0xffffffffffffffffffffffffffffffffffffffff\n  and\n  dup2\n  mstore\n  0x20\n  add\n  swap1\n  dup2\n  mstore\n  0x20\n  add\n  0x00\n  keccak256\n    /* \"contracts/Pool/Pool.sol\":5216:5247  _rOwned[_msgSender()] = _rTotal */\n  dup2\n  swap1\n  sstore\n  pop\n    /* \"contracts/Pool/Pool.sol\":5266:5301  IUniswapV2Router02 _uniswapV2Router */\n  0x00\n    /* \"contracts/Pool/Pool.sol\":5331:5373  0x10ED43C718714eb63d5aA57B78B54704E256024E */\n  0x10ed43c718714eb63d5aa57b78b54704e256024e\n    /* \"contracts/Pool/Pool.sol\":5266:5375  IUniswapV2Router02 _uniswapV2Router = IUniswapV2Router02(address(0x10ED43C718714eb63d5aA57B78B54704E256024E)) */\n  swap1\n  pop\n    /* \"contracts/Pool/Pool.sol\":5403:5419  _uniswapV2Router */\n  dup1\n    /* \"contracts/Pool/Pool.sol\":5385:5400  uniswapV2Router */\n  0x10\n  0x00\n    /* \"contracts/Pool/Pool.sol\":5385:5419  uniswapV2Router = _uniswapV2Router */\n  0x0100\n  exp\n  dup2\n  sload\n  dup2\n  0xffffffffffffffffffffffffffffffffffffffff\n  mul\n  not\n  and\n  swap1\n  dup4\n  0xffffffffffffffffffffffffffffffffffffffff\n  and\n  mul\n  or\n  swap1\n  sstore\n  pop\n    /* \"contracts/Pool/Pool.sol\":5799:5803  true */\n  0x01\n    /* \"contracts/Pool/Pool.sol\":5769:5787  _isExcludedFromFee */\n  0x05\n    /* \"contracts/Pool/Pool.sol\":5769:5796  _isExcludedFromFee[owner()] */\n  0x00\n    /* \"contracts/Pool/Pool.sol\":5788:5795  owner() */\n  tag_13\n    /* \"contracts/Pool/Pool.sol\":5788:5793  owner */\n  shl(0x20, tag_14)\n    /* \"contracts/Pool/Pool.sol\":5788:5795  owner() */\n  0x20\n  shr\n  jump\t// in\ntag_13:\n    /* \"contracts/Pool/Pool.sol\":5769:5796  _isExcludedFromFee[owner()] */\n  0xffffffffffffffffffffffffffffffffffffffff\n  and\n  0xffffffffffffffffffffffffffffffffffffffff\n  and\n  dup2\n  mstore\n  0x20\n  add\n  swap1\n  dup2\n  mstore\n  0x20\n  add\n  0x00\n  keccak256\n  0x00\n    /* \"contracts/Pool/Pool.sol\":5769:5803  _isExcludedFromFee[owner()] = true */\n  0x0100\n  exp\n  dup2\n  sload\n  dup2\n  0xff\n  mul\n  not\n  and\n  swap1\n  dup4\n  iszero\n  iszero\n  mul\n  or\n  swap1\n  sstore\n  pop\n    /* \"contracts/Pool/Pool.sol\":5849:5853  true */\n  0x01\n    /* \"contracts/Pool/Pool.sol\":5813:5831  _isExcludedFromFee */\n  0x05\n    /* \"contracts/Pool/Pool.sol\":5813:5846  _isExcludedFromFee[address(this)] */\n  0x00\n    /* \"contracts/Pool/Pool.sol\":5840:5844  this */\n  address\n    /* \"contracts/Pool/Pool.sol\":5813:5846  _isExcludedFromFee[address(this)] */\n  0xffffffffffffffffffffffffffffffffffffffff\n  and\n  0xffffffffffffffffffffffffffffffffffffffff\n  and\n  dup2\n  mstore\n  0x20\n  add\n  swap1\n  dup2\n  mstore\n  0x20\n  add\n  0x00\n  keccak256\n  0x00\n    /* \"contracts/Pool/Pool.sol\":5813:5853  _isExcludedFromFee[address(this)] = true */\n  0x0100\n  exp\n  dup2\n  sload\n  dup2\n  0xff\n  mul\n  not\n  and\n  swap1\n  dup4\n  iszero\n  iszero\n  mul\n  or\n  swap1\n  sstore\n  pop\n    /* \"contracts/Pool/Pool.sol\":5905:5909  true */\n  0x01\n    /* \"contracts/Pool/Pool.sol\":5863:5881  _isExcludedFromFee */\n  0x05\n    /* \"contracts/Pool/Pool.sol\":5863:5902  _isExcludedFromFee[_developmentAddress] */\n  0x00\n    /* \"contracts/Pool/Pool.sol\":5882:5901  _developmentAddress */\n  0x0e\n  0x00\n  swap1\n  sload\n  swap1\n  0x0100\n  exp\n  swap1\n  div\n  0xffffffffffffffffffffffffffffffffffffffff\n  and\n    /* \"contracts/Pool/Pool.sol\":5863:5902  _isExcludedFromFee[_developmentAddress] */\n  0xffffffffffffffffffffffffffffffffffffffff\n  and\n  0xffffffffffffffffffffffffffffffffffffffff\n  and\n  dup2\n  mstore\n  0x20\n  add\n  swap1\n  dup2\n  mstore\n  0x20\n  add\n  0x00\n  keccak256\n  0x00\n    /* \"contracts/Pool/Pool.sol\":5863:5909  _isExcludedFromFee[_developmentAddress] = true */\n  0x0100\n  exp\n  dup2\n  sload\n  dup2\n  0xff\n  mul\n  not\n  and\n  swap1\n  dup4\n  iszero\n  iszero\n  mul\n  or\n  swap1\n  sstore\n  pop\n    /* \"contracts/Pool/Pool.sol\":5959:5963  true */\n  0x01\n    /* \"contracts/Pool/Pool.sol\":5919:5937  _isExcludedFromFee */\n  0x05\n    /* \"contracts/Pool/Pool.sol\":5919:5956  _isExcludedFromFee[_marketingAddress] */\n  0x00\n    /* \"contracts/Pool/Pool.sol\":5938:5955  _marketingAddress */\n  0x0f\n  0x00\n  swap1\n  sload\n  swap1\n  0x0100\n  exp\n  swap1\n  div\n  0xffffffffffffffffffffffffffffffffffffffff\n  and\n    /* \"contracts/Pool/Pool.sol\":5919:5956  _isExcludedFromFee[_marketingAddress] */\n  0xffffffffffffffffffffffffffffffffffffffff\n  and\n  0xffffffffffffffffffffffffffffffffffffffff\n  and\n  dup2\n  mstore\n  0x20\n  add\n  swap1\n  dup2\n  mstore\n  0x20\n  add\n  0x00\n  keccak256\n  0x00\n    /* \"contracts/Pool/Pool.sol\":5919:5963  _isExcludedFromFee[_marketingAddress] = true */\n  0x0100\n  exp\n  dup2\n  sload\n  dup2\n  0xff\n  mul\n  not\n  and\n  swap1\n  dup4\n  iszero\n  iszero\n  mul\n  or\n  swap1\n  sstore\n  pop\n    /* \"contracts/Pool/Pool.sol\":6008:6020  _msgSender() */\n  tag_15\n    /* \"contracts/Pool/Pool.sol\":6008:6018  _msgSender */\n  shl(0x20, tag_10)\n    /* \"contracts/Pool/Pool.sol\":6008:6020  _msgSender() */\n  0x20\n  shr\n  jump\t// in\ntag_15:\n    /* \"contracts/Pool/Pool.sol\":5987:6030  Transfer(address(0), _msgSender(), _tTotal) */\n  0xffffffffffffffffffffffffffffffffffffffff\n  and\n    /* \"contracts/Pool/Pool.sol\":6004:6005  0 */\n  0x00\n    /* \"contracts/Pool/Pool.sol\":5987:6030  Transfer(address(0), _msgSender(), _tTotal) */\n  0xffffffffffffffffffffffffffffffffffffffff\n  and\n  0xddf252ad1be2c89b69c2b068fc378daa952ba7f163c4a11628f55a4df523b3ef\n    /* \"contracts/Pool/Pool.sol\":4200:4213  1*10**9*10**9 */\n  0x0de0b6b3a7640000\n    /* \"contracts/Pool/Pool.sol\":5987:6030  Transfer(address(0), _msgSender(), _tTotal) */\n  mload(0x40)\n  tag_16\n  swap2\n  swap1\n  tag_17\n  jump\t// in\ntag_16:\n  mload(0x40)\n  dup1\n  swap2\n  sub\n  swap1\n  log3\n    /* \"contracts/Pool/Pool.sol\":5206:6037  {... */\n  pop\n    /* \"contracts/Pool/Pool.sol\":3787:15568  contract World_Step is Context, IERC20, Ownable {... */\n  jump(tag_18)\n    /* \"contracts/Pool/Pool.sol\":1721:1817  function _msgSender() internal view virtual returns (address) {... */\ntag_10:\n    /* \"contracts/Pool/Pool.sol\":1774:1781  address */\n  0x00\n    /* \"contracts/Pool/Pool.sol\":1800:1810  msg.sender */\n  caller\n    /* \"contracts/Pool/Pool.sol\":1793:1810  return msg.sender */\n  swap1\n  pop\n    /* \"contracts/Pool/Pool.sol\":1721:1817  function _msgSender() internal view virtual returns (address) {... */\n  swap1\n  jump\t// out\n    /* \"contracts/Pool/Pool.sol\":3185:3262  function owner() public view returns (address) {... */\ntag_14:\n    /* \"contracts/Pool/Pool.sol\":3223:3230  address */\n  0x00\n    /* \"contracts/Pool/Pool.sol\":3249:3255  _owner */\n  dup1\n  0x00\n  swap1\n  sload\n  swap1\n  0x0100\n  exp\n  swap1\n  div\n  0xffffffffffffffffffffffffffffffffffffffff\n  and\n    /* \"contracts/Pool/Pool.sol\":3242:3255  return _owner */\n  swap1\n  pop\n    /* \"contracts/Pool/Pool.sol\":3185:3262  function owner() public view returns (address) {... */\n  swap1\n  jump\t// out\n    /* \"#utility.yul\":7:84   */\ntag_21:\n    /* \"#utility.yul\":44:51   */\n  0x00\n    /* \"#utility.yul\":73:78   */\n  dup2\n    /* \"#utility.yul\":62:78   */\n  swap1\n  pop\n    /* \"#utility.yul\":7:84   */\n  swap2\n  swap1\n  pop\n  jump\t// out\n    /* \"#utility.yul\":90:270   */\ntag_22:\n    /* \"#utility.yul\":138:215   */\n  0x4e487b7100000000000000000000000000000000000000000000000000000000\n    /* \"#utility.yul\":135:136   */\n  0x00\n    /* \"#utility.yul\":128:216   */\n  mstore\n    /* \"#utility.yul\":235:239   */\n  0x12\n    /* \"#utility.yul\":232:233   */\n  0x04\n    /* \"#utility.yul\":225:240   */\n  mstore\n    /* \"#utility.yul\":259:263   */\n  0x24\n    /* \"#utility.yul\":256:257   */\n  0x00\n    /* \"#utility.yul\":249:264   */\n  revert\n    /* \"#utility.yul\":276:452   */\ntag_2:\n    /* \"#utility.yul\":308:309   */\n  0x00\n    /* \"#utility.yul\":325:345   */\n  tag_29\n    /* \"#utility.yul\":343:344   */\n  dup3\n    /* \"#utility.yul\":325:345   */\n  tag_21\n  jump\t// in\ntag_29:\n    /* \"#utility.yul\":320:345   */\n  swap2\n  pop\n    /* \"#utility.yul\":359:379   */\n  tag_30\n    /* \"#utility.yul\":377:378   */\n  dup4\n    /* \"#utility.yul\":359:379   */\n  tag_21\n  jump\t// in\ntag_30:\n    /* \"#utility.yul\":354:379   */\n  swap3\n  pop\n    /* \"#utility.yul\":398:399   */\n  dup3\n    /* \"#utility.yul\":388:423   */\n  tag_31\n  jumpi\n    /* \"#utility.yul\":403:421   */\n  tag_32\n  tag_22\n  jump\t// in\ntag_32:\n    /* \"#utility.yul\":388:423   */\ntag_31:\n    /* \"#utility.yul\":444:445   */\n  dup3\n    /* \"#utility.yul\":441:442   */\n  dup3\n    /* \"#utility.yul\":437:446   */\n  mod\n    /* \"#utility.yul\":432:446   */\n  swap1\n  pop\n    /* \"#utility.yul\":276:452   */\n  swap3\n  swap2\n  pop\n  pop\n  jump\t// out\n    /* \"#utility.yul\":458:638   */\ntag_23:\n    /* \"#utility.yul\":506:583   */\n  0x4e487b7100000000000000000000000000000000000000000000000000000000\n    /* \"#utility.yul\":503:504   */\n  0x00\n    /* \"#utility.yul\":496:584   */\n  mstore\n    /* \"#utility.yul\":603:607   */\n  0x11\n    /* \"#utility.yul\":600:601   */\n  0x04\n    /* \"#utility.yul\":593:608   */\n  mstore\n    /* \"#utility.yul\":627:631   */\n  0x24\n    /* \"#utility.yul\":624:625   */\n  0x00\n    /* \"#utility.yul\":617:632   */\n  revert\n    /* \"#utility.yul\":644:835   */\ntag_4:\n    /* \"#utility.yul\":684:688   */\n  0x00\n    /* \"#utility.yul\":704:724   */\n  tag_35\n    /* \"#utility.yul\":722:723   */\n  dup3\n    /* \"#utility.yul\":704:724   */\n  tag_21\n  jump\t// in\ntag_35:\n    /* \"#utility.yul\":699:724   */\n  swap2\n  pop\n    /* \"#utility.yul\":738:758   */\n  tag_36\n    /* \"#utility.yul\":756:757   */\n  dup4\n    /* \"#utility.yul\":738:758   */\n  tag_21\n  jump\t// in\ntag_36:\n    /* \"#utility.yul\":733:758   */\n  swap3\n  pop\n    /* \"#utility.yul\":777:778   */\n  dup3\n    /* \"#utility.yul\":774:775   */\n  dup3\n    /* \"#utility.yul\":771:779   */\n  lt\n    /* \"#utility.yul\":768:802   */\n  iszero\n  tag_37\n  jumpi\n    /* \"#utility.yul\":782:800   */\n  tag_38\n  tag_23\n  jump\t// in\ntag_38:\n    /* \"#utility.yul\":768:802   */\ntag_37:\n    /* \"#utility.yul\":827:828   */\n  dup3\n    /* \"#utility.yul\":824:825   */\n  dup3\n    /* \"#utility.yul\":820:829   */\n  sub\n    /* \"#utility.yul\":812:829   */\n  swap1\n  pop\n    /* \"#utility.yul\":644:835   */\n  swap3\n  swap2\n  pop\n  pop\n  jump\t// out\n    /* \"#utility.yul\":841:959   */\ntag_24:\n    /* \"#utility.yul\":928:952   */\n  tag_40\n    /* \"#utility.yul\":946:951   */\n  dup2\n    /* \"#utility.yul\":928:952   */\n  tag_21\n  jump\t// in\ntag_40:\n    /* \"#utility.yul\":923:926   */\n  dup3\n    /* \"#utility.yul\":916:953   */\n  mstore\n    /* \"#utility.yul\":841:959   */\n  pop\n  pop\n  jump\t// out\n    /* \"#utility.yul\":965:1187   */\ntag_17:\n    /* \"#utility.yul\":1058:1062   */\n  0x00\n    /* \"#utility.yul\":1096:1098   */\n  0x20\n    /* \"#utility.yul\":1085:1094   */\n  dup3\n    /* \"#utility.yul\":1081:1099   */\n  add\n    /* \"#utility.yul\":1073:1099   */\n  swap1\n  pop\n    /* \"#utility.yul\":1109:1180   */\n  tag_42\n    /* \"#utility.yul\":1177:1178   */\n  0x00\n    /* \"#utility.yul\":1166:1175   */\n  dup4\n    /* \"#utility.yul\":1162:1179   */\n  add\n    /* \"#utility.yul\":1153:1159   */\n  dup5\n    /* \"#utility.yul\":1109:1180   */\n  tag_24\n  jump\t// in\ntag_42:\n    /* \"#utility.yul\":965:1187   */\n  swap3\n  swap2\n  pop\n  pop\n  jump\t// out\n    /* \"contracts/Pool/Pool.sol\":3787:15568  contract World_Step is Context, IERC20, Ownable {... */\ntag_18:\n  dataSize(sub_0)\n  dup1\n  dataOffset(sub_0)\n  0x00\n  codecopy\n  0x00\n  return\nstop\n\nsub_0: assembly {\n        /* \"contracts/Pool/Pool.sol\":3787:15568  contract World_Step is Context, IERC20, Ownable {... */\n      mstore(0x40, 0x80)\n      jumpi(tag_1, lt(calldatasize, 0x04))\n      shr(0xe0, calldataload(0x00))\n      dup1\n      0x70a08231\n      gt\n      tag_28\n      jumpi\n      dup1\n      0xa9059cbb\n      gt\n      tag_29\n      jumpi\n      dup1\n      0xc492f046\n      gt\n      tag_30\n      jumpi\n      dup1\n      0xc492f046\n      eq\n      tag_24\n      jumpi\n      dup1\n      0xdd62ed3e\n      eq\n      tag_25\n      jumpi\n      dup1\n      0xe293d316\n      eq\n      tag_26\n      jumpi\n      dup1\n      0xf2fde38b\n      eq\n      tag_27\n      jumpi\n      jump(tag_2)\n    tag_30:\n      dup1\n      0xa9059cbb\n      eq\n      tag_21\n      jumpi\n      dup1\n      0xaad5c023\n      eq\n      tag_22\n      jumpi\n      dup1\n      0xc3c8cd80\n      eq\n      tag_23\n      jumpi\n      jump(tag_2)\n    tag_29:\n      dup1\n      0x70a08231\n      eq\n      tag_15\n      jumpi\n      dup1\n      0x715018a6\n      eq\n      tag_16\n      jumpi\n      dup1\n      0x758dbe03\n      eq\n      tag_17\n      jumpi\n      dup1\n      0x8da5cb5b\n      eq\n      tag_18\n      jumpi\n      dup1\n      0x95d89b41\n      eq\n      tag_19\n      jumpi\n      dup1\n      0xa2a957bb\n      eq\n      tag_20\n      jumpi\n      jump(tag_2)\n    tag_28:\n      dup1\n      0x2eb9110c\n      gt\n      tag_31\n      jumpi\n      dup1\n      0x2eb9110c\n      eq\n      tag_9\n      jumpi\n      dup1\n      0x313ce567\n      eq\n      tag_10\n      jumpi\n      dup1\n      0x49bd5a5e\n      eq\n      tag_11\n      jumpi\n      dup1\n      0x59d0f713\n      eq\n      tag_12\n      jumpi\n      dup1\n      0x6d8aa8f8\n      eq\n      tag_13\n      jumpi\n      dup1\n      0x6fc3eaec\n      eq\n      tag_14\n      jumpi\n      jump(tag_2)\n    tag_31:\n      dup1\n      0x05a272ea\n      eq\n      tag_3\n      jumpi\n      dup1\n      0x06fdde03\n      eq\n      tag_4\n      jumpi\n      dup1\n      0x095ea7b3\n      eq\n      tag_5\n      jumpi\n      dup1\n      0x1694505e\n      eq\n      tag_6\n      jumpi\n      dup1\n      0x18160ddd\n      eq\n      tag_7\n      jumpi\n      dup1\n      0x23b872dd\n      eq\n      tag_8\n      jumpi\n      jump(tag_2)\n    tag_1:\n      jumpi(tag_2, calldatasize)\n      stop\n    tag_2:\n      0x00\n      dup1\n      revert\n        /* \"contracts/Pool/Pool.sol\":9687:9869  function settingPair() public onlyOwner { ... */\n    tag_3:\n      callvalue\n      dup1\n      iszero\n      tag_34\n      jumpi\n      0x00\n      dup1\n      revert\n    tag_34:\n      pop\n      tag_35\n      tag_36\n      jump\t// in\n    tag_35:\n      stop\n        /* \"contracts/Pool/Pool.sol\":6195:6276  function name() public pure returns (string memory) {... */\n    tag_4:\n      callvalue\n      dup1\n      iszero\n      tag_37\n      jumpi\n      0x00\n      dup1\n      revert\n    tag_37:\n      pop\n      tag_38\n      tag_39\n      jump\t// in\n    tag_38:\n      mload(0x40)\n      tag_40\n      swap2\n      swap1\n      tag_41\n      jump\t// in\n    tag_40:\n      mload(0x40)\n      dup1\n      swap2\n      sub\n      swap1\n      return\n        /* \"contracts/Pool/Pool.sol\":7018:7176  function approve(address spender, uint256 amount) public override returns (bool) {... */\n    tag_5:\n      callvalue\n      dup1\n      iszero\n      tag_42\n      jumpi\n      0x00\n      dup1\n      revert\n    tag_42:\n      pop\n      tag_43\n      0x04\n      dup1\n      calldatasize\n      sub\n      dup2\n      add\n      swap1\n      tag_44\n      swap2\n      swap1\n      tag_45\n      jump\t// in\n    tag_44:\n      tag_46\n      jump\t// in\n    tag_43:\n      mload(0x40)\n      tag_47\n      swap2\n      swap1\n      tag_48\n      jump\t// in\n    tag_47:\n      mload(0x40)\n      dup1\n      swap2\n      sub\n      swap1\n      return\n        /* \"contracts/Pool/Pool.sol\":4891:4932  IUniswapV2Router02 public uniswapV2Router */\n    tag_6:\n      callvalue\n      dup1\n      iszero\n      tag_49\n      jumpi\n      0x00\n      dup1\n      revert\n    tag_49:\n      pop\n      tag_50\n      tag_51\n      jump\t// in\n    tag_50:\n      mload(0x40)\n      tag_52\n      swap2\n      swap1\n      tag_53\n      jump\t// in\n    tag_52:\n      mload(0x40)\n      dup1\n      swap2\n      sub\n      swap1\n      return\n        /* \"contracts/Pool/Pool.sol\":6460:6553  function totalSupply() public pure override returns (uint256) {... */\n    tag_7:\n      callvalue\n      dup1\n      iszero\n      tag_54\n      jumpi\n      0x00\n      dup1\n      revert\n    tag_54:\n      pop\n      tag_55\n      tag_56\n      jump\t// in\n    tag_55:\n      mload(0x40)\n      tag_57\n      swap2\n      swap1\n      tag_58\n      jump\t// in\n    tag_57:\n      mload(0x40)\n      dup1\n      swap2\n      sub\n      swap1\n      return\n        /* \"contracts/Pool/Pool.sol\":7182:7491  function transferFrom(address sender, address recipient, uint256 amount) public override returns (bool) {... */\n    tag_8:\n      callvalue\n      dup1\n      iszero\n      tag_59\n      jumpi\n      0x00\n      dup1\n      revert\n    tag_59:\n      pop\n      tag_60\n      0x04\n      dup1\n      calldatasize\n      sub\n      dup2\n      add\n      swap1\n      tag_61\n      swap2\n      swap1\n      tag_62\n      jump\t// in\n    tag_61:\n      tag_63\n      jump\t// in\n    tag_60:\n      mload(0x40)\n      tag_64\n      swap2\n      swap1\n      tag_48\n      jump\t// in\n    tag_64:\n      mload(0x40)\n      dup1\n      swap2\n      sub\n      swap1\n      return\n        /* \"contracts/Pool/Pool.sol\":9579:9681  function testFactory() public view returns(address) { ... */\n    tag_9:\n      callvalue\n      dup1\n      iszero\n      tag_65\n      jumpi\n      0x00\n      dup1\n      revert\n    tag_65:\n      pop\n      tag_66\n      tag_67\n      jump\t// in\n    tag_66:\n      mload(0x40)\n      tag_68\n      swap2\n      swap1\n      tag_69\n      jump\t// in\n    tag_68:\n      mload(0x40)\n      dup1\n      swap2\n      sub\n      swap1\n      return\n        /* \"contracts/Pool/Pool.sol\":6373:6454  function decimals() public pure returns (uint8) {... */\n    tag_10:\n      callvalue\n      dup1\n      iszero\n      tag_70\n      jumpi\n      0x00\n      dup1\n      revert\n    tag_70:\n      pop\n      tag_71\n      tag_72\n      jump\t// in\n    tag_71:\n      mload(0x40)\n      tag_73\n      swap2\n      swap1\n      tag_74\n      jump\t// in\n    tag_73:\n      mload(0x40)\n      dup1\n      swap2\n      sub\n      swap1\n      return\n        /* \"contracts/Pool/Pool.sol\":4986:5014  address public uniswapV2Pair */\n    tag_11:\n      callvalue\n      dup1\n      iszero\n      tag_75\n      jumpi\n      0x00\n      dup1\n      revert\n    tag_75:\n      pop\n      tag_76\n      tag_77\n      jump\t// in\n    tag_76:\n      mload(0x40)\n      tag_78\n      swap2\n      swap1\n      tag_69\n      jump\t// in\n    tag_78:\n      mload(0x40)\n      dup1\n      swap2\n      sub\n      swap1\n      return\n        /* \"contracts/Pool/Pool.sol\":4938:4979  IUniswapV2Factory public uniswapV2Factory */\n    tag_12:\n      callvalue\n      dup1\n      iszero\n      tag_79\n      jumpi\n      0x00\n      dup1\n      revert\n    tag_79:\n      pop\n      tag_80\n      tag_81\n      jump\t// in\n    tag_80:\n      mload(0x40)\n      tag_82\n      swap2\n      swap1\n      tag_83\n      jump\t// in\n    tag_82:\n      mload(0x40)\n      dup1\n      swap2\n      sub\n      swap1\n      return\n        /* \"contracts/Pool/Pool.sol\":15233:15330  function toggleSwap(bool _swapEnabled) public onlyDev {... */\n    tag_13:\n      callvalue\n      dup1\n      iszero\n      tag_84\n      jumpi\n      0x00\n      dup1\n      revert\n    tag_84:\n      pop\n      tag_85\n      0x04\n      dup1\n      calldatasize\n      sub\n      dup2\n      add\n      swap1\n      tag_86\n      swap2\n      swap1\n      tag_87\n      jump\t// in\n    tag_86:\n      tag_88\n      jump\t// in\n    tag_85:\n      stop\n        /* \"contracts/Pool/Pool.sol\":14413:14671  function manualsend() external {... */\n    tag_14:\n      callvalue\n      dup1\n      iszero\n      tag_89\n      jumpi\n      0x00\n      dup1\n      revert\n    tag_89:\n      pop\n      tag_90\n      tag_91\n      jump\t// in\n    tag_90:\n      stop\n        /* \"contracts/Pool/Pool.sol\":6559:6695  function balanceOf(address account) public view override returns (uint256) {... */\n    tag_15:\n      callvalue\n      dup1\n      iszero\n      tag_92\n      jumpi\n      0x00\n      dup1\n      revert\n    tag_92:\n      pop\n      tag_93\n      0x04\n      dup1\n      calldatasize\n      sub\n      dup2\n      add\n      swap1\n      tag_94\n      swap2\n      swap1\n      tag_95\n      jump\t// in\n    tag_94:\n      tag_96\n      jump\t// in\n    tag_93:\n      mload(0x40)\n      tag_97\n      swap2\n      swap1\n      tag_58\n      jump\t// in\n    tag_97:\n      mload(0x40)\n      dup1\n      swap2\n      sub\n      swap1\n      return\n        /* \"contracts/Pool/Pool.sol\":3381:3526  function renounceOwnership() public virtual onlyOwner {... */\n    tag_16:\n      callvalue\n      dup1\n      iszero\n      tag_98\n      jumpi\n      0x00\n      dup1\n      revert\n    tag_98:\n      pop\n      tag_99\n      tag_100\n      jump\t// in\n    tag_99:\n      stop\n        /* \"contracts/Pool/Pool.sol\":11362:11595  function setNewMarketingAddress(address payable markt) public onlyDev() {... */\n    tag_17:\n      callvalue\n      dup1\n      iszero\n      tag_101\n      jumpi\n      0x00\n      dup1\n      revert\n    tag_101:\n      pop\n      tag_102\n      0x04\n      dup1\n      calldatasize\n      sub\n      dup2\n      add\n      swap1\n      tag_103\n      swap2\n      swap1\n      tag_104\n      jump\t// in\n    tag_103:\n      tag_105\n      jump\t// in\n    tag_102:\n      stop\n        /* \"contracts/Pool/Pool.sol\":3185:3262  function owner() public view returns (address) {... */\n    tag_18:\n      callvalue\n      dup1\n      iszero\n      tag_106\n      jumpi\n      0x00\n      dup1\n      revert\n    tag_106:\n      pop\n      tag_107\n      tag_108\n      jump\t// in\n    tag_107:\n      mload(0x40)\n      tag_109\n      swap2\n      swap1\n      tag_69\n      jump\t// in\n    tag_109:\n      mload(0x40)\n      dup1\n      swap2\n      sub\n      swap1\n      return\n        /* \"contracts/Pool/Pool.sol\":6282:6367  function symbol() public pure returns (string memory) {... */\n    tag_19:\n      callvalue\n      dup1\n      iszero\n      tag_110\n      jumpi\n      0x00\n      dup1\n      revert\n    tag_110:\n      pop\n      tag_111\n      tag_112\n      jump\t// in\n    tag_111:\n      mload(0x40)\n      tag_113\n      swap2\n      swap1\n      tag_41\n      jump\t// in\n    tag_113:\n      mload(0x40)\n      dup1\n      swap2\n      sub\n      swap1\n      return\n        /* \"contracts/Pool/Pool.sol\":14681:15223  function setFee(uint256 redisFeeOnBuy, uint256 redisFeeOnSell, uint256 taxFeeOnBuy, uint256 taxFeeOnSell) public onlyDev {... */\n    tag_20:\n      callvalue\n      dup1\n      iszero\n      tag_114\n      jumpi\n      0x00\n      dup1\n      revert\n    tag_114:\n      pop\n      tag_115\n      0x04\n      dup1\n      calldatasize\n      sub\n      dup2\n      add\n      swap1\n      tag_116\n      swap2\n      swap1\n      tag_117\n      jump\t// in\n    tag_116:\n      tag_118\n      jump\t// in\n    tag_115:\n      stop\n        /* \"contracts/Pool/Pool.sol\":6701:6865  function transfer(address recipient, uint256 amount) public override returns (bool) {... */\n    tag_21:\n      callvalue\n      dup1\n      iszero\n      tag_119\n      jumpi\n      0x00\n      dup1\n      revert\n    tag_119:\n      pop\n      tag_120\n      0x04\n      dup1\n      calldatasize\n      sub\n      dup2\n      add\n      swap1\n      tag_121\n      swap2\n      swap1\n      tag_45\n      jump\t// in\n    tag_121:\n      tag_122\n      jump\t// in\n    tag_120:\n      mload(0x40)\n      tag_123\n      swap2\n      swap1\n      tag_48\n      jump\t// in\n    tag_123:\n      mload(0x40)\n      dup1\n      swap2\n      sub\n      swap1\n      return\n        /* \"contracts/Pool/Pool.sol\":11049:11270  function setNewDevAddress(address payable dev) public onlyDev() {... */\n    tag_22:\n      callvalue\n      dup1\n      iszero\n      tag_124\n      jumpi\n      0x00\n      dup1\n      revert\n    tag_124:\n      pop\n      tag_125\n      0x04\n      dup1\n      calldatasize\n      sub\n      dup2\n      add\n      swap1\n      tag_126\n      swap2\n      swap1\n      tag_104\n      jump\t// in\n    tag_126:\n      tag_127\n      jump\t// in\n    tag_125:\n      stop\n        /* \"contracts/Pool/Pool.sol\":14148:14407  function manualswap() external {... */\n    tag_23:\n      callvalue\n      dup1\n      iszero\n      tag_128\n      jumpi\n      0x00\n      dup1\n      revert\n    tag_128:\n      pop\n      tag_129\n      tag_130\n      jump\t// in\n    tag_129:\n      stop\n        /* \"contracts/Pool/Pool.sol\":15336:15566  function excludeMultipleAccountsFromFees(address[] calldata accounts, bool excluded) public onlyOwner {... */\n    tag_24:\n      callvalue\n      dup1\n      iszero\n      tag_131\n      jumpi\n      0x00\n      dup1\n      revert\n    tag_131:\n      pop\n      tag_132\n      0x04\n      dup1\n      calldatasize\n      sub\n      dup2\n      add\n      swap1\n      tag_133\n      swap2\n      swap1\n      tag_134\n      jump\t// in\n    tag_133:\n      tag_135\n      jump\t// in\n    tag_132:\n      stop\n        /* \"contracts/Pool/Pool.sol\":6871:7012  function allowance(address owner, address spender) public view override returns (uint256) {... */\n    tag_25:\n      callvalue\n      dup1\n      iszero\n      tag_136\n      jumpi\n      0x00\n      dup1\n      revert\n    tag_136:\n      pop\n      tag_137\n      0x04\n      dup1\n      calldatasize\n      sub\n      dup2\n      add\n      swap1\n      tag_138\n      swap2\n      swap1\n      tag_139\n      jump\t// in\n    tag_138:\n      tag_140\n      jump\t// in\n    tag_137:\n      mload(0x40)\n      tag_141\n      swap2\n      swap1\n      tag_58\n      jump\t// in\n    tag_141:\n      mload(0x40)\n      dup1\n      swap2\n      sub\n      swap1\n      return\n        /* \"contracts/Pool/Pool.sol\":10758:10963  function rescueForeignTokens(address _tokenAddr, address _to, uint _amount) public onlyDev() {... */\n    tag_26:\n      callvalue\n      dup1\n      iszero\n      tag_142\n      jumpi\n      0x00\n      dup1\n      revert\n    tag_142:\n      pop\n      tag_143\n      0x04\n      dup1\n      calldatasize\n      sub\n      dup2\n      add\n      swap1\n      tag_144\n      swap2\n      swap1\n      tag_62\n      jump\t// in\n    tag_144:\n      tag_145\n      jump\t// in\n    tag_143:\n      stop\n        /* \"contracts/Pool/Pool.sol\":3625:3782  function transferOwnership(address newOwner) public virtual onlyOwner {... */\n    tag_27:\n      callvalue\n      dup1\n      iszero\n      tag_146\n      jumpi\n      0x00\n      dup1\n      revert\n    tag_146:\n      pop\n      tag_147\n      0x04\n      dup1\n      calldatasize\n      sub\n      dup2\n      add\n      swap1\n      tag_148\n      swap2\n      swap1\n      tag_95\n      jump\t// in\n    tag_148:\n      tag_149\n      jump\t// in\n    tag_147:\n      stop\n        /* \"contracts/Pool/Pool.sol\":9687:9869  function settingPair() public onlyOwner { ... */\n    tag_36:\n        /* \"contracts/Pool/Pool.sol\":3317:3329  _msgSender() */\n      tag_151\n        /* \"contracts/Pool/Pool.sol\":3317:3327  _msgSender */\n      tag_152\n        /* \"contracts/Pool/Pool.sol\":3317:3329  _msgSender() */\n      jump\t// in\n    tag_151:\n        /* \"contracts/Pool/Pool.sol\":3307:3329  _owner == _msgSender() */\n      0xffffffffffffffffffffffffffffffffffffffff\n      and\n        /* \"contracts/Pool/Pool.sol\":3307:3313  _owner */\n      0x00\n      dup1\n      sload\n      swap1\n      0x0100\n      exp\n      swap1\n      div\n      0xffffffffffffffffffffffffffffffffffffffff\n      and\n        /* \"contracts/Pool/Pool.sol\":3307:3329  _owner == _msgSender() */\n      0xffffffffffffffffffffffffffffffffffffffff\n      and\n      eq\n        /* \"contracts/Pool/Pool.sol\":3299:3357  require(_owner == _msgSender(), \"Caller is not the owner\") */\n      tag_153\n      jumpi\n      mload(0x40)\n      0x08c379a000000000000000000000000000000000000000000000000000000000\n      dup2\n      mstore\n      0x04\n      add\n      tag_154\n      swap1\n      tag_155\n      jump\t// in\n    tag_154:\n      mload(0x40)\n      dup1\n      swap2\n      sub\n      swap1\n      revert\n    tag_153:\n        /* \"contracts/Pool/Pool.sol\":9772:9787  uniswapV2Router */\n      0x10\n      0x00\n      swap1\n      sload\n      swap1\n      0x0100\n      exp\n      swap1\n      div\n      0xffffffffffffffffffffffffffffffffffffffff\n      and\n        /* \"contracts/Pool/Pool.sol\":9772:9795  uniswapV2Router.factory */\n      0xffffffffffffffffffffffffffffffffffffffff\n      and\n      0xc45a0155\n        /* \"contracts/Pool/Pool.sol\":9772:9797  uniswapV2Router.factory() */\n      mload(0x40)\n      dup2\n      0xffffffff\n      and\n      0xe0\n      shl\n      dup2\n      mstore\n      0x04\n      add\n      0x20\n      mload(0x40)\n      dup1\n      dup4\n      sub\n      dup2\n      dup7\n      gas\n      staticcall\n      iszero\n      dup1\n      iszero\n      tag_158\n      jumpi\n      returndatasize\n      0x00\n      dup1\n      returndatacopy\n      revert(0x00, returndatasize)\n    tag_158:\n      pop\n      pop\n      pop\n      pop\n      mload(0x40)\n      returndatasize\n      not(0x1f)\n      0x1f\n      dup3\n      add\n      and\n      dup3\n      add\n      dup1\n      0x40\n      mstore\n      pop\n      dup2\n      add\n      swap1\n      tag_159\n      swap2\n      swap1\n      tag_160\n      jump\t// in\n    tag_159:\n        /* \"contracts/Pool/Pool.sol\":9754:9822  IUniswapV2Factory(uniswapV2Router.factory())... */\n      0xffffffffffffffffffffffffffffffffffffffff\n      and\n      0xc9c65396\n        /* \"contracts/Pool/Pool.sol\":9831:9835  this */\n      address\n        /* \"contracts/Pool/Pool.sol\":9838:9853  uniswapV2Router */\n      0x10\n      0x00\n      swap1\n      sload\n      swap1\n      0x0100\n      exp\n      swap1\n      div\n      0xffffffffffffffffffffffffffffffffffffffff\n      and\n        /* \"contracts/Pool/Pool.sol\":9838:9858  uniswapV2Router.WETH */\n      0xffffffffffffffffffffffffffffffffffffffff\n      and\n      0xad5c4648\n        /* \"contracts/Pool/Pool.sol\":9838:9860  uniswapV2Router.WETH() */\n      mload(0x40)\n      dup2\n      0xffffffff\n      and\n      0xe0\n      shl\n      dup2\n      mstore\n      0x04\n      add\n      0x20\n      mload(0x40)\n      dup1\n      dup4\n      sub\n      dup2\n      dup7\n      gas\n      staticcall\n      iszero\n      dup1\n      iszero\n      tag_162\n      jumpi\n      returndatasize\n      0x00\n      dup1\n      returndatacopy\n      revert(0x00, returndatasize)\n    tag_162:\n      pop\n      pop\n      pop\n      pop\n      mload(0x40)\n      returndatasize\n      not(0x1f)\n      0x1f\n      dup3\n      add\n      and\n      dup3\n      add\n      dup1\n      0x40\n      mstore\n      pop\n      dup2\n      add\n      swap1\n      tag_163\n      swap2\n      swap1\n      tag_160\n      jump\t// in\n    tag_163:\n        /* \"contracts/Pool/Pool.sol\":9754:9862  IUniswapV2Factory(uniswapV2Router.factory())... */\n      mload(0x40)\n      dup4\n      0xffffffff\n      and\n      0xe0\n      shl\n      dup2\n      mstore\n      0x04\n      add\n      tag_164\n      swap3\n      swap2\n      swap1\n      tag_165\n      jump\t// in\n    tag_164:\n      0x20\n      mload(0x40)\n      dup1\n      dup4\n      sub\n      dup2\n      0x00\n      dup8\n      gas\n      call\n      iszero\n      dup1\n      iszero\n      tag_167\n      jumpi\n      returndatasize\n      0x00\n      dup1\n      returndatacopy\n      revert(0x00, returndatasize)\n    tag_167:\n      pop\n      pop\n      pop\n      pop\n      mload(0x40)\n      returndatasize\n      not(0x1f)\n      0x1f\n      dup3\n      add\n      and\n      dup3\n      add\n      dup1\n      0x40\n      mstore\n      pop\n      dup2\n      add\n      swap1\n      tag_168\n      swap2\n      swap1\n      tag_160\n      jump\t// in\n    tag_168:\n        /* \"contracts/Pool/Pool.sol\":9738:9751  uniswapV2Pair */\n      0x12\n      0x00\n        /* \"contracts/Pool/Pool.sol\":9738:9862  uniswapV2Pair = IUniswapV2Factory(uniswapV2Router.factory())... */\n      0x0100\n      exp\n      dup2\n      sload\n      dup2\n      0xffffffffffffffffffffffffffffffffffffffff\n      mul\n      not\n      and\n      swap1\n      dup4\n      0xffffffffffffffffffffffffffffffffffffffff\n      and\n      mul\n      or\n      swap1\n      sstore\n      pop\n        /* \"contracts/Pool/Pool.sol\":9687:9869  function settingPair() public onlyOwner { ... */\n      jump\t// out\n        /* \"contracts/Pool/Pool.sol\":6195:6276  function name() public pure returns (string memory) {... */\n    tag_39:\n        /* \"contracts/Pool/Pool.sol\":6232:6245  string memory */\n      0x60\n        /* \"contracts/Pool/Pool.sol\":6264:6269  _name */\n      mload(0x40)\n      dup1\n      0x40\n      add\n      0x40\n      mstore\n      dup1\n      0x0a\n      dup2\n      mstore\n      0x20\n      add\n      0x576f726c64205374657000000000000000000000000000000000000000000000\n      dup2\n      mstore\n      pop\n        /* \"contracts/Pool/Pool.sol\":6257:6269  return _name */\n      swap1\n      pop\n        /* \"contracts/Pool/Pool.sol\":6195:6276  function name() public pure returns (string memory) {... */\n      swap1\n      jump\t// out\n        /* \"contracts/Pool/Pool.sol\":7018:7176  function approve(address spender, uint256 amount) public override returns (bool) {... */\n    tag_46:\n        /* \"contracts/Pool/Pool.sol\":7093:7097  bool */\n      0x00\n        /* \"contracts/Pool/Pool.sol\":7109:7148  _approve(_msgSender(), spender, amount) */\n      tag_171\n        /* \"contracts/Pool/Pool.sol\":7118:7130  _msgSender() */\n      tag_172\n        /* \"contracts/Pool/Pool.sol\":7118:7128  _msgSender */\n      tag_152\n        /* \"contracts/Pool/Pool.sol\":7118:7130  _msgSender() */\n      jump\t// in\n    tag_172:\n        /* \"contracts/Pool/Pool.sol\":7132:7139  spender */\n      dup5\n        /* \"contracts/Pool/Pool.sol\":7141:7147  amount */\n      dup5\n        /* \"contracts/Pool/Pool.sol\":7109:7117  _approve */\n      tag_173\n        /* \"contracts/Pool/Pool.sol\":7109:7148  _approve(_msgSender(), spender, amount) */\n      jump\t// in\n    tag_171:\n        /* \"contracts/Pool/Pool.sol\":7165:7169  true */\n      0x01\n        /* \"contracts/Pool/Pool.sol\":7158:7169  return true */\n      swap1\n      pop\n        /* \"contracts/Pool/Pool.sol\":7018:7176  function approve(address spender, uint256 amount) public override returns (bool) {... */\n      swap3\n      swap2\n      pop\n      pop\n      jump\t// out\n        /* \"contracts/Pool/Pool.sol\":4891:4932  IUniswapV2Router02 public uniswapV2Router */\n    tag_51:\n      0x10\n      0x00\n      swap1\n      sload\n      swap1\n      0x0100\n      exp\n      swap1\n      div\n      0xffffffffffffffffffffffffffffffffffffffff\n      and\n      dup2\n      jump\t// out\n        /* \"contracts/Pool/Pool.sol\":6460:6553  function totalSupply() public pure override returns (uint256) {... */\n    tag_56:\n        /* \"contracts/Pool/Pool.sol\":6513:6520  uint256 */\n      0x00\n        /* \"contracts/Pool/Pool.sol\":4200:4213  1*10**9*10**9 */\n      0x0de0b6b3a7640000\n        /* \"contracts/Pool/Pool.sol\":6532:6546  return _tTotal */\n      swap1\n      pop\n        /* \"contracts/Pool/Pool.sol\":6460:6553  function totalSupply() public pure override returns (uint256) {... */\n      swap1\n      jump\t// out\n        /* \"contracts/Pool/Pool.sol\":7182:7491  function transferFrom(address sender, address recipient, uint256 amount) public override returns (bool) {... */\n    tag_63:\n        /* \"contracts/Pool/Pool.sol\":7280:7284  bool */\n      0x00\n        /* \"contracts/Pool/Pool.sol\":7296:7332  _transfer(sender, recipient, amount) */\n      tag_176\n        /* \"contracts/Pool/Pool.sol\":7306:7312  sender */\n      dup5\n        /* \"contracts/Pool/Pool.sol\":7314:7323  recipient */\n      dup5\n        /* \"contracts/Pool/Pool.sol\":7325:7331  amount */\n      dup5\n        /* \"contracts/Pool/Pool.sol\":7296:7305  _transfer */\n      tag_177\n        /* \"contracts/Pool/Pool.sol\":7296:7332  _transfer(sender, recipient, amount) */\n      jump\t// in\n    tag_176:\n        /* \"contracts/Pool/Pool.sol\":7342:7463  _approve(sender, _msgSender(), _allowances[sender][_msgSender()].sub(amount, \"ERC20: transfer amount exceeds allowance\")) */\n      tag_178\n        /* \"contracts/Pool/Pool.sol\":7351:7357  sender */\n      dup5\n        /* \"contracts/Pool/Pool.sol\":7359:7371  _msgSender() */\n      tag_179\n        /* \"contracts/Pool/Pool.sol\":7359:7369  _msgSender */\n      tag_152\n        /* \"contracts/Pool/Pool.sol\":7359:7371  _msgSender() */\n      jump\t// in\n    tag_179:\n        /* \"contracts/Pool/Pool.sol\":7373:7462  _allowances[sender][_msgSender()].sub(amount, \"ERC20: transfer amount exceeds allowance\") */\n      tag_180\n        /* \"contracts/Pool/Pool.sol\":7411:7417  amount */\n      dup6\n        /* \"contracts/Pool/Pool.sol\":7373:7462  _allowances[sender][_msgSender()].sub(amount, \"ERC20: transfer amount exceeds allowance\") */\n      mload(0x40)\n      dup1\n      0x60\n      add\n      0x40\n      mstore\n      dup1\n      0x28\n      dup2\n      mstore\n      0x20\n      add\n      data_974d1b4421da69cc60b481194f0dad36a5bb4e23da810da7a7fb30cdba178330\n      0x28\n      swap2\n      codecopy\n        /* \"contracts/Pool/Pool.sol\":7373:7384  _allowances */\n      0x04\n        /* \"contracts/Pool/Pool.sol\":7373:7392  _allowances[sender] */\n      0x00\n        /* \"contracts/Pool/Pool.sol\":7385:7391  sender */\n      dup12\n        /* \"contracts/Pool/Pool.sol\":7373:7392  _allowances[sender] */\n      0xffffffffffffffffffffffffffffffffffffffff\n      and\n      0xffffffffffffffffffffffffffffffffffffffff\n      and\n      dup2\n      mstore\n      0x20\n      add\n      swap1\n      dup2\n      mstore\n      0x20\n      add\n      0x00\n      keccak256\n        /* \"contracts/Pool/Pool.sol\":7373:7406  _allowances[sender][_msgSender()] */\n      0x00\n        /* \"contracts/Pool/Pool.sol\":7393:7405  _msgSender() */\n      tag_181\n        /* \"contracts/Pool/Pool.sol\":7393:7403  _msgSender */\n      tag_152\n        /* \"contracts/Pool/Pool.sol\":7393:7405  _msgSender() */\n      jump\t// in\n    tag_181:\n        /* \"contracts/Pool/Pool.sol\":7373:7406  _allowances[sender][_msgSender()] */\n      0xffffffffffffffffffffffffffffffffffffffff\n      and\n      0xffffffffffffffffffffffffffffffffffffffff\n      and\n      dup2\n      mstore\n      0x20\n      add\n      swap1\n      dup2\n      mstore\n      0x20\n      add\n      0x00\n      keccak256\n      sload\n        /* \"contracts/Pool/Pool.sol\":7373:7410  _allowances[sender][_msgSender()].sub */\n      tag_182\n      swap1\n        /* \"contracts/Pool/Pool.sol\":7373:7462  _allowances[sender][_msgSender()].sub(amount, \"ERC20: transfer amount exceeds allowance\") */\n      swap3\n      swap2\n      swap1\n      0xffffffff\n      and\n      jump\t// in\n    tag_180:\n        /* \"contracts/Pool/Pool.sol\":7342:7350  _approve */\n      tag_173\n        /* \"contracts/Pool/Pool.sol\":7342:7463  _approve(sender, _msgSender(), _allowances[sender][_msgSender()].sub(amount, \"ERC20: transfer amount exceeds allowance\")) */\n      jump\t// in\n    tag_178:\n        /* \"contracts/Pool/Pool.sol\":7480:7484  true */\n      0x01\n        /* \"contracts/Pool/Pool.sol\":7473:7484  return true */\n      swap1\n      pop\n        /* \"contracts/Pool/Pool.sol\":7182:7491  function transferFrom(address sender, address recipient, uint256 amount) public override returns (bool) {... */\n      swap4\n      swap3\n      pop\n      pop\n      pop\n      jump\t// out\n        /* \"contracts/Pool/Pool.sol\":9579:9681  function testFactory() public view returns(address) { ... */\n    tag_67:\n        /* \"contracts/Pool/Pool.sol\":9622:9629  address */\n      0x00\n        /* \"contracts/Pool/Pool.sol\":9649:9664  uniswapV2Router */\n      0x10\n      0x00\n      swap1\n      sload\n      swap1\n      0x0100\n      exp\n      swap1\n      div\n      0xffffffffffffffffffffffffffffffffffffffff\n      and\n        /* \"contracts/Pool/Pool.sol\":9649:9672  uniswapV2Router.factory */\n      0xffffffffffffffffffffffffffffffffffffffff\n      and\n      0xc45a0155\n        /* \"contracts/Pool/Pool.sol\":9649:9674  uniswapV2Router.factory() */\n      mload(0x40)\n      dup2\n      0xffffffff\n      and\n      0xe0\n      shl\n      dup2\n      mstore\n      0x04\n      add\n      0x20\n      mload(0x40)\n      dup1\n      dup4\n      sub\n      dup2\n      dup7\n      gas\n      staticcall\n      iszero\n      dup1\n      iszero\n      tag_185\n      jumpi\n      returndatasize\n      0x00\n      dup1\n      returndatacopy\n      revert(0x00, returndatasize)\n    tag_185:\n      pop\n      pop\n      pop\n      pop\n      mload(0x40)\n      returndatasize\n      not(0x1f)\n      0x1f\n      dup3\n      add\n      and\n      dup3\n      add\n      dup1\n      0x40\n      mstore\n      pop\n      dup2\n      add\n      swap1\n      tag_186\n      swap2\n      swap1\n      tag_160\n      jump\t// in\n    tag_186:\n        /* \"contracts/Pool/Pool.sol\":9642:9674  return uniswapV2Router.factory() */\n      swap1\n      pop\n        /* \"contracts/Pool/Pool.sol\":9579:9681  function testFactory() public view returns(address) { ... */\n      swap1\n      jump\t// out\n        /* \"contracts/Pool/Pool.sol\":6373:6454  function decimals() public pure returns (uint8) {... */\n    tag_72:\n        /* \"contracts/Pool/Pool.sol\":6414:6419  uint8 */\n      0x00\n        /* \"contracts/Pool/Pool.sol\":4674:4675  9 */\n      0x09\n        /* \"contracts/Pool/Pool.sol\":6431:6447  return _decimals */\n      swap1\n      pop\n        /* \"contracts/Pool/Pool.sol\":6373:6454  function decimals() public pure returns (uint8) {... */\n      swap1\n      jump\t// out\n        /* \"contracts/Pool/Pool.sol\":4986:5014  address public uniswapV2Pair */\n    tag_77:\n      0x12\n      0x00\n      swap1\n      sload\n      swap1\n      0x0100\n      exp\n      swap1\n      div\n      0xffffffffffffffffffffffffffffffffffffffff\n      and\n      dup2\n      jump\t// out\n        /* \"contracts/Pool/Pool.sol\":4938:4979  IUniswapV2Factory public uniswapV2Factory */\n    tag_81:\n      0x11\n      0x00\n      swap1\n      sload\n      swap1\n      0x0100\n      exp\n      swap1\n      div\n      0xffffffffffffffffffffffffffffffffffffffff\n      and\n      dup2\n      jump\t// out\n        /* \"contracts/Pool/Pool.sol\":15233:15330  function toggleSwap(bool _swapEnabled) public onlyDev {... */\n    tag_88:\n        /* \"contracts/Pool/Pool.sol\":6092:6104  _msgSender() */\n      tag_189\n        /* \"contracts/Pool/Pool.sol\":6092:6102  _msgSender */\n      tag_152\n        /* \"contracts/Pool/Pool.sol\":6092:6104  _msgSender() */\n      jump\t// in\n    tag_189:\n        /* \"contracts/Pool/Pool.sol\":6081:6104  owner() == _msgSender() */\n      0xffffffffffffffffffffffffffffffffffffffff\n      and\n        /* \"contracts/Pool/Pool.sol\":6081:6088  owner() */\n      tag_190\n        /* \"contracts/Pool/Pool.sol\":6081:6086  owner */\n      tag_108\n        /* \"contracts/Pool/Pool.sol\":6081:6088  owner() */\n      jump\t// in\n    tag_190:\n        /* \"contracts/Pool/Pool.sol\":6081:6104  owner() == _msgSender() */\n      0xffffffffffffffffffffffffffffffffffffffff\n      and\n      eq\n        /* \"contracts/Pool/Pool.sol\":6081:6143  owner() == _msgSender() || _developmentAddress == _msgSender() */\n      dup1\n      tag_191\n      jumpi\n      pop\n        /* \"contracts/Pool/Pool.sol\":6131:6143  _msgSender() */\n      tag_192\n        /* \"contracts/Pool/Pool.sol\":6131:6141  _msgSender */\n      tag_152\n        /* \"contracts/Pool/Pool.sol\":6131:6143  _msgSender() */\n      jump\t// in\n    tag_192:\n        /* \"contracts/Pool/Pool.sol\":6108:6143  _developmentAddress == _msgSender() */\n      0xffffffffffffffffffffffffffffffffffffffff\n      and\n        /* \"contracts/Pool/Pool.sol\":6108:6127  _developmentAddress */\n      0x0e\n      0x00\n      swap1\n      sload\n      swap1\n      0x0100\n      exp\n      swap1\n      div\n      0xffffffffffffffffffffffffffffffffffffffff\n      and\n        /* \"contracts/Pool/Pool.sol\":6108:6143  _developmentAddress == _msgSender() */\n      0xffffffffffffffffffffffffffffffffffffffff\n      and\n      eq\n        /* \"contracts/Pool/Pool.sol\":6081:6143  owner() == _msgSender() || _developmentAddress == _msgSender() */\n    tag_191:\n        /* \"contracts/Pool/Pool.sol\":6073:6169  require(owner() == _msgSender() || _developmentAddress == _msgSender(), \"Caller is not the dev\") */\n      tag_193\n      jumpi\n      mload(0x40)\n      0x08c379a000000000000000000000000000000000000000000000000000000000\n      dup2\n      mstore\n      0x04\n      add\n      tag_194\n      swap1\n      tag_195\n      jump\t// in\n    tag_194:\n      mload(0x40)\n      dup1\n      swap2\n      sub\n      swap1\n      revert\n    tag_193:\n        /* \"contracts/Pool/Pool.sol\":15311:15323  _swapEnabled */\n      dup1\n        /* \"contracts/Pool/Pool.sol\":15297:15308  swapEnabled */\n      0x12\n      0x15\n        /* \"contracts/Pool/Pool.sol\":15297:15323  swapEnabled = _swapEnabled */\n      0x0100\n      exp\n      dup2\n      sload\n      dup2\n      0xff\n      mul\n      not\n      and\n      swap1\n      dup4\n      iszero\n      iszero\n      mul\n      or\n      swap1\n      sstore\n      pop\n        /* \"contracts/Pool/Pool.sol\":15233:15330  function toggleSwap(bool _swapEnabled) public onlyDev {... */\n      pop\n      jump\t// out\n        /* \"contracts/Pool/Pool.sol\":14413:14671  function manualsend() external {... */\n    tag_91:\n        /* \"contracts/Pool/Pool.sol\":14478:14497  _developmentAddress */\n      0x0e\n      0x00\n      swap1\n      sload\n      swap1\n      0x0100\n      exp\n      swap1\n      div\n      0xffffffffffffffffffffffffffffffffffffffff\n      and\n        /* \"contracts/Pool/Pool.sol\":14462:14497  _msgSender() == _developmentAddress */\n      0xffffffffffffffffffffffffffffffffffffffff\n      and\n        /* \"contracts/Pool/Pool.sol\":14462:14474  _msgSender() */\n      tag_198\n        /* \"contracts/Pool/Pool.sol\":14462:14472  _msgSender */\n      tag_152\n        /* \"contracts/Pool/Pool.sol\":14462:14474  _msgSender() */\n      jump\t// in\n    tag_198:\n        /* \"contracts/Pool/Pool.sol\":14462:14497  _msgSender() == _developmentAddress */\n      0xffffffffffffffffffffffffffffffffffffffff\n      and\n      eq\n        /* \"contracts/Pool/Pool.sol\":14462:14534  _msgSender() == _developmentAddress || _msgSender() == _marketingAddress */\n      dup1\n      tag_199\n      jumpi\n      pop\n        /* \"contracts/Pool/Pool.sol\":14517:14534  _marketingAddress */\n      0x0f\n      0x00\n      swap1\n      sload\n      swap1\n      0x0100\n      exp\n      swap1\n      div\n      0xffffffffffffffffffffffffffffffffffffffff\n      and\n        /* \"contracts/Pool/Pool.sol\":14501:14534  _msgSender() == _marketingAddress */\n      0xffffffffffffffffffffffffffffffffffffffff\n      and\n        /* \"contracts/Pool/Pool.sol\":14501:14513  _msgSender() */\n      tag_200\n        /* \"contracts/Pool/Pool.sol\":14501:14511  _msgSender */\n      tag_152\n        /* \"contracts/Pool/Pool.sol\":14501:14513  _msgSender() */\n      jump\t// in\n    tag_200:\n        /* \"contracts/Pool/Pool.sol\":14501:14534  _msgSender() == _marketingAddress */\n      0xffffffffffffffffffffffffffffffffffffffff\n      and\n      eq\n        /* \"contracts/Pool/Pool.sol\":14462:14534  _msgSender() == _developmentAddress || _msgSender() == _marketingAddress */\n    tag_199:\n        /* \"contracts/Pool/Pool.sol\":14462:14561  _msgSender() == _developmentAddress || _msgSender() == _marketingAddress || _msgSender() == owner() */\n      dup1\n      tag_201\n      jumpi\n      pop\n        /* \"contracts/Pool/Pool.sol\":14554:14561  owner() */\n      tag_202\n        /* \"contracts/Pool/Pool.sol\":14554:14559  owner */\n      tag_108\n        /* \"contracts/Pool/Pool.sol\":14554:14561  owner() */\n      jump\t// in\n    tag_202:\n        /* \"contracts/Pool/Pool.sol\":14538:14561  _msgSender() == owner() */\n      0xffffffffffffffffffffffffffffffffffffffff\n      and\n        /* \"contracts/Pool/Pool.sol\":14538:14550  _msgSender() */\n      tag_203\n        /* \"contracts/Pool/Pool.sol\":14538:14548  _msgSender */\n      tag_152\n        /* \"contracts/Pool/Pool.sol\":14538:14550  _msgSender() */\n      jump\t// in\n    tag_203:\n        /* \"contracts/Pool/Pool.sol\":14538:14561  _msgSender() == owner() */\n      0xffffffffffffffffffffffffffffffffffffffff\n      and\n      eq\n        /* \"contracts/Pool/Pool.sol\":14462:14561  _msgSender() == _developmentAddress || _msgSender() == _marketingAddress || _msgSender() == owner() */\n    tag_201:\n        /* \"contracts/Pool/Pool.sol\":14454:14562  require(_msgSender() == _developmentAddress || _msgSender() == _marketingAddress || _msgSender() == owner()) */\n      tag_204\n      jumpi\n      0x00\n      dup1\n      revert\n    tag_204:\n        /* \"contracts/Pool/Pool.sol\":14572:14598  uint256 contractETHBalance */\n      0x00\n        /* \"contracts/Pool/Pool.sol\":14601:14622  address(this).balance */\n      selfbalance\n        /* \"contracts/Pool/Pool.sol\":14572:14622  uint256 contractETHBalance = address(this).balance */\n      swap1\n      pop\n        /* \"contracts/Pool/Pool.sol\":14632:14664  sendETHToFee(contractETHBalance) */\n      tag_205\n        /* \"contracts/Pool/Pool.sol\":14645:14663  contractETHBalance */\n      dup2\n        /* \"contracts/Pool/Pool.sol\":14632:14644  sendETHToFee */\n      tag_206\n        /* \"contracts/Pool/Pool.sol\":14632:14664  sendETHToFee(contractETHBalance) */\n      jump\t// in\n    tag_205:\n        /* \"contracts/Pool/Pool.sol\":14444:14671  {... */\n      pop\n        /* \"contracts/Pool/Pool.sol\":14413:14671  function manualsend() external {... */\n      jump\t// out\n        /* \"contracts/Pool/Pool.sol\":6559:6695  function balanceOf(address account) public view override returns (uint256) {... */\n    tag_96:\n        /* \"contracts/Pool/Pool.sol\":6625:6632  uint256 */\n      0x00\n        /* \"contracts/Pool/Pool.sol\":6651:6688  tokenFromReflection(_rOwned[account]) */\n      tag_208\n        /* \"contracts/Pool/Pool.sol\":6671:6678  _rOwned */\n      0x02\n        /* \"contracts/Pool/Pool.sol\":6671:6687  _rOwned[account] */\n      0x00\n        /* \"contracts/Pool/Pool.sol\":6679:6686  account */\n      dup5\n        /* \"contracts/Pool/Pool.sol\":6671:6687  _rOwned[account] */\n      0xffffffffffffffffffffffffffffffffffffffff\n      and\n      0xffffffffffffffffffffffffffffffffffffffff\n      and\n      dup2\n      mstore\n      0x20\n      add\n      swap1\n      dup2\n      mstore\n      0x20\n      add\n      0x00\n      keccak256\n      sload\n        /* \"contracts/Pool/Pool.sol\":6651:6670  tokenFromReflection */\n      tag_209\n        /* \"contracts/Pool/Pool.sol\":6651:6688  tokenFromReflection(_rOwned[account]) */\n      jump\t// in\n    tag_208:\n        /* \"contracts/Pool/Pool.sol\":6644:6688  return tokenFromReflection(_rOwned[account]) */\n      swap1\n      pop\n        /* \"contracts/Pool/Pool.sol\":6559:6695  function balanceOf(address account) public view override returns (uint256) {... */\n      swap2\n      swap1\n      pop\n      jump\t// out\n        /* \"contracts/Pool/Pool.sol\":3381:3526  function renounceOwnership() public virtual onlyOwner {... */\n    tag_100:\n        /* \"contracts/Pool/Pool.sol\":3317:3329  _msgSender() */\n      tag_211\n        /* \"contracts/Pool/Pool.sol\":3317:3327  _msgSender */\n      tag_152\n        /* \"contracts/Pool/Pool.sol\":3317:3329  _msgSender() */\n      jump\t// in\n    tag_211:\n        /* \"contracts/Pool/Pool.sol\":3307:3329  _owner == _msgSender() */\n      0xffffffffffffffffffffffffffffffffffffffff\n      and\n        /* \"contracts/Pool/Pool.sol\":3307:3313  _owner */\n      0x00\n      dup1\n      sload\n      swap1\n      0x0100\n      exp\n      swap1\n      div\n      0xffffffffffffffffffffffffffffffffffffffff\n      and\n        /* \"contracts/Pool/Pool.sol\":3307:3329  _owner == _msgSender() */\n      0xffffffffffffffffffffffffffffffffffffffff\n      and\n      eq\n        /* \"contracts/Pool/Pool.sol\":3299:3357  require(_owner == _msgSender(), \"Caller is not the owner\") */\n      tag_212\n      jumpi\n      mload(0x40)\n      0x08c379a000000000000000000000000000000000000000000000000000000000\n      dup2\n      mstore\n      0x04\n      add\n      tag_213\n      swap1\n      tag_155\n      jump\t// in\n    tag_213:\n      mload(0x40)\n      dup1\n      swap2\n      sub\n      swap1\n      revert\n    tag_212:\n        /* \"contracts/Pool/Pool.sol\":3487:3488  0 */\n      0x00\n        /* \"contracts/Pool/Pool.sol\":3450:3490  OwnershipTransferred(_owner, address(0)) */\n      0xffffffffffffffffffffffffffffffffffffffff\n      and\n        /* \"contracts/Pool/Pool.sol\":3471:3477  _owner */\n      0x00\n      dup1\n      sload\n      swap1\n      0x0100\n      exp\n      swap1\n      div\n      0xffffffffffffffffffffffffffffffffffffffff\n      and\n        /* \"contracts/Pool/Pool.sol\":3450:3490  OwnershipTransferred(_owner, address(0)) */\n      0xffffffffffffffffffffffffffffffffffffffff\n      and\n      0x8be0079c531659141344cd1fd0a4f28419497f9722a3daafe3b4186f6b6457e0\n      mload(0x40)\n      mload(0x40)\n      dup1\n      swap2\n      sub\n      swap1\n      log3\n        /* \"contracts/Pool/Pool.sol\":3517:3518  0 */\n      0x00\n        /* \"contracts/Pool/Pool.sol\":3500:3506  _owner */\n      dup1\n      0x00\n        /* \"contracts/Pool/Pool.sol\":3500:3519  _owner = address(0) */\n      0x0100\n      exp\n      dup2\n      sload\n      dup2\n      0xffffffffffffffffffffffffffffffffffffffff\n      mul\n      not\n      and\n      swap1\n      dup4\n      0xffffffffffffffffffffffffffffffffffffffff\n      and\n      mul\n      or\n      swap1\n      sstore\n      pop\n        /* \"contracts/Pool/Pool.sol\":3381:3526  function renounceOwnership() public virtual onlyOwner {... */\n      jump\t// out\n        /* \"contracts/Pool/Pool.sol\":11362:11595  function setNewMarketingAddress(address payable markt) public onlyDev() {... */\n    tag_105:\n        /* \"contracts/Pool/Pool.sol\":6092:6104  _msgSender() */\n      tag_216\n        /* \"contracts/Pool/Pool.sol\":6092:6102  _msgSender */\n      tag_152\n        /* \"contracts/Pool/Pool.sol\":6092:6104  _msgSender() */\n      jump\t// in\n    tag_216:\n        /* \"contracts/Pool/Pool.sol\":6081:6104  owner() == _msgSender() */\n      0xffffffffffffffffffffffffffffffffffffffff\n      and\n        /* \"contracts/Pool/Pool.sol\":6081:6088  owner() */\n      tag_217\n        /* \"contracts/Pool/Pool.sol\":6081:6086  owner */\n      tag_108\n        /* \"contracts/Pool/Pool.sol\":6081:6088  owner() */\n      jump\t// in\n    tag_217:\n        /* \"contracts/Pool/Pool.sol\":6081:6104  owner() == _msgSender() */\n      0xffffffffffffffffffffffffffffffffffffffff\n      and\n      eq\n        /* \"contracts/Pool/Pool.sol\":6081:6143  owner() == _msgSender() || _developmentAddress == _msgSender() */\n      dup1\n      tag_218\n      jumpi\n      pop\n        /* \"contracts/Pool/Pool.sol\":6131:6143  _msgSender() */\n      tag_219\n        /* \"contracts/Pool/Pool.sol\":6131:6141  _msgSender */\n      tag_152\n        /* \"contracts/Pool/Pool.sol\":6131:6143  _msgSender() */\n      jump\t// in\n    tag_219:\n        /* \"contracts/Pool/Pool.sol\":6108:6143  _developmentAddress == _msgSender() */\n      0xffffffffffffffffffffffffffffffffffffffff\n      and\n        /* \"contracts/Pool/Pool.sol\":6108:6127  _developmentAddress */\n      0x0e\n      0x00\n      swap1\n      sload\n      swap1\n      0x0100\n      exp\n      swap1\n      div\n      0xffffffffffffffffffffffffffffffffffffffff\n      and\n        /* \"contracts/Pool/Pool.sol\":6108:6143  _developmentAddress == _msgSender() */\n      0xffffffffffffffffffffffffffffffffffffffff\n      and\n      eq\n        /* \"contracts/Pool/Pool.sol\":6081:6143  owner() == _msgSender() || _developmentAddress == _msgSender() */\n    tag_218:\n        /* \"contracts/Pool/Pool.sol\":6073:6169  require(owner() == _msgSender() || _developmentAddress == _msgSender(), \"Caller is not the dev\") */\n      tag_220\n      jumpi\n      mload(0x40)\n      0x08c379a000000000000000000000000000000000000000000000000000000000\n      dup2\n      mstore\n      0x04\n      add\n      tag_221\n      swap1\n      tag_195\n      jump\t// in\n    tag_221:\n      mload(0x40)\n      dup1\n      swap2\n      sub\n      swap1\n      revert\n    tag_220:\n        /* \"contracts/Pool/Pool.sol\":11492:11497  markt */\n      dup1\n        /* \"contracts/Pool/Pool.sol\":11449:11498  marketingAddressUpdated(_marketingAddress, markt) */\n      0xffffffffffffffffffffffffffffffffffffffff\n      and\n        /* \"contracts/Pool/Pool.sol\":11473:11490  _marketingAddress */\n      0x0f\n      0x00\n      swap1\n      sload\n      swap1\n      0x0100\n      exp\n      swap1\n      div\n      0xffffffffffffffffffffffffffffffffffffffff\n      and\n        /* \"contracts/Pool/Pool.sol\":11449:11498  marketingAddressUpdated(_marketingAddress, markt) */\n      0xffffffffffffffffffffffffffffffffffffffff\n      and\n      0xa64373a629bc0c09eacf8a9cc2c7b070fa0a8b7e2e9b8aaee408a3c02eb1676b\n      mload(0x40)\n      mload(0x40)\n      dup1\n      swap2\n      sub\n      swap1\n      log3\n        /* \"contracts/Pool/Pool.sol\":11529:11534  markt */\n      dup1\n        /* \"contracts/Pool/Pool.sol\":11509:11526  _marketingAddress */\n      0x0f\n      0x00\n        /* \"contracts/Pool/Pool.sol\":11509:11534  _marketingAddress = markt */\n      0x0100\n      exp\n      dup2\n      sload\n      dup2\n      0xffffffffffffffffffffffffffffffffffffffff\n      mul\n      not\n      and\n      swap1\n      dup4\n      0xffffffffffffffffffffffffffffffffffffffff\n      and\n      mul\n      or\n      swap1\n      sstore\n      pop\n        /* \"contracts/Pool/Pool.sol\":11584:11588  true */\n      0x01\n        /* \"contracts/Pool/Pool.sol\":11544:11562  _isExcludedFromFee */\n      0x05\n        /* \"contracts/Pool/Pool.sol\":11544:11581  _isExcludedFromFee[_marketingAddress] */\n      0x00\n        /* \"contracts/Pool/Pool.sol\":11563:11580  _marketingAddress */\n      0x0f\n      0x00\n      swap1\n      sload\n      swap1\n      0x0100\n      exp\n      swap1\n      div\n      0xffffffffffffffffffffffffffffffffffffffff\n      and\n        /* \"contracts/Pool/Pool.sol\":11544:11581  _isExcludedFromFee[_marketingAddress] */\n      0xffffffffffffffffffffffffffffffffffffffff\n      and\n      0xffffffffffffffffffffffffffffffffffffffff\n      and\n      dup2\n      mstore\n      0x20\n      add\n      swap1\n      dup2\n      mstore\n      0x20\n      add\n      0x00\n      keccak256\n      0x00\n        /* \"contracts/Pool/Pool.sol\":11544:11588  _isExcludedFromFee[_marketingAddress] = true */\n      0x0100\n      exp\n      dup2\n      sload\n      dup2\n      0xff\n      mul\n      not\n      and\n      swap1\n      dup4\n      iszero\n      iszero\n      mul\n      or\n      swap1\n      sstore\n      pop\n        /* \"contracts/Pool/Pool.sol\":11362:11595  function setNewMarketingAddress(address payable markt) public onlyDev() {... */\n      pop\n      jump\t// out\n        /* \"contracts/Pool/Pool.sol\":3185:3262  function owner() public view returns (address) {... */\n    tag_108:\n        /* \"contracts/Pool/Pool.sol\":3223:3230  address */\n      0x00\n        /* \"contracts/Pool/Pool.sol\":3249:3255  _owner */\n      dup1\n      0x00\n      swap1\n      sload\n      swap1\n      0x0100\n      exp\n      swap1\n      div\n      0xffffffffffffffffffffffffffffffffffffffff\n      and\n        /* \"contracts/Pool/Pool.sol\":3242:3255  return _owner */\n      swap1\n      pop\n        /* \"contracts/Pool/Pool.sol\":3185:3262  function owner() public view returns (address) {... */\n      swap1\n      jump\t// out\n        /* \"contracts/Pool/Pool.sol\":6282:6367  function symbol() public pure returns (string memory) {... */\n    tag_112:\n        /* \"contracts/Pool/Pool.sol\":6321:6334  string memory */\n      0x60\n        /* \"contracts/Pool/Pool.sol\":6353:6360  _symbol */\n      mload(0x40)\n      dup1\n      0x40\n      add\n      0x40\n      mstore\n      dup1\n      0x03\n      dup2\n      mstore\n      0x20\n      add\n      0x5753500000000000000000000000000000000000000000000000000000000000\n      dup2\n      mstore\n      pop\n        /* \"contracts/Pool/Pool.sol\":6346:6360  return _symbol */\n      swap1\n      pop\n        /* \"contracts/Pool/Pool.sol\":6282:6367  function symbol() public pure returns (string memory) {... */\n      swap1\n      jump\t// out\n        /* \"contracts/Pool/Pool.sol\":14681:15223  function setFee(uint256 redisFeeOnBuy, uint256 redisFeeOnSell, uint256 taxFeeOnBuy, uint256 taxFeeOnSell) public onlyDev {... */\n    tag_118:\n        /* \"contracts/Pool/Pool.sol\":6092:6104  _msgSender() */\n      tag_226\n        /* \"contracts/Pool/Pool.sol\":6092:6102  _msgSender */\n      tag_152\n        /* \"contracts/Pool/Pool.sol\":6092:6104  _msgSender() */\n      jump\t// in\n    tag_226:\n        /* \"contracts/Pool/Pool.sol\":6081:6104  owner() == _msgSender() */\n      0xffffffffffffffffffffffffffffffffffffffff\n      and\n        /* \"contracts/Pool/Pool.sol\":6081:6088  owner() */\n      tag_227\n        /* \"contracts/Pool/Pool.sol\":6081:6086  owner */\n      tag_108\n        /* \"contracts/Pool/Pool.sol\":6081:6088  owner() */\n      jump\t// in\n    tag_227:\n        /* \"contracts/Pool/Pool.sol\":6081:6104  owner() == _msgSender() */\n      0xffffffffffffffffffffffffffffffffffffffff\n      and\n      eq\n        /* \"contracts/Pool/Pool.sol\":6081:6143  owner() == _msgSender() || _developmentAddress == _msgSender() */\n      dup1\n      tag_228\n      jumpi\n      pop\n        /* \"contracts/Pool/Pool.sol\":6131:6143  _msgSender() */\n      tag_229\n        /* \"contracts/Pool/Pool.sol\":6131:6141  _msgSender */\n      tag_152\n        /* \"contracts/Pool/Pool.sol\":6131:6143  _msgSender() */\n      jump\t// in\n    tag_229:\n        /* \"contracts/Pool/Pool.sol\":6108:6143  _developmentAddress == _msgSender() */\n      0xffffffffffffffffffffffffffffffffffffffff\n      and\n        /* \"contracts/Pool/Pool.sol\":6108:6127  _developmentAddress */\n      0x0e\n      0x00\n      swap1\n      sload\n      swap1\n      0x0100\n      exp\n      swap1\n      div\n      0xffffffffffffffffffffffffffffffffffffffff\n      and\n        /* \"contracts/Pool/Pool.sol\":6108:6143  _developmentAddress == _msgSender() */\n      0xffffffffffffffffffffffffffffffffffffffff\n      and\n      eq\n        /* \"contracts/Pool/Pool.sol\":6081:6143  owner() == _msgSender() || _developmentAddress == _msgSender() */\n    tag_228:\n        /* \"contracts/Pool/Pool.sol\":6073:6169  require(owner() == _msgSender() || _developmentAddress == _msgSender(), \"Caller is not the dev\") */\n      tag_230\n      jumpi\n      mload(0x40)\n      0x08c379a000000000000000000000000000000000000000000000000000000000\n      dup2\n      mstore\n      0x04\n      add\n      tag_231\n      swap1\n      tag_195\n      jump\t// in\n    tag_231:\n      mload(0x40)\n      dup1\n      swap2\n      sub\n      swap1\n      revert\n    tag_230:\n        /* \"contracts/Pool/Pool.sol\":14833:14835  11 */\n      0x0b\n        /* \"contracts/Pool/Pool.sol\":14817:14830  redisFeeOnBuy */\n      dup5\n        /* \"contracts/Pool/Pool.sol\":14817:14835  redisFeeOnBuy < 11 */\n      lt\n        /* \"contracts/Pool/Pool.sol\":14809:14869  require(redisFeeOnBuy < 11, \"Redis cannot be more than 10.\") */\n      tag_233\n      jumpi\n      mload(0x40)\n      0x08c379a000000000000000000000000000000000000000000000000000000000\n      dup2\n      mstore\n      0x04\n      add\n      tag_234\n      swap1\n      tag_235\n      jump\t// in\n    tag_234:\n      mload(0x40)\n      dup1\n      swap2\n      sub\n      swap1\n      revert\n    tag_233:\n        /* \"contracts/Pool/Pool.sol\":14901:14903  11 */\n      0x0b\n        /* \"contracts/Pool/Pool.sol\":14884:14898  redisFeeOnSell */\n      dup4\n        /* \"contracts/Pool/Pool.sol\":14884:14903  redisFeeOnSell < 11 */\n      lt\n        /* \"contracts/Pool/Pool.sol\":14876:14937  require(redisFeeOnSell < 11, \"Redis cannot be more than 10.\") */\n      tag_236\n      jumpi\n      mload(0x40)\n      0x08c379a000000000000000000000000000000000000000000000000000000000\n      dup2\n      mstore\n      0x04\n      add\n      tag_237\n      swap1\n      tag_235\n      jump\t// in\n    tag_237:\n      mload(0x40)\n      dup1\n      swap2\n      sub\n      swap1\n      revert\n    tag_236:\n        /* \"contracts/Pool/Pool.sol\":14966:14967  7 */\n      0x07\n        /* \"contracts/Pool/Pool.sol\":14952:14963  taxFeeOnBuy */\n      dup3\n        /* \"contracts/Pool/Pool.sol\":14952:14967  taxFeeOnBuy < 7 */\n      lt\n        /* \"contracts/Pool/Pool.sol\":14944:14998  require(taxFeeOnBuy < 7, \"Tax cannot be more than 6.\") */\n      tag_238\n      jumpi\n      mload(0x40)\n      0x08c379a000000000000000000000000000000000000000000000000000000000\n      dup2\n      mstore\n      0x04\n      add\n      tag_239\n      swap1\n      tag_240\n      jump\t// in\n    tag_239:\n      mload(0x40)\n      dup1\n      swap2\n      sub\n      swap1\n      revert\n    tag_238:\n        /* \"contracts/Pool/Pool.sol\":15028:15029  7 */\n      0x07\n        /* \"contracts/Pool/Pool.sol\":15013:15025  taxFeeOnSell */\n      dup2\n        /* \"contracts/Pool/Pool.sol\":15013:15029  taxFeeOnSell < 7 */\n      lt\n        /* \"contracts/Pool/Pool.sol\":15005:15060  require(taxFeeOnSell < 7, \"Tax cannot be more than 6.\") */\n      tag_241\n      jumpi\n      mload(0x40)\n      0x08c379a000000000000000000000000000000000000000000000000000000000\n      dup2\n      mstore\n      0x04\n      add\n      tag_242\n      swap1\n      tag_240\n      jump\t// in\n    tag_242:\n      mload(0x40)\n      dup1\n      swap2\n      sub\n      swap1\n      revert\n    tag_241:\n        /* \"contracts/Pool/Pool.sol\":15087:15100  redisFeeOnBuy */\n      dup4\n        /* \"contracts/Pool/Pool.sol\":15070:15084  _redisFeeOnBuy */\n      0x08\n        /* \"contracts/Pool/Pool.sol\":15070:15100  _redisFeeOnBuy = redisFeeOnBuy */\n      dup2\n      swap1\n      sstore\n      pop\n        /* \"contracts/Pool/Pool.sol\":15128:15142  redisFeeOnSell */\n      dup3\n        /* \"contracts/Pool/Pool.sol\":15110:15125  _redisFeeOnSell */\n      0x0a\n        /* \"contracts/Pool/Pool.sol\":15110:15142  _redisFeeOnSell = redisFeeOnSell */\n      dup2\n      swap1\n      sstore\n      pop\n        /* \"contracts/Pool/Pool.sol\":15167:15178  taxFeeOnBuy */\n      dup2\n        /* \"contracts/Pool/Pool.sol\":15152:15164  _taxFeeOnBuy */\n      0x09\n        /* \"contracts/Pool/Pool.sol\":15152:15178  _taxFeeOnBuy = taxFeeOnBuy */\n      dup2\n      swap1\n      sstore\n      pop\n        /* \"contracts/Pool/Pool.sol\":15204:15216  taxFeeOnSell */\n      dup1\n        /* \"contracts/Pool/Pool.sol\":15188:15201  _taxFeeOnSell */\n      0x0b\n        /* \"contracts/Pool/Pool.sol\":15188:15216  _taxFeeOnSell = taxFeeOnSell */\n      dup2\n      swap1\n      sstore\n      pop\n        /* \"contracts/Pool/Pool.sol\":14681:15223  function setFee(uint256 redisFeeOnBuy, uint256 redisFeeOnSell, uint256 taxFeeOnBuy, uint256 taxFeeOnSell) public onlyDev {... */\n      pop\n      pop\n      pop\n      pop\n      jump\t// out\n        /* \"contracts/Pool/Pool.sol\":6701:6865  function transfer(address recipient, uint256 amount) public override returns (bool) {... */\n    tag_122:\n        /* \"contracts/Pool/Pool.sol\":6779:6783  bool */\n      0x00\n        /* \"contracts/Pool/Pool.sol\":6795:6837  _transfer(_msgSender(), recipient, amount) */\n      tag_244\n        /* \"contracts/Pool/Pool.sol\":6805:6817  _msgSender() */\n      tag_245\n        /* \"contracts/Pool/Pool.sol\":6805:6815  _msgSender */\n      tag_152\n        /* \"contracts/Pool/Pool.sol\":6805:6817  _msgSender() */\n      jump\t// in\n    tag_245:\n        /* \"contracts/Pool/Pool.sol\":6819:6828  recipient */\n      dup5\n        /* \"contracts/Pool/Pool.sol\":6830:6836  amount */\n      dup5\n        /* \"contracts/Pool/Pool.sol\":6795:6804  _transfer */\n      tag_177\n        /* \"contracts/Pool/Pool.sol\":6795:6837  _transfer(_msgSender(), recipient, amount) */\n      jump\t// in\n    tag_244:\n        /* \"contracts/Pool/Pool.sol\":6854:6858  true */\n      0x01\n        /* \"contracts/Pool/Pool.sol\":6847:6858  return true */\n      swap1\n      pop\n        /* \"contracts/Pool/Pool.sol\":6701:6865  function transfer(address recipient, uint256 amount) public override returns (bool) {... */\n      swap3\n      swap2\n      pop\n      pop\n      jump\t// out\n        /* \"contracts/Pool/Pool.sol\":11049:11270  function setNewDevAddress(address payable dev) public onlyDev() {... */\n    tag_127:\n        /* \"contracts/Pool/Pool.sol\":6092:6104  _msgSender() */\n      tag_247\n        /* \"contracts/Pool/Pool.sol\":6092:6102  _msgSender */\n      tag_152\n        /* \"contracts/Pool/Pool.sol\":6092:6104  _msgSender() */\n      jump\t// in\n    tag_247:\n        /* \"contracts/Pool/Pool.sol\":6081:6104  owner() == _msgSender() */\n      0xffffffffffffffffffffffffffffffffffffffff\n      and\n        /* \"contracts/Pool/Pool.sol\":6081:6088  owner() */\n      tag_248\n        /* \"contracts/Pool/Pool.sol\":6081:6086  owner */\n      tag_108\n        /* \"contracts/Pool/Pool.sol\":6081:6088  owner() */\n      jump\t// in\n    tag_248:\n        /* \"contracts/Pool/Pool.sol\":6081:6104  owner() == _msgSender() */\n      0xffffffffffffffffffffffffffffffffffffffff\n      and\n      eq\n        /* \"contracts/Pool/Pool.sol\":6081:6143  owner() == _msgSender() || _developmentAddress == _msgSender() */\n      dup1\n      tag_249\n      jumpi\n      pop\n        /* \"contracts/Pool/Pool.sol\":6131:6143  _msgSender() */\n      tag_250\n        /* \"contracts/Pool/Pool.sol\":6131:6141  _msgSender */\n      tag_152\n        /* \"contracts/Pool/Pool.sol\":6131:6143  _msgSender() */\n      jump\t// in\n    tag_250:\n        /* \"contracts/Pool/Pool.sol\":6108:6143  _developmentAddress == _msgSender() */\n      0xffffffffffffffffffffffffffffffffffffffff\n      and\n        /* \"contracts/Pool/Pool.sol\":6108:6127  _developmentAddress */\n      0x0e\n      0x00\n      swap1\n      sload\n      swap1\n      0x0100\n      exp\n      swap1\n      div\n      0xffffffffffffffffffffffffffffffffffffffff\n      and\n        /* \"contracts/Pool/Pool.sol\":6108:6143  _developmentAddress == _msgSender() */\n      0xffffffffffffffffffffffffffffffffffffffff\n      and\n      eq\n        /* \"contracts/Pool/Pool.sol\":6081:6143  owner() == _msgSender() || _developmentAddress == _msgSender() */\n    tag_249:\n        /* \"contracts/Pool/Pool.sol\":6073:6169  require(owner() == _msgSender() || _developmentAddress == _msgSender(), \"Caller is not the dev\") */\n      tag_251\n      jumpi\n      mload(0x40)\n      0x08c379a000000000000000000000000000000000000000000000000000000000\n      dup2\n      mstore\n      0x04\n      add\n      tag_252\n      swap1\n      tag_195\n      jump\t// in\n    tag_252:\n      mload(0x40)\n      dup1\n      swap2\n      sub\n      swap1\n      revert\n    tag_251:\n        /* \"contracts/Pool/Pool.sol\":11167:11170  dev */\n      dup1\n        /* \"contracts/Pool/Pool.sol\":11128:11171  devAddressUpdated(_developmentAddress, dev) */\n      0xffffffffffffffffffffffffffffffffffffffff\n      and\n        /* \"contracts/Pool/Pool.sol\":11146:11165  _developmentAddress */\n      0x0e\n      0x00\n      swap1\n      sload\n      swap1\n      0x0100\n      exp\n      swap1\n      div\n      0xffffffffffffffffffffffffffffffffffffffff\n      and\n        /* \"contracts/Pool/Pool.sol\":11128:11171  devAddressUpdated(_developmentAddress, dev) */\n      0xffffffffffffffffffffffffffffffffffffffff\n      and\n      0xfbbc329437e8c79f847e170730ad6dd04106b7511cad70d06d635886d92de83c\n      mload(0x40)\n      mload(0x40)\n      dup1\n      swap2\n      sub\n      swap1\n      log3\n        /* \"contracts/Pool/Pool.sol\":11204:11207  dev */\n      dup1\n        /* \"contracts/Pool/Pool.sol\":11182:11201  _developmentAddress */\n      0x0e\n      0x00\n        /* \"contracts/Pool/Pool.sol\":11182:11207  _developmentAddress = dev */\n      0x0100\n      exp\n      dup2\n      sload\n      dup2\n      0xffffffffffffffffffffffffffffffffffffffff\n      mul\n      not\n      and\n      swap1\n      dup4\n      0xffffffffffffffffffffffffffffffffffffffff\n      and\n      mul\n      or\n      swap1\n      sstore\n      pop\n        /* \"contracts/Pool/Pool.sol\":11259:11263  true */\n      0x01\n        /* \"contracts/Pool/Pool.sol\":11217:11235  _isExcludedFromFee */\n      0x05\n        /* \"contracts/Pool/Pool.sol\":11217:11256  _isExcludedFromFee[_developmentAddress] */\n      0x00\n        /* \"contracts/Pool/Pool.sol\":11236:11255  _developmentAddress */\n      0x0e\n      0x00\n      swap1\n      sload\n      swap1\n      0x0100\n      exp\n      swap1\n      div\n      0xffffffffffffffffffffffffffffffffffffffff\n      and\n        /* \"contracts/Pool/Pool.sol\":11217:11256  _isExcludedFromFee[_developmentAddress] */\n      0xffffffffffffffffffffffffffffffffffffffff\n      and\n      0xffffffffffffffffffffffffffffffffffffffff\n      and\n      dup2\n      mstore\n      0x20\n      add\n      swap1\n      dup2\n      mstore\n      0x20\n      add\n      0x00\n      keccak256\n      0x00\n        /* \"contracts/Pool/Pool.sol\":11217:11263  _isExcludedFromFee[_developmentAddress] = true */\n      0x0100\n      exp\n      dup2\n      sload\n      dup2\n      0xff\n      mul\n      not\n      and\n      swap1\n      dup4\n      iszero\n      iszero\n      mul\n      or\n      swap1\n      sstore\n      pop\n        /* \"contracts/Pool/Pool.sol\":11049:11270  function setNewDevAddress(address payable dev) public onlyDev() {... */\n      pop\n      jump\t// out\n        /* \"contracts/Pool/Pool.sol\":14148:14407  function manualswap() external {... */\n    tag_130:\n        /* \"contracts/Pool/Pool.sol\":14213:14232  _developmentAddress */\n      0x0e\n      0x00\n      swap1\n      sload\n      swap1\n      0x0100\n      exp\n      swap1\n      div\n      0xffffffffffffffffffffffffffffffffffffffff\n      and\n        /* \"contracts/Pool/Pool.sol\":14197:14232  _msgSender() == _developmentAddress */\n      0xffffffffffffffffffffffffffffffffffffffff\n      and\n        /* \"contracts/Pool/Pool.sol\":14197:14209  _msgSender() */\n      tag_255\n        /* \"contracts/Pool/Pool.sol\":14197:14207  _msgSender */\n      tag_152\n        /* \"contracts/Pool/Pool.sol\":14197:14209  _msgSender() */\n      jump\t// in\n    tag_255:\n        /* \"contracts/Pool/Pool.sol\":14197:14232  _msgSender() == _developmentAddress */\n      0xffffffffffffffffffffffffffffffffffffffff\n      and\n      eq\n        /* \"contracts/Pool/Pool.sol\":14197:14269  _msgSender() == _developmentAddress || _msgSender() == _marketingAddress */\n      dup1\n      tag_256\n      jumpi\n      pop\n        /* \"contracts/Pool/Pool.sol\":14252:14269  _marketingAddress */\n      0x0f\n      0x00\n      swap1\n      sload\n      swap1\n      0x0100\n      exp\n      swap1\n      div\n      0xffffffffffffffffffffffffffffffffffffffff\n      and\n        /* \"contracts/Pool/Pool.sol\":14236:14269  _msgSender() == _marketingAddress */\n      0xffffffffffffffffffffffffffffffffffffffff\n      and\n        /* \"contracts/Pool/Pool.sol\":14236:14248  _msgSender() */\n      tag_257\n        /* \"contracts/Pool/Pool.sol\":14236:14246  _msgSender */\n      tag_152\n        /* \"contracts/Pool/Pool.sol\":14236:14248  _msgSender() */\n      jump\t// in\n    tag_257:\n        /* \"contracts/Pool/Pool.sol\":14236:14269  _msgSender() == _marketingAddress */\n      0xffffffffffffffffffffffffffffffffffffffff\n      and\n      eq\n        /* \"contracts/Pool/Pool.sol\":14197:14269  _msgSender() == _developmentAddress || _msgSender() == _marketingAddress */\n    tag_256:\n        /* \"contracts/Pool/Pool.sol\":14197:14296  _msgSender() == _developmentAddress || _msgSender() == _marketingAddress || _msgSender() == owner() */\n      dup1\n      tag_258\n      jumpi\n      pop\n        /* \"contracts/Pool/Pool.sol\":14289:14296  owner() */\n      tag_259\n        /* \"contracts/Pool/Pool.sol\":14289:14294  owner */\n      tag_108\n        /* \"contracts/Pool/Pool.sol\":14289:14296  owner() */\n      jump\t// in\n    tag_259:\n        /* \"contracts/Pool/Pool.sol\":14273:14296  _msgSender() == owner() */\n      0xffffffffffffffffffffffffffffffffffffffff\n      and\n        /* \"contracts/Pool/Pool.sol\":14273:14285  _msgSender() */\n      tag_260\n        /* \"contracts/Pool/Pool.sol\":14273:14283  _msgSender */\n      tag_152\n        /* \"contracts/Pool/Pool.sol\":14273:14285  _msgSender() */\n      jump\t// in\n    tag_260:\n        /* \"contracts/Pool/Pool.sol\":14273:14296  _msgSender() == owner() */\n      0xffffffffffffffffffffffffffffffffffffffff\n      and\n      eq\n        /* \"contracts/Pool/Pool.sol\":14197:14296  _msgSender() == _developmentAddress || _msgSender() == _marketingAddress || _msgSender() == owner() */\n    tag_258:\n        /* \"contracts/Pool/Pool.sol\":14189:14297  require(_msgSender() == _developmentAddress || _msgSender() == _marketingAddress || _msgSender() == owner()) */\n      tag_261\n      jumpi\n      0x00\n      dup1\n      revert\n    tag_261:\n        /* \"contracts/Pool/Pool.sol\":14307:14330  uint256 contractBalance */\n      0x00\n        /* \"contracts/Pool/Pool.sol\":14333:14357  balanceOf(address(this)) */\n      tag_262\n        /* \"contracts/Pool/Pool.sol\":14351:14355  this */\n      address\n        /* \"contracts/Pool/Pool.sol\":14333:14342  balanceOf */\n      tag_96\n        /* \"contracts/Pool/Pool.sol\":14333:14357  balanceOf(address(this)) */\n      jump\t// in\n    tag_262:\n        /* \"contracts/Pool/Pool.sol\":14307:14357  uint256 contractBalance = balanceOf(address(this)) */\n      swap1\n      pop\n        /* \"contracts/Pool/Pool.sol\":14367:14400  swapTokensForEth(contractBalance) */\n      tag_263\n        /* \"contracts/Pool/Pool.sol\":14384:14399  contractBalance */\n      dup2\n        /* \"contracts/Pool/Pool.sol\":14367:14383  swapTokensForEth */\n      tag_264\n        /* \"contracts/Pool/Pool.sol\":14367:14400  swapTokensForEth(contractBalance) */\n      jump\t// in\n    tag_263:\n        /* \"contracts/Pool/Pool.sol\":14179:14407  {... */\n      pop\n        /* \"contracts/Pool/Pool.sol\":14148:14407  function manualswap() external {... */\n      jump\t// out\n        /* \"contracts/Pool/Pool.sol\":15336:15566  function excludeMultipleAccountsFromFees(address[] calldata accounts, bool excluded) public onlyOwner {... */\n    tag_135:\n        /* \"contracts/Pool/Pool.sol\":3317:3329  _msgSender() */\n      tag_266\n        /* \"contracts/Pool/Pool.sol\":3317:3327  _msgSender */\n      tag_152\n        /* \"contracts/Pool/Pool.sol\":3317:3329  _msgSender() */\n      jump\t// in\n    tag_266:\n        /* \"contracts/Pool/Pool.sol\":3307:3329  _owner == _msgSender() */\n      0xffffffffffffffffffffffffffffffffffffffff\n      and\n        /* \"contracts/Pool/Pool.sol\":3307:3313  _owner */\n      0x00\n      dup1\n      sload\n      swap1\n      0x0100\n      exp\n      swap1\n      div\n      0xffffffffffffffffffffffffffffffffffffffff\n      and\n        /* \"contracts/Pool/Pool.sol\":3307:3329  _owner == _msgSender() */\n      0xffffffffffffffffffffffffffffffffffffffff\n      and\n      eq\n        /* \"contracts/Pool/Pool.sol\":3299:3357  require(_owner == _msgSender(), \"Caller is not the owner\") */\n      tag_267\n      jumpi\n      mload(0x40)\n      0x08c379a000000000000000000000000000000000000000000000000000000000\n      dup2\n      mstore\n      0x04\n      add\n      tag_268\n      swap1\n      tag_155\n      jump\t// in\n    tag_268:\n      mload(0x40)\n      dup1\n      swap2\n      sub\n      swap1\n      revert\n    tag_267:\n        /* \"contracts/Pool/Pool.sol\":15452:15461  uint256 i */\n      0x00\n        /* \"contracts/Pool/Pool.sol\":15448:15560  for(uint256 i = 0; i < accounts.length; i++) {... */\n    tag_270:\n        /* \"contracts/Pool/Pool.sol\":15471:15479  accounts */\n      dup4\n      dup4\n        /* \"contracts/Pool/Pool.sol\":15471:15486  accounts.length */\n      swap1\n      pop\n        /* \"contracts/Pool/Pool.sol\":15467:15468  i */\n      dup2\n        /* \"contracts/Pool/Pool.sol\":15467:15486  i < accounts.length */\n      lt\n        /* \"contracts/Pool/Pool.sol\":15448:15560  for(uint256 i = 0; i < accounts.length; i++) {... */\n      iszero\n      tag_271\n      jumpi\n        /* \"contracts/Pool/Pool.sol\":15541:15549  excluded */\n      dup2\n        /* \"contracts/Pool/Pool.sol\":15507:15525  _isExcludedFromFee */\n      0x05\n        /* \"contracts/Pool/Pool.sol\":15507:15538  _isExcludedFromFee[accounts[i]] */\n      0x00\n        /* \"contracts/Pool/Pool.sol\":15526:15534  accounts */\n      dup7\n      dup7\n        /* \"contracts/Pool/Pool.sol\":15535:15536  i */\n      dup6\n        /* \"contracts/Pool/Pool.sol\":15526:15537  accounts[i] */\n      dup2\n      dup2\n      lt\n      tag_273\n      jumpi\n      tag_274\n      tag_275\n      jump\t// in\n    tag_274:\n    tag_273:\n      swap1\n      pop\n      0x20\n      mul\n      add\n      0x20\n      dup2\n      add\n      swap1\n      tag_276\n      swap2\n      swap1\n      tag_95\n      jump\t// in\n    tag_276:\n        /* \"contracts/Pool/Pool.sol\":15507:15538  _isExcludedFromFee[accounts[i]] */\n      0xffffffffffffffffffffffffffffffffffffffff\n      and\n      0xffffffffffffffffffffffffffffffffffffffff\n      and\n      dup2\n      mstore\n      0x20\n      add\n      swap1\n      dup2\n      mstore\n      0x20\n      add\n      0x00\n      keccak256\n      0x00\n        /* \"contracts/Pool/Pool.sol\":15507:15549  _isExcludedFromFee[accounts[i]] = excluded */\n      0x0100\n      exp\n      dup2\n      sload\n      dup2\n      0xff\n      mul\n      not\n      and\n      swap1\n      dup4\n      iszero\n      iszero\n      mul\n      or\n      swap1\n      sstore\n      pop\n        /* \"contracts/Pool/Pool.sol\":15488:15491  i++ */\n      dup1\n      dup1\n      tag_277\n      swap1\n      tag_278\n      jump\t// in\n    tag_277:\n      swap2\n      pop\n      pop\n        /* \"contracts/Pool/Pool.sol\":15448:15560  for(uint256 i = 0; i < accounts.length; i++) {... */\n      jump(tag_270)\n    tag_271:\n      pop\n        /* \"contracts/Pool/Pool.sol\":15336:15566  function excludeMultipleAccountsFromFees(address[] calldata accounts, bool excluded) public onlyOwner {... */\n      pop\n      pop\n      pop\n      jump\t// out\n        /* \"contracts/Pool/Pool.sol\":6871:7012  function allowance(address owner, address spender) public view override returns (uint256) {... */\n    tag_140:\n        /* \"contracts/Pool/Pool.sol\":6952:6959  uint256 */\n      0x00\n        /* \"contracts/Pool/Pool.sol\":6978:6989  _allowances */\n      0x04\n        /* \"contracts/Pool/Pool.sol\":6978:6996  _allowances[owner] */\n      0x00\n        /* \"contracts/Pool/Pool.sol\":6990:6995  owner */\n      dup5\n        /* \"contracts/Pool/Pool.sol\":6978:6996  _allowances[owner] */\n      0xffffffffffffffffffffffffffffffffffffffff\n      and\n      0xffffffffffffffffffffffffffffffffffffffff\n      and\n      dup2\n      mstore\n      0x20\n      add\n      swap1\n      dup2\n      mstore\n      0x20\n      add\n      0x00\n      keccak256\n        /* \"contracts/Pool/Pool.sol\":6978:7005  _allowances[owner][spender] */\n      0x00\n        /* \"contracts/Pool/Pool.sol\":6997:7004  spender */\n      dup4\n        /* \"contracts/Pool/Pool.sol\":6978:7005  _allowances[owner][spender] */\n      0xffffffffffffffffffffffffffffffffffffffff\n      and\n      0xffffffffffffffffffffffffffffffffffffffff\n      and\n      dup2\n      mstore\n      0x20\n      add\n      swap1\n      dup2\n      mstore\n      0x20\n      add\n      0x00\n      keccak256\n      sload\n        /* \"contracts/Pool/Pool.sol\":6971:7005  return _allowances[owner][spender] */\n      swap1\n      pop\n        /* \"contracts/Pool/Pool.sol\":6871:7012  function allowance(address owner, address spender) public view override returns (uint256) {... */\n      swap3\n      swap2\n      pop\n      pop\n      jump\t// out\n        /* \"contracts/Pool/Pool.sol\":10758:10963  function rescueForeignTokens(address _tokenAddr, address _to, uint _amount) public onlyDev() {... */\n    tag_145:\n        /* \"contracts/Pool/Pool.sol\":6092:6104  _msgSender() */\n      tag_281\n        /* \"contracts/Pool/Pool.sol\":6092:6102  _msgSender */\n      tag_152\n        /* \"contracts/Pool/Pool.sol\":6092:6104  _msgSender() */\n      jump\t// in\n    tag_281:\n        /* \"contracts/Pool/Pool.sol\":6081:6104  owner() == _msgSender() */\n      0xffffffffffffffffffffffffffffffffffffffff\n      and\n        /* \"contracts/Pool/Pool.sol\":6081:6088  owner() */\n      tag_282\n        /* \"contracts/Pool/Pool.sol\":6081:6086  owner */\n      tag_108\n        /* \"contracts/Pool/Pool.sol\":6081:6088  owner() */\n      jump\t// in\n    tag_282:\n        /* \"contracts/Pool/Pool.sol\":6081:6104  owner() == _msgSender() */\n      0xffffffffffffffffffffffffffffffffffffffff\n      and\n      eq\n        /* \"contracts/Pool/Pool.sol\":6081:6143  owner() == _msgSender() || _developmentAddress == _msgSender() */\n      dup1\n      tag_283\n      jumpi\n      pop\n        /* \"contracts/Pool/Pool.sol\":6131:6143  _msgSender() */\n      tag_284\n        /* \"contracts/Pool/Pool.sol\":6131:6141  _msgSender */\n      tag_152\n        /* \"contracts/Pool/Pool.sol\":6131:6143  _msgSender() */\n      jump\t// in\n    tag_284:\n        /* \"contracts/Pool/Pool.sol\":6108:6143  _developmentAddress == _msgSender() */\n      0xffffffffffffffffffffffffffffffffffffffff\n      and\n        /* \"contracts/Pool/Pool.sol\":6108:6127  _developmentAddress */\n      0x0e\n      0x00\n      swap1\n      sload\n      swap1\n      0x0100\n      exp\n      swap1\n      div\n      0xffffffffffffffffffffffffffffffffffffffff\n      and\n        /* \"contracts/Pool/Pool.sol\":6108:6143  _developmentAddress == _msgSender() */\n      0xffffffffffffffffffffffffffffffffffffffff\n      and\n      eq\n        /* \"contracts/Pool/Pool.sol\":6081:6143  owner() == _msgSender() || _developmentAddress == _msgSender() */\n    tag_283:\n        /* \"contracts/Pool/Pool.sol\":6073:6169  require(owner() == _msgSender() || _developmentAddress == _msgSender(), \"Caller is not the dev\") */\n      tag_285\n      jumpi\n      mload(0x40)\n      0x08c379a000000000000000000000000000000000000000000000000000000000\n      dup2\n      mstore\n      0x04\n      add\n      tag_286\n      swap1\n      tag_195\n      jump\t// in\n    tag_286:\n      mload(0x40)\n      dup1\n      swap2\n      sub\n      swap1\n      revert\n    tag_285:\n        /* \"contracts/Pool/Pool.sol\":10892:10895  _to */\n      dup2\n        /* \"contracts/Pool/Pool.sol\":10866:10905  tokensRescued(_tokenAddr, _to, _amount) */\n      0xffffffffffffffffffffffffffffffffffffffff\n      and\n        /* \"contracts/Pool/Pool.sol\":10880:10890  _tokenAddr */\n      dup4\n        /* \"contracts/Pool/Pool.sol\":10866:10905  tokensRescued(_tokenAddr, _to, _amount) */\n      0xffffffffffffffffffffffffffffffffffffffff\n      and\n      0x47c33aa230eb5fd181505aa7befeaddd9b8a6f983989cea73a7868448c3a9ed9\n        /* \"contracts/Pool/Pool.sol\":10897:10904  _amount */\n      dup4\n        /* \"contracts/Pool/Pool.sol\":10866:10905  tokensRescued(_tokenAddr, _to, _amount) */\n      mload(0x40)\n      tag_288\n      swap2\n      swap1\n      tag_58\n      jump\t// in\n    tag_288:\n      mload(0x40)\n      dup1\n      swap2\n      sub\n      swap1\n      log3\n        /* \"contracts/Pool/Pool.sol\":10922:10932  _tokenAddr */\n      dup3\n        /* \"contracts/Pool/Pool.sol\":10916:10942  Token(_tokenAddr).transfer */\n      0xffffffffffffffffffffffffffffffffffffffff\n      and\n      0xa9059cbb\n        /* \"contracts/Pool/Pool.sol\":10943:10946  _to */\n      dup4\n        /* \"contracts/Pool/Pool.sol\":10948:10955  _amount */\n      dup4\n        /* \"contracts/Pool/Pool.sol\":10916:10956  Token(_tokenAddr).transfer(_to, _amount) */\n      mload(0x40)\n      dup4\n      0xffffffff\n      and\n      0xe0\n      shl\n      dup2\n      mstore\n      0x04\n      add\n      tag_289\n      swap3\n      swap2\n      swap1\n      tag_290\n      jump\t// in\n    tag_289:\n      0x20\n      mload(0x40)\n      dup1\n      dup4\n      sub\n      dup2\n      0x00\n      dup8\n      gas\n      call\n      iszero\n      dup1\n      iszero\n      tag_292\n      jumpi\n      returndatasize\n      0x00\n      dup1\n      returndatacopy\n      revert(0x00, returndatasize)\n    tag_292:\n      pop\n      pop\n      pop\n      pop\n      mload(0x40)\n      returndatasize\n      not(0x1f)\n      0x1f\n      dup3\n      add\n      and\n      dup3\n      add\n      dup1\n      0x40\n      mstore\n      pop\n      dup2\n      add\n      swap1\n      tag_293\n      swap2\n      swap1\n      tag_294\n      jump\t// in\n    tag_293:\n      pop\n        /* \"contracts/Pool/Pool.sol\":10758:10963  function rescueForeignTokens(address _tokenAddr, address _to, uint _amount) public onlyDev() {... */\n      pop\n      pop\n      pop\n      jump\t// out\n        /* \"contracts/Pool/Pool.sol\":3625:3782  function transferOwnership(address newOwner) public virtual onlyOwner {... */\n    tag_149:\n        /* \"contracts/Pool/Pool.sol\":3317:3329  _msgSender() */\n      tag_296\n        /* \"contracts/Pool/Pool.sol\":3317:3327  _msgSender */\n      tag_152\n        /* \"contracts/Pool/Pool.sol\":3317:3329  _msgSender() */\n      jump\t// in\n    tag_296:\n        /* \"contracts/Pool/Pool.sol\":3307:3329  _owner == _msgSender() */\n      0xffffffffffffffffffffffffffffffffffffffff\n      and\n        /* \"contracts/Pool/Pool.sol\":3307:3313  _owner */\n      0x00\n      dup1\n      sload\n      swap1\n      0x0100\n      exp\n      swap1\n      div\n      0xffffffffffffffffffffffffffffffffffffffff\n      and\n        /* \"contracts/Pool/Pool.sol\":3307:3329  _owner == _msgSender() */\n      0xffffffffffffffffffffffffffffffffffffffff\n      and\n      eq\n        /* \"contracts/Pool/Pool.sol\":3299:3357  require(_owner == _msgSender(), \"Caller is not the owner\") */\n      tag_297\n      jumpi\n      mload(0x40)\n      0x08c379a000000000000000000000000000000000000000000000000000000000\n      dup2\n      mstore\n      0x04\n      add\n      tag_298\n      swap1\n      tag_155\n      jump\t// in\n    tag_298:\n      mload(0x40)\n      dup1\n      swap2\n      sub\n      swap1\n      revert\n    tag_297:\n        /* \"contracts/Pool/Pool.sol\":3739:3747  newOwner */\n      dup1\n        /* \"contracts/Pool/Pool.sol\":3710:3748  OwnershipTransferred(_owner, newOwner) */\n      0xffffffffffffffffffffffffffffffffffffffff\n      and\n        /* \"contracts/Pool/Pool.sol\":3731:3737  _owner */\n      0x00\n      dup1\n      sload\n      swap1\n      0x0100\n      exp\n      swap1\n      div\n      0xffffffffffffffffffffffffffffffffffffffff\n      and\n        /* \"contracts/Pool/Pool.sol\":3710:3748  OwnershipTransferred(_owner, newOwner) */\n      0xffffffffffffffffffffffffffffffffffffffff\n      and\n      0x8be0079c531659141344cd1fd0a4f28419497f9722a3daafe3b4186f6b6457e0\n      mload(0x40)\n      mload(0x40)\n      dup1\n      swap2\n      sub\n      swap1\n      log3\n        /* \"contracts/Pool/Pool.sol\":3767:3775  newOwner */\n      dup1\n        /* \"contracts/Pool/Pool.sol\":3758:3764  _owner */\n      0x00\n      dup1\n        /* \"contracts/Pool/Pool.sol\":3758:3775  _owner = newOwner */\n      0x0100\n      exp\n      dup2\n      sload\n      dup2\n      0xffffffffffffffffffffffffffffffffffffffff\n      mul\n      not\n      and\n      swap1\n      dup4\n      0xffffffffffffffffffffffffffffffffffffffff\n      and\n      mul\n      or\n      swap1\n      sstore\n      pop\n        /* \"contracts/Pool/Pool.sol\":3625:3782  function transferOwnership(address newOwner) public virtual onlyOwner {... */\n      pop\n      jump\t// out\n        /* \"contracts/Pool/Pool.sol\":1721:1817  function _msgSender() internal view virtual returns (address) {... */\n    tag_152:\n        /* \"contracts/Pool/Pool.sol\":1774:1781  address */\n      0x00\n        /* \"contracts/Pool/Pool.sol\":1800:1810  msg.sender */\n      caller\n        /* \"contracts/Pool/Pool.sol\":1793:1810  return msg.sender */\n      swap1\n      pop\n        /* \"contracts/Pool/Pool.sol\":1721:1817  function _msgSender() internal view virtual returns (address) {... */\n      swap1\n      jump\t// out\n        /* \"contracts/Pool/Pool.sol\":7753:8083  function _approve(address owner, address spender, uint256 amount) private {... */\n    tag_173:\n        /* \"contracts/Pool/Pool.sol\":7862:7863  0 */\n      0x00\n        /* \"contracts/Pool/Pool.sol\":7845:7864  owner != address(0) */\n      0xffffffffffffffffffffffffffffffffffffffff\n      and\n        /* \"contracts/Pool/Pool.sol\":7845:7850  owner */\n      dup4\n        /* \"contracts/Pool/Pool.sol\":7845:7864  owner != address(0) */\n      0xffffffffffffffffffffffffffffffffffffffff\n      and\n      sub\n        /* \"contracts/Pool/Pool.sol\":7837:7905  require(owner != address(0), \"ERC20: approve from the zero address\") */\n      tag_302\n      jumpi\n      mload(0x40)\n      0x08c379a000000000000000000000000000000000000000000000000000000000\n      dup2\n      mstore\n      0x04\n      add\n      tag_303\n      swap1\n      tag_304\n      jump\t// in\n    tag_303:\n      mload(0x40)\n      dup1\n      swap2\n      sub\n      swap1\n      revert\n    tag_302:\n        /* \"contracts/Pool/Pool.sol\":7942:7943  0 */\n      0x00\n        /* \"contracts/Pool/Pool.sol\":7923:7944  spender != address(0) */\n      0xffffffffffffffffffffffffffffffffffffffff\n      and\n        /* \"contracts/Pool/Pool.sol\":7923:7930  spender */\n      dup3\n        /* \"contracts/Pool/Pool.sol\":7923:7944  spender != address(0) */\n      0xffffffffffffffffffffffffffffffffffffffff\n      and\n      sub\n        /* \"contracts/Pool/Pool.sol\":7915:7983  require(spender != address(0), \"ERC20: approve to the zero address\") */\n      tag_305\n      jumpi\n      mload(0x40)\n      0x08c379a000000000000000000000000000000000000000000000000000000000\n      dup2\n      mstore\n      0x04\n      add\n      tag_306\n      swap1\n      tag_307\n      jump\t// in\n    tag_306:\n      mload(0x40)\n      dup1\n      swap2\n      sub\n      swap1\n      revert\n    tag_305:\n        /* \"contracts/Pool/Pool.sol\":8023:8029  amount */\n      dup1\n        /* \"contracts/Pool/Pool.sol\":7993:8004  _allowances */\n      0x04\n        /* \"contracts/Pool/Pool.sol\":7993:8011  _allowances[owner] */\n      0x00\n        /* \"contracts/Pool/Pool.sol\":8005:8010  owner */\n      dup6\n        /* \"contracts/Pool/Pool.sol\":7993:8011  _allowances[owner] */\n      0xffffffffffffffffffffffffffffffffffffffff\n      and\n      0xffffffffffffffffffffffffffffffffffffffff\n      and\n      dup2\n      mstore\n      0x20\n      add\n      swap1\n      dup2\n      mstore\n      0x20\n      add\n      0x00\n      keccak256\n        /* \"contracts/Pool/Pool.sol\":7993:8020  _allowances[owner][spender] */\n      0x00\n        /* \"contracts/Pool/Pool.sol\":8012:8019  spender */\n      dup5\n        /* \"contracts/Pool/Pool.sol\":7993:8020  _allowances[owner][spender] */\n      0xffffffffffffffffffffffffffffffffffffffff\n      and\n      0xffffffffffffffffffffffffffffffffffffffff\n      and\n      dup2\n      mstore\n      0x20\n      add\n      swap1\n      dup2\n      mstore\n      0x20\n      add\n      0x00\n      keccak256\n        /* \"contracts/Pool/Pool.sol\":7993:8029  _allowances[owner][spender] = amount */\n      dup2\n      swap1\n      sstore\n      pop\n        /* \"contracts/Pool/Pool.sol\":8060:8067  spender */\n      dup2\n        /* \"contracts/Pool/Pool.sol\":8044:8076  Approval(owner, spender, amount) */\n      0xffffffffffffffffffffffffffffffffffffffff\n      and\n        /* \"contracts/Pool/Pool.sol\":8053:8058  owner */\n      dup4\n        /* \"contracts/Pool/Pool.sol\":8044:8076  Approval(owner, spender, amount) */\n      0xffffffffffffffffffffffffffffffffffffffff\n      and\n      0x8c5be1e5ebec7d5bd14f71427d1e84f3dd0314c0f7b2291e5b200ac8c7c3b925\n        /* \"contracts/Pool/Pool.sol\":8069:8075  amount */\n      dup4\n        /* \"contracts/Pool/Pool.sol\":8044:8076  Approval(owner, spender, amount) */\n      mload(0x40)\n      tag_308\n      swap2\n      swap1\n      tag_58\n      jump\t// in\n    tag_308:\n      mload(0x40)\n      dup1\n      swap2\n      sub\n      swap1\n      log3\n        /* \"contracts/Pool/Pool.sol\":7753:8083  function _approve(address owner, address spender, uint256 amount) private {... */\n      pop\n      pop\n      pop\n      jump\t// out\n        /* \"contracts/Pool/Pool.sol\":8089:9574  function _transfer(address from, address to, uint256 amount) private {... */\n    tag_177:\n        /* \"contracts/Pool/Pool.sol\":8192:8193  0 */\n      0x00\n        /* \"contracts/Pool/Pool.sol\":8176:8194  from != address(0) */\n      0xffffffffffffffffffffffffffffffffffffffff\n      and\n        /* \"contracts/Pool/Pool.sol\":8176:8180  from */\n      dup4\n        /* \"contracts/Pool/Pool.sol\":8176:8194  from != address(0) */\n      0xffffffffffffffffffffffffffffffffffffffff\n      and\n      sub\n        /* \"contracts/Pool/Pool.sol\":8168:8236  require(from != address(0), \"ERC20: transfer from the zero address\") */\n      tag_310\n      jumpi\n      mload(0x40)\n      0x08c379a000000000000000000000000000000000000000000000000000000000\n      dup2\n      mstore\n      0x04\n      add\n      tag_311\n      swap1\n      tag_312\n      jump\t// in\n    tag_311:\n      mload(0x40)\n      dup1\n      swap2\n      sub\n      swap1\n      revert\n    tag_310:\n        /* \"contracts/Pool/Pool.sol\":8268:8269  0 */\n      0x00\n        /* \"contracts/Pool/Pool.sol\":8254:8270  to != address(0) */\n      0xffffffffffffffffffffffffffffffffffffffff\n      and\n        /* \"contracts/Pool/Pool.sol\":8254:8256  to */\n      dup3\n        /* \"contracts/Pool/Pool.sol\":8254:8270  to != address(0) */\n      0xffffffffffffffffffffffffffffffffffffffff\n      and\n      sub\n        /* \"contracts/Pool/Pool.sol\":8246:8310  require(to != address(0), \"ERC20: transfer to the zero address\") */\n      tag_313\n      jumpi\n      mload(0x40)\n      0x08c379a000000000000000000000000000000000000000000000000000000000\n      dup2\n      mstore\n      0x04\n      add\n      tag_314\n      swap1\n      tag_315\n      jump\t// in\n    tag_314:\n      mload(0x40)\n      dup1\n      swap2\n      sub\n      swap1\n      revert\n    tag_313:\n        /* \"contracts/Pool/Pool.sol\":8337:8338  0 */\n      0x00\n        /* \"contracts/Pool/Pool.sol\":8328:8334  amount */\n      dup2\n        /* \"contracts/Pool/Pool.sol\":8328:8338  amount > 0 */\n      gt\n        /* \"contracts/Pool/Pool.sol\":8320:8384  require(amount > 0, \"Transfer amount must be greater than zero\") */\n      tag_316\n      jumpi\n      mload(0x40)\n      0x08c379a000000000000000000000000000000000000000000000000000000000\n      dup2\n      mstore\n      0x04\n      add\n      tag_317\n      swap1\n      tag_318\n      jump\t// in\n    tag_317:\n      mload(0x40)\n      dup1\n      swap2\n      sub\n      swap1\n      revert\n    tag_316:\n        /* \"contracts/Pool/Pool.sol\":8415:8416  0 */\n      0x00\n        /* \"contracts/Pool/Pool.sol\":8403:8412  _redisFee */\n      0x0c\n        /* \"contracts/Pool/Pool.sol\":8403:8416  _redisFee = 0 */\n      dup2\n      swap1\n      sstore\n      pop\n        /* \"contracts/Pool/Pool.sol\":8436:8437  0 */\n      0x00\n        /* \"contracts/Pool/Pool.sol\":8426:8433  _taxFee */\n      0x0d\n        /* \"contracts/Pool/Pool.sol\":8426:8437  _taxFee = 0 */\n      dup2\n      swap1\n      sstore\n      pop\n        /* \"contracts/Pool/Pool.sol\":8468:8475  owner() */\n      tag_319\n        /* \"contracts/Pool/Pool.sol\":8468:8473  owner */\n      tag_108\n        /* \"contracts/Pool/Pool.sol\":8468:8475  owner() */\n      jump\t// in\n    tag_319:\n        /* \"contracts/Pool/Pool.sol\":8460:8475  from != owner() */\n      0xffffffffffffffffffffffffffffffffffffffff\n      and\n        /* \"contracts/Pool/Pool.sol\":8460:8464  from */\n      dup4\n        /* \"contracts/Pool/Pool.sol\":8460:8475  from != owner() */\n      0xffffffffffffffffffffffffffffffffffffffff\n      and\n      eq\n      iszero\n        /* \"contracts/Pool/Pool.sol\":8460:8492  from != owner() && to != owner() */\n      dup1\n      iszero\n      tag_320\n      jumpi\n      pop\n        /* \"contracts/Pool/Pool.sol\":8485:8492  owner() */\n      tag_321\n        /* \"contracts/Pool/Pool.sol\":8485:8490  owner */\n      tag_108\n        /* \"contracts/Pool/Pool.sol\":8485:8492  owner() */\n      jump\t// in\n    tag_321:\n        /* \"contracts/Pool/Pool.sol\":8479:8492  to != owner() */\n      0xffffffffffffffffffffffffffffffffffffffff\n      and\n        /* \"contracts/Pool/Pool.sol\":8479:8481  to */\n      dup3\n        /* \"contracts/Pool/Pool.sol\":8479:8492  to != owner() */\n      0xffffffffffffffffffffffffffffffffffffffff\n      and\n      eq\n      iszero\n        /* \"contracts/Pool/Pool.sol\":8460:8492  from != owner() && to != owner() */\n    tag_320:\n        /* \"contracts/Pool/Pool.sol\":8456:9527  if (from != owner() && to != owner()) {... */\n      iszero\n      tag_322\n      jumpi\n        /* \"contracts/Pool/Pool.sol\":8521:8549  uint256 contractTokenBalance */\n      0x00\n        /* \"contracts/Pool/Pool.sol\":8552:8576  balanceOf(address(this)) */\n      tag_323\n        /* \"contracts/Pool/Pool.sol\":8570:8574  this */\n      address\n        /* \"contracts/Pool/Pool.sol\":8552:8561  balanceOf */\n      tag_96\n        /* \"contracts/Pool/Pool.sol\":8552:8576  balanceOf(address(this)) */\n      jump\t// in\n    tag_323:\n        /* \"contracts/Pool/Pool.sol\":8521:8576  uint256 contractTokenBalance = balanceOf(address(this)) */\n      swap1\n      pop\n        /* \"contracts/Pool/Pool.sol\":8595:8601  inSwap */\n      0x12\n      0x14\n      swap1\n      sload\n      swap1\n      0x0100\n      exp\n      swap1\n      div\n      0xff\n      and\n        /* \"contracts/Pool/Pool.sol\":8594:8601  !inSwap */\n      iszero\n        /* \"contracts/Pool/Pool.sol\":8594:8626  !inSwap && from != uniswapV2Pair */\n      dup1\n      iszero\n      tag_324\n      jumpi\n      pop\n        /* \"contracts/Pool/Pool.sol\":8613:8626  uniswapV2Pair */\n      0x12\n      0x00\n      swap1\n      sload\n      swap1\n      0x0100\n      exp\n      swap1\n      div\n      0xffffffffffffffffffffffffffffffffffffffff\n      and\n        /* \"contracts/Pool/Pool.sol\":8605:8626  from != uniswapV2Pair */\n      0xffffffffffffffffffffffffffffffffffffffff\n      and\n        /* \"contracts/Pool/Pool.sol\":8605:8609  from */\n      dup5\n        /* \"contracts/Pool/Pool.sol\":8605:8626  from != uniswapV2Pair */\n      0xffffffffffffffffffffffffffffffffffffffff\n      and\n      eq\n      iszero\n        /* \"contracts/Pool/Pool.sol\":8594:8626  !inSwap && from != uniswapV2Pair */\n    tag_324:\n        /* \"contracts/Pool/Pool.sol\":8594:8641  !inSwap && from != uniswapV2Pair && swapEnabled */\n      dup1\n      iszero\n      tag_325\n      jumpi\n      pop\n        /* \"contracts/Pool/Pool.sol\":8630:8641  swapEnabled */\n      0x12\n      0x15\n      swap1\n      sload\n      swap1\n      0x0100\n      exp\n      swap1\n      div\n      0xff\n      and\n        /* \"contracts/Pool/Pool.sol\":8594:8641  !inSwap && from != uniswapV2Pair && swapEnabled */\n    tag_325:\n        /* \"contracts/Pool/Pool.sol\":8594:8669  !inSwap && from != uniswapV2Pair && swapEnabled && contractTokenBalance > 0 */\n      dup1\n      iszero\n      tag_326\n      jumpi\n      pop\n        /* \"contracts/Pool/Pool.sol\":8668:8669  0 */\n      0x00\n        /* \"contracts/Pool/Pool.sol\":8645:8665  contractTokenBalance */\n      dup2\n        /* \"contracts/Pool/Pool.sol\":8645:8669  contractTokenBalance > 0 */\n      gt\n        /* \"contracts/Pool/Pool.sol\":8594:8669  !inSwap && from != uniswapV2Pair && swapEnabled && contractTokenBalance > 0 */\n    tag_326:\n        /* \"contracts/Pool/Pool.sol\":8590:8930  if (!inSwap && from != uniswapV2Pair && swapEnabled && contractTokenBalance > 0) {... */\n      iszero\n      tag_327\n      jumpi\n        /* \"contracts/Pool/Pool.sol\":8689:8727  swapTokensForEth(contractTokenBalance) */\n      tag_328\n        /* \"contracts/Pool/Pool.sol\":8706:8726  contractTokenBalance */\n      dup2\n        /* \"contracts/Pool/Pool.sol\":8689:8705  swapTokensForEth */\n      tag_264\n        /* \"contracts/Pool/Pool.sol\":8689:8727  swapTokensForEth(contractTokenBalance) */\n      jump\t// in\n    tag_328:\n        /* \"contracts/Pool/Pool.sol\":8745:8771  uint256 contractETHBalance */\n      0x00\n        /* \"contracts/Pool/Pool.sol\":8774:8795  address(this).balance */\n      selfbalance\n        /* \"contracts/Pool/Pool.sol\":8745:8795  uint256 contractETHBalance = address(this).balance */\n      swap1\n      pop\n        /* \"contracts/Pool/Pool.sol\":8837:8838  0 */\n      0x00\n        /* \"contracts/Pool/Pool.sol\":8816:8834  contractETHBalance */\n      dup2\n        /* \"contracts/Pool/Pool.sol\":8816:8838  contractETHBalance > 0 */\n      gt\n        /* \"contracts/Pool/Pool.sol\":8813:8916  if(contractETHBalance > 0) {... */\n      iszero\n      tag_329\n      jumpi\n        /* \"contracts/Pool/Pool.sol\":8862:8897  sendETHToFee(address(this).balance) */\n      tag_330\n        /* \"contracts/Pool/Pool.sol\":8875:8896  address(this).balance */\n      selfbalance\n        /* \"contracts/Pool/Pool.sol\":8862:8874  sendETHToFee */\n      tag_206\n        /* \"contracts/Pool/Pool.sol\":8862:8897  sendETHToFee(address(this).balance) */\n      jump\t// in\n    tag_330:\n        /* \"contracts/Pool/Pool.sol\":8813:8916  if(contractETHBalance > 0) {... */\n    tag_329:\n        /* \"contracts/Pool/Pool.sol\":8671:8930  {... */\n      pop\n        /* \"contracts/Pool/Pool.sol\":8590:8930  if (!inSwap && from != uniswapV2Pair && swapEnabled && contractTokenBalance > 0) {... */\n    tag_327:\n        /* \"contracts/Pool/Pool.sol\":8967:8980  uniswapV2Pair */\n      0x12\n      0x00\n      swap1\n      sload\n      swap1\n      0x0100\n      exp\n      swap1\n      div\n      0xffffffffffffffffffffffffffffffffffffffff\n      and\n        /* \"contracts/Pool/Pool.sol\":8959:8980  from == uniswapV2Pair */\n      0xffffffffffffffffffffffffffffffffffffffff\n      and\n        /* \"contracts/Pool/Pool.sol\":8959:8963  from */\n      dup5\n        /* \"contracts/Pool/Pool.sol\":8959:8980  from == uniswapV2Pair */\n      0xffffffffffffffffffffffffffffffffffffffff\n      and\n      eq\n        /* \"contracts/Pool/Pool.sol\":8959:9014  from == uniswapV2Pair && to != address(uniswapV2Router) */\n      dup1\n      iszero\n      tag_331\n      jumpi\n      pop\n        /* \"contracts/Pool/Pool.sol\":8998:9013  uniswapV2Router */\n      0x10\n      0x00\n      swap1\n      sload\n      swap1\n      0x0100\n      exp\n      swap1\n      div\n      0xffffffffffffffffffffffffffffffffffffffff\n      and\n        /* \"contracts/Pool/Pool.sol\":8984:9014  to != address(uniswapV2Router) */\n      0xffffffffffffffffffffffffffffffffffffffff\n      and\n        /* \"contracts/Pool/Pool.sol\":8984:8986  to */\n      dup4\n        /* \"contracts/Pool/Pool.sol\":8984:9014  to != address(uniswapV2Router) */\n      0xffffffffffffffffffffffffffffffffffffffff\n      and\n      eq\n      iszero\n        /* \"contracts/Pool/Pool.sol\":8959:9014  from == uniswapV2Pair && to != address(uniswapV2Router) */\n    tag_331:\n        /* \"contracts/Pool/Pool.sol\":8956:9115  if(from == uniswapV2Pair && to != address(uniswapV2Router)) {... */\n      iszero\n      tag_332\n      jumpi\n        /* \"contracts/Pool/Pool.sol\":9046:9060  _redisFeeOnBuy */\n      sload(0x08)\n        /* \"contracts/Pool/Pool.sol\":9034:9043  _redisFee */\n      0x0c\n        /* \"contracts/Pool/Pool.sol\":9034:9060  _redisFee = _redisFeeOnBuy */\n      dup2\n      swap1\n      sstore\n      pop\n        /* \"contracts/Pool/Pool.sol\":9088:9100  _taxFeeOnBuy */\n      sload(0x09)\n        /* \"contracts/Pool/Pool.sol\":9078:9085  _taxFee */\n      0x0d\n        /* \"contracts/Pool/Pool.sol\":9078:9100  _taxFee = _taxFeeOnBuy */\n      dup2\n      swap1\n      sstore\n      pop\n        /* \"contracts/Pool/Pool.sol\":8956:9115  if(from == uniswapV2Pair && to != address(uniswapV2Router)) {... */\n    tag_332:\n        /* \"contracts/Pool/Pool.sol\":9143:9156  uniswapV2Pair */\n      0x12\n      0x00\n      swap1\n      sload\n      swap1\n      0x0100\n      exp\n      swap1\n      div\n      0xffffffffffffffffffffffffffffffffffffffff\n      and\n        /* \"contracts/Pool/Pool.sol\":9137:9156  to == uniswapV2Pair */\n      0xffffffffffffffffffffffffffffffffffffffff\n      and\n        /* \"contracts/Pool/Pool.sol\":9137:9139  to */\n      dup4\n        /* \"contracts/Pool/Pool.sol\":9137:9156  to == uniswapV2Pair */\n      0xffffffffffffffffffffffffffffffffffffffff\n      and\n      eq\n        /* \"contracts/Pool/Pool.sol\":9137:9192  to == uniswapV2Pair && from != address(uniswapV2Router) */\n      dup1\n      iszero\n      tag_333\n      jumpi\n      pop\n        /* \"contracts/Pool/Pool.sol\":9176:9191  uniswapV2Router */\n      0x10\n      0x00\n      swap1\n      sload\n      swap1\n      0x0100\n      exp\n      swap1\n      div\n      0xffffffffffffffffffffffffffffffffffffffff\n      and\n        /* \"contracts/Pool/Pool.sol\":9160:9192  from != address(uniswapV2Router) */\n      0xffffffffffffffffffffffffffffffffffffffff\n      and\n        /* \"contracts/Pool/Pool.sol\":9160:9164  from */\n      dup5\n        /* \"contracts/Pool/Pool.sol\":9160:9192  from != address(uniswapV2Router) */\n      0xffffffffffffffffffffffffffffffffffffffff\n      and\n      eq\n      iszero\n        /* \"contracts/Pool/Pool.sol\":9137:9192  to == uniswapV2Pair && from != address(uniswapV2Router) */\n    tag_333:\n        /* \"contracts/Pool/Pool.sol\":9133:9295  if (to == uniswapV2Pair && from != address(uniswapV2Router)) {... */\n      iszero\n      tag_334\n      jumpi\n        /* \"contracts/Pool/Pool.sol\":9224:9239  _redisFeeOnSell */\n      sload(0x0a)\n        /* \"contracts/Pool/Pool.sol\":9212:9221  _redisFee */\n      0x0c\n        /* \"contracts/Pool/Pool.sol\":9212:9239  _redisFee = _redisFeeOnSell */\n      dup2\n      swap1\n      sstore\n      pop\n        /* \"contracts/Pool/Pool.sol\":9267:9280  _taxFeeOnSell */\n      sload(0x0b)\n        /* \"contracts/Pool/Pool.sol\":9257:9264  _taxFee */\n      0x0d\n        /* \"contracts/Pool/Pool.sol\":9257:9280  _taxFee = _taxFeeOnSell */\n      dup2\n      swap1\n      sstore\n      pop\n        /* \"contracts/Pool/Pool.sol\":9133:9295  if (to == uniswapV2Pair && from != address(uniswapV2Router)) {... */\n    tag_334:\n        /* \"contracts/Pool/Pool.sol\":9326:9344  _isExcludedFromFee */\n      0x05\n        /* \"contracts/Pool/Pool.sol\":9326:9350  _isExcludedFromFee[from] */\n      0x00\n        /* \"contracts/Pool/Pool.sol\":9345:9349  from */\n      dup6\n        /* \"contracts/Pool/Pool.sol\":9326:9350  _isExcludedFromFee[from] */\n      0xffffffffffffffffffffffffffffffffffffffff\n      and\n      0xffffffffffffffffffffffffffffffffffffffff\n      and\n      dup2\n      mstore\n      0x20\n      add\n      swap1\n      dup2\n      mstore\n      0x20\n      add\n      0x00\n      keccak256\n      0x00\n      swap1\n      sload\n      swap1\n      0x0100\n      exp\n      swap1\n      div\n      0xff\n      and\n        /* \"contracts/Pool/Pool.sol\":9326:9376  _isExcludedFromFee[from] || _isExcludedFromFee[to] */\n      dup1\n      tag_335\n      jumpi\n      pop\n        /* \"contracts/Pool/Pool.sol\":9354:9372  _isExcludedFromFee */\n      0x05\n        /* \"contracts/Pool/Pool.sol\":9354:9376  _isExcludedFromFee[to] */\n      0x00\n        /* \"contracts/Pool/Pool.sol\":9373:9375  to */\n      dup5\n        /* \"contracts/Pool/Pool.sol\":9354:9376  _isExcludedFromFee[to] */\n      0xffffffffffffffffffffffffffffffffffffffff\n      and\n      0xffffffffffffffffffffffffffffffffffffffff\n      and\n      dup2\n      mstore\n      0x20\n      add\n      swap1\n      dup2\n      mstore\n      0x20\n      add\n      0x00\n      keccak256\n      0x00\n      swap1\n      sload\n      swap1\n      0x0100\n      exp\n      swap1\n      div\n      0xff\n      and\n        /* \"contracts/Pool/Pool.sol\":9326:9376  _isExcludedFromFee[from] || _isExcludedFromFee[to] */\n    tag_335:\n        /* \"contracts/Pool/Pool.sol\":9325:9427  (_isExcludedFromFee[from] || _isExcludedFromFee[to]) || (from != uniswapV2Pair && to != uniswapV2Pair) */\n      dup1\n      tag_336\n      jumpi\n      pop\n        /* \"contracts/Pool/Pool.sol\":9390:9403  uniswapV2Pair */\n      0x12\n      0x00\n      swap1\n      sload\n      swap1\n      0x0100\n      exp\n      swap1\n      div\n      0xffffffffffffffffffffffffffffffffffffffff\n      and\n        /* \"contracts/Pool/Pool.sol\":9382:9403  from != uniswapV2Pair */\n      0xffffffffffffffffffffffffffffffffffffffff\n      and\n        /* \"contracts/Pool/Pool.sol\":9382:9386  from */\n      dup5\n        /* \"contracts/Pool/Pool.sol\":9382:9403  from != uniswapV2Pair */\n      0xffffffffffffffffffffffffffffffffffffffff\n      and\n      eq\n      iszero\n        /* \"contracts/Pool/Pool.sol\":9382:9426  from != uniswapV2Pair && to != uniswapV2Pair */\n      dup1\n      iszero\n      tag_337\n      jumpi\n      pop\n        /* \"contracts/Pool/Pool.sol\":9413:9426  uniswapV2Pair */\n      0x12\n      0x00\n      swap1\n      sload\n      swap1\n      0x0100\n      exp\n      swap1\n      div\n      0xffffffffffffffffffffffffffffffffffffffff\n      and\n        /* \"contracts/Pool/Pool.sol\":9407:9426  to != uniswapV2Pair */\n      0xffffffffffffffffffffffffffffffffffffffff\n      and\n        /* \"contracts/Pool/Pool.sol\":9407:9409  to */\n      dup4\n        /* \"contracts/Pool/Pool.sol\":9407:9426  to != uniswapV2Pair */\n      0xffffffffffffffffffffffffffffffffffffffff\n      and\n      eq\n      iszero\n        /* \"contracts/Pool/Pool.sol\":9382:9426  from != uniswapV2Pair && to != uniswapV2Pair */\n    tag_337:\n        /* \"contracts/Pool/Pool.sol\":9325:9427  (_isExcludedFromFee[from] || _isExcludedFromFee[to]) || (from != uniswapV2Pair && to != uniswapV2Pair) */\n    tag_336:\n        /* \"contracts/Pool/Pool.sol\":9321:9504  if ((_isExcludedFromFee[from] || _isExcludedFromFee[to]) || (from != uniswapV2Pair && to != uniswapV2Pair)) {... */\n      iszero\n      tag_338\n      jumpi\n        /* \"contracts/Pool/Pool.sol\":9459:9460  0 */\n      0x00\n        /* \"contracts/Pool/Pool.sol\":9447:9456  _redisFee */\n      0x0c\n        /* \"contracts/Pool/Pool.sol\":9447:9460  _redisFee = 0 */\n      dup2\n      swap1\n      sstore\n      pop\n        /* \"contracts/Pool/Pool.sol\":9488:9489  0 */\n      0x00\n        /* \"contracts/Pool/Pool.sol\":9478:9485  _taxFee */\n      0x0d\n        /* \"contracts/Pool/Pool.sol\":9478:9489  _taxFee = 0 */\n      dup2\n      swap1\n      sstore\n      pop\n        /* \"contracts/Pool/Pool.sol\":9321:9504  if ((_isExcludedFromFee[from] || _isExcludedFromFee[to]) || (from != uniswapV2Pair && to != uniswapV2Pair)) {... */\n    tag_338:\n        /* \"contracts/Pool/Pool.sol\":8494:9527  {... */\n      pop\n        /* \"contracts/Pool/Pool.sol\":8456:9527  if (from != owner() && to != owner()) {... */\n    tag_322:\n        /* \"contracts/Pool/Pool.sol\":9537:9567  _tokenTransfer(from,to,amount) */\n      tag_339\n        /* \"contracts/Pool/Pool.sol\":9552:9556  from */\n      dup4\n        /* \"contracts/Pool/Pool.sol\":9557:9559  to */\n      dup4\n        /* \"contracts/Pool/Pool.sol\":9560:9566  amount */\n      dup4\n        /* \"contracts/Pool/Pool.sol\":9537:9551  _tokenTransfer */\n      tag_340\n        /* \"contracts/Pool/Pool.sol\":9537:9567  _tokenTransfer(from,to,amount) */\n      jump\t// in\n    tag_339:\n        /* \"contracts/Pool/Pool.sol\":8089:9574  function _transfer(address from, address to, uint256 amount) private {... */\n      pop\n      pop\n      pop\n      jump\t// out\n        /* \"contracts/Pool/Pool.sol\":2167:2353  function sub(uint256 a, uint256 b, string memory errorMessage) internal pure returns (uint256) {... */\n    tag_182:\n        /* \"contracts/Pool/Pool.sol\":2253:2260  uint256 */\n      0x00\n        /* \"contracts/Pool/Pool.sol\":2285:2286  a */\n      dup4\n        /* \"contracts/Pool/Pool.sol\":2280:2281  b */\n      dup4\n        /* \"contracts/Pool/Pool.sol\":2280:2286  b <= a */\n      gt\n      iszero\n        /* \"contracts/Pool/Pool.sol\":2288:2300  errorMessage */\n      dup3\n        /* \"contracts/Pool/Pool.sol\":2272:2301  require(b <= a, errorMessage) */\n      swap1\n      tag_342\n      jumpi\n      mload(0x40)\n      0x08c379a000000000000000000000000000000000000000000000000000000000\n      dup2\n      mstore\n      0x04\n      add\n      tag_343\n      swap2\n      swap1\n      tag_41\n      jump\t// in\n    tag_343:\n      mload(0x40)\n      dup1\n      swap2\n      sub\n      swap1\n      revert\n    tag_342:\n      pop\n        /* \"contracts/Pool/Pool.sol\":2311:2320  uint256 c */\n      0x00\n        /* \"contracts/Pool/Pool.sol\":2327:2328  b */\n      dup4\n        /* \"contracts/Pool/Pool.sol\":2323:2324  a */\n      dup6\n        /* \"contracts/Pool/Pool.sol\":2323:2328  a - b */\n      tag_344\n      swap2\n      swap1\n      tag_345\n      jump\t// in\n    tag_344:\n        /* \"contracts/Pool/Pool.sol\":2311:2328  uint256 c = a - b */\n      swap1\n      pop\n        /* \"contracts/Pool/Pool.sol\":2345:2346  c */\n      dup1\n        /* \"contracts/Pool/Pool.sol\":2338:2346  return c */\n      swap2\n      pop\n      pop\n        /* \"contracts/Pool/Pool.sol\":2167:2353  function sub(uint256 a, uint256 b, string memory errorMessage) internal pure returns (uint256) {... */\n      swap4\n      swap3\n      pop\n      pop\n      pop\n      jump\t// out\n        /* \"contracts/Pool/Pool.sol\":10360:10517  function sendETHToFee(uint256 amount) private {... */\n    tag_206:\n        /* \"contracts/Pool/Pool.sol\":10416:10435  _developmentAddress */\n      0x0e\n      0x00\n      swap1\n      sload\n      swap1\n      0x0100\n      exp\n      swap1\n      div\n      0xffffffffffffffffffffffffffffffffffffffff\n      and\n        /* \"contracts/Pool/Pool.sol\":10416:10444  _developmentAddress.transfer */\n      0xffffffffffffffffffffffffffffffffffffffff\n      and\n        /* \"contracts/Pool/Pool.sol\":10416:10459  _developmentAddress.transfer(amount.div(2)) */\n      0x08fc\n        /* \"contracts/Pool/Pool.sol\":10445:10458  amount.div(2) */\n      tag_347\n        /* \"contracts/Pool/Pool.sol\":10456:10457  2 */\n      0x02\n        /* \"contracts/Pool/Pool.sol\":10445:10451  amount */\n      dup5\n        /* \"contracts/Pool/Pool.sol\":10445:10455  amount.div */\n      tag_348\n      swap1\n        /* \"contracts/Pool/Pool.sol\":10445:10458  amount.div(2) */\n      swap2\n      swap1\n      0xffffffff\n      and\n      jump\t// in\n    tag_347:\n        /* \"contracts/Pool/Pool.sol\":10416:10459  _developmentAddress.transfer(amount.div(2)) */\n      swap1\n      dup2\n      iszero\n      mul\n      swap1\n      mload(0x40)\n      0x00\n      mload(0x40)\n      dup1\n      dup4\n      sub\n      dup2\n      dup6\n      dup9\n      dup9\n      call\n      swap4\n      pop\n      pop\n      pop\n      pop\n      iszero\n      dup1\n      iszero\n      tag_350\n      jumpi\n      returndatasize\n      0x00\n      dup1\n      returndatacopy\n      revert(0x00, returndatasize)\n    tag_350:\n      pop\n        /* \"contracts/Pool/Pool.sol\":10469:10486  _marketingAddress */\n      0x0f\n      0x00\n      swap1\n      sload\n      swap1\n      0x0100\n      exp\n      swap1\n      div\n      0xffffffffffffffffffffffffffffffffffffffff\n      and\n        /* \"contracts/Pool/Pool.sol\":10469:10495  _marketingAddress.transfer */\n      0xffffffffffffffffffffffffffffffffffffffff\n      and\n        /* \"contracts/Pool/Pool.sol\":10469:10510  _marketingAddress.transfer(amount.div(2)) */\n      0x08fc\n        /* \"contracts/Pool/Pool.sol\":10496:10509  amount.div(2) */\n      tag_351\n        /* \"contracts/Pool/Pool.sol\":10507:10508  2 */\n      0x02\n        /* \"contracts/Pool/Pool.sol\":10496:10502  amount */\n      dup5\n        /* \"contracts/Pool/Pool.sol\":10496:10506  amount.div */\n      tag_348\n      swap1\n        /* \"contracts/Pool/Pool.sol\":10496:10509  amount.div(2) */\n      swap2\n      swap1\n      0xffffffff\n      and\n      jump\t// in\n    tag_351:\n        /* \"contracts/Pool/Pool.sol\":10469:10510  _marketingAddress.transfer(amount.div(2)) */\n      swap1\n      dup2\n      iszero\n      mul\n      swap1\n      mload(0x40)\n      0x00\n      mload(0x40)\n      dup1\n      dup4\n      sub\n      dup2\n      dup6\n      dup9\n      dup9\n      call\n      swap4\n      pop\n      pop\n      pop\n      pop\n      iszero\n      dup1\n      iszero\n      tag_353\n      jumpi\n      returndatasize\n      0x00\n      dup1\n      returndatacopy\n      revert(0x00, returndatasize)\n    tag_353:\n      pop\n        /* \"contracts/Pool/Pool.sol\":10360:10517  function sendETHToFee(uint256 amount) private {... */\n      pop\n      jump\t// out\n        /* \"contracts/Pool/Pool.sol\":7497:7747  function tokenFromReflection(uint256 rAmount) private view returns(uint256) {... */\n    tag_209:\n        /* \"contracts/Pool/Pool.sol\":7564:7571  uint256 */\n      0x00\n        /* \"contracts/Pool/Pool.sol\":7602:7609  _rTotal */\n      sload(0x06)\n        /* \"contracts/Pool/Pool.sol\":7591:7598  rAmount */\n      dup3\n        /* \"contracts/Pool/Pool.sol\":7591:7609  rAmount <= _rTotal */\n      gt\n      iszero\n        /* \"contracts/Pool/Pool.sol\":7583:7656  require(rAmount <= _rTotal, \"Amount must be less than total reflections\") */\n      tag_355\n      jumpi\n      mload(0x40)\n      0x08c379a000000000000000000000000000000000000000000000000000000000\n      dup2\n      mstore\n      0x04\n      add\n      tag_356\n      swap1\n      tag_357\n      jump\t// in\n    tag_356:\n      mload(0x40)\n      dup1\n      swap2\n      sub\n      swap1\n      revert\n    tag_355:\n        /* \"contracts/Pool/Pool.sol\":7666:7685  uint256 currentRate */\n      0x00\n        /* \"contracts/Pool/Pool.sol\":7689:7699  _getRate() */\n      tag_358\n        /* \"contracts/Pool/Pool.sol\":7689:7697  _getRate */\n      tag_359\n        /* \"contracts/Pool/Pool.sol\":7689:7699  _getRate() */\n      jump\t// in\n    tag_358:\n        /* \"contracts/Pool/Pool.sol\":7666:7699  uint256 currentRate =  _getRate() */\n      swap1\n      pop\n        /* \"contracts/Pool/Pool.sol\":7716:7740  rAmount.div(currentRate) */\n      tag_360\n        /* \"contracts/Pool/Pool.sol\":7728:7739  currentRate */\n      dup2\n        /* \"contracts/Pool/Pool.sol\":7716:7723  rAmount */\n      dup5\n        /* \"contracts/Pool/Pool.sol\":7716:7727  rAmount.div */\n      tag_348\n      swap1\n        /* \"contracts/Pool/Pool.sol\":7716:7740  rAmount.div(currentRate) */\n      swap2\n      swap1\n      0xffffffff\n      and\n      jump\t// in\n    tag_360:\n        /* \"contracts/Pool/Pool.sol\":7709:7740  return rAmount.div(currentRate) */\n      swap2\n      pop\n      pop\n        /* \"contracts/Pool/Pool.sol\":7497:7747  function tokenFromReflection(uint256 rAmount) private view returns(uint256) {... */\n      swap2\n      swap1\n      pop\n      jump\t// out\n        /* \"contracts/Pool/Pool.sol\":9875:10346  function swapTokensForEth(uint256 tokenAmount) private lockTheSwap {... */\n    tag_264:\n        /* \"contracts/Pool/Pool.sol\":5140:5144  true */\n      0x01\n        /* \"contracts/Pool/Pool.sol\":5131:5137  inSwap */\n      0x12\n      0x14\n        /* \"contracts/Pool/Pool.sol\":5131:5144  inSwap = true */\n      0x0100\n      exp\n      dup2\n      sload\n      dup2\n      0xff\n      mul\n      not\n      and\n      swap1\n      dup4\n      iszero\n      iszero\n      mul\n      or\n      swap1\n      sstore\n      pop\n        /* \"contracts/Pool/Pool.sol\":9952:9973  address[] memory path */\n      0x00\n        /* \"contracts/Pool/Pool.sol\":9990:9991  2 */\n      0x02\n        /* \"contracts/Pool/Pool.sol\":9976:9992  new address[](2) */\n      0xffffffffffffffff\n      dup2\n      gt\n      iszero\n      tag_363\n      jumpi\n      tag_364\n      tag_365\n      jump\t// in\n    tag_364:\n    tag_363:\n      mload(0x40)\n      swap1\n      dup1\n      dup3\n      mstore\n      dup1\n      0x20\n      mul\n      0x20\n      add\n      dup3\n      add\n      0x40\n      mstore\n      dup1\n      iszero\n      tag_366\n      jumpi\n      dup2\n      0x20\n      add\n      0x20\n      dup3\n      mul\n      dup1\n      calldatasize\n      dup4\n      calldatacopy\n      dup1\n      dup3\n      add\n      swap2\n      pop\n      pop\n      swap1\n      pop\n    tag_366:\n      pop\n        /* \"contracts/Pool/Pool.sol\":9952:9992  address[] memory path = new address[](2) */\n      swap1\n      pop\n        /* \"contracts/Pool/Pool.sol\":10020:10024  this */\n      address\n        /* \"contracts/Pool/Pool.sol\":10002:10006  path */\n      dup2\n        /* \"contracts/Pool/Pool.sol\":10007:10008  0 */\n      0x00\n        /* \"contracts/Pool/Pool.sol\":10002:10009  path[0] */\n      dup2\n      mload\n      dup2\n      lt\n      tag_367\n      jumpi\n      tag_368\n      tag_275\n      jump\t// in\n    tag_368:\n    tag_367:\n      0x20\n      mul\n      0x20\n      add\n      add\n        /* \"contracts/Pool/Pool.sol\":10002:10025  path[0] = address(this) */\n      swap1\n      0xffffffffffffffffffffffffffffffffffffffff\n      and\n      swap1\n      dup2\n      0xffffffffffffffffffffffffffffffffffffffff\n      and\n      dup2\n      mstore\n      pop\n      pop\n        /* \"contracts/Pool/Pool.sol\":10045:10060  uniswapV2Router */\n      0x10\n      0x00\n      swap1\n      sload\n      swap1\n      0x0100\n      exp\n      swap1\n      div\n      0xffffffffffffffffffffffffffffffffffffffff\n      and\n        /* \"contracts/Pool/Pool.sol\":10045:10065  uniswapV2Router.WETH */\n      0xffffffffffffffffffffffffffffffffffffffff\n      and\n      0xad5c4648\n        /* \"contracts/Pool/Pool.sol\":10045:10067  uniswapV2Router.WETH() */\n      mload(0x40)\n      dup2\n      0xffffffff\n      and\n      0xe0\n      shl\n      dup2\n      mstore\n      0x04\n      add\n      0x20\n      mload(0x40)\n      dup1\n      dup4\n      sub\n      dup2\n      dup7\n      gas\n      staticcall\n      iszero\n      dup1\n      iszero\n      tag_370\n      jumpi\n      returndatasize\n      0x00\n      dup1\n      returndatacopy\n      revert(0x00, returndatasize)\n    tag_370:\n      pop\n      pop\n      pop\n      pop\n      mload(0x40)\n      returndatasize\n      not(0x1f)\n      0x1f\n      dup3\n      add\n      and\n      dup3\n      add\n      dup1\n      0x40\n      mstore\n      pop\n      dup2\n      add\n      swap1\n      tag_371\n      swap2\n      swap1\n      tag_160\n      jump\t// in\n    tag_371:\n        /* \"contracts/Pool/Pool.sol\":10035:10039  path */\n      dup2\n        /* \"contracts/Pool/Pool.sol\":10040:10041  1 */\n      0x01\n        /* \"contracts/Pool/Pool.sol\":10035:10042  path[1] */\n      dup2\n      mload\n      dup2\n      lt\n      tag_372\n      jumpi\n      tag_373\n      tag_275\n      jump\t// in\n    tag_373:\n    tag_372:\n      0x20\n      mul\n      0x20\n      add\n      add\n        /* \"contracts/Pool/Pool.sol\":10035:10067  path[1] = uniswapV2Router.WETH() */\n      swap1\n      0xffffffffffffffffffffffffffffffffffffffff\n      and\n      swap1\n      dup2\n      0xffffffffffffffffffffffffffffffffffffffff\n      and\n      dup2\n      mstore\n      pop\n      pop\n        /* \"contracts/Pool/Pool.sol\":10077:10139  _approve(address(this), address(uniswapV2Router), tokenAmount) */\n      tag_374\n        /* \"contracts/Pool/Pool.sol\":10094:10098  this */\n      address\n        /* \"contracts/Pool/Pool.sol\":10109:10124  uniswapV2Router */\n      0x10\n      0x00\n      swap1\n      sload\n      swap1\n      0x0100\n      exp\n      swap1\n      div\n      0xffffffffffffffffffffffffffffffffffffffff\n      and\n        /* \"contracts/Pool/Pool.sol\":10127:10138  tokenAmount */\n      dup5\n        /* \"contracts/Pool/Pool.sol\":10077:10085  _approve */\n      tag_173\n        /* \"contracts/Pool/Pool.sol\":10077:10139  _approve(address(this), address(uniswapV2Router), tokenAmount) */\n      jump\t// in\n    tag_374:\n        /* \"contracts/Pool/Pool.sol\":10149:10164  uniswapV2Router */\n      0x10\n      0x00\n      swap1\n      sload\n      swap1\n      0x0100\n      exp\n      swap1\n      div\n      0xffffffffffffffffffffffffffffffffffffffff\n      and\n        /* \"contracts/Pool/Pool.sol\":10149:10215  uniswapV2Router.swapExactTokensForETHSupportingFeeOnTransferTokens */\n      0xffffffffffffffffffffffffffffffffffffffff\n      and\n      0x791ac947\n        /* \"contracts/Pool/Pool.sol\":10229:10240  tokenAmount */\n      dup4\n        /* \"contracts/Pool/Pool.sol\":10254:10255  0 */\n      0x00\n        /* \"contracts/Pool/Pool.sol\":10269:10273  path */\n      dup5\n        /* \"contracts/Pool/Pool.sol\":10295:10299  this */\n      address\n        /* \"contracts/Pool/Pool.sol\":10314:10329  block.timestamp */\n      timestamp\n        /* \"contracts/Pool/Pool.sol\":10149:10339  uniswapV2Router.swapExactTokensForETHSupportingFeeOnTransferTokens(... */\n      mload(0x40)\n      dup7\n      0xffffffff\n      and\n      0xe0\n      shl\n      dup2\n      mstore\n      0x04\n      add\n      tag_375\n      swap6\n      swap5\n      swap4\n      swap3\n      swap2\n      swap1\n      tag_376\n      jump\t// in\n    tag_375:\n      0x00\n      mload(0x40)\n      dup1\n      dup4\n      sub\n      dup2\n      0x00\n      dup8\n      dup1\n      extcodesize\n      iszero\n      dup1\n      iszero\n      tag_377\n      jumpi\n      0x00\n      dup1\n      revert\n    tag_377:\n      pop\n      gas\n      call\n      iszero\n      dup1\n      iszero\n      tag_379\n      jumpi\n      returndatasize\n      0x00\n      dup1\n      returndatacopy\n      revert(0x00, returndatasize)\n    tag_379:\n      pop\n      pop\n      pop\n      pop\n        /* \"contracts/Pool/Pool.sol\":9942:10346  {... */\n      pop\n        /* \"contracts/Pool/Pool.sol\":5174:5179  false */\n      0x00\n        /* \"contracts/Pool/Pool.sol\":5165:5171  inSwap */\n      0x12\n      0x14\n        /* \"contracts/Pool/Pool.sol\":5165:5179  inSwap = false */\n      0x0100\n      exp\n      dup2\n      sload\n      dup2\n      0xff\n      mul\n      not\n      and\n      swap1\n      dup4\n      iszero\n      iszero\n      mul\n      or\n      swap1\n      sstore\n      pop\n        /* \"contracts/Pool/Pool.sol\":9875:10346  function swapTokensForEth(uint256 tokenAmount) private lockTheSwap {... */\n      pop\n      jump\t// out\n        /* \"contracts/Pool/Pool.sol\":10527:10671  function _tokenTransfer(address sender, address recipient, uint256 amount) private {... */\n    tag_340:\n        /* \"contracts/Pool/Pool.sol\":10620:10664  _transferStandard(sender, recipient, amount) */\n      tag_381\n        /* \"contracts/Pool/Pool.sol\":10638:10644  sender */\n      dup4\n        /* \"contracts/Pool/Pool.sol\":10646:10655  recipient */\n      dup4\n        /* \"contracts/Pool/Pool.sol\":10657:10663  amount */\n      dup4\n        /* \"contracts/Pool/Pool.sol\":10620:10637  _transferStandard */\n      tag_382\n        /* \"contracts/Pool/Pool.sol\":10620:10664  _transferStandard(sender, recipient, amount) */\n      jump\t// in\n    tag_381:\n        /* \"contracts/Pool/Pool.sol\":10527:10671  function _tokenTransfer(address sender, address recipient, uint256 amount) private {... */\n      pop\n      pop\n      pop\n      jump\t// out\n        /* \"contracts/Pool/Pool.sol\":2604:2734  function div(uint256 a, uint256 b) internal pure returns (uint256) {... */\n    tag_348:\n        /* \"contracts/Pool/Pool.sol\":2662:2669  uint256 */\n      0x00\n        /* \"contracts/Pool/Pool.sol\":2688:2727  div(a, b, \"SafeMath: division by zero\") */\n      tag_384\n        /* \"contracts/Pool/Pool.sol\":2692:2693  a */\n      dup4\n        /* \"contracts/Pool/Pool.sol\":2695:2696  b */\n      dup4\n        /* \"contracts/Pool/Pool.sol\":2688:2727  div(a, b, \"SafeMath: division by zero\") */\n      mload(0x40)\n      dup1\n      0x40\n      add\n      0x40\n      mstore\n      dup1\n      0x1a\n      dup2\n      mstore\n      0x20\n      add\n      0x536166654d6174683a206469766973696f6e206279207a65726f000000000000\n      dup2\n      mstore\n      pop\n        /* \"contracts/Pool/Pool.sol\":2688:2691  div */\n      tag_385\n        /* \"contracts/Pool/Pool.sol\":2688:2727  div(a, b, \"SafeMath: division by zero\") */\n      jump\t// in\n    tag_384:\n        /* \"contracts/Pool/Pool.sol\":2681:2727  return div(a, b, \"SafeMath: division by zero\") */\n      swap1\n      pop\n        /* \"contracts/Pool/Pool.sol\":2604:2734  function div(uint256 a, uint256 b) internal pure returns (uint256) {... */\n      swap3\n      swap2\n      pop\n      pop\n      jump\t// out\n        /* \"contracts/Pool/Pool.sol\":13719:13879  function _getRate() private view returns(uint256) {... */\n    tag_359:\n        /* \"contracts/Pool/Pool.sol\":13760:13767  uint256 */\n      0x00\n        /* \"contracts/Pool/Pool.sol\":13780:13795  uint256 rSupply */\n      dup1\n        /* \"contracts/Pool/Pool.sol\":13797:13812  uint256 tSupply */\n      0x00\n        /* \"contracts/Pool/Pool.sol\":13816:13835  _getCurrentSupply() */\n      tag_387\n        /* \"contracts/Pool/Pool.sol\":13816:13833  _getCurrentSupply */\n      tag_388\n        /* \"contracts/Pool/Pool.sol\":13816:13835  _getCurrentSupply() */\n      jump\t// in\n    tag_387:\n        /* \"contracts/Pool/Pool.sol\":13779:13835  (uint256 rSupply, uint256 tSupply) = _getCurrentSupply() */\n      swap2\n      pop\n      swap2\n      pop\n        /* \"contracts/Pool/Pool.sol\":13852:13872  rSupply.div(tSupply) */\n      tag_389\n        /* \"contracts/Pool/Pool.sol\":13864:13871  tSupply */\n      dup2\n        /* \"contracts/Pool/Pool.sol\":13852:13859  rSupply */\n      dup4\n        /* \"contracts/Pool/Pool.sol\":13852:13863  rSupply.div */\n      tag_348\n      swap1\n        /* \"contracts/Pool/Pool.sol\":13852:13872  rSupply.div(tSupply) */\n      swap2\n      swap1\n      0xffffffff\n      and\n      jump\t// in\n    tag_389:\n        /* \"contracts/Pool/Pool.sol\":13845:13872  return rSupply.div(tSupply) */\n      swap3\n      pop\n      pop\n      pop\n        /* \"contracts/Pool/Pool.sol\":13719:13879  function _getRate() private view returns(uint256) {... */\n      swap1\n      jump\t// out\n        /* \"contracts/Pool/Pool.sol\":11601:12082  function _transferStandard(address sender, address recipient, uint256 tAmount) private {... */\n    tag_382:\n        /* \"contracts/Pool/Pool.sol\":11699:11714  uint256 rAmount */\n      0x00\n        /* \"contracts/Pool/Pool.sol\":11716:11739  uint256 rTransferAmount */\n      dup1\n        /* \"contracts/Pool/Pool.sol\":11741:11753  uint256 rFee */\n      0x00\n        /* \"contracts/Pool/Pool.sol\":11755:11778  uint256 tTransferAmount */\n      dup1\n        /* \"contracts/Pool/Pool.sol\":11780:11792  uint256 tFee */\n      0x00\n        /* \"contracts/Pool/Pool.sol\":11794:11807  uint256 tTeam */\n      dup1\n        /* \"contracts/Pool/Pool.sol\":11811:11830  _getValues(tAmount) */\n      tag_391\n        /* \"contracts/Pool/Pool.sol\":11822:11829  tAmount */\n      dup8\n        /* \"contracts/Pool/Pool.sol\":11811:11821  _getValues */\n      tag_392\n        /* \"contracts/Pool/Pool.sol\":11811:11830  _getValues(tAmount) */\n      jump\t// in\n    tag_391:\n        /* \"contracts/Pool/Pool.sol\":11698:11830  (uint256 rAmount, uint256 rTransferAmount, uint256 rFee, uint256 tTransferAmount, uint256 tFee, uint256 tTeam) = _getValues(tAmount) */\n      swap6\n      pop\n      swap6\n      pop\n      swap6\n      pop\n      swap6\n      pop\n      swap6\n      pop\n      swap6\n      pop\n        /* \"contracts/Pool/Pool.sol\":11858:11886  _rOwned[sender].sub(rAmount) */\n      tag_393\n        /* \"contracts/Pool/Pool.sol\":11878:11885  rAmount */\n      dup7\n        /* \"contracts/Pool/Pool.sol\":11858:11865  _rOwned */\n      0x02\n        /* \"contracts/Pool/Pool.sol\":11858:11873  _rOwned[sender] */\n      0x00\n        /* \"contracts/Pool/Pool.sol\":11866:11872  sender */\n      dup13\n        /* \"contracts/Pool/Pool.sol\":11858:11873  _rOwned[sender] */\n      0xffffffffffffffffffffffffffffffffffffffff\n      and\n      0xffffffffffffffffffffffffffffffffffffffff\n      and\n      dup2\n      mstore\n      0x20\n      add\n      swap1\n      dup2\n      mstore\n      0x20\n      add\n      0x00\n      keccak256\n      sload\n        /* \"contracts/Pool/Pool.sol\":11858:11877  _rOwned[sender].sub */\n      tag_394\n      swap1\n        /* \"contracts/Pool/Pool.sol\":11858:11886  _rOwned[sender].sub(rAmount) */\n      swap2\n      swap1\n      0xffffffff\n      and\n      jump\t// in\n    tag_393:\n        /* \"contracts/Pool/Pool.sol\":11840:11847  _rOwned */\n      0x02\n        /* \"contracts/Pool/Pool.sol\":11840:11855  _rOwned[sender] */\n      0x00\n        /* \"contracts/Pool/Pool.sol\":11848:11854  sender */\n      dup12\n        /* \"contracts/Pool/Pool.sol\":11840:11855  _rOwned[sender] */\n      0xffffffffffffffffffffffffffffffffffffffff\n      and\n      0xffffffffffffffffffffffffffffffffffffffff\n      and\n      dup2\n      mstore\n      0x20\n      add\n      swap1\n      dup2\n      mstore\n      0x20\n      add\n      0x00\n      keccak256\n        /* \"contracts/Pool/Pool.sol\":11840:11886  _rOwned[sender] = _rOwned[sender].sub(rAmount) */\n      dup2\n      swap1\n      sstore\n      pop\n        /* \"contracts/Pool/Pool.sol\":11917:11956  _rOwned[recipient].add(rTransferAmount) */\n      tag_395\n        /* \"contracts/Pool/Pool.sol\":11940:11955  rTransferAmount */\n      dup6\n        /* \"contracts/Pool/Pool.sol\":11917:11924  _rOwned */\n      0x02\n        /* \"contracts/Pool/Pool.sol\":11917:11935  _rOwned[recipient] */\n      0x00\n        /* \"contracts/Pool/Pool.sol\":11925:11934  recipient */\n      dup12\n        /* \"contracts/Pool/Pool.sol\":11917:11935  _rOwned[recipient] */\n      0xffffffffffffffffffffffffffffffffffffffff\n      and\n      0xffffffffffffffffffffffffffffffffffffffff\n      and\n      dup2\n      mstore\n      0x20\n      add\n      swap1\n      dup2\n      mstore\n      0x20\n      add\n      0x00\n      keccak256\n      sload\n        /* \"contracts/Pool/Pool.sol\":11917:11939  _rOwned[recipient].add */\n      tag_396\n      swap1\n        /* \"contracts/Pool/Pool.sol\":11917:11956  _rOwned[recipient].add(rTransferAmount) */\n      swap2\n      swap1\n      0xffffffff\n      and\n      jump\t// in\n    tag_395:\n        /* \"contracts/Pool/Pool.sol\":11896:11903  _rOwned */\n      0x02\n        /* \"contracts/Pool/Pool.sol\":11896:11914  _rOwned[recipient] */\n      0x00\n        /* \"contracts/Pool/Pool.sol\":11904:11913  recipient */\n      dup11\n        /* \"contracts/Pool/Pool.sol\":11896:11914  _rOwned[recipient] */\n      0xffffffffffffffffffffffffffffffffffffffff\n      and\n      0xffffffffffffffffffffffffffffffffffffffff\n      and\n      dup2\n      mstore\n      0x20\n      add\n      swap1\n      dup2\n      mstore\n      0x20\n      add\n      0x00\n      keccak256\n        /* \"contracts/Pool/Pool.sol\":11896:11956  _rOwned[recipient] = _rOwned[recipient].add(rTransferAmount) */\n      dup2\n      swap1\n      sstore\n      pop\n        /* \"contracts/Pool/Pool.sol\":11967:11983  _takeTeam(tTeam) */\n      tag_397\n        /* \"contracts/Pool/Pool.sol\":11977:11982  tTeam */\n      dup2\n        /* \"contracts/Pool/Pool.sol\":11967:11976  _takeTeam */\n      tag_398\n        /* \"contracts/Pool/Pool.sol\":11967:11983  _takeTeam(tTeam) */\n      jump\t// in\n    tag_397:\n        /* \"contracts/Pool/Pool.sol\":11993:12016  _reflectFee(rFee, tFee) */\n      tag_399\n        /* \"contracts/Pool/Pool.sol\":12005:12009  rFee */\n      dup5\n        /* \"contracts/Pool/Pool.sol\":12011:12015  tFee */\n      dup4\n        /* \"contracts/Pool/Pool.sol\":11993:12004  _reflectFee */\n      tag_400\n        /* \"contracts/Pool/Pool.sol\":11993:12016  _reflectFee(rFee, tFee) */\n      jump\t// in\n    tag_399:\n        /* \"contracts/Pool/Pool.sol\":12048:12057  recipient */\n      dup8\n        /* \"contracts/Pool/Pool.sol\":12031:12075  Transfer(sender, recipient, tTransferAmount) */\n      0xffffffffffffffffffffffffffffffffffffffff\n      and\n        /* \"contracts/Pool/Pool.sol\":12040:12046  sender */\n      dup10\n        /* \"contracts/Pool/Pool.sol\":12031:12075  Transfer(sender, recipient, tTransferAmount) */\n      0xffffffffffffffffffffffffffffffffffffffff\n      and\n      0xddf252ad1be2c89b69c2b068fc378daa952ba7f163c4a11628f55a4df523b3ef\n        /* \"contracts/Pool/Pool.sol\":12059:12074  tTransferAmount */\n      dup6\n        /* \"contracts/Pool/Pool.sol\":12031:12075  Transfer(sender, recipient, tTransferAmount) */\n      mload(0x40)\n      tag_401\n      swap2\n      swap1\n      tag_58\n      jump\t// in\n    tag_401:\n      mload(0x40)\n      dup1\n      swap2\n      sub\n      swap1\n      log3\n        /* \"contracts/Pool/Pool.sol\":11688:12082  {... */\n      pop\n      pop\n      pop\n      pop\n      pop\n      pop\n        /* \"contracts/Pool/Pool.sol\":11601:12082  function _transferStandard(address sender, address recipient, uint256 tAmount) private {... */\n      pop\n      pop\n      pop\n      jump\t// out\n        /* \"contracts/Pool/Pool.sol\":2740:2925  function div(uint256 a, uint256 b, string memory errorMessage) internal pure returns (uint256) {... */\n    tag_385:\n        /* \"contracts/Pool/Pool.sol\":2826:2833  uint256 */\n      0x00\n        /* \"contracts/Pool/Pool.sol\":2857:2858  0 */\n      dup1\n        /* \"contracts/Pool/Pool.sol\":2853:2854  b */\n      dup4\n        /* \"contracts/Pool/Pool.sol\":2853:2858  b > 0 */\n      gt\n        /* \"contracts/Pool/Pool.sol\":2860:2872  errorMessage */\n      dup3\n        /* \"contracts/Pool/Pool.sol\":2845:2873  require(b > 0, errorMessage) */\n      swap1\n      tag_403\n      jumpi\n      mload(0x40)\n      0x08c379a000000000000000000000000000000000000000000000000000000000\n      dup2\n      mstore\n      0x04\n      add\n      tag_404\n      swap2\n      swap1\n      tag_41\n      jump\t// in\n    tag_404:\n      mload(0x40)\n      dup1\n      swap2\n      sub\n      swap1\n      revert\n    tag_403:\n      pop\n        /* \"contracts/Pool/Pool.sol\":2883:2892  uint256 c */\n      0x00\n        /* \"contracts/Pool/Pool.sol\":2899:2900  b */\n      dup4\n        /* \"contracts/Pool/Pool.sol\":2895:2896  a */\n      dup6\n        /* \"contracts/Pool/Pool.sol\":2895:2900  a / b */\n      tag_405\n      swap2\n      swap1\n      tag_406\n      jump\t// in\n    tag_405:\n        /* \"contracts/Pool/Pool.sol\":2883:2900  uint256 c = a / b */\n      swap1\n      pop\n        /* \"contracts/Pool/Pool.sol\":2917:2918  c */\n      dup1\n        /* \"contracts/Pool/Pool.sol\":2910:2918  return c */\n      swap2\n      pop\n      pop\n        /* \"contracts/Pool/Pool.sol\":2740:2925  function div(uint256 a, uint256 b, string memory errorMessage) internal pure returns (uint256) {... */\n      swap4\n      swap3\n      pop\n      pop\n      pop\n      jump\t// out\n        /* \"contracts/Pool/Pool.sol\":13885:14142  function _getCurrentSupply() private view returns(uint256, uint256) {... */\n    tag_388:\n        /* \"contracts/Pool/Pool.sol\":13935:13942  uint256 */\n      0x00\n        /* \"contracts/Pool/Pool.sol\":13944:13951  uint256 */\n      dup1\n        /* \"contracts/Pool/Pool.sol\":13963:13978  uint256 rSupply */\n      0x00\n        /* \"contracts/Pool/Pool.sol\":13981:13988  _rTotal */\n      sload(0x06)\n        /* \"contracts/Pool/Pool.sol\":13963:13988  uint256 rSupply = _rTotal */\n      swap1\n      pop\n        /* \"contracts/Pool/Pool.sol\":13998:14013  uint256 tSupply */\n      0x00\n        /* \"contracts/Pool/Pool.sol\":4200:4213  1*10**9*10**9 */\n      0x0de0b6b3a7640000\n        /* \"contracts/Pool/Pool.sol\":13998:14023  uint256 tSupply = _tTotal */\n      swap1\n      pop\n        /* \"contracts/Pool/Pool.sol\":14053:14073  _rTotal.div(_tTotal) */\n      tag_408\n        /* \"contracts/Pool/Pool.sol\":4200:4213  1*10**9*10**9 */\n      0x0de0b6b3a7640000\n        /* \"contracts/Pool/Pool.sol\":14053:14060  _rTotal */\n      sload(0x06)\n        /* \"contracts/Pool/Pool.sol\":14053:14064  _rTotal.div */\n      tag_348\n      swap1\n        /* \"contracts/Pool/Pool.sol\":14053:14073  _rTotal.div(_tTotal) */\n      swap2\n      swap1\n      0xffffffff\n      and\n      jump\t// in\n    tag_408:\n        /* \"contracts/Pool/Pool.sol\":14043:14050  rSupply */\n      dup3\n        /* \"contracts/Pool/Pool.sol\":14043:14073  rSupply < _rTotal.div(_tTotal) */\n      lt\n        /* \"contracts/Pool/Pool.sol\":14039:14100  if (rSupply < _rTotal.div(_tTotal)) return (_rTotal, _tTotal) */\n      iszero\n      tag_409\n      jumpi\n        /* \"contracts/Pool/Pool.sol\":14083:14090  _rTotal */\n      sload(0x06)\n        /* \"contracts/Pool/Pool.sol\":4200:4213  1*10**9*10**9 */\n      0x0de0b6b3a7640000\n        /* \"contracts/Pool/Pool.sol\":14075:14100  return (_rTotal, _tTotal) */\n      swap4\n      pop\n      swap4\n      pop\n      pop\n      pop\n      jump(tag_407)\n        /* \"contracts/Pool/Pool.sol\":14039:14100  if (rSupply < _rTotal.div(_tTotal)) return (_rTotal, _tTotal) */\n    tag_409:\n        /* \"contracts/Pool/Pool.sol\":14118:14125  rSupply */\n      dup2\n        /* \"contracts/Pool/Pool.sol\":14127:14134  tSupply */\n      dup2\n        /* \"contracts/Pool/Pool.sol\":14110:14135  return (rSupply, tSupply) */\n      swap4\n      pop\n      swap4\n      pop\n      pop\n      pop\n        /* \"contracts/Pool/Pool.sol\":13885:14142  function _getCurrentSupply() private view returns(uint256, uint256) {... */\n    tag_407:\n      swap1\n      swap2\n      jump\t// out\n        /* \"contracts/Pool/Pool.sol\":12491:12955  function _getValues(uint256 tAmount) private view returns (uint256, uint256, uint256, uint256, uint256, uint256) {... */\n    tag_392:\n        /* \"contracts/Pool/Pool.sol\":12550:12557  uint256 */\n      0x00\n        /* \"contracts/Pool/Pool.sol\":12559:12566  uint256 */\n      dup1\n        /* \"contracts/Pool/Pool.sol\":12568:12575  uint256 */\n      0x00\n        /* \"contracts/Pool/Pool.sol\":12577:12584  uint256 */\n      dup1\n        /* \"contracts/Pool/Pool.sol\":12586:12593  uint256 */\n      0x00\n        /* \"contracts/Pool/Pool.sol\":12595:12602  uint256 */\n      dup1\n        /* \"contracts/Pool/Pool.sol\":12615:12638  uint256 tTransferAmount */\n      0x00\n        /* \"contracts/Pool/Pool.sol\":12640:12652  uint256 tFee */\n      dup1\n        /* \"contracts/Pool/Pool.sol\":12654:12667  uint256 tTeam */\n      0x00\n        /* \"contracts/Pool/Pool.sol\":12671:12711  _getTValues(tAmount, _redisFee, _taxFee) */\n      tag_411\n        /* \"contracts/Pool/Pool.sol\":12683:12690  tAmount */\n      dup11\n        /* \"contracts/Pool/Pool.sol\":12692:12701  _redisFee */\n      sload(0x0c)\n        /* \"contracts/Pool/Pool.sol\":12703:12710  _taxFee */\n      sload(0x0d)\n        /* \"contracts/Pool/Pool.sol\":12671:12682  _getTValues */\n      tag_412\n        /* \"contracts/Pool/Pool.sol\":12671:12711  _getTValues(tAmount, _redisFee, _taxFee) */\n      jump\t// in\n    tag_411:\n        /* \"contracts/Pool/Pool.sol\":12614:12711  (uint256 tTransferAmount, uint256 tFee, uint256 tTeam) = _getTValues(tAmount, _redisFee, _taxFee) */\n      swap3\n      pop\n      swap3\n      pop\n      swap3\n      pop\n        /* \"contracts/Pool/Pool.sol\":12721:12740  uint256 currentRate */\n      0x00\n        /* \"contracts/Pool/Pool.sol\":12744:12754  _getRate() */\n      tag_413\n        /* \"contracts/Pool/Pool.sol\":12744:12752  _getRate */\n      tag_359\n        /* \"contracts/Pool/Pool.sol\":12744:12754  _getRate() */\n      jump\t// in\n    tag_413:\n        /* \"contracts/Pool/Pool.sol\":12721:12754  uint256 currentRate =  _getRate() */\n      swap1\n      pop\n        /* \"contracts/Pool/Pool.sol\":12765:12780  uint256 rAmount */\n      0x00\n        /* \"contracts/Pool/Pool.sol\":12782:12805  uint256 rTransferAmount */\n      dup1\n        /* \"contracts/Pool/Pool.sol\":12807:12819  uint256 rFee */\n      0x00\n        /* \"contracts/Pool/Pool.sol\":12823:12869  _getRValues(tAmount, tFee, tTeam, currentRate) */\n      tag_414\n        /* \"contracts/Pool/Pool.sol\":12835:12842  tAmount */\n      dup15\n        /* \"contracts/Pool/Pool.sol\":12844:12848  tFee */\n      dup8\n        /* \"contracts/Pool/Pool.sol\":12850:12855  tTeam */\n      dup8\n        /* \"contracts/Pool/Pool.sol\":12857:12868  currentRate */\n      dup8\n        /* \"contracts/Pool/Pool.sol\":12823:12834  _getRValues */\n      tag_415\n        /* \"contracts/Pool/Pool.sol\":12823:12869  _getRValues(tAmount, tFee, tTeam, currentRate) */\n      jump\t// in\n    tag_414:\n        /* \"contracts/Pool/Pool.sol\":12764:12869  (uint256 rAmount, uint256 rTransferAmount, uint256 rFee) = _getRValues(tAmount, tFee, tTeam, currentRate) */\n      swap3\n      pop\n      swap3\n      pop\n      swap3\n      pop\n        /* \"contracts/Pool/Pool.sol\":12887:12894  rAmount */\n      dup3\n        /* \"contracts/Pool/Pool.sol\":12896:12911  rTransferAmount */\n      dup3\n        /* \"contracts/Pool/Pool.sol\":12913:12917  rFee */\n      dup3\n        /* \"contracts/Pool/Pool.sol\":12919:12934  tTransferAmount */\n      dup10\n        /* \"contracts/Pool/Pool.sol\":12936:12940  tFee */\n      dup10\n        /* \"contracts/Pool/Pool.sol\":12942:12947  tTeam */\n      dup10\n        /* \"contracts/Pool/Pool.sol\":12879:12948  return (rAmount, rTransferAmount, rFee, tTransferAmount, tFee, tTeam) */\n      swap13\n      pop\n      swap13\n      pop\n      swap13\n      pop\n      swap13\n      pop\n      swap13\n      pop\n      swap13\n      pop\n      pop\n      pop\n      pop\n      pop\n      pop\n      pop\n      pop\n        /* \"contracts/Pool/Pool.sol\":12491:12955  function _getValues(uint256 tAmount) private view returns (uint256, uint256, uint256, uint256, uint256, uint256) {... */\n      swap2\n      swap4\n      swap6\n      pop\n      swap2\n      swap4\n      swap6\n      jump\t// out\n        /* \"contracts/Pool/Pool.sol\":2027:2161  function sub(uint256 a, uint256 b) internal pure returns (uint256) {... */\n    tag_394:\n        /* \"contracts/Pool/Pool.sol\":2085:2092  uint256 */\n      0x00\n        /* \"contracts/Pool/Pool.sol\":2111:2154  sub(a, b, \"SafeMath: subtraction overflow\") */\n      tag_417\n        /* \"contracts/Pool/Pool.sol\":2115:2116  a */\n      dup4\n        /* \"contracts/Pool/Pool.sol\":2118:2119  b */\n      dup4\n        /* \"contracts/Pool/Pool.sol\":2111:2154  sub(a, b, \"SafeMath: subtraction overflow\") */\n      mload(0x40)\n      dup1\n      0x40\n      add\n      0x40\n      mstore\n      dup1\n      0x1e\n      dup2\n      mstore\n      0x20\n      add\n      0x536166654d6174683a207375627472616374696f6e206f766572666c6f770000\n      dup2\n      mstore\n      pop\n        /* \"contracts/Pool/Pool.sol\":2111:2114  sub */\n      tag_182\n        /* \"contracts/Pool/Pool.sol\":2111:2154  sub(a, b, \"SafeMath: subtraction overflow\") */\n      jump\t// in\n    tag_417:\n        /* \"contracts/Pool/Pool.sol\":2104:2154  return sub(a, b, \"SafeMath: subtraction overflow\") */\n      swap1\n      pop\n        /* \"contracts/Pool/Pool.sol\":2027:2161  function sub(uint256 a, uint256 b) internal pure returns (uint256) {... */\n      swap3\n      swap2\n      pop\n      pop\n      jump\t// out\n        /* \"contracts/Pool/Pool.sol\":1846:2021  function add(uint256 a, uint256 b) internal pure returns (uint256) {... */\n    tag_396:\n        /* \"contracts/Pool/Pool.sol\":1904:1911  uint256 */\n      0x00\n        /* \"contracts/Pool/Pool.sol\":1923:1932  uint256 c */\n      dup1\n        /* \"contracts/Pool/Pool.sol\":1939:1940  b */\n      dup3\n        /* \"contracts/Pool/Pool.sol\":1935:1936  a */\n      dup5\n        /* \"contracts/Pool/Pool.sol\":1935:1940  a + b */\n      tag_419\n      swap2\n      swap1\n      tag_420\n      jump\t// in\n    tag_419:\n        /* \"contracts/Pool/Pool.sol\":1923:1940  uint256 c = a + b */\n      swap1\n      pop\n        /* \"contracts/Pool/Pool.sol\":1963:1964  a */\n      dup4\n        /* \"contracts/Pool/Pool.sol\":1958:1959  c */\n      dup2\n        /* \"contracts/Pool/Pool.sol\":1958:1964  c >= a */\n      lt\n      iszero\n        /* \"contracts/Pool/Pool.sol\":1950:1996  require(c >= a, \"SafeMath: addition overflow\") */\n      tag_421\n      jumpi\n      mload(0x40)\n      0x08c379a000000000000000000000000000000000000000000000000000000000\n      dup2\n      mstore\n      0x04\n      add\n      tag_422\n      swap1\n      tag_423\n      jump\t// in\n    tag_422:\n      mload(0x40)\n      dup1\n      swap2\n      sub\n      swap1\n      revert\n    tag_421:\n        /* \"contracts/Pool/Pool.sol\":2013:2014  c */\n      dup1\n        /* \"contracts/Pool/Pool.sol\":2006:2014  return c */\n      swap2\n      pop\n      pop\n        /* \"contracts/Pool/Pool.sol\":1846:2021  function add(uint256 a, uint256 b) internal pure returns (uint256) {... */\n      swap3\n      swap2\n      pop\n      pop\n      jump\t// out\n        /* \"contracts/Pool/Pool.sol\":12088:12296  function _takeTeam(uint256 tTeam) private {... */\n    tag_398:\n        /* \"contracts/Pool/Pool.sol\":12140:12159  uint256 currentRate */\n      0x00\n        /* \"contracts/Pool/Pool.sol\":12163:12173  _getRate() */\n      tag_425\n        /* \"contracts/Pool/Pool.sol\":12163:12171  _getRate */\n      tag_359\n        /* \"contracts/Pool/Pool.sol\":12163:12173  _getRate() */\n      jump\t// in\n    tag_425:\n        /* \"contracts/Pool/Pool.sol\":12140:12173  uint256 currentRate =  _getRate() */\n      swap1\n      pop\n        /* \"contracts/Pool/Pool.sol\":12183:12196  uint256 rTeam */\n      0x00\n        /* \"contracts/Pool/Pool.sol\":12199:12221  tTeam.mul(currentRate) */\n      tag_426\n        /* \"contracts/Pool/Pool.sol\":12209:12220  currentRate */\n      dup3\n        /* \"contracts/Pool/Pool.sol\":12199:12204  tTeam */\n      dup5\n        /* \"contracts/Pool/Pool.sol\":12199:12208  tTeam.mul */\n      tag_427\n      swap1\n        /* \"contracts/Pool/Pool.sol\":12199:12221  tTeam.mul(currentRate) */\n      swap2\n      swap1\n      0xffffffff\n      and\n      jump\t// in\n    tag_426:\n        /* \"contracts/Pool/Pool.sol\":12183:12221  uint256 rTeam = tTeam.mul(currentRate) */\n      swap1\n      pop\n        /* \"contracts/Pool/Pool.sol\":12256:12289  _rOwned[address(this)].add(rTeam) */\n      tag_428\n        /* \"contracts/Pool/Pool.sol\":12283:12288  rTeam */\n      dup2\n        /* \"contracts/Pool/Pool.sol\":12256:12263  _rOwned */\n      0x02\n        /* \"contracts/Pool/Pool.sol\":12256:12278  _rOwned[address(this)] */\n      0x00\n        /* \"contracts/Pool/Pool.sol\":12272:12276  this */\n      address\n        /* \"contracts/Pool/Pool.sol\":12256:12278  _rOwned[address(this)] */\n      0xffffffffffffffffffffffffffffffffffffffff\n      and\n      0xffffffffffffffffffffffffffffffffffffffff\n      and\n      dup2\n      mstore\n      0x20\n      add\n      swap1\n      dup2\n      mstore\n      0x20\n      add\n      0x00\n      keccak256\n      sload\n        /* \"contracts/Pool/Pool.sol\":12256:12282  _rOwned[address(this)].add */\n      tag_396\n      swap1\n        /* \"contracts/Pool/Pool.sol\":12256:12289  _rOwned[address(this)].add(rTeam) */\n      swap2\n      swap1\n      0xffffffff\n      and\n      jump\t// in\n    tag_428:\n        /* \"contracts/Pool/Pool.sol\":12231:12238  _rOwned */\n      0x02\n        /* \"contracts/Pool/Pool.sol\":12231:12253  _rOwned[address(this)] */\n      0x00\n        /* \"contracts/Pool/Pool.sol\":12247:12251  this */\n      address\n        /* \"contracts/Pool/Pool.sol\":12231:12253  _rOwned[address(this)] */\n      0xffffffffffffffffffffffffffffffffffffffff\n      and\n      0xffffffffffffffffffffffffffffffffffffffff\n      and\n      dup2\n      mstore\n      0x20\n      add\n      swap1\n      dup2\n      mstore\n      0x20\n      add\n      0x00\n      keccak256\n        /* \"contracts/Pool/Pool.sol\":12231:12289  _rOwned[address(this)] = _rOwned[address(this)].add(rTeam) */\n      dup2\n      swap1\n      sstore\n      pop\n        /* \"contracts/Pool/Pool.sol\":12130:12296  {... */\n      pop\n      pop\n        /* \"contracts/Pool/Pool.sol\":12088:12296  function _takeTeam(uint256 tTeam) private {... */\n      pop\n      jump\t// out\n        /* \"contracts/Pool/Pool.sol\":12302:12446  function _reflectFee(uint256 rFee, uint256 tFee) private {... */\n    tag_400:\n        /* \"contracts/Pool/Pool.sol\":12379:12396  _rTotal.sub(rFee) */\n      tag_430\n        /* \"contracts/Pool/Pool.sol\":12391:12395  rFee */\n      dup3\n        /* \"contracts/Pool/Pool.sol\":12379:12386  _rTotal */\n      sload(0x06)\n        /* \"contracts/Pool/Pool.sol\":12379:12390  _rTotal.sub */\n      tag_394\n      swap1\n        /* \"contracts/Pool/Pool.sol\":12379:12396  _rTotal.sub(rFee) */\n      swap2\n      swap1\n      0xffffffff\n      and\n      jump\t// in\n    tag_430:\n        /* \"contracts/Pool/Pool.sol\":12369:12376  _rTotal */\n      0x06\n        /* \"contracts/Pool/Pool.sol\":12369:12396  _rTotal = _rTotal.sub(rFee) */\n      dup2\n      swap1\n      sstore\n      pop\n        /* \"contracts/Pool/Pool.sol\":12419:12439  _tFeeTotal.add(tFee) */\n      tag_431\n        /* \"contracts/Pool/Pool.sol\":12434:12438  tFee */\n      dup2\n        /* \"contracts/Pool/Pool.sol\":12419:12429  _tFeeTotal */\n      sload(0x07)\n        /* \"contracts/Pool/Pool.sol\":12419:12433  _tFeeTotal.add */\n      tag_396\n      swap1\n        /* \"contracts/Pool/Pool.sol\":12419:12439  _tFeeTotal.add(tFee) */\n      swap2\n      swap1\n      0xffffffff\n      and\n      jump\t// in\n    tag_431:\n        /* \"contracts/Pool/Pool.sol\":12406:12416  _tFeeTotal */\n      0x07\n        /* \"contracts/Pool/Pool.sol\":12406:12439  _tFeeTotal = _tFeeTotal.add(tFee) */\n      dup2\n      swap1\n      sstore\n      pop\n        /* \"contracts/Pool/Pool.sol\":12302:12446  function _reflectFee(uint256 rFee, uint256 tFee) private {... */\n      pop\n      pop\n      jump\t// out\n        /* \"contracts/Pool/Pool.sol\":12961:13307  function _getTValues(uint256 tAmount, uint256 taxFee, uint256 TeamFee) private pure returns (uint256, uint256, uint256) {... */\n    tag_412:\n        /* \"contracts/Pool/Pool.sol\":13054:13061  uint256 */\n      0x00\n        /* \"contracts/Pool/Pool.sol\":13063:13070  uint256 */\n      dup1\n        /* \"contracts/Pool/Pool.sol\":13072:13079  uint256 */\n      0x00\n        /* \"contracts/Pool/Pool.sol\":13091:13103  uint256 tFee */\n      dup1\n        /* \"contracts/Pool/Pool.sol\":13106:13134  tAmount.mul(taxFee).div(100) */\n      tag_433\n        /* \"contracts/Pool/Pool.sol\":13130:13133  100 */\n      0x64\n        /* \"contracts/Pool/Pool.sol\":13106:13125  tAmount.mul(taxFee) */\n      tag_434\n        /* \"contracts/Pool/Pool.sol\":13118:13124  taxFee */\n      dup9\n        /* \"contracts/Pool/Pool.sol\":13106:13113  tAmount */\n      dup11\n        /* \"contracts/Pool/Pool.sol\":13106:13117  tAmount.mul */\n      tag_427\n      swap1\n        /* \"contracts/Pool/Pool.sol\":13106:13125  tAmount.mul(taxFee) */\n      swap2\n      swap1\n      0xffffffff\n      and\n      jump\t// in\n    tag_434:\n        /* \"contracts/Pool/Pool.sol\":13106:13129  tAmount.mul(taxFee).div */\n      tag_348\n      swap1\n        /* \"contracts/Pool/Pool.sol\":13106:13134  tAmount.mul(taxFee).div(100) */\n      swap2\n      swap1\n      0xffffffff\n      and\n      jump\t// in\n    tag_433:\n        /* \"contracts/Pool/Pool.sol\":13091:13134  uint256 tFee = tAmount.mul(taxFee).div(100) */\n      swap1\n      pop\n        /* \"contracts/Pool/Pool.sol\":13144:13157  uint256 tTeam */\n      0x00\n        /* \"contracts/Pool/Pool.sol\":13160:13189  tAmount.mul(TeamFee).div(100) */\n      tag_435\n        /* \"contracts/Pool/Pool.sol\":13185:13188  100 */\n      0x64\n        /* \"contracts/Pool/Pool.sol\":13160:13180  tAmount.mul(TeamFee) */\n      tag_436\n        /* \"contracts/Pool/Pool.sol\":13172:13179  TeamFee */\n      dup9\n        /* \"contracts/Pool/Pool.sol\":13160:13167  tAmount */\n      dup12\n        /* \"contracts/Pool/Pool.sol\":13160:13171  tAmount.mul */\n      tag_427\n      swap1\n        /* \"contracts/Pool/Pool.sol\":13160:13180  tAmount.mul(TeamFee) */\n      swap2\n      swap1\n      0xffffffff\n      and\n      jump\t// in\n    tag_436:\n        /* \"contracts/Pool/Pool.sol\":13160:13184  tAmount.mul(TeamFee).div */\n      tag_348\n      swap1\n        /* \"contracts/Pool/Pool.sol\":13160:13189  tAmount.mul(TeamFee).div(100) */\n      swap2\n      swap1\n      0xffffffff\n      and\n      jump\t// in\n    tag_435:\n        /* \"contracts/Pool/Pool.sol\":13144:13189  uint256 tTeam = tAmount.mul(TeamFee).div(100) */\n      swap1\n      pop\n        /* \"contracts/Pool/Pool.sol\":13199:13222  uint256 tTransferAmount */\n      0x00\n        /* \"contracts/Pool/Pool.sol\":13225:13253  tAmount.sub(tFee).sub(tTeam) */\n      tag_437\n        /* \"contracts/Pool/Pool.sol\":13247:13252  tTeam */\n      dup3\n        /* \"contracts/Pool/Pool.sol\":13225:13242  tAmount.sub(tFee) */\n      tag_438\n        /* \"contracts/Pool/Pool.sol\":13237:13241  tFee */\n      dup6\n        /* \"contracts/Pool/Pool.sol\":13225:13232  tAmount */\n      dup13\n        /* \"contracts/Pool/Pool.sol\":13225:13236  tAmount.sub */\n      tag_394\n      swap1\n        /* \"contracts/Pool/Pool.sol\":13225:13242  tAmount.sub(tFee) */\n      swap2\n      swap1\n      0xffffffff\n      and\n      jump\t// in\n    tag_438:\n        /* \"contracts/Pool/Pool.sol\":13225:13246  tAmount.sub(tFee).sub */\n      tag_394\n      swap1\n        /* \"contracts/Pool/Pool.sol\":13225:13253  tAmount.sub(tFee).sub(tTeam) */\n      swap2\n      swap1\n      0xffffffff\n      and\n      jump\t// in\n    tag_437:\n        /* \"contracts/Pool/Pool.sol\":13199:13253  uint256 tTransferAmount = tAmount.sub(tFee).sub(tTeam) */\n      swap1\n      pop\n        /* \"contracts/Pool/Pool.sol\":13271:13286  tTransferAmount */\n      dup1\n        /* \"contracts/Pool/Pool.sol\":13288:13292  tFee */\n      dup4\n        /* \"contracts/Pool/Pool.sol\":13294:13299  tTeam */\n      dup4\n        /* \"contracts/Pool/Pool.sol\":13263:13300  return (tTransferAmount, tFee, tTeam) */\n      swap6\n      pop\n      swap6\n      pop\n      swap6\n      pop\n      pop\n      pop\n      pop\n        /* \"contracts/Pool/Pool.sol\":12961:13307  function _getTValues(uint256 tAmount, uint256 taxFee, uint256 TeamFee) private pure returns (uint256, uint256, uint256) {... */\n      swap4\n      pop\n      swap4\n      pop\n      swap4\n      swap1\n      pop\n      jump\t// out\n        /* \"contracts/Pool/Pool.sol\":13313:13716  function _getRValues(uint256 tAmount, uint256 tFee, uint256 tTeam, uint256 currentRate) private pure returns (uint256, uint256, uint256) {... */\n    tag_415:\n        /* \"contracts/Pool/Pool.sol\":13423:13430  uint256 */\n      0x00\n        /* \"contracts/Pool/Pool.sol\":13432:13439  uint256 */\n      dup1\n        /* \"contracts/Pool/Pool.sol\":13441:13448  uint256 */\n      0x00\n        /* \"contracts/Pool/Pool.sol\":13460:13475  uint256 rAmount */\n      dup1\n        /* \"contracts/Pool/Pool.sol\":13478:13502  tAmount.mul(currentRate) */\n      tag_440\n        /* \"contracts/Pool/Pool.sol\":13490:13501  currentRate */\n      dup6\n        /* \"contracts/Pool/Pool.sol\":13478:13485  tAmount */\n      dup10\n        /* \"contracts/Pool/Pool.sol\":13478:13489  tAmount.mul */\n      tag_427\n      swap1\n        /* \"contracts/Pool/Pool.sol\":13478:13502  tAmount.mul(currentRate) */\n      swap2\n      swap1\n      0xffffffff\n      and\n      jump\t// in\n    tag_440:\n        /* \"contracts/Pool/Pool.sol\":13460:13502  uint256 rAmount = tAmount.mul(currentRate) */\n      swap1\n      pop\n        /* \"contracts/Pool/Pool.sol\":13512:13524  uint256 rFee */\n      0x00\n        /* \"contracts/Pool/Pool.sol\":13527:13548  tFee.mul(currentRate) */\n      tag_441\n        /* \"contracts/Pool/Pool.sol\":13536:13547  currentRate */\n      dup7\n        /* \"contracts/Pool/Pool.sol\":13527:13531  tFee */\n      dup10\n        /* \"contracts/Pool/Pool.sol\":13527:13535  tFee.mul */\n      tag_427\n      swap1\n        /* \"contracts/Pool/Pool.sol\":13527:13548  tFee.mul(currentRate) */\n      swap2\n      swap1\n      0xffffffff\n      and\n      jump\t// in\n    tag_441:\n        /* \"contracts/Pool/Pool.sol\":13512:13548  uint256 rFee = tFee.mul(currentRate) */\n      swap1\n      pop\n        /* \"contracts/Pool/Pool.sol\":13558:13571  uint256 rTeam */\n      0x00\n        /* \"contracts/Pool/Pool.sol\":13574:13596  tTeam.mul(currentRate) */\n      tag_442\n        /* \"contracts/Pool/Pool.sol\":13584:13595  currentRate */\n      dup8\n        /* \"contracts/Pool/Pool.sol\":13574:13579  tTeam */\n      dup10\n        /* \"contracts/Pool/Pool.sol\":13574:13583  tTeam.mul */\n      tag_427\n      swap1\n        /* \"contracts/Pool/Pool.sol\":13574:13596  tTeam.mul(currentRate) */\n      swap2\n      swap1\n      0xffffffff\n      and\n      jump\t// in\n    tag_442:\n        /* \"contracts/Pool/Pool.sol\":13558:13596  uint256 rTeam = tTeam.mul(currentRate) */\n      swap1\n      pop\n        /* \"contracts/Pool/Pool.sol\":13606:13629  uint256 rTransferAmount */\n      0x00\n        /* \"contracts/Pool/Pool.sol\":13632:13660  rAmount.sub(rFee).sub(rTeam) */\n      tag_443\n        /* \"contracts/Pool/Pool.sol\":13654:13659  rTeam */\n      dup3\n        /* \"contracts/Pool/Pool.sol\":13632:13649  rAmount.sub(rFee) */\n      tag_444\n        /* \"contracts/Pool/Pool.sol\":13644:13648  rFee */\n      dup6\n        /* \"contracts/Pool/Pool.sol\":13632:13639  rAmount */\n      dup8\n        /* \"contracts/Pool/Pool.sol\":13632:13643  rAmount.sub */\n      tag_394\n      swap1\n        /* \"contracts/Pool/Pool.sol\":13632:13649  rAmount.sub(rFee) */\n      swap2\n      swap1\n      0xffffffff\n      and\n      jump\t// in\n    tag_444:\n        /* \"contracts/Pool/Pool.sol\":13632:13653  rAmount.sub(rFee).sub */\n      tag_394\n      swap1\n        /* \"contracts/Pool/Pool.sol\":13632:13660  rAmount.sub(rFee).sub(rTeam) */\n      swap2\n      swap1\n      0xffffffff\n      and\n      jump\t// in\n    tag_443:\n        /* \"contracts/Pool/Pool.sol\":13606:13660  uint256 rTransferAmount = rAmount.sub(rFee).sub(rTeam) */\n      swap1\n      pop\n        /* \"contracts/Pool/Pool.sol\":13678:13685  rAmount */\n      dup4\n        /* \"contracts/Pool/Pool.sol\":13687:13702  rTransferAmount */\n      dup2\n        /* \"contracts/Pool/Pool.sol\":13704:13708  rFee */\n      dup5\n        /* \"contracts/Pool/Pool.sol\":13670:13709  return (rAmount, rTransferAmount, rFee) */\n      swap7\n      pop\n      swap7\n      pop\n      swap7\n      pop\n      pop\n      pop\n      pop\n      pop\n        /* \"contracts/Pool/Pool.sol\":13313:13716  function _getRValues(uint256 tAmount, uint256 tFee, uint256 tTeam, uint256 currentRate) private pure returns (uint256, uint256, uint256) {... */\n      swap5\n      pop\n      swap5\n      pop\n      swap5\n      swap2\n      pop\n      pop\n      jump\t// out\n        /* \"contracts/Pool/Pool.sol\":2359:2598  function mul(uint256 a, uint256 b) internal pure returns (uint256) {... */\n    tag_427:\n        /* \"contracts/Pool/Pool.sol\":2417:2424  uint256 */\n      0x00\n        /* \"contracts/Pool/Pool.sol\":2445:2446  0 */\n      dup1\n        /* \"contracts/Pool/Pool.sol\":2440:2441  a */\n      dup4\n        /* \"contracts/Pool/Pool.sol\":2440:2446  a == 0 */\n      sub\n        /* \"contracts/Pool/Pool.sol\":2436:2481  if (a == 0) {... */\n      tag_446\n      jumpi\n        /* \"contracts/Pool/Pool.sol\":2469:2470  0 */\n      0x00\n        /* \"contracts/Pool/Pool.sol\":2462:2470  return 0 */\n      swap1\n      pop\n      jump(tag_445)\n        /* \"contracts/Pool/Pool.sol\":2436:2481  if (a == 0) {... */\n    tag_446:\n        /* \"contracts/Pool/Pool.sol\":2490:2499  uint256 c */\n      0x00\n        /* \"contracts/Pool/Pool.sol\":2506:2507  b */\n      dup3\n        /* \"contracts/Pool/Pool.sol\":2502:2503  a */\n      dup5\n        /* \"contracts/Pool/Pool.sol\":2502:2507  a * b */\n      tag_447\n      swap2\n      swap1\n      tag_448\n      jump\t// in\n    tag_447:\n        /* \"contracts/Pool/Pool.sol\":2490:2507  uint256 c = a * b */\n      swap1\n      pop\n        /* \"contracts/Pool/Pool.sol\":2534:2535  b */\n      dup3\n        /* \"contracts/Pool/Pool.sol\":2529:2530  a */\n      dup5\n        /* \"contracts/Pool/Pool.sol\":2525:2526  c */\n      dup3\n        /* \"contracts/Pool/Pool.sol\":2525:2530  c / a */\n      tag_449\n      swap2\n      swap1\n      tag_406\n      jump\t// in\n    tag_449:\n        /* \"contracts/Pool/Pool.sol\":2525:2535  c / a == b */\n      eq\n        /* \"contracts/Pool/Pool.sol\":2517:2573  require(c / a == b, \"SafeMath: multiplication overflow\") */\n      tag_450\n      jumpi\n      mload(0x40)\n      0x08c379a000000000000000000000000000000000000000000000000000000000\n      dup2\n      mstore\n      0x04\n      add\n      tag_451\n      swap1\n      tag_452\n      jump\t// in\n    tag_451:\n      mload(0x40)\n      dup1\n      swap2\n      sub\n      swap1\n      revert\n    tag_450:\n        /* \"contracts/Pool/Pool.sol\":2590:2591  c */\n      dup1\n        /* \"contracts/Pool/Pool.sol\":2583:2591  return c */\n      swap2\n      pop\n      pop\n        /* \"contracts/Pool/Pool.sol\":2359:2598  function mul(uint256 a, uint256 b) internal pure returns (uint256) {... */\n    tag_445:\n      swap3\n      swap2\n      pop\n      pop\n      jump\t// out\n        /* \"#utility.yul\":7:106   */\n    tag_453:\n        /* \"#utility.yul\":59:65   */\n      0x00\n        /* \"#utility.yul\":93:98   */\n      dup2\n        /* \"#utility.yul\":87:99   */\n      mload\n        /* \"#utility.yul\":77:99   */\n      swap1\n      pop\n        /* \"#utility.yul\":7:106   */\n      swap2\n      swap1\n      pop\n      jump\t// out\n        /* \"#utility.yul\":112:281   */\n    tag_454:\n        /* \"#utility.yul\":196:207   */\n      0x00\n        /* \"#utility.yul\":230:236   */\n      dup3\n        /* \"#utility.yul\":225:228   */\n      dup3\n        /* \"#utility.yul\":218:237   */\n      mstore\n        /* \"#utility.yul\":270:274   */\n      0x20\n        /* \"#utility.yul\":265:268   */\n      dup3\n        /* \"#utility.yul\":261:275   */\n      add\n        /* \"#utility.yul\":246:275   */\n      swap1\n      pop\n        /* \"#utility.yul\":112:281   */\n      swap3\n      swap2\n      pop\n      pop\n      jump\t// out\n        /* \"#utility.yul\":287:594   */\n    tag_455:\n        /* \"#utility.yul\":355:356   */\n      0x00\n        /* \"#utility.yul\":365:478   */\n    tag_532:\n        /* \"#utility.yul\":379:385   */\n      dup4\n        /* \"#utility.yul\":376:377   */\n      dup2\n        /* \"#utility.yul\":373:386   */\n      lt\n        /* \"#utility.yul\":365:478   */\n      iszero\n      tag_534\n      jumpi\n        /* \"#utility.yul\":464:465   */\n      dup1\n        /* \"#utility.yul\":459:462   */\n      dup3\n        /* \"#utility.yul\":455:466   */\n      add\n        /* \"#utility.yul\":449:467   */\n      mload\n        /* \"#utility.yul\":445:446   */\n      dup2\n        /* \"#utility.yul\":440:443   */\n      dup5\n        /* \"#utility.yul\":436:447   */\n      add\n        /* \"#utility.yul\":429:468   */\n      mstore\n        /* \"#utility.yul\":401:403   */\n      0x20\n        /* \"#utility.yul\":398:399   */\n      dup2\n        /* \"#utility.yul\":394:404   */\n      add\n        /* \"#utility.yul\":389:404   */\n      swap1\n      pop\n        /* \"#utility.yul\":365:478   */\n      jump(tag_532)\n    tag_534:\n        /* \"#utility.yul\":496:502   */\n      dup4\n        /* \"#utility.yul\":493:494   */\n      dup2\n        /* \"#utility.yul\":490:503   */\n      gt\n        /* \"#utility.yul\":487:588   */\n      iszero\n      tag_535\n      jumpi\n        /* \"#utility.yul\":576:577   */\n      0x00\n        /* \"#utility.yul\":567:573   */\n      dup5\n        /* \"#utility.yul\":562:565   */\n      dup5\n        /* \"#utility.yul\":558:574   */\n      add\n        /* \"#utility.yul\":551:578   */\n      mstore\n        /* \"#utility.yul\":487:588   */\n    tag_535:\n        /* \"#utility.yul\":336:594   */\n      pop\n        /* \"#utility.yul\":287:594   */\n      pop\n      pop\n      pop\n      jump\t// out\n        /* \"#utility.yul\":600:702   */\n    tag_456:\n        /* \"#utility.yul\":641:647   */\n      0x00\n        /* \"#utility.yul\":692:694   */\n      0x1f\n        /* \"#utility.yul\":688:695   */\n      not\n        /* \"#utility.yul\":683:685   */\n      0x1f\n        /* \"#utility.yul\":676:681   */\n      dup4\n        /* \"#utility.yul\":672:686   */\n      add\n        /* \"#utility.yul\":668:696   */\n      and\n        /* \"#utility.yul\":658:696   */\n      swap1\n      pop\n        /* \"#utility.yul\":600:702   */\n      swap2\n      swap1\n      pop\n      jump\t// out\n        /* \"#utility.yul\":708:1072   */\n    tag_457:\n        /* \"#utility.yul\":796:799   */\n      0x00\n        /* \"#utility.yul\":824:863   */\n      tag_538\n        /* \"#utility.yul\":857:862   */\n      dup3\n        /* \"#utility.yul\":824:863   */\n      tag_453\n      jump\t// in\n    tag_538:\n        /* \"#utility.yul\":879:950   */\n      tag_539\n        /* \"#utility.yul\":943:949   */\n      dup2\n        /* \"#utility.yul\":938:941   */\n      dup6\n        /* \"#utility.yul\":879:950   */\n      tag_454\n      jump\t// in\n    tag_539:\n        /* \"#utility.yul\":872:950   */\n      swap4\n      pop\n        /* \"#utility.yul\":959:1011   */\n      tag_540\n        /* \"#utility.yul\":1004:1010   */\n      dup2\n        /* \"#utility.yul\":999:1002   */\n      dup6\n        /* \"#utility.yul\":992:996   */\n      0x20\n        /* \"#utility.yul\":985:990   */\n      dup7\n        /* \"#utility.yul\":981:997   */\n      add\n        /* \"#utility.yul\":959:1011   */\n      tag_455\n      jump\t// in\n    tag_540:\n        /* \"#utility.yul\":1036:1065   */\n      tag_541\n        /* \"#utility.yul\":1058:1064   */\n      dup2\n        /* \"#utility.yul\":1036:1065   */\n      tag_456\n      jump\t// in\n    tag_541:\n        /* \"#utility.yul\":1031:1034   */\n      dup5\n        /* \"#utility.yul\":1027:1066   */\n      add\n        /* \"#utility.yul\":1020:1066   */\n      swap2\n      pop\n        /* \"#utility.yul\":800:1072   */\n      pop\n        /* \"#utility.yul\":708:1072   */\n      swap3\n      swap2\n      pop\n      pop\n      jump\t// out\n        /* \"#utility.yul\":1078:1391   */\n    tag_41:\n        /* \"#utility.yul\":1191:1195   */\n      0x00\n        /* \"#utility.yul\":1229:1231   */\n      0x20\n        /* \"#utility.yul\":1218:1227   */\n      dup3\n        /* \"#utility.yul\":1214:1232   */\n      add\n        /* \"#utility.yul\":1206:1232   */\n      swap1\n      pop\n        /* \"#utility.yul\":1278:1287   */\n      dup2\n        /* \"#utility.yul\":1272:1276   */\n      dup2\n        /* \"#utility.yul\":1268:1288   */\n      sub\n        /* \"#utility.yul\":1264:1265   */\n      0x00\n        /* \"#utility.yul\":1253:1262   */\n      dup4\n        /* \"#utility.yul\":1249:1266   */\n      add\n        /* \"#utility.yul\":1242:1289   */\n      mstore\n        /* \"#utility.yul\":1306:1384   */\n      tag_543\n        /* \"#utility.yul\":1379:1383   */\n      dup2\n        /* \"#utility.yul\":1370:1376   */\n      dup5\n        /* \"#utility.yul\":1306:1384   */\n      tag_457\n      jump\t// in\n    tag_543:\n        /* \"#utility.yul\":1298:1384   */\n      swap1\n      pop\n        /* \"#utility.yul\":1078:1391   */\n      swap3\n      swap2\n      pop\n      pop\n      jump\t// out\n        /* \"#utility.yul\":1478:1595   */\n    tag_459:\n        /* \"#utility.yul\":1587:1588   */\n      0x00\n        /* \"#utility.yul\":1584:1585   */\n      dup1\n        /* \"#utility.yul\":1577:1589   */\n      revert\n        /* \"#utility.yul\":1601:1718   */\n    tag_460:\n        /* \"#utility.yul\":1710:1711   */\n      0x00\n        /* \"#utility.yul\":1707:1708   */\n      dup1\n        /* \"#utility.yul\":1700:1712   */\n      revert\n        /* \"#utility.yul\":1724:1850   */\n    tag_461:\n        /* \"#utility.yul\":1761:1768   */\n      0x00\n        /* \"#utility.yul\":1801:1843   */\n      0xffffffffffffffffffffffffffffffffffffffff\n        /* \"#utility.yul\":1794:1799   */\n      dup3\n        /* \"#utility.yul\":1790:1844   */\n      and\n        /* \"#utility.yul\":1779:1844   */\n      swap1\n      pop\n        /* \"#utility.yul\":1724:1850   */\n      swap2\n      swap1\n      pop\n      jump\t// out\n        /* \"#utility.yul\":1856:1952   */\n    tag_462:\n        /* \"#utility.yul\":1893:1900   */\n      0x00\n        /* \"#utility.yul\":1922:1946   */\n      tag_549\n        /* \"#utility.yul\":1940:1945   */\n      dup3\n        /* \"#utility.yul\":1922:1946   */\n      tag_461\n      jump\t// in\n    tag_549:\n        /* \"#utility.yul\":1911:1946   */\n      swap1\n      pop\n        /* \"#utility.yul\":1856:1952   */\n      swap2\n      swap1\n      pop\n      jump\t// out\n        /* \"#utility.yul\":1958:2080   */\n    tag_463:\n        /* \"#utility.yul\":2031:2055   */\n      tag_551\n        /* \"#utility.yul\":2049:2054   */\n      dup2\n        /* \"#utility.yul\":2031:2055   */\n      tag_462\n      jump\t// in\n    tag_551:\n        /* \"#utility.yul\":2024:2029   */\n      dup2\n        /* \"#utility.yul\":2021:2056   */\n      eq\n        /* \"#utility.yul\":2011:2074   */\n      tag_552\n      jumpi\n        /* \"#utility.yul\":2070:2071   */\n      0x00\n        /* \"#utility.yul\":2067:2068   */\n      dup1\n        /* \"#utility.yul\":2060:2072   */\n      revert\n        /* \"#utility.yul\":2011:2074   */\n    tag_552:\n        /* \"#utility.yul\":1958:2080   */\n      pop\n      jump\t// out\n        /* \"#utility.yul\":2086:2225   */\n    tag_464:\n        /* \"#utility.yul\":2132:2137   */\n      0x00\n        /* \"#utility.yul\":2170:2176   */\n      dup2\n        /* \"#utility.yul\":2157:2177   */\n      calldataload\n        /* \"#utility.yul\":2148:2177   */\n      swap1\n      pop\n        /* \"#utility.yul\":2186:2219   */\n      tag_554\n        /* \"#utility.yul\":2213:2218   */\n      dup2\n        /* \"#utility.yul\":2186:2219   */\n      tag_463\n      jump\t// in\n    tag_554:\n        /* \"#utility.yul\":2086:2225   */\n      swap3\n      swap2\n      pop\n      pop\n      jump\t// out\n        /* \"#utility.yul\":2231:2308   */\n    tag_465:\n        /* \"#utility.yul\":2268:2275   */\n      0x00\n        /* \"#utility.yul\":2297:2302   */\n      dup2\n        /* \"#utility.yul\":2286:2302   */\n      swap1\n      pop\n        /* \"#utility.yul\":2231:2308   */\n      swap2\n      swap1\n      pop\n      jump\t// out\n        /* \"#utility.yul\":2314:2436   */\n    tag_466:\n        /* \"#utility.yul\":2387:2411   */\n      tag_557\n        /* \"#utility.yul\":2405:2410   */\n      dup2\n        /* \"#utility.yul\":2387:2411   */\n      tag_465\n      jump\t// in\n    tag_557:\n        /* \"#utility.yul\":2380:2385   */\n      dup2\n        /* \"#utility.yul\":2377:2412   */\n      eq\n        /* \"#utility.yul\":2367:2430   */\n      tag_558\n      jumpi\n        /* \"#utility.yul\":2426:2427   */\n      0x00\n        /* \"#utility.yul\":2423:2424   */\n      dup1\n        /* \"#utility.yul\":2416:2428   */\n      revert\n        /* \"#utility.yul\":2367:2430   */\n    tag_558:\n        /* \"#utility.yul\":2314:2436   */\n      pop\n      jump\t// out\n        /* \"#utility.yul\":2442:2581   */\n    tag_467:\n        /* \"#utility.yul\":2488:2493   */\n      0x00\n        /* \"#utility.yul\":2526:2532   */\n      dup2\n        /* \"#utility.yul\":2513:2533   */\n      calldataload\n        /* \"#utility.yul\":2504:2533   */\n      swap1\n      pop\n        /* \"#utility.yul\":2542:2575   */\n      tag_560\n        /* \"#utility.yul\":2569:2574   */\n      dup2\n        /* \"#utility.yul\":2542:2575   */\n      tag_466\n      jump\t// in\n    tag_560:\n        /* \"#utility.yul\":2442:2581   */\n      swap3\n      swap2\n      pop\n      pop\n      jump\t// out\n        /* \"#utility.yul\":2587:3061   */\n    tag_45:\n        /* \"#utility.yul\":2655:2661   */\n      0x00\n        /* \"#utility.yul\":2663:2669   */\n      dup1\n        /* \"#utility.yul\":2712:2714   */\n      0x40\n        /* \"#utility.yul\":2700:2709   */\n      dup4\n        /* \"#utility.yul\":2691:2698   */\n      dup6\n        /* \"#utility.yul\":2687:2710   */\n      sub\n        /* \"#utility.yul\":2683:2715   */\n      slt\n        /* \"#utility.yul\":2680:2799   */\n      iszero\n      tag_562\n      jumpi\n        /* \"#utility.yul\":2718:2797   */\n      tag_563\n      tag_459\n      jump\t// in\n    tag_563:\n        /* \"#utility.yul\":2680:2799   */\n    tag_562:\n        /* \"#utility.yul\":2838:2839   */\n      0x00\n        /* \"#utility.yul\":2863:2916   */\n      tag_564\n        /* \"#utility.yul\":2908:2915   */\n      dup6\n        /* \"#utility.yul\":2899:2905   */\n      dup3\n        /* \"#utility.yul\":2888:2897   */\n      dup7\n        /* \"#utility.yul\":2884:2906   */\n      add\n        /* \"#utility.yul\":2863:2916   */\n      tag_464\n      jump\t// in\n    tag_564:\n        /* \"#utility.yul\":2853:2916   */\n      swap3\n      pop\n        /* \"#utility.yul\":2809:2926   */\n      pop\n        /* \"#utility.yul\":2965:2967   */\n      0x20\n        /* \"#utility.yul\":2991:3044   */\n      tag_565\n        /* \"#utility.yul\":3036:3043   */\n      dup6\n        /* \"#utility.yul\":3027:3033   */\n      dup3\n        /* \"#utility.yul\":3016:3025   */\n      dup7\n        /* \"#utility.yul\":3012:3034   */\n      add\n        /* \"#utility.yul\":2991:3044   */\n      tag_467\n      jump\t// in\n    tag_565:\n        /* \"#utility.yul\":2981:3044   */\n      swap2\n      pop\n        /* \"#utility.yul\":2936:3054   */\n      pop\n        /* \"#utility.yul\":2587:3061   */\n      swap3\n      pop\n      swap3\n      swap1\n      pop\n      jump\t// out\n        /* \"#utility.yul\":3067:3157   */\n    tag_468:\n        /* \"#utility.yul\":3101:3108   */\n      0x00\n        /* \"#utility.yul\":3144:3149   */\n      dup2\n        /* \"#utility.yul\":3137:3150   */\n      iszero\n        /* \"#utility.yul\":3130:3151   */\n      iszero\n        /* \"#utility.yul\":3119:3151   */\n      swap1\n      pop\n        /* \"#utility.yul\":3067:3157   */\n      swap2\n      swap1\n      pop\n      jump\t// out\n        /* \"#utility.yul\":3163:3272   */\n    tag_469:\n        /* \"#utility.yul\":3244:3265   */\n      tag_568\n        /* \"#utility.yul\":3259:3264   */\n      dup2\n        /* \"#utility.yul\":3244:3265   */\n      tag_468\n      jump\t// in\n    tag_568:\n        /* \"#utility.yul\":3239:3242   */\n      dup3\n        /* \"#utility.yul\":3232:3266   */\n      mstore\n        /* \"#utility.yul\":3163:3272   */\n      pop\n      pop\n      jump\t// out\n        /* \"#utility.yul\":3278:3488   */\n    tag_48:\n        /* \"#utility.yul\":3365:3369   */\n      0x00\n        /* \"#utility.yul\":3403:3405   */\n      0x20\n        /* \"#utility.yul\":3392:3401   */\n      dup3\n        /* \"#utility.yul\":3388:3406   */\n      add\n        /* \"#utility.yul\":3380:3406   */\n      swap1\n      pop\n        /* \"#utility.yul\":3416:3481   */\n      tag_570\n        /* \"#utility.yul\":3478:3479   */\n      0x00\n        /* \"#utility.yul\":3467:3476   */\n      dup4\n        /* \"#utility.yul\":3463:3480   */\n      add\n        /* \"#utility.yul\":3454:3460   */\n      dup5\n        /* \"#utility.yul\":3416:3481   */\n      tag_469\n      jump\t// in\n    tag_570:\n        /* \"#utility.yul\":3278:3488   */\n      swap3\n      swap2\n      pop\n      pop\n      jump\t// out\n        /* \"#utility.yul\":3494:3554   */\n    tag_470:\n        /* \"#utility.yul\":3522:3525   */\n      0x00\n        /* \"#utility.yul\":3543:3548   */\n      dup2\n        /* \"#utility.yul\":3536:3548   */\n      swap1\n      pop\n        /* \"#utility.yul\":3494:3554   */\n      swap2\n      swap1\n      pop\n      jump\t// out\n        /* \"#utility.yul\":3560:3702   */\n    tag_471:\n        /* \"#utility.yul\":3610:3619   */\n      0x00\n        /* \"#utility.yul\":3643:3696   */\n      tag_573\n        /* \"#utility.yul\":3661:3695   */\n      tag_574\n        /* \"#utility.yul\":3670:3694   */\n      tag_575\n        /* \"#utility.yul\":3688:3693   */\n      dup5\n        /* \"#utility.yul\":3670:3694   */\n      tag_461\n      jump\t// in\n    tag_575:\n        /* \"#utility.yul\":3661:3695   */\n      tag_470\n      jump\t// in\n    tag_574:\n        /* \"#utility.yul\":3643:3696   */\n      tag_461\n      jump\t// in\n    tag_573:\n        /* \"#utility.yul\":3630:3696   */\n      swap1\n      pop\n        /* \"#utility.yul\":3560:3702   */\n      swap2\n      swap1\n      pop\n      jump\t// out\n        /* \"#utility.yul\":3708:3834   */\n    tag_472:\n        /* \"#utility.yul\":3758:3767   */\n      0x00\n        /* \"#utility.yul\":3791:3828   */\n      tag_577\n        /* \"#utility.yul\":3822:3827   */\n      dup3\n        /* \"#utility.yul\":3791:3828   */\n      tag_471\n      jump\t// in\n    tag_577:\n        /* \"#utility.yul\":3778:3828   */\n      swap1\n      pop\n        /* \"#utility.yul\":3708:3834   */\n      swap2\n      swap1\n      pop\n      jump\t// out\n        /* \"#utility.yul\":3840:3992   */\n    tag_473:\n        /* \"#utility.yul\":3916:3925   */\n      0x00\n        /* \"#utility.yul\":3949:3986   */\n      tag_579\n        /* \"#utility.yul\":3980:3985   */\n      dup3\n        /* \"#utility.yul\":3949:3986   */\n      tag_472\n      jump\t// in\n    tag_579:\n        /* \"#utility.yul\":3936:3986   */\n      swap1\n      pop\n        /* \"#utility.yul\":3840:3992   */\n      swap2\n      swap1\n      pop\n      jump\t// out\n        /* \"#utility.yul\":3998:4181   */\n    tag_474:\n        /* \"#utility.yul\":4111:4174   */\n      tag_581\n        /* \"#utility.yul\":4168:4173   */\n      dup2\n        /* \"#utility.yul\":4111:4174   */\n      tag_473\n      jump\t// in\n    tag_581:\n        /* \"#utility.yul\":4106:4109   */\n      dup3\n        /* \"#utility.yul\":4099:4175   */\n      mstore\n        /* \"#utility.yul\":3998:4181   */\n      pop\n      pop\n      jump\t// out\n        /* \"#utility.yul\":4187:4461   */\n    tag_53:\n        /* \"#utility.yul\":4306:4310   */\n      0x00\n        /* \"#utility.yul\":4344:4346   */\n      0x20\n        /* \"#utility.yul\":4333:4342   */\n      dup3\n        /* \"#utility.yul\":4329:4347   */\n      add\n        /* \"#utility.yul\":4321:4347   */\n      swap1\n      pop\n        /* \"#utility.yul\":4357:4454   */\n      tag_583\n        /* \"#utility.yul\":4451:4452   */\n      0x00\n        /* \"#utility.yul\":4440:4449   */\n      dup4\n        /* \"#utility.yul\":4436:4453   */\n      add\n        /* \"#utility.yul\":4427:4433   */\n      dup5\n        /* \"#utility.yul\":4357:4454   */\n      tag_474\n      jump\t// in\n    tag_583:\n        /* \"#utility.yul\":4187:4461   */\n      swap3\n      swap2\n      pop\n      pop\n      jump\t// out\n        /* \"#utility.yul\":4467:4585   */\n    tag_475:\n        /* \"#utility.yul\":4554:4578   */\n      tag_585\n        /* \"#utility.yul\":4572:4577   */\n      dup2\n        /* \"#utility.yul\":4554:4578   */\n      tag_465\n      jump\t// in\n    tag_585:\n        /* \"#utility.yul\":4549:4552   */\n      dup3\n        /* \"#utility.yul\":4542:4579   */\n      mstore\n        /* \"#utility.yul\":4467:4585   */\n      pop\n      pop\n      jump\t// out\n        /* \"#utility.yul\":4591:4813   */\n    tag_58:\n        /* \"#utility.yul\":4684:4688   */\n      0x00\n        /* \"#utility.yul\":4722:4724   */\n      0x20\n        /* \"#utility.yul\":4711:4720   */\n      dup3\n        /* \"#utility.yul\":4707:4725   */\n      add\n        /* \"#utility.yul\":4699:4725   */\n      swap1\n      pop\n        /* \"#utility.yul\":4735:4806   */\n      tag_587\n        /* \"#utility.yul\":4803:4804   */\n      0x00\n        /* \"#utility.yul\":4792:4801   */\n      dup4\n        /* \"#utility.yul\":4788:4805   */\n      add\n        /* \"#utility.yul\":4779:4785   */\n      dup5\n        /* \"#utility.yul\":4735:4806   */\n      tag_475\n      jump\t// in\n    tag_587:\n        /* \"#utility.yul\":4591:4813   */\n      swap3\n      swap2\n      pop\n      pop\n      jump\t// out\n        /* \"#utility.yul\":4819:5438   */\n    tag_62:\n        /* \"#utility.yul\":4896:4902   */\n      0x00\n        /* \"#utility.yul\":4904:4910   */\n      dup1\n        /* \"#utility.yul\":4912:4918   */\n      0x00\n        /* \"#utility.yul\":4961:4963   */\n      0x60\n        /* \"#utility.yul\":4949:4958   */\n      dup5\n        /* \"#utility.yul\":4940:4947   */\n      dup7\n        /* \"#utility.yul\":4936:4959   */\n      sub\n        /* \"#utility.yul\":4932:4964   */\n      slt\n        /* \"#utility.yul\":4929:5048   */\n      iszero\n      tag_589\n      jumpi\n        /* \"#utility.yul\":4967:5046   */\n      tag_590\n      tag_459\n      jump\t// in\n    tag_590:\n        /* \"#utility.yul\":4929:5048   */\n    tag_589:\n        /* \"#utility.yul\":5087:5088   */\n      0x00\n        /* \"#utility.yul\":5112:5165   */\n      tag_591\n        /* \"#utility.yul\":5157:5164   */\n      dup7\n        /* \"#utility.yul\":5148:5154   */\n      dup3\n        /* \"#utility.yul\":5137:5146   */\n      dup8\n        /* \"#utility.yul\":5133:5155   */\n      add\n        /* \"#utility.yul\":5112:5165   */\n      tag_464\n      jump\t// in\n    tag_591:\n        /* \"#utility.yul\":5102:5165   */\n      swap4\n      pop\n        /* \"#utility.yul\":5058:5175   */\n      pop\n        /* \"#utility.yul\":5214:5216   */\n      0x20\n        /* \"#utility.yul\":5240:5293   */\n      tag_592\n        /* \"#utility.yul\":5285:5292   */\n      dup7\n        /* \"#utility.yul\":5276:5282   */\n      dup3\n        /* \"#utility.yul\":5265:5274   */\n      dup8\n        /* \"#utility.yul\":5261:5283   */\n      add\n        /* \"#utility.yul\":5240:5293   */\n      tag_464\n      jump\t// in\n    tag_592:\n        /* \"#utility.yul\":5230:5293   */\n      swap3\n      pop\n        /* \"#utility.yul\":5185:5303   */\n      pop\n        /* \"#utility.yul\":5342:5344   */\n      0x40\n        /* \"#utility.yul\":5368:5421   */\n      tag_593\n        /* \"#utility.yul\":5413:5420   */\n      dup7\n        /* \"#utility.yul\":5404:5410   */\n      dup3\n        /* \"#utility.yul\":5393:5402   */\n      dup8\n        /* \"#utility.yul\":5389:5411   */\n      add\n        /* \"#utility.yul\":5368:5421   */\n      tag_467\n      jump\t// in\n    tag_593:\n        /* \"#utility.yul\":5358:5421   */\n      swap2\n      pop\n        /* \"#utility.yul\":5313:5431   */\n      pop\n        /* \"#utility.yul\":4819:5438   */\n      swap3\n      pop\n      swap3\n      pop\n      swap3\n      jump\t// out\n        /* \"#utility.yul\":5444:5562   */\n    tag_476:\n        /* \"#utility.yul\":5531:5555   */\n      tag_595\n        /* \"#utility.yul\":5549:5554   */\n      dup2\n        /* \"#utility.yul\":5531:5555   */\n      tag_462\n      jump\t// in\n    tag_595:\n        /* \"#utility.yul\":5526:5529   */\n      dup3\n        /* \"#utility.yul\":5519:5556   */\n      mstore\n        /* \"#utility.yul\":5444:5562   */\n      pop\n      pop\n      jump\t// out\n        /* \"#utility.yul\":5568:5790   */\n    tag_69:\n        /* \"#utility.yul\":5661:5665   */\n      0x00\n        /* \"#utility.yul\":5699:5701   */\n      0x20\n        /* \"#utility.yul\":5688:5697   */\n      dup3\n        /* \"#utility.yul\":5684:5702   */\n      add\n        /* \"#utility.yul\":5676:5702   */\n      swap1\n      pop\n        /* \"#utility.yul\":5712:5783   */\n      tag_597\n        /* \"#utility.yul\":5780:5781   */\n      0x00\n        /* \"#utility.yul\":5769:5778   */\n      dup4\n        /* \"#utility.yul\":5765:5782   */\n      add\n        /* \"#utility.yul\":5756:5762   */\n      dup5\n        /* \"#utility.yul\":5712:5783   */\n      tag_476\n      jump\t// in\n    tag_597:\n        /* \"#utility.yul\":5568:5790   */\n      swap3\n      swap2\n      pop\n      pop\n      jump\t// out\n        /* \"#utility.yul\":5796:5882   */\n    tag_477:\n        /* \"#utility.yul\":5831:5838   */\n      0x00\n        /* \"#utility.yul\":5871:5875   */\n      0xff\n        /* \"#utility.yul\":5864:5869   */\n      dup3\n        /* \"#utility.yul\":5860:5876   */\n      and\n        /* \"#utility.yul\":5849:5876   */\n      swap1\n      pop\n        /* \"#utility.yul\":5796:5882   */\n      swap2\n      swap1\n      pop\n      jump\t// out\n        /* \"#utility.yul\":5888:6000   */\n    tag_478:\n        /* \"#utility.yul\":5971:5993   */\n      tag_600\n        /* \"#utility.yul\":5987:5992   */\n      dup2\n        /* \"#utility.yul\":5971:5993   */\n      tag_477\n      jump\t// in\n    tag_600:\n        /* \"#utility.yul\":5966:5969   */\n      dup3\n        /* \"#utility.yul\":5959:5994   */\n      mstore\n        /* \"#utility.yul\":5888:6000   */\n      pop\n      pop\n      jump\t// out\n        /* \"#utility.yul\":6006:6220   */\n    tag_74:\n        /* \"#utility.yul\":6095:6099   */\n      0x00\n        /* \"#utility.yul\":6133:6135   */\n      0x20\n        /* \"#utility.yul\":6122:6131   */\n      dup3\n        /* \"#utility.yul\":6118:6136   */\n      add\n        /* \"#utility.yul\":6110:6136   */\n      swap1\n      pop\n        /* \"#utility.yul\":6146:6213   */\n      tag_602\n        /* \"#utility.yul\":6210:6211   */\n      0x00\n        /* \"#utility.yul\":6199:6208   */\n      dup4\n        /* \"#utility.yul\":6195:6212   */\n      add\n        /* \"#utility.yul\":6186:6192   */\n      dup5\n        /* \"#utility.yul\":6146:6213   */\n      tag_478\n      jump\t// in\n    tag_602:\n        /* \"#utility.yul\":6006:6220   */\n      swap3\n      swap2\n      pop\n      pop\n      jump\t// out\n        /* \"#utility.yul\":6226:6376   */\n    tag_479:\n        /* \"#utility.yul\":6300:6309   */\n      0x00\n        /* \"#utility.yul\":6333:6370   */\n      tag_604\n        /* \"#utility.yul\":6364:6369   */\n      dup3\n        /* \"#utility.yul\":6333:6370   */\n      tag_472\n      jump\t// in\n    tag_604:\n        /* \"#utility.yul\":6320:6370   */\n      swap1\n      pop\n        /* \"#utility.yul\":6226:6376   */\n      swap2\n      swap1\n      pop\n      jump\t// out\n        /* \"#utility.yul\":6382:6561   */\n    tag_480:\n        /* \"#utility.yul\":6493:6554   */\n      tag_606\n        /* \"#utility.yul\":6548:6553   */\n      dup2\n        /* \"#utility.yul\":6493:6554   */\n      tag_479\n      jump\t// in\n    tag_606:\n        /* \"#utility.yul\":6488:6491   */\n      dup3\n        /* \"#utility.yul\":6481:6555   */\n      mstore\n        /* \"#utility.yul\":6382:6561   */\n      pop\n      pop\n      jump\t// out\n        /* \"#utility.yul\":6567:6837   */\n    tag_83:\n        /* \"#utility.yul\":6684:6688   */\n      0x00\n        /* \"#utility.yul\":6722:6724   */\n      0x20\n        /* \"#utility.yul\":6711:6720   */\n      dup3\n        /* \"#utility.yul\":6707:6725   */\n      add\n        /* \"#utility.yul\":6699:6725   */\n      swap1\n      pop\n        /* \"#utility.yul\":6735:6830   */\n      tag_608\n        /* \"#utility.yul\":6827:6828   */\n      0x00\n        /* \"#utility.yul\":6816:6825   */\n      dup4\n        /* \"#utility.yul\":6812:6829   */\n      add\n        /* \"#utility.yul\":6803:6809   */\n      dup5\n        /* \"#utility.yul\":6735:6830   */\n      tag_480\n      jump\t// in\n    tag_608:\n        /* \"#utility.yul\":6567:6837   */\n      swap3\n      swap2\n      pop\n      pop\n      jump\t// out\n        /* \"#utility.yul\":6843:6959   */\n    tag_481:\n        /* \"#utility.yul\":6913:6934   */\n      tag_610\n        /* \"#utility.yul\":6928:6933   */\n      dup2\n        /* \"#utility.yul\":6913:6934   */\n      tag_468\n      jump\t// in\n    tag_610:\n        /* \"#utility.yul\":6906:6911   */\n      dup2\n        /* \"#utility.yul\":6903:6935   */\n      eq\n        /* \"#utility.yul\":6893:6953   */\n      tag_611\n      jumpi\n        /* \"#utility.yul\":6949:6950   */\n      0x00\n        /* \"#utility.yul\":6946:6947   */\n      dup1\n        /* \"#utility.yul\":6939:6951   */\n      revert\n        /* \"#utility.yul\":6893:6953   */\n    tag_611:\n        /* \"#utility.yul\":6843:6959   */\n      pop\n      jump\t// out\n        /* \"#utility.yul\":6965:7098   */\n    tag_482:\n        /* \"#utility.yul\":7008:7013   */\n      0x00\n        /* \"#utility.yul\":7046:7052   */\n      dup2\n        /* \"#utility.yul\":7033:7053   */\n      calldataload\n        /* \"#utility.yul\":7024:7053   */\n      swap1\n      pop\n        /* \"#utility.yul\":7062:7092   */\n      tag_613\n        /* \"#utility.yul\":7086:7091   */\n      dup2\n        /* \"#utility.yul\":7062:7092   */\n      tag_481\n      jump\t// in\n    tag_613:\n        /* \"#utility.yul\":6965:7098   */\n      swap3\n      swap2\n      pop\n      pop\n      jump\t// out\n        /* \"#utility.yul\":7104:7427   */\n    tag_87:\n        /* \"#utility.yul\":7160:7166   */\n      0x00\n        /* \"#utility.yul\":7209:7211   */\n      0x20\n        /* \"#utility.yul\":7197:7206   */\n      dup3\n        /* \"#utility.yul\":7188:7195   */\n      dup5\n        /* \"#utility.yul\":7184:7207   */\n      sub\n        /* \"#utility.yul\":7180:7212   */\n      slt\n        /* \"#utility.yul\":7177:7296   */\n      iszero\n      tag_615\n      jumpi\n        /* \"#utility.yul\":7215:7294   */\n      tag_616\n      tag_459\n      jump\t// in\n    tag_616:\n        /* \"#utility.yul\":7177:7296   */\n    tag_615:\n        /* \"#utility.yul\":7335:7336   */\n      0x00\n        /* \"#utility.yul\":7360:7410   */\n      tag_617\n        /* \"#utility.yul\":7402:7409   */\n      dup5\n        /* \"#utility.yul\":7393:7399   */\n      dup3\n        /* \"#utility.yul\":7382:7391   */\n      dup6\n        /* \"#utility.yul\":7378:7400   */\n      add\n        /* \"#utility.yul\":7360:7410   */\n      tag_482\n      jump\t// in\n    tag_617:\n        /* \"#utility.yul\":7350:7410   */\n      swap2\n      pop\n        /* \"#utility.yul\":7306:7420   */\n      pop\n        /* \"#utility.yul\":7104:7427   */\n      swap3\n      swap2\n      pop\n      pop\n      jump\t// out\n        /* \"#utility.yul\":7433:7762   */\n    tag_95:\n        /* \"#utility.yul\":7492:7498   */\n      0x00\n        /* \"#utility.yul\":7541:7543   */\n      0x20\n        /* \"#utility.yul\":7529:7538   */\n      dup3\n        /* \"#utility.yul\":7520:7527   */\n      dup5\n        /* \"#utility.yul\":7516:7539   */\n      sub\n        /* \"#utility.yul\":7512:7544   */\n      slt\n        /* \"#utility.yul\":7509:7628   */\n      iszero\n      tag_619\n      jumpi\n        /* \"#utility.yul\":7547:7626   */\n      tag_620\n      tag_459\n      jump\t// in\n    tag_620:\n        /* \"#utility.yul\":7509:7628   */\n    tag_619:\n        /* \"#utility.yul\":7667:7668   */\n      0x00\n        /* \"#utility.yul\":7692:7745   */\n      tag_621\n        /* \"#utility.yul\":7737:7744   */\n      dup5\n        /* \"#utility.yul\":7728:7734   */\n      dup3\n        /* \"#utility.yul\":7717:7726   */\n      dup6\n        /* \"#utility.yul\":7713:7735   */\n      add\n        /* \"#utility.yul\":7692:7745   */\n      tag_464\n      jump\t// in\n    tag_621:\n        /* \"#utility.yul\":7682:7745   */\n      swap2\n      pop\n        /* \"#utility.yul\":7638:7755   */\n      pop\n        /* \"#utility.yul\":7433:7762   */\n      swap3\n      swap2\n      pop\n      pop\n      jump\t// out\n        /* \"#utility.yul\":7768:7872   */\n    tag_483:\n        /* \"#utility.yul\":7813:7820   */\n      0x00\n        /* \"#utility.yul\":7842:7866   */\n      tag_623\n        /* \"#utility.yul\":7860:7865   */\n      dup3\n        /* \"#utility.yul\":7842:7866   */\n      tag_461\n      jump\t// in\n    tag_623:\n        /* \"#utility.yul\":7831:7866   */\n      swap1\n      pop\n        /* \"#utility.yul\":7768:7872   */\n      swap2\n      swap1\n      pop\n      jump\t// out\n        /* \"#utility.yul\":7878:8016   */\n    tag_484:\n        /* \"#utility.yul\":7959:7991   */\n      tag_625\n        /* \"#utility.yul\":7985:7990   */\n      dup2\n        /* \"#utility.yul\":7959:7991   */\n      tag_483\n      jump\t// in\n    tag_625:\n        /* \"#utility.yul\":7952:7957   */\n      dup2\n        /* \"#utility.yul\":7949:7992   */\n      eq\n        /* \"#utility.yul\":7939:8010   */\n      tag_626\n      jumpi\n        /* \"#utility.yul\":8006:8007   */\n      0x00\n        /* \"#utility.yul\":8003:8004   */\n      dup1\n        /* \"#utility.yul\":7996:8008   */\n      revert\n        /* \"#utility.yul\":7939:8010   */\n    tag_626:\n        /* \"#utility.yul\":7878:8016   */\n      pop\n      jump\t// out\n        /* \"#utility.yul\":8022:8177   */\n    tag_485:\n        /* \"#utility.yul\":8076:8081   */\n      0x00\n        /* \"#utility.yul\":8114:8120   */\n      dup2\n        /* \"#utility.yul\":8101:8121   */\n      calldataload\n        /* \"#utility.yul\":8092:8121   */\n      swap1\n      pop\n        /* \"#utility.yul\":8130:8171   */\n      tag_628\n        /* \"#utility.yul\":8165:8170   */\n      dup2\n        /* \"#utility.yul\":8130:8171   */\n      tag_484\n      jump\t// in\n    tag_628:\n        /* \"#utility.yul\":8022:8177   */\n      swap3\n      swap2\n      pop\n      pop\n      jump\t// out\n        /* \"#utility.yul\":8183:8528   */\n    tag_104:\n        /* \"#utility.yul\":8250:8256   */\n      0x00\n        /* \"#utility.yul\":8299:8301   */\n      0x20\n        /* \"#utility.yul\":8287:8296   */\n      dup3\n        /* \"#utility.yul\":8278:8285   */\n      dup5\n        /* \"#utility.yul\":8274:8297   */\n      sub\n        /* \"#utility.yul\":8270:8302   */\n      slt\n        /* \"#utility.yul\":8267:8386   */\n      iszero\n      tag_630\n      jumpi\n        /* \"#utility.yul\":8305:8384   */\n      tag_631\n      tag_459\n      jump\t// in\n    tag_631:\n        /* \"#utility.yul\":8267:8386   */\n    tag_630:\n        /* \"#utility.yul\":8425:8426   */\n      0x00\n        /* \"#utility.yul\":8450:8511   */\n      tag_632\n        /* \"#utility.yul\":8503:8510   */\n      dup5\n        /* \"#utility.yul\":8494:8500   */\n      dup3\n        /* \"#utility.yul\":8483:8492   */\n      dup6\n        /* \"#utility.yul\":8479:8501   */\n      add\n        /* \"#utility.yul\":8450:8511   */\n      tag_485\n      jump\t// in\n    tag_632:\n        /* \"#utility.yul\":8440:8511   */\n      swap2\n      pop\n        /* \"#utility.yul\":8396:8521   */\n      pop\n        /* \"#utility.yul\":8183:8528   */\n      swap3\n      swap2\n      pop\n      pop\n      jump\t// out\n        /* \"#utility.yul\":8534:9299   */\n    tag_117:\n        /* \"#utility.yul\":8620:8626   */\n      0x00\n        /* \"#utility.yul\":8628:8634   */\n      dup1\n        /* \"#utility.yul\":8636:8642   */\n      0x00\n        /* \"#utility.yul\":8644:8650   */\n      dup1\n        /* \"#utility.yul\":8693:8696   */\n      0x80\n        /* \"#utility.yul\":8681:8690   */\n      dup6\n        /* \"#utility.yul\":8672:8679   */\n      dup8\n        /* \"#utility.yul\":8668:8691   */\n      sub\n        /* \"#utility.yul\":8664:8697   */\n      slt\n        /* \"#utility.yul\":8661:8781   */\n      iszero\n      tag_634\n      jumpi\n        /* \"#utility.yul\":8700:8779   */\n      tag_635\n      tag_459\n      jump\t// in\n    tag_635:\n        /* \"#utility.yul\":8661:8781   */\n    tag_634:\n        /* \"#utility.yul\":8820:8821   */\n      0x00\n        /* \"#utility.yul\":8845:8898   */\n      tag_636\n        /* \"#utility.yul\":8890:8897   */\n      dup8\n        /* \"#utility.yul\":8881:8887   */\n      dup3\n        /* \"#utility.yul\":8870:8879   */\n      dup9\n        /* \"#utility.yul\":8866:8888   */\n      add\n        /* \"#utility.yul\":8845:8898   */\n      tag_467\n      jump\t// in\n    tag_636:\n        /* \"#utility.yul\":8835:8898   */\n      swap5\n      pop\n        /* \"#utility.yul\":8791:8908   */\n      pop\n        /* \"#utility.yul\":8947:8949   */\n      0x20\n        /* \"#utility.yul\":8973:9026   */\n      tag_637\n        /* \"#utility.yul\":9018:9025   */\n      dup8\n        /* \"#utility.yul\":9009:9015   */\n      dup3\n        /* \"#utility.yul\":8998:9007   */\n      dup9\n        /* \"#utility.yul\":8994:9016   */\n      add\n        /* \"#utility.yul\":8973:9026   */\n      tag_467\n      jump\t// in\n    tag_637:\n        /* \"#utility.yul\":8963:9026   */\n      swap4\n      pop\n        /* \"#utility.yul\":8918:9036   */\n      pop\n        /* \"#utility.yul\":9075:9077   */\n      0x40\n        /* \"#utility.yul\":9101:9154   */\n      tag_638\n        /* \"#utility.yul\":9146:9153   */\n      dup8\n        /* \"#utility.yul\":9137:9143   */\n      dup3\n        /* \"#utility.yul\":9126:9135   */\n      dup9\n        /* \"#utility.yul\":9122:9144   */\n      add\n        /* \"#utility.yul\":9101:9154   */\n      tag_467\n      jump\t// in\n    tag_638:\n        /* \"#utility.yul\":9091:9154   */\n      swap3\n      pop\n        /* \"#utility.yul\":9046:9164   */\n      pop\n        /* \"#utility.yul\":9203:9205   */\n      0x60\n        /* \"#utility.yul\":9229:9282   */\n      tag_639\n        /* \"#utility.yul\":9274:9281   */\n      dup8\n        /* \"#utility.yul\":9265:9271   */\n      dup3\n        /* \"#utility.yul\":9254:9263   */\n      dup9\n        /* \"#utility.yul\":9250:9272   */\n      add\n        /* \"#utility.yul\":9229:9282   */\n      tag_467\n      jump\t// in\n    tag_639:\n        /* \"#utility.yul\":9219:9282   */\n      swap2\n      pop\n        /* \"#utility.yul\":9174:9292   */\n      pop\n        /* \"#utility.yul\":8534:9299   */\n      swap3\n      swap6\n      swap2\n      swap5\n      pop\n      swap3\n      pop\n      jump\t// out\n        /* \"#utility.yul\":9305:9422   */\n    tag_486:\n        /* \"#utility.yul\":9414:9415   */\n      0x00\n        /* \"#utility.yul\":9411:9412   */\n      dup1\n        /* \"#utility.yul\":9404:9416   */\n      revert\n        /* \"#utility.yul\":9428:9545   */\n    tag_487:\n        /* \"#utility.yul\":9537:9538   */\n      0x00\n        /* \"#utility.yul\":9534:9535   */\n      dup1\n        /* \"#utility.yul\":9527:9539   */\n      revert\n        /* \"#utility.yul\":9551:9668   */\n    tag_488:\n        /* \"#utility.yul\":9660:9661   */\n      0x00\n        /* \"#utility.yul\":9657:9658   */\n      dup1\n        /* \"#utility.yul\":9650:9662   */\n      revert\n        /* \"#utility.yul\":9691:10259   */\n    tag_489:\n        /* \"#utility.yul\":9764:9772   */\n      0x00\n        /* \"#utility.yul\":9774:9780   */\n      dup1\n        /* \"#utility.yul\":9824:9827   */\n      dup4\n        /* \"#utility.yul\":9817:9821   */\n      0x1f\n        /* \"#utility.yul\":9809:9815   */\n      dup5\n        /* \"#utility.yul\":9805:9822   */\n      add\n        /* \"#utility.yul\":9801:9828   */\n      slt\n        /* \"#utility.yul\":9791:9913   */\n      tag_644\n      jumpi\n        /* \"#utility.yul\":9832:9911   */\n      tag_645\n      tag_486\n      jump\t// in\n    tag_645:\n        /* \"#utility.yul\":9791:9913   */\n    tag_644:\n        /* \"#utility.yul\":9945:9951   */\n      dup3\n        /* \"#utility.yul\":9932:9952   */\n      calldataload\n        /* \"#utility.yul\":9922:9952   */\n      swap1\n      pop\n        /* \"#utility.yul\":9975:9993   */\n      0xffffffffffffffff\n        /* \"#utility.yul\":9967:9973   */\n      dup2\n        /* \"#utility.yul\":9964:9994   */\n      gt\n        /* \"#utility.yul\":9961:10078   */\n      iszero\n      tag_646\n      jumpi\n        /* \"#utility.yul\":9997:10076   */\n      tag_647\n      tag_487\n      jump\t// in\n    tag_647:\n        /* \"#utility.yul\":9961:10078   */\n    tag_646:\n        /* \"#utility.yul\":10111:10115   */\n      0x20\n        /* \"#utility.yul\":10103:10109   */\n      dup4\n        /* \"#utility.yul\":10099:10116   */\n      add\n        /* \"#utility.yul\":10087:10116   */\n      swap2\n      pop\n        /* \"#utility.yul\":10165:10168   */\n      dup4\n        /* \"#utility.yul\":10157:10161   */\n      0x20\n        /* \"#utility.yul\":10149:10155   */\n      dup3\n        /* \"#utility.yul\":10145:10162   */\n      mul\n        /* \"#utility.yul\":10135:10143   */\n      dup4\n        /* \"#utility.yul\":10131:10163   */\n      add\n        /* \"#utility.yul\":10128:10169   */\n      gt\n        /* \"#utility.yul\":10125:10253   */\n      iszero\n      tag_648\n      jumpi\n        /* \"#utility.yul\":10172:10251   */\n      tag_649\n      tag_488\n      jump\t// in\n    tag_649:\n        /* \"#utility.yul\":10125:10253   */\n    tag_648:\n        /* \"#utility.yul\":9691:10259   */\n      swap3\n      pop\n      swap3\n      swap1\n      pop\n      jump\t// out\n        /* \"#utility.yul\":10265:10963   */\n    tag_134:\n        /* \"#utility.yul\":10357:10363   */\n      0x00\n        /* \"#utility.yul\":10365:10371   */\n      dup1\n        /* \"#utility.yul\":10373:10379   */\n      0x00\n        /* \"#utility.yul\":10422:10424   */\n      0x40\n        /* \"#utility.yul\":10410:10419   */\n      dup5\n        /* \"#utility.yul\":10401:10408   */\n      dup7\n        /* \"#utility.yul\":10397:10420   */\n      sub\n        /* \"#utility.yul\":10393:10425   */\n      slt\n        /* \"#utility.yul\":10390:10509   */\n      iszero\n      tag_651\n      jumpi\n        /* \"#utility.yul\":10428:10507   */\n      tag_652\n      tag_459\n      jump\t// in\n    tag_652:\n        /* \"#utility.yul\":10390:10509   */\n    tag_651:\n        /* \"#utility.yul\":10576:10577   */\n      0x00\n        /* \"#utility.yul\":10565:10574   */\n      dup5\n        /* \"#utility.yul\":10561:10578   */\n      add\n        /* \"#utility.yul\":10548:10579   */\n      calldataload\n        /* \"#utility.yul\":10606:10624   */\n      0xffffffffffffffff\n        /* \"#utility.yul\":10598:10604   */\n      dup2\n        /* \"#utility.yul\":10595:10625   */\n      gt\n        /* \"#utility.yul\":10592:10709   */\n      iszero\n      tag_653\n      jumpi\n        /* \"#utility.yul\":10628:10707   */\n      tag_654\n      tag_460\n      jump\t// in\n    tag_654:\n        /* \"#utility.yul\":10592:10709   */\n    tag_653:\n        /* \"#utility.yul\":10741:10821   */\n      tag_655\n        /* \"#utility.yul\":10813:10820   */\n      dup7\n        /* \"#utility.yul\":10804:10810   */\n      dup3\n        /* \"#utility.yul\":10793:10802   */\n      dup8\n        /* \"#utility.yul\":10789:10811   */\n      add\n        /* \"#utility.yul\":10741:10821   */\n      tag_489\n      jump\t// in\n    tag_655:\n        /* \"#utility.yul\":10723:10821   */\n      swap4\n      pop\n      swap4\n      pop\n        /* \"#utility.yul\":10519:10831   */\n      pop\n        /* \"#utility.yul\":10870:10872   */\n      0x20\n        /* \"#utility.yul\":10896:10946   */\n      tag_656\n        /* \"#utility.yul\":10938:10945   */\n      dup7\n        /* \"#utility.yul\":10929:10935   */\n      dup3\n        /* \"#utility.yul\":10918:10927   */\n      dup8\n        /* \"#utility.yul\":10914:10936   */\n      add\n        /* \"#utility.yul\":10896:10946   */\n      tag_482\n      jump\t// in\n    tag_656:\n        /* \"#utility.yul\":10886:10946   */\n      swap2\n      pop\n        /* \"#utility.yul\":10841:10956   */\n      pop\n        /* \"#utility.yul\":10265:10963   */\n      swap3\n      pop\n      swap3\n      pop\n      swap3\n      jump\t// out\n        /* \"#utility.yul\":10969:11443   */\n    tag_139:\n        /* \"#utility.yul\":11037:11043   */\n      0x00\n        /* \"#utility.yul\":11045:11051   */\n      dup1\n        /* \"#utility.yul\":11094:11096   */\n      0x40\n        /* \"#utility.yul\":11082:11091   */\n      dup4\n        /* \"#utility.yul\":11073:11080   */\n      dup6\n        /* \"#utility.yul\":11069:11092   */\n      sub\n        /* \"#utility.yul\":11065:11097   */\n      slt\n        /* \"#utility.yul\":11062:11181   */\n      iszero\n      tag_658\n      jumpi\n        /* \"#utility.yul\":11100:11179   */\n      tag_659\n      tag_459\n      jump\t// in\n    tag_659:\n        /* \"#utility.yul\":11062:11181   */\n    tag_658:\n        /* \"#utility.yul\":11220:11221   */\n      0x00\n        /* \"#utility.yul\":11245:11298   */\n      tag_660\n        /* \"#utility.yul\":11290:11297   */\n      dup6\n        /* \"#utility.yul\":11281:11287   */\n      dup3\n        /* \"#utility.yul\":11270:11279   */\n      dup7\n        /* \"#utility.yul\":11266:11288   */\n      add\n        /* \"#utility.yul\":11245:11298   */\n      tag_464\n      jump\t// in\n    tag_660:\n        /* \"#utility.yul\":11235:11298   */\n      swap3\n      pop\n        /* \"#utility.yul\":11191:11308   */\n      pop\n        /* \"#utility.yul\":11347:11349   */\n      0x20\n        /* \"#utility.yul\":11373:11426   */\n      tag_661\n        /* \"#utility.yul\":11418:11425   */\n      dup6\n        /* \"#utility.yul\":11409:11415   */\n      dup3\n        /* \"#utility.yul\":11398:11407   */\n      dup7\n        /* \"#utility.yul\":11394:11416   */\n      add\n        /* \"#utility.yul\":11373:11426   */\n      tag_464\n      jump\t// in\n    tag_661:\n        /* \"#utility.yul\":11363:11426   */\n      swap2\n      pop\n        /* \"#utility.yul\":11318:11436   */\n      pop\n        /* \"#utility.yul\":10969:11443   */\n      swap3\n      pop\n      swap3\n      swap1\n      pop\n      jump\t// out\n        /* \"#utility.yul\":11449:11622   */\n    tag_490:\n        /* \"#utility.yul\":11589:11614   */\n      0x43616c6c6572206973206e6f7420746865206f776e6572000000000000000000\n        /* \"#utility.yul\":11585:11586   */\n      0x00\n        /* \"#utility.yul\":11577:11583   */\n      dup3\n        /* \"#utility.yul\":11573:11587   */\n      add\n        /* \"#utility.yul\":11566:11615   */\n      mstore\n        /* \"#utility.yul\":11449:11622   */\n      pop\n      jump\t// out\n        /* \"#utility.yul\":11628:11994   */\n    tag_491:\n        /* \"#utility.yul\":11770:11773   */\n      0x00\n        /* \"#utility.yul\":11791:11858   */\n      tag_664\n        /* \"#utility.yul\":11855:11857   */\n      0x17\n        /* \"#utility.yul\":11850:11853   */\n      dup4\n        /* \"#utility.yul\":11791:11858   */\n      tag_454\n      jump\t// in\n    tag_664:\n        /* \"#utility.yul\":11784:11858   */\n      swap2\n      pop\n        /* \"#utility.yul\":11867:11960   */\n      tag_665\n        /* \"#utility.yul\":11956:11959   */\n      dup3\n        /* \"#utility.yul\":11867:11960   */\n      tag_490\n      jump\t// in\n    tag_665:\n        /* \"#utility.yul\":11985:11987   */\n      0x20\n        /* \"#utility.yul\":11980:11983   */\n      dup3\n        /* \"#utility.yul\":11976:11988   */\n      add\n        /* \"#utility.yul\":11969:11988   */\n      swap1\n      pop\n        /* \"#utility.yul\":11628:11994   */\n      swap2\n      swap1\n      pop\n      jump\t// out\n        /* \"#utility.yul\":12000:12419   */\n    tag_155:\n        /* \"#utility.yul\":12166:12170   */\n      0x00\n        /* \"#utility.yul\":12204:12206   */\n      0x20\n        /* \"#utility.yul\":12193:12202   */\n      dup3\n        /* \"#utility.yul\":12189:12207   */\n      add\n        /* \"#utility.yul\":12181:12207   */\n      swap1\n      pop\n        /* \"#utility.yul\":12253:12262   */\n      dup2\n        /* \"#utility.yul\":12247:12251   */\n      dup2\n        /* \"#utility.yul\":12243:12263   */\n      sub\n        /* \"#utility.yul\":12239:12240   */\n      0x00\n        /* \"#utility.yul\":12228:12237   */\n      dup4\n        /* \"#utility.yul\":12224:12241   */\n      add\n        /* \"#utility.yul\":12217:12264   */\n      mstore\n        /* \"#utility.yul\":12281:12412   */\n      tag_667\n        /* \"#utility.yul\":12407:12411   */\n      dup2\n        /* \"#utility.yul\":12281:12412   */\n      tag_491\n      jump\t// in\n    tag_667:\n        /* \"#utility.yul\":12273:12412   */\n      swap1\n      pop\n        /* \"#utility.yul\":12000:12419   */\n      swap2\n      swap1\n      pop\n      jump\t// out\n        /* \"#utility.yul\":12425:12568   */\n    tag_492:\n        /* \"#utility.yul\":12482:12487   */\n      0x00\n        /* \"#utility.yul\":12513:12519   */\n      dup2\n        /* \"#utility.yul\":12507:12520   */\n      mload\n        /* \"#utility.yul\":12498:12520   */\n      swap1\n      pop\n        /* \"#utility.yul\":12529:12562   */\n      tag_669\n        /* \"#utility.yul\":12556:12561   */\n      dup2\n        /* \"#utility.yul\":12529:12562   */\n      tag_463\n      jump\t// in\n    tag_669:\n        /* \"#utility.yul\":12425:12568   */\n      swap3\n      swap2\n      pop\n      pop\n      jump\t// out\n        /* \"#utility.yul\":12574:12925   */\n    tag_160:\n        /* \"#utility.yul\":12644:12650   */\n      0x00\n        /* \"#utility.yul\":12693:12695   */\n      0x20\n        /* \"#utility.yul\":12681:12690   */\n      dup3\n        /* \"#utility.yul\":12672:12679   */\n      dup5\n        /* \"#utility.yul\":12668:12691   */\n      sub\n        /* \"#utility.yul\":12664:12696   */\n      slt\n        /* \"#utility.yul\":12661:12780   */\n      iszero\n      tag_671\n      jumpi\n        /* \"#utility.yul\":12699:12778   */\n      tag_672\n      tag_459\n      jump\t// in\n    tag_672:\n        /* \"#utility.yul\":12661:12780   */\n    tag_671:\n        /* \"#utility.yul\":12819:12820   */\n      0x00\n        /* \"#utility.yul\":12844:12908   */\n      tag_673\n        /* \"#utility.yul\":12900:12907   */\n      dup5\n        /* \"#utility.yul\":12891:12897   */\n      dup3\n        /* \"#utility.yul\":12880:12889   */\n      dup6\n        /* \"#utility.yul\":12876:12898   */\n      add\n        /* \"#utility.yul\":12844:12908   */\n      tag_492\n      jump\t// in\n    tag_673:\n        /* \"#utility.yul\":12834:12908   */\n      swap2\n      pop\n        /* \"#utility.yul\":12790:12918   */\n      pop\n        /* \"#utility.yul\":12574:12925   */\n      swap3\n      swap2\n      pop\n      pop\n      jump\t// out\n        /* \"#utility.yul\":12931:13263   */\n    tag_165:\n        /* \"#utility.yul\":13052:13056   */\n      0x00\n        /* \"#utility.yul\":13090:13092   */\n      0x40\n        /* \"#utility.yul\":13079:13088   */\n      dup3\n        /* \"#utility.yul\":13075:13093   */\n      add\n        /* \"#utility.yul\":13067:13093   */\n      swap1\n      pop\n        /* \"#utility.yul\":13103:13174   */\n      tag_675\n        /* \"#utility.yul\":13171:13172   */\n      0x00\n        /* \"#utility.yul\":13160:13169   */\n      dup4\n        /* \"#utility.yul\":13156:13173   */\n      add\n        /* \"#utility.yul\":13147:13153   */\n      dup6\n        /* \"#utility.yul\":13103:13174   */\n      tag_476\n      jump\t// in\n    tag_675:\n        /* \"#utility.yul\":13184:13256   */\n      tag_676\n        /* \"#utility.yul\":13252:13254   */\n      0x20\n        /* \"#utility.yul\":13241:13250   */\n      dup4\n        /* \"#utility.yul\":13237:13255   */\n      add\n        /* \"#utility.yul\":13228:13234   */\n      dup5\n        /* \"#utility.yul\":13184:13256   */\n      tag_476\n      jump\t// in\n    tag_676:\n        /* \"#utility.yul\":12931:13263   */\n      swap4\n      swap3\n      pop\n      pop\n      pop\n      jump\t// out\n        /* \"#utility.yul\":13269:13440   */\n    tag_493:\n        /* \"#utility.yul\":13409:13432   */\n      0x43616c6c6572206973206e6f7420746865206465760000000000000000000000\n        /* \"#utility.yul\":13405:13406   */\n      0x00\n        /* \"#utility.yul\":13397:13403   */\n      dup3\n        /* \"#utility.yul\":13393:13407   */\n      add\n        /* \"#utility.yul\":13386:13433   */\n      mstore\n        /* \"#utility.yul\":13269:13440   */\n      pop\n      jump\t// out\n        /* \"#utility.yul\":13446:13812   */\n    tag_494:\n        /* \"#utility.yul\":13588:13591   */\n      0x00\n        /* \"#utility.yul\":13609:13676   */\n      tag_679\n        /* \"#utility.yul\":13673:13675   */\n      0x15\n        /* \"#utility.yul\":13668:13671   */\n      dup4\n        /* \"#utility.yul\":13609:13676   */\n      tag_454\n      jump\t// in\n    tag_679:\n        /* \"#utility.yul\":13602:13676   */\n      swap2\n      pop\n        /* \"#utility.yul\":13685:13778   */\n      tag_680\n        /* \"#utility.yul\":13774:13777   */\n      dup3\n        /* \"#utility.yul\":13685:13778   */\n      tag_493\n      jump\t// in\n    tag_680:\n        /* \"#utility.yul\":13803:13805   */\n      0x20\n        /* \"#utility.yul\":13798:13801   */\n      dup3\n        /* \"#utility.yul\":13794:13806   */\n      add\n        /* \"#utility.yul\":13787:13806   */\n      swap1\n      pop\n        /* \"#utility.yul\":13446:13812   */\n      swap2\n      swap1\n      pop\n      jump\t// out\n        /* \"#utility.yul\":13818:14237   */\n    tag_195:\n        /* \"#utility.yul\":13984:13988   */\n      0x00\n        /* \"#utility.yul\":14022:14024   */\n      0x20\n        /* \"#utility.yul\":14011:14020   */\n      dup3\n        /* \"#utility.yul\":14007:14025   */\n      add\n        /* \"#utility.yul\":13999:14025   */\n      swap1\n      pop\n        /* \"#utility.yul\":14071:14080   */\n      dup2\n        /* \"#utility.yul\":14065:14069   */\n      dup2\n        /* \"#utility.yul\":14061:14081   */\n      sub\n        /* \"#utility.yul\":14057:14058   */\n      0x00\n        /* \"#utility.yul\":14046:14055   */\n      dup4\n        /* \"#utility.yul\":14042:14059   */\n      add\n        /* \"#utility.yul\":14035:14082   */\n      mstore\n        /* \"#utility.yul\":14099:14230   */\n      tag_682\n        /* \"#utility.yul\":14225:14229   */\n      dup2\n        /* \"#utility.yul\":14099:14230   */\n      tag_494\n      jump\t// in\n    tag_682:\n        /* \"#utility.yul\":14091:14230   */\n      swap1\n      pop\n        /* \"#utility.yul\":13818:14237   */\n      swap2\n      swap1\n      pop\n      jump\t// out\n        /* \"#utility.yul\":14243:14422   */\n    tag_495:\n        /* \"#utility.yul\":14383:14414   */\n      0x52656469732063616e6e6f74206265206d6f7265207468616e2031302e000000\n        /* \"#utility.yul\":14379:14380   */\n      0x00\n        /* \"#utility.yul\":14371:14377   */\n      dup3\n        /* \"#utility.yul\":14367:14381   */\n      add\n        /* \"#utility.yul\":14360:14415   */\n      mstore\n        /* \"#utility.yul\":14243:14422   */\n      pop\n      jump\t// out\n        /* \"#utility.yul\":14428:14794   */\n    tag_496:\n        /* \"#utility.yul\":14570:14573   */\n      0x00\n        /* \"#utility.yul\":14591:14658   */\n      tag_685\n        /* \"#utility.yul\":14655:14657   */\n      0x1d\n        /* \"#utility.yul\":14650:14653   */\n      dup4\n        /* \"#utility.yul\":14591:14658   */\n      tag_454\n      jump\t// in\n    tag_685:\n        /* \"#utility.yul\":14584:14658   */\n      swap2\n      pop\n        /* \"#utility.yul\":14667:14760   */\n      tag_686\n        /* \"#utility.yul\":14756:14759   */\n      dup3\n        /* \"#utility.yul\":14667:14760   */\n      tag_495\n      jump\t// in\n    tag_686:\n        /* \"#utility.yul\":14785:14787   */\n      0x20\n        /* \"#utility.yul\":14780:14783   */\n      dup3\n        /* \"#utility.yul\":14776:14788   */\n      add\n        /* \"#utility.yul\":14769:14788   */\n      swap1\n      pop\n        /* \"#utility.yul\":14428:14794   */\n      swap2\n      swap1\n      pop\n      jump\t// out\n        /* \"#utility.yul\":14800:15219   */\n    tag_235:\n        /* \"#utility.yul\":14966:14970   */\n      0x00\n        /* \"#utility.yul\":15004:15006   */\n      0x20\n        /* \"#utility.yul\":14993:15002   */\n      dup3\n        /* \"#utility.yul\":14989:15007   */\n      add\n        /* \"#utility.yul\":14981:15007   */\n      swap1\n      pop\n        /* \"#utility.yul\":15053:15062   */\n      dup2\n        /* \"#utility.yul\":15047:15051   */\n      dup2\n        /* \"#utility.yul\":15043:15063   */\n      sub\n        /* \"#utility.yul\":15039:15040   */\n      0x00\n        /* \"#utility.yul\":15028:15037   */\n      dup4\n        /* \"#utility.yul\":15024:15041   */\n      add\n        /* \"#utility.yul\":15017:15064   */\n      mstore\n        /* \"#utility.yul\":15081:15212   */\n      tag_688\n        /* \"#utility.yul\":15207:15211   */\n      dup2\n        /* \"#utility.yul\":15081:15212   */\n      tag_496\n      jump\t// in\n    tag_688:\n        /* \"#utility.yul\":15073:15212   */\n      swap1\n      pop\n        /* \"#utility.yul\":14800:15219   */\n      swap2\n      swap1\n      pop\n      jump\t// out\n        /* \"#utility.yul\":15225:15401   */\n    tag_497:\n        /* \"#utility.yul\":15365:15393   */\n      0x5461782063616e6e6f74206265206d6f7265207468616e20362e000000000000\n        /* \"#utility.yul\":15361:15362   */\n      0x00\n        /* \"#utility.yul\":15353:15359   */\n      dup3\n        /* \"#utility.yul\":15349:15363   */\n      add\n        /* \"#utility.yul\":15342:15394   */\n      mstore\n        /* \"#utility.yul\":15225:15401   */\n      pop\n      jump\t// out\n        /* \"#utility.yul\":15407:15773   */\n    tag_498:\n        /* \"#utility.yul\":15549:15552   */\n      0x00\n        /* \"#utility.yul\":15570:15637   */\n      tag_691\n        /* \"#utility.yul\":15634:15636   */\n      0x1a\n        /* \"#utility.yul\":15629:15632   */\n      dup4\n        /* \"#utility.yul\":15570:15637   */\n      tag_454\n      jump\t// in\n    tag_691:\n        /* \"#utility.yul\":15563:15637   */\n      swap2\n      pop\n        /* \"#utility.yul\":15646:15739   */\n      tag_692\n        /* \"#utility.yul\":15735:15738   */\n      dup3\n        /* \"#utility.yul\":15646:15739   */\n      tag_497\n      jump\t// in\n    tag_692:\n        /* \"#utility.yul\":15764:15766   */\n      0x20\n        /* \"#utility.yul\":15759:15762   */\n      dup3\n        /* \"#utility.yul\":15755:15767   */\n      add\n        /* \"#utility.yul\":15748:15767   */\n      swap1\n      pop\n        /* \"#utility.yul\":15407:15773   */\n      swap2\n      swap1\n      pop\n      jump\t// out\n        /* \"#utility.yul\":15779:16198   */\n    tag_240:\n        /* \"#utility.yul\":15945:15949   */\n      0x00\n        /* \"#utility.yul\":15983:15985   */\n      0x20\n        /* \"#utility.yul\":15972:15981   */\n      dup3\n        /* \"#utility.yul\":15968:15986   */\n      add\n        /* \"#utility.yul\":15960:15986   */\n      swap1\n      pop\n        /* \"#utility.yul\":16032:16041   */\n      dup2\n        /* \"#utility.yul\":16026:16030   */\n      dup2\n        /* \"#utility.yul\":16022:16042   */\n      sub\n        /* \"#utility.yul\":16018:16019   */\n      0x00\n        /* \"#utility.yul\":16007:16016   */\n      dup4\n        /* \"#utility.yul\":16003:16020   */\n      add\n        /* \"#utility.yul\":15996:16043   */\n      mstore\n        /* \"#utility.yul\":16060:16191   */\n      tag_694\n        /* \"#utility.yul\":16186:16190   */\n      dup2\n        /* \"#utility.yul\":16060:16191   */\n      tag_498\n      jump\t// in\n    tag_694:\n        /* \"#utility.yul\":16052:16191   */\n      swap1\n      pop\n        /* \"#utility.yul\":15779:16198   */\n      swap2\n      swap1\n      pop\n      jump\t// out\n        /* \"#utility.yul\":16204:16384   */\n    tag_275:\n        /* \"#utility.yul\":16252:16329   */\n      0x4e487b7100000000000000000000000000000000000000000000000000000000\n        /* \"#utility.yul\":16249:16250   */\n      0x00\n        /* \"#utility.yul\":16242:16330   */\n      mstore\n        /* \"#utility.yul\":16349:16353   */\n      0x32\n        /* \"#utility.yul\":16346:16347   */\n      0x04\n        /* \"#utility.yul\":16339:16354   */\n      mstore\n        /* \"#utility.yul\":16373:16377   */\n      0x24\n        /* \"#utility.yul\":16370:16371   */\n      0x00\n        /* \"#utility.yul\":16363:16378   */\n      revert\n        /* \"#utility.yul\":16390:16570   */\n    tag_499:\n        /* \"#utility.yul\":16438:16515   */\n      0x4e487b7100000000000000000000000000000000000000000000000000000000\n        /* \"#utility.yul\":16435:16436   */\n      0x00\n        /* \"#utility.yul\":16428:16516   */\n      mstore\n        /* \"#utility.yul\":16535:16539   */\n      0x11\n        /* \"#utility.yul\":16532:16533   */\n      0x04\n        /* \"#utility.yul\":16525:16540   */\n      mstore\n        /* \"#utility.yul\":16559:16563   */\n      0x24\n        /* \"#utility.yul\":16556:16557   */\n      0x00\n        /* \"#utility.yul\":16549:16564   */\n      revert\n        /* \"#utility.yul\":16576:16809   */\n    tag_278:\n        /* \"#utility.yul\":16615:16618   */\n      0x00\n        /* \"#utility.yul\":16638:16662   */\n      tag_698\n        /* \"#utility.yul\":16656:16661   */\n      dup3\n        /* \"#utility.yul\":16638:16662   */\n      tag_465\n      jump\t// in\n    tag_698:\n        /* \"#utility.yul\":16629:16662   */\n      swap2\n      pop\n        /* \"#utility.yul\":16684:16750   */\n      0xffffffffffffffffffffffffffffffffffffffffffffffffffffffffffffffff\n        /* \"#utility.yul\":16677:16682   */\n      dup3\n        /* \"#utility.yul\":16674:16751   */\n      sub\n        /* \"#utility.yul\":16671:16774   */\n      tag_699\n      jumpi\n        /* \"#utility.yul\":16754:16772   */\n      tag_700\n      tag_499\n      jump\t// in\n    tag_700:\n        /* \"#utility.yul\":16671:16774   */\n    tag_699:\n        /* \"#utility.yul\":16801:16802   */\n      0x01\n        /* \"#utility.yul\":16794:16799   */\n      dup3\n        /* \"#utility.yul\":16790:16803   */\n      add\n        /* \"#utility.yul\":16783:16803   */\n      swap1\n      pop\n        /* \"#utility.yul\":16576:16809   */\n      swap2\n      swap1\n      pop\n      jump\t// out\n        /* \"#utility.yul\":16815:17147   */\n    tag_290:\n        /* \"#utility.yul\":16936:16940   */\n      0x00\n        /* \"#utility.yul\":16974:16976   */\n      0x40\n        /* \"#utility.yul\":16963:16972   */\n      dup3\n        /* \"#utility.yul\":16959:16977   */\n      add\n        /* \"#utility.yul\":16951:16977   */\n      swap1\n      pop\n        /* \"#utility.yul\":16987:17058   */\n      tag_702\n        /* \"#utility.yul\":17055:17056   */\n      0x00\n        /* \"#utility.yul\":17044:17053   */\n      dup4\n        /* \"#utility.yul\":17040:17057   */\n      add\n        /* \"#utility.yul\":17031:17037   */\n      dup6\n        /* \"#utility.yul\":16987:17058   */\n      tag_476\n      jump\t// in\n    tag_702:\n        /* \"#utility.yul\":17068:17140   */\n      tag_703\n        /* \"#utility.yul\":17136:17138   */\n      0x20\n        /* \"#utility.yul\":17125:17134   */\n      dup4\n        /* \"#utility.yul\":17121:17139   */\n      add\n        /* \"#utility.yul\":17112:17118   */\n      dup5\n        /* \"#utility.yul\":17068:17140   */\n      tag_475\n      jump\t// in\n    tag_703:\n        /* \"#utility.yul\":16815:17147   */\n      swap4\n      swap3\n      pop\n      pop\n      pop\n      jump\t// out\n        /* \"#utility.yul\":17153:17290   */\n    tag_500:\n        /* \"#utility.yul\":17207:17212   */\n      0x00\n        /* \"#utility.yul\":17238:17244   */\n      dup2\n        /* \"#utility.yul\":17232:17245   */\n      mload\n        /* \"#utility.yul\":17223:17245   */\n      swap1\n      pop\n        /* \"#utility.yul\":17254:17284   */\n      tag_705\n        /* \"#utility.yul\":17278:17283   */\n      dup2\n        /* \"#utility.yul\":17254:17284   */\n      tag_481\n      jump\t// in\n    tag_705:\n        /* \"#utility.yul\":17153:17290   */\n      swap3\n      swap2\n      pop\n      pop\n      jump\t// out\n        /* \"#utility.yul\":17296:17641   */\n    tag_294:\n        /* \"#utility.yul\":17363:17369   */\n      0x00\n        /* \"#utility.yul\":17412:17414   */\n      0x20\n        /* \"#utility.yul\":17400:17409   */\n      dup3\n        /* \"#utility.yul\":17391:17398   */\n      dup5\n        /* \"#utility.yul\":17387:17410   */\n      sub\n        /* \"#utility.yul\":17383:17415   */\n      slt\n        /* \"#utility.yul\":17380:17499   */\n      iszero\n      tag_707\n      jumpi\n        /* \"#utility.yul\":17418:17497   */\n      tag_708\n      tag_459\n      jump\t// in\n    tag_708:\n        /* \"#utility.yul\":17380:17499   */\n    tag_707:\n        /* \"#utility.yul\":17538:17539   */\n      0x00\n        /* \"#utility.yul\":17563:17624   */\n      tag_709\n        /* \"#utility.yul\":17616:17623   */\n      dup5\n        /* \"#utility.yul\":17607:17613   */\n      dup3\n        /* \"#utility.yul\":17596:17605   */\n      dup6\n        /* \"#utility.yul\":17592:17614   */\n      add\n        /* \"#utility.yul\":17563:17624   */\n      tag_500\n      jump\t// in\n    tag_709:\n        /* \"#utility.yul\":17553:17624   */\n      swap2\n      pop\n        /* \"#utility.yul\":17509:17634   */\n      pop\n        /* \"#utility.yul\":17296:17641   */\n      swap3\n      swap2\n      pop\n      pop\n      jump\t// out\n        /* \"#utility.yul\":17647:17870   */\n    tag_501:\n        /* \"#utility.yul\":17787:17821   */\n      0x45524332303a20617070726f76652066726f6d20746865207a65726f20616464\n        /* \"#utility.yul\":17783:17784   */\n      0x00\n        /* \"#utility.yul\":17775:17781   */\n      dup3\n        /* \"#utility.yul\":17771:17785   */\n      add\n        /* \"#utility.yul\":17764:17822   */\n      mstore\n        /* \"#utility.yul\":17856:17862   */\n      0x7265737300000000000000000000000000000000000000000000000000000000\n        /* \"#utility.yul\":17851:17853   */\n      0x20\n        /* \"#utility.yul\":17843:17849   */\n      dup3\n        /* \"#utility.yul\":17839:17854   */\n      add\n        /* \"#utility.yul\":17832:17863   */\n      mstore\n        /* \"#utility.yul\":17647:17870   */\n      pop\n      jump\t// out\n        /* \"#utility.yul\":17876:18242   */\n    tag_502:\n        /* \"#utility.yul\":18018:18021   */\n      0x00\n        /* \"#utility.yul\":18039:18106   */\n      tag_712\n        /* \"#utility.yul\":18103:18105   */\n      0x24\n        /* \"#utility.yul\":18098:18101   */\n      dup4\n        /* \"#utility.yul\":18039:18106   */\n      tag_454\n      jump\t// in\n    tag_712:\n        /* \"#utility.yul\":18032:18106   */\n      swap2\n      pop\n        /* \"#utility.yul\":18115:18208   */\n      tag_713\n        /* \"#utility.yul\":18204:18207   */\n      dup3\n        /* \"#utility.yul\":18115:18208   */\n      tag_501\n      jump\t// in\n    tag_713:\n        /* \"#utility.yul\":18233:18235   */\n      0x40\n        /* \"#utility.yul\":18228:18231   */\n      dup3\n        /* \"#utility.yul\":18224:18236   */\n      add\n        /* \"#utility.yul\":18217:18236   */\n      swap1\n      pop\n        /* \"#utility.yul\":17876:18242   */\n      swap2\n      swap1\n      pop\n      jump\t// out\n        /* \"#utility.yul\":18248:18667   */\n    tag_304:\n        /* \"#utility.yul\":18414:18418   */\n      0x00\n        /* \"#utility.yul\":18452:18454   */\n      0x20\n        /* \"#utility.yul\":18441:18450   */\n      dup3\n        /* \"#utility.yul\":18437:18455   */\n      add\n        /* \"#utility.yul\":18429:18455   */\n      swap1\n      pop\n        /* \"#utility.yul\":18501:18510   */\n      dup2\n        /* \"#utility.yul\":18495:18499   */\n      dup2\n        /* \"#utility.yul\":18491:18511   */\n      sub\n        /* \"#utility.yul\":18487:18488   */\n      0x00\n        /* \"#utility.yul\":18476:18485   */\n      dup4\n        /* \"#utility.yul\":18472:18489   */\n      add\n        /* \"#utility.yul\":18465:18512   */\n      mstore\n        /* \"#utility.yul\":18529:18660   */\n      tag_715\n        /* \"#utility.yul\":18655:18659   */\n      dup2\n        /* \"#utility.yul\":18529:18660   */\n      tag_502\n      jump\t// in\n    tag_715:\n        /* \"#utility.yul\":18521:18660   */\n      swap1\n      pop\n        /* \"#utility.yul\":18248:18667   */\n      swap2\n      swap1\n      pop\n      jump\t// out\n        /* \"#utility.yul\":18673:18894   */\n    tag_503:\n        /* \"#utility.yul\":18813:18847   */\n      0x45524332303a20617070726f766520746f20746865207a65726f206164647265\n        /* \"#utility.yul\":18809:18810   */\n      0x00\n        /* \"#utility.yul\":18801:18807   */\n      dup3\n        /* \"#utility.yul\":18797:18811   */\n      add\n        /* \"#utility.yul\":18790:18848   */\n      mstore\n        /* \"#utility.yul\":18882:18886   */\n      0x7373000000000000000000000000000000000000000000000000000000000000\n        /* \"#utility.yul\":18877:18879   */\n      0x20\n        /* \"#utility.yul\":18869:18875   */\n      dup3\n        /* \"#utility.yul\":18865:18880   */\n      add\n        /* \"#utility.yul\":18858:18887   */\n      mstore\n        /* \"#utility.yul\":18673:18894   */\n      pop\n      jump\t// out\n        /* \"#utility.yul\":18900:19266   */\n    tag_504:\n        /* \"#utility.yul\":19042:19045   */\n      0x00\n        /* \"#utility.yul\":19063:19130   */\n      tag_718\n        /* \"#utility.yul\":19127:19129   */\n      0x22\n        /* \"#utility.yul\":19122:19125   */\n      dup4\n        /* \"#utility.yul\":19063:19130   */\n      tag_454\n      jump\t// in\n    tag_718:\n        /* \"#utility.yul\":19056:19130   */\n      swap2\n      pop\n        /* \"#utility.yul\":19139:19232   */\n      tag_719\n        /* \"#utility.yul\":19228:19231   */\n      dup3\n        /* \"#utility.yul\":19139:19232   */\n      tag_503\n      jump\t// in\n    tag_719:\n        /* \"#utility.yul\":19257:19259   */\n      0x40\n        /* \"#utility.yul\":19252:19255   */\n      dup3\n        /* \"#utility.yul\":19248:19260   */\n      add\n        /* \"#utility.yul\":19241:19260   */\n      swap1\n      pop\n        /* \"#utility.yul\":18900:19266   */\n      swap2\n      swap1\n      pop\n      jump\t// out\n        /* \"#utility.yul\":19272:19691   */\n    tag_307:\n        /* \"#utility.yul\":19438:19442   */\n      0x00\n        /* \"#utility.yul\":19476:19478   */\n      0x20\n        /* \"#utility.yul\":19465:19474   */\n      dup3\n        /* \"#utility.yul\":19461:19479   */\n      add\n        /* \"#utility.yul\":19453:19479   */\n      swap1\n      pop\n        /* \"#utility.yul\":19525:19534   */\n      dup2\n        /* \"#utility.yul\":19519:19523   */\n      dup2\n        /* \"#utility.yul\":19515:19535   */\n      sub\n        /* \"#utility.yul\":19511:19512   */\n      0x00\n        /* \"#utility.yul\":19500:19509   */\n      dup4\n        /* \"#utility.yul\":19496:19513   */\n      add\n        /* \"#utility.yul\":19489:19536   */\n      mstore\n        /* \"#utility.yul\":19553:19684   */\n      tag_721\n        /* \"#utility.yul\":19679:19683   */\n      dup2\n        /* \"#utility.yul\":19553:19684   */\n      tag_504\n      jump\t// in\n    tag_721:\n        /* \"#utility.yul\":19545:19684   */\n      swap1\n      pop\n        /* \"#utility.yul\":19272:19691   */\n      swap2\n      swap1\n      pop\n      jump\t// out\n        /* \"#utility.yul\":19697:19921   */\n    tag_505:\n        /* \"#utility.yul\":19837:19871   */\n      0x45524332303a207472616e736665722066726f6d20746865207a65726f206164\n        /* \"#utility.yul\":19833:19834   */\n      0x00\n        /* \"#utility.yul\":19825:19831   */\n      dup3\n        /* \"#utility.yul\":19821:19835   */\n      add\n        /* \"#utility.yul\":19814:19872   */\n      mstore\n        /* \"#utility.yul\":19906:19913   */\n      0x6472657373000000000000000000000000000000000000000000000000000000\n        /* \"#utility.yul\":19901:19903   */\n      0x20\n        /* \"#utility.yul\":19893:19899   */\n      dup3\n        /* \"#utility.yul\":19889:19904   */\n      add\n        /* \"#utility.yul\":19882:19914   */\n      mstore\n        /* \"#utility.yul\":19697:19921   */\n      pop\n      jump\t// out\n        /* \"#utility.yul\":19927:20293   */\n    tag_506:\n        /* \"#utility.yul\":20069:20072   */\n      0x00\n        /* \"#utility.yul\":20090:20157   */\n      tag_724\n        /* \"#utility.yul\":20154:20156   */\n      0x25\n        /* \"#utility.yul\":20149:20152   */\n      dup4\n        /* \"#utility.yul\":20090:20157   */\n      tag_454\n      jump\t// in\n    tag_724:\n        /* \"#utility.yul\":20083:20157   */\n      swap2\n      pop\n        /* \"#utility.yul\":20166:20259   */\n      tag_725\n        /* \"#utility.yul\":20255:20258   */\n      dup3\n        /* \"#utility.yul\":20166:20259   */\n      tag_505\n      jump\t// in\n    tag_725:\n        /* \"#utility.yul\":20284:20286   */\n      0x40\n        /* \"#utility.yul\":20279:20282   */\n      dup3\n        /* \"#utility.yul\":20275:20287   */\n      add\n        /* \"#utility.yul\":20268:20287   */\n      swap1\n      pop\n        /* \"#utility.yul\":19927:20293   */\n      swap2\n      swap1\n      pop\n      jump\t// out\n        /* \"#utility.yul\":20299:20718   */\n    tag_312:\n        /* \"#utility.yul\":20465:20469   */\n      0x00\n        /* \"#utility.yul\":20503:20505   */\n      0x20\n        /* \"#utility.yul\":20492:20501   */\n      dup3\n        /* \"#utility.yul\":20488:20506   */\n      add\n        /* \"#utility.yul\":20480:20506   */\n      swap1\n      pop\n        /* \"#utility.yul\":20552:20561   */\n      dup2\n        /* \"#utility.yul\":20546:20550   */\n      dup2\n        /* \"#utility.yul\":20542:20562   */\n      sub\n        /* \"#utility.yul\":20538:20539   */\n      0x00\n        /* \"#utility.yul\":20527:20536   */\n      dup4\n        /* \"#utility.yul\":20523:20540   */\n      add\n        /* \"#utility.yul\":20516:20563   */\n      mstore\n        /* \"#utility.yul\":20580:20711   */\n      tag_727\n        /* \"#utility.yul\":20706:20710   */\n      dup2\n        /* \"#utility.yul\":20580:20711   */\n      tag_506\n      jump\t// in\n    tag_727:\n        /* \"#utility.yul\":20572:20711   */\n      swap1\n      pop\n        /* \"#utility.yul\":20299:20718   */\n      swap2\n      swap1\n      pop\n      jump\t// out\n        /* \"#utility.yul\":20724:20946   */\n    tag_507:\n        /* \"#utility.yul\":20864:20898   */\n      0x45524332303a207472616e7366657220746f20746865207a65726f2061646472\n        /* \"#utility.yul\":20860:20861   */\n      0x00\n        /* \"#utility.yul\":20852:20858   */\n      dup3\n        /* \"#utility.yul\":20848:20862   */\n      add\n        /* \"#utility.yul\":20841:20899   */\n      mstore\n        /* \"#utility.yul\":20933:20938   */\n      0x6573730000000000000000000000000000000000000000000000000000000000\n        /* \"#utility.yul\":20928:20930   */\n      0x20\n        /* \"#utility.yul\":20920:20926   */\n      dup3\n        /* \"#utility.yul\":20916:20931   */\n      add\n        /* \"#utility.yul\":20909:20939   */\n      mstore\n        /* \"#utility.yul\":20724:20946   */\n      pop\n      jump\t// out\n        /* \"#utility.yul\":20952:21318   */\n    tag_508:\n        /* \"#utility.yul\":21094:21097   */\n      0x00\n        /* \"#utility.yul\":21115:21182   */\n      tag_730\n        /* \"#utility.yul\":21179:21181   */\n      0x23\n        /* \"#utility.yul\":21174:21177   */\n      dup4\n        /* \"#utility.yul\":21115:21182   */\n      tag_454\n      jump\t// in\n    tag_730:\n        /* \"#utility.yul\":21108:21182   */\n      swap2\n      pop\n        /* \"#utility.yul\":21191:21284   */\n      tag_731\n        /* \"#utility.yul\":21280:21283   */\n      dup3\n        /* \"#utility.yul\":21191:21284   */\n      tag_507\n      jump\t// in\n    tag_731:\n        /* \"#utility.yul\":21309:21311   */\n      0x40\n        /* \"#utility.yul\":21304:21307   */\n      dup3\n        /* \"#utility.yul\":21300:21312   */\n      add\n        /* \"#utility.yul\":21293:21312   */\n      swap1\n      pop\n        /* \"#utility.yul\":20952:21318   */\n      swap2\n      swap1\n      pop\n      jump\t// out\n        /* \"#utility.yul\":21324:21743   */\n    tag_315:\n        /* \"#utility.yul\":21490:21494   */\n      0x00\n        /* \"#utility.yul\":21528:21530   */\n      0x20\n        /* \"#utility.yul\":21517:21526   */\n      dup3\n        /* \"#utility.yul\":21513:21531   */\n      add\n        /* \"#utility.yul\":21505:21531   */\n      swap1\n      pop\n        /* \"#utility.yul\":21577:21586   */\n      dup2\n        /* \"#utility.yul\":21571:21575   */\n      dup2\n        /* \"#utility.yul\":21567:21587   */\n      sub\n        /* \"#utility.yul\":21563:21564   */\n      0x00\n        /* \"#utility.yul\":21552:21561   */\n      dup4\n        /* \"#utility.yul\":21548:21565   */\n      add\n        /* \"#utility.yul\":21541:21588   */\n      mstore\n        /* \"#utility.yul\":21605:21736   */\n      tag_733\n        /* \"#utility.yul\":21731:21735   */\n      dup2\n        /* \"#utility.yul\":21605:21736   */\n      tag_508\n      jump\t// in\n    tag_733:\n        /* \"#utility.yul\":21597:21736   */\n      swap1\n      pop\n        /* \"#utility.yul\":21324:21743   */\n      swap2\n      swap1\n      pop\n      jump\t// out\n        /* \"#utility.yul\":21749:21977   */\n    tag_509:\n        /* \"#utility.yul\":21889:21923   */\n      0x5472616e7366657220616d6f756e74206d757374206265206772656174657220\n        /* \"#utility.yul\":21885:21886   */\n      0x00\n        /* \"#utility.yul\":21877:21883   */\n      dup3\n        /* \"#utility.yul\":21873:21887   */\n      add\n        /* \"#utility.yul\":21866:21924   */\n      mstore\n        /* \"#utility.yul\":21958:21969   */\n      0x7468616e207a65726f0000000000000000000000000000000000000000000000\n        /* \"#utility.yul\":21953:21955   */\n      0x20\n        /* \"#utility.yul\":21945:21951   */\n      dup3\n        /* \"#utility.yul\":21941:21956   */\n      add\n        /* \"#utility.yul\":21934:21970   */\n      mstore\n        /* \"#utility.yul\":21749:21977   */\n      pop\n      jump\t// out\n        /* \"#utility.yul\":21983:22349   */\n    tag_510:\n        /* \"#utility.yul\":22125:22128   */\n      0x00\n        /* \"#utility.yul\":22146:22213   */\n      tag_736\n        /* \"#utility.yul\":22210:22212   */\n      0x29\n        /* \"#utility.yul\":22205:22208   */\n      dup4\n        /* \"#utility.yul\":22146:22213   */\n      tag_454\n      jump\t// in\n    tag_736:\n        /* \"#utility.yul\":22139:22213   */\n      swap2\n      pop\n        /* \"#utility.yul\":22222:22315   */\n      tag_737\n        /* \"#utility.yul\":22311:22314   */\n      dup3\n        /* \"#utility.yul\":22222:22315   */\n      tag_509\n      jump\t// in\n    tag_737:\n        /* \"#utility.yul\":22340:22342   */\n      0x40\n        /* \"#utility.yul\":22335:22338   */\n      dup3\n        /* \"#utility.yul\":22331:22343   */\n      add\n        /* \"#utility.yul\":22324:22343   */\n      swap1\n      pop\n        /* \"#utility.yul\":21983:22349   */\n      swap2\n      swap1\n      pop\n      jump\t// out\n        /* \"#utility.yul\":22355:22774   */\n    tag_318:\n        /* \"#utility.yul\":22521:22525   */\n      0x00\n        /* \"#utility.yul\":22559:22561   */\n      0x20\n        /* \"#utility.yul\":22548:22557   */\n      dup3\n        /* \"#utility.yul\":22544:22562   */\n      add\n        /* \"#utility.yul\":22536:22562   */\n      swap1\n      pop\n        /* \"#utility.yul\":22608:22617   */\n      dup2\n        /* \"#utility.yul\":22602:22606   */\n      dup2\n        /* \"#utility.yul\":22598:22618   */\n      sub\n        /* \"#utility.yul\":22594:22595   */\n      0x00\n        /* \"#utility.yul\":22583:22592   */\n      dup4\n        /* \"#utility.yul\":22579:22596   */\n      add\n        /* \"#utility.yul\":22572:22619   */\n      mstore\n        /* \"#utility.yul\":22636:22767   */\n      tag_739\n        /* \"#utility.yul\":22762:22766   */\n      dup2\n        /* \"#utility.yul\":22636:22767   */\n      tag_510\n      jump\t// in\n    tag_739:\n        /* \"#utility.yul\":22628:22767   */\n      swap1\n      pop\n        /* \"#utility.yul\":22355:22774   */\n      swap2\n      swap1\n      pop\n      jump\t// out\n        /* \"#utility.yul\":22780:22971   */\n    tag_345:\n        /* \"#utility.yul\":22820:22824   */\n      0x00\n        /* \"#utility.yul\":22840:22860   */\n      tag_741\n        /* \"#utility.yul\":22858:22859   */\n      dup3\n        /* \"#utility.yul\":22840:22860   */\n      tag_465\n      jump\t// in\n    tag_741:\n        /* \"#utility.yul\":22835:22860   */\n      swap2\n      pop\n        /* \"#utility.yul\":22874:22894   */\n      tag_742\n        /* \"#utility.yul\":22892:22893   */\n      dup4\n        /* \"#utility.yul\":22874:22894   */\n      tag_465\n      jump\t// in\n    tag_742:\n        /* \"#utility.yul\":22869:22894   */\n      swap3\n      pop\n        /* \"#utility.yul\":22913:22914   */\n      dup3\n        /* \"#utility.yul\":22910:22911   */\n      dup3\n        /* \"#utility.yul\":22907:22915   */\n      lt\n        /* \"#utility.yul\":22904:22938   */\n      iszero\n      tag_743\n      jumpi\n        /* \"#utility.yul\":22918:22936   */\n      tag_744\n      tag_499\n      jump\t// in\n    tag_744:\n        /* \"#utility.yul\":22904:22938   */\n    tag_743:\n        /* \"#utility.yul\":22963:22964   */\n      dup3\n        /* \"#utility.yul\":22960:22961   */\n      dup3\n        /* \"#utility.yul\":22956:22965   */\n      sub\n        /* \"#utility.yul\":22948:22965   */\n      swap1\n      pop\n        /* \"#utility.yul\":22780:22971   */\n      swap3\n      swap2\n      pop\n      pop\n      jump\t// out\n        /* \"#utility.yul\":22977:23206   */\n    tag_511:\n        /* \"#utility.yul\":23117:23151   */\n      0x416d6f756e74206d757374206265206c657373207468616e20746f74616c2072\n        /* \"#utility.yul\":23113:23114   */\n      0x00\n        /* \"#utility.yul\":23105:23111   */\n      dup3\n        /* \"#utility.yul\":23101:23115   */\n      add\n        /* \"#utility.yul\":23094:23152   */\n      mstore\n        /* \"#utility.yul\":23186:23198   */\n      0x65666c656374696f6e7300000000000000000000000000000000000000000000\n        /* \"#utility.yul\":23181:23183   */\n      0x20\n        /* \"#utility.yul\":23173:23179   */\n      dup3\n        /* \"#utility.yul\":23169:23184   */\n      add\n        /* \"#utility.yul\":23162:23199   */\n      mstore\n        /* \"#utility.yul\":22977:23206   */\n      pop\n      jump\t// out\n        /* \"#utility.yul\":23212:23578   */\n    tag_512:\n        /* \"#utility.yul\":23354:23357   */\n      0x00\n        /* \"#utility.yul\":23375:23442   */\n      tag_747\n        /* \"#utility.yul\":23439:23441   */\n      0x2a\n        /* \"#utility.yul\":23434:23437   */\n      dup4\n        /* \"#utility.yul\":23375:23442   */\n      tag_454\n      jump\t// in\n    tag_747:\n        /* \"#utility.yul\":23368:23442   */\n      swap2\n      pop\n        /* \"#utility.yul\":23451:23544   */\n      tag_748\n        /* \"#utility.yul\":23540:23543   */\n      dup3\n        /* \"#utility.yul\":23451:23544   */\n      tag_511\n      jump\t// in\n    tag_748:\n        /* \"#utility.yul\":23569:23571   */\n      0x40\n        /* \"#utility.yul\":23564:23567   */\n      dup3\n        /* \"#utility.yul\":23560:23572   */\n      add\n        /* \"#utility.yul\":23553:23572   */\n      swap1\n      pop\n        /* \"#utility.yul\":23212:23578   */\n      swap2\n      swap1\n      pop\n      jump\t// out\n        /* \"#utility.yul\":23584:24003   */\n    tag_357:\n        /* \"#utility.yul\":23750:23754   */\n      0x00\n        /* \"#utility.yul\":23788:23790   */\n      0x20\n        /* \"#utility.yul\":23777:23786   */\n      dup3\n        /* \"#utility.yul\":23773:23791   */\n      add\n        /* \"#utility.yul\":23765:23791   */\n      swap1\n      pop\n        /* \"#utility.yul\":23837:23846   */\n      dup2\n        /* \"#utility.yul\":23831:23835   */\n      dup2\n        /* \"#utility.yul\":23827:23847   */\n      sub\n        /* \"#utility.yul\":23823:23824   */\n      0x00\n        /* \"#utility.yul\":23812:23821   */\n      dup4\n        /* \"#utility.yul\":23808:23825   */\n      add\n        /* \"#utility.yul\":23801:23848   */\n      mstore\n        /* \"#utility.yul\":23865:23996   */\n      tag_750\n        /* \"#utility.yul\":23991:23995   */\n      dup2\n        /* \"#utility.yul\":23865:23996   */\n      tag_512\n      jump\t// in\n    tag_750:\n        /* \"#utility.yul\":23857:23996   */\n      swap1\n      pop\n        /* \"#utility.yul\":23584:24003   */\n      swap2\n      swap1\n      pop\n      jump\t// out\n        /* \"#utility.yul\":24009:24189   */\n    tag_365:\n        /* \"#utility.yul\":24057:24134   */\n      0x4e487b7100000000000000000000000000000000000000000000000000000000\n        /* \"#utility.yul\":24054:24055   */\n      0x00\n        /* \"#utility.yul\":24047:24135   */\n      mstore\n        /* \"#utility.yul\":24154:24158   */\n      0x41\n        /* \"#utility.yul\":24151:24152   */\n      0x04\n        /* \"#utility.yul\":24144:24159   */\n      mstore\n        /* \"#utility.yul\":24178:24182   */\n      0x24\n        /* \"#utility.yul\":24175:24176   */\n      0x00\n        /* \"#utility.yul\":24168:24183   */\n      revert\n        /* \"#utility.yul\":24195:24280   */\n    tag_513:\n        /* \"#utility.yul\":24240:24247   */\n      0x00\n        /* \"#utility.yul\":24269:24274   */\n      dup2\n        /* \"#utility.yul\":24258:24274   */\n      swap1\n      pop\n        /* \"#utility.yul\":24195:24280   */\n      swap2\n      swap1\n      pop\n      jump\t// out\n        /* \"#utility.yul\":24286:24444   */\n    tag_514:\n        /* \"#utility.yul\":24344:24353   */\n      0x00\n        /* \"#utility.yul\":24377:24438   */\n      tag_754\n        /* \"#utility.yul\":24395:24437   */\n      tag_755\n        /* \"#utility.yul\":24404:24436   */\n      tag_756\n        /* \"#utility.yul\":24430:24435   */\n      dup5\n        /* \"#utility.yul\":24404:24436   */\n      tag_513\n      jump\t// in\n    tag_756:\n        /* \"#utility.yul\":24395:24437   */\n      tag_470\n      jump\t// in\n    tag_755:\n        /* \"#utility.yul\":24377:24438   */\n      tag_465\n      jump\t// in\n    tag_754:\n        /* \"#utility.yul\":24364:24438   */\n      swap1\n      pop\n        /* \"#utility.yul\":24286:24444   */\n      swap2\n      swap1\n      pop\n      jump\t// out\n        /* \"#utility.yul\":24450:24597   */\n    tag_515:\n        /* \"#utility.yul\":24545:24590   */\n      tag_758\n        /* \"#utility.yul\":24584:24589   */\n      dup2\n        /* \"#utility.yul\":24545:24590   */\n      tag_514\n      jump\t// in\n    tag_758:\n        /* \"#utility.yul\":24540:24543   */\n      dup3\n        /* \"#utility.yul\":24533:24591   */\n      mstore\n        /* \"#utility.yul\":24450:24597   */\n      pop\n      pop\n      jump\t// out\n        /* \"#utility.yul\":24603:24717   */\n    tag_516:\n        /* \"#utility.yul\":24670:24676   */\n      0x00\n        /* \"#utility.yul\":24704:24709   */\n      dup2\n        /* \"#utility.yul\":24698:24710   */\n      mload\n        /* \"#utility.yul\":24688:24710   */\n      swap1\n      pop\n        /* \"#utility.yul\":24603:24717   */\n      swap2\n      swap1\n      pop\n      jump\t// out\n        /* \"#utility.yul\":24723:24907   */\n    tag_517:\n        /* \"#utility.yul\":24822:24833   */\n      0x00\n        /* \"#utility.yul\":24856:24862   */\n      dup3\n        /* \"#utility.yul\":24851:24854   */\n      dup3\n        /* \"#utility.yul\":24844:24863   */\n      mstore\n        /* \"#utility.yul\":24896:24900   */\n      0x20\n        /* \"#utility.yul\":24891:24894   */\n      dup3\n        /* \"#utility.yul\":24887:24901   */\n      add\n        /* \"#utility.yul\":24872:24901   */\n      swap1\n      pop\n        /* \"#utility.yul\":24723:24907   */\n      swap3\n      swap2\n      pop\n      pop\n      jump\t// out\n        /* \"#utility.yul\":24913:25045   */\n    tag_518:\n        /* \"#utility.yul\":24980:24984   */\n      0x00\n        /* \"#utility.yul\":25003:25006   */\n      dup2\n        /* \"#utility.yul\":24995:25006   */\n      swap1\n      pop\n        /* \"#utility.yul\":25033:25037   */\n      0x20\n        /* \"#utility.yul\":25028:25031   */\n      dup3\n        /* \"#utility.yul\":25024:25038   */\n      add\n        /* \"#utility.yul\":25016:25038   */\n      swap1\n      pop\n        /* \"#utility.yul\":24913:25045   */\n      swap2\n      swap1\n      pop\n      jump\t// out\n        /* \"#utility.yul\":25051:25159   */\n    tag_519:\n        /* \"#utility.yul\":25128:25152   */\n      tag_763\n        /* \"#utility.yul\":25146:25151   */\n      dup2\n        /* \"#utility.yul\":25128:25152   */\n      tag_462\n      jump\t// in\n    tag_763:\n        /* \"#utility.yul\":25123:25126   */\n      dup3\n        /* \"#utility.yul\":25116:25153   */\n      mstore\n        /* \"#utility.yul\":25051:25159   */\n      pop\n      pop\n      jump\t// out\n        /* \"#utility.yul\":25165:25344   */\n    tag_520:\n        /* \"#utility.yul\":25234:25244   */\n      0x00\n        /* \"#utility.yul\":25255:25301   */\n      tag_765\n        /* \"#utility.yul\":25297:25300   */\n      dup4\n        /* \"#utility.yul\":25289:25295   */\n      dup4\n        /* \"#utility.yul\":25255:25301   */\n      tag_519\n      jump\t// in\n    tag_765:\n        /* \"#utility.yul\":25333:25337   */\n      0x20\n        /* \"#utility.yul\":25328:25331   */\n      dup4\n        /* \"#utility.yul\":25324:25338   */\n      add\n        /* \"#utility.yul\":25310:25338   */\n      swap1\n      pop\n        /* \"#utility.yul\":25165:25344   */\n      swap3\n      swap2\n      pop\n      pop\n      jump\t// out\n        /* \"#utility.yul\":25350:25463   */\n    tag_521:\n        /* \"#utility.yul\":25420:25424   */\n      0x00\n        /* \"#utility.yul\":25452:25456   */\n      0x20\n        /* \"#utility.yul\":25447:25450   */\n      dup3\n        /* \"#utility.yul\":25443:25457   */\n      add\n        /* \"#utility.yul\":25435:25457   */\n      swap1\n      pop\n        /* \"#utility.yul\":25350:25463   */\n      swap2\n      swap1\n      pop\n      jump\t// out\n        /* \"#utility.yul\":25499:26231   */\n    tag_522:\n        /* \"#utility.yul\":25618:25621   */\n      0x00\n        /* \"#utility.yul\":25647:25701   */\n      tag_768\n        /* \"#utility.yul\":25695:25700   */\n      dup3\n        /* \"#utility.yul\":25647:25701   */\n      tag_516\n      jump\t// in\n    tag_768:\n        /* \"#utility.yul\":25717:25803   */\n      tag_769\n        /* \"#utility.yul\":25796:25802   */\n      dup2\n        /* \"#utility.yul\":25791:25794   */\n      dup6\n        /* \"#utility.yul\":25717:25803   */\n      tag_517\n      jump\t// in\n    tag_769:\n        /* \"#utility.yul\":25710:25803   */\n      swap4\n      pop\n        /* \"#utility.yul\":25827:25883   */\n      tag_770\n        /* \"#utility.yul\":25877:25882   */\n      dup4\n        /* \"#utility.yul\":25827:25883   */\n      tag_518\n      jump\t// in\n    tag_770:\n        /* \"#utility.yul\":25906:25913   */\n      dup1\n        /* \"#utility.yul\":25937:25938   */\n      0x00\n        /* \"#utility.yul\":25922:26206   */\n    tag_771:\n        /* \"#utility.yul\":25947:25953   */\n      dup4\n        /* \"#utility.yul\":25944:25945   */\n      dup2\n        /* \"#utility.yul\":25941:25954   */\n      lt\n        /* \"#utility.yul\":25922:26206   */\n      iszero\n      tag_773\n      jumpi\n        /* \"#utility.yul\":26023:26029   */\n      dup2\n        /* \"#utility.yul\":26017:26030   */\n      mload\n        /* \"#utility.yul\":26050:26113   */\n      tag_774\n        /* \"#utility.yul\":26109:26112   */\n      dup9\n        /* \"#utility.yul\":26094:26107   */\n      dup3\n        /* \"#utility.yul\":26050:26113   */\n      tag_520\n      jump\t// in\n    tag_774:\n        /* \"#utility.yul\":26043:26113   */\n      swap8\n      pop\n        /* \"#utility.yul\":26136:26196   */\n      tag_775\n        /* \"#utility.yul\":26189:26195   */\n      dup4\n        /* \"#utility.yul\":26136:26196   */\n      tag_521\n      jump\t// in\n    tag_775:\n        /* \"#utility.yul\":26126:26196   */\n      swap3\n      pop\n        /* \"#utility.yul\":25982:26206   */\n      pop\n        /* \"#utility.yul\":25969:25970   */\n      0x01\n        /* \"#utility.yul\":25966:25967   */\n      dup2\n        /* \"#utility.yul\":25962:25971   */\n      add\n        /* \"#utility.yul\":25957:25971   */\n      swap1\n      pop\n        /* \"#utility.yul\":25922:26206   */\n      jump(tag_771)\n    tag_773:\n        /* \"#utility.yul\":25926:25940   */\n      pop\n        /* \"#utility.yul\":26222:26225   */\n      dup6\n        /* \"#utility.yul\":26215:26225   */\n      swap4\n      pop\n        /* \"#utility.yul\":25623:26231   */\n      pop\n      pop\n      pop\n        /* \"#utility.yul\":25499:26231   */\n      swap3\n      swap2\n      pop\n      pop\n      jump\t// out\n        /* \"#utility.yul\":26237:27068   */\n    tag_376:\n        /* \"#utility.yul\":26500:26504   */\n      0x00\n        /* \"#utility.yul\":26538:26541   */\n      0xa0\n        /* \"#utility.yul\":26527:26536   */\n      dup3\n        /* \"#utility.yul\":26523:26542   */\n      add\n        /* \"#utility.yul\":26515:26542   */\n      swap1\n      pop\n        /* \"#utility.yul\":26552:26623   */\n      tag_777\n        /* \"#utility.yul\":26620:26621   */\n      0x00\n        /* \"#utility.yul\":26609:26618   */\n      dup4\n        /* \"#utility.yul\":26605:26622   */\n      add\n        /* \"#utility.yul\":26596:26602   */\n      dup9\n        /* \"#utility.yul\":26552:26623   */\n      tag_475\n      jump\t// in\n    tag_777:\n        /* \"#utility.yul\":26633:26713   */\n      tag_778\n        /* \"#utility.yul\":26709:26711   */\n      0x20\n        /* \"#utility.yul\":26698:26707   */\n      dup4\n        /* \"#utility.yul\":26694:26712   */\n      add\n        /* \"#utility.yul\":26685:26691   */\n      dup8\n        /* \"#utility.yul\":26633:26713   */\n      tag_515\n      jump\t// in\n    tag_778:\n        /* \"#utility.yul\":26760:26769   */\n      dup2\n        /* \"#utility.yul\":26754:26758   */\n      dup2\n        /* \"#utility.yul\":26750:26770   */\n      sub\n        /* \"#utility.yul\":26745:26747   */\n      0x40\n        /* \"#utility.yul\":26734:26743   */\n      dup4\n        /* \"#utility.yul\":26730:26748   */\n      add\n        /* \"#utility.yul\":26723:26771   */\n      mstore\n        /* \"#utility.yul\":26788:26896   */\n      tag_779\n        /* \"#utility.yul\":26891:26895   */\n      dup2\n        /* \"#utility.yul\":26882:26888   */\n      dup7\n        /* \"#utility.yul\":26788:26896   */\n      tag_522\n      jump\t// in\n    tag_779:\n        /* \"#utility.yul\":26780:26896   */\n      swap1\n      pop\n        /* \"#utility.yul\":26906:26978   */\n      tag_780\n        /* \"#utility.yul\":26974:26976   */\n      0x60\n        /* \"#utility.yul\":26963:26972   */\n      dup4\n        /* \"#utility.yul\":26959:26977   */\n      add\n        /* \"#utility.yul\":26950:26956   */\n      dup6\n        /* \"#utility.yul\":26906:26978   */\n      tag_476\n      jump\t// in\n    tag_780:\n        /* \"#utility.yul\":26988:27061   */\n      tag_781\n        /* \"#utility.yul\":27056:27059   */\n      0x80\n        /* \"#utility.yul\":27045:27054   */\n      dup4\n        /* \"#utility.yul\":27041:27060   */\n      add\n        /* \"#utility.yul\":27032:27038   */\n      dup5\n        /* \"#utility.yul\":26988:27061   */\n      tag_475\n      jump\t// in\n    tag_781:\n        /* \"#utility.yul\":26237:27068   */\n      swap7\n      swap6\n      pop\n      pop\n      pop\n      pop\n      pop\n      pop\n      jump\t// out\n        /* \"#utility.yul\":27074:27254   */\n    tag_523:\n        /* \"#utility.yul\":27122:27199   */\n      0x4e487b7100000000000000000000000000000000000000000000000000000000\n        /* \"#utility.yul\":27119:27120   */\n      0x00\n        /* \"#utility.yul\":27112:27200   */\n      mstore\n        /* \"#utility.yul\":27219:27223   */\n      0x12\n        /* \"#utility.yul\":27216:27217   */\n      0x04\n        /* \"#utility.yul\":27209:27224   */\n      mstore\n        /* \"#utility.yul\":27243:27247   */\n      0x24\n        /* \"#utility.yul\":27240:27241   */\n      0x00\n        /* \"#utility.yul\":27233:27248   */\n      revert\n        /* \"#utility.yul\":27260:27445   */\n    tag_406:\n        /* \"#utility.yul\":27300:27301   */\n      0x00\n        /* \"#utility.yul\":27317:27337   */\n      tag_784\n        /* \"#utility.yul\":27335:27336   */\n      dup3\n        /* \"#utility.yul\":27317:27337   */\n      tag_465\n      jump\t// in\n    tag_784:\n        /* \"#utility.yul\":27312:27337   */\n      swap2\n      pop\n        /* \"#utility.yul\":27351:27371   */\n      tag_785\n        /* \"#utility.yul\":27369:27370   */\n      dup4\n        /* \"#utility.yul\":27351:27371   */\n      tag_465\n      jump\t// in\n    tag_785:\n        /* \"#utility.yul\":27346:27371   */\n      swap3\n      pop\n        /* \"#utility.yul\":27390:27391   */\n      dup3\n        /* \"#utility.yul\":27380:27415   */\n      tag_786\n      jumpi\n        /* \"#utility.yul\":27395:27413   */\n      tag_787\n      tag_523\n      jump\t// in\n    tag_787:\n        /* \"#utility.yul\":27380:27415   */\n    tag_786:\n        /* \"#utility.yul\":27437:27438   */\n      dup3\n        /* \"#utility.yul\":27434:27435   */\n      dup3\n        /* \"#utility.yul\":27430:27439   */\n      div\n        /* \"#utility.yul\":27425:27439   */\n      swap1\n      pop\n        /* \"#utility.yul\":27260:27445   */\n      swap3\n      swap2\n      pop\n      pop\n      jump\t// out\n        /* \"#utility.yul\":27451:27756   */\n    tag_420:\n        /* \"#utility.yul\":27491:27494   */\n      0x00\n        /* \"#utility.yul\":27510:27530   */\n      tag_789\n        /* \"#utility.yul\":27528:27529   */\n      dup3\n        /* \"#utility.yul\":27510:27530   */\n      tag_465\n      jump\t// in\n    tag_789:\n        /* \"#utility.yul\":27505:27530   */\n      swap2\n      pop\n        /* \"#utility.yul\":27544:27564   */\n      tag_790\n        /* \"#utility.yul\":27562:27563   */\n      dup4\n        /* \"#utility.yul\":27544:27564   */\n      tag_465\n      jump\t// in\n    tag_790:\n        /* \"#utility.yul\":27539:27564   */\n      swap3\n      pop\n        /* \"#utility.yul\":27698:27699   */\n      dup3\n        /* \"#utility.yul\":27630:27696   */\n      0xffffffffffffffffffffffffffffffffffffffffffffffffffffffffffffffff\n        /* \"#utility.yul\":27626:27700   */\n      sub\n        /* \"#utility.yul\":27623:27624   */\n      dup3\n        /* \"#utility.yul\":27620:27701   */\n      gt\n        /* \"#utility.yul\":27617:27724   */\n      iszero\n      tag_791\n      jumpi\n        /* \"#utility.yul\":27704:27722   */\n      tag_792\n      tag_499\n      jump\t// in\n    tag_792:\n        /* \"#utility.yul\":27617:27724   */\n    tag_791:\n        /* \"#utility.yul\":27748:27749   */\n      dup3\n        /* \"#utility.yul\":27745:27746   */\n      dup3\n        /* \"#utility.yul\":27741:27750   */\n      add\n        /* \"#utility.yul\":27734:27750   */\n      swap1\n      pop\n        /* \"#utility.yul\":27451:27756   */\n      swap3\n      swap2\n      pop\n      pop\n      jump\t// out\n        /* \"#utility.yul\":27762:27939   */\n    tag_524:\n        /* \"#utility.yul\":27902:27931   */\n      0x536166654d6174683a206164646974696f6e206f766572666c6f770000000000\n        /* \"#utility.yul\":27898:27899   */\n      0x00\n        /* \"#utility.yul\":27890:27896   */\n      dup3\n        /* \"#utility.yul\":27886:27900   */\n      add\n        /* \"#utility.yul\":27879:27932   */\n      mstore\n        /* \"#utility.yul\":27762:27939   */\n      pop\n      jump\t// out\n        /* \"#utility.yul\":27945:28311   */\n    tag_525:\n        /* \"#utility.yul\":28087:28090   */\n      0x00\n        /* \"#utility.yul\":28108:28175   */\n      tag_795\n        /* \"#utility.yul\":28172:28174   */\n      0x1b\n        /* \"#utility.yul\":28167:28170   */\n      dup4\n        /* \"#utility.yul\":28108:28175   */\n      tag_454\n      jump\t// in\n    tag_795:\n        /* \"#utility.yul\":28101:28175   */\n      swap2\n      pop\n        /* \"#utility.yul\":28184:28277   */\n      tag_796\n        /* \"#utility.yul\":28273:28276   */\n      dup3\n        /* \"#utility.yul\":28184:28277   */\n      tag_524\n      jump\t// in\n    tag_796:\n        /* \"#utility.yul\":28302:28304   */\n      0x20\n        /* \"#utility.yul\":28297:28300   */\n      dup3\n        /* \"#utility.yul\":28293:28305   */\n      add\n        /* \"#utility.yul\":28286:28305   */\n      swap1\n      pop\n        /* \"#utility.yul\":27945:28311   */\n      swap2\n      swap1\n      pop\n      jump\t// out\n        /* \"#utility.yul\":28317:28736   */\n    tag_423:\n        /* \"#utility.yul\":28483:28487   */\n      0x00\n        /* \"#utility.yul\":28521:28523   */\n      0x20\n        /* \"#utility.yul\":28510:28519   */\n      dup3\n        /* \"#utility.yul\":28506:28524   */\n      add\n        /* \"#utility.yul\":28498:28524   */\n      swap1\n      pop\n        /* \"#utility.yul\":28570:28579   */\n      dup2\n        /* \"#utility.yul\":28564:28568   */\n      dup2\n        /* \"#utility.yul\":28560:28580   */\n      sub\n        /* \"#utility.yul\":28556:28557   */\n      0x00\n        /* \"#utility.yul\":28545:28554   */\n      dup4\n        /* \"#utility.yul\":28541:28558   */\n      add\n        /* \"#utility.yul\":28534:28581   */\n      mstore\n        /* \"#utility.yul\":28598:28729   */\n      tag_798\n        /* \"#utility.yul\":28724:28728   */\n      dup2\n        /* \"#utility.yul\":28598:28729   */\n      tag_525\n      jump\t// in\n    tag_798:\n        /* \"#utility.yul\":28590:28729   */\n      swap1\n      pop\n        /* \"#utility.yul\":28317:28736   */\n      swap2\n      swap1\n      pop\n      jump\t// out\n        /* \"#utility.yul\":28742:29090   */\n    tag_448:\n        /* \"#utility.yul\":28782:28789   */\n      0x00\n        /* \"#utility.yul\":28805:28825   */\n      tag_800\n        /* \"#utility.yul\":28823:28824   */\n      dup3\n        /* \"#utility.yul\":28805:28825   */\n      tag_465\n      jump\t// in\n    tag_800:\n        /* \"#utility.yul\":28800:28825   */\n      swap2\n      pop\n        /* \"#utility.yul\":28839:28859   */\n      tag_801\n        /* \"#utility.yul\":28857:28858   */\n      dup4\n        /* \"#utility.yul\":28839:28859   */\n      tag_465\n      jump\t// in\n    tag_801:\n        /* \"#utility.yul\":28834:28859   */\n      swap3\n      pop\n        /* \"#utility.yul\":29027:29028   */\n      dup2\n        /* \"#utility.yul\":28959:29025   */\n      0xffffffffffffffffffffffffffffffffffffffffffffffffffffffffffffffff\n        /* \"#utility.yul\":28955:29029   */\n      div\n        /* \"#utility.yul\":28952:28953   */\n      dup4\n        /* \"#utility.yul\":28949:29030   */\n      gt\n        /* \"#utility.yul\":28944:28945   */\n      dup3\n        /* \"#utility.yul\":28937:28946   */\n      iszero\n        /* \"#utility.yul\":28930:28947   */\n      iszero\n        /* \"#utility.yul\":28926:29031   */\n      and\n        /* \"#utility.yul\":28923:29054   */\n      iszero\n      tag_802\n      jumpi\n        /* \"#utility.yul\":29034:29052   */\n      tag_803\n      tag_499\n      jump\t// in\n    tag_803:\n        /* \"#utility.yul\":28923:29054   */\n    tag_802:\n        /* \"#utility.yul\":29082:29083   */\n      dup3\n        /* \"#utility.yul\":29079:29080   */\n      dup3\n        /* \"#utility.yul\":29075:29084   */\n      mul\n        /* \"#utility.yul\":29064:29084   */\n      swap1\n      pop\n        /* \"#utility.yul\":28742:29090   */\n      swap3\n      swap2\n      pop\n      pop\n      jump\t// out\n        /* \"#utility.yul\":29096:29316   */\n    tag_526:\n        /* \"#utility.yul\":29236:29270   */\n      0x536166654d6174683a206d756c7469706c69636174696f6e206f766572666c6f\n        /* \"#utility.yul\":29232:29233   */\n      0x00\n        /* \"#utility.yul\":29224:29230   */\n      dup3\n        /* \"#utility.yul\":29220:29234   */\n      add\n        /* \"#utility.yul\":29213:29271   */\n      mstore\n        /* \"#utility.yul\":29305:29308   */\n      0x7700000000000000000000000000000000000000000000000000000000000000\n        /* \"#utility.yul\":29300:29302   */\n      0x20\n        /* \"#utility.yul\":29292:29298   */\n      dup3\n        /* \"#utility.yul\":29288:29303   */\n      add\n        /* \"#utility.yul\":29281:29309   */\n      mstore\n        /* \"#utility.yul\":29096:29316   */\n      pop\n      jump\t// out\n        /* \"#utility.yul\":29322:29688   */\n    tag_527:\n        /* \"#utility.yul\":29464:29467   */\n      0x00\n        /* \"#utility.yul\":29485:29552   */\n      tag_806\n        /* \"#utility.yul\":29549:29551   */\n      0x21\n        /* \"#utility.yul\":29544:29547   */\n      dup4\n        /* \"#utility.yul\":29485:29552   */\n      tag_454\n      jump\t// in\n    tag_806:\n        /* \"#utility.yul\":29478:29552   */\n      swap2\n      pop\n        /* \"#utility.yul\":29561:29654   */\n      tag_807\n        /* \"#utility.yul\":29650:29653   */\n      dup3\n        /* \"#utility.yul\":29561:29654   */\n      tag_526\n      jump\t// in\n    tag_807:\n        /* \"#utility.yul\":29679:29681   */\n      0x40\n        /* \"#utility.yul\":29674:29677   */\n      dup3\n        /* \"#utility.yul\":29670:29682   */\n      add\n        /* \"#utility.yul\":29663:29682   */\n      swap1\n      pop\n        /* \"#utility.yul\":29322:29688   */\n      swap2\n      swap1\n      pop\n      jump\t// out\n        /* \"#utility.yul\":29694:30113   */\n    tag_452:\n        /* \"#utility.yul\":29860:29864   */\n      0x00\n        /* \"#utility.yul\":29898:29900   */\n      0x20\n        /* \"#utility.yul\":29887:29896   */\n      dup3\n        /* \"#utility.yul\":29883:29901   */\n      add\n        /* \"#utility.yul\":29875:29901   */\n      swap1\n      pop\n        /* \"#utility.yul\":29947:29956   */\n      dup2\n        /* \"#utility.yul\":29941:29945   */\n      dup2\n        /* \"#utility.yul\":29937:29957   */\n      sub\n        /* \"#utility.yul\":29933:29934   */\n      0x00\n        /* \"#utility.yul\":29922:29931   */\n      dup4\n        /* \"#utility.yul\":29918:29935   */\n      add\n        /* \"#utility.yul\":29911:29958   */\n      mstore\n        /* \"#utility.yul\":29975:30106   */\n      tag_809\n        /* \"#utility.yul\":30101:30105   */\n      dup2\n        /* \"#utility.yul\":29975:30106   */\n      tag_527\n      jump\t// in\n    tag_809:\n        /* \"#utility.yul\":29967:30106   */\n      swap1\n      pop\n        /* \"#utility.yul\":29694:30113   */\n      swap2\n      swap1\n      pop\n      jump\t// out\n    stop\n    data_974d1b4421da69cc60b481194f0dad36a5bb4e23da810da7a7fb30cdba178330 45524332303a207472616e7366657220616d6f756e74206578636565647320616c6c6f77616e6365\n\n    auxdata: 0xa2646970667358221220d99b8af4cb9ac1f2a9a79109ea37a6c00473ed3742245dba57dc4f85964e951064736f6c634300080d0033\n}\n",
				"bytecode": {
					"linkReferences": {},
					"object": "6080604052670de0b6b3a76400006414f46b04006200001f919062000538565b6414f46b04006200003191906200059f565b600655600160085560046009556001600a556001600b55738492cbd894686d7e98214541903c7ba6f94928d6600e60006101000a81548173ffffffffffffffffffffffffffffffffffffffff021916908373ffffffffffffffffffffffffffffffffffffffff16021790555073a4ed7aa4ef5deb0a63e97d9cb77445ae553feb1d600f60006101000a81548173ffffffffffffffffffffffffffffffffffffffff021916908373ffffffffffffffffffffffffffffffffffffffff1602179055506000601260146101000a81548160ff0219169083151502179055506001601260156101000a81548160ff0219169083151502179055503480156200013557600080fd5b50600062000148620004ce60201b60201c565b9050806000806101000a81548173ffffffffffffffffffffffffffffffffffffffff021916908373ffffffffffffffffffffffffffffffffffffffff1602179055508073ffffffffffffffffffffffffffffffffffffffff16600073ffffffffffffffffffffffffffffffffffffffff167f8be0079c531659141344cd1fd0a4f28419497f9722a3daafe3b4186f6b6457e060405160405180910390a35060065460026000620001fd620004ce60201b60201c565b73ffffffffffffffffffffffffffffffffffffffff1673ffffffffffffffffffffffffffffffffffffffff1681526020019081526020016000208190555060007310ed43c718714eb63d5aa57b78b54704e256024e905080601060006101000a81548173ffffffffffffffffffffffffffffffffffffffff021916908373ffffffffffffffffffffffffffffffffffffffff160217905550600160056000620002ab620004d660201b60201c565b73ffffffffffffffffffffffffffffffffffffffff1673ffffffffffffffffffffffffffffffffffffffff16815260200190815260200160002060006101000a81548160ff0219169083151502179055506001600560003073ffffffffffffffffffffffffffffffffffffffff1673ffffffffffffffffffffffffffffffffffffffff16815260200190815260200160002060006101000a81548160ff021916908315150217905550600160056000600e60009054906101000a900473ffffffffffffffffffffffffffffffffffffffff1673ffffffffffffffffffffffffffffffffffffffff1673ffffffffffffffffffffffffffffffffffffffff16815260200190815260200160002060006101000a81548160ff021916908315150217905550600160056000600f60009054906101000a900473ffffffffffffffffffffffffffffffffffffffff1673ffffffffffffffffffffffffffffffffffffffff1673ffffffffffffffffffffffffffffffffffffffff16815260200190815260200160002060006101000a81548160ff02191690831515021790555062000458620004ce60201b60201c565b73ffffffffffffffffffffffffffffffffffffffff16600073ffffffffffffffffffffffffffffffffffffffff167fddf252ad1be2c89b69c2b068fc378daa952ba7f163c4a11628f55a4df523b3ef670de0b6b3a7640000604051620004bf9190620005eb565b60405180910390a35062000608565b600033905090565b60008060009054906101000a900473ffffffffffffffffffffffffffffffffffffffff16905090565b6000819050919050565b7f4e487b7100000000000000000000000000000000000000000000000000000000600052601260045260246000fd5b60006200054582620004ff565b91506200055283620004ff565b92508262000565576200056462000509565b5b828206905092915050565b7f4e487b7100000000000000000000000000000000000000000000000000000000600052601160045260246000fd5b6000620005ac82620004ff565b9150620005b983620004ff565b925082821015620005cf57620005ce62000570565b5b828203905092915050565b620005e581620004ff565b82525050565b6000602082019050620006026000830184620005da565b92915050565b613d8280620006186000396000f3fe60806040526004361061016a5760003560e01c806370a08231116100d1578063a9059cbb1161008a578063c492f04611610064578063c492f046146104ed578063dd62ed3e14610516578063e293d31614610553578063f2fde38b1461057c57610171565b8063a9059cbb14610470578063aad5c023146104ad578063c3c8cd80146104d657610171565b806370a0823114610374578063715018a6146103b1578063758dbe03146103c85780638da5cb5b146103f157806395d89b411461041c578063a2a957bb1461044757610171565b80632eb9110c116101235780632eb9110c14610288578063313ce567146102b357806349bd5a5e146102de57806359d0f713146103095780636d8aa8f8146103345780636fc3eaec1461035d57610171565b806305a272ea1461017657806306fdde031461018d578063095ea7b3146101b85780631694505e146101f557806318160ddd1461022057806323b872dd1461024b57610171565b3661017157005b600080fd5b34801561018257600080fd5b5061018b6105a5565b005b34801561019957600080fd5b506101a261081a565b6040516101af9190612da1565b60405180910390f35b3480156101c457600080fd5b506101df60048036038101906101da9190612e61565b610857565b6040516101ec9190612ebc565b60405180910390f35b34801561020157600080fd5b5061020a610875565b6040516102179190612f36565b60405180910390f35b34801561022c57600080fd5b5061023561089b565b6040516102429190612f60565b60405180910390f35b34801561025757600080fd5b50610272600480360381019061026d9190612f7b565b6108ab565b60405161027f9190612ebc565b60405180910390f35b34801561029457600080fd5b5061029d610984565b6040516102aa9190612fdd565b60405180910390f35b3480156102bf57600080fd5b506102c8610a1c565b6040516102d59190613014565b60405180910390f35b3480156102ea57600080fd5b506102f3610a25565b6040516103009190612fdd565b60405180910390f35b34801561031557600080fd5b5061031e610a4b565b60405161032b9190613050565b60405180910390f35b34801561034057600080fd5b5061035b60048036038101906103569190613097565b610a71565b005b34801561036957600080fd5b50610372610b69565b005b34801561038057600080fd5b5061039b600480360381019061039691906130c4565b610c7e565b6040516103a89190612f60565b60405180910390f35b3480156103bd57600080fd5b506103c6610ccf565b005b3480156103d457600080fd5b506103ef60048036038101906103ea919061312f565b610e22565b005b3480156103fd57600080fd5b50610406611037565b6040516104139190612fdd565b60405180910390f35b34801561042857600080fd5b50610431611060565b60405161043e9190612da1565b60405180910390f35b34801561045357600080fd5b5061046e6004803603810190610469919061315c565b61109d565b005b34801561047c57600080fd5b5061049760048036038101906104929190612e61565b6112a6565b6040516104a49190612ebc565b60405180910390f35b3480156104b957600080fd5b506104d460048036038101906104cf919061312f565b6112c4565b005b3480156104e257600080fd5b506104eb6114d9565b005b3480156104f957600080fd5b50610514600480360381019061050f9190613228565b6115f6565b005b34801561052257600080fd5b5061053d60048036038101906105389190613288565b611730565b60405161054a9190612f60565b60405180910390f35b34801561055f57600080fd5b5061057a60048036038101906105759190612f7b565b6117b7565b005b34801561058857600080fd5b506105a3600480360381019061059e91906130c4565b61197b565b005b6105ad611acd565b73ffffffffffffffffffffffffffffffffffffffff1660008054906101000a900473ffffffffffffffffffffffffffffffffffffffff1673ffffffffffffffffffffffffffffffffffffffff161461063a576040517f08c379a000000000000000000000000000000000000000000000000000000000815260040161063190613314565b60405180910390fd5b601060009054906101000a900473ffffffffffffffffffffffffffffffffffffffff1673ffffffffffffffffffffffffffffffffffffffff1663c45a01556040518163ffffffff1660e01b8152600401602060405180830381865afa1580156106a7573d6000803e3d6000fd5b505050506040513d601f19601f820116820180604052508101906106cb9190613349565b73ffffffffffffffffffffffffffffffffffffffff1663c9c6539630601060009054906101000a900473ffffffffffffffffffffffffffffffffffffffff1673ffffffffffffffffffffffffffffffffffffffff1663ad5c46486040518163ffffffff1660e01b8152600401602060405180830381865afa158015610754573d6000803e3d6000fd5b505050506040513d601f19601f820116820180604052508101906107789190613349565b6040518363ffffffff1660e01b8152600401610795929190613376565b6020604051808303816000875af11580156107b4573d6000803e3d6000fd5b505050506040513d601f19601f820116820180604052508101906107d89190613349565b601260006101000a81548173ffffffffffffffffffffffffffffffffffffffff021916908373ffffffffffffffffffffffffffffffffffffffff160217905550565b60606040518060400160405280600a81526020017f576f726c64205374657000000000000000000000000000000000000000000000815250905090565b600061086b610864611acd565b8484611ad5565b6001905092915050565b601060009054906101000a900473ffffffffffffffffffffffffffffffffffffffff1681565b6000670de0b6b3a7640000905090565b60006108b8848484611c9e565b610979846108c4611acd565b61097485604051806060016040528060288152602001613d2560289139600460008b73ffffffffffffffffffffffffffffffffffffffff1673ffffffffffffffffffffffffffffffffffffffff168152602001908152602001600020600061092a611acd565b73ffffffffffffffffffffffffffffffffffffffff1673ffffffffffffffffffffffffffffffffffffffff168152602001908152602001600020546122109092919063ffffffff16565b611ad5565b600190509392505050565b6000601060009054906101000a900473ffffffffffffffffffffffffffffffffffffffff1673ffffffffffffffffffffffffffffffffffffffff1663c45a01556040518163ffffffff1660e01b8152600401602060405180830381865afa1580156109f3573d6000803e3d6000fd5b505050506040513d601f19601f82011682018060405250810190610a179190613349565b905090565b60006009905090565b601260009054906101000a900473ffffffffffffffffffffffffffffffffffffffff1681565b601160009054906101000a900473ffffffffffffffffffffffffffffffffffffffff1681565b610a79611acd565b73ffffffffffffffffffffffffffffffffffffffff16610a97611037565b73ffffffffffffffffffffffffffffffffffffffff161480610b0d5750610abc611acd565b73ffffffffffffffffffffffffffffffffffffffff16600e60009054906101000a900473ffffffffffffffffffffffffffffffffffffffff1673ffffffffffffffffffffffffffffffffffffffff16145b610b4c576040517f08c379a0000000000000000000000000000000000000000000000000000000008152600401610b43906133eb565b60405180910390fd5b80601260156101000a81548160ff02191690831515021790555050565b600e60009054906101000a900473ffffffffffffffffffffffffffffffffffffffff1673ffffffffffffffffffffffffffffffffffffffff16610baa611acd565b73ffffffffffffffffffffffffffffffffffffffff161480610c205750600f60009054906101000a900473ffffffffffffffffffffffffffffffffffffffff1673ffffffffffffffffffffffffffffffffffffffff16610c08611acd565b73ffffffffffffffffffffffffffffffffffffffff16145b80610c645750610c2e611037565b73ffffffffffffffffffffffffffffffffffffffff16610c4c611acd565b73ffffffffffffffffffffffffffffffffffffffff16145b610c6d57600080fd5b6000479050610c7b81612274565b50565b6000610cc8600260008473ffffffffffffffffffffffffffffffffffffffff1673ffffffffffffffffffffffffffffffffffffffff1681526020019081526020016000205461236f565b9050919050565b610cd7611acd565b73ffffffffffffffffffffffffffffffffffffffff1660008054906101000a900473ffffffffffffffffffffffffffffffffffffffff1673ffffffffffffffffffffffffffffffffffffffff1614610d64576040517f08c379a0000000000000000000000000000000000000000000000000000000008152600401610d5b90613314565b60405180910390fd5b600073ffffffffffffffffffffffffffffffffffffffff1660008054906101000a900473ffffffffffffffffffffffffffffffffffffffff1673ffffffffffffffffffffffffffffffffffffffff167f8be0079c531659141344cd1fd0a4f28419497f9722a3daafe3b4186f6b6457e060405160405180910390a360008060006101000a81548173ffffffffffffffffffffffffffffffffffffffff021916908373ffffffffffffffffffffffffffffffffffffffff160217905550565b610e2a611acd565b73ffffffffffffffffffffffffffffffffffffffff16610e48611037565b73ffffffffffffffffffffffffffffffffffffffff161480610ebe5750610e6d611acd565b73ffffffffffffffffffffffffffffffffffffffff16600e60009054906101000a900473ffffffffffffffffffffffffffffffffffffffff1673ffffffffffffffffffffffffffffffffffffffff16145b610efd576040517f08c379a0000000000000000000000000000000000000000000000000000000008152600401610ef4906133eb565b60405180910390fd5b8073ffffffffffffffffffffffffffffffffffffffff16600f60009054906101000a900473ffffffffffffffffffffffffffffffffffffffff1673ffffffffffffffffffffffffffffffffffffffff167fa64373a629bc0c09eacf8a9cc2c7b070fa0a8b7e2e9b8aaee408a3c02eb1676b60405160405180910390a380600f60006101000a81548173ffffffffffffffffffffffffffffffffffffffff021916908373ffffffffffffffffffffffffffffffffffffffff160217905550600160056000600f60009054906101000a900473ffffffffffffffffffffffffffffffffffffffff1673ffffffffffffffffffffffffffffffffffffffff1673ffffffffffffffffffffffffffffffffffffffff16815260200190815260200160002060006101000a81548160ff02191690831515021790555050565b60008060009054906101000a900473ffffffffffffffffffffffffffffffffffffffff16905090565b60606040518060400160405280600381526020017f5753500000000000000000000000000000000000000000000000000000000000815250905090565b6110a5611acd565b73ffffffffffffffffffffffffffffffffffffffff166110c3611037565b73ffffffffffffffffffffffffffffffffffffffff16148061113957506110e8611acd565b73ffffffffffffffffffffffffffffffffffffffff16600e60009054906101000a900473ffffffffffffffffffffffffffffffffffffffff1673ffffffffffffffffffffffffffffffffffffffff16145b611178576040517f08c379a000000000000000000000000000000000000000000000000000000000815260040161116f906133eb565b60405180910390fd5b600b84106111bb576040517f08c379a00000000000000000000000000000000000000000000000000000000081526004016111b290613457565b60405180910390fd5b600b83106111fe576040517f08c379a00000000000000000000000000000000000000000000000000000000081526004016111f590613457565b60405180910390fd5b60078210611241576040517f08c379a0000000000000000000000000000000000000000000000000000000008152600401611238906134c3565b60405180910390fd5b60078110611284576040517f08c379a000000000000000000000000000000000000000000000000000000000815260040161127b906134c3565b60405180910390fd5b8360088190555082600a819055508160098190555080600b8190555050505050565b60006112ba6112b3611acd565b8484611c9e565b6001905092915050565b6112cc611acd565b73ffffffffffffffffffffffffffffffffffffffff166112ea611037565b73ffffffffffffffffffffffffffffffffffffffff161480611360575061130f611acd565b73ffffffffffffffffffffffffffffffffffffffff16600e60009054906101000a900473ffffffffffffffffffffffffffffffffffffffff1673ffffffffffffffffffffffffffffffffffffffff16145b61139f576040517f08c379a0000000000000000000000000000000000000000000000000000000008152600401611396906133eb565b60405180910390fd5b8073ffffffffffffffffffffffffffffffffffffffff16600e60009054906101000a900473ffffffffffffffffffffffffffffffffffffffff1673ffffffffffffffffffffffffffffffffffffffff167ffbbc329437e8c79f847e170730ad6dd04106b7511cad70d06d635886d92de83c60405160405180910390a380600e60006101000a81548173ffffffffffffffffffffffffffffffffffffffff021916908373ffffffffffffffffffffffffffffffffffffffff160217905550600160056000600e60009054906101000a900473ffffffffffffffffffffffffffffffffffffffff1673ffffffffffffffffffffffffffffffffffffffff1673ffffffffffffffffffffffffffffffffffffffff16815260200190815260200160002060006101000a81548160ff02191690831515021790555050565b600e60009054906101000a900473ffffffffffffffffffffffffffffffffffffffff1673ffffffffffffffffffffffffffffffffffffffff1661151a611acd565b73ffffffffffffffffffffffffffffffffffffffff1614806115905750600f60009054906101000a900473ffffffffffffffffffffffffffffffffffffffff1673ffffffffffffffffffffffffffffffffffffffff16611578611acd565b73ffffffffffffffffffffffffffffffffffffffff16145b806115d4575061159e611037565b73ffffffffffffffffffffffffffffffffffffffff166115bc611acd565b73ffffffffffffffffffffffffffffffffffffffff16145b6115dd57600080fd5b60006115e830610c7e565b90506115f3816123dd565b50565b6115fe611acd565b73ffffffffffffffffffffffffffffffffffffffff1660008054906101000a900473ffffffffffffffffffffffffffffffffffffffff1673ffffffffffffffffffffffffffffffffffffffff161461168b576040517f08c379a000000000000000000000000000000000000000000000000000000000815260040161168290613314565b60405180910390fd5b60005b8383905081101561172a5781600560008686858181106116b1576116b06134e3565b5b90506020020160208101906116c691906130c4565b73ffffffffffffffffffffffffffffffffffffffff1673ffffffffffffffffffffffffffffffffffffffff16815260200190815260200160002060006101000a81548160ff021916908315150217905550808061172290613541565b91505061168e565b50505050565b6000600460008473ffffffffffffffffffffffffffffffffffffffff1673ffffffffffffffffffffffffffffffffffffffff16815260200190815260200160002060008373ffffffffffffffffffffffffffffffffffffffff1673ffffffffffffffffffffffffffffffffffffffff16815260200190815260200160002054905092915050565b6117bf611acd565b73ffffffffffffffffffffffffffffffffffffffff166117dd611037565b73ffffffffffffffffffffffffffffffffffffffff1614806118535750611802611acd565b73ffffffffffffffffffffffffffffffffffffffff16600e60009054906101000a900473ffffffffffffffffffffffffffffffffffffffff1673ffffffffffffffffffffffffffffffffffffffff16145b611892576040517f08c379a0000000000000000000000000000000000000000000000000000000008152600401611889906133eb565b60405180910390fd5b8173ffffffffffffffffffffffffffffffffffffffff168373ffffffffffffffffffffffffffffffffffffffff167f47c33aa230eb5fd181505aa7befeaddd9b8a6f983989cea73a7868448c3a9ed9836040516118ef9190612f60565b60405180910390a38273ffffffffffffffffffffffffffffffffffffffff1663a9059cbb83836040518363ffffffff1660e01b8152600401611932929190613589565b6020604051808303816000875af1158015611951573d6000803e3d6000fd5b505050506040513d601f19601f8201168201806040525081019061197591906135c7565b50505050565b611983611acd565b73ffffffffffffffffffffffffffffffffffffffff1660008054906101000a900473ffffffffffffffffffffffffffffffffffffffff1673ffffffffffffffffffffffffffffffffffffffff1614611a10576040517f08c379a0000000000000000000000000000000000000000000000000000000008152600401611a0790613314565b60405180910390fd5b8073ffffffffffffffffffffffffffffffffffffffff1660008054906101000a900473ffffffffffffffffffffffffffffffffffffffff1673ffffffffffffffffffffffffffffffffffffffff167f8be0079c531659141344cd1fd0a4f28419497f9722a3daafe3b4186f6b6457e060405160405180910390a3806000806101000a81548173ffffffffffffffffffffffffffffffffffffffff021916908373ffffffffffffffffffffffffffffffffffffffff16021790555050565b600033905090565b600073ffffffffffffffffffffffffffffffffffffffff168373ffffffffffffffffffffffffffffffffffffffff1603611b44576040517f08c379a0000000000000000000000000000000000000000000000000000000008152600401611b3b90613666565b60405180910390fd5b600073ffffffffffffffffffffffffffffffffffffffff168273ffffffffffffffffffffffffffffffffffffffff1603611bb3576040517f08c379a0000000000000000000000000000000000000000000000000000000008152600401611baa906136f8565b60405180910390fd5b80600460008573ffffffffffffffffffffffffffffffffffffffff1673ffffffffffffffffffffffffffffffffffffffff16815260200190815260200160002060008473ffffffffffffffffffffffffffffffffffffffff1673ffffffffffffffffffffffffffffffffffffffff168152602001908152602001600020819055508173ffffffffffffffffffffffffffffffffffffffff168373ffffffffffffffffffffffffffffffffffffffff167f8c5be1e5ebec7d5bd14f71427d1e84f3dd0314c0f7b2291e5b200ac8c7c3b92583604051611c919190612f60565b60405180910390a3505050565b600073ffffffffffffffffffffffffffffffffffffffff168373ffffffffffffffffffffffffffffffffffffffff1603611d0d576040517f08c379a0000000000000000000000000000000000000000000000000000000008152600401611d049061378a565b60405180910390fd5b600073ffffffffffffffffffffffffffffffffffffffff168273ffffffffffffffffffffffffffffffffffffffff1603611d7c576040517f08c379a0000000000000000000000000000000000000000000000000000000008152600401611d739061381c565b60405180910390fd5b60008111611dbf576040517f08c379a0000000000000000000000000000000000000000000000000000000008152600401611db6906138ae565b60405180910390fd5b6000600c819055506000600d81905550611dd7611037565b73ffffffffffffffffffffffffffffffffffffffff168373ffffffffffffffffffffffffffffffffffffffff1614158015611e455750611e15611037565b73ffffffffffffffffffffffffffffffffffffffff168273ffffffffffffffffffffffffffffffffffffffff1614155b15612200576000611e5530610c7e565b9050601260149054906101000a900460ff16158015611ec25750601260009054906101000a900473ffffffffffffffffffffffffffffffffffffffff1673ffffffffffffffffffffffffffffffffffffffff168473ffffffffffffffffffffffffffffffffffffffff1614155b8015611eda5750601260159054906101000a900460ff165b8015611ee65750600081115b15611f0e57611ef4816123dd565b60004790506000811115611f0c57611f0b47612274565b5b505b601260009054906101000a900473ffffffffffffffffffffffffffffffffffffffff1673ffffffffffffffffffffffffffffffffffffffff168473ffffffffffffffffffffffffffffffffffffffff16148015611fb95750601060009054906101000a900473ffffffffffffffffffffffffffffffffffffffff1673ffffffffffffffffffffffffffffffffffffffff168373ffffffffffffffffffffffffffffffffffffffff1614155b15611fd157600854600c81905550600954600d819055505b601260009054906101000a900473ffffffffffffffffffffffffffffffffffffffff1673ffffffffffffffffffffffffffffffffffffffff168373ffffffffffffffffffffffffffffffffffffffff1614801561207c5750601060009054906101000a900473ffffffffffffffffffffffffffffffffffffffff1673ffffffffffffffffffffffffffffffffffffffff168473ffffffffffffffffffffffffffffffffffffffff1614155b1561209457600a54600c81905550600b54600d819055505b600560008573ffffffffffffffffffffffffffffffffffffffff1673ffffffffffffffffffffffffffffffffffffffff16815260200190815260200160002060009054906101000a900460ff16806121355750600560008473ffffffffffffffffffffffffffffffffffffffff1673ffffffffffffffffffffffffffffffffffffffff16815260200190815260200160002060009054906101000a900460ff165b806121e85750601260009054906101000a900473ffffffffffffffffffffffffffffffffffffffff1673ffffffffffffffffffffffffffffffffffffffff168473ffffffffffffffffffffffffffffffffffffffff16141580156121e75750601260009054906101000a900473ffffffffffffffffffffffffffffffffffffffff1673ffffffffffffffffffffffffffffffffffffffff168373ffffffffffffffffffffffffffffffffffffffff1614155b5b156121fe576000600c819055506000600d819055505b505b61220b838383612656565b505050565b6000838311158290612258576040517f08c379a000000000000000000000000000000000000000000000000000000000815260040161224f9190612da1565b60405180910390fd5b506000838561226791906138ce565b9050809150509392505050565b600e60009054906101000a900473ffffffffffffffffffffffffffffffffffffffff1673ffffffffffffffffffffffffffffffffffffffff166108fc6122c460028461266690919063ffffffff16565b9081150290604051600060405180830381858888f193505050501580156122ef573d6000803e3d6000fd5b50600f60009054906101000a900473ffffffffffffffffffffffffffffffffffffffff1673ffffffffffffffffffffffffffffffffffffffff166108fc61234060028461266690919063ffffffff16565b9081150290604051600060405180830381858888f1935050505015801561236b573d6000803e3d6000fd5b5050565b60006006548211156123b6576040517f08c379a00000000000000000000000000000000000000000000000000000000081526004016123ad90613974565b60405180910390fd5b60006123c06126b0565b90506123d5818461266690919063ffffffff16565b915050919050565b6001601260146101000a81548160ff0219169083151502179055506000600267ffffffffffffffff81111561241557612414613994565b5b6040519080825280602002602001820160405280156124435781602001602082028036833780820191505090505b509050308160008151811061245b5761245a6134e3565b5b602002602001019073ffffffffffffffffffffffffffffffffffffffff16908173ffffffffffffffffffffffffffffffffffffffff1681525050601060009054906101000a900473ffffffffffffffffffffffffffffffffffffffff1673ffffffffffffffffffffffffffffffffffffffff1663ad5c46486040518163ffffffff1660e01b8152600401602060405180830381865afa158015612502573d6000803e3d6000fd5b505050506040513d601f19601f820116820180604052508101906125269190613349565b8160018151811061253a576125396134e3565b5b602002602001019073ffffffffffffffffffffffffffffffffffffffff16908173ffffffffffffffffffffffffffffffffffffffff16815250506125a130601060009054906101000a900473ffffffffffffffffffffffffffffffffffffffff1684611ad5565b601060009054906101000a900473ffffffffffffffffffffffffffffffffffffffff1673ffffffffffffffffffffffffffffffffffffffff1663791ac9478360008430426040518663ffffffff1660e01b8152600401612605959493929190613abc565b600060405180830381600087803b15801561261f57600080fd5b505af1158015612633573d6000803e3d6000fd5b50505050506000601260146101000a81548160ff02191690831515021790555050565b6126618383836126db565b505050565b60006126a883836040518060400160405280601a81526020017f536166654d6174683a206469766973696f6e206279207a65726f0000000000008152506128a6565b905092915050565b60008060006126bd612909565b915091506126d4818361266690919063ffffffff16565b9250505090565b6000806000806000806126ed87612968565b95509550955095509550955061274b86600260008c73ffffffffffffffffffffffffffffffffffffffff1673ffffffffffffffffffffffffffffffffffffffff168152602001908152602001600020546129d090919063ffffffff16565b600260008b73ffffffffffffffffffffffffffffffffffffffff1673ffffffffffffffffffffffffffffffffffffffff168152602001908152602001600020819055506127e085600260008b73ffffffffffffffffffffffffffffffffffffffff1673ffffffffffffffffffffffffffffffffffffffff16815260200190815260200160002054612a1a90919063ffffffff16565b600260008a73ffffffffffffffffffffffffffffffffffffffff1673ffffffffffffffffffffffffffffffffffffffff1681526020019081526020016000208190555061282c81612a78565b6128368483612b35565b8773ffffffffffffffffffffffffffffffffffffffff168973ffffffffffffffffffffffffffffffffffffffff167fddf252ad1be2c89b69c2b068fc378daa952ba7f163c4a11628f55a4df523b3ef856040516128939190612f60565b60405180910390a3505050505050505050565b600080831182906128ed576040517f08c379a00000000000000000000000000000000000000000000000000000000081526004016128e49190612da1565b60405180910390fd5b50600083856128fc9190613b45565b9050809150509392505050565b600080600060065490506000670de0b6b3a7640000905061293d670de0b6b3a764000060065461266690919063ffffffff16565b82101561295b57600654670de0b6b3a7640000935093505050612964565b81819350935050505b9091565b60008060008060008060008060006129858a600c54600d54612b6f565b92509250925060006129956126b0565b905060008060006129a88e878787612c05565b9250925092508282828989899c509c509c509c509c509c505050505050505091939550919395565b6000612a1283836040518060400160405280601e81526020017f536166654d6174683a207375627472616374696f6e206f766572666c6f770000815250612210565b905092915050565b6000808284612a299190613b76565b905083811015612a6e576040517f08c379a0000000000000000000000000000000000000000000000000000000008152600401612a6590613c18565b60405180910390fd5b8091505092915050565b6000612a826126b0565b90506000612a998284612c8e90919063ffffffff16565b9050612aed81600260003073ffffffffffffffffffffffffffffffffffffffff1673ffffffffffffffffffffffffffffffffffffffff16815260200190815260200160002054612a1a90919063ffffffff16565b600260003073ffffffffffffffffffffffffffffffffffffffff1673ffffffffffffffffffffffffffffffffffffffff16815260200190815260200160002081905550505050565b612b4a826006546129d090919063ffffffff16565b600681905550612b6581600754612a1a90919063ffffffff16565b6007819055505050565b600080600080612b9b6064612b8d888a612c8e90919063ffffffff16565b61266690919063ffffffff16565b90506000612bc56064612bb7888b612c8e90919063ffffffff16565b61266690919063ffffffff16565b90506000612bee82612be0858c6129d090919063ffffffff16565b6129d090919063ffffffff16565b905080838395509550955050505093509350939050565b600080600080612c1e8589612c8e90919063ffffffff16565b90506000612c358689612c8e90919063ffffffff16565b90506000612c4c8789612c8e90919063ffffffff16565b90506000612c7582612c6785876129d090919063ffffffff16565b6129d090919063ffffffff16565b9050838184965096509650505050509450945094915050565b6000808303612ca05760009050612d02565b60008284612cae9190613c38565b9050828482612cbd9190613b45565b14612cfd576040517f08c379a0000000000000000000000000000000000000000000000000000000008152600401612cf490613d04565b60405180910390fd5b809150505b92915050565b600081519050919050565b600082825260208201905092915050565b60005b83811015612d42578082015181840152602081019050612d27565b83811115612d51576000848401525b50505050565b6000601f19601f8301169050919050565b6000612d7382612d08565b612d7d8185612d13565b9350612d8d818560208601612d24565b612d9681612d57565b840191505092915050565b60006020820190508181036000830152612dbb8184612d68565b905092915050565b600080fd5b600080fd5b600073ffffffffffffffffffffffffffffffffffffffff82169050919050565b6000612df882612dcd565b9050919050565b612e0881612ded565b8114612e1357600080fd5b50565b600081359050612e2581612dff565b92915050565b6000819050919050565b612e3e81612e2b565b8114612e4957600080fd5b50565b600081359050612e5b81612e35565b92915050565b60008060408385031215612e7857612e77612dc3565b5b6000612e8685828601612e16565b9250506020612e9785828601612e4c565b9150509250929050565b60008115159050919050565b612eb681612ea1565b82525050565b6000602082019050612ed16000830184612ead565b92915050565b6000819050919050565b6000612efc612ef7612ef284612dcd565b612ed7565b612dcd565b9050919050565b6000612f0e82612ee1565b9050919050565b6000612f2082612f03565b9050919050565b612f3081612f15565b82525050565b6000602082019050612f4b6000830184612f27565b92915050565b612f5a81612e2b565b82525050565b6000602082019050612f756000830184612f51565b92915050565b600080600060608486031215612f9457612f93612dc3565b5b6000612fa286828701612e16565b9350506020612fb386828701612e16565b9250506040612fc486828701612e4c565b9150509250925092565b612fd781612ded565b82525050565b6000602082019050612ff26000830184612fce565b92915050565b600060ff82169050919050565b61300e81612ff8565b82525050565b60006020820190506130296000830184613005565b92915050565b600061303a82612f03565b9050919050565b61304a8161302f565b82525050565b60006020820190506130656000830184613041565b92915050565b61307481612ea1565b811461307f57600080fd5b50565b6000813590506130918161306b565b92915050565b6000602082840312156130ad576130ac612dc3565b5b60006130bb84828501613082565b91505092915050565b6000602082840312156130da576130d9612dc3565b5b60006130e884828501612e16565b91505092915050565b60006130fc82612dcd565b9050919050565b61310c816130f1565b811461311757600080fd5b50565b60008135905061312981613103565b92915050565b60006020828403121561314557613144612dc3565b5b60006131538482850161311a565b91505092915050565b6000806000806080858703121561317657613175612dc3565b5b600061318487828801612e4c565b945050602061319587828801612e4c565b93505060406131a687828801612e4c565b92505060606131b787828801612e4c565b91505092959194509250565b600080fd5b600080fd5b600080fd5b60008083601f8401126131e8576131e76131c3565b5b8235905067ffffffffffffffff811115613205576132046131c8565b5b602083019150836020820283011115613221576132206131cd565b5b9250929050565b60008060006040848603121561324157613240612dc3565b5b600084013567ffffffffffffffff81111561325f5761325e612dc8565b5b61326b868287016131d2565b9350935050602061327e86828701613082565b9150509250925092565b6000806040838503121561329f5761329e612dc3565b5b60006132ad85828601612e16565b92505060206132be85828601612e16565b9150509250929050565b7f43616c6c6572206973206e6f7420746865206f776e6572000000000000000000600082015250565b60006132fe601783612d13565b9150613309826132c8565b602082019050919050565b6000602082019050818103600083015261332d816132f1565b9050919050565b60008151905061334381612dff565b92915050565b60006020828403121561335f5761335e612dc3565b5b600061336d84828501613334565b91505092915050565b600060408201905061338b6000830185612fce565b6133986020830184612fce565b9392505050565b7f43616c6c6572206973206e6f7420746865206465760000000000000000000000600082015250565b60006133d5601583612d13565b91506133e08261339f565b602082019050919050565b60006020820190508181036000830152613404816133c8565b9050919050565b7f52656469732063616e6e6f74206265206d6f7265207468616e2031302e000000600082015250565b6000613441601d83612d13565b915061344c8261340b565b602082019050919050565b6000602082019050818103600083015261347081613434565b9050919050565b7f5461782063616e6e6f74206265206d6f7265207468616e20362e000000000000600082015250565b60006134ad601a83612d13565b91506134b882613477565b602082019050919050565b600060208201905081810360008301526134dc816134a0565b9050919050565b7f4e487b7100000000000000000000000000000000000000000000000000000000600052603260045260246000fd5b7f4e487b7100000000000000000000000000000000000000000000000000000000600052601160045260246000fd5b600061354c82612e2b565b91507fffffffffffffffffffffffffffffffffffffffffffffffffffffffffffffffff820361357e5761357d613512565b5b600182019050919050565b600060408201905061359e6000830185612fce565b6135ab6020830184612f51565b9392505050565b6000815190506135c18161306b565b92915050565b6000602082840312156135dd576135dc612dc3565b5b60006135eb848285016135b2565b91505092915050565b7f45524332303a20617070726f76652066726f6d20746865207a65726f2061646460008201527f7265737300000000000000000000000000000000000000000000000000000000602082015250565b6000613650602483612d13565b915061365b826135f4565b604082019050919050565b6000602082019050818103600083015261367f81613643565b9050919050565b7f45524332303a20617070726f766520746f20746865207a65726f20616464726560008201527f7373000000000000000000000000000000000000000000000000000000000000602082015250565b60006136e2602283612d13565b91506136ed82613686565b604082019050919050565b60006020820190508181036000830152613711816136d5565b9050919050565b7f45524332303a207472616e736665722066726f6d20746865207a65726f20616460008201527f6472657373000000000000000000000000000000000000000000000000000000602082015250565b6000613774602583612d13565b915061377f82613718565b604082019050919050565b600060208201905081810360008301526137a381613767565b9050919050565b7f45524332303a207472616e7366657220746f20746865207a65726f206164647260008201527f6573730000000000000000000000000000000000000000000000000000000000602082015250565b6000613806602383612d13565b9150613811826137aa565b604082019050919050565b60006020820190508181036000830152613835816137f9565b9050919050565b7f5472616e7366657220616d6f756e74206d75737420626520677265617465722060008201527f7468616e207a65726f0000000000000000000000000000000000000000000000602082015250565b6000613898602983612d13565b91506138a38261383c565b604082019050919050565b600060208201905081810360008301526138c78161388b565b9050919050565b60006138d982612e2b565b91506138e483612e2b565b9250828210156138f7576138f6613512565b5b828203905092915050565b7f416d6f756e74206d757374206265206c657373207468616e20746f74616c207260008201527f65666c656374696f6e7300000000000000000000000000000000000000000000602082015250565b600061395e602a83612d13565b915061396982613902565b604082019050919050565b6000602082019050818103600083015261398d81613951565b9050919050565b7f4e487b7100000000000000000000000000000000000000000000000000000000600052604160045260246000fd5b6000819050919050565b60006139e86139e36139de846139c3565b612ed7565b612e2b565b9050919050565b6139f8816139cd565b82525050565b600081519050919050565b600082825260208201905092915050565b6000819050602082019050919050565b613a3381612ded565b82525050565b6000613a458383613a2a565b60208301905092915050565b6000602082019050919050565b6000613a69826139fe565b613a738185613a09565b9350613a7e83613a1a565b8060005b83811015613aaf578151613a968882613a39565b9750613aa183613a51565b925050600181019050613a82565b5085935050505092915050565b600060a082019050613ad16000830188612f51565b613ade60208301876139ef565b8181036040830152613af08186613a5e565b9050613aff6060830185612fce565b613b0c6080830184612f51565b9695505050505050565b7f4e487b7100000000000000000000000000000000000000000000000000000000600052601260045260246000fd5b6000613b5082612e2b565b9150613b5b83612e2b565b925082613b6b57613b6a613b16565b5b828204905092915050565b6000613b8182612e2b565b9150613b8c83612e2b565b9250827fffffffffffffffffffffffffffffffffffffffffffffffffffffffffffffffff03821115613bc157613bc0613512565b5b828201905092915050565b7f536166654d6174683a206164646974696f6e206f766572666c6f770000000000600082015250565b6000613c02601b83612d13565b9150613c0d82613bcc565b602082019050919050565b60006020820190508181036000830152613c3181613bf5565b9050919050565b6000613c4382612e2b565b9150613c4e83612e2b565b9250817fffffffffffffffffffffffffffffffffffffffffffffffffffffffffffffffff0483118215151615613c8757613c86613512565b5b828202905092915050565b7f536166654d6174683a206d756c7469706c69636174696f6e206f766572666c6f60008201527f7700000000000000000000000000000000000000000000000000000000000000602082015250565b6000613cee602183612d13565b9150613cf982613c92565b604082019050919050565b60006020820190508181036000830152613d1d81613ce1565b905091905056fe45524332303a207472616e7366657220616d6f756e74206578636565647320616c6c6f77616e6365a2646970667358221220d99b8af4cb9ac1f2a9a79109ea37a6c00473ed3742245dba57dc4f85964e951064736f6c634300080d0033",
					"opcodes": "PUSH1 0x80 PUSH1 0x40 MSTORE PUSH8 0xDE0B6B3A7640000 PUSH5 0x14F46B0400 PUSH3 0x1F SWAP2 SWAP1 PUSH3 0x538 JUMP JUMPDEST PUSH5 0x14F46B0400 PUSH3 0x31 SWAP2 SWAP1 PUSH3 0x59F JUMP JUMPDEST PUSH1 0x6 SSTORE PUSH1 0x1 PUSH1 0x8 SSTORE PUSH1 0x4 PUSH1 0x9 SSTORE PUSH1 0x1 PUSH1 0xA SSTORE PUSH1 0x1 PUSH1 0xB SSTORE PUSH20 0x8492CBD894686D7E98214541903C7BA6F94928D6 PUSH1 0xE PUSH1 0x0 PUSH2 0x100 EXP DUP2 SLOAD DUP2 PUSH20 0xFFFFFFFFFFFFFFFFFFFFFFFFFFFFFFFFFFFFFFFF MUL NOT AND SWAP1 DUP4 PUSH20 0xFFFFFFFFFFFFFFFFFFFFFFFFFFFFFFFFFFFFFFFF AND MUL OR SWAP1 SSTORE POP PUSH20 0xA4ED7AA4EF5DEB0A63E97D9CB77445AE553FEB1D PUSH1 0xF PUSH1 0x0 PUSH2 0x100 EXP DUP2 SLOAD DUP2 PUSH20 0xFFFFFFFFFFFFFFFFFFFFFFFFFFFFFFFFFFFFFFFF MUL NOT AND SWAP1 DUP4 PUSH20 0xFFFFFFFFFFFFFFFFFFFFFFFFFFFFFFFFFFFFFFFF AND MUL OR SWAP1 SSTORE POP PUSH1 0x0 PUSH1 0x12 PUSH1 0x14 PUSH2 0x100 EXP DUP2 SLOAD DUP2 PUSH1 0xFF MUL NOT AND SWAP1 DUP4 ISZERO ISZERO MUL OR SWAP1 SSTORE POP PUSH1 0x1 PUSH1 0x12 PUSH1 0x15 PUSH2 0x100 EXP DUP2 SLOAD DUP2 PUSH1 0xFF MUL NOT AND SWAP1 DUP4 ISZERO ISZERO MUL OR SWAP1 SSTORE POP CALLVALUE DUP1 ISZERO PUSH3 0x135 JUMPI PUSH1 0x0 DUP1 REVERT JUMPDEST POP PUSH1 0x0 PUSH3 0x148 PUSH3 0x4CE PUSH1 0x20 SHL PUSH1 0x20 SHR JUMP JUMPDEST SWAP1 POP DUP1 PUSH1 0x0 DUP1 PUSH2 0x100 EXP DUP2 SLOAD DUP2 PUSH20 0xFFFFFFFFFFFFFFFFFFFFFFFFFFFFFFFFFFFFFFFF MUL NOT AND SWAP1 DUP4 PUSH20 0xFFFFFFFFFFFFFFFFFFFFFFFFFFFFFFFFFFFFFFFF AND MUL OR SWAP1 SSTORE POP DUP1 PUSH20 0xFFFFFFFFFFFFFFFFFFFFFFFFFFFFFFFFFFFFFFFF AND PUSH1 0x0 PUSH20 0xFFFFFFFFFFFFFFFFFFFFFFFFFFFFFFFFFFFFFFFF AND PUSH32 0x8BE0079C531659141344CD1FD0A4F28419497F9722A3DAAFE3B4186F6B6457E0 PUSH1 0x40 MLOAD PUSH1 0x40 MLOAD DUP1 SWAP2 SUB SWAP1 LOG3 POP PUSH1 0x6 SLOAD PUSH1 0x2 PUSH1 0x0 PUSH3 0x1FD PUSH3 0x4CE PUSH1 0x20 SHL PUSH1 0x20 SHR JUMP JUMPDEST PUSH20 0xFFFFFFFFFFFFFFFFFFFFFFFFFFFFFFFFFFFFFFFF AND PUSH20 0xFFFFFFFFFFFFFFFFFFFFFFFFFFFFFFFFFFFFFFFF AND DUP2 MSTORE PUSH1 0x20 ADD SWAP1 DUP2 MSTORE PUSH1 0x20 ADD PUSH1 0x0 KECCAK256 DUP2 SWAP1 SSTORE POP PUSH1 0x0 PUSH20 0x10ED43C718714EB63D5AA57B78B54704E256024E SWAP1 POP DUP1 PUSH1 0x10 PUSH1 0x0 PUSH2 0x100 EXP DUP2 SLOAD DUP2 PUSH20 0xFFFFFFFFFFFFFFFFFFFFFFFFFFFFFFFFFFFFFFFF MUL NOT AND SWAP1 DUP4 PUSH20 0xFFFFFFFFFFFFFFFFFFFFFFFFFFFFFFFFFFFFFFFF AND MUL OR SWAP1 SSTORE POP PUSH1 0x1 PUSH1 0x5 PUSH1 0x0 PUSH3 0x2AB PUSH3 0x4D6 PUSH1 0x20 SHL PUSH1 0x20 SHR JUMP JUMPDEST PUSH20 0xFFFFFFFFFFFFFFFFFFFFFFFFFFFFFFFFFFFFFFFF AND PUSH20 0xFFFFFFFFFFFFFFFFFFFFFFFFFFFFFFFFFFFFFFFF AND DUP2 MSTORE PUSH1 0x20 ADD SWAP1 DUP2 MSTORE PUSH1 0x20 ADD PUSH1 0x0 KECCAK256 PUSH1 0x0 PUSH2 0x100 EXP DUP2 SLOAD DUP2 PUSH1 0xFF MUL NOT AND SWAP1 DUP4 ISZERO ISZERO MUL OR SWAP1 SSTORE POP PUSH1 0x1 PUSH1 0x5 PUSH1 0x0 ADDRESS PUSH20 0xFFFFFFFFFFFFFFFFFFFFFFFFFFFFFFFFFFFFFFFF AND PUSH20 0xFFFFFFFFFFFFFFFFFFFFFFFFFFFFFFFFFFFFFFFF AND DUP2 MSTORE PUSH1 0x20 ADD SWAP1 DUP2 MSTORE PUSH1 0x20 ADD PUSH1 0x0 KECCAK256 PUSH1 0x0 PUSH2 0x100 EXP DUP2 SLOAD DUP2 PUSH1 0xFF MUL NOT AND SWAP1 DUP4 ISZERO ISZERO MUL OR SWAP1 SSTORE POP PUSH1 0x1 PUSH1 0x5 PUSH1 0x0 PUSH1 0xE PUSH1 0x0 SWAP1 SLOAD SWAP1 PUSH2 0x100 EXP SWAP1 DIV PUSH20 0xFFFFFFFFFFFFFFFFFFFFFFFFFFFFFFFFFFFFFFFF AND PUSH20 0xFFFFFFFFFFFFFFFFFFFFFFFFFFFFFFFFFFFFFFFF AND PUSH20 0xFFFFFFFFFFFFFFFFFFFFFFFFFFFFFFFFFFFFFFFF AND DUP2 MSTORE PUSH1 0x20 ADD SWAP1 DUP2 MSTORE PUSH1 0x20 ADD PUSH1 0x0 KECCAK256 PUSH1 0x0 PUSH2 0x100 EXP DUP2 SLOAD DUP2 PUSH1 0xFF MUL NOT AND SWAP1 DUP4 ISZERO ISZERO MUL OR SWAP1 SSTORE POP PUSH1 0x1 PUSH1 0x5 PUSH1 0x0 PUSH1 0xF PUSH1 0x0 SWAP1 SLOAD SWAP1 PUSH2 0x100 EXP SWAP1 DIV PUSH20 0xFFFFFFFFFFFFFFFFFFFFFFFFFFFFFFFFFFFFFFFF AND PUSH20 0xFFFFFFFFFFFFFFFFFFFFFFFFFFFFFFFFFFFFFFFF AND PUSH20 0xFFFFFFFFFFFFFFFFFFFFFFFFFFFFFFFFFFFFFFFF AND DUP2 MSTORE PUSH1 0x20 ADD SWAP1 DUP2 MSTORE PUSH1 0x20 ADD PUSH1 0x0 KECCAK256 PUSH1 0x0 PUSH2 0x100 EXP DUP2 SLOAD DUP2 PUSH1 0xFF MUL NOT AND SWAP1 DUP4 ISZERO ISZERO MUL OR SWAP1 SSTORE POP PUSH3 0x458 PUSH3 0x4CE PUSH1 0x20 SHL PUSH1 0x20 SHR JUMP JUMPDEST PUSH20 0xFFFFFFFFFFFFFFFFFFFFFFFFFFFFFFFFFFFFFFFF AND PUSH1 0x0 PUSH20 0xFFFFFFFFFFFFFFFFFFFFFFFFFFFFFFFFFFFFFFFF AND PUSH32 0xDDF252AD1BE2C89B69C2B068FC378DAA952BA7F163C4A11628F55A4DF523B3EF PUSH8 0xDE0B6B3A7640000 PUSH1 0x40 MLOAD PUSH3 0x4BF SWAP2 SWAP1 PUSH3 0x5EB JUMP JUMPDEST PUSH1 0x40 MLOAD DUP1 SWAP2 SUB SWAP1 LOG3 POP PUSH3 0x608 JUMP JUMPDEST PUSH1 0x0 CALLER SWAP1 POP SWAP1 JUMP JUMPDEST PUSH1 0x0 DUP1 PUSH1 0x0 SWAP1 SLOAD SWAP1 PUSH2 0x100 EXP SWAP1 DIV PUSH20 0xFFFFFFFFFFFFFFFFFFFFFFFFFFFFFFFFFFFFFFFF AND SWAP1 POP SWAP1 JUMP JUMPDEST PUSH1 0x0 DUP2 SWAP1 POP SWAP2 SWAP1 POP JUMP JUMPDEST PUSH32 0x4E487B7100000000000000000000000000000000000000000000000000000000 PUSH1 0x0 MSTORE PUSH1 0x12 PUSH1 0x4 MSTORE PUSH1 0x24 PUSH1 0x0 REVERT JUMPDEST PUSH1 0x0 PUSH3 0x545 DUP3 PUSH3 0x4FF JUMP JUMPDEST SWAP2 POP PUSH3 0x552 DUP4 PUSH3 0x4FF JUMP JUMPDEST SWAP3 POP DUP3 PUSH3 0x565 JUMPI PUSH3 0x564 PUSH3 0x509 JUMP JUMPDEST JUMPDEST DUP3 DUP3 MOD SWAP1 POP SWAP3 SWAP2 POP POP JUMP JUMPDEST PUSH32 0x4E487B7100000000000000000000000000000000000000000000000000000000 PUSH1 0x0 MSTORE PUSH1 0x11 PUSH1 0x4 MSTORE PUSH1 0x24 PUSH1 0x0 REVERT JUMPDEST PUSH1 0x0 PUSH3 0x5AC DUP3 PUSH3 0x4FF JUMP JUMPDEST SWAP2 POP PUSH3 0x5B9 DUP4 PUSH3 0x4FF JUMP JUMPDEST SWAP3 POP DUP3 DUP3 LT ISZERO PUSH3 0x5CF JUMPI PUSH3 0x5CE PUSH3 0x570 JUMP JUMPDEST JUMPDEST DUP3 DUP3 SUB SWAP1 POP SWAP3 SWAP2 POP POP JUMP JUMPDEST PUSH3 0x5E5 DUP2 PUSH3 0x4FF JUMP JUMPDEST DUP3 MSTORE POP POP JUMP JUMPDEST PUSH1 0x0 PUSH1 0x20 DUP3 ADD SWAP1 POP PUSH3 0x602 PUSH1 0x0 DUP4 ADD DUP5 PUSH3 0x5DA JUMP JUMPDEST SWAP3 SWAP2 POP POP JUMP JUMPDEST PUSH2 0x3D82 DUP1 PUSH3 0x618 PUSH1 0x0 CODECOPY PUSH1 0x0 RETURN INVALID PUSH1 0x80 PUSH1 0x40 MSTORE PUSH1 0x4 CALLDATASIZE LT PUSH2 0x16A JUMPI PUSH1 0x0 CALLDATALOAD PUSH1 0xE0 SHR DUP1 PUSH4 0x70A08231 GT PUSH2 0xD1 JUMPI DUP1 PUSH4 0xA9059CBB GT PUSH2 0x8A JUMPI DUP1 PUSH4 0xC492F046 GT PUSH2 0x64 JUMPI DUP1 PUSH4 0xC492F046 EQ PUSH2 0x4ED JUMPI DUP1 PUSH4 0xDD62ED3E EQ PUSH2 0x516 JUMPI DUP1 PUSH4 0xE293D316 EQ PUSH2 0x553 JUMPI DUP1 PUSH4 0xF2FDE38B EQ PUSH2 0x57C JUMPI PUSH2 0x171 JUMP JUMPDEST DUP1 PUSH4 0xA9059CBB EQ PUSH2 0x470 JUMPI DUP1 PUSH4 0xAAD5C023 EQ PUSH2 0x4AD JUMPI DUP1 PUSH4 0xC3C8CD80 EQ PUSH2 0x4D6 JUMPI PUSH2 0x171 JUMP JUMPDEST DUP1 PUSH4 0x70A08231 EQ PUSH2 0x374 JUMPI DUP1 PUSH4 0x715018A6 EQ PUSH2 0x3B1 JUMPI DUP1 PUSH4 0x758DBE03 EQ PUSH2 0x3C8 JUMPI DUP1 PUSH4 0x8DA5CB5B EQ PUSH2 0x3F1 JUMPI DUP1 PUSH4 0x95D89B41 EQ PUSH2 0x41C JUMPI DUP1 PUSH4 0xA2A957BB EQ PUSH2 0x447 JUMPI PUSH2 0x171 JUMP JUMPDEST DUP1 PUSH4 0x2EB9110C GT PUSH2 0x123 JUMPI DUP1 PUSH4 0x2EB9110C EQ PUSH2 0x288 JUMPI DUP1 PUSH4 0x313CE567 EQ PUSH2 0x2B3 JUMPI DUP1 PUSH4 0x49BD5A5E EQ PUSH2 0x2DE JUMPI DUP1 PUSH4 0x59D0F713 EQ PUSH2 0x309 JUMPI DUP1 PUSH4 0x6D8AA8F8 EQ PUSH2 0x334 JUMPI DUP1 PUSH4 0x6FC3EAEC EQ PUSH2 0x35D JUMPI PUSH2 0x171 JUMP JUMPDEST DUP1 PUSH4 0x5A272EA EQ PUSH2 0x176 JUMPI DUP1 PUSH4 0x6FDDE03 EQ PUSH2 0x18D JUMPI DUP1 PUSH4 0x95EA7B3 EQ PUSH2 0x1B8 JUMPI DUP1 PUSH4 0x1694505E EQ PUSH2 0x1F5 JUMPI DUP1 PUSH4 0x18160DDD EQ PUSH2 0x220 JUMPI DUP1 PUSH4 0x23B872DD EQ PUSH2 0x24B JUMPI PUSH2 0x171 JUMP JUMPDEST CALLDATASIZE PUSH2 0x171 JUMPI STOP JUMPDEST PUSH1 0x0 DUP1 REVERT JUMPDEST CALLVALUE DUP1 ISZERO PUSH2 0x182 JUMPI PUSH1 0x0 DUP1 REVERT JUMPDEST POP PUSH2 0x18B PUSH2 0x5A5 JUMP JUMPDEST STOP JUMPDEST CALLVALUE DUP1 ISZERO PUSH2 0x199 JUMPI PUSH1 0x0 DUP1 REVERT JUMPDEST POP PUSH2 0x1A2 PUSH2 0x81A JUMP JUMPDEST PUSH1 0x40 MLOAD PUSH2 0x1AF SWAP2 SWAP1 PUSH2 0x2DA1 JUMP JUMPDEST PUSH1 0x40 MLOAD DUP1 SWAP2 SUB SWAP1 RETURN JUMPDEST CALLVALUE DUP1 ISZERO PUSH2 0x1C4 JUMPI PUSH1 0x0 DUP1 REVERT JUMPDEST POP PUSH2 0x1DF PUSH1 0x4 DUP1 CALLDATASIZE SUB DUP2 ADD SWAP1 PUSH2 0x1DA SWAP2 SWAP1 PUSH2 0x2E61 JUMP JUMPDEST PUSH2 0x857 JUMP JUMPDEST PUSH1 0x40 MLOAD PUSH2 0x1EC SWAP2 SWAP1 PUSH2 0x2EBC JUMP JUMPDEST PUSH1 0x40 MLOAD DUP1 SWAP2 SUB SWAP1 RETURN JUMPDEST CALLVALUE DUP1 ISZERO PUSH2 0x201 JUMPI PUSH1 0x0 DUP1 REVERT JUMPDEST POP PUSH2 0x20A PUSH2 0x875 JUMP JUMPDEST PUSH1 0x40 MLOAD PUSH2 0x217 SWAP2 SWAP1 PUSH2 0x2F36 JUMP JUMPDEST PUSH1 0x40 MLOAD DUP1 SWAP2 SUB SWAP1 RETURN JUMPDEST CALLVALUE DUP1 ISZERO PUSH2 0x22C JUMPI PUSH1 0x0 DUP1 REVERT JUMPDEST POP PUSH2 0x235 PUSH2 0x89B JUMP JUMPDEST PUSH1 0x40 MLOAD PUSH2 0x242 SWAP2 SWAP1 PUSH2 0x2F60 JUMP JUMPDEST PUSH1 0x40 MLOAD DUP1 SWAP2 SUB SWAP1 RETURN JUMPDEST CALLVALUE DUP1 ISZERO PUSH2 0x257 JUMPI PUSH1 0x0 DUP1 REVERT JUMPDEST POP PUSH2 0x272 PUSH1 0x4 DUP1 CALLDATASIZE SUB DUP2 ADD SWAP1 PUSH2 0x26D SWAP2 SWAP1 PUSH2 0x2F7B JUMP JUMPDEST PUSH2 0x8AB JUMP JUMPDEST PUSH1 0x40 MLOAD PUSH2 0x27F SWAP2 SWAP1 PUSH2 0x2EBC JUMP JUMPDEST PUSH1 0x40 MLOAD DUP1 SWAP2 SUB SWAP1 RETURN JUMPDEST CALLVALUE DUP1 ISZERO PUSH2 0x294 JUMPI PUSH1 0x0 DUP1 REVERT JUMPDEST POP PUSH2 0x29D PUSH2 0x984 JUMP JUMPDEST PUSH1 0x40 MLOAD PUSH2 0x2AA SWAP2 SWAP1 PUSH2 0x2FDD JUMP JUMPDEST PUSH1 0x40 MLOAD DUP1 SWAP2 SUB SWAP1 RETURN JUMPDEST CALLVALUE DUP1 ISZERO PUSH2 0x2BF JUMPI PUSH1 0x0 DUP1 REVERT JUMPDEST POP PUSH2 0x2C8 PUSH2 0xA1C JUMP JUMPDEST PUSH1 0x40 MLOAD PUSH2 0x2D5 SWAP2 SWAP1 PUSH2 0x3014 JUMP JUMPDEST PUSH1 0x40 MLOAD DUP1 SWAP2 SUB SWAP1 RETURN JUMPDEST CALLVALUE DUP1 ISZERO PUSH2 0x2EA JUMPI PUSH1 0x0 DUP1 REVERT JUMPDEST POP PUSH2 0x2F3 PUSH2 0xA25 JUMP JUMPDEST PUSH1 0x40 MLOAD PUSH2 0x300 SWAP2 SWAP1 PUSH2 0x2FDD JUMP JUMPDEST PUSH1 0x40 MLOAD DUP1 SWAP2 SUB SWAP1 RETURN JUMPDEST CALLVALUE DUP1 ISZERO PUSH2 0x315 JUMPI PUSH1 0x0 DUP1 REVERT JUMPDEST POP PUSH2 0x31E PUSH2 0xA4B JUMP JUMPDEST PUSH1 0x40 MLOAD PUSH2 0x32B SWAP2 SWAP1 PUSH2 0x3050 JUMP JUMPDEST PUSH1 0x40 MLOAD DUP1 SWAP2 SUB SWAP1 RETURN JUMPDEST CALLVALUE DUP1 ISZERO PUSH2 0x340 JUMPI PUSH1 0x0 DUP1 REVERT JUMPDEST POP PUSH2 0x35B PUSH1 0x4 DUP1 CALLDATASIZE SUB DUP2 ADD SWAP1 PUSH2 0x356 SWAP2 SWAP1 PUSH2 0x3097 JUMP JUMPDEST PUSH2 0xA71 JUMP JUMPDEST STOP JUMPDEST CALLVALUE DUP1 ISZERO PUSH2 0x369 JUMPI PUSH1 0x0 DUP1 REVERT JUMPDEST POP PUSH2 0x372 PUSH2 0xB69 JUMP JUMPDEST STOP JUMPDEST CALLVALUE DUP1 ISZERO PUSH2 0x380 JUMPI PUSH1 0x0 DUP1 REVERT JUMPDEST POP PUSH2 0x39B PUSH1 0x4 DUP1 CALLDATASIZE SUB DUP2 ADD SWAP1 PUSH2 0x396 SWAP2 SWAP1 PUSH2 0x30C4 JUMP JUMPDEST PUSH2 0xC7E JUMP JUMPDEST PUSH1 0x40 MLOAD PUSH2 0x3A8 SWAP2 SWAP1 PUSH2 0x2F60 JUMP JUMPDEST PUSH1 0x40 MLOAD DUP1 SWAP2 SUB SWAP1 RETURN JUMPDEST CALLVALUE DUP1 ISZERO PUSH2 0x3BD JUMPI PUSH1 0x0 DUP1 REVERT JUMPDEST POP PUSH2 0x3C6 PUSH2 0xCCF JUMP JUMPDEST STOP JUMPDEST CALLVALUE DUP1 ISZERO PUSH2 0x3D4 JUMPI PUSH1 0x0 DUP1 REVERT JUMPDEST POP PUSH2 0x3EF PUSH1 0x4 DUP1 CALLDATASIZE SUB DUP2 ADD SWAP1 PUSH2 0x3EA SWAP2 SWAP1 PUSH2 0x312F JUMP JUMPDEST PUSH2 0xE22 JUMP JUMPDEST STOP JUMPDEST CALLVALUE DUP1 ISZERO PUSH2 0x3FD JUMPI PUSH1 0x0 DUP1 REVERT JUMPDEST POP PUSH2 0x406 PUSH2 0x1037 JUMP JUMPDEST PUSH1 0x40 MLOAD PUSH2 0x413 SWAP2 SWAP1 PUSH2 0x2FDD JUMP JUMPDEST PUSH1 0x40 MLOAD DUP1 SWAP2 SUB SWAP1 RETURN JUMPDEST CALLVALUE DUP1 ISZERO PUSH2 0x428 JUMPI PUSH1 0x0 DUP1 REVERT JUMPDEST POP PUSH2 0x431 PUSH2 0x1060 JUMP JUMPDEST PUSH1 0x40 MLOAD PUSH2 0x43E SWAP2 SWAP1 PUSH2 0x2DA1 JUMP JUMPDEST PUSH1 0x40 MLOAD DUP1 SWAP2 SUB SWAP1 RETURN JUMPDEST CALLVALUE DUP1 ISZERO PUSH2 0x453 JUMPI PUSH1 0x0 DUP1 REVERT JUMPDEST POP PUSH2 0x46E PUSH1 0x4 DUP1 CALLDATASIZE SUB DUP2 ADD SWAP1 PUSH2 0x469 SWAP2 SWAP1 PUSH2 0x315C JUMP JUMPDEST PUSH2 0x109D JUMP JUMPDEST STOP JUMPDEST CALLVALUE DUP1 ISZERO PUSH2 0x47C JUMPI PUSH1 0x0 DUP1 REVERT JUMPDEST POP PUSH2 0x497 PUSH1 0x4 DUP1 CALLDATASIZE SUB DUP2 ADD SWAP1 PUSH2 0x492 SWAP2 SWAP1 PUSH2 0x2E61 JUMP JUMPDEST PUSH2 0x12A6 JUMP JUMPDEST PUSH1 0x40 MLOAD PUSH2 0x4A4 SWAP2 SWAP1 PUSH2 0x2EBC JUMP JUMPDEST PUSH1 0x40 MLOAD DUP1 SWAP2 SUB SWAP1 RETURN JUMPDEST CALLVALUE DUP1 ISZERO PUSH2 0x4B9 JUMPI PUSH1 0x0 DUP1 REVERT JUMPDEST POP PUSH2 0x4D4 PUSH1 0x4 DUP1 CALLDATASIZE SUB DUP2 ADD SWAP1 PUSH2 0x4CF SWAP2 SWAP1 PUSH2 0x312F JUMP JUMPDEST PUSH2 0x12C4 JUMP JUMPDEST STOP JUMPDEST CALLVALUE DUP1 ISZERO PUSH2 0x4E2 JUMPI PUSH1 0x0 DUP1 REVERT JUMPDEST POP PUSH2 0x4EB PUSH2 0x14D9 JUMP JUMPDEST STOP JUMPDEST CALLVALUE DUP1 ISZERO PUSH2 0x4F9 JUMPI PUSH1 0x0 DUP1 REVERT JUMPDEST POP PUSH2 0x514 PUSH1 0x4 DUP1 CALLDATASIZE SUB DUP2 ADD SWAP1 PUSH2 0x50F SWAP2 SWAP1 PUSH2 0x3228 JUMP JUMPDEST PUSH2 0x15F6 JUMP JUMPDEST STOP JUMPDEST CALLVALUE DUP1 ISZERO PUSH2 0x522 JUMPI PUSH1 0x0 DUP1 REVERT JUMPDEST POP PUSH2 0x53D PUSH1 0x4 DUP1 CALLDATASIZE SUB DUP2 ADD SWAP1 PUSH2 0x538 SWAP2 SWAP1 PUSH2 0x3288 JUMP JUMPDEST PUSH2 0x1730 JUMP JUMPDEST PUSH1 0x40 MLOAD PUSH2 0x54A SWAP2 SWAP1 PUSH2 0x2F60 JUMP JUMPDEST PUSH1 0x40 MLOAD DUP1 SWAP2 SUB SWAP1 RETURN JUMPDEST CALLVALUE DUP1 ISZERO PUSH2 0x55F JUMPI PUSH1 0x0 DUP1 REVERT JUMPDEST POP PUSH2 0x57A PUSH1 0x4 DUP1 CALLDATASIZE SUB DUP2 ADD SWAP1 PUSH2 0x575 SWAP2 SWAP1 PUSH2 0x2F7B JUMP JUMPDEST PUSH2 0x17B7 JUMP JUMPDEST STOP JUMPDEST CALLVALUE DUP1 ISZERO PUSH2 0x588 JUMPI PUSH1 0x0 DUP1 REVERT JUMPDEST POP PUSH2 0x5A3 PUSH1 0x4 DUP1 CALLDATASIZE SUB DUP2 ADD SWAP1 PUSH2 0x59E SWAP2 SWAP1 PUSH2 0x30C4 JUMP JUMPDEST PUSH2 0x197B JUMP JUMPDEST STOP JUMPDEST PUSH2 0x5AD PUSH2 0x1ACD JUMP JUMPDEST PUSH20 0xFFFFFFFFFFFFFFFFFFFFFFFFFFFFFFFFFFFFFFFF AND PUSH1 0x0 DUP1 SLOAD SWAP1 PUSH2 0x100 EXP SWAP1 DIV PUSH20 0xFFFFFFFFFFFFFFFFFFFFFFFFFFFFFFFFFFFFFFFF AND PUSH20 0xFFFFFFFFFFFFFFFFFFFFFFFFFFFFFFFFFFFFFFFF AND EQ PUSH2 0x63A JUMPI PUSH1 0x40 MLOAD PUSH32 0x8C379A000000000000000000000000000000000000000000000000000000000 DUP2 MSTORE PUSH1 0x4 ADD PUSH2 0x631 SWAP1 PUSH2 0x3314 JUMP JUMPDEST PUSH1 0x40 MLOAD DUP1 SWAP2 SUB SWAP1 REVERT JUMPDEST PUSH1 0x10 PUSH1 0x0 SWAP1 SLOAD SWAP1 PUSH2 0x100 EXP SWAP1 DIV PUSH20 0xFFFFFFFFFFFFFFFFFFFFFFFFFFFFFFFFFFFFFFFF AND PUSH20 0xFFFFFFFFFFFFFFFFFFFFFFFFFFFFFFFFFFFFFFFF AND PUSH4 0xC45A0155 PUSH1 0x40 MLOAD DUP2 PUSH4 0xFFFFFFFF AND PUSH1 0xE0 SHL DUP2 MSTORE PUSH1 0x4 ADD PUSH1 0x20 PUSH1 0x40 MLOAD DUP1 DUP4 SUB DUP2 DUP7 GAS STATICCALL ISZERO DUP1 ISZERO PUSH2 0x6A7 JUMPI RETURNDATASIZE PUSH1 0x0 DUP1 RETURNDATACOPY RETURNDATASIZE PUSH1 0x0 REVERT JUMPDEST POP POP POP POP PUSH1 0x40 MLOAD RETURNDATASIZE PUSH1 0x1F NOT PUSH1 0x1F DUP3 ADD AND DUP3 ADD DUP1 PUSH1 0x40 MSTORE POP DUP2 ADD SWAP1 PUSH2 0x6CB SWAP2 SWAP1 PUSH2 0x3349 JUMP JUMPDEST PUSH20 0xFFFFFFFFFFFFFFFFFFFFFFFFFFFFFFFFFFFFFFFF AND PUSH4 0xC9C65396 ADDRESS PUSH1 0x10 PUSH1 0x0 SWAP1 SLOAD SWAP1 PUSH2 0x100 EXP SWAP1 DIV PUSH20 0xFFFFFFFFFFFFFFFFFFFFFFFFFFFFFFFFFFFFFFFF AND PUSH20 0xFFFFFFFFFFFFFFFFFFFFFFFFFFFFFFFFFFFFFFFF AND PUSH4 0xAD5C4648 PUSH1 0x40 MLOAD DUP2 PUSH4 0xFFFFFFFF AND PUSH1 0xE0 SHL DUP2 MSTORE PUSH1 0x4 ADD PUSH1 0x20 PUSH1 0x40 MLOAD DUP1 DUP4 SUB DUP2 DUP7 GAS STATICCALL ISZERO DUP1 ISZERO PUSH2 0x754 JUMPI RETURNDATASIZE PUSH1 0x0 DUP1 RETURNDATACOPY RETURNDATASIZE PUSH1 0x0 REVERT JUMPDEST POP POP POP POP PUSH1 0x40 MLOAD RETURNDATASIZE PUSH1 0x1F NOT PUSH1 0x1F DUP3 ADD AND DUP3 ADD DUP1 PUSH1 0x40 MSTORE POP DUP2 ADD SWAP1 PUSH2 0x778 SWAP2 SWAP1 PUSH2 0x3349 JUMP JUMPDEST PUSH1 0x40 MLOAD DUP4 PUSH4 0xFFFFFFFF AND PUSH1 0xE0 SHL DUP2 MSTORE PUSH1 0x4 ADD PUSH2 0x795 SWAP3 SWAP2 SWAP1 PUSH2 0x3376 JUMP JUMPDEST PUSH1 0x20 PUSH1 0x40 MLOAD DUP1 DUP4 SUB DUP2 PUSH1 0x0 DUP8 GAS CALL ISZERO DUP1 ISZERO PUSH2 0x7B4 JUMPI RETURNDATASIZE PUSH1 0x0 DUP1 RETURNDATACOPY RETURNDATASIZE PUSH1 0x0 REVERT JUMPDEST POP POP POP POP PUSH1 0x40 MLOAD RETURNDATASIZE PUSH1 0x1F NOT PUSH1 0x1F DUP3 ADD AND DUP3 ADD DUP1 PUSH1 0x40 MSTORE POP DUP2 ADD SWAP1 PUSH2 0x7D8 SWAP2 SWAP1 PUSH2 0x3349 JUMP JUMPDEST PUSH1 0x12 PUSH1 0x0 PUSH2 0x100 EXP DUP2 SLOAD DUP2 PUSH20 0xFFFFFFFFFFFFFFFFFFFFFFFFFFFFFFFFFFFFFFFF MUL NOT AND SWAP1 DUP4 PUSH20 0xFFFFFFFFFFFFFFFFFFFFFFFFFFFFFFFFFFFFFFFF AND MUL OR SWAP1 SSTORE POP JUMP JUMPDEST PUSH1 0x60 PUSH1 0x40 MLOAD DUP1 PUSH1 0x40 ADD PUSH1 0x40 MSTORE DUP1 PUSH1 0xA DUP2 MSTORE PUSH1 0x20 ADD PUSH32 0x576F726C64205374657000000000000000000000000000000000000000000000 DUP2 MSTORE POP SWAP1 POP SWAP1 JUMP JUMPDEST PUSH1 0x0 PUSH2 0x86B PUSH2 0x864 PUSH2 0x1ACD JUMP JUMPDEST DUP5 DUP5 PUSH2 0x1AD5 JUMP JUMPDEST PUSH1 0x1 SWAP1 POP SWAP3 SWAP2 POP POP JUMP JUMPDEST PUSH1 0x10 PUSH1 0x0 SWAP1 SLOAD SWAP1 PUSH2 0x100 EXP SWAP1 DIV PUSH20 0xFFFFFFFFFFFFFFFFFFFFFFFFFFFFFFFFFFFFFFFF AND DUP2 JUMP JUMPDEST PUSH1 0x0 PUSH8 0xDE0B6B3A7640000 SWAP1 POP SWAP1 JUMP JUMPDEST PUSH1 0x0 PUSH2 0x8B8 DUP5 DUP5 DUP5 PUSH2 0x1C9E JUMP JUMPDEST PUSH2 0x979 DUP5 PUSH2 0x8C4 PUSH2 0x1ACD JUMP JUMPDEST PUSH2 0x974 DUP6 PUSH1 0x40 MLOAD DUP1 PUSH1 0x60 ADD PUSH1 0x40 MSTORE DUP1 PUSH1 0x28 DUP2 MSTORE PUSH1 0x20 ADD PUSH2 0x3D25 PUSH1 0x28 SWAP2 CODECOPY PUSH1 0x4 PUSH1 0x0 DUP12 PUSH20 0xFFFFFFFFFFFFFFFFFFFFFFFFFFFFFFFFFFFFFFFF AND PUSH20 0xFFFFFFFFFFFFFFFFFFFFFFFFFFFFFFFFFFFFFFFF AND DUP2 MSTORE PUSH1 0x20 ADD SWAP1 DUP2 MSTORE PUSH1 0x20 ADD PUSH1 0x0 KECCAK256 PUSH1 0x0 PUSH2 0x92A PUSH2 0x1ACD JUMP JUMPDEST PUSH20 0xFFFFFFFFFFFFFFFFFFFFFFFFFFFFFFFFFFFFFFFF AND PUSH20 0xFFFFFFFFFFFFFFFFFFFFFFFFFFFFFFFFFFFFFFFF AND DUP2 MSTORE PUSH1 0x20 ADD SWAP1 DUP2 MSTORE PUSH1 0x20 ADD PUSH1 0x0 KECCAK256 SLOAD PUSH2 0x2210 SWAP1 SWAP3 SWAP2 SWAP1 PUSH4 0xFFFFFFFF AND JUMP JUMPDEST PUSH2 0x1AD5 JUMP JUMPDEST PUSH1 0x1 SWAP1 POP SWAP4 SWAP3 POP POP POP JUMP JUMPDEST PUSH1 0x0 PUSH1 0x10 PUSH1 0x0 SWAP1 SLOAD SWAP1 PUSH2 0x100 EXP SWAP1 DIV PUSH20 0xFFFFFFFFFFFFFFFFFFFFFFFFFFFFFFFFFFFFFFFF AND PUSH20 0xFFFFFFFFFFFFFFFFFFFFFFFFFFFFFFFFFFFFFFFF AND PUSH4 0xC45A0155 PUSH1 0x40 MLOAD DUP2 PUSH4 0xFFFFFFFF AND PUSH1 0xE0 SHL DUP2 MSTORE PUSH1 0x4 ADD PUSH1 0x20 PUSH1 0x40 MLOAD DUP1 DUP4 SUB DUP2 DUP7 GAS STATICCALL ISZERO DUP1 ISZERO PUSH2 0x9F3 JUMPI RETURNDATASIZE PUSH1 0x0 DUP1 RETURNDATACOPY RETURNDATASIZE PUSH1 0x0 REVERT JUMPDEST POP POP POP POP PUSH1 0x40 MLOAD RETURNDATASIZE PUSH1 0x1F NOT PUSH1 0x1F DUP3 ADD AND DUP3 ADD DUP1 PUSH1 0x40 MSTORE POP DUP2 ADD SWAP1 PUSH2 0xA17 SWAP2 SWAP1 PUSH2 0x3349 JUMP JUMPDEST SWAP1 POP SWAP1 JUMP JUMPDEST PUSH1 0x0 PUSH1 0x9 SWAP1 POP SWAP1 JUMP JUMPDEST PUSH1 0x12 PUSH1 0x0 SWAP1 SLOAD SWAP1 PUSH2 0x100 EXP SWAP1 DIV PUSH20 0xFFFFFFFFFFFFFFFFFFFFFFFFFFFFFFFFFFFFFFFF AND DUP2 JUMP JUMPDEST PUSH1 0x11 PUSH1 0x0 SWAP1 SLOAD SWAP1 PUSH2 0x100 EXP SWAP1 DIV PUSH20 0xFFFFFFFFFFFFFFFFFFFFFFFFFFFFFFFFFFFFFFFF AND DUP2 JUMP JUMPDEST PUSH2 0xA79 PUSH2 0x1ACD JUMP JUMPDEST PUSH20 0xFFFFFFFFFFFFFFFFFFFFFFFFFFFFFFFFFFFFFFFF AND PUSH2 0xA97 PUSH2 0x1037 JUMP JUMPDEST PUSH20 0xFFFFFFFFFFFFFFFFFFFFFFFFFFFFFFFFFFFFFFFF AND EQ DUP1 PUSH2 0xB0D JUMPI POP PUSH2 0xABC PUSH2 0x1ACD JUMP JUMPDEST PUSH20 0xFFFFFFFFFFFFFFFFFFFFFFFFFFFFFFFFFFFFFFFF AND PUSH1 0xE PUSH1 0x0 SWAP1 SLOAD SWAP1 PUSH2 0x100 EXP SWAP1 DIV PUSH20 0xFFFFFFFFFFFFFFFFFFFFFFFFFFFFFFFFFFFFFFFF AND PUSH20 0xFFFFFFFFFFFFFFFFFFFFFFFFFFFFFFFFFFFFFFFF AND EQ JUMPDEST PUSH2 0xB4C JUMPI PUSH1 0x40 MLOAD PUSH32 0x8C379A000000000000000000000000000000000000000000000000000000000 DUP2 MSTORE PUSH1 0x4 ADD PUSH2 0xB43 SWAP1 PUSH2 0x33EB JUMP JUMPDEST PUSH1 0x40 MLOAD DUP1 SWAP2 SUB SWAP1 REVERT JUMPDEST DUP1 PUSH1 0x12 PUSH1 0x15 PUSH2 0x100 EXP DUP2 SLOAD DUP2 PUSH1 0xFF MUL NOT AND SWAP1 DUP4 ISZERO ISZERO MUL OR SWAP1 SSTORE POP POP JUMP JUMPDEST PUSH1 0xE PUSH1 0x0 SWAP1 SLOAD SWAP1 PUSH2 0x100 EXP SWAP1 DIV PUSH20 0xFFFFFFFFFFFFFFFFFFFFFFFFFFFFFFFFFFFFFFFF AND PUSH20 0xFFFFFFFFFFFFFFFFFFFFFFFFFFFFFFFFFFFFFFFF AND PUSH2 0xBAA PUSH2 0x1ACD JUMP JUMPDEST PUSH20 0xFFFFFFFFFFFFFFFFFFFFFFFFFFFFFFFFFFFFFFFF AND EQ DUP1 PUSH2 0xC20 JUMPI POP PUSH1 0xF PUSH1 0x0 SWAP1 SLOAD SWAP1 PUSH2 0x100 EXP SWAP1 DIV PUSH20 0xFFFFFFFFFFFFFFFFFFFFFFFFFFFFFFFFFFFFFFFF AND PUSH20 0xFFFFFFFFFFFFFFFFFFFFFFFFFFFFFFFFFFFFFFFF AND PUSH2 0xC08 PUSH2 0x1ACD JUMP JUMPDEST PUSH20 0xFFFFFFFFFFFFFFFFFFFFFFFFFFFFFFFFFFFFFFFF AND EQ JUMPDEST DUP1 PUSH2 0xC64 JUMPI POP PUSH2 0xC2E PUSH2 0x1037 JUMP JUMPDEST PUSH20 0xFFFFFFFFFFFFFFFFFFFFFFFFFFFFFFFFFFFFFFFF AND PUSH2 0xC4C PUSH2 0x1ACD JUMP JUMPDEST PUSH20 0xFFFFFFFFFFFFFFFFFFFFFFFFFFFFFFFFFFFFFFFF AND EQ JUMPDEST PUSH2 0xC6D JUMPI PUSH1 0x0 DUP1 REVERT JUMPDEST PUSH1 0x0 SELFBALANCE SWAP1 POP PUSH2 0xC7B DUP2 PUSH2 0x2274 JUMP JUMPDEST POP JUMP JUMPDEST PUSH1 0x0 PUSH2 0xCC8 PUSH1 0x2 PUSH1 0x0 DUP5 PUSH20 0xFFFFFFFFFFFFFFFFFFFFFFFFFFFFFFFFFFFFFFFF AND PUSH20 0xFFFFFFFFFFFFFFFFFFFFFFFFFFFFFFFFFFFFFFFF AND DUP2 MSTORE PUSH1 0x20 ADD SWAP1 DUP2 MSTORE PUSH1 0x20 ADD PUSH1 0x0 KECCAK256 SLOAD PUSH2 0x236F JUMP JUMPDEST SWAP1 POP SWAP2 SWAP1 POP JUMP JUMPDEST PUSH2 0xCD7 PUSH2 0x1ACD JUMP JUMPDEST PUSH20 0xFFFFFFFFFFFFFFFFFFFFFFFFFFFFFFFFFFFFFFFF AND PUSH1 0x0 DUP1 SLOAD SWAP1 PUSH2 0x100 EXP SWAP1 DIV PUSH20 0xFFFFFFFFFFFFFFFFFFFFFFFFFFFFFFFFFFFFFFFF AND PUSH20 0xFFFFFFFFFFFFFFFFFFFFFFFFFFFFFFFFFFFFFFFF AND EQ PUSH2 0xD64 JUMPI PUSH1 0x40 MLOAD PUSH32 0x8C379A000000000000000000000000000000000000000000000000000000000 DUP2 MSTORE PUSH1 0x4 ADD PUSH2 0xD5B SWAP1 PUSH2 0x3314 JUMP JUMPDEST PUSH1 0x40 MLOAD DUP1 SWAP2 SUB SWAP1 REVERT JUMPDEST PUSH1 0x0 PUSH20 0xFFFFFFFFFFFFFFFFFFFFFFFFFFFFFFFFFFFFFFFF AND PUSH1 0x0 DUP1 SLOAD SWAP1 PUSH2 0x100 EXP SWAP1 DIV PUSH20 0xFFFFFFFFFFFFFFFFFFFFFFFFFFFFFFFFFFFFFFFF AND PUSH20 0xFFFFFFFFFFFFFFFFFFFFFFFFFFFFFFFFFFFFFFFF AND PUSH32 0x8BE0079C531659141344CD1FD0A4F28419497F9722A3DAAFE3B4186F6B6457E0 PUSH1 0x40 MLOAD PUSH1 0x40 MLOAD DUP1 SWAP2 SUB SWAP1 LOG3 PUSH1 0x0 DUP1 PUSH1 0x0 PUSH2 0x100 EXP DUP2 SLOAD DUP2 PUSH20 0xFFFFFFFFFFFFFFFFFFFFFFFFFFFFFFFFFFFFFFFF MUL NOT AND SWAP1 DUP4 PUSH20 0xFFFFFFFFFFFFFFFFFFFFFFFFFFFFFFFFFFFFFFFF AND MUL OR SWAP1 SSTORE POP JUMP JUMPDEST PUSH2 0xE2A PUSH2 0x1ACD JUMP JUMPDEST PUSH20 0xFFFFFFFFFFFFFFFFFFFFFFFFFFFFFFFFFFFFFFFF AND PUSH2 0xE48 PUSH2 0x1037 JUMP JUMPDEST PUSH20 0xFFFFFFFFFFFFFFFFFFFFFFFFFFFFFFFFFFFFFFFF AND EQ DUP1 PUSH2 0xEBE JUMPI POP PUSH2 0xE6D PUSH2 0x1ACD JUMP JUMPDEST PUSH20 0xFFFFFFFFFFFFFFFFFFFFFFFFFFFFFFFFFFFFFFFF AND PUSH1 0xE PUSH1 0x0 SWAP1 SLOAD SWAP1 PUSH2 0x100 EXP SWAP1 DIV PUSH20 0xFFFFFFFFFFFFFFFFFFFFFFFFFFFFFFFFFFFFFFFF AND PUSH20 0xFFFFFFFFFFFFFFFFFFFFFFFFFFFFFFFFFFFFFFFF AND EQ JUMPDEST PUSH2 0xEFD JUMPI PUSH1 0x40 MLOAD PUSH32 0x8C379A000000000000000000000000000000000000000000000000000000000 DUP2 MSTORE PUSH1 0x4 ADD PUSH2 0xEF4 SWAP1 PUSH2 0x33EB JUMP JUMPDEST PUSH1 0x40 MLOAD DUP1 SWAP2 SUB SWAP1 REVERT JUMPDEST DUP1 PUSH20 0xFFFFFFFFFFFFFFFFFFFFFFFFFFFFFFFFFFFFFFFF AND PUSH1 0xF PUSH1 0x0 SWAP1 SLOAD SWAP1 PUSH2 0x100 EXP SWAP1 DIV PUSH20 0xFFFFFFFFFFFFFFFFFFFFFFFFFFFFFFFFFFFFFFFF AND PUSH20 0xFFFFFFFFFFFFFFFFFFFFFFFFFFFFFFFFFFFFFFFF AND PUSH32 0xA64373A629BC0C09EACF8A9CC2C7B070FA0A8B7E2E9B8AAEE408A3C02EB1676B PUSH1 0x40 MLOAD PUSH1 0x40 MLOAD DUP1 SWAP2 SUB SWAP1 LOG3 DUP1 PUSH1 0xF PUSH1 0x0 PUSH2 0x100 EXP DUP2 SLOAD DUP2 PUSH20 0xFFFFFFFFFFFFFFFFFFFFFFFFFFFFFFFFFFFFFFFF MUL NOT AND SWAP1 DUP4 PUSH20 0xFFFFFFFFFFFFFFFFFFFFFFFFFFFFFFFFFFFFFFFF AND MUL OR SWAP1 SSTORE POP PUSH1 0x1 PUSH1 0x5 PUSH1 0x0 PUSH1 0xF PUSH1 0x0 SWAP1 SLOAD SWAP1 PUSH2 0x100 EXP SWAP1 DIV PUSH20 0xFFFFFFFFFFFFFFFFFFFFFFFFFFFFFFFFFFFFFFFF AND PUSH20 0xFFFFFFFFFFFFFFFFFFFFFFFFFFFFFFFFFFFFFFFF AND PUSH20 0xFFFFFFFFFFFFFFFFFFFFFFFFFFFFFFFFFFFFFFFF AND DUP2 MSTORE PUSH1 0x20 ADD SWAP1 DUP2 MSTORE PUSH1 0x20 ADD PUSH1 0x0 KECCAK256 PUSH1 0x0 PUSH2 0x100 EXP DUP2 SLOAD DUP2 PUSH1 0xFF MUL NOT AND SWAP1 DUP4 ISZERO ISZERO MUL OR SWAP1 SSTORE POP POP JUMP JUMPDEST PUSH1 0x0 DUP1 PUSH1 0x0 SWAP1 SLOAD SWAP1 PUSH2 0x100 EXP SWAP1 DIV PUSH20 0xFFFFFFFFFFFFFFFFFFFFFFFFFFFFFFFFFFFFFFFF AND SWAP1 POP SWAP1 JUMP JUMPDEST PUSH1 0x60 PUSH1 0x40 MLOAD DUP1 PUSH1 0x40 ADD PUSH1 0x40 MSTORE DUP1 PUSH1 0x3 DUP2 MSTORE PUSH1 0x20 ADD PUSH32 0x5753500000000000000000000000000000000000000000000000000000000000 DUP2 MSTORE POP SWAP1 POP SWAP1 JUMP JUMPDEST PUSH2 0x10A5 PUSH2 0x1ACD JUMP JUMPDEST PUSH20 0xFFFFFFFFFFFFFFFFFFFFFFFFFFFFFFFFFFFFFFFF AND PUSH2 0x10C3 PUSH2 0x1037 JUMP JUMPDEST PUSH20 0xFFFFFFFFFFFFFFFFFFFFFFFFFFFFFFFFFFFFFFFF AND EQ DUP1 PUSH2 0x1139 JUMPI POP PUSH2 0x10E8 PUSH2 0x1ACD JUMP JUMPDEST PUSH20 0xFFFFFFFFFFFFFFFFFFFFFFFFFFFFFFFFFFFFFFFF AND PUSH1 0xE PUSH1 0x0 SWAP1 SLOAD SWAP1 PUSH2 0x100 EXP SWAP1 DIV PUSH20 0xFFFFFFFFFFFFFFFFFFFFFFFFFFFFFFFFFFFFFFFF AND PUSH20 0xFFFFFFFFFFFFFFFFFFFFFFFFFFFFFFFFFFFFFFFF AND EQ JUMPDEST PUSH2 0x1178 JUMPI PUSH1 0x40 MLOAD PUSH32 0x8C379A000000000000000000000000000000000000000000000000000000000 DUP2 MSTORE PUSH1 0x4 ADD PUSH2 0x116F SWAP1 PUSH2 0x33EB JUMP JUMPDEST PUSH1 0x40 MLOAD DUP1 SWAP2 SUB SWAP1 REVERT JUMPDEST PUSH1 0xB DUP5 LT PUSH2 0x11BB JUMPI PUSH1 0x40 MLOAD PUSH32 0x8C379A000000000000000000000000000000000000000000000000000000000 DUP2 MSTORE PUSH1 0x4 ADD PUSH2 0x11B2 SWAP1 PUSH2 0x3457 JUMP JUMPDEST PUSH1 0x40 MLOAD DUP1 SWAP2 SUB SWAP1 REVERT JUMPDEST PUSH1 0xB DUP4 LT PUSH2 0x11FE JUMPI PUSH1 0x40 MLOAD PUSH32 0x8C379A000000000000000000000000000000000000000000000000000000000 DUP2 MSTORE PUSH1 0x4 ADD PUSH2 0x11F5 SWAP1 PUSH2 0x3457 JUMP JUMPDEST PUSH1 0x40 MLOAD DUP1 SWAP2 SUB SWAP1 REVERT JUMPDEST PUSH1 0x7 DUP3 LT PUSH2 0x1241 JUMPI PUSH1 0x40 MLOAD PUSH32 0x8C379A000000000000000000000000000000000000000000000000000000000 DUP2 MSTORE PUSH1 0x4 ADD PUSH2 0x1238 SWAP1 PUSH2 0x34C3 JUMP JUMPDEST PUSH1 0x40 MLOAD DUP1 SWAP2 SUB SWAP1 REVERT JUMPDEST PUSH1 0x7 DUP2 LT PUSH2 0x1284 JUMPI PUSH1 0x40 MLOAD PUSH32 0x8C379A000000000000000000000000000000000000000000000000000000000 DUP2 MSTORE PUSH1 0x4 ADD PUSH2 0x127B SWAP1 PUSH2 0x34C3 JUMP JUMPDEST PUSH1 0x40 MLOAD DUP1 SWAP2 SUB SWAP1 REVERT JUMPDEST DUP4 PUSH1 0x8 DUP2 SWAP1 SSTORE POP DUP3 PUSH1 0xA DUP2 SWAP1 SSTORE POP DUP2 PUSH1 0x9 DUP2 SWAP1 SSTORE POP DUP1 PUSH1 0xB DUP2 SWAP1 SSTORE POP POP POP POP POP JUMP JUMPDEST PUSH1 0x0 PUSH2 0x12BA PUSH2 0x12B3 PUSH2 0x1ACD JUMP JUMPDEST DUP5 DUP5 PUSH2 0x1C9E JUMP JUMPDEST PUSH1 0x1 SWAP1 POP SWAP3 SWAP2 POP POP JUMP JUMPDEST PUSH2 0x12CC PUSH2 0x1ACD JUMP JUMPDEST PUSH20 0xFFFFFFFFFFFFFFFFFFFFFFFFFFFFFFFFFFFFFFFF AND PUSH2 0x12EA PUSH2 0x1037 JUMP JUMPDEST PUSH20 0xFFFFFFFFFFFFFFFFFFFFFFFFFFFFFFFFFFFFFFFF AND EQ DUP1 PUSH2 0x1360 JUMPI POP PUSH2 0x130F PUSH2 0x1ACD JUMP JUMPDEST PUSH20 0xFFFFFFFFFFFFFFFFFFFFFFFFFFFFFFFFFFFFFFFF AND PUSH1 0xE PUSH1 0x0 SWAP1 SLOAD SWAP1 PUSH2 0x100 EXP SWAP1 DIV PUSH20 0xFFFFFFFFFFFFFFFFFFFFFFFFFFFFFFFFFFFFFFFF AND PUSH20 0xFFFFFFFFFFFFFFFFFFFFFFFFFFFFFFFFFFFFFFFF AND EQ JUMPDEST PUSH2 0x139F JUMPI PUSH1 0x40 MLOAD PUSH32 0x8C379A000000000000000000000000000000000000000000000000000000000 DUP2 MSTORE PUSH1 0x4 ADD PUSH2 0x1396 SWAP1 PUSH2 0x33EB JUMP JUMPDEST PUSH1 0x40 MLOAD DUP1 SWAP2 SUB SWAP1 REVERT JUMPDEST DUP1 PUSH20 0xFFFFFFFFFFFFFFFFFFFFFFFFFFFFFFFFFFFFFFFF AND PUSH1 0xE PUSH1 0x0 SWAP1 SLOAD SWAP1 PUSH2 0x100 EXP SWAP1 DIV PUSH20 0xFFFFFFFFFFFFFFFFFFFFFFFFFFFFFFFFFFFFFFFF AND PUSH20 0xFFFFFFFFFFFFFFFFFFFFFFFFFFFFFFFFFFFFFFFF AND PUSH32 0xFBBC329437E8C79F847E170730AD6DD04106B7511CAD70D06D635886D92DE83C PUSH1 0x40 MLOAD PUSH1 0x40 MLOAD DUP1 SWAP2 SUB SWAP1 LOG3 DUP1 PUSH1 0xE PUSH1 0x0 PUSH2 0x100 EXP DUP2 SLOAD DUP2 PUSH20 0xFFFFFFFFFFFFFFFFFFFFFFFFFFFFFFFFFFFFFFFF MUL NOT AND SWAP1 DUP4 PUSH20 0xFFFFFFFFFFFFFFFFFFFFFFFFFFFFFFFFFFFFFFFF AND MUL OR SWAP1 SSTORE POP PUSH1 0x1 PUSH1 0x5 PUSH1 0x0 PUSH1 0xE PUSH1 0x0 SWAP1 SLOAD SWAP1 PUSH2 0x100 EXP SWAP1 DIV PUSH20 0xFFFFFFFFFFFFFFFFFFFFFFFFFFFFFFFFFFFFFFFF AND PUSH20 0xFFFFFFFFFFFFFFFFFFFFFFFFFFFFFFFFFFFFFFFF AND PUSH20 0xFFFFFFFFFFFFFFFFFFFFFFFFFFFFFFFFFFFFFFFF AND DUP2 MSTORE PUSH1 0x20 ADD SWAP1 DUP2 MSTORE PUSH1 0x20 ADD PUSH1 0x0 KECCAK256 PUSH1 0x0 PUSH2 0x100 EXP DUP2 SLOAD DUP2 PUSH1 0xFF MUL NOT AND SWAP1 DUP4 ISZERO ISZERO MUL OR SWAP1 SSTORE POP POP JUMP JUMPDEST PUSH1 0xE PUSH1 0x0 SWAP1 SLOAD SWAP1 PUSH2 0x100 EXP SWAP1 DIV PUSH20 0xFFFFFFFFFFFFFFFFFFFFFFFFFFFFFFFFFFFFFFFF AND PUSH20 0xFFFFFFFFFFFFFFFFFFFFFFFFFFFFFFFFFFFFFFFF AND PUSH2 0x151A PUSH2 0x1ACD JUMP JUMPDEST PUSH20 0xFFFFFFFFFFFFFFFFFFFFFFFFFFFFFFFFFFFFFFFF AND EQ DUP1 PUSH2 0x1590 JUMPI POP PUSH1 0xF PUSH1 0x0 SWAP1 SLOAD SWAP1 PUSH2 0x100 EXP SWAP1 DIV PUSH20 0xFFFFFFFFFFFFFFFFFFFFFFFFFFFFFFFFFFFFFFFF AND PUSH20 0xFFFFFFFFFFFFFFFFFFFFFFFFFFFFFFFFFFFFFFFF AND PUSH2 0x1578 PUSH2 0x1ACD JUMP JUMPDEST PUSH20 0xFFFFFFFFFFFFFFFFFFFFFFFFFFFFFFFFFFFFFFFF AND EQ JUMPDEST DUP1 PUSH2 0x15D4 JUMPI POP PUSH2 0x159E PUSH2 0x1037 JUMP JUMPDEST PUSH20 0xFFFFFFFFFFFFFFFFFFFFFFFFFFFFFFFFFFFFFFFF AND PUSH2 0x15BC PUSH2 0x1ACD JUMP JUMPDEST PUSH20 0xFFFFFFFFFFFFFFFFFFFFFFFFFFFFFFFFFFFFFFFF AND EQ JUMPDEST PUSH2 0x15DD JUMPI PUSH1 0x0 DUP1 REVERT JUMPDEST PUSH1 0x0 PUSH2 0x15E8 ADDRESS PUSH2 0xC7E JUMP JUMPDEST SWAP1 POP PUSH2 0x15F3 DUP2 PUSH2 0x23DD JUMP JUMPDEST POP JUMP JUMPDEST PUSH2 0x15FE PUSH2 0x1ACD JUMP JUMPDEST PUSH20 0xFFFFFFFFFFFFFFFFFFFFFFFFFFFFFFFFFFFFFFFF AND PUSH1 0x0 DUP1 SLOAD SWAP1 PUSH2 0x100 EXP SWAP1 DIV PUSH20 0xFFFFFFFFFFFFFFFFFFFFFFFFFFFFFFFFFFFFFFFF AND PUSH20 0xFFFFFFFFFFFFFFFFFFFFFFFFFFFFFFFFFFFFFFFF AND EQ PUSH2 0x168B JUMPI PUSH1 0x40 MLOAD PUSH32 0x8C379A000000000000000000000000000000000000000000000000000000000 DUP2 MSTORE PUSH1 0x4 ADD PUSH2 0x1682 SWAP1 PUSH2 0x3314 JUMP JUMPDEST PUSH1 0x40 MLOAD DUP1 SWAP2 SUB SWAP1 REVERT JUMPDEST PUSH1 0x0 JUMPDEST DUP4 DUP4 SWAP1 POP DUP2 LT ISZERO PUSH2 0x172A JUMPI DUP2 PUSH1 0x5 PUSH1 0x0 DUP7 DUP7 DUP6 DUP2 DUP2 LT PUSH2 0x16B1 JUMPI PUSH2 0x16B0 PUSH2 0x34E3 JUMP JUMPDEST JUMPDEST SWAP1 POP PUSH1 0x20 MUL ADD PUSH1 0x20 DUP2 ADD SWAP1 PUSH2 0x16C6 SWAP2 SWAP1 PUSH2 0x30C4 JUMP JUMPDEST PUSH20 0xFFFFFFFFFFFFFFFFFFFFFFFFFFFFFFFFFFFFFFFF AND PUSH20 0xFFFFFFFFFFFFFFFFFFFFFFFFFFFFFFFFFFFFFFFF AND DUP2 MSTORE PUSH1 0x20 ADD SWAP1 DUP2 MSTORE PUSH1 0x20 ADD PUSH1 0x0 KECCAK256 PUSH1 0x0 PUSH2 0x100 EXP DUP2 SLOAD DUP2 PUSH1 0xFF MUL NOT AND SWAP1 DUP4 ISZERO ISZERO MUL OR SWAP1 SSTORE POP DUP1 DUP1 PUSH2 0x1722 SWAP1 PUSH2 0x3541 JUMP JUMPDEST SWAP2 POP POP PUSH2 0x168E JUMP JUMPDEST POP POP POP POP JUMP JUMPDEST PUSH1 0x0 PUSH1 0x4 PUSH1 0x0 DUP5 PUSH20 0xFFFFFFFFFFFFFFFFFFFFFFFFFFFFFFFFFFFFFFFF AND PUSH20 0xFFFFFFFFFFFFFFFFFFFFFFFFFFFFFFFFFFFFFFFF AND DUP2 MSTORE PUSH1 0x20 ADD SWAP1 DUP2 MSTORE PUSH1 0x20 ADD PUSH1 0x0 KECCAK256 PUSH1 0x0 DUP4 PUSH20 0xFFFFFFFFFFFFFFFFFFFFFFFFFFFFFFFFFFFFFFFF AND PUSH20 0xFFFFFFFFFFFFFFFFFFFFFFFFFFFFFFFFFFFFFFFF AND DUP2 MSTORE PUSH1 0x20 ADD SWAP1 DUP2 MSTORE PUSH1 0x20 ADD PUSH1 0x0 KECCAK256 SLOAD SWAP1 POP SWAP3 SWAP2 POP POP JUMP JUMPDEST PUSH2 0x17BF PUSH2 0x1ACD JUMP JUMPDEST PUSH20 0xFFFFFFFFFFFFFFFFFFFFFFFFFFFFFFFFFFFFFFFF AND PUSH2 0x17DD PUSH2 0x1037 JUMP JUMPDEST PUSH20 0xFFFFFFFFFFFFFFFFFFFFFFFFFFFFFFFFFFFFFFFF AND EQ DUP1 PUSH2 0x1853 JUMPI POP PUSH2 0x1802 PUSH2 0x1ACD JUMP JUMPDEST PUSH20 0xFFFFFFFFFFFFFFFFFFFFFFFFFFFFFFFFFFFFFFFF AND PUSH1 0xE PUSH1 0x0 SWAP1 SLOAD SWAP1 PUSH2 0x100 EXP SWAP1 DIV PUSH20 0xFFFFFFFFFFFFFFFFFFFFFFFFFFFFFFFFFFFFFFFF AND PUSH20 0xFFFFFFFFFFFFFFFFFFFFFFFFFFFFFFFFFFFFFFFF AND EQ JUMPDEST PUSH2 0x1892 JUMPI PUSH1 0x40 MLOAD PUSH32 0x8C379A000000000000000000000000000000000000000000000000000000000 DUP2 MSTORE PUSH1 0x4 ADD PUSH2 0x1889 SWAP1 PUSH2 0x33EB JUMP JUMPDEST PUSH1 0x40 MLOAD DUP1 SWAP2 SUB SWAP1 REVERT JUMPDEST DUP2 PUSH20 0xFFFFFFFFFFFFFFFFFFFFFFFFFFFFFFFFFFFFFFFF AND DUP4 PUSH20 0xFFFFFFFFFFFFFFFFFFFFFFFFFFFFFFFFFFFFFFFF AND PUSH32 0x47C33AA230EB5FD181505AA7BEFEADDD9B8A6F983989CEA73A7868448C3A9ED9 DUP4 PUSH1 0x40 MLOAD PUSH2 0x18EF SWAP2 SWAP1 PUSH2 0x2F60 JUMP JUMPDEST PUSH1 0x40 MLOAD DUP1 SWAP2 SUB SWAP1 LOG3 DUP3 PUSH20 0xFFFFFFFFFFFFFFFFFFFFFFFFFFFFFFFFFFFFFFFF AND PUSH4 0xA9059CBB DUP4 DUP4 PUSH1 0x40 MLOAD DUP4 PUSH4 0xFFFFFFFF AND PUSH1 0xE0 SHL DUP2 MSTORE PUSH1 0x4 ADD PUSH2 0x1932 SWAP3 SWAP2 SWAP1 PUSH2 0x3589 JUMP JUMPDEST PUSH1 0x20 PUSH1 0x40 MLOAD DUP1 DUP4 SUB DUP2 PUSH1 0x0 DUP8 GAS CALL ISZERO DUP1 ISZERO PUSH2 0x1951 JUMPI RETURNDATASIZE PUSH1 0x0 DUP1 RETURNDATACOPY RETURNDATASIZE PUSH1 0x0 REVERT JUMPDEST POP POP POP POP PUSH1 0x40 MLOAD RETURNDATASIZE PUSH1 0x1F NOT PUSH1 0x1F DUP3 ADD AND DUP3 ADD DUP1 PUSH1 0x40 MSTORE POP DUP2 ADD SWAP1 PUSH2 0x1975 SWAP2 SWAP1 PUSH2 0x35C7 JUMP JUMPDEST POP POP POP POP JUMP JUMPDEST PUSH2 0x1983 PUSH2 0x1ACD JUMP JUMPDEST PUSH20 0xFFFFFFFFFFFFFFFFFFFFFFFFFFFFFFFFFFFFFFFF AND PUSH1 0x0 DUP1 SLOAD SWAP1 PUSH2 0x100 EXP SWAP1 DIV PUSH20 0xFFFFFFFFFFFFFFFFFFFFFFFFFFFFFFFFFFFFFFFF AND PUSH20 0xFFFFFFFFFFFFFFFFFFFFFFFFFFFFFFFFFFFFFFFF AND EQ PUSH2 0x1A10 JUMPI PUSH1 0x40 MLOAD PUSH32 0x8C379A000000000000000000000000000000000000000000000000000000000 DUP2 MSTORE PUSH1 0x4 ADD PUSH2 0x1A07 SWAP1 PUSH2 0x3314 JUMP JUMPDEST PUSH1 0x40 MLOAD DUP1 SWAP2 SUB SWAP1 REVERT JUMPDEST DUP1 PUSH20 0xFFFFFFFFFFFFFFFFFFFFFFFFFFFFFFFFFFFFFFFF AND PUSH1 0x0 DUP1 SLOAD SWAP1 PUSH2 0x100 EXP SWAP1 DIV PUSH20 0xFFFFFFFFFFFFFFFFFFFFFFFFFFFFFFFFFFFFFFFF AND PUSH20 0xFFFFFFFFFFFFFFFFFFFFFFFFFFFFFFFFFFFFFFFF AND PUSH32 0x8BE0079C531659141344CD1FD0A4F28419497F9722A3DAAFE3B4186F6B6457E0 PUSH1 0x40 MLOAD PUSH1 0x40 MLOAD DUP1 SWAP2 SUB SWAP1 LOG3 DUP1 PUSH1 0x0 DUP1 PUSH2 0x100 EXP DUP2 SLOAD DUP2 PUSH20 0xFFFFFFFFFFFFFFFFFFFFFFFFFFFFFFFFFFFFFFFF MUL NOT AND SWAP1 DUP4 PUSH20 0xFFFFFFFFFFFFFFFFFFFFFFFFFFFFFFFFFFFFFFFF AND MUL OR SWAP1 SSTORE POP POP JUMP JUMPDEST PUSH1 0x0 CALLER SWAP1 POP SWAP1 JUMP JUMPDEST PUSH1 0x0 PUSH20 0xFFFFFFFFFFFFFFFFFFFFFFFFFFFFFFFFFFFFFFFF AND DUP4 PUSH20 0xFFFFFFFFFFFFFFFFFFFFFFFFFFFFFFFFFFFFFFFF AND SUB PUSH2 0x1B44 JUMPI PUSH1 0x40 MLOAD PUSH32 0x8C379A000000000000000000000000000000000000000000000000000000000 DUP2 MSTORE PUSH1 0x4 ADD PUSH2 0x1B3B SWAP1 PUSH2 0x3666 JUMP JUMPDEST PUSH1 0x40 MLOAD DUP1 SWAP2 SUB SWAP1 REVERT JUMPDEST PUSH1 0x0 PUSH20 0xFFFFFFFFFFFFFFFFFFFFFFFFFFFFFFFFFFFFFFFF AND DUP3 PUSH20 0xFFFFFFFFFFFFFFFFFFFFFFFFFFFFFFFFFFFFFFFF AND SUB PUSH2 0x1BB3 JUMPI PUSH1 0x40 MLOAD PUSH32 0x8C379A000000000000000000000000000000000000000000000000000000000 DUP2 MSTORE PUSH1 0x4 ADD PUSH2 0x1BAA SWAP1 PUSH2 0x36F8 JUMP JUMPDEST PUSH1 0x40 MLOAD DUP1 SWAP2 SUB SWAP1 REVERT JUMPDEST DUP1 PUSH1 0x4 PUSH1 0x0 DUP6 PUSH20 0xFFFFFFFFFFFFFFFFFFFFFFFFFFFFFFFFFFFFFFFF AND PUSH20 0xFFFFFFFFFFFFFFFFFFFFFFFFFFFFFFFFFFFFFFFF AND DUP2 MSTORE PUSH1 0x20 ADD SWAP1 DUP2 MSTORE PUSH1 0x20 ADD PUSH1 0x0 KECCAK256 PUSH1 0x0 DUP5 PUSH20 0xFFFFFFFFFFFFFFFFFFFFFFFFFFFFFFFFFFFFFFFF AND PUSH20 0xFFFFFFFFFFFFFFFFFFFFFFFFFFFFFFFFFFFFFFFF AND DUP2 MSTORE PUSH1 0x20 ADD SWAP1 DUP2 MSTORE PUSH1 0x20 ADD PUSH1 0x0 KECCAK256 DUP2 SWAP1 SSTORE POP DUP2 PUSH20 0xFFFFFFFFFFFFFFFFFFFFFFFFFFFFFFFFFFFFFFFF AND DUP4 PUSH20 0xFFFFFFFFFFFFFFFFFFFFFFFFFFFFFFFFFFFFFFFF AND PUSH32 0x8C5BE1E5EBEC7D5BD14F71427D1E84F3DD0314C0F7B2291E5B200AC8C7C3B925 DUP4 PUSH1 0x40 MLOAD PUSH2 0x1C91 SWAP2 SWAP1 PUSH2 0x2F60 JUMP JUMPDEST PUSH1 0x40 MLOAD DUP1 SWAP2 SUB SWAP1 LOG3 POP POP POP JUMP JUMPDEST PUSH1 0x0 PUSH20 0xFFFFFFFFFFFFFFFFFFFFFFFFFFFFFFFFFFFFFFFF AND DUP4 PUSH20 0xFFFFFFFFFFFFFFFFFFFFFFFFFFFFFFFFFFFFFFFF AND SUB PUSH2 0x1D0D JUMPI PUSH1 0x40 MLOAD PUSH32 0x8C379A000000000000000000000000000000000000000000000000000000000 DUP2 MSTORE PUSH1 0x4 ADD PUSH2 0x1D04 SWAP1 PUSH2 0x378A JUMP JUMPDEST PUSH1 0x40 MLOAD DUP1 SWAP2 SUB SWAP1 REVERT JUMPDEST PUSH1 0x0 PUSH20 0xFFFFFFFFFFFFFFFFFFFFFFFFFFFFFFFFFFFFFFFF AND DUP3 PUSH20 0xFFFFFFFFFFFFFFFFFFFFFFFFFFFFFFFFFFFFFFFF AND SUB PUSH2 0x1D7C JUMPI PUSH1 0x40 MLOAD PUSH32 0x8C379A000000000000000000000000000000000000000000000000000000000 DUP2 MSTORE PUSH1 0x4 ADD PUSH2 0x1D73 SWAP1 PUSH2 0x381C JUMP JUMPDEST PUSH1 0x40 MLOAD DUP1 SWAP2 SUB SWAP1 REVERT JUMPDEST PUSH1 0x0 DUP2 GT PUSH2 0x1DBF JUMPI PUSH1 0x40 MLOAD PUSH32 0x8C379A000000000000000000000000000000000000000000000000000000000 DUP2 MSTORE PUSH1 0x4 ADD PUSH2 0x1DB6 SWAP1 PUSH2 0x38AE JUMP JUMPDEST PUSH1 0x40 MLOAD DUP1 SWAP2 SUB SWAP1 REVERT JUMPDEST PUSH1 0x0 PUSH1 0xC DUP2 SWAP1 SSTORE POP PUSH1 0x0 PUSH1 0xD DUP2 SWAP1 SSTORE POP PUSH2 0x1DD7 PUSH2 0x1037 JUMP JUMPDEST PUSH20 0xFFFFFFFFFFFFFFFFFFFFFFFFFFFFFFFFFFFFFFFF AND DUP4 PUSH20 0xFFFFFFFFFFFFFFFFFFFFFFFFFFFFFFFFFFFFFFFF AND EQ ISZERO DUP1 ISZERO PUSH2 0x1E45 JUMPI POP PUSH2 0x1E15 PUSH2 0x1037 JUMP JUMPDEST PUSH20 0xFFFFFFFFFFFFFFFFFFFFFFFFFFFFFFFFFFFFFFFF AND DUP3 PUSH20 0xFFFFFFFFFFFFFFFFFFFFFFFFFFFFFFFFFFFFFFFF AND EQ ISZERO JUMPDEST ISZERO PUSH2 0x2200 JUMPI PUSH1 0x0 PUSH2 0x1E55 ADDRESS PUSH2 0xC7E JUMP JUMPDEST SWAP1 POP PUSH1 0x12 PUSH1 0x14 SWAP1 SLOAD SWAP1 PUSH2 0x100 EXP SWAP1 DIV PUSH1 0xFF AND ISZERO DUP1 ISZERO PUSH2 0x1EC2 JUMPI POP PUSH1 0x12 PUSH1 0x0 SWAP1 SLOAD SWAP1 PUSH2 0x100 EXP SWAP1 DIV PUSH20 0xFFFFFFFFFFFFFFFFFFFFFFFFFFFFFFFFFFFFFFFF AND PUSH20 0xFFFFFFFFFFFFFFFFFFFFFFFFFFFFFFFFFFFFFFFF AND DUP5 PUSH20 0xFFFFFFFFFFFFFFFFFFFFFFFFFFFFFFFFFFFFFFFF AND EQ ISZERO JUMPDEST DUP1 ISZERO PUSH2 0x1EDA JUMPI POP PUSH1 0x12 PUSH1 0x15 SWAP1 SLOAD SWAP1 PUSH2 0x100 EXP SWAP1 DIV PUSH1 0xFF AND JUMPDEST DUP1 ISZERO PUSH2 0x1EE6 JUMPI POP PUSH1 0x0 DUP2 GT JUMPDEST ISZERO PUSH2 0x1F0E JUMPI PUSH2 0x1EF4 DUP2 PUSH2 0x23DD JUMP JUMPDEST PUSH1 0x0 SELFBALANCE SWAP1 POP PUSH1 0x0 DUP2 GT ISZERO PUSH2 0x1F0C JUMPI PUSH2 0x1F0B SELFBALANCE PUSH2 0x2274 JUMP JUMPDEST JUMPDEST POP JUMPDEST PUSH1 0x12 PUSH1 0x0 SWAP1 SLOAD SWAP1 PUSH2 0x100 EXP SWAP1 DIV PUSH20 0xFFFFFFFFFFFFFFFFFFFFFFFFFFFFFFFFFFFFFFFF AND PUSH20 0xFFFFFFFFFFFFFFFFFFFFFFFFFFFFFFFFFFFFFFFF AND DUP5 PUSH20 0xFFFFFFFFFFFFFFFFFFFFFFFFFFFFFFFFFFFFFFFF AND EQ DUP1 ISZERO PUSH2 0x1FB9 JUMPI POP PUSH1 0x10 PUSH1 0x0 SWAP1 SLOAD SWAP1 PUSH2 0x100 EXP SWAP1 DIV PUSH20 0xFFFFFFFFFFFFFFFFFFFFFFFFFFFFFFFFFFFFFFFF AND PUSH20 0xFFFFFFFFFFFFFFFFFFFFFFFFFFFFFFFFFFFFFFFF AND DUP4 PUSH20 0xFFFFFFFFFFFFFFFFFFFFFFFFFFFFFFFFFFFFFFFF AND EQ ISZERO JUMPDEST ISZERO PUSH2 0x1FD1 JUMPI PUSH1 0x8 SLOAD PUSH1 0xC DUP2 SWAP1 SSTORE POP PUSH1 0x9 SLOAD PUSH1 0xD DUP2 SWAP1 SSTORE POP JUMPDEST PUSH1 0x12 PUSH1 0x0 SWAP1 SLOAD SWAP1 PUSH2 0x100 EXP SWAP1 DIV PUSH20 0xFFFFFFFFFFFFFFFFFFFFFFFFFFFFFFFFFFFFFFFF AND PUSH20 0xFFFFFFFFFFFFFFFFFFFFFFFFFFFFFFFFFFFFFFFF AND DUP4 PUSH20 0xFFFFFFFFFFFFFFFFFFFFFFFFFFFFFFFFFFFFFFFF AND EQ DUP1 ISZERO PUSH2 0x207C JUMPI POP PUSH1 0x10 PUSH1 0x0 SWAP1 SLOAD SWAP1 PUSH2 0x100 EXP SWAP1 DIV PUSH20 0xFFFFFFFFFFFFFFFFFFFFFFFFFFFFFFFFFFFFFFFF AND PUSH20 0xFFFFFFFFFFFFFFFFFFFFFFFFFFFFFFFFFFFFFFFF AND DUP5 PUSH20 0xFFFFFFFFFFFFFFFFFFFFFFFFFFFFFFFFFFFFFFFF AND EQ ISZERO JUMPDEST ISZERO PUSH2 0x2094 JUMPI PUSH1 0xA SLOAD PUSH1 0xC DUP2 SWAP1 SSTORE POP PUSH1 0xB SLOAD PUSH1 0xD DUP2 SWAP1 SSTORE POP JUMPDEST PUSH1 0x5 PUSH1 0x0 DUP6 PUSH20 0xFFFFFFFFFFFFFFFFFFFFFFFFFFFFFFFFFFFFFFFF AND PUSH20 0xFFFFFFFFFFFFFFFFFFFFFFFFFFFFFFFFFFFFFFFF AND DUP2 MSTORE PUSH1 0x20 ADD SWAP1 DUP2 MSTORE PUSH1 0x20 ADD PUSH1 0x0 KECCAK256 PUSH1 0x0 SWAP1 SLOAD SWAP1 PUSH2 0x100 EXP SWAP1 DIV PUSH1 0xFF AND DUP1 PUSH2 0x2135 JUMPI POP PUSH1 0x5 PUSH1 0x0 DUP5 PUSH20 0xFFFFFFFFFFFFFFFFFFFFFFFFFFFFFFFFFFFFFFFF AND PUSH20 0xFFFFFFFFFFFFFFFFFFFFFFFFFFFFFFFFFFFFFFFF AND DUP2 MSTORE PUSH1 0x20 ADD SWAP1 DUP2 MSTORE PUSH1 0x20 ADD PUSH1 0x0 KECCAK256 PUSH1 0x0 SWAP1 SLOAD SWAP1 PUSH2 0x100 EXP SWAP1 DIV PUSH1 0xFF AND JUMPDEST DUP1 PUSH2 0x21E8 JUMPI POP PUSH1 0x12 PUSH1 0x0 SWAP1 SLOAD SWAP1 PUSH2 0x100 EXP SWAP1 DIV PUSH20 0xFFFFFFFFFFFFFFFFFFFFFFFFFFFFFFFFFFFFFFFF AND PUSH20 0xFFFFFFFFFFFFFFFFFFFFFFFFFFFFFFFFFFFFFFFF AND DUP5 PUSH20 0xFFFFFFFFFFFFFFFFFFFFFFFFFFFFFFFFFFFFFFFF AND EQ ISZERO DUP1 ISZERO PUSH2 0x21E7 JUMPI POP PUSH1 0x12 PUSH1 0x0 SWAP1 SLOAD SWAP1 PUSH2 0x100 EXP SWAP1 DIV PUSH20 0xFFFFFFFFFFFFFFFFFFFFFFFFFFFFFFFFFFFFFFFF AND PUSH20 0xFFFFFFFFFFFFFFFFFFFFFFFFFFFFFFFFFFFFFFFF AND DUP4 PUSH20 0xFFFFFFFFFFFFFFFFFFFFFFFFFFFFFFFFFFFFFFFF AND EQ ISZERO JUMPDEST JUMPDEST ISZERO PUSH2 0x21FE JUMPI PUSH1 0x0 PUSH1 0xC DUP2 SWAP1 SSTORE POP PUSH1 0x0 PUSH1 0xD DUP2 SWAP1 SSTORE POP JUMPDEST POP JUMPDEST PUSH2 0x220B DUP4 DUP4 DUP4 PUSH2 0x2656 JUMP JUMPDEST POP POP POP JUMP JUMPDEST PUSH1 0x0 DUP4 DUP4 GT ISZERO DUP3 SWAP1 PUSH2 0x2258 JUMPI PUSH1 0x40 MLOAD PUSH32 0x8C379A000000000000000000000000000000000000000000000000000000000 DUP2 MSTORE PUSH1 0x4 ADD PUSH2 0x224F SWAP2 SWAP1 PUSH2 0x2DA1 JUMP JUMPDEST PUSH1 0x40 MLOAD DUP1 SWAP2 SUB SWAP1 REVERT JUMPDEST POP PUSH1 0x0 DUP4 DUP6 PUSH2 0x2267 SWAP2 SWAP1 PUSH2 0x38CE JUMP JUMPDEST SWAP1 POP DUP1 SWAP2 POP POP SWAP4 SWAP3 POP POP POP JUMP JUMPDEST PUSH1 0xE PUSH1 0x0 SWAP1 SLOAD SWAP1 PUSH2 0x100 EXP SWAP1 DIV PUSH20 0xFFFFFFFFFFFFFFFFFFFFFFFFFFFFFFFFFFFFFFFF AND PUSH20 0xFFFFFFFFFFFFFFFFFFFFFFFFFFFFFFFFFFFFFFFF AND PUSH2 0x8FC PUSH2 0x22C4 PUSH1 0x2 DUP5 PUSH2 0x2666 SWAP1 SWAP2 SWAP1 PUSH4 0xFFFFFFFF AND JUMP JUMPDEST SWAP1 DUP2 ISZERO MUL SWAP1 PUSH1 0x40 MLOAD PUSH1 0x0 PUSH1 0x40 MLOAD DUP1 DUP4 SUB DUP2 DUP6 DUP9 DUP9 CALL SWAP4 POP POP POP POP ISZERO DUP1 ISZERO PUSH2 0x22EF JUMPI RETURNDATASIZE PUSH1 0x0 DUP1 RETURNDATACOPY RETURNDATASIZE PUSH1 0x0 REVERT JUMPDEST POP PUSH1 0xF PUSH1 0x0 SWAP1 SLOAD SWAP1 PUSH2 0x100 EXP SWAP1 DIV PUSH20 0xFFFFFFFFFFFFFFFFFFFFFFFFFFFFFFFFFFFFFFFF AND PUSH20 0xFFFFFFFFFFFFFFFFFFFFFFFFFFFFFFFFFFFFFFFF AND PUSH2 0x8FC PUSH2 0x2340 PUSH1 0x2 DUP5 PUSH2 0x2666 SWAP1 SWAP2 SWAP1 PUSH4 0xFFFFFFFF AND JUMP JUMPDEST SWAP1 DUP2 ISZERO MUL SWAP1 PUSH1 0x40 MLOAD PUSH1 0x0 PUSH1 0x40 MLOAD DUP1 DUP4 SUB DUP2 DUP6 DUP9 DUP9 CALL SWAP4 POP POP POP POP ISZERO DUP1 ISZERO PUSH2 0x236B JUMPI RETURNDATASIZE PUSH1 0x0 DUP1 RETURNDATACOPY RETURNDATASIZE PUSH1 0x0 REVERT JUMPDEST POP POP JUMP JUMPDEST PUSH1 0x0 PUSH1 0x6 SLOAD DUP3 GT ISZERO PUSH2 0x23B6 JUMPI PUSH1 0x40 MLOAD PUSH32 0x8C379A000000000000000000000000000000000000000000000000000000000 DUP2 MSTORE PUSH1 0x4 ADD PUSH2 0x23AD SWAP1 PUSH2 0x3974 JUMP JUMPDEST PUSH1 0x40 MLOAD DUP1 SWAP2 SUB SWAP1 REVERT JUMPDEST PUSH1 0x0 PUSH2 0x23C0 PUSH2 0x26B0 JUMP JUMPDEST SWAP1 POP PUSH2 0x23D5 DUP2 DUP5 PUSH2 0x2666 SWAP1 SWAP2 SWAP1 PUSH4 0xFFFFFFFF AND JUMP JUMPDEST SWAP2 POP POP SWAP2 SWAP1 POP JUMP JUMPDEST PUSH1 0x1 PUSH1 0x12 PUSH1 0x14 PUSH2 0x100 EXP DUP2 SLOAD DUP2 PUSH1 0xFF MUL NOT AND SWAP1 DUP4 ISZERO ISZERO MUL OR SWAP1 SSTORE POP PUSH1 0x0 PUSH1 0x2 PUSH8 0xFFFFFFFFFFFFFFFF DUP2 GT ISZERO PUSH2 0x2415 JUMPI PUSH2 0x2414 PUSH2 0x3994 JUMP JUMPDEST JUMPDEST PUSH1 0x40 MLOAD SWAP1 DUP1 DUP3 MSTORE DUP1 PUSH1 0x20 MUL PUSH1 0x20 ADD DUP3 ADD PUSH1 0x40 MSTORE DUP1 ISZERO PUSH2 0x2443 JUMPI DUP2 PUSH1 0x20 ADD PUSH1 0x20 DUP3 MUL DUP1 CALLDATASIZE DUP4 CALLDATACOPY DUP1 DUP3 ADD SWAP2 POP POP SWAP1 POP JUMPDEST POP SWAP1 POP ADDRESS DUP2 PUSH1 0x0 DUP2 MLOAD DUP2 LT PUSH2 0x245B JUMPI PUSH2 0x245A PUSH2 0x34E3 JUMP JUMPDEST JUMPDEST PUSH1 0x20 MUL PUSH1 0x20 ADD ADD SWAP1 PUSH20 0xFFFFFFFFFFFFFFFFFFFFFFFFFFFFFFFFFFFFFFFF AND SWAP1 DUP2 PUSH20 0xFFFFFFFFFFFFFFFFFFFFFFFFFFFFFFFFFFFFFFFF AND DUP2 MSTORE POP POP PUSH1 0x10 PUSH1 0x0 SWAP1 SLOAD SWAP1 PUSH2 0x100 EXP SWAP1 DIV PUSH20 0xFFFFFFFFFFFFFFFFFFFFFFFFFFFFFFFFFFFFFFFF AND PUSH20 0xFFFFFFFFFFFFFFFFFFFFFFFFFFFFFFFFFFFFFFFF AND PUSH4 0xAD5C4648 PUSH1 0x40 MLOAD DUP2 PUSH4 0xFFFFFFFF AND PUSH1 0xE0 SHL DUP2 MSTORE PUSH1 0x4 ADD PUSH1 0x20 PUSH1 0x40 MLOAD DUP1 DUP4 SUB DUP2 DUP7 GAS STATICCALL ISZERO DUP1 ISZERO PUSH2 0x2502 JUMPI RETURNDATASIZE PUSH1 0x0 DUP1 RETURNDATACOPY RETURNDATASIZE PUSH1 0x0 REVERT JUMPDEST POP POP POP POP PUSH1 0x40 MLOAD RETURNDATASIZE PUSH1 0x1F NOT PUSH1 0x1F DUP3 ADD AND DUP3 ADD DUP1 PUSH1 0x40 MSTORE POP DUP2 ADD SWAP1 PUSH2 0x2526 SWAP2 SWAP1 PUSH2 0x3349 JUMP JUMPDEST DUP2 PUSH1 0x1 DUP2 MLOAD DUP2 LT PUSH2 0x253A JUMPI PUSH2 0x2539 PUSH2 0x34E3 JUMP JUMPDEST JUMPDEST PUSH1 0x20 MUL PUSH1 0x20 ADD ADD SWAP1 PUSH20 0xFFFFFFFFFFFFFFFFFFFFFFFFFFFFFFFFFFFFFFFF AND SWAP1 DUP2 PUSH20 0xFFFFFFFFFFFFFFFFFFFFFFFFFFFFFFFFFFFFFFFF AND DUP2 MSTORE POP POP PUSH2 0x25A1 ADDRESS PUSH1 0x10 PUSH1 0x0 SWAP1 SLOAD SWAP1 PUSH2 0x100 EXP SWAP1 DIV PUSH20 0xFFFFFFFFFFFFFFFFFFFFFFFFFFFFFFFFFFFFFFFF AND DUP5 PUSH2 0x1AD5 JUMP JUMPDEST PUSH1 0x10 PUSH1 0x0 SWAP1 SLOAD SWAP1 PUSH2 0x100 EXP SWAP1 DIV PUSH20 0xFFFFFFFFFFFFFFFFFFFFFFFFFFFFFFFFFFFFFFFF AND PUSH20 0xFFFFFFFFFFFFFFFFFFFFFFFFFFFFFFFFFFFFFFFF AND PUSH4 0x791AC947 DUP4 PUSH1 0x0 DUP5 ADDRESS TIMESTAMP PUSH1 0x40 MLOAD DUP7 PUSH4 0xFFFFFFFF AND PUSH1 0xE0 SHL DUP2 MSTORE PUSH1 0x4 ADD PUSH2 0x2605 SWAP6 SWAP5 SWAP4 SWAP3 SWAP2 SWAP1 PUSH2 0x3ABC JUMP JUMPDEST PUSH1 0x0 PUSH1 0x40 MLOAD DUP1 DUP4 SUB DUP2 PUSH1 0x0 DUP8 DUP1 EXTCODESIZE ISZERO DUP1 ISZERO PUSH2 0x261F JUMPI PUSH1 0x0 DUP1 REVERT JUMPDEST POP GAS CALL ISZERO DUP1 ISZERO PUSH2 0x2633 JUMPI RETURNDATASIZE PUSH1 0x0 DUP1 RETURNDATACOPY RETURNDATASIZE PUSH1 0x0 REVERT JUMPDEST POP POP POP POP POP PUSH1 0x0 PUSH1 0x12 PUSH1 0x14 PUSH2 0x100 EXP DUP2 SLOAD DUP2 PUSH1 0xFF MUL NOT AND SWAP1 DUP4 ISZERO ISZERO MUL OR SWAP1 SSTORE POP POP JUMP JUMPDEST PUSH2 0x2661 DUP4 DUP4 DUP4 PUSH2 0x26DB JUMP JUMPDEST POP POP POP JUMP JUMPDEST PUSH1 0x0 PUSH2 0x26A8 DUP4 DUP4 PUSH1 0x40 MLOAD DUP1 PUSH1 0x40 ADD PUSH1 0x40 MSTORE DUP1 PUSH1 0x1A DUP2 MSTORE PUSH1 0x20 ADD PUSH32 0x536166654D6174683A206469766973696F6E206279207A65726F000000000000 DUP2 MSTORE POP PUSH2 0x28A6 JUMP JUMPDEST SWAP1 POP SWAP3 SWAP2 POP POP JUMP JUMPDEST PUSH1 0x0 DUP1 PUSH1 0x0 PUSH2 0x26BD PUSH2 0x2909 JUMP JUMPDEST SWAP2 POP SWAP2 POP PUSH2 0x26D4 DUP2 DUP4 PUSH2 0x2666 SWAP1 SWAP2 SWAP1 PUSH4 0xFFFFFFFF AND JUMP JUMPDEST SWAP3 POP POP POP SWAP1 JUMP JUMPDEST PUSH1 0x0 DUP1 PUSH1 0x0 DUP1 PUSH1 0x0 DUP1 PUSH2 0x26ED DUP8 PUSH2 0x2968 JUMP JUMPDEST SWAP6 POP SWAP6 POP SWAP6 POP SWAP6 POP SWAP6 POP SWAP6 POP PUSH2 0x274B DUP7 PUSH1 0x2 PUSH1 0x0 DUP13 PUSH20 0xFFFFFFFFFFFFFFFFFFFFFFFFFFFFFFFFFFFFFFFF AND PUSH20 0xFFFFFFFFFFFFFFFFFFFFFFFFFFFFFFFFFFFFFFFF AND DUP2 MSTORE PUSH1 0x20 ADD SWAP1 DUP2 MSTORE PUSH1 0x20 ADD PUSH1 0x0 KECCAK256 SLOAD PUSH2 0x29D0 SWAP1 SWAP2 SWAP1 PUSH4 0xFFFFFFFF AND JUMP JUMPDEST PUSH1 0x2 PUSH1 0x0 DUP12 PUSH20 0xFFFFFFFFFFFFFFFFFFFFFFFFFFFFFFFFFFFFFFFF AND PUSH20 0xFFFFFFFFFFFFFFFFFFFFFFFFFFFFFFFFFFFFFFFF AND DUP2 MSTORE PUSH1 0x20 ADD SWAP1 DUP2 MSTORE PUSH1 0x20 ADD PUSH1 0x0 KECCAK256 DUP2 SWAP1 SSTORE POP PUSH2 0x27E0 DUP6 PUSH1 0x2 PUSH1 0x0 DUP12 PUSH20 0xFFFFFFFFFFFFFFFFFFFFFFFFFFFFFFFFFFFFFFFF AND PUSH20 0xFFFFFFFFFFFFFFFFFFFFFFFFFFFFFFFFFFFFFFFF AND DUP2 MSTORE PUSH1 0x20 ADD SWAP1 DUP2 MSTORE PUSH1 0x20 ADD PUSH1 0x0 KECCAK256 SLOAD PUSH2 0x2A1A SWAP1 SWAP2 SWAP1 PUSH4 0xFFFFFFFF AND JUMP JUMPDEST PUSH1 0x2 PUSH1 0x0 DUP11 PUSH20 0xFFFFFFFFFFFFFFFFFFFFFFFFFFFFFFFFFFFFFFFF AND PUSH20 0xFFFFFFFFFFFFFFFFFFFFFFFFFFFFFFFFFFFFFFFF AND DUP2 MSTORE PUSH1 0x20 ADD SWAP1 DUP2 MSTORE PUSH1 0x20 ADD PUSH1 0x0 KECCAK256 DUP2 SWAP1 SSTORE POP PUSH2 0x282C DUP2 PUSH2 0x2A78 JUMP JUMPDEST PUSH2 0x2836 DUP5 DUP4 PUSH2 0x2B35 JUMP JUMPDEST DUP8 PUSH20 0xFFFFFFFFFFFFFFFFFFFFFFFFFFFFFFFFFFFFFFFF AND DUP10 PUSH20 0xFFFFFFFFFFFFFFFFFFFFFFFFFFFFFFFFFFFFFFFF AND PUSH32 0xDDF252AD1BE2C89B69C2B068FC378DAA952BA7F163C4A11628F55A4DF523B3EF DUP6 PUSH1 0x40 MLOAD PUSH2 0x2893 SWAP2 SWAP1 PUSH2 0x2F60 JUMP JUMPDEST PUSH1 0x40 MLOAD DUP1 SWAP2 SUB SWAP1 LOG3 POP POP POP POP POP POP POP POP POP JUMP JUMPDEST PUSH1 0x0 DUP1 DUP4 GT DUP3 SWAP1 PUSH2 0x28ED JUMPI PUSH1 0x40 MLOAD PUSH32 0x8C379A000000000000000000000000000000000000000000000000000000000 DUP2 MSTORE PUSH1 0x4 ADD PUSH2 0x28E4 SWAP2 SWAP1 PUSH2 0x2DA1 JUMP JUMPDEST PUSH1 0x40 MLOAD DUP1 SWAP2 SUB SWAP1 REVERT JUMPDEST POP PUSH1 0x0 DUP4 DUP6 PUSH2 0x28FC SWAP2 SWAP1 PUSH2 0x3B45 JUMP JUMPDEST SWAP1 POP DUP1 SWAP2 POP POP SWAP4 SWAP3 POP POP POP JUMP JUMPDEST PUSH1 0x0 DUP1 PUSH1 0x0 PUSH1 0x6 SLOAD SWAP1 POP PUSH1 0x0 PUSH8 0xDE0B6B3A7640000 SWAP1 POP PUSH2 0x293D PUSH8 0xDE0B6B3A7640000 PUSH1 0x6 SLOAD PUSH2 0x2666 SWAP1 SWAP2 SWAP1 PUSH4 0xFFFFFFFF AND JUMP JUMPDEST DUP3 LT ISZERO PUSH2 0x295B JUMPI PUSH1 0x6 SLOAD PUSH8 0xDE0B6B3A7640000 SWAP4 POP SWAP4 POP POP POP PUSH2 0x2964 JUMP JUMPDEST DUP2 DUP2 SWAP4 POP SWAP4 POP POP POP JUMPDEST SWAP1 SWAP2 JUMP JUMPDEST PUSH1 0x0 DUP1 PUSH1 0x0 DUP1 PUSH1 0x0 DUP1 PUSH1 0x0 DUP1 PUSH1 0x0 PUSH2 0x2985 DUP11 PUSH1 0xC SLOAD PUSH1 0xD SLOAD PUSH2 0x2B6F JUMP JUMPDEST SWAP3 POP SWAP3 POP SWAP3 POP PUSH1 0x0 PUSH2 0x2995 PUSH2 0x26B0 JUMP JUMPDEST SWAP1 POP PUSH1 0x0 DUP1 PUSH1 0x0 PUSH2 0x29A8 DUP15 DUP8 DUP8 DUP8 PUSH2 0x2C05 JUMP JUMPDEST SWAP3 POP SWAP3 POP SWAP3 POP DUP3 DUP3 DUP3 DUP10 DUP10 DUP10 SWAP13 POP SWAP13 POP SWAP13 POP SWAP13 POP SWAP13 POP SWAP13 POP POP POP POP POP POP POP POP SWAP2 SWAP4 SWAP6 POP SWAP2 SWAP4 SWAP6 JUMP JUMPDEST PUSH1 0x0 PUSH2 0x2A12 DUP4 DUP4 PUSH1 0x40 MLOAD DUP1 PUSH1 0x40 ADD PUSH1 0x40 MSTORE DUP1 PUSH1 0x1E DUP2 MSTORE PUSH1 0x20 ADD PUSH32 0x536166654D6174683A207375627472616374696F6E206F766572666C6F770000 DUP2 MSTORE POP PUSH2 0x2210 JUMP JUMPDEST SWAP1 POP SWAP3 SWAP2 POP POP JUMP JUMPDEST PUSH1 0x0 DUP1 DUP3 DUP5 PUSH2 0x2A29 SWAP2 SWAP1 PUSH2 0x3B76 JUMP JUMPDEST SWAP1 POP DUP4 DUP2 LT ISZERO PUSH2 0x2A6E JUMPI PUSH1 0x40 MLOAD PUSH32 0x8C379A000000000000000000000000000000000000000000000000000000000 DUP2 MSTORE PUSH1 0x4 ADD PUSH2 0x2A65 SWAP1 PUSH2 0x3C18 JUMP JUMPDEST PUSH1 0x40 MLOAD DUP1 SWAP2 SUB SWAP1 REVERT JUMPDEST DUP1 SWAP2 POP POP SWAP3 SWAP2 POP POP JUMP JUMPDEST PUSH1 0x0 PUSH2 0x2A82 PUSH2 0x26B0 JUMP JUMPDEST SWAP1 POP PUSH1 0x0 PUSH2 0x2A99 DUP3 DUP5 PUSH2 0x2C8E SWAP1 SWAP2 SWAP1 PUSH4 0xFFFFFFFF AND JUMP JUMPDEST SWAP1 POP PUSH2 0x2AED DUP2 PUSH1 0x2 PUSH1 0x0 ADDRESS PUSH20 0xFFFFFFFFFFFFFFFFFFFFFFFFFFFFFFFFFFFFFFFF AND PUSH20 0xFFFFFFFFFFFFFFFFFFFFFFFFFFFFFFFFFFFFFFFF AND DUP2 MSTORE PUSH1 0x20 ADD SWAP1 DUP2 MSTORE PUSH1 0x20 ADD PUSH1 0x0 KECCAK256 SLOAD PUSH2 0x2A1A SWAP1 SWAP2 SWAP1 PUSH4 0xFFFFFFFF AND JUMP JUMPDEST PUSH1 0x2 PUSH1 0x0 ADDRESS PUSH20 0xFFFFFFFFFFFFFFFFFFFFFFFFFFFFFFFFFFFFFFFF AND PUSH20 0xFFFFFFFFFFFFFFFFFFFFFFFFFFFFFFFFFFFFFFFF AND DUP2 MSTORE PUSH1 0x20 ADD SWAP1 DUP2 MSTORE PUSH1 0x20 ADD PUSH1 0x0 KECCAK256 DUP2 SWAP1 SSTORE POP POP POP POP JUMP JUMPDEST PUSH2 0x2B4A DUP3 PUSH1 0x6 SLOAD PUSH2 0x29D0 SWAP1 SWAP2 SWAP1 PUSH4 0xFFFFFFFF AND JUMP JUMPDEST PUSH1 0x6 DUP2 SWAP1 SSTORE POP PUSH2 0x2B65 DUP2 PUSH1 0x7 SLOAD PUSH2 0x2A1A SWAP1 SWAP2 SWAP1 PUSH4 0xFFFFFFFF AND JUMP JUMPDEST PUSH1 0x7 DUP2 SWAP1 SSTORE POP POP POP JUMP JUMPDEST PUSH1 0x0 DUP1 PUSH1 0x0 DUP1 PUSH2 0x2B9B PUSH1 0x64 PUSH2 0x2B8D DUP9 DUP11 PUSH2 0x2C8E SWAP1 SWAP2 SWAP1 PUSH4 0xFFFFFFFF AND JUMP JUMPDEST PUSH2 0x2666 SWAP1 SWAP2 SWAP1 PUSH4 0xFFFFFFFF AND JUMP JUMPDEST SWAP1 POP PUSH1 0x0 PUSH2 0x2BC5 PUSH1 0x64 PUSH2 0x2BB7 DUP9 DUP12 PUSH2 0x2C8E SWAP1 SWAP2 SWAP1 PUSH4 0xFFFFFFFF AND JUMP JUMPDEST PUSH2 0x2666 SWAP1 SWAP2 SWAP1 PUSH4 0xFFFFFFFF AND JUMP JUMPDEST SWAP1 POP PUSH1 0x0 PUSH2 0x2BEE DUP3 PUSH2 0x2BE0 DUP6 DUP13 PUSH2 0x29D0 SWAP1 SWAP2 SWAP1 PUSH4 0xFFFFFFFF AND JUMP JUMPDEST PUSH2 0x29D0 SWAP1 SWAP2 SWAP1 PUSH4 0xFFFFFFFF AND JUMP JUMPDEST SWAP1 POP DUP1 DUP4 DUP4 SWAP6 POP SWAP6 POP SWAP6 POP POP POP POP SWAP4 POP SWAP4 POP SWAP4 SWAP1 POP JUMP JUMPDEST PUSH1 0x0 DUP1 PUSH1 0x0 DUP1 PUSH2 0x2C1E DUP6 DUP10 PUSH2 0x2C8E SWAP1 SWAP2 SWAP1 PUSH4 0xFFFFFFFF AND JUMP JUMPDEST SWAP1 POP PUSH1 0x0 PUSH2 0x2C35 DUP7 DUP10 PUSH2 0x2C8E SWAP1 SWAP2 SWAP1 PUSH4 0xFFFFFFFF AND JUMP JUMPDEST SWAP1 POP PUSH1 0x0 PUSH2 0x2C4C DUP8 DUP10 PUSH2 0x2C8E SWAP1 SWAP2 SWAP1 PUSH4 0xFFFFFFFF AND JUMP JUMPDEST SWAP1 POP PUSH1 0x0 PUSH2 0x2C75 DUP3 PUSH2 0x2C67 DUP6 DUP8 PUSH2 0x29D0 SWAP1 SWAP2 SWAP1 PUSH4 0xFFFFFFFF AND JUMP JUMPDEST PUSH2 0x29D0 SWAP1 SWAP2 SWAP1 PUSH4 0xFFFFFFFF AND JUMP JUMPDEST SWAP1 POP DUP4 DUP2 DUP5 SWAP7 POP SWAP7 POP SWAP7 POP POP POP POP POP SWAP5 POP SWAP5 POP SWAP5 SWAP2 POP POP JUMP JUMPDEST PUSH1 0x0 DUP1 DUP4 SUB PUSH2 0x2CA0 JUMPI PUSH1 0x0 SWAP1 POP PUSH2 0x2D02 JUMP JUMPDEST PUSH1 0x0 DUP3 DUP5 PUSH2 0x2CAE SWAP2 SWAP1 PUSH2 0x3C38 JUMP JUMPDEST SWAP1 POP DUP3 DUP5 DUP3 PUSH2 0x2CBD SWAP2 SWAP1 PUSH2 0x3B45 JUMP JUMPDEST EQ PUSH2 0x2CFD JUMPI PUSH1 0x40 MLOAD PUSH32 0x8C379A000000000000000000000000000000000000000000000000000000000 DUP2 MSTORE PUSH1 0x4 ADD PUSH2 0x2CF4 SWAP1 PUSH2 0x3D04 JUMP JUMPDEST PUSH1 0x40 MLOAD DUP1 SWAP2 SUB SWAP1 REVERT JUMPDEST DUP1 SWAP2 POP POP JUMPDEST SWAP3 SWAP2 POP POP JUMP JUMPDEST PUSH1 0x0 DUP2 MLOAD SWAP1 POP SWAP2 SWAP1 POP JUMP JUMPDEST PUSH1 0x0 DUP3 DUP3 MSTORE PUSH1 0x20 DUP3 ADD SWAP1 POP SWAP3 SWAP2 POP POP JUMP JUMPDEST PUSH1 0x0 JUMPDEST DUP4 DUP2 LT ISZERO PUSH2 0x2D42 JUMPI DUP1 DUP3 ADD MLOAD DUP2 DUP5 ADD MSTORE PUSH1 0x20 DUP2 ADD SWAP1 POP PUSH2 0x2D27 JUMP JUMPDEST DUP4 DUP2 GT ISZERO PUSH2 0x2D51 JUMPI PUSH1 0x0 DUP5 DUP5 ADD MSTORE JUMPDEST POP POP POP POP JUMP JUMPDEST PUSH1 0x0 PUSH1 0x1F NOT PUSH1 0x1F DUP4 ADD AND SWAP1 POP SWAP2 SWAP1 POP JUMP JUMPDEST PUSH1 0x0 PUSH2 0x2D73 DUP3 PUSH2 0x2D08 JUMP JUMPDEST PUSH2 0x2D7D DUP2 DUP6 PUSH2 0x2D13 JUMP JUMPDEST SWAP4 POP PUSH2 0x2D8D DUP2 DUP6 PUSH1 0x20 DUP7 ADD PUSH2 0x2D24 JUMP JUMPDEST PUSH2 0x2D96 DUP2 PUSH2 0x2D57 JUMP JUMPDEST DUP5 ADD SWAP2 POP POP SWAP3 SWAP2 POP POP JUMP JUMPDEST PUSH1 0x0 PUSH1 0x20 DUP3 ADD SWAP1 POP DUP2 DUP2 SUB PUSH1 0x0 DUP4 ADD MSTORE PUSH2 0x2DBB DUP2 DUP5 PUSH2 0x2D68 JUMP JUMPDEST SWAP1 POP SWAP3 SWAP2 POP POP JUMP JUMPDEST PUSH1 0x0 DUP1 REVERT JUMPDEST PUSH1 0x0 DUP1 REVERT JUMPDEST PUSH1 0x0 PUSH20 0xFFFFFFFFFFFFFFFFFFFFFFFFFFFFFFFFFFFFFFFF DUP3 AND SWAP1 POP SWAP2 SWAP1 POP JUMP JUMPDEST PUSH1 0x0 PUSH2 0x2DF8 DUP3 PUSH2 0x2DCD JUMP JUMPDEST SWAP1 POP SWAP2 SWAP1 POP JUMP JUMPDEST PUSH2 0x2E08 DUP2 PUSH2 0x2DED JUMP JUMPDEST DUP2 EQ PUSH2 0x2E13 JUMPI PUSH1 0x0 DUP1 REVERT JUMPDEST POP JUMP JUMPDEST PUSH1 0x0 DUP2 CALLDATALOAD SWAP1 POP PUSH2 0x2E25 DUP2 PUSH2 0x2DFF JUMP JUMPDEST SWAP3 SWAP2 POP POP JUMP JUMPDEST PUSH1 0x0 DUP2 SWAP1 POP SWAP2 SWAP1 POP JUMP JUMPDEST PUSH2 0x2E3E DUP2 PUSH2 0x2E2B JUMP JUMPDEST DUP2 EQ PUSH2 0x2E49 JUMPI PUSH1 0x0 DUP1 REVERT JUMPDEST POP JUMP JUMPDEST PUSH1 0x0 DUP2 CALLDATALOAD SWAP1 POP PUSH2 0x2E5B DUP2 PUSH2 0x2E35 JUMP JUMPDEST SWAP3 SWAP2 POP POP JUMP JUMPDEST PUSH1 0x0 DUP1 PUSH1 0x40 DUP4 DUP6 SUB SLT ISZERO PUSH2 0x2E78 JUMPI PUSH2 0x2E77 PUSH2 0x2DC3 JUMP JUMPDEST JUMPDEST PUSH1 0x0 PUSH2 0x2E86 DUP6 DUP3 DUP7 ADD PUSH2 0x2E16 JUMP JUMPDEST SWAP3 POP POP PUSH1 0x20 PUSH2 0x2E97 DUP6 DUP3 DUP7 ADD PUSH2 0x2E4C JUMP JUMPDEST SWAP2 POP POP SWAP3 POP SWAP3 SWAP1 POP JUMP JUMPDEST PUSH1 0x0 DUP2 ISZERO ISZERO SWAP1 POP SWAP2 SWAP1 POP JUMP JUMPDEST PUSH2 0x2EB6 DUP2 PUSH2 0x2EA1 JUMP JUMPDEST DUP3 MSTORE POP POP JUMP JUMPDEST PUSH1 0x0 PUSH1 0x20 DUP3 ADD SWAP1 POP PUSH2 0x2ED1 PUSH1 0x0 DUP4 ADD DUP5 PUSH2 0x2EAD JUMP JUMPDEST SWAP3 SWAP2 POP POP JUMP JUMPDEST PUSH1 0x0 DUP2 SWAP1 POP SWAP2 SWAP1 POP JUMP JUMPDEST PUSH1 0x0 PUSH2 0x2EFC PUSH2 0x2EF7 PUSH2 0x2EF2 DUP5 PUSH2 0x2DCD JUMP JUMPDEST PUSH2 0x2ED7 JUMP JUMPDEST PUSH2 0x2DCD JUMP JUMPDEST SWAP1 POP SWAP2 SWAP1 POP JUMP JUMPDEST PUSH1 0x0 PUSH2 0x2F0E DUP3 PUSH2 0x2EE1 JUMP JUMPDEST SWAP1 POP SWAP2 SWAP1 POP JUMP JUMPDEST PUSH1 0x0 PUSH2 0x2F20 DUP3 PUSH2 0x2F03 JUMP JUMPDEST SWAP1 POP SWAP2 SWAP1 POP JUMP JUMPDEST PUSH2 0x2F30 DUP2 PUSH2 0x2F15 JUMP JUMPDEST DUP3 MSTORE POP POP JUMP JUMPDEST PUSH1 0x0 PUSH1 0x20 DUP3 ADD SWAP1 POP PUSH2 0x2F4B PUSH1 0x0 DUP4 ADD DUP5 PUSH2 0x2F27 JUMP JUMPDEST SWAP3 SWAP2 POP POP JUMP JUMPDEST PUSH2 0x2F5A DUP2 PUSH2 0x2E2B JUMP JUMPDEST DUP3 MSTORE POP POP JUMP JUMPDEST PUSH1 0x0 PUSH1 0x20 DUP3 ADD SWAP1 POP PUSH2 0x2F75 PUSH1 0x0 DUP4 ADD DUP5 PUSH2 0x2F51 JUMP JUMPDEST SWAP3 SWAP2 POP POP JUMP JUMPDEST PUSH1 0x0 DUP1 PUSH1 0x0 PUSH1 0x60 DUP5 DUP7 SUB SLT ISZERO PUSH2 0x2F94 JUMPI PUSH2 0x2F93 PUSH2 0x2DC3 JUMP JUMPDEST JUMPDEST PUSH1 0x0 PUSH2 0x2FA2 DUP7 DUP3 DUP8 ADD PUSH2 0x2E16 JUMP JUMPDEST SWAP4 POP POP PUSH1 0x20 PUSH2 0x2FB3 DUP7 DUP3 DUP8 ADD PUSH2 0x2E16 JUMP JUMPDEST SWAP3 POP POP PUSH1 0x40 PUSH2 0x2FC4 DUP7 DUP3 DUP8 ADD PUSH2 0x2E4C JUMP JUMPDEST SWAP2 POP POP SWAP3 POP SWAP3 POP SWAP3 JUMP JUMPDEST PUSH2 0x2FD7 DUP2 PUSH2 0x2DED JUMP JUMPDEST DUP3 MSTORE POP POP JUMP JUMPDEST PUSH1 0x0 PUSH1 0x20 DUP3 ADD SWAP1 POP PUSH2 0x2FF2 PUSH1 0x0 DUP4 ADD DUP5 PUSH2 0x2FCE JUMP JUMPDEST SWAP3 SWAP2 POP POP JUMP JUMPDEST PUSH1 0x0 PUSH1 0xFF DUP3 AND SWAP1 POP SWAP2 SWAP1 POP JUMP JUMPDEST PUSH2 0x300E DUP2 PUSH2 0x2FF8 JUMP JUMPDEST DUP3 MSTORE POP POP JUMP JUMPDEST PUSH1 0x0 PUSH1 0x20 DUP3 ADD SWAP1 POP PUSH2 0x3029 PUSH1 0x0 DUP4 ADD DUP5 PUSH2 0x3005 JUMP JUMPDEST SWAP3 SWAP2 POP POP JUMP JUMPDEST PUSH1 0x0 PUSH2 0x303A DUP3 PUSH2 0x2F03 JUMP JUMPDEST SWAP1 POP SWAP2 SWAP1 POP JUMP JUMPDEST PUSH2 0x304A DUP2 PUSH2 0x302F JUMP JUMPDEST DUP3 MSTORE POP POP JUMP JUMPDEST PUSH1 0x0 PUSH1 0x20 DUP3 ADD SWAP1 POP PUSH2 0x3065 PUSH1 0x0 DUP4 ADD DUP5 PUSH2 0x3041 JUMP JUMPDEST SWAP3 SWAP2 POP POP JUMP JUMPDEST PUSH2 0x3074 DUP2 PUSH2 0x2EA1 JUMP JUMPDEST DUP2 EQ PUSH2 0x307F JUMPI PUSH1 0x0 DUP1 REVERT JUMPDEST POP JUMP JUMPDEST PUSH1 0x0 DUP2 CALLDATALOAD SWAP1 POP PUSH2 0x3091 DUP2 PUSH2 0x306B JUMP JUMPDEST SWAP3 SWAP2 POP POP JUMP JUMPDEST PUSH1 0x0 PUSH1 0x20 DUP3 DUP5 SUB SLT ISZERO PUSH2 0x30AD JUMPI PUSH2 0x30AC PUSH2 0x2DC3 JUMP JUMPDEST JUMPDEST PUSH1 0x0 PUSH2 0x30BB DUP5 DUP3 DUP6 ADD PUSH2 0x3082 JUMP JUMPDEST SWAP2 POP POP SWAP3 SWAP2 POP POP JUMP JUMPDEST PUSH1 0x0 PUSH1 0x20 DUP3 DUP5 SUB SLT ISZERO PUSH2 0x30DA JUMPI PUSH2 0x30D9 PUSH2 0x2DC3 JUMP JUMPDEST JUMPDEST PUSH1 0x0 PUSH2 0x30E8 DUP5 DUP3 DUP6 ADD PUSH2 0x2E16 JUMP JUMPDEST SWAP2 POP POP SWAP3 SWAP2 POP POP JUMP JUMPDEST PUSH1 0x0 PUSH2 0x30FC DUP3 PUSH2 0x2DCD JUMP JUMPDEST SWAP1 POP SWAP2 SWAP1 POP JUMP JUMPDEST PUSH2 0x310C DUP2 PUSH2 0x30F1 JUMP JUMPDEST DUP2 EQ PUSH2 0x3117 JUMPI PUSH1 0x0 DUP1 REVERT JUMPDEST POP JUMP JUMPDEST PUSH1 0x0 DUP2 CALLDATALOAD SWAP1 POP PUSH2 0x3129 DUP2 PUSH2 0x3103 JUMP JUMPDEST SWAP3 SWAP2 POP POP JUMP JUMPDEST PUSH1 0x0 PUSH1 0x20 DUP3 DUP5 SUB SLT ISZERO PUSH2 0x3145 JUMPI PUSH2 0x3144 PUSH2 0x2DC3 JUMP JUMPDEST JUMPDEST PUSH1 0x0 PUSH2 0x3153 DUP5 DUP3 DUP6 ADD PUSH2 0x311A JUMP JUMPDEST SWAP2 POP POP SWAP3 SWAP2 POP POP JUMP JUMPDEST PUSH1 0x0 DUP1 PUSH1 0x0 DUP1 PUSH1 0x80 DUP6 DUP8 SUB SLT ISZERO PUSH2 0x3176 JUMPI PUSH2 0x3175 PUSH2 0x2DC3 JUMP JUMPDEST JUMPDEST PUSH1 0x0 PUSH2 0x3184 DUP8 DUP3 DUP9 ADD PUSH2 0x2E4C JUMP JUMPDEST SWAP5 POP POP PUSH1 0x20 PUSH2 0x3195 DUP8 DUP3 DUP9 ADD PUSH2 0x2E4C JUMP JUMPDEST SWAP4 POP POP PUSH1 0x40 PUSH2 0x31A6 DUP8 DUP3 DUP9 ADD PUSH2 0x2E4C JUMP JUMPDEST SWAP3 POP POP PUSH1 0x60 PUSH2 0x31B7 DUP8 DUP3 DUP9 ADD PUSH2 0x2E4C JUMP JUMPDEST SWAP2 POP POP SWAP3 SWAP6 SWAP2 SWAP5 POP SWAP3 POP JUMP JUMPDEST PUSH1 0x0 DUP1 REVERT JUMPDEST PUSH1 0x0 DUP1 REVERT JUMPDEST PUSH1 0x0 DUP1 REVERT JUMPDEST PUSH1 0x0 DUP1 DUP4 PUSH1 0x1F DUP5 ADD SLT PUSH2 0x31E8 JUMPI PUSH2 0x31E7 PUSH2 0x31C3 JUMP JUMPDEST JUMPDEST DUP3 CALLDATALOAD SWAP1 POP PUSH8 0xFFFFFFFFFFFFFFFF DUP2 GT ISZERO PUSH2 0x3205 JUMPI PUSH2 0x3204 PUSH2 0x31C8 JUMP JUMPDEST JUMPDEST PUSH1 0x20 DUP4 ADD SWAP2 POP DUP4 PUSH1 0x20 DUP3 MUL DUP4 ADD GT ISZERO PUSH2 0x3221 JUMPI PUSH2 0x3220 PUSH2 0x31CD JUMP JUMPDEST JUMPDEST SWAP3 POP SWAP3 SWAP1 POP JUMP JUMPDEST PUSH1 0x0 DUP1 PUSH1 0x0 PUSH1 0x40 DUP5 DUP7 SUB SLT ISZERO PUSH2 0x3241 JUMPI PUSH2 0x3240 PUSH2 0x2DC3 JUMP JUMPDEST JUMPDEST PUSH1 0x0 DUP5 ADD CALLDATALOAD PUSH8 0xFFFFFFFFFFFFFFFF DUP2 GT ISZERO PUSH2 0x325F JUMPI PUSH2 0x325E PUSH2 0x2DC8 JUMP JUMPDEST JUMPDEST PUSH2 0x326B DUP7 DUP3 DUP8 ADD PUSH2 0x31D2 JUMP JUMPDEST SWAP4 POP SWAP4 POP POP PUSH1 0x20 PUSH2 0x327E DUP7 DUP3 DUP8 ADD PUSH2 0x3082 JUMP JUMPDEST SWAP2 POP POP SWAP3 POP SWAP3 POP SWAP3 JUMP JUMPDEST PUSH1 0x0 DUP1 PUSH1 0x40 DUP4 DUP6 SUB SLT ISZERO PUSH2 0x329F JUMPI PUSH2 0x329E PUSH2 0x2DC3 JUMP JUMPDEST JUMPDEST PUSH1 0x0 PUSH2 0x32AD DUP6 DUP3 DUP7 ADD PUSH2 0x2E16 JUMP JUMPDEST SWAP3 POP POP PUSH1 0x20 PUSH2 0x32BE DUP6 DUP3 DUP7 ADD PUSH2 0x2E16 JUMP JUMPDEST SWAP2 POP POP SWAP3 POP SWAP3 SWAP1 POP JUMP JUMPDEST PUSH32 0x43616C6C6572206973206E6F7420746865206F776E6572000000000000000000 PUSH1 0x0 DUP3 ADD MSTORE POP JUMP JUMPDEST PUSH1 0x0 PUSH2 0x32FE PUSH1 0x17 DUP4 PUSH2 0x2D13 JUMP JUMPDEST SWAP2 POP PUSH2 0x3309 DUP3 PUSH2 0x32C8 JUMP JUMPDEST PUSH1 0x20 DUP3 ADD SWAP1 POP SWAP2 SWAP1 POP JUMP JUMPDEST PUSH1 0x0 PUSH1 0x20 DUP3 ADD SWAP1 POP DUP2 DUP2 SUB PUSH1 0x0 DUP4 ADD MSTORE PUSH2 0x332D DUP2 PUSH2 0x32F1 JUMP JUMPDEST SWAP1 POP SWAP2 SWAP1 POP JUMP JUMPDEST PUSH1 0x0 DUP2 MLOAD SWAP1 POP PUSH2 0x3343 DUP2 PUSH2 0x2DFF JUMP JUMPDEST SWAP3 SWAP2 POP POP JUMP JUMPDEST PUSH1 0x0 PUSH1 0x20 DUP3 DUP5 SUB SLT ISZERO PUSH2 0x335F JUMPI PUSH2 0x335E PUSH2 0x2DC3 JUMP JUMPDEST JUMPDEST PUSH1 0x0 PUSH2 0x336D DUP5 DUP3 DUP6 ADD PUSH2 0x3334 JUMP JUMPDEST SWAP2 POP POP SWAP3 SWAP2 POP POP JUMP JUMPDEST PUSH1 0x0 PUSH1 0x40 DUP3 ADD SWAP1 POP PUSH2 0x338B PUSH1 0x0 DUP4 ADD DUP6 PUSH2 0x2FCE JUMP JUMPDEST PUSH2 0x3398 PUSH1 0x20 DUP4 ADD DUP5 PUSH2 0x2FCE JUMP JUMPDEST SWAP4 SWAP3 POP POP POP JUMP JUMPDEST PUSH32 0x43616C6C6572206973206E6F7420746865206465760000000000000000000000 PUSH1 0x0 DUP3 ADD MSTORE POP JUMP JUMPDEST PUSH1 0x0 PUSH2 0x33D5 PUSH1 0x15 DUP4 PUSH2 0x2D13 JUMP JUMPDEST SWAP2 POP PUSH2 0x33E0 DUP3 PUSH2 0x339F JUMP JUMPDEST PUSH1 0x20 DUP3 ADD SWAP1 POP SWAP2 SWAP1 POP JUMP JUMPDEST PUSH1 0x0 PUSH1 0x20 DUP3 ADD SWAP1 POP DUP2 DUP2 SUB PUSH1 0x0 DUP4 ADD MSTORE PUSH2 0x3404 DUP2 PUSH2 0x33C8 JUMP JUMPDEST SWAP1 POP SWAP2 SWAP1 POP JUMP JUMPDEST PUSH32 0x52656469732063616E6E6F74206265206D6F7265207468616E2031302E000000 PUSH1 0x0 DUP3 ADD MSTORE POP JUMP JUMPDEST PUSH1 0x0 PUSH2 0x3441 PUSH1 0x1D DUP4 PUSH2 0x2D13 JUMP JUMPDEST SWAP2 POP PUSH2 0x344C DUP3 PUSH2 0x340B JUMP JUMPDEST PUSH1 0x20 DUP3 ADD SWAP1 POP SWAP2 SWAP1 POP JUMP JUMPDEST PUSH1 0x0 PUSH1 0x20 DUP3 ADD SWAP1 POP DUP2 DUP2 SUB PUSH1 0x0 DUP4 ADD MSTORE PUSH2 0x3470 DUP2 PUSH2 0x3434 JUMP JUMPDEST SWAP1 POP SWAP2 SWAP1 POP JUMP JUMPDEST PUSH32 0x5461782063616E6E6F74206265206D6F7265207468616E20362E000000000000 PUSH1 0x0 DUP3 ADD MSTORE POP JUMP JUMPDEST PUSH1 0x0 PUSH2 0x34AD PUSH1 0x1A DUP4 PUSH2 0x2D13 JUMP JUMPDEST SWAP2 POP PUSH2 0x34B8 DUP3 PUSH2 0x3477 JUMP JUMPDEST PUSH1 0x20 DUP3 ADD SWAP1 POP SWAP2 SWAP1 POP JUMP JUMPDEST PUSH1 0x0 PUSH1 0x20 DUP3 ADD SWAP1 POP DUP2 DUP2 SUB PUSH1 0x0 DUP4 ADD MSTORE PUSH2 0x34DC DUP2 PUSH2 0x34A0 JUMP JUMPDEST SWAP1 POP SWAP2 SWAP1 POP JUMP JUMPDEST PUSH32 0x4E487B7100000000000000000000000000000000000000000000000000000000 PUSH1 0x0 MSTORE PUSH1 0x32 PUSH1 0x4 MSTORE PUSH1 0x24 PUSH1 0x0 REVERT JUMPDEST PUSH32 0x4E487B7100000000000000000000000000000000000000000000000000000000 PUSH1 0x0 MSTORE PUSH1 0x11 PUSH1 0x4 MSTORE PUSH1 0x24 PUSH1 0x0 REVERT JUMPDEST PUSH1 0x0 PUSH2 0x354C DUP3 PUSH2 0x2E2B JUMP JUMPDEST SWAP2 POP PUSH32 0xFFFFFFFFFFFFFFFFFFFFFFFFFFFFFFFFFFFFFFFFFFFFFFFFFFFFFFFFFFFFFFFF DUP3 SUB PUSH2 0x357E JUMPI PUSH2 0x357D PUSH2 0x3512 JUMP JUMPDEST JUMPDEST PUSH1 0x1 DUP3 ADD SWAP1 POP SWAP2 SWAP1 POP JUMP JUMPDEST PUSH1 0x0 PUSH1 0x40 DUP3 ADD SWAP1 POP PUSH2 0x359E PUSH1 0x0 DUP4 ADD DUP6 PUSH2 0x2FCE JUMP JUMPDEST PUSH2 0x35AB PUSH1 0x20 DUP4 ADD DUP5 PUSH2 0x2F51 JUMP JUMPDEST SWAP4 SWAP3 POP POP POP JUMP JUMPDEST PUSH1 0x0 DUP2 MLOAD SWAP1 POP PUSH2 0x35C1 DUP2 PUSH2 0x306B JUMP JUMPDEST SWAP3 SWAP2 POP POP JUMP JUMPDEST PUSH1 0x0 PUSH1 0x20 DUP3 DUP5 SUB SLT ISZERO PUSH2 0x35DD JUMPI PUSH2 0x35DC PUSH2 0x2DC3 JUMP JUMPDEST JUMPDEST PUSH1 0x0 PUSH2 0x35EB DUP5 DUP3 DUP6 ADD PUSH2 0x35B2 JUMP JUMPDEST SWAP2 POP POP SWAP3 SWAP2 POP POP JUMP JUMPDEST PUSH32 0x45524332303A20617070726F76652066726F6D20746865207A65726F20616464 PUSH1 0x0 DUP3 ADD MSTORE PUSH32 0x7265737300000000000000000000000000000000000000000000000000000000 PUSH1 0x20 DUP3 ADD MSTORE POP JUMP JUMPDEST PUSH1 0x0 PUSH2 0x3650 PUSH1 0x24 DUP4 PUSH2 0x2D13 JUMP JUMPDEST SWAP2 POP PUSH2 0x365B DUP3 PUSH2 0x35F4 JUMP JUMPDEST PUSH1 0x40 DUP3 ADD SWAP1 POP SWAP2 SWAP1 POP JUMP JUMPDEST PUSH1 0x0 PUSH1 0x20 DUP3 ADD SWAP1 POP DUP2 DUP2 SUB PUSH1 0x0 DUP4 ADD MSTORE PUSH2 0x367F DUP2 PUSH2 0x3643 JUMP JUMPDEST SWAP1 POP SWAP2 SWAP1 POP JUMP JUMPDEST PUSH32 0x45524332303A20617070726F766520746F20746865207A65726F206164647265 PUSH1 0x0 DUP3 ADD MSTORE PUSH32 0x7373000000000000000000000000000000000000000000000000000000000000 PUSH1 0x20 DUP3 ADD MSTORE POP JUMP JUMPDEST PUSH1 0x0 PUSH2 0x36E2 PUSH1 0x22 DUP4 PUSH2 0x2D13 JUMP JUMPDEST SWAP2 POP PUSH2 0x36ED DUP3 PUSH2 0x3686 JUMP JUMPDEST PUSH1 0x40 DUP3 ADD SWAP1 POP SWAP2 SWAP1 POP JUMP JUMPDEST PUSH1 0x0 PUSH1 0x20 DUP3 ADD SWAP1 POP DUP2 DUP2 SUB PUSH1 0x0 DUP4 ADD MSTORE PUSH2 0x3711 DUP2 PUSH2 0x36D5 JUMP JUMPDEST SWAP1 POP SWAP2 SWAP1 POP JUMP JUMPDEST PUSH32 0x45524332303A207472616E736665722066726F6D20746865207A65726F206164 PUSH1 0x0 DUP3 ADD MSTORE PUSH32 0x6472657373000000000000000000000000000000000000000000000000000000 PUSH1 0x20 DUP3 ADD MSTORE POP JUMP JUMPDEST PUSH1 0x0 PUSH2 0x3774 PUSH1 0x25 DUP4 PUSH2 0x2D13 JUMP JUMPDEST SWAP2 POP PUSH2 0x377F DUP3 PUSH2 0x3718 JUMP JUMPDEST PUSH1 0x40 DUP3 ADD SWAP1 POP SWAP2 SWAP1 POP JUMP JUMPDEST PUSH1 0x0 PUSH1 0x20 DUP3 ADD SWAP1 POP DUP2 DUP2 SUB PUSH1 0x0 DUP4 ADD MSTORE PUSH2 0x37A3 DUP2 PUSH2 0x3767 JUMP JUMPDEST SWAP1 POP SWAP2 SWAP1 POP JUMP JUMPDEST PUSH32 0x45524332303A207472616E7366657220746F20746865207A65726F2061646472 PUSH1 0x0 DUP3 ADD MSTORE PUSH32 0x6573730000000000000000000000000000000000000000000000000000000000 PUSH1 0x20 DUP3 ADD MSTORE POP JUMP JUMPDEST PUSH1 0x0 PUSH2 0x3806 PUSH1 0x23 DUP4 PUSH2 0x2D13 JUMP JUMPDEST SWAP2 POP PUSH2 0x3811 DUP3 PUSH2 0x37AA JUMP JUMPDEST PUSH1 0x40 DUP3 ADD SWAP1 POP SWAP2 SWAP1 POP JUMP JUMPDEST PUSH1 0x0 PUSH1 0x20 DUP3 ADD SWAP1 POP DUP2 DUP2 SUB PUSH1 0x0 DUP4 ADD MSTORE PUSH2 0x3835 DUP2 PUSH2 0x37F9 JUMP JUMPDEST SWAP1 POP SWAP2 SWAP1 POP JUMP JUMPDEST PUSH32 0x5472616E7366657220616D6F756E74206D757374206265206772656174657220 PUSH1 0x0 DUP3 ADD MSTORE PUSH32 0x7468616E207A65726F0000000000000000000000000000000000000000000000 PUSH1 0x20 DUP3 ADD MSTORE POP JUMP JUMPDEST PUSH1 0x0 PUSH2 0x3898 PUSH1 0x29 DUP4 PUSH2 0x2D13 JUMP JUMPDEST SWAP2 POP PUSH2 0x38A3 DUP3 PUSH2 0x383C JUMP JUMPDEST PUSH1 0x40 DUP3 ADD SWAP1 POP SWAP2 SWAP1 POP JUMP JUMPDEST PUSH1 0x0 PUSH1 0x20 DUP3 ADD SWAP1 POP DUP2 DUP2 SUB PUSH1 0x0 DUP4 ADD MSTORE PUSH2 0x38C7 DUP2 PUSH2 0x388B JUMP JUMPDEST SWAP1 POP SWAP2 SWAP1 POP JUMP JUMPDEST PUSH1 0x0 PUSH2 0x38D9 DUP3 PUSH2 0x2E2B JUMP JUMPDEST SWAP2 POP PUSH2 0x38E4 DUP4 PUSH2 0x2E2B JUMP JUMPDEST SWAP3 POP DUP3 DUP3 LT ISZERO PUSH2 0x38F7 JUMPI PUSH2 0x38F6 PUSH2 0x3512 JUMP JUMPDEST JUMPDEST DUP3 DUP3 SUB SWAP1 POP SWAP3 SWAP2 POP POP JUMP JUMPDEST PUSH32 0x416D6F756E74206D757374206265206C657373207468616E20746F74616C2072 PUSH1 0x0 DUP3 ADD MSTORE PUSH32 0x65666C656374696F6E7300000000000000000000000000000000000000000000 PUSH1 0x20 DUP3 ADD MSTORE POP JUMP JUMPDEST PUSH1 0x0 PUSH2 0x395E PUSH1 0x2A DUP4 PUSH2 0x2D13 JUMP JUMPDEST SWAP2 POP PUSH2 0x3969 DUP3 PUSH2 0x3902 JUMP JUMPDEST PUSH1 0x40 DUP3 ADD SWAP1 POP SWAP2 SWAP1 POP JUMP JUMPDEST PUSH1 0x0 PUSH1 0x20 DUP3 ADD SWAP1 POP DUP2 DUP2 SUB PUSH1 0x0 DUP4 ADD MSTORE PUSH2 0x398D DUP2 PUSH2 0x3951 JUMP JUMPDEST SWAP1 POP SWAP2 SWAP1 POP JUMP JUMPDEST PUSH32 0x4E487B7100000000000000000000000000000000000000000000000000000000 PUSH1 0x0 MSTORE PUSH1 0x41 PUSH1 0x4 MSTORE PUSH1 0x24 PUSH1 0x0 REVERT JUMPDEST PUSH1 0x0 DUP2 SWAP1 POP SWAP2 SWAP1 POP JUMP JUMPDEST PUSH1 0x0 PUSH2 0x39E8 PUSH2 0x39E3 PUSH2 0x39DE DUP5 PUSH2 0x39C3 JUMP JUMPDEST PUSH2 0x2ED7 JUMP JUMPDEST PUSH2 0x2E2B JUMP JUMPDEST SWAP1 POP SWAP2 SWAP1 POP JUMP JUMPDEST PUSH2 0x39F8 DUP2 PUSH2 0x39CD JUMP JUMPDEST DUP3 MSTORE POP POP JUMP JUMPDEST PUSH1 0x0 DUP2 MLOAD SWAP1 POP SWAP2 SWAP1 POP JUMP JUMPDEST PUSH1 0x0 DUP3 DUP3 MSTORE PUSH1 0x20 DUP3 ADD SWAP1 POP SWAP3 SWAP2 POP POP JUMP JUMPDEST PUSH1 0x0 DUP2 SWAP1 POP PUSH1 0x20 DUP3 ADD SWAP1 POP SWAP2 SWAP1 POP JUMP JUMPDEST PUSH2 0x3A33 DUP2 PUSH2 0x2DED JUMP JUMPDEST DUP3 MSTORE POP POP JUMP JUMPDEST PUSH1 0x0 PUSH2 0x3A45 DUP4 DUP4 PUSH2 0x3A2A JUMP JUMPDEST PUSH1 0x20 DUP4 ADD SWAP1 POP SWAP3 SWAP2 POP POP JUMP JUMPDEST PUSH1 0x0 PUSH1 0x20 DUP3 ADD SWAP1 POP SWAP2 SWAP1 POP JUMP JUMPDEST PUSH1 0x0 PUSH2 0x3A69 DUP3 PUSH2 0x39FE JUMP JUMPDEST PUSH2 0x3A73 DUP2 DUP6 PUSH2 0x3A09 JUMP JUMPDEST SWAP4 POP PUSH2 0x3A7E DUP4 PUSH2 0x3A1A JUMP JUMPDEST DUP1 PUSH1 0x0 JUMPDEST DUP4 DUP2 LT ISZERO PUSH2 0x3AAF JUMPI DUP2 MLOAD PUSH2 0x3A96 DUP9 DUP3 PUSH2 0x3A39 JUMP JUMPDEST SWAP8 POP PUSH2 0x3AA1 DUP4 PUSH2 0x3A51 JUMP JUMPDEST SWAP3 POP POP PUSH1 0x1 DUP2 ADD SWAP1 POP PUSH2 0x3A82 JUMP JUMPDEST POP DUP6 SWAP4 POP POP POP POP SWAP3 SWAP2 POP POP JUMP JUMPDEST PUSH1 0x0 PUSH1 0xA0 DUP3 ADD SWAP1 POP PUSH2 0x3AD1 PUSH1 0x0 DUP4 ADD DUP9 PUSH2 0x2F51 JUMP JUMPDEST PUSH2 0x3ADE PUSH1 0x20 DUP4 ADD DUP8 PUSH2 0x39EF JUMP JUMPDEST DUP2 DUP2 SUB PUSH1 0x40 DUP4 ADD MSTORE PUSH2 0x3AF0 DUP2 DUP7 PUSH2 0x3A5E JUMP JUMPDEST SWAP1 POP PUSH2 0x3AFF PUSH1 0x60 DUP4 ADD DUP6 PUSH2 0x2FCE JUMP JUMPDEST PUSH2 0x3B0C PUSH1 0x80 DUP4 ADD DUP5 PUSH2 0x2F51 JUMP JUMPDEST SWAP7 SWAP6 POP POP POP POP POP POP JUMP JUMPDEST PUSH32 0x4E487B7100000000000000000000000000000000000000000000000000000000 PUSH1 0x0 MSTORE PUSH1 0x12 PUSH1 0x4 MSTORE PUSH1 0x24 PUSH1 0x0 REVERT JUMPDEST PUSH1 0x0 PUSH2 0x3B50 DUP3 PUSH2 0x2E2B JUMP JUMPDEST SWAP2 POP PUSH2 0x3B5B DUP4 PUSH2 0x2E2B JUMP JUMPDEST SWAP3 POP DUP3 PUSH2 0x3B6B JUMPI PUSH2 0x3B6A PUSH2 0x3B16 JUMP JUMPDEST JUMPDEST DUP3 DUP3 DIV SWAP1 POP SWAP3 SWAP2 POP POP JUMP JUMPDEST PUSH1 0x0 PUSH2 0x3B81 DUP3 PUSH2 0x2E2B JUMP JUMPDEST SWAP2 POP PUSH2 0x3B8C DUP4 PUSH2 0x2E2B JUMP JUMPDEST SWAP3 POP DUP3 PUSH32 0xFFFFFFFFFFFFFFFFFFFFFFFFFFFFFFFFFFFFFFFFFFFFFFFFFFFFFFFFFFFFFFFF SUB DUP3 GT ISZERO PUSH2 0x3BC1 JUMPI PUSH2 0x3BC0 PUSH2 0x3512 JUMP JUMPDEST JUMPDEST DUP3 DUP3 ADD SWAP1 POP SWAP3 SWAP2 POP POP JUMP JUMPDEST PUSH32 0x536166654D6174683A206164646974696F6E206F766572666C6F770000000000 PUSH1 0x0 DUP3 ADD MSTORE POP JUMP JUMPDEST PUSH1 0x0 PUSH2 0x3C02 PUSH1 0x1B DUP4 PUSH2 0x2D13 JUMP JUMPDEST SWAP2 POP PUSH2 0x3C0D DUP3 PUSH2 0x3BCC JUMP JUMPDEST PUSH1 0x20 DUP3 ADD SWAP1 POP SWAP2 SWAP1 POP JUMP JUMPDEST PUSH1 0x0 PUSH1 0x20 DUP3 ADD SWAP1 POP DUP2 DUP2 SUB PUSH1 0x0 DUP4 ADD MSTORE PUSH2 0x3C31 DUP2 PUSH2 0x3BF5 JUMP JUMPDEST SWAP1 POP SWAP2 SWAP1 POP JUMP JUMPDEST PUSH1 0x0 PUSH2 0x3C43 DUP3 PUSH2 0x2E2B JUMP JUMPDEST SWAP2 POP PUSH2 0x3C4E DUP4 PUSH2 0x2E2B JUMP JUMPDEST SWAP3 POP DUP2 PUSH32 0xFFFFFFFFFFFFFFFFFFFFFFFFFFFFFFFFFFFFFFFFFFFFFFFFFFFFFFFFFFFFFFFF DIV DUP4 GT DUP3 ISZERO ISZERO AND ISZERO PUSH2 0x3C87 JUMPI PUSH2 0x3C86 PUSH2 0x3512 JUMP JUMPDEST JUMPDEST DUP3 DUP3 MUL SWAP1 POP SWAP3 SWAP2 POP POP JUMP JUMPDEST PUSH32 0x536166654D6174683A206D756C7469706C69636174696F6E206F766572666C6F PUSH1 0x0 DUP3 ADD MSTORE PUSH32 0x7700000000000000000000000000000000000000000000000000000000000000 PUSH1 0x20 DUP3 ADD MSTORE POP JUMP JUMPDEST PUSH1 0x0 PUSH2 0x3CEE PUSH1 0x21 DUP4 PUSH2 0x2D13 JUMP JUMPDEST SWAP2 POP PUSH2 0x3CF9 DUP3 PUSH2 0x3C92 JUMP JUMPDEST PUSH1 0x40 DUP3 ADD SWAP1 POP SWAP2 SWAP1 POP JUMP JUMPDEST PUSH1 0x0 PUSH1 0x20 DUP3 ADD SWAP1 POP DUP2 DUP2 SUB PUSH1 0x0 DUP4 ADD MSTORE PUSH2 0x3D1D DUP2 PUSH2 0x3CE1 JUMP JUMPDEST SWAP1 POP SWAP2 SWAP1 POP JUMP INVALID GASLIMIT MSTORE NUMBER ORIGIN ADDRESS GASPRICE KECCAK256 PUSH21 0x72616E7366657220616D6F756E7420657863656564 PUSH20 0x20616C6C6F77616E6365A2646970667358221220 0xD9 SWAP12 DUP11 DELEGATECALL 0xCB SWAP11 0xC1 CALLCODE 0xA9 0xA7 SWAP2 MULMOD 0xEA CALLDATACOPY 0xA6 0xC0 DIV PUSH20 0xED3742245DBA57DC4F85964E951064736F6C6343 STOP ADDMOD 0xD STOP CALLER "
				},
				"gasEstimates": {
					"creation": {
						"codeDepositCost": "3149200",
						"executionCost": "infinite",
						"totalCost": "infinite"
					},
					"external": {
						"allowance(address,address)": "infinite",
						"approve(address,uint256)": "infinite",
						"balanceOf(address)": "infinite",
						"decimals()": "388",
						"excludeMultipleAccountsFromFees(address[],bool)": "infinite",
						"manualsend()": "infinite",
						"manualswap()": "infinite",
						"name()": "infinite",
						"owner()": "2611",
						"renounceOwnership()": "30336",
						"rescueForeignTokens(address,address,uint256)": "infinite",
						"setFee(uint256,uint256,uint256,uint256)": "infinite",
						"setNewDevAddress(address)": "infinite",
						"setNewMarketingAddress(address)": "infinite",
						"settingPair()": "infinite",
						"symbol()": "infinite",
						"testFactory()": "infinite",
						"toggleSwap(bool)": "infinite",
						"totalSupply()": "449",
						"transfer(address,uint256)": "infinite",
						"transferFrom(address,address,uint256)": "infinite",
						"transferOwnership(address)": "30712",
						"uniswapV2Factory()": "infinite",
						"uniswapV2Pair()": "2581",
						"uniswapV2Router()": "infinite"
					},
					"internal": {
						"_approve(address,address,uint256)": "infinite",
						"_getCurrentSupply()": "infinite",
						"_getRValues(uint256,uint256,uint256,uint256)": "infinite",
						"_getRate()": "infinite",
						"_getTValues(uint256,uint256,uint256)": "infinite",
						"_getValues(uint256)": "infinite",
						"_reflectFee(uint256,uint256)": "infinite",
						"_takeTeam(uint256)": "infinite",
						"_tokenTransfer(address,address,uint256)": "infinite",
						"_transfer(address,address,uint256)": "infinite",
						"_transferStandard(address,address,uint256)": "infinite",
						"sendETHToFee(uint256)": "infinite",
						"swapTokensForEth(uint256)": "infinite",
						"tokenFromReflection(uint256)": "infinite"
					}
				},
				"methodIdentifiers": {
					"allowance(address,address)": "dd62ed3e",
					"approve(address,uint256)": "095ea7b3",
					"balanceOf(address)": "70a08231",
					"decimals()": "313ce567",
					"excludeMultipleAccountsFromFees(address[],bool)": "c492f046",
					"manualsend()": "6fc3eaec",
					"manualswap()": "c3c8cd80",
					"name()": "06fdde03",
					"owner()": "8da5cb5b",
					"renounceOwnership()": "715018a6",
					"rescueForeignTokens(address,address,uint256)": "e293d316",
					"setFee(uint256,uint256,uint256,uint256)": "a2a957bb",
					"setNewDevAddress(address)": "aad5c023",
					"setNewMarketingAddress(address)": "758dbe03",
					"settingPair()": "05a272ea",
					"symbol()": "95d89b41",
					"testFactory()": "2eb9110c",
					"toggleSwap(bool)": "6d8aa8f8",
					"totalSupply()": "18160ddd",
					"transfer(address,uint256)": "a9059cbb",
					"transferFrom(address,address,uint256)": "23b872dd",
					"transferOwnership(address)": "f2fde38b",
					"uniswapV2Factory()": "59d0f713",
					"uniswapV2Pair()": "49bd5a5e",
					"uniswapV2Router()": "1694505e"
				}
			},
			"storageLayout": {
				"storage": [
					{
						"astId": 305,
						"contract": "contracts/Pool/Pool.sol:World_Step",
						"label": "_owner",
						"offset": 0,
						"slot": "0",
						"type": "t_address"
					},
					{
						"astId": 307,
						"contract": "contracts/Pool/Pool.sol:World_Step",
						"label": "_previousOwner",
						"offset": 0,
						"slot": "1",
						"type": "t_address"
					},
					{
						"astId": 406,
						"contract": "contracts/Pool/Pool.sol:World_Step",
						"label": "_rOwned",
						"offset": 0,
						"slot": "2",
						"type": "t_mapping(t_address,t_uint256)"
					},
					{
						"astId": 410,
						"contract": "contracts/Pool/Pool.sol:World_Step",
						"label": "_tOwned",
						"offset": 0,
						"slot": "3",
						"type": "t_mapping(t_address,t_uint256)"
					},
					{
						"astId": 416,
						"contract": "contracts/Pool/Pool.sol:World_Step",
						"label": "_allowances",
						"offset": 0,
						"slot": "4",
						"type": "t_mapping(t_address,t_mapping(t_address,t_uint256))"
					},
					{
						"astId": 420,
						"contract": "contracts/Pool/Pool.sol:World_Step",
						"label": "_isExcludedFromFee",
						"offset": 0,
						"slot": "5",
						"type": "t_mapping(t_address,t_bool)"
					},
					{
						"astId": 451,
						"contract": "contracts/Pool/Pool.sol:World_Step",
						"label": "_rTotal",
						"offset": 0,
						"slot": "6",
						"type": "t_uint256"
					},
					{
						"astId": 453,
						"contract": "contracts/Pool/Pool.sol:World_Step",
						"label": "_tFeeTotal",
						"offset": 0,
						"slot": "7",
						"type": "t_uint256"
					},
					{
						"astId": 456,
						"contract": "contracts/Pool/Pool.sol:World_Step",
						"label": "_redisFeeOnBuy",
						"offset": 0,
						"slot": "8",
						"type": "t_uint256"
					},
					{
						"astId": 459,
						"contract": "contracts/Pool/Pool.sol:World_Step",
						"label": "_taxFeeOnBuy",
						"offset": 0,
						"slot": "9",
						"type": "t_uint256"
					},
					{
						"astId": 462,
						"contract": "contracts/Pool/Pool.sol:World_Step",
						"label": "_redisFeeOnSell",
						"offset": 0,
						"slot": "10",
						"type": "t_uint256"
					},
					{
						"astId": 465,
						"contract": "contracts/Pool/Pool.sol:World_Step",
						"label": "_taxFeeOnSell",
						"offset": 0,
						"slot": "11",
						"type": "t_uint256"
					},
					{
						"astId": 467,
						"contract": "contracts/Pool/Pool.sol:World_Step",
						"label": "_redisFee",
						"offset": 0,
						"slot": "12",
						"type": "t_uint256"
					},
					{
						"astId": 469,
						"contract": "contracts/Pool/Pool.sol:World_Step",
						"label": "_taxFee",
						"offset": 0,
						"slot": "13",
						"type": "t_uint256"
					},
					{
						"astId": 484,
						"contract": "contracts/Pool/Pool.sol:World_Step",
						"label": "_developmentAddress",
						"offset": 0,
						"slot": "14",
						"type": "t_address_payable"
					},
					{
						"astId": 490,
						"contract": "contracts/Pool/Pool.sol:World_Step",
						"label": "_marketingAddress",
						"offset": 0,
						"slot": "15",
						"type": "t_address_payable"
					},
					{
						"astId": 493,
						"contract": "contracts/Pool/Pool.sol:World_Step",
						"label": "uniswapV2Router",
						"offset": 0,
						"slot": "16",
						"type": "t_contract(IUniswapV2Router02)145"
					},
					{
						"astId": 496,
						"contract": "contracts/Pool/Pool.sol:World_Step",
						"label": "uniswapV2Factory",
						"offset": 0,
						"slot": "17",
						"type": "t_contract(IUniswapV2Factory)99"
					},
					{
						"astId": 498,
						"contract": "contracts/Pool/Pool.sol:World_Step",
						"label": "uniswapV2Pair",
						"offset": 0,
						"slot": "18",
						"type": "t_address"
					},
					{
						"astId": 501,
						"contract": "contracts/Pool/Pool.sol:World_Step",
						"label": "inSwap",
						"offset": 20,
						"slot": "18",
						"type": "t_bool"
					},
					{
						"astId": 504,
						"contract": "contracts/Pool/Pool.sol:World_Step",
						"label": "swapEnabled",
						"offset": 21,
						"slot": "18",
						"type": "t_bool"
					}
				],
				"types": {
					"t_address": {
						"encoding": "inplace",
						"label": "address",
						"numberOfBytes": "20"
					},
					"t_address_payable": {
						"encoding": "inplace",
						"label": "address payable",
						"numberOfBytes": "20"
					},
					"t_bool": {
						"encoding": "inplace",
						"label": "bool",
						"numberOfBytes": "1"
					},
					"t_contract(IUniswapV2Factory)99": {
						"encoding": "inplace",
						"label": "contract IUniswapV2Factory",
						"numberOfBytes": "20"
					},
					"t_contract(IUniswapV2Router02)145": {
						"encoding": "inplace",
						"label": "contract IUniswapV2Router02",
						"numberOfBytes": "20"
					},
					"t_mapping(t_address,t_bool)": {
						"encoding": "mapping",
						"key": "t_address",
						"label": "mapping(address => bool)",
						"numberOfBytes": "32",
						"value": "t_bool"
					},
					"t_mapping(t_address,t_mapping(t_address,t_uint256))": {
						"encoding": "mapping",
						"key": "t_address",
						"label": "mapping(address => mapping(address => uint256))",
						"numberOfBytes": "32",
						"value": "t_mapping(t_address,t_uint256)"
					},
					"t_mapping(t_address,t_uint256)": {
						"encoding": "mapping",
						"key": "t_address",
						"label": "mapping(address => uint256)",
						"numberOfBytes": "32",
						"value": "t_uint256"
					},
					"t_uint256": {
						"encoding": "inplace",
						"label": "uint256",
						"numberOfBytes": "32"
					}
				}
			},
			"userdoc": {
				"kind": "user",
				"methods": {},
				"version": 1
			}
		}
	}
}