{
	"contracts/Pool/Pool.sol": {
		"World_Step": {
			"abi": [
				{
					"inputs": [],
					"stateMutability": "nonpayable",
					"type": "constructor"
				},
				{
					"anonymous": false,
					"inputs": [
						{
							"indexed": true,
							"internalType": "address",
							"name": "owner",
							"type": "address"
						},
						{
							"indexed": true,
							"internalType": "address",
							"name": "spender",
							"type": "address"
						},
						{
							"indexed": false,
							"internalType": "uint256",
							"name": "value",
							"type": "uint256"
						}
					],
					"name": "Approval",
					"type": "event"
				},
				{
					"anonymous": false,
					"inputs": [
						{
							"indexed": true,
							"internalType": "address",
							"name": "previousOwner",
							"type": "address"
						},
						{
							"indexed": true,
							"internalType": "address",
							"name": "newOwner",
							"type": "address"
						}
					],
					"name": "OwnershipTransferred",
					"type": "event"
				},
				{
					"anonymous": false,
					"inputs": [
						{
							"indexed": true,
							"internalType": "address",
							"name": "from",
							"type": "address"
						},
						{
							"indexed": true,
							"internalType": "address",
							"name": "to",
							"type": "address"
						},
						{
							"indexed": false,
							"internalType": "uint256",
							"name": "value",
							"type": "uint256"
						}
					],
					"name": "Transfer",
					"type": "event"
				},
				{
					"anonymous": false,
					"inputs": [
						{
							"indexed": true,
							"internalType": "address",
							"name": "previous",
							"type": "address"
						},
						{
							"indexed": true,
							"internalType": "address",
							"name": "adr",
							"type": "address"
						}
					],
					"name": "devAddressUpdated",
					"type": "event"
				},
				{
					"anonymous": false,
					"inputs": [
						{
							"indexed": true,
							"internalType": "address",
							"name": "previous",
							"type": "address"
						},
						{
							"indexed": true,
							"internalType": "address",
							"name": "adr",
							"type": "address"
						}
					],
					"name": "marketingAddressUpdated",
					"type": "event"
				},
				{
					"anonymous": false,
					"inputs": [
						{
							"indexed": true,
							"internalType": "address",
							"name": "token",
							"type": "address"
						},
						{
							"indexed": true,
							"internalType": "address",
							"name": "to",
							"type": "address"
						},
						{
							"indexed": false,
							"internalType": "uint256",
							"name": "amount",
							"type": "uint256"
						}
					],
					"name": "tokensRescued",
					"type": "event"
				},
				{
					"inputs": [],
					"name": "_factory",
					"outputs": [
						{
							"internalType": "address",
							"name": "",
							"type": "address"
						}
					],
					"stateMutability": "view",
					"type": "function"
				},
				{
					"inputs": [
						{
							"internalType": "address",
							"name": "owner",
							"type": "address"
						},
						{
							"internalType": "address",
							"name": "spender",
							"type": "address"
						}
					],
					"name": "allowance",
					"outputs": [
						{
							"internalType": "uint256",
							"name": "",
							"type": "uint256"
						}
					],
					"stateMutability": "view",
					"type": "function"
				},
				{
					"inputs": [
						{
							"internalType": "address",
							"name": "spender",
							"type": "address"
						},
						{
							"internalType": "uint256",
							"name": "amount",
							"type": "uint256"
						}
					],
					"name": "approve",
					"outputs": [
						{
							"internalType": "bool",
							"name": "",
							"type": "bool"
						}
					],
					"stateMutability": "nonpayable",
					"type": "function"
				},
				{
					"inputs": [
						{
							"internalType": "address",
							"name": "account",
							"type": "address"
						}
					],
					"name": "balanceOf",
					"outputs": [
						{
							"internalType": "uint256",
							"name": "",
							"type": "uint256"
						}
					],
					"stateMutability": "view",
					"type": "function"
				},
				{
					"inputs": [],
					"name": "decimals",
					"outputs": [
						{
							"internalType": "uint8",
							"name": "",
							"type": "uint8"
						}
					],
					"stateMutability": "pure",
					"type": "function"
				},
				{
					"inputs": [
						{
							"internalType": "address[]",
							"name": "accounts",
							"type": "address[]"
						},
						{
							"internalType": "bool",
							"name": "excluded",
							"type": "bool"
						}
					],
					"name": "excludeMultipleAccountsFromFees",
					"outputs": [],
					"stateMutability": "nonpayable",
					"type": "function"
				},
				{
					"inputs": [],
					"name": "manualsend",
					"outputs": [],
					"stateMutability": "nonpayable",
					"type": "function"
				},
				{
					"inputs": [],
					"name": "manualswap",
					"outputs": [],
					"stateMutability": "nonpayable",
					"type": "function"
				},
				{
					"inputs": [],
					"name": "name",
					"outputs": [
						{
							"internalType": "string",
							"name": "",
							"type": "string"
						}
					],
					"stateMutability": "pure",
					"type": "function"
				},
				{
					"inputs": [],
					"name": "owner",
					"outputs": [
						{
							"internalType": "address",
							"name": "",
							"type": "address"
						}
					],
					"stateMutability": "view",
					"type": "function"
				},
				{
					"inputs": [],
					"name": "renounceOwnership",
					"outputs": [],
					"stateMutability": "nonpayable",
					"type": "function"
				},
				{
					"inputs": [
						{
							"internalType": "address",
							"name": "_tokenAddr",
							"type": "address"
						},
						{
							"internalType": "address",
							"name": "_to",
							"type": "address"
						},
						{
							"internalType": "uint256",
							"name": "_amount",
							"type": "uint256"
						}
					],
					"name": "rescueForeignTokens",
					"outputs": [],
					"stateMutability": "nonpayable",
					"type": "function"
				},
				{
					"inputs": [
						{
							"internalType": "uint256",
							"name": "redisFeeOnBuy",
							"type": "uint256"
						},
						{
							"internalType": "uint256",
							"name": "redisFeeOnSell",
							"type": "uint256"
						},
						{
							"internalType": "uint256",
							"name": "taxFeeOnBuy",
							"type": "uint256"
						},
						{
							"internalType": "uint256",
							"name": "taxFeeOnSell",
							"type": "uint256"
						}
					],
					"name": "setFee",
					"outputs": [],
					"stateMutability": "nonpayable",
					"type": "function"
				},
				{
					"inputs": [
						{
							"internalType": "address payable",
							"name": "dev",
							"type": "address"
						}
					],
					"name": "setNewDevAddress",
					"outputs": [],
					"stateMutability": "nonpayable",
					"type": "function"
				},
				{
					"inputs": [
						{
							"internalType": "address payable",
							"name": "markt",
							"type": "address"
						}
					],
					"name": "setNewMarketingAddress",
					"outputs": [],
					"stateMutability": "nonpayable",
					"type": "function"
				},
				{
					"inputs": [
						{
							"internalType": "address",
							"name": "tokenB",
							"type": "address"
						}
					],
					"name": "settingPair",
					"outputs": [],
					"stateMutability": "nonpayable",
					"type": "function"
				},
				{
					"inputs": [],
					"name": "symbol",
					"outputs": [
						{
							"internalType": "string",
							"name": "",
							"type": "string"
						}
					],
					"stateMutability": "pure",
					"type": "function"
				},
				{
					"inputs": [
						{
							"internalType": "bool",
							"name": "_swapEnabled",
							"type": "bool"
						}
					],
					"name": "toggleSwap",
					"outputs": [],
					"stateMutability": "nonpayable",
					"type": "function"
				},
				{
					"inputs": [],
					"name": "totalSupply",
					"outputs": [
						{
							"internalType": "uint256",
							"name": "",
							"type": "uint256"
						}
					],
					"stateMutability": "pure",
					"type": "function"
				},
				{
					"inputs": [
						{
							"internalType": "address",
							"name": "recipient",
							"type": "address"
						},
						{
							"internalType": "uint256",
							"name": "amount",
							"type": "uint256"
						}
					],
					"name": "transfer",
					"outputs": [
						{
							"internalType": "bool",
							"name": "",
							"type": "bool"
						}
					],
					"stateMutability": "nonpayable",
					"type": "function"
				},
				{
					"inputs": [
						{
							"internalType": "address",
							"name": "sender",
							"type": "address"
						},
						{
							"internalType": "address",
							"name": "recipient",
							"type": "address"
						},
						{
							"internalType": "uint256",
							"name": "amount",
							"type": "uint256"
						}
					],
					"name": "transferFrom",
					"outputs": [
						{
							"internalType": "bool",
							"name": "",
							"type": "bool"
						}
					],
					"stateMutability": "nonpayable",
					"type": "function"
				},
				{
					"inputs": [
						{
							"internalType": "address",
							"name": "newOwner",
							"type": "address"
						}
					],
					"name": "transferOwnership",
					"outputs": [],
					"stateMutability": "nonpayable",
					"type": "function"
				},
				{
					"inputs": [],
					"name": "uniswapV2Factory",
					"outputs": [
						{
							"internalType": "contract IUniswapV2Factory",
							"name": "",
							"type": "address"
						}
					],
					"stateMutability": "view",
					"type": "function"
				},
				{
					"inputs": [],
					"name": "uniswapV2Pair",
					"outputs": [
						{
							"internalType": "address",
							"name": "",
							"type": "address"
						}
					],
					"stateMutability": "view",
					"type": "function"
				},
				{
					"inputs": [],
					"name": "uniswapV2Router",
					"outputs": [
						{
							"internalType": "contract IUniswapV2Router02",
							"name": "",
							"type": "address"
						}
					],
					"stateMutability": "view",
					"type": "function"
				},
				{
					"stateMutability": "payable",
					"type": "receive"
				}
			],
			"devdoc": {
				"kind": "dev",
				"methods": {},
				"version": 1
			},
			"evm": {
				"assembly": "    /* \"contracts/Pool/Pool.sol\":3725:15502  contract World_Step is Context, IERC20, Ownable {... */\n  mstore(0x40, 0x80)\n    /* \"contracts/Pool/Pool.sol\":4138:4151  1*10**9*10**9 */\n  0x0de0b6b3a7640000\n    /* \"contracts/Pool/Pool.sol\":4085:4097  1*10**9*10*9 */\n  0x14f46b0400\n    /* \"contracts/Pool/Pool.sol\":4191:4204  MAX % _tTotal */\n  tag_1\n  swap2\n  swap1\n  tag_2\n  jump\t// in\ntag_1:\n    /* \"contracts/Pool/Pool.sol\":4085:4097  1*10**9*10*9 */\n  0x14f46b0400\n    /* \"contracts/Pool/Pool.sol\":4184:4205  MAX - (MAX % _tTotal) */\n  tag_3\n  swap2\n  swap1\n  tag_4\n  jump\t// in\ntag_3:\n    /* \"contracts/Pool/Pool.sol\":4157:4206  uint256 private _rTotal = (MAX - (MAX % _tTotal)) */\n  0x06\n  sstore\n    /* \"contracts/Pool/Pool.sol\":4282:4283  1 */\n  0x01\n    /* \"contracts/Pool/Pool.sol\":4249:4283  uint256 private _redisFeeOnBuy = 1 */\n  0x08\n  sstore\n    /* \"contracts/Pool/Pool.sol\":4320:4321  4 */\n  0x04\n    /* \"contracts/Pool/Pool.sol\":4289:4321  uint256 private _taxFeeOnBuy = 4 */\n  0x09\n  sstore\n    /* \"contracts/Pool/Pool.sol\":4366:4367  1 */\n  0x01\n    /* \"contracts/Pool/Pool.sol\":4332:4367  uint256 private _redisFeeOnSell = 1 */\n  0x0a\n  sstore\n    /* \"contracts/Pool/Pool.sol\":4405:4406  1 */\n  0x01\n    /* \"contracts/Pool/Pool.sol\":4373:4406  uint256 private _taxFeeOnSell = 1 */\n  0x0b\n  sstore\n    /* \"contracts/Pool/Pool.sol\":4505:4510  false */\n  0x00\n    /* \"contracts/Pool/Pool.sol\":4478:4510  bool private _activePair = false */\n  0x0e\n  exp(0x0100, 0x00)\n  dup2\n  sload\n  dup2\n  0xff\n  mul\n  not\n  and\n  swap1\n  dup4\n  iszero\n  iszero\n  mul\n  or\n  swap1\n  sstore\n  pop\n    /* \"contracts/Pool/Pool.sol\":4717:4759  0x8492cbd894686D7e98214541903c7BA6f94928D6 */\n  0x8492cbd894686d7e98214541903c7ba6f94928d6\n    /* \"contracts/Pool/Pool.sol\":4663:4760  address payable private _developmentAddress = payable(0x8492cbd894686D7e98214541903c7BA6f94928D6) */\n  0x0e\n  exp(0x0100, 0x01)\n  dup2\n  sload\n  dup2\n  0xffffffffffffffffffffffffffffffffffffffff\n  mul\n  not\n  and\n  swap1\n  dup4\n  0xffffffffffffffffffffffffffffffffffffffff\n  and\n  mul\n  or\n  swap1\n  sstore\n  pop\n    /* \"contracts/Pool/Pool.sol\":4818:4860  0xa4eD7aa4eF5deB0A63e97d9Cb77445aE553feb1d */\n  0xa4ed7aa4ef5deb0a63e97d9cb77445ae553feb1d\n    /* \"contracts/Pool/Pool.sol\":4766:4861  address payable private _marketingAddress = payable(0xa4eD7aa4eF5deB0A63e97d9Cb77445aE553feb1d) */\n  0x0f\n  exp(0x0100, 0x00)\n  dup2\n  sload\n  dup2\n  0xffffffffffffffffffffffffffffffffffffffff\n  mul\n  not\n  and\n  swap1\n  dup4\n  0xffffffffffffffffffffffffffffffffffffffff\n  and\n  mul\n  or\n  swap1\n  sstore\n  pop\n    /* \"contracts/Pool/Pool.sol\":5053:5058  false */\n  0x00\n    /* \"contracts/Pool/Pool.sol\":5031:5058  bool private inSwap = false */\n  0x13\n  exp(0x0100, 0x14)\n  dup2\n  sload\n  dup2\n  0xff\n  mul\n  not\n  and\n  swap1\n  dup4\n  iszero\n  iszero\n  mul\n  or\n  swap1\n  sstore\n  pop\n    /* \"contracts/Pool/Pool.sol\":5091:5095  true */\n  0x01\n    /* \"contracts/Pool/Pool.sol\":5064:5095  bool private swapEnabled = true */\n  0x13\n  exp(0x0100, 0x15)\n  dup2\n  sload\n  dup2\n  0xff\n  mul\n  not\n  and\n  swap1\n  dup4\n  iszero\n  iszero\n  mul\n  or\n  swap1\n  sstore\n  pop\n    /* \"contracts/Pool/Pool.sol\":5197:6031  constructor () {... */\n  callvalue\n  dup1\n  iszero\n  tag_5\n  jumpi\n  0x00\n  dup1\n  revert\ntag_5:\n  pop\n    /* \"contracts/Pool/Pool.sol\":2992:3009  address msgSender */\n  0x00\n    /* \"contracts/Pool/Pool.sol\":3012:3024  _msgSender() */\n  tag_9\n    /* \"contracts/Pool/Pool.sol\":3012:3022  _msgSender */\n  shl(0x20, tag_10)\n    /* \"contracts/Pool/Pool.sol\":3012:3024  _msgSender() */\n  0x20\n  shr\n  jump\t// in\ntag_9:\n    /* \"contracts/Pool/Pool.sol\":2992:3024  address msgSender = _msgSender() */\n  swap1\n  pop\n    /* \"contracts/Pool/Pool.sol\":3043:3052  msgSender */\n  dup1\n    /* \"contracts/Pool/Pool.sol\":3034:3040  _owner */\n  0x00\n  dup1\n    /* \"contracts/Pool/Pool.sol\":3034:3052  _owner = msgSender */\n  0x0100\n  exp\n  dup2\n  sload\n  dup2\n  0xffffffffffffffffffffffffffffffffffffffff\n  mul\n  not\n  and\n  swap1\n  dup4\n  0xffffffffffffffffffffffffffffffffffffffff\n  and\n  mul\n  or\n  swap1\n  sstore\n  pop\n    /* \"contracts/Pool/Pool.sol\":3100:3109  msgSender */\n  dup1\n    /* \"contracts/Pool/Pool.sol\":3067:3110  OwnershipTransferred(address(0), msgSender) */\n  0xffffffffffffffffffffffffffffffffffffffff\n  and\n    /* \"contracts/Pool/Pool.sol\":3096:3097  0 */\n  0x00\n    /* \"contracts/Pool/Pool.sol\":3067:3110  OwnershipTransferred(address(0), msgSender) */\n  0xffffffffffffffffffffffffffffffffffffffff\n  and\n  0x8be0079c531659141344cd1fd0a4f28419497f9722a3daafe3b4186f6b6457e0\n  mload(0x40)\n  mload(0x40)\n  dup1\n  swap2\n  sub\n  swap1\n  log3\n    /* \"contracts/Pool/Pool.sol\":2967:3117  constructor () {... */\n  pop\n    /* \"contracts/Pool/Pool.sol\":5246:5253  _rTotal */\n  sload(0x06)\n    /* \"contracts/Pool/Pool.sol\":5222:5229  _rOwned */\n  0x02\n    /* \"contracts/Pool/Pool.sol\":5222:5243  _rOwned[_msgSender()] */\n  0x00\n    /* \"contracts/Pool/Pool.sol\":5230:5242  _msgSender() */\n  tag_12\n    /* \"contracts/Pool/Pool.sol\":5230:5240  _msgSender */\n  shl(0x20, tag_10)\n    /* \"contracts/Pool/Pool.sol\":5230:5242  _msgSender() */\n  0x20\n  shr\n  jump\t// in\ntag_12:\n    /* \"contracts/Pool/Pool.sol\":5222:5243  _rOwned[_msgSender()] */\n  0xffffffffffffffffffffffffffffffffffffffff\n  and\n  0xffffffffffffffffffffffffffffffffffffffff\n  and\n  dup2\n  mstore\n  0x20\n  add\n  swap1\n  dup2\n  mstore\n  0x20\n  add\n  0x00\n  keccak256\n    /* \"contracts/Pool/Pool.sol\":5222:5253  _rOwned[_msgSender()] = _rTotal */\n  dup2\n  swap1\n  sstore\n  pop\n    /* \"contracts/Pool/Pool.sol\":5272:5307  IUniswapV2Router02 _uniswapV2Router */\n  0x00\n    /* \"contracts/Pool/Pool.sol\":5337:5379  0x10ED43C718714eb63d5aA57B78B54704E256024E */\n  0x10ed43c718714eb63d5aa57b78b54704e256024e\n    /* \"contracts/Pool/Pool.sol\":5272:5381  IUniswapV2Router02 _uniswapV2Router = IUniswapV2Router02(address(0x10ED43C718714eb63d5aA57B78B54704E256024E)) */\n  swap1\n  pop\n    /* \"contracts/Pool/Pool.sol\":5409:5425  _uniswapV2Router */\n  dup1\n    /* \"contracts/Pool/Pool.sol\":5391:5406  uniswapV2Router */\n  0x10\n  0x00\n    /* \"contracts/Pool/Pool.sol\":5391:5425  uniswapV2Router = _uniswapV2Router */\n  0x0100\n  exp\n  dup2\n  sload\n  dup2\n  0xffffffffffffffffffffffffffffffffffffffff\n  mul\n  not\n  and\n  swap1\n  dup4\n  0xffffffffffffffffffffffffffffffffffffffff\n  and\n  mul\n  or\n  swap1\n  sstore\n  pop\n    /* \"contracts/Pool/Pool.sol\":5480:5522  0xcA143Ce32Fe78f1f7019d7d551a6402fC5350c73 */\n  0xca143ce32fe78f1f7019d7d551a6402fc5350c73\n    /* \"contracts/Pool/Pool.sol\":5435:5451  uniswapV2Factory */\n  0x11\n  0x00\n    /* \"contracts/Pool/Pool.sol\":5435:5524  uniswapV2Factory = IUniswapV2Factory(address(0xcA143Ce32Fe78f1f7019d7d551a6402fC5350c73)) */\n  0x0100\n  exp\n  dup2\n  sload\n  dup2\n  0xffffffffffffffffffffffffffffffffffffffff\n  mul\n  not\n  and\n  swap1\n  dup4\n  0xffffffffffffffffffffffffffffffffffffffff\n  and\n  mul\n  or\n  swap1\n  sstore\n  pop\n    /* \"contracts/Pool/Pool.sol\":5550:5566  uniswapV2Factory */\n  0x11\n  0x00\n  swap1\n  sload\n  swap1\n  0x0100\n  exp\n  swap1\n  div\n  0xffffffffffffffffffffffffffffffffffffffff\n  and\n    /* \"contracts/Pool/Pool.sol\":5550:5577  uniswapV2Factory.createPair */\n  0xffffffffffffffffffffffffffffffffffffffff\n  and\n  0xc9c65396\n    /* \"contracts/Pool/Pool.sol\":5586:5590  this */\n  address\n    /* \"contracts/Pool/Pool.sol\":5593:5609  _uniswapV2Router */\n  dup4\n    /* \"contracts/Pool/Pool.sol\":5593:5614  _uniswapV2Router.WETH */\n  0xffffffffffffffffffffffffffffffffffffffff\n  and\n  0xad5c4648\n    /* \"contracts/Pool/Pool.sol\":5593:5616  _uniswapV2Router.WETH() */\n  mload(0x40)\n  dup2\n  0xffffffff\n  and\n  0xe0\n  shl\n  dup2\n  mstore\n  0x04\n  add\n  0x20\n  mload(0x40)\n  dup1\n  dup4\n  sub\n  dup2\n  dup7\n  dup1\n  extcodesize\n  iszero\n  dup1\n  iszero\n  tag_13\n  jumpi\n  0x00\n  dup1\n  revert\ntag_13:\n  pop\n  gas\n  staticcall\n  iszero\n  dup1\n  iszero\n  tag_15\n  jumpi\n  returndatasize\n  0x00\n  dup1\n  returndatacopy\n  revert(0x00, returndatasize)\ntag_15:\n  pop\n  pop\n  pop\n  pop\n  mload(0x40)\n  returndatasize\n  not(0x1f)\n  0x1f\n  dup3\n  add\n  and\n  dup3\n  add\n  dup1\n  0x40\n  mstore\n  pop\n  dup2\n  add\n  swap1\n  tag_16\n  swap2\n  swap1\n  tag_17\n  jump\t// in\ntag_16:\n    /* \"contracts/Pool/Pool.sol\":5550:5617  uniswapV2Factory.createPair(address(this), _uniswapV2Router.WETH()) */\n  mload(0x40)\n  dup4\n  0xffffffff\n  and\n  0xe0\n  shl\n  dup2\n  mstore\n  0x04\n  add\n  tag_18\n  swap3\n  swap2\n  swap1\n  tag_19\n  jump\t// in\ntag_18:\n  0x20\n  mload(0x40)\n  dup1\n  dup4\n  sub\n  dup2\n  0x00\n  dup8\n  dup1\n  extcodesize\n  iszero\n  dup1\n  iszero\n  tag_20\n  jumpi\n  0x00\n  dup1\n  revert\ntag_20:\n  pop\n  gas\n  call\n  iszero\n  dup1\n  iszero\n  tag_22\n  jumpi\n  returndatasize\n  0x00\n  dup1\n  returndatacopy\n  revert(0x00, returndatasize)\ntag_22:\n  pop\n  pop\n  pop\n  pop\n  mload(0x40)\n  returndatasize\n  not(0x1f)\n  0x1f\n  dup3\n  add\n  and\n  dup3\n  add\n  dup1\n  0x40\n  mstore\n  pop\n  dup2\n  add\n  swap1\n  tag_23\n  swap2\n  swap1\n  tag_17\n  jump\t// in\ntag_23:\n    /* \"contracts/Pool/Pool.sol\":5534:5547  uniswapV2Pair */\n  0x13\n  0x00\n    /* \"contracts/Pool/Pool.sol\":5534:5617  uniswapV2Pair = uniswapV2Factory.createPair(address(this), _uniswapV2Router.WETH()) */\n  0x0100\n  exp\n  dup2\n  sload\n  dup2\n  0xffffffffffffffffffffffffffffffffffffffff\n  mul\n  not\n  and\n  swap1\n  dup4\n  0xffffffffffffffffffffffffffffffffffffffff\n  and\n  mul\n  or\n  swap1\n  sstore\n  pop\n    /* \"contracts/Pool/Pool.sol\":5661:5677  _uniswapV2Router */\n  dup1\n    /* \"contracts/Pool/Pool.sol\":5661:5685  _uniswapV2Router.factory */\n  0xffffffffffffffffffffffffffffffffffffffff\n  and\n  0xc45a0155\n    /* \"contracts/Pool/Pool.sol\":5661:5687  _uniswapV2Router.factory() */\n  mload(0x40)\n  dup2\n  0xffffffff\n  and\n  0xe0\n  shl\n  dup2\n  mstore\n  0x04\n  add\n  0x20\n  mload(0x40)\n  dup1\n  dup4\n  sub\n  dup2\n  dup7\n  dup1\n  extcodesize\n  iszero\n  dup1\n  iszero\n  tag_24\n  jumpi\n  0x00\n  dup1\n  revert\ntag_24:\n  pop\n  gas\n  staticcall\n  iszero\n  dup1\n  iszero\n  tag_26\n  jumpi\n  returndatasize\n  0x00\n  dup1\n  returndatacopy\n  revert(0x00, returndatasize)\ntag_26:\n  pop\n  pop\n  pop\n  pop\n  mload(0x40)\n  returndatasize\n  not(0x1f)\n  0x1f\n  dup3\n  add\n  and\n  dup3\n  add\n  dup1\n  0x40\n  mstore\n  pop\n  dup2\n  add\n  swap1\n  tag_27\n  swap2\n  swap1\n  tag_17\n  jump\t// in\ntag_27:\n    /* \"contracts/Pool/Pool.sol\":5643:5712  IUniswapV2Factory(_uniswapV2Router.factory())... */\n  0xffffffffffffffffffffffffffffffffffffffff\n  and\n  0xc9c65396\n    /* \"contracts/Pool/Pool.sol\":5721:5725  this */\n  address\n    /* \"contracts/Pool/Pool.sol\":5728:5744  _uniswapV2Router */\n  dup4\n    /* \"contracts/Pool/Pool.sol\":5728:5749  _uniswapV2Router.WETH */\n  0xffffffffffffffffffffffffffffffffffffffff\n  and\n  0xad5c4648\n    /* \"contracts/Pool/Pool.sol\":5728:5751  _uniswapV2Router.WETH() */\n  mload(0x40)\n  dup2\n  0xffffffff\n  and\n  0xe0\n  shl\n  dup2\n  mstore\n  0x04\n  add\n  0x20\n  mload(0x40)\n  dup1\n  dup4\n  sub\n  dup2\n  dup7\n  dup1\n  extcodesize\n  iszero\n  dup1\n  iszero\n  tag_28\n  jumpi\n  0x00\n  dup1\n  revert\ntag_28:\n  pop\n  gas\n  staticcall\n  iszero\n  dup1\n  iszero\n  tag_30\n  jumpi\n  returndatasize\n  0x00\n  dup1\n  returndatacopy\n  revert(0x00, returndatasize)\ntag_30:\n  pop\n  pop\n  pop\n  pop\n  mload(0x40)\n  returndatasize\n  not(0x1f)\n  0x1f\n  dup3\n  add\n  and\n  dup3\n  add\n  dup1\n  0x40\n  mstore\n  pop\n  dup2\n  add\n  swap1\n  tag_31\n  swap2\n  swap1\n  tag_17\n  jump\t// in\ntag_31:\n    /* \"contracts/Pool/Pool.sol\":5643:5753  IUniswapV2Factory(_uniswapV2Router.factory())... */\n  mload(0x40)\n  dup4\n  0xffffffff\n  and\n  0xe0\n  shl\n  dup2\n  mstore\n  0x04\n  add\n  tag_32\n  swap3\n  swap2\n  swap1\n  tag_19\n  jump\t// in\ntag_32:\n  0x20\n  mload(0x40)\n  dup1\n  dup4\n  sub\n  dup2\n  0x00\n  dup8\n  dup1\n  extcodesize\n  iszero\n  dup1\n  iszero\n  tag_33\n  jumpi\n  0x00\n  dup1\n  revert\ntag_33:\n  pop\n  gas\n  call\n  iszero\n  dup1\n  iszero\n  tag_35\n  jumpi\n  returndatasize\n  0x00\n  dup1\n  returndatacopy\n  revert(0x00, returndatasize)\ntag_35:\n  pop\n  pop\n  pop\n  pop\n  mload(0x40)\n  returndatasize\n  not(0x1f)\n  0x1f\n  dup3\n  add\n  and\n  dup3\n  add\n  dup1\n  0x40\n  mstore\n  pop\n  dup2\n  add\n  swap1\n  tag_36\n  swap2\n  swap1\n  tag_17\n  jump\t// in\ntag_36:\n    /* \"contracts/Pool/Pool.sol\":5627:5640  uniswapV2Pair */\n  0x13\n  0x00\n    /* \"contracts/Pool/Pool.sol\":5627:5753  uniswapV2Pair = IUniswapV2Factory(_uniswapV2Router.factory())... */\n  0x0100\n  exp\n  dup2\n  sload\n  dup2\n  0xffffffffffffffffffffffffffffffffffffffff\n  mul\n  not\n  and\n  swap1\n  dup4\n  0xffffffffffffffffffffffffffffffffffffffff\n  and\n  mul\n  or\n  swap1\n  sstore\n  pop\n    /* \"contracts/Pool/Pool.sol\":5793:5797  true */\n  0x01\n    /* \"contracts/Pool/Pool.sol\":5763:5781  _isExcludedFromFee */\n  0x05\n    /* \"contracts/Pool/Pool.sol\":5763:5790  _isExcludedFromFee[owner()] */\n  0x00\n    /* \"contracts/Pool/Pool.sol\":5782:5789  owner() */\n  tag_37\n    /* \"contracts/Pool/Pool.sol\":5782:5787  owner */\n  shl(0x20, tag_38)\n    /* \"contracts/Pool/Pool.sol\":5782:5789  owner() */\n  0x20\n  shr\n  jump\t// in\ntag_37:\n    /* \"contracts/Pool/Pool.sol\":5763:5790  _isExcludedFromFee[owner()] */\n  0xffffffffffffffffffffffffffffffffffffffff\n  and\n  0xffffffffffffffffffffffffffffffffffffffff\n  and\n  dup2\n  mstore\n  0x20\n  add\n  swap1\n  dup2\n  mstore\n  0x20\n  add\n  0x00\n  keccak256\n  0x00\n    /* \"contracts/Pool/Pool.sol\":5763:5797  _isExcludedFromFee[owner()] = true */\n  0x0100\n  exp\n  dup2\n  sload\n  dup2\n  0xff\n  mul\n  not\n  and\n  swap1\n  dup4\n  iszero\n  iszero\n  mul\n  or\n  swap1\n  sstore\n  pop\n    /* \"contracts/Pool/Pool.sol\":5843:5847  true */\n  0x01\n    /* \"contracts/Pool/Pool.sol\":5807:5825  _isExcludedFromFee */\n  0x05\n    /* \"contracts/Pool/Pool.sol\":5807:5840  _isExcludedFromFee[address(this)] */\n  0x00\n    /* \"contracts/Pool/Pool.sol\":5834:5838  this */\n  address\n    /* \"contracts/Pool/Pool.sol\":5807:5840  _isExcludedFromFee[address(this)] */\n  0xffffffffffffffffffffffffffffffffffffffff\n  and\n  0xffffffffffffffffffffffffffffffffffffffff\n  and\n  dup2\n  mstore\n  0x20\n  add\n  swap1\n  dup2\n  mstore\n  0x20\n  add\n  0x00\n  keccak256\n  0x00\n    /* \"contracts/Pool/Pool.sol\":5807:5847  _isExcludedFromFee[address(this)] = true */\n  0x0100\n  exp\n  dup2\n  sload\n  dup2\n  0xff\n  mul\n  not\n  and\n  swap1\n  dup4\n  iszero\n  iszero\n  mul\n  or\n  swap1\n  sstore\n  pop\n    /* \"contracts/Pool/Pool.sol\":5899:5903  true */\n  0x01\n    /* \"contracts/Pool/Pool.sol\":5857:5875  _isExcludedFromFee */\n  0x05\n    /* \"contracts/Pool/Pool.sol\":5857:5896  _isExcludedFromFee[_developmentAddress] */\n  0x00\n    /* \"contracts/Pool/Pool.sol\":5876:5895  _developmentAddress */\n  0x0e\n  0x01\n  swap1\n  sload\n  swap1\n  0x0100\n  exp\n  swap1\n  div\n  0xffffffffffffffffffffffffffffffffffffffff\n  and\n    /* \"contracts/Pool/Pool.sol\":5857:5896  _isExcludedFromFee[_developmentAddress] */\n  0xffffffffffffffffffffffffffffffffffffffff\n  and\n  0xffffffffffffffffffffffffffffffffffffffff\n  and\n  dup2\n  mstore\n  0x20\n  add\n  swap1\n  dup2\n  mstore\n  0x20\n  add\n  0x00\n  keccak256\n  0x00\n    /* \"contracts/Pool/Pool.sol\":5857:5903  _isExcludedFromFee[_developmentAddress] = true */\n  0x0100\n  exp\n  dup2\n  sload\n  dup2\n  0xff\n  mul\n  not\n  and\n  swap1\n  dup4\n  iszero\n  iszero\n  mul\n  or\n  swap1\n  sstore\n  pop\n    /* \"contracts/Pool/Pool.sol\":5953:5957  true */\n  0x01\n    /* \"contracts/Pool/Pool.sol\":5913:5931  _isExcludedFromFee */\n  0x05\n    /* \"contracts/Pool/Pool.sol\":5913:5950  _isExcludedFromFee[_marketingAddress] */\n  0x00\n    /* \"contracts/Pool/Pool.sol\":5932:5949  _marketingAddress */\n  0x0f\n  0x00\n  swap1\n  sload\n  swap1\n  0x0100\n  exp\n  swap1\n  div\n  0xffffffffffffffffffffffffffffffffffffffff\n  and\n    /* \"contracts/Pool/Pool.sol\":5913:5950  _isExcludedFromFee[_marketingAddress] */\n  0xffffffffffffffffffffffffffffffffffffffff\n  and\n  0xffffffffffffffffffffffffffffffffffffffff\n  and\n  dup2\n  mstore\n  0x20\n  add\n  swap1\n  dup2\n  mstore\n  0x20\n  add\n  0x00\n  keccak256\n  0x00\n    /* \"contracts/Pool/Pool.sol\":5913:5957  _isExcludedFromFee[_marketingAddress] = true */\n  0x0100\n  exp\n  dup2\n  sload\n  dup2\n  0xff\n  mul\n  not\n  and\n  swap1\n  dup4\n  iszero\n  iszero\n  mul\n  or\n  swap1\n  sstore\n  pop\n    /* \"contracts/Pool/Pool.sol\":6002:6014  _msgSender() */\n  tag_39\n    /* \"contracts/Pool/Pool.sol\":6002:6012  _msgSender */\n  shl(0x20, tag_10)\n    /* \"contracts/Pool/Pool.sol\":6002:6014  _msgSender() */\n  0x20\n  shr\n  jump\t// in\ntag_39:\n    /* \"contracts/Pool/Pool.sol\":5981:6024  Transfer(address(0), _msgSender(), _tTotal) */\n  0xffffffffffffffffffffffffffffffffffffffff\n  and\n    /* \"contracts/Pool/Pool.sol\":5998:5999  0 */\n  0x00\n    /* \"contracts/Pool/Pool.sol\":5981:6024  Transfer(address(0), _msgSender(), _tTotal) */\n  0xffffffffffffffffffffffffffffffffffffffff\n  and\n  0xddf252ad1be2c89b69c2b068fc378daa952ba7f163c4a11628f55a4df523b3ef\n    /* \"contracts/Pool/Pool.sol\":4138:4151  1*10**9*10**9 */\n  0x0de0b6b3a7640000\n    /* \"contracts/Pool/Pool.sol\":5981:6024  Transfer(address(0), _msgSender(), _tTotal) */\n  mload(0x40)\n  tag_40\n  swap2\n  swap1\n  tag_41\n  jump\t// in\ntag_40:\n  mload(0x40)\n  dup1\n  swap2\n  sub\n  swap1\n  log3\n    /* \"contracts/Pool/Pool.sol\":5197:6031  constructor () {... */\n  pop\n    /* \"contracts/Pool/Pool.sol\":3725:15502  contract World_Step is Context, IERC20, Ownable {... */\n  jump(tag_42)\n    /* \"contracts/Pool/Pool.sol\":1659:1755  function _msgSender() internal view virtual returns (address) {... */\ntag_10:\n    /* \"contracts/Pool/Pool.sol\":1712:1719  address */\n  0x00\n    /* \"contracts/Pool/Pool.sol\":1738:1748  msg.sender */\n  caller\n    /* \"contracts/Pool/Pool.sol\":1731:1748  return msg.sender */\n  swap1\n  pop\n    /* \"contracts/Pool/Pool.sol\":1659:1755  function _msgSender() internal view virtual returns (address) {... */\n  swap1\n  jump\t// out\n    /* \"contracts/Pool/Pool.sol\":3123:3200  function owner() public view returns (address) {... */\ntag_38:\n    /* \"contracts/Pool/Pool.sol\":3161:3168  address */\n  0x00\n    /* \"contracts/Pool/Pool.sol\":3187:3193  _owner */\n  dup1\n  0x00\n  swap1\n  sload\n  swap1\n  0x0100\n  exp\n  swap1\n  div\n  0xffffffffffffffffffffffffffffffffffffffff\n  and\n    /* \"contracts/Pool/Pool.sol\":3180:3193  return _owner */\n  swap1\n  pop\n    /* \"contracts/Pool/Pool.sol\":3123:3200  function owner() public view returns (address) {... */\n  swap1\n  jump\t// out\n    /* \"#utility.yul\":7:150   */\ntag_46:\n    /* \"#utility.yul\":64:69   */\n  0x00\n    /* \"#utility.yul\":95:101   */\n  dup2\n    /* \"#utility.yul\":89:102   */\n  mload\n    /* \"#utility.yul\":80:102   */\n  swap1\n  pop\n    /* \"#utility.yul\":111:144   */\n  tag_48\n    /* \"#utility.yul\":138:143   */\n  dup2\n    /* \"#utility.yul\":111:144   */\n  tag_49\n  jump\t// in\ntag_48:\n    /* \"#utility.yul\":70:150   */\n  swap3\n  swap2\n  pop\n  pop\n  jump\t// out\n    /* \"#utility.yul\":156:440   */\ntag_17:\n    /* \"#utility.yul\":226:232   */\n  0x00\n    /* \"#utility.yul\":275:277   */\n  0x20\n    /* \"#utility.yul\":263:272   */\n  dup3\n    /* \"#utility.yul\":254:261   */\n  dup5\n    /* \"#utility.yul\":250:273   */\n  sub\n    /* \"#utility.yul\":246:278   */\n  slt\n    /* \"#utility.yul\":243:245   */\n  iszero\n  tag_51\n  jumpi\n    /* \"#utility.yul\":291:292   */\n  0x00\n    /* \"#utility.yul\":288:289   */\n  dup1\n    /* \"#utility.yul\":281:293   */\n  revert\n    /* \"#utility.yul\":243:245   */\ntag_51:\n    /* \"#utility.yul\":334:335   */\n  0x00\n    /* \"#utility.yul\":359:423   */\n  tag_52\n    /* \"#utility.yul\":415:422   */\n  dup5\n    /* \"#utility.yul\":406:412   */\n  dup3\n    /* \"#utility.yul\":395:404   */\n  dup6\n    /* \"#utility.yul\":391:413   */\n  add\n    /* \"#utility.yul\":359:423   */\n  tag_46\n  jump\t// in\ntag_52:\n    /* \"#utility.yul\":349:423   */\n  swap2\n  pop\n    /* \"#utility.yul\":305:433   */\n  pop\n    /* \"#utility.yul\":233:440   */\n  swap3\n  swap2\n  pop\n  pop\n  jump\t// out\n    /* \"#utility.yul\":446:564   */\ntag_53:\n    /* \"#utility.yul\":533:557   */\n  tag_55\n    /* \"#utility.yul\":551:556   */\n  dup2\n    /* \"#utility.yul\":533:557   */\n  tag_56\n  jump\t// in\ntag_55:\n    /* \"#utility.yul\":528:531   */\n  dup3\n    /* \"#utility.yul\":521:558   */\n  mstore\n    /* \"#utility.yul\":511:564   */\n  pop\n  pop\n  jump\t// out\n    /* \"#utility.yul\":570:688   */\ntag_57:\n    /* \"#utility.yul\":657:681   */\n  tag_59\n    /* \"#utility.yul\":675:680   */\n  dup2\n    /* \"#utility.yul\":657:681   */\n  tag_60\n  jump\t// in\ntag_59:\n    /* \"#utility.yul\":652:655   */\n  dup3\n    /* \"#utility.yul\":645:682   */\n  mstore\n    /* \"#utility.yul\":635:688   */\n  pop\n  pop\n  jump\t// out\n    /* \"#utility.yul\":694:1026   */\ntag_19:\n    /* \"#utility.yul\":815:819   */\n  0x00\n    /* \"#utility.yul\":853:855   */\n  0x40\n    /* \"#utility.yul\":842:851   */\n  dup3\n    /* \"#utility.yul\":838:856   */\n  add\n    /* \"#utility.yul\":830:856   */\n  swap1\n  pop\n    /* \"#utility.yul\":866:937   */\n  tag_62\n    /* \"#utility.yul\":934:935   */\n  0x00\n    /* \"#utility.yul\":923:932   */\n  dup4\n    /* \"#utility.yul\":919:936   */\n  add\n    /* \"#utility.yul\":910:916   */\n  dup6\n    /* \"#utility.yul\":866:937   */\n  tag_53\n  jump\t// in\ntag_62:\n    /* \"#utility.yul\":947:1019   */\n  tag_63\n    /* \"#utility.yul\":1015:1017   */\n  0x20\n    /* \"#utility.yul\":1004:1013   */\n  dup4\n    /* \"#utility.yul\":1000:1018   */\n  add\n    /* \"#utility.yul\":991:997   */\n  dup5\n    /* \"#utility.yul\":947:1019   */\n  tag_53\n  jump\t// in\ntag_63:\n    /* \"#utility.yul\":820:1026   */\n  swap4\n  swap3\n  pop\n  pop\n  pop\n  jump\t// out\n    /* \"#utility.yul\":1032:1254   */\ntag_41:\n    /* \"#utility.yul\":1125:1129   */\n  0x00\n    /* \"#utility.yul\":1163:1165   */\n  0x20\n    /* \"#utility.yul\":1152:1161   */\n  dup3\n    /* \"#utility.yul\":1148:1166   */\n  add\n    /* \"#utility.yul\":1140:1166   */\n  swap1\n  pop\n    /* \"#utility.yul\":1176:1247   */\n  tag_65\n    /* \"#utility.yul\":1244:1245   */\n  0x00\n    /* \"#utility.yul\":1233:1242   */\n  dup4\n    /* \"#utility.yul\":1229:1246   */\n  add\n    /* \"#utility.yul\":1220:1226   */\n  dup5\n    /* \"#utility.yul\":1176:1247   */\n  tag_57\n  jump\t// in\ntag_65:\n    /* \"#utility.yul\":1130:1254   */\n  swap3\n  swap2\n  pop\n  pop\n  jump\t// out\n    /* \"#utility.yul\":1260:1451   */\ntag_4:\n    /* \"#utility.yul\":1300:1304   */\n  0x00\n    /* \"#utility.yul\":1320:1340   */\n  tag_67\n    /* \"#utility.yul\":1338:1339   */\n  dup3\n    /* \"#utility.yul\":1320:1340   */\n  tag_60\n  jump\t// in\ntag_67:\n    /* \"#utility.yul\":1315:1340   */\n  swap2\n  pop\n    /* \"#utility.yul\":1354:1374   */\n  tag_68\n    /* \"#utility.yul\":1372:1373   */\n  dup4\n    /* \"#utility.yul\":1354:1374   */\n  tag_60\n  jump\t// in\ntag_68:\n    /* \"#utility.yul\":1349:1374   */\n  swap3\n  pop\n    /* \"#utility.yul\":1393:1394   */\n  dup3\n    /* \"#utility.yul\":1390:1391   */\n  dup3\n    /* \"#utility.yul\":1387:1395   */\n  lt\n    /* \"#utility.yul\":1384:1386   */\n  iszero\n  tag_69\n  jumpi\n    /* \"#utility.yul\":1398:1416   */\n  tag_70\n  tag_71\n  jump\t// in\ntag_70:\n    /* \"#utility.yul\":1384:1386   */\ntag_69:\n    /* \"#utility.yul\":1443:1444   */\n  dup3\n    /* \"#utility.yul\":1440:1441   */\n  dup3\n    /* \"#utility.yul\":1436:1445   */\n  sub\n    /* \"#utility.yul\":1428:1445   */\n  swap1\n  pop\n    /* \"#utility.yul\":1305:1451   */\n  swap3\n  swap2\n  pop\n  pop\n  jump\t// out\n    /* \"#utility.yul\":1457:1553   */\ntag_56:\n    /* \"#utility.yul\":1494:1501   */\n  0x00\n    /* \"#utility.yul\":1523:1547   */\n  tag_73\n    /* \"#utility.yul\":1541:1546   */\n  dup3\n    /* \"#utility.yul\":1523:1547   */\n  tag_74\n  jump\t// in\ntag_73:\n    /* \"#utility.yul\":1512:1547   */\n  swap1\n  pop\n    /* \"#utility.yul\":1502:1553   */\n  swap2\n  swap1\n  pop\n  jump\t// out\n    /* \"#utility.yul\":1559:1685   */\ntag_74:\n    /* \"#utility.yul\":1596:1603   */\n  0x00\n    /* \"#utility.yul\":1636:1678   */\n  0xffffffffffffffffffffffffffffffffffffffff\n    /* \"#utility.yul\":1629:1634   */\n  dup3\n    /* \"#utility.yul\":1625:1679   */\n  and\n    /* \"#utility.yul\":1614:1679   */\n  swap1\n  pop\n    /* \"#utility.yul\":1604:1685   */\n  swap2\n  swap1\n  pop\n  jump\t// out\n    /* \"#utility.yul\":1691:1768   */\ntag_60:\n    /* \"#utility.yul\":1728:1735   */\n  0x00\n    /* \"#utility.yul\":1757:1762   */\n  dup2\n    /* \"#utility.yul\":1746:1762   */\n  swap1\n  pop\n    /* \"#utility.yul\":1736:1768   */\n  swap2\n  swap1\n  pop\n  jump\t// out\n    /* \"#utility.yul\":1774:1950   */\ntag_2:\n    /* \"#utility.yul\":1806:1807   */\n  0x00\n    /* \"#utility.yul\":1823:1843   */\n  tag_78\n    /* \"#utility.yul\":1841:1842   */\n  dup3\n    /* \"#utility.yul\":1823:1843   */\n  tag_60\n  jump\t// in\ntag_78:\n    /* \"#utility.yul\":1818:1843   */\n  swap2\n  pop\n    /* \"#utility.yul\":1857:1877   */\n  tag_79\n    /* \"#utility.yul\":1875:1876   */\n  dup4\n    /* \"#utility.yul\":1857:1877   */\n  tag_60\n  jump\t// in\ntag_79:\n    /* \"#utility.yul\":1852:1877   */\n  swap3\n  pop\n    /* \"#utility.yul\":1896:1897   */\n  dup3\n    /* \"#utility.yul\":1886:1888   */\n  tag_80\n  jumpi\n    /* \"#utility.yul\":1901:1919   */\n  tag_81\n  tag_82\n  jump\t// in\ntag_81:\n    /* \"#utility.yul\":1886:1888   */\ntag_80:\n    /* \"#utility.yul\":1942:1943   */\n  dup3\n    /* \"#utility.yul\":1939:1940   */\n  dup3\n    /* \"#utility.yul\":1935:1944   */\n  mod\n    /* \"#utility.yul\":1930:1944   */\n  swap1\n  pop\n    /* \"#utility.yul\":1808:1950   */\n  swap3\n  swap2\n  pop\n  pop\n  jump\t// out\n    /* \"#utility.yul\":1956:2136   */\ntag_71:\n    /* \"#utility.yul\":2004:2081   */\n  0x4e487b7100000000000000000000000000000000000000000000000000000000\n    /* \"#utility.yul\":2001:2002   */\n  0x00\n    /* \"#utility.yul\":1994:2082   */\n  mstore\n    /* \"#utility.yul\":2101:2105   */\n  0x11\n    /* \"#utility.yul\":2098:2099   */\n  0x04\n    /* \"#utility.yul\":2091:2106   */\n  mstore\n    /* \"#utility.yul\":2125:2129   */\n  0x24\n    /* \"#utility.yul\":2122:2123   */\n  0x00\n    /* \"#utility.yul\":2115:2130   */\n  revert\n    /* \"#utility.yul\":2142:2322   */\ntag_82:\n    /* \"#utility.yul\":2190:2267   */\n  0x4e487b7100000000000000000000000000000000000000000000000000000000\n    /* \"#utility.yul\":2187:2188   */\n  0x00\n    /* \"#utility.yul\":2180:2268   */\n  mstore\n    /* \"#utility.yul\":2287:2291   */\n  0x12\n    /* \"#utility.yul\":2284:2285   */\n  0x04\n    /* \"#utility.yul\":2277:2292   */\n  mstore\n    /* \"#utility.yul\":2311:2315   */\n  0x24\n    /* \"#utility.yul\":2308:2309   */\n  0x00\n    /* \"#utility.yul\":2301:2316   */\n  revert\n    /* \"#utility.yul\":2328:2450   */\ntag_49:\n    /* \"#utility.yul\":2401:2425   */\n  tag_86\n    /* \"#utility.yul\":2419:2424   */\n  dup2\n    /* \"#utility.yul\":2401:2425   */\n  tag_56\n  jump\t// in\ntag_86:\n    /* \"#utility.yul\":2394:2399   */\n  dup2\n    /* \"#utility.yul\":2391:2426   */\n  eq\n    /* \"#utility.yul\":2381:2383   */\n  tag_87\n  jumpi\n    /* \"#utility.yul\":2440:2441   */\n  0x00\n    /* \"#utility.yul\":2437:2438   */\n  dup1\n    /* \"#utility.yul\":2430:2442   */\n  revert\n    /* \"#utility.yul\":2381:2383   */\ntag_87:\n    /* \"#utility.yul\":2371:2450   */\n  pop\n  jump\t// out\n    /* \"contracts/Pool/Pool.sol\":3725:15502  contract World_Step is Context, IERC20, Ownable {... */\ntag_42:\n  dataSize(sub_0)\n  dup1\n  dataOffset(sub_0)\n  0x00\n  codecopy\n  0x00\n  return\nstop\n\nsub_0: assembly {\n        /* \"contracts/Pool/Pool.sol\":3725:15502  contract World_Step is Context, IERC20, Ownable {... */\n      mstore(0x40, 0x80)\n      jumpi(tag_1, lt(calldatasize, 0x04))\n      shr(0xe0, calldataload(0x00))\n      dup1\n      0x758dbe03\n      gt\n      tag_28\n      jumpi\n      dup1\n      0xc3c8cd80\n      gt\n      tag_29\n      jumpi\n      dup1\n      0xce4224c5\n      gt\n      tag_30\n      jumpi\n      dup1\n      0xce4224c5\n      eq\n      tag_24\n      jumpi\n      dup1\n      0xdd62ed3e\n      eq\n      tag_25\n      jumpi\n      dup1\n      0xe293d316\n      eq\n      tag_26\n      jumpi\n      dup1\n      0xf2fde38b\n      eq\n      tag_27\n      jumpi\n      jump(tag_2)\n    tag_30:\n      dup1\n      0xc3c8cd80\n      eq\n      tag_21\n      jumpi\n      dup1\n      0xc492f046\n      eq\n      tag_22\n      jumpi\n      dup1\n      0xc5cc6b6a\n      eq\n      tag_23\n      jumpi\n      jump(tag_2)\n    tag_29:\n      dup1\n      0x758dbe03\n      eq\n      tag_15\n      jumpi\n      dup1\n      0x8da5cb5b\n      eq\n      tag_16\n      jumpi\n      dup1\n      0x95d89b41\n      eq\n      tag_17\n      jumpi\n      dup1\n      0xa2a957bb\n      eq\n      tag_18\n      jumpi\n      dup1\n      0xa9059cbb\n      eq\n      tag_19\n      jumpi\n      dup1\n      0xaad5c023\n      eq\n      tag_20\n      jumpi\n      jump(tag_2)\n    tag_28:\n      dup1\n      0x49bd5a5e\n      gt\n      tag_31\n      jumpi\n      dup1\n      0x49bd5a5e\n      eq\n      tag_9\n      jumpi\n      dup1\n      0x59d0f713\n      eq\n      tag_10\n      jumpi\n      dup1\n      0x6d8aa8f8\n      eq\n      tag_11\n      jumpi\n      dup1\n      0x6fc3eaec\n      eq\n      tag_12\n      jumpi\n      dup1\n      0x70a08231\n      eq\n      tag_13\n      jumpi\n      dup1\n      0x715018a6\n      eq\n      tag_14\n      jumpi\n      jump(tag_2)\n    tag_31:\n      dup1\n      0x06fdde03\n      eq\n      tag_3\n      jumpi\n      dup1\n      0x095ea7b3\n      eq\n      tag_4\n      jumpi\n      dup1\n      0x1694505e\n      eq\n      tag_5\n      jumpi\n      dup1\n      0x18160ddd\n      eq\n      tag_6\n      jumpi\n      dup1\n      0x23b872dd\n      eq\n      tag_7\n      jumpi\n      dup1\n      0x313ce567\n      eq\n      tag_8\n      jumpi\n      jump(tag_2)\n    tag_1:\n      jumpi(tag_2, calldatasize)\n      stop\n    tag_2:\n      0x00\n      dup1\n      revert\n        /* \"contracts/Pool/Pool.sol\":6189:6270  function name() public pure returns (string memory) {... */\n    tag_3:\n      callvalue\n      dup1\n      iszero\n      tag_34\n      jumpi\n      0x00\n      dup1\n      revert\n    tag_34:\n      pop\n      tag_35\n      tag_36\n      jump\t// in\n    tag_35:\n      mload(0x40)\n      tag_37\n      swap2\n      swap1\n      tag_38\n      jump\t// in\n    tag_37:\n      mload(0x40)\n      dup1\n      swap2\n      sub\n      swap1\n      return\n        /* \"contracts/Pool/Pool.sol\":7012:7170  function approve(address spender, uint256 amount) public override returns (bool) {... */\n    tag_4:\n      callvalue\n      dup1\n      iszero\n      tag_39\n      jumpi\n      0x00\n      dup1\n      revert\n    tag_39:\n      pop\n      tag_40\n      0x04\n      dup1\n      calldatasize\n      sub\n      dup2\n      add\n      swap1\n      tag_41\n      swap2\n      swap1\n      tag_42\n      jump\t// in\n    tag_41:\n      tag_43\n      jump\t// in\n    tag_40:\n      mload(0x40)\n      tag_44\n      swap2\n      swap1\n      tag_45\n      jump\t// in\n    tag_44:\n      mload(0x40)\n      dup1\n      swap2\n      sub\n      swap1\n      return\n        /* \"contracts/Pool/Pool.sol\":4868:4909  IUniswapV2Router02 public uniswapV2Router */\n    tag_5:\n      callvalue\n      dup1\n      iszero\n      tag_46\n      jumpi\n      0x00\n      dup1\n      revert\n    tag_46:\n      pop\n      tag_47\n      tag_48\n      jump\t// in\n    tag_47:\n      mload(0x40)\n      tag_49\n      swap2\n      swap1\n      tag_50\n      jump\t// in\n    tag_49:\n      mload(0x40)\n      dup1\n      swap2\n      sub\n      swap1\n      return\n        /* \"contracts/Pool/Pool.sol\":6454:6547  function totalSupply() public pure override returns (uint256) {... */\n    tag_6:\n      callvalue\n      dup1\n      iszero\n      tag_51\n      jumpi\n      0x00\n      dup1\n      revert\n    tag_51:\n      pop\n      tag_52\n      tag_53\n      jump\t// in\n    tag_52:\n      mload(0x40)\n      tag_54\n      swap2\n      swap1\n      tag_55\n      jump\t// in\n    tag_54:\n      mload(0x40)\n      dup1\n      swap2\n      sub\n      swap1\n      return\n        /* \"contracts/Pool/Pool.sol\":7176:7485  function transferFrom(address sender, address recipient, uint256 amount) public override returns (bool) {... */\n    tag_7:\n      callvalue\n      dup1\n      iszero\n      tag_56\n      jumpi\n      0x00\n      dup1\n      revert\n    tag_56:\n      pop\n      tag_57\n      0x04\n      dup1\n      calldatasize\n      sub\n      dup2\n      add\n      swap1\n      tag_58\n      swap2\n      swap1\n      tag_59\n      jump\t// in\n    tag_58:\n      tag_60\n      jump\t// in\n    tag_57:\n      mload(0x40)\n      tag_61\n      swap2\n      swap1\n      tag_45\n      jump\t// in\n    tag_61:\n      mload(0x40)\n      dup1\n      swap2\n      sub\n      swap1\n      return\n        /* \"contracts/Pool/Pool.sol\":6367:6448  function decimals() public pure returns (uint8) {... */\n    tag_8:\n      callvalue\n      dup1\n      iszero\n      tag_62\n      jumpi\n      0x00\n      dup1\n      revert\n    tag_62:\n      pop\n      tag_63\n      tag_64\n      jump\t// in\n    tag_63:\n      mload(0x40)\n      tag_65\n      swap2\n      swap1\n      tag_66\n      jump\t// in\n    tag_65:\n      mload(0x40)\n      dup1\n      swap2\n      sub\n      swap1\n      return\n        /* \"contracts/Pool/Pool.sol\":4992:5020  address public uniswapV2Pair */\n    tag_9:\n      callvalue\n      dup1\n      iszero\n      tag_67\n      jumpi\n      0x00\n      dup1\n      revert\n    tag_67:\n      pop\n      tag_68\n      tag_69\n      jump\t// in\n    tag_68:\n      mload(0x40)\n      tag_70\n      swap2\n      swap1\n      tag_71\n      jump\t// in\n    tag_70:\n      mload(0x40)\n      dup1\n      swap2\n      sub\n      swap1\n      return\n        /* \"contracts/Pool/Pool.sol\":4915:4956  IUniswapV2Factory public uniswapV2Factory */\n    tag_10:\n      callvalue\n      dup1\n      iszero\n      tag_72\n      jumpi\n      0x00\n      dup1\n      revert\n    tag_72:\n      pop\n      tag_73\n      tag_74\n      jump\t// in\n    tag_73:\n      mload(0x40)\n      tag_75\n      swap2\n      swap1\n      tag_76\n      jump\t// in\n    tag_75:\n      mload(0x40)\n      dup1\n      swap2\n      sub\n      swap1\n      return\n        /* \"contracts/Pool/Pool.sol\":15167:15264  function toggleSwap(bool _swapEnabled) public onlyDev {... */\n    tag_11:\n      callvalue\n      dup1\n      iszero\n      tag_77\n      jumpi\n      0x00\n      dup1\n      revert\n    tag_77:\n      pop\n      tag_78\n      0x04\n      dup1\n      calldatasize\n      sub\n      dup2\n      add\n      swap1\n      tag_79\n      swap2\n      swap1\n      tag_80\n      jump\t// in\n    tag_79:\n      tag_81\n      jump\t// in\n    tag_78:\n      stop\n        /* \"contracts/Pool/Pool.sol\":14347:14605  function manualsend() external {... */\n    tag_12:\n      callvalue\n      dup1\n      iszero\n      tag_82\n      jumpi\n      0x00\n      dup1\n      revert\n    tag_82:\n      pop\n      tag_83\n      tag_84\n      jump\t// in\n    tag_83:\n      stop\n        /* \"contracts/Pool/Pool.sol\":6553:6689  function balanceOf(address account) public view override returns (uint256) {... */\n    tag_13:\n      callvalue\n      dup1\n      iszero\n      tag_85\n      jumpi\n      0x00\n      dup1\n      revert\n    tag_85:\n      pop\n      tag_86\n      0x04\n      dup1\n      calldatasize\n      sub\n      dup2\n      add\n      swap1\n      tag_87\n      swap2\n      swap1\n      tag_88\n      jump\t// in\n    tag_87:\n      tag_89\n      jump\t// in\n    tag_86:\n      mload(0x40)\n      tag_90\n      swap2\n      swap1\n      tag_55\n      jump\t// in\n    tag_90:\n      mload(0x40)\n      dup1\n      swap2\n      sub\n      swap1\n      return\n        /* \"contracts/Pool/Pool.sol\":3319:3464  function renounceOwnership() public virtual onlyOwner {... */\n    tag_14:\n      callvalue\n      dup1\n      iszero\n      tag_91\n      jumpi\n      0x00\n      dup1\n      revert\n    tag_91:\n      pop\n      tag_92\n      tag_93\n      jump\t// in\n    tag_92:\n      stop\n        /* \"contracts/Pool/Pool.sol\":11296:11529  function setNewMarketingAddress(address payable markt) public onlyDev() {... */\n    tag_15:\n      callvalue\n      dup1\n      iszero\n      tag_94\n      jumpi\n      0x00\n      dup1\n      revert\n    tag_94:\n      pop\n      tag_95\n      0x04\n      dup1\n      calldatasize\n      sub\n      dup2\n      add\n      swap1\n      tag_96\n      swap2\n      swap1\n      tag_97\n      jump\t// in\n    tag_96:\n      tag_98\n      jump\t// in\n    tag_95:\n      stop\n        /* \"contracts/Pool/Pool.sol\":3123:3200  function owner() public view returns (address) {... */\n    tag_16:\n      callvalue\n      dup1\n      iszero\n      tag_99\n      jumpi\n      0x00\n      dup1\n      revert\n    tag_99:\n      pop\n      tag_100\n      tag_101\n      jump\t// in\n    tag_100:\n      mload(0x40)\n      tag_102\n      swap2\n      swap1\n      tag_71\n      jump\t// in\n    tag_102:\n      mload(0x40)\n      dup1\n      swap2\n      sub\n      swap1\n      return\n        /* \"contracts/Pool/Pool.sol\":6276:6361  function symbol() public pure returns (string memory) {... */\n    tag_17:\n      callvalue\n      dup1\n      iszero\n      tag_103\n      jumpi\n      0x00\n      dup1\n      revert\n    tag_103:\n      pop\n      tag_104\n      tag_105\n      jump\t// in\n    tag_104:\n      mload(0x40)\n      tag_106\n      swap2\n      swap1\n      tag_38\n      jump\t// in\n    tag_106:\n      mload(0x40)\n      dup1\n      swap2\n      sub\n      swap1\n      return\n        /* \"contracts/Pool/Pool.sol\":14615:15157  function setFee(uint256 redisFeeOnBuy, uint256 redisFeeOnSell, uint256 taxFeeOnBuy, uint256 taxFeeOnSell) public onlyDev {... */\n    tag_18:\n      callvalue\n      dup1\n      iszero\n      tag_107\n      jumpi\n      0x00\n      dup1\n      revert\n    tag_107:\n      pop\n      tag_108\n      0x04\n      dup1\n      calldatasize\n      sub\n      dup2\n      add\n      swap1\n      tag_109\n      swap2\n      swap1\n      tag_110\n      jump\t// in\n    tag_109:\n      tag_111\n      jump\t// in\n    tag_108:\n      stop\n        /* \"contracts/Pool/Pool.sol\":6695:6859  function transfer(address recipient, uint256 amount) public override returns (bool) {... */\n    tag_19:\n      callvalue\n      dup1\n      iszero\n      tag_112\n      jumpi\n      0x00\n      dup1\n      revert\n    tag_112:\n      pop\n      tag_113\n      0x04\n      dup1\n      calldatasize\n      sub\n      dup2\n      add\n      swap1\n      tag_114\n      swap2\n      swap1\n      tag_42\n      jump\t// in\n    tag_114:\n      tag_115\n      jump\t// in\n    tag_113:\n      mload(0x40)\n      tag_116\n      swap2\n      swap1\n      tag_45\n      jump\t// in\n    tag_116:\n      mload(0x40)\n      dup1\n      swap2\n      sub\n      swap1\n      return\n        /* \"contracts/Pool/Pool.sol\":10983:11204  function setNewDevAddress(address payable dev) public onlyDev() {... */\n    tag_20:\n      callvalue\n      dup1\n      iszero\n      tag_117\n      jumpi\n      0x00\n      dup1\n      revert\n    tag_117:\n      pop\n      tag_118\n      0x04\n      dup1\n      calldatasize\n      sub\n      dup2\n      add\n      swap1\n      tag_119\n      swap2\n      swap1\n      tag_97\n      jump\t// in\n    tag_119:\n      tag_120\n      jump\t// in\n    tag_118:\n      stop\n        /* \"contracts/Pool/Pool.sol\":14082:14341  function manualswap() external {... */\n    tag_21:\n      callvalue\n      dup1\n      iszero\n      tag_121\n      jumpi\n      0x00\n      dup1\n      revert\n    tag_121:\n      pop\n      tag_122\n      tag_123\n      jump\t// in\n    tag_122:\n      stop\n        /* \"contracts/Pool/Pool.sol\":15270:15500  function excludeMultipleAccountsFromFees(address[] calldata accounts, bool excluded) public onlyOwner {... */\n    tag_22:\n      callvalue\n      dup1\n      iszero\n      tag_124\n      jumpi\n      0x00\n      dup1\n      revert\n    tag_124:\n      pop\n      tag_125\n      0x04\n      dup1\n      calldatasize\n      sub\n      dup2\n      add\n      swap1\n      tag_126\n      swap2\n      swap1\n      tag_127\n      jump\t// in\n    tag_126:\n      tag_128\n      jump\t// in\n    tag_125:\n      stop\n        /* \"contracts/Pool/Pool.sol\":4963:4986  address public _factory */\n    tag_23:\n      callvalue\n      dup1\n      iszero\n      tag_129\n      jumpi\n      0x00\n      dup1\n      revert\n    tag_129:\n      pop\n      tag_130\n      tag_131\n      jump\t// in\n    tag_130:\n      mload(0x40)\n      tag_132\n      swap2\n      swap1\n      tag_71\n      jump\t// in\n    tag_132:\n      mload(0x40)\n      dup1\n      swap2\n      sub\n      swap1\n      return\n        /* \"contracts/Pool/Pool.sol\":9574:9803  function settingPair(address tokenB) public onlyOwner { ... */\n    tag_24:\n      callvalue\n      dup1\n      iszero\n      tag_133\n      jumpi\n      0x00\n      dup1\n      revert\n    tag_133:\n      pop\n      tag_134\n      0x04\n      dup1\n      calldatasize\n      sub\n      dup2\n      add\n      swap1\n      tag_135\n      swap2\n      swap1\n      tag_88\n      jump\t// in\n    tag_135:\n      tag_136\n      jump\t// in\n    tag_134:\n      stop\n        /* \"contracts/Pool/Pool.sol\":6865:7006  function allowance(address owner, address spender) public view override returns (uint256) {... */\n    tag_25:\n      callvalue\n      dup1\n      iszero\n      tag_137\n      jumpi\n      0x00\n      dup1\n      revert\n    tag_137:\n      pop\n      tag_138\n      0x04\n      dup1\n      calldatasize\n      sub\n      dup2\n      add\n      swap1\n      tag_139\n      swap2\n      swap1\n      tag_140\n      jump\t// in\n    tag_139:\n      tag_141\n      jump\t// in\n    tag_138:\n      mload(0x40)\n      tag_142\n      swap2\n      swap1\n      tag_55\n      jump\t// in\n    tag_142:\n      mload(0x40)\n      dup1\n      swap2\n      sub\n      swap1\n      return\n        /* \"contracts/Pool/Pool.sol\":10692:10897  function rescueForeignTokens(address _tokenAddr, address _to, uint _amount) public onlyDev() {... */\n    tag_26:\n      callvalue\n      dup1\n      iszero\n      tag_143\n      jumpi\n      0x00\n      dup1\n      revert\n    tag_143:\n      pop\n      tag_144\n      0x04\n      dup1\n      calldatasize\n      sub\n      dup2\n      add\n      swap1\n      tag_145\n      swap2\n      swap1\n      tag_59\n      jump\t// in\n    tag_145:\n      tag_146\n      jump\t// in\n    tag_144:\n      stop\n        /* \"contracts/Pool/Pool.sol\":3563:3720  function transferOwnership(address newOwner) public virtual onlyOwner {... */\n    tag_27:\n      callvalue\n      dup1\n      iszero\n      tag_147\n      jumpi\n      0x00\n      dup1\n      revert\n    tag_147:\n      pop\n      tag_148\n      0x04\n      dup1\n      calldatasize\n      sub\n      dup2\n      add\n      swap1\n      tag_149\n      swap2\n      swap1\n      tag_88\n      jump\t// in\n    tag_149:\n      tag_150\n      jump\t// in\n    tag_148:\n      stop\n        /* \"contracts/Pool/Pool.sol\":6189:6270  function name() public pure returns (string memory) {... */\n    tag_36:\n        /* \"contracts/Pool/Pool.sol\":6226:6239  string memory */\n      0x60\n        /* \"contracts/Pool/Pool.sol\":6258:6263  _name */\n      mload(0x40)\n      dup1\n      0x40\n      add\n      0x40\n      mstore\n      dup1\n      0x0a\n      dup2\n      mstore\n      0x20\n      add\n      0x576f726c64205374657000000000000000000000000000000000000000000000\n      dup2\n      mstore\n      pop\n        /* \"contracts/Pool/Pool.sol\":6251:6263  return _name */\n      swap1\n      pop\n        /* \"contracts/Pool/Pool.sol\":6189:6270  function name() public pure returns (string memory) {... */\n      swap1\n      jump\t// out\n        /* \"contracts/Pool/Pool.sol\":7012:7170  function approve(address spender, uint256 amount) public override returns (bool) {... */\n    tag_43:\n        /* \"contracts/Pool/Pool.sol\":7087:7091  bool */\n      0x00\n        /* \"contracts/Pool/Pool.sol\":7103:7142  _approve(_msgSender(), spender, amount) */\n      tag_153\n        /* \"contracts/Pool/Pool.sol\":7112:7124  _msgSender() */\n      tag_154\n        /* \"contracts/Pool/Pool.sol\":7112:7122  _msgSender */\n      tag_155\n        /* \"contracts/Pool/Pool.sol\":7112:7124  _msgSender() */\n      jump\t// in\n    tag_154:\n        /* \"contracts/Pool/Pool.sol\":7126:7133  spender */\n      dup5\n        /* \"contracts/Pool/Pool.sol\":7135:7141  amount */\n      dup5\n        /* \"contracts/Pool/Pool.sol\":7103:7111  _approve */\n      tag_156\n        /* \"contracts/Pool/Pool.sol\":7103:7142  _approve(_msgSender(), spender, amount) */\n      jump\t// in\n    tag_153:\n        /* \"contracts/Pool/Pool.sol\":7159:7163  true */\n      0x01\n        /* \"contracts/Pool/Pool.sol\":7152:7163  return true */\n      swap1\n      pop\n        /* \"contracts/Pool/Pool.sol\":7012:7170  function approve(address spender, uint256 amount) public override returns (bool) {... */\n      swap3\n      swap2\n      pop\n      pop\n      jump\t// out\n        /* \"contracts/Pool/Pool.sol\":4868:4909  IUniswapV2Router02 public uniswapV2Router */\n    tag_48:\n      0x10\n      0x00\n      swap1\n      sload\n      swap1\n      0x0100\n      exp\n      swap1\n      div\n      0xffffffffffffffffffffffffffffffffffffffff\n      and\n      dup2\n      jump\t// out\n        /* \"contracts/Pool/Pool.sol\":6454:6547  function totalSupply() public pure override returns (uint256) {... */\n    tag_53:\n        /* \"contracts/Pool/Pool.sol\":6507:6514  uint256 */\n      0x00\n        /* \"contracts/Pool/Pool.sol\":4138:4151  1*10**9*10**9 */\n      0x0de0b6b3a7640000\n        /* \"contracts/Pool/Pool.sol\":6526:6540  return _tTotal */\n      swap1\n      pop\n        /* \"contracts/Pool/Pool.sol\":6454:6547  function totalSupply() public pure override returns (uint256) {... */\n      swap1\n      jump\t// out\n        /* \"contracts/Pool/Pool.sol\":7176:7485  function transferFrom(address sender, address recipient, uint256 amount) public override returns (bool) {... */\n    tag_60:\n        /* \"contracts/Pool/Pool.sol\":7274:7278  bool */\n      0x00\n        /* \"contracts/Pool/Pool.sol\":7290:7326  _transfer(sender, recipient, amount) */\n      tag_159\n        /* \"contracts/Pool/Pool.sol\":7300:7306  sender */\n      dup5\n        /* \"contracts/Pool/Pool.sol\":7308:7317  recipient */\n      dup5\n        /* \"contracts/Pool/Pool.sol\":7319:7325  amount */\n      dup5\n        /* \"contracts/Pool/Pool.sol\":7290:7299  _transfer */\n      tag_160\n        /* \"contracts/Pool/Pool.sol\":7290:7326  _transfer(sender, recipient, amount) */\n      jump\t// in\n    tag_159:\n        /* \"contracts/Pool/Pool.sol\":7336:7457  _approve(sender, _msgSender(), _allowances[sender][_msgSender()].sub(amount, \"ERC20: transfer amount exceeds allowance\")) */\n      tag_161\n        /* \"contracts/Pool/Pool.sol\":7345:7351  sender */\n      dup5\n        /* \"contracts/Pool/Pool.sol\":7353:7365  _msgSender() */\n      tag_162\n        /* \"contracts/Pool/Pool.sol\":7353:7363  _msgSender */\n      tag_155\n        /* \"contracts/Pool/Pool.sol\":7353:7365  _msgSender() */\n      jump\t// in\n    tag_162:\n        /* \"contracts/Pool/Pool.sol\":7367:7456  _allowances[sender][_msgSender()].sub(amount, \"ERC20: transfer amount exceeds allowance\") */\n      tag_163\n        /* \"contracts/Pool/Pool.sol\":7405:7411  amount */\n      dup6\n        /* \"contracts/Pool/Pool.sol\":7367:7456  _allowances[sender][_msgSender()].sub(amount, \"ERC20: transfer amount exceeds allowance\") */\n      mload(0x40)\n      dup1\n      0x60\n      add\n      0x40\n      mstore\n      dup1\n      0x28\n      dup2\n      mstore\n      0x20\n      add\n      data_974d1b4421da69cc60b481194f0dad36a5bb4e23da810da7a7fb30cdba178330\n      0x28\n      swap2\n      codecopy\n        /* \"contracts/Pool/Pool.sol\":7367:7378  _allowances */\n      0x04\n        /* \"contracts/Pool/Pool.sol\":7367:7386  _allowances[sender] */\n      0x00\n        /* \"contracts/Pool/Pool.sol\":7379:7385  sender */\n      dup12\n        /* \"contracts/Pool/Pool.sol\":7367:7386  _allowances[sender] */\n      0xffffffffffffffffffffffffffffffffffffffff\n      and\n      0xffffffffffffffffffffffffffffffffffffffff\n      and\n      dup2\n      mstore\n      0x20\n      add\n      swap1\n      dup2\n      mstore\n      0x20\n      add\n      0x00\n      keccak256\n        /* \"contracts/Pool/Pool.sol\":7367:7400  _allowances[sender][_msgSender()] */\n      0x00\n        /* \"contracts/Pool/Pool.sol\":7387:7399  _msgSender() */\n      tag_164\n        /* \"contracts/Pool/Pool.sol\":7387:7397  _msgSender */\n      tag_155\n        /* \"contracts/Pool/Pool.sol\":7387:7399  _msgSender() */\n      jump\t// in\n    tag_164:\n        /* \"contracts/Pool/Pool.sol\":7367:7400  _allowances[sender][_msgSender()] */\n      0xffffffffffffffffffffffffffffffffffffffff\n      and\n      0xffffffffffffffffffffffffffffffffffffffff\n      and\n      dup2\n      mstore\n      0x20\n      add\n      swap1\n      dup2\n      mstore\n      0x20\n      add\n      0x00\n      keccak256\n      sload\n        /* \"contracts/Pool/Pool.sol\":7367:7404  _allowances[sender][_msgSender()].sub */\n      tag_165\n      swap1\n        /* \"contracts/Pool/Pool.sol\":7367:7456  _allowances[sender][_msgSender()].sub(amount, \"ERC20: transfer amount exceeds allowance\") */\n      swap3\n      swap2\n      swap1\n      0xffffffff\n      and\n      jump\t// in\n    tag_163:\n        /* \"contracts/Pool/Pool.sol\":7336:7344  _approve */\n      tag_156\n        /* \"contracts/Pool/Pool.sol\":7336:7457  _approve(sender, _msgSender(), _allowances[sender][_msgSender()].sub(amount, \"ERC20: transfer amount exceeds allowance\")) */\n      jump\t// in\n    tag_161:\n        /* \"contracts/Pool/Pool.sol\":7474:7478  true */\n      0x01\n        /* \"contracts/Pool/Pool.sol\":7467:7478  return true */\n      swap1\n      pop\n        /* \"contracts/Pool/Pool.sol\":7176:7485  function transferFrom(address sender, address recipient, uint256 amount) public override returns (bool) {... */\n      swap4\n      swap3\n      pop\n      pop\n      pop\n      jump\t// out\n        /* \"contracts/Pool/Pool.sol\":6367:6448  function decimals() public pure returns (uint8) {... */\n    tag_64:\n        /* \"contracts/Pool/Pool.sol\":6408:6413  uint8 */\n      0x00\n        /* \"contracts/Pool/Pool.sol\":4651:4652  9 */\n      0x09\n        /* \"contracts/Pool/Pool.sol\":6425:6441  return _decimals */\n      swap1\n      pop\n        /* \"contracts/Pool/Pool.sol\":6367:6448  function decimals() public pure returns (uint8) {... */\n      swap1\n      jump\t// out\n        /* \"contracts/Pool/Pool.sol\":4992:5020  address public uniswapV2Pair */\n    tag_69:\n      0x13\n      0x00\n      swap1\n      sload\n      swap1\n      0x0100\n      exp\n      swap1\n      div\n      0xffffffffffffffffffffffffffffffffffffffff\n      and\n      dup2\n      jump\t// out\n        /* \"contracts/Pool/Pool.sol\":4915:4956  IUniswapV2Factory public uniswapV2Factory */\n    tag_74:\n      0x11\n      0x00\n      swap1\n      sload\n      swap1\n      0x0100\n      exp\n      swap1\n      div\n      0xffffffffffffffffffffffffffffffffffffffff\n      and\n      dup2\n      jump\t// out\n        /* \"contracts/Pool/Pool.sol\":15167:15264  function toggleSwap(bool _swapEnabled) public onlyDev {... */\n    tag_81:\n        /* \"contracts/Pool/Pool.sol\":6086:6098  _msgSender() */\n      tag_168\n        /* \"contracts/Pool/Pool.sol\":6086:6096  _msgSender */\n      tag_155\n        /* \"contracts/Pool/Pool.sol\":6086:6098  _msgSender() */\n      jump\t// in\n    tag_168:\n        /* \"contracts/Pool/Pool.sol\":6075:6098  owner() == _msgSender() */\n      0xffffffffffffffffffffffffffffffffffffffff\n      and\n        /* \"contracts/Pool/Pool.sol\":6075:6082  owner() */\n      tag_169\n        /* \"contracts/Pool/Pool.sol\":6075:6080  owner */\n      tag_101\n        /* \"contracts/Pool/Pool.sol\":6075:6082  owner() */\n      jump\t// in\n    tag_169:\n        /* \"contracts/Pool/Pool.sol\":6075:6098  owner() == _msgSender() */\n      0xffffffffffffffffffffffffffffffffffffffff\n      and\n      eq\n        /* \"contracts/Pool/Pool.sol\":6075:6137  owner() == _msgSender() || _developmentAddress == _msgSender() */\n      dup1\n      tag_170\n      jumpi\n      pop\n        /* \"contracts/Pool/Pool.sol\":6125:6137  _msgSender() */\n      tag_171\n        /* \"contracts/Pool/Pool.sol\":6125:6135  _msgSender */\n      tag_155\n        /* \"contracts/Pool/Pool.sol\":6125:6137  _msgSender() */\n      jump\t// in\n    tag_171:\n        /* \"contracts/Pool/Pool.sol\":6102:6137  _developmentAddress == _msgSender() */\n      0xffffffffffffffffffffffffffffffffffffffff\n      and\n        /* \"contracts/Pool/Pool.sol\":6102:6121  _developmentAddress */\n      0x0e\n      0x01\n      swap1\n      sload\n      swap1\n      0x0100\n      exp\n      swap1\n      div\n      0xffffffffffffffffffffffffffffffffffffffff\n      and\n        /* \"contracts/Pool/Pool.sol\":6102:6137  _developmentAddress == _msgSender() */\n      0xffffffffffffffffffffffffffffffffffffffff\n      and\n      eq\n        /* \"contracts/Pool/Pool.sol\":6075:6137  owner() == _msgSender() || _developmentAddress == _msgSender() */\n    tag_170:\n        /* \"contracts/Pool/Pool.sol\":6067:6163  require(owner() == _msgSender() || _developmentAddress == _msgSender(), \"Caller is not the dev\") */\n      tag_172\n      jumpi\n      mload(0x40)\n      0x08c379a000000000000000000000000000000000000000000000000000000000\n      dup2\n      mstore\n      0x04\n      add\n      tag_173\n      swap1\n      tag_174\n      jump\t// in\n    tag_173:\n      mload(0x40)\n      dup1\n      swap2\n      sub\n      swap1\n      revert\n    tag_172:\n        /* \"contracts/Pool/Pool.sol\":15245:15257  _swapEnabled */\n      dup1\n        /* \"contracts/Pool/Pool.sol\":15231:15242  swapEnabled */\n      0x13\n      0x15\n        /* \"contracts/Pool/Pool.sol\":15231:15257  swapEnabled = _swapEnabled */\n      0x0100\n      exp\n      dup2\n      sload\n      dup2\n      0xff\n      mul\n      not\n      and\n      swap1\n      dup4\n      iszero\n      iszero\n      mul\n      or\n      swap1\n      sstore\n      pop\n        /* \"contracts/Pool/Pool.sol\":15167:15264  function toggleSwap(bool _swapEnabled) public onlyDev {... */\n      pop\n      jump\t// out\n        /* \"contracts/Pool/Pool.sol\":14347:14605  function manualsend() external {... */\n    tag_84:\n        /* \"contracts/Pool/Pool.sol\":14412:14431  _developmentAddress */\n      0x0e\n      0x01\n      swap1\n      sload\n      swap1\n      0x0100\n      exp\n      swap1\n      div\n      0xffffffffffffffffffffffffffffffffffffffff\n      and\n        /* \"contracts/Pool/Pool.sol\":14396:14431  _msgSender() == _developmentAddress */\n      0xffffffffffffffffffffffffffffffffffffffff\n      and\n        /* \"contracts/Pool/Pool.sol\":14396:14408  _msgSender() */\n      tag_177\n        /* \"contracts/Pool/Pool.sol\":14396:14406  _msgSender */\n      tag_155\n        /* \"contracts/Pool/Pool.sol\":14396:14408  _msgSender() */\n      jump\t// in\n    tag_177:\n        /* \"contracts/Pool/Pool.sol\":14396:14431  _msgSender() == _developmentAddress */\n      0xffffffffffffffffffffffffffffffffffffffff\n      and\n      eq\n        /* \"contracts/Pool/Pool.sol\":14396:14468  _msgSender() == _developmentAddress || _msgSender() == _marketingAddress */\n      dup1\n      tag_178\n      jumpi\n      pop\n        /* \"contracts/Pool/Pool.sol\":14451:14468  _marketingAddress */\n      0x0f\n      0x00\n      swap1\n      sload\n      swap1\n      0x0100\n      exp\n      swap1\n      div\n      0xffffffffffffffffffffffffffffffffffffffff\n      and\n        /* \"contracts/Pool/Pool.sol\":14435:14468  _msgSender() == _marketingAddress */\n      0xffffffffffffffffffffffffffffffffffffffff\n      and\n        /* \"contracts/Pool/Pool.sol\":14435:14447  _msgSender() */\n      tag_179\n        /* \"contracts/Pool/Pool.sol\":14435:14445  _msgSender */\n      tag_155\n        /* \"contracts/Pool/Pool.sol\":14435:14447  _msgSender() */\n      jump\t// in\n    tag_179:\n        /* \"contracts/Pool/Pool.sol\":14435:14468  _msgSender() == _marketingAddress */\n      0xffffffffffffffffffffffffffffffffffffffff\n      and\n      eq\n        /* \"contracts/Pool/Pool.sol\":14396:14468  _msgSender() == _developmentAddress || _msgSender() == _marketingAddress */\n    tag_178:\n        /* \"contracts/Pool/Pool.sol\":14396:14495  _msgSender() == _developmentAddress || _msgSender() == _marketingAddress || _msgSender() == owner() */\n      dup1\n      tag_180\n      jumpi\n      pop\n        /* \"contracts/Pool/Pool.sol\":14488:14495  owner() */\n      tag_181\n        /* \"contracts/Pool/Pool.sol\":14488:14493  owner */\n      tag_101\n        /* \"contracts/Pool/Pool.sol\":14488:14495  owner() */\n      jump\t// in\n    tag_181:\n        /* \"contracts/Pool/Pool.sol\":14472:14495  _msgSender() == owner() */\n      0xffffffffffffffffffffffffffffffffffffffff\n      and\n        /* \"contracts/Pool/Pool.sol\":14472:14484  _msgSender() */\n      tag_182\n        /* \"contracts/Pool/Pool.sol\":14472:14482  _msgSender */\n      tag_155\n        /* \"contracts/Pool/Pool.sol\":14472:14484  _msgSender() */\n      jump\t// in\n    tag_182:\n        /* \"contracts/Pool/Pool.sol\":14472:14495  _msgSender() == owner() */\n      0xffffffffffffffffffffffffffffffffffffffff\n      and\n      eq\n        /* \"contracts/Pool/Pool.sol\":14396:14495  _msgSender() == _developmentAddress || _msgSender() == _marketingAddress || _msgSender() == owner() */\n    tag_180:\n        /* \"contracts/Pool/Pool.sol\":14388:14496  require(_msgSender() == _developmentAddress || _msgSender() == _marketingAddress || _msgSender() == owner()) */\n      tag_183\n      jumpi\n      0x00\n      dup1\n      revert\n    tag_183:\n        /* \"contracts/Pool/Pool.sol\":14506:14532  uint256 contractETHBalance */\n      0x00\n        /* \"contracts/Pool/Pool.sol\":14535:14556  address(this).balance */\n      selfbalance\n        /* \"contracts/Pool/Pool.sol\":14506:14556  uint256 contractETHBalance = address(this).balance */\n      swap1\n      pop\n        /* \"contracts/Pool/Pool.sol\":14566:14598  sendETHToFee(contractETHBalance) */\n      tag_184\n        /* \"contracts/Pool/Pool.sol\":14579:14597  contractETHBalance */\n      dup2\n        /* \"contracts/Pool/Pool.sol\":14566:14578  sendETHToFee */\n      tag_185\n        /* \"contracts/Pool/Pool.sol\":14566:14598  sendETHToFee(contractETHBalance) */\n      jump\t// in\n    tag_184:\n        /* \"contracts/Pool/Pool.sol\":14347:14605  function manualsend() external {... */\n      pop\n      jump\t// out\n        /* \"contracts/Pool/Pool.sol\":6553:6689  function balanceOf(address account) public view override returns (uint256) {... */\n    tag_89:\n        /* \"contracts/Pool/Pool.sol\":6619:6626  uint256 */\n      0x00\n        /* \"contracts/Pool/Pool.sol\":6645:6682  tokenFromReflection(_rOwned[account]) */\n      tag_187\n        /* \"contracts/Pool/Pool.sol\":6665:6672  _rOwned */\n      0x02\n        /* \"contracts/Pool/Pool.sol\":6665:6681  _rOwned[account] */\n      0x00\n        /* \"contracts/Pool/Pool.sol\":6673:6680  account */\n      dup5\n        /* \"contracts/Pool/Pool.sol\":6665:6681  _rOwned[account] */\n      0xffffffffffffffffffffffffffffffffffffffff\n      and\n      0xffffffffffffffffffffffffffffffffffffffff\n      and\n      dup2\n      mstore\n      0x20\n      add\n      swap1\n      dup2\n      mstore\n      0x20\n      add\n      0x00\n      keccak256\n      sload\n        /* \"contracts/Pool/Pool.sol\":6645:6664  tokenFromReflection */\n      tag_188\n        /* \"contracts/Pool/Pool.sol\":6645:6682  tokenFromReflection(_rOwned[account]) */\n      jump\t// in\n    tag_187:\n        /* \"contracts/Pool/Pool.sol\":6638:6682  return tokenFromReflection(_rOwned[account]) */\n      swap1\n      pop\n        /* \"contracts/Pool/Pool.sol\":6553:6689  function balanceOf(address account) public view override returns (uint256) {... */\n      swap2\n      swap1\n      pop\n      jump\t// out\n        /* \"contracts/Pool/Pool.sol\":3319:3464  function renounceOwnership() public virtual onlyOwner {... */\n    tag_93:\n        /* \"contracts/Pool/Pool.sol\":3255:3267  _msgSender() */\n      tag_190\n        /* \"contracts/Pool/Pool.sol\":3255:3265  _msgSender */\n      tag_155\n        /* \"contracts/Pool/Pool.sol\":3255:3267  _msgSender() */\n      jump\t// in\n    tag_190:\n        /* \"contracts/Pool/Pool.sol\":3245:3267  _owner == _msgSender() */\n      0xffffffffffffffffffffffffffffffffffffffff\n      and\n        /* \"contracts/Pool/Pool.sol\":3245:3251  _owner */\n      0x00\n      dup1\n      sload\n      swap1\n      0x0100\n      exp\n      swap1\n      div\n      0xffffffffffffffffffffffffffffffffffffffff\n      and\n        /* \"contracts/Pool/Pool.sol\":3245:3267  _owner == _msgSender() */\n      0xffffffffffffffffffffffffffffffffffffffff\n      and\n      eq\n        /* \"contracts/Pool/Pool.sol\":3237:3295  require(_owner == _msgSender(), \"Caller is not the owner\") */\n      tag_191\n      jumpi\n      mload(0x40)\n      0x08c379a000000000000000000000000000000000000000000000000000000000\n      dup2\n      mstore\n      0x04\n      add\n      tag_192\n      swap1\n      tag_193\n      jump\t// in\n    tag_192:\n      mload(0x40)\n      dup1\n      swap2\n      sub\n      swap1\n      revert\n    tag_191:\n        /* \"contracts/Pool/Pool.sol\":3425:3426  0 */\n      0x00\n        /* \"contracts/Pool/Pool.sol\":3388:3428  OwnershipTransferred(_owner, address(0)) */\n      0xffffffffffffffffffffffffffffffffffffffff\n      and\n        /* \"contracts/Pool/Pool.sol\":3409:3415  _owner */\n      0x00\n      dup1\n      sload\n      swap1\n      0x0100\n      exp\n      swap1\n      div\n      0xffffffffffffffffffffffffffffffffffffffff\n      and\n        /* \"contracts/Pool/Pool.sol\":3388:3428  OwnershipTransferred(_owner, address(0)) */\n      0xffffffffffffffffffffffffffffffffffffffff\n      and\n      0x8be0079c531659141344cd1fd0a4f28419497f9722a3daafe3b4186f6b6457e0\n      mload(0x40)\n      mload(0x40)\n      dup1\n      swap2\n      sub\n      swap1\n      log3\n        /* \"contracts/Pool/Pool.sol\":3455:3456  0 */\n      0x00\n        /* \"contracts/Pool/Pool.sol\":3438:3444  _owner */\n      dup1\n      0x00\n        /* \"contracts/Pool/Pool.sol\":3438:3457  _owner = address(0) */\n      0x0100\n      exp\n      dup2\n      sload\n      dup2\n      0xffffffffffffffffffffffffffffffffffffffff\n      mul\n      not\n      and\n      swap1\n      dup4\n      0xffffffffffffffffffffffffffffffffffffffff\n      and\n      mul\n      or\n      swap1\n      sstore\n      pop\n        /* \"contracts/Pool/Pool.sol\":3319:3464  function renounceOwnership() public virtual onlyOwner {... */\n      jump\t// out\n        /* \"contracts/Pool/Pool.sol\":11296:11529  function setNewMarketingAddress(address payable markt) public onlyDev() {... */\n    tag_98:\n        /* \"contracts/Pool/Pool.sol\":6086:6098  _msgSender() */\n      tag_196\n        /* \"contracts/Pool/Pool.sol\":6086:6096  _msgSender */\n      tag_155\n        /* \"contracts/Pool/Pool.sol\":6086:6098  _msgSender() */\n      jump\t// in\n    tag_196:\n        /* \"contracts/Pool/Pool.sol\":6075:6098  owner() == _msgSender() */\n      0xffffffffffffffffffffffffffffffffffffffff\n      and\n        /* \"contracts/Pool/Pool.sol\":6075:6082  owner() */\n      tag_197\n        /* \"contracts/Pool/Pool.sol\":6075:6080  owner */\n      tag_101\n        /* \"contracts/Pool/Pool.sol\":6075:6082  owner() */\n      jump\t// in\n    tag_197:\n        /* \"contracts/Pool/Pool.sol\":6075:6098  owner() == _msgSender() */\n      0xffffffffffffffffffffffffffffffffffffffff\n      and\n      eq\n        /* \"contracts/Pool/Pool.sol\":6075:6137  owner() == _msgSender() || _developmentAddress == _msgSender() */\n      dup1\n      tag_198\n      jumpi\n      pop\n        /* \"contracts/Pool/Pool.sol\":6125:6137  _msgSender() */\n      tag_199\n        /* \"contracts/Pool/Pool.sol\":6125:6135  _msgSender */\n      tag_155\n        /* \"contracts/Pool/Pool.sol\":6125:6137  _msgSender() */\n      jump\t// in\n    tag_199:\n        /* \"contracts/Pool/Pool.sol\":6102:6137  _developmentAddress == _msgSender() */\n      0xffffffffffffffffffffffffffffffffffffffff\n      and\n        /* \"contracts/Pool/Pool.sol\":6102:6121  _developmentAddress */\n      0x0e\n      0x01\n      swap1\n      sload\n      swap1\n      0x0100\n      exp\n      swap1\n      div\n      0xffffffffffffffffffffffffffffffffffffffff\n      and\n        /* \"contracts/Pool/Pool.sol\":6102:6137  _developmentAddress == _msgSender() */\n      0xffffffffffffffffffffffffffffffffffffffff\n      and\n      eq\n        /* \"contracts/Pool/Pool.sol\":6075:6137  owner() == _msgSender() || _developmentAddress == _msgSender() */\n    tag_198:\n        /* \"contracts/Pool/Pool.sol\":6067:6163  require(owner() == _msgSender() || _developmentAddress == _msgSender(), \"Caller is not the dev\") */\n      tag_200\n      jumpi\n      mload(0x40)\n      0x08c379a000000000000000000000000000000000000000000000000000000000\n      dup2\n      mstore\n      0x04\n      add\n      tag_201\n      swap1\n      tag_174\n      jump\t// in\n    tag_201:\n      mload(0x40)\n      dup1\n      swap2\n      sub\n      swap1\n      revert\n    tag_200:\n        /* \"contracts/Pool/Pool.sol\":11426:11431  markt */\n      dup1\n        /* \"contracts/Pool/Pool.sol\":11383:11432  marketingAddressUpdated(_marketingAddress, markt) */\n      0xffffffffffffffffffffffffffffffffffffffff\n      and\n        /* \"contracts/Pool/Pool.sol\":11407:11424  _marketingAddress */\n      0x0f\n      0x00\n      swap1\n      sload\n      swap1\n      0x0100\n      exp\n      swap1\n      div\n      0xffffffffffffffffffffffffffffffffffffffff\n      and\n        /* \"contracts/Pool/Pool.sol\":11383:11432  marketingAddressUpdated(_marketingAddress, markt) */\n      0xffffffffffffffffffffffffffffffffffffffff\n      and\n      0xa64373a629bc0c09eacf8a9cc2c7b070fa0a8b7e2e9b8aaee408a3c02eb1676b\n      mload(0x40)\n      mload(0x40)\n      dup1\n      swap2\n      sub\n      swap1\n      log3\n        /* \"contracts/Pool/Pool.sol\":11463:11468  markt */\n      dup1\n        /* \"contracts/Pool/Pool.sol\":11443:11460  _marketingAddress */\n      0x0f\n      0x00\n        /* \"contracts/Pool/Pool.sol\":11443:11468  _marketingAddress = markt */\n      0x0100\n      exp\n      dup2\n      sload\n      dup2\n      0xffffffffffffffffffffffffffffffffffffffff\n      mul\n      not\n      and\n      swap1\n      dup4\n      0xffffffffffffffffffffffffffffffffffffffff\n      and\n      mul\n      or\n      swap1\n      sstore\n      pop\n        /* \"contracts/Pool/Pool.sol\":11518:11522  true */\n      0x01\n        /* \"contracts/Pool/Pool.sol\":11478:11496  _isExcludedFromFee */\n      0x05\n        /* \"contracts/Pool/Pool.sol\":11478:11515  _isExcludedFromFee[_marketingAddress] */\n      0x00\n        /* \"contracts/Pool/Pool.sol\":11497:11514  _marketingAddress */\n      0x0f\n      0x00\n      swap1\n      sload\n      swap1\n      0x0100\n      exp\n      swap1\n      div\n      0xffffffffffffffffffffffffffffffffffffffff\n      and\n        /* \"contracts/Pool/Pool.sol\":11478:11515  _isExcludedFromFee[_marketingAddress] */\n      0xffffffffffffffffffffffffffffffffffffffff\n      and\n      0xffffffffffffffffffffffffffffffffffffffff\n      and\n      dup2\n      mstore\n      0x20\n      add\n      swap1\n      dup2\n      mstore\n      0x20\n      add\n      0x00\n      keccak256\n      0x00\n        /* \"contracts/Pool/Pool.sol\":11478:11522  _isExcludedFromFee[_marketingAddress] = true */\n      0x0100\n      exp\n      dup2\n      sload\n      dup2\n      0xff\n      mul\n      not\n      and\n      swap1\n      dup4\n      iszero\n      iszero\n      mul\n      or\n      swap1\n      sstore\n      pop\n        /* \"contracts/Pool/Pool.sol\":11296:11529  function setNewMarketingAddress(address payable markt) public onlyDev() {... */\n      pop\n      jump\t// out\n        /* \"contracts/Pool/Pool.sol\":3123:3200  function owner() public view returns (address) {... */\n    tag_101:\n        /* \"contracts/Pool/Pool.sol\":3161:3168  address */\n      0x00\n        /* \"contracts/Pool/Pool.sol\":3187:3193  _owner */\n      dup1\n      0x00\n      swap1\n      sload\n      swap1\n      0x0100\n      exp\n      swap1\n      div\n      0xffffffffffffffffffffffffffffffffffffffff\n      and\n        /* \"contracts/Pool/Pool.sol\":3180:3193  return _owner */\n      swap1\n      pop\n        /* \"contracts/Pool/Pool.sol\":3123:3200  function owner() public view returns (address) {... */\n      swap1\n      jump\t// out\n        /* \"contracts/Pool/Pool.sol\":6276:6361  function symbol() public pure returns (string memory) {... */\n    tag_105:\n        /* \"contracts/Pool/Pool.sol\":6315:6328  string memory */\n      0x60\n        /* \"contracts/Pool/Pool.sol\":6347:6354  _symbol */\n      mload(0x40)\n      dup1\n      0x40\n      add\n      0x40\n      mstore\n      dup1\n      0x03\n      dup2\n      mstore\n      0x20\n      add\n      0x5753500000000000000000000000000000000000000000000000000000000000\n      dup2\n      mstore\n      pop\n        /* \"contracts/Pool/Pool.sol\":6340:6354  return _symbol */\n      swap1\n      pop\n        /* \"contracts/Pool/Pool.sol\":6276:6361  function symbol() public pure returns (string memory) {... */\n      swap1\n      jump\t// out\n        /* \"contracts/Pool/Pool.sol\":14615:15157  function setFee(uint256 redisFeeOnBuy, uint256 redisFeeOnSell, uint256 taxFeeOnBuy, uint256 taxFeeOnSell) public onlyDev {... */\n    tag_111:\n        /* \"contracts/Pool/Pool.sol\":6086:6098  _msgSender() */\n      tag_206\n        /* \"contracts/Pool/Pool.sol\":6086:6096  _msgSender */\n      tag_155\n        /* \"contracts/Pool/Pool.sol\":6086:6098  _msgSender() */\n      jump\t// in\n    tag_206:\n        /* \"contracts/Pool/Pool.sol\":6075:6098  owner() == _msgSender() */\n      0xffffffffffffffffffffffffffffffffffffffff\n      and\n        /* \"contracts/Pool/Pool.sol\":6075:6082  owner() */\n      tag_207\n        /* \"contracts/Pool/Pool.sol\":6075:6080  owner */\n      tag_101\n        /* \"contracts/Pool/Pool.sol\":6075:6082  owner() */\n      jump\t// in\n    tag_207:\n        /* \"contracts/Pool/Pool.sol\":6075:6098  owner() == _msgSender() */\n      0xffffffffffffffffffffffffffffffffffffffff\n      and\n      eq\n        /* \"contracts/Pool/Pool.sol\":6075:6137  owner() == _msgSender() || _developmentAddress == _msgSender() */\n      dup1\n      tag_208\n      jumpi\n      pop\n        /* \"contracts/Pool/Pool.sol\":6125:6137  _msgSender() */\n      tag_209\n        /* \"contracts/Pool/Pool.sol\":6125:6135  _msgSender */\n      tag_155\n        /* \"contracts/Pool/Pool.sol\":6125:6137  _msgSender() */\n      jump\t// in\n    tag_209:\n        /* \"contracts/Pool/Pool.sol\":6102:6137  _developmentAddress == _msgSender() */\n      0xffffffffffffffffffffffffffffffffffffffff\n      and\n        /* \"contracts/Pool/Pool.sol\":6102:6121  _developmentAddress */\n      0x0e\n      0x01\n      swap1\n      sload\n      swap1\n      0x0100\n      exp\n      swap1\n      div\n      0xffffffffffffffffffffffffffffffffffffffff\n      and\n        /* \"contracts/Pool/Pool.sol\":6102:6137  _developmentAddress == _msgSender() */\n      0xffffffffffffffffffffffffffffffffffffffff\n      and\n      eq\n        /* \"contracts/Pool/Pool.sol\":6075:6137  owner() == _msgSender() || _developmentAddress == _msgSender() */\n    tag_208:\n        /* \"contracts/Pool/Pool.sol\":6067:6163  require(owner() == _msgSender() || _developmentAddress == _msgSender(), \"Caller is not the dev\") */\n      tag_210\n      jumpi\n      mload(0x40)\n      0x08c379a000000000000000000000000000000000000000000000000000000000\n      dup2\n      mstore\n      0x04\n      add\n      tag_211\n      swap1\n      tag_174\n      jump\t// in\n    tag_211:\n      mload(0x40)\n      dup1\n      swap2\n      sub\n      swap1\n      revert\n    tag_210:\n        /* \"contracts/Pool/Pool.sol\":14767:14769  11 */\n      0x0b\n        /* \"contracts/Pool/Pool.sol\":14751:14764  redisFeeOnBuy */\n      dup5\n        /* \"contracts/Pool/Pool.sol\":14751:14769  redisFeeOnBuy < 11 */\n      lt\n        /* \"contracts/Pool/Pool.sol\":14743:14803  require(redisFeeOnBuy < 11, \"Redis cannot be more than 10.\") */\n      tag_213\n      jumpi\n      mload(0x40)\n      0x08c379a000000000000000000000000000000000000000000000000000000000\n      dup2\n      mstore\n      0x04\n      add\n      tag_214\n      swap1\n      tag_215\n      jump\t// in\n    tag_214:\n      mload(0x40)\n      dup1\n      swap2\n      sub\n      swap1\n      revert\n    tag_213:\n        /* \"contracts/Pool/Pool.sol\":14835:14837  11 */\n      0x0b\n        /* \"contracts/Pool/Pool.sol\":14818:14832  redisFeeOnSell */\n      dup4\n        /* \"contracts/Pool/Pool.sol\":14818:14837  redisFeeOnSell < 11 */\n      lt\n        /* \"contracts/Pool/Pool.sol\":14810:14871  require(redisFeeOnSell < 11, \"Redis cannot be more than 10.\") */\n      tag_216\n      jumpi\n      mload(0x40)\n      0x08c379a000000000000000000000000000000000000000000000000000000000\n      dup2\n      mstore\n      0x04\n      add\n      tag_217\n      swap1\n      tag_215\n      jump\t// in\n    tag_217:\n      mload(0x40)\n      dup1\n      swap2\n      sub\n      swap1\n      revert\n    tag_216:\n        /* \"contracts/Pool/Pool.sol\":14900:14901  7 */\n      0x07\n        /* \"contracts/Pool/Pool.sol\":14886:14897  taxFeeOnBuy */\n      dup3\n        /* \"contracts/Pool/Pool.sol\":14886:14901  taxFeeOnBuy < 7 */\n      lt\n        /* \"contracts/Pool/Pool.sol\":14878:14932  require(taxFeeOnBuy < 7, \"Tax cannot be more than 6.\") */\n      tag_218\n      jumpi\n      mload(0x40)\n      0x08c379a000000000000000000000000000000000000000000000000000000000\n      dup2\n      mstore\n      0x04\n      add\n      tag_219\n      swap1\n      tag_220\n      jump\t// in\n    tag_219:\n      mload(0x40)\n      dup1\n      swap2\n      sub\n      swap1\n      revert\n    tag_218:\n        /* \"contracts/Pool/Pool.sol\":14962:14963  7 */\n      0x07\n        /* \"contracts/Pool/Pool.sol\":14947:14959  taxFeeOnSell */\n      dup2\n        /* \"contracts/Pool/Pool.sol\":14947:14963  taxFeeOnSell < 7 */\n      lt\n        /* \"contracts/Pool/Pool.sol\":14939:14994  require(taxFeeOnSell < 7, \"Tax cannot be more than 6.\") */\n      tag_221\n      jumpi\n      mload(0x40)\n      0x08c379a000000000000000000000000000000000000000000000000000000000\n      dup2\n      mstore\n      0x04\n      add\n      tag_222\n      swap1\n      tag_220\n      jump\t// in\n    tag_222:\n      mload(0x40)\n      dup1\n      swap2\n      sub\n      swap1\n      revert\n    tag_221:\n        /* \"contracts/Pool/Pool.sol\":15021:15034  redisFeeOnBuy */\n      dup4\n        /* \"contracts/Pool/Pool.sol\":15004:15018  _redisFeeOnBuy */\n      0x08\n        /* \"contracts/Pool/Pool.sol\":15004:15034  _redisFeeOnBuy = redisFeeOnBuy */\n      dup2\n      swap1\n      sstore\n      pop\n        /* \"contracts/Pool/Pool.sol\":15062:15076  redisFeeOnSell */\n      dup3\n        /* \"contracts/Pool/Pool.sol\":15044:15059  _redisFeeOnSell */\n      0x0a\n        /* \"contracts/Pool/Pool.sol\":15044:15076  _redisFeeOnSell = redisFeeOnSell */\n      dup2\n      swap1\n      sstore\n      pop\n        /* \"contracts/Pool/Pool.sol\":15101:15112  taxFeeOnBuy */\n      dup2\n        /* \"contracts/Pool/Pool.sol\":15086:15098  _taxFeeOnBuy */\n      0x09\n        /* \"contracts/Pool/Pool.sol\":15086:15112  _taxFeeOnBuy = taxFeeOnBuy */\n      dup2\n      swap1\n      sstore\n      pop\n        /* \"contracts/Pool/Pool.sol\":15138:15150  taxFeeOnSell */\n      dup1\n        /* \"contracts/Pool/Pool.sol\":15122:15135  _taxFeeOnSell */\n      0x0b\n        /* \"contracts/Pool/Pool.sol\":15122:15150  _taxFeeOnSell = taxFeeOnSell */\n      dup2\n      swap1\n      sstore\n      pop\n        /* \"contracts/Pool/Pool.sol\":14615:15157  function setFee(uint256 redisFeeOnBuy, uint256 redisFeeOnSell, uint256 taxFeeOnBuy, uint256 taxFeeOnSell) public onlyDev {... */\n      pop\n      pop\n      pop\n      pop\n      jump\t// out\n        /* \"contracts/Pool/Pool.sol\":6695:6859  function transfer(address recipient, uint256 amount) public override returns (bool) {... */\n    tag_115:\n        /* \"contracts/Pool/Pool.sol\":6773:6777  bool */\n      0x00\n        /* \"contracts/Pool/Pool.sol\":6789:6831  _transfer(_msgSender(), recipient, amount) */\n      tag_224\n        /* \"contracts/Pool/Pool.sol\":6799:6811  _msgSender() */\n      tag_225\n        /* \"contracts/Pool/Pool.sol\":6799:6809  _msgSender */\n      tag_155\n        /* \"contracts/Pool/Pool.sol\":6799:6811  _msgSender() */\n      jump\t// in\n    tag_225:\n        /* \"contracts/Pool/Pool.sol\":6813:6822  recipient */\n      dup5\n        /* \"contracts/Pool/Pool.sol\":6824:6830  amount */\n      dup5\n        /* \"contracts/Pool/Pool.sol\":6789:6798  _transfer */\n      tag_160\n        /* \"contracts/Pool/Pool.sol\":6789:6831  _transfer(_msgSender(), recipient, amount) */\n      jump\t// in\n    tag_224:\n        /* \"contracts/Pool/Pool.sol\":6848:6852  true */\n      0x01\n        /* \"contracts/Pool/Pool.sol\":6841:6852  return true */\n      swap1\n      pop\n        /* \"contracts/Pool/Pool.sol\":6695:6859  function transfer(address recipient, uint256 amount) public override returns (bool) {... */\n      swap3\n      swap2\n      pop\n      pop\n      jump\t// out\n        /* \"contracts/Pool/Pool.sol\":10983:11204  function setNewDevAddress(address payable dev) public onlyDev() {... */\n    tag_120:\n        /* \"contracts/Pool/Pool.sol\":6086:6098  _msgSender() */\n      tag_227\n        /* \"contracts/Pool/Pool.sol\":6086:6096  _msgSender */\n      tag_155\n        /* \"contracts/Pool/Pool.sol\":6086:6098  _msgSender() */\n      jump\t// in\n    tag_227:\n        /* \"contracts/Pool/Pool.sol\":6075:6098  owner() == _msgSender() */\n      0xffffffffffffffffffffffffffffffffffffffff\n      and\n        /* \"contracts/Pool/Pool.sol\":6075:6082  owner() */\n      tag_228\n        /* \"contracts/Pool/Pool.sol\":6075:6080  owner */\n      tag_101\n        /* \"contracts/Pool/Pool.sol\":6075:6082  owner() */\n      jump\t// in\n    tag_228:\n        /* \"contracts/Pool/Pool.sol\":6075:6098  owner() == _msgSender() */\n      0xffffffffffffffffffffffffffffffffffffffff\n      and\n      eq\n        /* \"contracts/Pool/Pool.sol\":6075:6137  owner() == _msgSender() || _developmentAddress == _msgSender() */\n      dup1\n      tag_229\n      jumpi\n      pop\n        /* \"contracts/Pool/Pool.sol\":6125:6137  _msgSender() */\n      tag_230\n        /* \"contracts/Pool/Pool.sol\":6125:6135  _msgSender */\n      tag_155\n        /* \"contracts/Pool/Pool.sol\":6125:6137  _msgSender() */\n      jump\t// in\n    tag_230:\n        /* \"contracts/Pool/Pool.sol\":6102:6137  _developmentAddress == _msgSender() */\n      0xffffffffffffffffffffffffffffffffffffffff\n      and\n        /* \"contracts/Pool/Pool.sol\":6102:6121  _developmentAddress */\n      0x0e\n      0x01\n      swap1\n      sload\n      swap1\n      0x0100\n      exp\n      swap1\n      div\n      0xffffffffffffffffffffffffffffffffffffffff\n      and\n        /* \"contracts/Pool/Pool.sol\":6102:6137  _developmentAddress == _msgSender() */\n      0xffffffffffffffffffffffffffffffffffffffff\n      and\n      eq\n        /* \"contracts/Pool/Pool.sol\":6075:6137  owner() == _msgSender() || _developmentAddress == _msgSender() */\n    tag_229:\n        /* \"contracts/Pool/Pool.sol\":6067:6163  require(owner() == _msgSender() || _developmentAddress == _msgSender(), \"Caller is not the dev\") */\n      tag_231\n      jumpi\n      mload(0x40)\n      0x08c379a000000000000000000000000000000000000000000000000000000000\n      dup2\n      mstore\n      0x04\n      add\n      tag_232\n      swap1\n      tag_174\n      jump\t// in\n    tag_232:\n      mload(0x40)\n      dup1\n      swap2\n      sub\n      swap1\n      revert\n    tag_231:\n        /* \"contracts/Pool/Pool.sol\":11101:11104  dev */\n      dup1\n        /* \"contracts/Pool/Pool.sol\":11062:11105  devAddressUpdated(_developmentAddress, dev) */\n      0xffffffffffffffffffffffffffffffffffffffff\n      and\n        /* \"contracts/Pool/Pool.sol\":11080:11099  _developmentAddress */\n      0x0e\n      0x01\n      swap1\n      sload\n      swap1\n      0x0100\n      exp\n      swap1\n      div\n      0xffffffffffffffffffffffffffffffffffffffff\n      and\n        /* \"contracts/Pool/Pool.sol\":11062:11105  devAddressUpdated(_developmentAddress, dev) */\n      0xffffffffffffffffffffffffffffffffffffffff\n      and\n      0xfbbc329437e8c79f847e170730ad6dd04106b7511cad70d06d635886d92de83c\n      mload(0x40)\n      mload(0x40)\n      dup1\n      swap2\n      sub\n      swap1\n      log3\n        /* \"contracts/Pool/Pool.sol\":11138:11141  dev */\n      dup1\n        /* \"contracts/Pool/Pool.sol\":11116:11135  _developmentAddress */\n      0x0e\n      0x01\n        /* \"contracts/Pool/Pool.sol\":11116:11141  _developmentAddress = dev */\n      0x0100\n      exp\n      dup2\n      sload\n      dup2\n      0xffffffffffffffffffffffffffffffffffffffff\n      mul\n      not\n      and\n      swap1\n      dup4\n      0xffffffffffffffffffffffffffffffffffffffff\n      and\n      mul\n      or\n      swap1\n      sstore\n      pop\n        /* \"contracts/Pool/Pool.sol\":11193:11197  true */\n      0x01\n        /* \"contracts/Pool/Pool.sol\":11151:11169  _isExcludedFromFee */\n      0x05\n        /* \"contracts/Pool/Pool.sol\":11151:11190  _isExcludedFromFee[_developmentAddress] */\n      0x00\n        /* \"contracts/Pool/Pool.sol\":11170:11189  _developmentAddress */\n      0x0e\n      0x01\n      swap1\n      sload\n      swap1\n      0x0100\n      exp\n      swap1\n      div\n      0xffffffffffffffffffffffffffffffffffffffff\n      and\n        /* \"contracts/Pool/Pool.sol\":11151:11190  _isExcludedFromFee[_developmentAddress] */\n      0xffffffffffffffffffffffffffffffffffffffff\n      and\n      0xffffffffffffffffffffffffffffffffffffffff\n      and\n      dup2\n      mstore\n      0x20\n      add\n      swap1\n      dup2\n      mstore\n      0x20\n      add\n      0x00\n      keccak256\n      0x00\n        /* \"contracts/Pool/Pool.sol\":11151:11197  _isExcludedFromFee[_developmentAddress] = true */\n      0x0100\n      exp\n      dup2\n      sload\n      dup2\n      0xff\n      mul\n      not\n      and\n      swap1\n      dup4\n      iszero\n      iszero\n      mul\n      or\n      swap1\n      sstore\n      pop\n        /* \"contracts/Pool/Pool.sol\":10983:11204  function setNewDevAddress(address payable dev) public onlyDev() {... */\n      pop\n      jump\t// out\n        /* \"contracts/Pool/Pool.sol\":14082:14341  function manualswap() external {... */\n    tag_123:\n        /* \"contracts/Pool/Pool.sol\":14147:14166  _developmentAddress */\n      0x0e\n      0x01\n      swap1\n      sload\n      swap1\n      0x0100\n      exp\n      swap1\n      div\n      0xffffffffffffffffffffffffffffffffffffffff\n      and\n        /* \"contracts/Pool/Pool.sol\":14131:14166  _msgSender() == _developmentAddress */\n      0xffffffffffffffffffffffffffffffffffffffff\n      and\n        /* \"contracts/Pool/Pool.sol\":14131:14143  _msgSender() */\n      tag_235\n        /* \"contracts/Pool/Pool.sol\":14131:14141  _msgSender */\n      tag_155\n        /* \"contracts/Pool/Pool.sol\":14131:14143  _msgSender() */\n      jump\t// in\n    tag_235:\n        /* \"contracts/Pool/Pool.sol\":14131:14166  _msgSender() == _developmentAddress */\n      0xffffffffffffffffffffffffffffffffffffffff\n      and\n      eq\n        /* \"contracts/Pool/Pool.sol\":14131:14203  _msgSender() == _developmentAddress || _msgSender() == _marketingAddress */\n      dup1\n      tag_236\n      jumpi\n      pop\n        /* \"contracts/Pool/Pool.sol\":14186:14203  _marketingAddress */\n      0x0f\n      0x00\n      swap1\n      sload\n      swap1\n      0x0100\n      exp\n      swap1\n      div\n      0xffffffffffffffffffffffffffffffffffffffff\n      and\n        /* \"contracts/Pool/Pool.sol\":14170:14203  _msgSender() == _marketingAddress */\n      0xffffffffffffffffffffffffffffffffffffffff\n      and\n        /* \"contracts/Pool/Pool.sol\":14170:14182  _msgSender() */\n      tag_237\n        /* \"contracts/Pool/Pool.sol\":14170:14180  _msgSender */\n      tag_155\n        /* \"contracts/Pool/Pool.sol\":14170:14182  _msgSender() */\n      jump\t// in\n    tag_237:\n        /* \"contracts/Pool/Pool.sol\":14170:14203  _msgSender() == _marketingAddress */\n      0xffffffffffffffffffffffffffffffffffffffff\n      and\n      eq\n        /* \"contracts/Pool/Pool.sol\":14131:14203  _msgSender() == _developmentAddress || _msgSender() == _marketingAddress */\n    tag_236:\n        /* \"contracts/Pool/Pool.sol\":14131:14230  _msgSender() == _developmentAddress || _msgSender() == _marketingAddress || _msgSender() == owner() */\n      dup1\n      tag_238\n      jumpi\n      pop\n        /* \"contracts/Pool/Pool.sol\":14223:14230  owner() */\n      tag_239\n        /* \"contracts/Pool/Pool.sol\":14223:14228  owner */\n      tag_101\n        /* \"contracts/Pool/Pool.sol\":14223:14230  owner() */\n      jump\t// in\n    tag_239:\n        /* \"contracts/Pool/Pool.sol\":14207:14230  _msgSender() == owner() */\n      0xffffffffffffffffffffffffffffffffffffffff\n      and\n        /* \"contracts/Pool/Pool.sol\":14207:14219  _msgSender() */\n      tag_240\n        /* \"contracts/Pool/Pool.sol\":14207:14217  _msgSender */\n      tag_155\n        /* \"contracts/Pool/Pool.sol\":14207:14219  _msgSender() */\n      jump\t// in\n    tag_240:\n        /* \"contracts/Pool/Pool.sol\":14207:14230  _msgSender() == owner() */\n      0xffffffffffffffffffffffffffffffffffffffff\n      and\n      eq\n        /* \"contracts/Pool/Pool.sol\":14131:14230  _msgSender() == _developmentAddress || _msgSender() == _marketingAddress || _msgSender() == owner() */\n    tag_238:\n        /* \"contracts/Pool/Pool.sol\":14123:14231  require(_msgSender() == _developmentAddress || _msgSender() == _marketingAddress || _msgSender() == owner()) */\n      tag_241\n      jumpi\n      0x00\n      dup1\n      revert\n    tag_241:\n        /* \"contracts/Pool/Pool.sol\":14241:14264  uint256 contractBalance */\n      0x00\n        /* \"contracts/Pool/Pool.sol\":14267:14291  balanceOf(address(this)) */\n      tag_242\n        /* \"contracts/Pool/Pool.sol\":14285:14289  this */\n      address\n        /* \"contracts/Pool/Pool.sol\":14267:14276  balanceOf */\n      tag_89\n        /* \"contracts/Pool/Pool.sol\":14267:14291  balanceOf(address(this)) */\n      jump\t// in\n    tag_242:\n        /* \"contracts/Pool/Pool.sol\":14241:14291  uint256 contractBalance = balanceOf(address(this)) */\n      swap1\n      pop\n        /* \"contracts/Pool/Pool.sol\":14301:14334  swapTokensForEth(contractBalance) */\n      tag_243\n        /* \"contracts/Pool/Pool.sol\":14318:14333  contractBalance */\n      dup2\n        /* \"contracts/Pool/Pool.sol\":14301:14317  swapTokensForEth */\n      tag_244\n        /* \"contracts/Pool/Pool.sol\":14301:14334  swapTokensForEth(contractBalance) */\n      jump\t// in\n    tag_243:\n        /* \"contracts/Pool/Pool.sol\":14082:14341  function manualswap() external {... */\n      pop\n      jump\t// out\n        /* \"contracts/Pool/Pool.sol\":15270:15500  function excludeMultipleAccountsFromFees(address[] calldata accounts, bool excluded) public onlyOwner {... */\n    tag_128:\n        /* \"contracts/Pool/Pool.sol\":3255:3267  _msgSender() */\n      tag_246\n        /* \"contracts/Pool/Pool.sol\":3255:3265  _msgSender */\n      tag_155\n        /* \"contracts/Pool/Pool.sol\":3255:3267  _msgSender() */\n      jump\t// in\n    tag_246:\n        /* \"contracts/Pool/Pool.sol\":3245:3267  _owner == _msgSender() */\n      0xffffffffffffffffffffffffffffffffffffffff\n      and\n        /* \"contracts/Pool/Pool.sol\":3245:3251  _owner */\n      0x00\n      dup1\n      sload\n      swap1\n      0x0100\n      exp\n      swap1\n      div\n      0xffffffffffffffffffffffffffffffffffffffff\n      and\n        /* \"contracts/Pool/Pool.sol\":3245:3267  _owner == _msgSender() */\n      0xffffffffffffffffffffffffffffffffffffffff\n      and\n      eq\n        /* \"contracts/Pool/Pool.sol\":3237:3295  require(_owner == _msgSender(), \"Caller is not the owner\") */\n      tag_247\n      jumpi\n      mload(0x40)\n      0x08c379a000000000000000000000000000000000000000000000000000000000\n      dup2\n      mstore\n      0x04\n      add\n      tag_248\n      swap1\n      tag_193\n      jump\t// in\n    tag_248:\n      mload(0x40)\n      dup1\n      swap2\n      sub\n      swap1\n      revert\n    tag_247:\n        /* \"contracts/Pool/Pool.sol\":15386:15395  uint256 i */\n      0x00\n        /* \"contracts/Pool/Pool.sol\":15382:15494  for(uint256 i = 0; i < accounts.length; i++) {... */\n    tag_250:\n        /* \"contracts/Pool/Pool.sol\":15405:15413  accounts */\n      dup4\n      dup4\n        /* \"contracts/Pool/Pool.sol\":15405:15420  accounts.length */\n      swap1\n      pop\n        /* \"contracts/Pool/Pool.sol\":15401:15402  i */\n      dup2\n        /* \"contracts/Pool/Pool.sol\":15401:15420  i < accounts.length */\n      lt\n        /* \"contracts/Pool/Pool.sol\":15382:15494  for(uint256 i = 0; i < accounts.length; i++) {... */\n      iszero\n      tag_251\n      jumpi\n        /* \"contracts/Pool/Pool.sol\":15475:15483  excluded */\n      dup2\n        /* \"contracts/Pool/Pool.sol\":15441:15459  _isExcludedFromFee */\n      0x05\n        /* \"contracts/Pool/Pool.sol\":15441:15472  _isExcludedFromFee[accounts[i]] */\n      0x00\n        /* \"contracts/Pool/Pool.sol\":15460:15468  accounts */\n      dup7\n      dup7\n        /* \"contracts/Pool/Pool.sol\":15469:15470  i */\n      dup6\n        /* \"contracts/Pool/Pool.sol\":15460:15471  accounts[i] */\n      dup2\n      dup2\n      lt\n      tag_253\n      jumpi\n      mstore(0x00, 0x4e487b7100000000000000000000000000000000000000000000000000000000)\n      mstore(0x04, 0x32)\n      revert(0x00, 0x24)\n    tag_253:\n      swap1\n      pop\n      0x20\n      mul\n      add\n      0x20\n      dup2\n      add\n      swap1\n      tag_254\n      swap2\n      swap1\n      tag_88\n      jump\t// in\n    tag_254:\n        /* \"contracts/Pool/Pool.sol\":15441:15472  _isExcludedFromFee[accounts[i]] */\n      0xffffffffffffffffffffffffffffffffffffffff\n      and\n      0xffffffffffffffffffffffffffffffffffffffff\n      and\n      dup2\n      mstore\n      0x20\n      add\n      swap1\n      dup2\n      mstore\n      0x20\n      add\n      0x00\n      keccak256\n      0x00\n        /* \"contracts/Pool/Pool.sol\":15441:15483  _isExcludedFromFee[accounts[i]] = excluded */\n      0x0100\n      exp\n      dup2\n      sload\n      dup2\n      0xff\n      mul\n      not\n      and\n      swap1\n      dup4\n      iszero\n      iszero\n      mul\n      or\n      swap1\n      sstore\n      pop\n        /* \"contracts/Pool/Pool.sol\":15422:15425  i++ */\n      dup1\n      dup1\n      tag_255\n      swap1\n      tag_256\n      jump\t// in\n    tag_255:\n      swap2\n      pop\n      pop\n        /* \"contracts/Pool/Pool.sol\":15382:15494  for(uint256 i = 0; i < accounts.length; i++) {... */\n      jump(tag_250)\n    tag_251:\n      pop\n        /* \"contracts/Pool/Pool.sol\":15270:15500  function excludeMultipleAccountsFromFees(address[] calldata accounts, bool excluded) public onlyOwner {... */\n      pop\n      pop\n      pop\n      jump\t// out\n        /* \"contracts/Pool/Pool.sol\":4963:4986  address public _factory */\n    tag_131:\n      0x12\n      0x00\n      swap1\n      sload\n      swap1\n      0x0100\n      exp\n      swap1\n      div\n      0xffffffffffffffffffffffffffffffffffffffff\n      and\n      dup2\n      jump\t// out\n        /* \"contracts/Pool/Pool.sol\":9574:9803  function settingPair(address tokenB) public onlyOwner { ... */\n    tag_136:\n        /* \"contracts/Pool/Pool.sol\":3255:3267  _msgSender() */\n      tag_258\n        /* \"contracts/Pool/Pool.sol\":3255:3265  _msgSender */\n      tag_155\n        /* \"contracts/Pool/Pool.sol\":3255:3267  _msgSender() */\n      jump\t// in\n    tag_258:\n        /* \"contracts/Pool/Pool.sol\":3245:3267  _owner == _msgSender() */\n      0xffffffffffffffffffffffffffffffffffffffff\n      and\n        /* \"contracts/Pool/Pool.sol\":3245:3251  _owner */\n      0x00\n      dup1\n      sload\n      swap1\n      0x0100\n      exp\n      swap1\n      div\n      0xffffffffffffffffffffffffffffffffffffffff\n      and\n        /* \"contracts/Pool/Pool.sol\":3245:3267  _owner == _msgSender() */\n      0xffffffffffffffffffffffffffffffffffffffff\n      and\n      eq\n        /* \"contracts/Pool/Pool.sol\":3237:3295  require(_owner == _msgSender(), \"Caller is not the owner\") */\n      tag_259\n      jumpi\n      mload(0x40)\n      0x08c379a000000000000000000000000000000000000000000000000000000000\n      dup2\n      mstore\n      0x04\n      add\n      tag_260\n      swap1\n      tag_193\n      jump\t// in\n    tag_260:\n      mload(0x40)\n      dup1\n      swap2\n      sub\n      swap1\n      revert\n    tag_259:\n        /* \"contracts/Pool/Pool.sol\":9662:9667  false */\n      0x00\n        /* \"contracts/Pool/Pool.sol\":9647:9667  _activePair == false */\n      iszero\n      iszero\n        /* \"contracts/Pool/Pool.sol\":9647:9658  _activePair */\n      0x0e\n      0x00\n      swap1\n      sload\n      swap1\n      0x0100\n      exp\n      swap1\n      div\n      0xff\n      and\n        /* \"contracts/Pool/Pool.sol\":9647:9667  _activePair == false */\n      iszero\n      iszero\n      eq\n        /* \"contracts/Pool/Pool.sol\":9639:9684  require(_activePair == false, \"Actived pair\") */\n      tag_262\n      jumpi\n      mload(0x40)\n      0x08c379a000000000000000000000000000000000000000000000000000000000\n      dup2\n      mstore\n      0x04\n      add\n      tag_263\n      swap1\n      tag_264\n      jump\t// in\n    tag_263:\n      mload(0x40)\n      dup1\n      swap2\n      sub\n      swap1\n      revert\n    tag_262:\n        /* \"contracts/Pool/Pool.sol\":9710:9726  uniswapV2Factory */\n      0x11\n      0x00\n      swap1\n      sload\n      swap1\n      0x0100\n      exp\n      swap1\n      div\n      0xffffffffffffffffffffffffffffffffffffffff\n      and\n        /* \"contracts/Pool/Pool.sol\":9710:9737  uniswapV2Factory.createPair */\n      0xffffffffffffffffffffffffffffffffffffffff\n      and\n      0xc9c65396\n        /* \"contracts/Pool/Pool.sol\":9746:9750  this */\n      address\n        /* \"contracts/Pool/Pool.sol\":9760:9766  tokenB */\n      dup4\n        /* \"contracts/Pool/Pool.sol\":9710:9768  uniswapV2Factory.createPair(address(this),address(tokenB)) */\n      mload(0x40)\n      dup4\n      0xffffffff\n      and\n      0xe0\n      shl\n      dup2\n      mstore\n      0x04\n      add\n      tag_265\n      swap3\n      swap2\n      swap1\n      tag_266\n      jump\t// in\n    tag_265:\n      0x20\n      mload(0x40)\n      dup1\n      dup4\n      sub\n      dup2\n      0x00\n      dup8\n      dup1\n      extcodesize\n      iszero\n      dup1\n      iszero\n      tag_267\n      jumpi\n      0x00\n      dup1\n      revert\n    tag_267:\n      pop\n      gas\n      call\n      iszero\n      dup1\n      iszero\n      tag_269\n      jumpi\n      returndatasize\n      0x00\n      dup1\n      returndatacopy\n      revert(0x00, returndatasize)\n    tag_269:\n      pop\n      pop\n      pop\n      pop\n      mload(0x40)\n      returndatasize\n      not(0x1f)\n      0x1f\n      dup3\n      add\n      and\n      dup3\n      add\n      dup1\n      0x40\n      mstore\n      pop\n      dup2\n      add\n      swap1\n      tag_270\n      swap2\n      swap1\n      tag_271\n      jump\t// in\n    tag_270:\n        /* \"contracts/Pool/Pool.sol\":9694:9707  uniswapV2Pair */\n      0x13\n      0x00\n        /* \"contracts/Pool/Pool.sol\":9694:9768  uniswapV2Pair = uniswapV2Factory.createPair(address(this),address(tokenB)) */\n      0x0100\n      exp\n      dup2\n      sload\n      dup2\n      0xffffffffffffffffffffffffffffffffffffffff\n      mul\n      not\n      and\n      swap1\n      dup4\n      0xffffffffffffffffffffffffffffffffffffffff\n      and\n      mul\n      or\n      swap1\n      sstore\n      pop\n        /* \"contracts/Pool/Pool.sol\":9792:9796  true */\n      0x01\n        /* \"contracts/Pool/Pool.sol\":9778:9789  _activePair */\n      0x0e\n      0x00\n        /* \"contracts/Pool/Pool.sol\":9778:9796  _activePair = true */\n      0x0100\n      exp\n      dup2\n      sload\n      dup2\n      0xff\n      mul\n      not\n      and\n      swap1\n      dup4\n      iszero\n      iszero\n      mul\n      or\n      swap1\n      sstore\n      pop\n        /* \"contracts/Pool/Pool.sol\":9574:9803  function settingPair(address tokenB) public onlyOwner { ... */\n      pop\n      jump\t// out\n        /* \"contracts/Pool/Pool.sol\":6865:7006  function allowance(address owner, address spender) public view override returns (uint256) {... */\n    tag_141:\n        /* \"contracts/Pool/Pool.sol\":6946:6953  uint256 */\n      0x00\n        /* \"contracts/Pool/Pool.sol\":6972:6983  _allowances */\n      0x04\n        /* \"contracts/Pool/Pool.sol\":6972:6990  _allowances[owner] */\n      0x00\n        /* \"contracts/Pool/Pool.sol\":6984:6989  owner */\n      dup5\n        /* \"contracts/Pool/Pool.sol\":6972:6990  _allowances[owner] */\n      0xffffffffffffffffffffffffffffffffffffffff\n      and\n      0xffffffffffffffffffffffffffffffffffffffff\n      and\n      dup2\n      mstore\n      0x20\n      add\n      swap1\n      dup2\n      mstore\n      0x20\n      add\n      0x00\n      keccak256\n        /* \"contracts/Pool/Pool.sol\":6972:6999  _allowances[owner][spender] */\n      0x00\n        /* \"contracts/Pool/Pool.sol\":6991:6998  spender */\n      dup4\n        /* \"contracts/Pool/Pool.sol\":6972:6999  _allowances[owner][spender] */\n      0xffffffffffffffffffffffffffffffffffffffff\n      and\n      0xffffffffffffffffffffffffffffffffffffffff\n      and\n      dup2\n      mstore\n      0x20\n      add\n      swap1\n      dup2\n      mstore\n      0x20\n      add\n      0x00\n      keccak256\n      sload\n        /* \"contracts/Pool/Pool.sol\":6965:6999  return _allowances[owner][spender] */\n      swap1\n      pop\n        /* \"contracts/Pool/Pool.sol\":6865:7006  function allowance(address owner, address spender) public view override returns (uint256) {... */\n      swap3\n      swap2\n      pop\n      pop\n      jump\t// out\n        /* \"contracts/Pool/Pool.sol\":10692:10897  function rescueForeignTokens(address _tokenAddr, address _to, uint _amount) public onlyDev() {... */\n    tag_146:\n        /* \"contracts/Pool/Pool.sol\":6086:6098  _msgSender() */\n      tag_274\n        /* \"contracts/Pool/Pool.sol\":6086:6096  _msgSender */\n      tag_155\n        /* \"contracts/Pool/Pool.sol\":6086:6098  _msgSender() */\n      jump\t// in\n    tag_274:\n        /* \"contracts/Pool/Pool.sol\":6075:6098  owner() == _msgSender() */\n      0xffffffffffffffffffffffffffffffffffffffff\n      and\n        /* \"contracts/Pool/Pool.sol\":6075:6082  owner() */\n      tag_275\n        /* \"contracts/Pool/Pool.sol\":6075:6080  owner */\n      tag_101\n        /* \"contracts/Pool/Pool.sol\":6075:6082  owner() */\n      jump\t// in\n    tag_275:\n        /* \"contracts/Pool/Pool.sol\":6075:6098  owner() == _msgSender() */\n      0xffffffffffffffffffffffffffffffffffffffff\n      and\n      eq\n        /* \"contracts/Pool/Pool.sol\":6075:6137  owner() == _msgSender() || _developmentAddress == _msgSender() */\n      dup1\n      tag_276\n      jumpi\n      pop\n        /* \"contracts/Pool/Pool.sol\":6125:6137  _msgSender() */\n      tag_277\n        /* \"contracts/Pool/Pool.sol\":6125:6135  _msgSender */\n      tag_155\n        /* \"contracts/Pool/Pool.sol\":6125:6137  _msgSender() */\n      jump\t// in\n    tag_277:\n        /* \"contracts/Pool/Pool.sol\":6102:6137  _developmentAddress == _msgSender() */\n      0xffffffffffffffffffffffffffffffffffffffff\n      and\n        /* \"contracts/Pool/Pool.sol\":6102:6121  _developmentAddress */\n      0x0e\n      0x01\n      swap1\n      sload\n      swap1\n      0x0100\n      exp\n      swap1\n      div\n      0xffffffffffffffffffffffffffffffffffffffff\n      and\n        /* \"contracts/Pool/Pool.sol\":6102:6137  _developmentAddress == _msgSender() */\n      0xffffffffffffffffffffffffffffffffffffffff\n      and\n      eq\n        /* \"contracts/Pool/Pool.sol\":6075:6137  owner() == _msgSender() || _developmentAddress == _msgSender() */\n    tag_276:\n        /* \"contracts/Pool/Pool.sol\":6067:6163  require(owner() == _msgSender() || _developmentAddress == _msgSender(), \"Caller is not the dev\") */\n      tag_278\n      jumpi\n      mload(0x40)\n      0x08c379a000000000000000000000000000000000000000000000000000000000\n      dup2\n      mstore\n      0x04\n      add\n      tag_279\n      swap1\n      tag_174\n      jump\t// in\n    tag_279:\n      mload(0x40)\n      dup1\n      swap2\n      sub\n      swap1\n      revert\n    tag_278:\n        /* \"contracts/Pool/Pool.sol\":10826:10829  _to */\n      dup2\n        /* \"contracts/Pool/Pool.sol\":10800:10839  tokensRescued(_tokenAddr, _to, _amount) */\n      0xffffffffffffffffffffffffffffffffffffffff\n      and\n        /* \"contracts/Pool/Pool.sol\":10814:10824  _tokenAddr */\n      dup4\n        /* \"contracts/Pool/Pool.sol\":10800:10839  tokensRescued(_tokenAddr, _to, _amount) */\n      0xffffffffffffffffffffffffffffffffffffffff\n      and\n      0x47c33aa230eb5fd181505aa7befeaddd9b8a6f983989cea73a7868448c3a9ed9\n        /* \"contracts/Pool/Pool.sol\":10831:10838  _amount */\n      dup4\n        /* \"contracts/Pool/Pool.sol\":10800:10839  tokensRescued(_tokenAddr, _to, _amount) */\n      mload(0x40)\n      tag_281\n      swap2\n      swap1\n      tag_55\n      jump\t// in\n    tag_281:\n      mload(0x40)\n      dup1\n      swap2\n      sub\n      swap1\n      log3\n        /* \"contracts/Pool/Pool.sol\":10856:10866  _tokenAddr */\n      dup3\n        /* \"contracts/Pool/Pool.sol\":10850:10876  Token(_tokenAddr).transfer */\n      0xffffffffffffffffffffffffffffffffffffffff\n      and\n      0xa9059cbb\n        /* \"contracts/Pool/Pool.sol\":10877:10880  _to */\n      dup4\n        /* \"contracts/Pool/Pool.sol\":10882:10889  _amount */\n      dup4\n        /* \"contracts/Pool/Pool.sol\":10850:10890  Token(_tokenAddr).transfer(_to, _amount) */\n      mload(0x40)\n      dup4\n      0xffffffff\n      and\n      0xe0\n      shl\n      dup2\n      mstore\n      0x04\n      add\n      tag_282\n      swap3\n      swap2\n      swap1\n      tag_283\n      jump\t// in\n    tag_282:\n      0x20\n      mload(0x40)\n      dup1\n      dup4\n      sub\n      dup2\n      0x00\n      dup8\n      dup1\n      extcodesize\n      iszero\n      dup1\n      iszero\n      tag_284\n      jumpi\n      0x00\n      dup1\n      revert\n    tag_284:\n      pop\n      gas\n      call\n      iszero\n      dup1\n      iszero\n      tag_286\n      jumpi\n      returndatasize\n      0x00\n      dup1\n      returndatacopy\n      revert(0x00, returndatasize)\n    tag_286:\n      pop\n      pop\n      pop\n      pop\n      mload(0x40)\n      returndatasize\n      not(0x1f)\n      0x1f\n      dup3\n      add\n      and\n      dup3\n      add\n      dup1\n      0x40\n      mstore\n      pop\n      dup2\n      add\n      swap1\n      tag_287\n      swap2\n      swap1\n      tag_288\n      jump\t// in\n    tag_287:\n      pop\n        /* \"contracts/Pool/Pool.sol\":10692:10897  function rescueForeignTokens(address _tokenAddr, address _to, uint _amount) public onlyDev() {... */\n      pop\n      pop\n      pop\n      jump\t// out\n        /* \"contracts/Pool/Pool.sol\":3563:3720  function transferOwnership(address newOwner) public virtual onlyOwner {... */\n    tag_150:\n        /* \"contracts/Pool/Pool.sol\":3255:3267  _msgSender() */\n      tag_290\n        /* \"contracts/Pool/Pool.sol\":3255:3265  _msgSender */\n      tag_155\n        /* \"contracts/Pool/Pool.sol\":3255:3267  _msgSender() */\n      jump\t// in\n    tag_290:\n        /* \"contracts/Pool/Pool.sol\":3245:3267  _owner == _msgSender() */\n      0xffffffffffffffffffffffffffffffffffffffff\n      and\n        /* \"contracts/Pool/Pool.sol\":3245:3251  _owner */\n      0x00\n      dup1\n      sload\n      swap1\n      0x0100\n      exp\n      swap1\n      div\n      0xffffffffffffffffffffffffffffffffffffffff\n      and\n        /* \"contracts/Pool/Pool.sol\":3245:3267  _owner == _msgSender() */\n      0xffffffffffffffffffffffffffffffffffffffff\n      and\n      eq\n        /* \"contracts/Pool/Pool.sol\":3237:3295  require(_owner == _msgSender(), \"Caller is not the owner\") */\n      tag_291\n      jumpi\n      mload(0x40)\n      0x08c379a000000000000000000000000000000000000000000000000000000000\n      dup2\n      mstore\n      0x04\n      add\n      tag_292\n      swap1\n      tag_193\n      jump\t// in\n    tag_292:\n      mload(0x40)\n      dup1\n      swap2\n      sub\n      swap1\n      revert\n    tag_291:\n        /* \"contracts/Pool/Pool.sol\":3677:3685  newOwner */\n      dup1\n        /* \"contracts/Pool/Pool.sol\":3648:3686  OwnershipTransferred(_owner, newOwner) */\n      0xffffffffffffffffffffffffffffffffffffffff\n      and\n        /* \"contracts/Pool/Pool.sol\":3669:3675  _owner */\n      0x00\n      dup1\n      sload\n      swap1\n      0x0100\n      exp\n      swap1\n      div\n      0xffffffffffffffffffffffffffffffffffffffff\n      and\n        /* \"contracts/Pool/Pool.sol\":3648:3686  OwnershipTransferred(_owner, newOwner) */\n      0xffffffffffffffffffffffffffffffffffffffff\n      and\n      0x8be0079c531659141344cd1fd0a4f28419497f9722a3daafe3b4186f6b6457e0\n      mload(0x40)\n      mload(0x40)\n      dup1\n      swap2\n      sub\n      swap1\n      log3\n        /* \"contracts/Pool/Pool.sol\":3705:3713  newOwner */\n      dup1\n        /* \"contracts/Pool/Pool.sol\":3696:3702  _owner */\n      0x00\n      dup1\n        /* \"contracts/Pool/Pool.sol\":3696:3713  _owner = newOwner */\n      0x0100\n      exp\n      dup2\n      sload\n      dup2\n      0xffffffffffffffffffffffffffffffffffffffff\n      mul\n      not\n      and\n      swap1\n      dup4\n      0xffffffffffffffffffffffffffffffffffffffff\n      and\n      mul\n      or\n      swap1\n      sstore\n      pop\n        /* \"contracts/Pool/Pool.sol\":3563:3720  function transferOwnership(address newOwner) public virtual onlyOwner {... */\n      pop\n      jump\t// out\n        /* \"contracts/Pool/Pool.sol\":1659:1755  function _msgSender() internal view virtual returns (address) {... */\n    tag_155:\n        /* \"contracts/Pool/Pool.sol\":1712:1719  address */\n      0x00\n        /* \"contracts/Pool/Pool.sol\":1738:1748  msg.sender */\n      caller\n        /* \"contracts/Pool/Pool.sol\":1731:1748  return msg.sender */\n      swap1\n      pop\n        /* \"contracts/Pool/Pool.sol\":1659:1755  function _msgSender() internal view virtual returns (address) {... */\n      swap1\n      jump\t// out\n        /* \"contracts/Pool/Pool.sol\":7747:8077  function _approve(address owner, address spender, uint256 amount) private {... */\n    tag_156:\n        /* \"contracts/Pool/Pool.sol\":7856:7857  0 */\n      0x00\n        /* \"contracts/Pool/Pool.sol\":7839:7858  owner != address(0) */\n      0xffffffffffffffffffffffffffffffffffffffff\n      and\n        /* \"contracts/Pool/Pool.sol\":7839:7844  owner */\n      dup4\n        /* \"contracts/Pool/Pool.sol\":7839:7858  owner != address(0) */\n      0xffffffffffffffffffffffffffffffffffffffff\n      and\n      eq\n      iszero\n        /* \"contracts/Pool/Pool.sol\":7831:7899  require(owner != address(0), \"ERC20: approve from the zero address\") */\n      tag_296\n      jumpi\n      mload(0x40)\n      0x08c379a000000000000000000000000000000000000000000000000000000000\n      dup2\n      mstore\n      0x04\n      add\n      tag_297\n      swap1\n      tag_298\n      jump\t// in\n    tag_297:\n      mload(0x40)\n      dup1\n      swap2\n      sub\n      swap1\n      revert\n    tag_296:\n        /* \"contracts/Pool/Pool.sol\":7936:7937  0 */\n      0x00\n        /* \"contracts/Pool/Pool.sol\":7917:7938  spender != address(0) */\n      0xffffffffffffffffffffffffffffffffffffffff\n      and\n        /* \"contracts/Pool/Pool.sol\":7917:7924  spender */\n      dup3\n        /* \"contracts/Pool/Pool.sol\":7917:7938  spender != address(0) */\n      0xffffffffffffffffffffffffffffffffffffffff\n      and\n      eq\n      iszero\n        /* \"contracts/Pool/Pool.sol\":7909:7977  require(spender != address(0), \"ERC20: approve to the zero address\") */\n      tag_299\n      jumpi\n      mload(0x40)\n      0x08c379a000000000000000000000000000000000000000000000000000000000\n      dup2\n      mstore\n      0x04\n      add\n      tag_300\n      swap1\n      tag_301\n      jump\t// in\n    tag_300:\n      mload(0x40)\n      dup1\n      swap2\n      sub\n      swap1\n      revert\n    tag_299:\n        /* \"contracts/Pool/Pool.sol\":8017:8023  amount */\n      dup1\n        /* \"contracts/Pool/Pool.sol\":7987:7998  _allowances */\n      0x04\n        /* \"contracts/Pool/Pool.sol\":7987:8005  _allowances[owner] */\n      0x00\n        /* \"contracts/Pool/Pool.sol\":7999:8004  owner */\n      dup6\n        /* \"contracts/Pool/Pool.sol\":7987:8005  _allowances[owner] */\n      0xffffffffffffffffffffffffffffffffffffffff\n      and\n      0xffffffffffffffffffffffffffffffffffffffff\n      and\n      dup2\n      mstore\n      0x20\n      add\n      swap1\n      dup2\n      mstore\n      0x20\n      add\n      0x00\n      keccak256\n        /* \"contracts/Pool/Pool.sol\":7987:8014  _allowances[owner][spender] */\n      0x00\n        /* \"contracts/Pool/Pool.sol\":8006:8013  spender */\n      dup5\n        /* \"contracts/Pool/Pool.sol\":7987:8014  _allowances[owner][spender] */\n      0xffffffffffffffffffffffffffffffffffffffff\n      and\n      0xffffffffffffffffffffffffffffffffffffffff\n      and\n      dup2\n      mstore\n      0x20\n      add\n      swap1\n      dup2\n      mstore\n      0x20\n      add\n      0x00\n      keccak256\n        /* \"contracts/Pool/Pool.sol\":7987:8023  _allowances[owner][spender] = amount */\n      dup2\n      swap1\n      sstore\n      pop\n        /* \"contracts/Pool/Pool.sol\":8054:8061  spender */\n      dup2\n        /* \"contracts/Pool/Pool.sol\":8038:8070  Approval(owner, spender, amount) */\n      0xffffffffffffffffffffffffffffffffffffffff\n      and\n        /* \"contracts/Pool/Pool.sol\":8047:8052  owner */\n      dup4\n        /* \"contracts/Pool/Pool.sol\":8038:8070  Approval(owner, spender, amount) */\n      0xffffffffffffffffffffffffffffffffffffffff\n      and\n      0x8c5be1e5ebec7d5bd14f71427d1e84f3dd0314c0f7b2291e5b200ac8c7c3b925\n        /* \"contracts/Pool/Pool.sol\":8063:8069  amount */\n      dup4\n        /* \"contracts/Pool/Pool.sol\":8038:8070  Approval(owner, spender, amount) */\n      mload(0x40)\n      tag_302\n      swap2\n      swap1\n      tag_55\n      jump\t// in\n    tag_302:\n      mload(0x40)\n      dup1\n      swap2\n      sub\n      swap1\n      log3\n        /* \"contracts/Pool/Pool.sol\":7747:8077  function _approve(address owner, address spender, uint256 amount) private {... */\n      pop\n      pop\n      pop\n      jump\t// out\n        /* \"contracts/Pool/Pool.sol\":8083:9568  function _transfer(address from, address to, uint256 amount) private {... */\n    tag_160:\n        /* \"contracts/Pool/Pool.sol\":8186:8187  0 */\n      0x00\n        /* \"contracts/Pool/Pool.sol\":8170:8188  from != address(0) */\n      0xffffffffffffffffffffffffffffffffffffffff\n      and\n        /* \"contracts/Pool/Pool.sol\":8170:8174  from */\n      dup4\n        /* \"contracts/Pool/Pool.sol\":8170:8188  from != address(0) */\n      0xffffffffffffffffffffffffffffffffffffffff\n      and\n      eq\n      iszero\n        /* \"contracts/Pool/Pool.sol\":8162:8230  require(from != address(0), \"ERC20: transfer from the zero address\") */\n      tag_304\n      jumpi\n      mload(0x40)\n      0x08c379a000000000000000000000000000000000000000000000000000000000\n      dup2\n      mstore\n      0x04\n      add\n      tag_305\n      swap1\n      tag_306\n      jump\t// in\n    tag_305:\n      mload(0x40)\n      dup1\n      swap2\n      sub\n      swap1\n      revert\n    tag_304:\n        /* \"contracts/Pool/Pool.sol\":8262:8263  0 */\n      0x00\n        /* \"contracts/Pool/Pool.sol\":8248:8264  to != address(0) */\n      0xffffffffffffffffffffffffffffffffffffffff\n      and\n        /* \"contracts/Pool/Pool.sol\":8248:8250  to */\n      dup3\n        /* \"contracts/Pool/Pool.sol\":8248:8264  to != address(0) */\n      0xffffffffffffffffffffffffffffffffffffffff\n      and\n      eq\n      iszero\n        /* \"contracts/Pool/Pool.sol\":8240:8304  require(to != address(0), \"ERC20: transfer to the zero address\") */\n      tag_307\n      jumpi\n      mload(0x40)\n      0x08c379a000000000000000000000000000000000000000000000000000000000\n      dup2\n      mstore\n      0x04\n      add\n      tag_308\n      swap1\n      tag_309\n      jump\t// in\n    tag_308:\n      mload(0x40)\n      dup1\n      swap2\n      sub\n      swap1\n      revert\n    tag_307:\n        /* \"contracts/Pool/Pool.sol\":8331:8332  0 */\n      0x00\n        /* \"contracts/Pool/Pool.sol\":8322:8328  amount */\n      dup2\n        /* \"contracts/Pool/Pool.sol\":8322:8332  amount > 0 */\n      gt\n        /* \"contracts/Pool/Pool.sol\":8314:8378  require(amount > 0, \"Transfer amount must be greater than zero\") */\n      tag_310\n      jumpi\n      mload(0x40)\n      0x08c379a000000000000000000000000000000000000000000000000000000000\n      dup2\n      mstore\n      0x04\n      add\n      tag_311\n      swap1\n      tag_312\n      jump\t// in\n    tag_311:\n      mload(0x40)\n      dup1\n      swap2\n      sub\n      swap1\n      revert\n    tag_310:\n        /* \"contracts/Pool/Pool.sol\":8409:8410  0 */\n      0x00\n        /* \"contracts/Pool/Pool.sol\":8397:8406  _redisFee */\n      0x0c\n        /* \"contracts/Pool/Pool.sol\":8397:8410  _redisFee = 0 */\n      dup2\n      swap1\n      sstore\n      pop\n        /* \"contracts/Pool/Pool.sol\":8430:8431  0 */\n      0x00\n        /* \"contracts/Pool/Pool.sol\":8420:8427  _taxFee */\n      0x0d\n        /* \"contracts/Pool/Pool.sol\":8420:8431  _taxFee = 0 */\n      dup2\n      swap1\n      sstore\n      pop\n        /* \"contracts/Pool/Pool.sol\":8462:8469  owner() */\n      tag_313\n        /* \"contracts/Pool/Pool.sol\":8462:8467  owner */\n      tag_101\n        /* \"contracts/Pool/Pool.sol\":8462:8469  owner() */\n      jump\t// in\n    tag_313:\n        /* \"contracts/Pool/Pool.sol\":8454:8469  from != owner() */\n      0xffffffffffffffffffffffffffffffffffffffff\n      and\n        /* \"contracts/Pool/Pool.sol\":8454:8458  from */\n      dup4\n        /* \"contracts/Pool/Pool.sol\":8454:8469  from != owner() */\n      0xffffffffffffffffffffffffffffffffffffffff\n      and\n      eq\n      iszero\n        /* \"contracts/Pool/Pool.sol\":8454:8486  from != owner() && to != owner() */\n      dup1\n      iszero\n      tag_314\n      jumpi\n      pop\n        /* \"contracts/Pool/Pool.sol\":8479:8486  owner() */\n      tag_315\n        /* \"contracts/Pool/Pool.sol\":8479:8484  owner */\n      tag_101\n        /* \"contracts/Pool/Pool.sol\":8479:8486  owner() */\n      jump\t// in\n    tag_315:\n        /* \"contracts/Pool/Pool.sol\":8473:8486  to != owner() */\n      0xffffffffffffffffffffffffffffffffffffffff\n      and\n        /* \"contracts/Pool/Pool.sol\":8473:8475  to */\n      dup3\n        /* \"contracts/Pool/Pool.sol\":8473:8486  to != owner() */\n      0xffffffffffffffffffffffffffffffffffffffff\n      and\n      eq\n      iszero\n        /* \"contracts/Pool/Pool.sol\":8454:8486  from != owner() && to != owner() */\n    tag_314:\n        /* \"contracts/Pool/Pool.sol\":8450:9521  if (from != owner() && to != owner()) {... */\n      iszero\n      tag_316\n      jumpi\n        /* \"contracts/Pool/Pool.sol\":8515:8543  uint256 contractTokenBalance */\n      0x00\n        /* \"contracts/Pool/Pool.sol\":8546:8570  balanceOf(address(this)) */\n      tag_317\n        /* \"contracts/Pool/Pool.sol\":8564:8568  this */\n      address\n        /* \"contracts/Pool/Pool.sol\":8546:8555  balanceOf */\n      tag_89\n        /* \"contracts/Pool/Pool.sol\":8546:8570  balanceOf(address(this)) */\n      jump\t// in\n    tag_317:\n        /* \"contracts/Pool/Pool.sol\":8515:8570  uint256 contractTokenBalance = balanceOf(address(this)) */\n      swap1\n      pop\n        /* \"contracts/Pool/Pool.sol\":8589:8595  inSwap */\n      0x13\n      0x14\n      swap1\n      sload\n      swap1\n      0x0100\n      exp\n      swap1\n      div\n      0xff\n      and\n        /* \"contracts/Pool/Pool.sol\":8588:8595  !inSwap */\n      iszero\n        /* \"contracts/Pool/Pool.sol\":8588:8620  !inSwap && from != uniswapV2Pair */\n      dup1\n      iszero\n      tag_318\n      jumpi\n      pop\n        /* \"contracts/Pool/Pool.sol\":8607:8620  uniswapV2Pair */\n      0x13\n      0x00\n      swap1\n      sload\n      swap1\n      0x0100\n      exp\n      swap1\n      div\n      0xffffffffffffffffffffffffffffffffffffffff\n      and\n        /* \"contracts/Pool/Pool.sol\":8599:8620  from != uniswapV2Pair */\n      0xffffffffffffffffffffffffffffffffffffffff\n      and\n        /* \"contracts/Pool/Pool.sol\":8599:8603  from */\n      dup5\n        /* \"contracts/Pool/Pool.sol\":8599:8620  from != uniswapV2Pair */\n      0xffffffffffffffffffffffffffffffffffffffff\n      and\n      eq\n      iszero\n        /* \"contracts/Pool/Pool.sol\":8588:8620  !inSwap && from != uniswapV2Pair */\n    tag_318:\n        /* \"contracts/Pool/Pool.sol\":8588:8635  !inSwap && from != uniswapV2Pair && swapEnabled */\n      dup1\n      iszero\n      tag_319\n      jumpi\n      pop\n        /* \"contracts/Pool/Pool.sol\":8624:8635  swapEnabled */\n      0x13\n      0x15\n      swap1\n      sload\n      swap1\n      0x0100\n      exp\n      swap1\n      div\n      0xff\n      and\n        /* \"contracts/Pool/Pool.sol\":8588:8635  !inSwap && from != uniswapV2Pair && swapEnabled */\n    tag_319:\n        /* \"contracts/Pool/Pool.sol\":8588:8663  !inSwap && from != uniswapV2Pair && swapEnabled && contractTokenBalance > 0 */\n      dup1\n      iszero\n      tag_320\n      jumpi\n      pop\n        /* \"contracts/Pool/Pool.sol\":8662:8663  0 */\n      0x00\n        /* \"contracts/Pool/Pool.sol\":8639:8659  contractTokenBalance */\n      dup2\n        /* \"contracts/Pool/Pool.sol\":8639:8663  contractTokenBalance > 0 */\n      gt\n        /* \"contracts/Pool/Pool.sol\":8588:8663  !inSwap && from != uniswapV2Pair && swapEnabled && contractTokenBalance > 0 */\n    tag_320:\n        /* \"contracts/Pool/Pool.sol\":8584:8924  if (!inSwap && from != uniswapV2Pair && swapEnabled && contractTokenBalance > 0) {... */\n      iszero\n      tag_321\n      jumpi\n        /* \"contracts/Pool/Pool.sol\":8683:8721  swapTokensForEth(contractTokenBalance) */\n      tag_322\n        /* \"contracts/Pool/Pool.sol\":8700:8720  contractTokenBalance */\n      dup2\n        /* \"contracts/Pool/Pool.sol\":8683:8699  swapTokensForEth */\n      tag_244\n        /* \"contracts/Pool/Pool.sol\":8683:8721  swapTokensForEth(contractTokenBalance) */\n      jump\t// in\n    tag_322:\n        /* \"contracts/Pool/Pool.sol\":8739:8765  uint256 contractETHBalance */\n      0x00\n        /* \"contracts/Pool/Pool.sol\":8768:8789  address(this).balance */\n      selfbalance\n        /* \"contracts/Pool/Pool.sol\":8739:8789  uint256 contractETHBalance = address(this).balance */\n      swap1\n      pop\n        /* \"contracts/Pool/Pool.sol\":8831:8832  0 */\n      0x00\n        /* \"contracts/Pool/Pool.sol\":8810:8828  contractETHBalance */\n      dup2\n        /* \"contracts/Pool/Pool.sol\":8810:8832  contractETHBalance > 0 */\n      gt\n        /* \"contracts/Pool/Pool.sol\":8807:8910  if(contractETHBalance > 0) {... */\n      iszero\n      tag_323\n      jumpi\n        /* \"contracts/Pool/Pool.sol\":8856:8891  sendETHToFee(address(this).balance) */\n      tag_324\n        /* \"contracts/Pool/Pool.sol\":8869:8890  address(this).balance */\n      selfbalance\n        /* \"contracts/Pool/Pool.sol\":8856:8868  sendETHToFee */\n      tag_185\n        /* \"contracts/Pool/Pool.sol\":8856:8891  sendETHToFee(address(this).balance) */\n      jump\t// in\n    tag_324:\n        /* \"contracts/Pool/Pool.sol\":8807:8910  if(contractETHBalance > 0) {... */\n    tag_323:\n        /* \"contracts/Pool/Pool.sol\":8584:8924  if (!inSwap && from != uniswapV2Pair && swapEnabled && contractTokenBalance > 0) {... */\n      pop\n    tag_321:\n        /* \"contracts/Pool/Pool.sol\":8961:8974  uniswapV2Pair */\n      0x13\n      0x00\n      swap1\n      sload\n      swap1\n      0x0100\n      exp\n      swap1\n      div\n      0xffffffffffffffffffffffffffffffffffffffff\n      and\n        /* \"contracts/Pool/Pool.sol\":8953:8974  from == uniswapV2Pair */\n      0xffffffffffffffffffffffffffffffffffffffff\n      and\n        /* \"contracts/Pool/Pool.sol\":8953:8957  from */\n      dup5\n        /* \"contracts/Pool/Pool.sol\":8953:8974  from == uniswapV2Pair */\n      0xffffffffffffffffffffffffffffffffffffffff\n      and\n      eq\n        /* \"contracts/Pool/Pool.sol\":8953:9008  from == uniswapV2Pair && to != address(uniswapV2Router) */\n      dup1\n      iszero\n      tag_325\n      jumpi\n      pop\n        /* \"contracts/Pool/Pool.sol\":8992:9007  uniswapV2Router */\n      0x10\n      0x00\n      swap1\n      sload\n      swap1\n      0x0100\n      exp\n      swap1\n      div\n      0xffffffffffffffffffffffffffffffffffffffff\n      and\n        /* \"contracts/Pool/Pool.sol\":8978:9008  to != address(uniswapV2Router) */\n      0xffffffffffffffffffffffffffffffffffffffff\n      and\n        /* \"contracts/Pool/Pool.sol\":8978:8980  to */\n      dup4\n        /* \"contracts/Pool/Pool.sol\":8978:9008  to != address(uniswapV2Router) */\n      0xffffffffffffffffffffffffffffffffffffffff\n      and\n      eq\n      iszero\n        /* \"contracts/Pool/Pool.sol\":8953:9008  from == uniswapV2Pair && to != address(uniswapV2Router) */\n    tag_325:\n        /* \"contracts/Pool/Pool.sol\":8950:9109  if(from == uniswapV2Pair && to != address(uniswapV2Router)) {... */\n      iszero\n      tag_326\n      jumpi\n        /* \"contracts/Pool/Pool.sol\":9040:9054  _redisFeeOnBuy */\n      sload(0x08)\n        /* \"contracts/Pool/Pool.sol\":9028:9037  _redisFee */\n      0x0c\n        /* \"contracts/Pool/Pool.sol\":9028:9054  _redisFee = _redisFeeOnBuy */\n      dup2\n      swap1\n      sstore\n      pop\n        /* \"contracts/Pool/Pool.sol\":9082:9094  _taxFeeOnBuy */\n      sload(0x09)\n        /* \"contracts/Pool/Pool.sol\":9072:9079  _taxFee */\n      0x0d\n        /* \"contracts/Pool/Pool.sol\":9072:9094  _taxFee = _taxFeeOnBuy */\n      dup2\n      swap1\n      sstore\n      pop\n        /* \"contracts/Pool/Pool.sol\":8950:9109  if(from == uniswapV2Pair && to != address(uniswapV2Router)) {... */\n    tag_326:\n        /* \"contracts/Pool/Pool.sol\":9137:9150  uniswapV2Pair */\n      0x13\n      0x00\n      swap1\n      sload\n      swap1\n      0x0100\n      exp\n      swap1\n      div\n      0xffffffffffffffffffffffffffffffffffffffff\n      and\n        /* \"contracts/Pool/Pool.sol\":9131:9150  to == uniswapV2Pair */\n      0xffffffffffffffffffffffffffffffffffffffff\n      and\n        /* \"contracts/Pool/Pool.sol\":9131:9133  to */\n      dup4\n        /* \"contracts/Pool/Pool.sol\":9131:9150  to == uniswapV2Pair */\n      0xffffffffffffffffffffffffffffffffffffffff\n      and\n      eq\n        /* \"contracts/Pool/Pool.sol\":9131:9186  to == uniswapV2Pair && from != address(uniswapV2Router) */\n      dup1\n      iszero\n      tag_327\n      jumpi\n      pop\n        /* \"contracts/Pool/Pool.sol\":9170:9185  uniswapV2Router */\n      0x10\n      0x00\n      swap1\n      sload\n      swap1\n      0x0100\n      exp\n      swap1\n      div\n      0xffffffffffffffffffffffffffffffffffffffff\n      and\n        /* \"contracts/Pool/Pool.sol\":9154:9186  from != address(uniswapV2Router) */\n      0xffffffffffffffffffffffffffffffffffffffff\n      and\n        /* \"contracts/Pool/Pool.sol\":9154:9158  from */\n      dup5\n        /* \"contracts/Pool/Pool.sol\":9154:9186  from != address(uniswapV2Router) */\n      0xffffffffffffffffffffffffffffffffffffffff\n      and\n      eq\n      iszero\n        /* \"contracts/Pool/Pool.sol\":9131:9186  to == uniswapV2Pair && from != address(uniswapV2Router) */\n    tag_327:\n        /* \"contracts/Pool/Pool.sol\":9127:9289  if (to == uniswapV2Pair && from != address(uniswapV2Router)) {... */\n      iszero\n      tag_328\n      jumpi\n        /* \"contracts/Pool/Pool.sol\":9218:9233  _redisFeeOnSell */\n      sload(0x0a)\n        /* \"contracts/Pool/Pool.sol\":9206:9215  _redisFee */\n      0x0c\n        /* \"contracts/Pool/Pool.sol\":9206:9233  _redisFee = _redisFeeOnSell */\n      dup2\n      swap1\n      sstore\n      pop\n        /* \"contracts/Pool/Pool.sol\":9261:9274  _taxFeeOnSell */\n      sload(0x0b)\n        /* \"contracts/Pool/Pool.sol\":9251:9258  _taxFee */\n      0x0d\n        /* \"contracts/Pool/Pool.sol\":9251:9274  _taxFee = _taxFeeOnSell */\n      dup2\n      swap1\n      sstore\n      pop\n        /* \"contracts/Pool/Pool.sol\":9127:9289  if (to == uniswapV2Pair && from != address(uniswapV2Router)) {... */\n    tag_328:\n        /* \"contracts/Pool/Pool.sol\":9320:9338  _isExcludedFromFee */\n      0x05\n        /* \"contracts/Pool/Pool.sol\":9320:9344  _isExcludedFromFee[from] */\n      0x00\n        /* \"contracts/Pool/Pool.sol\":9339:9343  from */\n      dup6\n        /* \"contracts/Pool/Pool.sol\":9320:9344  _isExcludedFromFee[from] */\n      0xffffffffffffffffffffffffffffffffffffffff\n      and\n      0xffffffffffffffffffffffffffffffffffffffff\n      and\n      dup2\n      mstore\n      0x20\n      add\n      swap1\n      dup2\n      mstore\n      0x20\n      add\n      0x00\n      keccak256\n      0x00\n      swap1\n      sload\n      swap1\n      0x0100\n      exp\n      swap1\n      div\n      0xff\n      and\n        /* \"contracts/Pool/Pool.sol\":9320:9370  _isExcludedFromFee[from] || _isExcludedFromFee[to] */\n      dup1\n      tag_329\n      jumpi\n      pop\n        /* \"contracts/Pool/Pool.sol\":9348:9366  _isExcludedFromFee */\n      0x05\n        /* \"contracts/Pool/Pool.sol\":9348:9370  _isExcludedFromFee[to] */\n      0x00\n        /* \"contracts/Pool/Pool.sol\":9367:9369  to */\n      dup5\n        /* \"contracts/Pool/Pool.sol\":9348:9370  _isExcludedFromFee[to] */\n      0xffffffffffffffffffffffffffffffffffffffff\n      and\n      0xffffffffffffffffffffffffffffffffffffffff\n      and\n      dup2\n      mstore\n      0x20\n      add\n      swap1\n      dup2\n      mstore\n      0x20\n      add\n      0x00\n      keccak256\n      0x00\n      swap1\n      sload\n      swap1\n      0x0100\n      exp\n      swap1\n      div\n      0xff\n      and\n        /* \"contracts/Pool/Pool.sol\":9320:9370  _isExcludedFromFee[from] || _isExcludedFromFee[to] */\n    tag_329:\n        /* \"contracts/Pool/Pool.sol\":9319:9421  (_isExcludedFromFee[from] || _isExcludedFromFee[to]) || (from != uniswapV2Pair && to != uniswapV2Pair) */\n      dup1\n      tag_330\n      jumpi\n      pop\n        /* \"contracts/Pool/Pool.sol\":9384:9397  uniswapV2Pair */\n      0x13\n      0x00\n      swap1\n      sload\n      swap1\n      0x0100\n      exp\n      swap1\n      div\n      0xffffffffffffffffffffffffffffffffffffffff\n      and\n        /* \"contracts/Pool/Pool.sol\":9376:9397  from != uniswapV2Pair */\n      0xffffffffffffffffffffffffffffffffffffffff\n      and\n        /* \"contracts/Pool/Pool.sol\":9376:9380  from */\n      dup5\n        /* \"contracts/Pool/Pool.sol\":9376:9397  from != uniswapV2Pair */\n      0xffffffffffffffffffffffffffffffffffffffff\n      and\n      eq\n      iszero\n        /* \"contracts/Pool/Pool.sol\":9376:9420  from != uniswapV2Pair && to != uniswapV2Pair */\n      dup1\n      iszero\n      tag_331\n      jumpi\n      pop\n        /* \"contracts/Pool/Pool.sol\":9407:9420  uniswapV2Pair */\n      0x13\n      0x00\n      swap1\n      sload\n      swap1\n      0x0100\n      exp\n      swap1\n      div\n      0xffffffffffffffffffffffffffffffffffffffff\n      and\n        /* \"contracts/Pool/Pool.sol\":9401:9420  to != uniswapV2Pair */\n      0xffffffffffffffffffffffffffffffffffffffff\n      and\n        /* \"contracts/Pool/Pool.sol\":9401:9403  to */\n      dup4\n        /* \"contracts/Pool/Pool.sol\":9401:9420  to != uniswapV2Pair */\n      0xffffffffffffffffffffffffffffffffffffffff\n      and\n      eq\n      iszero\n        /* \"contracts/Pool/Pool.sol\":9376:9420  from != uniswapV2Pair && to != uniswapV2Pair */\n    tag_331:\n        /* \"contracts/Pool/Pool.sol\":9319:9421  (_isExcludedFromFee[from] || _isExcludedFromFee[to]) || (from != uniswapV2Pair && to != uniswapV2Pair) */\n    tag_330:\n        /* \"contracts/Pool/Pool.sol\":9315:9498  if ((_isExcludedFromFee[from] || _isExcludedFromFee[to]) || (from != uniswapV2Pair && to != uniswapV2Pair)) {... */\n      iszero\n      tag_332\n      jumpi\n        /* \"contracts/Pool/Pool.sol\":9453:9454  0 */\n      0x00\n        /* \"contracts/Pool/Pool.sol\":9441:9450  _redisFee */\n      0x0c\n        /* \"contracts/Pool/Pool.sol\":9441:9454  _redisFee = 0 */\n      dup2\n      swap1\n      sstore\n      pop\n        /* \"contracts/Pool/Pool.sol\":9482:9483  0 */\n      0x00\n        /* \"contracts/Pool/Pool.sol\":9472:9479  _taxFee */\n      0x0d\n        /* \"contracts/Pool/Pool.sol\":9472:9483  _taxFee = 0 */\n      dup2\n      swap1\n      sstore\n      pop\n        /* \"contracts/Pool/Pool.sol\":9315:9498  if ((_isExcludedFromFee[from] || _isExcludedFromFee[to]) || (from != uniswapV2Pair && to != uniswapV2Pair)) {... */\n    tag_332:\n        /* \"contracts/Pool/Pool.sol\":8450:9521  if (from != owner() && to != owner()) {... */\n      pop\n    tag_316:\n        /* \"contracts/Pool/Pool.sol\":9531:9561  _tokenTransfer(from,to,amount) */\n      tag_333\n        /* \"contracts/Pool/Pool.sol\":9546:9550  from */\n      dup4\n        /* \"contracts/Pool/Pool.sol\":9551:9553  to */\n      dup4\n        /* \"contracts/Pool/Pool.sol\":9554:9560  amount */\n      dup4\n        /* \"contracts/Pool/Pool.sol\":9531:9545  _tokenTransfer */\n      tag_334\n        /* \"contracts/Pool/Pool.sol\":9531:9561  _tokenTransfer(from,to,amount) */\n      jump\t// in\n    tag_333:\n        /* \"contracts/Pool/Pool.sol\":8083:9568  function _transfer(address from, address to, uint256 amount) private {... */\n      pop\n      pop\n      pop\n      jump\t// out\n        /* \"contracts/Pool/Pool.sol\":2105:2291  function sub(uint256 a, uint256 b, string memory errorMessage) internal pure returns (uint256) {... */\n    tag_165:\n        /* \"contracts/Pool/Pool.sol\":2191:2198  uint256 */\n      0x00\n        /* \"contracts/Pool/Pool.sol\":2223:2224  a */\n      dup4\n        /* \"contracts/Pool/Pool.sol\":2218:2219  b */\n      dup4\n        /* \"contracts/Pool/Pool.sol\":2218:2224  b <= a */\n      gt\n      iszero\n        /* \"contracts/Pool/Pool.sol\":2226:2238  errorMessage */\n      dup3\n        /* \"contracts/Pool/Pool.sol\":2210:2239  require(b <= a, errorMessage) */\n      swap1\n      tag_336\n      jumpi\n      mload(0x40)\n      0x08c379a000000000000000000000000000000000000000000000000000000000\n      dup2\n      mstore\n      0x04\n      add\n      tag_337\n      swap2\n      swap1\n      tag_38\n      jump\t// in\n    tag_337:\n      mload(0x40)\n      dup1\n      swap2\n      sub\n      swap1\n      revert\n    tag_336:\n      pop\n        /* \"contracts/Pool/Pool.sol\":2249:2258  uint256 c */\n      0x00\n        /* \"contracts/Pool/Pool.sol\":2265:2266  b */\n      dup4\n        /* \"contracts/Pool/Pool.sol\":2261:2262  a */\n      dup6\n        /* \"contracts/Pool/Pool.sol\":2261:2266  a - b */\n      tag_338\n      swap2\n      swap1\n      tag_339\n      jump\t// in\n    tag_338:\n        /* \"contracts/Pool/Pool.sol\":2249:2266  uint256 c = a - b */\n      swap1\n      pop\n        /* \"contracts/Pool/Pool.sol\":2283:2284  c */\n      dup1\n        /* \"contracts/Pool/Pool.sol\":2276:2284  return c */\n      swap2\n      pop\n      pop\n        /* \"contracts/Pool/Pool.sol\":2105:2291  function sub(uint256 a, uint256 b, string memory errorMessage) internal pure returns (uint256) {... */\n      swap4\n      swap3\n      pop\n      pop\n      pop\n      jump\t// out\n        /* \"contracts/Pool/Pool.sol\":10294:10451  function sendETHToFee(uint256 amount) private {... */\n    tag_185:\n        /* \"contracts/Pool/Pool.sol\":10350:10369  _developmentAddress */\n      0x0e\n      0x01\n      swap1\n      sload\n      swap1\n      0x0100\n      exp\n      swap1\n      div\n      0xffffffffffffffffffffffffffffffffffffffff\n      and\n        /* \"contracts/Pool/Pool.sol\":10350:10378  _developmentAddress.transfer */\n      0xffffffffffffffffffffffffffffffffffffffff\n      and\n        /* \"contracts/Pool/Pool.sol\":10350:10393  _developmentAddress.transfer(amount.div(2)) */\n      0x08fc\n        /* \"contracts/Pool/Pool.sol\":10379:10392  amount.div(2) */\n      tag_341\n        /* \"contracts/Pool/Pool.sol\":10390:10391  2 */\n      0x02\n        /* \"contracts/Pool/Pool.sol\":10379:10385  amount */\n      dup5\n        /* \"contracts/Pool/Pool.sol\":10379:10389  amount.div */\n      tag_342\n      swap1\n        /* \"contracts/Pool/Pool.sol\":10379:10392  amount.div(2) */\n      swap2\n      swap1\n      0xffffffff\n      and\n      jump\t// in\n    tag_341:\n        /* \"contracts/Pool/Pool.sol\":10350:10393  _developmentAddress.transfer(amount.div(2)) */\n      swap1\n      dup2\n      iszero\n      mul\n      swap1\n      mload(0x40)\n      0x00\n      mload(0x40)\n      dup1\n      dup4\n      sub\n      dup2\n      dup6\n      dup9\n      dup9\n      call\n      swap4\n      pop\n      pop\n      pop\n      pop\n      iszero\n      dup1\n      iszero\n      tag_344\n      jumpi\n      returndatasize\n      0x00\n      dup1\n      returndatacopy\n      revert(0x00, returndatasize)\n    tag_344:\n      pop\n        /* \"contracts/Pool/Pool.sol\":10403:10420  _marketingAddress */\n      0x0f\n      0x00\n      swap1\n      sload\n      swap1\n      0x0100\n      exp\n      swap1\n      div\n      0xffffffffffffffffffffffffffffffffffffffff\n      and\n        /* \"contracts/Pool/Pool.sol\":10403:10429  _marketingAddress.transfer */\n      0xffffffffffffffffffffffffffffffffffffffff\n      and\n        /* \"contracts/Pool/Pool.sol\":10403:10444  _marketingAddress.transfer(amount.div(2)) */\n      0x08fc\n        /* \"contracts/Pool/Pool.sol\":10430:10443  amount.div(2) */\n      tag_345\n        /* \"contracts/Pool/Pool.sol\":10441:10442  2 */\n      0x02\n        /* \"contracts/Pool/Pool.sol\":10430:10436  amount */\n      dup5\n        /* \"contracts/Pool/Pool.sol\":10430:10440  amount.div */\n      tag_342\n      swap1\n        /* \"contracts/Pool/Pool.sol\":10430:10443  amount.div(2) */\n      swap2\n      swap1\n      0xffffffff\n      and\n      jump\t// in\n    tag_345:\n        /* \"contracts/Pool/Pool.sol\":10403:10444  _marketingAddress.transfer(amount.div(2)) */\n      swap1\n      dup2\n      iszero\n      mul\n      swap1\n      mload(0x40)\n      0x00\n      mload(0x40)\n      dup1\n      dup4\n      sub\n      dup2\n      dup6\n      dup9\n      dup9\n      call\n      swap4\n      pop\n      pop\n      pop\n      pop\n      iszero\n      dup1\n      iszero\n      tag_347\n      jumpi\n      returndatasize\n      0x00\n      dup1\n      returndatacopy\n      revert(0x00, returndatasize)\n    tag_347:\n      pop\n        /* \"contracts/Pool/Pool.sol\":10294:10451  function sendETHToFee(uint256 amount) private {... */\n      pop\n      jump\t// out\n        /* \"contracts/Pool/Pool.sol\":7491:7741  function tokenFromReflection(uint256 rAmount) private view returns(uint256) {... */\n    tag_188:\n        /* \"contracts/Pool/Pool.sol\":7558:7565  uint256 */\n      0x00\n        /* \"contracts/Pool/Pool.sol\":7596:7603  _rTotal */\n      sload(0x06)\n        /* \"contracts/Pool/Pool.sol\":7585:7592  rAmount */\n      dup3\n        /* \"contracts/Pool/Pool.sol\":7585:7603  rAmount <= _rTotal */\n      gt\n      iszero\n        /* \"contracts/Pool/Pool.sol\":7577:7650  require(rAmount <= _rTotal, \"Amount must be less than total reflections\") */\n      tag_349\n      jumpi\n      mload(0x40)\n      0x08c379a000000000000000000000000000000000000000000000000000000000\n      dup2\n      mstore\n      0x04\n      add\n      tag_350\n      swap1\n      tag_351\n      jump\t// in\n    tag_350:\n      mload(0x40)\n      dup1\n      swap2\n      sub\n      swap1\n      revert\n    tag_349:\n        /* \"contracts/Pool/Pool.sol\":7660:7679  uint256 currentRate */\n      0x00\n        /* \"contracts/Pool/Pool.sol\":7683:7693  _getRate() */\n      tag_352\n        /* \"contracts/Pool/Pool.sol\":7683:7691  _getRate */\n      tag_353\n        /* \"contracts/Pool/Pool.sol\":7683:7693  _getRate() */\n      jump\t// in\n    tag_352:\n        /* \"contracts/Pool/Pool.sol\":7660:7693  uint256 currentRate =  _getRate() */\n      swap1\n      pop\n        /* \"contracts/Pool/Pool.sol\":7710:7734  rAmount.div(currentRate) */\n      tag_354\n        /* \"contracts/Pool/Pool.sol\":7722:7733  currentRate */\n      dup2\n        /* \"contracts/Pool/Pool.sol\":7710:7717  rAmount */\n      dup5\n        /* \"contracts/Pool/Pool.sol\":7710:7721  rAmount.div */\n      tag_342\n      swap1\n        /* \"contracts/Pool/Pool.sol\":7710:7734  rAmount.div(currentRate) */\n      swap2\n      swap1\n      0xffffffff\n      and\n      jump\t// in\n    tag_354:\n        /* \"contracts/Pool/Pool.sol\":7703:7734  return rAmount.div(currentRate) */\n      swap2\n      pop\n      pop\n        /* \"contracts/Pool/Pool.sol\":7491:7741  function tokenFromReflection(uint256 rAmount) private view returns(uint256) {... */\n      swap2\n      swap1\n      pop\n      jump\t// out\n        /* \"contracts/Pool/Pool.sol\":9809:10280  function swapTokensForEth(uint256 tokenAmount) private lockTheSwap {... */\n    tag_244:\n        /* \"contracts/Pool/Pool.sol\":5146:5150  true */\n      0x01\n        /* \"contracts/Pool/Pool.sol\":5137:5143  inSwap */\n      0x13\n      0x14\n        /* \"contracts/Pool/Pool.sol\":5137:5150  inSwap = true */\n      0x0100\n      exp\n      dup2\n      sload\n      dup2\n      0xff\n      mul\n      not\n      and\n      swap1\n      dup4\n      iszero\n      iszero\n      mul\n      or\n      swap1\n      sstore\n      pop\n        /* \"contracts/Pool/Pool.sol\":9886:9907  address[] memory path */\n      0x00\n        /* \"contracts/Pool/Pool.sol\":9924:9925  2 */\n      0x02\n        /* \"contracts/Pool/Pool.sol\":9910:9926  new address[](2) */\n      0xffffffffffffffff\n      dup2\n      gt\n      iszero\n      tag_357\n      jumpi\n      mstore(0x00, 0x4e487b7100000000000000000000000000000000000000000000000000000000)\n      mstore(0x04, 0x41)\n      revert(0x00, 0x24)\n    tag_357:\n      mload(0x40)\n      swap1\n      dup1\n      dup3\n      mstore\n      dup1\n      0x20\n      mul\n      0x20\n      add\n      dup3\n      add\n      0x40\n      mstore\n      dup1\n      iszero\n      tag_358\n      jumpi\n      dup2\n      0x20\n      add\n      0x20\n      dup3\n      mul\n      dup1\n      calldatasize\n      dup4\n      calldatacopy\n      dup1\n      dup3\n      add\n      swap2\n      pop\n      pop\n      swap1\n      pop\n    tag_358:\n      pop\n        /* \"contracts/Pool/Pool.sol\":9886:9926  address[] memory path = new address[](2) */\n      swap1\n      pop\n        /* \"contracts/Pool/Pool.sol\":9954:9958  this */\n      address\n        /* \"contracts/Pool/Pool.sol\":9936:9940  path */\n      dup2\n        /* \"contracts/Pool/Pool.sol\":9941:9942  0 */\n      0x00\n        /* \"contracts/Pool/Pool.sol\":9936:9943  path[0] */\n      dup2\n      mload\n      dup2\n      lt\n      tag_359\n      jumpi\n      mstore(0x00, 0x4e487b7100000000000000000000000000000000000000000000000000000000)\n      mstore(0x04, 0x32)\n      revert(0x00, 0x24)\n    tag_359:\n      0x20\n      mul\n      0x20\n      add\n      add\n        /* \"contracts/Pool/Pool.sol\":9936:9959  path[0] = address(this) */\n      swap1\n      0xffffffffffffffffffffffffffffffffffffffff\n      and\n      swap1\n      dup2\n      0xffffffffffffffffffffffffffffffffffffffff\n      and\n      dup2\n      mstore\n      pop\n      pop\n        /* \"contracts/Pool/Pool.sol\":9979:9994  uniswapV2Router */\n      0x10\n      0x00\n      swap1\n      sload\n      swap1\n      0x0100\n      exp\n      swap1\n      div\n      0xffffffffffffffffffffffffffffffffffffffff\n      and\n        /* \"contracts/Pool/Pool.sol\":9979:9999  uniswapV2Router.WETH */\n      0xffffffffffffffffffffffffffffffffffffffff\n      and\n      0xad5c4648\n        /* \"contracts/Pool/Pool.sol\":9979:10001  uniswapV2Router.WETH() */\n      mload(0x40)\n      dup2\n      0xffffffff\n      and\n      0xe0\n      shl\n      dup2\n      mstore\n      0x04\n      add\n      0x20\n      mload(0x40)\n      dup1\n      dup4\n      sub\n      dup2\n      dup7\n      dup1\n      extcodesize\n      iszero\n      dup1\n      iszero\n      tag_360\n      jumpi\n      0x00\n      dup1\n      revert\n    tag_360:\n      pop\n      gas\n      staticcall\n      iszero\n      dup1\n      iszero\n      tag_362\n      jumpi\n      returndatasize\n      0x00\n      dup1\n      returndatacopy\n      revert(0x00, returndatasize)\n    tag_362:\n      pop\n      pop\n      pop\n      pop\n      mload(0x40)\n      returndatasize\n      not(0x1f)\n      0x1f\n      dup3\n      add\n      and\n      dup3\n      add\n      dup1\n      0x40\n      mstore\n      pop\n      dup2\n      add\n      swap1\n      tag_363\n      swap2\n      swap1\n      tag_271\n      jump\t// in\n    tag_363:\n        /* \"contracts/Pool/Pool.sol\":9969:9973  path */\n      dup2\n        /* \"contracts/Pool/Pool.sol\":9974:9975  1 */\n      0x01\n        /* \"contracts/Pool/Pool.sol\":9969:9976  path[1] */\n      dup2\n      mload\n      dup2\n      lt\n      tag_364\n      jumpi\n      mstore(0x00, 0x4e487b7100000000000000000000000000000000000000000000000000000000)\n      mstore(0x04, 0x32)\n      revert(0x00, 0x24)\n    tag_364:\n      0x20\n      mul\n      0x20\n      add\n      add\n        /* \"contracts/Pool/Pool.sol\":9969:10001  path[1] = uniswapV2Router.WETH() */\n      swap1\n      0xffffffffffffffffffffffffffffffffffffffff\n      and\n      swap1\n      dup2\n      0xffffffffffffffffffffffffffffffffffffffff\n      and\n      dup2\n      mstore\n      pop\n      pop\n        /* \"contracts/Pool/Pool.sol\":10011:10073  _approve(address(this), address(uniswapV2Router), tokenAmount) */\n      tag_365\n        /* \"contracts/Pool/Pool.sol\":10028:10032  this */\n      address\n        /* \"contracts/Pool/Pool.sol\":10043:10058  uniswapV2Router */\n      0x10\n      0x00\n      swap1\n      sload\n      swap1\n      0x0100\n      exp\n      swap1\n      div\n      0xffffffffffffffffffffffffffffffffffffffff\n      and\n        /* \"contracts/Pool/Pool.sol\":10061:10072  tokenAmount */\n      dup5\n        /* \"contracts/Pool/Pool.sol\":10011:10019  _approve */\n      tag_156\n        /* \"contracts/Pool/Pool.sol\":10011:10073  _approve(address(this), address(uniswapV2Router), tokenAmount) */\n      jump\t// in\n    tag_365:\n        /* \"contracts/Pool/Pool.sol\":10083:10098  uniswapV2Router */\n      0x10\n      0x00\n      swap1\n      sload\n      swap1\n      0x0100\n      exp\n      swap1\n      div\n      0xffffffffffffffffffffffffffffffffffffffff\n      and\n        /* \"contracts/Pool/Pool.sol\":10083:10149  uniswapV2Router.swapExactTokensForETHSupportingFeeOnTransferTokens */\n      0xffffffffffffffffffffffffffffffffffffffff\n      and\n      0x791ac947\n        /* \"contracts/Pool/Pool.sol\":10163:10174  tokenAmount */\n      dup4\n        /* \"contracts/Pool/Pool.sol\":10188:10189  0 */\n      0x00\n        /* \"contracts/Pool/Pool.sol\":10203:10207  path */\n      dup5\n        /* \"contracts/Pool/Pool.sol\":10229:10233  this */\n      address\n        /* \"contracts/Pool/Pool.sol\":10248:10263  block.timestamp */\n      timestamp\n        /* \"contracts/Pool/Pool.sol\":10083:10273  uniswapV2Router.swapExactTokensForETHSupportingFeeOnTransferTokens(... */\n      mload(0x40)\n      dup7\n      0xffffffff\n      and\n      0xe0\n      shl\n      dup2\n      mstore\n      0x04\n      add\n      tag_366\n      swap6\n      swap5\n      swap4\n      swap3\n      swap2\n      swap1\n      tag_367\n      jump\t// in\n    tag_366:\n      0x00\n      mload(0x40)\n      dup1\n      dup4\n      sub\n      dup2\n      0x00\n      dup8\n      dup1\n      extcodesize\n      iszero\n      dup1\n      iszero\n      tag_368\n      jumpi\n      0x00\n      dup1\n      revert\n    tag_368:\n      pop\n      gas\n      call\n      iszero\n      dup1\n      iszero\n      tag_370\n      jumpi\n      returndatasize\n      0x00\n      dup1\n      returndatacopy\n      revert(0x00, returndatasize)\n    tag_370:\n      pop\n      pop\n      pop\n      pop\n        /* \"contracts/Pool/Pool.sol\":5160:5161  _ */\n      pop\n        /* \"contracts/Pool/Pool.sol\":5180:5185  false */\n      0x00\n        /* \"contracts/Pool/Pool.sol\":5171:5177  inSwap */\n      0x13\n      0x14\n        /* \"contracts/Pool/Pool.sol\":5171:5185  inSwap = false */\n      0x0100\n      exp\n      dup2\n      sload\n      dup2\n      0xff\n      mul\n      not\n      and\n      swap1\n      dup4\n      iszero\n      iszero\n      mul\n      or\n      swap1\n      sstore\n      pop\n        /* \"contracts/Pool/Pool.sol\":9809:10280  function swapTokensForEth(uint256 tokenAmount) private lockTheSwap {... */\n      pop\n      jump\t// out\n        /* \"contracts/Pool/Pool.sol\":10461:10605  function _tokenTransfer(address sender, address recipient, uint256 amount) private {... */\n    tag_334:\n        /* \"contracts/Pool/Pool.sol\":10554:10598  _transferStandard(sender, recipient, amount) */\n      tag_372\n        /* \"contracts/Pool/Pool.sol\":10572:10578  sender */\n      dup4\n        /* \"contracts/Pool/Pool.sol\":10580:10589  recipient */\n      dup4\n        /* \"contracts/Pool/Pool.sol\":10591:10597  amount */\n      dup4\n        /* \"contracts/Pool/Pool.sol\":10554:10571  _transferStandard */\n      tag_373\n        /* \"contracts/Pool/Pool.sol\":10554:10598  _transferStandard(sender, recipient, amount) */\n      jump\t// in\n    tag_372:\n        /* \"contracts/Pool/Pool.sol\":10461:10605  function _tokenTransfer(address sender, address recipient, uint256 amount) private {... */\n      pop\n      pop\n      pop\n      jump\t// out\n        /* \"contracts/Pool/Pool.sol\":2542:2672  function div(uint256 a, uint256 b) internal pure returns (uint256) {... */\n    tag_342:\n        /* \"contracts/Pool/Pool.sol\":2600:2607  uint256 */\n      0x00\n        /* \"contracts/Pool/Pool.sol\":2626:2665  div(a, b, \"SafeMath: division by zero\") */\n      tag_375\n        /* \"contracts/Pool/Pool.sol\":2630:2631  a */\n      dup4\n        /* \"contracts/Pool/Pool.sol\":2633:2634  b */\n      dup4\n        /* \"contracts/Pool/Pool.sol\":2626:2665  div(a, b, \"SafeMath: division by zero\") */\n      mload(0x40)\n      dup1\n      0x40\n      add\n      0x40\n      mstore\n      dup1\n      0x1a\n      dup2\n      mstore\n      0x20\n      add\n      0x536166654d6174683a206469766973696f6e206279207a65726f000000000000\n      dup2\n      mstore\n      pop\n        /* \"contracts/Pool/Pool.sol\":2626:2629  div */\n      tag_376\n        /* \"contracts/Pool/Pool.sol\":2626:2665  div(a, b, \"SafeMath: division by zero\") */\n      jump\t// in\n    tag_375:\n        /* \"contracts/Pool/Pool.sol\":2619:2665  return div(a, b, \"SafeMath: division by zero\") */\n      swap1\n      pop\n        /* \"contracts/Pool/Pool.sol\":2542:2672  function div(uint256 a, uint256 b) internal pure returns (uint256) {... */\n      swap3\n      swap2\n      pop\n      pop\n      jump\t// out\n        /* \"contracts/Pool/Pool.sol\":13653:13813  function _getRate() private view returns(uint256) {... */\n    tag_353:\n        /* \"contracts/Pool/Pool.sol\":13694:13701  uint256 */\n      0x00\n        /* \"contracts/Pool/Pool.sol\":13714:13729  uint256 rSupply */\n      dup1\n        /* \"contracts/Pool/Pool.sol\":13731:13746  uint256 tSupply */\n      0x00\n        /* \"contracts/Pool/Pool.sol\":13750:13769  _getCurrentSupply() */\n      tag_378\n        /* \"contracts/Pool/Pool.sol\":13750:13767  _getCurrentSupply */\n      tag_379\n        /* \"contracts/Pool/Pool.sol\":13750:13769  _getCurrentSupply() */\n      jump\t// in\n    tag_378:\n        /* \"contracts/Pool/Pool.sol\":13713:13769  (uint256 rSupply, uint256 tSupply) = _getCurrentSupply() */\n      swap2\n      pop\n      swap2\n      pop\n        /* \"contracts/Pool/Pool.sol\":13786:13806  rSupply.div(tSupply) */\n      tag_380\n        /* \"contracts/Pool/Pool.sol\":13798:13805  tSupply */\n      dup2\n        /* \"contracts/Pool/Pool.sol\":13786:13793  rSupply */\n      dup4\n        /* \"contracts/Pool/Pool.sol\":13786:13797  rSupply.div */\n      tag_342\n      swap1\n        /* \"contracts/Pool/Pool.sol\":13786:13806  rSupply.div(tSupply) */\n      swap2\n      swap1\n      0xffffffff\n      and\n      jump\t// in\n    tag_380:\n        /* \"contracts/Pool/Pool.sol\":13779:13806  return rSupply.div(tSupply) */\n      swap3\n      pop\n      pop\n      pop\n        /* \"contracts/Pool/Pool.sol\":13653:13813  function _getRate() private view returns(uint256) {... */\n      swap1\n      jump\t// out\n        /* \"contracts/Pool/Pool.sol\":11535:12016  function _transferStandard(address sender, address recipient, uint256 tAmount) private {... */\n    tag_373:\n        /* \"contracts/Pool/Pool.sol\":11633:11648  uint256 rAmount */\n      0x00\n        /* \"contracts/Pool/Pool.sol\":11650:11673  uint256 rTransferAmount */\n      dup1\n        /* \"contracts/Pool/Pool.sol\":11675:11687  uint256 rFee */\n      0x00\n        /* \"contracts/Pool/Pool.sol\":11689:11712  uint256 tTransferAmount */\n      dup1\n        /* \"contracts/Pool/Pool.sol\":11714:11726  uint256 tFee */\n      0x00\n        /* \"contracts/Pool/Pool.sol\":11728:11741  uint256 tTeam */\n      dup1\n        /* \"contracts/Pool/Pool.sol\":11745:11764  _getValues(tAmount) */\n      tag_382\n        /* \"contracts/Pool/Pool.sol\":11756:11763  tAmount */\n      dup8\n        /* \"contracts/Pool/Pool.sol\":11745:11755  _getValues */\n      tag_383\n        /* \"contracts/Pool/Pool.sol\":11745:11764  _getValues(tAmount) */\n      jump\t// in\n    tag_382:\n        /* \"contracts/Pool/Pool.sol\":11632:11764  (uint256 rAmount, uint256 rTransferAmount, uint256 rFee, uint256 tTransferAmount, uint256 tFee, uint256 tTeam) = _getValues(tAmount) */\n      swap6\n      pop\n      swap6\n      pop\n      swap6\n      pop\n      swap6\n      pop\n      swap6\n      pop\n      swap6\n      pop\n        /* \"contracts/Pool/Pool.sol\":11792:11820  _rOwned[sender].sub(rAmount) */\n      tag_384\n        /* \"contracts/Pool/Pool.sol\":11812:11819  rAmount */\n      dup7\n        /* \"contracts/Pool/Pool.sol\":11792:11799  _rOwned */\n      0x02\n        /* \"contracts/Pool/Pool.sol\":11792:11807  _rOwned[sender] */\n      0x00\n        /* \"contracts/Pool/Pool.sol\":11800:11806  sender */\n      dup13\n        /* \"contracts/Pool/Pool.sol\":11792:11807  _rOwned[sender] */\n      0xffffffffffffffffffffffffffffffffffffffff\n      and\n      0xffffffffffffffffffffffffffffffffffffffff\n      and\n      dup2\n      mstore\n      0x20\n      add\n      swap1\n      dup2\n      mstore\n      0x20\n      add\n      0x00\n      keccak256\n      sload\n        /* \"contracts/Pool/Pool.sol\":11792:11811  _rOwned[sender].sub */\n      tag_385\n      swap1\n        /* \"contracts/Pool/Pool.sol\":11792:11820  _rOwned[sender].sub(rAmount) */\n      swap2\n      swap1\n      0xffffffff\n      and\n      jump\t// in\n    tag_384:\n        /* \"contracts/Pool/Pool.sol\":11774:11781  _rOwned */\n      0x02\n        /* \"contracts/Pool/Pool.sol\":11774:11789  _rOwned[sender] */\n      0x00\n        /* \"contracts/Pool/Pool.sol\":11782:11788  sender */\n      dup12\n        /* \"contracts/Pool/Pool.sol\":11774:11789  _rOwned[sender] */\n      0xffffffffffffffffffffffffffffffffffffffff\n      and\n      0xffffffffffffffffffffffffffffffffffffffff\n      and\n      dup2\n      mstore\n      0x20\n      add\n      swap1\n      dup2\n      mstore\n      0x20\n      add\n      0x00\n      keccak256\n        /* \"contracts/Pool/Pool.sol\":11774:11820  _rOwned[sender] = _rOwned[sender].sub(rAmount) */\n      dup2\n      swap1\n      sstore\n      pop\n        /* \"contracts/Pool/Pool.sol\":11851:11890  _rOwned[recipient].add(rTransferAmount) */\n      tag_386\n        /* \"contracts/Pool/Pool.sol\":11874:11889  rTransferAmount */\n      dup6\n        /* \"contracts/Pool/Pool.sol\":11851:11858  _rOwned */\n      0x02\n        /* \"contracts/Pool/Pool.sol\":11851:11869  _rOwned[recipient] */\n      0x00\n        /* \"contracts/Pool/Pool.sol\":11859:11868  recipient */\n      dup12\n        /* \"contracts/Pool/Pool.sol\":11851:11869  _rOwned[recipient] */\n      0xffffffffffffffffffffffffffffffffffffffff\n      and\n      0xffffffffffffffffffffffffffffffffffffffff\n      and\n      dup2\n      mstore\n      0x20\n      add\n      swap1\n      dup2\n      mstore\n      0x20\n      add\n      0x00\n      keccak256\n      sload\n        /* \"contracts/Pool/Pool.sol\":11851:11873  _rOwned[recipient].add */\n      tag_387\n      swap1\n        /* \"contracts/Pool/Pool.sol\":11851:11890  _rOwned[recipient].add(rTransferAmount) */\n      swap2\n      swap1\n      0xffffffff\n      and\n      jump\t// in\n    tag_386:\n        /* \"contracts/Pool/Pool.sol\":11830:11837  _rOwned */\n      0x02\n        /* \"contracts/Pool/Pool.sol\":11830:11848  _rOwned[recipient] */\n      0x00\n        /* \"contracts/Pool/Pool.sol\":11838:11847  recipient */\n      dup11\n        /* \"contracts/Pool/Pool.sol\":11830:11848  _rOwned[recipient] */\n      0xffffffffffffffffffffffffffffffffffffffff\n      and\n      0xffffffffffffffffffffffffffffffffffffffff\n      and\n      dup2\n      mstore\n      0x20\n      add\n      swap1\n      dup2\n      mstore\n      0x20\n      add\n      0x00\n      keccak256\n        /* \"contracts/Pool/Pool.sol\":11830:11890  _rOwned[recipient] = _rOwned[recipient].add(rTransferAmount) */\n      dup2\n      swap1\n      sstore\n      pop\n        /* \"contracts/Pool/Pool.sol\":11901:11917  _takeTeam(tTeam) */\n      tag_388\n        /* \"contracts/Pool/Pool.sol\":11911:11916  tTeam */\n      dup2\n        /* \"contracts/Pool/Pool.sol\":11901:11910  _takeTeam */\n      tag_389\n        /* \"contracts/Pool/Pool.sol\":11901:11917  _takeTeam(tTeam) */\n      jump\t// in\n    tag_388:\n        /* \"contracts/Pool/Pool.sol\":11927:11950  _reflectFee(rFee, tFee) */\n      tag_390\n        /* \"contracts/Pool/Pool.sol\":11939:11943  rFee */\n      dup5\n        /* \"contracts/Pool/Pool.sol\":11945:11949  tFee */\n      dup4\n        /* \"contracts/Pool/Pool.sol\":11927:11938  _reflectFee */\n      tag_391\n        /* \"contracts/Pool/Pool.sol\":11927:11950  _reflectFee(rFee, tFee) */\n      jump\t// in\n    tag_390:\n        /* \"contracts/Pool/Pool.sol\":11982:11991  recipient */\n      dup8\n        /* \"contracts/Pool/Pool.sol\":11965:12009  Transfer(sender, recipient, tTransferAmount) */\n      0xffffffffffffffffffffffffffffffffffffffff\n      and\n        /* \"contracts/Pool/Pool.sol\":11974:11980  sender */\n      dup10\n        /* \"contracts/Pool/Pool.sol\":11965:12009  Transfer(sender, recipient, tTransferAmount) */\n      0xffffffffffffffffffffffffffffffffffffffff\n      and\n      0xddf252ad1be2c89b69c2b068fc378daa952ba7f163c4a11628f55a4df523b3ef\n        /* \"contracts/Pool/Pool.sol\":11993:12008  tTransferAmount */\n      dup6\n        /* \"contracts/Pool/Pool.sol\":11965:12009  Transfer(sender, recipient, tTransferAmount) */\n      mload(0x40)\n      tag_392\n      swap2\n      swap1\n      tag_55\n      jump\t// in\n    tag_392:\n      mload(0x40)\n      dup1\n      swap2\n      sub\n      swap1\n      log3\n        /* \"contracts/Pool/Pool.sol\":11535:12016  function _transferStandard(address sender, address recipient, uint256 tAmount) private {... */\n      pop\n      pop\n      pop\n      pop\n      pop\n      pop\n      pop\n      pop\n      pop\n      jump\t// out\n        /* \"contracts/Pool/Pool.sol\":2678:2863  function div(uint256 a, uint256 b, string memory errorMessage) internal pure returns (uint256) {... */\n    tag_376:\n        /* \"contracts/Pool/Pool.sol\":2764:2771  uint256 */\n      0x00\n        /* \"contracts/Pool/Pool.sol\":2795:2796  0 */\n      dup1\n        /* \"contracts/Pool/Pool.sol\":2791:2792  b */\n      dup4\n        /* \"contracts/Pool/Pool.sol\":2791:2796  b > 0 */\n      gt\n        /* \"contracts/Pool/Pool.sol\":2798:2810  errorMessage */\n      dup3\n        /* \"contracts/Pool/Pool.sol\":2783:2811  require(b > 0, errorMessage) */\n      swap1\n      tag_394\n      jumpi\n      mload(0x40)\n      0x08c379a000000000000000000000000000000000000000000000000000000000\n      dup2\n      mstore\n      0x04\n      add\n      tag_395\n      swap2\n      swap1\n      tag_38\n      jump\t// in\n    tag_395:\n      mload(0x40)\n      dup1\n      swap2\n      sub\n      swap1\n      revert\n    tag_394:\n      pop\n        /* \"contracts/Pool/Pool.sol\":2821:2830  uint256 c */\n      0x00\n        /* \"contracts/Pool/Pool.sol\":2837:2838  b */\n      dup4\n        /* \"contracts/Pool/Pool.sol\":2833:2834  a */\n      dup6\n        /* \"contracts/Pool/Pool.sol\":2833:2838  a / b */\n      tag_396\n      swap2\n      swap1\n      tag_397\n      jump\t// in\n    tag_396:\n        /* \"contracts/Pool/Pool.sol\":2821:2838  uint256 c = a / b */\n      swap1\n      pop\n        /* \"contracts/Pool/Pool.sol\":2855:2856  c */\n      dup1\n        /* \"contracts/Pool/Pool.sol\":2848:2856  return c */\n      swap2\n      pop\n      pop\n        /* \"contracts/Pool/Pool.sol\":2678:2863  function div(uint256 a, uint256 b, string memory errorMessage) internal pure returns (uint256) {... */\n      swap4\n      swap3\n      pop\n      pop\n      pop\n      jump\t// out\n        /* \"contracts/Pool/Pool.sol\":13819:14076  function _getCurrentSupply() private view returns(uint256, uint256) {... */\n    tag_379:\n        /* \"contracts/Pool/Pool.sol\":13869:13876  uint256 */\n      0x00\n        /* \"contracts/Pool/Pool.sol\":13878:13885  uint256 */\n      dup1\n        /* \"contracts/Pool/Pool.sol\":13897:13912  uint256 rSupply */\n      0x00\n        /* \"contracts/Pool/Pool.sol\":13915:13922  _rTotal */\n      sload(0x06)\n        /* \"contracts/Pool/Pool.sol\":13897:13922  uint256 rSupply = _rTotal */\n      swap1\n      pop\n        /* \"contracts/Pool/Pool.sol\":13932:13947  uint256 tSupply */\n      0x00\n        /* \"contracts/Pool/Pool.sol\":4138:4151  1*10**9*10**9 */\n      0x0de0b6b3a7640000\n        /* \"contracts/Pool/Pool.sol\":13932:13957  uint256 tSupply = _tTotal */\n      swap1\n      pop\n        /* \"contracts/Pool/Pool.sol\":13987:14007  _rTotal.div(_tTotal) */\n      tag_399\n        /* \"contracts/Pool/Pool.sol\":4138:4151  1*10**9*10**9 */\n      0x0de0b6b3a7640000\n        /* \"contracts/Pool/Pool.sol\":13987:13994  _rTotal */\n      sload(0x06)\n        /* \"contracts/Pool/Pool.sol\":13987:13998  _rTotal.div */\n      tag_342\n      swap1\n        /* \"contracts/Pool/Pool.sol\":13987:14007  _rTotal.div(_tTotal) */\n      swap2\n      swap1\n      0xffffffff\n      and\n      jump\t// in\n    tag_399:\n        /* \"contracts/Pool/Pool.sol\":13977:13984  rSupply */\n      dup3\n        /* \"contracts/Pool/Pool.sol\":13977:14007  rSupply < _rTotal.div(_tTotal) */\n      lt\n        /* \"contracts/Pool/Pool.sol\":13973:14034  if (rSupply < _rTotal.div(_tTotal)) return (_rTotal, _tTotal) */\n      iszero\n      tag_400\n      jumpi\n        /* \"contracts/Pool/Pool.sol\":14017:14024  _rTotal */\n      sload(0x06)\n        /* \"contracts/Pool/Pool.sol\":4138:4151  1*10**9*10**9 */\n      0x0de0b6b3a7640000\n        /* \"contracts/Pool/Pool.sol\":14009:14034  return (_rTotal, _tTotal) */\n      swap4\n      pop\n      swap4\n      pop\n      pop\n      pop\n      jump(tag_398)\n        /* \"contracts/Pool/Pool.sol\":13973:14034  if (rSupply < _rTotal.div(_tTotal)) return (_rTotal, _tTotal) */\n    tag_400:\n        /* \"contracts/Pool/Pool.sol\":14052:14059  rSupply */\n      dup2\n        /* \"contracts/Pool/Pool.sol\":14061:14068  tSupply */\n      dup2\n        /* \"contracts/Pool/Pool.sol\":14044:14069  return (rSupply, tSupply) */\n      swap4\n      pop\n      swap4\n      pop\n      pop\n      pop\n        /* \"contracts/Pool/Pool.sol\":13819:14076  function _getCurrentSupply() private view returns(uint256, uint256) {... */\n    tag_398:\n      swap1\n      swap2\n      jump\t// out\n        /* \"contracts/Pool/Pool.sol\":12425:12889  function _getValues(uint256 tAmount) private view returns (uint256, uint256, uint256, uint256, uint256, uint256) {... */\n    tag_383:\n        /* \"contracts/Pool/Pool.sol\":12484:12491  uint256 */\n      0x00\n        /* \"contracts/Pool/Pool.sol\":12493:12500  uint256 */\n      dup1\n        /* \"contracts/Pool/Pool.sol\":12502:12509  uint256 */\n      0x00\n        /* \"contracts/Pool/Pool.sol\":12511:12518  uint256 */\n      dup1\n        /* \"contracts/Pool/Pool.sol\":12520:12527  uint256 */\n      0x00\n        /* \"contracts/Pool/Pool.sol\":12529:12536  uint256 */\n      dup1\n        /* \"contracts/Pool/Pool.sol\":12549:12572  uint256 tTransferAmount */\n      0x00\n        /* \"contracts/Pool/Pool.sol\":12574:12586  uint256 tFee */\n      dup1\n        /* \"contracts/Pool/Pool.sol\":12588:12601  uint256 tTeam */\n      0x00\n        /* \"contracts/Pool/Pool.sol\":12605:12645  _getTValues(tAmount, _redisFee, _taxFee) */\n      tag_402\n        /* \"contracts/Pool/Pool.sol\":12617:12624  tAmount */\n      dup11\n        /* \"contracts/Pool/Pool.sol\":12626:12635  _redisFee */\n      sload(0x0c)\n        /* \"contracts/Pool/Pool.sol\":12637:12644  _taxFee */\n      sload(0x0d)\n        /* \"contracts/Pool/Pool.sol\":12605:12616  _getTValues */\n      tag_403\n        /* \"contracts/Pool/Pool.sol\":12605:12645  _getTValues(tAmount, _redisFee, _taxFee) */\n      jump\t// in\n    tag_402:\n        /* \"contracts/Pool/Pool.sol\":12548:12645  (uint256 tTransferAmount, uint256 tFee, uint256 tTeam) = _getTValues(tAmount, _redisFee, _taxFee) */\n      swap3\n      pop\n      swap3\n      pop\n      swap3\n      pop\n        /* \"contracts/Pool/Pool.sol\":12655:12674  uint256 currentRate */\n      0x00\n        /* \"contracts/Pool/Pool.sol\":12678:12688  _getRate() */\n      tag_404\n        /* \"contracts/Pool/Pool.sol\":12678:12686  _getRate */\n      tag_353\n        /* \"contracts/Pool/Pool.sol\":12678:12688  _getRate() */\n      jump\t// in\n    tag_404:\n        /* \"contracts/Pool/Pool.sol\":12655:12688  uint256 currentRate =  _getRate() */\n      swap1\n      pop\n        /* \"contracts/Pool/Pool.sol\":12699:12714  uint256 rAmount */\n      0x00\n        /* \"contracts/Pool/Pool.sol\":12716:12739  uint256 rTransferAmount */\n      dup1\n        /* \"contracts/Pool/Pool.sol\":12741:12753  uint256 rFee */\n      0x00\n        /* \"contracts/Pool/Pool.sol\":12757:12803  _getRValues(tAmount, tFee, tTeam, currentRate) */\n      tag_405\n        /* \"contracts/Pool/Pool.sol\":12769:12776  tAmount */\n      dup15\n        /* \"contracts/Pool/Pool.sol\":12778:12782  tFee */\n      dup8\n        /* \"contracts/Pool/Pool.sol\":12784:12789  tTeam */\n      dup8\n        /* \"contracts/Pool/Pool.sol\":12791:12802  currentRate */\n      dup8\n        /* \"contracts/Pool/Pool.sol\":12757:12768  _getRValues */\n      tag_406\n        /* \"contracts/Pool/Pool.sol\":12757:12803  _getRValues(tAmount, tFee, tTeam, currentRate) */\n      jump\t// in\n    tag_405:\n        /* \"contracts/Pool/Pool.sol\":12698:12803  (uint256 rAmount, uint256 rTransferAmount, uint256 rFee) = _getRValues(tAmount, tFee, tTeam, currentRate) */\n      swap3\n      pop\n      swap3\n      pop\n      swap3\n      pop\n        /* \"contracts/Pool/Pool.sol\":12821:12828  rAmount */\n      dup3\n        /* \"contracts/Pool/Pool.sol\":12830:12845  rTransferAmount */\n      dup3\n        /* \"contracts/Pool/Pool.sol\":12847:12851  rFee */\n      dup3\n        /* \"contracts/Pool/Pool.sol\":12853:12868  tTransferAmount */\n      dup10\n        /* \"contracts/Pool/Pool.sol\":12870:12874  tFee */\n      dup10\n        /* \"contracts/Pool/Pool.sol\":12876:12881  tTeam */\n      dup10\n        /* \"contracts/Pool/Pool.sol\":12813:12882  return (rAmount, rTransferAmount, rFee, tTransferAmount, tFee, tTeam) */\n      swap13\n      pop\n      swap13\n      pop\n      swap13\n      pop\n      swap13\n      pop\n      swap13\n      pop\n      swap13\n      pop\n      pop\n      pop\n      pop\n      pop\n      pop\n      pop\n      pop\n        /* \"contracts/Pool/Pool.sol\":12425:12889  function _getValues(uint256 tAmount) private view returns (uint256, uint256, uint256, uint256, uint256, uint256) {... */\n      swap2\n      swap4\n      swap6\n      pop\n      swap2\n      swap4\n      swap6\n      jump\t// out\n        /* \"contracts/Pool/Pool.sol\":1965:2099  function sub(uint256 a, uint256 b) internal pure returns (uint256) {... */\n    tag_385:\n        /* \"contracts/Pool/Pool.sol\":2023:2030  uint256 */\n      0x00\n        /* \"contracts/Pool/Pool.sol\":2049:2092  sub(a, b, \"SafeMath: subtraction overflow\") */\n      tag_408\n        /* \"contracts/Pool/Pool.sol\":2053:2054  a */\n      dup4\n        /* \"contracts/Pool/Pool.sol\":2056:2057  b */\n      dup4\n        /* \"contracts/Pool/Pool.sol\":2049:2092  sub(a, b, \"SafeMath: subtraction overflow\") */\n      mload(0x40)\n      dup1\n      0x40\n      add\n      0x40\n      mstore\n      dup1\n      0x1e\n      dup2\n      mstore\n      0x20\n      add\n      0x536166654d6174683a207375627472616374696f6e206f766572666c6f770000\n      dup2\n      mstore\n      pop\n        /* \"contracts/Pool/Pool.sol\":2049:2052  sub */\n      tag_165\n        /* \"contracts/Pool/Pool.sol\":2049:2092  sub(a, b, \"SafeMath: subtraction overflow\") */\n      jump\t// in\n    tag_408:\n        /* \"contracts/Pool/Pool.sol\":2042:2092  return sub(a, b, \"SafeMath: subtraction overflow\") */\n      swap1\n      pop\n        /* \"contracts/Pool/Pool.sol\":1965:2099  function sub(uint256 a, uint256 b) internal pure returns (uint256) {... */\n      swap3\n      swap2\n      pop\n      pop\n      jump\t// out\n        /* \"contracts/Pool/Pool.sol\":1784:1959  function add(uint256 a, uint256 b) internal pure returns (uint256) {... */\n    tag_387:\n        /* \"contracts/Pool/Pool.sol\":1842:1849  uint256 */\n      0x00\n        /* \"contracts/Pool/Pool.sol\":1861:1870  uint256 c */\n      dup1\n        /* \"contracts/Pool/Pool.sol\":1877:1878  b */\n      dup3\n        /* \"contracts/Pool/Pool.sol\":1873:1874  a */\n      dup5\n        /* \"contracts/Pool/Pool.sol\":1873:1878  a + b */\n      tag_410\n      swap2\n      swap1\n      tag_411\n      jump\t// in\n    tag_410:\n        /* \"contracts/Pool/Pool.sol\":1861:1878  uint256 c = a + b */\n      swap1\n      pop\n        /* \"contracts/Pool/Pool.sol\":1901:1902  a */\n      dup4\n        /* \"contracts/Pool/Pool.sol\":1896:1897  c */\n      dup2\n        /* \"contracts/Pool/Pool.sol\":1896:1902  c >= a */\n      lt\n      iszero\n        /* \"contracts/Pool/Pool.sol\":1888:1934  require(c >= a, \"SafeMath: addition overflow\") */\n      tag_412\n      jumpi\n      mload(0x40)\n      0x08c379a000000000000000000000000000000000000000000000000000000000\n      dup2\n      mstore\n      0x04\n      add\n      tag_413\n      swap1\n      tag_414\n      jump\t// in\n    tag_413:\n      mload(0x40)\n      dup1\n      swap2\n      sub\n      swap1\n      revert\n    tag_412:\n        /* \"contracts/Pool/Pool.sol\":1951:1952  c */\n      dup1\n        /* \"contracts/Pool/Pool.sol\":1944:1952  return c */\n      swap2\n      pop\n      pop\n        /* \"contracts/Pool/Pool.sol\":1784:1959  function add(uint256 a, uint256 b) internal pure returns (uint256) {... */\n      swap3\n      swap2\n      pop\n      pop\n      jump\t// out\n        /* \"contracts/Pool/Pool.sol\":12022:12230  function _takeTeam(uint256 tTeam) private {... */\n    tag_389:\n        /* \"contracts/Pool/Pool.sol\":12074:12093  uint256 currentRate */\n      0x00\n        /* \"contracts/Pool/Pool.sol\":12097:12107  _getRate() */\n      tag_416\n        /* \"contracts/Pool/Pool.sol\":12097:12105  _getRate */\n      tag_353\n        /* \"contracts/Pool/Pool.sol\":12097:12107  _getRate() */\n      jump\t// in\n    tag_416:\n        /* \"contracts/Pool/Pool.sol\":12074:12107  uint256 currentRate =  _getRate() */\n      swap1\n      pop\n        /* \"contracts/Pool/Pool.sol\":12117:12130  uint256 rTeam */\n      0x00\n        /* \"contracts/Pool/Pool.sol\":12133:12155  tTeam.mul(currentRate) */\n      tag_417\n        /* \"contracts/Pool/Pool.sol\":12143:12154  currentRate */\n      dup3\n        /* \"contracts/Pool/Pool.sol\":12133:12138  tTeam */\n      dup5\n        /* \"contracts/Pool/Pool.sol\":12133:12142  tTeam.mul */\n      tag_418\n      swap1\n        /* \"contracts/Pool/Pool.sol\":12133:12155  tTeam.mul(currentRate) */\n      swap2\n      swap1\n      0xffffffff\n      and\n      jump\t// in\n    tag_417:\n        /* \"contracts/Pool/Pool.sol\":12117:12155  uint256 rTeam = tTeam.mul(currentRate) */\n      swap1\n      pop\n        /* \"contracts/Pool/Pool.sol\":12190:12223  _rOwned[address(this)].add(rTeam) */\n      tag_419\n        /* \"contracts/Pool/Pool.sol\":12217:12222  rTeam */\n      dup2\n        /* \"contracts/Pool/Pool.sol\":12190:12197  _rOwned */\n      0x02\n        /* \"contracts/Pool/Pool.sol\":12190:12212  _rOwned[address(this)] */\n      0x00\n        /* \"contracts/Pool/Pool.sol\":12206:12210  this */\n      address\n        /* \"contracts/Pool/Pool.sol\":12190:12212  _rOwned[address(this)] */\n      0xffffffffffffffffffffffffffffffffffffffff\n      and\n      0xffffffffffffffffffffffffffffffffffffffff\n      and\n      dup2\n      mstore\n      0x20\n      add\n      swap1\n      dup2\n      mstore\n      0x20\n      add\n      0x00\n      keccak256\n      sload\n        /* \"contracts/Pool/Pool.sol\":12190:12216  _rOwned[address(this)].add */\n      tag_387\n      swap1\n        /* \"contracts/Pool/Pool.sol\":12190:12223  _rOwned[address(this)].add(rTeam) */\n      swap2\n      swap1\n      0xffffffff\n      and\n      jump\t// in\n    tag_419:\n        /* \"contracts/Pool/Pool.sol\":12165:12172  _rOwned */\n      0x02\n        /* \"contracts/Pool/Pool.sol\":12165:12187  _rOwned[address(this)] */\n      0x00\n        /* \"contracts/Pool/Pool.sol\":12181:12185  this */\n      address\n        /* \"contracts/Pool/Pool.sol\":12165:12187  _rOwned[address(this)] */\n      0xffffffffffffffffffffffffffffffffffffffff\n      and\n      0xffffffffffffffffffffffffffffffffffffffff\n      and\n      dup2\n      mstore\n      0x20\n      add\n      swap1\n      dup2\n      mstore\n      0x20\n      add\n      0x00\n      keccak256\n        /* \"contracts/Pool/Pool.sol\":12165:12223  _rOwned[address(this)] = _rOwned[address(this)].add(rTeam) */\n      dup2\n      swap1\n      sstore\n      pop\n        /* \"contracts/Pool/Pool.sol\":12022:12230  function _takeTeam(uint256 tTeam) private {... */\n      pop\n      pop\n      pop\n      jump\t// out\n        /* \"contracts/Pool/Pool.sol\":12236:12380  function _reflectFee(uint256 rFee, uint256 tFee) private {... */\n    tag_391:\n        /* \"contracts/Pool/Pool.sol\":12313:12330  _rTotal.sub(rFee) */\n      tag_421\n        /* \"contracts/Pool/Pool.sol\":12325:12329  rFee */\n      dup3\n        /* \"contracts/Pool/Pool.sol\":12313:12320  _rTotal */\n      sload(0x06)\n        /* \"contracts/Pool/Pool.sol\":12313:12324  _rTotal.sub */\n      tag_385\n      swap1\n        /* \"contracts/Pool/Pool.sol\":12313:12330  _rTotal.sub(rFee) */\n      swap2\n      swap1\n      0xffffffff\n      and\n      jump\t// in\n    tag_421:\n        /* \"contracts/Pool/Pool.sol\":12303:12310  _rTotal */\n      0x06\n        /* \"contracts/Pool/Pool.sol\":12303:12330  _rTotal = _rTotal.sub(rFee) */\n      dup2\n      swap1\n      sstore\n      pop\n        /* \"contracts/Pool/Pool.sol\":12353:12373  _tFeeTotal.add(tFee) */\n      tag_422\n        /* \"contracts/Pool/Pool.sol\":12368:12372  tFee */\n      dup2\n        /* \"contracts/Pool/Pool.sol\":12353:12363  _tFeeTotal */\n      sload(0x07)\n        /* \"contracts/Pool/Pool.sol\":12353:12367  _tFeeTotal.add */\n      tag_387\n      swap1\n        /* \"contracts/Pool/Pool.sol\":12353:12373  _tFeeTotal.add(tFee) */\n      swap2\n      swap1\n      0xffffffff\n      and\n      jump\t// in\n    tag_422:\n        /* \"contracts/Pool/Pool.sol\":12340:12350  _tFeeTotal */\n      0x07\n        /* \"contracts/Pool/Pool.sol\":12340:12373  _tFeeTotal = _tFeeTotal.add(tFee) */\n      dup2\n      swap1\n      sstore\n      pop\n        /* \"contracts/Pool/Pool.sol\":12236:12380  function _reflectFee(uint256 rFee, uint256 tFee) private {... */\n      pop\n      pop\n      jump\t// out\n        /* \"contracts/Pool/Pool.sol\":12895:13241  function _getTValues(uint256 tAmount, uint256 taxFee, uint256 TeamFee) private pure returns (uint256, uint256, uint256) {... */\n    tag_403:\n        /* \"contracts/Pool/Pool.sol\":12988:12995  uint256 */\n      0x00\n        /* \"contracts/Pool/Pool.sol\":12997:13004  uint256 */\n      dup1\n        /* \"contracts/Pool/Pool.sol\":13006:13013  uint256 */\n      0x00\n        /* \"contracts/Pool/Pool.sol\":13025:13037  uint256 tFee */\n      dup1\n        /* \"contracts/Pool/Pool.sol\":13040:13068  tAmount.mul(taxFee).div(100) */\n      tag_424\n        /* \"contracts/Pool/Pool.sol\":13064:13067  100 */\n      0x64\n        /* \"contracts/Pool/Pool.sol\":13040:13059  tAmount.mul(taxFee) */\n      tag_425\n        /* \"contracts/Pool/Pool.sol\":13052:13058  taxFee */\n      dup9\n        /* \"contracts/Pool/Pool.sol\":13040:13047  tAmount */\n      dup11\n        /* \"contracts/Pool/Pool.sol\":13040:13051  tAmount.mul */\n      tag_418\n      swap1\n        /* \"contracts/Pool/Pool.sol\":13040:13059  tAmount.mul(taxFee) */\n      swap2\n      swap1\n      0xffffffff\n      and\n      jump\t// in\n    tag_425:\n        /* \"contracts/Pool/Pool.sol\":13040:13063  tAmount.mul(taxFee).div */\n      tag_342\n      swap1\n        /* \"contracts/Pool/Pool.sol\":13040:13068  tAmount.mul(taxFee).div(100) */\n      swap2\n      swap1\n      0xffffffff\n      and\n      jump\t// in\n    tag_424:\n        /* \"contracts/Pool/Pool.sol\":13025:13068  uint256 tFee = tAmount.mul(taxFee).div(100) */\n      swap1\n      pop\n        /* \"contracts/Pool/Pool.sol\":13078:13091  uint256 tTeam */\n      0x00\n        /* \"contracts/Pool/Pool.sol\":13094:13123  tAmount.mul(TeamFee).div(100) */\n      tag_426\n        /* \"contracts/Pool/Pool.sol\":13119:13122  100 */\n      0x64\n        /* \"contracts/Pool/Pool.sol\":13094:13114  tAmount.mul(TeamFee) */\n      tag_427\n        /* \"contracts/Pool/Pool.sol\":13106:13113  TeamFee */\n      dup9\n        /* \"contracts/Pool/Pool.sol\":13094:13101  tAmount */\n      dup12\n        /* \"contracts/Pool/Pool.sol\":13094:13105  tAmount.mul */\n      tag_418\n      swap1\n        /* \"contracts/Pool/Pool.sol\":13094:13114  tAmount.mul(TeamFee) */\n      swap2\n      swap1\n      0xffffffff\n      and\n      jump\t// in\n    tag_427:\n        /* \"contracts/Pool/Pool.sol\":13094:13118  tAmount.mul(TeamFee).div */\n      tag_342\n      swap1\n        /* \"contracts/Pool/Pool.sol\":13094:13123  tAmount.mul(TeamFee).div(100) */\n      swap2\n      swap1\n      0xffffffff\n      and\n      jump\t// in\n    tag_426:\n        /* \"contracts/Pool/Pool.sol\":13078:13123  uint256 tTeam = tAmount.mul(TeamFee).div(100) */\n      swap1\n      pop\n        /* \"contracts/Pool/Pool.sol\":13133:13156  uint256 tTransferAmount */\n      0x00\n        /* \"contracts/Pool/Pool.sol\":13159:13187  tAmount.sub(tFee).sub(tTeam) */\n      tag_428\n        /* \"contracts/Pool/Pool.sol\":13181:13186  tTeam */\n      dup3\n        /* \"contracts/Pool/Pool.sol\":13159:13176  tAmount.sub(tFee) */\n      tag_429\n        /* \"contracts/Pool/Pool.sol\":13171:13175  tFee */\n      dup6\n        /* \"contracts/Pool/Pool.sol\":13159:13166  tAmount */\n      dup13\n        /* \"contracts/Pool/Pool.sol\":13159:13170  tAmount.sub */\n      tag_385\n      swap1\n        /* \"contracts/Pool/Pool.sol\":13159:13176  tAmount.sub(tFee) */\n      swap2\n      swap1\n      0xffffffff\n      and\n      jump\t// in\n    tag_429:\n        /* \"contracts/Pool/Pool.sol\":13159:13180  tAmount.sub(tFee).sub */\n      tag_385\n      swap1\n        /* \"contracts/Pool/Pool.sol\":13159:13187  tAmount.sub(tFee).sub(tTeam) */\n      swap2\n      swap1\n      0xffffffff\n      and\n      jump\t// in\n    tag_428:\n        /* \"contracts/Pool/Pool.sol\":13133:13187  uint256 tTransferAmount = tAmount.sub(tFee).sub(tTeam) */\n      swap1\n      pop\n        /* \"contracts/Pool/Pool.sol\":13205:13220  tTransferAmount */\n      dup1\n        /* \"contracts/Pool/Pool.sol\":13222:13226  tFee */\n      dup4\n        /* \"contracts/Pool/Pool.sol\":13228:13233  tTeam */\n      dup4\n        /* \"contracts/Pool/Pool.sol\":13197:13234  return (tTransferAmount, tFee, tTeam) */\n      swap6\n      pop\n      swap6\n      pop\n      swap6\n      pop\n      pop\n      pop\n      pop\n        /* \"contracts/Pool/Pool.sol\":12895:13241  function _getTValues(uint256 tAmount, uint256 taxFee, uint256 TeamFee) private pure returns (uint256, uint256, uint256) {... */\n      swap4\n      pop\n      swap4\n      pop\n      swap4\n      swap1\n      pop\n      jump\t// out\n        /* \"contracts/Pool/Pool.sol\":13247:13650  function _getRValues(uint256 tAmount, uint256 tFee, uint256 tTeam, uint256 currentRate) private pure returns (uint256, uint256, uint256) {... */\n    tag_406:\n        /* \"contracts/Pool/Pool.sol\":13357:13364  uint256 */\n      0x00\n        /* \"contracts/Pool/Pool.sol\":13366:13373  uint256 */\n      dup1\n        /* \"contracts/Pool/Pool.sol\":13375:13382  uint256 */\n      0x00\n        /* \"contracts/Pool/Pool.sol\":13394:13409  uint256 rAmount */\n      dup1\n        /* \"contracts/Pool/Pool.sol\":13412:13436  tAmount.mul(currentRate) */\n      tag_431\n        /* \"contracts/Pool/Pool.sol\":13424:13435  currentRate */\n      dup6\n        /* \"contracts/Pool/Pool.sol\":13412:13419  tAmount */\n      dup10\n        /* \"contracts/Pool/Pool.sol\":13412:13423  tAmount.mul */\n      tag_418\n      swap1\n        /* \"contracts/Pool/Pool.sol\":13412:13436  tAmount.mul(currentRate) */\n      swap2\n      swap1\n      0xffffffff\n      and\n      jump\t// in\n    tag_431:\n        /* \"contracts/Pool/Pool.sol\":13394:13436  uint256 rAmount = tAmount.mul(currentRate) */\n      swap1\n      pop\n        /* \"contracts/Pool/Pool.sol\":13446:13458  uint256 rFee */\n      0x00\n        /* \"contracts/Pool/Pool.sol\":13461:13482  tFee.mul(currentRate) */\n      tag_432\n        /* \"contracts/Pool/Pool.sol\":13470:13481  currentRate */\n      dup7\n        /* \"contracts/Pool/Pool.sol\":13461:13465  tFee */\n      dup10\n        /* \"contracts/Pool/Pool.sol\":13461:13469  tFee.mul */\n      tag_418\n      swap1\n        /* \"contracts/Pool/Pool.sol\":13461:13482  tFee.mul(currentRate) */\n      swap2\n      swap1\n      0xffffffff\n      and\n      jump\t// in\n    tag_432:\n        /* \"contracts/Pool/Pool.sol\":13446:13482  uint256 rFee = tFee.mul(currentRate) */\n      swap1\n      pop\n        /* \"contracts/Pool/Pool.sol\":13492:13505  uint256 rTeam */\n      0x00\n        /* \"contracts/Pool/Pool.sol\":13508:13530  tTeam.mul(currentRate) */\n      tag_433\n        /* \"contracts/Pool/Pool.sol\":13518:13529  currentRate */\n      dup8\n        /* \"contracts/Pool/Pool.sol\":13508:13513  tTeam */\n      dup10\n        /* \"contracts/Pool/Pool.sol\":13508:13517  tTeam.mul */\n      tag_418\n      swap1\n        /* \"contracts/Pool/Pool.sol\":13508:13530  tTeam.mul(currentRate) */\n      swap2\n      swap1\n      0xffffffff\n      and\n      jump\t// in\n    tag_433:\n        /* \"contracts/Pool/Pool.sol\":13492:13530  uint256 rTeam = tTeam.mul(currentRate) */\n      swap1\n      pop\n        /* \"contracts/Pool/Pool.sol\":13540:13563  uint256 rTransferAmount */\n      0x00\n        /* \"contracts/Pool/Pool.sol\":13566:13594  rAmount.sub(rFee).sub(rTeam) */\n      tag_434\n        /* \"contracts/Pool/Pool.sol\":13588:13593  rTeam */\n      dup3\n        /* \"contracts/Pool/Pool.sol\":13566:13583  rAmount.sub(rFee) */\n      tag_435\n        /* \"contracts/Pool/Pool.sol\":13578:13582  rFee */\n      dup6\n        /* \"contracts/Pool/Pool.sol\":13566:13573  rAmount */\n      dup8\n        /* \"contracts/Pool/Pool.sol\":13566:13577  rAmount.sub */\n      tag_385\n      swap1\n        /* \"contracts/Pool/Pool.sol\":13566:13583  rAmount.sub(rFee) */\n      swap2\n      swap1\n      0xffffffff\n      and\n      jump\t// in\n    tag_435:\n        /* \"contracts/Pool/Pool.sol\":13566:13587  rAmount.sub(rFee).sub */\n      tag_385\n      swap1\n        /* \"contracts/Pool/Pool.sol\":13566:13594  rAmount.sub(rFee).sub(rTeam) */\n      swap2\n      swap1\n      0xffffffff\n      and\n      jump\t// in\n    tag_434:\n        /* \"contracts/Pool/Pool.sol\":13540:13594  uint256 rTransferAmount = rAmount.sub(rFee).sub(rTeam) */\n      swap1\n      pop\n        /* \"contracts/Pool/Pool.sol\":13612:13619  rAmount */\n      dup4\n        /* \"contracts/Pool/Pool.sol\":13621:13636  rTransferAmount */\n      dup2\n        /* \"contracts/Pool/Pool.sol\":13638:13642  rFee */\n      dup5\n        /* \"contracts/Pool/Pool.sol\":13604:13643  return (rAmount, rTransferAmount, rFee) */\n      swap7\n      pop\n      swap7\n      pop\n      swap7\n      pop\n      pop\n      pop\n      pop\n      pop\n        /* \"contracts/Pool/Pool.sol\":13247:13650  function _getRValues(uint256 tAmount, uint256 tFee, uint256 tTeam, uint256 currentRate) private pure returns (uint256, uint256, uint256) {... */\n      swap5\n      pop\n      swap5\n      pop\n      swap5\n      swap2\n      pop\n      pop\n      jump\t// out\n        /* \"contracts/Pool/Pool.sol\":2297:2536  function mul(uint256 a, uint256 b) internal pure returns (uint256) {... */\n    tag_418:\n        /* \"contracts/Pool/Pool.sol\":2355:2362  uint256 */\n      0x00\n        /* \"contracts/Pool/Pool.sol\":2383:2384  0 */\n      dup1\n        /* \"contracts/Pool/Pool.sol\":2378:2379  a */\n      dup4\n        /* \"contracts/Pool/Pool.sol\":2378:2384  a == 0 */\n      eq\n        /* \"contracts/Pool/Pool.sol\":2374:2419  if (a == 0) {... */\n      iszero\n      tag_437\n      jumpi\n        /* \"contracts/Pool/Pool.sol\":2407:2408  0 */\n      0x00\n        /* \"contracts/Pool/Pool.sol\":2400:2408  return 0 */\n      swap1\n      pop\n      jump(tag_436)\n        /* \"contracts/Pool/Pool.sol\":2374:2419  if (a == 0) {... */\n    tag_437:\n        /* \"contracts/Pool/Pool.sol\":2428:2437  uint256 c */\n      0x00\n        /* \"contracts/Pool/Pool.sol\":2444:2445  b */\n      dup3\n        /* \"contracts/Pool/Pool.sol\":2440:2441  a */\n      dup5\n        /* \"contracts/Pool/Pool.sol\":2440:2445  a * b */\n      tag_438\n      swap2\n      swap1\n      tag_439\n      jump\t// in\n    tag_438:\n        /* \"contracts/Pool/Pool.sol\":2428:2445  uint256 c = a * b */\n      swap1\n      pop\n        /* \"contracts/Pool/Pool.sol\":2472:2473  b */\n      dup3\n        /* \"contracts/Pool/Pool.sol\":2467:2468  a */\n      dup5\n        /* \"contracts/Pool/Pool.sol\":2463:2464  c */\n      dup3\n        /* \"contracts/Pool/Pool.sol\":2463:2468  c / a */\n      tag_440\n      swap2\n      swap1\n      tag_397\n      jump\t// in\n    tag_440:\n        /* \"contracts/Pool/Pool.sol\":2463:2473  c / a == b */\n      eq\n        /* \"contracts/Pool/Pool.sol\":2455:2511  require(c / a == b, \"SafeMath: multiplication overflow\") */\n      tag_441\n      jumpi\n      mload(0x40)\n      0x08c379a000000000000000000000000000000000000000000000000000000000\n      dup2\n      mstore\n      0x04\n      add\n      tag_442\n      swap1\n      tag_443\n      jump\t// in\n    tag_442:\n      mload(0x40)\n      dup1\n      swap2\n      sub\n      swap1\n      revert\n    tag_441:\n        /* \"contracts/Pool/Pool.sol\":2528:2529  c */\n      dup1\n        /* \"contracts/Pool/Pool.sol\":2521:2529  return c */\n      swap2\n      pop\n      pop\n        /* \"contracts/Pool/Pool.sol\":2297:2536  function mul(uint256 a, uint256 b) internal pure returns (uint256) {... */\n    tag_436:\n      swap3\n      swap2\n      pop\n      pop\n      jump\t// out\n        /* \"#utility.yul\":7:146   */\n    tag_445:\n        /* \"#utility.yul\":53:58   */\n      0x00\n        /* \"#utility.yul\":91:97   */\n      dup2\n        /* \"#utility.yul\":78:98   */\n      calldataload\n        /* \"#utility.yul\":69:98   */\n      swap1\n      pop\n        /* \"#utility.yul\":107:140   */\n      tag_447\n        /* \"#utility.yul\":134:139   */\n      dup2\n        /* \"#utility.yul\":107:140   */\n      tag_448\n      jump\t// in\n    tag_447:\n        /* \"#utility.yul\":59:146   */\n      swap3\n      swap2\n      pop\n      pop\n      jump\t// out\n        /* \"#utility.yul\":152:295   */\n    tag_449:\n        /* \"#utility.yul\":209:214   */\n      0x00\n        /* \"#utility.yul\":240:246   */\n      dup2\n        /* \"#utility.yul\":234:247   */\n      mload\n        /* \"#utility.yul\":225:247   */\n      swap1\n      pop\n        /* \"#utility.yul\":256:289   */\n      tag_451\n        /* \"#utility.yul\":283:288   */\n      dup2\n        /* \"#utility.yul\":256:289   */\n      tag_448\n      jump\t// in\n    tag_451:\n        /* \"#utility.yul\":215:295   */\n      swap3\n      swap2\n      pop\n      pop\n      jump\t// out\n        /* \"#utility.yul\":301:456   */\n    tag_452:\n        /* \"#utility.yul\":355:360   */\n      0x00\n        /* \"#utility.yul\":393:399   */\n      dup2\n        /* \"#utility.yul\":380:400   */\n      calldataload\n        /* \"#utility.yul\":371:400   */\n      swap1\n      pop\n        /* \"#utility.yul\":409:450   */\n      tag_454\n        /* \"#utility.yul\":444:449   */\n      dup2\n        /* \"#utility.yul\":409:450   */\n      tag_455\n      jump\t// in\n    tag_454:\n        /* \"#utility.yul\":361:456   */\n      swap3\n      swap2\n      pop\n      pop\n      jump\t// out\n        /* \"#utility.yul\":479:846   */\n    tag_456:\n        /* \"#utility.yul\":552:560   */\n      0x00\n        /* \"#utility.yul\":562:568   */\n      dup1\n        /* \"#utility.yul\":612:615   */\n      dup4\n        /* \"#utility.yul\":605:609   */\n      0x1f\n        /* \"#utility.yul\":597:603   */\n      dup5\n        /* \"#utility.yul\":593:610   */\n      add\n        /* \"#utility.yul\":589:616   */\n      slt\n        /* \"#utility.yul\":579:581   */\n      tag_458\n      jumpi\n        /* \"#utility.yul\":630:631   */\n      0x00\n        /* \"#utility.yul\":627:628   */\n      dup1\n        /* \"#utility.yul\":620:632   */\n      revert\n        /* \"#utility.yul\":579:581   */\n    tag_458:\n        /* \"#utility.yul\":666:672   */\n      dup3\n        /* \"#utility.yul\":653:673   */\n      calldataload\n        /* \"#utility.yul\":643:673   */\n      swap1\n      pop\n        /* \"#utility.yul\":696:714   */\n      0xffffffffffffffff\n        /* \"#utility.yul\":688:694   */\n      dup2\n        /* \"#utility.yul\":685:715   */\n      gt\n        /* \"#utility.yul\":682:684   */\n      iszero\n      tag_459\n      jumpi\n        /* \"#utility.yul\":728:729   */\n      0x00\n        /* \"#utility.yul\":725:726   */\n      dup1\n        /* \"#utility.yul\":718:730   */\n      revert\n        /* \"#utility.yul\":682:684   */\n    tag_459:\n        /* \"#utility.yul\":765:769   */\n      0x20\n        /* \"#utility.yul\":757:763   */\n      dup4\n        /* \"#utility.yul\":753:770   */\n      add\n        /* \"#utility.yul\":741:770   */\n      swap2\n      pop\n        /* \"#utility.yul\":819:822   */\n      dup4\n        /* \"#utility.yul\":811:815   */\n      0x20\n        /* \"#utility.yul\":803:809   */\n      dup3\n        /* \"#utility.yul\":799:816   */\n      mul\n        /* \"#utility.yul\":789:797   */\n      dup4\n        /* \"#utility.yul\":785:817   */\n      add\n        /* \"#utility.yul\":782:823   */\n      gt\n        /* \"#utility.yul\":779:781   */\n      iszero\n      tag_460\n      jumpi\n        /* \"#utility.yul\":836:837   */\n      0x00\n        /* \"#utility.yul\":833:834   */\n      dup1\n        /* \"#utility.yul\":826:838   */\n      revert\n        /* \"#utility.yul\":779:781   */\n    tag_460:\n        /* \"#utility.yul\":569:846   */\n      swap3\n      pop\n      swap3\n      swap1\n      pop\n      jump\t// out\n        /* \"#utility.yul\":852:985   */\n    tag_461:\n        /* \"#utility.yul\":895:900   */\n      0x00\n        /* \"#utility.yul\":933:939   */\n      dup2\n        /* \"#utility.yul\":920:940   */\n      calldataload\n        /* \"#utility.yul\":911:940   */\n      swap1\n      pop\n        /* \"#utility.yul\":949:979   */\n      tag_463\n        /* \"#utility.yul\":973:978   */\n      dup2\n        /* \"#utility.yul\":949:979   */\n      tag_464\n      jump\t// in\n    tag_463:\n        /* \"#utility.yul\":901:985   */\n      swap3\n      swap2\n      pop\n      pop\n      jump\t// out\n        /* \"#utility.yul\":991:1128   */\n    tag_465:\n        /* \"#utility.yul\":1045:1050   */\n      0x00\n        /* \"#utility.yul\":1076:1082   */\n      dup2\n        /* \"#utility.yul\":1070:1083   */\n      mload\n        /* \"#utility.yul\":1061:1083   */\n      swap1\n      pop\n        /* \"#utility.yul\":1092:1122   */\n      tag_467\n        /* \"#utility.yul\":1116:1121   */\n      dup2\n        /* \"#utility.yul\":1092:1122   */\n      tag_464\n      jump\t// in\n    tag_467:\n        /* \"#utility.yul\":1051:1128   */\n      swap3\n      swap2\n      pop\n      pop\n      jump\t// out\n        /* \"#utility.yul\":1134:1273   */\n    tag_468:\n        /* \"#utility.yul\":1180:1185   */\n      0x00\n        /* \"#utility.yul\":1218:1224   */\n      dup2\n        /* \"#utility.yul\":1205:1225   */\n      calldataload\n        /* \"#utility.yul\":1196:1225   */\n      swap1\n      pop\n        /* \"#utility.yul\":1234:1267   */\n      tag_470\n        /* \"#utility.yul\":1261:1266   */\n      dup2\n        /* \"#utility.yul\":1234:1267   */\n      tag_471\n      jump\t// in\n    tag_470:\n        /* \"#utility.yul\":1186:1273   */\n      swap3\n      swap2\n      pop\n      pop\n      jump\t// out\n        /* \"#utility.yul\":1279:1541   */\n    tag_88:\n        /* \"#utility.yul\":1338:1344   */\n      0x00\n        /* \"#utility.yul\":1387:1389   */\n      0x20\n        /* \"#utility.yul\":1375:1384   */\n      dup3\n        /* \"#utility.yul\":1366:1373   */\n      dup5\n        /* \"#utility.yul\":1362:1385   */\n      sub\n        /* \"#utility.yul\":1358:1390   */\n      slt\n        /* \"#utility.yul\":1355:1357   */\n      iszero\n      tag_473\n      jumpi\n        /* \"#utility.yul\":1403:1404   */\n      0x00\n        /* \"#utility.yul\":1400:1401   */\n      dup1\n        /* \"#utility.yul\":1393:1405   */\n      revert\n        /* \"#utility.yul\":1355:1357   */\n    tag_473:\n        /* \"#utility.yul\":1446:1447   */\n      0x00\n        /* \"#utility.yul\":1471:1524   */\n      tag_474\n        /* \"#utility.yul\":1516:1523   */\n      dup5\n        /* \"#utility.yul\":1507:1513   */\n      dup3\n        /* \"#utility.yul\":1496:1505   */\n      dup6\n        /* \"#utility.yul\":1492:1514   */\n      add\n        /* \"#utility.yul\":1471:1524   */\n      tag_445\n      jump\t// in\n    tag_474:\n        /* \"#utility.yul\":1461:1524   */\n      swap2\n      pop\n        /* \"#utility.yul\":1417:1534   */\n      pop\n        /* \"#utility.yul\":1345:1541   */\n      swap3\n      swap2\n      pop\n      pop\n      jump\t// out\n        /* \"#utility.yul\":1547:1831   */\n    tag_271:\n        /* \"#utility.yul\":1617:1623   */\n      0x00\n        /* \"#utility.yul\":1666:1668   */\n      0x20\n        /* \"#utility.yul\":1654:1663   */\n      dup3\n        /* \"#utility.yul\":1645:1652   */\n      dup5\n        /* \"#utility.yul\":1641:1664   */\n      sub\n        /* \"#utility.yul\":1637:1669   */\n      slt\n        /* \"#utility.yul\":1634:1636   */\n      iszero\n      tag_476\n      jumpi\n        /* \"#utility.yul\":1682:1683   */\n      0x00\n        /* \"#utility.yul\":1679:1680   */\n      dup1\n        /* \"#utility.yul\":1672:1684   */\n      revert\n        /* \"#utility.yul\":1634:1636   */\n    tag_476:\n        /* \"#utility.yul\":1725:1726   */\n      0x00\n        /* \"#utility.yul\":1750:1814   */\n      tag_477\n        /* \"#utility.yul\":1806:1813   */\n      dup5\n        /* \"#utility.yul\":1797:1803   */\n      dup3\n        /* \"#utility.yul\":1786:1795   */\n      dup6\n        /* \"#utility.yul\":1782:1804   */\n      add\n        /* \"#utility.yul\":1750:1814   */\n      tag_449\n      jump\t// in\n    tag_477:\n        /* \"#utility.yul\":1740:1814   */\n      swap2\n      pop\n        /* \"#utility.yul\":1696:1824   */\n      pop\n        /* \"#utility.yul\":1624:1831   */\n      swap3\n      swap2\n      pop\n      pop\n      jump\t// out\n        /* \"#utility.yul\":1837:2115   */\n    tag_97:\n        /* \"#utility.yul\":1904:1910   */\n      0x00\n        /* \"#utility.yul\":1953:1955   */\n      0x20\n        /* \"#utility.yul\":1941:1950   */\n      dup3\n        /* \"#utility.yul\":1932:1939   */\n      dup5\n        /* \"#utility.yul\":1928:1951   */\n      sub\n        /* \"#utility.yul\":1924:1956   */\n      slt\n        /* \"#utility.yul\":1921:1923   */\n      iszero\n      tag_479\n      jumpi\n        /* \"#utility.yul\":1969:1970   */\n      0x00\n        /* \"#utility.yul\":1966:1967   */\n      dup1\n        /* \"#utility.yul\":1959:1971   */\n      revert\n        /* \"#utility.yul\":1921:1923   */\n    tag_479:\n        /* \"#utility.yul\":2012:2013   */\n      0x00\n        /* \"#utility.yul\":2037:2098   */\n      tag_480\n        /* \"#utility.yul\":2090:2097   */\n      dup5\n        /* \"#utility.yul\":2081:2087   */\n      dup3\n        /* \"#utility.yul\":2070:2079   */\n      dup6\n        /* \"#utility.yul\":2066:2088   */\n      add\n        /* \"#utility.yul\":2037:2098   */\n      tag_452\n      jump\t// in\n    tag_480:\n        /* \"#utility.yul\":2027:2098   */\n      swap2\n      pop\n        /* \"#utility.yul\":1983:2108   */\n      pop\n        /* \"#utility.yul\":1911:2115   */\n      swap3\n      swap2\n      pop\n      pop\n      jump\t// out\n        /* \"#utility.yul\":2121:2528   */\n    tag_140:\n        /* \"#utility.yul\":2189:2195   */\n      0x00\n        /* \"#utility.yul\":2197:2203   */\n      dup1\n        /* \"#utility.yul\":2246:2248   */\n      0x40\n        /* \"#utility.yul\":2234:2243   */\n      dup4\n        /* \"#utility.yul\":2225:2232   */\n      dup6\n        /* \"#utility.yul\":2221:2244   */\n      sub\n        /* \"#utility.yul\":2217:2249   */\n      slt\n        /* \"#utility.yul\":2214:2216   */\n      iszero\n      tag_482\n      jumpi\n        /* \"#utility.yul\":2262:2263   */\n      0x00\n        /* \"#utility.yul\":2259:2260   */\n      dup1\n        /* \"#utility.yul\":2252:2264   */\n      revert\n        /* \"#utility.yul\":2214:2216   */\n    tag_482:\n        /* \"#utility.yul\":2305:2306   */\n      0x00\n        /* \"#utility.yul\":2330:2383   */\n      tag_483\n        /* \"#utility.yul\":2375:2382   */\n      dup6\n        /* \"#utility.yul\":2366:2372   */\n      dup3\n        /* \"#utility.yul\":2355:2364   */\n      dup7\n        /* \"#utility.yul\":2351:2373   */\n      add\n        /* \"#utility.yul\":2330:2383   */\n      tag_445\n      jump\t// in\n    tag_483:\n        /* \"#utility.yul\":2320:2383   */\n      swap3\n      pop\n        /* \"#utility.yul\":2276:2393   */\n      pop\n        /* \"#utility.yul\":2432:2434   */\n      0x20\n        /* \"#utility.yul\":2458:2511   */\n      tag_484\n        /* \"#utility.yul\":2503:2510   */\n      dup6\n        /* \"#utility.yul\":2494:2500   */\n      dup3\n        /* \"#utility.yul\":2483:2492   */\n      dup7\n        /* \"#utility.yul\":2479:2501   */\n      add\n        /* \"#utility.yul\":2458:2511   */\n      tag_445\n      jump\t// in\n    tag_484:\n        /* \"#utility.yul\":2448:2511   */\n      swap2\n      pop\n        /* \"#utility.yul\":2403:2521   */\n      pop\n        /* \"#utility.yul\":2204:2528   */\n      swap3\n      pop\n      swap3\n      swap1\n      pop\n      jump\t// out\n        /* \"#utility.yul\":2534:3086   */\n    tag_59:\n        /* \"#utility.yul\":2611:2617   */\n      0x00\n        /* \"#utility.yul\":2619:2625   */\n      dup1\n        /* \"#utility.yul\":2627:2633   */\n      0x00\n        /* \"#utility.yul\":2676:2678   */\n      0x60\n        /* \"#utility.yul\":2664:2673   */\n      dup5\n        /* \"#utility.yul\":2655:2662   */\n      dup7\n        /* \"#utility.yul\":2651:2674   */\n      sub\n        /* \"#utility.yul\":2647:2679   */\n      slt\n        /* \"#utility.yul\":2644:2646   */\n      iszero\n      tag_486\n      jumpi\n        /* \"#utility.yul\":2692:2693   */\n      0x00\n        /* \"#utility.yul\":2689:2690   */\n      dup1\n        /* \"#utility.yul\":2682:2694   */\n      revert\n        /* \"#utility.yul\":2644:2646   */\n    tag_486:\n        /* \"#utility.yul\":2735:2736   */\n      0x00\n        /* \"#utility.yul\":2760:2813   */\n      tag_487\n        /* \"#utility.yul\":2805:2812   */\n      dup7\n        /* \"#utility.yul\":2796:2802   */\n      dup3\n        /* \"#utility.yul\":2785:2794   */\n      dup8\n        /* \"#utility.yul\":2781:2803   */\n      add\n        /* \"#utility.yul\":2760:2813   */\n      tag_445\n      jump\t// in\n    tag_487:\n        /* \"#utility.yul\":2750:2813   */\n      swap4\n      pop\n        /* \"#utility.yul\":2706:2823   */\n      pop\n        /* \"#utility.yul\":2862:2864   */\n      0x20\n        /* \"#utility.yul\":2888:2941   */\n      tag_488\n        /* \"#utility.yul\":2933:2940   */\n      dup7\n        /* \"#utility.yul\":2924:2930   */\n      dup3\n        /* \"#utility.yul\":2913:2922   */\n      dup8\n        /* \"#utility.yul\":2909:2931   */\n      add\n        /* \"#utility.yul\":2888:2941   */\n      tag_445\n      jump\t// in\n    tag_488:\n        /* \"#utility.yul\":2878:2941   */\n      swap3\n      pop\n        /* \"#utility.yul\":2833:2951   */\n      pop\n        /* \"#utility.yul\":2990:2992   */\n      0x40\n        /* \"#utility.yul\":3016:3069   */\n      tag_489\n        /* \"#utility.yul\":3061:3068   */\n      dup7\n        /* \"#utility.yul\":3052:3058   */\n      dup3\n        /* \"#utility.yul\":3041:3050   */\n      dup8\n        /* \"#utility.yul\":3037:3059   */\n      add\n        /* \"#utility.yul\":3016:3069   */\n      tag_468\n      jump\t// in\n    tag_489:\n        /* \"#utility.yul\":3006:3069   */\n      swap2\n      pop\n        /* \"#utility.yul\":2961:3079   */\n      pop\n        /* \"#utility.yul\":2634:3086   */\n      swap3\n      pop\n      swap3\n      pop\n      swap3\n      jump\t// out\n        /* \"#utility.yul\":3092:3499   */\n    tag_42:\n        /* \"#utility.yul\":3160:3166   */\n      0x00\n        /* \"#utility.yul\":3168:3174   */\n      dup1\n        /* \"#utility.yul\":3217:3219   */\n      0x40\n        /* \"#utility.yul\":3205:3214   */\n      dup4\n        /* \"#utility.yul\":3196:3203   */\n      dup6\n        /* \"#utility.yul\":3192:3215   */\n      sub\n        /* \"#utility.yul\":3188:3220   */\n      slt\n        /* \"#utility.yul\":3185:3187   */\n      iszero\n      tag_491\n      jumpi\n        /* \"#utility.yul\":3233:3234   */\n      0x00\n        /* \"#utility.yul\":3230:3231   */\n      dup1\n        /* \"#utility.yul\":3223:3235   */\n      revert\n        /* \"#utility.yul\":3185:3187   */\n    tag_491:\n        /* \"#utility.yul\":3276:3277   */\n      0x00\n        /* \"#utility.yul\":3301:3354   */\n      tag_492\n        /* \"#utility.yul\":3346:3353   */\n      dup6\n        /* \"#utility.yul\":3337:3343   */\n      dup3\n        /* \"#utility.yul\":3326:3335   */\n      dup7\n        /* \"#utility.yul\":3322:3344   */\n      add\n        /* \"#utility.yul\":3301:3354   */\n      tag_445\n      jump\t// in\n    tag_492:\n        /* \"#utility.yul\":3291:3354   */\n      swap3\n      pop\n        /* \"#utility.yul\":3247:3364   */\n      pop\n        /* \"#utility.yul\":3403:3405   */\n      0x20\n        /* \"#utility.yul\":3429:3482   */\n      tag_493\n        /* \"#utility.yul\":3474:3481   */\n      dup6\n        /* \"#utility.yul\":3465:3471   */\n      dup3\n        /* \"#utility.yul\":3454:3463   */\n      dup7\n        /* \"#utility.yul\":3450:3472   */\n      add\n        /* \"#utility.yul\":3429:3482   */\n      tag_468\n      jump\t// in\n    tag_493:\n        /* \"#utility.yul\":3419:3482   */\n      swap2\n      pop\n        /* \"#utility.yul\":3374:3492   */\n      pop\n        /* \"#utility.yul\":3175:3499   */\n      swap3\n      pop\n      swap3\n      swap1\n      pop\n      jump\t// out\n        /* \"#utility.yul\":3505:4069   */\n    tag_127:\n        /* \"#utility.yul\":3597:3603   */\n      0x00\n        /* \"#utility.yul\":3605:3611   */\n      dup1\n        /* \"#utility.yul\":3613:3619   */\n      0x00\n        /* \"#utility.yul\":3662:3664   */\n      0x40\n        /* \"#utility.yul\":3650:3659   */\n      dup5\n        /* \"#utility.yul\":3641:3648   */\n      dup7\n        /* \"#utility.yul\":3637:3660   */\n      sub\n        /* \"#utility.yul\":3633:3665   */\n      slt\n        /* \"#utility.yul\":3630:3632   */\n      iszero\n      tag_495\n      jumpi\n        /* \"#utility.yul\":3678:3679   */\n      0x00\n        /* \"#utility.yul\":3675:3676   */\n      dup1\n        /* \"#utility.yul\":3668:3680   */\n      revert\n        /* \"#utility.yul\":3630:3632   */\n    tag_495:\n        /* \"#utility.yul\":3749:3750   */\n      0x00\n        /* \"#utility.yul\":3738:3747   */\n      dup5\n        /* \"#utility.yul\":3734:3751   */\n      add\n        /* \"#utility.yul\":3721:3752   */\n      calldataload\n        /* \"#utility.yul\":3779:3797   */\n      0xffffffffffffffff\n        /* \"#utility.yul\":3771:3777   */\n      dup2\n        /* \"#utility.yul\":3768:3798   */\n      gt\n        /* \"#utility.yul\":3765:3767   */\n      iszero\n      tag_496\n      jumpi\n        /* \"#utility.yul\":3811:3812   */\n      0x00\n        /* \"#utility.yul\":3808:3809   */\n      dup1\n        /* \"#utility.yul\":3801:3813   */\n      revert\n        /* \"#utility.yul\":3765:3767   */\n    tag_496:\n        /* \"#utility.yul\":3847:3927   */\n      tag_497\n        /* \"#utility.yul\":3919:3926   */\n      dup7\n        /* \"#utility.yul\":3910:3916   */\n      dup3\n        /* \"#utility.yul\":3899:3908   */\n      dup8\n        /* \"#utility.yul\":3895:3917   */\n      add\n        /* \"#utility.yul\":3847:3927   */\n      tag_456\n      jump\t// in\n    tag_497:\n        /* \"#utility.yul\":3829:3927   */\n      swap4\n      pop\n      swap4\n      pop\n        /* \"#utility.yul\":3692:3937   */\n      pop\n        /* \"#utility.yul\":3976:3978   */\n      0x20\n        /* \"#utility.yul\":4002:4052   */\n      tag_498\n        /* \"#utility.yul\":4044:4051   */\n      dup7\n        /* \"#utility.yul\":4035:4041   */\n      dup3\n        /* \"#utility.yul\":4024:4033   */\n      dup8\n        /* \"#utility.yul\":4020:4042   */\n      add\n        /* \"#utility.yul\":4002:4052   */\n      tag_461\n      jump\t// in\n    tag_498:\n        /* \"#utility.yul\":3992:4052   */\n      swap2\n      pop\n        /* \"#utility.yul\":3947:4062   */\n      pop\n        /* \"#utility.yul\":3620:4069   */\n      swap3\n      pop\n      swap3\n      pop\n      swap3\n      jump\t// out\n        /* \"#utility.yul\":4075:4331   */\n    tag_80:\n        /* \"#utility.yul\":4131:4137   */\n      0x00\n        /* \"#utility.yul\":4180:4182   */\n      0x20\n        /* \"#utility.yul\":4168:4177   */\n      dup3\n        /* \"#utility.yul\":4159:4166   */\n      dup5\n        /* \"#utility.yul\":4155:4178   */\n      sub\n        /* \"#utility.yul\":4151:4183   */\n      slt\n        /* \"#utility.yul\":4148:4150   */\n      iszero\n      tag_500\n      jumpi\n        /* \"#utility.yul\":4196:4197   */\n      0x00\n        /* \"#utility.yul\":4193:4194   */\n      dup1\n        /* \"#utility.yul\":4186:4198   */\n      revert\n        /* \"#utility.yul\":4148:4150   */\n    tag_500:\n        /* \"#utility.yul\":4239:4240   */\n      0x00\n        /* \"#utility.yul\":4264:4314   */\n      tag_501\n        /* \"#utility.yul\":4306:4313   */\n      dup5\n        /* \"#utility.yul\":4297:4303   */\n      dup3\n        /* \"#utility.yul\":4286:4295   */\n      dup6\n        /* \"#utility.yul\":4282:4304   */\n      add\n        /* \"#utility.yul\":4264:4314   */\n      tag_461\n      jump\t// in\n    tag_501:\n        /* \"#utility.yul\":4254:4314   */\n      swap2\n      pop\n        /* \"#utility.yul\":4210:4324   */\n      pop\n        /* \"#utility.yul\":4138:4331   */\n      swap3\n      swap2\n      pop\n      pop\n      jump\t// out\n        /* \"#utility.yul\":4337:4615   */\n    tag_288:\n        /* \"#utility.yul\":4404:4410   */\n      0x00\n        /* \"#utility.yul\":4453:4455   */\n      0x20\n        /* \"#utility.yul\":4441:4450   */\n      dup3\n        /* \"#utility.yul\":4432:4439   */\n      dup5\n        /* \"#utility.yul\":4428:4451   */\n      sub\n        /* \"#utility.yul\":4424:4456   */\n      slt\n        /* \"#utility.yul\":4421:4423   */\n      iszero\n      tag_503\n      jumpi\n        /* \"#utility.yul\":4469:4470   */\n      0x00\n        /* \"#utility.yul\":4466:4467   */\n      dup1\n        /* \"#utility.yul\":4459:4471   */\n      revert\n        /* \"#utility.yul\":4421:4423   */\n    tag_503:\n        /* \"#utility.yul\":4512:4513   */\n      0x00\n        /* \"#utility.yul\":4537:4598   */\n      tag_504\n        /* \"#utility.yul\":4590:4597   */\n      dup5\n        /* \"#utility.yul\":4581:4587   */\n      dup3\n        /* \"#utility.yul\":4570:4579   */\n      dup6\n        /* \"#utility.yul\":4566:4588   */\n      add\n        /* \"#utility.yul\":4537:4598   */\n      tag_465\n      jump\t// in\n    tag_504:\n        /* \"#utility.yul\":4527:4598   */\n      swap2\n      pop\n        /* \"#utility.yul\":4483:4608   */\n      pop\n        /* \"#utility.yul\":4411:4615   */\n      swap3\n      swap2\n      pop\n      pop\n      jump\t// out\n        /* \"#utility.yul\":4621:5319   */\n    tag_110:\n        /* \"#utility.yul\":4707:4713   */\n      0x00\n        /* \"#utility.yul\":4715:4721   */\n      dup1\n        /* \"#utility.yul\":4723:4729   */\n      0x00\n        /* \"#utility.yul\":4731:4737   */\n      dup1\n        /* \"#utility.yul\":4780:4783   */\n      0x80\n        /* \"#utility.yul\":4768:4777   */\n      dup6\n        /* \"#utility.yul\":4759:4766   */\n      dup8\n        /* \"#utility.yul\":4755:4778   */\n      sub\n        /* \"#utility.yul\":4751:4784   */\n      slt\n        /* \"#utility.yul\":4748:4750   */\n      iszero\n      tag_506\n      jumpi\n        /* \"#utility.yul\":4797:4798   */\n      0x00\n        /* \"#utility.yul\":4794:4795   */\n      dup1\n        /* \"#utility.yul\":4787:4799   */\n      revert\n        /* \"#utility.yul\":4748:4750   */\n    tag_506:\n        /* \"#utility.yul\":4840:4841   */\n      0x00\n        /* \"#utility.yul\":4865:4918   */\n      tag_507\n        /* \"#utility.yul\":4910:4917   */\n      dup8\n        /* \"#utility.yul\":4901:4907   */\n      dup3\n        /* \"#utility.yul\":4890:4899   */\n      dup9\n        /* \"#utility.yul\":4886:4908   */\n      add\n        /* \"#utility.yul\":4865:4918   */\n      tag_468\n      jump\t// in\n    tag_507:\n        /* \"#utility.yul\":4855:4918   */\n      swap5\n      pop\n        /* \"#utility.yul\":4811:4928   */\n      pop\n        /* \"#utility.yul\":4967:4969   */\n      0x20\n        /* \"#utility.yul\":4993:5046   */\n      tag_508\n        /* \"#utility.yul\":5038:5045   */\n      dup8\n        /* \"#utility.yul\":5029:5035   */\n      dup3\n        /* \"#utility.yul\":5018:5027   */\n      dup9\n        /* \"#utility.yul\":5014:5036   */\n      add\n        /* \"#utility.yul\":4993:5046   */\n      tag_468\n      jump\t// in\n    tag_508:\n        /* \"#utility.yul\":4983:5046   */\n      swap4\n      pop\n        /* \"#utility.yul\":4938:5056   */\n      pop\n        /* \"#utility.yul\":5095:5097   */\n      0x40\n        /* \"#utility.yul\":5121:5174   */\n      tag_509\n        /* \"#utility.yul\":5166:5173   */\n      dup8\n        /* \"#utility.yul\":5157:5163   */\n      dup3\n        /* \"#utility.yul\":5146:5155   */\n      dup9\n        /* \"#utility.yul\":5142:5164   */\n      add\n        /* \"#utility.yul\":5121:5174   */\n      tag_468\n      jump\t// in\n    tag_509:\n        /* \"#utility.yul\":5111:5174   */\n      swap3\n      pop\n        /* \"#utility.yul\":5066:5184   */\n      pop\n        /* \"#utility.yul\":5223:5225   */\n      0x60\n        /* \"#utility.yul\":5249:5302   */\n      tag_510\n        /* \"#utility.yul\":5294:5301   */\n      dup8\n        /* \"#utility.yul\":5285:5291   */\n      dup3\n        /* \"#utility.yul\":5274:5283   */\n      dup9\n        /* \"#utility.yul\":5270:5292   */\n      add\n        /* \"#utility.yul\":5249:5302   */\n      tag_468\n      jump\t// in\n    tag_510:\n        /* \"#utility.yul\":5239:5302   */\n      swap2\n      pop\n        /* \"#utility.yul\":5194:5312   */\n      pop\n        /* \"#utility.yul\":4738:5319   */\n      swap3\n      swap6\n      swap2\n      swap5\n      pop\n      swap3\n      pop\n      jump\t// out\n        /* \"#utility.yul\":5325:5504   */\n    tag_511:\n        /* \"#utility.yul\":5394:5404   */\n      0x00\n        /* \"#utility.yul\":5415:5461   */\n      tag_513\n        /* \"#utility.yul\":5457:5460   */\n      dup4\n        /* \"#utility.yul\":5449:5455   */\n      dup4\n        /* \"#utility.yul\":5415:5461   */\n      tag_514\n      jump\t// in\n    tag_513:\n        /* \"#utility.yul\":5493:5497   */\n      0x20\n        /* \"#utility.yul\":5488:5491   */\n      dup4\n        /* \"#utility.yul\":5484:5498   */\n      add\n        /* \"#utility.yul\":5470:5498   */\n      swap1\n      pop\n        /* \"#utility.yul\":5405:5504   */\n      swap3\n      swap2\n      pop\n      pop\n      jump\t// out\n        /* \"#utility.yul\":5510:5618   */\n    tag_514:\n        /* \"#utility.yul\":5587:5611   */\n      tag_516\n        /* \"#utility.yul\":5605:5610   */\n      dup2\n        /* \"#utility.yul\":5587:5611   */\n      tag_517\n      jump\t// in\n    tag_516:\n        /* \"#utility.yul\":5582:5585   */\n      dup3\n        /* \"#utility.yul\":5575:5612   */\n      mstore\n        /* \"#utility.yul\":5565:5618   */\n      pop\n      pop\n      jump\t// out\n        /* \"#utility.yul\":5624:5742   */\n    tag_518:\n        /* \"#utility.yul\":5711:5735   */\n      tag_520\n        /* \"#utility.yul\":5729:5734   */\n      dup2\n        /* \"#utility.yul\":5711:5735   */\n      tag_517\n      jump\t// in\n    tag_520:\n        /* \"#utility.yul\":5706:5709   */\n      dup3\n        /* \"#utility.yul\":5699:5736   */\n      mstore\n        /* \"#utility.yul\":5689:5742   */\n      pop\n      pop\n      jump\t// out\n        /* \"#utility.yul\":5778:6510   */\n    tag_521:\n        /* \"#utility.yul\":5897:5900   */\n      0x00\n        /* \"#utility.yul\":5926:5980   */\n      tag_523\n        /* \"#utility.yul\":5974:5979   */\n      dup3\n        /* \"#utility.yul\":5926:5980   */\n      tag_524\n      jump\t// in\n    tag_523:\n        /* \"#utility.yul\":5996:6082   */\n      tag_525\n        /* \"#utility.yul\":6075:6081   */\n      dup2\n        /* \"#utility.yul\":6070:6073   */\n      dup6\n        /* \"#utility.yul\":5996:6082   */\n      tag_526\n      jump\t// in\n    tag_525:\n        /* \"#utility.yul\":5989:6082   */\n      swap4\n      pop\n        /* \"#utility.yul\":6106:6162   */\n      tag_527\n        /* \"#utility.yul\":6156:6161   */\n      dup4\n        /* \"#utility.yul\":6106:6162   */\n      tag_528\n      jump\t// in\n    tag_527:\n        /* \"#utility.yul\":6185:6192   */\n      dup1\n        /* \"#utility.yul\":6216:6217   */\n      0x00\n        /* \"#utility.yul\":6201:6485   */\n    tag_529:\n        /* \"#utility.yul\":6226:6232   */\n      dup4\n        /* \"#utility.yul\":6223:6224   */\n      dup2\n        /* \"#utility.yul\":6220:6233   */\n      lt\n        /* \"#utility.yul\":6201:6485   */\n      iszero\n      tag_531\n      jumpi\n        /* \"#utility.yul\":6302:6308   */\n      dup2\n        /* \"#utility.yul\":6296:6309   */\n      mload\n        /* \"#utility.yul\":6329:6392   */\n      tag_532\n        /* \"#utility.yul\":6388:6391   */\n      dup9\n        /* \"#utility.yul\":6373:6386   */\n      dup3\n        /* \"#utility.yul\":6329:6392   */\n      tag_511\n      jump\t// in\n    tag_532:\n        /* \"#utility.yul\":6322:6392   */\n      swap8\n      pop\n        /* \"#utility.yul\":6415:6475   */\n      tag_533\n        /* \"#utility.yul\":6468:6474   */\n      dup4\n        /* \"#utility.yul\":6415:6475   */\n      tag_534\n      jump\t// in\n    tag_533:\n        /* \"#utility.yul\":6405:6475   */\n      swap3\n      pop\n        /* \"#utility.yul\":6261:6485   */\n      pop\n        /* \"#utility.yul\":6248:6249   */\n      0x01\n        /* \"#utility.yul\":6245:6246   */\n      dup2\n        /* \"#utility.yul\":6241:6250   */\n      add\n        /* \"#utility.yul\":6236:6250   */\n      swap1\n      pop\n        /* \"#utility.yul\":6201:6485   */\n      jump(tag_529)\n    tag_531:\n        /* \"#utility.yul\":6205:6219   */\n      pop\n        /* \"#utility.yul\":6501:6504   */\n      dup6\n        /* \"#utility.yul\":6494:6504   */\n      swap4\n      pop\n        /* \"#utility.yul\":5902:6510   */\n      pop\n      pop\n      pop\n      swap3\n      swap2\n      pop\n      pop\n      jump\t// out\n        /* \"#utility.yul\":6516:6625   */\n    tag_535:\n        /* \"#utility.yul\":6597:6618   */\n      tag_537\n        /* \"#utility.yul\":6612:6617   */\n      dup2\n        /* \"#utility.yul\":6597:6618   */\n      tag_538\n      jump\t// in\n    tag_537:\n        /* \"#utility.yul\":6592:6595   */\n      dup3\n        /* \"#utility.yul\":6585:6619   */\n      mstore\n        /* \"#utility.yul\":6575:6625   */\n      pop\n      pop\n      jump\t// out\n        /* \"#utility.yul\":6631:6810   */\n    tag_539:\n        /* \"#utility.yul\":6742:6803   */\n      tag_541\n        /* \"#utility.yul\":6797:6802   */\n      dup2\n        /* \"#utility.yul\":6742:6803   */\n      tag_542\n      jump\t// in\n    tag_541:\n        /* \"#utility.yul\":6737:6740   */\n      dup3\n        /* \"#utility.yul\":6730:6804   */\n      mstore\n        /* \"#utility.yul\":6720:6810   */\n      pop\n      pop\n      jump\t// out\n        /* \"#utility.yul\":6816:6999   */\n    tag_543:\n        /* \"#utility.yul\":6929:6992   */\n      tag_545\n        /* \"#utility.yul\":6986:6991   */\n      dup2\n        /* \"#utility.yul\":6929:6992   */\n      tag_546\n      jump\t// in\n    tag_545:\n        /* \"#utility.yul\":6924:6927   */\n      dup3\n        /* \"#utility.yul\":6917:6993   */\n      mstore\n        /* \"#utility.yul\":6907:6999   */\n      pop\n      pop\n      jump\t// out\n        /* \"#utility.yul\":7005:7152   */\n    tag_547:\n        /* \"#utility.yul\":7100:7145   */\n      tag_549\n        /* \"#utility.yul\":7139:7144   */\n      dup2\n        /* \"#utility.yul\":7100:7145   */\n      tag_550\n      jump\t// in\n    tag_549:\n        /* \"#utility.yul\":7095:7098   */\n      dup3\n        /* \"#utility.yul\":7088:7146   */\n      mstore\n        /* \"#utility.yul\":7078:7152   */\n      pop\n      pop\n      jump\t// out\n        /* \"#utility.yul\":7158:7522   */\n    tag_551:\n        /* \"#utility.yul\":7246:7249   */\n      0x00\n        /* \"#utility.yul\":7274:7313   */\n      tag_553\n        /* \"#utility.yul\":7307:7312   */\n      dup3\n        /* \"#utility.yul\":7274:7313   */\n      tag_554\n      jump\t// in\n    tag_553:\n        /* \"#utility.yul\":7329:7400   */\n      tag_555\n        /* \"#utility.yul\":7393:7399   */\n      dup2\n        /* \"#utility.yul\":7388:7391   */\n      dup6\n        /* \"#utility.yul\":7329:7400   */\n      tag_556\n      jump\t// in\n    tag_555:\n        /* \"#utility.yul\":7322:7400   */\n      swap4\n      pop\n        /* \"#utility.yul\":7409:7461   */\n      tag_557\n        /* \"#utility.yul\":7454:7460   */\n      dup2\n        /* \"#utility.yul\":7449:7452   */\n      dup6\n        /* \"#utility.yul\":7442:7446   */\n      0x20\n        /* \"#utility.yul\":7435:7440   */\n      dup7\n        /* \"#utility.yul\":7431:7447   */\n      add\n        /* \"#utility.yul\":7409:7461   */\n      tag_558\n      jump\t// in\n    tag_557:\n        /* \"#utility.yul\":7486:7515   */\n      tag_559\n        /* \"#utility.yul\":7508:7514   */\n      dup2\n        /* \"#utility.yul\":7486:7515   */\n      tag_560\n      jump\t// in\n    tag_559:\n        /* \"#utility.yul\":7481:7484   */\n      dup5\n        /* \"#utility.yul\":7477:7516   */\n      add\n        /* \"#utility.yul\":7470:7516   */\n      swap2\n      pop\n        /* \"#utility.yul\":7250:7522   */\n      pop\n      swap3\n      swap2\n      pop\n      pop\n      jump\t// out\n        /* \"#utility.yul\":7528:7894   */\n    tag_561:\n        /* \"#utility.yul\":7670:7673   */\n      0x00\n        /* \"#utility.yul\":7691:7758   */\n      tag_563\n        /* \"#utility.yul\":7755:7757   */\n      0x23\n        /* \"#utility.yul\":7750:7753   */\n      dup4\n        /* \"#utility.yul\":7691:7758   */\n      tag_556\n      jump\t// in\n    tag_563:\n        /* \"#utility.yul\":7684:7758   */\n      swap2\n      pop\n        /* \"#utility.yul\":7767:7860   */\n      tag_564\n        /* \"#utility.yul\":7856:7859   */\n      dup3\n        /* \"#utility.yul\":7767:7860   */\n      tag_565\n      jump\t// in\n    tag_564:\n        /* \"#utility.yul\":7885:7887   */\n      0x40\n        /* \"#utility.yul\":7880:7883   */\n      dup3\n        /* \"#utility.yul\":7876:7888   */\n      add\n        /* \"#utility.yul\":7869:7888   */\n      swap1\n      pop\n        /* \"#utility.yul\":7674:7894   */\n      swap2\n      swap1\n      pop\n      jump\t// out\n        /* \"#utility.yul\":7900:8266   */\n    tag_566:\n        /* \"#utility.yul\":8042:8045   */\n      0x00\n        /* \"#utility.yul\":8063:8130   */\n      tag_568\n        /* \"#utility.yul\":8127:8129   */\n      0x17\n        /* \"#utility.yul\":8122:8125   */\n      dup4\n        /* \"#utility.yul\":8063:8130   */\n      tag_556\n      jump\t// in\n    tag_568:\n        /* \"#utility.yul\":8056:8130   */\n      swap2\n      pop\n        /* \"#utility.yul\":8139:8232   */\n      tag_569\n        /* \"#utility.yul\":8228:8231   */\n      dup3\n        /* \"#utility.yul\":8139:8232   */\n      tag_570\n      jump\t// in\n    tag_569:\n        /* \"#utility.yul\":8257:8259   */\n      0x20\n        /* \"#utility.yul\":8252:8255   */\n      dup3\n        /* \"#utility.yul\":8248:8260   */\n      add\n        /* \"#utility.yul\":8241:8260   */\n      swap1\n      pop\n        /* \"#utility.yul\":8046:8266   */\n      swap2\n      swap1\n      pop\n      jump\t// out\n        /* \"#utility.yul\":8272:8638   */\n    tag_571:\n        /* \"#utility.yul\":8414:8417   */\n      0x00\n        /* \"#utility.yul\":8435:8502   */\n      tag_573\n        /* \"#utility.yul\":8499:8501   */\n      0x2a\n        /* \"#utility.yul\":8494:8497   */\n      dup4\n        /* \"#utility.yul\":8435:8502   */\n      tag_556\n      jump\t// in\n    tag_573:\n        /* \"#utility.yul\":8428:8502   */\n      swap2\n      pop\n        /* \"#utility.yul\":8511:8604   */\n      tag_574\n        /* \"#utility.yul\":8600:8603   */\n      dup3\n        /* \"#utility.yul\":8511:8604   */\n      tag_575\n      jump\t// in\n    tag_574:\n        /* \"#utility.yul\":8629:8631   */\n      0x40\n        /* \"#utility.yul\":8624:8627   */\n      dup3\n        /* \"#utility.yul\":8620:8632   */\n      add\n        /* \"#utility.yul\":8613:8632   */\n      swap1\n      pop\n        /* \"#utility.yul\":8418:8638   */\n      swap2\n      swap1\n      pop\n      jump\t// out\n        /* \"#utility.yul\":8644:9010   */\n    tag_576:\n        /* \"#utility.yul\":8786:8789   */\n      0x00\n        /* \"#utility.yul\":8807:8874   */\n      tag_578\n        /* \"#utility.yul\":8871:8873   */\n      0x22\n        /* \"#utility.yul\":8866:8869   */\n      dup4\n        /* \"#utility.yul\":8807:8874   */\n      tag_556\n      jump\t// in\n    tag_578:\n        /* \"#utility.yul\":8800:8874   */\n      swap2\n      pop\n        /* \"#utility.yul\":8883:8976   */\n      tag_579\n        /* \"#utility.yul\":8972:8975   */\n      dup3\n        /* \"#utility.yul\":8883:8976   */\n      tag_580\n      jump\t// in\n    tag_579:\n        /* \"#utility.yul\":9001:9003   */\n      0x40\n        /* \"#utility.yul\":8996:8999   */\n      dup3\n        /* \"#utility.yul\":8992:9004   */\n      add\n        /* \"#utility.yul\":8985:9004   */\n      swap1\n      pop\n        /* \"#utility.yul\":8790:9010   */\n      swap2\n      swap1\n      pop\n      jump\t// out\n        /* \"#utility.yul\":9016:9382   */\n    tag_581:\n        /* \"#utility.yul\":9158:9161   */\n      0x00\n        /* \"#utility.yul\":9179:9246   */\n      tag_583\n        /* \"#utility.yul\":9243:9245   */\n      0x1b\n        /* \"#utility.yul\":9238:9241   */\n      dup4\n        /* \"#utility.yul\":9179:9246   */\n      tag_556\n      jump\t// in\n    tag_583:\n        /* \"#utility.yul\":9172:9246   */\n      swap2\n      pop\n        /* \"#utility.yul\":9255:9348   */\n      tag_584\n        /* \"#utility.yul\":9344:9347   */\n      dup3\n        /* \"#utility.yul\":9255:9348   */\n      tag_585\n      jump\t// in\n    tag_584:\n        /* \"#utility.yul\":9373:9375   */\n      0x20\n        /* \"#utility.yul\":9368:9371   */\n      dup3\n        /* \"#utility.yul\":9364:9376   */\n      add\n        /* \"#utility.yul\":9357:9376   */\n      swap1\n      pop\n        /* \"#utility.yul\":9162:9382   */\n      swap2\n      swap1\n      pop\n      jump\t// out\n        /* \"#utility.yul\":9388:9754   */\n    tag_586:\n        /* \"#utility.yul\":9530:9533   */\n      0x00\n        /* \"#utility.yul\":9551:9618   */\n      tag_588\n        /* \"#utility.yul\":9615:9617   */\n      0x21\n        /* \"#utility.yul\":9610:9613   */\n      dup4\n        /* \"#utility.yul\":9551:9618   */\n      tag_556\n      jump\t// in\n    tag_588:\n        /* \"#utility.yul\":9544:9618   */\n      swap2\n      pop\n        /* \"#utility.yul\":9627:9720   */\n      tag_589\n        /* \"#utility.yul\":9716:9719   */\n      dup3\n        /* \"#utility.yul\":9627:9720   */\n      tag_590\n      jump\t// in\n    tag_589:\n        /* \"#utility.yul\":9745:9747   */\n      0x40\n        /* \"#utility.yul\":9740:9743   */\n      dup3\n        /* \"#utility.yul\":9736:9748   */\n      add\n        /* \"#utility.yul\":9729:9748   */\n      swap1\n      pop\n        /* \"#utility.yul\":9534:9754   */\n      swap2\n      swap1\n      pop\n      jump\t// out\n        /* \"#utility.yul\":9760:10126   */\n    tag_591:\n        /* \"#utility.yul\":9902:9905   */\n      0x00\n        /* \"#utility.yul\":9923:9990   */\n      tag_593\n        /* \"#utility.yul\":9987:9989   */\n      0x15\n        /* \"#utility.yul\":9982:9985   */\n      dup4\n        /* \"#utility.yul\":9923:9990   */\n      tag_556\n      jump\t// in\n    tag_593:\n        /* \"#utility.yul\":9916:9990   */\n      swap2\n      pop\n        /* \"#utility.yul\":9999:10092   */\n      tag_594\n        /* \"#utility.yul\":10088:10091   */\n      dup3\n        /* \"#utility.yul\":9999:10092   */\n      tag_595\n      jump\t// in\n    tag_594:\n        /* \"#utility.yul\":10117:10119   */\n      0x20\n        /* \"#utility.yul\":10112:10115   */\n      dup3\n        /* \"#utility.yul\":10108:10120   */\n      add\n        /* \"#utility.yul\":10101:10120   */\n      swap1\n      pop\n        /* \"#utility.yul\":9906:10126   */\n      swap2\n      swap1\n      pop\n      jump\t// out\n        /* \"#utility.yul\":10132:10498   */\n    tag_596:\n        /* \"#utility.yul\":10274:10277   */\n      0x00\n        /* \"#utility.yul\":10295:10362   */\n      tag_598\n        /* \"#utility.yul\":10359:10361   */\n      0x29\n        /* \"#utility.yul\":10354:10357   */\n      dup4\n        /* \"#utility.yul\":10295:10362   */\n      tag_556\n      jump\t// in\n    tag_598:\n        /* \"#utility.yul\":10288:10362   */\n      swap2\n      pop\n        /* \"#utility.yul\":10371:10464   */\n      tag_599\n        /* \"#utility.yul\":10460:10463   */\n      dup3\n        /* \"#utility.yul\":10371:10464   */\n      tag_600\n      jump\t// in\n    tag_599:\n        /* \"#utility.yul\":10489:10491   */\n      0x40\n        /* \"#utility.yul\":10484:10487   */\n      dup3\n        /* \"#utility.yul\":10480:10492   */\n      add\n        /* \"#utility.yul\":10473:10492   */\n      swap1\n      pop\n        /* \"#utility.yul\":10278:10498   */\n      swap2\n      swap1\n      pop\n      jump\t// out\n        /* \"#utility.yul\":10504:10870   */\n    tag_601:\n        /* \"#utility.yul\":10646:10649   */\n      0x00\n        /* \"#utility.yul\":10667:10734   */\n      tag_603\n        /* \"#utility.yul\":10731:10733   */\n      0x0c\n        /* \"#utility.yul\":10726:10729   */\n      dup4\n        /* \"#utility.yul\":10667:10734   */\n      tag_556\n      jump\t// in\n    tag_603:\n        /* \"#utility.yul\":10660:10734   */\n      swap2\n      pop\n        /* \"#utility.yul\":10743:10836   */\n      tag_604\n        /* \"#utility.yul\":10832:10835   */\n      dup3\n        /* \"#utility.yul\":10743:10836   */\n      tag_605\n      jump\t// in\n    tag_604:\n        /* \"#utility.yul\":10861:10863   */\n      0x20\n        /* \"#utility.yul\":10856:10859   */\n      dup3\n        /* \"#utility.yul\":10852:10864   */\n      add\n        /* \"#utility.yul\":10845:10864   */\n      swap1\n      pop\n        /* \"#utility.yul\":10650:10870   */\n      swap2\n      swap1\n      pop\n      jump\t// out\n        /* \"#utility.yul\":10876:11242   */\n    tag_606:\n        /* \"#utility.yul\":11018:11021   */\n      0x00\n        /* \"#utility.yul\":11039:11106   */\n      tag_608\n        /* \"#utility.yul\":11103:11105   */\n      0x25\n        /* \"#utility.yul\":11098:11101   */\n      dup4\n        /* \"#utility.yul\":11039:11106   */\n      tag_556\n      jump\t// in\n    tag_608:\n        /* \"#utility.yul\":11032:11106   */\n      swap2\n      pop\n        /* \"#utility.yul\":11115:11208   */\n      tag_609\n        /* \"#utility.yul\":11204:11207   */\n      dup3\n        /* \"#utility.yul\":11115:11208   */\n      tag_610\n      jump\t// in\n    tag_609:\n        /* \"#utility.yul\":11233:11235   */\n      0x40\n        /* \"#utility.yul\":11228:11231   */\n      dup3\n        /* \"#utility.yul\":11224:11236   */\n      add\n        /* \"#utility.yul\":11217:11236   */\n      swap1\n      pop\n        /* \"#utility.yul\":11022:11242   */\n      swap2\n      swap1\n      pop\n      jump\t// out\n        /* \"#utility.yul\":11248:11614   */\n    tag_611:\n        /* \"#utility.yul\":11390:11393   */\n      0x00\n        /* \"#utility.yul\":11411:11478   */\n      tag_613\n        /* \"#utility.yul\":11475:11477   */\n      0x1a\n        /* \"#utility.yul\":11470:11473   */\n      dup4\n        /* \"#utility.yul\":11411:11478   */\n      tag_556\n      jump\t// in\n    tag_613:\n        /* \"#utility.yul\":11404:11478   */\n      swap2\n      pop\n        /* \"#utility.yul\":11487:11580   */\n      tag_614\n        /* \"#utility.yul\":11576:11579   */\n      dup3\n        /* \"#utility.yul\":11487:11580   */\n      tag_615\n      jump\t// in\n    tag_614:\n        /* \"#utility.yul\":11605:11607   */\n      0x20\n        /* \"#utility.yul\":11600:11603   */\n      dup3\n        /* \"#utility.yul\":11596:11608   */\n      add\n        /* \"#utility.yul\":11589:11608   */\n      swap1\n      pop\n        /* \"#utility.yul\":11394:11614   */\n      swap2\n      swap1\n      pop\n      jump\t// out\n        /* \"#utility.yul\":11620:11986   */\n    tag_616:\n        /* \"#utility.yul\":11762:11765   */\n      0x00\n        /* \"#utility.yul\":11783:11850   */\n      tag_618\n        /* \"#utility.yul\":11847:11849   */\n      0x24\n        /* \"#utility.yul\":11842:11845   */\n      dup4\n        /* \"#utility.yul\":11783:11850   */\n      tag_556\n      jump\t// in\n    tag_618:\n        /* \"#utility.yul\":11776:11850   */\n      swap2\n      pop\n        /* \"#utility.yul\":11859:11952   */\n      tag_619\n        /* \"#utility.yul\":11948:11951   */\n      dup3\n        /* \"#utility.yul\":11859:11952   */\n      tag_620\n      jump\t// in\n    tag_619:\n        /* \"#utility.yul\":11977:11979   */\n      0x40\n        /* \"#utility.yul\":11972:11975   */\n      dup3\n        /* \"#utility.yul\":11968:11980   */\n      add\n        /* \"#utility.yul\":11961:11980   */\n      swap1\n      pop\n        /* \"#utility.yul\":11766:11986   */\n      swap2\n      swap1\n      pop\n      jump\t// out\n        /* \"#utility.yul\":11992:12358   */\n    tag_621:\n        /* \"#utility.yul\":12134:12137   */\n      0x00\n        /* \"#utility.yul\":12155:12222   */\n      tag_623\n        /* \"#utility.yul\":12219:12221   */\n      0x1d\n        /* \"#utility.yul\":12214:12217   */\n      dup4\n        /* \"#utility.yul\":12155:12222   */\n      tag_556\n      jump\t// in\n    tag_623:\n        /* \"#utility.yul\":12148:12222   */\n      swap2\n      pop\n        /* \"#utility.yul\":12231:12324   */\n      tag_624\n        /* \"#utility.yul\":12320:12323   */\n      dup3\n        /* \"#utility.yul\":12231:12324   */\n      tag_625\n      jump\t// in\n    tag_624:\n        /* \"#utility.yul\":12349:12351   */\n      0x20\n        /* \"#utility.yul\":12344:12347   */\n      dup3\n        /* \"#utility.yul\":12340:12352   */\n      add\n        /* \"#utility.yul\":12333:12352   */\n      swap1\n      pop\n        /* \"#utility.yul\":12138:12358   */\n      swap2\n      swap1\n      pop\n      jump\t// out\n        /* \"#utility.yul\":12364:12482   */\n    tag_626:\n        /* \"#utility.yul\":12451:12475   */\n      tag_628\n        /* \"#utility.yul\":12469:12474   */\n      dup2\n        /* \"#utility.yul\":12451:12475   */\n      tag_629\n      jump\t// in\n    tag_628:\n        /* \"#utility.yul\":12446:12449   */\n      dup3\n        /* \"#utility.yul\":12439:12476   */\n      mstore\n        /* \"#utility.yul\":12429:12482   */\n      pop\n      pop\n      jump\t// out\n        /* \"#utility.yul\":12488:12600   */\n    tag_630:\n        /* \"#utility.yul\":12571:12593   */\n      tag_632\n        /* \"#utility.yul\":12587:12592   */\n      dup2\n        /* \"#utility.yul\":12571:12593   */\n      tag_633\n      jump\t// in\n    tag_632:\n        /* \"#utility.yul\":12566:12569   */\n      dup3\n        /* \"#utility.yul\":12559:12594   */\n      mstore\n        /* \"#utility.yul\":12549:12600   */\n      pop\n      pop\n      jump\t// out\n        /* \"#utility.yul\":12606:12828   */\n    tag_71:\n        /* \"#utility.yul\":12699:12703   */\n      0x00\n        /* \"#utility.yul\":12737:12739   */\n      0x20\n        /* \"#utility.yul\":12726:12735   */\n      dup3\n        /* \"#utility.yul\":12722:12740   */\n      add\n        /* \"#utility.yul\":12714:12740   */\n      swap1\n      pop\n        /* \"#utility.yul\":12750:12821   */\n      tag_635\n        /* \"#utility.yul\":12818:12819   */\n      0x00\n        /* \"#utility.yul\":12807:12816   */\n      dup4\n        /* \"#utility.yul\":12803:12820   */\n      add\n        /* \"#utility.yul\":12794:12800   */\n      dup5\n        /* \"#utility.yul\":12750:12821   */\n      tag_518\n      jump\t// in\n    tag_635:\n        /* \"#utility.yul\":12704:12828   */\n      swap3\n      swap2\n      pop\n      pop\n      jump\t// out\n        /* \"#utility.yul\":12834:13166   */\n    tag_266:\n        /* \"#utility.yul\":12955:12959   */\n      0x00\n        /* \"#utility.yul\":12993:12995   */\n      0x40\n        /* \"#utility.yul\":12982:12991   */\n      dup3\n        /* \"#utility.yul\":12978:12996   */\n      add\n        /* \"#utility.yul\":12970:12996   */\n      swap1\n      pop\n        /* \"#utility.yul\":13006:13077   */\n      tag_637\n        /* \"#utility.yul\":13074:13075   */\n      0x00\n        /* \"#utility.yul\":13063:13072   */\n      dup4\n        /* \"#utility.yul\":13059:13076   */\n      add\n        /* \"#utility.yul\":13050:13056   */\n      dup6\n        /* \"#utility.yul\":13006:13077   */\n      tag_518\n      jump\t// in\n    tag_637:\n        /* \"#utility.yul\":13087:13159   */\n      tag_638\n        /* \"#utility.yul\":13155:13157   */\n      0x20\n        /* \"#utility.yul\":13144:13153   */\n      dup4\n        /* \"#utility.yul\":13140:13158   */\n      add\n        /* \"#utility.yul\":13131:13137   */\n      dup5\n        /* \"#utility.yul\":13087:13159   */\n      tag_518\n      jump\t// in\n    tag_638:\n        /* \"#utility.yul\":12960:13166   */\n      swap4\n      swap3\n      pop\n      pop\n      pop\n      jump\t// out\n        /* \"#utility.yul\":13172:13504   */\n    tag_283:\n        /* \"#utility.yul\":13293:13297   */\n      0x00\n        /* \"#utility.yul\":13331:13333   */\n      0x40\n        /* \"#utility.yul\":13320:13329   */\n      dup3\n        /* \"#utility.yul\":13316:13334   */\n      add\n        /* \"#utility.yul\":13308:13334   */\n      swap1\n      pop\n        /* \"#utility.yul\":13344:13415   */\n      tag_640\n        /* \"#utility.yul\":13412:13413   */\n      0x00\n        /* \"#utility.yul\":13401:13410   */\n      dup4\n        /* \"#utility.yul\":13397:13414   */\n      add\n        /* \"#utility.yul\":13388:13394   */\n      dup6\n        /* \"#utility.yul\":13344:13415   */\n      tag_518\n      jump\t// in\n    tag_640:\n        /* \"#utility.yul\":13425:13497   */\n      tag_641\n        /* \"#utility.yul\":13493:13495   */\n      0x20\n        /* \"#utility.yul\":13482:13491   */\n      dup4\n        /* \"#utility.yul\":13478:13496   */\n      add\n        /* \"#utility.yul\":13469:13475   */\n      dup5\n        /* \"#utility.yul\":13425:13497   */\n      tag_626\n      jump\t// in\n    tag_641:\n        /* \"#utility.yul\":13298:13504   */\n      swap4\n      swap3\n      pop\n      pop\n      pop\n      jump\t// out\n        /* \"#utility.yul\":13510:13720   */\n    tag_45:\n        /* \"#utility.yul\":13597:13601   */\n      0x00\n        /* \"#utility.yul\":13635:13637   */\n      0x20\n        /* \"#utility.yul\":13624:13633   */\n      dup3\n        /* \"#utility.yul\":13620:13638   */\n      add\n        /* \"#utility.yul\":13612:13638   */\n      swap1\n      pop\n        /* \"#utility.yul\":13648:13713   */\n      tag_643\n        /* \"#utility.yul\":13710:13711   */\n      0x00\n        /* \"#utility.yul\":13699:13708   */\n      dup4\n        /* \"#utility.yul\":13695:13712   */\n      add\n        /* \"#utility.yul\":13686:13692   */\n      dup5\n        /* \"#utility.yul\":13648:13713   */\n      tag_535\n      jump\t// in\n    tag_643:\n        /* \"#utility.yul\":13602:13720   */\n      swap3\n      swap2\n      pop\n      pop\n      jump\t// out\n        /* \"#utility.yul\":13726:13996   */\n    tag_76:\n        /* \"#utility.yul\":13843:13847   */\n      0x00\n        /* \"#utility.yul\":13881:13883   */\n      0x20\n        /* \"#utility.yul\":13870:13879   */\n      dup3\n        /* \"#utility.yul\":13866:13884   */\n      add\n        /* \"#utility.yul\":13858:13884   */\n      swap1\n      pop\n        /* \"#utility.yul\":13894:13989   */\n      tag_645\n        /* \"#utility.yul\":13986:13987   */\n      0x00\n        /* \"#utility.yul\":13975:13984   */\n      dup4\n        /* \"#utility.yul\":13971:13988   */\n      add\n        /* \"#utility.yul\":13962:13968   */\n      dup5\n        /* \"#utility.yul\":13894:13989   */\n      tag_539\n      jump\t// in\n    tag_645:\n        /* \"#utility.yul\":13848:13996   */\n      swap3\n      swap2\n      pop\n      pop\n      jump\t// out\n        /* \"#utility.yul\":14002:14276   */\n    tag_50:\n        /* \"#utility.yul\":14121:14125   */\n      0x00\n        /* \"#utility.yul\":14159:14161   */\n      0x20\n        /* \"#utility.yul\":14148:14157   */\n      dup3\n        /* \"#utility.yul\":14144:14162   */\n      add\n        /* \"#utility.yul\":14136:14162   */\n      swap1\n      pop\n        /* \"#utility.yul\":14172:14269   */\n      tag_647\n        /* \"#utility.yul\":14266:14267   */\n      0x00\n        /* \"#utility.yul\":14255:14264   */\n      dup4\n        /* \"#utility.yul\":14251:14268   */\n      add\n        /* \"#utility.yul\":14242:14248   */\n      dup5\n        /* \"#utility.yul\":14172:14269   */\n      tag_543\n      jump\t// in\n    tag_647:\n        /* \"#utility.yul\":14126:14276   */\n      swap3\n      swap2\n      pop\n      pop\n      jump\t// out\n        /* \"#utility.yul\":14282:14595   */\n    tag_38:\n        /* \"#utility.yul\":14395:14399   */\n      0x00\n        /* \"#utility.yul\":14433:14435   */\n      0x20\n        /* \"#utility.yul\":14422:14431   */\n      dup3\n        /* \"#utility.yul\":14418:14436   */\n      add\n        /* \"#utility.yul\":14410:14436   */\n      swap1\n      pop\n        /* \"#utility.yul\":14482:14491   */\n      dup2\n        /* \"#utility.yul\":14476:14480   */\n      dup2\n        /* \"#utility.yul\":14472:14492   */\n      sub\n        /* \"#utility.yul\":14468:14469   */\n      0x00\n        /* \"#utility.yul\":14457:14466   */\n      dup4\n        /* \"#utility.yul\":14453:14470   */\n      add\n        /* \"#utility.yul\":14446:14493   */\n      mstore\n        /* \"#utility.yul\":14510:14588   */\n      tag_649\n        /* \"#utility.yul\":14583:14587   */\n      dup2\n        /* \"#utility.yul\":14574:14580   */\n      dup5\n        /* \"#utility.yul\":14510:14588   */\n      tag_551\n      jump\t// in\n    tag_649:\n        /* \"#utility.yul\":14502:14588   */\n      swap1\n      pop\n        /* \"#utility.yul\":14400:14595   */\n      swap3\n      swap2\n      pop\n      pop\n      jump\t// out\n        /* \"#utility.yul\":14601:15020   */\n    tag_309:\n        /* \"#utility.yul\":14767:14771   */\n      0x00\n        /* \"#utility.yul\":14805:14807   */\n      0x20\n        /* \"#utility.yul\":14794:14803   */\n      dup3\n        /* \"#utility.yul\":14790:14808   */\n      add\n        /* \"#utility.yul\":14782:14808   */\n      swap1\n      pop\n        /* \"#utility.yul\":14854:14863   */\n      dup2\n        /* \"#utility.yul\":14848:14852   */\n      dup2\n        /* \"#utility.yul\":14844:14864   */\n      sub\n        /* \"#utility.yul\":14840:14841   */\n      0x00\n        /* \"#utility.yul\":14829:14838   */\n      dup4\n        /* \"#utility.yul\":14825:14842   */\n      add\n        /* \"#utility.yul\":14818:14865   */\n      mstore\n        /* \"#utility.yul\":14882:15013   */\n      tag_651\n        /* \"#utility.yul\":15008:15012   */\n      dup2\n        /* \"#utility.yul\":14882:15013   */\n      tag_561\n      jump\t// in\n    tag_651:\n        /* \"#utility.yul\":14874:15013   */\n      swap1\n      pop\n        /* \"#utility.yul\":14772:15020   */\n      swap2\n      swap1\n      pop\n      jump\t// out\n        /* \"#utility.yul\":15026:15445   */\n    tag_193:\n        /* \"#utility.yul\":15192:15196   */\n      0x00\n        /* \"#utility.yul\":15230:15232   */\n      0x20\n        /* \"#utility.yul\":15219:15228   */\n      dup3\n        /* \"#utility.yul\":15215:15233   */\n      add\n        /* \"#utility.yul\":15207:15233   */\n      swap1\n      pop\n        /* \"#utility.yul\":15279:15288   */\n      dup2\n        /* \"#utility.yul\":15273:15277   */\n      dup2\n        /* \"#utility.yul\":15269:15289   */\n      sub\n        /* \"#utility.yul\":15265:15266   */\n      0x00\n        /* \"#utility.yul\":15254:15263   */\n      dup4\n        /* \"#utility.yul\":15250:15267   */\n      add\n        /* \"#utility.yul\":15243:15290   */\n      mstore\n        /* \"#utility.yul\":15307:15438   */\n      tag_653\n        /* \"#utility.yul\":15433:15437   */\n      dup2\n        /* \"#utility.yul\":15307:15438   */\n      tag_566\n      jump\t// in\n    tag_653:\n        /* \"#utility.yul\":15299:15438   */\n      swap1\n      pop\n        /* \"#utility.yul\":15197:15445   */\n      swap2\n      swap1\n      pop\n      jump\t// out\n        /* \"#utility.yul\":15451:15870   */\n    tag_351:\n        /* \"#utility.yul\":15617:15621   */\n      0x00\n        /* \"#utility.yul\":15655:15657   */\n      0x20\n        /* \"#utility.yul\":15644:15653   */\n      dup3\n        /* \"#utility.yul\":15640:15658   */\n      add\n        /* \"#utility.yul\":15632:15658   */\n      swap1\n      pop\n        /* \"#utility.yul\":15704:15713   */\n      dup2\n        /* \"#utility.yul\":15698:15702   */\n      dup2\n        /* \"#utility.yul\":15694:15714   */\n      sub\n        /* \"#utility.yul\":15690:15691   */\n      0x00\n        /* \"#utility.yul\":15679:15688   */\n      dup4\n        /* \"#utility.yul\":15675:15692   */\n      add\n        /* \"#utility.yul\":15668:15715   */\n      mstore\n        /* \"#utility.yul\":15732:15863   */\n      tag_655\n        /* \"#utility.yul\":15858:15862   */\n      dup2\n        /* \"#utility.yul\":15732:15863   */\n      tag_571\n      jump\t// in\n    tag_655:\n        /* \"#utility.yul\":15724:15863   */\n      swap1\n      pop\n        /* \"#utility.yul\":15622:15870   */\n      swap2\n      swap1\n      pop\n      jump\t// out\n        /* \"#utility.yul\":15876:16295   */\n    tag_301:\n        /* \"#utility.yul\":16042:16046   */\n      0x00\n        /* \"#utility.yul\":16080:16082   */\n      0x20\n        /* \"#utility.yul\":16069:16078   */\n      dup3\n        /* \"#utility.yul\":16065:16083   */\n      add\n        /* \"#utility.yul\":16057:16083   */\n      swap1\n      pop\n        /* \"#utility.yul\":16129:16138   */\n      dup2\n        /* \"#utility.yul\":16123:16127   */\n      dup2\n        /* \"#utility.yul\":16119:16139   */\n      sub\n        /* \"#utility.yul\":16115:16116   */\n      0x00\n        /* \"#utility.yul\":16104:16113   */\n      dup4\n        /* \"#utility.yul\":16100:16117   */\n      add\n        /* \"#utility.yul\":16093:16140   */\n      mstore\n        /* \"#utility.yul\":16157:16288   */\n      tag_657\n        /* \"#utility.yul\":16283:16287   */\n      dup2\n        /* \"#utility.yul\":16157:16288   */\n      tag_576\n      jump\t// in\n    tag_657:\n        /* \"#utility.yul\":16149:16288   */\n      swap1\n      pop\n        /* \"#utility.yul\":16047:16295   */\n      swap2\n      swap1\n      pop\n      jump\t// out\n        /* \"#utility.yul\":16301:16720   */\n    tag_414:\n        /* \"#utility.yul\":16467:16471   */\n      0x00\n        /* \"#utility.yul\":16505:16507   */\n      0x20\n        /* \"#utility.yul\":16494:16503   */\n      dup3\n        /* \"#utility.yul\":16490:16508   */\n      add\n        /* \"#utility.yul\":16482:16508   */\n      swap1\n      pop\n        /* \"#utility.yul\":16554:16563   */\n      dup2\n        /* \"#utility.yul\":16548:16552   */\n      dup2\n        /* \"#utility.yul\":16544:16564   */\n      sub\n        /* \"#utility.yul\":16540:16541   */\n      0x00\n        /* \"#utility.yul\":16529:16538   */\n      dup4\n        /* \"#utility.yul\":16525:16542   */\n      add\n        /* \"#utility.yul\":16518:16565   */\n      mstore\n        /* \"#utility.yul\":16582:16713   */\n      tag_659\n        /* \"#utility.yul\":16708:16712   */\n      dup2\n        /* \"#utility.yul\":16582:16713   */\n      tag_581\n      jump\t// in\n    tag_659:\n        /* \"#utility.yul\":16574:16713   */\n      swap1\n      pop\n        /* \"#utility.yul\":16472:16720   */\n      swap2\n      swap1\n      pop\n      jump\t// out\n        /* \"#utility.yul\":16726:17145   */\n    tag_443:\n        /* \"#utility.yul\":16892:16896   */\n      0x00\n        /* \"#utility.yul\":16930:16932   */\n      0x20\n        /* \"#utility.yul\":16919:16928   */\n      dup3\n        /* \"#utility.yul\":16915:16933   */\n      add\n        /* \"#utility.yul\":16907:16933   */\n      swap1\n      pop\n        /* \"#utility.yul\":16979:16988   */\n      dup2\n        /* \"#utility.yul\":16973:16977   */\n      dup2\n        /* \"#utility.yul\":16969:16989   */\n      sub\n        /* \"#utility.yul\":16965:16966   */\n      0x00\n        /* \"#utility.yul\":16954:16963   */\n      dup4\n        /* \"#utility.yul\":16950:16967   */\n      add\n        /* \"#utility.yul\":16943:16990   */\n      mstore\n        /* \"#utility.yul\":17007:17138   */\n      tag_661\n        /* \"#utility.yul\":17133:17137   */\n      dup2\n        /* \"#utility.yul\":17007:17138   */\n      tag_586\n      jump\t// in\n    tag_661:\n        /* \"#utility.yul\":16999:17138   */\n      swap1\n      pop\n        /* \"#utility.yul\":16897:17145   */\n      swap2\n      swap1\n      pop\n      jump\t// out\n        /* \"#utility.yul\":17151:17570   */\n    tag_174:\n        /* \"#utility.yul\":17317:17321   */\n      0x00\n        /* \"#utility.yul\":17355:17357   */\n      0x20\n        /* \"#utility.yul\":17344:17353   */\n      dup3\n        /* \"#utility.yul\":17340:17358   */\n      add\n        /* \"#utility.yul\":17332:17358   */\n      swap1\n      pop\n        /* \"#utility.yul\":17404:17413   */\n      dup2\n        /* \"#utility.yul\":17398:17402   */\n      dup2\n        /* \"#utility.yul\":17394:17414   */\n      sub\n        /* \"#utility.yul\":17390:17391   */\n      0x00\n        /* \"#utility.yul\":17379:17388   */\n      dup4\n        /* \"#utility.yul\":17375:17392   */\n      add\n        /* \"#utility.yul\":17368:17415   */\n      mstore\n        /* \"#utility.yul\":17432:17563   */\n      tag_663\n        /* \"#utility.yul\":17558:17562   */\n      dup2\n        /* \"#utility.yul\":17432:17563   */\n      tag_591\n      jump\t// in\n    tag_663:\n        /* \"#utility.yul\":17424:17563   */\n      swap1\n      pop\n        /* \"#utility.yul\":17322:17570   */\n      swap2\n      swap1\n      pop\n      jump\t// out\n        /* \"#utility.yul\":17576:17995   */\n    tag_312:\n        /* \"#utility.yul\":17742:17746   */\n      0x00\n        /* \"#utility.yul\":17780:17782   */\n      0x20\n        /* \"#utility.yul\":17769:17778   */\n      dup3\n        /* \"#utility.yul\":17765:17783   */\n      add\n        /* \"#utility.yul\":17757:17783   */\n      swap1\n      pop\n        /* \"#utility.yul\":17829:17838   */\n      dup2\n        /* \"#utility.yul\":17823:17827   */\n      dup2\n        /* \"#utility.yul\":17819:17839   */\n      sub\n        /* \"#utility.yul\":17815:17816   */\n      0x00\n        /* \"#utility.yul\":17804:17813   */\n      dup4\n        /* \"#utility.yul\":17800:17817   */\n      add\n        /* \"#utility.yul\":17793:17840   */\n      mstore\n        /* \"#utility.yul\":17857:17988   */\n      tag_665\n        /* \"#utility.yul\":17983:17987   */\n      dup2\n        /* \"#utility.yul\":17857:17988   */\n      tag_596\n      jump\t// in\n    tag_665:\n        /* \"#utility.yul\":17849:17988   */\n      swap1\n      pop\n        /* \"#utility.yul\":17747:17995   */\n      swap2\n      swap1\n      pop\n      jump\t// out\n        /* \"#utility.yul\":18001:18420   */\n    tag_264:\n        /* \"#utility.yul\":18167:18171   */\n      0x00\n        /* \"#utility.yul\":18205:18207   */\n      0x20\n        /* \"#utility.yul\":18194:18203   */\n      dup3\n        /* \"#utility.yul\":18190:18208   */\n      add\n        /* \"#utility.yul\":18182:18208   */\n      swap1\n      pop\n        /* \"#utility.yul\":18254:18263   */\n      dup2\n        /* \"#utility.yul\":18248:18252   */\n      dup2\n        /* \"#utility.yul\":18244:18264   */\n      sub\n        /* \"#utility.yul\":18240:18241   */\n      0x00\n        /* \"#utility.yul\":18229:18238   */\n      dup4\n        /* \"#utility.yul\":18225:18242   */\n      add\n        /* \"#utility.yul\":18218:18265   */\n      mstore\n        /* \"#utility.yul\":18282:18413   */\n      tag_667\n        /* \"#utility.yul\":18408:18412   */\n      dup2\n        /* \"#utility.yul\":18282:18413   */\n      tag_601\n      jump\t// in\n    tag_667:\n        /* \"#utility.yul\":18274:18413   */\n      swap1\n      pop\n        /* \"#utility.yul\":18172:18420   */\n      swap2\n      swap1\n      pop\n      jump\t// out\n        /* \"#utility.yul\":18426:18845   */\n    tag_306:\n        /* \"#utility.yul\":18592:18596   */\n      0x00\n        /* \"#utility.yul\":18630:18632   */\n      0x20\n        /* \"#utility.yul\":18619:18628   */\n      dup3\n        /* \"#utility.yul\":18615:18633   */\n      add\n        /* \"#utility.yul\":18607:18633   */\n      swap1\n      pop\n        /* \"#utility.yul\":18679:18688   */\n      dup2\n        /* \"#utility.yul\":18673:18677   */\n      dup2\n        /* \"#utility.yul\":18669:18689   */\n      sub\n        /* \"#utility.yul\":18665:18666   */\n      0x00\n        /* \"#utility.yul\":18654:18663   */\n      dup4\n        /* \"#utility.yul\":18650:18667   */\n      add\n        /* \"#utility.yul\":18643:18690   */\n      mstore\n        /* \"#utility.yul\":18707:18838   */\n      tag_669\n        /* \"#utility.yul\":18833:18837   */\n      dup2\n        /* \"#utility.yul\":18707:18838   */\n      tag_606\n      jump\t// in\n    tag_669:\n        /* \"#utility.yul\":18699:18838   */\n      swap1\n      pop\n        /* \"#utility.yul\":18597:18845   */\n      swap2\n      swap1\n      pop\n      jump\t// out\n        /* \"#utility.yul\":18851:19270   */\n    tag_220:\n        /* \"#utility.yul\":19017:19021   */\n      0x00\n        /* \"#utility.yul\":19055:19057   */\n      0x20\n        /* \"#utility.yul\":19044:19053   */\n      dup3\n        /* \"#utility.yul\":19040:19058   */\n      add\n        /* \"#utility.yul\":19032:19058   */\n      swap1\n      pop\n        /* \"#utility.yul\":19104:19113   */\n      dup2\n        /* \"#utility.yul\":19098:19102   */\n      dup2\n        /* \"#utility.yul\":19094:19114   */\n      sub\n        /* \"#utility.yul\":19090:19091   */\n      0x00\n        /* \"#utility.yul\":19079:19088   */\n      dup4\n        /* \"#utility.yul\":19075:19092   */\n      add\n        /* \"#utility.yul\":19068:19115   */\n      mstore\n        /* \"#utility.yul\":19132:19263   */\n      tag_671\n        /* \"#utility.yul\":19258:19262   */\n      dup2\n        /* \"#utility.yul\":19132:19263   */\n      tag_611\n      jump\t// in\n    tag_671:\n        /* \"#utility.yul\":19124:19263   */\n      swap1\n      pop\n        /* \"#utility.yul\":19022:19270   */\n      swap2\n      swap1\n      pop\n      jump\t// out\n        /* \"#utility.yul\":19276:19695   */\n    tag_298:\n        /* \"#utility.yul\":19442:19446   */\n      0x00\n        /* \"#utility.yul\":19480:19482   */\n      0x20\n        /* \"#utility.yul\":19469:19478   */\n      dup3\n        /* \"#utility.yul\":19465:19483   */\n      add\n        /* \"#utility.yul\":19457:19483   */\n      swap1\n      pop\n        /* \"#utility.yul\":19529:19538   */\n      dup2\n        /* \"#utility.yul\":19523:19527   */\n      dup2\n        /* \"#utility.yul\":19519:19539   */\n      sub\n        /* \"#utility.yul\":19515:19516   */\n      0x00\n        /* \"#utility.yul\":19504:19513   */\n      dup4\n        /* \"#utility.yul\":19500:19517   */\n      add\n        /* \"#utility.yul\":19493:19540   */\n      mstore\n        /* \"#utility.yul\":19557:19688   */\n      tag_673\n        /* \"#utility.yul\":19683:19687   */\n      dup2\n        /* \"#utility.yul\":19557:19688   */\n      tag_616\n      jump\t// in\n    tag_673:\n        /* \"#utility.yul\":19549:19688   */\n      swap1\n      pop\n        /* \"#utility.yul\":19447:19695   */\n      swap2\n      swap1\n      pop\n      jump\t// out\n        /* \"#utility.yul\":19701:20120   */\n    tag_215:\n        /* \"#utility.yul\":19867:19871   */\n      0x00\n        /* \"#utility.yul\":19905:19907   */\n      0x20\n        /* \"#utility.yul\":19894:19903   */\n      dup3\n        /* \"#utility.yul\":19890:19908   */\n      add\n        /* \"#utility.yul\":19882:19908   */\n      swap1\n      pop\n        /* \"#utility.yul\":19954:19963   */\n      dup2\n        /* \"#utility.yul\":19948:19952   */\n      dup2\n        /* \"#utility.yul\":19944:19964   */\n      sub\n        /* \"#utility.yul\":19940:19941   */\n      0x00\n        /* \"#utility.yul\":19929:19938   */\n      dup4\n        /* \"#utility.yul\":19925:19942   */\n      add\n        /* \"#utility.yul\":19918:19965   */\n      mstore\n        /* \"#utility.yul\":19982:20113   */\n      tag_675\n        /* \"#utility.yul\":20108:20112   */\n      dup2\n        /* \"#utility.yul\":19982:20113   */\n      tag_621\n      jump\t// in\n    tag_675:\n        /* \"#utility.yul\":19974:20113   */\n      swap1\n      pop\n        /* \"#utility.yul\":19872:20120   */\n      swap2\n      swap1\n      pop\n      jump\t// out\n        /* \"#utility.yul\":20126:20348   */\n    tag_55:\n        /* \"#utility.yul\":20219:20223   */\n      0x00\n        /* \"#utility.yul\":20257:20259   */\n      0x20\n        /* \"#utility.yul\":20246:20255   */\n      dup3\n        /* \"#utility.yul\":20242:20260   */\n      add\n        /* \"#utility.yul\":20234:20260   */\n      swap1\n      pop\n        /* \"#utility.yul\":20270:20341   */\n      tag_677\n        /* \"#utility.yul\":20338:20339   */\n      0x00\n        /* \"#utility.yul\":20327:20336   */\n      dup4\n        /* \"#utility.yul\":20323:20340   */\n      add\n        /* \"#utility.yul\":20314:20320   */\n      dup5\n        /* \"#utility.yul\":20270:20341   */\n      tag_626\n      jump\t// in\n    tag_677:\n        /* \"#utility.yul\":20224:20348   */\n      swap3\n      swap2\n      pop\n      pop\n      jump\t// out\n        /* \"#utility.yul\":20354:21185   */\n    tag_367:\n        /* \"#utility.yul\":20617:20621   */\n      0x00\n        /* \"#utility.yul\":20655:20658   */\n      0xa0\n        /* \"#utility.yul\":20644:20653   */\n      dup3\n        /* \"#utility.yul\":20640:20659   */\n      add\n        /* \"#utility.yul\":20632:20659   */\n      swap1\n      pop\n        /* \"#utility.yul\":20669:20740   */\n      tag_679\n        /* \"#utility.yul\":20737:20738   */\n      0x00\n        /* \"#utility.yul\":20726:20735   */\n      dup4\n        /* \"#utility.yul\":20722:20739   */\n      add\n        /* \"#utility.yul\":20713:20719   */\n      dup9\n        /* \"#utility.yul\":20669:20740   */\n      tag_626\n      jump\t// in\n    tag_679:\n        /* \"#utility.yul\":20750:20830   */\n      tag_680\n        /* \"#utility.yul\":20826:20828   */\n      0x20\n        /* \"#utility.yul\":20815:20824   */\n      dup4\n        /* \"#utility.yul\":20811:20829   */\n      add\n        /* \"#utility.yul\":20802:20808   */\n      dup8\n        /* \"#utility.yul\":20750:20830   */\n      tag_547\n      jump\t// in\n    tag_680:\n        /* \"#utility.yul\":20877:20886   */\n      dup2\n        /* \"#utility.yul\":20871:20875   */\n      dup2\n        /* \"#utility.yul\":20867:20887   */\n      sub\n        /* \"#utility.yul\":20862:20864   */\n      0x40\n        /* \"#utility.yul\":20851:20860   */\n      dup4\n        /* \"#utility.yul\":20847:20865   */\n      add\n        /* \"#utility.yul\":20840:20888   */\n      mstore\n        /* \"#utility.yul\":20905:21013   */\n      tag_681\n        /* \"#utility.yul\":21008:21012   */\n      dup2\n        /* \"#utility.yul\":20999:21005   */\n      dup7\n        /* \"#utility.yul\":20905:21013   */\n      tag_521\n      jump\t// in\n    tag_681:\n        /* \"#utility.yul\":20897:21013   */\n      swap1\n      pop\n        /* \"#utility.yul\":21023:21095   */\n      tag_682\n        /* \"#utility.yul\":21091:21093   */\n      0x60\n        /* \"#utility.yul\":21080:21089   */\n      dup4\n        /* \"#utility.yul\":21076:21094   */\n      add\n        /* \"#utility.yul\":21067:21073   */\n      dup6\n        /* \"#utility.yul\":21023:21095   */\n      tag_518\n      jump\t// in\n    tag_682:\n        /* \"#utility.yul\":21105:21178   */\n      tag_683\n        /* \"#utility.yul\":21173:21176   */\n      0x80\n        /* \"#utility.yul\":21162:21171   */\n      dup4\n        /* \"#utility.yul\":21158:21177   */\n      add\n        /* \"#utility.yul\":21149:21155   */\n      dup5\n        /* \"#utility.yul\":21105:21178   */\n      tag_626\n      jump\t// in\n    tag_683:\n        /* \"#utility.yul\":20622:21185   */\n      swap7\n      swap6\n      pop\n      pop\n      pop\n      pop\n      pop\n      pop\n      jump\t// out\n        /* \"#utility.yul\":21191:21405   */\n    tag_66:\n        /* \"#utility.yul\":21280:21284   */\n      0x00\n        /* \"#utility.yul\":21318:21320   */\n      0x20\n        /* \"#utility.yul\":21307:21316   */\n      dup3\n        /* \"#utility.yul\":21303:21321   */\n      add\n        /* \"#utility.yul\":21295:21321   */\n      swap1\n      pop\n        /* \"#utility.yul\":21331:21398   */\n      tag_685\n        /* \"#utility.yul\":21395:21396   */\n      0x00\n        /* \"#utility.yul\":21384:21393   */\n      dup4\n        /* \"#utility.yul\":21380:21397   */\n      add\n        /* \"#utility.yul\":21371:21377   */\n      dup5\n        /* \"#utility.yul\":21331:21398   */\n      tag_630\n      jump\t// in\n    tag_685:\n        /* \"#utility.yul\":21285:21405   */\n      swap3\n      swap2\n      pop\n      pop\n      jump\t// out\n        /* \"#utility.yul\":21411:21543   */\n    tag_528:\n        /* \"#utility.yul\":21478:21482   */\n      0x00\n        /* \"#utility.yul\":21501:21504   */\n      dup2\n        /* \"#utility.yul\":21493:21504   */\n      swap1\n      pop\n        /* \"#utility.yul\":21531:21535   */\n      0x20\n        /* \"#utility.yul\":21526:21529   */\n      dup3\n        /* \"#utility.yul\":21522:21536   */\n      add\n        /* \"#utility.yul\":21514:21536   */\n      swap1\n      pop\n        /* \"#utility.yul\":21483:21543   */\n      swap2\n      swap1\n      pop\n      jump\t// out\n        /* \"#utility.yul\":21549:21663   */\n    tag_524:\n        /* \"#utility.yul\":21616:21622   */\n      0x00\n        /* \"#utility.yul\":21650:21655   */\n      dup2\n        /* \"#utility.yul\":21644:21656   */\n      mload\n        /* \"#utility.yul\":21634:21656   */\n      swap1\n      pop\n        /* \"#utility.yul\":21623:21663   */\n      swap2\n      swap1\n      pop\n      jump\t// out\n        /* \"#utility.yul\":21669:21768   */\n    tag_554:\n        /* \"#utility.yul\":21721:21727   */\n      0x00\n        /* \"#utility.yul\":21755:21760   */\n      dup2\n        /* \"#utility.yul\":21749:21761   */\n      mload\n        /* \"#utility.yul\":21739:21761   */\n      swap1\n      pop\n        /* \"#utility.yul\":21728:21768   */\n      swap2\n      swap1\n      pop\n      jump\t// out\n        /* \"#utility.yul\":21774:21887   */\n    tag_534:\n        /* \"#utility.yul\":21844:21848   */\n      0x00\n        /* \"#utility.yul\":21876:21880   */\n      0x20\n        /* \"#utility.yul\":21871:21874   */\n      dup3\n        /* \"#utility.yul\":21867:21881   */\n      add\n        /* \"#utility.yul\":21859:21881   */\n      swap1\n      pop\n        /* \"#utility.yul\":21849:21887   */\n      swap2\n      swap1\n      pop\n      jump\t// out\n        /* \"#utility.yul\":21893:22077   */\n    tag_526:\n        /* \"#utility.yul\":21992:22003   */\n      0x00\n        /* \"#utility.yul\":22026:22032   */\n      dup3\n        /* \"#utility.yul\":22021:22024   */\n      dup3\n        /* \"#utility.yul\":22014:22033   */\n      mstore\n        /* \"#utility.yul\":22066:22070   */\n      0x20\n        /* \"#utility.yul\":22061:22064   */\n      dup3\n        /* \"#utility.yul\":22057:22071   */\n      add\n        /* \"#utility.yul\":22042:22071   */\n      swap1\n      pop\n        /* \"#utility.yul\":22004:22077   */\n      swap3\n      swap2\n      pop\n      pop\n      jump\t// out\n        /* \"#utility.yul\":22083:22252   */\n    tag_556:\n        /* \"#utility.yul\":22167:22178   */\n      0x00\n        /* \"#utility.yul\":22201:22207   */\n      dup3\n        /* \"#utility.yul\":22196:22199   */\n      dup3\n        /* \"#utility.yul\":22189:22208   */\n      mstore\n        /* \"#utility.yul\":22241:22245   */\n      0x20\n        /* \"#utility.yul\":22236:22239   */\n      dup3\n        /* \"#utility.yul\":22232:22246   */\n      add\n        /* \"#utility.yul\":22217:22246   */\n      swap1\n      pop\n        /* \"#utility.yul\":22179:22252   */\n      swap3\n      swap2\n      pop\n      pop\n      jump\t// out\n        /* \"#utility.yul\":22258:22563   */\n    tag_411:\n        /* \"#utility.yul\":22298:22301   */\n      0x00\n        /* \"#utility.yul\":22317:22337   */\n      tag_693\n        /* \"#utility.yul\":22335:22336   */\n      dup3\n        /* \"#utility.yul\":22317:22337   */\n      tag_629\n      jump\t// in\n    tag_693:\n        /* \"#utility.yul\":22312:22337   */\n      swap2\n      pop\n        /* \"#utility.yul\":22351:22371   */\n      tag_694\n        /* \"#utility.yul\":22369:22370   */\n      dup4\n        /* \"#utility.yul\":22351:22371   */\n      tag_629\n      jump\t// in\n    tag_694:\n        /* \"#utility.yul\":22346:22371   */\n      swap3\n      pop\n        /* \"#utility.yul\":22505:22506   */\n      dup3\n        /* \"#utility.yul\":22437:22503   */\n      0xffffffffffffffffffffffffffffffffffffffffffffffffffffffffffffffff\n        /* \"#utility.yul\":22433:22507   */\n      sub\n        /* \"#utility.yul\":22430:22431   */\n      dup3\n        /* \"#utility.yul\":22427:22508   */\n      gt\n        /* \"#utility.yul\":22424:22426   */\n      iszero\n      tag_695\n      jumpi\n        /* \"#utility.yul\":22511:22529   */\n      tag_696\n      tag_697\n      jump\t// in\n    tag_696:\n        /* \"#utility.yul\":22424:22426   */\n    tag_695:\n        /* \"#utility.yul\":22555:22556   */\n      dup3\n        /* \"#utility.yul\":22552:22553   */\n      dup3\n        /* \"#utility.yul\":22548:22557   */\n      add\n        /* \"#utility.yul\":22541:22557   */\n      swap1\n      pop\n        /* \"#utility.yul\":22302:22563   */\n      swap3\n      swap2\n      pop\n      pop\n      jump\t// out\n        /* \"#utility.yul\":22569:22754   */\n    tag_397:\n        /* \"#utility.yul\":22609:22610   */\n      0x00\n        /* \"#utility.yul\":22626:22646   */\n      tag_699\n        /* \"#utility.yul\":22644:22645   */\n      dup3\n        /* \"#utility.yul\":22626:22646   */\n      tag_629\n      jump\t// in\n    tag_699:\n        /* \"#utility.yul\":22621:22646   */\n      swap2\n      pop\n        /* \"#utility.yul\":22660:22680   */\n      tag_700\n        /* \"#utility.yul\":22678:22679   */\n      dup4\n        /* \"#utility.yul\":22660:22680   */\n      tag_629\n      jump\t// in\n    tag_700:\n        /* \"#utility.yul\":22655:22680   */\n      swap3\n      pop\n        /* \"#utility.yul\":22699:22700   */\n      dup3\n        /* \"#utility.yul\":22689:22691   */\n      tag_701\n      jumpi\n        /* \"#utility.yul\":22704:22722   */\n      tag_702\n      tag_703\n      jump\t// in\n    tag_702:\n        /* \"#utility.yul\":22689:22691   */\n    tag_701:\n        /* \"#utility.yul\":22746:22747   */\n      dup3\n        /* \"#utility.yul\":22743:22744   */\n      dup3\n        /* \"#utility.yul\":22739:22748   */\n      div\n        /* \"#utility.yul\":22734:22748   */\n      swap1\n      pop\n        /* \"#utility.yul\":22611:22754   */\n      swap3\n      swap2\n      pop\n      pop\n      jump\t// out\n        /* \"#utility.yul\":22760:23108   */\n    tag_439:\n        /* \"#utility.yul\":22800:22807   */\n      0x00\n        /* \"#utility.yul\":22823:22843   */\n      tag_705\n        /* \"#utility.yul\":22841:22842   */\n      dup3\n        /* \"#utility.yul\":22823:22843   */\n      tag_629\n      jump\t// in\n    tag_705:\n        /* \"#utility.yul\":22818:22843   */\n      swap2\n      pop\n        /* \"#utility.yul\":22857:22877   */\n      tag_706\n        /* \"#utility.yul\":22875:22876   */\n      dup4\n        /* \"#utility.yul\":22857:22877   */\n      tag_629\n      jump\t// in\n    tag_706:\n        /* \"#utility.yul\":22852:22877   */\n      swap3\n      pop\n        /* \"#utility.yul\":23045:23046   */\n      dup2\n        /* \"#utility.yul\":22977:23043   */\n      0xffffffffffffffffffffffffffffffffffffffffffffffffffffffffffffffff\n        /* \"#utility.yul\":22973:23047   */\n      div\n        /* \"#utility.yul\":22970:22971   */\n      dup4\n        /* \"#utility.yul\":22967:23048   */\n      gt\n        /* \"#utility.yul\":22962:22963   */\n      dup3\n        /* \"#utility.yul\":22955:22964   */\n      iszero\n        /* \"#utility.yul\":22948:22965   */\n      iszero\n        /* \"#utility.yul\":22944:23049   */\n      and\n        /* \"#utility.yul\":22941:22943   */\n      iszero\n      tag_707\n      jumpi\n        /* \"#utility.yul\":23052:23070   */\n      tag_708\n      tag_697\n      jump\t// in\n    tag_708:\n        /* \"#utility.yul\":22941:22943   */\n    tag_707:\n        /* \"#utility.yul\":23100:23101   */\n      dup3\n        /* \"#utility.yul\":23097:23098   */\n      dup3\n        /* \"#utility.yul\":23093:23102   */\n      mul\n        /* \"#utility.yul\":23082:23102   */\n      swap1\n      pop\n        /* \"#utility.yul\":22808:23108   */\n      swap3\n      swap2\n      pop\n      pop\n      jump\t// out\n        /* \"#utility.yul\":23114:23305   */\n    tag_339:\n        /* \"#utility.yul\":23154:23158   */\n      0x00\n        /* \"#utility.yul\":23174:23194   */\n      tag_710\n        /* \"#utility.yul\":23192:23193   */\n      dup3\n        /* \"#utility.yul\":23174:23194   */\n      tag_629\n      jump\t// in\n    tag_710:\n        /* \"#utility.yul\":23169:23194   */\n      swap2\n      pop\n        /* \"#utility.yul\":23208:23228   */\n      tag_711\n        /* \"#utility.yul\":23226:23227   */\n      dup4\n        /* \"#utility.yul\":23208:23228   */\n      tag_629\n      jump\t// in\n    tag_711:\n        /* \"#utility.yul\":23203:23228   */\n      swap3\n      pop\n        /* \"#utility.yul\":23247:23248   */\n      dup3\n        /* \"#utility.yul\":23244:23245   */\n      dup3\n        /* \"#utility.yul\":23241:23249   */\n      lt\n        /* \"#utility.yul\":23238:23240   */\n      iszero\n      tag_712\n      jumpi\n        /* \"#utility.yul\":23252:23270   */\n      tag_713\n      tag_697\n      jump\t// in\n    tag_713:\n        /* \"#utility.yul\":23238:23240   */\n    tag_712:\n        /* \"#utility.yul\":23297:23298   */\n      dup3\n        /* \"#utility.yul\":23294:23295   */\n      dup3\n        /* \"#utility.yul\":23290:23299   */\n      sub\n        /* \"#utility.yul\":23282:23299   */\n      swap1\n      pop\n        /* \"#utility.yul\":23159:23305   */\n      swap3\n      swap2\n      pop\n      pop\n      jump\t// out\n        /* \"#utility.yul\":23311:23407   */\n    tag_517:\n        /* \"#utility.yul\":23348:23355   */\n      0x00\n        /* \"#utility.yul\":23377:23401   */\n      tag_715\n        /* \"#utility.yul\":23395:23400   */\n      dup3\n        /* \"#utility.yul\":23377:23401   */\n      tag_716\n      jump\t// in\n    tag_715:\n        /* \"#utility.yul\":23366:23401   */\n      swap1\n      pop\n        /* \"#utility.yul\":23356:23407   */\n      swap2\n      swap1\n      pop\n      jump\t// out\n        /* \"#utility.yul\":23413:23517   */\n    tag_717:\n        /* \"#utility.yul\":23458:23465   */\n      0x00\n        /* \"#utility.yul\":23487:23511   */\n      tag_719\n        /* \"#utility.yul\":23505:23510   */\n      dup3\n        /* \"#utility.yul\":23487:23511   */\n      tag_716\n      jump\t// in\n    tag_719:\n        /* \"#utility.yul\":23476:23511   */\n      swap1\n      pop\n        /* \"#utility.yul\":23466:23517   */\n      swap2\n      swap1\n      pop\n      jump\t// out\n        /* \"#utility.yul\":23523:23613   */\n    tag_538:\n        /* \"#utility.yul\":23557:23564   */\n      0x00\n        /* \"#utility.yul\":23600:23605   */\n      dup2\n        /* \"#utility.yul\":23593:23606   */\n      iszero\n        /* \"#utility.yul\":23586:23607   */\n      iszero\n        /* \"#utility.yul\":23575:23607   */\n      swap1\n      pop\n        /* \"#utility.yul\":23565:23613   */\n      swap2\n      swap1\n      pop\n      jump\t// out\n        /* \"#utility.yul\":23619:23745   */\n    tag_716:\n        /* \"#utility.yul\":23656:23663   */\n      0x00\n        /* \"#utility.yul\":23696:23738   */\n      0xffffffffffffffffffffffffffffffffffffffff\n        /* \"#utility.yul\":23689:23694   */\n      dup3\n        /* \"#utility.yul\":23685:23739   */\n      and\n        /* \"#utility.yul\":23674:23739   */\n      swap1\n      pop\n        /* \"#utility.yul\":23664:23745   */\n      swap2\n      swap1\n      pop\n      jump\t// out\n        /* \"#utility.yul\":23751:23828   */\n    tag_629:\n        /* \"#utility.yul\":23788:23795   */\n      0x00\n        /* \"#utility.yul\":23817:23822   */\n      dup2\n        /* \"#utility.yul\":23806:23822   */\n      swap1\n      pop\n        /* \"#utility.yul\":23796:23828   */\n      swap2\n      swap1\n      pop\n      jump\t// out\n        /* \"#utility.yul\":23834:23920   */\n    tag_633:\n        /* \"#utility.yul\":23869:23876   */\n      0x00\n        /* \"#utility.yul\":23909:23913   */\n      0xff\n        /* \"#utility.yul\":23902:23907   */\n      dup3\n        /* \"#utility.yul\":23898:23914   */\n      and\n        /* \"#utility.yul\":23887:23914   */\n      swap1\n      pop\n        /* \"#utility.yul\":23877:23920   */\n      swap2\n      swap1\n      pop\n      jump\t// out\n        /* \"#utility.yul\":23926:24100   */\n    tag_542:\n        /* \"#utility.yul\":24000:24009   */\n      0x00\n        /* \"#utility.yul\":24033:24094   */\n      tag_725\n        /* \"#utility.yul\":24088:24093   */\n      dup3\n        /* \"#utility.yul\":24033:24094   */\n      tag_726\n      jump\t// in\n    tag_725:\n        /* \"#utility.yul\":24020:24094   */\n      swap1\n      pop\n        /* \"#utility.yul\":24010:24100   */\n      swap2\n      swap1\n      pop\n      jump\t// out\n        /* \"#utility.yul\":24106:24243   */\n    tag_726:\n        /* \"#utility.yul\":24180:24189   */\n      0x00\n        /* \"#utility.yul\":24213:24237   */\n      tag_728\n        /* \"#utility.yul\":24231:24236   */\n      dup3\n        /* \"#utility.yul\":24213:24237   */\n      tag_716\n      jump\t// in\n    tag_728:\n        /* \"#utility.yul\":24200:24237   */\n      swap1\n      pop\n        /* \"#utility.yul\":24190:24243   */\n      swap2\n      swap1\n      pop\n      jump\t// out\n        /* \"#utility.yul\":24249:24427   */\n    tag_546:\n        /* \"#utility.yul\":24325:24334   */\n      0x00\n        /* \"#utility.yul\":24358:24421   */\n      tag_730\n        /* \"#utility.yul\":24415:24420   */\n      dup3\n        /* \"#utility.yul\":24358:24421   */\n      tag_731\n      jump\t// in\n    tag_730:\n        /* \"#utility.yul\":24345:24421   */\n      swap1\n      pop\n        /* \"#utility.yul\":24335:24427   */\n      swap2\n      swap1\n      pop\n      jump\t// out\n        /* \"#utility.yul\":24433:24572   */\n    tag_731:\n        /* \"#utility.yul\":24509:24518   */\n      0x00\n        /* \"#utility.yul\":24542:24566   */\n      tag_733\n        /* \"#utility.yul\":24560:24565   */\n      dup3\n        /* \"#utility.yul\":24542:24566   */\n      tag_716\n      jump\t// in\n    tag_733:\n        /* \"#utility.yul\":24529:24566   */\n      swap1\n      pop\n        /* \"#utility.yul\":24519:24572   */\n      swap2\n      swap1\n      pop\n      jump\t// out\n        /* \"#utility.yul\":24578:24699   */\n    tag_550:\n        /* \"#utility.yul\":24636:24645   */\n      0x00\n        /* \"#utility.yul\":24669:24693   */\n      tag_735\n        /* \"#utility.yul\":24687:24692   */\n      dup3\n        /* \"#utility.yul\":24669:24693   */\n      tag_629\n      jump\t// in\n    tag_735:\n        /* \"#utility.yul\":24656:24693   */\n      swap1\n      pop\n        /* \"#utility.yul\":24646:24699   */\n      swap2\n      swap1\n      pop\n      jump\t// out\n        /* \"#utility.yul\":24705:25012   */\n    tag_558:\n        /* \"#utility.yul\":24773:24774   */\n      0x00\n        /* \"#utility.yul\":24783:24896   */\n    tag_737:\n        /* \"#utility.yul\":24797:24803   */\n      dup4\n        /* \"#utility.yul\":24794:24795   */\n      dup2\n        /* \"#utility.yul\":24791:24804   */\n      lt\n        /* \"#utility.yul\":24783:24896   */\n      iszero\n      tag_739\n      jumpi\n        /* \"#utility.yul\":24882:24883   */\n      dup1\n        /* \"#utility.yul\":24877:24880   */\n      dup3\n        /* \"#utility.yul\":24873:24884   */\n      add\n        /* \"#utility.yul\":24867:24885   */\n      mload\n        /* \"#utility.yul\":24863:24864   */\n      dup2\n        /* \"#utility.yul\":24858:24861   */\n      dup5\n        /* \"#utility.yul\":24854:24865   */\n      add\n        /* \"#utility.yul\":24847:24886   */\n      mstore\n        /* \"#utility.yul\":24819:24821   */\n      0x20\n        /* \"#utility.yul\":24816:24817   */\n      dup2\n        /* \"#utility.yul\":24812:24822   */\n      add\n        /* \"#utility.yul\":24807:24822   */\n      swap1\n      pop\n        /* \"#utility.yul\":24783:24896   */\n      jump(tag_737)\n    tag_739:\n        /* \"#utility.yul\":24914:24920   */\n      dup4\n        /* \"#utility.yul\":24911:24912   */\n      dup2\n        /* \"#utility.yul\":24908:24921   */\n      gt\n        /* \"#utility.yul\":24905:24907   */\n      iszero\n      tag_740\n      jumpi\n        /* \"#utility.yul\":24994:24995   */\n      0x00\n        /* \"#utility.yul\":24985:24991   */\n      dup5\n        /* \"#utility.yul\":24980:24983   */\n      dup5\n        /* \"#utility.yul\":24976:24992   */\n      add\n        /* \"#utility.yul\":24969:24996   */\n      mstore\n        /* \"#utility.yul\":24905:24907   */\n    tag_740:\n        /* \"#utility.yul\":24754:25012   */\n      pop\n      pop\n      pop\n      pop\n      jump\t// out\n        /* \"#utility.yul\":25018:25251   */\n    tag_256:\n        /* \"#utility.yul\":25057:25060   */\n      0x00\n        /* \"#utility.yul\":25080:25104   */\n      tag_742\n        /* \"#utility.yul\":25098:25103   */\n      dup3\n        /* \"#utility.yul\":25080:25104   */\n      tag_629\n      jump\t// in\n    tag_742:\n        /* \"#utility.yul\":25071:25104   */\n      swap2\n      pop\n        /* \"#utility.yul\":25126:25192   */\n      0xffffffffffffffffffffffffffffffffffffffffffffffffffffffffffffffff\n        /* \"#utility.yul\":25119:25124   */\n      dup3\n        /* \"#utility.yul\":25116:25193   */\n      eq\n        /* \"#utility.yul\":25113:25115   */\n      iszero\n      tag_743\n      jumpi\n        /* \"#utility.yul\":25196:25214   */\n      tag_744\n      tag_697\n      jump\t// in\n    tag_744:\n        /* \"#utility.yul\":25113:25115   */\n    tag_743:\n        /* \"#utility.yul\":25243:25244   */\n      0x01\n        /* \"#utility.yul\":25236:25241   */\n      dup3\n        /* \"#utility.yul\":25232:25245   */\n      add\n        /* \"#utility.yul\":25225:25245   */\n      swap1\n      pop\n        /* \"#utility.yul\":25061:25251   */\n      swap2\n      swap1\n      pop\n      jump\t// out\n        /* \"#utility.yul\":25257:25437   */\n    tag_697:\n        /* \"#utility.yul\":25305:25382   */\n      0x4e487b7100000000000000000000000000000000000000000000000000000000\n        /* \"#utility.yul\":25302:25303   */\n      0x00\n        /* \"#utility.yul\":25295:25383   */\n      mstore\n        /* \"#utility.yul\":25402:25406   */\n      0x11\n        /* \"#utility.yul\":25399:25400   */\n      0x04\n        /* \"#utility.yul\":25392:25407   */\n      mstore\n        /* \"#utility.yul\":25426:25430   */\n      0x24\n        /* \"#utility.yul\":25423:25424   */\n      0x00\n        /* \"#utility.yul\":25416:25431   */\n      revert\n        /* \"#utility.yul\":25443:25623   */\n    tag_703:\n        /* \"#utility.yul\":25491:25568   */\n      0x4e487b7100000000000000000000000000000000000000000000000000000000\n        /* \"#utility.yul\":25488:25489   */\n      0x00\n        /* \"#utility.yul\":25481:25569   */\n      mstore\n        /* \"#utility.yul\":25588:25592   */\n      0x12\n        /* \"#utility.yul\":25585:25586   */\n      0x04\n        /* \"#utility.yul\":25578:25593   */\n      mstore\n        /* \"#utility.yul\":25612:25616   */\n      0x24\n        /* \"#utility.yul\":25609:25610   */\n      0x00\n        /* \"#utility.yul\":25602:25617   */\n      revert\n        /* \"#utility.yul\":25629:25731   */\n    tag_560:\n        /* \"#utility.yul\":25670:25676   */\n      0x00\n        /* \"#utility.yul\":25721:25723   */\n      0x1f\n        /* \"#utility.yul\":25717:25724   */\n      not\n        /* \"#utility.yul\":25712:25714   */\n      0x1f\n        /* \"#utility.yul\":25705:25710   */\n      dup4\n        /* \"#utility.yul\":25701:25715   */\n      add\n        /* \"#utility.yul\":25697:25725   */\n      and\n        /* \"#utility.yul\":25687:25725   */\n      swap1\n      pop\n        /* \"#utility.yul\":25677:25731   */\n      swap2\n      swap1\n      pop\n      jump\t// out\n        /* \"#utility.yul\":25737:25959   */\n    tag_565:\n        /* \"#utility.yul\":25877:25911   */\n      0x45524332303a207472616e7366657220746f20746865207a65726f2061646472\n        /* \"#utility.yul\":25873:25874   */\n      0x00\n        /* \"#utility.yul\":25865:25871   */\n      dup3\n        /* \"#utility.yul\":25861:25875   */\n      add\n        /* \"#utility.yul\":25854:25912   */\n      mstore\n        /* \"#utility.yul\":25946:25951   */\n      0x6573730000000000000000000000000000000000000000000000000000000000\n        /* \"#utility.yul\":25941:25943   */\n      0x20\n        /* \"#utility.yul\":25933:25939   */\n      dup3\n        /* \"#utility.yul\":25929:25944   */\n      add\n        /* \"#utility.yul\":25922:25952   */\n      mstore\n        /* \"#utility.yul\":25843:25959   */\n      pop\n      jump\t// out\n        /* \"#utility.yul\":25965:26138   */\n    tag_570:\n        /* \"#utility.yul\":26105:26130   */\n      0x43616c6c6572206973206e6f7420746865206f776e6572000000000000000000\n        /* \"#utility.yul\":26101:26102   */\n      0x00\n        /* \"#utility.yul\":26093:26099   */\n      dup3\n        /* \"#utility.yul\":26089:26103   */\n      add\n        /* \"#utility.yul\":26082:26131   */\n      mstore\n        /* \"#utility.yul\":26071:26138   */\n      pop\n      jump\t// out\n        /* \"#utility.yul\":26144:26373   */\n    tag_575:\n        /* \"#utility.yul\":26284:26318   */\n      0x416d6f756e74206d757374206265206c657373207468616e20746f74616c2072\n        /* \"#utility.yul\":26280:26281   */\n      0x00\n        /* \"#utility.yul\":26272:26278   */\n      dup3\n        /* \"#utility.yul\":26268:26282   */\n      add\n        /* \"#utility.yul\":26261:26319   */\n      mstore\n        /* \"#utility.yul\":26353:26365   */\n      0x65666c656374696f6e7300000000000000000000000000000000000000000000\n        /* \"#utility.yul\":26348:26350   */\n      0x20\n        /* \"#utility.yul\":26340:26346   */\n      dup3\n        /* \"#utility.yul\":26336:26351   */\n      add\n        /* \"#utility.yul\":26329:26366   */\n      mstore\n        /* \"#utility.yul\":26250:26373   */\n      pop\n      jump\t// out\n        /* \"#utility.yul\":26379:26600   */\n    tag_580:\n        /* \"#utility.yul\":26519:26553   */\n      0x45524332303a20617070726f766520746f20746865207a65726f206164647265\n        /* \"#utility.yul\":26515:26516   */\n      0x00\n        /* \"#utility.yul\":26507:26513   */\n      dup3\n        /* \"#utility.yul\":26503:26517   */\n      add\n        /* \"#utility.yul\":26496:26554   */\n      mstore\n        /* \"#utility.yul\":26588:26592   */\n      0x7373000000000000000000000000000000000000000000000000000000000000\n        /* \"#utility.yul\":26583:26585   */\n      0x20\n        /* \"#utility.yul\":26575:26581   */\n      dup3\n        /* \"#utility.yul\":26571:26586   */\n      add\n        /* \"#utility.yul\":26564:26593   */\n      mstore\n        /* \"#utility.yul\":26485:26600   */\n      pop\n      jump\t// out\n        /* \"#utility.yul\":26606:26783   */\n    tag_585:\n        /* \"#utility.yul\":26746:26775   */\n      0x536166654d6174683a206164646974696f6e206f766572666c6f770000000000\n        /* \"#utility.yul\":26742:26743   */\n      0x00\n        /* \"#utility.yul\":26734:26740   */\n      dup3\n        /* \"#utility.yul\":26730:26744   */\n      add\n        /* \"#utility.yul\":26723:26776   */\n      mstore\n        /* \"#utility.yul\":26712:26783   */\n      pop\n      jump\t// out\n        /* \"#utility.yul\":26789:27009   */\n    tag_590:\n        /* \"#utility.yul\":26929:26963   */\n      0x536166654d6174683a206d756c7469706c69636174696f6e206f766572666c6f\n        /* \"#utility.yul\":26925:26926   */\n      0x00\n        /* \"#utility.yul\":26917:26923   */\n      dup3\n        /* \"#utility.yul\":26913:26927   */\n      add\n        /* \"#utility.yul\":26906:26964   */\n      mstore\n        /* \"#utility.yul\":26998:27001   */\n      0x7700000000000000000000000000000000000000000000000000000000000000\n        /* \"#utility.yul\":26993:26995   */\n      0x20\n        /* \"#utility.yul\":26985:26991   */\n      dup3\n        /* \"#utility.yul\":26981:26996   */\n      add\n        /* \"#utility.yul\":26974:27002   */\n      mstore\n        /* \"#utility.yul\":26895:27009   */\n      pop\n      jump\t// out\n        /* \"#utility.yul\":27015:27186   */\n    tag_595:\n        /* \"#utility.yul\":27155:27178   */\n      0x43616c6c6572206973206e6f7420746865206465760000000000000000000000\n        /* \"#utility.yul\":27151:27152   */\n      0x00\n        /* \"#utility.yul\":27143:27149   */\n      dup3\n        /* \"#utility.yul\":27139:27153   */\n      add\n        /* \"#utility.yul\":27132:27179   */\n      mstore\n        /* \"#utility.yul\":27121:27186   */\n      pop\n      jump\t// out\n        /* \"#utility.yul\":27192:27420   */\n    tag_600:\n        /* \"#utility.yul\":27332:27366   */\n      0x5472616e7366657220616d6f756e74206d757374206265206772656174657220\n        /* \"#utility.yul\":27328:27329   */\n      0x00\n        /* \"#utility.yul\":27320:27326   */\n      dup3\n        /* \"#utility.yul\":27316:27330   */\n      add\n        /* \"#utility.yul\":27309:27367   */\n      mstore\n        /* \"#utility.yul\":27401:27412   */\n      0x7468616e207a65726f0000000000000000000000000000000000000000000000\n        /* \"#utility.yul\":27396:27398   */\n      0x20\n        /* \"#utility.yul\":27388:27394   */\n      dup3\n        /* \"#utility.yul\":27384:27399   */\n      add\n        /* \"#utility.yul\":27377:27413   */\n      mstore\n        /* \"#utility.yul\":27298:27420   */\n      pop\n      jump\t// out\n        /* \"#utility.yul\":27426:27588   */\n    tag_605:\n        /* \"#utility.yul\":27566:27580   */\n      0x4163746976656420706169720000000000000000000000000000000000000000\n        /* \"#utility.yul\":27562:27563   */\n      0x00\n        /* \"#utility.yul\":27554:27560   */\n      dup3\n        /* \"#utility.yul\":27550:27564   */\n      add\n        /* \"#utility.yul\":27543:27581   */\n      mstore\n        /* \"#utility.yul\":27532:27588   */\n      pop\n      jump\t// out\n        /* \"#utility.yul\":27594:27818   */\n    tag_610:\n        /* \"#utility.yul\":27734:27768   */\n      0x45524332303a207472616e736665722066726f6d20746865207a65726f206164\n        /* \"#utility.yul\":27730:27731   */\n      0x00\n        /* \"#utility.yul\":27722:27728   */\n      dup3\n        /* \"#utility.yul\":27718:27732   */\n      add\n        /* \"#utility.yul\":27711:27769   */\n      mstore\n        /* \"#utility.yul\":27803:27810   */\n      0x6472657373000000000000000000000000000000000000000000000000000000\n        /* \"#utility.yul\":27798:27800   */\n      0x20\n        /* \"#utility.yul\":27790:27796   */\n      dup3\n        /* \"#utility.yul\":27786:27801   */\n      add\n        /* \"#utility.yul\":27779:27811   */\n      mstore\n        /* \"#utility.yul\":27700:27818   */\n      pop\n      jump\t// out\n        /* \"#utility.yul\":27824:28000   */\n    tag_615:\n        /* \"#utility.yul\":27964:27992   */\n      0x5461782063616e6e6f74206265206d6f7265207468616e20362e000000000000\n        /* \"#utility.yul\":27960:27961   */\n      0x00\n        /* \"#utility.yul\":27952:27958   */\n      dup3\n        /* \"#utility.yul\":27948:27962   */\n      add\n        /* \"#utility.yul\":27941:27993   */\n      mstore\n        /* \"#utility.yul\":27930:28000   */\n      pop\n      jump\t// out\n        /* \"#utility.yul\":28006:28229   */\n    tag_620:\n        /* \"#utility.yul\":28146:28180   */\n      0x45524332303a20617070726f76652066726f6d20746865207a65726f20616464\n        /* \"#utility.yul\":28142:28143   */\n      0x00\n        /* \"#utility.yul\":28134:28140   */\n      dup3\n        /* \"#utility.yul\":28130:28144   */\n      add\n        /* \"#utility.yul\":28123:28181   */\n      mstore\n        /* \"#utility.yul\":28215:28221   */\n      0x7265737300000000000000000000000000000000000000000000000000000000\n        /* \"#utility.yul\":28210:28212   */\n      0x20\n        /* \"#utility.yul\":28202:28208   */\n      dup3\n        /* \"#utility.yul\":28198:28213   */\n      add\n        /* \"#utility.yul\":28191:28222   */\n      mstore\n        /* \"#utility.yul\":28112:28229   */\n      pop\n      jump\t// out\n        /* \"#utility.yul\":28235:28414   */\n    tag_625:\n        /* \"#utility.yul\":28375:28406   */\n      0x52656469732063616e6e6f74206265206d6f7265207468616e2031302e000000\n        /* \"#utility.yul\":28371:28372   */\n      0x00\n        /* \"#utility.yul\":28363:28369   */\n      dup3\n        /* \"#utility.yul\":28359:28373   */\n      add\n        /* \"#utility.yul\":28352:28407   */\n      mstore\n        /* \"#utility.yul\":28341:28414   */\n      pop\n      jump\t// out\n        /* \"#utility.yul\":28420:28542   */\n    tag_448:\n        /* \"#utility.yul\":28493:28517   */\n      tag_762\n        /* \"#utility.yul\":28511:28516   */\n      dup2\n        /* \"#utility.yul\":28493:28517   */\n      tag_517\n      jump\t// in\n    tag_762:\n        /* \"#utility.yul\":28486:28491   */\n      dup2\n        /* \"#utility.yul\":28483:28518   */\n      eq\n        /* \"#utility.yul\":28473:28475   */\n      tag_763\n      jumpi\n        /* \"#utility.yul\":28532:28533   */\n      0x00\n        /* \"#utility.yul\":28529:28530   */\n      dup1\n        /* \"#utility.yul\":28522:28534   */\n      revert\n        /* \"#utility.yul\":28473:28475   */\n    tag_763:\n        /* \"#utility.yul\":28463:28542   */\n      pop\n      jump\t// out\n        /* \"#utility.yul\":28548:28686   */\n    tag_455:\n        /* \"#utility.yul\":28629:28661   */\n      tag_765\n        /* \"#utility.yul\":28655:28660   */\n      dup2\n        /* \"#utility.yul\":28629:28661   */\n      tag_717\n      jump\t// in\n    tag_765:\n        /* \"#utility.yul\":28622:28627   */\n      dup2\n        /* \"#utility.yul\":28619:28662   */\n      eq\n        /* \"#utility.yul\":28609:28611   */\n      tag_766\n      jumpi\n        /* \"#utility.yul\":28676:28677   */\n      0x00\n        /* \"#utility.yul\":28673:28674   */\n      dup1\n        /* \"#utility.yul\":28666:28678   */\n      revert\n        /* \"#utility.yul\":28609:28611   */\n    tag_766:\n        /* \"#utility.yul\":28599:28686   */\n      pop\n      jump\t// out\n        /* \"#utility.yul\":28692:28808   */\n    tag_464:\n        /* \"#utility.yul\":28762:28783   */\n      tag_768\n        /* \"#utility.yul\":28777:28782   */\n      dup2\n        /* \"#utility.yul\":28762:28783   */\n      tag_538\n      jump\t// in\n    tag_768:\n        /* \"#utility.yul\":28755:28760   */\n      dup2\n        /* \"#utility.yul\":28752:28784   */\n      eq\n        /* \"#utility.yul\":28742:28744   */\n      tag_769\n      jumpi\n        /* \"#utility.yul\":28798:28799   */\n      0x00\n        /* \"#utility.yul\":28795:28796   */\n      dup1\n        /* \"#utility.yul\":28788:28800   */\n      revert\n        /* \"#utility.yul\":28742:28744   */\n    tag_769:\n        /* \"#utility.yul\":28732:28808   */\n      pop\n      jump\t// out\n        /* \"#utility.yul\":28814:28936   */\n    tag_471:\n        /* \"#utility.yul\":28887:28911   */\n      tag_771\n        /* \"#utility.yul\":28905:28910   */\n      dup2\n        /* \"#utility.yul\":28887:28911   */\n      tag_629\n      jump\t// in\n    tag_771:\n        /* \"#utility.yul\":28880:28885   */\n      dup2\n        /* \"#utility.yul\":28877:28912   */\n      eq\n        /* \"#utility.yul\":28867:28869   */\n      tag_772\n      jumpi\n        /* \"#utility.yul\":28926:28927   */\n      0x00\n        /* \"#utility.yul\":28923:28924   */\n      dup1\n        /* \"#utility.yul\":28916:28928   */\n      revert\n        /* \"#utility.yul\":28867:28869   */\n    tag_772:\n        /* \"#utility.yul\":28857:28936   */\n      pop\n      jump\t// out\n    stop\n    data_974d1b4421da69cc60b481194f0dad36a5bb4e23da810da7a7fb30cdba178330 45524332303a207472616e7366657220616d6f756e74206578636565647320616c6c6f77616e6365\n\n    auxdata: 0xa264697066735822122081a9aca25226d22014ffa82a4879eeddb94f90b7e8ecb88ecfb44d4d22cfb87564736f6c63430008040033\n}\n",
				"bytecode": {
					"linkReferences": {},
					"object": "6080604052670de0b6b3a76400006414f46b04006200001f9190620009e2565b6414f46b040062000031919062000969565b600655600160085560046009556001600a556001600b556000600e60006101000a81548160ff021916908315150217905550738492cbd894686d7e98214541903c7ba6f94928d6600e60016101000a81548173ffffffffffffffffffffffffffffffffffffffff021916908373ffffffffffffffffffffffffffffffffffffffff16021790555073a4ed7aa4ef5deb0a63e97d9cb77445ae553feb1d600f60006101000a81548173ffffffffffffffffffffffffffffffffffffffff021916908373ffffffffffffffffffffffffffffffffffffffff1602179055506000601360146101000a81548160ff0219169083151502179055506001601360156101000a81548160ff0219169083151502179055503480156200015057600080fd5b506000620001636200088960201b60201c565b9050806000806101000a81548173ffffffffffffffffffffffffffffffffffffffff021916908373ffffffffffffffffffffffffffffffffffffffff1602179055508073ffffffffffffffffffffffffffffffffffffffff16600073ffffffffffffffffffffffffffffffffffffffff167f8be0079c531659141344cd1fd0a4f28419497f9722a3daafe3b4186f6b6457e060405160405180910390a35060065460026000620002186200088960201b60201c565b73ffffffffffffffffffffffffffffffffffffffff1673ffffffffffffffffffffffffffffffffffffffff1681526020019081526020016000208190555060007310ed43c718714eb63d5aa57b78b54704e256024e905080601060006101000a81548173ffffffffffffffffffffffffffffffffffffffff021916908373ffffffffffffffffffffffffffffffffffffffff16021790555073ca143ce32fe78f1f7019d7d551a6402fc5350c73601160006101000a81548173ffffffffffffffffffffffffffffffffffffffff021916908373ffffffffffffffffffffffffffffffffffffffff160217905550601160009054906101000a900473ffffffffffffffffffffffffffffffffffffffff1673ffffffffffffffffffffffffffffffffffffffff1663c9c65396308373ffffffffffffffffffffffffffffffffffffffff1663ad5c46486040518163ffffffff1660e01b815260040160206040518083038186803b1580156200038b57600080fd5b505afa158015620003a0573d6000803e3d6000fd5b505050506040513d601f19601f82011682018060405250810190620003c69190620008d1565b6040518363ffffffff1660e01b8152600401620003e59291906200091f565b602060405180830381600087803b1580156200040057600080fd5b505af115801562000415573d6000803e3d6000fd5b505050506040513d601f19601f820116820180604052508101906200043b9190620008d1565b601360006101000a81548173ffffffffffffffffffffffffffffffffffffffff021916908373ffffffffffffffffffffffffffffffffffffffff1602179055508073ffffffffffffffffffffffffffffffffffffffff1663c45a01556040518163ffffffff1660e01b815260040160206040518083038186803b158015620004c257600080fd5b505afa158015620004d7573d6000803e3d6000fd5b505050506040513d601f19601f82011682018060405250810190620004fd9190620008d1565b73ffffffffffffffffffffffffffffffffffffffff1663c9c65396308373ffffffffffffffffffffffffffffffffffffffff1663ad5c46486040518163ffffffff1660e01b815260040160206040518083038186803b1580156200056057600080fd5b505afa15801562000575573d6000803e3d6000fd5b505050506040513d601f19601f820116820180604052508101906200059b9190620008d1565b6040518363ffffffff1660e01b8152600401620005ba9291906200091f565b602060405180830381600087803b158015620005d557600080fd5b505af1158015620005ea573d6000803e3d6000fd5b505050506040513d601f19601f82011682018060405250810190620006109190620008d1565b601360006101000a81548173ffffffffffffffffffffffffffffffffffffffff021916908373ffffffffffffffffffffffffffffffffffffffff160217905550600160056000620006666200089160201b60201c565b73ffffffffffffffffffffffffffffffffffffffff1673ffffffffffffffffffffffffffffffffffffffff16815260200190815260200160002060006101000a81548160ff0219169083151502179055506001600560003073ffffffffffffffffffffffffffffffffffffffff1673ffffffffffffffffffffffffffffffffffffffff16815260200190815260200160002060006101000a81548160ff021916908315150217905550600160056000600e60019054906101000a900473ffffffffffffffffffffffffffffffffffffffff1673ffffffffffffffffffffffffffffffffffffffff1673ffffffffffffffffffffffffffffffffffffffff16815260200190815260200160002060006101000a81548160ff021916908315150217905550600160056000600f60009054906101000a900473ffffffffffffffffffffffffffffffffffffffff1673ffffffffffffffffffffffffffffffffffffffff1673ffffffffffffffffffffffffffffffffffffffff16815260200190815260200160002060006101000a81548160ff021916908315150217905550620008136200088960201b60201c565b73ffffffffffffffffffffffffffffffffffffffff16600073ffffffffffffffffffffffffffffffffffffffff167fddf252ad1be2c89b69c2b068fc378daa952ba7f163c4a11628f55a4df523b3ef670de0b6b3a76400006040516200087a91906200094c565b60405180910390a35062000a92565b600033905090565b60008060009054906101000a900473ffffffffffffffffffffffffffffffffffffffff16905090565b600081519050620008cb8162000a78565b92915050565b600060208284031215620008e457600080fd5b6000620008f484828501620008ba565b91505092915050565b6200090881620009a4565b82525050565b6200091981620009d8565b82525050565b6000604082019050620009366000830185620008fd565b620009456020830184620008fd565b9392505050565b60006020820190506200096360008301846200090e565b92915050565b60006200097682620009d8565b91506200098383620009d8565b92508282101562000999576200099862000a1a565b5b828203905092915050565b6000620009b182620009b8565b9050919050565b600073ffffffffffffffffffffffffffffffffffffffff82169050919050565b6000819050919050565b6000620009ef82620009d8565b9150620009fc83620009d8565b92508262000a0f5762000a0e62000a49565b5b828206905092915050565b7f4e487b7100000000000000000000000000000000000000000000000000000000600052601160045260246000fd5b7f4e487b7100000000000000000000000000000000000000000000000000000000600052601260045260246000fd5b62000a8381620009a4565b811462000a8f57600080fd5b50565b613cea8062000aa26000396000f3fe60806040526004361061016a5760003560e01c8063758dbe03116100d1578063c3c8cd801161008a578063ce4224c511610064578063ce4224c5146104ff578063dd62ed3e14610528578063e293d31614610565578063f2fde38b1461058e57610171565b8063c3c8cd8014610494578063c492f046146104ab578063c5cc6b6a146104d457610171565b8063758dbe03146103865780638da5cb5b146103af57806395d89b41146103da578063a2a957bb14610405578063a9059cbb1461042e578063aad5c0231461046b57610171565b806349bd5a5e1161012357806349bd5a5e1461029c57806359d0f713146102c75780636d8aa8f8146102f25780636fc3eaec1461031b57806370a0823114610332578063715018a61461036f57610171565b806306fdde0314610176578063095ea7b3146101a15780631694505e146101de57806318160ddd1461020957806323b872dd14610234578063313ce5671461027157610171565b3661017157005b600080fd5b34801561018257600080fd5b5061018b6105b7565b60405161019891906133a9565b60405180910390f35b3480156101ad57600080fd5b506101c860048036038101906101c39190612eb4565b6105f4565b6040516101d59190613358565b60405180910390f35b3480156101ea57600080fd5b506101f3610612565b604051610200919061338e565b60405180910390f35b34801561021557600080fd5b5061021e610638565b60405161022b919061356b565b60405180910390f35b34801561024057600080fd5b5061025b60048036038101906102569190612e65565b610648565b6040516102689190613358565b60405180910390f35b34801561027d57600080fd5b50610286610721565b60405161029391906135e0565b60405180910390f35b3480156102a857600080fd5b506102b161072a565b6040516102be91906132eb565b60405180910390f35b3480156102d357600080fd5b506102dc610750565b6040516102e99190613373565b60405180910390f35b3480156102fe57600080fd5b5061031960048036038101906103149190612f48565b610776565b005b34801561032757600080fd5b5061033061086e565b005b34801561033e57600080fd5b5061035960048036038101906103549190612dae565b610983565b604051610366919061356b565b60405180910390f35b34801561037b57600080fd5b506103846109d4565b005b34801561039257600080fd5b506103ad60048036038101906103a89190612e00565b610b27565b005b3480156103bb57600080fd5b506103c4610d3c565b6040516103d191906132eb565b60405180910390f35b3480156103e657600080fd5b506103ef610d65565b6040516103fc91906133a9565b60405180910390f35b34801561041157600080fd5b5061042c60048036038101906104279190612f9a565b610da2565b005b34801561043a57600080fd5b5061045560048036038101906104509190612eb4565b610fab565b6040516104629190613358565b60405180910390f35b34801561047757600080fd5b50610492600480360381019061048d9190612e00565b610fc9565b005b3480156104a057600080fd5b506104a96111de565b005b3480156104b757600080fd5b506104d260048036038101906104cd9190612ef0565b6112fb565b005b3480156104e057600080fd5b506104e961145b565b6040516104f691906132eb565b60405180910390f35b34801561050b57600080fd5b5061052660048036038101906105219190612dae565b611481565b005b34801561053457600080fd5b5061054f600480360381019061054a9190612e29565b611679565b60405161055c919061356b565b60405180910390f35b34801561057157600080fd5b5061058c60048036038101906105879190612e65565b611700565b005b34801561059a57600080fd5b506105b560048036038101906105b09190612dae565b6118d3565b005b60606040518060400160405280600a81526020017f576f726c64205374657000000000000000000000000000000000000000000000815250905090565b6000610608610601611a25565b8484611a2d565b6001905092915050565b601060009054906101000a900473ffffffffffffffffffffffffffffffffffffffff1681565b6000670de0b6b3a7640000905090565b6000610655848484611bf8565b61071684610661611a25565b61071185604051806060016040528060288152602001613c8d60289139600460008b73ffffffffffffffffffffffffffffffffffffffff1673ffffffffffffffffffffffffffffffffffffffff16815260200190815260200160002060006106c7611a25565b73ffffffffffffffffffffffffffffffffffffffff1673ffffffffffffffffffffffffffffffffffffffff1681526020019081526020016000205461216c9092919063ffffffff16565b611a2d565b600190509392505050565b60006009905090565b601360009054906101000a900473ffffffffffffffffffffffffffffffffffffffff1681565b601160009054906101000a900473ffffffffffffffffffffffffffffffffffffffff1681565b61077e611a25565b73ffffffffffffffffffffffffffffffffffffffff1661079c610d3c565b73ffffffffffffffffffffffffffffffffffffffff16148061081257506107c1611a25565b73ffffffffffffffffffffffffffffffffffffffff16600e60019054906101000a900473ffffffffffffffffffffffffffffffffffffffff1673ffffffffffffffffffffffffffffffffffffffff16145b610851576040517f08c379a00000000000000000000000000000000000000000000000000000000081526004016108489061348b565b60405180910390fd5b80601360156101000a81548160ff02191690831515021790555050565b600e60019054906101000a900473ffffffffffffffffffffffffffffffffffffffff1673ffffffffffffffffffffffffffffffffffffffff166108af611a25565b73ffffffffffffffffffffffffffffffffffffffff1614806109255750600f60009054906101000a900473ffffffffffffffffffffffffffffffffffffffff1673ffffffffffffffffffffffffffffffffffffffff1661090d611a25565b73ffffffffffffffffffffffffffffffffffffffff16145b806109695750610933610d3c565b73ffffffffffffffffffffffffffffffffffffffff16610951611a25565b73ffffffffffffffffffffffffffffffffffffffff16145b61097257600080fd5b6000479050610980816121d0565b50565b60006109cd600260008473ffffffffffffffffffffffffffffffffffffffff1673ffffffffffffffffffffffffffffffffffffffff168152602001908152602001600020546122cb565b9050919050565b6109dc611a25565b73ffffffffffffffffffffffffffffffffffffffff1660008054906101000a900473ffffffffffffffffffffffffffffffffffffffff1673ffffffffffffffffffffffffffffffffffffffff1614610a69576040517f08c379a0000000000000000000000000000000000000000000000000000000008152600401610a60906133eb565b60405180910390fd5b600073ffffffffffffffffffffffffffffffffffffffff1660008054906101000a900473ffffffffffffffffffffffffffffffffffffffff1673ffffffffffffffffffffffffffffffffffffffff167f8be0079c531659141344cd1fd0a4f28419497f9722a3daafe3b4186f6b6457e060405160405180910390a360008060006101000a81548173ffffffffffffffffffffffffffffffffffffffff021916908373ffffffffffffffffffffffffffffffffffffffff160217905550565b610b2f611a25565b73ffffffffffffffffffffffffffffffffffffffff16610b4d610d3c565b73ffffffffffffffffffffffffffffffffffffffff161480610bc35750610b72611a25565b73ffffffffffffffffffffffffffffffffffffffff16600e60019054906101000a900473ffffffffffffffffffffffffffffffffffffffff1673ffffffffffffffffffffffffffffffffffffffff16145b610c02576040517f08c379a0000000000000000000000000000000000000000000000000000000008152600401610bf99061348b565b60405180910390fd5b8073ffffffffffffffffffffffffffffffffffffffff16600f60009054906101000a900473ffffffffffffffffffffffffffffffffffffffff1673ffffffffffffffffffffffffffffffffffffffff167fa64373a629bc0c09eacf8a9cc2c7b070fa0a8b7e2e9b8aaee408a3c02eb1676b60405160405180910390a380600f60006101000a81548173ffffffffffffffffffffffffffffffffffffffff021916908373ffffffffffffffffffffffffffffffffffffffff160217905550600160056000600f60009054906101000a900473ffffffffffffffffffffffffffffffffffffffff1673ffffffffffffffffffffffffffffffffffffffff1673ffffffffffffffffffffffffffffffffffffffff16815260200190815260200160002060006101000a81548160ff02191690831515021790555050565b60008060009054906101000a900473ffffffffffffffffffffffffffffffffffffffff16905090565b60606040518060400160405280600381526020017f5753500000000000000000000000000000000000000000000000000000000000815250905090565b610daa611a25565b73ffffffffffffffffffffffffffffffffffffffff16610dc8610d3c565b73ffffffffffffffffffffffffffffffffffffffff161480610e3e5750610ded611a25565b73ffffffffffffffffffffffffffffffffffffffff16600e60019054906101000a900473ffffffffffffffffffffffffffffffffffffffff1673ffffffffffffffffffffffffffffffffffffffff16145b610e7d576040517f08c379a0000000000000000000000000000000000000000000000000000000008152600401610e749061348b565b60405180910390fd5b600b8410610ec0576040517f08c379a0000000000000000000000000000000000000000000000000000000008152600401610eb79061354b565b60405180910390fd5b600b8310610f03576040517f08c379a0000000000000000000000000000000000000000000000000000000008152600401610efa9061354b565b60405180910390fd5b60078210610f46576040517f08c379a0000000000000000000000000000000000000000000000000000000008152600401610f3d9061350b565b60405180910390fd5b60078110610f89576040517f08c379a0000000000000000000000000000000000000000000000000000000008152600401610f809061350b565b60405180910390fd5b8360088190555082600a819055508160098190555080600b8190555050505050565b6000610fbf610fb8611a25565b8484611bf8565b6001905092915050565b610fd1611a25565b73ffffffffffffffffffffffffffffffffffffffff16610fef610d3c565b73ffffffffffffffffffffffffffffffffffffffff1614806110655750611014611a25565b73ffffffffffffffffffffffffffffffffffffffff16600e60019054906101000a900473ffffffffffffffffffffffffffffffffffffffff1673ffffffffffffffffffffffffffffffffffffffff16145b6110a4576040517f08c379a000000000000000000000000000000000000000000000000000000000815260040161109b9061348b565b60405180910390fd5b8073ffffffffffffffffffffffffffffffffffffffff16600e60019054906101000a900473ffffffffffffffffffffffffffffffffffffffff1673ffffffffffffffffffffffffffffffffffffffff167ffbbc329437e8c79f847e170730ad6dd04106b7511cad70d06d635886d92de83c60405160405180910390a380600e60016101000a81548173ffffffffffffffffffffffffffffffffffffffff021916908373ffffffffffffffffffffffffffffffffffffffff160217905550600160056000600e60019054906101000a900473ffffffffffffffffffffffffffffffffffffffff1673ffffffffffffffffffffffffffffffffffffffff1673ffffffffffffffffffffffffffffffffffffffff16815260200190815260200160002060006101000a81548160ff02191690831515021790555050565b600e60019054906101000a900473ffffffffffffffffffffffffffffffffffffffff1673ffffffffffffffffffffffffffffffffffffffff1661121f611a25565b73ffffffffffffffffffffffffffffffffffffffff1614806112955750600f60009054906101000a900473ffffffffffffffffffffffffffffffffffffffff1673ffffffffffffffffffffffffffffffffffffffff1661127d611a25565b73ffffffffffffffffffffffffffffffffffffffff16145b806112d957506112a3610d3c565b73ffffffffffffffffffffffffffffffffffffffff166112c1611a25565b73ffffffffffffffffffffffffffffffffffffffff16145b6112e257600080fd5b60006112ed30610983565b90506112f881612339565b50565b611303611a25565b73ffffffffffffffffffffffffffffffffffffffff1660008054906101000a900473ffffffffffffffffffffffffffffffffffffffff1673ffffffffffffffffffffffffffffffffffffffff1614611390576040517f08c379a0000000000000000000000000000000000000000000000000000000008152600401611387906133eb565b60405180910390fd5b60005b838390508110156114555781600560008686858181106113dc577f4e487b7100000000000000000000000000000000000000000000000000000000600052603260045260246000fd5b90506020020160208101906113f19190612dae565b73ffffffffffffffffffffffffffffffffffffffff1673ffffffffffffffffffffffffffffffffffffffff16815260200190815260200160002060006101000a81548160ff021916908315150217905550808061144d90613859565b915050611393565b50505050565b601260009054906101000a900473ffffffffffffffffffffffffffffffffffffffff1681565b611489611a25565b73ffffffffffffffffffffffffffffffffffffffff1660008054906101000a900473ffffffffffffffffffffffffffffffffffffffff1673ffffffffffffffffffffffffffffffffffffffff1614611516576040517f08c379a000000000000000000000000000000000000000000000000000000000815260040161150d906133eb565b60405180910390fd5b60001515600e60009054906101000a900460ff1615151461156c576040517f08c379a0000000000000000000000000000000000000000000000000000000008152600401611563906134cb565b60405180910390fd5b601160009054906101000a900473ffffffffffffffffffffffffffffffffffffffff1673ffffffffffffffffffffffffffffffffffffffff1663c9c6539630836040518363ffffffff1660e01b81526004016115c9929190613306565b602060405180830381600087803b1580156115e357600080fd5b505af11580156115f7573d6000803e3d6000fd5b505050506040513d601f19601f8201168201806040525081019061161b9190612dd7565b601360006101000a81548173ffffffffffffffffffffffffffffffffffffffff021916908373ffffffffffffffffffffffffffffffffffffffff1602179055506001600e60006101000a81548160ff02191690831515021790555050565b6000600460008473ffffffffffffffffffffffffffffffffffffffff1673ffffffffffffffffffffffffffffffffffffffff16815260200190815260200160002060008373ffffffffffffffffffffffffffffffffffffffff1673ffffffffffffffffffffffffffffffffffffffff16815260200190815260200160002054905092915050565b611708611a25565b73ffffffffffffffffffffffffffffffffffffffff16611726610d3c565b73ffffffffffffffffffffffffffffffffffffffff16148061179c575061174b611a25565b73ffffffffffffffffffffffffffffffffffffffff16600e60019054906101000a900473ffffffffffffffffffffffffffffffffffffffff1673ffffffffffffffffffffffffffffffffffffffff16145b6117db576040517f08c379a00000000000000000000000000000000000000000000000000000000081526004016117d29061348b565b60405180910390fd5b8173ffffffffffffffffffffffffffffffffffffffff168373ffffffffffffffffffffffffffffffffffffffff167f47c33aa230eb5fd181505aa7befeaddd9b8a6f983989cea73a7868448c3a9ed983604051611838919061356b565b60405180910390a38273ffffffffffffffffffffffffffffffffffffffff1663a9059cbb83836040518363ffffffff1660e01b815260040161187b92919061332f565b602060405180830381600087803b15801561189557600080fd5b505af11580156118a9573d6000803e3d6000fd5b505050506040513d601f19601f820116820180604052508101906118cd9190612f71565b50505050565b6118db611a25565b73ffffffffffffffffffffffffffffffffffffffff1660008054906101000a900473ffffffffffffffffffffffffffffffffffffffff1673ffffffffffffffffffffffffffffffffffffffff1614611968576040517f08c379a000000000000000000000000000000000000000000000000000000000815260040161195f906133eb565b60405180910390fd5b8073ffffffffffffffffffffffffffffffffffffffff1660008054906101000a900473ffffffffffffffffffffffffffffffffffffffff1673ffffffffffffffffffffffffffffffffffffffff167f8be0079c531659141344cd1fd0a4f28419497f9722a3daafe3b4186f6b6457e060405160405180910390a3806000806101000a81548173ffffffffffffffffffffffffffffffffffffffff021916908373ffffffffffffffffffffffffffffffffffffffff16021790555050565b600033905090565b600073ffffffffffffffffffffffffffffffffffffffff168373ffffffffffffffffffffffffffffffffffffffff161415611a9d576040517f08c379a0000000000000000000000000000000000000000000000000000000008152600401611a949061352b565b60405180910390fd5b600073ffffffffffffffffffffffffffffffffffffffff168273ffffffffffffffffffffffffffffffffffffffff161415611b0d576040517f08c379a0000000000000000000000000000000000000000000000000000000008152600401611b049061342b565b60405180910390fd5b80600460008573ffffffffffffffffffffffffffffffffffffffff1673ffffffffffffffffffffffffffffffffffffffff16815260200190815260200160002060008473ffffffffffffffffffffffffffffffffffffffff1673ffffffffffffffffffffffffffffffffffffffff168152602001908152602001600020819055508173ffffffffffffffffffffffffffffffffffffffff168373ffffffffffffffffffffffffffffffffffffffff167f8c5be1e5ebec7d5bd14f71427d1e84f3dd0314c0f7b2291e5b200ac8c7c3b92583604051611beb919061356b565b60405180910390a3505050565b600073ffffffffffffffffffffffffffffffffffffffff168373ffffffffffffffffffffffffffffffffffffffff161415611c68576040517f08c379a0000000000000000000000000000000000000000000000000000000008152600401611c5f906134eb565b60405180910390fd5b600073ffffffffffffffffffffffffffffffffffffffff168273ffffffffffffffffffffffffffffffffffffffff161415611cd8576040517f08c379a0000000000000000000000000000000000000000000000000000000008152600401611ccf906133cb565b60405180910390fd5b60008111611d1b576040517f08c379a0000000000000000000000000000000000000000000000000000000008152600401611d12906134ab565b60405180910390fd5b6000600c819055506000600d81905550611d33610d3c565b73ffffffffffffffffffffffffffffffffffffffff168373ffffffffffffffffffffffffffffffffffffffff1614158015611da15750611d71610d3c565b73ffffffffffffffffffffffffffffffffffffffff168273ffffffffffffffffffffffffffffffffffffffff1614155b1561215c576000611db130610983565b9050601360149054906101000a900460ff16158015611e1e5750601360009054906101000a900473ffffffffffffffffffffffffffffffffffffffff1673ffffffffffffffffffffffffffffffffffffffff168473ffffffffffffffffffffffffffffffffffffffff1614155b8015611e365750601360159054906101000a900460ff165b8015611e425750600081115b15611e6a57611e5081612339565b60004790506000811115611e6857611e67476121d0565b5b505b601360009054906101000a900473ffffffffffffffffffffffffffffffffffffffff1673ffffffffffffffffffffffffffffffffffffffff168473ffffffffffffffffffffffffffffffffffffffff16148015611f155750601060009054906101000a900473ffffffffffffffffffffffffffffffffffffffff1673ffffffffffffffffffffffffffffffffffffffff168373ffffffffffffffffffffffffffffffffffffffff1614155b15611f2d57600854600c81905550600954600d819055505b601360009054906101000a900473ffffffffffffffffffffffffffffffffffffffff1673ffffffffffffffffffffffffffffffffffffffff168373ffffffffffffffffffffffffffffffffffffffff16148015611fd85750601060009054906101000a900473ffffffffffffffffffffffffffffffffffffffff1673ffffffffffffffffffffffffffffffffffffffff168473ffffffffffffffffffffffffffffffffffffffff1614155b15611ff057600a54600c81905550600b54600d819055505b600560008573ffffffffffffffffffffffffffffffffffffffff1673ffffffffffffffffffffffffffffffffffffffff16815260200190815260200160002060009054906101000a900460ff16806120915750600560008473ffffffffffffffffffffffffffffffffffffffff1673ffffffffffffffffffffffffffffffffffffffff16815260200190815260200160002060009054906101000a900460ff165b806121445750601360009054906101000a900473ffffffffffffffffffffffffffffffffffffffff1673ffffffffffffffffffffffffffffffffffffffff168473ffffffffffffffffffffffffffffffffffffffff16141580156121435750601360009054906101000a900473ffffffffffffffffffffffffffffffffffffffff1673ffffffffffffffffffffffffffffffffffffffff168373ffffffffffffffffffffffffffffffffffffffff1614155b5b1561215a576000600c819055506000600d819055505b505b612167838383612633565b505050565b60008383111582906121b4576040517f08c379a00000000000000000000000000000000000000000000000000000000081526004016121ab91906133a9565b60405180910390fd5b50600083856121c39190613731565b9050809150509392505050565b600e60019054906101000a900473ffffffffffffffffffffffffffffffffffffffff1673ffffffffffffffffffffffffffffffffffffffff166108fc61222060028461264390919063ffffffff16565b9081150290604051600060405180830381858888f1935050505015801561224b573d6000803e3d6000fd5b50600f60009054906101000a900473ffffffffffffffffffffffffffffffffffffffff1673ffffffffffffffffffffffffffffffffffffffff166108fc61229c60028461264390919063ffffffff16565b9081150290604051600060405180830381858888f193505050501580156122c7573d6000803e3d6000fd5b5050565b6000600654821115612312576040517f08c379a00000000000000000000000000000000000000000000000000000000081526004016123099061340b565b60405180910390fd5b600061231c61268d565b9050612331818461264390919063ffffffff16565b915050919050565b6001601360146101000a81548160ff0219169083151502179055506000600267ffffffffffffffff811115612397577f4e487b7100000000000000000000000000000000000000000000000000000000600052604160045260246000fd5b6040519080825280602002602001820160405280156123c55781602001602082028036833780820191505090505b5090503081600081518110612403577f4e487b7100000000000000000000000000000000000000000000000000000000600052603260045260246000fd5b602002602001019073ffffffffffffffffffffffffffffffffffffffff16908173ffffffffffffffffffffffffffffffffffffffff1681525050601060009054906101000a900473ffffffffffffffffffffffffffffffffffffffff1673ffffffffffffffffffffffffffffffffffffffff1663ad5c46486040518163ffffffff1660e01b815260040160206040518083038186803b1580156124a557600080fd5b505afa1580156124b9573d6000803e3d6000fd5b505050506040513d601f19601f820116820180604052508101906124dd9190612dd7565b81600181518110612517577f4e487b7100000000000000000000000000000000000000000000000000000000600052603260045260246000fd5b602002602001019073ffffffffffffffffffffffffffffffffffffffff16908173ffffffffffffffffffffffffffffffffffffffff168152505061257e30601060009054906101000a900473ffffffffffffffffffffffffffffffffffffffff1684611a2d565b601060009054906101000a900473ffffffffffffffffffffffffffffffffffffffff1673ffffffffffffffffffffffffffffffffffffffff1663791ac9478360008430426040518663ffffffff1660e01b81526004016125e2959493929190613586565b600060405180830381600087803b1580156125fc57600080fd5b505af1158015612610573d6000803e3d6000fd5b50505050506000601360146101000a81548160ff02191690831515021790555050565b61263e8383836126b8565b505050565b600061268583836040518060400160405280601a81526020017f536166654d6174683a206469766973696f6e206279207a65726f000000000000815250612883565b905092915050565b600080600061269a6128e6565b915091506126b1818361264390919063ffffffff16565b9250505090565b6000806000806000806126ca87612945565b95509550955095509550955061272886600260008c73ffffffffffffffffffffffffffffffffffffffff1673ffffffffffffffffffffffffffffffffffffffff168152602001908152602001600020546129ad90919063ffffffff16565b600260008b73ffffffffffffffffffffffffffffffffffffffff1673ffffffffffffffffffffffffffffffffffffffff168152602001908152602001600020819055506127bd85600260008b73ffffffffffffffffffffffffffffffffffffffff1673ffffffffffffffffffffffffffffffffffffffff168152602001908152602001600020546129f790919063ffffffff16565b600260008a73ffffffffffffffffffffffffffffffffffffffff1673ffffffffffffffffffffffffffffffffffffffff1681526020019081526020016000208190555061280981612a55565b6128138483612b12565b8773ffffffffffffffffffffffffffffffffffffffff168973ffffffffffffffffffffffffffffffffffffffff167fddf252ad1be2c89b69c2b068fc378daa952ba7f163c4a11628f55a4df523b3ef85604051612870919061356b565b60405180910390a3505050505050505050565b600080831182906128ca576040517f08c379a00000000000000000000000000000000000000000000000000000000081526004016128c191906133a9565b60405180910390fd5b50600083856128d991906136a6565b9050809150509392505050565b600080600060065490506000670de0b6b3a7640000905061291a670de0b6b3a764000060065461264390919063ffffffff16565b82101561293857600654670de0b6b3a7640000935093505050612941565b81819350935050505b9091565b60008060008060008060008060006129628a600c54600d54612b4c565b925092509250600061297261268d565b905060008060006129858e878787612be2565b9250925092508282828989899c509c509c509c509c509c505050505050505091939550919395565b60006129ef83836040518060400160405280601e81526020017f536166654d6174683a207375627472616374696f6e206f766572666c6f77000081525061216c565b905092915050565b6000808284612a069190613650565b905083811015612a4b576040517f08c379a0000000000000000000000000000000000000000000000000000000008152600401612a429061344b565b60405180910390fd5b8091505092915050565b6000612a5f61268d565b90506000612a768284612c6b90919063ffffffff16565b9050612aca81600260003073ffffffffffffffffffffffffffffffffffffffff1673ffffffffffffffffffffffffffffffffffffffff168152602001908152602001600020546129f790919063ffffffff16565b600260003073ffffffffffffffffffffffffffffffffffffffff1673ffffffffffffffffffffffffffffffffffffffff16815260200190815260200160002081905550505050565b612b27826006546129ad90919063ffffffff16565b600681905550612b42816007546129f790919063ffffffff16565b6007819055505050565b600080600080612b786064612b6a888a612c6b90919063ffffffff16565b61264390919063ffffffff16565b90506000612ba26064612b94888b612c6b90919063ffffffff16565b61264390919063ffffffff16565b90506000612bcb82612bbd858c6129ad90919063ffffffff16565b6129ad90919063ffffffff16565b905080838395509550955050505093509350939050565b600080600080612bfb8589612c6b90919063ffffffff16565b90506000612c128689612c6b90919063ffffffff16565b90506000612c298789612c6b90919063ffffffff16565b90506000612c5282612c4485876129ad90919063ffffffff16565b6129ad90919063ffffffff16565b9050838184965096509650505050509450945094915050565b600080831415612c7e5760009050612ce0565b60008284612c8c91906136d7565b9050828482612c9b91906136a6565b14612cdb576040517f08c379a0000000000000000000000000000000000000000000000000000000008152600401612cd29061346b565b60405180910390fd5b809150505b92915050565b600081359050612cf581613c30565b92915050565b600081519050612d0a81613c30565b92915050565b600081359050612d1f81613c47565b92915050565b60008083601f840112612d3757600080fd5b8235905067ffffffffffffffff811115612d5057600080fd5b602083019150836020820283011115612d6857600080fd5b9250929050565b600081359050612d7e81613c5e565b92915050565b600081519050612d9381613c5e565b92915050565b600081359050612da881613c75565b92915050565b600060208284031215612dc057600080fd5b6000612dce84828501612ce6565b91505092915050565b600060208284031215612de957600080fd5b6000612df784828501612cfb565b91505092915050565b600060208284031215612e1257600080fd5b6000612e2084828501612d10565b91505092915050565b60008060408385031215612e3c57600080fd5b6000612e4a85828601612ce6565b9250506020612e5b85828601612ce6565b9150509250929050565b600080600060608486031215612e7a57600080fd5b6000612e8886828701612ce6565b9350506020612e9986828701612ce6565b9250506040612eaa86828701612d99565b9150509250925092565b60008060408385031215612ec757600080fd5b6000612ed585828601612ce6565b9250506020612ee685828601612d99565b9150509250929050565b600080600060408486031215612f0557600080fd5b600084013567ffffffffffffffff811115612f1f57600080fd5b612f2b86828701612d25565b93509350506020612f3e86828701612d6f565b9150509250925092565b600060208284031215612f5a57600080fd5b6000612f6884828501612d6f565b91505092915050565b600060208284031215612f8357600080fd5b6000612f9184828501612d84565b91505092915050565b60008060008060808587031215612fb057600080fd5b6000612fbe87828801612d99565b9450506020612fcf87828801612d99565b9350506040612fe087828801612d99565b9250506060612ff187828801612d99565b91505092959194509250565b60006130098383613015565b60208301905092915050565b61301e81613765565b82525050565b61302d81613765565b82525050565b600061303e8261360b565b613048818561362e565b9350613053836135fb565b8060005b8381101561308457815161306b8882612ffd565b975061307683613621565b925050600181019050613057565b5085935050505092915050565b61309a81613789565b82525050565b6130a9816137cc565b82525050565b6130b8816137f0565b82525050565b6130c781613814565b82525050565b60006130d882613616565b6130e2818561363f565b93506130f2818560208601613826565b6130fb81613900565b840191505092915050565b600061311360238361363f565b915061311e82613911565b604082019050919050565b600061313660178361363f565b915061314182613960565b602082019050919050565b6000613159602a8361363f565b915061316482613989565b604082019050919050565b600061317c60228361363f565b9150613187826139d8565b604082019050919050565b600061319f601b8361363f565b91506131aa82613a27565b602082019050919050565b60006131c260218361363f565b91506131cd82613a50565b604082019050919050565b60006131e560158361363f565b91506131f082613a9f565b602082019050919050565b600061320860298361363f565b915061321382613ac8565b604082019050919050565b600061322b600c8361363f565b915061323682613b17565b602082019050919050565b600061324e60258361363f565b915061325982613b40565b604082019050919050565b6000613271601a8361363f565b915061327c82613b8f565b602082019050919050565b600061329460248361363f565b915061329f82613bb8565b604082019050919050565b60006132b7601d8361363f565b91506132c282613c07565b602082019050919050565b6132d6816137b5565b82525050565b6132e5816137bf565b82525050565b60006020820190506133006000830184613024565b92915050565b600060408201905061331b6000830185613024565b6133286020830184613024565b9392505050565b60006040820190506133446000830185613024565b61335160208301846132cd565b9392505050565b600060208201905061336d6000830184613091565b92915050565b600060208201905061338860008301846130a0565b92915050565b60006020820190506133a360008301846130af565b92915050565b600060208201905081810360008301526133c381846130cd565b905092915050565b600060208201905081810360008301526133e481613106565b9050919050565b6000602082019050818103600083015261340481613129565b9050919050565b600060208201905081810360008301526134248161314c565b9050919050565b600060208201905081810360008301526134448161316f565b9050919050565b6000602082019050818103600083015261346481613192565b9050919050565b60006020820190508181036000830152613484816131b5565b9050919050565b600060208201905081810360008301526134a4816131d8565b9050919050565b600060208201905081810360008301526134c4816131fb565b9050919050565b600060208201905081810360008301526134e48161321e565b9050919050565b6000602082019050818103600083015261350481613241565b9050919050565b6000602082019050818103600083015261352481613264565b9050919050565b6000602082019050818103600083015261354481613287565b9050919050565b60006020820190508181036000830152613564816132aa565b9050919050565b600060208201905061358060008301846132cd565b92915050565b600060a08201905061359b60008301886132cd565b6135a860208301876130be565b81810360408301526135ba8186613033565b90506135c96060830185613024565b6135d660808301846132cd565b9695505050505050565b60006020820190506135f560008301846132dc565b92915050565b6000819050602082019050919050565b600081519050919050565b600081519050919050565b6000602082019050919050565b600082825260208201905092915050565b600082825260208201905092915050565b600061365b826137b5565b9150613666836137b5565b9250827fffffffffffffffffffffffffffffffffffffffffffffffffffffffffffffffff0382111561369b5761369a6138a2565b5b828201905092915050565b60006136b1826137b5565b91506136bc836137b5565b9250826136cc576136cb6138d1565b5b828204905092915050565b60006136e2826137b5565b91506136ed836137b5565b9250817fffffffffffffffffffffffffffffffffffffffffffffffffffffffffffffffff0483118215151615613726576137256138a2565b5b828202905092915050565b600061373c826137b5565b9150613747836137b5565b92508282101561375a576137596138a2565b5b828203905092915050565b600061377082613795565b9050919050565b600061378282613795565b9050919050565b60008115159050919050565b600073ffffffffffffffffffffffffffffffffffffffff82169050919050565b6000819050919050565b600060ff82169050919050565b60006137d7826137de565b9050919050565b60006137e982613795565b9050919050565b60006137fb82613802565b9050919050565b600061380d82613795565b9050919050565b600061381f826137b5565b9050919050565b60005b83811015613844578082015181840152602081019050613829565b83811115613853576000848401525b50505050565b6000613864826137b5565b91507fffffffffffffffffffffffffffffffffffffffffffffffffffffffffffffffff821415613897576138966138a2565b5b600182019050919050565b7f4e487b7100000000000000000000000000000000000000000000000000000000600052601160045260246000fd5b7f4e487b7100000000000000000000000000000000000000000000000000000000600052601260045260246000fd5b6000601f19601f8301169050919050565b7f45524332303a207472616e7366657220746f20746865207a65726f206164647260008201527f6573730000000000000000000000000000000000000000000000000000000000602082015250565b7f43616c6c6572206973206e6f7420746865206f776e6572000000000000000000600082015250565b7f416d6f756e74206d757374206265206c657373207468616e20746f74616c207260008201527f65666c656374696f6e7300000000000000000000000000000000000000000000602082015250565b7f45524332303a20617070726f766520746f20746865207a65726f20616464726560008201527f7373000000000000000000000000000000000000000000000000000000000000602082015250565b7f536166654d6174683a206164646974696f6e206f766572666c6f770000000000600082015250565b7f536166654d6174683a206d756c7469706c69636174696f6e206f766572666c6f60008201527f7700000000000000000000000000000000000000000000000000000000000000602082015250565b7f43616c6c6572206973206e6f7420746865206465760000000000000000000000600082015250565b7f5472616e7366657220616d6f756e74206d75737420626520677265617465722060008201527f7468616e207a65726f0000000000000000000000000000000000000000000000602082015250565b7f4163746976656420706169720000000000000000000000000000000000000000600082015250565b7f45524332303a207472616e736665722066726f6d20746865207a65726f20616460008201527f6472657373000000000000000000000000000000000000000000000000000000602082015250565b7f5461782063616e6e6f74206265206d6f7265207468616e20362e000000000000600082015250565b7f45524332303a20617070726f76652066726f6d20746865207a65726f2061646460008201527f7265737300000000000000000000000000000000000000000000000000000000602082015250565b7f52656469732063616e6e6f74206265206d6f7265207468616e2031302e000000600082015250565b613c3981613765565b8114613c4457600080fd5b50565b613c5081613777565b8114613c5b57600080fd5b50565b613c6781613789565b8114613c7257600080fd5b50565b613c7e816137b5565b8114613c8957600080fd5b5056fe45524332303a207472616e7366657220616d6f756e74206578636565647320616c6c6f77616e6365a264697066735822122081a9aca25226d22014ffa82a4879eeddb94f90b7e8ecb88ecfb44d4d22cfb87564736f6c63430008040033",
					"opcodes": "PUSH1 0x80 PUSH1 0x40 MSTORE PUSH8 0xDE0B6B3A7640000 PUSH5 0x14F46B0400 PUSH3 0x1F SWAP2 SWAP1 PUSH3 0x9E2 JUMP JUMPDEST PUSH5 0x14F46B0400 PUSH3 0x31 SWAP2 SWAP1 PUSH3 0x969 JUMP JUMPDEST PUSH1 0x6 SSTORE PUSH1 0x1 PUSH1 0x8 SSTORE PUSH1 0x4 PUSH1 0x9 SSTORE PUSH1 0x1 PUSH1 0xA SSTORE PUSH1 0x1 PUSH1 0xB SSTORE PUSH1 0x0 PUSH1 0xE PUSH1 0x0 PUSH2 0x100 EXP DUP2 SLOAD DUP2 PUSH1 0xFF MUL NOT AND SWAP1 DUP4 ISZERO ISZERO MUL OR SWAP1 SSTORE POP PUSH20 0x8492CBD894686D7E98214541903C7BA6F94928D6 PUSH1 0xE PUSH1 0x1 PUSH2 0x100 EXP DUP2 SLOAD DUP2 PUSH20 0xFFFFFFFFFFFFFFFFFFFFFFFFFFFFFFFFFFFFFFFF MUL NOT AND SWAP1 DUP4 PUSH20 0xFFFFFFFFFFFFFFFFFFFFFFFFFFFFFFFFFFFFFFFF AND MUL OR SWAP1 SSTORE POP PUSH20 0xA4ED7AA4EF5DEB0A63E97D9CB77445AE553FEB1D PUSH1 0xF PUSH1 0x0 PUSH2 0x100 EXP DUP2 SLOAD DUP2 PUSH20 0xFFFFFFFFFFFFFFFFFFFFFFFFFFFFFFFFFFFFFFFF MUL NOT AND SWAP1 DUP4 PUSH20 0xFFFFFFFFFFFFFFFFFFFFFFFFFFFFFFFFFFFFFFFF AND MUL OR SWAP1 SSTORE POP PUSH1 0x0 PUSH1 0x13 PUSH1 0x14 PUSH2 0x100 EXP DUP2 SLOAD DUP2 PUSH1 0xFF MUL NOT AND SWAP1 DUP4 ISZERO ISZERO MUL OR SWAP1 SSTORE POP PUSH1 0x1 PUSH1 0x13 PUSH1 0x15 PUSH2 0x100 EXP DUP2 SLOAD DUP2 PUSH1 0xFF MUL NOT AND SWAP1 DUP4 ISZERO ISZERO MUL OR SWAP1 SSTORE POP CALLVALUE DUP1 ISZERO PUSH3 0x150 JUMPI PUSH1 0x0 DUP1 REVERT JUMPDEST POP PUSH1 0x0 PUSH3 0x163 PUSH3 0x889 PUSH1 0x20 SHL PUSH1 0x20 SHR JUMP JUMPDEST SWAP1 POP DUP1 PUSH1 0x0 DUP1 PUSH2 0x100 EXP DUP2 SLOAD DUP2 PUSH20 0xFFFFFFFFFFFFFFFFFFFFFFFFFFFFFFFFFFFFFFFF MUL NOT AND SWAP1 DUP4 PUSH20 0xFFFFFFFFFFFFFFFFFFFFFFFFFFFFFFFFFFFFFFFF AND MUL OR SWAP1 SSTORE POP DUP1 PUSH20 0xFFFFFFFFFFFFFFFFFFFFFFFFFFFFFFFFFFFFFFFF AND PUSH1 0x0 PUSH20 0xFFFFFFFFFFFFFFFFFFFFFFFFFFFFFFFFFFFFFFFF AND PUSH32 0x8BE0079C531659141344CD1FD0A4F28419497F9722A3DAAFE3B4186F6B6457E0 PUSH1 0x40 MLOAD PUSH1 0x40 MLOAD DUP1 SWAP2 SUB SWAP1 LOG3 POP PUSH1 0x6 SLOAD PUSH1 0x2 PUSH1 0x0 PUSH3 0x218 PUSH3 0x889 PUSH1 0x20 SHL PUSH1 0x20 SHR JUMP JUMPDEST PUSH20 0xFFFFFFFFFFFFFFFFFFFFFFFFFFFFFFFFFFFFFFFF AND PUSH20 0xFFFFFFFFFFFFFFFFFFFFFFFFFFFFFFFFFFFFFFFF AND DUP2 MSTORE PUSH1 0x20 ADD SWAP1 DUP2 MSTORE PUSH1 0x20 ADD PUSH1 0x0 KECCAK256 DUP2 SWAP1 SSTORE POP PUSH1 0x0 PUSH20 0x10ED43C718714EB63D5AA57B78B54704E256024E SWAP1 POP DUP1 PUSH1 0x10 PUSH1 0x0 PUSH2 0x100 EXP DUP2 SLOAD DUP2 PUSH20 0xFFFFFFFFFFFFFFFFFFFFFFFFFFFFFFFFFFFFFFFF MUL NOT AND SWAP1 DUP4 PUSH20 0xFFFFFFFFFFFFFFFFFFFFFFFFFFFFFFFFFFFFFFFF AND MUL OR SWAP1 SSTORE POP PUSH20 0xCA143CE32FE78F1F7019D7D551A6402FC5350C73 PUSH1 0x11 PUSH1 0x0 PUSH2 0x100 EXP DUP2 SLOAD DUP2 PUSH20 0xFFFFFFFFFFFFFFFFFFFFFFFFFFFFFFFFFFFFFFFF MUL NOT AND SWAP1 DUP4 PUSH20 0xFFFFFFFFFFFFFFFFFFFFFFFFFFFFFFFFFFFFFFFF AND MUL OR SWAP1 SSTORE POP PUSH1 0x11 PUSH1 0x0 SWAP1 SLOAD SWAP1 PUSH2 0x100 EXP SWAP1 DIV PUSH20 0xFFFFFFFFFFFFFFFFFFFFFFFFFFFFFFFFFFFFFFFF AND PUSH20 0xFFFFFFFFFFFFFFFFFFFFFFFFFFFFFFFFFFFFFFFF AND PUSH4 0xC9C65396 ADDRESS DUP4 PUSH20 0xFFFFFFFFFFFFFFFFFFFFFFFFFFFFFFFFFFFFFFFF AND PUSH4 0xAD5C4648 PUSH1 0x40 MLOAD DUP2 PUSH4 0xFFFFFFFF AND PUSH1 0xE0 SHL DUP2 MSTORE PUSH1 0x4 ADD PUSH1 0x20 PUSH1 0x40 MLOAD DUP1 DUP4 SUB DUP2 DUP7 DUP1 EXTCODESIZE ISZERO DUP1 ISZERO PUSH3 0x38B JUMPI PUSH1 0x0 DUP1 REVERT JUMPDEST POP GAS STATICCALL ISZERO DUP1 ISZERO PUSH3 0x3A0 JUMPI RETURNDATASIZE PUSH1 0x0 DUP1 RETURNDATACOPY RETURNDATASIZE PUSH1 0x0 REVERT JUMPDEST POP POP POP POP PUSH1 0x40 MLOAD RETURNDATASIZE PUSH1 0x1F NOT PUSH1 0x1F DUP3 ADD AND DUP3 ADD DUP1 PUSH1 0x40 MSTORE POP DUP2 ADD SWAP1 PUSH3 0x3C6 SWAP2 SWAP1 PUSH3 0x8D1 JUMP JUMPDEST PUSH1 0x40 MLOAD DUP4 PUSH4 0xFFFFFFFF AND PUSH1 0xE0 SHL DUP2 MSTORE PUSH1 0x4 ADD PUSH3 0x3E5 SWAP3 SWAP2 SWAP1 PUSH3 0x91F JUMP JUMPDEST PUSH1 0x20 PUSH1 0x40 MLOAD DUP1 DUP4 SUB DUP2 PUSH1 0x0 DUP8 DUP1 EXTCODESIZE ISZERO DUP1 ISZERO PUSH3 0x400 JUMPI PUSH1 0x0 DUP1 REVERT JUMPDEST POP GAS CALL ISZERO DUP1 ISZERO PUSH3 0x415 JUMPI RETURNDATASIZE PUSH1 0x0 DUP1 RETURNDATACOPY RETURNDATASIZE PUSH1 0x0 REVERT JUMPDEST POP POP POP POP PUSH1 0x40 MLOAD RETURNDATASIZE PUSH1 0x1F NOT PUSH1 0x1F DUP3 ADD AND DUP3 ADD DUP1 PUSH1 0x40 MSTORE POP DUP2 ADD SWAP1 PUSH3 0x43B SWAP2 SWAP1 PUSH3 0x8D1 JUMP JUMPDEST PUSH1 0x13 PUSH1 0x0 PUSH2 0x100 EXP DUP2 SLOAD DUP2 PUSH20 0xFFFFFFFFFFFFFFFFFFFFFFFFFFFFFFFFFFFFFFFF MUL NOT AND SWAP1 DUP4 PUSH20 0xFFFFFFFFFFFFFFFFFFFFFFFFFFFFFFFFFFFFFFFF AND MUL OR SWAP1 SSTORE POP DUP1 PUSH20 0xFFFFFFFFFFFFFFFFFFFFFFFFFFFFFFFFFFFFFFFF AND PUSH4 0xC45A0155 PUSH1 0x40 MLOAD DUP2 PUSH4 0xFFFFFFFF AND PUSH1 0xE0 SHL DUP2 MSTORE PUSH1 0x4 ADD PUSH1 0x20 PUSH1 0x40 MLOAD DUP1 DUP4 SUB DUP2 DUP7 DUP1 EXTCODESIZE ISZERO DUP1 ISZERO PUSH3 0x4C2 JUMPI PUSH1 0x0 DUP1 REVERT JUMPDEST POP GAS STATICCALL ISZERO DUP1 ISZERO PUSH3 0x4D7 JUMPI RETURNDATASIZE PUSH1 0x0 DUP1 RETURNDATACOPY RETURNDATASIZE PUSH1 0x0 REVERT JUMPDEST POP POP POP POP PUSH1 0x40 MLOAD RETURNDATASIZE PUSH1 0x1F NOT PUSH1 0x1F DUP3 ADD AND DUP3 ADD DUP1 PUSH1 0x40 MSTORE POP DUP2 ADD SWAP1 PUSH3 0x4FD SWAP2 SWAP1 PUSH3 0x8D1 JUMP JUMPDEST PUSH20 0xFFFFFFFFFFFFFFFFFFFFFFFFFFFFFFFFFFFFFFFF AND PUSH4 0xC9C65396 ADDRESS DUP4 PUSH20 0xFFFFFFFFFFFFFFFFFFFFFFFFFFFFFFFFFFFFFFFF AND PUSH4 0xAD5C4648 PUSH1 0x40 MLOAD DUP2 PUSH4 0xFFFFFFFF AND PUSH1 0xE0 SHL DUP2 MSTORE PUSH1 0x4 ADD PUSH1 0x20 PUSH1 0x40 MLOAD DUP1 DUP4 SUB DUP2 DUP7 DUP1 EXTCODESIZE ISZERO DUP1 ISZERO PUSH3 0x560 JUMPI PUSH1 0x0 DUP1 REVERT JUMPDEST POP GAS STATICCALL ISZERO DUP1 ISZERO PUSH3 0x575 JUMPI RETURNDATASIZE PUSH1 0x0 DUP1 RETURNDATACOPY RETURNDATASIZE PUSH1 0x0 REVERT JUMPDEST POP POP POP POP PUSH1 0x40 MLOAD RETURNDATASIZE PUSH1 0x1F NOT PUSH1 0x1F DUP3 ADD AND DUP3 ADD DUP1 PUSH1 0x40 MSTORE POP DUP2 ADD SWAP1 PUSH3 0x59B SWAP2 SWAP1 PUSH3 0x8D1 JUMP JUMPDEST PUSH1 0x40 MLOAD DUP4 PUSH4 0xFFFFFFFF AND PUSH1 0xE0 SHL DUP2 MSTORE PUSH1 0x4 ADD PUSH3 0x5BA SWAP3 SWAP2 SWAP1 PUSH3 0x91F JUMP JUMPDEST PUSH1 0x20 PUSH1 0x40 MLOAD DUP1 DUP4 SUB DUP2 PUSH1 0x0 DUP8 DUP1 EXTCODESIZE ISZERO DUP1 ISZERO PUSH3 0x5D5 JUMPI PUSH1 0x0 DUP1 REVERT JUMPDEST POP GAS CALL ISZERO DUP1 ISZERO PUSH3 0x5EA JUMPI RETURNDATASIZE PUSH1 0x0 DUP1 RETURNDATACOPY RETURNDATASIZE PUSH1 0x0 REVERT JUMPDEST POP POP POP POP PUSH1 0x40 MLOAD RETURNDATASIZE PUSH1 0x1F NOT PUSH1 0x1F DUP3 ADD AND DUP3 ADD DUP1 PUSH1 0x40 MSTORE POP DUP2 ADD SWAP1 PUSH3 0x610 SWAP2 SWAP1 PUSH3 0x8D1 JUMP JUMPDEST PUSH1 0x13 PUSH1 0x0 PUSH2 0x100 EXP DUP2 SLOAD DUP2 PUSH20 0xFFFFFFFFFFFFFFFFFFFFFFFFFFFFFFFFFFFFFFFF MUL NOT AND SWAP1 DUP4 PUSH20 0xFFFFFFFFFFFFFFFFFFFFFFFFFFFFFFFFFFFFFFFF AND MUL OR SWAP1 SSTORE POP PUSH1 0x1 PUSH1 0x5 PUSH1 0x0 PUSH3 0x666 PUSH3 0x891 PUSH1 0x20 SHL PUSH1 0x20 SHR JUMP JUMPDEST PUSH20 0xFFFFFFFFFFFFFFFFFFFFFFFFFFFFFFFFFFFFFFFF AND PUSH20 0xFFFFFFFFFFFFFFFFFFFFFFFFFFFFFFFFFFFFFFFF AND DUP2 MSTORE PUSH1 0x20 ADD SWAP1 DUP2 MSTORE PUSH1 0x20 ADD PUSH1 0x0 KECCAK256 PUSH1 0x0 PUSH2 0x100 EXP DUP2 SLOAD DUP2 PUSH1 0xFF MUL NOT AND SWAP1 DUP4 ISZERO ISZERO MUL OR SWAP1 SSTORE POP PUSH1 0x1 PUSH1 0x5 PUSH1 0x0 ADDRESS PUSH20 0xFFFFFFFFFFFFFFFFFFFFFFFFFFFFFFFFFFFFFFFF AND PUSH20 0xFFFFFFFFFFFFFFFFFFFFFFFFFFFFFFFFFFFFFFFF AND DUP2 MSTORE PUSH1 0x20 ADD SWAP1 DUP2 MSTORE PUSH1 0x20 ADD PUSH1 0x0 KECCAK256 PUSH1 0x0 PUSH2 0x100 EXP DUP2 SLOAD DUP2 PUSH1 0xFF MUL NOT AND SWAP1 DUP4 ISZERO ISZERO MUL OR SWAP1 SSTORE POP PUSH1 0x1 PUSH1 0x5 PUSH1 0x0 PUSH1 0xE PUSH1 0x1 SWAP1 SLOAD SWAP1 PUSH2 0x100 EXP SWAP1 DIV PUSH20 0xFFFFFFFFFFFFFFFFFFFFFFFFFFFFFFFFFFFFFFFF AND PUSH20 0xFFFFFFFFFFFFFFFFFFFFFFFFFFFFFFFFFFFFFFFF AND PUSH20 0xFFFFFFFFFFFFFFFFFFFFFFFFFFFFFFFFFFFFFFFF AND DUP2 MSTORE PUSH1 0x20 ADD SWAP1 DUP2 MSTORE PUSH1 0x20 ADD PUSH1 0x0 KECCAK256 PUSH1 0x0 PUSH2 0x100 EXP DUP2 SLOAD DUP2 PUSH1 0xFF MUL NOT AND SWAP1 DUP4 ISZERO ISZERO MUL OR SWAP1 SSTORE POP PUSH1 0x1 PUSH1 0x5 PUSH1 0x0 PUSH1 0xF PUSH1 0x0 SWAP1 SLOAD SWAP1 PUSH2 0x100 EXP SWAP1 DIV PUSH20 0xFFFFFFFFFFFFFFFFFFFFFFFFFFFFFFFFFFFFFFFF AND PUSH20 0xFFFFFFFFFFFFFFFFFFFFFFFFFFFFFFFFFFFFFFFF AND PUSH20 0xFFFFFFFFFFFFFFFFFFFFFFFFFFFFFFFFFFFFFFFF AND DUP2 MSTORE PUSH1 0x20 ADD SWAP1 DUP2 MSTORE PUSH1 0x20 ADD PUSH1 0x0 KECCAK256 PUSH1 0x0 PUSH2 0x100 EXP DUP2 SLOAD DUP2 PUSH1 0xFF MUL NOT AND SWAP1 DUP4 ISZERO ISZERO MUL OR SWAP1 SSTORE POP PUSH3 0x813 PUSH3 0x889 PUSH1 0x20 SHL PUSH1 0x20 SHR JUMP JUMPDEST PUSH20 0xFFFFFFFFFFFFFFFFFFFFFFFFFFFFFFFFFFFFFFFF AND PUSH1 0x0 PUSH20 0xFFFFFFFFFFFFFFFFFFFFFFFFFFFFFFFFFFFFFFFF AND PUSH32 0xDDF252AD1BE2C89B69C2B068FC378DAA952BA7F163C4A11628F55A4DF523B3EF PUSH8 0xDE0B6B3A7640000 PUSH1 0x40 MLOAD PUSH3 0x87A SWAP2 SWAP1 PUSH3 0x94C JUMP JUMPDEST PUSH1 0x40 MLOAD DUP1 SWAP2 SUB SWAP1 LOG3 POP PUSH3 0xA92 JUMP JUMPDEST PUSH1 0x0 CALLER SWAP1 POP SWAP1 JUMP JUMPDEST PUSH1 0x0 DUP1 PUSH1 0x0 SWAP1 SLOAD SWAP1 PUSH2 0x100 EXP SWAP1 DIV PUSH20 0xFFFFFFFFFFFFFFFFFFFFFFFFFFFFFFFFFFFFFFFF AND SWAP1 POP SWAP1 JUMP JUMPDEST PUSH1 0x0 DUP2 MLOAD SWAP1 POP PUSH3 0x8CB DUP2 PUSH3 0xA78 JUMP JUMPDEST SWAP3 SWAP2 POP POP JUMP JUMPDEST PUSH1 0x0 PUSH1 0x20 DUP3 DUP5 SUB SLT ISZERO PUSH3 0x8E4 JUMPI PUSH1 0x0 DUP1 REVERT JUMPDEST PUSH1 0x0 PUSH3 0x8F4 DUP5 DUP3 DUP6 ADD PUSH3 0x8BA JUMP JUMPDEST SWAP2 POP POP SWAP3 SWAP2 POP POP JUMP JUMPDEST PUSH3 0x908 DUP2 PUSH3 0x9A4 JUMP JUMPDEST DUP3 MSTORE POP POP JUMP JUMPDEST PUSH3 0x919 DUP2 PUSH3 0x9D8 JUMP JUMPDEST DUP3 MSTORE POP POP JUMP JUMPDEST PUSH1 0x0 PUSH1 0x40 DUP3 ADD SWAP1 POP PUSH3 0x936 PUSH1 0x0 DUP4 ADD DUP6 PUSH3 0x8FD JUMP JUMPDEST PUSH3 0x945 PUSH1 0x20 DUP4 ADD DUP5 PUSH3 0x8FD JUMP JUMPDEST SWAP4 SWAP3 POP POP POP JUMP JUMPDEST PUSH1 0x0 PUSH1 0x20 DUP3 ADD SWAP1 POP PUSH3 0x963 PUSH1 0x0 DUP4 ADD DUP5 PUSH3 0x90E JUMP JUMPDEST SWAP3 SWAP2 POP POP JUMP JUMPDEST PUSH1 0x0 PUSH3 0x976 DUP3 PUSH3 0x9D8 JUMP JUMPDEST SWAP2 POP PUSH3 0x983 DUP4 PUSH3 0x9D8 JUMP JUMPDEST SWAP3 POP DUP3 DUP3 LT ISZERO PUSH3 0x999 JUMPI PUSH3 0x998 PUSH3 0xA1A JUMP JUMPDEST JUMPDEST DUP3 DUP3 SUB SWAP1 POP SWAP3 SWAP2 POP POP JUMP JUMPDEST PUSH1 0x0 PUSH3 0x9B1 DUP3 PUSH3 0x9B8 JUMP JUMPDEST SWAP1 POP SWAP2 SWAP1 POP JUMP JUMPDEST PUSH1 0x0 PUSH20 0xFFFFFFFFFFFFFFFFFFFFFFFFFFFFFFFFFFFFFFFF DUP3 AND SWAP1 POP SWAP2 SWAP1 POP JUMP JUMPDEST PUSH1 0x0 DUP2 SWAP1 POP SWAP2 SWAP1 POP JUMP JUMPDEST PUSH1 0x0 PUSH3 0x9EF DUP3 PUSH3 0x9D8 JUMP JUMPDEST SWAP2 POP PUSH3 0x9FC DUP4 PUSH3 0x9D8 JUMP JUMPDEST SWAP3 POP DUP3 PUSH3 0xA0F JUMPI PUSH3 0xA0E PUSH3 0xA49 JUMP JUMPDEST JUMPDEST DUP3 DUP3 MOD SWAP1 POP SWAP3 SWAP2 POP POP JUMP JUMPDEST PUSH32 0x4E487B7100000000000000000000000000000000000000000000000000000000 PUSH1 0x0 MSTORE PUSH1 0x11 PUSH1 0x4 MSTORE PUSH1 0x24 PUSH1 0x0 REVERT JUMPDEST PUSH32 0x4E487B7100000000000000000000000000000000000000000000000000000000 PUSH1 0x0 MSTORE PUSH1 0x12 PUSH1 0x4 MSTORE PUSH1 0x24 PUSH1 0x0 REVERT JUMPDEST PUSH3 0xA83 DUP2 PUSH3 0x9A4 JUMP JUMPDEST DUP2 EQ PUSH3 0xA8F JUMPI PUSH1 0x0 DUP1 REVERT JUMPDEST POP JUMP JUMPDEST PUSH2 0x3CEA DUP1 PUSH3 0xAA2 PUSH1 0x0 CODECOPY PUSH1 0x0 RETURN INVALID PUSH1 0x80 PUSH1 0x40 MSTORE PUSH1 0x4 CALLDATASIZE LT PUSH2 0x16A JUMPI PUSH1 0x0 CALLDATALOAD PUSH1 0xE0 SHR DUP1 PUSH4 0x758DBE03 GT PUSH2 0xD1 JUMPI DUP1 PUSH4 0xC3C8CD80 GT PUSH2 0x8A JUMPI DUP1 PUSH4 0xCE4224C5 GT PUSH2 0x64 JUMPI DUP1 PUSH4 0xCE4224C5 EQ PUSH2 0x4FF JUMPI DUP1 PUSH4 0xDD62ED3E EQ PUSH2 0x528 JUMPI DUP1 PUSH4 0xE293D316 EQ PUSH2 0x565 JUMPI DUP1 PUSH4 0xF2FDE38B EQ PUSH2 0x58E JUMPI PUSH2 0x171 JUMP JUMPDEST DUP1 PUSH4 0xC3C8CD80 EQ PUSH2 0x494 JUMPI DUP1 PUSH4 0xC492F046 EQ PUSH2 0x4AB JUMPI DUP1 PUSH4 0xC5CC6B6A EQ PUSH2 0x4D4 JUMPI PUSH2 0x171 JUMP JUMPDEST DUP1 PUSH4 0x758DBE03 EQ PUSH2 0x386 JUMPI DUP1 PUSH4 0x8DA5CB5B EQ PUSH2 0x3AF JUMPI DUP1 PUSH4 0x95D89B41 EQ PUSH2 0x3DA JUMPI DUP1 PUSH4 0xA2A957BB EQ PUSH2 0x405 JUMPI DUP1 PUSH4 0xA9059CBB EQ PUSH2 0x42E JUMPI DUP1 PUSH4 0xAAD5C023 EQ PUSH2 0x46B JUMPI PUSH2 0x171 JUMP JUMPDEST DUP1 PUSH4 0x49BD5A5E GT PUSH2 0x123 JUMPI DUP1 PUSH4 0x49BD5A5E EQ PUSH2 0x29C JUMPI DUP1 PUSH4 0x59D0F713 EQ PUSH2 0x2C7 JUMPI DUP1 PUSH4 0x6D8AA8F8 EQ PUSH2 0x2F2 JUMPI DUP1 PUSH4 0x6FC3EAEC EQ PUSH2 0x31B JUMPI DUP1 PUSH4 0x70A08231 EQ PUSH2 0x332 JUMPI DUP1 PUSH4 0x715018A6 EQ PUSH2 0x36F JUMPI PUSH2 0x171 JUMP JUMPDEST DUP1 PUSH4 0x6FDDE03 EQ PUSH2 0x176 JUMPI DUP1 PUSH4 0x95EA7B3 EQ PUSH2 0x1A1 JUMPI DUP1 PUSH4 0x1694505E EQ PUSH2 0x1DE JUMPI DUP1 PUSH4 0x18160DDD EQ PUSH2 0x209 JUMPI DUP1 PUSH4 0x23B872DD EQ PUSH2 0x234 JUMPI DUP1 PUSH4 0x313CE567 EQ PUSH2 0x271 JUMPI PUSH2 0x171 JUMP JUMPDEST CALLDATASIZE PUSH2 0x171 JUMPI STOP JUMPDEST PUSH1 0x0 DUP1 REVERT JUMPDEST CALLVALUE DUP1 ISZERO PUSH2 0x182 JUMPI PUSH1 0x0 DUP1 REVERT JUMPDEST POP PUSH2 0x18B PUSH2 0x5B7 JUMP JUMPDEST PUSH1 0x40 MLOAD PUSH2 0x198 SWAP2 SWAP1 PUSH2 0x33A9 JUMP JUMPDEST PUSH1 0x40 MLOAD DUP1 SWAP2 SUB SWAP1 RETURN JUMPDEST CALLVALUE DUP1 ISZERO PUSH2 0x1AD JUMPI PUSH1 0x0 DUP1 REVERT JUMPDEST POP PUSH2 0x1C8 PUSH1 0x4 DUP1 CALLDATASIZE SUB DUP2 ADD SWAP1 PUSH2 0x1C3 SWAP2 SWAP1 PUSH2 0x2EB4 JUMP JUMPDEST PUSH2 0x5F4 JUMP JUMPDEST PUSH1 0x40 MLOAD PUSH2 0x1D5 SWAP2 SWAP1 PUSH2 0x3358 JUMP JUMPDEST PUSH1 0x40 MLOAD DUP1 SWAP2 SUB SWAP1 RETURN JUMPDEST CALLVALUE DUP1 ISZERO PUSH2 0x1EA JUMPI PUSH1 0x0 DUP1 REVERT JUMPDEST POP PUSH2 0x1F3 PUSH2 0x612 JUMP JUMPDEST PUSH1 0x40 MLOAD PUSH2 0x200 SWAP2 SWAP1 PUSH2 0x338E JUMP JUMPDEST PUSH1 0x40 MLOAD DUP1 SWAP2 SUB SWAP1 RETURN JUMPDEST CALLVALUE DUP1 ISZERO PUSH2 0x215 JUMPI PUSH1 0x0 DUP1 REVERT JUMPDEST POP PUSH2 0x21E PUSH2 0x638 JUMP JUMPDEST PUSH1 0x40 MLOAD PUSH2 0x22B SWAP2 SWAP1 PUSH2 0x356B JUMP JUMPDEST PUSH1 0x40 MLOAD DUP1 SWAP2 SUB SWAP1 RETURN JUMPDEST CALLVALUE DUP1 ISZERO PUSH2 0x240 JUMPI PUSH1 0x0 DUP1 REVERT JUMPDEST POP PUSH2 0x25B PUSH1 0x4 DUP1 CALLDATASIZE SUB DUP2 ADD SWAP1 PUSH2 0x256 SWAP2 SWAP1 PUSH2 0x2E65 JUMP JUMPDEST PUSH2 0x648 JUMP JUMPDEST PUSH1 0x40 MLOAD PUSH2 0x268 SWAP2 SWAP1 PUSH2 0x3358 JUMP JUMPDEST PUSH1 0x40 MLOAD DUP1 SWAP2 SUB SWAP1 RETURN JUMPDEST CALLVALUE DUP1 ISZERO PUSH2 0x27D JUMPI PUSH1 0x0 DUP1 REVERT JUMPDEST POP PUSH2 0x286 PUSH2 0x721 JUMP JUMPDEST PUSH1 0x40 MLOAD PUSH2 0x293 SWAP2 SWAP1 PUSH2 0x35E0 JUMP JUMPDEST PUSH1 0x40 MLOAD DUP1 SWAP2 SUB SWAP1 RETURN JUMPDEST CALLVALUE DUP1 ISZERO PUSH2 0x2A8 JUMPI PUSH1 0x0 DUP1 REVERT JUMPDEST POP PUSH2 0x2B1 PUSH2 0x72A JUMP JUMPDEST PUSH1 0x40 MLOAD PUSH2 0x2BE SWAP2 SWAP1 PUSH2 0x32EB JUMP JUMPDEST PUSH1 0x40 MLOAD DUP1 SWAP2 SUB SWAP1 RETURN JUMPDEST CALLVALUE DUP1 ISZERO PUSH2 0x2D3 JUMPI PUSH1 0x0 DUP1 REVERT JUMPDEST POP PUSH2 0x2DC PUSH2 0x750 JUMP JUMPDEST PUSH1 0x40 MLOAD PUSH2 0x2E9 SWAP2 SWAP1 PUSH2 0x3373 JUMP JUMPDEST PUSH1 0x40 MLOAD DUP1 SWAP2 SUB SWAP1 RETURN JUMPDEST CALLVALUE DUP1 ISZERO PUSH2 0x2FE JUMPI PUSH1 0x0 DUP1 REVERT JUMPDEST POP PUSH2 0x319 PUSH1 0x4 DUP1 CALLDATASIZE SUB DUP2 ADD SWAP1 PUSH2 0x314 SWAP2 SWAP1 PUSH2 0x2F48 JUMP JUMPDEST PUSH2 0x776 JUMP JUMPDEST STOP JUMPDEST CALLVALUE DUP1 ISZERO PUSH2 0x327 JUMPI PUSH1 0x0 DUP1 REVERT JUMPDEST POP PUSH2 0x330 PUSH2 0x86E JUMP JUMPDEST STOP JUMPDEST CALLVALUE DUP1 ISZERO PUSH2 0x33E JUMPI PUSH1 0x0 DUP1 REVERT JUMPDEST POP PUSH2 0x359 PUSH1 0x4 DUP1 CALLDATASIZE SUB DUP2 ADD SWAP1 PUSH2 0x354 SWAP2 SWAP1 PUSH2 0x2DAE JUMP JUMPDEST PUSH2 0x983 JUMP JUMPDEST PUSH1 0x40 MLOAD PUSH2 0x366 SWAP2 SWAP1 PUSH2 0x356B JUMP JUMPDEST PUSH1 0x40 MLOAD DUP1 SWAP2 SUB SWAP1 RETURN JUMPDEST CALLVALUE DUP1 ISZERO PUSH2 0x37B JUMPI PUSH1 0x0 DUP1 REVERT JUMPDEST POP PUSH2 0x384 PUSH2 0x9D4 JUMP JUMPDEST STOP JUMPDEST CALLVALUE DUP1 ISZERO PUSH2 0x392 JUMPI PUSH1 0x0 DUP1 REVERT JUMPDEST POP PUSH2 0x3AD PUSH1 0x4 DUP1 CALLDATASIZE SUB DUP2 ADD SWAP1 PUSH2 0x3A8 SWAP2 SWAP1 PUSH2 0x2E00 JUMP JUMPDEST PUSH2 0xB27 JUMP JUMPDEST STOP JUMPDEST CALLVALUE DUP1 ISZERO PUSH2 0x3BB JUMPI PUSH1 0x0 DUP1 REVERT JUMPDEST POP PUSH2 0x3C4 PUSH2 0xD3C JUMP JUMPDEST PUSH1 0x40 MLOAD PUSH2 0x3D1 SWAP2 SWAP1 PUSH2 0x32EB JUMP JUMPDEST PUSH1 0x40 MLOAD DUP1 SWAP2 SUB SWAP1 RETURN JUMPDEST CALLVALUE DUP1 ISZERO PUSH2 0x3E6 JUMPI PUSH1 0x0 DUP1 REVERT JUMPDEST POP PUSH2 0x3EF PUSH2 0xD65 JUMP JUMPDEST PUSH1 0x40 MLOAD PUSH2 0x3FC SWAP2 SWAP1 PUSH2 0x33A9 JUMP JUMPDEST PUSH1 0x40 MLOAD DUP1 SWAP2 SUB SWAP1 RETURN JUMPDEST CALLVALUE DUP1 ISZERO PUSH2 0x411 JUMPI PUSH1 0x0 DUP1 REVERT JUMPDEST POP PUSH2 0x42C PUSH1 0x4 DUP1 CALLDATASIZE SUB DUP2 ADD SWAP1 PUSH2 0x427 SWAP2 SWAP1 PUSH2 0x2F9A JUMP JUMPDEST PUSH2 0xDA2 JUMP JUMPDEST STOP JUMPDEST CALLVALUE DUP1 ISZERO PUSH2 0x43A JUMPI PUSH1 0x0 DUP1 REVERT JUMPDEST POP PUSH2 0x455 PUSH1 0x4 DUP1 CALLDATASIZE SUB DUP2 ADD SWAP1 PUSH2 0x450 SWAP2 SWAP1 PUSH2 0x2EB4 JUMP JUMPDEST PUSH2 0xFAB JUMP JUMPDEST PUSH1 0x40 MLOAD PUSH2 0x462 SWAP2 SWAP1 PUSH2 0x3358 JUMP JUMPDEST PUSH1 0x40 MLOAD DUP1 SWAP2 SUB SWAP1 RETURN JUMPDEST CALLVALUE DUP1 ISZERO PUSH2 0x477 JUMPI PUSH1 0x0 DUP1 REVERT JUMPDEST POP PUSH2 0x492 PUSH1 0x4 DUP1 CALLDATASIZE SUB DUP2 ADD SWAP1 PUSH2 0x48D SWAP2 SWAP1 PUSH2 0x2E00 JUMP JUMPDEST PUSH2 0xFC9 JUMP JUMPDEST STOP JUMPDEST CALLVALUE DUP1 ISZERO PUSH2 0x4A0 JUMPI PUSH1 0x0 DUP1 REVERT JUMPDEST POP PUSH2 0x4A9 PUSH2 0x11DE JUMP JUMPDEST STOP JUMPDEST CALLVALUE DUP1 ISZERO PUSH2 0x4B7 JUMPI PUSH1 0x0 DUP1 REVERT JUMPDEST POP PUSH2 0x4D2 PUSH1 0x4 DUP1 CALLDATASIZE SUB DUP2 ADD SWAP1 PUSH2 0x4CD SWAP2 SWAP1 PUSH2 0x2EF0 JUMP JUMPDEST PUSH2 0x12FB JUMP JUMPDEST STOP JUMPDEST CALLVALUE DUP1 ISZERO PUSH2 0x4E0 JUMPI PUSH1 0x0 DUP1 REVERT JUMPDEST POP PUSH2 0x4E9 PUSH2 0x145B JUMP JUMPDEST PUSH1 0x40 MLOAD PUSH2 0x4F6 SWAP2 SWAP1 PUSH2 0x32EB JUMP JUMPDEST PUSH1 0x40 MLOAD DUP1 SWAP2 SUB SWAP1 RETURN JUMPDEST CALLVALUE DUP1 ISZERO PUSH2 0x50B JUMPI PUSH1 0x0 DUP1 REVERT JUMPDEST POP PUSH2 0x526 PUSH1 0x4 DUP1 CALLDATASIZE SUB DUP2 ADD SWAP1 PUSH2 0x521 SWAP2 SWAP1 PUSH2 0x2DAE JUMP JUMPDEST PUSH2 0x1481 JUMP JUMPDEST STOP JUMPDEST CALLVALUE DUP1 ISZERO PUSH2 0x534 JUMPI PUSH1 0x0 DUP1 REVERT JUMPDEST POP PUSH2 0x54F PUSH1 0x4 DUP1 CALLDATASIZE SUB DUP2 ADD SWAP1 PUSH2 0x54A SWAP2 SWAP1 PUSH2 0x2E29 JUMP JUMPDEST PUSH2 0x1679 JUMP JUMPDEST PUSH1 0x40 MLOAD PUSH2 0x55C SWAP2 SWAP1 PUSH2 0x356B JUMP JUMPDEST PUSH1 0x40 MLOAD DUP1 SWAP2 SUB SWAP1 RETURN JUMPDEST CALLVALUE DUP1 ISZERO PUSH2 0x571 JUMPI PUSH1 0x0 DUP1 REVERT JUMPDEST POP PUSH2 0x58C PUSH1 0x4 DUP1 CALLDATASIZE SUB DUP2 ADD SWAP1 PUSH2 0x587 SWAP2 SWAP1 PUSH2 0x2E65 JUMP JUMPDEST PUSH2 0x1700 JUMP JUMPDEST STOP JUMPDEST CALLVALUE DUP1 ISZERO PUSH2 0x59A JUMPI PUSH1 0x0 DUP1 REVERT JUMPDEST POP PUSH2 0x5B5 PUSH1 0x4 DUP1 CALLDATASIZE SUB DUP2 ADD SWAP1 PUSH2 0x5B0 SWAP2 SWAP1 PUSH2 0x2DAE JUMP JUMPDEST PUSH2 0x18D3 JUMP JUMPDEST STOP JUMPDEST PUSH1 0x60 PUSH1 0x40 MLOAD DUP1 PUSH1 0x40 ADD PUSH1 0x40 MSTORE DUP1 PUSH1 0xA DUP2 MSTORE PUSH1 0x20 ADD PUSH32 0x576F726C64205374657000000000000000000000000000000000000000000000 DUP2 MSTORE POP SWAP1 POP SWAP1 JUMP JUMPDEST PUSH1 0x0 PUSH2 0x608 PUSH2 0x601 PUSH2 0x1A25 JUMP JUMPDEST DUP5 DUP5 PUSH2 0x1A2D JUMP JUMPDEST PUSH1 0x1 SWAP1 POP SWAP3 SWAP2 POP POP JUMP JUMPDEST PUSH1 0x10 PUSH1 0x0 SWAP1 SLOAD SWAP1 PUSH2 0x100 EXP SWAP1 DIV PUSH20 0xFFFFFFFFFFFFFFFFFFFFFFFFFFFFFFFFFFFFFFFF AND DUP2 JUMP JUMPDEST PUSH1 0x0 PUSH8 0xDE0B6B3A7640000 SWAP1 POP SWAP1 JUMP JUMPDEST PUSH1 0x0 PUSH2 0x655 DUP5 DUP5 DUP5 PUSH2 0x1BF8 JUMP JUMPDEST PUSH2 0x716 DUP5 PUSH2 0x661 PUSH2 0x1A25 JUMP JUMPDEST PUSH2 0x711 DUP6 PUSH1 0x40 MLOAD DUP1 PUSH1 0x60 ADD PUSH1 0x40 MSTORE DUP1 PUSH1 0x28 DUP2 MSTORE PUSH1 0x20 ADD PUSH2 0x3C8D PUSH1 0x28 SWAP2 CODECOPY PUSH1 0x4 PUSH1 0x0 DUP12 PUSH20 0xFFFFFFFFFFFFFFFFFFFFFFFFFFFFFFFFFFFFFFFF AND PUSH20 0xFFFFFFFFFFFFFFFFFFFFFFFFFFFFFFFFFFFFFFFF AND DUP2 MSTORE PUSH1 0x20 ADD SWAP1 DUP2 MSTORE PUSH1 0x20 ADD PUSH1 0x0 KECCAK256 PUSH1 0x0 PUSH2 0x6C7 PUSH2 0x1A25 JUMP JUMPDEST PUSH20 0xFFFFFFFFFFFFFFFFFFFFFFFFFFFFFFFFFFFFFFFF AND PUSH20 0xFFFFFFFFFFFFFFFFFFFFFFFFFFFFFFFFFFFFFFFF AND DUP2 MSTORE PUSH1 0x20 ADD SWAP1 DUP2 MSTORE PUSH1 0x20 ADD PUSH1 0x0 KECCAK256 SLOAD PUSH2 0x216C SWAP1 SWAP3 SWAP2 SWAP1 PUSH4 0xFFFFFFFF AND JUMP JUMPDEST PUSH2 0x1A2D JUMP JUMPDEST PUSH1 0x1 SWAP1 POP SWAP4 SWAP3 POP POP POP JUMP JUMPDEST PUSH1 0x0 PUSH1 0x9 SWAP1 POP SWAP1 JUMP JUMPDEST PUSH1 0x13 PUSH1 0x0 SWAP1 SLOAD SWAP1 PUSH2 0x100 EXP SWAP1 DIV PUSH20 0xFFFFFFFFFFFFFFFFFFFFFFFFFFFFFFFFFFFFFFFF AND DUP2 JUMP JUMPDEST PUSH1 0x11 PUSH1 0x0 SWAP1 SLOAD SWAP1 PUSH2 0x100 EXP SWAP1 DIV PUSH20 0xFFFFFFFFFFFFFFFFFFFFFFFFFFFFFFFFFFFFFFFF AND DUP2 JUMP JUMPDEST PUSH2 0x77E PUSH2 0x1A25 JUMP JUMPDEST PUSH20 0xFFFFFFFFFFFFFFFFFFFFFFFFFFFFFFFFFFFFFFFF AND PUSH2 0x79C PUSH2 0xD3C JUMP JUMPDEST PUSH20 0xFFFFFFFFFFFFFFFFFFFFFFFFFFFFFFFFFFFFFFFF AND EQ DUP1 PUSH2 0x812 JUMPI POP PUSH2 0x7C1 PUSH2 0x1A25 JUMP JUMPDEST PUSH20 0xFFFFFFFFFFFFFFFFFFFFFFFFFFFFFFFFFFFFFFFF AND PUSH1 0xE PUSH1 0x1 SWAP1 SLOAD SWAP1 PUSH2 0x100 EXP SWAP1 DIV PUSH20 0xFFFFFFFFFFFFFFFFFFFFFFFFFFFFFFFFFFFFFFFF AND PUSH20 0xFFFFFFFFFFFFFFFFFFFFFFFFFFFFFFFFFFFFFFFF AND EQ JUMPDEST PUSH2 0x851 JUMPI PUSH1 0x40 MLOAD PUSH32 0x8C379A000000000000000000000000000000000000000000000000000000000 DUP2 MSTORE PUSH1 0x4 ADD PUSH2 0x848 SWAP1 PUSH2 0x348B JUMP JUMPDEST PUSH1 0x40 MLOAD DUP1 SWAP2 SUB SWAP1 REVERT JUMPDEST DUP1 PUSH1 0x13 PUSH1 0x15 PUSH2 0x100 EXP DUP2 SLOAD DUP2 PUSH1 0xFF MUL NOT AND SWAP1 DUP4 ISZERO ISZERO MUL OR SWAP1 SSTORE POP POP JUMP JUMPDEST PUSH1 0xE PUSH1 0x1 SWAP1 SLOAD SWAP1 PUSH2 0x100 EXP SWAP1 DIV PUSH20 0xFFFFFFFFFFFFFFFFFFFFFFFFFFFFFFFFFFFFFFFF AND PUSH20 0xFFFFFFFFFFFFFFFFFFFFFFFFFFFFFFFFFFFFFFFF AND PUSH2 0x8AF PUSH2 0x1A25 JUMP JUMPDEST PUSH20 0xFFFFFFFFFFFFFFFFFFFFFFFFFFFFFFFFFFFFFFFF AND EQ DUP1 PUSH2 0x925 JUMPI POP PUSH1 0xF PUSH1 0x0 SWAP1 SLOAD SWAP1 PUSH2 0x100 EXP SWAP1 DIV PUSH20 0xFFFFFFFFFFFFFFFFFFFFFFFFFFFFFFFFFFFFFFFF AND PUSH20 0xFFFFFFFFFFFFFFFFFFFFFFFFFFFFFFFFFFFFFFFF AND PUSH2 0x90D PUSH2 0x1A25 JUMP JUMPDEST PUSH20 0xFFFFFFFFFFFFFFFFFFFFFFFFFFFFFFFFFFFFFFFF AND EQ JUMPDEST DUP1 PUSH2 0x969 JUMPI POP PUSH2 0x933 PUSH2 0xD3C JUMP JUMPDEST PUSH20 0xFFFFFFFFFFFFFFFFFFFFFFFFFFFFFFFFFFFFFFFF AND PUSH2 0x951 PUSH2 0x1A25 JUMP JUMPDEST PUSH20 0xFFFFFFFFFFFFFFFFFFFFFFFFFFFFFFFFFFFFFFFF AND EQ JUMPDEST PUSH2 0x972 JUMPI PUSH1 0x0 DUP1 REVERT JUMPDEST PUSH1 0x0 SELFBALANCE SWAP1 POP PUSH2 0x980 DUP2 PUSH2 0x21D0 JUMP JUMPDEST POP JUMP JUMPDEST PUSH1 0x0 PUSH2 0x9CD PUSH1 0x2 PUSH1 0x0 DUP5 PUSH20 0xFFFFFFFFFFFFFFFFFFFFFFFFFFFFFFFFFFFFFFFF AND PUSH20 0xFFFFFFFFFFFFFFFFFFFFFFFFFFFFFFFFFFFFFFFF AND DUP2 MSTORE PUSH1 0x20 ADD SWAP1 DUP2 MSTORE PUSH1 0x20 ADD PUSH1 0x0 KECCAK256 SLOAD PUSH2 0x22CB JUMP JUMPDEST SWAP1 POP SWAP2 SWAP1 POP JUMP JUMPDEST PUSH2 0x9DC PUSH2 0x1A25 JUMP JUMPDEST PUSH20 0xFFFFFFFFFFFFFFFFFFFFFFFFFFFFFFFFFFFFFFFF AND PUSH1 0x0 DUP1 SLOAD SWAP1 PUSH2 0x100 EXP SWAP1 DIV PUSH20 0xFFFFFFFFFFFFFFFFFFFFFFFFFFFFFFFFFFFFFFFF AND PUSH20 0xFFFFFFFFFFFFFFFFFFFFFFFFFFFFFFFFFFFFFFFF AND EQ PUSH2 0xA69 JUMPI PUSH1 0x40 MLOAD PUSH32 0x8C379A000000000000000000000000000000000000000000000000000000000 DUP2 MSTORE PUSH1 0x4 ADD PUSH2 0xA60 SWAP1 PUSH2 0x33EB JUMP JUMPDEST PUSH1 0x40 MLOAD DUP1 SWAP2 SUB SWAP1 REVERT JUMPDEST PUSH1 0x0 PUSH20 0xFFFFFFFFFFFFFFFFFFFFFFFFFFFFFFFFFFFFFFFF AND PUSH1 0x0 DUP1 SLOAD SWAP1 PUSH2 0x100 EXP SWAP1 DIV PUSH20 0xFFFFFFFFFFFFFFFFFFFFFFFFFFFFFFFFFFFFFFFF AND PUSH20 0xFFFFFFFFFFFFFFFFFFFFFFFFFFFFFFFFFFFFFFFF AND PUSH32 0x8BE0079C531659141344CD1FD0A4F28419497F9722A3DAAFE3B4186F6B6457E0 PUSH1 0x40 MLOAD PUSH1 0x40 MLOAD DUP1 SWAP2 SUB SWAP1 LOG3 PUSH1 0x0 DUP1 PUSH1 0x0 PUSH2 0x100 EXP DUP2 SLOAD DUP2 PUSH20 0xFFFFFFFFFFFFFFFFFFFFFFFFFFFFFFFFFFFFFFFF MUL NOT AND SWAP1 DUP4 PUSH20 0xFFFFFFFFFFFFFFFFFFFFFFFFFFFFFFFFFFFFFFFF AND MUL OR SWAP1 SSTORE POP JUMP JUMPDEST PUSH2 0xB2F PUSH2 0x1A25 JUMP JUMPDEST PUSH20 0xFFFFFFFFFFFFFFFFFFFFFFFFFFFFFFFFFFFFFFFF AND PUSH2 0xB4D PUSH2 0xD3C JUMP JUMPDEST PUSH20 0xFFFFFFFFFFFFFFFFFFFFFFFFFFFFFFFFFFFFFFFF AND EQ DUP1 PUSH2 0xBC3 JUMPI POP PUSH2 0xB72 PUSH2 0x1A25 JUMP JUMPDEST PUSH20 0xFFFFFFFFFFFFFFFFFFFFFFFFFFFFFFFFFFFFFFFF AND PUSH1 0xE PUSH1 0x1 SWAP1 SLOAD SWAP1 PUSH2 0x100 EXP SWAP1 DIV PUSH20 0xFFFFFFFFFFFFFFFFFFFFFFFFFFFFFFFFFFFFFFFF AND PUSH20 0xFFFFFFFFFFFFFFFFFFFFFFFFFFFFFFFFFFFFFFFF AND EQ JUMPDEST PUSH2 0xC02 JUMPI PUSH1 0x40 MLOAD PUSH32 0x8C379A000000000000000000000000000000000000000000000000000000000 DUP2 MSTORE PUSH1 0x4 ADD PUSH2 0xBF9 SWAP1 PUSH2 0x348B JUMP JUMPDEST PUSH1 0x40 MLOAD DUP1 SWAP2 SUB SWAP1 REVERT JUMPDEST DUP1 PUSH20 0xFFFFFFFFFFFFFFFFFFFFFFFFFFFFFFFFFFFFFFFF AND PUSH1 0xF PUSH1 0x0 SWAP1 SLOAD SWAP1 PUSH2 0x100 EXP SWAP1 DIV PUSH20 0xFFFFFFFFFFFFFFFFFFFFFFFFFFFFFFFFFFFFFFFF AND PUSH20 0xFFFFFFFFFFFFFFFFFFFFFFFFFFFFFFFFFFFFFFFF AND PUSH32 0xA64373A629BC0C09EACF8A9CC2C7B070FA0A8B7E2E9B8AAEE408A3C02EB1676B PUSH1 0x40 MLOAD PUSH1 0x40 MLOAD DUP1 SWAP2 SUB SWAP1 LOG3 DUP1 PUSH1 0xF PUSH1 0x0 PUSH2 0x100 EXP DUP2 SLOAD DUP2 PUSH20 0xFFFFFFFFFFFFFFFFFFFFFFFFFFFFFFFFFFFFFFFF MUL NOT AND SWAP1 DUP4 PUSH20 0xFFFFFFFFFFFFFFFFFFFFFFFFFFFFFFFFFFFFFFFF AND MUL OR SWAP1 SSTORE POP PUSH1 0x1 PUSH1 0x5 PUSH1 0x0 PUSH1 0xF PUSH1 0x0 SWAP1 SLOAD SWAP1 PUSH2 0x100 EXP SWAP1 DIV PUSH20 0xFFFFFFFFFFFFFFFFFFFFFFFFFFFFFFFFFFFFFFFF AND PUSH20 0xFFFFFFFFFFFFFFFFFFFFFFFFFFFFFFFFFFFFFFFF AND PUSH20 0xFFFFFFFFFFFFFFFFFFFFFFFFFFFFFFFFFFFFFFFF AND DUP2 MSTORE PUSH1 0x20 ADD SWAP1 DUP2 MSTORE PUSH1 0x20 ADD PUSH1 0x0 KECCAK256 PUSH1 0x0 PUSH2 0x100 EXP DUP2 SLOAD DUP2 PUSH1 0xFF MUL NOT AND SWAP1 DUP4 ISZERO ISZERO MUL OR SWAP1 SSTORE POP POP JUMP JUMPDEST PUSH1 0x0 DUP1 PUSH1 0x0 SWAP1 SLOAD SWAP1 PUSH2 0x100 EXP SWAP1 DIV PUSH20 0xFFFFFFFFFFFFFFFFFFFFFFFFFFFFFFFFFFFFFFFF AND SWAP1 POP SWAP1 JUMP JUMPDEST PUSH1 0x60 PUSH1 0x40 MLOAD DUP1 PUSH1 0x40 ADD PUSH1 0x40 MSTORE DUP1 PUSH1 0x3 DUP2 MSTORE PUSH1 0x20 ADD PUSH32 0x5753500000000000000000000000000000000000000000000000000000000000 DUP2 MSTORE POP SWAP1 POP SWAP1 JUMP JUMPDEST PUSH2 0xDAA PUSH2 0x1A25 JUMP JUMPDEST PUSH20 0xFFFFFFFFFFFFFFFFFFFFFFFFFFFFFFFFFFFFFFFF AND PUSH2 0xDC8 PUSH2 0xD3C JUMP JUMPDEST PUSH20 0xFFFFFFFFFFFFFFFFFFFFFFFFFFFFFFFFFFFFFFFF AND EQ DUP1 PUSH2 0xE3E JUMPI POP PUSH2 0xDED PUSH2 0x1A25 JUMP JUMPDEST PUSH20 0xFFFFFFFFFFFFFFFFFFFFFFFFFFFFFFFFFFFFFFFF AND PUSH1 0xE PUSH1 0x1 SWAP1 SLOAD SWAP1 PUSH2 0x100 EXP SWAP1 DIV PUSH20 0xFFFFFFFFFFFFFFFFFFFFFFFFFFFFFFFFFFFFFFFF AND PUSH20 0xFFFFFFFFFFFFFFFFFFFFFFFFFFFFFFFFFFFFFFFF AND EQ JUMPDEST PUSH2 0xE7D JUMPI PUSH1 0x40 MLOAD PUSH32 0x8C379A000000000000000000000000000000000000000000000000000000000 DUP2 MSTORE PUSH1 0x4 ADD PUSH2 0xE74 SWAP1 PUSH2 0x348B JUMP JUMPDEST PUSH1 0x40 MLOAD DUP1 SWAP2 SUB SWAP1 REVERT JUMPDEST PUSH1 0xB DUP5 LT PUSH2 0xEC0 JUMPI PUSH1 0x40 MLOAD PUSH32 0x8C379A000000000000000000000000000000000000000000000000000000000 DUP2 MSTORE PUSH1 0x4 ADD PUSH2 0xEB7 SWAP1 PUSH2 0x354B JUMP JUMPDEST PUSH1 0x40 MLOAD DUP1 SWAP2 SUB SWAP1 REVERT JUMPDEST PUSH1 0xB DUP4 LT PUSH2 0xF03 JUMPI PUSH1 0x40 MLOAD PUSH32 0x8C379A000000000000000000000000000000000000000000000000000000000 DUP2 MSTORE PUSH1 0x4 ADD PUSH2 0xEFA SWAP1 PUSH2 0x354B JUMP JUMPDEST PUSH1 0x40 MLOAD DUP1 SWAP2 SUB SWAP1 REVERT JUMPDEST PUSH1 0x7 DUP3 LT PUSH2 0xF46 JUMPI PUSH1 0x40 MLOAD PUSH32 0x8C379A000000000000000000000000000000000000000000000000000000000 DUP2 MSTORE PUSH1 0x4 ADD PUSH2 0xF3D SWAP1 PUSH2 0x350B JUMP JUMPDEST PUSH1 0x40 MLOAD DUP1 SWAP2 SUB SWAP1 REVERT JUMPDEST PUSH1 0x7 DUP2 LT PUSH2 0xF89 JUMPI PUSH1 0x40 MLOAD PUSH32 0x8C379A000000000000000000000000000000000000000000000000000000000 DUP2 MSTORE PUSH1 0x4 ADD PUSH2 0xF80 SWAP1 PUSH2 0x350B JUMP JUMPDEST PUSH1 0x40 MLOAD DUP1 SWAP2 SUB SWAP1 REVERT JUMPDEST DUP4 PUSH1 0x8 DUP2 SWAP1 SSTORE POP DUP3 PUSH1 0xA DUP2 SWAP1 SSTORE POP DUP2 PUSH1 0x9 DUP2 SWAP1 SSTORE POP DUP1 PUSH1 0xB DUP2 SWAP1 SSTORE POP POP POP POP POP JUMP JUMPDEST PUSH1 0x0 PUSH2 0xFBF PUSH2 0xFB8 PUSH2 0x1A25 JUMP JUMPDEST DUP5 DUP5 PUSH2 0x1BF8 JUMP JUMPDEST PUSH1 0x1 SWAP1 POP SWAP3 SWAP2 POP POP JUMP JUMPDEST PUSH2 0xFD1 PUSH2 0x1A25 JUMP JUMPDEST PUSH20 0xFFFFFFFFFFFFFFFFFFFFFFFFFFFFFFFFFFFFFFFF AND PUSH2 0xFEF PUSH2 0xD3C JUMP JUMPDEST PUSH20 0xFFFFFFFFFFFFFFFFFFFFFFFFFFFFFFFFFFFFFFFF AND EQ DUP1 PUSH2 0x1065 JUMPI POP PUSH2 0x1014 PUSH2 0x1A25 JUMP JUMPDEST PUSH20 0xFFFFFFFFFFFFFFFFFFFFFFFFFFFFFFFFFFFFFFFF AND PUSH1 0xE PUSH1 0x1 SWAP1 SLOAD SWAP1 PUSH2 0x100 EXP SWAP1 DIV PUSH20 0xFFFFFFFFFFFFFFFFFFFFFFFFFFFFFFFFFFFFFFFF AND PUSH20 0xFFFFFFFFFFFFFFFFFFFFFFFFFFFFFFFFFFFFFFFF AND EQ JUMPDEST PUSH2 0x10A4 JUMPI PUSH1 0x40 MLOAD PUSH32 0x8C379A000000000000000000000000000000000000000000000000000000000 DUP2 MSTORE PUSH1 0x4 ADD PUSH2 0x109B SWAP1 PUSH2 0x348B JUMP JUMPDEST PUSH1 0x40 MLOAD DUP1 SWAP2 SUB SWAP1 REVERT JUMPDEST DUP1 PUSH20 0xFFFFFFFFFFFFFFFFFFFFFFFFFFFFFFFFFFFFFFFF AND PUSH1 0xE PUSH1 0x1 SWAP1 SLOAD SWAP1 PUSH2 0x100 EXP SWAP1 DIV PUSH20 0xFFFFFFFFFFFFFFFFFFFFFFFFFFFFFFFFFFFFFFFF AND PUSH20 0xFFFFFFFFFFFFFFFFFFFFFFFFFFFFFFFFFFFFFFFF AND PUSH32 0xFBBC329437E8C79F847E170730AD6DD04106B7511CAD70D06D635886D92DE83C PUSH1 0x40 MLOAD PUSH1 0x40 MLOAD DUP1 SWAP2 SUB SWAP1 LOG3 DUP1 PUSH1 0xE PUSH1 0x1 PUSH2 0x100 EXP DUP2 SLOAD DUP2 PUSH20 0xFFFFFFFFFFFFFFFFFFFFFFFFFFFFFFFFFFFFFFFF MUL NOT AND SWAP1 DUP4 PUSH20 0xFFFFFFFFFFFFFFFFFFFFFFFFFFFFFFFFFFFFFFFF AND MUL OR SWAP1 SSTORE POP PUSH1 0x1 PUSH1 0x5 PUSH1 0x0 PUSH1 0xE PUSH1 0x1 SWAP1 SLOAD SWAP1 PUSH2 0x100 EXP SWAP1 DIV PUSH20 0xFFFFFFFFFFFFFFFFFFFFFFFFFFFFFFFFFFFFFFFF AND PUSH20 0xFFFFFFFFFFFFFFFFFFFFFFFFFFFFFFFFFFFFFFFF AND PUSH20 0xFFFFFFFFFFFFFFFFFFFFFFFFFFFFFFFFFFFFFFFF AND DUP2 MSTORE PUSH1 0x20 ADD SWAP1 DUP2 MSTORE PUSH1 0x20 ADD PUSH1 0x0 KECCAK256 PUSH1 0x0 PUSH2 0x100 EXP DUP2 SLOAD DUP2 PUSH1 0xFF MUL NOT AND SWAP1 DUP4 ISZERO ISZERO MUL OR SWAP1 SSTORE POP POP JUMP JUMPDEST PUSH1 0xE PUSH1 0x1 SWAP1 SLOAD SWAP1 PUSH2 0x100 EXP SWAP1 DIV PUSH20 0xFFFFFFFFFFFFFFFFFFFFFFFFFFFFFFFFFFFFFFFF AND PUSH20 0xFFFFFFFFFFFFFFFFFFFFFFFFFFFFFFFFFFFFFFFF AND PUSH2 0x121F PUSH2 0x1A25 JUMP JUMPDEST PUSH20 0xFFFFFFFFFFFFFFFFFFFFFFFFFFFFFFFFFFFFFFFF AND EQ DUP1 PUSH2 0x1295 JUMPI POP PUSH1 0xF PUSH1 0x0 SWAP1 SLOAD SWAP1 PUSH2 0x100 EXP SWAP1 DIV PUSH20 0xFFFFFFFFFFFFFFFFFFFFFFFFFFFFFFFFFFFFFFFF AND PUSH20 0xFFFFFFFFFFFFFFFFFFFFFFFFFFFFFFFFFFFFFFFF AND PUSH2 0x127D PUSH2 0x1A25 JUMP JUMPDEST PUSH20 0xFFFFFFFFFFFFFFFFFFFFFFFFFFFFFFFFFFFFFFFF AND EQ JUMPDEST DUP1 PUSH2 0x12D9 JUMPI POP PUSH2 0x12A3 PUSH2 0xD3C JUMP JUMPDEST PUSH20 0xFFFFFFFFFFFFFFFFFFFFFFFFFFFFFFFFFFFFFFFF AND PUSH2 0x12C1 PUSH2 0x1A25 JUMP JUMPDEST PUSH20 0xFFFFFFFFFFFFFFFFFFFFFFFFFFFFFFFFFFFFFFFF AND EQ JUMPDEST PUSH2 0x12E2 JUMPI PUSH1 0x0 DUP1 REVERT JUMPDEST PUSH1 0x0 PUSH2 0x12ED ADDRESS PUSH2 0x983 JUMP JUMPDEST SWAP1 POP PUSH2 0x12F8 DUP2 PUSH2 0x2339 JUMP JUMPDEST POP JUMP JUMPDEST PUSH2 0x1303 PUSH2 0x1A25 JUMP JUMPDEST PUSH20 0xFFFFFFFFFFFFFFFFFFFFFFFFFFFFFFFFFFFFFFFF AND PUSH1 0x0 DUP1 SLOAD SWAP1 PUSH2 0x100 EXP SWAP1 DIV PUSH20 0xFFFFFFFFFFFFFFFFFFFFFFFFFFFFFFFFFFFFFFFF AND PUSH20 0xFFFFFFFFFFFFFFFFFFFFFFFFFFFFFFFFFFFFFFFF AND EQ PUSH2 0x1390 JUMPI PUSH1 0x40 MLOAD PUSH32 0x8C379A000000000000000000000000000000000000000000000000000000000 DUP2 MSTORE PUSH1 0x4 ADD PUSH2 0x1387 SWAP1 PUSH2 0x33EB JUMP JUMPDEST PUSH1 0x40 MLOAD DUP1 SWAP2 SUB SWAP1 REVERT JUMPDEST PUSH1 0x0 JUMPDEST DUP4 DUP4 SWAP1 POP DUP2 LT ISZERO PUSH2 0x1455 JUMPI DUP2 PUSH1 0x5 PUSH1 0x0 DUP7 DUP7 DUP6 DUP2 DUP2 LT PUSH2 0x13DC JUMPI PUSH32 0x4E487B7100000000000000000000000000000000000000000000000000000000 PUSH1 0x0 MSTORE PUSH1 0x32 PUSH1 0x4 MSTORE PUSH1 0x24 PUSH1 0x0 REVERT JUMPDEST SWAP1 POP PUSH1 0x20 MUL ADD PUSH1 0x20 DUP2 ADD SWAP1 PUSH2 0x13F1 SWAP2 SWAP1 PUSH2 0x2DAE JUMP JUMPDEST PUSH20 0xFFFFFFFFFFFFFFFFFFFFFFFFFFFFFFFFFFFFFFFF AND PUSH20 0xFFFFFFFFFFFFFFFFFFFFFFFFFFFFFFFFFFFFFFFF AND DUP2 MSTORE PUSH1 0x20 ADD SWAP1 DUP2 MSTORE PUSH1 0x20 ADD PUSH1 0x0 KECCAK256 PUSH1 0x0 PUSH2 0x100 EXP DUP2 SLOAD DUP2 PUSH1 0xFF MUL NOT AND SWAP1 DUP4 ISZERO ISZERO MUL OR SWAP1 SSTORE POP DUP1 DUP1 PUSH2 0x144D SWAP1 PUSH2 0x3859 JUMP JUMPDEST SWAP2 POP POP PUSH2 0x1393 JUMP JUMPDEST POP POP POP POP JUMP JUMPDEST PUSH1 0x12 PUSH1 0x0 SWAP1 SLOAD SWAP1 PUSH2 0x100 EXP SWAP1 DIV PUSH20 0xFFFFFFFFFFFFFFFFFFFFFFFFFFFFFFFFFFFFFFFF AND DUP2 JUMP JUMPDEST PUSH2 0x1489 PUSH2 0x1A25 JUMP JUMPDEST PUSH20 0xFFFFFFFFFFFFFFFFFFFFFFFFFFFFFFFFFFFFFFFF AND PUSH1 0x0 DUP1 SLOAD SWAP1 PUSH2 0x100 EXP SWAP1 DIV PUSH20 0xFFFFFFFFFFFFFFFFFFFFFFFFFFFFFFFFFFFFFFFF AND PUSH20 0xFFFFFFFFFFFFFFFFFFFFFFFFFFFFFFFFFFFFFFFF AND EQ PUSH2 0x1516 JUMPI PUSH1 0x40 MLOAD PUSH32 0x8C379A000000000000000000000000000000000000000000000000000000000 DUP2 MSTORE PUSH1 0x4 ADD PUSH2 0x150D SWAP1 PUSH2 0x33EB JUMP JUMPDEST PUSH1 0x40 MLOAD DUP1 SWAP2 SUB SWAP1 REVERT JUMPDEST PUSH1 0x0 ISZERO ISZERO PUSH1 0xE PUSH1 0x0 SWAP1 SLOAD SWAP1 PUSH2 0x100 EXP SWAP1 DIV PUSH1 0xFF AND ISZERO ISZERO EQ PUSH2 0x156C JUMPI PUSH1 0x40 MLOAD PUSH32 0x8C379A000000000000000000000000000000000000000000000000000000000 DUP2 MSTORE PUSH1 0x4 ADD PUSH2 0x1563 SWAP1 PUSH2 0x34CB JUMP JUMPDEST PUSH1 0x40 MLOAD DUP1 SWAP2 SUB SWAP1 REVERT JUMPDEST PUSH1 0x11 PUSH1 0x0 SWAP1 SLOAD SWAP1 PUSH2 0x100 EXP SWAP1 DIV PUSH20 0xFFFFFFFFFFFFFFFFFFFFFFFFFFFFFFFFFFFFFFFF AND PUSH20 0xFFFFFFFFFFFFFFFFFFFFFFFFFFFFFFFFFFFFFFFF AND PUSH4 0xC9C65396 ADDRESS DUP4 PUSH1 0x40 MLOAD DUP4 PUSH4 0xFFFFFFFF AND PUSH1 0xE0 SHL DUP2 MSTORE PUSH1 0x4 ADD PUSH2 0x15C9 SWAP3 SWAP2 SWAP1 PUSH2 0x3306 JUMP JUMPDEST PUSH1 0x20 PUSH1 0x40 MLOAD DUP1 DUP4 SUB DUP2 PUSH1 0x0 DUP8 DUP1 EXTCODESIZE ISZERO DUP1 ISZERO PUSH2 0x15E3 JUMPI PUSH1 0x0 DUP1 REVERT JUMPDEST POP GAS CALL ISZERO DUP1 ISZERO PUSH2 0x15F7 JUMPI RETURNDATASIZE PUSH1 0x0 DUP1 RETURNDATACOPY RETURNDATASIZE PUSH1 0x0 REVERT JUMPDEST POP POP POP POP PUSH1 0x40 MLOAD RETURNDATASIZE PUSH1 0x1F NOT PUSH1 0x1F DUP3 ADD AND DUP3 ADD DUP1 PUSH1 0x40 MSTORE POP DUP2 ADD SWAP1 PUSH2 0x161B SWAP2 SWAP1 PUSH2 0x2DD7 JUMP JUMPDEST PUSH1 0x13 PUSH1 0x0 PUSH2 0x100 EXP DUP2 SLOAD DUP2 PUSH20 0xFFFFFFFFFFFFFFFFFFFFFFFFFFFFFFFFFFFFFFFF MUL NOT AND SWAP1 DUP4 PUSH20 0xFFFFFFFFFFFFFFFFFFFFFFFFFFFFFFFFFFFFFFFF AND MUL OR SWAP1 SSTORE POP PUSH1 0x1 PUSH1 0xE PUSH1 0x0 PUSH2 0x100 EXP DUP2 SLOAD DUP2 PUSH1 0xFF MUL NOT AND SWAP1 DUP4 ISZERO ISZERO MUL OR SWAP1 SSTORE POP POP JUMP JUMPDEST PUSH1 0x0 PUSH1 0x4 PUSH1 0x0 DUP5 PUSH20 0xFFFFFFFFFFFFFFFFFFFFFFFFFFFFFFFFFFFFFFFF AND PUSH20 0xFFFFFFFFFFFFFFFFFFFFFFFFFFFFFFFFFFFFFFFF AND DUP2 MSTORE PUSH1 0x20 ADD SWAP1 DUP2 MSTORE PUSH1 0x20 ADD PUSH1 0x0 KECCAK256 PUSH1 0x0 DUP4 PUSH20 0xFFFFFFFFFFFFFFFFFFFFFFFFFFFFFFFFFFFFFFFF AND PUSH20 0xFFFFFFFFFFFFFFFFFFFFFFFFFFFFFFFFFFFFFFFF AND DUP2 MSTORE PUSH1 0x20 ADD SWAP1 DUP2 MSTORE PUSH1 0x20 ADD PUSH1 0x0 KECCAK256 SLOAD SWAP1 POP SWAP3 SWAP2 POP POP JUMP JUMPDEST PUSH2 0x1708 PUSH2 0x1A25 JUMP JUMPDEST PUSH20 0xFFFFFFFFFFFFFFFFFFFFFFFFFFFFFFFFFFFFFFFF AND PUSH2 0x1726 PUSH2 0xD3C JUMP JUMPDEST PUSH20 0xFFFFFFFFFFFFFFFFFFFFFFFFFFFFFFFFFFFFFFFF AND EQ DUP1 PUSH2 0x179C JUMPI POP PUSH2 0x174B PUSH2 0x1A25 JUMP JUMPDEST PUSH20 0xFFFFFFFFFFFFFFFFFFFFFFFFFFFFFFFFFFFFFFFF AND PUSH1 0xE PUSH1 0x1 SWAP1 SLOAD SWAP1 PUSH2 0x100 EXP SWAP1 DIV PUSH20 0xFFFFFFFFFFFFFFFFFFFFFFFFFFFFFFFFFFFFFFFF AND PUSH20 0xFFFFFFFFFFFFFFFFFFFFFFFFFFFFFFFFFFFFFFFF AND EQ JUMPDEST PUSH2 0x17DB JUMPI PUSH1 0x40 MLOAD PUSH32 0x8C379A000000000000000000000000000000000000000000000000000000000 DUP2 MSTORE PUSH1 0x4 ADD PUSH2 0x17D2 SWAP1 PUSH2 0x348B JUMP JUMPDEST PUSH1 0x40 MLOAD DUP1 SWAP2 SUB SWAP1 REVERT JUMPDEST DUP2 PUSH20 0xFFFFFFFFFFFFFFFFFFFFFFFFFFFFFFFFFFFFFFFF AND DUP4 PUSH20 0xFFFFFFFFFFFFFFFFFFFFFFFFFFFFFFFFFFFFFFFF AND PUSH32 0x47C33AA230EB5FD181505AA7BEFEADDD9B8A6F983989CEA73A7868448C3A9ED9 DUP4 PUSH1 0x40 MLOAD PUSH2 0x1838 SWAP2 SWAP1 PUSH2 0x356B JUMP JUMPDEST PUSH1 0x40 MLOAD DUP1 SWAP2 SUB SWAP1 LOG3 DUP3 PUSH20 0xFFFFFFFFFFFFFFFFFFFFFFFFFFFFFFFFFFFFFFFF AND PUSH4 0xA9059CBB DUP4 DUP4 PUSH1 0x40 MLOAD DUP4 PUSH4 0xFFFFFFFF AND PUSH1 0xE0 SHL DUP2 MSTORE PUSH1 0x4 ADD PUSH2 0x187B SWAP3 SWAP2 SWAP1 PUSH2 0x332F JUMP JUMPDEST PUSH1 0x20 PUSH1 0x40 MLOAD DUP1 DUP4 SUB DUP2 PUSH1 0x0 DUP8 DUP1 EXTCODESIZE ISZERO DUP1 ISZERO PUSH2 0x1895 JUMPI PUSH1 0x0 DUP1 REVERT JUMPDEST POP GAS CALL ISZERO DUP1 ISZERO PUSH2 0x18A9 JUMPI RETURNDATASIZE PUSH1 0x0 DUP1 RETURNDATACOPY RETURNDATASIZE PUSH1 0x0 REVERT JUMPDEST POP POP POP POP PUSH1 0x40 MLOAD RETURNDATASIZE PUSH1 0x1F NOT PUSH1 0x1F DUP3 ADD AND DUP3 ADD DUP1 PUSH1 0x40 MSTORE POP DUP2 ADD SWAP1 PUSH2 0x18CD SWAP2 SWAP1 PUSH2 0x2F71 JUMP JUMPDEST POP POP POP POP JUMP JUMPDEST PUSH2 0x18DB PUSH2 0x1A25 JUMP JUMPDEST PUSH20 0xFFFFFFFFFFFFFFFFFFFFFFFFFFFFFFFFFFFFFFFF AND PUSH1 0x0 DUP1 SLOAD SWAP1 PUSH2 0x100 EXP SWAP1 DIV PUSH20 0xFFFFFFFFFFFFFFFFFFFFFFFFFFFFFFFFFFFFFFFF AND PUSH20 0xFFFFFFFFFFFFFFFFFFFFFFFFFFFFFFFFFFFFFFFF AND EQ PUSH2 0x1968 JUMPI PUSH1 0x40 MLOAD PUSH32 0x8C379A000000000000000000000000000000000000000000000000000000000 DUP2 MSTORE PUSH1 0x4 ADD PUSH2 0x195F SWAP1 PUSH2 0x33EB JUMP JUMPDEST PUSH1 0x40 MLOAD DUP1 SWAP2 SUB SWAP1 REVERT JUMPDEST DUP1 PUSH20 0xFFFFFFFFFFFFFFFFFFFFFFFFFFFFFFFFFFFFFFFF AND PUSH1 0x0 DUP1 SLOAD SWAP1 PUSH2 0x100 EXP SWAP1 DIV PUSH20 0xFFFFFFFFFFFFFFFFFFFFFFFFFFFFFFFFFFFFFFFF AND PUSH20 0xFFFFFFFFFFFFFFFFFFFFFFFFFFFFFFFFFFFFFFFF AND PUSH32 0x8BE0079C531659141344CD1FD0A4F28419497F9722A3DAAFE3B4186F6B6457E0 PUSH1 0x40 MLOAD PUSH1 0x40 MLOAD DUP1 SWAP2 SUB SWAP1 LOG3 DUP1 PUSH1 0x0 DUP1 PUSH2 0x100 EXP DUP2 SLOAD DUP2 PUSH20 0xFFFFFFFFFFFFFFFFFFFFFFFFFFFFFFFFFFFFFFFF MUL NOT AND SWAP1 DUP4 PUSH20 0xFFFFFFFFFFFFFFFFFFFFFFFFFFFFFFFFFFFFFFFF AND MUL OR SWAP1 SSTORE POP POP JUMP JUMPDEST PUSH1 0x0 CALLER SWAP1 POP SWAP1 JUMP JUMPDEST PUSH1 0x0 PUSH20 0xFFFFFFFFFFFFFFFFFFFFFFFFFFFFFFFFFFFFFFFF AND DUP4 PUSH20 0xFFFFFFFFFFFFFFFFFFFFFFFFFFFFFFFFFFFFFFFF AND EQ ISZERO PUSH2 0x1A9D JUMPI PUSH1 0x40 MLOAD PUSH32 0x8C379A000000000000000000000000000000000000000000000000000000000 DUP2 MSTORE PUSH1 0x4 ADD PUSH2 0x1A94 SWAP1 PUSH2 0x352B JUMP JUMPDEST PUSH1 0x40 MLOAD DUP1 SWAP2 SUB SWAP1 REVERT JUMPDEST PUSH1 0x0 PUSH20 0xFFFFFFFFFFFFFFFFFFFFFFFFFFFFFFFFFFFFFFFF AND DUP3 PUSH20 0xFFFFFFFFFFFFFFFFFFFFFFFFFFFFFFFFFFFFFFFF AND EQ ISZERO PUSH2 0x1B0D JUMPI PUSH1 0x40 MLOAD PUSH32 0x8C379A000000000000000000000000000000000000000000000000000000000 DUP2 MSTORE PUSH1 0x4 ADD PUSH2 0x1B04 SWAP1 PUSH2 0x342B JUMP JUMPDEST PUSH1 0x40 MLOAD DUP1 SWAP2 SUB SWAP1 REVERT JUMPDEST DUP1 PUSH1 0x4 PUSH1 0x0 DUP6 PUSH20 0xFFFFFFFFFFFFFFFFFFFFFFFFFFFFFFFFFFFFFFFF AND PUSH20 0xFFFFFFFFFFFFFFFFFFFFFFFFFFFFFFFFFFFFFFFF AND DUP2 MSTORE PUSH1 0x20 ADD SWAP1 DUP2 MSTORE PUSH1 0x20 ADD PUSH1 0x0 KECCAK256 PUSH1 0x0 DUP5 PUSH20 0xFFFFFFFFFFFFFFFFFFFFFFFFFFFFFFFFFFFFFFFF AND PUSH20 0xFFFFFFFFFFFFFFFFFFFFFFFFFFFFFFFFFFFFFFFF AND DUP2 MSTORE PUSH1 0x20 ADD SWAP1 DUP2 MSTORE PUSH1 0x20 ADD PUSH1 0x0 KECCAK256 DUP2 SWAP1 SSTORE POP DUP2 PUSH20 0xFFFFFFFFFFFFFFFFFFFFFFFFFFFFFFFFFFFFFFFF AND DUP4 PUSH20 0xFFFFFFFFFFFFFFFFFFFFFFFFFFFFFFFFFFFFFFFF AND PUSH32 0x8C5BE1E5EBEC7D5BD14F71427D1E84F3DD0314C0F7B2291E5B200AC8C7C3B925 DUP4 PUSH1 0x40 MLOAD PUSH2 0x1BEB SWAP2 SWAP1 PUSH2 0x356B JUMP JUMPDEST PUSH1 0x40 MLOAD DUP1 SWAP2 SUB SWAP1 LOG3 POP POP POP JUMP JUMPDEST PUSH1 0x0 PUSH20 0xFFFFFFFFFFFFFFFFFFFFFFFFFFFFFFFFFFFFFFFF AND DUP4 PUSH20 0xFFFFFFFFFFFFFFFFFFFFFFFFFFFFFFFFFFFFFFFF AND EQ ISZERO PUSH2 0x1C68 JUMPI PUSH1 0x40 MLOAD PUSH32 0x8C379A000000000000000000000000000000000000000000000000000000000 DUP2 MSTORE PUSH1 0x4 ADD PUSH2 0x1C5F SWAP1 PUSH2 0x34EB JUMP JUMPDEST PUSH1 0x40 MLOAD DUP1 SWAP2 SUB SWAP1 REVERT JUMPDEST PUSH1 0x0 PUSH20 0xFFFFFFFFFFFFFFFFFFFFFFFFFFFFFFFFFFFFFFFF AND DUP3 PUSH20 0xFFFFFFFFFFFFFFFFFFFFFFFFFFFFFFFFFFFFFFFF AND EQ ISZERO PUSH2 0x1CD8 JUMPI PUSH1 0x40 MLOAD PUSH32 0x8C379A000000000000000000000000000000000000000000000000000000000 DUP2 MSTORE PUSH1 0x4 ADD PUSH2 0x1CCF SWAP1 PUSH2 0x33CB JUMP JUMPDEST PUSH1 0x40 MLOAD DUP1 SWAP2 SUB SWAP1 REVERT JUMPDEST PUSH1 0x0 DUP2 GT PUSH2 0x1D1B JUMPI PUSH1 0x40 MLOAD PUSH32 0x8C379A000000000000000000000000000000000000000000000000000000000 DUP2 MSTORE PUSH1 0x4 ADD PUSH2 0x1D12 SWAP1 PUSH2 0x34AB JUMP JUMPDEST PUSH1 0x40 MLOAD DUP1 SWAP2 SUB SWAP1 REVERT JUMPDEST PUSH1 0x0 PUSH1 0xC DUP2 SWAP1 SSTORE POP PUSH1 0x0 PUSH1 0xD DUP2 SWAP1 SSTORE POP PUSH2 0x1D33 PUSH2 0xD3C JUMP JUMPDEST PUSH20 0xFFFFFFFFFFFFFFFFFFFFFFFFFFFFFFFFFFFFFFFF AND DUP4 PUSH20 0xFFFFFFFFFFFFFFFFFFFFFFFFFFFFFFFFFFFFFFFF AND EQ ISZERO DUP1 ISZERO PUSH2 0x1DA1 JUMPI POP PUSH2 0x1D71 PUSH2 0xD3C JUMP JUMPDEST PUSH20 0xFFFFFFFFFFFFFFFFFFFFFFFFFFFFFFFFFFFFFFFF AND DUP3 PUSH20 0xFFFFFFFFFFFFFFFFFFFFFFFFFFFFFFFFFFFFFFFF AND EQ ISZERO JUMPDEST ISZERO PUSH2 0x215C JUMPI PUSH1 0x0 PUSH2 0x1DB1 ADDRESS PUSH2 0x983 JUMP JUMPDEST SWAP1 POP PUSH1 0x13 PUSH1 0x14 SWAP1 SLOAD SWAP1 PUSH2 0x100 EXP SWAP1 DIV PUSH1 0xFF AND ISZERO DUP1 ISZERO PUSH2 0x1E1E JUMPI POP PUSH1 0x13 PUSH1 0x0 SWAP1 SLOAD SWAP1 PUSH2 0x100 EXP SWAP1 DIV PUSH20 0xFFFFFFFFFFFFFFFFFFFFFFFFFFFFFFFFFFFFFFFF AND PUSH20 0xFFFFFFFFFFFFFFFFFFFFFFFFFFFFFFFFFFFFFFFF AND DUP5 PUSH20 0xFFFFFFFFFFFFFFFFFFFFFFFFFFFFFFFFFFFFFFFF AND EQ ISZERO JUMPDEST DUP1 ISZERO PUSH2 0x1E36 JUMPI POP PUSH1 0x13 PUSH1 0x15 SWAP1 SLOAD SWAP1 PUSH2 0x100 EXP SWAP1 DIV PUSH1 0xFF AND JUMPDEST DUP1 ISZERO PUSH2 0x1E42 JUMPI POP PUSH1 0x0 DUP2 GT JUMPDEST ISZERO PUSH2 0x1E6A JUMPI PUSH2 0x1E50 DUP2 PUSH2 0x2339 JUMP JUMPDEST PUSH1 0x0 SELFBALANCE SWAP1 POP PUSH1 0x0 DUP2 GT ISZERO PUSH2 0x1E68 JUMPI PUSH2 0x1E67 SELFBALANCE PUSH2 0x21D0 JUMP JUMPDEST JUMPDEST POP JUMPDEST PUSH1 0x13 PUSH1 0x0 SWAP1 SLOAD SWAP1 PUSH2 0x100 EXP SWAP1 DIV PUSH20 0xFFFFFFFFFFFFFFFFFFFFFFFFFFFFFFFFFFFFFFFF AND PUSH20 0xFFFFFFFFFFFFFFFFFFFFFFFFFFFFFFFFFFFFFFFF AND DUP5 PUSH20 0xFFFFFFFFFFFFFFFFFFFFFFFFFFFFFFFFFFFFFFFF AND EQ DUP1 ISZERO PUSH2 0x1F15 JUMPI POP PUSH1 0x10 PUSH1 0x0 SWAP1 SLOAD SWAP1 PUSH2 0x100 EXP SWAP1 DIV PUSH20 0xFFFFFFFFFFFFFFFFFFFFFFFFFFFFFFFFFFFFFFFF AND PUSH20 0xFFFFFFFFFFFFFFFFFFFFFFFFFFFFFFFFFFFFFFFF AND DUP4 PUSH20 0xFFFFFFFFFFFFFFFFFFFFFFFFFFFFFFFFFFFFFFFF AND EQ ISZERO JUMPDEST ISZERO PUSH2 0x1F2D JUMPI PUSH1 0x8 SLOAD PUSH1 0xC DUP2 SWAP1 SSTORE POP PUSH1 0x9 SLOAD PUSH1 0xD DUP2 SWAP1 SSTORE POP JUMPDEST PUSH1 0x13 PUSH1 0x0 SWAP1 SLOAD SWAP1 PUSH2 0x100 EXP SWAP1 DIV PUSH20 0xFFFFFFFFFFFFFFFFFFFFFFFFFFFFFFFFFFFFFFFF AND PUSH20 0xFFFFFFFFFFFFFFFFFFFFFFFFFFFFFFFFFFFFFFFF AND DUP4 PUSH20 0xFFFFFFFFFFFFFFFFFFFFFFFFFFFFFFFFFFFFFFFF AND EQ DUP1 ISZERO PUSH2 0x1FD8 JUMPI POP PUSH1 0x10 PUSH1 0x0 SWAP1 SLOAD SWAP1 PUSH2 0x100 EXP SWAP1 DIV PUSH20 0xFFFFFFFFFFFFFFFFFFFFFFFFFFFFFFFFFFFFFFFF AND PUSH20 0xFFFFFFFFFFFFFFFFFFFFFFFFFFFFFFFFFFFFFFFF AND DUP5 PUSH20 0xFFFFFFFFFFFFFFFFFFFFFFFFFFFFFFFFFFFFFFFF AND EQ ISZERO JUMPDEST ISZERO PUSH2 0x1FF0 JUMPI PUSH1 0xA SLOAD PUSH1 0xC DUP2 SWAP1 SSTORE POP PUSH1 0xB SLOAD PUSH1 0xD DUP2 SWAP1 SSTORE POP JUMPDEST PUSH1 0x5 PUSH1 0x0 DUP6 PUSH20 0xFFFFFFFFFFFFFFFFFFFFFFFFFFFFFFFFFFFFFFFF AND PUSH20 0xFFFFFFFFFFFFFFFFFFFFFFFFFFFFFFFFFFFFFFFF AND DUP2 MSTORE PUSH1 0x20 ADD SWAP1 DUP2 MSTORE PUSH1 0x20 ADD PUSH1 0x0 KECCAK256 PUSH1 0x0 SWAP1 SLOAD SWAP1 PUSH2 0x100 EXP SWAP1 DIV PUSH1 0xFF AND DUP1 PUSH2 0x2091 JUMPI POP PUSH1 0x5 PUSH1 0x0 DUP5 PUSH20 0xFFFFFFFFFFFFFFFFFFFFFFFFFFFFFFFFFFFFFFFF AND PUSH20 0xFFFFFFFFFFFFFFFFFFFFFFFFFFFFFFFFFFFFFFFF AND DUP2 MSTORE PUSH1 0x20 ADD SWAP1 DUP2 MSTORE PUSH1 0x20 ADD PUSH1 0x0 KECCAK256 PUSH1 0x0 SWAP1 SLOAD SWAP1 PUSH2 0x100 EXP SWAP1 DIV PUSH1 0xFF AND JUMPDEST DUP1 PUSH2 0x2144 JUMPI POP PUSH1 0x13 PUSH1 0x0 SWAP1 SLOAD SWAP1 PUSH2 0x100 EXP SWAP1 DIV PUSH20 0xFFFFFFFFFFFFFFFFFFFFFFFFFFFFFFFFFFFFFFFF AND PUSH20 0xFFFFFFFFFFFFFFFFFFFFFFFFFFFFFFFFFFFFFFFF AND DUP5 PUSH20 0xFFFFFFFFFFFFFFFFFFFFFFFFFFFFFFFFFFFFFFFF AND EQ ISZERO DUP1 ISZERO PUSH2 0x2143 JUMPI POP PUSH1 0x13 PUSH1 0x0 SWAP1 SLOAD SWAP1 PUSH2 0x100 EXP SWAP1 DIV PUSH20 0xFFFFFFFFFFFFFFFFFFFFFFFFFFFFFFFFFFFFFFFF AND PUSH20 0xFFFFFFFFFFFFFFFFFFFFFFFFFFFFFFFFFFFFFFFF AND DUP4 PUSH20 0xFFFFFFFFFFFFFFFFFFFFFFFFFFFFFFFFFFFFFFFF AND EQ ISZERO JUMPDEST JUMPDEST ISZERO PUSH2 0x215A JUMPI PUSH1 0x0 PUSH1 0xC DUP2 SWAP1 SSTORE POP PUSH1 0x0 PUSH1 0xD DUP2 SWAP1 SSTORE POP JUMPDEST POP JUMPDEST PUSH2 0x2167 DUP4 DUP4 DUP4 PUSH2 0x2633 JUMP JUMPDEST POP POP POP JUMP JUMPDEST PUSH1 0x0 DUP4 DUP4 GT ISZERO DUP3 SWAP1 PUSH2 0x21B4 JUMPI PUSH1 0x40 MLOAD PUSH32 0x8C379A000000000000000000000000000000000000000000000000000000000 DUP2 MSTORE PUSH1 0x4 ADD PUSH2 0x21AB SWAP2 SWAP1 PUSH2 0x33A9 JUMP JUMPDEST PUSH1 0x40 MLOAD DUP1 SWAP2 SUB SWAP1 REVERT JUMPDEST POP PUSH1 0x0 DUP4 DUP6 PUSH2 0x21C3 SWAP2 SWAP1 PUSH2 0x3731 JUMP JUMPDEST SWAP1 POP DUP1 SWAP2 POP POP SWAP4 SWAP3 POP POP POP JUMP JUMPDEST PUSH1 0xE PUSH1 0x1 SWAP1 SLOAD SWAP1 PUSH2 0x100 EXP SWAP1 DIV PUSH20 0xFFFFFFFFFFFFFFFFFFFFFFFFFFFFFFFFFFFFFFFF AND PUSH20 0xFFFFFFFFFFFFFFFFFFFFFFFFFFFFFFFFFFFFFFFF AND PUSH2 0x8FC PUSH2 0x2220 PUSH1 0x2 DUP5 PUSH2 0x2643 SWAP1 SWAP2 SWAP1 PUSH4 0xFFFFFFFF AND JUMP JUMPDEST SWAP1 DUP2 ISZERO MUL SWAP1 PUSH1 0x40 MLOAD PUSH1 0x0 PUSH1 0x40 MLOAD DUP1 DUP4 SUB DUP2 DUP6 DUP9 DUP9 CALL SWAP4 POP POP POP POP ISZERO DUP1 ISZERO PUSH2 0x224B JUMPI RETURNDATASIZE PUSH1 0x0 DUP1 RETURNDATACOPY RETURNDATASIZE PUSH1 0x0 REVERT JUMPDEST POP PUSH1 0xF PUSH1 0x0 SWAP1 SLOAD SWAP1 PUSH2 0x100 EXP SWAP1 DIV PUSH20 0xFFFFFFFFFFFFFFFFFFFFFFFFFFFFFFFFFFFFFFFF AND PUSH20 0xFFFFFFFFFFFFFFFFFFFFFFFFFFFFFFFFFFFFFFFF AND PUSH2 0x8FC PUSH2 0x229C PUSH1 0x2 DUP5 PUSH2 0x2643 SWAP1 SWAP2 SWAP1 PUSH4 0xFFFFFFFF AND JUMP JUMPDEST SWAP1 DUP2 ISZERO MUL SWAP1 PUSH1 0x40 MLOAD PUSH1 0x0 PUSH1 0x40 MLOAD DUP1 DUP4 SUB DUP2 DUP6 DUP9 DUP9 CALL SWAP4 POP POP POP POP ISZERO DUP1 ISZERO PUSH2 0x22C7 JUMPI RETURNDATASIZE PUSH1 0x0 DUP1 RETURNDATACOPY RETURNDATASIZE PUSH1 0x0 REVERT JUMPDEST POP POP JUMP JUMPDEST PUSH1 0x0 PUSH1 0x6 SLOAD DUP3 GT ISZERO PUSH2 0x2312 JUMPI PUSH1 0x40 MLOAD PUSH32 0x8C379A000000000000000000000000000000000000000000000000000000000 DUP2 MSTORE PUSH1 0x4 ADD PUSH2 0x2309 SWAP1 PUSH2 0x340B JUMP JUMPDEST PUSH1 0x40 MLOAD DUP1 SWAP2 SUB SWAP1 REVERT JUMPDEST PUSH1 0x0 PUSH2 0x231C PUSH2 0x268D JUMP JUMPDEST SWAP1 POP PUSH2 0x2331 DUP2 DUP5 PUSH2 0x2643 SWAP1 SWAP2 SWAP1 PUSH4 0xFFFFFFFF AND JUMP JUMPDEST SWAP2 POP POP SWAP2 SWAP1 POP JUMP JUMPDEST PUSH1 0x1 PUSH1 0x13 PUSH1 0x14 PUSH2 0x100 EXP DUP2 SLOAD DUP2 PUSH1 0xFF MUL NOT AND SWAP1 DUP4 ISZERO ISZERO MUL OR SWAP1 SSTORE POP PUSH1 0x0 PUSH1 0x2 PUSH8 0xFFFFFFFFFFFFFFFF DUP2 GT ISZERO PUSH2 0x2397 JUMPI PUSH32 0x4E487B7100000000000000000000000000000000000000000000000000000000 PUSH1 0x0 MSTORE PUSH1 0x41 PUSH1 0x4 MSTORE PUSH1 0x24 PUSH1 0x0 REVERT JUMPDEST PUSH1 0x40 MLOAD SWAP1 DUP1 DUP3 MSTORE DUP1 PUSH1 0x20 MUL PUSH1 0x20 ADD DUP3 ADD PUSH1 0x40 MSTORE DUP1 ISZERO PUSH2 0x23C5 JUMPI DUP2 PUSH1 0x20 ADD PUSH1 0x20 DUP3 MUL DUP1 CALLDATASIZE DUP4 CALLDATACOPY DUP1 DUP3 ADD SWAP2 POP POP SWAP1 POP JUMPDEST POP SWAP1 POP ADDRESS DUP2 PUSH1 0x0 DUP2 MLOAD DUP2 LT PUSH2 0x2403 JUMPI PUSH32 0x4E487B7100000000000000000000000000000000000000000000000000000000 PUSH1 0x0 MSTORE PUSH1 0x32 PUSH1 0x4 MSTORE PUSH1 0x24 PUSH1 0x0 REVERT JUMPDEST PUSH1 0x20 MUL PUSH1 0x20 ADD ADD SWAP1 PUSH20 0xFFFFFFFFFFFFFFFFFFFFFFFFFFFFFFFFFFFFFFFF AND SWAP1 DUP2 PUSH20 0xFFFFFFFFFFFFFFFFFFFFFFFFFFFFFFFFFFFFFFFF AND DUP2 MSTORE POP POP PUSH1 0x10 PUSH1 0x0 SWAP1 SLOAD SWAP1 PUSH2 0x100 EXP SWAP1 DIV PUSH20 0xFFFFFFFFFFFFFFFFFFFFFFFFFFFFFFFFFFFFFFFF AND PUSH20 0xFFFFFFFFFFFFFFFFFFFFFFFFFFFFFFFFFFFFFFFF AND PUSH4 0xAD5C4648 PUSH1 0x40 MLOAD DUP2 PUSH4 0xFFFFFFFF AND PUSH1 0xE0 SHL DUP2 MSTORE PUSH1 0x4 ADD PUSH1 0x20 PUSH1 0x40 MLOAD DUP1 DUP4 SUB DUP2 DUP7 DUP1 EXTCODESIZE ISZERO DUP1 ISZERO PUSH2 0x24A5 JUMPI PUSH1 0x0 DUP1 REVERT JUMPDEST POP GAS STATICCALL ISZERO DUP1 ISZERO PUSH2 0x24B9 JUMPI RETURNDATASIZE PUSH1 0x0 DUP1 RETURNDATACOPY RETURNDATASIZE PUSH1 0x0 REVERT JUMPDEST POP POP POP POP PUSH1 0x40 MLOAD RETURNDATASIZE PUSH1 0x1F NOT PUSH1 0x1F DUP3 ADD AND DUP3 ADD DUP1 PUSH1 0x40 MSTORE POP DUP2 ADD SWAP1 PUSH2 0x24DD SWAP2 SWAP1 PUSH2 0x2DD7 JUMP JUMPDEST DUP2 PUSH1 0x1 DUP2 MLOAD DUP2 LT PUSH2 0x2517 JUMPI PUSH32 0x4E487B7100000000000000000000000000000000000000000000000000000000 PUSH1 0x0 MSTORE PUSH1 0x32 PUSH1 0x4 MSTORE PUSH1 0x24 PUSH1 0x0 REVERT JUMPDEST PUSH1 0x20 MUL PUSH1 0x20 ADD ADD SWAP1 PUSH20 0xFFFFFFFFFFFFFFFFFFFFFFFFFFFFFFFFFFFFFFFF AND SWAP1 DUP2 PUSH20 0xFFFFFFFFFFFFFFFFFFFFFFFFFFFFFFFFFFFFFFFF AND DUP2 MSTORE POP POP PUSH2 0x257E ADDRESS PUSH1 0x10 PUSH1 0x0 SWAP1 SLOAD SWAP1 PUSH2 0x100 EXP SWAP1 DIV PUSH20 0xFFFFFFFFFFFFFFFFFFFFFFFFFFFFFFFFFFFFFFFF AND DUP5 PUSH2 0x1A2D JUMP JUMPDEST PUSH1 0x10 PUSH1 0x0 SWAP1 SLOAD SWAP1 PUSH2 0x100 EXP SWAP1 DIV PUSH20 0xFFFFFFFFFFFFFFFFFFFFFFFFFFFFFFFFFFFFFFFF AND PUSH20 0xFFFFFFFFFFFFFFFFFFFFFFFFFFFFFFFFFFFFFFFF AND PUSH4 0x791AC947 DUP4 PUSH1 0x0 DUP5 ADDRESS TIMESTAMP PUSH1 0x40 MLOAD DUP7 PUSH4 0xFFFFFFFF AND PUSH1 0xE0 SHL DUP2 MSTORE PUSH1 0x4 ADD PUSH2 0x25E2 SWAP6 SWAP5 SWAP4 SWAP3 SWAP2 SWAP1 PUSH2 0x3586 JUMP JUMPDEST PUSH1 0x0 PUSH1 0x40 MLOAD DUP1 DUP4 SUB DUP2 PUSH1 0x0 DUP8 DUP1 EXTCODESIZE ISZERO DUP1 ISZERO PUSH2 0x25FC JUMPI PUSH1 0x0 DUP1 REVERT JUMPDEST POP GAS CALL ISZERO DUP1 ISZERO PUSH2 0x2610 JUMPI RETURNDATASIZE PUSH1 0x0 DUP1 RETURNDATACOPY RETURNDATASIZE PUSH1 0x0 REVERT JUMPDEST POP POP POP POP POP PUSH1 0x0 PUSH1 0x13 PUSH1 0x14 PUSH2 0x100 EXP DUP2 SLOAD DUP2 PUSH1 0xFF MUL NOT AND SWAP1 DUP4 ISZERO ISZERO MUL OR SWAP1 SSTORE POP POP JUMP JUMPDEST PUSH2 0x263E DUP4 DUP4 DUP4 PUSH2 0x26B8 JUMP JUMPDEST POP POP POP JUMP JUMPDEST PUSH1 0x0 PUSH2 0x2685 DUP4 DUP4 PUSH1 0x40 MLOAD DUP1 PUSH1 0x40 ADD PUSH1 0x40 MSTORE DUP1 PUSH1 0x1A DUP2 MSTORE PUSH1 0x20 ADD PUSH32 0x536166654D6174683A206469766973696F6E206279207A65726F000000000000 DUP2 MSTORE POP PUSH2 0x2883 JUMP JUMPDEST SWAP1 POP SWAP3 SWAP2 POP POP JUMP JUMPDEST PUSH1 0x0 DUP1 PUSH1 0x0 PUSH2 0x269A PUSH2 0x28E6 JUMP JUMPDEST SWAP2 POP SWAP2 POP PUSH2 0x26B1 DUP2 DUP4 PUSH2 0x2643 SWAP1 SWAP2 SWAP1 PUSH4 0xFFFFFFFF AND JUMP JUMPDEST SWAP3 POP POP POP SWAP1 JUMP JUMPDEST PUSH1 0x0 DUP1 PUSH1 0x0 DUP1 PUSH1 0x0 DUP1 PUSH2 0x26CA DUP8 PUSH2 0x2945 JUMP JUMPDEST SWAP6 POP SWAP6 POP SWAP6 POP SWAP6 POP SWAP6 POP SWAP6 POP PUSH2 0x2728 DUP7 PUSH1 0x2 PUSH1 0x0 DUP13 PUSH20 0xFFFFFFFFFFFFFFFFFFFFFFFFFFFFFFFFFFFFFFFF AND PUSH20 0xFFFFFFFFFFFFFFFFFFFFFFFFFFFFFFFFFFFFFFFF AND DUP2 MSTORE PUSH1 0x20 ADD SWAP1 DUP2 MSTORE PUSH1 0x20 ADD PUSH1 0x0 KECCAK256 SLOAD PUSH2 0x29AD SWAP1 SWAP2 SWAP1 PUSH4 0xFFFFFFFF AND JUMP JUMPDEST PUSH1 0x2 PUSH1 0x0 DUP12 PUSH20 0xFFFFFFFFFFFFFFFFFFFFFFFFFFFFFFFFFFFFFFFF AND PUSH20 0xFFFFFFFFFFFFFFFFFFFFFFFFFFFFFFFFFFFFFFFF AND DUP2 MSTORE PUSH1 0x20 ADD SWAP1 DUP2 MSTORE PUSH1 0x20 ADD PUSH1 0x0 KECCAK256 DUP2 SWAP1 SSTORE POP PUSH2 0x27BD DUP6 PUSH1 0x2 PUSH1 0x0 DUP12 PUSH20 0xFFFFFFFFFFFFFFFFFFFFFFFFFFFFFFFFFFFFFFFF AND PUSH20 0xFFFFFFFFFFFFFFFFFFFFFFFFFFFFFFFFFFFFFFFF AND DUP2 MSTORE PUSH1 0x20 ADD SWAP1 DUP2 MSTORE PUSH1 0x20 ADD PUSH1 0x0 KECCAK256 SLOAD PUSH2 0x29F7 SWAP1 SWAP2 SWAP1 PUSH4 0xFFFFFFFF AND JUMP JUMPDEST PUSH1 0x2 PUSH1 0x0 DUP11 PUSH20 0xFFFFFFFFFFFFFFFFFFFFFFFFFFFFFFFFFFFFFFFF AND PUSH20 0xFFFFFFFFFFFFFFFFFFFFFFFFFFFFFFFFFFFFFFFF AND DUP2 MSTORE PUSH1 0x20 ADD SWAP1 DUP2 MSTORE PUSH1 0x20 ADD PUSH1 0x0 KECCAK256 DUP2 SWAP1 SSTORE POP PUSH2 0x2809 DUP2 PUSH2 0x2A55 JUMP JUMPDEST PUSH2 0x2813 DUP5 DUP4 PUSH2 0x2B12 JUMP JUMPDEST DUP8 PUSH20 0xFFFFFFFFFFFFFFFFFFFFFFFFFFFFFFFFFFFFFFFF AND DUP10 PUSH20 0xFFFFFFFFFFFFFFFFFFFFFFFFFFFFFFFFFFFFFFFF AND PUSH32 0xDDF252AD1BE2C89B69C2B068FC378DAA952BA7F163C4A11628F55A4DF523B3EF DUP6 PUSH1 0x40 MLOAD PUSH2 0x2870 SWAP2 SWAP1 PUSH2 0x356B JUMP JUMPDEST PUSH1 0x40 MLOAD DUP1 SWAP2 SUB SWAP1 LOG3 POP POP POP POP POP POP POP POP POP JUMP JUMPDEST PUSH1 0x0 DUP1 DUP4 GT DUP3 SWAP1 PUSH2 0x28CA JUMPI PUSH1 0x40 MLOAD PUSH32 0x8C379A000000000000000000000000000000000000000000000000000000000 DUP2 MSTORE PUSH1 0x4 ADD PUSH2 0x28C1 SWAP2 SWAP1 PUSH2 0x33A9 JUMP JUMPDEST PUSH1 0x40 MLOAD DUP1 SWAP2 SUB SWAP1 REVERT JUMPDEST POP PUSH1 0x0 DUP4 DUP6 PUSH2 0x28D9 SWAP2 SWAP1 PUSH2 0x36A6 JUMP JUMPDEST SWAP1 POP DUP1 SWAP2 POP POP SWAP4 SWAP3 POP POP POP JUMP JUMPDEST PUSH1 0x0 DUP1 PUSH1 0x0 PUSH1 0x6 SLOAD SWAP1 POP PUSH1 0x0 PUSH8 0xDE0B6B3A7640000 SWAP1 POP PUSH2 0x291A PUSH8 0xDE0B6B3A7640000 PUSH1 0x6 SLOAD PUSH2 0x2643 SWAP1 SWAP2 SWAP1 PUSH4 0xFFFFFFFF AND JUMP JUMPDEST DUP3 LT ISZERO PUSH2 0x2938 JUMPI PUSH1 0x6 SLOAD PUSH8 0xDE0B6B3A7640000 SWAP4 POP SWAP4 POP POP POP PUSH2 0x2941 JUMP JUMPDEST DUP2 DUP2 SWAP4 POP SWAP4 POP POP POP JUMPDEST SWAP1 SWAP2 JUMP JUMPDEST PUSH1 0x0 DUP1 PUSH1 0x0 DUP1 PUSH1 0x0 DUP1 PUSH1 0x0 DUP1 PUSH1 0x0 PUSH2 0x2962 DUP11 PUSH1 0xC SLOAD PUSH1 0xD SLOAD PUSH2 0x2B4C JUMP JUMPDEST SWAP3 POP SWAP3 POP SWAP3 POP PUSH1 0x0 PUSH2 0x2972 PUSH2 0x268D JUMP JUMPDEST SWAP1 POP PUSH1 0x0 DUP1 PUSH1 0x0 PUSH2 0x2985 DUP15 DUP8 DUP8 DUP8 PUSH2 0x2BE2 JUMP JUMPDEST SWAP3 POP SWAP3 POP SWAP3 POP DUP3 DUP3 DUP3 DUP10 DUP10 DUP10 SWAP13 POP SWAP13 POP SWAP13 POP SWAP13 POP SWAP13 POP SWAP13 POP POP POP POP POP POP POP POP SWAP2 SWAP4 SWAP6 POP SWAP2 SWAP4 SWAP6 JUMP JUMPDEST PUSH1 0x0 PUSH2 0x29EF DUP4 DUP4 PUSH1 0x40 MLOAD DUP1 PUSH1 0x40 ADD PUSH1 0x40 MSTORE DUP1 PUSH1 0x1E DUP2 MSTORE PUSH1 0x20 ADD PUSH32 0x536166654D6174683A207375627472616374696F6E206F766572666C6F770000 DUP2 MSTORE POP PUSH2 0x216C JUMP JUMPDEST SWAP1 POP SWAP3 SWAP2 POP POP JUMP JUMPDEST PUSH1 0x0 DUP1 DUP3 DUP5 PUSH2 0x2A06 SWAP2 SWAP1 PUSH2 0x3650 JUMP JUMPDEST SWAP1 POP DUP4 DUP2 LT ISZERO PUSH2 0x2A4B JUMPI PUSH1 0x40 MLOAD PUSH32 0x8C379A000000000000000000000000000000000000000000000000000000000 DUP2 MSTORE PUSH1 0x4 ADD PUSH2 0x2A42 SWAP1 PUSH2 0x344B JUMP JUMPDEST PUSH1 0x40 MLOAD DUP1 SWAP2 SUB SWAP1 REVERT JUMPDEST DUP1 SWAP2 POP POP SWAP3 SWAP2 POP POP JUMP JUMPDEST PUSH1 0x0 PUSH2 0x2A5F PUSH2 0x268D JUMP JUMPDEST SWAP1 POP PUSH1 0x0 PUSH2 0x2A76 DUP3 DUP5 PUSH2 0x2C6B SWAP1 SWAP2 SWAP1 PUSH4 0xFFFFFFFF AND JUMP JUMPDEST SWAP1 POP PUSH2 0x2ACA DUP2 PUSH1 0x2 PUSH1 0x0 ADDRESS PUSH20 0xFFFFFFFFFFFFFFFFFFFFFFFFFFFFFFFFFFFFFFFF AND PUSH20 0xFFFFFFFFFFFFFFFFFFFFFFFFFFFFFFFFFFFFFFFF AND DUP2 MSTORE PUSH1 0x20 ADD SWAP1 DUP2 MSTORE PUSH1 0x20 ADD PUSH1 0x0 KECCAK256 SLOAD PUSH2 0x29F7 SWAP1 SWAP2 SWAP1 PUSH4 0xFFFFFFFF AND JUMP JUMPDEST PUSH1 0x2 PUSH1 0x0 ADDRESS PUSH20 0xFFFFFFFFFFFFFFFFFFFFFFFFFFFFFFFFFFFFFFFF AND PUSH20 0xFFFFFFFFFFFFFFFFFFFFFFFFFFFFFFFFFFFFFFFF AND DUP2 MSTORE PUSH1 0x20 ADD SWAP1 DUP2 MSTORE PUSH1 0x20 ADD PUSH1 0x0 KECCAK256 DUP2 SWAP1 SSTORE POP POP POP POP JUMP JUMPDEST PUSH2 0x2B27 DUP3 PUSH1 0x6 SLOAD PUSH2 0x29AD SWAP1 SWAP2 SWAP1 PUSH4 0xFFFFFFFF AND JUMP JUMPDEST PUSH1 0x6 DUP2 SWAP1 SSTORE POP PUSH2 0x2B42 DUP2 PUSH1 0x7 SLOAD PUSH2 0x29F7 SWAP1 SWAP2 SWAP1 PUSH4 0xFFFFFFFF AND JUMP JUMPDEST PUSH1 0x7 DUP2 SWAP1 SSTORE POP POP POP JUMP JUMPDEST PUSH1 0x0 DUP1 PUSH1 0x0 DUP1 PUSH2 0x2B78 PUSH1 0x64 PUSH2 0x2B6A DUP9 DUP11 PUSH2 0x2C6B SWAP1 SWAP2 SWAP1 PUSH4 0xFFFFFFFF AND JUMP JUMPDEST PUSH2 0x2643 SWAP1 SWAP2 SWAP1 PUSH4 0xFFFFFFFF AND JUMP JUMPDEST SWAP1 POP PUSH1 0x0 PUSH2 0x2BA2 PUSH1 0x64 PUSH2 0x2B94 DUP9 DUP12 PUSH2 0x2C6B SWAP1 SWAP2 SWAP1 PUSH4 0xFFFFFFFF AND JUMP JUMPDEST PUSH2 0x2643 SWAP1 SWAP2 SWAP1 PUSH4 0xFFFFFFFF AND JUMP JUMPDEST SWAP1 POP PUSH1 0x0 PUSH2 0x2BCB DUP3 PUSH2 0x2BBD DUP6 DUP13 PUSH2 0x29AD SWAP1 SWAP2 SWAP1 PUSH4 0xFFFFFFFF AND JUMP JUMPDEST PUSH2 0x29AD SWAP1 SWAP2 SWAP1 PUSH4 0xFFFFFFFF AND JUMP JUMPDEST SWAP1 POP DUP1 DUP4 DUP4 SWAP6 POP SWAP6 POP SWAP6 POP POP POP POP SWAP4 POP SWAP4 POP SWAP4 SWAP1 POP JUMP JUMPDEST PUSH1 0x0 DUP1 PUSH1 0x0 DUP1 PUSH2 0x2BFB DUP6 DUP10 PUSH2 0x2C6B SWAP1 SWAP2 SWAP1 PUSH4 0xFFFFFFFF AND JUMP JUMPDEST SWAP1 POP PUSH1 0x0 PUSH2 0x2C12 DUP7 DUP10 PUSH2 0x2C6B SWAP1 SWAP2 SWAP1 PUSH4 0xFFFFFFFF AND JUMP JUMPDEST SWAP1 POP PUSH1 0x0 PUSH2 0x2C29 DUP8 DUP10 PUSH2 0x2C6B SWAP1 SWAP2 SWAP1 PUSH4 0xFFFFFFFF AND JUMP JUMPDEST SWAP1 POP PUSH1 0x0 PUSH2 0x2C52 DUP3 PUSH2 0x2C44 DUP6 DUP8 PUSH2 0x29AD SWAP1 SWAP2 SWAP1 PUSH4 0xFFFFFFFF AND JUMP JUMPDEST PUSH2 0x29AD SWAP1 SWAP2 SWAP1 PUSH4 0xFFFFFFFF AND JUMP JUMPDEST SWAP1 POP DUP4 DUP2 DUP5 SWAP7 POP SWAP7 POP SWAP7 POP POP POP POP POP SWAP5 POP SWAP5 POP SWAP5 SWAP2 POP POP JUMP JUMPDEST PUSH1 0x0 DUP1 DUP4 EQ ISZERO PUSH2 0x2C7E JUMPI PUSH1 0x0 SWAP1 POP PUSH2 0x2CE0 JUMP JUMPDEST PUSH1 0x0 DUP3 DUP5 PUSH2 0x2C8C SWAP2 SWAP1 PUSH2 0x36D7 JUMP JUMPDEST SWAP1 POP DUP3 DUP5 DUP3 PUSH2 0x2C9B SWAP2 SWAP1 PUSH2 0x36A6 JUMP JUMPDEST EQ PUSH2 0x2CDB JUMPI PUSH1 0x40 MLOAD PUSH32 0x8C379A000000000000000000000000000000000000000000000000000000000 DUP2 MSTORE PUSH1 0x4 ADD PUSH2 0x2CD2 SWAP1 PUSH2 0x346B JUMP JUMPDEST PUSH1 0x40 MLOAD DUP1 SWAP2 SUB SWAP1 REVERT JUMPDEST DUP1 SWAP2 POP POP JUMPDEST SWAP3 SWAP2 POP POP JUMP JUMPDEST PUSH1 0x0 DUP2 CALLDATALOAD SWAP1 POP PUSH2 0x2CF5 DUP2 PUSH2 0x3C30 JUMP JUMPDEST SWAP3 SWAP2 POP POP JUMP JUMPDEST PUSH1 0x0 DUP2 MLOAD SWAP1 POP PUSH2 0x2D0A DUP2 PUSH2 0x3C30 JUMP JUMPDEST SWAP3 SWAP2 POP POP JUMP JUMPDEST PUSH1 0x0 DUP2 CALLDATALOAD SWAP1 POP PUSH2 0x2D1F DUP2 PUSH2 0x3C47 JUMP JUMPDEST SWAP3 SWAP2 POP POP JUMP JUMPDEST PUSH1 0x0 DUP1 DUP4 PUSH1 0x1F DUP5 ADD SLT PUSH2 0x2D37 JUMPI PUSH1 0x0 DUP1 REVERT JUMPDEST DUP3 CALLDATALOAD SWAP1 POP PUSH8 0xFFFFFFFFFFFFFFFF DUP2 GT ISZERO PUSH2 0x2D50 JUMPI PUSH1 0x0 DUP1 REVERT JUMPDEST PUSH1 0x20 DUP4 ADD SWAP2 POP DUP4 PUSH1 0x20 DUP3 MUL DUP4 ADD GT ISZERO PUSH2 0x2D68 JUMPI PUSH1 0x0 DUP1 REVERT JUMPDEST SWAP3 POP SWAP3 SWAP1 POP JUMP JUMPDEST PUSH1 0x0 DUP2 CALLDATALOAD SWAP1 POP PUSH2 0x2D7E DUP2 PUSH2 0x3C5E JUMP JUMPDEST SWAP3 SWAP2 POP POP JUMP JUMPDEST PUSH1 0x0 DUP2 MLOAD SWAP1 POP PUSH2 0x2D93 DUP2 PUSH2 0x3C5E JUMP JUMPDEST SWAP3 SWAP2 POP POP JUMP JUMPDEST PUSH1 0x0 DUP2 CALLDATALOAD SWAP1 POP PUSH2 0x2DA8 DUP2 PUSH2 0x3C75 JUMP JUMPDEST SWAP3 SWAP2 POP POP JUMP JUMPDEST PUSH1 0x0 PUSH1 0x20 DUP3 DUP5 SUB SLT ISZERO PUSH2 0x2DC0 JUMPI PUSH1 0x0 DUP1 REVERT JUMPDEST PUSH1 0x0 PUSH2 0x2DCE DUP5 DUP3 DUP6 ADD PUSH2 0x2CE6 JUMP JUMPDEST SWAP2 POP POP SWAP3 SWAP2 POP POP JUMP JUMPDEST PUSH1 0x0 PUSH1 0x20 DUP3 DUP5 SUB SLT ISZERO PUSH2 0x2DE9 JUMPI PUSH1 0x0 DUP1 REVERT JUMPDEST PUSH1 0x0 PUSH2 0x2DF7 DUP5 DUP3 DUP6 ADD PUSH2 0x2CFB JUMP JUMPDEST SWAP2 POP POP SWAP3 SWAP2 POP POP JUMP JUMPDEST PUSH1 0x0 PUSH1 0x20 DUP3 DUP5 SUB SLT ISZERO PUSH2 0x2E12 JUMPI PUSH1 0x0 DUP1 REVERT JUMPDEST PUSH1 0x0 PUSH2 0x2E20 DUP5 DUP3 DUP6 ADD PUSH2 0x2D10 JUMP JUMPDEST SWAP2 POP POP SWAP3 SWAP2 POP POP JUMP JUMPDEST PUSH1 0x0 DUP1 PUSH1 0x40 DUP4 DUP6 SUB SLT ISZERO PUSH2 0x2E3C JUMPI PUSH1 0x0 DUP1 REVERT JUMPDEST PUSH1 0x0 PUSH2 0x2E4A DUP6 DUP3 DUP7 ADD PUSH2 0x2CE6 JUMP JUMPDEST SWAP3 POP POP PUSH1 0x20 PUSH2 0x2E5B DUP6 DUP3 DUP7 ADD PUSH2 0x2CE6 JUMP JUMPDEST SWAP2 POP POP SWAP3 POP SWAP3 SWAP1 POP JUMP JUMPDEST PUSH1 0x0 DUP1 PUSH1 0x0 PUSH1 0x60 DUP5 DUP7 SUB SLT ISZERO PUSH2 0x2E7A JUMPI PUSH1 0x0 DUP1 REVERT JUMPDEST PUSH1 0x0 PUSH2 0x2E88 DUP7 DUP3 DUP8 ADD PUSH2 0x2CE6 JUMP JUMPDEST SWAP4 POP POP PUSH1 0x20 PUSH2 0x2E99 DUP7 DUP3 DUP8 ADD PUSH2 0x2CE6 JUMP JUMPDEST SWAP3 POP POP PUSH1 0x40 PUSH2 0x2EAA DUP7 DUP3 DUP8 ADD PUSH2 0x2D99 JUMP JUMPDEST SWAP2 POP POP SWAP3 POP SWAP3 POP SWAP3 JUMP JUMPDEST PUSH1 0x0 DUP1 PUSH1 0x40 DUP4 DUP6 SUB SLT ISZERO PUSH2 0x2EC7 JUMPI PUSH1 0x0 DUP1 REVERT JUMPDEST PUSH1 0x0 PUSH2 0x2ED5 DUP6 DUP3 DUP7 ADD PUSH2 0x2CE6 JUMP JUMPDEST SWAP3 POP POP PUSH1 0x20 PUSH2 0x2EE6 DUP6 DUP3 DUP7 ADD PUSH2 0x2D99 JUMP JUMPDEST SWAP2 POP POP SWAP3 POP SWAP3 SWAP1 POP JUMP JUMPDEST PUSH1 0x0 DUP1 PUSH1 0x0 PUSH1 0x40 DUP5 DUP7 SUB SLT ISZERO PUSH2 0x2F05 JUMPI PUSH1 0x0 DUP1 REVERT JUMPDEST PUSH1 0x0 DUP5 ADD CALLDATALOAD PUSH8 0xFFFFFFFFFFFFFFFF DUP2 GT ISZERO PUSH2 0x2F1F JUMPI PUSH1 0x0 DUP1 REVERT JUMPDEST PUSH2 0x2F2B DUP7 DUP3 DUP8 ADD PUSH2 0x2D25 JUMP JUMPDEST SWAP4 POP SWAP4 POP POP PUSH1 0x20 PUSH2 0x2F3E DUP7 DUP3 DUP8 ADD PUSH2 0x2D6F JUMP JUMPDEST SWAP2 POP POP SWAP3 POP SWAP3 POP SWAP3 JUMP JUMPDEST PUSH1 0x0 PUSH1 0x20 DUP3 DUP5 SUB SLT ISZERO PUSH2 0x2F5A JUMPI PUSH1 0x0 DUP1 REVERT JUMPDEST PUSH1 0x0 PUSH2 0x2F68 DUP5 DUP3 DUP6 ADD PUSH2 0x2D6F JUMP JUMPDEST SWAP2 POP POP SWAP3 SWAP2 POP POP JUMP JUMPDEST PUSH1 0x0 PUSH1 0x20 DUP3 DUP5 SUB SLT ISZERO PUSH2 0x2F83 JUMPI PUSH1 0x0 DUP1 REVERT JUMPDEST PUSH1 0x0 PUSH2 0x2F91 DUP5 DUP3 DUP6 ADD PUSH2 0x2D84 JUMP JUMPDEST SWAP2 POP POP SWAP3 SWAP2 POP POP JUMP JUMPDEST PUSH1 0x0 DUP1 PUSH1 0x0 DUP1 PUSH1 0x80 DUP6 DUP8 SUB SLT ISZERO PUSH2 0x2FB0 JUMPI PUSH1 0x0 DUP1 REVERT JUMPDEST PUSH1 0x0 PUSH2 0x2FBE DUP8 DUP3 DUP9 ADD PUSH2 0x2D99 JUMP JUMPDEST SWAP5 POP POP PUSH1 0x20 PUSH2 0x2FCF DUP8 DUP3 DUP9 ADD PUSH2 0x2D99 JUMP JUMPDEST SWAP4 POP POP PUSH1 0x40 PUSH2 0x2FE0 DUP8 DUP3 DUP9 ADD PUSH2 0x2D99 JUMP JUMPDEST SWAP3 POP POP PUSH1 0x60 PUSH2 0x2FF1 DUP8 DUP3 DUP9 ADD PUSH2 0x2D99 JUMP JUMPDEST SWAP2 POP POP SWAP3 SWAP6 SWAP2 SWAP5 POP SWAP3 POP JUMP JUMPDEST PUSH1 0x0 PUSH2 0x3009 DUP4 DUP4 PUSH2 0x3015 JUMP JUMPDEST PUSH1 0x20 DUP4 ADD SWAP1 POP SWAP3 SWAP2 POP POP JUMP JUMPDEST PUSH2 0x301E DUP2 PUSH2 0x3765 JUMP JUMPDEST DUP3 MSTORE POP POP JUMP JUMPDEST PUSH2 0x302D DUP2 PUSH2 0x3765 JUMP JUMPDEST DUP3 MSTORE POP POP JUMP JUMPDEST PUSH1 0x0 PUSH2 0x303E DUP3 PUSH2 0x360B JUMP JUMPDEST PUSH2 0x3048 DUP2 DUP6 PUSH2 0x362E JUMP JUMPDEST SWAP4 POP PUSH2 0x3053 DUP4 PUSH2 0x35FB JUMP JUMPDEST DUP1 PUSH1 0x0 JUMPDEST DUP4 DUP2 LT ISZERO PUSH2 0x3084 JUMPI DUP2 MLOAD PUSH2 0x306B DUP9 DUP3 PUSH2 0x2FFD JUMP JUMPDEST SWAP8 POP PUSH2 0x3076 DUP4 PUSH2 0x3621 JUMP JUMPDEST SWAP3 POP POP PUSH1 0x1 DUP2 ADD SWAP1 POP PUSH2 0x3057 JUMP JUMPDEST POP DUP6 SWAP4 POP POP POP POP SWAP3 SWAP2 POP POP JUMP JUMPDEST PUSH2 0x309A DUP2 PUSH2 0x3789 JUMP JUMPDEST DUP3 MSTORE POP POP JUMP JUMPDEST PUSH2 0x30A9 DUP2 PUSH2 0x37CC JUMP JUMPDEST DUP3 MSTORE POP POP JUMP JUMPDEST PUSH2 0x30B8 DUP2 PUSH2 0x37F0 JUMP JUMPDEST DUP3 MSTORE POP POP JUMP JUMPDEST PUSH2 0x30C7 DUP2 PUSH2 0x3814 JUMP JUMPDEST DUP3 MSTORE POP POP JUMP JUMPDEST PUSH1 0x0 PUSH2 0x30D8 DUP3 PUSH2 0x3616 JUMP JUMPDEST PUSH2 0x30E2 DUP2 DUP6 PUSH2 0x363F JUMP JUMPDEST SWAP4 POP PUSH2 0x30F2 DUP2 DUP6 PUSH1 0x20 DUP7 ADD PUSH2 0x3826 JUMP JUMPDEST PUSH2 0x30FB DUP2 PUSH2 0x3900 JUMP JUMPDEST DUP5 ADD SWAP2 POP POP SWAP3 SWAP2 POP POP JUMP JUMPDEST PUSH1 0x0 PUSH2 0x3113 PUSH1 0x23 DUP4 PUSH2 0x363F JUMP JUMPDEST SWAP2 POP PUSH2 0x311E DUP3 PUSH2 0x3911 JUMP JUMPDEST PUSH1 0x40 DUP3 ADD SWAP1 POP SWAP2 SWAP1 POP JUMP JUMPDEST PUSH1 0x0 PUSH2 0x3136 PUSH1 0x17 DUP4 PUSH2 0x363F JUMP JUMPDEST SWAP2 POP PUSH2 0x3141 DUP3 PUSH2 0x3960 JUMP JUMPDEST PUSH1 0x20 DUP3 ADD SWAP1 POP SWAP2 SWAP1 POP JUMP JUMPDEST PUSH1 0x0 PUSH2 0x3159 PUSH1 0x2A DUP4 PUSH2 0x363F JUMP JUMPDEST SWAP2 POP PUSH2 0x3164 DUP3 PUSH2 0x3989 JUMP JUMPDEST PUSH1 0x40 DUP3 ADD SWAP1 POP SWAP2 SWAP1 POP JUMP JUMPDEST PUSH1 0x0 PUSH2 0x317C PUSH1 0x22 DUP4 PUSH2 0x363F JUMP JUMPDEST SWAP2 POP PUSH2 0x3187 DUP3 PUSH2 0x39D8 JUMP JUMPDEST PUSH1 0x40 DUP3 ADD SWAP1 POP SWAP2 SWAP1 POP JUMP JUMPDEST PUSH1 0x0 PUSH2 0x319F PUSH1 0x1B DUP4 PUSH2 0x363F JUMP JUMPDEST SWAP2 POP PUSH2 0x31AA DUP3 PUSH2 0x3A27 JUMP JUMPDEST PUSH1 0x20 DUP3 ADD SWAP1 POP SWAP2 SWAP1 POP JUMP JUMPDEST PUSH1 0x0 PUSH2 0x31C2 PUSH1 0x21 DUP4 PUSH2 0x363F JUMP JUMPDEST SWAP2 POP PUSH2 0x31CD DUP3 PUSH2 0x3A50 JUMP JUMPDEST PUSH1 0x40 DUP3 ADD SWAP1 POP SWAP2 SWAP1 POP JUMP JUMPDEST PUSH1 0x0 PUSH2 0x31E5 PUSH1 0x15 DUP4 PUSH2 0x363F JUMP JUMPDEST SWAP2 POP PUSH2 0x31F0 DUP3 PUSH2 0x3A9F JUMP JUMPDEST PUSH1 0x20 DUP3 ADD SWAP1 POP SWAP2 SWAP1 POP JUMP JUMPDEST PUSH1 0x0 PUSH2 0x3208 PUSH1 0x29 DUP4 PUSH2 0x363F JUMP JUMPDEST SWAP2 POP PUSH2 0x3213 DUP3 PUSH2 0x3AC8 JUMP JUMPDEST PUSH1 0x40 DUP3 ADD SWAP1 POP SWAP2 SWAP1 POP JUMP JUMPDEST PUSH1 0x0 PUSH2 0x322B PUSH1 0xC DUP4 PUSH2 0x363F JUMP JUMPDEST SWAP2 POP PUSH2 0x3236 DUP3 PUSH2 0x3B17 JUMP JUMPDEST PUSH1 0x20 DUP3 ADD SWAP1 POP SWAP2 SWAP1 POP JUMP JUMPDEST PUSH1 0x0 PUSH2 0x324E PUSH1 0x25 DUP4 PUSH2 0x363F JUMP JUMPDEST SWAP2 POP PUSH2 0x3259 DUP3 PUSH2 0x3B40 JUMP JUMPDEST PUSH1 0x40 DUP3 ADD SWAP1 POP SWAP2 SWAP1 POP JUMP JUMPDEST PUSH1 0x0 PUSH2 0x3271 PUSH1 0x1A DUP4 PUSH2 0x363F JUMP JUMPDEST SWAP2 POP PUSH2 0x327C DUP3 PUSH2 0x3B8F JUMP JUMPDEST PUSH1 0x20 DUP3 ADD SWAP1 POP SWAP2 SWAP1 POP JUMP JUMPDEST PUSH1 0x0 PUSH2 0x3294 PUSH1 0x24 DUP4 PUSH2 0x363F JUMP JUMPDEST SWAP2 POP PUSH2 0x329F DUP3 PUSH2 0x3BB8 JUMP JUMPDEST PUSH1 0x40 DUP3 ADD SWAP1 POP SWAP2 SWAP1 POP JUMP JUMPDEST PUSH1 0x0 PUSH2 0x32B7 PUSH1 0x1D DUP4 PUSH2 0x363F JUMP JUMPDEST SWAP2 POP PUSH2 0x32C2 DUP3 PUSH2 0x3C07 JUMP JUMPDEST PUSH1 0x20 DUP3 ADD SWAP1 POP SWAP2 SWAP1 POP JUMP JUMPDEST PUSH2 0x32D6 DUP2 PUSH2 0x37B5 JUMP JUMPDEST DUP3 MSTORE POP POP JUMP JUMPDEST PUSH2 0x32E5 DUP2 PUSH2 0x37BF JUMP JUMPDEST DUP3 MSTORE POP POP JUMP JUMPDEST PUSH1 0x0 PUSH1 0x20 DUP3 ADD SWAP1 POP PUSH2 0x3300 PUSH1 0x0 DUP4 ADD DUP5 PUSH2 0x3024 JUMP JUMPDEST SWAP3 SWAP2 POP POP JUMP JUMPDEST PUSH1 0x0 PUSH1 0x40 DUP3 ADD SWAP1 POP PUSH2 0x331B PUSH1 0x0 DUP4 ADD DUP6 PUSH2 0x3024 JUMP JUMPDEST PUSH2 0x3328 PUSH1 0x20 DUP4 ADD DUP5 PUSH2 0x3024 JUMP JUMPDEST SWAP4 SWAP3 POP POP POP JUMP JUMPDEST PUSH1 0x0 PUSH1 0x40 DUP3 ADD SWAP1 POP PUSH2 0x3344 PUSH1 0x0 DUP4 ADD DUP6 PUSH2 0x3024 JUMP JUMPDEST PUSH2 0x3351 PUSH1 0x20 DUP4 ADD DUP5 PUSH2 0x32CD JUMP JUMPDEST SWAP4 SWAP3 POP POP POP JUMP JUMPDEST PUSH1 0x0 PUSH1 0x20 DUP3 ADD SWAP1 POP PUSH2 0x336D PUSH1 0x0 DUP4 ADD DUP5 PUSH2 0x3091 JUMP JUMPDEST SWAP3 SWAP2 POP POP JUMP JUMPDEST PUSH1 0x0 PUSH1 0x20 DUP3 ADD SWAP1 POP PUSH2 0x3388 PUSH1 0x0 DUP4 ADD DUP5 PUSH2 0x30A0 JUMP JUMPDEST SWAP3 SWAP2 POP POP JUMP JUMPDEST PUSH1 0x0 PUSH1 0x20 DUP3 ADD SWAP1 POP PUSH2 0x33A3 PUSH1 0x0 DUP4 ADD DUP5 PUSH2 0x30AF JUMP JUMPDEST SWAP3 SWAP2 POP POP JUMP JUMPDEST PUSH1 0x0 PUSH1 0x20 DUP3 ADD SWAP1 POP DUP2 DUP2 SUB PUSH1 0x0 DUP4 ADD MSTORE PUSH2 0x33C3 DUP2 DUP5 PUSH2 0x30CD JUMP JUMPDEST SWAP1 POP SWAP3 SWAP2 POP POP JUMP JUMPDEST PUSH1 0x0 PUSH1 0x20 DUP3 ADD SWAP1 POP DUP2 DUP2 SUB PUSH1 0x0 DUP4 ADD MSTORE PUSH2 0x33E4 DUP2 PUSH2 0x3106 JUMP JUMPDEST SWAP1 POP SWAP2 SWAP1 POP JUMP JUMPDEST PUSH1 0x0 PUSH1 0x20 DUP3 ADD SWAP1 POP DUP2 DUP2 SUB PUSH1 0x0 DUP4 ADD MSTORE PUSH2 0x3404 DUP2 PUSH2 0x3129 JUMP JUMPDEST SWAP1 POP SWAP2 SWAP1 POP JUMP JUMPDEST PUSH1 0x0 PUSH1 0x20 DUP3 ADD SWAP1 POP DUP2 DUP2 SUB PUSH1 0x0 DUP4 ADD MSTORE PUSH2 0x3424 DUP2 PUSH2 0x314C JUMP JUMPDEST SWAP1 POP SWAP2 SWAP1 POP JUMP JUMPDEST PUSH1 0x0 PUSH1 0x20 DUP3 ADD SWAP1 POP DUP2 DUP2 SUB PUSH1 0x0 DUP4 ADD MSTORE PUSH2 0x3444 DUP2 PUSH2 0x316F JUMP JUMPDEST SWAP1 POP SWAP2 SWAP1 POP JUMP JUMPDEST PUSH1 0x0 PUSH1 0x20 DUP3 ADD SWAP1 POP DUP2 DUP2 SUB PUSH1 0x0 DUP4 ADD MSTORE PUSH2 0x3464 DUP2 PUSH2 0x3192 JUMP JUMPDEST SWAP1 POP SWAP2 SWAP1 POP JUMP JUMPDEST PUSH1 0x0 PUSH1 0x20 DUP3 ADD SWAP1 POP DUP2 DUP2 SUB PUSH1 0x0 DUP4 ADD MSTORE PUSH2 0x3484 DUP2 PUSH2 0x31B5 JUMP JUMPDEST SWAP1 POP SWAP2 SWAP1 POP JUMP JUMPDEST PUSH1 0x0 PUSH1 0x20 DUP3 ADD SWAP1 POP DUP2 DUP2 SUB PUSH1 0x0 DUP4 ADD MSTORE PUSH2 0x34A4 DUP2 PUSH2 0x31D8 JUMP JUMPDEST SWAP1 POP SWAP2 SWAP1 POP JUMP JUMPDEST PUSH1 0x0 PUSH1 0x20 DUP3 ADD SWAP1 POP DUP2 DUP2 SUB PUSH1 0x0 DUP4 ADD MSTORE PUSH2 0x34C4 DUP2 PUSH2 0x31FB JUMP JUMPDEST SWAP1 POP SWAP2 SWAP1 POP JUMP JUMPDEST PUSH1 0x0 PUSH1 0x20 DUP3 ADD SWAP1 POP DUP2 DUP2 SUB PUSH1 0x0 DUP4 ADD MSTORE PUSH2 0x34E4 DUP2 PUSH2 0x321E JUMP JUMPDEST SWAP1 POP SWAP2 SWAP1 POP JUMP JUMPDEST PUSH1 0x0 PUSH1 0x20 DUP3 ADD SWAP1 POP DUP2 DUP2 SUB PUSH1 0x0 DUP4 ADD MSTORE PUSH2 0x3504 DUP2 PUSH2 0x3241 JUMP JUMPDEST SWAP1 POP SWAP2 SWAP1 POP JUMP JUMPDEST PUSH1 0x0 PUSH1 0x20 DUP3 ADD SWAP1 POP DUP2 DUP2 SUB PUSH1 0x0 DUP4 ADD MSTORE PUSH2 0x3524 DUP2 PUSH2 0x3264 JUMP JUMPDEST SWAP1 POP SWAP2 SWAP1 POP JUMP JUMPDEST PUSH1 0x0 PUSH1 0x20 DUP3 ADD SWAP1 POP DUP2 DUP2 SUB PUSH1 0x0 DUP4 ADD MSTORE PUSH2 0x3544 DUP2 PUSH2 0x3287 JUMP JUMPDEST SWAP1 POP SWAP2 SWAP1 POP JUMP JUMPDEST PUSH1 0x0 PUSH1 0x20 DUP3 ADD SWAP1 POP DUP2 DUP2 SUB PUSH1 0x0 DUP4 ADD MSTORE PUSH2 0x3564 DUP2 PUSH2 0x32AA JUMP JUMPDEST SWAP1 POP SWAP2 SWAP1 POP JUMP JUMPDEST PUSH1 0x0 PUSH1 0x20 DUP3 ADD SWAP1 POP PUSH2 0x3580 PUSH1 0x0 DUP4 ADD DUP5 PUSH2 0x32CD JUMP JUMPDEST SWAP3 SWAP2 POP POP JUMP JUMPDEST PUSH1 0x0 PUSH1 0xA0 DUP3 ADD SWAP1 POP PUSH2 0x359B PUSH1 0x0 DUP4 ADD DUP9 PUSH2 0x32CD JUMP JUMPDEST PUSH2 0x35A8 PUSH1 0x20 DUP4 ADD DUP8 PUSH2 0x30BE JUMP JUMPDEST DUP2 DUP2 SUB PUSH1 0x40 DUP4 ADD MSTORE PUSH2 0x35BA DUP2 DUP7 PUSH2 0x3033 JUMP JUMPDEST SWAP1 POP PUSH2 0x35C9 PUSH1 0x60 DUP4 ADD DUP6 PUSH2 0x3024 JUMP JUMPDEST PUSH2 0x35D6 PUSH1 0x80 DUP4 ADD DUP5 PUSH2 0x32CD JUMP JUMPDEST SWAP7 SWAP6 POP POP POP POP POP POP JUMP JUMPDEST PUSH1 0x0 PUSH1 0x20 DUP3 ADD SWAP1 POP PUSH2 0x35F5 PUSH1 0x0 DUP4 ADD DUP5 PUSH2 0x32DC JUMP JUMPDEST SWAP3 SWAP2 POP POP JUMP JUMPDEST PUSH1 0x0 DUP2 SWAP1 POP PUSH1 0x20 DUP3 ADD SWAP1 POP SWAP2 SWAP1 POP JUMP JUMPDEST PUSH1 0x0 DUP2 MLOAD SWAP1 POP SWAP2 SWAP1 POP JUMP JUMPDEST PUSH1 0x0 DUP2 MLOAD SWAP1 POP SWAP2 SWAP1 POP JUMP JUMPDEST PUSH1 0x0 PUSH1 0x20 DUP3 ADD SWAP1 POP SWAP2 SWAP1 POP JUMP JUMPDEST PUSH1 0x0 DUP3 DUP3 MSTORE PUSH1 0x20 DUP3 ADD SWAP1 POP SWAP3 SWAP2 POP POP JUMP JUMPDEST PUSH1 0x0 DUP3 DUP3 MSTORE PUSH1 0x20 DUP3 ADD SWAP1 POP SWAP3 SWAP2 POP POP JUMP JUMPDEST PUSH1 0x0 PUSH2 0x365B DUP3 PUSH2 0x37B5 JUMP JUMPDEST SWAP2 POP PUSH2 0x3666 DUP4 PUSH2 0x37B5 JUMP JUMPDEST SWAP3 POP DUP3 PUSH32 0xFFFFFFFFFFFFFFFFFFFFFFFFFFFFFFFFFFFFFFFFFFFFFFFFFFFFFFFFFFFFFFFF SUB DUP3 GT ISZERO PUSH2 0x369B JUMPI PUSH2 0x369A PUSH2 0x38A2 JUMP JUMPDEST JUMPDEST DUP3 DUP3 ADD SWAP1 POP SWAP3 SWAP2 POP POP JUMP JUMPDEST PUSH1 0x0 PUSH2 0x36B1 DUP3 PUSH2 0x37B5 JUMP JUMPDEST SWAP2 POP PUSH2 0x36BC DUP4 PUSH2 0x37B5 JUMP JUMPDEST SWAP3 POP DUP3 PUSH2 0x36CC JUMPI PUSH2 0x36CB PUSH2 0x38D1 JUMP JUMPDEST JUMPDEST DUP3 DUP3 DIV SWAP1 POP SWAP3 SWAP2 POP POP JUMP JUMPDEST PUSH1 0x0 PUSH2 0x36E2 DUP3 PUSH2 0x37B5 JUMP JUMPDEST SWAP2 POP PUSH2 0x36ED DUP4 PUSH2 0x37B5 JUMP JUMPDEST SWAP3 POP DUP2 PUSH32 0xFFFFFFFFFFFFFFFFFFFFFFFFFFFFFFFFFFFFFFFFFFFFFFFFFFFFFFFFFFFFFFFF DIV DUP4 GT DUP3 ISZERO ISZERO AND ISZERO PUSH2 0x3726 JUMPI PUSH2 0x3725 PUSH2 0x38A2 JUMP JUMPDEST JUMPDEST DUP3 DUP3 MUL SWAP1 POP SWAP3 SWAP2 POP POP JUMP JUMPDEST PUSH1 0x0 PUSH2 0x373C DUP3 PUSH2 0x37B5 JUMP JUMPDEST SWAP2 POP PUSH2 0x3747 DUP4 PUSH2 0x37B5 JUMP JUMPDEST SWAP3 POP DUP3 DUP3 LT ISZERO PUSH2 0x375A JUMPI PUSH2 0x3759 PUSH2 0x38A2 JUMP JUMPDEST JUMPDEST DUP3 DUP3 SUB SWAP1 POP SWAP3 SWAP2 POP POP JUMP JUMPDEST PUSH1 0x0 PUSH2 0x3770 DUP3 PUSH2 0x3795 JUMP JUMPDEST SWAP1 POP SWAP2 SWAP1 POP JUMP JUMPDEST PUSH1 0x0 PUSH2 0x3782 DUP3 PUSH2 0x3795 JUMP JUMPDEST SWAP1 POP SWAP2 SWAP1 POP JUMP JUMPDEST PUSH1 0x0 DUP2 ISZERO ISZERO SWAP1 POP SWAP2 SWAP1 POP JUMP JUMPDEST PUSH1 0x0 PUSH20 0xFFFFFFFFFFFFFFFFFFFFFFFFFFFFFFFFFFFFFFFF DUP3 AND SWAP1 POP SWAP2 SWAP1 POP JUMP JUMPDEST PUSH1 0x0 DUP2 SWAP1 POP SWAP2 SWAP1 POP JUMP JUMPDEST PUSH1 0x0 PUSH1 0xFF DUP3 AND SWAP1 POP SWAP2 SWAP1 POP JUMP JUMPDEST PUSH1 0x0 PUSH2 0x37D7 DUP3 PUSH2 0x37DE JUMP JUMPDEST SWAP1 POP SWAP2 SWAP1 POP JUMP JUMPDEST PUSH1 0x0 PUSH2 0x37E9 DUP3 PUSH2 0x3795 JUMP JUMPDEST SWAP1 POP SWAP2 SWAP1 POP JUMP JUMPDEST PUSH1 0x0 PUSH2 0x37FB DUP3 PUSH2 0x3802 JUMP JUMPDEST SWAP1 POP SWAP2 SWAP1 POP JUMP JUMPDEST PUSH1 0x0 PUSH2 0x380D DUP3 PUSH2 0x3795 JUMP JUMPDEST SWAP1 POP SWAP2 SWAP1 POP JUMP JUMPDEST PUSH1 0x0 PUSH2 0x381F DUP3 PUSH2 0x37B5 JUMP JUMPDEST SWAP1 POP SWAP2 SWAP1 POP JUMP JUMPDEST PUSH1 0x0 JUMPDEST DUP4 DUP2 LT ISZERO PUSH2 0x3844 JUMPI DUP1 DUP3 ADD MLOAD DUP2 DUP5 ADD MSTORE PUSH1 0x20 DUP2 ADD SWAP1 POP PUSH2 0x3829 JUMP JUMPDEST DUP4 DUP2 GT ISZERO PUSH2 0x3853 JUMPI PUSH1 0x0 DUP5 DUP5 ADD MSTORE JUMPDEST POP POP POP POP JUMP JUMPDEST PUSH1 0x0 PUSH2 0x3864 DUP3 PUSH2 0x37B5 JUMP JUMPDEST SWAP2 POP PUSH32 0xFFFFFFFFFFFFFFFFFFFFFFFFFFFFFFFFFFFFFFFFFFFFFFFFFFFFFFFFFFFFFFFF DUP3 EQ ISZERO PUSH2 0x3897 JUMPI PUSH2 0x3896 PUSH2 0x38A2 JUMP JUMPDEST JUMPDEST PUSH1 0x1 DUP3 ADD SWAP1 POP SWAP2 SWAP1 POP JUMP JUMPDEST PUSH32 0x4E487B7100000000000000000000000000000000000000000000000000000000 PUSH1 0x0 MSTORE PUSH1 0x11 PUSH1 0x4 MSTORE PUSH1 0x24 PUSH1 0x0 REVERT JUMPDEST PUSH32 0x4E487B7100000000000000000000000000000000000000000000000000000000 PUSH1 0x0 MSTORE PUSH1 0x12 PUSH1 0x4 MSTORE PUSH1 0x24 PUSH1 0x0 REVERT JUMPDEST PUSH1 0x0 PUSH1 0x1F NOT PUSH1 0x1F DUP4 ADD AND SWAP1 POP SWAP2 SWAP1 POP JUMP JUMPDEST PUSH32 0x45524332303A207472616E7366657220746F20746865207A65726F2061646472 PUSH1 0x0 DUP3 ADD MSTORE PUSH32 0x6573730000000000000000000000000000000000000000000000000000000000 PUSH1 0x20 DUP3 ADD MSTORE POP JUMP JUMPDEST PUSH32 0x43616C6C6572206973206E6F7420746865206F776E6572000000000000000000 PUSH1 0x0 DUP3 ADD MSTORE POP JUMP JUMPDEST PUSH32 0x416D6F756E74206D757374206265206C657373207468616E20746F74616C2072 PUSH1 0x0 DUP3 ADD MSTORE PUSH32 0x65666C656374696F6E7300000000000000000000000000000000000000000000 PUSH1 0x20 DUP3 ADD MSTORE POP JUMP JUMPDEST PUSH32 0x45524332303A20617070726F766520746F20746865207A65726F206164647265 PUSH1 0x0 DUP3 ADD MSTORE PUSH32 0x7373000000000000000000000000000000000000000000000000000000000000 PUSH1 0x20 DUP3 ADD MSTORE POP JUMP JUMPDEST PUSH32 0x536166654D6174683A206164646974696F6E206F766572666C6F770000000000 PUSH1 0x0 DUP3 ADD MSTORE POP JUMP JUMPDEST PUSH32 0x536166654D6174683A206D756C7469706C69636174696F6E206F766572666C6F PUSH1 0x0 DUP3 ADD MSTORE PUSH32 0x7700000000000000000000000000000000000000000000000000000000000000 PUSH1 0x20 DUP3 ADD MSTORE POP JUMP JUMPDEST PUSH32 0x43616C6C6572206973206E6F7420746865206465760000000000000000000000 PUSH1 0x0 DUP3 ADD MSTORE POP JUMP JUMPDEST PUSH32 0x5472616E7366657220616D6F756E74206D757374206265206772656174657220 PUSH1 0x0 DUP3 ADD MSTORE PUSH32 0x7468616E207A65726F0000000000000000000000000000000000000000000000 PUSH1 0x20 DUP3 ADD MSTORE POP JUMP JUMPDEST PUSH32 0x4163746976656420706169720000000000000000000000000000000000000000 PUSH1 0x0 DUP3 ADD MSTORE POP JUMP JUMPDEST PUSH32 0x45524332303A207472616E736665722066726F6D20746865207A65726F206164 PUSH1 0x0 DUP3 ADD MSTORE PUSH32 0x6472657373000000000000000000000000000000000000000000000000000000 PUSH1 0x20 DUP3 ADD MSTORE POP JUMP JUMPDEST PUSH32 0x5461782063616E6E6F74206265206D6F7265207468616E20362E000000000000 PUSH1 0x0 DUP3 ADD MSTORE POP JUMP JUMPDEST PUSH32 0x45524332303A20617070726F76652066726F6D20746865207A65726F20616464 PUSH1 0x0 DUP3 ADD MSTORE PUSH32 0x7265737300000000000000000000000000000000000000000000000000000000 PUSH1 0x20 DUP3 ADD MSTORE POP JUMP JUMPDEST PUSH32 0x52656469732063616E6E6F74206265206D6F7265207468616E2031302E000000 PUSH1 0x0 DUP3 ADD MSTORE POP JUMP JUMPDEST PUSH2 0x3C39 DUP2 PUSH2 0x3765 JUMP JUMPDEST DUP2 EQ PUSH2 0x3C44 JUMPI PUSH1 0x0 DUP1 REVERT JUMPDEST POP JUMP JUMPDEST PUSH2 0x3C50 DUP2 PUSH2 0x3777 JUMP JUMPDEST DUP2 EQ PUSH2 0x3C5B JUMPI PUSH1 0x0 DUP1 REVERT JUMPDEST POP JUMP JUMPDEST PUSH2 0x3C67 DUP2 PUSH2 0x3789 JUMP JUMPDEST DUP2 EQ PUSH2 0x3C72 JUMPI PUSH1 0x0 DUP1 REVERT JUMPDEST POP JUMP JUMPDEST PUSH2 0x3C7E DUP2 PUSH2 0x37B5 JUMP JUMPDEST DUP2 EQ PUSH2 0x3C89 JUMPI PUSH1 0x0 DUP1 REVERT JUMPDEST POP JUMP INVALID GASLIMIT MSTORE NUMBER ORIGIN ADDRESS GASPRICE KECCAK256 PUSH21 0x72616E7366657220616D6F756E7420657863656564 PUSH20 0x20616C6C6F77616E6365A2646970667358221220 DUP2 0xA9 0xAC LOG2 MSTORE 0x26 0xD2 KECCAK256 EQ SELFDESTRUCT 0xA8 0x2A 0x48 PUSH26 0xEEDDB94F90B7E8ECB88ECFB44D4D22CFB87564736F6C63430008 DIV STOP CALLER "
				},
				"gasEstimates": {
					"creation": {
						"codeDepositCost": "3118800",
						"executionCost": "infinite",
						"totalCost": "infinite"
					},
					"external": {
						"_factory()": "1303",
						"allowance(address,address)": "infinite",
						"approve(address,uint256)": "infinite",
						"balanceOf(address)": "infinite",
						"decimals()": "477",
						"excludeMultipleAccountsFromFees(address[],bool)": "infinite",
						"manualsend()": "infinite",
						"manualswap()": "infinite",
						"name()": "infinite",
						"owner()": "1267",
						"renounceOwnership()": "24424",
						"rescueForeignTokens(address,address,uint256)": "infinite",
						"setFee(uint256,uint256,uint256,uint256)": "infinite",
						"setNewDevAddress(address)": "infinite",
						"setNewMarketingAddress(address)": "infinite",
						"settingPair(address)": "infinite",
						"symbol()": "infinite",
						"toggleSwap(bool)": "infinite",
						"totalSupply()": "427",
						"transfer(address,uint256)": "infinite",
						"transferFrom(address,address,uint256)": "infinite",
						"transferOwnership(address)": "24712",
						"uniswapV2Factory()": "1302",
						"uniswapV2Pair()": "1237",
						"uniswapV2Router()": "1325"
					},
					"internal": {
						"_approve(address,address,uint256)": "infinite",
						"_getCurrentSupply()": "infinite",
						"_getRValues(uint256,uint256,uint256,uint256)": "infinite",
						"_getRate()": "infinite",
						"_getTValues(uint256,uint256,uint256)": "infinite",
						"_getValues(uint256)": "infinite",
						"_reflectFee(uint256,uint256)": "infinite",
						"_takeTeam(uint256)": "infinite",
						"_tokenTransfer(address,address,uint256)": "infinite",
						"_transfer(address,address,uint256)": "infinite",
						"_transferStandard(address,address,uint256)": "infinite",
						"sendETHToFee(uint256)": "infinite",
						"swapTokensForEth(uint256)": "infinite",
						"tokenFromReflection(uint256)": "infinite"
					}
				},
				"methodIdentifiers": {
					"_factory()": "c5cc6b6a",
					"allowance(address,address)": "dd62ed3e",
					"approve(address,uint256)": "095ea7b3",
					"balanceOf(address)": "70a08231",
					"decimals()": "313ce567",
					"excludeMultipleAccountsFromFees(address[],bool)": "c492f046",
					"manualsend()": "6fc3eaec",
					"manualswap()": "c3c8cd80",
					"name()": "06fdde03",
					"owner()": "8da5cb5b",
					"renounceOwnership()": "715018a6",
					"rescueForeignTokens(address,address,uint256)": "e293d316",
					"setFee(uint256,uint256,uint256,uint256)": "a2a957bb",
					"setNewDevAddress(address)": "aad5c023",
					"setNewMarketingAddress(address)": "758dbe03",
					"settingPair(address)": "ce4224c5",
					"symbol()": "95d89b41",
					"toggleSwap(bool)": "6d8aa8f8",
					"totalSupply()": "18160ddd",
					"transfer(address,uint256)": "a9059cbb",
					"transferFrom(address,address,uint256)": "23b872dd",
					"transferOwnership(address)": "f2fde38b",
					"uniswapV2Factory()": "59d0f713",
					"uniswapV2Pair()": "49bd5a5e",
					"uniswapV2Router()": "1694505e"
				}
			},
			"storageLayout": {
				"storage": [
					{
						"astId": 305,
						"contract": "contracts/Pool/Pool.sol:World_Step",
						"label": "_owner",
						"offset": 0,
						"slot": "0",
						"type": "t_address"
					},
					{
						"astId": 307,
						"contract": "contracts/Pool/Pool.sol:World_Step",
						"label": "_previousOwner",
						"offset": 0,
						"slot": "1",
						"type": "t_address"
					},
					{
						"astId": 406,
						"contract": "contracts/Pool/Pool.sol:World_Step",
						"label": "_rOwned",
						"offset": 0,
						"slot": "2",
						"type": "t_mapping(t_address,t_uint256)"
					},
					{
						"astId": 410,
						"contract": "contracts/Pool/Pool.sol:World_Step",
						"label": "_tOwned",
						"offset": 0,
						"slot": "3",
						"type": "t_mapping(t_address,t_uint256)"
					},
					{
						"astId": 416,
						"contract": "contracts/Pool/Pool.sol:World_Step",
						"label": "_allowances",
						"offset": 0,
						"slot": "4",
						"type": "t_mapping(t_address,t_mapping(t_address,t_uint256))"
					},
					{
						"astId": 420,
						"contract": "contracts/Pool/Pool.sol:World_Step",
						"label": "_isExcludedFromFee",
						"offset": 0,
						"slot": "5",
						"type": "t_mapping(t_address,t_bool)"
					},
					{
						"astId": 451,
						"contract": "contracts/Pool/Pool.sol:World_Step",
						"label": "_rTotal",
						"offset": 0,
						"slot": "6",
						"type": "t_uint256"
					},
					{
						"astId": 453,
						"contract": "contracts/Pool/Pool.sol:World_Step",
						"label": "_tFeeTotal",
						"offset": 0,
						"slot": "7",
						"type": "t_uint256"
					},
					{
						"astId": 456,
						"contract": "contracts/Pool/Pool.sol:World_Step",
						"label": "_redisFeeOnBuy",
						"offset": 0,
						"slot": "8",
						"type": "t_uint256"
					},
					{
						"astId": 459,
						"contract": "contracts/Pool/Pool.sol:World_Step",
						"label": "_taxFeeOnBuy",
						"offset": 0,
						"slot": "9",
						"type": "t_uint256"
					},
					{
						"astId": 462,
						"contract": "contracts/Pool/Pool.sol:World_Step",
						"label": "_redisFeeOnSell",
						"offset": 0,
						"slot": "10",
						"type": "t_uint256"
					},
					{
						"astId": 465,
						"contract": "contracts/Pool/Pool.sol:World_Step",
						"label": "_taxFeeOnSell",
						"offset": 0,
						"slot": "11",
						"type": "t_uint256"
					},
					{
						"astId": 467,
						"contract": "contracts/Pool/Pool.sol:World_Step",
						"label": "_redisFee",
						"offset": 0,
						"slot": "12",
						"type": "t_uint256"
					},
					{
						"astId": 469,
						"contract": "contracts/Pool/Pool.sol:World_Step",
						"label": "_taxFee",
						"offset": 0,
						"slot": "13",
						"type": "t_uint256"
					},
					{
						"astId": 472,
						"contract": "contracts/Pool/Pool.sol:World_Step",
						"label": "_activePair",
						"offset": 0,
						"slot": "14",
						"type": "t_bool"
					},
					{
						"astId": 487,
						"contract": "contracts/Pool/Pool.sol:World_Step",
						"label": "_developmentAddress",
						"offset": 1,
						"slot": "14",
						"type": "t_address_payable"
					},
					{
						"astId": 493,
						"contract": "contracts/Pool/Pool.sol:World_Step",
						"label": "_marketingAddress",
						"offset": 0,
						"slot": "15",
						"type": "t_address_payable"
					},
					{
						"astId": 496,
						"contract": "contracts/Pool/Pool.sol:World_Step",
						"label": "uniswapV2Router",
						"offset": 0,
						"slot": "16",
						"type": "t_contract(IUniswapV2Router02)145"
					},
					{
						"astId": 499,
						"contract": "contracts/Pool/Pool.sol:World_Step",
						"label": "uniswapV2Factory",
						"offset": 0,
						"slot": "17",
						"type": "t_contract(IUniswapV2Factory)99"
					},
					{
						"astId": 501,
						"contract": "contracts/Pool/Pool.sol:World_Step",
						"label": "_factory",
						"offset": 0,
						"slot": "18",
						"type": "t_address"
					},
					{
						"astId": 503,
						"contract": "contracts/Pool/Pool.sol:World_Step",
						"label": "uniswapV2Pair",
						"offset": 0,
						"slot": "19",
						"type": "t_address"
					},
					{
						"astId": 506,
						"contract": "contracts/Pool/Pool.sol:World_Step",
						"label": "inSwap",
						"offset": 20,
						"slot": "19",
						"type": "t_bool"
					},
					{
						"astId": 509,
						"contract": "contracts/Pool/Pool.sol:World_Step",
						"label": "swapEnabled",
						"offset": 21,
						"slot": "19",
						"type": "t_bool"
					}
				],
				"types": {
					"t_address": {
						"encoding": "inplace",
						"label": "address",
						"numberOfBytes": "20"
					},
					"t_address_payable": {
						"encoding": "inplace",
						"label": "address payable",
						"numberOfBytes": "20"
					},
					"t_bool": {
						"encoding": "inplace",
						"label": "bool",
						"numberOfBytes": "1"
					},
					"t_contract(IUniswapV2Factory)99": {
						"encoding": "inplace",
						"label": "contract IUniswapV2Factory",
						"numberOfBytes": "20"
					},
					"t_contract(IUniswapV2Router02)145": {
						"encoding": "inplace",
						"label": "contract IUniswapV2Router02",
						"numberOfBytes": "20"
					},
					"t_mapping(t_address,t_bool)": {
						"encoding": "mapping",
						"key": "t_address",
						"label": "mapping(address => bool)",
						"numberOfBytes": "32",
						"value": "t_bool"
					},
					"t_mapping(t_address,t_mapping(t_address,t_uint256))": {
						"encoding": "mapping",
						"key": "t_address",
						"label": "mapping(address => mapping(address => uint256))",
						"numberOfBytes": "32",
						"value": "t_mapping(t_address,t_uint256)"
					},
					"t_mapping(t_address,t_uint256)": {
						"encoding": "mapping",
						"key": "t_address",
						"label": "mapping(address => uint256)",
						"numberOfBytes": "32",
						"value": "t_uint256"
					},
					"t_uint256": {
						"encoding": "inplace",
						"label": "uint256",
						"numberOfBytes": "32"
					}
				}
			},
			"userdoc": {
				"kind": "user",
				"methods": {},
				"version": 1
			}
		}
	}
}