{
	"contracts/Pool/Pool.sol": {
		"SafeMoon": {
			"abi": [
				{
					"inputs": [],
					"stateMutability": "nonpayable",
					"type": "constructor"
				},
				{
					"anonymous": false,
					"inputs": [
						{
							"indexed": true,
							"internalType": "address",
							"name": "owner",
							"type": "address"
						},
						{
							"indexed": true,
							"internalType": "address",
							"name": "spender",
							"type": "address"
						},
						{
							"indexed": false,
							"internalType": "uint256",
							"name": "value",
							"type": "uint256"
						}
					],
					"name": "Approval",
					"type": "event"
				},
				{
					"anonymous": false,
					"inputs": [
						{
							"indexed": false,
							"internalType": "uint256",
							"name": "minTokensBeforeSwap",
							"type": "uint256"
						}
					],
					"name": "MinTokensBeforeSwapUpdated",
					"type": "event"
				},
				{
					"anonymous": false,
					"inputs": [
						{
							"indexed": true,
							"internalType": "address",
							"name": "previousOwner",
							"type": "address"
						},
						{
							"indexed": true,
							"internalType": "address",
							"name": "newOwner",
							"type": "address"
						}
					],
					"name": "OwnershipTransferred",
					"type": "event"
				},
				{
					"anonymous": false,
					"inputs": [
						{
							"indexed": false,
							"internalType": "uint256",
							"name": "tokensSwapped",
							"type": "uint256"
						},
						{
							"indexed": false,
							"internalType": "uint256",
							"name": "ethReceived",
							"type": "uint256"
						},
						{
							"indexed": false,
							"internalType": "uint256",
							"name": "tokensIntoLiqudity",
							"type": "uint256"
						}
					],
					"name": "SwapAndLiquify",
					"type": "event"
				},
				{
					"anonymous": false,
					"inputs": [
						{
							"indexed": false,
							"internalType": "bool",
							"name": "enabled",
							"type": "bool"
						}
					],
					"name": "SwapAndLiquifyEnabledUpdated",
					"type": "event"
				},
				{
					"anonymous": false,
					"inputs": [
						{
							"indexed": true,
							"internalType": "address",
							"name": "from",
							"type": "address"
						},
						{
							"indexed": true,
							"internalType": "address",
							"name": "to",
							"type": "address"
						},
						{
							"indexed": false,
							"internalType": "uint256",
							"name": "value",
							"type": "uint256"
						}
					],
					"name": "Transfer",
					"type": "event"
				},
				{
					"inputs": [],
					"name": "_liquidityFee",
					"outputs": [
						{
							"internalType": "uint256",
							"name": "",
							"type": "uint256"
						}
					],
					"stateMutability": "view",
					"type": "function"
				},
				{
					"inputs": [],
					"name": "_maxTxAmount",
					"outputs": [
						{
							"internalType": "uint256",
							"name": "",
							"type": "uint256"
						}
					],
					"stateMutability": "view",
					"type": "function"
				},
				{
					"inputs": [],
					"name": "_taxFee",
					"outputs": [
						{
							"internalType": "uint256",
							"name": "",
							"type": "uint256"
						}
					],
					"stateMutability": "view",
					"type": "function"
				},
				{
					"inputs": [
						{
							"internalType": "address",
							"name": "owner",
							"type": "address"
						},
						{
							"internalType": "address",
							"name": "spender",
							"type": "address"
						}
					],
					"name": "allowance",
					"outputs": [
						{
							"internalType": "uint256",
							"name": "",
							"type": "uint256"
						}
					],
					"stateMutability": "view",
					"type": "function"
				},
				{
					"inputs": [
						{
							"internalType": "address",
							"name": "spender",
							"type": "address"
						},
						{
							"internalType": "uint256",
							"name": "amount",
							"type": "uint256"
						}
					],
					"name": "approve",
					"outputs": [
						{
							"internalType": "bool",
							"name": "",
							"type": "bool"
						}
					],
					"stateMutability": "nonpayable",
					"type": "function"
				},
				{
					"inputs": [
						{
							"internalType": "address",
							"name": "account",
							"type": "address"
						}
					],
					"name": "balanceOf",
					"outputs": [
						{
							"internalType": "uint256",
							"name": "",
							"type": "uint256"
						}
					],
					"stateMutability": "view",
					"type": "function"
				},
				{
					"inputs": [],
					"name": "decimals",
					"outputs": [
						{
							"internalType": "uint8",
							"name": "",
							"type": "uint8"
						}
					],
					"stateMutability": "view",
					"type": "function"
				},
				{
					"inputs": [
						{
							"internalType": "address",
							"name": "spender",
							"type": "address"
						},
						{
							"internalType": "uint256",
							"name": "subtractedValue",
							"type": "uint256"
						}
					],
					"name": "decreaseAllowance",
					"outputs": [
						{
							"internalType": "bool",
							"name": "",
							"type": "bool"
						}
					],
					"stateMutability": "nonpayable",
					"type": "function"
				},
				{
					"inputs": [
						{
							"internalType": "uint256",
							"name": "tAmount",
							"type": "uint256"
						}
					],
					"name": "deliver",
					"outputs": [],
					"stateMutability": "nonpayable",
					"type": "function"
				},
				{
					"inputs": [
						{
							"internalType": "address",
							"name": "account",
							"type": "address"
						}
					],
					"name": "excludeFromFee",
					"outputs": [],
					"stateMutability": "nonpayable",
					"type": "function"
				},
				{
					"inputs": [
						{
							"internalType": "address",
							"name": "account",
							"type": "address"
						}
					],
					"name": "excludeFromReward",
					"outputs": [],
					"stateMutability": "nonpayable",
					"type": "function"
				},
				{
					"inputs": [],
					"name": "geUnlockTime",
					"outputs": [
						{
							"internalType": "uint256",
							"name": "",
							"type": "uint256"
						}
					],
					"stateMutability": "view",
					"type": "function"
				},
				{
					"inputs": [
						{
							"internalType": "address",
							"name": "account",
							"type": "address"
						}
					],
					"name": "includeInFee",
					"outputs": [],
					"stateMutability": "nonpayable",
					"type": "function"
				},
				{
					"inputs": [
						{
							"internalType": "address",
							"name": "account",
							"type": "address"
						}
					],
					"name": "includeInReward",
					"outputs": [],
					"stateMutability": "nonpayable",
					"type": "function"
				},
				{
					"inputs": [
						{
							"internalType": "address",
							"name": "spender",
							"type": "address"
						},
						{
							"internalType": "uint256",
							"name": "addedValue",
							"type": "uint256"
						}
					],
					"name": "increaseAllowance",
					"outputs": [
						{
							"internalType": "bool",
							"name": "",
							"type": "bool"
						}
					],
					"stateMutability": "nonpayable",
					"type": "function"
				},
				{
					"inputs": [
						{
							"internalType": "address",
							"name": "account",
							"type": "address"
						}
					],
					"name": "isExcludedFromFee",
					"outputs": [
						{
							"internalType": "bool",
							"name": "",
							"type": "bool"
						}
					],
					"stateMutability": "view",
					"type": "function"
				},
				{
					"inputs": [
						{
							"internalType": "address",
							"name": "account",
							"type": "address"
						}
					],
					"name": "isExcludedFromReward",
					"outputs": [
						{
							"internalType": "bool",
							"name": "",
							"type": "bool"
						}
					],
					"stateMutability": "view",
					"type": "function"
				},
				{
					"inputs": [
						{
							"internalType": "uint256",
							"name": "time",
							"type": "uint256"
						}
					],
					"name": "lock",
					"outputs": [],
					"stateMutability": "nonpayable",
					"type": "function"
				},
				{
					"inputs": [],
					"name": "name",
					"outputs": [
						{
							"internalType": "string",
							"name": "",
							"type": "string"
						}
					],
					"stateMutability": "view",
					"type": "function"
				},
				{
					"inputs": [],
					"name": "owner",
					"outputs": [
						{
							"internalType": "address",
							"name": "",
							"type": "address"
						}
					],
					"stateMutability": "view",
					"type": "function"
				},
				{
					"inputs": [
						{
							"internalType": "uint256",
							"name": "tAmount",
							"type": "uint256"
						},
						{
							"internalType": "bool",
							"name": "deductTransferFee",
							"type": "bool"
						}
					],
					"name": "reflectionFromToken",
					"outputs": [
						{
							"internalType": "uint256",
							"name": "",
							"type": "uint256"
						}
					],
					"stateMutability": "view",
					"type": "function"
				},
				{
					"inputs": [],
					"name": "renounceOwnership",
					"outputs": [],
					"stateMutability": "nonpayable",
					"type": "function"
				},
				{
					"inputs": [
						{
							"internalType": "uint256",
							"name": "liquidityFee",
							"type": "uint256"
						}
					],
					"name": "setLiquidityFeePercent",
					"outputs": [],
					"stateMutability": "nonpayable",
					"type": "function"
				},
				{
					"inputs": [
						{
							"internalType": "uint256",
							"name": "maxTxPercent",
							"type": "uint256"
						}
					],
					"name": "setMaxTxPercent",
					"outputs": [],
					"stateMutability": "nonpayable",
					"type": "function"
				},
				{
					"inputs": [
						{
							"internalType": "bool",
							"name": "_enabled",
							"type": "bool"
						}
					],
					"name": "setSwapAndLiquifyEnabled",
					"outputs": [],
					"stateMutability": "nonpayable",
					"type": "function"
				},
				{
					"inputs": [
						{
							"internalType": "uint256",
							"name": "taxFee",
							"type": "uint256"
						}
					],
					"name": "setTaxFeePercent",
					"outputs": [],
					"stateMutability": "nonpayable",
					"type": "function"
				},
				{
					"inputs": [],
					"name": "swapAndLiquifyEnabled",
					"outputs": [
						{
							"internalType": "bool",
							"name": "",
							"type": "bool"
						}
					],
					"stateMutability": "view",
					"type": "function"
				},
				{
					"inputs": [],
					"name": "symbol",
					"outputs": [
						{
							"internalType": "string",
							"name": "",
							"type": "string"
						}
					],
					"stateMutability": "view",
					"type": "function"
				},
				{
					"inputs": [
						{
							"internalType": "uint256",
							"name": "rAmount",
							"type": "uint256"
						}
					],
					"name": "tokenFromReflection",
					"outputs": [
						{
							"internalType": "uint256",
							"name": "",
							"type": "uint256"
						}
					],
					"stateMutability": "view",
					"type": "function"
				},
				{
					"inputs": [],
					"name": "totalFees",
					"outputs": [
						{
							"internalType": "uint256",
							"name": "",
							"type": "uint256"
						}
					],
					"stateMutability": "view",
					"type": "function"
				},
				{
					"inputs": [],
					"name": "totalSupply",
					"outputs": [
						{
							"internalType": "uint256",
							"name": "",
							"type": "uint256"
						}
					],
					"stateMutability": "view",
					"type": "function"
				},
				{
					"inputs": [
						{
							"internalType": "address",
							"name": "recipient",
							"type": "address"
						},
						{
							"internalType": "uint256",
							"name": "amount",
							"type": "uint256"
						}
					],
					"name": "transfer",
					"outputs": [
						{
							"internalType": "bool",
							"name": "",
							"type": "bool"
						}
					],
					"stateMutability": "nonpayable",
					"type": "function"
				},
				{
					"inputs": [
						{
							"internalType": "address",
							"name": "sender",
							"type": "address"
						},
						{
							"internalType": "address",
							"name": "recipient",
							"type": "address"
						},
						{
							"internalType": "uint256",
							"name": "amount",
							"type": "uint256"
						}
					],
					"name": "transferFrom",
					"outputs": [
						{
							"internalType": "bool",
							"name": "",
							"type": "bool"
						}
					],
					"stateMutability": "nonpayable",
					"type": "function"
				},
				{
					"inputs": [
						{
							"internalType": "address",
							"name": "newOwner",
							"type": "address"
						}
					],
					"name": "transferOwnership",
					"outputs": [],
					"stateMutability": "nonpayable",
					"type": "function"
				},
				{
					"inputs": [],
					"name": "uniswapV2Pair",
					"outputs": [
						{
							"internalType": "address",
							"name": "",
							"type": "address"
						}
					],
					"stateMutability": "view",
					"type": "function"
				},
				{
					"inputs": [],
					"name": "uniswapV2Router",
					"outputs": [
						{
							"internalType": "contract IUniswapV2Router02",
							"name": "",
							"type": "address"
						}
					],
					"stateMutability": "view",
					"type": "function"
				},
				{
					"inputs": [],
					"name": "unlock",
					"outputs": [],
					"stateMutability": "nonpayable",
					"type": "function"
				},
				{
					"stateMutability": "payable",
					"type": "receive"
				}
			],
			"devdoc": {
				"kind": "dev",
				"methods": {
					"allowance(address,address)": {
						"details": "Returns the remaining number of tokens that `spender` will be allowed to spend on behalf of `owner` through {transferFrom}. This is zero by default. This value changes when {approve} or {transferFrom} are called."
					},
					"approve(address,uint256)": {
						"details": "Sets `amount` as the allowance of `spender` over the caller's tokens. Returns a boolean value indicating whether the operation succeeded. IMPORTANT: Beware that changing an allowance with this method brings the risk that someone may use both the old and the new allowance by unfortunate transaction ordering. One possible solution to mitigate this race condition is to first reduce the spender's allowance to 0 and set the desired value afterwards: https://github.com/ethereum/EIPs/issues/20#issuecomment-263524729 Emits an {Approval} event."
					},
					"balanceOf(address)": {
						"details": "Returns the amount of tokens owned by `account`."
					},
					"owner()": {
						"details": "Returns the address of the current owner."
					},
					"renounceOwnership()": {
						"details": "Leaves the contract without owner. It will not be possible to call `onlyOwner` functions anymore. Can only be called by the current owner. NOTE: Renouncing ownership will leave the contract without an owner, thereby removing any functionality that is only available to the owner."
					},
					"transfer(address,uint256)": {
						"details": "Moves `amount` tokens from the caller's account to `recipient`. Returns a boolean value indicating whether the operation succeeded. Emits a {Transfer} event."
					},
					"transferFrom(address,address,uint256)": {
						"details": "Moves `amount` tokens from `sender` to `recipient` using the allowance mechanism. `amount` is then deducted from the caller's allowance. Returns a boolean value indicating whether the operation succeeded. Emits a {Transfer} event."
					},
					"transferOwnership(address)": {
						"details": "Transfers ownership of the contract to a new account (`newOwner`). Can only be called by the current owner."
					}
				},
				"version": 1
			},
			"evm": {
				"assembly": "    /* \"contracts/Pool/Pool.sol\":25390:43293  contract SafeMoon is Context, IERC20, Ownable {... */\n  mstore(0x40, 0xc0)\n    /* \"contracts/Pool/Pool.sol\":25903:25929  1000000000 * 10**6 * 10**9 */\n  0xd3c21bcecceda1000000\n    /* \"contracts/Pool/Pool.sol\":25877:25929  uint256 private _tTotal = 1000000000 * 10**6 * 10**9 */\n  0x09\n  sstore\n    /* \"contracts/Pool/Pool.sol\":25975:25982  _tTotal */\n  sload(0x09)\n    /* \"contracts/Pool/Pool.sol\":25869:25870  0 */\n  0x00\n    /* \"contracts/Pool/Pool.sol\":25860:25871  ~uint256(0) */\n  not\n    /* \"contracts/Pool/Pool.sol\":25969:25982  MAX % _tTotal */\n  dup2\n  tag_1\n  jumpi\n  invalid\ntag_1:\n  mod\n    /* \"contracts/Pool/Pool.sol\":25869:25870  0 */\n  0x00\n    /* \"contracts/Pool/Pool.sol\":25860:25871  ~uint256(0) */\n  not\n    /* \"contracts/Pool/Pool.sol\":25962:25983  MAX - (MAX % _tTotal) */\n  sub\n    /* \"contracts/Pool/Pool.sol\":25935:25984  uint256 private _rTotal = (MAX - (MAX % _tTotal)) */\n  0x0a\n  sstore\n    /* \"contracts/Pool/Pool.sol\":26023:26056  string private _name = \"SafeMoon\" */\n  mload(0x40)\n  dup1\n  0x40\n  add\n  0x40\n  mstore\n  dup1\n  0x08\n  dup2\n  mstore\n  0x20\n  add\n  0x536166654d6f6f6e000000000000000000000000000000000000000000000000\n  dup2\n  mstore\n  pop\n  0x0c\n  swap1\n  dup1\n  mload\n  swap1\n  0x20\n  add\n  swap1\n  tag_2\n  swap3\n  swap2\n  swap1\n  tag_3\n  jump\t// in\ntag_2:\n  pop\n    /* \"contracts/Pool/Pool.sol\":26062:26097  string private _symbol = \"SAFEMOON\" */\n  mload(0x40)\n  dup1\n  0x40\n  add\n  0x40\n  mstore\n  dup1\n  0x08\n  dup2\n  mstore\n  0x20\n  add\n  0x534146454d4f4f4e000000000000000000000000000000000000000000000000\n  dup2\n  mstore\n  pop\n  0x0d\n  swap1\n  dup1\n  mload\n  swap1\n  0x20\n  add\n  swap1\n  tag_4\n  swap3\n  swap2\n  swap1\n  tag_3\n  jump\t// in\ntag_4:\n  pop\n    /* \"contracts/Pool/Pool.sol\":26129:26130  9 */\n  0x09\n    /* \"contracts/Pool/Pool.sol\":26103:26130  uint8 private _decimals = 9 */\n  0x0e\n  exp(0x0100, 0x00)\n  dup2\n  sload\n  dup2\n  0xff\n  mul\n  not\n  and\n  swap1\n  dup4\n  0xff\n  and\n  mul\n  or\n  swap1\n  sstore\n  pop\n    /* \"contracts/Pool/Pool.sol\":26166:26167  5 */\n  0x05\n    /* \"contracts/Pool/Pool.sol\":26141:26167  uint256 public _taxFee = 5 */\n  0x0f\n  sstore\n    /* \"contracts/Pool/Pool.sol\":26207:26214  _taxFee */\n  sload(0x0f)\n    /* \"contracts/Pool/Pool.sol\":26173:26214  uint256 private _previousTaxFee = _taxFee */\n  0x10\n  sstore\n    /* \"contracts/Pool/Pool.sol\":26256:26257  5 */\n  0x05\n    /* \"contracts/Pool/Pool.sol\":26225:26257  uint256 public _liquidityFee = 5 */\n  0x11\n  sstore\n    /* \"contracts/Pool/Pool.sol\":26303:26316  _liquidityFee */\n  sload(0x11)\n    /* \"contracts/Pool/Pool.sol\":26263:26316  uint256 private _previousLiquidityFee = _liquidityFee */\n  0x12\n  sstore\n    /* \"contracts/Pool/Pool.sol\":26492:26496  true */\n  0x01\n    /* \"contracts/Pool/Pool.sol\":26456:26496  bool public swapAndLiquifyEnabled = true */\n  0x13\n  exp(0x0100, 0x01)\n  dup2\n  sload\n  dup2\n  0xff\n  mul\n  not\n  and\n  swap1\n  dup4\n  iszero\n  iszero\n  mul\n  or\n  swap1\n  sstore\n  pop\n    /* \"contracts/Pool/Pool.sol\":26537:26560  5000000 * 10**6 * 10**9 */\n  0x010f0cf064dd59200000\n    /* \"contracts/Pool/Pool.sol\":26507:26560  uint256 public _maxTxAmount = 5000000 * 10**6 * 10**9 */\n  0x14\n  sstore\n    /* \"contracts/Pool/Pool.sol\":26614:26636  500000 * 10**6 * 10**9 */\n  0x1b1ae4d6e2ef500000\n    /* \"contracts/Pool/Pool.sol\":26566:26636  uint256 private numTokensSellToAddToLiquidity = 500000 * 10**6 * 10**9 */\n  0x15\n  sstore\n    /* \"contracts/Pool/Pool.sol\":27017:27710  constructor () public {... */\n  callvalue\n  dup1\n  iszero\n  tag_5\n  jumpi\n  0x00\n  dup1\n  revert\ntag_5:\n  pop\n    /* \"contracts/Pool/Pool.sol\":15410:15427  address msgSender */\n  0x00\n    /* \"contracts/Pool/Pool.sol\":15430:15442  _msgSender() */\n  tag_9\n    /* \"contracts/Pool/Pool.sol\":15430:15440  _msgSender */\n  shl(0x20, tag_10)\n    /* \"contracts/Pool/Pool.sol\":15430:15442  _msgSender() */\n  0x20\n  shr\n  jump\t// in\ntag_9:\n    /* \"contracts/Pool/Pool.sol\":15410:15442  address msgSender = _msgSender() */\n  swap1\n  pop\n    /* \"contracts/Pool/Pool.sol\":15461:15470  msgSender */\n  dup1\n    /* \"contracts/Pool/Pool.sol\":15452:15458  _owner */\n  0x00\n  dup1\n    /* \"contracts/Pool/Pool.sol\":15452:15470  _owner = msgSender */\n  0x0100\n  exp\n  dup2\n  sload\n  dup2\n  0xffffffffffffffffffffffffffffffffffffffff\n  mul\n  not\n  and\n  swap1\n  dup4\n  0xffffffffffffffffffffffffffffffffffffffff\n  and\n  mul\n  or\n  swap1\n  sstore\n  pop\n    /* \"contracts/Pool/Pool.sol\":15518:15527  msgSender */\n  dup1\n    /* \"contracts/Pool/Pool.sol\":15485:15528  OwnershipTransferred(address(0), msgSender) */\n  0xffffffffffffffffffffffffffffffffffffffff\n  and\n    /* \"contracts/Pool/Pool.sol\":15514:15515  0 */\n  0x00\n    /* \"contracts/Pool/Pool.sol\":15485:15528  OwnershipTransferred(address(0), msgSender) */\n  0xffffffffffffffffffffffffffffffffffffffff\n  and\n  0x8be0079c531659141344cd1fd0a4f28419497f9722a3daafe3b4186f6b6457e0\n  mload(0x40)\n  mload(0x40)\n  dup1\n  swap2\n  sub\n  swap1\n  log3\n    /* \"contracts/Pool/Pool.sol\":15376:15535  constructor () internal {... */\n  pop\n    /* \"contracts/Pool/Pool.sol\":27073:27080  _rTotal */\n  sload(0x0a)\n    /* \"contracts/Pool/Pool.sol\":27049:27056  _rOwned */\n  0x03\n    /* \"contracts/Pool/Pool.sol\":27049:27070  _rOwned[_msgSender()] */\n  0x00\n    /* \"contracts/Pool/Pool.sol\":27057:27069  _msgSender() */\n  tag_12\n    /* \"contracts/Pool/Pool.sol\":27057:27067  _msgSender */\n  shl(0x20, tag_10)\n    /* \"contracts/Pool/Pool.sol\":27057:27069  _msgSender() */\n  0x20\n  shr\n  jump\t// in\ntag_12:\n    /* \"contracts/Pool/Pool.sol\":27049:27070  _rOwned[_msgSender()] */\n  0xffffffffffffffffffffffffffffffffffffffff\n  and\n  0xffffffffffffffffffffffffffffffffffffffff\n  and\n  dup2\n  mstore\n  0x20\n  add\n  swap1\n  dup2\n  mstore\n  0x20\n  add\n  0x00\n  keccak256\n    /* \"contracts/Pool/Pool.sol\":27049:27080  _rOwned[_msgSender()] = _rTotal */\n  dup2\n  swap1\n  sstore\n  pop\n    /* \"contracts/Pool/Pool.sol\":27099:27134  IUniswapV2Router02 _uniswapV2Router */\n  0x00\n    /* \"contracts/Pool/Pool.sol\":27156:27198  0x05fF2B0DB69458A0750badebc4f9e13aDd608C7F */\n  0x05ff2b0db69458a0750badebc4f9e13add608c7f\n    /* \"contracts/Pool/Pool.sol\":27099:27199  IUniswapV2Router02 _uniswapV2Router = IUniswapV2Router02(0x05fF2B0DB69458A0750badebc4f9e13aDd608C7F) */\n  swap1\n  pop\n    /* \"contracts/Pool/Pool.sol\":27296:27312  _uniswapV2Router */\n  dup1\n    /* \"contracts/Pool/Pool.sol\":27296:27320  _uniswapV2Router.factory */\n  0xffffffffffffffffffffffffffffffffffffffff\n  and\n  0xc45a0155\n    /* \"contracts/Pool/Pool.sol\":27296:27322  _uniswapV2Router.factory() */\n  mload(0x40)\n  dup2\n  0xffffffff\n  and\n  0xe0\n  shl\n  dup2\n  mstore\n  0x04\n  add\n  0x20\n  mload(0x40)\n  dup1\n  dup4\n  sub\n  dup2\n  dup7\n  dup1\n  extcodesize\n  iszero\n  dup1\n  iszero\n  tag_13\n  jumpi\n  0x00\n  dup1\n  revert\ntag_13:\n  pop\n  gas\n  staticcall\n  iszero\n  dup1\n  iszero\n  tag_15\n  jumpi\n  returndatasize\n  0x00\n  dup1\n  returndatacopy\n  revert(0x00, returndatasize)\ntag_15:\n  pop\n  pop\n  pop\n  pop\n  mload(0x40)\n  returndatasize\n  0x20\n  dup2\n  lt\n  iszero\n  tag_16\n  jumpi\n  0x00\n  dup1\n  revert\ntag_16:\n  dup2\n  add\n  swap1\n  dup1\n  dup1\n  mload\n  swap1\n  0x20\n  add\n  swap1\n  swap3\n  swap2\n  swap1\n  pop\n  pop\n  pop\n    /* \"contracts/Pool/Pool.sol\":27278:27347  IUniswapV2Factory(_uniswapV2Router.factory())... */\n  0xffffffffffffffffffffffffffffffffffffffff\n  and\n  0xc9c65396\n    /* \"contracts/Pool/Pool.sol\":27356:27360  this */\n  address\n    /* \"contracts/Pool/Pool.sol\":27363:27379  _uniswapV2Router */\n  dup4\n    /* \"contracts/Pool/Pool.sol\":27363:27384  _uniswapV2Router.WETH */\n  0xffffffffffffffffffffffffffffffffffffffff\n  and\n  0xad5c4648\n    /* \"contracts/Pool/Pool.sol\":27363:27386  _uniswapV2Router.WETH() */\n  mload(0x40)\n  dup2\n  0xffffffff\n  and\n  0xe0\n  shl\n  dup2\n  mstore\n  0x04\n  add\n  0x20\n  mload(0x40)\n  dup1\n  dup4\n  sub\n  dup2\n  dup7\n  dup1\n  extcodesize\n  iszero\n  dup1\n  iszero\n  tag_17\n  jumpi\n  0x00\n  dup1\n  revert\ntag_17:\n  pop\n  gas\n  staticcall\n  iszero\n  dup1\n  iszero\n  tag_19\n  jumpi\n  returndatasize\n  0x00\n  dup1\n  returndatacopy\n  revert(0x00, returndatasize)\ntag_19:\n  pop\n  pop\n  pop\n  pop\n  mload(0x40)\n  returndatasize\n  0x20\n  dup2\n  lt\n  iszero\n  tag_20\n  jumpi\n  0x00\n  dup1\n  revert\ntag_20:\n  dup2\n  add\n  swap1\n  dup1\n  dup1\n  mload\n  swap1\n  0x20\n  add\n  swap1\n  swap3\n  swap2\n  swap1\n  pop\n  pop\n  pop\n    /* \"contracts/Pool/Pool.sol\":27278:27387  IUniswapV2Factory(_uniswapV2Router.factory())... */\n  mload(0x40)\n  dup4\n  0xffffffff\n  and\n  0xe0\n  shl\n  dup2\n  mstore\n  0x04\n  add\n  dup1\n  dup4\n  0xffffffffffffffffffffffffffffffffffffffff\n  and\n  dup2\n  mstore\n  0x20\n  add\n  dup3\n  0xffffffffffffffffffffffffffffffffffffffff\n  and\n  dup2\n  mstore\n  0x20\n  add\n  swap3\n  pop\n  pop\n  pop\n  0x20\n  mload(0x40)\n  dup1\n  dup4\n  sub\n  dup2\n  0x00\n  dup8\n  dup1\n  extcodesize\n  iszero\n  dup1\n  iszero\n  tag_21\n  jumpi\n  0x00\n  dup1\n  revert\ntag_21:\n  pop\n  gas\n  call\n  iszero\n  dup1\n  iszero\n  tag_23\n  jumpi\n  returndatasize\n  0x00\n  dup1\n  returndatacopy\n  revert(0x00, returndatasize)\ntag_23:\n  pop\n  pop\n  pop\n  pop\n  mload(0x40)\n  returndatasize\n  0x20\n  dup2\n  lt\n  iszero\n  tag_24\n  jumpi\n  0x00\n  dup1\n  revert\ntag_24:\n  dup2\n  add\n  swap1\n  dup1\n  dup1\n  mload\n  swap1\n  0x20\n  add\n  swap1\n  swap3\n  swap2\n  swap1\n  pop\n  pop\n  pop\n    /* \"contracts/Pool/Pool.sol\":27262:27387  uniswapV2Pair = IUniswapV2Factory(_uniswapV2Router.factory())... */\n  0xffffffffffffffffffffffffffffffffffffffff\n  and\n  0xa0\n  dup2\n  0xffffffffffffffffffffffffffffffffffffffff\n  and\n  0x60\n  shl\n  dup2\n  mstore\n  pop\n  pop\n    /* \"contracts/Pool/Pool.sol\":27466:27482  _uniswapV2Router */\n  dup1\n    /* \"contracts/Pool/Pool.sol\":27448:27482  uniswapV2Router = _uniswapV2Router */\n  0xffffffffffffffffffffffffffffffffffffffff\n  and\n  0x80\n  dup2\n  0xffffffffffffffffffffffffffffffffffffffff\n  and\n  0x60\n  shl\n  dup2\n  mstore\n  pop\n  pop\n    /* \"contracts/Pool/Pool.sol\":27582:27586  true */\n  0x01\n    /* \"contracts/Pool/Pool.sol\":27552:27570  _isExcludedFromFee */\n  0x06\n    /* \"contracts/Pool/Pool.sol\":27552:27579  _isExcludedFromFee[owner()] */\n  0x00\n    /* \"contracts/Pool/Pool.sol\":27571:27578  owner() */\n  tag_25\n    /* \"contracts/Pool/Pool.sol\":27571:27576  owner */\n  shl(0x20, tag_26)\n    /* \"contracts/Pool/Pool.sol\":27571:27578  owner() */\n  0x20\n  shr\n  jump\t// in\ntag_25:\n    /* \"contracts/Pool/Pool.sol\":27552:27579  _isExcludedFromFee[owner()] */\n  0xffffffffffffffffffffffffffffffffffffffff\n  and\n  0xffffffffffffffffffffffffffffffffffffffff\n  and\n  dup2\n  mstore\n  0x20\n  add\n  swap1\n  dup2\n  mstore\n  0x20\n  add\n  0x00\n  keccak256\n  0x00\n    /* \"contracts/Pool/Pool.sol\":27552:27586  _isExcludedFromFee[owner()] = true */\n  0x0100\n  exp\n  dup2\n  sload\n  dup2\n  0xff\n  mul\n  not\n  and\n  swap1\n  dup4\n  iszero\n  iszero\n  mul\n  or\n  swap1\n  sstore\n  pop\n    /* \"contracts/Pool/Pool.sol\":27632:27636  true */\n  0x01\n    /* \"contracts/Pool/Pool.sol\":27596:27614  _isExcludedFromFee */\n  0x06\n    /* \"contracts/Pool/Pool.sol\":27596:27629  _isExcludedFromFee[address(this)] */\n  0x00\n    /* \"contracts/Pool/Pool.sol\":27623:27627  this */\n  address\n    /* \"contracts/Pool/Pool.sol\":27596:27629  _isExcludedFromFee[address(this)] */\n  0xffffffffffffffffffffffffffffffffffffffff\n  and\n  0xffffffffffffffffffffffffffffffffffffffff\n  and\n  dup2\n  mstore\n  0x20\n  add\n  swap1\n  dup2\n  mstore\n  0x20\n  add\n  0x00\n  keccak256\n  0x00\n    /* \"contracts/Pool/Pool.sol\":27596:27636  _isExcludedFromFee[address(this)] = true */\n  0x0100\n  exp\n  dup2\n  sload\n  dup2\n  0xff\n  mul\n  not\n  and\n  swap1\n  dup4\n  iszero\n  iszero\n  mul\n  or\n  swap1\n  sstore\n  pop\n    /* \"contracts/Pool/Pool.sol\":27681:27693  _msgSender() */\n  tag_27\n    /* \"contracts/Pool/Pool.sol\":27681:27691  _msgSender */\n  shl(0x20, tag_10)\n    /* \"contracts/Pool/Pool.sol\":27681:27693  _msgSender() */\n  0x20\n  shr\n  jump\t// in\ntag_27:\n    /* \"contracts/Pool/Pool.sol\":27660:27703  Transfer(address(0), _msgSender(), _tTotal) */\n  0xffffffffffffffffffffffffffffffffffffffff\n  and\n    /* \"contracts/Pool/Pool.sol\":27677:27678  0 */\n  0x00\n    /* \"contracts/Pool/Pool.sol\":27660:27703  Transfer(address(0), _msgSender(), _tTotal) */\n  0xffffffffffffffffffffffffffffffffffffffff\n  and\n  0xddf252ad1be2c89b69c2b068fc378daa952ba7f163c4a11628f55a4df523b3ef\n    /* \"contracts/Pool/Pool.sol\":27695:27702  _tTotal */\n  sload(0x09)\n    /* \"contracts/Pool/Pool.sol\":27660:27703  Transfer(address(0), _msgSender(), _tTotal) */\n  mload(0x40)\n  dup1\n  dup3\n  dup2\n  mstore\n  0x20\n  add\n  swap2\n  pop\n  pop\n  mload(0x40)\n  dup1\n  swap2\n  sub\n  swap1\n  log3\n    /* \"contracts/Pool/Pool.sol\":27017:27710  constructor () public {... */\n  pop\n    /* \"contracts/Pool/Pool.sol\":25390:43293  contract SafeMoon is Context, IERC20, Ownable {... */\n  jump(tag_28)\n    /* \"contracts/Pool/Pool.sol\":8199:8303  function _msgSender() internal view virtual returns (address payable) {... */\ntag_10:\n    /* \"contracts/Pool/Pool.sol\":8252:8267  address payable */\n  0x00\n    /* \"contracts/Pool/Pool.sol\":8286:8296  msg.sender */\n  caller\n    /* \"contracts/Pool/Pool.sol\":8279:8296  return msg.sender */\n  swap1\n  pop\n    /* \"contracts/Pool/Pool.sol\":8199:8303  function _msgSender() internal view virtual returns (address payable) {... */\n  swap1\n  jump\t// out\n    /* \"contracts/Pool/Pool.sol\":15611:15688  function owner() public view returns (address) {... */\ntag_26:\n    /* \"contracts/Pool/Pool.sol\":15649:15656  address */\n  0x00\n    /* \"contracts/Pool/Pool.sol\":15675:15681  _owner */\n  dup1\n  0x00\n  swap1\n  sload\n  swap1\n  0x0100\n  exp\n  swap1\n  div\n  0xffffffffffffffffffffffffffffffffffffffff\n  and\n    /* \"contracts/Pool/Pool.sol\":15668:15681  return _owner */\n  swap1\n  pop\n    /* \"contracts/Pool/Pool.sol\":15611:15688  function owner() public view returns (address) {... */\n  swap1\n  jump\t// out\n    /* \"contracts/Pool/Pool.sol\":25390:43293  contract SafeMoon is Context, IERC20, Ownable {... */\ntag_3:\n  dup3\n  dup1\n  sload\n  0x01\n  dup2\n  0x01\n  and\n  iszero\n  0x0100\n  mul\n  sub\n  and\n  0x02\n  swap1\n  div\n  swap1\n  0x00\n  mstore\n  keccak256(0x00, 0x20)\n  swap1\n  0x1f\n  add\n  0x20\n  swap1\n  div\n  dup2\n  add\n  swap3\n  dup3\n  0x1f\n  lt\n  tag_32\n  jumpi\n  dup1\n  mload\n  not(0xff)\n  and\n  dup4\n  dup1\n  add\n  or\n  dup6\n  sstore\n  jump(tag_31)\ntag_32:\n  dup3\n  dup1\n  add\n  0x01\n  add\n  dup6\n  sstore\n  dup3\n  iszero\n  tag_31\n  jumpi\n  swap2\n  dup3\n  add\ntag_33:\n  dup3\n  dup2\n  gt\n  iszero\n  tag_34\n  jumpi\n  dup3\n  mload\n  dup3\n  sstore\n  swap2\n  0x20\n  add\n  swap2\n  swap1\n  0x01\n  add\n  swap1\n  jump(tag_33)\ntag_34:\ntag_31:\n  pop\n  swap1\n  pop\n  tag_35\n  swap2\n  swap1\n  tag_36\n  jump\t// in\ntag_35:\n  pop\n  swap1\n  jump\t// out\ntag_36:\ntag_37:\n  dup1\n  dup3\n  gt\n  iszero\n  tag_38\n  jumpi\n  0x00\n  dup2\n  0x00\n  swap1\n  sstore\n  pop\n  0x01\n  add\n  jump(tag_37)\ntag_38:\n  pop\n  swap1\n  jump\t// out\ntag_28:\n  shr(0x60, mload(0x80))\n  shr(0x60, mload(0xa0))\n  codecopy(0x00, dataOffset(sub_0), dataSize(sub_0))\n  assignImmutable(\"0x3420243e987a0dddfaa7d77b227cced5f6bc741ff3ff5461051f619ef3b8b7b2\")\n  assignImmutable(\"0xfc57b5902f0023899e1247e2ff263b1dfd650a9d73b378b1a0bb28583d7847fc\")\n  return(0x00, dataSize(sub_0))\nstop\n\nsub_0: assembly {\n        /* \"contracts/Pool/Pool.sol\":25390:43293  contract SafeMoon is Context, IERC20, Ownable {... */\n      mstore(0x40, 0x80)\n      jumpi(tag_1, lt(calldatasize, 0x04))\n      shr(0xe0, calldataload(0x00))\n      dup1\n      0x5342acb4\n      gt\n      tag_40\n      jumpi\n      dup1\n      0xa457c2d7\n      gt\n      tag_41\n      jumpi\n      dup1\n      0xd543dbeb\n      gt\n      tag_42\n      jumpi\n      dup1\n      0xd543dbeb\n      eq\n      tag_35\n      jumpi\n      dup1\n      0xdd467064\n      eq\n      tag_36\n      jumpi\n      dup1\n      0xdd62ed3e\n      eq\n      tag_37\n      jumpi\n      dup1\n      0xea2f0b37\n      eq\n      tag_38\n      jumpi\n      dup1\n      0xf2fde38b\n      eq\n      tag_39\n      jumpi\n      jump(tag_2)\n    tag_42:\n      dup1\n      0xa457c2d7\n      eq\n      tag_30\n      jumpi\n      dup1\n      0xa69df4b5\n      eq\n      tag_31\n      jumpi\n      dup1\n      0xa9059cbb\n      eq\n      tag_32\n      jumpi\n      dup1\n      0xb6c52324\n      eq\n      tag_33\n      jumpi\n      dup1\n      0xc49b9a80\n      eq\n      tag_34\n      jumpi\n      jump(tag_2)\n    tag_41:\n      dup1\n      0x7d1db4a5\n      gt\n      tag_43\n      jumpi\n      dup1\n      0x7d1db4a5\n      eq\n      tag_25\n      jumpi\n      dup1\n      0x88f82020\n      eq\n      tag_26\n      jumpi\n      dup1\n      0x8da5cb5b\n      eq\n      tag_27\n      jumpi\n      dup1\n      0x8ee88c53\n      eq\n      tag_28\n      jumpi\n      dup1\n      0x95d89b41\n      eq\n      tag_29\n      jumpi\n      jump(tag_2)\n    tag_43:\n      dup1\n      0x5342acb4\n      eq\n      tag_21\n      jumpi\n      dup1\n      0x6bc87c3a\n      eq\n      tag_22\n      jumpi\n      dup1\n      0x70a08231\n      eq\n      tag_23\n      jumpi\n      dup1\n      0x715018a6\n      eq\n      tag_24\n      jumpi\n      jump(tag_2)\n    tag_40:\n      dup1\n      0x3685d419\n      gt\n      tag_44\n      jumpi\n      dup1\n      0x437823ec\n      gt\n      tag_45\n      jumpi\n      dup1\n      0x437823ec\n      eq\n      tag_16\n      jumpi\n      dup1\n      0x4549b039\n      eq\n      tag_17\n      jumpi\n      dup1\n      0x49bd5a5e\n      eq\n      tag_18\n      jumpi\n      dup1\n      0x4a74bb02\n      eq\n      tag_19\n      jumpi\n      dup1\n      0x52390c02\n      eq\n      tag_20\n      jumpi\n      jump(tag_2)\n    tag_45:\n      dup1\n      0x3685d419\n      eq\n      tag_12\n      jumpi\n      dup1\n      0x39509351\n      eq\n      tag_13\n      jumpi\n      dup1\n      0x3b124fe7\n      eq\n      tag_14\n      jumpi\n      dup1\n      0x3bd5d173\n      eq\n      tag_15\n      jumpi\n      jump(tag_2)\n    tag_44:\n      dup1\n      0x1694505e\n      gt\n      tag_46\n      jumpi\n      dup1\n      0x1694505e\n      eq\n      tag_7\n      jumpi\n      dup1\n      0x18160ddd\n      eq\n      tag_8\n      jumpi\n      dup1\n      0x23b872dd\n      eq\n      tag_9\n      jumpi\n      dup1\n      0x2d838119\n      eq\n      tag_10\n      jumpi\n      dup1\n      0x313ce567\n      eq\n      tag_11\n      jumpi\n      jump(tag_2)\n    tag_46:\n      dup1\n      0x061c82d0\n      eq\n      tag_3\n      jumpi\n      dup1\n      0x06fdde03\n      eq\n      tag_4\n      jumpi\n      dup1\n      0x095ea7b3\n      eq\n      tag_5\n      jumpi\n      dup1\n      0x13114a9d\n      eq\n      tag_6\n      jumpi\n      jump(tag_2)\n    tag_1:\n      jumpi(tag_2, calldatasize)\n      stop\n    tag_2:\n      0x00\n      dup1\n      revert\n        /* \"contracts/Pool/Pool.sol\":32655:32751  function setTaxFeePercent(uint256 taxFee) external onlyOwner() {... */\n    tag_3:\n      callvalue\n      dup1\n      iszero\n      tag_49\n      jumpi\n      0x00\n      dup1\n      revert\n    tag_49:\n      pop\n      tag_50\n      0x04\n      dup1\n      calldatasize\n      sub\n      0x20\n      dup2\n      lt\n      iszero\n      tag_51\n      jumpi\n      0x00\n      dup1\n      revert\n    tag_51:\n      dup2\n      add\n      swap1\n      dup1\n      dup1\n      calldataload\n      swap1\n      0x20\n      add\n      swap1\n      swap3\n      swap2\n      swap1\n      pop\n      pop\n      pop\n      tag_52\n      jump\t// in\n    tag_50:\n      stop\n        /* \"contracts/Pool/Pool.sol\":27716:27797  function name() public view returns (string memory) {... */\n    tag_4:\n      callvalue\n      dup1\n      iszero\n      tag_53\n      jumpi\n      0x00\n      dup1\n      revert\n    tag_53:\n      pop\n      tag_54\n      tag_55\n      jump\t// in\n    tag_54:\n      mload(0x40)\n      dup1\n      dup1\n      0x20\n      add\n      dup3\n      dup2\n      sub\n      dup3\n      mstore\n      dup4\n      dup2\n      dup2\n      mload\n      dup2\n      mstore\n      0x20\n      add\n      swap2\n      pop\n      dup1\n      mload\n      swap1\n      0x20\n      add\n      swap1\n      dup1\n      dup4\n      dup4\n      0x00\n    tag_56:\n      dup4\n      dup2\n      lt\n      iszero\n      tag_58\n      jumpi\n      dup1\n      dup3\n      add\n      mload\n      dup2\n      dup5\n      add\n      mstore\n      0x20\n      dup2\n      add\n      swap1\n      pop\n      jump(tag_56)\n    tag_58:\n      pop\n      pop\n      pop\n      pop\n      swap1\n      pop\n      swap1\n      dup2\n      add\n      swap1\n      0x1f\n      and\n      dup1\n      iszero\n      tag_59\n      jumpi\n      dup1\n      dup3\n      sub\n      dup1\n      mload\n      0x01\n      dup4\n      0x20\n      sub\n      0x0100\n      exp\n      sub\n      not\n      and\n      dup2\n      mstore\n      0x20\n      add\n      swap2\n      pop\n    tag_59:\n      pop\n      swap3\n      pop\n      pop\n      pop\n      mload(0x40)\n      dup1\n      swap2\n      sub\n      swap1\n      return\n        /* \"contracts/Pool/Pool.sol\":28598:28756  function approve(address spender, uint256 amount) public override returns (bool) {... */\n    tag_5:\n      callvalue\n      dup1\n      iszero\n      tag_60\n      jumpi\n      0x00\n      dup1\n      revert\n    tag_60:\n      pop\n      tag_61\n      0x04\n      dup1\n      calldatasize\n      sub\n      0x40\n      dup2\n      lt\n      iszero\n      tag_62\n      jumpi\n      0x00\n      dup1\n      revert\n    tag_62:\n      dup2\n      add\n      swap1\n      dup1\n      dup1\n      calldataload\n      0xffffffffffffffffffffffffffffffffffffffff\n      and\n      swap1\n      0x20\n      add\n      swap1\n      swap3\n      swap2\n      swap1\n      dup1\n      calldataload\n      swap1\n      0x20\n      add\n      swap1\n      swap3\n      swap2\n      swap1\n      pop\n      pop\n      pop\n      tag_63\n      jump\t// in\n    tag_61:\n      mload(0x40)\n      dup1\n      dup3\n      iszero\n      iszero\n      dup2\n      mstore\n      0x20\n      add\n      swap2\n      pop\n      pop\n      mload(0x40)\n      dup1\n      swap2\n      sub\n      swap1\n      return\n        /* \"contracts/Pool/Pool.sol\":29694:29779  function totalFees() public view returns (uint256) {... */\n    tag_6:\n      callvalue\n      dup1\n      iszero\n      tag_64\n      jumpi\n      0x00\n      dup1\n      revert\n    tag_64:\n      pop\n      tag_65\n      tag_66\n      jump\t// in\n    tag_65:\n      mload(0x40)\n      dup1\n      dup3\n      dup2\n      mstore\n      0x20\n      add\n      swap2\n      pop\n      pop\n      mload(0x40)\n      dup1\n      swap2\n      sub\n      swap1\n      return\n        /* \"contracts/Pool/Pool.sol\":26323:26374  IUniswapV2Router02 public immutable uniswapV2Router */\n    tag_7:\n      callvalue\n      dup1\n      iszero\n      tag_67\n      jumpi\n      0x00\n      dup1\n      revert\n    tag_67:\n      pop\n      tag_68\n      tag_69\n      jump\t// in\n    tag_68:\n      mload(0x40)\n      dup1\n      dup3\n      0xffffffffffffffffffffffffffffffffffffffff\n      and\n      dup2\n      mstore\n      0x20\n      add\n      swap2\n      pop\n      pop\n      mload(0x40)\n      dup1\n      swap2\n      sub\n      swap1\n      return\n        /* \"contracts/Pool/Pool.sol\":27981:28074  function totalSupply() public view override returns (uint256) {... */\n    tag_8:\n      callvalue\n      dup1\n      iszero\n      tag_70\n      jumpi\n      0x00\n      dup1\n      revert\n    tag_70:\n      pop\n      tag_71\n      tag_72\n      jump\t// in\n    tag_71:\n      mload(0x40)\n      dup1\n      dup3\n      dup2\n      mstore\n      0x20\n      add\n      swap2\n      pop\n      pop\n      mload(0x40)\n      dup1\n      swap2\n      sub\n      swap1\n      return\n        /* \"contracts/Pool/Pool.sol\":28762:29071  function transferFrom(address sender, address recipient, uint256 amount) public override returns (bool) {... */\n    tag_9:\n      callvalue\n      dup1\n      iszero\n      tag_73\n      jumpi\n      0x00\n      dup1\n      revert\n    tag_73:\n      pop\n      tag_74\n      0x04\n      dup1\n      calldatasize\n      sub\n      0x60\n      dup2\n      lt\n      iszero\n      tag_75\n      jumpi\n      0x00\n      dup1\n      revert\n    tag_75:\n      dup2\n      add\n      swap1\n      dup1\n      dup1\n      calldataload\n      0xffffffffffffffffffffffffffffffffffffffff\n      and\n      swap1\n      0x20\n      add\n      swap1\n      swap3\n      swap2\n      swap1\n      dup1\n      calldataload\n      0xffffffffffffffffffffffffffffffffffffffff\n      and\n      swap1\n      0x20\n      add\n      swap1\n      swap3\n      swap2\n      swap1\n      dup1\n      calldataload\n      swap1\n      0x20\n      add\n      swap1\n      swap3\n      swap2\n      swap1\n      pop\n      pop\n      pop\n      tag_76\n      jump\t// in\n    tag_74:\n      mload(0x40)\n      dup1\n      dup3\n      iszero\n      iszero\n      dup2\n      mstore\n      0x20\n      add\n      swap2\n      pop\n      pop\n      mload(0x40)\n      dup1\n      swap2\n      sub\n      swap1\n      return\n        /* \"contracts/Pool/Pool.sol\":30594:30843  function tokenFromReflection(uint256 rAmount) public view returns(uint256) {... */\n    tag_10:\n      callvalue\n      dup1\n      iszero\n      tag_77\n      jumpi\n      0x00\n      dup1\n      revert\n    tag_77:\n      pop\n      tag_78\n      0x04\n      dup1\n      calldatasize\n      sub\n      0x20\n      dup2\n      lt\n      iszero\n      tag_79\n      jumpi\n      0x00\n      dup1\n      revert\n    tag_79:\n      dup2\n      add\n      swap1\n      dup1\n      dup1\n      calldataload\n      swap1\n      0x20\n      add\n      swap1\n      swap3\n      swap2\n      swap1\n      pop\n      pop\n      pop\n      tag_80\n      jump\t// in\n    tag_78:\n      mload(0x40)\n      dup1\n      dup3\n      dup2\n      mstore\n      0x20\n      add\n      swap2\n      pop\n      pop\n      mload(0x40)\n      dup1\n      swap2\n      sub\n      swap1\n      return\n        /* \"contracts/Pool/Pool.sol\":27894:27975  function decimals() public view returns (uint8) {... */\n    tag_11:\n      callvalue\n      dup1\n      iszero\n      tag_81\n      jumpi\n      0x00\n      dup1\n      revert\n    tag_81:\n      pop\n      tag_82\n      tag_83\n      jump\t// in\n    tag_82:\n      mload(0x40)\n      dup1\n      dup3\n      0xff\n      and\n      dup2\n      mstore\n      0x20\n      add\n      swap2\n      pop\n      pop\n      mload(0x40)\n      dup1\n      swap2\n      sub\n      swap1\n      return\n        /* \"contracts/Pool/Pool.sol\":31294:31762  function includeInReward(address account) external onlyOwner() {... */\n    tag_12:\n      callvalue\n      dup1\n      iszero\n      tag_84\n      jumpi\n      0x00\n      dup1\n      revert\n    tag_84:\n      pop\n      tag_85\n      0x04\n      dup1\n      calldatasize\n      sub\n      0x20\n      dup2\n      lt\n      iszero\n      tag_86\n      jumpi\n      0x00\n      dup1\n      revert\n    tag_86:\n      dup2\n      add\n      swap1\n      dup1\n      dup1\n      calldataload\n      0xffffffffffffffffffffffffffffffffffffffff\n      and\n      swap1\n      0x20\n      add\n      swap1\n      swap3\n      swap2\n      swap1\n      pop\n      pop\n      pop\n      tag_87\n      jump\t// in\n    tag_85:\n      stop\n        /* \"contracts/Pool/Pool.sol\":29077:29292  function increaseAllowance(address spender, uint256 addedValue) public virtual returns (bool) {... */\n    tag_13:\n      callvalue\n      dup1\n      iszero\n      tag_88\n      jumpi\n      0x00\n      dup1\n      revert\n    tag_88:\n      pop\n      tag_89\n      0x04\n      dup1\n      calldatasize\n      sub\n      0x40\n      dup2\n      lt\n      iszero\n      tag_90\n      jumpi\n      0x00\n      dup1\n      revert\n    tag_90:\n      dup2\n      add\n      swap1\n      dup1\n      dup1\n      calldataload\n      0xffffffffffffffffffffffffffffffffffffffff\n      and\n      swap1\n      0x20\n      add\n      swap1\n      swap3\n      swap2\n      swap1\n      dup1\n      calldataload\n      swap1\n      0x20\n      add\n      swap1\n      swap3\n      swap2\n      swap1\n      pop\n      pop\n      pop\n      tag_91\n      jump\t// in\n    tag_89:\n      mload(0x40)\n      dup1\n      dup3\n      iszero\n      iszero\n      dup2\n      mstore\n      0x20\n      add\n      swap2\n      pop\n      pop\n      mload(0x40)\n      dup1\n      swap2\n      sub\n      swap1\n      return\n        /* \"contracts/Pool/Pool.sol\":26141:26167  uint256 public _taxFee = 5 */\n    tag_14:\n      callvalue\n      dup1\n      iszero\n      tag_92\n      jumpi\n      0x00\n      dup1\n      revert\n    tag_92:\n      pop\n      tag_93\n      tag_94\n      jump\t// in\n    tag_93:\n      mload(0x40)\n      dup1\n      dup3\n      dup2\n      mstore\n      0x20\n      add\n      swap2\n      pop\n      pop\n      mload(0x40)\n      dup1\n      swap2\n      sub\n      swap1\n      return\n        /* \"contracts/Pool/Pool.sol\":29785:30155  function deliver(uint256 tAmount) public {... */\n    tag_15:\n      callvalue\n      dup1\n      iszero\n      tag_95\n      jumpi\n      0x00\n      dup1\n      revert\n    tag_95:\n      pop\n      tag_96\n      0x04\n      dup1\n      calldatasize\n      sub\n      0x20\n      dup2\n      lt\n      iszero\n      tag_97\n      jumpi\n      0x00\n      dup1\n      revert\n    tag_97:\n      dup2\n      add\n      swap1\n      dup1\n      dup1\n      calldataload\n      swap1\n      0x20\n      add\n      swap1\n      swap3\n      swap2\n      swap1\n      pop\n      pop\n      pop\n      tag_98\n      jump\t// in\n    tag_96:\n      stop\n        /* \"contracts/Pool/Pool.sol\":32418:32527  function excludeFromFee(address account) public onlyOwner {... */\n    tag_16:\n      callvalue\n      dup1\n      iszero\n      tag_99\n      jumpi\n      0x00\n      dup1\n      revert\n    tag_99:\n      pop\n      tag_100\n      0x04\n      dup1\n      calldatasize\n      sub\n      0x20\n      dup2\n      lt\n      iszero\n      tag_101\n      jumpi\n      0x00\n      dup1\n      revert\n    tag_101:\n      dup2\n      add\n      swap1\n      dup1\n      dup1\n      calldataload\n      0xffffffffffffffffffffffffffffffffffffffff\n      and\n      swap1\n      0x20\n      add\n      swap1\n      swap3\n      swap2\n      swap1\n      pop\n      pop\n      pop\n      tag_102\n      jump\t// in\n    tag_100:\n      stop\n        /* \"contracts/Pool/Pool.sol\":30161:30588  function reflectionFromToken(uint256 tAmount, bool deductTransferFee) public view returns(uint256) {... */\n    tag_17:\n      callvalue\n      dup1\n      iszero\n      tag_103\n      jumpi\n      0x00\n      dup1\n      revert\n    tag_103:\n      pop\n      tag_104\n      0x04\n      dup1\n      calldatasize\n      sub\n      0x40\n      dup2\n      lt\n      iszero\n      tag_105\n      jumpi\n      0x00\n      dup1\n      revert\n    tag_105:\n      dup2\n      add\n      swap1\n      dup1\n      dup1\n      calldataload\n      swap1\n      0x20\n      add\n      swap1\n      swap3\n      swap2\n      swap1\n      dup1\n      calldataload\n      iszero\n      iszero\n      swap1\n      0x20\n      add\n      swap1\n      swap3\n      swap2\n      swap1\n      pop\n      pop\n      pop\n      tag_106\n      jump\t// in\n    tag_104:\n      mload(0x40)\n      dup1\n      dup3\n      dup2\n      mstore\n      0x20\n      add\n      swap2\n      pop\n      pop\n      mload(0x40)\n      dup1\n      swap2\n      sub\n      swap1\n      return\n        /* \"contracts/Pool/Pool.sol\":26380:26418  address public immutable uniswapV2Pair */\n    tag_18:\n      callvalue\n      dup1\n      iszero\n      tag_107\n      jumpi\n      0x00\n      dup1\n      revert\n    tag_107:\n      pop\n      tag_108\n      tag_109\n      jump\t// in\n    tag_108:\n      mload(0x40)\n      dup1\n      dup3\n      0xffffffffffffffffffffffffffffffffffffffff\n      and\n      dup2\n      mstore\n      0x20\n      add\n      swap2\n      pop\n      pop\n      mload(0x40)\n      dup1\n      swap2\n      sub\n      swap1\n      return\n        /* \"contracts/Pool/Pool.sol\":26456:26496  bool public swapAndLiquifyEnabled = true */\n    tag_19:\n      callvalue\n      dup1\n      iszero\n      tag_110\n      jumpi\n      0x00\n      dup1\n      revert\n    tag_110:\n      pop\n      tag_111\n      tag_112\n      jump\t// in\n    tag_111:\n      mload(0x40)\n      dup1\n      dup3\n      iszero\n      iszero\n      dup2\n      mstore\n      0x20\n      add\n      swap2\n      pop\n      pop\n      mload(0x40)\n      dup1\n      swap2\n      sub\n      swap1\n      return\n        /* \"contracts/Pool/Pool.sol\":30849:31288  function excludeFromReward(address account) public onlyOwner() {... */\n    tag_20:\n      callvalue\n      dup1\n      iszero\n      tag_113\n      jumpi\n      0x00\n      dup1\n      revert\n    tag_113:\n      pop\n      tag_114\n      0x04\n      dup1\n      calldatasize\n      sub\n      0x20\n      dup2\n      lt\n      iszero\n      tag_115\n      jumpi\n      0x00\n      dup1\n      revert\n    tag_115:\n      dup2\n      add\n      swap1\n      dup1\n      dup1\n      calldataload\n      0xffffffffffffffffffffffffffffffffffffffff\n      and\n      swap1\n      0x20\n      add\n      swap1\n      swap3\n      swap2\n      swap1\n      pop\n      pop\n      pop\n      tag_116\n      jump\t// in\n    tag_114:\n      stop\n        /* \"contracts/Pool/Pool.sol\":36452:36573  function isExcludedFromFee(address account) public view returns(bool) {... */\n    tag_21:\n      callvalue\n      dup1\n      iszero\n      tag_117\n      jumpi\n      0x00\n      dup1\n      revert\n    tag_117:\n      pop\n      tag_118\n      0x04\n      dup1\n      calldatasize\n      sub\n      0x20\n      dup2\n      lt\n      iszero\n      tag_119\n      jumpi\n      0x00\n      dup1\n      revert\n    tag_119:\n      dup2\n      add\n      swap1\n      dup1\n      dup1\n      calldataload\n      0xffffffffffffffffffffffffffffffffffffffff\n      and\n      swap1\n      0x20\n      add\n      swap1\n      swap3\n      swap2\n      swap1\n      pop\n      pop\n      pop\n      tag_120\n      jump\t// in\n    tag_118:\n      mload(0x40)\n      dup1\n      dup3\n      iszero\n      iszero\n      dup2\n      mstore\n      0x20\n      add\n      swap2\n      pop\n      pop\n      mload(0x40)\n      dup1\n      swap2\n      sub\n      swap1\n      return\n        /* \"contracts/Pool/Pool.sol\":26225:26257  uint256 public _liquidityFee = 5 */\n    tag_22:\n      callvalue\n      dup1\n      iszero\n      tag_121\n      jumpi\n      0x00\n      dup1\n      revert\n    tag_121:\n      pop\n      tag_122\n      tag_123\n      jump\t// in\n    tag_122:\n      mload(0x40)\n      dup1\n      dup3\n      dup2\n      mstore\n      0x20\n      add\n      swap2\n      pop\n      pop\n      mload(0x40)\n      dup1\n      swap2\n      sub\n      swap1\n      return\n        /* \"contracts/Pool/Pool.sol\":28080:28275  function balanceOf(address account) public view override returns (uint256) {... */\n    tag_23:\n      callvalue\n      dup1\n      iszero\n      tag_124\n      jumpi\n      0x00\n      dup1\n      revert\n    tag_124:\n      pop\n      tag_125\n      0x04\n      dup1\n      calldatasize\n      sub\n      0x20\n      dup2\n      lt\n      iszero\n      tag_126\n      jumpi\n      0x00\n      dup1\n      revert\n    tag_126:\n      dup2\n      add\n      swap1\n      dup1\n      dup1\n      calldataload\n      0xffffffffffffffffffffffffffffffffffffffff\n      and\n      swap1\n      0x20\n      add\n      swap1\n      swap3\n      swap2\n      swap1\n      pop\n      pop\n      pop\n      tag_127\n      jump\t// in\n    tag_125:\n      mload(0x40)\n      dup1\n      dup3\n      dup2\n      mstore\n      0x20\n      add\n      swap2\n      pop\n      pop\n      mload(0x40)\n      dup1\n      swap2\n      sub\n      swap1\n      return\n        /* \"contracts/Pool/Pool.sol\":16235:16380  function renounceOwnership() public virtual onlyOwner {... */\n    tag_24:\n      callvalue\n      dup1\n      iszero\n      tag_128\n      jumpi\n      0x00\n      dup1\n      revert\n    tag_128:\n      pop\n      tag_129\n      tag_130\n      jump\t// in\n    tag_129:\n      stop\n        /* \"contracts/Pool/Pool.sol\":26507:26560  uint256 public _maxTxAmount = 5000000 * 10**6 * 10**9 */\n    tag_25:\n      callvalue\n      dup1\n      iszero\n      tag_131\n      jumpi\n      0x00\n      dup1\n      revert\n    tag_131:\n      pop\n      tag_132\n      tag_133\n      jump\t// in\n    tag_132:\n      mload(0x40)\n      dup1\n      dup3\n      dup2\n      mstore\n      0x20\n      add\n      swap2\n      pop\n      pop\n      mload(0x40)\n      dup1\n      swap2\n      sub\n      swap1\n      return\n        /* \"contracts/Pool/Pool.sol\":29570:29688  function isExcludedFromReward(address account) public view returns (bool) {... */\n    tag_26:\n      callvalue\n      dup1\n      iszero\n      tag_134\n      jumpi\n      0x00\n      dup1\n      revert\n    tag_134:\n      pop\n      tag_135\n      0x04\n      dup1\n      calldatasize\n      sub\n      0x20\n      dup2\n      lt\n      iszero\n      tag_136\n      jumpi\n      0x00\n      dup1\n      revert\n    tag_136:\n      dup2\n      add\n      swap1\n      dup1\n      dup1\n      calldataload\n      0xffffffffffffffffffffffffffffffffffffffff\n      and\n      swap1\n      0x20\n      add\n      swap1\n      swap3\n      swap2\n      swap1\n      pop\n      pop\n      pop\n      tag_137\n      jump\t// in\n    tag_135:\n      mload(0x40)\n      dup1\n      dup3\n      iszero\n      iszero\n      dup2\n      mstore\n      0x20\n      add\n      swap2\n      pop\n      pop\n      mload(0x40)\n      dup1\n      swap2\n      sub\n      swap1\n      return\n        /* \"contracts/Pool/Pool.sol\":15611:15688  function owner() public view returns (address) {... */\n    tag_27:\n      callvalue\n      dup1\n      iszero\n      tag_138\n      jumpi\n      0x00\n      dup1\n      revert\n    tag_138:\n      pop\n      tag_139\n      tag_140\n      jump\t// in\n    tag_139:\n      mload(0x40)\n      dup1\n      dup3\n      0xffffffffffffffffffffffffffffffffffffffff\n      and\n      dup2\n      mstore\n      0x20\n      add\n      swap2\n      pop\n      pop\n      mload(0x40)\n      dup1\n      swap2\n      sub\n      swap1\n      return\n        /* \"contracts/Pool/Pool.sol\":32761:32881  function setLiquidityFeePercent(uint256 liquidityFee) external onlyOwner() {... */\n    tag_28:\n      callvalue\n      dup1\n      iszero\n      tag_141\n      jumpi\n      0x00\n      dup1\n      revert\n    tag_141:\n      pop\n      tag_142\n      0x04\n      dup1\n      calldatasize\n      sub\n      0x20\n      dup2\n      lt\n      iszero\n      tag_143\n      jumpi\n      0x00\n      dup1\n      revert\n    tag_143:\n      dup2\n      add\n      swap1\n      dup1\n      dup1\n      calldataload\n      swap1\n      0x20\n      add\n      swap1\n      swap3\n      swap2\n      swap1\n      pop\n      pop\n      pop\n      tag_144\n      jump\t// in\n    tag_142:\n      stop\n        /* \"contracts/Pool/Pool.sol\":27803:27888  function symbol() public view returns (string memory) {... */\n    tag_29:\n      callvalue\n      dup1\n      iszero\n      tag_145\n      jumpi\n      0x00\n      dup1\n      revert\n    tag_145:\n      pop\n      tag_146\n      tag_147\n      jump\t// in\n    tag_146:\n      mload(0x40)\n      dup1\n      dup1\n      0x20\n      add\n      dup3\n      dup2\n      sub\n      dup3\n      mstore\n      dup4\n      dup2\n      dup2\n      mload\n      dup2\n      mstore\n      0x20\n      add\n      swap2\n      pop\n      dup1\n      mload\n      swap1\n      0x20\n      add\n      swap1\n      dup1\n      dup4\n      dup4\n      0x00\n    tag_148:\n      dup4\n      dup2\n      lt\n      iszero\n      tag_150\n      jumpi\n      dup1\n      dup3\n      add\n      mload\n      dup2\n      dup5\n      add\n      mstore\n      0x20\n      dup2\n      add\n      swap1\n      pop\n      jump(tag_148)\n    tag_150:\n      pop\n      pop\n      pop\n      pop\n      swap1\n      pop\n      swap1\n      dup2\n      add\n      swap1\n      0x1f\n      and\n      dup1\n      iszero\n      tag_151\n      jumpi\n      dup1\n      dup3\n      sub\n      dup1\n      mload\n      0x01\n      dup4\n      0x20\n      sub\n      0x0100\n      exp\n      sub\n      not\n      and\n      dup2\n      mstore\n      0x20\n      add\n      swap2\n      pop\n    tag_151:\n      pop\n      swap3\n      pop\n      pop\n      pop\n      mload(0x40)\n      dup1\n      swap2\n      sub\n      swap1\n      return\n        /* \"contracts/Pool/Pool.sol\":29298:29564  function decreaseAllowance(address spender, uint256 subtractedValue) public virtual returns (bool) {... */\n    tag_30:\n      callvalue\n      dup1\n      iszero\n      tag_152\n      jumpi\n      0x00\n      dup1\n      revert\n    tag_152:\n      pop\n      tag_153\n      0x04\n      dup1\n      calldatasize\n      sub\n      0x40\n      dup2\n      lt\n      iszero\n      tag_154\n      jumpi\n      0x00\n      dup1\n      revert\n    tag_154:\n      dup2\n      add\n      swap1\n      dup1\n      dup1\n      calldataload\n      0xffffffffffffffffffffffffffffffffffffffff\n      and\n      swap1\n      0x20\n      add\n      swap1\n      swap3\n      swap2\n      swap1\n      dup1\n      calldataload\n      swap1\n      0x20\n      add\n      swap1\n      swap3\n      swap2\n      swap1\n      pop\n      pop\n      pop\n      tag_155\n      jump\t// in\n    tag_153:\n      mload(0x40)\n      dup1\n      dup3\n      iszero\n      iszero\n      dup2\n      mstore\n      0x20\n      add\n      swap2\n      pop\n      pop\n      mload(0x40)\n      dup1\n      swap2\n      sub\n      swap1\n      return\n        /* \"contracts/Pool/Pool.sol\":17217:17505  function unlock() public virtual {... */\n    tag_31:\n      callvalue\n      dup1\n      iszero\n      tag_156\n      jumpi\n      0x00\n      dup1\n      revert\n    tag_156:\n      pop\n      tag_157\n      tag_158\n      jump\t// in\n    tag_157:\n      stop\n        /* \"contracts/Pool/Pool.sol\":28281:28445  function transfer(address recipient, uint256 amount) public override returns (bool) {... */\n    tag_32:\n      callvalue\n      dup1\n      iszero\n      tag_159\n      jumpi\n      0x00\n      dup1\n      revert\n    tag_159:\n      pop\n      tag_160\n      0x04\n      dup1\n      calldatasize\n      sub\n      0x40\n      dup2\n      lt\n      iszero\n      tag_161\n      jumpi\n      0x00\n      dup1\n      revert\n    tag_161:\n      dup2\n      add\n      swap1\n      dup1\n      dup1\n      calldataload\n      0xffffffffffffffffffffffffffffffffffffffff\n      and\n      swap1\n      0x20\n      add\n      swap1\n      swap3\n      swap2\n      swap1\n      dup1\n      calldataload\n      swap1\n      0x20\n      add\n      swap1\n      swap3\n      swap2\n      swap1\n      pop\n      pop\n      pop\n      tag_162\n      jump\t// in\n    tag_160:\n      mload(0x40)\n      dup1\n      dup3\n      iszero\n      iszero\n      dup2\n      mstore\n      0x20\n      add\n      swap2\n      pop\n      pop\n      mload(0x40)\n      dup1\n      swap2\n      sub\n      swap1\n      return\n        /* \"contracts/Pool/Pool.sol\":16775:16862  function geUnlockTime() public view returns (uint256) {... */\n    tag_33:\n      callvalue\n      dup1\n      iszero\n      tag_163\n      jumpi\n      0x00\n      dup1\n      revert\n    tag_163:\n      pop\n      tag_164\n      tag_165\n      jump\t// in\n    tag_164:\n      mload(0x40)\n      dup1\n      dup3\n      dup2\n      mstore\n      0x20\n      add\n      swap2\n      pop\n      pop\n      mload(0x40)\n      dup1\n      swap2\n      sub\n      swap1\n      return\n        /* \"contracts/Pool/Pool.sol\":33054:33222  function setSwapAndLiquifyEnabled(bool _enabled) public onlyOwner {... */\n    tag_34:\n      callvalue\n      dup1\n      iszero\n      tag_166\n      jumpi\n      0x00\n      dup1\n      revert\n    tag_166:\n      pop\n      tag_167\n      0x04\n      dup1\n      calldatasize\n      sub\n      0x20\n      dup2\n      lt\n      iszero\n      tag_168\n      jumpi\n      0x00\n      dup1\n      revert\n    tag_168:\n      dup2\n      add\n      swap1\n      dup1\n      dup1\n      calldataload\n      iszero\n      iszero\n      swap1\n      0x20\n      add\n      swap1\n      swap3\n      swap2\n      swap1\n      pop\n      pop\n      pop\n      tag_169\n      jump\t// in\n    tag_167:\n      stop\n        /* \"contracts/Pool/Pool.sol\":32890:33048  function setMaxTxPercent(uint256 maxTxPercent) external onlyOwner() {... */\n    tag_35:\n      callvalue\n      dup1\n      iszero\n      tag_170\n      jumpi\n      0x00\n      dup1\n      revert\n    tag_170:\n      pop\n      tag_171\n      0x04\n      dup1\n      calldatasize\n      sub\n      0x20\n      dup2\n      lt\n      iszero\n      tag_172\n      jumpi\n      0x00\n      dup1\n      revert\n    tag_172:\n      dup2\n      add\n      swap1\n      dup1\n      dup1\n      calldataload\n      swap1\n      0x20\n      add\n      swap1\n      swap3\n      swap2\n      swap1\n      pop\n      pop\n      pop\n      tag_173\n      jump\t// in\n    tag_171:\n      stop\n        /* \"contracts/Pool/Pool.sol\":16935:17144  function lock(uint256 time) public virtual onlyOwner {... */\n    tag_36:\n      callvalue\n      dup1\n      iszero\n      tag_174\n      jumpi\n      0x00\n      dup1\n      revert\n    tag_174:\n      pop\n      tag_175\n      0x04\n      dup1\n      calldatasize\n      sub\n      0x20\n      dup2\n      lt\n      iszero\n      tag_176\n      jumpi\n      0x00\n      dup1\n      revert\n    tag_176:\n      dup2\n      add\n      swap1\n      dup1\n      dup1\n      calldataload\n      swap1\n      0x20\n      add\n      swap1\n      swap3\n      swap2\n      swap1\n      pop\n      pop\n      pop\n      tag_177\n      jump\t// in\n    tag_175:\n      stop\n        /* \"contracts/Pool/Pool.sol\":28451:28592  function allowance(address owner, address spender) public view override returns (uint256) {... */\n    tag_37:\n      callvalue\n      dup1\n      iszero\n      tag_178\n      jumpi\n      0x00\n      dup1\n      revert\n    tag_178:\n      pop\n      tag_179\n      0x04\n      dup1\n      calldatasize\n      sub\n      0x40\n      dup2\n      lt\n      iszero\n      tag_180\n      jumpi\n      0x00\n      dup1\n      revert\n    tag_180:\n      dup2\n      add\n      swap1\n      dup1\n      dup1\n      calldataload\n      0xffffffffffffffffffffffffffffffffffffffff\n      and\n      swap1\n      0x20\n      add\n      swap1\n      swap3\n      swap2\n      swap1\n      dup1\n      calldataload\n      0xffffffffffffffffffffffffffffffffffffffff\n      and\n      swap1\n      0x20\n      add\n      swap1\n      swap3\n      swap2\n      swap1\n      pop\n      pop\n      pop\n      tag_181\n      jump\t// in\n    tag_179:\n      mload(0x40)\n      dup1\n      dup3\n      dup2\n      mstore\n      0x20\n      add\n      swap2\n      pop\n      pop\n      mload(0x40)\n      dup1\n      swap2\n      sub\n      swap1\n      return\n        /* \"contracts/Pool/Pool.sol\":32537:32645  function includeInFee(address account) public onlyOwner {... */\n    tag_38:\n      callvalue\n      dup1\n      iszero\n      tag_182\n      jumpi\n      0x00\n      dup1\n      revert\n    tag_182:\n      pop\n      tag_183\n      0x04\n      dup1\n      calldatasize\n      sub\n      0x20\n      dup2\n      lt\n      iszero\n      tag_184\n      jumpi\n      0x00\n      dup1\n      revert\n    tag_184:\n      dup2\n      add\n      swap1\n      dup1\n      dup1\n      calldataload\n      0xffffffffffffffffffffffffffffffffffffffff\n      and\n      swap1\n      0x20\n      add\n      swap1\n      swap3\n      swap2\n      swap1\n      pop\n      pop\n      pop\n      tag_185\n      jump\t// in\n    tag_183:\n      stop\n        /* \"contracts/Pool/Pool.sol\":16529:16769  function transferOwnership(address newOwner) public virtual onlyOwner {... */\n    tag_39:\n      callvalue\n      dup1\n      iszero\n      tag_186\n      jumpi\n      0x00\n      dup1\n      revert\n    tag_186:\n      pop\n      tag_187\n      0x04\n      dup1\n      calldatasize\n      sub\n      0x20\n      dup2\n      lt\n      iszero\n      tag_188\n      jumpi\n      0x00\n      dup1\n      revert\n    tag_188:\n      dup2\n      add\n      swap1\n      dup1\n      dup1\n      calldataload\n      0xffffffffffffffffffffffffffffffffffffffff\n      and\n      swap1\n      0x20\n      add\n      swap1\n      swap3\n      swap2\n      swap1\n      pop\n      pop\n      pop\n      tag_189\n      jump\t// in\n    tag_187:\n      stop\n        /* \"contracts/Pool/Pool.sol\":32655:32751  function setTaxFeePercent(uint256 taxFee) external onlyOwner() {... */\n    tag_52:\n        /* \"contracts/Pool/Pool.sol\":15825:15837  _msgSender() */\n      tag_191\n        /* \"contracts/Pool/Pool.sol\":15825:15835  _msgSender */\n      tag_192\n        /* \"contracts/Pool/Pool.sol\":15825:15837  _msgSender() */\n      jump\t// in\n    tag_191:\n        /* \"contracts/Pool/Pool.sol\":15815:15837  _owner == _msgSender() */\n      0xffffffffffffffffffffffffffffffffffffffff\n      and\n        /* \"contracts/Pool/Pool.sol\":15815:15821  _owner */\n      0x00\n      dup1\n      sload\n      swap1\n      0x0100\n      exp\n      swap1\n      div\n      0xffffffffffffffffffffffffffffffffffffffff\n      and\n        /* \"contracts/Pool/Pool.sol\":15815:15837  _owner == _msgSender() */\n      0xffffffffffffffffffffffffffffffffffffffff\n      and\n      eq\n        /* \"contracts/Pool/Pool.sol\":15807:15874  require(_owner == _msgSender(), \"Ownable: caller is not the owner\") */\n      tag_193\n      jumpi\n      mload(0x40)\n      0x08c379a000000000000000000000000000000000000000000000000000000000\n      dup2\n      mstore\n      0x04\n      add\n      dup1\n      dup1\n      0x20\n      add\n      dup3\n      dup2\n      sub\n      dup3\n      mstore\n      0x20\n      dup2\n      mstore\n      0x20\n      add\n      dup1\n      0x4f776e61626c653a2063616c6c6572206973206e6f7420746865206f776e6572\n      dup2\n      mstore\n      pop\n      0x20\n      add\n      swap2\n      pop\n      pop\n      mload(0x40)\n      dup1\n      swap2\n      sub\n      swap1\n      revert\n    tag_193:\n        /* \"contracts/Pool/Pool.sol\":32738:32744  taxFee */\n      dup1\n        /* \"contracts/Pool/Pool.sol\":32728:32735  _taxFee */\n      0x0f\n        /* \"contracts/Pool/Pool.sol\":32728:32744  _taxFee = taxFee */\n      dup2\n      swap1\n      sstore\n      pop\n        /* \"contracts/Pool/Pool.sol\":32655:32751  function setTaxFeePercent(uint256 taxFee) external onlyOwner() {... */\n      pop\n      jump\t// out\n        /* \"contracts/Pool/Pool.sol\":27716:27797  function name() public view returns (string memory) {... */\n    tag_55:\n        /* \"contracts/Pool/Pool.sol\":27753:27766  string memory */\n      0x60\n        /* \"contracts/Pool/Pool.sol\":27785:27790  _name */\n      0x0c\n        /* \"contracts/Pool/Pool.sol\":27778:27790  return _name */\n      dup1\n      sload\n      0x01\n      dup2\n      0x01\n      and\n      iszero\n      0x0100\n      mul\n      sub\n      and\n      0x02\n      swap1\n      div\n      dup1\n      0x1f\n      add\n      0x20\n      dup1\n      swap2\n      div\n      mul\n      0x20\n      add\n      mload(0x40)\n      swap1\n      dup2\n      add\n      0x40\n      mstore\n      dup1\n      swap3\n      swap2\n      swap1\n      dup2\n      dup2\n      mstore\n      0x20\n      add\n      dup3\n      dup1\n      sload\n      0x01\n      dup2\n      0x01\n      and\n      iszero\n      0x0100\n      mul\n      sub\n      and\n      0x02\n      swap1\n      div\n      dup1\n      iszero\n      tag_196\n      jumpi\n      dup1\n      0x1f\n      lt\n      tag_197\n      jumpi\n      0x0100\n      dup1\n      dup4\n      sload\n      div\n      mul\n      dup4\n      mstore\n      swap2\n      0x20\n      add\n      swap2\n      jump(tag_196)\n    tag_197:\n      dup3\n      add\n      swap2\n      swap1\n      0x00\n      mstore\n      keccak256(0x00, 0x20)\n      swap1\n    tag_198:\n      dup2\n      sload\n      dup2\n      mstore\n      swap1\n      0x01\n      add\n      swap1\n      0x20\n      add\n      dup1\n      dup4\n      gt\n      tag_198\n      jumpi\n      dup3\n      swap1\n      sub\n      0x1f\n      and\n      dup3\n      add\n      swap2\n    tag_196:\n      pop\n      pop\n      pop\n      pop\n      pop\n      swap1\n      pop\n        /* \"contracts/Pool/Pool.sol\":27716:27797  function name() public view returns (string memory) {... */\n      swap1\n      jump\t// out\n        /* \"contracts/Pool/Pool.sol\":28598:28756  function approve(address spender, uint256 amount) public override returns (bool) {... */\n    tag_63:\n        /* \"contracts/Pool/Pool.sol\":28673:28677  bool */\n      0x00\n        /* \"contracts/Pool/Pool.sol\":28689:28728  _approve(_msgSender(), spender, amount) */\n      tag_200\n        /* \"contracts/Pool/Pool.sol\":28698:28710  _msgSender() */\n      tag_201\n        /* \"contracts/Pool/Pool.sol\":28698:28708  _msgSender */\n      tag_192\n        /* \"contracts/Pool/Pool.sol\":28698:28710  _msgSender() */\n      jump\t// in\n    tag_201:\n        /* \"contracts/Pool/Pool.sol\":28712:28719  spender */\n      dup5\n        /* \"contracts/Pool/Pool.sol\":28721:28727  amount */\n      dup5\n        /* \"contracts/Pool/Pool.sol\":28689:28697  _approve */\n      tag_202\n        /* \"contracts/Pool/Pool.sol\":28689:28728  _approve(_msgSender(), spender, amount) */\n      jump\t// in\n    tag_200:\n        /* \"contracts/Pool/Pool.sol\":28745:28749  true */\n      0x01\n        /* \"contracts/Pool/Pool.sol\":28738:28749  return true */\n      swap1\n      pop\n        /* \"contracts/Pool/Pool.sol\":28598:28756  function approve(address spender, uint256 amount) public override returns (bool) {... */\n      swap3\n      swap2\n      pop\n      pop\n      jump\t// out\n        /* \"contracts/Pool/Pool.sol\":29694:29779  function totalFees() public view returns (uint256) {... */\n    tag_66:\n        /* \"contracts/Pool/Pool.sol\":29736:29743  uint256 */\n      0x00\n        /* \"contracts/Pool/Pool.sol\":29762:29772  _tFeeTotal */\n      sload(0x0b)\n        /* \"contracts/Pool/Pool.sol\":29755:29772  return _tFeeTotal */\n      swap1\n      pop\n        /* \"contracts/Pool/Pool.sol\":29694:29779  function totalFees() public view returns (uint256) {... */\n      swap1\n      jump\t// out\n        /* \"contracts/Pool/Pool.sol\":26323:26374  IUniswapV2Router02 public immutable uniswapV2Router */\n    tag_69:\n      immutable(\"0xfc57b5902f0023899e1247e2ff263b1dfd650a9d73b378b1a0bb28583d7847fc\")\n      dup2\n      jump\t// out\n        /* \"contracts/Pool/Pool.sol\":27981:28074  function totalSupply() public view override returns (uint256) {... */\n    tag_72:\n        /* \"contracts/Pool/Pool.sol\":28034:28041  uint256 */\n      0x00\n        /* \"contracts/Pool/Pool.sol\":28060:28067  _tTotal */\n      sload(0x09)\n        /* \"contracts/Pool/Pool.sol\":28053:28067  return _tTotal */\n      swap1\n      pop\n        /* \"contracts/Pool/Pool.sol\":27981:28074  function totalSupply() public view override returns (uint256) {... */\n      swap1\n      jump\t// out\n        /* \"contracts/Pool/Pool.sol\":28762:29071  function transferFrom(address sender, address recipient, uint256 amount) public override returns (bool) {... */\n    tag_76:\n        /* \"contracts/Pool/Pool.sol\":28860:28864  bool */\n      0x00\n        /* \"contracts/Pool/Pool.sol\":28876:28912  _transfer(sender, recipient, amount) */\n      tag_206\n        /* \"contracts/Pool/Pool.sol\":28886:28892  sender */\n      dup5\n        /* \"contracts/Pool/Pool.sol\":28894:28903  recipient */\n      dup5\n        /* \"contracts/Pool/Pool.sol\":28905:28911  amount */\n      dup5\n        /* \"contracts/Pool/Pool.sol\":28876:28885  _transfer */\n      tag_207\n        /* \"contracts/Pool/Pool.sol\":28876:28912  _transfer(sender, recipient, amount) */\n      jump\t// in\n    tag_206:\n        /* \"contracts/Pool/Pool.sol\":28922:29043  _approve(sender, _msgSender(), _allowances[sender][_msgSender()].sub(amount, \"ERC20: transfer amount exceeds allowance\")) */\n      tag_208\n        /* \"contracts/Pool/Pool.sol\":28931:28937  sender */\n      dup5\n        /* \"contracts/Pool/Pool.sol\":28939:28951  _msgSender() */\n      tag_209\n        /* \"contracts/Pool/Pool.sol\":28939:28949  _msgSender */\n      tag_192\n        /* \"contracts/Pool/Pool.sol\":28939:28951  _msgSender() */\n      jump\t// in\n    tag_209:\n        /* \"contracts/Pool/Pool.sol\":28953:29042  _allowances[sender][_msgSender()].sub(amount, \"ERC20: transfer amount exceeds allowance\") */\n      tag_210\n        /* \"contracts/Pool/Pool.sol\":28991:28997  amount */\n      dup6\n        /* \"contracts/Pool/Pool.sol\":28953:29042  _allowances[sender][_msgSender()].sub(amount, \"ERC20: transfer amount exceeds allowance\") */\n      mload(0x40)\n      dup1\n      0x60\n      add\n      0x40\n      mstore\n      dup1\n      0x28\n      dup2\n      mstore\n      0x20\n      add\n      data_974d1b4421da69cc60b481194f0dad36a5bb4e23da810da7a7fb30cdba178330\n      0x28\n      swap2\n      codecopy\n        /* \"contracts/Pool/Pool.sol\":28953:28964  _allowances */\n      0x05\n        /* \"contracts/Pool/Pool.sol\":28953:28972  _allowances[sender] */\n      0x00\n        /* \"contracts/Pool/Pool.sol\":28965:28971  sender */\n      dup12\n        /* \"contracts/Pool/Pool.sol\":28953:28972  _allowances[sender] */\n      0xffffffffffffffffffffffffffffffffffffffff\n      and\n      0xffffffffffffffffffffffffffffffffffffffff\n      and\n      dup2\n      mstore\n      0x20\n      add\n      swap1\n      dup2\n      mstore\n      0x20\n      add\n      0x00\n      keccak256\n        /* \"contracts/Pool/Pool.sol\":28953:28986  _allowances[sender][_msgSender()] */\n      0x00\n        /* \"contracts/Pool/Pool.sol\":28973:28985  _msgSender() */\n      tag_211\n        /* \"contracts/Pool/Pool.sol\":28973:28983  _msgSender */\n      tag_192\n        /* \"contracts/Pool/Pool.sol\":28973:28985  _msgSender() */\n      jump\t// in\n    tag_211:\n        /* \"contracts/Pool/Pool.sol\":28953:28986  _allowances[sender][_msgSender()] */\n      0xffffffffffffffffffffffffffffffffffffffff\n      and\n      0xffffffffffffffffffffffffffffffffffffffff\n      and\n      dup2\n      mstore\n      0x20\n      add\n      swap1\n      dup2\n      mstore\n      0x20\n      add\n      0x00\n      keccak256\n      sload\n        /* \"contracts/Pool/Pool.sol\":28953:28990  _allowances[sender][_msgSender()].sub */\n      tag_212\n      swap1\n        /* \"contracts/Pool/Pool.sol\":28953:29042  _allowances[sender][_msgSender()].sub(amount, \"ERC20: transfer amount exceeds allowance\") */\n      swap3\n      swap2\n      swap1\n      0xffffffff\n      and\n      jump\t// in\n    tag_210:\n        /* \"contracts/Pool/Pool.sol\":28922:28930  _approve */\n      tag_202\n        /* \"contracts/Pool/Pool.sol\":28922:29043  _approve(sender, _msgSender(), _allowances[sender][_msgSender()].sub(amount, \"ERC20: transfer amount exceeds allowance\")) */\n      jump\t// in\n    tag_208:\n        /* \"contracts/Pool/Pool.sol\":29060:29064  true */\n      0x01\n        /* \"contracts/Pool/Pool.sol\":29053:29064  return true */\n      swap1\n      pop\n        /* \"contracts/Pool/Pool.sol\":28762:29071  function transferFrom(address sender, address recipient, uint256 amount) public override returns (bool) {... */\n      swap4\n      swap3\n      pop\n      pop\n      pop\n      jump\t// out\n        /* \"contracts/Pool/Pool.sol\":30594:30843  function tokenFromReflection(uint256 rAmount) public view returns(uint256) {... */\n    tag_80:\n        /* \"contracts/Pool/Pool.sol\":30660:30667  uint256 */\n      0x00\n        /* \"contracts/Pool/Pool.sol\":30698:30705  _rTotal */\n      sload(0x0a)\n        /* \"contracts/Pool/Pool.sol\":30687:30694  rAmount */\n      dup3\n        /* \"contracts/Pool/Pool.sol\":30687:30705  rAmount <= _rTotal */\n      gt\n      iszero\n        /* \"contracts/Pool/Pool.sol\":30679:30752  require(rAmount <= _rTotal, \"Amount must be less than total reflections\") */\n      tag_214\n      jumpi\n      mload(0x40)\n      0x08c379a000000000000000000000000000000000000000000000000000000000\n      dup2\n      mstore\n      0x04\n      add\n      dup1\n      dup1\n      0x20\n      add\n      dup3\n      dup2\n      sub\n      dup3\n      mstore\n      0x2a\n      dup2\n      mstore\n      0x20\n      add\n      dup1\n      data_22f7af55a509c3b14f0d528f087748dec8a8bf425135e3f5dc28c6a31ec6d812\n      0x2a\n      swap2\n      codecopy\n      0x40\n      add\n      swap2\n      pop\n      pop\n      mload(0x40)\n      dup1\n      swap2\n      sub\n      swap1\n      revert\n    tag_214:\n        /* \"contracts/Pool/Pool.sol\":30762:30781  uint256 currentRate */\n      0x00\n        /* \"contracts/Pool/Pool.sol\":30785:30795  _getRate() */\n      tag_215\n        /* \"contracts/Pool/Pool.sol\":30785:30793  _getRate */\n      tag_216\n        /* \"contracts/Pool/Pool.sol\":30785:30795  _getRate() */\n      jump\t// in\n    tag_215:\n        /* \"contracts/Pool/Pool.sol\":30762:30795  uint256 currentRate =  _getRate() */\n      swap1\n      pop\n        /* \"contracts/Pool/Pool.sol\":30812:30836  rAmount.div(currentRate) */\n      tag_217\n        /* \"contracts/Pool/Pool.sol\":30824:30835  currentRate */\n      dup2\n        /* \"contracts/Pool/Pool.sol\":30812:30819  rAmount */\n      dup5\n        /* \"contracts/Pool/Pool.sol\":30812:30823  rAmount.div */\n      tag_218\n      swap1\n        /* \"contracts/Pool/Pool.sol\":30812:30836  rAmount.div(currentRate) */\n      swap2\n      swap1\n      0xffffffff\n      and\n      jump\t// in\n    tag_217:\n        /* \"contracts/Pool/Pool.sol\":30805:30836  return rAmount.div(currentRate) */\n      swap2\n      pop\n      pop\n        /* \"contracts/Pool/Pool.sol\":30594:30843  function tokenFromReflection(uint256 rAmount) public view returns(uint256) {... */\n      swap2\n      swap1\n      pop\n      jump\t// out\n        /* \"contracts/Pool/Pool.sol\":27894:27975  function decimals() public view returns (uint8) {... */\n    tag_83:\n        /* \"contracts/Pool/Pool.sol\":27935:27940  uint8 */\n      0x00\n        /* \"contracts/Pool/Pool.sol\":27959:27968  _decimals */\n      0x0e\n      0x00\n      swap1\n      sload\n      swap1\n      0x0100\n      exp\n      swap1\n      div\n      0xff\n      and\n        /* \"contracts/Pool/Pool.sol\":27952:27968  return _decimals */\n      swap1\n      pop\n        /* \"contracts/Pool/Pool.sol\":27894:27975  function decimals() public view returns (uint8) {... */\n      swap1\n      jump\t// out\n        /* \"contracts/Pool/Pool.sol\":31294:31762  function includeInReward(address account) external onlyOwner() {... */\n    tag_87:\n        /* \"contracts/Pool/Pool.sol\":15825:15837  _msgSender() */\n      tag_221\n        /* \"contracts/Pool/Pool.sol\":15825:15835  _msgSender */\n      tag_192\n        /* \"contracts/Pool/Pool.sol\":15825:15837  _msgSender() */\n      jump\t// in\n    tag_221:\n        /* \"contracts/Pool/Pool.sol\":15815:15837  _owner == _msgSender() */\n      0xffffffffffffffffffffffffffffffffffffffff\n      and\n        /* \"contracts/Pool/Pool.sol\":15815:15821  _owner */\n      0x00\n      dup1\n      sload\n      swap1\n      0x0100\n      exp\n      swap1\n      div\n      0xffffffffffffffffffffffffffffffffffffffff\n      and\n        /* \"contracts/Pool/Pool.sol\":15815:15837  _owner == _msgSender() */\n      0xffffffffffffffffffffffffffffffffffffffff\n      and\n      eq\n        /* \"contracts/Pool/Pool.sol\":15807:15874  require(_owner == _msgSender(), \"Ownable: caller is not the owner\") */\n      tag_222\n      jumpi\n      mload(0x40)\n      0x08c379a000000000000000000000000000000000000000000000000000000000\n      dup2\n      mstore\n      0x04\n      add\n      dup1\n      dup1\n      0x20\n      add\n      dup3\n      dup2\n      sub\n      dup3\n      mstore\n      0x20\n      dup2\n      mstore\n      0x20\n      add\n      dup1\n      0x4f776e61626c653a2063616c6c6572206973206e6f7420746865206f776e6572\n      dup2\n      mstore\n      pop\n      0x20\n      add\n      swap2\n      pop\n      pop\n      mload(0x40)\n      dup1\n      swap2\n      sub\n      swap1\n      revert\n    tag_222:\n        /* \"contracts/Pool/Pool.sol\":31375:31386  _isExcluded */\n      0x07\n        /* \"contracts/Pool/Pool.sol\":31375:31395  _isExcluded[account] */\n      0x00\n        /* \"contracts/Pool/Pool.sol\":31387:31394  account */\n      dup3\n        /* \"contracts/Pool/Pool.sol\":31375:31395  _isExcluded[account] */\n      0xffffffffffffffffffffffffffffffffffffffff\n      and\n      0xffffffffffffffffffffffffffffffffffffffff\n      and\n      dup2\n      mstore\n      0x20\n      add\n      swap1\n      dup2\n      mstore\n      0x20\n      add\n      0x00\n      keccak256\n      0x00\n      swap1\n      sload\n      swap1\n      0x0100\n      exp\n      swap1\n      div\n      0xff\n      and\n        /* \"contracts/Pool/Pool.sol\":31367:31427  require(_isExcluded[account], \"Account is already excluded\") */\n      tag_224\n      jumpi\n      mload(0x40)\n      0x08c379a000000000000000000000000000000000000000000000000000000000\n      dup2\n      mstore\n      0x04\n      add\n      dup1\n      dup1\n      0x20\n      add\n      dup3\n      dup2\n      sub\n      dup3\n      mstore\n      0x1b\n      dup2\n      mstore\n      0x20\n      add\n      dup1\n      0x4163636f756e7420697320616c7265616479206578636c756465640000000000\n      dup2\n      mstore\n      pop\n      0x20\n      add\n      swap2\n      pop\n      pop\n      mload(0x40)\n      dup1\n      swap2\n      sub\n      swap1\n      revert\n    tag_224:\n        /* \"contracts/Pool/Pool.sol\":31442:31451  uint256 i */\n      0x00\n        /* \"contracts/Pool/Pool.sol\":31437:31756  for (uint256 i = 0; i < _excluded.length; i++) {... */\n    tag_225:\n        /* \"contracts/Pool/Pool.sol\":31461:31470  _excluded */\n      0x08\n        /* \"contracts/Pool/Pool.sol\":31461:31477  _excluded.length */\n      dup1\n      sload\n      swap1\n      pop\n        /* \"contracts/Pool/Pool.sol\":31457:31458  i */\n      dup2\n        /* \"contracts/Pool/Pool.sol\":31457:31477  i < _excluded.length */\n      lt\n        /* \"contracts/Pool/Pool.sol\":31437:31756  for (uint256 i = 0; i < _excluded.length; i++) {... */\n      iszero\n      tag_226\n      jumpi\n        /* \"contracts/Pool/Pool.sol\":31518:31525  account */\n      dup2\n        /* \"contracts/Pool/Pool.sol\":31502:31525  _excluded[i] == account */\n      0xffffffffffffffffffffffffffffffffffffffff\n      and\n        /* \"contracts/Pool/Pool.sol\":31502:31511  _excluded */\n      0x08\n        /* \"contracts/Pool/Pool.sol\":31512:31513  i */\n      dup3\n        /* \"contracts/Pool/Pool.sol\":31502:31514  _excluded[i] */\n      dup2\n      sload\n      dup2\n      lt\n      tag_228\n      jumpi\n      invalid\n    tag_228:\n      swap1\n      0x00\n      mstore\n      keccak256(0x00, 0x20)\n      add\n      0x00\n      swap1\n      sload\n      swap1\n      0x0100\n      exp\n      swap1\n      div\n      0xffffffffffffffffffffffffffffffffffffffff\n      and\n        /* \"contracts/Pool/Pool.sol\":31502:31525  _excluded[i] == account */\n      0xffffffffffffffffffffffffffffffffffffffff\n      and\n      eq\n        /* \"contracts/Pool/Pool.sol\":31498:31746  if (_excluded[i] == account) {... */\n      iszero\n      tag_230\n      jumpi\n        /* \"contracts/Pool/Pool.sol\":31560:31569  _excluded */\n      0x08\n        /* \"contracts/Pool/Pool.sol\":31589:31590  1 */\n      0x01\n        /* \"contracts/Pool/Pool.sol\":31570:31579  _excluded */\n      0x08\n        /* \"contracts/Pool/Pool.sol\":31570:31586  _excluded.length */\n      dup1\n      sload\n      swap1\n      pop\n        /* \"contracts/Pool/Pool.sol\":31570:31590  _excluded.length - 1 */\n      sub\n        /* \"contracts/Pool/Pool.sol\":31560:31591  _excluded[_excluded.length - 1] */\n      dup2\n      sload\n      dup2\n      lt\n      tag_231\n      jumpi\n      invalid\n    tag_231:\n      swap1\n      0x00\n      mstore\n      keccak256(0x00, 0x20)\n      add\n      0x00\n      swap1\n      sload\n      swap1\n      0x0100\n      exp\n      swap1\n      div\n      0xffffffffffffffffffffffffffffffffffffffff\n      and\n        /* \"contracts/Pool/Pool.sol\":31545:31554  _excluded */\n      0x08\n        /* \"contracts/Pool/Pool.sol\":31555:31556  i */\n      dup3\n        /* \"contracts/Pool/Pool.sol\":31545:31557  _excluded[i] */\n      dup2\n      sload\n      dup2\n      lt\n      tag_233\n      jumpi\n      invalid\n    tag_233:\n      swap1\n      0x00\n      mstore\n      keccak256(0x00, 0x20)\n      add\n      0x00\n        /* \"contracts/Pool/Pool.sol\":31545:31591  _excluded[i] = _excluded[_excluded.length - 1] */\n      0x0100\n      exp\n      dup2\n      sload\n      dup2\n      0xffffffffffffffffffffffffffffffffffffffff\n      mul\n      not\n      and\n      swap1\n      dup4\n      0xffffffffffffffffffffffffffffffffffffffff\n      and\n      mul\n      or\n      swap1\n      sstore\n      pop\n        /* \"contracts/Pool/Pool.sol\":31628:31629  0 */\n      0x00\n        /* \"contracts/Pool/Pool.sol\":31609:31616  _tOwned */\n      0x04\n        /* \"contracts/Pool/Pool.sol\":31609:31625  _tOwned[account] */\n      0x00\n        /* \"contracts/Pool/Pool.sol\":31617:31624  account */\n      dup5\n        /* \"contracts/Pool/Pool.sol\":31609:31625  _tOwned[account] */\n      0xffffffffffffffffffffffffffffffffffffffff\n      and\n      0xffffffffffffffffffffffffffffffffffffffff\n      and\n      dup2\n      mstore\n      0x20\n      add\n      swap1\n      dup2\n      mstore\n      0x20\n      add\n      0x00\n      keccak256\n        /* \"contracts/Pool/Pool.sol\":31609:31629  _tOwned[account] = 0 */\n      dup2\n      swap1\n      sstore\n      pop\n        /* \"contracts/Pool/Pool.sol\":31670:31675  false */\n      0x00\n        /* \"contracts/Pool/Pool.sol\":31647:31658  _isExcluded */\n      0x07\n        /* \"contracts/Pool/Pool.sol\":31647:31667  _isExcluded[account] */\n      0x00\n        /* \"contracts/Pool/Pool.sol\":31659:31666  account */\n      dup5\n        /* \"contracts/Pool/Pool.sol\":31647:31667  _isExcluded[account] */\n      0xffffffffffffffffffffffffffffffffffffffff\n      and\n      0xffffffffffffffffffffffffffffffffffffffff\n      and\n      dup2\n      mstore\n      0x20\n      add\n      swap1\n      dup2\n      mstore\n      0x20\n      add\n      0x00\n      keccak256\n      0x00\n        /* \"contracts/Pool/Pool.sol\":31647:31675  _isExcluded[account] = false */\n      0x0100\n      exp\n      dup2\n      sload\n      dup2\n      0xff\n      mul\n      not\n      and\n      swap1\n      dup4\n      iszero\n      iszero\n      mul\n      or\n      swap1\n      sstore\n      pop\n        /* \"contracts/Pool/Pool.sol\":31693:31702  _excluded */\n      0x08\n        /* \"contracts/Pool/Pool.sol\":31693:31708  _excluded.pop() */\n      dup1\n      sload\n      dup1\n      tag_235\n      jumpi\n      invalid\n    tag_235:\n      0x01\n      swap1\n      sub\n      dup2\n      dup2\n      swap1\n      0x00\n      mstore\n      keccak256(0x00, 0x20)\n      add\n      exp(0x0100, 0x00)\n      dup2\n      sload\n      swap1\n      0xffffffffffffffffffffffffffffffffffffffff\n      mul\n      not\n      and\n      swap1\n      sstore\n      swap1\n      sstore\n        /* \"contracts/Pool/Pool.sol\":31726:31731  break */\n      jump(tag_226)\n        /* \"contracts/Pool/Pool.sol\":31498:31746  if (_excluded[i] == account) {... */\n    tag_230:\n        /* \"contracts/Pool/Pool.sol\":31479:31482  i++ */\n      dup1\n      dup1\n      0x01\n      add\n      swap2\n      pop\n      pop\n        /* \"contracts/Pool/Pool.sol\":31437:31756  for (uint256 i = 0; i < _excluded.length; i++) {... */\n      jump(tag_225)\n    tag_226:\n      pop\n        /* \"contracts/Pool/Pool.sol\":31294:31762  function includeInReward(address account) external onlyOwner() {... */\n      pop\n      jump\t// out\n        /* \"contracts/Pool/Pool.sol\":29077:29292  function increaseAllowance(address spender, uint256 addedValue) public virtual returns (bool) {... */\n    tag_91:\n        /* \"contracts/Pool/Pool.sol\":29165:29169  bool */\n      0x00\n        /* \"contracts/Pool/Pool.sol\":29181:29264  _approve(_msgSender(), spender, _allowances[_msgSender()][spender].add(addedValue)) */\n      tag_238\n        /* \"contracts/Pool/Pool.sol\":29190:29202  _msgSender() */\n      tag_239\n        /* \"contracts/Pool/Pool.sol\":29190:29200  _msgSender */\n      tag_192\n        /* \"contracts/Pool/Pool.sol\":29190:29202  _msgSender() */\n      jump\t// in\n    tag_239:\n        /* \"contracts/Pool/Pool.sol\":29204:29211  spender */\n      dup5\n        /* \"contracts/Pool/Pool.sol\":29213:29263  _allowances[_msgSender()][spender].add(addedValue) */\n      tag_240\n        /* \"contracts/Pool/Pool.sol\":29252:29262  addedValue */\n      dup6\n        /* \"contracts/Pool/Pool.sol\":29213:29224  _allowances */\n      0x05\n        /* \"contracts/Pool/Pool.sol\":29213:29238  _allowances[_msgSender()] */\n      0x00\n        /* \"contracts/Pool/Pool.sol\":29225:29237  _msgSender() */\n      tag_241\n        /* \"contracts/Pool/Pool.sol\":29225:29235  _msgSender */\n      tag_192\n        /* \"contracts/Pool/Pool.sol\":29225:29237  _msgSender() */\n      jump\t// in\n    tag_241:\n        /* \"contracts/Pool/Pool.sol\":29213:29238  _allowances[_msgSender()] */\n      0xffffffffffffffffffffffffffffffffffffffff\n      and\n      0xffffffffffffffffffffffffffffffffffffffff\n      and\n      dup2\n      mstore\n      0x20\n      add\n      swap1\n      dup2\n      mstore\n      0x20\n      add\n      0x00\n      keccak256\n        /* \"contracts/Pool/Pool.sol\":29213:29247  _allowances[_msgSender()][spender] */\n      0x00\n        /* \"contracts/Pool/Pool.sol\":29239:29246  spender */\n      dup10\n        /* \"contracts/Pool/Pool.sol\":29213:29247  _allowances[_msgSender()][spender] */\n      0xffffffffffffffffffffffffffffffffffffffff\n      and\n      0xffffffffffffffffffffffffffffffffffffffff\n      and\n      dup2\n      mstore\n      0x20\n      add\n      swap1\n      dup2\n      mstore\n      0x20\n      add\n      0x00\n      keccak256\n      sload\n        /* \"contracts/Pool/Pool.sol\":29213:29251  _allowances[_msgSender()][spender].add */\n      tag_242\n      swap1\n        /* \"contracts/Pool/Pool.sol\":29213:29263  _allowances[_msgSender()][spender].add(addedValue) */\n      swap2\n      swap1\n      0xffffffff\n      and\n      jump\t// in\n    tag_240:\n        /* \"contracts/Pool/Pool.sol\":29181:29189  _approve */\n      tag_202\n        /* \"contracts/Pool/Pool.sol\":29181:29264  _approve(_msgSender(), spender, _allowances[_msgSender()][spender].add(addedValue)) */\n      jump\t// in\n    tag_238:\n        /* \"contracts/Pool/Pool.sol\":29281:29285  true */\n      0x01\n        /* \"contracts/Pool/Pool.sol\":29274:29285  return true */\n      swap1\n      pop\n        /* \"contracts/Pool/Pool.sol\":29077:29292  function increaseAllowance(address spender, uint256 addedValue) public virtual returns (bool) {... */\n      swap3\n      swap2\n      pop\n      pop\n      jump\t// out\n        /* \"contracts/Pool/Pool.sol\":26141:26167  uint256 public _taxFee = 5 */\n    tag_94:\n      sload(0x0f)\n      dup2\n      jump\t// out\n        /* \"contracts/Pool/Pool.sol\":29785:30155  function deliver(uint256 tAmount) public {... */\n    tag_98:\n        /* \"contracts/Pool/Pool.sol\":29836:29850  address sender */\n      0x00\n        /* \"contracts/Pool/Pool.sol\":29853:29865  _msgSender() */\n      tag_244\n        /* \"contracts/Pool/Pool.sol\":29853:29863  _msgSender */\n      tag_192\n        /* \"contracts/Pool/Pool.sol\":29853:29865  _msgSender() */\n      jump\t// in\n    tag_244:\n        /* \"contracts/Pool/Pool.sol\":29836:29865  address sender = _msgSender() */\n      swap1\n      pop\n        /* \"contracts/Pool/Pool.sol\":29884:29895  _isExcluded */\n      0x07\n        /* \"contracts/Pool/Pool.sol\":29884:29903  _isExcluded[sender] */\n      0x00\n        /* \"contracts/Pool/Pool.sol\":29896:29902  sender */\n      dup3\n        /* \"contracts/Pool/Pool.sol\":29884:29903  _isExcluded[sender] */\n      0xffffffffffffffffffffffffffffffffffffffff\n      and\n      0xffffffffffffffffffffffffffffffffffffffff\n      and\n      dup2\n      mstore\n      0x20\n      add\n      swap1\n      dup2\n      mstore\n      0x20\n      add\n      0x00\n      keccak256\n      0x00\n      swap1\n      sload\n      swap1\n      0x0100\n      exp\n      swap1\n      div\n      0xff\n      and\n        /* \"contracts/Pool/Pool.sol\":29883:29903  !_isExcluded[sender] */\n      iszero\n        /* \"contracts/Pool/Pool.sol\":29875:29952  require(!_isExcluded[sender], \"Excluded addresses cannot call this function\") */\n      tag_245\n      jumpi\n      mload(0x40)\n      0x08c379a000000000000000000000000000000000000000000000000000000000\n      dup2\n      mstore\n      0x04\n      add\n      dup1\n      dup1\n      0x20\n      add\n      dup3\n      dup2\n      sub\n      dup3\n      mstore\n      0x2c\n      dup2\n      mstore\n      0x20\n      add\n      dup1\n      data_ecefcaf5fbcf9ca6dcdb02298ba1da96f4ead317b0a4779917ecb2e5e7dc3ac4\n      0x2c\n      swap2\n      codecopy\n      0x40\n      add\n      swap2\n      pop\n      pop\n      mload(0x40)\n      dup1\n      swap2\n      sub\n      swap1\n      revert\n    tag_245:\n        /* \"contracts/Pool/Pool.sol\":29963:29978  uint256 rAmount */\n      0x00\n        /* \"contracts/Pool/Pool.sol\":29987:30006  _getValues(tAmount) */\n      tag_246\n        /* \"contracts/Pool/Pool.sol\":29998:30005  tAmount */\n      dup4\n        /* \"contracts/Pool/Pool.sol\":29987:29997  _getValues */\n      tag_247\n        /* \"contracts/Pool/Pool.sol\":29987:30006  _getValues(tAmount) */\n      jump\t// in\n    tag_246:\n        /* \"contracts/Pool/Pool.sol\":29962:30006  (uint256 rAmount,,,,,) = _getValues(tAmount) */\n      pop\n      pop\n      pop\n      pop\n      pop\n      swap1\n      pop\n        /* \"contracts/Pool/Pool.sol\":30034:30062  _rOwned[sender].sub(rAmount) */\n      tag_248\n        /* \"contracts/Pool/Pool.sol\":30054:30061  rAmount */\n      dup2\n        /* \"contracts/Pool/Pool.sol\":30034:30041  _rOwned */\n      0x03\n        /* \"contracts/Pool/Pool.sol\":30034:30049  _rOwned[sender] */\n      0x00\n        /* \"contracts/Pool/Pool.sol\":30042:30048  sender */\n      dup6\n        /* \"contracts/Pool/Pool.sol\":30034:30049  _rOwned[sender] */\n      0xffffffffffffffffffffffffffffffffffffffff\n      and\n      0xffffffffffffffffffffffffffffffffffffffff\n      and\n      dup2\n      mstore\n      0x20\n      add\n      swap1\n      dup2\n      mstore\n      0x20\n      add\n      0x00\n      keccak256\n      sload\n        /* \"contracts/Pool/Pool.sol\":30034:30053  _rOwned[sender].sub */\n      tag_249\n      swap1\n        /* \"contracts/Pool/Pool.sol\":30034:30062  _rOwned[sender].sub(rAmount) */\n      swap2\n      swap1\n      0xffffffff\n      and\n      jump\t// in\n    tag_248:\n        /* \"contracts/Pool/Pool.sol\":30016:30023  _rOwned */\n      0x03\n        /* \"contracts/Pool/Pool.sol\":30016:30031  _rOwned[sender] */\n      0x00\n        /* \"contracts/Pool/Pool.sol\":30024:30030  sender */\n      dup5\n        /* \"contracts/Pool/Pool.sol\":30016:30031  _rOwned[sender] */\n      0xffffffffffffffffffffffffffffffffffffffff\n      and\n      0xffffffffffffffffffffffffffffffffffffffff\n      and\n      dup2\n      mstore\n      0x20\n      add\n      swap1\n      dup2\n      mstore\n      0x20\n      add\n      0x00\n      keccak256\n        /* \"contracts/Pool/Pool.sol\":30016:30062  _rOwned[sender] = _rOwned[sender].sub(rAmount) */\n      dup2\n      swap1\n      sstore\n      pop\n        /* \"contracts/Pool/Pool.sol\":30082:30102  _rTotal.sub(rAmount) */\n      tag_250\n        /* \"contracts/Pool/Pool.sol\":30094:30101  rAmount */\n      dup2\n        /* \"contracts/Pool/Pool.sol\":30082:30089  _rTotal */\n      sload(0x0a)\n        /* \"contracts/Pool/Pool.sol\":30082:30093  _rTotal.sub */\n      tag_249\n      swap1\n        /* \"contracts/Pool/Pool.sol\":30082:30102  _rTotal.sub(rAmount) */\n      swap2\n      swap1\n      0xffffffff\n      and\n      jump\t// in\n    tag_250:\n        /* \"contracts/Pool/Pool.sol\":30072:30079  _rTotal */\n      0x0a\n        /* \"contracts/Pool/Pool.sol\":30072:30102  _rTotal = _rTotal.sub(rAmount) */\n      dup2\n      swap1\n      sstore\n      pop\n        /* \"contracts/Pool/Pool.sol\":30125:30148  _tFeeTotal.add(tAmount) */\n      tag_251\n        /* \"contracts/Pool/Pool.sol\":30140:30147  tAmount */\n      dup4\n        /* \"contracts/Pool/Pool.sol\":30125:30135  _tFeeTotal */\n      sload(0x0b)\n        /* \"contracts/Pool/Pool.sol\":30125:30139  _tFeeTotal.add */\n      tag_242\n      swap1\n        /* \"contracts/Pool/Pool.sol\":30125:30148  _tFeeTotal.add(tAmount) */\n      swap2\n      swap1\n      0xffffffff\n      and\n      jump\t// in\n    tag_251:\n        /* \"contracts/Pool/Pool.sol\":30112:30122  _tFeeTotal */\n      0x0b\n        /* \"contracts/Pool/Pool.sol\":30112:30148  _tFeeTotal = _tFeeTotal.add(tAmount) */\n      dup2\n      swap1\n      sstore\n      pop\n        /* \"contracts/Pool/Pool.sol\":29785:30155  function deliver(uint256 tAmount) public {... */\n      pop\n      pop\n      pop\n      jump\t// out\n        /* \"contracts/Pool/Pool.sol\":32418:32527  function excludeFromFee(address account) public onlyOwner {... */\n    tag_102:\n        /* \"contracts/Pool/Pool.sol\":15825:15837  _msgSender() */\n      tag_253\n        /* \"contracts/Pool/Pool.sol\":15825:15835  _msgSender */\n      tag_192\n        /* \"contracts/Pool/Pool.sol\":15825:15837  _msgSender() */\n      jump\t// in\n    tag_253:\n        /* \"contracts/Pool/Pool.sol\":15815:15837  _owner == _msgSender() */\n      0xffffffffffffffffffffffffffffffffffffffff\n      and\n        /* \"contracts/Pool/Pool.sol\":15815:15821  _owner */\n      0x00\n      dup1\n      sload\n      swap1\n      0x0100\n      exp\n      swap1\n      div\n      0xffffffffffffffffffffffffffffffffffffffff\n      and\n        /* \"contracts/Pool/Pool.sol\":15815:15837  _owner == _msgSender() */\n      0xffffffffffffffffffffffffffffffffffffffff\n      and\n      eq\n        /* \"contracts/Pool/Pool.sol\":15807:15874  require(_owner == _msgSender(), \"Ownable: caller is not the owner\") */\n      tag_254\n      jumpi\n      mload(0x40)\n      0x08c379a000000000000000000000000000000000000000000000000000000000\n      dup2\n      mstore\n      0x04\n      add\n      dup1\n      dup1\n      0x20\n      add\n      dup3\n      dup2\n      sub\n      dup3\n      mstore\n      0x20\n      dup2\n      mstore\n      0x20\n      add\n      dup1\n      0x4f776e61626c653a2063616c6c6572206973206e6f7420746865206f776e6572\n      dup2\n      mstore\n      pop\n      0x20\n      add\n      swap2\n      pop\n      pop\n      mload(0x40)\n      dup1\n      swap2\n      sub\n      swap1\n      revert\n    tag_254:\n        /* \"contracts/Pool/Pool.sol\":32516:32520  true */\n      0x01\n        /* \"contracts/Pool/Pool.sol\":32486:32504  _isExcludedFromFee */\n      0x06\n        /* \"contracts/Pool/Pool.sol\":32486:32513  _isExcludedFromFee[account] */\n      0x00\n        /* \"contracts/Pool/Pool.sol\":32505:32512  account */\n      dup4\n        /* \"contracts/Pool/Pool.sol\":32486:32513  _isExcludedFromFee[account] */\n      0xffffffffffffffffffffffffffffffffffffffff\n      and\n      0xffffffffffffffffffffffffffffffffffffffff\n      and\n      dup2\n      mstore\n      0x20\n      add\n      swap1\n      dup2\n      mstore\n      0x20\n      add\n      0x00\n      keccak256\n      0x00\n        /* \"contracts/Pool/Pool.sol\":32486:32520  _isExcludedFromFee[account] = true */\n      0x0100\n      exp\n      dup2\n      sload\n      dup2\n      0xff\n      mul\n      not\n      and\n      swap1\n      dup4\n      iszero\n      iszero\n      mul\n      or\n      swap1\n      sstore\n      pop\n        /* \"contracts/Pool/Pool.sol\":32418:32527  function excludeFromFee(address account) public onlyOwner {... */\n      pop\n      jump\t// out\n        /* \"contracts/Pool/Pool.sol\":30161:30588  function reflectionFromToken(uint256 tAmount, bool deductTransferFee) public view returns(uint256) {... */\n    tag_106:\n        /* \"contracts/Pool/Pool.sol\":30251:30258  uint256 */\n      0x00\n        /* \"contracts/Pool/Pool.sol\":30289:30296  _tTotal */\n      sload(0x09)\n        /* \"contracts/Pool/Pool.sol\":30278:30285  tAmount */\n      dup4\n        /* \"contracts/Pool/Pool.sol\":30278:30296  tAmount <= _tTotal */\n      gt\n      iszero\n        /* \"contracts/Pool/Pool.sol\":30270:30332  require(tAmount <= _tTotal, \"Amount must be less than supply\") */\n      tag_257\n      jumpi\n      mload(0x40)\n      0x08c379a000000000000000000000000000000000000000000000000000000000\n      dup2\n      mstore\n      0x04\n      add\n      dup1\n      dup1\n      0x20\n      add\n      dup3\n      dup2\n      sub\n      dup3\n      mstore\n      0x1f\n      dup2\n      mstore\n      0x20\n      add\n      dup1\n      0x416d6f756e74206d757374206265206c657373207468616e20737570706c7900\n      dup2\n      mstore\n      pop\n      0x20\n      add\n      swap2\n      pop\n      pop\n      mload(0x40)\n      dup1\n      swap2\n      sub\n      swap1\n      revert\n    tag_257:\n        /* \"contracts/Pool/Pool.sol\":30347:30364  deductTransferFee */\n      dup2\n        /* \"contracts/Pool/Pool.sol\":30342:30582  if (!deductTransferFee) {... */\n      tag_258\n      jumpi\n        /* \"contracts/Pool/Pool.sol\":30381:30396  uint256 rAmount */\n      0x00\n        /* \"contracts/Pool/Pool.sol\":30405:30424  _getValues(tAmount) */\n      tag_259\n        /* \"contracts/Pool/Pool.sol\":30416:30423  tAmount */\n      dup5\n        /* \"contracts/Pool/Pool.sol\":30405:30415  _getValues */\n      tag_247\n        /* \"contracts/Pool/Pool.sol\":30405:30424  _getValues(tAmount) */\n      jump\t// in\n    tag_259:\n        /* \"contracts/Pool/Pool.sol\":30380:30424  (uint256 rAmount,,,,,) = _getValues(tAmount) */\n      pop\n      pop\n      pop\n      pop\n      pop\n      swap1\n      pop\n        /* \"contracts/Pool/Pool.sol\":30445:30452  rAmount */\n      dup1\n        /* \"contracts/Pool/Pool.sol\":30438:30452  return rAmount */\n      swap2\n      pop\n      pop\n      jump(tag_256)\n        /* \"contracts/Pool/Pool.sol\":30342:30582  if (!deductTransferFee) {... */\n    tag_258:\n        /* \"contracts/Pool/Pool.sol\":30485:30508  uint256 rTransferAmount */\n      0x00\n        /* \"contracts/Pool/Pool.sol\":30516:30535  _getValues(tAmount) */\n      tag_261\n        /* \"contracts/Pool/Pool.sol\":30527:30534  tAmount */\n      dup5\n        /* \"contracts/Pool/Pool.sol\":30516:30526  _getValues */\n      tag_247\n        /* \"contracts/Pool/Pool.sol\":30516:30535  _getValues(tAmount) */\n      jump\t// in\n    tag_261:\n        /* \"contracts/Pool/Pool.sol\":30483:30535  (,uint256 rTransferAmount,,,,) = _getValues(tAmount) */\n      pop\n      pop\n      pop\n      pop\n      swap2\n      pop\n      pop\n        /* \"contracts/Pool/Pool.sol\":30556:30571  rTransferAmount */\n      dup1\n        /* \"contracts/Pool/Pool.sol\":30549:30571  return rTransferAmount */\n      swap2\n      pop\n      pop\n        /* \"contracts/Pool/Pool.sol\":30161:30588  function reflectionFromToken(uint256 tAmount, bool deductTransferFee) public view returns(uint256) {... */\n    tag_256:\n      swap3\n      swap2\n      pop\n      pop\n      jump\t// out\n        /* \"contracts/Pool/Pool.sol\":26380:26418  address public immutable uniswapV2Pair */\n    tag_109:\n      immutable(\"0x3420243e987a0dddfaa7d77b227cced5f6bc741ff3ff5461051f619ef3b8b7b2\")\n      dup2\n      jump\t// out\n        /* \"contracts/Pool/Pool.sol\":26456:26496  bool public swapAndLiquifyEnabled = true */\n    tag_112:\n      0x13\n      0x01\n      swap1\n      sload\n      swap1\n      0x0100\n      exp\n      swap1\n      div\n      0xff\n      and\n      dup2\n      jump\t// out\n        /* \"contracts/Pool/Pool.sol\":30849:31288  function excludeFromReward(address account) public onlyOwner() {... */\n    tag_116:\n        /* \"contracts/Pool/Pool.sol\":15825:15837  _msgSender() */\n      tag_263\n        /* \"contracts/Pool/Pool.sol\":15825:15835  _msgSender */\n      tag_192\n        /* \"contracts/Pool/Pool.sol\":15825:15837  _msgSender() */\n      jump\t// in\n    tag_263:\n        /* \"contracts/Pool/Pool.sol\":15815:15837  _owner == _msgSender() */\n      0xffffffffffffffffffffffffffffffffffffffff\n      and\n        /* \"contracts/Pool/Pool.sol\":15815:15821  _owner */\n      0x00\n      dup1\n      sload\n      swap1\n      0x0100\n      exp\n      swap1\n      div\n      0xffffffffffffffffffffffffffffffffffffffff\n      and\n        /* \"contracts/Pool/Pool.sol\":15815:15837  _owner == _msgSender() */\n      0xffffffffffffffffffffffffffffffffffffffff\n      and\n      eq\n        /* \"contracts/Pool/Pool.sol\":15807:15874  require(_owner == _msgSender(), \"Ownable: caller is not the owner\") */\n      tag_264\n      jumpi\n      mload(0x40)\n      0x08c379a000000000000000000000000000000000000000000000000000000000\n      dup2\n      mstore\n      0x04\n      add\n      dup1\n      dup1\n      0x20\n      add\n      dup3\n      dup2\n      sub\n      dup3\n      mstore\n      0x20\n      dup2\n      mstore\n      0x20\n      add\n      dup1\n      0x4f776e61626c653a2063616c6c6572206973206e6f7420746865206f776e6572\n      dup2\n      mstore\n      pop\n      0x20\n      add\n      swap2\n      pop\n      pop\n      mload(0x40)\n      dup1\n      swap2\n      sub\n      swap1\n      revert\n    tag_264:\n        /* \"contracts/Pool/Pool.sol\":31044:31055  _isExcluded */\n      0x07\n        /* \"contracts/Pool/Pool.sol\":31044:31064  _isExcluded[account] */\n      0x00\n        /* \"contracts/Pool/Pool.sol\":31056:31063  account */\n      dup3\n        /* \"contracts/Pool/Pool.sol\":31044:31064  _isExcluded[account] */\n      0xffffffffffffffffffffffffffffffffffffffff\n      and\n      0xffffffffffffffffffffffffffffffffffffffff\n      and\n      dup2\n      mstore\n      0x20\n      add\n      swap1\n      dup2\n      mstore\n      0x20\n      add\n      0x00\n      keccak256\n      0x00\n      swap1\n      sload\n      swap1\n      0x0100\n      exp\n      swap1\n      div\n      0xff\n      and\n        /* \"contracts/Pool/Pool.sol\":31043:31064  !_isExcluded[account] */\n      iszero\n        /* \"contracts/Pool/Pool.sol\":31035:31096  require(!_isExcluded[account], \"Account is already excluded\") */\n      tag_266\n      jumpi\n      mload(0x40)\n      0x08c379a000000000000000000000000000000000000000000000000000000000\n      dup2\n      mstore\n      0x04\n      add\n      dup1\n      dup1\n      0x20\n      add\n      dup3\n      dup2\n      sub\n      dup3\n      mstore\n      0x1b\n      dup2\n      mstore\n      0x20\n      add\n      dup1\n      0x4163636f756e7420697320616c7265616479206578636c756465640000000000\n      dup2\n      mstore\n      pop\n      0x20\n      add\n      swap2\n      pop\n      pop\n      mload(0x40)\n      dup1\n      swap2\n      sub\n      swap1\n      revert\n    tag_266:\n        /* \"contracts/Pool/Pool.sol\":31128:31129  0 */\n      0x00\n        /* \"contracts/Pool/Pool.sol\":31109:31116  _rOwned */\n      0x03\n        /* \"contracts/Pool/Pool.sol\":31109:31125  _rOwned[account] */\n      0x00\n        /* \"contracts/Pool/Pool.sol\":31117:31124  account */\n      dup4\n        /* \"contracts/Pool/Pool.sol\":31109:31125  _rOwned[account] */\n      0xffffffffffffffffffffffffffffffffffffffff\n      and\n      0xffffffffffffffffffffffffffffffffffffffff\n      and\n      dup2\n      mstore\n      0x20\n      add\n      swap1\n      dup2\n      mstore\n      0x20\n      add\n      0x00\n      keccak256\n      sload\n        /* \"contracts/Pool/Pool.sol\":31109:31129  _rOwned[account] > 0 */\n      gt\n        /* \"contracts/Pool/Pool.sol\":31106:31212  if(_rOwned[account] > 0) {... */\n      iszero\n      tag_267\n      jumpi\n        /* \"contracts/Pool/Pool.sol\":31164:31201  tokenFromReflection(_rOwned[account]) */\n      tag_268\n        /* \"contracts/Pool/Pool.sol\":31184:31191  _rOwned */\n      0x03\n        /* \"contracts/Pool/Pool.sol\":31184:31200  _rOwned[account] */\n      0x00\n        /* \"contracts/Pool/Pool.sol\":31192:31199  account */\n      dup4\n        /* \"contracts/Pool/Pool.sol\":31184:31200  _rOwned[account] */\n      0xffffffffffffffffffffffffffffffffffffffff\n      and\n      0xffffffffffffffffffffffffffffffffffffffff\n      and\n      dup2\n      mstore\n      0x20\n      add\n      swap1\n      dup2\n      mstore\n      0x20\n      add\n      0x00\n      keccak256\n      sload\n        /* \"contracts/Pool/Pool.sol\":31164:31183  tokenFromReflection */\n      tag_80\n        /* \"contracts/Pool/Pool.sol\":31164:31201  tokenFromReflection(_rOwned[account]) */\n      jump\t// in\n    tag_268:\n        /* \"contracts/Pool/Pool.sol\":31145:31152  _tOwned */\n      0x04\n        /* \"contracts/Pool/Pool.sol\":31145:31161  _tOwned[account] */\n      0x00\n        /* \"contracts/Pool/Pool.sol\":31153:31160  account */\n      dup4\n        /* \"contracts/Pool/Pool.sol\":31145:31161  _tOwned[account] */\n      0xffffffffffffffffffffffffffffffffffffffff\n      and\n      0xffffffffffffffffffffffffffffffffffffffff\n      and\n      dup2\n      mstore\n      0x20\n      add\n      swap1\n      dup2\n      mstore\n      0x20\n      add\n      0x00\n      keccak256\n        /* \"contracts/Pool/Pool.sol\":31145:31201  _tOwned[account] = tokenFromReflection(_rOwned[account]) */\n      dup2\n      swap1\n      sstore\n      pop\n        /* \"contracts/Pool/Pool.sol\":31106:31212  if(_rOwned[account] > 0) {... */\n    tag_267:\n        /* \"contracts/Pool/Pool.sol\":31244:31248  true */\n      0x01\n        /* \"contracts/Pool/Pool.sol\":31221:31232  _isExcluded */\n      0x07\n        /* \"contracts/Pool/Pool.sol\":31221:31241  _isExcluded[account] */\n      0x00\n        /* \"contracts/Pool/Pool.sol\":31233:31240  account */\n      dup4\n        /* \"contracts/Pool/Pool.sol\":31221:31241  _isExcluded[account] */\n      0xffffffffffffffffffffffffffffffffffffffff\n      and\n      0xffffffffffffffffffffffffffffffffffffffff\n      and\n      dup2\n      mstore\n      0x20\n      add\n      swap1\n      dup2\n      mstore\n      0x20\n      add\n      0x00\n      keccak256\n      0x00\n        /* \"contracts/Pool/Pool.sol\":31221:31248  _isExcluded[account] = true */\n      0x0100\n      exp\n      dup2\n      sload\n      dup2\n      0xff\n      mul\n      not\n      and\n      swap1\n      dup4\n      iszero\n      iszero\n      mul\n      or\n      swap1\n      sstore\n      pop\n        /* \"contracts/Pool/Pool.sol\":31258:31267  _excluded */\n      0x08\n        /* \"contracts/Pool/Pool.sol\":31273:31280  account */\n      dup2\n        /* \"contracts/Pool/Pool.sol\":31258:31281  _excluded.push(account) */\n      swap1\n      dup1\n      0x01\n      dup2\n      sload\n      add\n      dup1\n      dup3\n      sstore\n      dup1\n      swap2\n      pop\n      pop\n      0x01\n      swap1\n      sub\n      swap1\n      0x00\n      mstore\n      keccak256(0x00, 0x20)\n      add\n      0x00\n      swap1\n      swap2\n      swap1\n      swap2\n      swap1\n      swap2\n      0x0100\n      exp\n      dup2\n      sload\n      dup2\n      0xffffffffffffffffffffffffffffffffffffffff\n      mul\n      not\n      and\n      swap1\n      dup4\n      0xffffffffffffffffffffffffffffffffffffffff\n      and\n      mul\n      or\n      swap1\n      sstore\n      pop\n        /* \"contracts/Pool/Pool.sol\":30849:31288  function excludeFromReward(address account) public onlyOwner() {... */\n      pop\n      jump\t// out\n        /* \"contracts/Pool/Pool.sol\":36452:36573  function isExcludedFromFee(address account) public view returns(bool) {... */\n    tag_120:\n        /* \"contracts/Pool/Pool.sol\":36516:36520  bool */\n      0x00\n        /* \"contracts/Pool/Pool.sol\":36539:36557  _isExcludedFromFee */\n      0x06\n        /* \"contracts/Pool/Pool.sol\":36539:36566  _isExcludedFromFee[account] */\n      0x00\n        /* \"contracts/Pool/Pool.sol\":36558:36565  account */\n      dup4\n        /* \"contracts/Pool/Pool.sol\":36539:36566  _isExcludedFromFee[account] */\n      0xffffffffffffffffffffffffffffffffffffffff\n      and\n      0xffffffffffffffffffffffffffffffffffffffff\n      and\n      dup2\n      mstore\n      0x20\n      add\n      swap1\n      dup2\n      mstore\n      0x20\n      add\n      0x00\n      keccak256\n      0x00\n      swap1\n      sload\n      swap1\n      0x0100\n      exp\n      swap1\n      div\n      0xff\n      and\n        /* \"contracts/Pool/Pool.sol\":36532:36566  return _isExcludedFromFee[account] */\n      swap1\n      pop\n        /* \"contracts/Pool/Pool.sol\":36452:36573  function isExcludedFromFee(address account) public view returns(bool) {... */\n      swap2\n      swap1\n      pop\n      jump\t// out\n        /* \"contracts/Pool/Pool.sol\":26225:26257  uint256 public _liquidityFee = 5 */\n    tag_123:\n      sload(0x11)\n      dup2\n      jump\t// out\n        /* \"contracts/Pool/Pool.sol\":28080:28275  function balanceOf(address account) public view override returns (uint256) {... */\n    tag_127:\n        /* \"contracts/Pool/Pool.sol\":28146:28153  uint256 */\n      0x00\n        /* \"contracts/Pool/Pool.sol\":28169:28180  _isExcluded */\n      0x07\n        /* \"contracts/Pool/Pool.sol\":28169:28189  _isExcluded[account] */\n      0x00\n        /* \"contracts/Pool/Pool.sol\":28181:28188  account */\n      dup4\n        /* \"contracts/Pool/Pool.sol\":28169:28189  _isExcluded[account] */\n      0xffffffffffffffffffffffffffffffffffffffff\n      and\n      0xffffffffffffffffffffffffffffffffffffffff\n      and\n      dup2\n      mstore\n      0x20\n      add\n      swap1\n      dup2\n      mstore\n      0x20\n      add\n      0x00\n      keccak256\n      0x00\n      swap1\n      sload\n      swap1\n      0x0100\n      exp\n      swap1\n      div\n      0xff\n      and\n        /* \"contracts/Pool/Pool.sol\":28165:28214  if (_isExcluded[account]) return _tOwned[account] */\n      iszero\n      tag_272\n      jumpi\n        /* \"contracts/Pool/Pool.sol\":28198:28205  _tOwned */\n      0x04\n        /* \"contracts/Pool/Pool.sol\":28198:28214  _tOwned[account] */\n      0x00\n        /* \"contracts/Pool/Pool.sol\":28206:28213  account */\n      dup4\n        /* \"contracts/Pool/Pool.sol\":28198:28214  _tOwned[account] */\n      0xffffffffffffffffffffffffffffffffffffffff\n      and\n      0xffffffffffffffffffffffffffffffffffffffff\n      and\n      dup2\n      mstore\n      0x20\n      add\n      swap1\n      dup2\n      mstore\n      0x20\n      add\n      0x00\n      keccak256\n      sload\n        /* \"contracts/Pool/Pool.sol\":28191:28214  return _tOwned[account] */\n      swap1\n      pop\n      jump(tag_271)\n        /* \"contracts/Pool/Pool.sol\":28165:28214  if (_isExcluded[account]) return _tOwned[account] */\n    tag_272:\n        /* \"contracts/Pool/Pool.sol\":28231:28268  tokenFromReflection(_rOwned[account]) */\n      tag_273\n        /* \"contracts/Pool/Pool.sol\":28251:28258  _rOwned */\n      0x03\n        /* \"contracts/Pool/Pool.sol\":28251:28267  _rOwned[account] */\n      0x00\n        /* \"contracts/Pool/Pool.sol\":28259:28266  account */\n      dup5\n        /* \"contracts/Pool/Pool.sol\":28251:28267  _rOwned[account] */\n      0xffffffffffffffffffffffffffffffffffffffff\n      and\n      0xffffffffffffffffffffffffffffffffffffffff\n      and\n      dup2\n      mstore\n      0x20\n      add\n      swap1\n      dup2\n      mstore\n      0x20\n      add\n      0x00\n      keccak256\n      sload\n        /* \"contracts/Pool/Pool.sol\":28231:28250  tokenFromReflection */\n      tag_80\n        /* \"contracts/Pool/Pool.sol\":28231:28268  tokenFromReflection(_rOwned[account]) */\n      jump\t// in\n    tag_273:\n        /* \"contracts/Pool/Pool.sol\":28224:28268  return tokenFromReflection(_rOwned[account]) */\n      swap1\n      pop\n        /* \"contracts/Pool/Pool.sol\":28080:28275  function balanceOf(address account) public view override returns (uint256) {... */\n    tag_271:\n      swap2\n      swap1\n      pop\n      jump\t// out\n        /* \"contracts/Pool/Pool.sol\":16235:16380  function renounceOwnership() public virtual onlyOwner {... */\n    tag_130:\n        /* \"contracts/Pool/Pool.sol\":15825:15837  _msgSender() */\n      tag_275\n        /* \"contracts/Pool/Pool.sol\":15825:15835  _msgSender */\n      tag_192\n        /* \"contracts/Pool/Pool.sol\":15825:15837  _msgSender() */\n      jump\t// in\n    tag_275:\n        /* \"contracts/Pool/Pool.sol\":15815:15837  _owner == _msgSender() */\n      0xffffffffffffffffffffffffffffffffffffffff\n      and\n        /* \"contracts/Pool/Pool.sol\":15815:15821  _owner */\n      0x00\n      dup1\n      sload\n      swap1\n      0x0100\n      exp\n      swap1\n      div\n      0xffffffffffffffffffffffffffffffffffffffff\n      and\n        /* \"contracts/Pool/Pool.sol\":15815:15837  _owner == _msgSender() */\n      0xffffffffffffffffffffffffffffffffffffffff\n      and\n      eq\n        /* \"contracts/Pool/Pool.sol\":15807:15874  require(_owner == _msgSender(), \"Ownable: caller is not the owner\") */\n      tag_276\n      jumpi\n      mload(0x40)\n      0x08c379a000000000000000000000000000000000000000000000000000000000\n      dup2\n      mstore\n      0x04\n      add\n      dup1\n      dup1\n      0x20\n      add\n      dup3\n      dup2\n      sub\n      dup3\n      mstore\n      0x20\n      dup2\n      mstore\n      0x20\n      add\n      dup1\n      0x4f776e61626c653a2063616c6c6572206973206e6f7420746865206f776e6572\n      dup2\n      mstore\n      pop\n      0x20\n      add\n      swap2\n      pop\n      pop\n      mload(0x40)\n      dup1\n      swap2\n      sub\n      swap1\n      revert\n    tag_276:\n        /* \"contracts/Pool/Pool.sol\":16341:16342  0 */\n      0x00\n        /* \"contracts/Pool/Pool.sol\":16304:16344  OwnershipTransferred(_owner, address(0)) */\n      0xffffffffffffffffffffffffffffffffffffffff\n      and\n        /* \"contracts/Pool/Pool.sol\":16325:16331  _owner */\n      0x00\n      dup1\n      sload\n      swap1\n      0x0100\n      exp\n      swap1\n      div\n      0xffffffffffffffffffffffffffffffffffffffff\n      and\n        /* \"contracts/Pool/Pool.sol\":16304:16344  OwnershipTransferred(_owner, address(0)) */\n      0xffffffffffffffffffffffffffffffffffffffff\n      and\n      0x8be0079c531659141344cd1fd0a4f28419497f9722a3daafe3b4186f6b6457e0\n      mload(0x40)\n      mload(0x40)\n      dup1\n      swap2\n      sub\n      swap1\n      log3\n        /* \"contracts/Pool/Pool.sol\":16371:16372  0 */\n      0x00\n        /* \"contracts/Pool/Pool.sol\":16354:16360  _owner */\n      dup1\n      0x00\n        /* \"contracts/Pool/Pool.sol\":16354:16373  _owner = address(0) */\n      0x0100\n      exp\n      dup2\n      sload\n      dup2\n      0xffffffffffffffffffffffffffffffffffffffff\n      mul\n      not\n      and\n      swap1\n      dup4\n      0xffffffffffffffffffffffffffffffffffffffff\n      and\n      mul\n      or\n      swap1\n      sstore\n      pop\n        /* \"contracts/Pool/Pool.sol\":16235:16380  function renounceOwnership() public virtual onlyOwner {... */\n      jump\t// out\n        /* \"contracts/Pool/Pool.sol\":26507:26560  uint256 public _maxTxAmount = 5000000 * 10**6 * 10**9 */\n    tag_133:\n      sload(0x14)\n      dup2\n      jump\t// out\n        /* \"contracts/Pool/Pool.sol\":29570:29688  function isExcludedFromReward(address account) public view returns (bool) {... */\n    tag_137:\n        /* \"contracts/Pool/Pool.sol\":29638:29642  bool */\n      0x00\n        /* \"contracts/Pool/Pool.sol\":29661:29672  _isExcluded */\n      0x07\n        /* \"contracts/Pool/Pool.sol\":29661:29681  _isExcluded[account] */\n      0x00\n        /* \"contracts/Pool/Pool.sol\":29673:29680  account */\n      dup4\n        /* \"contracts/Pool/Pool.sol\":29661:29681  _isExcluded[account] */\n      0xffffffffffffffffffffffffffffffffffffffff\n      and\n      0xffffffffffffffffffffffffffffffffffffffff\n      and\n      dup2\n      mstore\n      0x20\n      add\n      swap1\n      dup2\n      mstore\n      0x20\n      add\n      0x00\n      keccak256\n      0x00\n      swap1\n      sload\n      swap1\n      0x0100\n      exp\n      swap1\n      div\n      0xff\n      and\n        /* \"contracts/Pool/Pool.sol\":29654:29681  return _isExcluded[account] */\n      swap1\n      pop\n        /* \"contracts/Pool/Pool.sol\":29570:29688  function isExcludedFromReward(address account) public view returns (bool) {... */\n      swap2\n      swap1\n      pop\n      jump\t// out\n        /* \"contracts/Pool/Pool.sol\":15611:15688  function owner() public view returns (address) {... */\n    tag_140:\n        /* \"contracts/Pool/Pool.sol\":15649:15656  address */\n      0x00\n        /* \"contracts/Pool/Pool.sol\":15675:15681  _owner */\n      dup1\n      0x00\n      swap1\n      sload\n      swap1\n      0x0100\n      exp\n      swap1\n      div\n      0xffffffffffffffffffffffffffffffffffffffff\n      and\n        /* \"contracts/Pool/Pool.sol\":15668:15681  return _owner */\n      swap1\n      pop\n        /* \"contracts/Pool/Pool.sol\":15611:15688  function owner() public view returns (address) {... */\n      swap1\n      jump\t// out\n        /* \"contracts/Pool/Pool.sol\":32761:32881  function setLiquidityFeePercent(uint256 liquidityFee) external onlyOwner() {... */\n    tag_144:\n        /* \"contracts/Pool/Pool.sol\":15825:15837  _msgSender() */\n      tag_281\n        /* \"contracts/Pool/Pool.sol\":15825:15835  _msgSender */\n      tag_192\n        /* \"contracts/Pool/Pool.sol\":15825:15837  _msgSender() */\n      jump\t// in\n    tag_281:\n        /* \"contracts/Pool/Pool.sol\":15815:15837  _owner == _msgSender() */\n      0xffffffffffffffffffffffffffffffffffffffff\n      and\n        /* \"contracts/Pool/Pool.sol\":15815:15821  _owner */\n      0x00\n      dup1\n      sload\n      swap1\n      0x0100\n      exp\n      swap1\n      div\n      0xffffffffffffffffffffffffffffffffffffffff\n      and\n        /* \"contracts/Pool/Pool.sol\":15815:15837  _owner == _msgSender() */\n      0xffffffffffffffffffffffffffffffffffffffff\n      and\n      eq\n        /* \"contracts/Pool/Pool.sol\":15807:15874  require(_owner == _msgSender(), \"Ownable: caller is not the owner\") */\n      tag_282\n      jumpi\n      mload(0x40)\n      0x08c379a000000000000000000000000000000000000000000000000000000000\n      dup2\n      mstore\n      0x04\n      add\n      dup1\n      dup1\n      0x20\n      add\n      dup3\n      dup2\n      sub\n      dup3\n      mstore\n      0x20\n      dup2\n      mstore\n      0x20\n      add\n      dup1\n      0x4f776e61626c653a2063616c6c6572206973206e6f7420746865206f776e6572\n      dup2\n      mstore\n      pop\n      0x20\n      add\n      swap2\n      pop\n      pop\n      mload(0x40)\n      dup1\n      swap2\n      sub\n      swap1\n      revert\n    tag_282:\n        /* \"contracts/Pool/Pool.sol\":32862:32874  liquidityFee */\n      dup1\n        /* \"contracts/Pool/Pool.sol\":32846:32859  _liquidityFee */\n      0x11\n        /* \"contracts/Pool/Pool.sol\":32846:32874  _liquidityFee = liquidityFee */\n      dup2\n      swap1\n      sstore\n      pop\n        /* \"contracts/Pool/Pool.sol\":32761:32881  function setLiquidityFeePercent(uint256 liquidityFee) external onlyOwner() {... */\n      pop\n      jump\t// out\n        /* \"contracts/Pool/Pool.sol\":27803:27888  function symbol() public view returns (string memory) {... */\n    tag_147:\n        /* \"contracts/Pool/Pool.sol\":27842:27855  string memory */\n      0x60\n        /* \"contracts/Pool/Pool.sol\":27874:27881  _symbol */\n      0x0d\n        /* \"contracts/Pool/Pool.sol\":27867:27881  return _symbol */\n      dup1\n      sload\n      0x01\n      dup2\n      0x01\n      and\n      iszero\n      0x0100\n      mul\n      sub\n      and\n      0x02\n      swap1\n      div\n      dup1\n      0x1f\n      add\n      0x20\n      dup1\n      swap2\n      div\n      mul\n      0x20\n      add\n      mload(0x40)\n      swap1\n      dup2\n      add\n      0x40\n      mstore\n      dup1\n      swap3\n      swap2\n      swap1\n      dup2\n      dup2\n      mstore\n      0x20\n      add\n      dup3\n      dup1\n      sload\n      0x01\n      dup2\n      0x01\n      and\n      iszero\n      0x0100\n      mul\n      sub\n      and\n      0x02\n      swap1\n      div\n      dup1\n      iszero\n      tag_285\n      jumpi\n      dup1\n      0x1f\n      lt\n      tag_286\n      jumpi\n      0x0100\n      dup1\n      dup4\n      sload\n      div\n      mul\n      dup4\n      mstore\n      swap2\n      0x20\n      add\n      swap2\n      jump(tag_285)\n    tag_286:\n      dup3\n      add\n      swap2\n      swap1\n      0x00\n      mstore\n      keccak256(0x00, 0x20)\n      swap1\n    tag_287:\n      dup2\n      sload\n      dup2\n      mstore\n      swap1\n      0x01\n      add\n      swap1\n      0x20\n      add\n      dup1\n      dup4\n      gt\n      tag_287\n      jumpi\n      dup3\n      swap1\n      sub\n      0x1f\n      and\n      dup3\n      add\n      swap2\n    tag_285:\n      pop\n      pop\n      pop\n      pop\n      pop\n      swap1\n      pop\n        /* \"contracts/Pool/Pool.sol\":27803:27888  function symbol() public view returns (string memory) {... */\n      swap1\n      jump\t// out\n        /* \"contracts/Pool/Pool.sol\":29298:29564  function decreaseAllowance(address spender, uint256 subtractedValue) public virtual returns (bool) {... */\n    tag_155:\n        /* \"contracts/Pool/Pool.sol\":29391:29395  bool */\n      0x00\n        /* \"contracts/Pool/Pool.sol\":29407:29536  _approve(_msgSender(), spender, _allowances[_msgSender()][spender].sub(subtractedValue, \"ERC20: decreased allowance below zero\")) */\n      tag_289\n        /* \"contracts/Pool/Pool.sol\":29416:29428  _msgSender() */\n      tag_290\n        /* \"contracts/Pool/Pool.sol\":29416:29426  _msgSender */\n      tag_192\n        /* \"contracts/Pool/Pool.sol\":29416:29428  _msgSender() */\n      jump\t// in\n    tag_290:\n        /* \"contracts/Pool/Pool.sol\":29430:29437  spender */\n      dup5\n        /* \"contracts/Pool/Pool.sol\":29439:29535  _allowances[_msgSender()][spender].sub(subtractedValue, \"ERC20: decreased allowance below zero\") */\n      tag_291\n        /* \"contracts/Pool/Pool.sol\":29478:29493  subtractedValue */\n      dup6\n        /* \"contracts/Pool/Pool.sol\":29439:29535  _allowances[_msgSender()][spender].sub(subtractedValue, \"ERC20: decreased allowance below zero\") */\n      mload(0x40)\n      dup1\n      0x60\n      add\n      0x40\n      mstore\n      dup1\n      0x25\n      dup2\n      mstore\n      0x20\n      add\n      data_f8b476f7d28209d77d4a4ac1fe36b9f8259aa1bb6bddfa6e89de7e51615cf8a8\n      0x25\n      swap2\n      codecopy\n        /* \"contracts/Pool/Pool.sol\":29439:29450  _allowances */\n      0x05\n        /* \"contracts/Pool/Pool.sol\":29439:29464  _allowances[_msgSender()] */\n      0x00\n        /* \"contracts/Pool/Pool.sol\":29451:29463  _msgSender() */\n      tag_292\n        /* \"contracts/Pool/Pool.sol\":29451:29461  _msgSender */\n      tag_192\n        /* \"contracts/Pool/Pool.sol\":29451:29463  _msgSender() */\n      jump\t// in\n    tag_292:\n        /* \"contracts/Pool/Pool.sol\":29439:29464  _allowances[_msgSender()] */\n      0xffffffffffffffffffffffffffffffffffffffff\n      and\n      0xffffffffffffffffffffffffffffffffffffffff\n      and\n      dup2\n      mstore\n      0x20\n      add\n      swap1\n      dup2\n      mstore\n      0x20\n      add\n      0x00\n      keccak256\n        /* \"contracts/Pool/Pool.sol\":29439:29473  _allowances[_msgSender()][spender] */\n      0x00\n        /* \"contracts/Pool/Pool.sol\":29465:29472  spender */\n      dup11\n        /* \"contracts/Pool/Pool.sol\":29439:29473  _allowances[_msgSender()][spender] */\n      0xffffffffffffffffffffffffffffffffffffffff\n      and\n      0xffffffffffffffffffffffffffffffffffffffff\n      and\n      dup2\n      mstore\n      0x20\n      add\n      swap1\n      dup2\n      mstore\n      0x20\n      add\n      0x00\n      keccak256\n      sload\n        /* \"contracts/Pool/Pool.sol\":29439:29477  _allowances[_msgSender()][spender].sub */\n      tag_212\n      swap1\n        /* \"contracts/Pool/Pool.sol\":29439:29535  _allowances[_msgSender()][spender].sub(subtractedValue, \"ERC20: decreased allowance below zero\") */\n      swap3\n      swap2\n      swap1\n      0xffffffff\n      and\n      jump\t// in\n    tag_291:\n        /* \"contracts/Pool/Pool.sol\":29407:29415  _approve */\n      tag_202\n        /* \"contracts/Pool/Pool.sol\":29407:29536  _approve(_msgSender(), spender, _allowances[_msgSender()][spender].sub(subtractedValue, \"ERC20: decreased allowance below zero\")) */\n      jump\t// in\n    tag_289:\n        /* \"contracts/Pool/Pool.sol\":29553:29557  true */\n      0x01\n        /* \"contracts/Pool/Pool.sol\":29546:29557  return true */\n      swap1\n      pop\n        /* \"contracts/Pool/Pool.sol\":29298:29564  function decreaseAllowance(address spender, uint256 subtractedValue) public virtual returns (bool) {... */\n      swap3\n      swap2\n      pop\n      pop\n      jump\t// out\n        /* \"contracts/Pool/Pool.sol\":17217:17505  function unlock() public virtual {... */\n    tag_158:\n        /* \"contracts/Pool/Pool.sol\":17286:17296  msg.sender */\n      caller\n        /* \"contracts/Pool/Pool.sol\":17268:17296  _previousOwner == msg.sender */\n      0xffffffffffffffffffffffffffffffffffffffff\n      and\n        /* \"contracts/Pool/Pool.sol\":17268:17282  _previousOwner */\n      0x01\n      0x00\n      swap1\n      sload\n      swap1\n      0x0100\n      exp\n      swap1\n      div\n      0xffffffffffffffffffffffffffffffffffffffff\n      and\n        /* \"contracts/Pool/Pool.sol\":17268:17296  _previousOwner == msg.sender */\n      0xffffffffffffffffffffffffffffffffffffffff\n      and\n      eq\n        /* \"contracts/Pool/Pool.sol\":17260:17336  require(_previousOwner == msg.sender, \"You don't have permission to unlock\") */\n      tag_294\n      jumpi\n      mload(0x40)\n      0x08c379a000000000000000000000000000000000000000000000000000000000\n      dup2\n      mstore\n      0x04\n      add\n      dup1\n      dup1\n      0x20\n      add\n      dup3\n      dup2\n      sub\n      dup3\n      mstore\n      0x23\n      dup2\n      mstore\n      0x20\n      add\n      dup1\n      data_f4eb59be3df39931213d374c3658377dca3f0d2b46b7bc965af767c57c74b611\n      0x23\n      swap2\n      codecopy\n      0x40\n      add\n      swap2\n      pop\n      pop\n      mload(0x40)\n      dup1\n      swap2\n      sub\n      swap1\n      revert\n    tag_294:\n        /* \"contracts/Pool/Pool.sol\":17360:17369  _lockTime */\n      sload(0x02)\n        /* \"contracts/Pool/Pool.sol\":17354:17357  now */\n      timestamp\n        /* \"contracts/Pool/Pool.sol\":17354:17369  now > _lockTime */\n      gt\n        /* \"contracts/Pool/Pool.sol\":17346:17406  require(now > _lockTime , \"Contract is locked until 7 days\") */\n      tag_295\n      jumpi\n      mload(0x40)\n      0x08c379a000000000000000000000000000000000000000000000000000000000\n      dup2\n      mstore\n      0x04\n      add\n      dup1\n      dup1\n      0x20\n      add\n      dup3\n      dup2\n      sub\n      dup3\n      mstore\n      0x1f\n      dup2\n      mstore\n      0x20\n      add\n      dup1\n      0x436f6e7472616374206973206c6f636b656420756e74696c2037206461797300\n      dup2\n      mstore\n      pop\n      0x20\n      add\n      swap2\n      pop\n      pop\n      mload(0x40)\n      dup1\n      swap2\n      sub\n      swap1\n      revert\n    tag_295:\n        /* \"contracts/Pool/Pool.sol\":17450:17464  _previousOwner */\n      0x01\n      0x00\n      swap1\n      sload\n      swap1\n      0x0100\n      exp\n      swap1\n      div\n      0xffffffffffffffffffffffffffffffffffffffff\n      and\n        /* \"contracts/Pool/Pool.sol\":17421:17465  OwnershipTransferred(_owner, _previousOwner) */\n      0xffffffffffffffffffffffffffffffffffffffff\n      and\n        /* \"contracts/Pool/Pool.sol\":17442:17448  _owner */\n      0x00\n      dup1\n      sload\n      swap1\n      0x0100\n      exp\n      swap1\n      div\n      0xffffffffffffffffffffffffffffffffffffffff\n      and\n        /* \"contracts/Pool/Pool.sol\":17421:17465  OwnershipTransferred(_owner, _previousOwner) */\n      0xffffffffffffffffffffffffffffffffffffffff\n      and\n      0x8be0079c531659141344cd1fd0a4f28419497f9722a3daafe3b4186f6b6457e0\n      mload(0x40)\n      mload(0x40)\n      dup1\n      swap2\n      sub\n      swap1\n      log3\n        /* \"contracts/Pool/Pool.sol\":17484:17498  _previousOwner */\n      0x01\n      0x00\n      swap1\n      sload\n      swap1\n      0x0100\n      exp\n      swap1\n      div\n      0xffffffffffffffffffffffffffffffffffffffff\n      and\n        /* \"contracts/Pool/Pool.sol\":17475:17481  _owner */\n      0x00\n      dup1\n        /* \"contracts/Pool/Pool.sol\":17475:17498  _owner = _previousOwner */\n      0x0100\n      exp\n      dup2\n      sload\n      dup2\n      0xffffffffffffffffffffffffffffffffffffffff\n      mul\n      not\n      and\n      swap1\n      dup4\n      0xffffffffffffffffffffffffffffffffffffffff\n      and\n      mul\n      or\n      swap1\n      sstore\n      pop\n        /* \"contracts/Pool/Pool.sol\":17217:17505  function unlock() public virtual {... */\n      jump\t// out\n        /* \"contracts/Pool/Pool.sol\":28281:28445  function transfer(address recipient, uint256 amount) public override returns (bool) {... */\n    tag_162:\n        /* \"contracts/Pool/Pool.sol\":28359:28363  bool */\n      0x00\n        /* \"contracts/Pool/Pool.sol\":28375:28417  _transfer(_msgSender(), recipient, amount) */\n      tag_297\n        /* \"contracts/Pool/Pool.sol\":28385:28397  _msgSender() */\n      tag_298\n        /* \"contracts/Pool/Pool.sol\":28385:28395  _msgSender */\n      tag_192\n        /* \"contracts/Pool/Pool.sol\":28385:28397  _msgSender() */\n      jump\t// in\n    tag_298:\n        /* \"contracts/Pool/Pool.sol\":28399:28408  recipient */\n      dup5\n        /* \"contracts/Pool/Pool.sol\":28410:28416  amount */\n      dup5\n        /* \"contracts/Pool/Pool.sol\":28375:28384  _transfer */\n      tag_207\n        /* \"contracts/Pool/Pool.sol\":28375:28417  _transfer(_msgSender(), recipient, amount) */\n      jump\t// in\n    tag_297:\n        /* \"contracts/Pool/Pool.sol\":28434:28438  true */\n      0x01\n        /* \"contracts/Pool/Pool.sol\":28427:28438  return true */\n      swap1\n      pop\n        /* \"contracts/Pool/Pool.sol\":28281:28445  function transfer(address recipient, uint256 amount) public override returns (bool) {... */\n      swap3\n      swap2\n      pop\n      pop\n      jump\t// out\n        /* \"contracts/Pool/Pool.sol\":16775:16862  function geUnlockTime() public view returns (uint256) {... */\n    tag_165:\n        /* \"contracts/Pool/Pool.sol\":16820:16827  uint256 */\n      0x00\n        /* \"contracts/Pool/Pool.sol\":16846:16855  _lockTime */\n      sload(0x02)\n        /* \"contracts/Pool/Pool.sol\":16839:16855  return _lockTime */\n      swap1\n      pop\n        /* \"contracts/Pool/Pool.sol\":16775:16862  function geUnlockTime() public view returns (uint256) {... */\n      swap1\n      jump\t// out\n        /* \"contracts/Pool/Pool.sol\":33054:33222  function setSwapAndLiquifyEnabled(bool _enabled) public onlyOwner {... */\n    tag_169:\n        /* \"contracts/Pool/Pool.sol\":15825:15837  _msgSender() */\n      tag_301\n        /* \"contracts/Pool/Pool.sol\":15825:15835  _msgSender */\n      tag_192\n        /* \"contracts/Pool/Pool.sol\":15825:15837  _msgSender() */\n      jump\t// in\n    tag_301:\n        /* \"contracts/Pool/Pool.sol\":15815:15837  _owner == _msgSender() */\n      0xffffffffffffffffffffffffffffffffffffffff\n      and\n        /* \"contracts/Pool/Pool.sol\":15815:15821  _owner */\n      0x00\n      dup1\n      sload\n      swap1\n      0x0100\n      exp\n      swap1\n      div\n      0xffffffffffffffffffffffffffffffffffffffff\n      and\n        /* \"contracts/Pool/Pool.sol\":15815:15837  _owner == _msgSender() */\n      0xffffffffffffffffffffffffffffffffffffffff\n      and\n      eq\n        /* \"contracts/Pool/Pool.sol\":15807:15874  require(_owner == _msgSender(), \"Ownable: caller is not the owner\") */\n      tag_302\n      jumpi\n      mload(0x40)\n      0x08c379a000000000000000000000000000000000000000000000000000000000\n      dup2\n      mstore\n      0x04\n      add\n      dup1\n      dup1\n      0x20\n      add\n      dup3\n      dup2\n      sub\n      dup3\n      mstore\n      0x20\n      dup2\n      mstore\n      0x20\n      add\n      dup1\n      0x4f776e61626c653a2063616c6c6572206973206e6f7420746865206f776e6572\n      dup2\n      mstore\n      pop\n      0x20\n      add\n      swap2\n      pop\n      pop\n      mload(0x40)\n      dup1\n      swap2\n      sub\n      swap1\n      revert\n    tag_302:\n        /* \"contracts/Pool/Pool.sol\":33154:33162  _enabled */\n      dup1\n        /* \"contracts/Pool/Pool.sol\":33130:33151  swapAndLiquifyEnabled */\n      0x13\n      0x01\n        /* \"contracts/Pool/Pool.sol\":33130:33162  swapAndLiquifyEnabled = _enabled */\n      0x0100\n      exp\n      dup2\n      sload\n      dup2\n      0xff\n      mul\n      not\n      and\n      swap1\n      dup4\n      iszero\n      iszero\n      mul\n      or\n      swap1\n      sstore\n      pop\n        /* \"contracts/Pool/Pool.sol\":33177:33215  SwapAndLiquifyEnabledUpdated(_enabled) */\n      0x53726dfcaf90650aa7eb35524f4d3220f07413c8d6cb404cc8c18bf5591bc159\n        /* \"contracts/Pool/Pool.sol\":33206:33214  _enabled */\n      dup2\n        /* \"contracts/Pool/Pool.sol\":33177:33215  SwapAndLiquifyEnabledUpdated(_enabled) */\n      mload(0x40)\n      dup1\n      dup3\n      iszero\n      iszero\n      dup2\n      mstore\n      0x20\n      add\n      swap2\n      pop\n      pop\n      mload(0x40)\n      dup1\n      swap2\n      sub\n      swap1\n      log1\n        /* \"contracts/Pool/Pool.sol\":33054:33222  function setSwapAndLiquifyEnabled(bool _enabled) public onlyOwner {... */\n      pop\n      jump\t// out\n        /* \"contracts/Pool/Pool.sol\":32890:33048  function setMaxTxPercent(uint256 maxTxPercent) external onlyOwner() {... */\n    tag_173:\n        /* \"contracts/Pool/Pool.sol\":15825:15837  _msgSender() */\n      tag_305\n        /* \"contracts/Pool/Pool.sol\":15825:15835  _msgSender */\n      tag_192\n        /* \"contracts/Pool/Pool.sol\":15825:15837  _msgSender() */\n      jump\t// in\n    tag_305:\n        /* \"contracts/Pool/Pool.sol\":15815:15837  _owner == _msgSender() */\n      0xffffffffffffffffffffffffffffffffffffffff\n      and\n        /* \"contracts/Pool/Pool.sol\":15815:15821  _owner */\n      0x00\n      dup1\n      sload\n      swap1\n      0x0100\n      exp\n      swap1\n      div\n      0xffffffffffffffffffffffffffffffffffffffff\n      and\n        /* \"contracts/Pool/Pool.sol\":15815:15837  _owner == _msgSender() */\n      0xffffffffffffffffffffffffffffffffffffffff\n      and\n      eq\n        /* \"contracts/Pool/Pool.sol\":15807:15874  require(_owner == _msgSender(), \"Ownable: caller is not the owner\") */\n      tag_306\n      jumpi\n      mload(0x40)\n      0x08c379a000000000000000000000000000000000000000000000000000000000\n      dup2\n      mstore\n      0x04\n      add\n      dup1\n      dup1\n      0x20\n      add\n      dup3\n      dup2\n      sub\n      dup3\n      mstore\n      0x20\n      dup2\n      mstore\n      0x20\n      add\n      dup1\n      0x4f776e61626c653a2063616c6c6572206973206e6f7420746865206f776e6572\n      dup2\n      mstore\n      pop\n      0x20\n      add\n      swap2\n      pop\n      pop\n      mload(0x40)\n      dup1\n      swap2\n      sub\n      swap1\n      revert\n    tag_306:\n        /* \"contracts/Pool/Pool.sol\":32983:33041  _tTotal.mul(maxTxPercent).div(... */\n      tag_308\n        /* \"contracts/Pool/Pool.sol\":33026:33031  10**2 */\n      0x64\n        /* \"contracts/Pool/Pool.sol\":32983:33008  _tTotal.mul(maxTxPercent) */\n      tag_309\n        /* \"contracts/Pool/Pool.sol\":32995:33007  maxTxPercent */\n      dup4\n        /* \"contracts/Pool/Pool.sol\":32983:32990  _tTotal */\n      sload(0x09)\n        /* \"contracts/Pool/Pool.sol\":32983:32994  _tTotal.mul */\n      tag_310\n      swap1\n        /* \"contracts/Pool/Pool.sol\":32983:33008  _tTotal.mul(maxTxPercent) */\n      swap2\n      swap1\n      0xffffffff\n      and\n      jump\t// in\n    tag_309:\n        /* \"contracts/Pool/Pool.sol\":32983:33012  _tTotal.mul(maxTxPercent).div */\n      tag_218\n      swap1\n        /* \"contracts/Pool/Pool.sol\":32983:33041  _tTotal.mul(maxTxPercent).div(... */\n      swap2\n      swap1\n      0xffffffff\n      and\n      jump\t// in\n    tag_308:\n        /* \"contracts/Pool/Pool.sol\":32968:32980  _maxTxAmount */\n      0x14\n        /* \"contracts/Pool/Pool.sol\":32968:33041  _maxTxAmount = _tTotal.mul(maxTxPercent).div(... */\n      dup2\n      swap1\n      sstore\n      pop\n        /* \"contracts/Pool/Pool.sol\":32890:33048  function setMaxTxPercent(uint256 maxTxPercent) external onlyOwner() {... */\n      pop\n      jump\t// out\n        /* \"contracts/Pool/Pool.sol\":16935:17144  function lock(uint256 time) public virtual onlyOwner {... */\n    tag_177:\n        /* \"contracts/Pool/Pool.sol\":15825:15837  _msgSender() */\n      tag_312\n        /* \"contracts/Pool/Pool.sol\":15825:15835  _msgSender */\n      tag_192\n        /* \"contracts/Pool/Pool.sol\":15825:15837  _msgSender() */\n      jump\t// in\n    tag_312:\n        /* \"contracts/Pool/Pool.sol\":15815:15837  _owner == _msgSender() */\n      0xffffffffffffffffffffffffffffffffffffffff\n      and\n        /* \"contracts/Pool/Pool.sol\":15815:15821  _owner */\n      0x00\n      dup1\n      sload\n      swap1\n      0x0100\n      exp\n      swap1\n      div\n      0xffffffffffffffffffffffffffffffffffffffff\n      and\n        /* \"contracts/Pool/Pool.sol\":15815:15837  _owner == _msgSender() */\n      0xffffffffffffffffffffffffffffffffffffffff\n      and\n      eq\n        /* \"contracts/Pool/Pool.sol\":15807:15874  require(_owner == _msgSender(), \"Ownable: caller is not the owner\") */\n      tag_313\n      jumpi\n      mload(0x40)\n      0x08c379a000000000000000000000000000000000000000000000000000000000\n      dup2\n      mstore\n      0x04\n      add\n      dup1\n      dup1\n      0x20\n      add\n      dup3\n      dup2\n      sub\n      dup3\n      mstore\n      0x20\n      dup2\n      mstore\n      0x20\n      add\n      dup1\n      0x4f776e61626c653a2063616c6c6572206973206e6f7420746865206f776e6572\n      dup2\n      mstore\n      pop\n      0x20\n      add\n      swap2\n      pop\n      pop\n      mload(0x40)\n      dup1\n      swap2\n      sub\n      swap1\n      revert\n    tag_313:\n        /* \"contracts/Pool/Pool.sol\":17015:17021  _owner */\n      0x00\n      dup1\n      sload\n      swap1\n      0x0100\n      exp\n      swap1\n      div\n      0xffffffffffffffffffffffffffffffffffffffff\n      and\n        /* \"contracts/Pool/Pool.sol\":16998:17012  _previousOwner */\n      0x01\n      0x00\n        /* \"contracts/Pool/Pool.sol\":16998:17021  _previousOwner = _owner */\n      0x0100\n      exp\n      dup2\n      sload\n      dup2\n      0xffffffffffffffffffffffffffffffffffffffff\n      mul\n      not\n      and\n      swap1\n      dup4\n      0xffffffffffffffffffffffffffffffffffffffff\n      and\n      mul\n      or\n      swap1\n      sstore\n      pop\n        /* \"contracts/Pool/Pool.sol\":17048:17049  0 */\n      0x00\n        /* \"contracts/Pool/Pool.sol\":17031:17037  _owner */\n      dup1\n      0x00\n        /* \"contracts/Pool/Pool.sol\":17031:17050  _owner = address(0) */\n      0x0100\n      exp\n      dup2\n      sload\n      dup2\n      0xffffffffffffffffffffffffffffffffffffffff\n      mul\n      not\n      and\n      swap1\n      dup4\n      0xffffffffffffffffffffffffffffffffffffffff\n      and\n      mul\n      or\n      swap1\n      sstore\n      pop\n        /* \"contracts/Pool/Pool.sol\":17078:17082  time */\n      dup1\n        /* \"contracts/Pool/Pool.sol\":17072:17075  now */\n      timestamp\n        /* \"contracts/Pool/Pool.sol\":17072:17082  now + time */\n      add\n        /* \"contracts/Pool/Pool.sol\":17060:17069  _lockTime */\n      0x02\n        /* \"contracts/Pool/Pool.sol\":17060:17082  _lockTime = now + time */\n      dup2\n      swap1\n      sstore\n      pop\n        /* \"contracts/Pool/Pool.sol\":17134:17135  0 */\n      0x00\n        /* \"contracts/Pool/Pool.sol\":17097:17137  OwnershipTransferred(_owner, address(0)) */\n      0xffffffffffffffffffffffffffffffffffffffff\n      and\n        /* \"contracts/Pool/Pool.sol\":17118:17124  _owner */\n      0x00\n      dup1\n      sload\n      swap1\n      0x0100\n      exp\n      swap1\n      div\n      0xffffffffffffffffffffffffffffffffffffffff\n      and\n        /* \"contracts/Pool/Pool.sol\":17097:17137  OwnershipTransferred(_owner, address(0)) */\n      0xffffffffffffffffffffffffffffffffffffffff\n      and\n      0x8be0079c531659141344cd1fd0a4f28419497f9722a3daafe3b4186f6b6457e0\n      mload(0x40)\n      mload(0x40)\n      dup1\n      swap2\n      sub\n      swap1\n      log3\n        /* \"contracts/Pool/Pool.sol\":16935:17144  function lock(uint256 time) public virtual onlyOwner {... */\n      pop\n      jump\t// out\n        /* \"contracts/Pool/Pool.sol\":28451:28592  function allowance(address owner, address spender) public view override returns (uint256) {... */\n    tag_181:\n        /* \"contracts/Pool/Pool.sol\":28532:28539  uint256 */\n      0x00\n        /* \"contracts/Pool/Pool.sol\":28558:28569  _allowances */\n      0x05\n        /* \"contracts/Pool/Pool.sol\":28558:28576  _allowances[owner] */\n      0x00\n        /* \"contracts/Pool/Pool.sol\":28570:28575  owner */\n      dup5\n        /* \"contracts/Pool/Pool.sol\":28558:28576  _allowances[owner] */\n      0xffffffffffffffffffffffffffffffffffffffff\n      and\n      0xffffffffffffffffffffffffffffffffffffffff\n      and\n      dup2\n      mstore\n      0x20\n      add\n      swap1\n      dup2\n      mstore\n      0x20\n      add\n      0x00\n      keccak256\n        /* \"contracts/Pool/Pool.sol\":28558:28585  _allowances[owner][spender] */\n      0x00\n        /* \"contracts/Pool/Pool.sol\":28577:28584  spender */\n      dup4\n        /* \"contracts/Pool/Pool.sol\":28558:28585  _allowances[owner][spender] */\n      0xffffffffffffffffffffffffffffffffffffffff\n      and\n      0xffffffffffffffffffffffffffffffffffffffff\n      and\n      dup2\n      mstore\n      0x20\n      add\n      swap1\n      dup2\n      mstore\n      0x20\n      add\n      0x00\n      keccak256\n      sload\n        /* \"contracts/Pool/Pool.sol\":28551:28585  return _allowances[owner][spender] */\n      swap1\n      pop\n        /* \"contracts/Pool/Pool.sol\":28451:28592  function allowance(address owner, address spender) public view override returns (uint256) {... */\n      swap3\n      swap2\n      pop\n      pop\n      jump\t// out\n        /* \"contracts/Pool/Pool.sol\":32537:32645  function includeInFee(address account) public onlyOwner {... */\n    tag_185:\n        /* \"contracts/Pool/Pool.sol\":15825:15837  _msgSender() */\n      tag_317\n        /* \"contracts/Pool/Pool.sol\":15825:15835  _msgSender */\n      tag_192\n        /* \"contracts/Pool/Pool.sol\":15825:15837  _msgSender() */\n      jump\t// in\n    tag_317:\n        /* \"contracts/Pool/Pool.sol\":15815:15837  _owner == _msgSender() */\n      0xffffffffffffffffffffffffffffffffffffffff\n      and\n        /* \"contracts/Pool/Pool.sol\":15815:15821  _owner */\n      0x00\n      dup1\n      sload\n      swap1\n      0x0100\n      exp\n      swap1\n      div\n      0xffffffffffffffffffffffffffffffffffffffff\n      and\n        /* \"contracts/Pool/Pool.sol\":15815:15837  _owner == _msgSender() */\n      0xffffffffffffffffffffffffffffffffffffffff\n      and\n      eq\n        /* \"contracts/Pool/Pool.sol\":15807:15874  require(_owner == _msgSender(), \"Ownable: caller is not the owner\") */\n      tag_318\n      jumpi\n      mload(0x40)\n      0x08c379a000000000000000000000000000000000000000000000000000000000\n      dup2\n      mstore\n      0x04\n      add\n      dup1\n      dup1\n      0x20\n      add\n      dup3\n      dup2\n      sub\n      dup3\n      mstore\n      0x20\n      dup2\n      mstore\n      0x20\n      add\n      dup1\n      0x4f776e61626c653a2063616c6c6572206973206e6f7420746865206f776e6572\n      dup2\n      mstore\n      pop\n      0x20\n      add\n      swap2\n      pop\n      pop\n      mload(0x40)\n      dup1\n      swap2\n      sub\n      swap1\n      revert\n    tag_318:\n        /* \"contracts/Pool/Pool.sol\":32633:32638  false */\n      0x00\n        /* \"contracts/Pool/Pool.sol\":32603:32621  _isExcludedFromFee */\n      0x06\n        /* \"contracts/Pool/Pool.sol\":32603:32630  _isExcludedFromFee[account] */\n      0x00\n        /* \"contracts/Pool/Pool.sol\":32622:32629  account */\n      dup4\n        /* \"contracts/Pool/Pool.sol\":32603:32630  _isExcludedFromFee[account] */\n      0xffffffffffffffffffffffffffffffffffffffff\n      and\n      0xffffffffffffffffffffffffffffffffffffffff\n      and\n      dup2\n      mstore\n      0x20\n      add\n      swap1\n      dup2\n      mstore\n      0x20\n      add\n      0x00\n      keccak256\n      0x00\n        /* \"contracts/Pool/Pool.sol\":32603:32638  _isExcludedFromFee[account] = false */\n      0x0100\n      exp\n      dup2\n      sload\n      dup2\n      0xff\n      mul\n      not\n      and\n      swap1\n      dup4\n      iszero\n      iszero\n      mul\n      or\n      swap1\n      sstore\n      pop\n        /* \"contracts/Pool/Pool.sol\":32537:32645  function includeInFee(address account) public onlyOwner {... */\n      pop\n      jump\t// out\n        /* \"contracts/Pool/Pool.sol\":16529:16769  function transferOwnership(address newOwner) public virtual onlyOwner {... */\n    tag_189:\n        /* \"contracts/Pool/Pool.sol\":15825:15837  _msgSender() */\n      tag_321\n        /* \"contracts/Pool/Pool.sol\":15825:15835  _msgSender */\n      tag_192\n        /* \"contracts/Pool/Pool.sol\":15825:15837  _msgSender() */\n      jump\t// in\n    tag_321:\n        /* \"contracts/Pool/Pool.sol\":15815:15837  _owner == _msgSender() */\n      0xffffffffffffffffffffffffffffffffffffffff\n      and\n        /* \"contracts/Pool/Pool.sol\":15815:15821  _owner */\n      0x00\n      dup1\n      sload\n      swap1\n      0x0100\n      exp\n      swap1\n      div\n      0xffffffffffffffffffffffffffffffffffffffff\n      and\n        /* \"contracts/Pool/Pool.sol\":15815:15837  _owner == _msgSender() */\n      0xffffffffffffffffffffffffffffffffffffffff\n      and\n      eq\n        /* \"contracts/Pool/Pool.sol\":15807:15874  require(_owner == _msgSender(), \"Ownable: caller is not the owner\") */\n      tag_322\n      jumpi\n      mload(0x40)\n      0x08c379a000000000000000000000000000000000000000000000000000000000\n      dup2\n      mstore\n      0x04\n      add\n      dup1\n      dup1\n      0x20\n      add\n      dup3\n      dup2\n      sub\n      dup3\n      mstore\n      0x20\n      dup2\n      mstore\n      0x20\n      add\n      dup1\n      0x4f776e61626c653a2063616c6c6572206973206e6f7420746865206f776e6572\n      dup2\n      mstore\n      pop\n      0x20\n      add\n      swap2\n      pop\n      pop\n      mload(0x40)\n      dup1\n      swap2\n      sub\n      swap1\n      revert\n    tag_322:\n        /* \"contracts/Pool/Pool.sol\":16637:16638  0 */\n      0x00\n        /* \"contracts/Pool/Pool.sol\":16617:16639  newOwner != address(0) */\n      0xffffffffffffffffffffffffffffffffffffffff\n      and\n        /* \"contracts/Pool/Pool.sol\":16617:16625  newOwner */\n      dup2\n        /* \"contracts/Pool/Pool.sol\":16617:16639  newOwner != address(0) */\n      0xffffffffffffffffffffffffffffffffffffffff\n      and\n      eq\n      iszero\n        /* \"contracts/Pool/Pool.sol\":16609:16682  require(newOwner != address(0), \"Ownable: new owner is the zero address\") */\n      tag_324\n      jumpi\n      mload(0x40)\n      0x08c379a000000000000000000000000000000000000000000000000000000000\n      dup2\n      mstore\n      0x04\n      add\n      dup1\n      dup1\n      0x20\n      add\n      dup3\n      dup2\n      sub\n      dup3\n      mstore\n      0x26\n      dup2\n      mstore\n      0x20\n      add\n      dup1\n      data_245f15ff17f551913a7a18385165551503906a406f905ac1c2437281a7cd0cfe\n      0x26\n      swap2\n      codecopy\n      0x40\n      add\n      swap2\n      pop\n      pop\n      mload(0x40)\n      dup1\n      swap2\n      sub\n      swap1\n      revert\n    tag_324:\n        /* \"contracts/Pool/Pool.sol\":16726:16734  newOwner */\n      dup1\n        /* \"contracts/Pool/Pool.sol\":16697:16735  OwnershipTransferred(_owner, newOwner) */\n      0xffffffffffffffffffffffffffffffffffffffff\n      and\n        /* \"contracts/Pool/Pool.sol\":16718:16724  _owner */\n      0x00\n      dup1\n      sload\n      swap1\n      0x0100\n      exp\n      swap1\n      div\n      0xffffffffffffffffffffffffffffffffffffffff\n      and\n        /* \"contracts/Pool/Pool.sol\":16697:16735  OwnershipTransferred(_owner, newOwner) */\n      0xffffffffffffffffffffffffffffffffffffffff\n      and\n      0x8be0079c531659141344cd1fd0a4f28419497f9722a3daafe3b4186f6b6457e0\n      mload(0x40)\n      mload(0x40)\n      dup1\n      swap2\n      sub\n      swap1\n      log3\n        /* \"contracts/Pool/Pool.sol\":16754:16762  newOwner */\n      dup1\n        /* \"contracts/Pool/Pool.sol\":16745:16751  _owner */\n      0x00\n      dup1\n        /* \"contracts/Pool/Pool.sol\":16745:16762  _owner = newOwner */\n      0x0100\n      exp\n      dup2\n      sload\n      dup2\n      0xffffffffffffffffffffffffffffffffffffffff\n      mul\n      not\n      and\n      swap1\n      dup4\n      0xffffffffffffffffffffffffffffffffffffffff\n      and\n      mul\n      or\n      swap1\n      sstore\n      pop\n        /* \"contracts/Pool/Pool.sol\":16529:16769  function transferOwnership(address newOwner) public virtual onlyOwner {... */\n      pop\n      jump\t// out\n        /* \"contracts/Pool/Pool.sol\":8199:8303  function _msgSender() internal view virtual returns (address payable) {... */\n    tag_192:\n        /* \"contracts/Pool/Pool.sol\":8252:8267  address payable */\n      0x00\n        /* \"contracts/Pool/Pool.sol\":8286:8296  msg.sender */\n      caller\n        /* \"contracts/Pool/Pool.sol\":8279:8296  return msg.sender */\n      swap1\n      pop\n        /* \"contracts/Pool/Pool.sol\":8199:8303  function _msgSender() internal view virtual returns (address payable) {... */\n      swap1\n      jump\t// out\n        /* \"contracts/Pool/Pool.sol\":36579:36910  function _approve(address owner, address spender, uint256 amount) private {... */\n    tag_202:\n        /* \"contracts/Pool/Pool.sol\":36688:36689  0 */\n      0x00\n        /* \"contracts/Pool/Pool.sol\":36671:36690  owner != address(0) */\n      0xffffffffffffffffffffffffffffffffffffffff\n      and\n        /* \"contracts/Pool/Pool.sol\":36671:36676  owner */\n      dup4\n        /* \"contracts/Pool/Pool.sol\":36671:36690  owner != address(0) */\n      0xffffffffffffffffffffffffffffffffffffffff\n      and\n      eq\n      iszero\n        /* \"contracts/Pool/Pool.sol\":36663:36731  require(owner != address(0), \"ERC20: approve from the zero address\") */\n      tag_327\n      jumpi\n      mload(0x40)\n      0x08c379a000000000000000000000000000000000000000000000000000000000\n      dup2\n      mstore\n      0x04\n      add\n      dup1\n      dup1\n      0x20\n      add\n      dup3\n      dup2\n      sub\n      dup3\n      mstore\n      0x24\n      dup2\n      mstore\n      0x20\n      add\n      dup1\n      data_c953f4879035ed60e766b34720f656aab5c697b141d924c283124ecedb91c208\n      0x24\n      swap2\n      codecopy\n      0x40\n      add\n      swap2\n      pop\n      pop\n      mload(0x40)\n      dup1\n      swap2\n      sub\n      swap1\n      revert\n    tag_327:\n        /* \"contracts/Pool/Pool.sol\":36768:36769  0 */\n      0x00\n        /* \"contracts/Pool/Pool.sol\":36749:36770  spender != address(0) */\n      0xffffffffffffffffffffffffffffffffffffffff\n      and\n        /* \"contracts/Pool/Pool.sol\":36749:36756  spender */\n      dup3\n        /* \"contracts/Pool/Pool.sol\":36749:36770  spender != address(0) */\n      0xffffffffffffffffffffffffffffffffffffffff\n      and\n      eq\n      iszero\n        /* \"contracts/Pool/Pool.sol\":36741:36809  require(spender != address(0), \"ERC20: approve to the zero address\") */\n      tag_328\n      jumpi\n      mload(0x40)\n      0x08c379a000000000000000000000000000000000000000000000000000000000\n      dup2\n      mstore\n      0x04\n      add\n      dup1\n      dup1\n      0x20\n      add\n      dup3\n      dup2\n      sub\n      dup3\n      mstore\n      0x22\n      dup2\n      mstore\n      0x20\n      add\n      dup1\n      data_24883cc5fe64ace9d0df1893501ecb93c77180f0ff69cca79affb3c316dc8029\n      0x22\n      swap2\n      codecopy\n      0x40\n      add\n      swap2\n      pop\n      pop\n      mload(0x40)\n      dup1\n      swap2\n      sub\n      swap1\n      revert\n    tag_328:\n        /* \"contracts/Pool/Pool.sol\":36850:36856  amount */\n      dup1\n        /* \"contracts/Pool/Pool.sol\":36820:36831  _allowances */\n      0x05\n        /* \"contracts/Pool/Pool.sol\":36820:36838  _allowances[owner] */\n      0x00\n        /* \"contracts/Pool/Pool.sol\":36832:36837  owner */\n      dup6\n        /* \"contracts/Pool/Pool.sol\":36820:36838  _allowances[owner] */\n      0xffffffffffffffffffffffffffffffffffffffff\n      and\n      0xffffffffffffffffffffffffffffffffffffffff\n      and\n      dup2\n      mstore\n      0x20\n      add\n      swap1\n      dup2\n      mstore\n      0x20\n      add\n      0x00\n      keccak256\n        /* \"contracts/Pool/Pool.sol\":36820:36847  _allowances[owner][spender] */\n      0x00\n        /* \"contracts/Pool/Pool.sol\":36839:36846  spender */\n      dup5\n        /* \"contracts/Pool/Pool.sol\":36820:36847  _allowances[owner][spender] */\n      0xffffffffffffffffffffffffffffffffffffffff\n      and\n      0xffffffffffffffffffffffffffffffffffffffff\n      and\n      dup2\n      mstore\n      0x20\n      add\n      swap1\n      dup2\n      mstore\n      0x20\n      add\n      0x00\n      keccak256\n        /* \"contracts/Pool/Pool.sol\":36820:36856  _allowances[owner][spender] = amount */\n      dup2\n      swap1\n      sstore\n      pop\n        /* \"contracts/Pool/Pool.sol\":36887:36894  spender */\n      dup2\n        /* \"contracts/Pool/Pool.sol\":36871:36903  Approval(owner, spender, amount) */\n      0xffffffffffffffffffffffffffffffffffffffff\n      and\n        /* \"contracts/Pool/Pool.sol\":36880:36885  owner */\n      dup4\n        /* \"contracts/Pool/Pool.sol\":36871:36903  Approval(owner, spender, amount) */\n      0xffffffffffffffffffffffffffffffffffffffff\n      and\n      0x8c5be1e5ebec7d5bd14f71427d1e84f3dd0314c0f7b2291e5b200ac8c7c3b925\n        /* \"contracts/Pool/Pool.sol\":36896:36902  amount */\n      dup4\n        /* \"contracts/Pool/Pool.sol\":36871:36903  Approval(owner, spender, amount) */\n      mload(0x40)\n      dup1\n      dup3\n      dup2\n      mstore\n      0x20\n      add\n      swap2\n      pop\n      pop\n      mload(0x40)\n      dup1\n      swap2\n      sub\n      swap1\n      log3\n        /* \"contracts/Pool/Pool.sol\":36579:36910  function _approve(address owner, address spender, uint256 amount) private {... */\n      pop\n      pop\n      pop\n      jump\t// out\n        /* \"contracts/Pool/Pool.sol\":36916:38685  function _transfer(... */\n    tag_207:\n        /* \"contracts/Pool/Pool.sol\":37049:37050  0 */\n      0x00\n        /* \"contracts/Pool/Pool.sol\":37033:37051  from != address(0) */\n      0xffffffffffffffffffffffffffffffffffffffff\n      and\n        /* \"contracts/Pool/Pool.sol\":37033:37037  from */\n      dup4\n        /* \"contracts/Pool/Pool.sol\":37033:37051  from != address(0) */\n      0xffffffffffffffffffffffffffffffffffffffff\n      and\n      eq\n      iszero\n        /* \"contracts/Pool/Pool.sol\":37025:37093  require(from != address(0), \"ERC20: transfer from the zero address\") */\n      tag_330\n      jumpi\n      mload(0x40)\n      0x08c379a000000000000000000000000000000000000000000000000000000000\n      dup2\n      mstore\n      0x04\n      add\n      dup1\n      dup1\n      0x20\n      add\n      dup3\n      dup2\n      sub\n      dup3\n      mstore\n      0x25\n      dup2\n      mstore\n      0x20\n      add\n      dup1\n      data_baecc556b46f4ed0f2b4cb599d60785ac8563dd2dc0a5bf12edea1c39e5e1fea\n      0x25\n      swap2\n      codecopy\n      0x40\n      add\n      swap2\n      pop\n      pop\n      mload(0x40)\n      dup1\n      swap2\n      sub\n      swap1\n      revert\n    tag_330:\n        /* \"contracts/Pool/Pool.sol\":37125:37126  0 */\n      0x00\n        /* \"contracts/Pool/Pool.sol\":37111:37127  to != address(0) */\n      0xffffffffffffffffffffffffffffffffffffffff\n      and\n        /* \"contracts/Pool/Pool.sol\":37111:37113  to */\n      dup3\n        /* \"contracts/Pool/Pool.sol\":37111:37127  to != address(0) */\n      0xffffffffffffffffffffffffffffffffffffffff\n      and\n      eq\n      iszero\n        /* \"contracts/Pool/Pool.sol\":37103:37167  require(to != address(0), \"ERC20: transfer to the zero address\") */\n      tag_331\n      jumpi\n      mload(0x40)\n      0x08c379a000000000000000000000000000000000000000000000000000000000\n      dup2\n      mstore\n      0x04\n      add\n      dup1\n      dup1\n      0x20\n      add\n      dup3\n      dup2\n      sub\n      dup3\n      mstore\n      0x23\n      dup2\n      mstore\n      0x20\n      add\n      dup1\n      data_0557e210f7a69a685100a7e4e3d0a7024c546085cee28910fd17d0b081d9516f\n      0x23\n      swap2\n      codecopy\n      0x40\n      add\n      swap2\n      pop\n      pop\n      mload(0x40)\n      dup1\n      swap2\n      sub\n      swap1\n      revert\n    tag_331:\n        /* \"contracts/Pool/Pool.sol\":37194:37195  0 */\n      0x00\n        /* \"contracts/Pool/Pool.sol\":37185:37191  amount */\n      dup2\n        /* \"contracts/Pool/Pool.sol\":37185:37195  amount > 0 */\n      gt\n        /* \"contracts/Pool/Pool.sol\":37177:37241  require(amount > 0, \"Transfer amount must be greater than zero\") */\n      tag_332\n      jumpi\n      mload(0x40)\n      0x08c379a000000000000000000000000000000000000000000000000000000000\n      dup2\n      mstore\n      0x04\n      add\n      dup1\n      dup1\n      0x20\n      add\n      dup3\n      dup2\n      sub\n      dup3\n      mstore\n      0x29\n      dup2\n      mstore\n      0x20\n      add\n      dup1\n      data_9edb5ab58321f35d2386ea65721c9b107daa2c273610fc16d394af2a320ba785\n      0x29\n      swap2\n      codecopy\n      0x40\n      add\n      swap2\n      pop\n      pop\n      mload(0x40)\n      dup1\n      swap2\n      sub\n      swap1\n      revert\n    tag_332:\n        /* \"contracts/Pool/Pool.sol\":37262:37269  owner() */\n      tag_333\n        /* \"contracts/Pool/Pool.sol\":37262:37267  owner */\n      tag_140\n        /* \"contracts/Pool/Pool.sol\":37262:37269  owner() */\n      jump\t// in\n    tag_333:\n        /* \"contracts/Pool/Pool.sol\":37254:37269  from != owner() */\n      0xffffffffffffffffffffffffffffffffffffffff\n      and\n        /* \"contracts/Pool/Pool.sol\":37254:37258  from */\n      dup4\n        /* \"contracts/Pool/Pool.sol\":37254:37269  from != owner() */\n      0xffffffffffffffffffffffffffffffffffffffff\n      and\n      eq\n      iszero\n        /* \"contracts/Pool/Pool.sol\":37254:37286  from != owner() && to != owner() */\n      dup1\n      iszero\n      tag_334\n      jumpi\n      pop\n        /* \"contracts/Pool/Pool.sol\":37279:37286  owner() */\n      tag_335\n        /* \"contracts/Pool/Pool.sol\":37279:37284  owner */\n      tag_140\n        /* \"contracts/Pool/Pool.sol\":37279:37286  owner() */\n      jump\t// in\n    tag_335:\n        /* \"contracts/Pool/Pool.sol\":37273:37286  to != owner() */\n      0xffffffffffffffffffffffffffffffffffffffff\n      and\n        /* \"contracts/Pool/Pool.sol\":37273:37275  to */\n      dup3\n        /* \"contracts/Pool/Pool.sol\":37273:37286  to != owner() */\n      0xffffffffffffffffffffffffffffffffffffffff\n      and\n      eq\n      iszero\n        /* \"contracts/Pool/Pool.sol\":37254:37286  from != owner() && to != owner() */\n    tag_334:\n        /* \"contracts/Pool/Pool.sol\":37251:37375  if(from != owner() && to != owner())... */\n      iszero\n      tag_336\n      jumpi\n        /* \"contracts/Pool/Pool.sol\":37318:37330  _maxTxAmount */\n      sload(0x14)\n        /* \"contracts/Pool/Pool.sol\":37308:37314  amount */\n      dup2\n        /* \"contracts/Pool/Pool.sol\":37308:37330  amount <= _maxTxAmount */\n      gt\n      iszero\n        /* \"contracts/Pool/Pool.sol\":37300:37375  require(amount <= _maxTxAmount, \"Transfer amount exceeds the maxTxAmount.\") */\n      tag_337\n      jumpi\n      mload(0x40)\n      0x08c379a000000000000000000000000000000000000000000000000000000000\n      dup2\n      mstore\n      0x04\n      add\n      dup1\n      dup1\n      0x20\n      add\n      dup3\n      dup2\n      sub\n      dup3\n      mstore\n      0x28\n      dup2\n      mstore\n      0x20\n      add\n      dup1\n      data_72052210969ce5fd88e52b5e685de9548acef9bb1b6d02e29c1765d0674948dd\n      0x28\n      swap2\n      codecopy\n      0x40\n      add\n      swap2\n      pop\n      pop\n      mload(0x40)\n      dup1\n      swap2\n      sub\n      swap1\n      revert\n    tag_337:\n        /* \"contracts/Pool/Pool.sol\":37251:37375  if(from != owner() && to != owner())... */\n    tag_336:\n        /* \"contracts/Pool/Pool.sol\":37664:37692  uint256 contractTokenBalance */\n      0x00\n        /* \"contracts/Pool/Pool.sol\":37695:37719  balanceOf(address(this)) */\n      tag_338\n        /* \"contracts/Pool/Pool.sol\":37713:37717  this */\n      address\n        /* \"contracts/Pool/Pool.sol\":37695:37704  balanceOf */\n      tag_127\n        /* \"contracts/Pool/Pool.sol\":37695:37719  balanceOf(address(this)) */\n      jump\t// in\n    tag_338:\n        /* \"contracts/Pool/Pool.sol\":37664:37719  uint256 contractTokenBalance = balanceOf(address(this)) */\n      swap1\n      pop\n        /* \"contracts/Pool/Pool.sol\":37765:37777  _maxTxAmount */\n      sload(0x14)\n        /* \"contracts/Pool/Pool.sol\":37741:37761  contractTokenBalance */\n      dup2\n        /* \"contracts/Pool/Pool.sol\":37741:37777  contractTokenBalance >= _maxTxAmount */\n      lt\n        /* \"contracts/Pool/Pool.sol\":37738:37847  if(contractTokenBalance >= _maxTxAmount)... */\n      tag_339\n      jumpi\n        /* \"contracts/Pool/Pool.sol\":37824:37836  _maxTxAmount */\n      sload(0x14)\n        /* \"contracts/Pool/Pool.sol\":37801:37836  contractTokenBalance = _maxTxAmount */\n      swap1\n      pop\n        /* \"contracts/Pool/Pool.sol\":37738:37847  if(contractTokenBalance >= _maxTxAmount)... */\n    tag_339:\n        /* \"contracts/Pool/Pool.sol\":37865:37889  bool overMinTokenBalance */\n      0x00\n        /* \"contracts/Pool/Pool.sol\":37916:37945  numTokensSellToAddToLiquidity */\n      sload(0x15)\n        /* \"contracts/Pool/Pool.sol\":37892:37912  contractTokenBalance */\n      dup3\n        /* \"contracts/Pool/Pool.sol\":37892:37945  contractTokenBalance >= numTokensSellToAddToLiquidity */\n      lt\n      iszero\n        /* \"contracts/Pool/Pool.sol\":37865:37945  bool overMinTokenBalance = contractTokenBalance >= numTokensSellToAddToLiquidity */\n      swap1\n      pop\n        /* \"contracts/Pool/Pool.sol\":37972:37991  overMinTokenBalance */\n      dup1\n        /* \"contracts/Pool/Pool.sol\":37972:38024  overMinTokenBalance &&... */\n      dup1\n      iszero\n      tag_340\n      jumpi\n      pop\n        /* \"contracts/Pool/Pool.sol\":38008:38024  inSwapAndLiquify */\n      0x13\n      0x00\n      swap1\n      sload\n      swap1\n      0x0100\n      exp\n      swap1\n      div\n      0xff\n      and\n        /* \"contracts/Pool/Pool.sol\":38007:38024  !inSwapAndLiquify */\n      iszero\n        /* \"contracts/Pool/Pool.sol\":37972:38024  overMinTokenBalance &&... */\n    tag_340:\n        /* \"contracts/Pool/Pool.sol\":37972:38061  overMinTokenBalance &&... */\n      dup1\n      iszero\n      tag_341\n      jumpi\n      pop\n        /* \"contracts/Pool/Pool.sol\":38048:38061  uniswapV2Pair */\n      immutable(\"0x3420243e987a0dddfaa7d77b227cced5f6bc741ff3ff5461051f619ef3b8b7b2\")\n        /* \"contracts/Pool/Pool.sol\":38040:38061  from != uniswapV2Pair */\n      0xffffffffffffffffffffffffffffffffffffffff\n      and\n        /* \"contracts/Pool/Pool.sol\":38040:38044  from */\n      dup6\n        /* \"contracts/Pool/Pool.sol\":38040:38061  from != uniswapV2Pair */\n      0xffffffffffffffffffffffffffffffffffffffff\n      and\n      eq\n      iszero\n        /* \"contracts/Pool/Pool.sol\":37972:38061  overMinTokenBalance &&... */\n    tag_341:\n        /* \"contracts/Pool/Pool.sol\":37972:38098  overMinTokenBalance &&... */\n      dup1\n      iszero\n      tag_342\n      jumpi\n      pop\n        /* \"contracts/Pool/Pool.sol\":38077:38098  swapAndLiquifyEnabled */\n      0x13\n      0x01\n      swap1\n      sload\n      swap1\n      0x0100\n      exp\n      swap1\n      div\n      0xff\n      and\n        /* \"contracts/Pool/Pool.sol\":37972:38098  overMinTokenBalance &&... */\n    tag_342:\n        /* \"contracts/Pool/Pool.sol\":37955:38264  if (... */\n      iszero\n      tag_343\n      jumpi\n        /* \"contracts/Pool/Pool.sol\":38146:38175  numTokensSellToAddToLiquidity */\n      sload(0x15)\n        /* \"contracts/Pool/Pool.sol\":38123:38175  contractTokenBalance = numTokensSellToAddToLiquidity */\n      swap2\n      pop\n        /* \"contracts/Pool/Pool.sol\":38217:38253  swapAndLiquify(contractTokenBalance) */\n      tag_344\n        /* \"contracts/Pool/Pool.sol\":38232:38252  contractTokenBalance */\n      dup3\n        /* \"contracts/Pool/Pool.sol\":38217:38231  swapAndLiquify */\n      tag_345\n        /* \"contracts/Pool/Pool.sol\":38217:38253  swapAndLiquify(contractTokenBalance) */\n      jump\t// in\n    tag_344:\n        /* \"contracts/Pool/Pool.sol\":37955:38264  if (... */\n    tag_343:\n        /* \"contracts/Pool/Pool.sol\":38342:38354  bool takeFee */\n      0x00\n        /* \"contracts/Pool/Pool.sol\":38357:38361  true */\n      0x01\n        /* \"contracts/Pool/Pool.sol\":38342:38361  bool takeFee = true */\n      swap1\n      pop\n        /* \"contracts/Pool/Pool.sol\":38466:38484  _isExcludedFromFee */\n      0x06\n        /* \"contracts/Pool/Pool.sol\":38466:38490  _isExcludedFromFee[from] */\n      0x00\n        /* \"contracts/Pool/Pool.sol\":38485:38489  from */\n      dup8\n        /* \"contracts/Pool/Pool.sol\":38466:38490  _isExcludedFromFee[from] */\n      0xffffffffffffffffffffffffffffffffffffffff\n      and\n      0xffffffffffffffffffffffffffffffffffffffff\n      and\n      dup2\n      mstore\n      0x20\n      add\n      swap1\n      dup2\n      mstore\n      0x20\n      add\n      0x00\n      keccak256\n      0x00\n      swap1\n      sload\n      swap1\n      0x0100\n      exp\n      swap1\n      div\n      0xff\n      and\n        /* \"contracts/Pool/Pool.sol\":38466:38516  _isExcludedFromFee[from] || _isExcludedFromFee[to] */\n      dup1\n      tag_346\n      jumpi\n      pop\n        /* \"contracts/Pool/Pool.sol\":38494:38512  _isExcludedFromFee */\n      0x06\n        /* \"contracts/Pool/Pool.sol\":38494:38516  _isExcludedFromFee[to] */\n      0x00\n        /* \"contracts/Pool/Pool.sol\":38513:38515  to */\n      dup7\n        /* \"contracts/Pool/Pool.sol\":38494:38516  _isExcludedFromFee[to] */\n      0xffffffffffffffffffffffffffffffffffffffff\n      and\n      0xffffffffffffffffffffffffffffffffffffffff\n      and\n      dup2\n      mstore\n      0x20\n      add\n      swap1\n      dup2\n      mstore\n      0x20\n      add\n      0x00\n      keccak256\n      0x00\n      swap1\n      sload\n      swap1\n      0x0100\n      exp\n      swap1\n      div\n      0xff\n      and\n        /* \"contracts/Pool/Pool.sol\":38466:38516  _isExcludedFromFee[from] || _isExcludedFromFee[to] */\n    tag_346:\n        /* \"contracts/Pool/Pool.sol\":38463:38557  if(_isExcludedFromFee[from] || _isExcludedFromFee[to]){... */\n      iszero\n      tag_347\n      jumpi\n        /* \"contracts/Pool/Pool.sol\":38541:38546  false */\n      0x00\n        /* \"contracts/Pool/Pool.sol\":38531:38546  takeFee = false */\n      swap1\n      pop\n        /* \"contracts/Pool/Pool.sol\":38463:38557  if(_isExcludedFromFee[from] || _isExcludedFromFee[to]){... */\n    tag_347:\n        /* \"contracts/Pool/Pool.sol\":38640:38678  _tokenTransfer(from,to,amount,takeFee) */\n      tag_348\n        /* \"contracts/Pool/Pool.sol\":38655:38659  from */\n      dup7\n        /* \"contracts/Pool/Pool.sol\":38660:38662  to */\n      dup7\n        /* \"contracts/Pool/Pool.sol\":38663:38669  amount */\n      dup7\n        /* \"contracts/Pool/Pool.sol\":38670:38677  takeFee */\n      dup5\n        /* \"contracts/Pool/Pool.sol\":38640:38654  _tokenTransfer */\n      tag_349\n        /* \"contracts/Pool/Pool.sol\":38640:38678  _tokenTransfer(from,to,amount,takeFee) */\n      jump\t// in\n    tag_348:\n        /* \"contracts/Pool/Pool.sol\":36916:38685  function _transfer(... */\n      pop\n      pop\n      pop\n      pop\n      pop\n      pop\n      jump\t// out\n        /* \"contracts/Pool/Pool.sol\":4711:4898  function sub(uint256 a, uint256 b, string memory errorMessage) internal pure returns (uint256) {... */\n    tag_212:\n        /* \"contracts/Pool/Pool.sol\":4797:4804  uint256 */\n      0x00\n        /* \"contracts/Pool/Pool.sol\":4829:4830  a */\n      dup4\n        /* \"contracts/Pool/Pool.sol\":4824:4825  b */\n      dup4\n        /* \"contracts/Pool/Pool.sol\":4824:4830  b <= a */\n      gt\n      iszero\n        /* \"contracts/Pool/Pool.sol\":4832:4844  errorMessage */\n      dup3\n        /* \"contracts/Pool/Pool.sol\":4816:4845  require(b <= a, errorMessage) */\n      swap1\n      tag_351\n      jumpi\n      mload(0x40)\n      0x08c379a000000000000000000000000000000000000000000000000000000000\n      dup2\n      mstore\n      0x04\n      add\n      dup1\n      dup1\n      0x20\n      add\n      dup3\n      dup2\n      sub\n      dup3\n      mstore\n      dup4\n      dup2\n      dup2\n      mload\n      dup2\n      mstore\n      0x20\n      add\n      swap2\n      pop\n      dup1\n      mload\n      swap1\n      0x20\n      add\n      swap1\n      dup1\n      dup4\n      dup4\n      0x00\n    tag_352:\n      dup4\n      dup2\n      lt\n      iszero\n      tag_354\n      jumpi\n      dup1\n      dup3\n      add\n      mload\n      dup2\n      dup5\n      add\n      mstore\n      0x20\n      dup2\n      add\n      swap1\n      pop\n      jump(tag_352)\n    tag_354:\n      pop\n      pop\n      pop\n      pop\n      swap1\n      pop\n      swap1\n      dup2\n      add\n      swap1\n      0x1f\n      and\n      dup1\n      iszero\n      tag_355\n      jumpi\n      dup1\n      dup3\n      sub\n      dup1\n      mload\n      0x01\n      dup4\n      0x20\n      sub\n      0x0100\n      exp\n      sub\n      not\n      and\n      dup2\n      mstore\n      0x20\n      add\n      swap2\n      pop\n    tag_355:\n      pop\n      swap3\n      pop\n      pop\n      pop\n      mload(0x40)\n      dup1\n      swap2\n      sub\n      swap1\n      revert\n    tag_351:\n      pop\n        /* \"contracts/Pool/Pool.sol\":4855:4864  uint256 c */\n      0x00\n        /* \"contracts/Pool/Pool.sol\":4871:4872  b */\n      dup4\n        /* \"contracts/Pool/Pool.sol\":4867:4868  a */\n      dup6\n        /* \"contracts/Pool/Pool.sol\":4867:4872  a - b */\n      sub\n        /* \"contracts/Pool/Pool.sol\":4855:4872  uint256 c = a - b */\n      swap1\n      pop\n        /* \"contracts/Pool/Pool.sol\":4890:4891  c */\n      dup1\n        /* \"contracts/Pool/Pool.sol\":4883:4891  return c */\n      swap2\n      pop\n      pop\n        /* \"contracts/Pool/Pool.sol\":4711:4898  function sub(uint256 a, uint256 b, string memory errorMessage) internal pure returns (uint256) {... */\n      swap4\n      swap3\n      pop\n      pop\n      pop\n      jump\t// out\n        /* \"contracts/Pool/Pool.sol\":34654:34814  function _getRate() private view returns(uint256) {... */\n    tag_216:\n        /* \"contracts/Pool/Pool.sol\":34695:34702  uint256 */\n      0x00\n        /* \"contracts/Pool/Pool.sol\":34715:34730  uint256 rSupply */\n      dup1\n        /* \"contracts/Pool/Pool.sol\":34732:34747  uint256 tSupply */\n      0x00\n        /* \"contracts/Pool/Pool.sol\":34751:34770  _getCurrentSupply() */\n      tag_357\n        /* \"contracts/Pool/Pool.sol\":34751:34768  _getCurrentSupply */\n      tag_358\n        /* \"contracts/Pool/Pool.sol\":34751:34770  _getCurrentSupply() */\n      jump\t// in\n    tag_357:\n        /* \"contracts/Pool/Pool.sol\":34714:34770  (uint256 rSupply, uint256 tSupply) = _getCurrentSupply() */\n      swap2\n      pop\n      swap2\n      pop\n        /* \"contracts/Pool/Pool.sol\":34787:34807  rSupply.div(tSupply) */\n      tag_359\n        /* \"contracts/Pool/Pool.sol\":34799:34806  tSupply */\n      dup2\n        /* \"contracts/Pool/Pool.sol\":34787:34794  rSupply */\n      dup4\n        /* \"contracts/Pool/Pool.sol\":34787:34798  rSupply.div */\n      tag_218\n      swap1\n        /* \"contracts/Pool/Pool.sol\":34787:34807  rSupply.div(tSupply) */\n      swap2\n      swap1\n      0xffffffff\n      and\n      jump\t// in\n    tag_359:\n        /* \"contracts/Pool/Pool.sol\":34780:34807  return rSupply.div(tSupply) */\n      swap3\n      pop\n      pop\n      pop\n        /* \"contracts/Pool/Pool.sol\":34654:34814  function _getRate() private view returns(uint256) {... */\n      swap1\n      jump\t// out\n        /* \"contracts/Pool/Pool.sol\":6066:6196  function div(uint256 a, uint256 b) internal pure returns (uint256) {... */\n    tag_218:\n        /* \"contracts/Pool/Pool.sol\":6124:6131  uint256 */\n      0x00\n        /* \"contracts/Pool/Pool.sol\":6150:6189  div(a, b, \"SafeMath: division by zero\") */\n      tag_361\n        /* \"contracts/Pool/Pool.sol\":6154:6155  a */\n      dup4\n        /* \"contracts/Pool/Pool.sol\":6157:6158  b */\n      dup4\n        /* \"contracts/Pool/Pool.sol\":6150:6189  div(a, b, \"SafeMath: division by zero\") */\n      mload(0x40)\n      dup1\n      0x40\n      add\n      0x40\n      mstore\n      dup1\n      0x1a\n      dup2\n      mstore\n      0x20\n      add\n      0x536166654d6174683a206469766973696f6e206279207a65726f000000000000\n      dup2\n      mstore\n      pop\n        /* \"contracts/Pool/Pool.sol\":6150:6153  div */\n      tag_362\n        /* \"contracts/Pool/Pool.sol\":6150:6189  div(a, b, \"SafeMath: division by zero\") */\n      jump\t// in\n    tag_361:\n        /* \"contracts/Pool/Pool.sol\":6143:6189  return div(a, b, \"SafeMath: division by zero\") */\n      swap1\n      pop\n        /* \"contracts/Pool/Pool.sol\":6066:6196  function div(uint256 a, uint256 b) internal pure returns (uint256) {... */\n      swap3\n      swap2\n      pop\n      pop\n      jump\t// out\n        /* \"contracts/Pool/Pool.sol\":3839:4015  function add(uint256 a, uint256 b) internal pure returns (uint256) {... */\n    tag_242:\n        /* \"contracts/Pool/Pool.sol\":3897:3904  uint256 */\n      0x00\n        /* \"contracts/Pool/Pool.sol\":3916:3925  uint256 c */\n      dup1\n        /* \"contracts/Pool/Pool.sol\":3932:3933  b */\n      dup3\n        /* \"contracts/Pool/Pool.sol\":3928:3929  a */\n      dup5\n        /* \"contracts/Pool/Pool.sol\":3928:3933  a + b */\n      add\n        /* \"contracts/Pool/Pool.sol\":3916:3933  uint256 c = a + b */\n      swap1\n      pop\n        /* \"contracts/Pool/Pool.sol\":3956:3957  a */\n      dup4\n        /* \"contracts/Pool/Pool.sol\":3951:3952  c */\n      dup2\n        /* \"contracts/Pool/Pool.sol\":3951:3957  c >= a */\n      lt\n      iszero\n        /* \"contracts/Pool/Pool.sol\":3943:3989  require(c >= a, \"SafeMath: addition overflow\") */\n      tag_364\n      jumpi\n      mload(0x40)\n      0x08c379a000000000000000000000000000000000000000000000000000000000\n      dup2\n      mstore\n      0x04\n      add\n      dup1\n      dup1\n      0x20\n      add\n      dup3\n      dup2\n      sub\n      dup3\n      mstore\n      0x1b\n      dup2\n      mstore\n      0x20\n      add\n      dup1\n      0x536166654d6174683a206164646974696f6e206f766572666c6f770000000000\n      dup2\n      mstore\n      pop\n      0x20\n      add\n      swap2\n      pop\n      pop\n      mload(0x40)\n      dup1\n      swap2\n      sub\n      swap1\n      revert\n    tag_364:\n        /* \"contracts/Pool/Pool.sol\":4007:4008  c */\n      dup1\n        /* \"contracts/Pool/Pool.sol\":4000:4008  return c */\n      swap2\n      pop\n      pop\n        /* \"contracts/Pool/Pool.sol\":3839:4015  function add(uint256 a, uint256 b) internal pure returns (uint256) {... */\n      swap3\n      swap2\n      pop\n      pop\n      jump\t// out\n        /* \"contracts/Pool/Pool.sol\":33473:33888  function _getValues(uint256 tAmount) private view returns (uint256, uint256, uint256, uint256, uint256, uint256) {... */\n    tag_247:\n        /* \"contracts/Pool/Pool.sol\":33532:33539  uint256 */\n      0x00\n        /* \"contracts/Pool/Pool.sol\":33541:33548  uint256 */\n      dup1\n        /* \"contracts/Pool/Pool.sol\":33550:33557  uint256 */\n      0x00\n        /* \"contracts/Pool/Pool.sol\":33559:33566  uint256 */\n      dup1\n        /* \"contracts/Pool/Pool.sol\":33568:33575  uint256 */\n      0x00\n        /* \"contracts/Pool/Pool.sol\":33577:33584  uint256 */\n      dup1\n        /* \"contracts/Pool/Pool.sol\":33597:33620  uint256 tTransferAmount */\n      0x00\n        /* \"contracts/Pool/Pool.sol\":33622:33634  uint256 tFee */\n      dup1\n        /* \"contracts/Pool/Pool.sol\":33636:33654  uint256 tLiquidity */\n      0x00\n        /* \"contracts/Pool/Pool.sol\":33658:33678  _getTValues(tAmount) */\n      tag_366\n        /* \"contracts/Pool/Pool.sol\":33670:33677  tAmount */\n      dup11\n        /* \"contracts/Pool/Pool.sol\":33658:33669  _getTValues */\n      tag_367\n        /* \"contracts/Pool/Pool.sol\":33658:33678  _getTValues(tAmount) */\n      jump\t// in\n    tag_366:\n        /* \"contracts/Pool/Pool.sol\":33596:33678  (uint256 tTransferAmount, uint256 tFee, uint256 tLiquidity) = _getTValues(tAmount) */\n      swap3\n      pop\n      swap3\n      pop\n      swap3\n      pop\n        /* \"contracts/Pool/Pool.sol\":33689:33704  uint256 rAmount */\n      0x00\n        /* \"contracts/Pool/Pool.sol\":33706:33729  uint256 rTransferAmount */\n      dup1\n        /* \"contracts/Pool/Pool.sol\":33731:33743  uint256 rFee */\n      0x00\n        /* \"contracts/Pool/Pool.sol\":33747:33797  _getRValues(tAmount, tFee, tLiquidity, _getRate()) */\n      tag_368\n        /* \"contracts/Pool/Pool.sol\":33759:33766  tAmount */\n      dup14\n        /* \"contracts/Pool/Pool.sol\":33768:33772  tFee */\n      dup7\n        /* \"contracts/Pool/Pool.sol\":33774:33784  tLiquidity */\n      dup7\n        /* \"contracts/Pool/Pool.sol\":33786:33796  _getRate() */\n      tag_369\n        /* \"contracts/Pool/Pool.sol\":33786:33794  _getRate */\n      tag_216\n        /* \"contracts/Pool/Pool.sol\":33786:33796  _getRate() */\n      jump\t// in\n    tag_369:\n        /* \"contracts/Pool/Pool.sol\":33747:33758  _getRValues */\n      tag_370\n        /* \"contracts/Pool/Pool.sol\":33747:33797  _getRValues(tAmount, tFee, tLiquidity, _getRate()) */\n      jump\t// in\n    tag_368:\n        /* \"contracts/Pool/Pool.sol\":33688:33797  (uint256 rAmount, uint256 rTransferAmount, uint256 rFee) = _getRValues(tAmount, tFee, tLiquidity, _getRate()) */\n      swap3\n      pop\n      swap3\n      pop\n      swap3\n      pop\n        /* \"contracts/Pool/Pool.sol\":33815:33822  rAmount */\n      dup3\n        /* \"contracts/Pool/Pool.sol\":33824:33839  rTransferAmount */\n      dup3\n        /* \"contracts/Pool/Pool.sol\":33841:33845  rFee */\n      dup3\n        /* \"contracts/Pool/Pool.sol\":33847:33862  tTransferAmount */\n      dup9\n        /* \"contracts/Pool/Pool.sol\":33864:33868  tFee */\n      dup9\n        /* \"contracts/Pool/Pool.sol\":33870:33880  tLiquidity */\n      dup9\n        /* \"contracts/Pool/Pool.sol\":33807:33881  return (rAmount, rTransferAmount, rFee, tTransferAmount, tFee, tLiquidity) */\n      swap12\n      pop\n      swap12\n      pop\n      swap12\n      pop\n      swap12\n      pop\n      swap12\n      pop\n      swap12\n      pop\n      pop\n      pop\n      pop\n      pop\n      pop\n      pop\n        /* \"contracts/Pool/Pool.sol\":33473:33888  function _getValues(uint256 tAmount) private view returns (uint256, uint256, uint256, uint256, uint256, uint256) {... */\n      swap2\n      swap4\n      swap6\n      pop\n      swap2\n      swap4\n      swap6\n      jump\t// out\n        /* \"contracts/Pool/Pool.sol\":4286:4420  function sub(uint256 a, uint256 b) internal pure returns (uint256) {... */\n    tag_249:\n        /* \"contracts/Pool/Pool.sol\":4344:4351  uint256 */\n      0x00\n        /* \"contracts/Pool/Pool.sol\":4370:4413  sub(a, b, \"SafeMath: subtraction overflow\") */\n      tag_372\n        /* \"contracts/Pool/Pool.sol\":4374:4375  a */\n      dup4\n        /* \"contracts/Pool/Pool.sol\":4377:4378  b */\n      dup4\n        /* \"contracts/Pool/Pool.sol\":4370:4413  sub(a, b, \"SafeMath: subtraction overflow\") */\n      mload(0x40)\n      dup1\n      0x40\n      add\n      0x40\n      mstore\n      dup1\n      0x1e\n      dup2\n      mstore\n      0x20\n      add\n      0x536166654d6174683a207375627472616374696f6e206f766572666c6f770000\n      dup2\n      mstore\n      pop\n        /* \"contracts/Pool/Pool.sol\":4370:4373  sub */\n      tag_212\n        /* \"contracts/Pool/Pool.sol\":4370:4413  sub(a, b, \"SafeMath: subtraction overflow\") */\n      jump\t// in\n    tag_372:\n        /* \"contracts/Pool/Pool.sol\":4363:4413  return sub(a, b, \"SafeMath: subtraction overflow\") */\n      swap1\n      pop\n        /* \"contracts/Pool/Pool.sol\":4286:4420  function sub(uint256 a, uint256 b) internal pure returns (uint256) {... */\n      swap3\n      swap2\n      pop\n      pop\n      jump\t// out\n        /* \"contracts/Pool/Pool.sol\":5145:5604  function mul(uint256 a, uint256 b) internal pure returns (uint256) {... */\n    tag_310:\n        /* \"contracts/Pool/Pool.sol\":5203:5210  uint256 */\n      0x00\n        /* \"contracts/Pool/Pool.sol\":5449:5450  0 */\n      dup1\n        /* \"contracts/Pool/Pool.sol\":5444:5445  a */\n      dup4\n        /* \"contracts/Pool/Pool.sol\":5444:5450  a == 0 */\n      eq\n        /* \"contracts/Pool/Pool.sol\":5440:5485  if (a == 0) {... */\n      iszero\n      tag_374\n      jumpi\n        /* \"contracts/Pool/Pool.sol\":5473:5474  0 */\n      0x00\n        /* \"contracts/Pool/Pool.sol\":5466:5474  return 0 */\n      swap1\n      pop\n      jump(tag_373)\n        /* \"contracts/Pool/Pool.sol\":5440:5485  if (a == 0) {... */\n    tag_374:\n        /* \"contracts/Pool/Pool.sol\":5495:5504  uint256 c */\n      0x00\n        /* \"contracts/Pool/Pool.sol\":5511:5512  b */\n      dup3\n        /* \"contracts/Pool/Pool.sol\":5507:5508  a */\n      dup5\n        /* \"contracts/Pool/Pool.sol\":5507:5512  a * b */\n      mul\n        /* \"contracts/Pool/Pool.sol\":5495:5512  uint256 c = a * b */\n      swap1\n      pop\n        /* \"contracts/Pool/Pool.sol\":5539:5540  b */\n      dup3\n        /* \"contracts/Pool/Pool.sol\":5534:5535  a */\n      dup5\n        /* \"contracts/Pool/Pool.sol\":5530:5531  c */\n      dup3\n        /* \"contracts/Pool/Pool.sol\":5530:5535  c / a */\n      dup2\n      tag_375\n      jumpi\n      invalid\n    tag_375:\n      div\n        /* \"contracts/Pool/Pool.sol\":5530:5540  c / a == b */\n      eq\n        /* \"contracts/Pool/Pool.sol\":5522:5578  require(c / a == b, \"SafeMath: multiplication overflow\") */\n      tag_376\n      jumpi\n      mload(0x40)\n      0x08c379a000000000000000000000000000000000000000000000000000000000\n      dup2\n      mstore\n      0x04\n      add\n      dup1\n      dup1\n      0x20\n      add\n      dup3\n      dup2\n      sub\n      dup3\n      mstore\n      0x21\n      dup2\n      mstore\n      0x20\n      add\n      dup1\n      data_9113bb53c2876a3805b2c9242029423fc540a728243ce887ab24c82cf119fba3\n      0x21\n      swap2\n      codecopy\n      0x40\n      add\n      swap2\n      pop\n      pop\n      mload(0x40)\n      dup1\n      swap2\n      sub\n      swap1\n      revert\n    tag_376:\n        /* \"contracts/Pool/Pool.sol\":5596:5597  c */\n      dup1\n        /* \"contracts/Pool/Pool.sol\":5589:5597  return c */\n      swap2\n      pop\n      pop\n        /* \"contracts/Pool/Pool.sol\":5145:5604  function mul(uint256 a, uint256 b) internal pure returns (uint256) {... */\n    tag_373:\n      swap3\n      swap2\n      pop\n      pop\n      jump\t// out\n        /* \"contracts/Pool/Pool.sol\":38691:39655  function swapAndLiquify(uint256 contractTokenBalance) private lockTheSwap {... */\n    tag_345:\n        /* \"contracts/Pool/Pool.sol\":26951:26955  true */\n      0x01\n        /* \"contracts/Pool/Pool.sol\":26932:26948  inSwapAndLiquify */\n      0x13\n      0x00\n        /* \"contracts/Pool/Pool.sol\":26932:26955  inSwapAndLiquify = true */\n      0x0100\n      exp\n      dup2\n      sload\n      dup2\n      0xff\n      mul\n      not\n      and\n      swap1\n      dup4\n      iszero\n      iszero\n      mul\n      or\n      swap1\n      sstore\n      pop\n        /* \"contracts/Pool/Pool.sol\":38825:38837  uint256 half */\n      0x00\n        /* \"contracts/Pool/Pool.sol\":38840:38867  contractTokenBalance.div(2) */\n      tag_379\n        /* \"contracts/Pool/Pool.sol\":38865:38866  2 */\n      0x02\n        /* \"contracts/Pool/Pool.sol\":38840:38860  contractTokenBalance */\n      dup4\n        /* \"contracts/Pool/Pool.sol\":38840:38864  contractTokenBalance.div */\n      tag_218\n      swap1\n        /* \"contracts/Pool/Pool.sol\":38840:38867  contractTokenBalance.div(2) */\n      swap2\n      swap1\n      0xffffffff\n      and\n      jump\t// in\n    tag_379:\n        /* \"contracts/Pool/Pool.sol\":38825:38867  uint256 half = contractTokenBalance.div(2) */\n      swap1\n      pop\n        /* \"contracts/Pool/Pool.sol\":38877:38894  uint256 otherHalf */\n      0x00\n        /* \"contracts/Pool/Pool.sol\":38897:38927  contractTokenBalance.sub(half) */\n      tag_380\n        /* \"contracts/Pool/Pool.sol\":38922:38926  half */\n      dup3\n        /* \"contracts/Pool/Pool.sol\":38897:38917  contractTokenBalance */\n      dup5\n        /* \"contracts/Pool/Pool.sol\":38897:38921  contractTokenBalance.sub */\n      tag_249\n      swap1\n        /* \"contracts/Pool/Pool.sol\":38897:38927  contractTokenBalance.sub(half) */\n      swap2\n      swap1\n      0xffffffff\n      and\n      jump\t// in\n    tag_380:\n        /* \"contracts/Pool/Pool.sol\":38877:38927  uint256 otherHalf = contractTokenBalance.sub(half) */\n      swap1\n      pop\n        /* \"contracts/Pool/Pool.sol\":39199:39221  uint256 initialBalance */\n      0x00\n        /* \"contracts/Pool/Pool.sol\":39224:39245  address(this).balance */\n      selfbalance\n        /* \"contracts/Pool/Pool.sol\":39199:39245  uint256 initialBalance = address(this).balance */\n      swap1\n      pop\n        /* \"contracts/Pool/Pool.sol\":39287:39309  swapTokensForEth(half) */\n      tag_381\n        /* \"contracts/Pool/Pool.sol\":39304:39308  half */\n      dup4\n        /* \"contracts/Pool/Pool.sol\":39287:39303  swapTokensForEth */\n      tag_382\n        /* \"contracts/Pool/Pool.sol\":39287:39309  swapTokensForEth(half) */\n      jump\t// in\n    tag_381:\n        /* \"contracts/Pool/Pool.sol\":39437:39455  uint256 newBalance */\n      0x00\n        /* \"contracts/Pool/Pool.sol\":39458:39499  address(this).balance.sub(initialBalance) */\n      tag_383\n        /* \"contracts/Pool/Pool.sol\":39484:39498  initialBalance */\n      dup3\n        /* \"contracts/Pool/Pool.sol\":39458:39479  address(this).balance */\n      selfbalance\n        /* \"contracts/Pool/Pool.sol\":39458:39483  address(this).balance.sub */\n      tag_249\n      swap1\n        /* \"contracts/Pool/Pool.sol\":39458:39499  address(this).balance.sub(initialBalance) */\n      swap2\n      swap1\n      0xffffffff\n      and\n      jump\t// in\n    tag_383:\n        /* \"contracts/Pool/Pool.sol\":39437:39499  uint256 newBalance = address(this).balance.sub(initialBalance) */\n      swap1\n      pop\n        /* \"contracts/Pool/Pool.sol\":39546:39581  addLiquidity(otherHalf, newBalance) */\n      tag_384\n        /* \"contracts/Pool/Pool.sol\":39559:39568  otherHalf */\n      dup4\n        /* \"contracts/Pool/Pool.sol\":39570:39580  newBalance */\n      dup3\n        /* \"contracts/Pool/Pool.sol\":39546:39558  addLiquidity */\n      tag_385\n        /* \"contracts/Pool/Pool.sol\":39546:39581  addLiquidity(otherHalf, newBalance) */\n      jump\t// in\n    tag_384:\n        /* \"contracts/Pool/Pool.sol\":39605:39648  SwapAndLiquify(half, newBalance, otherHalf) */\n      0x17bbfb9a6069321b6ded73bd96327c9e6b7212a5cd51ff219cd61370acafb561\n        /* \"contracts/Pool/Pool.sol\":39620:39624  half */\n      dup5\n        /* \"contracts/Pool/Pool.sol\":39626:39636  newBalance */\n      dup3\n        /* \"contracts/Pool/Pool.sol\":39638:39647  otherHalf */\n      dup6\n        /* \"contracts/Pool/Pool.sol\":39605:39648  SwapAndLiquify(half, newBalance, otherHalf) */\n      mload(0x40)\n      dup1\n      dup5\n      dup2\n      mstore\n      0x20\n      add\n      dup4\n      dup2\n      mstore\n      0x20\n      add\n      dup3\n      dup2\n      mstore\n      0x20\n      add\n      swap4\n      pop\n      pop\n      pop\n      pop\n      mload(0x40)\n      dup1\n      swap2\n      sub\n      swap1\n      log1\n        /* \"contracts/Pool/Pool.sol\":26965:26966  _ */\n      pop\n      pop\n      pop\n      pop\n        /* \"contracts/Pool/Pool.sol\":26995:27000  false */\n      0x00\n        /* \"contracts/Pool/Pool.sol\":26976:26992  inSwapAndLiquify */\n      0x13\n      0x00\n        /* \"contracts/Pool/Pool.sol\":26976:27000  inSwapAndLiquify = false */\n      0x0100\n      exp\n      dup2\n      sload\n      dup2\n      0xff\n      mul\n      not\n      and\n      swap1\n      dup4\n      iszero\n      iszero\n      mul\n      or\n      swap1\n      sstore\n      pop\n        /* \"contracts/Pool/Pool.sol\":38691:39655  function swapAndLiquify(uint256 contractTokenBalance) private lockTheSwap {... */\n      pop\n      jump\t// out\n        /* \"contracts/Pool/Pool.sol\":40818:41634  function _tokenTransfer(address sender, address recipient, uint256 amount,bool takeFee) private {... */\n    tag_349:\n        /* \"contracts/Pool/Pool.sol\":40928:40935  takeFee */\n      dup1\n        /* \"contracts/Pool/Pool.sol\":40924:40963  if(!takeFee)... */\n      tag_387\n      jumpi\n        /* \"contracts/Pool/Pool.sol\":40949:40963  removeAllFee() */\n      tag_388\n        /* \"contracts/Pool/Pool.sol\":40949:40961  removeAllFee */\n      tag_389\n        /* \"contracts/Pool/Pool.sol\":40949:40963  removeAllFee() */\n      jump\t// in\n    tag_388:\n        /* \"contracts/Pool/Pool.sol\":40924:40963  if(!takeFee)... */\n    tag_387:\n        /* \"contracts/Pool/Pool.sol\":40986:40997  _isExcluded */\n      0x07\n        /* \"contracts/Pool/Pool.sol\":40986:41005  _isExcluded[sender] */\n      0x00\n        /* \"contracts/Pool/Pool.sol\":40998:41004  sender */\n      dup6\n        /* \"contracts/Pool/Pool.sol\":40986:41005  _isExcluded[sender] */\n      0xffffffffffffffffffffffffffffffffffffffff\n      and\n      0xffffffffffffffffffffffffffffffffffffffff\n      and\n      dup2\n      mstore\n      0x20\n      add\n      swap1\n      dup2\n      mstore\n      0x20\n      add\n      0x00\n      keccak256\n      0x00\n      swap1\n      sload\n      swap1\n      0x0100\n      exp\n      swap1\n      div\n      0xff\n      and\n        /* \"contracts/Pool/Pool.sol\":40986:41032  _isExcluded[sender] && !_isExcluded[recipient] */\n      dup1\n      iszero\n      tag_390\n      jumpi\n      pop\n        /* \"contracts/Pool/Pool.sol\":41010:41021  _isExcluded */\n      0x07\n        /* \"contracts/Pool/Pool.sol\":41010:41032  _isExcluded[recipient] */\n      0x00\n        /* \"contracts/Pool/Pool.sol\":41022:41031  recipient */\n      dup5\n        /* \"contracts/Pool/Pool.sol\":41010:41032  _isExcluded[recipient] */\n      0xffffffffffffffffffffffffffffffffffffffff\n      and\n      0xffffffffffffffffffffffffffffffffffffffff\n      and\n      dup2\n      mstore\n      0x20\n      add\n      swap1\n      dup2\n      mstore\n      0x20\n      add\n      0x00\n      keccak256\n      0x00\n      swap1\n      sload\n      swap1\n      0x0100\n      exp\n      swap1\n      div\n      0xff\n      and\n        /* \"contracts/Pool/Pool.sol\":41009:41032  !_isExcluded[recipient] */\n      iszero\n        /* \"contracts/Pool/Pool.sol\":40986:41032  _isExcluded[sender] && !_isExcluded[recipient] */\n    tag_390:\n        /* \"contracts/Pool/Pool.sol\":40982:41569  if (_isExcluded[sender] && !_isExcluded[recipient]) {... */\n      iszero\n      tag_391\n      jumpi\n        /* \"contracts/Pool/Pool.sol\":41048:41096  _transferFromExcluded(sender, recipient, amount) */\n      tag_392\n        /* \"contracts/Pool/Pool.sol\":41070:41076  sender */\n      dup5\n        /* \"contracts/Pool/Pool.sol\":41078:41087  recipient */\n      dup5\n        /* \"contracts/Pool/Pool.sol\":41089:41095  amount */\n      dup5\n        /* \"contracts/Pool/Pool.sol\":41048:41069  _transferFromExcluded */\n      tag_393\n        /* \"contracts/Pool/Pool.sol\":41048:41096  _transferFromExcluded(sender, recipient, amount) */\n      jump\t// in\n    tag_392:\n        /* \"contracts/Pool/Pool.sol\":40982:41569  if (_isExcluded[sender] && !_isExcluded[recipient]) {... */\n      jump(tag_394)\n    tag_391:\n        /* \"contracts/Pool/Pool.sol\":41118:41129  _isExcluded */\n      0x07\n        /* \"contracts/Pool/Pool.sol\":41118:41137  _isExcluded[sender] */\n      0x00\n        /* \"contracts/Pool/Pool.sol\":41130:41136  sender */\n      dup6\n        /* \"contracts/Pool/Pool.sol\":41118:41137  _isExcluded[sender] */\n      0xffffffffffffffffffffffffffffffffffffffff\n      and\n      0xffffffffffffffffffffffffffffffffffffffff\n      and\n      dup2\n      mstore\n      0x20\n      add\n      swap1\n      dup2\n      mstore\n      0x20\n      add\n      0x00\n      keccak256\n      0x00\n      swap1\n      sload\n      swap1\n      0x0100\n      exp\n      swap1\n      div\n      0xff\n      and\n        /* \"contracts/Pool/Pool.sol\":41117:41137  !_isExcluded[sender] */\n      iszero\n        /* \"contracts/Pool/Pool.sol\":41117:41163  !_isExcluded[sender] && _isExcluded[recipient] */\n      dup1\n      iszero\n      tag_395\n      jumpi\n      pop\n        /* \"contracts/Pool/Pool.sol\":41141:41152  _isExcluded */\n      0x07\n        /* \"contracts/Pool/Pool.sol\":41141:41163  _isExcluded[recipient] */\n      0x00\n        /* \"contracts/Pool/Pool.sol\":41153:41162  recipient */\n      dup5\n        /* \"contracts/Pool/Pool.sol\":41141:41163  _isExcluded[recipient] */\n      0xffffffffffffffffffffffffffffffffffffffff\n      and\n      0xffffffffffffffffffffffffffffffffffffffff\n      and\n      dup2\n      mstore\n      0x20\n      add\n      swap1\n      dup2\n      mstore\n      0x20\n      add\n      0x00\n      keccak256\n      0x00\n      swap1\n      sload\n      swap1\n      0x0100\n      exp\n      swap1\n      div\n      0xff\n      and\n        /* \"contracts/Pool/Pool.sol\":41117:41163  !_isExcluded[sender] && _isExcluded[recipient] */\n    tag_395:\n        /* \"contracts/Pool/Pool.sol\":41113:41569  if (!_isExcluded[sender] && _isExcluded[recipient]) {... */\n      iszero\n      tag_396\n      jumpi\n        /* \"contracts/Pool/Pool.sol\":41179:41225  _transferToExcluded(sender, recipient, amount) */\n      tag_397\n        /* \"contracts/Pool/Pool.sol\":41199:41205  sender */\n      dup5\n        /* \"contracts/Pool/Pool.sol\":41207:41216  recipient */\n      dup5\n        /* \"contracts/Pool/Pool.sol\":41218:41224  amount */\n      dup5\n        /* \"contracts/Pool/Pool.sol\":41179:41198  _transferToExcluded */\n      tag_398\n        /* \"contracts/Pool/Pool.sol\":41179:41225  _transferToExcluded(sender, recipient, amount) */\n      jump\t// in\n    tag_397:\n        /* \"contracts/Pool/Pool.sol\":41113:41569  if (!_isExcluded[sender] && _isExcluded[recipient]) {... */\n      jump(tag_399)\n    tag_396:\n        /* \"contracts/Pool/Pool.sol\":41247:41258  _isExcluded */\n      0x07\n        /* \"contracts/Pool/Pool.sol\":41247:41266  _isExcluded[sender] */\n      0x00\n        /* \"contracts/Pool/Pool.sol\":41259:41265  sender */\n      dup6\n        /* \"contracts/Pool/Pool.sol\":41247:41266  _isExcluded[sender] */\n      0xffffffffffffffffffffffffffffffffffffffff\n      and\n      0xffffffffffffffffffffffffffffffffffffffff\n      and\n      dup2\n      mstore\n      0x20\n      add\n      swap1\n      dup2\n      mstore\n      0x20\n      add\n      0x00\n      keccak256\n      0x00\n      swap1\n      sload\n      swap1\n      0x0100\n      exp\n      swap1\n      div\n      0xff\n      and\n        /* \"contracts/Pool/Pool.sol\":41246:41266  !_isExcluded[sender] */\n      iszero\n        /* \"contracts/Pool/Pool.sol\":41246:41293  !_isExcluded[sender] && !_isExcluded[recipient] */\n      dup1\n      iszero\n      tag_400\n      jumpi\n      pop\n        /* \"contracts/Pool/Pool.sol\":41271:41282  _isExcluded */\n      0x07\n        /* \"contracts/Pool/Pool.sol\":41271:41293  _isExcluded[recipient] */\n      0x00\n        /* \"contracts/Pool/Pool.sol\":41283:41292  recipient */\n      dup5\n        /* \"contracts/Pool/Pool.sol\":41271:41293  _isExcluded[recipient] */\n      0xffffffffffffffffffffffffffffffffffffffff\n      and\n      0xffffffffffffffffffffffffffffffffffffffff\n      and\n      dup2\n      mstore\n      0x20\n      add\n      swap1\n      dup2\n      mstore\n      0x20\n      add\n      0x00\n      keccak256\n      0x00\n      swap1\n      sload\n      swap1\n      0x0100\n      exp\n      swap1\n      div\n      0xff\n      and\n        /* \"contracts/Pool/Pool.sol\":41270:41293  !_isExcluded[recipient] */\n      iszero\n        /* \"contracts/Pool/Pool.sol\":41246:41293  !_isExcluded[sender] && !_isExcluded[recipient] */\n    tag_400:\n        /* \"contracts/Pool/Pool.sol\":41242:41569  if (!_isExcluded[sender] && !_isExcluded[recipient]) {... */\n      iszero\n      tag_401\n      jumpi\n        /* \"contracts/Pool/Pool.sol\":41309:41353  _transferStandard(sender, recipient, amount) */\n      tag_402\n        /* \"contracts/Pool/Pool.sol\":41327:41333  sender */\n      dup5\n        /* \"contracts/Pool/Pool.sol\":41335:41344  recipient */\n      dup5\n        /* \"contracts/Pool/Pool.sol\":41346:41352  amount */\n      dup5\n        /* \"contracts/Pool/Pool.sol\":41309:41326  _transferStandard */\n      tag_403\n        /* \"contracts/Pool/Pool.sol\":41309:41353  _transferStandard(sender, recipient, amount) */\n      jump\t// in\n    tag_402:\n        /* \"contracts/Pool/Pool.sol\":41242:41569  if (!_isExcluded[sender] && !_isExcluded[recipient]) {... */\n      jump(tag_404)\n    tag_401:\n        /* \"contracts/Pool/Pool.sol\":41374:41385  _isExcluded */\n      0x07\n        /* \"contracts/Pool/Pool.sol\":41374:41393  _isExcluded[sender] */\n      0x00\n        /* \"contracts/Pool/Pool.sol\":41386:41392  sender */\n      dup6\n        /* \"contracts/Pool/Pool.sol\":41374:41393  _isExcluded[sender] */\n      0xffffffffffffffffffffffffffffffffffffffff\n      and\n      0xffffffffffffffffffffffffffffffffffffffff\n      and\n      dup2\n      mstore\n      0x20\n      add\n      swap1\n      dup2\n      mstore\n      0x20\n      add\n      0x00\n      keccak256\n      0x00\n      swap1\n      sload\n      swap1\n      0x0100\n      exp\n      swap1\n      div\n      0xff\n      and\n        /* \"contracts/Pool/Pool.sol\":41374:41419  _isExcluded[sender] && _isExcluded[recipient] */\n      dup1\n      iszero\n      tag_405\n      jumpi\n      pop\n        /* \"contracts/Pool/Pool.sol\":41397:41408  _isExcluded */\n      0x07\n        /* \"contracts/Pool/Pool.sol\":41397:41419  _isExcluded[recipient] */\n      0x00\n        /* \"contracts/Pool/Pool.sol\":41409:41418  recipient */\n      dup5\n        /* \"contracts/Pool/Pool.sol\":41397:41419  _isExcluded[recipient] */\n      0xffffffffffffffffffffffffffffffffffffffff\n      and\n      0xffffffffffffffffffffffffffffffffffffffff\n      and\n      dup2\n      mstore\n      0x20\n      add\n      swap1\n      dup2\n      mstore\n      0x20\n      add\n      0x00\n      keccak256\n      0x00\n      swap1\n      sload\n      swap1\n      0x0100\n      exp\n      swap1\n      div\n      0xff\n      and\n        /* \"contracts/Pool/Pool.sol\":41374:41419  _isExcluded[sender] && _isExcluded[recipient] */\n    tag_405:\n        /* \"contracts/Pool/Pool.sol\":41370:41569  if (_isExcluded[sender] && _isExcluded[recipient]) {... */\n      iszero\n      tag_406\n      jumpi\n        /* \"contracts/Pool/Pool.sol\":41435:41483  _transferBothExcluded(sender, recipient, amount) */\n      tag_407\n        /* \"contracts/Pool/Pool.sol\":41457:41463  sender */\n      dup5\n        /* \"contracts/Pool/Pool.sol\":41465:41474  recipient */\n      dup5\n        /* \"contracts/Pool/Pool.sol\":41476:41482  amount */\n      dup5\n        /* \"contracts/Pool/Pool.sol\":41435:41456  _transferBothExcluded */\n      tag_408\n        /* \"contracts/Pool/Pool.sol\":41435:41483  _transferBothExcluded(sender, recipient, amount) */\n      jump\t// in\n    tag_407:\n        /* \"contracts/Pool/Pool.sol\":41370:41569  if (_isExcluded[sender] && _isExcluded[recipient]) {... */\n      jump(tag_409)\n    tag_406:\n        /* \"contracts/Pool/Pool.sol\":41514:41558  _transferStandard(sender, recipient, amount) */\n      tag_410\n        /* \"contracts/Pool/Pool.sol\":41532:41538  sender */\n      dup5\n        /* \"contracts/Pool/Pool.sol\":41540:41549  recipient */\n      dup5\n        /* \"contracts/Pool/Pool.sol\":41551:41557  amount */\n      dup5\n        /* \"contracts/Pool/Pool.sol\":41514:41531  _transferStandard */\n      tag_403\n        /* \"contracts/Pool/Pool.sol\":41514:41558  _transferStandard(sender, recipient, amount) */\n      jump\t// in\n    tag_410:\n        /* \"contracts/Pool/Pool.sol\":41370:41569  if (_isExcluded[sender] && _isExcluded[recipient]) {... */\n    tag_409:\n        /* \"contracts/Pool/Pool.sol\":41242:41569  if (!_isExcluded[sender] && !_isExcluded[recipient]) {... */\n    tag_404:\n        /* \"contracts/Pool/Pool.sol\":41113:41569  if (!_isExcluded[sender] && _isExcluded[recipient]) {... */\n    tag_399:\n        /* \"contracts/Pool/Pool.sol\":40982:41569  if (_isExcluded[sender] && !_isExcluded[recipient]) {... */\n    tag_394:\n        /* \"contracts/Pool/Pool.sol\":41591:41598  takeFee */\n      dup1\n        /* \"contracts/Pool/Pool.sol\":41587:41627  if(!takeFee)... */\n      tag_411\n      jumpi\n        /* \"contracts/Pool/Pool.sol\":41612:41627  restoreAllFee() */\n      tag_412\n        /* \"contracts/Pool/Pool.sol\":41612:41625  restoreAllFee */\n      tag_413\n        /* \"contracts/Pool/Pool.sol\":41612:41627  restoreAllFee() */\n      jump\t// in\n    tag_412:\n        /* \"contracts/Pool/Pool.sol\":41587:41627  if(!takeFee)... */\n    tag_411:\n        /* \"contracts/Pool/Pool.sol\":40818:41634  function _tokenTransfer(address sender, address recipient, uint256 amount,bool takeFee) private {... */\n      pop\n      pop\n      pop\n      pop\n      jump\t// out\n        /* \"contracts/Pool/Pool.sol\":34820:35371  function _getCurrentSupply() private view returns(uint256, uint256) {... */\n    tag_358:\n        /* \"contracts/Pool/Pool.sol\":34870:34877  uint256 */\n      0x00\n        /* \"contracts/Pool/Pool.sol\":34879:34886  uint256 */\n      dup1\n        /* \"contracts/Pool/Pool.sol\":34898:34913  uint256 rSupply */\n      0x00\n        /* \"contracts/Pool/Pool.sol\":34916:34923  _rTotal */\n      sload(0x0a)\n        /* \"contracts/Pool/Pool.sol\":34898:34923  uint256 rSupply = _rTotal */\n      swap1\n      pop\n        /* \"contracts/Pool/Pool.sol\":34933:34948  uint256 tSupply */\n      0x00\n        /* \"contracts/Pool/Pool.sol\":34951:34958  _tTotal */\n      sload(0x09)\n        /* \"contracts/Pool/Pool.sol\":34933:34958  uint256 tSupply = _tTotal */\n      swap1\n      pop\n        /* \"contracts/Pool/Pool.sol\":34979:34988  uint256 i */\n      0x00\n        /* \"contracts/Pool/Pool.sol\":34974:35259  for (uint256 i = 0; i < _excluded.length; i++) {... */\n    tag_415:\n        /* \"contracts/Pool/Pool.sol\":34998:35007  _excluded */\n      0x08\n        /* \"contracts/Pool/Pool.sol\":34998:35014  _excluded.length */\n      dup1\n      sload\n      swap1\n      pop\n        /* \"contracts/Pool/Pool.sol\":34994:34995  i */\n      dup2\n        /* \"contracts/Pool/Pool.sol\":34994:35014  i < _excluded.length */\n      lt\n        /* \"contracts/Pool/Pool.sol\":34974:35259  for (uint256 i = 0; i < _excluded.length; i++) {... */\n      iszero\n      tag_416\n      jumpi\n        /* \"contracts/Pool/Pool.sol\":35063:35070  rSupply */\n      dup3\n        /* \"contracts/Pool/Pool.sol\":35039:35046  _rOwned */\n      0x03\n        /* \"contracts/Pool/Pool.sol\":35039:35060  _rOwned[_excluded[i]] */\n      0x00\n        /* \"contracts/Pool/Pool.sol\":35047:35056  _excluded */\n      0x08\n        /* \"contracts/Pool/Pool.sol\":35057:35058  i */\n      dup5\n        /* \"contracts/Pool/Pool.sol\":35047:35059  _excluded[i] */\n      dup2\n      sload\n      dup2\n      lt\n      tag_418\n      jumpi\n      invalid\n    tag_418:\n      swap1\n      0x00\n      mstore\n      keccak256(0x00, 0x20)\n      add\n      0x00\n      swap1\n      sload\n      swap1\n      0x0100\n      exp\n      swap1\n      div\n      0xffffffffffffffffffffffffffffffffffffffff\n      and\n        /* \"contracts/Pool/Pool.sol\":35039:35060  _rOwned[_excluded[i]] */\n      0xffffffffffffffffffffffffffffffffffffffff\n      and\n      0xffffffffffffffffffffffffffffffffffffffff\n      and\n      dup2\n      mstore\n      0x20\n      add\n      swap1\n      dup2\n      mstore\n      0x20\n      add\n      0x00\n      keccak256\n      sload\n        /* \"contracts/Pool/Pool.sol\":35039:35070  _rOwned[_excluded[i]] > rSupply */\n      gt\n        /* \"contracts/Pool/Pool.sol\":35039:35105  _rOwned[_excluded[i]] > rSupply || _tOwned[_excluded[i]] > tSupply */\n      dup1\n      tag_420\n      jumpi\n      pop\n        /* \"contracts/Pool/Pool.sol\":35098:35105  tSupply */\n      dup2\n        /* \"contracts/Pool/Pool.sol\":35074:35081  _tOwned */\n      0x04\n        /* \"contracts/Pool/Pool.sol\":35074:35095  _tOwned[_excluded[i]] */\n      0x00\n        /* \"contracts/Pool/Pool.sol\":35082:35091  _excluded */\n      0x08\n        /* \"contracts/Pool/Pool.sol\":35092:35093  i */\n      dup5\n        /* \"contracts/Pool/Pool.sol\":35082:35094  _excluded[i] */\n      dup2\n      sload\n      dup2\n      lt\n      tag_421\n      jumpi\n      invalid\n    tag_421:\n      swap1\n      0x00\n      mstore\n      keccak256(0x00, 0x20)\n      add\n      0x00\n      swap1\n      sload\n      swap1\n      0x0100\n      exp\n      swap1\n      div\n      0xffffffffffffffffffffffffffffffffffffffff\n      and\n        /* \"contracts/Pool/Pool.sol\":35074:35095  _tOwned[_excluded[i]] */\n      0xffffffffffffffffffffffffffffffffffffffff\n      and\n      0xffffffffffffffffffffffffffffffffffffffff\n      and\n      dup2\n      mstore\n      0x20\n      add\n      swap1\n      dup2\n      mstore\n      0x20\n      add\n      0x00\n      keccak256\n      sload\n        /* \"contracts/Pool/Pool.sol\":35074:35105  _tOwned[_excluded[i]] > tSupply */\n      gt\n        /* \"contracts/Pool/Pool.sol\":35039:35105  _rOwned[_excluded[i]] > rSupply || _tOwned[_excluded[i]] > tSupply */\n    tag_420:\n        /* \"contracts/Pool/Pool.sol\":35035:35132  if (_rOwned[_excluded[i]] > rSupply || _tOwned[_excluded[i]] > tSupply) return (_rTotal, _tTotal) */\n      iszero\n      tag_423\n      jumpi\n        /* \"contracts/Pool/Pool.sol\":35115:35122  _rTotal */\n      sload(0x0a)\n        /* \"contracts/Pool/Pool.sol\":35124:35131  _tTotal */\n      sload(0x09)\n        /* \"contracts/Pool/Pool.sol\":35107:35132  return (_rTotal, _tTotal) */\n      swap5\n      pop\n      swap5\n      pop\n      pop\n      pop\n      pop\n      jump(tag_414)\n        /* \"contracts/Pool/Pool.sol\":35035:35132  if (_rOwned[_excluded[i]] > rSupply || _tOwned[_excluded[i]] > tSupply) return (_rTotal, _tTotal) */\n    tag_423:\n        /* \"contracts/Pool/Pool.sol\":35156:35190  rSupply.sub(_rOwned[_excluded[i]]) */\n      tag_424\n        /* \"contracts/Pool/Pool.sol\":35168:35175  _rOwned */\n      0x03\n        /* \"contracts/Pool/Pool.sol\":35168:35189  _rOwned[_excluded[i]] */\n      0x00\n        /* \"contracts/Pool/Pool.sol\":35176:35185  _excluded */\n      0x08\n        /* \"contracts/Pool/Pool.sol\":35186:35187  i */\n      dup5\n        /* \"contracts/Pool/Pool.sol\":35176:35188  _excluded[i] */\n      dup2\n      sload\n      dup2\n      lt\n      tag_425\n      jumpi\n      invalid\n    tag_425:\n      swap1\n      0x00\n      mstore\n      keccak256(0x00, 0x20)\n      add\n      0x00\n      swap1\n      sload\n      swap1\n      0x0100\n      exp\n      swap1\n      div\n      0xffffffffffffffffffffffffffffffffffffffff\n      and\n        /* \"contracts/Pool/Pool.sol\":35168:35189  _rOwned[_excluded[i]] */\n      0xffffffffffffffffffffffffffffffffffffffff\n      and\n      0xffffffffffffffffffffffffffffffffffffffff\n      and\n      dup2\n      mstore\n      0x20\n      add\n      swap1\n      dup2\n      mstore\n      0x20\n      add\n      0x00\n      keccak256\n      sload\n        /* \"contracts/Pool/Pool.sol\":35156:35163  rSupply */\n      dup5\n        /* \"contracts/Pool/Pool.sol\":35156:35167  rSupply.sub */\n      tag_249\n      swap1\n        /* \"contracts/Pool/Pool.sol\":35156:35190  rSupply.sub(_rOwned[_excluded[i]]) */\n      swap2\n      swap1\n      0xffffffff\n      and\n      jump\t// in\n    tag_424:\n        /* \"contracts/Pool/Pool.sol\":35146:35190  rSupply = rSupply.sub(_rOwned[_excluded[i]]) */\n      swap3\n      pop\n        /* \"contracts/Pool/Pool.sol\":35214:35248  tSupply.sub(_tOwned[_excluded[i]]) */\n      tag_427\n        /* \"contracts/Pool/Pool.sol\":35226:35233  _tOwned */\n      0x04\n        /* \"contracts/Pool/Pool.sol\":35226:35247  _tOwned[_excluded[i]] */\n      0x00\n        /* \"contracts/Pool/Pool.sol\":35234:35243  _excluded */\n      0x08\n        /* \"contracts/Pool/Pool.sol\":35244:35245  i */\n      dup5\n        /* \"contracts/Pool/Pool.sol\":35234:35246  _excluded[i] */\n      dup2\n      sload\n      dup2\n      lt\n      tag_428\n      jumpi\n      invalid\n    tag_428:\n      swap1\n      0x00\n      mstore\n      keccak256(0x00, 0x20)\n      add\n      0x00\n      swap1\n      sload\n      swap1\n      0x0100\n      exp\n      swap1\n      div\n      0xffffffffffffffffffffffffffffffffffffffff\n      and\n        /* \"contracts/Pool/Pool.sol\":35226:35247  _tOwned[_excluded[i]] */\n      0xffffffffffffffffffffffffffffffffffffffff\n      and\n      0xffffffffffffffffffffffffffffffffffffffff\n      and\n      dup2\n      mstore\n      0x20\n      add\n      swap1\n      dup2\n      mstore\n      0x20\n      add\n      0x00\n      keccak256\n      sload\n        /* \"contracts/Pool/Pool.sol\":35214:35221  tSupply */\n      dup4\n        /* \"contracts/Pool/Pool.sol\":35214:35225  tSupply.sub */\n      tag_249\n      swap1\n        /* \"contracts/Pool/Pool.sol\":35214:35248  tSupply.sub(_tOwned[_excluded[i]]) */\n      swap2\n      swap1\n      0xffffffff\n      and\n      jump\t// in\n    tag_427:\n        /* \"contracts/Pool/Pool.sol\":35204:35248  tSupply = tSupply.sub(_tOwned[_excluded[i]]) */\n      swap2\n      pop\n        /* \"contracts/Pool/Pool.sol\":35016:35019  i++ */\n      dup1\n      dup1\n      0x01\n      add\n      swap2\n      pop\n      pop\n        /* \"contracts/Pool/Pool.sol\":34974:35259  for (uint256 i = 0; i < _excluded.length; i++) {... */\n      jump(tag_415)\n    tag_416:\n      pop\n        /* \"contracts/Pool/Pool.sol\":35282:35302  _rTotal.div(_tTotal) */\n      tag_430\n        /* \"contracts/Pool/Pool.sol\":35294:35301  _tTotal */\n      sload(0x09)\n        /* \"contracts/Pool/Pool.sol\":35282:35289  _rTotal */\n      sload(0x0a)\n        /* \"contracts/Pool/Pool.sol\":35282:35293  _rTotal.div */\n      tag_218\n      swap1\n        /* \"contracts/Pool/Pool.sol\":35282:35302  _rTotal.div(_tTotal) */\n      swap2\n      swap1\n      0xffffffff\n      and\n      jump\t// in\n    tag_430:\n        /* \"contracts/Pool/Pool.sol\":35272:35279  rSupply */\n      dup3\n        /* \"contracts/Pool/Pool.sol\":35272:35302  rSupply < _rTotal.div(_tTotal) */\n      lt\n        /* \"contracts/Pool/Pool.sol\":35268:35329  if (rSupply < _rTotal.div(_tTotal)) return (_rTotal, _tTotal) */\n      iszero\n      tag_431\n      jumpi\n        /* \"contracts/Pool/Pool.sol\":35312:35319  _rTotal */\n      sload(0x0a)\n        /* \"contracts/Pool/Pool.sol\":35321:35328  _tTotal */\n      sload(0x09)\n        /* \"contracts/Pool/Pool.sol\":35304:35329  return (_rTotal, _tTotal) */\n      swap4\n      pop\n      swap4\n      pop\n      pop\n      pop\n      jump(tag_414)\n        /* \"contracts/Pool/Pool.sol\":35268:35329  if (rSupply < _rTotal.div(_tTotal)) return (_rTotal, _tTotal) */\n    tag_431:\n        /* \"contracts/Pool/Pool.sol\":35347:35354  rSupply */\n      dup2\n        /* \"contracts/Pool/Pool.sol\":35356:35363  tSupply */\n      dup2\n        /* \"contracts/Pool/Pool.sol\":35339:35364  return (rSupply, tSupply) */\n      swap4\n      pop\n      swap4\n      pop\n      pop\n      pop\n        /* \"contracts/Pool/Pool.sol\":34820:35371  function _getCurrentSupply() private view returns(uint256, uint256) {... */\n    tag_414:\n      swap1\n      swap2\n      jump\t// out\n        /* \"contracts/Pool/Pool.sol\":6678:6950  function div(uint256 a, uint256 b, string memory errorMessage) internal pure returns (uint256) {... */\n    tag_362:\n        /* \"contracts/Pool/Pool.sol\":6764:6771  uint256 */\n      0x00\n        /* \"contracts/Pool/Pool.sol\":6795:6796  0 */\n      dup1\n        /* \"contracts/Pool/Pool.sol\":6791:6792  b */\n      dup4\n        /* \"contracts/Pool/Pool.sol\":6791:6796  b > 0 */\n      gt\n        /* \"contracts/Pool/Pool.sol\":6798:6810  errorMessage */\n      dup3\n        /* \"contracts/Pool/Pool.sol\":6783:6811  require(b > 0, errorMessage) */\n      swap1\n      tag_433\n      jumpi\n      mload(0x40)\n      0x08c379a000000000000000000000000000000000000000000000000000000000\n      dup2\n      mstore\n      0x04\n      add\n      dup1\n      dup1\n      0x20\n      add\n      dup3\n      dup2\n      sub\n      dup3\n      mstore\n      dup4\n      dup2\n      dup2\n      mload\n      dup2\n      mstore\n      0x20\n      add\n      swap2\n      pop\n      dup1\n      mload\n      swap1\n      0x20\n      add\n      swap1\n      dup1\n      dup4\n      dup4\n      0x00\n    tag_434:\n      dup4\n      dup2\n      lt\n      iszero\n      tag_436\n      jumpi\n      dup1\n      dup3\n      add\n      mload\n      dup2\n      dup5\n      add\n      mstore\n      0x20\n      dup2\n      add\n      swap1\n      pop\n      jump(tag_434)\n    tag_436:\n      pop\n      pop\n      pop\n      pop\n      swap1\n      pop\n      swap1\n      dup2\n      add\n      swap1\n      0x1f\n      and\n      dup1\n      iszero\n      tag_437\n      jumpi\n      dup1\n      dup3\n      sub\n      dup1\n      mload\n      0x01\n      dup4\n      0x20\n      sub\n      0x0100\n      exp\n      sub\n      not\n      and\n      dup2\n      mstore\n      0x20\n      add\n      swap2\n      pop\n    tag_437:\n      pop\n      swap3\n      pop\n      pop\n      pop\n      mload(0x40)\n      dup1\n      swap2\n      sub\n      swap1\n      revert\n    tag_433:\n      pop\n        /* \"contracts/Pool/Pool.sol\":6821:6830  uint256 c */\n      0x00\n        /* \"contracts/Pool/Pool.sol\":6837:6838  b */\n      dup4\n        /* \"contracts/Pool/Pool.sol\":6833:6834  a */\n      dup6\n        /* \"contracts/Pool/Pool.sol\":6833:6838  a / b */\n      dup2\n      tag_438\n      jumpi\n      invalid\n    tag_438:\n      div\n        /* \"contracts/Pool/Pool.sol\":6821:6838  uint256 c = a / b */\n      swap1\n      pop\n        /* \"contracts/Pool/Pool.sol\":6942:6943  c */\n      dup1\n        /* \"contracts/Pool/Pool.sol\":6935:6943  return c */\n      swap2\n      pop\n      pop\n        /* \"contracts/Pool/Pool.sol\":6678:6950  function div(uint256 a, uint256 b, string memory errorMessage) internal pure returns (uint256) {... */\n      swap4\n      swap3\n      pop\n      pop\n      pop\n      jump\t// out\n        /* \"contracts/Pool/Pool.sol\":33894:34219  function _getTValues(uint256 tAmount) private view returns (uint256, uint256, uint256) {... */\n    tag_367:\n        /* \"contracts/Pool/Pool.sol\":33954:33961  uint256 */\n      0x00\n        /* \"contracts/Pool/Pool.sol\":33963:33970  uint256 */\n      dup1\n        /* \"contracts/Pool/Pool.sol\":33972:33979  uint256 */\n      0x00\n        /* \"contracts/Pool/Pool.sol\":33991:34003  uint256 tFee */\n      dup1\n        /* \"contracts/Pool/Pool.sol\":34006:34030  calculateTaxFee(tAmount) */\n      tag_440\n        /* \"contracts/Pool/Pool.sol\":34022:34029  tAmount */\n      dup6\n        /* \"contracts/Pool/Pool.sol\":34006:34021  calculateTaxFee */\n      tag_441\n        /* \"contracts/Pool/Pool.sol\":34006:34030  calculateTaxFee(tAmount) */\n      jump\t// in\n    tag_440:\n        /* \"contracts/Pool/Pool.sol\":33991:34030  uint256 tFee = calculateTaxFee(tAmount) */\n      swap1\n      pop\n        /* \"contracts/Pool/Pool.sol\":34040:34058  uint256 tLiquidity */\n      0x00\n        /* \"contracts/Pool/Pool.sol\":34061:34091  calculateLiquidityFee(tAmount) */\n      tag_442\n        /* \"contracts/Pool/Pool.sol\":34083:34090  tAmount */\n      dup7\n        /* \"contracts/Pool/Pool.sol\":34061:34082  calculateLiquidityFee */\n      tag_443\n        /* \"contracts/Pool/Pool.sol\":34061:34091  calculateLiquidityFee(tAmount) */\n      jump\t// in\n    tag_442:\n        /* \"contracts/Pool/Pool.sol\":34040:34091  uint256 tLiquidity = calculateLiquidityFee(tAmount) */\n      swap1\n      pop\n        /* \"contracts/Pool/Pool.sol\":34101:34124  uint256 tTransferAmount */\n      0x00\n        /* \"contracts/Pool/Pool.sol\":34127:34160  tAmount.sub(tFee).sub(tLiquidity) */\n      tag_444\n        /* \"contracts/Pool/Pool.sol\":34149:34159  tLiquidity */\n      dup3\n        /* \"contracts/Pool/Pool.sol\":34127:34144  tAmount.sub(tFee) */\n      tag_445\n        /* \"contracts/Pool/Pool.sol\":34139:34143  tFee */\n      dup6\n        /* \"contracts/Pool/Pool.sol\":34127:34134  tAmount */\n      dup11\n        /* \"contracts/Pool/Pool.sol\":34127:34138  tAmount.sub */\n      tag_249\n      swap1\n        /* \"contracts/Pool/Pool.sol\":34127:34144  tAmount.sub(tFee) */\n      swap2\n      swap1\n      0xffffffff\n      and\n      jump\t// in\n    tag_445:\n        /* \"contracts/Pool/Pool.sol\":34127:34148  tAmount.sub(tFee).sub */\n      tag_249\n      swap1\n        /* \"contracts/Pool/Pool.sol\":34127:34160  tAmount.sub(tFee).sub(tLiquidity) */\n      swap2\n      swap1\n      0xffffffff\n      and\n      jump\t// in\n    tag_444:\n        /* \"contracts/Pool/Pool.sol\":34101:34160  uint256 tTransferAmount = tAmount.sub(tFee).sub(tLiquidity) */\n      swap1\n      pop\n        /* \"contracts/Pool/Pool.sol\":34178:34193  tTransferAmount */\n      dup1\n        /* \"contracts/Pool/Pool.sol\":34195:34199  tFee */\n      dup4\n        /* \"contracts/Pool/Pool.sol\":34201:34211  tLiquidity */\n      dup4\n        /* \"contracts/Pool/Pool.sol\":34170:34212  return (tTransferAmount, tFee, tLiquidity) */\n      swap6\n      pop\n      swap6\n      pop\n      swap6\n      pop\n      pop\n      pop\n      pop\n        /* \"contracts/Pool/Pool.sol\":33894:34219  function _getTValues(uint256 tAmount) private view returns (uint256, uint256, uint256) {... */\n      swap2\n      swap4\n      swap1\n      swap3\n      pop\n      jump\t// out\n        /* \"contracts/Pool/Pool.sol\":34225:34648  function _getRValues(uint256 tAmount, uint256 tFee, uint256 tLiquidity, uint256 currentRate) private pure returns (uint256, uint256, uint256) {... */\n    tag_370:\n        /* \"contracts/Pool/Pool.sol\":34340:34347  uint256 */\n      0x00\n        /* \"contracts/Pool/Pool.sol\":34349:34356  uint256 */\n      dup1\n        /* \"contracts/Pool/Pool.sol\":34358:34365  uint256 */\n      0x00\n        /* \"contracts/Pool/Pool.sol\":34377:34392  uint256 rAmount */\n      dup1\n        /* \"contracts/Pool/Pool.sol\":34395:34419  tAmount.mul(currentRate) */\n      tag_447\n        /* \"contracts/Pool/Pool.sol\":34407:34418  currentRate */\n      dup6\n        /* \"contracts/Pool/Pool.sol\":34395:34402  tAmount */\n      dup10\n        /* \"contracts/Pool/Pool.sol\":34395:34406  tAmount.mul */\n      tag_310\n      swap1\n        /* \"contracts/Pool/Pool.sol\":34395:34419  tAmount.mul(currentRate) */\n      swap2\n      swap1\n      0xffffffff\n      and\n      jump\t// in\n    tag_447:\n        /* \"contracts/Pool/Pool.sol\":34377:34419  uint256 rAmount = tAmount.mul(currentRate) */\n      swap1\n      pop\n        /* \"contracts/Pool/Pool.sol\":34429:34441  uint256 rFee */\n      0x00\n        /* \"contracts/Pool/Pool.sol\":34444:34465  tFee.mul(currentRate) */\n      tag_448\n        /* \"contracts/Pool/Pool.sol\":34453:34464  currentRate */\n      dup7\n        /* \"contracts/Pool/Pool.sol\":34444:34448  tFee */\n      dup10\n        /* \"contracts/Pool/Pool.sol\":34444:34452  tFee.mul */\n      tag_310\n      swap1\n        /* \"contracts/Pool/Pool.sol\":34444:34465  tFee.mul(currentRate) */\n      swap2\n      swap1\n      0xffffffff\n      and\n      jump\t// in\n    tag_448:\n        /* \"contracts/Pool/Pool.sol\":34429:34465  uint256 rFee = tFee.mul(currentRate) */\n      swap1\n      pop\n        /* \"contracts/Pool/Pool.sol\":34475:34493  uint256 rLiquidity */\n      0x00\n        /* \"contracts/Pool/Pool.sol\":34496:34523  tLiquidity.mul(currentRate) */\n      tag_449\n        /* \"contracts/Pool/Pool.sol\":34511:34522  currentRate */\n      dup8\n        /* \"contracts/Pool/Pool.sol\":34496:34506  tLiquidity */\n      dup10\n        /* \"contracts/Pool/Pool.sol\":34496:34510  tLiquidity.mul */\n      tag_310\n      swap1\n        /* \"contracts/Pool/Pool.sol\":34496:34523  tLiquidity.mul(currentRate) */\n      swap2\n      swap1\n      0xffffffff\n      and\n      jump\t// in\n    tag_449:\n        /* \"contracts/Pool/Pool.sol\":34475:34523  uint256 rLiquidity = tLiquidity.mul(currentRate) */\n      swap1\n      pop\n        /* \"contracts/Pool/Pool.sol\":34533:34556  uint256 rTransferAmount */\n      0x00\n        /* \"contracts/Pool/Pool.sol\":34559:34592  rAmount.sub(rFee).sub(rLiquidity) */\n      tag_450\n        /* \"contracts/Pool/Pool.sol\":34581:34591  rLiquidity */\n      dup3\n        /* \"contracts/Pool/Pool.sol\":34559:34576  rAmount.sub(rFee) */\n      tag_451\n        /* \"contracts/Pool/Pool.sol\":34571:34575  rFee */\n      dup6\n        /* \"contracts/Pool/Pool.sol\":34559:34566  rAmount */\n      dup8\n        /* \"contracts/Pool/Pool.sol\":34559:34570  rAmount.sub */\n      tag_249\n      swap1\n        /* \"contracts/Pool/Pool.sol\":34559:34576  rAmount.sub(rFee) */\n      swap2\n      swap1\n      0xffffffff\n      and\n      jump\t// in\n    tag_451:\n        /* \"contracts/Pool/Pool.sol\":34559:34580  rAmount.sub(rFee).sub */\n      tag_249\n      swap1\n        /* \"contracts/Pool/Pool.sol\":34559:34592  rAmount.sub(rFee).sub(rLiquidity) */\n      swap2\n      swap1\n      0xffffffff\n      and\n      jump\t// in\n    tag_450:\n        /* \"contracts/Pool/Pool.sol\":34533:34592  uint256 rTransferAmount = rAmount.sub(rFee).sub(rLiquidity) */\n      swap1\n      pop\n        /* \"contracts/Pool/Pool.sol\":34610:34617  rAmount */\n      dup4\n        /* \"contracts/Pool/Pool.sol\":34619:34634  rTransferAmount */\n      dup2\n        /* \"contracts/Pool/Pool.sol\":34636:34640  rFee */\n      dup5\n        /* \"contracts/Pool/Pool.sol\":34602:34641  return (rAmount, rTransferAmount, rFee) */\n      swap7\n      pop\n      swap7\n      pop\n      swap7\n      pop\n      pop\n      pop\n      pop\n      pop\n        /* \"contracts/Pool/Pool.sol\":34225:34648  function _getRValues(uint256 tAmount, uint256 tFee, uint256 tLiquidity, uint256 currentRate) private pure returns (uint256, uint256, uint256) {... */\n      swap5\n      pop\n      swap5\n      pop\n      swap5\n      swap2\n      pop\n      pop\n      jump\t// out\n        /* \"contracts/Pool/Pool.sol\":39661:40234  function swapTokensForEth(uint256 tokenAmount) private {... */\n    tag_382:\n        /* \"contracts/Pool/Pool.sol\":39785:39806  address[] memory path */\n      0x60\n        /* \"contracts/Pool/Pool.sol\":39823:39824  2 */\n      0x02\n        /* \"contracts/Pool/Pool.sol\":39809:39825  new address[](2) */\n      0xffffffffffffffff\n      dup2\n      gt\n      dup1\n      iszero\n      tag_453\n      jumpi\n      0x00\n      dup1\n      revert\n    tag_453:\n      pop\n      mload(0x40)\n      swap1\n      dup1\n      dup3\n      mstore\n      dup1\n      0x20\n      mul\n      0x20\n      add\n      dup3\n      add\n      0x40\n      mstore\n      dup1\n      iszero\n      tag_454\n      jumpi\n      dup2\n      0x20\n      add\n      0x20\n      dup3\n      mul\n      dup1\n      calldatasize\n      dup4\n      calldatacopy\n      dup1\n      dup3\n      add\n      swap2\n      pop\n      pop\n      swap1\n      pop\n    tag_454:\n      pop\n        /* \"contracts/Pool/Pool.sol\":39785:39825  address[] memory path = new address[](2) */\n      swap1\n      pop\n        /* \"contracts/Pool/Pool.sol\":39853:39857  this */\n      address\n        /* \"contracts/Pool/Pool.sol\":39835:39839  path */\n      dup2\n        /* \"contracts/Pool/Pool.sol\":39840:39841  0 */\n      0x00\n        /* \"contracts/Pool/Pool.sol\":39835:39842  path[0] */\n      dup2\n      mload\n      dup2\n      lt\n      tag_455\n      jumpi\n      invalid\n    tag_455:\n      0x20\n      mul\n      0x20\n      add\n      add\n        /* \"contracts/Pool/Pool.sol\":39835:39858  path[0] = address(this) */\n      swap1\n      0xffffffffffffffffffffffffffffffffffffffff\n      and\n      swap1\n      dup2\n      0xffffffffffffffffffffffffffffffffffffffff\n      and\n      dup2\n      mstore\n      pop\n      pop\n        /* \"contracts/Pool/Pool.sol\":39878:39893  uniswapV2Router */\n      immutable(\"0xfc57b5902f0023899e1247e2ff263b1dfd650a9d73b378b1a0bb28583d7847fc\")\n        /* \"contracts/Pool/Pool.sol\":39878:39898  uniswapV2Router.WETH */\n      0xffffffffffffffffffffffffffffffffffffffff\n      and\n      0xad5c4648\n        /* \"contracts/Pool/Pool.sol\":39878:39900  uniswapV2Router.WETH() */\n      mload(0x40)\n      dup2\n      0xffffffff\n      and\n      0xe0\n      shl\n      dup2\n      mstore\n      0x04\n      add\n      0x20\n      mload(0x40)\n      dup1\n      dup4\n      sub\n      dup2\n      dup7\n      dup1\n      extcodesize\n      iszero\n      dup1\n      iszero\n      tag_456\n      jumpi\n      0x00\n      dup1\n      revert\n    tag_456:\n      pop\n      gas\n      staticcall\n      iszero\n      dup1\n      iszero\n      tag_458\n      jumpi\n      returndatasize\n      0x00\n      dup1\n      returndatacopy\n      revert(0x00, returndatasize)\n    tag_458:\n      pop\n      pop\n      pop\n      pop\n      mload(0x40)\n      returndatasize\n      0x20\n      dup2\n      lt\n      iszero\n      tag_459\n      jumpi\n      0x00\n      dup1\n      revert\n    tag_459:\n      dup2\n      add\n      swap1\n      dup1\n      dup1\n      mload\n      swap1\n      0x20\n      add\n      swap1\n      swap3\n      swap2\n      swap1\n      pop\n      pop\n      pop\n        /* \"contracts/Pool/Pool.sol\":39868:39872  path */\n      dup2\n        /* \"contracts/Pool/Pool.sol\":39873:39874  1 */\n      0x01\n        /* \"contracts/Pool/Pool.sol\":39868:39875  path[1] */\n      dup2\n      mload\n      dup2\n      lt\n      tag_460\n      jumpi\n      invalid\n    tag_460:\n      0x20\n      mul\n      0x20\n      add\n      add\n        /* \"contracts/Pool/Pool.sol\":39868:39900  path[1] = uniswapV2Router.WETH() */\n      swap1\n      0xffffffffffffffffffffffffffffffffffffffff\n      and\n      swap1\n      dup2\n      0xffffffffffffffffffffffffffffffffffffffff\n      and\n      dup2\n      mstore\n      pop\n      pop\n        /* \"contracts/Pool/Pool.sol\":39911:39973  _approve(address(this), address(uniswapV2Router), tokenAmount) */\n      tag_461\n        /* \"contracts/Pool/Pool.sol\":39928:39932  this */\n      address\n        /* \"contracts/Pool/Pool.sol\":39943:39958  uniswapV2Router */\n      immutable(\"0xfc57b5902f0023899e1247e2ff263b1dfd650a9d73b378b1a0bb28583d7847fc\")\n        /* \"contracts/Pool/Pool.sol\":39961:39972  tokenAmount */\n      dup5\n        /* \"contracts/Pool/Pool.sol\":39911:39919  _approve */\n      tag_202\n        /* \"contracts/Pool/Pool.sol\":39911:39973  _approve(address(this), address(uniswapV2Router), tokenAmount) */\n      jump\t// in\n    tag_461:\n        /* \"contracts/Pool/Pool.sol\":40009:40024  uniswapV2Router */\n      immutable(\"0xfc57b5902f0023899e1247e2ff263b1dfd650a9d73b378b1a0bb28583d7847fc\")\n        /* \"contracts/Pool/Pool.sol\":40009:40075  uniswapV2Router.swapExactTokensForETHSupportingFeeOnTransferTokens */\n      0xffffffffffffffffffffffffffffffffffffffff\n      and\n      0x791ac947\n        /* \"contracts/Pool/Pool.sol\":40089:40100  tokenAmount */\n      dup4\n        /* \"contracts/Pool/Pool.sol\":40114:40115  0 */\n      0x00\n        /* \"contracts/Pool/Pool.sol\":40157:40161  path */\n      dup5\n        /* \"contracts/Pool/Pool.sol\":40183:40187  this */\n      address\n        /* \"contracts/Pool/Pool.sol\":40202:40217  block.timestamp */\n      timestamp\n        /* \"contracts/Pool/Pool.sol\":40009:40227  uniswapV2Router.swapExactTokensForETHSupportingFeeOnTransferTokens(... */\n      mload(0x40)\n      dup7\n      0xffffffff\n      and\n      0xe0\n      shl\n      dup2\n      mstore\n      0x04\n      add\n      dup1\n      dup7\n      dup2\n      mstore\n      0x20\n      add\n      dup6\n      dup2\n      mstore\n      0x20\n      add\n      dup1\n      0x20\n      add\n      dup5\n      0xffffffffffffffffffffffffffffffffffffffff\n      and\n      dup2\n      mstore\n      0x20\n      add\n      dup4\n      dup2\n      mstore\n      0x20\n      add\n      dup3\n      dup2\n      sub\n      dup3\n      mstore\n      dup6\n      dup2\n      dup2\n      mload\n      dup2\n      mstore\n      0x20\n      add\n      swap2\n      pop\n      dup1\n      mload\n      swap1\n      0x20\n      add\n      swap1\n      0x20\n      mul\n      dup1\n      dup4\n      dup4\n      0x00\n    tag_462:\n      dup4\n      dup2\n      lt\n      iszero\n      tag_464\n      jumpi\n      dup1\n      dup3\n      add\n      mload\n      dup2\n      dup5\n      add\n      mstore\n      0x20\n      dup2\n      add\n      swap1\n      pop\n      jump(tag_462)\n    tag_464:\n      pop\n      pop\n      pop\n      pop\n      swap1\n      pop\n      add\n      swap7\n      pop\n      pop\n      pop\n      pop\n      pop\n      pop\n      pop\n      0x00\n      mload(0x40)\n      dup1\n      dup4\n      sub\n      dup2\n      0x00\n      dup8\n      dup1\n      extcodesize\n      iszero\n      dup1\n      iszero\n      tag_465\n      jumpi\n      0x00\n      dup1\n      revert\n    tag_465:\n      pop\n      gas\n      call\n      iszero\n      dup1\n      iszero\n      tag_467\n      jumpi\n      returndatasize\n      0x00\n      dup1\n      returndatacopy\n      revert(0x00, returndatasize)\n    tag_467:\n      pop\n      pop\n      pop\n      pop\n        /* \"contracts/Pool/Pool.sol\":39661:40234  function swapTokensForEth(uint256 tokenAmount) private {... */\n      pop\n      pop\n      jump\t// out\n        /* \"contracts/Pool/Pool.sol\":40240:40740  function addLiquidity(uint256 tokenAmount, uint256 ethAmount) private {... */\n    tag_385:\n        /* \"contracts/Pool/Pool.sol\":40386:40448  _approve(address(this), address(uniswapV2Router), tokenAmount) */\n      tag_469\n        /* \"contracts/Pool/Pool.sol\":40403:40407  this */\n      address\n        /* \"contracts/Pool/Pool.sol\":40418:40433  uniswapV2Router */\n      immutable(\"0xfc57b5902f0023899e1247e2ff263b1dfd650a9d73b378b1a0bb28583d7847fc\")\n        /* \"contracts/Pool/Pool.sol\":40436:40447  tokenAmount */\n      dup5\n        /* \"contracts/Pool/Pool.sol\":40386:40394  _approve */\n      tag_202\n        /* \"contracts/Pool/Pool.sol\":40386:40448  _approve(address(this), address(uniswapV2Router), tokenAmount) */\n      jump\t// in\n    tag_469:\n        /* \"contracts/Pool/Pool.sol\":40488:40503  uniswapV2Router */\n      immutable(\"0xfc57b5902f0023899e1247e2ff263b1dfd650a9d73b378b1a0bb28583d7847fc\")\n        /* \"contracts/Pool/Pool.sol\":40488:40519  uniswapV2Router.addLiquidityETH */\n      0xffffffffffffffffffffffffffffffffffffffff\n      and\n      0xf305d719\n        /* \"contracts/Pool/Pool.sol\":40527:40536  ethAmount */\n      dup3\n        /* \"contracts/Pool/Pool.sol\":40559:40563  this */\n      address\n        /* \"contracts/Pool/Pool.sol\":40578:40589  tokenAmount */\n      dup6\n        /* \"contracts/Pool/Pool.sol\":40603:40604  0 */\n      0x00\n        /* \"contracts/Pool/Pool.sol\":40645:40646  0 */\n      dup1\n        /* \"contracts/Pool/Pool.sol\":40687:40694  owner() */\n      tag_470\n        /* \"contracts/Pool/Pool.sol\":40687:40692  owner */\n      tag_140\n        /* \"contracts/Pool/Pool.sol\":40687:40694  owner() */\n      jump\t// in\n    tag_470:\n        /* \"contracts/Pool/Pool.sol\":40708:40723  block.timestamp */\n      timestamp\n        /* \"contracts/Pool/Pool.sol\":40488:40733  uniswapV2Router.addLiquidityETH{value: ethAmount}(... */\n      mload(0x40)\n      dup9\n      0xffffffff\n      and\n      0xe0\n      shl\n      dup2\n      mstore\n      0x04\n      add\n      dup1\n      dup8\n      0xffffffffffffffffffffffffffffffffffffffff\n      and\n      dup2\n      mstore\n      0x20\n      add\n      dup7\n      dup2\n      mstore\n      0x20\n      add\n      dup6\n      dup2\n      mstore\n      0x20\n      add\n      dup5\n      dup2\n      mstore\n      0x20\n      add\n      dup4\n      0xffffffffffffffffffffffffffffffffffffffff\n      and\n      dup2\n      mstore\n      0x20\n      add\n      dup3\n      dup2\n      mstore\n      0x20\n      add\n      swap7\n      pop\n      pop\n      pop\n      pop\n      pop\n      pop\n      pop\n      0x60\n      mload(0x40)\n      dup1\n      dup4\n      sub\n      dup2\n      dup6\n      dup9\n      dup1\n      extcodesize\n      iszero\n      dup1\n      iszero\n      tag_471\n      jumpi\n      0x00\n      dup1\n      revert\n    tag_471:\n      pop\n      gas\n      call\n      iszero\n      dup1\n      iszero\n      tag_473\n      jumpi\n      returndatasize\n      0x00\n      dup1\n      returndatacopy\n      revert(0x00, returndatasize)\n    tag_473:\n      pop\n      pop\n      pop\n      pop\n      pop\n      mload(0x40)\n      returndatasize\n      0x60\n      dup2\n      lt\n      iszero\n      tag_474\n      jumpi\n      0x00\n      dup1\n      revert\n    tag_474:\n      dup2\n      add\n      swap1\n      dup1\n      dup1\n      mload\n      swap1\n      0x20\n      add\n      swap1\n      swap3\n      swap2\n      swap1\n      dup1\n      mload\n      swap1\n      0x20\n      add\n      swap1\n      swap3\n      swap2\n      swap1\n      dup1\n      mload\n      swap1\n      0x20\n      add\n      swap1\n      swap3\n      swap2\n      swap1\n      pop\n      pop\n      pop\n      pop\n      pop\n      pop\n        /* \"contracts/Pool/Pool.sol\":40240:40740  function addLiquidity(uint256 tokenAmount, uint256 ethAmount) private {... */\n      pop\n      pop\n      jump\t// out\n        /* \"contracts/Pool/Pool.sol\":36068:36310  function removeAllFee() private {... */\n    tag_389:\n        /* \"contracts/Pool/Pool.sol\":36124:36125  0 */\n      0x00\n        /* \"contracts/Pool/Pool.sol\":36113:36120  _taxFee */\n      sload(0x0f)\n        /* \"contracts/Pool/Pool.sol\":36113:36125  _taxFee == 0 */\n      eq\n        /* \"contracts/Pool/Pool.sol\":36113:36147  _taxFee == 0 && _liquidityFee == 0 */\n      dup1\n      iszero\n      tag_476\n      jumpi\n      pop\n        /* \"contracts/Pool/Pool.sol\":36146:36147  0 */\n      0x00\n        /* \"contracts/Pool/Pool.sol\":36129:36142  _liquidityFee */\n      sload(0x11)\n        /* \"contracts/Pool/Pool.sol\":36129:36147  _liquidityFee == 0 */\n      eq\n        /* \"contracts/Pool/Pool.sol\":36113:36147  _taxFee == 0 && _liquidityFee == 0 */\n    tag_476:\n        /* \"contracts/Pool/Pool.sol\":36110:36156  if(_taxFee == 0 && _liquidityFee == 0) return; */\n      iszero\n      tag_477\n      jumpi\n        /* \"contracts/Pool/Pool.sol\":36149:36156  return; */\n      jump(tag_475)\n        /* \"contracts/Pool/Pool.sol\":36110:36156  if(_taxFee == 0 && _liquidityFee == 0) return; */\n    tag_477:\n        /* \"contracts/Pool/Pool.sol\":36192:36199  _taxFee */\n      sload(0x0f)\n        /* \"contracts/Pool/Pool.sol\":36174:36189  _previousTaxFee */\n      0x10\n        /* \"contracts/Pool/Pool.sol\":36174:36199  _previousTaxFee = _taxFee */\n      dup2\n      swap1\n      sstore\n      pop\n        /* \"contracts/Pool/Pool.sol\":36233:36246  _liquidityFee */\n      sload(0x11)\n        /* \"contracts/Pool/Pool.sol\":36209:36230  _previousLiquidityFee */\n      0x12\n        /* \"contracts/Pool/Pool.sol\":36209:36246  _previousLiquidityFee = _liquidityFee */\n      dup2\n      swap1\n      sstore\n      pop\n        /* \"contracts/Pool/Pool.sol\":36275:36276  0 */\n      0x00\n        /* \"contracts/Pool/Pool.sol\":36265:36272  _taxFee */\n      0x0f\n        /* \"contracts/Pool/Pool.sol\":36265:36276  _taxFee = 0 */\n      dup2\n      swap1\n      sstore\n      pop\n        /* \"contracts/Pool/Pool.sol\":36302:36303  0 */\n      0x00\n        /* \"contracts/Pool/Pool.sol\":36286:36299  _liquidityFee */\n      0x11\n        /* \"contracts/Pool/Pool.sol\":36286:36303  _liquidityFee = 0 */\n      dup2\n      swap1\n      sstore\n      pop\n        /* \"contracts/Pool/Pool.sol\":36068:36310  function removeAllFee() private {... */\n    tag_475:\n      jump\t// out\n        /* \"contracts/Pool/Pool.sol\":42725:43283  function _transferFromExcluded(address sender, address recipient, uint256 tAmount) private {... */\n    tag_393:\n        /* \"contracts/Pool/Pool.sol\":42827:42842  uint256 rAmount */\n      0x00\n        /* \"contracts/Pool/Pool.sol\":42844:42867  uint256 rTransferAmount */\n      dup1\n        /* \"contracts/Pool/Pool.sol\":42869:42881  uint256 rFee */\n      0x00\n        /* \"contracts/Pool/Pool.sol\":42883:42906  uint256 tTransferAmount */\n      dup1\n        /* \"contracts/Pool/Pool.sol\":42908:42920  uint256 tFee */\n      0x00\n        /* \"contracts/Pool/Pool.sol\":42922:42940  uint256 tLiquidity */\n      dup1\n        /* \"contracts/Pool/Pool.sol\":42944:42963  _getValues(tAmount) */\n      tag_479\n        /* \"contracts/Pool/Pool.sol\":42955:42962  tAmount */\n      dup8\n        /* \"contracts/Pool/Pool.sol\":42944:42954  _getValues */\n      tag_247\n        /* \"contracts/Pool/Pool.sol\":42944:42963  _getValues(tAmount) */\n      jump\t// in\n    tag_479:\n        /* \"contracts/Pool/Pool.sol\":42826:42963  (uint256 rAmount, uint256 rTransferAmount, uint256 rFee, uint256 tTransferAmount, uint256 tFee, uint256 tLiquidity) = _getValues(tAmount) */\n      swap6\n      pop\n      swap6\n      pop\n      swap6\n      pop\n      swap6\n      pop\n      swap6\n      pop\n      swap6\n      pop\n        /* \"contracts/Pool/Pool.sol\":42991:43019  _tOwned[sender].sub(tAmount) */\n      tag_480\n        /* \"contracts/Pool/Pool.sol\":43011:43018  tAmount */\n      dup8\n        /* \"contracts/Pool/Pool.sol\":42991:42998  _tOwned */\n      0x04\n        /* \"contracts/Pool/Pool.sol\":42991:43006  _tOwned[sender] */\n      0x00\n        /* \"contracts/Pool/Pool.sol\":42999:43005  sender */\n      dup13\n        /* \"contracts/Pool/Pool.sol\":42991:43006  _tOwned[sender] */\n      0xffffffffffffffffffffffffffffffffffffffff\n      and\n      0xffffffffffffffffffffffffffffffffffffffff\n      and\n      dup2\n      mstore\n      0x20\n      add\n      swap1\n      dup2\n      mstore\n      0x20\n      add\n      0x00\n      keccak256\n      sload\n        /* \"contracts/Pool/Pool.sol\":42991:43010  _tOwned[sender].sub */\n      tag_249\n      swap1\n        /* \"contracts/Pool/Pool.sol\":42991:43019  _tOwned[sender].sub(tAmount) */\n      swap2\n      swap1\n      0xffffffff\n      and\n      jump\t// in\n    tag_480:\n        /* \"contracts/Pool/Pool.sol\":42973:42980  _tOwned */\n      0x04\n        /* \"contracts/Pool/Pool.sol\":42973:42988  _tOwned[sender] */\n      0x00\n        /* \"contracts/Pool/Pool.sol\":42981:42987  sender */\n      dup12\n        /* \"contracts/Pool/Pool.sol\":42973:42988  _tOwned[sender] */\n      0xffffffffffffffffffffffffffffffffffffffff\n      and\n      0xffffffffffffffffffffffffffffffffffffffff\n      and\n      dup2\n      mstore\n      0x20\n      add\n      swap1\n      dup2\n      mstore\n      0x20\n      add\n      0x00\n      keccak256\n        /* \"contracts/Pool/Pool.sol\":42973:43019  _tOwned[sender] = _tOwned[sender].sub(tAmount) */\n      dup2\n      swap1\n      sstore\n      pop\n        /* \"contracts/Pool/Pool.sol\":43047:43075  _rOwned[sender].sub(rAmount) */\n      tag_481\n        /* \"contracts/Pool/Pool.sol\":43067:43074  rAmount */\n      dup7\n        /* \"contracts/Pool/Pool.sol\":43047:43054  _rOwned */\n      0x03\n        /* \"contracts/Pool/Pool.sol\":43047:43062  _rOwned[sender] */\n      0x00\n        /* \"contracts/Pool/Pool.sol\":43055:43061  sender */\n      dup13\n        /* \"contracts/Pool/Pool.sol\":43047:43062  _rOwned[sender] */\n      0xffffffffffffffffffffffffffffffffffffffff\n      and\n      0xffffffffffffffffffffffffffffffffffffffff\n      and\n      dup2\n      mstore\n      0x20\n      add\n      swap1\n      dup2\n      mstore\n      0x20\n      add\n      0x00\n      keccak256\n      sload\n        /* \"contracts/Pool/Pool.sol\":43047:43066  _rOwned[sender].sub */\n      tag_249\n      swap1\n        /* \"contracts/Pool/Pool.sol\":43047:43075  _rOwned[sender].sub(rAmount) */\n      swap2\n      swap1\n      0xffffffff\n      and\n      jump\t// in\n    tag_481:\n        /* \"contracts/Pool/Pool.sol\":43029:43036  _rOwned */\n      0x03\n        /* \"contracts/Pool/Pool.sol\":43029:43044  _rOwned[sender] */\n      0x00\n        /* \"contracts/Pool/Pool.sol\":43037:43043  sender */\n      dup12\n        /* \"contracts/Pool/Pool.sol\":43029:43044  _rOwned[sender] */\n      0xffffffffffffffffffffffffffffffffffffffff\n      and\n      0xffffffffffffffffffffffffffffffffffffffff\n      and\n      dup2\n      mstore\n      0x20\n      add\n      swap1\n      dup2\n      mstore\n      0x20\n      add\n      0x00\n      keccak256\n        /* \"contracts/Pool/Pool.sol\":43029:43075  _rOwned[sender] = _rOwned[sender].sub(rAmount) */\n      dup2\n      swap1\n      sstore\n      pop\n        /* \"contracts/Pool/Pool.sol\":43106:43145  _rOwned[recipient].add(rTransferAmount) */\n      tag_482\n        /* \"contracts/Pool/Pool.sol\":43129:43144  rTransferAmount */\n      dup6\n        /* \"contracts/Pool/Pool.sol\":43106:43113  _rOwned */\n      0x03\n        /* \"contracts/Pool/Pool.sol\":43106:43124  _rOwned[recipient] */\n      0x00\n        /* \"contracts/Pool/Pool.sol\":43114:43123  recipient */\n      dup12\n        /* \"contracts/Pool/Pool.sol\":43106:43124  _rOwned[recipient] */\n      0xffffffffffffffffffffffffffffffffffffffff\n      and\n      0xffffffffffffffffffffffffffffffffffffffff\n      and\n      dup2\n      mstore\n      0x20\n      add\n      swap1\n      dup2\n      mstore\n      0x20\n      add\n      0x00\n      keccak256\n      sload\n        /* \"contracts/Pool/Pool.sol\":43106:43128  _rOwned[recipient].add */\n      tag_242\n      swap1\n        /* \"contracts/Pool/Pool.sol\":43106:43145  _rOwned[recipient].add(rTransferAmount) */\n      swap2\n      swap1\n      0xffffffff\n      and\n      jump\t// in\n    tag_482:\n        /* \"contracts/Pool/Pool.sol\":43085:43092  _rOwned */\n      0x03\n        /* \"contracts/Pool/Pool.sol\":43085:43103  _rOwned[recipient] */\n      0x00\n        /* \"contracts/Pool/Pool.sol\":43093:43102  recipient */\n      dup11\n        /* \"contracts/Pool/Pool.sol\":43085:43103  _rOwned[recipient] */\n      0xffffffffffffffffffffffffffffffffffffffff\n      and\n      0xffffffffffffffffffffffffffffffffffffffff\n      and\n      dup2\n      mstore\n      0x20\n      add\n      swap1\n      dup2\n      mstore\n      0x20\n      add\n      0x00\n      keccak256\n        /* \"contracts/Pool/Pool.sol\":43085:43145  _rOwned[recipient] = _rOwned[recipient].add(rTransferAmount) */\n      dup2\n      swap1\n      sstore\n      pop\n        /* \"contracts/Pool/Pool.sol\":43158:43184  _takeLiquidity(tLiquidity) */\n      tag_483\n        /* \"contracts/Pool/Pool.sol\":43173:43183  tLiquidity */\n      dup2\n        /* \"contracts/Pool/Pool.sol\":43158:43172  _takeLiquidity */\n      tag_484\n        /* \"contracts/Pool/Pool.sol\":43158:43184  _takeLiquidity(tLiquidity) */\n      jump\t// in\n    tag_483:\n        /* \"contracts/Pool/Pool.sol\":43194:43217  _reflectFee(rFee, tFee) */\n      tag_485\n        /* \"contracts/Pool/Pool.sol\":43206:43210  rFee */\n      dup5\n        /* \"contracts/Pool/Pool.sol\":43212:43216  tFee */\n      dup4\n        /* \"contracts/Pool/Pool.sol\":43194:43205  _reflectFee */\n      tag_486\n        /* \"contracts/Pool/Pool.sol\":43194:43217  _reflectFee(rFee, tFee) */\n      jump\t// in\n    tag_485:\n        /* \"contracts/Pool/Pool.sol\":43249:43258  recipient */\n      dup8\n        /* \"contracts/Pool/Pool.sol\":43232:43276  Transfer(sender, recipient, tTransferAmount) */\n      0xffffffffffffffffffffffffffffffffffffffff\n      and\n        /* \"contracts/Pool/Pool.sol\":43241:43247  sender */\n      dup10\n        /* \"contracts/Pool/Pool.sol\":43232:43276  Transfer(sender, recipient, tTransferAmount) */\n      0xffffffffffffffffffffffffffffffffffffffff\n      and\n      0xddf252ad1be2c89b69c2b068fc378daa952ba7f163c4a11628f55a4df523b3ef\n        /* \"contracts/Pool/Pool.sol\":43260:43275  tTransferAmount */\n      dup6\n        /* \"contracts/Pool/Pool.sol\":43232:43276  Transfer(sender, recipient, tTransferAmount) */\n      mload(0x40)\n      dup1\n      dup3\n      dup2\n      mstore\n      0x20\n      add\n      swap2\n      pop\n      pop\n      mload(0x40)\n      dup1\n      swap2\n      sub\n      swap1\n      log3\n        /* \"contracts/Pool/Pool.sol\":42725:43283  function _transferFromExcluded(address sender, address recipient, uint256 tAmount) private {... */\n      pop\n      pop\n      pop\n      pop\n      pop\n      pop\n      pop\n      pop\n      pop\n      jump\t// out\n        /* \"contracts/Pool/Pool.sol\":42141:42719  function _transferToExcluded(address sender, address recipient, uint256 tAmount) private {... */\n    tag_398:\n        /* \"contracts/Pool/Pool.sol\":42241:42256  uint256 rAmount */\n      0x00\n        /* \"contracts/Pool/Pool.sol\":42258:42281  uint256 rTransferAmount */\n      dup1\n        /* \"contracts/Pool/Pool.sol\":42283:42295  uint256 rFee */\n      0x00\n        /* \"contracts/Pool/Pool.sol\":42297:42320  uint256 tTransferAmount */\n      dup1\n        /* \"contracts/Pool/Pool.sol\":42322:42334  uint256 tFee */\n      0x00\n        /* \"contracts/Pool/Pool.sol\":42336:42354  uint256 tLiquidity */\n      dup1\n        /* \"contracts/Pool/Pool.sol\":42358:42377  _getValues(tAmount) */\n      tag_488\n        /* \"contracts/Pool/Pool.sol\":42369:42376  tAmount */\n      dup8\n        /* \"contracts/Pool/Pool.sol\":42358:42368  _getValues */\n      tag_247\n        /* \"contracts/Pool/Pool.sol\":42358:42377  _getValues(tAmount) */\n      jump\t// in\n    tag_488:\n        /* \"contracts/Pool/Pool.sol\":42240:42377  (uint256 rAmount, uint256 rTransferAmount, uint256 rFee, uint256 tTransferAmount, uint256 tFee, uint256 tLiquidity) = _getValues(tAmount) */\n      swap6\n      pop\n      swap6\n      pop\n      swap6\n      pop\n      swap6\n      pop\n      swap6\n      pop\n      swap6\n      pop\n        /* \"contracts/Pool/Pool.sol\":42405:42433  _rOwned[sender].sub(rAmount) */\n      tag_489\n        /* \"contracts/Pool/Pool.sol\":42425:42432  rAmount */\n      dup7\n        /* \"contracts/Pool/Pool.sol\":42405:42412  _rOwned */\n      0x03\n        /* \"contracts/Pool/Pool.sol\":42405:42420  _rOwned[sender] */\n      0x00\n        /* \"contracts/Pool/Pool.sol\":42413:42419  sender */\n      dup13\n        /* \"contracts/Pool/Pool.sol\":42405:42420  _rOwned[sender] */\n      0xffffffffffffffffffffffffffffffffffffffff\n      and\n      0xffffffffffffffffffffffffffffffffffffffff\n      and\n      dup2\n      mstore\n      0x20\n      add\n      swap1\n      dup2\n      mstore\n      0x20\n      add\n      0x00\n      keccak256\n      sload\n        /* \"contracts/Pool/Pool.sol\":42405:42424  _rOwned[sender].sub */\n      tag_249\n      swap1\n        /* \"contracts/Pool/Pool.sol\":42405:42433  _rOwned[sender].sub(rAmount) */\n      swap2\n      swap1\n      0xffffffff\n      and\n      jump\t// in\n    tag_489:\n        /* \"contracts/Pool/Pool.sol\":42387:42394  _rOwned */\n      0x03\n        /* \"contracts/Pool/Pool.sol\":42387:42402  _rOwned[sender] */\n      0x00\n        /* \"contracts/Pool/Pool.sol\":42395:42401  sender */\n      dup12\n        /* \"contracts/Pool/Pool.sol\":42387:42402  _rOwned[sender] */\n      0xffffffffffffffffffffffffffffffffffffffff\n      and\n      0xffffffffffffffffffffffffffffffffffffffff\n      and\n      dup2\n      mstore\n      0x20\n      add\n      swap1\n      dup2\n      mstore\n      0x20\n      add\n      0x00\n      keccak256\n        /* \"contracts/Pool/Pool.sol\":42387:42433  _rOwned[sender] = _rOwned[sender].sub(rAmount) */\n      dup2\n      swap1\n      sstore\n      pop\n        /* \"contracts/Pool/Pool.sol\":42464:42503  _tOwned[recipient].add(tTransferAmount) */\n      tag_490\n        /* \"contracts/Pool/Pool.sol\":42487:42502  tTransferAmount */\n      dup4\n        /* \"contracts/Pool/Pool.sol\":42464:42471  _tOwned */\n      0x04\n        /* \"contracts/Pool/Pool.sol\":42464:42482  _tOwned[recipient] */\n      0x00\n        /* \"contracts/Pool/Pool.sol\":42472:42481  recipient */\n      dup12\n        /* \"contracts/Pool/Pool.sol\":42464:42482  _tOwned[recipient] */\n      0xffffffffffffffffffffffffffffffffffffffff\n      and\n      0xffffffffffffffffffffffffffffffffffffffff\n      and\n      dup2\n      mstore\n      0x20\n      add\n      swap1\n      dup2\n      mstore\n      0x20\n      add\n      0x00\n      keccak256\n      sload\n        /* \"contracts/Pool/Pool.sol\":42464:42486  _tOwned[recipient].add */\n      tag_242\n      swap1\n        /* \"contracts/Pool/Pool.sol\":42464:42503  _tOwned[recipient].add(tTransferAmount) */\n      swap2\n      swap1\n      0xffffffff\n      and\n      jump\t// in\n    tag_490:\n        /* \"contracts/Pool/Pool.sol\":42443:42450  _tOwned */\n      0x04\n        /* \"contracts/Pool/Pool.sol\":42443:42461  _tOwned[recipient] */\n      0x00\n        /* \"contracts/Pool/Pool.sol\":42451:42460  recipient */\n      dup11\n        /* \"contracts/Pool/Pool.sol\":42443:42461  _tOwned[recipient] */\n      0xffffffffffffffffffffffffffffffffffffffff\n      and\n      0xffffffffffffffffffffffffffffffffffffffff\n      and\n      dup2\n      mstore\n      0x20\n      add\n      swap1\n      dup2\n      mstore\n      0x20\n      add\n      0x00\n      keccak256\n        /* \"contracts/Pool/Pool.sol\":42443:42503  _tOwned[recipient] = _tOwned[recipient].add(tTransferAmount) */\n      dup2\n      swap1\n      sstore\n      pop\n        /* \"contracts/Pool/Pool.sol\":42534:42573  _rOwned[recipient].add(rTransferAmount) */\n      tag_491\n        /* \"contracts/Pool/Pool.sol\":42557:42572  rTransferAmount */\n      dup6\n        /* \"contracts/Pool/Pool.sol\":42534:42541  _rOwned */\n      0x03\n        /* \"contracts/Pool/Pool.sol\":42534:42552  _rOwned[recipient] */\n      0x00\n        /* \"contracts/Pool/Pool.sol\":42542:42551  recipient */\n      dup12\n        /* \"contracts/Pool/Pool.sol\":42534:42552  _rOwned[recipient] */\n      0xffffffffffffffffffffffffffffffffffffffff\n      and\n      0xffffffffffffffffffffffffffffffffffffffff\n      and\n      dup2\n      mstore\n      0x20\n      add\n      swap1\n      dup2\n      mstore\n      0x20\n      add\n      0x00\n      keccak256\n      sload\n        /* \"contracts/Pool/Pool.sol\":42534:42556  _rOwned[recipient].add */\n      tag_242\n      swap1\n        /* \"contracts/Pool/Pool.sol\":42534:42573  _rOwned[recipient].add(rTransferAmount) */\n      swap2\n      swap1\n      0xffffffff\n      and\n      jump\t// in\n    tag_491:\n        /* \"contracts/Pool/Pool.sol\":42513:42520  _rOwned */\n      0x03\n        /* \"contracts/Pool/Pool.sol\":42513:42531  _rOwned[recipient] */\n      0x00\n        /* \"contracts/Pool/Pool.sol\":42521:42530  recipient */\n      dup11\n        /* \"contracts/Pool/Pool.sol\":42513:42531  _rOwned[recipient] */\n      0xffffffffffffffffffffffffffffffffffffffff\n      and\n      0xffffffffffffffffffffffffffffffffffffffff\n      and\n      dup2\n      mstore\n      0x20\n      add\n      swap1\n      dup2\n      mstore\n      0x20\n      add\n      0x00\n      keccak256\n        /* \"contracts/Pool/Pool.sol\":42513:42573  _rOwned[recipient] = _rOwned[recipient].add(rTransferAmount) */\n      dup2\n      swap1\n      sstore\n      pop\n        /* \"contracts/Pool/Pool.sol\":42594:42620  _takeLiquidity(tLiquidity) */\n      tag_492\n        /* \"contracts/Pool/Pool.sol\":42609:42619  tLiquidity */\n      dup2\n        /* \"contracts/Pool/Pool.sol\":42594:42608  _takeLiquidity */\n      tag_484\n        /* \"contracts/Pool/Pool.sol\":42594:42620  _takeLiquidity(tLiquidity) */\n      jump\t// in\n    tag_492:\n        /* \"contracts/Pool/Pool.sol\":42630:42653  _reflectFee(rFee, tFee) */\n      tag_493\n        /* \"contracts/Pool/Pool.sol\":42642:42646  rFee */\n      dup5\n        /* \"contracts/Pool/Pool.sol\":42648:42652  tFee */\n      dup4\n        /* \"contracts/Pool/Pool.sol\":42630:42641  _reflectFee */\n      tag_486\n        /* \"contracts/Pool/Pool.sol\":42630:42653  _reflectFee(rFee, tFee) */\n      jump\t// in\n    tag_493:\n        /* \"contracts/Pool/Pool.sol\":42685:42694  recipient */\n      dup8\n        /* \"contracts/Pool/Pool.sol\":42668:42712  Transfer(sender, recipient, tTransferAmount) */\n      0xffffffffffffffffffffffffffffffffffffffff\n      and\n        /* \"contracts/Pool/Pool.sol\":42677:42683  sender */\n      dup10\n        /* \"contracts/Pool/Pool.sol\":42668:42712  Transfer(sender, recipient, tTransferAmount) */\n      0xffffffffffffffffffffffffffffffffffffffff\n      and\n      0xddf252ad1be2c89b69c2b068fc378daa952ba7f163c4a11628f55a4df523b3ef\n        /* \"contracts/Pool/Pool.sol\":42696:42711  tTransferAmount */\n      dup6\n        /* \"contracts/Pool/Pool.sol\":42668:42712  Transfer(sender, recipient, tTransferAmount) */\n      mload(0x40)\n      dup1\n      dup3\n      dup2\n      mstore\n      0x20\n      add\n      swap2\n      pop\n      pop\n      mload(0x40)\n      dup1\n      swap2\n      sub\n      swap1\n      log3\n        /* \"contracts/Pool/Pool.sol\":42141:42719  function _transferToExcluded(address sender, address recipient, uint256 tAmount) private {... */\n      pop\n      pop\n      pop\n      pop\n      pop\n      pop\n      pop\n      pop\n      pop\n      jump\t// out\n        /* \"contracts/Pool/Pool.sol\":41640:42135  function _transferStandard(address sender, address recipient, uint256 tAmount) private {... */\n    tag_403:\n        /* \"contracts/Pool/Pool.sol\":41738:41753  uint256 rAmount */\n      0x00\n        /* \"contracts/Pool/Pool.sol\":41755:41778  uint256 rTransferAmount */\n      dup1\n        /* \"contracts/Pool/Pool.sol\":41780:41792  uint256 rFee */\n      0x00\n        /* \"contracts/Pool/Pool.sol\":41794:41817  uint256 tTransferAmount */\n      dup1\n        /* \"contracts/Pool/Pool.sol\":41819:41831  uint256 tFee */\n      0x00\n        /* \"contracts/Pool/Pool.sol\":41833:41851  uint256 tLiquidity */\n      dup1\n        /* \"contracts/Pool/Pool.sol\":41855:41874  _getValues(tAmount) */\n      tag_495\n        /* \"contracts/Pool/Pool.sol\":41866:41873  tAmount */\n      dup8\n        /* \"contracts/Pool/Pool.sol\":41855:41865  _getValues */\n      tag_247\n        /* \"contracts/Pool/Pool.sol\":41855:41874  _getValues(tAmount) */\n      jump\t// in\n    tag_495:\n        /* \"contracts/Pool/Pool.sol\":41737:41874  (uint256 rAmount, uint256 rTransferAmount, uint256 rFee, uint256 tTransferAmount, uint256 tFee, uint256 tLiquidity) = _getValues(tAmount) */\n      swap6\n      pop\n      swap6\n      pop\n      swap6\n      pop\n      swap6\n      pop\n      swap6\n      pop\n      swap6\n      pop\n        /* \"contracts/Pool/Pool.sol\":41902:41930  _rOwned[sender].sub(rAmount) */\n      tag_496\n        /* \"contracts/Pool/Pool.sol\":41922:41929  rAmount */\n      dup7\n        /* \"contracts/Pool/Pool.sol\":41902:41909  _rOwned */\n      0x03\n        /* \"contracts/Pool/Pool.sol\":41902:41917  _rOwned[sender] */\n      0x00\n        /* \"contracts/Pool/Pool.sol\":41910:41916  sender */\n      dup13\n        /* \"contracts/Pool/Pool.sol\":41902:41917  _rOwned[sender] */\n      0xffffffffffffffffffffffffffffffffffffffff\n      and\n      0xffffffffffffffffffffffffffffffffffffffff\n      and\n      dup2\n      mstore\n      0x20\n      add\n      swap1\n      dup2\n      mstore\n      0x20\n      add\n      0x00\n      keccak256\n      sload\n        /* \"contracts/Pool/Pool.sol\":41902:41921  _rOwned[sender].sub */\n      tag_249\n      swap1\n        /* \"contracts/Pool/Pool.sol\":41902:41930  _rOwned[sender].sub(rAmount) */\n      swap2\n      swap1\n      0xffffffff\n      and\n      jump\t// in\n    tag_496:\n        /* \"contracts/Pool/Pool.sol\":41884:41891  _rOwned */\n      0x03\n        /* \"contracts/Pool/Pool.sol\":41884:41899  _rOwned[sender] */\n      0x00\n        /* \"contracts/Pool/Pool.sol\":41892:41898  sender */\n      dup12\n        /* \"contracts/Pool/Pool.sol\":41884:41899  _rOwned[sender] */\n      0xffffffffffffffffffffffffffffffffffffffff\n      and\n      0xffffffffffffffffffffffffffffffffffffffff\n      and\n      dup2\n      mstore\n      0x20\n      add\n      swap1\n      dup2\n      mstore\n      0x20\n      add\n      0x00\n      keccak256\n        /* \"contracts/Pool/Pool.sol\":41884:41930  _rOwned[sender] = _rOwned[sender].sub(rAmount) */\n      dup2\n      swap1\n      sstore\n      pop\n        /* \"contracts/Pool/Pool.sol\":41961:42000  _rOwned[recipient].add(rTransferAmount) */\n      tag_497\n        /* \"contracts/Pool/Pool.sol\":41984:41999  rTransferAmount */\n      dup6\n        /* \"contracts/Pool/Pool.sol\":41961:41968  _rOwned */\n      0x03\n        /* \"contracts/Pool/Pool.sol\":41961:41979  _rOwned[recipient] */\n      0x00\n        /* \"contracts/Pool/Pool.sol\":41969:41978  recipient */\n      dup12\n        /* \"contracts/Pool/Pool.sol\":41961:41979  _rOwned[recipient] */\n      0xffffffffffffffffffffffffffffffffffffffff\n      and\n      0xffffffffffffffffffffffffffffffffffffffff\n      and\n      dup2\n      mstore\n      0x20\n      add\n      swap1\n      dup2\n      mstore\n      0x20\n      add\n      0x00\n      keccak256\n      sload\n        /* \"contracts/Pool/Pool.sol\":41961:41983  _rOwned[recipient].add */\n      tag_242\n      swap1\n        /* \"contracts/Pool/Pool.sol\":41961:42000  _rOwned[recipient].add(rTransferAmount) */\n      swap2\n      swap1\n      0xffffffff\n      and\n      jump\t// in\n    tag_497:\n        /* \"contracts/Pool/Pool.sol\":41940:41947  _rOwned */\n      0x03\n        /* \"contracts/Pool/Pool.sol\":41940:41958  _rOwned[recipient] */\n      0x00\n        /* \"contracts/Pool/Pool.sol\":41948:41957  recipient */\n      dup11\n        /* \"contracts/Pool/Pool.sol\":41940:41958  _rOwned[recipient] */\n      0xffffffffffffffffffffffffffffffffffffffff\n      and\n      0xffffffffffffffffffffffffffffffffffffffff\n      and\n      dup2\n      mstore\n      0x20\n      add\n      swap1\n      dup2\n      mstore\n      0x20\n      add\n      0x00\n      keccak256\n        /* \"contracts/Pool/Pool.sol\":41940:42000  _rOwned[recipient] = _rOwned[recipient].add(rTransferAmount) */\n      dup2\n      swap1\n      sstore\n      pop\n        /* \"contracts/Pool/Pool.sol\":42010:42036  _takeLiquidity(tLiquidity) */\n      tag_498\n        /* \"contracts/Pool/Pool.sol\":42025:42035  tLiquidity */\n      dup2\n        /* \"contracts/Pool/Pool.sol\":42010:42024  _takeLiquidity */\n      tag_484\n        /* \"contracts/Pool/Pool.sol\":42010:42036  _takeLiquidity(tLiquidity) */\n      jump\t// in\n    tag_498:\n        /* \"contracts/Pool/Pool.sol\":42046:42069  _reflectFee(rFee, tFee) */\n      tag_499\n        /* \"contracts/Pool/Pool.sol\":42058:42062  rFee */\n      dup5\n        /* \"contracts/Pool/Pool.sol\":42064:42068  tFee */\n      dup4\n        /* \"contracts/Pool/Pool.sol\":42046:42057  _reflectFee */\n      tag_486\n        /* \"contracts/Pool/Pool.sol\":42046:42069  _reflectFee(rFee, tFee) */\n      jump\t// in\n    tag_499:\n        /* \"contracts/Pool/Pool.sol\":42101:42110  recipient */\n      dup8\n        /* \"contracts/Pool/Pool.sol\":42084:42128  Transfer(sender, recipient, tTransferAmount) */\n      0xffffffffffffffffffffffffffffffffffffffff\n      and\n        /* \"contracts/Pool/Pool.sol\":42093:42099  sender */\n      dup10\n        /* \"contracts/Pool/Pool.sol\":42084:42128  Transfer(sender, recipient, tTransferAmount) */\n      0xffffffffffffffffffffffffffffffffffffffff\n      and\n      0xddf252ad1be2c89b69c2b068fc378daa952ba7f163c4a11628f55a4df523b3ef\n        /* \"contracts/Pool/Pool.sol\":42112:42127  tTransferAmount */\n      dup6\n        /* \"contracts/Pool/Pool.sol\":42084:42128  Transfer(sender, recipient, tTransferAmount) */\n      mload(0x40)\n      dup1\n      dup3\n      dup2\n      mstore\n      0x20\n      add\n      swap2\n      pop\n      pop\n      mload(0x40)\n      dup1\n      swap2\n      sub\n      swap1\n      log3\n        /* \"contracts/Pool/Pool.sol\":41640:42135  function _transferStandard(address sender, address recipient, uint256 tAmount) private {... */\n      pop\n      pop\n      pop\n      pop\n      pop\n      pop\n      pop\n      pop\n      pop\n      jump\t// out\n        /* \"contracts/Pool/Pool.sol\":31771:32404  function _transferBothExcluded(address sender, address recipient, uint256 tAmount) private {... */\n    tag_408:\n        /* \"contracts/Pool/Pool.sol\":31873:31888  uint256 rAmount */\n      0x00\n        /* \"contracts/Pool/Pool.sol\":31890:31913  uint256 rTransferAmount */\n      dup1\n        /* \"contracts/Pool/Pool.sol\":31915:31927  uint256 rFee */\n      0x00\n        /* \"contracts/Pool/Pool.sol\":31929:31952  uint256 tTransferAmount */\n      dup1\n        /* \"contracts/Pool/Pool.sol\":31954:31966  uint256 tFee */\n      0x00\n        /* \"contracts/Pool/Pool.sol\":31968:31986  uint256 tLiquidity */\n      dup1\n        /* \"contracts/Pool/Pool.sol\":31990:32009  _getValues(tAmount) */\n      tag_501\n        /* \"contracts/Pool/Pool.sol\":32001:32008  tAmount */\n      dup8\n        /* \"contracts/Pool/Pool.sol\":31990:32000  _getValues */\n      tag_247\n        /* \"contracts/Pool/Pool.sol\":31990:32009  _getValues(tAmount) */\n      jump\t// in\n    tag_501:\n        /* \"contracts/Pool/Pool.sol\":31872:32009  (uint256 rAmount, uint256 rTransferAmount, uint256 rFee, uint256 tTransferAmount, uint256 tFee, uint256 tLiquidity) = _getValues(tAmount) */\n      swap6\n      pop\n      swap6\n      pop\n      swap6\n      pop\n      swap6\n      pop\n      swap6\n      pop\n      swap6\n      pop\n        /* \"contracts/Pool/Pool.sol\":32037:32065  _tOwned[sender].sub(tAmount) */\n      tag_502\n        /* \"contracts/Pool/Pool.sol\":32057:32064  tAmount */\n      dup8\n        /* \"contracts/Pool/Pool.sol\":32037:32044  _tOwned */\n      0x04\n        /* \"contracts/Pool/Pool.sol\":32037:32052  _tOwned[sender] */\n      0x00\n        /* \"contracts/Pool/Pool.sol\":32045:32051  sender */\n      dup13\n        /* \"contracts/Pool/Pool.sol\":32037:32052  _tOwned[sender] */\n      0xffffffffffffffffffffffffffffffffffffffff\n      and\n      0xffffffffffffffffffffffffffffffffffffffff\n      and\n      dup2\n      mstore\n      0x20\n      add\n      swap1\n      dup2\n      mstore\n      0x20\n      add\n      0x00\n      keccak256\n      sload\n        /* \"contracts/Pool/Pool.sol\":32037:32056  _tOwned[sender].sub */\n      tag_249\n      swap1\n        /* \"contracts/Pool/Pool.sol\":32037:32065  _tOwned[sender].sub(tAmount) */\n      swap2\n      swap1\n      0xffffffff\n      and\n      jump\t// in\n    tag_502:\n        /* \"contracts/Pool/Pool.sol\":32019:32026  _tOwned */\n      0x04\n        /* \"contracts/Pool/Pool.sol\":32019:32034  _tOwned[sender] */\n      0x00\n        /* \"contracts/Pool/Pool.sol\":32027:32033  sender */\n      dup12\n        /* \"contracts/Pool/Pool.sol\":32019:32034  _tOwned[sender] */\n      0xffffffffffffffffffffffffffffffffffffffff\n      and\n      0xffffffffffffffffffffffffffffffffffffffff\n      and\n      dup2\n      mstore\n      0x20\n      add\n      swap1\n      dup2\n      mstore\n      0x20\n      add\n      0x00\n      keccak256\n        /* \"contracts/Pool/Pool.sol\":32019:32065  _tOwned[sender] = _tOwned[sender].sub(tAmount) */\n      dup2\n      swap1\n      sstore\n      pop\n        /* \"contracts/Pool/Pool.sol\":32093:32121  _rOwned[sender].sub(rAmount) */\n      tag_503\n        /* \"contracts/Pool/Pool.sol\":32113:32120  rAmount */\n      dup7\n        /* \"contracts/Pool/Pool.sol\":32093:32100  _rOwned */\n      0x03\n        /* \"contracts/Pool/Pool.sol\":32093:32108  _rOwned[sender] */\n      0x00\n        /* \"contracts/Pool/Pool.sol\":32101:32107  sender */\n      dup13\n        /* \"contracts/Pool/Pool.sol\":32093:32108  _rOwned[sender] */\n      0xffffffffffffffffffffffffffffffffffffffff\n      and\n      0xffffffffffffffffffffffffffffffffffffffff\n      and\n      dup2\n      mstore\n      0x20\n      add\n      swap1\n      dup2\n      mstore\n      0x20\n      add\n      0x00\n      keccak256\n      sload\n        /* \"contracts/Pool/Pool.sol\":32093:32112  _rOwned[sender].sub */\n      tag_249\n      swap1\n        /* \"contracts/Pool/Pool.sol\":32093:32121  _rOwned[sender].sub(rAmount) */\n      swap2\n      swap1\n      0xffffffff\n      and\n      jump\t// in\n    tag_503:\n        /* \"contracts/Pool/Pool.sol\":32075:32082  _rOwned */\n      0x03\n        /* \"contracts/Pool/Pool.sol\":32075:32090  _rOwned[sender] */\n      0x00\n        /* \"contracts/Pool/Pool.sol\":32083:32089  sender */\n      dup12\n        /* \"contracts/Pool/Pool.sol\":32075:32090  _rOwned[sender] */\n      0xffffffffffffffffffffffffffffffffffffffff\n      and\n      0xffffffffffffffffffffffffffffffffffffffff\n      and\n      dup2\n      mstore\n      0x20\n      add\n      swap1\n      dup2\n      mstore\n      0x20\n      add\n      0x00\n      keccak256\n        /* \"contracts/Pool/Pool.sol\":32075:32121  _rOwned[sender] = _rOwned[sender].sub(rAmount) */\n      dup2\n      swap1\n      sstore\n      pop\n        /* \"contracts/Pool/Pool.sol\":32152:32191  _tOwned[recipient].add(tTransferAmount) */\n      tag_504\n        /* \"contracts/Pool/Pool.sol\":32175:32190  tTransferAmount */\n      dup4\n        /* \"contracts/Pool/Pool.sol\":32152:32159  _tOwned */\n      0x04\n        /* \"contracts/Pool/Pool.sol\":32152:32170  _tOwned[recipient] */\n      0x00\n        /* \"contracts/Pool/Pool.sol\":32160:32169  recipient */\n      dup12\n        /* \"contracts/Pool/Pool.sol\":32152:32170  _tOwned[recipient] */\n      0xffffffffffffffffffffffffffffffffffffffff\n      and\n      0xffffffffffffffffffffffffffffffffffffffff\n      and\n      dup2\n      mstore\n      0x20\n      add\n      swap1\n      dup2\n      mstore\n      0x20\n      add\n      0x00\n      keccak256\n      sload\n        /* \"contracts/Pool/Pool.sol\":32152:32174  _tOwned[recipient].add */\n      tag_242\n      swap1\n        /* \"contracts/Pool/Pool.sol\":32152:32191  _tOwned[recipient].add(tTransferAmount) */\n      swap2\n      swap1\n      0xffffffff\n      and\n      jump\t// in\n    tag_504:\n        /* \"contracts/Pool/Pool.sol\":32131:32138  _tOwned */\n      0x04\n        /* \"contracts/Pool/Pool.sol\":32131:32149  _tOwned[recipient] */\n      0x00\n        /* \"contracts/Pool/Pool.sol\":32139:32148  recipient */\n      dup11\n        /* \"contracts/Pool/Pool.sol\":32131:32149  _tOwned[recipient] */\n      0xffffffffffffffffffffffffffffffffffffffff\n      and\n      0xffffffffffffffffffffffffffffffffffffffff\n      and\n      dup2\n      mstore\n      0x20\n      add\n      swap1\n      dup2\n      mstore\n      0x20\n      add\n      0x00\n      keccak256\n        /* \"contracts/Pool/Pool.sol\":32131:32191  _tOwned[recipient] = _tOwned[recipient].add(tTransferAmount) */\n      dup2\n      swap1\n      sstore\n      pop\n        /* \"contracts/Pool/Pool.sol\":32222:32261  _rOwned[recipient].add(rTransferAmount) */\n      tag_505\n        /* \"contracts/Pool/Pool.sol\":32245:32260  rTransferAmount */\n      dup6\n        /* \"contracts/Pool/Pool.sol\":32222:32229  _rOwned */\n      0x03\n        /* \"contracts/Pool/Pool.sol\":32222:32240  _rOwned[recipient] */\n      0x00\n        /* \"contracts/Pool/Pool.sol\":32230:32239  recipient */\n      dup12\n        /* \"contracts/Pool/Pool.sol\":32222:32240  _rOwned[recipient] */\n      0xffffffffffffffffffffffffffffffffffffffff\n      and\n      0xffffffffffffffffffffffffffffffffffffffff\n      and\n      dup2\n      mstore\n      0x20\n      add\n      swap1\n      dup2\n      mstore\n      0x20\n      add\n      0x00\n      keccak256\n      sload\n        /* \"contracts/Pool/Pool.sol\":32222:32244  _rOwned[recipient].add */\n      tag_242\n      swap1\n        /* \"contracts/Pool/Pool.sol\":32222:32261  _rOwned[recipient].add(rTransferAmount) */\n      swap2\n      swap1\n      0xffffffff\n      and\n      jump\t// in\n    tag_505:\n        /* \"contracts/Pool/Pool.sol\":32201:32208  _rOwned */\n      0x03\n        /* \"contracts/Pool/Pool.sol\":32201:32219  _rOwned[recipient] */\n      0x00\n        /* \"contracts/Pool/Pool.sol\":32209:32218  recipient */\n      dup11\n        /* \"contracts/Pool/Pool.sol\":32201:32219  _rOwned[recipient] */\n      0xffffffffffffffffffffffffffffffffffffffff\n      and\n      0xffffffffffffffffffffffffffffffffffffffff\n      and\n      dup2\n      mstore\n      0x20\n      add\n      swap1\n      dup2\n      mstore\n      0x20\n      add\n      0x00\n      keccak256\n        /* \"contracts/Pool/Pool.sol\":32201:32261  _rOwned[recipient] = _rOwned[recipient].add(rTransferAmount) */\n      dup2\n      swap1\n      sstore\n      pop\n        /* \"contracts/Pool/Pool.sol\":32279:32305  _takeLiquidity(tLiquidity) */\n      tag_506\n        /* \"contracts/Pool/Pool.sol\":32294:32304  tLiquidity */\n      dup2\n        /* \"contracts/Pool/Pool.sol\":32279:32293  _takeLiquidity */\n      tag_484\n        /* \"contracts/Pool/Pool.sol\":32279:32305  _takeLiquidity(tLiquidity) */\n      jump\t// in\n    tag_506:\n        /* \"contracts/Pool/Pool.sol\":32315:32338  _reflectFee(rFee, tFee) */\n      tag_507\n        /* \"contracts/Pool/Pool.sol\":32327:32331  rFee */\n      dup5\n        /* \"contracts/Pool/Pool.sol\":32333:32337  tFee */\n      dup4\n        /* \"contracts/Pool/Pool.sol\":32315:32326  _reflectFee */\n      tag_486\n        /* \"contracts/Pool/Pool.sol\":32315:32338  _reflectFee(rFee, tFee) */\n      jump\t// in\n    tag_507:\n        /* \"contracts/Pool/Pool.sol\":32370:32379  recipient */\n      dup8\n        /* \"contracts/Pool/Pool.sol\":32353:32397  Transfer(sender, recipient, tTransferAmount) */\n      0xffffffffffffffffffffffffffffffffffffffff\n      and\n        /* \"contracts/Pool/Pool.sol\":32362:32368  sender */\n      dup10\n        /* \"contracts/Pool/Pool.sol\":32353:32397  Transfer(sender, recipient, tTransferAmount) */\n      0xffffffffffffffffffffffffffffffffffffffff\n      and\n      0xddf252ad1be2c89b69c2b068fc378daa952ba7f163c4a11628f55a4df523b3ef\n        /* \"contracts/Pool/Pool.sol\":32381:32396  tTransferAmount */\n      dup6\n        /* \"contracts/Pool/Pool.sol\":32353:32397  Transfer(sender, recipient, tTransferAmount) */\n      mload(0x40)\n      dup1\n      dup3\n      dup2\n      mstore\n      0x20\n      add\n      swap2\n      pop\n      pop\n      mload(0x40)\n      dup1\n      swap2\n      sub\n      swap1\n      log3\n        /* \"contracts/Pool/Pool.sol\":31771:32404  function _transferBothExcluded(address sender, address recipient, uint256 tAmount) private {... */\n      pop\n      pop\n      pop\n      pop\n      pop\n      pop\n      pop\n      pop\n      pop\n      jump\t// out\n        /* \"contracts/Pool/Pool.sol\":36320:36442  function restoreAllFee() private {... */\n    tag_413:\n        /* \"contracts/Pool/Pool.sol\":36373:36388  _previousTaxFee */\n      sload(0x10)\n        /* \"contracts/Pool/Pool.sol\":36363:36370  _taxFee */\n      0x0f\n        /* \"contracts/Pool/Pool.sol\":36363:36388  _taxFee = _previousTaxFee */\n      dup2\n      swap1\n      sstore\n      pop\n        /* \"contracts/Pool/Pool.sol\":36414:36435  _previousLiquidityFee */\n      sload(0x12)\n        /* \"contracts/Pool/Pool.sol\":36398:36411  _liquidityFee */\n      0x11\n        /* \"contracts/Pool/Pool.sol\":36398:36435  _liquidityFee = _previousLiquidityFee */\n      dup2\n      swap1\n      sstore\n      pop\n        /* \"contracts/Pool/Pool.sol\":36320:36442  function restoreAllFee() private {... */\n      jump\t// out\n        /* \"contracts/Pool/Pool.sol\":35740:35890  function calculateTaxFee(uint256 _amount) private view returns (uint256) {... */\n    tag_441:\n        /* \"contracts/Pool/Pool.sol\":35804:35811  uint256 */\n      0x00\n        /* \"contracts/Pool/Pool.sol\":35830:35883  _amount.mul(_taxFee).div(... */\n      tag_510\n        /* \"contracts/Pool/Pool.sol\":35868:35873  10**2 */\n      0x64\n        /* \"contracts/Pool/Pool.sol\":35830:35850  _amount.mul(_taxFee) */\n      tag_511\n        /* \"contracts/Pool/Pool.sol\":35842:35849  _taxFee */\n      sload(0x0f)\n        /* \"contracts/Pool/Pool.sol\":35830:35837  _amount */\n      dup6\n        /* \"contracts/Pool/Pool.sol\":35830:35841  _amount.mul */\n      tag_310\n      swap1\n        /* \"contracts/Pool/Pool.sol\":35830:35850  _amount.mul(_taxFee) */\n      swap2\n      swap1\n      0xffffffff\n      and\n      jump\t// in\n    tag_511:\n        /* \"contracts/Pool/Pool.sol\":35830:35854  _amount.mul(_taxFee).div */\n      tag_218\n      swap1\n        /* \"contracts/Pool/Pool.sol\":35830:35883  _amount.mul(_taxFee).div(... */\n      swap2\n      swap1\n      0xffffffff\n      and\n      jump\t// in\n    tag_510:\n        /* \"contracts/Pool/Pool.sol\":35823:35883  return _amount.mul(_taxFee).div(... */\n      swap1\n      pop\n        /* \"contracts/Pool/Pool.sol\":35740:35890  function calculateTaxFee(uint256 _amount) private view returns (uint256) {... */\n      swap2\n      swap1\n      pop\n      jump\t// out\n        /* \"contracts/Pool/Pool.sol\":35896:36058  function calculateLiquidityFee(uint256 _amount) private view returns (uint256) {... */\n    tag_443:\n        /* \"contracts/Pool/Pool.sol\":35966:35973  uint256 */\n      0x00\n        /* \"contracts/Pool/Pool.sol\":35992:36051  _amount.mul(_liquidityFee).div(... */\n      tag_513\n        /* \"contracts/Pool/Pool.sol\":36036:36041  10**2 */\n      0x64\n        /* \"contracts/Pool/Pool.sol\":35992:36018  _amount.mul(_liquidityFee) */\n      tag_514\n        /* \"contracts/Pool/Pool.sol\":36004:36017  _liquidityFee */\n      sload(0x11)\n        /* \"contracts/Pool/Pool.sol\":35992:35999  _amount */\n      dup6\n        /* \"contracts/Pool/Pool.sol\":35992:36003  _amount.mul */\n      tag_310\n      swap1\n        /* \"contracts/Pool/Pool.sol\":35992:36018  _amount.mul(_liquidityFee) */\n      swap2\n      swap1\n      0xffffffff\n      and\n      jump\t// in\n    tag_514:\n        /* \"contracts/Pool/Pool.sol\":35992:36022  _amount.mul(_liquidityFee).div */\n      tag_218\n      swap1\n        /* \"contracts/Pool/Pool.sol\":35992:36051  _amount.mul(_liquidityFee).div(... */\n      swap2\n      swap1\n      0xffffffff\n      and\n      jump\t// in\n    tag_513:\n        /* \"contracts/Pool/Pool.sol\":35985:36051  return _amount.mul(_liquidityFee).div(... */\n      swap1\n      pop\n        /* \"contracts/Pool/Pool.sol\":35896:36058  function calculateLiquidityFee(uint256 _amount) private view returns (uint256) {... */\n      swap2\n      swap1\n      pop\n      jump\t// out\n        /* \"contracts/Pool/Pool.sol\":35381:35730  function _takeLiquidity(uint256 tLiquidity) private {... */\n    tag_484:\n        /* \"contracts/Pool/Pool.sol\":35443:35462  uint256 currentRate */\n      0x00\n        /* \"contracts/Pool/Pool.sol\":35466:35476  _getRate() */\n      tag_516\n        /* \"contracts/Pool/Pool.sol\":35466:35474  _getRate */\n      tag_216\n        /* \"contracts/Pool/Pool.sol\":35466:35476  _getRate() */\n      jump\t// in\n    tag_516:\n        /* \"contracts/Pool/Pool.sol\":35443:35476  uint256 currentRate =  _getRate() */\n      swap1\n      pop\n        /* \"contracts/Pool/Pool.sol\":35486:35504  uint256 rLiquidity */\n      0x00\n        /* \"contracts/Pool/Pool.sol\":35507:35534  tLiquidity.mul(currentRate) */\n      tag_517\n        /* \"contracts/Pool/Pool.sol\":35522:35533  currentRate */\n      dup3\n        /* \"contracts/Pool/Pool.sol\":35507:35517  tLiquidity */\n      dup5\n        /* \"contracts/Pool/Pool.sol\":35507:35521  tLiquidity.mul */\n      tag_310\n      swap1\n        /* \"contracts/Pool/Pool.sol\":35507:35534  tLiquidity.mul(currentRate) */\n      swap2\n      swap1\n      0xffffffff\n      and\n      jump\t// in\n    tag_517:\n        /* \"contracts/Pool/Pool.sol\":35486:35534  uint256 rLiquidity = tLiquidity.mul(currentRate) */\n      swap1\n      pop\n        /* \"contracts/Pool/Pool.sol\":35569:35607  _rOwned[address(this)].add(rLiquidity) */\n      tag_518\n        /* \"contracts/Pool/Pool.sol\":35596:35606  rLiquidity */\n      dup2\n        /* \"contracts/Pool/Pool.sol\":35569:35576  _rOwned */\n      0x03\n        /* \"contracts/Pool/Pool.sol\":35569:35591  _rOwned[address(this)] */\n      0x00\n        /* \"contracts/Pool/Pool.sol\":35585:35589  this */\n      address\n        /* \"contracts/Pool/Pool.sol\":35569:35591  _rOwned[address(this)] */\n      0xffffffffffffffffffffffffffffffffffffffff\n      and\n      0xffffffffffffffffffffffffffffffffffffffff\n      and\n      dup2\n      mstore\n      0x20\n      add\n      swap1\n      dup2\n      mstore\n      0x20\n      add\n      0x00\n      keccak256\n      sload\n        /* \"contracts/Pool/Pool.sol\":35569:35595  _rOwned[address(this)].add */\n      tag_242\n      swap1\n        /* \"contracts/Pool/Pool.sol\":35569:35607  _rOwned[address(this)].add(rLiquidity) */\n      swap2\n      swap1\n      0xffffffff\n      and\n      jump\t// in\n    tag_518:\n        /* \"contracts/Pool/Pool.sol\":35544:35551  _rOwned */\n      0x03\n        /* \"contracts/Pool/Pool.sol\":35544:35566  _rOwned[address(this)] */\n      0x00\n        /* \"contracts/Pool/Pool.sol\":35560:35564  this */\n      address\n        /* \"contracts/Pool/Pool.sol\":35544:35566  _rOwned[address(this)] */\n      0xffffffffffffffffffffffffffffffffffffffff\n      and\n      0xffffffffffffffffffffffffffffffffffffffff\n      and\n      dup2\n      mstore\n      0x20\n      add\n      swap1\n      dup2\n      mstore\n      0x20\n      add\n      0x00\n      keccak256\n        /* \"contracts/Pool/Pool.sol\":35544:35607  _rOwned[address(this)] = _rOwned[address(this)].add(rLiquidity) */\n      dup2\n      swap1\n      sstore\n      pop\n        /* \"contracts/Pool/Pool.sol\":35620:35631  _isExcluded */\n      0x07\n        /* \"contracts/Pool/Pool.sol\":35620:35646  _isExcluded[address(this)] */\n      0x00\n        /* \"contracts/Pool/Pool.sol\":35640:35644  this */\n      address\n        /* \"contracts/Pool/Pool.sol\":35620:35646  _isExcluded[address(this)] */\n      0xffffffffffffffffffffffffffffffffffffffff\n      and\n      0xffffffffffffffffffffffffffffffffffffffff\n      and\n      dup2\n      mstore\n      0x20\n      add\n      swap1\n      dup2\n      mstore\n      0x20\n      add\n      0x00\n      keccak256\n      0x00\n      swap1\n      sload\n      swap1\n      0x0100\n      exp\n      swap1\n      div\n      0xff\n      and\n        /* \"contracts/Pool/Pool.sol\":35617:35723  if(_isExcluded[address(this)])... */\n      iszero\n      tag_519\n      jumpi\n        /* \"contracts/Pool/Pool.sol\":35685:35723  _tOwned[address(this)].add(tLiquidity) */\n      tag_520\n        /* \"contracts/Pool/Pool.sol\":35712:35722  tLiquidity */\n      dup4\n        /* \"contracts/Pool/Pool.sol\":35685:35692  _tOwned */\n      0x04\n        /* \"contracts/Pool/Pool.sol\":35685:35707  _tOwned[address(this)] */\n      0x00\n        /* \"contracts/Pool/Pool.sol\":35701:35705  this */\n      address\n        /* \"contracts/Pool/Pool.sol\":35685:35707  _tOwned[address(this)] */\n      0xffffffffffffffffffffffffffffffffffffffff\n      and\n      0xffffffffffffffffffffffffffffffffffffffff\n      and\n      dup2\n      mstore\n      0x20\n      add\n      swap1\n      dup2\n      mstore\n      0x20\n      add\n      0x00\n      keccak256\n      sload\n        /* \"contracts/Pool/Pool.sol\":35685:35711  _tOwned[address(this)].add */\n      tag_242\n      swap1\n        /* \"contracts/Pool/Pool.sol\":35685:35723  _tOwned[address(this)].add(tLiquidity) */\n      swap2\n      swap1\n      0xffffffff\n      and\n      jump\t// in\n    tag_520:\n        /* \"contracts/Pool/Pool.sol\":35660:35667  _tOwned */\n      0x04\n        /* \"contracts/Pool/Pool.sol\":35660:35682  _tOwned[address(this)] */\n      0x00\n        /* \"contracts/Pool/Pool.sol\":35676:35680  this */\n      address\n        /* \"contracts/Pool/Pool.sol\":35660:35682  _tOwned[address(this)] */\n      0xffffffffffffffffffffffffffffffffffffffff\n      and\n      0xffffffffffffffffffffffffffffffffffffffff\n      and\n      dup2\n      mstore\n      0x20\n      add\n      swap1\n      dup2\n      mstore\n      0x20\n      add\n      0x00\n      keccak256\n        /* \"contracts/Pool/Pool.sol\":35660:35723  _tOwned[address(this)] = _tOwned[address(this)].add(tLiquidity) */\n      dup2\n      swap1\n      sstore\n      pop\n        /* \"contracts/Pool/Pool.sol\":35617:35723  if(_isExcluded[address(this)])... */\n    tag_519:\n        /* \"contracts/Pool/Pool.sol\":35381:35730  function _takeLiquidity(uint256 tLiquidity) private {... */\n      pop\n      pop\n      pop\n      jump\t// out\n        /* \"contracts/Pool/Pool.sol\":33323:33467  function _reflectFee(uint256 rFee, uint256 tFee) private {... */\n    tag_486:\n        /* \"contracts/Pool/Pool.sol\":33400:33417  _rTotal.sub(rFee) */\n      tag_522\n        /* \"contracts/Pool/Pool.sol\":33412:33416  rFee */\n      dup3\n        /* \"contracts/Pool/Pool.sol\":33400:33407  _rTotal */\n      sload(0x0a)\n        /* \"contracts/Pool/Pool.sol\":33400:33411  _rTotal.sub */\n      tag_249\n      swap1\n        /* \"contracts/Pool/Pool.sol\":33400:33417  _rTotal.sub(rFee) */\n      swap2\n      swap1\n      0xffffffff\n      and\n      jump\t// in\n    tag_522:\n        /* \"contracts/Pool/Pool.sol\":33390:33397  _rTotal */\n      0x0a\n        /* \"contracts/Pool/Pool.sol\":33390:33417  _rTotal = _rTotal.sub(rFee) */\n      dup2\n      swap1\n      sstore\n      pop\n        /* \"contracts/Pool/Pool.sol\":33440:33460  _tFeeTotal.add(tFee) */\n      tag_523\n        /* \"contracts/Pool/Pool.sol\":33455:33459  tFee */\n      dup2\n        /* \"contracts/Pool/Pool.sol\":33440:33450  _tFeeTotal */\n      sload(0x0b)\n        /* \"contracts/Pool/Pool.sol\":33440:33454  _tFeeTotal.add */\n      tag_242\n      swap1\n        /* \"contracts/Pool/Pool.sol\":33440:33460  _tFeeTotal.add(tFee) */\n      swap2\n      swap1\n      0xffffffff\n      and\n      jump\t// in\n    tag_523:\n        /* \"contracts/Pool/Pool.sol\":33427:33437  _tFeeTotal */\n      0x0b\n        /* \"contracts/Pool/Pool.sol\":33427:33460  _tFeeTotal = _tFeeTotal.add(tFee) */\n      dup2\n      swap1\n      sstore\n      pop\n        /* \"contracts/Pool/Pool.sol\":33323:33467  function _reflectFee(uint256 rFee, uint256 tFee) private {... */\n      pop\n      pop\n      jump\t// out\n    stop\n    data_0557e210f7a69a685100a7e4e3d0a7024c546085cee28910fd17d0b081d9516f 45524332303a207472616e7366657220746f20746865207a65726f2061646472657373\n    data_22f7af55a509c3b14f0d528f087748dec8a8bf425135e3f5dc28c6a31ec6d812 416d6f756e74206d757374206265206c657373207468616e20746f74616c207265666c656374696f6e73\n    data_245f15ff17f551913a7a18385165551503906a406f905ac1c2437281a7cd0cfe 4f776e61626c653a206e6577206f776e657220697320746865207a65726f2061646472657373\n    data_24883cc5fe64ace9d0df1893501ecb93c77180f0ff69cca79affb3c316dc8029 45524332303a20617070726f766520746f20746865207a65726f2061646472657373\n    data_72052210969ce5fd88e52b5e685de9548acef9bb1b6d02e29c1765d0674948dd 5472616e7366657220616d6f756e74206578636565647320746865206d61785478416d6f756e742e\n    data_9113bb53c2876a3805b2c9242029423fc540a728243ce887ab24c82cf119fba3 536166654d6174683a206d756c7469706c69636174696f6e206f766572666c6f77\n    data_974d1b4421da69cc60b481194f0dad36a5bb4e23da810da7a7fb30cdba178330 45524332303a207472616e7366657220616d6f756e74206578636565647320616c6c6f77616e6365\n    data_9edb5ab58321f35d2386ea65721c9b107daa2c273610fc16d394af2a320ba785 5472616e7366657220616d6f756e74206d7573742062652067726561746572207468616e207a65726f\n    data_baecc556b46f4ed0f2b4cb599d60785ac8563dd2dc0a5bf12edea1c39e5e1fea 45524332303a207472616e736665722066726f6d20746865207a65726f2061646472657373\n    data_c953f4879035ed60e766b34720f656aab5c697b141d924c283124ecedb91c208 45524332303a20617070726f76652066726f6d20746865207a65726f2061646472657373\n    data_ecefcaf5fbcf9ca6dcdb02298ba1da96f4ead317b0a4779917ecb2e5e7dc3ac4 4578636c75646564206164647265737365732063616e6e6f742063616c6c20746869732066756e6374696f6e\n    data_f4eb59be3df39931213d374c3658377dca3f0d2b46b7bc965af767c57c74b611 596f7520646f6e27742068617665207065726d697373696f6e20746f20756e6c6f636b\n    data_f8b476f7d28209d77d4a4ac1fe36b9f8259aa1bb6bddfa6e89de7e51615cf8a8 45524332303a2064656372656173656420616c6c6f77616e63652062656c6f77207a65726f\n\n    auxdata: 0xa2646970667358221220b28f5a8549da3c02864cfa0e6698819d4ee00f94319b5fda42f2f3c4dba2073364736f6c634300060c0033\n}\n",
				"bytecode": {
					"linkReferences": {},
					"object": "60c060405269d3c21bcecceda1000000600955600954600019816200002057fe5b0660001903600a556040518060400160405280600881526020017f536166654d6f6f6e000000000000000000000000000000000000000000000000815250600c908051906020019062000075929190620005fe565b506040518060400160405280600881526020017f534146454d4f4f4e000000000000000000000000000000000000000000000000815250600d9080519060200190620000c3929190620005fe565b506009600e60006101000a81548160ff021916908360ff1602179055506005600f55600f5460105560056011556011546012556001601360016101000a81548160ff02191690831515021790555069010f0cf064dd59200000601455681b1ae4d6e2ef5000006015553480156200013957600080fd5b5060006200014c620005cd60201b60201c565b9050806000806101000a81548173ffffffffffffffffffffffffffffffffffffffff021916908373ffffffffffffffffffffffffffffffffffffffff1602179055508073ffffffffffffffffffffffffffffffffffffffff16600073ffffffffffffffffffffffffffffffffffffffff167f8be0079c531659141344cd1fd0a4f28419497f9722a3daafe3b4186f6b6457e060405160405180910390a350600a546003600062000201620005cd60201b60201c565b73ffffffffffffffffffffffffffffffffffffffff1673ffffffffffffffffffffffffffffffffffffffff1681526020019081526020016000208190555060007305ff2b0db69458a0750badebc4f9e13add608c7f90508073ffffffffffffffffffffffffffffffffffffffff1663c45a01556040518163ffffffff1660e01b815260040160206040518083038186803b1580156200029f57600080fd5b505afa158015620002b4573d6000803e3d6000fd5b505050506040513d6020811015620002cb57600080fd5b810190808051906020019092919050505073ffffffffffffffffffffffffffffffffffffffff1663c9c65396308373ffffffffffffffffffffffffffffffffffffffff1663ad5c46486040518163ffffffff1660e01b815260040160206040518083038186803b1580156200033f57600080fd5b505afa15801562000354573d6000803e3d6000fd5b505050506040513d60208110156200036b57600080fd5b81019080805190602001909291905050506040518363ffffffff1660e01b8152600401808373ffffffffffffffffffffffffffffffffffffffff1681526020018273ffffffffffffffffffffffffffffffffffffffff16815260200192505050602060405180830381600087803b158015620003e657600080fd5b505af1158015620003fb573d6000803e3d6000fd5b505050506040513d60208110156200041257600080fd5b810190808051906020019092919050505073ffffffffffffffffffffffffffffffffffffffff1660a08173ffffffffffffffffffffffffffffffffffffffff1660601b815250508073ffffffffffffffffffffffffffffffffffffffff1660808173ffffffffffffffffffffffffffffffffffffffff1660601b81525050600160066000620004a6620005d560201b60201c565b73ffffffffffffffffffffffffffffffffffffffff1673ffffffffffffffffffffffffffffffffffffffff16815260200190815260200160002060006101000a81548160ff0219169083151502179055506001600660003073ffffffffffffffffffffffffffffffffffffffff1673ffffffffffffffffffffffffffffffffffffffff16815260200190815260200160002060006101000a81548160ff0219169083151502179055506200055f620005cd60201b60201c565b73ffffffffffffffffffffffffffffffffffffffff16600073ffffffffffffffffffffffffffffffffffffffff167fddf252ad1be2c89b69c2b068fc378daa952ba7f163c4a11628f55a4df523b3ef6009546040518082815260200191505060405180910390a350620006a4565b600033905090565b60008060009054906101000a900473ffffffffffffffffffffffffffffffffffffffff16905090565b828054600181600116156101000203166002900490600052602060002090601f016020900481019282601f106200064157805160ff191683800117855562000672565b8280016001018555821562000672579182015b828111156200067157825182559160200191906001019062000654565b5b50905062000681919062000685565b5090565b5b80821115620006a057600081600090555060010162000686565b5090565b60805160601c60a05160601c614e2d620006ec600039806118365280612f9e525080610ee65280613c8a5280613d765280613d9d5280613ea85280613ecf5250614e2d6000f3fe60806040526004361061021e5760003560e01c80635342acb411610123578063a457c2d7116100ab578063d543dbeb1161006f578063d543dbeb14610bab578063dd46706414610be6578063dd62ed3e14610c21578063ea2f0b3714610ca6578063f2fde38b14610cf757610225565b8063a457c2d714610a4a578063a69df4b514610abb578063a9059cbb14610ad2578063b6c5232414610b43578063c49b9a8014610b6e57610225565b80637d1db4a5116100f25780637d1db4a5146108ac57806388f82020146108d75780638da5cb5b1461093e5780638ee88c531461097f57806395d89b41146109ba57610225565b80635342acb41461079e5780636bc87c3a1461080557806370a0823114610830578063715018a61461089557610225565b80633685d419116101a6578063437823ec11610175578063437823ec146106335780634549b0391461068457806349bd5a5e146106df5780634a74bb021461072057806352390c021461074d57610225565b80633685d4191461050b578063395093511461055c5780633b124fe7146105cd5780633bd5d173146105f857610225565b80631694505e116101ed5780631694505e1461039157806318160ddd146103d257806323b872dd146103fd5780632d8381191461048e578063313ce567146104dd57610225565b8063061c82d01461022a57806306fdde0314610265578063095ea7b3146102f557806313114a9d1461036657610225565b3661022557005b600080fd5b34801561023657600080fd5b506102636004803603602081101561024d57600080fd5b8101908080359060200190929190505050610d48565b005b34801561027157600080fd5b5061027a610e1a565b6040518080602001828103825283818151815260200191508051906020019080838360005b838110156102ba57808201518184015260208101905061029f565b50505050905090810190601f1680156102e75780820380516001836020036101000a031916815260200191505b509250505060405180910390f35b34801561030157600080fd5b5061034e6004803603604081101561031857600080fd5b81019080803573ffffffffffffffffffffffffffffffffffffffff16906020019092919080359060200190929190505050610ebc565b60405180821515815260200191505060405180910390f35b34801561037257600080fd5b5061037b610eda565b6040518082815260200191505060405180910390f35b34801561039d57600080fd5b506103a6610ee4565b604051808273ffffffffffffffffffffffffffffffffffffffff16815260200191505060405180910390f35b3480156103de57600080fd5b506103e7610f08565b6040518082815260200191505060405180910390f35b34801561040957600080fd5b506104766004803603606081101561042057600080fd5b81019080803573ffffffffffffffffffffffffffffffffffffffff169060200190929190803573ffffffffffffffffffffffffffffffffffffffff16906020019092919080359060200190929190505050610f12565b60405180821515815260200191505060405180910390f35b34801561049a57600080fd5b506104c7600480360360208110156104b157600080fd5b8101908080359060200190929190505050610feb565b6040518082815260200191505060405180910390f35b3480156104e957600080fd5b506104f261106f565b604051808260ff16815260200191505060405180910390f35b34801561051757600080fd5b5061055a6004803603602081101561052e57600080fd5b81019080803573ffffffffffffffffffffffffffffffffffffffff169060200190929190505050611086565b005b34801561056857600080fd5b506105b56004803603604081101561057f57600080fd5b81019080803573ffffffffffffffffffffffffffffffffffffffff16906020019092919080359060200190929190505050611410565b60405180821515815260200191505060405180910390f35b3480156105d957600080fd5b506105e26114c3565b6040518082815260200191505060405180910390f35b34801561060457600080fd5b506106316004803603602081101561061b57600080fd5b81019080803590602001909291905050506114c9565b005b34801561063f57600080fd5b506106826004803603602081101561065657600080fd5b81019080803573ffffffffffffffffffffffffffffffffffffffff16906020019092919050505061165a565b005b34801561069057600080fd5b506106c9600480360360408110156106a757600080fd5b810190808035906020019092919080351515906020019092919050505061177d565b6040518082815260200191505060405180910390f35b3480156106eb57600080fd5b506106f4611834565b604051808273ffffffffffffffffffffffffffffffffffffffff16815260200191505060405180910390f35b34801561072c57600080fd5b50610735611858565b60405180821515815260200191505060405180910390f35b34801561075957600080fd5b5061079c6004803603602081101561077057600080fd5b81019080803573ffffffffffffffffffffffffffffffffffffffff16906020019092919050505061186b565b005b3480156107aa57600080fd5b506107ed600480360360208110156107c157600080fd5b81019080803573ffffffffffffffffffffffffffffffffffffffff169060200190929190505050611b85565b60405180821515815260200191505060405180910390f35b34801561081157600080fd5b5061081a611bdb565b6040518082815260200191505060405180910390f35b34801561083c57600080fd5b5061087f6004803603602081101561085357600080fd5b81019080803573ffffffffffffffffffffffffffffffffffffffff169060200190929190505050611be1565b6040518082815260200191505060405180910390f35b3480156108a157600080fd5b506108aa611ccc565b005b3480156108b857600080fd5b506108c1611e52565b6040518082815260200191505060405180910390f35b3480156108e357600080fd5b50610926600480360360208110156108fa57600080fd5b81019080803573ffffffffffffffffffffffffffffffffffffffff169060200190929190505050611e58565b60405180821515815260200191505060405180910390f35b34801561094a57600080fd5b50610953611eae565b604051808273ffffffffffffffffffffffffffffffffffffffff16815260200191505060405180910390f35b34801561098b57600080fd5b506109b8600480360360208110156109a257600080fd5b8101908080359060200190929190505050611ed7565b005b3480156109c657600080fd5b506109cf611fa9565b6040518080602001828103825283818151815260200191508051906020019080838360005b83811015610a0f5780820151818401526020810190506109f4565b50505050905090810190601f168015610a3c5780820380516001836020036101000a031916815260200191505b509250505060405180910390f35b348015610a5657600080fd5b50610aa360048036036040811015610a6d57600080fd5b81019080803573ffffffffffffffffffffffffffffffffffffffff1690602001909291908035906020019092919050505061204b565b60405180821515815260200191505060405180910390f35b348015610ac757600080fd5b50610ad0612118565b005b348015610ade57600080fd5b50610b2b60048036036040811015610af557600080fd5b81019080803573ffffffffffffffffffffffffffffffffffffffff16906020019092919080359060200190929190505050612335565b60405180821515815260200191505060405180910390f35b348015610b4f57600080fd5b50610b58612353565b6040518082815260200191505060405180910390f35b348015610b7a57600080fd5b50610ba960048036036020811015610b9157600080fd5b8101908080351515906020019092919050505061235d565b005b348015610bb757600080fd5b50610be460048036036020811015610bce57600080fd5b810190808035906020019092919050505061247b565b005b348015610bf257600080fd5b50610c1f60048036036020811015610c0957600080fd5b8101908080359060200190929190505050612574565b005b348015610c2d57600080fd5b50610c9060048036036040811015610c4457600080fd5b81019080803573ffffffffffffffffffffffffffffffffffffffff169060200190929190803573ffffffffffffffffffffffffffffffffffffffff169060200190929190505050612765565b6040518082815260200191505060405180910390f35b348015610cb257600080fd5b50610cf560048036036020811015610cc957600080fd5b81019080803573ffffffffffffffffffffffffffffffffffffffff1690602001909291905050506127ec565b005b348015610d0357600080fd5b50610d4660048036036020811015610d1a57600080fd5b81019080803573ffffffffffffffffffffffffffffffffffffffff16906020019092919050505061290f565b005b610d50612b1a565b73ffffffffffffffffffffffffffffffffffffffff1660008054906101000a900473ffffffffffffffffffffffffffffffffffffffff1673ffffffffffffffffffffffffffffffffffffffff1614610e10576040517f08c379a00000000000000000000000000000000000000000000000000000000081526004018080602001828103825260208152602001807f4f776e61626c653a2063616c6c6572206973206e6f7420746865206f776e657281525060200191505060405180910390fd5b80600f8190555050565b6060600c8054600181600116156101000203166002900480601f016020809104026020016040519081016040528092919081815260200182805460018160011615610100020316600290048015610eb25780601f10610e8757610100808354040283529160200191610eb2565b820191906000526020600020905b815481529060010190602001808311610e9557829003601f168201915b5050505050905090565b6000610ed0610ec9612b1a565b8484612b22565b6001905092915050565b6000600b54905090565b7f000000000000000000000000000000000000000000000000000000000000000081565b6000600954905090565b6000610f1f848484612d19565b610fe084610f2b612b1a565b610fdb85604051806060016040528060288152602001614cea60289139600560008b73ffffffffffffffffffffffffffffffffffffffff1673ffffffffffffffffffffffffffffffffffffffff1681526020019081526020016000206000610f91612b1a565b73ffffffffffffffffffffffffffffffffffffffff1673ffffffffffffffffffffffffffffffffffffffff168152602001908152602001600020546130de9092919063ffffffff16565b612b22565b600190509392505050565b6000600a54821115611048576040517f08c379a000000000000000000000000000000000000000000000000000000000815260040180806020018281038252602a815260200180614c2f602a913960400191505060405180910390fd5b600061105261319e565b905061106781846131c990919063ffffffff16565b915050919050565b6000600e60009054906101000a900460ff16905090565b61108e612b1a565b73ffffffffffffffffffffffffffffffffffffffff1660008054906101000a900473ffffffffffffffffffffffffffffffffffffffff1673ffffffffffffffffffffffffffffffffffffffff161461114e576040517f08c379a00000000000000000000000000000000000000000000000000000000081526004018080602001828103825260208152602001807f4f776e61626c653a2063616c6c6572206973206e6f7420746865206f776e657281525060200191505060405180910390fd5b600760008273ffffffffffffffffffffffffffffffffffffffff1673ffffffffffffffffffffffffffffffffffffffff16815260200190815260200160002060009054906101000a900460ff1661120d576040517f08c379a000000000000000000000000000000000000000000000000000000000815260040180806020018281038252601b8152602001807f4163636f756e7420697320616c7265616479206578636c75646564000000000081525060200191505060405180910390fd5b60005b60088054905081101561140c578173ffffffffffffffffffffffffffffffffffffffff166008828154811061124157fe5b9060005260206000200160009054906101000a900473ffffffffffffffffffffffffffffffffffffffff1673ffffffffffffffffffffffffffffffffffffffff1614156113ff5760086001600880549050038154811061129d57fe5b9060005260206000200160009054906101000a900473ffffffffffffffffffffffffffffffffffffffff16600882815481106112d557fe5b9060005260206000200160006101000a81548173ffffffffffffffffffffffffffffffffffffffff021916908373ffffffffffffffffffffffffffffffffffffffff1602179055506000600460008473ffffffffffffffffffffffffffffffffffffffff1673ffffffffffffffffffffffffffffffffffffffff168152602001908152602001600020819055506000600760008473ffffffffffffffffffffffffffffffffffffffff1673ffffffffffffffffffffffffffffffffffffffff16815260200190815260200160002060006101000a81548160ff02191690831515021790555060088054806113c557fe5b6001900381819060005260206000200160006101000a81549073ffffffffffffffffffffffffffffffffffffffff0219169055905561140c565b8080600101915050611210565b5050565b60006114b961141d612b1a565b846114b4856005600061142e612b1a565b73ffffffffffffffffffffffffffffffffffffffff1673ffffffffffffffffffffffffffffffffffffffff16815260200190815260200160002060008973ffffffffffffffffffffffffffffffffffffffff1673ffffffffffffffffffffffffffffffffffffffff1681526020019081526020016000205461321390919063ffffffff16565b612b22565b6001905092915050565b600f5481565b60006114d3612b1a565b9050600760008273ffffffffffffffffffffffffffffffffffffffff1673ffffffffffffffffffffffffffffffffffffffff16815260200190815260200160002060009054906101000a900460ff1615611578576040517f08c379a000000000000000000000000000000000000000000000000000000000815260040180806020018281038252602c815260200180614d84602c913960400191505060405180910390fd5b60006115838361329b565b505050505090506115dc81600360008573ffffffffffffffffffffffffffffffffffffffff1673ffffffffffffffffffffffffffffffffffffffff168152602001908152602001600020546132f790919063ffffffff16565b600360008473ffffffffffffffffffffffffffffffffffffffff1673ffffffffffffffffffffffffffffffffffffffff1681526020019081526020016000208190555061163481600a546132f790919063ffffffff16565b600a8190555061164f83600b5461321390919063ffffffff16565b600b81905550505050565b611662612b1a565b73ffffffffffffffffffffffffffffffffffffffff1660008054906101000a900473ffffffffffffffffffffffffffffffffffffffff1673ffffffffffffffffffffffffffffffffffffffff1614611722576040517f08c379a00000000000000000000000000000000000000000000000000000000081526004018080602001828103825260208152602001807f4f776e61626c653a2063616c6c6572206973206e6f7420746865206f776e657281525060200191505060405180910390fd5b6001600660008373ffffffffffffffffffffffffffffffffffffffff1673ffffffffffffffffffffffffffffffffffffffff16815260200190815260200160002060006101000a81548160ff02191690831515021790555050565b60006009548311156117f7576040517f08c379a000000000000000000000000000000000000000000000000000000000815260040180806020018281038252601f8152602001807f416d6f756e74206d757374206265206c657373207468616e20737570706c790081525060200191505060405180910390fd5b816118175760006118078461329b565b505050505090508091505061182e565b60006118228461329b565b50505050915050809150505b92915050565b7f000000000000000000000000000000000000000000000000000000000000000081565b601360019054906101000a900460ff1681565b611873612b1a565b73ffffffffffffffffffffffffffffffffffffffff1660008054906101000a900473ffffffffffffffffffffffffffffffffffffffff1673ffffffffffffffffffffffffffffffffffffffff1614611933576040517f08c379a00000000000000000000000000000000000000000000000000000000081526004018080602001828103825260208152602001807f4f776e61626c653a2063616c6c6572206973206e6f7420746865206f776e657281525060200191505060405180910390fd5b600760008273ffffffffffffffffffffffffffffffffffffffff1673ffffffffffffffffffffffffffffffffffffffff16815260200190815260200160002060009054906101000a900460ff16156119f3576040517f08c379a000000000000000000000000000000000000000000000000000000000815260040180806020018281038252601b8152602001807f4163636f756e7420697320616c7265616479206578636c75646564000000000081525060200191505060405180910390fd5b6000600360008373ffffffffffffffffffffffffffffffffffffffff1673ffffffffffffffffffffffffffffffffffffffff168152602001908152602001600020541115611ac757611a83600360008373ffffffffffffffffffffffffffffffffffffffff1673ffffffffffffffffffffffffffffffffffffffff16815260200190815260200160002054610feb565b600460008373ffffffffffffffffffffffffffffffffffffffff1673ffffffffffffffffffffffffffffffffffffffff168152602001908152602001600020819055505b6001600760008373ffffffffffffffffffffffffffffffffffffffff1673ffffffffffffffffffffffffffffffffffffffff16815260200190815260200160002060006101000a81548160ff0219169083151502179055506008819080600181540180825580915050600190039060005260206000200160009091909190916101000a81548173ffffffffffffffffffffffffffffffffffffffff021916908373ffffffffffffffffffffffffffffffffffffffff16021790555050565b6000600660008373ffffffffffffffffffffffffffffffffffffffff1673ffffffffffffffffffffffffffffffffffffffff16815260200190815260200160002060009054906101000a900460ff169050919050565b60115481565b6000600760008373ffffffffffffffffffffffffffffffffffffffff1673ffffffffffffffffffffffffffffffffffffffff16815260200190815260200160002060009054906101000a900460ff1615611c7c57600460008373ffffffffffffffffffffffffffffffffffffffff1673ffffffffffffffffffffffffffffffffffffffff168152602001908152602001600020549050611cc7565b611cc4600360008473ffffffffffffffffffffffffffffffffffffffff1673ffffffffffffffffffffffffffffffffffffffff16815260200190815260200160002054610feb565b90505b919050565b611cd4612b1a565b73ffffffffffffffffffffffffffffffffffffffff1660008054906101000a900473ffffffffffffffffffffffffffffffffffffffff1673ffffffffffffffffffffffffffffffffffffffff1614611d94576040517f08c379a00000000000000000000000000000000000000000000000000000000081526004018080602001828103825260208152602001807f4f776e61626c653a2063616c6c6572206973206e6f7420746865206f776e657281525060200191505060405180910390fd5b600073ffffffffffffffffffffffffffffffffffffffff1660008054906101000a900473ffffffffffffffffffffffffffffffffffffffff1673ffffffffffffffffffffffffffffffffffffffff167f8be0079c531659141344cd1fd0a4f28419497f9722a3daafe3b4186f6b6457e060405160405180910390a360008060006101000a81548173ffffffffffffffffffffffffffffffffffffffff021916908373ffffffffffffffffffffffffffffffffffffffff160217905550565b60145481565b6000600760008373ffffffffffffffffffffffffffffffffffffffff1673ffffffffffffffffffffffffffffffffffffffff16815260200190815260200160002060009054906101000a900460ff169050919050565b60008060009054906101000a900473ffffffffffffffffffffffffffffffffffffffff16905090565b611edf612b1a565b73ffffffffffffffffffffffffffffffffffffffff1660008054906101000a900473ffffffffffffffffffffffffffffffffffffffff1673ffffffffffffffffffffffffffffffffffffffff1614611f9f576040517f08c379a00000000000000000000000000000000000000000000000000000000081526004018080602001828103825260208152602001807f4f776e61626c653a2063616c6c6572206973206e6f7420746865206f776e657281525060200191505060405180910390fd5b8060118190555050565b6060600d8054600181600116156101000203166002900480601f0160208091040260200160405190810160405280929190818152602001828054600181600116156101000203166002900480156120415780601f1061201657610100808354040283529160200191612041565b820191906000526020600020905b81548152906001019060200180831161202457829003601f168201915b5050505050905090565b600061210e612058612b1a565b8461210985604051806060016040528060258152602001614dd36025913960056000612082612b1a565b73ffffffffffffffffffffffffffffffffffffffff1673ffffffffffffffffffffffffffffffffffffffff16815260200190815260200160002060008a73ffffffffffffffffffffffffffffffffffffffff1673ffffffffffffffffffffffffffffffffffffffff168152602001908152602001600020546130de9092919063ffffffff16565b612b22565b6001905092915050565b3373ffffffffffffffffffffffffffffffffffffffff16600160009054906101000a900473ffffffffffffffffffffffffffffffffffffffff1673ffffffffffffffffffffffffffffffffffffffff16146121be576040517f08c379a0000000000000000000000000000000000000000000000000000000008152600401808060200182810382526023815260200180614db06023913960400191505060405180910390fd5b6002544211612235576040517f08c379a000000000000000000000000000000000000000000000000000000000815260040180806020018281038252601f8152602001807f436f6e7472616374206973206c6f636b656420756e74696c203720646179730081525060200191505060405180910390fd5b600160009054906101000a900473ffffffffffffffffffffffffffffffffffffffff1673ffffffffffffffffffffffffffffffffffffffff1660008054906101000a900473ffffffffffffffffffffffffffffffffffffffff1673ffffffffffffffffffffffffffffffffffffffff167f8be0079c531659141344cd1fd0a4f28419497f9722a3daafe3b4186f6b6457e060405160405180910390a3600160009054906101000a900473ffffffffffffffffffffffffffffffffffffffff166000806101000a81548173ffffffffffffffffffffffffffffffffffffffff021916908373ffffffffffffffffffffffffffffffffffffffff160217905550565b6000612349612342612b1a565b8484612d19565b6001905092915050565b6000600254905090565b612365612b1a565b73ffffffffffffffffffffffffffffffffffffffff1660008054906101000a900473ffffffffffffffffffffffffffffffffffffffff1673ffffffffffffffffffffffffffffffffffffffff1614612425576040517f08c379a00000000000000000000000000000000000000000000000000000000081526004018080602001828103825260208152602001807f4f776e61626c653a2063616c6c6572206973206e6f7420746865206f776e657281525060200191505060405180910390fd5b80601360016101000a81548160ff0219169083151502179055507f53726dfcaf90650aa7eb35524f4d3220f07413c8d6cb404cc8c18bf5591bc1598160405180821515815260200191505060405180910390a150565b612483612b1a565b73ffffffffffffffffffffffffffffffffffffffff1660008054906101000a900473ffffffffffffffffffffffffffffffffffffffff1673ffffffffffffffffffffffffffffffffffffffff1614612543576040517f08c379a00000000000000000000000000000000000000000000000000000000081526004018080602001828103825260208152602001807f4f776e61626c653a2063616c6c6572206973206e6f7420746865206f776e657281525060200191505060405180910390fd5b61256b606461255d8360095461334190919063ffffffff16565b6131c990919063ffffffff16565b60148190555050565b61257c612b1a565b73ffffffffffffffffffffffffffffffffffffffff1660008054906101000a900473ffffffffffffffffffffffffffffffffffffffff1673ffffffffffffffffffffffffffffffffffffffff161461263c576040517f08c379a00000000000000000000000000000000000000000000000000000000081526004018080602001828103825260208152602001807f4f776e61626c653a2063616c6c6572206973206e6f7420746865206f776e657281525060200191505060405180910390fd5b60008054906101000a900473ffffffffffffffffffffffffffffffffffffffff16600160006101000a81548173ffffffffffffffffffffffffffffffffffffffff021916908373ffffffffffffffffffffffffffffffffffffffff16021790555060008060006101000a81548173ffffffffffffffffffffffffffffffffffffffff021916908373ffffffffffffffffffffffffffffffffffffffff160217905550804201600281905550600073ffffffffffffffffffffffffffffffffffffffff1660008054906101000a900473ffffffffffffffffffffffffffffffffffffffff1673ffffffffffffffffffffffffffffffffffffffff167f8be0079c531659141344cd1fd0a4f28419497f9722a3daafe3b4186f6b6457e060405160405180910390a350565b6000600560008473ffffffffffffffffffffffffffffffffffffffff1673ffffffffffffffffffffffffffffffffffffffff16815260200190815260200160002060008373ffffffffffffffffffffffffffffffffffffffff1673ffffffffffffffffffffffffffffffffffffffff16815260200190815260200160002054905092915050565b6127f4612b1a565b73ffffffffffffffffffffffffffffffffffffffff1660008054906101000a900473ffffffffffffffffffffffffffffffffffffffff1673ffffffffffffffffffffffffffffffffffffffff16146128b4576040517f08c379a00000000000000000000000000000000000000000000000000000000081526004018080602001828103825260208152602001807f4f776e61626c653a2063616c6c6572206973206e6f7420746865206f776e657281525060200191505060405180910390fd5b6000600660008373ffffffffffffffffffffffffffffffffffffffff1673ffffffffffffffffffffffffffffffffffffffff16815260200190815260200160002060006101000a81548160ff02191690831515021790555050565b612917612b1a565b73ffffffffffffffffffffffffffffffffffffffff1660008054906101000a900473ffffffffffffffffffffffffffffffffffffffff1673ffffffffffffffffffffffffffffffffffffffff16146129d7576040517f08c379a00000000000000000000000000000000000000000000000000000000081526004018080602001828103825260208152602001807f4f776e61626c653a2063616c6c6572206973206e6f7420746865206f776e657281525060200191505060405180910390fd5b600073ffffffffffffffffffffffffffffffffffffffff168173ffffffffffffffffffffffffffffffffffffffff161415612a5d576040517f08c379a0000000000000000000000000000000000000000000000000000000008152600401808060200182810382526026815260200180614c596026913960400191505060405180910390fd5b8073ffffffffffffffffffffffffffffffffffffffff1660008054906101000a900473ffffffffffffffffffffffffffffffffffffffff1673ffffffffffffffffffffffffffffffffffffffff167f8be0079c531659141344cd1fd0a4f28419497f9722a3daafe3b4186f6b6457e060405160405180910390a3806000806101000a81548173ffffffffffffffffffffffffffffffffffffffff021916908373ffffffffffffffffffffffffffffffffffffffff16021790555050565b600033905090565b600073ffffffffffffffffffffffffffffffffffffffff168373ffffffffffffffffffffffffffffffffffffffff161415612ba8576040517f08c379a0000000000000000000000000000000000000000000000000000000008152600401808060200182810382526024815260200180614d606024913960400191505060405180910390fd5b600073ffffffffffffffffffffffffffffffffffffffff168273ffffffffffffffffffffffffffffffffffffffff161415612c2e576040517f08c379a0000000000000000000000000000000000000000000000000000000008152600401808060200182810382526022815260200180614c7f6022913960400191505060405180910390fd5b80600560008573ffffffffffffffffffffffffffffffffffffffff1673ffffffffffffffffffffffffffffffffffffffff16815260200190815260200160002060008473ffffffffffffffffffffffffffffffffffffffff1673ffffffffffffffffffffffffffffffffffffffff168152602001908152602001600020819055508173ffffffffffffffffffffffffffffffffffffffff168373ffffffffffffffffffffffffffffffffffffffff167f8c5be1e5ebec7d5bd14f71427d1e84f3dd0314c0f7b2291e5b200ac8c7c3b925836040518082815260200191505060405180910390a3505050565b600073ffffffffffffffffffffffffffffffffffffffff168373ffffffffffffffffffffffffffffffffffffffff161415612d9f576040517f08c379a0000000000000000000000000000000000000000000000000000000008152600401808060200182810382526025815260200180614d3b6025913960400191505060405180910390fd5b600073ffffffffffffffffffffffffffffffffffffffff168273ffffffffffffffffffffffffffffffffffffffff161415612e25576040517f08c379a0000000000000000000000000000000000000000000000000000000008152600401808060200182810382526023815260200180614c0c6023913960400191505060405180910390fd5b60008111612e7e576040517f08c379a0000000000000000000000000000000000000000000000000000000008152600401808060200182810382526029815260200180614d126029913960400191505060405180910390fd5b612e86611eae565b73ffffffffffffffffffffffffffffffffffffffff168373ffffffffffffffffffffffffffffffffffffffff1614158015612ef45750612ec4611eae565b73ffffffffffffffffffffffffffffffffffffffff168273ffffffffffffffffffffffffffffffffffffffff1614155b15612f5557601454811115612f54576040517f08c379a0000000000000000000000000000000000000000000000000000000008152600401808060200182810382526028815260200180614ca16028913960400191505060405180910390fd5b5b6000612f6030611be1565b90506014548110612f715760145490505b60006015548210159050808015612f955750601360009054906101000a900460ff16155b8015612fed57507f000000000000000000000000000000000000000000000000000000000000000073ffffffffffffffffffffffffffffffffffffffff168573ffffffffffffffffffffffffffffffffffffffff1614155b80156130055750601360019054906101000a900460ff165b15613019576015549150613018826133c7565b5b600060019050600660008773ffffffffffffffffffffffffffffffffffffffff1673ffffffffffffffffffffffffffffffffffffffff16815260200190815260200160002060009054906101000a900460ff16806130c05750600660008673ffffffffffffffffffffffffffffffffffffffff1673ffffffffffffffffffffffffffffffffffffffff16815260200190815260200160002060009054906101000a900460ff165b156130ca57600090505b6130d6868686846134a9565b505050505050565b600083831115829061318b576040517f08c379a00000000000000000000000000000000000000000000000000000000081526004018080602001828103825283818151815260200191508051906020019080838360005b83811015613150578082015181840152602081019050613135565b50505050905090810190601f16801561317d5780820380516001836020036101000a031916815260200191505b509250505060405180910390fd5b5060008385039050809150509392505050565b60008060006131ab6137ba565b915091506131c281836131c990919063ffffffff16565b9250505090565b600061320b83836040518060400160405280601a81526020017f536166654d6174683a206469766973696f6e206279207a65726f000000000000815250613a4b565b905092915050565b600080828401905083811015613291576040517f08c379a000000000000000000000000000000000000000000000000000000000815260040180806020018281038252601b8152602001807f536166654d6174683a206164646974696f6e206f766572666c6f77000000000081525060200191505060405180910390fd5b8091505092915050565b60008060008060008060008060006132b28a613b11565b92509250925060008060006132d08d86866132cb61319e565b613b6b565b9250925092508282828888889b509b509b509b509b509b5050505050505091939550919395565b600061333983836040518060400160405280601e81526020017f536166654d6174683a207375627472616374696f6e206f766572666c6f7700008152506130de565b905092915050565b60008083141561335457600090506133c1565b600082840290508284828161336557fe5b04146133bc576040517f08c379a0000000000000000000000000000000000000000000000000000000008152600401808060200182810382526021815260200180614cc96021913960400191505060405180910390fd5b809150505b92915050565b6001601360006101000a81548160ff02191690831515021790555060006133f86002836131c990919063ffffffff16565b9050600061340f82846132f790919063ffffffff16565b9050600047905061341f83613bf4565b600061343482476132f790919063ffffffff16565b90506134408382613ea2565b7f17bbfb9a6069321b6ded73bd96327c9e6b7212a5cd51ff219cd61370acafb56184828560405180848152602001838152602001828152602001935050505060405180910390a1505050506000601360006101000a81548160ff02191690831515021790555050565b806134b7576134b6613ff3565b5b600760008573ffffffffffffffffffffffffffffffffffffffff1673ffffffffffffffffffffffffffffffffffffffff16815260200190815260200160002060009054906101000a900460ff16801561355a5750600760008473ffffffffffffffffffffffffffffffffffffffff1673ffffffffffffffffffffffffffffffffffffffff16815260200190815260200160002060009054906101000a900460ff16155b1561356f5761356a848484614036565b6137a6565b600760008573ffffffffffffffffffffffffffffffffffffffff1673ffffffffffffffffffffffffffffffffffffffff16815260200190815260200160002060009054906101000a900460ff161580156136125750600760008473ffffffffffffffffffffffffffffffffffffffff1673ffffffffffffffffffffffffffffffffffffffff16815260200190815260200160002060009054906101000a900460ff165b1561362757613622848484614296565b6137a5565b600760008573ffffffffffffffffffffffffffffffffffffffff1673ffffffffffffffffffffffffffffffffffffffff16815260200190815260200160002060009054906101000a900460ff161580156136cb5750600760008473ffffffffffffffffffffffffffffffffffffffff1673ffffffffffffffffffffffffffffffffffffffff16815260200190815260200160002060009054906101000a900460ff16155b156136e0576136db8484846144f6565b6137a4565b600760008573ffffffffffffffffffffffffffffffffffffffff1673ffffffffffffffffffffffffffffffffffffffff16815260200190815260200160002060009054906101000a900460ff1680156137825750600760008473ffffffffffffffffffffffffffffffffffffffff1673ffffffffffffffffffffffffffffffffffffffff16815260200190815260200160002060009054906101000a900460ff165b15613797576137928484846146c1565b6137a3565b6137a28484846144f6565b5b5b5b5b806137b4576137b36149b6565b5b50505050565b6000806000600a5490506000600954905060005b600880549050811015613a0e578260036000600884815481106137ed57fe5b9060005260206000200160009054906101000a900473ffffffffffffffffffffffffffffffffffffffff1673ffffffffffffffffffffffffffffffffffffffff1673ffffffffffffffffffffffffffffffffffffffff1681526020019081526020016000205411806138d4575081600460006008848154811061386c57fe5b9060005260206000200160009054906101000a900473ffffffffffffffffffffffffffffffffffffffff1673ffffffffffffffffffffffffffffffffffffffff1673ffffffffffffffffffffffffffffffffffffffff16815260200190815260200160002054115b156138eb57600a5460095494509450505050613a47565b61397460036000600884815481106138ff57fe5b9060005260206000200160009054906101000a900473ffffffffffffffffffffffffffffffffffffffff1673ffffffffffffffffffffffffffffffffffffffff1673ffffffffffffffffffffffffffffffffffffffff16815260200190815260200160002054846132f790919063ffffffff16565b92506139ff600460006008848154811061398a57fe5b9060005260206000200160009054906101000a900473ffffffffffffffffffffffffffffffffffffffff1673ffffffffffffffffffffffffffffffffffffffff1673ffffffffffffffffffffffffffffffffffffffff16815260200190815260200160002054836132f790919063ffffffff16565b915080806001019150506137ce565b50613a26600954600a546131c990919063ffffffff16565b821015613a3e57600a54600954935093505050613a47565b81819350935050505b9091565b60008083118290613af7576040517f08c379a00000000000000000000000000000000000000000000000000000000081526004018080602001828103825283818151815260200191508051906020019080838360005b83811015613abc578082015181840152602081019050613aa1565b50505050905090810190601f168015613ae95780820380516001836020036101000a031916815260200191505b509250505060405180910390fd5b506000838581613b0357fe5b049050809150509392505050565b600080600080613b20856149ca565b90506000613b2d866149fb565b90506000613b5682613b48858a6132f790919063ffffffff16565b6132f790919063ffffffff16565b90508083839550955095505050509193909250565b600080600080613b84858961334190919063ffffffff16565b90506000613b9b868961334190919063ffffffff16565b90506000613bb2878961334190919063ffffffff16565b90506000613bdb82613bcd85876132f790919063ffffffff16565b6132f790919063ffffffff16565b9050838184965096509650505050509450945094915050565b6060600267ffffffffffffffff81118015613c0e57600080fd5b50604051908082528060200260200182016040528015613c3d5781602001602082028036833780820191505090505b5090503081600081518110613c4e57fe5b602002602001019073ffffffffffffffffffffffffffffffffffffffff16908173ffffffffffffffffffffffffffffffffffffffff16815250507f000000000000000000000000000000000000000000000000000000000000000073ffffffffffffffffffffffffffffffffffffffff1663ad5c46486040518163ffffffff1660e01b815260040160206040518083038186803b158015613cee57600080fd5b505afa158015613d02573d6000803e3d6000fd5b505050506040513d6020811015613d1857600080fd5b810190808051906020019092919050505081600181518110613d3657fe5b602002602001019073ffffffffffffffffffffffffffffffffffffffff16908173ffffffffffffffffffffffffffffffffffffffff1681525050613d9b307f000000000000000000000000000000000000000000000000000000000000000084612b22565b7f000000000000000000000000000000000000000000000000000000000000000073ffffffffffffffffffffffffffffffffffffffff1663791ac9478360008430426040518663ffffffff1660e01b815260040180868152602001858152602001806020018473ffffffffffffffffffffffffffffffffffffffff168152602001838152602001828103825285818151815260200191508051906020019060200280838360005b83811015613e5d578082015181840152602081019050613e42565b505050509050019650505050505050600060405180830381600087803b158015613e8657600080fd5b505af1158015613e9a573d6000803e3d6000fd5b505050505050565b613ecd307f000000000000000000000000000000000000000000000000000000000000000084612b22565b7f000000000000000000000000000000000000000000000000000000000000000073ffffffffffffffffffffffffffffffffffffffff1663f305d719823085600080613f17611eae565b426040518863ffffffff1660e01b8152600401808773ffffffffffffffffffffffffffffffffffffffff1681526020018681526020018581526020018481526020018373ffffffffffffffffffffffffffffffffffffffff16815260200182815260200196505050505050506060604051808303818588803b158015613f9c57600080fd5b505af1158015613fb0573d6000803e3d6000fd5b50505050506040513d6060811015613fc757600080fd5b810190808051906020019092919080519060200190929190805190602001909291905050505050505050565b6000600f5414801561400757506000601154145b1561401157614034565b600f546010819055506011546012819055506000600f8190555060006011819055505b565b6000806000806000806140488761329b565b9550955095509550955095506140a687600460008c73ffffffffffffffffffffffffffffffffffffffff1673ffffffffffffffffffffffffffffffffffffffff168152602001908152602001600020546132f790919063ffffffff16565b600460008b73ffffffffffffffffffffffffffffffffffffffff1673ffffffffffffffffffffffffffffffffffffffff1681526020019081526020016000208190555061413b86600360008c73ffffffffffffffffffffffffffffffffffffffff1673ffffffffffffffffffffffffffffffffffffffff168152602001908152602001600020546132f790919063ffffffff16565b600360008b73ffffffffffffffffffffffffffffffffffffffff1673ffffffffffffffffffffffffffffffffffffffff168152602001908152602001600020819055506141d085600360008b73ffffffffffffffffffffffffffffffffffffffff1673ffffffffffffffffffffffffffffffffffffffff1681526020019081526020016000205461321390919063ffffffff16565b600360008a73ffffffffffffffffffffffffffffffffffffffff1673ffffffffffffffffffffffffffffffffffffffff1681526020019081526020016000208190555061421c81614a2c565b6142268483614bd1565b8773ffffffffffffffffffffffffffffffffffffffff168973ffffffffffffffffffffffffffffffffffffffff167fddf252ad1be2c89b69c2b068fc378daa952ba7f163c4a11628f55a4df523b3ef856040518082815260200191505060405180910390a3505050505050505050565b6000806000806000806142a88761329b565b95509550955095509550955061430686600360008c73ffffffffffffffffffffffffffffffffffffffff1673ffffffffffffffffffffffffffffffffffffffff168152602001908152602001600020546132f790919063ffffffff16565b600360008b73ffffffffffffffffffffffffffffffffffffffff1673ffffffffffffffffffffffffffffffffffffffff1681526020019081526020016000208190555061439b83600460008b73ffffffffffffffffffffffffffffffffffffffff1673ffffffffffffffffffffffffffffffffffffffff1681526020019081526020016000205461321390919063ffffffff16565b600460008a73ffffffffffffffffffffffffffffffffffffffff1673ffffffffffffffffffffffffffffffffffffffff1681526020019081526020016000208190555061443085600360008b73ffffffffffffffffffffffffffffffffffffffff1673ffffffffffffffffffffffffffffffffffffffff1681526020019081526020016000205461321390919063ffffffff16565b600360008a73ffffffffffffffffffffffffffffffffffffffff1673ffffffffffffffffffffffffffffffffffffffff1681526020019081526020016000208190555061447c81614a2c565b6144868483614bd1565b8773ffffffffffffffffffffffffffffffffffffffff168973ffffffffffffffffffffffffffffffffffffffff167fddf252ad1be2c89b69c2b068fc378daa952ba7f163c4a11628f55a4df523b3ef856040518082815260200191505060405180910390a3505050505050505050565b6000806000806000806145088761329b565b95509550955095509550955061456686600360008c73ffffffffffffffffffffffffffffffffffffffff1673ffffffffffffffffffffffffffffffffffffffff168152602001908152602001600020546132f790919063ffffffff16565b600360008b73ffffffffffffffffffffffffffffffffffffffff1673ffffffffffffffffffffffffffffffffffffffff168152602001908152602001600020819055506145fb85600360008b73ffffffffffffffffffffffffffffffffffffffff1673ffffffffffffffffffffffffffffffffffffffff1681526020019081526020016000205461321390919063ffffffff16565b600360008a73ffffffffffffffffffffffffffffffffffffffff1673ffffffffffffffffffffffffffffffffffffffff1681526020019081526020016000208190555061464781614a2c565b6146518483614bd1565b8773ffffffffffffffffffffffffffffffffffffffff168973ffffffffffffffffffffffffffffffffffffffff167fddf252ad1be2c89b69c2b068fc378daa952ba7f163c4a11628f55a4df523b3ef856040518082815260200191505060405180910390a3505050505050505050565b6000806000806000806146d38761329b565b95509550955095509550955061473187600460008c73ffffffffffffffffffffffffffffffffffffffff1673ffffffffffffffffffffffffffffffffffffffff168152602001908152602001600020546132f790919063ffffffff16565b600460008b73ffffffffffffffffffffffffffffffffffffffff1673ffffffffffffffffffffffffffffffffffffffff168152602001908152602001600020819055506147c686600360008c73ffffffffffffffffffffffffffffffffffffffff1673ffffffffffffffffffffffffffffffffffffffff168152602001908152602001600020546132f790919063ffffffff16565b600360008b73ffffffffffffffffffffffffffffffffffffffff1673ffffffffffffffffffffffffffffffffffffffff1681526020019081526020016000208190555061485b83600460008b73ffffffffffffffffffffffffffffffffffffffff1673ffffffffffffffffffffffffffffffffffffffff1681526020019081526020016000205461321390919063ffffffff16565b600460008a73ffffffffffffffffffffffffffffffffffffffff1673ffffffffffffffffffffffffffffffffffffffff168152602001908152602001600020819055506148f085600360008b73ffffffffffffffffffffffffffffffffffffffff1673ffffffffffffffffffffffffffffffffffffffff1681526020019081526020016000205461321390919063ffffffff16565b600360008a73ffffffffffffffffffffffffffffffffffffffff1673ffffffffffffffffffffffffffffffffffffffff1681526020019081526020016000208190555061493c81614a2c565b6149468483614bd1565b8773ffffffffffffffffffffffffffffffffffffffff168973ffffffffffffffffffffffffffffffffffffffff167fddf252ad1be2c89b69c2b068fc378daa952ba7f163c4a11628f55a4df523b3ef856040518082815260200191505060405180910390a3505050505050505050565b601054600f81905550601254601181905550565b60006149f460646149e6600f548561334190919063ffffffff16565b6131c990919063ffffffff16565b9050919050565b6000614a256064614a176011548561334190919063ffffffff16565b6131c990919063ffffffff16565b9050919050565b6000614a3661319e565b90506000614a4d828461334190919063ffffffff16565b9050614aa181600360003073ffffffffffffffffffffffffffffffffffffffff1673ffffffffffffffffffffffffffffffffffffffff1681526020019081526020016000205461321390919063ffffffff16565b600360003073ffffffffffffffffffffffffffffffffffffffff1673ffffffffffffffffffffffffffffffffffffffff16815260200190815260200160002081905550600760003073ffffffffffffffffffffffffffffffffffffffff1673ffffffffffffffffffffffffffffffffffffffff16815260200190815260200160002060009054906101000a900460ff1615614bcc57614b8883600460003073ffffffffffffffffffffffffffffffffffffffff1673ffffffffffffffffffffffffffffffffffffffff1681526020019081526020016000205461321390919063ffffffff16565b600460003073ffffffffffffffffffffffffffffffffffffffff1673ffffffffffffffffffffffffffffffffffffffff168152602001908152602001600020819055505b505050565b614be682600a546132f790919063ffffffff16565b600a81905550614c0181600b5461321390919063ffffffff16565b600b81905550505056fe45524332303a207472616e7366657220746f20746865207a65726f2061646472657373416d6f756e74206d757374206265206c657373207468616e20746f74616c207265666c656374696f6e734f776e61626c653a206e6577206f776e657220697320746865207a65726f206164647265737345524332303a20617070726f766520746f20746865207a65726f20616464726573735472616e7366657220616d6f756e74206578636565647320746865206d61785478416d6f756e742e536166654d6174683a206d756c7469706c69636174696f6e206f766572666c6f7745524332303a207472616e7366657220616d6f756e74206578636565647320616c6c6f77616e63655472616e7366657220616d6f756e74206d7573742062652067726561746572207468616e207a65726f45524332303a207472616e736665722066726f6d20746865207a65726f206164647265737345524332303a20617070726f76652066726f6d20746865207a65726f20616464726573734578636c75646564206164647265737365732063616e6e6f742063616c6c20746869732066756e6374696f6e596f7520646f6e27742068617665207065726d697373696f6e20746f20756e6c6f636b45524332303a2064656372656173656420616c6c6f77616e63652062656c6f77207a65726fa2646970667358221220b28f5a8549da3c02864cfa0e6698819d4ee00f94319b5fda42f2f3c4dba2073364736f6c634300060c0033",
					"opcodes": "PUSH1 0xC0 PUSH1 0x40 MSTORE PUSH10 0xD3C21BCECCEDA1000000 PUSH1 0x9 SSTORE PUSH1 0x9 SLOAD PUSH1 0x0 NOT DUP2 PUSH3 0x20 JUMPI INVALID JUMPDEST MOD PUSH1 0x0 NOT SUB PUSH1 0xA SSTORE PUSH1 0x40 MLOAD DUP1 PUSH1 0x40 ADD PUSH1 0x40 MSTORE DUP1 PUSH1 0x8 DUP2 MSTORE PUSH1 0x20 ADD PUSH32 0x536166654D6F6F6E000000000000000000000000000000000000000000000000 DUP2 MSTORE POP PUSH1 0xC SWAP1 DUP1 MLOAD SWAP1 PUSH1 0x20 ADD SWAP1 PUSH3 0x75 SWAP3 SWAP2 SWAP1 PUSH3 0x5FE JUMP JUMPDEST POP PUSH1 0x40 MLOAD DUP1 PUSH1 0x40 ADD PUSH1 0x40 MSTORE DUP1 PUSH1 0x8 DUP2 MSTORE PUSH1 0x20 ADD PUSH32 0x534146454D4F4F4E000000000000000000000000000000000000000000000000 DUP2 MSTORE POP PUSH1 0xD SWAP1 DUP1 MLOAD SWAP1 PUSH1 0x20 ADD SWAP1 PUSH3 0xC3 SWAP3 SWAP2 SWAP1 PUSH3 0x5FE JUMP JUMPDEST POP PUSH1 0x9 PUSH1 0xE PUSH1 0x0 PUSH2 0x100 EXP DUP2 SLOAD DUP2 PUSH1 0xFF MUL NOT AND SWAP1 DUP4 PUSH1 0xFF AND MUL OR SWAP1 SSTORE POP PUSH1 0x5 PUSH1 0xF SSTORE PUSH1 0xF SLOAD PUSH1 0x10 SSTORE PUSH1 0x5 PUSH1 0x11 SSTORE PUSH1 0x11 SLOAD PUSH1 0x12 SSTORE PUSH1 0x1 PUSH1 0x13 PUSH1 0x1 PUSH2 0x100 EXP DUP2 SLOAD DUP2 PUSH1 0xFF MUL NOT AND SWAP1 DUP4 ISZERO ISZERO MUL OR SWAP1 SSTORE POP PUSH10 0x10F0CF064DD59200000 PUSH1 0x14 SSTORE PUSH9 0x1B1AE4D6E2EF500000 PUSH1 0x15 SSTORE CALLVALUE DUP1 ISZERO PUSH3 0x139 JUMPI PUSH1 0x0 DUP1 REVERT JUMPDEST POP PUSH1 0x0 PUSH3 0x14C PUSH3 0x5CD PUSH1 0x20 SHL PUSH1 0x20 SHR JUMP JUMPDEST SWAP1 POP DUP1 PUSH1 0x0 DUP1 PUSH2 0x100 EXP DUP2 SLOAD DUP2 PUSH20 0xFFFFFFFFFFFFFFFFFFFFFFFFFFFFFFFFFFFFFFFF MUL NOT AND SWAP1 DUP4 PUSH20 0xFFFFFFFFFFFFFFFFFFFFFFFFFFFFFFFFFFFFFFFF AND MUL OR SWAP1 SSTORE POP DUP1 PUSH20 0xFFFFFFFFFFFFFFFFFFFFFFFFFFFFFFFFFFFFFFFF AND PUSH1 0x0 PUSH20 0xFFFFFFFFFFFFFFFFFFFFFFFFFFFFFFFFFFFFFFFF AND PUSH32 0x8BE0079C531659141344CD1FD0A4F28419497F9722A3DAAFE3B4186F6B6457E0 PUSH1 0x40 MLOAD PUSH1 0x40 MLOAD DUP1 SWAP2 SUB SWAP1 LOG3 POP PUSH1 0xA SLOAD PUSH1 0x3 PUSH1 0x0 PUSH3 0x201 PUSH3 0x5CD PUSH1 0x20 SHL PUSH1 0x20 SHR JUMP JUMPDEST PUSH20 0xFFFFFFFFFFFFFFFFFFFFFFFFFFFFFFFFFFFFFFFF AND PUSH20 0xFFFFFFFFFFFFFFFFFFFFFFFFFFFFFFFFFFFFFFFF AND DUP2 MSTORE PUSH1 0x20 ADD SWAP1 DUP2 MSTORE PUSH1 0x20 ADD PUSH1 0x0 KECCAK256 DUP2 SWAP1 SSTORE POP PUSH1 0x0 PUSH20 0x5FF2B0DB69458A0750BADEBC4F9E13ADD608C7F SWAP1 POP DUP1 PUSH20 0xFFFFFFFFFFFFFFFFFFFFFFFFFFFFFFFFFFFFFFFF AND PUSH4 0xC45A0155 PUSH1 0x40 MLOAD DUP2 PUSH4 0xFFFFFFFF AND PUSH1 0xE0 SHL DUP2 MSTORE PUSH1 0x4 ADD PUSH1 0x20 PUSH1 0x40 MLOAD DUP1 DUP4 SUB DUP2 DUP7 DUP1 EXTCODESIZE ISZERO DUP1 ISZERO PUSH3 0x29F JUMPI PUSH1 0x0 DUP1 REVERT JUMPDEST POP GAS STATICCALL ISZERO DUP1 ISZERO PUSH3 0x2B4 JUMPI RETURNDATASIZE PUSH1 0x0 DUP1 RETURNDATACOPY RETURNDATASIZE PUSH1 0x0 REVERT JUMPDEST POP POP POP POP PUSH1 0x40 MLOAD RETURNDATASIZE PUSH1 0x20 DUP2 LT ISZERO PUSH3 0x2CB JUMPI PUSH1 0x0 DUP1 REVERT JUMPDEST DUP2 ADD SWAP1 DUP1 DUP1 MLOAD SWAP1 PUSH1 0x20 ADD SWAP1 SWAP3 SWAP2 SWAP1 POP POP POP PUSH20 0xFFFFFFFFFFFFFFFFFFFFFFFFFFFFFFFFFFFFFFFF AND PUSH4 0xC9C65396 ADDRESS DUP4 PUSH20 0xFFFFFFFFFFFFFFFFFFFFFFFFFFFFFFFFFFFFFFFF AND PUSH4 0xAD5C4648 PUSH1 0x40 MLOAD DUP2 PUSH4 0xFFFFFFFF AND PUSH1 0xE0 SHL DUP2 MSTORE PUSH1 0x4 ADD PUSH1 0x20 PUSH1 0x40 MLOAD DUP1 DUP4 SUB DUP2 DUP7 DUP1 EXTCODESIZE ISZERO DUP1 ISZERO PUSH3 0x33F JUMPI PUSH1 0x0 DUP1 REVERT JUMPDEST POP GAS STATICCALL ISZERO DUP1 ISZERO PUSH3 0x354 JUMPI RETURNDATASIZE PUSH1 0x0 DUP1 RETURNDATACOPY RETURNDATASIZE PUSH1 0x0 REVERT JUMPDEST POP POP POP POP PUSH1 0x40 MLOAD RETURNDATASIZE PUSH1 0x20 DUP2 LT ISZERO PUSH3 0x36B JUMPI PUSH1 0x0 DUP1 REVERT JUMPDEST DUP2 ADD SWAP1 DUP1 DUP1 MLOAD SWAP1 PUSH1 0x20 ADD SWAP1 SWAP3 SWAP2 SWAP1 POP POP POP PUSH1 0x40 MLOAD DUP4 PUSH4 0xFFFFFFFF AND PUSH1 0xE0 SHL DUP2 MSTORE PUSH1 0x4 ADD DUP1 DUP4 PUSH20 0xFFFFFFFFFFFFFFFFFFFFFFFFFFFFFFFFFFFFFFFF AND DUP2 MSTORE PUSH1 0x20 ADD DUP3 PUSH20 0xFFFFFFFFFFFFFFFFFFFFFFFFFFFFFFFFFFFFFFFF AND DUP2 MSTORE PUSH1 0x20 ADD SWAP3 POP POP POP PUSH1 0x20 PUSH1 0x40 MLOAD DUP1 DUP4 SUB DUP2 PUSH1 0x0 DUP8 DUP1 EXTCODESIZE ISZERO DUP1 ISZERO PUSH3 0x3E6 JUMPI PUSH1 0x0 DUP1 REVERT JUMPDEST POP GAS CALL ISZERO DUP1 ISZERO PUSH3 0x3FB JUMPI RETURNDATASIZE PUSH1 0x0 DUP1 RETURNDATACOPY RETURNDATASIZE PUSH1 0x0 REVERT JUMPDEST POP POP POP POP PUSH1 0x40 MLOAD RETURNDATASIZE PUSH1 0x20 DUP2 LT ISZERO PUSH3 0x412 JUMPI PUSH1 0x0 DUP1 REVERT JUMPDEST DUP2 ADD SWAP1 DUP1 DUP1 MLOAD SWAP1 PUSH1 0x20 ADD SWAP1 SWAP3 SWAP2 SWAP1 POP POP POP PUSH20 0xFFFFFFFFFFFFFFFFFFFFFFFFFFFFFFFFFFFFFFFF AND PUSH1 0xA0 DUP2 PUSH20 0xFFFFFFFFFFFFFFFFFFFFFFFFFFFFFFFFFFFFFFFF AND PUSH1 0x60 SHL DUP2 MSTORE POP POP DUP1 PUSH20 0xFFFFFFFFFFFFFFFFFFFFFFFFFFFFFFFFFFFFFFFF AND PUSH1 0x80 DUP2 PUSH20 0xFFFFFFFFFFFFFFFFFFFFFFFFFFFFFFFFFFFFFFFF AND PUSH1 0x60 SHL DUP2 MSTORE POP POP PUSH1 0x1 PUSH1 0x6 PUSH1 0x0 PUSH3 0x4A6 PUSH3 0x5D5 PUSH1 0x20 SHL PUSH1 0x20 SHR JUMP JUMPDEST PUSH20 0xFFFFFFFFFFFFFFFFFFFFFFFFFFFFFFFFFFFFFFFF AND PUSH20 0xFFFFFFFFFFFFFFFFFFFFFFFFFFFFFFFFFFFFFFFF AND DUP2 MSTORE PUSH1 0x20 ADD SWAP1 DUP2 MSTORE PUSH1 0x20 ADD PUSH1 0x0 KECCAK256 PUSH1 0x0 PUSH2 0x100 EXP DUP2 SLOAD DUP2 PUSH1 0xFF MUL NOT AND SWAP1 DUP4 ISZERO ISZERO MUL OR SWAP1 SSTORE POP PUSH1 0x1 PUSH1 0x6 PUSH1 0x0 ADDRESS PUSH20 0xFFFFFFFFFFFFFFFFFFFFFFFFFFFFFFFFFFFFFFFF AND PUSH20 0xFFFFFFFFFFFFFFFFFFFFFFFFFFFFFFFFFFFFFFFF AND DUP2 MSTORE PUSH1 0x20 ADD SWAP1 DUP2 MSTORE PUSH1 0x20 ADD PUSH1 0x0 KECCAK256 PUSH1 0x0 PUSH2 0x100 EXP DUP2 SLOAD DUP2 PUSH1 0xFF MUL NOT AND SWAP1 DUP4 ISZERO ISZERO MUL OR SWAP1 SSTORE POP PUSH3 0x55F PUSH3 0x5CD PUSH1 0x20 SHL PUSH1 0x20 SHR JUMP JUMPDEST PUSH20 0xFFFFFFFFFFFFFFFFFFFFFFFFFFFFFFFFFFFFFFFF AND PUSH1 0x0 PUSH20 0xFFFFFFFFFFFFFFFFFFFFFFFFFFFFFFFFFFFFFFFF AND PUSH32 0xDDF252AD1BE2C89B69C2B068FC378DAA952BA7F163C4A11628F55A4DF523B3EF PUSH1 0x9 SLOAD PUSH1 0x40 MLOAD DUP1 DUP3 DUP2 MSTORE PUSH1 0x20 ADD SWAP2 POP POP PUSH1 0x40 MLOAD DUP1 SWAP2 SUB SWAP1 LOG3 POP PUSH3 0x6A4 JUMP JUMPDEST PUSH1 0x0 CALLER SWAP1 POP SWAP1 JUMP JUMPDEST PUSH1 0x0 DUP1 PUSH1 0x0 SWAP1 SLOAD SWAP1 PUSH2 0x100 EXP SWAP1 DIV PUSH20 0xFFFFFFFFFFFFFFFFFFFFFFFFFFFFFFFFFFFFFFFF AND SWAP1 POP SWAP1 JUMP JUMPDEST DUP3 DUP1 SLOAD PUSH1 0x1 DUP2 PUSH1 0x1 AND ISZERO PUSH2 0x100 MUL SUB AND PUSH1 0x2 SWAP1 DIV SWAP1 PUSH1 0x0 MSTORE PUSH1 0x20 PUSH1 0x0 KECCAK256 SWAP1 PUSH1 0x1F ADD PUSH1 0x20 SWAP1 DIV DUP2 ADD SWAP3 DUP3 PUSH1 0x1F LT PUSH3 0x641 JUMPI DUP1 MLOAD PUSH1 0xFF NOT AND DUP4 DUP1 ADD OR DUP6 SSTORE PUSH3 0x672 JUMP JUMPDEST DUP3 DUP1 ADD PUSH1 0x1 ADD DUP6 SSTORE DUP3 ISZERO PUSH3 0x672 JUMPI SWAP2 DUP3 ADD JUMPDEST DUP3 DUP2 GT ISZERO PUSH3 0x671 JUMPI DUP3 MLOAD DUP3 SSTORE SWAP2 PUSH1 0x20 ADD SWAP2 SWAP1 PUSH1 0x1 ADD SWAP1 PUSH3 0x654 JUMP JUMPDEST JUMPDEST POP SWAP1 POP PUSH3 0x681 SWAP2 SWAP1 PUSH3 0x685 JUMP JUMPDEST POP SWAP1 JUMP JUMPDEST JUMPDEST DUP1 DUP3 GT ISZERO PUSH3 0x6A0 JUMPI PUSH1 0x0 DUP2 PUSH1 0x0 SWAP1 SSTORE POP PUSH1 0x1 ADD PUSH3 0x686 JUMP JUMPDEST POP SWAP1 JUMP JUMPDEST PUSH1 0x80 MLOAD PUSH1 0x60 SHR PUSH1 0xA0 MLOAD PUSH1 0x60 SHR PUSH2 0x4E2D PUSH3 0x6EC PUSH1 0x0 CODECOPY DUP1 PUSH2 0x1836 MSTORE DUP1 PUSH2 0x2F9E MSTORE POP DUP1 PUSH2 0xEE6 MSTORE DUP1 PUSH2 0x3C8A MSTORE DUP1 PUSH2 0x3D76 MSTORE DUP1 PUSH2 0x3D9D MSTORE DUP1 PUSH2 0x3EA8 MSTORE DUP1 PUSH2 0x3ECF MSTORE POP PUSH2 0x4E2D PUSH1 0x0 RETURN INVALID PUSH1 0x80 PUSH1 0x40 MSTORE PUSH1 0x4 CALLDATASIZE LT PUSH2 0x21E JUMPI PUSH1 0x0 CALLDATALOAD PUSH1 0xE0 SHR DUP1 PUSH4 0x5342ACB4 GT PUSH2 0x123 JUMPI DUP1 PUSH4 0xA457C2D7 GT PUSH2 0xAB JUMPI DUP1 PUSH4 0xD543DBEB GT PUSH2 0x6F JUMPI DUP1 PUSH4 0xD543DBEB EQ PUSH2 0xBAB JUMPI DUP1 PUSH4 0xDD467064 EQ PUSH2 0xBE6 JUMPI DUP1 PUSH4 0xDD62ED3E EQ PUSH2 0xC21 JUMPI DUP1 PUSH4 0xEA2F0B37 EQ PUSH2 0xCA6 JUMPI DUP1 PUSH4 0xF2FDE38B EQ PUSH2 0xCF7 JUMPI PUSH2 0x225 JUMP JUMPDEST DUP1 PUSH4 0xA457C2D7 EQ PUSH2 0xA4A JUMPI DUP1 PUSH4 0xA69DF4B5 EQ PUSH2 0xABB JUMPI DUP1 PUSH4 0xA9059CBB EQ PUSH2 0xAD2 JUMPI DUP1 PUSH4 0xB6C52324 EQ PUSH2 0xB43 JUMPI DUP1 PUSH4 0xC49B9A80 EQ PUSH2 0xB6E JUMPI PUSH2 0x225 JUMP JUMPDEST DUP1 PUSH4 0x7D1DB4A5 GT PUSH2 0xF2 JUMPI DUP1 PUSH4 0x7D1DB4A5 EQ PUSH2 0x8AC JUMPI DUP1 PUSH4 0x88F82020 EQ PUSH2 0x8D7 JUMPI DUP1 PUSH4 0x8DA5CB5B EQ PUSH2 0x93E JUMPI DUP1 PUSH4 0x8EE88C53 EQ PUSH2 0x97F JUMPI DUP1 PUSH4 0x95D89B41 EQ PUSH2 0x9BA JUMPI PUSH2 0x225 JUMP JUMPDEST DUP1 PUSH4 0x5342ACB4 EQ PUSH2 0x79E JUMPI DUP1 PUSH4 0x6BC87C3A EQ PUSH2 0x805 JUMPI DUP1 PUSH4 0x70A08231 EQ PUSH2 0x830 JUMPI DUP1 PUSH4 0x715018A6 EQ PUSH2 0x895 JUMPI PUSH2 0x225 JUMP JUMPDEST DUP1 PUSH4 0x3685D419 GT PUSH2 0x1A6 JUMPI DUP1 PUSH4 0x437823EC GT PUSH2 0x175 JUMPI DUP1 PUSH4 0x437823EC EQ PUSH2 0x633 JUMPI DUP1 PUSH4 0x4549B039 EQ PUSH2 0x684 JUMPI DUP1 PUSH4 0x49BD5A5E EQ PUSH2 0x6DF JUMPI DUP1 PUSH4 0x4A74BB02 EQ PUSH2 0x720 JUMPI DUP1 PUSH4 0x52390C02 EQ PUSH2 0x74D JUMPI PUSH2 0x225 JUMP JUMPDEST DUP1 PUSH4 0x3685D419 EQ PUSH2 0x50B JUMPI DUP1 PUSH4 0x39509351 EQ PUSH2 0x55C JUMPI DUP1 PUSH4 0x3B124FE7 EQ PUSH2 0x5CD JUMPI DUP1 PUSH4 0x3BD5D173 EQ PUSH2 0x5F8 JUMPI PUSH2 0x225 JUMP JUMPDEST DUP1 PUSH4 0x1694505E GT PUSH2 0x1ED JUMPI DUP1 PUSH4 0x1694505E EQ PUSH2 0x391 JUMPI DUP1 PUSH4 0x18160DDD EQ PUSH2 0x3D2 JUMPI DUP1 PUSH4 0x23B872DD EQ PUSH2 0x3FD JUMPI DUP1 PUSH4 0x2D838119 EQ PUSH2 0x48E JUMPI DUP1 PUSH4 0x313CE567 EQ PUSH2 0x4DD JUMPI PUSH2 0x225 JUMP JUMPDEST DUP1 PUSH4 0x61C82D0 EQ PUSH2 0x22A JUMPI DUP1 PUSH4 0x6FDDE03 EQ PUSH2 0x265 JUMPI DUP1 PUSH4 0x95EA7B3 EQ PUSH2 0x2F5 JUMPI DUP1 PUSH4 0x13114A9D EQ PUSH2 0x366 JUMPI PUSH2 0x225 JUMP JUMPDEST CALLDATASIZE PUSH2 0x225 JUMPI STOP JUMPDEST PUSH1 0x0 DUP1 REVERT JUMPDEST CALLVALUE DUP1 ISZERO PUSH2 0x236 JUMPI PUSH1 0x0 DUP1 REVERT JUMPDEST POP PUSH2 0x263 PUSH1 0x4 DUP1 CALLDATASIZE SUB PUSH1 0x20 DUP2 LT ISZERO PUSH2 0x24D JUMPI PUSH1 0x0 DUP1 REVERT JUMPDEST DUP2 ADD SWAP1 DUP1 DUP1 CALLDATALOAD SWAP1 PUSH1 0x20 ADD SWAP1 SWAP3 SWAP2 SWAP1 POP POP POP PUSH2 0xD48 JUMP JUMPDEST STOP JUMPDEST CALLVALUE DUP1 ISZERO PUSH2 0x271 JUMPI PUSH1 0x0 DUP1 REVERT JUMPDEST POP PUSH2 0x27A PUSH2 0xE1A JUMP JUMPDEST PUSH1 0x40 MLOAD DUP1 DUP1 PUSH1 0x20 ADD DUP3 DUP2 SUB DUP3 MSTORE DUP4 DUP2 DUP2 MLOAD DUP2 MSTORE PUSH1 0x20 ADD SWAP2 POP DUP1 MLOAD SWAP1 PUSH1 0x20 ADD SWAP1 DUP1 DUP4 DUP4 PUSH1 0x0 JUMPDEST DUP4 DUP2 LT ISZERO PUSH2 0x2BA JUMPI DUP1 DUP3 ADD MLOAD DUP2 DUP5 ADD MSTORE PUSH1 0x20 DUP2 ADD SWAP1 POP PUSH2 0x29F JUMP JUMPDEST POP POP POP POP SWAP1 POP SWAP1 DUP2 ADD SWAP1 PUSH1 0x1F AND DUP1 ISZERO PUSH2 0x2E7 JUMPI DUP1 DUP3 SUB DUP1 MLOAD PUSH1 0x1 DUP4 PUSH1 0x20 SUB PUSH2 0x100 EXP SUB NOT AND DUP2 MSTORE PUSH1 0x20 ADD SWAP2 POP JUMPDEST POP SWAP3 POP POP POP PUSH1 0x40 MLOAD DUP1 SWAP2 SUB SWAP1 RETURN JUMPDEST CALLVALUE DUP1 ISZERO PUSH2 0x301 JUMPI PUSH1 0x0 DUP1 REVERT JUMPDEST POP PUSH2 0x34E PUSH1 0x4 DUP1 CALLDATASIZE SUB PUSH1 0x40 DUP2 LT ISZERO PUSH2 0x318 JUMPI PUSH1 0x0 DUP1 REVERT JUMPDEST DUP2 ADD SWAP1 DUP1 DUP1 CALLDATALOAD PUSH20 0xFFFFFFFFFFFFFFFFFFFFFFFFFFFFFFFFFFFFFFFF AND SWAP1 PUSH1 0x20 ADD SWAP1 SWAP3 SWAP2 SWAP1 DUP1 CALLDATALOAD SWAP1 PUSH1 0x20 ADD SWAP1 SWAP3 SWAP2 SWAP1 POP POP POP PUSH2 0xEBC JUMP JUMPDEST PUSH1 0x40 MLOAD DUP1 DUP3 ISZERO ISZERO DUP2 MSTORE PUSH1 0x20 ADD SWAP2 POP POP PUSH1 0x40 MLOAD DUP1 SWAP2 SUB SWAP1 RETURN JUMPDEST CALLVALUE DUP1 ISZERO PUSH2 0x372 JUMPI PUSH1 0x0 DUP1 REVERT JUMPDEST POP PUSH2 0x37B PUSH2 0xEDA JUMP JUMPDEST PUSH1 0x40 MLOAD DUP1 DUP3 DUP2 MSTORE PUSH1 0x20 ADD SWAP2 POP POP PUSH1 0x40 MLOAD DUP1 SWAP2 SUB SWAP1 RETURN JUMPDEST CALLVALUE DUP1 ISZERO PUSH2 0x39D JUMPI PUSH1 0x0 DUP1 REVERT JUMPDEST POP PUSH2 0x3A6 PUSH2 0xEE4 JUMP JUMPDEST PUSH1 0x40 MLOAD DUP1 DUP3 PUSH20 0xFFFFFFFFFFFFFFFFFFFFFFFFFFFFFFFFFFFFFFFF AND DUP2 MSTORE PUSH1 0x20 ADD SWAP2 POP POP PUSH1 0x40 MLOAD DUP1 SWAP2 SUB SWAP1 RETURN JUMPDEST CALLVALUE DUP1 ISZERO PUSH2 0x3DE JUMPI PUSH1 0x0 DUP1 REVERT JUMPDEST POP PUSH2 0x3E7 PUSH2 0xF08 JUMP JUMPDEST PUSH1 0x40 MLOAD DUP1 DUP3 DUP2 MSTORE PUSH1 0x20 ADD SWAP2 POP POP PUSH1 0x40 MLOAD DUP1 SWAP2 SUB SWAP1 RETURN JUMPDEST CALLVALUE DUP1 ISZERO PUSH2 0x409 JUMPI PUSH1 0x0 DUP1 REVERT JUMPDEST POP PUSH2 0x476 PUSH1 0x4 DUP1 CALLDATASIZE SUB PUSH1 0x60 DUP2 LT ISZERO PUSH2 0x420 JUMPI PUSH1 0x0 DUP1 REVERT JUMPDEST DUP2 ADD SWAP1 DUP1 DUP1 CALLDATALOAD PUSH20 0xFFFFFFFFFFFFFFFFFFFFFFFFFFFFFFFFFFFFFFFF AND SWAP1 PUSH1 0x20 ADD SWAP1 SWAP3 SWAP2 SWAP1 DUP1 CALLDATALOAD PUSH20 0xFFFFFFFFFFFFFFFFFFFFFFFFFFFFFFFFFFFFFFFF AND SWAP1 PUSH1 0x20 ADD SWAP1 SWAP3 SWAP2 SWAP1 DUP1 CALLDATALOAD SWAP1 PUSH1 0x20 ADD SWAP1 SWAP3 SWAP2 SWAP1 POP POP POP PUSH2 0xF12 JUMP JUMPDEST PUSH1 0x40 MLOAD DUP1 DUP3 ISZERO ISZERO DUP2 MSTORE PUSH1 0x20 ADD SWAP2 POP POP PUSH1 0x40 MLOAD DUP1 SWAP2 SUB SWAP1 RETURN JUMPDEST CALLVALUE DUP1 ISZERO PUSH2 0x49A JUMPI PUSH1 0x0 DUP1 REVERT JUMPDEST POP PUSH2 0x4C7 PUSH1 0x4 DUP1 CALLDATASIZE SUB PUSH1 0x20 DUP2 LT ISZERO PUSH2 0x4B1 JUMPI PUSH1 0x0 DUP1 REVERT JUMPDEST DUP2 ADD SWAP1 DUP1 DUP1 CALLDATALOAD SWAP1 PUSH1 0x20 ADD SWAP1 SWAP3 SWAP2 SWAP1 POP POP POP PUSH2 0xFEB JUMP JUMPDEST PUSH1 0x40 MLOAD DUP1 DUP3 DUP2 MSTORE PUSH1 0x20 ADD SWAP2 POP POP PUSH1 0x40 MLOAD DUP1 SWAP2 SUB SWAP1 RETURN JUMPDEST CALLVALUE DUP1 ISZERO PUSH2 0x4E9 JUMPI PUSH1 0x0 DUP1 REVERT JUMPDEST POP PUSH2 0x4F2 PUSH2 0x106F JUMP JUMPDEST PUSH1 0x40 MLOAD DUP1 DUP3 PUSH1 0xFF AND DUP2 MSTORE PUSH1 0x20 ADD SWAP2 POP POP PUSH1 0x40 MLOAD DUP1 SWAP2 SUB SWAP1 RETURN JUMPDEST CALLVALUE DUP1 ISZERO PUSH2 0x517 JUMPI PUSH1 0x0 DUP1 REVERT JUMPDEST POP PUSH2 0x55A PUSH1 0x4 DUP1 CALLDATASIZE SUB PUSH1 0x20 DUP2 LT ISZERO PUSH2 0x52E JUMPI PUSH1 0x0 DUP1 REVERT JUMPDEST DUP2 ADD SWAP1 DUP1 DUP1 CALLDATALOAD PUSH20 0xFFFFFFFFFFFFFFFFFFFFFFFFFFFFFFFFFFFFFFFF AND SWAP1 PUSH1 0x20 ADD SWAP1 SWAP3 SWAP2 SWAP1 POP POP POP PUSH2 0x1086 JUMP JUMPDEST STOP JUMPDEST CALLVALUE DUP1 ISZERO PUSH2 0x568 JUMPI PUSH1 0x0 DUP1 REVERT JUMPDEST POP PUSH2 0x5B5 PUSH1 0x4 DUP1 CALLDATASIZE SUB PUSH1 0x40 DUP2 LT ISZERO PUSH2 0x57F JUMPI PUSH1 0x0 DUP1 REVERT JUMPDEST DUP2 ADD SWAP1 DUP1 DUP1 CALLDATALOAD PUSH20 0xFFFFFFFFFFFFFFFFFFFFFFFFFFFFFFFFFFFFFFFF AND SWAP1 PUSH1 0x20 ADD SWAP1 SWAP3 SWAP2 SWAP1 DUP1 CALLDATALOAD SWAP1 PUSH1 0x20 ADD SWAP1 SWAP3 SWAP2 SWAP1 POP POP POP PUSH2 0x1410 JUMP JUMPDEST PUSH1 0x40 MLOAD DUP1 DUP3 ISZERO ISZERO DUP2 MSTORE PUSH1 0x20 ADD SWAP2 POP POP PUSH1 0x40 MLOAD DUP1 SWAP2 SUB SWAP1 RETURN JUMPDEST CALLVALUE DUP1 ISZERO PUSH2 0x5D9 JUMPI PUSH1 0x0 DUP1 REVERT JUMPDEST POP PUSH2 0x5E2 PUSH2 0x14C3 JUMP JUMPDEST PUSH1 0x40 MLOAD DUP1 DUP3 DUP2 MSTORE PUSH1 0x20 ADD SWAP2 POP POP PUSH1 0x40 MLOAD DUP1 SWAP2 SUB SWAP1 RETURN JUMPDEST CALLVALUE DUP1 ISZERO PUSH2 0x604 JUMPI PUSH1 0x0 DUP1 REVERT JUMPDEST POP PUSH2 0x631 PUSH1 0x4 DUP1 CALLDATASIZE SUB PUSH1 0x20 DUP2 LT ISZERO PUSH2 0x61B JUMPI PUSH1 0x0 DUP1 REVERT JUMPDEST DUP2 ADD SWAP1 DUP1 DUP1 CALLDATALOAD SWAP1 PUSH1 0x20 ADD SWAP1 SWAP3 SWAP2 SWAP1 POP POP POP PUSH2 0x14C9 JUMP JUMPDEST STOP JUMPDEST CALLVALUE DUP1 ISZERO PUSH2 0x63F JUMPI PUSH1 0x0 DUP1 REVERT JUMPDEST POP PUSH2 0x682 PUSH1 0x4 DUP1 CALLDATASIZE SUB PUSH1 0x20 DUP2 LT ISZERO PUSH2 0x656 JUMPI PUSH1 0x0 DUP1 REVERT JUMPDEST DUP2 ADD SWAP1 DUP1 DUP1 CALLDATALOAD PUSH20 0xFFFFFFFFFFFFFFFFFFFFFFFFFFFFFFFFFFFFFFFF AND SWAP1 PUSH1 0x20 ADD SWAP1 SWAP3 SWAP2 SWAP1 POP POP POP PUSH2 0x165A JUMP JUMPDEST STOP JUMPDEST CALLVALUE DUP1 ISZERO PUSH2 0x690 JUMPI PUSH1 0x0 DUP1 REVERT JUMPDEST POP PUSH2 0x6C9 PUSH1 0x4 DUP1 CALLDATASIZE SUB PUSH1 0x40 DUP2 LT ISZERO PUSH2 0x6A7 JUMPI PUSH1 0x0 DUP1 REVERT JUMPDEST DUP2 ADD SWAP1 DUP1 DUP1 CALLDATALOAD SWAP1 PUSH1 0x20 ADD SWAP1 SWAP3 SWAP2 SWAP1 DUP1 CALLDATALOAD ISZERO ISZERO SWAP1 PUSH1 0x20 ADD SWAP1 SWAP3 SWAP2 SWAP1 POP POP POP PUSH2 0x177D JUMP JUMPDEST PUSH1 0x40 MLOAD DUP1 DUP3 DUP2 MSTORE PUSH1 0x20 ADD SWAP2 POP POP PUSH1 0x40 MLOAD DUP1 SWAP2 SUB SWAP1 RETURN JUMPDEST CALLVALUE DUP1 ISZERO PUSH2 0x6EB JUMPI PUSH1 0x0 DUP1 REVERT JUMPDEST POP PUSH2 0x6F4 PUSH2 0x1834 JUMP JUMPDEST PUSH1 0x40 MLOAD DUP1 DUP3 PUSH20 0xFFFFFFFFFFFFFFFFFFFFFFFFFFFFFFFFFFFFFFFF AND DUP2 MSTORE PUSH1 0x20 ADD SWAP2 POP POP PUSH1 0x40 MLOAD DUP1 SWAP2 SUB SWAP1 RETURN JUMPDEST CALLVALUE DUP1 ISZERO PUSH2 0x72C JUMPI PUSH1 0x0 DUP1 REVERT JUMPDEST POP PUSH2 0x735 PUSH2 0x1858 JUMP JUMPDEST PUSH1 0x40 MLOAD DUP1 DUP3 ISZERO ISZERO DUP2 MSTORE PUSH1 0x20 ADD SWAP2 POP POP PUSH1 0x40 MLOAD DUP1 SWAP2 SUB SWAP1 RETURN JUMPDEST CALLVALUE DUP1 ISZERO PUSH2 0x759 JUMPI PUSH1 0x0 DUP1 REVERT JUMPDEST POP PUSH2 0x79C PUSH1 0x4 DUP1 CALLDATASIZE SUB PUSH1 0x20 DUP2 LT ISZERO PUSH2 0x770 JUMPI PUSH1 0x0 DUP1 REVERT JUMPDEST DUP2 ADD SWAP1 DUP1 DUP1 CALLDATALOAD PUSH20 0xFFFFFFFFFFFFFFFFFFFFFFFFFFFFFFFFFFFFFFFF AND SWAP1 PUSH1 0x20 ADD SWAP1 SWAP3 SWAP2 SWAP1 POP POP POP PUSH2 0x186B JUMP JUMPDEST STOP JUMPDEST CALLVALUE DUP1 ISZERO PUSH2 0x7AA JUMPI PUSH1 0x0 DUP1 REVERT JUMPDEST POP PUSH2 0x7ED PUSH1 0x4 DUP1 CALLDATASIZE SUB PUSH1 0x20 DUP2 LT ISZERO PUSH2 0x7C1 JUMPI PUSH1 0x0 DUP1 REVERT JUMPDEST DUP2 ADD SWAP1 DUP1 DUP1 CALLDATALOAD PUSH20 0xFFFFFFFFFFFFFFFFFFFFFFFFFFFFFFFFFFFFFFFF AND SWAP1 PUSH1 0x20 ADD SWAP1 SWAP3 SWAP2 SWAP1 POP POP POP PUSH2 0x1B85 JUMP JUMPDEST PUSH1 0x40 MLOAD DUP1 DUP3 ISZERO ISZERO DUP2 MSTORE PUSH1 0x20 ADD SWAP2 POP POP PUSH1 0x40 MLOAD DUP1 SWAP2 SUB SWAP1 RETURN JUMPDEST CALLVALUE DUP1 ISZERO PUSH2 0x811 JUMPI PUSH1 0x0 DUP1 REVERT JUMPDEST POP PUSH2 0x81A PUSH2 0x1BDB JUMP JUMPDEST PUSH1 0x40 MLOAD DUP1 DUP3 DUP2 MSTORE PUSH1 0x20 ADD SWAP2 POP POP PUSH1 0x40 MLOAD DUP1 SWAP2 SUB SWAP1 RETURN JUMPDEST CALLVALUE DUP1 ISZERO PUSH2 0x83C JUMPI PUSH1 0x0 DUP1 REVERT JUMPDEST POP PUSH2 0x87F PUSH1 0x4 DUP1 CALLDATASIZE SUB PUSH1 0x20 DUP2 LT ISZERO PUSH2 0x853 JUMPI PUSH1 0x0 DUP1 REVERT JUMPDEST DUP2 ADD SWAP1 DUP1 DUP1 CALLDATALOAD PUSH20 0xFFFFFFFFFFFFFFFFFFFFFFFFFFFFFFFFFFFFFFFF AND SWAP1 PUSH1 0x20 ADD SWAP1 SWAP3 SWAP2 SWAP1 POP POP POP PUSH2 0x1BE1 JUMP JUMPDEST PUSH1 0x40 MLOAD DUP1 DUP3 DUP2 MSTORE PUSH1 0x20 ADD SWAP2 POP POP PUSH1 0x40 MLOAD DUP1 SWAP2 SUB SWAP1 RETURN JUMPDEST CALLVALUE DUP1 ISZERO PUSH2 0x8A1 JUMPI PUSH1 0x0 DUP1 REVERT JUMPDEST POP PUSH2 0x8AA PUSH2 0x1CCC JUMP JUMPDEST STOP JUMPDEST CALLVALUE DUP1 ISZERO PUSH2 0x8B8 JUMPI PUSH1 0x0 DUP1 REVERT JUMPDEST POP PUSH2 0x8C1 PUSH2 0x1E52 JUMP JUMPDEST PUSH1 0x40 MLOAD DUP1 DUP3 DUP2 MSTORE PUSH1 0x20 ADD SWAP2 POP POP PUSH1 0x40 MLOAD DUP1 SWAP2 SUB SWAP1 RETURN JUMPDEST CALLVALUE DUP1 ISZERO PUSH2 0x8E3 JUMPI PUSH1 0x0 DUP1 REVERT JUMPDEST POP PUSH2 0x926 PUSH1 0x4 DUP1 CALLDATASIZE SUB PUSH1 0x20 DUP2 LT ISZERO PUSH2 0x8FA JUMPI PUSH1 0x0 DUP1 REVERT JUMPDEST DUP2 ADD SWAP1 DUP1 DUP1 CALLDATALOAD PUSH20 0xFFFFFFFFFFFFFFFFFFFFFFFFFFFFFFFFFFFFFFFF AND SWAP1 PUSH1 0x20 ADD SWAP1 SWAP3 SWAP2 SWAP1 POP POP POP PUSH2 0x1E58 JUMP JUMPDEST PUSH1 0x40 MLOAD DUP1 DUP3 ISZERO ISZERO DUP2 MSTORE PUSH1 0x20 ADD SWAP2 POP POP PUSH1 0x40 MLOAD DUP1 SWAP2 SUB SWAP1 RETURN JUMPDEST CALLVALUE DUP1 ISZERO PUSH2 0x94A JUMPI PUSH1 0x0 DUP1 REVERT JUMPDEST POP PUSH2 0x953 PUSH2 0x1EAE JUMP JUMPDEST PUSH1 0x40 MLOAD DUP1 DUP3 PUSH20 0xFFFFFFFFFFFFFFFFFFFFFFFFFFFFFFFFFFFFFFFF AND DUP2 MSTORE PUSH1 0x20 ADD SWAP2 POP POP PUSH1 0x40 MLOAD DUP1 SWAP2 SUB SWAP1 RETURN JUMPDEST CALLVALUE DUP1 ISZERO PUSH2 0x98B JUMPI PUSH1 0x0 DUP1 REVERT JUMPDEST POP PUSH2 0x9B8 PUSH1 0x4 DUP1 CALLDATASIZE SUB PUSH1 0x20 DUP2 LT ISZERO PUSH2 0x9A2 JUMPI PUSH1 0x0 DUP1 REVERT JUMPDEST DUP2 ADD SWAP1 DUP1 DUP1 CALLDATALOAD SWAP1 PUSH1 0x20 ADD SWAP1 SWAP3 SWAP2 SWAP1 POP POP POP PUSH2 0x1ED7 JUMP JUMPDEST STOP JUMPDEST CALLVALUE DUP1 ISZERO PUSH2 0x9C6 JUMPI PUSH1 0x0 DUP1 REVERT JUMPDEST POP PUSH2 0x9CF PUSH2 0x1FA9 JUMP JUMPDEST PUSH1 0x40 MLOAD DUP1 DUP1 PUSH1 0x20 ADD DUP3 DUP2 SUB DUP3 MSTORE DUP4 DUP2 DUP2 MLOAD DUP2 MSTORE PUSH1 0x20 ADD SWAP2 POP DUP1 MLOAD SWAP1 PUSH1 0x20 ADD SWAP1 DUP1 DUP4 DUP4 PUSH1 0x0 JUMPDEST DUP4 DUP2 LT ISZERO PUSH2 0xA0F JUMPI DUP1 DUP3 ADD MLOAD DUP2 DUP5 ADD MSTORE PUSH1 0x20 DUP2 ADD SWAP1 POP PUSH2 0x9F4 JUMP JUMPDEST POP POP POP POP SWAP1 POP SWAP1 DUP2 ADD SWAP1 PUSH1 0x1F AND DUP1 ISZERO PUSH2 0xA3C JUMPI DUP1 DUP3 SUB DUP1 MLOAD PUSH1 0x1 DUP4 PUSH1 0x20 SUB PUSH2 0x100 EXP SUB NOT AND DUP2 MSTORE PUSH1 0x20 ADD SWAP2 POP JUMPDEST POP SWAP3 POP POP POP PUSH1 0x40 MLOAD DUP1 SWAP2 SUB SWAP1 RETURN JUMPDEST CALLVALUE DUP1 ISZERO PUSH2 0xA56 JUMPI PUSH1 0x0 DUP1 REVERT JUMPDEST POP PUSH2 0xAA3 PUSH1 0x4 DUP1 CALLDATASIZE SUB PUSH1 0x40 DUP2 LT ISZERO PUSH2 0xA6D JUMPI PUSH1 0x0 DUP1 REVERT JUMPDEST DUP2 ADD SWAP1 DUP1 DUP1 CALLDATALOAD PUSH20 0xFFFFFFFFFFFFFFFFFFFFFFFFFFFFFFFFFFFFFFFF AND SWAP1 PUSH1 0x20 ADD SWAP1 SWAP3 SWAP2 SWAP1 DUP1 CALLDATALOAD SWAP1 PUSH1 0x20 ADD SWAP1 SWAP3 SWAP2 SWAP1 POP POP POP PUSH2 0x204B JUMP JUMPDEST PUSH1 0x40 MLOAD DUP1 DUP3 ISZERO ISZERO DUP2 MSTORE PUSH1 0x20 ADD SWAP2 POP POP PUSH1 0x40 MLOAD DUP1 SWAP2 SUB SWAP1 RETURN JUMPDEST CALLVALUE DUP1 ISZERO PUSH2 0xAC7 JUMPI PUSH1 0x0 DUP1 REVERT JUMPDEST POP PUSH2 0xAD0 PUSH2 0x2118 JUMP JUMPDEST STOP JUMPDEST CALLVALUE DUP1 ISZERO PUSH2 0xADE JUMPI PUSH1 0x0 DUP1 REVERT JUMPDEST POP PUSH2 0xB2B PUSH1 0x4 DUP1 CALLDATASIZE SUB PUSH1 0x40 DUP2 LT ISZERO PUSH2 0xAF5 JUMPI PUSH1 0x0 DUP1 REVERT JUMPDEST DUP2 ADD SWAP1 DUP1 DUP1 CALLDATALOAD PUSH20 0xFFFFFFFFFFFFFFFFFFFFFFFFFFFFFFFFFFFFFFFF AND SWAP1 PUSH1 0x20 ADD SWAP1 SWAP3 SWAP2 SWAP1 DUP1 CALLDATALOAD SWAP1 PUSH1 0x20 ADD SWAP1 SWAP3 SWAP2 SWAP1 POP POP POP PUSH2 0x2335 JUMP JUMPDEST PUSH1 0x40 MLOAD DUP1 DUP3 ISZERO ISZERO DUP2 MSTORE PUSH1 0x20 ADD SWAP2 POP POP PUSH1 0x40 MLOAD DUP1 SWAP2 SUB SWAP1 RETURN JUMPDEST CALLVALUE DUP1 ISZERO PUSH2 0xB4F JUMPI PUSH1 0x0 DUP1 REVERT JUMPDEST POP PUSH2 0xB58 PUSH2 0x2353 JUMP JUMPDEST PUSH1 0x40 MLOAD DUP1 DUP3 DUP2 MSTORE PUSH1 0x20 ADD SWAP2 POP POP PUSH1 0x40 MLOAD DUP1 SWAP2 SUB SWAP1 RETURN JUMPDEST CALLVALUE DUP1 ISZERO PUSH2 0xB7A JUMPI PUSH1 0x0 DUP1 REVERT JUMPDEST POP PUSH2 0xBA9 PUSH1 0x4 DUP1 CALLDATASIZE SUB PUSH1 0x20 DUP2 LT ISZERO PUSH2 0xB91 JUMPI PUSH1 0x0 DUP1 REVERT JUMPDEST DUP2 ADD SWAP1 DUP1 DUP1 CALLDATALOAD ISZERO ISZERO SWAP1 PUSH1 0x20 ADD SWAP1 SWAP3 SWAP2 SWAP1 POP POP POP PUSH2 0x235D JUMP JUMPDEST STOP JUMPDEST CALLVALUE DUP1 ISZERO PUSH2 0xBB7 JUMPI PUSH1 0x0 DUP1 REVERT JUMPDEST POP PUSH2 0xBE4 PUSH1 0x4 DUP1 CALLDATASIZE SUB PUSH1 0x20 DUP2 LT ISZERO PUSH2 0xBCE JUMPI PUSH1 0x0 DUP1 REVERT JUMPDEST DUP2 ADD SWAP1 DUP1 DUP1 CALLDATALOAD SWAP1 PUSH1 0x20 ADD SWAP1 SWAP3 SWAP2 SWAP1 POP POP POP PUSH2 0x247B JUMP JUMPDEST STOP JUMPDEST CALLVALUE DUP1 ISZERO PUSH2 0xBF2 JUMPI PUSH1 0x0 DUP1 REVERT JUMPDEST POP PUSH2 0xC1F PUSH1 0x4 DUP1 CALLDATASIZE SUB PUSH1 0x20 DUP2 LT ISZERO PUSH2 0xC09 JUMPI PUSH1 0x0 DUP1 REVERT JUMPDEST DUP2 ADD SWAP1 DUP1 DUP1 CALLDATALOAD SWAP1 PUSH1 0x20 ADD SWAP1 SWAP3 SWAP2 SWAP1 POP POP POP PUSH2 0x2574 JUMP JUMPDEST STOP JUMPDEST CALLVALUE DUP1 ISZERO PUSH2 0xC2D JUMPI PUSH1 0x0 DUP1 REVERT JUMPDEST POP PUSH2 0xC90 PUSH1 0x4 DUP1 CALLDATASIZE SUB PUSH1 0x40 DUP2 LT ISZERO PUSH2 0xC44 JUMPI PUSH1 0x0 DUP1 REVERT JUMPDEST DUP2 ADD SWAP1 DUP1 DUP1 CALLDATALOAD PUSH20 0xFFFFFFFFFFFFFFFFFFFFFFFFFFFFFFFFFFFFFFFF AND SWAP1 PUSH1 0x20 ADD SWAP1 SWAP3 SWAP2 SWAP1 DUP1 CALLDATALOAD PUSH20 0xFFFFFFFFFFFFFFFFFFFFFFFFFFFFFFFFFFFFFFFF AND SWAP1 PUSH1 0x20 ADD SWAP1 SWAP3 SWAP2 SWAP1 POP POP POP PUSH2 0x2765 JUMP JUMPDEST PUSH1 0x40 MLOAD DUP1 DUP3 DUP2 MSTORE PUSH1 0x20 ADD SWAP2 POP POP PUSH1 0x40 MLOAD DUP1 SWAP2 SUB SWAP1 RETURN JUMPDEST CALLVALUE DUP1 ISZERO PUSH2 0xCB2 JUMPI PUSH1 0x0 DUP1 REVERT JUMPDEST POP PUSH2 0xCF5 PUSH1 0x4 DUP1 CALLDATASIZE SUB PUSH1 0x20 DUP2 LT ISZERO PUSH2 0xCC9 JUMPI PUSH1 0x0 DUP1 REVERT JUMPDEST DUP2 ADD SWAP1 DUP1 DUP1 CALLDATALOAD PUSH20 0xFFFFFFFFFFFFFFFFFFFFFFFFFFFFFFFFFFFFFFFF AND SWAP1 PUSH1 0x20 ADD SWAP1 SWAP3 SWAP2 SWAP1 POP POP POP PUSH2 0x27EC JUMP JUMPDEST STOP JUMPDEST CALLVALUE DUP1 ISZERO PUSH2 0xD03 JUMPI PUSH1 0x0 DUP1 REVERT JUMPDEST POP PUSH2 0xD46 PUSH1 0x4 DUP1 CALLDATASIZE SUB PUSH1 0x20 DUP2 LT ISZERO PUSH2 0xD1A JUMPI PUSH1 0x0 DUP1 REVERT JUMPDEST DUP2 ADD SWAP1 DUP1 DUP1 CALLDATALOAD PUSH20 0xFFFFFFFFFFFFFFFFFFFFFFFFFFFFFFFFFFFFFFFF AND SWAP1 PUSH1 0x20 ADD SWAP1 SWAP3 SWAP2 SWAP1 POP POP POP PUSH2 0x290F JUMP JUMPDEST STOP JUMPDEST PUSH2 0xD50 PUSH2 0x2B1A JUMP JUMPDEST PUSH20 0xFFFFFFFFFFFFFFFFFFFFFFFFFFFFFFFFFFFFFFFF AND PUSH1 0x0 DUP1 SLOAD SWAP1 PUSH2 0x100 EXP SWAP1 DIV PUSH20 0xFFFFFFFFFFFFFFFFFFFFFFFFFFFFFFFFFFFFFFFF AND PUSH20 0xFFFFFFFFFFFFFFFFFFFFFFFFFFFFFFFFFFFFFFFF AND EQ PUSH2 0xE10 JUMPI PUSH1 0x40 MLOAD PUSH32 0x8C379A000000000000000000000000000000000000000000000000000000000 DUP2 MSTORE PUSH1 0x4 ADD DUP1 DUP1 PUSH1 0x20 ADD DUP3 DUP2 SUB DUP3 MSTORE PUSH1 0x20 DUP2 MSTORE PUSH1 0x20 ADD DUP1 PUSH32 0x4F776E61626C653A2063616C6C6572206973206E6F7420746865206F776E6572 DUP2 MSTORE POP PUSH1 0x20 ADD SWAP2 POP POP PUSH1 0x40 MLOAD DUP1 SWAP2 SUB SWAP1 REVERT JUMPDEST DUP1 PUSH1 0xF DUP2 SWAP1 SSTORE POP POP JUMP JUMPDEST PUSH1 0x60 PUSH1 0xC DUP1 SLOAD PUSH1 0x1 DUP2 PUSH1 0x1 AND ISZERO PUSH2 0x100 MUL SUB AND PUSH1 0x2 SWAP1 DIV DUP1 PUSH1 0x1F ADD PUSH1 0x20 DUP1 SWAP2 DIV MUL PUSH1 0x20 ADD PUSH1 0x40 MLOAD SWAP1 DUP2 ADD PUSH1 0x40 MSTORE DUP1 SWAP3 SWAP2 SWAP1 DUP2 DUP2 MSTORE PUSH1 0x20 ADD DUP3 DUP1 SLOAD PUSH1 0x1 DUP2 PUSH1 0x1 AND ISZERO PUSH2 0x100 MUL SUB AND PUSH1 0x2 SWAP1 DIV DUP1 ISZERO PUSH2 0xEB2 JUMPI DUP1 PUSH1 0x1F LT PUSH2 0xE87 JUMPI PUSH2 0x100 DUP1 DUP4 SLOAD DIV MUL DUP4 MSTORE SWAP2 PUSH1 0x20 ADD SWAP2 PUSH2 0xEB2 JUMP JUMPDEST DUP3 ADD SWAP2 SWAP1 PUSH1 0x0 MSTORE PUSH1 0x20 PUSH1 0x0 KECCAK256 SWAP1 JUMPDEST DUP2 SLOAD DUP2 MSTORE SWAP1 PUSH1 0x1 ADD SWAP1 PUSH1 0x20 ADD DUP1 DUP4 GT PUSH2 0xE95 JUMPI DUP3 SWAP1 SUB PUSH1 0x1F AND DUP3 ADD SWAP2 JUMPDEST POP POP POP POP POP SWAP1 POP SWAP1 JUMP JUMPDEST PUSH1 0x0 PUSH2 0xED0 PUSH2 0xEC9 PUSH2 0x2B1A JUMP JUMPDEST DUP5 DUP5 PUSH2 0x2B22 JUMP JUMPDEST PUSH1 0x1 SWAP1 POP SWAP3 SWAP2 POP POP JUMP JUMPDEST PUSH1 0x0 PUSH1 0xB SLOAD SWAP1 POP SWAP1 JUMP JUMPDEST PUSH32 0x0 DUP2 JUMP JUMPDEST PUSH1 0x0 PUSH1 0x9 SLOAD SWAP1 POP SWAP1 JUMP JUMPDEST PUSH1 0x0 PUSH2 0xF1F DUP5 DUP5 DUP5 PUSH2 0x2D19 JUMP JUMPDEST PUSH2 0xFE0 DUP5 PUSH2 0xF2B PUSH2 0x2B1A JUMP JUMPDEST PUSH2 0xFDB DUP6 PUSH1 0x40 MLOAD DUP1 PUSH1 0x60 ADD PUSH1 0x40 MSTORE DUP1 PUSH1 0x28 DUP2 MSTORE PUSH1 0x20 ADD PUSH2 0x4CEA PUSH1 0x28 SWAP2 CODECOPY PUSH1 0x5 PUSH1 0x0 DUP12 PUSH20 0xFFFFFFFFFFFFFFFFFFFFFFFFFFFFFFFFFFFFFFFF AND PUSH20 0xFFFFFFFFFFFFFFFFFFFFFFFFFFFFFFFFFFFFFFFF AND DUP2 MSTORE PUSH1 0x20 ADD SWAP1 DUP2 MSTORE PUSH1 0x20 ADD PUSH1 0x0 KECCAK256 PUSH1 0x0 PUSH2 0xF91 PUSH2 0x2B1A JUMP JUMPDEST PUSH20 0xFFFFFFFFFFFFFFFFFFFFFFFFFFFFFFFFFFFFFFFF AND PUSH20 0xFFFFFFFFFFFFFFFFFFFFFFFFFFFFFFFFFFFFFFFF AND DUP2 MSTORE PUSH1 0x20 ADD SWAP1 DUP2 MSTORE PUSH1 0x20 ADD PUSH1 0x0 KECCAK256 SLOAD PUSH2 0x30DE SWAP1 SWAP3 SWAP2 SWAP1 PUSH4 0xFFFFFFFF AND JUMP JUMPDEST PUSH2 0x2B22 JUMP JUMPDEST PUSH1 0x1 SWAP1 POP SWAP4 SWAP3 POP POP POP JUMP JUMPDEST PUSH1 0x0 PUSH1 0xA SLOAD DUP3 GT ISZERO PUSH2 0x1048 JUMPI PUSH1 0x40 MLOAD PUSH32 0x8C379A000000000000000000000000000000000000000000000000000000000 DUP2 MSTORE PUSH1 0x4 ADD DUP1 DUP1 PUSH1 0x20 ADD DUP3 DUP2 SUB DUP3 MSTORE PUSH1 0x2A DUP2 MSTORE PUSH1 0x20 ADD DUP1 PUSH2 0x4C2F PUSH1 0x2A SWAP2 CODECOPY PUSH1 0x40 ADD SWAP2 POP POP PUSH1 0x40 MLOAD DUP1 SWAP2 SUB SWAP1 REVERT JUMPDEST PUSH1 0x0 PUSH2 0x1052 PUSH2 0x319E JUMP JUMPDEST SWAP1 POP PUSH2 0x1067 DUP2 DUP5 PUSH2 0x31C9 SWAP1 SWAP2 SWAP1 PUSH4 0xFFFFFFFF AND JUMP JUMPDEST SWAP2 POP POP SWAP2 SWAP1 POP JUMP JUMPDEST PUSH1 0x0 PUSH1 0xE PUSH1 0x0 SWAP1 SLOAD SWAP1 PUSH2 0x100 EXP SWAP1 DIV PUSH1 0xFF AND SWAP1 POP SWAP1 JUMP JUMPDEST PUSH2 0x108E PUSH2 0x2B1A JUMP JUMPDEST PUSH20 0xFFFFFFFFFFFFFFFFFFFFFFFFFFFFFFFFFFFFFFFF AND PUSH1 0x0 DUP1 SLOAD SWAP1 PUSH2 0x100 EXP SWAP1 DIV PUSH20 0xFFFFFFFFFFFFFFFFFFFFFFFFFFFFFFFFFFFFFFFF AND PUSH20 0xFFFFFFFFFFFFFFFFFFFFFFFFFFFFFFFFFFFFFFFF AND EQ PUSH2 0x114E JUMPI PUSH1 0x40 MLOAD PUSH32 0x8C379A000000000000000000000000000000000000000000000000000000000 DUP2 MSTORE PUSH1 0x4 ADD DUP1 DUP1 PUSH1 0x20 ADD DUP3 DUP2 SUB DUP3 MSTORE PUSH1 0x20 DUP2 MSTORE PUSH1 0x20 ADD DUP1 PUSH32 0x4F776E61626C653A2063616C6C6572206973206E6F7420746865206F776E6572 DUP2 MSTORE POP PUSH1 0x20 ADD SWAP2 POP POP PUSH1 0x40 MLOAD DUP1 SWAP2 SUB SWAP1 REVERT JUMPDEST PUSH1 0x7 PUSH1 0x0 DUP3 PUSH20 0xFFFFFFFFFFFFFFFFFFFFFFFFFFFFFFFFFFFFFFFF AND PUSH20 0xFFFFFFFFFFFFFFFFFFFFFFFFFFFFFFFFFFFFFFFF AND DUP2 MSTORE PUSH1 0x20 ADD SWAP1 DUP2 MSTORE PUSH1 0x20 ADD PUSH1 0x0 KECCAK256 PUSH1 0x0 SWAP1 SLOAD SWAP1 PUSH2 0x100 EXP SWAP1 DIV PUSH1 0xFF AND PUSH2 0x120D JUMPI PUSH1 0x40 MLOAD PUSH32 0x8C379A000000000000000000000000000000000000000000000000000000000 DUP2 MSTORE PUSH1 0x4 ADD DUP1 DUP1 PUSH1 0x20 ADD DUP3 DUP2 SUB DUP3 MSTORE PUSH1 0x1B DUP2 MSTORE PUSH1 0x20 ADD DUP1 PUSH32 0x4163636F756E7420697320616C7265616479206578636C756465640000000000 DUP2 MSTORE POP PUSH1 0x20 ADD SWAP2 POP POP PUSH1 0x40 MLOAD DUP1 SWAP2 SUB SWAP1 REVERT JUMPDEST PUSH1 0x0 JUMPDEST PUSH1 0x8 DUP1 SLOAD SWAP1 POP DUP2 LT ISZERO PUSH2 0x140C JUMPI DUP2 PUSH20 0xFFFFFFFFFFFFFFFFFFFFFFFFFFFFFFFFFFFFFFFF AND PUSH1 0x8 DUP3 DUP2 SLOAD DUP2 LT PUSH2 0x1241 JUMPI INVALID JUMPDEST SWAP1 PUSH1 0x0 MSTORE PUSH1 0x20 PUSH1 0x0 KECCAK256 ADD PUSH1 0x0 SWAP1 SLOAD SWAP1 PUSH2 0x100 EXP SWAP1 DIV PUSH20 0xFFFFFFFFFFFFFFFFFFFFFFFFFFFFFFFFFFFFFFFF AND PUSH20 0xFFFFFFFFFFFFFFFFFFFFFFFFFFFFFFFFFFFFFFFF AND EQ ISZERO PUSH2 0x13FF JUMPI PUSH1 0x8 PUSH1 0x1 PUSH1 0x8 DUP1 SLOAD SWAP1 POP SUB DUP2 SLOAD DUP2 LT PUSH2 0x129D JUMPI INVALID JUMPDEST SWAP1 PUSH1 0x0 MSTORE PUSH1 0x20 PUSH1 0x0 KECCAK256 ADD PUSH1 0x0 SWAP1 SLOAD SWAP1 PUSH2 0x100 EXP SWAP1 DIV PUSH20 0xFFFFFFFFFFFFFFFFFFFFFFFFFFFFFFFFFFFFFFFF AND PUSH1 0x8 DUP3 DUP2 SLOAD DUP2 LT PUSH2 0x12D5 JUMPI INVALID JUMPDEST SWAP1 PUSH1 0x0 MSTORE PUSH1 0x20 PUSH1 0x0 KECCAK256 ADD PUSH1 0x0 PUSH2 0x100 EXP DUP2 SLOAD DUP2 PUSH20 0xFFFFFFFFFFFFFFFFFFFFFFFFFFFFFFFFFFFFFFFF MUL NOT AND SWAP1 DUP4 PUSH20 0xFFFFFFFFFFFFFFFFFFFFFFFFFFFFFFFFFFFFFFFF AND MUL OR SWAP1 SSTORE POP PUSH1 0x0 PUSH1 0x4 PUSH1 0x0 DUP5 PUSH20 0xFFFFFFFFFFFFFFFFFFFFFFFFFFFFFFFFFFFFFFFF AND PUSH20 0xFFFFFFFFFFFFFFFFFFFFFFFFFFFFFFFFFFFFFFFF AND DUP2 MSTORE PUSH1 0x20 ADD SWAP1 DUP2 MSTORE PUSH1 0x20 ADD PUSH1 0x0 KECCAK256 DUP2 SWAP1 SSTORE POP PUSH1 0x0 PUSH1 0x7 PUSH1 0x0 DUP5 PUSH20 0xFFFFFFFFFFFFFFFFFFFFFFFFFFFFFFFFFFFFFFFF AND PUSH20 0xFFFFFFFFFFFFFFFFFFFFFFFFFFFFFFFFFFFFFFFF AND DUP2 MSTORE PUSH1 0x20 ADD SWAP1 DUP2 MSTORE PUSH1 0x20 ADD PUSH1 0x0 KECCAK256 PUSH1 0x0 PUSH2 0x100 EXP DUP2 SLOAD DUP2 PUSH1 0xFF MUL NOT AND SWAP1 DUP4 ISZERO ISZERO MUL OR SWAP1 SSTORE POP PUSH1 0x8 DUP1 SLOAD DUP1 PUSH2 0x13C5 JUMPI INVALID JUMPDEST PUSH1 0x1 SWAP1 SUB DUP2 DUP2 SWAP1 PUSH1 0x0 MSTORE PUSH1 0x20 PUSH1 0x0 KECCAK256 ADD PUSH1 0x0 PUSH2 0x100 EXP DUP2 SLOAD SWAP1 PUSH20 0xFFFFFFFFFFFFFFFFFFFFFFFFFFFFFFFFFFFFFFFF MUL NOT AND SWAP1 SSTORE SWAP1 SSTORE PUSH2 0x140C JUMP JUMPDEST DUP1 DUP1 PUSH1 0x1 ADD SWAP2 POP POP PUSH2 0x1210 JUMP JUMPDEST POP POP JUMP JUMPDEST PUSH1 0x0 PUSH2 0x14B9 PUSH2 0x141D PUSH2 0x2B1A JUMP JUMPDEST DUP5 PUSH2 0x14B4 DUP6 PUSH1 0x5 PUSH1 0x0 PUSH2 0x142E PUSH2 0x2B1A JUMP JUMPDEST PUSH20 0xFFFFFFFFFFFFFFFFFFFFFFFFFFFFFFFFFFFFFFFF AND PUSH20 0xFFFFFFFFFFFFFFFFFFFFFFFFFFFFFFFFFFFFFFFF AND DUP2 MSTORE PUSH1 0x20 ADD SWAP1 DUP2 MSTORE PUSH1 0x20 ADD PUSH1 0x0 KECCAK256 PUSH1 0x0 DUP10 PUSH20 0xFFFFFFFFFFFFFFFFFFFFFFFFFFFFFFFFFFFFFFFF AND PUSH20 0xFFFFFFFFFFFFFFFFFFFFFFFFFFFFFFFFFFFFFFFF AND DUP2 MSTORE PUSH1 0x20 ADD SWAP1 DUP2 MSTORE PUSH1 0x20 ADD PUSH1 0x0 KECCAK256 SLOAD PUSH2 0x3213 SWAP1 SWAP2 SWAP1 PUSH4 0xFFFFFFFF AND JUMP JUMPDEST PUSH2 0x2B22 JUMP JUMPDEST PUSH1 0x1 SWAP1 POP SWAP3 SWAP2 POP POP JUMP JUMPDEST PUSH1 0xF SLOAD DUP2 JUMP JUMPDEST PUSH1 0x0 PUSH2 0x14D3 PUSH2 0x2B1A JUMP JUMPDEST SWAP1 POP PUSH1 0x7 PUSH1 0x0 DUP3 PUSH20 0xFFFFFFFFFFFFFFFFFFFFFFFFFFFFFFFFFFFFFFFF AND PUSH20 0xFFFFFFFFFFFFFFFFFFFFFFFFFFFFFFFFFFFFFFFF AND DUP2 MSTORE PUSH1 0x20 ADD SWAP1 DUP2 MSTORE PUSH1 0x20 ADD PUSH1 0x0 KECCAK256 PUSH1 0x0 SWAP1 SLOAD SWAP1 PUSH2 0x100 EXP SWAP1 DIV PUSH1 0xFF AND ISZERO PUSH2 0x1578 JUMPI PUSH1 0x40 MLOAD PUSH32 0x8C379A000000000000000000000000000000000000000000000000000000000 DUP2 MSTORE PUSH1 0x4 ADD DUP1 DUP1 PUSH1 0x20 ADD DUP3 DUP2 SUB DUP3 MSTORE PUSH1 0x2C DUP2 MSTORE PUSH1 0x20 ADD DUP1 PUSH2 0x4D84 PUSH1 0x2C SWAP2 CODECOPY PUSH1 0x40 ADD SWAP2 POP POP PUSH1 0x40 MLOAD DUP1 SWAP2 SUB SWAP1 REVERT JUMPDEST PUSH1 0x0 PUSH2 0x1583 DUP4 PUSH2 0x329B JUMP JUMPDEST POP POP POP POP POP SWAP1 POP PUSH2 0x15DC DUP2 PUSH1 0x3 PUSH1 0x0 DUP6 PUSH20 0xFFFFFFFFFFFFFFFFFFFFFFFFFFFFFFFFFFFFFFFF AND PUSH20 0xFFFFFFFFFFFFFFFFFFFFFFFFFFFFFFFFFFFFFFFF AND DUP2 MSTORE PUSH1 0x20 ADD SWAP1 DUP2 MSTORE PUSH1 0x20 ADD PUSH1 0x0 KECCAK256 SLOAD PUSH2 0x32F7 SWAP1 SWAP2 SWAP1 PUSH4 0xFFFFFFFF AND JUMP JUMPDEST PUSH1 0x3 PUSH1 0x0 DUP5 PUSH20 0xFFFFFFFFFFFFFFFFFFFFFFFFFFFFFFFFFFFFFFFF AND PUSH20 0xFFFFFFFFFFFFFFFFFFFFFFFFFFFFFFFFFFFFFFFF AND DUP2 MSTORE PUSH1 0x20 ADD SWAP1 DUP2 MSTORE PUSH1 0x20 ADD PUSH1 0x0 KECCAK256 DUP2 SWAP1 SSTORE POP PUSH2 0x1634 DUP2 PUSH1 0xA SLOAD PUSH2 0x32F7 SWAP1 SWAP2 SWAP1 PUSH4 0xFFFFFFFF AND JUMP JUMPDEST PUSH1 0xA DUP2 SWAP1 SSTORE POP PUSH2 0x164F DUP4 PUSH1 0xB SLOAD PUSH2 0x3213 SWAP1 SWAP2 SWAP1 PUSH4 0xFFFFFFFF AND JUMP JUMPDEST PUSH1 0xB DUP2 SWAP1 SSTORE POP POP POP POP JUMP JUMPDEST PUSH2 0x1662 PUSH2 0x2B1A JUMP JUMPDEST PUSH20 0xFFFFFFFFFFFFFFFFFFFFFFFFFFFFFFFFFFFFFFFF AND PUSH1 0x0 DUP1 SLOAD SWAP1 PUSH2 0x100 EXP SWAP1 DIV PUSH20 0xFFFFFFFFFFFFFFFFFFFFFFFFFFFFFFFFFFFFFFFF AND PUSH20 0xFFFFFFFFFFFFFFFFFFFFFFFFFFFFFFFFFFFFFFFF AND EQ PUSH2 0x1722 JUMPI PUSH1 0x40 MLOAD PUSH32 0x8C379A000000000000000000000000000000000000000000000000000000000 DUP2 MSTORE PUSH1 0x4 ADD DUP1 DUP1 PUSH1 0x20 ADD DUP3 DUP2 SUB DUP3 MSTORE PUSH1 0x20 DUP2 MSTORE PUSH1 0x20 ADD DUP1 PUSH32 0x4F776E61626C653A2063616C6C6572206973206E6F7420746865206F776E6572 DUP2 MSTORE POP PUSH1 0x20 ADD SWAP2 POP POP PUSH1 0x40 MLOAD DUP1 SWAP2 SUB SWAP1 REVERT JUMPDEST PUSH1 0x1 PUSH1 0x6 PUSH1 0x0 DUP4 PUSH20 0xFFFFFFFFFFFFFFFFFFFFFFFFFFFFFFFFFFFFFFFF AND PUSH20 0xFFFFFFFFFFFFFFFFFFFFFFFFFFFFFFFFFFFFFFFF AND DUP2 MSTORE PUSH1 0x20 ADD SWAP1 DUP2 MSTORE PUSH1 0x20 ADD PUSH1 0x0 KECCAK256 PUSH1 0x0 PUSH2 0x100 EXP DUP2 SLOAD DUP2 PUSH1 0xFF MUL NOT AND SWAP1 DUP4 ISZERO ISZERO MUL OR SWAP1 SSTORE POP POP JUMP JUMPDEST PUSH1 0x0 PUSH1 0x9 SLOAD DUP4 GT ISZERO PUSH2 0x17F7 JUMPI PUSH1 0x40 MLOAD PUSH32 0x8C379A000000000000000000000000000000000000000000000000000000000 DUP2 MSTORE PUSH1 0x4 ADD DUP1 DUP1 PUSH1 0x20 ADD DUP3 DUP2 SUB DUP3 MSTORE PUSH1 0x1F DUP2 MSTORE PUSH1 0x20 ADD DUP1 PUSH32 0x416D6F756E74206D757374206265206C657373207468616E20737570706C7900 DUP2 MSTORE POP PUSH1 0x20 ADD SWAP2 POP POP PUSH1 0x40 MLOAD DUP1 SWAP2 SUB SWAP1 REVERT JUMPDEST DUP2 PUSH2 0x1817 JUMPI PUSH1 0x0 PUSH2 0x1807 DUP5 PUSH2 0x329B JUMP JUMPDEST POP POP POP POP POP SWAP1 POP DUP1 SWAP2 POP POP PUSH2 0x182E JUMP JUMPDEST PUSH1 0x0 PUSH2 0x1822 DUP5 PUSH2 0x329B JUMP JUMPDEST POP POP POP POP SWAP2 POP POP DUP1 SWAP2 POP POP JUMPDEST SWAP3 SWAP2 POP POP JUMP JUMPDEST PUSH32 0x0 DUP2 JUMP JUMPDEST PUSH1 0x13 PUSH1 0x1 SWAP1 SLOAD SWAP1 PUSH2 0x100 EXP SWAP1 DIV PUSH1 0xFF AND DUP2 JUMP JUMPDEST PUSH2 0x1873 PUSH2 0x2B1A JUMP JUMPDEST PUSH20 0xFFFFFFFFFFFFFFFFFFFFFFFFFFFFFFFFFFFFFFFF AND PUSH1 0x0 DUP1 SLOAD SWAP1 PUSH2 0x100 EXP SWAP1 DIV PUSH20 0xFFFFFFFFFFFFFFFFFFFFFFFFFFFFFFFFFFFFFFFF AND PUSH20 0xFFFFFFFFFFFFFFFFFFFFFFFFFFFFFFFFFFFFFFFF AND EQ PUSH2 0x1933 JUMPI PUSH1 0x40 MLOAD PUSH32 0x8C379A000000000000000000000000000000000000000000000000000000000 DUP2 MSTORE PUSH1 0x4 ADD DUP1 DUP1 PUSH1 0x20 ADD DUP3 DUP2 SUB DUP3 MSTORE PUSH1 0x20 DUP2 MSTORE PUSH1 0x20 ADD DUP1 PUSH32 0x4F776E61626C653A2063616C6C6572206973206E6F7420746865206F776E6572 DUP2 MSTORE POP PUSH1 0x20 ADD SWAP2 POP POP PUSH1 0x40 MLOAD DUP1 SWAP2 SUB SWAP1 REVERT JUMPDEST PUSH1 0x7 PUSH1 0x0 DUP3 PUSH20 0xFFFFFFFFFFFFFFFFFFFFFFFFFFFFFFFFFFFFFFFF AND PUSH20 0xFFFFFFFFFFFFFFFFFFFFFFFFFFFFFFFFFFFFFFFF AND DUP2 MSTORE PUSH1 0x20 ADD SWAP1 DUP2 MSTORE PUSH1 0x20 ADD PUSH1 0x0 KECCAK256 PUSH1 0x0 SWAP1 SLOAD SWAP1 PUSH2 0x100 EXP SWAP1 DIV PUSH1 0xFF AND ISZERO PUSH2 0x19F3 JUMPI PUSH1 0x40 MLOAD PUSH32 0x8C379A000000000000000000000000000000000000000000000000000000000 DUP2 MSTORE PUSH1 0x4 ADD DUP1 DUP1 PUSH1 0x20 ADD DUP3 DUP2 SUB DUP3 MSTORE PUSH1 0x1B DUP2 MSTORE PUSH1 0x20 ADD DUP1 PUSH32 0x4163636F756E7420697320616C7265616479206578636C756465640000000000 DUP2 MSTORE POP PUSH1 0x20 ADD SWAP2 POP POP PUSH1 0x40 MLOAD DUP1 SWAP2 SUB SWAP1 REVERT JUMPDEST PUSH1 0x0 PUSH1 0x3 PUSH1 0x0 DUP4 PUSH20 0xFFFFFFFFFFFFFFFFFFFFFFFFFFFFFFFFFFFFFFFF AND PUSH20 0xFFFFFFFFFFFFFFFFFFFFFFFFFFFFFFFFFFFFFFFF AND DUP2 MSTORE PUSH1 0x20 ADD SWAP1 DUP2 MSTORE PUSH1 0x20 ADD PUSH1 0x0 KECCAK256 SLOAD GT ISZERO PUSH2 0x1AC7 JUMPI PUSH2 0x1A83 PUSH1 0x3 PUSH1 0x0 DUP4 PUSH20 0xFFFFFFFFFFFFFFFFFFFFFFFFFFFFFFFFFFFFFFFF AND PUSH20 0xFFFFFFFFFFFFFFFFFFFFFFFFFFFFFFFFFFFFFFFF AND DUP2 MSTORE PUSH1 0x20 ADD SWAP1 DUP2 MSTORE PUSH1 0x20 ADD PUSH1 0x0 KECCAK256 SLOAD PUSH2 0xFEB JUMP JUMPDEST PUSH1 0x4 PUSH1 0x0 DUP4 PUSH20 0xFFFFFFFFFFFFFFFFFFFFFFFFFFFFFFFFFFFFFFFF AND PUSH20 0xFFFFFFFFFFFFFFFFFFFFFFFFFFFFFFFFFFFFFFFF AND DUP2 MSTORE PUSH1 0x20 ADD SWAP1 DUP2 MSTORE PUSH1 0x20 ADD PUSH1 0x0 KECCAK256 DUP2 SWAP1 SSTORE POP JUMPDEST PUSH1 0x1 PUSH1 0x7 PUSH1 0x0 DUP4 PUSH20 0xFFFFFFFFFFFFFFFFFFFFFFFFFFFFFFFFFFFFFFFF AND PUSH20 0xFFFFFFFFFFFFFFFFFFFFFFFFFFFFFFFFFFFFFFFF AND DUP2 MSTORE PUSH1 0x20 ADD SWAP1 DUP2 MSTORE PUSH1 0x20 ADD PUSH1 0x0 KECCAK256 PUSH1 0x0 PUSH2 0x100 EXP DUP2 SLOAD DUP2 PUSH1 0xFF MUL NOT AND SWAP1 DUP4 ISZERO ISZERO MUL OR SWAP1 SSTORE POP PUSH1 0x8 DUP2 SWAP1 DUP1 PUSH1 0x1 DUP2 SLOAD ADD DUP1 DUP3 SSTORE DUP1 SWAP2 POP POP PUSH1 0x1 SWAP1 SUB SWAP1 PUSH1 0x0 MSTORE PUSH1 0x20 PUSH1 0x0 KECCAK256 ADD PUSH1 0x0 SWAP1 SWAP2 SWAP1 SWAP2 SWAP1 SWAP2 PUSH2 0x100 EXP DUP2 SLOAD DUP2 PUSH20 0xFFFFFFFFFFFFFFFFFFFFFFFFFFFFFFFFFFFFFFFF MUL NOT AND SWAP1 DUP4 PUSH20 0xFFFFFFFFFFFFFFFFFFFFFFFFFFFFFFFFFFFFFFFF AND MUL OR SWAP1 SSTORE POP POP JUMP JUMPDEST PUSH1 0x0 PUSH1 0x6 PUSH1 0x0 DUP4 PUSH20 0xFFFFFFFFFFFFFFFFFFFFFFFFFFFFFFFFFFFFFFFF AND PUSH20 0xFFFFFFFFFFFFFFFFFFFFFFFFFFFFFFFFFFFFFFFF AND DUP2 MSTORE PUSH1 0x20 ADD SWAP1 DUP2 MSTORE PUSH1 0x20 ADD PUSH1 0x0 KECCAK256 PUSH1 0x0 SWAP1 SLOAD SWAP1 PUSH2 0x100 EXP SWAP1 DIV PUSH1 0xFF AND SWAP1 POP SWAP2 SWAP1 POP JUMP JUMPDEST PUSH1 0x11 SLOAD DUP2 JUMP JUMPDEST PUSH1 0x0 PUSH1 0x7 PUSH1 0x0 DUP4 PUSH20 0xFFFFFFFFFFFFFFFFFFFFFFFFFFFFFFFFFFFFFFFF AND PUSH20 0xFFFFFFFFFFFFFFFFFFFFFFFFFFFFFFFFFFFFFFFF AND DUP2 MSTORE PUSH1 0x20 ADD SWAP1 DUP2 MSTORE PUSH1 0x20 ADD PUSH1 0x0 KECCAK256 PUSH1 0x0 SWAP1 SLOAD SWAP1 PUSH2 0x100 EXP SWAP1 DIV PUSH1 0xFF AND ISZERO PUSH2 0x1C7C JUMPI PUSH1 0x4 PUSH1 0x0 DUP4 PUSH20 0xFFFFFFFFFFFFFFFFFFFFFFFFFFFFFFFFFFFFFFFF AND PUSH20 0xFFFFFFFFFFFFFFFFFFFFFFFFFFFFFFFFFFFFFFFF AND DUP2 MSTORE PUSH1 0x20 ADD SWAP1 DUP2 MSTORE PUSH1 0x20 ADD PUSH1 0x0 KECCAK256 SLOAD SWAP1 POP PUSH2 0x1CC7 JUMP JUMPDEST PUSH2 0x1CC4 PUSH1 0x3 PUSH1 0x0 DUP5 PUSH20 0xFFFFFFFFFFFFFFFFFFFFFFFFFFFFFFFFFFFFFFFF AND PUSH20 0xFFFFFFFFFFFFFFFFFFFFFFFFFFFFFFFFFFFFFFFF AND DUP2 MSTORE PUSH1 0x20 ADD SWAP1 DUP2 MSTORE PUSH1 0x20 ADD PUSH1 0x0 KECCAK256 SLOAD PUSH2 0xFEB JUMP JUMPDEST SWAP1 POP JUMPDEST SWAP2 SWAP1 POP JUMP JUMPDEST PUSH2 0x1CD4 PUSH2 0x2B1A JUMP JUMPDEST PUSH20 0xFFFFFFFFFFFFFFFFFFFFFFFFFFFFFFFFFFFFFFFF AND PUSH1 0x0 DUP1 SLOAD SWAP1 PUSH2 0x100 EXP SWAP1 DIV PUSH20 0xFFFFFFFFFFFFFFFFFFFFFFFFFFFFFFFFFFFFFFFF AND PUSH20 0xFFFFFFFFFFFFFFFFFFFFFFFFFFFFFFFFFFFFFFFF AND EQ PUSH2 0x1D94 JUMPI PUSH1 0x40 MLOAD PUSH32 0x8C379A000000000000000000000000000000000000000000000000000000000 DUP2 MSTORE PUSH1 0x4 ADD DUP1 DUP1 PUSH1 0x20 ADD DUP3 DUP2 SUB DUP3 MSTORE PUSH1 0x20 DUP2 MSTORE PUSH1 0x20 ADD DUP1 PUSH32 0x4F776E61626C653A2063616C6C6572206973206E6F7420746865206F776E6572 DUP2 MSTORE POP PUSH1 0x20 ADD SWAP2 POP POP PUSH1 0x40 MLOAD DUP1 SWAP2 SUB SWAP1 REVERT JUMPDEST PUSH1 0x0 PUSH20 0xFFFFFFFFFFFFFFFFFFFFFFFFFFFFFFFFFFFFFFFF AND PUSH1 0x0 DUP1 SLOAD SWAP1 PUSH2 0x100 EXP SWAP1 DIV PUSH20 0xFFFFFFFFFFFFFFFFFFFFFFFFFFFFFFFFFFFFFFFF AND PUSH20 0xFFFFFFFFFFFFFFFFFFFFFFFFFFFFFFFFFFFFFFFF AND PUSH32 0x8BE0079C531659141344CD1FD0A4F28419497F9722A3DAAFE3B4186F6B6457E0 PUSH1 0x40 MLOAD PUSH1 0x40 MLOAD DUP1 SWAP2 SUB SWAP1 LOG3 PUSH1 0x0 DUP1 PUSH1 0x0 PUSH2 0x100 EXP DUP2 SLOAD DUP2 PUSH20 0xFFFFFFFFFFFFFFFFFFFFFFFFFFFFFFFFFFFFFFFF MUL NOT AND SWAP1 DUP4 PUSH20 0xFFFFFFFFFFFFFFFFFFFFFFFFFFFFFFFFFFFFFFFF AND MUL OR SWAP1 SSTORE POP JUMP JUMPDEST PUSH1 0x14 SLOAD DUP2 JUMP JUMPDEST PUSH1 0x0 PUSH1 0x7 PUSH1 0x0 DUP4 PUSH20 0xFFFFFFFFFFFFFFFFFFFFFFFFFFFFFFFFFFFFFFFF AND PUSH20 0xFFFFFFFFFFFFFFFFFFFFFFFFFFFFFFFFFFFFFFFF AND DUP2 MSTORE PUSH1 0x20 ADD SWAP1 DUP2 MSTORE PUSH1 0x20 ADD PUSH1 0x0 KECCAK256 PUSH1 0x0 SWAP1 SLOAD SWAP1 PUSH2 0x100 EXP SWAP1 DIV PUSH1 0xFF AND SWAP1 POP SWAP2 SWAP1 POP JUMP JUMPDEST PUSH1 0x0 DUP1 PUSH1 0x0 SWAP1 SLOAD SWAP1 PUSH2 0x100 EXP SWAP1 DIV PUSH20 0xFFFFFFFFFFFFFFFFFFFFFFFFFFFFFFFFFFFFFFFF AND SWAP1 POP SWAP1 JUMP JUMPDEST PUSH2 0x1EDF PUSH2 0x2B1A JUMP JUMPDEST PUSH20 0xFFFFFFFFFFFFFFFFFFFFFFFFFFFFFFFFFFFFFFFF AND PUSH1 0x0 DUP1 SLOAD SWAP1 PUSH2 0x100 EXP SWAP1 DIV PUSH20 0xFFFFFFFFFFFFFFFFFFFFFFFFFFFFFFFFFFFFFFFF AND PUSH20 0xFFFFFFFFFFFFFFFFFFFFFFFFFFFFFFFFFFFFFFFF AND EQ PUSH2 0x1F9F JUMPI PUSH1 0x40 MLOAD PUSH32 0x8C379A000000000000000000000000000000000000000000000000000000000 DUP2 MSTORE PUSH1 0x4 ADD DUP1 DUP1 PUSH1 0x20 ADD DUP3 DUP2 SUB DUP3 MSTORE PUSH1 0x20 DUP2 MSTORE PUSH1 0x20 ADD DUP1 PUSH32 0x4F776E61626C653A2063616C6C6572206973206E6F7420746865206F776E6572 DUP2 MSTORE POP PUSH1 0x20 ADD SWAP2 POP POP PUSH1 0x40 MLOAD DUP1 SWAP2 SUB SWAP1 REVERT JUMPDEST DUP1 PUSH1 0x11 DUP2 SWAP1 SSTORE POP POP JUMP JUMPDEST PUSH1 0x60 PUSH1 0xD DUP1 SLOAD PUSH1 0x1 DUP2 PUSH1 0x1 AND ISZERO PUSH2 0x100 MUL SUB AND PUSH1 0x2 SWAP1 DIV DUP1 PUSH1 0x1F ADD PUSH1 0x20 DUP1 SWAP2 DIV MUL PUSH1 0x20 ADD PUSH1 0x40 MLOAD SWAP1 DUP2 ADD PUSH1 0x40 MSTORE DUP1 SWAP3 SWAP2 SWAP1 DUP2 DUP2 MSTORE PUSH1 0x20 ADD DUP3 DUP1 SLOAD PUSH1 0x1 DUP2 PUSH1 0x1 AND ISZERO PUSH2 0x100 MUL SUB AND PUSH1 0x2 SWAP1 DIV DUP1 ISZERO PUSH2 0x2041 JUMPI DUP1 PUSH1 0x1F LT PUSH2 0x2016 JUMPI PUSH2 0x100 DUP1 DUP4 SLOAD DIV MUL DUP4 MSTORE SWAP2 PUSH1 0x20 ADD SWAP2 PUSH2 0x2041 JUMP JUMPDEST DUP3 ADD SWAP2 SWAP1 PUSH1 0x0 MSTORE PUSH1 0x20 PUSH1 0x0 KECCAK256 SWAP1 JUMPDEST DUP2 SLOAD DUP2 MSTORE SWAP1 PUSH1 0x1 ADD SWAP1 PUSH1 0x20 ADD DUP1 DUP4 GT PUSH2 0x2024 JUMPI DUP3 SWAP1 SUB PUSH1 0x1F AND DUP3 ADD SWAP2 JUMPDEST POP POP POP POP POP SWAP1 POP SWAP1 JUMP JUMPDEST PUSH1 0x0 PUSH2 0x210E PUSH2 0x2058 PUSH2 0x2B1A JUMP JUMPDEST DUP5 PUSH2 0x2109 DUP6 PUSH1 0x40 MLOAD DUP1 PUSH1 0x60 ADD PUSH1 0x40 MSTORE DUP1 PUSH1 0x25 DUP2 MSTORE PUSH1 0x20 ADD PUSH2 0x4DD3 PUSH1 0x25 SWAP2 CODECOPY PUSH1 0x5 PUSH1 0x0 PUSH2 0x2082 PUSH2 0x2B1A JUMP JUMPDEST PUSH20 0xFFFFFFFFFFFFFFFFFFFFFFFFFFFFFFFFFFFFFFFF AND PUSH20 0xFFFFFFFFFFFFFFFFFFFFFFFFFFFFFFFFFFFFFFFF AND DUP2 MSTORE PUSH1 0x20 ADD SWAP1 DUP2 MSTORE PUSH1 0x20 ADD PUSH1 0x0 KECCAK256 PUSH1 0x0 DUP11 PUSH20 0xFFFFFFFFFFFFFFFFFFFFFFFFFFFFFFFFFFFFFFFF AND PUSH20 0xFFFFFFFFFFFFFFFFFFFFFFFFFFFFFFFFFFFFFFFF AND DUP2 MSTORE PUSH1 0x20 ADD SWAP1 DUP2 MSTORE PUSH1 0x20 ADD PUSH1 0x0 KECCAK256 SLOAD PUSH2 0x30DE SWAP1 SWAP3 SWAP2 SWAP1 PUSH4 0xFFFFFFFF AND JUMP JUMPDEST PUSH2 0x2B22 JUMP JUMPDEST PUSH1 0x1 SWAP1 POP SWAP3 SWAP2 POP POP JUMP JUMPDEST CALLER PUSH20 0xFFFFFFFFFFFFFFFFFFFFFFFFFFFFFFFFFFFFFFFF AND PUSH1 0x1 PUSH1 0x0 SWAP1 SLOAD SWAP1 PUSH2 0x100 EXP SWAP1 DIV PUSH20 0xFFFFFFFFFFFFFFFFFFFFFFFFFFFFFFFFFFFFFFFF AND PUSH20 0xFFFFFFFFFFFFFFFFFFFFFFFFFFFFFFFFFFFFFFFF AND EQ PUSH2 0x21BE JUMPI PUSH1 0x40 MLOAD PUSH32 0x8C379A000000000000000000000000000000000000000000000000000000000 DUP2 MSTORE PUSH1 0x4 ADD DUP1 DUP1 PUSH1 0x20 ADD DUP3 DUP2 SUB DUP3 MSTORE PUSH1 0x23 DUP2 MSTORE PUSH1 0x20 ADD DUP1 PUSH2 0x4DB0 PUSH1 0x23 SWAP2 CODECOPY PUSH1 0x40 ADD SWAP2 POP POP PUSH1 0x40 MLOAD DUP1 SWAP2 SUB SWAP1 REVERT JUMPDEST PUSH1 0x2 SLOAD TIMESTAMP GT PUSH2 0x2235 JUMPI PUSH1 0x40 MLOAD PUSH32 0x8C379A000000000000000000000000000000000000000000000000000000000 DUP2 MSTORE PUSH1 0x4 ADD DUP1 DUP1 PUSH1 0x20 ADD DUP3 DUP2 SUB DUP3 MSTORE PUSH1 0x1F DUP2 MSTORE PUSH1 0x20 ADD DUP1 PUSH32 0x436F6E7472616374206973206C6F636B656420756E74696C2037206461797300 DUP2 MSTORE POP PUSH1 0x20 ADD SWAP2 POP POP PUSH1 0x40 MLOAD DUP1 SWAP2 SUB SWAP1 REVERT JUMPDEST PUSH1 0x1 PUSH1 0x0 SWAP1 SLOAD SWAP1 PUSH2 0x100 EXP SWAP1 DIV PUSH20 0xFFFFFFFFFFFFFFFFFFFFFFFFFFFFFFFFFFFFFFFF AND PUSH20 0xFFFFFFFFFFFFFFFFFFFFFFFFFFFFFFFFFFFFFFFF AND PUSH1 0x0 DUP1 SLOAD SWAP1 PUSH2 0x100 EXP SWAP1 DIV PUSH20 0xFFFFFFFFFFFFFFFFFFFFFFFFFFFFFFFFFFFFFFFF AND PUSH20 0xFFFFFFFFFFFFFFFFFFFFFFFFFFFFFFFFFFFFFFFF AND PUSH32 0x8BE0079C531659141344CD1FD0A4F28419497F9722A3DAAFE3B4186F6B6457E0 PUSH1 0x40 MLOAD PUSH1 0x40 MLOAD DUP1 SWAP2 SUB SWAP1 LOG3 PUSH1 0x1 PUSH1 0x0 SWAP1 SLOAD SWAP1 PUSH2 0x100 EXP SWAP1 DIV PUSH20 0xFFFFFFFFFFFFFFFFFFFFFFFFFFFFFFFFFFFFFFFF AND PUSH1 0x0 DUP1 PUSH2 0x100 EXP DUP2 SLOAD DUP2 PUSH20 0xFFFFFFFFFFFFFFFFFFFFFFFFFFFFFFFFFFFFFFFF MUL NOT AND SWAP1 DUP4 PUSH20 0xFFFFFFFFFFFFFFFFFFFFFFFFFFFFFFFFFFFFFFFF AND MUL OR SWAP1 SSTORE POP JUMP JUMPDEST PUSH1 0x0 PUSH2 0x2349 PUSH2 0x2342 PUSH2 0x2B1A JUMP JUMPDEST DUP5 DUP5 PUSH2 0x2D19 JUMP JUMPDEST PUSH1 0x1 SWAP1 POP SWAP3 SWAP2 POP POP JUMP JUMPDEST PUSH1 0x0 PUSH1 0x2 SLOAD SWAP1 POP SWAP1 JUMP JUMPDEST PUSH2 0x2365 PUSH2 0x2B1A JUMP JUMPDEST PUSH20 0xFFFFFFFFFFFFFFFFFFFFFFFFFFFFFFFFFFFFFFFF AND PUSH1 0x0 DUP1 SLOAD SWAP1 PUSH2 0x100 EXP SWAP1 DIV PUSH20 0xFFFFFFFFFFFFFFFFFFFFFFFFFFFFFFFFFFFFFFFF AND PUSH20 0xFFFFFFFFFFFFFFFFFFFFFFFFFFFFFFFFFFFFFFFF AND EQ PUSH2 0x2425 JUMPI PUSH1 0x40 MLOAD PUSH32 0x8C379A000000000000000000000000000000000000000000000000000000000 DUP2 MSTORE PUSH1 0x4 ADD DUP1 DUP1 PUSH1 0x20 ADD DUP3 DUP2 SUB DUP3 MSTORE PUSH1 0x20 DUP2 MSTORE PUSH1 0x20 ADD DUP1 PUSH32 0x4F776E61626C653A2063616C6C6572206973206E6F7420746865206F776E6572 DUP2 MSTORE POP PUSH1 0x20 ADD SWAP2 POP POP PUSH1 0x40 MLOAD DUP1 SWAP2 SUB SWAP1 REVERT JUMPDEST DUP1 PUSH1 0x13 PUSH1 0x1 PUSH2 0x100 EXP DUP2 SLOAD DUP2 PUSH1 0xFF MUL NOT AND SWAP1 DUP4 ISZERO ISZERO MUL OR SWAP1 SSTORE POP PUSH32 0x53726DFCAF90650AA7EB35524F4D3220F07413C8D6CB404CC8C18BF5591BC159 DUP2 PUSH1 0x40 MLOAD DUP1 DUP3 ISZERO ISZERO DUP2 MSTORE PUSH1 0x20 ADD SWAP2 POP POP PUSH1 0x40 MLOAD DUP1 SWAP2 SUB SWAP1 LOG1 POP JUMP JUMPDEST PUSH2 0x2483 PUSH2 0x2B1A JUMP JUMPDEST PUSH20 0xFFFFFFFFFFFFFFFFFFFFFFFFFFFFFFFFFFFFFFFF AND PUSH1 0x0 DUP1 SLOAD SWAP1 PUSH2 0x100 EXP SWAP1 DIV PUSH20 0xFFFFFFFFFFFFFFFFFFFFFFFFFFFFFFFFFFFFFFFF AND PUSH20 0xFFFFFFFFFFFFFFFFFFFFFFFFFFFFFFFFFFFFFFFF AND EQ PUSH2 0x2543 JUMPI PUSH1 0x40 MLOAD PUSH32 0x8C379A000000000000000000000000000000000000000000000000000000000 DUP2 MSTORE PUSH1 0x4 ADD DUP1 DUP1 PUSH1 0x20 ADD DUP3 DUP2 SUB DUP3 MSTORE PUSH1 0x20 DUP2 MSTORE PUSH1 0x20 ADD DUP1 PUSH32 0x4F776E61626C653A2063616C6C6572206973206E6F7420746865206F776E6572 DUP2 MSTORE POP PUSH1 0x20 ADD SWAP2 POP POP PUSH1 0x40 MLOAD DUP1 SWAP2 SUB SWAP1 REVERT JUMPDEST PUSH2 0x256B PUSH1 0x64 PUSH2 0x255D DUP4 PUSH1 0x9 SLOAD PUSH2 0x3341 SWAP1 SWAP2 SWAP1 PUSH4 0xFFFFFFFF AND JUMP JUMPDEST PUSH2 0x31C9 SWAP1 SWAP2 SWAP1 PUSH4 0xFFFFFFFF AND JUMP JUMPDEST PUSH1 0x14 DUP2 SWAP1 SSTORE POP POP JUMP JUMPDEST PUSH2 0x257C PUSH2 0x2B1A JUMP JUMPDEST PUSH20 0xFFFFFFFFFFFFFFFFFFFFFFFFFFFFFFFFFFFFFFFF AND PUSH1 0x0 DUP1 SLOAD SWAP1 PUSH2 0x100 EXP SWAP1 DIV PUSH20 0xFFFFFFFFFFFFFFFFFFFFFFFFFFFFFFFFFFFFFFFF AND PUSH20 0xFFFFFFFFFFFFFFFFFFFFFFFFFFFFFFFFFFFFFFFF AND EQ PUSH2 0x263C JUMPI PUSH1 0x40 MLOAD PUSH32 0x8C379A000000000000000000000000000000000000000000000000000000000 DUP2 MSTORE PUSH1 0x4 ADD DUP1 DUP1 PUSH1 0x20 ADD DUP3 DUP2 SUB DUP3 MSTORE PUSH1 0x20 DUP2 MSTORE PUSH1 0x20 ADD DUP1 PUSH32 0x4F776E61626C653A2063616C6C6572206973206E6F7420746865206F776E6572 DUP2 MSTORE POP PUSH1 0x20 ADD SWAP2 POP POP PUSH1 0x40 MLOAD DUP1 SWAP2 SUB SWAP1 REVERT JUMPDEST PUSH1 0x0 DUP1 SLOAD SWAP1 PUSH2 0x100 EXP SWAP1 DIV PUSH20 0xFFFFFFFFFFFFFFFFFFFFFFFFFFFFFFFFFFFFFFFF AND PUSH1 0x1 PUSH1 0x0 PUSH2 0x100 EXP DUP2 SLOAD DUP2 PUSH20 0xFFFFFFFFFFFFFFFFFFFFFFFFFFFFFFFFFFFFFFFF MUL NOT AND SWAP1 DUP4 PUSH20 0xFFFFFFFFFFFFFFFFFFFFFFFFFFFFFFFFFFFFFFFF AND MUL OR SWAP1 SSTORE POP PUSH1 0x0 DUP1 PUSH1 0x0 PUSH2 0x100 EXP DUP2 SLOAD DUP2 PUSH20 0xFFFFFFFFFFFFFFFFFFFFFFFFFFFFFFFFFFFFFFFF MUL NOT AND SWAP1 DUP4 PUSH20 0xFFFFFFFFFFFFFFFFFFFFFFFFFFFFFFFFFFFFFFFF AND MUL OR SWAP1 SSTORE POP DUP1 TIMESTAMP ADD PUSH1 0x2 DUP2 SWAP1 SSTORE POP PUSH1 0x0 PUSH20 0xFFFFFFFFFFFFFFFFFFFFFFFFFFFFFFFFFFFFFFFF AND PUSH1 0x0 DUP1 SLOAD SWAP1 PUSH2 0x100 EXP SWAP1 DIV PUSH20 0xFFFFFFFFFFFFFFFFFFFFFFFFFFFFFFFFFFFFFFFF AND PUSH20 0xFFFFFFFFFFFFFFFFFFFFFFFFFFFFFFFFFFFFFFFF AND PUSH32 0x8BE0079C531659141344CD1FD0A4F28419497F9722A3DAAFE3B4186F6B6457E0 PUSH1 0x40 MLOAD PUSH1 0x40 MLOAD DUP1 SWAP2 SUB SWAP1 LOG3 POP JUMP JUMPDEST PUSH1 0x0 PUSH1 0x5 PUSH1 0x0 DUP5 PUSH20 0xFFFFFFFFFFFFFFFFFFFFFFFFFFFFFFFFFFFFFFFF AND PUSH20 0xFFFFFFFFFFFFFFFFFFFFFFFFFFFFFFFFFFFFFFFF AND DUP2 MSTORE PUSH1 0x20 ADD SWAP1 DUP2 MSTORE PUSH1 0x20 ADD PUSH1 0x0 KECCAK256 PUSH1 0x0 DUP4 PUSH20 0xFFFFFFFFFFFFFFFFFFFFFFFFFFFFFFFFFFFFFFFF AND PUSH20 0xFFFFFFFFFFFFFFFFFFFFFFFFFFFFFFFFFFFFFFFF AND DUP2 MSTORE PUSH1 0x20 ADD SWAP1 DUP2 MSTORE PUSH1 0x20 ADD PUSH1 0x0 KECCAK256 SLOAD SWAP1 POP SWAP3 SWAP2 POP POP JUMP JUMPDEST PUSH2 0x27F4 PUSH2 0x2B1A JUMP JUMPDEST PUSH20 0xFFFFFFFFFFFFFFFFFFFFFFFFFFFFFFFFFFFFFFFF AND PUSH1 0x0 DUP1 SLOAD SWAP1 PUSH2 0x100 EXP SWAP1 DIV PUSH20 0xFFFFFFFFFFFFFFFFFFFFFFFFFFFFFFFFFFFFFFFF AND PUSH20 0xFFFFFFFFFFFFFFFFFFFFFFFFFFFFFFFFFFFFFFFF AND EQ PUSH2 0x28B4 JUMPI PUSH1 0x40 MLOAD PUSH32 0x8C379A000000000000000000000000000000000000000000000000000000000 DUP2 MSTORE PUSH1 0x4 ADD DUP1 DUP1 PUSH1 0x20 ADD DUP3 DUP2 SUB DUP3 MSTORE PUSH1 0x20 DUP2 MSTORE PUSH1 0x20 ADD DUP1 PUSH32 0x4F776E61626C653A2063616C6C6572206973206E6F7420746865206F776E6572 DUP2 MSTORE POP PUSH1 0x20 ADD SWAP2 POP POP PUSH1 0x40 MLOAD DUP1 SWAP2 SUB SWAP1 REVERT JUMPDEST PUSH1 0x0 PUSH1 0x6 PUSH1 0x0 DUP4 PUSH20 0xFFFFFFFFFFFFFFFFFFFFFFFFFFFFFFFFFFFFFFFF AND PUSH20 0xFFFFFFFFFFFFFFFFFFFFFFFFFFFFFFFFFFFFFFFF AND DUP2 MSTORE PUSH1 0x20 ADD SWAP1 DUP2 MSTORE PUSH1 0x20 ADD PUSH1 0x0 KECCAK256 PUSH1 0x0 PUSH2 0x100 EXP DUP2 SLOAD DUP2 PUSH1 0xFF MUL NOT AND SWAP1 DUP4 ISZERO ISZERO MUL OR SWAP1 SSTORE POP POP JUMP JUMPDEST PUSH2 0x2917 PUSH2 0x2B1A JUMP JUMPDEST PUSH20 0xFFFFFFFFFFFFFFFFFFFFFFFFFFFFFFFFFFFFFFFF AND PUSH1 0x0 DUP1 SLOAD SWAP1 PUSH2 0x100 EXP SWAP1 DIV PUSH20 0xFFFFFFFFFFFFFFFFFFFFFFFFFFFFFFFFFFFFFFFF AND PUSH20 0xFFFFFFFFFFFFFFFFFFFFFFFFFFFFFFFFFFFFFFFF AND EQ PUSH2 0x29D7 JUMPI PUSH1 0x40 MLOAD PUSH32 0x8C379A000000000000000000000000000000000000000000000000000000000 DUP2 MSTORE PUSH1 0x4 ADD DUP1 DUP1 PUSH1 0x20 ADD DUP3 DUP2 SUB DUP3 MSTORE PUSH1 0x20 DUP2 MSTORE PUSH1 0x20 ADD DUP1 PUSH32 0x4F776E61626C653A2063616C6C6572206973206E6F7420746865206F776E6572 DUP2 MSTORE POP PUSH1 0x20 ADD SWAP2 POP POP PUSH1 0x40 MLOAD DUP1 SWAP2 SUB SWAP1 REVERT JUMPDEST PUSH1 0x0 PUSH20 0xFFFFFFFFFFFFFFFFFFFFFFFFFFFFFFFFFFFFFFFF AND DUP2 PUSH20 0xFFFFFFFFFFFFFFFFFFFFFFFFFFFFFFFFFFFFFFFF AND EQ ISZERO PUSH2 0x2A5D JUMPI PUSH1 0x40 MLOAD PUSH32 0x8C379A000000000000000000000000000000000000000000000000000000000 DUP2 MSTORE PUSH1 0x4 ADD DUP1 DUP1 PUSH1 0x20 ADD DUP3 DUP2 SUB DUP3 MSTORE PUSH1 0x26 DUP2 MSTORE PUSH1 0x20 ADD DUP1 PUSH2 0x4C59 PUSH1 0x26 SWAP2 CODECOPY PUSH1 0x40 ADD SWAP2 POP POP PUSH1 0x40 MLOAD DUP1 SWAP2 SUB SWAP1 REVERT JUMPDEST DUP1 PUSH20 0xFFFFFFFFFFFFFFFFFFFFFFFFFFFFFFFFFFFFFFFF AND PUSH1 0x0 DUP1 SLOAD SWAP1 PUSH2 0x100 EXP SWAP1 DIV PUSH20 0xFFFFFFFFFFFFFFFFFFFFFFFFFFFFFFFFFFFFFFFF AND PUSH20 0xFFFFFFFFFFFFFFFFFFFFFFFFFFFFFFFFFFFFFFFF AND PUSH32 0x8BE0079C531659141344CD1FD0A4F28419497F9722A3DAAFE3B4186F6B6457E0 PUSH1 0x40 MLOAD PUSH1 0x40 MLOAD DUP1 SWAP2 SUB SWAP1 LOG3 DUP1 PUSH1 0x0 DUP1 PUSH2 0x100 EXP DUP2 SLOAD DUP2 PUSH20 0xFFFFFFFFFFFFFFFFFFFFFFFFFFFFFFFFFFFFFFFF MUL NOT AND SWAP1 DUP4 PUSH20 0xFFFFFFFFFFFFFFFFFFFFFFFFFFFFFFFFFFFFFFFF AND MUL OR SWAP1 SSTORE POP POP JUMP JUMPDEST PUSH1 0x0 CALLER SWAP1 POP SWAP1 JUMP JUMPDEST PUSH1 0x0 PUSH20 0xFFFFFFFFFFFFFFFFFFFFFFFFFFFFFFFFFFFFFFFF AND DUP4 PUSH20 0xFFFFFFFFFFFFFFFFFFFFFFFFFFFFFFFFFFFFFFFF AND EQ ISZERO PUSH2 0x2BA8 JUMPI PUSH1 0x40 MLOAD PUSH32 0x8C379A000000000000000000000000000000000000000000000000000000000 DUP2 MSTORE PUSH1 0x4 ADD DUP1 DUP1 PUSH1 0x20 ADD DUP3 DUP2 SUB DUP3 MSTORE PUSH1 0x24 DUP2 MSTORE PUSH1 0x20 ADD DUP1 PUSH2 0x4D60 PUSH1 0x24 SWAP2 CODECOPY PUSH1 0x40 ADD SWAP2 POP POP PUSH1 0x40 MLOAD DUP1 SWAP2 SUB SWAP1 REVERT JUMPDEST PUSH1 0x0 PUSH20 0xFFFFFFFFFFFFFFFFFFFFFFFFFFFFFFFFFFFFFFFF AND DUP3 PUSH20 0xFFFFFFFFFFFFFFFFFFFFFFFFFFFFFFFFFFFFFFFF AND EQ ISZERO PUSH2 0x2C2E JUMPI PUSH1 0x40 MLOAD PUSH32 0x8C379A000000000000000000000000000000000000000000000000000000000 DUP2 MSTORE PUSH1 0x4 ADD DUP1 DUP1 PUSH1 0x20 ADD DUP3 DUP2 SUB DUP3 MSTORE PUSH1 0x22 DUP2 MSTORE PUSH1 0x20 ADD DUP1 PUSH2 0x4C7F PUSH1 0x22 SWAP2 CODECOPY PUSH1 0x40 ADD SWAP2 POP POP PUSH1 0x40 MLOAD DUP1 SWAP2 SUB SWAP1 REVERT JUMPDEST DUP1 PUSH1 0x5 PUSH1 0x0 DUP6 PUSH20 0xFFFFFFFFFFFFFFFFFFFFFFFFFFFFFFFFFFFFFFFF AND PUSH20 0xFFFFFFFFFFFFFFFFFFFFFFFFFFFFFFFFFFFFFFFF AND DUP2 MSTORE PUSH1 0x20 ADD SWAP1 DUP2 MSTORE PUSH1 0x20 ADD PUSH1 0x0 KECCAK256 PUSH1 0x0 DUP5 PUSH20 0xFFFFFFFFFFFFFFFFFFFFFFFFFFFFFFFFFFFFFFFF AND PUSH20 0xFFFFFFFFFFFFFFFFFFFFFFFFFFFFFFFFFFFFFFFF AND DUP2 MSTORE PUSH1 0x20 ADD SWAP1 DUP2 MSTORE PUSH1 0x20 ADD PUSH1 0x0 KECCAK256 DUP2 SWAP1 SSTORE POP DUP2 PUSH20 0xFFFFFFFFFFFFFFFFFFFFFFFFFFFFFFFFFFFFFFFF AND DUP4 PUSH20 0xFFFFFFFFFFFFFFFFFFFFFFFFFFFFFFFFFFFFFFFF AND PUSH32 0x8C5BE1E5EBEC7D5BD14F71427D1E84F3DD0314C0F7B2291E5B200AC8C7C3B925 DUP4 PUSH1 0x40 MLOAD DUP1 DUP3 DUP2 MSTORE PUSH1 0x20 ADD SWAP2 POP POP PUSH1 0x40 MLOAD DUP1 SWAP2 SUB SWAP1 LOG3 POP POP POP JUMP JUMPDEST PUSH1 0x0 PUSH20 0xFFFFFFFFFFFFFFFFFFFFFFFFFFFFFFFFFFFFFFFF AND DUP4 PUSH20 0xFFFFFFFFFFFFFFFFFFFFFFFFFFFFFFFFFFFFFFFF AND EQ ISZERO PUSH2 0x2D9F JUMPI PUSH1 0x40 MLOAD PUSH32 0x8C379A000000000000000000000000000000000000000000000000000000000 DUP2 MSTORE PUSH1 0x4 ADD DUP1 DUP1 PUSH1 0x20 ADD DUP3 DUP2 SUB DUP3 MSTORE PUSH1 0x25 DUP2 MSTORE PUSH1 0x20 ADD DUP1 PUSH2 0x4D3B PUSH1 0x25 SWAP2 CODECOPY PUSH1 0x40 ADD SWAP2 POP POP PUSH1 0x40 MLOAD DUP1 SWAP2 SUB SWAP1 REVERT JUMPDEST PUSH1 0x0 PUSH20 0xFFFFFFFFFFFFFFFFFFFFFFFFFFFFFFFFFFFFFFFF AND DUP3 PUSH20 0xFFFFFFFFFFFFFFFFFFFFFFFFFFFFFFFFFFFFFFFF AND EQ ISZERO PUSH2 0x2E25 JUMPI PUSH1 0x40 MLOAD PUSH32 0x8C379A000000000000000000000000000000000000000000000000000000000 DUP2 MSTORE PUSH1 0x4 ADD DUP1 DUP1 PUSH1 0x20 ADD DUP3 DUP2 SUB DUP3 MSTORE PUSH1 0x23 DUP2 MSTORE PUSH1 0x20 ADD DUP1 PUSH2 0x4C0C PUSH1 0x23 SWAP2 CODECOPY PUSH1 0x40 ADD SWAP2 POP POP PUSH1 0x40 MLOAD DUP1 SWAP2 SUB SWAP1 REVERT JUMPDEST PUSH1 0x0 DUP2 GT PUSH2 0x2E7E JUMPI PUSH1 0x40 MLOAD PUSH32 0x8C379A000000000000000000000000000000000000000000000000000000000 DUP2 MSTORE PUSH1 0x4 ADD DUP1 DUP1 PUSH1 0x20 ADD DUP3 DUP2 SUB DUP3 MSTORE PUSH1 0x29 DUP2 MSTORE PUSH1 0x20 ADD DUP1 PUSH2 0x4D12 PUSH1 0x29 SWAP2 CODECOPY PUSH1 0x40 ADD SWAP2 POP POP PUSH1 0x40 MLOAD DUP1 SWAP2 SUB SWAP1 REVERT JUMPDEST PUSH2 0x2E86 PUSH2 0x1EAE JUMP JUMPDEST PUSH20 0xFFFFFFFFFFFFFFFFFFFFFFFFFFFFFFFFFFFFFFFF AND DUP4 PUSH20 0xFFFFFFFFFFFFFFFFFFFFFFFFFFFFFFFFFFFFFFFF AND EQ ISZERO DUP1 ISZERO PUSH2 0x2EF4 JUMPI POP PUSH2 0x2EC4 PUSH2 0x1EAE JUMP JUMPDEST PUSH20 0xFFFFFFFFFFFFFFFFFFFFFFFFFFFFFFFFFFFFFFFF AND DUP3 PUSH20 0xFFFFFFFFFFFFFFFFFFFFFFFFFFFFFFFFFFFFFFFF AND EQ ISZERO JUMPDEST ISZERO PUSH2 0x2F55 JUMPI PUSH1 0x14 SLOAD DUP2 GT ISZERO PUSH2 0x2F54 JUMPI PUSH1 0x40 MLOAD PUSH32 0x8C379A000000000000000000000000000000000000000000000000000000000 DUP2 MSTORE PUSH1 0x4 ADD DUP1 DUP1 PUSH1 0x20 ADD DUP3 DUP2 SUB DUP3 MSTORE PUSH1 0x28 DUP2 MSTORE PUSH1 0x20 ADD DUP1 PUSH2 0x4CA1 PUSH1 0x28 SWAP2 CODECOPY PUSH1 0x40 ADD SWAP2 POP POP PUSH1 0x40 MLOAD DUP1 SWAP2 SUB SWAP1 REVERT JUMPDEST JUMPDEST PUSH1 0x0 PUSH2 0x2F60 ADDRESS PUSH2 0x1BE1 JUMP JUMPDEST SWAP1 POP PUSH1 0x14 SLOAD DUP2 LT PUSH2 0x2F71 JUMPI PUSH1 0x14 SLOAD SWAP1 POP JUMPDEST PUSH1 0x0 PUSH1 0x15 SLOAD DUP3 LT ISZERO SWAP1 POP DUP1 DUP1 ISZERO PUSH2 0x2F95 JUMPI POP PUSH1 0x13 PUSH1 0x0 SWAP1 SLOAD SWAP1 PUSH2 0x100 EXP SWAP1 DIV PUSH1 0xFF AND ISZERO JUMPDEST DUP1 ISZERO PUSH2 0x2FED JUMPI POP PUSH32 0x0 PUSH20 0xFFFFFFFFFFFFFFFFFFFFFFFFFFFFFFFFFFFFFFFF AND DUP6 PUSH20 0xFFFFFFFFFFFFFFFFFFFFFFFFFFFFFFFFFFFFFFFF AND EQ ISZERO JUMPDEST DUP1 ISZERO PUSH2 0x3005 JUMPI POP PUSH1 0x13 PUSH1 0x1 SWAP1 SLOAD SWAP1 PUSH2 0x100 EXP SWAP1 DIV PUSH1 0xFF AND JUMPDEST ISZERO PUSH2 0x3019 JUMPI PUSH1 0x15 SLOAD SWAP2 POP PUSH2 0x3018 DUP3 PUSH2 0x33C7 JUMP JUMPDEST JUMPDEST PUSH1 0x0 PUSH1 0x1 SWAP1 POP PUSH1 0x6 PUSH1 0x0 DUP8 PUSH20 0xFFFFFFFFFFFFFFFFFFFFFFFFFFFFFFFFFFFFFFFF AND PUSH20 0xFFFFFFFFFFFFFFFFFFFFFFFFFFFFFFFFFFFFFFFF AND DUP2 MSTORE PUSH1 0x20 ADD SWAP1 DUP2 MSTORE PUSH1 0x20 ADD PUSH1 0x0 KECCAK256 PUSH1 0x0 SWAP1 SLOAD SWAP1 PUSH2 0x100 EXP SWAP1 DIV PUSH1 0xFF AND DUP1 PUSH2 0x30C0 JUMPI POP PUSH1 0x6 PUSH1 0x0 DUP7 PUSH20 0xFFFFFFFFFFFFFFFFFFFFFFFFFFFFFFFFFFFFFFFF AND PUSH20 0xFFFFFFFFFFFFFFFFFFFFFFFFFFFFFFFFFFFFFFFF AND DUP2 MSTORE PUSH1 0x20 ADD SWAP1 DUP2 MSTORE PUSH1 0x20 ADD PUSH1 0x0 KECCAK256 PUSH1 0x0 SWAP1 SLOAD SWAP1 PUSH2 0x100 EXP SWAP1 DIV PUSH1 0xFF AND JUMPDEST ISZERO PUSH2 0x30CA JUMPI PUSH1 0x0 SWAP1 POP JUMPDEST PUSH2 0x30D6 DUP7 DUP7 DUP7 DUP5 PUSH2 0x34A9 JUMP JUMPDEST POP POP POP POP POP POP JUMP JUMPDEST PUSH1 0x0 DUP4 DUP4 GT ISZERO DUP3 SWAP1 PUSH2 0x318B JUMPI PUSH1 0x40 MLOAD PUSH32 0x8C379A000000000000000000000000000000000000000000000000000000000 DUP2 MSTORE PUSH1 0x4 ADD DUP1 DUP1 PUSH1 0x20 ADD DUP3 DUP2 SUB DUP3 MSTORE DUP4 DUP2 DUP2 MLOAD DUP2 MSTORE PUSH1 0x20 ADD SWAP2 POP DUP1 MLOAD SWAP1 PUSH1 0x20 ADD SWAP1 DUP1 DUP4 DUP4 PUSH1 0x0 JUMPDEST DUP4 DUP2 LT ISZERO PUSH2 0x3150 JUMPI DUP1 DUP3 ADD MLOAD DUP2 DUP5 ADD MSTORE PUSH1 0x20 DUP2 ADD SWAP1 POP PUSH2 0x3135 JUMP JUMPDEST POP POP POP POP SWAP1 POP SWAP1 DUP2 ADD SWAP1 PUSH1 0x1F AND DUP1 ISZERO PUSH2 0x317D JUMPI DUP1 DUP3 SUB DUP1 MLOAD PUSH1 0x1 DUP4 PUSH1 0x20 SUB PUSH2 0x100 EXP SUB NOT AND DUP2 MSTORE PUSH1 0x20 ADD SWAP2 POP JUMPDEST POP SWAP3 POP POP POP PUSH1 0x40 MLOAD DUP1 SWAP2 SUB SWAP1 REVERT JUMPDEST POP PUSH1 0x0 DUP4 DUP6 SUB SWAP1 POP DUP1 SWAP2 POP POP SWAP4 SWAP3 POP POP POP JUMP JUMPDEST PUSH1 0x0 DUP1 PUSH1 0x0 PUSH2 0x31AB PUSH2 0x37BA JUMP JUMPDEST SWAP2 POP SWAP2 POP PUSH2 0x31C2 DUP2 DUP4 PUSH2 0x31C9 SWAP1 SWAP2 SWAP1 PUSH4 0xFFFFFFFF AND JUMP JUMPDEST SWAP3 POP POP POP SWAP1 JUMP JUMPDEST PUSH1 0x0 PUSH2 0x320B DUP4 DUP4 PUSH1 0x40 MLOAD DUP1 PUSH1 0x40 ADD PUSH1 0x40 MSTORE DUP1 PUSH1 0x1A DUP2 MSTORE PUSH1 0x20 ADD PUSH32 0x536166654D6174683A206469766973696F6E206279207A65726F000000000000 DUP2 MSTORE POP PUSH2 0x3A4B JUMP JUMPDEST SWAP1 POP SWAP3 SWAP2 POP POP JUMP JUMPDEST PUSH1 0x0 DUP1 DUP3 DUP5 ADD SWAP1 POP DUP4 DUP2 LT ISZERO PUSH2 0x3291 JUMPI PUSH1 0x40 MLOAD PUSH32 0x8C379A000000000000000000000000000000000000000000000000000000000 DUP2 MSTORE PUSH1 0x4 ADD DUP1 DUP1 PUSH1 0x20 ADD DUP3 DUP2 SUB DUP3 MSTORE PUSH1 0x1B DUP2 MSTORE PUSH1 0x20 ADD DUP1 PUSH32 0x536166654D6174683A206164646974696F6E206F766572666C6F770000000000 DUP2 MSTORE POP PUSH1 0x20 ADD SWAP2 POP POP PUSH1 0x40 MLOAD DUP1 SWAP2 SUB SWAP1 REVERT JUMPDEST DUP1 SWAP2 POP POP SWAP3 SWAP2 POP POP JUMP JUMPDEST PUSH1 0x0 DUP1 PUSH1 0x0 DUP1 PUSH1 0x0 DUP1 PUSH1 0x0 DUP1 PUSH1 0x0 PUSH2 0x32B2 DUP11 PUSH2 0x3B11 JUMP JUMPDEST SWAP3 POP SWAP3 POP SWAP3 POP PUSH1 0x0 DUP1 PUSH1 0x0 PUSH2 0x32D0 DUP14 DUP7 DUP7 PUSH2 0x32CB PUSH2 0x319E JUMP JUMPDEST PUSH2 0x3B6B JUMP JUMPDEST SWAP3 POP SWAP3 POP SWAP3 POP DUP3 DUP3 DUP3 DUP9 DUP9 DUP9 SWAP12 POP SWAP12 POP SWAP12 POP SWAP12 POP SWAP12 POP SWAP12 POP POP POP POP POP POP POP SWAP2 SWAP4 SWAP6 POP SWAP2 SWAP4 SWAP6 JUMP JUMPDEST PUSH1 0x0 PUSH2 0x3339 DUP4 DUP4 PUSH1 0x40 MLOAD DUP1 PUSH1 0x40 ADD PUSH1 0x40 MSTORE DUP1 PUSH1 0x1E DUP2 MSTORE PUSH1 0x20 ADD PUSH32 0x536166654D6174683A207375627472616374696F6E206F766572666C6F770000 DUP2 MSTORE POP PUSH2 0x30DE JUMP JUMPDEST SWAP1 POP SWAP3 SWAP2 POP POP JUMP JUMPDEST PUSH1 0x0 DUP1 DUP4 EQ ISZERO PUSH2 0x3354 JUMPI PUSH1 0x0 SWAP1 POP PUSH2 0x33C1 JUMP JUMPDEST PUSH1 0x0 DUP3 DUP5 MUL SWAP1 POP DUP3 DUP5 DUP3 DUP2 PUSH2 0x3365 JUMPI INVALID JUMPDEST DIV EQ PUSH2 0x33BC JUMPI PUSH1 0x40 MLOAD PUSH32 0x8C379A000000000000000000000000000000000000000000000000000000000 DUP2 MSTORE PUSH1 0x4 ADD DUP1 DUP1 PUSH1 0x20 ADD DUP3 DUP2 SUB DUP3 MSTORE PUSH1 0x21 DUP2 MSTORE PUSH1 0x20 ADD DUP1 PUSH2 0x4CC9 PUSH1 0x21 SWAP2 CODECOPY PUSH1 0x40 ADD SWAP2 POP POP PUSH1 0x40 MLOAD DUP1 SWAP2 SUB SWAP1 REVERT JUMPDEST DUP1 SWAP2 POP POP JUMPDEST SWAP3 SWAP2 POP POP JUMP JUMPDEST PUSH1 0x1 PUSH1 0x13 PUSH1 0x0 PUSH2 0x100 EXP DUP2 SLOAD DUP2 PUSH1 0xFF MUL NOT AND SWAP1 DUP4 ISZERO ISZERO MUL OR SWAP1 SSTORE POP PUSH1 0x0 PUSH2 0x33F8 PUSH1 0x2 DUP4 PUSH2 0x31C9 SWAP1 SWAP2 SWAP1 PUSH4 0xFFFFFFFF AND JUMP JUMPDEST SWAP1 POP PUSH1 0x0 PUSH2 0x340F DUP3 DUP5 PUSH2 0x32F7 SWAP1 SWAP2 SWAP1 PUSH4 0xFFFFFFFF AND JUMP JUMPDEST SWAP1 POP PUSH1 0x0 SELFBALANCE SWAP1 POP PUSH2 0x341F DUP4 PUSH2 0x3BF4 JUMP JUMPDEST PUSH1 0x0 PUSH2 0x3434 DUP3 SELFBALANCE PUSH2 0x32F7 SWAP1 SWAP2 SWAP1 PUSH4 0xFFFFFFFF AND JUMP JUMPDEST SWAP1 POP PUSH2 0x3440 DUP4 DUP3 PUSH2 0x3EA2 JUMP JUMPDEST PUSH32 0x17BBFB9A6069321B6DED73BD96327C9E6B7212A5CD51FF219CD61370ACAFB561 DUP5 DUP3 DUP6 PUSH1 0x40 MLOAD DUP1 DUP5 DUP2 MSTORE PUSH1 0x20 ADD DUP4 DUP2 MSTORE PUSH1 0x20 ADD DUP3 DUP2 MSTORE PUSH1 0x20 ADD SWAP4 POP POP POP POP PUSH1 0x40 MLOAD DUP1 SWAP2 SUB SWAP1 LOG1 POP POP POP POP PUSH1 0x0 PUSH1 0x13 PUSH1 0x0 PUSH2 0x100 EXP DUP2 SLOAD DUP2 PUSH1 0xFF MUL NOT AND SWAP1 DUP4 ISZERO ISZERO MUL OR SWAP1 SSTORE POP POP JUMP JUMPDEST DUP1 PUSH2 0x34B7 JUMPI PUSH2 0x34B6 PUSH2 0x3FF3 JUMP JUMPDEST JUMPDEST PUSH1 0x7 PUSH1 0x0 DUP6 PUSH20 0xFFFFFFFFFFFFFFFFFFFFFFFFFFFFFFFFFFFFFFFF AND PUSH20 0xFFFFFFFFFFFFFFFFFFFFFFFFFFFFFFFFFFFFFFFF AND DUP2 MSTORE PUSH1 0x20 ADD SWAP1 DUP2 MSTORE PUSH1 0x20 ADD PUSH1 0x0 KECCAK256 PUSH1 0x0 SWAP1 SLOAD SWAP1 PUSH2 0x100 EXP SWAP1 DIV PUSH1 0xFF AND DUP1 ISZERO PUSH2 0x355A JUMPI POP PUSH1 0x7 PUSH1 0x0 DUP5 PUSH20 0xFFFFFFFFFFFFFFFFFFFFFFFFFFFFFFFFFFFFFFFF AND PUSH20 0xFFFFFFFFFFFFFFFFFFFFFFFFFFFFFFFFFFFFFFFF AND DUP2 MSTORE PUSH1 0x20 ADD SWAP1 DUP2 MSTORE PUSH1 0x20 ADD PUSH1 0x0 KECCAK256 PUSH1 0x0 SWAP1 SLOAD SWAP1 PUSH2 0x100 EXP SWAP1 DIV PUSH1 0xFF AND ISZERO JUMPDEST ISZERO PUSH2 0x356F JUMPI PUSH2 0x356A DUP5 DUP5 DUP5 PUSH2 0x4036 JUMP JUMPDEST PUSH2 0x37A6 JUMP JUMPDEST PUSH1 0x7 PUSH1 0x0 DUP6 PUSH20 0xFFFFFFFFFFFFFFFFFFFFFFFFFFFFFFFFFFFFFFFF AND PUSH20 0xFFFFFFFFFFFFFFFFFFFFFFFFFFFFFFFFFFFFFFFF AND DUP2 MSTORE PUSH1 0x20 ADD SWAP1 DUP2 MSTORE PUSH1 0x20 ADD PUSH1 0x0 KECCAK256 PUSH1 0x0 SWAP1 SLOAD SWAP1 PUSH2 0x100 EXP SWAP1 DIV PUSH1 0xFF AND ISZERO DUP1 ISZERO PUSH2 0x3612 JUMPI POP PUSH1 0x7 PUSH1 0x0 DUP5 PUSH20 0xFFFFFFFFFFFFFFFFFFFFFFFFFFFFFFFFFFFFFFFF AND PUSH20 0xFFFFFFFFFFFFFFFFFFFFFFFFFFFFFFFFFFFFFFFF AND DUP2 MSTORE PUSH1 0x20 ADD SWAP1 DUP2 MSTORE PUSH1 0x20 ADD PUSH1 0x0 KECCAK256 PUSH1 0x0 SWAP1 SLOAD SWAP1 PUSH2 0x100 EXP SWAP1 DIV PUSH1 0xFF AND JUMPDEST ISZERO PUSH2 0x3627 JUMPI PUSH2 0x3622 DUP5 DUP5 DUP5 PUSH2 0x4296 JUMP JUMPDEST PUSH2 0x37A5 JUMP JUMPDEST PUSH1 0x7 PUSH1 0x0 DUP6 PUSH20 0xFFFFFFFFFFFFFFFFFFFFFFFFFFFFFFFFFFFFFFFF AND PUSH20 0xFFFFFFFFFFFFFFFFFFFFFFFFFFFFFFFFFFFFFFFF AND DUP2 MSTORE PUSH1 0x20 ADD SWAP1 DUP2 MSTORE PUSH1 0x20 ADD PUSH1 0x0 KECCAK256 PUSH1 0x0 SWAP1 SLOAD SWAP1 PUSH2 0x100 EXP SWAP1 DIV PUSH1 0xFF AND ISZERO DUP1 ISZERO PUSH2 0x36CB JUMPI POP PUSH1 0x7 PUSH1 0x0 DUP5 PUSH20 0xFFFFFFFFFFFFFFFFFFFFFFFFFFFFFFFFFFFFFFFF AND PUSH20 0xFFFFFFFFFFFFFFFFFFFFFFFFFFFFFFFFFFFFFFFF AND DUP2 MSTORE PUSH1 0x20 ADD SWAP1 DUP2 MSTORE PUSH1 0x20 ADD PUSH1 0x0 KECCAK256 PUSH1 0x0 SWAP1 SLOAD SWAP1 PUSH2 0x100 EXP SWAP1 DIV PUSH1 0xFF AND ISZERO JUMPDEST ISZERO PUSH2 0x36E0 JUMPI PUSH2 0x36DB DUP5 DUP5 DUP5 PUSH2 0x44F6 JUMP JUMPDEST PUSH2 0x37A4 JUMP JUMPDEST PUSH1 0x7 PUSH1 0x0 DUP6 PUSH20 0xFFFFFFFFFFFFFFFFFFFFFFFFFFFFFFFFFFFFFFFF AND PUSH20 0xFFFFFFFFFFFFFFFFFFFFFFFFFFFFFFFFFFFFFFFF AND DUP2 MSTORE PUSH1 0x20 ADD SWAP1 DUP2 MSTORE PUSH1 0x20 ADD PUSH1 0x0 KECCAK256 PUSH1 0x0 SWAP1 SLOAD SWAP1 PUSH2 0x100 EXP SWAP1 DIV PUSH1 0xFF AND DUP1 ISZERO PUSH2 0x3782 JUMPI POP PUSH1 0x7 PUSH1 0x0 DUP5 PUSH20 0xFFFFFFFFFFFFFFFFFFFFFFFFFFFFFFFFFFFFFFFF AND PUSH20 0xFFFFFFFFFFFFFFFFFFFFFFFFFFFFFFFFFFFFFFFF AND DUP2 MSTORE PUSH1 0x20 ADD SWAP1 DUP2 MSTORE PUSH1 0x20 ADD PUSH1 0x0 KECCAK256 PUSH1 0x0 SWAP1 SLOAD SWAP1 PUSH2 0x100 EXP SWAP1 DIV PUSH1 0xFF AND JUMPDEST ISZERO PUSH2 0x3797 JUMPI PUSH2 0x3792 DUP5 DUP5 DUP5 PUSH2 0x46C1 JUMP JUMPDEST PUSH2 0x37A3 JUMP JUMPDEST PUSH2 0x37A2 DUP5 DUP5 DUP5 PUSH2 0x44F6 JUMP JUMPDEST JUMPDEST JUMPDEST JUMPDEST JUMPDEST DUP1 PUSH2 0x37B4 JUMPI PUSH2 0x37B3 PUSH2 0x49B6 JUMP JUMPDEST JUMPDEST POP POP POP POP JUMP JUMPDEST PUSH1 0x0 DUP1 PUSH1 0x0 PUSH1 0xA SLOAD SWAP1 POP PUSH1 0x0 PUSH1 0x9 SLOAD SWAP1 POP PUSH1 0x0 JUMPDEST PUSH1 0x8 DUP1 SLOAD SWAP1 POP DUP2 LT ISZERO PUSH2 0x3A0E JUMPI DUP3 PUSH1 0x3 PUSH1 0x0 PUSH1 0x8 DUP5 DUP2 SLOAD DUP2 LT PUSH2 0x37ED JUMPI INVALID JUMPDEST SWAP1 PUSH1 0x0 MSTORE PUSH1 0x20 PUSH1 0x0 KECCAK256 ADD PUSH1 0x0 SWAP1 SLOAD SWAP1 PUSH2 0x100 EXP SWAP1 DIV PUSH20 0xFFFFFFFFFFFFFFFFFFFFFFFFFFFFFFFFFFFFFFFF AND PUSH20 0xFFFFFFFFFFFFFFFFFFFFFFFFFFFFFFFFFFFFFFFF AND PUSH20 0xFFFFFFFFFFFFFFFFFFFFFFFFFFFFFFFFFFFFFFFF AND DUP2 MSTORE PUSH1 0x20 ADD SWAP1 DUP2 MSTORE PUSH1 0x20 ADD PUSH1 0x0 KECCAK256 SLOAD GT DUP1 PUSH2 0x38D4 JUMPI POP DUP2 PUSH1 0x4 PUSH1 0x0 PUSH1 0x8 DUP5 DUP2 SLOAD DUP2 LT PUSH2 0x386C JUMPI INVALID JUMPDEST SWAP1 PUSH1 0x0 MSTORE PUSH1 0x20 PUSH1 0x0 KECCAK256 ADD PUSH1 0x0 SWAP1 SLOAD SWAP1 PUSH2 0x100 EXP SWAP1 DIV PUSH20 0xFFFFFFFFFFFFFFFFFFFFFFFFFFFFFFFFFFFFFFFF AND PUSH20 0xFFFFFFFFFFFFFFFFFFFFFFFFFFFFFFFFFFFFFFFF AND PUSH20 0xFFFFFFFFFFFFFFFFFFFFFFFFFFFFFFFFFFFFFFFF AND DUP2 MSTORE PUSH1 0x20 ADD SWAP1 DUP2 MSTORE PUSH1 0x20 ADD PUSH1 0x0 KECCAK256 SLOAD GT JUMPDEST ISZERO PUSH2 0x38EB JUMPI PUSH1 0xA SLOAD PUSH1 0x9 SLOAD SWAP5 POP SWAP5 POP POP POP POP PUSH2 0x3A47 JUMP JUMPDEST PUSH2 0x3974 PUSH1 0x3 PUSH1 0x0 PUSH1 0x8 DUP5 DUP2 SLOAD DUP2 LT PUSH2 0x38FF JUMPI INVALID JUMPDEST SWAP1 PUSH1 0x0 MSTORE PUSH1 0x20 PUSH1 0x0 KECCAK256 ADD PUSH1 0x0 SWAP1 SLOAD SWAP1 PUSH2 0x100 EXP SWAP1 DIV PUSH20 0xFFFFFFFFFFFFFFFFFFFFFFFFFFFFFFFFFFFFFFFF AND PUSH20 0xFFFFFFFFFFFFFFFFFFFFFFFFFFFFFFFFFFFFFFFF AND PUSH20 0xFFFFFFFFFFFFFFFFFFFFFFFFFFFFFFFFFFFFFFFF AND DUP2 MSTORE PUSH1 0x20 ADD SWAP1 DUP2 MSTORE PUSH1 0x20 ADD PUSH1 0x0 KECCAK256 SLOAD DUP5 PUSH2 0x32F7 SWAP1 SWAP2 SWAP1 PUSH4 0xFFFFFFFF AND JUMP JUMPDEST SWAP3 POP PUSH2 0x39FF PUSH1 0x4 PUSH1 0x0 PUSH1 0x8 DUP5 DUP2 SLOAD DUP2 LT PUSH2 0x398A JUMPI INVALID JUMPDEST SWAP1 PUSH1 0x0 MSTORE PUSH1 0x20 PUSH1 0x0 KECCAK256 ADD PUSH1 0x0 SWAP1 SLOAD SWAP1 PUSH2 0x100 EXP SWAP1 DIV PUSH20 0xFFFFFFFFFFFFFFFFFFFFFFFFFFFFFFFFFFFFFFFF AND PUSH20 0xFFFFFFFFFFFFFFFFFFFFFFFFFFFFFFFFFFFFFFFF AND PUSH20 0xFFFFFFFFFFFFFFFFFFFFFFFFFFFFFFFFFFFFFFFF AND DUP2 MSTORE PUSH1 0x20 ADD SWAP1 DUP2 MSTORE PUSH1 0x20 ADD PUSH1 0x0 KECCAK256 SLOAD DUP4 PUSH2 0x32F7 SWAP1 SWAP2 SWAP1 PUSH4 0xFFFFFFFF AND JUMP JUMPDEST SWAP2 POP DUP1 DUP1 PUSH1 0x1 ADD SWAP2 POP POP PUSH2 0x37CE JUMP JUMPDEST POP PUSH2 0x3A26 PUSH1 0x9 SLOAD PUSH1 0xA SLOAD PUSH2 0x31C9 SWAP1 SWAP2 SWAP1 PUSH4 0xFFFFFFFF AND JUMP JUMPDEST DUP3 LT ISZERO PUSH2 0x3A3E JUMPI PUSH1 0xA SLOAD PUSH1 0x9 SLOAD SWAP4 POP SWAP4 POP POP POP PUSH2 0x3A47 JUMP JUMPDEST DUP2 DUP2 SWAP4 POP SWAP4 POP POP POP JUMPDEST SWAP1 SWAP2 JUMP JUMPDEST PUSH1 0x0 DUP1 DUP4 GT DUP3 SWAP1 PUSH2 0x3AF7 JUMPI PUSH1 0x40 MLOAD PUSH32 0x8C379A000000000000000000000000000000000000000000000000000000000 DUP2 MSTORE PUSH1 0x4 ADD DUP1 DUP1 PUSH1 0x20 ADD DUP3 DUP2 SUB DUP3 MSTORE DUP4 DUP2 DUP2 MLOAD DUP2 MSTORE PUSH1 0x20 ADD SWAP2 POP DUP1 MLOAD SWAP1 PUSH1 0x20 ADD SWAP1 DUP1 DUP4 DUP4 PUSH1 0x0 JUMPDEST DUP4 DUP2 LT ISZERO PUSH2 0x3ABC JUMPI DUP1 DUP3 ADD MLOAD DUP2 DUP5 ADD MSTORE PUSH1 0x20 DUP2 ADD SWAP1 POP PUSH2 0x3AA1 JUMP JUMPDEST POP POP POP POP SWAP1 POP SWAP1 DUP2 ADD SWAP1 PUSH1 0x1F AND DUP1 ISZERO PUSH2 0x3AE9 JUMPI DUP1 DUP3 SUB DUP1 MLOAD PUSH1 0x1 DUP4 PUSH1 0x20 SUB PUSH2 0x100 EXP SUB NOT AND DUP2 MSTORE PUSH1 0x20 ADD SWAP2 POP JUMPDEST POP SWAP3 POP POP POP PUSH1 0x40 MLOAD DUP1 SWAP2 SUB SWAP1 REVERT JUMPDEST POP PUSH1 0x0 DUP4 DUP6 DUP2 PUSH2 0x3B03 JUMPI INVALID JUMPDEST DIV SWAP1 POP DUP1 SWAP2 POP POP SWAP4 SWAP3 POP POP POP JUMP JUMPDEST PUSH1 0x0 DUP1 PUSH1 0x0 DUP1 PUSH2 0x3B20 DUP6 PUSH2 0x49CA JUMP JUMPDEST SWAP1 POP PUSH1 0x0 PUSH2 0x3B2D DUP7 PUSH2 0x49FB JUMP JUMPDEST SWAP1 POP PUSH1 0x0 PUSH2 0x3B56 DUP3 PUSH2 0x3B48 DUP6 DUP11 PUSH2 0x32F7 SWAP1 SWAP2 SWAP1 PUSH4 0xFFFFFFFF AND JUMP JUMPDEST PUSH2 0x32F7 SWAP1 SWAP2 SWAP1 PUSH4 0xFFFFFFFF AND JUMP JUMPDEST SWAP1 POP DUP1 DUP4 DUP4 SWAP6 POP SWAP6 POP SWAP6 POP POP POP POP SWAP2 SWAP4 SWAP1 SWAP3 POP JUMP JUMPDEST PUSH1 0x0 DUP1 PUSH1 0x0 DUP1 PUSH2 0x3B84 DUP6 DUP10 PUSH2 0x3341 SWAP1 SWAP2 SWAP1 PUSH4 0xFFFFFFFF AND JUMP JUMPDEST SWAP1 POP PUSH1 0x0 PUSH2 0x3B9B DUP7 DUP10 PUSH2 0x3341 SWAP1 SWAP2 SWAP1 PUSH4 0xFFFFFFFF AND JUMP JUMPDEST SWAP1 POP PUSH1 0x0 PUSH2 0x3BB2 DUP8 DUP10 PUSH2 0x3341 SWAP1 SWAP2 SWAP1 PUSH4 0xFFFFFFFF AND JUMP JUMPDEST SWAP1 POP PUSH1 0x0 PUSH2 0x3BDB DUP3 PUSH2 0x3BCD DUP6 DUP8 PUSH2 0x32F7 SWAP1 SWAP2 SWAP1 PUSH4 0xFFFFFFFF AND JUMP JUMPDEST PUSH2 0x32F7 SWAP1 SWAP2 SWAP1 PUSH4 0xFFFFFFFF AND JUMP JUMPDEST SWAP1 POP DUP4 DUP2 DUP5 SWAP7 POP SWAP7 POP SWAP7 POP POP POP POP POP SWAP5 POP SWAP5 POP SWAP5 SWAP2 POP POP JUMP JUMPDEST PUSH1 0x60 PUSH1 0x2 PUSH8 0xFFFFFFFFFFFFFFFF DUP2 GT DUP1 ISZERO PUSH2 0x3C0E JUMPI PUSH1 0x0 DUP1 REVERT JUMPDEST POP PUSH1 0x40 MLOAD SWAP1 DUP1 DUP3 MSTORE DUP1 PUSH1 0x20 MUL PUSH1 0x20 ADD DUP3 ADD PUSH1 0x40 MSTORE DUP1 ISZERO PUSH2 0x3C3D JUMPI DUP2 PUSH1 0x20 ADD PUSH1 0x20 DUP3 MUL DUP1 CALLDATASIZE DUP4 CALLDATACOPY DUP1 DUP3 ADD SWAP2 POP POP SWAP1 POP JUMPDEST POP SWAP1 POP ADDRESS DUP2 PUSH1 0x0 DUP2 MLOAD DUP2 LT PUSH2 0x3C4E JUMPI INVALID JUMPDEST PUSH1 0x20 MUL PUSH1 0x20 ADD ADD SWAP1 PUSH20 0xFFFFFFFFFFFFFFFFFFFFFFFFFFFFFFFFFFFFFFFF AND SWAP1 DUP2 PUSH20 0xFFFFFFFFFFFFFFFFFFFFFFFFFFFFFFFFFFFFFFFF AND DUP2 MSTORE POP POP PUSH32 0x0 PUSH20 0xFFFFFFFFFFFFFFFFFFFFFFFFFFFFFFFFFFFFFFFF AND PUSH4 0xAD5C4648 PUSH1 0x40 MLOAD DUP2 PUSH4 0xFFFFFFFF AND PUSH1 0xE0 SHL DUP2 MSTORE PUSH1 0x4 ADD PUSH1 0x20 PUSH1 0x40 MLOAD DUP1 DUP4 SUB DUP2 DUP7 DUP1 EXTCODESIZE ISZERO DUP1 ISZERO PUSH2 0x3CEE JUMPI PUSH1 0x0 DUP1 REVERT JUMPDEST POP GAS STATICCALL ISZERO DUP1 ISZERO PUSH2 0x3D02 JUMPI RETURNDATASIZE PUSH1 0x0 DUP1 RETURNDATACOPY RETURNDATASIZE PUSH1 0x0 REVERT JUMPDEST POP POP POP POP PUSH1 0x40 MLOAD RETURNDATASIZE PUSH1 0x20 DUP2 LT ISZERO PUSH2 0x3D18 JUMPI PUSH1 0x0 DUP1 REVERT JUMPDEST DUP2 ADD SWAP1 DUP1 DUP1 MLOAD SWAP1 PUSH1 0x20 ADD SWAP1 SWAP3 SWAP2 SWAP1 POP POP POP DUP2 PUSH1 0x1 DUP2 MLOAD DUP2 LT PUSH2 0x3D36 JUMPI INVALID JUMPDEST PUSH1 0x20 MUL PUSH1 0x20 ADD ADD SWAP1 PUSH20 0xFFFFFFFFFFFFFFFFFFFFFFFFFFFFFFFFFFFFFFFF AND SWAP1 DUP2 PUSH20 0xFFFFFFFFFFFFFFFFFFFFFFFFFFFFFFFFFFFFFFFF AND DUP2 MSTORE POP POP PUSH2 0x3D9B ADDRESS PUSH32 0x0 DUP5 PUSH2 0x2B22 JUMP JUMPDEST PUSH32 0x0 PUSH20 0xFFFFFFFFFFFFFFFFFFFFFFFFFFFFFFFFFFFFFFFF AND PUSH4 0x791AC947 DUP4 PUSH1 0x0 DUP5 ADDRESS TIMESTAMP PUSH1 0x40 MLOAD DUP7 PUSH4 0xFFFFFFFF AND PUSH1 0xE0 SHL DUP2 MSTORE PUSH1 0x4 ADD DUP1 DUP7 DUP2 MSTORE PUSH1 0x20 ADD DUP6 DUP2 MSTORE PUSH1 0x20 ADD DUP1 PUSH1 0x20 ADD DUP5 PUSH20 0xFFFFFFFFFFFFFFFFFFFFFFFFFFFFFFFFFFFFFFFF AND DUP2 MSTORE PUSH1 0x20 ADD DUP4 DUP2 MSTORE PUSH1 0x20 ADD DUP3 DUP2 SUB DUP3 MSTORE DUP6 DUP2 DUP2 MLOAD DUP2 MSTORE PUSH1 0x20 ADD SWAP2 POP DUP1 MLOAD SWAP1 PUSH1 0x20 ADD SWAP1 PUSH1 0x20 MUL DUP1 DUP4 DUP4 PUSH1 0x0 JUMPDEST DUP4 DUP2 LT ISZERO PUSH2 0x3E5D JUMPI DUP1 DUP3 ADD MLOAD DUP2 DUP5 ADD MSTORE PUSH1 0x20 DUP2 ADD SWAP1 POP PUSH2 0x3E42 JUMP JUMPDEST POP POP POP POP SWAP1 POP ADD SWAP7 POP POP POP POP POP POP POP PUSH1 0x0 PUSH1 0x40 MLOAD DUP1 DUP4 SUB DUP2 PUSH1 0x0 DUP8 DUP1 EXTCODESIZE ISZERO DUP1 ISZERO PUSH2 0x3E86 JUMPI PUSH1 0x0 DUP1 REVERT JUMPDEST POP GAS CALL ISZERO DUP1 ISZERO PUSH2 0x3E9A JUMPI RETURNDATASIZE PUSH1 0x0 DUP1 RETURNDATACOPY RETURNDATASIZE PUSH1 0x0 REVERT JUMPDEST POP POP POP POP POP POP JUMP JUMPDEST PUSH2 0x3ECD ADDRESS PUSH32 0x0 DUP5 PUSH2 0x2B22 JUMP JUMPDEST PUSH32 0x0 PUSH20 0xFFFFFFFFFFFFFFFFFFFFFFFFFFFFFFFFFFFFFFFF AND PUSH4 0xF305D719 DUP3 ADDRESS DUP6 PUSH1 0x0 DUP1 PUSH2 0x3F17 PUSH2 0x1EAE JUMP JUMPDEST TIMESTAMP PUSH1 0x40 MLOAD DUP9 PUSH4 0xFFFFFFFF AND PUSH1 0xE0 SHL DUP2 MSTORE PUSH1 0x4 ADD DUP1 DUP8 PUSH20 0xFFFFFFFFFFFFFFFFFFFFFFFFFFFFFFFFFFFFFFFF AND DUP2 MSTORE PUSH1 0x20 ADD DUP7 DUP2 MSTORE PUSH1 0x20 ADD DUP6 DUP2 MSTORE PUSH1 0x20 ADD DUP5 DUP2 MSTORE PUSH1 0x20 ADD DUP4 PUSH20 0xFFFFFFFFFFFFFFFFFFFFFFFFFFFFFFFFFFFFFFFF AND DUP2 MSTORE PUSH1 0x20 ADD DUP3 DUP2 MSTORE PUSH1 0x20 ADD SWAP7 POP POP POP POP POP POP POP PUSH1 0x60 PUSH1 0x40 MLOAD DUP1 DUP4 SUB DUP2 DUP6 DUP9 DUP1 EXTCODESIZE ISZERO DUP1 ISZERO PUSH2 0x3F9C JUMPI PUSH1 0x0 DUP1 REVERT JUMPDEST POP GAS CALL ISZERO DUP1 ISZERO PUSH2 0x3FB0 JUMPI RETURNDATASIZE PUSH1 0x0 DUP1 RETURNDATACOPY RETURNDATASIZE PUSH1 0x0 REVERT JUMPDEST POP POP POP POP POP PUSH1 0x40 MLOAD RETURNDATASIZE PUSH1 0x60 DUP2 LT ISZERO PUSH2 0x3FC7 JUMPI PUSH1 0x0 DUP1 REVERT JUMPDEST DUP2 ADD SWAP1 DUP1 DUP1 MLOAD SWAP1 PUSH1 0x20 ADD SWAP1 SWAP3 SWAP2 SWAP1 DUP1 MLOAD SWAP1 PUSH1 0x20 ADD SWAP1 SWAP3 SWAP2 SWAP1 DUP1 MLOAD SWAP1 PUSH1 0x20 ADD SWAP1 SWAP3 SWAP2 SWAP1 POP POP POP POP POP POP POP POP JUMP JUMPDEST PUSH1 0x0 PUSH1 0xF SLOAD EQ DUP1 ISZERO PUSH2 0x4007 JUMPI POP PUSH1 0x0 PUSH1 0x11 SLOAD EQ JUMPDEST ISZERO PUSH2 0x4011 JUMPI PUSH2 0x4034 JUMP JUMPDEST PUSH1 0xF SLOAD PUSH1 0x10 DUP2 SWAP1 SSTORE POP PUSH1 0x11 SLOAD PUSH1 0x12 DUP2 SWAP1 SSTORE POP PUSH1 0x0 PUSH1 0xF DUP2 SWAP1 SSTORE POP PUSH1 0x0 PUSH1 0x11 DUP2 SWAP1 SSTORE POP JUMPDEST JUMP JUMPDEST PUSH1 0x0 DUP1 PUSH1 0x0 DUP1 PUSH1 0x0 DUP1 PUSH2 0x4048 DUP8 PUSH2 0x329B JUMP JUMPDEST SWAP6 POP SWAP6 POP SWAP6 POP SWAP6 POP SWAP6 POP SWAP6 POP PUSH2 0x40A6 DUP8 PUSH1 0x4 PUSH1 0x0 DUP13 PUSH20 0xFFFFFFFFFFFFFFFFFFFFFFFFFFFFFFFFFFFFFFFF AND PUSH20 0xFFFFFFFFFFFFFFFFFFFFFFFFFFFFFFFFFFFFFFFF AND DUP2 MSTORE PUSH1 0x20 ADD SWAP1 DUP2 MSTORE PUSH1 0x20 ADD PUSH1 0x0 KECCAK256 SLOAD PUSH2 0x32F7 SWAP1 SWAP2 SWAP1 PUSH4 0xFFFFFFFF AND JUMP JUMPDEST PUSH1 0x4 PUSH1 0x0 DUP12 PUSH20 0xFFFFFFFFFFFFFFFFFFFFFFFFFFFFFFFFFFFFFFFF AND PUSH20 0xFFFFFFFFFFFFFFFFFFFFFFFFFFFFFFFFFFFFFFFF AND DUP2 MSTORE PUSH1 0x20 ADD SWAP1 DUP2 MSTORE PUSH1 0x20 ADD PUSH1 0x0 KECCAK256 DUP2 SWAP1 SSTORE POP PUSH2 0x413B DUP7 PUSH1 0x3 PUSH1 0x0 DUP13 PUSH20 0xFFFFFFFFFFFFFFFFFFFFFFFFFFFFFFFFFFFFFFFF AND PUSH20 0xFFFFFFFFFFFFFFFFFFFFFFFFFFFFFFFFFFFFFFFF AND DUP2 MSTORE PUSH1 0x20 ADD SWAP1 DUP2 MSTORE PUSH1 0x20 ADD PUSH1 0x0 KECCAK256 SLOAD PUSH2 0x32F7 SWAP1 SWAP2 SWAP1 PUSH4 0xFFFFFFFF AND JUMP JUMPDEST PUSH1 0x3 PUSH1 0x0 DUP12 PUSH20 0xFFFFFFFFFFFFFFFFFFFFFFFFFFFFFFFFFFFFFFFF AND PUSH20 0xFFFFFFFFFFFFFFFFFFFFFFFFFFFFFFFFFFFFFFFF AND DUP2 MSTORE PUSH1 0x20 ADD SWAP1 DUP2 MSTORE PUSH1 0x20 ADD PUSH1 0x0 KECCAK256 DUP2 SWAP1 SSTORE POP PUSH2 0x41D0 DUP6 PUSH1 0x3 PUSH1 0x0 DUP12 PUSH20 0xFFFFFFFFFFFFFFFFFFFFFFFFFFFFFFFFFFFFFFFF AND PUSH20 0xFFFFFFFFFFFFFFFFFFFFFFFFFFFFFFFFFFFFFFFF AND DUP2 MSTORE PUSH1 0x20 ADD SWAP1 DUP2 MSTORE PUSH1 0x20 ADD PUSH1 0x0 KECCAK256 SLOAD PUSH2 0x3213 SWAP1 SWAP2 SWAP1 PUSH4 0xFFFFFFFF AND JUMP JUMPDEST PUSH1 0x3 PUSH1 0x0 DUP11 PUSH20 0xFFFFFFFFFFFFFFFFFFFFFFFFFFFFFFFFFFFFFFFF AND PUSH20 0xFFFFFFFFFFFFFFFFFFFFFFFFFFFFFFFFFFFFFFFF AND DUP2 MSTORE PUSH1 0x20 ADD SWAP1 DUP2 MSTORE PUSH1 0x20 ADD PUSH1 0x0 KECCAK256 DUP2 SWAP1 SSTORE POP PUSH2 0x421C DUP2 PUSH2 0x4A2C JUMP JUMPDEST PUSH2 0x4226 DUP5 DUP4 PUSH2 0x4BD1 JUMP JUMPDEST DUP8 PUSH20 0xFFFFFFFFFFFFFFFFFFFFFFFFFFFFFFFFFFFFFFFF AND DUP10 PUSH20 0xFFFFFFFFFFFFFFFFFFFFFFFFFFFFFFFFFFFFFFFF AND PUSH32 0xDDF252AD1BE2C89B69C2B068FC378DAA952BA7F163C4A11628F55A4DF523B3EF DUP6 PUSH1 0x40 MLOAD DUP1 DUP3 DUP2 MSTORE PUSH1 0x20 ADD SWAP2 POP POP PUSH1 0x40 MLOAD DUP1 SWAP2 SUB SWAP1 LOG3 POP POP POP POP POP POP POP POP POP JUMP JUMPDEST PUSH1 0x0 DUP1 PUSH1 0x0 DUP1 PUSH1 0x0 DUP1 PUSH2 0x42A8 DUP8 PUSH2 0x329B JUMP JUMPDEST SWAP6 POP SWAP6 POP SWAP6 POP SWAP6 POP SWAP6 POP SWAP6 POP PUSH2 0x4306 DUP7 PUSH1 0x3 PUSH1 0x0 DUP13 PUSH20 0xFFFFFFFFFFFFFFFFFFFFFFFFFFFFFFFFFFFFFFFF AND PUSH20 0xFFFFFFFFFFFFFFFFFFFFFFFFFFFFFFFFFFFFFFFF AND DUP2 MSTORE PUSH1 0x20 ADD SWAP1 DUP2 MSTORE PUSH1 0x20 ADD PUSH1 0x0 KECCAK256 SLOAD PUSH2 0x32F7 SWAP1 SWAP2 SWAP1 PUSH4 0xFFFFFFFF AND JUMP JUMPDEST PUSH1 0x3 PUSH1 0x0 DUP12 PUSH20 0xFFFFFFFFFFFFFFFFFFFFFFFFFFFFFFFFFFFFFFFF AND PUSH20 0xFFFFFFFFFFFFFFFFFFFFFFFFFFFFFFFFFFFFFFFF AND DUP2 MSTORE PUSH1 0x20 ADD SWAP1 DUP2 MSTORE PUSH1 0x20 ADD PUSH1 0x0 KECCAK256 DUP2 SWAP1 SSTORE POP PUSH2 0x439B DUP4 PUSH1 0x4 PUSH1 0x0 DUP12 PUSH20 0xFFFFFFFFFFFFFFFFFFFFFFFFFFFFFFFFFFFFFFFF AND PUSH20 0xFFFFFFFFFFFFFFFFFFFFFFFFFFFFFFFFFFFFFFFF AND DUP2 MSTORE PUSH1 0x20 ADD SWAP1 DUP2 MSTORE PUSH1 0x20 ADD PUSH1 0x0 KECCAK256 SLOAD PUSH2 0x3213 SWAP1 SWAP2 SWAP1 PUSH4 0xFFFFFFFF AND JUMP JUMPDEST PUSH1 0x4 PUSH1 0x0 DUP11 PUSH20 0xFFFFFFFFFFFFFFFFFFFFFFFFFFFFFFFFFFFFFFFF AND PUSH20 0xFFFFFFFFFFFFFFFFFFFFFFFFFFFFFFFFFFFFFFFF AND DUP2 MSTORE PUSH1 0x20 ADD SWAP1 DUP2 MSTORE PUSH1 0x20 ADD PUSH1 0x0 KECCAK256 DUP2 SWAP1 SSTORE POP PUSH2 0x4430 DUP6 PUSH1 0x3 PUSH1 0x0 DUP12 PUSH20 0xFFFFFFFFFFFFFFFFFFFFFFFFFFFFFFFFFFFFFFFF AND PUSH20 0xFFFFFFFFFFFFFFFFFFFFFFFFFFFFFFFFFFFFFFFF AND DUP2 MSTORE PUSH1 0x20 ADD SWAP1 DUP2 MSTORE PUSH1 0x20 ADD PUSH1 0x0 KECCAK256 SLOAD PUSH2 0x3213 SWAP1 SWAP2 SWAP1 PUSH4 0xFFFFFFFF AND JUMP JUMPDEST PUSH1 0x3 PUSH1 0x0 DUP11 PUSH20 0xFFFFFFFFFFFFFFFFFFFFFFFFFFFFFFFFFFFFFFFF AND PUSH20 0xFFFFFFFFFFFFFFFFFFFFFFFFFFFFFFFFFFFFFFFF AND DUP2 MSTORE PUSH1 0x20 ADD SWAP1 DUP2 MSTORE PUSH1 0x20 ADD PUSH1 0x0 KECCAK256 DUP2 SWAP1 SSTORE POP PUSH2 0x447C DUP2 PUSH2 0x4A2C JUMP JUMPDEST PUSH2 0x4486 DUP5 DUP4 PUSH2 0x4BD1 JUMP JUMPDEST DUP8 PUSH20 0xFFFFFFFFFFFFFFFFFFFFFFFFFFFFFFFFFFFFFFFF AND DUP10 PUSH20 0xFFFFFFFFFFFFFFFFFFFFFFFFFFFFFFFFFFFFFFFF AND PUSH32 0xDDF252AD1BE2C89B69C2B068FC378DAA952BA7F163C4A11628F55A4DF523B3EF DUP6 PUSH1 0x40 MLOAD DUP1 DUP3 DUP2 MSTORE PUSH1 0x20 ADD SWAP2 POP POP PUSH1 0x40 MLOAD DUP1 SWAP2 SUB SWAP1 LOG3 POP POP POP POP POP POP POP POP POP JUMP JUMPDEST PUSH1 0x0 DUP1 PUSH1 0x0 DUP1 PUSH1 0x0 DUP1 PUSH2 0x4508 DUP8 PUSH2 0x329B JUMP JUMPDEST SWAP6 POP SWAP6 POP SWAP6 POP SWAP6 POP SWAP6 POP SWAP6 POP PUSH2 0x4566 DUP7 PUSH1 0x3 PUSH1 0x0 DUP13 PUSH20 0xFFFFFFFFFFFFFFFFFFFFFFFFFFFFFFFFFFFFFFFF AND PUSH20 0xFFFFFFFFFFFFFFFFFFFFFFFFFFFFFFFFFFFFFFFF AND DUP2 MSTORE PUSH1 0x20 ADD SWAP1 DUP2 MSTORE PUSH1 0x20 ADD PUSH1 0x0 KECCAK256 SLOAD PUSH2 0x32F7 SWAP1 SWAP2 SWAP1 PUSH4 0xFFFFFFFF AND JUMP JUMPDEST PUSH1 0x3 PUSH1 0x0 DUP12 PUSH20 0xFFFFFFFFFFFFFFFFFFFFFFFFFFFFFFFFFFFFFFFF AND PUSH20 0xFFFFFFFFFFFFFFFFFFFFFFFFFFFFFFFFFFFFFFFF AND DUP2 MSTORE PUSH1 0x20 ADD SWAP1 DUP2 MSTORE PUSH1 0x20 ADD PUSH1 0x0 KECCAK256 DUP2 SWAP1 SSTORE POP PUSH2 0x45FB DUP6 PUSH1 0x3 PUSH1 0x0 DUP12 PUSH20 0xFFFFFFFFFFFFFFFFFFFFFFFFFFFFFFFFFFFFFFFF AND PUSH20 0xFFFFFFFFFFFFFFFFFFFFFFFFFFFFFFFFFFFFFFFF AND DUP2 MSTORE PUSH1 0x20 ADD SWAP1 DUP2 MSTORE PUSH1 0x20 ADD PUSH1 0x0 KECCAK256 SLOAD PUSH2 0x3213 SWAP1 SWAP2 SWAP1 PUSH4 0xFFFFFFFF AND JUMP JUMPDEST PUSH1 0x3 PUSH1 0x0 DUP11 PUSH20 0xFFFFFFFFFFFFFFFFFFFFFFFFFFFFFFFFFFFFFFFF AND PUSH20 0xFFFFFFFFFFFFFFFFFFFFFFFFFFFFFFFFFFFFFFFF AND DUP2 MSTORE PUSH1 0x20 ADD SWAP1 DUP2 MSTORE PUSH1 0x20 ADD PUSH1 0x0 KECCAK256 DUP2 SWAP1 SSTORE POP PUSH2 0x4647 DUP2 PUSH2 0x4A2C JUMP JUMPDEST PUSH2 0x4651 DUP5 DUP4 PUSH2 0x4BD1 JUMP JUMPDEST DUP8 PUSH20 0xFFFFFFFFFFFFFFFFFFFFFFFFFFFFFFFFFFFFFFFF AND DUP10 PUSH20 0xFFFFFFFFFFFFFFFFFFFFFFFFFFFFFFFFFFFFFFFF AND PUSH32 0xDDF252AD1BE2C89B69C2B068FC378DAA952BA7F163C4A11628F55A4DF523B3EF DUP6 PUSH1 0x40 MLOAD DUP1 DUP3 DUP2 MSTORE PUSH1 0x20 ADD SWAP2 POP POP PUSH1 0x40 MLOAD DUP1 SWAP2 SUB SWAP1 LOG3 POP POP POP POP POP POP POP POP POP JUMP JUMPDEST PUSH1 0x0 DUP1 PUSH1 0x0 DUP1 PUSH1 0x0 DUP1 PUSH2 0x46D3 DUP8 PUSH2 0x329B JUMP JUMPDEST SWAP6 POP SWAP6 POP SWAP6 POP SWAP6 POP SWAP6 POP SWAP6 POP PUSH2 0x4731 DUP8 PUSH1 0x4 PUSH1 0x0 DUP13 PUSH20 0xFFFFFFFFFFFFFFFFFFFFFFFFFFFFFFFFFFFFFFFF AND PUSH20 0xFFFFFFFFFFFFFFFFFFFFFFFFFFFFFFFFFFFFFFFF AND DUP2 MSTORE PUSH1 0x20 ADD SWAP1 DUP2 MSTORE PUSH1 0x20 ADD PUSH1 0x0 KECCAK256 SLOAD PUSH2 0x32F7 SWAP1 SWAP2 SWAP1 PUSH4 0xFFFFFFFF AND JUMP JUMPDEST PUSH1 0x4 PUSH1 0x0 DUP12 PUSH20 0xFFFFFFFFFFFFFFFFFFFFFFFFFFFFFFFFFFFFFFFF AND PUSH20 0xFFFFFFFFFFFFFFFFFFFFFFFFFFFFFFFFFFFFFFFF AND DUP2 MSTORE PUSH1 0x20 ADD SWAP1 DUP2 MSTORE PUSH1 0x20 ADD PUSH1 0x0 KECCAK256 DUP2 SWAP1 SSTORE POP PUSH2 0x47C6 DUP7 PUSH1 0x3 PUSH1 0x0 DUP13 PUSH20 0xFFFFFFFFFFFFFFFFFFFFFFFFFFFFFFFFFFFFFFFF AND PUSH20 0xFFFFFFFFFFFFFFFFFFFFFFFFFFFFFFFFFFFFFFFF AND DUP2 MSTORE PUSH1 0x20 ADD SWAP1 DUP2 MSTORE PUSH1 0x20 ADD PUSH1 0x0 KECCAK256 SLOAD PUSH2 0x32F7 SWAP1 SWAP2 SWAP1 PUSH4 0xFFFFFFFF AND JUMP JUMPDEST PUSH1 0x3 PUSH1 0x0 DUP12 PUSH20 0xFFFFFFFFFFFFFFFFFFFFFFFFFFFFFFFFFFFFFFFF AND PUSH20 0xFFFFFFFFFFFFFFFFFFFFFFFFFFFFFFFFFFFFFFFF AND DUP2 MSTORE PUSH1 0x20 ADD SWAP1 DUP2 MSTORE PUSH1 0x20 ADD PUSH1 0x0 KECCAK256 DUP2 SWAP1 SSTORE POP PUSH2 0x485B DUP4 PUSH1 0x4 PUSH1 0x0 DUP12 PUSH20 0xFFFFFFFFFFFFFFFFFFFFFFFFFFFFFFFFFFFFFFFF AND PUSH20 0xFFFFFFFFFFFFFFFFFFFFFFFFFFFFFFFFFFFFFFFF AND DUP2 MSTORE PUSH1 0x20 ADD SWAP1 DUP2 MSTORE PUSH1 0x20 ADD PUSH1 0x0 KECCAK256 SLOAD PUSH2 0x3213 SWAP1 SWAP2 SWAP1 PUSH4 0xFFFFFFFF AND JUMP JUMPDEST PUSH1 0x4 PUSH1 0x0 DUP11 PUSH20 0xFFFFFFFFFFFFFFFFFFFFFFFFFFFFFFFFFFFFFFFF AND PUSH20 0xFFFFFFFFFFFFFFFFFFFFFFFFFFFFFFFFFFFFFFFF AND DUP2 MSTORE PUSH1 0x20 ADD SWAP1 DUP2 MSTORE PUSH1 0x20 ADD PUSH1 0x0 KECCAK256 DUP2 SWAP1 SSTORE POP PUSH2 0x48F0 DUP6 PUSH1 0x3 PUSH1 0x0 DUP12 PUSH20 0xFFFFFFFFFFFFFFFFFFFFFFFFFFFFFFFFFFFFFFFF AND PUSH20 0xFFFFFFFFFFFFFFFFFFFFFFFFFFFFFFFFFFFFFFFF AND DUP2 MSTORE PUSH1 0x20 ADD SWAP1 DUP2 MSTORE PUSH1 0x20 ADD PUSH1 0x0 KECCAK256 SLOAD PUSH2 0x3213 SWAP1 SWAP2 SWAP1 PUSH4 0xFFFFFFFF AND JUMP JUMPDEST PUSH1 0x3 PUSH1 0x0 DUP11 PUSH20 0xFFFFFFFFFFFFFFFFFFFFFFFFFFFFFFFFFFFFFFFF AND PUSH20 0xFFFFFFFFFFFFFFFFFFFFFFFFFFFFFFFFFFFFFFFF AND DUP2 MSTORE PUSH1 0x20 ADD SWAP1 DUP2 MSTORE PUSH1 0x20 ADD PUSH1 0x0 KECCAK256 DUP2 SWAP1 SSTORE POP PUSH2 0x493C DUP2 PUSH2 0x4A2C JUMP JUMPDEST PUSH2 0x4946 DUP5 DUP4 PUSH2 0x4BD1 JUMP JUMPDEST DUP8 PUSH20 0xFFFFFFFFFFFFFFFFFFFFFFFFFFFFFFFFFFFFFFFF AND DUP10 PUSH20 0xFFFFFFFFFFFFFFFFFFFFFFFFFFFFFFFFFFFFFFFF AND PUSH32 0xDDF252AD1BE2C89B69C2B068FC378DAA952BA7F163C4A11628F55A4DF523B3EF DUP6 PUSH1 0x40 MLOAD DUP1 DUP3 DUP2 MSTORE PUSH1 0x20 ADD SWAP2 POP POP PUSH1 0x40 MLOAD DUP1 SWAP2 SUB SWAP1 LOG3 POP POP POP POP POP POP POP POP POP JUMP JUMPDEST PUSH1 0x10 SLOAD PUSH1 0xF DUP2 SWAP1 SSTORE POP PUSH1 0x12 SLOAD PUSH1 0x11 DUP2 SWAP1 SSTORE POP JUMP JUMPDEST PUSH1 0x0 PUSH2 0x49F4 PUSH1 0x64 PUSH2 0x49E6 PUSH1 0xF SLOAD DUP6 PUSH2 0x3341 SWAP1 SWAP2 SWAP1 PUSH4 0xFFFFFFFF AND JUMP JUMPDEST PUSH2 0x31C9 SWAP1 SWAP2 SWAP1 PUSH4 0xFFFFFFFF AND JUMP JUMPDEST SWAP1 POP SWAP2 SWAP1 POP JUMP JUMPDEST PUSH1 0x0 PUSH2 0x4A25 PUSH1 0x64 PUSH2 0x4A17 PUSH1 0x11 SLOAD DUP6 PUSH2 0x3341 SWAP1 SWAP2 SWAP1 PUSH4 0xFFFFFFFF AND JUMP JUMPDEST PUSH2 0x31C9 SWAP1 SWAP2 SWAP1 PUSH4 0xFFFFFFFF AND JUMP JUMPDEST SWAP1 POP SWAP2 SWAP1 POP JUMP JUMPDEST PUSH1 0x0 PUSH2 0x4A36 PUSH2 0x319E JUMP JUMPDEST SWAP1 POP PUSH1 0x0 PUSH2 0x4A4D DUP3 DUP5 PUSH2 0x3341 SWAP1 SWAP2 SWAP1 PUSH4 0xFFFFFFFF AND JUMP JUMPDEST SWAP1 POP PUSH2 0x4AA1 DUP2 PUSH1 0x3 PUSH1 0x0 ADDRESS PUSH20 0xFFFFFFFFFFFFFFFFFFFFFFFFFFFFFFFFFFFFFFFF AND PUSH20 0xFFFFFFFFFFFFFFFFFFFFFFFFFFFFFFFFFFFFFFFF AND DUP2 MSTORE PUSH1 0x20 ADD SWAP1 DUP2 MSTORE PUSH1 0x20 ADD PUSH1 0x0 KECCAK256 SLOAD PUSH2 0x3213 SWAP1 SWAP2 SWAP1 PUSH4 0xFFFFFFFF AND JUMP JUMPDEST PUSH1 0x3 PUSH1 0x0 ADDRESS PUSH20 0xFFFFFFFFFFFFFFFFFFFFFFFFFFFFFFFFFFFFFFFF AND PUSH20 0xFFFFFFFFFFFFFFFFFFFFFFFFFFFFFFFFFFFFFFFF AND DUP2 MSTORE PUSH1 0x20 ADD SWAP1 DUP2 MSTORE PUSH1 0x20 ADD PUSH1 0x0 KECCAK256 DUP2 SWAP1 SSTORE POP PUSH1 0x7 PUSH1 0x0 ADDRESS PUSH20 0xFFFFFFFFFFFFFFFFFFFFFFFFFFFFFFFFFFFFFFFF AND PUSH20 0xFFFFFFFFFFFFFFFFFFFFFFFFFFFFFFFFFFFFFFFF AND DUP2 MSTORE PUSH1 0x20 ADD SWAP1 DUP2 MSTORE PUSH1 0x20 ADD PUSH1 0x0 KECCAK256 PUSH1 0x0 SWAP1 SLOAD SWAP1 PUSH2 0x100 EXP SWAP1 DIV PUSH1 0xFF AND ISZERO PUSH2 0x4BCC JUMPI PUSH2 0x4B88 DUP4 PUSH1 0x4 PUSH1 0x0 ADDRESS PUSH20 0xFFFFFFFFFFFFFFFFFFFFFFFFFFFFFFFFFFFFFFFF AND PUSH20 0xFFFFFFFFFFFFFFFFFFFFFFFFFFFFFFFFFFFFFFFF AND DUP2 MSTORE PUSH1 0x20 ADD SWAP1 DUP2 MSTORE PUSH1 0x20 ADD PUSH1 0x0 KECCAK256 SLOAD PUSH2 0x3213 SWAP1 SWAP2 SWAP1 PUSH4 0xFFFFFFFF AND JUMP JUMPDEST PUSH1 0x4 PUSH1 0x0 ADDRESS PUSH20 0xFFFFFFFFFFFFFFFFFFFFFFFFFFFFFFFFFFFFFFFF AND PUSH20 0xFFFFFFFFFFFFFFFFFFFFFFFFFFFFFFFFFFFFFFFF AND DUP2 MSTORE PUSH1 0x20 ADD SWAP1 DUP2 MSTORE PUSH1 0x20 ADD PUSH1 0x0 KECCAK256 DUP2 SWAP1 SSTORE POP JUMPDEST POP POP POP JUMP JUMPDEST PUSH2 0x4BE6 DUP3 PUSH1 0xA SLOAD PUSH2 0x32F7 SWAP1 SWAP2 SWAP1 PUSH4 0xFFFFFFFF AND JUMP JUMPDEST PUSH1 0xA DUP2 SWAP1 SSTORE POP PUSH2 0x4C01 DUP2 PUSH1 0xB SLOAD PUSH2 0x3213 SWAP1 SWAP2 SWAP1 PUSH4 0xFFFFFFFF AND JUMP JUMPDEST PUSH1 0xB DUP2 SWAP1 SSTORE POP POP POP JUMP INVALID GASLIMIT MSTORE NUMBER ORIGIN ADDRESS GASPRICE KECCAK256 PUSH21 0x72616E7366657220746F20746865207A65726F2061 PUSH5 0x6472657373 COINBASE PUSH14 0x6F756E74206D757374206265206C PUSH6 0x737320746861 PUSH15 0x20746F74616C207265666C65637469 PUSH16 0x6E734F776E61626C653A206E6577206F PUSH24 0x6E657220697320746865207A65726F206164647265737345 MSTORE NUMBER ORIGIN ADDRESS GASPRICE KECCAK256 PUSH2 0x7070 PUSH19 0x6F766520746F20746865207A65726F20616464 PUSH19 0x6573735472616E7366657220616D6F756E7420 PUSH6 0x786365656473 KECCAK256 PUSH21 0x6865206D61785478416D6F756E742E536166654D61 PUSH21 0x683A206D756C7469706C69636174696F6E206F7665 PUSH19 0x666C6F7745524332303A207472616E73666572 KECCAK256 PUSH2 0x6D6F PUSH22 0x6E74206578636565647320616C6C6F77616E63655472 PUSH2 0x6E73 PUSH7 0x657220616D6F75 PUSH15 0x74206D757374206265206772656174 PUSH6 0x72207468616E KECCAK256 PUSH27 0x65726F45524332303A207472616E736665722066726F6D20746865 KECCAK256 PUSH27 0x65726F206164647265737345524332303A20617070726F76652066 PUSH19 0x6F6D20746865207A65726F2061646472657373 GASLIMIT PUSH25 0x636C75646564206164647265737365732063616E6E6F742063 PUSH2 0x6C6C KECCAK256 PUSH21 0x6869732066756E6374696F6E596F7520646F6E2774 KECCAK256 PUSH9 0x617665207065726D69 PUSH20 0x73696F6E20746F20756E6C6F636B45524332303A KECCAK256 PUSH5 0x6563726561 PUSH20 0x656420616C6C6F77616E63652062656C6F77207A PUSH6 0x726FA2646970 PUSH7 0x7358221220B28F GAS DUP6 0x49 0xDA EXTCODECOPY MUL DUP7 0x4C STATICCALL 0xE PUSH7 0x98819D4EE00F94 BALANCE SWAP12 0x5F 0xDA TIMESTAMP CALLCODE RETURN 0xC4 0xDB LOG2 SMOD CALLER PUSH5 0x736F6C6343 STOP MOD 0xC STOP CALLER "
				},
				"gasEstimates": {
					"creation": {
						"codeDepositCost": "4002600",
						"executionCost": "infinite",
						"totalCost": "infinite"
					},
					"external": {
						"_liquidityFee()": "1073",
						"_maxTxAmount()": "1050",
						"_taxFee()": "1095",
						"allowance(address,address)": "1409",
						"approve(address,uint256)": "infinite",
						"balanceOf(address)": "infinite",
						"decimals()": "1189",
						"decreaseAllowance(address,uint256)": "infinite",
						"deliver(uint256)": "infinite",
						"excludeFromFee(address)": "22138",
						"excludeFromReward(address)": "infinite",
						"geUnlockTime()": "1124",
						"includeInFee(address)": "22203",
						"includeInReward(address)": "infinite",
						"increaseAllowance(address,uint256)": "infinite",
						"isExcludedFromFee(address)": "1284",
						"isExcludedFromReward(address)": "1305",
						"lock(uint256)": "66160",
						"name()": "infinite",
						"owner()": "1144",
						"reflectionFromToken(uint256,bool)": "infinite",
						"renounceOwnership()": "24403",
						"setLiquidityFeePercent(uint256)": "21255",
						"setMaxTxPercent(uint256)": "infinite",
						"setSwapAndLiquifyEnabled(bool)": "23259",
						"setTaxFeePercent(uint256)": "21191",
						"swapAndLiquifyEnabled()": "1208",
						"symbol()": "infinite",
						"tokenFromReflection(uint256)": "infinite",
						"totalFees()": "1126",
						"totalSupply()": "1081",
						"transfer(address,uint256)": "infinite",
						"transferFrom(address,address,uint256)": "infinite",
						"transferOwnership(address)": "infinite",
						"uniswapV2Pair()": "infinite",
						"uniswapV2Router()": "infinite",
						"unlock()": "infinite"
					},
					"internal": {
						"_approve(address,address,uint256)": "infinite",
						"_getCurrentSupply()": "infinite",
						"_getRValues(uint256,uint256,uint256,uint256)": "infinite",
						"_getRate()": "infinite",
						"_getTValues(uint256)": "infinite",
						"_getValues(uint256)": "infinite",
						"_reflectFee(uint256,uint256)": "infinite",
						"_takeLiquidity(uint256)": "infinite",
						"_tokenTransfer(address,address,uint256,bool)": "infinite",
						"_transfer(address,address,uint256)": "infinite",
						"_transferBothExcluded(address,address,uint256)": "infinite",
						"_transferFromExcluded(address,address,uint256)": "infinite",
						"_transferStandard(address,address,uint256)": "infinite",
						"_transferToExcluded(address,address,uint256)": "infinite",
						"addLiquidity(uint256,uint256)": "infinite",
						"calculateLiquidityFee(uint256)": "infinite",
						"calculateTaxFee(uint256)": "infinite",
						"removeAllFee()": "53323",
						"restoreAllFee()": "41637",
						"swapAndLiquify(uint256)": "infinite",
						"swapTokensForEth(uint256)": "infinite"
					}
				},
				"methodIdentifiers": {
					"_liquidityFee()": "6bc87c3a",
					"_maxTxAmount()": "7d1db4a5",
					"_taxFee()": "3b124fe7",
					"allowance(address,address)": "dd62ed3e",
					"approve(address,uint256)": "095ea7b3",
					"balanceOf(address)": "70a08231",
					"decimals()": "313ce567",
					"decreaseAllowance(address,uint256)": "a457c2d7",
					"deliver(uint256)": "3bd5d173",
					"excludeFromFee(address)": "437823ec",
					"excludeFromReward(address)": "52390c02",
					"geUnlockTime()": "b6c52324",
					"includeInFee(address)": "ea2f0b37",
					"includeInReward(address)": "3685d419",
					"increaseAllowance(address,uint256)": "39509351",
					"isExcludedFromFee(address)": "5342acb4",
					"isExcludedFromReward(address)": "88f82020",
					"lock(uint256)": "dd467064",
					"name()": "06fdde03",
					"owner()": "8da5cb5b",
					"reflectionFromToken(uint256,bool)": "4549b039",
					"renounceOwnership()": "715018a6",
					"setLiquidityFeePercent(uint256)": "8ee88c53",
					"setMaxTxPercent(uint256)": "d543dbeb",
					"setSwapAndLiquifyEnabled(bool)": "c49b9a80",
					"setTaxFeePercent(uint256)": "061c82d0",
					"swapAndLiquifyEnabled()": "4a74bb02",
					"symbol()": "95d89b41",
					"tokenFromReflection(uint256)": "2d838119",
					"totalFees()": "13114a9d",
					"totalSupply()": "18160ddd",
					"transfer(address,uint256)": "a9059cbb",
					"transferFrom(address,address,uint256)": "23b872dd",
					"transferOwnership(address)": "f2fde38b",
					"uniswapV2Pair()": "49bd5a5e",
					"uniswapV2Router()": "1694505e",
					"unlock()": "a69df4b5"
				}
			},
			"storageLayout": {
				"storage": [
					{
						"astId": 497,
						"contract": "contracts/Pool/Pool.sol:SafeMoon",
						"label": "_owner",
						"offset": 0,
						"slot": "0",
						"type": "t_address"
					},
					{
						"astId": 499,
						"contract": "contracts/Pool/Pool.sol:SafeMoon",
						"label": "_previousOwner",
						"offset": 0,
						"slot": "1",
						"type": "t_address"
					},
					{
						"astId": 501,
						"contract": "contracts/Pool/Pool.sol:SafeMoon",
						"label": "_lockTime",
						"offset": 0,
						"slot": "2",
						"type": "t_uint256"
					},
					{
						"astId": 1379,
						"contract": "contracts/Pool/Pool.sol:SafeMoon",
						"label": "_rOwned",
						"offset": 0,
						"slot": "3",
						"type": "t_mapping(t_address,t_uint256)"
					},
					{
						"astId": 1383,
						"contract": "contracts/Pool/Pool.sol:SafeMoon",
						"label": "_tOwned",
						"offset": 0,
						"slot": "4",
						"type": "t_mapping(t_address,t_uint256)"
					},
					{
						"astId": 1389,
						"contract": "contracts/Pool/Pool.sol:SafeMoon",
						"label": "_allowances",
						"offset": 0,
						"slot": "5",
						"type": "t_mapping(t_address,t_mapping(t_address,t_uint256))"
					},
					{
						"astId": 1393,
						"contract": "contracts/Pool/Pool.sol:SafeMoon",
						"label": "_isExcludedFromFee",
						"offset": 0,
						"slot": "6",
						"type": "t_mapping(t_address,t_bool)"
					},
					{
						"astId": 1397,
						"contract": "contracts/Pool/Pool.sol:SafeMoon",
						"label": "_isExcluded",
						"offset": 0,
						"slot": "7",
						"type": "t_mapping(t_address,t_bool)"
					},
					{
						"astId": 1400,
						"contract": "contracts/Pool/Pool.sol:SafeMoon",
						"label": "_excluded",
						"offset": 0,
						"slot": "8",
						"type": "t_array(t_address)dyn_storage"
					},
					{
						"astId": 1418,
						"contract": "contracts/Pool/Pool.sol:SafeMoon",
						"label": "_tTotal",
						"offset": 0,
						"slot": "9",
						"type": "t_uint256"
					},
					{
						"astId": 1427,
						"contract": "contracts/Pool/Pool.sol:SafeMoon",
						"label": "_rTotal",
						"offset": 0,
						"slot": "10",
						"type": "t_uint256"
					},
					{
						"astId": 1429,
						"contract": "contracts/Pool/Pool.sol:SafeMoon",
						"label": "_tFeeTotal",
						"offset": 0,
						"slot": "11",
						"type": "t_uint256"
					},
					{
						"astId": 1432,
						"contract": "contracts/Pool/Pool.sol:SafeMoon",
						"label": "_name",
						"offset": 0,
						"slot": "12",
						"type": "t_string_storage"
					},
					{
						"astId": 1435,
						"contract": "contracts/Pool/Pool.sol:SafeMoon",
						"label": "_symbol",
						"offset": 0,
						"slot": "13",
						"type": "t_string_storage"
					},
					{
						"astId": 1438,
						"contract": "contracts/Pool/Pool.sol:SafeMoon",
						"label": "_decimals",
						"offset": 0,
						"slot": "14",
						"type": "t_uint8"
					},
					{
						"astId": 1441,
						"contract": "contracts/Pool/Pool.sol:SafeMoon",
						"label": "_taxFee",
						"offset": 0,
						"slot": "15",
						"type": "t_uint256"
					},
					{
						"astId": 1444,
						"contract": "contracts/Pool/Pool.sol:SafeMoon",
						"label": "_previousTaxFee",
						"offset": 0,
						"slot": "16",
						"type": "t_uint256"
					},
					{
						"astId": 1447,
						"contract": "contracts/Pool/Pool.sol:SafeMoon",
						"label": "_liquidityFee",
						"offset": 0,
						"slot": "17",
						"type": "t_uint256"
					},
					{
						"astId": 1450,
						"contract": "contracts/Pool/Pool.sol:SafeMoon",
						"label": "_previousLiquidityFee",
						"offset": 0,
						"slot": "18",
						"type": "t_uint256"
					},
					{
						"astId": 1456,
						"contract": "contracts/Pool/Pool.sol:SafeMoon",
						"label": "inSwapAndLiquify",
						"offset": 0,
						"slot": "19",
						"type": "t_bool"
					},
					{
						"astId": 1459,
						"contract": "contracts/Pool/Pool.sol:SafeMoon",
						"label": "swapAndLiquifyEnabled",
						"offset": 1,
						"slot": "19",
						"type": "t_bool"
					},
					{
						"astId": 1470,
						"contract": "contracts/Pool/Pool.sol:SafeMoon",
						"label": "_maxTxAmount",
						"offset": 0,
						"slot": "20",
						"type": "t_uint256"
					},
					{
						"astId": 1481,
						"contract": "contracts/Pool/Pool.sol:SafeMoon",
						"label": "numTokensSellToAddToLiquidity",
						"offset": 0,
						"slot": "21",
						"type": "t_uint256"
					}
				],
				"types": {
					"t_address": {
						"encoding": "inplace",
						"label": "address",
						"numberOfBytes": "20"
					},
					"t_array(t_address)dyn_storage": {
						"base": "t_address",
						"encoding": "dynamic_array",
						"label": "address[]",
						"numberOfBytes": "32"
					},
					"t_bool": {
						"encoding": "inplace",
						"label": "bool",
						"numberOfBytes": "1"
					},
					"t_mapping(t_address,t_bool)": {
						"encoding": "mapping",
						"key": "t_address",
						"label": "mapping(address => bool)",
						"numberOfBytes": "32",
						"value": "t_bool"
					},
					"t_mapping(t_address,t_mapping(t_address,t_uint256))": {
						"encoding": "mapping",
						"key": "t_address",
						"label": "mapping(address => mapping(address => uint256))",
						"numberOfBytes": "32",
						"value": "t_mapping(t_address,t_uint256)"
					},
					"t_mapping(t_address,t_uint256)": {
						"encoding": "mapping",
						"key": "t_address",
						"label": "mapping(address => uint256)",
						"numberOfBytes": "32",
						"value": "t_uint256"
					},
					"t_string_storage": {
						"encoding": "bytes",
						"label": "string",
						"numberOfBytes": "32"
					},
					"t_uint256": {
						"encoding": "inplace",
						"label": "uint256",
						"numberOfBytes": "32"
					},
					"t_uint8": {
						"encoding": "inplace",
						"label": "uint8",
						"numberOfBytes": "1"
					}
				}
			},
			"userdoc": {
				"kind": "user",
				"methods": {},
				"version": 1
			}
		}
	}
}