{
	"contracts/Pool/Pool.sol": {
		"World_Step": {
			"abi": [
				{
					"inputs": [],
					"stateMutability": "nonpayable",
					"type": "constructor"
				},
				{
					"anonymous": false,
					"inputs": [
						{
							"indexed": true,
							"internalType": "address",
							"name": "owner",
							"type": "address"
						},
						{
							"indexed": true,
							"internalType": "address",
							"name": "spender",
							"type": "address"
						},
						{
							"indexed": false,
							"internalType": "uint256",
							"name": "value",
							"type": "uint256"
						}
					],
					"name": "Approval",
					"type": "event"
				},
				{
					"anonymous": false,
					"inputs": [
						{
							"indexed": true,
							"internalType": "address",
							"name": "previousOwner",
							"type": "address"
						},
						{
							"indexed": true,
							"internalType": "address",
							"name": "newOwner",
							"type": "address"
						}
					],
					"name": "OwnershipTransferred",
					"type": "event"
				},
				{
					"anonymous": false,
					"inputs": [
						{
							"indexed": true,
							"internalType": "address",
							"name": "from",
							"type": "address"
						},
						{
							"indexed": true,
							"internalType": "address",
							"name": "to",
							"type": "address"
						},
						{
							"indexed": false,
							"internalType": "uint256",
							"name": "value",
							"type": "uint256"
						}
					],
					"name": "Transfer",
					"type": "event"
				},
				{
					"anonymous": false,
					"inputs": [
						{
							"indexed": true,
							"internalType": "address",
							"name": "previous",
							"type": "address"
						},
						{
							"indexed": true,
							"internalType": "address",
							"name": "adr",
							"type": "address"
						}
					],
					"name": "devAddressUpdated",
					"type": "event"
				},
				{
					"anonymous": false,
					"inputs": [
						{
							"indexed": true,
							"internalType": "address",
							"name": "previous",
							"type": "address"
						},
						{
							"indexed": true,
							"internalType": "address",
							"name": "adr",
							"type": "address"
						}
					],
					"name": "marketingAddressUpdated",
					"type": "event"
				},
				{
					"anonymous": false,
					"inputs": [
						{
							"indexed": true,
							"internalType": "address",
							"name": "token",
							"type": "address"
						},
						{
							"indexed": true,
							"internalType": "address",
							"name": "to",
							"type": "address"
						},
						{
							"indexed": false,
							"internalType": "uint256",
							"name": "amount",
							"type": "uint256"
						}
					],
					"name": "tokensRescued",
					"type": "event"
				},
				{
					"inputs": [
						{
							"internalType": "address",
							"name": "owner",
							"type": "address"
						},
						{
							"internalType": "address",
							"name": "spender",
							"type": "address"
						}
					],
					"name": "allowance",
					"outputs": [
						{
							"internalType": "uint256",
							"name": "",
							"type": "uint256"
						}
					],
					"stateMutability": "view",
					"type": "function"
				},
				{
					"inputs": [
						{
							"internalType": "address",
							"name": "spender",
							"type": "address"
						},
						{
							"internalType": "uint256",
							"name": "amount",
							"type": "uint256"
						}
					],
					"name": "approve",
					"outputs": [
						{
							"internalType": "bool",
							"name": "",
							"type": "bool"
						}
					],
					"stateMutability": "nonpayable",
					"type": "function"
				},
				{
					"inputs": [
						{
							"internalType": "address",
							"name": "account",
							"type": "address"
						}
					],
					"name": "balanceOf",
					"outputs": [
						{
							"internalType": "uint256",
							"name": "",
							"type": "uint256"
						}
					],
					"stateMutability": "view",
					"type": "function"
				},
				{
					"inputs": [],
					"name": "decimals",
					"outputs": [
						{
							"internalType": "uint8",
							"name": "",
							"type": "uint8"
						}
					],
					"stateMutability": "pure",
					"type": "function"
				},
				{
					"inputs": [
						{
							"internalType": "address[]",
							"name": "accounts",
							"type": "address[]"
						},
						{
							"internalType": "bool",
							"name": "excluded",
							"type": "bool"
						}
					],
					"name": "excludeMultipleAccountsFromFees",
					"outputs": [],
					"stateMutability": "nonpayable",
					"type": "function"
				},
				{
					"inputs": [],
					"name": "manualsend",
					"outputs": [],
					"stateMutability": "nonpayable",
					"type": "function"
				},
				{
					"inputs": [],
					"name": "manualswap",
					"outputs": [],
					"stateMutability": "nonpayable",
					"type": "function"
				},
				{
					"inputs": [],
					"name": "name",
					"outputs": [
						{
							"internalType": "string",
							"name": "",
							"type": "string"
						}
					],
					"stateMutability": "pure",
					"type": "function"
				},
				{
					"inputs": [],
					"name": "owner",
					"outputs": [
						{
							"internalType": "address",
							"name": "",
							"type": "address"
						}
					],
					"stateMutability": "view",
					"type": "function"
				},
				{
					"inputs": [],
					"name": "renounceOwnership",
					"outputs": [],
					"stateMutability": "nonpayable",
					"type": "function"
				},
				{
					"inputs": [
						{
							"internalType": "address",
							"name": "_tokenAddr",
							"type": "address"
						},
						{
							"internalType": "address",
							"name": "_to",
							"type": "address"
						},
						{
							"internalType": "uint256",
							"name": "_amount",
							"type": "uint256"
						}
					],
					"name": "rescueForeignTokens",
					"outputs": [],
					"stateMutability": "nonpayable",
					"type": "function"
				},
				{
					"inputs": [
						{
							"internalType": "uint256",
							"name": "redisFeeOnBuy",
							"type": "uint256"
						},
						{
							"internalType": "uint256",
							"name": "redisFeeOnSell",
							"type": "uint256"
						},
						{
							"internalType": "uint256",
							"name": "taxFeeOnBuy",
							"type": "uint256"
						},
						{
							"internalType": "uint256",
							"name": "taxFeeOnSell",
							"type": "uint256"
						}
					],
					"name": "setFee",
					"outputs": [],
					"stateMutability": "nonpayable",
					"type": "function"
				},
				{
					"inputs": [
						{
							"internalType": "address payable",
							"name": "dev",
							"type": "address"
						}
					],
					"name": "setNewDevAddress",
					"outputs": [],
					"stateMutability": "nonpayable",
					"type": "function"
				},
				{
					"inputs": [
						{
							"internalType": "address payable",
							"name": "markt",
							"type": "address"
						}
					],
					"name": "setNewMarketingAddress",
					"outputs": [],
					"stateMutability": "nonpayable",
					"type": "function"
				},
				{
					"inputs": [],
					"name": "symbol",
					"outputs": [
						{
							"internalType": "string",
							"name": "",
							"type": "string"
						}
					],
					"stateMutability": "pure",
					"type": "function"
				},
				{
					"inputs": [
						{
							"internalType": "bool",
							"name": "_swapEnabled",
							"type": "bool"
						}
					],
					"name": "toggleSwap",
					"outputs": [],
					"stateMutability": "nonpayable",
					"type": "function"
				},
				{
					"inputs": [],
					"name": "totalSupply",
					"outputs": [
						{
							"internalType": "uint256",
							"name": "",
							"type": "uint256"
						}
					],
					"stateMutability": "pure",
					"type": "function"
				},
				{
					"inputs": [
						{
							"internalType": "address",
							"name": "recipient",
							"type": "address"
						},
						{
							"internalType": "uint256",
							"name": "amount",
							"type": "uint256"
						}
					],
					"name": "transfer",
					"outputs": [
						{
							"internalType": "bool",
							"name": "",
							"type": "bool"
						}
					],
					"stateMutability": "nonpayable",
					"type": "function"
				},
				{
					"inputs": [
						{
							"internalType": "address",
							"name": "sender",
							"type": "address"
						},
						{
							"internalType": "address",
							"name": "recipient",
							"type": "address"
						},
						{
							"internalType": "uint256",
							"name": "amount",
							"type": "uint256"
						}
					],
					"name": "transferFrom",
					"outputs": [
						{
							"internalType": "bool",
							"name": "",
							"type": "bool"
						}
					],
					"stateMutability": "nonpayable",
					"type": "function"
				},
				{
					"inputs": [
						{
							"internalType": "address",
							"name": "newOwner",
							"type": "address"
						}
					],
					"name": "transferOwnership",
					"outputs": [],
					"stateMutability": "nonpayable",
					"type": "function"
				},
				{
					"inputs": [],
					"name": "uniswapV2Pair",
					"outputs": [
						{
							"internalType": "address",
							"name": "",
							"type": "address"
						}
					],
					"stateMutability": "view",
					"type": "function"
				},
				{
					"inputs": [],
					"name": "uniswapV2Router",
					"outputs": [
						{
							"internalType": "contract IUniswapV2Router02",
							"name": "",
							"type": "address"
						}
					],
					"stateMutability": "view",
					"type": "function"
				},
				{
					"stateMutability": "payable",
					"type": "receive"
				}
			],
			"devdoc": {
				"kind": "dev",
				"methods": {},
				"version": 1
			},
			"evm": {
				"assembly": "    /* \"contracts/Pool/Pool.sol\":3787:15008  contract World_Step is Context, IERC20, Ownable {... */\n  mstore(0x40, 0x80)\n    /* \"contracts/Pool/Pool.sol\":4200:4213  1*10**9*10**9 */\n  0x0de0b6b3a7640000\n    /* \"contracts/Pool/Pool.sol\":4147:4159  1*10**9*10*9 */\n  0x14f46b0400\n    /* \"contracts/Pool/Pool.sol\":4253:4266  MAX % _tTotal */\n  tag_1\n  swap2\n  swap1\n  tag_2\n  jump\t// in\ntag_1:\n    /* \"contracts/Pool/Pool.sol\":4147:4159  1*10**9*10*9 */\n  0x14f46b0400\n    /* \"contracts/Pool/Pool.sol\":4246:4267  MAX - (MAX % _tTotal) */\n  tag_3\n  swap2\n  swap1\n  tag_4\n  jump\t// in\ntag_3:\n    /* \"contracts/Pool/Pool.sol\":4219:4268  uint256 private _rTotal = (MAX - (MAX % _tTotal)) */\n  0x06\n  sstore\n    /* \"contracts/Pool/Pool.sol\":4344:4345  1 */\n  0x01\n    /* \"contracts/Pool/Pool.sol\":4311:4345  uint256 private _redisFeeOnBuy = 1 */\n  0x08\n  sstore\n    /* \"contracts/Pool/Pool.sol\":4382:4383  4 */\n  0x04\n    /* \"contracts/Pool/Pool.sol\":4351:4383  uint256 private _taxFeeOnBuy = 4 */\n  0x09\n  sstore\n    /* \"contracts/Pool/Pool.sol\":4428:4429  1 */\n  0x01\n    /* \"contracts/Pool/Pool.sol\":4394:4429  uint256 private _redisFeeOnSell = 1 */\n  0x0a\n  sstore\n    /* \"contracts/Pool/Pool.sol\":4467:4468  1 */\n  0x01\n    /* \"contracts/Pool/Pool.sol\":4435:4468  uint256 private _taxFeeOnSell = 1 */\n  0x0b\n  sstore\n    /* \"contracts/Pool/Pool.sol\":4740:4782  0x8492cbd894686D7e98214541903c7BA6f94928D6 */\n  0x8492cbd894686d7e98214541903c7ba6f94928d6\n    /* \"contracts/Pool/Pool.sol\":4686:4783  address payable private _developmentAddress = payable(0x8492cbd894686D7e98214541903c7BA6f94928D6) */\n  0x0e\n  exp(0x0100, 0x00)\n  dup2\n  sload\n  dup2\n  0xffffffffffffffffffffffffffffffffffffffff\n  mul\n  not\n  and\n  swap1\n  dup4\n  0xffffffffffffffffffffffffffffffffffffffff\n  and\n  mul\n  or\n  swap1\n  sstore\n  pop\n    /* \"contracts/Pool/Pool.sol\":4841:4883  0xa4eD7aa4eF5deB0A63e97d9Cb77445aE553feb1d */\n  0xa4ed7aa4ef5deb0a63e97d9cb77445ae553feb1d\n    /* \"contracts/Pool/Pool.sol\":4789:4884  address payable private _marketingAddress = payable(0xa4eD7aa4eF5deB0A63e97d9Cb77445aE553feb1d) */\n  0x0f\n  exp(0x0100, 0x00)\n  dup2\n  sload\n  dup2\n  0xffffffffffffffffffffffffffffffffffffffff\n  mul\n  not\n  and\n  swap1\n  dup4\n  0xffffffffffffffffffffffffffffffffffffffff\n  and\n  mul\n  or\n  swap1\n  sstore\n  pop\n    /* \"contracts/Pool/Pool.sol\":4999:5004  false */\n  0x00\n    /* \"contracts/Pool/Pool.sol\":4977:5004  bool private inSwap = false */\n  0x11\n  exp(0x0100, 0x14)\n  dup2\n  sload\n  dup2\n  0xff\n  mul\n  not\n  and\n  swap1\n  dup4\n  iszero\n  iszero\n  mul\n  or\n  swap1\n  sstore\n  pop\n    /* \"contracts/Pool/Pool.sol\":5037:5041  true */\n  0x01\n    /* \"contracts/Pool/Pool.sol\":5010:5041  bool private swapEnabled = true */\n  0x11\n  exp(0x0100, 0x15)\n  dup2\n  sload\n  dup2\n  0xff\n  mul\n  not\n  and\n  swap1\n  dup4\n  iszero\n  iszero\n  mul\n  or\n  swap1\n  sstore\n  pop\n    /* \"contracts/Pool/Pool.sol\":5143:5772  constructor () {... */\n  callvalue\n  dup1\n  iszero\n  tag_5\n  jumpi\n  0x00\n  dup1\n  revert\ntag_5:\n  pop\n    /* \"contracts/Pool/Pool.sol\":3054:3071  address msgSender */\n  0x00\n    /* \"contracts/Pool/Pool.sol\":3074:3086  _msgSender() */\n  tag_9\n    /* \"contracts/Pool/Pool.sol\":3074:3084  _msgSender */\n  shl(0x20, tag_10)\n    /* \"contracts/Pool/Pool.sol\":3074:3086  _msgSender() */\n  0x20\n  shr\n  jump\t// in\ntag_9:\n    /* \"contracts/Pool/Pool.sol\":3054:3086  address msgSender = _msgSender() */\n  swap1\n  pop\n    /* \"contracts/Pool/Pool.sol\":3105:3114  msgSender */\n  dup1\n    /* \"contracts/Pool/Pool.sol\":3096:3102  _owner */\n  0x00\n  dup1\n    /* \"contracts/Pool/Pool.sol\":3096:3114  _owner = msgSender */\n  0x0100\n  exp\n  dup2\n  sload\n  dup2\n  0xffffffffffffffffffffffffffffffffffffffff\n  mul\n  not\n  and\n  swap1\n  dup4\n  0xffffffffffffffffffffffffffffffffffffffff\n  and\n  mul\n  or\n  swap1\n  sstore\n  pop\n    /* \"contracts/Pool/Pool.sol\":3162:3171  msgSender */\n  dup1\n    /* \"contracts/Pool/Pool.sol\":3129:3172  OwnershipTransferred(address(0), msgSender) */\n  0xffffffffffffffffffffffffffffffffffffffff\n  and\n    /* \"contracts/Pool/Pool.sol\":3158:3159  0 */\n  0x00\n    /* \"contracts/Pool/Pool.sol\":3129:3172  OwnershipTransferred(address(0), msgSender) */\n  0xffffffffffffffffffffffffffffffffffffffff\n  and\n  0x8be0079c531659141344cd1fd0a4f28419497f9722a3daafe3b4186f6b6457e0\n  mload(0x40)\n  mload(0x40)\n  dup1\n  swap2\n  sub\n  swap1\n  log3\n    /* \"contracts/Pool/Pool.sol\":3044:3179  {... */\n  pop\n    /* \"contracts/Pool/Pool.sol\":5192:5199  _rTotal */\n  sload(0x06)\n    /* \"contracts/Pool/Pool.sol\":5168:5175  _rOwned */\n  0x02\n    /* \"contracts/Pool/Pool.sol\":5168:5189  _rOwned[_msgSender()] */\n  0x00\n    /* \"contracts/Pool/Pool.sol\":5176:5188  _msgSender() */\n  tag_12\n    /* \"contracts/Pool/Pool.sol\":5176:5186  _msgSender */\n  shl(0x20, tag_10)\n    /* \"contracts/Pool/Pool.sol\":5176:5188  _msgSender() */\n  0x20\n  shr\n  jump\t// in\ntag_12:\n    /* \"contracts/Pool/Pool.sol\":5168:5189  _rOwned[_msgSender()] */\n  0xffffffffffffffffffffffffffffffffffffffff\n  and\n  0xffffffffffffffffffffffffffffffffffffffff\n  and\n  dup2\n  mstore\n  0x20\n  add\n  swap1\n  dup2\n  mstore\n  0x20\n  add\n  0x00\n  keccak256\n    /* \"contracts/Pool/Pool.sol\":5168:5199  _rOwned[_msgSender()] = _rTotal */\n  dup2\n  swap1\n  sstore\n  pop\n    /* \"contracts/Pool/Pool.sol\":5218:5253  IUniswapV2Router02 _uniswapV2Router */\n  0x00\n    /* \"contracts/Pool/Pool.sol\":5283:5325  0x10ED43C718714eb63d5aA57B78B54704E256024E */\n  0x10ed43c718714eb63d5aa57b78b54704e256024e\n    /* \"contracts/Pool/Pool.sol\":5218:5327  IUniswapV2Router02 _uniswapV2Router = IUniswapV2Router02(address(0x10ED43C718714eb63d5aA57B78B54704E256024E)) */\n  swap1\n  pop\n    /* \"contracts/Pool/Pool.sol\":5355:5371  _uniswapV2Router */\n  dup1\n    /* \"contracts/Pool/Pool.sol\":5337:5352  uniswapV2Router */\n  0x10\n  0x00\n    /* \"contracts/Pool/Pool.sol\":5337:5371  uniswapV2Router = _uniswapV2Router */\n  0x0100\n  exp\n  dup2\n  sload\n  dup2\n  0xffffffffffffffffffffffffffffffffffffffff\n  mul\n  not\n  and\n  swap1\n  dup4\n  0xffffffffffffffffffffffffffffffffffffffff\n  and\n  mul\n  or\n  swap1\n  sstore\n  pop\n    /* \"contracts/Pool/Pool.sol\":5415:5431  _uniswapV2Router */\n  dup1\n    /* \"contracts/Pool/Pool.sol\":5415:5439  _uniswapV2Router.factory */\n  0xffffffffffffffffffffffffffffffffffffffff\n  and\n  0xc45a0155\n    /* \"contracts/Pool/Pool.sol\":5415:5441  _uniswapV2Router.factory() */\n  mload(0x40)\n  dup2\n  0xffffffff\n  and\n  0xe0\n  shl\n  dup2\n  mstore\n  0x04\n  add\n  0x20\n  mload(0x40)\n  dup1\n  dup4\n  sub\n  dup2\n  dup7\n  gas\n  staticcall\n  iszero\n  dup1\n  iszero\n  tag_14\n  jumpi\n  returndatasize\n  0x00\n  dup1\n  returndatacopy\n  revert(0x00, returndatasize)\ntag_14:\n  pop\n  pop\n  pop\n  pop\n  mload(0x40)\n  returndatasize\n  not(0x1f)\n  0x1f\n  dup3\n  add\n  and\n  dup3\n  add\n  dup1\n  0x40\n  mstore\n  pop\n  dup2\n  add\n  swap1\n  tag_15\n  swap2\n  swap1\n  tag_16\n  jump\t// in\ntag_15:\n    /* \"contracts/Pool/Pool.sol\":5397:5453  IUniswapV2Factory(_uniswapV2Router.factory()).createPair */\n  0xffffffffffffffffffffffffffffffffffffffff\n  and\n  0xc9c65396\n    /* \"contracts/Pool/Pool.sol\":5462:5466  this */\n  address\n    /* \"contracts/Pool/Pool.sol\":5469:5485  _uniswapV2Router */\n  dup4\n    /* \"contracts/Pool/Pool.sol\":5469:5490  _uniswapV2Router.WETH */\n  0xffffffffffffffffffffffffffffffffffffffff\n  and\n  0xad5c4648\n    /* \"contracts/Pool/Pool.sol\":5469:5492  _uniswapV2Router.WETH() */\n  mload(0x40)\n  dup2\n  0xffffffff\n  and\n  0xe0\n  shl\n  dup2\n  mstore\n  0x04\n  add\n  0x20\n  mload(0x40)\n  dup1\n  dup4\n  sub\n  dup2\n  dup7\n  gas\n  staticcall\n  iszero\n  dup1\n  iszero\n  tag_18\n  jumpi\n  returndatasize\n  0x00\n  dup1\n  returndatacopy\n  revert(0x00, returndatasize)\ntag_18:\n  pop\n  pop\n  pop\n  pop\n  mload(0x40)\n  returndatasize\n  not(0x1f)\n  0x1f\n  dup3\n  add\n  and\n  dup3\n  add\n  dup1\n  0x40\n  mstore\n  pop\n  dup2\n  add\n  swap1\n  tag_19\n  swap2\n  swap1\n  tag_16\n  jump\t// in\ntag_19:\n    /* \"contracts/Pool/Pool.sol\":5397:5494  IUniswapV2Factory(_uniswapV2Router.factory()).createPair(address(this), _uniswapV2Router.WETH() ) */\n  mload(0x40)\n  dup4\n  0xffffffff\n  and\n  0xe0\n  shl\n  dup2\n  mstore\n  0x04\n  add\n  tag_20\n  swap3\n  swap2\n  swap1\n  tag_21\n  jump\t// in\ntag_20:\n  0x20\n  mload(0x40)\n  dup1\n  dup4\n  sub\n  dup2\n  0x00\n  dup8\n  gas\n  call\n  iszero\n  dup1\n  iszero\n  tag_23\n  jumpi\n  returndatasize\n  0x00\n  dup1\n  returndatacopy\n  revert(0x00, returndatasize)\ntag_23:\n  pop\n  pop\n  pop\n  pop\n  mload(0x40)\n  returndatasize\n  not(0x1f)\n  0x1f\n  dup3\n  add\n  and\n  dup3\n  add\n  dup1\n  0x40\n  mstore\n  pop\n  dup2\n  add\n  swap1\n  tag_24\n  swap2\n  swap1\n  tag_16\n  jump\t// in\ntag_24:\n    /* \"contracts/Pool/Pool.sol\":5381:5394  uniswapV2Pair */\n  0x11\n  0x00\n    /* \"contracts/Pool/Pool.sol\":5381:5494  uniswapV2Pair = IUniswapV2Factory(_uniswapV2Router.factory()).createPair(address(this), _uniswapV2Router.WETH() ) */\n  0x0100\n  exp\n  dup2\n  sload\n  dup2\n  0xffffffffffffffffffffffffffffffffffffffff\n  mul\n  not\n  and\n  swap1\n  dup4\n  0xffffffffffffffffffffffffffffffffffffffff\n  and\n  mul\n  or\n  swap1\n  sstore\n  pop\n    /* \"contracts/Pool/Pool.sol\":5534:5538  true */\n  0x01\n    /* \"contracts/Pool/Pool.sol\":5504:5522  _isExcludedFromFee */\n  0x05\n    /* \"contracts/Pool/Pool.sol\":5504:5531  _isExcludedFromFee[owner()] */\n  0x00\n    /* \"contracts/Pool/Pool.sol\":5523:5530  owner() */\n  tag_25\n    /* \"contracts/Pool/Pool.sol\":5523:5528  owner */\n  shl(0x20, tag_26)\n    /* \"contracts/Pool/Pool.sol\":5523:5530  owner() */\n  0x20\n  shr\n  jump\t// in\ntag_25:\n    /* \"contracts/Pool/Pool.sol\":5504:5531  _isExcludedFromFee[owner()] */\n  0xffffffffffffffffffffffffffffffffffffffff\n  and\n  0xffffffffffffffffffffffffffffffffffffffff\n  and\n  dup2\n  mstore\n  0x20\n  add\n  swap1\n  dup2\n  mstore\n  0x20\n  add\n  0x00\n  keccak256\n  0x00\n    /* \"contracts/Pool/Pool.sol\":5504:5538  _isExcludedFromFee[owner()] = true */\n  0x0100\n  exp\n  dup2\n  sload\n  dup2\n  0xff\n  mul\n  not\n  and\n  swap1\n  dup4\n  iszero\n  iszero\n  mul\n  or\n  swap1\n  sstore\n  pop\n    /* \"contracts/Pool/Pool.sol\":5584:5588  true */\n  0x01\n    /* \"contracts/Pool/Pool.sol\":5548:5566  _isExcludedFromFee */\n  0x05\n    /* \"contracts/Pool/Pool.sol\":5548:5581  _isExcludedFromFee[address(this)] */\n  0x00\n    /* \"contracts/Pool/Pool.sol\":5575:5579  this */\n  address\n    /* \"contracts/Pool/Pool.sol\":5548:5581  _isExcludedFromFee[address(this)] */\n  0xffffffffffffffffffffffffffffffffffffffff\n  and\n  0xffffffffffffffffffffffffffffffffffffffff\n  and\n  dup2\n  mstore\n  0x20\n  add\n  swap1\n  dup2\n  mstore\n  0x20\n  add\n  0x00\n  keccak256\n  0x00\n    /* \"contracts/Pool/Pool.sol\":5548:5588  _isExcludedFromFee[address(this)] = true */\n  0x0100\n  exp\n  dup2\n  sload\n  dup2\n  0xff\n  mul\n  not\n  and\n  swap1\n  dup4\n  iszero\n  iszero\n  mul\n  or\n  swap1\n  sstore\n  pop\n    /* \"contracts/Pool/Pool.sol\":5640:5644  true */\n  0x01\n    /* \"contracts/Pool/Pool.sol\":5598:5616  _isExcludedFromFee */\n  0x05\n    /* \"contracts/Pool/Pool.sol\":5598:5637  _isExcludedFromFee[_developmentAddress] */\n  0x00\n    /* \"contracts/Pool/Pool.sol\":5617:5636  _developmentAddress */\n  0x0e\n  0x00\n  swap1\n  sload\n  swap1\n  0x0100\n  exp\n  swap1\n  div\n  0xffffffffffffffffffffffffffffffffffffffff\n  and\n    /* \"contracts/Pool/Pool.sol\":5598:5637  _isExcludedFromFee[_developmentAddress] */\n  0xffffffffffffffffffffffffffffffffffffffff\n  and\n  0xffffffffffffffffffffffffffffffffffffffff\n  and\n  dup2\n  mstore\n  0x20\n  add\n  swap1\n  dup2\n  mstore\n  0x20\n  add\n  0x00\n  keccak256\n  0x00\n    /* \"contracts/Pool/Pool.sol\":5598:5644  _isExcludedFromFee[_developmentAddress] = true */\n  0x0100\n  exp\n  dup2\n  sload\n  dup2\n  0xff\n  mul\n  not\n  and\n  swap1\n  dup4\n  iszero\n  iszero\n  mul\n  or\n  swap1\n  sstore\n  pop\n    /* \"contracts/Pool/Pool.sol\":5694:5698  true */\n  0x01\n    /* \"contracts/Pool/Pool.sol\":5654:5672  _isExcludedFromFee */\n  0x05\n    /* \"contracts/Pool/Pool.sol\":5654:5691  _isExcludedFromFee[_marketingAddress] */\n  0x00\n    /* \"contracts/Pool/Pool.sol\":5673:5690  _marketingAddress */\n  0x0f\n  0x00\n  swap1\n  sload\n  swap1\n  0x0100\n  exp\n  swap1\n  div\n  0xffffffffffffffffffffffffffffffffffffffff\n  and\n    /* \"contracts/Pool/Pool.sol\":5654:5691  _isExcludedFromFee[_marketingAddress] */\n  0xffffffffffffffffffffffffffffffffffffffff\n  and\n  0xffffffffffffffffffffffffffffffffffffffff\n  and\n  dup2\n  mstore\n  0x20\n  add\n  swap1\n  dup2\n  mstore\n  0x20\n  add\n  0x00\n  keccak256\n  0x00\n    /* \"contracts/Pool/Pool.sol\":5654:5698  _isExcludedFromFee[_marketingAddress] = true */\n  0x0100\n  exp\n  dup2\n  sload\n  dup2\n  0xff\n  mul\n  not\n  and\n  swap1\n  dup4\n  iszero\n  iszero\n  mul\n  or\n  swap1\n  sstore\n  pop\n    /* \"contracts/Pool/Pool.sol\":5743:5755  _msgSender() */\n  tag_27\n    /* \"contracts/Pool/Pool.sol\":5743:5753  _msgSender */\n  shl(0x20, tag_10)\n    /* \"contracts/Pool/Pool.sol\":5743:5755  _msgSender() */\n  0x20\n  shr\n  jump\t// in\ntag_27:\n    /* \"contracts/Pool/Pool.sol\":5722:5765  Transfer(address(0), _msgSender(), _tTotal) */\n  0xffffffffffffffffffffffffffffffffffffffff\n  and\n    /* \"contracts/Pool/Pool.sol\":5739:5740  0 */\n  0x00\n    /* \"contracts/Pool/Pool.sol\":5722:5765  Transfer(address(0), _msgSender(), _tTotal) */\n  0xffffffffffffffffffffffffffffffffffffffff\n  and\n  0xddf252ad1be2c89b69c2b068fc378daa952ba7f163c4a11628f55a4df523b3ef\n    /* \"contracts/Pool/Pool.sol\":4200:4213  1*10**9*10**9 */\n  0x0de0b6b3a7640000\n    /* \"contracts/Pool/Pool.sol\":5722:5765  Transfer(address(0), _msgSender(), _tTotal) */\n  mload(0x40)\n  tag_28\n  swap2\n  swap1\n  tag_29\n  jump\t// in\ntag_28:\n  mload(0x40)\n  dup1\n  swap2\n  sub\n  swap1\n  log3\n    /* \"contracts/Pool/Pool.sol\":5158:5772  {... */\n  pop\n    /* \"contracts/Pool/Pool.sol\":3787:15008  contract World_Step is Context, IERC20, Ownable {... */\n  jump(tag_30)\n    /* \"contracts/Pool/Pool.sol\":1721:1817  function _msgSender() internal view virtual returns (address) {... */\ntag_10:\n    /* \"contracts/Pool/Pool.sol\":1774:1781  address */\n  0x00\n    /* \"contracts/Pool/Pool.sol\":1800:1810  msg.sender */\n  caller\n    /* \"contracts/Pool/Pool.sol\":1793:1810  return msg.sender */\n  swap1\n  pop\n    /* \"contracts/Pool/Pool.sol\":1721:1817  function _msgSender() internal view virtual returns (address) {... */\n  swap1\n  jump\t// out\n    /* \"contracts/Pool/Pool.sol\":3185:3262  function owner() public view returns (address) {... */\ntag_26:\n    /* \"contracts/Pool/Pool.sol\":3223:3230  address */\n  0x00\n    /* \"contracts/Pool/Pool.sol\":3249:3255  _owner */\n  dup1\n  0x00\n  swap1\n  sload\n  swap1\n  0x0100\n  exp\n  swap1\n  div\n  0xffffffffffffffffffffffffffffffffffffffff\n  and\n    /* \"contracts/Pool/Pool.sol\":3242:3255  return _owner */\n  swap1\n  pop\n    /* \"contracts/Pool/Pool.sol\":3185:3262  function owner() public view returns (address) {... */\n  swap1\n  jump\t// out\n    /* \"#utility.yul\":7:84   */\ntag_33:\n    /* \"#utility.yul\":44:51   */\n  0x00\n    /* \"#utility.yul\":73:78   */\n  dup2\n    /* \"#utility.yul\":62:78   */\n  swap1\n  pop\n    /* \"#utility.yul\":7:84   */\n  swap2\n  swap1\n  pop\n  jump\t// out\n    /* \"#utility.yul\":90:270   */\ntag_34:\n    /* \"#utility.yul\":138:215   */\n  0x4e487b7100000000000000000000000000000000000000000000000000000000\n    /* \"#utility.yul\":135:136   */\n  0x00\n    /* \"#utility.yul\":128:216   */\n  mstore\n    /* \"#utility.yul\":235:239   */\n  0x12\n    /* \"#utility.yul\":232:233   */\n  0x04\n    /* \"#utility.yul\":225:240   */\n  mstore\n    /* \"#utility.yul\":259:263   */\n  0x24\n    /* \"#utility.yul\":256:257   */\n  0x00\n    /* \"#utility.yul\":249:264   */\n  revert\n    /* \"#utility.yul\":276:452   */\ntag_2:\n    /* \"#utility.yul\":308:309   */\n  0x00\n    /* \"#utility.yul\":325:345   */\n  tag_49\n    /* \"#utility.yul\":343:344   */\n  dup3\n    /* \"#utility.yul\":325:345   */\n  tag_33\n  jump\t// in\ntag_49:\n    /* \"#utility.yul\":320:345   */\n  swap2\n  pop\n    /* \"#utility.yul\":359:379   */\n  tag_50\n    /* \"#utility.yul\":377:378   */\n  dup4\n    /* \"#utility.yul\":359:379   */\n  tag_33\n  jump\t// in\ntag_50:\n    /* \"#utility.yul\":354:379   */\n  swap3\n  pop\n    /* \"#utility.yul\":398:399   */\n  dup3\n    /* \"#utility.yul\":388:423   */\n  tag_51\n  jumpi\n    /* \"#utility.yul\":403:421   */\n  tag_52\n  tag_34\n  jump\t// in\ntag_52:\n    /* \"#utility.yul\":388:423   */\ntag_51:\n    /* \"#utility.yul\":444:445   */\n  dup3\n    /* \"#utility.yul\":441:442   */\n  dup3\n    /* \"#utility.yul\":437:446   */\n  mod\n    /* \"#utility.yul\":432:446   */\n  swap1\n  pop\n    /* \"#utility.yul\":276:452   */\n  swap3\n  swap2\n  pop\n  pop\n  jump\t// out\n    /* \"#utility.yul\":458:638   */\ntag_35:\n    /* \"#utility.yul\":506:583   */\n  0x4e487b7100000000000000000000000000000000000000000000000000000000\n    /* \"#utility.yul\":503:504   */\n  0x00\n    /* \"#utility.yul\":496:584   */\n  mstore\n    /* \"#utility.yul\":603:607   */\n  0x11\n    /* \"#utility.yul\":600:601   */\n  0x04\n    /* \"#utility.yul\":593:608   */\n  mstore\n    /* \"#utility.yul\":627:631   */\n  0x24\n    /* \"#utility.yul\":624:625   */\n  0x00\n    /* \"#utility.yul\":617:632   */\n  revert\n    /* \"#utility.yul\":644:835   */\ntag_4:\n    /* \"#utility.yul\":684:688   */\n  0x00\n    /* \"#utility.yul\":704:724   */\n  tag_55\n    /* \"#utility.yul\":722:723   */\n  dup3\n    /* \"#utility.yul\":704:724   */\n  tag_33\n  jump\t// in\ntag_55:\n    /* \"#utility.yul\":699:724   */\n  swap2\n  pop\n    /* \"#utility.yul\":738:758   */\n  tag_56\n    /* \"#utility.yul\":756:757   */\n  dup4\n    /* \"#utility.yul\":738:758   */\n  tag_33\n  jump\t// in\ntag_56:\n    /* \"#utility.yul\":733:758   */\n  swap3\n  pop\n    /* \"#utility.yul\":777:778   */\n  dup3\n    /* \"#utility.yul\":774:775   */\n  dup3\n    /* \"#utility.yul\":771:779   */\n  lt\n    /* \"#utility.yul\":768:802   */\n  iszero\n  tag_57\n  jumpi\n    /* \"#utility.yul\":782:800   */\n  tag_58\n  tag_35\n  jump\t// in\ntag_58:\n    /* \"#utility.yul\":768:802   */\ntag_57:\n    /* \"#utility.yul\":827:828   */\n  dup3\n    /* \"#utility.yul\":824:825   */\n  dup3\n    /* \"#utility.yul\":820:829   */\n  sub\n    /* \"#utility.yul\":812:829   */\n  swap1\n  pop\n    /* \"#utility.yul\":644:835   */\n  swap3\n  swap2\n  pop\n  pop\n  jump\t// out\n    /* \"#utility.yul\":922:1039   */\ntag_37:\n    /* \"#utility.yul\":1031:1032   */\n  0x00\n    /* \"#utility.yul\":1028:1029   */\n  dup1\n    /* \"#utility.yul\":1021:1033   */\n  revert\n    /* \"#utility.yul\":1168:1294   */\ntag_39:\n    /* \"#utility.yul\":1205:1212   */\n  0x00\n    /* \"#utility.yul\":1245:1287   */\n  0xffffffffffffffffffffffffffffffffffffffff\n    /* \"#utility.yul\":1238:1243   */\n  dup3\n    /* \"#utility.yul\":1234:1288   */\n  and\n    /* \"#utility.yul\":1223:1288   */\n  swap1\n  pop\n    /* \"#utility.yul\":1168:1294   */\n  swap2\n  swap1\n  pop\n  jump\t// out\n    /* \"#utility.yul\":1300:1396   */\ntag_40:\n    /* \"#utility.yul\":1337:1344   */\n  0x00\n    /* \"#utility.yul\":1366:1390   */\n  tag_64\n    /* \"#utility.yul\":1384:1389   */\n  dup3\n    /* \"#utility.yul\":1366:1390   */\n  tag_39\n  jump\t// in\ntag_64:\n    /* \"#utility.yul\":1355:1390   */\n  swap1\n  pop\n    /* \"#utility.yul\":1300:1396   */\n  swap2\n  swap1\n  pop\n  jump\t// out\n    /* \"#utility.yul\":1402:1524   */\ntag_41:\n    /* \"#utility.yul\":1475:1499   */\n  tag_66\n    /* \"#utility.yul\":1493:1498   */\n  dup2\n    /* \"#utility.yul\":1475:1499   */\n  tag_40\n  jump\t// in\ntag_66:\n    /* \"#utility.yul\":1468:1473   */\n  dup2\n    /* \"#utility.yul\":1465:1500   */\n  eq\n    /* \"#utility.yul\":1455:1518   */\n  tag_67\n  jumpi\n    /* \"#utility.yul\":1514:1515   */\n  0x00\n    /* \"#utility.yul\":1511:1512   */\n  dup1\n    /* \"#utility.yul\":1504:1516   */\n  revert\n    /* \"#utility.yul\":1455:1518   */\ntag_67:\n    /* \"#utility.yul\":1402:1524   */\n  pop\n  jump\t// out\n    /* \"#utility.yul\":1530:1673   */\ntag_42:\n    /* \"#utility.yul\":1587:1592   */\n  0x00\n    /* \"#utility.yul\":1618:1624   */\n  dup2\n    /* \"#utility.yul\":1612:1625   */\n  mload\n    /* \"#utility.yul\":1603:1625   */\n  swap1\n  pop\n    /* \"#utility.yul\":1634:1667   */\n  tag_69\n    /* \"#utility.yul\":1661:1666   */\n  dup2\n    /* \"#utility.yul\":1634:1667   */\n  tag_41\n  jump\t// in\ntag_69:\n    /* \"#utility.yul\":1530:1673   */\n  swap3\n  swap2\n  pop\n  pop\n  jump\t// out\n    /* \"#utility.yul\":1679:2030   */\ntag_16:\n    /* \"#utility.yul\":1749:1755   */\n  0x00\n    /* \"#utility.yul\":1798:1800   */\n  0x20\n    /* \"#utility.yul\":1786:1795   */\n  dup3\n    /* \"#utility.yul\":1777:1784   */\n  dup5\n    /* \"#utility.yul\":1773:1796   */\n  sub\n    /* \"#utility.yul\":1769:1801   */\n  slt\n    /* \"#utility.yul\":1766:1885   */\n  iszero\n  tag_71\n  jumpi\n    /* \"#utility.yul\":1804:1883   */\n  tag_72\n  tag_37\n  jump\t// in\ntag_72:\n    /* \"#utility.yul\":1766:1885   */\ntag_71:\n    /* \"#utility.yul\":1924:1925   */\n  0x00\n    /* \"#utility.yul\":1949:2013   */\n  tag_73\n    /* \"#utility.yul\":2005:2012   */\n  dup5\n    /* \"#utility.yul\":1996:2002   */\n  dup3\n    /* \"#utility.yul\":1985:1994   */\n  dup6\n    /* \"#utility.yul\":1981:2003   */\n  add\n    /* \"#utility.yul\":1949:2013   */\n  tag_42\n  jump\t// in\ntag_73:\n    /* \"#utility.yul\":1939:2013   */\n  swap2\n  pop\n    /* \"#utility.yul\":1895:2023   */\n  pop\n    /* \"#utility.yul\":1679:2030   */\n  swap3\n  swap2\n  pop\n  pop\n  jump\t// out\n    /* \"#utility.yul\":2036:2154   */\ntag_43:\n    /* \"#utility.yul\":2123:2147   */\n  tag_75\n    /* \"#utility.yul\":2141:2146   */\n  dup2\n    /* \"#utility.yul\":2123:2147   */\n  tag_40\n  jump\t// in\ntag_75:\n    /* \"#utility.yul\":2118:2121   */\n  dup3\n    /* \"#utility.yul\":2111:2148   */\n  mstore\n    /* \"#utility.yul\":2036:2154   */\n  pop\n  pop\n  jump\t// out\n    /* \"#utility.yul\":2160:2492   */\ntag_21:\n    /* \"#utility.yul\":2281:2285   */\n  0x00\n    /* \"#utility.yul\":2319:2321   */\n  0x40\n    /* \"#utility.yul\":2308:2317   */\n  dup3\n    /* \"#utility.yul\":2304:2322   */\n  add\n    /* \"#utility.yul\":2296:2322   */\n  swap1\n  pop\n    /* \"#utility.yul\":2332:2403   */\n  tag_77\n    /* \"#utility.yul\":2400:2401   */\n  0x00\n    /* \"#utility.yul\":2389:2398   */\n  dup4\n    /* \"#utility.yul\":2385:2402   */\n  add\n    /* \"#utility.yul\":2376:2382   */\n  dup6\n    /* \"#utility.yul\":2332:2403   */\n  tag_43\n  jump\t// in\ntag_77:\n    /* \"#utility.yul\":2413:2485   */\n  tag_78\n    /* \"#utility.yul\":2481:2483   */\n  0x20\n    /* \"#utility.yul\":2470:2479   */\n  dup4\n    /* \"#utility.yul\":2466:2484   */\n  add\n    /* \"#utility.yul\":2457:2463   */\n  dup5\n    /* \"#utility.yul\":2413:2485   */\n  tag_43\n  jump\t// in\ntag_78:\n    /* \"#utility.yul\":2160:2492   */\n  swap4\n  swap3\n  pop\n  pop\n  pop\n  jump\t// out\n    /* \"#utility.yul\":2498:2616   */\ntag_44:\n    /* \"#utility.yul\":2585:2609   */\n  tag_80\n    /* \"#utility.yul\":2603:2608   */\n  dup2\n    /* \"#utility.yul\":2585:2609   */\n  tag_33\n  jump\t// in\ntag_80:\n    /* \"#utility.yul\":2580:2583   */\n  dup3\n    /* \"#utility.yul\":2573:2610   */\n  mstore\n    /* \"#utility.yul\":2498:2616   */\n  pop\n  pop\n  jump\t// out\n    /* \"#utility.yul\":2622:2844   */\ntag_29:\n    /* \"#utility.yul\":2715:2719   */\n  0x00\n    /* \"#utility.yul\":2753:2755   */\n  0x20\n    /* \"#utility.yul\":2742:2751   */\n  dup3\n    /* \"#utility.yul\":2738:2756   */\n  add\n    /* \"#utility.yul\":2730:2756   */\n  swap1\n  pop\n    /* \"#utility.yul\":2766:2837   */\n  tag_82\n    /* \"#utility.yul\":2834:2835   */\n  0x00\n    /* \"#utility.yul\":2823:2832   */\n  dup4\n    /* \"#utility.yul\":2819:2836   */\n  add\n    /* \"#utility.yul\":2810:2816   */\n  dup5\n    /* \"#utility.yul\":2766:2837   */\n  tag_44\n  jump\t// in\ntag_82:\n    /* \"#utility.yul\":2622:2844   */\n  swap3\n  swap2\n  pop\n  pop\n  jump\t// out\n    /* \"contracts/Pool/Pool.sol\":3787:15008  contract World_Step is Context, IERC20, Ownable {... */\ntag_30:\n  dataSize(sub_0)\n  dup1\n  dataOffset(sub_0)\n  0x00\n  codecopy\n  0x00\n  return\nstop\n\nsub_0: assembly {\n        /* \"contracts/Pool/Pool.sol\":3787:15008  contract World_Step is Context, IERC20, Ownable {... */\n      mstore(0x40, 0x80)\n      jumpi(tag_1, lt(calldatasize, 0x04))\n      shr(0xe0, calldataload(0x00))\n      dup1\n      0x758dbe03\n      gt\n      tag_25\n      jumpi\n      dup1\n      0xaad5c023\n      gt\n      tag_26\n      jumpi\n      dup1\n      0xaad5c023\n      eq\n      tag_19\n      jumpi\n      dup1\n      0xc3c8cd80\n      eq\n      tag_20\n      jumpi\n      dup1\n      0xc492f046\n      eq\n      tag_21\n      jumpi\n      dup1\n      0xdd62ed3e\n      eq\n      tag_22\n      jumpi\n      dup1\n      0xe293d316\n      eq\n      tag_23\n      jumpi\n      dup1\n      0xf2fde38b\n      eq\n      tag_24\n      jumpi\n      jump(tag_2)\n    tag_26:\n      dup1\n      0x758dbe03\n      eq\n      tag_14\n      jumpi\n      dup1\n      0x8da5cb5b\n      eq\n      tag_15\n      jumpi\n      dup1\n      0x95d89b41\n      eq\n      tag_16\n      jumpi\n      dup1\n      0xa2a957bb\n      eq\n      tag_17\n      jumpi\n      dup1\n      0xa9059cbb\n      eq\n      tag_18\n      jumpi\n      jump(tag_2)\n    tag_25:\n      dup1\n      0x313ce567\n      gt\n      tag_27\n      jumpi\n      dup1\n      0x313ce567\n      eq\n      tag_8\n      jumpi\n      dup1\n      0x49bd5a5e\n      eq\n      tag_9\n      jumpi\n      dup1\n      0x6d8aa8f8\n      eq\n      tag_10\n      jumpi\n      dup1\n      0x6fc3eaec\n      eq\n      tag_11\n      jumpi\n      dup1\n      0x70a08231\n      eq\n      tag_12\n      jumpi\n      dup1\n      0x715018a6\n      eq\n      tag_13\n      jumpi\n      jump(tag_2)\n    tag_27:\n      dup1\n      0x06fdde03\n      eq\n      tag_3\n      jumpi\n      dup1\n      0x095ea7b3\n      eq\n      tag_4\n      jumpi\n      dup1\n      0x1694505e\n      eq\n      tag_5\n      jumpi\n      dup1\n      0x18160ddd\n      eq\n      tag_6\n      jumpi\n      dup1\n      0x23b872dd\n      eq\n      tag_7\n      jumpi\n      jump(tag_2)\n    tag_1:\n      jumpi(tag_2, calldatasize)\n      stop\n    tag_2:\n      0x00\n      dup1\n      revert\n        /* \"contracts/Pool/Pool.sol\":5930:6011  function name() public pure returns (string memory) {... */\n    tag_3:\n      callvalue\n      dup1\n      iszero\n      tag_30\n      jumpi\n      0x00\n      dup1\n      revert\n    tag_30:\n      pop\n      tag_31\n      tag_32\n      jump\t// in\n    tag_31:\n      mload(0x40)\n      tag_33\n      swap2\n      swap1\n      tag_34\n      jump\t// in\n    tag_33:\n      mload(0x40)\n      dup1\n      swap2\n      sub\n      swap1\n      return\n        /* \"contracts/Pool/Pool.sol\":6753:6911  function approve(address spender, uint256 amount) public override returns (bool) {... */\n    tag_4:\n      callvalue\n      dup1\n      iszero\n      tag_35\n      jumpi\n      0x00\n      dup1\n      revert\n    tag_35:\n      pop\n      tag_36\n      0x04\n      dup1\n      calldatasize\n      sub\n      dup2\n      add\n      swap1\n      tag_37\n      swap2\n      swap1\n      tag_38\n      jump\t// in\n    tag_37:\n      tag_39\n      jump\t// in\n    tag_36:\n      mload(0x40)\n      tag_40\n      swap2\n      swap1\n      tag_41\n      jump\t// in\n    tag_40:\n      mload(0x40)\n      dup1\n      swap2\n      sub\n      swap1\n      return\n        /* \"contracts/Pool/Pool.sol\":4891:4932  IUniswapV2Router02 public uniswapV2Router */\n    tag_5:\n      callvalue\n      dup1\n      iszero\n      tag_42\n      jumpi\n      0x00\n      dup1\n      revert\n    tag_42:\n      pop\n      tag_43\n      tag_44\n      jump\t// in\n    tag_43:\n      mload(0x40)\n      tag_45\n      swap2\n      swap1\n      tag_46\n      jump\t// in\n    tag_45:\n      mload(0x40)\n      dup1\n      swap2\n      sub\n      swap1\n      return\n        /* \"contracts/Pool/Pool.sol\":6195:6288  function totalSupply() public pure override returns (uint256) {... */\n    tag_6:\n      callvalue\n      dup1\n      iszero\n      tag_47\n      jumpi\n      0x00\n      dup1\n      revert\n    tag_47:\n      pop\n      tag_48\n      tag_49\n      jump\t// in\n    tag_48:\n      mload(0x40)\n      tag_50\n      swap2\n      swap1\n      tag_51\n      jump\t// in\n    tag_50:\n      mload(0x40)\n      dup1\n      swap2\n      sub\n      swap1\n      return\n        /* \"contracts/Pool/Pool.sol\":6917:7226  function transferFrom(address sender, address recipient, uint256 amount) public override returns (bool) {... */\n    tag_7:\n      callvalue\n      dup1\n      iszero\n      tag_52\n      jumpi\n      0x00\n      dup1\n      revert\n    tag_52:\n      pop\n      tag_53\n      0x04\n      dup1\n      calldatasize\n      sub\n      dup2\n      add\n      swap1\n      tag_54\n      swap2\n      swap1\n      tag_55\n      jump\t// in\n    tag_54:\n      tag_56\n      jump\t// in\n    tag_53:\n      mload(0x40)\n      tag_57\n      swap2\n      swap1\n      tag_41\n      jump\t// in\n    tag_57:\n      mload(0x40)\n      dup1\n      swap2\n      sub\n      swap1\n      return\n        /* \"contracts/Pool/Pool.sol\":6108:6189  function decimals() public pure returns (uint8) {... */\n    tag_8:\n      callvalue\n      dup1\n      iszero\n      tag_58\n      jumpi\n      0x00\n      dup1\n      revert\n    tag_58:\n      pop\n      tag_59\n      tag_60\n      jump\t// in\n    tag_59:\n      mload(0x40)\n      tag_61\n      swap2\n      swap1\n      tag_62\n      jump\t// in\n    tag_61:\n      mload(0x40)\n      dup1\n      swap2\n      sub\n      swap1\n      return\n        /* \"contracts/Pool/Pool.sol\":4938:4966  address public uniswapV2Pair */\n    tag_9:\n      callvalue\n      dup1\n      iszero\n      tag_63\n      jumpi\n      0x00\n      dup1\n      revert\n    tag_63:\n      pop\n      tag_64\n      tag_65\n      jump\t// in\n    tag_64:\n      mload(0x40)\n      tag_66\n      swap2\n      swap1\n      tag_67\n      jump\t// in\n    tag_66:\n      mload(0x40)\n      dup1\n      swap2\n      sub\n      swap1\n      return\n        /* \"contracts/Pool/Pool.sol\":14673:14770  function toggleSwap(bool _swapEnabled) public onlyDev {... */\n    tag_10:\n      callvalue\n      dup1\n      iszero\n      tag_68\n      jumpi\n      0x00\n      dup1\n      revert\n    tag_68:\n      pop\n      tag_69\n      0x04\n      dup1\n      calldatasize\n      sub\n      dup2\n      add\n      swap1\n      tag_70\n      swap2\n      swap1\n      tag_71\n      jump\t// in\n    tag_70:\n      tag_72\n      jump\t// in\n    tag_69:\n      stop\n        /* \"contracts/Pool/Pool.sol\":13853:14111  function manualsend() external {... */\n    tag_11:\n      callvalue\n      dup1\n      iszero\n      tag_73\n      jumpi\n      0x00\n      dup1\n      revert\n    tag_73:\n      pop\n      tag_74\n      tag_75\n      jump\t// in\n    tag_74:\n      stop\n        /* \"contracts/Pool/Pool.sol\":6294:6430  function balanceOf(address account) public view override returns (uint256) {... */\n    tag_12:\n      callvalue\n      dup1\n      iszero\n      tag_76\n      jumpi\n      0x00\n      dup1\n      revert\n    tag_76:\n      pop\n      tag_77\n      0x04\n      dup1\n      calldatasize\n      sub\n      dup2\n      add\n      swap1\n      tag_78\n      swap2\n      swap1\n      tag_79\n      jump\t// in\n    tag_78:\n      tag_80\n      jump\t// in\n    tag_77:\n      mload(0x40)\n      tag_81\n      swap2\n      swap1\n      tag_51\n      jump\t// in\n    tag_81:\n      mload(0x40)\n      dup1\n      swap2\n      sub\n      swap1\n      return\n        /* \"contracts/Pool/Pool.sol\":3381:3526  function renounceOwnership() public virtual onlyOwner {... */\n    tag_13:\n      callvalue\n      dup1\n      iszero\n      tag_82\n      jumpi\n      0x00\n      dup1\n      revert\n    tag_82:\n      pop\n      tag_83\n      tag_84\n      jump\t// in\n    tag_83:\n      stop\n        /* \"contracts/Pool/Pool.sol\":10802:11035  function setNewMarketingAddress(address payable markt) public onlyDev() {... */\n    tag_14:\n      callvalue\n      dup1\n      iszero\n      tag_85\n      jumpi\n      0x00\n      dup1\n      revert\n    tag_85:\n      pop\n      tag_86\n      0x04\n      dup1\n      calldatasize\n      sub\n      dup2\n      add\n      swap1\n      tag_87\n      swap2\n      swap1\n      tag_88\n      jump\t// in\n    tag_87:\n      tag_89\n      jump\t// in\n    tag_86:\n      stop\n        /* \"contracts/Pool/Pool.sol\":3185:3262  function owner() public view returns (address) {... */\n    tag_15:\n      callvalue\n      dup1\n      iszero\n      tag_90\n      jumpi\n      0x00\n      dup1\n      revert\n    tag_90:\n      pop\n      tag_91\n      tag_92\n      jump\t// in\n    tag_91:\n      mload(0x40)\n      tag_93\n      swap2\n      swap1\n      tag_67\n      jump\t// in\n    tag_93:\n      mload(0x40)\n      dup1\n      swap2\n      sub\n      swap1\n      return\n        /* \"contracts/Pool/Pool.sol\":6017:6102  function symbol() public pure returns (string memory) {... */\n    tag_16:\n      callvalue\n      dup1\n      iszero\n      tag_94\n      jumpi\n      0x00\n      dup1\n      revert\n    tag_94:\n      pop\n      tag_95\n      tag_96\n      jump\t// in\n    tag_95:\n      mload(0x40)\n      tag_97\n      swap2\n      swap1\n      tag_34\n      jump\t// in\n    tag_97:\n      mload(0x40)\n      dup1\n      swap2\n      sub\n      swap1\n      return\n        /* \"contracts/Pool/Pool.sol\":14121:14663  function setFee(uint256 redisFeeOnBuy, uint256 redisFeeOnSell, uint256 taxFeeOnBuy, uint256 taxFeeOnSell) public onlyDev {... */\n    tag_17:\n      callvalue\n      dup1\n      iszero\n      tag_98\n      jumpi\n      0x00\n      dup1\n      revert\n    tag_98:\n      pop\n      tag_99\n      0x04\n      dup1\n      calldatasize\n      sub\n      dup2\n      add\n      swap1\n      tag_100\n      swap2\n      swap1\n      tag_101\n      jump\t// in\n    tag_100:\n      tag_102\n      jump\t// in\n    tag_99:\n      stop\n        /* \"contracts/Pool/Pool.sol\":6436:6600  function transfer(address recipient, uint256 amount) public override returns (bool) {... */\n    tag_18:\n      callvalue\n      dup1\n      iszero\n      tag_103\n      jumpi\n      0x00\n      dup1\n      revert\n    tag_103:\n      pop\n      tag_104\n      0x04\n      dup1\n      calldatasize\n      sub\n      dup2\n      add\n      swap1\n      tag_105\n      swap2\n      swap1\n      tag_38\n      jump\t// in\n    tag_105:\n      tag_106\n      jump\t// in\n    tag_104:\n      mload(0x40)\n      tag_107\n      swap2\n      swap1\n      tag_41\n      jump\t// in\n    tag_107:\n      mload(0x40)\n      dup1\n      swap2\n      sub\n      swap1\n      return\n        /* \"contracts/Pool/Pool.sol\":10489:10710  function setNewDevAddress(address payable dev) public onlyDev() {... */\n    tag_19:\n      callvalue\n      dup1\n      iszero\n      tag_108\n      jumpi\n      0x00\n      dup1\n      revert\n    tag_108:\n      pop\n      tag_109\n      0x04\n      dup1\n      calldatasize\n      sub\n      dup2\n      add\n      swap1\n      tag_110\n      swap2\n      swap1\n      tag_88\n      jump\t// in\n    tag_110:\n      tag_111\n      jump\t// in\n    tag_109:\n      stop\n        /* \"contracts/Pool/Pool.sol\":13588:13847  function manualswap() external {... */\n    tag_20:\n      callvalue\n      dup1\n      iszero\n      tag_112\n      jumpi\n      0x00\n      dup1\n      revert\n    tag_112:\n      pop\n      tag_113\n      tag_114\n      jump\t// in\n    tag_113:\n      stop\n        /* \"contracts/Pool/Pool.sol\":14776:15006  function excludeMultipleAccountsFromFees(address[] calldata accounts, bool excluded) public onlyOwner {... */\n    tag_21:\n      callvalue\n      dup1\n      iszero\n      tag_115\n      jumpi\n      0x00\n      dup1\n      revert\n    tag_115:\n      pop\n      tag_116\n      0x04\n      dup1\n      calldatasize\n      sub\n      dup2\n      add\n      swap1\n      tag_117\n      swap2\n      swap1\n      tag_118\n      jump\t// in\n    tag_117:\n      tag_119\n      jump\t// in\n    tag_116:\n      stop\n        /* \"contracts/Pool/Pool.sol\":6606:6747  function allowance(address owner, address spender) public view override returns (uint256) {... */\n    tag_22:\n      callvalue\n      dup1\n      iszero\n      tag_120\n      jumpi\n      0x00\n      dup1\n      revert\n    tag_120:\n      pop\n      tag_121\n      0x04\n      dup1\n      calldatasize\n      sub\n      dup2\n      add\n      swap1\n      tag_122\n      swap2\n      swap1\n      tag_123\n      jump\t// in\n    tag_122:\n      tag_124\n      jump\t// in\n    tag_121:\n      mload(0x40)\n      tag_125\n      swap2\n      swap1\n      tag_51\n      jump\t// in\n    tag_125:\n      mload(0x40)\n      dup1\n      swap2\n      sub\n      swap1\n      return\n        /* \"contracts/Pool/Pool.sol\":10198:10403  function rescueForeignTokens(address _tokenAddr, address _to, uint _amount) public onlyDev() {... */\n    tag_23:\n      callvalue\n      dup1\n      iszero\n      tag_126\n      jumpi\n      0x00\n      dup1\n      revert\n    tag_126:\n      pop\n      tag_127\n      0x04\n      dup1\n      calldatasize\n      sub\n      dup2\n      add\n      swap1\n      tag_128\n      swap2\n      swap1\n      tag_55\n      jump\t// in\n    tag_128:\n      tag_129\n      jump\t// in\n    tag_127:\n      stop\n        /* \"contracts/Pool/Pool.sol\":3625:3782  function transferOwnership(address newOwner) public virtual onlyOwner {... */\n    tag_24:\n      callvalue\n      dup1\n      iszero\n      tag_130\n      jumpi\n      0x00\n      dup1\n      revert\n    tag_130:\n      pop\n      tag_131\n      0x04\n      dup1\n      calldatasize\n      sub\n      dup2\n      add\n      swap1\n      tag_132\n      swap2\n      swap1\n      tag_79\n      jump\t// in\n    tag_132:\n      tag_133\n      jump\t// in\n    tag_131:\n      stop\n        /* \"contracts/Pool/Pool.sol\":5930:6011  function name() public pure returns (string memory) {... */\n    tag_32:\n        /* \"contracts/Pool/Pool.sol\":5967:5980  string memory */\n      0x60\n        /* \"contracts/Pool/Pool.sol\":5999:6004  _name */\n      mload(0x40)\n      dup1\n      0x40\n      add\n      0x40\n      mstore\n      dup1\n      0x0a\n      dup2\n      mstore\n      0x20\n      add\n      0x576f726c64205374657000000000000000000000000000000000000000000000\n      dup2\n      mstore\n      pop\n        /* \"contracts/Pool/Pool.sol\":5992:6004  return _name */\n      swap1\n      pop\n        /* \"contracts/Pool/Pool.sol\":5930:6011  function name() public pure returns (string memory) {... */\n      swap1\n      jump\t// out\n        /* \"contracts/Pool/Pool.sol\":6753:6911  function approve(address spender, uint256 amount) public override returns (bool) {... */\n    tag_39:\n        /* \"contracts/Pool/Pool.sol\":6828:6832  bool */\n      0x00\n        /* \"contracts/Pool/Pool.sol\":6844:6883  _approve(_msgSender(), spender, amount) */\n      tag_136\n        /* \"contracts/Pool/Pool.sol\":6853:6865  _msgSender() */\n      tag_137\n        /* \"contracts/Pool/Pool.sol\":6853:6863  _msgSender */\n      tag_138\n        /* \"contracts/Pool/Pool.sol\":6853:6865  _msgSender() */\n      jump\t// in\n    tag_137:\n        /* \"contracts/Pool/Pool.sol\":6867:6874  spender */\n      dup5\n        /* \"contracts/Pool/Pool.sol\":6876:6882  amount */\n      dup5\n        /* \"contracts/Pool/Pool.sol\":6844:6852  _approve */\n      tag_139\n        /* \"contracts/Pool/Pool.sol\":6844:6883  _approve(_msgSender(), spender, amount) */\n      jump\t// in\n    tag_136:\n        /* \"contracts/Pool/Pool.sol\":6900:6904  true */\n      0x01\n        /* \"contracts/Pool/Pool.sol\":6893:6904  return true */\n      swap1\n      pop\n        /* \"contracts/Pool/Pool.sol\":6753:6911  function approve(address spender, uint256 amount) public override returns (bool) {... */\n      swap3\n      swap2\n      pop\n      pop\n      jump\t// out\n        /* \"contracts/Pool/Pool.sol\":4891:4932  IUniswapV2Router02 public uniswapV2Router */\n    tag_44:\n      0x10\n      0x00\n      swap1\n      sload\n      swap1\n      0x0100\n      exp\n      swap1\n      div\n      0xffffffffffffffffffffffffffffffffffffffff\n      and\n      dup2\n      jump\t// out\n        /* \"contracts/Pool/Pool.sol\":6195:6288  function totalSupply() public pure override returns (uint256) {... */\n    tag_49:\n        /* \"contracts/Pool/Pool.sol\":6248:6255  uint256 */\n      0x00\n        /* \"contracts/Pool/Pool.sol\":4200:4213  1*10**9*10**9 */\n      0x0de0b6b3a7640000\n        /* \"contracts/Pool/Pool.sol\":6267:6281  return _tTotal */\n      swap1\n      pop\n        /* \"contracts/Pool/Pool.sol\":6195:6288  function totalSupply() public pure override returns (uint256) {... */\n      swap1\n      jump\t// out\n        /* \"contracts/Pool/Pool.sol\":6917:7226  function transferFrom(address sender, address recipient, uint256 amount) public override returns (bool) {... */\n    tag_56:\n        /* \"contracts/Pool/Pool.sol\":7015:7019  bool */\n      0x00\n        /* \"contracts/Pool/Pool.sol\":7031:7067  _transfer(sender, recipient, amount) */\n      tag_142\n        /* \"contracts/Pool/Pool.sol\":7041:7047  sender */\n      dup5\n        /* \"contracts/Pool/Pool.sol\":7049:7058  recipient */\n      dup5\n        /* \"contracts/Pool/Pool.sol\":7060:7066  amount */\n      dup5\n        /* \"contracts/Pool/Pool.sol\":7031:7040  _transfer */\n      tag_143\n        /* \"contracts/Pool/Pool.sol\":7031:7067  _transfer(sender, recipient, amount) */\n      jump\t// in\n    tag_142:\n        /* \"contracts/Pool/Pool.sol\":7077:7198  _approve(sender, _msgSender(), _allowances[sender][_msgSender()].sub(amount, \"ERC20: transfer amount exceeds allowance\")) */\n      tag_144\n        /* \"contracts/Pool/Pool.sol\":7086:7092  sender */\n      dup5\n        /* \"contracts/Pool/Pool.sol\":7094:7106  _msgSender() */\n      tag_145\n        /* \"contracts/Pool/Pool.sol\":7094:7104  _msgSender */\n      tag_138\n        /* \"contracts/Pool/Pool.sol\":7094:7106  _msgSender() */\n      jump\t// in\n    tag_145:\n        /* \"contracts/Pool/Pool.sol\":7108:7197  _allowances[sender][_msgSender()].sub(amount, \"ERC20: transfer amount exceeds allowance\") */\n      tag_146\n        /* \"contracts/Pool/Pool.sol\":7146:7152  amount */\n      dup6\n        /* \"contracts/Pool/Pool.sol\":7108:7197  _allowances[sender][_msgSender()].sub(amount, \"ERC20: transfer amount exceeds allowance\") */\n      mload(0x40)\n      dup1\n      0x60\n      add\n      0x40\n      mstore\n      dup1\n      0x28\n      dup2\n      mstore\n      0x20\n      add\n      data_974d1b4421da69cc60b481194f0dad36a5bb4e23da810da7a7fb30cdba178330\n      0x28\n      swap2\n      codecopy\n        /* \"contracts/Pool/Pool.sol\":7108:7119  _allowances */\n      0x04\n        /* \"contracts/Pool/Pool.sol\":7108:7127  _allowances[sender] */\n      0x00\n        /* \"contracts/Pool/Pool.sol\":7120:7126  sender */\n      dup12\n        /* \"contracts/Pool/Pool.sol\":7108:7127  _allowances[sender] */\n      0xffffffffffffffffffffffffffffffffffffffff\n      and\n      0xffffffffffffffffffffffffffffffffffffffff\n      and\n      dup2\n      mstore\n      0x20\n      add\n      swap1\n      dup2\n      mstore\n      0x20\n      add\n      0x00\n      keccak256\n        /* \"contracts/Pool/Pool.sol\":7108:7141  _allowances[sender][_msgSender()] */\n      0x00\n        /* \"contracts/Pool/Pool.sol\":7128:7140  _msgSender() */\n      tag_147\n        /* \"contracts/Pool/Pool.sol\":7128:7138  _msgSender */\n      tag_138\n        /* \"contracts/Pool/Pool.sol\":7128:7140  _msgSender() */\n      jump\t// in\n    tag_147:\n        /* \"contracts/Pool/Pool.sol\":7108:7141  _allowances[sender][_msgSender()] */\n      0xffffffffffffffffffffffffffffffffffffffff\n      and\n      0xffffffffffffffffffffffffffffffffffffffff\n      and\n      dup2\n      mstore\n      0x20\n      add\n      swap1\n      dup2\n      mstore\n      0x20\n      add\n      0x00\n      keccak256\n      sload\n        /* \"contracts/Pool/Pool.sol\":7108:7145  _allowances[sender][_msgSender()].sub */\n      tag_148\n      swap1\n        /* \"contracts/Pool/Pool.sol\":7108:7197  _allowances[sender][_msgSender()].sub(amount, \"ERC20: transfer amount exceeds allowance\") */\n      swap3\n      swap2\n      swap1\n      0xffffffff\n      and\n      jump\t// in\n    tag_146:\n        /* \"contracts/Pool/Pool.sol\":7077:7085  _approve */\n      tag_139\n        /* \"contracts/Pool/Pool.sol\":7077:7198  _approve(sender, _msgSender(), _allowances[sender][_msgSender()].sub(amount, \"ERC20: transfer amount exceeds allowance\")) */\n      jump\t// in\n    tag_144:\n        /* \"contracts/Pool/Pool.sol\":7215:7219  true */\n      0x01\n        /* \"contracts/Pool/Pool.sol\":7208:7219  return true */\n      swap1\n      pop\n        /* \"contracts/Pool/Pool.sol\":6917:7226  function transferFrom(address sender, address recipient, uint256 amount) public override returns (bool) {... */\n      swap4\n      swap3\n      pop\n      pop\n      pop\n      jump\t// out\n        /* \"contracts/Pool/Pool.sol\":6108:6189  function decimals() public pure returns (uint8) {... */\n    tag_60:\n        /* \"contracts/Pool/Pool.sol\":6149:6154  uint8 */\n      0x00\n        /* \"contracts/Pool/Pool.sol\":4674:4675  9 */\n      0x09\n        /* \"contracts/Pool/Pool.sol\":6166:6182  return _decimals */\n      swap1\n      pop\n        /* \"contracts/Pool/Pool.sol\":6108:6189  function decimals() public pure returns (uint8) {... */\n      swap1\n      jump\t// out\n        /* \"contracts/Pool/Pool.sol\":4938:4966  address public uniswapV2Pair */\n    tag_65:\n      0x11\n      0x00\n      swap1\n      sload\n      swap1\n      0x0100\n      exp\n      swap1\n      div\n      0xffffffffffffffffffffffffffffffffffffffff\n      and\n      dup2\n      jump\t// out\n        /* \"contracts/Pool/Pool.sol\":14673:14770  function toggleSwap(bool _swapEnabled) public onlyDev {... */\n    tag_72:\n        /* \"contracts/Pool/Pool.sol\":5827:5839  _msgSender() */\n      tag_151\n        /* \"contracts/Pool/Pool.sol\":5827:5837  _msgSender */\n      tag_138\n        /* \"contracts/Pool/Pool.sol\":5827:5839  _msgSender() */\n      jump\t// in\n    tag_151:\n        /* \"contracts/Pool/Pool.sol\":5816:5839  owner() == _msgSender() */\n      0xffffffffffffffffffffffffffffffffffffffff\n      and\n        /* \"contracts/Pool/Pool.sol\":5816:5823  owner() */\n      tag_152\n        /* \"contracts/Pool/Pool.sol\":5816:5821  owner */\n      tag_92\n        /* \"contracts/Pool/Pool.sol\":5816:5823  owner() */\n      jump\t// in\n    tag_152:\n        /* \"contracts/Pool/Pool.sol\":5816:5839  owner() == _msgSender() */\n      0xffffffffffffffffffffffffffffffffffffffff\n      and\n      eq\n        /* \"contracts/Pool/Pool.sol\":5816:5878  owner() == _msgSender() || _developmentAddress == _msgSender() */\n      dup1\n      tag_153\n      jumpi\n      pop\n        /* \"contracts/Pool/Pool.sol\":5866:5878  _msgSender() */\n      tag_154\n        /* \"contracts/Pool/Pool.sol\":5866:5876  _msgSender */\n      tag_138\n        /* \"contracts/Pool/Pool.sol\":5866:5878  _msgSender() */\n      jump\t// in\n    tag_154:\n        /* \"contracts/Pool/Pool.sol\":5843:5878  _developmentAddress == _msgSender() */\n      0xffffffffffffffffffffffffffffffffffffffff\n      and\n        /* \"contracts/Pool/Pool.sol\":5843:5862  _developmentAddress */\n      0x0e\n      0x00\n      swap1\n      sload\n      swap1\n      0x0100\n      exp\n      swap1\n      div\n      0xffffffffffffffffffffffffffffffffffffffff\n      and\n        /* \"contracts/Pool/Pool.sol\":5843:5878  _developmentAddress == _msgSender() */\n      0xffffffffffffffffffffffffffffffffffffffff\n      and\n      eq\n        /* \"contracts/Pool/Pool.sol\":5816:5878  owner() == _msgSender() || _developmentAddress == _msgSender() */\n    tag_153:\n        /* \"contracts/Pool/Pool.sol\":5808:5904  require(owner() == _msgSender() || _developmentAddress == _msgSender(), \"Caller is not the dev\") */\n      tag_155\n      jumpi\n      mload(0x40)\n      0x08c379a000000000000000000000000000000000000000000000000000000000\n      dup2\n      mstore\n      0x04\n      add\n      tag_156\n      swap1\n      tag_157\n      jump\t// in\n    tag_156:\n      mload(0x40)\n      dup1\n      swap2\n      sub\n      swap1\n      revert\n    tag_155:\n        /* \"contracts/Pool/Pool.sol\":14751:14763  _swapEnabled */\n      dup1\n        /* \"contracts/Pool/Pool.sol\":14737:14748  swapEnabled */\n      0x11\n      0x15\n        /* \"contracts/Pool/Pool.sol\":14737:14763  swapEnabled = _swapEnabled */\n      0x0100\n      exp\n      dup2\n      sload\n      dup2\n      0xff\n      mul\n      not\n      and\n      swap1\n      dup4\n      iszero\n      iszero\n      mul\n      or\n      swap1\n      sstore\n      pop\n        /* \"contracts/Pool/Pool.sol\":14673:14770  function toggleSwap(bool _swapEnabled) public onlyDev {... */\n      pop\n      jump\t// out\n        /* \"contracts/Pool/Pool.sol\":13853:14111  function manualsend() external {... */\n    tag_75:\n        /* \"contracts/Pool/Pool.sol\":13918:13937  _developmentAddress */\n      0x0e\n      0x00\n      swap1\n      sload\n      swap1\n      0x0100\n      exp\n      swap1\n      div\n      0xffffffffffffffffffffffffffffffffffffffff\n      and\n        /* \"contracts/Pool/Pool.sol\":13902:13937  _msgSender() == _developmentAddress */\n      0xffffffffffffffffffffffffffffffffffffffff\n      and\n        /* \"contracts/Pool/Pool.sol\":13902:13914  _msgSender() */\n      tag_160\n        /* \"contracts/Pool/Pool.sol\":13902:13912  _msgSender */\n      tag_138\n        /* \"contracts/Pool/Pool.sol\":13902:13914  _msgSender() */\n      jump\t// in\n    tag_160:\n        /* \"contracts/Pool/Pool.sol\":13902:13937  _msgSender() == _developmentAddress */\n      0xffffffffffffffffffffffffffffffffffffffff\n      and\n      eq\n        /* \"contracts/Pool/Pool.sol\":13902:13974  _msgSender() == _developmentAddress || _msgSender() == _marketingAddress */\n      dup1\n      tag_161\n      jumpi\n      pop\n        /* \"contracts/Pool/Pool.sol\":13957:13974  _marketingAddress */\n      0x0f\n      0x00\n      swap1\n      sload\n      swap1\n      0x0100\n      exp\n      swap1\n      div\n      0xffffffffffffffffffffffffffffffffffffffff\n      and\n        /* \"contracts/Pool/Pool.sol\":13941:13974  _msgSender() == _marketingAddress */\n      0xffffffffffffffffffffffffffffffffffffffff\n      and\n        /* \"contracts/Pool/Pool.sol\":13941:13953  _msgSender() */\n      tag_162\n        /* \"contracts/Pool/Pool.sol\":13941:13951  _msgSender */\n      tag_138\n        /* \"contracts/Pool/Pool.sol\":13941:13953  _msgSender() */\n      jump\t// in\n    tag_162:\n        /* \"contracts/Pool/Pool.sol\":13941:13974  _msgSender() == _marketingAddress */\n      0xffffffffffffffffffffffffffffffffffffffff\n      and\n      eq\n        /* \"contracts/Pool/Pool.sol\":13902:13974  _msgSender() == _developmentAddress || _msgSender() == _marketingAddress */\n    tag_161:\n        /* \"contracts/Pool/Pool.sol\":13902:14001  _msgSender() == _developmentAddress || _msgSender() == _marketingAddress || _msgSender() == owner() */\n      dup1\n      tag_163\n      jumpi\n      pop\n        /* \"contracts/Pool/Pool.sol\":13994:14001  owner() */\n      tag_164\n        /* \"contracts/Pool/Pool.sol\":13994:13999  owner */\n      tag_92\n        /* \"contracts/Pool/Pool.sol\":13994:14001  owner() */\n      jump\t// in\n    tag_164:\n        /* \"contracts/Pool/Pool.sol\":13978:14001  _msgSender() == owner() */\n      0xffffffffffffffffffffffffffffffffffffffff\n      and\n        /* \"contracts/Pool/Pool.sol\":13978:13990  _msgSender() */\n      tag_165\n        /* \"contracts/Pool/Pool.sol\":13978:13988  _msgSender */\n      tag_138\n        /* \"contracts/Pool/Pool.sol\":13978:13990  _msgSender() */\n      jump\t// in\n    tag_165:\n        /* \"contracts/Pool/Pool.sol\":13978:14001  _msgSender() == owner() */\n      0xffffffffffffffffffffffffffffffffffffffff\n      and\n      eq\n        /* \"contracts/Pool/Pool.sol\":13902:14001  _msgSender() == _developmentAddress || _msgSender() == _marketingAddress || _msgSender() == owner() */\n    tag_163:\n        /* \"contracts/Pool/Pool.sol\":13894:14002  require(_msgSender() == _developmentAddress || _msgSender() == _marketingAddress || _msgSender() == owner()) */\n      tag_166\n      jumpi\n      0x00\n      dup1\n      revert\n    tag_166:\n        /* \"contracts/Pool/Pool.sol\":14012:14038  uint256 contractETHBalance */\n      0x00\n        /* \"contracts/Pool/Pool.sol\":14041:14062  address(this).balance */\n      selfbalance\n        /* \"contracts/Pool/Pool.sol\":14012:14062  uint256 contractETHBalance = address(this).balance */\n      swap1\n      pop\n        /* \"contracts/Pool/Pool.sol\":14072:14104  sendETHToFee(contractETHBalance) */\n      tag_167\n        /* \"contracts/Pool/Pool.sol\":14085:14103  contractETHBalance */\n      dup2\n        /* \"contracts/Pool/Pool.sol\":14072:14084  sendETHToFee */\n      tag_168\n        /* \"contracts/Pool/Pool.sol\":14072:14104  sendETHToFee(contractETHBalance) */\n      jump\t// in\n    tag_167:\n        /* \"contracts/Pool/Pool.sol\":13884:14111  {... */\n      pop\n        /* \"contracts/Pool/Pool.sol\":13853:14111  function manualsend() external {... */\n      jump\t// out\n        /* \"contracts/Pool/Pool.sol\":6294:6430  function balanceOf(address account) public view override returns (uint256) {... */\n    tag_80:\n        /* \"contracts/Pool/Pool.sol\":6360:6367  uint256 */\n      0x00\n        /* \"contracts/Pool/Pool.sol\":6386:6423  tokenFromReflection(_rOwned[account]) */\n      tag_170\n        /* \"contracts/Pool/Pool.sol\":6406:6413  _rOwned */\n      0x02\n        /* \"contracts/Pool/Pool.sol\":6406:6422  _rOwned[account] */\n      0x00\n        /* \"contracts/Pool/Pool.sol\":6414:6421  account */\n      dup5\n        /* \"contracts/Pool/Pool.sol\":6406:6422  _rOwned[account] */\n      0xffffffffffffffffffffffffffffffffffffffff\n      and\n      0xffffffffffffffffffffffffffffffffffffffff\n      and\n      dup2\n      mstore\n      0x20\n      add\n      swap1\n      dup2\n      mstore\n      0x20\n      add\n      0x00\n      keccak256\n      sload\n        /* \"contracts/Pool/Pool.sol\":6386:6405  tokenFromReflection */\n      tag_171\n        /* \"contracts/Pool/Pool.sol\":6386:6423  tokenFromReflection(_rOwned[account]) */\n      jump\t// in\n    tag_170:\n        /* \"contracts/Pool/Pool.sol\":6379:6423  return tokenFromReflection(_rOwned[account]) */\n      swap1\n      pop\n        /* \"contracts/Pool/Pool.sol\":6294:6430  function balanceOf(address account) public view override returns (uint256) {... */\n      swap2\n      swap1\n      pop\n      jump\t// out\n        /* \"contracts/Pool/Pool.sol\":3381:3526  function renounceOwnership() public virtual onlyOwner {... */\n    tag_84:\n        /* \"contracts/Pool/Pool.sol\":3317:3329  _msgSender() */\n      tag_173\n        /* \"contracts/Pool/Pool.sol\":3317:3327  _msgSender */\n      tag_138\n        /* \"contracts/Pool/Pool.sol\":3317:3329  _msgSender() */\n      jump\t// in\n    tag_173:\n        /* \"contracts/Pool/Pool.sol\":3307:3329  _owner == _msgSender() */\n      0xffffffffffffffffffffffffffffffffffffffff\n      and\n        /* \"contracts/Pool/Pool.sol\":3307:3313  _owner */\n      0x00\n      dup1\n      sload\n      swap1\n      0x0100\n      exp\n      swap1\n      div\n      0xffffffffffffffffffffffffffffffffffffffff\n      and\n        /* \"contracts/Pool/Pool.sol\":3307:3329  _owner == _msgSender() */\n      0xffffffffffffffffffffffffffffffffffffffff\n      and\n      eq\n        /* \"contracts/Pool/Pool.sol\":3299:3357  require(_owner == _msgSender(), \"Caller is not the owner\") */\n      tag_174\n      jumpi\n      mload(0x40)\n      0x08c379a000000000000000000000000000000000000000000000000000000000\n      dup2\n      mstore\n      0x04\n      add\n      tag_175\n      swap1\n      tag_176\n      jump\t// in\n    tag_175:\n      mload(0x40)\n      dup1\n      swap2\n      sub\n      swap1\n      revert\n    tag_174:\n        /* \"contracts/Pool/Pool.sol\":3487:3488  0 */\n      0x00\n        /* \"contracts/Pool/Pool.sol\":3450:3490  OwnershipTransferred(_owner, address(0)) */\n      0xffffffffffffffffffffffffffffffffffffffff\n      and\n        /* \"contracts/Pool/Pool.sol\":3471:3477  _owner */\n      0x00\n      dup1\n      sload\n      swap1\n      0x0100\n      exp\n      swap1\n      div\n      0xffffffffffffffffffffffffffffffffffffffff\n      and\n        /* \"contracts/Pool/Pool.sol\":3450:3490  OwnershipTransferred(_owner, address(0)) */\n      0xffffffffffffffffffffffffffffffffffffffff\n      and\n      0x8be0079c531659141344cd1fd0a4f28419497f9722a3daafe3b4186f6b6457e0\n      mload(0x40)\n      mload(0x40)\n      dup1\n      swap2\n      sub\n      swap1\n      log3\n        /* \"contracts/Pool/Pool.sol\":3517:3518  0 */\n      0x00\n        /* \"contracts/Pool/Pool.sol\":3500:3506  _owner */\n      dup1\n      0x00\n        /* \"contracts/Pool/Pool.sol\":3500:3519  _owner = address(0) */\n      0x0100\n      exp\n      dup2\n      sload\n      dup2\n      0xffffffffffffffffffffffffffffffffffffffff\n      mul\n      not\n      and\n      swap1\n      dup4\n      0xffffffffffffffffffffffffffffffffffffffff\n      and\n      mul\n      or\n      swap1\n      sstore\n      pop\n        /* \"contracts/Pool/Pool.sol\":3381:3526  function renounceOwnership() public virtual onlyOwner {... */\n      jump\t// out\n        /* \"contracts/Pool/Pool.sol\":10802:11035  function setNewMarketingAddress(address payable markt) public onlyDev() {... */\n    tag_89:\n        /* \"contracts/Pool/Pool.sol\":5827:5839  _msgSender() */\n      tag_179\n        /* \"contracts/Pool/Pool.sol\":5827:5837  _msgSender */\n      tag_138\n        /* \"contracts/Pool/Pool.sol\":5827:5839  _msgSender() */\n      jump\t// in\n    tag_179:\n        /* \"contracts/Pool/Pool.sol\":5816:5839  owner() == _msgSender() */\n      0xffffffffffffffffffffffffffffffffffffffff\n      and\n        /* \"contracts/Pool/Pool.sol\":5816:5823  owner() */\n      tag_180\n        /* \"contracts/Pool/Pool.sol\":5816:5821  owner */\n      tag_92\n        /* \"contracts/Pool/Pool.sol\":5816:5823  owner() */\n      jump\t// in\n    tag_180:\n        /* \"contracts/Pool/Pool.sol\":5816:5839  owner() == _msgSender() */\n      0xffffffffffffffffffffffffffffffffffffffff\n      and\n      eq\n        /* \"contracts/Pool/Pool.sol\":5816:5878  owner() == _msgSender() || _developmentAddress == _msgSender() */\n      dup1\n      tag_181\n      jumpi\n      pop\n        /* \"contracts/Pool/Pool.sol\":5866:5878  _msgSender() */\n      tag_182\n        /* \"contracts/Pool/Pool.sol\":5866:5876  _msgSender */\n      tag_138\n        /* \"contracts/Pool/Pool.sol\":5866:5878  _msgSender() */\n      jump\t// in\n    tag_182:\n        /* \"contracts/Pool/Pool.sol\":5843:5878  _developmentAddress == _msgSender() */\n      0xffffffffffffffffffffffffffffffffffffffff\n      and\n        /* \"contracts/Pool/Pool.sol\":5843:5862  _developmentAddress */\n      0x0e\n      0x00\n      swap1\n      sload\n      swap1\n      0x0100\n      exp\n      swap1\n      div\n      0xffffffffffffffffffffffffffffffffffffffff\n      and\n        /* \"contracts/Pool/Pool.sol\":5843:5878  _developmentAddress == _msgSender() */\n      0xffffffffffffffffffffffffffffffffffffffff\n      and\n      eq\n        /* \"contracts/Pool/Pool.sol\":5816:5878  owner() == _msgSender() || _developmentAddress == _msgSender() */\n    tag_181:\n        /* \"contracts/Pool/Pool.sol\":5808:5904  require(owner() == _msgSender() || _developmentAddress == _msgSender(), \"Caller is not the dev\") */\n      tag_183\n      jumpi\n      mload(0x40)\n      0x08c379a000000000000000000000000000000000000000000000000000000000\n      dup2\n      mstore\n      0x04\n      add\n      tag_184\n      swap1\n      tag_157\n      jump\t// in\n    tag_184:\n      mload(0x40)\n      dup1\n      swap2\n      sub\n      swap1\n      revert\n    tag_183:\n        /* \"contracts/Pool/Pool.sol\":10932:10937  markt */\n      dup1\n        /* \"contracts/Pool/Pool.sol\":10889:10938  marketingAddressUpdated(_marketingAddress, markt) */\n      0xffffffffffffffffffffffffffffffffffffffff\n      and\n        /* \"contracts/Pool/Pool.sol\":10913:10930  _marketingAddress */\n      0x0f\n      0x00\n      swap1\n      sload\n      swap1\n      0x0100\n      exp\n      swap1\n      div\n      0xffffffffffffffffffffffffffffffffffffffff\n      and\n        /* \"contracts/Pool/Pool.sol\":10889:10938  marketingAddressUpdated(_marketingAddress, markt) */\n      0xffffffffffffffffffffffffffffffffffffffff\n      and\n      0xa64373a629bc0c09eacf8a9cc2c7b070fa0a8b7e2e9b8aaee408a3c02eb1676b\n      mload(0x40)\n      mload(0x40)\n      dup1\n      swap2\n      sub\n      swap1\n      log3\n        /* \"contracts/Pool/Pool.sol\":10969:10974  markt */\n      dup1\n        /* \"contracts/Pool/Pool.sol\":10949:10966  _marketingAddress */\n      0x0f\n      0x00\n        /* \"contracts/Pool/Pool.sol\":10949:10974  _marketingAddress = markt */\n      0x0100\n      exp\n      dup2\n      sload\n      dup2\n      0xffffffffffffffffffffffffffffffffffffffff\n      mul\n      not\n      and\n      swap1\n      dup4\n      0xffffffffffffffffffffffffffffffffffffffff\n      and\n      mul\n      or\n      swap1\n      sstore\n      pop\n        /* \"contracts/Pool/Pool.sol\":11024:11028  true */\n      0x01\n        /* \"contracts/Pool/Pool.sol\":10984:11002  _isExcludedFromFee */\n      0x05\n        /* \"contracts/Pool/Pool.sol\":10984:11021  _isExcludedFromFee[_marketingAddress] */\n      0x00\n        /* \"contracts/Pool/Pool.sol\":11003:11020  _marketingAddress */\n      0x0f\n      0x00\n      swap1\n      sload\n      swap1\n      0x0100\n      exp\n      swap1\n      div\n      0xffffffffffffffffffffffffffffffffffffffff\n      and\n        /* \"contracts/Pool/Pool.sol\":10984:11021  _isExcludedFromFee[_marketingAddress] */\n      0xffffffffffffffffffffffffffffffffffffffff\n      and\n      0xffffffffffffffffffffffffffffffffffffffff\n      and\n      dup2\n      mstore\n      0x20\n      add\n      swap1\n      dup2\n      mstore\n      0x20\n      add\n      0x00\n      keccak256\n      0x00\n        /* \"contracts/Pool/Pool.sol\":10984:11028  _isExcludedFromFee[_marketingAddress] = true */\n      0x0100\n      exp\n      dup2\n      sload\n      dup2\n      0xff\n      mul\n      not\n      and\n      swap1\n      dup4\n      iszero\n      iszero\n      mul\n      or\n      swap1\n      sstore\n      pop\n        /* \"contracts/Pool/Pool.sol\":10802:11035  function setNewMarketingAddress(address payable markt) public onlyDev() {... */\n      pop\n      jump\t// out\n        /* \"contracts/Pool/Pool.sol\":3185:3262  function owner() public view returns (address) {... */\n    tag_92:\n        /* \"contracts/Pool/Pool.sol\":3223:3230  address */\n      0x00\n        /* \"contracts/Pool/Pool.sol\":3249:3255  _owner */\n      dup1\n      0x00\n      swap1\n      sload\n      swap1\n      0x0100\n      exp\n      swap1\n      div\n      0xffffffffffffffffffffffffffffffffffffffff\n      and\n        /* \"contracts/Pool/Pool.sol\":3242:3255  return _owner */\n      swap1\n      pop\n        /* \"contracts/Pool/Pool.sol\":3185:3262  function owner() public view returns (address) {... */\n      swap1\n      jump\t// out\n        /* \"contracts/Pool/Pool.sol\":6017:6102  function symbol() public pure returns (string memory) {... */\n    tag_96:\n        /* \"contracts/Pool/Pool.sol\":6056:6069  string memory */\n      0x60\n        /* \"contracts/Pool/Pool.sol\":6088:6095  _symbol */\n      mload(0x40)\n      dup1\n      0x40\n      add\n      0x40\n      mstore\n      dup1\n      0x03\n      dup2\n      mstore\n      0x20\n      add\n      0x5753500000000000000000000000000000000000000000000000000000000000\n      dup2\n      mstore\n      pop\n        /* \"contracts/Pool/Pool.sol\":6081:6095  return _symbol */\n      swap1\n      pop\n        /* \"contracts/Pool/Pool.sol\":6017:6102  function symbol() public pure returns (string memory) {... */\n      swap1\n      jump\t// out\n        /* \"contracts/Pool/Pool.sol\":14121:14663  function setFee(uint256 redisFeeOnBuy, uint256 redisFeeOnSell, uint256 taxFeeOnBuy, uint256 taxFeeOnSell) public onlyDev {... */\n    tag_102:\n        /* \"contracts/Pool/Pool.sol\":5827:5839  _msgSender() */\n      tag_189\n        /* \"contracts/Pool/Pool.sol\":5827:5837  _msgSender */\n      tag_138\n        /* \"contracts/Pool/Pool.sol\":5827:5839  _msgSender() */\n      jump\t// in\n    tag_189:\n        /* \"contracts/Pool/Pool.sol\":5816:5839  owner() == _msgSender() */\n      0xffffffffffffffffffffffffffffffffffffffff\n      and\n        /* \"contracts/Pool/Pool.sol\":5816:5823  owner() */\n      tag_190\n        /* \"contracts/Pool/Pool.sol\":5816:5821  owner */\n      tag_92\n        /* \"contracts/Pool/Pool.sol\":5816:5823  owner() */\n      jump\t// in\n    tag_190:\n        /* \"contracts/Pool/Pool.sol\":5816:5839  owner() == _msgSender() */\n      0xffffffffffffffffffffffffffffffffffffffff\n      and\n      eq\n        /* \"contracts/Pool/Pool.sol\":5816:5878  owner() == _msgSender() || _developmentAddress == _msgSender() */\n      dup1\n      tag_191\n      jumpi\n      pop\n        /* \"contracts/Pool/Pool.sol\":5866:5878  _msgSender() */\n      tag_192\n        /* \"contracts/Pool/Pool.sol\":5866:5876  _msgSender */\n      tag_138\n        /* \"contracts/Pool/Pool.sol\":5866:5878  _msgSender() */\n      jump\t// in\n    tag_192:\n        /* \"contracts/Pool/Pool.sol\":5843:5878  _developmentAddress == _msgSender() */\n      0xffffffffffffffffffffffffffffffffffffffff\n      and\n        /* \"contracts/Pool/Pool.sol\":5843:5862  _developmentAddress */\n      0x0e\n      0x00\n      swap1\n      sload\n      swap1\n      0x0100\n      exp\n      swap1\n      div\n      0xffffffffffffffffffffffffffffffffffffffff\n      and\n        /* \"contracts/Pool/Pool.sol\":5843:5878  _developmentAddress == _msgSender() */\n      0xffffffffffffffffffffffffffffffffffffffff\n      and\n      eq\n        /* \"contracts/Pool/Pool.sol\":5816:5878  owner() == _msgSender() || _developmentAddress == _msgSender() */\n    tag_191:\n        /* \"contracts/Pool/Pool.sol\":5808:5904  require(owner() == _msgSender() || _developmentAddress == _msgSender(), \"Caller is not the dev\") */\n      tag_193\n      jumpi\n      mload(0x40)\n      0x08c379a000000000000000000000000000000000000000000000000000000000\n      dup2\n      mstore\n      0x04\n      add\n      tag_194\n      swap1\n      tag_157\n      jump\t// in\n    tag_194:\n      mload(0x40)\n      dup1\n      swap2\n      sub\n      swap1\n      revert\n    tag_193:\n        /* \"contracts/Pool/Pool.sol\":14273:14275  11 */\n      0x0b\n        /* \"contracts/Pool/Pool.sol\":14257:14270  redisFeeOnBuy */\n      dup5\n        /* \"contracts/Pool/Pool.sol\":14257:14275  redisFeeOnBuy < 11 */\n      lt\n        /* \"contracts/Pool/Pool.sol\":14249:14309  require(redisFeeOnBuy < 11, \"Redis cannot be more than 10.\") */\n      tag_196\n      jumpi\n      mload(0x40)\n      0x08c379a000000000000000000000000000000000000000000000000000000000\n      dup2\n      mstore\n      0x04\n      add\n      tag_197\n      swap1\n      tag_198\n      jump\t// in\n    tag_197:\n      mload(0x40)\n      dup1\n      swap2\n      sub\n      swap1\n      revert\n    tag_196:\n        /* \"contracts/Pool/Pool.sol\":14341:14343  11 */\n      0x0b\n        /* \"contracts/Pool/Pool.sol\":14324:14338  redisFeeOnSell */\n      dup4\n        /* \"contracts/Pool/Pool.sol\":14324:14343  redisFeeOnSell < 11 */\n      lt\n        /* \"contracts/Pool/Pool.sol\":14316:14377  require(redisFeeOnSell < 11, \"Redis cannot be more than 10.\") */\n      tag_199\n      jumpi\n      mload(0x40)\n      0x08c379a000000000000000000000000000000000000000000000000000000000\n      dup2\n      mstore\n      0x04\n      add\n      tag_200\n      swap1\n      tag_198\n      jump\t// in\n    tag_200:\n      mload(0x40)\n      dup1\n      swap2\n      sub\n      swap1\n      revert\n    tag_199:\n        /* \"contracts/Pool/Pool.sol\":14406:14407  7 */\n      0x07\n        /* \"contracts/Pool/Pool.sol\":14392:14403  taxFeeOnBuy */\n      dup3\n        /* \"contracts/Pool/Pool.sol\":14392:14407  taxFeeOnBuy < 7 */\n      lt\n        /* \"contracts/Pool/Pool.sol\":14384:14438  require(taxFeeOnBuy < 7, \"Tax cannot be more than 6.\") */\n      tag_201\n      jumpi\n      mload(0x40)\n      0x08c379a000000000000000000000000000000000000000000000000000000000\n      dup2\n      mstore\n      0x04\n      add\n      tag_202\n      swap1\n      tag_203\n      jump\t// in\n    tag_202:\n      mload(0x40)\n      dup1\n      swap2\n      sub\n      swap1\n      revert\n    tag_201:\n        /* \"contracts/Pool/Pool.sol\":14468:14469  7 */\n      0x07\n        /* \"contracts/Pool/Pool.sol\":14453:14465  taxFeeOnSell */\n      dup2\n        /* \"contracts/Pool/Pool.sol\":14453:14469  taxFeeOnSell < 7 */\n      lt\n        /* \"contracts/Pool/Pool.sol\":14445:14500  require(taxFeeOnSell < 7, \"Tax cannot be more than 6.\") */\n      tag_204\n      jumpi\n      mload(0x40)\n      0x08c379a000000000000000000000000000000000000000000000000000000000\n      dup2\n      mstore\n      0x04\n      add\n      tag_205\n      swap1\n      tag_203\n      jump\t// in\n    tag_205:\n      mload(0x40)\n      dup1\n      swap2\n      sub\n      swap1\n      revert\n    tag_204:\n        /* \"contracts/Pool/Pool.sol\":14527:14540  redisFeeOnBuy */\n      dup4\n        /* \"contracts/Pool/Pool.sol\":14510:14524  _redisFeeOnBuy */\n      0x08\n        /* \"contracts/Pool/Pool.sol\":14510:14540  _redisFeeOnBuy = redisFeeOnBuy */\n      dup2\n      swap1\n      sstore\n      pop\n        /* \"contracts/Pool/Pool.sol\":14568:14582  redisFeeOnSell */\n      dup3\n        /* \"contracts/Pool/Pool.sol\":14550:14565  _redisFeeOnSell */\n      0x0a\n        /* \"contracts/Pool/Pool.sol\":14550:14582  _redisFeeOnSell = redisFeeOnSell */\n      dup2\n      swap1\n      sstore\n      pop\n        /* \"contracts/Pool/Pool.sol\":14607:14618  taxFeeOnBuy */\n      dup2\n        /* \"contracts/Pool/Pool.sol\":14592:14604  _taxFeeOnBuy */\n      0x09\n        /* \"contracts/Pool/Pool.sol\":14592:14618  _taxFeeOnBuy = taxFeeOnBuy */\n      dup2\n      swap1\n      sstore\n      pop\n        /* \"contracts/Pool/Pool.sol\":14644:14656  taxFeeOnSell */\n      dup1\n        /* \"contracts/Pool/Pool.sol\":14628:14641  _taxFeeOnSell */\n      0x0b\n        /* \"contracts/Pool/Pool.sol\":14628:14656  _taxFeeOnSell = taxFeeOnSell */\n      dup2\n      swap1\n      sstore\n      pop\n        /* \"contracts/Pool/Pool.sol\":14121:14663  function setFee(uint256 redisFeeOnBuy, uint256 redisFeeOnSell, uint256 taxFeeOnBuy, uint256 taxFeeOnSell) public onlyDev {... */\n      pop\n      pop\n      pop\n      pop\n      jump\t// out\n        /* \"contracts/Pool/Pool.sol\":6436:6600  function transfer(address recipient, uint256 amount) public override returns (bool) {... */\n    tag_106:\n        /* \"contracts/Pool/Pool.sol\":6514:6518  bool */\n      0x00\n        /* \"contracts/Pool/Pool.sol\":6530:6572  _transfer(_msgSender(), recipient, amount) */\n      tag_207\n        /* \"contracts/Pool/Pool.sol\":6540:6552  _msgSender() */\n      tag_208\n        /* \"contracts/Pool/Pool.sol\":6540:6550  _msgSender */\n      tag_138\n        /* \"contracts/Pool/Pool.sol\":6540:6552  _msgSender() */\n      jump\t// in\n    tag_208:\n        /* \"contracts/Pool/Pool.sol\":6554:6563  recipient */\n      dup5\n        /* \"contracts/Pool/Pool.sol\":6565:6571  amount */\n      dup5\n        /* \"contracts/Pool/Pool.sol\":6530:6539  _transfer */\n      tag_143\n        /* \"contracts/Pool/Pool.sol\":6530:6572  _transfer(_msgSender(), recipient, amount) */\n      jump\t// in\n    tag_207:\n        /* \"contracts/Pool/Pool.sol\":6589:6593  true */\n      0x01\n        /* \"contracts/Pool/Pool.sol\":6582:6593  return true */\n      swap1\n      pop\n        /* \"contracts/Pool/Pool.sol\":6436:6600  function transfer(address recipient, uint256 amount) public override returns (bool) {... */\n      swap3\n      swap2\n      pop\n      pop\n      jump\t// out\n        /* \"contracts/Pool/Pool.sol\":10489:10710  function setNewDevAddress(address payable dev) public onlyDev() {... */\n    tag_111:\n        /* \"contracts/Pool/Pool.sol\":5827:5839  _msgSender() */\n      tag_210\n        /* \"contracts/Pool/Pool.sol\":5827:5837  _msgSender */\n      tag_138\n        /* \"contracts/Pool/Pool.sol\":5827:5839  _msgSender() */\n      jump\t// in\n    tag_210:\n        /* \"contracts/Pool/Pool.sol\":5816:5839  owner() == _msgSender() */\n      0xffffffffffffffffffffffffffffffffffffffff\n      and\n        /* \"contracts/Pool/Pool.sol\":5816:5823  owner() */\n      tag_211\n        /* \"contracts/Pool/Pool.sol\":5816:5821  owner */\n      tag_92\n        /* \"contracts/Pool/Pool.sol\":5816:5823  owner() */\n      jump\t// in\n    tag_211:\n        /* \"contracts/Pool/Pool.sol\":5816:5839  owner() == _msgSender() */\n      0xffffffffffffffffffffffffffffffffffffffff\n      and\n      eq\n        /* \"contracts/Pool/Pool.sol\":5816:5878  owner() == _msgSender() || _developmentAddress == _msgSender() */\n      dup1\n      tag_212\n      jumpi\n      pop\n        /* \"contracts/Pool/Pool.sol\":5866:5878  _msgSender() */\n      tag_213\n        /* \"contracts/Pool/Pool.sol\":5866:5876  _msgSender */\n      tag_138\n        /* \"contracts/Pool/Pool.sol\":5866:5878  _msgSender() */\n      jump\t// in\n    tag_213:\n        /* \"contracts/Pool/Pool.sol\":5843:5878  _developmentAddress == _msgSender() */\n      0xffffffffffffffffffffffffffffffffffffffff\n      and\n        /* \"contracts/Pool/Pool.sol\":5843:5862  _developmentAddress */\n      0x0e\n      0x00\n      swap1\n      sload\n      swap1\n      0x0100\n      exp\n      swap1\n      div\n      0xffffffffffffffffffffffffffffffffffffffff\n      and\n        /* \"contracts/Pool/Pool.sol\":5843:5878  _developmentAddress == _msgSender() */\n      0xffffffffffffffffffffffffffffffffffffffff\n      and\n      eq\n        /* \"contracts/Pool/Pool.sol\":5816:5878  owner() == _msgSender() || _developmentAddress == _msgSender() */\n    tag_212:\n        /* \"contracts/Pool/Pool.sol\":5808:5904  require(owner() == _msgSender() || _developmentAddress == _msgSender(), \"Caller is not the dev\") */\n      tag_214\n      jumpi\n      mload(0x40)\n      0x08c379a000000000000000000000000000000000000000000000000000000000\n      dup2\n      mstore\n      0x04\n      add\n      tag_215\n      swap1\n      tag_157\n      jump\t// in\n    tag_215:\n      mload(0x40)\n      dup1\n      swap2\n      sub\n      swap1\n      revert\n    tag_214:\n        /* \"contracts/Pool/Pool.sol\":10607:10610  dev */\n      dup1\n        /* \"contracts/Pool/Pool.sol\":10568:10611  devAddressUpdated(_developmentAddress, dev) */\n      0xffffffffffffffffffffffffffffffffffffffff\n      and\n        /* \"contracts/Pool/Pool.sol\":10586:10605  _developmentAddress */\n      0x0e\n      0x00\n      swap1\n      sload\n      swap1\n      0x0100\n      exp\n      swap1\n      div\n      0xffffffffffffffffffffffffffffffffffffffff\n      and\n        /* \"contracts/Pool/Pool.sol\":10568:10611  devAddressUpdated(_developmentAddress, dev) */\n      0xffffffffffffffffffffffffffffffffffffffff\n      and\n      0xfbbc329437e8c79f847e170730ad6dd04106b7511cad70d06d635886d92de83c\n      mload(0x40)\n      mload(0x40)\n      dup1\n      swap2\n      sub\n      swap1\n      log3\n        /* \"contracts/Pool/Pool.sol\":10644:10647  dev */\n      dup1\n        /* \"contracts/Pool/Pool.sol\":10622:10641  _developmentAddress */\n      0x0e\n      0x00\n        /* \"contracts/Pool/Pool.sol\":10622:10647  _developmentAddress = dev */\n      0x0100\n      exp\n      dup2\n      sload\n      dup2\n      0xffffffffffffffffffffffffffffffffffffffff\n      mul\n      not\n      and\n      swap1\n      dup4\n      0xffffffffffffffffffffffffffffffffffffffff\n      and\n      mul\n      or\n      swap1\n      sstore\n      pop\n        /* \"contracts/Pool/Pool.sol\":10699:10703  true */\n      0x01\n        /* \"contracts/Pool/Pool.sol\":10657:10675  _isExcludedFromFee */\n      0x05\n        /* \"contracts/Pool/Pool.sol\":10657:10696  _isExcludedFromFee[_developmentAddress] */\n      0x00\n        /* \"contracts/Pool/Pool.sol\":10676:10695  _developmentAddress */\n      0x0e\n      0x00\n      swap1\n      sload\n      swap1\n      0x0100\n      exp\n      swap1\n      div\n      0xffffffffffffffffffffffffffffffffffffffff\n      and\n        /* \"contracts/Pool/Pool.sol\":10657:10696  _isExcludedFromFee[_developmentAddress] */\n      0xffffffffffffffffffffffffffffffffffffffff\n      and\n      0xffffffffffffffffffffffffffffffffffffffff\n      and\n      dup2\n      mstore\n      0x20\n      add\n      swap1\n      dup2\n      mstore\n      0x20\n      add\n      0x00\n      keccak256\n      0x00\n        /* \"contracts/Pool/Pool.sol\":10657:10703  _isExcludedFromFee[_developmentAddress] = true */\n      0x0100\n      exp\n      dup2\n      sload\n      dup2\n      0xff\n      mul\n      not\n      and\n      swap1\n      dup4\n      iszero\n      iszero\n      mul\n      or\n      swap1\n      sstore\n      pop\n        /* \"contracts/Pool/Pool.sol\":10489:10710  function setNewDevAddress(address payable dev) public onlyDev() {... */\n      pop\n      jump\t// out\n        /* \"contracts/Pool/Pool.sol\":13588:13847  function manualswap() external {... */\n    tag_114:\n        /* \"contracts/Pool/Pool.sol\":13653:13672  _developmentAddress */\n      0x0e\n      0x00\n      swap1\n      sload\n      swap1\n      0x0100\n      exp\n      swap1\n      div\n      0xffffffffffffffffffffffffffffffffffffffff\n      and\n        /* \"contracts/Pool/Pool.sol\":13637:13672  _msgSender() == _developmentAddress */\n      0xffffffffffffffffffffffffffffffffffffffff\n      and\n        /* \"contracts/Pool/Pool.sol\":13637:13649  _msgSender() */\n      tag_218\n        /* \"contracts/Pool/Pool.sol\":13637:13647  _msgSender */\n      tag_138\n        /* \"contracts/Pool/Pool.sol\":13637:13649  _msgSender() */\n      jump\t// in\n    tag_218:\n        /* \"contracts/Pool/Pool.sol\":13637:13672  _msgSender() == _developmentAddress */\n      0xffffffffffffffffffffffffffffffffffffffff\n      and\n      eq\n        /* \"contracts/Pool/Pool.sol\":13637:13709  _msgSender() == _developmentAddress || _msgSender() == _marketingAddress */\n      dup1\n      tag_219\n      jumpi\n      pop\n        /* \"contracts/Pool/Pool.sol\":13692:13709  _marketingAddress */\n      0x0f\n      0x00\n      swap1\n      sload\n      swap1\n      0x0100\n      exp\n      swap1\n      div\n      0xffffffffffffffffffffffffffffffffffffffff\n      and\n        /* \"contracts/Pool/Pool.sol\":13676:13709  _msgSender() == _marketingAddress */\n      0xffffffffffffffffffffffffffffffffffffffff\n      and\n        /* \"contracts/Pool/Pool.sol\":13676:13688  _msgSender() */\n      tag_220\n        /* \"contracts/Pool/Pool.sol\":13676:13686  _msgSender */\n      tag_138\n        /* \"contracts/Pool/Pool.sol\":13676:13688  _msgSender() */\n      jump\t// in\n    tag_220:\n        /* \"contracts/Pool/Pool.sol\":13676:13709  _msgSender() == _marketingAddress */\n      0xffffffffffffffffffffffffffffffffffffffff\n      and\n      eq\n        /* \"contracts/Pool/Pool.sol\":13637:13709  _msgSender() == _developmentAddress || _msgSender() == _marketingAddress */\n    tag_219:\n        /* \"contracts/Pool/Pool.sol\":13637:13736  _msgSender() == _developmentAddress || _msgSender() == _marketingAddress || _msgSender() == owner() */\n      dup1\n      tag_221\n      jumpi\n      pop\n        /* \"contracts/Pool/Pool.sol\":13729:13736  owner() */\n      tag_222\n        /* \"contracts/Pool/Pool.sol\":13729:13734  owner */\n      tag_92\n        /* \"contracts/Pool/Pool.sol\":13729:13736  owner() */\n      jump\t// in\n    tag_222:\n        /* \"contracts/Pool/Pool.sol\":13713:13736  _msgSender() == owner() */\n      0xffffffffffffffffffffffffffffffffffffffff\n      and\n        /* \"contracts/Pool/Pool.sol\":13713:13725  _msgSender() */\n      tag_223\n        /* \"contracts/Pool/Pool.sol\":13713:13723  _msgSender */\n      tag_138\n        /* \"contracts/Pool/Pool.sol\":13713:13725  _msgSender() */\n      jump\t// in\n    tag_223:\n        /* \"contracts/Pool/Pool.sol\":13713:13736  _msgSender() == owner() */\n      0xffffffffffffffffffffffffffffffffffffffff\n      and\n      eq\n        /* \"contracts/Pool/Pool.sol\":13637:13736  _msgSender() == _developmentAddress || _msgSender() == _marketingAddress || _msgSender() == owner() */\n    tag_221:\n        /* \"contracts/Pool/Pool.sol\":13629:13737  require(_msgSender() == _developmentAddress || _msgSender() == _marketingAddress || _msgSender() == owner()) */\n      tag_224\n      jumpi\n      0x00\n      dup1\n      revert\n    tag_224:\n        /* \"contracts/Pool/Pool.sol\":13747:13770  uint256 contractBalance */\n      0x00\n        /* \"contracts/Pool/Pool.sol\":13773:13797  balanceOf(address(this)) */\n      tag_225\n        /* \"contracts/Pool/Pool.sol\":13791:13795  this */\n      address\n        /* \"contracts/Pool/Pool.sol\":13773:13782  balanceOf */\n      tag_80\n        /* \"contracts/Pool/Pool.sol\":13773:13797  balanceOf(address(this)) */\n      jump\t// in\n    tag_225:\n        /* \"contracts/Pool/Pool.sol\":13747:13797  uint256 contractBalance = balanceOf(address(this)) */\n      swap1\n      pop\n        /* \"contracts/Pool/Pool.sol\":13807:13840  swapTokensForEth(contractBalance) */\n      tag_226\n        /* \"contracts/Pool/Pool.sol\":13824:13839  contractBalance */\n      dup2\n        /* \"contracts/Pool/Pool.sol\":13807:13823  swapTokensForEth */\n      tag_227\n        /* \"contracts/Pool/Pool.sol\":13807:13840  swapTokensForEth(contractBalance) */\n      jump\t// in\n    tag_226:\n        /* \"contracts/Pool/Pool.sol\":13619:13847  {... */\n      pop\n        /* \"contracts/Pool/Pool.sol\":13588:13847  function manualswap() external {... */\n      jump\t// out\n        /* \"contracts/Pool/Pool.sol\":14776:15006  function excludeMultipleAccountsFromFees(address[] calldata accounts, bool excluded) public onlyOwner {... */\n    tag_119:\n        /* \"contracts/Pool/Pool.sol\":3317:3329  _msgSender() */\n      tag_229\n        /* \"contracts/Pool/Pool.sol\":3317:3327  _msgSender */\n      tag_138\n        /* \"contracts/Pool/Pool.sol\":3317:3329  _msgSender() */\n      jump\t// in\n    tag_229:\n        /* \"contracts/Pool/Pool.sol\":3307:3329  _owner == _msgSender() */\n      0xffffffffffffffffffffffffffffffffffffffff\n      and\n        /* \"contracts/Pool/Pool.sol\":3307:3313  _owner */\n      0x00\n      dup1\n      sload\n      swap1\n      0x0100\n      exp\n      swap1\n      div\n      0xffffffffffffffffffffffffffffffffffffffff\n      and\n        /* \"contracts/Pool/Pool.sol\":3307:3329  _owner == _msgSender() */\n      0xffffffffffffffffffffffffffffffffffffffff\n      and\n      eq\n        /* \"contracts/Pool/Pool.sol\":3299:3357  require(_owner == _msgSender(), \"Caller is not the owner\") */\n      tag_230\n      jumpi\n      mload(0x40)\n      0x08c379a000000000000000000000000000000000000000000000000000000000\n      dup2\n      mstore\n      0x04\n      add\n      tag_231\n      swap1\n      tag_176\n      jump\t// in\n    tag_231:\n      mload(0x40)\n      dup1\n      swap2\n      sub\n      swap1\n      revert\n    tag_230:\n        /* \"contracts/Pool/Pool.sol\":14892:14901  uint256 i */\n      0x00\n        /* \"contracts/Pool/Pool.sol\":14888:15000  for(uint256 i = 0; i < accounts.length; i++) {... */\n    tag_233:\n        /* \"contracts/Pool/Pool.sol\":14911:14919  accounts */\n      dup4\n      dup4\n        /* \"contracts/Pool/Pool.sol\":14911:14926  accounts.length */\n      swap1\n      pop\n        /* \"contracts/Pool/Pool.sol\":14907:14908  i */\n      dup2\n        /* \"contracts/Pool/Pool.sol\":14907:14926  i < accounts.length */\n      lt\n        /* \"contracts/Pool/Pool.sol\":14888:15000  for(uint256 i = 0; i < accounts.length; i++) {... */\n      iszero\n      tag_234\n      jumpi\n        /* \"contracts/Pool/Pool.sol\":14981:14989  excluded */\n      dup2\n        /* \"contracts/Pool/Pool.sol\":14947:14965  _isExcludedFromFee */\n      0x05\n        /* \"contracts/Pool/Pool.sol\":14947:14978  _isExcludedFromFee[accounts[i]] */\n      0x00\n        /* \"contracts/Pool/Pool.sol\":14966:14974  accounts */\n      dup7\n      dup7\n        /* \"contracts/Pool/Pool.sol\":14975:14976  i */\n      dup6\n        /* \"contracts/Pool/Pool.sol\":14966:14977  accounts[i] */\n      dup2\n      dup2\n      lt\n      tag_236\n      jumpi\n      tag_237\n      tag_238\n      jump\t// in\n    tag_237:\n    tag_236:\n      swap1\n      pop\n      0x20\n      mul\n      add\n      0x20\n      dup2\n      add\n      swap1\n      tag_239\n      swap2\n      swap1\n      tag_79\n      jump\t// in\n    tag_239:\n        /* \"contracts/Pool/Pool.sol\":14947:14978  _isExcludedFromFee[accounts[i]] */\n      0xffffffffffffffffffffffffffffffffffffffff\n      and\n      0xffffffffffffffffffffffffffffffffffffffff\n      and\n      dup2\n      mstore\n      0x20\n      add\n      swap1\n      dup2\n      mstore\n      0x20\n      add\n      0x00\n      keccak256\n      0x00\n        /* \"contracts/Pool/Pool.sol\":14947:14989  _isExcludedFromFee[accounts[i]] = excluded */\n      0x0100\n      exp\n      dup2\n      sload\n      dup2\n      0xff\n      mul\n      not\n      and\n      swap1\n      dup4\n      iszero\n      iszero\n      mul\n      or\n      swap1\n      sstore\n      pop\n        /* \"contracts/Pool/Pool.sol\":14928:14931  i++ */\n      dup1\n      dup1\n      tag_240\n      swap1\n      tag_241\n      jump\t// in\n    tag_240:\n      swap2\n      pop\n      pop\n        /* \"contracts/Pool/Pool.sol\":14888:15000  for(uint256 i = 0; i < accounts.length; i++) {... */\n      jump(tag_233)\n    tag_234:\n      pop\n        /* \"contracts/Pool/Pool.sol\":14776:15006  function excludeMultipleAccountsFromFees(address[] calldata accounts, bool excluded) public onlyOwner {... */\n      pop\n      pop\n      pop\n      jump\t// out\n        /* \"contracts/Pool/Pool.sol\":6606:6747  function allowance(address owner, address spender) public view override returns (uint256) {... */\n    tag_124:\n        /* \"contracts/Pool/Pool.sol\":6687:6694  uint256 */\n      0x00\n        /* \"contracts/Pool/Pool.sol\":6713:6724  _allowances */\n      0x04\n        /* \"contracts/Pool/Pool.sol\":6713:6731  _allowances[owner] */\n      0x00\n        /* \"contracts/Pool/Pool.sol\":6725:6730  owner */\n      dup5\n        /* \"contracts/Pool/Pool.sol\":6713:6731  _allowances[owner] */\n      0xffffffffffffffffffffffffffffffffffffffff\n      and\n      0xffffffffffffffffffffffffffffffffffffffff\n      and\n      dup2\n      mstore\n      0x20\n      add\n      swap1\n      dup2\n      mstore\n      0x20\n      add\n      0x00\n      keccak256\n        /* \"contracts/Pool/Pool.sol\":6713:6740  _allowances[owner][spender] */\n      0x00\n        /* \"contracts/Pool/Pool.sol\":6732:6739  spender */\n      dup4\n        /* \"contracts/Pool/Pool.sol\":6713:6740  _allowances[owner][spender] */\n      0xffffffffffffffffffffffffffffffffffffffff\n      and\n      0xffffffffffffffffffffffffffffffffffffffff\n      and\n      dup2\n      mstore\n      0x20\n      add\n      swap1\n      dup2\n      mstore\n      0x20\n      add\n      0x00\n      keccak256\n      sload\n        /* \"contracts/Pool/Pool.sol\":6706:6740  return _allowances[owner][spender] */\n      swap1\n      pop\n        /* \"contracts/Pool/Pool.sol\":6606:6747  function allowance(address owner, address spender) public view override returns (uint256) {... */\n      swap3\n      swap2\n      pop\n      pop\n      jump\t// out\n        /* \"contracts/Pool/Pool.sol\":10198:10403  function rescueForeignTokens(address _tokenAddr, address _to, uint _amount) public onlyDev() {... */\n    tag_129:\n        /* \"contracts/Pool/Pool.sol\":5827:5839  _msgSender() */\n      tag_244\n        /* \"contracts/Pool/Pool.sol\":5827:5837  _msgSender */\n      tag_138\n        /* \"contracts/Pool/Pool.sol\":5827:5839  _msgSender() */\n      jump\t// in\n    tag_244:\n        /* \"contracts/Pool/Pool.sol\":5816:5839  owner() == _msgSender() */\n      0xffffffffffffffffffffffffffffffffffffffff\n      and\n        /* \"contracts/Pool/Pool.sol\":5816:5823  owner() */\n      tag_245\n        /* \"contracts/Pool/Pool.sol\":5816:5821  owner */\n      tag_92\n        /* \"contracts/Pool/Pool.sol\":5816:5823  owner() */\n      jump\t// in\n    tag_245:\n        /* \"contracts/Pool/Pool.sol\":5816:5839  owner() == _msgSender() */\n      0xffffffffffffffffffffffffffffffffffffffff\n      and\n      eq\n        /* \"contracts/Pool/Pool.sol\":5816:5878  owner() == _msgSender() || _developmentAddress == _msgSender() */\n      dup1\n      tag_246\n      jumpi\n      pop\n        /* \"contracts/Pool/Pool.sol\":5866:5878  _msgSender() */\n      tag_247\n        /* \"contracts/Pool/Pool.sol\":5866:5876  _msgSender */\n      tag_138\n        /* \"contracts/Pool/Pool.sol\":5866:5878  _msgSender() */\n      jump\t// in\n    tag_247:\n        /* \"contracts/Pool/Pool.sol\":5843:5878  _developmentAddress == _msgSender() */\n      0xffffffffffffffffffffffffffffffffffffffff\n      and\n        /* \"contracts/Pool/Pool.sol\":5843:5862  _developmentAddress */\n      0x0e\n      0x00\n      swap1\n      sload\n      swap1\n      0x0100\n      exp\n      swap1\n      div\n      0xffffffffffffffffffffffffffffffffffffffff\n      and\n        /* \"contracts/Pool/Pool.sol\":5843:5878  _developmentAddress == _msgSender() */\n      0xffffffffffffffffffffffffffffffffffffffff\n      and\n      eq\n        /* \"contracts/Pool/Pool.sol\":5816:5878  owner() == _msgSender() || _developmentAddress == _msgSender() */\n    tag_246:\n        /* \"contracts/Pool/Pool.sol\":5808:5904  require(owner() == _msgSender() || _developmentAddress == _msgSender(), \"Caller is not the dev\") */\n      tag_248\n      jumpi\n      mload(0x40)\n      0x08c379a000000000000000000000000000000000000000000000000000000000\n      dup2\n      mstore\n      0x04\n      add\n      tag_249\n      swap1\n      tag_157\n      jump\t// in\n    tag_249:\n      mload(0x40)\n      dup1\n      swap2\n      sub\n      swap1\n      revert\n    tag_248:\n        /* \"contracts/Pool/Pool.sol\":10332:10335  _to */\n      dup2\n        /* \"contracts/Pool/Pool.sol\":10306:10345  tokensRescued(_tokenAddr, _to, _amount) */\n      0xffffffffffffffffffffffffffffffffffffffff\n      and\n        /* \"contracts/Pool/Pool.sol\":10320:10330  _tokenAddr */\n      dup4\n        /* \"contracts/Pool/Pool.sol\":10306:10345  tokensRescued(_tokenAddr, _to, _amount) */\n      0xffffffffffffffffffffffffffffffffffffffff\n      and\n      0x47c33aa230eb5fd181505aa7befeaddd9b8a6f983989cea73a7868448c3a9ed9\n        /* \"contracts/Pool/Pool.sol\":10337:10344  _amount */\n      dup4\n        /* \"contracts/Pool/Pool.sol\":10306:10345  tokensRescued(_tokenAddr, _to, _amount) */\n      mload(0x40)\n      tag_251\n      swap2\n      swap1\n      tag_51\n      jump\t// in\n    tag_251:\n      mload(0x40)\n      dup1\n      swap2\n      sub\n      swap1\n      log3\n        /* \"contracts/Pool/Pool.sol\":10362:10372  _tokenAddr */\n      dup3\n        /* \"contracts/Pool/Pool.sol\":10356:10382  Token(_tokenAddr).transfer */\n      0xffffffffffffffffffffffffffffffffffffffff\n      and\n      0xa9059cbb\n        /* \"contracts/Pool/Pool.sol\":10383:10386  _to */\n      dup4\n        /* \"contracts/Pool/Pool.sol\":10388:10395  _amount */\n      dup4\n        /* \"contracts/Pool/Pool.sol\":10356:10396  Token(_tokenAddr).transfer(_to, _amount) */\n      mload(0x40)\n      dup4\n      0xffffffff\n      and\n      0xe0\n      shl\n      dup2\n      mstore\n      0x04\n      add\n      tag_252\n      swap3\n      swap2\n      swap1\n      tag_253\n      jump\t// in\n    tag_252:\n      0x20\n      mload(0x40)\n      dup1\n      dup4\n      sub\n      dup2\n      0x00\n      dup8\n      gas\n      call\n      iszero\n      dup1\n      iszero\n      tag_255\n      jumpi\n      returndatasize\n      0x00\n      dup1\n      returndatacopy\n      revert(0x00, returndatasize)\n    tag_255:\n      pop\n      pop\n      pop\n      pop\n      mload(0x40)\n      returndatasize\n      not(0x1f)\n      0x1f\n      dup3\n      add\n      and\n      dup3\n      add\n      dup1\n      0x40\n      mstore\n      pop\n      dup2\n      add\n      swap1\n      tag_256\n      swap2\n      swap1\n      tag_257\n      jump\t// in\n    tag_256:\n      pop\n        /* \"contracts/Pool/Pool.sol\":10198:10403  function rescueForeignTokens(address _tokenAddr, address _to, uint _amount) public onlyDev() {... */\n      pop\n      pop\n      pop\n      jump\t// out\n        /* \"contracts/Pool/Pool.sol\":3625:3782  function transferOwnership(address newOwner) public virtual onlyOwner {... */\n    tag_133:\n        /* \"contracts/Pool/Pool.sol\":3317:3329  _msgSender() */\n      tag_259\n        /* \"contracts/Pool/Pool.sol\":3317:3327  _msgSender */\n      tag_138\n        /* \"contracts/Pool/Pool.sol\":3317:3329  _msgSender() */\n      jump\t// in\n    tag_259:\n        /* \"contracts/Pool/Pool.sol\":3307:3329  _owner == _msgSender() */\n      0xffffffffffffffffffffffffffffffffffffffff\n      and\n        /* \"contracts/Pool/Pool.sol\":3307:3313  _owner */\n      0x00\n      dup1\n      sload\n      swap1\n      0x0100\n      exp\n      swap1\n      div\n      0xffffffffffffffffffffffffffffffffffffffff\n      and\n        /* \"contracts/Pool/Pool.sol\":3307:3329  _owner == _msgSender() */\n      0xffffffffffffffffffffffffffffffffffffffff\n      and\n      eq\n        /* \"contracts/Pool/Pool.sol\":3299:3357  require(_owner == _msgSender(), \"Caller is not the owner\") */\n      tag_260\n      jumpi\n      mload(0x40)\n      0x08c379a000000000000000000000000000000000000000000000000000000000\n      dup2\n      mstore\n      0x04\n      add\n      tag_261\n      swap1\n      tag_176\n      jump\t// in\n    tag_261:\n      mload(0x40)\n      dup1\n      swap2\n      sub\n      swap1\n      revert\n    tag_260:\n        /* \"contracts/Pool/Pool.sol\":3739:3747  newOwner */\n      dup1\n        /* \"contracts/Pool/Pool.sol\":3710:3748  OwnershipTransferred(_owner, newOwner) */\n      0xffffffffffffffffffffffffffffffffffffffff\n      and\n        /* \"contracts/Pool/Pool.sol\":3731:3737  _owner */\n      0x00\n      dup1\n      sload\n      swap1\n      0x0100\n      exp\n      swap1\n      div\n      0xffffffffffffffffffffffffffffffffffffffff\n      and\n        /* \"contracts/Pool/Pool.sol\":3710:3748  OwnershipTransferred(_owner, newOwner) */\n      0xffffffffffffffffffffffffffffffffffffffff\n      and\n      0x8be0079c531659141344cd1fd0a4f28419497f9722a3daafe3b4186f6b6457e0\n      mload(0x40)\n      mload(0x40)\n      dup1\n      swap2\n      sub\n      swap1\n      log3\n        /* \"contracts/Pool/Pool.sol\":3767:3775  newOwner */\n      dup1\n        /* \"contracts/Pool/Pool.sol\":3758:3764  _owner */\n      0x00\n      dup1\n        /* \"contracts/Pool/Pool.sol\":3758:3775  _owner = newOwner */\n      0x0100\n      exp\n      dup2\n      sload\n      dup2\n      0xffffffffffffffffffffffffffffffffffffffff\n      mul\n      not\n      and\n      swap1\n      dup4\n      0xffffffffffffffffffffffffffffffffffffffff\n      and\n      mul\n      or\n      swap1\n      sstore\n      pop\n        /* \"contracts/Pool/Pool.sol\":3625:3782  function transferOwnership(address newOwner) public virtual onlyOwner {... */\n      pop\n      jump\t// out\n        /* \"contracts/Pool/Pool.sol\":1721:1817  function _msgSender() internal view virtual returns (address) {... */\n    tag_138:\n        /* \"contracts/Pool/Pool.sol\":1774:1781  address */\n      0x00\n        /* \"contracts/Pool/Pool.sol\":1800:1810  msg.sender */\n      caller\n        /* \"contracts/Pool/Pool.sol\":1793:1810  return msg.sender */\n      swap1\n      pop\n        /* \"contracts/Pool/Pool.sol\":1721:1817  function _msgSender() internal view virtual returns (address) {... */\n      swap1\n      jump\t// out\n        /* \"contracts/Pool/Pool.sol\":7488:7818  function _approve(address owner, address spender, uint256 amount) private {... */\n    tag_139:\n        /* \"contracts/Pool/Pool.sol\":7597:7598  0 */\n      0x00\n        /* \"contracts/Pool/Pool.sol\":7580:7599  owner != address(0) */\n      0xffffffffffffffffffffffffffffffffffffffff\n      and\n        /* \"contracts/Pool/Pool.sol\":7580:7585  owner */\n      dup4\n        /* \"contracts/Pool/Pool.sol\":7580:7599  owner != address(0) */\n      0xffffffffffffffffffffffffffffffffffffffff\n      and\n      sub\n        /* \"contracts/Pool/Pool.sol\":7572:7640  require(owner != address(0), \"ERC20: approve from the zero address\") */\n      tag_265\n      jumpi\n      mload(0x40)\n      0x08c379a000000000000000000000000000000000000000000000000000000000\n      dup2\n      mstore\n      0x04\n      add\n      tag_266\n      swap1\n      tag_267\n      jump\t// in\n    tag_266:\n      mload(0x40)\n      dup1\n      swap2\n      sub\n      swap1\n      revert\n    tag_265:\n        /* \"contracts/Pool/Pool.sol\":7677:7678  0 */\n      0x00\n        /* \"contracts/Pool/Pool.sol\":7658:7679  spender != address(0) */\n      0xffffffffffffffffffffffffffffffffffffffff\n      and\n        /* \"contracts/Pool/Pool.sol\":7658:7665  spender */\n      dup3\n        /* \"contracts/Pool/Pool.sol\":7658:7679  spender != address(0) */\n      0xffffffffffffffffffffffffffffffffffffffff\n      and\n      sub\n        /* \"contracts/Pool/Pool.sol\":7650:7718  require(spender != address(0), \"ERC20: approve to the zero address\") */\n      tag_268\n      jumpi\n      mload(0x40)\n      0x08c379a000000000000000000000000000000000000000000000000000000000\n      dup2\n      mstore\n      0x04\n      add\n      tag_269\n      swap1\n      tag_270\n      jump\t// in\n    tag_269:\n      mload(0x40)\n      dup1\n      swap2\n      sub\n      swap1\n      revert\n    tag_268:\n        /* \"contracts/Pool/Pool.sol\":7758:7764  amount */\n      dup1\n        /* \"contracts/Pool/Pool.sol\":7728:7739  _allowances */\n      0x04\n        /* \"contracts/Pool/Pool.sol\":7728:7746  _allowances[owner] */\n      0x00\n        /* \"contracts/Pool/Pool.sol\":7740:7745  owner */\n      dup6\n        /* \"contracts/Pool/Pool.sol\":7728:7746  _allowances[owner] */\n      0xffffffffffffffffffffffffffffffffffffffff\n      and\n      0xffffffffffffffffffffffffffffffffffffffff\n      and\n      dup2\n      mstore\n      0x20\n      add\n      swap1\n      dup2\n      mstore\n      0x20\n      add\n      0x00\n      keccak256\n        /* \"contracts/Pool/Pool.sol\":7728:7755  _allowances[owner][spender] */\n      0x00\n        /* \"contracts/Pool/Pool.sol\":7747:7754  spender */\n      dup5\n        /* \"contracts/Pool/Pool.sol\":7728:7755  _allowances[owner][spender] */\n      0xffffffffffffffffffffffffffffffffffffffff\n      and\n      0xffffffffffffffffffffffffffffffffffffffff\n      and\n      dup2\n      mstore\n      0x20\n      add\n      swap1\n      dup2\n      mstore\n      0x20\n      add\n      0x00\n      keccak256\n        /* \"contracts/Pool/Pool.sol\":7728:7764  _allowances[owner][spender] = amount */\n      dup2\n      swap1\n      sstore\n      pop\n        /* \"contracts/Pool/Pool.sol\":7795:7802  spender */\n      dup2\n        /* \"contracts/Pool/Pool.sol\":7779:7811  Approval(owner, spender, amount) */\n      0xffffffffffffffffffffffffffffffffffffffff\n      and\n        /* \"contracts/Pool/Pool.sol\":7788:7793  owner */\n      dup4\n        /* \"contracts/Pool/Pool.sol\":7779:7811  Approval(owner, spender, amount) */\n      0xffffffffffffffffffffffffffffffffffffffff\n      and\n      0x8c5be1e5ebec7d5bd14f71427d1e84f3dd0314c0f7b2291e5b200ac8c7c3b925\n        /* \"contracts/Pool/Pool.sol\":7804:7810  amount */\n      dup4\n        /* \"contracts/Pool/Pool.sol\":7779:7811  Approval(owner, spender, amount) */\n      mload(0x40)\n      tag_271\n      swap2\n      swap1\n      tag_51\n      jump\t// in\n    tag_271:\n      mload(0x40)\n      dup1\n      swap2\n      sub\n      swap1\n      log3\n        /* \"contracts/Pool/Pool.sol\":7488:7818  function _approve(address owner, address spender, uint256 amount) private {... */\n      pop\n      pop\n      pop\n      jump\t// out\n        /* \"contracts/Pool/Pool.sol\":7824:9309  function _transfer(address from, address to, uint256 amount) private {... */\n    tag_143:\n        /* \"contracts/Pool/Pool.sol\":7927:7928  0 */\n      0x00\n        /* \"contracts/Pool/Pool.sol\":7911:7929  from != address(0) */\n      0xffffffffffffffffffffffffffffffffffffffff\n      and\n        /* \"contracts/Pool/Pool.sol\":7911:7915  from */\n      dup4\n        /* \"contracts/Pool/Pool.sol\":7911:7929  from != address(0) */\n      0xffffffffffffffffffffffffffffffffffffffff\n      and\n      sub\n        /* \"contracts/Pool/Pool.sol\":7903:7971  require(from != address(0), \"ERC20: transfer from the zero address\") */\n      tag_273\n      jumpi\n      mload(0x40)\n      0x08c379a000000000000000000000000000000000000000000000000000000000\n      dup2\n      mstore\n      0x04\n      add\n      tag_274\n      swap1\n      tag_275\n      jump\t// in\n    tag_274:\n      mload(0x40)\n      dup1\n      swap2\n      sub\n      swap1\n      revert\n    tag_273:\n        /* \"contracts/Pool/Pool.sol\":8003:8004  0 */\n      0x00\n        /* \"contracts/Pool/Pool.sol\":7989:8005  to != address(0) */\n      0xffffffffffffffffffffffffffffffffffffffff\n      and\n        /* \"contracts/Pool/Pool.sol\":7989:7991  to */\n      dup3\n        /* \"contracts/Pool/Pool.sol\":7989:8005  to != address(0) */\n      0xffffffffffffffffffffffffffffffffffffffff\n      and\n      sub\n        /* \"contracts/Pool/Pool.sol\":7981:8045  require(to != address(0), \"ERC20: transfer to the zero address\") */\n      tag_276\n      jumpi\n      mload(0x40)\n      0x08c379a000000000000000000000000000000000000000000000000000000000\n      dup2\n      mstore\n      0x04\n      add\n      tag_277\n      swap1\n      tag_278\n      jump\t// in\n    tag_277:\n      mload(0x40)\n      dup1\n      swap2\n      sub\n      swap1\n      revert\n    tag_276:\n        /* \"contracts/Pool/Pool.sol\":8072:8073  0 */\n      0x00\n        /* \"contracts/Pool/Pool.sol\":8063:8069  amount */\n      dup2\n        /* \"contracts/Pool/Pool.sol\":8063:8073  amount > 0 */\n      gt\n        /* \"contracts/Pool/Pool.sol\":8055:8119  require(amount > 0, \"Transfer amount must be greater than zero\") */\n      tag_279\n      jumpi\n      mload(0x40)\n      0x08c379a000000000000000000000000000000000000000000000000000000000\n      dup2\n      mstore\n      0x04\n      add\n      tag_280\n      swap1\n      tag_281\n      jump\t// in\n    tag_280:\n      mload(0x40)\n      dup1\n      swap2\n      sub\n      swap1\n      revert\n    tag_279:\n        /* \"contracts/Pool/Pool.sol\":8150:8151  0 */\n      0x00\n        /* \"contracts/Pool/Pool.sol\":8138:8147  _redisFee */\n      0x0c\n        /* \"contracts/Pool/Pool.sol\":8138:8151  _redisFee = 0 */\n      dup2\n      swap1\n      sstore\n      pop\n        /* \"contracts/Pool/Pool.sol\":8171:8172  0 */\n      0x00\n        /* \"contracts/Pool/Pool.sol\":8161:8168  _taxFee */\n      0x0d\n        /* \"contracts/Pool/Pool.sol\":8161:8172  _taxFee = 0 */\n      dup2\n      swap1\n      sstore\n      pop\n        /* \"contracts/Pool/Pool.sol\":8203:8210  owner() */\n      tag_282\n        /* \"contracts/Pool/Pool.sol\":8203:8208  owner */\n      tag_92\n        /* \"contracts/Pool/Pool.sol\":8203:8210  owner() */\n      jump\t// in\n    tag_282:\n        /* \"contracts/Pool/Pool.sol\":8195:8210  from != owner() */\n      0xffffffffffffffffffffffffffffffffffffffff\n      and\n        /* \"contracts/Pool/Pool.sol\":8195:8199  from */\n      dup4\n        /* \"contracts/Pool/Pool.sol\":8195:8210  from != owner() */\n      0xffffffffffffffffffffffffffffffffffffffff\n      and\n      eq\n      iszero\n        /* \"contracts/Pool/Pool.sol\":8195:8227  from != owner() && to != owner() */\n      dup1\n      iszero\n      tag_283\n      jumpi\n      pop\n        /* \"contracts/Pool/Pool.sol\":8220:8227  owner() */\n      tag_284\n        /* \"contracts/Pool/Pool.sol\":8220:8225  owner */\n      tag_92\n        /* \"contracts/Pool/Pool.sol\":8220:8227  owner() */\n      jump\t// in\n    tag_284:\n        /* \"contracts/Pool/Pool.sol\":8214:8227  to != owner() */\n      0xffffffffffffffffffffffffffffffffffffffff\n      and\n        /* \"contracts/Pool/Pool.sol\":8214:8216  to */\n      dup3\n        /* \"contracts/Pool/Pool.sol\":8214:8227  to != owner() */\n      0xffffffffffffffffffffffffffffffffffffffff\n      and\n      eq\n      iszero\n        /* \"contracts/Pool/Pool.sol\":8195:8227  from != owner() && to != owner() */\n    tag_283:\n        /* \"contracts/Pool/Pool.sol\":8191:9262  if (from != owner() && to != owner()) {... */\n      iszero\n      tag_285\n      jumpi\n        /* \"contracts/Pool/Pool.sol\":8256:8284  uint256 contractTokenBalance */\n      0x00\n        /* \"contracts/Pool/Pool.sol\":8287:8311  balanceOf(address(this)) */\n      tag_286\n        /* \"contracts/Pool/Pool.sol\":8305:8309  this */\n      address\n        /* \"contracts/Pool/Pool.sol\":8287:8296  balanceOf */\n      tag_80\n        /* \"contracts/Pool/Pool.sol\":8287:8311  balanceOf(address(this)) */\n      jump\t// in\n    tag_286:\n        /* \"contracts/Pool/Pool.sol\":8256:8311  uint256 contractTokenBalance = balanceOf(address(this)) */\n      swap1\n      pop\n        /* \"contracts/Pool/Pool.sol\":8330:8336  inSwap */\n      0x11\n      0x14\n      swap1\n      sload\n      swap1\n      0x0100\n      exp\n      swap1\n      div\n      0xff\n      and\n        /* \"contracts/Pool/Pool.sol\":8329:8336  !inSwap */\n      iszero\n        /* \"contracts/Pool/Pool.sol\":8329:8361  !inSwap && from != uniswapV2Pair */\n      dup1\n      iszero\n      tag_287\n      jumpi\n      pop\n        /* \"contracts/Pool/Pool.sol\":8348:8361  uniswapV2Pair */\n      0x11\n      0x00\n      swap1\n      sload\n      swap1\n      0x0100\n      exp\n      swap1\n      div\n      0xffffffffffffffffffffffffffffffffffffffff\n      and\n        /* \"contracts/Pool/Pool.sol\":8340:8361  from != uniswapV2Pair */\n      0xffffffffffffffffffffffffffffffffffffffff\n      and\n        /* \"contracts/Pool/Pool.sol\":8340:8344  from */\n      dup5\n        /* \"contracts/Pool/Pool.sol\":8340:8361  from != uniswapV2Pair */\n      0xffffffffffffffffffffffffffffffffffffffff\n      and\n      eq\n      iszero\n        /* \"contracts/Pool/Pool.sol\":8329:8361  !inSwap && from != uniswapV2Pair */\n    tag_287:\n        /* \"contracts/Pool/Pool.sol\":8329:8376  !inSwap && from != uniswapV2Pair && swapEnabled */\n      dup1\n      iszero\n      tag_288\n      jumpi\n      pop\n        /* \"contracts/Pool/Pool.sol\":8365:8376  swapEnabled */\n      0x11\n      0x15\n      swap1\n      sload\n      swap1\n      0x0100\n      exp\n      swap1\n      div\n      0xff\n      and\n        /* \"contracts/Pool/Pool.sol\":8329:8376  !inSwap && from != uniswapV2Pair && swapEnabled */\n    tag_288:\n        /* \"contracts/Pool/Pool.sol\":8329:8404  !inSwap && from != uniswapV2Pair && swapEnabled && contractTokenBalance > 0 */\n      dup1\n      iszero\n      tag_289\n      jumpi\n      pop\n        /* \"contracts/Pool/Pool.sol\":8403:8404  0 */\n      0x00\n        /* \"contracts/Pool/Pool.sol\":8380:8400  contractTokenBalance */\n      dup2\n        /* \"contracts/Pool/Pool.sol\":8380:8404  contractTokenBalance > 0 */\n      gt\n        /* \"contracts/Pool/Pool.sol\":8329:8404  !inSwap && from != uniswapV2Pair && swapEnabled && contractTokenBalance > 0 */\n    tag_289:\n        /* \"contracts/Pool/Pool.sol\":8325:8665  if (!inSwap && from != uniswapV2Pair && swapEnabled && contractTokenBalance > 0) {... */\n      iszero\n      tag_290\n      jumpi\n        /* \"contracts/Pool/Pool.sol\":8424:8462  swapTokensForEth(contractTokenBalance) */\n      tag_291\n        /* \"contracts/Pool/Pool.sol\":8441:8461  contractTokenBalance */\n      dup2\n        /* \"contracts/Pool/Pool.sol\":8424:8440  swapTokensForEth */\n      tag_227\n        /* \"contracts/Pool/Pool.sol\":8424:8462  swapTokensForEth(contractTokenBalance) */\n      jump\t// in\n    tag_291:\n        /* \"contracts/Pool/Pool.sol\":8480:8506  uint256 contractETHBalance */\n      0x00\n        /* \"contracts/Pool/Pool.sol\":8509:8530  address(this).balance */\n      selfbalance\n        /* \"contracts/Pool/Pool.sol\":8480:8530  uint256 contractETHBalance = address(this).balance */\n      swap1\n      pop\n        /* \"contracts/Pool/Pool.sol\":8572:8573  0 */\n      0x00\n        /* \"contracts/Pool/Pool.sol\":8551:8569  contractETHBalance */\n      dup2\n        /* \"contracts/Pool/Pool.sol\":8551:8573  contractETHBalance > 0 */\n      gt\n        /* \"contracts/Pool/Pool.sol\":8548:8651  if(contractETHBalance > 0) {... */\n      iszero\n      tag_292\n      jumpi\n        /* \"contracts/Pool/Pool.sol\":8597:8632  sendETHToFee(address(this).balance) */\n      tag_293\n        /* \"contracts/Pool/Pool.sol\":8610:8631  address(this).balance */\n      selfbalance\n        /* \"contracts/Pool/Pool.sol\":8597:8609  sendETHToFee */\n      tag_168\n        /* \"contracts/Pool/Pool.sol\":8597:8632  sendETHToFee(address(this).balance) */\n      jump\t// in\n    tag_293:\n        /* \"contracts/Pool/Pool.sol\":8548:8651  if(contractETHBalance > 0) {... */\n    tag_292:\n        /* \"contracts/Pool/Pool.sol\":8406:8665  {... */\n      pop\n        /* \"contracts/Pool/Pool.sol\":8325:8665  if (!inSwap && from != uniswapV2Pair && swapEnabled && contractTokenBalance > 0) {... */\n    tag_290:\n        /* \"contracts/Pool/Pool.sol\":8702:8715  uniswapV2Pair */\n      0x11\n      0x00\n      swap1\n      sload\n      swap1\n      0x0100\n      exp\n      swap1\n      div\n      0xffffffffffffffffffffffffffffffffffffffff\n      and\n        /* \"contracts/Pool/Pool.sol\":8694:8715  from == uniswapV2Pair */\n      0xffffffffffffffffffffffffffffffffffffffff\n      and\n        /* \"contracts/Pool/Pool.sol\":8694:8698  from */\n      dup5\n        /* \"contracts/Pool/Pool.sol\":8694:8715  from == uniswapV2Pair */\n      0xffffffffffffffffffffffffffffffffffffffff\n      and\n      eq\n        /* \"contracts/Pool/Pool.sol\":8694:8749  from == uniswapV2Pair && to != address(uniswapV2Router) */\n      dup1\n      iszero\n      tag_294\n      jumpi\n      pop\n        /* \"contracts/Pool/Pool.sol\":8733:8748  uniswapV2Router */\n      0x10\n      0x00\n      swap1\n      sload\n      swap1\n      0x0100\n      exp\n      swap1\n      div\n      0xffffffffffffffffffffffffffffffffffffffff\n      and\n        /* \"contracts/Pool/Pool.sol\":8719:8749  to != address(uniswapV2Router) */\n      0xffffffffffffffffffffffffffffffffffffffff\n      and\n        /* \"contracts/Pool/Pool.sol\":8719:8721  to */\n      dup4\n        /* \"contracts/Pool/Pool.sol\":8719:8749  to != address(uniswapV2Router) */\n      0xffffffffffffffffffffffffffffffffffffffff\n      and\n      eq\n      iszero\n        /* \"contracts/Pool/Pool.sol\":8694:8749  from == uniswapV2Pair && to != address(uniswapV2Router) */\n    tag_294:\n        /* \"contracts/Pool/Pool.sol\":8691:8850  if(from == uniswapV2Pair && to != address(uniswapV2Router)) {... */\n      iszero\n      tag_295\n      jumpi\n        /* \"contracts/Pool/Pool.sol\":8781:8795  _redisFeeOnBuy */\n      sload(0x08)\n        /* \"contracts/Pool/Pool.sol\":8769:8778  _redisFee */\n      0x0c\n        /* \"contracts/Pool/Pool.sol\":8769:8795  _redisFee = _redisFeeOnBuy */\n      dup2\n      swap1\n      sstore\n      pop\n        /* \"contracts/Pool/Pool.sol\":8823:8835  _taxFeeOnBuy */\n      sload(0x09)\n        /* \"contracts/Pool/Pool.sol\":8813:8820  _taxFee */\n      0x0d\n        /* \"contracts/Pool/Pool.sol\":8813:8835  _taxFee = _taxFeeOnBuy */\n      dup2\n      swap1\n      sstore\n      pop\n        /* \"contracts/Pool/Pool.sol\":8691:8850  if(from == uniswapV2Pair && to != address(uniswapV2Router)) {... */\n    tag_295:\n        /* \"contracts/Pool/Pool.sol\":8878:8891  uniswapV2Pair */\n      0x11\n      0x00\n      swap1\n      sload\n      swap1\n      0x0100\n      exp\n      swap1\n      div\n      0xffffffffffffffffffffffffffffffffffffffff\n      and\n        /* \"contracts/Pool/Pool.sol\":8872:8891  to == uniswapV2Pair */\n      0xffffffffffffffffffffffffffffffffffffffff\n      and\n        /* \"contracts/Pool/Pool.sol\":8872:8874  to */\n      dup4\n        /* \"contracts/Pool/Pool.sol\":8872:8891  to == uniswapV2Pair */\n      0xffffffffffffffffffffffffffffffffffffffff\n      and\n      eq\n        /* \"contracts/Pool/Pool.sol\":8872:8927  to == uniswapV2Pair && from != address(uniswapV2Router) */\n      dup1\n      iszero\n      tag_296\n      jumpi\n      pop\n        /* \"contracts/Pool/Pool.sol\":8911:8926  uniswapV2Router */\n      0x10\n      0x00\n      swap1\n      sload\n      swap1\n      0x0100\n      exp\n      swap1\n      div\n      0xffffffffffffffffffffffffffffffffffffffff\n      and\n        /* \"contracts/Pool/Pool.sol\":8895:8927  from != address(uniswapV2Router) */\n      0xffffffffffffffffffffffffffffffffffffffff\n      and\n        /* \"contracts/Pool/Pool.sol\":8895:8899  from */\n      dup5\n        /* \"contracts/Pool/Pool.sol\":8895:8927  from != address(uniswapV2Router) */\n      0xffffffffffffffffffffffffffffffffffffffff\n      and\n      eq\n      iszero\n        /* \"contracts/Pool/Pool.sol\":8872:8927  to == uniswapV2Pair && from != address(uniswapV2Router) */\n    tag_296:\n        /* \"contracts/Pool/Pool.sol\":8868:9030  if (to == uniswapV2Pair && from != address(uniswapV2Router)) {... */\n      iszero\n      tag_297\n      jumpi\n        /* \"contracts/Pool/Pool.sol\":8959:8974  _redisFeeOnSell */\n      sload(0x0a)\n        /* \"contracts/Pool/Pool.sol\":8947:8956  _redisFee */\n      0x0c\n        /* \"contracts/Pool/Pool.sol\":8947:8974  _redisFee = _redisFeeOnSell */\n      dup2\n      swap1\n      sstore\n      pop\n        /* \"contracts/Pool/Pool.sol\":9002:9015  _taxFeeOnSell */\n      sload(0x0b)\n        /* \"contracts/Pool/Pool.sol\":8992:8999  _taxFee */\n      0x0d\n        /* \"contracts/Pool/Pool.sol\":8992:9015  _taxFee = _taxFeeOnSell */\n      dup2\n      swap1\n      sstore\n      pop\n        /* \"contracts/Pool/Pool.sol\":8868:9030  if (to == uniswapV2Pair && from != address(uniswapV2Router)) {... */\n    tag_297:\n        /* \"contracts/Pool/Pool.sol\":9061:9079  _isExcludedFromFee */\n      0x05\n        /* \"contracts/Pool/Pool.sol\":9061:9085  _isExcludedFromFee[from] */\n      0x00\n        /* \"contracts/Pool/Pool.sol\":9080:9084  from */\n      dup6\n        /* \"contracts/Pool/Pool.sol\":9061:9085  _isExcludedFromFee[from] */\n      0xffffffffffffffffffffffffffffffffffffffff\n      and\n      0xffffffffffffffffffffffffffffffffffffffff\n      and\n      dup2\n      mstore\n      0x20\n      add\n      swap1\n      dup2\n      mstore\n      0x20\n      add\n      0x00\n      keccak256\n      0x00\n      swap1\n      sload\n      swap1\n      0x0100\n      exp\n      swap1\n      div\n      0xff\n      and\n        /* \"contracts/Pool/Pool.sol\":9061:9111  _isExcludedFromFee[from] || _isExcludedFromFee[to] */\n      dup1\n      tag_298\n      jumpi\n      pop\n        /* \"contracts/Pool/Pool.sol\":9089:9107  _isExcludedFromFee */\n      0x05\n        /* \"contracts/Pool/Pool.sol\":9089:9111  _isExcludedFromFee[to] */\n      0x00\n        /* \"contracts/Pool/Pool.sol\":9108:9110  to */\n      dup5\n        /* \"contracts/Pool/Pool.sol\":9089:9111  _isExcludedFromFee[to] */\n      0xffffffffffffffffffffffffffffffffffffffff\n      and\n      0xffffffffffffffffffffffffffffffffffffffff\n      and\n      dup2\n      mstore\n      0x20\n      add\n      swap1\n      dup2\n      mstore\n      0x20\n      add\n      0x00\n      keccak256\n      0x00\n      swap1\n      sload\n      swap1\n      0x0100\n      exp\n      swap1\n      div\n      0xff\n      and\n        /* \"contracts/Pool/Pool.sol\":9061:9111  _isExcludedFromFee[from] || _isExcludedFromFee[to] */\n    tag_298:\n        /* \"contracts/Pool/Pool.sol\":9060:9162  (_isExcludedFromFee[from] || _isExcludedFromFee[to]) || (from != uniswapV2Pair && to != uniswapV2Pair) */\n      dup1\n      tag_299\n      jumpi\n      pop\n        /* \"contracts/Pool/Pool.sol\":9125:9138  uniswapV2Pair */\n      0x11\n      0x00\n      swap1\n      sload\n      swap1\n      0x0100\n      exp\n      swap1\n      div\n      0xffffffffffffffffffffffffffffffffffffffff\n      and\n        /* \"contracts/Pool/Pool.sol\":9117:9138  from != uniswapV2Pair */\n      0xffffffffffffffffffffffffffffffffffffffff\n      and\n        /* \"contracts/Pool/Pool.sol\":9117:9121  from */\n      dup5\n        /* \"contracts/Pool/Pool.sol\":9117:9138  from != uniswapV2Pair */\n      0xffffffffffffffffffffffffffffffffffffffff\n      and\n      eq\n      iszero\n        /* \"contracts/Pool/Pool.sol\":9117:9161  from != uniswapV2Pair && to != uniswapV2Pair */\n      dup1\n      iszero\n      tag_300\n      jumpi\n      pop\n        /* \"contracts/Pool/Pool.sol\":9148:9161  uniswapV2Pair */\n      0x11\n      0x00\n      swap1\n      sload\n      swap1\n      0x0100\n      exp\n      swap1\n      div\n      0xffffffffffffffffffffffffffffffffffffffff\n      and\n        /* \"contracts/Pool/Pool.sol\":9142:9161  to != uniswapV2Pair */\n      0xffffffffffffffffffffffffffffffffffffffff\n      and\n        /* \"contracts/Pool/Pool.sol\":9142:9144  to */\n      dup4\n        /* \"contracts/Pool/Pool.sol\":9142:9161  to != uniswapV2Pair */\n      0xffffffffffffffffffffffffffffffffffffffff\n      and\n      eq\n      iszero\n        /* \"contracts/Pool/Pool.sol\":9117:9161  from != uniswapV2Pair && to != uniswapV2Pair */\n    tag_300:\n        /* \"contracts/Pool/Pool.sol\":9060:9162  (_isExcludedFromFee[from] || _isExcludedFromFee[to]) || (from != uniswapV2Pair && to != uniswapV2Pair) */\n    tag_299:\n        /* \"contracts/Pool/Pool.sol\":9056:9239  if ((_isExcludedFromFee[from] || _isExcludedFromFee[to]) || (from != uniswapV2Pair && to != uniswapV2Pair)) {... */\n      iszero\n      tag_301\n      jumpi\n        /* \"contracts/Pool/Pool.sol\":9194:9195  0 */\n      0x00\n        /* \"contracts/Pool/Pool.sol\":9182:9191  _redisFee */\n      0x0c\n        /* \"contracts/Pool/Pool.sol\":9182:9195  _redisFee = 0 */\n      dup2\n      swap1\n      sstore\n      pop\n        /* \"contracts/Pool/Pool.sol\":9223:9224  0 */\n      0x00\n        /* \"contracts/Pool/Pool.sol\":9213:9220  _taxFee */\n      0x0d\n        /* \"contracts/Pool/Pool.sol\":9213:9224  _taxFee = 0 */\n      dup2\n      swap1\n      sstore\n      pop\n        /* \"contracts/Pool/Pool.sol\":9056:9239  if ((_isExcludedFromFee[from] || _isExcludedFromFee[to]) || (from != uniswapV2Pair && to != uniswapV2Pair)) {... */\n    tag_301:\n        /* \"contracts/Pool/Pool.sol\":8229:9262  {... */\n      pop\n        /* \"contracts/Pool/Pool.sol\":8191:9262  if (from != owner() && to != owner()) {... */\n    tag_285:\n        /* \"contracts/Pool/Pool.sol\":9272:9302  _tokenTransfer(from,to,amount) */\n      tag_302\n        /* \"contracts/Pool/Pool.sol\":9287:9291  from */\n      dup4\n        /* \"contracts/Pool/Pool.sol\":9292:9294  to */\n      dup4\n        /* \"contracts/Pool/Pool.sol\":9295:9301  amount */\n      dup4\n        /* \"contracts/Pool/Pool.sol\":9272:9286  _tokenTransfer */\n      tag_303\n        /* \"contracts/Pool/Pool.sol\":9272:9302  _tokenTransfer(from,to,amount) */\n      jump\t// in\n    tag_302:\n        /* \"contracts/Pool/Pool.sol\":7824:9309  function _transfer(address from, address to, uint256 amount) private {... */\n      pop\n      pop\n      pop\n      jump\t// out\n        /* \"contracts/Pool/Pool.sol\":2167:2353  function sub(uint256 a, uint256 b, string memory errorMessage) internal pure returns (uint256) {... */\n    tag_148:\n        /* \"contracts/Pool/Pool.sol\":2253:2260  uint256 */\n      0x00\n        /* \"contracts/Pool/Pool.sol\":2285:2286  a */\n      dup4\n        /* \"contracts/Pool/Pool.sol\":2280:2281  b */\n      dup4\n        /* \"contracts/Pool/Pool.sol\":2280:2286  b <= a */\n      gt\n      iszero\n        /* \"contracts/Pool/Pool.sol\":2288:2300  errorMessage */\n      dup3\n        /* \"contracts/Pool/Pool.sol\":2272:2301  require(b <= a, errorMessage) */\n      swap1\n      tag_305\n      jumpi\n      mload(0x40)\n      0x08c379a000000000000000000000000000000000000000000000000000000000\n      dup2\n      mstore\n      0x04\n      add\n      tag_306\n      swap2\n      swap1\n      tag_34\n      jump\t// in\n    tag_306:\n      mload(0x40)\n      dup1\n      swap2\n      sub\n      swap1\n      revert\n    tag_305:\n      pop\n        /* \"contracts/Pool/Pool.sol\":2311:2320  uint256 c */\n      0x00\n        /* \"contracts/Pool/Pool.sol\":2327:2328  b */\n      dup4\n        /* \"contracts/Pool/Pool.sol\":2323:2324  a */\n      dup6\n        /* \"contracts/Pool/Pool.sol\":2323:2328  a - b */\n      tag_307\n      swap2\n      swap1\n      tag_308\n      jump\t// in\n    tag_307:\n        /* \"contracts/Pool/Pool.sol\":2311:2328  uint256 c = a - b */\n      swap1\n      pop\n        /* \"contracts/Pool/Pool.sol\":2345:2346  c */\n      dup1\n        /* \"contracts/Pool/Pool.sol\":2338:2346  return c */\n      swap2\n      pop\n      pop\n        /* \"contracts/Pool/Pool.sol\":2167:2353  function sub(uint256 a, uint256 b, string memory errorMessage) internal pure returns (uint256) {... */\n      swap4\n      swap3\n      pop\n      pop\n      pop\n      jump\t// out\n        /* \"contracts/Pool/Pool.sol\":9800:9957  function sendETHToFee(uint256 amount) private {... */\n    tag_168:\n        /* \"contracts/Pool/Pool.sol\":9856:9875  _developmentAddress */\n      0x0e\n      0x00\n      swap1\n      sload\n      swap1\n      0x0100\n      exp\n      swap1\n      div\n      0xffffffffffffffffffffffffffffffffffffffff\n      and\n        /* \"contracts/Pool/Pool.sol\":9856:9884  _developmentAddress.transfer */\n      0xffffffffffffffffffffffffffffffffffffffff\n      and\n        /* \"contracts/Pool/Pool.sol\":9856:9899  _developmentAddress.transfer(amount.div(2)) */\n      0x08fc\n        /* \"contracts/Pool/Pool.sol\":9885:9898  amount.div(2) */\n      tag_310\n        /* \"contracts/Pool/Pool.sol\":9896:9897  2 */\n      0x02\n        /* \"contracts/Pool/Pool.sol\":9885:9891  amount */\n      dup5\n        /* \"contracts/Pool/Pool.sol\":9885:9895  amount.div */\n      tag_311\n      swap1\n        /* \"contracts/Pool/Pool.sol\":9885:9898  amount.div(2) */\n      swap2\n      swap1\n      0xffffffff\n      and\n      jump\t// in\n    tag_310:\n        /* \"contracts/Pool/Pool.sol\":9856:9899  _developmentAddress.transfer(amount.div(2)) */\n      swap1\n      dup2\n      iszero\n      mul\n      swap1\n      mload(0x40)\n      0x00\n      mload(0x40)\n      dup1\n      dup4\n      sub\n      dup2\n      dup6\n      dup9\n      dup9\n      call\n      swap4\n      pop\n      pop\n      pop\n      pop\n      iszero\n      dup1\n      iszero\n      tag_313\n      jumpi\n      returndatasize\n      0x00\n      dup1\n      returndatacopy\n      revert(0x00, returndatasize)\n    tag_313:\n      pop\n        /* \"contracts/Pool/Pool.sol\":9909:9926  _marketingAddress */\n      0x0f\n      0x00\n      swap1\n      sload\n      swap1\n      0x0100\n      exp\n      swap1\n      div\n      0xffffffffffffffffffffffffffffffffffffffff\n      and\n        /* \"contracts/Pool/Pool.sol\":9909:9935  _marketingAddress.transfer */\n      0xffffffffffffffffffffffffffffffffffffffff\n      and\n        /* \"contracts/Pool/Pool.sol\":9909:9950  _marketingAddress.transfer(amount.div(2)) */\n      0x08fc\n        /* \"contracts/Pool/Pool.sol\":9936:9949  amount.div(2) */\n      tag_314\n        /* \"contracts/Pool/Pool.sol\":9947:9948  2 */\n      0x02\n        /* \"contracts/Pool/Pool.sol\":9936:9942  amount */\n      dup5\n        /* \"contracts/Pool/Pool.sol\":9936:9946  amount.div */\n      tag_311\n      swap1\n        /* \"contracts/Pool/Pool.sol\":9936:9949  amount.div(2) */\n      swap2\n      swap1\n      0xffffffff\n      and\n      jump\t// in\n    tag_314:\n        /* \"contracts/Pool/Pool.sol\":9909:9950  _marketingAddress.transfer(amount.div(2)) */\n      swap1\n      dup2\n      iszero\n      mul\n      swap1\n      mload(0x40)\n      0x00\n      mload(0x40)\n      dup1\n      dup4\n      sub\n      dup2\n      dup6\n      dup9\n      dup9\n      call\n      swap4\n      pop\n      pop\n      pop\n      pop\n      iszero\n      dup1\n      iszero\n      tag_316\n      jumpi\n      returndatasize\n      0x00\n      dup1\n      returndatacopy\n      revert(0x00, returndatasize)\n    tag_316:\n      pop\n        /* \"contracts/Pool/Pool.sol\":9800:9957  function sendETHToFee(uint256 amount) private {... */\n      pop\n      jump\t// out\n        /* \"contracts/Pool/Pool.sol\":7232:7482  function tokenFromReflection(uint256 rAmount) private view returns(uint256) {... */\n    tag_171:\n        /* \"contracts/Pool/Pool.sol\":7299:7306  uint256 */\n      0x00\n        /* \"contracts/Pool/Pool.sol\":7337:7344  _rTotal */\n      sload(0x06)\n        /* \"contracts/Pool/Pool.sol\":7326:7333  rAmount */\n      dup3\n        /* \"contracts/Pool/Pool.sol\":7326:7344  rAmount <= _rTotal */\n      gt\n      iszero\n        /* \"contracts/Pool/Pool.sol\":7318:7391  require(rAmount <= _rTotal, \"Amount must be less than total reflections\") */\n      tag_318\n      jumpi\n      mload(0x40)\n      0x08c379a000000000000000000000000000000000000000000000000000000000\n      dup2\n      mstore\n      0x04\n      add\n      tag_319\n      swap1\n      tag_320\n      jump\t// in\n    tag_319:\n      mload(0x40)\n      dup1\n      swap2\n      sub\n      swap1\n      revert\n    tag_318:\n        /* \"contracts/Pool/Pool.sol\":7401:7420  uint256 currentRate */\n      0x00\n        /* \"contracts/Pool/Pool.sol\":7424:7434  _getRate() */\n      tag_321\n        /* \"contracts/Pool/Pool.sol\":7424:7432  _getRate */\n      tag_322\n        /* \"contracts/Pool/Pool.sol\":7424:7434  _getRate() */\n      jump\t// in\n    tag_321:\n        /* \"contracts/Pool/Pool.sol\":7401:7434  uint256 currentRate =  _getRate() */\n      swap1\n      pop\n        /* \"contracts/Pool/Pool.sol\":7451:7475  rAmount.div(currentRate) */\n      tag_323\n        /* \"contracts/Pool/Pool.sol\":7463:7474  currentRate */\n      dup2\n        /* \"contracts/Pool/Pool.sol\":7451:7458  rAmount */\n      dup5\n        /* \"contracts/Pool/Pool.sol\":7451:7462  rAmount.div */\n      tag_311\n      swap1\n        /* \"contracts/Pool/Pool.sol\":7451:7475  rAmount.div(currentRate) */\n      swap2\n      swap1\n      0xffffffff\n      and\n      jump\t// in\n    tag_323:\n        /* \"contracts/Pool/Pool.sol\":7444:7475  return rAmount.div(currentRate) */\n      swap2\n      pop\n      pop\n        /* \"contracts/Pool/Pool.sol\":7232:7482  function tokenFromReflection(uint256 rAmount) private view returns(uint256) {... */\n      swap2\n      swap1\n      pop\n      jump\t// out\n        /* \"contracts/Pool/Pool.sol\":9315:9786  function swapTokensForEth(uint256 tokenAmount) private lockTheSwap {... */\n    tag_227:\n        /* \"contracts/Pool/Pool.sol\":5092:5096  true */\n      0x01\n        /* \"contracts/Pool/Pool.sol\":5083:5089  inSwap */\n      0x11\n      0x14\n        /* \"contracts/Pool/Pool.sol\":5083:5096  inSwap = true */\n      0x0100\n      exp\n      dup2\n      sload\n      dup2\n      0xff\n      mul\n      not\n      and\n      swap1\n      dup4\n      iszero\n      iszero\n      mul\n      or\n      swap1\n      sstore\n      pop\n        /* \"contracts/Pool/Pool.sol\":9392:9413  address[] memory path */\n      0x00\n        /* \"contracts/Pool/Pool.sol\":9430:9431  2 */\n      0x02\n        /* \"contracts/Pool/Pool.sol\":9416:9432  new address[](2) */\n      0xffffffffffffffff\n      dup2\n      gt\n      iszero\n      tag_326\n      jumpi\n      tag_327\n      tag_328\n      jump\t// in\n    tag_327:\n    tag_326:\n      mload(0x40)\n      swap1\n      dup1\n      dup3\n      mstore\n      dup1\n      0x20\n      mul\n      0x20\n      add\n      dup3\n      add\n      0x40\n      mstore\n      dup1\n      iszero\n      tag_329\n      jumpi\n      dup2\n      0x20\n      add\n      0x20\n      dup3\n      mul\n      dup1\n      calldatasize\n      dup4\n      calldatacopy\n      dup1\n      dup3\n      add\n      swap2\n      pop\n      pop\n      swap1\n      pop\n    tag_329:\n      pop\n        /* \"contracts/Pool/Pool.sol\":9392:9432  address[] memory path = new address[](2) */\n      swap1\n      pop\n        /* \"contracts/Pool/Pool.sol\":9460:9464  this */\n      address\n        /* \"contracts/Pool/Pool.sol\":9442:9446  path */\n      dup2\n        /* \"contracts/Pool/Pool.sol\":9447:9448  0 */\n      0x00\n        /* \"contracts/Pool/Pool.sol\":9442:9449  path[0] */\n      dup2\n      mload\n      dup2\n      lt\n      tag_330\n      jumpi\n      tag_331\n      tag_238\n      jump\t// in\n    tag_331:\n    tag_330:\n      0x20\n      mul\n      0x20\n      add\n      add\n        /* \"contracts/Pool/Pool.sol\":9442:9465  path[0] = address(this) */\n      swap1\n      0xffffffffffffffffffffffffffffffffffffffff\n      and\n      swap1\n      dup2\n      0xffffffffffffffffffffffffffffffffffffffff\n      and\n      dup2\n      mstore\n      pop\n      pop\n        /* \"contracts/Pool/Pool.sol\":9485:9500  uniswapV2Router */\n      0x10\n      0x00\n      swap1\n      sload\n      swap1\n      0x0100\n      exp\n      swap1\n      div\n      0xffffffffffffffffffffffffffffffffffffffff\n      and\n        /* \"contracts/Pool/Pool.sol\":9485:9505  uniswapV2Router.WETH */\n      0xffffffffffffffffffffffffffffffffffffffff\n      and\n      0xad5c4648\n        /* \"contracts/Pool/Pool.sol\":9485:9507  uniswapV2Router.WETH() */\n      mload(0x40)\n      dup2\n      0xffffffff\n      and\n      0xe0\n      shl\n      dup2\n      mstore\n      0x04\n      add\n      0x20\n      mload(0x40)\n      dup1\n      dup4\n      sub\n      dup2\n      dup7\n      gas\n      staticcall\n      iszero\n      dup1\n      iszero\n      tag_333\n      jumpi\n      returndatasize\n      0x00\n      dup1\n      returndatacopy\n      revert(0x00, returndatasize)\n    tag_333:\n      pop\n      pop\n      pop\n      pop\n      mload(0x40)\n      returndatasize\n      not(0x1f)\n      0x1f\n      dup3\n      add\n      and\n      dup3\n      add\n      dup1\n      0x40\n      mstore\n      pop\n      dup2\n      add\n      swap1\n      tag_334\n      swap2\n      swap1\n      tag_335\n      jump\t// in\n    tag_334:\n        /* \"contracts/Pool/Pool.sol\":9475:9479  path */\n      dup2\n        /* \"contracts/Pool/Pool.sol\":9480:9481  1 */\n      0x01\n        /* \"contracts/Pool/Pool.sol\":9475:9482  path[1] */\n      dup2\n      mload\n      dup2\n      lt\n      tag_336\n      jumpi\n      tag_337\n      tag_238\n      jump\t// in\n    tag_337:\n    tag_336:\n      0x20\n      mul\n      0x20\n      add\n      add\n        /* \"contracts/Pool/Pool.sol\":9475:9507  path[1] = uniswapV2Router.WETH() */\n      swap1\n      0xffffffffffffffffffffffffffffffffffffffff\n      and\n      swap1\n      dup2\n      0xffffffffffffffffffffffffffffffffffffffff\n      and\n      dup2\n      mstore\n      pop\n      pop\n        /* \"contracts/Pool/Pool.sol\":9517:9579  _approve(address(this), address(uniswapV2Router), tokenAmount) */\n      tag_338\n        /* \"contracts/Pool/Pool.sol\":9534:9538  this */\n      address\n        /* \"contracts/Pool/Pool.sol\":9549:9564  uniswapV2Router */\n      0x10\n      0x00\n      swap1\n      sload\n      swap1\n      0x0100\n      exp\n      swap1\n      div\n      0xffffffffffffffffffffffffffffffffffffffff\n      and\n        /* \"contracts/Pool/Pool.sol\":9567:9578  tokenAmount */\n      dup5\n        /* \"contracts/Pool/Pool.sol\":9517:9525  _approve */\n      tag_139\n        /* \"contracts/Pool/Pool.sol\":9517:9579  _approve(address(this), address(uniswapV2Router), tokenAmount) */\n      jump\t// in\n    tag_338:\n        /* \"contracts/Pool/Pool.sol\":9589:9604  uniswapV2Router */\n      0x10\n      0x00\n      swap1\n      sload\n      swap1\n      0x0100\n      exp\n      swap1\n      div\n      0xffffffffffffffffffffffffffffffffffffffff\n      and\n        /* \"contracts/Pool/Pool.sol\":9589:9655  uniswapV2Router.swapExactTokensForETHSupportingFeeOnTransferTokens */\n      0xffffffffffffffffffffffffffffffffffffffff\n      and\n      0x791ac947\n        /* \"contracts/Pool/Pool.sol\":9669:9680  tokenAmount */\n      dup4\n        /* \"contracts/Pool/Pool.sol\":9694:9695  0 */\n      0x00\n        /* \"contracts/Pool/Pool.sol\":9709:9713  path */\n      dup5\n        /* \"contracts/Pool/Pool.sol\":9735:9739  this */\n      address\n        /* \"contracts/Pool/Pool.sol\":9754:9769  block.timestamp */\n      timestamp\n        /* \"contracts/Pool/Pool.sol\":9589:9779  uniswapV2Router.swapExactTokensForETHSupportingFeeOnTransferTokens(... */\n      mload(0x40)\n      dup7\n      0xffffffff\n      and\n      0xe0\n      shl\n      dup2\n      mstore\n      0x04\n      add\n      tag_339\n      swap6\n      swap5\n      swap4\n      swap3\n      swap2\n      swap1\n      tag_340\n      jump\t// in\n    tag_339:\n      0x00\n      mload(0x40)\n      dup1\n      dup4\n      sub\n      dup2\n      0x00\n      dup8\n      dup1\n      extcodesize\n      iszero\n      dup1\n      iszero\n      tag_341\n      jumpi\n      0x00\n      dup1\n      revert\n    tag_341:\n      pop\n      gas\n      call\n      iszero\n      dup1\n      iszero\n      tag_343\n      jumpi\n      returndatasize\n      0x00\n      dup1\n      returndatacopy\n      revert(0x00, returndatasize)\n    tag_343:\n      pop\n      pop\n      pop\n      pop\n        /* \"contracts/Pool/Pool.sol\":9382:9786  {... */\n      pop\n        /* \"contracts/Pool/Pool.sol\":5126:5131  false */\n      0x00\n        /* \"contracts/Pool/Pool.sol\":5117:5123  inSwap */\n      0x11\n      0x14\n        /* \"contracts/Pool/Pool.sol\":5117:5131  inSwap = false */\n      0x0100\n      exp\n      dup2\n      sload\n      dup2\n      0xff\n      mul\n      not\n      and\n      swap1\n      dup4\n      iszero\n      iszero\n      mul\n      or\n      swap1\n      sstore\n      pop\n        /* \"contracts/Pool/Pool.sol\":9315:9786  function swapTokensForEth(uint256 tokenAmount) private lockTheSwap {... */\n      pop\n      jump\t// out\n        /* \"contracts/Pool/Pool.sol\":9967:10111  function _tokenTransfer(address sender, address recipient, uint256 amount) private {... */\n    tag_303:\n        /* \"contracts/Pool/Pool.sol\":10060:10104  _transferStandard(sender, recipient, amount) */\n      tag_345\n        /* \"contracts/Pool/Pool.sol\":10078:10084  sender */\n      dup4\n        /* \"contracts/Pool/Pool.sol\":10086:10095  recipient */\n      dup4\n        /* \"contracts/Pool/Pool.sol\":10097:10103  amount */\n      dup4\n        /* \"contracts/Pool/Pool.sol\":10060:10077  _transferStandard */\n      tag_346\n        /* \"contracts/Pool/Pool.sol\":10060:10104  _transferStandard(sender, recipient, amount) */\n      jump\t// in\n    tag_345:\n        /* \"contracts/Pool/Pool.sol\":9967:10111  function _tokenTransfer(address sender, address recipient, uint256 amount) private {... */\n      pop\n      pop\n      pop\n      jump\t// out\n        /* \"contracts/Pool/Pool.sol\":2604:2734  function div(uint256 a, uint256 b) internal pure returns (uint256) {... */\n    tag_311:\n        /* \"contracts/Pool/Pool.sol\":2662:2669  uint256 */\n      0x00\n        /* \"contracts/Pool/Pool.sol\":2688:2727  div(a, b, \"SafeMath: division by zero\") */\n      tag_348\n        /* \"contracts/Pool/Pool.sol\":2692:2693  a */\n      dup4\n        /* \"contracts/Pool/Pool.sol\":2695:2696  b */\n      dup4\n        /* \"contracts/Pool/Pool.sol\":2688:2727  div(a, b, \"SafeMath: division by zero\") */\n      mload(0x40)\n      dup1\n      0x40\n      add\n      0x40\n      mstore\n      dup1\n      0x1a\n      dup2\n      mstore\n      0x20\n      add\n      0x536166654d6174683a206469766973696f6e206279207a65726f000000000000\n      dup2\n      mstore\n      pop\n        /* \"contracts/Pool/Pool.sol\":2688:2691  div */\n      tag_349\n        /* \"contracts/Pool/Pool.sol\":2688:2727  div(a, b, \"SafeMath: division by zero\") */\n      jump\t// in\n    tag_348:\n        /* \"contracts/Pool/Pool.sol\":2681:2727  return div(a, b, \"SafeMath: division by zero\") */\n      swap1\n      pop\n        /* \"contracts/Pool/Pool.sol\":2604:2734  function div(uint256 a, uint256 b) internal pure returns (uint256) {... */\n      swap3\n      swap2\n      pop\n      pop\n      jump\t// out\n        /* \"contracts/Pool/Pool.sol\":13159:13319  function _getRate() private view returns(uint256) {... */\n    tag_322:\n        /* \"contracts/Pool/Pool.sol\":13200:13207  uint256 */\n      0x00\n        /* \"contracts/Pool/Pool.sol\":13220:13235  uint256 rSupply */\n      dup1\n        /* \"contracts/Pool/Pool.sol\":13237:13252  uint256 tSupply */\n      0x00\n        /* \"contracts/Pool/Pool.sol\":13256:13275  _getCurrentSupply() */\n      tag_351\n        /* \"contracts/Pool/Pool.sol\":13256:13273  _getCurrentSupply */\n      tag_352\n        /* \"contracts/Pool/Pool.sol\":13256:13275  _getCurrentSupply() */\n      jump\t// in\n    tag_351:\n        /* \"contracts/Pool/Pool.sol\":13219:13275  (uint256 rSupply, uint256 tSupply) = _getCurrentSupply() */\n      swap2\n      pop\n      swap2\n      pop\n        /* \"contracts/Pool/Pool.sol\":13292:13312  rSupply.div(tSupply) */\n      tag_353\n        /* \"contracts/Pool/Pool.sol\":13304:13311  tSupply */\n      dup2\n        /* \"contracts/Pool/Pool.sol\":13292:13299  rSupply */\n      dup4\n        /* \"contracts/Pool/Pool.sol\":13292:13303  rSupply.div */\n      tag_311\n      swap1\n        /* \"contracts/Pool/Pool.sol\":13292:13312  rSupply.div(tSupply) */\n      swap2\n      swap1\n      0xffffffff\n      and\n      jump\t// in\n    tag_353:\n        /* \"contracts/Pool/Pool.sol\":13285:13312  return rSupply.div(tSupply) */\n      swap3\n      pop\n      pop\n      pop\n        /* \"contracts/Pool/Pool.sol\":13159:13319  function _getRate() private view returns(uint256) {... */\n      swap1\n      jump\t// out\n        /* \"contracts/Pool/Pool.sol\":11041:11522  function _transferStandard(address sender, address recipient, uint256 tAmount) private {... */\n    tag_346:\n        /* \"contracts/Pool/Pool.sol\":11139:11154  uint256 rAmount */\n      0x00\n        /* \"contracts/Pool/Pool.sol\":11156:11179  uint256 rTransferAmount */\n      dup1\n        /* \"contracts/Pool/Pool.sol\":11181:11193  uint256 rFee */\n      0x00\n        /* \"contracts/Pool/Pool.sol\":11195:11218  uint256 tTransferAmount */\n      dup1\n        /* \"contracts/Pool/Pool.sol\":11220:11232  uint256 tFee */\n      0x00\n        /* \"contracts/Pool/Pool.sol\":11234:11247  uint256 tTeam */\n      dup1\n        /* \"contracts/Pool/Pool.sol\":11251:11270  _getValues(tAmount) */\n      tag_355\n        /* \"contracts/Pool/Pool.sol\":11262:11269  tAmount */\n      dup8\n        /* \"contracts/Pool/Pool.sol\":11251:11261  _getValues */\n      tag_356\n        /* \"contracts/Pool/Pool.sol\":11251:11270  _getValues(tAmount) */\n      jump\t// in\n    tag_355:\n        /* \"contracts/Pool/Pool.sol\":11138:11270  (uint256 rAmount, uint256 rTransferAmount, uint256 rFee, uint256 tTransferAmount, uint256 tFee, uint256 tTeam) = _getValues(tAmount) */\n      swap6\n      pop\n      swap6\n      pop\n      swap6\n      pop\n      swap6\n      pop\n      swap6\n      pop\n      swap6\n      pop\n        /* \"contracts/Pool/Pool.sol\":11298:11326  _rOwned[sender].sub(rAmount) */\n      tag_357\n        /* \"contracts/Pool/Pool.sol\":11318:11325  rAmount */\n      dup7\n        /* \"contracts/Pool/Pool.sol\":11298:11305  _rOwned */\n      0x02\n        /* \"contracts/Pool/Pool.sol\":11298:11313  _rOwned[sender] */\n      0x00\n        /* \"contracts/Pool/Pool.sol\":11306:11312  sender */\n      dup13\n        /* \"contracts/Pool/Pool.sol\":11298:11313  _rOwned[sender] */\n      0xffffffffffffffffffffffffffffffffffffffff\n      and\n      0xffffffffffffffffffffffffffffffffffffffff\n      and\n      dup2\n      mstore\n      0x20\n      add\n      swap1\n      dup2\n      mstore\n      0x20\n      add\n      0x00\n      keccak256\n      sload\n        /* \"contracts/Pool/Pool.sol\":11298:11317  _rOwned[sender].sub */\n      tag_358\n      swap1\n        /* \"contracts/Pool/Pool.sol\":11298:11326  _rOwned[sender].sub(rAmount) */\n      swap2\n      swap1\n      0xffffffff\n      and\n      jump\t// in\n    tag_357:\n        /* \"contracts/Pool/Pool.sol\":11280:11287  _rOwned */\n      0x02\n        /* \"contracts/Pool/Pool.sol\":11280:11295  _rOwned[sender] */\n      0x00\n        /* \"contracts/Pool/Pool.sol\":11288:11294  sender */\n      dup12\n        /* \"contracts/Pool/Pool.sol\":11280:11295  _rOwned[sender] */\n      0xffffffffffffffffffffffffffffffffffffffff\n      and\n      0xffffffffffffffffffffffffffffffffffffffff\n      and\n      dup2\n      mstore\n      0x20\n      add\n      swap1\n      dup2\n      mstore\n      0x20\n      add\n      0x00\n      keccak256\n        /* \"contracts/Pool/Pool.sol\":11280:11326  _rOwned[sender] = _rOwned[sender].sub(rAmount) */\n      dup2\n      swap1\n      sstore\n      pop\n        /* \"contracts/Pool/Pool.sol\":11357:11396  _rOwned[recipient].add(rTransferAmount) */\n      tag_359\n        /* \"contracts/Pool/Pool.sol\":11380:11395  rTransferAmount */\n      dup6\n        /* \"contracts/Pool/Pool.sol\":11357:11364  _rOwned */\n      0x02\n        /* \"contracts/Pool/Pool.sol\":11357:11375  _rOwned[recipient] */\n      0x00\n        /* \"contracts/Pool/Pool.sol\":11365:11374  recipient */\n      dup12\n        /* \"contracts/Pool/Pool.sol\":11357:11375  _rOwned[recipient] */\n      0xffffffffffffffffffffffffffffffffffffffff\n      and\n      0xffffffffffffffffffffffffffffffffffffffff\n      and\n      dup2\n      mstore\n      0x20\n      add\n      swap1\n      dup2\n      mstore\n      0x20\n      add\n      0x00\n      keccak256\n      sload\n        /* \"contracts/Pool/Pool.sol\":11357:11379  _rOwned[recipient].add */\n      tag_360\n      swap1\n        /* \"contracts/Pool/Pool.sol\":11357:11396  _rOwned[recipient].add(rTransferAmount) */\n      swap2\n      swap1\n      0xffffffff\n      and\n      jump\t// in\n    tag_359:\n        /* \"contracts/Pool/Pool.sol\":11336:11343  _rOwned */\n      0x02\n        /* \"contracts/Pool/Pool.sol\":11336:11354  _rOwned[recipient] */\n      0x00\n        /* \"contracts/Pool/Pool.sol\":11344:11353  recipient */\n      dup11\n        /* \"contracts/Pool/Pool.sol\":11336:11354  _rOwned[recipient] */\n      0xffffffffffffffffffffffffffffffffffffffff\n      and\n      0xffffffffffffffffffffffffffffffffffffffff\n      and\n      dup2\n      mstore\n      0x20\n      add\n      swap1\n      dup2\n      mstore\n      0x20\n      add\n      0x00\n      keccak256\n        /* \"contracts/Pool/Pool.sol\":11336:11396  _rOwned[recipient] = _rOwned[recipient].add(rTransferAmount) */\n      dup2\n      swap1\n      sstore\n      pop\n        /* \"contracts/Pool/Pool.sol\":11407:11423  _takeTeam(tTeam) */\n      tag_361\n        /* \"contracts/Pool/Pool.sol\":11417:11422  tTeam */\n      dup2\n        /* \"contracts/Pool/Pool.sol\":11407:11416  _takeTeam */\n      tag_362\n        /* \"contracts/Pool/Pool.sol\":11407:11423  _takeTeam(tTeam) */\n      jump\t// in\n    tag_361:\n        /* \"contracts/Pool/Pool.sol\":11433:11456  _reflectFee(rFee, tFee) */\n      tag_363\n        /* \"contracts/Pool/Pool.sol\":11445:11449  rFee */\n      dup5\n        /* \"contracts/Pool/Pool.sol\":11451:11455  tFee */\n      dup4\n        /* \"contracts/Pool/Pool.sol\":11433:11444  _reflectFee */\n      tag_364\n        /* \"contracts/Pool/Pool.sol\":11433:11456  _reflectFee(rFee, tFee) */\n      jump\t// in\n    tag_363:\n        /* \"contracts/Pool/Pool.sol\":11488:11497  recipient */\n      dup8\n        /* \"contracts/Pool/Pool.sol\":11471:11515  Transfer(sender, recipient, tTransferAmount) */\n      0xffffffffffffffffffffffffffffffffffffffff\n      and\n        /* \"contracts/Pool/Pool.sol\":11480:11486  sender */\n      dup10\n        /* \"contracts/Pool/Pool.sol\":11471:11515  Transfer(sender, recipient, tTransferAmount) */\n      0xffffffffffffffffffffffffffffffffffffffff\n      and\n      0xddf252ad1be2c89b69c2b068fc378daa952ba7f163c4a11628f55a4df523b3ef\n        /* \"contracts/Pool/Pool.sol\":11499:11514  tTransferAmount */\n      dup6\n        /* \"contracts/Pool/Pool.sol\":11471:11515  Transfer(sender, recipient, tTransferAmount) */\n      mload(0x40)\n      tag_365\n      swap2\n      swap1\n      tag_51\n      jump\t// in\n    tag_365:\n      mload(0x40)\n      dup1\n      swap2\n      sub\n      swap1\n      log3\n        /* \"contracts/Pool/Pool.sol\":11128:11522  {... */\n      pop\n      pop\n      pop\n      pop\n      pop\n      pop\n        /* \"contracts/Pool/Pool.sol\":11041:11522  function _transferStandard(address sender, address recipient, uint256 tAmount) private {... */\n      pop\n      pop\n      pop\n      jump\t// out\n        /* \"contracts/Pool/Pool.sol\":2740:2925  function div(uint256 a, uint256 b, string memory errorMessage) internal pure returns (uint256) {... */\n    tag_349:\n        /* \"contracts/Pool/Pool.sol\":2826:2833  uint256 */\n      0x00\n        /* \"contracts/Pool/Pool.sol\":2857:2858  0 */\n      dup1\n        /* \"contracts/Pool/Pool.sol\":2853:2854  b */\n      dup4\n        /* \"contracts/Pool/Pool.sol\":2853:2858  b > 0 */\n      gt\n        /* \"contracts/Pool/Pool.sol\":2860:2872  errorMessage */\n      dup3\n        /* \"contracts/Pool/Pool.sol\":2845:2873  require(b > 0, errorMessage) */\n      swap1\n      tag_367\n      jumpi\n      mload(0x40)\n      0x08c379a000000000000000000000000000000000000000000000000000000000\n      dup2\n      mstore\n      0x04\n      add\n      tag_368\n      swap2\n      swap1\n      tag_34\n      jump\t// in\n    tag_368:\n      mload(0x40)\n      dup1\n      swap2\n      sub\n      swap1\n      revert\n    tag_367:\n      pop\n        /* \"contracts/Pool/Pool.sol\":2883:2892  uint256 c */\n      0x00\n        /* \"contracts/Pool/Pool.sol\":2899:2900  b */\n      dup4\n        /* \"contracts/Pool/Pool.sol\":2895:2896  a */\n      dup6\n        /* \"contracts/Pool/Pool.sol\":2895:2900  a / b */\n      tag_369\n      swap2\n      swap1\n      tag_370\n      jump\t// in\n    tag_369:\n        /* \"contracts/Pool/Pool.sol\":2883:2900  uint256 c = a / b */\n      swap1\n      pop\n        /* \"contracts/Pool/Pool.sol\":2917:2918  c */\n      dup1\n        /* \"contracts/Pool/Pool.sol\":2910:2918  return c */\n      swap2\n      pop\n      pop\n        /* \"contracts/Pool/Pool.sol\":2740:2925  function div(uint256 a, uint256 b, string memory errorMessage) internal pure returns (uint256) {... */\n      swap4\n      swap3\n      pop\n      pop\n      pop\n      jump\t// out\n        /* \"contracts/Pool/Pool.sol\":13325:13582  function _getCurrentSupply() private view returns(uint256, uint256) {... */\n    tag_352:\n        /* \"contracts/Pool/Pool.sol\":13375:13382  uint256 */\n      0x00\n        /* \"contracts/Pool/Pool.sol\":13384:13391  uint256 */\n      dup1\n        /* \"contracts/Pool/Pool.sol\":13403:13418  uint256 rSupply */\n      0x00\n        /* \"contracts/Pool/Pool.sol\":13421:13428  _rTotal */\n      sload(0x06)\n        /* \"contracts/Pool/Pool.sol\":13403:13428  uint256 rSupply = _rTotal */\n      swap1\n      pop\n        /* \"contracts/Pool/Pool.sol\":13438:13453  uint256 tSupply */\n      0x00\n        /* \"contracts/Pool/Pool.sol\":4200:4213  1*10**9*10**9 */\n      0x0de0b6b3a7640000\n        /* \"contracts/Pool/Pool.sol\":13438:13463  uint256 tSupply = _tTotal */\n      swap1\n      pop\n        /* \"contracts/Pool/Pool.sol\":13493:13513  _rTotal.div(_tTotal) */\n      tag_372\n        /* \"contracts/Pool/Pool.sol\":4200:4213  1*10**9*10**9 */\n      0x0de0b6b3a7640000\n        /* \"contracts/Pool/Pool.sol\":13493:13500  _rTotal */\n      sload(0x06)\n        /* \"contracts/Pool/Pool.sol\":13493:13504  _rTotal.div */\n      tag_311\n      swap1\n        /* \"contracts/Pool/Pool.sol\":13493:13513  _rTotal.div(_tTotal) */\n      swap2\n      swap1\n      0xffffffff\n      and\n      jump\t// in\n    tag_372:\n        /* \"contracts/Pool/Pool.sol\":13483:13490  rSupply */\n      dup3\n        /* \"contracts/Pool/Pool.sol\":13483:13513  rSupply < _rTotal.div(_tTotal) */\n      lt\n        /* \"contracts/Pool/Pool.sol\":13479:13540  if (rSupply < _rTotal.div(_tTotal)) return (_rTotal, _tTotal) */\n      iszero\n      tag_373\n      jumpi\n        /* \"contracts/Pool/Pool.sol\":13523:13530  _rTotal */\n      sload(0x06)\n        /* \"contracts/Pool/Pool.sol\":4200:4213  1*10**9*10**9 */\n      0x0de0b6b3a7640000\n        /* \"contracts/Pool/Pool.sol\":13515:13540  return (_rTotal, _tTotal) */\n      swap4\n      pop\n      swap4\n      pop\n      pop\n      pop\n      jump(tag_371)\n        /* \"contracts/Pool/Pool.sol\":13479:13540  if (rSupply < _rTotal.div(_tTotal)) return (_rTotal, _tTotal) */\n    tag_373:\n        /* \"contracts/Pool/Pool.sol\":13558:13565  rSupply */\n      dup2\n        /* \"contracts/Pool/Pool.sol\":13567:13574  tSupply */\n      dup2\n        /* \"contracts/Pool/Pool.sol\":13550:13575  return (rSupply, tSupply) */\n      swap4\n      pop\n      swap4\n      pop\n      pop\n      pop\n        /* \"contracts/Pool/Pool.sol\":13325:13582  function _getCurrentSupply() private view returns(uint256, uint256) {... */\n    tag_371:\n      swap1\n      swap2\n      jump\t// out\n        /* \"contracts/Pool/Pool.sol\":11931:12395  function _getValues(uint256 tAmount) private view returns (uint256, uint256, uint256, uint256, uint256, uint256) {... */\n    tag_356:\n        /* \"contracts/Pool/Pool.sol\":11990:11997  uint256 */\n      0x00\n        /* \"contracts/Pool/Pool.sol\":11999:12006  uint256 */\n      dup1\n        /* \"contracts/Pool/Pool.sol\":12008:12015  uint256 */\n      0x00\n        /* \"contracts/Pool/Pool.sol\":12017:12024  uint256 */\n      dup1\n        /* \"contracts/Pool/Pool.sol\":12026:12033  uint256 */\n      0x00\n        /* \"contracts/Pool/Pool.sol\":12035:12042  uint256 */\n      dup1\n        /* \"contracts/Pool/Pool.sol\":12055:12078  uint256 tTransferAmount */\n      0x00\n        /* \"contracts/Pool/Pool.sol\":12080:12092  uint256 tFee */\n      dup1\n        /* \"contracts/Pool/Pool.sol\":12094:12107  uint256 tTeam */\n      0x00\n        /* \"contracts/Pool/Pool.sol\":12111:12151  _getTValues(tAmount, _redisFee, _taxFee) */\n      tag_375\n        /* \"contracts/Pool/Pool.sol\":12123:12130  tAmount */\n      dup11\n        /* \"contracts/Pool/Pool.sol\":12132:12141  _redisFee */\n      sload(0x0c)\n        /* \"contracts/Pool/Pool.sol\":12143:12150  _taxFee */\n      sload(0x0d)\n        /* \"contracts/Pool/Pool.sol\":12111:12122  _getTValues */\n      tag_376\n        /* \"contracts/Pool/Pool.sol\":12111:12151  _getTValues(tAmount, _redisFee, _taxFee) */\n      jump\t// in\n    tag_375:\n        /* \"contracts/Pool/Pool.sol\":12054:12151  (uint256 tTransferAmount, uint256 tFee, uint256 tTeam) = _getTValues(tAmount, _redisFee, _taxFee) */\n      swap3\n      pop\n      swap3\n      pop\n      swap3\n      pop\n        /* \"contracts/Pool/Pool.sol\":12161:12180  uint256 currentRate */\n      0x00\n        /* \"contracts/Pool/Pool.sol\":12184:12194  _getRate() */\n      tag_377\n        /* \"contracts/Pool/Pool.sol\":12184:12192  _getRate */\n      tag_322\n        /* \"contracts/Pool/Pool.sol\":12184:12194  _getRate() */\n      jump\t// in\n    tag_377:\n        /* \"contracts/Pool/Pool.sol\":12161:12194  uint256 currentRate =  _getRate() */\n      swap1\n      pop\n        /* \"contracts/Pool/Pool.sol\":12205:12220  uint256 rAmount */\n      0x00\n        /* \"contracts/Pool/Pool.sol\":12222:12245  uint256 rTransferAmount */\n      dup1\n        /* \"contracts/Pool/Pool.sol\":12247:12259  uint256 rFee */\n      0x00\n        /* \"contracts/Pool/Pool.sol\":12263:12309  _getRValues(tAmount, tFee, tTeam, currentRate) */\n      tag_378\n        /* \"contracts/Pool/Pool.sol\":12275:12282  tAmount */\n      dup15\n        /* \"contracts/Pool/Pool.sol\":12284:12288  tFee */\n      dup8\n        /* \"contracts/Pool/Pool.sol\":12290:12295  tTeam */\n      dup8\n        /* \"contracts/Pool/Pool.sol\":12297:12308  currentRate */\n      dup8\n        /* \"contracts/Pool/Pool.sol\":12263:12274  _getRValues */\n      tag_379\n        /* \"contracts/Pool/Pool.sol\":12263:12309  _getRValues(tAmount, tFee, tTeam, currentRate) */\n      jump\t// in\n    tag_378:\n        /* \"contracts/Pool/Pool.sol\":12204:12309  (uint256 rAmount, uint256 rTransferAmount, uint256 rFee) = _getRValues(tAmount, tFee, tTeam, currentRate) */\n      swap3\n      pop\n      swap3\n      pop\n      swap3\n      pop\n        /* \"contracts/Pool/Pool.sol\":12327:12334  rAmount */\n      dup3\n        /* \"contracts/Pool/Pool.sol\":12336:12351  rTransferAmount */\n      dup3\n        /* \"contracts/Pool/Pool.sol\":12353:12357  rFee */\n      dup3\n        /* \"contracts/Pool/Pool.sol\":12359:12374  tTransferAmount */\n      dup10\n        /* \"contracts/Pool/Pool.sol\":12376:12380  tFee */\n      dup10\n        /* \"contracts/Pool/Pool.sol\":12382:12387  tTeam */\n      dup10\n        /* \"contracts/Pool/Pool.sol\":12319:12388  return (rAmount, rTransferAmount, rFee, tTransferAmount, tFee, tTeam) */\n      swap13\n      pop\n      swap13\n      pop\n      swap13\n      pop\n      swap13\n      pop\n      swap13\n      pop\n      swap13\n      pop\n      pop\n      pop\n      pop\n      pop\n      pop\n      pop\n      pop\n        /* \"contracts/Pool/Pool.sol\":11931:12395  function _getValues(uint256 tAmount) private view returns (uint256, uint256, uint256, uint256, uint256, uint256) {... */\n      swap2\n      swap4\n      swap6\n      pop\n      swap2\n      swap4\n      swap6\n      jump\t// out\n        /* \"contracts/Pool/Pool.sol\":2027:2161  function sub(uint256 a, uint256 b) internal pure returns (uint256) {... */\n    tag_358:\n        /* \"contracts/Pool/Pool.sol\":2085:2092  uint256 */\n      0x00\n        /* \"contracts/Pool/Pool.sol\":2111:2154  sub(a, b, \"SafeMath: subtraction overflow\") */\n      tag_381\n        /* \"contracts/Pool/Pool.sol\":2115:2116  a */\n      dup4\n        /* \"contracts/Pool/Pool.sol\":2118:2119  b */\n      dup4\n        /* \"contracts/Pool/Pool.sol\":2111:2154  sub(a, b, \"SafeMath: subtraction overflow\") */\n      mload(0x40)\n      dup1\n      0x40\n      add\n      0x40\n      mstore\n      dup1\n      0x1e\n      dup2\n      mstore\n      0x20\n      add\n      0x536166654d6174683a207375627472616374696f6e206f766572666c6f770000\n      dup2\n      mstore\n      pop\n        /* \"contracts/Pool/Pool.sol\":2111:2114  sub */\n      tag_148\n        /* \"contracts/Pool/Pool.sol\":2111:2154  sub(a, b, \"SafeMath: subtraction overflow\") */\n      jump\t// in\n    tag_381:\n        /* \"contracts/Pool/Pool.sol\":2104:2154  return sub(a, b, \"SafeMath: subtraction overflow\") */\n      swap1\n      pop\n        /* \"contracts/Pool/Pool.sol\":2027:2161  function sub(uint256 a, uint256 b) internal pure returns (uint256) {... */\n      swap3\n      swap2\n      pop\n      pop\n      jump\t// out\n        /* \"contracts/Pool/Pool.sol\":1846:2021  function add(uint256 a, uint256 b) internal pure returns (uint256) {... */\n    tag_360:\n        /* \"contracts/Pool/Pool.sol\":1904:1911  uint256 */\n      0x00\n        /* \"contracts/Pool/Pool.sol\":1923:1932  uint256 c */\n      dup1\n        /* \"contracts/Pool/Pool.sol\":1939:1940  b */\n      dup3\n        /* \"contracts/Pool/Pool.sol\":1935:1936  a */\n      dup5\n        /* \"contracts/Pool/Pool.sol\":1935:1940  a + b */\n      tag_383\n      swap2\n      swap1\n      tag_384\n      jump\t// in\n    tag_383:\n        /* \"contracts/Pool/Pool.sol\":1923:1940  uint256 c = a + b */\n      swap1\n      pop\n        /* \"contracts/Pool/Pool.sol\":1963:1964  a */\n      dup4\n        /* \"contracts/Pool/Pool.sol\":1958:1959  c */\n      dup2\n        /* \"contracts/Pool/Pool.sol\":1958:1964  c >= a */\n      lt\n      iszero\n        /* \"contracts/Pool/Pool.sol\":1950:1996  require(c >= a, \"SafeMath: addition overflow\") */\n      tag_385\n      jumpi\n      mload(0x40)\n      0x08c379a000000000000000000000000000000000000000000000000000000000\n      dup2\n      mstore\n      0x04\n      add\n      tag_386\n      swap1\n      tag_387\n      jump\t// in\n    tag_386:\n      mload(0x40)\n      dup1\n      swap2\n      sub\n      swap1\n      revert\n    tag_385:\n        /* \"contracts/Pool/Pool.sol\":2013:2014  c */\n      dup1\n        /* \"contracts/Pool/Pool.sol\":2006:2014  return c */\n      swap2\n      pop\n      pop\n        /* \"contracts/Pool/Pool.sol\":1846:2021  function add(uint256 a, uint256 b) internal pure returns (uint256) {... */\n      swap3\n      swap2\n      pop\n      pop\n      jump\t// out\n        /* \"contracts/Pool/Pool.sol\":11528:11736  function _takeTeam(uint256 tTeam) private {... */\n    tag_362:\n        /* \"contracts/Pool/Pool.sol\":11580:11599  uint256 currentRate */\n      0x00\n        /* \"contracts/Pool/Pool.sol\":11603:11613  _getRate() */\n      tag_389\n        /* \"contracts/Pool/Pool.sol\":11603:11611  _getRate */\n      tag_322\n        /* \"contracts/Pool/Pool.sol\":11603:11613  _getRate() */\n      jump\t// in\n    tag_389:\n        /* \"contracts/Pool/Pool.sol\":11580:11613  uint256 currentRate =  _getRate() */\n      swap1\n      pop\n        /* \"contracts/Pool/Pool.sol\":11623:11636  uint256 rTeam */\n      0x00\n        /* \"contracts/Pool/Pool.sol\":11639:11661  tTeam.mul(currentRate) */\n      tag_390\n        /* \"contracts/Pool/Pool.sol\":11649:11660  currentRate */\n      dup3\n        /* \"contracts/Pool/Pool.sol\":11639:11644  tTeam */\n      dup5\n        /* \"contracts/Pool/Pool.sol\":11639:11648  tTeam.mul */\n      tag_391\n      swap1\n        /* \"contracts/Pool/Pool.sol\":11639:11661  tTeam.mul(currentRate) */\n      swap2\n      swap1\n      0xffffffff\n      and\n      jump\t// in\n    tag_390:\n        /* \"contracts/Pool/Pool.sol\":11623:11661  uint256 rTeam = tTeam.mul(currentRate) */\n      swap1\n      pop\n        /* \"contracts/Pool/Pool.sol\":11696:11729  _rOwned[address(this)].add(rTeam) */\n      tag_392\n        /* \"contracts/Pool/Pool.sol\":11723:11728  rTeam */\n      dup2\n        /* \"contracts/Pool/Pool.sol\":11696:11703  _rOwned */\n      0x02\n        /* \"contracts/Pool/Pool.sol\":11696:11718  _rOwned[address(this)] */\n      0x00\n        /* \"contracts/Pool/Pool.sol\":11712:11716  this */\n      address\n        /* \"contracts/Pool/Pool.sol\":11696:11718  _rOwned[address(this)] */\n      0xffffffffffffffffffffffffffffffffffffffff\n      and\n      0xffffffffffffffffffffffffffffffffffffffff\n      and\n      dup2\n      mstore\n      0x20\n      add\n      swap1\n      dup2\n      mstore\n      0x20\n      add\n      0x00\n      keccak256\n      sload\n        /* \"contracts/Pool/Pool.sol\":11696:11722  _rOwned[address(this)].add */\n      tag_360\n      swap1\n        /* \"contracts/Pool/Pool.sol\":11696:11729  _rOwned[address(this)].add(rTeam) */\n      swap2\n      swap1\n      0xffffffff\n      and\n      jump\t// in\n    tag_392:\n        /* \"contracts/Pool/Pool.sol\":11671:11678  _rOwned */\n      0x02\n        /* \"contracts/Pool/Pool.sol\":11671:11693  _rOwned[address(this)] */\n      0x00\n        /* \"contracts/Pool/Pool.sol\":11687:11691  this */\n      address\n        /* \"contracts/Pool/Pool.sol\":11671:11693  _rOwned[address(this)] */\n      0xffffffffffffffffffffffffffffffffffffffff\n      and\n      0xffffffffffffffffffffffffffffffffffffffff\n      and\n      dup2\n      mstore\n      0x20\n      add\n      swap1\n      dup2\n      mstore\n      0x20\n      add\n      0x00\n      keccak256\n        /* \"contracts/Pool/Pool.sol\":11671:11729  _rOwned[address(this)] = _rOwned[address(this)].add(rTeam) */\n      dup2\n      swap1\n      sstore\n      pop\n        /* \"contracts/Pool/Pool.sol\":11570:11736  {... */\n      pop\n      pop\n        /* \"contracts/Pool/Pool.sol\":11528:11736  function _takeTeam(uint256 tTeam) private {... */\n      pop\n      jump\t// out\n        /* \"contracts/Pool/Pool.sol\":11742:11886  function _reflectFee(uint256 rFee, uint256 tFee) private {... */\n    tag_364:\n        /* \"contracts/Pool/Pool.sol\":11819:11836  _rTotal.sub(rFee) */\n      tag_394\n        /* \"contracts/Pool/Pool.sol\":11831:11835  rFee */\n      dup3\n        /* \"contracts/Pool/Pool.sol\":11819:11826  _rTotal */\n      sload(0x06)\n        /* \"contracts/Pool/Pool.sol\":11819:11830  _rTotal.sub */\n      tag_358\n      swap1\n        /* \"contracts/Pool/Pool.sol\":11819:11836  _rTotal.sub(rFee) */\n      swap2\n      swap1\n      0xffffffff\n      and\n      jump\t// in\n    tag_394:\n        /* \"contracts/Pool/Pool.sol\":11809:11816  _rTotal */\n      0x06\n        /* \"contracts/Pool/Pool.sol\":11809:11836  _rTotal = _rTotal.sub(rFee) */\n      dup2\n      swap1\n      sstore\n      pop\n        /* \"contracts/Pool/Pool.sol\":11859:11879  _tFeeTotal.add(tFee) */\n      tag_395\n        /* \"contracts/Pool/Pool.sol\":11874:11878  tFee */\n      dup2\n        /* \"contracts/Pool/Pool.sol\":11859:11869  _tFeeTotal */\n      sload(0x07)\n        /* \"contracts/Pool/Pool.sol\":11859:11873  _tFeeTotal.add */\n      tag_360\n      swap1\n        /* \"contracts/Pool/Pool.sol\":11859:11879  _tFeeTotal.add(tFee) */\n      swap2\n      swap1\n      0xffffffff\n      and\n      jump\t// in\n    tag_395:\n        /* \"contracts/Pool/Pool.sol\":11846:11856  _tFeeTotal */\n      0x07\n        /* \"contracts/Pool/Pool.sol\":11846:11879  _tFeeTotal = _tFeeTotal.add(tFee) */\n      dup2\n      swap1\n      sstore\n      pop\n        /* \"contracts/Pool/Pool.sol\":11742:11886  function _reflectFee(uint256 rFee, uint256 tFee) private {... */\n      pop\n      pop\n      jump\t// out\n        /* \"contracts/Pool/Pool.sol\":12401:12747  function _getTValues(uint256 tAmount, uint256 taxFee, uint256 TeamFee) private pure returns (uint256, uint256, uint256) {... */\n    tag_376:\n        /* \"contracts/Pool/Pool.sol\":12494:12501  uint256 */\n      0x00\n        /* \"contracts/Pool/Pool.sol\":12503:12510  uint256 */\n      dup1\n        /* \"contracts/Pool/Pool.sol\":12512:12519  uint256 */\n      0x00\n        /* \"contracts/Pool/Pool.sol\":12531:12543  uint256 tFee */\n      dup1\n        /* \"contracts/Pool/Pool.sol\":12546:12574  tAmount.mul(taxFee).div(100) */\n      tag_397\n        /* \"contracts/Pool/Pool.sol\":12570:12573  100 */\n      0x64\n        /* \"contracts/Pool/Pool.sol\":12546:12565  tAmount.mul(taxFee) */\n      tag_398\n        /* \"contracts/Pool/Pool.sol\":12558:12564  taxFee */\n      dup9\n        /* \"contracts/Pool/Pool.sol\":12546:12553  tAmount */\n      dup11\n        /* \"contracts/Pool/Pool.sol\":12546:12557  tAmount.mul */\n      tag_391\n      swap1\n        /* \"contracts/Pool/Pool.sol\":12546:12565  tAmount.mul(taxFee) */\n      swap2\n      swap1\n      0xffffffff\n      and\n      jump\t// in\n    tag_398:\n        /* \"contracts/Pool/Pool.sol\":12546:12569  tAmount.mul(taxFee).div */\n      tag_311\n      swap1\n        /* \"contracts/Pool/Pool.sol\":12546:12574  tAmount.mul(taxFee).div(100) */\n      swap2\n      swap1\n      0xffffffff\n      and\n      jump\t// in\n    tag_397:\n        /* \"contracts/Pool/Pool.sol\":12531:12574  uint256 tFee = tAmount.mul(taxFee).div(100) */\n      swap1\n      pop\n        /* \"contracts/Pool/Pool.sol\":12584:12597  uint256 tTeam */\n      0x00\n        /* \"contracts/Pool/Pool.sol\":12600:12629  tAmount.mul(TeamFee).div(100) */\n      tag_399\n        /* \"contracts/Pool/Pool.sol\":12625:12628  100 */\n      0x64\n        /* \"contracts/Pool/Pool.sol\":12600:12620  tAmount.mul(TeamFee) */\n      tag_400\n        /* \"contracts/Pool/Pool.sol\":12612:12619  TeamFee */\n      dup9\n        /* \"contracts/Pool/Pool.sol\":12600:12607  tAmount */\n      dup12\n        /* \"contracts/Pool/Pool.sol\":12600:12611  tAmount.mul */\n      tag_391\n      swap1\n        /* \"contracts/Pool/Pool.sol\":12600:12620  tAmount.mul(TeamFee) */\n      swap2\n      swap1\n      0xffffffff\n      and\n      jump\t// in\n    tag_400:\n        /* \"contracts/Pool/Pool.sol\":12600:12624  tAmount.mul(TeamFee).div */\n      tag_311\n      swap1\n        /* \"contracts/Pool/Pool.sol\":12600:12629  tAmount.mul(TeamFee).div(100) */\n      swap2\n      swap1\n      0xffffffff\n      and\n      jump\t// in\n    tag_399:\n        /* \"contracts/Pool/Pool.sol\":12584:12629  uint256 tTeam = tAmount.mul(TeamFee).div(100) */\n      swap1\n      pop\n        /* \"contracts/Pool/Pool.sol\":12639:12662  uint256 tTransferAmount */\n      0x00\n        /* \"contracts/Pool/Pool.sol\":12665:12693  tAmount.sub(tFee).sub(tTeam) */\n      tag_401\n        /* \"contracts/Pool/Pool.sol\":12687:12692  tTeam */\n      dup3\n        /* \"contracts/Pool/Pool.sol\":12665:12682  tAmount.sub(tFee) */\n      tag_402\n        /* \"contracts/Pool/Pool.sol\":12677:12681  tFee */\n      dup6\n        /* \"contracts/Pool/Pool.sol\":12665:12672  tAmount */\n      dup13\n        /* \"contracts/Pool/Pool.sol\":12665:12676  tAmount.sub */\n      tag_358\n      swap1\n        /* \"contracts/Pool/Pool.sol\":12665:12682  tAmount.sub(tFee) */\n      swap2\n      swap1\n      0xffffffff\n      and\n      jump\t// in\n    tag_402:\n        /* \"contracts/Pool/Pool.sol\":12665:12686  tAmount.sub(tFee).sub */\n      tag_358\n      swap1\n        /* \"contracts/Pool/Pool.sol\":12665:12693  tAmount.sub(tFee).sub(tTeam) */\n      swap2\n      swap1\n      0xffffffff\n      and\n      jump\t// in\n    tag_401:\n        /* \"contracts/Pool/Pool.sol\":12639:12693  uint256 tTransferAmount = tAmount.sub(tFee).sub(tTeam) */\n      swap1\n      pop\n        /* \"contracts/Pool/Pool.sol\":12711:12726  tTransferAmount */\n      dup1\n        /* \"contracts/Pool/Pool.sol\":12728:12732  tFee */\n      dup4\n        /* \"contracts/Pool/Pool.sol\":12734:12739  tTeam */\n      dup4\n        /* \"contracts/Pool/Pool.sol\":12703:12740  return (tTransferAmount, tFee, tTeam) */\n      swap6\n      pop\n      swap6\n      pop\n      swap6\n      pop\n      pop\n      pop\n      pop\n        /* \"contracts/Pool/Pool.sol\":12401:12747  function _getTValues(uint256 tAmount, uint256 taxFee, uint256 TeamFee) private pure returns (uint256, uint256, uint256) {... */\n      swap4\n      pop\n      swap4\n      pop\n      swap4\n      swap1\n      pop\n      jump\t// out\n        /* \"contracts/Pool/Pool.sol\":12753:13156  function _getRValues(uint256 tAmount, uint256 tFee, uint256 tTeam, uint256 currentRate) private pure returns (uint256, uint256, uint256) {... */\n    tag_379:\n        /* \"contracts/Pool/Pool.sol\":12863:12870  uint256 */\n      0x00\n        /* \"contracts/Pool/Pool.sol\":12872:12879  uint256 */\n      dup1\n        /* \"contracts/Pool/Pool.sol\":12881:12888  uint256 */\n      0x00\n        /* \"contracts/Pool/Pool.sol\":12900:12915  uint256 rAmount */\n      dup1\n        /* \"contracts/Pool/Pool.sol\":12918:12942  tAmount.mul(currentRate) */\n      tag_404\n        /* \"contracts/Pool/Pool.sol\":12930:12941  currentRate */\n      dup6\n        /* \"contracts/Pool/Pool.sol\":12918:12925  tAmount */\n      dup10\n        /* \"contracts/Pool/Pool.sol\":12918:12929  tAmount.mul */\n      tag_391\n      swap1\n        /* \"contracts/Pool/Pool.sol\":12918:12942  tAmount.mul(currentRate) */\n      swap2\n      swap1\n      0xffffffff\n      and\n      jump\t// in\n    tag_404:\n        /* \"contracts/Pool/Pool.sol\":12900:12942  uint256 rAmount = tAmount.mul(currentRate) */\n      swap1\n      pop\n        /* \"contracts/Pool/Pool.sol\":12952:12964  uint256 rFee */\n      0x00\n        /* \"contracts/Pool/Pool.sol\":12967:12988  tFee.mul(currentRate) */\n      tag_405\n        /* \"contracts/Pool/Pool.sol\":12976:12987  currentRate */\n      dup7\n        /* \"contracts/Pool/Pool.sol\":12967:12971  tFee */\n      dup10\n        /* \"contracts/Pool/Pool.sol\":12967:12975  tFee.mul */\n      tag_391\n      swap1\n        /* \"contracts/Pool/Pool.sol\":12967:12988  tFee.mul(currentRate) */\n      swap2\n      swap1\n      0xffffffff\n      and\n      jump\t// in\n    tag_405:\n        /* \"contracts/Pool/Pool.sol\":12952:12988  uint256 rFee = tFee.mul(currentRate) */\n      swap1\n      pop\n        /* \"contracts/Pool/Pool.sol\":12998:13011  uint256 rTeam */\n      0x00\n        /* \"contracts/Pool/Pool.sol\":13014:13036  tTeam.mul(currentRate) */\n      tag_406\n        /* \"contracts/Pool/Pool.sol\":13024:13035  currentRate */\n      dup8\n        /* \"contracts/Pool/Pool.sol\":13014:13019  tTeam */\n      dup10\n        /* \"contracts/Pool/Pool.sol\":13014:13023  tTeam.mul */\n      tag_391\n      swap1\n        /* \"contracts/Pool/Pool.sol\":13014:13036  tTeam.mul(currentRate) */\n      swap2\n      swap1\n      0xffffffff\n      and\n      jump\t// in\n    tag_406:\n        /* \"contracts/Pool/Pool.sol\":12998:13036  uint256 rTeam = tTeam.mul(currentRate) */\n      swap1\n      pop\n        /* \"contracts/Pool/Pool.sol\":13046:13069  uint256 rTransferAmount */\n      0x00\n        /* \"contracts/Pool/Pool.sol\":13072:13100  rAmount.sub(rFee).sub(rTeam) */\n      tag_407\n        /* \"contracts/Pool/Pool.sol\":13094:13099  rTeam */\n      dup3\n        /* \"contracts/Pool/Pool.sol\":13072:13089  rAmount.sub(rFee) */\n      tag_408\n        /* \"contracts/Pool/Pool.sol\":13084:13088  rFee */\n      dup6\n        /* \"contracts/Pool/Pool.sol\":13072:13079  rAmount */\n      dup8\n        /* \"contracts/Pool/Pool.sol\":13072:13083  rAmount.sub */\n      tag_358\n      swap1\n        /* \"contracts/Pool/Pool.sol\":13072:13089  rAmount.sub(rFee) */\n      swap2\n      swap1\n      0xffffffff\n      and\n      jump\t// in\n    tag_408:\n        /* \"contracts/Pool/Pool.sol\":13072:13093  rAmount.sub(rFee).sub */\n      tag_358\n      swap1\n        /* \"contracts/Pool/Pool.sol\":13072:13100  rAmount.sub(rFee).sub(rTeam) */\n      swap2\n      swap1\n      0xffffffff\n      and\n      jump\t// in\n    tag_407:\n        /* \"contracts/Pool/Pool.sol\":13046:13100  uint256 rTransferAmount = rAmount.sub(rFee).sub(rTeam) */\n      swap1\n      pop\n        /* \"contracts/Pool/Pool.sol\":13118:13125  rAmount */\n      dup4\n        /* \"contracts/Pool/Pool.sol\":13127:13142  rTransferAmount */\n      dup2\n        /* \"contracts/Pool/Pool.sol\":13144:13148  rFee */\n      dup5\n        /* \"contracts/Pool/Pool.sol\":13110:13149  return (rAmount, rTransferAmount, rFee) */\n      swap7\n      pop\n      swap7\n      pop\n      swap7\n      pop\n      pop\n      pop\n      pop\n      pop\n        /* \"contracts/Pool/Pool.sol\":12753:13156  function _getRValues(uint256 tAmount, uint256 tFee, uint256 tTeam, uint256 currentRate) private pure returns (uint256, uint256, uint256) {... */\n      swap5\n      pop\n      swap5\n      pop\n      swap5\n      swap2\n      pop\n      pop\n      jump\t// out\n        /* \"contracts/Pool/Pool.sol\":2359:2598  function mul(uint256 a, uint256 b) internal pure returns (uint256) {... */\n    tag_391:\n        /* \"contracts/Pool/Pool.sol\":2417:2424  uint256 */\n      0x00\n        /* \"contracts/Pool/Pool.sol\":2445:2446  0 */\n      dup1\n        /* \"contracts/Pool/Pool.sol\":2440:2441  a */\n      dup4\n        /* \"contracts/Pool/Pool.sol\":2440:2446  a == 0 */\n      sub\n        /* \"contracts/Pool/Pool.sol\":2436:2481  if (a == 0) {... */\n      tag_410\n      jumpi\n        /* \"contracts/Pool/Pool.sol\":2469:2470  0 */\n      0x00\n        /* \"contracts/Pool/Pool.sol\":2462:2470  return 0 */\n      swap1\n      pop\n      jump(tag_409)\n        /* \"contracts/Pool/Pool.sol\":2436:2481  if (a == 0) {... */\n    tag_410:\n        /* \"contracts/Pool/Pool.sol\":2490:2499  uint256 c */\n      0x00\n        /* \"contracts/Pool/Pool.sol\":2506:2507  b */\n      dup3\n        /* \"contracts/Pool/Pool.sol\":2502:2503  a */\n      dup5\n        /* \"contracts/Pool/Pool.sol\":2502:2507  a * b */\n      tag_411\n      swap2\n      swap1\n      tag_412\n      jump\t// in\n    tag_411:\n        /* \"contracts/Pool/Pool.sol\":2490:2507  uint256 c = a * b */\n      swap1\n      pop\n        /* \"contracts/Pool/Pool.sol\":2534:2535  b */\n      dup3\n        /* \"contracts/Pool/Pool.sol\":2529:2530  a */\n      dup5\n        /* \"contracts/Pool/Pool.sol\":2525:2526  c */\n      dup3\n        /* \"contracts/Pool/Pool.sol\":2525:2530  c / a */\n      tag_413\n      swap2\n      swap1\n      tag_370\n      jump\t// in\n    tag_413:\n        /* \"contracts/Pool/Pool.sol\":2525:2535  c / a == b */\n      eq\n        /* \"contracts/Pool/Pool.sol\":2517:2573  require(c / a == b, \"SafeMath: multiplication overflow\") */\n      tag_414\n      jumpi\n      mload(0x40)\n      0x08c379a000000000000000000000000000000000000000000000000000000000\n      dup2\n      mstore\n      0x04\n      add\n      tag_415\n      swap1\n      tag_416\n      jump\t// in\n    tag_415:\n      mload(0x40)\n      dup1\n      swap2\n      sub\n      swap1\n      revert\n    tag_414:\n        /* \"contracts/Pool/Pool.sol\":2590:2591  c */\n      dup1\n        /* \"contracts/Pool/Pool.sol\":2583:2591  return c */\n      swap2\n      pop\n      pop\n        /* \"contracts/Pool/Pool.sol\":2359:2598  function mul(uint256 a, uint256 b) internal pure returns (uint256) {... */\n    tag_409:\n      swap3\n      swap2\n      pop\n      pop\n      jump\t// out\n        /* \"#utility.yul\":7:106   */\n    tag_417:\n        /* \"#utility.yul\":59:65   */\n      0x00\n        /* \"#utility.yul\":93:98   */\n      dup2\n        /* \"#utility.yul\":87:99   */\n      mload\n        /* \"#utility.yul\":77:99   */\n      swap1\n      pop\n        /* \"#utility.yul\":7:106   */\n      swap2\n      swap1\n      pop\n      jump\t// out\n        /* \"#utility.yul\":112:281   */\n    tag_418:\n        /* \"#utility.yul\":196:207   */\n      0x00\n        /* \"#utility.yul\":230:236   */\n      dup3\n        /* \"#utility.yul\":225:228   */\n      dup3\n        /* \"#utility.yul\":218:237   */\n      mstore\n        /* \"#utility.yul\":270:274   */\n      0x20\n        /* \"#utility.yul\":265:268   */\n      dup3\n        /* \"#utility.yul\":261:275   */\n      add\n        /* \"#utility.yul\":246:275   */\n      swap1\n      pop\n        /* \"#utility.yul\":112:281   */\n      swap3\n      swap2\n      pop\n      pop\n      jump\t// out\n        /* \"#utility.yul\":287:594   */\n    tag_419:\n        /* \"#utility.yul\":355:356   */\n      0x00\n        /* \"#utility.yul\":365:478   */\n    tag_494:\n        /* \"#utility.yul\":379:385   */\n      dup4\n        /* \"#utility.yul\":376:377   */\n      dup2\n        /* \"#utility.yul\":373:386   */\n      lt\n        /* \"#utility.yul\":365:478   */\n      iszero\n      tag_496\n      jumpi\n        /* \"#utility.yul\":464:465   */\n      dup1\n        /* \"#utility.yul\":459:462   */\n      dup3\n        /* \"#utility.yul\":455:466   */\n      add\n        /* \"#utility.yul\":449:467   */\n      mload\n        /* \"#utility.yul\":445:446   */\n      dup2\n        /* \"#utility.yul\":440:443   */\n      dup5\n        /* \"#utility.yul\":436:447   */\n      add\n        /* \"#utility.yul\":429:468   */\n      mstore\n        /* \"#utility.yul\":401:403   */\n      0x20\n        /* \"#utility.yul\":398:399   */\n      dup2\n        /* \"#utility.yul\":394:404   */\n      add\n        /* \"#utility.yul\":389:404   */\n      swap1\n      pop\n        /* \"#utility.yul\":365:478   */\n      jump(tag_494)\n    tag_496:\n        /* \"#utility.yul\":496:502   */\n      dup4\n        /* \"#utility.yul\":493:494   */\n      dup2\n        /* \"#utility.yul\":490:503   */\n      gt\n        /* \"#utility.yul\":487:588   */\n      iszero\n      tag_497\n      jumpi\n        /* \"#utility.yul\":576:577   */\n      0x00\n        /* \"#utility.yul\":567:573   */\n      dup5\n        /* \"#utility.yul\":562:565   */\n      dup5\n        /* \"#utility.yul\":558:574   */\n      add\n        /* \"#utility.yul\":551:578   */\n      mstore\n        /* \"#utility.yul\":487:588   */\n    tag_497:\n        /* \"#utility.yul\":336:594   */\n      pop\n        /* \"#utility.yul\":287:594   */\n      pop\n      pop\n      pop\n      jump\t// out\n        /* \"#utility.yul\":600:702   */\n    tag_420:\n        /* \"#utility.yul\":641:647   */\n      0x00\n        /* \"#utility.yul\":692:694   */\n      0x1f\n        /* \"#utility.yul\":688:695   */\n      not\n        /* \"#utility.yul\":683:685   */\n      0x1f\n        /* \"#utility.yul\":676:681   */\n      dup4\n        /* \"#utility.yul\":672:686   */\n      add\n        /* \"#utility.yul\":668:696   */\n      and\n        /* \"#utility.yul\":658:696   */\n      swap1\n      pop\n        /* \"#utility.yul\":600:702   */\n      swap2\n      swap1\n      pop\n      jump\t// out\n        /* \"#utility.yul\":708:1072   */\n    tag_421:\n        /* \"#utility.yul\":796:799   */\n      0x00\n        /* \"#utility.yul\":824:863   */\n      tag_500\n        /* \"#utility.yul\":857:862   */\n      dup3\n        /* \"#utility.yul\":824:863   */\n      tag_417\n      jump\t// in\n    tag_500:\n        /* \"#utility.yul\":879:950   */\n      tag_501\n        /* \"#utility.yul\":943:949   */\n      dup2\n        /* \"#utility.yul\":938:941   */\n      dup6\n        /* \"#utility.yul\":879:950   */\n      tag_418\n      jump\t// in\n    tag_501:\n        /* \"#utility.yul\":872:950   */\n      swap4\n      pop\n        /* \"#utility.yul\":959:1011   */\n      tag_502\n        /* \"#utility.yul\":1004:1010   */\n      dup2\n        /* \"#utility.yul\":999:1002   */\n      dup6\n        /* \"#utility.yul\":992:996   */\n      0x20\n        /* \"#utility.yul\":985:990   */\n      dup7\n        /* \"#utility.yul\":981:997   */\n      add\n        /* \"#utility.yul\":959:1011   */\n      tag_419\n      jump\t// in\n    tag_502:\n        /* \"#utility.yul\":1036:1065   */\n      tag_503\n        /* \"#utility.yul\":1058:1064   */\n      dup2\n        /* \"#utility.yul\":1036:1065   */\n      tag_420\n      jump\t// in\n    tag_503:\n        /* \"#utility.yul\":1031:1034   */\n      dup5\n        /* \"#utility.yul\":1027:1066   */\n      add\n        /* \"#utility.yul\":1020:1066   */\n      swap2\n      pop\n        /* \"#utility.yul\":800:1072   */\n      pop\n        /* \"#utility.yul\":708:1072   */\n      swap3\n      swap2\n      pop\n      pop\n      jump\t// out\n        /* \"#utility.yul\":1078:1391   */\n    tag_34:\n        /* \"#utility.yul\":1191:1195   */\n      0x00\n        /* \"#utility.yul\":1229:1231   */\n      0x20\n        /* \"#utility.yul\":1218:1227   */\n      dup3\n        /* \"#utility.yul\":1214:1232   */\n      add\n        /* \"#utility.yul\":1206:1232   */\n      swap1\n      pop\n        /* \"#utility.yul\":1278:1287   */\n      dup2\n        /* \"#utility.yul\":1272:1276   */\n      dup2\n        /* \"#utility.yul\":1268:1288   */\n      sub\n        /* \"#utility.yul\":1264:1265   */\n      0x00\n        /* \"#utility.yul\":1253:1262   */\n      dup4\n        /* \"#utility.yul\":1249:1266   */\n      add\n        /* \"#utility.yul\":1242:1289   */\n      mstore\n        /* \"#utility.yul\":1306:1384   */\n      tag_505\n        /* \"#utility.yul\":1379:1383   */\n      dup2\n        /* \"#utility.yul\":1370:1376   */\n      dup5\n        /* \"#utility.yul\":1306:1384   */\n      tag_421\n      jump\t// in\n    tag_505:\n        /* \"#utility.yul\":1298:1384   */\n      swap1\n      pop\n        /* \"#utility.yul\":1078:1391   */\n      swap3\n      swap2\n      pop\n      pop\n      jump\t// out\n        /* \"#utility.yul\":1478:1595   */\n    tag_423:\n        /* \"#utility.yul\":1587:1588   */\n      0x00\n        /* \"#utility.yul\":1584:1585   */\n      dup1\n        /* \"#utility.yul\":1577:1589   */\n      revert\n        /* \"#utility.yul\":1601:1718   */\n    tag_424:\n        /* \"#utility.yul\":1710:1711   */\n      0x00\n        /* \"#utility.yul\":1707:1708   */\n      dup1\n        /* \"#utility.yul\":1700:1712   */\n      revert\n        /* \"#utility.yul\":1724:1850   */\n    tag_425:\n        /* \"#utility.yul\":1761:1768   */\n      0x00\n        /* \"#utility.yul\":1801:1843   */\n      0xffffffffffffffffffffffffffffffffffffffff\n        /* \"#utility.yul\":1794:1799   */\n      dup3\n        /* \"#utility.yul\":1790:1844   */\n      and\n        /* \"#utility.yul\":1779:1844   */\n      swap1\n      pop\n        /* \"#utility.yul\":1724:1850   */\n      swap2\n      swap1\n      pop\n      jump\t// out\n        /* \"#utility.yul\":1856:1952   */\n    tag_426:\n        /* \"#utility.yul\":1893:1900   */\n      0x00\n        /* \"#utility.yul\":1922:1946   */\n      tag_511\n        /* \"#utility.yul\":1940:1945   */\n      dup3\n        /* \"#utility.yul\":1922:1946   */\n      tag_425\n      jump\t// in\n    tag_511:\n        /* \"#utility.yul\":1911:1946   */\n      swap1\n      pop\n        /* \"#utility.yul\":1856:1952   */\n      swap2\n      swap1\n      pop\n      jump\t// out\n        /* \"#utility.yul\":1958:2080   */\n    tag_427:\n        /* \"#utility.yul\":2031:2055   */\n      tag_513\n        /* \"#utility.yul\":2049:2054   */\n      dup2\n        /* \"#utility.yul\":2031:2055   */\n      tag_426\n      jump\t// in\n    tag_513:\n        /* \"#utility.yul\":2024:2029   */\n      dup2\n        /* \"#utility.yul\":2021:2056   */\n      eq\n        /* \"#utility.yul\":2011:2074   */\n      tag_514\n      jumpi\n        /* \"#utility.yul\":2070:2071   */\n      0x00\n        /* \"#utility.yul\":2067:2068   */\n      dup1\n        /* \"#utility.yul\":2060:2072   */\n      revert\n        /* \"#utility.yul\":2011:2074   */\n    tag_514:\n        /* \"#utility.yul\":1958:2080   */\n      pop\n      jump\t// out\n        /* \"#utility.yul\":2086:2225   */\n    tag_428:\n        /* \"#utility.yul\":2132:2137   */\n      0x00\n        /* \"#utility.yul\":2170:2176   */\n      dup2\n        /* \"#utility.yul\":2157:2177   */\n      calldataload\n        /* \"#utility.yul\":2148:2177   */\n      swap1\n      pop\n        /* \"#utility.yul\":2186:2219   */\n      tag_516\n        /* \"#utility.yul\":2213:2218   */\n      dup2\n        /* \"#utility.yul\":2186:2219   */\n      tag_427\n      jump\t// in\n    tag_516:\n        /* \"#utility.yul\":2086:2225   */\n      swap3\n      swap2\n      pop\n      pop\n      jump\t// out\n        /* \"#utility.yul\":2231:2308   */\n    tag_429:\n        /* \"#utility.yul\":2268:2275   */\n      0x00\n        /* \"#utility.yul\":2297:2302   */\n      dup2\n        /* \"#utility.yul\":2286:2302   */\n      swap1\n      pop\n        /* \"#utility.yul\":2231:2308   */\n      swap2\n      swap1\n      pop\n      jump\t// out\n        /* \"#utility.yul\":2314:2436   */\n    tag_430:\n        /* \"#utility.yul\":2387:2411   */\n      tag_519\n        /* \"#utility.yul\":2405:2410   */\n      dup2\n        /* \"#utility.yul\":2387:2411   */\n      tag_429\n      jump\t// in\n    tag_519:\n        /* \"#utility.yul\":2380:2385   */\n      dup2\n        /* \"#utility.yul\":2377:2412   */\n      eq\n        /* \"#utility.yul\":2367:2430   */\n      tag_520\n      jumpi\n        /* \"#utility.yul\":2426:2427   */\n      0x00\n        /* \"#utility.yul\":2423:2424   */\n      dup1\n        /* \"#utility.yul\":2416:2428   */\n      revert\n        /* \"#utility.yul\":2367:2430   */\n    tag_520:\n        /* \"#utility.yul\":2314:2436   */\n      pop\n      jump\t// out\n        /* \"#utility.yul\":2442:2581   */\n    tag_431:\n        /* \"#utility.yul\":2488:2493   */\n      0x00\n        /* \"#utility.yul\":2526:2532   */\n      dup2\n        /* \"#utility.yul\":2513:2533   */\n      calldataload\n        /* \"#utility.yul\":2504:2533   */\n      swap1\n      pop\n        /* \"#utility.yul\":2542:2575   */\n      tag_522\n        /* \"#utility.yul\":2569:2574   */\n      dup2\n        /* \"#utility.yul\":2542:2575   */\n      tag_430\n      jump\t// in\n    tag_522:\n        /* \"#utility.yul\":2442:2581   */\n      swap3\n      swap2\n      pop\n      pop\n      jump\t// out\n        /* \"#utility.yul\":2587:3061   */\n    tag_38:\n        /* \"#utility.yul\":2655:2661   */\n      0x00\n        /* \"#utility.yul\":2663:2669   */\n      dup1\n        /* \"#utility.yul\":2712:2714   */\n      0x40\n        /* \"#utility.yul\":2700:2709   */\n      dup4\n        /* \"#utility.yul\":2691:2698   */\n      dup6\n        /* \"#utility.yul\":2687:2710   */\n      sub\n        /* \"#utility.yul\":2683:2715   */\n      slt\n        /* \"#utility.yul\":2680:2799   */\n      iszero\n      tag_524\n      jumpi\n        /* \"#utility.yul\":2718:2797   */\n      tag_525\n      tag_423\n      jump\t// in\n    tag_525:\n        /* \"#utility.yul\":2680:2799   */\n    tag_524:\n        /* \"#utility.yul\":2838:2839   */\n      0x00\n        /* \"#utility.yul\":2863:2916   */\n      tag_526\n        /* \"#utility.yul\":2908:2915   */\n      dup6\n        /* \"#utility.yul\":2899:2905   */\n      dup3\n        /* \"#utility.yul\":2888:2897   */\n      dup7\n        /* \"#utility.yul\":2884:2906   */\n      add\n        /* \"#utility.yul\":2863:2916   */\n      tag_428\n      jump\t// in\n    tag_526:\n        /* \"#utility.yul\":2853:2916   */\n      swap3\n      pop\n        /* \"#utility.yul\":2809:2926   */\n      pop\n        /* \"#utility.yul\":2965:2967   */\n      0x20\n        /* \"#utility.yul\":2991:3044   */\n      tag_527\n        /* \"#utility.yul\":3036:3043   */\n      dup6\n        /* \"#utility.yul\":3027:3033   */\n      dup3\n        /* \"#utility.yul\":3016:3025   */\n      dup7\n        /* \"#utility.yul\":3012:3034   */\n      add\n        /* \"#utility.yul\":2991:3044   */\n      tag_431\n      jump\t// in\n    tag_527:\n        /* \"#utility.yul\":2981:3044   */\n      swap2\n      pop\n        /* \"#utility.yul\":2936:3054   */\n      pop\n        /* \"#utility.yul\":2587:3061   */\n      swap3\n      pop\n      swap3\n      swap1\n      pop\n      jump\t// out\n        /* \"#utility.yul\":3067:3157   */\n    tag_432:\n        /* \"#utility.yul\":3101:3108   */\n      0x00\n        /* \"#utility.yul\":3144:3149   */\n      dup2\n        /* \"#utility.yul\":3137:3150   */\n      iszero\n        /* \"#utility.yul\":3130:3151   */\n      iszero\n        /* \"#utility.yul\":3119:3151   */\n      swap1\n      pop\n        /* \"#utility.yul\":3067:3157   */\n      swap2\n      swap1\n      pop\n      jump\t// out\n        /* \"#utility.yul\":3163:3272   */\n    tag_433:\n        /* \"#utility.yul\":3244:3265   */\n      tag_530\n        /* \"#utility.yul\":3259:3264   */\n      dup2\n        /* \"#utility.yul\":3244:3265   */\n      tag_432\n      jump\t// in\n    tag_530:\n        /* \"#utility.yul\":3239:3242   */\n      dup3\n        /* \"#utility.yul\":3232:3266   */\n      mstore\n        /* \"#utility.yul\":3163:3272   */\n      pop\n      pop\n      jump\t// out\n        /* \"#utility.yul\":3278:3488   */\n    tag_41:\n        /* \"#utility.yul\":3365:3369   */\n      0x00\n        /* \"#utility.yul\":3403:3405   */\n      0x20\n        /* \"#utility.yul\":3392:3401   */\n      dup3\n        /* \"#utility.yul\":3388:3406   */\n      add\n        /* \"#utility.yul\":3380:3406   */\n      swap1\n      pop\n        /* \"#utility.yul\":3416:3481   */\n      tag_532\n        /* \"#utility.yul\":3478:3479   */\n      0x00\n        /* \"#utility.yul\":3467:3476   */\n      dup4\n        /* \"#utility.yul\":3463:3480   */\n      add\n        /* \"#utility.yul\":3454:3460   */\n      dup5\n        /* \"#utility.yul\":3416:3481   */\n      tag_433\n      jump\t// in\n    tag_532:\n        /* \"#utility.yul\":3278:3488   */\n      swap3\n      swap2\n      pop\n      pop\n      jump\t// out\n        /* \"#utility.yul\":3494:3554   */\n    tag_434:\n        /* \"#utility.yul\":3522:3525   */\n      0x00\n        /* \"#utility.yul\":3543:3548   */\n      dup2\n        /* \"#utility.yul\":3536:3548   */\n      swap1\n      pop\n        /* \"#utility.yul\":3494:3554   */\n      swap2\n      swap1\n      pop\n      jump\t// out\n        /* \"#utility.yul\":3560:3702   */\n    tag_435:\n        /* \"#utility.yul\":3610:3619   */\n      0x00\n        /* \"#utility.yul\":3643:3696   */\n      tag_535\n        /* \"#utility.yul\":3661:3695   */\n      tag_536\n        /* \"#utility.yul\":3670:3694   */\n      tag_537\n        /* \"#utility.yul\":3688:3693   */\n      dup5\n        /* \"#utility.yul\":3670:3694   */\n      tag_425\n      jump\t// in\n    tag_537:\n        /* \"#utility.yul\":3661:3695   */\n      tag_434\n      jump\t// in\n    tag_536:\n        /* \"#utility.yul\":3643:3696   */\n      tag_425\n      jump\t// in\n    tag_535:\n        /* \"#utility.yul\":3630:3696   */\n      swap1\n      pop\n        /* \"#utility.yul\":3560:3702   */\n      swap2\n      swap1\n      pop\n      jump\t// out\n        /* \"#utility.yul\":3708:3834   */\n    tag_436:\n        /* \"#utility.yul\":3758:3767   */\n      0x00\n        /* \"#utility.yul\":3791:3828   */\n      tag_539\n        /* \"#utility.yul\":3822:3827   */\n      dup3\n        /* \"#utility.yul\":3791:3828   */\n      tag_435\n      jump\t// in\n    tag_539:\n        /* \"#utility.yul\":3778:3828   */\n      swap1\n      pop\n        /* \"#utility.yul\":3708:3834   */\n      swap2\n      swap1\n      pop\n      jump\t// out\n        /* \"#utility.yul\":3840:3992   */\n    tag_437:\n        /* \"#utility.yul\":3916:3925   */\n      0x00\n        /* \"#utility.yul\":3949:3986   */\n      tag_541\n        /* \"#utility.yul\":3980:3985   */\n      dup3\n        /* \"#utility.yul\":3949:3986   */\n      tag_436\n      jump\t// in\n    tag_541:\n        /* \"#utility.yul\":3936:3986   */\n      swap1\n      pop\n        /* \"#utility.yul\":3840:3992   */\n      swap2\n      swap1\n      pop\n      jump\t// out\n        /* \"#utility.yul\":3998:4181   */\n    tag_438:\n        /* \"#utility.yul\":4111:4174   */\n      tag_543\n        /* \"#utility.yul\":4168:4173   */\n      dup2\n        /* \"#utility.yul\":4111:4174   */\n      tag_437\n      jump\t// in\n    tag_543:\n        /* \"#utility.yul\":4106:4109   */\n      dup3\n        /* \"#utility.yul\":4099:4175   */\n      mstore\n        /* \"#utility.yul\":3998:4181   */\n      pop\n      pop\n      jump\t// out\n        /* \"#utility.yul\":4187:4461   */\n    tag_46:\n        /* \"#utility.yul\":4306:4310   */\n      0x00\n        /* \"#utility.yul\":4344:4346   */\n      0x20\n        /* \"#utility.yul\":4333:4342   */\n      dup3\n        /* \"#utility.yul\":4329:4347   */\n      add\n        /* \"#utility.yul\":4321:4347   */\n      swap1\n      pop\n        /* \"#utility.yul\":4357:4454   */\n      tag_545\n        /* \"#utility.yul\":4451:4452   */\n      0x00\n        /* \"#utility.yul\":4440:4449   */\n      dup4\n        /* \"#utility.yul\":4436:4453   */\n      add\n        /* \"#utility.yul\":4427:4433   */\n      dup5\n        /* \"#utility.yul\":4357:4454   */\n      tag_438\n      jump\t// in\n    tag_545:\n        /* \"#utility.yul\":4187:4461   */\n      swap3\n      swap2\n      pop\n      pop\n      jump\t// out\n        /* \"#utility.yul\":4467:4585   */\n    tag_439:\n        /* \"#utility.yul\":4554:4578   */\n      tag_547\n        /* \"#utility.yul\":4572:4577   */\n      dup2\n        /* \"#utility.yul\":4554:4578   */\n      tag_429\n      jump\t// in\n    tag_547:\n        /* \"#utility.yul\":4549:4552   */\n      dup3\n        /* \"#utility.yul\":4542:4579   */\n      mstore\n        /* \"#utility.yul\":4467:4585   */\n      pop\n      pop\n      jump\t// out\n        /* \"#utility.yul\":4591:4813   */\n    tag_51:\n        /* \"#utility.yul\":4684:4688   */\n      0x00\n        /* \"#utility.yul\":4722:4724   */\n      0x20\n        /* \"#utility.yul\":4711:4720   */\n      dup3\n        /* \"#utility.yul\":4707:4725   */\n      add\n        /* \"#utility.yul\":4699:4725   */\n      swap1\n      pop\n        /* \"#utility.yul\":4735:4806   */\n      tag_549\n        /* \"#utility.yul\":4803:4804   */\n      0x00\n        /* \"#utility.yul\":4792:4801   */\n      dup4\n        /* \"#utility.yul\":4788:4805   */\n      add\n        /* \"#utility.yul\":4779:4785   */\n      dup5\n        /* \"#utility.yul\":4735:4806   */\n      tag_439\n      jump\t// in\n    tag_549:\n        /* \"#utility.yul\":4591:4813   */\n      swap3\n      swap2\n      pop\n      pop\n      jump\t// out\n        /* \"#utility.yul\":4819:5438   */\n    tag_55:\n        /* \"#utility.yul\":4896:4902   */\n      0x00\n        /* \"#utility.yul\":4904:4910   */\n      dup1\n        /* \"#utility.yul\":4912:4918   */\n      0x00\n        /* \"#utility.yul\":4961:4963   */\n      0x60\n        /* \"#utility.yul\":4949:4958   */\n      dup5\n        /* \"#utility.yul\":4940:4947   */\n      dup7\n        /* \"#utility.yul\":4936:4959   */\n      sub\n        /* \"#utility.yul\":4932:4964   */\n      slt\n        /* \"#utility.yul\":4929:5048   */\n      iszero\n      tag_551\n      jumpi\n        /* \"#utility.yul\":4967:5046   */\n      tag_552\n      tag_423\n      jump\t// in\n    tag_552:\n        /* \"#utility.yul\":4929:5048   */\n    tag_551:\n        /* \"#utility.yul\":5087:5088   */\n      0x00\n        /* \"#utility.yul\":5112:5165   */\n      tag_553\n        /* \"#utility.yul\":5157:5164   */\n      dup7\n        /* \"#utility.yul\":5148:5154   */\n      dup3\n        /* \"#utility.yul\":5137:5146   */\n      dup8\n        /* \"#utility.yul\":5133:5155   */\n      add\n        /* \"#utility.yul\":5112:5165   */\n      tag_428\n      jump\t// in\n    tag_553:\n        /* \"#utility.yul\":5102:5165   */\n      swap4\n      pop\n        /* \"#utility.yul\":5058:5175   */\n      pop\n        /* \"#utility.yul\":5214:5216   */\n      0x20\n        /* \"#utility.yul\":5240:5293   */\n      tag_554\n        /* \"#utility.yul\":5285:5292   */\n      dup7\n        /* \"#utility.yul\":5276:5282   */\n      dup3\n        /* \"#utility.yul\":5265:5274   */\n      dup8\n        /* \"#utility.yul\":5261:5283   */\n      add\n        /* \"#utility.yul\":5240:5293   */\n      tag_428\n      jump\t// in\n    tag_554:\n        /* \"#utility.yul\":5230:5293   */\n      swap3\n      pop\n        /* \"#utility.yul\":5185:5303   */\n      pop\n        /* \"#utility.yul\":5342:5344   */\n      0x40\n        /* \"#utility.yul\":5368:5421   */\n      tag_555\n        /* \"#utility.yul\":5413:5420   */\n      dup7\n        /* \"#utility.yul\":5404:5410   */\n      dup3\n        /* \"#utility.yul\":5393:5402   */\n      dup8\n        /* \"#utility.yul\":5389:5411   */\n      add\n        /* \"#utility.yul\":5368:5421   */\n      tag_431\n      jump\t// in\n    tag_555:\n        /* \"#utility.yul\":5358:5421   */\n      swap2\n      pop\n        /* \"#utility.yul\":5313:5431   */\n      pop\n        /* \"#utility.yul\":4819:5438   */\n      swap3\n      pop\n      swap3\n      pop\n      swap3\n      jump\t// out\n        /* \"#utility.yul\":5444:5530   */\n    tag_440:\n        /* \"#utility.yul\":5479:5486   */\n      0x00\n        /* \"#utility.yul\":5519:5523   */\n      0xff\n        /* \"#utility.yul\":5512:5517   */\n      dup3\n        /* \"#utility.yul\":5508:5524   */\n      and\n        /* \"#utility.yul\":5497:5524   */\n      swap1\n      pop\n        /* \"#utility.yul\":5444:5530   */\n      swap2\n      swap1\n      pop\n      jump\t// out\n        /* \"#utility.yul\":5536:5648   */\n    tag_441:\n        /* \"#utility.yul\":5619:5641   */\n      tag_558\n        /* \"#utility.yul\":5635:5640   */\n      dup2\n        /* \"#utility.yul\":5619:5641   */\n      tag_440\n      jump\t// in\n    tag_558:\n        /* \"#utility.yul\":5614:5617   */\n      dup3\n        /* \"#utility.yul\":5607:5642   */\n      mstore\n        /* \"#utility.yul\":5536:5648   */\n      pop\n      pop\n      jump\t// out\n        /* \"#utility.yul\":5654:5868   */\n    tag_62:\n        /* \"#utility.yul\":5743:5747   */\n      0x00\n        /* \"#utility.yul\":5781:5783   */\n      0x20\n        /* \"#utility.yul\":5770:5779   */\n      dup3\n        /* \"#utility.yul\":5766:5784   */\n      add\n        /* \"#utility.yul\":5758:5784   */\n      swap1\n      pop\n        /* \"#utility.yul\":5794:5861   */\n      tag_560\n        /* \"#utility.yul\":5858:5859   */\n      0x00\n        /* \"#utility.yul\":5847:5856   */\n      dup4\n        /* \"#utility.yul\":5843:5860   */\n      add\n        /* \"#utility.yul\":5834:5840   */\n      dup5\n        /* \"#utility.yul\":5794:5861   */\n      tag_441\n      jump\t// in\n    tag_560:\n        /* \"#utility.yul\":5654:5868   */\n      swap3\n      swap2\n      pop\n      pop\n      jump\t// out\n        /* \"#utility.yul\":5874:5992   */\n    tag_442:\n        /* \"#utility.yul\":5961:5985   */\n      tag_562\n        /* \"#utility.yul\":5979:5984   */\n      dup2\n        /* \"#utility.yul\":5961:5985   */\n      tag_426\n      jump\t// in\n    tag_562:\n        /* \"#utility.yul\":5956:5959   */\n      dup3\n        /* \"#utility.yul\":5949:5986   */\n      mstore\n        /* \"#utility.yul\":5874:5992   */\n      pop\n      pop\n      jump\t// out\n        /* \"#utility.yul\":5998:6220   */\n    tag_67:\n        /* \"#utility.yul\":6091:6095   */\n      0x00\n        /* \"#utility.yul\":6129:6131   */\n      0x20\n        /* \"#utility.yul\":6118:6127   */\n      dup3\n        /* \"#utility.yul\":6114:6132   */\n      add\n        /* \"#utility.yul\":6106:6132   */\n      swap1\n      pop\n        /* \"#utility.yul\":6142:6213   */\n      tag_564\n        /* \"#utility.yul\":6210:6211   */\n      0x00\n        /* \"#utility.yul\":6199:6208   */\n      dup4\n        /* \"#utility.yul\":6195:6212   */\n      add\n        /* \"#utility.yul\":6186:6192   */\n      dup5\n        /* \"#utility.yul\":6142:6213   */\n      tag_442\n      jump\t// in\n    tag_564:\n        /* \"#utility.yul\":5998:6220   */\n      swap3\n      swap2\n      pop\n      pop\n      jump\t// out\n        /* \"#utility.yul\":6226:6342   */\n    tag_443:\n        /* \"#utility.yul\":6296:6317   */\n      tag_566\n        /* \"#utility.yul\":6311:6316   */\n      dup2\n        /* \"#utility.yul\":6296:6317   */\n      tag_432\n      jump\t// in\n    tag_566:\n        /* \"#utility.yul\":6289:6294   */\n      dup2\n        /* \"#utility.yul\":6286:6318   */\n      eq\n        /* \"#utility.yul\":6276:6336   */\n      tag_567\n      jumpi\n        /* \"#utility.yul\":6332:6333   */\n      0x00\n        /* \"#utility.yul\":6329:6330   */\n      dup1\n        /* \"#utility.yul\":6322:6334   */\n      revert\n        /* \"#utility.yul\":6276:6336   */\n    tag_567:\n        /* \"#utility.yul\":6226:6342   */\n      pop\n      jump\t// out\n        /* \"#utility.yul\":6348:6481   */\n    tag_444:\n        /* \"#utility.yul\":6391:6396   */\n      0x00\n        /* \"#utility.yul\":6429:6435   */\n      dup2\n        /* \"#utility.yul\":6416:6436   */\n      calldataload\n        /* \"#utility.yul\":6407:6436   */\n      swap1\n      pop\n        /* \"#utility.yul\":6445:6475   */\n      tag_569\n        /* \"#utility.yul\":6469:6474   */\n      dup2\n        /* \"#utility.yul\":6445:6475   */\n      tag_443\n      jump\t// in\n    tag_569:\n        /* \"#utility.yul\":6348:6481   */\n      swap3\n      swap2\n      pop\n      pop\n      jump\t// out\n        /* \"#utility.yul\":6487:6810   */\n    tag_71:\n        /* \"#utility.yul\":6543:6549   */\n      0x00\n        /* \"#utility.yul\":6592:6594   */\n      0x20\n        /* \"#utility.yul\":6580:6589   */\n      dup3\n        /* \"#utility.yul\":6571:6578   */\n      dup5\n        /* \"#utility.yul\":6567:6590   */\n      sub\n        /* \"#utility.yul\":6563:6595   */\n      slt\n        /* \"#utility.yul\":6560:6679   */\n      iszero\n      tag_571\n      jumpi\n        /* \"#utility.yul\":6598:6677   */\n      tag_572\n      tag_423\n      jump\t// in\n    tag_572:\n        /* \"#utility.yul\":6560:6679   */\n    tag_571:\n        /* \"#utility.yul\":6718:6719   */\n      0x00\n        /* \"#utility.yul\":6743:6793   */\n      tag_573\n        /* \"#utility.yul\":6785:6792   */\n      dup5\n        /* \"#utility.yul\":6776:6782   */\n      dup3\n        /* \"#utility.yul\":6765:6774   */\n      dup6\n        /* \"#utility.yul\":6761:6783   */\n      add\n        /* \"#utility.yul\":6743:6793   */\n      tag_444\n      jump\t// in\n    tag_573:\n        /* \"#utility.yul\":6733:6793   */\n      swap2\n      pop\n        /* \"#utility.yul\":6689:6803   */\n      pop\n        /* \"#utility.yul\":6487:6810   */\n      swap3\n      swap2\n      pop\n      pop\n      jump\t// out\n        /* \"#utility.yul\":6816:7145   */\n    tag_79:\n        /* \"#utility.yul\":6875:6881   */\n      0x00\n        /* \"#utility.yul\":6924:6926   */\n      0x20\n        /* \"#utility.yul\":6912:6921   */\n      dup3\n        /* \"#utility.yul\":6903:6910   */\n      dup5\n        /* \"#utility.yul\":6899:6922   */\n      sub\n        /* \"#utility.yul\":6895:6927   */\n      slt\n        /* \"#utility.yul\":6892:7011   */\n      iszero\n      tag_575\n      jumpi\n        /* \"#utility.yul\":6930:7009   */\n      tag_576\n      tag_423\n      jump\t// in\n    tag_576:\n        /* \"#utility.yul\":6892:7011   */\n    tag_575:\n        /* \"#utility.yul\":7050:7051   */\n      0x00\n        /* \"#utility.yul\":7075:7128   */\n      tag_577\n        /* \"#utility.yul\":7120:7127   */\n      dup5\n        /* \"#utility.yul\":7111:7117   */\n      dup3\n        /* \"#utility.yul\":7100:7109   */\n      dup6\n        /* \"#utility.yul\":7096:7118   */\n      add\n        /* \"#utility.yul\":7075:7128   */\n      tag_428\n      jump\t// in\n    tag_577:\n        /* \"#utility.yul\":7065:7128   */\n      swap2\n      pop\n        /* \"#utility.yul\":7021:7138   */\n      pop\n        /* \"#utility.yul\":6816:7145   */\n      swap3\n      swap2\n      pop\n      pop\n      jump\t// out\n        /* \"#utility.yul\":7151:7255   */\n    tag_445:\n        /* \"#utility.yul\":7196:7203   */\n      0x00\n        /* \"#utility.yul\":7225:7249   */\n      tag_579\n        /* \"#utility.yul\":7243:7248   */\n      dup3\n        /* \"#utility.yul\":7225:7249   */\n      tag_425\n      jump\t// in\n    tag_579:\n        /* \"#utility.yul\":7214:7249   */\n      swap1\n      pop\n        /* \"#utility.yul\":7151:7255   */\n      swap2\n      swap1\n      pop\n      jump\t// out\n        /* \"#utility.yul\":7261:7399   */\n    tag_446:\n        /* \"#utility.yul\":7342:7374   */\n      tag_581\n        /* \"#utility.yul\":7368:7373   */\n      dup2\n        /* \"#utility.yul\":7342:7374   */\n      tag_445\n      jump\t// in\n    tag_581:\n        /* \"#utility.yul\":7335:7340   */\n      dup2\n        /* \"#utility.yul\":7332:7375   */\n      eq\n        /* \"#utility.yul\":7322:7393   */\n      tag_582\n      jumpi\n        /* \"#utility.yul\":7389:7390   */\n      0x00\n        /* \"#utility.yul\":7386:7387   */\n      dup1\n        /* \"#utility.yul\":7379:7391   */\n      revert\n        /* \"#utility.yul\":7322:7393   */\n    tag_582:\n        /* \"#utility.yul\":7261:7399   */\n      pop\n      jump\t// out\n        /* \"#utility.yul\":7405:7560   */\n    tag_447:\n        /* \"#utility.yul\":7459:7464   */\n      0x00\n        /* \"#utility.yul\":7497:7503   */\n      dup2\n        /* \"#utility.yul\":7484:7504   */\n      calldataload\n        /* \"#utility.yul\":7475:7504   */\n      swap1\n      pop\n        /* \"#utility.yul\":7513:7554   */\n      tag_584\n        /* \"#utility.yul\":7548:7553   */\n      dup2\n        /* \"#utility.yul\":7513:7554   */\n      tag_446\n      jump\t// in\n    tag_584:\n        /* \"#utility.yul\":7405:7560   */\n      swap3\n      swap2\n      pop\n      pop\n      jump\t// out\n        /* \"#utility.yul\":7566:7911   */\n    tag_88:\n        /* \"#utility.yul\":7633:7639   */\n      0x00\n        /* \"#utility.yul\":7682:7684   */\n      0x20\n        /* \"#utility.yul\":7670:7679   */\n      dup3\n        /* \"#utility.yul\":7661:7668   */\n      dup5\n        /* \"#utility.yul\":7657:7680   */\n      sub\n        /* \"#utility.yul\":7653:7685   */\n      slt\n        /* \"#utility.yul\":7650:7769   */\n      iszero\n      tag_586\n      jumpi\n        /* \"#utility.yul\":7688:7767   */\n      tag_587\n      tag_423\n      jump\t// in\n    tag_587:\n        /* \"#utility.yul\":7650:7769   */\n    tag_586:\n        /* \"#utility.yul\":7808:7809   */\n      0x00\n        /* \"#utility.yul\":7833:7894   */\n      tag_588\n        /* \"#utility.yul\":7886:7893   */\n      dup5\n        /* \"#utility.yul\":7877:7883   */\n      dup3\n        /* \"#utility.yul\":7866:7875   */\n      dup6\n        /* \"#utility.yul\":7862:7884   */\n      add\n        /* \"#utility.yul\":7833:7894   */\n      tag_447\n      jump\t// in\n    tag_588:\n        /* \"#utility.yul\":7823:7894   */\n      swap2\n      pop\n        /* \"#utility.yul\":7779:7904   */\n      pop\n        /* \"#utility.yul\":7566:7911   */\n      swap3\n      swap2\n      pop\n      pop\n      jump\t// out\n        /* \"#utility.yul\":7917:8682   */\n    tag_101:\n        /* \"#utility.yul\":8003:8009   */\n      0x00\n        /* \"#utility.yul\":8011:8017   */\n      dup1\n        /* \"#utility.yul\":8019:8025   */\n      0x00\n        /* \"#utility.yul\":8027:8033   */\n      dup1\n        /* \"#utility.yul\":8076:8079   */\n      0x80\n        /* \"#utility.yul\":8064:8073   */\n      dup6\n        /* \"#utility.yul\":8055:8062   */\n      dup8\n        /* \"#utility.yul\":8051:8074   */\n      sub\n        /* \"#utility.yul\":8047:8080   */\n      slt\n        /* \"#utility.yul\":8044:8164   */\n      iszero\n      tag_590\n      jumpi\n        /* \"#utility.yul\":8083:8162   */\n      tag_591\n      tag_423\n      jump\t// in\n    tag_591:\n        /* \"#utility.yul\":8044:8164   */\n    tag_590:\n        /* \"#utility.yul\":8203:8204   */\n      0x00\n        /* \"#utility.yul\":8228:8281   */\n      tag_592\n        /* \"#utility.yul\":8273:8280   */\n      dup8\n        /* \"#utility.yul\":8264:8270   */\n      dup3\n        /* \"#utility.yul\":8253:8262   */\n      dup9\n        /* \"#utility.yul\":8249:8271   */\n      add\n        /* \"#utility.yul\":8228:8281   */\n      tag_431\n      jump\t// in\n    tag_592:\n        /* \"#utility.yul\":8218:8281   */\n      swap5\n      pop\n        /* \"#utility.yul\":8174:8291   */\n      pop\n        /* \"#utility.yul\":8330:8332   */\n      0x20\n        /* \"#utility.yul\":8356:8409   */\n      tag_593\n        /* \"#utility.yul\":8401:8408   */\n      dup8\n        /* \"#utility.yul\":8392:8398   */\n      dup3\n        /* \"#utility.yul\":8381:8390   */\n      dup9\n        /* \"#utility.yul\":8377:8399   */\n      add\n        /* \"#utility.yul\":8356:8409   */\n      tag_431\n      jump\t// in\n    tag_593:\n        /* \"#utility.yul\":8346:8409   */\n      swap4\n      pop\n        /* \"#utility.yul\":8301:8419   */\n      pop\n        /* \"#utility.yul\":8458:8460   */\n      0x40\n        /* \"#utility.yul\":8484:8537   */\n      tag_594\n        /* \"#utility.yul\":8529:8536   */\n      dup8\n        /* \"#utility.yul\":8520:8526   */\n      dup3\n        /* \"#utility.yul\":8509:8518   */\n      dup9\n        /* \"#utility.yul\":8505:8527   */\n      add\n        /* \"#utility.yul\":8484:8537   */\n      tag_431\n      jump\t// in\n    tag_594:\n        /* \"#utility.yul\":8474:8537   */\n      swap3\n      pop\n        /* \"#utility.yul\":8429:8547   */\n      pop\n        /* \"#utility.yul\":8586:8588   */\n      0x60\n        /* \"#utility.yul\":8612:8665   */\n      tag_595\n        /* \"#utility.yul\":8657:8664   */\n      dup8\n        /* \"#utility.yul\":8648:8654   */\n      dup3\n        /* \"#utility.yul\":8637:8646   */\n      dup9\n        /* \"#utility.yul\":8633:8655   */\n      add\n        /* \"#utility.yul\":8612:8665   */\n      tag_431\n      jump\t// in\n    tag_595:\n        /* \"#utility.yul\":8602:8665   */\n      swap2\n      pop\n        /* \"#utility.yul\":8557:8675   */\n      pop\n        /* \"#utility.yul\":7917:8682   */\n      swap3\n      swap6\n      swap2\n      swap5\n      pop\n      swap3\n      pop\n      jump\t// out\n        /* \"#utility.yul\":8688:8805   */\n    tag_448:\n        /* \"#utility.yul\":8797:8798   */\n      0x00\n        /* \"#utility.yul\":8794:8795   */\n      dup1\n        /* \"#utility.yul\":8787:8799   */\n      revert\n        /* \"#utility.yul\":8811:8928   */\n    tag_449:\n        /* \"#utility.yul\":8920:8921   */\n      0x00\n        /* \"#utility.yul\":8917:8918   */\n      dup1\n        /* \"#utility.yul\":8910:8922   */\n      revert\n        /* \"#utility.yul\":8934:9051   */\n    tag_450:\n        /* \"#utility.yul\":9043:9044   */\n      0x00\n        /* \"#utility.yul\":9040:9041   */\n      dup1\n        /* \"#utility.yul\":9033:9045   */\n      revert\n        /* \"#utility.yul\":9074:9642   */\n    tag_451:\n        /* \"#utility.yul\":9147:9155   */\n      0x00\n        /* \"#utility.yul\":9157:9163   */\n      dup1\n        /* \"#utility.yul\":9207:9210   */\n      dup4\n        /* \"#utility.yul\":9200:9204   */\n      0x1f\n        /* \"#utility.yul\":9192:9198   */\n      dup5\n        /* \"#utility.yul\":9188:9205   */\n      add\n        /* \"#utility.yul\":9184:9211   */\n      slt\n        /* \"#utility.yul\":9174:9296   */\n      tag_600\n      jumpi\n        /* \"#utility.yul\":9215:9294   */\n      tag_601\n      tag_448\n      jump\t// in\n    tag_601:\n        /* \"#utility.yul\":9174:9296   */\n    tag_600:\n        /* \"#utility.yul\":9328:9334   */\n      dup3\n        /* \"#utility.yul\":9315:9335   */\n      calldataload\n        /* \"#utility.yul\":9305:9335   */\n      swap1\n      pop\n        /* \"#utility.yul\":9358:9376   */\n      0xffffffffffffffff\n        /* \"#utility.yul\":9350:9356   */\n      dup2\n        /* \"#utility.yul\":9347:9377   */\n      gt\n        /* \"#utility.yul\":9344:9461   */\n      iszero\n      tag_602\n      jumpi\n        /* \"#utility.yul\":9380:9459   */\n      tag_603\n      tag_449\n      jump\t// in\n    tag_603:\n        /* \"#utility.yul\":9344:9461   */\n    tag_602:\n        /* \"#utility.yul\":9494:9498   */\n      0x20\n        /* \"#utility.yul\":9486:9492   */\n      dup4\n        /* \"#utility.yul\":9482:9499   */\n      add\n        /* \"#utility.yul\":9470:9499   */\n      swap2\n      pop\n        /* \"#utility.yul\":9548:9551   */\n      dup4\n        /* \"#utility.yul\":9540:9544   */\n      0x20\n        /* \"#utility.yul\":9532:9538   */\n      dup3\n        /* \"#utility.yul\":9528:9545   */\n      mul\n        /* \"#utility.yul\":9518:9526   */\n      dup4\n        /* \"#utility.yul\":9514:9546   */\n      add\n        /* \"#utility.yul\":9511:9552   */\n      gt\n        /* \"#utility.yul\":9508:9636   */\n      iszero\n      tag_604\n      jumpi\n        /* \"#utility.yul\":9555:9634   */\n      tag_605\n      tag_450\n      jump\t// in\n    tag_605:\n        /* \"#utility.yul\":9508:9636   */\n    tag_604:\n        /* \"#utility.yul\":9074:9642   */\n      swap3\n      pop\n      swap3\n      swap1\n      pop\n      jump\t// out\n        /* \"#utility.yul\":9648:10346   */\n    tag_118:\n        /* \"#utility.yul\":9740:9746   */\n      0x00\n        /* \"#utility.yul\":9748:9754   */\n      dup1\n        /* \"#utility.yul\":9756:9762   */\n      0x00\n        /* \"#utility.yul\":9805:9807   */\n      0x40\n        /* \"#utility.yul\":9793:9802   */\n      dup5\n        /* \"#utility.yul\":9784:9791   */\n      dup7\n        /* \"#utility.yul\":9780:9803   */\n      sub\n        /* \"#utility.yul\":9776:9808   */\n      slt\n        /* \"#utility.yul\":9773:9892   */\n      iszero\n      tag_607\n      jumpi\n        /* \"#utility.yul\":9811:9890   */\n      tag_608\n      tag_423\n      jump\t// in\n    tag_608:\n        /* \"#utility.yul\":9773:9892   */\n    tag_607:\n        /* \"#utility.yul\":9959:9960   */\n      0x00\n        /* \"#utility.yul\":9948:9957   */\n      dup5\n        /* \"#utility.yul\":9944:9961   */\n      add\n        /* \"#utility.yul\":9931:9962   */\n      calldataload\n        /* \"#utility.yul\":9989:10007   */\n      0xffffffffffffffff\n        /* \"#utility.yul\":9981:9987   */\n      dup2\n        /* \"#utility.yul\":9978:10008   */\n      gt\n        /* \"#utility.yul\":9975:10092   */\n      iszero\n      tag_609\n      jumpi\n        /* \"#utility.yul\":10011:10090   */\n      tag_610\n      tag_424\n      jump\t// in\n    tag_610:\n        /* \"#utility.yul\":9975:10092   */\n    tag_609:\n        /* \"#utility.yul\":10124:10204   */\n      tag_611\n        /* \"#utility.yul\":10196:10203   */\n      dup7\n        /* \"#utility.yul\":10187:10193   */\n      dup3\n        /* \"#utility.yul\":10176:10185   */\n      dup8\n        /* \"#utility.yul\":10172:10194   */\n      add\n        /* \"#utility.yul\":10124:10204   */\n      tag_451\n      jump\t// in\n    tag_611:\n        /* \"#utility.yul\":10106:10204   */\n      swap4\n      pop\n      swap4\n      pop\n        /* \"#utility.yul\":9902:10214   */\n      pop\n        /* \"#utility.yul\":10253:10255   */\n      0x20\n        /* \"#utility.yul\":10279:10329   */\n      tag_612\n        /* \"#utility.yul\":10321:10328   */\n      dup7\n        /* \"#utility.yul\":10312:10318   */\n      dup3\n        /* \"#utility.yul\":10301:10310   */\n      dup8\n        /* \"#utility.yul\":10297:10319   */\n      add\n        /* \"#utility.yul\":10279:10329   */\n      tag_444\n      jump\t// in\n    tag_612:\n        /* \"#utility.yul\":10269:10329   */\n      swap2\n      pop\n        /* \"#utility.yul\":10224:10339   */\n      pop\n        /* \"#utility.yul\":9648:10346   */\n      swap3\n      pop\n      swap3\n      pop\n      swap3\n      jump\t// out\n        /* \"#utility.yul\":10352:10826   */\n    tag_123:\n        /* \"#utility.yul\":10420:10426   */\n      0x00\n        /* \"#utility.yul\":10428:10434   */\n      dup1\n        /* \"#utility.yul\":10477:10479   */\n      0x40\n        /* \"#utility.yul\":10465:10474   */\n      dup4\n        /* \"#utility.yul\":10456:10463   */\n      dup6\n        /* \"#utility.yul\":10452:10475   */\n      sub\n        /* \"#utility.yul\":10448:10480   */\n      slt\n        /* \"#utility.yul\":10445:10564   */\n      iszero\n      tag_614\n      jumpi\n        /* \"#utility.yul\":10483:10562   */\n      tag_615\n      tag_423\n      jump\t// in\n    tag_615:\n        /* \"#utility.yul\":10445:10564   */\n    tag_614:\n        /* \"#utility.yul\":10603:10604   */\n      0x00\n        /* \"#utility.yul\":10628:10681   */\n      tag_616\n        /* \"#utility.yul\":10673:10680   */\n      dup6\n        /* \"#utility.yul\":10664:10670   */\n      dup3\n        /* \"#utility.yul\":10653:10662   */\n      dup7\n        /* \"#utility.yul\":10649:10671   */\n      add\n        /* \"#utility.yul\":10628:10681   */\n      tag_428\n      jump\t// in\n    tag_616:\n        /* \"#utility.yul\":10618:10681   */\n      swap3\n      pop\n        /* \"#utility.yul\":10574:10691   */\n      pop\n        /* \"#utility.yul\":10730:10732   */\n      0x20\n        /* \"#utility.yul\":10756:10809   */\n      tag_617\n        /* \"#utility.yul\":10801:10808   */\n      dup6\n        /* \"#utility.yul\":10792:10798   */\n      dup3\n        /* \"#utility.yul\":10781:10790   */\n      dup7\n        /* \"#utility.yul\":10777:10799   */\n      add\n        /* \"#utility.yul\":10756:10809   */\n      tag_428\n      jump\t// in\n    tag_617:\n        /* \"#utility.yul\":10746:10809   */\n      swap2\n      pop\n        /* \"#utility.yul\":10701:10819   */\n      pop\n        /* \"#utility.yul\":10352:10826   */\n      swap3\n      pop\n      swap3\n      swap1\n      pop\n      jump\t// out\n        /* \"#utility.yul\":10832:11003   */\n    tag_452:\n        /* \"#utility.yul\":10972:10995   */\n      0x43616c6c6572206973206e6f7420746865206465760000000000000000000000\n        /* \"#utility.yul\":10968:10969   */\n      0x00\n        /* \"#utility.yul\":10960:10966   */\n      dup3\n        /* \"#utility.yul\":10956:10970   */\n      add\n        /* \"#utility.yul\":10949:10996   */\n      mstore\n        /* \"#utility.yul\":10832:11003   */\n      pop\n      jump\t// out\n        /* \"#utility.yul\":11009:11375   */\n    tag_453:\n        /* \"#utility.yul\":11151:11154   */\n      0x00\n        /* \"#utility.yul\":11172:11239   */\n      tag_620\n        /* \"#utility.yul\":11236:11238   */\n      0x15\n        /* \"#utility.yul\":11231:11234   */\n      dup4\n        /* \"#utility.yul\":11172:11239   */\n      tag_418\n      jump\t// in\n    tag_620:\n        /* \"#utility.yul\":11165:11239   */\n      swap2\n      pop\n        /* \"#utility.yul\":11248:11341   */\n      tag_621\n        /* \"#utility.yul\":11337:11340   */\n      dup3\n        /* \"#utility.yul\":11248:11341   */\n      tag_452\n      jump\t// in\n    tag_621:\n        /* \"#utility.yul\":11366:11368   */\n      0x20\n        /* \"#utility.yul\":11361:11364   */\n      dup3\n        /* \"#utility.yul\":11357:11369   */\n      add\n        /* \"#utility.yul\":11350:11369   */\n      swap1\n      pop\n        /* \"#utility.yul\":11009:11375   */\n      swap2\n      swap1\n      pop\n      jump\t// out\n        /* \"#utility.yul\":11381:11800   */\n    tag_157:\n        /* \"#utility.yul\":11547:11551   */\n      0x00\n        /* \"#utility.yul\":11585:11587   */\n      0x20\n        /* \"#utility.yul\":11574:11583   */\n      dup3\n        /* \"#utility.yul\":11570:11588   */\n      add\n        /* \"#utility.yul\":11562:11588   */\n      swap1\n      pop\n        /* \"#utility.yul\":11634:11643   */\n      dup2\n        /* \"#utility.yul\":11628:11632   */\n      dup2\n        /* \"#utility.yul\":11624:11644   */\n      sub\n        /* \"#utility.yul\":11620:11621   */\n      0x00\n        /* \"#utility.yul\":11609:11618   */\n      dup4\n        /* \"#utility.yul\":11605:11622   */\n      add\n        /* \"#utility.yul\":11598:11645   */\n      mstore\n        /* \"#utility.yul\":11662:11793   */\n      tag_623\n        /* \"#utility.yul\":11788:11792   */\n      dup2\n        /* \"#utility.yul\":11662:11793   */\n      tag_453\n      jump\t// in\n    tag_623:\n        /* \"#utility.yul\":11654:11793   */\n      swap1\n      pop\n        /* \"#utility.yul\":11381:11800   */\n      swap2\n      swap1\n      pop\n      jump\t// out\n        /* \"#utility.yul\":11806:11979   */\n    tag_454:\n        /* \"#utility.yul\":11946:11971   */\n      0x43616c6c6572206973206e6f7420746865206f776e6572000000000000000000\n        /* \"#utility.yul\":11942:11943   */\n      0x00\n        /* \"#utility.yul\":11934:11940   */\n      dup3\n        /* \"#utility.yul\":11930:11944   */\n      add\n        /* \"#utility.yul\":11923:11972   */\n      mstore\n        /* \"#utility.yul\":11806:11979   */\n      pop\n      jump\t// out\n        /* \"#utility.yul\":11985:12351   */\n    tag_455:\n        /* \"#utility.yul\":12127:12130   */\n      0x00\n        /* \"#utility.yul\":12148:12215   */\n      tag_626\n        /* \"#utility.yul\":12212:12214   */\n      0x17\n        /* \"#utility.yul\":12207:12210   */\n      dup4\n        /* \"#utility.yul\":12148:12215   */\n      tag_418\n      jump\t// in\n    tag_626:\n        /* \"#utility.yul\":12141:12215   */\n      swap2\n      pop\n        /* \"#utility.yul\":12224:12317   */\n      tag_627\n        /* \"#utility.yul\":12313:12316   */\n      dup3\n        /* \"#utility.yul\":12224:12317   */\n      tag_454\n      jump\t// in\n    tag_627:\n        /* \"#utility.yul\":12342:12344   */\n      0x20\n        /* \"#utility.yul\":12337:12340   */\n      dup3\n        /* \"#utility.yul\":12333:12345   */\n      add\n        /* \"#utility.yul\":12326:12345   */\n      swap1\n      pop\n        /* \"#utility.yul\":11985:12351   */\n      swap2\n      swap1\n      pop\n      jump\t// out\n        /* \"#utility.yul\":12357:12776   */\n    tag_176:\n        /* \"#utility.yul\":12523:12527   */\n      0x00\n        /* \"#utility.yul\":12561:12563   */\n      0x20\n        /* \"#utility.yul\":12550:12559   */\n      dup3\n        /* \"#utility.yul\":12546:12564   */\n      add\n        /* \"#utility.yul\":12538:12564   */\n      swap1\n      pop\n        /* \"#utility.yul\":12610:12619   */\n      dup2\n        /* \"#utility.yul\":12604:12608   */\n      dup2\n        /* \"#utility.yul\":12600:12620   */\n      sub\n        /* \"#utility.yul\":12596:12597   */\n      0x00\n        /* \"#utility.yul\":12585:12594   */\n      dup4\n        /* \"#utility.yul\":12581:12598   */\n      add\n        /* \"#utility.yul\":12574:12621   */\n      mstore\n        /* \"#utility.yul\":12638:12769   */\n      tag_629\n        /* \"#utility.yul\":12764:12768   */\n      dup2\n        /* \"#utility.yul\":12638:12769   */\n      tag_455\n      jump\t// in\n    tag_629:\n        /* \"#utility.yul\":12630:12769   */\n      swap1\n      pop\n        /* \"#utility.yul\":12357:12776   */\n      swap2\n      swap1\n      pop\n      jump\t// out\n        /* \"#utility.yul\":12782:12961   */\n    tag_456:\n        /* \"#utility.yul\":12922:12953   */\n      0x52656469732063616e6e6f74206265206d6f7265207468616e2031302e000000\n        /* \"#utility.yul\":12918:12919   */\n      0x00\n        /* \"#utility.yul\":12910:12916   */\n      dup3\n        /* \"#utility.yul\":12906:12920   */\n      add\n        /* \"#utility.yul\":12899:12954   */\n      mstore\n        /* \"#utility.yul\":12782:12961   */\n      pop\n      jump\t// out\n        /* \"#utility.yul\":12967:13333   */\n    tag_457:\n        /* \"#utility.yul\":13109:13112   */\n      0x00\n        /* \"#utility.yul\":13130:13197   */\n      tag_632\n        /* \"#utility.yul\":13194:13196   */\n      0x1d\n        /* \"#utility.yul\":13189:13192   */\n      dup4\n        /* \"#utility.yul\":13130:13197   */\n      tag_418\n      jump\t// in\n    tag_632:\n        /* \"#utility.yul\":13123:13197   */\n      swap2\n      pop\n        /* \"#utility.yul\":13206:13299   */\n      tag_633\n        /* \"#utility.yul\":13295:13298   */\n      dup3\n        /* \"#utility.yul\":13206:13299   */\n      tag_456\n      jump\t// in\n    tag_633:\n        /* \"#utility.yul\":13324:13326   */\n      0x20\n        /* \"#utility.yul\":13319:13322   */\n      dup3\n        /* \"#utility.yul\":13315:13327   */\n      add\n        /* \"#utility.yul\":13308:13327   */\n      swap1\n      pop\n        /* \"#utility.yul\":12967:13333   */\n      swap2\n      swap1\n      pop\n      jump\t// out\n        /* \"#utility.yul\":13339:13758   */\n    tag_198:\n        /* \"#utility.yul\":13505:13509   */\n      0x00\n        /* \"#utility.yul\":13543:13545   */\n      0x20\n        /* \"#utility.yul\":13532:13541   */\n      dup3\n        /* \"#utility.yul\":13528:13546   */\n      add\n        /* \"#utility.yul\":13520:13546   */\n      swap1\n      pop\n        /* \"#utility.yul\":13592:13601   */\n      dup2\n        /* \"#utility.yul\":13586:13590   */\n      dup2\n        /* \"#utility.yul\":13582:13602   */\n      sub\n        /* \"#utility.yul\":13578:13579   */\n      0x00\n        /* \"#utility.yul\":13567:13576   */\n      dup4\n        /* \"#utility.yul\":13563:13580   */\n      add\n        /* \"#utility.yul\":13556:13603   */\n      mstore\n        /* \"#utility.yul\":13620:13751   */\n      tag_635\n        /* \"#utility.yul\":13746:13750   */\n      dup2\n        /* \"#utility.yul\":13620:13751   */\n      tag_457\n      jump\t// in\n    tag_635:\n        /* \"#utility.yul\":13612:13751   */\n      swap1\n      pop\n        /* \"#utility.yul\":13339:13758   */\n      swap2\n      swap1\n      pop\n      jump\t// out\n        /* \"#utility.yul\":13764:13940   */\n    tag_458:\n        /* \"#utility.yul\":13904:13932   */\n      0x5461782063616e6e6f74206265206d6f7265207468616e20362e000000000000\n        /* \"#utility.yul\":13900:13901   */\n      0x00\n        /* \"#utility.yul\":13892:13898   */\n      dup3\n        /* \"#utility.yul\":13888:13902   */\n      add\n        /* \"#utility.yul\":13881:13933   */\n      mstore\n        /* \"#utility.yul\":13764:13940   */\n      pop\n      jump\t// out\n        /* \"#utility.yul\":13946:14312   */\n    tag_459:\n        /* \"#utility.yul\":14088:14091   */\n      0x00\n        /* \"#utility.yul\":14109:14176   */\n      tag_638\n        /* \"#utility.yul\":14173:14175   */\n      0x1a\n        /* \"#utility.yul\":14168:14171   */\n      dup4\n        /* \"#utility.yul\":14109:14176   */\n      tag_418\n      jump\t// in\n    tag_638:\n        /* \"#utility.yul\":14102:14176   */\n      swap2\n      pop\n        /* \"#utility.yul\":14185:14278   */\n      tag_639\n        /* \"#utility.yul\":14274:14277   */\n      dup3\n        /* \"#utility.yul\":14185:14278   */\n      tag_458\n      jump\t// in\n    tag_639:\n        /* \"#utility.yul\":14303:14305   */\n      0x20\n        /* \"#utility.yul\":14298:14301   */\n      dup3\n        /* \"#utility.yul\":14294:14306   */\n      add\n        /* \"#utility.yul\":14287:14306   */\n      swap1\n      pop\n        /* \"#utility.yul\":13946:14312   */\n      swap2\n      swap1\n      pop\n      jump\t// out\n        /* \"#utility.yul\":14318:14737   */\n    tag_203:\n        /* \"#utility.yul\":14484:14488   */\n      0x00\n        /* \"#utility.yul\":14522:14524   */\n      0x20\n        /* \"#utility.yul\":14511:14520   */\n      dup3\n        /* \"#utility.yul\":14507:14525   */\n      add\n        /* \"#utility.yul\":14499:14525   */\n      swap1\n      pop\n        /* \"#utility.yul\":14571:14580   */\n      dup2\n        /* \"#utility.yul\":14565:14569   */\n      dup2\n        /* \"#utility.yul\":14561:14581   */\n      sub\n        /* \"#utility.yul\":14557:14558   */\n      0x00\n        /* \"#utility.yul\":14546:14555   */\n      dup4\n        /* \"#utility.yul\":14542:14559   */\n      add\n        /* \"#utility.yul\":14535:14582   */\n      mstore\n        /* \"#utility.yul\":14599:14730   */\n      tag_641\n        /* \"#utility.yul\":14725:14729   */\n      dup2\n        /* \"#utility.yul\":14599:14730   */\n      tag_459\n      jump\t// in\n    tag_641:\n        /* \"#utility.yul\":14591:14730   */\n      swap1\n      pop\n        /* \"#utility.yul\":14318:14737   */\n      swap2\n      swap1\n      pop\n      jump\t// out\n        /* \"#utility.yul\":14743:14923   */\n    tag_238:\n        /* \"#utility.yul\":14791:14868   */\n      0x4e487b7100000000000000000000000000000000000000000000000000000000\n        /* \"#utility.yul\":14788:14789   */\n      0x00\n        /* \"#utility.yul\":14781:14869   */\n      mstore\n        /* \"#utility.yul\":14888:14892   */\n      0x32\n        /* \"#utility.yul\":14885:14886   */\n      0x04\n        /* \"#utility.yul\":14878:14893   */\n      mstore\n        /* \"#utility.yul\":14912:14916   */\n      0x24\n        /* \"#utility.yul\":14909:14910   */\n      0x00\n        /* \"#utility.yul\":14902:14917   */\n      revert\n        /* \"#utility.yul\":14929:15109   */\n    tag_460:\n        /* \"#utility.yul\":14977:15054   */\n      0x4e487b7100000000000000000000000000000000000000000000000000000000\n        /* \"#utility.yul\":14974:14975   */\n      0x00\n        /* \"#utility.yul\":14967:15055   */\n      mstore\n        /* \"#utility.yul\":15074:15078   */\n      0x11\n        /* \"#utility.yul\":15071:15072   */\n      0x04\n        /* \"#utility.yul\":15064:15079   */\n      mstore\n        /* \"#utility.yul\":15098:15102   */\n      0x24\n        /* \"#utility.yul\":15095:15096   */\n      0x00\n        /* \"#utility.yul\":15088:15103   */\n      revert\n        /* \"#utility.yul\":15115:15348   */\n    tag_241:\n        /* \"#utility.yul\":15154:15157   */\n      0x00\n        /* \"#utility.yul\":15177:15201   */\n      tag_645\n        /* \"#utility.yul\":15195:15200   */\n      dup3\n        /* \"#utility.yul\":15177:15201   */\n      tag_429\n      jump\t// in\n    tag_645:\n        /* \"#utility.yul\":15168:15201   */\n      swap2\n      pop\n        /* \"#utility.yul\":15223:15289   */\n      0xffffffffffffffffffffffffffffffffffffffffffffffffffffffffffffffff\n        /* \"#utility.yul\":15216:15221   */\n      dup3\n        /* \"#utility.yul\":15213:15290   */\n      sub\n        /* \"#utility.yul\":15210:15313   */\n      tag_646\n      jumpi\n        /* \"#utility.yul\":15293:15311   */\n      tag_647\n      tag_460\n      jump\t// in\n    tag_647:\n        /* \"#utility.yul\":15210:15313   */\n    tag_646:\n        /* \"#utility.yul\":15340:15341   */\n      0x01\n        /* \"#utility.yul\":15333:15338   */\n      dup3\n        /* \"#utility.yul\":15329:15342   */\n      add\n        /* \"#utility.yul\":15322:15342   */\n      swap1\n      pop\n        /* \"#utility.yul\":15115:15348   */\n      swap2\n      swap1\n      pop\n      jump\t// out\n        /* \"#utility.yul\":15354:15686   */\n    tag_253:\n        /* \"#utility.yul\":15475:15479   */\n      0x00\n        /* \"#utility.yul\":15513:15515   */\n      0x40\n        /* \"#utility.yul\":15502:15511   */\n      dup3\n        /* \"#utility.yul\":15498:15516   */\n      add\n        /* \"#utility.yul\":15490:15516   */\n      swap1\n      pop\n        /* \"#utility.yul\":15526:15597   */\n      tag_649\n        /* \"#utility.yul\":15594:15595   */\n      0x00\n        /* \"#utility.yul\":15583:15592   */\n      dup4\n        /* \"#utility.yul\":15579:15596   */\n      add\n        /* \"#utility.yul\":15570:15576   */\n      dup6\n        /* \"#utility.yul\":15526:15597   */\n      tag_442\n      jump\t// in\n    tag_649:\n        /* \"#utility.yul\":15607:15679   */\n      tag_650\n        /* \"#utility.yul\":15675:15677   */\n      0x20\n        /* \"#utility.yul\":15664:15673   */\n      dup4\n        /* \"#utility.yul\":15660:15678   */\n      add\n        /* \"#utility.yul\":15651:15657   */\n      dup5\n        /* \"#utility.yul\":15607:15679   */\n      tag_439\n      jump\t// in\n    tag_650:\n        /* \"#utility.yul\":15354:15686   */\n      swap4\n      swap3\n      pop\n      pop\n      pop\n      jump\t// out\n        /* \"#utility.yul\":15692:15829   */\n    tag_461:\n        /* \"#utility.yul\":15746:15751   */\n      0x00\n        /* \"#utility.yul\":15777:15783   */\n      dup2\n        /* \"#utility.yul\":15771:15784   */\n      mload\n        /* \"#utility.yul\":15762:15784   */\n      swap1\n      pop\n        /* \"#utility.yul\":15793:15823   */\n      tag_652\n        /* \"#utility.yul\":15817:15822   */\n      dup2\n        /* \"#utility.yul\":15793:15823   */\n      tag_443\n      jump\t// in\n    tag_652:\n        /* \"#utility.yul\":15692:15829   */\n      swap3\n      swap2\n      pop\n      pop\n      jump\t// out\n        /* \"#utility.yul\":15835:16180   */\n    tag_257:\n        /* \"#utility.yul\":15902:15908   */\n      0x00\n        /* \"#utility.yul\":15951:15953   */\n      0x20\n        /* \"#utility.yul\":15939:15948   */\n      dup3\n        /* \"#utility.yul\":15930:15937   */\n      dup5\n        /* \"#utility.yul\":15926:15949   */\n      sub\n        /* \"#utility.yul\":15922:15954   */\n      slt\n        /* \"#utility.yul\":15919:16038   */\n      iszero\n      tag_654\n      jumpi\n        /* \"#utility.yul\":15957:16036   */\n      tag_655\n      tag_423\n      jump\t// in\n    tag_655:\n        /* \"#utility.yul\":15919:16038   */\n    tag_654:\n        /* \"#utility.yul\":16077:16078   */\n      0x00\n        /* \"#utility.yul\":16102:16163   */\n      tag_656\n        /* \"#utility.yul\":16155:16162   */\n      dup5\n        /* \"#utility.yul\":16146:16152   */\n      dup3\n        /* \"#utility.yul\":16135:16144   */\n      dup6\n        /* \"#utility.yul\":16131:16153   */\n      add\n        /* \"#utility.yul\":16102:16163   */\n      tag_461\n      jump\t// in\n    tag_656:\n        /* \"#utility.yul\":16092:16163   */\n      swap2\n      pop\n        /* \"#utility.yul\":16048:16173   */\n      pop\n        /* \"#utility.yul\":15835:16180   */\n      swap3\n      swap2\n      pop\n      pop\n      jump\t// out\n        /* \"#utility.yul\":16186:16409   */\n    tag_462:\n        /* \"#utility.yul\":16326:16360   */\n      0x45524332303a20617070726f76652066726f6d20746865207a65726f20616464\n        /* \"#utility.yul\":16322:16323   */\n      0x00\n        /* \"#utility.yul\":16314:16320   */\n      dup3\n        /* \"#utility.yul\":16310:16324   */\n      add\n        /* \"#utility.yul\":16303:16361   */\n      mstore\n        /* \"#utility.yul\":16395:16401   */\n      0x7265737300000000000000000000000000000000000000000000000000000000\n        /* \"#utility.yul\":16390:16392   */\n      0x20\n        /* \"#utility.yul\":16382:16388   */\n      dup3\n        /* \"#utility.yul\":16378:16393   */\n      add\n        /* \"#utility.yul\":16371:16402   */\n      mstore\n        /* \"#utility.yul\":16186:16409   */\n      pop\n      jump\t// out\n        /* \"#utility.yul\":16415:16781   */\n    tag_463:\n        /* \"#utility.yul\":16557:16560   */\n      0x00\n        /* \"#utility.yul\":16578:16645   */\n      tag_659\n        /* \"#utility.yul\":16642:16644   */\n      0x24\n        /* \"#utility.yul\":16637:16640   */\n      dup4\n        /* \"#utility.yul\":16578:16645   */\n      tag_418\n      jump\t// in\n    tag_659:\n        /* \"#utility.yul\":16571:16645   */\n      swap2\n      pop\n        /* \"#utility.yul\":16654:16747   */\n      tag_660\n        /* \"#utility.yul\":16743:16746   */\n      dup3\n        /* \"#utility.yul\":16654:16747   */\n      tag_462\n      jump\t// in\n    tag_660:\n        /* \"#utility.yul\":16772:16774   */\n      0x40\n        /* \"#utility.yul\":16767:16770   */\n      dup3\n        /* \"#utility.yul\":16763:16775   */\n      add\n        /* \"#utility.yul\":16756:16775   */\n      swap1\n      pop\n        /* \"#utility.yul\":16415:16781   */\n      swap2\n      swap1\n      pop\n      jump\t// out\n        /* \"#utility.yul\":16787:17206   */\n    tag_267:\n        /* \"#utility.yul\":16953:16957   */\n      0x00\n        /* \"#utility.yul\":16991:16993   */\n      0x20\n        /* \"#utility.yul\":16980:16989   */\n      dup3\n        /* \"#utility.yul\":16976:16994   */\n      add\n        /* \"#utility.yul\":16968:16994   */\n      swap1\n      pop\n        /* \"#utility.yul\":17040:17049   */\n      dup2\n        /* \"#utility.yul\":17034:17038   */\n      dup2\n        /* \"#utility.yul\":17030:17050   */\n      sub\n        /* \"#utility.yul\":17026:17027   */\n      0x00\n        /* \"#utility.yul\":17015:17024   */\n      dup4\n        /* \"#utility.yul\":17011:17028   */\n      add\n        /* \"#utility.yul\":17004:17051   */\n      mstore\n        /* \"#utility.yul\":17068:17199   */\n      tag_662\n        /* \"#utility.yul\":17194:17198   */\n      dup2\n        /* \"#utility.yul\":17068:17199   */\n      tag_463\n      jump\t// in\n    tag_662:\n        /* \"#utility.yul\":17060:17199   */\n      swap1\n      pop\n        /* \"#utility.yul\":16787:17206   */\n      swap2\n      swap1\n      pop\n      jump\t// out\n        /* \"#utility.yul\":17212:17433   */\n    tag_464:\n        /* \"#utility.yul\":17352:17386   */\n      0x45524332303a20617070726f766520746f20746865207a65726f206164647265\n        /* \"#utility.yul\":17348:17349   */\n      0x00\n        /* \"#utility.yul\":17340:17346   */\n      dup3\n        /* \"#utility.yul\":17336:17350   */\n      add\n        /* \"#utility.yul\":17329:17387   */\n      mstore\n        /* \"#utility.yul\":17421:17425   */\n      0x7373000000000000000000000000000000000000000000000000000000000000\n        /* \"#utility.yul\":17416:17418   */\n      0x20\n        /* \"#utility.yul\":17408:17414   */\n      dup3\n        /* \"#utility.yul\":17404:17419   */\n      add\n        /* \"#utility.yul\":17397:17426   */\n      mstore\n        /* \"#utility.yul\":17212:17433   */\n      pop\n      jump\t// out\n        /* \"#utility.yul\":17439:17805   */\n    tag_465:\n        /* \"#utility.yul\":17581:17584   */\n      0x00\n        /* \"#utility.yul\":17602:17669   */\n      tag_665\n        /* \"#utility.yul\":17666:17668   */\n      0x22\n        /* \"#utility.yul\":17661:17664   */\n      dup4\n        /* \"#utility.yul\":17602:17669   */\n      tag_418\n      jump\t// in\n    tag_665:\n        /* \"#utility.yul\":17595:17669   */\n      swap2\n      pop\n        /* \"#utility.yul\":17678:17771   */\n      tag_666\n        /* \"#utility.yul\":17767:17770   */\n      dup3\n        /* \"#utility.yul\":17678:17771   */\n      tag_464\n      jump\t// in\n    tag_666:\n        /* \"#utility.yul\":17796:17798   */\n      0x40\n        /* \"#utility.yul\":17791:17794   */\n      dup3\n        /* \"#utility.yul\":17787:17799   */\n      add\n        /* \"#utility.yul\":17780:17799   */\n      swap1\n      pop\n        /* \"#utility.yul\":17439:17805   */\n      swap2\n      swap1\n      pop\n      jump\t// out\n        /* \"#utility.yul\":17811:18230   */\n    tag_270:\n        /* \"#utility.yul\":17977:17981   */\n      0x00\n        /* \"#utility.yul\":18015:18017   */\n      0x20\n        /* \"#utility.yul\":18004:18013   */\n      dup3\n        /* \"#utility.yul\":18000:18018   */\n      add\n        /* \"#utility.yul\":17992:18018   */\n      swap1\n      pop\n        /* \"#utility.yul\":18064:18073   */\n      dup2\n        /* \"#utility.yul\":18058:18062   */\n      dup2\n        /* \"#utility.yul\":18054:18074   */\n      sub\n        /* \"#utility.yul\":18050:18051   */\n      0x00\n        /* \"#utility.yul\":18039:18048   */\n      dup4\n        /* \"#utility.yul\":18035:18052   */\n      add\n        /* \"#utility.yul\":18028:18075   */\n      mstore\n        /* \"#utility.yul\":18092:18223   */\n      tag_668\n        /* \"#utility.yul\":18218:18222   */\n      dup2\n        /* \"#utility.yul\":18092:18223   */\n      tag_465\n      jump\t// in\n    tag_668:\n        /* \"#utility.yul\":18084:18223   */\n      swap1\n      pop\n        /* \"#utility.yul\":17811:18230   */\n      swap2\n      swap1\n      pop\n      jump\t// out\n        /* \"#utility.yul\":18236:18460   */\n    tag_466:\n        /* \"#utility.yul\":18376:18410   */\n      0x45524332303a207472616e736665722066726f6d20746865207a65726f206164\n        /* \"#utility.yul\":18372:18373   */\n      0x00\n        /* \"#utility.yul\":18364:18370   */\n      dup3\n        /* \"#utility.yul\":18360:18374   */\n      add\n        /* \"#utility.yul\":18353:18411   */\n      mstore\n        /* \"#utility.yul\":18445:18452   */\n      0x6472657373000000000000000000000000000000000000000000000000000000\n        /* \"#utility.yul\":18440:18442   */\n      0x20\n        /* \"#utility.yul\":18432:18438   */\n      dup3\n        /* \"#utility.yul\":18428:18443   */\n      add\n        /* \"#utility.yul\":18421:18453   */\n      mstore\n        /* \"#utility.yul\":18236:18460   */\n      pop\n      jump\t// out\n        /* \"#utility.yul\":18466:18832   */\n    tag_467:\n        /* \"#utility.yul\":18608:18611   */\n      0x00\n        /* \"#utility.yul\":18629:18696   */\n      tag_671\n        /* \"#utility.yul\":18693:18695   */\n      0x25\n        /* \"#utility.yul\":18688:18691   */\n      dup4\n        /* \"#utility.yul\":18629:18696   */\n      tag_418\n      jump\t// in\n    tag_671:\n        /* \"#utility.yul\":18622:18696   */\n      swap2\n      pop\n        /* \"#utility.yul\":18705:18798   */\n      tag_672\n        /* \"#utility.yul\":18794:18797   */\n      dup3\n        /* \"#utility.yul\":18705:18798   */\n      tag_466\n      jump\t// in\n    tag_672:\n        /* \"#utility.yul\":18823:18825   */\n      0x40\n        /* \"#utility.yul\":18818:18821   */\n      dup3\n        /* \"#utility.yul\":18814:18826   */\n      add\n        /* \"#utility.yul\":18807:18826   */\n      swap1\n      pop\n        /* \"#utility.yul\":18466:18832   */\n      swap2\n      swap1\n      pop\n      jump\t// out\n        /* \"#utility.yul\":18838:19257   */\n    tag_275:\n        /* \"#utility.yul\":19004:19008   */\n      0x00\n        /* \"#utility.yul\":19042:19044   */\n      0x20\n        /* \"#utility.yul\":19031:19040   */\n      dup3\n        /* \"#utility.yul\":19027:19045   */\n      add\n        /* \"#utility.yul\":19019:19045   */\n      swap1\n      pop\n        /* \"#utility.yul\":19091:19100   */\n      dup2\n        /* \"#utility.yul\":19085:19089   */\n      dup2\n        /* \"#utility.yul\":19081:19101   */\n      sub\n        /* \"#utility.yul\":19077:19078   */\n      0x00\n        /* \"#utility.yul\":19066:19075   */\n      dup4\n        /* \"#utility.yul\":19062:19079   */\n      add\n        /* \"#utility.yul\":19055:19102   */\n      mstore\n        /* \"#utility.yul\":19119:19250   */\n      tag_674\n        /* \"#utility.yul\":19245:19249   */\n      dup2\n        /* \"#utility.yul\":19119:19250   */\n      tag_467\n      jump\t// in\n    tag_674:\n        /* \"#utility.yul\":19111:19250   */\n      swap1\n      pop\n        /* \"#utility.yul\":18838:19257   */\n      swap2\n      swap1\n      pop\n      jump\t// out\n        /* \"#utility.yul\":19263:19485   */\n    tag_468:\n        /* \"#utility.yul\":19403:19437   */\n      0x45524332303a207472616e7366657220746f20746865207a65726f2061646472\n        /* \"#utility.yul\":19399:19400   */\n      0x00\n        /* \"#utility.yul\":19391:19397   */\n      dup3\n        /* \"#utility.yul\":19387:19401   */\n      add\n        /* \"#utility.yul\":19380:19438   */\n      mstore\n        /* \"#utility.yul\":19472:19477   */\n      0x6573730000000000000000000000000000000000000000000000000000000000\n        /* \"#utility.yul\":19467:19469   */\n      0x20\n        /* \"#utility.yul\":19459:19465   */\n      dup3\n        /* \"#utility.yul\":19455:19470   */\n      add\n        /* \"#utility.yul\":19448:19478   */\n      mstore\n        /* \"#utility.yul\":19263:19485   */\n      pop\n      jump\t// out\n        /* \"#utility.yul\":19491:19857   */\n    tag_469:\n        /* \"#utility.yul\":19633:19636   */\n      0x00\n        /* \"#utility.yul\":19654:19721   */\n      tag_677\n        /* \"#utility.yul\":19718:19720   */\n      0x23\n        /* \"#utility.yul\":19713:19716   */\n      dup4\n        /* \"#utility.yul\":19654:19721   */\n      tag_418\n      jump\t// in\n    tag_677:\n        /* \"#utility.yul\":19647:19721   */\n      swap2\n      pop\n        /* \"#utility.yul\":19730:19823   */\n      tag_678\n        /* \"#utility.yul\":19819:19822   */\n      dup3\n        /* \"#utility.yul\":19730:19823   */\n      tag_468\n      jump\t// in\n    tag_678:\n        /* \"#utility.yul\":19848:19850   */\n      0x40\n        /* \"#utility.yul\":19843:19846   */\n      dup3\n        /* \"#utility.yul\":19839:19851   */\n      add\n        /* \"#utility.yul\":19832:19851   */\n      swap1\n      pop\n        /* \"#utility.yul\":19491:19857   */\n      swap2\n      swap1\n      pop\n      jump\t// out\n        /* \"#utility.yul\":19863:20282   */\n    tag_278:\n        /* \"#utility.yul\":20029:20033   */\n      0x00\n        /* \"#utility.yul\":20067:20069   */\n      0x20\n        /* \"#utility.yul\":20056:20065   */\n      dup3\n        /* \"#utility.yul\":20052:20070   */\n      add\n        /* \"#utility.yul\":20044:20070   */\n      swap1\n      pop\n        /* \"#utility.yul\":20116:20125   */\n      dup2\n        /* \"#utility.yul\":20110:20114   */\n      dup2\n        /* \"#utility.yul\":20106:20126   */\n      sub\n        /* \"#utility.yul\":20102:20103   */\n      0x00\n        /* \"#utility.yul\":20091:20100   */\n      dup4\n        /* \"#utility.yul\":20087:20104   */\n      add\n        /* \"#utility.yul\":20080:20127   */\n      mstore\n        /* \"#utility.yul\":20144:20275   */\n      tag_680\n        /* \"#utility.yul\":20270:20274   */\n      dup2\n        /* \"#utility.yul\":20144:20275   */\n      tag_469\n      jump\t// in\n    tag_680:\n        /* \"#utility.yul\":20136:20275   */\n      swap1\n      pop\n        /* \"#utility.yul\":19863:20282   */\n      swap2\n      swap1\n      pop\n      jump\t// out\n        /* \"#utility.yul\":20288:20516   */\n    tag_470:\n        /* \"#utility.yul\":20428:20462   */\n      0x5472616e7366657220616d6f756e74206d757374206265206772656174657220\n        /* \"#utility.yul\":20424:20425   */\n      0x00\n        /* \"#utility.yul\":20416:20422   */\n      dup3\n        /* \"#utility.yul\":20412:20426   */\n      add\n        /* \"#utility.yul\":20405:20463   */\n      mstore\n        /* \"#utility.yul\":20497:20508   */\n      0x7468616e207a65726f0000000000000000000000000000000000000000000000\n        /* \"#utility.yul\":20492:20494   */\n      0x20\n        /* \"#utility.yul\":20484:20490   */\n      dup3\n        /* \"#utility.yul\":20480:20495   */\n      add\n        /* \"#utility.yul\":20473:20509   */\n      mstore\n        /* \"#utility.yul\":20288:20516   */\n      pop\n      jump\t// out\n        /* \"#utility.yul\":20522:20888   */\n    tag_471:\n        /* \"#utility.yul\":20664:20667   */\n      0x00\n        /* \"#utility.yul\":20685:20752   */\n      tag_683\n        /* \"#utility.yul\":20749:20751   */\n      0x29\n        /* \"#utility.yul\":20744:20747   */\n      dup4\n        /* \"#utility.yul\":20685:20752   */\n      tag_418\n      jump\t// in\n    tag_683:\n        /* \"#utility.yul\":20678:20752   */\n      swap2\n      pop\n        /* \"#utility.yul\":20761:20854   */\n      tag_684\n        /* \"#utility.yul\":20850:20853   */\n      dup3\n        /* \"#utility.yul\":20761:20854   */\n      tag_470\n      jump\t// in\n    tag_684:\n        /* \"#utility.yul\":20879:20881   */\n      0x40\n        /* \"#utility.yul\":20874:20877   */\n      dup3\n        /* \"#utility.yul\":20870:20882   */\n      add\n        /* \"#utility.yul\":20863:20882   */\n      swap1\n      pop\n        /* \"#utility.yul\":20522:20888   */\n      swap2\n      swap1\n      pop\n      jump\t// out\n        /* \"#utility.yul\":20894:21313   */\n    tag_281:\n        /* \"#utility.yul\":21060:21064   */\n      0x00\n        /* \"#utility.yul\":21098:21100   */\n      0x20\n        /* \"#utility.yul\":21087:21096   */\n      dup3\n        /* \"#utility.yul\":21083:21101   */\n      add\n        /* \"#utility.yul\":21075:21101   */\n      swap1\n      pop\n        /* \"#utility.yul\":21147:21156   */\n      dup2\n        /* \"#utility.yul\":21141:21145   */\n      dup2\n        /* \"#utility.yul\":21137:21157   */\n      sub\n        /* \"#utility.yul\":21133:21134   */\n      0x00\n        /* \"#utility.yul\":21122:21131   */\n      dup4\n        /* \"#utility.yul\":21118:21135   */\n      add\n        /* \"#utility.yul\":21111:21158   */\n      mstore\n        /* \"#utility.yul\":21175:21306   */\n      tag_686\n        /* \"#utility.yul\":21301:21305   */\n      dup2\n        /* \"#utility.yul\":21175:21306   */\n      tag_471\n      jump\t// in\n    tag_686:\n        /* \"#utility.yul\":21167:21306   */\n      swap1\n      pop\n        /* \"#utility.yul\":20894:21313   */\n      swap2\n      swap1\n      pop\n      jump\t// out\n        /* \"#utility.yul\":21319:21510   */\n    tag_308:\n        /* \"#utility.yul\":21359:21363   */\n      0x00\n        /* \"#utility.yul\":21379:21399   */\n      tag_688\n        /* \"#utility.yul\":21397:21398   */\n      dup3\n        /* \"#utility.yul\":21379:21399   */\n      tag_429\n      jump\t// in\n    tag_688:\n        /* \"#utility.yul\":21374:21399   */\n      swap2\n      pop\n        /* \"#utility.yul\":21413:21433   */\n      tag_689\n        /* \"#utility.yul\":21431:21432   */\n      dup4\n        /* \"#utility.yul\":21413:21433   */\n      tag_429\n      jump\t// in\n    tag_689:\n        /* \"#utility.yul\":21408:21433   */\n      swap3\n      pop\n        /* \"#utility.yul\":21452:21453   */\n      dup3\n        /* \"#utility.yul\":21449:21450   */\n      dup3\n        /* \"#utility.yul\":21446:21454   */\n      lt\n        /* \"#utility.yul\":21443:21477   */\n      iszero\n      tag_690\n      jumpi\n        /* \"#utility.yul\":21457:21475   */\n      tag_691\n      tag_460\n      jump\t// in\n    tag_691:\n        /* \"#utility.yul\":21443:21477   */\n    tag_690:\n        /* \"#utility.yul\":21502:21503   */\n      dup3\n        /* \"#utility.yul\":21499:21500   */\n      dup3\n        /* \"#utility.yul\":21495:21504   */\n      sub\n        /* \"#utility.yul\":21487:21504   */\n      swap1\n      pop\n        /* \"#utility.yul\":21319:21510   */\n      swap3\n      swap2\n      pop\n      pop\n      jump\t// out\n        /* \"#utility.yul\":21516:21745   */\n    tag_472:\n        /* \"#utility.yul\":21656:21690   */\n      0x416d6f756e74206d757374206265206c657373207468616e20746f74616c2072\n        /* \"#utility.yul\":21652:21653   */\n      0x00\n        /* \"#utility.yul\":21644:21650   */\n      dup3\n        /* \"#utility.yul\":21640:21654   */\n      add\n        /* \"#utility.yul\":21633:21691   */\n      mstore\n        /* \"#utility.yul\":21725:21737   */\n      0x65666c656374696f6e7300000000000000000000000000000000000000000000\n        /* \"#utility.yul\":21720:21722   */\n      0x20\n        /* \"#utility.yul\":21712:21718   */\n      dup3\n        /* \"#utility.yul\":21708:21723   */\n      add\n        /* \"#utility.yul\":21701:21738   */\n      mstore\n        /* \"#utility.yul\":21516:21745   */\n      pop\n      jump\t// out\n        /* \"#utility.yul\":21751:22117   */\n    tag_473:\n        /* \"#utility.yul\":21893:21896   */\n      0x00\n        /* \"#utility.yul\":21914:21981   */\n      tag_694\n        /* \"#utility.yul\":21978:21980   */\n      0x2a\n        /* \"#utility.yul\":21973:21976   */\n      dup4\n        /* \"#utility.yul\":21914:21981   */\n      tag_418\n      jump\t// in\n    tag_694:\n        /* \"#utility.yul\":21907:21981   */\n      swap2\n      pop\n        /* \"#utility.yul\":21990:22083   */\n      tag_695\n        /* \"#utility.yul\":22079:22082   */\n      dup3\n        /* \"#utility.yul\":21990:22083   */\n      tag_472\n      jump\t// in\n    tag_695:\n        /* \"#utility.yul\":22108:22110   */\n      0x40\n        /* \"#utility.yul\":22103:22106   */\n      dup3\n        /* \"#utility.yul\":22099:22111   */\n      add\n        /* \"#utility.yul\":22092:22111   */\n      swap1\n      pop\n        /* \"#utility.yul\":21751:22117   */\n      swap2\n      swap1\n      pop\n      jump\t// out\n        /* \"#utility.yul\":22123:22542   */\n    tag_320:\n        /* \"#utility.yul\":22289:22293   */\n      0x00\n        /* \"#utility.yul\":22327:22329   */\n      0x20\n        /* \"#utility.yul\":22316:22325   */\n      dup3\n        /* \"#utility.yul\":22312:22330   */\n      add\n        /* \"#utility.yul\":22304:22330   */\n      swap1\n      pop\n        /* \"#utility.yul\":22376:22385   */\n      dup2\n        /* \"#utility.yul\":22370:22374   */\n      dup2\n        /* \"#utility.yul\":22366:22386   */\n      sub\n        /* \"#utility.yul\":22362:22363   */\n      0x00\n        /* \"#utility.yul\":22351:22360   */\n      dup4\n        /* \"#utility.yul\":22347:22364   */\n      add\n        /* \"#utility.yul\":22340:22387   */\n      mstore\n        /* \"#utility.yul\":22404:22535   */\n      tag_697\n        /* \"#utility.yul\":22530:22534   */\n      dup2\n        /* \"#utility.yul\":22404:22535   */\n      tag_473\n      jump\t// in\n    tag_697:\n        /* \"#utility.yul\":22396:22535   */\n      swap1\n      pop\n        /* \"#utility.yul\":22123:22542   */\n      swap2\n      swap1\n      pop\n      jump\t// out\n        /* \"#utility.yul\":22548:22728   */\n    tag_328:\n        /* \"#utility.yul\":22596:22673   */\n      0x4e487b7100000000000000000000000000000000000000000000000000000000\n        /* \"#utility.yul\":22593:22594   */\n      0x00\n        /* \"#utility.yul\":22586:22674   */\n      mstore\n        /* \"#utility.yul\":22693:22697   */\n      0x41\n        /* \"#utility.yul\":22690:22691   */\n      0x04\n        /* \"#utility.yul\":22683:22698   */\n      mstore\n        /* \"#utility.yul\":22717:22721   */\n      0x24\n        /* \"#utility.yul\":22714:22715   */\n      0x00\n        /* \"#utility.yul\":22707:22722   */\n      revert\n        /* \"#utility.yul\":22734:22877   */\n    tag_474:\n        /* \"#utility.yul\":22791:22796   */\n      0x00\n        /* \"#utility.yul\":22822:22828   */\n      dup2\n        /* \"#utility.yul\":22816:22829   */\n      mload\n        /* \"#utility.yul\":22807:22829   */\n      swap1\n      pop\n        /* \"#utility.yul\":22838:22871   */\n      tag_700\n        /* \"#utility.yul\":22865:22870   */\n      dup2\n        /* \"#utility.yul\":22838:22871   */\n      tag_427\n      jump\t// in\n    tag_700:\n        /* \"#utility.yul\":22734:22877   */\n      swap3\n      swap2\n      pop\n      pop\n      jump\t// out\n        /* \"#utility.yul\":22883:23234   */\n    tag_335:\n        /* \"#utility.yul\":22953:22959   */\n      0x00\n        /* \"#utility.yul\":23002:23004   */\n      0x20\n        /* \"#utility.yul\":22990:22999   */\n      dup3\n        /* \"#utility.yul\":22981:22988   */\n      dup5\n        /* \"#utility.yul\":22977:23000   */\n      sub\n        /* \"#utility.yul\":22973:23005   */\n      slt\n        /* \"#utility.yul\":22970:23089   */\n      iszero\n      tag_702\n      jumpi\n        /* \"#utility.yul\":23008:23087   */\n      tag_703\n      tag_423\n      jump\t// in\n    tag_703:\n        /* \"#utility.yul\":22970:23089   */\n    tag_702:\n        /* \"#utility.yul\":23128:23129   */\n      0x00\n        /* \"#utility.yul\":23153:23217   */\n      tag_704\n        /* \"#utility.yul\":23209:23216   */\n      dup5\n        /* \"#utility.yul\":23200:23206   */\n      dup3\n        /* \"#utility.yul\":23189:23198   */\n      dup6\n        /* \"#utility.yul\":23185:23207   */\n      add\n        /* \"#utility.yul\":23153:23217   */\n      tag_474\n      jump\t// in\n    tag_704:\n        /* \"#utility.yul\":23143:23217   */\n      swap2\n      pop\n        /* \"#utility.yul\":23099:23227   */\n      pop\n        /* \"#utility.yul\":22883:23234   */\n      swap3\n      swap2\n      pop\n      pop\n      jump\t// out\n        /* \"#utility.yul\":23240:23325   */\n    tag_475:\n        /* \"#utility.yul\":23285:23292   */\n      0x00\n        /* \"#utility.yul\":23314:23319   */\n      dup2\n        /* \"#utility.yul\":23303:23319   */\n      swap1\n      pop\n        /* \"#utility.yul\":23240:23325   */\n      swap2\n      swap1\n      pop\n      jump\t// out\n        /* \"#utility.yul\":23331:23489   */\n    tag_476:\n        /* \"#utility.yul\":23389:23398   */\n      0x00\n        /* \"#utility.yul\":23422:23483   */\n      tag_707\n        /* \"#utility.yul\":23440:23482   */\n      tag_708\n        /* \"#utility.yul\":23449:23481   */\n      tag_709\n        /* \"#utility.yul\":23475:23480   */\n      dup5\n        /* \"#utility.yul\":23449:23481   */\n      tag_475\n      jump\t// in\n    tag_709:\n        /* \"#utility.yul\":23440:23482   */\n      tag_434\n      jump\t// in\n    tag_708:\n        /* \"#utility.yul\":23422:23483   */\n      tag_429\n      jump\t// in\n    tag_707:\n        /* \"#utility.yul\":23409:23483   */\n      swap1\n      pop\n        /* \"#utility.yul\":23331:23489   */\n      swap2\n      swap1\n      pop\n      jump\t// out\n        /* \"#utility.yul\":23495:23642   */\n    tag_477:\n        /* \"#utility.yul\":23590:23635   */\n      tag_711\n        /* \"#utility.yul\":23629:23634   */\n      dup2\n        /* \"#utility.yul\":23590:23635   */\n      tag_476\n      jump\t// in\n    tag_711:\n        /* \"#utility.yul\":23585:23588   */\n      dup3\n        /* \"#utility.yul\":23578:23636   */\n      mstore\n        /* \"#utility.yul\":23495:23642   */\n      pop\n      pop\n      jump\t// out\n        /* \"#utility.yul\":23648:23762   */\n    tag_478:\n        /* \"#utility.yul\":23715:23721   */\n      0x00\n        /* \"#utility.yul\":23749:23754   */\n      dup2\n        /* \"#utility.yul\":23743:23755   */\n      mload\n        /* \"#utility.yul\":23733:23755   */\n      swap1\n      pop\n        /* \"#utility.yul\":23648:23762   */\n      swap2\n      swap1\n      pop\n      jump\t// out\n        /* \"#utility.yul\":23768:23952   */\n    tag_479:\n        /* \"#utility.yul\":23867:23878   */\n      0x00\n        /* \"#utility.yul\":23901:23907   */\n      dup3\n        /* \"#utility.yul\":23896:23899   */\n      dup3\n        /* \"#utility.yul\":23889:23908   */\n      mstore\n        /* \"#utility.yul\":23941:23945   */\n      0x20\n        /* \"#utility.yul\":23936:23939   */\n      dup3\n        /* \"#utility.yul\":23932:23946   */\n      add\n        /* \"#utility.yul\":23917:23946   */\n      swap1\n      pop\n        /* \"#utility.yul\":23768:23952   */\n      swap3\n      swap2\n      pop\n      pop\n      jump\t// out\n        /* \"#utility.yul\":23958:24090   */\n    tag_480:\n        /* \"#utility.yul\":24025:24029   */\n      0x00\n        /* \"#utility.yul\":24048:24051   */\n      dup2\n        /* \"#utility.yul\":24040:24051   */\n      swap1\n      pop\n        /* \"#utility.yul\":24078:24082   */\n      0x20\n        /* \"#utility.yul\":24073:24076   */\n      dup3\n        /* \"#utility.yul\":24069:24083   */\n      add\n        /* \"#utility.yul\":24061:24083   */\n      swap1\n      pop\n        /* \"#utility.yul\":23958:24090   */\n      swap2\n      swap1\n      pop\n      jump\t// out\n        /* \"#utility.yul\":24096:24204   */\n    tag_481:\n        /* \"#utility.yul\":24173:24197   */\n      tag_716\n        /* \"#utility.yul\":24191:24196   */\n      dup2\n        /* \"#utility.yul\":24173:24197   */\n      tag_426\n      jump\t// in\n    tag_716:\n        /* \"#utility.yul\":24168:24171   */\n      dup3\n        /* \"#utility.yul\":24161:24198   */\n      mstore\n        /* \"#utility.yul\":24096:24204   */\n      pop\n      pop\n      jump\t// out\n        /* \"#utility.yul\":24210:24389   */\n    tag_482:\n        /* \"#utility.yul\":24279:24289   */\n      0x00\n        /* \"#utility.yul\":24300:24346   */\n      tag_718\n        /* \"#utility.yul\":24342:24345   */\n      dup4\n        /* \"#utility.yul\":24334:24340   */\n      dup4\n        /* \"#utility.yul\":24300:24346   */\n      tag_481\n      jump\t// in\n    tag_718:\n        /* \"#utility.yul\":24378:24382   */\n      0x20\n        /* \"#utility.yul\":24373:24376   */\n      dup4\n        /* \"#utility.yul\":24369:24383   */\n      add\n        /* \"#utility.yul\":24355:24383   */\n      swap1\n      pop\n        /* \"#utility.yul\":24210:24389   */\n      swap3\n      swap2\n      pop\n      pop\n      jump\t// out\n        /* \"#utility.yul\":24395:24508   */\n    tag_483:\n        /* \"#utility.yul\":24465:24469   */\n      0x00\n        /* \"#utility.yul\":24497:24501   */\n      0x20\n        /* \"#utility.yul\":24492:24495   */\n      dup3\n        /* \"#utility.yul\":24488:24502   */\n      add\n        /* \"#utility.yul\":24480:24502   */\n      swap1\n      pop\n        /* \"#utility.yul\":24395:24508   */\n      swap2\n      swap1\n      pop\n      jump\t// out\n        /* \"#utility.yul\":24544:25276   */\n    tag_484:\n        /* \"#utility.yul\":24663:24666   */\n      0x00\n        /* \"#utility.yul\":24692:24746   */\n      tag_721\n        /* \"#utility.yul\":24740:24745   */\n      dup3\n        /* \"#utility.yul\":24692:24746   */\n      tag_478\n      jump\t// in\n    tag_721:\n        /* \"#utility.yul\":24762:24848   */\n      tag_722\n        /* \"#utility.yul\":24841:24847   */\n      dup2\n        /* \"#utility.yul\":24836:24839   */\n      dup6\n        /* \"#utility.yul\":24762:24848   */\n      tag_479\n      jump\t// in\n    tag_722:\n        /* \"#utility.yul\":24755:24848   */\n      swap4\n      pop\n        /* \"#utility.yul\":24872:24928   */\n      tag_723\n        /* \"#utility.yul\":24922:24927   */\n      dup4\n        /* \"#utility.yul\":24872:24928   */\n      tag_480\n      jump\t// in\n    tag_723:\n        /* \"#utility.yul\":24951:24958   */\n      dup1\n        /* \"#utility.yul\":24982:24983   */\n      0x00\n        /* \"#utility.yul\":24967:25251   */\n    tag_724:\n        /* \"#utility.yul\":24992:24998   */\n      dup4\n        /* \"#utility.yul\":24989:24990   */\n      dup2\n        /* \"#utility.yul\":24986:24999   */\n      lt\n        /* \"#utility.yul\":24967:25251   */\n      iszero\n      tag_726\n      jumpi\n        /* \"#utility.yul\":25068:25074   */\n      dup2\n        /* \"#utility.yul\":25062:25075   */\n      mload\n        /* \"#utility.yul\":25095:25158   */\n      tag_727\n        /* \"#utility.yul\":25154:25157   */\n      dup9\n        /* \"#utility.yul\":25139:25152   */\n      dup3\n        /* \"#utility.yul\":25095:25158   */\n      tag_482\n      jump\t// in\n    tag_727:\n        /* \"#utility.yul\":25088:25158   */\n      swap8\n      pop\n        /* \"#utility.yul\":25181:25241   */\n      tag_728\n        /* \"#utility.yul\":25234:25240   */\n      dup4\n        /* \"#utility.yul\":25181:25241   */\n      tag_483\n      jump\t// in\n    tag_728:\n        /* \"#utility.yul\":25171:25241   */\n      swap3\n      pop\n        /* \"#utility.yul\":25027:25251   */\n      pop\n        /* \"#utility.yul\":25014:25015   */\n      0x01\n        /* \"#utility.yul\":25011:25012   */\n      dup2\n        /* \"#utility.yul\":25007:25016   */\n      add\n        /* \"#utility.yul\":25002:25016   */\n      swap1\n      pop\n        /* \"#utility.yul\":24967:25251   */\n      jump(tag_724)\n    tag_726:\n        /* \"#utility.yul\":24971:24985   */\n      pop\n        /* \"#utility.yul\":25267:25270   */\n      dup6\n        /* \"#utility.yul\":25260:25270   */\n      swap4\n      pop\n        /* \"#utility.yul\":24668:25276   */\n      pop\n      pop\n      pop\n        /* \"#utility.yul\":24544:25276   */\n      swap3\n      swap2\n      pop\n      pop\n      jump\t// out\n        /* \"#utility.yul\":25282:26113   */\n    tag_340:\n        /* \"#utility.yul\":25545:25549   */\n      0x00\n        /* \"#utility.yul\":25583:25586   */\n      0xa0\n        /* \"#utility.yul\":25572:25581   */\n      dup3\n        /* \"#utility.yul\":25568:25587   */\n      add\n        /* \"#utility.yul\":25560:25587   */\n      swap1\n      pop\n        /* \"#utility.yul\":25597:25668   */\n      tag_730\n        /* \"#utility.yul\":25665:25666   */\n      0x00\n        /* \"#utility.yul\":25654:25663   */\n      dup4\n        /* \"#utility.yul\":25650:25667   */\n      add\n        /* \"#utility.yul\":25641:25647   */\n      dup9\n        /* \"#utility.yul\":25597:25668   */\n      tag_439\n      jump\t// in\n    tag_730:\n        /* \"#utility.yul\":25678:25758   */\n      tag_731\n        /* \"#utility.yul\":25754:25756   */\n      0x20\n        /* \"#utility.yul\":25743:25752   */\n      dup4\n        /* \"#utility.yul\":25739:25757   */\n      add\n        /* \"#utility.yul\":25730:25736   */\n      dup8\n        /* \"#utility.yul\":25678:25758   */\n      tag_477\n      jump\t// in\n    tag_731:\n        /* \"#utility.yul\":25805:25814   */\n      dup2\n        /* \"#utility.yul\":25799:25803   */\n      dup2\n        /* \"#utility.yul\":25795:25815   */\n      sub\n        /* \"#utility.yul\":25790:25792   */\n      0x40\n        /* \"#utility.yul\":25779:25788   */\n      dup4\n        /* \"#utility.yul\":25775:25793   */\n      add\n        /* \"#utility.yul\":25768:25816   */\n      mstore\n        /* \"#utility.yul\":25833:25941   */\n      tag_732\n        /* \"#utility.yul\":25936:25940   */\n      dup2\n        /* \"#utility.yul\":25927:25933   */\n      dup7\n        /* \"#utility.yul\":25833:25941   */\n      tag_484\n      jump\t// in\n    tag_732:\n        /* \"#utility.yul\":25825:25941   */\n      swap1\n      pop\n        /* \"#utility.yul\":25951:26023   */\n      tag_733\n        /* \"#utility.yul\":26019:26021   */\n      0x60\n        /* \"#utility.yul\":26008:26017   */\n      dup4\n        /* \"#utility.yul\":26004:26022   */\n      add\n        /* \"#utility.yul\":25995:26001   */\n      dup6\n        /* \"#utility.yul\":25951:26023   */\n      tag_442\n      jump\t// in\n    tag_733:\n        /* \"#utility.yul\":26033:26106   */\n      tag_734\n        /* \"#utility.yul\":26101:26104   */\n      0x80\n        /* \"#utility.yul\":26090:26099   */\n      dup4\n        /* \"#utility.yul\":26086:26105   */\n      add\n        /* \"#utility.yul\":26077:26083   */\n      dup5\n        /* \"#utility.yul\":26033:26106   */\n      tag_439\n      jump\t// in\n    tag_734:\n        /* \"#utility.yul\":25282:26113   */\n      swap7\n      swap6\n      pop\n      pop\n      pop\n      pop\n      pop\n      pop\n      jump\t// out\n        /* \"#utility.yul\":26119:26299   */\n    tag_485:\n        /* \"#utility.yul\":26167:26244   */\n      0x4e487b7100000000000000000000000000000000000000000000000000000000\n        /* \"#utility.yul\":26164:26165   */\n      0x00\n        /* \"#utility.yul\":26157:26245   */\n      mstore\n        /* \"#utility.yul\":26264:26268   */\n      0x12\n        /* \"#utility.yul\":26261:26262   */\n      0x04\n        /* \"#utility.yul\":26254:26269   */\n      mstore\n        /* \"#utility.yul\":26288:26292   */\n      0x24\n        /* \"#utility.yul\":26285:26286   */\n      0x00\n        /* \"#utility.yul\":26278:26293   */\n      revert\n        /* \"#utility.yul\":26305:26490   */\n    tag_370:\n        /* \"#utility.yul\":26345:26346   */\n      0x00\n        /* \"#utility.yul\":26362:26382   */\n      tag_737\n        /* \"#utility.yul\":26380:26381   */\n      dup3\n        /* \"#utility.yul\":26362:26382   */\n      tag_429\n      jump\t// in\n    tag_737:\n        /* \"#utility.yul\":26357:26382   */\n      swap2\n      pop\n        /* \"#utility.yul\":26396:26416   */\n      tag_738\n        /* \"#utility.yul\":26414:26415   */\n      dup4\n        /* \"#utility.yul\":26396:26416   */\n      tag_429\n      jump\t// in\n    tag_738:\n        /* \"#utility.yul\":26391:26416   */\n      swap3\n      pop\n        /* \"#utility.yul\":26435:26436   */\n      dup3\n        /* \"#utility.yul\":26425:26460   */\n      tag_739\n      jumpi\n        /* \"#utility.yul\":26440:26458   */\n      tag_740\n      tag_485\n      jump\t// in\n    tag_740:\n        /* \"#utility.yul\":26425:26460   */\n    tag_739:\n        /* \"#utility.yul\":26482:26483   */\n      dup3\n        /* \"#utility.yul\":26479:26480   */\n      dup3\n        /* \"#utility.yul\":26475:26484   */\n      div\n        /* \"#utility.yul\":26470:26484   */\n      swap1\n      pop\n        /* \"#utility.yul\":26305:26490   */\n      swap3\n      swap2\n      pop\n      pop\n      jump\t// out\n        /* \"#utility.yul\":26496:26801   */\n    tag_384:\n        /* \"#utility.yul\":26536:26539   */\n      0x00\n        /* \"#utility.yul\":26555:26575   */\n      tag_742\n        /* \"#utility.yul\":26573:26574   */\n      dup3\n        /* \"#utility.yul\":26555:26575   */\n      tag_429\n      jump\t// in\n    tag_742:\n        /* \"#utility.yul\":26550:26575   */\n      swap2\n      pop\n        /* \"#utility.yul\":26589:26609   */\n      tag_743\n        /* \"#utility.yul\":26607:26608   */\n      dup4\n        /* \"#utility.yul\":26589:26609   */\n      tag_429\n      jump\t// in\n    tag_743:\n        /* \"#utility.yul\":26584:26609   */\n      swap3\n      pop\n        /* \"#utility.yul\":26743:26744   */\n      dup3\n        /* \"#utility.yul\":26675:26741   */\n      0xffffffffffffffffffffffffffffffffffffffffffffffffffffffffffffffff\n        /* \"#utility.yul\":26671:26745   */\n      sub\n        /* \"#utility.yul\":26668:26669   */\n      dup3\n        /* \"#utility.yul\":26665:26746   */\n      gt\n        /* \"#utility.yul\":26662:26769   */\n      iszero\n      tag_744\n      jumpi\n        /* \"#utility.yul\":26749:26767   */\n      tag_745\n      tag_460\n      jump\t// in\n    tag_745:\n        /* \"#utility.yul\":26662:26769   */\n    tag_744:\n        /* \"#utility.yul\":26793:26794   */\n      dup3\n        /* \"#utility.yul\":26790:26791   */\n      dup3\n        /* \"#utility.yul\":26786:26795   */\n      add\n        /* \"#utility.yul\":26779:26795   */\n      swap1\n      pop\n        /* \"#utility.yul\":26496:26801   */\n      swap3\n      swap2\n      pop\n      pop\n      jump\t// out\n        /* \"#utility.yul\":26807:26984   */\n    tag_486:\n        /* \"#utility.yul\":26947:26976   */\n      0x536166654d6174683a206164646974696f6e206f766572666c6f770000000000\n        /* \"#utility.yul\":26943:26944   */\n      0x00\n        /* \"#utility.yul\":26935:26941   */\n      dup3\n        /* \"#utility.yul\":26931:26945   */\n      add\n        /* \"#utility.yul\":26924:26977   */\n      mstore\n        /* \"#utility.yul\":26807:26984   */\n      pop\n      jump\t// out\n        /* \"#utility.yul\":26990:27356   */\n    tag_487:\n        /* \"#utility.yul\":27132:27135   */\n      0x00\n        /* \"#utility.yul\":27153:27220   */\n      tag_748\n        /* \"#utility.yul\":27217:27219   */\n      0x1b\n        /* \"#utility.yul\":27212:27215   */\n      dup4\n        /* \"#utility.yul\":27153:27220   */\n      tag_418\n      jump\t// in\n    tag_748:\n        /* \"#utility.yul\":27146:27220   */\n      swap2\n      pop\n        /* \"#utility.yul\":27229:27322   */\n      tag_749\n        /* \"#utility.yul\":27318:27321   */\n      dup3\n        /* \"#utility.yul\":27229:27322   */\n      tag_486\n      jump\t// in\n    tag_749:\n        /* \"#utility.yul\":27347:27349   */\n      0x20\n        /* \"#utility.yul\":27342:27345   */\n      dup3\n        /* \"#utility.yul\":27338:27350   */\n      add\n        /* \"#utility.yul\":27331:27350   */\n      swap1\n      pop\n        /* \"#utility.yul\":26990:27356   */\n      swap2\n      swap1\n      pop\n      jump\t// out\n        /* \"#utility.yul\":27362:27781   */\n    tag_387:\n        /* \"#utility.yul\":27528:27532   */\n      0x00\n        /* \"#utility.yul\":27566:27568   */\n      0x20\n        /* \"#utility.yul\":27555:27564   */\n      dup3\n        /* \"#utility.yul\":27551:27569   */\n      add\n        /* \"#utility.yul\":27543:27569   */\n      swap1\n      pop\n        /* \"#utility.yul\":27615:27624   */\n      dup2\n        /* \"#utility.yul\":27609:27613   */\n      dup2\n        /* \"#utility.yul\":27605:27625   */\n      sub\n        /* \"#utility.yul\":27601:27602   */\n      0x00\n        /* \"#utility.yul\":27590:27599   */\n      dup4\n        /* \"#utility.yul\":27586:27603   */\n      add\n        /* \"#utility.yul\":27579:27626   */\n      mstore\n        /* \"#utility.yul\":27643:27774   */\n      tag_751\n        /* \"#utility.yul\":27769:27773   */\n      dup2\n        /* \"#utility.yul\":27643:27774   */\n      tag_487\n      jump\t// in\n    tag_751:\n        /* \"#utility.yul\":27635:27774   */\n      swap1\n      pop\n        /* \"#utility.yul\":27362:27781   */\n      swap2\n      swap1\n      pop\n      jump\t// out\n        /* \"#utility.yul\":27787:28135   */\n    tag_412:\n        /* \"#utility.yul\":27827:27834   */\n      0x00\n        /* \"#utility.yul\":27850:27870   */\n      tag_753\n        /* \"#utility.yul\":27868:27869   */\n      dup3\n        /* \"#utility.yul\":27850:27870   */\n      tag_429\n      jump\t// in\n    tag_753:\n        /* \"#utility.yul\":27845:27870   */\n      swap2\n      pop\n        /* \"#utility.yul\":27884:27904   */\n      tag_754\n        /* \"#utility.yul\":27902:27903   */\n      dup4\n        /* \"#utility.yul\":27884:27904   */\n      tag_429\n      jump\t// in\n    tag_754:\n        /* \"#utility.yul\":27879:27904   */\n      swap3\n      pop\n        /* \"#utility.yul\":28072:28073   */\n      dup2\n        /* \"#utility.yul\":28004:28070   */\n      0xffffffffffffffffffffffffffffffffffffffffffffffffffffffffffffffff\n        /* \"#utility.yul\":28000:28074   */\n      div\n        /* \"#utility.yul\":27997:27998   */\n      dup4\n        /* \"#utility.yul\":27994:28075   */\n      gt\n        /* \"#utility.yul\":27989:27990   */\n      dup3\n        /* \"#utility.yul\":27982:27991   */\n      iszero\n        /* \"#utility.yul\":27975:27992   */\n      iszero\n        /* \"#utility.yul\":27971:28076   */\n      and\n        /* \"#utility.yul\":27968:28099   */\n      iszero\n      tag_755\n      jumpi\n        /* \"#utility.yul\":28079:28097   */\n      tag_756\n      tag_460\n      jump\t// in\n    tag_756:\n        /* \"#utility.yul\":27968:28099   */\n    tag_755:\n        /* \"#utility.yul\":28127:28128   */\n      dup3\n        /* \"#utility.yul\":28124:28125   */\n      dup3\n        /* \"#utility.yul\":28120:28129   */\n      mul\n        /* \"#utility.yul\":28109:28129   */\n      swap1\n      pop\n        /* \"#utility.yul\":27787:28135   */\n      swap3\n      swap2\n      pop\n      pop\n      jump\t// out\n        /* \"#utility.yul\":28141:28361   */\n    tag_488:\n        /* \"#utility.yul\":28281:28315   */\n      0x536166654d6174683a206d756c7469706c69636174696f6e206f766572666c6f\n        /* \"#utility.yul\":28277:28278   */\n      0x00\n        /* \"#utility.yul\":28269:28275   */\n      dup3\n        /* \"#utility.yul\":28265:28279   */\n      add\n        /* \"#utility.yul\":28258:28316   */\n      mstore\n        /* \"#utility.yul\":28350:28353   */\n      0x7700000000000000000000000000000000000000000000000000000000000000\n        /* \"#utility.yul\":28345:28347   */\n      0x20\n        /* \"#utility.yul\":28337:28343   */\n      dup3\n        /* \"#utility.yul\":28333:28348   */\n      add\n        /* \"#utility.yul\":28326:28354   */\n      mstore\n        /* \"#utility.yul\":28141:28361   */\n      pop\n      jump\t// out\n        /* \"#utility.yul\":28367:28733   */\n    tag_489:\n        /* \"#utility.yul\":28509:28512   */\n      0x00\n        /* \"#utility.yul\":28530:28597   */\n      tag_759\n        /* \"#utility.yul\":28594:28596   */\n      0x21\n        /* \"#utility.yul\":28589:28592   */\n      dup4\n        /* \"#utility.yul\":28530:28597   */\n      tag_418\n      jump\t// in\n    tag_759:\n        /* \"#utility.yul\":28523:28597   */\n      swap2\n      pop\n        /* \"#utility.yul\":28606:28699   */\n      tag_760\n        /* \"#utility.yul\":28695:28698   */\n      dup3\n        /* \"#utility.yul\":28606:28699   */\n      tag_488\n      jump\t// in\n    tag_760:\n        /* \"#utility.yul\":28724:28726   */\n      0x40\n        /* \"#utility.yul\":28719:28722   */\n      dup3\n        /* \"#utility.yul\":28715:28727   */\n      add\n        /* \"#utility.yul\":28708:28727   */\n      swap1\n      pop\n        /* \"#utility.yul\":28367:28733   */\n      swap2\n      swap1\n      pop\n      jump\t// out\n        /* \"#utility.yul\":28739:29158   */\n    tag_416:\n        /* \"#utility.yul\":28905:28909   */\n      0x00\n        /* \"#utility.yul\":28943:28945   */\n      0x20\n        /* \"#utility.yul\":28932:28941   */\n      dup3\n        /* \"#utility.yul\":28928:28946   */\n      add\n        /* \"#utility.yul\":28920:28946   */\n      swap1\n      pop\n        /* \"#utility.yul\":28992:29001   */\n      dup2\n        /* \"#utility.yul\":28986:28990   */\n      dup2\n        /* \"#utility.yul\":28982:29002   */\n      sub\n        /* \"#utility.yul\":28978:28979   */\n      0x00\n        /* \"#utility.yul\":28967:28976   */\n      dup4\n        /* \"#utility.yul\":28963:28980   */\n      add\n        /* \"#utility.yul\":28956:29003   */\n      mstore\n        /* \"#utility.yul\":29020:29151   */\n      tag_762\n        /* \"#utility.yul\":29146:29150   */\n      dup2\n        /* \"#utility.yul\":29020:29151   */\n      tag_489\n      jump\t// in\n    tag_762:\n        /* \"#utility.yul\":29012:29151   */\n      swap1\n      pop\n        /* \"#utility.yul\":28739:29158   */\n      swap2\n      swap1\n      pop\n      jump\t// out\n    stop\n    data_974d1b4421da69cc60b481194f0dad36a5bb4e23da810da7a7fb30cdba178330 45524332303a207472616e7366657220616d6f756e74206578636565647320616c6c6f77616e6365\n\n    auxdata: 0xa2646970667358221220fdd218468bc320efc82a9bf1dd601753f80a0410349d8d18dda426306c36abbc64736f6c634300080d0033\n}\n",
				"bytecode": {
					"linkReferences": {},
					"object": "6080604052670de0b6b3a76400006414f46b04006200001f9190620006dd565b6414f46b040062000031919062000744565b600655600160085560046009556001600a556001600b55738492cbd894686d7e98214541903c7ba6f94928d6600e60006101000a81548173ffffffffffffffffffffffffffffffffffffffff021916908373ffffffffffffffffffffffffffffffffffffffff16021790555073a4ed7aa4ef5deb0a63e97d9cb77445ae553feb1d600f60006101000a81548173ffffffffffffffffffffffffffffffffffffffff021916908373ffffffffffffffffffffffffffffffffffffffff1602179055506000601160146101000a81548160ff0219169083151502179055506001601160156101000a81548160ff0219169083151502179055503480156200013557600080fd5b506000620001486200067360201b60201c565b9050806000806101000a81548173ffffffffffffffffffffffffffffffffffffffff021916908373ffffffffffffffffffffffffffffffffffffffff1602179055508073ffffffffffffffffffffffffffffffffffffffff16600073ffffffffffffffffffffffffffffffffffffffff167f8be0079c531659141344cd1fd0a4f28419497f9722a3daafe3b4186f6b6457e060405160405180910390a35060065460026000620001fd6200067360201b60201c565b73ffffffffffffffffffffffffffffffffffffffff1673ffffffffffffffffffffffffffffffffffffffff1681526020019081526020016000208190555060007310ed43c718714eb63d5aa57b78b54704e256024e905080601060006101000a81548173ffffffffffffffffffffffffffffffffffffffff021916908373ffffffffffffffffffffffffffffffffffffffff1602179055508073ffffffffffffffffffffffffffffffffffffffff1663c45a01556040518163ffffffff1660e01b8152600401602060405180830381865afa158015620002e1573d6000803e3d6000fd5b505050506040513d601f19601f82011682018060405250810190620003079190620007e9565b73ffffffffffffffffffffffffffffffffffffffff1663c9c65396308373ffffffffffffffffffffffffffffffffffffffff1663ad5c46486040518163ffffffff1660e01b8152600401602060405180830381865afa1580156200036f573d6000803e3d6000fd5b505050506040513d601f19601f82011682018060405250810190620003959190620007e9565b6040518363ffffffff1660e01b8152600401620003b49291906200082c565b6020604051808303816000875af1158015620003d4573d6000803e3d6000fd5b505050506040513d601f19601f82011682018060405250810190620003fa9190620007e9565b601160006101000a81548173ffffffffffffffffffffffffffffffffffffffff021916908373ffffffffffffffffffffffffffffffffffffffff160217905550600160056000620004506200067b60201b60201c565b73ffffffffffffffffffffffffffffffffffffffff1673ffffffffffffffffffffffffffffffffffffffff16815260200190815260200160002060006101000a81548160ff0219169083151502179055506001600560003073ffffffffffffffffffffffffffffffffffffffff1673ffffffffffffffffffffffffffffffffffffffff16815260200190815260200160002060006101000a81548160ff021916908315150217905550600160056000600e60009054906101000a900473ffffffffffffffffffffffffffffffffffffffff1673ffffffffffffffffffffffffffffffffffffffff1673ffffffffffffffffffffffffffffffffffffffff16815260200190815260200160002060006101000a81548160ff021916908315150217905550600160056000600f60009054906101000a900473ffffffffffffffffffffffffffffffffffffffff1673ffffffffffffffffffffffffffffffffffffffff1673ffffffffffffffffffffffffffffffffffffffff16815260200190815260200160002060006101000a81548160ff021916908315150217905550620005fd6200067360201b60201c565b73ffffffffffffffffffffffffffffffffffffffff16600073ffffffffffffffffffffffffffffffffffffffff167fddf252ad1be2c89b69c2b068fc378daa952ba7f163c4a11628f55a4df523b3ef670de0b6b3a76400006040516200066491906200086a565b60405180910390a35062000887565b600033905090565b60008060009054906101000a900473ffffffffffffffffffffffffffffffffffffffff16905090565b6000819050919050565b7f4e487b7100000000000000000000000000000000000000000000000000000000600052601260045260246000fd5b6000620006ea82620006a4565b9150620006f783620006a4565b9250826200070a5762000709620006ae565b5b828206905092915050565b7f4e487b7100000000000000000000000000000000000000000000000000000000600052601160045260246000fd5b60006200075182620006a4565b91506200075e83620006a4565b92508282101562000774576200077362000715565b5b828203905092915050565b600080fd5b600073ffffffffffffffffffffffffffffffffffffffff82169050919050565b6000620007b18262000784565b9050919050565b620007c381620007a4565b8114620007cf57600080fd5b50565b600081519050620007e381620007b8565b92915050565b6000602082840312156200080257620008016200077f565b5b60006200081284828501620007d2565b91505092915050565b6200082681620007a4565b82525050565b60006040820190506200084360008301856200081b565b6200085260208301846200081b565b9392505050565b6200086481620006a4565b82525050565b600060208201905062000881600083018462000859565b92915050565b61394c80620008976000396000f3fe6080604052600436106101395760003560e01c8063758dbe03116100ab578063aad5c0231161006f578063aad5c0231461040f578063c3c8cd8014610438578063c492f0461461044f578063dd62ed3e14610478578063e293d316146104b5578063f2fde38b146104de57610140565b8063758dbe031461032a5780638da5cb5b1461035357806395d89b411461037e578063a2a957bb146103a9578063a9059cbb146103d257610140565b8063313ce567116100fd578063313ce5671461024057806349bd5a5e1461026b5780636d8aa8f8146102965780636fc3eaec146102bf57806370a08231146102d6578063715018a61461031357610140565b806306fdde0314610145578063095ea7b3146101705780631694505e146101ad57806318160ddd146101d857806323b872dd1461020357610140565b3661014057005b600080fd5b34801561015157600080fd5b5061015a610507565b60405161016791906129d0565b60405180910390f35b34801561017c57600080fd5b5061019760048036038101906101929190612a90565b610544565b6040516101a49190612aeb565b60405180910390f35b3480156101b957600080fd5b506101c2610562565b6040516101cf9190612b65565b60405180910390f35b3480156101e457600080fd5b506101ed610588565b6040516101fa9190612b8f565b60405180910390f35b34801561020f57600080fd5b5061022a60048036038101906102259190612baa565b610598565b6040516102379190612aeb565b60405180910390f35b34801561024c57600080fd5b50610255610671565b6040516102629190612c19565b60405180910390f35b34801561027757600080fd5b5061028061067a565b60405161028d9190612c43565b60405180910390f35b3480156102a257600080fd5b506102bd60048036038101906102b89190612c8a565b6106a0565b005b3480156102cb57600080fd5b506102d4610798565b005b3480156102e257600080fd5b506102fd60048036038101906102f89190612cb7565b6108ad565b60405161030a9190612b8f565b60405180910390f35b34801561031f57600080fd5b506103286108fe565b005b34801561033657600080fd5b50610351600480360381019061034c9190612d22565b610a51565b005b34801561035f57600080fd5b50610368610c66565b6040516103759190612c43565b60405180910390f35b34801561038a57600080fd5b50610393610c8f565b6040516103a091906129d0565b60405180910390f35b3480156103b557600080fd5b506103d060048036038101906103cb9190612d4f565b610ccc565b005b3480156103de57600080fd5b506103f960048036038101906103f49190612a90565b610ed5565b6040516104069190612aeb565b60405180910390f35b34801561041b57600080fd5b5061043660048036038101906104319190612d22565b610ef3565b005b34801561044457600080fd5b5061044d611108565b005b34801561045b57600080fd5b5061047660048036038101906104719190612e1b565b611225565b005b34801561048457600080fd5b5061049f600480360381019061049a9190612e7b565b61135f565b6040516104ac9190612b8f565b60405180910390f35b3480156104c157600080fd5b506104dc60048036038101906104d79190612baa565b6113e6565b005b3480156104ea57600080fd5b5061050560048036038101906105009190612cb7565b6115aa565b005b60606040518060400160405280600a81526020017f576f726c64205374657000000000000000000000000000000000000000000000815250905090565b60006105586105516116fc565b8484611704565b6001905092915050565b601060009054906101000a900473ffffffffffffffffffffffffffffffffffffffff1681565b6000670de0b6b3a7640000905090565b60006105a58484846118cd565b610666846105b16116fc565b610661856040518060600160405280602881526020016138ef60289139600460008b73ffffffffffffffffffffffffffffffffffffffff1673ffffffffffffffffffffffffffffffffffffffff16815260200190815260200160002060006106176116fc565b73ffffffffffffffffffffffffffffffffffffffff1673ffffffffffffffffffffffffffffffffffffffff16815260200190815260200160002054611e3f9092919063ffffffff16565b611704565b600190509392505050565b60006009905090565b601160009054906101000a900473ffffffffffffffffffffffffffffffffffffffff1681565b6106a86116fc565b73ffffffffffffffffffffffffffffffffffffffff166106c6610c66565b73ffffffffffffffffffffffffffffffffffffffff16148061073c57506106eb6116fc565b73ffffffffffffffffffffffffffffffffffffffff16600e60009054906101000a900473ffffffffffffffffffffffffffffffffffffffff1673ffffffffffffffffffffffffffffffffffffffff16145b61077b576040517f08c379a000000000000000000000000000000000000000000000000000000000815260040161077290612f07565b60405180910390fd5b80601160156101000a81548160ff02191690831515021790555050565b600e60009054906101000a900473ffffffffffffffffffffffffffffffffffffffff1673ffffffffffffffffffffffffffffffffffffffff166107d96116fc565b73ffffffffffffffffffffffffffffffffffffffff16148061084f5750600f60009054906101000a900473ffffffffffffffffffffffffffffffffffffffff1673ffffffffffffffffffffffffffffffffffffffff166108376116fc565b73ffffffffffffffffffffffffffffffffffffffff16145b80610893575061085d610c66565b73ffffffffffffffffffffffffffffffffffffffff1661087b6116fc565b73ffffffffffffffffffffffffffffffffffffffff16145b61089c57600080fd5b60004790506108aa81611ea3565b50565b60006108f7600260008473ffffffffffffffffffffffffffffffffffffffff1673ffffffffffffffffffffffffffffffffffffffff16815260200190815260200160002054611f9e565b9050919050565b6109066116fc565b73ffffffffffffffffffffffffffffffffffffffff1660008054906101000a900473ffffffffffffffffffffffffffffffffffffffff1673ffffffffffffffffffffffffffffffffffffffff1614610993576040517f08c379a000000000000000000000000000000000000000000000000000000000815260040161098a90612f73565b60405180910390fd5b600073ffffffffffffffffffffffffffffffffffffffff1660008054906101000a900473ffffffffffffffffffffffffffffffffffffffff1673ffffffffffffffffffffffffffffffffffffffff167f8be0079c531659141344cd1fd0a4f28419497f9722a3daafe3b4186f6b6457e060405160405180910390a360008060006101000a81548173ffffffffffffffffffffffffffffffffffffffff021916908373ffffffffffffffffffffffffffffffffffffffff160217905550565b610a596116fc565b73ffffffffffffffffffffffffffffffffffffffff16610a77610c66565b73ffffffffffffffffffffffffffffffffffffffff161480610aed5750610a9c6116fc565b73ffffffffffffffffffffffffffffffffffffffff16600e60009054906101000a900473ffffffffffffffffffffffffffffffffffffffff1673ffffffffffffffffffffffffffffffffffffffff16145b610b2c576040517f08c379a0000000000000000000000000000000000000000000000000000000008152600401610b2390612f07565b60405180910390fd5b8073ffffffffffffffffffffffffffffffffffffffff16600f60009054906101000a900473ffffffffffffffffffffffffffffffffffffffff1673ffffffffffffffffffffffffffffffffffffffff167fa64373a629bc0c09eacf8a9cc2c7b070fa0a8b7e2e9b8aaee408a3c02eb1676b60405160405180910390a380600f60006101000a81548173ffffffffffffffffffffffffffffffffffffffff021916908373ffffffffffffffffffffffffffffffffffffffff160217905550600160056000600f60009054906101000a900473ffffffffffffffffffffffffffffffffffffffff1673ffffffffffffffffffffffffffffffffffffffff1673ffffffffffffffffffffffffffffffffffffffff16815260200190815260200160002060006101000a81548160ff02191690831515021790555050565b60008060009054906101000a900473ffffffffffffffffffffffffffffffffffffffff16905090565b60606040518060400160405280600381526020017f5753500000000000000000000000000000000000000000000000000000000000815250905090565b610cd46116fc565b73ffffffffffffffffffffffffffffffffffffffff16610cf2610c66565b73ffffffffffffffffffffffffffffffffffffffff161480610d685750610d176116fc565b73ffffffffffffffffffffffffffffffffffffffff16600e60009054906101000a900473ffffffffffffffffffffffffffffffffffffffff1673ffffffffffffffffffffffffffffffffffffffff16145b610da7576040517f08c379a0000000000000000000000000000000000000000000000000000000008152600401610d9e90612f07565b60405180910390fd5b600b8410610dea576040517f08c379a0000000000000000000000000000000000000000000000000000000008152600401610de190612fdf565b60405180910390fd5b600b8310610e2d576040517f08c379a0000000000000000000000000000000000000000000000000000000008152600401610e2490612fdf565b60405180910390fd5b60078210610e70576040517f08c379a0000000000000000000000000000000000000000000000000000000008152600401610e679061304b565b60405180910390fd5b60078110610eb3576040517f08c379a0000000000000000000000000000000000000000000000000000000008152600401610eaa9061304b565b60405180910390fd5b8360088190555082600a819055508160098190555080600b8190555050505050565b6000610ee9610ee26116fc565b84846118cd565b6001905092915050565b610efb6116fc565b73ffffffffffffffffffffffffffffffffffffffff16610f19610c66565b73ffffffffffffffffffffffffffffffffffffffff161480610f8f5750610f3e6116fc565b73ffffffffffffffffffffffffffffffffffffffff16600e60009054906101000a900473ffffffffffffffffffffffffffffffffffffffff1673ffffffffffffffffffffffffffffffffffffffff16145b610fce576040517f08c379a0000000000000000000000000000000000000000000000000000000008152600401610fc590612f07565b60405180910390fd5b8073ffffffffffffffffffffffffffffffffffffffff16600e60009054906101000a900473ffffffffffffffffffffffffffffffffffffffff1673ffffffffffffffffffffffffffffffffffffffff167ffbbc329437e8c79f847e170730ad6dd04106b7511cad70d06d635886d92de83c60405160405180910390a380600e60006101000a81548173ffffffffffffffffffffffffffffffffffffffff021916908373ffffffffffffffffffffffffffffffffffffffff160217905550600160056000600e60009054906101000a900473ffffffffffffffffffffffffffffffffffffffff1673ffffffffffffffffffffffffffffffffffffffff1673ffffffffffffffffffffffffffffffffffffffff16815260200190815260200160002060006101000a81548160ff02191690831515021790555050565b600e60009054906101000a900473ffffffffffffffffffffffffffffffffffffffff1673ffffffffffffffffffffffffffffffffffffffff166111496116fc565b73ffffffffffffffffffffffffffffffffffffffff1614806111bf5750600f60009054906101000a900473ffffffffffffffffffffffffffffffffffffffff1673ffffffffffffffffffffffffffffffffffffffff166111a76116fc565b73ffffffffffffffffffffffffffffffffffffffff16145b8061120357506111cd610c66565b73ffffffffffffffffffffffffffffffffffffffff166111eb6116fc565b73ffffffffffffffffffffffffffffffffffffffff16145b61120c57600080fd5b6000611217306108ad565b90506112228161200c565b50565b61122d6116fc565b73ffffffffffffffffffffffffffffffffffffffff1660008054906101000a900473ffffffffffffffffffffffffffffffffffffffff1673ffffffffffffffffffffffffffffffffffffffff16146112ba576040517f08c379a00000000000000000000000000000000000000000000000000000000081526004016112b190612f73565b60405180910390fd5b60005b838390508110156113595781600560008686858181106112e0576112df61306b565b5b90506020020160208101906112f59190612cb7565b73ffffffffffffffffffffffffffffffffffffffff1673ffffffffffffffffffffffffffffffffffffffff16815260200190815260200160002060006101000a81548160ff0219169083151502179055508080611351906130c9565b9150506112bd565b50505050565b6000600460008473ffffffffffffffffffffffffffffffffffffffff1673ffffffffffffffffffffffffffffffffffffffff16815260200190815260200160002060008373ffffffffffffffffffffffffffffffffffffffff1673ffffffffffffffffffffffffffffffffffffffff16815260200190815260200160002054905092915050565b6113ee6116fc565b73ffffffffffffffffffffffffffffffffffffffff1661140c610c66565b73ffffffffffffffffffffffffffffffffffffffff16148061148257506114316116fc565b73ffffffffffffffffffffffffffffffffffffffff16600e60009054906101000a900473ffffffffffffffffffffffffffffffffffffffff1673ffffffffffffffffffffffffffffffffffffffff16145b6114c1576040517f08c379a00000000000000000000000000000000000000000000000000000000081526004016114b890612f07565b60405180910390fd5b8173ffffffffffffffffffffffffffffffffffffffff168373ffffffffffffffffffffffffffffffffffffffff167f47c33aa230eb5fd181505aa7befeaddd9b8a6f983989cea73a7868448c3a9ed98360405161151e9190612b8f565b60405180910390a38273ffffffffffffffffffffffffffffffffffffffff1663a9059cbb83836040518363ffffffff1660e01b8152600401611561929190613111565b6020604051808303816000875af1158015611580573d6000803e3d6000fd5b505050506040513d601f19601f820116820180604052508101906115a4919061314f565b50505050565b6115b26116fc565b73ffffffffffffffffffffffffffffffffffffffff1660008054906101000a900473ffffffffffffffffffffffffffffffffffffffff1673ffffffffffffffffffffffffffffffffffffffff161461163f576040517f08c379a000000000000000000000000000000000000000000000000000000000815260040161163690612f73565b60405180910390fd5b8073ffffffffffffffffffffffffffffffffffffffff1660008054906101000a900473ffffffffffffffffffffffffffffffffffffffff1673ffffffffffffffffffffffffffffffffffffffff167f8be0079c531659141344cd1fd0a4f28419497f9722a3daafe3b4186f6b6457e060405160405180910390a3806000806101000a81548173ffffffffffffffffffffffffffffffffffffffff021916908373ffffffffffffffffffffffffffffffffffffffff16021790555050565b600033905090565b600073ffffffffffffffffffffffffffffffffffffffff168373ffffffffffffffffffffffffffffffffffffffff1603611773576040517f08c379a000000000000000000000000000000000000000000000000000000000815260040161176a906131ee565b60405180910390fd5b600073ffffffffffffffffffffffffffffffffffffffff168273ffffffffffffffffffffffffffffffffffffffff16036117e2576040517f08c379a00000000000000000000000000000000000000000000000000000000081526004016117d990613280565b60405180910390fd5b80600460008573ffffffffffffffffffffffffffffffffffffffff1673ffffffffffffffffffffffffffffffffffffffff16815260200190815260200160002060008473ffffffffffffffffffffffffffffffffffffffff1673ffffffffffffffffffffffffffffffffffffffff168152602001908152602001600020819055508173ffffffffffffffffffffffffffffffffffffffff168373ffffffffffffffffffffffffffffffffffffffff167f8c5be1e5ebec7d5bd14f71427d1e84f3dd0314c0f7b2291e5b200ac8c7c3b925836040516118c09190612b8f565b60405180910390a3505050565b600073ffffffffffffffffffffffffffffffffffffffff168373ffffffffffffffffffffffffffffffffffffffff160361193c576040517f08c379a000000000000000000000000000000000000000000000000000000000815260040161193390613312565b60405180910390fd5b600073ffffffffffffffffffffffffffffffffffffffff168273ffffffffffffffffffffffffffffffffffffffff16036119ab576040517f08c379a00000000000000000000000000000000000000000000000000000000081526004016119a2906133a4565b60405180910390fd5b600081116119ee576040517f08c379a00000000000000000000000000000000000000000000000000000000081526004016119e590613436565b60405180910390fd5b6000600c819055506000600d81905550611a06610c66565b73ffffffffffffffffffffffffffffffffffffffff168373ffffffffffffffffffffffffffffffffffffffff1614158015611a745750611a44610c66565b73ffffffffffffffffffffffffffffffffffffffff168273ffffffffffffffffffffffffffffffffffffffff1614155b15611e2f576000611a84306108ad565b9050601160149054906101000a900460ff16158015611af15750601160009054906101000a900473ffffffffffffffffffffffffffffffffffffffff1673ffffffffffffffffffffffffffffffffffffffff168473ffffffffffffffffffffffffffffffffffffffff1614155b8015611b095750601160159054906101000a900460ff165b8015611b155750600081115b15611b3d57611b238161200c565b60004790506000811115611b3b57611b3a47611ea3565b5b505b601160009054906101000a900473ffffffffffffffffffffffffffffffffffffffff1673ffffffffffffffffffffffffffffffffffffffff168473ffffffffffffffffffffffffffffffffffffffff16148015611be85750601060009054906101000a900473ffffffffffffffffffffffffffffffffffffffff1673ffffffffffffffffffffffffffffffffffffffff168373ffffffffffffffffffffffffffffffffffffffff1614155b15611c0057600854600c81905550600954600d819055505b601160009054906101000a900473ffffffffffffffffffffffffffffffffffffffff1673ffffffffffffffffffffffffffffffffffffffff168373ffffffffffffffffffffffffffffffffffffffff16148015611cab5750601060009054906101000a900473ffffffffffffffffffffffffffffffffffffffff1673ffffffffffffffffffffffffffffffffffffffff168473ffffffffffffffffffffffffffffffffffffffff1614155b15611cc357600a54600c81905550600b54600d819055505b600560008573ffffffffffffffffffffffffffffffffffffffff1673ffffffffffffffffffffffffffffffffffffffff16815260200190815260200160002060009054906101000a900460ff1680611d645750600560008473ffffffffffffffffffffffffffffffffffffffff1673ffffffffffffffffffffffffffffffffffffffff16815260200190815260200160002060009054906101000a900460ff165b80611e175750601160009054906101000a900473ffffffffffffffffffffffffffffffffffffffff1673ffffffffffffffffffffffffffffffffffffffff168473ffffffffffffffffffffffffffffffffffffffff1614158015611e165750601160009054906101000a900473ffffffffffffffffffffffffffffffffffffffff1673ffffffffffffffffffffffffffffffffffffffff168373ffffffffffffffffffffffffffffffffffffffff1614155b5b15611e2d576000600c819055506000600d819055505b505b611e3a838383612285565b505050565b6000838311158290611e87576040517f08c379a0000000000000000000000000000000000000000000000000000000008152600401611e7e91906129d0565b60405180910390fd5b5060008385611e969190613456565b9050809150509392505050565b600e60009054906101000a900473ffffffffffffffffffffffffffffffffffffffff1673ffffffffffffffffffffffffffffffffffffffff166108fc611ef360028461229590919063ffffffff16565b9081150290604051600060405180830381858888f19350505050158015611f1e573d6000803e3d6000fd5b50600f60009054906101000a900473ffffffffffffffffffffffffffffffffffffffff1673ffffffffffffffffffffffffffffffffffffffff166108fc611f6f60028461229590919063ffffffff16565b9081150290604051600060405180830381858888f19350505050158015611f9a573d6000803e3d6000fd5b5050565b6000600654821115611fe5576040517f08c379a0000000000000000000000000000000000000000000000000000000008152600401611fdc906134fc565b60405180910390fd5b6000611fef6122df565b9050612004818461229590919063ffffffff16565b915050919050565b6001601160146101000a81548160ff0219169083151502179055506000600267ffffffffffffffff8111156120445761204361351c565b5b6040519080825280602002602001820160405280156120725781602001602082028036833780820191505090505b509050308160008151811061208a5761208961306b565b5b602002602001019073ffffffffffffffffffffffffffffffffffffffff16908173ffffffffffffffffffffffffffffffffffffffff1681525050601060009054906101000a900473ffffffffffffffffffffffffffffffffffffffff1673ffffffffffffffffffffffffffffffffffffffff1663ad5c46486040518163ffffffff1660e01b8152600401602060405180830381865afa158015612131573d6000803e3d6000fd5b505050506040513d601f19601f820116820180604052508101906121559190613560565b816001815181106121695761216861306b565b5b602002602001019073ffffffffffffffffffffffffffffffffffffffff16908173ffffffffffffffffffffffffffffffffffffffff16815250506121d030601060009054906101000a900473ffffffffffffffffffffffffffffffffffffffff1684611704565b601060009054906101000a900473ffffffffffffffffffffffffffffffffffffffff1673ffffffffffffffffffffffffffffffffffffffff1663791ac9478360008430426040518663ffffffff1660e01b8152600401612234959493929190613686565b600060405180830381600087803b15801561224e57600080fd5b505af1158015612262573d6000803e3d6000fd5b50505050506000601160146101000a81548160ff02191690831515021790555050565b61229083838361230a565b505050565b60006122d783836040518060400160405280601a81526020017f536166654d6174683a206469766973696f6e206279207a65726f0000000000008152506124d5565b905092915050565b60008060006122ec612538565b91509150612303818361229590919063ffffffff16565b9250505090565b60008060008060008061231c87612597565b95509550955095509550955061237a86600260008c73ffffffffffffffffffffffffffffffffffffffff1673ffffffffffffffffffffffffffffffffffffffff168152602001908152602001600020546125ff90919063ffffffff16565b600260008b73ffffffffffffffffffffffffffffffffffffffff1673ffffffffffffffffffffffffffffffffffffffff1681526020019081526020016000208190555061240f85600260008b73ffffffffffffffffffffffffffffffffffffffff1673ffffffffffffffffffffffffffffffffffffffff1681526020019081526020016000205461264990919063ffffffff16565b600260008a73ffffffffffffffffffffffffffffffffffffffff1673ffffffffffffffffffffffffffffffffffffffff1681526020019081526020016000208190555061245b816126a7565b6124658483612764565b8773ffffffffffffffffffffffffffffffffffffffff168973ffffffffffffffffffffffffffffffffffffffff167fddf252ad1be2c89b69c2b068fc378daa952ba7f163c4a11628f55a4df523b3ef856040516124c29190612b8f565b60405180910390a3505050505050505050565b6000808311829061251c576040517f08c379a000000000000000000000000000000000000000000000000000000000815260040161251391906129d0565b60405180910390fd5b506000838561252b919061370f565b9050809150509392505050565b600080600060065490506000670de0b6b3a7640000905061256c670de0b6b3a764000060065461229590919063ffffffff16565b82101561258a57600654670de0b6b3a7640000935093505050612593565b81819350935050505b9091565b60008060008060008060008060006125b48a600c54600d5461279e565b92509250925060006125c46122df565b905060008060006125d78e878787612834565b9250925092508282828989899c509c509c509c509c509c505050505050505091939550919395565b600061264183836040518060400160405280601e81526020017f536166654d6174683a207375627472616374696f6e206f766572666c6f770000815250611e3f565b905092915050565b60008082846126589190613740565b90508381101561269d576040517f08c379a0000000000000000000000000000000000000000000000000000000008152600401612694906137e2565b60405180910390fd5b8091505092915050565b60006126b16122df565b905060006126c882846128bd90919063ffffffff16565b905061271c81600260003073ffffffffffffffffffffffffffffffffffffffff1673ffffffffffffffffffffffffffffffffffffffff1681526020019081526020016000205461264990919063ffffffff16565b600260003073ffffffffffffffffffffffffffffffffffffffff1673ffffffffffffffffffffffffffffffffffffffff16815260200190815260200160002081905550505050565b612779826006546125ff90919063ffffffff16565b6006819055506127948160075461264990919063ffffffff16565b6007819055505050565b6000806000806127ca60646127bc888a6128bd90919063ffffffff16565b61229590919063ffffffff16565b905060006127f460646127e6888b6128bd90919063ffffffff16565b61229590919063ffffffff16565b9050600061281d8261280f858c6125ff90919063ffffffff16565b6125ff90919063ffffffff16565b905080838395509550955050505093509350939050565b60008060008061284d85896128bd90919063ffffffff16565b9050600061286486896128bd90919063ffffffff16565b9050600061287b87896128bd90919063ffffffff16565b905060006128a48261289685876125ff90919063ffffffff16565b6125ff90919063ffffffff16565b9050838184965096509650505050509450945094915050565b60008083036128cf5760009050612931565b600082846128dd9190613802565b90508284826128ec919061370f565b1461292c576040517f08c379a0000000000000000000000000000000000000000000000000000000008152600401612923906138ce565b60405180910390fd5b809150505b92915050565b600081519050919050565b600082825260208201905092915050565b60005b83811015612971578082015181840152602081019050612956565b83811115612980576000848401525b50505050565b6000601f19601f8301169050919050565b60006129a282612937565b6129ac8185612942565b93506129bc818560208601612953565b6129c581612986565b840191505092915050565b600060208201905081810360008301526129ea8184612997565b905092915050565b600080fd5b600080fd5b600073ffffffffffffffffffffffffffffffffffffffff82169050919050565b6000612a27826129fc565b9050919050565b612a3781612a1c565b8114612a4257600080fd5b50565b600081359050612a5481612a2e565b92915050565b6000819050919050565b612a6d81612a5a565b8114612a7857600080fd5b50565b600081359050612a8a81612a64565b92915050565b60008060408385031215612aa757612aa66129f2565b5b6000612ab585828601612a45565b9250506020612ac685828601612a7b565b9150509250929050565b60008115159050919050565b612ae581612ad0565b82525050565b6000602082019050612b006000830184612adc565b92915050565b6000819050919050565b6000612b2b612b26612b21846129fc565b612b06565b6129fc565b9050919050565b6000612b3d82612b10565b9050919050565b6000612b4f82612b32565b9050919050565b612b5f81612b44565b82525050565b6000602082019050612b7a6000830184612b56565b92915050565b612b8981612a5a565b82525050565b6000602082019050612ba46000830184612b80565b92915050565b600080600060608486031215612bc357612bc26129f2565b5b6000612bd186828701612a45565b9350506020612be286828701612a45565b9250506040612bf386828701612a7b565b9150509250925092565b600060ff82169050919050565b612c1381612bfd565b82525050565b6000602082019050612c2e6000830184612c0a565b92915050565b612c3d81612a1c565b82525050565b6000602082019050612c586000830184612c34565b92915050565b612c6781612ad0565b8114612c7257600080fd5b50565b600081359050612c8481612c5e565b92915050565b600060208284031215612ca057612c9f6129f2565b5b6000612cae84828501612c75565b91505092915050565b600060208284031215612ccd57612ccc6129f2565b5b6000612cdb84828501612a45565b91505092915050565b6000612cef826129fc565b9050919050565b612cff81612ce4565b8114612d0a57600080fd5b50565b600081359050612d1c81612cf6565b92915050565b600060208284031215612d3857612d376129f2565b5b6000612d4684828501612d0d565b91505092915050565b60008060008060808587031215612d6957612d686129f2565b5b6000612d7787828801612a7b565b9450506020612d8887828801612a7b565b9350506040612d9987828801612a7b565b9250506060612daa87828801612a7b565b91505092959194509250565b600080fd5b600080fd5b600080fd5b60008083601f840112612ddb57612dda612db6565b5b8235905067ffffffffffffffff811115612df857612df7612dbb565b5b602083019150836020820283011115612e1457612e13612dc0565b5b9250929050565b600080600060408486031215612e3457612e336129f2565b5b600084013567ffffffffffffffff811115612e5257612e516129f7565b5b612e5e86828701612dc5565b93509350506020612e7186828701612c75565b9150509250925092565b60008060408385031215612e9257612e916129f2565b5b6000612ea085828601612a45565b9250506020612eb185828601612a45565b9150509250929050565b7f43616c6c6572206973206e6f7420746865206465760000000000000000000000600082015250565b6000612ef1601583612942565b9150612efc82612ebb565b602082019050919050565b60006020820190508181036000830152612f2081612ee4565b9050919050565b7f43616c6c6572206973206e6f7420746865206f776e6572000000000000000000600082015250565b6000612f5d601783612942565b9150612f6882612f27565b602082019050919050565b60006020820190508181036000830152612f8c81612f50565b9050919050565b7f52656469732063616e6e6f74206265206d6f7265207468616e2031302e000000600082015250565b6000612fc9601d83612942565b9150612fd482612f93565b602082019050919050565b60006020820190508181036000830152612ff881612fbc565b9050919050565b7f5461782063616e6e6f74206265206d6f7265207468616e20362e000000000000600082015250565b6000613035601a83612942565b915061304082612fff565b602082019050919050565b6000602082019050818103600083015261306481613028565b9050919050565b7f4e487b7100000000000000000000000000000000000000000000000000000000600052603260045260246000fd5b7f4e487b7100000000000000000000000000000000000000000000000000000000600052601160045260246000fd5b60006130d482612a5a565b91507fffffffffffffffffffffffffffffffffffffffffffffffffffffffffffffffff82036131065761310561309a565b5b600182019050919050565b60006040820190506131266000830185612c34565b6131336020830184612b80565b9392505050565b60008151905061314981612c5e565b92915050565b600060208284031215613165576131646129f2565b5b60006131738482850161313a565b91505092915050565b7f45524332303a20617070726f76652066726f6d20746865207a65726f2061646460008201527f7265737300000000000000000000000000000000000000000000000000000000602082015250565b60006131d8602483612942565b91506131e38261317c565b604082019050919050565b60006020820190508181036000830152613207816131cb565b9050919050565b7f45524332303a20617070726f766520746f20746865207a65726f20616464726560008201527f7373000000000000000000000000000000000000000000000000000000000000602082015250565b600061326a602283612942565b91506132758261320e565b604082019050919050565b600060208201905081810360008301526132998161325d565b9050919050565b7f45524332303a207472616e736665722066726f6d20746865207a65726f20616460008201527f6472657373000000000000000000000000000000000000000000000000000000602082015250565b60006132fc602583612942565b9150613307826132a0565b604082019050919050565b6000602082019050818103600083015261332b816132ef565b9050919050565b7f45524332303a207472616e7366657220746f20746865207a65726f206164647260008201527f6573730000000000000000000000000000000000000000000000000000000000602082015250565b600061338e602383612942565b915061339982613332565b604082019050919050565b600060208201905081810360008301526133bd81613381565b9050919050565b7f5472616e7366657220616d6f756e74206d75737420626520677265617465722060008201527f7468616e207a65726f0000000000000000000000000000000000000000000000602082015250565b6000613420602983612942565b915061342b826133c4565b604082019050919050565b6000602082019050818103600083015261344f81613413565b9050919050565b600061346182612a5a565b915061346c83612a5a565b92508282101561347f5761347e61309a565b5b828203905092915050565b7f416d6f756e74206d757374206265206c657373207468616e20746f74616c207260008201527f65666c656374696f6e7300000000000000000000000000000000000000000000602082015250565b60006134e6602a83612942565b91506134f18261348a565b604082019050919050565b60006020820190508181036000830152613515816134d9565b9050919050565b7f4e487b7100000000000000000000000000000000000000000000000000000000600052604160045260246000fd5b60008151905061355a81612a2e565b92915050565b600060208284031215613576576135756129f2565b5b60006135848482850161354b565b91505092915050565b6000819050919050565b60006135b26135ad6135a88461358d565b612b06565b612a5a565b9050919050565b6135c281613597565b82525050565b600081519050919050565b600082825260208201905092915050565b6000819050602082019050919050565b6135fd81612a1c565b82525050565b600061360f83836135f4565b60208301905092915050565b6000602082019050919050565b6000613633826135c8565b61363d81856135d3565b9350613648836135e4565b8060005b838110156136795781516136608882613603565b975061366b8361361b565b92505060018101905061364c565b5085935050505092915050565b600060a08201905061369b6000830188612b80565b6136a860208301876135b9565b81810360408301526136ba8186613628565b90506136c96060830185612c34565b6136d66080830184612b80565b9695505050505050565b7f4e487b7100000000000000000000000000000000000000000000000000000000600052601260045260246000fd5b600061371a82612a5a565b915061372583612a5a565b925082613735576137346136e0565b5b828204905092915050565b600061374b82612a5a565b915061375683612a5a565b9250827fffffffffffffffffffffffffffffffffffffffffffffffffffffffffffffffff0382111561378b5761378a61309a565b5b828201905092915050565b7f536166654d6174683a206164646974696f6e206f766572666c6f770000000000600082015250565b60006137cc601b83612942565b91506137d782613796565b602082019050919050565b600060208201905081810360008301526137fb816137bf565b9050919050565b600061380d82612a5a565b915061381883612a5a565b9250817fffffffffffffffffffffffffffffffffffffffffffffffffffffffffffffffff04831182151516156138515761385061309a565b5b828202905092915050565b7f536166654d6174683a206d756c7469706c69636174696f6e206f766572666c6f60008201527f7700000000000000000000000000000000000000000000000000000000000000602082015250565b60006138b8602183612942565b91506138c38261385c565b604082019050919050565b600060208201905081810360008301526138e7816138ab565b905091905056fe45524332303a207472616e7366657220616d6f756e74206578636565647320616c6c6f77616e6365a2646970667358221220fdd218468bc320efc82a9bf1dd601753f80a0410349d8d18dda426306c36abbc64736f6c634300080d0033",
					"opcodes": "PUSH1 0x80 PUSH1 0x40 MSTORE PUSH8 0xDE0B6B3A7640000 PUSH5 0x14F46B0400 PUSH3 0x1F SWAP2 SWAP1 PUSH3 0x6DD JUMP JUMPDEST PUSH5 0x14F46B0400 PUSH3 0x31 SWAP2 SWAP1 PUSH3 0x744 JUMP JUMPDEST PUSH1 0x6 SSTORE PUSH1 0x1 PUSH1 0x8 SSTORE PUSH1 0x4 PUSH1 0x9 SSTORE PUSH1 0x1 PUSH1 0xA SSTORE PUSH1 0x1 PUSH1 0xB SSTORE PUSH20 0x8492CBD894686D7E98214541903C7BA6F94928D6 PUSH1 0xE PUSH1 0x0 PUSH2 0x100 EXP DUP2 SLOAD DUP2 PUSH20 0xFFFFFFFFFFFFFFFFFFFFFFFFFFFFFFFFFFFFFFFF MUL NOT AND SWAP1 DUP4 PUSH20 0xFFFFFFFFFFFFFFFFFFFFFFFFFFFFFFFFFFFFFFFF AND MUL OR SWAP1 SSTORE POP PUSH20 0xA4ED7AA4EF5DEB0A63E97D9CB77445AE553FEB1D PUSH1 0xF PUSH1 0x0 PUSH2 0x100 EXP DUP2 SLOAD DUP2 PUSH20 0xFFFFFFFFFFFFFFFFFFFFFFFFFFFFFFFFFFFFFFFF MUL NOT AND SWAP1 DUP4 PUSH20 0xFFFFFFFFFFFFFFFFFFFFFFFFFFFFFFFFFFFFFFFF AND MUL OR SWAP1 SSTORE POP PUSH1 0x0 PUSH1 0x11 PUSH1 0x14 PUSH2 0x100 EXP DUP2 SLOAD DUP2 PUSH1 0xFF MUL NOT AND SWAP1 DUP4 ISZERO ISZERO MUL OR SWAP1 SSTORE POP PUSH1 0x1 PUSH1 0x11 PUSH1 0x15 PUSH2 0x100 EXP DUP2 SLOAD DUP2 PUSH1 0xFF MUL NOT AND SWAP1 DUP4 ISZERO ISZERO MUL OR SWAP1 SSTORE POP CALLVALUE DUP1 ISZERO PUSH3 0x135 JUMPI PUSH1 0x0 DUP1 REVERT JUMPDEST POP PUSH1 0x0 PUSH3 0x148 PUSH3 0x673 PUSH1 0x20 SHL PUSH1 0x20 SHR JUMP JUMPDEST SWAP1 POP DUP1 PUSH1 0x0 DUP1 PUSH2 0x100 EXP DUP2 SLOAD DUP2 PUSH20 0xFFFFFFFFFFFFFFFFFFFFFFFFFFFFFFFFFFFFFFFF MUL NOT AND SWAP1 DUP4 PUSH20 0xFFFFFFFFFFFFFFFFFFFFFFFFFFFFFFFFFFFFFFFF AND MUL OR SWAP1 SSTORE POP DUP1 PUSH20 0xFFFFFFFFFFFFFFFFFFFFFFFFFFFFFFFFFFFFFFFF AND PUSH1 0x0 PUSH20 0xFFFFFFFFFFFFFFFFFFFFFFFFFFFFFFFFFFFFFFFF AND PUSH32 0x8BE0079C531659141344CD1FD0A4F28419497F9722A3DAAFE3B4186F6B6457E0 PUSH1 0x40 MLOAD PUSH1 0x40 MLOAD DUP1 SWAP2 SUB SWAP1 LOG3 POP PUSH1 0x6 SLOAD PUSH1 0x2 PUSH1 0x0 PUSH3 0x1FD PUSH3 0x673 PUSH1 0x20 SHL PUSH1 0x20 SHR JUMP JUMPDEST PUSH20 0xFFFFFFFFFFFFFFFFFFFFFFFFFFFFFFFFFFFFFFFF AND PUSH20 0xFFFFFFFFFFFFFFFFFFFFFFFFFFFFFFFFFFFFFFFF AND DUP2 MSTORE PUSH1 0x20 ADD SWAP1 DUP2 MSTORE PUSH1 0x20 ADD PUSH1 0x0 KECCAK256 DUP2 SWAP1 SSTORE POP PUSH1 0x0 PUSH20 0x10ED43C718714EB63D5AA57B78B54704E256024E SWAP1 POP DUP1 PUSH1 0x10 PUSH1 0x0 PUSH2 0x100 EXP DUP2 SLOAD DUP2 PUSH20 0xFFFFFFFFFFFFFFFFFFFFFFFFFFFFFFFFFFFFFFFF MUL NOT AND SWAP1 DUP4 PUSH20 0xFFFFFFFFFFFFFFFFFFFFFFFFFFFFFFFFFFFFFFFF AND MUL OR SWAP1 SSTORE POP DUP1 PUSH20 0xFFFFFFFFFFFFFFFFFFFFFFFFFFFFFFFFFFFFFFFF AND PUSH4 0xC45A0155 PUSH1 0x40 MLOAD DUP2 PUSH4 0xFFFFFFFF AND PUSH1 0xE0 SHL DUP2 MSTORE PUSH1 0x4 ADD PUSH1 0x20 PUSH1 0x40 MLOAD DUP1 DUP4 SUB DUP2 DUP7 GAS STATICCALL ISZERO DUP1 ISZERO PUSH3 0x2E1 JUMPI RETURNDATASIZE PUSH1 0x0 DUP1 RETURNDATACOPY RETURNDATASIZE PUSH1 0x0 REVERT JUMPDEST POP POP POP POP PUSH1 0x40 MLOAD RETURNDATASIZE PUSH1 0x1F NOT PUSH1 0x1F DUP3 ADD AND DUP3 ADD DUP1 PUSH1 0x40 MSTORE POP DUP2 ADD SWAP1 PUSH3 0x307 SWAP2 SWAP1 PUSH3 0x7E9 JUMP JUMPDEST PUSH20 0xFFFFFFFFFFFFFFFFFFFFFFFFFFFFFFFFFFFFFFFF AND PUSH4 0xC9C65396 ADDRESS DUP4 PUSH20 0xFFFFFFFFFFFFFFFFFFFFFFFFFFFFFFFFFFFFFFFF AND PUSH4 0xAD5C4648 PUSH1 0x40 MLOAD DUP2 PUSH4 0xFFFFFFFF AND PUSH1 0xE0 SHL DUP2 MSTORE PUSH1 0x4 ADD PUSH1 0x20 PUSH1 0x40 MLOAD DUP1 DUP4 SUB DUP2 DUP7 GAS STATICCALL ISZERO DUP1 ISZERO PUSH3 0x36F JUMPI RETURNDATASIZE PUSH1 0x0 DUP1 RETURNDATACOPY RETURNDATASIZE PUSH1 0x0 REVERT JUMPDEST POP POP POP POP PUSH1 0x40 MLOAD RETURNDATASIZE PUSH1 0x1F NOT PUSH1 0x1F DUP3 ADD AND DUP3 ADD DUP1 PUSH1 0x40 MSTORE POP DUP2 ADD SWAP1 PUSH3 0x395 SWAP2 SWAP1 PUSH3 0x7E9 JUMP JUMPDEST PUSH1 0x40 MLOAD DUP4 PUSH4 0xFFFFFFFF AND PUSH1 0xE0 SHL DUP2 MSTORE PUSH1 0x4 ADD PUSH3 0x3B4 SWAP3 SWAP2 SWAP1 PUSH3 0x82C JUMP JUMPDEST PUSH1 0x20 PUSH1 0x40 MLOAD DUP1 DUP4 SUB DUP2 PUSH1 0x0 DUP8 GAS CALL ISZERO DUP1 ISZERO PUSH3 0x3D4 JUMPI RETURNDATASIZE PUSH1 0x0 DUP1 RETURNDATACOPY RETURNDATASIZE PUSH1 0x0 REVERT JUMPDEST POP POP POP POP PUSH1 0x40 MLOAD RETURNDATASIZE PUSH1 0x1F NOT PUSH1 0x1F DUP3 ADD AND DUP3 ADD DUP1 PUSH1 0x40 MSTORE POP DUP2 ADD SWAP1 PUSH3 0x3FA SWAP2 SWAP1 PUSH3 0x7E9 JUMP JUMPDEST PUSH1 0x11 PUSH1 0x0 PUSH2 0x100 EXP DUP2 SLOAD DUP2 PUSH20 0xFFFFFFFFFFFFFFFFFFFFFFFFFFFFFFFFFFFFFFFF MUL NOT AND SWAP1 DUP4 PUSH20 0xFFFFFFFFFFFFFFFFFFFFFFFFFFFFFFFFFFFFFFFF AND MUL OR SWAP1 SSTORE POP PUSH1 0x1 PUSH1 0x5 PUSH1 0x0 PUSH3 0x450 PUSH3 0x67B PUSH1 0x20 SHL PUSH1 0x20 SHR JUMP JUMPDEST PUSH20 0xFFFFFFFFFFFFFFFFFFFFFFFFFFFFFFFFFFFFFFFF AND PUSH20 0xFFFFFFFFFFFFFFFFFFFFFFFFFFFFFFFFFFFFFFFF AND DUP2 MSTORE PUSH1 0x20 ADD SWAP1 DUP2 MSTORE PUSH1 0x20 ADD PUSH1 0x0 KECCAK256 PUSH1 0x0 PUSH2 0x100 EXP DUP2 SLOAD DUP2 PUSH1 0xFF MUL NOT AND SWAP1 DUP4 ISZERO ISZERO MUL OR SWAP1 SSTORE POP PUSH1 0x1 PUSH1 0x5 PUSH1 0x0 ADDRESS PUSH20 0xFFFFFFFFFFFFFFFFFFFFFFFFFFFFFFFFFFFFFFFF AND PUSH20 0xFFFFFFFFFFFFFFFFFFFFFFFFFFFFFFFFFFFFFFFF AND DUP2 MSTORE PUSH1 0x20 ADD SWAP1 DUP2 MSTORE PUSH1 0x20 ADD PUSH1 0x0 KECCAK256 PUSH1 0x0 PUSH2 0x100 EXP DUP2 SLOAD DUP2 PUSH1 0xFF MUL NOT AND SWAP1 DUP4 ISZERO ISZERO MUL OR SWAP1 SSTORE POP PUSH1 0x1 PUSH1 0x5 PUSH1 0x0 PUSH1 0xE PUSH1 0x0 SWAP1 SLOAD SWAP1 PUSH2 0x100 EXP SWAP1 DIV PUSH20 0xFFFFFFFFFFFFFFFFFFFFFFFFFFFFFFFFFFFFFFFF AND PUSH20 0xFFFFFFFFFFFFFFFFFFFFFFFFFFFFFFFFFFFFFFFF AND PUSH20 0xFFFFFFFFFFFFFFFFFFFFFFFFFFFFFFFFFFFFFFFF AND DUP2 MSTORE PUSH1 0x20 ADD SWAP1 DUP2 MSTORE PUSH1 0x20 ADD PUSH1 0x0 KECCAK256 PUSH1 0x0 PUSH2 0x100 EXP DUP2 SLOAD DUP2 PUSH1 0xFF MUL NOT AND SWAP1 DUP4 ISZERO ISZERO MUL OR SWAP1 SSTORE POP PUSH1 0x1 PUSH1 0x5 PUSH1 0x0 PUSH1 0xF PUSH1 0x0 SWAP1 SLOAD SWAP1 PUSH2 0x100 EXP SWAP1 DIV PUSH20 0xFFFFFFFFFFFFFFFFFFFFFFFFFFFFFFFFFFFFFFFF AND PUSH20 0xFFFFFFFFFFFFFFFFFFFFFFFFFFFFFFFFFFFFFFFF AND PUSH20 0xFFFFFFFFFFFFFFFFFFFFFFFFFFFFFFFFFFFFFFFF AND DUP2 MSTORE PUSH1 0x20 ADD SWAP1 DUP2 MSTORE PUSH1 0x20 ADD PUSH1 0x0 KECCAK256 PUSH1 0x0 PUSH2 0x100 EXP DUP2 SLOAD DUP2 PUSH1 0xFF MUL NOT AND SWAP1 DUP4 ISZERO ISZERO MUL OR SWAP1 SSTORE POP PUSH3 0x5FD PUSH3 0x673 PUSH1 0x20 SHL PUSH1 0x20 SHR JUMP JUMPDEST PUSH20 0xFFFFFFFFFFFFFFFFFFFFFFFFFFFFFFFFFFFFFFFF AND PUSH1 0x0 PUSH20 0xFFFFFFFFFFFFFFFFFFFFFFFFFFFFFFFFFFFFFFFF AND PUSH32 0xDDF252AD1BE2C89B69C2B068FC378DAA952BA7F163C4A11628F55A4DF523B3EF PUSH8 0xDE0B6B3A7640000 PUSH1 0x40 MLOAD PUSH3 0x664 SWAP2 SWAP1 PUSH3 0x86A JUMP JUMPDEST PUSH1 0x40 MLOAD DUP1 SWAP2 SUB SWAP1 LOG3 POP PUSH3 0x887 JUMP JUMPDEST PUSH1 0x0 CALLER SWAP1 POP SWAP1 JUMP JUMPDEST PUSH1 0x0 DUP1 PUSH1 0x0 SWAP1 SLOAD SWAP1 PUSH2 0x100 EXP SWAP1 DIV PUSH20 0xFFFFFFFFFFFFFFFFFFFFFFFFFFFFFFFFFFFFFFFF AND SWAP1 POP SWAP1 JUMP JUMPDEST PUSH1 0x0 DUP2 SWAP1 POP SWAP2 SWAP1 POP JUMP JUMPDEST PUSH32 0x4E487B7100000000000000000000000000000000000000000000000000000000 PUSH1 0x0 MSTORE PUSH1 0x12 PUSH1 0x4 MSTORE PUSH1 0x24 PUSH1 0x0 REVERT JUMPDEST PUSH1 0x0 PUSH3 0x6EA DUP3 PUSH3 0x6A4 JUMP JUMPDEST SWAP2 POP PUSH3 0x6F7 DUP4 PUSH3 0x6A4 JUMP JUMPDEST SWAP3 POP DUP3 PUSH3 0x70A JUMPI PUSH3 0x709 PUSH3 0x6AE JUMP JUMPDEST JUMPDEST DUP3 DUP3 MOD SWAP1 POP SWAP3 SWAP2 POP POP JUMP JUMPDEST PUSH32 0x4E487B7100000000000000000000000000000000000000000000000000000000 PUSH1 0x0 MSTORE PUSH1 0x11 PUSH1 0x4 MSTORE PUSH1 0x24 PUSH1 0x0 REVERT JUMPDEST PUSH1 0x0 PUSH3 0x751 DUP3 PUSH3 0x6A4 JUMP JUMPDEST SWAP2 POP PUSH3 0x75E DUP4 PUSH3 0x6A4 JUMP JUMPDEST SWAP3 POP DUP3 DUP3 LT ISZERO PUSH3 0x774 JUMPI PUSH3 0x773 PUSH3 0x715 JUMP JUMPDEST JUMPDEST DUP3 DUP3 SUB SWAP1 POP SWAP3 SWAP2 POP POP JUMP JUMPDEST PUSH1 0x0 DUP1 REVERT JUMPDEST PUSH1 0x0 PUSH20 0xFFFFFFFFFFFFFFFFFFFFFFFFFFFFFFFFFFFFFFFF DUP3 AND SWAP1 POP SWAP2 SWAP1 POP JUMP JUMPDEST PUSH1 0x0 PUSH3 0x7B1 DUP3 PUSH3 0x784 JUMP JUMPDEST SWAP1 POP SWAP2 SWAP1 POP JUMP JUMPDEST PUSH3 0x7C3 DUP2 PUSH3 0x7A4 JUMP JUMPDEST DUP2 EQ PUSH3 0x7CF JUMPI PUSH1 0x0 DUP1 REVERT JUMPDEST POP JUMP JUMPDEST PUSH1 0x0 DUP2 MLOAD SWAP1 POP PUSH3 0x7E3 DUP2 PUSH3 0x7B8 JUMP JUMPDEST SWAP3 SWAP2 POP POP JUMP JUMPDEST PUSH1 0x0 PUSH1 0x20 DUP3 DUP5 SUB SLT ISZERO PUSH3 0x802 JUMPI PUSH3 0x801 PUSH3 0x77F JUMP JUMPDEST JUMPDEST PUSH1 0x0 PUSH3 0x812 DUP5 DUP3 DUP6 ADD PUSH3 0x7D2 JUMP JUMPDEST SWAP2 POP POP SWAP3 SWAP2 POP POP JUMP JUMPDEST PUSH3 0x826 DUP2 PUSH3 0x7A4 JUMP JUMPDEST DUP3 MSTORE POP POP JUMP JUMPDEST PUSH1 0x0 PUSH1 0x40 DUP3 ADD SWAP1 POP PUSH3 0x843 PUSH1 0x0 DUP4 ADD DUP6 PUSH3 0x81B JUMP JUMPDEST PUSH3 0x852 PUSH1 0x20 DUP4 ADD DUP5 PUSH3 0x81B JUMP JUMPDEST SWAP4 SWAP3 POP POP POP JUMP JUMPDEST PUSH3 0x864 DUP2 PUSH3 0x6A4 JUMP JUMPDEST DUP3 MSTORE POP POP JUMP JUMPDEST PUSH1 0x0 PUSH1 0x20 DUP3 ADD SWAP1 POP PUSH3 0x881 PUSH1 0x0 DUP4 ADD DUP5 PUSH3 0x859 JUMP JUMPDEST SWAP3 SWAP2 POP POP JUMP JUMPDEST PUSH2 0x394C DUP1 PUSH3 0x897 PUSH1 0x0 CODECOPY PUSH1 0x0 RETURN INVALID PUSH1 0x80 PUSH1 0x40 MSTORE PUSH1 0x4 CALLDATASIZE LT PUSH2 0x139 JUMPI PUSH1 0x0 CALLDATALOAD PUSH1 0xE0 SHR DUP1 PUSH4 0x758DBE03 GT PUSH2 0xAB JUMPI DUP1 PUSH4 0xAAD5C023 GT PUSH2 0x6F JUMPI DUP1 PUSH4 0xAAD5C023 EQ PUSH2 0x40F JUMPI DUP1 PUSH4 0xC3C8CD80 EQ PUSH2 0x438 JUMPI DUP1 PUSH4 0xC492F046 EQ PUSH2 0x44F JUMPI DUP1 PUSH4 0xDD62ED3E EQ PUSH2 0x478 JUMPI DUP1 PUSH4 0xE293D316 EQ PUSH2 0x4B5 JUMPI DUP1 PUSH4 0xF2FDE38B EQ PUSH2 0x4DE JUMPI PUSH2 0x140 JUMP JUMPDEST DUP1 PUSH4 0x758DBE03 EQ PUSH2 0x32A JUMPI DUP1 PUSH4 0x8DA5CB5B EQ PUSH2 0x353 JUMPI DUP1 PUSH4 0x95D89B41 EQ PUSH2 0x37E JUMPI DUP1 PUSH4 0xA2A957BB EQ PUSH2 0x3A9 JUMPI DUP1 PUSH4 0xA9059CBB EQ PUSH2 0x3D2 JUMPI PUSH2 0x140 JUMP JUMPDEST DUP1 PUSH4 0x313CE567 GT PUSH2 0xFD JUMPI DUP1 PUSH4 0x313CE567 EQ PUSH2 0x240 JUMPI DUP1 PUSH4 0x49BD5A5E EQ PUSH2 0x26B JUMPI DUP1 PUSH4 0x6D8AA8F8 EQ PUSH2 0x296 JUMPI DUP1 PUSH4 0x6FC3EAEC EQ PUSH2 0x2BF JUMPI DUP1 PUSH4 0x70A08231 EQ PUSH2 0x2D6 JUMPI DUP1 PUSH4 0x715018A6 EQ PUSH2 0x313 JUMPI PUSH2 0x140 JUMP JUMPDEST DUP1 PUSH4 0x6FDDE03 EQ PUSH2 0x145 JUMPI DUP1 PUSH4 0x95EA7B3 EQ PUSH2 0x170 JUMPI DUP1 PUSH4 0x1694505E EQ PUSH2 0x1AD JUMPI DUP1 PUSH4 0x18160DDD EQ PUSH2 0x1D8 JUMPI DUP1 PUSH4 0x23B872DD EQ PUSH2 0x203 JUMPI PUSH2 0x140 JUMP JUMPDEST CALLDATASIZE PUSH2 0x140 JUMPI STOP JUMPDEST PUSH1 0x0 DUP1 REVERT JUMPDEST CALLVALUE DUP1 ISZERO PUSH2 0x151 JUMPI PUSH1 0x0 DUP1 REVERT JUMPDEST POP PUSH2 0x15A PUSH2 0x507 JUMP JUMPDEST PUSH1 0x40 MLOAD PUSH2 0x167 SWAP2 SWAP1 PUSH2 0x29D0 JUMP JUMPDEST PUSH1 0x40 MLOAD DUP1 SWAP2 SUB SWAP1 RETURN JUMPDEST CALLVALUE DUP1 ISZERO PUSH2 0x17C JUMPI PUSH1 0x0 DUP1 REVERT JUMPDEST POP PUSH2 0x197 PUSH1 0x4 DUP1 CALLDATASIZE SUB DUP2 ADD SWAP1 PUSH2 0x192 SWAP2 SWAP1 PUSH2 0x2A90 JUMP JUMPDEST PUSH2 0x544 JUMP JUMPDEST PUSH1 0x40 MLOAD PUSH2 0x1A4 SWAP2 SWAP1 PUSH2 0x2AEB JUMP JUMPDEST PUSH1 0x40 MLOAD DUP1 SWAP2 SUB SWAP1 RETURN JUMPDEST CALLVALUE DUP1 ISZERO PUSH2 0x1B9 JUMPI PUSH1 0x0 DUP1 REVERT JUMPDEST POP PUSH2 0x1C2 PUSH2 0x562 JUMP JUMPDEST PUSH1 0x40 MLOAD PUSH2 0x1CF SWAP2 SWAP1 PUSH2 0x2B65 JUMP JUMPDEST PUSH1 0x40 MLOAD DUP1 SWAP2 SUB SWAP1 RETURN JUMPDEST CALLVALUE DUP1 ISZERO PUSH2 0x1E4 JUMPI PUSH1 0x0 DUP1 REVERT JUMPDEST POP PUSH2 0x1ED PUSH2 0x588 JUMP JUMPDEST PUSH1 0x40 MLOAD PUSH2 0x1FA SWAP2 SWAP1 PUSH2 0x2B8F JUMP JUMPDEST PUSH1 0x40 MLOAD DUP1 SWAP2 SUB SWAP1 RETURN JUMPDEST CALLVALUE DUP1 ISZERO PUSH2 0x20F JUMPI PUSH1 0x0 DUP1 REVERT JUMPDEST POP PUSH2 0x22A PUSH1 0x4 DUP1 CALLDATASIZE SUB DUP2 ADD SWAP1 PUSH2 0x225 SWAP2 SWAP1 PUSH2 0x2BAA JUMP JUMPDEST PUSH2 0x598 JUMP JUMPDEST PUSH1 0x40 MLOAD PUSH2 0x237 SWAP2 SWAP1 PUSH2 0x2AEB JUMP JUMPDEST PUSH1 0x40 MLOAD DUP1 SWAP2 SUB SWAP1 RETURN JUMPDEST CALLVALUE DUP1 ISZERO PUSH2 0x24C JUMPI PUSH1 0x0 DUP1 REVERT JUMPDEST POP PUSH2 0x255 PUSH2 0x671 JUMP JUMPDEST PUSH1 0x40 MLOAD PUSH2 0x262 SWAP2 SWAP1 PUSH2 0x2C19 JUMP JUMPDEST PUSH1 0x40 MLOAD DUP1 SWAP2 SUB SWAP1 RETURN JUMPDEST CALLVALUE DUP1 ISZERO PUSH2 0x277 JUMPI PUSH1 0x0 DUP1 REVERT JUMPDEST POP PUSH2 0x280 PUSH2 0x67A JUMP JUMPDEST PUSH1 0x40 MLOAD PUSH2 0x28D SWAP2 SWAP1 PUSH2 0x2C43 JUMP JUMPDEST PUSH1 0x40 MLOAD DUP1 SWAP2 SUB SWAP1 RETURN JUMPDEST CALLVALUE DUP1 ISZERO PUSH2 0x2A2 JUMPI PUSH1 0x0 DUP1 REVERT JUMPDEST POP PUSH2 0x2BD PUSH1 0x4 DUP1 CALLDATASIZE SUB DUP2 ADD SWAP1 PUSH2 0x2B8 SWAP2 SWAP1 PUSH2 0x2C8A JUMP JUMPDEST PUSH2 0x6A0 JUMP JUMPDEST STOP JUMPDEST CALLVALUE DUP1 ISZERO PUSH2 0x2CB JUMPI PUSH1 0x0 DUP1 REVERT JUMPDEST POP PUSH2 0x2D4 PUSH2 0x798 JUMP JUMPDEST STOP JUMPDEST CALLVALUE DUP1 ISZERO PUSH2 0x2E2 JUMPI PUSH1 0x0 DUP1 REVERT JUMPDEST POP PUSH2 0x2FD PUSH1 0x4 DUP1 CALLDATASIZE SUB DUP2 ADD SWAP1 PUSH2 0x2F8 SWAP2 SWAP1 PUSH2 0x2CB7 JUMP JUMPDEST PUSH2 0x8AD JUMP JUMPDEST PUSH1 0x40 MLOAD PUSH2 0x30A SWAP2 SWAP1 PUSH2 0x2B8F JUMP JUMPDEST PUSH1 0x40 MLOAD DUP1 SWAP2 SUB SWAP1 RETURN JUMPDEST CALLVALUE DUP1 ISZERO PUSH2 0x31F JUMPI PUSH1 0x0 DUP1 REVERT JUMPDEST POP PUSH2 0x328 PUSH2 0x8FE JUMP JUMPDEST STOP JUMPDEST CALLVALUE DUP1 ISZERO PUSH2 0x336 JUMPI PUSH1 0x0 DUP1 REVERT JUMPDEST POP PUSH2 0x351 PUSH1 0x4 DUP1 CALLDATASIZE SUB DUP2 ADD SWAP1 PUSH2 0x34C SWAP2 SWAP1 PUSH2 0x2D22 JUMP JUMPDEST PUSH2 0xA51 JUMP JUMPDEST STOP JUMPDEST CALLVALUE DUP1 ISZERO PUSH2 0x35F JUMPI PUSH1 0x0 DUP1 REVERT JUMPDEST POP PUSH2 0x368 PUSH2 0xC66 JUMP JUMPDEST PUSH1 0x40 MLOAD PUSH2 0x375 SWAP2 SWAP1 PUSH2 0x2C43 JUMP JUMPDEST PUSH1 0x40 MLOAD DUP1 SWAP2 SUB SWAP1 RETURN JUMPDEST CALLVALUE DUP1 ISZERO PUSH2 0x38A JUMPI PUSH1 0x0 DUP1 REVERT JUMPDEST POP PUSH2 0x393 PUSH2 0xC8F JUMP JUMPDEST PUSH1 0x40 MLOAD PUSH2 0x3A0 SWAP2 SWAP1 PUSH2 0x29D0 JUMP JUMPDEST PUSH1 0x40 MLOAD DUP1 SWAP2 SUB SWAP1 RETURN JUMPDEST CALLVALUE DUP1 ISZERO PUSH2 0x3B5 JUMPI PUSH1 0x0 DUP1 REVERT JUMPDEST POP PUSH2 0x3D0 PUSH1 0x4 DUP1 CALLDATASIZE SUB DUP2 ADD SWAP1 PUSH2 0x3CB SWAP2 SWAP1 PUSH2 0x2D4F JUMP JUMPDEST PUSH2 0xCCC JUMP JUMPDEST STOP JUMPDEST CALLVALUE DUP1 ISZERO PUSH2 0x3DE JUMPI PUSH1 0x0 DUP1 REVERT JUMPDEST POP PUSH2 0x3F9 PUSH1 0x4 DUP1 CALLDATASIZE SUB DUP2 ADD SWAP1 PUSH2 0x3F4 SWAP2 SWAP1 PUSH2 0x2A90 JUMP JUMPDEST PUSH2 0xED5 JUMP JUMPDEST PUSH1 0x40 MLOAD PUSH2 0x406 SWAP2 SWAP1 PUSH2 0x2AEB JUMP JUMPDEST PUSH1 0x40 MLOAD DUP1 SWAP2 SUB SWAP1 RETURN JUMPDEST CALLVALUE DUP1 ISZERO PUSH2 0x41B JUMPI PUSH1 0x0 DUP1 REVERT JUMPDEST POP PUSH2 0x436 PUSH1 0x4 DUP1 CALLDATASIZE SUB DUP2 ADD SWAP1 PUSH2 0x431 SWAP2 SWAP1 PUSH2 0x2D22 JUMP JUMPDEST PUSH2 0xEF3 JUMP JUMPDEST STOP JUMPDEST CALLVALUE DUP1 ISZERO PUSH2 0x444 JUMPI PUSH1 0x0 DUP1 REVERT JUMPDEST POP PUSH2 0x44D PUSH2 0x1108 JUMP JUMPDEST STOP JUMPDEST CALLVALUE DUP1 ISZERO PUSH2 0x45B JUMPI PUSH1 0x0 DUP1 REVERT JUMPDEST POP PUSH2 0x476 PUSH1 0x4 DUP1 CALLDATASIZE SUB DUP2 ADD SWAP1 PUSH2 0x471 SWAP2 SWAP1 PUSH2 0x2E1B JUMP JUMPDEST PUSH2 0x1225 JUMP JUMPDEST STOP JUMPDEST CALLVALUE DUP1 ISZERO PUSH2 0x484 JUMPI PUSH1 0x0 DUP1 REVERT JUMPDEST POP PUSH2 0x49F PUSH1 0x4 DUP1 CALLDATASIZE SUB DUP2 ADD SWAP1 PUSH2 0x49A SWAP2 SWAP1 PUSH2 0x2E7B JUMP JUMPDEST PUSH2 0x135F JUMP JUMPDEST PUSH1 0x40 MLOAD PUSH2 0x4AC SWAP2 SWAP1 PUSH2 0x2B8F JUMP JUMPDEST PUSH1 0x40 MLOAD DUP1 SWAP2 SUB SWAP1 RETURN JUMPDEST CALLVALUE DUP1 ISZERO PUSH2 0x4C1 JUMPI PUSH1 0x0 DUP1 REVERT JUMPDEST POP PUSH2 0x4DC PUSH1 0x4 DUP1 CALLDATASIZE SUB DUP2 ADD SWAP1 PUSH2 0x4D7 SWAP2 SWAP1 PUSH2 0x2BAA JUMP JUMPDEST PUSH2 0x13E6 JUMP JUMPDEST STOP JUMPDEST CALLVALUE DUP1 ISZERO PUSH2 0x4EA JUMPI PUSH1 0x0 DUP1 REVERT JUMPDEST POP PUSH2 0x505 PUSH1 0x4 DUP1 CALLDATASIZE SUB DUP2 ADD SWAP1 PUSH2 0x500 SWAP2 SWAP1 PUSH2 0x2CB7 JUMP JUMPDEST PUSH2 0x15AA JUMP JUMPDEST STOP JUMPDEST PUSH1 0x60 PUSH1 0x40 MLOAD DUP1 PUSH1 0x40 ADD PUSH1 0x40 MSTORE DUP1 PUSH1 0xA DUP2 MSTORE PUSH1 0x20 ADD PUSH32 0x576F726C64205374657000000000000000000000000000000000000000000000 DUP2 MSTORE POP SWAP1 POP SWAP1 JUMP JUMPDEST PUSH1 0x0 PUSH2 0x558 PUSH2 0x551 PUSH2 0x16FC JUMP JUMPDEST DUP5 DUP5 PUSH2 0x1704 JUMP JUMPDEST PUSH1 0x1 SWAP1 POP SWAP3 SWAP2 POP POP JUMP JUMPDEST PUSH1 0x10 PUSH1 0x0 SWAP1 SLOAD SWAP1 PUSH2 0x100 EXP SWAP1 DIV PUSH20 0xFFFFFFFFFFFFFFFFFFFFFFFFFFFFFFFFFFFFFFFF AND DUP2 JUMP JUMPDEST PUSH1 0x0 PUSH8 0xDE0B6B3A7640000 SWAP1 POP SWAP1 JUMP JUMPDEST PUSH1 0x0 PUSH2 0x5A5 DUP5 DUP5 DUP5 PUSH2 0x18CD JUMP JUMPDEST PUSH2 0x666 DUP5 PUSH2 0x5B1 PUSH2 0x16FC JUMP JUMPDEST PUSH2 0x661 DUP6 PUSH1 0x40 MLOAD DUP1 PUSH1 0x60 ADD PUSH1 0x40 MSTORE DUP1 PUSH1 0x28 DUP2 MSTORE PUSH1 0x20 ADD PUSH2 0x38EF PUSH1 0x28 SWAP2 CODECOPY PUSH1 0x4 PUSH1 0x0 DUP12 PUSH20 0xFFFFFFFFFFFFFFFFFFFFFFFFFFFFFFFFFFFFFFFF AND PUSH20 0xFFFFFFFFFFFFFFFFFFFFFFFFFFFFFFFFFFFFFFFF AND DUP2 MSTORE PUSH1 0x20 ADD SWAP1 DUP2 MSTORE PUSH1 0x20 ADD PUSH1 0x0 KECCAK256 PUSH1 0x0 PUSH2 0x617 PUSH2 0x16FC JUMP JUMPDEST PUSH20 0xFFFFFFFFFFFFFFFFFFFFFFFFFFFFFFFFFFFFFFFF AND PUSH20 0xFFFFFFFFFFFFFFFFFFFFFFFFFFFFFFFFFFFFFFFF AND DUP2 MSTORE PUSH1 0x20 ADD SWAP1 DUP2 MSTORE PUSH1 0x20 ADD PUSH1 0x0 KECCAK256 SLOAD PUSH2 0x1E3F SWAP1 SWAP3 SWAP2 SWAP1 PUSH4 0xFFFFFFFF AND JUMP JUMPDEST PUSH2 0x1704 JUMP JUMPDEST PUSH1 0x1 SWAP1 POP SWAP4 SWAP3 POP POP POP JUMP JUMPDEST PUSH1 0x0 PUSH1 0x9 SWAP1 POP SWAP1 JUMP JUMPDEST PUSH1 0x11 PUSH1 0x0 SWAP1 SLOAD SWAP1 PUSH2 0x100 EXP SWAP1 DIV PUSH20 0xFFFFFFFFFFFFFFFFFFFFFFFFFFFFFFFFFFFFFFFF AND DUP2 JUMP JUMPDEST PUSH2 0x6A8 PUSH2 0x16FC JUMP JUMPDEST PUSH20 0xFFFFFFFFFFFFFFFFFFFFFFFFFFFFFFFFFFFFFFFF AND PUSH2 0x6C6 PUSH2 0xC66 JUMP JUMPDEST PUSH20 0xFFFFFFFFFFFFFFFFFFFFFFFFFFFFFFFFFFFFFFFF AND EQ DUP1 PUSH2 0x73C JUMPI POP PUSH2 0x6EB PUSH2 0x16FC JUMP JUMPDEST PUSH20 0xFFFFFFFFFFFFFFFFFFFFFFFFFFFFFFFFFFFFFFFF AND PUSH1 0xE PUSH1 0x0 SWAP1 SLOAD SWAP1 PUSH2 0x100 EXP SWAP1 DIV PUSH20 0xFFFFFFFFFFFFFFFFFFFFFFFFFFFFFFFFFFFFFFFF AND PUSH20 0xFFFFFFFFFFFFFFFFFFFFFFFFFFFFFFFFFFFFFFFF AND EQ JUMPDEST PUSH2 0x77B JUMPI PUSH1 0x40 MLOAD PUSH32 0x8C379A000000000000000000000000000000000000000000000000000000000 DUP2 MSTORE PUSH1 0x4 ADD PUSH2 0x772 SWAP1 PUSH2 0x2F07 JUMP JUMPDEST PUSH1 0x40 MLOAD DUP1 SWAP2 SUB SWAP1 REVERT JUMPDEST DUP1 PUSH1 0x11 PUSH1 0x15 PUSH2 0x100 EXP DUP2 SLOAD DUP2 PUSH1 0xFF MUL NOT AND SWAP1 DUP4 ISZERO ISZERO MUL OR SWAP1 SSTORE POP POP JUMP JUMPDEST PUSH1 0xE PUSH1 0x0 SWAP1 SLOAD SWAP1 PUSH2 0x100 EXP SWAP1 DIV PUSH20 0xFFFFFFFFFFFFFFFFFFFFFFFFFFFFFFFFFFFFFFFF AND PUSH20 0xFFFFFFFFFFFFFFFFFFFFFFFFFFFFFFFFFFFFFFFF AND PUSH2 0x7D9 PUSH2 0x16FC JUMP JUMPDEST PUSH20 0xFFFFFFFFFFFFFFFFFFFFFFFFFFFFFFFFFFFFFFFF AND EQ DUP1 PUSH2 0x84F JUMPI POP PUSH1 0xF PUSH1 0x0 SWAP1 SLOAD SWAP1 PUSH2 0x100 EXP SWAP1 DIV PUSH20 0xFFFFFFFFFFFFFFFFFFFFFFFFFFFFFFFFFFFFFFFF AND PUSH20 0xFFFFFFFFFFFFFFFFFFFFFFFFFFFFFFFFFFFFFFFF AND PUSH2 0x837 PUSH2 0x16FC JUMP JUMPDEST PUSH20 0xFFFFFFFFFFFFFFFFFFFFFFFFFFFFFFFFFFFFFFFF AND EQ JUMPDEST DUP1 PUSH2 0x893 JUMPI POP PUSH2 0x85D PUSH2 0xC66 JUMP JUMPDEST PUSH20 0xFFFFFFFFFFFFFFFFFFFFFFFFFFFFFFFFFFFFFFFF AND PUSH2 0x87B PUSH2 0x16FC JUMP JUMPDEST PUSH20 0xFFFFFFFFFFFFFFFFFFFFFFFFFFFFFFFFFFFFFFFF AND EQ JUMPDEST PUSH2 0x89C JUMPI PUSH1 0x0 DUP1 REVERT JUMPDEST PUSH1 0x0 SELFBALANCE SWAP1 POP PUSH2 0x8AA DUP2 PUSH2 0x1EA3 JUMP JUMPDEST POP JUMP JUMPDEST PUSH1 0x0 PUSH2 0x8F7 PUSH1 0x2 PUSH1 0x0 DUP5 PUSH20 0xFFFFFFFFFFFFFFFFFFFFFFFFFFFFFFFFFFFFFFFF AND PUSH20 0xFFFFFFFFFFFFFFFFFFFFFFFFFFFFFFFFFFFFFFFF AND DUP2 MSTORE PUSH1 0x20 ADD SWAP1 DUP2 MSTORE PUSH1 0x20 ADD PUSH1 0x0 KECCAK256 SLOAD PUSH2 0x1F9E JUMP JUMPDEST SWAP1 POP SWAP2 SWAP1 POP JUMP JUMPDEST PUSH2 0x906 PUSH2 0x16FC JUMP JUMPDEST PUSH20 0xFFFFFFFFFFFFFFFFFFFFFFFFFFFFFFFFFFFFFFFF AND PUSH1 0x0 DUP1 SLOAD SWAP1 PUSH2 0x100 EXP SWAP1 DIV PUSH20 0xFFFFFFFFFFFFFFFFFFFFFFFFFFFFFFFFFFFFFFFF AND PUSH20 0xFFFFFFFFFFFFFFFFFFFFFFFFFFFFFFFFFFFFFFFF AND EQ PUSH2 0x993 JUMPI PUSH1 0x40 MLOAD PUSH32 0x8C379A000000000000000000000000000000000000000000000000000000000 DUP2 MSTORE PUSH1 0x4 ADD PUSH2 0x98A SWAP1 PUSH2 0x2F73 JUMP JUMPDEST PUSH1 0x40 MLOAD DUP1 SWAP2 SUB SWAP1 REVERT JUMPDEST PUSH1 0x0 PUSH20 0xFFFFFFFFFFFFFFFFFFFFFFFFFFFFFFFFFFFFFFFF AND PUSH1 0x0 DUP1 SLOAD SWAP1 PUSH2 0x100 EXP SWAP1 DIV PUSH20 0xFFFFFFFFFFFFFFFFFFFFFFFFFFFFFFFFFFFFFFFF AND PUSH20 0xFFFFFFFFFFFFFFFFFFFFFFFFFFFFFFFFFFFFFFFF AND PUSH32 0x8BE0079C531659141344CD1FD0A4F28419497F9722A3DAAFE3B4186F6B6457E0 PUSH1 0x40 MLOAD PUSH1 0x40 MLOAD DUP1 SWAP2 SUB SWAP1 LOG3 PUSH1 0x0 DUP1 PUSH1 0x0 PUSH2 0x100 EXP DUP2 SLOAD DUP2 PUSH20 0xFFFFFFFFFFFFFFFFFFFFFFFFFFFFFFFFFFFFFFFF MUL NOT AND SWAP1 DUP4 PUSH20 0xFFFFFFFFFFFFFFFFFFFFFFFFFFFFFFFFFFFFFFFF AND MUL OR SWAP1 SSTORE POP JUMP JUMPDEST PUSH2 0xA59 PUSH2 0x16FC JUMP JUMPDEST PUSH20 0xFFFFFFFFFFFFFFFFFFFFFFFFFFFFFFFFFFFFFFFF AND PUSH2 0xA77 PUSH2 0xC66 JUMP JUMPDEST PUSH20 0xFFFFFFFFFFFFFFFFFFFFFFFFFFFFFFFFFFFFFFFF AND EQ DUP1 PUSH2 0xAED JUMPI POP PUSH2 0xA9C PUSH2 0x16FC JUMP JUMPDEST PUSH20 0xFFFFFFFFFFFFFFFFFFFFFFFFFFFFFFFFFFFFFFFF AND PUSH1 0xE PUSH1 0x0 SWAP1 SLOAD SWAP1 PUSH2 0x100 EXP SWAP1 DIV PUSH20 0xFFFFFFFFFFFFFFFFFFFFFFFFFFFFFFFFFFFFFFFF AND PUSH20 0xFFFFFFFFFFFFFFFFFFFFFFFFFFFFFFFFFFFFFFFF AND EQ JUMPDEST PUSH2 0xB2C JUMPI PUSH1 0x40 MLOAD PUSH32 0x8C379A000000000000000000000000000000000000000000000000000000000 DUP2 MSTORE PUSH1 0x4 ADD PUSH2 0xB23 SWAP1 PUSH2 0x2F07 JUMP JUMPDEST PUSH1 0x40 MLOAD DUP1 SWAP2 SUB SWAP1 REVERT JUMPDEST DUP1 PUSH20 0xFFFFFFFFFFFFFFFFFFFFFFFFFFFFFFFFFFFFFFFF AND PUSH1 0xF PUSH1 0x0 SWAP1 SLOAD SWAP1 PUSH2 0x100 EXP SWAP1 DIV PUSH20 0xFFFFFFFFFFFFFFFFFFFFFFFFFFFFFFFFFFFFFFFF AND PUSH20 0xFFFFFFFFFFFFFFFFFFFFFFFFFFFFFFFFFFFFFFFF AND PUSH32 0xA64373A629BC0C09EACF8A9CC2C7B070FA0A8B7E2E9B8AAEE408A3C02EB1676B PUSH1 0x40 MLOAD PUSH1 0x40 MLOAD DUP1 SWAP2 SUB SWAP1 LOG3 DUP1 PUSH1 0xF PUSH1 0x0 PUSH2 0x100 EXP DUP2 SLOAD DUP2 PUSH20 0xFFFFFFFFFFFFFFFFFFFFFFFFFFFFFFFFFFFFFFFF MUL NOT AND SWAP1 DUP4 PUSH20 0xFFFFFFFFFFFFFFFFFFFFFFFFFFFFFFFFFFFFFFFF AND MUL OR SWAP1 SSTORE POP PUSH1 0x1 PUSH1 0x5 PUSH1 0x0 PUSH1 0xF PUSH1 0x0 SWAP1 SLOAD SWAP1 PUSH2 0x100 EXP SWAP1 DIV PUSH20 0xFFFFFFFFFFFFFFFFFFFFFFFFFFFFFFFFFFFFFFFF AND PUSH20 0xFFFFFFFFFFFFFFFFFFFFFFFFFFFFFFFFFFFFFFFF AND PUSH20 0xFFFFFFFFFFFFFFFFFFFFFFFFFFFFFFFFFFFFFFFF AND DUP2 MSTORE PUSH1 0x20 ADD SWAP1 DUP2 MSTORE PUSH1 0x20 ADD PUSH1 0x0 KECCAK256 PUSH1 0x0 PUSH2 0x100 EXP DUP2 SLOAD DUP2 PUSH1 0xFF MUL NOT AND SWAP1 DUP4 ISZERO ISZERO MUL OR SWAP1 SSTORE POP POP JUMP JUMPDEST PUSH1 0x0 DUP1 PUSH1 0x0 SWAP1 SLOAD SWAP1 PUSH2 0x100 EXP SWAP1 DIV PUSH20 0xFFFFFFFFFFFFFFFFFFFFFFFFFFFFFFFFFFFFFFFF AND SWAP1 POP SWAP1 JUMP JUMPDEST PUSH1 0x60 PUSH1 0x40 MLOAD DUP1 PUSH1 0x40 ADD PUSH1 0x40 MSTORE DUP1 PUSH1 0x3 DUP2 MSTORE PUSH1 0x20 ADD PUSH32 0x5753500000000000000000000000000000000000000000000000000000000000 DUP2 MSTORE POP SWAP1 POP SWAP1 JUMP JUMPDEST PUSH2 0xCD4 PUSH2 0x16FC JUMP JUMPDEST PUSH20 0xFFFFFFFFFFFFFFFFFFFFFFFFFFFFFFFFFFFFFFFF AND PUSH2 0xCF2 PUSH2 0xC66 JUMP JUMPDEST PUSH20 0xFFFFFFFFFFFFFFFFFFFFFFFFFFFFFFFFFFFFFFFF AND EQ DUP1 PUSH2 0xD68 JUMPI POP PUSH2 0xD17 PUSH2 0x16FC JUMP JUMPDEST PUSH20 0xFFFFFFFFFFFFFFFFFFFFFFFFFFFFFFFFFFFFFFFF AND PUSH1 0xE PUSH1 0x0 SWAP1 SLOAD SWAP1 PUSH2 0x100 EXP SWAP1 DIV PUSH20 0xFFFFFFFFFFFFFFFFFFFFFFFFFFFFFFFFFFFFFFFF AND PUSH20 0xFFFFFFFFFFFFFFFFFFFFFFFFFFFFFFFFFFFFFFFF AND EQ JUMPDEST PUSH2 0xDA7 JUMPI PUSH1 0x40 MLOAD PUSH32 0x8C379A000000000000000000000000000000000000000000000000000000000 DUP2 MSTORE PUSH1 0x4 ADD PUSH2 0xD9E SWAP1 PUSH2 0x2F07 JUMP JUMPDEST PUSH1 0x40 MLOAD DUP1 SWAP2 SUB SWAP1 REVERT JUMPDEST PUSH1 0xB DUP5 LT PUSH2 0xDEA JUMPI PUSH1 0x40 MLOAD PUSH32 0x8C379A000000000000000000000000000000000000000000000000000000000 DUP2 MSTORE PUSH1 0x4 ADD PUSH2 0xDE1 SWAP1 PUSH2 0x2FDF JUMP JUMPDEST PUSH1 0x40 MLOAD DUP1 SWAP2 SUB SWAP1 REVERT JUMPDEST PUSH1 0xB DUP4 LT PUSH2 0xE2D JUMPI PUSH1 0x40 MLOAD PUSH32 0x8C379A000000000000000000000000000000000000000000000000000000000 DUP2 MSTORE PUSH1 0x4 ADD PUSH2 0xE24 SWAP1 PUSH2 0x2FDF JUMP JUMPDEST PUSH1 0x40 MLOAD DUP1 SWAP2 SUB SWAP1 REVERT JUMPDEST PUSH1 0x7 DUP3 LT PUSH2 0xE70 JUMPI PUSH1 0x40 MLOAD PUSH32 0x8C379A000000000000000000000000000000000000000000000000000000000 DUP2 MSTORE PUSH1 0x4 ADD PUSH2 0xE67 SWAP1 PUSH2 0x304B JUMP JUMPDEST PUSH1 0x40 MLOAD DUP1 SWAP2 SUB SWAP1 REVERT JUMPDEST PUSH1 0x7 DUP2 LT PUSH2 0xEB3 JUMPI PUSH1 0x40 MLOAD PUSH32 0x8C379A000000000000000000000000000000000000000000000000000000000 DUP2 MSTORE PUSH1 0x4 ADD PUSH2 0xEAA SWAP1 PUSH2 0x304B JUMP JUMPDEST PUSH1 0x40 MLOAD DUP1 SWAP2 SUB SWAP1 REVERT JUMPDEST DUP4 PUSH1 0x8 DUP2 SWAP1 SSTORE POP DUP3 PUSH1 0xA DUP2 SWAP1 SSTORE POP DUP2 PUSH1 0x9 DUP2 SWAP1 SSTORE POP DUP1 PUSH1 0xB DUP2 SWAP1 SSTORE POP POP POP POP POP JUMP JUMPDEST PUSH1 0x0 PUSH2 0xEE9 PUSH2 0xEE2 PUSH2 0x16FC JUMP JUMPDEST DUP5 DUP5 PUSH2 0x18CD JUMP JUMPDEST PUSH1 0x1 SWAP1 POP SWAP3 SWAP2 POP POP JUMP JUMPDEST PUSH2 0xEFB PUSH2 0x16FC JUMP JUMPDEST PUSH20 0xFFFFFFFFFFFFFFFFFFFFFFFFFFFFFFFFFFFFFFFF AND PUSH2 0xF19 PUSH2 0xC66 JUMP JUMPDEST PUSH20 0xFFFFFFFFFFFFFFFFFFFFFFFFFFFFFFFFFFFFFFFF AND EQ DUP1 PUSH2 0xF8F JUMPI POP PUSH2 0xF3E PUSH2 0x16FC JUMP JUMPDEST PUSH20 0xFFFFFFFFFFFFFFFFFFFFFFFFFFFFFFFFFFFFFFFF AND PUSH1 0xE PUSH1 0x0 SWAP1 SLOAD SWAP1 PUSH2 0x100 EXP SWAP1 DIV PUSH20 0xFFFFFFFFFFFFFFFFFFFFFFFFFFFFFFFFFFFFFFFF AND PUSH20 0xFFFFFFFFFFFFFFFFFFFFFFFFFFFFFFFFFFFFFFFF AND EQ JUMPDEST PUSH2 0xFCE JUMPI PUSH1 0x40 MLOAD PUSH32 0x8C379A000000000000000000000000000000000000000000000000000000000 DUP2 MSTORE PUSH1 0x4 ADD PUSH2 0xFC5 SWAP1 PUSH2 0x2F07 JUMP JUMPDEST PUSH1 0x40 MLOAD DUP1 SWAP2 SUB SWAP1 REVERT JUMPDEST DUP1 PUSH20 0xFFFFFFFFFFFFFFFFFFFFFFFFFFFFFFFFFFFFFFFF AND PUSH1 0xE PUSH1 0x0 SWAP1 SLOAD SWAP1 PUSH2 0x100 EXP SWAP1 DIV PUSH20 0xFFFFFFFFFFFFFFFFFFFFFFFFFFFFFFFFFFFFFFFF AND PUSH20 0xFFFFFFFFFFFFFFFFFFFFFFFFFFFFFFFFFFFFFFFF AND PUSH32 0xFBBC329437E8C79F847E170730AD6DD04106B7511CAD70D06D635886D92DE83C PUSH1 0x40 MLOAD PUSH1 0x40 MLOAD DUP1 SWAP2 SUB SWAP1 LOG3 DUP1 PUSH1 0xE PUSH1 0x0 PUSH2 0x100 EXP DUP2 SLOAD DUP2 PUSH20 0xFFFFFFFFFFFFFFFFFFFFFFFFFFFFFFFFFFFFFFFF MUL NOT AND SWAP1 DUP4 PUSH20 0xFFFFFFFFFFFFFFFFFFFFFFFFFFFFFFFFFFFFFFFF AND MUL OR SWAP1 SSTORE POP PUSH1 0x1 PUSH1 0x5 PUSH1 0x0 PUSH1 0xE PUSH1 0x0 SWAP1 SLOAD SWAP1 PUSH2 0x100 EXP SWAP1 DIV PUSH20 0xFFFFFFFFFFFFFFFFFFFFFFFFFFFFFFFFFFFFFFFF AND PUSH20 0xFFFFFFFFFFFFFFFFFFFFFFFFFFFFFFFFFFFFFFFF AND PUSH20 0xFFFFFFFFFFFFFFFFFFFFFFFFFFFFFFFFFFFFFFFF AND DUP2 MSTORE PUSH1 0x20 ADD SWAP1 DUP2 MSTORE PUSH1 0x20 ADD PUSH1 0x0 KECCAK256 PUSH1 0x0 PUSH2 0x100 EXP DUP2 SLOAD DUP2 PUSH1 0xFF MUL NOT AND SWAP1 DUP4 ISZERO ISZERO MUL OR SWAP1 SSTORE POP POP JUMP JUMPDEST PUSH1 0xE PUSH1 0x0 SWAP1 SLOAD SWAP1 PUSH2 0x100 EXP SWAP1 DIV PUSH20 0xFFFFFFFFFFFFFFFFFFFFFFFFFFFFFFFFFFFFFFFF AND PUSH20 0xFFFFFFFFFFFFFFFFFFFFFFFFFFFFFFFFFFFFFFFF AND PUSH2 0x1149 PUSH2 0x16FC JUMP JUMPDEST PUSH20 0xFFFFFFFFFFFFFFFFFFFFFFFFFFFFFFFFFFFFFFFF AND EQ DUP1 PUSH2 0x11BF JUMPI POP PUSH1 0xF PUSH1 0x0 SWAP1 SLOAD SWAP1 PUSH2 0x100 EXP SWAP1 DIV PUSH20 0xFFFFFFFFFFFFFFFFFFFFFFFFFFFFFFFFFFFFFFFF AND PUSH20 0xFFFFFFFFFFFFFFFFFFFFFFFFFFFFFFFFFFFFFFFF AND PUSH2 0x11A7 PUSH2 0x16FC JUMP JUMPDEST PUSH20 0xFFFFFFFFFFFFFFFFFFFFFFFFFFFFFFFFFFFFFFFF AND EQ JUMPDEST DUP1 PUSH2 0x1203 JUMPI POP PUSH2 0x11CD PUSH2 0xC66 JUMP JUMPDEST PUSH20 0xFFFFFFFFFFFFFFFFFFFFFFFFFFFFFFFFFFFFFFFF AND PUSH2 0x11EB PUSH2 0x16FC JUMP JUMPDEST PUSH20 0xFFFFFFFFFFFFFFFFFFFFFFFFFFFFFFFFFFFFFFFF AND EQ JUMPDEST PUSH2 0x120C JUMPI PUSH1 0x0 DUP1 REVERT JUMPDEST PUSH1 0x0 PUSH2 0x1217 ADDRESS PUSH2 0x8AD JUMP JUMPDEST SWAP1 POP PUSH2 0x1222 DUP2 PUSH2 0x200C JUMP JUMPDEST POP JUMP JUMPDEST PUSH2 0x122D PUSH2 0x16FC JUMP JUMPDEST PUSH20 0xFFFFFFFFFFFFFFFFFFFFFFFFFFFFFFFFFFFFFFFF AND PUSH1 0x0 DUP1 SLOAD SWAP1 PUSH2 0x100 EXP SWAP1 DIV PUSH20 0xFFFFFFFFFFFFFFFFFFFFFFFFFFFFFFFFFFFFFFFF AND PUSH20 0xFFFFFFFFFFFFFFFFFFFFFFFFFFFFFFFFFFFFFFFF AND EQ PUSH2 0x12BA JUMPI PUSH1 0x40 MLOAD PUSH32 0x8C379A000000000000000000000000000000000000000000000000000000000 DUP2 MSTORE PUSH1 0x4 ADD PUSH2 0x12B1 SWAP1 PUSH2 0x2F73 JUMP JUMPDEST PUSH1 0x40 MLOAD DUP1 SWAP2 SUB SWAP1 REVERT JUMPDEST PUSH1 0x0 JUMPDEST DUP4 DUP4 SWAP1 POP DUP2 LT ISZERO PUSH2 0x1359 JUMPI DUP2 PUSH1 0x5 PUSH1 0x0 DUP7 DUP7 DUP6 DUP2 DUP2 LT PUSH2 0x12E0 JUMPI PUSH2 0x12DF PUSH2 0x306B JUMP JUMPDEST JUMPDEST SWAP1 POP PUSH1 0x20 MUL ADD PUSH1 0x20 DUP2 ADD SWAP1 PUSH2 0x12F5 SWAP2 SWAP1 PUSH2 0x2CB7 JUMP JUMPDEST PUSH20 0xFFFFFFFFFFFFFFFFFFFFFFFFFFFFFFFFFFFFFFFF AND PUSH20 0xFFFFFFFFFFFFFFFFFFFFFFFFFFFFFFFFFFFFFFFF AND DUP2 MSTORE PUSH1 0x20 ADD SWAP1 DUP2 MSTORE PUSH1 0x20 ADD PUSH1 0x0 KECCAK256 PUSH1 0x0 PUSH2 0x100 EXP DUP2 SLOAD DUP2 PUSH1 0xFF MUL NOT AND SWAP1 DUP4 ISZERO ISZERO MUL OR SWAP1 SSTORE POP DUP1 DUP1 PUSH2 0x1351 SWAP1 PUSH2 0x30C9 JUMP JUMPDEST SWAP2 POP POP PUSH2 0x12BD JUMP JUMPDEST POP POP POP POP JUMP JUMPDEST PUSH1 0x0 PUSH1 0x4 PUSH1 0x0 DUP5 PUSH20 0xFFFFFFFFFFFFFFFFFFFFFFFFFFFFFFFFFFFFFFFF AND PUSH20 0xFFFFFFFFFFFFFFFFFFFFFFFFFFFFFFFFFFFFFFFF AND DUP2 MSTORE PUSH1 0x20 ADD SWAP1 DUP2 MSTORE PUSH1 0x20 ADD PUSH1 0x0 KECCAK256 PUSH1 0x0 DUP4 PUSH20 0xFFFFFFFFFFFFFFFFFFFFFFFFFFFFFFFFFFFFFFFF AND PUSH20 0xFFFFFFFFFFFFFFFFFFFFFFFFFFFFFFFFFFFFFFFF AND DUP2 MSTORE PUSH1 0x20 ADD SWAP1 DUP2 MSTORE PUSH1 0x20 ADD PUSH1 0x0 KECCAK256 SLOAD SWAP1 POP SWAP3 SWAP2 POP POP JUMP JUMPDEST PUSH2 0x13EE PUSH2 0x16FC JUMP JUMPDEST PUSH20 0xFFFFFFFFFFFFFFFFFFFFFFFFFFFFFFFFFFFFFFFF AND PUSH2 0x140C PUSH2 0xC66 JUMP JUMPDEST PUSH20 0xFFFFFFFFFFFFFFFFFFFFFFFFFFFFFFFFFFFFFFFF AND EQ DUP1 PUSH2 0x1482 JUMPI POP PUSH2 0x1431 PUSH2 0x16FC JUMP JUMPDEST PUSH20 0xFFFFFFFFFFFFFFFFFFFFFFFFFFFFFFFFFFFFFFFF AND PUSH1 0xE PUSH1 0x0 SWAP1 SLOAD SWAP1 PUSH2 0x100 EXP SWAP1 DIV PUSH20 0xFFFFFFFFFFFFFFFFFFFFFFFFFFFFFFFFFFFFFFFF AND PUSH20 0xFFFFFFFFFFFFFFFFFFFFFFFFFFFFFFFFFFFFFFFF AND EQ JUMPDEST PUSH2 0x14C1 JUMPI PUSH1 0x40 MLOAD PUSH32 0x8C379A000000000000000000000000000000000000000000000000000000000 DUP2 MSTORE PUSH1 0x4 ADD PUSH2 0x14B8 SWAP1 PUSH2 0x2F07 JUMP JUMPDEST PUSH1 0x40 MLOAD DUP1 SWAP2 SUB SWAP1 REVERT JUMPDEST DUP2 PUSH20 0xFFFFFFFFFFFFFFFFFFFFFFFFFFFFFFFFFFFFFFFF AND DUP4 PUSH20 0xFFFFFFFFFFFFFFFFFFFFFFFFFFFFFFFFFFFFFFFF AND PUSH32 0x47C33AA230EB5FD181505AA7BEFEADDD9B8A6F983989CEA73A7868448C3A9ED9 DUP4 PUSH1 0x40 MLOAD PUSH2 0x151E SWAP2 SWAP1 PUSH2 0x2B8F JUMP JUMPDEST PUSH1 0x40 MLOAD DUP1 SWAP2 SUB SWAP1 LOG3 DUP3 PUSH20 0xFFFFFFFFFFFFFFFFFFFFFFFFFFFFFFFFFFFFFFFF AND PUSH4 0xA9059CBB DUP4 DUP4 PUSH1 0x40 MLOAD DUP4 PUSH4 0xFFFFFFFF AND PUSH1 0xE0 SHL DUP2 MSTORE PUSH1 0x4 ADD PUSH2 0x1561 SWAP3 SWAP2 SWAP1 PUSH2 0x3111 JUMP JUMPDEST PUSH1 0x20 PUSH1 0x40 MLOAD DUP1 DUP4 SUB DUP2 PUSH1 0x0 DUP8 GAS CALL ISZERO DUP1 ISZERO PUSH2 0x1580 JUMPI RETURNDATASIZE PUSH1 0x0 DUP1 RETURNDATACOPY RETURNDATASIZE PUSH1 0x0 REVERT JUMPDEST POP POP POP POP PUSH1 0x40 MLOAD RETURNDATASIZE PUSH1 0x1F NOT PUSH1 0x1F DUP3 ADD AND DUP3 ADD DUP1 PUSH1 0x40 MSTORE POP DUP2 ADD SWAP1 PUSH2 0x15A4 SWAP2 SWAP1 PUSH2 0x314F JUMP JUMPDEST POP POP POP POP JUMP JUMPDEST PUSH2 0x15B2 PUSH2 0x16FC JUMP JUMPDEST PUSH20 0xFFFFFFFFFFFFFFFFFFFFFFFFFFFFFFFFFFFFFFFF AND PUSH1 0x0 DUP1 SLOAD SWAP1 PUSH2 0x100 EXP SWAP1 DIV PUSH20 0xFFFFFFFFFFFFFFFFFFFFFFFFFFFFFFFFFFFFFFFF AND PUSH20 0xFFFFFFFFFFFFFFFFFFFFFFFFFFFFFFFFFFFFFFFF AND EQ PUSH2 0x163F JUMPI PUSH1 0x40 MLOAD PUSH32 0x8C379A000000000000000000000000000000000000000000000000000000000 DUP2 MSTORE PUSH1 0x4 ADD PUSH2 0x1636 SWAP1 PUSH2 0x2F73 JUMP JUMPDEST PUSH1 0x40 MLOAD DUP1 SWAP2 SUB SWAP1 REVERT JUMPDEST DUP1 PUSH20 0xFFFFFFFFFFFFFFFFFFFFFFFFFFFFFFFFFFFFFFFF AND PUSH1 0x0 DUP1 SLOAD SWAP1 PUSH2 0x100 EXP SWAP1 DIV PUSH20 0xFFFFFFFFFFFFFFFFFFFFFFFFFFFFFFFFFFFFFFFF AND PUSH20 0xFFFFFFFFFFFFFFFFFFFFFFFFFFFFFFFFFFFFFFFF AND PUSH32 0x8BE0079C531659141344CD1FD0A4F28419497F9722A3DAAFE3B4186F6B6457E0 PUSH1 0x40 MLOAD PUSH1 0x40 MLOAD DUP1 SWAP2 SUB SWAP1 LOG3 DUP1 PUSH1 0x0 DUP1 PUSH2 0x100 EXP DUP2 SLOAD DUP2 PUSH20 0xFFFFFFFFFFFFFFFFFFFFFFFFFFFFFFFFFFFFFFFF MUL NOT AND SWAP1 DUP4 PUSH20 0xFFFFFFFFFFFFFFFFFFFFFFFFFFFFFFFFFFFFFFFF AND MUL OR SWAP1 SSTORE POP POP JUMP JUMPDEST PUSH1 0x0 CALLER SWAP1 POP SWAP1 JUMP JUMPDEST PUSH1 0x0 PUSH20 0xFFFFFFFFFFFFFFFFFFFFFFFFFFFFFFFFFFFFFFFF AND DUP4 PUSH20 0xFFFFFFFFFFFFFFFFFFFFFFFFFFFFFFFFFFFFFFFF AND SUB PUSH2 0x1773 JUMPI PUSH1 0x40 MLOAD PUSH32 0x8C379A000000000000000000000000000000000000000000000000000000000 DUP2 MSTORE PUSH1 0x4 ADD PUSH2 0x176A SWAP1 PUSH2 0x31EE JUMP JUMPDEST PUSH1 0x40 MLOAD DUP1 SWAP2 SUB SWAP1 REVERT JUMPDEST PUSH1 0x0 PUSH20 0xFFFFFFFFFFFFFFFFFFFFFFFFFFFFFFFFFFFFFFFF AND DUP3 PUSH20 0xFFFFFFFFFFFFFFFFFFFFFFFFFFFFFFFFFFFFFFFF AND SUB PUSH2 0x17E2 JUMPI PUSH1 0x40 MLOAD PUSH32 0x8C379A000000000000000000000000000000000000000000000000000000000 DUP2 MSTORE PUSH1 0x4 ADD PUSH2 0x17D9 SWAP1 PUSH2 0x3280 JUMP JUMPDEST PUSH1 0x40 MLOAD DUP1 SWAP2 SUB SWAP1 REVERT JUMPDEST DUP1 PUSH1 0x4 PUSH1 0x0 DUP6 PUSH20 0xFFFFFFFFFFFFFFFFFFFFFFFFFFFFFFFFFFFFFFFF AND PUSH20 0xFFFFFFFFFFFFFFFFFFFFFFFFFFFFFFFFFFFFFFFF AND DUP2 MSTORE PUSH1 0x20 ADD SWAP1 DUP2 MSTORE PUSH1 0x20 ADD PUSH1 0x0 KECCAK256 PUSH1 0x0 DUP5 PUSH20 0xFFFFFFFFFFFFFFFFFFFFFFFFFFFFFFFFFFFFFFFF AND PUSH20 0xFFFFFFFFFFFFFFFFFFFFFFFFFFFFFFFFFFFFFFFF AND DUP2 MSTORE PUSH1 0x20 ADD SWAP1 DUP2 MSTORE PUSH1 0x20 ADD PUSH1 0x0 KECCAK256 DUP2 SWAP1 SSTORE POP DUP2 PUSH20 0xFFFFFFFFFFFFFFFFFFFFFFFFFFFFFFFFFFFFFFFF AND DUP4 PUSH20 0xFFFFFFFFFFFFFFFFFFFFFFFFFFFFFFFFFFFFFFFF AND PUSH32 0x8C5BE1E5EBEC7D5BD14F71427D1E84F3DD0314C0F7B2291E5B200AC8C7C3B925 DUP4 PUSH1 0x40 MLOAD PUSH2 0x18C0 SWAP2 SWAP1 PUSH2 0x2B8F JUMP JUMPDEST PUSH1 0x40 MLOAD DUP1 SWAP2 SUB SWAP1 LOG3 POP POP POP JUMP JUMPDEST PUSH1 0x0 PUSH20 0xFFFFFFFFFFFFFFFFFFFFFFFFFFFFFFFFFFFFFFFF AND DUP4 PUSH20 0xFFFFFFFFFFFFFFFFFFFFFFFFFFFFFFFFFFFFFFFF AND SUB PUSH2 0x193C JUMPI PUSH1 0x40 MLOAD PUSH32 0x8C379A000000000000000000000000000000000000000000000000000000000 DUP2 MSTORE PUSH1 0x4 ADD PUSH2 0x1933 SWAP1 PUSH2 0x3312 JUMP JUMPDEST PUSH1 0x40 MLOAD DUP1 SWAP2 SUB SWAP1 REVERT JUMPDEST PUSH1 0x0 PUSH20 0xFFFFFFFFFFFFFFFFFFFFFFFFFFFFFFFFFFFFFFFF AND DUP3 PUSH20 0xFFFFFFFFFFFFFFFFFFFFFFFFFFFFFFFFFFFFFFFF AND SUB PUSH2 0x19AB JUMPI PUSH1 0x40 MLOAD PUSH32 0x8C379A000000000000000000000000000000000000000000000000000000000 DUP2 MSTORE PUSH1 0x4 ADD PUSH2 0x19A2 SWAP1 PUSH2 0x33A4 JUMP JUMPDEST PUSH1 0x40 MLOAD DUP1 SWAP2 SUB SWAP1 REVERT JUMPDEST PUSH1 0x0 DUP2 GT PUSH2 0x19EE JUMPI PUSH1 0x40 MLOAD PUSH32 0x8C379A000000000000000000000000000000000000000000000000000000000 DUP2 MSTORE PUSH1 0x4 ADD PUSH2 0x19E5 SWAP1 PUSH2 0x3436 JUMP JUMPDEST PUSH1 0x40 MLOAD DUP1 SWAP2 SUB SWAP1 REVERT JUMPDEST PUSH1 0x0 PUSH1 0xC DUP2 SWAP1 SSTORE POP PUSH1 0x0 PUSH1 0xD DUP2 SWAP1 SSTORE POP PUSH2 0x1A06 PUSH2 0xC66 JUMP JUMPDEST PUSH20 0xFFFFFFFFFFFFFFFFFFFFFFFFFFFFFFFFFFFFFFFF AND DUP4 PUSH20 0xFFFFFFFFFFFFFFFFFFFFFFFFFFFFFFFFFFFFFFFF AND EQ ISZERO DUP1 ISZERO PUSH2 0x1A74 JUMPI POP PUSH2 0x1A44 PUSH2 0xC66 JUMP JUMPDEST PUSH20 0xFFFFFFFFFFFFFFFFFFFFFFFFFFFFFFFFFFFFFFFF AND DUP3 PUSH20 0xFFFFFFFFFFFFFFFFFFFFFFFFFFFFFFFFFFFFFFFF AND EQ ISZERO JUMPDEST ISZERO PUSH2 0x1E2F JUMPI PUSH1 0x0 PUSH2 0x1A84 ADDRESS PUSH2 0x8AD JUMP JUMPDEST SWAP1 POP PUSH1 0x11 PUSH1 0x14 SWAP1 SLOAD SWAP1 PUSH2 0x100 EXP SWAP1 DIV PUSH1 0xFF AND ISZERO DUP1 ISZERO PUSH2 0x1AF1 JUMPI POP PUSH1 0x11 PUSH1 0x0 SWAP1 SLOAD SWAP1 PUSH2 0x100 EXP SWAP1 DIV PUSH20 0xFFFFFFFFFFFFFFFFFFFFFFFFFFFFFFFFFFFFFFFF AND PUSH20 0xFFFFFFFFFFFFFFFFFFFFFFFFFFFFFFFFFFFFFFFF AND DUP5 PUSH20 0xFFFFFFFFFFFFFFFFFFFFFFFFFFFFFFFFFFFFFFFF AND EQ ISZERO JUMPDEST DUP1 ISZERO PUSH2 0x1B09 JUMPI POP PUSH1 0x11 PUSH1 0x15 SWAP1 SLOAD SWAP1 PUSH2 0x100 EXP SWAP1 DIV PUSH1 0xFF AND JUMPDEST DUP1 ISZERO PUSH2 0x1B15 JUMPI POP PUSH1 0x0 DUP2 GT JUMPDEST ISZERO PUSH2 0x1B3D JUMPI PUSH2 0x1B23 DUP2 PUSH2 0x200C JUMP JUMPDEST PUSH1 0x0 SELFBALANCE SWAP1 POP PUSH1 0x0 DUP2 GT ISZERO PUSH2 0x1B3B JUMPI PUSH2 0x1B3A SELFBALANCE PUSH2 0x1EA3 JUMP JUMPDEST JUMPDEST POP JUMPDEST PUSH1 0x11 PUSH1 0x0 SWAP1 SLOAD SWAP1 PUSH2 0x100 EXP SWAP1 DIV PUSH20 0xFFFFFFFFFFFFFFFFFFFFFFFFFFFFFFFFFFFFFFFF AND PUSH20 0xFFFFFFFFFFFFFFFFFFFFFFFFFFFFFFFFFFFFFFFF AND DUP5 PUSH20 0xFFFFFFFFFFFFFFFFFFFFFFFFFFFFFFFFFFFFFFFF AND EQ DUP1 ISZERO PUSH2 0x1BE8 JUMPI POP PUSH1 0x10 PUSH1 0x0 SWAP1 SLOAD SWAP1 PUSH2 0x100 EXP SWAP1 DIV PUSH20 0xFFFFFFFFFFFFFFFFFFFFFFFFFFFFFFFFFFFFFFFF AND PUSH20 0xFFFFFFFFFFFFFFFFFFFFFFFFFFFFFFFFFFFFFFFF AND DUP4 PUSH20 0xFFFFFFFFFFFFFFFFFFFFFFFFFFFFFFFFFFFFFFFF AND EQ ISZERO JUMPDEST ISZERO PUSH2 0x1C00 JUMPI PUSH1 0x8 SLOAD PUSH1 0xC DUP2 SWAP1 SSTORE POP PUSH1 0x9 SLOAD PUSH1 0xD DUP2 SWAP1 SSTORE POP JUMPDEST PUSH1 0x11 PUSH1 0x0 SWAP1 SLOAD SWAP1 PUSH2 0x100 EXP SWAP1 DIV PUSH20 0xFFFFFFFFFFFFFFFFFFFFFFFFFFFFFFFFFFFFFFFF AND PUSH20 0xFFFFFFFFFFFFFFFFFFFFFFFFFFFFFFFFFFFFFFFF AND DUP4 PUSH20 0xFFFFFFFFFFFFFFFFFFFFFFFFFFFFFFFFFFFFFFFF AND EQ DUP1 ISZERO PUSH2 0x1CAB JUMPI POP PUSH1 0x10 PUSH1 0x0 SWAP1 SLOAD SWAP1 PUSH2 0x100 EXP SWAP1 DIV PUSH20 0xFFFFFFFFFFFFFFFFFFFFFFFFFFFFFFFFFFFFFFFF AND PUSH20 0xFFFFFFFFFFFFFFFFFFFFFFFFFFFFFFFFFFFFFFFF AND DUP5 PUSH20 0xFFFFFFFFFFFFFFFFFFFFFFFFFFFFFFFFFFFFFFFF AND EQ ISZERO JUMPDEST ISZERO PUSH2 0x1CC3 JUMPI PUSH1 0xA SLOAD PUSH1 0xC DUP2 SWAP1 SSTORE POP PUSH1 0xB SLOAD PUSH1 0xD DUP2 SWAP1 SSTORE POP JUMPDEST PUSH1 0x5 PUSH1 0x0 DUP6 PUSH20 0xFFFFFFFFFFFFFFFFFFFFFFFFFFFFFFFFFFFFFFFF AND PUSH20 0xFFFFFFFFFFFFFFFFFFFFFFFFFFFFFFFFFFFFFFFF AND DUP2 MSTORE PUSH1 0x20 ADD SWAP1 DUP2 MSTORE PUSH1 0x20 ADD PUSH1 0x0 KECCAK256 PUSH1 0x0 SWAP1 SLOAD SWAP1 PUSH2 0x100 EXP SWAP1 DIV PUSH1 0xFF AND DUP1 PUSH2 0x1D64 JUMPI POP PUSH1 0x5 PUSH1 0x0 DUP5 PUSH20 0xFFFFFFFFFFFFFFFFFFFFFFFFFFFFFFFFFFFFFFFF AND PUSH20 0xFFFFFFFFFFFFFFFFFFFFFFFFFFFFFFFFFFFFFFFF AND DUP2 MSTORE PUSH1 0x20 ADD SWAP1 DUP2 MSTORE PUSH1 0x20 ADD PUSH1 0x0 KECCAK256 PUSH1 0x0 SWAP1 SLOAD SWAP1 PUSH2 0x100 EXP SWAP1 DIV PUSH1 0xFF AND JUMPDEST DUP1 PUSH2 0x1E17 JUMPI POP PUSH1 0x11 PUSH1 0x0 SWAP1 SLOAD SWAP1 PUSH2 0x100 EXP SWAP1 DIV PUSH20 0xFFFFFFFFFFFFFFFFFFFFFFFFFFFFFFFFFFFFFFFF AND PUSH20 0xFFFFFFFFFFFFFFFFFFFFFFFFFFFFFFFFFFFFFFFF AND DUP5 PUSH20 0xFFFFFFFFFFFFFFFFFFFFFFFFFFFFFFFFFFFFFFFF AND EQ ISZERO DUP1 ISZERO PUSH2 0x1E16 JUMPI POP PUSH1 0x11 PUSH1 0x0 SWAP1 SLOAD SWAP1 PUSH2 0x100 EXP SWAP1 DIV PUSH20 0xFFFFFFFFFFFFFFFFFFFFFFFFFFFFFFFFFFFFFFFF AND PUSH20 0xFFFFFFFFFFFFFFFFFFFFFFFFFFFFFFFFFFFFFFFF AND DUP4 PUSH20 0xFFFFFFFFFFFFFFFFFFFFFFFFFFFFFFFFFFFFFFFF AND EQ ISZERO JUMPDEST JUMPDEST ISZERO PUSH2 0x1E2D JUMPI PUSH1 0x0 PUSH1 0xC DUP2 SWAP1 SSTORE POP PUSH1 0x0 PUSH1 0xD DUP2 SWAP1 SSTORE POP JUMPDEST POP JUMPDEST PUSH2 0x1E3A DUP4 DUP4 DUP4 PUSH2 0x2285 JUMP JUMPDEST POP POP POP JUMP JUMPDEST PUSH1 0x0 DUP4 DUP4 GT ISZERO DUP3 SWAP1 PUSH2 0x1E87 JUMPI PUSH1 0x40 MLOAD PUSH32 0x8C379A000000000000000000000000000000000000000000000000000000000 DUP2 MSTORE PUSH1 0x4 ADD PUSH2 0x1E7E SWAP2 SWAP1 PUSH2 0x29D0 JUMP JUMPDEST PUSH1 0x40 MLOAD DUP1 SWAP2 SUB SWAP1 REVERT JUMPDEST POP PUSH1 0x0 DUP4 DUP6 PUSH2 0x1E96 SWAP2 SWAP1 PUSH2 0x3456 JUMP JUMPDEST SWAP1 POP DUP1 SWAP2 POP POP SWAP4 SWAP3 POP POP POP JUMP JUMPDEST PUSH1 0xE PUSH1 0x0 SWAP1 SLOAD SWAP1 PUSH2 0x100 EXP SWAP1 DIV PUSH20 0xFFFFFFFFFFFFFFFFFFFFFFFFFFFFFFFFFFFFFFFF AND PUSH20 0xFFFFFFFFFFFFFFFFFFFFFFFFFFFFFFFFFFFFFFFF AND PUSH2 0x8FC PUSH2 0x1EF3 PUSH1 0x2 DUP5 PUSH2 0x2295 SWAP1 SWAP2 SWAP1 PUSH4 0xFFFFFFFF AND JUMP JUMPDEST SWAP1 DUP2 ISZERO MUL SWAP1 PUSH1 0x40 MLOAD PUSH1 0x0 PUSH1 0x40 MLOAD DUP1 DUP4 SUB DUP2 DUP6 DUP9 DUP9 CALL SWAP4 POP POP POP POP ISZERO DUP1 ISZERO PUSH2 0x1F1E JUMPI RETURNDATASIZE PUSH1 0x0 DUP1 RETURNDATACOPY RETURNDATASIZE PUSH1 0x0 REVERT JUMPDEST POP PUSH1 0xF PUSH1 0x0 SWAP1 SLOAD SWAP1 PUSH2 0x100 EXP SWAP1 DIV PUSH20 0xFFFFFFFFFFFFFFFFFFFFFFFFFFFFFFFFFFFFFFFF AND PUSH20 0xFFFFFFFFFFFFFFFFFFFFFFFFFFFFFFFFFFFFFFFF AND PUSH2 0x8FC PUSH2 0x1F6F PUSH1 0x2 DUP5 PUSH2 0x2295 SWAP1 SWAP2 SWAP1 PUSH4 0xFFFFFFFF AND JUMP JUMPDEST SWAP1 DUP2 ISZERO MUL SWAP1 PUSH1 0x40 MLOAD PUSH1 0x0 PUSH1 0x40 MLOAD DUP1 DUP4 SUB DUP2 DUP6 DUP9 DUP9 CALL SWAP4 POP POP POP POP ISZERO DUP1 ISZERO PUSH2 0x1F9A JUMPI RETURNDATASIZE PUSH1 0x0 DUP1 RETURNDATACOPY RETURNDATASIZE PUSH1 0x0 REVERT JUMPDEST POP POP JUMP JUMPDEST PUSH1 0x0 PUSH1 0x6 SLOAD DUP3 GT ISZERO PUSH2 0x1FE5 JUMPI PUSH1 0x40 MLOAD PUSH32 0x8C379A000000000000000000000000000000000000000000000000000000000 DUP2 MSTORE PUSH1 0x4 ADD PUSH2 0x1FDC SWAP1 PUSH2 0x34FC JUMP JUMPDEST PUSH1 0x40 MLOAD DUP1 SWAP2 SUB SWAP1 REVERT JUMPDEST PUSH1 0x0 PUSH2 0x1FEF PUSH2 0x22DF JUMP JUMPDEST SWAP1 POP PUSH2 0x2004 DUP2 DUP5 PUSH2 0x2295 SWAP1 SWAP2 SWAP1 PUSH4 0xFFFFFFFF AND JUMP JUMPDEST SWAP2 POP POP SWAP2 SWAP1 POP JUMP JUMPDEST PUSH1 0x1 PUSH1 0x11 PUSH1 0x14 PUSH2 0x100 EXP DUP2 SLOAD DUP2 PUSH1 0xFF MUL NOT AND SWAP1 DUP4 ISZERO ISZERO MUL OR SWAP1 SSTORE POP PUSH1 0x0 PUSH1 0x2 PUSH8 0xFFFFFFFFFFFFFFFF DUP2 GT ISZERO PUSH2 0x2044 JUMPI PUSH2 0x2043 PUSH2 0x351C JUMP JUMPDEST JUMPDEST PUSH1 0x40 MLOAD SWAP1 DUP1 DUP3 MSTORE DUP1 PUSH1 0x20 MUL PUSH1 0x20 ADD DUP3 ADD PUSH1 0x40 MSTORE DUP1 ISZERO PUSH2 0x2072 JUMPI DUP2 PUSH1 0x20 ADD PUSH1 0x20 DUP3 MUL DUP1 CALLDATASIZE DUP4 CALLDATACOPY DUP1 DUP3 ADD SWAP2 POP POP SWAP1 POP JUMPDEST POP SWAP1 POP ADDRESS DUP2 PUSH1 0x0 DUP2 MLOAD DUP2 LT PUSH2 0x208A JUMPI PUSH2 0x2089 PUSH2 0x306B JUMP JUMPDEST JUMPDEST PUSH1 0x20 MUL PUSH1 0x20 ADD ADD SWAP1 PUSH20 0xFFFFFFFFFFFFFFFFFFFFFFFFFFFFFFFFFFFFFFFF AND SWAP1 DUP2 PUSH20 0xFFFFFFFFFFFFFFFFFFFFFFFFFFFFFFFFFFFFFFFF AND DUP2 MSTORE POP POP PUSH1 0x10 PUSH1 0x0 SWAP1 SLOAD SWAP1 PUSH2 0x100 EXP SWAP1 DIV PUSH20 0xFFFFFFFFFFFFFFFFFFFFFFFFFFFFFFFFFFFFFFFF AND PUSH20 0xFFFFFFFFFFFFFFFFFFFFFFFFFFFFFFFFFFFFFFFF AND PUSH4 0xAD5C4648 PUSH1 0x40 MLOAD DUP2 PUSH4 0xFFFFFFFF AND PUSH1 0xE0 SHL DUP2 MSTORE PUSH1 0x4 ADD PUSH1 0x20 PUSH1 0x40 MLOAD DUP1 DUP4 SUB DUP2 DUP7 GAS STATICCALL ISZERO DUP1 ISZERO PUSH2 0x2131 JUMPI RETURNDATASIZE PUSH1 0x0 DUP1 RETURNDATACOPY RETURNDATASIZE PUSH1 0x0 REVERT JUMPDEST POP POP POP POP PUSH1 0x40 MLOAD RETURNDATASIZE PUSH1 0x1F NOT PUSH1 0x1F DUP3 ADD AND DUP3 ADD DUP1 PUSH1 0x40 MSTORE POP DUP2 ADD SWAP1 PUSH2 0x2155 SWAP2 SWAP1 PUSH2 0x3560 JUMP JUMPDEST DUP2 PUSH1 0x1 DUP2 MLOAD DUP2 LT PUSH2 0x2169 JUMPI PUSH2 0x2168 PUSH2 0x306B JUMP JUMPDEST JUMPDEST PUSH1 0x20 MUL PUSH1 0x20 ADD ADD SWAP1 PUSH20 0xFFFFFFFFFFFFFFFFFFFFFFFFFFFFFFFFFFFFFFFF AND SWAP1 DUP2 PUSH20 0xFFFFFFFFFFFFFFFFFFFFFFFFFFFFFFFFFFFFFFFF AND DUP2 MSTORE POP POP PUSH2 0x21D0 ADDRESS PUSH1 0x10 PUSH1 0x0 SWAP1 SLOAD SWAP1 PUSH2 0x100 EXP SWAP1 DIV PUSH20 0xFFFFFFFFFFFFFFFFFFFFFFFFFFFFFFFFFFFFFFFF AND DUP5 PUSH2 0x1704 JUMP JUMPDEST PUSH1 0x10 PUSH1 0x0 SWAP1 SLOAD SWAP1 PUSH2 0x100 EXP SWAP1 DIV PUSH20 0xFFFFFFFFFFFFFFFFFFFFFFFFFFFFFFFFFFFFFFFF AND PUSH20 0xFFFFFFFFFFFFFFFFFFFFFFFFFFFFFFFFFFFFFFFF AND PUSH4 0x791AC947 DUP4 PUSH1 0x0 DUP5 ADDRESS TIMESTAMP PUSH1 0x40 MLOAD DUP7 PUSH4 0xFFFFFFFF AND PUSH1 0xE0 SHL DUP2 MSTORE PUSH1 0x4 ADD PUSH2 0x2234 SWAP6 SWAP5 SWAP4 SWAP3 SWAP2 SWAP1 PUSH2 0x3686 JUMP JUMPDEST PUSH1 0x0 PUSH1 0x40 MLOAD DUP1 DUP4 SUB DUP2 PUSH1 0x0 DUP8 DUP1 EXTCODESIZE ISZERO DUP1 ISZERO PUSH2 0x224E JUMPI PUSH1 0x0 DUP1 REVERT JUMPDEST POP GAS CALL ISZERO DUP1 ISZERO PUSH2 0x2262 JUMPI RETURNDATASIZE PUSH1 0x0 DUP1 RETURNDATACOPY RETURNDATASIZE PUSH1 0x0 REVERT JUMPDEST POP POP POP POP POP PUSH1 0x0 PUSH1 0x11 PUSH1 0x14 PUSH2 0x100 EXP DUP2 SLOAD DUP2 PUSH1 0xFF MUL NOT AND SWAP1 DUP4 ISZERO ISZERO MUL OR SWAP1 SSTORE POP POP JUMP JUMPDEST PUSH2 0x2290 DUP4 DUP4 DUP4 PUSH2 0x230A JUMP JUMPDEST POP POP POP JUMP JUMPDEST PUSH1 0x0 PUSH2 0x22D7 DUP4 DUP4 PUSH1 0x40 MLOAD DUP1 PUSH1 0x40 ADD PUSH1 0x40 MSTORE DUP1 PUSH1 0x1A DUP2 MSTORE PUSH1 0x20 ADD PUSH32 0x536166654D6174683A206469766973696F6E206279207A65726F000000000000 DUP2 MSTORE POP PUSH2 0x24D5 JUMP JUMPDEST SWAP1 POP SWAP3 SWAP2 POP POP JUMP JUMPDEST PUSH1 0x0 DUP1 PUSH1 0x0 PUSH2 0x22EC PUSH2 0x2538 JUMP JUMPDEST SWAP2 POP SWAP2 POP PUSH2 0x2303 DUP2 DUP4 PUSH2 0x2295 SWAP1 SWAP2 SWAP1 PUSH4 0xFFFFFFFF AND JUMP JUMPDEST SWAP3 POP POP POP SWAP1 JUMP JUMPDEST PUSH1 0x0 DUP1 PUSH1 0x0 DUP1 PUSH1 0x0 DUP1 PUSH2 0x231C DUP8 PUSH2 0x2597 JUMP JUMPDEST SWAP6 POP SWAP6 POP SWAP6 POP SWAP6 POP SWAP6 POP SWAP6 POP PUSH2 0x237A DUP7 PUSH1 0x2 PUSH1 0x0 DUP13 PUSH20 0xFFFFFFFFFFFFFFFFFFFFFFFFFFFFFFFFFFFFFFFF AND PUSH20 0xFFFFFFFFFFFFFFFFFFFFFFFFFFFFFFFFFFFFFFFF AND DUP2 MSTORE PUSH1 0x20 ADD SWAP1 DUP2 MSTORE PUSH1 0x20 ADD PUSH1 0x0 KECCAK256 SLOAD PUSH2 0x25FF SWAP1 SWAP2 SWAP1 PUSH4 0xFFFFFFFF AND JUMP JUMPDEST PUSH1 0x2 PUSH1 0x0 DUP12 PUSH20 0xFFFFFFFFFFFFFFFFFFFFFFFFFFFFFFFFFFFFFFFF AND PUSH20 0xFFFFFFFFFFFFFFFFFFFFFFFFFFFFFFFFFFFFFFFF AND DUP2 MSTORE PUSH1 0x20 ADD SWAP1 DUP2 MSTORE PUSH1 0x20 ADD PUSH1 0x0 KECCAK256 DUP2 SWAP1 SSTORE POP PUSH2 0x240F DUP6 PUSH1 0x2 PUSH1 0x0 DUP12 PUSH20 0xFFFFFFFFFFFFFFFFFFFFFFFFFFFFFFFFFFFFFFFF AND PUSH20 0xFFFFFFFFFFFFFFFFFFFFFFFFFFFFFFFFFFFFFFFF AND DUP2 MSTORE PUSH1 0x20 ADD SWAP1 DUP2 MSTORE PUSH1 0x20 ADD PUSH1 0x0 KECCAK256 SLOAD PUSH2 0x2649 SWAP1 SWAP2 SWAP1 PUSH4 0xFFFFFFFF AND JUMP JUMPDEST PUSH1 0x2 PUSH1 0x0 DUP11 PUSH20 0xFFFFFFFFFFFFFFFFFFFFFFFFFFFFFFFFFFFFFFFF AND PUSH20 0xFFFFFFFFFFFFFFFFFFFFFFFFFFFFFFFFFFFFFFFF AND DUP2 MSTORE PUSH1 0x20 ADD SWAP1 DUP2 MSTORE PUSH1 0x20 ADD PUSH1 0x0 KECCAK256 DUP2 SWAP1 SSTORE POP PUSH2 0x245B DUP2 PUSH2 0x26A7 JUMP JUMPDEST PUSH2 0x2465 DUP5 DUP4 PUSH2 0x2764 JUMP JUMPDEST DUP8 PUSH20 0xFFFFFFFFFFFFFFFFFFFFFFFFFFFFFFFFFFFFFFFF AND DUP10 PUSH20 0xFFFFFFFFFFFFFFFFFFFFFFFFFFFFFFFFFFFFFFFF AND PUSH32 0xDDF252AD1BE2C89B69C2B068FC378DAA952BA7F163C4A11628F55A4DF523B3EF DUP6 PUSH1 0x40 MLOAD PUSH2 0x24C2 SWAP2 SWAP1 PUSH2 0x2B8F JUMP JUMPDEST PUSH1 0x40 MLOAD DUP1 SWAP2 SUB SWAP1 LOG3 POP POP POP POP POP POP POP POP POP JUMP JUMPDEST PUSH1 0x0 DUP1 DUP4 GT DUP3 SWAP1 PUSH2 0x251C JUMPI PUSH1 0x40 MLOAD PUSH32 0x8C379A000000000000000000000000000000000000000000000000000000000 DUP2 MSTORE PUSH1 0x4 ADD PUSH2 0x2513 SWAP2 SWAP1 PUSH2 0x29D0 JUMP JUMPDEST PUSH1 0x40 MLOAD DUP1 SWAP2 SUB SWAP1 REVERT JUMPDEST POP PUSH1 0x0 DUP4 DUP6 PUSH2 0x252B SWAP2 SWAP1 PUSH2 0x370F JUMP JUMPDEST SWAP1 POP DUP1 SWAP2 POP POP SWAP4 SWAP3 POP POP POP JUMP JUMPDEST PUSH1 0x0 DUP1 PUSH1 0x0 PUSH1 0x6 SLOAD SWAP1 POP PUSH1 0x0 PUSH8 0xDE0B6B3A7640000 SWAP1 POP PUSH2 0x256C PUSH8 0xDE0B6B3A7640000 PUSH1 0x6 SLOAD PUSH2 0x2295 SWAP1 SWAP2 SWAP1 PUSH4 0xFFFFFFFF AND JUMP JUMPDEST DUP3 LT ISZERO PUSH2 0x258A JUMPI PUSH1 0x6 SLOAD PUSH8 0xDE0B6B3A7640000 SWAP4 POP SWAP4 POP POP POP PUSH2 0x2593 JUMP JUMPDEST DUP2 DUP2 SWAP4 POP SWAP4 POP POP POP JUMPDEST SWAP1 SWAP2 JUMP JUMPDEST PUSH1 0x0 DUP1 PUSH1 0x0 DUP1 PUSH1 0x0 DUP1 PUSH1 0x0 DUP1 PUSH1 0x0 PUSH2 0x25B4 DUP11 PUSH1 0xC SLOAD PUSH1 0xD SLOAD PUSH2 0x279E JUMP JUMPDEST SWAP3 POP SWAP3 POP SWAP3 POP PUSH1 0x0 PUSH2 0x25C4 PUSH2 0x22DF JUMP JUMPDEST SWAP1 POP PUSH1 0x0 DUP1 PUSH1 0x0 PUSH2 0x25D7 DUP15 DUP8 DUP8 DUP8 PUSH2 0x2834 JUMP JUMPDEST SWAP3 POP SWAP3 POP SWAP3 POP DUP3 DUP3 DUP3 DUP10 DUP10 DUP10 SWAP13 POP SWAP13 POP SWAP13 POP SWAP13 POP SWAP13 POP SWAP13 POP POP POP POP POP POP POP POP SWAP2 SWAP4 SWAP6 POP SWAP2 SWAP4 SWAP6 JUMP JUMPDEST PUSH1 0x0 PUSH2 0x2641 DUP4 DUP4 PUSH1 0x40 MLOAD DUP1 PUSH1 0x40 ADD PUSH1 0x40 MSTORE DUP1 PUSH1 0x1E DUP2 MSTORE PUSH1 0x20 ADD PUSH32 0x536166654D6174683A207375627472616374696F6E206F766572666C6F770000 DUP2 MSTORE POP PUSH2 0x1E3F JUMP JUMPDEST SWAP1 POP SWAP3 SWAP2 POP POP JUMP JUMPDEST PUSH1 0x0 DUP1 DUP3 DUP5 PUSH2 0x2658 SWAP2 SWAP1 PUSH2 0x3740 JUMP JUMPDEST SWAP1 POP DUP4 DUP2 LT ISZERO PUSH2 0x269D JUMPI PUSH1 0x40 MLOAD PUSH32 0x8C379A000000000000000000000000000000000000000000000000000000000 DUP2 MSTORE PUSH1 0x4 ADD PUSH2 0x2694 SWAP1 PUSH2 0x37E2 JUMP JUMPDEST PUSH1 0x40 MLOAD DUP1 SWAP2 SUB SWAP1 REVERT JUMPDEST DUP1 SWAP2 POP POP SWAP3 SWAP2 POP POP JUMP JUMPDEST PUSH1 0x0 PUSH2 0x26B1 PUSH2 0x22DF JUMP JUMPDEST SWAP1 POP PUSH1 0x0 PUSH2 0x26C8 DUP3 DUP5 PUSH2 0x28BD SWAP1 SWAP2 SWAP1 PUSH4 0xFFFFFFFF AND JUMP JUMPDEST SWAP1 POP PUSH2 0x271C DUP2 PUSH1 0x2 PUSH1 0x0 ADDRESS PUSH20 0xFFFFFFFFFFFFFFFFFFFFFFFFFFFFFFFFFFFFFFFF AND PUSH20 0xFFFFFFFFFFFFFFFFFFFFFFFFFFFFFFFFFFFFFFFF AND DUP2 MSTORE PUSH1 0x20 ADD SWAP1 DUP2 MSTORE PUSH1 0x20 ADD PUSH1 0x0 KECCAK256 SLOAD PUSH2 0x2649 SWAP1 SWAP2 SWAP1 PUSH4 0xFFFFFFFF AND JUMP JUMPDEST PUSH1 0x2 PUSH1 0x0 ADDRESS PUSH20 0xFFFFFFFFFFFFFFFFFFFFFFFFFFFFFFFFFFFFFFFF AND PUSH20 0xFFFFFFFFFFFFFFFFFFFFFFFFFFFFFFFFFFFFFFFF AND DUP2 MSTORE PUSH1 0x20 ADD SWAP1 DUP2 MSTORE PUSH1 0x20 ADD PUSH1 0x0 KECCAK256 DUP2 SWAP1 SSTORE POP POP POP POP JUMP JUMPDEST PUSH2 0x2779 DUP3 PUSH1 0x6 SLOAD PUSH2 0x25FF SWAP1 SWAP2 SWAP1 PUSH4 0xFFFFFFFF AND JUMP JUMPDEST PUSH1 0x6 DUP2 SWAP1 SSTORE POP PUSH2 0x2794 DUP2 PUSH1 0x7 SLOAD PUSH2 0x2649 SWAP1 SWAP2 SWAP1 PUSH4 0xFFFFFFFF AND JUMP JUMPDEST PUSH1 0x7 DUP2 SWAP1 SSTORE POP POP POP JUMP JUMPDEST PUSH1 0x0 DUP1 PUSH1 0x0 DUP1 PUSH2 0x27CA PUSH1 0x64 PUSH2 0x27BC DUP9 DUP11 PUSH2 0x28BD SWAP1 SWAP2 SWAP1 PUSH4 0xFFFFFFFF AND JUMP JUMPDEST PUSH2 0x2295 SWAP1 SWAP2 SWAP1 PUSH4 0xFFFFFFFF AND JUMP JUMPDEST SWAP1 POP PUSH1 0x0 PUSH2 0x27F4 PUSH1 0x64 PUSH2 0x27E6 DUP9 DUP12 PUSH2 0x28BD SWAP1 SWAP2 SWAP1 PUSH4 0xFFFFFFFF AND JUMP JUMPDEST PUSH2 0x2295 SWAP1 SWAP2 SWAP1 PUSH4 0xFFFFFFFF AND JUMP JUMPDEST SWAP1 POP PUSH1 0x0 PUSH2 0x281D DUP3 PUSH2 0x280F DUP6 DUP13 PUSH2 0x25FF SWAP1 SWAP2 SWAP1 PUSH4 0xFFFFFFFF AND JUMP JUMPDEST PUSH2 0x25FF SWAP1 SWAP2 SWAP1 PUSH4 0xFFFFFFFF AND JUMP JUMPDEST SWAP1 POP DUP1 DUP4 DUP4 SWAP6 POP SWAP6 POP SWAP6 POP POP POP POP SWAP4 POP SWAP4 POP SWAP4 SWAP1 POP JUMP JUMPDEST PUSH1 0x0 DUP1 PUSH1 0x0 DUP1 PUSH2 0x284D DUP6 DUP10 PUSH2 0x28BD SWAP1 SWAP2 SWAP1 PUSH4 0xFFFFFFFF AND JUMP JUMPDEST SWAP1 POP PUSH1 0x0 PUSH2 0x2864 DUP7 DUP10 PUSH2 0x28BD SWAP1 SWAP2 SWAP1 PUSH4 0xFFFFFFFF AND JUMP JUMPDEST SWAP1 POP PUSH1 0x0 PUSH2 0x287B DUP8 DUP10 PUSH2 0x28BD SWAP1 SWAP2 SWAP1 PUSH4 0xFFFFFFFF AND JUMP JUMPDEST SWAP1 POP PUSH1 0x0 PUSH2 0x28A4 DUP3 PUSH2 0x2896 DUP6 DUP8 PUSH2 0x25FF SWAP1 SWAP2 SWAP1 PUSH4 0xFFFFFFFF AND JUMP JUMPDEST PUSH2 0x25FF SWAP1 SWAP2 SWAP1 PUSH4 0xFFFFFFFF AND JUMP JUMPDEST SWAP1 POP DUP4 DUP2 DUP5 SWAP7 POP SWAP7 POP SWAP7 POP POP POP POP POP SWAP5 POP SWAP5 POP SWAP5 SWAP2 POP POP JUMP JUMPDEST PUSH1 0x0 DUP1 DUP4 SUB PUSH2 0x28CF JUMPI PUSH1 0x0 SWAP1 POP PUSH2 0x2931 JUMP JUMPDEST PUSH1 0x0 DUP3 DUP5 PUSH2 0x28DD SWAP2 SWAP1 PUSH2 0x3802 JUMP JUMPDEST SWAP1 POP DUP3 DUP5 DUP3 PUSH2 0x28EC SWAP2 SWAP1 PUSH2 0x370F JUMP JUMPDEST EQ PUSH2 0x292C JUMPI PUSH1 0x40 MLOAD PUSH32 0x8C379A000000000000000000000000000000000000000000000000000000000 DUP2 MSTORE PUSH1 0x4 ADD PUSH2 0x2923 SWAP1 PUSH2 0x38CE JUMP JUMPDEST PUSH1 0x40 MLOAD DUP1 SWAP2 SUB SWAP1 REVERT JUMPDEST DUP1 SWAP2 POP POP JUMPDEST SWAP3 SWAP2 POP POP JUMP JUMPDEST PUSH1 0x0 DUP2 MLOAD SWAP1 POP SWAP2 SWAP1 POP JUMP JUMPDEST PUSH1 0x0 DUP3 DUP3 MSTORE PUSH1 0x20 DUP3 ADD SWAP1 POP SWAP3 SWAP2 POP POP JUMP JUMPDEST PUSH1 0x0 JUMPDEST DUP4 DUP2 LT ISZERO PUSH2 0x2971 JUMPI DUP1 DUP3 ADD MLOAD DUP2 DUP5 ADD MSTORE PUSH1 0x20 DUP2 ADD SWAP1 POP PUSH2 0x2956 JUMP JUMPDEST DUP4 DUP2 GT ISZERO PUSH2 0x2980 JUMPI PUSH1 0x0 DUP5 DUP5 ADD MSTORE JUMPDEST POP POP POP POP JUMP JUMPDEST PUSH1 0x0 PUSH1 0x1F NOT PUSH1 0x1F DUP4 ADD AND SWAP1 POP SWAP2 SWAP1 POP JUMP JUMPDEST PUSH1 0x0 PUSH2 0x29A2 DUP3 PUSH2 0x2937 JUMP JUMPDEST PUSH2 0x29AC DUP2 DUP6 PUSH2 0x2942 JUMP JUMPDEST SWAP4 POP PUSH2 0x29BC DUP2 DUP6 PUSH1 0x20 DUP7 ADD PUSH2 0x2953 JUMP JUMPDEST PUSH2 0x29C5 DUP2 PUSH2 0x2986 JUMP JUMPDEST DUP5 ADD SWAP2 POP POP SWAP3 SWAP2 POP POP JUMP JUMPDEST PUSH1 0x0 PUSH1 0x20 DUP3 ADD SWAP1 POP DUP2 DUP2 SUB PUSH1 0x0 DUP4 ADD MSTORE PUSH2 0x29EA DUP2 DUP5 PUSH2 0x2997 JUMP JUMPDEST SWAP1 POP SWAP3 SWAP2 POP POP JUMP JUMPDEST PUSH1 0x0 DUP1 REVERT JUMPDEST PUSH1 0x0 DUP1 REVERT JUMPDEST PUSH1 0x0 PUSH20 0xFFFFFFFFFFFFFFFFFFFFFFFFFFFFFFFFFFFFFFFF DUP3 AND SWAP1 POP SWAP2 SWAP1 POP JUMP JUMPDEST PUSH1 0x0 PUSH2 0x2A27 DUP3 PUSH2 0x29FC JUMP JUMPDEST SWAP1 POP SWAP2 SWAP1 POP JUMP JUMPDEST PUSH2 0x2A37 DUP2 PUSH2 0x2A1C JUMP JUMPDEST DUP2 EQ PUSH2 0x2A42 JUMPI PUSH1 0x0 DUP1 REVERT JUMPDEST POP JUMP JUMPDEST PUSH1 0x0 DUP2 CALLDATALOAD SWAP1 POP PUSH2 0x2A54 DUP2 PUSH2 0x2A2E JUMP JUMPDEST SWAP3 SWAP2 POP POP JUMP JUMPDEST PUSH1 0x0 DUP2 SWAP1 POP SWAP2 SWAP1 POP JUMP JUMPDEST PUSH2 0x2A6D DUP2 PUSH2 0x2A5A JUMP JUMPDEST DUP2 EQ PUSH2 0x2A78 JUMPI PUSH1 0x0 DUP1 REVERT JUMPDEST POP JUMP JUMPDEST PUSH1 0x0 DUP2 CALLDATALOAD SWAP1 POP PUSH2 0x2A8A DUP2 PUSH2 0x2A64 JUMP JUMPDEST SWAP3 SWAP2 POP POP JUMP JUMPDEST PUSH1 0x0 DUP1 PUSH1 0x40 DUP4 DUP6 SUB SLT ISZERO PUSH2 0x2AA7 JUMPI PUSH2 0x2AA6 PUSH2 0x29F2 JUMP JUMPDEST JUMPDEST PUSH1 0x0 PUSH2 0x2AB5 DUP6 DUP3 DUP7 ADD PUSH2 0x2A45 JUMP JUMPDEST SWAP3 POP POP PUSH1 0x20 PUSH2 0x2AC6 DUP6 DUP3 DUP7 ADD PUSH2 0x2A7B JUMP JUMPDEST SWAP2 POP POP SWAP3 POP SWAP3 SWAP1 POP JUMP JUMPDEST PUSH1 0x0 DUP2 ISZERO ISZERO SWAP1 POP SWAP2 SWAP1 POP JUMP JUMPDEST PUSH2 0x2AE5 DUP2 PUSH2 0x2AD0 JUMP JUMPDEST DUP3 MSTORE POP POP JUMP JUMPDEST PUSH1 0x0 PUSH1 0x20 DUP3 ADD SWAP1 POP PUSH2 0x2B00 PUSH1 0x0 DUP4 ADD DUP5 PUSH2 0x2ADC JUMP JUMPDEST SWAP3 SWAP2 POP POP JUMP JUMPDEST PUSH1 0x0 DUP2 SWAP1 POP SWAP2 SWAP1 POP JUMP JUMPDEST PUSH1 0x0 PUSH2 0x2B2B PUSH2 0x2B26 PUSH2 0x2B21 DUP5 PUSH2 0x29FC JUMP JUMPDEST PUSH2 0x2B06 JUMP JUMPDEST PUSH2 0x29FC JUMP JUMPDEST SWAP1 POP SWAP2 SWAP1 POP JUMP JUMPDEST PUSH1 0x0 PUSH2 0x2B3D DUP3 PUSH2 0x2B10 JUMP JUMPDEST SWAP1 POP SWAP2 SWAP1 POP JUMP JUMPDEST PUSH1 0x0 PUSH2 0x2B4F DUP3 PUSH2 0x2B32 JUMP JUMPDEST SWAP1 POP SWAP2 SWAP1 POP JUMP JUMPDEST PUSH2 0x2B5F DUP2 PUSH2 0x2B44 JUMP JUMPDEST DUP3 MSTORE POP POP JUMP JUMPDEST PUSH1 0x0 PUSH1 0x20 DUP3 ADD SWAP1 POP PUSH2 0x2B7A PUSH1 0x0 DUP4 ADD DUP5 PUSH2 0x2B56 JUMP JUMPDEST SWAP3 SWAP2 POP POP JUMP JUMPDEST PUSH2 0x2B89 DUP2 PUSH2 0x2A5A JUMP JUMPDEST DUP3 MSTORE POP POP JUMP JUMPDEST PUSH1 0x0 PUSH1 0x20 DUP3 ADD SWAP1 POP PUSH2 0x2BA4 PUSH1 0x0 DUP4 ADD DUP5 PUSH2 0x2B80 JUMP JUMPDEST SWAP3 SWAP2 POP POP JUMP JUMPDEST PUSH1 0x0 DUP1 PUSH1 0x0 PUSH1 0x60 DUP5 DUP7 SUB SLT ISZERO PUSH2 0x2BC3 JUMPI PUSH2 0x2BC2 PUSH2 0x29F2 JUMP JUMPDEST JUMPDEST PUSH1 0x0 PUSH2 0x2BD1 DUP7 DUP3 DUP8 ADD PUSH2 0x2A45 JUMP JUMPDEST SWAP4 POP POP PUSH1 0x20 PUSH2 0x2BE2 DUP7 DUP3 DUP8 ADD PUSH2 0x2A45 JUMP JUMPDEST SWAP3 POP POP PUSH1 0x40 PUSH2 0x2BF3 DUP7 DUP3 DUP8 ADD PUSH2 0x2A7B JUMP JUMPDEST SWAP2 POP POP SWAP3 POP SWAP3 POP SWAP3 JUMP JUMPDEST PUSH1 0x0 PUSH1 0xFF DUP3 AND SWAP1 POP SWAP2 SWAP1 POP JUMP JUMPDEST PUSH2 0x2C13 DUP2 PUSH2 0x2BFD JUMP JUMPDEST DUP3 MSTORE POP POP JUMP JUMPDEST PUSH1 0x0 PUSH1 0x20 DUP3 ADD SWAP1 POP PUSH2 0x2C2E PUSH1 0x0 DUP4 ADD DUP5 PUSH2 0x2C0A JUMP JUMPDEST SWAP3 SWAP2 POP POP JUMP JUMPDEST PUSH2 0x2C3D DUP2 PUSH2 0x2A1C JUMP JUMPDEST DUP3 MSTORE POP POP JUMP JUMPDEST PUSH1 0x0 PUSH1 0x20 DUP3 ADD SWAP1 POP PUSH2 0x2C58 PUSH1 0x0 DUP4 ADD DUP5 PUSH2 0x2C34 JUMP JUMPDEST SWAP3 SWAP2 POP POP JUMP JUMPDEST PUSH2 0x2C67 DUP2 PUSH2 0x2AD0 JUMP JUMPDEST DUP2 EQ PUSH2 0x2C72 JUMPI PUSH1 0x0 DUP1 REVERT JUMPDEST POP JUMP JUMPDEST PUSH1 0x0 DUP2 CALLDATALOAD SWAP1 POP PUSH2 0x2C84 DUP2 PUSH2 0x2C5E JUMP JUMPDEST SWAP3 SWAP2 POP POP JUMP JUMPDEST PUSH1 0x0 PUSH1 0x20 DUP3 DUP5 SUB SLT ISZERO PUSH2 0x2CA0 JUMPI PUSH2 0x2C9F PUSH2 0x29F2 JUMP JUMPDEST JUMPDEST PUSH1 0x0 PUSH2 0x2CAE DUP5 DUP3 DUP6 ADD PUSH2 0x2C75 JUMP JUMPDEST SWAP2 POP POP SWAP3 SWAP2 POP POP JUMP JUMPDEST PUSH1 0x0 PUSH1 0x20 DUP3 DUP5 SUB SLT ISZERO PUSH2 0x2CCD JUMPI PUSH2 0x2CCC PUSH2 0x29F2 JUMP JUMPDEST JUMPDEST PUSH1 0x0 PUSH2 0x2CDB DUP5 DUP3 DUP6 ADD PUSH2 0x2A45 JUMP JUMPDEST SWAP2 POP POP SWAP3 SWAP2 POP POP JUMP JUMPDEST PUSH1 0x0 PUSH2 0x2CEF DUP3 PUSH2 0x29FC JUMP JUMPDEST SWAP1 POP SWAP2 SWAP1 POP JUMP JUMPDEST PUSH2 0x2CFF DUP2 PUSH2 0x2CE4 JUMP JUMPDEST DUP2 EQ PUSH2 0x2D0A JUMPI PUSH1 0x0 DUP1 REVERT JUMPDEST POP JUMP JUMPDEST PUSH1 0x0 DUP2 CALLDATALOAD SWAP1 POP PUSH2 0x2D1C DUP2 PUSH2 0x2CF6 JUMP JUMPDEST SWAP3 SWAP2 POP POP JUMP JUMPDEST PUSH1 0x0 PUSH1 0x20 DUP3 DUP5 SUB SLT ISZERO PUSH2 0x2D38 JUMPI PUSH2 0x2D37 PUSH2 0x29F2 JUMP JUMPDEST JUMPDEST PUSH1 0x0 PUSH2 0x2D46 DUP5 DUP3 DUP6 ADD PUSH2 0x2D0D JUMP JUMPDEST SWAP2 POP POP SWAP3 SWAP2 POP POP JUMP JUMPDEST PUSH1 0x0 DUP1 PUSH1 0x0 DUP1 PUSH1 0x80 DUP6 DUP8 SUB SLT ISZERO PUSH2 0x2D69 JUMPI PUSH2 0x2D68 PUSH2 0x29F2 JUMP JUMPDEST JUMPDEST PUSH1 0x0 PUSH2 0x2D77 DUP8 DUP3 DUP9 ADD PUSH2 0x2A7B JUMP JUMPDEST SWAP5 POP POP PUSH1 0x20 PUSH2 0x2D88 DUP8 DUP3 DUP9 ADD PUSH2 0x2A7B JUMP JUMPDEST SWAP4 POP POP PUSH1 0x40 PUSH2 0x2D99 DUP8 DUP3 DUP9 ADD PUSH2 0x2A7B JUMP JUMPDEST SWAP3 POP POP PUSH1 0x60 PUSH2 0x2DAA DUP8 DUP3 DUP9 ADD PUSH2 0x2A7B JUMP JUMPDEST SWAP2 POP POP SWAP3 SWAP6 SWAP2 SWAP5 POP SWAP3 POP JUMP JUMPDEST PUSH1 0x0 DUP1 REVERT JUMPDEST PUSH1 0x0 DUP1 REVERT JUMPDEST PUSH1 0x0 DUP1 REVERT JUMPDEST PUSH1 0x0 DUP1 DUP4 PUSH1 0x1F DUP5 ADD SLT PUSH2 0x2DDB JUMPI PUSH2 0x2DDA PUSH2 0x2DB6 JUMP JUMPDEST JUMPDEST DUP3 CALLDATALOAD SWAP1 POP PUSH8 0xFFFFFFFFFFFFFFFF DUP2 GT ISZERO PUSH2 0x2DF8 JUMPI PUSH2 0x2DF7 PUSH2 0x2DBB JUMP JUMPDEST JUMPDEST PUSH1 0x20 DUP4 ADD SWAP2 POP DUP4 PUSH1 0x20 DUP3 MUL DUP4 ADD GT ISZERO PUSH2 0x2E14 JUMPI PUSH2 0x2E13 PUSH2 0x2DC0 JUMP JUMPDEST JUMPDEST SWAP3 POP SWAP3 SWAP1 POP JUMP JUMPDEST PUSH1 0x0 DUP1 PUSH1 0x0 PUSH1 0x40 DUP5 DUP7 SUB SLT ISZERO PUSH2 0x2E34 JUMPI PUSH2 0x2E33 PUSH2 0x29F2 JUMP JUMPDEST JUMPDEST PUSH1 0x0 DUP5 ADD CALLDATALOAD PUSH8 0xFFFFFFFFFFFFFFFF DUP2 GT ISZERO PUSH2 0x2E52 JUMPI PUSH2 0x2E51 PUSH2 0x29F7 JUMP JUMPDEST JUMPDEST PUSH2 0x2E5E DUP7 DUP3 DUP8 ADD PUSH2 0x2DC5 JUMP JUMPDEST SWAP4 POP SWAP4 POP POP PUSH1 0x20 PUSH2 0x2E71 DUP7 DUP3 DUP8 ADD PUSH2 0x2C75 JUMP JUMPDEST SWAP2 POP POP SWAP3 POP SWAP3 POP SWAP3 JUMP JUMPDEST PUSH1 0x0 DUP1 PUSH1 0x40 DUP4 DUP6 SUB SLT ISZERO PUSH2 0x2E92 JUMPI PUSH2 0x2E91 PUSH2 0x29F2 JUMP JUMPDEST JUMPDEST PUSH1 0x0 PUSH2 0x2EA0 DUP6 DUP3 DUP7 ADD PUSH2 0x2A45 JUMP JUMPDEST SWAP3 POP POP PUSH1 0x20 PUSH2 0x2EB1 DUP6 DUP3 DUP7 ADD PUSH2 0x2A45 JUMP JUMPDEST SWAP2 POP POP SWAP3 POP SWAP3 SWAP1 POP JUMP JUMPDEST PUSH32 0x43616C6C6572206973206E6F7420746865206465760000000000000000000000 PUSH1 0x0 DUP3 ADD MSTORE POP JUMP JUMPDEST PUSH1 0x0 PUSH2 0x2EF1 PUSH1 0x15 DUP4 PUSH2 0x2942 JUMP JUMPDEST SWAP2 POP PUSH2 0x2EFC DUP3 PUSH2 0x2EBB JUMP JUMPDEST PUSH1 0x20 DUP3 ADD SWAP1 POP SWAP2 SWAP1 POP JUMP JUMPDEST PUSH1 0x0 PUSH1 0x20 DUP3 ADD SWAP1 POP DUP2 DUP2 SUB PUSH1 0x0 DUP4 ADD MSTORE PUSH2 0x2F20 DUP2 PUSH2 0x2EE4 JUMP JUMPDEST SWAP1 POP SWAP2 SWAP1 POP JUMP JUMPDEST PUSH32 0x43616C6C6572206973206E6F7420746865206F776E6572000000000000000000 PUSH1 0x0 DUP3 ADD MSTORE POP JUMP JUMPDEST PUSH1 0x0 PUSH2 0x2F5D PUSH1 0x17 DUP4 PUSH2 0x2942 JUMP JUMPDEST SWAP2 POP PUSH2 0x2F68 DUP3 PUSH2 0x2F27 JUMP JUMPDEST PUSH1 0x20 DUP3 ADD SWAP1 POP SWAP2 SWAP1 POP JUMP JUMPDEST PUSH1 0x0 PUSH1 0x20 DUP3 ADD SWAP1 POP DUP2 DUP2 SUB PUSH1 0x0 DUP4 ADD MSTORE PUSH2 0x2F8C DUP2 PUSH2 0x2F50 JUMP JUMPDEST SWAP1 POP SWAP2 SWAP1 POP JUMP JUMPDEST PUSH32 0x52656469732063616E6E6F74206265206D6F7265207468616E2031302E000000 PUSH1 0x0 DUP3 ADD MSTORE POP JUMP JUMPDEST PUSH1 0x0 PUSH2 0x2FC9 PUSH1 0x1D DUP4 PUSH2 0x2942 JUMP JUMPDEST SWAP2 POP PUSH2 0x2FD4 DUP3 PUSH2 0x2F93 JUMP JUMPDEST PUSH1 0x20 DUP3 ADD SWAP1 POP SWAP2 SWAP1 POP JUMP JUMPDEST PUSH1 0x0 PUSH1 0x20 DUP3 ADD SWAP1 POP DUP2 DUP2 SUB PUSH1 0x0 DUP4 ADD MSTORE PUSH2 0x2FF8 DUP2 PUSH2 0x2FBC JUMP JUMPDEST SWAP1 POP SWAP2 SWAP1 POP JUMP JUMPDEST PUSH32 0x5461782063616E6E6F74206265206D6F7265207468616E20362E000000000000 PUSH1 0x0 DUP3 ADD MSTORE POP JUMP JUMPDEST PUSH1 0x0 PUSH2 0x3035 PUSH1 0x1A DUP4 PUSH2 0x2942 JUMP JUMPDEST SWAP2 POP PUSH2 0x3040 DUP3 PUSH2 0x2FFF JUMP JUMPDEST PUSH1 0x20 DUP3 ADD SWAP1 POP SWAP2 SWAP1 POP JUMP JUMPDEST PUSH1 0x0 PUSH1 0x20 DUP3 ADD SWAP1 POP DUP2 DUP2 SUB PUSH1 0x0 DUP4 ADD MSTORE PUSH2 0x3064 DUP2 PUSH2 0x3028 JUMP JUMPDEST SWAP1 POP SWAP2 SWAP1 POP JUMP JUMPDEST PUSH32 0x4E487B7100000000000000000000000000000000000000000000000000000000 PUSH1 0x0 MSTORE PUSH1 0x32 PUSH1 0x4 MSTORE PUSH1 0x24 PUSH1 0x0 REVERT JUMPDEST PUSH32 0x4E487B7100000000000000000000000000000000000000000000000000000000 PUSH1 0x0 MSTORE PUSH1 0x11 PUSH1 0x4 MSTORE PUSH1 0x24 PUSH1 0x0 REVERT JUMPDEST PUSH1 0x0 PUSH2 0x30D4 DUP3 PUSH2 0x2A5A JUMP JUMPDEST SWAP2 POP PUSH32 0xFFFFFFFFFFFFFFFFFFFFFFFFFFFFFFFFFFFFFFFFFFFFFFFFFFFFFFFFFFFFFFFF DUP3 SUB PUSH2 0x3106 JUMPI PUSH2 0x3105 PUSH2 0x309A JUMP JUMPDEST JUMPDEST PUSH1 0x1 DUP3 ADD SWAP1 POP SWAP2 SWAP1 POP JUMP JUMPDEST PUSH1 0x0 PUSH1 0x40 DUP3 ADD SWAP1 POP PUSH2 0x3126 PUSH1 0x0 DUP4 ADD DUP6 PUSH2 0x2C34 JUMP JUMPDEST PUSH2 0x3133 PUSH1 0x20 DUP4 ADD DUP5 PUSH2 0x2B80 JUMP JUMPDEST SWAP4 SWAP3 POP POP POP JUMP JUMPDEST PUSH1 0x0 DUP2 MLOAD SWAP1 POP PUSH2 0x3149 DUP2 PUSH2 0x2C5E JUMP JUMPDEST SWAP3 SWAP2 POP POP JUMP JUMPDEST PUSH1 0x0 PUSH1 0x20 DUP3 DUP5 SUB SLT ISZERO PUSH2 0x3165 JUMPI PUSH2 0x3164 PUSH2 0x29F2 JUMP JUMPDEST JUMPDEST PUSH1 0x0 PUSH2 0x3173 DUP5 DUP3 DUP6 ADD PUSH2 0x313A JUMP JUMPDEST SWAP2 POP POP SWAP3 SWAP2 POP POP JUMP JUMPDEST PUSH32 0x45524332303A20617070726F76652066726F6D20746865207A65726F20616464 PUSH1 0x0 DUP3 ADD MSTORE PUSH32 0x7265737300000000000000000000000000000000000000000000000000000000 PUSH1 0x20 DUP3 ADD MSTORE POP JUMP JUMPDEST PUSH1 0x0 PUSH2 0x31D8 PUSH1 0x24 DUP4 PUSH2 0x2942 JUMP JUMPDEST SWAP2 POP PUSH2 0x31E3 DUP3 PUSH2 0x317C JUMP JUMPDEST PUSH1 0x40 DUP3 ADD SWAP1 POP SWAP2 SWAP1 POP JUMP JUMPDEST PUSH1 0x0 PUSH1 0x20 DUP3 ADD SWAP1 POP DUP2 DUP2 SUB PUSH1 0x0 DUP4 ADD MSTORE PUSH2 0x3207 DUP2 PUSH2 0x31CB JUMP JUMPDEST SWAP1 POP SWAP2 SWAP1 POP JUMP JUMPDEST PUSH32 0x45524332303A20617070726F766520746F20746865207A65726F206164647265 PUSH1 0x0 DUP3 ADD MSTORE PUSH32 0x7373000000000000000000000000000000000000000000000000000000000000 PUSH1 0x20 DUP3 ADD MSTORE POP JUMP JUMPDEST PUSH1 0x0 PUSH2 0x326A PUSH1 0x22 DUP4 PUSH2 0x2942 JUMP JUMPDEST SWAP2 POP PUSH2 0x3275 DUP3 PUSH2 0x320E JUMP JUMPDEST PUSH1 0x40 DUP3 ADD SWAP1 POP SWAP2 SWAP1 POP JUMP JUMPDEST PUSH1 0x0 PUSH1 0x20 DUP3 ADD SWAP1 POP DUP2 DUP2 SUB PUSH1 0x0 DUP4 ADD MSTORE PUSH2 0x3299 DUP2 PUSH2 0x325D JUMP JUMPDEST SWAP1 POP SWAP2 SWAP1 POP JUMP JUMPDEST PUSH32 0x45524332303A207472616E736665722066726F6D20746865207A65726F206164 PUSH1 0x0 DUP3 ADD MSTORE PUSH32 0x6472657373000000000000000000000000000000000000000000000000000000 PUSH1 0x20 DUP3 ADD MSTORE POP JUMP JUMPDEST PUSH1 0x0 PUSH2 0x32FC PUSH1 0x25 DUP4 PUSH2 0x2942 JUMP JUMPDEST SWAP2 POP PUSH2 0x3307 DUP3 PUSH2 0x32A0 JUMP JUMPDEST PUSH1 0x40 DUP3 ADD SWAP1 POP SWAP2 SWAP1 POP JUMP JUMPDEST PUSH1 0x0 PUSH1 0x20 DUP3 ADD SWAP1 POP DUP2 DUP2 SUB PUSH1 0x0 DUP4 ADD MSTORE PUSH2 0x332B DUP2 PUSH2 0x32EF JUMP JUMPDEST SWAP1 POP SWAP2 SWAP1 POP JUMP JUMPDEST PUSH32 0x45524332303A207472616E7366657220746F20746865207A65726F2061646472 PUSH1 0x0 DUP3 ADD MSTORE PUSH32 0x6573730000000000000000000000000000000000000000000000000000000000 PUSH1 0x20 DUP3 ADD MSTORE POP JUMP JUMPDEST PUSH1 0x0 PUSH2 0x338E PUSH1 0x23 DUP4 PUSH2 0x2942 JUMP JUMPDEST SWAP2 POP PUSH2 0x3399 DUP3 PUSH2 0x3332 JUMP JUMPDEST PUSH1 0x40 DUP3 ADD SWAP1 POP SWAP2 SWAP1 POP JUMP JUMPDEST PUSH1 0x0 PUSH1 0x20 DUP3 ADD SWAP1 POP DUP2 DUP2 SUB PUSH1 0x0 DUP4 ADD MSTORE PUSH2 0x33BD DUP2 PUSH2 0x3381 JUMP JUMPDEST SWAP1 POP SWAP2 SWAP1 POP JUMP JUMPDEST PUSH32 0x5472616E7366657220616D6F756E74206D757374206265206772656174657220 PUSH1 0x0 DUP3 ADD MSTORE PUSH32 0x7468616E207A65726F0000000000000000000000000000000000000000000000 PUSH1 0x20 DUP3 ADD MSTORE POP JUMP JUMPDEST PUSH1 0x0 PUSH2 0x3420 PUSH1 0x29 DUP4 PUSH2 0x2942 JUMP JUMPDEST SWAP2 POP PUSH2 0x342B DUP3 PUSH2 0x33C4 JUMP JUMPDEST PUSH1 0x40 DUP3 ADD SWAP1 POP SWAP2 SWAP1 POP JUMP JUMPDEST PUSH1 0x0 PUSH1 0x20 DUP3 ADD SWAP1 POP DUP2 DUP2 SUB PUSH1 0x0 DUP4 ADD MSTORE PUSH2 0x344F DUP2 PUSH2 0x3413 JUMP JUMPDEST SWAP1 POP SWAP2 SWAP1 POP JUMP JUMPDEST PUSH1 0x0 PUSH2 0x3461 DUP3 PUSH2 0x2A5A JUMP JUMPDEST SWAP2 POP PUSH2 0x346C DUP4 PUSH2 0x2A5A JUMP JUMPDEST SWAP3 POP DUP3 DUP3 LT ISZERO PUSH2 0x347F JUMPI PUSH2 0x347E PUSH2 0x309A JUMP JUMPDEST JUMPDEST DUP3 DUP3 SUB SWAP1 POP SWAP3 SWAP2 POP POP JUMP JUMPDEST PUSH32 0x416D6F756E74206D757374206265206C657373207468616E20746F74616C2072 PUSH1 0x0 DUP3 ADD MSTORE PUSH32 0x65666C656374696F6E7300000000000000000000000000000000000000000000 PUSH1 0x20 DUP3 ADD MSTORE POP JUMP JUMPDEST PUSH1 0x0 PUSH2 0x34E6 PUSH1 0x2A DUP4 PUSH2 0x2942 JUMP JUMPDEST SWAP2 POP PUSH2 0x34F1 DUP3 PUSH2 0x348A JUMP JUMPDEST PUSH1 0x40 DUP3 ADD SWAP1 POP SWAP2 SWAP1 POP JUMP JUMPDEST PUSH1 0x0 PUSH1 0x20 DUP3 ADD SWAP1 POP DUP2 DUP2 SUB PUSH1 0x0 DUP4 ADD MSTORE PUSH2 0x3515 DUP2 PUSH2 0x34D9 JUMP JUMPDEST SWAP1 POP SWAP2 SWAP1 POP JUMP JUMPDEST PUSH32 0x4E487B7100000000000000000000000000000000000000000000000000000000 PUSH1 0x0 MSTORE PUSH1 0x41 PUSH1 0x4 MSTORE PUSH1 0x24 PUSH1 0x0 REVERT JUMPDEST PUSH1 0x0 DUP2 MLOAD SWAP1 POP PUSH2 0x355A DUP2 PUSH2 0x2A2E JUMP JUMPDEST SWAP3 SWAP2 POP POP JUMP JUMPDEST PUSH1 0x0 PUSH1 0x20 DUP3 DUP5 SUB SLT ISZERO PUSH2 0x3576 JUMPI PUSH2 0x3575 PUSH2 0x29F2 JUMP JUMPDEST JUMPDEST PUSH1 0x0 PUSH2 0x3584 DUP5 DUP3 DUP6 ADD PUSH2 0x354B JUMP JUMPDEST SWAP2 POP POP SWAP3 SWAP2 POP POP JUMP JUMPDEST PUSH1 0x0 DUP2 SWAP1 POP SWAP2 SWAP1 POP JUMP JUMPDEST PUSH1 0x0 PUSH2 0x35B2 PUSH2 0x35AD PUSH2 0x35A8 DUP5 PUSH2 0x358D JUMP JUMPDEST PUSH2 0x2B06 JUMP JUMPDEST PUSH2 0x2A5A JUMP JUMPDEST SWAP1 POP SWAP2 SWAP1 POP JUMP JUMPDEST PUSH2 0x35C2 DUP2 PUSH2 0x3597 JUMP JUMPDEST DUP3 MSTORE POP POP JUMP JUMPDEST PUSH1 0x0 DUP2 MLOAD SWAP1 POP SWAP2 SWAP1 POP JUMP JUMPDEST PUSH1 0x0 DUP3 DUP3 MSTORE PUSH1 0x20 DUP3 ADD SWAP1 POP SWAP3 SWAP2 POP POP JUMP JUMPDEST PUSH1 0x0 DUP2 SWAP1 POP PUSH1 0x20 DUP3 ADD SWAP1 POP SWAP2 SWAP1 POP JUMP JUMPDEST PUSH2 0x35FD DUP2 PUSH2 0x2A1C JUMP JUMPDEST DUP3 MSTORE POP POP JUMP JUMPDEST PUSH1 0x0 PUSH2 0x360F DUP4 DUP4 PUSH2 0x35F4 JUMP JUMPDEST PUSH1 0x20 DUP4 ADD SWAP1 POP SWAP3 SWAP2 POP POP JUMP JUMPDEST PUSH1 0x0 PUSH1 0x20 DUP3 ADD SWAP1 POP SWAP2 SWAP1 POP JUMP JUMPDEST PUSH1 0x0 PUSH2 0x3633 DUP3 PUSH2 0x35C8 JUMP JUMPDEST PUSH2 0x363D DUP2 DUP6 PUSH2 0x35D3 JUMP JUMPDEST SWAP4 POP PUSH2 0x3648 DUP4 PUSH2 0x35E4 JUMP JUMPDEST DUP1 PUSH1 0x0 JUMPDEST DUP4 DUP2 LT ISZERO PUSH2 0x3679 JUMPI DUP2 MLOAD PUSH2 0x3660 DUP9 DUP3 PUSH2 0x3603 JUMP JUMPDEST SWAP8 POP PUSH2 0x366B DUP4 PUSH2 0x361B JUMP JUMPDEST SWAP3 POP POP PUSH1 0x1 DUP2 ADD SWAP1 POP PUSH2 0x364C JUMP JUMPDEST POP DUP6 SWAP4 POP POP POP POP SWAP3 SWAP2 POP POP JUMP JUMPDEST PUSH1 0x0 PUSH1 0xA0 DUP3 ADD SWAP1 POP PUSH2 0x369B PUSH1 0x0 DUP4 ADD DUP9 PUSH2 0x2B80 JUMP JUMPDEST PUSH2 0x36A8 PUSH1 0x20 DUP4 ADD DUP8 PUSH2 0x35B9 JUMP JUMPDEST DUP2 DUP2 SUB PUSH1 0x40 DUP4 ADD MSTORE PUSH2 0x36BA DUP2 DUP7 PUSH2 0x3628 JUMP JUMPDEST SWAP1 POP PUSH2 0x36C9 PUSH1 0x60 DUP4 ADD DUP6 PUSH2 0x2C34 JUMP JUMPDEST PUSH2 0x36D6 PUSH1 0x80 DUP4 ADD DUP5 PUSH2 0x2B80 JUMP JUMPDEST SWAP7 SWAP6 POP POP POP POP POP POP JUMP JUMPDEST PUSH32 0x4E487B7100000000000000000000000000000000000000000000000000000000 PUSH1 0x0 MSTORE PUSH1 0x12 PUSH1 0x4 MSTORE PUSH1 0x24 PUSH1 0x0 REVERT JUMPDEST PUSH1 0x0 PUSH2 0x371A DUP3 PUSH2 0x2A5A JUMP JUMPDEST SWAP2 POP PUSH2 0x3725 DUP4 PUSH2 0x2A5A JUMP JUMPDEST SWAP3 POP DUP3 PUSH2 0x3735 JUMPI PUSH2 0x3734 PUSH2 0x36E0 JUMP JUMPDEST JUMPDEST DUP3 DUP3 DIV SWAP1 POP SWAP3 SWAP2 POP POP JUMP JUMPDEST PUSH1 0x0 PUSH2 0x374B DUP3 PUSH2 0x2A5A JUMP JUMPDEST SWAP2 POP PUSH2 0x3756 DUP4 PUSH2 0x2A5A JUMP JUMPDEST SWAP3 POP DUP3 PUSH32 0xFFFFFFFFFFFFFFFFFFFFFFFFFFFFFFFFFFFFFFFFFFFFFFFFFFFFFFFFFFFFFFFF SUB DUP3 GT ISZERO PUSH2 0x378B JUMPI PUSH2 0x378A PUSH2 0x309A JUMP JUMPDEST JUMPDEST DUP3 DUP3 ADD SWAP1 POP SWAP3 SWAP2 POP POP JUMP JUMPDEST PUSH32 0x536166654D6174683A206164646974696F6E206F766572666C6F770000000000 PUSH1 0x0 DUP3 ADD MSTORE POP JUMP JUMPDEST PUSH1 0x0 PUSH2 0x37CC PUSH1 0x1B DUP4 PUSH2 0x2942 JUMP JUMPDEST SWAP2 POP PUSH2 0x37D7 DUP3 PUSH2 0x3796 JUMP JUMPDEST PUSH1 0x20 DUP3 ADD SWAP1 POP SWAP2 SWAP1 POP JUMP JUMPDEST PUSH1 0x0 PUSH1 0x20 DUP3 ADD SWAP1 POP DUP2 DUP2 SUB PUSH1 0x0 DUP4 ADD MSTORE PUSH2 0x37FB DUP2 PUSH2 0x37BF JUMP JUMPDEST SWAP1 POP SWAP2 SWAP1 POP JUMP JUMPDEST PUSH1 0x0 PUSH2 0x380D DUP3 PUSH2 0x2A5A JUMP JUMPDEST SWAP2 POP PUSH2 0x3818 DUP4 PUSH2 0x2A5A JUMP JUMPDEST SWAP3 POP DUP2 PUSH32 0xFFFFFFFFFFFFFFFFFFFFFFFFFFFFFFFFFFFFFFFFFFFFFFFFFFFFFFFFFFFFFFFF DIV DUP4 GT DUP3 ISZERO ISZERO AND ISZERO PUSH2 0x3851 JUMPI PUSH2 0x3850 PUSH2 0x309A JUMP JUMPDEST JUMPDEST DUP3 DUP3 MUL SWAP1 POP SWAP3 SWAP2 POP POP JUMP JUMPDEST PUSH32 0x536166654D6174683A206D756C7469706C69636174696F6E206F766572666C6F PUSH1 0x0 DUP3 ADD MSTORE PUSH32 0x7700000000000000000000000000000000000000000000000000000000000000 PUSH1 0x20 DUP3 ADD MSTORE POP JUMP JUMPDEST PUSH1 0x0 PUSH2 0x38B8 PUSH1 0x21 DUP4 PUSH2 0x2942 JUMP JUMPDEST SWAP2 POP PUSH2 0x38C3 DUP3 PUSH2 0x385C JUMP JUMPDEST PUSH1 0x40 DUP3 ADD SWAP1 POP SWAP2 SWAP1 POP JUMP JUMPDEST PUSH1 0x0 PUSH1 0x20 DUP3 ADD SWAP1 POP DUP2 DUP2 SUB PUSH1 0x0 DUP4 ADD MSTORE PUSH2 0x38E7 DUP2 PUSH2 0x38AB JUMP JUMPDEST SWAP1 POP SWAP2 SWAP1 POP JUMP INVALID GASLIMIT MSTORE NUMBER ORIGIN ADDRESS GASPRICE KECCAK256 PUSH21 0x72616E7366657220616D6F756E7420657863656564 PUSH20 0x20616C6C6F77616E6365A2646970667358221220 REVERT 0xD2 XOR CHAINID DUP12 0xC3 KECCAK256 0xEF 0xC8 0x2A SWAP12 CALL 0xDD PUSH1 0x17 MSTORE8 0xF8 EXP DIV LT CALLVALUE SWAP14 DUP14 XOR 0xDD LOG4 0x26 ADDRESS PUSH13 0x36ABBC64736F6C634300080D00 CALLER "
				},
				"gasEstimates": {
					"creation": {
						"codeDepositCost": "2933600",
						"executionCost": "infinite",
						"totalCost": "infinite"
					},
					"external": {
						"allowance(address,address)": "infinite",
						"approve(address,uint256)": "infinite",
						"balanceOf(address)": "infinite",
						"decimals()": "366",
						"excludeMultipleAccountsFromFees(address[],bool)": "infinite",
						"manualsend()": "infinite",
						"manualswap()": "infinite",
						"name()": "infinite",
						"owner()": "2567",
						"renounceOwnership()": "30424",
						"rescueForeignTokens(address,address,uint256)": "infinite",
						"setFee(uint256,uint256,uint256,uint256)": "infinite",
						"setNewDevAddress(address)": "infinite",
						"setNewMarketingAddress(address)": "infinite",
						"symbol()": "infinite",
						"toggleSwap(bool)": "infinite",
						"totalSupply()": "427",
						"transfer(address,uint256)": "infinite",
						"transferFrom(address,address,uint256)": "infinite",
						"transferOwnership(address)": "30734",
						"uniswapV2Pair()": "2559",
						"uniswapV2Router()": "infinite"
					},
					"internal": {
						"_approve(address,address,uint256)": "infinite",
						"_getCurrentSupply()": "infinite",
						"_getRValues(uint256,uint256,uint256,uint256)": "infinite",
						"_getRate()": "infinite",
						"_getTValues(uint256,uint256,uint256)": "infinite",
						"_getValues(uint256)": "infinite",
						"_reflectFee(uint256,uint256)": "infinite",
						"_takeTeam(uint256)": "infinite",
						"_tokenTransfer(address,address,uint256)": "infinite",
						"_transfer(address,address,uint256)": "infinite",
						"_transferStandard(address,address,uint256)": "infinite",
						"sendETHToFee(uint256)": "infinite",
						"swapTokensForEth(uint256)": "infinite",
						"tokenFromReflection(uint256)": "infinite"
					}
				},
				"methodIdentifiers": {
					"allowance(address,address)": "dd62ed3e",
					"approve(address,uint256)": "095ea7b3",
					"balanceOf(address)": "70a08231",
					"decimals()": "313ce567",
					"excludeMultipleAccountsFromFees(address[],bool)": "c492f046",
					"manualsend()": "6fc3eaec",
					"manualswap()": "c3c8cd80",
					"name()": "06fdde03",
					"owner()": "8da5cb5b",
					"renounceOwnership()": "715018a6",
					"rescueForeignTokens(address,address,uint256)": "e293d316",
					"setFee(uint256,uint256,uint256,uint256)": "a2a957bb",
					"setNewDevAddress(address)": "aad5c023",
					"setNewMarketingAddress(address)": "758dbe03",
					"symbol()": "95d89b41",
					"toggleSwap(bool)": "6d8aa8f8",
					"totalSupply()": "18160ddd",
					"transfer(address,uint256)": "a9059cbb",
					"transferFrom(address,address,uint256)": "23b872dd",
					"transferOwnership(address)": "f2fde38b",
					"uniswapV2Pair()": "49bd5a5e",
					"uniswapV2Router()": "1694505e"
				}
			},
			"storageLayout": {
				"storage": [
					{
						"astId": 305,
						"contract": "contracts/Pool/Pool.sol:World_Step",
						"label": "_owner",
						"offset": 0,
						"slot": "0",
						"type": "t_address"
					},
					{
						"astId": 307,
						"contract": "contracts/Pool/Pool.sol:World_Step",
						"label": "_previousOwner",
						"offset": 0,
						"slot": "1",
						"type": "t_address"
					},
					{
						"astId": 406,
						"contract": "contracts/Pool/Pool.sol:World_Step",
						"label": "_rOwned",
						"offset": 0,
						"slot": "2",
						"type": "t_mapping(t_address,t_uint256)"
					},
					{
						"astId": 410,
						"contract": "contracts/Pool/Pool.sol:World_Step",
						"label": "_tOwned",
						"offset": 0,
						"slot": "3",
						"type": "t_mapping(t_address,t_uint256)"
					},
					{
						"astId": 416,
						"contract": "contracts/Pool/Pool.sol:World_Step",
						"label": "_allowances",
						"offset": 0,
						"slot": "4",
						"type": "t_mapping(t_address,t_mapping(t_address,t_uint256))"
					},
					{
						"astId": 420,
						"contract": "contracts/Pool/Pool.sol:World_Step",
						"label": "_isExcludedFromFee",
						"offset": 0,
						"slot": "5",
						"type": "t_mapping(t_address,t_bool)"
					},
					{
						"astId": 451,
						"contract": "contracts/Pool/Pool.sol:World_Step",
						"label": "_rTotal",
						"offset": 0,
						"slot": "6",
						"type": "t_uint256"
					},
					{
						"astId": 453,
						"contract": "contracts/Pool/Pool.sol:World_Step",
						"label": "_tFeeTotal",
						"offset": 0,
						"slot": "7",
						"type": "t_uint256"
					},
					{
						"astId": 456,
						"contract": "contracts/Pool/Pool.sol:World_Step",
						"label": "_redisFeeOnBuy",
						"offset": 0,
						"slot": "8",
						"type": "t_uint256"
					},
					{
						"astId": 459,
						"contract": "contracts/Pool/Pool.sol:World_Step",
						"label": "_taxFeeOnBuy",
						"offset": 0,
						"slot": "9",
						"type": "t_uint256"
					},
					{
						"astId": 462,
						"contract": "contracts/Pool/Pool.sol:World_Step",
						"label": "_redisFeeOnSell",
						"offset": 0,
						"slot": "10",
						"type": "t_uint256"
					},
					{
						"astId": 465,
						"contract": "contracts/Pool/Pool.sol:World_Step",
						"label": "_taxFeeOnSell",
						"offset": 0,
						"slot": "11",
						"type": "t_uint256"
					},
					{
						"astId": 467,
						"contract": "contracts/Pool/Pool.sol:World_Step",
						"label": "_redisFee",
						"offset": 0,
						"slot": "12",
						"type": "t_uint256"
					},
					{
						"astId": 469,
						"contract": "contracts/Pool/Pool.sol:World_Step",
						"label": "_taxFee",
						"offset": 0,
						"slot": "13",
						"type": "t_uint256"
					},
					{
						"astId": 484,
						"contract": "contracts/Pool/Pool.sol:World_Step",
						"label": "_developmentAddress",
						"offset": 0,
						"slot": "14",
						"type": "t_address_payable"
					},
					{
						"astId": 490,
						"contract": "contracts/Pool/Pool.sol:World_Step",
						"label": "_marketingAddress",
						"offset": 0,
						"slot": "15",
						"type": "t_address_payable"
					},
					{
						"astId": 493,
						"contract": "contracts/Pool/Pool.sol:World_Step",
						"label": "uniswapV2Router",
						"offset": 0,
						"slot": "16",
						"type": "t_contract(IUniswapV2Router02)145"
					},
					{
						"astId": 495,
						"contract": "contracts/Pool/Pool.sol:World_Step",
						"label": "uniswapV2Pair",
						"offset": 0,
						"slot": "17",
						"type": "t_address"
					},
					{
						"astId": 498,
						"contract": "contracts/Pool/Pool.sol:World_Step",
						"label": "inSwap",
						"offset": 20,
						"slot": "17",
						"type": "t_bool"
					},
					{
						"astId": 501,
						"contract": "contracts/Pool/Pool.sol:World_Step",
						"label": "swapEnabled",
						"offset": 21,
						"slot": "17",
						"type": "t_bool"
					}
				],
				"types": {
					"t_address": {
						"encoding": "inplace",
						"label": "address",
						"numberOfBytes": "20"
					},
					"t_address_payable": {
						"encoding": "inplace",
						"label": "address payable",
						"numberOfBytes": "20"
					},
					"t_bool": {
						"encoding": "inplace",
						"label": "bool",
						"numberOfBytes": "1"
					},
					"t_contract(IUniswapV2Router02)145": {
						"encoding": "inplace",
						"label": "contract IUniswapV2Router02",
						"numberOfBytes": "20"
					},
					"t_mapping(t_address,t_bool)": {
						"encoding": "mapping",
						"key": "t_address",
						"label": "mapping(address => bool)",
						"numberOfBytes": "32",
						"value": "t_bool"
					},
					"t_mapping(t_address,t_mapping(t_address,t_uint256))": {
						"encoding": "mapping",
						"key": "t_address",
						"label": "mapping(address => mapping(address => uint256))",
						"numberOfBytes": "32",
						"value": "t_mapping(t_address,t_uint256)"
					},
					"t_mapping(t_address,t_uint256)": {
						"encoding": "mapping",
						"key": "t_address",
						"label": "mapping(address => uint256)",
						"numberOfBytes": "32",
						"value": "t_uint256"
					},
					"t_uint256": {
						"encoding": "inplace",
						"label": "uint256",
						"numberOfBytes": "32"
					}
				}
			},
			"userdoc": {
				"kind": "user",
				"methods": {},
				"version": 1
			}
		}
	}
}