{
	"contracts/Pool/Pool.sol": {
		"World_Step": {
			"abi": [
				{
					"inputs": [],
					"stateMutability": "nonpayable",
					"type": "constructor"
				},
				{
					"anonymous": false,
					"inputs": [
						{
							"indexed": true,
							"internalType": "address",
							"name": "owner",
							"type": "address"
						},
						{
							"indexed": true,
							"internalType": "address",
							"name": "spender",
							"type": "address"
						},
						{
							"indexed": false,
							"internalType": "uint256",
							"name": "value",
							"type": "uint256"
						}
					],
					"name": "Approval",
					"type": "event"
				},
				{
					"anonymous": false,
					"inputs": [
						{
							"indexed": true,
							"internalType": "address",
							"name": "previousOwner",
							"type": "address"
						},
						{
							"indexed": true,
							"internalType": "address",
							"name": "newOwner",
							"type": "address"
						}
					],
					"name": "OwnershipTransferred",
					"type": "event"
				},
				{
					"anonymous": false,
					"inputs": [
						{
							"indexed": true,
							"internalType": "address",
							"name": "from",
							"type": "address"
						},
						{
							"indexed": true,
							"internalType": "address",
							"name": "to",
							"type": "address"
						},
						{
							"indexed": false,
							"internalType": "uint256",
							"name": "value",
							"type": "uint256"
						}
					],
					"name": "Transfer",
					"type": "event"
				},
				{
					"anonymous": false,
					"inputs": [
						{
							"indexed": true,
							"internalType": "address",
							"name": "previous",
							"type": "address"
						},
						{
							"indexed": true,
							"internalType": "address",
							"name": "adr",
							"type": "address"
						}
					],
					"name": "devAddressUpdated",
					"type": "event"
				},
				{
					"anonymous": false,
					"inputs": [
						{
							"indexed": true,
							"internalType": "address",
							"name": "previous",
							"type": "address"
						},
						{
							"indexed": true,
							"internalType": "address",
							"name": "adr",
							"type": "address"
						}
					],
					"name": "marketingAddressUpdated",
					"type": "event"
				},
				{
					"anonymous": false,
					"inputs": [
						{
							"indexed": true,
							"internalType": "address",
							"name": "token",
							"type": "address"
						},
						{
							"indexed": true,
							"internalType": "address",
							"name": "to",
							"type": "address"
						},
						{
							"indexed": false,
							"internalType": "uint256",
							"name": "amount",
							"type": "uint256"
						}
					],
					"name": "tokensRescued",
					"type": "event"
				},
				{
					"inputs": [
						{
							"internalType": "address",
							"name": "owner",
							"type": "address"
						},
						{
							"internalType": "address",
							"name": "spender",
							"type": "address"
						}
					],
					"name": "allowance",
					"outputs": [
						{
							"internalType": "uint256",
							"name": "",
							"type": "uint256"
						}
					],
					"stateMutability": "view",
					"type": "function"
				},
				{
					"inputs": [
						{
							"internalType": "address",
							"name": "spender",
							"type": "address"
						},
						{
							"internalType": "uint256",
							"name": "amount",
							"type": "uint256"
						}
					],
					"name": "approve",
					"outputs": [
						{
							"internalType": "bool",
							"name": "",
							"type": "bool"
						}
					],
					"stateMutability": "nonpayable",
					"type": "function"
				},
				{
					"inputs": [
						{
							"internalType": "address",
							"name": "account",
							"type": "address"
						}
					],
					"name": "balanceOf",
					"outputs": [
						{
							"internalType": "uint256",
							"name": "",
							"type": "uint256"
						}
					],
					"stateMutability": "view",
					"type": "function"
				},
				{
					"inputs": [],
					"name": "decimals",
					"outputs": [
						{
							"internalType": "uint8",
							"name": "",
							"type": "uint8"
						}
					],
					"stateMutability": "pure",
					"type": "function"
				},
				{
					"inputs": [
						{
							"internalType": "address[]",
							"name": "accounts",
							"type": "address[]"
						},
						{
							"internalType": "bool",
							"name": "excluded",
							"type": "bool"
						}
					],
					"name": "excludeMultipleAccountsFromFees",
					"outputs": [],
					"stateMutability": "nonpayable",
					"type": "function"
				},
				{
					"inputs": [],
					"name": "getUniswap",
					"outputs": [
						{
							"internalType": "contract IUniswapV2Router02",
							"name": "",
							"type": "address"
						}
					],
					"stateMutability": "view",
					"type": "function"
				},
				{
					"inputs": [],
					"name": "manualsend",
					"outputs": [],
					"stateMutability": "nonpayable",
					"type": "function"
				},
				{
					"inputs": [],
					"name": "manualswap",
					"outputs": [],
					"stateMutability": "nonpayable",
					"type": "function"
				},
				{
					"inputs": [],
					"name": "name",
					"outputs": [
						{
							"internalType": "string",
							"name": "",
							"type": "string"
						}
					],
					"stateMutability": "pure",
					"type": "function"
				},
				{
					"inputs": [],
					"name": "owner",
					"outputs": [
						{
							"internalType": "address",
							"name": "",
							"type": "address"
						}
					],
					"stateMutability": "view",
					"type": "function"
				},
				{
					"inputs": [],
					"name": "renounceOwnership",
					"outputs": [],
					"stateMutability": "nonpayable",
					"type": "function"
				},
				{
					"inputs": [
						{
							"internalType": "address",
							"name": "_tokenAddr",
							"type": "address"
						},
						{
							"internalType": "address",
							"name": "_to",
							"type": "address"
						},
						{
							"internalType": "uint256",
							"name": "_amount",
							"type": "uint256"
						}
					],
					"name": "rescueForeignTokens",
					"outputs": [],
					"stateMutability": "nonpayable",
					"type": "function"
				},
				{
					"inputs": [
						{
							"internalType": "uint256",
							"name": "redisFeeOnBuy",
							"type": "uint256"
						},
						{
							"internalType": "uint256",
							"name": "redisFeeOnSell",
							"type": "uint256"
						},
						{
							"internalType": "uint256",
							"name": "taxFeeOnBuy",
							"type": "uint256"
						},
						{
							"internalType": "uint256",
							"name": "taxFeeOnSell",
							"type": "uint256"
						}
					],
					"name": "setFee",
					"outputs": [],
					"stateMutability": "nonpayable",
					"type": "function"
				},
				{
					"inputs": [
						{
							"internalType": "address payable",
							"name": "dev",
							"type": "address"
						}
					],
					"name": "setNewDevAddress",
					"outputs": [],
					"stateMutability": "nonpayable",
					"type": "function"
				},
				{
					"inputs": [
						{
							"internalType": "address payable",
							"name": "markt",
							"type": "address"
						}
					],
					"name": "setNewMarketingAddress",
					"outputs": [],
					"stateMutability": "nonpayable",
					"type": "function"
				},
				{
					"inputs": [],
					"name": "symbol",
					"outputs": [
						{
							"internalType": "string",
							"name": "",
							"type": "string"
						}
					],
					"stateMutability": "pure",
					"type": "function"
				},
				{
					"inputs": [
						{
							"internalType": "bool",
							"name": "_swapEnabled",
							"type": "bool"
						}
					],
					"name": "toggleSwap",
					"outputs": [],
					"stateMutability": "nonpayable",
					"type": "function"
				},
				{
					"inputs": [],
					"name": "totalSupply",
					"outputs": [
						{
							"internalType": "uint256",
							"name": "",
							"type": "uint256"
						}
					],
					"stateMutability": "pure",
					"type": "function"
				},
				{
					"inputs": [
						{
							"internalType": "address",
							"name": "recipient",
							"type": "address"
						},
						{
							"internalType": "uint256",
							"name": "amount",
							"type": "uint256"
						}
					],
					"name": "transfer",
					"outputs": [
						{
							"internalType": "bool",
							"name": "",
							"type": "bool"
						}
					],
					"stateMutability": "nonpayable",
					"type": "function"
				},
				{
					"inputs": [
						{
							"internalType": "address",
							"name": "sender",
							"type": "address"
						},
						{
							"internalType": "address",
							"name": "recipient",
							"type": "address"
						},
						{
							"internalType": "uint256",
							"name": "amount",
							"type": "uint256"
						}
					],
					"name": "transferFrom",
					"outputs": [
						{
							"internalType": "bool",
							"name": "",
							"type": "bool"
						}
					],
					"stateMutability": "nonpayable",
					"type": "function"
				},
				{
					"inputs": [
						{
							"internalType": "address",
							"name": "newOwner",
							"type": "address"
						}
					],
					"name": "transferOwnership",
					"outputs": [],
					"stateMutability": "nonpayable",
					"type": "function"
				},
				{
					"inputs": [],
					"name": "uniswapV2Factory",
					"outputs": [
						{
							"internalType": "contract IUniswapV2Factory",
							"name": "",
							"type": "address"
						}
					],
					"stateMutability": "view",
					"type": "function"
				},
				{
					"inputs": [],
					"name": "uniswapV2Pair",
					"outputs": [
						{
							"internalType": "address",
							"name": "",
							"type": "address"
						}
					],
					"stateMutability": "view",
					"type": "function"
				},
				{
					"inputs": [],
					"name": "uniswapV2Router",
					"outputs": [
						{
							"internalType": "contract IUniswapV2Router02",
							"name": "",
							"type": "address"
						}
					],
					"stateMutability": "view",
					"type": "function"
				},
				{
					"stateMutability": "payable",
					"type": "receive"
				}
			],
			"devdoc": {
				"kind": "dev",
				"methods": {},
				"version": 1
			},
			"evm": {
				"assembly": "    /* \"contracts/Pool/Pool.sol\":3787:15630  contract World_Step is Context, IERC20, Ownable {... */\n  mstore(0x40, 0x80)\n    /* \"contracts/Pool/Pool.sol\":4200:4213  1*10**9*10**9 */\n  0x0de0b6b3a7640000\n    /* \"contracts/Pool/Pool.sol\":4147:4159  1*10**9*10*9 */\n  0x14f46b0400\n    /* \"contracts/Pool/Pool.sol\":4253:4266  MAX % _tTotal */\n  tag_1\n  swap2\n  swap1\n  tag_2\n  jump\t// in\ntag_1:\n    /* \"contracts/Pool/Pool.sol\":4147:4159  1*10**9*10*9 */\n  0x14f46b0400\n    /* \"contracts/Pool/Pool.sol\":4246:4267  MAX - (MAX % _tTotal) */\n  tag_3\n  swap2\n  swap1\n  tag_4\n  jump\t// in\ntag_3:\n    /* \"contracts/Pool/Pool.sol\":4219:4268  uint256 private _rTotal = (MAX - (MAX % _tTotal)) */\n  0x06\n  sstore\n    /* \"contracts/Pool/Pool.sol\":4344:4345  1 */\n  0x01\n    /* \"contracts/Pool/Pool.sol\":4311:4345  uint256 private _redisFeeOnBuy = 1 */\n  0x08\n  sstore\n    /* \"contracts/Pool/Pool.sol\":4382:4383  4 */\n  0x04\n    /* \"contracts/Pool/Pool.sol\":4351:4383  uint256 private _taxFeeOnBuy = 4 */\n  0x09\n  sstore\n    /* \"contracts/Pool/Pool.sol\":4428:4429  1 */\n  0x01\n    /* \"contracts/Pool/Pool.sol\":4394:4429  uint256 private _redisFeeOnSell = 1 */\n  0x0a\n  sstore\n    /* \"contracts/Pool/Pool.sol\":4467:4468  1 */\n  0x01\n    /* \"contracts/Pool/Pool.sol\":4435:4468  uint256 private _taxFeeOnSell = 1 */\n  0x0b\n  sstore\n    /* \"contracts/Pool/Pool.sol\":4740:4782  0x8492cbd894686D7e98214541903c7BA6f94928D6 */\n  0x8492cbd894686d7e98214541903c7ba6f94928d6\n    /* \"contracts/Pool/Pool.sol\":4686:4783  address payable private _developmentAddress = payable(0x8492cbd894686D7e98214541903c7BA6f94928D6) */\n  0x0e\n  exp(0x0100, 0x00)\n  dup2\n  sload\n  dup2\n  0xffffffffffffffffffffffffffffffffffffffff\n  mul\n  not\n  and\n  swap1\n  dup4\n  0xffffffffffffffffffffffffffffffffffffffff\n  and\n  mul\n  or\n  swap1\n  sstore\n  pop\n    /* \"contracts/Pool/Pool.sol\":4841:4883  0xa4eD7aa4eF5deB0A63e97d9Cb77445aE553feb1d */\n  0xa4ed7aa4ef5deb0a63e97d9cb77445ae553feb1d\n    /* \"contracts/Pool/Pool.sol\":4789:4884  address payable private _marketingAddress = payable(0xa4eD7aa4eF5deB0A63e97d9Cb77445aE553feb1d) */\n  0x0f\n  exp(0x0100, 0x00)\n  dup2\n  sload\n  dup2\n  0xffffffffffffffffffffffffffffffffffffffff\n  mul\n  not\n  and\n  swap1\n  dup4\n  0xffffffffffffffffffffffffffffffffffffffff\n  and\n  mul\n  or\n  swap1\n  sstore\n  pop\n    /* \"contracts/Pool/Pool.sol\":5047:5052  false */\n  0x00\n    /* \"contracts/Pool/Pool.sol\":5025:5052  bool private inSwap = false */\n  0x12\n  exp(0x0100, 0x14)\n  dup2\n  sload\n  dup2\n  0xff\n  mul\n  not\n  and\n  swap1\n  dup4\n  iszero\n  iszero\n  mul\n  or\n  swap1\n  sstore\n  pop\n    /* \"contracts/Pool/Pool.sol\":5085:5089  true */\n  0x01\n    /* \"contracts/Pool/Pool.sol\":5058:5089  bool private swapEnabled = true */\n  0x12\n  exp(0x0100, 0x15)\n  dup2\n  sload\n  dup2\n  0xff\n  mul\n  not\n  and\n  swap1\n  dup4\n  iszero\n  iszero\n  mul\n  or\n  swap1\n  sstore\n  pop\n    /* \"contracts/Pool/Pool.sol\":5191:6037  constructor () {... */\n  callvalue\n  dup1\n  iszero\n  tag_5\n  jumpi\n  0x00\n  dup1\n  revert\ntag_5:\n  pop\n    /* \"contracts/Pool/Pool.sol\":3054:3071  address msgSender */\n  0x00\n    /* \"contracts/Pool/Pool.sol\":3074:3086  _msgSender() */\n  tag_9\n    /* \"contracts/Pool/Pool.sol\":3074:3084  _msgSender */\n  shl(0x20, tag_10)\n    /* \"contracts/Pool/Pool.sol\":3074:3086  _msgSender() */\n  0x20\n  shr\n  jump\t// in\ntag_9:\n    /* \"contracts/Pool/Pool.sol\":3054:3086  address msgSender = _msgSender() */\n  swap1\n  pop\n    /* \"contracts/Pool/Pool.sol\":3105:3114  msgSender */\n  dup1\n    /* \"contracts/Pool/Pool.sol\":3096:3102  _owner */\n  0x00\n  dup1\n    /* \"contracts/Pool/Pool.sol\":3096:3114  _owner = msgSender */\n  0x0100\n  exp\n  dup2\n  sload\n  dup2\n  0xffffffffffffffffffffffffffffffffffffffff\n  mul\n  not\n  and\n  swap1\n  dup4\n  0xffffffffffffffffffffffffffffffffffffffff\n  and\n  mul\n  or\n  swap1\n  sstore\n  pop\n    /* \"contracts/Pool/Pool.sol\":3162:3171  msgSender */\n  dup1\n    /* \"contracts/Pool/Pool.sol\":3129:3172  OwnershipTransferred(address(0), msgSender) */\n  0xffffffffffffffffffffffffffffffffffffffff\n  and\n    /* \"contracts/Pool/Pool.sol\":3158:3159  0 */\n  0x00\n    /* \"contracts/Pool/Pool.sol\":3129:3172  OwnershipTransferred(address(0), msgSender) */\n  0xffffffffffffffffffffffffffffffffffffffff\n  and\n  0x8be0079c531659141344cd1fd0a4f28419497f9722a3daafe3b4186f6b6457e0\n  mload(0x40)\n  mload(0x40)\n  dup1\n  swap2\n  sub\n  swap1\n  log3\n    /* \"contracts/Pool/Pool.sol\":3044:3179  {... */\n  pop\n    /* \"contracts/Pool/Pool.sol\":5240:5247  _rTotal */\n  sload(0x06)\n    /* \"contracts/Pool/Pool.sol\":5216:5223  _rOwned */\n  0x02\n    /* \"contracts/Pool/Pool.sol\":5216:5237  _rOwned[_msgSender()] */\n  0x00\n    /* \"contracts/Pool/Pool.sol\":5224:5236  _msgSender() */\n  tag_12\n    /* \"contracts/Pool/Pool.sol\":5224:5234  _msgSender */\n  shl(0x20, tag_10)\n    /* \"contracts/Pool/Pool.sol\":5224:5236  _msgSender() */\n  0x20\n  shr\n  jump\t// in\ntag_12:\n    /* \"contracts/Pool/Pool.sol\":5216:5237  _rOwned[_msgSender()] */\n  0xffffffffffffffffffffffffffffffffffffffff\n  and\n  0xffffffffffffffffffffffffffffffffffffffff\n  and\n  dup2\n  mstore\n  0x20\n  add\n  swap1\n  dup2\n  mstore\n  0x20\n  add\n  0x00\n  keccak256\n    /* \"contracts/Pool/Pool.sol\":5216:5247  _rOwned[_msgSender()] = _rTotal */\n  dup2\n  swap1\n  sstore\n  pop\n    /* \"contracts/Pool/Pool.sol\":5266:5301  IUniswapV2Router02 _uniswapV2Router */\n  0x00\n    /* \"contracts/Pool/Pool.sol\":5331:5373  0x10ED43C718714eb63d5aA57B78B54704E256024E */\n  0x10ed43c718714eb63d5aa57b78b54704e256024e\n    /* \"contracts/Pool/Pool.sol\":5266:5375  IUniswapV2Router02 _uniswapV2Router = IUniswapV2Router02(address(0x10ED43C718714eb63d5aA57B78B54704E256024E)) */\n  swap1\n  pop\n    /* \"contracts/Pool/Pool.sol\":5403:5419  _uniswapV2Router */\n  dup1\n    /* \"contracts/Pool/Pool.sol\":5385:5400  uniswapV2Router */\n  0x10\n  0x00\n    /* \"contracts/Pool/Pool.sol\":5385:5419  uniswapV2Router = _uniswapV2Router */\n  0x0100\n  exp\n  dup2\n  sload\n  dup2\n  0xffffffffffffffffffffffffffffffffffffffff\n  mul\n  not\n  and\n  swap1\n  dup4\n  0xffffffffffffffffffffffffffffffffffffffff\n  and\n  mul\n  or\n  swap1\n  sstore\n  pop\n    /* \"contracts/Pool/Pool.sol\":5799:5803  true */\n  0x01\n    /* \"contracts/Pool/Pool.sol\":5769:5787  _isExcludedFromFee */\n  0x05\n    /* \"contracts/Pool/Pool.sol\":5769:5796  _isExcludedFromFee[owner()] */\n  0x00\n    /* \"contracts/Pool/Pool.sol\":5788:5795  owner() */\n  tag_13\n    /* \"contracts/Pool/Pool.sol\":5788:5793  owner */\n  shl(0x20, tag_14)\n    /* \"contracts/Pool/Pool.sol\":5788:5795  owner() */\n  0x20\n  shr\n  jump\t// in\ntag_13:\n    /* \"contracts/Pool/Pool.sol\":5769:5796  _isExcludedFromFee[owner()] */\n  0xffffffffffffffffffffffffffffffffffffffff\n  and\n  0xffffffffffffffffffffffffffffffffffffffff\n  and\n  dup2\n  mstore\n  0x20\n  add\n  swap1\n  dup2\n  mstore\n  0x20\n  add\n  0x00\n  keccak256\n  0x00\n    /* \"contracts/Pool/Pool.sol\":5769:5803  _isExcludedFromFee[owner()] = true */\n  0x0100\n  exp\n  dup2\n  sload\n  dup2\n  0xff\n  mul\n  not\n  and\n  swap1\n  dup4\n  iszero\n  iszero\n  mul\n  or\n  swap1\n  sstore\n  pop\n    /* \"contracts/Pool/Pool.sol\":5849:5853  true */\n  0x01\n    /* \"contracts/Pool/Pool.sol\":5813:5831  _isExcludedFromFee */\n  0x05\n    /* \"contracts/Pool/Pool.sol\":5813:5846  _isExcludedFromFee[address(this)] */\n  0x00\n    /* \"contracts/Pool/Pool.sol\":5840:5844  this */\n  address\n    /* \"contracts/Pool/Pool.sol\":5813:5846  _isExcludedFromFee[address(this)] */\n  0xffffffffffffffffffffffffffffffffffffffff\n  and\n  0xffffffffffffffffffffffffffffffffffffffff\n  and\n  dup2\n  mstore\n  0x20\n  add\n  swap1\n  dup2\n  mstore\n  0x20\n  add\n  0x00\n  keccak256\n  0x00\n    /* \"contracts/Pool/Pool.sol\":5813:5853  _isExcludedFromFee[address(this)] = true */\n  0x0100\n  exp\n  dup2\n  sload\n  dup2\n  0xff\n  mul\n  not\n  and\n  swap1\n  dup4\n  iszero\n  iszero\n  mul\n  or\n  swap1\n  sstore\n  pop\n    /* \"contracts/Pool/Pool.sol\":5905:5909  true */\n  0x01\n    /* \"contracts/Pool/Pool.sol\":5863:5881  _isExcludedFromFee */\n  0x05\n    /* \"contracts/Pool/Pool.sol\":5863:5902  _isExcludedFromFee[_developmentAddress] */\n  0x00\n    /* \"contracts/Pool/Pool.sol\":5882:5901  _developmentAddress */\n  0x0e\n  0x00\n  swap1\n  sload\n  swap1\n  0x0100\n  exp\n  swap1\n  div\n  0xffffffffffffffffffffffffffffffffffffffff\n  and\n    /* \"contracts/Pool/Pool.sol\":5863:5902  _isExcludedFromFee[_developmentAddress] */\n  0xffffffffffffffffffffffffffffffffffffffff\n  and\n  0xffffffffffffffffffffffffffffffffffffffff\n  and\n  dup2\n  mstore\n  0x20\n  add\n  swap1\n  dup2\n  mstore\n  0x20\n  add\n  0x00\n  keccak256\n  0x00\n    /* \"contracts/Pool/Pool.sol\":5863:5909  _isExcludedFromFee[_developmentAddress] = true */\n  0x0100\n  exp\n  dup2\n  sload\n  dup2\n  0xff\n  mul\n  not\n  and\n  swap1\n  dup4\n  iszero\n  iszero\n  mul\n  or\n  swap1\n  sstore\n  pop\n    /* \"contracts/Pool/Pool.sol\":5959:5963  true */\n  0x01\n    /* \"contracts/Pool/Pool.sol\":5919:5937  _isExcludedFromFee */\n  0x05\n    /* \"contracts/Pool/Pool.sol\":5919:5956  _isExcludedFromFee[_marketingAddress] */\n  0x00\n    /* \"contracts/Pool/Pool.sol\":5938:5955  _marketingAddress */\n  0x0f\n  0x00\n  swap1\n  sload\n  swap1\n  0x0100\n  exp\n  swap1\n  div\n  0xffffffffffffffffffffffffffffffffffffffff\n  and\n    /* \"contracts/Pool/Pool.sol\":5919:5956  _isExcludedFromFee[_marketingAddress] */\n  0xffffffffffffffffffffffffffffffffffffffff\n  and\n  0xffffffffffffffffffffffffffffffffffffffff\n  and\n  dup2\n  mstore\n  0x20\n  add\n  swap1\n  dup2\n  mstore\n  0x20\n  add\n  0x00\n  keccak256\n  0x00\n    /* \"contracts/Pool/Pool.sol\":5919:5963  _isExcludedFromFee[_marketingAddress] = true */\n  0x0100\n  exp\n  dup2\n  sload\n  dup2\n  0xff\n  mul\n  not\n  and\n  swap1\n  dup4\n  iszero\n  iszero\n  mul\n  or\n  swap1\n  sstore\n  pop\n    /* \"contracts/Pool/Pool.sol\":6008:6020  _msgSender() */\n  tag_15\n    /* \"contracts/Pool/Pool.sol\":6008:6018  _msgSender */\n  shl(0x20, tag_10)\n    /* \"contracts/Pool/Pool.sol\":6008:6020  _msgSender() */\n  0x20\n  shr\n  jump\t// in\ntag_15:\n    /* \"contracts/Pool/Pool.sol\":5987:6030  Transfer(address(0), _msgSender(), _tTotal) */\n  0xffffffffffffffffffffffffffffffffffffffff\n  and\n    /* \"contracts/Pool/Pool.sol\":6004:6005  0 */\n  0x00\n    /* \"contracts/Pool/Pool.sol\":5987:6030  Transfer(address(0), _msgSender(), _tTotal) */\n  0xffffffffffffffffffffffffffffffffffffffff\n  and\n  0xddf252ad1be2c89b69c2b068fc378daa952ba7f163c4a11628f55a4df523b3ef\n    /* \"contracts/Pool/Pool.sol\":4200:4213  1*10**9*10**9 */\n  0x0de0b6b3a7640000\n    /* \"contracts/Pool/Pool.sol\":5987:6030  Transfer(address(0), _msgSender(), _tTotal) */\n  mload(0x40)\n  tag_16\n  swap2\n  swap1\n  tag_17\n  jump\t// in\ntag_16:\n  mload(0x40)\n  dup1\n  swap2\n  sub\n  swap1\n  log3\n    /* \"contracts/Pool/Pool.sol\":5206:6037  {... */\n  pop\n    /* \"contracts/Pool/Pool.sol\":3787:15630  contract World_Step is Context, IERC20, Ownable {... */\n  jump(tag_18)\n    /* \"contracts/Pool/Pool.sol\":1721:1817  function _msgSender() internal view virtual returns (address) {... */\ntag_10:\n    /* \"contracts/Pool/Pool.sol\":1774:1781  address */\n  0x00\n    /* \"contracts/Pool/Pool.sol\":1800:1810  msg.sender */\n  caller\n    /* \"contracts/Pool/Pool.sol\":1793:1810  return msg.sender */\n  swap1\n  pop\n    /* \"contracts/Pool/Pool.sol\":1721:1817  function _msgSender() internal view virtual returns (address) {... */\n  swap1\n  jump\t// out\n    /* \"contracts/Pool/Pool.sol\":3185:3262  function owner() public view returns (address) {... */\ntag_14:\n    /* \"contracts/Pool/Pool.sol\":3223:3230  address */\n  0x00\n    /* \"contracts/Pool/Pool.sol\":3249:3255  _owner */\n  dup1\n  0x00\n  swap1\n  sload\n  swap1\n  0x0100\n  exp\n  swap1\n  div\n  0xffffffffffffffffffffffffffffffffffffffff\n  and\n    /* \"contracts/Pool/Pool.sol\":3242:3255  return _owner */\n  swap1\n  pop\n    /* \"contracts/Pool/Pool.sol\":3185:3262  function owner() public view returns (address) {... */\n  swap1\n  jump\t// out\n    /* \"#utility.yul\":7:84   */\ntag_21:\n    /* \"#utility.yul\":44:51   */\n  0x00\n    /* \"#utility.yul\":73:78   */\n  dup2\n    /* \"#utility.yul\":62:78   */\n  swap1\n  pop\n    /* \"#utility.yul\":7:84   */\n  swap2\n  swap1\n  pop\n  jump\t// out\n    /* \"#utility.yul\":90:270   */\ntag_22:\n    /* \"#utility.yul\":138:215   */\n  0x4e487b7100000000000000000000000000000000000000000000000000000000\n    /* \"#utility.yul\":135:136   */\n  0x00\n    /* \"#utility.yul\":128:216   */\n  mstore\n    /* \"#utility.yul\":235:239   */\n  0x12\n    /* \"#utility.yul\":232:233   */\n  0x04\n    /* \"#utility.yul\":225:240   */\n  mstore\n    /* \"#utility.yul\":259:263   */\n  0x24\n    /* \"#utility.yul\":256:257   */\n  0x00\n    /* \"#utility.yul\":249:264   */\n  revert\n    /* \"#utility.yul\":276:452   */\ntag_2:\n    /* \"#utility.yul\":308:309   */\n  0x00\n    /* \"#utility.yul\":325:345   */\n  tag_29\n    /* \"#utility.yul\":343:344   */\n  dup3\n    /* \"#utility.yul\":325:345   */\n  tag_21\n  jump\t// in\ntag_29:\n    /* \"#utility.yul\":320:345   */\n  swap2\n  pop\n    /* \"#utility.yul\":359:379   */\n  tag_30\n    /* \"#utility.yul\":377:378   */\n  dup4\n    /* \"#utility.yul\":359:379   */\n  tag_21\n  jump\t// in\ntag_30:\n    /* \"#utility.yul\":354:379   */\n  swap3\n  pop\n    /* \"#utility.yul\":398:399   */\n  dup3\n    /* \"#utility.yul\":388:423   */\n  tag_31\n  jumpi\n    /* \"#utility.yul\":403:421   */\n  tag_32\n  tag_22\n  jump\t// in\ntag_32:\n    /* \"#utility.yul\":388:423   */\ntag_31:\n    /* \"#utility.yul\":444:445   */\n  dup3\n    /* \"#utility.yul\":441:442   */\n  dup3\n    /* \"#utility.yul\":437:446   */\n  mod\n    /* \"#utility.yul\":432:446   */\n  swap1\n  pop\n    /* \"#utility.yul\":276:452   */\n  swap3\n  swap2\n  pop\n  pop\n  jump\t// out\n    /* \"#utility.yul\":458:638   */\ntag_23:\n    /* \"#utility.yul\":506:583   */\n  0x4e487b7100000000000000000000000000000000000000000000000000000000\n    /* \"#utility.yul\":503:504   */\n  0x00\n    /* \"#utility.yul\":496:584   */\n  mstore\n    /* \"#utility.yul\":603:607   */\n  0x11\n    /* \"#utility.yul\":600:601   */\n  0x04\n    /* \"#utility.yul\":593:608   */\n  mstore\n    /* \"#utility.yul\":627:631   */\n  0x24\n    /* \"#utility.yul\":624:625   */\n  0x00\n    /* \"#utility.yul\":617:632   */\n  revert\n    /* \"#utility.yul\":644:835   */\ntag_4:\n    /* \"#utility.yul\":684:688   */\n  0x00\n    /* \"#utility.yul\":704:724   */\n  tag_35\n    /* \"#utility.yul\":722:723   */\n  dup3\n    /* \"#utility.yul\":704:724   */\n  tag_21\n  jump\t// in\ntag_35:\n    /* \"#utility.yul\":699:724   */\n  swap2\n  pop\n    /* \"#utility.yul\":738:758   */\n  tag_36\n    /* \"#utility.yul\":756:757   */\n  dup4\n    /* \"#utility.yul\":738:758   */\n  tag_21\n  jump\t// in\ntag_36:\n    /* \"#utility.yul\":733:758   */\n  swap3\n  pop\n    /* \"#utility.yul\":777:778   */\n  dup3\n    /* \"#utility.yul\":774:775   */\n  dup3\n    /* \"#utility.yul\":771:779   */\n  lt\n    /* \"#utility.yul\":768:802   */\n  iszero\n  tag_37\n  jumpi\n    /* \"#utility.yul\":782:800   */\n  tag_38\n  tag_23\n  jump\t// in\ntag_38:\n    /* \"#utility.yul\":768:802   */\ntag_37:\n    /* \"#utility.yul\":827:828   */\n  dup3\n    /* \"#utility.yul\":824:825   */\n  dup3\n    /* \"#utility.yul\":820:829   */\n  sub\n    /* \"#utility.yul\":812:829   */\n  swap1\n  pop\n    /* \"#utility.yul\":644:835   */\n  swap3\n  swap2\n  pop\n  pop\n  jump\t// out\n    /* \"#utility.yul\":841:959   */\ntag_24:\n    /* \"#utility.yul\":928:952   */\n  tag_40\n    /* \"#utility.yul\":946:951   */\n  dup2\n    /* \"#utility.yul\":928:952   */\n  tag_21\n  jump\t// in\ntag_40:\n    /* \"#utility.yul\":923:926   */\n  dup3\n    /* \"#utility.yul\":916:953   */\n  mstore\n    /* \"#utility.yul\":841:959   */\n  pop\n  pop\n  jump\t// out\n    /* \"#utility.yul\":965:1187   */\ntag_17:\n    /* \"#utility.yul\":1058:1062   */\n  0x00\n    /* \"#utility.yul\":1096:1098   */\n  0x20\n    /* \"#utility.yul\":1085:1094   */\n  dup3\n    /* \"#utility.yul\":1081:1099   */\n  add\n    /* \"#utility.yul\":1073:1099   */\n  swap1\n  pop\n    /* \"#utility.yul\":1109:1180   */\n  tag_42\n    /* \"#utility.yul\":1177:1178   */\n  0x00\n    /* \"#utility.yul\":1166:1175   */\n  dup4\n    /* \"#utility.yul\":1162:1179   */\n  add\n    /* \"#utility.yul\":1153:1159   */\n  dup5\n    /* \"#utility.yul\":1109:1180   */\n  tag_24\n  jump\t// in\ntag_42:\n    /* \"#utility.yul\":965:1187   */\n  swap3\n  swap2\n  pop\n  pop\n  jump\t// out\n    /* \"contracts/Pool/Pool.sol\":3787:15630  contract World_Step is Context, IERC20, Ownable {... */\ntag_18:\n  dataSize(sub_0)\n  dup1\n  dataOffset(sub_0)\n  0x00\n  codecopy\n  0x00\n  return\nstop\n\nsub_0: assembly {\n        /* \"contracts/Pool/Pool.sol\":3787:15630  contract World_Step is Context, IERC20, Ownable {... */\n      mstore(0x40, 0x80)\n      jumpi(tag_1, lt(calldatasize, 0x04))\n      shr(0xe0, calldataload(0x00))\n      dup1\n      0x715018a6\n      gt\n      tag_27\n      jumpi\n      dup1\n      0xaad5c023\n      gt\n      tag_28\n      jumpi\n      dup1\n      0xaad5c023\n      eq\n      tag_21\n      jumpi\n      dup1\n      0xc3c8cd80\n      eq\n      tag_22\n      jumpi\n      dup1\n      0xc492f046\n      eq\n      tag_23\n      jumpi\n      dup1\n      0xdd62ed3e\n      eq\n      tag_24\n      jumpi\n      dup1\n      0xe293d316\n      eq\n      tag_25\n      jumpi\n      dup1\n      0xf2fde38b\n      eq\n      tag_26\n      jumpi\n      jump(tag_2)\n    tag_28:\n      dup1\n      0x715018a6\n      eq\n      tag_15\n      jumpi\n      dup1\n      0x758dbe03\n      eq\n      tag_16\n      jumpi\n      dup1\n      0x8da5cb5b\n      eq\n      tag_17\n      jumpi\n      dup1\n      0x95d89b41\n      eq\n      tag_18\n      jumpi\n      dup1\n      0xa2a957bb\n      eq\n      tag_19\n      jumpi\n      dup1\n      0xa9059cbb\n      eq\n      tag_20\n      jumpi\n      jump(tag_2)\n    tag_27:\n      dup1\n      0x49bd5a5e\n      gt\n      tag_29\n      jumpi\n      dup1\n      0x49bd5a5e\n      eq\n      tag_9\n      jumpi\n      dup1\n      0x504563c0\n      eq\n      tag_10\n      jumpi\n      dup1\n      0x59d0f713\n      eq\n      tag_11\n      jumpi\n      dup1\n      0x6d8aa8f8\n      eq\n      tag_12\n      jumpi\n      dup1\n      0x6fc3eaec\n      eq\n      tag_13\n      jumpi\n      dup1\n      0x70a08231\n      eq\n      tag_14\n      jumpi\n      jump(tag_2)\n    tag_29:\n      dup1\n      0x06fdde03\n      eq\n      tag_3\n      jumpi\n      dup1\n      0x095ea7b3\n      eq\n      tag_4\n      jumpi\n      dup1\n      0x1694505e\n      eq\n      tag_5\n      jumpi\n      dup1\n      0x18160ddd\n      eq\n      tag_6\n      jumpi\n      dup1\n      0x23b872dd\n      eq\n      tag_7\n      jumpi\n      dup1\n      0x313ce567\n      eq\n      tag_8\n      jumpi\n      jump(tag_2)\n    tag_1:\n      jumpi(tag_2, calldatasize)\n      stop\n    tag_2:\n      0x00\n      dup1\n      revert\n        /* \"contracts/Pool/Pool.sol\":6195:6276  function name() public pure returns (string memory) {... */\n    tag_3:\n      callvalue\n      dup1\n      iszero\n      tag_32\n      jumpi\n      0x00\n      dup1\n      revert\n    tag_32:\n      pop\n      tag_33\n      tag_34\n      jump\t// in\n    tag_33:\n      mload(0x40)\n      tag_35\n      swap2\n      swap1\n      tag_36\n      jump\t// in\n    tag_35:\n      mload(0x40)\n      dup1\n      swap2\n      sub\n      swap1\n      return\n        /* \"contracts/Pool/Pool.sol\":7018:7176  function approve(address spender, uint256 amount) public override returns (bool) {... */\n    tag_4:\n      callvalue\n      dup1\n      iszero\n      tag_37\n      jumpi\n      0x00\n      dup1\n      revert\n    tag_37:\n      pop\n      tag_38\n      0x04\n      dup1\n      calldatasize\n      sub\n      dup2\n      add\n      swap1\n      tag_39\n      swap2\n      swap1\n      tag_40\n      jump\t// in\n    tag_39:\n      tag_41\n      jump\t// in\n    tag_38:\n      mload(0x40)\n      tag_42\n      swap2\n      swap1\n      tag_43\n      jump\t// in\n    tag_42:\n      mload(0x40)\n      dup1\n      swap2\n      sub\n      swap1\n      return\n        /* \"contracts/Pool/Pool.sol\":4891:4932  IUniswapV2Router02 public uniswapV2Router */\n    tag_5:\n      callvalue\n      dup1\n      iszero\n      tag_44\n      jumpi\n      0x00\n      dup1\n      revert\n    tag_44:\n      pop\n      tag_45\n      tag_46\n      jump\t// in\n    tag_45:\n      mload(0x40)\n      tag_47\n      swap2\n      swap1\n      tag_48\n      jump\t// in\n    tag_47:\n      mload(0x40)\n      dup1\n      swap2\n      sub\n      swap1\n      return\n        /* \"contracts/Pool/Pool.sol\":6460:6553  function totalSupply() public pure override returns (uint256) {... */\n    tag_6:\n      callvalue\n      dup1\n      iszero\n      tag_49\n      jumpi\n      0x00\n      dup1\n      revert\n    tag_49:\n      pop\n      tag_50\n      tag_51\n      jump\t// in\n    tag_50:\n      mload(0x40)\n      tag_52\n      swap2\n      swap1\n      tag_53\n      jump\t// in\n    tag_52:\n      mload(0x40)\n      dup1\n      swap2\n      sub\n      swap1\n      return\n        /* \"contracts/Pool/Pool.sol\":7182:7491  function transferFrom(address sender, address recipient, uint256 amount) public override returns (bool) {... */\n    tag_7:\n      callvalue\n      dup1\n      iszero\n      tag_54\n      jumpi\n      0x00\n      dup1\n      revert\n    tag_54:\n      pop\n      tag_55\n      0x04\n      dup1\n      calldatasize\n      sub\n      dup2\n      add\n      swap1\n      tag_56\n      swap2\n      swap1\n      tag_57\n      jump\t// in\n    tag_56:\n      tag_58\n      jump\t// in\n    tag_55:\n      mload(0x40)\n      tag_59\n      swap2\n      swap1\n      tag_43\n      jump\t// in\n    tag_59:\n      mload(0x40)\n      dup1\n      swap2\n      sub\n      swap1\n      return\n        /* \"contracts/Pool/Pool.sol\":6373:6454  function decimals() public pure returns (uint8) {... */\n    tag_8:\n      callvalue\n      dup1\n      iszero\n      tag_60\n      jumpi\n      0x00\n      dup1\n      revert\n    tag_60:\n      pop\n      tag_61\n      tag_62\n      jump\t// in\n    tag_61:\n      mload(0x40)\n      tag_63\n      swap2\n      swap1\n      tag_64\n      jump\t// in\n    tag_63:\n      mload(0x40)\n      dup1\n      swap2\n      sub\n      swap1\n      return\n        /* \"contracts/Pool/Pool.sol\":4986:5014  address public uniswapV2Pair */\n    tag_9:\n      callvalue\n      dup1\n      iszero\n      tag_65\n      jumpi\n      0x00\n      dup1\n      revert\n    tag_65:\n      pop\n      tag_66\n      tag_67\n      jump\t// in\n    tag_66:\n      mload(0x40)\n      tag_68\n      swap2\n      swap1\n      tag_69\n      jump\t// in\n    tag_68:\n      mload(0x40)\n      dup1\n      swap2\n      sub\n      swap1\n      return\n        /* \"contracts/Pool/Pool.sol\":9580:9682  function getUniswap() public view returns(IUniswapV2Router02) { ... */\n    tag_10:\n      callvalue\n      dup1\n      iszero\n      tag_70\n      jumpi\n      0x00\n      dup1\n      revert\n    tag_70:\n      pop\n      tag_71\n      tag_72\n      jump\t// in\n    tag_71:\n      mload(0x40)\n      tag_73\n      swap2\n      swap1\n      tag_48\n      jump\t// in\n    tag_73:\n      mload(0x40)\n      dup1\n      swap2\n      sub\n      swap1\n      return\n        /* \"contracts/Pool/Pool.sol\":4938:4979  IUniswapV2Factory public uniswapV2Factory */\n    tag_11:\n      callvalue\n      dup1\n      iszero\n      tag_74\n      jumpi\n      0x00\n      dup1\n      revert\n    tag_74:\n      pop\n      tag_75\n      tag_76\n      jump\t// in\n    tag_75:\n      mload(0x40)\n      tag_77\n      swap2\n      swap1\n      tag_78\n      jump\t// in\n    tag_77:\n      mload(0x40)\n      dup1\n      swap2\n      sub\n      swap1\n      return\n        /* \"contracts/Pool/Pool.sol\":15295:15392  function toggleSwap(bool _swapEnabled) public onlyDev {... */\n    tag_12:\n      callvalue\n      dup1\n      iszero\n      tag_79\n      jumpi\n      0x00\n      dup1\n      revert\n    tag_79:\n      pop\n      tag_80\n      0x04\n      dup1\n      calldatasize\n      sub\n      dup2\n      add\n      swap1\n      tag_81\n      swap2\n      swap1\n      tag_82\n      jump\t// in\n    tag_81:\n      tag_83\n      jump\t// in\n    tag_80:\n      stop\n        /* \"contracts/Pool/Pool.sol\":14475:14733  function manualsend() external {... */\n    tag_13:\n      callvalue\n      dup1\n      iszero\n      tag_84\n      jumpi\n      0x00\n      dup1\n      revert\n    tag_84:\n      pop\n      tag_85\n      tag_86\n      jump\t// in\n    tag_85:\n      stop\n        /* \"contracts/Pool/Pool.sol\":6559:6695  function balanceOf(address account) public view override returns (uint256) {... */\n    tag_14:\n      callvalue\n      dup1\n      iszero\n      tag_87\n      jumpi\n      0x00\n      dup1\n      revert\n    tag_87:\n      pop\n      tag_88\n      0x04\n      dup1\n      calldatasize\n      sub\n      dup2\n      add\n      swap1\n      tag_89\n      swap2\n      swap1\n      tag_90\n      jump\t// in\n    tag_89:\n      tag_91\n      jump\t// in\n    tag_88:\n      mload(0x40)\n      tag_92\n      swap2\n      swap1\n      tag_53\n      jump\t// in\n    tag_92:\n      mload(0x40)\n      dup1\n      swap2\n      sub\n      swap1\n      return\n        /* \"contracts/Pool/Pool.sol\":3381:3526  function renounceOwnership() public virtual onlyOwner {... */\n    tag_15:\n      callvalue\n      dup1\n      iszero\n      tag_93\n      jumpi\n      0x00\n      dup1\n      revert\n    tag_93:\n      pop\n      tag_94\n      tag_95\n      jump\t// in\n    tag_94:\n      stop\n        /* \"contracts/Pool/Pool.sol\":11424:11657  function setNewMarketingAddress(address payable markt) public onlyDev() {... */\n    tag_16:\n      callvalue\n      dup1\n      iszero\n      tag_96\n      jumpi\n      0x00\n      dup1\n      revert\n    tag_96:\n      pop\n      tag_97\n      0x04\n      dup1\n      calldatasize\n      sub\n      dup2\n      add\n      swap1\n      tag_98\n      swap2\n      swap1\n      tag_99\n      jump\t// in\n    tag_98:\n      tag_100\n      jump\t// in\n    tag_97:\n      stop\n        /* \"contracts/Pool/Pool.sol\":3185:3262  function owner() public view returns (address) {... */\n    tag_17:\n      callvalue\n      dup1\n      iszero\n      tag_101\n      jumpi\n      0x00\n      dup1\n      revert\n    tag_101:\n      pop\n      tag_102\n      tag_103\n      jump\t// in\n    tag_102:\n      mload(0x40)\n      tag_104\n      swap2\n      swap1\n      tag_69\n      jump\t// in\n    tag_104:\n      mload(0x40)\n      dup1\n      swap2\n      sub\n      swap1\n      return\n        /* \"contracts/Pool/Pool.sol\":6282:6367  function symbol() public pure returns (string memory) {... */\n    tag_18:\n      callvalue\n      dup1\n      iszero\n      tag_105\n      jumpi\n      0x00\n      dup1\n      revert\n    tag_105:\n      pop\n      tag_106\n      tag_107\n      jump\t// in\n    tag_106:\n      mload(0x40)\n      tag_108\n      swap2\n      swap1\n      tag_36\n      jump\t// in\n    tag_108:\n      mload(0x40)\n      dup1\n      swap2\n      sub\n      swap1\n      return\n        /* \"contracts/Pool/Pool.sol\":14743:15285  function setFee(uint256 redisFeeOnBuy, uint256 redisFeeOnSell, uint256 taxFeeOnBuy, uint256 taxFeeOnSell) public onlyDev {... */\n    tag_19:\n      callvalue\n      dup1\n      iszero\n      tag_109\n      jumpi\n      0x00\n      dup1\n      revert\n    tag_109:\n      pop\n      tag_110\n      0x04\n      dup1\n      calldatasize\n      sub\n      dup2\n      add\n      swap1\n      tag_111\n      swap2\n      swap1\n      tag_112\n      jump\t// in\n    tag_111:\n      tag_113\n      jump\t// in\n    tag_110:\n      stop\n        /* \"contracts/Pool/Pool.sol\":6701:6865  function transfer(address recipient, uint256 amount) public override returns (bool) {... */\n    tag_20:\n      callvalue\n      dup1\n      iszero\n      tag_114\n      jumpi\n      0x00\n      dup1\n      revert\n    tag_114:\n      pop\n      tag_115\n      0x04\n      dup1\n      calldatasize\n      sub\n      dup2\n      add\n      swap1\n      tag_116\n      swap2\n      swap1\n      tag_40\n      jump\t// in\n    tag_116:\n      tag_117\n      jump\t// in\n    tag_115:\n      mload(0x40)\n      tag_118\n      swap2\n      swap1\n      tag_43\n      jump\t// in\n    tag_118:\n      mload(0x40)\n      dup1\n      swap2\n      sub\n      swap1\n      return\n        /* \"contracts/Pool/Pool.sol\":11111:11332  function setNewDevAddress(address payable dev) public onlyDev() {... */\n    tag_21:\n      callvalue\n      dup1\n      iszero\n      tag_119\n      jumpi\n      0x00\n      dup1\n      revert\n    tag_119:\n      pop\n      tag_120\n      0x04\n      dup1\n      calldatasize\n      sub\n      dup2\n      add\n      swap1\n      tag_121\n      swap2\n      swap1\n      tag_99\n      jump\t// in\n    tag_121:\n      tag_122\n      jump\t// in\n    tag_120:\n      stop\n        /* \"contracts/Pool/Pool.sol\":14210:14469  function manualswap() external {... */\n    tag_22:\n      callvalue\n      dup1\n      iszero\n      tag_123\n      jumpi\n      0x00\n      dup1\n      revert\n    tag_123:\n      pop\n      tag_124\n      tag_125\n      jump\t// in\n    tag_124:\n      stop\n        /* \"contracts/Pool/Pool.sol\":15398:15628  function excludeMultipleAccountsFromFees(address[] calldata accounts, bool excluded) public onlyOwner {... */\n    tag_23:\n      callvalue\n      dup1\n      iszero\n      tag_126\n      jumpi\n      0x00\n      dup1\n      revert\n    tag_126:\n      pop\n      tag_127\n      0x04\n      dup1\n      calldatasize\n      sub\n      dup2\n      add\n      swap1\n      tag_128\n      swap2\n      swap1\n      tag_129\n      jump\t// in\n    tag_128:\n      tag_130\n      jump\t// in\n    tag_127:\n      stop\n        /* \"contracts/Pool/Pool.sol\":6871:7012  function allowance(address owner, address spender) public view override returns (uint256) {... */\n    tag_24:\n      callvalue\n      dup1\n      iszero\n      tag_131\n      jumpi\n      0x00\n      dup1\n      revert\n    tag_131:\n      pop\n      tag_132\n      0x04\n      dup1\n      calldatasize\n      sub\n      dup2\n      add\n      swap1\n      tag_133\n      swap2\n      swap1\n      tag_134\n      jump\t// in\n    tag_133:\n      tag_135\n      jump\t// in\n    tag_132:\n      mload(0x40)\n      tag_136\n      swap2\n      swap1\n      tag_53\n      jump\t// in\n    tag_136:\n      mload(0x40)\n      dup1\n      swap2\n      sub\n      swap1\n      return\n        /* \"contracts/Pool/Pool.sol\":10820:11025  function rescueForeignTokens(address _tokenAddr, address _to, uint _amount) public onlyDev() {... */\n    tag_25:\n      callvalue\n      dup1\n      iszero\n      tag_137\n      jumpi\n      0x00\n      dup1\n      revert\n    tag_137:\n      pop\n      tag_138\n      0x04\n      dup1\n      calldatasize\n      sub\n      dup2\n      add\n      swap1\n      tag_139\n      swap2\n      swap1\n      tag_57\n      jump\t// in\n    tag_139:\n      tag_140\n      jump\t// in\n    tag_138:\n      stop\n        /* \"contracts/Pool/Pool.sol\":3625:3782  function transferOwnership(address newOwner) public virtual onlyOwner {... */\n    tag_26:\n      callvalue\n      dup1\n      iszero\n      tag_141\n      jumpi\n      0x00\n      dup1\n      revert\n    tag_141:\n      pop\n      tag_142\n      0x04\n      dup1\n      calldatasize\n      sub\n      dup2\n      add\n      swap1\n      tag_143\n      swap2\n      swap1\n      tag_90\n      jump\t// in\n    tag_143:\n      tag_144\n      jump\t// in\n    tag_142:\n      stop\n        /* \"contracts/Pool/Pool.sol\":6195:6276  function name() public pure returns (string memory) {... */\n    tag_34:\n        /* \"contracts/Pool/Pool.sol\":6232:6245  string memory */\n      0x60\n        /* \"contracts/Pool/Pool.sol\":6264:6269  _name */\n      mload(0x40)\n      dup1\n      0x40\n      add\n      0x40\n      mstore\n      dup1\n      0x0a\n      dup2\n      mstore\n      0x20\n      add\n      0x576f726c64205374657000000000000000000000000000000000000000000000\n      dup2\n      mstore\n      pop\n        /* \"contracts/Pool/Pool.sol\":6257:6269  return _name */\n      swap1\n      pop\n        /* \"contracts/Pool/Pool.sol\":6195:6276  function name() public pure returns (string memory) {... */\n      swap1\n      jump\t// out\n        /* \"contracts/Pool/Pool.sol\":7018:7176  function approve(address spender, uint256 amount) public override returns (bool) {... */\n    tag_41:\n        /* \"contracts/Pool/Pool.sol\":7093:7097  bool */\n      0x00\n        /* \"contracts/Pool/Pool.sol\":7109:7148  _approve(_msgSender(), spender, amount) */\n      tag_147\n        /* \"contracts/Pool/Pool.sol\":7118:7130  _msgSender() */\n      tag_148\n        /* \"contracts/Pool/Pool.sol\":7118:7128  _msgSender */\n      tag_149\n        /* \"contracts/Pool/Pool.sol\":7118:7130  _msgSender() */\n      jump\t// in\n    tag_148:\n        /* \"contracts/Pool/Pool.sol\":7132:7139  spender */\n      dup5\n        /* \"contracts/Pool/Pool.sol\":7141:7147  amount */\n      dup5\n        /* \"contracts/Pool/Pool.sol\":7109:7117  _approve */\n      tag_150\n        /* \"contracts/Pool/Pool.sol\":7109:7148  _approve(_msgSender(), spender, amount) */\n      jump\t// in\n    tag_147:\n        /* \"contracts/Pool/Pool.sol\":7165:7169  true */\n      0x01\n        /* \"contracts/Pool/Pool.sol\":7158:7169  return true */\n      swap1\n      pop\n        /* \"contracts/Pool/Pool.sol\":7018:7176  function approve(address spender, uint256 amount) public override returns (bool) {... */\n      swap3\n      swap2\n      pop\n      pop\n      jump\t// out\n        /* \"contracts/Pool/Pool.sol\":4891:4932  IUniswapV2Router02 public uniswapV2Router */\n    tag_46:\n      0x10\n      0x00\n      swap1\n      sload\n      swap1\n      0x0100\n      exp\n      swap1\n      div\n      0xffffffffffffffffffffffffffffffffffffffff\n      and\n      dup2\n      jump\t// out\n        /* \"contracts/Pool/Pool.sol\":6460:6553  function totalSupply() public pure override returns (uint256) {... */\n    tag_51:\n        /* \"contracts/Pool/Pool.sol\":6513:6520  uint256 */\n      0x00\n        /* \"contracts/Pool/Pool.sol\":4200:4213  1*10**9*10**9 */\n      0x0de0b6b3a7640000\n        /* \"contracts/Pool/Pool.sol\":6532:6546  return _tTotal */\n      swap1\n      pop\n        /* \"contracts/Pool/Pool.sol\":6460:6553  function totalSupply() public pure override returns (uint256) {... */\n      swap1\n      jump\t// out\n        /* \"contracts/Pool/Pool.sol\":7182:7491  function transferFrom(address sender, address recipient, uint256 amount) public override returns (bool) {... */\n    tag_58:\n        /* \"contracts/Pool/Pool.sol\":7280:7284  bool */\n      0x00\n        /* \"contracts/Pool/Pool.sol\":7296:7332  _transfer(sender, recipient, amount) */\n      tag_153\n        /* \"contracts/Pool/Pool.sol\":7306:7312  sender */\n      dup5\n        /* \"contracts/Pool/Pool.sol\":7314:7323  recipient */\n      dup5\n        /* \"contracts/Pool/Pool.sol\":7325:7331  amount */\n      dup5\n        /* \"contracts/Pool/Pool.sol\":7296:7305  _transfer */\n      tag_154\n        /* \"contracts/Pool/Pool.sol\":7296:7332  _transfer(sender, recipient, amount) */\n      jump\t// in\n    tag_153:\n        /* \"contracts/Pool/Pool.sol\":7342:7463  _approve(sender, _msgSender(), _allowances[sender][_msgSender()].sub(amount, \"ERC20: transfer amount exceeds allowance\")) */\n      tag_155\n        /* \"contracts/Pool/Pool.sol\":7351:7357  sender */\n      dup5\n        /* \"contracts/Pool/Pool.sol\":7359:7371  _msgSender() */\n      tag_156\n        /* \"contracts/Pool/Pool.sol\":7359:7369  _msgSender */\n      tag_149\n        /* \"contracts/Pool/Pool.sol\":7359:7371  _msgSender() */\n      jump\t// in\n    tag_156:\n        /* \"contracts/Pool/Pool.sol\":7373:7462  _allowances[sender][_msgSender()].sub(amount, \"ERC20: transfer amount exceeds allowance\") */\n      tag_157\n        /* \"contracts/Pool/Pool.sol\":7411:7417  amount */\n      dup6\n        /* \"contracts/Pool/Pool.sol\":7373:7462  _allowances[sender][_msgSender()].sub(amount, \"ERC20: transfer amount exceeds allowance\") */\n      mload(0x40)\n      dup1\n      0x60\n      add\n      0x40\n      mstore\n      dup1\n      0x28\n      dup2\n      mstore\n      0x20\n      add\n      data_974d1b4421da69cc60b481194f0dad36a5bb4e23da810da7a7fb30cdba178330\n      0x28\n      swap2\n      codecopy\n        /* \"contracts/Pool/Pool.sol\":7373:7384  _allowances */\n      0x04\n        /* \"contracts/Pool/Pool.sol\":7373:7392  _allowances[sender] */\n      0x00\n        /* \"contracts/Pool/Pool.sol\":7385:7391  sender */\n      dup12\n        /* \"contracts/Pool/Pool.sol\":7373:7392  _allowances[sender] */\n      0xffffffffffffffffffffffffffffffffffffffff\n      and\n      0xffffffffffffffffffffffffffffffffffffffff\n      and\n      dup2\n      mstore\n      0x20\n      add\n      swap1\n      dup2\n      mstore\n      0x20\n      add\n      0x00\n      keccak256\n        /* \"contracts/Pool/Pool.sol\":7373:7406  _allowances[sender][_msgSender()] */\n      0x00\n        /* \"contracts/Pool/Pool.sol\":7393:7405  _msgSender() */\n      tag_158\n        /* \"contracts/Pool/Pool.sol\":7393:7403  _msgSender */\n      tag_149\n        /* \"contracts/Pool/Pool.sol\":7393:7405  _msgSender() */\n      jump\t// in\n    tag_158:\n        /* \"contracts/Pool/Pool.sol\":7373:7406  _allowances[sender][_msgSender()] */\n      0xffffffffffffffffffffffffffffffffffffffff\n      and\n      0xffffffffffffffffffffffffffffffffffffffff\n      and\n      dup2\n      mstore\n      0x20\n      add\n      swap1\n      dup2\n      mstore\n      0x20\n      add\n      0x00\n      keccak256\n      sload\n        /* \"contracts/Pool/Pool.sol\":7373:7410  _allowances[sender][_msgSender()].sub */\n      tag_159\n      swap1\n        /* \"contracts/Pool/Pool.sol\":7373:7462  _allowances[sender][_msgSender()].sub(amount, \"ERC20: transfer amount exceeds allowance\") */\n      swap3\n      swap2\n      swap1\n      0xffffffff\n      and\n      jump\t// in\n    tag_157:\n        /* \"contracts/Pool/Pool.sol\":7342:7350  _approve */\n      tag_150\n        /* \"contracts/Pool/Pool.sol\":7342:7463  _approve(sender, _msgSender(), _allowances[sender][_msgSender()].sub(amount, \"ERC20: transfer amount exceeds allowance\")) */\n      jump\t// in\n    tag_155:\n        /* \"contracts/Pool/Pool.sol\":7480:7484  true */\n      0x01\n        /* \"contracts/Pool/Pool.sol\":7473:7484  return true */\n      swap1\n      pop\n        /* \"contracts/Pool/Pool.sol\":7182:7491  function transferFrom(address sender, address recipient, uint256 amount) public override returns (bool) {... */\n      swap4\n      swap3\n      pop\n      pop\n      pop\n      jump\t// out\n        /* \"contracts/Pool/Pool.sol\":6373:6454  function decimals() public pure returns (uint8) {... */\n    tag_62:\n        /* \"contracts/Pool/Pool.sol\":6414:6419  uint8 */\n      0x00\n        /* \"contracts/Pool/Pool.sol\":4674:4675  9 */\n      0x09\n        /* \"contracts/Pool/Pool.sol\":6431:6447  return _decimals */\n      swap1\n      pop\n        /* \"contracts/Pool/Pool.sol\":6373:6454  function decimals() public pure returns (uint8) {... */\n      swap1\n      jump\t// out\n        /* \"contracts/Pool/Pool.sol\":4986:5014  address public uniswapV2Pair */\n    tag_67:\n      0x12\n      0x00\n      swap1\n      sload\n      swap1\n      0x0100\n      exp\n      swap1\n      div\n      0xffffffffffffffffffffffffffffffffffffffff\n      and\n      dup2\n      jump\t// out\n        /* \"contracts/Pool/Pool.sol\":9580:9682  function getUniswap() public view returns(IUniswapV2Router02) { ... */\n    tag_72:\n        /* \"contracts/Pool/Pool.sol\":9622:9640  IUniswapV2Router02 */\n      0x00\n        /* \"contracts/Pool/Pool.sol\":9660:9675  uniswapV2Router */\n      0x10\n      0x00\n      swap1\n      sload\n      swap1\n      0x0100\n      exp\n      swap1\n      div\n      0xffffffffffffffffffffffffffffffffffffffff\n      and\n        /* \"contracts/Pool/Pool.sol\":9653:9675  return uniswapV2Router */\n      swap1\n      pop\n        /* \"contracts/Pool/Pool.sol\":9580:9682  function getUniswap() public view returns(IUniswapV2Router02) { ... */\n      swap1\n      jump\t// out\n        /* \"contracts/Pool/Pool.sol\":4938:4979  IUniswapV2Factory public uniswapV2Factory */\n    tag_76:\n      0x11\n      0x00\n      swap1\n      sload\n      swap1\n      0x0100\n      exp\n      swap1\n      div\n      0xffffffffffffffffffffffffffffffffffffffff\n      and\n      dup2\n      jump\t// out\n        /* \"contracts/Pool/Pool.sol\":15295:15392  function toggleSwap(bool _swapEnabled) public onlyDev {... */\n    tag_83:\n        /* \"contracts/Pool/Pool.sol\":6092:6104  _msgSender() */\n      tag_163\n        /* \"contracts/Pool/Pool.sol\":6092:6102  _msgSender */\n      tag_149\n        /* \"contracts/Pool/Pool.sol\":6092:6104  _msgSender() */\n      jump\t// in\n    tag_163:\n        /* \"contracts/Pool/Pool.sol\":6081:6104  owner() == _msgSender() */\n      0xffffffffffffffffffffffffffffffffffffffff\n      and\n        /* \"contracts/Pool/Pool.sol\":6081:6088  owner() */\n      tag_164\n        /* \"contracts/Pool/Pool.sol\":6081:6086  owner */\n      tag_103\n        /* \"contracts/Pool/Pool.sol\":6081:6088  owner() */\n      jump\t// in\n    tag_164:\n        /* \"contracts/Pool/Pool.sol\":6081:6104  owner() == _msgSender() */\n      0xffffffffffffffffffffffffffffffffffffffff\n      and\n      eq\n        /* \"contracts/Pool/Pool.sol\":6081:6143  owner() == _msgSender() || _developmentAddress == _msgSender() */\n      dup1\n      tag_165\n      jumpi\n      pop\n        /* \"contracts/Pool/Pool.sol\":6131:6143  _msgSender() */\n      tag_166\n        /* \"contracts/Pool/Pool.sol\":6131:6141  _msgSender */\n      tag_149\n        /* \"contracts/Pool/Pool.sol\":6131:6143  _msgSender() */\n      jump\t// in\n    tag_166:\n        /* \"contracts/Pool/Pool.sol\":6108:6143  _developmentAddress == _msgSender() */\n      0xffffffffffffffffffffffffffffffffffffffff\n      and\n        /* \"contracts/Pool/Pool.sol\":6108:6127  _developmentAddress */\n      0x0e\n      0x00\n      swap1\n      sload\n      swap1\n      0x0100\n      exp\n      swap1\n      div\n      0xffffffffffffffffffffffffffffffffffffffff\n      and\n        /* \"contracts/Pool/Pool.sol\":6108:6143  _developmentAddress == _msgSender() */\n      0xffffffffffffffffffffffffffffffffffffffff\n      and\n      eq\n        /* \"contracts/Pool/Pool.sol\":6081:6143  owner() == _msgSender() || _developmentAddress == _msgSender() */\n    tag_165:\n        /* \"contracts/Pool/Pool.sol\":6073:6169  require(owner() == _msgSender() || _developmentAddress == _msgSender(), \"Caller is not the dev\") */\n      tag_167\n      jumpi\n      mload(0x40)\n      0x08c379a000000000000000000000000000000000000000000000000000000000\n      dup2\n      mstore\n      0x04\n      add\n      tag_168\n      swap1\n      tag_169\n      jump\t// in\n    tag_168:\n      mload(0x40)\n      dup1\n      swap2\n      sub\n      swap1\n      revert\n    tag_167:\n        /* \"contracts/Pool/Pool.sol\":15373:15385  _swapEnabled */\n      dup1\n        /* \"contracts/Pool/Pool.sol\":15359:15370  swapEnabled */\n      0x12\n      0x15\n        /* \"contracts/Pool/Pool.sol\":15359:15385  swapEnabled = _swapEnabled */\n      0x0100\n      exp\n      dup2\n      sload\n      dup2\n      0xff\n      mul\n      not\n      and\n      swap1\n      dup4\n      iszero\n      iszero\n      mul\n      or\n      swap1\n      sstore\n      pop\n        /* \"contracts/Pool/Pool.sol\":15295:15392  function toggleSwap(bool _swapEnabled) public onlyDev {... */\n      pop\n      jump\t// out\n        /* \"contracts/Pool/Pool.sol\":14475:14733  function manualsend() external {... */\n    tag_86:\n        /* \"contracts/Pool/Pool.sol\":14540:14559  _developmentAddress */\n      0x0e\n      0x00\n      swap1\n      sload\n      swap1\n      0x0100\n      exp\n      swap1\n      div\n      0xffffffffffffffffffffffffffffffffffffffff\n      and\n        /* \"contracts/Pool/Pool.sol\":14524:14559  _msgSender() == _developmentAddress */\n      0xffffffffffffffffffffffffffffffffffffffff\n      and\n        /* \"contracts/Pool/Pool.sol\":14524:14536  _msgSender() */\n      tag_172\n        /* \"contracts/Pool/Pool.sol\":14524:14534  _msgSender */\n      tag_149\n        /* \"contracts/Pool/Pool.sol\":14524:14536  _msgSender() */\n      jump\t// in\n    tag_172:\n        /* \"contracts/Pool/Pool.sol\":14524:14559  _msgSender() == _developmentAddress */\n      0xffffffffffffffffffffffffffffffffffffffff\n      and\n      eq\n        /* \"contracts/Pool/Pool.sol\":14524:14596  _msgSender() == _developmentAddress || _msgSender() == _marketingAddress */\n      dup1\n      tag_173\n      jumpi\n      pop\n        /* \"contracts/Pool/Pool.sol\":14579:14596  _marketingAddress */\n      0x0f\n      0x00\n      swap1\n      sload\n      swap1\n      0x0100\n      exp\n      swap1\n      div\n      0xffffffffffffffffffffffffffffffffffffffff\n      and\n        /* \"contracts/Pool/Pool.sol\":14563:14596  _msgSender() == _marketingAddress */\n      0xffffffffffffffffffffffffffffffffffffffff\n      and\n        /* \"contracts/Pool/Pool.sol\":14563:14575  _msgSender() */\n      tag_174\n        /* \"contracts/Pool/Pool.sol\":14563:14573  _msgSender */\n      tag_149\n        /* \"contracts/Pool/Pool.sol\":14563:14575  _msgSender() */\n      jump\t// in\n    tag_174:\n        /* \"contracts/Pool/Pool.sol\":14563:14596  _msgSender() == _marketingAddress */\n      0xffffffffffffffffffffffffffffffffffffffff\n      and\n      eq\n        /* \"contracts/Pool/Pool.sol\":14524:14596  _msgSender() == _developmentAddress || _msgSender() == _marketingAddress */\n    tag_173:\n        /* \"contracts/Pool/Pool.sol\":14524:14623  _msgSender() == _developmentAddress || _msgSender() == _marketingAddress || _msgSender() == owner() */\n      dup1\n      tag_175\n      jumpi\n      pop\n        /* \"contracts/Pool/Pool.sol\":14616:14623  owner() */\n      tag_176\n        /* \"contracts/Pool/Pool.sol\":14616:14621  owner */\n      tag_103\n        /* \"contracts/Pool/Pool.sol\":14616:14623  owner() */\n      jump\t// in\n    tag_176:\n        /* \"contracts/Pool/Pool.sol\":14600:14623  _msgSender() == owner() */\n      0xffffffffffffffffffffffffffffffffffffffff\n      and\n        /* \"contracts/Pool/Pool.sol\":14600:14612  _msgSender() */\n      tag_177\n        /* \"contracts/Pool/Pool.sol\":14600:14610  _msgSender */\n      tag_149\n        /* \"contracts/Pool/Pool.sol\":14600:14612  _msgSender() */\n      jump\t// in\n    tag_177:\n        /* \"contracts/Pool/Pool.sol\":14600:14623  _msgSender() == owner() */\n      0xffffffffffffffffffffffffffffffffffffffff\n      and\n      eq\n        /* \"contracts/Pool/Pool.sol\":14524:14623  _msgSender() == _developmentAddress || _msgSender() == _marketingAddress || _msgSender() == owner() */\n    tag_175:\n        /* \"contracts/Pool/Pool.sol\":14516:14624  require(_msgSender() == _developmentAddress || _msgSender() == _marketingAddress || _msgSender() == owner()) */\n      tag_178\n      jumpi\n      0x00\n      dup1\n      revert\n    tag_178:\n        /* \"contracts/Pool/Pool.sol\":14634:14660  uint256 contractETHBalance */\n      0x00\n        /* \"contracts/Pool/Pool.sol\":14663:14684  address(this).balance */\n      selfbalance\n        /* \"contracts/Pool/Pool.sol\":14634:14684  uint256 contractETHBalance = address(this).balance */\n      swap1\n      pop\n        /* \"contracts/Pool/Pool.sol\":14694:14726  sendETHToFee(contractETHBalance) */\n      tag_179\n        /* \"contracts/Pool/Pool.sol\":14707:14725  contractETHBalance */\n      dup2\n        /* \"contracts/Pool/Pool.sol\":14694:14706  sendETHToFee */\n      tag_180\n        /* \"contracts/Pool/Pool.sol\":14694:14726  sendETHToFee(contractETHBalance) */\n      jump\t// in\n    tag_179:\n        /* \"contracts/Pool/Pool.sol\":14506:14733  {... */\n      pop\n        /* \"contracts/Pool/Pool.sol\":14475:14733  function manualsend() external {... */\n      jump\t// out\n        /* \"contracts/Pool/Pool.sol\":6559:6695  function balanceOf(address account) public view override returns (uint256) {... */\n    tag_91:\n        /* \"contracts/Pool/Pool.sol\":6625:6632  uint256 */\n      0x00\n        /* \"contracts/Pool/Pool.sol\":6651:6688  tokenFromReflection(_rOwned[account]) */\n      tag_182\n        /* \"contracts/Pool/Pool.sol\":6671:6678  _rOwned */\n      0x02\n        /* \"contracts/Pool/Pool.sol\":6671:6687  _rOwned[account] */\n      0x00\n        /* \"contracts/Pool/Pool.sol\":6679:6686  account */\n      dup5\n        /* \"contracts/Pool/Pool.sol\":6671:6687  _rOwned[account] */\n      0xffffffffffffffffffffffffffffffffffffffff\n      and\n      0xffffffffffffffffffffffffffffffffffffffff\n      and\n      dup2\n      mstore\n      0x20\n      add\n      swap1\n      dup2\n      mstore\n      0x20\n      add\n      0x00\n      keccak256\n      sload\n        /* \"contracts/Pool/Pool.sol\":6651:6670  tokenFromReflection */\n      tag_183\n        /* \"contracts/Pool/Pool.sol\":6651:6688  tokenFromReflection(_rOwned[account]) */\n      jump\t// in\n    tag_182:\n        /* \"contracts/Pool/Pool.sol\":6644:6688  return tokenFromReflection(_rOwned[account]) */\n      swap1\n      pop\n        /* \"contracts/Pool/Pool.sol\":6559:6695  function balanceOf(address account) public view override returns (uint256) {... */\n      swap2\n      swap1\n      pop\n      jump\t// out\n        /* \"contracts/Pool/Pool.sol\":3381:3526  function renounceOwnership() public virtual onlyOwner {... */\n    tag_95:\n        /* \"contracts/Pool/Pool.sol\":3317:3329  _msgSender() */\n      tag_185\n        /* \"contracts/Pool/Pool.sol\":3317:3327  _msgSender */\n      tag_149\n        /* \"contracts/Pool/Pool.sol\":3317:3329  _msgSender() */\n      jump\t// in\n    tag_185:\n        /* \"contracts/Pool/Pool.sol\":3307:3329  _owner == _msgSender() */\n      0xffffffffffffffffffffffffffffffffffffffff\n      and\n        /* \"contracts/Pool/Pool.sol\":3307:3313  _owner */\n      0x00\n      dup1\n      sload\n      swap1\n      0x0100\n      exp\n      swap1\n      div\n      0xffffffffffffffffffffffffffffffffffffffff\n      and\n        /* \"contracts/Pool/Pool.sol\":3307:3329  _owner == _msgSender() */\n      0xffffffffffffffffffffffffffffffffffffffff\n      and\n      eq\n        /* \"contracts/Pool/Pool.sol\":3299:3357  require(_owner == _msgSender(), \"Caller is not the owner\") */\n      tag_186\n      jumpi\n      mload(0x40)\n      0x08c379a000000000000000000000000000000000000000000000000000000000\n      dup2\n      mstore\n      0x04\n      add\n      tag_187\n      swap1\n      tag_188\n      jump\t// in\n    tag_187:\n      mload(0x40)\n      dup1\n      swap2\n      sub\n      swap1\n      revert\n    tag_186:\n        /* \"contracts/Pool/Pool.sol\":3487:3488  0 */\n      0x00\n        /* \"contracts/Pool/Pool.sol\":3450:3490  OwnershipTransferred(_owner, address(0)) */\n      0xffffffffffffffffffffffffffffffffffffffff\n      and\n        /* \"contracts/Pool/Pool.sol\":3471:3477  _owner */\n      0x00\n      dup1\n      sload\n      swap1\n      0x0100\n      exp\n      swap1\n      div\n      0xffffffffffffffffffffffffffffffffffffffff\n      and\n        /* \"contracts/Pool/Pool.sol\":3450:3490  OwnershipTransferred(_owner, address(0)) */\n      0xffffffffffffffffffffffffffffffffffffffff\n      and\n      0x8be0079c531659141344cd1fd0a4f28419497f9722a3daafe3b4186f6b6457e0\n      mload(0x40)\n      mload(0x40)\n      dup1\n      swap2\n      sub\n      swap1\n      log3\n        /* \"contracts/Pool/Pool.sol\":3517:3518  0 */\n      0x00\n        /* \"contracts/Pool/Pool.sol\":3500:3506  _owner */\n      dup1\n      0x00\n        /* \"contracts/Pool/Pool.sol\":3500:3519  _owner = address(0) */\n      0x0100\n      exp\n      dup2\n      sload\n      dup2\n      0xffffffffffffffffffffffffffffffffffffffff\n      mul\n      not\n      and\n      swap1\n      dup4\n      0xffffffffffffffffffffffffffffffffffffffff\n      and\n      mul\n      or\n      swap1\n      sstore\n      pop\n        /* \"contracts/Pool/Pool.sol\":3381:3526  function renounceOwnership() public virtual onlyOwner {... */\n      jump\t// out\n        /* \"contracts/Pool/Pool.sol\":11424:11657  function setNewMarketingAddress(address payable markt) public onlyDev() {... */\n    tag_100:\n        /* \"contracts/Pool/Pool.sol\":6092:6104  _msgSender() */\n      tag_191\n        /* \"contracts/Pool/Pool.sol\":6092:6102  _msgSender */\n      tag_149\n        /* \"contracts/Pool/Pool.sol\":6092:6104  _msgSender() */\n      jump\t// in\n    tag_191:\n        /* \"contracts/Pool/Pool.sol\":6081:6104  owner() == _msgSender() */\n      0xffffffffffffffffffffffffffffffffffffffff\n      and\n        /* \"contracts/Pool/Pool.sol\":6081:6088  owner() */\n      tag_192\n        /* \"contracts/Pool/Pool.sol\":6081:6086  owner */\n      tag_103\n        /* \"contracts/Pool/Pool.sol\":6081:6088  owner() */\n      jump\t// in\n    tag_192:\n        /* \"contracts/Pool/Pool.sol\":6081:6104  owner() == _msgSender() */\n      0xffffffffffffffffffffffffffffffffffffffff\n      and\n      eq\n        /* \"contracts/Pool/Pool.sol\":6081:6143  owner() == _msgSender() || _developmentAddress == _msgSender() */\n      dup1\n      tag_193\n      jumpi\n      pop\n        /* \"contracts/Pool/Pool.sol\":6131:6143  _msgSender() */\n      tag_194\n        /* \"contracts/Pool/Pool.sol\":6131:6141  _msgSender */\n      tag_149\n        /* \"contracts/Pool/Pool.sol\":6131:6143  _msgSender() */\n      jump\t// in\n    tag_194:\n        /* \"contracts/Pool/Pool.sol\":6108:6143  _developmentAddress == _msgSender() */\n      0xffffffffffffffffffffffffffffffffffffffff\n      and\n        /* \"contracts/Pool/Pool.sol\":6108:6127  _developmentAddress */\n      0x0e\n      0x00\n      swap1\n      sload\n      swap1\n      0x0100\n      exp\n      swap1\n      div\n      0xffffffffffffffffffffffffffffffffffffffff\n      and\n        /* \"contracts/Pool/Pool.sol\":6108:6143  _developmentAddress == _msgSender() */\n      0xffffffffffffffffffffffffffffffffffffffff\n      and\n      eq\n        /* \"contracts/Pool/Pool.sol\":6081:6143  owner() == _msgSender() || _developmentAddress == _msgSender() */\n    tag_193:\n        /* \"contracts/Pool/Pool.sol\":6073:6169  require(owner() == _msgSender() || _developmentAddress == _msgSender(), \"Caller is not the dev\") */\n      tag_195\n      jumpi\n      mload(0x40)\n      0x08c379a000000000000000000000000000000000000000000000000000000000\n      dup2\n      mstore\n      0x04\n      add\n      tag_196\n      swap1\n      tag_169\n      jump\t// in\n    tag_196:\n      mload(0x40)\n      dup1\n      swap2\n      sub\n      swap1\n      revert\n    tag_195:\n        /* \"contracts/Pool/Pool.sol\":11554:11559  markt */\n      dup1\n        /* \"contracts/Pool/Pool.sol\":11511:11560  marketingAddressUpdated(_marketingAddress, markt) */\n      0xffffffffffffffffffffffffffffffffffffffff\n      and\n        /* \"contracts/Pool/Pool.sol\":11535:11552  _marketingAddress */\n      0x0f\n      0x00\n      swap1\n      sload\n      swap1\n      0x0100\n      exp\n      swap1\n      div\n      0xffffffffffffffffffffffffffffffffffffffff\n      and\n        /* \"contracts/Pool/Pool.sol\":11511:11560  marketingAddressUpdated(_marketingAddress, markt) */\n      0xffffffffffffffffffffffffffffffffffffffff\n      and\n      0xa64373a629bc0c09eacf8a9cc2c7b070fa0a8b7e2e9b8aaee408a3c02eb1676b\n      mload(0x40)\n      mload(0x40)\n      dup1\n      swap2\n      sub\n      swap1\n      log3\n        /* \"contracts/Pool/Pool.sol\":11591:11596  markt */\n      dup1\n        /* \"contracts/Pool/Pool.sol\":11571:11588  _marketingAddress */\n      0x0f\n      0x00\n        /* \"contracts/Pool/Pool.sol\":11571:11596  _marketingAddress = markt */\n      0x0100\n      exp\n      dup2\n      sload\n      dup2\n      0xffffffffffffffffffffffffffffffffffffffff\n      mul\n      not\n      and\n      swap1\n      dup4\n      0xffffffffffffffffffffffffffffffffffffffff\n      and\n      mul\n      or\n      swap1\n      sstore\n      pop\n        /* \"contracts/Pool/Pool.sol\":11646:11650  true */\n      0x01\n        /* \"contracts/Pool/Pool.sol\":11606:11624  _isExcludedFromFee */\n      0x05\n        /* \"contracts/Pool/Pool.sol\":11606:11643  _isExcludedFromFee[_marketingAddress] */\n      0x00\n        /* \"contracts/Pool/Pool.sol\":11625:11642  _marketingAddress */\n      0x0f\n      0x00\n      swap1\n      sload\n      swap1\n      0x0100\n      exp\n      swap1\n      div\n      0xffffffffffffffffffffffffffffffffffffffff\n      and\n        /* \"contracts/Pool/Pool.sol\":11606:11643  _isExcludedFromFee[_marketingAddress] */\n      0xffffffffffffffffffffffffffffffffffffffff\n      and\n      0xffffffffffffffffffffffffffffffffffffffff\n      and\n      dup2\n      mstore\n      0x20\n      add\n      swap1\n      dup2\n      mstore\n      0x20\n      add\n      0x00\n      keccak256\n      0x00\n        /* \"contracts/Pool/Pool.sol\":11606:11650  _isExcludedFromFee[_marketingAddress] = true */\n      0x0100\n      exp\n      dup2\n      sload\n      dup2\n      0xff\n      mul\n      not\n      and\n      swap1\n      dup4\n      iszero\n      iszero\n      mul\n      or\n      swap1\n      sstore\n      pop\n        /* \"contracts/Pool/Pool.sol\":11424:11657  function setNewMarketingAddress(address payable markt) public onlyDev() {... */\n      pop\n      jump\t// out\n        /* \"contracts/Pool/Pool.sol\":3185:3262  function owner() public view returns (address) {... */\n    tag_103:\n        /* \"contracts/Pool/Pool.sol\":3223:3230  address */\n      0x00\n        /* \"contracts/Pool/Pool.sol\":3249:3255  _owner */\n      dup1\n      0x00\n      swap1\n      sload\n      swap1\n      0x0100\n      exp\n      swap1\n      div\n      0xffffffffffffffffffffffffffffffffffffffff\n      and\n        /* \"contracts/Pool/Pool.sol\":3242:3255  return _owner */\n      swap1\n      pop\n        /* \"contracts/Pool/Pool.sol\":3185:3262  function owner() public view returns (address) {... */\n      swap1\n      jump\t// out\n        /* \"contracts/Pool/Pool.sol\":6282:6367  function symbol() public pure returns (string memory) {... */\n    tag_107:\n        /* \"contracts/Pool/Pool.sol\":6321:6334  string memory */\n      0x60\n        /* \"contracts/Pool/Pool.sol\":6353:6360  _symbol */\n      mload(0x40)\n      dup1\n      0x40\n      add\n      0x40\n      mstore\n      dup1\n      0x03\n      dup2\n      mstore\n      0x20\n      add\n      0x5753500000000000000000000000000000000000000000000000000000000000\n      dup2\n      mstore\n      pop\n        /* \"contracts/Pool/Pool.sol\":6346:6360  return _symbol */\n      swap1\n      pop\n        /* \"contracts/Pool/Pool.sol\":6282:6367  function symbol() public pure returns (string memory) {... */\n      swap1\n      jump\t// out\n        /* \"contracts/Pool/Pool.sol\":14743:15285  function setFee(uint256 redisFeeOnBuy, uint256 redisFeeOnSell, uint256 taxFeeOnBuy, uint256 taxFeeOnSell) public onlyDev {... */\n    tag_113:\n        /* \"contracts/Pool/Pool.sol\":6092:6104  _msgSender() */\n      tag_201\n        /* \"contracts/Pool/Pool.sol\":6092:6102  _msgSender */\n      tag_149\n        /* \"contracts/Pool/Pool.sol\":6092:6104  _msgSender() */\n      jump\t// in\n    tag_201:\n        /* \"contracts/Pool/Pool.sol\":6081:6104  owner() == _msgSender() */\n      0xffffffffffffffffffffffffffffffffffffffff\n      and\n        /* \"contracts/Pool/Pool.sol\":6081:6088  owner() */\n      tag_202\n        /* \"contracts/Pool/Pool.sol\":6081:6086  owner */\n      tag_103\n        /* \"contracts/Pool/Pool.sol\":6081:6088  owner() */\n      jump\t// in\n    tag_202:\n        /* \"contracts/Pool/Pool.sol\":6081:6104  owner() == _msgSender() */\n      0xffffffffffffffffffffffffffffffffffffffff\n      and\n      eq\n        /* \"contracts/Pool/Pool.sol\":6081:6143  owner() == _msgSender() || _developmentAddress == _msgSender() */\n      dup1\n      tag_203\n      jumpi\n      pop\n        /* \"contracts/Pool/Pool.sol\":6131:6143  _msgSender() */\n      tag_204\n        /* \"contracts/Pool/Pool.sol\":6131:6141  _msgSender */\n      tag_149\n        /* \"contracts/Pool/Pool.sol\":6131:6143  _msgSender() */\n      jump\t// in\n    tag_204:\n        /* \"contracts/Pool/Pool.sol\":6108:6143  _developmentAddress == _msgSender() */\n      0xffffffffffffffffffffffffffffffffffffffff\n      and\n        /* \"contracts/Pool/Pool.sol\":6108:6127  _developmentAddress */\n      0x0e\n      0x00\n      swap1\n      sload\n      swap1\n      0x0100\n      exp\n      swap1\n      div\n      0xffffffffffffffffffffffffffffffffffffffff\n      and\n        /* \"contracts/Pool/Pool.sol\":6108:6143  _developmentAddress == _msgSender() */\n      0xffffffffffffffffffffffffffffffffffffffff\n      and\n      eq\n        /* \"contracts/Pool/Pool.sol\":6081:6143  owner() == _msgSender() || _developmentAddress == _msgSender() */\n    tag_203:\n        /* \"contracts/Pool/Pool.sol\":6073:6169  require(owner() == _msgSender() || _developmentAddress == _msgSender(), \"Caller is not the dev\") */\n      tag_205\n      jumpi\n      mload(0x40)\n      0x08c379a000000000000000000000000000000000000000000000000000000000\n      dup2\n      mstore\n      0x04\n      add\n      tag_206\n      swap1\n      tag_169\n      jump\t// in\n    tag_206:\n      mload(0x40)\n      dup1\n      swap2\n      sub\n      swap1\n      revert\n    tag_205:\n        /* \"contracts/Pool/Pool.sol\":14895:14897  11 */\n      0x0b\n        /* \"contracts/Pool/Pool.sol\":14879:14892  redisFeeOnBuy */\n      dup5\n        /* \"contracts/Pool/Pool.sol\":14879:14897  redisFeeOnBuy < 11 */\n      lt\n        /* \"contracts/Pool/Pool.sol\":14871:14931  require(redisFeeOnBuy < 11, \"Redis cannot be more than 10.\") */\n      tag_208\n      jumpi\n      mload(0x40)\n      0x08c379a000000000000000000000000000000000000000000000000000000000\n      dup2\n      mstore\n      0x04\n      add\n      tag_209\n      swap1\n      tag_210\n      jump\t// in\n    tag_209:\n      mload(0x40)\n      dup1\n      swap2\n      sub\n      swap1\n      revert\n    tag_208:\n        /* \"contracts/Pool/Pool.sol\":14963:14965  11 */\n      0x0b\n        /* \"contracts/Pool/Pool.sol\":14946:14960  redisFeeOnSell */\n      dup4\n        /* \"contracts/Pool/Pool.sol\":14946:14965  redisFeeOnSell < 11 */\n      lt\n        /* \"contracts/Pool/Pool.sol\":14938:14999  require(redisFeeOnSell < 11, \"Redis cannot be more than 10.\") */\n      tag_211\n      jumpi\n      mload(0x40)\n      0x08c379a000000000000000000000000000000000000000000000000000000000\n      dup2\n      mstore\n      0x04\n      add\n      tag_212\n      swap1\n      tag_210\n      jump\t// in\n    tag_212:\n      mload(0x40)\n      dup1\n      swap2\n      sub\n      swap1\n      revert\n    tag_211:\n        /* \"contracts/Pool/Pool.sol\":15028:15029  7 */\n      0x07\n        /* \"contracts/Pool/Pool.sol\":15014:15025  taxFeeOnBuy */\n      dup3\n        /* \"contracts/Pool/Pool.sol\":15014:15029  taxFeeOnBuy < 7 */\n      lt\n        /* \"contracts/Pool/Pool.sol\":15006:15060  require(taxFeeOnBuy < 7, \"Tax cannot be more than 6.\") */\n      tag_213\n      jumpi\n      mload(0x40)\n      0x08c379a000000000000000000000000000000000000000000000000000000000\n      dup2\n      mstore\n      0x04\n      add\n      tag_214\n      swap1\n      tag_215\n      jump\t// in\n    tag_214:\n      mload(0x40)\n      dup1\n      swap2\n      sub\n      swap1\n      revert\n    tag_213:\n        /* \"contracts/Pool/Pool.sol\":15090:15091  7 */\n      0x07\n        /* \"contracts/Pool/Pool.sol\":15075:15087  taxFeeOnSell */\n      dup2\n        /* \"contracts/Pool/Pool.sol\":15075:15091  taxFeeOnSell < 7 */\n      lt\n        /* \"contracts/Pool/Pool.sol\":15067:15122  require(taxFeeOnSell < 7, \"Tax cannot be more than 6.\") */\n      tag_216\n      jumpi\n      mload(0x40)\n      0x08c379a000000000000000000000000000000000000000000000000000000000\n      dup2\n      mstore\n      0x04\n      add\n      tag_217\n      swap1\n      tag_215\n      jump\t// in\n    tag_217:\n      mload(0x40)\n      dup1\n      swap2\n      sub\n      swap1\n      revert\n    tag_216:\n        /* \"contracts/Pool/Pool.sol\":15149:15162  redisFeeOnBuy */\n      dup4\n        /* \"contracts/Pool/Pool.sol\":15132:15146  _redisFeeOnBuy */\n      0x08\n        /* \"contracts/Pool/Pool.sol\":15132:15162  _redisFeeOnBuy = redisFeeOnBuy */\n      dup2\n      swap1\n      sstore\n      pop\n        /* \"contracts/Pool/Pool.sol\":15190:15204  redisFeeOnSell */\n      dup3\n        /* \"contracts/Pool/Pool.sol\":15172:15187  _redisFeeOnSell */\n      0x0a\n        /* \"contracts/Pool/Pool.sol\":15172:15204  _redisFeeOnSell = redisFeeOnSell */\n      dup2\n      swap1\n      sstore\n      pop\n        /* \"contracts/Pool/Pool.sol\":15229:15240  taxFeeOnBuy */\n      dup2\n        /* \"contracts/Pool/Pool.sol\":15214:15226  _taxFeeOnBuy */\n      0x09\n        /* \"contracts/Pool/Pool.sol\":15214:15240  _taxFeeOnBuy = taxFeeOnBuy */\n      dup2\n      swap1\n      sstore\n      pop\n        /* \"contracts/Pool/Pool.sol\":15266:15278  taxFeeOnSell */\n      dup1\n        /* \"contracts/Pool/Pool.sol\":15250:15263  _taxFeeOnSell */\n      0x0b\n        /* \"contracts/Pool/Pool.sol\":15250:15278  _taxFeeOnSell = taxFeeOnSell */\n      dup2\n      swap1\n      sstore\n      pop\n        /* \"contracts/Pool/Pool.sol\":14743:15285  function setFee(uint256 redisFeeOnBuy, uint256 redisFeeOnSell, uint256 taxFeeOnBuy, uint256 taxFeeOnSell) public onlyDev {... */\n      pop\n      pop\n      pop\n      pop\n      jump\t// out\n        /* \"contracts/Pool/Pool.sol\":6701:6865  function transfer(address recipient, uint256 amount) public override returns (bool) {... */\n    tag_117:\n        /* \"contracts/Pool/Pool.sol\":6779:6783  bool */\n      0x00\n        /* \"contracts/Pool/Pool.sol\":6795:6837  _transfer(_msgSender(), recipient, amount) */\n      tag_219\n        /* \"contracts/Pool/Pool.sol\":6805:6817  _msgSender() */\n      tag_220\n        /* \"contracts/Pool/Pool.sol\":6805:6815  _msgSender */\n      tag_149\n        /* \"contracts/Pool/Pool.sol\":6805:6817  _msgSender() */\n      jump\t// in\n    tag_220:\n        /* \"contracts/Pool/Pool.sol\":6819:6828  recipient */\n      dup5\n        /* \"contracts/Pool/Pool.sol\":6830:6836  amount */\n      dup5\n        /* \"contracts/Pool/Pool.sol\":6795:6804  _transfer */\n      tag_154\n        /* \"contracts/Pool/Pool.sol\":6795:6837  _transfer(_msgSender(), recipient, amount) */\n      jump\t// in\n    tag_219:\n        /* \"contracts/Pool/Pool.sol\":6854:6858  true */\n      0x01\n        /* \"contracts/Pool/Pool.sol\":6847:6858  return true */\n      swap1\n      pop\n        /* \"contracts/Pool/Pool.sol\":6701:6865  function transfer(address recipient, uint256 amount) public override returns (bool) {... */\n      swap3\n      swap2\n      pop\n      pop\n      jump\t// out\n        /* \"contracts/Pool/Pool.sol\":11111:11332  function setNewDevAddress(address payable dev) public onlyDev() {... */\n    tag_122:\n        /* \"contracts/Pool/Pool.sol\":6092:6104  _msgSender() */\n      tag_222\n        /* \"contracts/Pool/Pool.sol\":6092:6102  _msgSender */\n      tag_149\n        /* \"contracts/Pool/Pool.sol\":6092:6104  _msgSender() */\n      jump\t// in\n    tag_222:\n        /* \"contracts/Pool/Pool.sol\":6081:6104  owner() == _msgSender() */\n      0xffffffffffffffffffffffffffffffffffffffff\n      and\n        /* \"contracts/Pool/Pool.sol\":6081:6088  owner() */\n      tag_223\n        /* \"contracts/Pool/Pool.sol\":6081:6086  owner */\n      tag_103\n        /* \"contracts/Pool/Pool.sol\":6081:6088  owner() */\n      jump\t// in\n    tag_223:\n        /* \"contracts/Pool/Pool.sol\":6081:6104  owner() == _msgSender() */\n      0xffffffffffffffffffffffffffffffffffffffff\n      and\n      eq\n        /* \"contracts/Pool/Pool.sol\":6081:6143  owner() == _msgSender() || _developmentAddress == _msgSender() */\n      dup1\n      tag_224\n      jumpi\n      pop\n        /* \"contracts/Pool/Pool.sol\":6131:6143  _msgSender() */\n      tag_225\n        /* \"contracts/Pool/Pool.sol\":6131:6141  _msgSender */\n      tag_149\n        /* \"contracts/Pool/Pool.sol\":6131:6143  _msgSender() */\n      jump\t// in\n    tag_225:\n        /* \"contracts/Pool/Pool.sol\":6108:6143  _developmentAddress == _msgSender() */\n      0xffffffffffffffffffffffffffffffffffffffff\n      and\n        /* \"contracts/Pool/Pool.sol\":6108:6127  _developmentAddress */\n      0x0e\n      0x00\n      swap1\n      sload\n      swap1\n      0x0100\n      exp\n      swap1\n      div\n      0xffffffffffffffffffffffffffffffffffffffff\n      and\n        /* \"contracts/Pool/Pool.sol\":6108:6143  _developmentAddress == _msgSender() */\n      0xffffffffffffffffffffffffffffffffffffffff\n      and\n      eq\n        /* \"contracts/Pool/Pool.sol\":6081:6143  owner() == _msgSender() || _developmentAddress == _msgSender() */\n    tag_224:\n        /* \"contracts/Pool/Pool.sol\":6073:6169  require(owner() == _msgSender() || _developmentAddress == _msgSender(), \"Caller is not the dev\") */\n      tag_226\n      jumpi\n      mload(0x40)\n      0x08c379a000000000000000000000000000000000000000000000000000000000\n      dup2\n      mstore\n      0x04\n      add\n      tag_227\n      swap1\n      tag_169\n      jump\t// in\n    tag_227:\n      mload(0x40)\n      dup1\n      swap2\n      sub\n      swap1\n      revert\n    tag_226:\n        /* \"contracts/Pool/Pool.sol\":11229:11232  dev */\n      dup1\n        /* \"contracts/Pool/Pool.sol\":11190:11233  devAddressUpdated(_developmentAddress, dev) */\n      0xffffffffffffffffffffffffffffffffffffffff\n      and\n        /* \"contracts/Pool/Pool.sol\":11208:11227  _developmentAddress */\n      0x0e\n      0x00\n      swap1\n      sload\n      swap1\n      0x0100\n      exp\n      swap1\n      div\n      0xffffffffffffffffffffffffffffffffffffffff\n      and\n        /* \"contracts/Pool/Pool.sol\":11190:11233  devAddressUpdated(_developmentAddress, dev) */\n      0xffffffffffffffffffffffffffffffffffffffff\n      and\n      0xfbbc329437e8c79f847e170730ad6dd04106b7511cad70d06d635886d92de83c\n      mload(0x40)\n      mload(0x40)\n      dup1\n      swap2\n      sub\n      swap1\n      log3\n        /* \"contracts/Pool/Pool.sol\":11266:11269  dev */\n      dup1\n        /* \"contracts/Pool/Pool.sol\":11244:11263  _developmentAddress */\n      0x0e\n      0x00\n        /* \"contracts/Pool/Pool.sol\":11244:11269  _developmentAddress = dev */\n      0x0100\n      exp\n      dup2\n      sload\n      dup2\n      0xffffffffffffffffffffffffffffffffffffffff\n      mul\n      not\n      and\n      swap1\n      dup4\n      0xffffffffffffffffffffffffffffffffffffffff\n      and\n      mul\n      or\n      swap1\n      sstore\n      pop\n        /* \"contracts/Pool/Pool.sol\":11321:11325  true */\n      0x01\n        /* \"contracts/Pool/Pool.sol\":11279:11297  _isExcludedFromFee */\n      0x05\n        /* \"contracts/Pool/Pool.sol\":11279:11318  _isExcludedFromFee[_developmentAddress] */\n      0x00\n        /* \"contracts/Pool/Pool.sol\":11298:11317  _developmentAddress */\n      0x0e\n      0x00\n      swap1\n      sload\n      swap1\n      0x0100\n      exp\n      swap1\n      div\n      0xffffffffffffffffffffffffffffffffffffffff\n      and\n        /* \"contracts/Pool/Pool.sol\":11279:11318  _isExcludedFromFee[_developmentAddress] */\n      0xffffffffffffffffffffffffffffffffffffffff\n      and\n      0xffffffffffffffffffffffffffffffffffffffff\n      and\n      dup2\n      mstore\n      0x20\n      add\n      swap1\n      dup2\n      mstore\n      0x20\n      add\n      0x00\n      keccak256\n      0x00\n        /* \"contracts/Pool/Pool.sol\":11279:11325  _isExcludedFromFee[_developmentAddress] = true */\n      0x0100\n      exp\n      dup2\n      sload\n      dup2\n      0xff\n      mul\n      not\n      and\n      swap1\n      dup4\n      iszero\n      iszero\n      mul\n      or\n      swap1\n      sstore\n      pop\n        /* \"contracts/Pool/Pool.sol\":11111:11332  function setNewDevAddress(address payable dev) public onlyDev() {... */\n      pop\n      jump\t// out\n        /* \"contracts/Pool/Pool.sol\":14210:14469  function manualswap() external {... */\n    tag_125:\n        /* \"contracts/Pool/Pool.sol\":14275:14294  _developmentAddress */\n      0x0e\n      0x00\n      swap1\n      sload\n      swap1\n      0x0100\n      exp\n      swap1\n      div\n      0xffffffffffffffffffffffffffffffffffffffff\n      and\n        /* \"contracts/Pool/Pool.sol\":14259:14294  _msgSender() == _developmentAddress */\n      0xffffffffffffffffffffffffffffffffffffffff\n      and\n        /* \"contracts/Pool/Pool.sol\":14259:14271  _msgSender() */\n      tag_230\n        /* \"contracts/Pool/Pool.sol\":14259:14269  _msgSender */\n      tag_149\n        /* \"contracts/Pool/Pool.sol\":14259:14271  _msgSender() */\n      jump\t// in\n    tag_230:\n        /* \"contracts/Pool/Pool.sol\":14259:14294  _msgSender() == _developmentAddress */\n      0xffffffffffffffffffffffffffffffffffffffff\n      and\n      eq\n        /* \"contracts/Pool/Pool.sol\":14259:14331  _msgSender() == _developmentAddress || _msgSender() == _marketingAddress */\n      dup1\n      tag_231\n      jumpi\n      pop\n        /* \"contracts/Pool/Pool.sol\":14314:14331  _marketingAddress */\n      0x0f\n      0x00\n      swap1\n      sload\n      swap1\n      0x0100\n      exp\n      swap1\n      div\n      0xffffffffffffffffffffffffffffffffffffffff\n      and\n        /* \"contracts/Pool/Pool.sol\":14298:14331  _msgSender() == _marketingAddress */\n      0xffffffffffffffffffffffffffffffffffffffff\n      and\n        /* \"contracts/Pool/Pool.sol\":14298:14310  _msgSender() */\n      tag_232\n        /* \"contracts/Pool/Pool.sol\":14298:14308  _msgSender */\n      tag_149\n        /* \"contracts/Pool/Pool.sol\":14298:14310  _msgSender() */\n      jump\t// in\n    tag_232:\n        /* \"contracts/Pool/Pool.sol\":14298:14331  _msgSender() == _marketingAddress */\n      0xffffffffffffffffffffffffffffffffffffffff\n      and\n      eq\n        /* \"contracts/Pool/Pool.sol\":14259:14331  _msgSender() == _developmentAddress || _msgSender() == _marketingAddress */\n    tag_231:\n        /* \"contracts/Pool/Pool.sol\":14259:14358  _msgSender() == _developmentAddress || _msgSender() == _marketingAddress || _msgSender() == owner() */\n      dup1\n      tag_233\n      jumpi\n      pop\n        /* \"contracts/Pool/Pool.sol\":14351:14358  owner() */\n      tag_234\n        /* \"contracts/Pool/Pool.sol\":14351:14356  owner */\n      tag_103\n        /* \"contracts/Pool/Pool.sol\":14351:14358  owner() */\n      jump\t// in\n    tag_234:\n        /* \"contracts/Pool/Pool.sol\":14335:14358  _msgSender() == owner() */\n      0xffffffffffffffffffffffffffffffffffffffff\n      and\n        /* \"contracts/Pool/Pool.sol\":14335:14347  _msgSender() */\n      tag_235\n        /* \"contracts/Pool/Pool.sol\":14335:14345  _msgSender */\n      tag_149\n        /* \"contracts/Pool/Pool.sol\":14335:14347  _msgSender() */\n      jump\t// in\n    tag_235:\n        /* \"contracts/Pool/Pool.sol\":14335:14358  _msgSender() == owner() */\n      0xffffffffffffffffffffffffffffffffffffffff\n      and\n      eq\n        /* \"contracts/Pool/Pool.sol\":14259:14358  _msgSender() == _developmentAddress || _msgSender() == _marketingAddress || _msgSender() == owner() */\n    tag_233:\n        /* \"contracts/Pool/Pool.sol\":14251:14359  require(_msgSender() == _developmentAddress || _msgSender() == _marketingAddress || _msgSender() == owner()) */\n      tag_236\n      jumpi\n      0x00\n      dup1\n      revert\n    tag_236:\n        /* \"contracts/Pool/Pool.sol\":14369:14392  uint256 contractBalance */\n      0x00\n        /* \"contracts/Pool/Pool.sol\":14395:14419  balanceOf(address(this)) */\n      tag_237\n        /* \"contracts/Pool/Pool.sol\":14413:14417  this */\n      address\n        /* \"contracts/Pool/Pool.sol\":14395:14404  balanceOf */\n      tag_91\n        /* \"contracts/Pool/Pool.sol\":14395:14419  balanceOf(address(this)) */\n      jump\t// in\n    tag_237:\n        /* \"contracts/Pool/Pool.sol\":14369:14419  uint256 contractBalance = balanceOf(address(this)) */\n      swap1\n      pop\n        /* \"contracts/Pool/Pool.sol\":14429:14462  swapTokensForEth(contractBalance) */\n      tag_238\n        /* \"contracts/Pool/Pool.sol\":14446:14461  contractBalance */\n      dup2\n        /* \"contracts/Pool/Pool.sol\":14429:14445  swapTokensForEth */\n      tag_239\n        /* \"contracts/Pool/Pool.sol\":14429:14462  swapTokensForEth(contractBalance) */\n      jump\t// in\n    tag_238:\n        /* \"contracts/Pool/Pool.sol\":14241:14469  {... */\n      pop\n        /* \"contracts/Pool/Pool.sol\":14210:14469  function manualswap() external {... */\n      jump\t// out\n        /* \"contracts/Pool/Pool.sol\":15398:15628  function excludeMultipleAccountsFromFees(address[] calldata accounts, bool excluded) public onlyOwner {... */\n    tag_130:\n        /* \"contracts/Pool/Pool.sol\":3317:3329  _msgSender() */\n      tag_241\n        /* \"contracts/Pool/Pool.sol\":3317:3327  _msgSender */\n      tag_149\n        /* \"contracts/Pool/Pool.sol\":3317:3329  _msgSender() */\n      jump\t// in\n    tag_241:\n        /* \"contracts/Pool/Pool.sol\":3307:3329  _owner == _msgSender() */\n      0xffffffffffffffffffffffffffffffffffffffff\n      and\n        /* \"contracts/Pool/Pool.sol\":3307:3313  _owner */\n      0x00\n      dup1\n      sload\n      swap1\n      0x0100\n      exp\n      swap1\n      div\n      0xffffffffffffffffffffffffffffffffffffffff\n      and\n        /* \"contracts/Pool/Pool.sol\":3307:3329  _owner == _msgSender() */\n      0xffffffffffffffffffffffffffffffffffffffff\n      and\n      eq\n        /* \"contracts/Pool/Pool.sol\":3299:3357  require(_owner == _msgSender(), \"Caller is not the owner\") */\n      tag_242\n      jumpi\n      mload(0x40)\n      0x08c379a000000000000000000000000000000000000000000000000000000000\n      dup2\n      mstore\n      0x04\n      add\n      tag_243\n      swap1\n      tag_188\n      jump\t// in\n    tag_243:\n      mload(0x40)\n      dup1\n      swap2\n      sub\n      swap1\n      revert\n    tag_242:\n        /* \"contracts/Pool/Pool.sol\":15514:15523  uint256 i */\n      0x00\n        /* \"contracts/Pool/Pool.sol\":15510:15622  for(uint256 i = 0; i < accounts.length; i++) {... */\n    tag_245:\n        /* \"contracts/Pool/Pool.sol\":15533:15541  accounts */\n      dup4\n      dup4\n        /* \"contracts/Pool/Pool.sol\":15533:15548  accounts.length */\n      swap1\n      pop\n        /* \"contracts/Pool/Pool.sol\":15529:15530  i */\n      dup2\n        /* \"contracts/Pool/Pool.sol\":15529:15548  i < accounts.length */\n      lt\n        /* \"contracts/Pool/Pool.sol\":15510:15622  for(uint256 i = 0; i < accounts.length; i++) {... */\n      iszero\n      tag_246\n      jumpi\n        /* \"contracts/Pool/Pool.sol\":15603:15611  excluded */\n      dup2\n        /* \"contracts/Pool/Pool.sol\":15569:15587  _isExcludedFromFee */\n      0x05\n        /* \"contracts/Pool/Pool.sol\":15569:15600  _isExcludedFromFee[accounts[i]] */\n      0x00\n        /* \"contracts/Pool/Pool.sol\":15588:15596  accounts */\n      dup7\n      dup7\n        /* \"contracts/Pool/Pool.sol\":15597:15598  i */\n      dup6\n        /* \"contracts/Pool/Pool.sol\":15588:15599  accounts[i] */\n      dup2\n      dup2\n      lt\n      tag_248\n      jumpi\n      tag_249\n      tag_250\n      jump\t// in\n    tag_249:\n    tag_248:\n      swap1\n      pop\n      0x20\n      mul\n      add\n      0x20\n      dup2\n      add\n      swap1\n      tag_251\n      swap2\n      swap1\n      tag_90\n      jump\t// in\n    tag_251:\n        /* \"contracts/Pool/Pool.sol\":15569:15600  _isExcludedFromFee[accounts[i]] */\n      0xffffffffffffffffffffffffffffffffffffffff\n      and\n      0xffffffffffffffffffffffffffffffffffffffff\n      and\n      dup2\n      mstore\n      0x20\n      add\n      swap1\n      dup2\n      mstore\n      0x20\n      add\n      0x00\n      keccak256\n      0x00\n        /* \"contracts/Pool/Pool.sol\":15569:15611  _isExcludedFromFee[accounts[i]] = excluded */\n      0x0100\n      exp\n      dup2\n      sload\n      dup2\n      0xff\n      mul\n      not\n      and\n      swap1\n      dup4\n      iszero\n      iszero\n      mul\n      or\n      swap1\n      sstore\n      pop\n        /* \"contracts/Pool/Pool.sol\":15550:15553  i++ */\n      dup1\n      dup1\n      tag_252\n      swap1\n      tag_253\n      jump\t// in\n    tag_252:\n      swap2\n      pop\n      pop\n        /* \"contracts/Pool/Pool.sol\":15510:15622  for(uint256 i = 0; i < accounts.length; i++) {... */\n      jump(tag_245)\n    tag_246:\n      pop\n        /* \"contracts/Pool/Pool.sol\":15398:15628  function excludeMultipleAccountsFromFees(address[] calldata accounts, bool excluded) public onlyOwner {... */\n      pop\n      pop\n      pop\n      jump\t// out\n        /* \"contracts/Pool/Pool.sol\":6871:7012  function allowance(address owner, address spender) public view override returns (uint256) {... */\n    tag_135:\n        /* \"contracts/Pool/Pool.sol\":6952:6959  uint256 */\n      0x00\n        /* \"contracts/Pool/Pool.sol\":6978:6989  _allowances */\n      0x04\n        /* \"contracts/Pool/Pool.sol\":6978:6996  _allowances[owner] */\n      0x00\n        /* \"contracts/Pool/Pool.sol\":6990:6995  owner */\n      dup5\n        /* \"contracts/Pool/Pool.sol\":6978:6996  _allowances[owner] */\n      0xffffffffffffffffffffffffffffffffffffffff\n      and\n      0xffffffffffffffffffffffffffffffffffffffff\n      and\n      dup2\n      mstore\n      0x20\n      add\n      swap1\n      dup2\n      mstore\n      0x20\n      add\n      0x00\n      keccak256\n        /* \"contracts/Pool/Pool.sol\":6978:7005  _allowances[owner][spender] */\n      0x00\n        /* \"contracts/Pool/Pool.sol\":6997:7004  spender */\n      dup4\n        /* \"contracts/Pool/Pool.sol\":6978:7005  _allowances[owner][spender] */\n      0xffffffffffffffffffffffffffffffffffffffff\n      and\n      0xffffffffffffffffffffffffffffffffffffffff\n      and\n      dup2\n      mstore\n      0x20\n      add\n      swap1\n      dup2\n      mstore\n      0x20\n      add\n      0x00\n      keccak256\n      sload\n        /* \"contracts/Pool/Pool.sol\":6971:7005  return _allowances[owner][spender] */\n      swap1\n      pop\n        /* \"contracts/Pool/Pool.sol\":6871:7012  function allowance(address owner, address spender) public view override returns (uint256) {... */\n      swap3\n      swap2\n      pop\n      pop\n      jump\t// out\n        /* \"contracts/Pool/Pool.sol\":10820:11025  function rescueForeignTokens(address _tokenAddr, address _to, uint _amount) public onlyDev() {... */\n    tag_140:\n        /* \"contracts/Pool/Pool.sol\":6092:6104  _msgSender() */\n      tag_256\n        /* \"contracts/Pool/Pool.sol\":6092:6102  _msgSender */\n      tag_149\n        /* \"contracts/Pool/Pool.sol\":6092:6104  _msgSender() */\n      jump\t// in\n    tag_256:\n        /* \"contracts/Pool/Pool.sol\":6081:6104  owner() == _msgSender() */\n      0xffffffffffffffffffffffffffffffffffffffff\n      and\n        /* \"contracts/Pool/Pool.sol\":6081:6088  owner() */\n      tag_257\n        /* \"contracts/Pool/Pool.sol\":6081:6086  owner */\n      tag_103\n        /* \"contracts/Pool/Pool.sol\":6081:6088  owner() */\n      jump\t// in\n    tag_257:\n        /* \"contracts/Pool/Pool.sol\":6081:6104  owner() == _msgSender() */\n      0xffffffffffffffffffffffffffffffffffffffff\n      and\n      eq\n        /* \"contracts/Pool/Pool.sol\":6081:6143  owner() == _msgSender() || _developmentAddress == _msgSender() */\n      dup1\n      tag_258\n      jumpi\n      pop\n        /* \"contracts/Pool/Pool.sol\":6131:6143  _msgSender() */\n      tag_259\n        /* \"contracts/Pool/Pool.sol\":6131:6141  _msgSender */\n      tag_149\n        /* \"contracts/Pool/Pool.sol\":6131:6143  _msgSender() */\n      jump\t// in\n    tag_259:\n        /* \"contracts/Pool/Pool.sol\":6108:6143  _developmentAddress == _msgSender() */\n      0xffffffffffffffffffffffffffffffffffffffff\n      and\n        /* \"contracts/Pool/Pool.sol\":6108:6127  _developmentAddress */\n      0x0e\n      0x00\n      swap1\n      sload\n      swap1\n      0x0100\n      exp\n      swap1\n      div\n      0xffffffffffffffffffffffffffffffffffffffff\n      and\n        /* \"contracts/Pool/Pool.sol\":6108:6143  _developmentAddress == _msgSender() */\n      0xffffffffffffffffffffffffffffffffffffffff\n      and\n      eq\n        /* \"contracts/Pool/Pool.sol\":6081:6143  owner() == _msgSender() || _developmentAddress == _msgSender() */\n    tag_258:\n        /* \"contracts/Pool/Pool.sol\":6073:6169  require(owner() == _msgSender() || _developmentAddress == _msgSender(), \"Caller is not the dev\") */\n      tag_260\n      jumpi\n      mload(0x40)\n      0x08c379a000000000000000000000000000000000000000000000000000000000\n      dup2\n      mstore\n      0x04\n      add\n      tag_261\n      swap1\n      tag_169\n      jump\t// in\n    tag_261:\n      mload(0x40)\n      dup1\n      swap2\n      sub\n      swap1\n      revert\n    tag_260:\n        /* \"contracts/Pool/Pool.sol\":10954:10957  _to */\n      dup2\n        /* \"contracts/Pool/Pool.sol\":10928:10967  tokensRescued(_tokenAddr, _to, _amount) */\n      0xffffffffffffffffffffffffffffffffffffffff\n      and\n        /* \"contracts/Pool/Pool.sol\":10942:10952  _tokenAddr */\n      dup4\n        /* \"contracts/Pool/Pool.sol\":10928:10967  tokensRescued(_tokenAddr, _to, _amount) */\n      0xffffffffffffffffffffffffffffffffffffffff\n      and\n      0x47c33aa230eb5fd181505aa7befeaddd9b8a6f983989cea73a7868448c3a9ed9\n        /* \"contracts/Pool/Pool.sol\":10959:10966  _amount */\n      dup4\n        /* \"contracts/Pool/Pool.sol\":10928:10967  tokensRescued(_tokenAddr, _to, _amount) */\n      mload(0x40)\n      tag_263\n      swap2\n      swap1\n      tag_53\n      jump\t// in\n    tag_263:\n      mload(0x40)\n      dup1\n      swap2\n      sub\n      swap1\n      log3\n        /* \"contracts/Pool/Pool.sol\":10984:10994  _tokenAddr */\n      dup3\n        /* \"contracts/Pool/Pool.sol\":10978:11004  Token(_tokenAddr).transfer */\n      0xffffffffffffffffffffffffffffffffffffffff\n      and\n      0xa9059cbb\n        /* \"contracts/Pool/Pool.sol\":11005:11008  _to */\n      dup4\n        /* \"contracts/Pool/Pool.sol\":11010:11017  _amount */\n      dup4\n        /* \"contracts/Pool/Pool.sol\":10978:11018  Token(_tokenAddr).transfer(_to, _amount) */\n      mload(0x40)\n      dup4\n      0xffffffff\n      and\n      0xe0\n      shl\n      dup2\n      mstore\n      0x04\n      add\n      tag_264\n      swap3\n      swap2\n      swap1\n      tag_265\n      jump\t// in\n    tag_264:\n      0x20\n      mload(0x40)\n      dup1\n      dup4\n      sub\n      dup2\n      0x00\n      dup8\n      gas\n      call\n      iszero\n      dup1\n      iszero\n      tag_267\n      jumpi\n      returndatasize\n      0x00\n      dup1\n      returndatacopy\n      revert(0x00, returndatasize)\n    tag_267:\n      pop\n      pop\n      pop\n      pop\n      mload(0x40)\n      returndatasize\n      not(0x1f)\n      0x1f\n      dup3\n      add\n      and\n      dup3\n      add\n      dup1\n      0x40\n      mstore\n      pop\n      dup2\n      add\n      swap1\n      tag_268\n      swap2\n      swap1\n      tag_269\n      jump\t// in\n    tag_268:\n      pop\n        /* \"contracts/Pool/Pool.sol\":10820:11025  function rescueForeignTokens(address _tokenAddr, address _to, uint _amount) public onlyDev() {... */\n      pop\n      pop\n      pop\n      jump\t// out\n        /* \"contracts/Pool/Pool.sol\":3625:3782  function transferOwnership(address newOwner) public virtual onlyOwner {... */\n    tag_144:\n        /* \"contracts/Pool/Pool.sol\":3317:3329  _msgSender() */\n      tag_271\n        /* \"contracts/Pool/Pool.sol\":3317:3327  _msgSender */\n      tag_149\n        /* \"contracts/Pool/Pool.sol\":3317:3329  _msgSender() */\n      jump\t// in\n    tag_271:\n        /* \"contracts/Pool/Pool.sol\":3307:3329  _owner == _msgSender() */\n      0xffffffffffffffffffffffffffffffffffffffff\n      and\n        /* \"contracts/Pool/Pool.sol\":3307:3313  _owner */\n      0x00\n      dup1\n      sload\n      swap1\n      0x0100\n      exp\n      swap1\n      div\n      0xffffffffffffffffffffffffffffffffffffffff\n      and\n        /* \"contracts/Pool/Pool.sol\":3307:3329  _owner == _msgSender() */\n      0xffffffffffffffffffffffffffffffffffffffff\n      and\n      eq\n        /* \"contracts/Pool/Pool.sol\":3299:3357  require(_owner == _msgSender(), \"Caller is not the owner\") */\n      tag_272\n      jumpi\n      mload(0x40)\n      0x08c379a000000000000000000000000000000000000000000000000000000000\n      dup2\n      mstore\n      0x04\n      add\n      tag_273\n      swap1\n      tag_188\n      jump\t// in\n    tag_273:\n      mload(0x40)\n      dup1\n      swap2\n      sub\n      swap1\n      revert\n    tag_272:\n        /* \"contracts/Pool/Pool.sol\":3739:3747  newOwner */\n      dup1\n        /* \"contracts/Pool/Pool.sol\":3710:3748  OwnershipTransferred(_owner, newOwner) */\n      0xffffffffffffffffffffffffffffffffffffffff\n      and\n        /* \"contracts/Pool/Pool.sol\":3731:3737  _owner */\n      0x00\n      dup1\n      sload\n      swap1\n      0x0100\n      exp\n      swap1\n      div\n      0xffffffffffffffffffffffffffffffffffffffff\n      and\n        /* \"contracts/Pool/Pool.sol\":3710:3748  OwnershipTransferred(_owner, newOwner) */\n      0xffffffffffffffffffffffffffffffffffffffff\n      and\n      0x8be0079c531659141344cd1fd0a4f28419497f9722a3daafe3b4186f6b6457e0\n      mload(0x40)\n      mload(0x40)\n      dup1\n      swap2\n      sub\n      swap1\n      log3\n        /* \"contracts/Pool/Pool.sol\":3767:3775  newOwner */\n      dup1\n        /* \"contracts/Pool/Pool.sol\":3758:3764  _owner */\n      0x00\n      dup1\n        /* \"contracts/Pool/Pool.sol\":3758:3775  _owner = newOwner */\n      0x0100\n      exp\n      dup2\n      sload\n      dup2\n      0xffffffffffffffffffffffffffffffffffffffff\n      mul\n      not\n      and\n      swap1\n      dup4\n      0xffffffffffffffffffffffffffffffffffffffff\n      and\n      mul\n      or\n      swap1\n      sstore\n      pop\n        /* \"contracts/Pool/Pool.sol\":3625:3782  function transferOwnership(address newOwner) public virtual onlyOwner {... */\n      pop\n      jump\t// out\n        /* \"contracts/Pool/Pool.sol\":1721:1817  function _msgSender() internal view virtual returns (address) {... */\n    tag_149:\n        /* \"contracts/Pool/Pool.sol\":1774:1781  address */\n      0x00\n        /* \"contracts/Pool/Pool.sol\":1800:1810  msg.sender */\n      caller\n        /* \"contracts/Pool/Pool.sol\":1793:1810  return msg.sender */\n      swap1\n      pop\n        /* \"contracts/Pool/Pool.sol\":1721:1817  function _msgSender() internal view virtual returns (address) {... */\n      swap1\n      jump\t// out\n        /* \"contracts/Pool/Pool.sol\":7753:8083  function _approve(address owner, address spender, uint256 amount) private {... */\n    tag_150:\n        /* \"contracts/Pool/Pool.sol\":7862:7863  0 */\n      0x00\n        /* \"contracts/Pool/Pool.sol\":7845:7864  owner != address(0) */\n      0xffffffffffffffffffffffffffffffffffffffff\n      and\n        /* \"contracts/Pool/Pool.sol\":7845:7850  owner */\n      dup4\n        /* \"contracts/Pool/Pool.sol\":7845:7864  owner != address(0) */\n      0xffffffffffffffffffffffffffffffffffffffff\n      and\n      sub\n        /* \"contracts/Pool/Pool.sol\":7837:7905  require(owner != address(0), \"ERC20: approve from the zero address\") */\n      tag_277\n      jumpi\n      mload(0x40)\n      0x08c379a000000000000000000000000000000000000000000000000000000000\n      dup2\n      mstore\n      0x04\n      add\n      tag_278\n      swap1\n      tag_279\n      jump\t// in\n    tag_278:\n      mload(0x40)\n      dup1\n      swap2\n      sub\n      swap1\n      revert\n    tag_277:\n        /* \"contracts/Pool/Pool.sol\":7942:7943  0 */\n      0x00\n        /* \"contracts/Pool/Pool.sol\":7923:7944  spender != address(0) */\n      0xffffffffffffffffffffffffffffffffffffffff\n      and\n        /* \"contracts/Pool/Pool.sol\":7923:7930  spender */\n      dup3\n        /* \"contracts/Pool/Pool.sol\":7923:7944  spender != address(0) */\n      0xffffffffffffffffffffffffffffffffffffffff\n      and\n      sub\n        /* \"contracts/Pool/Pool.sol\":7915:7983  require(spender != address(0), \"ERC20: approve to the zero address\") */\n      tag_280\n      jumpi\n      mload(0x40)\n      0x08c379a000000000000000000000000000000000000000000000000000000000\n      dup2\n      mstore\n      0x04\n      add\n      tag_281\n      swap1\n      tag_282\n      jump\t// in\n    tag_281:\n      mload(0x40)\n      dup1\n      swap2\n      sub\n      swap1\n      revert\n    tag_280:\n        /* \"contracts/Pool/Pool.sol\":8023:8029  amount */\n      dup1\n        /* \"contracts/Pool/Pool.sol\":7993:8004  _allowances */\n      0x04\n        /* \"contracts/Pool/Pool.sol\":7993:8011  _allowances[owner] */\n      0x00\n        /* \"contracts/Pool/Pool.sol\":8005:8010  owner */\n      dup6\n        /* \"contracts/Pool/Pool.sol\":7993:8011  _allowances[owner] */\n      0xffffffffffffffffffffffffffffffffffffffff\n      and\n      0xffffffffffffffffffffffffffffffffffffffff\n      and\n      dup2\n      mstore\n      0x20\n      add\n      swap1\n      dup2\n      mstore\n      0x20\n      add\n      0x00\n      keccak256\n        /* \"contracts/Pool/Pool.sol\":7993:8020  _allowances[owner][spender] */\n      0x00\n        /* \"contracts/Pool/Pool.sol\":8012:8019  spender */\n      dup5\n        /* \"contracts/Pool/Pool.sol\":7993:8020  _allowances[owner][spender] */\n      0xffffffffffffffffffffffffffffffffffffffff\n      and\n      0xffffffffffffffffffffffffffffffffffffffff\n      and\n      dup2\n      mstore\n      0x20\n      add\n      swap1\n      dup2\n      mstore\n      0x20\n      add\n      0x00\n      keccak256\n        /* \"contracts/Pool/Pool.sol\":7993:8029  _allowances[owner][spender] = amount */\n      dup2\n      swap1\n      sstore\n      pop\n        /* \"contracts/Pool/Pool.sol\":8060:8067  spender */\n      dup2\n        /* \"contracts/Pool/Pool.sol\":8044:8076  Approval(owner, spender, amount) */\n      0xffffffffffffffffffffffffffffffffffffffff\n      and\n        /* \"contracts/Pool/Pool.sol\":8053:8058  owner */\n      dup4\n        /* \"contracts/Pool/Pool.sol\":8044:8076  Approval(owner, spender, amount) */\n      0xffffffffffffffffffffffffffffffffffffffff\n      and\n      0x8c5be1e5ebec7d5bd14f71427d1e84f3dd0314c0f7b2291e5b200ac8c7c3b925\n        /* \"contracts/Pool/Pool.sol\":8069:8075  amount */\n      dup4\n        /* \"contracts/Pool/Pool.sol\":8044:8076  Approval(owner, spender, amount) */\n      mload(0x40)\n      tag_283\n      swap2\n      swap1\n      tag_53\n      jump\t// in\n    tag_283:\n      mload(0x40)\n      dup1\n      swap2\n      sub\n      swap1\n      log3\n        /* \"contracts/Pool/Pool.sol\":7753:8083  function _approve(address owner, address spender, uint256 amount) private {... */\n      pop\n      pop\n      pop\n      jump\t// out\n        /* \"contracts/Pool/Pool.sol\":8089:9574  function _transfer(address from, address to, uint256 amount) private {... */\n    tag_154:\n        /* \"contracts/Pool/Pool.sol\":8192:8193  0 */\n      0x00\n        /* \"contracts/Pool/Pool.sol\":8176:8194  from != address(0) */\n      0xffffffffffffffffffffffffffffffffffffffff\n      and\n        /* \"contracts/Pool/Pool.sol\":8176:8180  from */\n      dup4\n        /* \"contracts/Pool/Pool.sol\":8176:8194  from != address(0) */\n      0xffffffffffffffffffffffffffffffffffffffff\n      and\n      sub\n        /* \"contracts/Pool/Pool.sol\":8168:8236  require(from != address(0), \"ERC20: transfer from the zero address\") */\n      tag_285\n      jumpi\n      mload(0x40)\n      0x08c379a000000000000000000000000000000000000000000000000000000000\n      dup2\n      mstore\n      0x04\n      add\n      tag_286\n      swap1\n      tag_287\n      jump\t// in\n    tag_286:\n      mload(0x40)\n      dup1\n      swap2\n      sub\n      swap1\n      revert\n    tag_285:\n        /* \"contracts/Pool/Pool.sol\":8268:8269  0 */\n      0x00\n        /* \"contracts/Pool/Pool.sol\":8254:8270  to != address(0) */\n      0xffffffffffffffffffffffffffffffffffffffff\n      and\n        /* \"contracts/Pool/Pool.sol\":8254:8256  to */\n      dup3\n        /* \"contracts/Pool/Pool.sol\":8254:8270  to != address(0) */\n      0xffffffffffffffffffffffffffffffffffffffff\n      and\n      sub\n        /* \"contracts/Pool/Pool.sol\":8246:8310  require(to != address(0), \"ERC20: transfer to the zero address\") */\n      tag_288\n      jumpi\n      mload(0x40)\n      0x08c379a000000000000000000000000000000000000000000000000000000000\n      dup2\n      mstore\n      0x04\n      add\n      tag_289\n      swap1\n      tag_290\n      jump\t// in\n    tag_289:\n      mload(0x40)\n      dup1\n      swap2\n      sub\n      swap1\n      revert\n    tag_288:\n        /* \"contracts/Pool/Pool.sol\":8337:8338  0 */\n      0x00\n        /* \"contracts/Pool/Pool.sol\":8328:8334  amount */\n      dup2\n        /* \"contracts/Pool/Pool.sol\":8328:8338  amount > 0 */\n      gt\n        /* \"contracts/Pool/Pool.sol\":8320:8384  require(amount > 0, \"Transfer amount must be greater than zero\") */\n      tag_291\n      jumpi\n      mload(0x40)\n      0x08c379a000000000000000000000000000000000000000000000000000000000\n      dup2\n      mstore\n      0x04\n      add\n      tag_292\n      swap1\n      tag_293\n      jump\t// in\n    tag_292:\n      mload(0x40)\n      dup1\n      swap2\n      sub\n      swap1\n      revert\n    tag_291:\n        /* \"contracts/Pool/Pool.sol\":8415:8416  0 */\n      0x00\n        /* \"contracts/Pool/Pool.sol\":8403:8412  _redisFee */\n      0x0c\n        /* \"contracts/Pool/Pool.sol\":8403:8416  _redisFee = 0 */\n      dup2\n      swap1\n      sstore\n      pop\n        /* \"contracts/Pool/Pool.sol\":8436:8437  0 */\n      0x00\n        /* \"contracts/Pool/Pool.sol\":8426:8433  _taxFee */\n      0x0d\n        /* \"contracts/Pool/Pool.sol\":8426:8437  _taxFee = 0 */\n      dup2\n      swap1\n      sstore\n      pop\n        /* \"contracts/Pool/Pool.sol\":8468:8475  owner() */\n      tag_294\n        /* \"contracts/Pool/Pool.sol\":8468:8473  owner */\n      tag_103\n        /* \"contracts/Pool/Pool.sol\":8468:8475  owner() */\n      jump\t// in\n    tag_294:\n        /* \"contracts/Pool/Pool.sol\":8460:8475  from != owner() */\n      0xffffffffffffffffffffffffffffffffffffffff\n      and\n        /* \"contracts/Pool/Pool.sol\":8460:8464  from */\n      dup4\n        /* \"contracts/Pool/Pool.sol\":8460:8475  from != owner() */\n      0xffffffffffffffffffffffffffffffffffffffff\n      and\n      eq\n      iszero\n        /* \"contracts/Pool/Pool.sol\":8460:8492  from != owner() && to != owner() */\n      dup1\n      iszero\n      tag_295\n      jumpi\n      pop\n        /* \"contracts/Pool/Pool.sol\":8485:8492  owner() */\n      tag_296\n        /* \"contracts/Pool/Pool.sol\":8485:8490  owner */\n      tag_103\n        /* \"contracts/Pool/Pool.sol\":8485:8492  owner() */\n      jump\t// in\n    tag_296:\n        /* \"contracts/Pool/Pool.sol\":8479:8492  to != owner() */\n      0xffffffffffffffffffffffffffffffffffffffff\n      and\n        /* \"contracts/Pool/Pool.sol\":8479:8481  to */\n      dup3\n        /* \"contracts/Pool/Pool.sol\":8479:8492  to != owner() */\n      0xffffffffffffffffffffffffffffffffffffffff\n      and\n      eq\n      iszero\n        /* \"contracts/Pool/Pool.sol\":8460:8492  from != owner() && to != owner() */\n    tag_295:\n        /* \"contracts/Pool/Pool.sol\":8456:9527  if (from != owner() && to != owner()) {... */\n      iszero\n      tag_297\n      jumpi\n        /* \"contracts/Pool/Pool.sol\":8521:8549  uint256 contractTokenBalance */\n      0x00\n        /* \"contracts/Pool/Pool.sol\":8552:8576  balanceOf(address(this)) */\n      tag_298\n        /* \"contracts/Pool/Pool.sol\":8570:8574  this */\n      address\n        /* \"contracts/Pool/Pool.sol\":8552:8561  balanceOf */\n      tag_91\n        /* \"contracts/Pool/Pool.sol\":8552:8576  balanceOf(address(this)) */\n      jump\t// in\n    tag_298:\n        /* \"contracts/Pool/Pool.sol\":8521:8576  uint256 contractTokenBalance = balanceOf(address(this)) */\n      swap1\n      pop\n        /* \"contracts/Pool/Pool.sol\":8595:8601  inSwap */\n      0x12\n      0x14\n      swap1\n      sload\n      swap1\n      0x0100\n      exp\n      swap1\n      div\n      0xff\n      and\n        /* \"contracts/Pool/Pool.sol\":8594:8601  !inSwap */\n      iszero\n        /* \"contracts/Pool/Pool.sol\":8594:8626  !inSwap && from != uniswapV2Pair */\n      dup1\n      iszero\n      tag_299\n      jumpi\n      pop\n        /* \"contracts/Pool/Pool.sol\":8613:8626  uniswapV2Pair */\n      0x12\n      0x00\n      swap1\n      sload\n      swap1\n      0x0100\n      exp\n      swap1\n      div\n      0xffffffffffffffffffffffffffffffffffffffff\n      and\n        /* \"contracts/Pool/Pool.sol\":8605:8626  from != uniswapV2Pair */\n      0xffffffffffffffffffffffffffffffffffffffff\n      and\n        /* \"contracts/Pool/Pool.sol\":8605:8609  from */\n      dup5\n        /* \"contracts/Pool/Pool.sol\":8605:8626  from != uniswapV2Pair */\n      0xffffffffffffffffffffffffffffffffffffffff\n      and\n      eq\n      iszero\n        /* \"contracts/Pool/Pool.sol\":8594:8626  !inSwap && from != uniswapV2Pair */\n    tag_299:\n        /* \"contracts/Pool/Pool.sol\":8594:8641  !inSwap && from != uniswapV2Pair && swapEnabled */\n      dup1\n      iszero\n      tag_300\n      jumpi\n      pop\n        /* \"contracts/Pool/Pool.sol\":8630:8641  swapEnabled */\n      0x12\n      0x15\n      swap1\n      sload\n      swap1\n      0x0100\n      exp\n      swap1\n      div\n      0xff\n      and\n        /* \"contracts/Pool/Pool.sol\":8594:8641  !inSwap && from != uniswapV2Pair && swapEnabled */\n    tag_300:\n        /* \"contracts/Pool/Pool.sol\":8594:8669  !inSwap && from != uniswapV2Pair && swapEnabled && contractTokenBalance > 0 */\n      dup1\n      iszero\n      tag_301\n      jumpi\n      pop\n        /* \"contracts/Pool/Pool.sol\":8668:8669  0 */\n      0x00\n        /* \"contracts/Pool/Pool.sol\":8645:8665  contractTokenBalance */\n      dup2\n        /* \"contracts/Pool/Pool.sol\":8645:8669  contractTokenBalance > 0 */\n      gt\n        /* \"contracts/Pool/Pool.sol\":8594:8669  !inSwap && from != uniswapV2Pair && swapEnabled && contractTokenBalance > 0 */\n    tag_301:\n        /* \"contracts/Pool/Pool.sol\":8590:8930  if (!inSwap && from != uniswapV2Pair && swapEnabled && contractTokenBalance > 0) {... */\n      iszero\n      tag_302\n      jumpi\n        /* \"contracts/Pool/Pool.sol\":8689:8727  swapTokensForEth(contractTokenBalance) */\n      tag_303\n        /* \"contracts/Pool/Pool.sol\":8706:8726  contractTokenBalance */\n      dup2\n        /* \"contracts/Pool/Pool.sol\":8689:8705  swapTokensForEth */\n      tag_239\n        /* \"contracts/Pool/Pool.sol\":8689:8727  swapTokensForEth(contractTokenBalance) */\n      jump\t// in\n    tag_303:\n        /* \"contracts/Pool/Pool.sol\":8745:8771  uint256 contractETHBalance */\n      0x00\n        /* \"contracts/Pool/Pool.sol\":8774:8795  address(this).balance */\n      selfbalance\n        /* \"contracts/Pool/Pool.sol\":8745:8795  uint256 contractETHBalance = address(this).balance */\n      swap1\n      pop\n        /* \"contracts/Pool/Pool.sol\":8837:8838  0 */\n      0x00\n        /* \"contracts/Pool/Pool.sol\":8816:8834  contractETHBalance */\n      dup2\n        /* \"contracts/Pool/Pool.sol\":8816:8838  contractETHBalance > 0 */\n      gt\n        /* \"contracts/Pool/Pool.sol\":8813:8916  if(contractETHBalance > 0) {... */\n      iszero\n      tag_304\n      jumpi\n        /* \"contracts/Pool/Pool.sol\":8862:8897  sendETHToFee(address(this).balance) */\n      tag_305\n        /* \"contracts/Pool/Pool.sol\":8875:8896  address(this).balance */\n      selfbalance\n        /* \"contracts/Pool/Pool.sol\":8862:8874  sendETHToFee */\n      tag_180\n        /* \"contracts/Pool/Pool.sol\":8862:8897  sendETHToFee(address(this).balance) */\n      jump\t// in\n    tag_305:\n        /* \"contracts/Pool/Pool.sol\":8813:8916  if(contractETHBalance > 0) {... */\n    tag_304:\n        /* \"contracts/Pool/Pool.sol\":8671:8930  {... */\n      pop\n        /* \"contracts/Pool/Pool.sol\":8590:8930  if (!inSwap && from != uniswapV2Pair && swapEnabled && contractTokenBalance > 0) {... */\n    tag_302:\n        /* \"contracts/Pool/Pool.sol\":8967:8980  uniswapV2Pair */\n      0x12\n      0x00\n      swap1\n      sload\n      swap1\n      0x0100\n      exp\n      swap1\n      div\n      0xffffffffffffffffffffffffffffffffffffffff\n      and\n        /* \"contracts/Pool/Pool.sol\":8959:8980  from == uniswapV2Pair */\n      0xffffffffffffffffffffffffffffffffffffffff\n      and\n        /* \"contracts/Pool/Pool.sol\":8959:8963  from */\n      dup5\n        /* \"contracts/Pool/Pool.sol\":8959:8980  from == uniswapV2Pair */\n      0xffffffffffffffffffffffffffffffffffffffff\n      and\n      eq\n        /* \"contracts/Pool/Pool.sol\":8959:9014  from == uniswapV2Pair && to != address(uniswapV2Router) */\n      dup1\n      iszero\n      tag_306\n      jumpi\n      pop\n        /* \"contracts/Pool/Pool.sol\":8998:9013  uniswapV2Router */\n      0x10\n      0x00\n      swap1\n      sload\n      swap1\n      0x0100\n      exp\n      swap1\n      div\n      0xffffffffffffffffffffffffffffffffffffffff\n      and\n        /* \"contracts/Pool/Pool.sol\":8984:9014  to != address(uniswapV2Router) */\n      0xffffffffffffffffffffffffffffffffffffffff\n      and\n        /* \"contracts/Pool/Pool.sol\":8984:8986  to */\n      dup4\n        /* \"contracts/Pool/Pool.sol\":8984:9014  to != address(uniswapV2Router) */\n      0xffffffffffffffffffffffffffffffffffffffff\n      and\n      eq\n      iszero\n        /* \"contracts/Pool/Pool.sol\":8959:9014  from == uniswapV2Pair && to != address(uniswapV2Router) */\n    tag_306:\n        /* \"contracts/Pool/Pool.sol\":8956:9115  if(from == uniswapV2Pair && to != address(uniswapV2Router)) {... */\n      iszero\n      tag_307\n      jumpi\n        /* \"contracts/Pool/Pool.sol\":9046:9060  _redisFeeOnBuy */\n      sload(0x08)\n        /* \"contracts/Pool/Pool.sol\":9034:9043  _redisFee */\n      0x0c\n        /* \"contracts/Pool/Pool.sol\":9034:9060  _redisFee = _redisFeeOnBuy */\n      dup2\n      swap1\n      sstore\n      pop\n        /* \"contracts/Pool/Pool.sol\":9088:9100  _taxFeeOnBuy */\n      sload(0x09)\n        /* \"contracts/Pool/Pool.sol\":9078:9085  _taxFee */\n      0x0d\n        /* \"contracts/Pool/Pool.sol\":9078:9100  _taxFee = _taxFeeOnBuy */\n      dup2\n      swap1\n      sstore\n      pop\n        /* \"contracts/Pool/Pool.sol\":8956:9115  if(from == uniswapV2Pair && to != address(uniswapV2Router)) {... */\n    tag_307:\n        /* \"contracts/Pool/Pool.sol\":9143:9156  uniswapV2Pair */\n      0x12\n      0x00\n      swap1\n      sload\n      swap1\n      0x0100\n      exp\n      swap1\n      div\n      0xffffffffffffffffffffffffffffffffffffffff\n      and\n        /* \"contracts/Pool/Pool.sol\":9137:9156  to == uniswapV2Pair */\n      0xffffffffffffffffffffffffffffffffffffffff\n      and\n        /* \"contracts/Pool/Pool.sol\":9137:9139  to */\n      dup4\n        /* \"contracts/Pool/Pool.sol\":9137:9156  to == uniswapV2Pair */\n      0xffffffffffffffffffffffffffffffffffffffff\n      and\n      eq\n        /* \"contracts/Pool/Pool.sol\":9137:9192  to == uniswapV2Pair && from != address(uniswapV2Router) */\n      dup1\n      iszero\n      tag_308\n      jumpi\n      pop\n        /* \"contracts/Pool/Pool.sol\":9176:9191  uniswapV2Router */\n      0x10\n      0x00\n      swap1\n      sload\n      swap1\n      0x0100\n      exp\n      swap1\n      div\n      0xffffffffffffffffffffffffffffffffffffffff\n      and\n        /* \"contracts/Pool/Pool.sol\":9160:9192  from != address(uniswapV2Router) */\n      0xffffffffffffffffffffffffffffffffffffffff\n      and\n        /* \"contracts/Pool/Pool.sol\":9160:9164  from */\n      dup5\n        /* \"contracts/Pool/Pool.sol\":9160:9192  from != address(uniswapV2Router) */\n      0xffffffffffffffffffffffffffffffffffffffff\n      and\n      eq\n      iszero\n        /* \"contracts/Pool/Pool.sol\":9137:9192  to == uniswapV2Pair && from != address(uniswapV2Router) */\n    tag_308:\n        /* \"contracts/Pool/Pool.sol\":9133:9295  if (to == uniswapV2Pair && from != address(uniswapV2Router)) {... */\n      iszero\n      tag_309\n      jumpi\n        /* \"contracts/Pool/Pool.sol\":9224:9239  _redisFeeOnSell */\n      sload(0x0a)\n        /* \"contracts/Pool/Pool.sol\":9212:9221  _redisFee */\n      0x0c\n        /* \"contracts/Pool/Pool.sol\":9212:9239  _redisFee = _redisFeeOnSell */\n      dup2\n      swap1\n      sstore\n      pop\n        /* \"contracts/Pool/Pool.sol\":9267:9280  _taxFeeOnSell */\n      sload(0x0b)\n        /* \"contracts/Pool/Pool.sol\":9257:9264  _taxFee */\n      0x0d\n        /* \"contracts/Pool/Pool.sol\":9257:9280  _taxFee = _taxFeeOnSell */\n      dup2\n      swap1\n      sstore\n      pop\n        /* \"contracts/Pool/Pool.sol\":9133:9295  if (to == uniswapV2Pair && from != address(uniswapV2Router)) {... */\n    tag_309:\n        /* \"contracts/Pool/Pool.sol\":9326:9344  _isExcludedFromFee */\n      0x05\n        /* \"contracts/Pool/Pool.sol\":9326:9350  _isExcludedFromFee[from] */\n      0x00\n        /* \"contracts/Pool/Pool.sol\":9345:9349  from */\n      dup6\n        /* \"contracts/Pool/Pool.sol\":9326:9350  _isExcludedFromFee[from] */\n      0xffffffffffffffffffffffffffffffffffffffff\n      and\n      0xffffffffffffffffffffffffffffffffffffffff\n      and\n      dup2\n      mstore\n      0x20\n      add\n      swap1\n      dup2\n      mstore\n      0x20\n      add\n      0x00\n      keccak256\n      0x00\n      swap1\n      sload\n      swap1\n      0x0100\n      exp\n      swap1\n      div\n      0xff\n      and\n        /* \"contracts/Pool/Pool.sol\":9326:9376  _isExcludedFromFee[from] || _isExcludedFromFee[to] */\n      dup1\n      tag_310\n      jumpi\n      pop\n        /* \"contracts/Pool/Pool.sol\":9354:9372  _isExcludedFromFee */\n      0x05\n        /* \"contracts/Pool/Pool.sol\":9354:9376  _isExcludedFromFee[to] */\n      0x00\n        /* \"contracts/Pool/Pool.sol\":9373:9375  to */\n      dup5\n        /* \"contracts/Pool/Pool.sol\":9354:9376  _isExcludedFromFee[to] */\n      0xffffffffffffffffffffffffffffffffffffffff\n      and\n      0xffffffffffffffffffffffffffffffffffffffff\n      and\n      dup2\n      mstore\n      0x20\n      add\n      swap1\n      dup2\n      mstore\n      0x20\n      add\n      0x00\n      keccak256\n      0x00\n      swap1\n      sload\n      swap1\n      0x0100\n      exp\n      swap1\n      div\n      0xff\n      and\n        /* \"contracts/Pool/Pool.sol\":9326:9376  _isExcludedFromFee[from] || _isExcludedFromFee[to] */\n    tag_310:\n        /* \"contracts/Pool/Pool.sol\":9325:9427  (_isExcludedFromFee[from] || _isExcludedFromFee[to]) || (from != uniswapV2Pair && to != uniswapV2Pair) */\n      dup1\n      tag_311\n      jumpi\n      pop\n        /* \"contracts/Pool/Pool.sol\":9390:9403  uniswapV2Pair */\n      0x12\n      0x00\n      swap1\n      sload\n      swap1\n      0x0100\n      exp\n      swap1\n      div\n      0xffffffffffffffffffffffffffffffffffffffff\n      and\n        /* \"contracts/Pool/Pool.sol\":9382:9403  from != uniswapV2Pair */\n      0xffffffffffffffffffffffffffffffffffffffff\n      and\n        /* \"contracts/Pool/Pool.sol\":9382:9386  from */\n      dup5\n        /* \"contracts/Pool/Pool.sol\":9382:9403  from != uniswapV2Pair */\n      0xffffffffffffffffffffffffffffffffffffffff\n      and\n      eq\n      iszero\n        /* \"contracts/Pool/Pool.sol\":9382:9426  from != uniswapV2Pair && to != uniswapV2Pair */\n      dup1\n      iszero\n      tag_312\n      jumpi\n      pop\n        /* \"contracts/Pool/Pool.sol\":9413:9426  uniswapV2Pair */\n      0x12\n      0x00\n      swap1\n      sload\n      swap1\n      0x0100\n      exp\n      swap1\n      div\n      0xffffffffffffffffffffffffffffffffffffffff\n      and\n        /* \"contracts/Pool/Pool.sol\":9407:9426  to != uniswapV2Pair */\n      0xffffffffffffffffffffffffffffffffffffffff\n      and\n        /* \"contracts/Pool/Pool.sol\":9407:9409  to */\n      dup4\n        /* \"contracts/Pool/Pool.sol\":9407:9426  to != uniswapV2Pair */\n      0xffffffffffffffffffffffffffffffffffffffff\n      and\n      eq\n      iszero\n        /* \"contracts/Pool/Pool.sol\":9382:9426  from != uniswapV2Pair && to != uniswapV2Pair */\n    tag_312:\n        /* \"contracts/Pool/Pool.sol\":9325:9427  (_isExcludedFromFee[from] || _isExcludedFromFee[to]) || (from != uniswapV2Pair && to != uniswapV2Pair) */\n    tag_311:\n        /* \"contracts/Pool/Pool.sol\":9321:9504  if ((_isExcludedFromFee[from] || _isExcludedFromFee[to]) || (from != uniswapV2Pair && to != uniswapV2Pair)) {... */\n      iszero\n      tag_313\n      jumpi\n        /* \"contracts/Pool/Pool.sol\":9459:9460  0 */\n      0x00\n        /* \"contracts/Pool/Pool.sol\":9447:9456  _redisFee */\n      0x0c\n        /* \"contracts/Pool/Pool.sol\":9447:9460  _redisFee = 0 */\n      dup2\n      swap1\n      sstore\n      pop\n        /* \"contracts/Pool/Pool.sol\":9488:9489  0 */\n      0x00\n        /* \"contracts/Pool/Pool.sol\":9478:9485  _taxFee */\n      0x0d\n        /* \"contracts/Pool/Pool.sol\":9478:9489  _taxFee = 0 */\n      dup2\n      swap1\n      sstore\n      pop\n        /* \"contracts/Pool/Pool.sol\":9321:9504  if ((_isExcludedFromFee[from] || _isExcludedFromFee[to]) || (from != uniswapV2Pair && to != uniswapV2Pair)) {... */\n    tag_313:\n        /* \"contracts/Pool/Pool.sol\":8494:9527  {... */\n      pop\n        /* \"contracts/Pool/Pool.sol\":8456:9527  if (from != owner() && to != owner()) {... */\n    tag_297:\n        /* \"contracts/Pool/Pool.sol\":9537:9567  _tokenTransfer(from,to,amount) */\n      tag_314\n        /* \"contracts/Pool/Pool.sol\":9552:9556  from */\n      dup4\n        /* \"contracts/Pool/Pool.sol\":9557:9559  to */\n      dup4\n        /* \"contracts/Pool/Pool.sol\":9560:9566  amount */\n      dup4\n        /* \"contracts/Pool/Pool.sol\":9537:9551  _tokenTransfer */\n      tag_315\n        /* \"contracts/Pool/Pool.sol\":9537:9567  _tokenTransfer(from,to,amount) */\n      jump\t// in\n    tag_314:\n        /* \"contracts/Pool/Pool.sol\":8089:9574  function _transfer(address from, address to, uint256 amount) private {... */\n      pop\n      pop\n      pop\n      jump\t// out\n        /* \"contracts/Pool/Pool.sol\":2167:2353  function sub(uint256 a, uint256 b, string memory errorMessage) internal pure returns (uint256) {... */\n    tag_159:\n        /* \"contracts/Pool/Pool.sol\":2253:2260  uint256 */\n      0x00\n        /* \"contracts/Pool/Pool.sol\":2285:2286  a */\n      dup4\n        /* \"contracts/Pool/Pool.sol\":2280:2281  b */\n      dup4\n        /* \"contracts/Pool/Pool.sol\":2280:2286  b <= a */\n      gt\n      iszero\n        /* \"contracts/Pool/Pool.sol\":2288:2300  errorMessage */\n      dup3\n        /* \"contracts/Pool/Pool.sol\":2272:2301  require(b <= a, errorMessage) */\n      swap1\n      tag_317\n      jumpi\n      mload(0x40)\n      0x08c379a000000000000000000000000000000000000000000000000000000000\n      dup2\n      mstore\n      0x04\n      add\n      tag_318\n      swap2\n      swap1\n      tag_36\n      jump\t// in\n    tag_318:\n      mload(0x40)\n      dup1\n      swap2\n      sub\n      swap1\n      revert\n    tag_317:\n      pop\n        /* \"contracts/Pool/Pool.sol\":2311:2320  uint256 c */\n      0x00\n        /* \"contracts/Pool/Pool.sol\":2327:2328  b */\n      dup4\n        /* \"contracts/Pool/Pool.sol\":2323:2324  a */\n      dup6\n        /* \"contracts/Pool/Pool.sol\":2323:2328  a - b */\n      tag_319\n      swap2\n      swap1\n      tag_320\n      jump\t// in\n    tag_319:\n        /* \"contracts/Pool/Pool.sol\":2311:2328  uint256 c = a - b */\n      swap1\n      pop\n        /* \"contracts/Pool/Pool.sol\":2345:2346  c */\n      dup1\n        /* \"contracts/Pool/Pool.sol\":2338:2346  return c */\n      swap2\n      pop\n      pop\n        /* \"contracts/Pool/Pool.sol\":2167:2353  function sub(uint256 a, uint256 b, string memory errorMessage) internal pure returns (uint256) {... */\n      swap4\n      swap3\n      pop\n      pop\n      pop\n      jump\t// out\n        /* \"contracts/Pool/Pool.sol\":10422:10579  function sendETHToFee(uint256 amount) private {... */\n    tag_180:\n        /* \"contracts/Pool/Pool.sol\":10478:10497  _developmentAddress */\n      0x0e\n      0x00\n      swap1\n      sload\n      swap1\n      0x0100\n      exp\n      swap1\n      div\n      0xffffffffffffffffffffffffffffffffffffffff\n      and\n        /* \"contracts/Pool/Pool.sol\":10478:10506  _developmentAddress.transfer */\n      0xffffffffffffffffffffffffffffffffffffffff\n      and\n        /* \"contracts/Pool/Pool.sol\":10478:10521  _developmentAddress.transfer(amount.div(2)) */\n      0x08fc\n        /* \"contracts/Pool/Pool.sol\":10507:10520  amount.div(2) */\n      tag_322\n        /* \"contracts/Pool/Pool.sol\":10518:10519  2 */\n      0x02\n        /* \"contracts/Pool/Pool.sol\":10507:10513  amount */\n      dup5\n        /* \"contracts/Pool/Pool.sol\":10507:10517  amount.div */\n      tag_323\n      swap1\n        /* \"contracts/Pool/Pool.sol\":10507:10520  amount.div(2) */\n      swap2\n      swap1\n      0xffffffff\n      and\n      jump\t// in\n    tag_322:\n        /* \"contracts/Pool/Pool.sol\":10478:10521  _developmentAddress.transfer(amount.div(2)) */\n      swap1\n      dup2\n      iszero\n      mul\n      swap1\n      mload(0x40)\n      0x00\n      mload(0x40)\n      dup1\n      dup4\n      sub\n      dup2\n      dup6\n      dup9\n      dup9\n      call\n      swap4\n      pop\n      pop\n      pop\n      pop\n      iszero\n      dup1\n      iszero\n      tag_325\n      jumpi\n      returndatasize\n      0x00\n      dup1\n      returndatacopy\n      revert(0x00, returndatasize)\n    tag_325:\n      pop\n        /* \"contracts/Pool/Pool.sol\":10531:10548  _marketingAddress */\n      0x0f\n      0x00\n      swap1\n      sload\n      swap1\n      0x0100\n      exp\n      swap1\n      div\n      0xffffffffffffffffffffffffffffffffffffffff\n      and\n        /* \"contracts/Pool/Pool.sol\":10531:10557  _marketingAddress.transfer */\n      0xffffffffffffffffffffffffffffffffffffffff\n      and\n        /* \"contracts/Pool/Pool.sol\":10531:10572  _marketingAddress.transfer(amount.div(2)) */\n      0x08fc\n        /* \"contracts/Pool/Pool.sol\":10558:10571  amount.div(2) */\n      tag_326\n        /* \"contracts/Pool/Pool.sol\":10569:10570  2 */\n      0x02\n        /* \"contracts/Pool/Pool.sol\":10558:10564  amount */\n      dup5\n        /* \"contracts/Pool/Pool.sol\":10558:10568  amount.div */\n      tag_323\n      swap1\n        /* \"contracts/Pool/Pool.sol\":10558:10571  amount.div(2) */\n      swap2\n      swap1\n      0xffffffff\n      and\n      jump\t// in\n    tag_326:\n        /* \"contracts/Pool/Pool.sol\":10531:10572  _marketingAddress.transfer(amount.div(2)) */\n      swap1\n      dup2\n      iszero\n      mul\n      swap1\n      mload(0x40)\n      0x00\n      mload(0x40)\n      dup1\n      dup4\n      sub\n      dup2\n      dup6\n      dup9\n      dup9\n      call\n      swap4\n      pop\n      pop\n      pop\n      pop\n      iszero\n      dup1\n      iszero\n      tag_328\n      jumpi\n      returndatasize\n      0x00\n      dup1\n      returndatacopy\n      revert(0x00, returndatasize)\n    tag_328:\n      pop\n        /* \"contracts/Pool/Pool.sol\":10422:10579  function sendETHToFee(uint256 amount) private {... */\n      pop\n      jump\t// out\n        /* \"contracts/Pool/Pool.sol\":7497:7747  function tokenFromReflection(uint256 rAmount) private view returns(uint256) {... */\n    tag_183:\n        /* \"contracts/Pool/Pool.sol\":7564:7571  uint256 */\n      0x00\n        /* \"contracts/Pool/Pool.sol\":7602:7609  _rTotal */\n      sload(0x06)\n        /* \"contracts/Pool/Pool.sol\":7591:7598  rAmount */\n      dup3\n        /* \"contracts/Pool/Pool.sol\":7591:7609  rAmount <= _rTotal */\n      gt\n      iszero\n        /* \"contracts/Pool/Pool.sol\":7583:7656  require(rAmount <= _rTotal, \"Amount must be less than total reflections\") */\n      tag_330\n      jumpi\n      mload(0x40)\n      0x08c379a000000000000000000000000000000000000000000000000000000000\n      dup2\n      mstore\n      0x04\n      add\n      tag_331\n      swap1\n      tag_332\n      jump\t// in\n    tag_331:\n      mload(0x40)\n      dup1\n      swap2\n      sub\n      swap1\n      revert\n    tag_330:\n        /* \"contracts/Pool/Pool.sol\":7666:7685  uint256 currentRate */\n      0x00\n        /* \"contracts/Pool/Pool.sol\":7689:7699  _getRate() */\n      tag_333\n        /* \"contracts/Pool/Pool.sol\":7689:7697  _getRate */\n      tag_334\n        /* \"contracts/Pool/Pool.sol\":7689:7699  _getRate() */\n      jump\t// in\n    tag_333:\n        /* \"contracts/Pool/Pool.sol\":7666:7699  uint256 currentRate =  _getRate() */\n      swap1\n      pop\n        /* \"contracts/Pool/Pool.sol\":7716:7740  rAmount.div(currentRate) */\n      tag_335\n        /* \"contracts/Pool/Pool.sol\":7728:7739  currentRate */\n      dup2\n        /* \"contracts/Pool/Pool.sol\":7716:7723  rAmount */\n      dup5\n        /* \"contracts/Pool/Pool.sol\":7716:7727  rAmount.div */\n      tag_323\n      swap1\n        /* \"contracts/Pool/Pool.sol\":7716:7740  rAmount.div(currentRate) */\n      swap2\n      swap1\n      0xffffffff\n      and\n      jump\t// in\n    tag_335:\n        /* \"contracts/Pool/Pool.sol\":7709:7740  return rAmount.div(currentRate) */\n      swap2\n      pop\n      pop\n        /* \"contracts/Pool/Pool.sol\":7497:7747  function tokenFromReflection(uint256 rAmount) private view returns(uint256) {... */\n      swap2\n      swap1\n      pop\n      jump\t// out\n        /* \"contracts/Pool/Pool.sol\":9937:10408  function swapTokensForEth(uint256 tokenAmount) private lockTheSwap {... */\n    tag_239:\n        /* \"contracts/Pool/Pool.sol\":5140:5144  true */\n      0x01\n        /* \"contracts/Pool/Pool.sol\":5131:5137  inSwap */\n      0x12\n      0x14\n        /* \"contracts/Pool/Pool.sol\":5131:5144  inSwap = true */\n      0x0100\n      exp\n      dup2\n      sload\n      dup2\n      0xff\n      mul\n      not\n      and\n      swap1\n      dup4\n      iszero\n      iszero\n      mul\n      or\n      swap1\n      sstore\n      pop\n        /* \"contracts/Pool/Pool.sol\":10014:10035  address[] memory path */\n      0x00\n        /* \"contracts/Pool/Pool.sol\":10052:10053  2 */\n      0x02\n        /* \"contracts/Pool/Pool.sol\":10038:10054  new address[](2) */\n      0xffffffffffffffff\n      dup2\n      gt\n      iszero\n      tag_338\n      jumpi\n      tag_339\n      tag_340\n      jump\t// in\n    tag_339:\n    tag_338:\n      mload(0x40)\n      swap1\n      dup1\n      dup3\n      mstore\n      dup1\n      0x20\n      mul\n      0x20\n      add\n      dup3\n      add\n      0x40\n      mstore\n      dup1\n      iszero\n      tag_341\n      jumpi\n      dup2\n      0x20\n      add\n      0x20\n      dup3\n      mul\n      dup1\n      calldatasize\n      dup4\n      calldatacopy\n      dup1\n      dup3\n      add\n      swap2\n      pop\n      pop\n      swap1\n      pop\n    tag_341:\n      pop\n        /* \"contracts/Pool/Pool.sol\":10014:10054  address[] memory path = new address[](2) */\n      swap1\n      pop\n        /* \"contracts/Pool/Pool.sol\":10082:10086  this */\n      address\n        /* \"contracts/Pool/Pool.sol\":10064:10068  path */\n      dup2\n        /* \"contracts/Pool/Pool.sol\":10069:10070  0 */\n      0x00\n        /* \"contracts/Pool/Pool.sol\":10064:10071  path[0] */\n      dup2\n      mload\n      dup2\n      lt\n      tag_342\n      jumpi\n      tag_343\n      tag_250\n      jump\t// in\n    tag_343:\n    tag_342:\n      0x20\n      mul\n      0x20\n      add\n      add\n        /* \"contracts/Pool/Pool.sol\":10064:10087  path[0] = address(this) */\n      swap1\n      0xffffffffffffffffffffffffffffffffffffffff\n      and\n      swap1\n      dup2\n      0xffffffffffffffffffffffffffffffffffffffff\n      and\n      dup2\n      mstore\n      pop\n      pop\n        /* \"contracts/Pool/Pool.sol\":10107:10122  uniswapV2Router */\n      0x10\n      0x00\n      swap1\n      sload\n      swap1\n      0x0100\n      exp\n      swap1\n      div\n      0xffffffffffffffffffffffffffffffffffffffff\n      and\n        /* \"contracts/Pool/Pool.sol\":10107:10127  uniswapV2Router.WETH */\n      0xffffffffffffffffffffffffffffffffffffffff\n      and\n      0xad5c4648\n        /* \"contracts/Pool/Pool.sol\":10107:10129  uniswapV2Router.WETH() */\n      mload(0x40)\n      dup2\n      0xffffffff\n      and\n      0xe0\n      shl\n      dup2\n      mstore\n      0x04\n      add\n      0x20\n      mload(0x40)\n      dup1\n      dup4\n      sub\n      dup2\n      dup7\n      gas\n      staticcall\n      iszero\n      dup1\n      iszero\n      tag_345\n      jumpi\n      returndatasize\n      0x00\n      dup1\n      returndatacopy\n      revert(0x00, returndatasize)\n    tag_345:\n      pop\n      pop\n      pop\n      pop\n      mload(0x40)\n      returndatasize\n      not(0x1f)\n      0x1f\n      dup3\n      add\n      and\n      dup3\n      add\n      dup1\n      0x40\n      mstore\n      pop\n      dup2\n      add\n      swap1\n      tag_346\n      swap2\n      swap1\n      tag_347\n      jump\t// in\n    tag_346:\n        /* \"contracts/Pool/Pool.sol\":10097:10101  path */\n      dup2\n        /* \"contracts/Pool/Pool.sol\":10102:10103  1 */\n      0x01\n        /* \"contracts/Pool/Pool.sol\":10097:10104  path[1] */\n      dup2\n      mload\n      dup2\n      lt\n      tag_348\n      jumpi\n      tag_349\n      tag_250\n      jump\t// in\n    tag_349:\n    tag_348:\n      0x20\n      mul\n      0x20\n      add\n      add\n        /* \"contracts/Pool/Pool.sol\":10097:10129  path[1] = uniswapV2Router.WETH() */\n      swap1\n      0xffffffffffffffffffffffffffffffffffffffff\n      and\n      swap1\n      dup2\n      0xffffffffffffffffffffffffffffffffffffffff\n      and\n      dup2\n      mstore\n      pop\n      pop\n        /* \"contracts/Pool/Pool.sol\":10139:10201  _approve(address(this), address(uniswapV2Router), tokenAmount) */\n      tag_350\n        /* \"contracts/Pool/Pool.sol\":10156:10160  this */\n      address\n        /* \"contracts/Pool/Pool.sol\":10171:10186  uniswapV2Router */\n      0x10\n      0x00\n      swap1\n      sload\n      swap1\n      0x0100\n      exp\n      swap1\n      div\n      0xffffffffffffffffffffffffffffffffffffffff\n      and\n        /* \"contracts/Pool/Pool.sol\":10189:10200  tokenAmount */\n      dup5\n        /* \"contracts/Pool/Pool.sol\":10139:10147  _approve */\n      tag_150\n        /* \"contracts/Pool/Pool.sol\":10139:10201  _approve(address(this), address(uniswapV2Router), tokenAmount) */\n      jump\t// in\n    tag_350:\n        /* \"contracts/Pool/Pool.sol\":10211:10226  uniswapV2Router */\n      0x10\n      0x00\n      swap1\n      sload\n      swap1\n      0x0100\n      exp\n      swap1\n      div\n      0xffffffffffffffffffffffffffffffffffffffff\n      and\n        /* \"contracts/Pool/Pool.sol\":10211:10277  uniswapV2Router.swapExactTokensForETHSupportingFeeOnTransferTokens */\n      0xffffffffffffffffffffffffffffffffffffffff\n      and\n      0x791ac947\n        /* \"contracts/Pool/Pool.sol\":10291:10302  tokenAmount */\n      dup4\n        /* \"contracts/Pool/Pool.sol\":10316:10317  0 */\n      0x00\n        /* \"contracts/Pool/Pool.sol\":10331:10335  path */\n      dup5\n        /* \"contracts/Pool/Pool.sol\":10357:10361  this */\n      address\n        /* \"contracts/Pool/Pool.sol\":10376:10391  block.timestamp */\n      timestamp\n        /* \"contracts/Pool/Pool.sol\":10211:10401  uniswapV2Router.swapExactTokensForETHSupportingFeeOnTransferTokens(... */\n      mload(0x40)\n      dup7\n      0xffffffff\n      and\n      0xe0\n      shl\n      dup2\n      mstore\n      0x04\n      add\n      tag_351\n      swap6\n      swap5\n      swap4\n      swap3\n      swap2\n      swap1\n      tag_352\n      jump\t// in\n    tag_351:\n      0x00\n      mload(0x40)\n      dup1\n      dup4\n      sub\n      dup2\n      0x00\n      dup8\n      dup1\n      extcodesize\n      iszero\n      dup1\n      iszero\n      tag_353\n      jumpi\n      0x00\n      dup1\n      revert\n    tag_353:\n      pop\n      gas\n      call\n      iszero\n      dup1\n      iszero\n      tag_355\n      jumpi\n      returndatasize\n      0x00\n      dup1\n      returndatacopy\n      revert(0x00, returndatasize)\n    tag_355:\n      pop\n      pop\n      pop\n      pop\n        /* \"contracts/Pool/Pool.sol\":10004:10408  {... */\n      pop\n        /* \"contracts/Pool/Pool.sol\":5174:5179  false */\n      0x00\n        /* \"contracts/Pool/Pool.sol\":5165:5171  inSwap */\n      0x12\n      0x14\n        /* \"contracts/Pool/Pool.sol\":5165:5179  inSwap = false */\n      0x0100\n      exp\n      dup2\n      sload\n      dup2\n      0xff\n      mul\n      not\n      and\n      swap1\n      dup4\n      iszero\n      iszero\n      mul\n      or\n      swap1\n      sstore\n      pop\n        /* \"contracts/Pool/Pool.sol\":9937:10408  function swapTokensForEth(uint256 tokenAmount) private lockTheSwap {... */\n      pop\n      jump\t// out\n        /* \"contracts/Pool/Pool.sol\":10589:10733  function _tokenTransfer(address sender, address recipient, uint256 amount) private {... */\n    tag_315:\n        /* \"contracts/Pool/Pool.sol\":10682:10726  _transferStandard(sender, recipient, amount) */\n      tag_357\n        /* \"contracts/Pool/Pool.sol\":10700:10706  sender */\n      dup4\n        /* \"contracts/Pool/Pool.sol\":10708:10717  recipient */\n      dup4\n        /* \"contracts/Pool/Pool.sol\":10719:10725  amount */\n      dup4\n        /* \"contracts/Pool/Pool.sol\":10682:10699  _transferStandard */\n      tag_358\n        /* \"contracts/Pool/Pool.sol\":10682:10726  _transferStandard(sender, recipient, amount) */\n      jump\t// in\n    tag_357:\n        /* \"contracts/Pool/Pool.sol\":10589:10733  function _tokenTransfer(address sender, address recipient, uint256 amount) private {... */\n      pop\n      pop\n      pop\n      jump\t// out\n        /* \"contracts/Pool/Pool.sol\":2604:2734  function div(uint256 a, uint256 b) internal pure returns (uint256) {... */\n    tag_323:\n        /* \"contracts/Pool/Pool.sol\":2662:2669  uint256 */\n      0x00\n        /* \"contracts/Pool/Pool.sol\":2688:2727  div(a, b, \"SafeMath: division by zero\") */\n      tag_360\n        /* \"contracts/Pool/Pool.sol\":2692:2693  a */\n      dup4\n        /* \"contracts/Pool/Pool.sol\":2695:2696  b */\n      dup4\n        /* \"contracts/Pool/Pool.sol\":2688:2727  div(a, b, \"SafeMath: division by zero\") */\n      mload(0x40)\n      dup1\n      0x40\n      add\n      0x40\n      mstore\n      dup1\n      0x1a\n      dup2\n      mstore\n      0x20\n      add\n      0x536166654d6174683a206469766973696f6e206279207a65726f000000000000\n      dup2\n      mstore\n      pop\n        /* \"contracts/Pool/Pool.sol\":2688:2691  div */\n      tag_361\n        /* \"contracts/Pool/Pool.sol\":2688:2727  div(a, b, \"SafeMath: division by zero\") */\n      jump\t// in\n    tag_360:\n        /* \"contracts/Pool/Pool.sol\":2681:2727  return div(a, b, \"SafeMath: division by zero\") */\n      swap1\n      pop\n        /* \"contracts/Pool/Pool.sol\":2604:2734  function div(uint256 a, uint256 b) internal pure returns (uint256) {... */\n      swap3\n      swap2\n      pop\n      pop\n      jump\t// out\n        /* \"contracts/Pool/Pool.sol\":13781:13941  function _getRate() private view returns(uint256) {... */\n    tag_334:\n        /* \"contracts/Pool/Pool.sol\":13822:13829  uint256 */\n      0x00\n        /* \"contracts/Pool/Pool.sol\":13842:13857  uint256 rSupply */\n      dup1\n        /* \"contracts/Pool/Pool.sol\":13859:13874  uint256 tSupply */\n      0x00\n        /* \"contracts/Pool/Pool.sol\":13878:13897  _getCurrentSupply() */\n      tag_363\n        /* \"contracts/Pool/Pool.sol\":13878:13895  _getCurrentSupply */\n      tag_364\n        /* \"contracts/Pool/Pool.sol\":13878:13897  _getCurrentSupply() */\n      jump\t// in\n    tag_363:\n        /* \"contracts/Pool/Pool.sol\":13841:13897  (uint256 rSupply, uint256 tSupply) = _getCurrentSupply() */\n      swap2\n      pop\n      swap2\n      pop\n        /* \"contracts/Pool/Pool.sol\":13914:13934  rSupply.div(tSupply) */\n      tag_365\n        /* \"contracts/Pool/Pool.sol\":13926:13933  tSupply */\n      dup2\n        /* \"contracts/Pool/Pool.sol\":13914:13921  rSupply */\n      dup4\n        /* \"contracts/Pool/Pool.sol\":13914:13925  rSupply.div */\n      tag_323\n      swap1\n        /* \"contracts/Pool/Pool.sol\":13914:13934  rSupply.div(tSupply) */\n      swap2\n      swap1\n      0xffffffff\n      and\n      jump\t// in\n    tag_365:\n        /* \"contracts/Pool/Pool.sol\":13907:13934  return rSupply.div(tSupply) */\n      swap3\n      pop\n      pop\n      pop\n        /* \"contracts/Pool/Pool.sol\":13781:13941  function _getRate() private view returns(uint256) {... */\n      swap1\n      jump\t// out\n        /* \"contracts/Pool/Pool.sol\":11663:12144  function _transferStandard(address sender, address recipient, uint256 tAmount) private {... */\n    tag_358:\n        /* \"contracts/Pool/Pool.sol\":11761:11776  uint256 rAmount */\n      0x00\n        /* \"contracts/Pool/Pool.sol\":11778:11801  uint256 rTransferAmount */\n      dup1\n        /* \"contracts/Pool/Pool.sol\":11803:11815  uint256 rFee */\n      0x00\n        /* \"contracts/Pool/Pool.sol\":11817:11840  uint256 tTransferAmount */\n      dup1\n        /* \"contracts/Pool/Pool.sol\":11842:11854  uint256 tFee */\n      0x00\n        /* \"contracts/Pool/Pool.sol\":11856:11869  uint256 tTeam */\n      dup1\n        /* \"contracts/Pool/Pool.sol\":11873:11892  _getValues(tAmount) */\n      tag_367\n        /* \"contracts/Pool/Pool.sol\":11884:11891  tAmount */\n      dup8\n        /* \"contracts/Pool/Pool.sol\":11873:11883  _getValues */\n      tag_368\n        /* \"contracts/Pool/Pool.sol\":11873:11892  _getValues(tAmount) */\n      jump\t// in\n    tag_367:\n        /* \"contracts/Pool/Pool.sol\":11760:11892  (uint256 rAmount, uint256 rTransferAmount, uint256 rFee, uint256 tTransferAmount, uint256 tFee, uint256 tTeam) = _getValues(tAmount) */\n      swap6\n      pop\n      swap6\n      pop\n      swap6\n      pop\n      swap6\n      pop\n      swap6\n      pop\n      swap6\n      pop\n        /* \"contracts/Pool/Pool.sol\":11920:11948  _rOwned[sender].sub(rAmount) */\n      tag_369\n        /* \"contracts/Pool/Pool.sol\":11940:11947  rAmount */\n      dup7\n        /* \"contracts/Pool/Pool.sol\":11920:11927  _rOwned */\n      0x02\n        /* \"contracts/Pool/Pool.sol\":11920:11935  _rOwned[sender] */\n      0x00\n        /* \"contracts/Pool/Pool.sol\":11928:11934  sender */\n      dup13\n        /* \"contracts/Pool/Pool.sol\":11920:11935  _rOwned[sender] */\n      0xffffffffffffffffffffffffffffffffffffffff\n      and\n      0xffffffffffffffffffffffffffffffffffffffff\n      and\n      dup2\n      mstore\n      0x20\n      add\n      swap1\n      dup2\n      mstore\n      0x20\n      add\n      0x00\n      keccak256\n      sload\n        /* \"contracts/Pool/Pool.sol\":11920:11939  _rOwned[sender].sub */\n      tag_370\n      swap1\n        /* \"contracts/Pool/Pool.sol\":11920:11948  _rOwned[sender].sub(rAmount) */\n      swap2\n      swap1\n      0xffffffff\n      and\n      jump\t// in\n    tag_369:\n        /* \"contracts/Pool/Pool.sol\":11902:11909  _rOwned */\n      0x02\n        /* \"contracts/Pool/Pool.sol\":11902:11917  _rOwned[sender] */\n      0x00\n        /* \"contracts/Pool/Pool.sol\":11910:11916  sender */\n      dup12\n        /* \"contracts/Pool/Pool.sol\":11902:11917  _rOwned[sender] */\n      0xffffffffffffffffffffffffffffffffffffffff\n      and\n      0xffffffffffffffffffffffffffffffffffffffff\n      and\n      dup2\n      mstore\n      0x20\n      add\n      swap1\n      dup2\n      mstore\n      0x20\n      add\n      0x00\n      keccak256\n        /* \"contracts/Pool/Pool.sol\":11902:11948  _rOwned[sender] = _rOwned[sender].sub(rAmount) */\n      dup2\n      swap1\n      sstore\n      pop\n        /* \"contracts/Pool/Pool.sol\":11979:12018  _rOwned[recipient].add(rTransferAmount) */\n      tag_371\n        /* \"contracts/Pool/Pool.sol\":12002:12017  rTransferAmount */\n      dup6\n        /* \"contracts/Pool/Pool.sol\":11979:11986  _rOwned */\n      0x02\n        /* \"contracts/Pool/Pool.sol\":11979:11997  _rOwned[recipient] */\n      0x00\n        /* \"contracts/Pool/Pool.sol\":11987:11996  recipient */\n      dup12\n        /* \"contracts/Pool/Pool.sol\":11979:11997  _rOwned[recipient] */\n      0xffffffffffffffffffffffffffffffffffffffff\n      and\n      0xffffffffffffffffffffffffffffffffffffffff\n      and\n      dup2\n      mstore\n      0x20\n      add\n      swap1\n      dup2\n      mstore\n      0x20\n      add\n      0x00\n      keccak256\n      sload\n        /* \"contracts/Pool/Pool.sol\":11979:12001  _rOwned[recipient].add */\n      tag_372\n      swap1\n        /* \"contracts/Pool/Pool.sol\":11979:12018  _rOwned[recipient].add(rTransferAmount) */\n      swap2\n      swap1\n      0xffffffff\n      and\n      jump\t// in\n    tag_371:\n        /* \"contracts/Pool/Pool.sol\":11958:11965  _rOwned */\n      0x02\n        /* \"contracts/Pool/Pool.sol\":11958:11976  _rOwned[recipient] */\n      0x00\n        /* \"contracts/Pool/Pool.sol\":11966:11975  recipient */\n      dup11\n        /* \"contracts/Pool/Pool.sol\":11958:11976  _rOwned[recipient] */\n      0xffffffffffffffffffffffffffffffffffffffff\n      and\n      0xffffffffffffffffffffffffffffffffffffffff\n      and\n      dup2\n      mstore\n      0x20\n      add\n      swap1\n      dup2\n      mstore\n      0x20\n      add\n      0x00\n      keccak256\n        /* \"contracts/Pool/Pool.sol\":11958:12018  _rOwned[recipient] = _rOwned[recipient].add(rTransferAmount) */\n      dup2\n      swap1\n      sstore\n      pop\n        /* \"contracts/Pool/Pool.sol\":12029:12045  _takeTeam(tTeam) */\n      tag_373\n        /* \"contracts/Pool/Pool.sol\":12039:12044  tTeam */\n      dup2\n        /* \"contracts/Pool/Pool.sol\":12029:12038  _takeTeam */\n      tag_374\n        /* \"contracts/Pool/Pool.sol\":12029:12045  _takeTeam(tTeam) */\n      jump\t// in\n    tag_373:\n        /* \"contracts/Pool/Pool.sol\":12055:12078  _reflectFee(rFee, tFee) */\n      tag_375\n        /* \"contracts/Pool/Pool.sol\":12067:12071  rFee */\n      dup5\n        /* \"contracts/Pool/Pool.sol\":12073:12077  tFee */\n      dup4\n        /* \"contracts/Pool/Pool.sol\":12055:12066  _reflectFee */\n      tag_376\n        /* \"contracts/Pool/Pool.sol\":12055:12078  _reflectFee(rFee, tFee) */\n      jump\t// in\n    tag_375:\n        /* \"contracts/Pool/Pool.sol\":12110:12119  recipient */\n      dup8\n        /* \"contracts/Pool/Pool.sol\":12093:12137  Transfer(sender, recipient, tTransferAmount) */\n      0xffffffffffffffffffffffffffffffffffffffff\n      and\n        /* \"contracts/Pool/Pool.sol\":12102:12108  sender */\n      dup10\n        /* \"contracts/Pool/Pool.sol\":12093:12137  Transfer(sender, recipient, tTransferAmount) */\n      0xffffffffffffffffffffffffffffffffffffffff\n      and\n      0xddf252ad1be2c89b69c2b068fc378daa952ba7f163c4a11628f55a4df523b3ef\n        /* \"contracts/Pool/Pool.sol\":12121:12136  tTransferAmount */\n      dup6\n        /* \"contracts/Pool/Pool.sol\":12093:12137  Transfer(sender, recipient, tTransferAmount) */\n      mload(0x40)\n      tag_377\n      swap2\n      swap1\n      tag_53\n      jump\t// in\n    tag_377:\n      mload(0x40)\n      dup1\n      swap2\n      sub\n      swap1\n      log3\n        /* \"contracts/Pool/Pool.sol\":11750:12144  {... */\n      pop\n      pop\n      pop\n      pop\n      pop\n      pop\n        /* \"contracts/Pool/Pool.sol\":11663:12144  function _transferStandard(address sender, address recipient, uint256 tAmount) private {... */\n      pop\n      pop\n      pop\n      jump\t// out\n        /* \"contracts/Pool/Pool.sol\":2740:2925  function div(uint256 a, uint256 b, string memory errorMessage) internal pure returns (uint256) {... */\n    tag_361:\n        /* \"contracts/Pool/Pool.sol\":2826:2833  uint256 */\n      0x00\n        /* \"contracts/Pool/Pool.sol\":2857:2858  0 */\n      dup1\n        /* \"contracts/Pool/Pool.sol\":2853:2854  b */\n      dup4\n        /* \"contracts/Pool/Pool.sol\":2853:2858  b > 0 */\n      gt\n        /* \"contracts/Pool/Pool.sol\":2860:2872  errorMessage */\n      dup3\n        /* \"contracts/Pool/Pool.sol\":2845:2873  require(b > 0, errorMessage) */\n      swap1\n      tag_379\n      jumpi\n      mload(0x40)\n      0x08c379a000000000000000000000000000000000000000000000000000000000\n      dup2\n      mstore\n      0x04\n      add\n      tag_380\n      swap2\n      swap1\n      tag_36\n      jump\t// in\n    tag_380:\n      mload(0x40)\n      dup1\n      swap2\n      sub\n      swap1\n      revert\n    tag_379:\n      pop\n        /* \"contracts/Pool/Pool.sol\":2883:2892  uint256 c */\n      0x00\n        /* \"contracts/Pool/Pool.sol\":2899:2900  b */\n      dup4\n        /* \"contracts/Pool/Pool.sol\":2895:2896  a */\n      dup6\n        /* \"contracts/Pool/Pool.sol\":2895:2900  a / b */\n      tag_381\n      swap2\n      swap1\n      tag_382\n      jump\t// in\n    tag_381:\n        /* \"contracts/Pool/Pool.sol\":2883:2900  uint256 c = a / b */\n      swap1\n      pop\n        /* \"contracts/Pool/Pool.sol\":2917:2918  c */\n      dup1\n        /* \"contracts/Pool/Pool.sol\":2910:2918  return c */\n      swap2\n      pop\n      pop\n        /* \"contracts/Pool/Pool.sol\":2740:2925  function div(uint256 a, uint256 b, string memory errorMessage) internal pure returns (uint256) {... */\n      swap4\n      swap3\n      pop\n      pop\n      pop\n      jump\t// out\n        /* \"contracts/Pool/Pool.sol\":13947:14204  function _getCurrentSupply() private view returns(uint256, uint256) {... */\n    tag_364:\n        /* \"contracts/Pool/Pool.sol\":13997:14004  uint256 */\n      0x00\n        /* \"contracts/Pool/Pool.sol\":14006:14013  uint256 */\n      dup1\n        /* \"contracts/Pool/Pool.sol\":14025:14040  uint256 rSupply */\n      0x00\n        /* \"contracts/Pool/Pool.sol\":14043:14050  _rTotal */\n      sload(0x06)\n        /* \"contracts/Pool/Pool.sol\":14025:14050  uint256 rSupply = _rTotal */\n      swap1\n      pop\n        /* \"contracts/Pool/Pool.sol\":14060:14075  uint256 tSupply */\n      0x00\n        /* \"contracts/Pool/Pool.sol\":4200:4213  1*10**9*10**9 */\n      0x0de0b6b3a7640000\n        /* \"contracts/Pool/Pool.sol\":14060:14085  uint256 tSupply = _tTotal */\n      swap1\n      pop\n        /* \"contracts/Pool/Pool.sol\":14115:14135  _rTotal.div(_tTotal) */\n      tag_384\n        /* \"contracts/Pool/Pool.sol\":4200:4213  1*10**9*10**9 */\n      0x0de0b6b3a7640000\n        /* \"contracts/Pool/Pool.sol\":14115:14122  _rTotal */\n      sload(0x06)\n        /* \"contracts/Pool/Pool.sol\":14115:14126  _rTotal.div */\n      tag_323\n      swap1\n        /* \"contracts/Pool/Pool.sol\":14115:14135  _rTotal.div(_tTotal) */\n      swap2\n      swap1\n      0xffffffff\n      and\n      jump\t// in\n    tag_384:\n        /* \"contracts/Pool/Pool.sol\":14105:14112  rSupply */\n      dup3\n        /* \"contracts/Pool/Pool.sol\":14105:14135  rSupply < _rTotal.div(_tTotal) */\n      lt\n        /* \"contracts/Pool/Pool.sol\":14101:14162  if (rSupply < _rTotal.div(_tTotal)) return (_rTotal, _tTotal) */\n      iszero\n      tag_385\n      jumpi\n        /* \"contracts/Pool/Pool.sol\":14145:14152  _rTotal */\n      sload(0x06)\n        /* \"contracts/Pool/Pool.sol\":4200:4213  1*10**9*10**9 */\n      0x0de0b6b3a7640000\n        /* \"contracts/Pool/Pool.sol\":14137:14162  return (_rTotal, _tTotal) */\n      swap4\n      pop\n      swap4\n      pop\n      pop\n      pop\n      jump(tag_383)\n        /* \"contracts/Pool/Pool.sol\":14101:14162  if (rSupply < _rTotal.div(_tTotal)) return (_rTotal, _tTotal) */\n    tag_385:\n        /* \"contracts/Pool/Pool.sol\":14180:14187  rSupply */\n      dup2\n        /* \"contracts/Pool/Pool.sol\":14189:14196  tSupply */\n      dup2\n        /* \"contracts/Pool/Pool.sol\":14172:14197  return (rSupply, tSupply) */\n      swap4\n      pop\n      swap4\n      pop\n      pop\n      pop\n        /* \"contracts/Pool/Pool.sol\":13947:14204  function _getCurrentSupply() private view returns(uint256, uint256) {... */\n    tag_383:\n      swap1\n      swap2\n      jump\t// out\n        /* \"contracts/Pool/Pool.sol\":12553:13017  function _getValues(uint256 tAmount) private view returns (uint256, uint256, uint256, uint256, uint256, uint256) {... */\n    tag_368:\n        /* \"contracts/Pool/Pool.sol\":12612:12619  uint256 */\n      0x00\n        /* \"contracts/Pool/Pool.sol\":12621:12628  uint256 */\n      dup1\n        /* \"contracts/Pool/Pool.sol\":12630:12637  uint256 */\n      0x00\n        /* \"contracts/Pool/Pool.sol\":12639:12646  uint256 */\n      dup1\n        /* \"contracts/Pool/Pool.sol\":12648:12655  uint256 */\n      0x00\n        /* \"contracts/Pool/Pool.sol\":12657:12664  uint256 */\n      dup1\n        /* \"contracts/Pool/Pool.sol\":12677:12700  uint256 tTransferAmount */\n      0x00\n        /* \"contracts/Pool/Pool.sol\":12702:12714  uint256 tFee */\n      dup1\n        /* \"contracts/Pool/Pool.sol\":12716:12729  uint256 tTeam */\n      0x00\n        /* \"contracts/Pool/Pool.sol\":12733:12773  _getTValues(tAmount, _redisFee, _taxFee) */\n      tag_387\n        /* \"contracts/Pool/Pool.sol\":12745:12752  tAmount */\n      dup11\n        /* \"contracts/Pool/Pool.sol\":12754:12763  _redisFee */\n      sload(0x0c)\n        /* \"contracts/Pool/Pool.sol\":12765:12772  _taxFee */\n      sload(0x0d)\n        /* \"contracts/Pool/Pool.sol\":12733:12744  _getTValues */\n      tag_388\n        /* \"contracts/Pool/Pool.sol\":12733:12773  _getTValues(tAmount, _redisFee, _taxFee) */\n      jump\t// in\n    tag_387:\n        /* \"contracts/Pool/Pool.sol\":12676:12773  (uint256 tTransferAmount, uint256 tFee, uint256 tTeam) = _getTValues(tAmount, _redisFee, _taxFee) */\n      swap3\n      pop\n      swap3\n      pop\n      swap3\n      pop\n        /* \"contracts/Pool/Pool.sol\":12783:12802  uint256 currentRate */\n      0x00\n        /* \"contracts/Pool/Pool.sol\":12806:12816  _getRate() */\n      tag_389\n        /* \"contracts/Pool/Pool.sol\":12806:12814  _getRate */\n      tag_334\n        /* \"contracts/Pool/Pool.sol\":12806:12816  _getRate() */\n      jump\t// in\n    tag_389:\n        /* \"contracts/Pool/Pool.sol\":12783:12816  uint256 currentRate =  _getRate() */\n      swap1\n      pop\n        /* \"contracts/Pool/Pool.sol\":12827:12842  uint256 rAmount */\n      0x00\n        /* \"contracts/Pool/Pool.sol\":12844:12867  uint256 rTransferAmount */\n      dup1\n        /* \"contracts/Pool/Pool.sol\":12869:12881  uint256 rFee */\n      0x00\n        /* \"contracts/Pool/Pool.sol\":12885:12931  _getRValues(tAmount, tFee, tTeam, currentRate) */\n      tag_390\n        /* \"contracts/Pool/Pool.sol\":12897:12904  tAmount */\n      dup15\n        /* \"contracts/Pool/Pool.sol\":12906:12910  tFee */\n      dup8\n        /* \"contracts/Pool/Pool.sol\":12912:12917  tTeam */\n      dup8\n        /* \"contracts/Pool/Pool.sol\":12919:12930  currentRate */\n      dup8\n        /* \"contracts/Pool/Pool.sol\":12885:12896  _getRValues */\n      tag_391\n        /* \"contracts/Pool/Pool.sol\":12885:12931  _getRValues(tAmount, tFee, tTeam, currentRate) */\n      jump\t// in\n    tag_390:\n        /* \"contracts/Pool/Pool.sol\":12826:12931  (uint256 rAmount, uint256 rTransferAmount, uint256 rFee) = _getRValues(tAmount, tFee, tTeam, currentRate) */\n      swap3\n      pop\n      swap3\n      pop\n      swap3\n      pop\n        /* \"contracts/Pool/Pool.sol\":12949:12956  rAmount */\n      dup3\n        /* \"contracts/Pool/Pool.sol\":12958:12973  rTransferAmount */\n      dup3\n        /* \"contracts/Pool/Pool.sol\":12975:12979  rFee */\n      dup3\n        /* \"contracts/Pool/Pool.sol\":12981:12996  tTransferAmount */\n      dup10\n        /* \"contracts/Pool/Pool.sol\":12998:13002  tFee */\n      dup10\n        /* \"contracts/Pool/Pool.sol\":13004:13009  tTeam */\n      dup10\n        /* \"contracts/Pool/Pool.sol\":12941:13010  return (rAmount, rTransferAmount, rFee, tTransferAmount, tFee, tTeam) */\n      swap13\n      pop\n      swap13\n      pop\n      swap13\n      pop\n      swap13\n      pop\n      swap13\n      pop\n      swap13\n      pop\n      pop\n      pop\n      pop\n      pop\n      pop\n      pop\n      pop\n        /* \"contracts/Pool/Pool.sol\":12553:13017  function _getValues(uint256 tAmount) private view returns (uint256, uint256, uint256, uint256, uint256, uint256) {... */\n      swap2\n      swap4\n      swap6\n      pop\n      swap2\n      swap4\n      swap6\n      jump\t// out\n        /* \"contracts/Pool/Pool.sol\":2027:2161  function sub(uint256 a, uint256 b) internal pure returns (uint256) {... */\n    tag_370:\n        /* \"contracts/Pool/Pool.sol\":2085:2092  uint256 */\n      0x00\n        /* \"contracts/Pool/Pool.sol\":2111:2154  sub(a, b, \"SafeMath: subtraction overflow\") */\n      tag_393\n        /* \"contracts/Pool/Pool.sol\":2115:2116  a */\n      dup4\n        /* \"contracts/Pool/Pool.sol\":2118:2119  b */\n      dup4\n        /* \"contracts/Pool/Pool.sol\":2111:2154  sub(a, b, \"SafeMath: subtraction overflow\") */\n      mload(0x40)\n      dup1\n      0x40\n      add\n      0x40\n      mstore\n      dup1\n      0x1e\n      dup2\n      mstore\n      0x20\n      add\n      0x536166654d6174683a207375627472616374696f6e206f766572666c6f770000\n      dup2\n      mstore\n      pop\n        /* \"contracts/Pool/Pool.sol\":2111:2114  sub */\n      tag_159\n        /* \"contracts/Pool/Pool.sol\":2111:2154  sub(a, b, \"SafeMath: subtraction overflow\") */\n      jump\t// in\n    tag_393:\n        /* \"contracts/Pool/Pool.sol\":2104:2154  return sub(a, b, \"SafeMath: subtraction overflow\") */\n      swap1\n      pop\n        /* \"contracts/Pool/Pool.sol\":2027:2161  function sub(uint256 a, uint256 b) internal pure returns (uint256) {... */\n      swap3\n      swap2\n      pop\n      pop\n      jump\t// out\n        /* \"contracts/Pool/Pool.sol\":1846:2021  function add(uint256 a, uint256 b) internal pure returns (uint256) {... */\n    tag_372:\n        /* \"contracts/Pool/Pool.sol\":1904:1911  uint256 */\n      0x00\n        /* \"contracts/Pool/Pool.sol\":1923:1932  uint256 c */\n      dup1\n        /* \"contracts/Pool/Pool.sol\":1939:1940  b */\n      dup3\n        /* \"contracts/Pool/Pool.sol\":1935:1936  a */\n      dup5\n        /* \"contracts/Pool/Pool.sol\":1935:1940  a + b */\n      tag_395\n      swap2\n      swap1\n      tag_396\n      jump\t// in\n    tag_395:\n        /* \"contracts/Pool/Pool.sol\":1923:1940  uint256 c = a + b */\n      swap1\n      pop\n        /* \"contracts/Pool/Pool.sol\":1963:1964  a */\n      dup4\n        /* \"contracts/Pool/Pool.sol\":1958:1959  c */\n      dup2\n        /* \"contracts/Pool/Pool.sol\":1958:1964  c >= a */\n      lt\n      iszero\n        /* \"contracts/Pool/Pool.sol\":1950:1996  require(c >= a, \"SafeMath: addition overflow\") */\n      tag_397\n      jumpi\n      mload(0x40)\n      0x08c379a000000000000000000000000000000000000000000000000000000000\n      dup2\n      mstore\n      0x04\n      add\n      tag_398\n      swap1\n      tag_399\n      jump\t// in\n    tag_398:\n      mload(0x40)\n      dup1\n      swap2\n      sub\n      swap1\n      revert\n    tag_397:\n        /* \"contracts/Pool/Pool.sol\":2013:2014  c */\n      dup1\n        /* \"contracts/Pool/Pool.sol\":2006:2014  return c */\n      swap2\n      pop\n      pop\n        /* \"contracts/Pool/Pool.sol\":1846:2021  function add(uint256 a, uint256 b) internal pure returns (uint256) {... */\n      swap3\n      swap2\n      pop\n      pop\n      jump\t// out\n        /* \"contracts/Pool/Pool.sol\":12150:12358  function _takeTeam(uint256 tTeam) private {... */\n    tag_374:\n        /* \"contracts/Pool/Pool.sol\":12202:12221  uint256 currentRate */\n      0x00\n        /* \"contracts/Pool/Pool.sol\":12225:12235  _getRate() */\n      tag_401\n        /* \"contracts/Pool/Pool.sol\":12225:12233  _getRate */\n      tag_334\n        /* \"contracts/Pool/Pool.sol\":12225:12235  _getRate() */\n      jump\t// in\n    tag_401:\n        /* \"contracts/Pool/Pool.sol\":12202:12235  uint256 currentRate =  _getRate() */\n      swap1\n      pop\n        /* \"contracts/Pool/Pool.sol\":12245:12258  uint256 rTeam */\n      0x00\n        /* \"contracts/Pool/Pool.sol\":12261:12283  tTeam.mul(currentRate) */\n      tag_402\n        /* \"contracts/Pool/Pool.sol\":12271:12282  currentRate */\n      dup3\n        /* \"contracts/Pool/Pool.sol\":12261:12266  tTeam */\n      dup5\n        /* \"contracts/Pool/Pool.sol\":12261:12270  tTeam.mul */\n      tag_403\n      swap1\n        /* \"contracts/Pool/Pool.sol\":12261:12283  tTeam.mul(currentRate) */\n      swap2\n      swap1\n      0xffffffff\n      and\n      jump\t// in\n    tag_402:\n        /* \"contracts/Pool/Pool.sol\":12245:12283  uint256 rTeam = tTeam.mul(currentRate) */\n      swap1\n      pop\n        /* \"contracts/Pool/Pool.sol\":12318:12351  _rOwned[address(this)].add(rTeam) */\n      tag_404\n        /* \"contracts/Pool/Pool.sol\":12345:12350  rTeam */\n      dup2\n        /* \"contracts/Pool/Pool.sol\":12318:12325  _rOwned */\n      0x02\n        /* \"contracts/Pool/Pool.sol\":12318:12340  _rOwned[address(this)] */\n      0x00\n        /* \"contracts/Pool/Pool.sol\":12334:12338  this */\n      address\n        /* \"contracts/Pool/Pool.sol\":12318:12340  _rOwned[address(this)] */\n      0xffffffffffffffffffffffffffffffffffffffff\n      and\n      0xffffffffffffffffffffffffffffffffffffffff\n      and\n      dup2\n      mstore\n      0x20\n      add\n      swap1\n      dup2\n      mstore\n      0x20\n      add\n      0x00\n      keccak256\n      sload\n        /* \"contracts/Pool/Pool.sol\":12318:12344  _rOwned[address(this)].add */\n      tag_372\n      swap1\n        /* \"contracts/Pool/Pool.sol\":12318:12351  _rOwned[address(this)].add(rTeam) */\n      swap2\n      swap1\n      0xffffffff\n      and\n      jump\t// in\n    tag_404:\n        /* \"contracts/Pool/Pool.sol\":12293:12300  _rOwned */\n      0x02\n        /* \"contracts/Pool/Pool.sol\":12293:12315  _rOwned[address(this)] */\n      0x00\n        /* \"contracts/Pool/Pool.sol\":12309:12313  this */\n      address\n        /* \"contracts/Pool/Pool.sol\":12293:12315  _rOwned[address(this)] */\n      0xffffffffffffffffffffffffffffffffffffffff\n      and\n      0xffffffffffffffffffffffffffffffffffffffff\n      and\n      dup2\n      mstore\n      0x20\n      add\n      swap1\n      dup2\n      mstore\n      0x20\n      add\n      0x00\n      keccak256\n        /* \"contracts/Pool/Pool.sol\":12293:12351  _rOwned[address(this)] = _rOwned[address(this)].add(rTeam) */\n      dup2\n      swap1\n      sstore\n      pop\n        /* \"contracts/Pool/Pool.sol\":12192:12358  {... */\n      pop\n      pop\n        /* \"contracts/Pool/Pool.sol\":12150:12358  function _takeTeam(uint256 tTeam) private {... */\n      pop\n      jump\t// out\n        /* \"contracts/Pool/Pool.sol\":12364:12508  function _reflectFee(uint256 rFee, uint256 tFee) private {... */\n    tag_376:\n        /* \"contracts/Pool/Pool.sol\":12441:12458  _rTotal.sub(rFee) */\n      tag_406\n        /* \"contracts/Pool/Pool.sol\":12453:12457  rFee */\n      dup3\n        /* \"contracts/Pool/Pool.sol\":12441:12448  _rTotal */\n      sload(0x06)\n        /* \"contracts/Pool/Pool.sol\":12441:12452  _rTotal.sub */\n      tag_370\n      swap1\n        /* \"contracts/Pool/Pool.sol\":12441:12458  _rTotal.sub(rFee) */\n      swap2\n      swap1\n      0xffffffff\n      and\n      jump\t// in\n    tag_406:\n        /* \"contracts/Pool/Pool.sol\":12431:12438  _rTotal */\n      0x06\n        /* \"contracts/Pool/Pool.sol\":12431:12458  _rTotal = _rTotal.sub(rFee) */\n      dup2\n      swap1\n      sstore\n      pop\n        /* \"contracts/Pool/Pool.sol\":12481:12501  _tFeeTotal.add(tFee) */\n      tag_407\n        /* \"contracts/Pool/Pool.sol\":12496:12500  tFee */\n      dup2\n        /* \"contracts/Pool/Pool.sol\":12481:12491  _tFeeTotal */\n      sload(0x07)\n        /* \"contracts/Pool/Pool.sol\":12481:12495  _tFeeTotal.add */\n      tag_372\n      swap1\n        /* \"contracts/Pool/Pool.sol\":12481:12501  _tFeeTotal.add(tFee) */\n      swap2\n      swap1\n      0xffffffff\n      and\n      jump\t// in\n    tag_407:\n        /* \"contracts/Pool/Pool.sol\":12468:12478  _tFeeTotal */\n      0x07\n        /* \"contracts/Pool/Pool.sol\":12468:12501  _tFeeTotal = _tFeeTotal.add(tFee) */\n      dup2\n      swap1\n      sstore\n      pop\n        /* \"contracts/Pool/Pool.sol\":12364:12508  function _reflectFee(uint256 rFee, uint256 tFee) private {... */\n      pop\n      pop\n      jump\t// out\n        /* \"contracts/Pool/Pool.sol\":13023:13369  function _getTValues(uint256 tAmount, uint256 taxFee, uint256 TeamFee) private pure returns (uint256, uint256, uint256) {... */\n    tag_388:\n        /* \"contracts/Pool/Pool.sol\":13116:13123  uint256 */\n      0x00\n        /* \"contracts/Pool/Pool.sol\":13125:13132  uint256 */\n      dup1\n        /* \"contracts/Pool/Pool.sol\":13134:13141  uint256 */\n      0x00\n        /* \"contracts/Pool/Pool.sol\":13153:13165  uint256 tFee */\n      dup1\n        /* \"contracts/Pool/Pool.sol\":13168:13196  tAmount.mul(taxFee).div(100) */\n      tag_409\n        /* \"contracts/Pool/Pool.sol\":13192:13195  100 */\n      0x64\n        /* \"contracts/Pool/Pool.sol\":13168:13187  tAmount.mul(taxFee) */\n      tag_410\n        /* \"contracts/Pool/Pool.sol\":13180:13186  taxFee */\n      dup9\n        /* \"contracts/Pool/Pool.sol\":13168:13175  tAmount */\n      dup11\n        /* \"contracts/Pool/Pool.sol\":13168:13179  tAmount.mul */\n      tag_403\n      swap1\n        /* \"contracts/Pool/Pool.sol\":13168:13187  tAmount.mul(taxFee) */\n      swap2\n      swap1\n      0xffffffff\n      and\n      jump\t// in\n    tag_410:\n        /* \"contracts/Pool/Pool.sol\":13168:13191  tAmount.mul(taxFee).div */\n      tag_323\n      swap1\n        /* \"contracts/Pool/Pool.sol\":13168:13196  tAmount.mul(taxFee).div(100) */\n      swap2\n      swap1\n      0xffffffff\n      and\n      jump\t// in\n    tag_409:\n        /* \"contracts/Pool/Pool.sol\":13153:13196  uint256 tFee = tAmount.mul(taxFee).div(100) */\n      swap1\n      pop\n        /* \"contracts/Pool/Pool.sol\":13206:13219  uint256 tTeam */\n      0x00\n        /* \"contracts/Pool/Pool.sol\":13222:13251  tAmount.mul(TeamFee).div(100) */\n      tag_411\n        /* \"contracts/Pool/Pool.sol\":13247:13250  100 */\n      0x64\n        /* \"contracts/Pool/Pool.sol\":13222:13242  tAmount.mul(TeamFee) */\n      tag_412\n        /* \"contracts/Pool/Pool.sol\":13234:13241  TeamFee */\n      dup9\n        /* \"contracts/Pool/Pool.sol\":13222:13229  tAmount */\n      dup12\n        /* \"contracts/Pool/Pool.sol\":13222:13233  tAmount.mul */\n      tag_403\n      swap1\n        /* \"contracts/Pool/Pool.sol\":13222:13242  tAmount.mul(TeamFee) */\n      swap2\n      swap1\n      0xffffffff\n      and\n      jump\t// in\n    tag_412:\n        /* \"contracts/Pool/Pool.sol\":13222:13246  tAmount.mul(TeamFee).div */\n      tag_323\n      swap1\n        /* \"contracts/Pool/Pool.sol\":13222:13251  tAmount.mul(TeamFee).div(100) */\n      swap2\n      swap1\n      0xffffffff\n      and\n      jump\t// in\n    tag_411:\n        /* \"contracts/Pool/Pool.sol\":13206:13251  uint256 tTeam = tAmount.mul(TeamFee).div(100) */\n      swap1\n      pop\n        /* \"contracts/Pool/Pool.sol\":13261:13284  uint256 tTransferAmount */\n      0x00\n        /* \"contracts/Pool/Pool.sol\":13287:13315  tAmount.sub(tFee).sub(tTeam) */\n      tag_413\n        /* \"contracts/Pool/Pool.sol\":13309:13314  tTeam */\n      dup3\n        /* \"contracts/Pool/Pool.sol\":13287:13304  tAmount.sub(tFee) */\n      tag_414\n        /* \"contracts/Pool/Pool.sol\":13299:13303  tFee */\n      dup6\n        /* \"contracts/Pool/Pool.sol\":13287:13294  tAmount */\n      dup13\n        /* \"contracts/Pool/Pool.sol\":13287:13298  tAmount.sub */\n      tag_370\n      swap1\n        /* \"contracts/Pool/Pool.sol\":13287:13304  tAmount.sub(tFee) */\n      swap2\n      swap1\n      0xffffffff\n      and\n      jump\t// in\n    tag_414:\n        /* \"contracts/Pool/Pool.sol\":13287:13308  tAmount.sub(tFee).sub */\n      tag_370\n      swap1\n        /* \"contracts/Pool/Pool.sol\":13287:13315  tAmount.sub(tFee).sub(tTeam) */\n      swap2\n      swap1\n      0xffffffff\n      and\n      jump\t// in\n    tag_413:\n        /* \"contracts/Pool/Pool.sol\":13261:13315  uint256 tTransferAmount = tAmount.sub(tFee).sub(tTeam) */\n      swap1\n      pop\n        /* \"contracts/Pool/Pool.sol\":13333:13348  tTransferAmount */\n      dup1\n        /* \"contracts/Pool/Pool.sol\":13350:13354  tFee */\n      dup4\n        /* \"contracts/Pool/Pool.sol\":13356:13361  tTeam */\n      dup4\n        /* \"contracts/Pool/Pool.sol\":13325:13362  return (tTransferAmount, tFee, tTeam) */\n      swap6\n      pop\n      swap6\n      pop\n      swap6\n      pop\n      pop\n      pop\n      pop\n        /* \"contracts/Pool/Pool.sol\":13023:13369  function _getTValues(uint256 tAmount, uint256 taxFee, uint256 TeamFee) private pure returns (uint256, uint256, uint256) {... */\n      swap4\n      pop\n      swap4\n      pop\n      swap4\n      swap1\n      pop\n      jump\t// out\n        /* \"contracts/Pool/Pool.sol\":13375:13778  function _getRValues(uint256 tAmount, uint256 tFee, uint256 tTeam, uint256 currentRate) private pure returns (uint256, uint256, uint256) {... */\n    tag_391:\n        /* \"contracts/Pool/Pool.sol\":13485:13492  uint256 */\n      0x00\n        /* \"contracts/Pool/Pool.sol\":13494:13501  uint256 */\n      dup1\n        /* \"contracts/Pool/Pool.sol\":13503:13510  uint256 */\n      0x00\n        /* \"contracts/Pool/Pool.sol\":13522:13537  uint256 rAmount */\n      dup1\n        /* \"contracts/Pool/Pool.sol\":13540:13564  tAmount.mul(currentRate) */\n      tag_416\n        /* \"contracts/Pool/Pool.sol\":13552:13563  currentRate */\n      dup6\n        /* \"contracts/Pool/Pool.sol\":13540:13547  tAmount */\n      dup10\n        /* \"contracts/Pool/Pool.sol\":13540:13551  tAmount.mul */\n      tag_403\n      swap1\n        /* \"contracts/Pool/Pool.sol\":13540:13564  tAmount.mul(currentRate) */\n      swap2\n      swap1\n      0xffffffff\n      and\n      jump\t// in\n    tag_416:\n        /* \"contracts/Pool/Pool.sol\":13522:13564  uint256 rAmount = tAmount.mul(currentRate) */\n      swap1\n      pop\n        /* \"contracts/Pool/Pool.sol\":13574:13586  uint256 rFee */\n      0x00\n        /* \"contracts/Pool/Pool.sol\":13589:13610  tFee.mul(currentRate) */\n      tag_417\n        /* \"contracts/Pool/Pool.sol\":13598:13609  currentRate */\n      dup7\n        /* \"contracts/Pool/Pool.sol\":13589:13593  tFee */\n      dup10\n        /* \"contracts/Pool/Pool.sol\":13589:13597  tFee.mul */\n      tag_403\n      swap1\n        /* \"contracts/Pool/Pool.sol\":13589:13610  tFee.mul(currentRate) */\n      swap2\n      swap1\n      0xffffffff\n      and\n      jump\t// in\n    tag_417:\n        /* \"contracts/Pool/Pool.sol\":13574:13610  uint256 rFee = tFee.mul(currentRate) */\n      swap1\n      pop\n        /* \"contracts/Pool/Pool.sol\":13620:13633  uint256 rTeam */\n      0x00\n        /* \"contracts/Pool/Pool.sol\":13636:13658  tTeam.mul(currentRate) */\n      tag_418\n        /* \"contracts/Pool/Pool.sol\":13646:13657  currentRate */\n      dup8\n        /* \"contracts/Pool/Pool.sol\":13636:13641  tTeam */\n      dup10\n        /* \"contracts/Pool/Pool.sol\":13636:13645  tTeam.mul */\n      tag_403\n      swap1\n        /* \"contracts/Pool/Pool.sol\":13636:13658  tTeam.mul(currentRate) */\n      swap2\n      swap1\n      0xffffffff\n      and\n      jump\t// in\n    tag_418:\n        /* \"contracts/Pool/Pool.sol\":13620:13658  uint256 rTeam = tTeam.mul(currentRate) */\n      swap1\n      pop\n        /* \"contracts/Pool/Pool.sol\":13668:13691  uint256 rTransferAmount */\n      0x00\n        /* \"contracts/Pool/Pool.sol\":13694:13722  rAmount.sub(rFee).sub(rTeam) */\n      tag_419\n        /* \"contracts/Pool/Pool.sol\":13716:13721  rTeam */\n      dup3\n        /* \"contracts/Pool/Pool.sol\":13694:13711  rAmount.sub(rFee) */\n      tag_420\n        /* \"contracts/Pool/Pool.sol\":13706:13710  rFee */\n      dup6\n        /* \"contracts/Pool/Pool.sol\":13694:13701  rAmount */\n      dup8\n        /* \"contracts/Pool/Pool.sol\":13694:13705  rAmount.sub */\n      tag_370\n      swap1\n        /* \"contracts/Pool/Pool.sol\":13694:13711  rAmount.sub(rFee) */\n      swap2\n      swap1\n      0xffffffff\n      and\n      jump\t// in\n    tag_420:\n        /* \"contracts/Pool/Pool.sol\":13694:13715  rAmount.sub(rFee).sub */\n      tag_370\n      swap1\n        /* \"contracts/Pool/Pool.sol\":13694:13722  rAmount.sub(rFee).sub(rTeam) */\n      swap2\n      swap1\n      0xffffffff\n      and\n      jump\t// in\n    tag_419:\n        /* \"contracts/Pool/Pool.sol\":13668:13722  uint256 rTransferAmount = rAmount.sub(rFee).sub(rTeam) */\n      swap1\n      pop\n        /* \"contracts/Pool/Pool.sol\":13740:13747  rAmount */\n      dup4\n        /* \"contracts/Pool/Pool.sol\":13749:13764  rTransferAmount */\n      dup2\n        /* \"contracts/Pool/Pool.sol\":13766:13770  rFee */\n      dup5\n        /* \"contracts/Pool/Pool.sol\":13732:13771  return (rAmount, rTransferAmount, rFee) */\n      swap7\n      pop\n      swap7\n      pop\n      swap7\n      pop\n      pop\n      pop\n      pop\n      pop\n        /* \"contracts/Pool/Pool.sol\":13375:13778  function _getRValues(uint256 tAmount, uint256 tFee, uint256 tTeam, uint256 currentRate) private pure returns (uint256, uint256, uint256) {... */\n      swap5\n      pop\n      swap5\n      pop\n      swap5\n      swap2\n      pop\n      pop\n      jump\t// out\n        /* \"contracts/Pool/Pool.sol\":2359:2598  function mul(uint256 a, uint256 b) internal pure returns (uint256) {... */\n    tag_403:\n        /* \"contracts/Pool/Pool.sol\":2417:2424  uint256 */\n      0x00\n        /* \"contracts/Pool/Pool.sol\":2445:2446  0 */\n      dup1\n        /* \"contracts/Pool/Pool.sol\":2440:2441  a */\n      dup4\n        /* \"contracts/Pool/Pool.sol\":2440:2446  a == 0 */\n      sub\n        /* \"contracts/Pool/Pool.sol\":2436:2481  if (a == 0) {... */\n      tag_422\n      jumpi\n        /* \"contracts/Pool/Pool.sol\":2469:2470  0 */\n      0x00\n        /* \"contracts/Pool/Pool.sol\":2462:2470  return 0 */\n      swap1\n      pop\n      jump(tag_421)\n        /* \"contracts/Pool/Pool.sol\":2436:2481  if (a == 0) {... */\n    tag_422:\n        /* \"contracts/Pool/Pool.sol\":2490:2499  uint256 c */\n      0x00\n        /* \"contracts/Pool/Pool.sol\":2506:2507  b */\n      dup3\n        /* \"contracts/Pool/Pool.sol\":2502:2503  a */\n      dup5\n        /* \"contracts/Pool/Pool.sol\":2502:2507  a * b */\n      tag_423\n      swap2\n      swap1\n      tag_424\n      jump\t// in\n    tag_423:\n        /* \"contracts/Pool/Pool.sol\":2490:2507  uint256 c = a * b */\n      swap1\n      pop\n        /* \"contracts/Pool/Pool.sol\":2534:2535  b */\n      dup3\n        /* \"contracts/Pool/Pool.sol\":2529:2530  a */\n      dup5\n        /* \"contracts/Pool/Pool.sol\":2525:2526  c */\n      dup3\n        /* \"contracts/Pool/Pool.sol\":2525:2530  c / a */\n      tag_425\n      swap2\n      swap1\n      tag_382\n      jump\t// in\n    tag_425:\n        /* \"contracts/Pool/Pool.sol\":2525:2535  c / a == b */\n      eq\n        /* \"contracts/Pool/Pool.sol\":2517:2573  require(c / a == b, \"SafeMath: multiplication overflow\") */\n      tag_426\n      jumpi\n      mload(0x40)\n      0x08c379a000000000000000000000000000000000000000000000000000000000\n      dup2\n      mstore\n      0x04\n      add\n      tag_427\n      swap1\n      tag_428\n      jump\t// in\n    tag_427:\n      mload(0x40)\n      dup1\n      swap2\n      sub\n      swap1\n      revert\n    tag_426:\n        /* \"contracts/Pool/Pool.sol\":2590:2591  c */\n      dup1\n        /* \"contracts/Pool/Pool.sol\":2583:2591  return c */\n      swap2\n      pop\n      pop\n        /* \"contracts/Pool/Pool.sol\":2359:2598  function mul(uint256 a, uint256 b) internal pure returns (uint256) {... */\n    tag_421:\n      swap3\n      swap2\n      pop\n      pop\n      jump\t// out\n        /* \"#utility.yul\":7:106   */\n    tag_429:\n        /* \"#utility.yul\":59:65   */\n      0x00\n        /* \"#utility.yul\":93:98   */\n      dup2\n        /* \"#utility.yul\":87:99   */\n      mload\n        /* \"#utility.yul\":77:99   */\n      swap1\n      pop\n        /* \"#utility.yul\":7:106   */\n      swap2\n      swap1\n      pop\n      jump\t// out\n        /* \"#utility.yul\":112:281   */\n    tag_430:\n        /* \"#utility.yul\":196:207   */\n      0x00\n        /* \"#utility.yul\":230:236   */\n      dup3\n        /* \"#utility.yul\":225:228   */\n      dup3\n        /* \"#utility.yul\":218:237   */\n      mstore\n        /* \"#utility.yul\":270:274   */\n      0x20\n        /* \"#utility.yul\":265:268   */\n      dup3\n        /* \"#utility.yul\":261:275   */\n      add\n        /* \"#utility.yul\":246:275   */\n      swap1\n      pop\n        /* \"#utility.yul\":112:281   */\n      swap3\n      swap2\n      pop\n      pop\n      jump\t// out\n        /* \"#utility.yul\":287:594   */\n    tag_431:\n        /* \"#utility.yul\":355:356   */\n      0x00\n        /* \"#utility.yul\":365:478   */\n    tag_508:\n        /* \"#utility.yul\":379:385   */\n      dup4\n        /* \"#utility.yul\":376:377   */\n      dup2\n        /* \"#utility.yul\":373:386   */\n      lt\n        /* \"#utility.yul\":365:478   */\n      iszero\n      tag_510\n      jumpi\n        /* \"#utility.yul\":464:465   */\n      dup1\n        /* \"#utility.yul\":459:462   */\n      dup3\n        /* \"#utility.yul\":455:466   */\n      add\n        /* \"#utility.yul\":449:467   */\n      mload\n        /* \"#utility.yul\":445:446   */\n      dup2\n        /* \"#utility.yul\":440:443   */\n      dup5\n        /* \"#utility.yul\":436:447   */\n      add\n        /* \"#utility.yul\":429:468   */\n      mstore\n        /* \"#utility.yul\":401:403   */\n      0x20\n        /* \"#utility.yul\":398:399   */\n      dup2\n        /* \"#utility.yul\":394:404   */\n      add\n        /* \"#utility.yul\":389:404   */\n      swap1\n      pop\n        /* \"#utility.yul\":365:478   */\n      jump(tag_508)\n    tag_510:\n        /* \"#utility.yul\":496:502   */\n      dup4\n        /* \"#utility.yul\":493:494   */\n      dup2\n        /* \"#utility.yul\":490:503   */\n      gt\n        /* \"#utility.yul\":487:588   */\n      iszero\n      tag_511\n      jumpi\n        /* \"#utility.yul\":576:577   */\n      0x00\n        /* \"#utility.yul\":567:573   */\n      dup5\n        /* \"#utility.yul\":562:565   */\n      dup5\n        /* \"#utility.yul\":558:574   */\n      add\n        /* \"#utility.yul\":551:578   */\n      mstore\n        /* \"#utility.yul\":487:588   */\n    tag_511:\n        /* \"#utility.yul\":336:594   */\n      pop\n        /* \"#utility.yul\":287:594   */\n      pop\n      pop\n      pop\n      jump\t// out\n        /* \"#utility.yul\":600:702   */\n    tag_432:\n        /* \"#utility.yul\":641:647   */\n      0x00\n        /* \"#utility.yul\":692:694   */\n      0x1f\n        /* \"#utility.yul\":688:695   */\n      not\n        /* \"#utility.yul\":683:685   */\n      0x1f\n        /* \"#utility.yul\":676:681   */\n      dup4\n        /* \"#utility.yul\":672:686   */\n      add\n        /* \"#utility.yul\":668:696   */\n      and\n        /* \"#utility.yul\":658:696   */\n      swap1\n      pop\n        /* \"#utility.yul\":600:702   */\n      swap2\n      swap1\n      pop\n      jump\t// out\n        /* \"#utility.yul\":708:1072   */\n    tag_433:\n        /* \"#utility.yul\":796:799   */\n      0x00\n        /* \"#utility.yul\":824:863   */\n      tag_514\n        /* \"#utility.yul\":857:862   */\n      dup3\n        /* \"#utility.yul\":824:863   */\n      tag_429\n      jump\t// in\n    tag_514:\n        /* \"#utility.yul\":879:950   */\n      tag_515\n        /* \"#utility.yul\":943:949   */\n      dup2\n        /* \"#utility.yul\":938:941   */\n      dup6\n        /* \"#utility.yul\":879:950   */\n      tag_430\n      jump\t// in\n    tag_515:\n        /* \"#utility.yul\":872:950   */\n      swap4\n      pop\n        /* \"#utility.yul\":959:1011   */\n      tag_516\n        /* \"#utility.yul\":1004:1010   */\n      dup2\n        /* \"#utility.yul\":999:1002   */\n      dup6\n        /* \"#utility.yul\":992:996   */\n      0x20\n        /* \"#utility.yul\":985:990   */\n      dup7\n        /* \"#utility.yul\":981:997   */\n      add\n        /* \"#utility.yul\":959:1011   */\n      tag_431\n      jump\t// in\n    tag_516:\n        /* \"#utility.yul\":1036:1065   */\n      tag_517\n        /* \"#utility.yul\":1058:1064   */\n      dup2\n        /* \"#utility.yul\":1036:1065   */\n      tag_432\n      jump\t// in\n    tag_517:\n        /* \"#utility.yul\":1031:1034   */\n      dup5\n        /* \"#utility.yul\":1027:1066   */\n      add\n        /* \"#utility.yul\":1020:1066   */\n      swap2\n      pop\n        /* \"#utility.yul\":800:1072   */\n      pop\n        /* \"#utility.yul\":708:1072   */\n      swap3\n      swap2\n      pop\n      pop\n      jump\t// out\n        /* \"#utility.yul\":1078:1391   */\n    tag_36:\n        /* \"#utility.yul\":1191:1195   */\n      0x00\n        /* \"#utility.yul\":1229:1231   */\n      0x20\n        /* \"#utility.yul\":1218:1227   */\n      dup3\n        /* \"#utility.yul\":1214:1232   */\n      add\n        /* \"#utility.yul\":1206:1232   */\n      swap1\n      pop\n        /* \"#utility.yul\":1278:1287   */\n      dup2\n        /* \"#utility.yul\":1272:1276   */\n      dup2\n        /* \"#utility.yul\":1268:1288   */\n      sub\n        /* \"#utility.yul\":1264:1265   */\n      0x00\n        /* \"#utility.yul\":1253:1262   */\n      dup4\n        /* \"#utility.yul\":1249:1266   */\n      add\n        /* \"#utility.yul\":1242:1289   */\n      mstore\n        /* \"#utility.yul\":1306:1384   */\n      tag_519\n        /* \"#utility.yul\":1379:1383   */\n      dup2\n        /* \"#utility.yul\":1370:1376   */\n      dup5\n        /* \"#utility.yul\":1306:1384   */\n      tag_433\n      jump\t// in\n    tag_519:\n        /* \"#utility.yul\":1298:1384   */\n      swap1\n      pop\n        /* \"#utility.yul\":1078:1391   */\n      swap3\n      swap2\n      pop\n      pop\n      jump\t// out\n        /* \"#utility.yul\":1478:1595   */\n    tag_435:\n        /* \"#utility.yul\":1587:1588   */\n      0x00\n        /* \"#utility.yul\":1584:1585   */\n      dup1\n        /* \"#utility.yul\":1577:1589   */\n      revert\n        /* \"#utility.yul\":1601:1718   */\n    tag_436:\n        /* \"#utility.yul\":1710:1711   */\n      0x00\n        /* \"#utility.yul\":1707:1708   */\n      dup1\n        /* \"#utility.yul\":1700:1712   */\n      revert\n        /* \"#utility.yul\":1724:1850   */\n    tag_437:\n        /* \"#utility.yul\":1761:1768   */\n      0x00\n        /* \"#utility.yul\":1801:1843   */\n      0xffffffffffffffffffffffffffffffffffffffff\n        /* \"#utility.yul\":1794:1799   */\n      dup3\n        /* \"#utility.yul\":1790:1844   */\n      and\n        /* \"#utility.yul\":1779:1844   */\n      swap1\n      pop\n        /* \"#utility.yul\":1724:1850   */\n      swap2\n      swap1\n      pop\n      jump\t// out\n        /* \"#utility.yul\":1856:1952   */\n    tag_438:\n        /* \"#utility.yul\":1893:1900   */\n      0x00\n        /* \"#utility.yul\":1922:1946   */\n      tag_525\n        /* \"#utility.yul\":1940:1945   */\n      dup3\n        /* \"#utility.yul\":1922:1946   */\n      tag_437\n      jump\t// in\n    tag_525:\n        /* \"#utility.yul\":1911:1946   */\n      swap1\n      pop\n        /* \"#utility.yul\":1856:1952   */\n      swap2\n      swap1\n      pop\n      jump\t// out\n        /* \"#utility.yul\":1958:2080   */\n    tag_439:\n        /* \"#utility.yul\":2031:2055   */\n      tag_527\n        /* \"#utility.yul\":2049:2054   */\n      dup2\n        /* \"#utility.yul\":2031:2055   */\n      tag_438\n      jump\t// in\n    tag_527:\n        /* \"#utility.yul\":2024:2029   */\n      dup2\n        /* \"#utility.yul\":2021:2056   */\n      eq\n        /* \"#utility.yul\":2011:2074   */\n      tag_528\n      jumpi\n        /* \"#utility.yul\":2070:2071   */\n      0x00\n        /* \"#utility.yul\":2067:2068   */\n      dup1\n        /* \"#utility.yul\":2060:2072   */\n      revert\n        /* \"#utility.yul\":2011:2074   */\n    tag_528:\n        /* \"#utility.yul\":1958:2080   */\n      pop\n      jump\t// out\n        /* \"#utility.yul\":2086:2225   */\n    tag_440:\n        /* \"#utility.yul\":2132:2137   */\n      0x00\n        /* \"#utility.yul\":2170:2176   */\n      dup2\n        /* \"#utility.yul\":2157:2177   */\n      calldataload\n        /* \"#utility.yul\":2148:2177   */\n      swap1\n      pop\n        /* \"#utility.yul\":2186:2219   */\n      tag_530\n        /* \"#utility.yul\":2213:2218   */\n      dup2\n        /* \"#utility.yul\":2186:2219   */\n      tag_439\n      jump\t// in\n    tag_530:\n        /* \"#utility.yul\":2086:2225   */\n      swap3\n      swap2\n      pop\n      pop\n      jump\t// out\n        /* \"#utility.yul\":2231:2308   */\n    tag_441:\n        /* \"#utility.yul\":2268:2275   */\n      0x00\n        /* \"#utility.yul\":2297:2302   */\n      dup2\n        /* \"#utility.yul\":2286:2302   */\n      swap1\n      pop\n        /* \"#utility.yul\":2231:2308   */\n      swap2\n      swap1\n      pop\n      jump\t// out\n        /* \"#utility.yul\":2314:2436   */\n    tag_442:\n        /* \"#utility.yul\":2387:2411   */\n      tag_533\n        /* \"#utility.yul\":2405:2410   */\n      dup2\n        /* \"#utility.yul\":2387:2411   */\n      tag_441\n      jump\t// in\n    tag_533:\n        /* \"#utility.yul\":2380:2385   */\n      dup2\n        /* \"#utility.yul\":2377:2412   */\n      eq\n        /* \"#utility.yul\":2367:2430   */\n      tag_534\n      jumpi\n        /* \"#utility.yul\":2426:2427   */\n      0x00\n        /* \"#utility.yul\":2423:2424   */\n      dup1\n        /* \"#utility.yul\":2416:2428   */\n      revert\n        /* \"#utility.yul\":2367:2430   */\n    tag_534:\n        /* \"#utility.yul\":2314:2436   */\n      pop\n      jump\t// out\n        /* \"#utility.yul\":2442:2581   */\n    tag_443:\n        /* \"#utility.yul\":2488:2493   */\n      0x00\n        /* \"#utility.yul\":2526:2532   */\n      dup2\n        /* \"#utility.yul\":2513:2533   */\n      calldataload\n        /* \"#utility.yul\":2504:2533   */\n      swap1\n      pop\n        /* \"#utility.yul\":2542:2575   */\n      tag_536\n        /* \"#utility.yul\":2569:2574   */\n      dup2\n        /* \"#utility.yul\":2542:2575   */\n      tag_442\n      jump\t// in\n    tag_536:\n        /* \"#utility.yul\":2442:2581   */\n      swap3\n      swap2\n      pop\n      pop\n      jump\t// out\n        /* \"#utility.yul\":2587:3061   */\n    tag_40:\n        /* \"#utility.yul\":2655:2661   */\n      0x00\n        /* \"#utility.yul\":2663:2669   */\n      dup1\n        /* \"#utility.yul\":2712:2714   */\n      0x40\n        /* \"#utility.yul\":2700:2709   */\n      dup4\n        /* \"#utility.yul\":2691:2698   */\n      dup6\n        /* \"#utility.yul\":2687:2710   */\n      sub\n        /* \"#utility.yul\":2683:2715   */\n      slt\n        /* \"#utility.yul\":2680:2799   */\n      iszero\n      tag_538\n      jumpi\n        /* \"#utility.yul\":2718:2797   */\n      tag_539\n      tag_435\n      jump\t// in\n    tag_539:\n        /* \"#utility.yul\":2680:2799   */\n    tag_538:\n        /* \"#utility.yul\":2838:2839   */\n      0x00\n        /* \"#utility.yul\":2863:2916   */\n      tag_540\n        /* \"#utility.yul\":2908:2915   */\n      dup6\n        /* \"#utility.yul\":2899:2905   */\n      dup3\n        /* \"#utility.yul\":2888:2897   */\n      dup7\n        /* \"#utility.yul\":2884:2906   */\n      add\n        /* \"#utility.yul\":2863:2916   */\n      tag_440\n      jump\t// in\n    tag_540:\n        /* \"#utility.yul\":2853:2916   */\n      swap3\n      pop\n        /* \"#utility.yul\":2809:2926   */\n      pop\n        /* \"#utility.yul\":2965:2967   */\n      0x20\n        /* \"#utility.yul\":2991:3044   */\n      tag_541\n        /* \"#utility.yul\":3036:3043   */\n      dup6\n        /* \"#utility.yul\":3027:3033   */\n      dup3\n        /* \"#utility.yul\":3016:3025   */\n      dup7\n        /* \"#utility.yul\":3012:3034   */\n      add\n        /* \"#utility.yul\":2991:3044   */\n      tag_443\n      jump\t// in\n    tag_541:\n        /* \"#utility.yul\":2981:3044   */\n      swap2\n      pop\n        /* \"#utility.yul\":2936:3054   */\n      pop\n        /* \"#utility.yul\":2587:3061   */\n      swap3\n      pop\n      swap3\n      swap1\n      pop\n      jump\t// out\n        /* \"#utility.yul\":3067:3157   */\n    tag_444:\n        /* \"#utility.yul\":3101:3108   */\n      0x00\n        /* \"#utility.yul\":3144:3149   */\n      dup2\n        /* \"#utility.yul\":3137:3150   */\n      iszero\n        /* \"#utility.yul\":3130:3151   */\n      iszero\n        /* \"#utility.yul\":3119:3151   */\n      swap1\n      pop\n        /* \"#utility.yul\":3067:3157   */\n      swap2\n      swap1\n      pop\n      jump\t// out\n        /* \"#utility.yul\":3163:3272   */\n    tag_445:\n        /* \"#utility.yul\":3244:3265   */\n      tag_544\n        /* \"#utility.yul\":3259:3264   */\n      dup2\n        /* \"#utility.yul\":3244:3265   */\n      tag_444\n      jump\t// in\n    tag_544:\n        /* \"#utility.yul\":3239:3242   */\n      dup3\n        /* \"#utility.yul\":3232:3266   */\n      mstore\n        /* \"#utility.yul\":3163:3272   */\n      pop\n      pop\n      jump\t// out\n        /* \"#utility.yul\":3278:3488   */\n    tag_43:\n        /* \"#utility.yul\":3365:3369   */\n      0x00\n        /* \"#utility.yul\":3403:3405   */\n      0x20\n        /* \"#utility.yul\":3392:3401   */\n      dup3\n        /* \"#utility.yul\":3388:3406   */\n      add\n        /* \"#utility.yul\":3380:3406   */\n      swap1\n      pop\n        /* \"#utility.yul\":3416:3481   */\n      tag_546\n        /* \"#utility.yul\":3478:3479   */\n      0x00\n        /* \"#utility.yul\":3467:3476   */\n      dup4\n        /* \"#utility.yul\":3463:3480   */\n      add\n        /* \"#utility.yul\":3454:3460   */\n      dup5\n        /* \"#utility.yul\":3416:3481   */\n      tag_445\n      jump\t// in\n    tag_546:\n        /* \"#utility.yul\":3278:3488   */\n      swap3\n      swap2\n      pop\n      pop\n      jump\t// out\n        /* \"#utility.yul\":3494:3554   */\n    tag_446:\n        /* \"#utility.yul\":3522:3525   */\n      0x00\n        /* \"#utility.yul\":3543:3548   */\n      dup2\n        /* \"#utility.yul\":3536:3548   */\n      swap1\n      pop\n        /* \"#utility.yul\":3494:3554   */\n      swap2\n      swap1\n      pop\n      jump\t// out\n        /* \"#utility.yul\":3560:3702   */\n    tag_447:\n        /* \"#utility.yul\":3610:3619   */\n      0x00\n        /* \"#utility.yul\":3643:3696   */\n      tag_549\n        /* \"#utility.yul\":3661:3695   */\n      tag_550\n        /* \"#utility.yul\":3670:3694   */\n      tag_551\n        /* \"#utility.yul\":3688:3693   */\n      dup5\n        /* \"#utility.yul\":3670:3694   */\n      tag_437\n      jump\t// in\n    tag_551:\n        /* \"#utility.yul\":3661:3695   */\n      tag_446\n      jump\t// in\n    tag_550:\n        /* \"#utility.yul\":3643:3696   */\n      tag_437\n      jump\t// in\n    tag_549:\n        /* \"#utility.yul\":3630:3696   */\n      swap1\n      pop\n        /* \"#utility.yul\":3560:3702   */\n      swap2\n      swap1\n      pop\n      jump\t// out\n        /* \"#utility.yul\":3708:3834   */\n    tag_448:\n        /* \"#utility.yul\":3758:3767   */\n      0x00\n        /* \"#utility.yul\":3791:3828   */\n      tag_553\n        /* \"#utility.yul\":3822:3827   */\n      dup3\n        /* \"#utility.yul\":3791:3828   */\n      tag_447\n      jump\t// in\n    tag_553:\n        /* \"#utility.yul\":3778:3828   */\n      swap1\n      pop\n        /* \"#utility.yul\":3708:3834   */\n      swap2\n      swap1\n      pop\n      jump\t// out\n        /* \"#utility.yul\":3840:3992   */\n    tag_449:\n        /* \"#utility.yul\":3916:3925   */\n      0x00\n        /* \"#utility.yul\":3949:3986   */\n      tag_555\n        /* \"#utility.yul\":3980:3985   */\n      dup3\n        /* \"#utility.yul\":3949:3986   */\n      tag_448\n      jump\t// in\n    tag_555:\n        /* \"#utility.yul\":3936:3986   */\n      swap1\n      pop\n        /* \"#utility.yul\":3840:3992   */\n      swap2\n      swap1\n      pop\n      jump\t// out\n        /* \"#utility.yul\":3998:4181   */\n    tag_450:\n        /* \"#utility.yul\":4111:4174   */\n      tag_557\n        /* \"#utility.yul\":4168:4173   */\n      dup2\n        /* \"#utility.yul\":4111:4174   */\n      tag_449\n      jump\t// in\n    tag_557:\n        /* \"#utility.yul\":4106:4109   */\n      dup3\n        /* \"#utility.yul\":4099:4175   */\n      mstore\n        /* \"#utility.yul\":3998:4181   */\n      pop\n      pop\n      jump\t// out\n        /* \"#utility.yul\":4187:4461   */\n    tag_48:\n        /* \"#utility.yul\":4306:4310   */\n      0x00\n        /* \"#utility.yul\":4344:4346   */\n      0x20\n        /* \"#utility.yul\":4333:4342   */\n      dup3\n        /* \"#utility.yul\":4329:4347   */\n      add\n        /* \"#utility.yul\":4321:4347   */\n      swap1\n      pop\n        /* \"#utility.yul\":4357:4454   */\n      tag_559\n        /* \"#utility.yul\":4451:4452   */\n      0x00\n        /* \"#utility.yul\":4440:4449   */\n      dup4\n        /* \"#utility.yul\":4436:4453   */\n      add\n        /* \"#utility.yul\":4427:4433   */\n      dup5\n        /* \"#utility.yul\":4357:4454   */\n      tag_450\n      jump\t// in\n    tag_559:\n        /* \"#utility.yul\":4187:4461   */\n      swap3\n      swap2\n      pop\n      pop\n      jump\t// out\n        /* \"#utility.yul\":4467:4585   */\n    tag_451:\n        /* \"#utility.yul\":4554:4578   */\n      tag_561\n        /* \"#utility.yul\":4572:4577   */\n      dup2\n        /* \"#utility.yul\":4554:4578   */\n      tag_441\n      jump\t// in\n    tag_561:\n        /* \"#utility.yul\":4549:4552   */\n      dup3\n        /* \"#utility.yul\":4542:4579   */\n      mstore\n        /* \"#utility.yul\":4467:4585   */\n      pop\n      pop\n      jump\t// out\n        /* \"#utility.yul\":4591:4813   */\n    tag_53:\n        /* \"#utility.yul\":4684:4688   */\n      0x00\n        /* \"#utility.yul\":4722:4724   */\n      0x20\n        /* \"#utility.yul\":4711:4720   */\n      dup3\n        /* \"#utility.yul\":4707:4725   */\n      add\n        /* \"#utility.yul\":4699:4725   */\n      swap1\n      pop\n        /* \"#utility.yul\":4735:4806   */\n      tag_563\n        /* \"#utility.yul\":4803:4804   */\n      0x00\n        /* \"#utility.yul\":4792:4801   */\n      dup4\n        /* \"#utility.yul\":4788:4805   */\n      add\n        /* \"#utility.yul\":4779:4785   */\n      dup5\n        /* \"#utility.yul\":4735:4806   */\n      tag_451\n      jump\t// in\n    tag_563:\n        /* \"#utility.yul\":4591:4813   */\n      swap3\n      swap2\n      pop\n      pop\n      jump\t// out\n        /* \"#utility.yul\":4819:5438   */\n    tag_57:\n        /* \"#utility.yul\":4896:4902   */\n      0x00\n        /* \"#utility.yul\":4904:4910   */\n      dup1\n        /* \"#utility.yul\":4912:4918   */\n      0x00\n        /* \"#utility.yul\":4961:4963   */\n      0x60\n        /* \"#utility.yul\":4949:4958   */\n      dup5\n        /* \"#utility.yul\":4940:4947   */\n      dup7\n        /* \"#utility.yul\":4936:4959   */\n      sub\n        /* \"#utility.yul\":4932:4964   */\n      slt\n        /* \"#utility.yul\":4929:5048   */\n      iszero\n      tag_565\n      jumpi\n        /* \"#utility.yul\":4967:5046   */\n      tag_566\n      tag_435\n      jump\t// in\n    tag_566:\n        /* \"#utility.yul\":4929:5048   */\n    tag_565:\n        /* \"#utility.yul\":5087:5088   */\n      0x00\n        /* \"#utility.yul\":5112:5165   */\n      tag_567\n        /* \"#utility.yul\":5157:5164   */\n      dup7\n        /* \"#utility.yul\":5148:5154   */\n      dup3\n        /* \"#utility.yul\":5137:5146   */\n      dup8\n        /* \"#utility.yul\":5133:5155   */\n      add\n        /* \"#utility.yul\":5112:5165   */\n      tag_440\n      jump\t// in\n    tag_567:\n        /* \"#utility.yul\":5102:5165   */\n      swap4\n      pop\n        /* \"#utility.yul\":5058:5175   */\n      pop\n        /* \"#utility.yul\":5214:5216   */\n      0x20\n        /* \"#utility.yul\":5240:5293   */\n      tag_568\n        /* \"#utility.yul\":5285:5292   */\n      dup7\n        /* \"#utility.yul\":5276:5282   */\n      dup3\n        /* \"#utility.yul\":5265:5274   */\n      dup8\n        /* \"#utility.yul\":5261:5283   */\n      add\n        /* \"#utility.yul\":5240:5293   */\n      tag_440\n      jump\t// in\n    tag_568:\n        /* \"#utility.yul\":5230:5293   */\n      swap3\n      pop\n        /* \"#utility.yul\":5185:5303   */\n      pop\n        /* \"#utility.yul\":5342:5344   */\n      0x40\n        /* \"#utility.yul\":5368:5421   */\n      tag_569\n        /* \"#utility.yul\":5413:5420   */\n      dup7\n        /* \"#utility.yul\":5404:5410   */\n      dup3\n        /* \"#utility.yul\":5393:5402   */\n      dup8\n        /* \"#utility.yul\":5389:5411   */\n      add\n        /* \"#utility.yul\":5368:5421   */\n      tag_443\n      jump\t// in\n    tag_569:\n        /* \"#utility.yul\":5358:5421   */\n      swap2\n      pop\n        /* \"#utility.yul\":5313:5431   */\n      pop\n        /* \"#utility.yul\":4819:5438   */\n      swap3\n      pop\n      swap3\n      pop\n      swap3\n      jump\t// out\n        /* \"#utility.yul\":5444:5530   */\n    tag_452:\n        /* \"#utility.yul\":5479:5486   */\n      0x00\n        /* \"#utility.yul\":5519:5523   */\n      0xff\n        /* \"#utility.yul\":5512:5517   */\n      dup3\n        /* \"#utility.yul\":5508:5524   */\n      and\n        /* \"#utility.yul\":5497:5524   */\n      swap1\n      pop\n        /* \"#utility.yul\":5444:5530   */\n      swap2\n      swap1\n      pop\n      jump\t// out\n        /* \"#utility.yul\":5536:5648   */\n    tag_453:\n        /* \"#utility.yul\":5619:5641   */\n      tag_572\n        /* \"#utility.yul\":5635:5640   */\n      dup2\n        /* \"#utility.yul\":5619:5641   */\n      tag_452\n      jump\t// in\n    tag_572:\n        /* \"#utility.yul\":5614:5617   */\n      dup3\n        /* \"#utility.yul\":5607:5642   */\n      mstore\n        /* \"#utility.yul\":5536:5648   */\n      pop\n      pop\n      jump\t// out\n        /* \"#utility.yul\":5654:5868   */\n    tag_64:\n        /* \"#utility.yul\":5743:5747   */\n      0x00\n        /* \"#utility.yul\":5781:5783   */\n      0x20\n        /* \"#utility.yul\":5770:5779   */\n      dup3\n        /* \"#utility.yul\":5766:5784   */\n      add\n        /* \"#utility.yul\":5758:5784   */\n      swap1\n      pop\n        /* \"#utility.yul\":5794:5861   */\n      tag_574\n        /* \"#utility.yul\":5858:5859   */\n      0x00\n        /* \"#utility.yul\":5847:5856   */\n      dup4\n        /* \"#utility.yul\":5843:5860   */\n      add\n        /* \"#utility.yul\":5834:5840   */\n      dup5\n        /* \"#utility.yul\":5794:5861   */\n      tag_453\n      jump\t// in\n    tag_574:\n        /* \"#utility.yul\":5654:5868   */\n      swap3\n      swap2\n      pop\n      pop\n      jump\t// out\n        /* \"#utility.yul\":5874:5992   */\n    tag_454:\n        /* \"#utility.yul\":5961:5985   */\n      tag_576\n        /* \"#utility.yul\":5979:5984   */\n      dup2\n        /* \"#utility.yul\":5961:5985   */\n      tag_438\n      jump\t// in\n    tag_576:\n        /* \"#utility.yul\":5956:5959   */\n      dup3\n        /* \"#utility.yul\":5949:5986   */\n      mstore\n        /* \"#utility.yul\":5874:5992   */\n      pop\n      pop\n      jump\t// out\n        /* \"#utility.yul\":5998:6220   */\n    tag_69:\n        /* \"#utility.yul\":6091:6095   */\n      0x00\n        /* \"#utility.yul\":6129:6131   */\n      0x20\n        /* \"#utility.yul\":6118:6127   */\n      dup3\n        /* \"#utility.yul\":6114:6132   */\n      add\n        /* \"#utility.yul\":6106:6132   */\n      swap1\n      pop\n        /* \"#utility.yul\":6142:6213   */\n      tag_578\n        /* \"#utility.yul\":6210:6211   */\n      0x00\n        /* \"#utility.yul\":6199:6208   */\n      dup4\n        /* \"#utility.yul\":6195:6212   */\n      add\n        /* \"#utility.yul\":6186:6192   */\n      dup5\n        /* \"#utility.yul\":6142:6213   */\n      tag_454\n      jump\t// in\n    tag_578:\n        /* \"#utility.yul\":5998:6220   */\n      swap3\n      swap2\n      pop\n      pop\n      jump\t// out\n        /* \"#utility.yul\":6226:6376   */\n    tag_455:\n        /* \"#utility.yul\":6300:6309   */\n      0x00\n        /* \"#utility.yul\":6333:6370   */\n      tag_580\n        /* \"#utility.yul\":6364:6369   */\n      dup3\n        /* \"#utility.yul\":6333:6370   */\n      tag_448\n      jump\t// in\n    tag_580:\n        /* \"#utility.yul\":6320:6370   */\n      swap1\n      pop\n        /* \"#utility.yul\":6226:6376   */\n      swap2\n      swap1\n      pop\n      jump\t// out\n        /* \"#utility.yul\":6382:6561   */\n    tag_456:\n        /* \"#utility.yul\":6493:6554   */\n      tag_582\n        /* \"#utility.yul\":6548:6553   */\n      dup2\n        /* \"#utility.yul\":6493:6554   */\n      tag_455\n      jump\t// in\n    tag_582:\n        /* \"#utility.yul\":6488:6491   */\n      dup3\n        /* \"#utility.yul\":6481:6555   */\n      mstore\n        /* \"#utility.yul\":6382:6561   */\n      pop\n      pop\n      jump\t// out\n        /* \"#utility.yul\":6567:6837   */\n    tag_78:\n        /* \"#utility.yul\":6684:6688   */\n      0x00\n        /* \"#utility.yul\":6722:6724   */\n      0x20\n        /* \"#utility.yul\":6711:6720   */\n      dup3\n        /* \"#utility.yul\":6707:6725   */\n      add\n        /* \"#utility.yul\":6699:6725   */\n      swap1\n      pop\n        /* \"#utility.yul\":6735:6830   */\n      tag_584\n        /* \"#utility.yul\":6827:6828   */\n      0x00\n        /* \"#utility.yul\":6816:6825   */\n      dup4\n        /* \"#utility.yul\":6812:6829   */\n      add\n        /* \"#utility.yul\":6803:6809   */\n      dup5\n        /* \"#utility.yul\":6735:6830   */\n      tag_456\n      jump\t// in\n    tag_584:\n        /* \"#utility.yul\":6567:6837   */\n      swap3\n      swap2\n      pop\n      pop\n      jump\t// out\n        /* \"#utility.yul\":6843:6959   */\n    tag_457:\n        /* \"#utility.yul\":6913:6934   */\n      tag_586\n        /* \"#utility.yul\":6928:6933   */\n      dup2\n        /* \"#utility.yul\":6913:6934   */\n      tag_444\n      jump\t// in\n    tag_586:\n        /* \"#utility.yul\":6906:6911   */\n      dup2\n        /* \"#utility.yul\":6903:6935   */\n      eq\n        /* \"#utility.yul\":6893:6953   */\n      tag_587\n      jumpi\n        /* \"#utility.yul\":6949:6950   */\n      0x00\n        /* \"#utility.yul\":6946:6947   */\n      dup1\n        /* \"#utility.yul\":6939:6951   */\n      revert\n        /* \"#utility.yul\":6893:6953   */\n    tag_587:\n        /* \"#utility.yul\":6843:6959   */\n      pop\n      jump\t// out\n        /* \"#utility.yul\":6965:7098   */\n    tag_458:\n        /* \"#utility.yul\":7008:7013   */\n      0x00\n        /* \"#utility.yul\":7046:7052   */\n      dup2\n        /* \"#utility.yul\":7033:7053   */\n      calldataload\n        /* \"#utility.yul\":7024:7053   */\n      swap1\n      pop\n        /* \"#utility.yul\":7062:7092   */\n      tag_589\n        /* \"#utility.yul\":7086:7091   */\n      dup2\n        /* \"#utility.yul\":7062:7092   */\n      tag_457\n      jump\t// in\n    tag_589:\n        /* \"#utility.yul\":6965:7098   */\n      swap3\n      swap2\n      pop\n      pop\n      jump\t// out\n        /* \"#utility.yul\":7104:7427   */\n    tag_82:\n        /* \"#utility.yul\":7160:7166   */\n      0x00\n        /* \"#utility.yul\":7209:7211   */\n      0x20\n        /* \"#utility.yul\":7197:7206   */\n      dup3\n        /* \"#utility.yul\":7188:7195   */\n      dup5\n        /* \"#utility.yul\":7184:7207   */\n      sub\n        /* \"#utility.yul\":7180:7212   */\n      slt\n        /* \"#utility.yul\":7177:7296   */\n      iszero\n      tag_591\n      jumpi\n        /* \"#utility.yul\":7215:7294   */\n      tag_592\n      tag_435\n      jump\t// in\n    tag_592:\n        /* \"#utility.yul\":7177:7296   */\n    tag_591:\n        /* \"#utility.yul\":7335:7336   */\n      0x00\n        /* \"#utility.yul\":7360:7410   */\n      tag_593\n        /* \"#utility.yul\":7402:7409   */\n      dup5\n        /* \"#utility.yul\":7393:7399   */\n      dup3\n        /* \"#utility.yul\":7382:7391   */\n      dup6\n        /* \"#utility.yul\":7378:7400   */\n      add\n        /* \"#utility.yul\":7360:7410   */\n      tag_458\n      jump\t// in\n    tag_593:\n        /* \"#utility.yul\":7350:7410   */\n      swap2\n      pop\n        /* \"#utility.yul\":7306:7420   */\n      pop\n        /* \"#utility.yul\":7104:7427   */\n      swap3\n      swap2\n      pop\n      pop\n      jump\t// out\n        /* \"#utility.yul\":7433:7762   */\n    tag_90:\n        /* \"#utility.yul\":7492:7498   */\n      0x00\n        /* \"#utility.yul\":7541:7543   */\n      0x20\n        /* \"#utility.yul\":7529:7538   */\n      dup3\n        /* \"#utility.yul\":7520:7527   */\n      dup5\n        /* \"#utility.yul\":7516:7539   */\n      sub\n        /* \"#utility.yul\":7512:7544   */\n      slt\n        /* \"#utility.yul\":7509:7628   */\n      iszero\n      tag_595\n      jumpi\n        /* \"#utility.yul\":7547:7626   */\n      tag_596\n      tag_435\n      jump\t// in\n    tag_596:\n        /* \"#utility.yul\":7509:7628   */\n    tag_595:\n        /* \"#utility.yul\":7667:7668   */\n      0x00\n        /* \"#utility.yul\":7692:7745   */\n      tag_597\n        /* \"#utility.yul\":7737:7744   */\n      dup5\n        /* \"#utility.yul\":7728:7734   */\n      dup3\n        /* \"#utility.yul\":7717:7726   */\n      dup6\n        /* \"#utility.yul\":7713:7735   */\n      add\n        /* \"#utility.yul\":7692:7745   */\n      tag_440\n      jump\t// in\n    tag_597:\n        /* \"#utility.yul\":7682:7745   */\n      swap2\n      pop\n        /* \"#utility.yul\":7638:7755   */\n      pop\n        /* \"#utility.yul\":7433:7762   */\n      swap3\n      swap2\n      pop\n      pop\n      jump\t// out\n        /* \"#utility.yul\":7768:7872   */\n    tag_459:\n        /* \"#utility.yul\":7813:7820   */\n      0x00\n        /* \"#utility.yul\":7842:7866   */\n      tag_599\n        /* \"#utility.yul\":7860:7865   */\n      dup3\n        /* \"#utility.yul\":7842:7866   */\n      tag_437\n      jump\t// in\n    tag_599:\n        /* \"#utility.yul\":7831:7866   */\n      swap1\n      pop\n        /* \"#utility.yul\":7768:7872   */\n      swap2\n      swap1\n      pop\n      jump\t// out\n        /* \"#utility.yul\":7878:8016   */\n    tag_460:\n        /* \"#utility.yul\":7959:7991   */\n      tag_601\n        /* \"#utility.yul\":7985:7990   */\n      dup2\n        /* \"#utility.yul\":7959:7991   */\n      tag_459\n      jump\t// in\n    tag_601:\n        /* \"#utility.yul\":7952:7957   */\n      dup2\n        /* \"#utility.yul\":7949:7992   */\n      eq\n        /* \"#utility.yul\":7939:8010   */\n      tag_602\n      jumpi\n        /* \"#utility.yul\":8006:8007   */\n      0x00\n        /* \"#utility.yul\":8003:8004   */\n      dup1\n        /* \"#utility.yul\":7996:8008   */\n      revert\n        /* \"#utility.yul\":7939:8010   */\n    tag_602:\n        /* \"#utility.yul\":7878:8016   */\n      pop\n      jump\t// out\n        /* \"#utility.yul\":8022:8177   */\n    tag_461:\n        /* \"#utility.yul\":8076:8081   */\n      0x00\n        /* \"#utility.yul\":8114:8120   */\n      dup2\n        /* \"#utility.yul\":8101:8121   */\n      calldataload\n        /* \"#utility.yul\":8092:8121   */\n      swap1\n      pop\n        /* \"#utility.yul\":8130:8171   */\n      tag_604\n        /* \"#utility.yul\":8165:8170   */\n      dup2\n        /* \"#utility.yul\":8130:8171   */\n      tag_460\n      jump\t// in\n    tag_604:\n        /* \"#utility.yul\":8022:8177   */\n      swap3\n      swap2\n      pop\n      pop\n      jump\t// out\n        /* \"#utility.yul\":8183:8528   */\n    tag_99:\n        /* \"#utility.yul\":8250:8256   */\n      0x00\n        /* \"#utility.yul\":8299:8301   */\n      0x20\n        /* \"#utility.yul\":8287:8296   */\n      dup3\n        /* \"#utility.yul\":8278:8285   */\n      dup5\n        /* \"#utility.yul\":8274:8297   */\n      sub\n        /* \"#utility.yul\":8270:8302   */\n      slt\n        /* \"#utility.yul\":8267:8386   */\n      iszero\n      tag_606\n      jumpi\n        /* \"#utility.yul\":8305:8384   */\n      tag_607\n      tag_435\n      jump\t// in\n    tag_607:\n        /* \"#utility.yul\":8267:8386   */\n    tag_606:\n        /* \"#utility.yul\":8425:8426   */\n      0x00\n        /* \"#utility.yul\":8450:8511   */\n      tag_608\n        /* \"#utility.yul\":8503:8510   */\n      dup5\n        /* \"#utility.yul\":8494:8500   */\n      dup3\n        /* \"#utility.yul\":8483:8492   */\n      dup6\n        /* \"#utility.yul\":8479:8501   */\n      add\n        /* \"#utility.yul\":8450:8511   */\n      tag_461\n      jump\t// in\n    tag_608:\n        /* \"#utility.yul\":8440:8511   */\n      swap2\n      pop\n        /* \"#utility.yul\":8396:8521   */\n      pop\n        /* \"#utility.yul\":8183:8528   */\n      swap3\n      swap2\n      pop\n      pop\n      jump\t// out\n        /* \"#utility.yul\":8534:9299   */\n    tag_112:\n        /* \"#utility.yul\":8620:8626   */\n      0x00\n        /* \"#utility.yul\":8628:8634   */\n      dup1\n        /* \"#utility.yul\":8636:8642   */\n      0x00\n        /* \"#utility.yul\":8644:8650   */\n      dup1\n        /* \"#utility.yul\":8693:8696   */\n      0x80\n        /* \"#utility.yul\":8681:8690   */\n      dup6\n        /* \"#utility.yul\":8672:8679   */\n      dup8\n        /* \"#utility.yul\":8668:8691   */\n      sub\n        /* \"#utility.yul\":8664:8697   */\n      slt\n        /* \"#utility.yul\":8661:8781   */\n      iszero\n      tag_610\n      jumpi\n        /* \"#utility.yul\":8700:8779   */\n      tag_611\n      tag_435\n      jump\t// in\n    tag_611:\n        /* \"#utility.yul\":8661:8781   */\n    tag_610:\n        /* \"#utility.yul\":8820:8821   */\n      0x00\n        /* \"#utility.yul\":8845:8898   */\n      tag_612\n        /* \"#utility.yul\":8890:8897   */\n      dup8\n        /* \"#utility.yul\":8881:8887   */\n      dup3\n        /* \"#utility.yul\":8870:8879   */\n      dup9\n        /* \"#utility.yul\":8866:8888   */\n      add\n        /* \"#utility.yul\":8845:8898   */\n      tag_443\n      jump\t// in\n    tag_612:\n        /* \"#utility.yul\":8835:8898   */\n      swap5\n      pop\n        /* \"#utility.yul\":8791:8908   */\n      pop\n        /* \"#utility.yul\":8947:8949   */\n      0x20\n        /* \"#utility.yul\":8973:9026   */\n      tag_613\n        /* \"#utility.yul\":9018:9025   */\n      dup8\n        /* \"#utility.yul\":9009:9015   */\n      dup3\n        /* \"#utility.yul\":8998:9007   */\n      dup9\n        /* \"#utility.yul\":8994:9016   */\n      add\n        /* \"#utility.yul\":8973:9026   */\n      tag_443\n      jump\t// in\n    tag_613:\n        /* \"#utility.yul\":8963:9026   */\n      swap4\n      pop\n        /* \"#utility.yul\":8918:9036   */\n      pop\n        /* \"#utility.yul\":9075:9077   */\n      0x40\n        /* \"#utility.yul\":9101:9154   */\n      tag_614\n        /* \"#utility.yul\":9146:9153   */\n      dup8\n        /* \"#utility.yul\":9137:9143   */\n      dup3\n        /* \"#utility.yul\":9126:9135   */\n      dup9\n        /* \"#utility.yul\":9122:9144   */\n      add\n        /* \"#utility.yul\":9101:9154   */\n      tag_443\n      jump\t// in\n    tag_614:\n        /* \"#utility.yul\":9091:9154   */\n      swap3\n      pop\n        /* \"#utility.yul\":9046:9164   */\n      pop\n        /* \"#utility.yul\":9203:9205   */\n      0x60\n        /* \"#utility.yul\":9229:9282   */\n      tag_615\n        /* \"#utility.yul\":9274:9281   */\n      dup8\n        /* \"#utility.yul\":9265:9271   */\n      dup3\n        /* \"#utility.yul\":9254:9263   */\n      dup9\n        /* \"#utility.yul\":9250:9272   */\n      add\n        /* \"#utility.yul\":9229:9282   */\n      tag_443\n      jump\t// in\n    tag_615:\n        /* \"#utility.yul\":9219:9282   */\n      swap2\n      pop\n        /* \"#utility.yul\":9174:9292   */\n      pop\n        /* \"#utility.yul\":8534:9299   */\n      swap3\n      swap6\n      swap2\n      swap5\n      pop\n      swap3\n      pop\n      jump\t// out\n        /* \"#utility.yul\":9305:9422   */\n    tag_462:\n        /* \"#utility.yul\":9414:9415   */\n      0x00\n        /* \"#utility.yul\":9411:9412   */\n      dup1\n        /* \"#utility.yul\":9404:9416   */\n      revert\n        /* \"#utility.yul\":9428:9545   */\n    tag_463:\n        /* \"#utility.yul\":9537:9538   */\n      0x00\n        /* \"#utility.yul\":9534:9535   */\n      dup1\n        /* \"#utility.yul\":9527:9539   */\n      revert\n        /* \"#utility.yul\":9551:9668   */\n    tag_464:\n        /* \"#utility.yul\":9660:9661   */\n      0x00\n        /* \"#utility.yul\":9657:9658   */\n      dup1\n        /* \"#utility.yul\":9650:9662   */\n      revert\n        /* \"#utility.yul\":9691:10259   */\n    tag_465:\n        /* \"#utility.yul\":9764:9772   */\n      0x00\n        /* \"#utility.yul\":9774:9780   */\n      dup1\n        /* \"#utility.yul\":9824:9827   */\n      dup4\n        /* \"#utility.yul\":9817:9821   */\n      0x1f\n        /* \"#utility.yul\":9809:9815   */\n      dup5\n        /* \"#utility.yul\":9805:9822   */\n      add\n        /* \"#utility.yul\":9801:9828   */\n      slt\n        /* \"#utility.yul\":9791:9913   */\n      tag_620\n      jumpi\n        /* \"#utility.yul\":9832:9911   */\n      tag_621\n      tag_462\n      jump\t// in\n    tag_621:\n        /* \"#utility.yul\":9791:9913   */\n    tag_620:\n        /* \"#utility.yul\":9945:9951   */\n      dup3\n        /* \"#utility.yul\":9932:9952   */\n      calldataload\n        /* \"#utility.yul\":9922:9952   */\n      swap1\n      pop\n        /* \"#utility.yul\":9975:9993   */\n      0xffffffffffffffff\n        /* \"#utility.yul\":9967:9973   */\n      dup2\n        /* \"#utility.yul\":9964:9994   */\n      gt\n        /* \"#utility.yul\":9961:10078   */\n      iszero\n      tag_622\n      jumpi\n        /* \"#utility.yul\":9997:10076   */\n      tag_623\n      tag_463\n      jump\t// in\n    tag_623:\n        /* \"#utility.yul\":9961:10078   */\n    tag_622:\n        /* \"#utility.yul\":10111:10115   */\n      0x20\n        /* \"#utility.yul\":10103:10109   */\n      dup4\n        /* \"#utility.yul\":10099:10116   */\n      add\n        /* \"#utility.yul\":10087:10116   */\n      swap2\n      pop\n        /* \"#utility.yul\":10165:10168   */\n      dup4\n        /* \"#utility.yul\":10157:10161   */\n      0x20\n        /* \"#utility.yul\":10149:10155   */\n      dup3\n        /* \"#utility.yul\":10145:10162   */\n      mul\n        /* \"#utility.yul\":10135:10143   */\n      dup4\n        /* \"#utility.yul\":10131:10163   */\n      add\n        /* \"#utility.yul\":10128:10169   */\n      gt\n        /* \"#utility.yul\":10125:10253   */\n      iszero\n      tag_624\n      jumpi\n        /* \"#utility.yul\":10172:10251   */\n      tag_625\n      tag_464\n      jump\t// in\n    tag_625:\n        /* \"#utility.yul\":10125:10253   */\n    tag_624:\n        /* \"#utility.yul\":9691:10259   */\n      swap3\n      pop\n      swap3\n      swap1\n      pop\n      jump\t// out\n        /* \"#utility.yul\":10265:10963   */\n    tag_129:\n        /* \"#utility.yul\":10357:10363   */\n      0x00\n        /* \"#utility.yul\":10365:10371   */\n      dup1\n        /* \"#utility.yul\":10373:10379   */\n      0x00\n        /* \"#utility.yul\":10422:10424   */\n      0x40\n        /* \"#utility.yul\":10410:10419   */\n      dup5\n        /* \"#utility.yul\":10401:10408   */\n      dup7\n        /* \"#utility.yul\":10397:10420   */\n      sub\n        /* \"#utility.yul\":10393:10425   */\n      slt\n        /* \"#utility.yul\":10390:10509   */\n      iszero\n      tag_627\n      jumpi\n        /* \"#utility.yul\":10428:10507   */\n      tag_628\n      tag_435\n      jump\t// in\n    tag_628:\n        /* \"#utility.yul\":10390:10509   */\n    tag_627:\n        /* \"#utility.yul\":10576:10577   */\n      0x00\n        /* \"#utility.yul\":10565:10574   */\n      dup5\n        /* \"#utility.yul\":10561:10578   */\n      add\n        /* \"#utility.yul\":10548:10579   */\n      calldataload\n        /* \"#utility.yul\":10606:10624   */\n      0xffffffffffffffff\n        /* \"#utility.yul\":10598:10604   */\n      dup2\n        /* \"#utility.yul\":10595:10625   */\n      gt\n        /* \"#utility.yul\":10592:10709   */\n      iszero\n      tag_629\n      jumpi\n        /* \"#utility.yul\":10628:10707   */\n      tag_630\n      tag_436\n      jump\t// in\n    tag_630:\n        /* \"#utility.yul\":10592:10709   */\n    tag_629:\n        /* \"#utility.yul\":10741:10821   */\n      tag_631\n        /* \"#utility.yul\":10813:10820   */\n      dup7\n        /* \"#utility.yul\":10804:10810   */\n      dup3\n        /* \"#utility.yul\":10793:10802   */\n      dup8\n        /* \"#utility.yul\":10789:10811   */\n      add\n        /* \"#utility.yul\":10741:10821   */\n      tag_465\n      jump\t// in\n    tag_631:\n        /* \"#utility.yul\":10723:10821   */\n      swap4\n      pop\n      swap4\n      pop\n        /* \"#utility.yul\":10519:10831   */\n      pop\n        /* \"#utility.yul\":10870:10872   */\n      0x20\n        /* \"#utility.yul\":10896:10946   */\n      tag_632\n        /* \"#utility.yul\":10938:10945   */\n      dup7\n        /* \"#utility.yul\":10929:10935   */\n      dup3\n        /* \"#utility.yul\":10918:10927   */\n      dup8\n        /* \"#utility.yul\":10914:10936   */\n      add\n        /* \"#utility.yul\":10896:10946   */\n      tag_458\n      jump\t// in\n    tag_632:\n        /* \"#utility.yul\":10886:10946   */\n      swap2\n      pop\n        /* \"#utility.yul\":10841:10956   */\n      pop\n        /* \"#utility.yul\":10265:10963   */\n      swap3\n      pop\n      swap3\n      pop\n      swap3\n      jump\t// out\n        /* \"#utility.yul\":10969:11443   */\n    tag_134:\n        /* \"#utility.yul\":11037:11043   */\n      0x00\n        /* \"#utility.yul\":11045:11051   */\n      dup1\n        /* \"#utility.yul\":11094:11096   */\n      0x40\n        /* \"#utility.yul\":11082:11091   */\n      dup4\n        /* \"#utility.yul\":11073:11080   */\n      dup6\n        /* \"#utility.yul\":11069:11092   */\n      sub\n        /* \"#utility.yul\":11065:11097   */\n      slt\n        /* \"#utility.yul\":11062:11181   */\n      iszero\n      tag_634\n      jumpi\n        /* \"#utility.yul\":11100:11179   */\n      tag_635\n      tag_435\n      jump\t// in\n    tag_635:\n        /* \"#utility.yul\":11062:11181   */\n    tag_634:\n        /* \"#utility.yul\":11220:11221   */\n      0x00\n        /* \"#utility.yul\":11245:11298   */\n      tag_636\n        /* \"#utility.yul\":11290:11297   */\n      dup6\n        /* \"#utility.yul\":11281:11287   */\n      dup3\n        /* \"#utility.yul\":11270:11279   */\n      dup7\n        /* \"#utility.yul\":11266:11288   */\n      add\n        /* \"#utility.yul\":11245:11298   */\n      tag_440\n      jump\t// in\n    tag_636:\n        /* \"#utility.yul\":11235:11298   */\n      swap3\n      pop\n        /* \"#utility.yul\":11191:11308   */\n      pop\n        /* \"#utility.yul\":11347:11349   */\n      0x20\n        /* \"#utility.yul\":11373:11426   */\n      tag_637\n        /* \"#utility.yul\":11418:11425   */\n      dup6\n        /* \"#utility.yul\":11409:11415   */\n      dup3\n        /* \"#utility.yul\":11398:11407   */\n      dup7\n        /* \"#utility.yul\":11394:11416   */\n      add\n        /* \"#utility.yul\":11373:11426   */\n      tag_440\n      jump\t// in\n    tag_637:\n        /* \"#utility.yul\":11363:11426   */\n      swap2\n      pop\n        /* \"#utility.yul\":11318:11436   */\n      pop\n        /* \"#utility.yul\":10969:11443   */\n      swap3\n      pop\n      swap3\n      swap1\n      pop\n      jump\t// out\n        /* \"#utility.yul\":11449:11620   */\n    tag_466:\n        /* \"#utility.yul\":11589:11612   */\n      0x43616c6c6572206973206e6f7420746865206465760000000000000000000000\n        /* \"#utility.yul\":11585:11586   */\n      0x00\n        /* \"#utility.yul\":11577:11583   */\n      dup3\n        /* \"#utility.yul\":11573:11587   */\n      add\n        /* \"#utility.yul\":11566:11613   */\n      mstore\n        /* \"#utility.yul\":11449:11620   */\n      pop\n      jump\t// out\n        /* \"#utility.yul\":11626:11992   */\n    tag_467:\n        /* \"#utility.yul\":11768:11771   */\n      0x00\n        /* \"#utility.yul\":11789:11856   */\n      tag_640\n        /* \"#utility.yul\":11853:11855   */\n      0x15\n        /* \"#utility.yul\":11848:11851   */\n      dup4\n        /* \"#utility.yul\":11789:11856   */\n      tag_430\n      jump\t// in\n    tag_640:\n        /* \"#utility.yul\":11782:11856   */\n      swap2\n      pop\n        /* \"#utility.yul\":11865:11958   */\n      tag_641\n        /* \"#utility.yul\":11954:11957   */\n      dup3\n        /* \"#utility.yul\":11865:11958   */\n      tag_466\n      jump\t// in\n    tag_641:\n        /* \"#utility.yul\":11983:11985   */\n      0x20\n        /* \"#utility.yul\":11978:11981   */\n      dup3\n        /* \"#utility.yul\":11974:11986   */\n      add\n        /* \"#utility.yul\":11967:11986   */\n      swap1\n      pop\n        /* \"#utility.yul\":11626:11992   */\n      swap2\n      swap1\n      pop\n      jump\t// out\n        /* \"#utility.yul\":11998:12417   */\n    tag_169:\n        /* \"#utility.yul\":12164:12168   */\n      0x00\n        /* \"#utility.yul\":12202:12204   */\n      0x20\n        /* \"#utility.yul\":12191:12200   */\n      dup3\n        /* \"#utility.yul\":12187:12205   */\n      add\n        /* \"#utility.yul\":12179:12205   */\n      swap1\n      pop\n        /* \"#utility.yul\":12251:12260   */\n      dup2\n        /* \"#utility.yul\":12245:12249   */\n      dup2\n        /* \"#utility.yul\":12241:12261   */\n      sub\n        /* \"#utility.yul\":12237:12238   */\n      0x00\n        /* \"#utility.yul\":12226:12235   */\n      dup4\n        /* \"#utility.yul\":12222:12239   */\n      add\n        /* \"#utility.yul\":12215:12262   */\n      mstore\n        /* \"#utility.yul\":12279:12410   */\n      tag_643\n        /* \"#utility.yul\":12405:12409   */\n      dup2\n        /* \"#utility.yul\":12279:12410   */\n      tag_467\n      jump\t// in\n    tag_643:\n        /* \"#utility.yul\":12271:12410   */\n      swap1\n      pop\n        /* \"#utility.yul\":11998:12417   */\n      swap2\n      swap1\n      pop\n      jump\t// out\n        /* \"#utility.yul\":12423:12596   */\n    tag_468:\n        /* \"#utility.yul\":12563:12588   */\n      0x43616c6c6572206973206e6f7420746865206f776e6572000000000000000000\n        /* \"#utility.yul\":12559:12560   */\n      0x00\n        /* \"#utility.yul\":12551:12557   */\n      dup3\n        /* \"#utility.yul\":12547:12561   */\n      add\n        /* \"#utility.yul\":12540:12589   */\n      mstore\n        /* \"#utility.yul\":12423:12596   */\n      pop\n      jump\t// out\n        /* \"#utility.yul\":12602:12968   */\n    tag_469:\n        /* \"#utility.yul\":12744:12747   */\n      0x00\n        /* \"#utility.yul\":12765:12832   */\n      tag_646\n        /* \"#utility.yul\":12829:12831   */\n      0x17\n        /* \"#utility.yul\":12824:12827   */\n      dup4\n        /* \"#utility.yul\":12765:12832   */\n      tag_430\n      jump\t// in\n    tag_646:\n        /* \"#utility.yul\":12758:12832   */\n      swap2\n      pop\n        /* \"#utility.yul\":12841:12934   */\n      tag_647\n        /* \"#utility.yul\":12930:12933   */\n      dup3\n        /* \"#utility.yul\":12841:12934   */\n      tag_468\n      jump\t// in\n    tag_647:\n        /* \"#utility.yul\":12959:12961   */\n      0x20\n        /* \"#utility.yul\":12954:12957   */\n      dup3\n        /* \"#utility.yul\":12950:12962   */\n      add\n        /* \"#utility.yul\":12943:12962   */\n      swap1\n      pop\n        /* \"#utility.yul\":12602:12968   */\n      swap2\n      swap1\n      pop\n      jump\t// out\n        /* \"#utility.yul\":12974:13393   */\n    tag_188:\n        /* \"#utility.yul\":13140:13144   */\n      0x00\n        /* \"#utility.yul\":13178:13180   */\n      0x20\n        /* \"#utility.yul\":13167:13176   */\n      dup3\n        /* \"#utility.yul\":13163:13181   */\n      add\n        /* \"#utility.yul\":13155:13181   */\n      swap1\n      pop\n        /* \"#utility.yul\":13227:13236   */\n      dup2\n        /* \"#utility.yul\":13221:13225   */\n      dup2\n        /* \"#utility.yul\":13217:13237   */\n      sub\n        /* \"#utility.yul\":13213:13214   */\n      0x00\n        /* \"#utility.yul\":13202:13211   */\n      dup4\n        /* \"#utility.yul\":13198:13215   */\n      add\n        /* \"#utility.yul\":13191:13238   */\n      mstore\n        /* \"#utility.yul\":13255:13386   */\n      tag_649\n        /* \"#utility.yul\":13381:13385   */\n      dup2\n        /* \"#utility.yul\":13255:13386   */\n      tag_469\n      jump\t// in\n    tag_649:\n        /* \"#utility.yul\":13247:13386   */\n      swap1\n      pop\n        /* \"#utility.yul\":12974:13393   */\n      swap2\n      swap1\n      pop\n      jump\t// out\n        /* \"#utility.yul\":13399:13578   */\n    tag_470:\n        /* \"#utility.yul\":13539:13570   */\n      0x52656469732063616e6e6f74206265206d6f7265207468616e2031302e000000\n        /* \"#utility.yul\":13535:13536   */\n      0x00\n        /* \"#utility.yul\":13527:13533   */\n      dup3\n        /* \"#utility.yul\":13523:13537   */\n      add\n        /* \"#utility.yul\":13516:13571   */\n      mstore\n        /* \"#utility.yul\":13399:13578   */\n      pop\n      jump\t// out\n        /* \"#utility.yul\":13584:13950   */\n    tag_471:\n        /* \"#utility.yul\":13726:13729   */\n      0x00\n        /* \"#utility.yul\":13747:13814   */\n      tag_652\n        /* \"#utility.yul\":13811:13813   */\n      0x1d\n        /* \"#utility.yul\":13806:13809   */\n      dup4\n        /* \"#utility.yul\":13747:13814   */\n      tag_430\n      jump\t// in\n    tag_652:\n        /* \"#utility.yul\":13740:13814   */\n      swap2\n      pop\n        /* \"#utility.yul\":13823:13916   */\n      tag_653\n        /* \"#utility.yul\":13912:13915   */\n      dup3\n        /* \"#utility.yul\":13823:13916   */\n      tag_470\n      jump\t// in\n    tag_653:\n        /* \"#utility.yul\":13941:13943   */\n      0x20\n        /* \"#utility.yul\":13936:13939   */\n      dup3\n        /* \"#utility.yul\":13932:13944   */\n      add\n        /* \"#utility.yul\":13925:13944   */\n      swap1\n      pop\n        /* \"#utility.yul\":13584:13950   */\n      swap2\n      swap1\n      pop\n      jump\t// out\n        /* \"#utility.yul\":13956:14375   */\n    tag_210:\n        /* \"#utility.yul\":14122:14126   */\n      0x00\n        /* \"#utility.yul\":14160:14162   */\n      0x20\n        /* \"#utility.yul\":14149:14158   */\n      dup3\n        /* \"#utility.yul\":14145:14163   */\n      add\n        /* \"#utility.yul\":14137:14163   */\n      swap1\n      pop\n        /* \"#utility.yul\":14209:14218   */\n      dup2\n        /* \"#utility.yul\":14203:14207   */\n      dup2\n        /* \"#utility.yul\":14199:14219   */\n      sub\n        /* \"#utility.yul\":14195:14196   */\n      0x00\n        /* \"#utility.yul\":14184:14193   */\n      dup4\n        /* \"#utility.yul\":14180:14197   */\n      add\n        /* \"#utility.yul\":14173:14220   */\n      mstore\n        /* \"#utility.yul\":14237:14368   */\n      tag_655\n        /* \"#utility.yul\":14363:14367   */\n      dup2\n        /* \"#utility.yul\":14237:14368   */\n      tag_471\n      jump\t// in\n    tag_655:\n        /* \"#utility.yul\":14229:14368   */\n      swap1\n      pop\n        /* \"#utility.yul\":13956:14375   */\n      swap2\n      swap1\n      pop\n      jump\t// out\n        /* \"#utility.yul\":14381:14557   */\n    tag_472:\n        /* \"#utility.yul\":14521:14549   */\n      0x5461782063616e6e6f74206265206d6f7265207468616e20362e000000000000\n        /* \"#utility.yul\":14517:14518   */\n      0x00\n        /* \"#utility.yul\":14509:14515   */\n      dup3\n        /* \"#utility.yul\":14505:14519   */\n      add\n        /* \"#utility.yul\":14498:14550   */\n      mstore\n        /* \"#utility.yul\":14381:14557   */\n      pop\n      jump\t// out\n        /* \"#utility.yul\":14563:14929   */\n    tag_473:\n        /* \"#utility.yul\":14705:14708   */\n      0x00\n        /* \"#utility.yul\":14726:14793   */\n      tag_658\n        /* \"#utility.yul\":14790:14792   */\n      0x1a\n        /* \"#utility.yul\":14785:14788   */\n      dup4\n        /* \"#utility.yul\":14726:14793   */\n      tag_430\n      jump\t// in\n    tag_658:\n        /* \"#utility.yul\":14719:14793   */\n      swap2\n      pop\n        /* \"#utility.yul\":14802:14895   */\n      tag_659\n        /* \"#utility.yul\":14891:14894   */\n      dup3\n        /* \"#utility.yul\":14802:14895   */\n      tag_472\n      jump\t// in\n    tag_659:\n        /* \"#utility.yul\":14920:14922   */\n      0x20\n        /* \"#utility.yul\":14915:14918   */\n      dup3\n        /* \"#utility.yul\":14911:14923   */\n      add\n        /* \"#utility.yul\":14904:14923   */\n      swap1\n      pop\n        /* \"#utility.yul\":14563:14929   */\n      swap2\n      swap1\n      pop\n      jump\t// out\n        /* \"#utility.yul\":14935:15354   */\n    tag_215:\n        /* \"#utility.yul\":15101:15105   */\n      0x00\n        /* \"#utility.yul\":15139:15141   */\n      0x20\n        /* \"#utility.yul\":15128:15137   */\n      dup3\n        /* \"#utility.yul\":15124:15142   */\n      add\n        /* \"#utility.yul\":15116:15142   */\n      swap1\n      pop\n        /* \"#utility.yul\":15188:15197   */\n      dup2\n        /* \"#utility.yul\":15182:15186   */\n      dup2\n        /* \"#utility.yul\":15178:15198   */\n      sub\n        /* \"#utility.yul\":15174:15175   */\n      0x00\n        /* \"#utility.yul\":15163:15172   */\n      dup4\n        /* \"#utility.yul\":15159:15176   */\n      add\n        /* \"#utility.yul\":15152:15199   */\n      mstore\n        /* \"#utility.yul\":15216:15347   */\n      tag_661\n        /* \"#utility.yul\":15342:15346   */\n      dup2\n        /* \"#utility.yul\":15216:15347   */\n      tag_473\n      jump\t// in\n    tag_661:\n        /* \"#utility.yul\":15208:15347   */\n      swap1\n      pop\n        /* \"#utility.yul\":14935:15354   */\n      swap2\n      swap1\n      pop\n      jump\t// out\n        /* \"#utility.yul\":15360:15540   */\n    tag_250:\n        /* \"#utility.yul\":15408:15485   */\n      0x4e487b7100000000000000000000000000000000000000000000000000000000\n        /* \"#utility.yul\":15405:15406   */\n      0x00\n        /* \"#utility.yul\":15398:15486   */\n      mstore\n        /* \"#utility.yul\":15505:15509   */\n      0x32\n        /* \"#utility.yul\":15502:15503   */\n      0x04\n        /* \"#utility.yul\":15495:15510   */\n      mstore\n        /* \"#utility.yul\":15529:15533   */\n      0x24\n        /* \"#utility.yul\":15526:15527   */\n      0x00\n        /* \"#utility.yul\":15519:15534   */\n      revert\n        /* \"#utility.yul\":15546:15726   */\n    tag_474:\n        /* \"#utility.yul\":15594:15671   */\n      0x4e487b7100000000000000000000000000000000000000000000000000000000\n        /* \"#utility.yul\":15591:15592   */\n      0x00\n        /* \"#utility.yul\":15584:15672   */\n      mstore\n        /* \"#utility.yul\":15691:15695   */\n      0x11\n        /* \"#utility.yul\":15688:15689   */\n      0x04\n        /* \"#utility.yul\":15681:15696   */\n      mstore\n        /* \"#utility.yul\":15715:15719   */\n      0x24\n        /* \"#utility.yul\":15712:15713   */\n      0x00\n        /* \"#utility.yul\":15705:15720   */\n      revert\n        /* \"#utility.yul\":15732:15965   */\n    tag_253:\n        /* \"#utility.yul\":15771:15774   */\n      0x00\n        /* \"#utility.yul\":15794:15818   */\n      tag_665\n        /* \"#utility.yul\":15812:15817   */\n      dup3\n        /* \"#utility.yul\":15794:15818   */\n      tag_441\n      jump\t// in\n    tag_665:\n        /* \"#utility.yul\":15785:15818   */\n      swap2\n      pop\n        /* \"#utility.yul\":15840:15906   */\n      0xffffffffffffffffffffffffffffffffffffffffffffffffffffffffffffffff\n        /* \"#utility.yul\":15833:15838   */\n      dup3\n        /* \"#utility.yul\":15830:15907   */\n      sub\n        /* \"#utility.yul\":15827:15930   */\n      tag_666\n      jumpi\n        /* \"#utility.yul\":15910:15928   */\n      tag_667\n      tag_474\n      jump\t// in\n    tag_667:\n        /* \"#utility.yul\":15827:15930   */\n    tag_666:\n        /* \"#utility.yul\":15957:15958   */\n      0x01\n        /* \"#utility.yul\":15950:15955   */\n      dup3\n        /* \"#utility.yul\":15946:15959   */\n      add\n        /* \"#utility.yul\":15939:15959   */\n      swap1\n      pop\n        /* \"#utility.yul\":15732:15965   */\n      swap2\n      swap1\n      pop\n      jump\t// out\n        /* \"#utility.yul\":15971:16303   */\n    tag_265:\n        /* \"#utility.yul\":16092:16096   */\n      0x00\n        /* \"#utility.yul\":16130:16132   */\n      0x40\n        /* \"#utility.yul\":16119:16128   */\n      dup3\n        /* \"#utility.yul\":16115:16133   */\n      add\n        /* \"#utility.yul\":16107:16133   */\n      swap1\n      pop\n        /* \"#utility.yul\":16143:16214   */\n      tag_669\n        /* \"#utility.yul\":16211:16212   */\n      0x00\n        /* \"#utility.yul\":16200:16209   */\n      dup4\n        /* \"#utility.yul\":16196:16213   */\n      add\n        /* \"#utility.yul\":16187:16193   */\n      dup6\n        /* \"#utility.yul\":16143:16214   */\n      tag_454\n      jump\t// in\n    tag_669:\n        /* \"#utility.yul\":16224:16296   */\n      tag_670\n        /* \"#utility.yul\":16292:16294   */\n      0x20\n        /* \"#utility.yul\":16281:16290   */\n      dup4\n        /* \"#utility.yul\":16277:16295   */\n      add\n        /* \"#utility.yul\":16268:16274   */\n      dup5\n        /* \"#utility.yul\":16224:16296   */\n      tag_451\n      jump\t// in\n    tag_670:\n        /* \"#utility.yul\":15971:16303   */\n      swap4\n      swap3\n      pop\n      pop\n      pop\n      jump\t// out\n        /* \"#utility.yul\":16309:16446   */\n    tag_475:\n        /* \"#utility.yul\":16363:16368   */\n      0x00\n        /* \"#utility.yul\":16394:16400   */\n      dup2\n        /* \"#utility.yul\":16388:16401   */\n      mload\n        /* \"#utility.yul\":16379:16401   */\n      swap1\n      pop\n        /* \"#utility.yul\":16410:16440   */\n      tag_672\n        /* \"#utility.yul\":16434:16439   */\n      dup2\n        /* \"#utility.yul\":16410:16440   */\n      tag_457\n      jump\t// in\n    tag_672:\n        /* \"#utility.yul\":16309:16446   */\n      swap3\n      swap2\n      pop\n      pop\n      jump\t// out\n        /* \"#utility.yul\":16452:16797   */\n    tag_269:\n        /* \"#utility.yul\":16519:16525   */\n      0x00\n        /* \"#utility.yul\":16568:16570   */\n      0x20\n        /* \"#utility.yul\":16556:16565   */\n      dup3\n        /* \"#utility.yul\":16547:16554   */\n      dup5\n        /* \"#utility.yul\":16543:16566   */\n      sub\n        /* \"#utility.yul\":16539:16571   */\n      slt\n        /* \"#utility.yul\":16536:16655   */\n      iszero\n      tag_674\n      jumpi\n        /* \"#utility.yul\":16574:16653   */\n      tag_675\n      tag_435\n      jump\t// in\n    tag_675:\n        /* \"#utility.yul\":16536:16655   */\n    tag_674:\n        /* \"#utility.yul\":16694:16695   */\n      0x00\n        /* \"#utility.yul\":16719:16780   */\n      tag_676\n        /* \"#utility.yul\":16772:16779   */\n      dup5\n        /* \"#utility.yul\":16763:16769   */\n      dup3\n        /* \"#utility.yul\":16752:16761   */\n      dup6\n        /* \"#utility.yul\":16748:16770   */\n      add\n        /* \"#utility.yul\":16719:16780   */\n      tag_475\n      jump\t// in\n    tag_676:\n        /* \"#utility.yul\":16709:16780   */\n      swap2\n      pop\n        /* \"#utility.yul\":16665:16790   */\n      pop\n        /* \"#utility.yul\":16452:16797   */\n      swap3\n      swap2\n      pop\n      pop\n      jump\t// out\n        /* \"#utility.yul\":16803:17026   */\n    tag_476:\n        /* \"#utility.yul\":16943:16977   */\n      0x45524332303a20617070726f76652066726f6d20746865207a65726f20616464\n        /* \"#utility.yul\":16939:16940   */\n      0x00\n        /* \"#utility.yul\":16931:16937   */\n      dup3\n        /* \"#utility.yul\":16927:16941   */\n      add\n        /* \"#utility.yul\":16920:16978   */\n      mstore\n        /* \"#utility.yul\":17012:17018   */\n      0x7265737300000000000000000000000000000000000000000000000000000000\n        /* \"#utility.yul\":17007:17009   */\n      0x20\n        /* \"#utility.yul\":16999:17005   */\n      dup3\n        /* \"#utility.yul\":16995:17010   */\n      add\n        /* \"#utility.yul\":16988:17019   */\n      mstore\n        /* \"#utility.yul\":16803:17026   */\n      pop\n      jump\t// out\n        /* \"#utility.yul\":17032:17398   */\n    tag_477:\n        /* \"#utility.yul\":17174:17177   */\n      0x00\n        /* \"#utility.yul\":17195:17262   */\n      tag_679\n        /* \"#utility.yul\":17259:17261   */\n      0x24\n        /* \"#utility.yul\":17254:17257   */\n      dup4\n        /* \"#utility.yul\":17195:17262   */\n      tag_430\n      jump\t// in\n    tag_679:\n        /* \"#utility.yul\":17188:17262   */\n      swap2\n      pop\n        /* \"#utility.yul\":17271:17364   */\n      tag_680\n        /* \"#utility.yul\":17360:17363   */\n      dup3\n        /* \"#utility.yul\":17271:17364   */\n      tag_476\n      jump\t// in\n    tag_680:\n        /* \"#utility.yul\":17389:17391   */\n      0x40\n        /* \"#utility.yul\":17384:17387   */\n      dup3\n        /* \"#utility.yul\":17380:17392   */\n      add\n        /* \"#utility.yul\":17373:17392   */\n      swap1\n      pop\n        /* \"#utility.yul\":17032:17398   */\n      swap2\n      swap1\n      pop\n      jump\t// out\n        /* \"#utility.yul\":17404:17823   */\n    tag_279:\n        /* \"#utility.yul\":17570:17574   */\n      0x00\n        /* \"#utility.yul\":17608:17610   */\n      0x20\n        /* \"#utility.yul\":17597:17606   */\n      dup3\n        /* \"#utility.yul\":17593:17611   */\n      add\n        /* \"#utility.yul\":17585:17611   */\n      swap1\n      pop\n        /* \"#utility.yul\":17657:17666   */\n      dup2\n        /* \"#utility.yul\":17651:17655   */\n      dup2\n        /* \"#utility.yul\":17647:17667   */\n      sub\n        /* \"#utility.yul\":17643:17644   */\n      0x00\n        /* \"#utility.yul\":17632:17641   */\n      dup4\n        /* \"#utility.yul\":17628:17645   */\n      add\n        /* \"#utility.yul\":17621:17668   */\n      mstore\n        /* \"#utility.yul\":17685:17816   */\n      tag_682\n        /* \"#utility.yul\":17811:17815   */\n      dup2\n        /* \"#utility.yul\":17685:17816   */\n      tag_477\n      jump\t// in\n    tag_682:\n        /* \"#utility.yul\":17677:17816   */\n      swap1\n      pop\n        /* \"#utility.yul\":17404:17823   */\n      swap2\n      swap1\n      pop\n      jump\t// out\n        /* \"#utility.yul\":17829:18050   */\n    tag_478:\n        /* \"#utility.yul\":17969:18003   */\n      0x45524332303a20617070726f766520746f20746865207a65726f206164647265\n        /* \"#utility.yul\":17965:17966   */\n      0x00\n        /* \"#utility.yul\":17957:17963   */\n      dup3\n        /* \"#utility.yul\":17953:17967   */\n      add\n        /* \"#utility.yul\":17946:18004   */\n      mstore\n        /* \"#utility.yul\":18038:18042   */\n      0x7373000000000000000000000000000000000000000000000000000000000000\n        /* \"#utility.yul\":18033:18035   */\n      0x20\n        /* \"#utility.yul\":18025:18031   */\n      dup3\n        /* \"#utility.yul\":18021:18036   */\n      add\n        /* \"#utility.yul\":18014:18043   */\n      mstore\n        /* \"#utility.yul\":17829:18050   */\n      pop\n      jump\t// out\n        /* \"#utility.yul\":18056:18422   */\n    tag_479:\n        /* \"#utility.yul\":18198:18201   */\n      0x00\n        /* \"#utility.yul\":18219:18286   */\n      tag_685\n        /* \"#utility.yul\":18283:18285   */\n      0x22\n        /* \"#utility.yul\":18278:18281   */\n      dup4\n        /* \"#utility.yul\":18219:18286   */\n      tag_430\n      jump\t// in\n    tag_685:\n        /* \"#utility.yul\":18212:18286   */\n      swap2\n      pop\n        /* \"#utility.yul\":18295:18388   */\n      tag_686\n        /* \"#utility.yul\":18384:18387   */\n      dup3\n        /* \"#utility.yul\":18295:18388   */\n      tag_478\n      jump\t// in\n    tag_686:\n        /* \"#utility.yul\":18413:18415   */\n      0x40\n        /* \"#utility.yul\":18408:18411   */\n      dup3\n        /* \"#utility.yul\":18404:18416   */\n      add\n        /* \"#utility.yul\":18397:18416   */\n      swap1\n      pop\n        /* \"#utility.yul\":18056:18422   */\n      swap2\n      swap1\n      pop\n      jump\t// out\n        /* \"#utility.yul\":18428:18847   */\n    tag_282:\n        /* \"#utility.yul\":18594:18598   */\n      0x00\n        /* \"#utility.yul\":18632:18634   */\n      0x20\n        /* \"#utility.yul\":18621:18630   */\n      dup3\n        /* \"#utility.yul\":18617:18635   */\n      add\n        /* \"#utility.yul\":18609:18635   */\n      swap1\n      pop\n        /* \"#utility.yul\":18681:18690   */\n      dup2\n        /* \"#utility.yul\":18675:18679   */\n      dup2\n        /* \"#utility.yul\":18671:18691   */\n      sub\n        /* \"#utility.yul\":18667:18668   */\n      0x00\n        /* \"#utility.yul\":18656:18665   */\n      dup4\n        /* \"#utility.yul\":18652:18669   */\n      add\n        /* \"#utility.yul\":18645:18692   */\n      mstore\n        /* \"#utility.yul\":18709:18840   */\n      tag_688\n        /* \"#utility.yul\":18835:18839   */\n      dup2\n        /* \"#utility.yul\":18709:18840   */\n      tag_479\n      jump\t// in\n    tag_688:\n        /* \"#utility.yul\":18701:18840   */\n      swap1\n      pop\n        /* \"#utility.yul\":18428:18847   */\n      swap2\n      swap1\n      pop\n      jump\t// out\n        /* \"#utility.yul\":18853:19077   */\n    tag_480:\n        /* \"#utility.yul\":18993:19027   */\n      0x45524332303a207472616e736665722066726f6d20746865207a65726f206164\n        /* \"#utility.yul\":18989:18990   */\n      0x00\n        /* \"#utility.yul\":18981:18987   */\n      dup3\n        /* \"#utility.yul\":18977:18991   */\n      add\n        /* \"#utility.yul\":18970:19028   */\n      mstore\n        /* \"#utility.yul\":19062:19069   */\n      0x6472657373000000000000000000000000000000000000000000000000000000\n        /* \"#utility.yul\":19057:19059   */\n      0x20\n        /* \"#utility.yul\":19049:19055   */\n      dup3\n        /* \"#utility.yul\":19045:19060   */\n      add\n        /* \"#utility.yul\":19038:19070   */\n      mstore\n        /* \"#utility.yul\":18853:19077   */\n      pop\n      jump\t// out\n        /* \"#utility.yul\":19083:19449   */\n    tag_481:\n        /* \"#utility.yul\":19225:19228   */\n      0x00\n        /* \"#utility.yul\":19246:19313   */\n      tag_691\n        /* \"#utility.yul\":19310:19312   */\n      0x25\n        /* \"#utility.yul\":19305:19308   */\n      dup4\n        /* \"#utility.yul\":19246:19313   */\n      tag_430\n      jump\t// in\n    tag_691:\n        /* \"#utility.yul\":19239:19313   */\n      swap2\n      pop\n        /* \"#utility.yul\":19322:19415   */\n      tag_692\n        /* \"#utility.yul\":19411:19414   */\n      dup3\n        /* \"#utility.yul\":19322:19415   */\n      tag_480\n      jump\t// in\n    tag_692:\n        /* \"#utility.yul\":19440:19442   */\n      0x40\n        /* \"#utility.yul\":19435:19438   */\n      dup3\n        /* \"#utility.yul\":19431:19443   */\n      add\n        /* \"#utility.yul\":19424:19443   */\n      swap1\n      pop\n        /* \"#utility.yul\":19083:19449   */\n      swap2\n      swap1\n      pop\n      jump\t// out\n        /* \"#utility.yul\":19455:19874   */\n    tag_287:\n        /* \"#utility.yul\":19621:19625   */\n      0x00\n        /* \"#utility.yul\":19659:19661   */\n      0x20\n        /* \"#utility.yul\":19648:19657   */\n      dup3\n        /* \"#utility.yul\":19644:19662   */\n      add\n        /* \"#utility.yul\":19636:19662   */\n      swap1\n      pop\n        /* \"#utility.yul\":19708:19717   */\n      dup2\n        /* \"#utility.yul\":19702:19706   */\n      dup2\n        /* \"#utility.yul\":19698:19718   */\n      sub\n        /* \"#utility.yul\":19694:19695   */\n      0x00\n        /* \"#utility.yul\":19683:19692   */\n      dup4\n        /* \"#utility.yul\":19679:19696   */\n      add\n        /* \"#utility.yul\":19672:19719   */\n      mstore\n        /* \"#utility.yul\":19736:19867   */\n      tag_694\n        /* \"#utility.yul\":19862:19866   */\n      dup2\n        /* \"#utility.yul\":19736:19867   */\n      tag_481\n      jump\t// in\n    tag_694:\n        /* \"#utility.yul\":19728:19867   */\n      swap1\n      pop\n        /* \"#utility.yul\":19455:19874   */\n      swap2\n      swap1\n      pop\n      jump\t// out\n        /* \"#utility.yul\":19880:20102   */\n    tag_482:\n        /* \"#utility.yul\":20020:20054   */\n      0x45524332303a207472616e7366657220746f20746865207a65726f2061646472\n        /* \"#utility.yul\":20016:20017   */\n      0x00\n        /* \"#utility.yul\":20008:20014   */\n      dup3\n        /* \"#utility.yul\":20004:20018   */\n      add\n        /* \"#utility.yul\":19997:20055   */\n      mstore\n        /* \"#utility.yul\":20089:20094   */\n      0x6573730000000000000000000000000000000000000000000000000000000000\n        /* \"#utility.yul\":20084:20086   */\n      0x20\n        /* \"#utility.yul\":20076:20082   */\n      dup3\n        /* \"#utility.yul\":20072:20087   */\n      add\n        /* \"#utility.yul\":20065:20095   */\n      mstore\n        /* \"#utility.yul\":19880:20102   */\n      pop\n      jump\t// out\n        /* \"#utility.yul\":20108:20474   */\n    tag_483:\n        /* \"#utility.yul\":20250:20253   */\n      0x00\n        /* \"#utility.yul\":20271:20338   */\n      tag_697\n        /* \"#utility.yul\":20335:20337   */\n      0x23\n        /* \"#utility.yul\":20330:20333   */\n      dup4\n        /* \"#utility.yul\":20271:20338   */\n      tag_430\n      jump\t// in\n    tag_697:\n        /* \"#utility.yul\":20264:20338   */\n      swap2\n      pop\n        /* \"#utility.yul\":20347:20440   */\n      tag_698\n        /* \"#utility.yul\":20436:20439   */\n      dup3\n        /* \"#utility.yul\":20347:20440   */\n      tag_482\n      jump\t// in\n    tag_698:\n        /* \"#utility.yul\":20465:20467   */\n      0x40\n        /* \"#utility.yul\":20460:20463   */\n      dup3\n        /* \"#utility.yul\":20456:20468   */\n      add\n        /* \"#utility.yul\":20449:20468   */\n      swap1\n      pop\n        /* \"#utility.yul\":20108:20474   */\n      swap2\n      swap1\n      pop\n      jump\t// out\n        /* \"#utility.yul\":20480:20899   */\n    tag_290:\n        /* \"#utility.yul\":20646:20650   */\n      0x00\n        /* \"#utility.yul\":20684:20686   */\n      0x20\n        /* \"#utility.yul\":20673:20682   */\n      dup3\n        /* \"#utility.yul\":20669:20687   */\n      add\n        /* \"#utility.yul\":20661:20687   */\n      swap1\n      pop\n        /* \"#utility.yul\":20733:20742   */\n      dup2\n        /* \"#utility.yul\":20727:20731   */\n      dup2\n        /* \"#utility.yul\":20723:20743   */\n      sub\n        /* \"#utility.yul\":20719:20720   */\n      0x00\n        /* \"#utility.yul\":20708:20717   */\n      dup4\n        /* \"#utility.yul\":20704:20721   */\n      add\n        /* \"#utility.yul\":20697:20744   */\n      mstore\n        /* \"#utility.yul\":20761:20892   */\n      tag_700\n        /* \"#utility.yul\":20887:20891   */\n      dup2\n        /* \"#utility.yul\":20761:20892   */\n      tag_483\n      jump\t// in\n    tag_700:\n        /* \"#utility.yul\":20753:20892   */\n      swap1\n      pop\n        /* \"#utility.yul\":20480:20899   */\n      swap2\n      swap1\n      pop\n      jump\t// out\n        /* \"#utility.yul\":20905:21133   */\n    tag_484:\n        /* \"#utility.yul\":21045:21079   */\n      0x5472616e7366657220616d6f756e74206d757374206265206772656174657220\n        /* \"#utility.yul\":21041:21042   */\n      0x00\n        /* \"#utility.yul\":21033:21039   */\n      dup3\n        /* \"#utility.yul\":21029:21043   */\n      add\n        /* \"#utility.yul\":21022:21080   */\n      mstore\n        /* \"#utility.yul\":21114:21125   */\n      0x7468616e207a65726f0000000000000000000000000000000000000000000000\n        /* \"#utility.yul\":21109:21111   */\n      0x20\n        /* \"#utility.yul\":21101:21107   */\n      dup3\n        /* \"#utility.yul\":21097:21112   */\n      add\n        /* \"#utility.yul\":21090:21126   */\n      mstore\n        /* \"#utility.yul\":20905:21133   */\n      pop\n      jump\t// out\n        /* \"#utility.yul\":21139:21505   */\n    tag_485:\n        /* \"#utility.yul\":21281:21284   */\n      0x00\n        /* \"#utility.yul\":21302:21369   */\n      tag_703\n        /* \"#utility.yul\":21366:21368   */\n      0x29\n        /* \"#utility.yul\":21361:21364   */\n      dup4\n        /* \"#utility.yul\":21302:21369   */\n      tag_430\n      jump\t// in\n    tag_703:\n        /* \"#utility.yul\":21295:21369   */\n      swap2\n      pop\n        /* \"#utility.yul\":21378:21471   */\n      tag_704\n        /* \"#utility.yul\":21467:21470   */\n      dup3\n        /* \"#utility.yul\":21378:21471   */\n      tag_484\n      jump\t// in\n    tag_704:\n        /* \"#utility.yul\":21496:21498   */\n      0x40\n        /* \"#utility.yul\":21491:21494   */\n      dup3\n        /* \"#utility.yul\":21487:21499   */\n      add\n        /* \"#utility.yul\":21480:21499   */\n      swap1\n      pop\n        /* \"#utility.yul\":21139:21505   */\n      swap2\n      swap1\n      pop\n      jump\t// out\n        /* \"#utility.yul\":21511:21930   */\n    tag_293:\n        /* \"#utility.yul\":21677:21681   */\n      0x00\n        /* \"#utility.yul\":21715:21717   */\n      0x20\n        /* \"#utility.yul\":21704:21713   */\n      dup3\n        /* \"#utility.yul\":21700:21718   */\n      add\n        /* \"#utility.yul\":21692:21718   */\n      swap1\n      pop\n        /* \"#utility.yul\":21764:21773   */\n      dup2\n        /* \"#utility.yul\":21758:21762   */\n      dup2\n        /* \"#utility.yul\":21754:21774   */\n      sub\n        /* \"#utility.yul\":21750:21751   */\n      0x00\n        /* \"#utility.yul\":21739:21748   */\n      dup4\n        /* \"#utility.yul\":21735:21752   */\n      add\n        /* \"#utility.yul\":21728:21775   */\n      mstore\n        /* \"#utility.yul\":21792:21923   */\n      tag_706\n        /* \"#utility.yul\":21918:21922   */\n      dup2\n        /* \"#utility.yul\":21792:21923   */\n      tag_485\n      jump\t// in\n    tag_706:\n        /* \"#utility.yul\":21784:21923   */\n      swap1\n      pop\n        /* \"#utility.yul\":21511:21930   */\n      swap2\n      swap1\n      pop\n      jump\t// out\n        /* \"#utility.yul\":21936:22127   */\n    tag_320:\n        /* \"#utility.yul\":21976:21980   */\n      0x00\n        /* \"#utility.yul\":21996:22016   */\n      tag_708\n        /* \"#utility.yul\":22014:22015   */\n      dup3\n        /* \"#utility.yul\":21996:22016   */\n      tag_441\n      jump\t// in\n    tag_708:\n        /* \"#utility.yul\":21991:22016   */\n      swap2\n      pop\n        /* \"#utility.yul\":22030:22050   */\n      tag_709\n        /* \"#utility.yul\":22048:22049   */\n      dup4\n        /* \"#utility.yul\":22030:22050   */\n      tag_441\n      jump\t// in\n    tag_709:\n        /* \"#utility.yul\":22025:22050   */\n      swap3\n      pop\n        /* \"#utility.yul\":22069:22070   */\n      dup3\n        /* \"#utility.yul\":22066:22067   */\n      dup3\n        /* \"#utility.yul\":22063:22071   */\n      lt\n        /* \"#utility.yul\":22060:22094   */\n      iszero\n      tag_710\n      jumpi\n        /* \"#utility.yul\":22074:22092   */\n      tag_711\n      tag_474\n      jump\t// in\n    tag_711:\n        /* \"#utility.yul\":22060:22094   */\n    tag_710:\n        /* \"#utility.yul\":22119:22120   */\n      dup3\n        /* \"#utility.yul\":22116:22117   */\n      dup3\n        /* \"#utility.yul\":22112:22121   */\n      sub\n        /* \"#utility.yul\":22104:22121   */\n      swap1\n      pop\n        /* \"#utility.yul\":21936:22127   */\n      swap3\n      swap2\n      pop\n      pop\n      jump\t// out\n        /* \"#utility.yul\":22133:22362   */\n    tag_486:\n        /* \"#utility.yul\":22273:22307   */\n      0x416d6f756e74206d757374206265206c657373207468616e20746f74616c2072\n        /* \"#utility.yul\":22269:22270   */\n      0x00\n        /* \"#utility.yul\":22261:22267   */\n      dup3\n        /* \"#utility.yul\":22257:22271   */\n      add\n        /* \"#utility.yul\":22250:22308   */\n      mstore\n        /* \"#utility.yul\":22342:22354   */\n      0x65666c656374696f6e7300000000000000000000000000000000000000000000\n        /* \"#utility.yul\":22337:22339   */\n      0x20\n        /* \"#utility.yul\":22329:22335   */\n      dup3\n        /* \"#utility.yul\":22325:22340   */\n      add\n        /* \"#utility.yul\":22318:22355   */\n      mstore\n        /* \"#utility.yul\":22133:22362   */\n      pop\n      jump\t// out\n        /* \"#utility.yul\":22368:22734   */\n    tag_487:\n        /* \"#utility.yul\":22510:22513   */\n      0x00\n        /* \"#utility.yul\":22531:22598   */\n      tag_714\n        /* \"#utility.yul\":22595:22597   */\n      0x2a\n        /* \"#utility.yul\":22590:22593   */\n      dup4\n        /* \"#utility.yul\":22531:22598   */\n      tag_430\n      jump\t// in\n    tag_714:\n        /* \"#utility.yul\":22524:22598   */\n      swap2\n      pop\n        /* \"#utility.yul\":22607:22700   */\n      tag_715\n        /* \"#utility.yul\":22696:22699   */\n      dup3\n        /* \"#utility.yul\":22607:22700   */\n      tag_486\n      jump\t// in\n    tag_715:\n        /* \"#utility.yul\":22725:22727   */\n      0x40\n        /* \"#utility.yul\":22720:22723   */\n      dup3\n        /* \"#utility.yul\":22716:22728   */\n      add\n        /* \"#utility.yul\":22709:22728   */\n      swap1\n      pop\n        /* \"#utility.yul\":22368:22734   */\n      swap2\n      swap1\n      pop\n      jump\t// out\n        /* \"#utility.yul\":22740:23159   */\n    tag_332:\n        /* \"#utility.yul\":22906:22910   */\n      0x00\n        /* \"#utility.yul\":22944:22946   */\n      0x20\n        /* \"#utility.yul\":22933:22942   */\n      dup3\n        /* \"#utility.yul\":22929:22947   */\n      add\n        /* \"#utility.yul\":22921:22947   */\n      swap1\n      pop\n        /* \"#utility.yul\":22993:23002   */\n      dup2\n        /* \"#utility.yul\":22987:22991   */\n      dup2\n        /* \"#utility.yul\":22983:23003   */\n      sub\n        /* \"#utility.yul\":22979:22980   */\n      0x00\n        /* \"#utility.yul\":22968:22977   */\n      dup4\n        /* \"#utility.yul\":22964:22981   */\n      add\n        /* \"#utility.yul\":22957:23004   */\n      mstore\n        /* \"#utility.yul\":23021:23152   */\n      tag_717\n        /* \"#utility.yul\":23147:23151   */\n      dup2\n        /* \"#utility.yul\":23021:23152   */\n      tag_487\n      jump\t// in\n    tag_717:\n        /* \"#utility.yul\":23013:23152   */\n      swap1\n      pop\n        /* \"#utility.yul\":22740:23159   */\n      swap2\n      swap1\n      pop\n      jump\t// out\n        /* \"#utility.yul\":23165:23345   */\n    tag_340:\n        /* \"#utility.yul\":23213:23290   */\n      0x4e487b7100000000000000000000000000000000000000000000000000000000\n        /* \"#utility.yul\":23210:23211   */\n      0x00\n        /* \"#utility.yul\":23203:23291   */\n      mstore\n        /* \"#utility.yul\":23310:23314   */\n      0x41\n        /* \"#utility.yul\":23307:23308   */\n      0x04\n        /* \"#utility.yul\":23300:23315   */\n      mstore\n        /* \"#utility.yul\":23334:23338   */\n      0x24\n        /* \"#utility.yul\":23331:23332   */\n      0x00\n        /* \"#utility.yul\":23324:23339   */\n      revert\n        /* \"#utility.yul\":23351:23494   */\n    tag_488:\n        /* \"#utility.yul\":23408:23413   */\n      0x00\n        /* \"#utility.yul\":23439:23445   */\n      dup2\n        /* \"#utility.yul\":23433:23446   */\n      mload\n        /* \"#utility.yul\":23424:23446   */\n      swap1\n      pop\n        /* \"#utility.yul\":23455:23488   */\n      tag_720\n        /* \"#utility.yul\":23482:23487   */\n      dup2\n        /* \"#utility.yul\":23455:23488   */\n      tag_439\n      jump\t// in\n    tag_720:\n        /* \"#utility.yul\":23351:23494   */\n      swap3\n      swap2\n      pop\n      pop\n      jump\t// out\n        /* \"#utility.yul\":23500:23851   */\n    tag_347:\n        /* \"#utility.yul\":23570:23576   */\n      0x00\n        /* \"#utility.yul\":23619:23621   */\n      0x20\n        /* \"#utility.yul\":23607:23616   */\n      dup3\n        /* \"#utility.yul\":23598:23605   */\n      dup5\n        /* \"#utility.yul\":23594:23617   */\n      sub\n        /* \"#utility.yul\":23590:23622   */\n      slt\n        /* \"#utility.yul\":23587:23706   */\n      iszero\n      tag_722\n      jumpi\n        /* \"#utility.yul\":23625:23704   */\n      tag_723\n      tag_435\n      jump\t// in\n    tag_723:\n        /* \"#utility.yul\":23587:23706   */\n    tag_722:\n        /* \"#utility.yul\":23745:23746   */\n      0x00\n        /* \"#utility.yul\":23770:23834   */\n      tag_724\n        /* \"#utility.yul\":23826:23833   */\n      dup5\n        /* \"#utility.yul\":23817:23823   */\n      dup3\n        /* \"#utility.yul\":23806:23815   */\n      dup6\n        /* \"#utility.yul\":23802:23824   */\n      add\n        /* \"#utility.yul\":23770:23834   */\n      tag_488\n      jump\t// in\n    tag_724:\n        /* \"#utility.yul\":23760:23834   */\n      swap2\n      pop\n        /* \"#utility.yul\":23716:23844   */\n      pop\n        /* \"#utility.yul\":23500:23851   */\n      swap3\n      swap2\n      pop\n      pop\n      jump\t// out\n        /* \"#utility.yul\":23857:23942   */\n    tag_489:\n        /* \"#utility.yul\":23902:23909   */\n      0x00\n        /* \"#utility.yul\":23931:23936   */\n      dup2\n        /* \"#utility.yul\":23920:23936   */\n      swap1\n      pop\n        /* \"#utility.yul\":23857:23942   */\n      swap2\n      swap1\n      pop\n      jump\t// out\n        /* \"#utility.yul\":23948:24106   */\n    tag_490:\n        /* \"#utility.yul\":24006:24015   */\n      0x00\n        /* \"#utility.yul\":24039:24100   */\n      tag_727\n        /* \"#utility.yul\":24057:24099   */\n      tag_728\n        /* \"#utility.yul\":24066:24098   */\n      tag_729\n        /* \"#utility.yul\":24092:24097   */\n      dup5\n        /* \"#utility.yul\":24066:24098   */\n      tag_489\n      jump\t// in\n    tag_729:\n        /* \"#utility.yul\":24057:24099   */\n      tag_446\n      jump\t// in\n    tag_728:\n        /* \"#utility.yul\":24039:24100   */\n      tag_441\n      jump\t// in\n    tag_727:\n        /* \"#utility.yul\":24026:24100   */\n      swap1\n      pop\n        /* \"#utility.yul\":23948:24106   */\n      swap2\n      swap1\n      pop\n      jump\t// out\n        /* \"#utility.yul\":24112:24259   */\n    tag_491:\n        /* \"#utility.yul\":24207:24252   */\n      tag_731\n        /* \"#utility.yul\":24246:24251   */\n      dup2\n        /* \"#utility.yul\":24207:24252   */\n      tag_490\n      jump\t// in\n    tag_731:\n        /* \"#utility.yul\":24202:24205   */\n      dup3\n        /* \"#utility.yul\":24195:24253   */\n      mstore\n        /* \"#utility.yul\":24112:24259   */\n      pop\n      pop\n      jump\t// out\n        /* \"#utility.yul\":24265:24379   */\n    tag_492:\n        /* \"#utility.yul\":24332:24338   */\n      0x00\n        /* \"#utility.yul\":24366:24371   */\n      dup2\n        /* \"#utility.yul\":24360:24372   */\n      mload\n        /* \"#utility.yul\":24350:24372   */\n      swap1\n      pop\n        /* \"#utility.yul\":24265:24379   */\n      swap2\n      swap1\n      pop\n      jump\t// out\n        /* \"#utility.yul\":24385:24569   */\n    tag_493:\n        /* \"#utility.yul\":24484:24495   */\n      0x00\n        /* \"#utility.yul\":24518:24524   */\n      dup3\n        /* \"#utility.yul\":24513:24516   */\n      dup3\n        /* \"#utility.yul\":24506:24525   */\n      mstore\n        /* \"#utility.yul\":24558:24562   */\n      0x20\n        /* \"#utility.yul\":24553:24556   */\n      dup3\n        /* \"#utility.yul\":24549:24563   */\n      add\n        /* \"#utility.yul\":24534:24563   */\n      swap1\n      pop\n        /* \"#utility.yul\":24385:24569   */\n      swap3\n      swap2\n      pop\n      pop\n      jump\t// out\n        /* \"#utility.yul\":24575:24707   */\n    tag_494:\n        /* \"#utility.yul\":24642:24646   */\n      0x00\n        /* \"#utility.yul\":24665:24668   */\n      dup2\n        /* \"#utility.yul\":24657:24668   */\n      swap1\n      pop\n        /* \"#utility.yul\":24695:24699   */\n      0x20\n        /* \"#utility.yul\":24690:24693   */\n      dup3\n        /* \"#utility.yul\":24686:24700   */\n      add\n        /* \"#utility.yul\":24678:24700   */\n      swap1\n      pop\n        /* \"#utility.yul\":24575:24707   */\n      swap2\n      swap1\n      pop\n      jump\t// out\n        /* \"#utility.yul\":24713:24821   */\n    tag_495:\n        /* \"#utility.yul\":24790:24814   */\n      tag_736\n        /* \"#utility.yul\":24808:24813   */\n      dup2\n        /* \"#utility.yul\":24790:24814   */\n      tag_438\n      jump\t// in\n    tag_736:\n        /* \"#utility.yul\":24785:24788   */\n      dup3\n        /* \"#utility.yul\":24778:24815   */\n      mstore\n        /* \"#utility.yul\":24713:24821   */\n      pop\n      pop\n      jump\t// out\n        /* \"#utility.yul\":24827:25006   */\n    tag_496:\n        /* \"#utility.yul\":24896:24906   */\n      0x00\n        /* \"#utility.yul\":24917:24963   */\n      tag_738\n        /* \"#utility.yul\":24959:24962   */\n      dup4\n        /* \"#utility.yul\":24951:24957   */\n      dup4\n        /* \"#utility.yul\":24917:24963   */\n      tag_495\n      jump\t// in\n    tag_738:\n        /* \"#utility.yul\":24995:24999   */\n      0x20\n        /* \"#utility.yul\":24990:24993   */\n      dup4\n        /* \"#utility.yul\":24986:25000   */\n      add\n        /* \"#utility.yul\":24972:25000   */\n      swap1\n      pop\n        /* \"#utility.yul\":24827:25006   */\n      swap3\n      swap2\n      pop\n      pop\n      jump\t// out\n        /* \"#utility.yul\":25012:25125   */\n    tag_497:\n        /* \"#utility.yul\":25082:25086   */\n      0x00\n        /* \"#utility.yul\":25114:25118   */\n      0x20\n        /* \"#utility.yul\":25109:25112   */\n      dup3\n        /* \"#utility.yul\":25105:25119   */\n      add\n        /* \"#utility.yul\":25097:25119   */\n      swap1\n      pop\n        /* \"#utility.yul\":25012:25125   */\n      swap2\n      swap1\n      pop\n      jump\t// out\n        /* \"#utility.yul\":25161:25893   */\n    tag_498:\n        /* \"#utility.yul\":25280:25283   */\n      0x00\n        /* \"#utility.yul\":25309:25363   */\n      tag_741\n        /* \"#utility.yul\":25357:25362   */\n      dup3\n        /* \"#utility.yul\":25309:25363   */\n      tag_492\n      jump\t// in\n    tag_741:\n        /* \"#utility.yul\":25379:25465   */\n      tag_742\n        /* \"#utility.yul\":25458:25464   */\n      dup2\n        /* \"#utility.yul\":25453:25456   */\n      dup6\n        /* \"#utility.yul\":25379:25465   */\n      tag_493\n      jump\t// in\n    tag_742:\n        /* \"#utility.yul\":25372:25465   */\n      swap4\n      pop\n        /* \"#utility.yul\":25489:25545   */\n      tag_743\n        /* \"#utility.yul\":25539:25544   */\n      dup4\n        /* \"#utility.yul\":25489:25545   */\n      tag_494\n      jump\t// in\n    tag_743:\n        /* \"#utility.yul\":25568:25575   */\n      dup1\n        /* \"#utility.yul\":25599:25600   */\n      0x00\n        /* \"#utility.yul\":25584:25868   */\n    tag_744:\n        /* \"#utility.yul\":25609:25615   */\n      dup4\n        /* \"#utility.yul\":25606:25607   */\n      dup2\n        /* \"#utility.yul\":25603:25616   */\n      lt\n        /* \"#utility.yul\":25584:25868   */\n      iszero\n      tag_746\n      jumpi\n        /* \"#utility.yul\":25685:25691   */\n      dup2\n        /* \"#utility.yul\":25679:25692   */\n      mload\n        /* \"#utility.yul\":25712:25775   */\n      tag_747\n        /* \"#utility.yul\":25771:25774   */\n      dup9\n        /* \"#utility.yul\":25756:25769   */\n      dup3\n        /* \"#utility.yul\":25712:25775   */\n      tag_496\n      jump\t// in\n    tag_747:\n        /* \"#utility.yul\":25705:25775   */\n      swap8\n      pop\n        /* \"#utility.yul\":25798:25858   */\n      tag_748\n        /* \"#utility.yul\":25851:25857   */\n      dup4\n        /* \"#utility.yul\":25798:25858   */\n      tag_497\n      jump\t// in\n    tag_748:\n        /* \"#utility.yul\":25788:25858   */\n      swap3\n      pop\n        /* \"#utility.yul\":25644:25868   */\n      pop\n        /* \"#utility.yul\":25631:25632   */\n      0x01\n        /* \"#utility.yul\":25628:25629   */\n      dup2\n        /* \"#utility.yul\":25624:25633   */\n      add\n        /* \"#utility.yul\":25619:25633   */\n      swap1\n      pop\n        /* \"#utility.yul\":25584:25868   */\n      jump(tag_744)\n    tag_746:\n        /* \"#utility.yul\":25588:25602   */\n      pop\n        /* \"#utility.yul\":25884:25887   */\n      dup6\n        /* \"#utility.yul\":25877:25887   */\n      swap4\n      pop\n        /* \"#utility.yul\":25285:25893   */\n      pop\n      pop\n      pop\n        /* \"#utility.yul\":25161:25893   */\n      swap3\n      swap2\n      pop\n      pop\n      jump\t// out\n        /* \"#utility.yul\":25899:26730   */\n    tag_352:\n        /* \"#utility.yul\":26162:26166   */\n      0x00\n        /* \"#utility.yul\":26200:26203   */\n      0xa0\n        /* \"#utility.yul\":26189:26198   */\n      dup3\n        /* \"#utility.yul\":26185:26204   */\n      add\n        /* \"#utility.yul\":26177:26204   */\n      swap1\n      pop\n        /* \"#utility.yul\":26214:26285   */\n      tag_750\n        /* \"#utility.yul\":26282:26283   */\n      0x00\n        /* \"#utility.yul\":26271:26280   */\n      dup4\n        /* \"#utility.yul\":26267:26284   */\n      add\n        /* \"#utility.yul\":26258:26264   */\n      dup9\n        /* \"#utility.yul\":26214:26285   */\n      tag_451\n      jump\t// in\n    tag_750:\n        /* \"#utility.yul\":26295:26375   */\n      tag_751\n        /* \"#utility.yul\":26371:26373   */\n      0x20\n        /* \"#utility.yul\":26360:26369   */\n      dup4\n        /* \"#utility.yul\":26356:26374   */\n      add\n        /* \"#utility.yul\":26347:26353   */\n      dup8\n        /* \"#utility.yul\":26295:26375   */\n      tag_491\n      jump\t// in\n    tag_751:\n        /* \"#utility.yul\":26422:26431   */\n      dup2\n        /* \"#utility.yul\":26416:26420   */\n      dup2\n        /* \"#utility.yul\":26412:26432   */\n      sub\n        /* \"#utility.yul\":26407:26409   */\n      0x40\n        /* \"#utility.yul\":26396:26405   */\n      dup4\n        /* \"#utility.yul\":26392:26410   */\n      add\n        /* \"#utility.yul\":26385:26433   */\n      mstore\n        /* \"#utility.yul\":26450:26558   */\n      tag_752\n        /* \"#utility.yul\":26553:26557   */\n      dup2\n        /* \"#utility.yul\":26544:26550   */\n      dup7\n        /* \"#utility.yul\":26450:26558   */\n      tag_498\n      jump\t// in\n    tag_752:\n        /* \"#utility.yul\":26442:26558   */\n      swap1\n      pop\n        /* \"#utility.yul\":26568:26640   */\n      tag_753\n        /* \"#utility.yul\":26636:26638   */\n      0x60\n        /* \"#utility.yul\":26625:26634   */\n      dup4\n        /* \"#utility.yul\":26621:26639   */\n      add\n        /* \"#utility.yul\":26612:26618   */\n      dup6\n        /* \"#utility.yul\":26568:26640   */\n      tag_454\n      jump\t// in\n    tag_753:\n        /* \"#utility.yul\":26650:26723   */\n      tag_754\n        /* \"#utility.yul\":26718:26721   */\n      0x80\n        /* \"#utility.yul\":26707:26716   */\n      dup4\n        /* \"#utility.yul\":26703:26722   */\n      add\n        /* \"#utility.yul\":26694:26700   */\n      dup5\n        /* \"#utility.yul\":26650:26723   */\n      tag_451\n      jump\t// in\n    tag_754:\n        /* \"#utility.yul\":25899:26730   */\n      swap7\n      swap6\n      pop\n      pop\n      pop\n      pop\n      pop\n      pop\n      jump\t// out\n        /* \"#utility.yul\":26736:26916   */\n    tag_499:\n        /* \"#utility.yul\":26784:26861   */\n      0x4e487b7100000000000000000000000000000000000000000000000000000000\n        /* \"#utility.yul\":26781:26782   */\n      0x00\n        /* \"#utility.yul\":26774:26862   */\n      mstore\n        /* \"#utility.yul\":26881:26885   */\n      0x12\n        /* \"#utility.yul\":26878:26879   */\n      0x04\n        /* \"#utility.yul\":26871:26886   */\n      mstore\n        /* \"#utility.yul\":26905:26909   */\n      0x24\n        /* \"#utility.yul\":26902:26903   */\n      0x00\n        /* \"#utility.yul\":26895:26910   */\n      revert\n        /* \"#utility.yul\":26922:27107   */\n    tag_382:\n        /* \"#utility.yul\":26962:26963   */\n      0x00\n        /* \"#utility.yul\":26979:26999   */\n      tag_757\n        /* \"#utility.yul\":26997:26998   */\n      dup3\n        /* \"#utility.yul\":26979:26999   */\n      tag_441\n      jump\t// in\n    tag_757:\n        /* \"#utility.yul\":26974:26999   */\n      swap2\n      pop\n        /* \"#utility.yul\":27013:27033   */\n      tag_758\n        /* \"#utility.yul\":27031:27032   */\n      dup4\n        /* \"#utility.yul\":27013:27033   */\n      tag_441\n      jump\t// in\n    tag_758:\n        /* \"#utility.yul\":27008:27033   */\n      swap3\n      pop\n        /* \"#utility.yul\":27052:27053   */\n      dup3\n        /* \"#utility.yul\":27042:27077   */\n      tag_759\n      jumpi\n        /* \"#utility.yul\":27057:27075   */\n      tag_760\n      tag_499\n      jump\t// in\n    tag_760:\n        /* \"#utility.yul\":27042:27077   */\n    tag_759:\n        /* \"#utility.yul\":27099:27100   */\n      dup3\n        /* \"#utility.yul\":27096:27097   */\n      dup3\n        /* \"#utility.yul\":27092:27101   */\n      div\n        /* \"#utility.yul\":27087:27101   */\n      swap1\n      pop\n        /* \"#utility.yul\":26922:27107   */\n      swap3\n      swap2\n      pop\n      pop\n      jump\t// out\n        /* \"#utility.yul\":27113:27418   */\n    tag_396:\n        /* \"#utility.yul\":27153:27156   */\n      0x00\n        /* \"#utility.yul\":27172:27192   */\n      tag_762\n        /* \"#utility.yul\":27190:27191   */\n      dup3\n        /* \"#utility.yul\":27172:27192   */\n      tag_441\n      jump\t// in\n    tag_762:\n        /* \"#utility.yul\":27167:27192   */\n      swap2\n      pop\n        /* \"#utility.yul\":27206:27226   */\n      tag_763\n        /* \"#utility.yul\":27224:27225   */\n      dup4\n        /* \"#utility.yul\":27206:27226   */\n      tag_441\n      jump\t// in\n    tag_763:\n        /* \"#utility.yul\":27201:27226   */\n      swap3\n      pop\n        /* \"#utility.yul\":27360:27361   */\n      dup3\n        /* \"#utility.yul\":27292:27358   */\n      0xffffffffffffffffffffffffffffffffffffffffffffffffffffffffffffffff\n        /* \"#utility.yul\":27288:27362   */\n      sub\n        /* \"#utility.yul\":27285:27286   */\n      dup3\n        /* \"#utility.yul\":27282:27363   */\n      gt\n        /* \"#utility.yul\":27279:27386   */\n      iszero\n      tag_764\n      jumpi\n        /* \"#utility.yul\":27366:27384   */\n      tag_765\n      tag_474\n      jump\t// in\n    tag_765:\n        /* \"#utility.yul\":27279:27386   */\n    tag_764:\n        /* \"#utility.yul\":27410:27411   */\n      dup3\n        /* \"#utility.yul\":27407:27408   */\n      dup3\n        /* \"#utility.yul\":27403:27412   */\n      add\n        /* \"#utility.yul\":27396:27412   */\n      swap1\n      pop\n        /* \"#utility.yul\":27113:27418   */\n      swap3\n      swap2\n      pop\n      pop\n      jump\t// out\n        /* \"#utility.yul\":27424:27601   */\n    tag_500:\n        /* \"#utility.yul\":27564:27593   */\n      0x536166654d6174683a206164646974696f6e206f766572666c6f770000000000\n        /* \"#utility.yul\":27560:27561   */\n      0x00\n        /* \"#utility.yul\":27552:27558   */\n      dup3\n        /* \"#utility.yul\":27548:27562   */\n      add\n        /* \"#utility.yul\":27541:27594   */\n      mstore\n        /* \"#utility.yul\":27424:27601   */\n      pop\n      jump\t// out\n        /* \"#utility.yul\":27607:27973   */\n    tag_501:\n        /* \"#utility.yul\":27749:27752   */\n      0x00\n        /* \"#utility.yul\":27770:27837   */\n      tag_768\n        /* \"#utility.yul\":27834:27836   */\n      0x1b\n        /* \"#utility.yul\":27829:27832   */\n      dup4\n        /* \"#utility.yul\":27770:27837   */\n      tag_430\n      jump\t// in\n    tag_768:\n        /* \"#utility.yul\":27763:27837   */\n      swap2\n      pop\n        /* \"#utility.yul\":27846:27939   */\n      tag_769\n        /* \"#utility.yul\":27935:27938   */\n      dup3\n        /* \"#utility.yul\":27846:27939   */\n      tag_500\n      jump\t// in\n    tag_769:\n        /* \"#utility.yul\":27964:27966   */\n      0x20\n        /* \"#utility.yul\":27959:27962   */\n      dup3\n        /* \"#utility.yul\":27955:27967   */\n      add\n        /* \"#utility.yul\":27948:27967   */\n      swap1\n      pop\n        /* \"#utility.yul\":27607:27973   */\n      swap2\n      swap1\n      pop\n      jump\t// out\n        /* \"#utility.yul\":27979:28398   */\n    tag_399:\n        /* \"#utility.yul\":28145:28149   */\n      0x00\n        /* \"#utility.yul\":28183:28185   */\n      0x20\n        /* \"#utility.yul\":28172:28181   */\n      dup3\n        /* \"#utility.yul\":28168:28186   */\n      add\n        /* \"#utility.yul\":28160:28186   */\n      swap1\n      pop\n        /* \"#utility.yul\":28232:28241   */\n      dup2\n        /* \"#utility.yul\":28226:28230   */\n      dup2\n        /* \"#utility.yul\":28222:28242   */\n      sub\n        /* \"#utility.yul\":28218:28219   */\n      0x00\n        /* \"#utility.yul\":28207:28216   */\n      dup4\n        /* \"#utility.yul\":28203:28220   */\n      add\n        /* \"#utility.yul\":28196:28243   */\n      mstore\n        /* \"#utility.yul\":28260:28391   */\n      tag_771\n        /* \"#utility.yul\":28386:28390   */\n      dup2\n        /* \"#utility.yul\":28260:28391   */\n      tag_501\n      jump\t// in\n    tag_771:\n        /* \"#utility.yul\":28252:28391   */\n      swap1\n      pop\n        /* \"#utility.yul\":27979:28398   */\n      swap2\n      swap1\n      pop\n      jump\t// out\n        /* \"#utility.yul\":28404:28752   */\n    tag_424:\n        /* \"#utility.yul\":28444:28451   */\n      0x00\n        /* \"#utility.yul\":28467:28487   */\n      tag_773\n        /* \"#utility.yul\":28485:28486   */\n      dup3\n        /* \"#utility.yul\":28467:28487   */\n      tag_441\n      jump\t// in\n    tag_773:\n        /* \"#utility.yul\":28462:28487   */\n      swap2\n      pop\n        /* \"#utility.yul\":28501:28521   */\n      tag_774\n        /* \"#utility.yul\":28519:28520   */\n      dup4\n        /* \"#utility.yul\":28501:28521   */\n      tag_441\n      jump\t// in\n    tag_774:\n        /* \"#utility.yul\":28496:28521   */\n      swap3\n      pop\n        /* \"#utility.yul\":28689:28690   */\n      dup2\n        /* \"#utility.yul\":28621:28687   */\n      0xffffffffffffffffffffffffffffffffffffffffffffffffffffffffffffffff\n        /* \"#utility.yul\":28617:28691   */\n      div\n        /* \"#utility.yul\":28614:28615   */\n      dup4\n        /* \"#utility.yul\":28611:28692   */\n      gt\n        /* \"#utility.yul\":28606:28607   */\n      dup3\n        /* \"#utility.yul\":28599:28608   */\n      iszero\n        /* \"#utility.yul\":28592:28609   */\n      iszero\n        /* \"#utility.yul\":28588:28693   */\n      and\n        /* \"#utility.yul\":28585:28716   */\n      iszero\n      tag_775\n      jumpi\n        /* \"#utility.yul\":28696:28714   */\n      tag_776\n      tag_474\n      jump\t// in\n    tag_776:\n        /* \"#utility.yul\":28585:28716   */\n    tag_775:\n        /* \"#utility.yul\":28744:28745   */\n      dup3\n        /* \"#utility.yul\":28741:28742   */\n      dup3\n        /* \"#utility.yul\":28737:28746   */\n      mul\n        /* \"#utility.yul\":28726:28746   */\n      swap1\n      pop\n        /* \"#utility.yul\":28404:28752   */\n      swap3\n      swap2\n      pop\n      pop\n      jump\t// out\n        /* \"#utility.yul\":28758:28978   */\n    tag_502:\n        /* \"#utility.yul\":28898:28932   */\n      0x536166654d6174683a206d756c7469706c69636174696f6e206f766572666c6f\n        /* \"#utility.yul\":28894:28895   */\n      0x00\n        /* \"#utility.yul\":28886:28892   */\n      dup3\n        /* \"#utility.yul\":28882:28896   */\n      add\n        /* \"#utility.yul\":28875:28933   */\n      mstore\n        /* \"#utility.yul\":28967:28970   */\n      0x7700000000000000000000000000000000000000000000000000000000000000\n        /* \"#utility.yul\":28962:28964   */\n      0x20\n        /* \"#utility.yul\":28954:28960   */\n      dup3\n        /* \"#utility.yul\":28950:28965   */\n      add\n        /* \"#utility.yul\":28943:28971   */\n      mstore\n        /* \"#utility.yul\":28758:28978   */\n      pop\n      jump\t// out\n        /* \"#utility.yul\":28984:29350   */\n    tag_503:\n        /* \"#utility.yul\":29126:29129   */\n      0x00\n        /* \"#utility.yul\":29147:29214   */\n      tag_779\n        /* \"#utility.yul\":29211:29213   */\n      0x21\n        /* \"#utility.yul\":29206:29209   */\n      dup4\n        /* \"#utility.yul\":29147:29214   */\n      tag_430\n      jump\t// in\n    tag_779:\n        /* \"#utility.yul\":29140:29214   */\n      swap2\n      pop\n        /* \"#utility.yul\":29223:29316   */\n      tag_780\n        /* \"#utility.yul\":29312:29315   */\n      dup3\n        /* \"#utility.yul\":29223:29316   */\n      tag_502\n      jump\t// in\n    tag_780:\n        /* \"#utility.yul\":29341:29343   */\n      0x40\n        /* \"#utility.yul\":29336:29339   */\n      dup3\n        /* \"#utility.yul\":29332:29344   */\n      add\n        /* \"#utility.yul\":29325:29344   */\n      swap1\n      pop\n        /* \"#utility.yul\":28984:29350   */\n      swap2\n      swap1\n      pop\n      jump\t// out\n        /* \"#utility.yul\":29356:29775   */\n    tag_428:\n        /* \"#utility.yul\":29522:29526   */\n      0x00\n        /* \"#utility.yul\":29560:29562   */\n      0x20\n        /* \"#utility.yul\":29549:29558   */\n      dup3\n        /* \"#utility.yul\":29545:29563   */\n      add\n        /* \"#utility.yul\":29537:29563   */\n      swap1\n      pop\n        /* \"#utility.yul\":29609:29618   */\n      dup2\n        /* \"#utility.yul\":29603:29607   */\n      dup2\n        /* \"#utility.yul\":29599:29619   */\n      sub\n        /* \"#utility.yul\":29595:29596   */\n      0x00\n        /* \"#utility.yul\":29584:29593   */\n      dup4\n        /* \"#utility.yul\":29580:29597   */\n      add\n        /* \"#utility.yul\":29573:29620   */\n      mstore\n        /* \"#utility.yul\":29637:29768   */\n      tag_782\n        /* \"#utility.yul\":29763:29767   */\n      dup2\n        /* \"#utility.yul\":29637:29768   */\n      tag_503\n      jump\t// in\n    tag_782:\n        /* \"#utility.yul\":29629:29768   */\n      swap1\n      pop\n        /* \"#utility.yul\":29356:29775   */\n      swap2\n      swap1\n      pop\n      jump\t// out\n    stop\n    data_974d1b4421da69cc60b481194f0dad36a5bb4e23da810da7a7fb30cdba178330 45524332303a207472616e7366657220616d6f756e74206578636565647320616c6c6f77616e6365\n\n    auxdata: 0xa2646970667358221220164b08086ab450f8593650ff9c4d1934981ff200c51fd821339b0616ebad9c6164736f6c634300080d0033\n}\n",
				"bytecode": {
					"linkReferences": {},
					"object": "6080604052670de0b6b3a76400006414f46b04006200001f919062000538565b6414f46b04006200003191906200059f565b600655600160085560046009556001600a556001600b55738492cbd894686d7e98214541903c7ba6f94928d6600e60006101000a81548173ffffffffffffffffffffffffffffffffffffffff021916908373ffffffffffffffffffffffffffffffffffffffff16021790555073a4ed7aa4ef5deb0a63e97d9cb77445ae553feb1d600f60006101000a81548173ffffffffffffffffffffffffffffffffffffffff021916908373ffffffffffffffffffffffffffffffffffffffff1602179055506000601260146101000a81548160ff0219169083151502179055506001601260156101000a81548160ff0219169083151502179055503480156200013557600080fd5b50600062000148620004ce60201b60201c565b9050806000806101000a81548173ffffffffffffffffffffffffffffffffffffffff021916908373ffffffffffffffffffffffffffffffffffffffff1602179055508073ffffffffffffffffffffffffffffffffffffffff16600073ffffffffffffffffffffffffffffffffffffffff167f8be0079c531659141344cd1fd0a4f28419497f9722a3daafe3b4186f6b6457e060405160405180910390a35060065460026000620001fd620004ce60201b60201c565b73ffffffffffffffffffffffffffffffffffffffff1673ffffffffffffffffffffffffffffffffffffffff1681526020019081526020016000208190555060007310ed43c718714eb63d5aa57b78b54704e256024e905080601060006101000a81548173ffffffffffffffffffffffffffffffffffffffff021916908373ffffffffffffffffffffffffffffffffffffffff160217905550600160056000620002ab620004d660201b60201c565b73ffffffffffffffffffffffffffffffffffffffff1673ffffffffffffffffffffffffffffffffffffffff16815260200190815260200160002060006101000a81548160ff0219169083151502179055506001600560003073ffffffffffffffffffffffffffffffffffffffff1673ffffffffffffffffffffffffffffffffffffffff16815260200190815260200160002060006101000a81548160ff021916908315150217905550600160056000600e60009054906101000a900473ffffffffffffffffffffffffffffffffffffffff1673ffffffffffffffffffffffffffffffffffffffff1673ffffffffffffffffffffffffffffffffffffffff16815260200190815260200160002060006101000a81548160ff021916908315150217905550600160056000600f60009054906101000a900473ffffffffffffffffffffffffffffffffffffffff1673ffffffffffffffffffffffffffffffffffffffff1673ffffffffffffffffffffffffffffffffffffffff16815260200190815260200160002060006101000a81548160ff02191690831515021790555062000458620004ce60201b60201c565b73ffffffffffffffffffffffffffffffffffffffff16600073ffffffffffffffffffffffffffffffffffffffff167fddf252ad1be2c89b69c2b068fc378daa952ba7f163c4a11628f55a4df523b3ef670de0b6b3a7640000604051620004bf9190620005eb565b60405180910390a35062000608565b600033905090565b60008060009054906101000a900473ffffffffffffffffffffffffffffffffffffffff16905090565b6000819050919050565b7f4e487b7100000000000000000000000000000000000000000000000000000000600052601260045260246000fd5b60006200054582620004ff565b91506200055283620004ff565b92508262000565576200056462000509565b5b828206905092915050565b7f4e487b7100000000000000000000000000000000000000000000000000000000600052601160045260246000fd5b6000620005ac82620004ff565b9150620005b983620004ff565b925082821015620005cf57620005ce62000570565b5b828203905092915050565b620005e581620004ff565b82525050565b6000602082019050620006026000830184620005da565b92915050565b613a4480620006186000396000f3fe60806040526004361061014f5760003560e01c8063715018a6116100b6578063aad5c0231161006f578063aad5c0231461047b578063c3c8cd80146104a4578063c492f046146104bb578063dd62ed3e146104e4578063e293d31614610521578063f2fde38b1461054a57610156565b8063715018a61461037f578063758dbe03146103965780638da5cb5b146103bf57806395d89b41146103ea578063a2a957bb14610415578063a9059cbb1461043e57610156565b806349bd5a5e1161010857806349bd5a5e14610281578063504563c0146102ac57806359d0f713146102d75780636d8aa8f8146103025780636fc3eaec1461032b57806370a082311461034257610156565b806306fdde031461015b578063095ea7b3146101865780631694505e146101c357806318160ddd146101ee57806323b872dd14610219578063313ce5671461025657610156565b3661015657005b600080fd5b34801561016757600080fd5b50610170610573565b60405161017d9190612a8c565b60405180910390f35b34801561019257600080fd5b506101ad60048036038101906101a89190612b4c565b6105b0565b6040516101ba9190612ba7565b60405180910390f35b3480156101cf57600080fd5b506101d86105ce565b6040516101e59190612c21565b60405180910390f35b3480156101fa57600080fd5b506102036105f4565b6040516102109190612c4b565b60405180910390f35b34801561022557600080fd5b50610240600480360381019061023b9190612c66565b610604565b60405161024d9190612ba7565b60405180910390f35b34801561026257600080fd5b5061026b6106dd565b6040516102789190612cd5565b60405180910390f35b34801561028d57600080fd5b506102966106e6565b6040516102a39190612cff565b60405180910390f35b3480156102b857600080fd5b506102c161070c565b6040516102ce9190612c21565b60405180910390f35b3480156102e357600080fd5b506102ec610736565b6040516102f99190612d3b565b60405180910390f35b34801561030e57600080fd5b5061032960048036038101906103249190612d82565b61075c565b005b34801561033757600080fd5b50610340610854565b005b34801561034e57600080fd5b5061036960048036038101906103649190612daf565b610969565b6040516103769190612c4b565b60405180910390f35b34801561038b57600080fd5b506103946109ba565b005b3480156103a257600080fd5b506103bd60048036038101906103b89190612e1a565b610b0d565b005b3480156103cb57600080fd5b506103d4610d22565b6040516103e19190612cff565b60405180910390f35b3480156103f657600080fd5b506103ff610d4b565b60405161040c9190612a8c565b60405180910390f35b34801561042157600080fd5b5061043c60048036038101906104379190612e47565b610d88565b005b34801561044a57600080fd5b5061046560048036038101906104609190612b4c565b610f91565b6040516104729190612ba7565b60405180910390f35b34801561048757600080fd5b506104a2600480360381019061049d9190612e1a565b610faf565b005b3480156104b057600080fd5b506104b96111c4565b005b3480156104c757600080fd5b506104e260048036038101906104dd9190612f13565b6112e1565b005b3480156104f057600080fd5b5061050b60048036038101906105069190612f73565b61141b565b6040516105189190612c4b565b60405180910390f35b34801561052d57600080fd5b5061054860048036038101906105439190612c66565b6114a2565b005b34801561055657600080fd5b50610571600480360381019061056c9190612daf565b611666565b005b60606040518060400160405280600a81526020017f576f726c64205374657000000000000000000000000000000000000000000000815250905090565b60006105c46105bd6117b8565b84846117c0565b6001905092915050565b601060009054906101000a900473ffffffffffffffffffffffffffffffffffffffff1681565b6000670de0b6b3a7640000905090565b6000610611848484611989565b6106d28461061d6117b8565b6106cd856040518060600160405280602881526020016139e760289139600460008b73ffffffffffffffffffffffffffffffffffffffff1673ffffffffffffffffffffffffffffffffffffffff16815260200190815260200160002060006106836117b8565b73ffffffffffffffffffffffffffffffffffffffff1673ffffffffffffffffffffffffffffffffffffffff16815260200190815260200160002054611efb9092919063ffffffff16565b6117c0565b600190509392505050565b60006009905090565b601260009054906101000a900473ffffffffffffffffffffffffffffffffffffffff1681565b6000601060009054906101000a900473ffffffffffffffffffffffffffffffffffffffff16905090565b601160009054906101000a900473ffffffffffffffffffffffffffffffffffffffff1681565b6107646117b8565b73ffffffffffffffffffffffffffffffffffffffff16610782610d22565b73ffffffffffffffffffffffffffffffffffffffff1614806107f857506107a76117b8565b73ffffffffffffffffffffffffffffffffffffffff16600e60009054906101000a900473ffffffffffffffffffffffffffffffffffffffff1673ffffffffffffffffffffffffffffffffffffffff16145b610837576040517f08c379a000000000000000000000000000000000000000000000000000000000815260040161082e90612fff565b60405180910390fd5b80601260156101000a81548160ff02191690831515021790555050565b600e60009054906101000a900473ffffffffffffffffffffffffffffffffffffffff1673ffffffffffffffffffffffffffffffffffffffff166108956117b8565b73ffffffffffffffffffffffffffffffffffffffff16148061090b5750600f60009054906101000a900473ffffffffffffffffffffffffffffffffffffffff1673ffffffffffffffffffffffffffffffffffffffff166108f36117b8565b73ffffffffffffffffffffffffffffffffffffffff16145b8061094f5750610919610d22565b73ffffffffffffffffffffffffffffffffffffffff166109376117b8565b73ffffffffffffffffffffffffffffffffffffffff16145b61095857600080fd5b600047905061096681611f5f565b50565b60006109b3600260008473ffffffffffffffffffffffffffffffffffffffff1673ffffffffffffffffffffffffffffffffffffffff1681526020019081526020016000205461205a565b9050919050565b6109c26117b8565b73ffffffffffffffffffffffffffffffffffffffff1660008054906101000a900473ffffffffffffffffffffffffffffffffffffffff1673ffffffffffffffffffffffffffffffffffffffff1614610a4f576040517f08c379a0000000000000000000000000000000000000000000000000000000008152600401610a469061306b565b60405180910390fd5b600073ffffffffffffffffffffffffffffffffffffffff1660008054906101000a900473ffffffffffffffffffffffffffffffffffffffff1673ffffffffffffffffffffffffffffffffffffffff167f8be0079c531659141344cd1fd0a4f28419497f9722a3daafe3b4186f6b6457e060405160405180910390a360008060006101000a81548173ffffffffffffffffffffffffffffffffffffffff021916908373ffffffffffffffffffffffffffffffffffffffff160217905550565b610b156117b8565b73ffffffffffffffffffffffffffffffffffffffff16610b33610d22565b73ffffffffffffffffffffffffffffffffffffffff161480610ba95750610b586117b8565b73ffffffffffffffffffffffffffffffffffffffff16600e60009054906101000a900473ffffffffffffffffffffffffffffffffffffffff1673ffffffffffffffffffffffffffffffffffffffff16145b610be8576040517f08c379a0000000000000000000000000000000000000000000000000000000008152600401610bdf90612fff565b60405180910390fd5b8073ffffffffffffffffffffffffffffffffffffffff16600f60009054906101000a900473ffffffffffffffffffffffffffffffffffffffff1673ffffffffffffffffffffffffffffffffffffffff167fa64373a629bc0c09eacf8a9cc2c7b070fa0a8b7e2e9b8aaee408a3c02eb1676b60405160405180910390a380600f60006101000a81548173ffffffffffffffffffffffffffffffffffffffff021916908373ffffffffffffffffffffffffffffffffffffffff160217905550600160056000600f60009054906101000a900473ffffffffffffffffffffffffffffffffffffffff1673ffffffffffffffffffffffffffffffffffffffff1673ffffffffffffffffffffffffffffffffffffffff16815260200190815260200160002060006101000a81548160ff02191690831515021790555050565b60008060009054906101000a900473ffffffffffffffffffffffffffffffffffffffff16905090565b60606040518060400160405280600381526020017f5753500000000000000000000000000000000000000000000000000000000000815250905090565b610d906117b8565b73ffffffffffffffffffffffffffffffffffffffff16610dae610d22565b73ffffffffffffffffffffffffffffffffffffffff161480610e245750610dd36117b8565b73ffffffffffffffffffffffffffffffffffffffff16600e60009054906101000a900473ffffffffffffffffffffffffffffffffffffffff1673ffffffffffffffffffffffffffffffffffffffff16145b610e63576040517f08c379a0000000000000000000000000000000000000000000000000000000008152600401610e5a90612fff565b60405180910390fd5b600b8410610ea6576040517f08c379a0000000000000000000000000000000000000000000000000000000008152600401610e9d906130d7565b60405180910390fd5b600b8310610ee9576040517f08c379a0000000000000000000000000000000000000000000000000000000008152600401610ee0906130d7565b60405180910390fd5b60078210610f2c576040517f08c379a0000000000000000000000000000000000000000000000000000000008152600401610f2390613143565b60405180910390fd5b60078110610f6f576040517f08c379a0000000000000000000000000000000000000000000000000000000008152600401610f6690613143565b60405180910390fd5b8360088190555082600a819055508160098190555080600b8190555050505050565b6000610fa5610f9e6117b8565b8484611989565b6001905092915050565b610fb76117b8565b73ffffffffffffffffffffffffffffffffffffffff16610fd5610d22565b73ffffffffffffffffffffffffffffffffffffffff16148061104b5750610ffa6117b8565b73ffffffffffffffffffffffffffffffffffffffff16600e60009054906101000a900473ffffffffffffffffffffffffffffffffffffffff1673ffffffffffffffffffffffffffffffffffffffff16145b61108a576040517f08c379a000000000000000000000000000000000000000000000000000000000815260040161108190612fff565b60405180910390fd5b8073ffffffffffffffffffffffffffffffffffffffff16600e60009054906101000a900473ffffffffffffffffffffffffffffffffffffffff1673ffffffffffffffffffffffffffffffffffffffff167ffbbc329437e8c79f847e170730ad6dd04106b7511cad70d06d635886d92de83c60405160405180910390a380600e60006101000a81548173ffffffffffffffffffffffffffffffffffffffff021916908373ffffffffffffffffffffffffffffffffffffffff160217905550600160056000600e60009054906101000a900473ffffffffffffffffffffffffffffffffffffffff1673ffffffffffffffffffffffffffffffffffffffff1673ffffffffffffffffffffffffffffffffffffffff16815260200190815260200160002060006101000a81548160ff02191690831515021790555050565b600e60009054906101000a900473ffffffffffffffffffffffffffffffffffffffff1673ffffffffffffffffffffffffffffffffffffffff166112056117b8565b73ffffffffffffffffffffffffffffffffffffffff16148061127b5750600f60009054906101000a900473ffffffffffffffffffffffffffffffffffffffff1673ffffffffffffffffffffffffffffffffffffffff166112636117b8565b73ffffffffffffffffffffffffffffffffffffffff16145b806112bf5750611289610d22565b73ffffffffffffffffffffffffffffffffffffffff166112a76117b8565b73ffffffffffffffffffffffffffffffffffffffff16145b6112c857600080fd5b60006112d330610969565b90506112de816120c8565b50565b6112e96117b8565b73ffffffffffffffffffffffffffffffffffffffff1660008054906101000a900473ffffffffffffffffffffffffffffffffffffffff1673ffffffffffffffffffffffffffffffffffffffff1614611376576040517f08c379a000000000000000000000000000000000000000000000000000000000815260040161136d9061306b565b60405180910390fd5b60005b8383905081101561141557816005600086868581811061139c5761139b613163565b5b90506020020160208101906113b19190612daf565b73ffffffffffffffffffffffffffffffffffffffff1673ffffffffffffffffffffffffffffffffffffffff16815260200190815260200160002060006101000a81548160ff021916908315150217905550808061140d906131c1565b915050611379565b50505050565b6000600460008473ffffffffffffffffffffffffffffffffffffffff1673ffffffffffffffffffffffffffffffffffffffff16815260200190815260200160002060008373ffffffffffffffffffffffffffffffffffffffff1673ffffffffffffffffffffffffffffffffffffffff16815260200190815260200160002054905092915050565b6114aa6117b8565b73ffffffffffffffffffffffffffffffffffffffff166114c8610d22565b73ffffffffffffffffffffffffffffffffffffffff16148061153e57506114ed6117b8565b73ffffffffffffffffffffffffffffffffffffffff16600e60009054906101000a900473ffffffffffffffffffffffffffffffffffffffff1673ffffffffffffffffffffffffffffffffffffffff16145b61157d576040517f08c379a000000000000000000000000000000000000000000000000000000000815260040161157490612fff565b60405180910390fd5b8173ffffffffffffffffffffffffffffffffffffffff168373ffffffffffffffffffffffffffffffffffffffff167f47c33aa230eb5fd181505aa7befeaddd9b8a6f983989cea73a7868448c3a9ed9836040516115da9190612c4b565b60405180910390a38273ffffffffffffffffffffffffffffffffffffffff1663a9059cbb83836040518363ffffffff1660e01b815260040161161d929190613209565b6020604051808303816000875af115801561163c573d6000803e3d6000fd5b505050506040513d601f19601f820116820180604052508101906116609190613247565b50505050565b61166e6117b8565b73ffffffffffffffffffffffffffffffffffffffff1660008054906101000a900473ffffffffffffffffffffffffffffffffffffffff1673ffffffffffffffffffffffffffffffffffffffff16146116fb576040517f08c379a00000000000000000000000000000000000000000000000000000000081526004016116f29061306b565b60405180910390fd5b8073ffffffffffffffffffffffffffffffffffffffff1660008054906101000a900473ffffffffffffffffffffffffffffffffffffffff1673ffffffffffffffffffffffffffffffffffffffff167f8be0079c531659141344cd1fd0a4f28419497f9722a3daafe3b4186f6b6457e060405160405180910390a3806000806101000a81548173ffffffffffffffffffffffffffffffffffffffff021916908373ffffffffffffffffffffffffffffffffffffffff16021790555050565b600033905090565b600073ffffffffffffffffffffffffffffffffffffffff168373ffffffffffffffffffffffffffffffffffffffff160361182f576040517f08c379a0000000000000000000000000000000000000000000000000000000008152600401611826906132e6565b60405180910390fd5b600073ffffffffffffffffffffffffffffffffffffffff168273ffffffffffffffffffffffffffffffffffffffff160361189e576040517f08c379a000000000000000000000000000000000000000000000000000000000815260040161189590613378565b60405180910390fd5b80600460008573ffffffffffffffffffffffffffffffffffffffff1673ffffffffffffffffffffffffffffffffffffffff16815260200190815260200160002060008473ffffffffffffffffffffffffffffffffffffffff1673ffffffffffffffffffffffffffffffffffffffff168152602001908152602001600020819055508173ffffffffffffffffffffffffffffffffffffffff168373ffffffffffffffffffffffffffffffffffffffff167f8c5be1e5ebec7d5bd14f71427d1e84f3dd0314c0f7b2291e5b200ac8c7c3b9258360405161197c9190612c4b565b60405180910390a3505050565b600073ffffffffffffffffffffffffffffffffffffffff168373ffffffffffffffffffffffffffffffffffffffff16036119f8576040517f08c379a00000000000000000000000000000000000000000000000000000000081526004016119ef9061340a565b60405180910390fd5b600073ffffffffffffffffffffffffffffffffffffffff168273ffffffffffffffffffffffffffffffffffffffff1603611a67576040517f08c379a0000000000000000000000000000000000000000000000000000000008152600401611a5e9061349c565b60405180910390fd5b60008111611aaa576040517f08c379a0000000000000000000000000000000000000000000000000000000008152600401611aa19061352e565b60405180910390fd5b6000600c819055506000600d81905550611ac2610d22565b73ffffffffffffffffffffffffffffffffffffffff168373ffffffffffffffffffffffffffffffffffffffff1614158015611b305750611b00610d22565b73ffffffffffffffffffffffffffffffffffffffff168273ffffffffffffffffffffffffffffffffffffffff1614155b15611eeb576000611b4030610969565b9050601260149054906101000a900460ff16158015611bad5750601260009054906101000a900473ffffffffffffffffffffffffffffffffffffffff1673ffffffffffffffffffffffffffffffffffffffff168473ffffffffffffffffffffffffffffffffffffffff1614155b8015611bc55750601260159054906101000a900460ff165b8015611bd15750600081115b15611bf957611bdf816120c8565b60004790506000811115611bf757611bf647611f5f565b5b505b601260009054906101000a900473ffffffffffffffffffffffffffffffffffffffff1673ffffffffffffffffffffffffffffffffffffffff168473ffffffffffffffffffffffffffffffffffffffff16148015611ca45750601060009054906101000a900473ffffffffffffffffffffffffffffffffffffffff1673ffffffffffffffffffffffffffffffffffffffff168373ffffffffffffffffffffffffffffffffffffffff1614155b15611cbc57600854600c81905550600954600d819055505b601260009054906101000a900473ffffffffffffffffffffffffffffffffffffffff1673ffffffffffffffffffffffffffffffffffffffff168373ffffffffffffffffffffffffffffffffffffffff16148015611d675750601060009054906101000a900473ffffffffffffffffffffffffffffffffffffffff1673ffffffffffffffffffffffffffffffffffffffff168473ffffffffffffffffffffffffffffffffffffffff1614155b15611d7f57600a54600c81905550600b54600d819055505b600560008573ffffffffffffffffffffffffffffffffffffffff1673ffffffffffffffffffffffffffffffffffffffff16815260200190815260200160002060009054906101000a900460ff1680611e205750600560008473ffffffffffffffffffffffffffffffffffffffff1673ffffffffffffffffffffffffffffffffffffffff16815260200190815260200160002060009054906101000a900460ff165b80611ed35750601260009054906101000a900473ffffffffffffffffffffffffffffffffffffffff1673ffffffffffffffffffffffffffffffffffffffff168473ffffffffffffffffffffffffffffffffffffffff1614158015611ed25750601260009054906101000a900473ffffffffffffffffffffffffffffffffffffffff1673ffffffffffffffffffffffffffffffffffffffff168373ffffffffffffffffffffffffffffffffffffffff1614155b5b15611ee9576000600c819055506000600d819055505b505b611ef6838383612341565b505050565b6000838311158290611f43576040517f08c379a0000000000000000000000000000000000000000000000000000000008152600401611f3a9190612a8c565b60405180910390fd5b5060008385611f52919061354e565b9050809150509392505050565b600e60009054906101000a900473ffffffffffffffffffffffffffffffffffffffff1673ffffffffffffffffffffffffffffffffffffffff166108fc611faf60028461235190919063ffffffff16565b9081150290604051600060405180830381858888f19350505050158015611fda573d6000803e3d6000fd5b50600f60009054906101000a900473ffffffffffffffffffffffffffffffffffffffff1673ffffffffffffffffffffffffffffffffffffffff166108fc61202b60028461235190919063ffffffff16565b9081150290604051600060405180830381858888f19350505050158015612056573d6000803e3d6000fd5b5050565b60006006548211156120a1576040517f08c379a0000000000000000000000000000000000000000000000000000000008152600401612098906135f4565b60405180910390fd5b60006120ab61239b565b90506120c0818461235190919063ffffffff16565b915050919050565b6001601260146101000a81548160ff0219169083151502179055506000600267ffffffffffffffff811115612100576120ff613614565b5b60405190808252806020026020018201604052801561212e5781602001602082028036833780820191505090505b509050308160008151811061214657612145613163565b5b602002602001019073ffffffffffffffffffffffffffffffffffffffff16908173ffffffffffffffffffffffffffffffffffffffff1681525050601060009054906101000a900473ffffffffffffffffffffffffffffffffffffffff1673ffffffffffffffffffffffffffffffffffffffff1663ad5c46486040518163ffffffff1660e01b8152600401602060405180830381865afa1580156121ed573d6000803e3d6000fd5b505050506040513d601f19601f820116820180604052508101906122119190613658565b8160018151811061222557612224613163565b5b602002602001019073ffffffffffffffffffffffffffffffffffffffff16908173ffffffffffffffffffffffffffffffffffffffff168152505061228c30601060009054906101000a900473ffffffffffffffffffffffffffffffffffffffff16846117c0565b601060009054906101000a900473ffffffffffffffffffffffffffffffffffffffff1673ffffffffffffffffffffffffffffffffffffffff1663791ac9478360008430426040518663ffffffff1660e01b81526004016122f095949392919061377e565b600060405180830381600087803b15801561230a57600080fd5b505af115801561231e573d6000803e3d6000fd5b50505050506000601260146101000a81548160ff02191690831515021790555050565b61234c8383836123c6565b505050565b600061239383836040518060400160405280601a81526020017f536166654d6174683a206469766973696f6e206279207a65726f000000000000815250612591565b905092915050565b60008060006123a86125f4565b915091506123bf818361235190919063ffffffff16565b9250505090565b6000806000806000806123d887612653565b95509550955095509550955061243686600260008c73ffffffffffffffffffffffffffffffffffffffff1673ffffffffffffffffffffffffffffffffffffffff168152602001908152602001600020546126bb90919063ffffffff16565b600260008b73ffffffffffffffffffffffffffffffffffffffff1673ffffffffffffffffffffffffffffffffffffffff168152602001908152602001600020819055506124cb85600260008b73ffffffffffffffffffffffffffffffffffffffff1673ffffffffffffffffffffffffffffffffffffffff1681526020019081526020016000205461270590919063ffffffff16565b600260008a73ffffffffffffffffffffffffffffffffffffffff1673ffffffffffffffffffffffffffffffffffffffff1681526020019081526020016000208190555061251781612763565b6125218483612820565b8773ffffffffffffffffffffffffffffffffffffffff168973ffffffffffffffffffffffffffffffffffffffff167fddf252ad1be2c89b69c2b068fc378daa952ba7f163c4a11628f55a4df523b3ef8560405161257e9190612c4b565b60405180910390a3505050505050505050565b600080831182906125d8576040517f08c379a00000000000000000000000000000000000000000000000000000000081526004016125cf9190612a8c565b60405180910390fd5b50600083856125e79190613807565b9050809150509392505050565b600080600060065490506000670de0b6b3a76400009050612628670de0b6b3a764000060065461235190919063ffffffff16565b82101561264657600654670de0b6b3a764000093509350505061264f565b81819350935050505b9091565b60008060008060008060008060006126708a600c54600d5461285a565b925092509250600061268061239b565b905060008060006126938e8787876128f0565b9250925092508282828989899c509c509c509c509c509c505050505050505091939550919395565b60006126fd83836040518060400160405280601e81526020017f536166654d6174683a207375627472616374696f6e206f766572666c6f770000815250611efb565b905092915050565b60008082846127149190613838565b905083811015612759576040517f08c379a0000000000000000000000000000000000000000000000000000000008152600401612750906138da565b60405180910390fd5b8091505092915050565b600061276d61239b565b90506000612784828461297990919063ffffffff16565b90506127d881600260003073ffffffffffffffffffffffffffffffffffffffff1673ffffffffffffffffffffffffffffffffffffffff1681526020019081526020016000205461270590919063ffffffff16565b600260003073ffffffffffffffffffffffffffffffffffffffff1673ffffffffffffffffffffffffffffffffffffffff16815260200190815260200160002081905550505050565b612835826006546126bb90919063ffffffff16565b6006819055506128508160075461270590919063ffffffff16565b6007819055505050565b6000806000806128866064612878888a61297990919063ffffffff16565b61235190919063ffffffff16565b905060006128b060646128a2888b61297990919063ffffffff16565b61235190919063ffffffff16565b905060006128d9826128cb858c6126bb90919063ffffffff16565b6126bb90919063ffffffff16565b905080838395509550955050505093509350939050565b600080600080612909858961297990919063ffffffff16565b90506000612920868961297990919063ffffffff16565b90506000612937878961297990919063ffffffff16565b905060006129608261295285876126bb90919063ffffffff16565b6126bb90919063ffffffff16565b9050838184965096509650505050509450945094915050565b600080830361298b57600090506129ed565b6000828461299991906138fa565b90508284826129a89190613807565b146129e8576040517f08c379a00000000000000000000000000000000000000000000000000000000081526004016129df906139c6565b60405180910390fd5b809150505b92915050565b600081519050919050565b600082825260208201905092915050565b60005b83811015612a2d578082015181840152602081019050612a12565b83811115612a3c576000848401525b50505050565b6000601f19601f8301169050919050565b6000612a5e826129f3565b612a6881856129fe565b9350612a78818560208601612a0f565b612a8181612a42565b840191505092915050565b60006020820190508181036000830152612aa68184612a53565b905092915050565b600080fd5b600080fd5b600073ffffffffffffffffffffffffffffffffffffffff82169050919050565b6000612ae382612ab8565b9050919050565b612af381612ad8565b8114612afe57600080fd5b50565b600081359050612b1081612aea565b92915050565b6000819050919050565b612b2981612b16565b8114612b3457600080fd5b50565b600081359050612b4681612b20565b92915050565b60008060408385031215612b6357612b62612aae565b5b6000612b7185828601612b01565b9250506020612b8285828601612b37565b9150509250929050565b60008115159050919050565b612ba181612b8c565b82525050565b6000602082019050612bbc6000830184612b98565b92915050565b6000819050919050565b6000612be7612be2612bdd84612ab8565b612bc2565b612ab8565b9050919050565b6000612bf982612bcc565b9050919050565b6000612c0b82612bee565b9050919050565b612c1b81612c00565b82525050565b6000602082019050612c366000830184612c12565b92915050565b612c4581612b16565b82525050565b6000602082019050612c606000830184612c3c565b92915050565b600080600060608486031215612c7f57612c7e612aae565b5b6000612c8d86828701612b01565b9350506020612c9e86828701612b01565b9250506040612caf86828701612b37565b9150509250925092565b600060ff82169050919050565b612ccf81612cb9565b82525050565b6000602082019050612cea6000830184612cc6565b92915050565b612cf981612ad8565b82525050565b6000602082019050612d146000830184612cf0565b92915050565b6000612d2582612bee565b9050919050565b612d3581612d1a565b82525050565b6000602082019050612d506000830184612d2c565b92915050565b612d5f81612b8c565b8114612d6a57600080fd5b50565b600081359050612d7c81612d56565b92915050565b600060208284031215612d9857612d97612aae565b5b6000612da684828501612d6d565b91505092915050565b600060208284031215612dc557612dc4612aae565b5b6000612dd384828501612b01565b91505092915050565b6000612de782612ab8565b9050919050565b612df781612ddc565b8114612e0257600080fd5b50565b600081359050612e1481612dee565b92915050565b600060208284031215612e3057612e2f612aae565b5b6000612e3e84828501612e05565b91505092915050565b60008060008060808587031215612e6157612e60612aae565b5b6000612e6f87828801612b37565b9450506020612e8087828801612b37565b9350506040612e9187828801612b37565b9250506060612ea287828801612b37565b91505092959194509250565b600080fd5b600080fd5b600080fd5b60008083601f840112612ed357612ed2612eae565b5b8235905067ffffffffffffffff811115612ef057612eef612eb3565b5b602083019150836020820283011115612f0c57612f0b612eb8565b5b9250929050565b600080600060408486031215612f2c57612f2b612aae565b5b600084013567ffffffffffffffff811115612f4a57612f49612ab3565b5b612f5686828701612ebd565b93509350506020612f6986828701612d6d565b9150509250925092565b60008060408385031215612f8a57612f89612aae565b5b6000612f9885828601612b01565b9250506020612fa985828601612b01565b9150509250929050565b7f43616c6c6572206973206e6f7420746865206465760000000000000000000000600082015250565b6000612fe96015836129fe565b9150612ff482612fb3565b602082019050919050565b6000602082019050818103600083015261301881612fdc565b9050919050565b7f43616c6c6572206973206e6f7420746865206f776e6572000000000000000000600082015250565b60006130556017836129fe565b91506130608261301f565b602082019050919050565b6000602082019050818103600083015261308481613048565b9050919050565b7f52656469732063616e6e6f74206265206d6f7265207468616e2031302e000000600082015250565b60006130c1601d836129fe565b91506130cc8261308b565b602082019050919050565b600060208201905081810360008301526130f0816130b4565b9050919050565b7f5461782063616e6e6f74206265206d6f7265207468616e20362e000000000000600082015250565b600061312d601a836129fe565b9150613138826130f7565b602082019050919050565b6000602082019050818103600083015261315c81613120565b9050919050565b7f4e487b7100000000000000000000000000000000000000000000000000000000600052603260045260246000fd5b7f4e487b7100000000000000000000000000000000000000000000000000000000600052601160045260246000fd5b60006131cc82612b16565b91507fffffffffffffffffffffffffffffffffffffffffffffffffffffffffffffffff82036131fe576131fd613192565b5b600182019050919050565b600060408201905061321e6000830185612cf0565b61322b6020830184612c3c565b9392505050565b60008151905061324181612d56565b92915050565b60006020828403121561325d5761325c612aae565b5b600061326b84828501613232565b91505092915050565b7f45524332303a20617070726f76652066726f6d20746865207a65726f2061646460008201527f7265737300000000000000000000000000000000000000000000000000000000602082015250565b60006132d06024836129fe565b91506132db82613274565b604082019050919050565b600060208201905081810360008301526132ff816132c3565b9050919050565b7f45524332303a20617070726f766520746f20746865207a65726f20616464726560008201527f7373000000000000000000000000000000000000000000000000000000000000602082015250565b60006133626022836129fe565b915061336d82613306565b604082019050919050565b6000602082019050818103600083015261339181613355565b9050919050565b7f45524332303a207472616e736665722066726f6d20746865207a65726f20616460008201527f6472657373000000000000000000000000000000000000000000000000000000602082015250565b60006133f46025836129fe565b91506133ff82613398565b604082019050919050565b60006020820190508181036000830152613423816133e7565b9050919050565b7f45524332303a207472616e7366657220746f20746865207a65726f206164647260008201527f6573730000000000000000000000000000000000000000000000000000000000602082015250565b60006134866023836129fe565b91506134918261342a565b604082019050919050565b600060208201905081810360008301526134b581613479565b9050919050565b7f5472616e7366657220616d6f756e74206d75737420626520677265617465722060008201527f7468616e207a65726f0000000000000000000000000000000000000000000000602082015250565b60006135186029836129fe565b9150613523826134bc565b604082019050919050565b600060208201905081810360008301526135478161350b565b9050919050565b600061355982612b16565b915061356483612b16565b92508282101561357757613576613192565b5b828203905092915050565b7f416d6f756e74206d757374206265206c657373207468616e20746f74616c207260008201527f65666c656374696f6e7300000000000000000000000000000000000000000000602082015250565b60006135de602a836129fe565b91506135e982613582565b604082019050919050565b6000602082019050818103600083015261360d816135d1565b9050919050565b7f4e487b7100000000000000000000000000000000000000000000000000000000600052604160045260246000fd5b60008151905061365281612aea565b92915050565b60006020828403121561366e5761366d612aae565b5b600061367c84828501613643565b91505092915050565b6000819050919050565b60006136aa6136a56136a084613685565b612bc2565b612b16565b9050919050565b6136ba8161368f565b82525050565b600081519050919050565b600082825260208201905092915050565b6000819050602082019050919050565b6136f581612ad8565b82525050565b600061370783836136ec565b60208301905092915050565b6000602082019050919050565b600061372b826136c0565b61373581856136cb565b9350613740836136dc565b8060005b8381101561377157815161375888826136fb565b975061376383613713565b925050600181019050613744565b5085935050505092915050565b600060a0820190506137936000830188612c3c565b6137a060208301876136b1565b81810360408301526137b28186613720565b90506137c16060830185612cf0565b6137ce6080830184612c3c565b9695505050505050565b7f4e487b7100000000000000000000000000000000000000000000000000000000600052601260045260246000fd5b600061381282612b16565b915061381d83612b16565b92508261382d5761382c6137d8565b5b828204905092915050565b600061384382612b16565b915061384e83612b16565b9250827fffffffffffffffffffffffffffffffffffffffffffffffffffffffffffffffff0382111561388357613882613192565b5b828201905092915050565b7f536166654d6174683a206164646974696f6e206f766572666c6f770000000000600082015250565b60006138c4601b836129fe565b91506138cf8261388e565b602082019050919050565b600060208201905081810360008301526138f3816138b7565b9050919050565b600061390582612b16565b915061391083612b16565b9250817fffffffffffffffffffffffffffffffffffffffffffffffffffffffffffffffff048311821515161561394957613948613192565b5b828202905092915050565b7f536166654d6174683a206d756c7469706c69636174696f6e206f766572666c6f60008201527f7700000000000000000000000000000000000000000000000000000000000000602082015250565b60006139b06021836129fe565b91506139bb82613954565b604082019050919050565b600060208201905081810360008301526139df816139a3565b905091905056fe45524332303a207472616e7366657220616d6f756e74206578636565647320616c6c6f77616e6365a2646970667358221220164b08086ab450f8593650ff9c4d1934981ff200c51fd821339b0616ebad9c6164736f6c634300080d0033",
					"opcodes": "PUSH1 0x80 PUSH1 0x40 MSTORE PUSH8 0xDE0B6B3A7640000 PUSH5 0x14F46B0400 PUSH3 0x1F SWAP2 SWAP1 PUSH3 0x538 JUMP JUMPDEST PUSH5 0x14F46B0400 PUSH3 0x31 SWAP2 SWAP1 PUSH3 0x59F JUMP JUMPDEST PUSH1 0x6 SSTORE PUSH1 0x1 PUSH1 0x8 SSTORE PUSH1 0x4 PUSH1 0x9 SSTORE PUSH1 0x1 PUSH1 0xA SSTORE PUSH1 0x1 PUSH1 0xB SSTORE PUSH20 0x8492CBD894686D7E98214541903C7BA6F94928D6 PUSH1 0xE PUSH1 0x0 PUSH2 0x100 EXP DUP2 SLOAD DUP2 PUSH20 0xFFFFFFFFFFFFFFFFFFFFFFFFFFFFFFFFFFFFFFFF MUL NOT AND SWAP1 DUP4 PUSH20 0xFFFFFFFFFFFFFFFFFFFFFFFFFFFFFFFFFFFFFFFF AND MUL OR SWAP1 SSTORE POP PUSH20 0xA4ED7AA4EF5DEB0A63E97D9CB77445AE553FEB1D PUSH1 0xF PUSH1 0x0 PUSH2 0x100 EXP DUP2 SLOAD DUP2 PUSH20 0xFFFFFFFFFFFFFFFFFFFFFFFFFFFFFFFFFFFFFFFF MUL NOT AND SWAP1 DUP4 PUSH20 0xFFFFFFFFFFFFFFFFFFFFFFFFFFFFFFFFFFFFFFFF AND MUL OR SWAP1 SSTORE POP PUSH1 0x0 PUSH1 0x12 PUSH1 0x14 PUSH2 0x100 EXP DUP2 SLOAD DUP2 PUSH1 0xFF MUL NOT AND SWAP1 DUP4 ISZERO ISZERO MUL OR SWAP1 SSTORE POP PUSH1 0x1 PUSH1 0x12 PUSH1 0x15 PUSH2 0x100 EXP DUP2 SLOAD DUP2 PUSH1 0xFF MUL NOT AND SWAP1 DUP4 ISZERO ISZERO MUL OR SWAP1 SSTORE POP CALLVALUE DUP1 ISZERO PUSH3 0x135 JUMPI PUSH1 0x0 DUP1 REVERT JUMPDEST POP PUSH1 0x0 PUSH3 0x148 PUSH3 0x4CE PUSH1 0x20 SHL PUSH1 0x20 SHR JUMP JUMPDEST SWAP1 POP DUP1 PUSH1 0x0 DUP1 PUSH2 0x100 EXP DUP2 SLOAD DUP2 PUSH20 0xFFFFFFFFFFFFFFFFFFFFFFFFFFFFFFFFFFFFFFFF MUL NOT AND SWAP1 DUP4 PUSH20 0xFFFFFFFFFFFFFFFFFFFFFFFFFFFFFFFFFFFFFFFF AND MUL OR SWAP1 SSTORE POP DUP1 PUSH20 0xFFFFFFFFFFFFFFFFFFFFFFFFFFFFFFFFFFFFFFFF AND PUSH1 0x0 PUSH20 0xFFFFFFFFFFFFFFFFFFFFFFFFFFFFFFFFFFFFFFFF AND PUSH32 0x8BE0079C531659141344CD1FD0A4F28419497F9722A3DAAFE3B4186F6B6457E0 PUSH1 0x40 MLOAD PUSH1 0x40 MLOAD DUP1 SWAP2 SUB SWAP1 LOG3 POP PUSH1 0x6 SLOAD PUSH1 0x2 PUSH1 0x0 PUSH3 0x1FD PUSH3 0x4CE PUSH1 0x20 SHL PUSH1 0x20 SHR JUMP JUMPDEST PUSH20 0xFFFFFFFFFFFFFFFFFFFFFFFFFFFFFFFFFFFFFFFF AND PUSH20 0xFFFFFFFFFFFFFFFFFFFFFFFFFFFFFFFFFFFFFFFF AND DUP2 MSTORE PUSH1 0x20 ADD SWAP1 DUP2 MSTORE PUSH1 0x20 ADD PUSH1 0x0 KECCAK256 DUP2 SWAP1 SSTORE POP PUSH1 0x0 PUSH20 0x10ED43C718714EB63D5AA57B78B54704E256024E SWAP1 POP DUP1 PUSH1 0x10 PUSH1 0x0 PUSH2 0x100 EXP DUP2 SLOAD DUP2 PUSH20 0xFFFFFFFFFFFFFFFFFFFFFFFFFFFFFFFFFFFFFFFF MUL NOT AND SWAP1 DUP4 PUSH20 0xFFFFFFFFFFFFFFFFFFFFFFFFFFFFFFFFFFFFFFFF AND MUL OR SWAP1 SSTORE POP PUSH1 0x1 PUSH1 0x5 PUSH1 0x0 PUSH3 0x2AB PUSH3 0x4D6 PUSH1 0x20 SHL PUSH1 0x20 SHR JUMP JUMPDEST PUSH20 0xFFFFFFFFFFFFFFFFFFFFFFFFFFFFFFFFFFFFFFFF AND PUSH20 0xFFFFFFFFFFFFFFFFFFFFFFFFFFFFFFFFFFFFFFFF AND DUP2 MSTORE PUSH1 0x20 ADD SWAP1 DUP2 MSTORE PUSH1 0x20 ADD PUSH1 0x0 KECCAK256 PUSH1 0x0 PUSH2 0x100 EXP DUP2 SLOAD DUP2 PUSH1 0xFF MUL NOT AND SWAP1 DUP4 ISZERO ISZERO MUL OR SWAP1 SSTORE POP PUSH1 0x1 PUSH1 0x5 PUSH1 0x0 ADDRESS PUSH20 0xFFFFFFFFFFFFFFFFFFFFFFFFFFFFFFFFFFFFFFFF AND PUSH20 0xFFFFFFFFFFFFFFFFFFFFFFFFFFFFFFFFFFFFFFFF AND DUP2 MSTORE PUSH1 0x20 ADD SWAP1 DUP2 MSTORE PUSH1 0x20 ADD PUSH1 0x0 KECCAK256 PUSH1 0x0 PUSH2 0x100 EXP DUP2 SLOAD DUP2 PUSH1 0xFF MUL NOT AND SWAP1 DUP4 ISZERO ISZERO MUL OR SWAP1 SSTORE POP PUSH1 0x1 PUSH1 0x5 PUSH1 0x0 PUSH1 0xE PUSH1 0x0 SWAP1 SLOAD SWAP1 PUSH2 0x100 EXP SWAP1 DIV PUSH20 0xFFFFFFFFFFFFFFFFFFFFFFFFFFFFFFFFFFFFFFFF AND PUSH20 0xFFFFFFFFFFFFFFFFFFFFFFFFFFFFFFFFFFFFFFFF AND PUSH20 0xFFFFFFFFFFFFFFFFFFFFFFFFFFFFFFFFFFFFFFFF AND DUP2 MSTORE PUSH1 0x20 ADD SWAP1 DUP2 MSTORE PUSH1 0x20 ADD PUSH1 0x0 KECCAK256 PUSH1 0x0 PUSH2 0x100 EXP DUP2 SLOAD DUP2 PUSH1 0xFF MUL NOT AND SWAP1 DUP4 ISZERO ISZERO MUL OR SWAP1 SSTORE POP PUSH1 0x1 PUSH1 0x5 PUSH1 0x0 PUSH1 0xF PUSH1 0x0 SWAP1 SLOAD SWAP1 PUSH2 0x100 EXP SWAP1 DIV PUSH20 0xFFFFFFFFFFFFFFFFFFFFFFFFFFFFFFFFFFFFFFFF AND PUSH20 0xFFFFFFFFFFFFFFFFFFFFFFFFFFFFFFFFFFFFFFFF AND PUSH20 0xFFFFFFFFFFFFFFFFFFFFFFFFFFFFFFFFFFFFFFFF AND DUP2 MSTORE PUSH1 0x20 ADD SWAP1 DUP2 MSTORE PUSH1 0x20 ADD PUSH1 0x0 KECCAK256 PUSH1 0x0 PUSH2 0x100 EXP DUP2 SLOAD DUP2 PUSH1 0xFF MUL NOT AND SWAP1 DUP4 ISZERO ISZERO MUL OR SWAP1 SSTORE POP PUSH3 0x458 PUSH3 0x4CE PUSH1 0x20 SHL PUSH1 0x20 SHR JUMP JUMPDEST PUSH20 0xFFFFFFFFFFFFFFFFFFFFFFFFFFFFFFFFFFFFFFFF AND PUSH1 0x0 PUSH20 0xFFFFFFFFFFFFFFFFFFFFFFFFFFFFFFFFFFFFFFFF AND PUSH32 0xDDF252AD1BE2C89B69C2B068FC378DAA952BA7F163C4A11628F55A4DF523B3EF PUSH8 0xDE0B6B3A7640000 PUSH1 0x40 MLOAD PUSH3 0x4BF SWAP2 SWAP1 PUSH3 0x5EB JUMP JUMPDEST PUSH1 0x40 MLOAD DUP1 SWAP2 SUB SWAP1 LOG3 POP PUSH3 0x608 JUMP JUMPDEST PUSH1 0x0 CALLER SWAP1 POP SWAP1 JUMP JUMPDEST PUSH1 0x0 DUP1 PUSH1 0x0 SWAP1 SLOAD SWAP1 PUSH2 0x100 EXP SWAP1 DIV PUSH20 0xFFFFFFFFFFFFFFFFFFFFFFFFFFFFFFFFFFFFFFFF AND SWAP1 POP SWAP1 JUMP JUMPDEST PUSH1 0x0 DUP2 SWAP1 POP SWAP2 SWAP1 POP JUMP JUMPDEST PUSH32 0x4E487B7100000000000000000000000000000000000000000000000000000000 PUSH1 0x0 MSTORE PUSH1 0x12 PUSH1 0x4 MSTORE PUSH1 0x24 PUSH1 0x0 REVERT JUMPDEST PUSH1 0x0 PUSH3 0x545 DUP3 PUSH3 0x4FF JUMP JUMPDEST SWAP2 POP PUSH3 0x552 DUP4 PUSH3 0x4FF JUMP JUMPDEST SWAP3 POP DUP3 PUSH3 0x565 JUMPI PUSH3 0x564 PUSH3 0x509 JUMP JUMPDEST JUMPDEST DUP3 DUP3 MOD SWAP1 POP SWAP3 SWAP2 POP POP JUMP JUMPDEST PUSH32 0x4E487B7100000000000000000000000000000000000000000000000000000000 PUSH1 0x0 MSTORE PUSH1 0x11 PUSH1 0x4 MSTORE PUSH1 0x24 PUSH1 0x0 REVERT JUMPDEST PUSH1 0x0 PUSH3 0x5AC DUP3 PUSH3 0x4FF JUMP JUMPDEST SWAP2 POP PUSH3 0x5B9 DUP4 PUSH3 0x4FF JUMP JUMPDEST SWAP3 POP DUP3 DUP3 LT ISZERO PUSH3 0x5CF JUMPI PUSH3 0x5CE PUSH3 0x570 JUMP JUMPDEST JUMPDEST DUP3 DUP3 SUB SWAP1 POP SWAP3 SWAP2 POP POP JUMP JUMPDEST PUSH3 0x5E5 DUP2 PUSH3 0x4FF JUMP JUMPDEST DUP3 MSTORE POP POP JUMP JUMPDEST PUSH1 0x0 PUSH1 0x20 DUP3 ADD SWAP1 POP PUSH3 0x602 PUSH1 0x0 DUP4 ADD DUP5 PUSH3 0x5DA JUMP JUMPDEST SWAP3 SWAP2 POP POP JUMP JUMPDEST PUSH2 0x3A44 DUP1 PUSH3 0x618 PUSH1 0x0 CODECOPY PUSH1 0x0 RETURN INVALID PUSH1 0x80 PUSH1 0x40 MSTORE PUSH1 0x4 CALLDATASIZE LT PUSH2 0x14F JUMPI PUSH1 0x0 CALLDATALOAD PUSH1 0xE0 SHR DUP1 PUSH4 0x715018A6 GT PUSH2 0xB6 JUMPI DUP1 PUSH4 0xAAD5C023 GT PUSH2 0x6F JUMPI DUP1 PUSH4 0xAAD5C023 EQ PUSH2 0x47B JUMPI DUP1 PUSH4 0xC3C8CD80 EQ PUSH2 0x4A4 JUMPI DUP1 PUSH4 0xC492F046 EQ PUSH2 0x4BB JUMPI DUP1 PUSH4 0xDD62ED3E EQ PUSH2 0x4E4 JUMPI DUP1 PUSH4 0xE293D316 EQ PUSH2 0x521 JUMPI DUP1 PUSH4 0xF2FDE38B EQ PUSH2 0x54A JUMPI PUSH2 0x156 JUMP JUMPDEST DUP1 PUSH4 0x715018A6 EQ PUSH2 0x37F JUMPI DUP1 PUSH4 0x758DBE03 EQ PUSH2 0x396 JUMPI DUP1 PUSH4 0x8DA5CB5B EQ PUSH2 0x3BF JUMPI DUP1 PUSH4 0x95D89B41 EQ PUSH2 0x3EA JUMPI DUP1 PUSH4 0xA2A957BB EQ PUSH2 0x415 JUMPI DUP1 PUSH4 0xA9059CBB EQ PUSH2 0x43E JUMPI PUSH2 0x156 JUMP JUMPDEST DUP1 PUSH4 0x49BD5A5E GT PUSH2 0x108 JUMPI DUP1 PUSH4 0x49BD5A5E EQ PUSH2 0x281 JUMPI DUP1 PUSH4 0x504563C0 EQ PUSH2 0x2AC JUMPI DUP1 PUSH4 0x59D0F713 EQ PUSH2 0x2D7 JUMPI DUP1 PUSH4 0x6D8AA8F8 EQ PUSH2 0x302 JUMPI DUP1 PUSH4 0x6FC3EAEC EQ PUSH2 0x32B JUMPI DUP1 PUSH4 0x70A08231 EQ PUSH2 0x342 JUMPI PUSH2 0x156 JUMP JUMPDEST DUP1 PUSH4 0x6FDDE03 EQ PUSH2 0x15B JUMPI DUP1 PUSH4 0x95EA7B3 EQ PUSH2 0x186 JUMPI DUP1 PUSH4 0x1694505E EQ PUSH2 0x1C3 JUMPI DUP1 PUSH4 0x18160DDD EQ PUSH2 0x1EE JUMPI DUP1 PUSH4 0x23B872DD EQ PUSH2 0x219 JUMPI DUP1 PUSH4 0x313CE567 EQ PUSH2 0x256 JUMPI PUSH2 0x156 JUMP JUMPDEST CALLDATASIZE PUSH2 0x156 JUMPI STOP JUMPDEST PUSH1 0x0 DUP1 REVERT JUMPDEST CALLVALUE DUP1 ISZERO PUSH2 0x167 JUMPI PUSH1 0x0 DUP1 REVERT JUMPDEST POP PUSH2 0x170 PUSH2 0x573 JUMP JUMPDEST PUSH1 0x40 MLOAD PUSH2 0x17D SWAP2 SWAP1 PUSH2 0x2A8C JUMP JUMPDEST PUSH1 0x40 MLOAD DUP1 SWAP2 SUB SWAP1 RETURN JUMPDEST CALLVALUE DUP1 ISZERO PUSH2 0x192 JUMPI PUSH1 0x0 DUP1 REVERT JUMPDEST POP PUSH2 0x1AD PUSH1 0x4 DUP1 CALLDATASIZE SUB DUP2 ADD SWAP1 PUSH2 0x1A8 SWAP2 SWAP1 PUSH2 0x2B4C JUMP JUMPDEST PUSH2 0x5B0 JUMP JUMPDEST PUSH1 0x40 MLOAD PUSH2 0x1BA SWAP2 SWAP1 PUSH2 0x2BA7 JUMP JUMPDEST PUSH1 0x40 MLOAD DUP1 SWAP2 SUB SWAP1 RETURN JUMPDEST CALLVALUE DUP1 ISZERO PUSH2 0x1CF JUMPI PUSH1 0x0 DUP1 REVERT JUMPDEST POP PUSH2 0x1D8 PUSH2 0x5CE JUMP JUMPDEST PUSH1 0x40 MLOAD PUSH2 0x1E5 SWAP2 SWAP1 PUSH2 0x2C21 JUMP JUMPDEST PUSH1 0x40 MLOAD DUP1 SWAP2 SUB SWAP1 RETURN JUMPDEST CALLVALUE DUP1 ISZERO PUSH2 0x1FA JUMPI PUSH1 0x0 DUP1 REVERT JUMPDEST POP PUSH2 0x203 PUSH2 0x5F4 JUMP JUMPDEST PUSH1 0x40 MLOAD PUSH2 0x210 SWAP2 SWAP1 PUSH2 0x2C4B JUMP JUMPDEST PUSH1 0x40 MLOAD DUP1 SWAP2 SUB SWAP1 RETURN JUMPDEST CALLVALUE DUP1 ISZERO PUSH2 0x225 JUMPI PUSH1 0x0 DUP1 REVERT JUMPDEST POP PUSH2 0x240 PUSH1 0x4 DUP1 CALLDATASIZE SUB DUP2 ADD SWAP1 PUSH2 0x23B SWAP2 SWAP1 PUSH2 0x2C66 JUMP JUMPDEST PUSH2 0x604 JUMP JUMPDEST PUSH1 0x40 MLOAD PUSH2 0x24D SWAP2 SWAP1 PUSH2 0x2BA7 JUMP JUMPDEST PUSH1 0x40 MLOAD DUP1 SWAP2 SUB SWAP1 RETURN JUMPDEST CALLVALUE DUP1 ISZERO PUSH2 0x262 JUMPI PUSH1 0x0 DUP1 REVERT JUMPDEST POP PUSH2 0x26B PUSH2 0x6DD JUMP JUMPDEST PUSH1 0x40 MLOAD PUSH2 0x278 SWAP2 SWAP1 PUSH2 0x2CD5 JUMP JUMPDEST PUSH1 0x40 MLOAD DUP1 SWAP2 SUB SWAP1 RETURN JUMPDEST CALLVALUE DUP1 ISZERO PUSH2 0x28D JUMPI PUSH1 0x0 DUP1 REVERT JUMPDEST POP PUSH2 0x296 PUSH2 0x6E6 JUMP JUMPDEST PUSH1 0x40 MLOAD PUSH2 0x2A3 SWAP2 SWAP1 PUSH2 0x2CFF JUMP JUMPDEST PUSH1 0x40 MLOAD DUP1 SWAP2 SUB SWAP1 RETURN JUMPDEST CALLVALUE DUP1 ISZERO PUSH2 0x2B8 JUMPI PUSH1 0x0 DUP1 REVERT JUMPDEST POP PUSH2 0x2C1 PUSH2 0x70C JUMP JUMPDEST PUSH1 0x40 MLOAD PUSH2 0x2CE SWAP2 SWAP1 PUSH2 0x2C21 JUMP JUMPDEST PUSH1 0x40 MLOAD DUP1 SWAP2 SUB SWAP1 RETURN JUMPDEST CALLVALUE DUP1 ISZERO PUSH2 0x2E3 JUMPI PUSH1 0x0 DUP1 REVERT JUMPDEST POP PUSH2 0x2EC PUSH2 0x736 JUMP JUMPDEST PUSH1 0x40 MLOAD PUSH2 0x2F9 SWAP2 SWAP1 PUSH2 0x2D3B JUMP JUMPDEST PUSH1 0x40 MLOAD DUP1 SWAP2 SUB SWAP1 RETURN JUMPDEST CALLVALUE DUP1 ISZERO PUSH2 0x30E JUMPI PUSH1 0x0 DUP1 REVERT JUMPDEST POP PUSH2 0x329 PUSH1 0x4 DUP1 CALLDATASIZE SUB DUP2 ADD SWAP1 PUSH2 0x324 SWAP2 SWAP1 PUSH2 0x2D82 JUMP JUMPDEST PUSH2 0x75C JUMP JUMPDEST STOP JUMPDEST CALLVALUE DUP1 ISZERO PUSH2 0x337 JUMPI PUSH1 0x0 DUP1 REVERT JUMPDEST POP PUSH2 0x340 PUSH2 0x854 JUMP JUMPDEST STOP JUMPDEST CALLVALUE DUP1 ISZERO PUSH2 0x34E JUMPI PUSH1 0x0 DUP1 REVERT JUMPDEST POP PUSH2 0x369 PUSH1 0x4 DUP1 CALLDATASIZE SUB DUP2 ADD SWAP1 PUSH2 0x364 SWAP2 SWAP1 PUSH2 0x2DAF JUMP JUMPDEST PUSH2 0x969 JUMP JUMPDEST PUSH1 0x40 MLOAD PUSH2 0x376 SWAP2 SWAP1 PUSH2 0x2C4B JUMP JUMPDEST PUSH1 0x40 MLOAD DUP1 SWAP2 SUB SWAP1 RETURN JUMPDEST CALLVALUE DUP1 ISZERO PUSH2 0x38B JUMPI PUSH1 0x0 DUP1 REVERT JUMPDEST POP PUSH2 0x394 PUSH2 0x9BA JUMP JUMPDEST STOP JUMPDEST CALLVALUE DUP1 ISZERO PUSH2 0x3A2 JUMPI PUSH1 0x0 DUP1 REVERT JUMPDEST POP PUSH2 0x3BD PUSH1 0x4 DUP1 CALLDATASIZE SUB DUP2 ADD SWAP1 PUSH2 0x3B8 SWAP2 SWAP1 PUSH2 0x2E1A JUMP JUMPDEST PUSH2 0xB0D JUMP JUMPDEST STOP JUMPDEST CALLVALUE DUP1 ISZERO PUSH2 0x3CB JUMPI PUSH1 0x0 DUP1 REVERT JUMPDEST POP PUSH2 0x3D4 PUSH2 0xD22 JUMP JUMPDEST PUSH1 0x40 MLOAD PUSH2 0x3E1 SWAP2 SWAP1 PUSH2 0x2CFF JUMP JUMPDEST PUSH1 0x40 MLOAD DUP1 SWAP2 SUB SWAP1 RETURN JUMPDEST CALLVALUE DUP1 ISZERO PUSH2 0x3F6 JUMPI PUSH1 0x0 DUP1 REVERT JUMPDEST POP PUSH2 0x3FF PUSH2 0xD4B JUMP JUMPDEST PUSH1 0x40 MLOAD PUSH2 0x40C SWAP2 SWAP1 PUSH2 0x2A8C JUMP JUMPDEST PUSH1 0x40 MLOAD DUP1 SWAP2 SUB SWAP1 RETURN JUMPDEST CALLVALUE DUP1 ISZERO PUSH2 0x421 JUMPI PUSH1 0x0 DUP1 REVERT JUMPDEST POP PUSH2 0x43C PUSH1 0x4 DUP1 CALLDATASIZE SUB DUP2 ADD SWAP1 PUSH2 0x437 SWAP2 SWAP1 PUSH2 0x2E47 JUMP JUMPDEST PUSH2 0xD88 JUMP JUMPDEST STOP JUMPDEST CALLVALUE DUP1 ISZERO PUSH2 0x44A JUMPI PUSH1 0x0 DUP1 REVERT JUMPDEST POP PUSH2 0x465 PUSH1 0x4 DUP1 CALLDATASIZE SUB DUP2 ADD SWAP1 PUSH2 0x460 SWAP2 SWAP1 PUSH2 0x2B4C JUMP JUMPDEST PUSH2 0xF91 JUMP JUMPDEST PUSH1 0x40 MLOAD PUSH2 0x472 SWAP2 SWAP1 PUSH2 0x2BA7 JUMP JUMPDEST PUSH1 0x40 MLOAD DUP1 SWAP2 SUB SWAP1 RETURN JUMPDEST CALLVALUE DUP1 ISZERO PUSH2 0x487 JUMPI PUSH1 0x0 DUP1 REVERT JUMPDEST POP PUSH2 0x4A2 PUSH1 0x4 DUP1 CALLDATASIZE SUB DUP2 ADD SWAP1 PUSH2 0x49D SWAP2 SWAP1 PUSH2 0x2E1A JUMP JUMPDEST PUSH2 0xFAF JUMP JUMPDEST STOP JUMPDEST CALLVALUE DUP1 ISZERO PUSH2 0x4B0 JUMPI PUSH1 0x0 DUP1 REVERT JUMPDEST POP PUSH2 0x4B9 PUSH2 0x11C4 JUMP JUMPDEST STOP JUMPDEST CALLVALUE DUP1 ISZERO PUSH2 0x4C7 JUMPI PUSH1 0x0 DUP1 REVERT JUMPDEST POP PUSH2 0x4E2 PUSH1 0x4 DUP1 CALLDATASIZE SUB DUP2 ADD SWAP1 PUSH2 0x4DD SWAP2 SWAP1 PUSH2 0x2F13 JUMP JUMPDEST PUSH2 0x12E1 JUMP JUMPDEST STOP JUMPDEST CALLVALUE DUP1 ISZERO PUSH2 0x4F0 JUMPI PUSH1 0x0 DUP1 REVERT JUMPDEST POP PUSH2 0x50B PUSH1 0x4 DUP1 CALLDATASIZE SUB DUP2 ADD SWAP1 PUSH2 0x506 SWAP2 SWAP1 PUSH2 0x2F73 JUMP JUMPDEST PUSH2 0x141B JUMP JUMPDEST PUSH1 0x40 MLOAD PUSH2 0x518 SWAP2 SWAP1 PUSH2 0x2C4B JUMP JUMPDEST PUSH1 0x40 MLOAD DUP1 SWAP2 SUB SWAP1 RETURN JUMPDEST CALLVALUE DUP1 ISZERO PUSH2 0x52D JUMPI PUSH1 0x0 DUP1 REVERT JUMPDEST POP PUSH2 0x548 PUSH1 0x4 DUP1 CALLDATASIZE SUB DUP2 ADD SWAP1 PUSH2 0x543 SWAP2 SWAP1 PUSH2 0x2C66 JUMP JUMPDEST PUSH2 0x14A2 JUMP JUMPDEST STOP JUMPDEST CALLVALUE DUP1 ISZERO PUSH2 0x556 JUMPI PUSH1 0x0 DUP1 REVERT JUMPDEST POP PUSH2 0x571 PUSH1 0x4 DUP1 CALLDATASIZE SUB DUP2 ADD SWAP1 PUSH2 0x56C SWAP2 SWAP1 PUSH2 0x2DAF JUMP JUMPDEST PUSH2 0x1666 JUMP JUMPDEST STOP JUMPDEST PUSH1 0x60 PUSH1 0x40 MLOAD DUP1 PUSH1 0x40 ADD PUSH1 0x40 MSTORE DUP1 PUSH1 0xA DUP2 MSTORE PUSH1 0x20 ADD PUSH32 0x576F726C64205374657000000000000000000000000000000000000000000000 DUP2 MSTORE POP SWAP1 POP SWAP1 JUMP JUMPDEST PUSH1 0x0 PUSH2 0x5C4 PUSH2 0x5BD PUSH2 0x17B8 JUMP JUMPDEST DUP5 DUP5 PUSH2 0x17C0 JUMP JUMPDEST PUSH1 0x1 SWAP1 POP SWAP3 SWAP2 POP POP JUMP JUMPDEST PUSH1 0x10 PUSH1 0x0 SWAP1 SLOAD SWAP1 PUSH2 0x100 EXP SWAP1 DIV PUSH20 0xFFFFFFFFFFFFFFFFFFFFFFFFFFFFFFFFFFFFFFFF AND DUP2 JUMP JUMPDEST PUSH1 0x0 PUSH8 0xDE0B6B3A7640000 SWAP1 POP SWAP1 JUMP JUMPDEST PUSH1 0x0 PUSH2 0x611 DUP5 DUP5 DUP5 PUSH2 0x1989 JUMP JUMPDEST PUSH2 0x6D2 DUP5 PUSH2 0x61D PUSH2 0x17B8 JUMP JUMPDEST PUSH2 0x6CD DUP6 PUSH1 0x40 MLOAD DUP1 PUSH1 0x60 ADD PUSH1 0x40 MSTORE DUP1 PUSH1 0x28 DUP2 MSTORE PUSH1 0x20 ADD PUSH2 0x39E7 PUSH1 0x28 SWAP2 CODECOPY PUSH1 0x4 PUSH1 0x0 DUP12 PUSH20 0xFFFFFFFFFFFFFFFFFFFFFFFFFFFFFFFFFFFFFFFF AND PUSH20 0xFFFFFFFFFFFFFFFFFFFFFFFFFFFFFFFFFFFFFFFF AND DUP2 MSTORE PUSH1 0x20 ADD SWAP1 DUP2 MSTORE PUSH1 0x20 ADD PUSH1 0x0 KECCAK256 PUSH1 0x0 PUSH2 0x683 PUSH2 0x17B8 JUMP JUMPDEST PUSH20 0xFFFFFFFFFFFFFFFFFFFFFFFFFFFFFFFFFFFFFFFF AND PUSH20 0xFFFFFFFFFFFFFFFFFFFFFFFFFFFFFFFFFFFFFFFF AND DUP2 MSTORE PUSH1 0x20 ADD SWAP1 DUP2 MSTORE PUSH1 0x20 ADD PUSH1 0x0 KECCAK256 SLOAD PUSH2 0x1EFB SWAP1 SWAP3 SWAP2 SWAP1 PUSH4 0xFFFFFFFF AND JUMP JUMPDEST PUSH2 0x17C0 JUMP JUMPDEST PUSH1 0x1 SWAP1 POP SWAP4 SWAP3 POP POP POP JUMP JUMPDEST PUSH1 0x0 PUSH1 0x9 SWAP1 POP SWAP1 JUMP JUMPDEST PUSH1 0x12 PUSH1 0x0 SWAP1 SLOAD SWAP1 PUSH2 0x100 EXP SWAP1 DIV PUSH20 0xFFFFFFFFFFFFFFFFFFFFFFFFFFFFFFFFFFFFFFFF AND DUP2 JUMP JUMPDEST PUSH1 0x0 PUSH1 0x10 PUSH1 0x0 SWAP1 SLOAD SWAP1 PUSH2 0x100 EXP SWAP1 DIV PUSH20 0xFFFFFFFFFFFFFFFFFFFFFFFFFFFFFFFFFFFFFFFF AND SWAP1 POP SWAP1 JUMP JUMPDEST PUSH1 0x11 PUSH1 0x0 SWAP1 SLOAD SWAP1 PUSH2 0x100 EXP SWAP1 DIV PUSH20 0xFFFFFFFFFFFFFFFFFFFFFFFFFFFFFFFFFFFFFFFF AND DUP2 JUMP JUMPDEST PUSH2 0x764 PUSH2 0x17B8 JUMP JUMPDEST PUSH20 0xFFFFFFFFFFFFFFFFFFFFFFFFFFFFFFFFFFFFFFFF AND PUSH2 0x782 PUSH2 0xD22 JUMP JUMPDEST PUSH20 0xFFFFFFFFFFFFFFFFFFFFFFFFFFFFFFFFFFFFFFFF AND EQ DUP1 PUSH2 0x7F8 JUMPI POP PUSH2 0x7A7 PUSH2 0x17B8 JUMP JUMPDEST PUSH20 0xFFFFFFFFFFFFFFFFFFFFFFFFFFFFFFFFFFFFFFFF AND PUSH1 0xE PUSH1 0x0 SWAP1 SLOAD SWAP1 PUSH2 0x100 EXP SWAP1 DIV PUSH20 0xFFFFFFFFFFFFFFFFFFFFFFFFFFFFFFFFFFFFFFFF AND PUSH20 0xFFFFFFFFFFFFFFFFFFFFFFFFFFFFFFFFFFFFFFFF AND EQ JUMPDEST PUSH2 0x837 JUMPI PUSH1 0x40 MLOAD PUSH32 0x8C379A000000000000000000000000000000000000000000000000000000000 DUP2 MSTORE PUSH1 0x4 ADD PUSH2 0x82E SWAP1 PUSH2 0x2FFF JUMP JUMPDEST PUSH1 0x40 MLOAD DUP1 SWAP2 SUB SWAP1 REVERT JUMPDEST DUP1 PUSH1 0x12 PUSH1 0x15 PUSH2 0x100 EXP DUP2 SLOAD DUP2 PUSH1 0xFF MUL NOT AND SWAP1 DUP4 ISZERO ISZERO MUL OR SWAP1 SSTORE POP POP JUMP JUMPDEST PUSH1 0xE PUSH1 0x0 SWAP1 SLOAD SWAP1 PUSH2 0x100 EXP SWAP1 DIV PUSH20 0xFFFFFFFFFFFFFFFFFFFFFFFFFFFFFFFFFFFFFFFF AND PUSH20 0xFFFFFFFFFFFFFFFFFFFFFFFFFFFFFFFFFFFFFFFF AND PUSH2 0x895 PUSH2 0x17B8 JUMP JUMPDEST PUSH20 0xFFFFFFFFFFFFFFFFFFFFFFFFFFFFFFFFFFFFFFFF AND EQ DUP1 PUSH2 0x90B JUMPI POP PUSH1 0xF PUSH1 0x0 SWAP1 SLOAD SWAP1 PUSH2 0x100 EXP SWAP1 DIV PUSH20 0xFFFFFFFFFFFFFFFFFFFFFFFFFFFFFFFFFFFFFFFF AND PUSH20 0xFFFFFFFFFFFFFFFFFFFFFFFFFFFFFFFFFFFFFFFF AND PUSH2 0x8F3 PUSH2 0x17B8 JUMP JUMPDEST PUSH20 0xFFFFFFFFFFFFFFFFFFFFFFFFFFFFFFFFFFFFFFFF AND EQ JUMPDEST DUP1 PUSH2 0x94F JUMPI POP PUSH2 0x919 PUSH2 0xD22 JUMP JUMPDEST PUSH20 0xFFFFFFFFFFFFFFFFFFFFFFFFFFFFFFFFFFFFFFFF AND PUSH2 0x937 PUSH2 0x17B8 JUMP JUMPDEST PUSH20 0xFFFFFFFFFFFFFFFFFFFFFFFFFFFFFFFFFFFFFFFF AND EQ JUMPDEST PUSH2 0x958 JUMPI PUSH1 0x0 DUP1 REVERT JUMPDEST PUSH1 0x0 SELFBALANCE SWAP1 POP PUSH2 0x966 DUP2 PUSH2 0x1F5F JUMP JUMPDEST POP JUMP JUMPDEST PUSH1 0x0 PUSH2 0x9B3 PUSH1 0x2 PUSH1 0x0 DUP5 PUSH20 0xFFFFFFFFFFFFFFFFFFFFFFFFFFFFFFFFFFFFFFFF AND PUSH20 0xFFFFFFFFFFFFFFFFFFFFFFFFFFFFFFFFFFFFFFFF AND DUP2 MSTORE PUSH1 0x20 ADD SWAP1 DUP2 MSTORE PUSH1 0x20 ADD PUSH1 0x0 KECCAK256 SLOAD PUSH2 0x205A JUMP JUMPDEST SWAP1 POP SWAP2 SWAP1 POP JUMP JUMPDEST PUSH2 0x9C2 PUSH2 0x17B8 JUMP JUMPDEST PUSH20 0xFFFFFFFFFFFFFFFFFFFFFFFFFFFFFFFFFFFFFFFF AND PUSH1 0x0 DUP1 SLOAD SWAP1 PUSH2 0x100 EXP SWAP1 DIV PUSH20 0xFFFFFFFFFFFFFFFFFFFFFFFFFFFFFFFFFFFFFFFF AND PUSH20 0xFFFFFFFFFFFFFFFFFFFFFFFFFFFFFFFFFFFFFFFF AND EQ PUSH2 0xA4F JUMPI PUSH1 0x40 MLOAD PUSH32 0x8C379A000000000000000000000000000000000000000000000000000000000 DUP2 MSTORE PUSH1 0x4 ADD PUSH2 0xA46 SWAP1 PUSH2 0x306B JUMP JUMPDEST PUSH1 0x40 MLOAD DUP1 SWAP2 SUB SWAP1 REVERT JUMPDEST PUSH1 0x0 PUSH20 0xFFFFFFFFFFFFFFFFFFFFFFFFFFFFFFFFFFFFFFFF AND PUSH1 0x0 DUP1 SLOAD SWAP1 PUSH2 0x100 EXP SWAP1 DIV PUSH20 0xFFFFFFFFFFFFFFFFFFFFFFFFFFFFFFFFFFFFFFFF AND PUSH20 0xFFFFFFFFFFFFFFFFFFFFFFFFFFFFFFFFFFFFFFFF AND PUSH32 0x8BE0079C531659141344CD1FD0A4F28419497F9722A3DAAFE3B4186F6B6457E0 PUSH1 0x40 MLOAD PUSH1 0x40 MLOAD DUP1 SWAP2 SUB SWAP1 LOG3 PUSH1 0x0 DUP1 PUSH1 0x0 PUSH2 0x100 EXP DUP2 SLOAD DUP2 PUSH20 0xFFFFFFFFFFFFFFFFFFFFFFFFFFFFFFFFFFFFFFFF MUL NOT AND SWAP1 DUP4 PUSH20 0xFFFFFFFFFFFFFFFFFFFFFFFFFFFFFFFFFFFFFFFF AND MUL OR SWAP1 SSTORE POP JUMP JUMPDEST PUSH2 0xB15 PUSH2 0x17B8 JUMP JUMPDEST PUSH20 0xFFFFFFFFFFFFFFFFFFFFFFFFFFFFFFFFFFFFFFFF AND PUSH2 0xB33 PUSH2 0xD22 JUMP JUMPDEST PUSH20 0xFFFFFFFFFFFFFFFFFFFFFFFFFFFFFFFFFFFFFFFF AND EQ DUP1 PUSH2 0xBA9 JUMPI POP PUSH2 0xB58 PUSH2 0x17B8 JUMP JUMPDEST PUSH20 0xFFFFFFFFFFFFFFFFFFFFFFFFFFFFFFFFFFFFFFFF AND PUSH1 0xE PUSH1 0x0 SWAP1 SLOAD SWAP1 PUSH2 0x100 EXP SWAP1 DIV PUSH20 0xFFFFFFFFFFFFFFFFFFFFFFFFFFFFFFFFFFFFFFFF AND PUSH20 0xFFFFFFFFFFFFFFFFFFFFFFFFFFFFFFFFFFFFFFFF AND EQ JUMPDEST PUSH2 0xBE8 JUMPI PUSH1 0x40 MLOAD PUSH32 0x8C379A000000000000000000000000000000000000000000000000000000000 DUP2 MSTORE PUSH1 0x4 ADD PUSH2 0xBDF SWAP1 PUSH2 0x2FFF JUMP JUMPDEST PUSH1 0x40 MLOAD DUP1 SWAP2 SUB SWAP1 REVERT JUMPDEST DUP1 PUSH20 0xFFFFFFFFFFFFFFFFFFFFFFFFFFFFFFFFFFFFFFFF AND PUSH1 0xF PUSH1 0x0 SWAP1 SLOAD SWAP1 PUSH2 0x100 EXP SWAP1 DIV PUSH20 0xFFFFFFFFFFFFFFFFFFFFFFFFFFFFFFFFFFFFFFFF AND PUSH20 0xFFFFFFFFFFFFFFFFFFFFFFFFFFFFFFFFFFFFFFFF AND PUSH32 0xA64373A629BC0C09EACF8A9CC2C7B070FA0A8B7E2E9B8AAEE408A3C02EB1676B PUSH1 0x40 MLOAD PUSH1 0x40 MLOAD DUP1 SWAP2 SUB SWAP1 LOG3 DUP1 PUSH1 0xF PUSH1 0x0 PUSH2 0x100 EXP DUP2 SLOAD DUP2 PUSH20 0xFFFFFFFFFFFFFFFFFFFFFFFFFFFFFFFFFFFFFFFF MUL NOT AND SWAP1 DUP4 PUSH20 0xFFFFFFFFFFFFFFFFFFFFFFFFFFFFFFFFFFFFFFFF AND MUL OR SWAP1 SSTORE POP PUSH1 0x1 PUSH1 0x5 PUSH1 0x0 PUSH1 0xF PUSH1 0x0 SWAP1 SLOAD SWAP1 PUSH2 0x100 EXP SWAP1 DIV PUSH20 0xFFFFFFFFFFFFFFFFFFFFFFFFFFFFFFFFFFFFFFFF AND PUSH20 0xFFFFFFFFFFFFFFFFFFFFFFFFFFFFFFFFFFFFFFFF AND PUSH20 0xFFFFFFFFFFFFFFFFFFFFFFFFFFFFFFFFFFFFFFFF AND DUP2 MSTORE PUSH1 0x20 ADD SWAP1 DUP2 MSTORE PUSH1 0x20 ADD PUSH1 0x0 KECCAK256 PUSH1 0x0 PUSH2 0x100 EXP DUP2 SLOAD DUP2 PUSH1 0xFF MUL NOT AND SWAP1 DUP4 ISZERO ISZERO MUL OR SWAP1 SSTORE POP POP JUMP JUMPDEST PUSH1 0x0 DUP1 PUSH1 0x0 SWAP1 SLOAD SWAP1 PUSH2 0x100 EXP SWAP1 DIV PUSH20 0xFFFFFFFFFFFFFFFFFFFFFFFFFFFFFFFFFFFFFFFF AND SWAP1 POP SWAP1 JUMP JUMPDEST PUSH1 0x60 PUSH1 0x40 MLOAD DUP1 PUSH1 0x40 ADD PUSH1 0x40 MSTORE DUP1 PUSH1 0x3 DUP2 MSTORE PUSH1 0x20 ADD PUSH32 0x5753500000000000000000000000000000000000000000000000000000000000 DUP2 MSTORE POP SWAP1 POP SWAP1 JUMP JUMPDEST PUSH2 0xD90 PUSH2 0x17B8 JUMP JUMPDEST PUSH20 0xFFFFFFFFFFFFFFFFFFFFFFFFFFFFFFFFFFFFFFFF AND PUSH2 0xDAE PUSH2 0xD22 JUMP JUMPDEST PUSH20 0xFFFFFFFFFFFFFFFFFFFFFFFFFFFFFFFFFFFFFFFF AND EQ DUP1 PUSH2 0xE24 JUMPI POP PUSH2 0xDD3 PUSH2 0x17B8 JUMP JUMPDEST PUSH20 0xFFFFFFFFFFFFFFFFFFFFFFFFFFFFFFFFFFFFFFFF AND PUSH1 0xE PUSH1 0x0 SWAP1 SLOAD SWAP1 PUSH2 0x100 EXP SWAP1 DIV PUSH20 0xFFFFFFFFFFFFFFFFFFFFFFFFFFFFFFFFFFFFFFFF AND PUSH20 0xFFFFFFFFFFFFFFFFFFFFFFFFFFFFFFFFFFFFFFFF AND EQ JUMPDEST PUSH2 0xE63 JUMPI PUSH1 0x40 MLOAD PUSH32 0x8C379A000000000000000000000000000000000000000000000000000000000 DUP2 MSTORE PUSH1 0x4 ADD PUSH2 0xE5A SWAP1 PUSH2 0x2FFF JUMP JUMPDEST PUSH1 0x40 MLOAD DUP1 SWAP2 SUB SWAP1 REVERT JUMPDEST PUSH1 0xB DUP5 LT PUSH2 0xEA6 JUMPI PUSH1 0x40 MLOAD PUSH32 0x8C379A000000000000000000000000000000000000000000000000000000000 DUP2 MSTORE PUSH1 0x4 ADD PUSH2 0xE9D SWAP1 PUSH2 0x30D7 JUMP JUMPDEST PUSH1 0x40 MLOAD DUP1 SWAP2 SUB SWAP1 REVERT JUMPDEST PUSH1 0xB DUP4 LT PUSH2 0xEE9 JUMPI PUSH1 0x40 MLOAD PUSH32 0x8C379A000000000000000000000000000000000000000000000000000000000 DUP2 MSTORE PUSH1 0x4 ADD PUSH2 0xEE0 SWAP1 PUSH2 0x30D7 JUMP JUMPDEST PUSH1 0x40 MLOAD DUP1 SWAP2 SUB SWAP1 REVERT JUMPDEST PUSH1 0x7 DUP3 LT PUSH2 0xF2C JUMPI PUSH1 0x40 MLOAD PUSH32 0x8C379A000000000000000000000000000000000000000000000000000000000 DUP2 MSTORE PUSH1 0x4 ADD PUSH2 0xF23 SWAP1 PUSH2 0x3143 JUMP JUMPDEST PUSH1 0x40 MLOAD DUP1 SWAP2 SUB SWAP1 REVERT JUMPDEST PUSH1 0x7 DUP2 LT PUSH2 0xF6F JUMPI PUSH1 0x40 MLOAD PUSH32 0x8C379A000000000000000000000000000000000000000000000000000000000 DUP2 MSTORE PUSH1 0x4 ADD PUSH2 0xF66 SWAP1 PUSH2 0x3143 JUMP JUMPDEST PUSH1 0x40 MLOAD DUP1 SWAP2 SUB SWAP1 REVERT JUMPDEST DUP4 PUSH1 0x8 DUP2 SWAP1 SSTORE POP DUP3 PUSH1 0xA DUP2 SWAP1 SSTORE POP DUP2 PUSH1 0x9 DUP2 SWAP1 SSTORE POP DUP1 PUSH1 0xB DUP2 SWAP1 SSTORE POP POP POP POP POP JUMP JUMPDEST PUSH1 0x0 PUSH2 0xFA5 PUSH2 0xF9E PUSH2 0x17B8 JUMP JUMPDEST DUP5 DUP5 PUSH2 0x1989 JUMP JUMPDEST PUSH1 0x1 SWAP1 POP SWAP3 SWAP2 POP POP JUMP JUMPDEST PUSH2 0xFB7 PUSH2 0x17B8 JUMP JUMPDEST PUSH20 0xFFFFFFFFFFFFFFFFFFFFFFFFFFFFFFFFFFFFFFFF AND PUSH2 0xFD5 PUSH2 0xD22 JUMP JUMPDEST PUSH20 0xFFFFFFFFFFFFFFFFFFFFFFFFFFFFFFFFFFFFFFFF AND EQ DUP1 PUSH2 0x104B JUMPI POP PUSH2 0xFFA PUSH2 0x17B8 JUMP JUMPDEST PUSH20 0xFFFFFFFFFFFFFFFFFFFFFFFFFFFFFFFFFFFFFFFF AND PUSH1 0xE PUSH1 0x0 SWAP1 SLOAD SWAP1 PUSH2 0x100 EXP SWAP1 DIV PUSH20 0xFFFFFFFFFFFFFFFFFFFFFFFFFFFFFFFFFFFFFFFF AND PUSH20 0xFFFFFFFFFFFFFFFFFFFFFFFFFFFFFFFFFFFFFFFF AND EQ JUMPDEST PUSH2 0x108A JUMPI PUSH1 0x40 MLOAD PUSH32 0x8C379A000000000000000000000000000000000000000000000000000000000 DUP2 MSTORE PUSH1 0x4 ADD PUSH2 0x1081 SWAP1 PUSH2 0x2FFF JUMP JUMPDEST PUSH1 0x40 MLOAD DUP1 SWAP2 SUB SWAP1 REVERT JUMPDEST DUP1 PUSH20 0xFFFFFFFFFFFFFFFFFFFFFFFFFFFFFFFFFFFFFFFF AND PUSH1 0xE PUSH1 0x0 SWAP1 SLOAD SWAP1 PUSH2 0x100 EXP SWAP1 DIV PUSH20 0xFFFFFFFFFFFFFFFFFFFFFFFFFFFFFFFFFFFFFFFF AND PUSH20 0xFFFFFFFFFFFFFFFFFFFFFFFFFFFFFFFFFFFFFFFF AND PUSH32 0xFBBC329437E8C79F847E170730AD6DD04106B7511CAD70D06D635886D92DE83C PUSH1 0x40 MLOAD PUSH1 0x40 MLOAD DUP1 SWAP2 SUB SWAP1 LOG3 DUP1 PUSH1 0xE PUSH1 0x0 PUSH2 0x100 EXP DUP2 SLOAD DUP2 PUSH20 0xFFFFFFFFFFFFFFFFFFFFFFFFFFFFFFFFFFFFFFFF MUL NOT AND SWAP1 DUP4 PUSH20 0xFFFFFFFFFFFFFFFFFFFFFFFFFFFFFFFFFFFFFFFF AND MUL OR SWAP1 SSTORE POP PUSH1 0x1 PUSH1 0x5 PUSH1 0x0 PUSH1 0xE PUSH1 0x0 SWAP1 SLOAD SWAP1 PUSH2 0x100 EXP SWAP1 DIV PUSH20 0xFFFFFFFFFFFFFFFFFFFFFFFFFFFFFFFFFFFFFFFF AND PUSH20 0xFFFFFFFFFFFFFFFFFFFFFFFFFFFFFFFFFFFFFFFF AND PUSH20 0xFFFFFFFFFFFFFFFFFFFFFFFFFFFFFFFFFFFFFFFF AND DUP2 MSTORE PUSH1 0x20 ADD SWAP1 DUP2 MSTORE PUSH1 0x20 ADD PUSH1 0x0 KECCAK256 PUSH1 0x0 PUSH2 0x100 EXP DUP2 SLOAD DUP2 PUSH1 0xFF MUL NOT AND SWAP1 DUP4 ISZERO ISZERO MUL OR SWAP1 SSTORE POP POP JUMP JUMPDEST PUSH1 0xE PUSH1 0x0 SWAP1 SLOAD SWAP1 PUSH2 0x100 EXP SWAP1 DIV PUSH20 0xFFFFFFFFFFFFFFFFFFFFFFFFFFFFFFFFFFFFFFFF AND PUSH20 0xFFFFFFFFFFFFFFFFFFFFFFFFFFFFFFFFFFFFFFFF AND PUSH2 0x1205 PUSH2 0x17B8 JUMP JUMPDEST PUSH20 0xFFFFFFFFFFFFFFFFFFFFFFFFFFFFFFFFFFFFFFFF AND EQ DUP1 PUSH2 0x127B JUMPI POP PUSH1 0xF PUSH1 0x0 SWAP1 SLOAD SWAP1 PUSH2 0x100 EXP SWAP1 DIV PUSH20 0xFFFFFFFFFFFFFFFFFFFFFFFFFFFFFFFFFFFFFFFF AND PUSH20 0xFFFFFFFFFFFFFFFFFFFFFFFFFFFFFFFFFFFFFFFF AND PUSH2 0x1263 PUSH2 0x17B8 JUMP JUMPDEST PUSH20 0xFFFFFFFFFFFFFFFFFFFFFFFFFFFFFFFFFFFFFFFF AND EQ JUMPDEST DUP1 PUSH2 0x12BF JUMPI POP PUSH2 0x1289 PUSH2 0xD22 JUMP JUMPDEST PUSH20 0xFFFFFFFFFFFFFFFFFFFFFFFFFFFFFFFFFFFFFFFF AND PUSH2 0x12A7 PUSH2 0x17B8 JUMP JUMPDEST PUSH20 0xFFFFFFFFFFFFFFFFFFFFFFFFFFFFFFFFFFFFFFFF AND EQ JUMPDEST PUSH2 0x12C8 JUMPI PUSH1 0x0 DUP1 REVERT JUMPDEST PUSH1 0x0 PUSH2 0x12D3 ADDRESS PUSH2 0x969 JUMP JUMPDEST SWAP1 POP PUSH2 0x12DE DUP2 PUSH2 0x20C8 JUMP JUMPDEST POP JUMP JUMPDEST PUSH2 0x12E9 PUSH2 0x17B8 JUMP JUMPDEST PUSH20 0xFFFFFFFFFFFFFFFFFFFFFFFFFFFFFFFFFFFFFFFF AND PUSH1 0x0 DUP1 SLOAD SWAP1 PUSH2 0x100 EXP SWAP1 DIV PUSH20 0xFFFFFFFFFFFFFFFFFFFFFFFFFFFFFFFFFFFFFFFF AND PUSH20 0xFFFFFFFFFFFFFFFFFFFFFFFFFFFFFFFFFFFFFFFF AND EQ PUSH2 0x1376 JUMPI PUSH1 0x40 MLOAD PUSH32 0x8C379A000000000000000000000000000000000000000000000000000000000 DUP2 MSTORE PUSH1 0x4 ADD PUSH2 0x136D SWAP1 PUSH2 0x306B JUMP JUMPDEST PUSH1 0x40 MLOAD DUP1 SWAP2 SUB SWAP1 REVERT JUMPDEST PUSH1 0x0 JUMPDEST DUP4 DUP4 SWAP1 POP DUP2 LT ISZERO PUSH2 0x1415 JUMPI DUP2 PUSH1 0x5 PUSH1 0x0 DUP7 DUP7 DUP6 DUP2 DUP2 LT PUSH2 0x139C JUMPI PUSH2 0x139B PUSH2 0x3163 JUMP JUMPDEST JUMPDEST SWAP1 POP PUSH1 0x20 MUL ADD PUSH1 0x20 DUP2 ADD SWAP1 PUSH2 0x13B1 SWAP2 SWAP1 PUSH2 0x2DAF JUMP JUMPDEST PUSH20 0xFFFFFFFFFFFFFFFFFFFFFFFFFFFFFFFFFFFFFFFF AND PUSH20 0xFFFFFFFFFFFFFFFFFFFFFFFFFFFFFFFFFFFFFFFF AND DUP2 MSTORE PUSH1 0x20 ADD SWAP1 DUP2 MSTORE PUSH1 0x20 ADD PUSH1 0x0 KECCAK256 PUSH1 0x0 PUSH2 0x100 EXP DUP2 SLOAD DUP2 PUSH1 0xFF MUL NOT AND SWAP1 DUP4 ISZERO ISZERO MUL OR SWAP1 SSTORE POP DUP1 DUP1 PUSH2 0x140D SWAP1 PUSH2 0x31C1 JUMP JUMPDEST SWAP2 POP POP PUSH2 0x1379 JUMP JUMPDEST POP POP POP POP JUMP JUMPDEST PUSH1 0x0 PUSH1 0x4 PUSH1 0x0 DUP5 PUSH20 0xFFFFFFFFFFFFFFFFFFFFFFFFFFFFFFFFFFFFFFFF AND PUSH20 0xFFFFFFFFFFFFFFFFFFFFFFFFFFFFFFFFFFFFFFFF AND DUP2 MSTORE PUSH1 0x20 ADD SWAP1 DUP2 MSTORE PUSH1 0x20 ADD PUSH1 0x0 KECCAK256 PUSH1 0x0 DUP4 PUSH20 0xFFFFFFFFFFFFFFFFFFFFFFFFFFFFFFFFFFFFFFFF AND PUSH20 0xFFFFFFFFFFFFFFFFFFFFFFFFFFFFFFFFFFFFFFFF AND DUP2 MSTORE PUSH1 0x20 ADD SWAP1 DUP2 MSTORE PUSH1 0x20 ADD PUSH1 0x0 KECCAK256 SLOAD SWAP1 POP SWAP3 SWAP2 POP POP JUMP JUMPDEST PUSH2 0x14AA PUSH2 0x17B8 JUMP JUMPDEST PUSH20 0xFFFFFFFFFFFFFFFFFFFFFFFFFFFFFFFFFFFFFFFF AND PUSH2 0x14C8 PUSH2 0xD22 JUMP JUMPDEST PUSH20 0xFFFFFFFFFFFFFFFFFFFFFFFFFFFFFFFFFFFFFFFF AND EQ DUP1 PUSH2 0x153E JUMPI POP PUSH2 0x14ED PUSH2 0x17B8 JUMP JUMPDEST PUSH20 0xFFFFFFFFFFFFFFFFFFFFFFFFFFFFFFFFFFFFFFFF AND PUSH1 0xE PUSH1 0x0 SWAP1 SLOAD SWAP1 PUSH2 0x100 EXP SWAP1 DIV PUSH20 0xFFFFFFFFFFFFFFFFFFFFFFFFFFFFFFFFFFFFFFFF AND PUSH20 0xFFFFFFFFFFFFFFFFFFFFFFFFFFFFFFFFFFFFFFFF AND EQ JUMPDEST PUSH2 0x157D JUMPI PUSH1 0x40 MLOAD PUSH32 0x8C379A000000000000000000000000000000000000000000000000000000000 DUP2 MSTORE PUSH1 0x4 ADD PUSH2 0x1574 SWAP1 PUSH2 0x2FFF JUMP JUMPDEST PUSH1 0x40 MLOAD DUP1 SWAP2 SUB SWAP1 REVERT JUMPDEST DUP2 PUSH20 0xFFFFFFFFFFFFFFFFFFFFFFFFFFFFFFFFFFFFFFFF AND DUP4 PUSH20 0xFFFFFFFFFFFFFFFFFFFFFFFFFFFFFFFFFFFFFFFF AND PUSH32 0x47C33AA230EB5FD181505AA7BEFEADDD9B8A6F983989CEA73A7868448C3A9ED9 DUP4 PUSH1 0x40 MLOAD PUSH2 0x15DA SWAP2 SWAP1 PUSH2 0x2C4B JUMP JUMPDEST PUSH1 0x40 MLOAD DUP1 SWAP2 SUB SWAP1 LOG3 DUP3 PUSH20 0xFFFFFFFFFFFFFFFFFFFFFFFFFFFFFFFFFFFFFFFF AND PUSH4 0xA9059CBB DUP4 DUP4 PUSH1 0x40 MLOAD DUP4 PUSH4 0xFFFFFFFF AND PUSH1 0xE0 SHL DUP2 MSTORE PUSH1 0x4 ADD PUSH2 0x161D SWAP3 SWAP2 SWAP1 PUSH2 0x3209 JUMP JUMPDEST PUSH1 0x20 PUSH1 0x40 MLOAD DUP1 DUP4 SUB DUP2 PUSH1 0x0 DUP8 GAS CALL ISZERO DUP1 ISZERO PUSH2 0x163C JUMPI RETURNDATASIZE PUSH1 0x0 DUP1 RETURNDATACOPY RETURNDATASIZE PUSH1 0x0 REVERT JUMPDEST POP POP POP POP PUSH1 0x40 MLOAD RETURNDATASIZE PUSH1 0x1F NOT PUSH1 0x1F DUP3 ADD AND DUP3 ADD DUP1 PUSH1 0x40 MSTORE POP DUP2 ADD SWAP1 PUSH2 0x1660 SWAP2 SWAP1 PUSH2 0x3247 JUMP JUMPDEST POP POP POP POP JUMP JUMPDEST PUSH2 0x166E PUSH2 0x17B8 JUMP JUMPDEST PUSH20 0xFFFFFFFFFFFFFFFFFFFFFFFFFFFFFFFFFFFFFFFF AND PUSH1 0x0 DUP1 SLOAD SWAP1 PUSH2 0x100 EXP SWAP1 DIV PUSH20 0xFFFFFFFFFFFFFFFFFFFFFFFFFFFFFFFFFFFFFFFF AND PUSH20 0xFFFFFFFFFFFFFFFFFFFFFFFFFFFFFFFFFFFFFFFF AND EQ PUSH2 0x16FB JUMPI PUSH1 0x40 MLOAD PUSH32 0x8C379A000000000000000000000000000000000000000000000000000000000 DUP2 MSTORE PUSH1 0x4 ADD PUSH2 0x16F2 SWAP1 PUSH2 0x306B JUMP JUMPDEST PUSH1 0x40 MLOAD DUP1 SWAP2 SUB SWAP1 REVERT JUMPDEST DUP1 PUSH20 0xFFFFFFFFFFFFFFFFFFFFFFFFFFFFFFFFFFFFFFFF AND PUSH1 0x0 DUP1 SLOAD SWAP1 PUSH2 0x100 EXP SWAP1 DIV PUSH20 0xFFFFFFFFFFFFFFFFFFFFFFFFFFFFFFFFFFFFFFFF AND PUSH20 0xFFFFFFFFFFFFFFFFFFFFFFFFFFFFFFFFFFFFFFFF AND PUSH32 0x8BE0079C531659141344CD1FD0A4F28419497F9722A3DAAFE3B4186F6B6457E0 PUSH1 0x40 MLOAD PUSH1 0x40 MLOAD DUP1 SWAP2 SUB SWAP1 LOG3 DUP1 PUSH1 0x0 DUP1 PUSH2 0x100 EXP DUP2 SLOAD DUP2 PUSH20 0xFFFFFFFFFFFFFFFFFFFFFFFFFFFFFFFFFFFFFFFF MUL NOT AND SWAP1 DUP4 PUSH20 0xFFFFFFFFFFFFFFFFFFFFFFFFFFFFFFFFFFFFFFFF AND MUL OR SWAP1 SSTORE POP POP JUMP JUMPDEST PUSH1 0x0 CALLER SWAP1 POP SWAP1 JUMP JUMPDEST PUSH1 0x0 PUSH20 0xFFFFFFFFFFFFFFFFFFFFFFFFFFFFFFFFFFFFFFFF AND DUP4 PUSH20 0xFFFFFFFFFFFFFFFFFFFFFFFFFFFFFFFFFFFFFFFF AND SUB PUSH2 0x182F JUMPI PUSH1 0x40 MLOAD PUSH32 0x8C379A000000000000000000000000000000000000000000000000000000000 DUP2 MSTORE PUSH1 0x4 ADD PUSH2 0x1826 SWAP1 PUSH2 0x32E6 JUMP JUMPDEST PUSH1 0x40 MLOAD DUP1 SWAP2 SUB SWAP1 REVERT JUMPDEST PUSH1 0x0 PUSH20 0xFFFFFFFFFFFFFFFFFFFFFFFFFFFFFFFFFFFFFFFF AND DUP3 PUSH20 0xFFFFFFFFFFFFFFFFFFFFFFFFFFFFFFFFFFFFFFFF AND SUB PUSH2 0x189E JUMPI PUSH1 0x40 MLOAD PUSH32 0x8C379A000000000000000000000000000000000000000000000000000000000 DUP2 MSTORE PUSH1 0x4 ADD PUSH2 0x1895 SWAP1 PUSH2 0x3378 JUMP JUMPDEST PUSH1 0x40 MLOAD DUP1 SWAP2 SUB SWAP1 REVERT JUMPDEST DUP1 PUSH1 0x4 PUSH1 0x0 DUP6 PUSH20 0xFFFFFFFFFFFFFFFFFFFFFFFFFFFFFFFFFFFFFFFF AND PUSH20 0xFFFFFFFFFFFFFFFFFFFFFFFFFFFFFFFFFFFFFFFF AND DUP2 MSTORE PUSH1 0x20 ADD SWAP1 DUP2 MSTORE PUSH1 0x20 ADD PUSH1 0x0 KECCAK256 PUSH1 0x0 DUP5 PUSH20 0xFFFFFFFFFFFFFFFFFFFFFFFFFFFFFFFFFFFFFFFF AND PUSH20 0xFFFFFFFFFFFFFFFFFFFFFFFFFFFFFFFFFFFFFFFF AND DUP2 MSTORE PUSH1 0x20 ADD SWAP1 DUP2 MSTORE PUSH1 0x20 ADD PUSH1 0x0 KECCAK256 DUP2 SWAP1 SSTORE POP DUP2 PUSH20 0xFFFFFFFFFFFFFFFFFFFFFFFFFFFFFFFFFFFFFFFF AND DUP4 PUSH20 0xFFFFFFFFFFFFFFFFFFFFFFFFFFFFFFFFFFFFFFFF AND PUSH32 0x8C5BE1E5EBEC7D5BD14F71427D1E84F3DD0314C0F7B2291E5B200AC8C7C3B925 DUP4 PUSH1 0x40 MLOAD PUSH2 0x197C SWAP2 SWAP1 PUSH2 0x2C4B JUMP JUMPDEST PUSH1 0x40 MLOAD DUP1 SWAP2 SUB SWAP1 LOG3 POP POP POP JUMP JUMPDEST PUSH1 0x0 PUSH20 0xFFFFFFFFFFFFFFFFFFFFFFFFFFFFFFFFFFFFFFFF AND DUP4 PUSH20 0xFFFFFFFFFFFFFFFFFFFFFFFFFFFFFFFFFFFFFFFF AND SUB PUSH2 0x19F8 JUMPI PUSH1 0x40 MLOAD PUSH32 0x8C379A000000000000000000000000000000000000000000000000000000000 DUP2 MSTORE PUSH1 0x4 ADD PUSH2 0x19EF SWAP1 PUSH2 0x340A JUMP JUMPDEST PUSH1 0x40 MLOAD DUP1 SWAP2 SUB SWAP1 REVERT JUMPDEST PUSH1 0x0 PUSH20 0xFFFFFFFFFFFFFFFFFFFFFFFFFFFFFFFFFFFFFFFF AND DUP3 PUSH20 0xFFFFFFFFFFFFFFFFFFFFFFFFFFFFFFFFFFFFFFFF AND SUB PUSH2 0x1A67 JUMPI PUSH1 0x40 MLOAD PUSH32 0x8C379A000000000000000000000000000000000000000000000000000000000 DUP2 MSTORE PUSH1 0x4 ADD PUSH2 0x1A5E SWAP1 PUSH2 0x349C JUMP JUMPDEST PUSH1 0x40 MLOAD DUP1 SWAP2 SUB SWAP1 REVERT JUMPDEST PUSH1 0x0 DUP2 GT PUSH2 0x1AAA JUMPI PUSH1 0x40 MLOAD PUSH32 0x8C379A000000000000000000000000000000000000000000000000000000000 DUP2 MSTORE PUSH1 0x4 ADD PUSH2 0x1AA1 SWAP1 PUSH2 0x352E JUMP JUMPDEST PUSH1 0x40 MLOAD DUP1 SWAP2 SUB SWAP1 REVERT JUMPDEST PUSH1 0x0 PUSH1 0xC DUP2 SWAP1 SSTORE POP PUSH1 0x0 PUSH1 0xD DUP2 SWAP1 SSTORE POP PUSH2 0x1AC2 PUSH2 0xD22 JUMP JUMPDEST PUSH20 0xFFFFFFFFFFFFFFFFFFFFFFFFFFFFFFFFFFFFFFFF AND DUP4 PUSH20 0xFFFFFFFFFFFFFFFFFFFFFFFFFFFFFFFFFFFFFFFF AND EQ ISZERO DUP1 ISZERO PUSH2 0x1B30 JUMPI POP PUSH2 0x1B00 PUSH2 0xD22 JUMP JUMPDEST PUSH20 0xFFFFFFFFFFFFFFFFFFFFFFFFFFFFFFFFFFFFFFFF AND DUP3 PUSH20 0xFFFFFFFFFFFFFFFFFFFFFFFFFFFFFFFFFFFFFFFF AND EQ ISZERO JUMPDEST ISZERO PUSH2 0x1EEB JUMPI PUSH1 0x0 PUSH2 0x1B40 ADDRESS PUSH2 0x969 JUMP JUMPDEST SWAP1 POP PUSH1 0x12 PUSH1 0x14 SWAP1 SLOAD SWAP1 PUSH2 0x100 EXP SWAP1 DIV PUSH1 0xFF AND ISZERO DUP1 ISZERO PUSH2 0x1BAD JUMPI POP PUSH1 0x12 PUSH1 0x0 SWAP1 SLOAD SWAP1 PUSH2 0x100 EXP SWAP1 DIV PUSH20 0xFFFFFFFFFFFFFFFFFFFFFFFFFFFFFFFFFFFFFFFF AND PUSH20 0xFFFFFFFFFFFFFFFFFFFFFFFFFFFFFFFFFFFFFFFF AND DUP5 PUSH20 0xFFFFFFFFFFFFFFFFFFFFFFFFFFFFFFFFFFFFFFFF AND EQ ISZERO JUMPDEST DUP1 ISZERO PUSH2 0x1BC5 JUMPI POP PUSH1 0x12 PUSH1 0x15 SWAP1 SLOAD SWAP1 PUSH2 0x100 EXP SWAP1 DIV PUSH1 0xFF AND JUMPDEST DUP1 ISZERO PUSH2 0x1BD1 JUMPI POP PUSH1 0x0 DUP2 GT JUMPDEST ISZERO PUSH2 0x1BF9 JUMPI PUSH2 0x1BDF DUP2 PUSH2 0x20C8 JUMP JUMPDEST PUSH1 0x0 SELFBALANCE SWAP1 POP PUSH1 0x0 DUP2 GT ISZERO PUSH2 0x1BF7 JUMPI PUSH2 0x1BF6 SELFBALANCE PUSH2 0x1F5F JUMP JUMPDEST JUMPDEST POP JUMPDEST PUSH1 0x12 PUSH1 0x0 SWAP1 SLOAD SWAP1 PUSH2 0x100 EXP SWAP1 DIV PUSH20 0xFFFFFFFFFFFFFFFFFFFFFFFFFFFFFFFFFFFFFFFF AND PUSH20 0xFFFFFFFFFFFFFFFFFFFFFFFFFFFFFFFFFFFFFFFF AND DUP5 PUSH20 0xFFFFFFFFFFFFFFFFFFFFFFFFFFFFFFFFFFFFFFFF AND EQ DUP1 ISZERO PUSH2 0x1CA4 JUMPI POP PUSH1 0x10 PUSH1 0x0 SWAP1 SLOAD SWAP1 PUSH2 0x100 EXP SWAP1 DIV PUSH20 0xFFFFFFFFFFFFFFFFFFFFFFFFFFFFFFFFFFFFFFFF AND PUSH20 0xFFFFFFFFFFFFFFFFFFFFFFFFFFFFFFFFFFFFFFFF AND DUP4 PUSH20 0xFFFFFFFFFFFFFFFFFFFFFFFFFFFFFFFFFFFFFFFF AND EQ ISZERO JUMPDEST ISZERO PUSH2 0x1CBC JUMPI PUSH1 0x8 SLOAD PUSH1 0xC DUP2 SWAP1 SSTORE POP PUSH1 0x9 SLOAD PUSH1 0xD DUP2 SWAP1 SSTORE POP JUMPDEST PUSH1 0x12 PUSH1 0x0 SWAP1 SLOAD SWAP1 PUSH2 0x100 EXP SWAP1 DIV PUSH20 0xFFFFFFFFFFFFFFFFFFFFFFFFFFFFFFFFFFFFFFFF AND PUSH20 0xFFFFFFFFFFFFFFFFFFFFFFFFFFFFFFFFFFFFFFFF AND DUP4 PUSH20 0xFFFFFFFFFFFFFFFFFFFFFFFFFFFFFFFFFFFFFFFF AND EQ DUP1 ISZERO PUSH2 0x1D67 JUMPI POP PUSH1 0x10 PUSH1 0x0 SWAP1 SLOAD SWAP1 PUSH2 0x100 EXP SWAP1 DIV PUSH20 0xFFFFFFFFFFFFFFFFFFFFFFFFFFFFFFFFFFFFFFFF AND PUSH20 0xFFFFFFFFFFFFFFFFFFFFFFFFFFFFFFFFFFFFFFFF AND DUP5 PUSH20 0xFFFFFFFFFFFFFFFFFFFFFFFFFFFFFFFFFFFFFFFF AND EQ ISZERO JUMPDEST ISZERO PUSH2 0x1D7F JUMPI PUSH1 0xA SLOAD PUSH1 0xC DUP2 SWAP1 SSTORE POP PUSH1 0xB SLOAD PUSH1 0xD DUP2 SWAP1 SSTORE POP JUMPDEST PUSH1 0x5 PUSH1 0x0 DUP6 PUSH20 0xFFFFFFFFFFFFFFFFFFFFFFFFFFFFFFFFFFFFFFFF AND PUSH20 0xFFFFFFFFFFFFFFFFFFFFFFFFFFFFFFFFFFFFFFFF AND DUP2 MSTORE PUSH1 0x20 ADD SWAP1 DUP2 MSTORE PUSH1 0x20 ADD PUSH1 0x0 KECCAK256 PUSH1 0x0 SWAP1 SLOAD SWAP1 PUSH2 0x100 EXP SWAP1 DIV PUSH1 0xFF AND DUP1 PUSH2 0x1E20 JUMPI POP PUSH1 0x5 PUSH1 0x0 DUP5 PUSH20 0xFFFFFFFFFFFFFFFFFFFFFFFFFFFFFFFFFFFFFFFF AND PUSH20 0xFFFFFFFFFFFFFFFFFFFFFFFFFFFFFFFFFFFFFFFF AND DUP2 MSTORE PUSH1 0x20 ADD SWAP1 DUP2 MSTORE PUSH1 0x20 ADD PUSH1 0x0 KECCAK256 PUSH1 0x0 SWAP1 SLOAD SWAP1 PUSH2 0x100 EXP SWAP1 DIV PUSH1 0xFF AND JUMPDEST DUP1 PUSH2 0x1ED3 JUMPI POP PUSH1 0x12 PUSH1 0x0 SWAP1 SLOAD SWAP1 PUSH2 0x100 EXP SWAP1 DIV PUSH20 0xFFFFFFFFFFFFFFFFFFFFFFFFFFFFFFFFFFFFFFFF AND PUSH20 0xFFFFFFFFFFFFFFFFFFFFFFFFFFFFFFFFFFFFFFFF AND DUP5 PUSH20 0xFFFFFFFFFFFFFFFFFFFFFFFFFFFFFFFFFFFFFFFF AND EQ ISZERO DUP1 ISZERO PUSH2 0x1ED2 JUMPI POP PUSH1 0x12 PUSH1 0x0 SWAP1 SLOAD SWAP1 PUSH2 0x100 EXP SWAP1 DIV PUSH20 0xFFFFFFFFFFFFFFFFFFFFFFFFFFFFFFFFFFFFFFFF AND PUSH20 0xFFFFFFFFFFFFFFFFFFFFFFFFFFFFFFFFFFFFFFFF AND DUP4 PUSH20 0xFFFFFFFFFFFFFFFFFFFFFFFFFFFFFFFFFFFFFFFF AND EQ ISZERO JUMPDEST JUMPDEST ISZERO PUSH2 0x1EE9 JUMPI PUSH1 0x0 PUSH1 0xC DUP2 SWAP1 SSTORE POP PUSH1 0x0 PUSH1 0xD DUP2 SWAP1 SSTORE POP JUMPDEST POP JUMPDEST PUSH2 0x1EF6 DUP4 DUP4 DUP4 PUSH2 0x2341 JUMP JUMPDEST POP POP POP JUMP JUMPDEST PUSH1 0x0 DUP4 DUP4 GT ISZERO DUP3 SWAP1 PUSH2 0x1F43 JUMPI PUSH1 0x40 MLOAD PUSH32 0x8C379A000000000000000000000000000000000000000000000000000000000 DUP2 MSTORE PUSH1 0x4 ADD PUSH2 0x1F3A SWAP2 SWAP1 PUSH2 0x2A8C JUMP JUMPDEST PUSH1 0x40 MLOAD DUP1 SWAP2 SUB SWAP1 REVERT JUMPDEST POP PUSH1 0x0 DUP4 DUP6 PUSH2 0x1F52 SWAP2 SWAP1 PUSH2 0x354E JUMP JUMPDEST SWAP1 POP DUP1 SWAP2 POP POP SWAP4 SWAP3 POP POP POP JUMP JUMPDEST PUSH1 0xE PUSH1 0x0 SWAP1 SLOAD SWAP1 PUSH2 0x100 EXP SWAP1 DIV PUSH20 0xFFFFFFFFFFFFFFFFFFFFFFFFFFFFFFFFFFFFFFFF AND PUSH20 0xFFFFFFFFFFFFFFFFFFFFFFFFFFFFFFFFFFFFFFFF AND PUSH2 0x8FC PUSH2 0x1FAF PUSH1 0x2 DUP5 PUSH2 0x2351 SWAP1 SWAP2 SWAP1 PUSH4 0xFFFFFFFF AND JUMP JUMPDEST SWAP1 DUP2 ISZERO MUL SWAP1 PUSH1 0x40 MLOAD PUSH1 0x0 PUSH1 0x40 MLOAD DUP1 DUP4 SUB DUP2 DUP6 DUP9 DUP9 CALL SWAP4 POP POP POP POP ISZERO DUP1 ISZERO PUSH2 0x1FDA JUMPI RETURNDATASIZE PUSH1 0x0 DUP1 RETURNDATACOPY RETURNDATASIZE PUSH1 0x0 REVERT JUMPDEST POP PUSH1 0xF PUSH1 0x0 SWAP1 SLOAD SWAP1 PUSH2 0x100 EXP SWAP1 DIV PUSH20 0xFFFFFFFFFFFFFFFFFFFFFFFFFFFFFFFFFFFFFFFF AND PUSH20 0xFFFFFFFFFFFFFFFFFFFFFFFFFFFFFFFFFFFFFFFF AND PUSH2 0x8FC PUSH2 0x202B PUSH1 0x2 DUP5 PUSH2 0x2351 SWAP1 SWAP2 SWAP1 PUSH4 0xFFFFFFFF AND JUMP JUMPDEST SWAP1 DUP2 ISZERO MUL SWAP1 PUSH1 0x40 MLOAD PUSH1 0x0 PUSH1 0x40 MLOAD DUP1 DUP4 SUB DUP2 DUP6 DUP9 DUP9 CALL SWAP4 POP POP POP POP ISZERO DUP1 ISZERO PUSH2 0x2056 JUMPI RETURNDATASIZE PUSH1 0x0 DUP1 RETURNDATACOPY RETURNDATASIZE PUSH1 0x0 REVERT JUMPDEST POP POP JUMP JUMPDEST PUSH1 0x0 PUSH1 0x6 SLOAD DUP3 GT ISZERO PUSH2 0x20A1 JUMPI PUSH1 0x40 MLOAD PUSH32 0x8C379A000000000000000000000000000000000000000000000000000000000 DUP2 MSTORE PUSH1 0x4 ADD PUSH2 0x2098 SWAP1 PUSH2 0x35F4 JUMP JUMPDEST PUSH1 0x40 MLOAD DUP1 SWAP2 SUB SWAP1 REVERT JUMPDEST PUSH1 0x0 PUSH2 0x20AB PUSH2 0x239B JUMP JUMPDEST SWAP1 POP PUSH2 0x20C0 DUP2 DUP5 PUSH2 0x2351 SWAP1 SWAP2 SWAP1 PUSH4 0xFFFFFFFF AND JUMP JUMPDEST SWAP2 POP POP SWAP2 SWAP1 POP JUMP JUMPDEST PUSH1 0x1 PUSH1 0x12 PUSH1 0x14 PUSH2 0x100 EXP DUP2 SLOAD DUP2 PUSH1 0xFF MUL NOT AND SWAP1 DUP4 ISZERO ISZERO MUL OR SWAP1 SSTORE POP PUSH1 0x0 PUSH1 0x2 PUSH8 0xFFFFFFFFFFFFFFFF DUP2 GT ISZERO PUSH2 0x2100 JUMPI PUSH2 0x20FF PUSH2 0x3614 JUMP JUMPDEST JUMPDEST PUSH1 0x40 MLOAD SWAP1 DUP1 DUP3 MSTORE DUP1 PUSH1 0x20 MUL PUSH1 0x20 ADD DUP3 ADD PUSH1 0x40 MSTORE DUP1 ISZERO PUSH2 0x212E JUMPI DUP2 PUSH1 0x20 ADD PUSH1 0x20 DUP3 MUL DUP1 CALLDATASIZE DUP4 CALLDATACOPY DUP1 DUP3 ADD SWAP2 POP POP SWAP1 POP JUMPDEST POP SWAP1 POP ADDRESS DUP2 PUSH1 0x0 DUP2 MLOAD DUP2 LT PUSH2 0x2146 JUMPI PUSH2 0x2145 PUSH2 0x3163 JUMP JUMPDEST JUMPDEST PUSH1 0x20 MUL PUSH1 0x20 ADD ADD SWAP1 PUSH20 0xFFFFFFFFFFFFFFFFFFFFFFFFFFFFFFFFFFFFFFFF AND SWAP1 DUP2 PUSH20 0xFFFFFFFFFFFFFFFFFFFFFFFFFFFFFFFFFFFFFFFF AND DUP2 MSTORE POP POP PUSH1 0x10 PUSH1 0x0 SWAP1 SLOAD SWAP1 PUSH2 0x100 EXP SWAP1 DIV PUSH20 0xFFFFFFFFFFFFFFFFFFFFFFFFFFFFFFFFFFFFFFFF AND PUSH20 0xFFFFFFFFFFFFFFFFFFFFFFFFFFFFFFFFFFFFFFFF AND PUSH4 0xAD5C4648 PUSH1 0x40 MLOAD DUP2 PUSH4 0xFFFFFFFF AND PUSH1 0xE0 SHL DUP2 MSTORE PUSH1 0x4 ADD PUSH1 0x20 PUSH1 0x40 MLOAD DUP1 DUP4 SUB DUP2 DUP7 GAS STATICCALL ISZERO DUP1 ISZERO PUSH2 0x21ED JUMPI RETURNDATASIZE PUSH1 0x0 DUP1 RETURNDATACOPY RETURNDATASIZE PUSH1 0x0 REVERT JUMPDEST POP POP POP POP PUSH1 0x40 MLOAD RETURNDATASIZE PUSH1 0x1F NOT PUSH1 0x1F DUP3 ADD AND DUP3 ADD DUP1 PUSH1 0x40 MSTORE POP DUP2 ADD SWAP1 PUSH2 0x2211 SWAP2 SWAP1 PUSH2 0x3658 JUMP JUMPDEST DUP2 PUSH1 0x1 DUP2 MLOAD DUP2 LT PUSH2 0x2225 JUMPI PUSH2 0x2224 PUSH2 0x3163 JUMP JUMPDEST JUMPDEST PUSH1 0x20 MUL PUSH1 0x20 ADD ADD SWAP1 PUSH20 0xFFFFFFFFFFFFFFFFFFFFFFFFFFFFFFFFFFFFFFFF AND SWAP1 DUP2 PUSH20 0xFFFFFFFFFFFFFFFFFFFFFFFFFFFFFFFFFFFFFFFF AND DUP2 MSTORE POP POP PUSH2 0x228C ADDRESS PUSH1 0x10 PUSH1 0x0 SWAP1 SLOAD SWAP1 PUSH2 0x100 EXP SWAP1 DIV PUSH20 0xFFFFFFFFFFFFFFFFFFFFFFFFFFFFFFFFFFFFFFFF AND DUP5 PUSH2 0x17C0 JUMP JUMPDEST PUSH1 0x10 PUSH1 0x0 SWAP1 SLOAD SWAP1 PUSH2 0x100 EXP SWAP1 DIV PUSH20 0xFFFFFFFFFFFFFFFFFFFFFFFFFFFFFFFFFFFFFFFF AND PUSH20 0xFFFFFFFFFFFFFFFFFFFFFFFFFFFFFFFFFFFFFFFF AND PUSH4 0x791AC947 DUP4 PUSH1 0x0 DUP5 ADDRESS TIMESTAMP PUSH1 0x40 MLOAD DUP7 PUSH4 0xFFFFFFFF AND PUSH1 0xE0 SHL DUP2 MSTORE PUSH1 0x4 ADD PUSH2 0x22F0 SWAP6 SWAP5 SWAP4 SWAP3 SWAP2 SWAP1 PUSH2 0x377E JUMP JUMPDEST PUSH1 0x0 PUSH1 0x40 MLOAD DUP1 DUP4 SUB DUP2 PUSH1 0x0 DUP8 DUP1 EXTCODESIZE ISZERO DUP1 ISZERO PUSH2 0x230A JUMPI PUSH1 0x0 DUP1 REVERT JUMPDEST POP GAS CALL ISZERO DUP1 ISZERO PUSH2 0x231E JUMPI RETURNDATASIZE PUSH1 0x0 DUP1 RETURNDATACOPY RETURNDATASIZE PUSH1 0x0 REVERT JUMPDEST POP POP POP POP POP PUSH1 0x0 PUSH1 0x12 PUSH1 0x14 PUSH2 0x100 EXP DUP2 SLOAD DUP2 PUSH1 0xFF MUL NOT AND SWAP1 DUP4 ISZERO ISZERO MUL OR SWAP1 SSTORE POP POP JUMP JUMPDEST PUSH2 0x234C DUP4 DUP4 DUP4 PUSH2 0x23C6 JUMP JUMPDEST POP POP POP JUMP JUMPDEST PUSH1 0x0 PUSH2 0x2393 DUP4 DUP4 PUSH1 0x40 MLOAD DUP1 PUSH1 0x40 ADD PUSH1 0x40 MSTORE DUP1 PUSH1 0x1A DUP2 MSTORE PUSH1 0x20 ADD PUSH32 0x536166654D6174683A206469766973696F6E206279207A65726F000000000000 DUP2 MSTORE POP PUSH2 0x2591 JUMP JUMPDEST SWAP1 POP SWAP3 SWAP2 POP POP JUMP JUMPDEST PUSH1 0x0 DUP1 PUSH1 0x0 PUSH2 0x23A8 PUSH2 0x25F4 JUMP JUMPDEST SWAP2 POP SWAP2 POP PUSH2 0x23BF DUP2 DUP4 PUSH2 0x2351 SWAP1 SWAP2 SWAP1 PUSH4 0xFFFFFFFF AND JUMP JUMPDEST SWAP3 POP POP POP SWAP1 JUMP JUMPDEST PUSH1 0x0 DUP1 PUSH1 0x0 DUP1 PUSH1 0x0 DUP1 PUSH2 0x23D8 DUP8 PUSH2 0x2653 JUMP JUMPDEST SWAP6 POP SWAP6 POP SWAP6 POP SWAP6 POP SWAP6 POP SWAP6 POP PUSH2 0x2436 DUP7 PUSH1 0x2 PUSH1 0x0 DUP13 PUSH20 0xFFFFFFFFFFFFFFFFFFFFFFFFFFFFFFFFFFFFFFFF AND PUSH20 0xFFFFFFFFFFFFFFFFFFFFFFFFFFFFFFFFFFFFFFFF AND DUP2 MSTORE PUSH1 0x20 ADD SWAP1 DUP2 MSTORE PUSH1 0x20 ADD PUSH1 0x0 KECCAK256 SLOAD PUSH2 0x26BB SWAP1 SWAP2 SWAP1 PUSH4 0xFFFFFFFF AND JUMP JUMPDEST PUSH1 0x2 PUSH1 0x0 DUP12 PUSH20 0xFFFFFFFFFFFFFFFFFFFFFFFFFFFFFFFFFFFFFFFF AND PUSH20 0xFFFFFFFFFFFFFFFFFFFFFFFFFFFFFFFFFFFFFFFF AND DUP2 MSTORE PUSH1 0x20 ADD SWAP1 DUP2 MSTORE PUSH1 0x20 ADD PUSH1 0x0 KECCAK256 DUP2 SWAP1 SSTORE POP PUSH2 0x24CB DUP6 PUSH1 0x2 PUSH1 0x0 DUP12 PUSH20 0xFFFFFFFFFFFFFFFFFFFFFFFFFFFFFFFFFFFFFFFF AND PUSH20 0xFFFFFFFFFFFFFFFFFFFFFFFFFFFFFFFFFFFFFFFF AND DUP2 MSTORE PUSH1 0x20 ADD SWAP1 DUP2 MSTORE PUSH1 0x20 ADD PUSH1 0x0 KECCAK256 SLOAD PUSH2 0x2705 SWAP1 SWAP2 SWAP1 PUSH4 0xFFFFFFFF AND JUMP JUMPDEST PUSH1 0x2 PUSH1 0x0 DUP11 PUSH20 0xFFFFFFFFFFFFFFFFFFFFFFFFFFFFFFFFFFFFFFFF AND PUSH20 0xFFFFFFFFFFFFFFFFFFFFFFFFFFFFFFFFFFFFFFFF AND DUP2 MSTORE PUSH1 0x20 ADD SWAP1 DUP2 MSTORE PUSH1 0x20 ADD PUSH1 0x0 KECCAK256 DUP2 SWAP1 SSTORE POP PUSH2 0x2517 DUP2 PUSH2 0x2763 JUMP JUMPDEST PUSH2 0x2521 DUP5 DUP4 PUSH2 0x2820 JUMP JUMPDEST DUP8 PUSH20 0xFFFFFFFFFFFFFFFFFFFFFFFFFFFFFFFFFFFFFFFF AND DUP10 PUSH20 0xFFFFFFFFFFFFFFFFFFFFFFFFFFFFFFFFFFFFFFFF AND PUSH32 0xDDF252AD1BE2C89B69C2B068FC378DAA952BA7F163C4A11628F55A4DF523B3EF DUP6 PUSH1 0x40 MLOAD PUSH2 0x257E SWAP2 SWAP1 PUSH2 0x2C4B JUMP JUMPDEST PUSH1 0x40 MLOAD DUP1 SWAP2 SUB SWAP1 LOG3 POP POP POP POP POP POP POP POP POP JUMP JUMPDEST PUSH1 0x0 DUP1 DUP4 GT DUP3 SWAP1 PUSH2 0x25D8 JUMPI PUSH1 0x40 MLOAD PUSH32 0x8C379A000000000000000000000000000000000000000000000000000000000 DUP2 MSTORE PUSH1 0x4 ADD PUSH2 0x25CF SWAP2 SWAP1 PUSH2 0x2A8C JUMP JUMPDEST PUSH1 0x40 MLOAD DUP1 SWAP2 SUB SWAP1 REVERT JUMPDEST POP PUSH1 0x0 DUP4 DUP6 PUSH2 0x25E7 SWAP2 SWAP1 PUSH2 0x3807 JUMP JUMPDEST SWAP1 POP DUP1 SWAP2 POP POP SWAP4 SWAP3 POP POP POP JUMP JUMPDEST PUSH1 0x0 DUP1 PUSH1 0x0 PUSH1 0x6 SLOAD SWAP1 POP PUSH1 0x0 PUSH8 0xDE0B6B3A7640000 SWAP1 POP PUSH2 0x2628 PUSH8 0xDE0B6B3A7640000 PUSH1 0x6 SLOAD PUSH2 0x2351 SWAP1 SWAP2 SWAP1 PUSH4 0xFFFFFFFF AND JUMP JUMPDEST DUP3 LT ISZERO PUSH2 0x2646 JUMPI PUSH1 0x6 SLOAD PUSH8 0xDE0B6B3A7640000 SWAP4 POP SWAP4 POP POP POP PUSH2 0x264F JUMP JUMPDEST DUP2 DUP2 SWAP4 POP SWAP4 POP POP POP JUMPDEST SWAP1 SWAP2 JUMP JUMPDEST PUSH1 0x0 DUP1 PUSH1 0x0 DUP1 PUSH1 0x0 DUP1 PUSH1 0x0 DUP1 PUSH1 0x0 PUSH2 0x2670 DUP11 PUSH1 0xC SLOAD PUSH1 0xD SLOAD PUSH2 0x285A JUMP JUMPDEST SWAP3 POP SWAP3 POP SWAP3 POP PUSH1 0x0 PUSH2 0x2680 PUSH2 0x239B JUMP JUMPDEST SWAP1 POP PUSH1 0x0 DUP1 PUSH1 0x0 PUSH2 0x2693 DUP15 DUP8 DUP8 DUP8 PUSH2 0x28F0 JUMP JUMPDEST SWAP3 POP SWAP3 POP SWAP3 POP DUP3 DUP3 DUP3 DUP10 DUP10 DUP10 SWAP13 POP SWAP13 POP SWAP13 POP SWAP13 POP SWAP13 POP SWAP13 POP POP POP POP POP POP POP POP SWAP2 SWAP4 SWAP6 POP SWAP2 SWAP4 SWAP6 JUMP JUMPDEST PUSH1 0x0 PUSH2 0x26FD DUP4 DUP4 PUSH1 0x40 MLOAD DUP1 PUSH1 0x40 ADD PUSH1 0x40 MSTORE DUP1 PUSH1 0x1E DUP2 MSTORE PUSH1 0x20 ADD PUSH32 0x536166654D6174683A207375627472616374696F6E206F766572666C6F770000 DUP2 MSTORE POP PUSH2 0x1EFB JUMP JUMPDEST SWAP1 POP SWAP3 SWAP2 POP POP JUMP JUMPDEST PUSH1 0x0 DUP1 DUP3 DUP5 PUSH2 0x2714 SWAP2 SWAP1 PUSH2 0x3838 JUMP JUMPDEST SWAP1 POP DUP4 DUP2 LT ISZERO PUSH2 0x2759 JUMPI PUSH1 0x40 MLOAD PUSH32 0x8C379A000000000000000000000000000000000000000000000000000000000 DUP2 MSTORE PUSH1 0x4 ADD PUSH2 0x2750 SWAP1 PUSH2 0x38DA JUMP JUMPDEST PUSH1 0x40 MLOAD DUP1 SWAP2 SUB SWAP1 REVERT JUMPDEST DUP1 SWAP2 POP POP SWAP3 SWAP2 POP POP JUMP JUMPDEST PUSH1 0x0 PUSH2 0x276D PUSH2 0x239B JUMP JUMPDEST SWAP1 POP PUSH1 0x0 PUSH2 0x2784 DUP3 DUP5 PUSH2 0x2979 SWAP1 SWAP2 SWAP1 PUSH4 0xFFFFFFFF AND JUMP JUMPDEST SWAP1 POP PUSH2 0x27D8 DUP2 PUSH1 0x2 PUSH1 0x0 ADDRESS PUSH20 0xFFFFFFFFFFFFFFFFFFFFFFFFFFFFFFFFFFFFFFFF AND PUSH20 0xFFFFFFFFFFFFFFFFFFFFFFFFFFFFFFFFFFFFFFFF AND DUP2 MSTORE PUSH1 0x20 ADD SWAP1 DUP2 MSTORE PUSH1 0x20 ADD PUSH1 0x0 KECCAK256 SLOAD PUSH2 0x2705 SWAP1 SWAP2 SWAP1 PUSH4 0xFFFFFFFF AND JUMP JUMPDEST PUSH1 0x2 PUSH1 0x0 ADDRESS PUSH20 0xFFFFFFFFFFFFFFFFFFFFFFFFFFFFFFFFFFFFFFFF AND PUSH20 0xFFFFFFFFFFFFFFFFFFFFFFFFFFFFFFFFFFFFFFFF AND DUP2 MSTORE PUSH1 0x20 ADD SWAP1 DUP2 MSTORE PUSH1 0x20 ADD PUSH1 0x0 KECCAK256 DUP2 SWAP1 SSTORE POP POP POP POP JUMP JUMPDEST PUSH2 0x2835 DUP3 PUSH1 0x6 SLOAD PUSH2 0x26BB SWAP1 SWAP2 SWAP1 PUSH4 0xFFFFFFFF AND JUMP JUMPDEST PUSH1 0x6 DUP2 SWAP1 SSTORE POP PUSH2 0x2850 DUP2 PUSH1 0x7 SLOAD PUSH2 0x2705 SWAP1 SWAP2 SWAP1 PUSH4 0xFFFFFFFF AND JUMP JUMPDEST PUSH1 0x7 DUP2 SWAP1 SSTORE POP POP POP JUMP JUMPDEST PUSH1 0x0 DUP1 PUSH1 0x0 DUP1 PUSH2 0x2886 PUSH1 0x64 PUSH2 0x2878 DUP9 DUP11 PUSH2 0x2979 SWAP1 SWAP2 SWAP1 PUSH4 0xFFFFFFFF AND JUMP JUMPDEST PUSH2 0x2351 SWAP1 SWAP2 SWAP1 PUSH4 0xFFFFFFFF AND JUMP JUMPDEST SWAP1 POP PUSH1 0x0 PUSH2 0x28B0 PUSH1 0x64 PUSH2 0x28A2 DUP9 DUP12 PUSH2 0x2979 SWAP1 SWAP2 SWAP1 PUSH4 0xFFFFFFFF AND JUMP JUMPDEST PUSH2 0x2351 SWAP1 SWAP2 SWAP1 PUSH4 0xFFFFFFFF AND JUMP JUMPDEST SWAP1 POP PUSH1 0x0 PUSH2 0x28D9 DUP3 PUSH2 0x28CB DUP6 DUP13 PUSH2 0x26BB SWAP1 SWAP2 SWAP1 PUSH4 0xFFFFFFFF AND JUMP JUMPDEST PUSH2 0x26BB SWAP1 SWAP2 SWAP1 PUSH4 0xFFFFFFFF AND JUMP JUMPDEST SWAP1 POP DUP1 DUP4 DUP4 SWAP6 POP SWAP6 POP SWAP6 POP POP POP POP SWAP4 POP SWAP4 POP SWAP4 SWAP1 POP JUMP JUMPDEST PUSH1 0x0 DUP1 PUSH1 0x0 DUP1 PUSH2 0x2909 DUP6 DUP10 PUSH2 0x2979 SWAP1 SWAP2 SWAP1 PUSH4 0xFFFFFFFF AND JUMP JUMPDEST SWAP1 POP PUSH1 0x0 PUSH2 0x2920 DUP7 DUP10 PUSH2 0x2979 SWAP1 SWAP2 SWAP1 PUSH4 0xFFFFFFFF AND JUMP JUMPDEST SWAP1 POP PUSH1 0x0 PUSH2 0x2937 DUP8 DUP10 PUSH2 0x2979 SWAP1 SWAP2 SWAP1 PUSH4 0xFFFFFFFF AND JUMP JUMPDEST SWAP1 POP PUSH1 0x0 PUSH2 0x2960 DUP3 PUSH2 0x2952 DUP6 DUP8 PUSH2 0x26BB SWAP1 SWAP2 SWAP1 PUSH4 0xFFFFFFFF AND JUMP JUMPDEST PUSH2 0x26BB SWAP1 SWAP2 SWAP1 PUSH4 0xFFFFFFFF AND JUMP JUMPDEST SWAP1 POP DUP4 DUP2 DUP5 SWAP7 POP SWAP7 POP SWAP7 POP POP POP POP POP SWAP5 POP SWAP5 POP SWAP5 SWAP2 POP POP JUMP JUMPDEST PUSH1 0x0 DUP1 DUP4 SUB PUSH2 0x298B JUMPI PUSH1 0x0 SWAP1 POP PUSH2 0x29ED JUMP JUMPDEST PUSH1 0x0 DUP3 DUP5 PUSH2 0x2999 SWAP2 SWAP1 PUSH2 0x38FA JUMP JUMPDEST SWAP1 POP DUP3 DUP5 DUP3 PUSH2 0x29A8 SWAP2 SWAP1 PUSH2 0x3807 JUMP JUMPDEST EQ PUSH2 0x29E8 JUMPI PUSH1 0x40 MLOAD PUSH32 0x8C379A000000000000000000000000000000000000000000000000000000000 DUP2 MSTORE PUSH1 0x4 ADD PUSH2 0x29DF SWAP1 PUSH2 0x39C6 JUMP JUMPDEST PUSH1 0x40 MLOAD DUP1 SWAP2 SUB SWAP1 REVERT JUMPDEST DUP1 SWAP2 POP POP JUMPDEST SWAP3 SWAP2 POP POP JUMP JUMPDEST PUSH1 0x0 DUP2 MLOAD SWAP1 POP SWAP2 SWAP1 POP JUMP JUMPDEST PUSH1 0x0 DUP3 DUP3 MSTORE PUSH1 0x20 DUP3 ADD SWAP1 POP SWAP3 SWAP2 POP POP JUMP JUMPDEST PUSH1 0x0 JUMPDEST DUP4 DUP2 LT ISZERO PUSH2 0x2A2D JUMPI DUP1 DUP3 ADD MLOAD DUP2 DUP5 ADD MSTORE PUSH1 0x20 DUP2 ADD SWAP1 POP PUSH2 0x2A12 JUMP JUMPDEST DUP4 DUP2 GT ISZERO PUSH2 0x2A3C JUMPI PUSH1 0x0 DUP5 DUP5 ADD MSTORE JUMPDEST POP POP POP POP JUMP JUMPDEST PUSH1 0x0 PUSH1 0x1F NOT PUSH1 0x1F DUP4 ADD AND SWAP1 POP SWAP2 SWAP1 POP JUMP JUMPDEST PUSH1 0x0 PUSH2 0x2A5E DUP3 PUSH2 0x29F3 JUMP JUMPDEST PUSH2 0x2A68 DUP2 DUP6 PUSH2 0x29FE JUMP JUMPDEST SWAP4 POP PUSH2 0x2A78 DUP2 DUP6 PUSH1 0x20 DUP7 ADD PUSH2 0x2A0F JUMP JUMPDEST PUSH2 0x2A81 DUP2 PUSH2 0x2A42 JUMP JUMPDEST DUP5 ADD SWAP2 POP POP SWAP3 SWAP2 POP POP JUMP JUMPDEST PUSH1 0x0 PUSH1 0x20 DUP3 ADD SWAP1 POP DUP2 DUP2 SUB PUSH1 0x0 DUP4 ADD MSTORE PUSH2 0x2AA6 DUP2 DUP5 PUSH2 0x2A53 JUMP JUMPDEST SWAP1 POP SWAP3 SWAP2 POP POP JUMP JUMPDEST PUSH1 0x0 DUP1 REVERT JUMPDEST PUSH1 0x0 DUP1 REVERT JUMPDEST PUSH1 0x0 PUSH20 0xFFFFFFFFFFFFFFFFFFFFFFFFFFFFFFFFFFFFFFFF DUP3 AND SWAP1 POP SWAP2 SWAP1 POP JUMP JUMPDEST PUSH1 0x0 PUSH2 0x2AE3 DUP3 PUSH2 0x2AB8 JUMP JUMPDEST SWAP1 POP SWAP2 SWAP1 POP JUMP JUMPDEST PUSH2 0x2AF3 DUP2 PUSH2 0x2AD8 JUMP JUMPDEST DUP2 EQ PUSH2 0x2AFE JUMPI PUSH1 0x0 DUP1 REVERT JUMPDEST POP JUMP JUMPDEST PUSH1 0x0 DUP2 CALLDATALOAD SWAP1 POP PUSH2 0x2B10 DUP2 PUSH2 0x2AEA JUMP JUMPDEST SWAP3 SWAP2 POP POP JUMP JUMPDEST PUSH1 0x0 DUP2 SWAP1 POP SWAP2 SWAP1 POP JUMP JUMPDEST PUSH2 0x2B29 DUP2 PUSH2 0x2B16 JUMP JUMPDEST DUP2 EQ PUSH2 0x2B34 JUMPI PUSH1 0x0 DUP1 REVERT JUMPDEST POP JUMP JUMPDEST PUSH1 0x0 DUP2 CALLDATALOAD SWAP1 POP PUSH2 0x2B46 DUP2 PUSH2 0x2B20 JUMP JUMPDEST SWAP3 SWAP2 POP POP JUMP JUMPDEST PUSH1 0x0 DUP1 PUSH1 0x40 DUP4 DUP6 SUB SLT ISZERO PUSH2 0x2B63 JUMPI PUSH2 0x2B62 PUSH2 0x2AAE JUMP JUMPDEST JUMPDEST PUSH1 0x0 PUSH2 0x2B71 DUP6 DUP3 DUP7 ADD PUSH2 0x2B01 JUMP JUMPDEST SWAP3 POP POP PUSH1 0x20 PUSH2 0x2B82 DUP6 DUP3 DUP7 ADD PUSH2 0x2B37 JUMP JUMPDEST SWAP2 POP POP SWAP3 POP SWAP3 SWAP1 POP JUMP JUMPDEST PUSH1 0x0 DUP2 ISZERO ISZERO SWAP1 POP SWAP2 SWAP1 POP JUMP JUMPDEST PUSH2 0x2BA1 DUP2 PUSH2 0x2B8C JUMP JUMPDEST DUP3 MSTORE POP POP JUMP JUMPDEST PUSH1 0x0 PUSH1 0x20 DUP3 ADD SWAP1 POP PUSH2 0x2BBC PUSH1 0x0 DUP4 ADD DUP5 PUSH2 0x2B98 JUMP JUMPDEST SWAP3 SWAP2 POP POP JUMP JUMPDEST PUSH1 0x0 DUP2 SWAP1 POP SWAP2 SWAP1 POP JUMP JUMPDEST PUSH1 0x0 PUSH2 0x2BE7 PUSH2 0x2BE2 PUSH2 0x2BDD DUP5 PUSH2 0x2AB8 JUMP JUMPDEST PUSH2 0x2BC2 JUMP JUMPDEST PUSH2 0x2AB8 JUMP JUMPDEST SWAP1 POP SWAP2 SWAP1 POP JUMP JUMPDEST PUSH1 0x0 PUSH2 0x2BF9 DUP3 PUSH2 0x2BCC JUMP JUMPDEST SWAP1 POP SWAP2 SWAP1 POP JUMP JUMPDEST PUSH1 0x0 PUSH2 0x2C0B DUP3 PUSH2 0x2BEE JUMP JUMPDEST SWAP1 POP SWAP2 SWAP1 POP JUMP JUMPDEST PUSH2 0x2C1B DUP2 PUSH2 0x2C00 JUMP JUMPDEST DUP3 MSTORE POP POP JUMP JUMPDEST PUSH1 0x0 PUSH1 0x20 DUP3 ADD SWAP1 POP PUSH2 0x2C36 PUSH1 0x0 DUP4 ADD DUP5 PUSH2 0x2C12 JUMP JUMPDEST SWAP3 SWAP2 POP POP JUMP JUMPDEST PUSH2 0x2C45 DUP2 PUSH2 0x2B16 JUMP JUMPDEST DUP3 MSTORE POP POP JUMP JUMPDEST PUSH1 0x0 PUSH1 0x20 DUP3 ADD SWAP1 POP PUSH2 0x2C60 PUSH1 0x0 DUP4 ADD DUP5 PUSH2 0x2C3C JUMP JUMPDEST SWAP3 SWAP2 POP POP JUMP JUMPDEST PUSH1 0x0 DUP1 PUSH1 0x0 PUSH1 0x60 DUP5 DUP7 SUB SLT ISZERO PUSH2 0x2C7F JUMPI PUSH2 0x2C7E PUSH2 0x2AAE JUMP JUMPDEST JUMPDEST PUSH1 0x0 PUSH2 0x2C8D DUP7 DUP3 DUP8 ADD PUSH2 0x2B01 JUMP JUMPDEST SWAP4 POP POP PUSH1 0x20 PUSH2 0x2C9E DUP7 DUP3 DUP8 ADD PUSH2 0x2B01 JUMP JUMPDEST SWAP3 POP POP PUSH1 0x40 PUSH2 0x2CAF DUP7 DUP3 DUP8 ADD PUSH2 0x2B37 JUMP JUMPDEST SWAP2 POP POP SWAP3 POP SWAP3 POP SWAP3 JUMP JUMPDEST PUSH1 0x0 PUSH1 0xFF DUP3 AND SWAP1 POP SWAP2 SWAP1 POP JUMP JUMPDEST PUSH2 0x2CCF DUP2 PUSH2 0x2CB9 JUMP JUMPDEST DUP3 MSTORE POP POP JUMP JUMPDEST PUSH1 0x0 PUSH1 0x20 DUP3 ADD SWAP1 POP PUSH2 0x2CEA PUSH1 0x0 DUP4 ADD DUP5 PUSH2 0x2CC6 JUMP JUMPDEST SWAP3 SWAP2 POP POP JUMP JUMPDEST PUSH2 0x2CF9 DUP2 PUSH2 0x2AD8 JUMP JUMPDEST DUP3 MSTORE POP POP JUMP JUMPDEST PUSH1 0x0 PUSH1 0x20 DUP3 ADD SWAP1 POP PUSH2 0x2D14 PUSH1 0x0 DUP4 ADD DUP5 PUSH2 0x2CF0 JUMP JUMPDEST SWAP3 SWAP2 POP POP JUMP JUMPDEST PUSH1 0x0 PUSH2 0x2D25 DUP3 PUSH2 0x2BEE JUMP JUMPDEST SWAP1 POP SWAP2 SWAP1 POP JUMP JUMPDEST PUSH2 0x2D35 DUP2 PUSH2 0x2D1A JUMP JUMPDEST DUP3 MSTORE POP POP JUMP JUMPDEST PUSH1 0x0 PUSH1 0x20 DUP3 ADD SWAP1 POP PUSH2 0x2D50 PUSH1 0x0 DUP4 ADD DUP5 PUSH2 0x2D2C JUMP JUMPDEST SWAP3 SWAP2 POP POP JUMP JUMPDEST PUSH2 0x2D5F DUP2 PUSH2 0x2B8C JUMP JUMPDEST DUP2 EQ PUSH2 0x2D6A JUMPI PUSH1 0x0 DUP1 REVERT JUMPDEST POP JUMP JUMPDEST PUSH1 0x0 DUP2 CALLDATALOAD SWAP1 POP PUSH2 0x2D7C DUP2 PUSH2 0x2D56 JUMP JUMPDEST SWAP3 SWAP2 POP POP JUMP JUMPDEST PUSH1 0x0 PUSH1 0x20 DUP3 DUP5 SUB SLT ISZERO PUSH2 0x2D98 JUMPI PUSH2 0x2D97 PUSH2 0x2AAE JUMP JUMPDEST JUMPDEST PUSH1 0x0 PUSH2 0x2DA6 DUP5 DUP3 DUP6 ADD PUSH2 0x2D6D JUMP JUMPDEST SWAP2 POP POP SWAP3 SWAP2 POP POP JUMP JUMPDEST PUSH1 0x0 PUSH1 0x20 DUP3 DUP5 SUB SLT ISZERO PUSH2 0x2DC5 JUMPI PUSH2 0x2DC4 PUSH2 0x2AAE JUMP JUMPDEST JUMPDEST PUSH1 0x0 PUSH2 0x2DD3 DUP5 DUP3 DUP6 ADD PUSH2 0x2B01 JUMP JUMPDEST SWAP2 POP POP SWAP3 SWAP2 POP POP JUMP JUMPDEST PUSH1 0x0 PUSH2 0x2DE7 DUP3 PUSH2 0x2AB8 JUMP JUMPDEST SWAP1 POP SWAP2 SWAP1 POP JUMP JUMPDEST PUSH2 0x2DF7 DUP2 PUSH2 0x2DDC JUMP JUMPDEST DUP2 EQ PUSH2 0x2E02 JUMPI PUSH1 0x0 DUP1 REVERT JUMPDEST POP JUMP JUMPDEST PUSH1 0x0 DUP2 CALLDATALOAD SWAP1 POP PUSH2 0x2E14 DUP2 PUSH2 0x2DEE JUMP JUMPDEST SWAP3 SWAP2 POP POP JUMP JUMPDEST PUSH1 0x0 PUSH1 0x20 DUP3 DUP5 SUB SLT ISZERO PUSH2 0x2E30 JUMPI PUSH2 0x2E2F PUSH2 0x2AAE JUMP JUMPDEST JUMPDEST PUSH1 0x0 PUSH2 0x2E3E DUP5 DUP3 DUP6 ADD PUSH2 0x2E05 JUMP JUMPDEST SWAP2 POP POP SWAP3 SWAP2 POP POP JUMP JUMPDEST PUSH1 0x0 DUP1 PUSH1 0x0 DUP1 PUSH1 0x80 DUP6 DUP8 SUB SLT ISZERO PUSH2 0x2E61 JUMPI PUSH2 0x2E60 PUSH2 0x2AAE JUMP JUMPDEST JUMPDEST PUSH1 0x0 PUSH2 0x2E6F DUP8 DUP3 DUP9 ADD PUSH2 0x2B37 JUMP JUMPDEST SWAP5 POP POP PUSH1 0x20 PUSH2 0x2E80 DUP8 DUP3 DUP9 ADD PUSH2 0x2B37 JUMP JUMPDEST SWAP4 POP POP PUSH1 0x40 PUSH2 0x2E91 DUP8 DUP3 DUP9 ADD PUSH2 0x2B37 JUMP JUMPDEST SWAP3 POP POP PUSH1 0x60 PUSH2 0x2EA2 DUP8 DUP3 DUP9 ADD PUSH2 0x2B37 JUMP JUMPDEST SWAP2 POP POP SWAP3 SWAP6 SWAP2 SWAP5 POP SWAP3 POP JUMP JUMPDEST PUSH1 0x0 DUP1 REVERT JUMPDEST PUSH1 0x0 DUP1 REVERT JUMPDEST PUSH1 0x0 DUP1 REVERT JUMPDEST PUSH1 0x0 DUP1 DUP4 PUSH1 0x1F DUP5 ADD SLT PUSH2 0x2ED3 JUMPI PUSH2 0x2ED2 PUSH2 0x2EAE JUMP JUMPDEST JUMPDEST DUP3 CALLDATALOAD SWAP1 POP PUSH8 0xFFFFFFFFFFFFFFFF DUP2 GT ISZERO PUSH2 0x2EF0 JUMPI PUSH2 0x2EEF PUSH2 0x2EB3 JUMP JUMPDEST JUMPDEST PUSH1 0x20 DUP4 ADD SWAP2 POP DUP4 PUSH1 0x20 DUP3 MUL DUP4 ADD GT ISZERO PUSH2 0x2F0C JUMPI PUSH2 0x2F0B PUSH2 0x2EB8 JUMP JUMPDEST JUMPDEST SWAP3 POP SWAP3 SWAP1 POP JUMP JUMPDEST PUSH1 0x0 DUP1 PUSH1 0x0 PUSH1 0x40 DUP5 DUP7 SUB SLT ISZERO PUSH2 0x2F2C JUMPI PUSH2 0x2F2B PUSH2 0x2AAE JUMP JUMPDEST JUMPDEST PUSH1 0x0 DUP5 ADD CALLDATALOAD PUSH8 0xFFFFFFFFFFFFFFFF DUP2 GT ISZERO PUSH2 0x2F4A JUMPI PUSH2 0x2F49 PUSH2 0x2AB3 JUMP JUMPDEST JUMPDEST PUSH2 0x2F56 DUP7 DUP3 DUP8 ADD PUSH2 0x2EBD JUMP JUMPDEST SWAP4 POP SWAP4 POP POP PUSH1 0x20 PUSH2 0x2F69 DUP7 DUP3 DUP8 ADD PUSH2 0x2D6D JUMP JUMPDEST SWAP2 POP POP SWAP3 POP SWAP3 POP SWAP3 JUMP JUMPDEST PUSH1 0x0 DUP1 PUSH1 0x40 DUP4 DUP6 SUB SLT ISZERO PUSH2 0x2F8A JUMPI PUSH2 0x2F89 PUSH2 0x2AAE JUMP JUMPDEST JUMPDEST PUSH1 0x0 PUSH2 0x2F98 DUP6 DUP3 DUP7 ADD PUSH2 0x2B01 JUMP JUMPDEST SWAP3 POP POP PUSH1 0x20 PUSH2 0x2FA9 DUP6 DUP3 DUP7 ADD PUSH2 0x2B01 JUMP JUMPDEST SWAP2 POP POP SWAP3 POP SWAP3 SWAP1 POP JUMP JUMPDEST PUSH32 0x43616C6C6572206973206E6F7420746865206465760000000000000000000000 PUSH1 0x0 DUP3 ADD MSTORE POP JUMP JUMPDEST PUSH1 0x0 PUSH2 0x2FE9 PUSH1 0x15 DUP4 PUSH2 0x29FE JUMP JUMPDEST SWAP2 POP PUSH2 0x2FF4 DUP3 PUSH2 0x2FB3 JUMP JUMPDEST PUSH1 0x20 DUP3 ADD SWAP1 POP SWAP2 SWAP1 POP JUMP JUMPDEST PUSH1 0x0 PUSH1 0x20 DUP3 ADD SWAP1 POP DUP2 DUP2 SUB PUSH1 0x0 DUP4 ADD MSTORE PUSH2 0x3018 DUP2 PUSH2 0x2FDC JUMP JUMPDEST SWAP1 POP SWAP2 SWAP1 POP JUMP JUMPDEST PUSH32 0x43616C6C6572206973206E6F7420746865206F776E6572000000000000000000 PUSH1 0x0 DUP3 ADD MSTORE POP JUMP JUMPDEST PUSH1 0x0 PUSH2 0x3055 PUSH1 0x17 DUP4 PUSH2 0x29FE JUMP JUMPDEST SWAP2 POP PUSH2 0x3060 DUP3 PUSH2 0x301F JUMP JUMPDEST PUSH1 0x20 DUP3 ADD SWAP1 POP SWAP2 SWAP1 POP JUMP JUMPDEST PUSH1 0x0 PUSH1 0x20 DUP3 ADD SWAP1 POP DUP2 DUP2 SUB PUSH1 0x0 DUP4 ADD MSTORE PUSH2 0x3084 DUP2 PUSH2 0x3048 JUMP JUMPDEST SWAP1 POP SWAP2 SWAP1 POP JUMP JUMPDEST PUSH32 0x52656469732063616E6E6F74206265206D6F7265207468616E2031302E000000 PUSH1 0x0 DUP3 ADD MSTORE POP JUMP JUMPDEST PUSH1 0x0 PUSH2 0x30C1 PUSH1 0x1D DUP4 PUSH2 0x29FE JUMP JUMPDEST SWAP2 POP PUSH2 0x30CC DUP3 PUSH2 0x308B JUMP JUMPDEST PUSH1 0x20 DUP3 ADD SWAP1 POP SWAP2 SWAP1 POP JUMP JUMPDEST PUSH1 0x0 PUSH1 0x20 DUP3 ADD SWAP1 POP DUP2 DUP2 SUB PUSH1 0x0 DUP4 ADD MSTORE PUSH2 0x30F0 DUP2 PUSH2 0x30B4 JUMP JUMPDEST SWAP1 POP SWAP2 SWAP1 POP JUMP JUMPDEST PUSH32 0x5461782063616E6E6F74206265206D6F7265207468616E20362E000000000000 PUSH1 0x0 DUP3 ADD MSTORE POP JUMP JUMPDEST PUSH1 0x0 PUSH2 0x312D PUSH1 0x1A DUP4 PUSH2 0x29FE JUMP JUMPDEST SWAP2 POP PUSH2 0x3138 DUP3 PUSH2 0x30F7 JUMP JUMPDEST PUSH1 0x20 DUP3 ADD SWAP1 POP SWAP2 SWAP1 POP JUMP JUMPDEST PUSH1 0x0 PUSH1 0x20 DUP3 ADD SWAP1 POP DUP2 DUP2 SUB PUSH1 0x0 DUP4 ADD MSTORE PUSH2 0x315C DUP2 PUSH2 0x3120 JUMP JUMPDEST SWAP1 POP SWAP2 SWAP1 POP JUMP JUMPDEST PUSH32 0x4E487B7100000000000000000000000000000000000000000000000000000000 PUSH1 0x0 MSTORE PUSH1 0x32 PUSH1 0x4 MSTORE PUSH1 0x24 PUSH1 0x0 REVERT JUMPDEST PUSH32 0x4E487B7100000000000000000000000000000000000000000000000000000000 PUSH1 0x0 MSTORE PUSH1 0x11 PUSH1 0x4 MSTORE PUSH1 0x24 PUSH1 0x0 REVERT JUMPDEST PUSH1 0x0 PUSH2 0x31CC DUP3 PUSH2 0x2B16 JUMP JUMPDEST SWAP2 POP PUSH32 0xFFFFFFFFFFFFFFFFFFFFFFFFFFFFFFFFFFFFFFFFFFFFFFFFFFFFFFFFFFFFFFFF DUP3 SUB PUSH2 0x31FE JUMPI PUSH2 0x31FD PUSH2 0x3192 JUMP JUMPDEST JUMPDEST PUSH1 0x1 DUP3 ADD SWAP1 POP SWAP2 SWAP1 POP JUMP JUMPDEST PUSH1 0x0 PUSH1 0x40 DUP3 ADD SWAP1 POP PUSH2 0x321E PUSH1 0x0 DUP4 ADD DUP6 PUSH2 0x2CF0 JUMP JUMPDEST PUSH2 0x322B PUSH1 0x20 DUP4 ADD DUP5 PUSH2 0x2C3C JUMP JUMPDEST SWAP4 SWAP3 POP POP POP JUMP JUMPDEST PUSH1 0x0 DUP2 MLOAD SWAP1 POP PUSH2 0x3241 DUP2 PUSH2 0x2D56 JUMP JUMPDEST SWAP3 SWAP2 POP POP JUMP JUMPDEST PUSH1 0x0 PUSH1 0x20 DUP3 DUP5 SUB SLT ISZERO PUSH2 0x325D JUMPI PUSH2 0x325C PUSH2 0x2AAE JUMP JUMPDEST JUMPDEST PUSH1 0x0 PUSH2 0x326B DUP5 DUP3 DUP6 ADD PUSH2 0x3232 JUMP JUMPDEST SWAP2 POP POP SWAP3 SWAP2 POP POP JUMP JUMPDEST PUSH32 0x45524332303A20617070726F76652066726F6D20746865207A65726F20616464 PUSH1 0x0 DUP3 ADD MSTORE PUSH32 0x7265737300000000000000000000000000000000000000000000000000000000 PUSH1 0x20 DUP3 ADD MSTORE POP JUMP JUMPDEST PUSH1 0x0 PUSH2 0x32D0 PUSH1 0x24 DUP4 PUSH2 0x29FE JUMP JUMPDEST SWAP2 POP PUSH2 0x32DB DUP3 PUSH2 0x3274 JUMP JUMPDEST PUSH1 0x40 DUP3 ADD SWAP1 POP SWAP2 SWAP1 POP JUMP JUMPDEST PUSH1 0x0 PUSH1 0x20 DUP3 ADD SWAP1 POP DUP2 DUP2 SUB PUSH1 0x0 DUP4 ADD MSTORE PUSH2 0x32FF DUP2 PUSH2 0x32C3 JUMP JUMPDEST SWAP1 POP SWAP2 SWAP1 POP JUMP JUMPDEST PUSH32 0x45524332303A20617070726F766520746F20746865207A65726F206164647265 PUSH1 0x0 DUP3 ADD MSTORE PUSH32 0x7373000000000000000000000000000000000000000000000000000000000000 PUSH1 0x20 DUP3 ADD MSTORE POP JUMP JUMPDEST PUSH1 0x0 PUSH2 0x3362 PUSH1 0x22 DUP4 PUSH2 0x29FE JUMP JUMPDEST SWAP2 POP PUSH2 0x336D DUP3 PUSH2 0x3306 JUMP JUMPDEST PUSH1 0x40 DUP3 ADD SWAP1 POP SWAP2 SWAP1 POP JUMP JUMPDEST PUSH1 0x0 PUSH1 0x20 DUP3 ADD SWAP1 POP DUP2 DUP2 SUB PUSH1 0x0 DUP4 ADD MSTORE PUSH2 0x3391 DUP2 PUSH2 0x3355 JUMP JUMPDEST SWAP1 POP SWAP2 SWAP1 POP JUMP JUMPDEST PUSH32 0x45524332303A207472616E736665722066726F6D20746865207A65726F206164 PUSH1 0x0 DUP3 ADD MSTORE PUSH32 0x6472657373000000000000000000000000000000000000000000000000000000 PUSH1 0x20 DUP3 ADD MSTORE POP JUMP JUMPDEST PUSH1 0x0 PUSH2 0x33F4 PUSH1 0x25 DUP4 PUSH2 0x29FE JUMP JUMPDEST SWAP2 POP PUSH2 0x33FF DUP3 PUSH2 0x3398 JUMP JUMPDEST PUSH1 0x40 DUP3 ADD SWAP1 POP SWAP2 SWAP1 POP JUMP JUMPDEST PUSH1 0x0 PUSH1 0x20 DUP3 ADD SWAP1 POP DUP2 DUP2 SUB PUSH1 0x0 DUP4 ADD MSTORE PUSH2 0x3423 DUP2 PUSH2 0x33E7 JUMP JUMPDEST SWAP1 POP SWAP2 SWAP1 POP JUMP JUMPDEST PUSH32 0x45524332303A207472616E7366657220746F20746865207A65726F2061646472 PUSH1 0x0 DUP3 ADD MSTORE PUSH32 0x6573730000000000000000000000000000000000000000000000000000000000 PUSH1 0x20 DUP3 ADD MSTORE POP JUMP JUMPDEST PUSH1 0x0 PUSH2 0x3486 PUSH1 0x23 DUP4 PUSH2 0x29FE JUMP JUMPDEST SWAP2 POP PUSH2 0x3491 DUP3 PUSH2 0x342A JUMP JUMPDEST PUSH1 0x40 DUP3 ADD SWAP1 POP SWAP2 SWAP1 POP JUMP JUMPDEST PUSH1 0x0 PUSH1 0x20 DUP3 ADD SWAP1 POP DUP2 DUP2 SUB PUSH1 0x0 DUP4 ADD MSTORE PUSH2 0x34B5 DUP2 PUSH2 0x3479 JUMP JUMPDEST SWAP1 POP SWAP2 SWAP1 POP JUMP JUMPDEST PUSH32 0x5472616E7366657220616D6F756E74206D757374206265206772656174657220 PUSH1 0x0 DUP3 ADD MSTORE PUSH32 0x7468616E207A65726F0000000000000000000000000000000000000000000000 PUSH1 0x20 DUP3 ADD MSTORE POP JUMP JUMPDEST PUSH1 0x0 PUSH2 0x3518 PUSH1 0x29 DUP4 PUSH2 0x29FE JUMP JUMPDEST SWAP2 POP PUSH2 0x3523 DUP3 PUSH2 0x34BC JUMP JUMPDEST PUSH1 0x40 DUP3 ADD SWAP1 POP SWAP2 SWAP1 POP JUMP JUMPDEST PUSH1 0x0 PUSH1 0x20 DUP3 ADD SWAP1 POP DUP2 DUP2 SUB PUSH1 0x0 DUP4 ADD MSTORE PUSH2 0x3547 DUP2 PUSH2 0x350B JUMP JUMPDEST SWAP1 POP SWAP2 SWAP1 POP JUMP JUMPDEST PUSH1 0x0 PUSH2 0x3559 DUP3 PUSH2 0x2B16 JUMP JUMPDEST SWAP2 POP PUSH2 0x3564 DUP4 PUSH2 0x2B16 JUMP JUMPDEST SWAP3 POP DUP3 DUP3 LT ISZERO PUSH2 0x3577 JUMPI PUSH2 0x3576 PUSH2 0x3192 JUMP JUMPDEST JUMPDEST DUP3 DUP3 SUB SWAP1 POP SWAP3 SWAP2 POP POP JUMP JUMPDEST PUSH32 0x416D6F756E74206D757374206265206C657373207468616E20746F74616C2072 PUSH1 0x0 DUP3 ADD MSTORE PUSH32 0x65666C656374696F6E7300000000000000000000000000000000000000000000 PUSH1 0x20 DUP3 ADD MSTORE POP JUMP JUMPDEST PUSH1 0x0 PUSH2 0x35DE PUSH1 0x2A DUP4 PUSH2 0x29FE JUMP JUMPDEST SWAP2 POP PUSH2 0x35E9 DUP3 PUSH2 0x3582 JUMP JUMPDEST PUSH1 0x40 DUP3 ADD SWAP1 POP SWAP2 SWAP1 POP JUMP JUMPDEST PUSH1 0x0 PUSH1 0x20 DUP3 ADD SWAP1 POP DUP2 DUP2 SUB PUSH1 0x0 DUP4 ADD MSTORE PUSH2 0x360D DUP2 PUSH2 0x35D1 JUMP JUMPDEST SWAP1 POP SWAP2 SWAP1 POP JUMP JUMPDEST PUSH32 0x4E487B7100000000000000000000000000000000000000000000000000000000 PUSH1 0x0 MSTORE PUSH1 0x41 PUSH1 0x4 MSTORE PUSH1 0x24 PUSH1 0x0 REVERT JUMPDEST PUSH1 0x0 DUP2 MLOAD SWAP1 POP PUSH2 0x3652 DUP2 PUSH2 0x2AEA JUMP JUMPDEST SWAP3 SWAP2 POP POP JUMP JUMPDEST PUSH1 0x0 PUSH1 0x20 DUP3 DUP5 SUB SLT ISZERO PUSH2 0x366E JUMPI PUSH2 0x366D PUSH2 0x2AAE JUMP JUMPDEST JUMPDEST PUSH1 0x0 PUSH2 0x367C DUP5 DUP3 DUP6 ADD PUSH2 0x3643 JUMP JUMPDEST SWAP2 POP POP SWAP3 SWAP2 POP POP JUMP JUMPDEST PUSH1 0x0 DUP2 SWAP1 POP SWAP2 SWAP1 POP JUMP JUMPDEST PUSH1 0x0 PUSH2 0x36AA PUSH2 0x36A5 PUSH2 0x36A0 DUP5 PUSH2 0x3685 JUMP JUMPDEST PUSH2 0x2BC2 JUMP JUMPDEST PUSH2 0x2B16 JUMP JUMPDEST SWAP1 POP SWAP2 SWAP1 POP JUMP JUMPDEST PUSH2 0x36BA DUP2 PUSH2 0x368F JUMP JUMPDEST DUP3 MSTORE POP POP JUMP JUMPDEST PUSH1 0x0 DUP2 MLOAD SWAP1 POP SWAP2 SWAP1 POP JUMP JUMPDEST PUSH1 0x0 DUP3 DUP3 MSTORE PUSH1 0x20 DUP3 ADD SWAP1 POP SWAP3 SWAP2 POP POP JUMP JUMPDEST PUSH1 0x0 DUP2 SWAP1 POP PUSH1 0x20 DUP3 ADD SWAP1 POP SWAP2 SWAP1 POP JUMP JUMPDEST PUSH2 0x36F5 DUP2 PUSH2 0x2AD8 JUMP JUMPDEST DUP3 MSTORE POP POP JUMP JUMPDEST PUSH1 0x0 PUSH2 0x3707 DUP4 DUP4 PUSH2 0x36EC JUMP JUMPDEST PUSH1 0x20 DUP4 ADD SWAP1 POP SWAP3 SWAP2 POP POP JUMP JUMPDEST PUSH1 0x0 PUSH1 0x20 DUP3 ADD SWAP1 POP SWAP2 SWAP1 POP JUMP JUMPDEST PUSH1 0x0 PUSH2 0x372B DUP3 PUSH2 0x36C0 JUMP JUMPDEST PUSH2 0x3735 DUP2 DUP6 PUSH2 0x36CB JUMP JUMPDEST SWAP4 POP PUSH2 0x3740 DUP4 PUSH2 0x36DC JUMP JUMPDEST DUP1 PUSH1 0x0 JUMPDEST DUP4 DUP2 LT ISZERO PUSH2 0x3771 JUMPI DUP2 MLOAD PUSH2 0x3758 DUP9 DUP3 PUSH2 0x36FB JUMP JUMPDEST SWAP8 POP PUSH2 0x3763 DUP4 PUSH2 0x3713 JUMP JUMPDEST SWAP3 POP POP PUSH1 0x1 DUP2 ADD SWAP1 POP PUSH2 0x3744 JUMP JUMPDEST POP DUP6 SWAP4 POP POP POP POP SWAP3 SWAP2 POP POP JUMP JUMPDEST PUSH1 0x0 PUSH1 0xA0 DUP3 ADD SWAP1 POP PUSH2 0x3793 PUSH1 0x0 DUP4 ADD DUP9 PUSH2 0x2C3C JUMP JUMPDEST PUSH2 0x37A0 PUSH1 0x20 DUP4 ADD DUP8 PUSH2 0x36B1 JUMP JUMPDEST DUP2 DUP2 SUB PUSH1 0x40 DUP4 ADD MSTORE PUSH2 0x37B2 DUP2 DUP7 PUSH2 0x3720 JUMP JUMPDEST SWAP1 POP PUSH2 0x37C1 PUSH1 0x60 DUP4 ADD DUP6 PUSH2 0x2CF0 JUMP JUMPDEST PUSH2 0x37CE PUSH1 0x80 DUP4 ADD DUP5 PUSH2 0x2C3C JUMP JUMPDEST SWAP7 SWAP6 POP POP POP POP POP POP JUMP JUMPDEST PUSH32 0x4E487B7100000000000000000000000000000000000000000000000000000000 PUSH1 0x0 MSTORE PUSH1 0x12 PUSH1 0x4 MSTORE PUSH1 0x24 PUSH1 0x0 REVERT JUMPDEST PUSH1 0x0 PUSH2 0x3812 DUP3 PUSH2 0x2B16 JUMP JUMPDEST SWAP2 POP PUSH2 0x381D DUP4 PUSH2 0x2B16 JUMP JUMPDEST SWAP3 POP DUP3 PUSH2 0x382D JUMPI PUSH2 0x382C PUSH2 0x37D8 JUMP JUMPDEST JUMPDEST DUP3 DUP3 DIV SWAP1 POP SWAP3 SWAP2 POP POP JUMP JUMPDEST PUSH1 0x0 PUSH2 0x3843 DUP3 PUSH2 0x2B16 JUMP JUMPDEST SWAP2 POP PUSH2 0x384E DUP4 PUSH2 0x2B16 JUMP JUMPDEST SWAP3 POP DUP3 PUSH32 0xFFFFFFFFFFFFFFFFFFFFFFFFFFFFFFFFFFFFFFFFFFFFFFFFFFFFFFFFFFFFFFFF SUB DUP3 GT ISZERO PUSH2 0x3883 JUMPI PUSH2 0x3882 PUSH2 0x3192 JUMP JUMPDEST JUMPDEST DUP3 DUP3 ADD SWAP1 POP SWAP3 SWAP2 POP POP JUMP JUMPDEST PUSH32 0x536166654D6174683A206164646974696F6E206F766572666C6F770000000000 PUSH1 0x0 DUP3 ADD MSTORE POP JUMP JUMPDEST PUSH1 0x0 PUSH2 0x38C4 PUSH1 0x1B DUP4 PUSH2 0x29FE JUMP JUMPDEST SWAP2 POP PUSH2 0x38CF DUP3 PUSH2 0x388E JUMP JUMPDEST PUSH1 0x20 DUP3 ADD SWAP1 POP SWAP2 SWAP1 POP JUMP JUMPDEST PUSH1 0x0 PUSH1 0x20 DUP3 ADD SWAP1 POP DUP2 DUP2 SUB PUSH1 0x0 DUP4 ADD MSTORE PUSH2 0x38F3 DUP2 PUSH2 0x38B7 JUMP JUMPDEST SWAP1 POP SWAP2 SWAP1 POP JUMP JUMPDEST PUSH1 0x0 PUSH2 0x3905 DUP3 PUSH2 0x2B16 JUMP JUMPDEST SWAP2 POP PUSH2 0x3910 DUP4 PUSH2 0x2B16 JUMP JUMPDEST SWAP3 POP DUP2 PUSH32 0xFFFFFFFFFFFFFFFFFFFFFFFFFFFFFFFFFFFFFFFFFFFFFFFFFFFFFFFFFFFFFFFF DIV DUP4 GT DUP3 ISZERO ISZERO AND ISZERO PUSH2 0x3949 JUMPI PUSH2 0x3948 PUSH2 0x3192 JUMP JUMPDEST JUMPDEST DUP3 DUP3 MUL SWAP1 POP SWAP3 SWAP2 POP POP JUMP JUMPDEST PUSH32 0x536166654D6174683A206D756C7469706C69636174696F6E206F766572666C6F PUSH1 0x0 DUP3 ADD MSTORE PUSH32 0x7700000000000000000000000000000000000000000000000000000000000000 PUSH1 0x20 DUP3 ADD MSTORE POP JUMP JUMPDEST PUSH1 0x0 PUSH2 0x39B0 PUSH1 0x21 DUP4 PUSH2 0x29FE JUMP JUMPDEST SWAP2 POP PUSH2 0x39BB DUP3 PUSH2 0x3954 JUMP JUMPDEST PUSH1 0x40 DUP3 ADD SWAP1 POP SWAP2 SWAP1 POP JUMP JUMPDEST PUSH1 0x0 PUSH1 0x20 DUP3 ADD SWAP1 POP DUP2 DUP2 SUB PUSH1 0x0 DUP4 ADD MSTORE PUSH2 0x39DF DUP2 PUSH2 0x39A3 JUMP JUMPDEST SWAP1 POP SWAP2 SWAP1 POP JUMP INVALID GASLIMIT MSTORE NUMBER ORIGIN ADDRESS GASPRICE KECCAK256 PUSH21 0x72616E7366657220616D6F756E7420657863656564 PUSH20 0x20616C6C6F77616E6365A2646970667358221220 AND 0x4B ADDMOD ADDMOD PUSH11 0xB450F8593650FF9C4D1934 SWAP9 0x1F CALLCODE STOP 0xC5 0x1F 0xD8 0x21 CALLER SWAP12 MOD AND 0xEB 0xAD SWAP13 PUSH2 0x6473 PUSH16 0x6C634300080D00330000000000000000 "
				},
				"gasEstimates": {
					"creation": {
						"codeDepositCost": "2983200",
						"executionCost": "infinite",
						"totalCost": "infinite"
					},
					"external": {
						"allowance(address,address)": "infinite",
						"approve(address,uint256)": "infinite",
						"balanceOf(address)": "infinite",
						"decimals()": "477",
						"excludeMultipleAccountsFromFees(address[],bool)": "infinite",
						"getUniswap()": "infinite",
						"manualsend()": "infinite",
						"manualswap()": "infinite",
						"name()": "infinite",
						"owner()": "2589",
						"renounceOwnership()": "30314",
						"rescueForeignTokens(address,address,uint256)": "infinite",
						"setFee(uint256,uint256,uint256,uint256)": "infinite",
						"setNewDevAddress(address)": "infinite",
						"setNewMarketingAddress(address)": "infinite",
						"symbol()": "infinite",
						"toggleSwap(bool)": "infinite",
						"totalSupply()": "427",
						"transfer(address,uint256)": "infinite",
						"transferFrom(address,address,uint256)": "infinite",
						"transferOwnership(address)": "30734",
						"uniswapV2Factory()": "infinite",
						"uniswapV2Pair()": "2537",
						"uniswapV2Router()": "infinite"
					},
					"internal": {
						"_approve(address,address,uint256)": "infinite",
						"_getCurrentSupply()": "infinite",
						"_getRValues(uint256,uint256,uint256,uint256)": "infinite",
						"_getRate()": "infinite",
						"_getTValues(uint256,uint256,uint256)": "infinite",
						"_getValues(uint256)": "infinite",
						"_reflectFee(uint256,uint256)": "infinite",
						"_takeTeam(uint256)": "infinite",
						"_tokenTransfer(address,address,uint256)": "infinite",
						"_transfer(address,address,uint256)": "infinite",
						"_transferStandard(address,address,uint256)": "infinite",
						"sendETHToFee(uint256)": "infinite",
						"swapTokensForEth(uint256)": "infinite",
						"tokenFromReflection(uint256)": "infinite"
					}
				},
				"methodIdentifiers": {
					"allowance(address,address)": "dd62ed3e",
					"approve(address,uint256)": "095ea7b3",
					"balanceOf(address)": "70a08231",
					"decimals()": "313ce567",
					"excludeMultipleAccountsFromFees(address[],bool)": "c492f046",
					"getUniswap()": "504563c0",
					"manualsend()": "6fc3eaec",
					"manualswap()": "c3c8cd80",
					"name()": "06fdde03",
					"owner()": "8da5cb5b",
					"renounceOwnership()": "715018a6",
					"rescueForeignTokens(address,address,uint256)": "e293d316",
					"setFee(uint256,uint256,uint256,uint256)": "a2a957bb",
					"setNewDevAddress(address)": "aad5c023",
					"setNewMarketingAddress(address)": "758dbe03",
					"symbol()": "95d89b41",
					"toggleSwap(bool)": "6d8aa8f8",
					"totalSupply()": "18160ddd",
					"transfer(address,uint256)": "a9059cbb",
					"transferFrom(address,address,uint256)": "23b872dd",
					"transferOwnership(address)": "f2fde38b",
					"uniswapV2Factory()": "59d0f713",
					"uniswapV2Pair()": "49bd5a5e",
					"uniswapV2Router()": "1694505e"
				}
			},
			"storageLayout": {
				"storage": [
					{
						"astId": 305,
						"contract": "contracts/Pool/Pool.sol:World_Step",
						"label": "_owner",
						"offset": 0,
						"slot": "0",
						"type": "t_address"
					},
					{
						"astId": 307,
						"contract": "contracts/Pool/Pool.sol:World_Step",
						"label": "_previousOwner",
						"offset": 0,
						"slot": "1",
						"type": "t_address"
					},
					{
						"astId": 406,
						"contract": "contracts/Pool/Pool.sol:World_Step",
						"label": "_rOwned",
						"offset": 0,
						"slot": "2",
						"type": "t_mapping(t_address,t_uint256)"
					},
					{
						"astId": 410,
						"contract": "contracts/Pool/Pool.sol:World_Step",
						"label": "_tOwned",
						"offset": 0,
						"slot": "3",
						"type": "t_mapping(t_address,t_uint256)"
					},
					{
						"astId": 416,
						"contract": "contracts/Pool/Pool.sol:World_Step",
						"label": "_allowances",
						"offset": 0,
						"slot": "4",
						"type": "t_mapping(t_address,t_mapping(t_address,t_uint256))"
					},
					{
						"astId": 420,
						"contract": "contracts/Pool/Pool.sol:World_Step",
						"label": "_isExcludedFromFee",
						"offset": 0,
						"slot": "5",
						"type": "t_mapping(t_address,t_bool)"
					},
					{
						"astId": 451,
						"contract": "contracts/Pool/Pool.sol:World_Step",
						"label": "_rTotal",
						"offset": 0,
						"slot": "6",
						"type": "t_uint256"
					},
					{
						"astId": 453,
						"contract": "contracts/Pool/Pool.sol:World_Step",
						"label": "_tFeeTotal",
						"offset": 0,
						"slot": "7",
						"type": "t_uint256"
					},
					{
						"astId": 456,
						"contract": "contracts/Pool/Pool.sol:World_Step",
						"label": "_redisFeeOnBuy",
						"offset": 0,
						"slot": "8",
						"type": "t_uint256"
					},
					{
						"astId": 459,
						"contract": "contracts/Pool/Pool.sol:World_Step",
						"label": "_taxFeeOnBuy",
						"offset": 0,
						"slot": "9",
						"type": "t_uint256"
					},
					{
						"astId": 462,
						"contract": "contracts/Pool/Pool.sol:World_Step",
						"label": "_redisFeeOnSell",
						"offset": 0,
						"slot": "10",
						"type": "t_uint256"
					},
					{
						"astId": 465,
						"contract": "contracts/Pool/Pool.sol:World_Step",
						"label": "_taxFeeOnSell",
						"offset": 0,
						"slot": "11",
						"type": "t_uint256"
					},
					{
						"astId": 467,
						"contract": "contracts/Pool/Pool.sol:World_Step",
						"label": "_redisFee",
						"offset": 0,
						"slot": "12",
						"type": "t_uint256"
					},
					{
						"astId": 469,
						"contract": "contracts/Pool/Pool.sol:World_Step",
						"label": "_taxFee",
						"offset": 0,
						"slot": "13",
						"type": "t_uint256"
					},
					{
						"astId": 484,
						"contract": "contracts/Pool/Pool.sol:World_Step",
						"label": "_developmentAddress",
						"offset": 0,
						"slot": "14",
						"type": "t_address_payable"
					},
					{
						"astId": 490,
						"contract": "contracts/Pool/Pool.sol:World_Step",
						"label": "_marketingAddress",
						"offset": 0,
						"slot": "15",
						"type": "t_address_payable"
					},
					{
						"astId": 493,
						"contract": "contracts/Pool/Pool.sol:World_Step",
						"label": "uniswapV2Router",
						"offset": 0,
						"slot": "16",
						"type": "t_contract(IUniswapV2Router02)145"
					},
					{
						"astId": 496,
						"contract": "contracts/Pool/Pool.sol:World_Step",
						"label": "uniswapV2Factory",
						"offset": 0,
						"slot": "17",
						"type": "t_contract(IUniswapV2Factory)99"
					},
					{
						"astId": 498,
						"contract": "contracts/Pool/Pool.sol:World_Step",
						"label": "uniswapV2Pair",
						"offset": 0,
						"slot": "18",
						"type": "t_address"
					},
					{
						"astId": 501,
						"contract": "contracts/Pool/Pool.sol:World_Step",
						"label": "inSwap",
						"offset": 20,
						"slot": "18",
						"type": "t_bool"
					},
					{
						"astId": 504,
						"contract": "contracts/Pool/Pool.sol:World_Step",
						"label": "swapEnabled",
						"offset": 21,
						"slot": "18",
						"type": "t_bool"
					}
				],
				"types": {
					"t_address": {
						"encoding": "inplace",
						"label": "address",
						"numberOfBytes": "20"
					},
					"t_address_payable": {
						"encoding": "inplace",
						"label": "address payable",
						"numberOfBytes": "20"
					},
					"t_bool": {
						"encoding": "inplace",
						"label": "bool",
						"numberOfBytes": "1"
					},
					"t_contract(IUniswapV2Factory)99": {
						"encoding": "inplace",
						"label": "contract IUniswapV2Factory",
						"numberOfBytes": "20"
					},
					"t_contract(IUniswapV2Router02)145": {
						"encoding": "inplace",
						"label": "contract IUniswapV2Router02",
						"numberOfBytes": "20"
					},
					"t_mapping(t_address,t_bool)": {
						"encoding": "mapping",
						"key": "t_address",
						"label": "mapping(address => bool)",
						"numberOfBytes": "32",
						"value": "t_bool"
					},
					"t_mapping(t_address,t_mapping(t_address,t_uint256))": {
						"encoding": "mapping",
						"key": "t_address",
						"label": "mapping(address => mapping(address => uint256))",
						"numberOfBytes": "32",
						"value": "t_mapping(t_address,t_uint256)"
					},
					"t_mapping(t_address,t_uint256)": {
						"encoding": "mapping",
						"key": "t_address",
						"label": "mapping(address => uint256)",
						"numberOfBytes": "32",
						"value": "t_uint256"
					},
					"t_uint256": {
						"encoding": "inplace",
						"label": "uint256",
						"numberOfBytes": "32"
					}
				}
			},
			"userdoc": {
				"kind": "user",
				"methods": {},
				"version": 1
			}
		}
	}
}