{
	"contracts/Token/Token.sol": {
		"World_Step": {
			"abi": [
				{
					"inputs": [],
					"stateMutability": "nonpayable",
					"type": "constructor"
				},
				{
					"anonymous": false,
					"inputs": [
						{
							"indexed": true,
							"internalType": "address",
							"name": "owner",
							"type": "address"
						},
						{
							"indexed": true,
							"internalType": "address",
							"name": "spender",
							"type": "address"
						},
						{
							"indexed": false,
							"internalType": "uint256",
							"name": "value",
							"type": "uint256"
						}
					],
					"name": "Approval",
					"type": "event"
				},
				{
					"anonymous": false,
					"inputs": [
						{
							"indexed": true,
							"internalType": "address",
							"name": "from",
							"type": "address"
						},
						{
							"indexed": false,
							"internalType": "uint256",
							"name": "amount",
							"type": "uint256"
						}
					],
					"name": "Freeze",
					"type": "event"
				},
				{
					"anonymous": false,
					"inputs": [
						{
							"indexed": true,
							"internalType": "address",
							"name": "from",
							"type": "address"
						},
						{
							"indexed": true,
							"internalType": "address",
							"name": "to",
							"type": "address"
						},
						{
							"indexed": false,
							"internalType": "uint256",
							"name": "value",
							"type": "uint256"
						}
					],
					"name": "FrozenTransfer",
					"type": "event"
				},
				{
					"anonymous": false,
					"inputs": [
						{
							"indexed": true,
							"internalType": "address",
							"name": "from",
							"type": "address"
						},
						{
							"indexed": false,
							"internalType": "uint256",
							"name": "amount",
							"type": "uint256"
						}
					],
					"name": "MeltFrozen",
					"type": "event"
				},
				{
					"anonymous": false,
					"inputs": [
						{
							"indexed": true,
							"internalType": "address",
							"name": "to",
							"type": "address"
						},
						{
							"indexed": false,
							"internalType": "uint256",
							"name": "amount",
							"type": "uint256"
						}
					],
					"name": "MintFrozen",
					"type": "event"
				},
				{
					"anonymous": false,
					"inputs": [
						{
							"indexed": true,
							"internalType": "address",
							"name": "previousMinter",
							"type": "address"
						},
						{
							"indexed": true,
							"internalType": "address",
							"name": "newMinter",
							"type": "address"
						}
					],
					"name": "MinterTransferred",
					"type": "event"
				},
				{
					"anonymous": false,
					"inputs": [
						{
							"indexed": true,
							"internalType": "address",
							"name": "previousOwner",
							"type": "address"
						},
						{
							"indexed": true,
							"internalType": "address",
							"name": "newOwner",
							"type": "address"
						}
					],
					"name": "OwnershipTransferred",
					"type": "event"
				},
				{
					"anonymous": false,
					"inputs": [
						{
							"indexed": true,
							"internalType": "address",
							"name": "from",
							"type": "address"
						},
						{
							"indexed": true,
							"internalType": "address",
							"name": "to",
							"type": "address"
						},
						{
							"indexed": false,
							"internalType": "uint256",
							"name": "value",
							"type": "uint256"
						}
					],
					"name": "Transfer",
					"type": "event"
				},
				{
					"inputs": [
						{
							"internalType": "uint256",
							"name": "amount",
							"type": "uint256"
						}
					],
					"name": "BuyTest",
					"outputs": [],
					"stateMutability": "nonpayable",
					"type": "function"
				},
				{
					"inputs": [
						{
							"internalType": "address",
							"name": "recipient",
							"type": "address"
						},
						{
							"internalType": "uint256",
							"name": "amount",
							"type": "uint256"
						}
					],
					"name": "SellTest",
					"outputs": [],
					"stateMutability": "nonpayable",
					"type": "function"
				},
				{
					"inputs": [
						{
							"internalType": "address",
							"name": "account",
							"type": "address"
						}
					],
					"name": "addToMinters",
					"outputs": [],
					"stateMutability": "nonpayable",
					"type": "function"
				},
				{
					"inputs": [
						{
							"internalType": "address",
							"name": "_transferFeeAddress",
							"type": "address"
						}
					],
					"name": "addTransferFeeAddress",
					"outputs": [],
					"stateMutability": "nonpayable",
					"type": "function"
				},
				{
					"inputs": [
						{
							"internalType": "address",
							"name": "owner",
							"type": "address"
						},
						{
							"internalType": "address",
							"name": "spender",
							"type": "address"
						}
					],
					"name": "allowance",
					"outputs": [
						{
							"internalType": "uint256",
							"name": "",
							"type": "uint256"
						}
					],
					"stateMutability": "view",
					"type": "function"
				},
				{
					"inputs": [
						{
							"internalType": "address",
							"name": "spender",
							"type": "address"
						},
						{
							"internalType": "uint256",
							"name": "amount",
							"type": "uint256"
						}
					],
					"name": "approve",
					"outputs": [
						{
							"internalType": "bool",
							"name": "",
							"type": "bool"
						}
					],
					"stateMutability": "nonpayable",
					"type": "function"
				},
				{
					"inputs": [
						{
							"internalType": "address",
							"name": "account",
							"type": "address"
						}
					],
					"name": "availableBalance",
					"outputs": [
						{
							"internalType": "uint256",
							"name": "",
							"type": "uint256"
						}
					],
					"stateMutability": "view",
					"type": "function"
				},
				{
					"inputs": [
						{
							"internalType": "address",
							"name": "account",
							"type": "address"
						}
					],
					"name": "balanceOf",
					"outputs": [
						{
							"internalType": "uint256",
							"name": "",
							"type": "uint256"
						}
					],
					"stateMutability": "view",
					"type": "function"
				},
				{
					"inputs": [
						{
							"internalType": "uint256",
							"name": "amount",
							"type": "uint256"
						}
					],
					"name": "burn",
					"outputs": [
						{
							"internalType": "bool",
							"name": "",
							"type": "bool"
						}
					],
					"stateMutability": "nonpayable",
					"type": "function"
				},
				{
					"inputs": [
						{
							"internalType": "address",
							"name": "account",
							"type": "address"
						},
						{
							"internalType": "uint256",
							"name": "amount",
							"type": "uint256"
						}
					],
					"name": "burnFrom",
					"outputs": [
						{
							"internalType": "bool",
							"name": "",
							"type": "bool"
						}
					],
					"stateMutability": "nonpayable",
					"type": "function"
				},
				{
					"inputs": [],
					"name": "claimMinterAdmin",
					"outputs": [],
					"stateMutability": "nonpayable",
					"type": "function"
				},
				{
					"inputs": [],
					"name": "decimals",
					"outputs": [
						{
							"internalType": "uint8",
							"name": "",
							"type": "uint8"
						}
					],
					"stateMutability": "view",
					"type": "function"
				},
				{
					"inputs": [
						{
							"internalType": "address",
							"name": "spender",
							"type": "address"
						},
						{
							"internalType": "uint256",
							"name": "subtractedValue",
							"type": "uint256"
						}
					],
					"name": "decreaseAllowance",
					"outputs": [
						{
							"internalType": "bool",
							"name": "",
							"type": "bool"
						}
					],
					"stateMutability": "nonpayable",
					"type": "function"
				},
				{
					"inputs": [
						{
							"internalType": "address",
							"name": "account",
							"type": "address"
						},
						{
							"internalType": "uint256",
							"name": "amount",
							"type": "uint256"
						}
					],
					"name": "destroyFrozen",
					"outputs": [],
					"stateMutability": "nonpayable",
					"type": "function"
				},
				{
					"inputs": [
						{
							"internalType": "address",
							"name": "spender",
							"type": "address"
						},
						{
							"internalType": "uint256",
							"name": "addedValue",
							"type": "uint256"
						}
					],
					"name": "increaseAllowance",
					"outputs": [
						{
							"internalType": "bool",
							"name": "",
							"type": "bool"
						}
					],
					"stateMutability": "nonpayable",
					"type": "function"
				},
				{
					"inputs": [],
					"name": "maxSupply",
					"outputs": [
						{
							"internalType": "uint256",
							"name": "",
							"type": "uint256"
						}
					],
					"stateMutability": "view",
					"type": "function"
				},
				{
					"inputs": [
						{
							"internalType": "address",
							"name": "account",
							"type": "address"
						},
						{
							"internalType": "uint256",
							"name": "amount",
							"type": "uint256"
						}
					],
					"name": "meltTokens",
					"outputs": [
						{
							"internalType": "bool",
							"name": "",
							"type": "bool"
						}
					],
					"stateMutability": "nonpayable",
					"type": "function"
				},
				{
					"inputs": [
						{
							"internalType": "address",
							"name": "_to",
							"type": "address"
						},
						{
							"internalType": "uint256",
							"name": "_amount",
							"type": "uint256"
						}
					],
					"name": "mint",
					"outputs": [],
					"stateMutability": "nonpayable",
					"type": "function"
				},
				{
					"inputs": [
						{
							"internalType": "address",
							"name": "account",
							"type": "address"
						},
						{
							"internalType": "uint256",
							"name": "amount",
							"type": "uint256"
						}
					],
					"name": "mintFrozenTokens",
					"outputs": [
						{
							"internalType": "bool",
							"name": "",
							"type": "bool"
						}
					],
					"stateMutability": "nonpayable",
					"type": "function"
				},
				{
					"inputs": [],
					"name": "minteradmin",
					"outputs": [
						{
							"internalType": "address",
							"name": "",
							"type": "address"
						}
					],
					"stateMutability": "view",
					"type": "function"
				},
				{
					"inputs": [],
					"name": "name",
					"outputs": [
						{
							"internalType": "string",
							"name": "",
							"type": "string"
						}
					],
					"stateMutability": "view",
					"type": "function"
				},
				{
					"inputs": [],
					"name": "owner",
					"outputs": [
						{
							"internalType": "address",
							"name": "",
							"type": "address"
						}
					],
					"stateMutability": "view",
					"type": "function"
				},
				{
					"inputs": [],
					"name": "pendingMinterAdmin",
					"outputs": [
						{
							"internalType": "address",
							"name": "",
							"type": "address"
						}
					],
					"stateMutability": "view",
					"type": "function"
				},
				{
					"inputs": [
						{
							"internalType": "address",
							"name": "account",
							"type": "address"
						}
					],
					"name": "removeFromMinters",
					"outputs": [],
					"stateMutability": "nonpayable",
					"type": "function"
				},
				{
					"inputs": [
						{
							"internalType": "address",
							"name": "_transferFeeAddress",
							"type": "address"
						}
					],
					"name": "removeTransferBurnAddress",
					"outputs": [],
					"stateMutability": "nonpayable",
					"type": "function"
				},
				{
					"inputs": [],
					"name": "renounceOwnership",
					"outputs": [],
					"stateMutability": "nonpayable",
					"type": "function"
				},
				{
					"inputs": [],
					"name": "symbol",
					"outputs": [
						{
							"internalType": "string",
							"name": "",
							"type": "string"
						}
					],
					"stateMutability": "view",
					"type": "function"
				},
				{
					"inputs": [],
					"name": "totalSupply",
					"outputs": [
						{
							"internalType": "uint256",
							"name": "",
							"type": "uint256"
						}
					],
					"stateMutability": "view",
					"type": "function"
				},
				{
					"inputs": [
						{
							"internalType": "address",
							"name": "recipient",
							"type": "address"
						},
						{
							"internalType": "uint256",
							"name": "amount",
							"type": "uint256"
						}
					],
					"name": "transfer",
					"outputs": [
						{
							"internalType": "bool",
							"name": "",
							"type": "bool"
						}
					],
					"stateMutability": "nonpayable",
					"type": "function"
				},
				{
					"inputs": [],
					"name": "transferFeeBuyDEV",
					"outputs": [
						{
							"internalType": "uint256",
							"name": "",
							"type": "uint256"
						}
					],
					"stateMutability": "view",
					"type": "function"
				},
				{
					"inputs": [],
					"name": "transferFeeBuyLP",
					"outputs": [
						{
							"internalType": "uint256",
							"name": "",
							"type": "uint256"
						}
					],
					"stateMutability": "view",
					"type": "function"
				},
				{
					"inputs": [],
					"name": "transferFeeBuyMKT",
					"outputs": [
						{
							"internalType": "uint256",
							"name": "",
							"type": "uint256"
						}
					],
					"stateMutability": "view",
					"type": "function"
				},
				{
					"inputs": [],
					"name": "transferFeeBuyRWP",
					"outputs": [
						{
							"internalType": "uint256",
							"name": "",
							"type": "uint256"
						}
					],
					"stateMutability": "view",
					"type": "function"
				},
				{
					"inputs": [],
					"name": "transferFeeRate",
					"outputs": [
						{
							"internalType": "uint256",
							"name": "",
							"type": "uint256"
						}
					],
					"stateMutability": "view",
					"type": "function"
				},
				{
					"inputs": [],
					"name": "transferFeeSellRWP",
					"outputs": [
						{
							"internalType": "uint256",
							"name": "",
							"type": "uint256"
						}
					],
					"stateMutability": "view",
					"type": "function"
				},
				{
					"inputs": [
						{
							"internalType": "address",
							"name": "sender",
							"type": "address"
						},
						{
							"internalType": "address",
							"name": "recipient",
							"type": "address"
						},
						{
							"internalType": "uint256",
							"name": "amount",
							"type": "uint256"
						}
					],
					"name": "transferFrom",
					"outputs": [
						{
							"internalType": "bool",
							"name": "",
							"type": "bool"
						}
					],
					"stateMutability": "nonpayable",
					"type": "function"
				},
				{
					"inputs": [
						{
							"internalType": "address",
							"name": "from",
							"type": "address"
						},
						{
							"internalType": "address",
							"name": "to",
							"type": "address"
						},
						{
							"internalType": "uint256",
							"name": "amount",
							"type": "uint256"
						}
					],
					"name": "transferFrozenToken",
					"outputs": [
						{
							"internalType": "bool",
							"name": "",
							"type": "bool"
						}
					],
					"stateMutability": "nonpayable",
					"type": "function"
				},
				{
					"inputs": [
						{
							"internalType": "address",
							"name": "newMinter",
							"type": "address"
						}
					],
					"name": "transferMinterAdmin",
					"outputs": [],
					"stateMutability": "nonpayable",
					"type": "function"
				},
				{
					"inputs": [
						{
							"internalType": "address",
							"name": "newOwner",
							"type": "address"
						}
					],
					"name": "transferOwnership",
					"outputs": [],
					"stateMutability": "nonpayable",
					"type": "function"
				}
			],
			"devdoc": {
				"kind": "dev",
				"methods": {
					"owner()": {
						"details": "Returns the address of the current owner."
					},
					"renounceOwnership()": {
						"details": "Leaves the contract without owner. It will not be possible to call `onlyOwner` functions anymore. Can only be called by the current owner. NOTE: Renouncing ownership will leave the contract without an owner, thereby removing any functionality that is only available to the owner."
					},
					"transferOwnership(address)": {
						"details": "Transfers ownership of the contract to a new account (`newOwner`). Can only be called by the current owner."
					}
				},
				"version": 1
			},
			"evm": {
				"assembly": "    /* \"contracts/Token/Token.sol\":21548:29192  contract World_Step is ERC20(\"World Step\", \"WSP\", 10000*10**9*10**6, 1*10**9*10**6) {... */\n  mstore(0x40, 0x80)\n    /* \"contracts/Token/Token.sol\":21702:21744  0xAb8483F64d9C6d1EcF9b849Ae677dD3315835cb2 */\n  0xab8483f64d9c6d1ecf9b849ae677dd3315835cb2\n    /* \"contracts/Token/Token.sol\":21640:21746  address payable private _developmentAddress = payable(address(0xAb8483F64d9C6d1EcF9b849Ae677dD3315835cb2)) */\n  0x0b\n  exp(0x0100, 0x01)\n  dup2\n  sload\n  dup2\n  0xffffffffffffffffffffffffffffffffffffffff\n  mul\n  not\n  and\n  swap1\n  dup4\n  0xffffffffffffffffffffffffffffffffffffffff\n  and\n  mul\n  or\n  swap1\n  sstore\n  pop\n    /* \"contracts/Token/Token.sol\":21812:21854  0x4B20993Bc481177ec7E8f571ceCaE8A9e22C02db */\n  0x4b20993bc481177ec7e8f571cecae8a9e22c02db\n    /* \"contracts/Token/Token.sol\":21752:21856  address payable private _marketingAddress = payable(address(0x4B20993Bc481177ec7E8f571ceCaE8A9e22C02db)) */\n  0x0c\n  exp(0x0100, 0x00)\n  dup2\n  sload\n  dup2\n  0xffffffffffffffffffffffffffffffffffffffff\n  mul\n  not\n  and\n  swap1\n  dup4\n  0xffffffffffffffffffffffffffffffffffffffff\n  and\n  mul\n  or\n  swap1\n  sstore\n  pop\n    /* \"contracts/Token/Token.sol\":21916:21958  0x78731D3Ca6b7E34aC0F824c42a7cC18A495cabaB */\n  0x78731d3ca6b7e34ac0f824c42a7cc18a495cabab\n    /* \"contracts/Token/Token.sol\":21862:21960  address payable private _rewardPool = payable(address(0x78731D3Ca6b7E34aC0F824c42a7cC18A495cabaB)) */\n  0x0d\n  exp(0x0100, 0x00)\n  dup2\n  sload\n  dup2\n  0xffffffffffffffffffffffffffffffffffffffff\n  mul\n  not\n  and\n  swap1\n  dup4\n  0xffffffffffffffffffffffffffffffffffffffff\n  and\n  mul\n  or\n  swap1\n  sstore\n  pop\n    /* \"contracts/Token/Token.sol\":22020:22062  0x617F2E2fD72FD9D5503197092aC168c91465E7f2 */\n  0x617f2e2fd72fd9d5503197092ac168c91465e7f2\n    /* \"contracts/Token/Token.sol\":21963:22064  address payable private _liquidityPool = payable(address(0x617F2E2fD72FD9D5503197092aC168c91465E7f2)) */\n  0x0e\n  exp(0x0100, 0x00)\n  dup2\n  sload\n  dup2\n  0xffffffffffffffffffffffffffffffffffffffff\n  mul\n  not\n  and\n  swap1\n  dup4\n  0xffffffffffffffffffffffffffffffffffffffff\n  and\n  mul\n  or\n  swap1\n  sstore\n  pop\n    /* \"contracts/Token/Token.sol\":28508:29190  constructor() public {... */\n  callvalue\n  dup1\n  iszero\n  tag_1\n  jumpi\n  0x00\n  dup1\n  revert\ntag_1:\n  pop\n    /* \"contracts/Token/Token.sol\":15930:16160  constructor (string memory name, string memory symbol, uint256 max, uint total) public {... */\n  mload(0x40)\n  dup1\n  0x40\n  add\n  0x40\n  mstore\n  dup1\n  0x0a\n  dup2\n  mstore\n  0x20\n  add\n  0x576f726c64205374657000000000000000000000000000000000000000000000\n  dup2\n  mstore\n  pop\n  mload(0x40)\n  dup1\n  0x40\n  add\n  0x40\n  mstore\n  dup1\n  0x03\n  dup2\n  mstore\n  0x20\n  add\n  0x5753500000000000000000000000000000000000000000000000000000000000\n  dup2\n  mstore\n  pop\n    /* \"contracts/Token/Token.sol\":21598:21615  10000*10**9*10**6 */\n  0x8ac7230489e80000\n    /* \"contracts/Token/Token.sol\":21617:21630  1*10**9*10**6 */\n  0x038d7ea4c68000\n    /* \"contracts/Token/Token.sol\":11861:11878  address msgSender */\n  0x00\n    /* \"contracts/Token/Token.sol\":11881:11893  _msgSender() */\n  tag_7\n    /* \"contracts/Token/Token.sol\":11881:11891  _msgSender */\n  shl(0x20, tag_8)\n    /* \"contracts/Token/Token.sol\":11881:11893  _msgSender() */\n  0x20\n  shr\n  jump\t// in\ntag_7:\n    /* \"contracts/Token/Token.sol\":11861:11893  address msgSender = _msgSender() */\n  swap1\n  pop\n    /* \"contracts/Token/Token.sol\":11906:11915  msgSender */\n  dup1\n    /* \"contracts/Token/Token.sol\":11897:11903  _owner */\n  0x01\n  0x00\n    /* \"contracts/Token/Token.sol\":11897:11915  _owner = msgSender */\n  0x0100\n  exp\n  dup2\n  sload\n  dup2\n  0xffffffffffffffffffffffffffffffffffffffff\n  mul\n  not\n  and\n  swap1\n  dup4\n  0xffffffffffffffffffffffffffffffffffffffff\n  and\n  mul\n  or\n  swap1\n  sstore\n  pop\n    /* \"contracts/Token/Token.sol\":11957:11966  msgSender */\n  dup1\n    /* \"contracts/Token/Token.sol\":11924:11967  OwnershipTransferred(address(0), msgSender) */\n  0xffffffffffffffffffffffffffffffffffffffff\n  and\n    /* \"contracts/Token/Token.sol\":11953:11954  0 */\n  0x00\n    /* \"contracts/Token/Token.sol\":11924:11967  OwnershipTransferred(address(0), msgSender) */\n  0xffffffffffffffffffffffffffffffffffffffff\n  and\n  0x8be0079c531659141344cd1fd0a4f28419497f9722a3daafe3b4186f6b6457e0\n  mload(0x40)\n  mload(0x40)\n  dup1\n  swap2\n  sub\n  swap1\n  log3\n    /* \"contracts/Token/Token.sol\":11833:11971  constructor () internal {... */\n  pop\n    /* \"contracts/Token/Token.sol\":14441:14451  msg.sender */\n  caller\n    /* \"contracts/Token/Token.sol\":14426:14438  _minterAdmin */\n  0x03\n  0x00\n    /* \"contracts/Token/Token.sol\":14426:14451  _minterAdmin = msg.sender */\n  0x0100\n  exp\n  dup2\n  sload\n  dup2\n  0xffffffffffffffffffffffffffffffffffffffff\n  mul\n  not\n  and\n  swap1\n  dup4\n  0xffffffffffffffffffffffffffffffffffffffff\n  and\n  mul\n  or\n  swap1\n  sstore\n  pop\n    /* \"contracts/Token/Token.sol\":14484:14488  true */\n  0x01\n    /* \"contracts/Token/Token.sol\":14461:14469  _minters */\n  0x02\n    /* \"contracts/Token/Token.sol\":14461:14481  _minters[msg.sender] */\n  0x00\n    /* \"contracts/Token/Token.sol\":14470:14480  msg.sender */\n  caller\n    /* \"contracts/Token/Token.sol\":14461:14481  _minters[msg.sender] */\n  0xffffffffffffffffffffffffffffffffffffffff\n  and\n  0xffffffffffffffffffffffffffffffffffffffff\n  and\n  dup2\n  mstore\n  0x20\n  add\n  swap1\n  dup2\n  mstore\n  0x20\n  add\n  0x00\n  keccak256\n  0x00\n    /* \"contracts/Token/Token.sol\":14461:14488  _minters[msg.sender] = true */\n  0x0100\n  exp\n  dup2\n  sload\n  dup2\n  0xff\n  mul\n  not\n  and\n  swap1\n  dup4\n  iszero\n  iszero\n  mul\n  or\n  swap1\n  sstore\n  pop\n    /* \"contracts/Token/Token.sol\":16029:16033  name */\n  dup4\n    /* \"contracts/Token/Token.sol\":16021:16026  _name */\n  0x09\n    /* \"contracts/Token/Token.sol\":16021:16033  _name = name */\n  swap1\n  dup1\n  mload\n  swap1\n  0x20\n  add\n  swap1\n  tag_11\n  swap3\n  swap2\n  swap1\n  tag_12\n  jump\t// in\ntag_11:\n  pop\n    /* \"contracts/Token/Token.sol\":16047:16053  symbol */\n  dup3\n    /* \"contracts/Token/Token.sol\":16037:16044  _symbol */\n  0x0a\n    /* \"contracts/Token/Token.sol\":16037:16053  _symbol = symbol */\n  swap1\n  dup1\n  mload\n  swap1\n  0x20\n  add\n  swap1\n  tag_13\n  swap3\n  swap2\n  swap1\n  tag_12\n  jump\t// in\ntag_13:\n  pop\n    /* \"contracts/Token/Token.sol\":16069:16070  9 */\n  0x09\n    /* \"contracts/Token/Token.sol\":16057:16066  _decimals */\n  0x0b\n  0x00\n    /* \"contracts/Token/Token.sol\":16057:16070  _decimals = 9 */\n  0x0100\n  exp\n  dup2\n  sload\n  dup2\n  0xff\n  mul\n  not\n  and\n  swap1\n  dup4\n  0xff\n  and\n  mul\n  or\n  swap1\n  sstore\n  pop\n    /* \"contracts/Token/Token.sol\":16087:16090  max */\n  dup2\n    /* \"contracts/Token/Token.sol\":16074:16084  _maxSupply */\n  0x08\n    /* \"contracts/Token/Token.sol\":16074:16090  _maxSupply = max */\n  dup2\n  swap1\n  sstore\n  pop\n    /* \"contracts/Token/Token.sol\":16109:16114  total */\n  dup1\n    /* \"contracts/Token/Token.sol\":16094:16106  _totalSupply */\n  0x07\n    /* \"contracts/Token/Token.sol\":16094:16114  _totalSupply = total */\n  dup2\n  swap1\n  sstore\n  pop\n    /* \"contracts/Token/Token.sol\":16151:16156  total */\n  dup1\n    /* \"contracts/Token/Token.sol\":16118:16127  _balances */\n  0x05\n    /* \"contracts/Token/Token.sol\":16118:16148  _balances[address(msg.sender)] */\n  0x00\n    /* \"contracts/Token/Token.sol\":16136:16146  msg.sender */\n  caller\n    /* \"contracts/Token/Token.sol\":16118:16148  _balances[address(msg.sender)] */\n  0xffffffffffffffffffffffffffffffffffffffff\n  and\n  0xffffffffffffffffffffffffffffffffffffffff\n  and\n  dup2\n  mstore\n  0x20\n  add\n  swap1\n  dup2\n  mstore\n  0x20\n  add\n  0x00\n  keccak256\n    /* \"contracts/Token/Token.sol\":16118:16156  _balances[address(msg.sender)] = total */\n  dup2\n  swap1\n  sstore\n  pop\n    /* \"contracts/Token/Token.sol\":15930:16160  constructor (string memory name, string memory symbol, uint256 max, uint total) public {... */\n  pop\n  pop\n  pop\n  pop\n    /* \"contracts/Token/Token.sol\":28551:28552  0 */\n  0x00\n    /* \"contracts/Token/Token.sol\":28533:28548  transferFeeRate */\n  0x0f\n    /* \"contracts/Token/Token.sol\":28533:28552  transferFeeRate = 0 */\n  dup2\n  swap1\n  sstore\n  pop\n    /* \"contracts/Token/Token.sol\":28575:28576  1 */\n  0x01\n    /* \"contracts/Token/Token.sol\":28556:28572  transferFeeBuyLP */\n  0x11\n    /* \"contracts/Token/Token.sol\":28556:28576  transferFeeBuyLP = 1 */\n  dup2\n  swap1\n  sstore\n  pop\n    /* \"contracts/Token/Token.sol\":28600:28601  1 */\n  0x01\n    /* \"contracts/Token/Token.sol\":28580:28597  transferFeeBuyDEV */\n  0x13\n    /* \"contracts/Token/Token.sol\":28580:28601  transferFeeBuyDEV = 1 */\n  dup2\n  swap1\n  sstore\n  pop\n    /* \"contracts/Token/Token.sol\":28625:28626  1 */\n  0x01\n    /* \"contracts/Token/Token.sol\":28605:28622  transferFeeBuyMKT */\n  0x12\n    /* \"contracts/Token/Token.sol\":28605:28626  transferFeeBuyMKT = 1 */\n  dup2\n  swap1\n  sstore\n  pop\n    /* \"contracts/Token/Token.sol\":28650:28651  1 */\n  0x01\n    /* \"contracts/Token/Token.sol\":28630:28647  transferFeeBuyRWP */\n  0x14\n    /* \"contracts/Token/Token.sol\":28630:28651  transferFeeBuyRWP = 1 */\n  dup2\n  swap1\n  sstore\n  pop\n    /* \"contracts/Token/Token.sol\":28675:28676  1 */\n  0x01\n    /* \"contracts/Token/Token.sol\":28655:28673  transferFeeSellRWP */\n  0x10\n    /* \"contracts/Token/Token.sol\":28655:28676  transferFeeSellRWP =1 */\n  dup2\n  swap1\n  sstore\n  pop\n    /* \"contracts/Token/Token.sol\":29022:29026  true */\n  0x01\n    /* \"contracts/Token/Token.sol\":28992:29010  _isExcludedFromFee */\n  0x16\n    /* \"contracts/Token/Token.sol\":28992:29019  _isExcludedFromFee[owner()] */\n  0x00\n    /* \"contracts/Token/Token.sol\":29011:29018  owner() */\n  tag_15\n    /* \"contracts/Token/Token.sol\":29011:29016  owner */\n  shl(0x20, tag_16)\n    /* \"contracts/Token/Token.sol\":29011:29018  owner() */\n  0x20\n  shr\n  jump\t// in\ntag_15:\n    /* \"contracts/Token/Token.sol\":28992:29019  _isExcludedFromFee[owner()] */\n  0xffffffffffffffffffffffffffffffffffffffff\n  and\n  0xffffffffffffffffffffffffffffffffffffffff\n  and\n  dup2\n  mstore\n  0x20\n  add\n  swap1\n  dup2\n  mstore\n  0x20\n  add\n  0x00\n  keccak256\n  0x00\n    /* \"contracts/Token/Token.sol\":28992:29026  _isExcludedFromFee[owner()] = true */\n  0x0100\n  exp\n  dup2\n  sload\n  dup2\n  0xff\n  mul\n  not\n  and\n  swap1\n  dup4\n  iszero\n  iszero\n  mul\n  or\n  swap1\n  sstore\n  pop\n    /* \"contracts/Token/Token.sol\":29072:29076  true */\n  0x01\n    /* \"contracts/Token/Token.sol\":29036:29054  _isExcludedFromFee */\n  0x16\n    /* \"contracts/Token/Token.sol\":29036:29069  _isExcludedFromFee[address(this)] */\n  0x00\n    /* \"contracts/Token/Token.sol\":29063:29067  this */\n  address\n    /* \"contracts/Token/Token.sol\":29036:29069  _isExcludedFromFee[address(this)] */\n  0xffffffffffffffffffffffffffffffffffffffff\n  and\n  0xffffffffffffffffffffffffffffffffffffffff\n  and\n  dup2\n  mstore\n  0x20\n  add\n  swap1\n  dup2\n  mstore\n  0x20\n  add\n  0x00\n  keccak256\n  0x00\n    /* \"contracts/Token/Token.sol\":29036:29076  _isExcludedFromFee[address(this)] = true */\n  0x0100\n  exp\n  dup2\n  sload\n  dup2\n  0xff\n  mul\n  not\n  and\n  swap1\n  dup4\n  iszero\n  iszero\n  mul\n  or\n  swap1\n  sstore\n  pop\n    /* \"contracts/Token/Token.sol\":29128:29132  true */\n  0x01\n    /* \"contracts/Token/Token.sol\":29086:29104  _isExcludedFromFee */\n  0x16\n    /* \"contracts/Token/Token.sol\":29086:29125  _isExcludedFromFee[_developmentAddress] */\n  0x00\n    /* \"contracts/Token/Token.sol\":29105:29124  _developmentAddress */\n  0x0b\n  0x01\n  swap1\n  sload\n  swap1\n  0x0100\n  exp\n  swap1\n  div\n  0xffffffffffffffffffffffffffffffffffffffff\n  and\n    /* \"contracts/Token/Token.sol\":29086:29125  _isExcludedFromFee[_developmentAddress] */\n  0xffffffffffffffffffffffffffffffffffffffff\n  and\n  0xffffffffffffffffffffffffffffffffffffffff\n  and\n  dup2\n  mstore\n  0x20\n  add\n  swap1\n  dup2\n  mstore\n  0x20\n  add\n  0x00\n  keccak256\n  0x00\n    /* \"contracts/Token/Token.sol\":29086:29132  _isExcludedFromFee[_developmentAddress] = true */\n  0x0100\n  exp\n  dup2\n  sload\n  dup2\n  0xff\n  mul\n  not\n  and\n  swap1\n  dup4\n  iszero\n  iszero\n  mul\n  or\n  swap1\n  sstore\n  pop\n    /* \"contracts/Token/Token.sol\":29182:29186  true */\n  0x01\n    /* \"contracts/Token/Token.sol\":29142:29160  _isExcludedFromFee */\n  0x16\n    /* \"contracts/Token/Token.sol\":29142:29179  _isExcludedFromFee[_marketingAddress] */\n  0x00\n    /* \"contracts/Token/Token.sol\":29161:29178  _marketingAddress */\n  0x0c\n  0x00\n  swap1\n  sload\n  swap1\n  0x0100\n  exp\n  swap1\n  div\n  0xffffffffffffffffffffffffffffffffffffffff\n  and\n    /* \"contracts/Token/Token.sol\":29142:29179  _isExcludedFromFee[_marketingAddress] */\n  0xffffffffffffffffffffffffffffffffffffffff\n  and\n  0xffffffffffffffffffffffffffffffffffffffff\n  and\n  dup2\n  mstore\n  0x20\n  add\n  swap1\n  dup2\n  mstore\n  0x20\n  add\n  0x00\n  keccak256\n  0x00\n    /* \"contracts/Token/Token.sol\":29142:29186  _isExcludedFromFee[_marketingAddress] = true */\n  0x0100\n  exp\n  dup2\n  sload\n  dup2\n  0xff\n  mul\n  not\n  and\n  swap1\n  dup4\n  iszero\n  iszero\n  mul\n  or\n  swap1\n  sstore\n  pop\n    /* \"contracts/Token/Token.sol\":21548:29192  contract World_Step is ERC20(\"World Step\", \"WSP\", 10000*10**9*10**6, 1*10**9*10**6) {... */\n  jump(tag_17)\n    /* \"contracts/Token/Token.sol\":833:928  function _msgSender() internal view virtual returns (address payable) {... */\ntag_8:\n    /* \"contracts/Token/Token.sol\":886:901  address payable */\n  0x00\n    /* \"contracts/Token/Token.sol\":914:924  msg.sender */\n  caller\n    /* \"contracts/Token/Token.sol\":907:924  return msg.sender */\n  swap1\n  pop\n    /* \"contracts/Token/Token.sol\":833:928  function _msgSender() internal view virtual returns (address payable) {... */\n  swap1\n  jump\t// out\n    /* \"contracts/Token/Token.sol\":12035:12103  function owner() public view returns (address) {... */\ntag_16:\n    /* \"contracts/Token/Token.sol\":12073:12080  address */\n  0x00\n    /* \"contracts/Token/Token.sol\":12093:12099  _owner */\n  0x01\n  0x00\n  swap1\n  sload\n  swap1\n  0x0100\n  exp\n  swap1\n  div\n  0xffffffffffffffffffffffffffffffffffffffff\n  and\n    /* \"contracts/Token/Token.sol\":12086:12099  return _owner */\n  swap1\n  pop\n    /* \"contracts/Token/Token.sol\":12035:12103  function owner() public view returns (address) {... */\n  swap1\n  jump\t// out\n    /* \"contracts/Token/Token.sol\":21548:29192  contract World_Step is ERC20(\"World Step\", \"WSP\", 10000*10**9*10**6, 1*10**9*10**6) {... */\ntag_12:\n  dup3\n  dup1\n  sload\n  0x01\n  dup2\n  0x01\n  and\n  iszero\n  0x0100\n  mul\n  sub\n  and\n  0x02\n  swap1\n  div\n  swap1\n  0x00\n  mstore\n  keccak256(0x00, 0x20)\n  swap1\n  0x1f\n  add\n  0x20\n  swap1\n  div\n  dup2\n  add\n  swap3\n  dup3\n  0x1f\n  lt\n  tag_21\n  jumpi\n  dup1\n  mload\n  not(0xff)\n  and\n  dup4\n  dup1\n  add\n  or\n  dup6\n  sstore\n  jump(tag_20)\ntag_21:\n  dup3\n  dup1\n  add\n  0x01\n  add\n  dup6\n  sstore\n  dup3\n  iszero\n  tag_20\n  jumpi\n  swap2\n  dup3\n  add\ntag_22:\n  dup3\n  dup2\n  gt\n  iszero\n  tag_23\n  jumpi\n  dup3\n  mload\n  dup3\n  sstore\n  swap2\n  0x20\n  add\n  swap2\n  swap1\n  0x01\n  add\n  swap1\n  jump(tag_22)\ntag_23:\ntag_20:\n  pop\n  swap1\n  pop\n  tag_24\n  swap2\n  swap1\n  tag_25\n  jump\t// in\ntag_24:\n  pop\n  swap1\n  jump\t// out\ntag_25:\ntag_26:\n  dup1\n  dup3\n  gt\n  iszero\n  tag_27\n  jumpi\n  0x00\n  dup2\n  0x00\n  swap1\n  sstore\n  pop\n  0x01\n  add\n  jump(tag_26)\ntag_27:\n  pop\n  swap1\n  jump\t// out\ntag_17:\n  dataSize(sub_0)\n  dup1\n  dataOffset(sub_0)\n  0x00\n  codecopy\n  0x00\n  return\nstop\n\nsub_0: assembly {\n        /* \"contracts/Token/Token.sol\":21548:29192  contract World_Step is ERC20(\"World Step\", \"WSP\", 10000*10**9*10**6, 1*10**9*10**6) {... */\n      mstore(0x40, 0x80)\n      callvalue\n      dup1\n      iszero\n      tag_1\n      jumpi\n      0x00\n      dup1\n      revert\n    tag_1:\n      pop\n      jumpi(tag_2, lt(calldatasize, 0x04))\n      shr(0xe0, calldataload(0x00))\n      dup1\n      0x8482ad34\n      gt\n      tag_42\n      jumpi\n      dup1\n      0xb7c076f9\n      gt\n      tag_43\n      jumpi\n      dup1\n      0xdba03d81\n      gt\n      tag_44\n      jumpi\n      dup1\n      0xdba03d81\n      eq\n      tag_37\n      jumpi\n      dup1\n      0xdd62ed3e\n      eq\n      tag_38\n      jumpi\n      dup1\n      0xe50d3180\n      eq\n      tag_39\n      jumpi\n      dup1\n      0xf2fde38b\n      eq\n      tag_40\n      jumpi\n      dup1\n      0xf3d566a2\n      eq\n      tag_41\n      jumpi\n      jump(tag_2)\n    tag_44:\n      dup1\n      0xb7c076f9\n      eq\n      tag_32\n      jumpi\n      dup1\n      0xc4157b29\n      eq\n      tag_33\n      jumpi\n      dup1\n      0xc7d6e618\n      eq\n      tag_34\n      jumpi\n      dup1\n      0xce1d82f5\n      eq\n      tag_35\n      jumpi\n      dup1\n      0xd5abeb01\n      eq\n      tag_36\n      jumpi\n      jump(tag_2)\n    tag_43:\n      dup1\n      0xa0821be3\n      gt\n      tag_45\n      jumpi\n      dup1\n      0xa0821be3\n      eq\n      tag_27\n      jumpi\n      dup1\n      0xa15c15af\n      eq\n      tag_28\n      jumpi\n      dup1\n      0xa23247ef\n      eq\n      tag_29\n      jumpi\n      dup1\n      0xa457c2d7\n      eq\n      tag_30\n      jumpi\n      dup1\n      0xa9059cbb\n      eq\n      tag_31\n      jumpi\n      jump(tag_2)\n    tag_45:\n      dup1\n      0x8482ad34\n      eq\n      tag_22\n      jumpi\n      dup1\n      0x8da5cb5b\n      eq\n      tag_23\n      jumpi\n      dup1\n      0x8fe8cf24\n      eq\n      tag_24\n      jumpi\n      dup1\n      0x91116d67\n      eq\n      tag_25\n      jumpi\n      dup1\n      0x95d89b41\n      eq\n      tag_26\n      jumpi\n      jump(tag_2)\n    tag_42:\n      dup1\n      0x313ce567\n      gt\n      tag_46\n      jumpi\n      dup1\n      0x64fcc5de\n      gt\n      tag_47\n      jumpi\n      dup1\n      0x64fcc5de\n      eq\n      tag_17\n      jumpi\n      dup1\n      0x6e722920\n      eq\n      tag_18\n      jumpi\n      dup1\n      0x70a08231\n      eq\n      tag_19\n      jumpi\n      dup1\n      0x715018a6\n      eq\n      tag_20\n      jumpi\n      dup1\n      0x79cc6790\n      eq\n      tag_21\n      jumpi\n      jump(tag_2)\n    tag_47:\n      dup1\n      0x313ce567\n      eq\n      tag_12\n      jumpi\n      dup1\n      0x351bf518\n      eq\n      tag_13\n      jumpi\n      dup1\n      0x39509351\n      eq\n      tag_14\n      jumpi\n      dup1\n      0x40c10f19\n      eq\n      tag_15\n      jumpi\n      dup1\n      0x42966c68\n      eq\n      tag_16\n      jumpi\n      jump(tag_2)\n    tag_46:\n      dup1\n      0x171177b3\n      gt\n      tag_48\n      jumpi\n      dup1\n      0x171177b3\n      eq\n      tag_7\n      jumpi\n      dup1\n      0x18160ddd\n      eq\n      tag_8\n      jumpi\n      dup1\n      0x1d2c0b3d\n      eq\n      tag_9\n      jumpi\n      dup1\n      0x2291c5d4\n      eq\n      tag_10\n      jumpi\n      dup1\n      0x23b872dd\n      eq\n      tag_11\n      jumpi\n      jump(tag_2)\n    tag_48:\n      dup1\n      0x06fdde03\n      eq\n      tag_3\n      jumpi\n      dup1\n      0x08c985bf\n      eq\n      tag_4\n      jumpi\n      dup1\n      0x095ea7b3\n      eq\n      tag_5\n      jumpi\n      dup1\n      0x0c15f601\n      eq\n      tag_6\n      jumpi\n    tag_2:\n      0x00\n      dup1\n      revert\n        /* \"contracts/Token/Token.sol\":16163:16235  function name() public view returns (string memory) {... */\n    tag_3:\n      tag_49\n      tag_50\n      jump\t// in\n    tag_49:\n      mload(0x40)\n      dup1\n      dup1\n      0x20\n      add\n      dup3\n      dup2\n      sub\n      dup3\n      mstore\n      dup4\n      dup2\n      dup2\n      mload\n      dup2\n      mstore\n      0x20\n      add\n      swap2\n      pop\n      dup1\n      mload\n      swap1\n      0x20\n      add\n      swap1\n      dup1\n      dup4\n      dup4\n      0x00\n    tag_51:\n      dup4\n      dup2\n      lt\n      iszero\n      tag_53\n      jumpi\n      dup1\n      dup3\n      add\n      mload\n      dup2\n      dup5\n      add\n      mstore\n      0x20\n      dup2\n      add\n      swap1\n      pop\n      jump(tag_51)\n    tag_53:\n      pop\n      pop\n      pop\n      pop\n      swap1\n      pop\n      swap1\n      dup2\n      add\n      swap1\n      0x1f\n      and\n      dup1\n      iszero\n      tag_54\n      jumpi\n      dup1\n      dup3\n      sub\n      dup1\n      mload\n      0x01\n      dup4\n      0x20\n      sub\n      0x0100\n      exp\n      sub\n      not\n      and\n      dup2\n      mstore\n      0x20\n      add\n      swap2\n      pop\n    tag_54:\n      pop\n      swap3\n      pop\n      pop\n      pop\n      mload(0x40)\n      dup1\n      swap2\n      sub\n      swap1\n      return\n        /* \"contracts/Token/Token.sol\":14501:14590  function minteradmin() public view returns (address) {... */\n    tag_4:\n      tag_55\n      tag_56\n      jump\t// in\n    tag_55:\n      mload(0x40)\n      dup1\n      dup3\n      0xffffffffffffffffffffffffffffffffffffffff\n      and\n      dup2\n      mstore\n      0x20\n      add\n      swap2\n      pop\n      pop\n      mload(0x40)\n      dup1\n      swap2\n      sub\n      swap1\n      return\n        /* \"contracts/Token/Token.sol\":17119:17270  function approve(address spender, uint256 amount) public virtual override returns (bool) {... */\n    tag_5:\n      tag_57\n      0x04\n      dup1\n      calldatasize\n      sub\n      0x40\n      dup2\n      lt\n      iszero\n      tag_58\n      jumpi\n      0x00\n      dup1\n      revert\n    tag_58:\n      dup2\n      add\n      swap1\n      dup1\n      dup1\n      calldataload\n      0xffffffffffffffffffffffffffffffffffffffff\n      and\n      swap1\n      0x20\n      add\n      swap1\n      swap3\n      swap2\n      swap1\n      dup1\n      calldataload\n      swap1\n      0x20\n      add\n      swap1\n      swap3\n      swap2\n      swap1\n      pop\n      pop\n      pop\n      tag_59\n      jump\t// in\n    tag_57:\n      mload(0x40)\n      dup1\n      dup3\n      iszero\n      iszero\n      dup2\n      mstore\n      0x20\n      add\n      swap2\n      pop\n      pop\n      mload(0x40)\n      dup1\n      swap2\n      sub\n      swap1\n      return\n        /* \"contracts/Token/Token.sol\":26672:26818  function meltTokens(address account, uint256 amount) public onlyMinter returns (bool) {... */\n    tag_6:\n      tag_60\n      0x04\n      dup1\n      calldatasize\n      sub\n      0x40\n      dup2\n      lt\n      iszero\n      tag_61\n      jumpi\n      0x00\n      dup1\n      revert\n    tag_61:\n      dup2\n      add\n      swap1\n      dup1\n      dup1\n      calldataload\n      0xffffffffffffffffffffffffffffffffffffffff\n      and\n      swap1\n      0x20\n      add\n      swap1\n      swap3\n      swap2\n      swap1\n      dup1\n      calldataload\n      swap1\n      0x20\n      add\n      swap1\n      swap3\n      swap2\n      swap1\n      pop\n      pop\n      pop\n      tag_62\n      jump\t// in\n    tag_60:\n      mload(0x40)\n      dup1\n      dup3\n      iszero\n      iszero\n      dup2\n      mstore\n      0x20\n      add\n      swap2\n      pop\n      pop\n      mload(0x40)\n      dup1\n      swap2\n      sub\n      swap1\n      return\n        /* \"contracts/Token/Token.sol\":26828:26947  function destroyFrozen(address account, uint256 amount) public onlyMinter {... */\n    tag_7:\n      tag_63\n      0x04\n      dup1\n      calldatasize\n      sub\n      0x40\n      dup2\n      lt\n      iszero\n      tag_64\n      jumpi\n      0x00\n      dup1\n      revert\n    tag_64:\n      dup2\n      add\n      swap1\n      dup1\n      dup1\n      calldataload\n      0xffffffffffffffffffffffffffffffffffffffff\n      and\n      swap1\n      0x20\n      add\n      swap1\n      swap3\n      swap2\n      swap1\n      dup1\n      calldataload\n      swap1\n      0x20\n      add\n      swap1\n      swap3\n      swap2\n      swap1\n      pop\n      pop\n      pop\n      tag_65\n      jump\t// in\n    tag_63:\n      stop\n        /* \"contracts/Token/Token.sol\":16392:16481  function totalSupply() public view override returns (uint256) {... */\n    tag_8:\n      tag_66\n      tag_67\n      jump\t// in\n    tag_66:\n      mload(0x40)\n      dup1\n      dup3\n      dup2\n      mstore\n      0x20\n      add\n      swap2\n      pop\n      pop\n      mload(0x40)\n      dup1\n      swap2\n      sub\n      swap1\n      return\n        /* \"contracts/Token/Token.sol\":14944:15159  function claimMinterAdmin() public onlyPendingMinterAdmin {... */\n    tag_9:\n      tag_68\n      tag_69\n      jump\t// in\n    tag_68:\n      stop\n        /* \"contracts/Token/Token.sol\":25283:25454  function SellTest(address recipient, uint256 amount) public virtual onlyMinter { ... */\n    tag_10:\n      tag_70\n      0x04\n      dup1\n      calldatasize\n      sub\n      0x40\n      dup2\n      lt\n      iszero\n      tag_71\n      jumpi\n      0x00\n      dup1\n      revert\n    tag_71:\n      dup2\n      add\n      swap1\n      dup1\n      dup1\n      calldataload\n      0xffffffffffffffffffffffffffffffffffffffff\n      and\n      swap1\n      0x20\n      add\n      swap1\n      swap3\n      swap2\n      swap1\n      dup1\n      calldataload\n      swap1\n      0x20\n      add\n      swap1\n      swap3\n      swap2\n      swap1\n      pop\n      pop\n      pop\n      tag_72\n      jump\t// in\n    tag_70:\n      stop\n        /* \"contracts/Token/Token.sol\":17273:17569  function transferFrom(address sender, address recipient, uint256 amount) public virtual override returns (bool) {... */\n    tag_11:\n      tag_73\n      0x04\n      dup1\n      calldatasize\n      sub\n      0x60\n      dup2\n      lt\n      iszero\n      tag_74\n      jumpi\n      0x00\n      dup1\n      revert\n    tag_74:\n      dup2\n      add\n      swap1\n      dup1\n      dup1\n      calldataload\n      0xffffffffffffffffffffffffffffffffffffffff\n      and\n      swap1\n      0x20\n      add\n      swap1\n      swap3\n      swap2\n      swap1\n      dup1\n      calldataload\n      0xffffffffffffffffffffffffffffffffffffffff\n      and\n      swap1\n      0x20\n      add\n      swap1\n      swap3\n      swap2\n      swap1\n      dup1\n      calldataload\n      swap1\n      0x20\n      add\n      swap1\n      swap3\n      swap2\n      swap1\n      pop\n      pop\n      pop\n      tag_75\n      jump\t// in\n    tag_73:\n      mload(0x40)\n      dup1\n      dup3\n      iszero\n      iszero\n      dup2\n      mstore\n      0x20\n      add\n      swap2\n      pop\n      pop\n      mload(0x40)\n      dup1\n      swap2\n      sub\n      swap1\n      return\n        /* \"contracts/Token/Token.sol\":16317:16389  function decimals() public view returns (uint8) {... */\n    tag_12:\n      tag_76\n      tag_77\n      jump\t// in\n    tag_76:\n      mload(0x40)\n      dup1\n      dup3\n      0xff\n      and\n      dup2\n      mstore\n      0x20\n      add\n      swap2\n      pop\n      pop\n      mload(0x40)\n      dup1\n      swap2\n      sub\n      swap1\n      return\n        /* \"contracts/Token/Token.sol\":22068:22098  uint256 public transferFeeRate */\n    tag_13:\n      tag_78\n      tag_79\n      jump\t// in\n    tag_78:\n      mload(0x40)\n      dup1\n      dup3\n      dup2\n      mstore\n      0x20\n      add\n      swap2\n      pop\n      pop\n      mload(0x40)\n      dup1\n      swap2\n      sub\n      swap1\n      return\n        /* \"contracts/Token/Token.sol\":17572:17772  function increaseAllowance(address spender, uint256 addedValue) public virtual returns (bool) {... */\n    tag_14:\n      tag_80\n      0x04\n      dup1\n      calldatasize\n      sub\n      0x40\n      dup2\n      lt\n      iszero\n      tag_81\n      jumpi\n      0x00\n      dup1\n      revert\n    tag_81:\n      dup2\n      add\n      swap1\n      dup1\n      dup1\n      calldataload\n      0xffffffffffffffffffffffffffffffffffffffff\n      and\n      swap1\n      0x20\n      add\n      swap1\n      swap3\n      swap2\n      swap1\n      dup1\n      calldataload\n      swap1\n      0x20\n      add\n      swap1\n      swap3\n      swap2\n      swap1\n      pop\n      pop\n      pop\n      tag_82\n      jump\t// in\n    tag_80:\n      mload(0x40)\n      dup1\n      dup3\n      iszero\n      iszero\n      dup2\n      mstore\n      0x20\n      add\n      swap2\n      pop\n      pop\n      mload(0x40)\n      dup1\n      swap2\n      sub\n      swap1\n      return\n        /* \"contracts/Token/Token.sol\":25550:25638  function mint(address _to, uint256 _amount) public onlyOwner {... */\n    tag_15:\n      tag_83\n      0x04\n      dup1\n      calldatasize\n      sub\n      0x40\n      dup2\n      lt\n      iszero\n      tag_84\n      jumpi\n      0x00\n      dup1\n      revert\n    tag_84:\n      dup2\n      add\n      swap1\n      dup1\n      dup1\n      calldataload\n      0xffffffffffffffffffffffffffffffffffffffff\n      and\n      swap1\n      0x20\n      add\n      swap1\n      swap3\n      swap2\n      swap1\n      dup1\n      calldataload\n      swap1\n      0x20\n      add\n      swap1\n      swap3\n      swap2\n      swap1\n      pop\n      pop\n      pop\n      tag_85\n      jump\t// in\n    tag_83:\n      stop\n        /* \"contracts/Token/Token.sol\":25641:25751  function burn(uint256 amount) public virtual returns (bool) {... */\n    tag_16:\n      tag_86\n      0x04\n      dup1\n      calldatasize\n      sub\n      0x20\n      dup2\n      lt\n      iszero\n      tag_87\n      jumpi\n      0x00\n      dup1\n      revert\n    tag_87:\n      dup2\n      add\n      swap1\n      dup1\n      dup1\n      calldataload\n      swap1\n      0x20\n      add\n      swap1\n      swap3\n      swap2\n      swap1\n      pop\n      pop\n      pop\n      tag_88\n      jump\t// in\n    tag_86:\n      mload(0x40)\n      dup1\n      dup3\n      iszero\n      iszero\n      dup2\n      mstore\n      0x20\n      add\n      swap2\n      pop\n      pop\n      mload(0x40)\n      dup1\n      swap2\n      sub\n      swap1\n      return\n        /* \"contracts/Token/Token.sol\":22206:22238  uint256 public transferFeeBuyDEV */\n    tag_17:\n      tag_89\n      tag_90\n      jump\t// in\n    tag_89:\n      mload(0x40)\n      dup1\n      dup3\n      dup2\n      mstore\n      0x20\n      add\n      swap2\n      pop\n      pop\n      mload(0x40)\n      dup1\n      swap2\n      sub\n      swap1\n      return\n        /* \"contracts/Token/Token.sol\":14705:14814  function removeFromMinters(address account) public onlyMinterAdmin {... */\n    tag_18:\n      tag_91\n      0x04\n      dup1\n      calldatasize\n      sub\n      0x20\n      dup2\n      lt\n      iszero\n      tag_92\n      jumpi\n      0x00\n      dup1\n      revert\n    tag_92:\n      dup2\n      add\n      swap1\n      dup1\n      dup1\n      calldataload\n      0xffffffffffffffffffffffffffffffffffffffff\n      and\n      swap1\n      0x20\n      add\n      swap1\n      swap3\n      swap2\n      swap1\n      pop\n      pop\n      pop\n      tag_93\n      jump\t// in\n    tag_91:\n      stop\n        /* \"contracts/Token/Token.sol\":16673:16813  function balanceOf(address account) public view override returns (uint256) {... */\n    tag_19:\n      tag_94\n      0x04\n      dup1\n      calldatasize\n      sub\n      0x20\n      dup2\n      lt\n      iszero\n      tag_95\n      jumpi\n      0x00\n      dup1\n      revert\n    tag_95:\n      dup2\n      add\n      swap1\n      dup1\n      dup1\n      calldataload\n      0xffffffffffffffffffffffffffffffffffffffff\n      and\n      swap1\n      0x20\n      add\n      swap1\n      swap3\n      swap2\n      swap1\n      pop\n      pop\n      pop\n      tag_96\n      jump\t// in\n    tag_94:\n      mload(0x40)\n      dup1\n      dup3\n      dup2\n      mstore\n      0x20\n      add\n      swap2\n      pop\n      pop\n      mload(0x40)\n      dup1\n      swap2\n      sub\n      swap1\n      return\n        /* \"contracts/Token/Token.sol\":12598:12728  function renounceOwnership() public virtual onlyOwner {... */\n    tag_20:\n      tag_97\n      tag_98\n      jump\t// in\n    tag_97:\n      stop\n        /* \"contracts/Token/Token.sol\":25754:26053  function burnFrom(address account, uint256 amount) public virtual returns (bool) {... */\n    tag_21:\n      tag_99\n      0x04\n      dup1\n      calldatasize\n      sub\n      0x40\n      dup2\n      lt\n      iszero\n      tag_100\n      jumpi\n      0x00\n      dup1\n      revert\n    tag_100:\n      dup2\n      add\n      swap1\n      dup1\n      dup1\n      calldataload\n      0xffffffffffffffffffffffffffffffffffffffff\n      and\n      swap1\n      0x20\n      add\n      swap1\n      swap3\n      swap2\n      swap1\n      dup1\n      calldataload\n      swap1\n      0x20\n      add\n      swap1\n      swap3\n      swap2\n      swap1\n      pop\n      pop\n      pop\n      tag_101\n      jump\t// in\n    tag_99:\n      mload(0x40)\n      dup1\n      dup3\n      iszero\n      iszero\n      dup2\n      mstore\n      0x20\n      add\n      swap2\n      pop\n      pop\n      mload(0x40)\n      dup1\n      swap2\n      sub\n      swap1\n      return\n        /* \"contracts/Token/Token.sol\":22101:22134  uint256 public transferFeeSellRWP */\n    tag_22:\n      tag_102\n      tag_103\n      jump\t// in\n    tag_102:\n      mload(0x40)\n      dup1\n      dup3\n      dup2\n      mstore\n      0x20\n      add\n      swap2\n      pop\n      pop\n      mload(0x40)\n      dup1\n      swap2\n      sub\n      swap1\n      return\n        /* \"contracts/Token/Token.sol\":12035:12103  function owner() public view returns (address) {... */\n    tag_23:\n      tag_104\n      tag_105\n      jump\t// in\n    tag_104:\n      mload(0x40)\n      dup1\n      dup3\n      0xffffffffffffffffffffffffffffffffffffffff\n      and\n      dup2\n      mstore\n      0x20\n      add\n      swap2\n      pop\n      pop\n      mload(0x40)\n      dup1\n      swap2\n      sub\n      swap1\n      return\n        /* \"contracts/Token/Token.sol\":27088:27220  function removeTransferBurnAddress(address _transferFeeAddress) public onlyOwner {... */\n    tag_24:\n      tag_106\n      0x04\n      dup1\n      calldatasize\n      sub\n      0x20\n      dup2\n      lt\n      iszero\n      tag_107\n      jumpi\n      0x00\n      dup1\n      revert\n    tag_107:\n      dup2\n      add\n      swap1\n      dup1\n      dup1\n      calldataload\n      0xffffffffffffffffffffffffffffffffffffffff\n      and\n      swap1\n      0x20\n      add\n      swap1\n      swap3\n      swap2\n      swap1\n      pop\n      pop\n      pop\n      tag_108\n      jump\t// in\n    tag_106:\n      stop\n        /* \"contracts/Token/Token.sol\":26957:27085  function addTransferFeeAddress(address _transferFeeAddress) public onlyOwner {... */\n    tag_25:\n      tag_109\n      0x04\n      dup1\n      calldatasize\n      sub\n      0x20\n      dup2\n      lt\n      iszero\n      tag_110\n      jumpi\n      0x00\n      dup1\n      revert\n    tag_110:\n      dup2\n      add\n      swap1\n      dup1\n      dup1\n      calldataload\n      0xffffffffffffffffffffffffffffffffffffffff\n      and\n      swap1\n      0x20\n      add\n      swap1\n      swap3\n      swap2\n      swap1\n      pop\n      pop\n      pop\n      tag_111\n      jump\t// in\n    tag_109:\n      stop\n        /* \"contracts/Token/Token.sol\":16238:16314  function symbol() public view returns (string memory) {... */\n    tag_26:\n      tag_112\n      tag_113\n      jump\t// in\n    tag_112:\n      mload(0x40)\n      dup1\n      dup1\n      0x20\n      add\n      dup3\n      dup2\n      sub\n      dup3\n      mstore\n      dup4\n      dup2\n      dup2\n      mload\n      dup2\n      mstore\n      0x20\n      add\n      swap2\n      pop\n      dup1\n      mload\n      swap1\n      0x20\n      add\n      swap1\n      dup1\n      dup4\n      dup4\n      0x00\n    tag_114:\n      dup4\n      dup2\n      lt\n      iszero\n      tag_116\n      jumpi\n      dup1\n      dup3\n      add\n      mload\n      dup2\n      dup5\n      add\n      mstore\n      0x20\n      dup2\n      add\n      swap1\n      pop\n      jump(tag_114)\n    tag_116:\n      pop\n      pop\n      pop\n      pop\n      swap1\n      pop\n      swap1\n      dup2\n      add\n      swap1\n      0x1f\n      and\n      dup1\n      iszero\n      tag_117\n      jumpi\n      dup1\n      dup3\n      sub\n      dup1\n      mload\n      0x01\n      dup4\n      0x20\n      sub\n      0x0100\n      exp\n      sub\n      not\n      and\n      dup2\n      mstore\n      0x20\n      add\n      swap2\n      pop\n    tag_117:\n      pop\n      swap3\n      pop\n      pop\n      pop\n      mload(0x40)\n      dup1\n      swap2\n      sub\n      swap1\n      return\n        /* \"contracts/Token/Token.sol\":16564:16670  function availableBalance(address account) public view returns (uint256) {... */\n    tag_27:\n      tag_118\n      0x04\n      dup1\n      calldatasize\n      sub\n      0x20\n      dup2\n      lt\n      iszero\n      tag_119\n      jumpi\n      0x00\n      dup1\n      revert\n    tag_119:\n      dup2\n      add\n      swap1\n      dup1\n      dup1\n      calldataload\n      0xffffffffffffffffffffffffffffffffffffffff\n      and\n      swap1\n      0x20\n      add\n      swap1\n      swap3\n      swap2\n      swap1\n      pop\n      pop\n      pop\n      tag_120\n      jump\t// in\n    tag_118:\n      mload(0x40)\n      dup1\n      dup3\n      dup2\n      mstore\n      0x20\n      add\n      swap2\n      pop\n      pop\n      mload(0x40)\n      dup1\n      swap2\n      sub\n      swap1\n      return\n        /* \"contracts/Token/Token.sol\":14596:14699  function addToMinters(address account) public onlyMinterAdmin {... */\n    tag_28:\n      tag_121\n      0x04\n      dup1\n      calldatasize\n      sub\n      0x20\n      dup2\n      lt\n      iszero\n      tag_122\n      jumpi\n      0x00\n      dup1\n      revert\n    tag_122:\n      dup2\n      add\n      swap1\n      dup1\n      dup1\n      calldataload\n      0xffffffffffffffffffffffffffffffffffffffff\n      and\n      swap1\n      0x20\n      add\n      swap1\n      swap3\n      swap2\n      swap1\n      pop\n      pop\n      pop\n      tag_123\n      jump\t// in\n    tag_121:\n      stop\n        /* \"contracts/Token/Token.sol\":22137:22168  uint256 public transferFeeBuyLP */\n    tag_29:\n      tag_124\n      tag_125\n      jump\t// in\n    tag_124:\n      mload(0x40)\n      dup1\n      dup3\n      dup2\n      mstore\n      0x20\n      add\n      swap2\n      pop\n      pop\n      mload(0x40)\n      dup1\n      swap2\n      sub\n      swap1\n      return\n        /* \"contracts/Token/Token.sol\":17775:18026  function decreaseAllowance(address spender, uint256 subtractedValue) public virtual returns (bool) {... */\n    tag_30:\n      tag_126\n      0x04\n      dup1\n      calldatasize\n      sub\n      0x40\n      dup2\n      lt\n      iszero\n      tag_127\n      jumpi\n      0x00\n      dup1\n      revert\n    tag_127:\n      dup2\n      add\n      swap1\n      dup1\n      dup1\n      calldataload\n      0xffffffffffffffffffffffffffffffffffffffff\n      and\n      swap1\n      0x20\n      add\n      swap1\n      swap3\n      swap2\n      swap1\n      dup1\n      calldataload\n      swap1\n      0x20\n      add\n      swap1\n      swap3\n      swap2\n      swap1\n      pop\n      pop\n      pop\n      tag_128\n      jump\t// in\n    tag_126:\n      mload(0x40)\n      dup1\n      dup3\n      iszero\n      iszero\n      dup2\n      mstore\n      0x20\n      add\n      swap2\n      pop\n      pop\n      mload(0x40)\n      dup1\n      swap2\n      sub\n      swap1\n      return\n        /* \"contracts/Token/Token.sol\":16816:16973  function transfer(address recipient, uint256 amount) public virtual override returns (bool) {... */\n    tag_31:\n      tag_129\n      0x04\n      dup1\n      calldatasize\n      sub\n      0x40\n      dup2\n      lt\n      iszero\n      tag_130\n      jumpi\n      0x00\n      dup1\n      revert\n    tag_130:\n      dup2\n      add\n      swap1\n      dup1\n      dup1\n      calldataload\n      0xffffffffffffffffffffffffffffffffffffffff\n      and\n      swap1\n      0x20\n      add\n      swap1\n      swap3\n      swap2\n      swap1\n      dup1\n      calldataload\n      swap1\n      0x20\n      add\n      swap1\n      swap3\n      swap2\n      swap1\n      pop\n      pop\n      pop\n      tag_131\n      jump\t// in\n    tag_129:\n      mload(0x40)\n      dup1\n      dup3\n      iszero\n      iszero\n      dup2\n      mstore\n      0x20\n      add\n      swap2\n      pop\n      pop\n      mload(0x40)\n      dup1\n      swap2\n      sub\n      swap1\n      return\n        /* \"contracts/Token/Token.sol\":22241:22273  uint256 public transferFeeBuyRWP */\n    tag_32:\n      tag_132\n      tag_133\n      jump\t// in\n    tag_132:\n      mload(0x40)\n      dup1\n      dup3\n      dup2\n      mstore\n      0x20\n      add\n      swap2\n      pop\n      pop\n      mload(0x40)\n      dup1\n      swap2\n      sub\n      swap1\n      return\n        /* \"contracts/Token/Token.sol\":26057:26215  function mintFrozenTokens(address account, uint256 amount) public onlyMinter returns (bool) {... */\n    tag_33:\n      tag_134\n      0x04\n      dup1\n      calldatasize\n      sub\n      0x40\n      dup2\n      lt\n      iszero\n      tag_135\n      jumpi\n      0x00\n      dup1\n      revert\n    tag_135:\n      dup2\n      add\n      swap1\n      dup1\n      dup1\n      calldataload\n      0xffffffffffffffffffffffffffffffffffffffff\n      and\n      swap1\n      0x20\n      add\n      swap1\n      swap3\n      swap2\n      swap1\n      dup1\n      calldataload\n      swap1\n      0x20\n      add\n      swap1\n      swap3\n      swap2\n      swap1\n      pop\n      pop\n      pop\n      tag_136\n      jump\t// in\n    tag_134:\n      mload(0x40)\n      dup1\n      dup3\n      iszero\n      iszero\n      dup2\n      mstore\n      0x20\n      add\n      swap2\n      pop\n      pop\n      mload(0x40)\n      dup1\n      swap2\n      sub\n      swap1\n      return\n        /* \"contracts/Token/Token.sol\":22171:22203  uint256 public transferFeeBuyMKT */\n    tag_34:\n      tag_137\n      tag_138\n      jump\t// in\n    tag_137:\n      mload(0x40)\n      dup1\n      dup3\n      dup2\n      mstore\n      0x20\n      add\n      swap2\n      pop\n      pop\n      mload(0x40)\n      dup1\n      swap2\n      sub\n      swap1\n      return\n        /* \"contracts/Token/Token.sol\":13875:13908  address public pendingMinterAdmin */\n    tag_35:\n      tag_139\n      tag_140\n      jump\t// in\n    tag_139:\n      mload(0x40)\n      dup1\n      dup3\n      0xffffffffffffffffffffffffffffffffffffffff\n      and\n      dup2\n      mstore\n      0x20\n      add\n      swap2\n      pop\n      pop\n      mload(0x40)\n      dup1\n      swap2\n      sub\n      swap1\n      return\n        /* \"contracts/Token/Token.sol\":16485:16561  function maxSupply() public view returns (uint256) {... */\n    tag_36:\n      tag_141\n      tag_142\n      jump\t// in\n    tag_141:\n      mload(0x40)\n      dup1\n      dup3\n      dup2\n      mstore\n      0x20\n      add\n      swap2\n      pop\n      pop\n      mload(0x40)\n      dup1\n      swap2\n      sub\n      swap1\n      return\n        /* \"contracts/Token/Token.sol\":14820:14938  function transferMinterAdmin(address newMinter) public onlyMinterAdmin {... */\n    tag_37:\n      tag_143\n      0x04\n      dup1\n      calldatasize\n      sub\n      0x20\n      dup2\n      lt\n      iszero\n      tag_144\n      jumpi\n      0x00\n      dup1\n      revert\n    tag_144:\n      dup2\n      add\n      swap1\n      dup1\n      dup1\n      calldataload\n      0xffffffffffffffffffffffffffffffffffffffff\n      and\n      swap1\n      0x20\n      add\n      swap1\n      swap3\n      swap2\n      swap1\n      pop\n      pop\n      pop\n      tag_145\n      jump\t// in\n    tag_143:\n      stop\n        /* \"contracts/Token/Token.sol\":16976:17116  function allowance(address owner, address spender) public view virtual override returns (uint256) {... */\n    tag_38:\n      tag_146\n      0x04\n      dup1\n      calldatasize\n      sub\n      0x40\n      dup2\n      lt\n      iszero\n      tag_147\n      jumpi\n      0x00\n      dup1\n      revert\n    tag_147:\n      dup2\n      add\n      swap1\n      dup1\n      dup1\n      calldataload\n      0xffffffffffffffffffffffffffffffffffffffff\n      and\n      swap1\n      0x20\n      add\n      swap1\n      swap3\n      swap2\n      swap1\n      dup1\n      calldataload\n      0xffffffffffffffffffffffffffffffffffffffff\n      and\n      swap1\n      0x20\n      add\n      swap1\n      swap3\n      swap2\n      swap1\n      pop\n      pop\n      pop\n      tag_148\n      jump\t// in\n    tag_146:\n      mload(0x40)\n      dup1\n      dup3\n      dup2\n      mstore\n      0x20\n      add\n      swap2\n      pop\n      pop\n      mload(0x40)\n      dup1\n      swap2\n      sub\n      swap1\n      return\n        /* \"contracts/Token/Token.sol\":26219:26662  function transferFrozenToken(address from, address to, uint256 amount) public onlyMinter returns (bool) {... */\n    tag_39:\n      tag_149\n      0x04\n      dup1\n      calldatasize\n      sub\n      0x60\n      dup2\n      lt\n      iszero\n      tag_150\n      jumpi\n      0x00\n      dup1\n      revert\n    tag_150:\n      dup2\n      add\n      swap1\n      dup1\n      dup1\n      calldataload\n      0xffffffffffffffffffffffffffffffffffffffff\n      and\n      swap1\n      0x20\n      add\n      swap1\n      swap3\n      swap2\n      swap1\n      dup1\n      calldataload\n      0xffffffffffffffffffffffffffffffffffffffff\n      and\n      swap1\n      0x20\n      add\n      swap1\n      swap3\n      swap2\n      swap1\n      dup1\n      calldataload\n      swap1\n      0x20\n      add\n      swap1\n      swap3\n      swap2\n      swap1\n      pop\n      pop\n      pop\n      tag_151\n      jump\t// in\n    tag_149:\n      mload(0x40)\n      dup1\n      dup3\n      iszero\n      iszero\n      dup2\n      mstore\n      0x20\n      add\n      swap2\n      pop\n      pop\n      mload(0x40)\n      dup1\n      swap2\n      sub\n      swap1\n      return\n        /* \"contracts/Token/Token.sol\":12862:13081  function transferOwnership(address newOwner) public virtual onlyOwner {... */\n    tag_40:\n      tag_152\n      0x04\n      dup1\n      calldatasize\n      sub\n      0x20\n      dup2\n      lt\n      iszero\n      tag_153\n      jumpi\n      0x00\n      dup1\n      revert\n    tag_153:\n      dup2\n      add\n      swap1\n      dup1\n      dup1\n      calldataload\n      0xffffffffffffffffffffffffffffffffffffffff\n      and\n      swap1\n      0x20\n      add\n      swap1\n      swap3\n      swap2\n      swap1\n      pop\n      pop\n      pop\n      tag_154\n      jump\t// in\n    tag_152:\n      stop\n        /* \"contracts/Token/Token.sol\":25193:25281  function BuyTest(uint256 amount) public virtual onlyMinter { ... */\n    tag_41:\n      tag_155\n      0x04\n      dup1\n      calldatasize\n      sub\n      0x20\n      dup2\n      lt\n      iszero\n      tag_156\n      jumpi\n      0x00\n      dup1\n      revert\n    tag_156:\n      dup2\n      add\n      swap1\n      dup1\n      dup1\n      calldataload\n      swap1\n      0x20\n      add\n      swap1\n      swap3\n      swap2\n      swap1\n      pop\n      pop\n      pop\n      tag_157\n      jump\t// in\n    tag_155:\n      stop\n        /* \"contracts/Token/Token.sol\":16163:16235  function name() public view returns (string memory) {... */\n    tag_50:\n        /* \"contracts/Token/Token.sol\":16200:16213  string memory */\n      0x60\n        /* \"contracts/Token/Token.sol\":16226:16231  _name */\n      0x09\n        /* \"contracts/Token/Token.sol\":16219:16231  return _name */\n      dup1\n      sload\n      0x01\n      dup2\n      0x01\n      and\n      iszero\n      0x0100\n      mul\n      sub\n      and\n      0x02\n      swap1\n      div\n      dup1\n      0x1f\n      add\n      0x20\n      dup1\n      swap2\n      div\n      mul\n      0x20\n      add\n      mload(0x40)\n      swap1\n      dup2\n      add\n      0x40\n      mstore\n      dup1\n      swap3\n      swap2\n      swap1\n      dup2\n      dup2\n      mstore\n      0x20\n      add\n      dup3\n      dup1\n      sload\n      0x01\n      dup2\n      0x01\n      and\n      iszero\n      0x0100\n      mul\n      sub\n      and\n      0x02\n      swap1\n      div\n      dup1\n      iszero\n      tag_159\n      jumpi\n      dup1\n      0x1f\n      lt\n      tag_160\n      jumpi\n      0x0100\n      dup1\n      dup4\n      sload\n      div\n      mul\n      dup4\n      mstore\n      swap2\n      0x20\n      add\n      swap2\n      jump(tag_159)\n    tag_160:\n      dup3\n      add\n      swap2\n      swap1\n      0x00\n      mstore\n      keccak256(0x00, 0x20)\n      swap1\n    tag_161:\n      dup2\n      sload\n      dup2\n      mstore\n      swap1\n      0x01\n      add\n      swap1\n      0x20\n      add\n      dup1\n      dup4\n      gt\n      tag_161\n      jumpi\n      dup3\n      swap1\n      sub\n      0x1f\n      and\n      dup3\n      add\n      swap2\n    tag_159:\n      pop\n      pop\n      pop\n      pop\n      pop\n      swap1\n      pop\n        /* \"contracts/Token/Token.sol\":16163:16235  function name() public view returns (string memory) {... */\n      swap1\n      jump\t// out\n        /* \"contracts/Token/Token.sol\":14501:14590  function minteradmin() public view returns (address) {... */\n    tag_56:\n        /* \"contracts/Token/Token.sol\":14545:14552  address */\n      0x00\n        /* \"contracts/Token/Token.sol\":14571:14583  _minterAdmin */\n      0x03\n      0x00\n      swap1\n      sload\n      swap1\n      0x0100\n      exp\n      swap1\n      div\n      0xffffffffffffffffffffffffffffffffffffffff\n      and\n        /* \"contracts/Token/Token.sol\":14564:14583  return _minterAdmin */\n      swap1\n      pop\n        /* \"contracts/Token/Token.sol\":14501:14590  function minteradmin() public view returns (address) {... */\n      swap1\n      jump\t// out\n        /* \"contracts/Token/Token.sol\":17119:17270  function approve(address spender, uint256 amount) public virtual override returns (bool) {... */\n    tag_59:\n        /* \"contracts/Token/Token.sol\":17202:17206  bool */\n      0x00\n        /* \"contracts/Token/Token.sol\":17212:17251  _approve(_msgSender(), spender, amount) */\n      tag_164\n        /* \"contracts/Token/Token.sol\":17221:17233  _msgSender() */\n      tag_165\n        /* \"contracts/Token/Token.sol\":17221:17231  _msgSender */\n      tag_166\n        /* \"contracts/Token/Token.sol\":17221:17233  _msgSender() */\n      jump\t// in\n    tag_165:\n        /* \"contracts/Token/Token.sol\":17235:17242  spender */\n      dup5\n        /* \"contracts/Token/Token.sol\":17244:17250  amount */\n      dup5\n        /* \"contracts/Token/Token.sol\":17212:17220  _approve */\n      tag_167\n        /* \"contracts/Token/Token.sol\":17212:17251  _approve(_msgSender(), spender, amount) */\n      jump\t// in\n    tag_164:\n        /* \"contracts/Token/Token.sol\":17262:17266  true */\n      0x01\n        /* \"contracts/Token/Token.sol\":17255:17266  return true */\n      swap1\n      pop\n        /* \"contracts/Token/Token.sol\":17119:17270  function approve(address spender, uint256 amount) public virtual override returns (bool) {... */\n      swap3\n      swap2\n      pop\n      pop\n      jump\t// out\n        /* \"contracts/Token/Token.sol\":26672:26818  function meltTokens(address account, uint256 amount) public onlyMinter returns (bool) {... */\n    tag_62:\n        /* \"contracts/Token/Token.sol\":26752:26756  bool */\n      0x00\n        /* \"contracts/Token/Token.sol\":14106:14110  true */\n      0x01\n        /* \"contracts/Token/Token.sol\":14082:14110  _minters[msg.sender] == true */\n      iszero\n      iszero\n        /* \"contracts/Token/Token.sol\":14082:14090  _minters */\n      0x02\n        /* \"contracts/Token/Token.sol\":14082:14102  _minters[msg.sender] */\n      0x00\n        /* \"contracts/Token/Token.sol\":14091:14101  msg.sender */\n      caller\n        /* \"contracts/Token/Token.sol\":14082:14102  _minters[msg.sender] */\n      0xffffffffffffffffffffffffffffffffffffffff\n      and\n      0xffffffffffffffffffffffffffffffffffffffff\n      and\n      dup2\n      mstore\n      0x20\n      add\n      swap1\n      dup2\n      mstore\n      0x20\n      add\n      0x00\n      keccak256\n      0x00\n      swap1\n      sload\n      swap1\n      0x0100\n      exp\n      swap1\n      div\n      0xff\n      and\n        /* \"contracts/Token/Token.sol\":14082:14110  _minters[msg.sender] == true */\n      iszero\n      iszero\n      eq\n        /* \"contracts/Token/Token.sol\":14073:14133  require (_minters[msg.sender] == true, \"can't perform melt\") */\n      tag_169\n      jumpi\n      mload(0x40)\n      0x08c379a000000000000000000000000000000000000000000000000000000000\n      dup2\n      mstore\n      0x04\n      add\n      dup1\n      dup1\n      0x20\n      add\n      dup3\n      dup2\n      sub\n      dup3\n      mstore\n      0x12\n      dup2\n      mstore\n      0x20\n      add\n      dup1\n      0x63616e277420706572666f726d206d656c740000000000000000000000000000\n      dup2\n      mstore\n      pop\n      0x20\n      add\n      swap2\n      pop\n      pop\n      mload(0x40)\n      dup1\n      swap2\n      sub\n      swap1\n      revert\n    tag_169:\n        /* \"contracts/Token/Token.sol\":26768:26790  _melt(account, amount) */\n      tag_171\n        /* \"contracts/Token/Token.sol\":26774:26781  account */\n      dup4\n        /* \"contracts/Token/Token.sol\":26783:26789  amount */\n      dup4\n        /* \"contracts/Token/Token.sol\":26768:26773  _melt */\n      tag_172\n        /* \"contracts/Token/Token.sol\":26768:26790  _melt(account, amount) */\n      jump\t// in\n    tag_171:\n        /* \"contracts/Token/Token.sol\":26807:26811  true */\n      0x01\n        /* \"contracts/Token/Token.sol\":26800:26811  return true */\n      swap1\n      pop\n        /* \"contracts/Token/Token.sol\":26672:26818  function meltTokens(address account, uint256 amount) public onlyMinter returns (bool) {... */\n      swap3\n      swap2\n      pop\n      pop\n      jump\t// out\n        /* \"contracts/Token/Token.sol\":26828:26947  function destroyFrozen(address account, uint256 amount) public onlyMinter {... */\n    tag_65:\n        /* \"contracts/Token/Token.sol\":14106:14110  true */\n      0x01\n        /* \"contracts/Token/Token.sol\":14082:14110  _minters[msg.sender] == true */\n      iszero\n      iszero\n        /* \"contracts/Token/Token.sol\":14082:14090  _minters */\n      0x02\n        /* \"contracts/Token/Token.sol\":14082:14102  _minters[msg.sender] */\n      0x00\n        /* \"contracts/Token/Token.sol\":14091:14101  msg.sender */\n      caller\n        /* \"contracts/Token/Token.sol\":14082:14102  _minters[msg.sender] */\n      0xffffffffffffffffffffffffffffffffffffffff\n      and\n      0xffffffffffffffffffffffffffffffffffffffff\n      and\n      dup2\n      mstore\n      0x20\n      add\n      swap1\n      dup2\n      mstore\n      0x20\n      add\n      0x00\n      keccak256\n      0x00\n      swap1\n      sload\n      swap1\n      0x0100\n      exp\n      swap1\n      div\n      0xff\n      and\n        /* \"contracts/Token/Token.sol\":14082:14110  _minters[msg.sender] == true */\n      iszero\n      iszero\n      eq\n        /* \"contracts/Token/Token.sol\":14073:14133  require (_minters[msg.sender] == true, \"can't perform melt\") */\n      tag_174\n      jumpi\n      mload(0x40)\n      0x08c379a000000000000000000000000000000000000000000000000000000000\n      dup2\n      mstore\n      0x04\n      add\n      dup1\n      dup1\n      0x20\n      add\n      dup3\n      dup2\n      sub\n      dup3\n      mstore\n      0x12\n      dup2\n      mstore\n      0x20\n      add\n      dup1\n      0x63616e277420706572666f726d206d656c740000000000000000000000000000\n      dup2\n      mstore\n      pop\n      0x20\n      add\n      swap2\n      pop\n      pop\n      mload(0x40)\n      dup1\n      swap2\n      sub\n      swap1\n      revert\n    tag_174:\n        /* \"contracts/Token/Token.sol\":26912:26940  _burnFrozen(account, amount) */\n      tag_176\n        /* \"contracts/Token/Token.sol\":26924:26931  account */\n      dup3\n        /* \"contracts/Token/Token.sol\":26933:26939  amount */\n      dup3\n        /* \"contracts/Token/Token.sol\":26912:26923  _burnFrozen */\n      tag_177\n        /* \"contracts/Token/Token.sol\":26912:26940  _burnFrozen(account, amount) */\n      jump\t// in\n    tag_176:\n        /* \"contracts/Token/Token.sol\":26828:26947  function destroyFrozen(address account, uint256 amount) public onlyMinter {... */\n      pop\n      pop\n      jump\t// out\n        /* \"contracts/Token/Token.sol\":16392:16481  function totalSupply() public view override returns (uint256) {... */\n    tag_67:\n        /* \"contracts/Token/Token.sol\":16445:16452  uint256 */\n      0x00\n        /* \"contracts/Token/Token.sol\":16465:16477  _totalSupply */\n      sload(0x07)\n        /* \"contracts/Token/Token.sol\":16458:16477  return _totalSupply */\n      swap1\n      pop\n        /* \"contracts/Token/Token.sol\":16392:16481  function totalSupply() public view override returns (uint256) {... */\n      swap1\n      jump\t// out\n        /* \"contracts/Token/Token.sol\":14944:15159  function claimMinterAdmin() public onlyPendingMinterAdmin {... */\n    tag_69:\n        /* \"contracts/Token/Token.sol\":14223:14241  pendingMinterAdmin */\n      0x04\n      0x00\n      swap1\n      sload\n      swap1\n      0x0100\n      exp\n      swap1\n      div\n      0xffffffffffffffffffffffffffffffffffffffff\n      and\n        /* \"contracts/Token/Token.sol\":14209:14241  msg.sender == pendingMinterAdmin */\n      0xffffffffffffffffffffffffffffffffffffffff\n      and\n        /* \"contracts/Token/Token.sol\":14209:14219  msg.sender */\n      caller\n        /* \"contracts/Token/Token.sol\":14209:14241  msg.sender == pendingMinterAdmin */\n      0xffffffffffffffffffffffffffffffffffffffff\n      and\n      eq\n        /* \"contracts/Token/Token.sol\":14201:14279  require(msg.sender == pendingMinterAdmin, \"caller not a pending melter admin\") */\n      tag_180\n      jumpi\n      mload(0x40)\n      0x08c379a000000000000000000000000000000000000000000000000000000000\n      dup2\n      mstore\n      0x04\n      add\n      dup1\n      dup1\n      0x20\n      add\n      dup3\n      dup2\n      sub\n      dup3\n      mstore\n      0x21\n      dup2\n      mstore\n      0x20\n      add\n      dup1\n      data_dcdad2652796fc64e805bbf7adf0bc0a565a5d4a577f7ae44ee7ec82e235ba99\n      0x21\n      swap2\n      codecopy\n      0x40\n      add\n      swap2\n      pop\n      pop\n      mload(0x40)\n      dup1\n      swap2\n      sub\n      swap1\n      revert\n    tag_180:\n        /* \"contracts/Token/Token.sol\":15049:15067  pendingMinterAdmin */\n      0x04\n      0x00\n      swap1\n      sload\n      swap1\n      0x0100\n      exp\n      swap1\n      div\n      0xffffffffffffffffffffffffffffffffffffffff\n      and\n        /* \"contracts/Token/Token.sol\":15017:15068  MinterTransferred(_minterAdmin, pendingMinterAdmin) */\n      0xffffffffffffffffffffffffffffffffffffffff\n      and\n        /* \"contracts/Token/Token.sol\":15035:15047  _minterAdmin */\n      0x03\n      0x00\n      swap1\n      sload\n      swap1\n      0x0100\n      exp\n      swap1\n      div\n      0xffffffffffffffffffffffffffffffffffffffff\n      and\n        /* \"contracts/Token/Token.sol\":15017:15068  MinterTransferred(_minterAdmin, pendingMinterAdmin) */\n      0xffffffffffffffffffffffffffffffffffffffff\n      and\n      0x02ad39e5173f89bdd5497202bd74024b5da045106c3163ddb078d2e89ff6d6de\n      mload(0x40)\n      mload(0x40)\n      dup1\n      swap2\n      sub\n      swap1\n      log3\n        /* \"contracts/Token/Token.sol\":15093:15111  pendingMinterAdmin */\n      0x04\n      0x00\n      swap1\n      sload\n      swap1\n      0x0100\n      exp\n      swap1\n      div\n      0xffffffffffffffffffffffffffffffffffffffff\n      and\n        /* \"contracts/Token/Token.sol\":15078:15090  _minterAdmin */\n      0x03\n      0x00\n        /* \"contracts/Token/Token.sol\":15078:15111  _minterAdmin = pendingMinterAdmin */\n      0x0100\n      exp\n      dup2\n      sload\n      dup2\n      0xffffffffffffffffffffffffffffffffffffffff\n      mul\n      not\n      and\n      swap1\n      dup4\n      0xffffffffffffffffffffffffffffffffffffffff\n      and\n      mul\n      or\n      swap1\n      sstore\n      pop\n        /* \"contracts/Token/Token.sol\":15150:15151  0 */\n      0x00\n        /* \"contracts/Token/Token.sol\":15121:15139  pendingMinterAdmin */\n      0x04\n      0x00\n        /* \"contracts/Token/Token.sol\":15121:15152  pendingMinterAdmin = address(0) */\n      0x0100\n      exp\n      dup2\n      sload\n      dup2\n      0xffffffffffffffffffffffffffffffffffffffff\n      mul\n      not\n      and\n      swap1\n      dup4\n      0xffffffffffffffffffffffffffffffffffffffff\n      and\n      mul\n      or\n      swap1\n      sstore\n      pop\n        /* \"contracts/Token/Token.sol\":14944:15159  function claimMinterAdmin() public onlyPendingMinterAdmin {... */\n      jump\t// out\n        /* \"contracts/Token/Token.sol\":25283:25454  function SellTest(address recipient, uint256 amount) public virtual onlyMinter { ... */\n    tag_72:\n        /* \"contracts/Token/Token.sol\":14106:14110  true */\n      0x01\n        /* \"contracts/Token/Token.sol\":14082:14110  _minters[msg.sender] == true */\n      iszero\n      iszero\n        /* \"contracts/Token/Token.sol\":14082:14090  _minters */\n      0x02\n        /* \"contracts/Token/Token.sol\":14082:14102  _minters[msg.sender] */\n      0x00\n        /* \"contracts/Token/Token.sol\":14091:14101  msg.sender */\n      caller\n        /* \"contracts/Token/Token.sol\":14082:14102  _minters[msg.sender] */\n      0xffffffffffffffffffffffffffffffffffffffff\n      and\n      0xffffffffffffffffffffffffffffffffffffffff\n      and\n      dup2\n      mstore\n      0x20\n      add\n      swap1\n      dup2\n      mstore\n      0x20\n      add\n      0x00\n      keccak256\n      0x00\n      swap1\n      sload\n      swap1\n      0x0100\n      exp\n      swap1\n      div\n      0xff\n      and\n        /* \"contracts/Token/Token.sol\":14082:14110  _minters[msg.sender] == true */\n      iszero\n      iszero\n      eq\n        /* \"contracts/Token/Token.sol\":14073:14133  require (_minters[msg.sender] == true, \"can't perform melt\") */\n      tag_183\n      jumpi\n      mload(0x40)\n      0x08c379a000000000000000000000000000000000000000000000000000000000\n      dup2\n      mstore\n      0x04\n      add\n      dup1\n      dup1\n      0x20\n      add\n      dup3\n      dup2\n      sub\n      dup3\n      mstore\n      0x12\n      dup2\n      mstore\n      0x20\n      add\n      dup1\n      0x63616e277420706572666f726d206d656c740000000000000000000000000000\n      dup2\n      mstore\n      pop\n      0x20\n      add\n      swap2\n      pop\n      pop\n      mload(0x40)\n      dup1\n      swap2\n      sub\n      swap1\n      revert\n    tag_183:\n        /* \"contracts/Token/Token.sol\":25367:25404  _approve(msg.sender,recipient,amount) */\n      tag_185\n        /* \"contracts/Token/Token.sol\":25376:25386  msg.sender */\n      caller\n        /* \"contracts/Token/Token.sol\":25387:25396  recipient */\n      dup4\n        /* \"contracts/Token/Token.sol\":25397:25403  amount */\n      dup4\n        /* \"contracts/Token/Token.sol\":25367:25375  _approve */\n      tag_167\n        /* \"contracts/Token/Token.sol\":25367:25404  _approve(msg.sender,recipient,amount) */\n      jump\t// in\n    tag_185:\n        /* \"contracts/Token/Token.sol\":25408:25450  _transferSell(msg.sender,recipient,amount) */\n      tag_186\n        /* \"contracts/Token/Token.sol\":25422:25432  msg.sender */\n      caller\n        /* \"contracts/Token/Token.sol\":25433:25442  recipient */\n      dup4\n        /* \"contracts/Token/Token.sol\":25443:25449  amount */\n      dup4\n        /* \"contracts/Token/Token.sol\":25408:25421  _transferSell */\n      tag_187\n        /* \"contracts/Token/Token.sol\":25408:25450  _transferSell(msg.sender,recipient,amount) */\n      jump\t// in\n    tag_186:\n        /* \"contracts/Token/Token.sol\":25283:25454  function SellTest(address recipient, uint256 amount) public virtual onlyMinter { ... */\n      pop\n      pop\n      jump\t// out\n        /* \"contracts/Token/Token.sol\":17273:17569  function transferFrom(address sender, address recipient, uint256 amount) public virtual override returns (bool) {... */\n    tag_75:\n        /* \"contracts/Token/Token.sol\":17379:17383  bool */\n      0x00\n        /* \"contracts/Token/Token.sol\":17389:17425  _transfer(sender, recipient, amount) */\n      tag_189\n        /* \"contracts/Token/Token.sol\":17399:17405  sender */\n      dup5\n        /* \"contracts/Token/Token.sol\":17407:17416  recipient */\n      dup5\n        /* \"contracts/Token/Token.sol\":17418:17424  amount */\n      dup5\n        /* \"contracts/Token/Token.sol\":17389:17398  _transfer */\n      tag_190\n        /* \"contracts/Token/Token.sol\":17389:17425  _transfer(sender, recipient, amount) */\n      jump\t// in\n    tag_189:\n        /* \"contracts/Token/Token.sol\":17429:17550  _approve(sender, _msgSender(), _allowances[sender][_msgSender()].sub(amount, \"ERC20: transfer amount exceeds allowance\")) */\n      tag_191\n        /* \"contracts/Token/Token.sol\":17438:17444  sender */\n      dup5\n        /* \"contracts/Token/Token.sol\":17446:17458  _msgSender() */\n      tag_192\n        /* \"contracts/Token/Token.sol\":17446:17456  _msgSender */\n      tag_166\n        /* \"contracts/Token/Token.sol\":17446:17458  _msgSender() */\n      jump\t// in\n    tag_192:\n        /* \"contracts/Token/Token.sol\":17460:17549  _allowances[sender][_msgSender()].sub(amount, \"ERC20: transfer amount exceeds allowance\") */\n      tag_193\n        /* \"contracts/Token/Token.sol\":17498:17504  amount */\n      dup6\n        /* \"contracts/Token/Token.sol\":17460:17549  _allowances[sender][_msgSender()].sub(amount, \"ERC20: transfer amount exceeds allowance\") */\n      mload(0x40)\n      dup1\n      0x60\n      add\n      0x40\n      mstore\n      dup1\n      0x28\n      dup2\n      mstore\n      0x20\n      add\n      data_974d1b4421da69cc60b481194f0dad36a5bb4e23da810da7a7fb30cdba178330\n      0x28\n      swap2\n      codecopy\n        /* \"contracts/Token/Token.sol\":17460:17471  _allowances */\n      0x06\n        /* \"contracts/Token/Token.sol\":17460:17479  _allowances[sender] */\n      0x00\n        /* \"contracts/Token/Token.sol\":17472:17478  sender */\n      dup12\n        /* \"contracts/Token/Token.sol\":17460:17479  _allowances[sender] */\n      0xffffffffffffffffffffffffffffffffffffffff\n      and\n      0xffffffffffffffffffffffffffffffffffffffff\n      and\n      dup2\n      mstore\n      0x20\n      add\n      swap1\n      dup2\n      mstore\n      0x20\n      add\n      0x00\n      keccak256\n        /* \"contracts/Token/Token.sol\":17460:17493  _allowances[sender][_msgSender()] */\n      0x00\n        /* \"contracts/Token/Token.sol\":17480:17492  _msgSender() */\n      tag_194\n        /* \"contracts/Token/Token.sol\":17480:17490  _msgSender */\n      tag_166\n        /* \"contracts/Token/Token.sol\":17480:17492  _msgSender() */\n      jump\t// in\n    tag_194:\n        /* \"contracts/Token/Token.sol\":17460:17493  _allowances[sender][_msgSender()] */\n      0xffffffffffffffffffffffffffffffffffffffff\n      and\n      0xffffffffffffffffffffffffffffffffffffffff\n      and\n      dup2\n      mstore\n      0x20\n      add\n      swap1\n      dup2\n      mstore\n      0x20\n      add\n      0x00\n      keccak256\n      sload\n        /* \"contracts/Token/Token.sol\":17460:17497  _allowances[sender][_msgSender()].sub */\n      tag_195\n      swap1\n        /* \"contracts/Token/Token.sol\":17460:17549  _allowances[sender][_msgSender()].sub(amount, \"ERC20: transfer amount exceeds allowance\") */\n      swap3\n      swap2\n      swap1\n      0xffffffff\n      and\n      jump\t// in\n    tag_193:\n        /* \"contracts/Token/Token.sol\":17429:17437  _approve */\n      tag_167\n        /* \"contracts/Token/Token.sol\":17429:17550  _approve(sender, _msgSender(), _allowances[sender][_msgSender()].sub(amount, \"ERC20: transfer amount exceeds allowance\")) */\n      jump\t// in\n    tag_191:\n        /* \"contracts/Token/Token.sol\":17561:17565  true */\n      0x01\n        /* \"contracts/Token/Token.sol\":17554:17565  return true */\n      swap1\n      pop\n        /* \"contracts/Token/Token.sol\":17273:17569  function transferFrom(address sender, address recipient, uint256 amount) public virtual override returns (bool) {... */\n      swap4\n      swap3\n      pop\n      pop\n      pop\n      jump\t// out\n        /* \"contracts/Token/Token.sol\":16317:16389  function decimals() public view returns (uint8) {... */\n    tag_77:\n        /* \"contracts/Token/Token.sol\":16358:16363  uint8 */\n      0x00\n        /* \"contracts/Token/Token.sol\":16376:16385  _decimals */\n      0x0b\n      0x00\n      swap1\n      sload\n      swap1\n      0x0100\n      exp\n      swap1\n      div\n      0xff\n      and\n        /* \"contracts/Token/Token.sol\":16369:16385  return _decimals */\n      swap1\n      pop\n        /* \"contracts/Token/Token.sol\":16317:16389  function decimals() public view returns (uint8) {... */\n      swap1\n      jump\t// out\n        /* \"contracts/Token/Token.sol\":22068:22098  uint256 public transferFeeRate */\n    tag_79:\n      sload(0x0f)\n      dup2\n      jump\t// out\n        /* \"contracts/Token/Token.sol\":17572:17772  function increaseAllowance(address spender, uint256 addedValue) public virtual returns (bool) {... */\n    tag_82:\n        /* \"contracts/Token/Token.sol\":17660:17664  bool */\n      0x00\n        /* \"contracts/Token/Token.sol\":17670:17753  _approve(_msgSender(), spender, _allowances[_msgSender()][spender].add(addedValue)) */\n      tag_198\n        /* \"contracts/Token/Token.sol\":17679:17691  _msgSender() */\n      tag_199\n        /* \"contracts/Token/Token.sol\":17679:17689  _msgSender */\n      tag_166\n        /* \"contracts/Token/Token.sol\":17679:17691  _msgSender() */\n      jump\t// in\n    tag_199:\n        /* \"contracts/Token/Token.sol\":17693:17700  spender */\n      dup5\n        /* \"contracts/Token/Token.sol\":17702:17752  _allowances[_msgSender()][spender].add(addedValue) */\n      tag_200\n        /* \"contracts/Token/Token.sol\":17741:17751  addedValue */\n      dup6\n        /* \"contracts/Token/Token.sol\":17702:17713  _allowances */\n      0x06\n        /* \"contracts/Token/Token.sol\":17702:17727  _allowances[_msgSender()] */\n      0x00\n        /* \"contracts/Token/Token.sol\":17714:17726  _msgSender() */\n      tag_201\n        /* \"contracts/Token/Token.sol\":17714:17724  _msgSender */\n      tag_166\n        /* \"contracts/Token/Token.sol\":17714:17726  _msgSender() */\n      jump\t// in\n    tag_201:\n        /* \"contracts/Token/Token.sol\":17702:17727  _allowances[_msgSender()] */\n      0xffffffffffffffffffffffffffffffffffffffff\n      and\n      0xffffffffffffffffffffffffffffffffffffffff\n      and\n      dup2\n      mstore\n      0x20\n      add\n      swap1\n      dup2\n      mstore\n      0x20\n      add\n      0x00\n      keccak256\n        /* \"contracts/Token/Token.sol\":17702:17736  _allowances[_msgSender()][spender] */\n      0x00\n        /* \"contracts/Token/Token.sol\":17728:17735  spender */\n      dup10\n        /* \"contracts/Token/Token.sol\":17702:17736  _allowances[_msgSender()][spender] */\n      0xffffffffffffffffffffffffffffffffffffffff\n      and\n      0xffffffffffffffffffffffffffffffffffffffff\n      and\n      dup2\n      mstore\n      0x20\n      add\n      swap1\n      dup2\n      mstore\n      0x20\n      add\n      0x00\n      keccak256\n      sload\n        /* \"contracts/Token/Token.sol\":17702:17740  _allowances[_msgSender()][spender].add */\n      tag_202\n      swap1\n        /* \"contracts/Token/Token.sol\":17702:17752  _allowances[_msgSender()][spender].add(addedValue) */\n      swap2\n      swap1\n      0xffffffff\n      and\n      jump\t// in\n    tag_200:\n        /* \"contracts/Token/Token.sol\":17670:17678  _approve */\n      tag_167\n        /* \"contracts/Token/Token.sol\":17670:17753  _approve(_msgSender(), spender, _allowances[_msgSender()][spender].add(addedValue)) */\n      jump\t// in\n    tag_198:\n        /* \"contracts/Token/Token.sol\":17764:17768  true */\n      0x01\n        /* \"contracts/Token/Token.sol\":17757:17768  return true */\n      swap1\n      pop\n        /* \"contracts/Token/Token.sol\":17572:17772  function increaseAllowance(address spender, uint256 addedValue) public virtual returns (bool) {... */\n      swap3\n      swap2\n      pop\n      pop\n      jump\t// out\n        /* \"contracts/Token/Token.sol\":25550:25638  function mint(address _to, uint256 _amount) public onlyOwner {... */\n    tag_85:\n        /* \"contracts/Token/Token.sol\":12222:12234  _msgSender() */\n      tag_204\n        /* \"contracts/Token/Token.sol\":12222:12232  _msgSender */\n      tag_166\n        /* \"contracts/Token/Token.sol\":12222:12234  _msgSender() */\n      jump\t// in\n    tag_204:\n        /* \"contracts/Token/Token.sol\":12212:12234  _owner == _msgSender() */\n      0xffffffffffffffffffffffffffffffffffffffff\n      and\n        /* \"contracts/Token/Token.sol\":12212:12218  _owner */\n      0x01\n      0x00\n      swap1\n      sload\n      swap1\n      0x0100\n      exp\n      swap1\n      div\n      0xffffffffffffffffffffffffffffffffffffffff\n      and\n        /* \"contracts/Token/Token.sol\":12212:12234  _owner == _msgSender() */\n      0xffffffffffffffffffffffffffffffffffffffff\n      and\n      eq\n        /* \"contracts/Token/Token.sol\":12204:12271  require(_owner == _msgSender(), \"Ownable: caller is not the owner\") */\n      tag_205\n      jumpi\n      mload(0x40)\n      0x08c379a000000000000000000000000000000000000000000000000000000000\n      dup2\n      mstore\n      0x04\n      add\n      dup1\n      dup1\n      0x20\n      add\n      dup3\n      dup2\n      sub\n      dup3\n      mstore\n      0x20\n      dup2\n      mstore\n      0x20\n      add\n      dup1\n      0x4f776e61626c653a2063616c6c6572206973206e6f7420746865206f776e6572\n      dup2\n      mstore\n      pop\n      0x20\n      add\n      swap2\n      pop\n      pop\n      mload(0x40)\n      dup1\n      swap2\n      sub\n      swap1\n      revert\n    tag_205:\n        /* \"contracts/Token/Token.sol\":25615:25634  _mint(_to, _amount) */\n      tag_207\n        /* \"contracts/Token/Token.sol\":25621:25624  _to */\n      dup3\n        /* \"contracts/Token/Token.sol\":25626:25633  _amount */\n      dup3\n        /* \"contracts/Token/Token.sol\":25615:25620  _mint */\n      tag_208\n        /* \"contracts/Token/Token.sol\":25615:25634  _mint(_to, _amount) */\n      jump\t// in\n    tag_207:\n        /* \"contracts/Token/Token.sol\":25550:25638  function mint(address _to, uint256 _amount) public onlyOwner {... */\n      pop\n      pop\n      jump\t// out\n        /* \"contracts/Token/Token.sol\":25641:25751  function burn(uint256 amount) public virtual returns (bool) {... */\n    tag_88:\n        /* \"contracts/Token/Token.sol\":25695:25699  bool */\n      0x00\n        /* \"contracts/Token/Token.sol\":25705:25732  _burn(_msgSender(), amount) */\n      tag_210\n        /* \"contracts/Token/Token.sol\":25711:25723  _msgSender() */\n      tag_211\n        /* \"contracts/Token/Token.sol\":25711:25721  _msgSender */\n      tag_166\n        /* \"contracts/Token/Token.sol\":25711:25723  _msgSender() */\n      jump\t// in\n    tag_211:\n        /* \"contracts/Token/Token.sol\":25725:25731  amount */\n      dup4\n        /* \"contracts/Token/Token.sol\":25705:25710  _burn */\n      tag_212\n        /* \"contracts/Token/Token.sol\":25705:25732  _burn(_msgSender(), amount) */\n      jump\t// in\n    tag_210:\n        /* \"contracts/Token/Token.sol\":25743:25747  true */\n      0x01\n        /* \"contracts/Token/Token.sol\":25736:25747  return true */\n      swap1\n      pop\n        /* \"contracts/Token/Token.sol\":25641:25751  function burn(uint256 amount) public virtual returns (bool) {... */\n      swap2\n      swap1\n      pop\n      jump\t// out\n        /* \"contracts/Token/Token.sol\":22206:22238  uint256 public transferFeeBuyDEV */\n    tag_90:\n      sload(0x13)\n      dup2\n      jump\t// out\n        /* \"contracts/Token/Token.sol\":14705:14814  function removeFromMinters(address account) public onlyMinterAdmin {... */\n    tag_93:\n        /* \"contracts/Token/Token.sol\":13975:13987  _minterAdmin */\n      0x03\n      0x00\n      swap1\n      sload\n      swap1\n      0x0100\n      exp\n      swap1\n      div\n      0xffffffffffffffffffffffffffffffffffffffff\n      and\n        /* \"contracts/Token/Token.sol\":13961:13987  msg.sender == _minterAdmin */\n      0xffffffffffffffffffffffffffffffffffffffff\n      and\n        /* \"contracts/Token/Token.sol\":13961:13971  msg.sender */\n      caller\n        /* \"contracts/Token/Token.sol\":13961:13987  msg.sender == _minterAdmin */\n      0xffffffffffffffffffffffffffffffffffffffff\n      and\n      eq\n        /* \"contracts/Token/Token.sol\":13952:14017  require (msg.sender == _minterAdmin, \"caller not a melter admin\") */\n      tag_214\n      jumpi\n      mload(0x40)\n      0x08c379a000000000000000000000000000000000000000000000000000000000\n      dup2\n      mstore\n      0x04\n      add\n      dup1\n      dup1\n      0x20\n      add\n      dup3\n      dup2\n      sub\n      dup3\n      mstore\n      0x19\n      dup2\n      mstore\n      0x20\n      add\n      dup1\n      0x63616c6c6572206e6f742061206d656c7465722061646d696e00000000000000\n      dup2\n      mstore\n      pop\n      0x20\n      add\n      swap2\n      pop\n      pop\n      mload(0x40)\n      dup1\n      swap2\n      sub\n      swap1\n      revert\n    tag_214:\n        /* \"contracts/Token/Token.sol\":14802:14807  false */\n      0x00\n        /* \"contracts/Token/Token.sol\":14782:14790  _minters */\n      0x02\n        /* \"contracts/Token/Token.sol\":14782:14799  _minters[account] */\n      0x00\n        /* \"contracts/Token/Token.sol\":14791:14798  account */\n      dup4\n        /* \"contracts/Token/Token.sol\":14782:14799  _minters[account] */\n      0xffffffffffffffffffffffffffffffffffffffff\n      and\n      0xffffffffffffffffffffffffffffffffffffffff\n      and\n      dup2\n      mstore\n      0x20\n      add\n      swap1\n      dup2\n      mstore\n      0x20\n      add\n      0x00\n      keccak256\n      0x00\n        /* \"contracts/Token/Token.sol\":14782:14807  _minters[account] = false */\n      0x0100\n      exp\n      dup2\n      sload\n      dup2\n      0xff\n      mul\n      not\n      and\n      swap1\n      dup4\n      iszero\n      iszero\n      mul\n      or\n      swap1\n      sstore\n      pop\n        /* \"contracts/Token/Token.sol\":14705:14814  function removeFromMinters(address account) public onlyMinterAdmin {... */\n      pop\n      jump\t// out\n        /* \"contracts/Token/Token.sol\":16673:16813  function balanceOf(address account) public view override returns (uint256) {... */\n    tag_96:\n        /* \"contracts/Token/Token.sol\":16739:16746  uint256 */\n      0x00\n        /* \"contracts/Token/Token.sol\":16759:16809  _balances[account].add(_frozen_balanceOf(account)) */\n      tag_217\n        /* \"contracts/Token/Token.sol\":16782:16808  _frozen_balanceOf(account) */\n      tag_218\n        /* \"contracts/Token/Token.sol\":16800:16807  account */\n      dup4\n        /* \"contracts/Token/Token.sol\":16782:16799  _frozen_balanceOf */\n      tag_219\n        /* \"contracts/Token/Token.sol\":16782:16808  _frozen_balanceOf(account) */\n      jump\t// in\n    tag_218:\n        /* \"contracts/Token/Token.sol\":16759:16768  _balances */\n      0x05\n        /* \"contracts/Token/Token.sol\":16759:16777  _balances[account] */\n      0x00\n        /* \"contracts/Token/Token.sol\":16769:16776  account */\n      dup6\n        /* \"contracts/Token/Token.sol\":16759:16777  _balances[account] */\n      0xffffffffffffffffffffffffffffffffffffffff\n      and\n      0xffffffffffffffffffffffffffffffffffffffff\n      and\n      dup2\n      mstore\n      0x20\n      add\n      swap1\n      dup2\n      mstore\n      0x20\n      add\n      0x00\n      keccak256\n      sload\n        /* \"contracts/Token/Token.sol\":16759:16781  _balances[account].add */\n      tag_202\n      swap1\n        /* \"contracts/Token/Token.sol\":16759:16809  _balances[account].add(_frozen_balanceOf(account)) */\n      swap2\n      swap1\n      0xffffffff\n      and\n      jump\t// in\n    tag_217:\n        /* \"contracts/Token/Token.sol\":16752:16809  return _balances[account].add(_frozen_balanceOf(account)) */\n      swap1\n      pop\n        /* \"contracts/Token/Token.sol\":16673:16813  function balanceOf(address account) public view override returns (uint256) {... */\n      swap2\n      swap1\n      pop\n      jump\t// out\n        /* \"contracts/Token/Token.sol\":12598:12728  function renounceOwnership() public virtual onlyOwner {... */\n    tag_98:\n        /* \"contracts/Token/Token.sol\":12222:12234  _msgSender() */\n      tag_221\n        /* \"contracts/Token/Token.sol\":12222:12232  _msgSender */\n      tag_166\n        /* \"contracts/Token/Token.sol\":12222:12234  _msgSender() */\n      jump\t// in\n    tag_221:\n        /* \"contracts/Token/Token.sol\":12212:12234  _owner == _msgSender() */\n      0xffffffffffffffffffffffffffffffffffffffff\n      and\n        /* \"contracts/Token/Token.sol\":12212:12218  _owner */\n      0x01\n      0x00\n      swap1\n      sload\n      swap1\n      0x0100\n      exp\n      swap1\n      div\n      0xffffffffffffffffffffffffffffffffffffffff\n      and\n        /* \"contracts/Token/Token.sol\":12212:12234  _owner == _msgSender() */\n      0xffffffffffffffffffffffffffffffffffffffff\n      and\n      eq\n        /* \"contracts/Token/Token.sol\":12204:12271  require(_owner == _msgSender(), \"Ownable: caller is not the owner\") */\n      tag_222\n      jumpi\n      mload(0x40)\n      0x08c379a000000000000000000000000000000000000000000000000000000000\n      dup2\n      mstore\n      0x04\n      add\n      dup1\n      dup1\n      0x20\n      add\n      dup3\n      dup2\n      sub\n      dup3\n      mstore\n      0x20\n      dup2\n      mstore\n      0x20\n      add\n      dup1\n      0x4f776e61626c653a2063616c6c6572206973206e6f7420746865206f776e6572\n      dup2\n      mstore\n      pop\n      0x20\n      add\n      swap2\n      pop\n      pop\n      mload(0x40)\n      dup1\n      swap2\n      sub\n      swap1\n      revert\n    tag_222:\n        /* \"contracts/Token/Token.sol\":12698:12699  0 */\n      0x00\n        /* \"contracts/Token/Token.sol\":12661:12701  OwnershipTransferred(_owner, address(0)) */\n      0xffffffffffffffffffffffffffffffffffffffff\n      and\n        /* \"contracts/Token/Token.sol\":12682:12688  _owner */\n      0x01\n      0x00\n      swap1\n      sload\n      swap1\n      0x0100\n      exp\n      swap1\n      div\n      0xffffffffffffffffffffffffffffffffffffffff\n      and\n        /* \"contracts/Token/Token.sol\":12661:12701  OwnershipTransferred(_owner, address(0)) */\n      0xffffffffffffffffffffffffffffffffffffffff\n      and\n      0x8be0079c531659141344cd1fd0a4f28419497f9722a3daafe3b4186f6b6457e0\n      mload(0x40)\n      mload(0x40)\n      dup1\n      swap2\n      sub\n      swap1\n      log3\n        /* \"contracts/Token/Token.sol\":12722:12723  0 */\n      0x00\n        /* \"contracts/Token/Token.sol\":12705:12711  _owner */\n      0x01\n      0x00\n        /* \"contracts/Token/Token.sol\":12705:12724  _owner = address(0) */\n      0x0100\n      exp\n      dup2\n      sload\n      dup2\n      0xffffffffffffffffffffffffffffffffffffffff\n      mul\n      not\n      and\n      swap1\n      dup4\n      0xffffffffffffffffffffffffffffffffffffffff\n      and\n      mul\n      or\n      swap1\n      sstore\n      pop\n        /* \"contracts/Token/Token.sol\":12598:12728  function renounceOwnership() public virtual onlyOwner {... */\n      jump\t// out\n        /* \"contracts/Token/Token.sol\":25754:26053  function burnFrom(address account, uint256 amount) public virtual returns (bool) {... */\n    tag_101:\n        /* \"contracts/Token/Token.sol\":25829:25833  bool */\n      0x00\n        /* \"contracts/Token/Token.sol\":25839:25865  uint256 decreasedAllowance */\n      dup1\n        /* \"contracts/Token/Token.sol\":25868:25952  allowance(account, _msgSender()).sub(amount, \"ERC20: burn amount exceeds allowance\") */\n      tag_225\n        /* \"contracts/Token/Token.sol\":25905:25911  amount */\n      dup4\n        /* \"contracts/Token/Token.sol\":25868:25952  allowance(account, _msgSender()).sub(amount, \"ERC20: burn amount exceeds allowance\") */\n      mload(0x40)\n      dup1\n      0x60\n      add\n      0x40\n      mstore\n      dup1\n      0x24\n      dup2\n      mstore\n      0x20\n      add\n      data_a287c363786607a1457a2d9d12fa61c0073358e02d76b4035fc2c2d86a19c0db\n      0x24\n      swap2\n      codecopy\n        /* \"contracts/Token/Token.sol\":25868:25900  allowance(account, _msgSender()) */\n      tag_226\n        /* \"contracts/Token/Token.sol\":25878:25885  account */\n      dup8\n        /* \"contracts/Token/Token.sol\":25887:25899  _msgSender() */\n      tag_227\n        /* \"contracts/Token/Token.sol\":25887:25897  _msgSender */\n      tag_166\n        /* \"contracts/Token/Token.sol\":25887:25899  _msgSender() */\n      jump\t// in\n    tag_227:\n        /* \"contracts/Token/Token.sol\":25868:25877  allowance */\n      tag_148\n        /* \"contracts/Token/Token.sol\":25868:25900  allowance(account, _msgSender()) */\n      jump\t// in\n    tag_226:\n        /* \"contracts/Token/Token.sol\":25868:25904  allowance(account, _msgSender()).sub */\n      tag_195\n      swap1\n        /* \"contracts/Token/Token.sol\":25868:25952  allowance(account, _msgSender()).sub(amount, \"ERC20: burn amount exceeds allowance\") */\n      swap3\n      swap2\n      swap1\n      0xffffffff\n      and\n      jump\t// in\n    tag_225:\n        /* \"contracts/Token/Token.sol\":25839:25952  uint256 decreasedAllowance = allowance(account, _msgSender()).sub(amount, \"ERC20: burn amount exceeds allowance\") */\n      swap1\n      pop\n        /* \"contracts/Token/Token.sol\":25957:26008  _approve(account, _msgSender(), decreasedAllowance) */\n      tag_228\n        /* \"contracts/Token/Token.sol\":25966:25973  account */\n      dup5\n        /* \"contracts/Token/Token.sol\":25975:25987  _msgSender() */\n      tag_229\n        /* \"contracts/Token/Token.sol\":25975:25985  _msgSender */\n      tag_166\n        /* \"contracts/Token/Token.sol\":25975:25987  _msgSender() */\n      jump\t// in\n    tag_229:\n        /* \"contracts/Token/Token.sol\":25989:26007  decreasedAllowance */\n      dup4\n        /* \"contracts/Token/Token.sol\":25957:25965  _approve */\n      tag_167\n        /* \"contracts/Token/Token.sol\":25957:26008  _approve(account, _msgSender(), decreasedAllowance) */\n      jump\t// in\n    tag_228:\n        /* \"contracts/Token/Token.sol\":26012:26034  _burn(account, amount) */\n      tag_230\n        /* \"contracts/Token/Token.sol\":26018:26025  account */\n      dup5\n        /* \"contracts/Token/Token.sol\":26027:26033  amount */\n      dup5\n        /* \"contracts/Token/Token.sol\":26012:26017  _burn */\n      tag_212\n        /* \"contracts/Token/Token.sol\":26012:26034  _burn(account, amount) */\n      jump\t// in\n    tag_230:\n        /* \"contracts/Token/Token.sol\":26045:26049  true */\n      0x01\n        /* \"contracts/Token/Token.sol\":26038:26049  return true */\n      swap2\n      pop\n      pop\n        /* \"contracts/Token/Token.sol\":25754:26053  function burnFrom(address account, uint256 amount) public virtual returns (bool) {... */\n      swap3\n      swap2\n      pop\n      pop\n      jump\t// out\n        /* \"contracts/Token/Token.sol\":22101:22134  uint256 public transferFeeSellRWP */\n    tag_103:\n      sload(0x10)\n      dup2\n      jump\t// out\n        /* \"contracts/Token/Token.sol\":12035:12103  function owner() public view returns (address) {... */\n    tag_105:\n        /* \"contracts/Token/Token.sol\":12073:12080  address */\n      0x00\n        /* \"contracts/Token/Token.sol\":12093:12099  _owner */\n      0x01\n      0x00\n      swap1\n      sload\n      swap1\n      0x0100\n      exp\n      swap1\n      div\n      0xffffffffffffffffffffffffffffffffffffffff\n      and\n        /* \"contracts/Token/Token.sol\":12086:12099  return _owner */\n      swap1\n      pop\n        /* \"contracts/Token/Token.sol\":12035:12103  function owner() public view returns (address) {... */\n      swap1\n      jump\t// out\n        /* \"contracts/Token/Token.sol\":27088:27220  function removeTransferBurnAddress(address _transferFeeAddress) public onlyOwner {... */\n    tag_108:\n        /* \"contracts/Token/Token.sol\":12222:12234  _msgSender() */\n      tag_233\n        /* \"contracts/Token/Token.sol\":12222:12232  _msgSender */\n      tag_166\n        /* \"contracts/Token/Token.sol\":12222:12234  _msgSender() */\n      jump\t// in\n    tag_233:\n        /* \"contracts/Token/Token.sol\":12212:12234  _owner == _msgSender() */\n      0xffffffffffffffffffffffffffffffffffffffff\n      and\n        /* \"contracts/Token/Token.sol\":12212:12218  _owner */\n      0x01\n      0x00\n      swap1\n      sload\n      swap1\n      0x0100\n      exp\n      swap1\n      div\n      0xffffffffffffffffffffffffffffffffffffffff\n      and\n        /* \"contracts/Token/Token.sol\":12212:12234  _owner == _msgSender() */\n      0xffffffffffffffffffffffffffffffffffffffff\n      and\n      eq\n        /* \"contracts/Token/Token.sol\":12204:12271  require(_owner == _msgSender(), \"Ownable: caller is not the owner\") */\n      tag_234\n      jumpi\n      mload(0x40)\n      0x08c379a000000000000000000000000000000000000000000000000000000000\n      dup2\n      mstore\n      0x04\n      add\n      dup1\n      dup1\n      0x20\n      add\n      dup3\n      dup2\n      sub\n      dup3\n      mstore\n      0x20\n      dup2\n      mstore\n      0x20\n      add\n      dup1\n      0x4f776e61626c653a2063616c6c6572206973206e6f7420746865206f776e6572\n      dup2\n      mstore\n      pop\n      0x20\n      add\n      swap2\n      pop\n      pop\n      mload(0x40)\n      dup1\n      swap2\n      sub\n      swap1\n      revert\n    tag_234:\n        /* \"contracts/Token/Token.sol\":27180:27195  _transactionFee */\n      0x15\n        /* \"contracts/Token/Token.sol\":27180:27216  _transactionFee[_transferFeeAddress] */\n      0x00\n        /* \"contracts/Token/Token.sol\":27196:27215  _transferFeeAddress */\n      dup3\n        /* \"contracts/Token/Token.sol\":27180:27216  _transactionFee[_transferFeeAddress] */\n      0xffffffffffffffffffffffffffffffffffffffff\n      and\n      0xffffffffffffffffffffffffffffffffffffffff\n      and\n      dup2\n      mstore\n      0x20\n      add\n      swap1\n      dup2\n      mstore\n      0x20\n      add\n      0x00\n      keccak256\n      0x00\n        /* \"contracts/Token/Token.sol\":27173:27216  delete _transactionFee[_transferFeeAddress] */\n      0x0100\n      exp\n      dup2\n      sload\n      swap1\n      0xff\n      mul\n      not\n      and\n      swap1\n      sstore\n        /* \"contracts/Token/Token.sol\":27088:27220  function removeTransferBurnAddress(address _transferFeeAddress) public onlyOwner {... */\n      pop\n      jump\t// out\n        /* \"contracts/Token/Token.sol\":26957:27085  function addTransferFeeAddress(address _transferFeeAddress) public onlyOwner {... */\n    tag_111:\n        /* \"contracts/Token/Token.sol\":12222:12234  _msgSender() */\n      tag_237\n        /* \"contracts/Token/Token.sol\":12222:12232  _msgSender */\n      tag_166\n        /* \"contracts/Token/Token.sol\":12222:12234  _msgSender() */\n      jump\t// in\n    tag_237:\n        /* \"contracts/Token/Token.sol\":12212:12234  _owner == _msgSender() */\n      0xffffffffffffffffffffffffffffffffffffffff\n      and\n        /* \"contracts/Token/Token.sol\":12212:12218  _owner */\n      0x01\n      0x00\n      swap1\n      sload\n      swap1\n      0x0100\n      exp\n      swap1\n      div\n      0xffffffffffffffffffffffffffffffffffffffff\n      and\n        /* \"contracts/Token/Token.sol\":12212:12234  _owner == _msgSender() */\n      0xffffffffffffffffffffffffffffffffffffffff\n      and\n      eq\n        /* \"contracts/Token/Token.sol\":12204:12271  require(_owner == _msgSender(), \"Ownable: caller is not the owner\") */\n      tag_238\n      jumpi\n      mload(0x40)\n      0x08c379a000000000000000000000000000000000000000000000000000000000\n      dup2\n      mstore\n      0x04\n      add\n      dup1\n      dup1\n      0x20\n      add\n      dup3\n      dup2\n      sub\n      dup3\n      mstore\n      0x20\n      dup2\n      mstore\n      0x20\n      add\n      dup1\n      0x4f776e61626c653a2063616c6c6572206973206e6f7420746865206f776e6572\n      dup2\n      mstore\n      pop\n      0x20\n      add\n      swap2\n      pop\n      pop\n      mload(0x40)\n      dup1\n      swap2\n      sub\n      swap1\n      revert\n    tag_238:\n        /* \"contracts/Token/Token.sol\":27077:27081  true */\n      0x01\n        /* \"contracts/Token/Token.sol\":27038:27053  _transactionFee */\n      0x15\n        /* \"contracts/Token/Token.sol\":27038:27074  _transactionFee[_transferFeeAddress] */\n      0x00\n        /* \"contracts/Token/Token.sol\":27054:27073  _transferFeeAddress */\n      dup4\n        /* \"contracts/Token/Token.sol\":27038:27074  _transactionFee[_transferFeeAddress] */\n      0xffffffffffffffffffffffffffffffffffffffff\n      and\n      0xffffffffffffffffffffffffffffffffffffffff\n      and\n      dup2\n      mstore\n      0x20\n      add\n      swap1\n      dup2\n      mstore\n      0x20\n      add\n      0x00\n      keccak256\n      0x00\n        /* \"contracts/Token/Token.sol\":27038:27081  _transactionFee[_transferFeeAddress] = true */\n      0x0100\n      exp\n      dup2\n      sload\n      dup2\n      0xff\n      mul\n      not\n      and\n      swap1\n      dup4\n      iszero\n      iszero\n      mul\n      or\n      swap1\n      sstore\n      pop\n        /* \"contracts/Token/Token.sol\":26957:27085  function addTransferFeeAddress(address _transferFeeAddress) public onlyOwner {... */\n      pop\n      jump\t// out\n        /* \"contracts/Token/Token.sol\":16238:16314  function symbol() public view returns (string memory) {... */\n    tag_113:\n        /* \"contracts/Token/Token.sol\":16277:16290  string memory */\n      0x60\n        /* \"contracts/Token/Token.sol\":16303:16310  _symbol */\n      0x0a\n        /* \"contracts/Token/Token.sol\":16296:16310  return _symbol */\n      dup1\n      sload\n      0x01\n      dup2\n      0x01\n      and\n      iszero\n      0x0100\n      mul\n      sub\n      and\n      0x02\n      swap1\n      div\n      dup1\n      0x1f\n      add\n      0x20\n      dup1\n      swap2\n      div\n      mul\n      0x20\n      add\n      mload(0x40)\n      swap1\n      dup2\n      add\n      0x40\n      mstore\n      dup1\n      swap3\n      swap2\n      swap1\n      dup2\n      dup2\n      mstore\n      0x20\n      add\n      dup3\n      dup1\n      sload\n      0x01\n      dup2\n      0x01\n      and\n      iszero\n      0x0100\n      mul\n      sub\n      and\n      0x02\n      swap1\n      div\n      dup1\n      iszero\n      tag_241\n      jumpi\n      dup1\n      0x1f\n      lt\n      tag_242\n      jumpi\n      0x0100\n      dup1\n      dup4\n      sload\n      div\n      mul\n      dup4\n      mstore\n      swap2\n      0x20\n      add\n      swap2\n      jump(tag_241)\n    tag_242:\n      dup3\n      add\n      swap2\n      swap1\n      0x00\n      mstore\n      keccak256(0x00, 0x20)\n      swap1\n    tag_243:\n      dup2\n      sload\n      dup2\n      mstore\n      swap1\n      0x01\n      add\n      swap1\n      0x20\n      add\n      dup1\n      dup4\n      gt\n      tag_243\n      jumpi\n      dup3\n      swap1\n      sub\n      0x1f\n      and\n      dup3\n      add\n      swap2\n    tag_241:\n      pop\n      pop\n      pop\n      pop\n      pop\n      swap1\n      pop\n        /* \"contracts/Token/Token.sol\":16238:16314  function symbol() public view returns (string memory) {... */\n      swap1\n      jump\t// out\n        /* \"contracts/Token/Token.sol\":16564:16670  function availableBalance(address account) public view returns (uint256) {... */\n    tag_120:\n        /* \"contracts/Token/Token.sol\":16628:16635  uint256 */\n      0x00\n        /* \"contracts/Token/Token.sol\":16648:16657  _balances */\n      0x05\n        /* \"contracts/Token/Token.sol\":16648:16666  _balances[account] */\n      0x00\n        /* \"contracts/Token/Token.sol\":16658:16665  account */\n      dup4\n        /* \"contracts/Token/Token.sol\":16648:16666  _balances[account] */\n      0xffffffffffffffffffffffffffffffffffffffff\n      and\n      0xffffffffffffffffffffffffffffffffffffffff\n      and\n      dup2\n      mstore\n      0x20\n      add\n      swap1\n      dup2\n      mstore\n      0x20\n      add\n      0x00\n      keccak256\n      sload\n        /* \"contracts/Token/Token.sol\":16641:16666  return _balances[account] */\n      swap1\n      pop\n        /* \"contracts/Token/Token.sol\":16564:16670  function availableBalance(address account) public view returns (uint256) {... */\n      swap2\n      swap1\n      pop\n      jump\t// out\n        /* \"contracts/Token/Token.sol\":14596:14699  function addToMinters(address account) public onlyMinterAdmin {... */\n    tag_123:\n        /* \"contracts/Token/Token.sol\":13975:13987  _minterAdmin */\n      0x03\n      0x00\n      swap1\n      sload\n      swap1\n      0x0100\n      exp\n      swap1\n      div\n      0xffffffffffffffffffffffffffffffffffffffff\n      and\n        /* \"contracts/Token/Token.sol\":13961:13987  msg.sender == _minterAdmin */\n      0xffffffffffffffffffffffffffffffffffffffff\n      and\n        /* \"contracts/Token/Token.sol\":13961:13971  msg.sender */\n      caller\n        /* \"contracts/Token/Token.sol\":13961:13987  msg.sender == _minterAdmin */\n      0xffffffffffffffffffffffffffffffffffffffff\n      and\n      eq\n        /* \"contracts/Token/Token.sol\":13952:14017  require (msg.sender == _minterAdmin, \"caller not a melter admin\") */\n      tag_246\n      jumpi\n      mload(0x40)\n      0x08c379a000000000000000000000000000000000000000000000000000000000\n      dup2\n      mstore\n      0x04\n      add\n      dup1\n      dup1\n      0x20\n      add\n      dup3\n      dup2\n      sub\n      dup3\n      mstore\n      0x19\n      dup2\n      mstore\n      0x20\n      add\n      dup1\n      0x63616c6c6572206e6f742061206d656c7465722061646d696e00000000000000\n      dup2\n      mstore\n      pop\n      0x20\n      add\n      swap2\n      pop\n      pop\n      mload(0x40)\n      dup1\n      swap2\n      sub\n      swap1\n      revert\n    tag_246:\n        /* \"contracts/Token/Token.sol\":14688:14692  true */\n      0x01\n        /* \"contracts/Token/Token.sol\":14668:14676  _minters */\n      0x02\n        /* \"contracts/Token/Token.sol\":14668:14685  _minters[account] */\n      0x00\n        /* \"contracts/Token/Token.sol\":14677:14684  account */\n      dup4\n        /* \"contracts/Token/Token.sol\":14668:14685  _minters[account] */\n      0xffffffffffffffffffffffffffffffffffffffff\n      and\n      0xffffffffffffffffffffffffffffffffffffffff\n      and\n      dup2\n      mstore\n      0x20\n      add\n      swap1\n      dup2\n      mstore\n      0x20\n      add\n      0x00\n      keccak256\n      0x00\n        /* \"contracts/Token/Token.sol\":14668:14692  _minters[account] = true */\n      0x0100\n      exp\n      dup2\n      sload\n      dup2\n      0xff\n      mul\n      not\n      and\n      swap1\n      dup4\n      iszero\n      iszero\n      mul\n      or\n      swap1\n      sstore\n      pop\n        /* \"contracts/Token/Token.sol\":14596:14699  function addToMinters(address account) public onlyMinterAdmin {... */\n      pop\n      jump\t// out\n        /* \"contracts/Token/Token.sol\":22137:22168  uint256 public transferFeeBuyLP */\n    tag_125:\n      sload(0x11)\n      dup2\n      jump\t// out\n        /* \"contracts/Token/Token.sol\":17775:18026  function decreaseAllowance(address spender, uint256 subtractedValue) public virtual returns (bool) {... */\n    tag_128:\n        /* \"contracts/Token/Token.sol\":17868:17872  bool */\n      0x00\n        /* \"contracts/Token/Token.sol\":17878:18007  _approve(_msgSender(), spender, _allowances[_msgSender()][spender].sub(subtractedValue, \"ERC20: decreased allowance below zero\")) */\n      tag_249\n        /* \"contracts/Token/Token.sol\":17887:17899  _msgSender() */\n      tag_250\n        /* \"contracts/Token/Token.sol\":17887:17897  _msgSender */\n      tag_166\n        /* \"contracts/Token/Token.sol\":17887:17899  _msgSender() */\n      jump\t// in\n    tag_250:\n        /* \"contracts/Token/Token.sol\":17901:17908  spender */\n      dup5\n        /* \"contracts/Token/Token.sol\":17910:18006  _allowances[_msgSender()][spender].sub(subtractedValue, \"ERC20: decreased allowance below zero\") */\n      tag_251\n        /* \"contracts/Token/Token.sol\":17949:17964  subtractedValue */\n      dup6\n        /* \"contracts/Token/Token.sol\":17910:18006  _allowances[_msgSender()][spender].sub(subtractedValue, \"ERC20: decreased allowance below zero\") */\n      mload(0x40)\n      dup1\n      0x60\n      add\n      0x40\n      mstore\n      dup1\n      0x25\n      dup2\n      mstore\n      0x20\n      add\n      data_f8b476f7d28209d77d4a4ac1fe36b9f8259aa1bb6bddfa6e89de7e51615cf8a8\n      0x25\n      swap2\n      codecopy\n        /* \"contracts/Token/Token.sol\":17910:17921  _allowances */\n      0x06\n        /* \"contracts/Token/Token.sol\":17910:17935  _allowances[_msgSender()] */\n      0x00\n        /* \"contracts/Token/Token.sol\":17922:17934  _msgSender() */\n      tag_252\n        /* \"contracts/Token/Token.sol\":17922:17932  _msgSender */\n      tag_166\n        /* \"contracts/Token/Token.sol\":17922:17934  _msgSender() */\n      jump\t// in\n    tag_252:\n        /* \"contracts/Token/Token.sol\":17910:17935  _allowances[_msgSender()] */\n      0xffffffffffffffffffffffffffffffffffffffff\n      and\n      0xffffffffffffffffffffffffffffffffffffffff\n      and\n      dup2\n      mstore\n      0x20\n      add\n      swap1\n      dup2\n      mstore\n      0x20\n      add\n      0x00\n      keccak256\n        /* \"contracts/Token/Token.sol\":17910:17944  _allowances[_msgSender()][spender] */\n      0x00\n        /* \"contracts/Token/Token.sol\":17936:17943  spender */\n      dup11\n        /* \"contracts/Token/Token.sol\":17910:17944  _allowances[_msgSender()][spender] */\n      0xffffffffffffffffffffffffffffffffffffffff\n      and\n      0xffffffffffffffffffffffffffffffffffffffff\n      and\n      dup2\n      mstore\n      0x20\n      add\n      swap1\n      dup2\n      mstore\n      0x20\n      add\n      0x00\n      keccak256\n      sload\n        /* \"contracts/Token/Token.sol\":17910:17948  _allowances[_msgSender()][spender].sub */\n      tag_195\n      swap1\n        /* \"contracts/Token/Token.sol\":17910:18006  _allowances[_msgSender()][spender].sub(subtractedValue, \"ERC20: decreased allowance below zero\") */\n      swap3\n      swap2\n      swap1\n      0xffffffff\n      and\n      jump\t// in\n    tag_251:\n        /* \"contracts/Token/Token.sol\":17878:17886  _approve */\n      tag_167\n        /* \"contracts/Token/Token.sol\":17878:18007  _approve(_msgSender(), spender, _allowances[_msgSender()][spender].sub(subtractedValue, \"ERC20: decreased allowance below zero\")) */\n      jump\t// in\n    tag_249:\n        /* \"contracts/Token/Token.sol\":18018:18022  true */\n      0x01\n        /* \"contracts/Token/Token.sol\":18011:18022  return true */\n      swap1\n      pop\n        /* \"contracts/Token/Token.sol\":17775:18026  function decreaseAllowance(address spender, uint256 subtractedValue) public virtual returns (bool) {... */\n      swap3\n      swap2\n      pop\n      pop\n      jump\t// out\n        /* \"contracts/Token/Token.sol\":16816:16973  function transfer(address recipient, uint256 amount) public virtual override returns (bool) {... */\n    tag_131:\n        /* \"contracts/Token/Token.sol\":16902:16906  bool */\n      0x00\n        /* \"contracts/Token/Token.sol\":16912:16954  _transfer(_msgSender(), recipient, amount) */\n      tag_254\n        /* \"contracts/Token/Token.sol\":16922:16934  _msgSender() */\n      tag_255\n        /* \"contracts/Token/Token.sol\":16922:16932  _msgSender */\n      tag_166\n        /* \"contracts/Token/Token.sol\":16922:16934  _msgSender() */\n      jump\t// in\n    tag_255:\n        /* \"contracts/Token/Token.sol\":16936:16945  recipient */\n      dup5\n        /* \"contracts/Token/Token.sol\":16947:16953  amount */\n      dup5\n        /* \"contracts/Token/Token.sol\":16912:16921  _transfer */\n      tag_190\n        /* \"contracts/Token/Token.sol\":16912:16954  _transfer(_msgSender(), recipient, amount) */\n      jump\t// in\n    tag_254:\n        /* \"contracts/Token/Token.sol\":16965:16969  true */\n      0x01\n        /* \"contracts/Token/Token.sol\":16958:16969  return true */\n      swap1\n      pop\n        /* \"contracts/Token/Token.sol\":16816:16973  function transfer(address recipient, uint256 amount) public virtual override returns (bool) {... */\n      swap3\n      swap2\n      pop\n      pop\n      jump\t// out\n        /* \"contracts/Token/Token.sol\":22241:22273  uint256 public transferFeeBuyRWP */\n    tag_133:\n      sload(0x14)\n      dup2\n      jump\t// out\n        /* \"contracts/Token/Token.sol\":26057:26215  function mintFrozenTokens(address account, uint256 amount) public onlyMinter returns (bool) {... */\n    tag_136:\n        /* \"contracts/Token/Token.sol\":26143:26147  bool */\n      0x00\n        /* \"contracts/Token/Token.sol\":14106:14110  true */\n      0x01\n        /* \"contracts/Token/Token.sol\":14082:14110  _minters[msg.sender] == true */\n      iszero\n      iszero\n        /* \"contracts/Token/Token.sol\":14082:14090  _minters */\n      0x02\n        /* \"contracts/Token/Token.sol\":14082:14102  _minters[msg.sender] */\n      0x00\n        /* \"contracts/Token/Token.sol\":14091:14101  msg.sender */\n      caller\n        /* \"contracts/Token/Token.sol\":14082:14102  _minters[msg.sender] */\n      0xffffffffffffffffffffffffffffffffffffffff\n      and\n      0xffffffffffffffffffffffffffffffffffffffff\n      and\n      dup2\n      mstore\n      0x20\n      add\n      swap1\n      dup2\n      mstore\n      0x20\n      add\n      0x00\n      keccak256\n      0x00\n      swap1\n      sload\n      swap1\n      0x0100\n      exp\n      swap1\n      div\n      0xff\n      and\n        /* \"contracts/Token/Token.sol\":14082:14110  _minters[msg.sender] == true */\n      iszero\n      iszero\n      eq\n        /* \"contracts/Token/Token.sol\":14073:14133  require (_minters[msg.sender] == true, \"can't perform melt\") */\n      tag_257\n      jumpi\n      mload(0x40)\n      0x08c379a000000000000000000000000000000000000000000000000000000000\n      dup2\n      mstore\n      0x04\n      add\n      dup1\n      dup1\n      0x20\n      add\n      dup3\n      dup2\n      sub\n      dup3\n      mstore\n      0x12\n      dup2\n      mstore\n      0x20\n      add\n      dup1\n      0x63616e277420706572666f726d206d656c740000000000000000000000000000\n      dup2\n      mstore\n      pop\n      0x20\n      add\n      swap2\n      pop\n      pop\n      mload(0x40)\n      dup1\n      swap2\n      sub\n      swap1\n      revert\n    tag_257:\n        /* \"contracts/Token/Token.sol\":26159:26187  _mintfrozen(account, amount) */\n      tag_259\n        /* \"contracts/Token/Token.sol\":26171:26178  account */\n      dup4\n        /* \"contracts/Token/Token.sol\":26180:26186  amount */\n      dup4\n        /* \"contracts/Token/Token.sol\":26159:26170  _mintfrozen */\n      tag_260\n        /* \"contracts/Token/Token.sol\":26159:26187  _mintfrozen(account, amount) */\n      jump\t// in\n    tag_259:\n        /* \"contracts/Token/Token.sol\":26204:26208  true */\n      0x01\n        /* \"contracts/Token/Token.sol\":26197:26208  return true */\n      swap1\n      pop\n        /* \"contracts/Token/Token.sol\":26057:26215  function mintFrozenTokens(address account, uint256 amount) public onlyMinter returns (bool) {... */\n      swap3\n      swap2\n      pop\n      pop\n      jump\t// out\n        /* \"contracts/Token/Token.sol\":22171:22203  uint256 public transferFeeBuyMKT */\n    tag_138:\n      sload(0x12)\n      dup2\n      jump\t// out\n        /* \"contracts/Token/Token.sol\":13875:13908  address public pendingMinterAdmin */\n    tag_140:\n      0x04\n      0x00\n      swap1\n      sload\n      swap1\n      0x0100\n      exp\n      swap1\n      div\n      0xffffffffffffffffffffffffffffffffffffffff\n      and\n      dup2\n      jump\t// out\n        /* \"contracts/Token/Token.sol\":16485:16561  function maxSupply() public view returns (uint256) {... */\n    tag_142:\n        /* \"contracts/Token/Token.sol\":16527:16534  uint256 */\n      0x00\n        /* \"contracts/Token/Token.sol\":16547:16557  _maxSupply */\n      sload(0x08)\n        /* \"contracts/Token/Token.sol\":16540:16557  return _maxSupply */\n      swap1\n      pop\n        /* \"contracts/Token/Token.sol\":16485:16561  function maxSupply() public view returns (uint256) {... */\n      swap1\n      jump\t// out\n        /* \"contracts/Token/Token.sol\":14820:14938  function transferMinterAdmin(address newMinter) public onlyMinterAdmin {... */\n    tag_145:\n        /* \"contracts/Token/Token.sol\":13975:13987  _minterAdmin */\n      0x03\n      0x00\n      swap1\n      sload\n      swap1\n      0x0100\n      exp\n      swap1\n      div\n      0xffffffffffffffffffffffffffffffffffffffff\n      and\n        /* \"contracts/Token/Token.sol\":13961:13987  msg.sender == _minterAdmin */\n      0xffffffffffffffffffffffffffffffffffffffff\n      and\n        /* \"contracts/Token/Token.sol\":13961:13971  msg.sender */\n      caller\n        /* \"contracts/Token/Token.sol\":13961:13987  msg.sender == _minterAdmin */\n      0xffffffffffffffffffffffffffffffffffffffff\n      and\n      eq\n        /* \"contracts/Token/Token.sol\":13952:14017  require (msg.sender == _minterAdmin, \"caller not a melter admin\") */\n      tag_263\n      jumpi\n      mload(0x40)\n      0x08c379a000000000000000000000000000000000000000000000000000000000\n      dup2\n      mstore\n      0x04\n      add\n      dup1\n      dup1\n      0x20\n      add\n      dup3\n      dup2\n      sub\n      dup3\n      mstore\n      0x19\n      dup2\n      mstore\n      0x20\n      add\n      dup1\n      0x63616c6c6572206e6f742061206d656c7465722061646d696e00000000000000\n      dup2\n      mstore\n      pop\n      0x20\n      add\n      swap2\n      pop\n      pop\n      mload(0x40)\n      dup1\n      swap2\n      sub\n      swap1\n      revert\n    tag_263:\n        /* \"contracts/Token/Token.sol\":14922:14931  newMinter */\n      dup1\n        /* \"contracts/Token/Token.sol\":14901:14919  pendingMinterAdmin */\n      0x04\n      0x00\n        /* \"contracts/Token/Token.sol\":14901:14931  pendingMinterAdmin = newMinter */\n      0x0100\n      exp\n      dup2\n      sload\n      dup2\n      0xffffffffffffffffffffffffffffffffffffffff\n      mul\n      not\n      and\n      swap1\n      dup4\n      0xffffffffffffffffffffffffffffffffffffffff\n      and\n      mul\n      or\n      swap1\n      sstore\n      pop\n        /* \"contracts/Token/Token.sol\":14820:14938  function transferMinterAdmin(address newMinter) public onlyMinterAdmin {... */\n      pop\n      jump\t// out\n        /* \"contracts/Token/Token.sol\":16976:17116  function allowance(address owner, address spender) public view virtual override returns (uint256) {... */\n    tag_148:\n        /* \"contracts/Token/Token.sol\":17065:17072  uint256 */\n      0x00\n        /* \"contracts/Token/Token.sol\":17085:17096  _allowances */\n      0x06\n        /* \"contracts/Token/Token.sol\":17085:17103  _allowances[owner] */\n      0x00\n        /* \"contracts/Token/Token.sol\":17097:17102  owner */\n      dup5\n        /* \"contracts/Token/Token.sol\":17085:17103  _allowances[owner] */\n      0xffffffffffffffffffffffffffffffffffffffff\n      and\n      0xffffffffffffffffffffffffffffffffffffffff\n      and\n      dup2\n      mstore\n      0x20\n      add\n      swap1\n      dup2\n      mstore\n      0x20\n      add\n      0x00\n      keccak256\n        /* \"contracts/Token/Token.sol\":17085:17112  _allowances[owner][spender] */\n      0x00\n        /* \"contracts/Token/Token.sol\":17104:17111  spender */\n      dup4\n        /* \"contracts/Token/Token.sol\":17085:17112  _allowances[owner][spender] */\n      0xffffffffffffffffffffffffffffffffffffffff\n      and\n      0xffffffffffffffffffffffffffffffffffffffff\n      and\n      dup2\n      mstore\n      0x20\n      add\n      swap1\n      dup2\n      mstore\n      0x20\n      add\n      0x00\n      keccak256\n      sload\n        /* \"contracts/Token/Token.sol\":17078:17112  return _allowances[owner][spender] */\n      swap1\n      pop\n        /* \"contracts/Token/Token.sol\":16976:17116  function allowance(address owner, address spender) public view virtual override returns (uint256) {... */\n      swap3\n      swap2\n      pop\n      pop\n      jump\t// out\n        /* \"contracts/Token/Token.sol\":26219:26662  function transferFrozenToken(address from, address to, uint256 amount) public onlyMinter returns (bool) {... */\n    tag_151:\n        /* \"contracts/Token/Token.sol\":26317:26321  bool */\n      0x00\n        /* \"contracts/Token/Token.sol\":14106:14110  true */\n      0x01\n        /* \"contracts/Token/Token.sol\":14082:14110  _minters[msg.sender] == true */\n      iszero\n      iszero\n        /* \"contracts/Token/Token.sol\":14082:14090  _minters */\n      0x02\n        /* \"contracts/Token/Token.sol\":14082:14102  _minters[msg.sender] */\n      0x00\n        /* \"contracts/Token/Token.sol\":14091:14101  msg.sender */\n      caller\n        /* \"contracts/Token/Token.sol\":14082:14102  _minters[msg.sender] */\n      0xffffffffffffffffffffffffffffffffffffffff\n      and\n      0xffffffffffffffffffffffffffffffffffffffff\n      and\n      dup2\n      mstore\n      0x20\n      add\n      swap1\n      dup2\n      mstore\n      0x20\n      add\n      0x00\n      keccak256\n      0x00\n      swap1\n      sload\n      swap1\n      0x0100\n      exp\n      swap1\n      div\n      0xff\n      and\n        /* \"contracts/Token/Token.sol\":14082:14110  _minters[msg.sender] == true */\n      iszero\n      iszero\n      eq\n        /* \"contracts/Token/Token.sol\":14073:14133  require (_minters[msg.sender] == true, \"can't perform melt\") */\n      tag_267\n      jumpi\n      mload(0x40)\n      0x08c379a000000000000000000000000000000000000000000000000000000000\n      dup2\n      mstore\n      0x04\n      add\n      dup1\n      dup1\n      0x20\n      add\n      dup3\n      dup2\n      sub\n      dup3\n      mstore\n      0x12\n      dup2\n      mstore\n      0x20\n      add\n      dup1\n      0x63616e277420706572666f726d206d656c740000000000000000000000000000\n      dup2\n      mstore\n      pop\n      0x20\n      add\n      swap2\n      pop\n      pop\n      mload(0x40)\n      dup1\n      swap2\n      sub\n      swap1\n      revert\n    tag_267:\n        /* \"contracts/Token/Token.sol\":26357:26358  0 */\n      0x00\n        /* \"contracts/Token/Token.sol\":26341:26359  from != address(0) */\n      0xffffffffffffffffffffffffffffffffffffffff\n      and\n        /* \"contracts/Token/Token.sol\":26341:26345  from */\n      dup5\n        /* \"contracts/Token/Token.sol\":26341:26359  from != address(0) */\n      0xffffffffffffffffffffffffffffffffffffffff\n      and\n      eq\n      iszero\n        /* \"contracts/Token/Token.sol\":26333:26401  require(from != address(0), \"ERC20: transfer from the zero address\") */\n      tag_269\n      jumpi\n      mload(0x40)\n      0x08c379a000000000000000000000000000000000000000000000000000000000\n      dup2\n      mstore\n      0x04\n      add\n      dup1\n      dup1\n      0x20\n      add\n      dup3\n      dup2\n      sub\n      dup3\n      mstore\n      0x25\n      dup2\n      mstore\n      0x20\n      add\n      dup1\n      data_baecc556b46f4ed0f2b4cb599d60785ac8563dd2dc0a5bf12edea1c39e5e1fea\n      0x25\n      swap2\n      codecopy\n      0x40\n      add\n      swap2\n      pop\n      pop\n      mload(0x40)\n      dup1\n      swap2\n      sub\n      swap1\n      revert\n    tag_269:\n        /* \"contracts/Token/Token.sol\":26433:26434  0 */\n      0x00\n        /* \"contracts/Token/Token.sol\":26419:26435  to != address(0) */\n      0xffffffffffffffffffffffffffffffffffffffff\n      and\n        /* \"contracts/Token/Token.sol\":26419:26421  to */\n      dup4\n        /* \"contracts/Token/Token.sol\":26419:26435  to != address(0) */\n      0xffffffffffffffffffffffffffffffffffffffff\n      and\n      eq\n      iszero\n        /* \"contracts/Token/Token.sol\":26411:26475  require(to != address(0), \"ERC20: transfer to the zero address\") */\n      tag_270\n      jumpi\n      mload(0x40)\n      0x08c379a000000000000000000000000000000000000000000000000000000000\n      dup2\n      mstore\n      0x04\n      add\n      dup1\n      dup1\n      0x20\n      add\n      dup3\n      dup2\n      sub\n      dup3\n      mstore\n      0x23\n      dup2\n      mstore\n      0x20\n      add\n      dup1\n      data_0557e210f7a69a685100a7e4e3d0a7024c546085cee28910fd17d0b081d9516f\n      0x23\n      swap2\n      codecopy\n      0x40\n      add\n      swap2\n      pop\n      pop\n      mload(0x40)\n      dup1\n      swap2\n      sub\n      swap1\n      revert\n    tag_270:\n        /* \"contracts/Token/Token.sol\":26486:26511  _frozen_sub(from, amount) */\n      tag_271\n        /* \"contracts/Token/Token.sol\":26498:26502  from */\n      dup5\n        /* \"contracts/Token/Token.sol\":26504:26510  amount */\n      dup4\n        /* \"contracts/Token/Token.sol\":26486:26497  _frozen_sub */\n      tag_272\n        /* \"contracts/Token/Token.sol\":26486:26511  _frozen_sub(from, amount) */\n      jump\t// in\n    tag_271:\n      pop\n        /* \"contracts/Token/Token.sol\":26521:26544  _frozen_add(to, amount) */\n      tag_273\n        /* \"contracts/Token/Token.sol\":26533:26535  to */\n      dup4\n        /* \"contracts/Token/Token.sol\":26537:26543  amount */\n      dup4\n        /* \"contracts/Token/Token.sol\":26521:26532  _frozen_add */\n      tag_274\n        /* \"contracts/Token/Token.sol\":26521:26544  _frozen_add(to, amount) */\n      jump\t// in\n    tag_273:\n      pop\n        /* \"contracts/Token/Token.sol\":26581:26583  to */\n      dup3\n        /* \"contracts/Token/Token.sol\":26560:26592  FrozenTransfer(from, to, amount) */\n      0xffffffffffffffffffffffffffffffffffffffff\n      and\n        /* \"contracts/Token/Token.sol\":26575:26579  from */\n      dup5\n        /* \"contracts/Token/Token.sol\":26560:26592  FrozenTransfer(from, to, amount) */\n      0xffffffffffffffffffffffffffffffffffffffff\n      and\n      0x9958976925baa403abf86afa44976a9effff3e01931eafd0ea2689f40852fd59\n        /* \"contracts/Token/Token.sol\":26585:26591  amount */\n      dup5\n        /* \"contracts/Token/Token.sol\":26560:26592  FrozenTransfer(from, to, amount) */\n      mload(0x40)\n      dup1\n      dup3\n      dup2\n      mstore\n      0x20\n      add\n      swap2\n      pop\n      pop\n      mload(0x40)\n      dup1\n      swap2\n      sub\n      swap1\n      log3\n        /* \"contracts/Token/Token.sol\":26622:26624  to */\n      dup3\n        /* \"contracts/Token/Token.sol\":26607:26633  Transfer(from, to, amount) */\n      0xffffffffffffffffffffffffffffffffffffffff\n      and\n        /* \"contracts/Token/Token.sol\":26616:26620  from */\n      dup5\n        /* \"contracts/Token/Token.sol\":26607:26633  Transfer(from, to, amount) */\n      0xffffffffffffffffffffffffffffffffffffffff\n      and\n      0xddf252ad1be2c89b69c2b068fc378daa952ba7f163c4a11628f55a4df523b3ef\n        /* \"contracts/Token/Token.sol\":26626:26632  amount */\n      dup5\n        /* \"contracts/Token/Token.sol\":26607:26633  Transfer(from, to, amount) */\n      mload(0x40)\n      dup1\n      dup3\n      dup2\n      mstore\n      0x20\n      add\n      swap2\n      pop\n      pop\n      mload(0x40)\n      dup1\n      swap2\n      sub\n      swap1\n      log3\n        /* \"contracts/Token/Token.sol\":26651:26655  true */\n      0x01\n        /* \"contracts/Token/Token.sol\":26644:26655  return true */\n      swap1\n      pop\n        /* \"contracts/Token/Token.sol\":26219:26662  function transferFrozenToken(address from, address to, uint256 amount) public onlyMinter returns (bool) {... */\n      swap4\n      swap3\n      pop\n      pop\n      pop\n      jump\t// out\n        /* \"contracts/Token/Token.sol\":12862:13081  function transferOwnership(address newOwner) public virtual onlyOwner {... */\n    tag_154:\n        /* \"contracts/Token/Token.sol\":12222:12234  _msgSender() */\n      tag_276\n        /* \"contracts/Token/Token.sol\":12222:12232  _msgSender */\n      tag_166\n        /* \"contracts/Token/Token.sol\":12222:12234  _msgSender() */\n      jump\t// in\n    tag_276:\n        /* \"contracts/Token/Token.sol\":12212:12234  _owner == _msgSender() */\n      0xffffffffffffffffffffffffffffffffffffffff\n      and\n        /* \"contracts/Token/Token.sol\":12212:12218  _owner */\n      0x01\n      0x00\n      swap1\n      sload\n      swap1\n      0x0100\n      exp\n      swap1\n      div\n      0xffffffffffffffffffffffffffffffffffffffff\n      and\n        /* \"contracts/Token/Token.sol\":12212:12234  _owner == _msgSender() */\n      0xffffffffffffffffffffffffffffffffffffffff\n      and\n      eq\n        /* \"contracts/Token/Token.sol\":12204:12271  require(_owner == _msgSender(), \"Ownable: caller is not the owner\") */\n      tag_277\n      jumpi\n      mload(0x40)\n      0x08c379a000000000000000000000000000000000000000000000000000000000\n      dup2\n      mstore\n      0x04\n      add\n      dup1\n      dup1\n      0x20\n      add\n      dup3\n      dup2\n      sub\n      dup3\n      mstore\n      0x20\n      dup2\n      mstore\n      0x20\n      add\n      dup1\n      0x4f776e61626c653a2063616c6c6572206973206e6f7420746865206f776e6572\n      dup2\n      mstore\n      pop\n      0x20\n      add\n      swap2\n      pop\n      pop\n      mload(0x40)\n      dup1\n      swap2\n      sub\n      swap1\n      revert\n    tag_277:\n        /* \"contracts/Token/Token.sol\":12964:12965  0 */\n      0x00\n        /* \"contracts/Token/Token.sol\":12944:12966  newOwner != address(0) */\n      0xffffffffffffffffffffffffffffffffffffffff\n      and\n        /* \"contracts/Token/Token.sol\":12944:12952  newOwner */\n      dup2\n        /* \"contracts/Token/Token.sol\":12944:12966  newOwner != address(0) */\n      0xffffffffffffffffffffffffffffffffffffffff\n      and\n      eq\n      iszero\n        /* \"contracts/Token/Token.sol\":12936:13009  require(newOwner != address(0), \"Ownable: new owner is the zero address\") */\n      tag_279\n      jumpi\n      mload(0x40)\n      0x08c379a000000000000000000000000000000000000000000000000000000000\n      dup2\n      mstore\n      0x04\n      add\n      dup1\n      dup1\n      0x20\n      add\n      dup3\n      dup2\n      sub\n      dup3\n      mstore\n      0x26\n      dup2\n      mstore\n      0x20\n      add\n      dup1\n      data_245f15ff17f551913a7a18385165551503906a406f905ac1c2437281a7cd0cfe\n      0x26\n      swap2\n      codecopy\n      0x40\n      add\n      swap2\n      pop\n      pop\n      mload(0x40)\n      dup1\n      swap2\n      sub\n      swap1\n      revert\n    tag_279:\n        /* \"contracts/Token/Token.sol\":13047:13055  newOwner */\n      dup1\n        /* \"contracts/Token/Token.sol\":13018:13056  OwnershipTransferred(_owner, newOwner) */\n      0xffffffffffffffffffffffffffffffffffffffff\n      and\n        /* \"contracts/Token/Token.sol\":13039:13045  _owner */\n      0x01\n      0x00\n      swap1\n      sload\n      swap1\n      0x0100\n      exp\n      swap1\n      div\n      0xffffffffffffffffffffffffffffffffffffffff\n      and\n        /* \"contracts/Token/Token.sol\":13018:13056  OwnershipTransferred(_owner, newOwner) */\n      0xffffffffffffffffffffffffffffffffffffffff\n      and\n      0x8be0079c531659141344cd1fd0a4f28419497f9722a3daafe3b4186f6b6457e0\n      mload(0x40)\n      mload(0x40)\n      dup1\n      swap2\n      sub\n      swap1\n      log3\n        /* \"contracts/Token/Token.sol\":13069:13077  newOwner */\n      dup1\n        /* \"contracts/Token/Token.sol\":13060:13066  _owner */\n      0x01\n      0x00\n        /* \"contracts/Token/Token.sol\":13060:13077  _owner = newOwner */\n      0x0100\n      exp\n      dup2\n      sload\n      dup2\n      0xffffffffffffffffffffffffffffffffffffffff\n      mul\n      not\n      and\n      swap1\n      dup4\n      0xffffffffffffffffffffffffffffffffffffffff\n      and\n      mul\n      or\n      swap1\n      sstore\n      pop\n        /* \"contracts/Token/Token.sol\":12862:13081  function transferOwnership(address newOwner) public virtual onlyOwner {... */\n      pop\n      jump\t// out\n        /* \"contracts/Token/Token.sol\":25193:25281  function BuyTest(uint256 amount) public virtual onlyMinter { ... */\n    tag_157:\n        /* \"contracts/Token/Token.sol\":14106:14110  true */\n      0x01\n        /* \"contracts/Token/Token.sol\":14082:14110  _minters[msg.sender] == true */\n      iszero\n      iszero\n        /* \"contracts/Token/Token.sol\":14082:14090  _minters */\n      0x02\n        /* \"contracts/Token/Token.sol\":14082:14102  _minters[msg.sender] */\n      0x00\n        /* \"contracts/Token/Token.sol\":14091:14101  msg.sender */\n      caller\n        /* \"contracts/Token/Token.sol\":14082:14102  _minters[msg.sender] */\n      0xffffffffffffffffffffffffffffffffffffffff\n      and\n      0xffffffffffffffffffffffffffffffffffffffff\n      and\n      dup2\n      mstore\n      0x20\n      add\n      swap1\n      dup2\n      mstore\n      0x20\n      add\n      0x00\n      keccak256\n      0x00\n      swap1\n      sload\n      swap1\n      0x0100\n      exp\n      swap1\n      div\n      0xff\n      and\n        /* \"contracts/Token/Token.sol\":14082:14110  _minters[msg.sender] == true */\n      iszero\n      iszero\n      eq\n        /* \"contracts/Token/Token.sol\":14073:14133  require (_minters[msg.sender] == true, \"can't perform melt\") */\n      tag_281\n      jumpi\n      mload(0x40)\n      0x08c379a000000000000000000000000000000000000000000000000000000000\n      dup2\n      mstore\n      0x04\n      add\n      dup1\n      dup1\n      0x20\n      add\n      dup3\n      dup2\n      sub\n      dup3\n      mstore\n      0x12\n      dup2\n      mstore\n      0x20\n      add\n      dup1\n      0x63616e277420706572666f726d206d656c740000000000000000000000000000\n      dup2\n      mstore\n      pop\n      0x20\n      add\n      swap2\n      pop\n      pop\n      mload(0x40)\n      dup1\n      swap2\n      sub\n      swap1\n      revert\n    tag_281:\n        /* \"contracts/Token/Token.sol\":25257:25277  _transferBuy(amount) */\n      tag_283\n        /* \"contracts/Token/Token.sol\":25270:25276  amount */\n      dup2\n        /* \"contracts/Token/Token.sol\":25257:25269  _transferBuy */\n      tag_284\n        /* \"contracts/Token/Token.sol\":25257:25277  _transferBuy(amount) */\n      jump\t// in\n    tag_283:\n        /* \"contracts/Token/Token.sol\":25193:25281  function BuyTest(uint256 amount) public virtual onlyMinter { ... */\n      pop\n      jump\t// out\n        /* \"contracts/Token/Token.sol\":833:928  function _msgSender() internal view virtual returns (address payable) {... */\n    tag_166:\n        /* \"contracts/Token/Token.sol\":886:901  address payable */\n      0x00\n        /* \"contracts/Token/Token.sol\":914:924  msg.sender */\n      caller\n        /* \"contracts/Token/Token.sol\":907:924  return msg.sender */\n      swap1\n      pop\n        /* \"contracts/Token/Token.sol\":833:928  function _msgSender() internal view virtual returns (address payable) {... */\n      swap1\n      jump\t// out\n        /* \"contracts/Token/Token.sol\":19213:19526  function _approve(address owner, address spender, uint256 amount) internal virtual {... */\n    tag_167:\n        /* \"contracts/Token/Token.sol\":19325:19326  0 */\n      0x00\n        /* \"contracts/Token/Token.sol\":19308:19327  owner != address(0) */\n      0xffffffffffffffffffffffffffffffffffffffff\n      and\n        /* \"contracts/Token/Token.sol\":19308:19313  owner */\n      dup4\n        /* \"contracts/Token/Token.sol\":19308:19327  owner != address(0) */\n      0xffffffffffffffffffffffffffffffffffffffff\n      and\n      eq\n      iszero\n        /* \"contracts/Token/Token.sol\":19300:19368  require(owner != address(0), \"ERC20: approve from the zero address\") */\n      tag_287\n      jumpi\n      mload(0x40)\n      0x08c379a000000000000000000000000000000000000000000000000000000000\n      dup2\n      mstore\n      0x04\n      add\n      dup1\n      dup1\n      0x20\n      add\n      dup3\n      dup2\n      sub\n      dup3\n      mstore\n      0x24\n      dup2\n      mstore\n      0x20\n      add\n      dup1\n      data_c953f4879035ed60e766b34720f656aab5c697b141d924c283124ecedb91c208\n      0x24\n      swap2\n      codecopy\n      0x40\n      add\n      swap2\n      pop\n      pop\n      mload(0x40)\n      dup1\n      swap2\n      sub\n      swap1\n      revert\n    tag_287:\n        /* \"contracts/Token/Token.sol\":19399:19400  0 */\n      0x00\n        /* \"contracts/Token/Token.sol\":19380:19401  spender != address(0) */\n      0xffffffffffffffffffffffffffffffffffffffff\n      and\n        /* \"contracts/Token/Token.sol\":19380:19387  spender */\n      dup3\n        /* \"contracts/Token/Token.sol\":19380:19401  spender != address(0) */\n      0xffffffffffffffffffffffffffffffffffffffff\n      and\n      eq\n      iszero\n        /* \"contracts/Token/Token.sol\":19372:19440  require(spender != address(0), \"ERC20: approve to the zero address\") */\n      tag_288\n      jumpi\n      mload(0x40)\n      0x08c379a000000000000000000000000000000000000000000000000000000000\n      dup2\n      mstore\n      0x04\n      add\n      dup1\n      dup1\n      0x20\n      add\n      dup3\n      dup2\n      sub\n      dup3\n      mstore\n      0x22\n      dup2\n      mstore\n      0x20\n      add\n      dup1\n      data_24883cc5fe64ace9d0df1893501ecb93c77180f0ff69cca79affb3c316dc8029\n      0x22\n      swap2\n      codecopy\n      0x40\n      add\n      swap2\n      pop\n      pop\n      mload(0x40)\n      dup1\n      swap2\n      sub\n      swap1\n      revert\n    tag_288:\n        /* \"contracts/Token/Token.sol\":19475:19481  amount */\n      dup1\n        /* \"contracts/Token/Token.sol\":19445:19456  _allowances */\n      0x06\n        /* \"contracts/Token/Token.sol\":19445:19463  _allowances[owner] */\n      0x00\n        /* \"contracts/Token/Token.sol\":19457:19462  owner */\n      dup6\n        /* \"contracts/Token/Token.sol\":19445:19463  _allowances[owner] */\n      0xffffffffffffffffffffffffffffffffffffffff\n      and\n      0xffffffffffffffffffffffffffffffffffffffff\n      and\n      dup2\n      mstore\n      0x20\n      add\n      swap1\n      dup2\n      mstore\n      0x20\n      add\n      0x00\n      keccak256\n        /* \"contracts/Token/Token.sol\":19445:19472  _allowances[owner][spender] */\n      0x00\n        /* \"contracts/Token/Token.sol\":19464:19471  spender */\n      dup5\n        /* \"contracts/Token/Token.sol\":19445:19472  _allowances[owner][spender] */\n      0xffffffffffffffffffffffffffffffffffffffff\n      and\n      0xffffffffffffffffffffffffffffffffffffffff\n      and\n      dup2\n      mstore\n      0x20\n      add\n      swap1\n      dup2\n      mstore\n      0x20\n      add\n      0x00\n      keccak256\n        /* \"contracts/Token/Token.sol\":19445:19481  _allowances[owner][spender] = amount */\n      dup2\n      swap1\n      sstore\n      pop\n        /* \"contracts/Token/Token.sol\":19506:19513  spender */\n      dup2\n        /* \"contracts/Token/Token.sol\":19490:19522  Approval(owner, spender, amount) */\n      0xffffffffffffffffffffffffffffffffffffffff\n      and\n        /* \"contracts/Token/Token.sol\":19499:19504  owner */\n      dup4\n        /* \"contracts/Token/Token.sol\":19490:19522  Approval(owner, spender, amount) */\n      0xffffffffffffffffffffffffffffffffffffffff\n      and\n      0x8c5be1e5ebec7d5bd14f71427d1e84f3dd0314c0f7b2291e5b200ac8c7c3b925\n        /* \"contracts/Token/Token.sol\":19515:19521  amount */\n      dup4\n        /* \"contracts/Token/Token.sol\":19490:19522  Approval(owner, spender, amount) */\n      mload(0x40)\n      dup1\n      dup3\n      dup2\n      mstore\n      0x20\n      add\n      swap2\n      pop\n      pop\n      mload(0x40)\n      dup1\n      swap2\n      sub\n      swap1\n      log3\n        /* \"contracts/Token/Token.sol\":19213:19526  function _approve(address owner, address spender, uint256 amount) internal virtual {... */\n      pop\n      pop\n      pop\n      jump\t// out\n        /* \"contracts/Token/Token.sol\":20382:20919  function _melt(address account, uint256 amount) internal {... */\n    tag_172:\n        /* \"contracts/Token/Token.sol\":20476:20477  0 */\n      0x00\n        /* \"contracts/Token/Token.sol\":20457:20478  account != address(0) */\n      0xffffffffffffffffffffffffffffffffffffffff\n      and\n        /* \"contracts/Token/Token.sol\":20457:20464  account */\n      dup3\n        /* \"contracts/Token/Token.sol\":20457:20478  account != address(0) */\n      0xffffffffffffffffffffffffffffffffffffffff\n      and\n      eq\n      iszero\n        /* \"contracts/Token/Token.sol\":20449:20516  require(account != address(0), \"ERC20: melt from the zero address\") */\n      tag_290\n      jumpi\n      mload(0x40)\n      0x08c379a000000000000000000000000000000000000000000000000000000000\n      dup2\n      mstore\n      0x04\n      add\n      dup1\n      dup1\n      0x20\n      add\n      dup3\n      dup2\n      sub\n      dup3\n      mstore\n      0x21\n      dup2\n      mstore\n      0x20\n      add\n      dup1\n      data_ae19d5a04ea56a14e1c0edb4dc7bdb92df00299e61ae2aaa6c13d35ea071495b\n      0x21\n      swap2\n      codecopy\n      0x40\n      add\n      swap2\n      pop\n      pop\n      mload(0x40)\n      dup1\n      swap2\n      sub\n      swap1\n      revert\n    tag_290:\n        /* \"contracts/Token/Token.sol\":20543:20544  0 */\n      0x00\n        /* \"contracts/Token/Token.sol\":20534:20540  amount */\n      dup2\n        /* \"contracts/Token/Token.sol\":20534:20544  amount > 0 */\n      gt\n        /* \"contracts/Token/Token.sol\":20526:20598  require(amount > 0, \"ERC20: melt from the address: value should be > 0\") */\n      tag_291\n      jumpi\n      mload(0x40)\n      0x08c379a000000000000000000000000000000000000000000000000000000000\n      dup2\n      mstore\n      0x04\n      add\n      dup1\n      dup1\n      0x20\n      add\n      dup3\n      dup2\n      sub\n      dup3\n      mstore\n      0x31\n      dup2\n      mstore\n      0x20\n      add\n      dup1\n      data_5b7675e6fbaaaa420cafac78b556823238257a970a02bf57ab4957860eac80bc\n      0x31\n      swap2\n      codecopy\n      0x40\n      add\n      swap2\n      pop\n      pop\n      mload(0x40)\n      dup1\n      swap2\n      sub\n      swap1\n      revert\n    tag_291:\n        /* \"contracts/Token/Token.sol\":20646:20652  amount */\n      dup1\n        /* \"contracts/Token/Token.sol\":20616:20642  _frozen_balanceOf(account) */\n      tag_292\n        /* \"contracts/Token/Token.sol\":20634:20641  account */\n      dup4\n        /* \"contracts/Token/Token.sol\":20616:20633  _frozen_balanceOf */\n      tag_219\n        /* \"contracts/Token/Token.sol\":20616:20642  _frozen_balanceOf(account) */\n      jump\t// in\n    tag_292:\n        /* \"contracts/Token/Token.sol\":20616:20652  _frozen_balanceOf(account) >= amount */\n      lt\n      iszero\n        /* \"contracts/Token/Token.sol\":20608:20703  require(_frozen_balanceOf(account) >= amount, \"ERC20: melt from the address: balance < amount\") */\n      tag_293\n      jumpi\n      mload(0x40)\n      0x08c379a000000000000000000000000000000000000000000000000000000000\n      dup2\n      mstore\n      0x04\n      add\n      dup1\n      dup1\n      0x20\n      add\n      dup3\n      dup2\n      sub\n      dup3\n      mstore\n      0x2e\n      dup2\n      mstore\n      0x20\n      add\n      dup1\n      data_083eca151a4ced7bf5544a897b9e8b3e2620a9b6dc6feb44e1e78751a86936c5\n      0x2e\n      swap2\n      codecopy\n      0x40\n      add\n      swap2\n      pop\n      pop\n      mload(0x40)\n      dup1\n      swap2\n      sub\n      swap1\n      revert\n    tag_293:\n        /* \"contracts/Token/Token.sol\":20714:20742  _frozen_sub(account, amount) */\n      tag_294\n        /* \"contracts/Token/Token.sol\":20726:20733  account */\n      dup3\n        /* \"contracts/Token/Token.sol\":20735:20741  amount */\n      dup3\n        /* \"contracts/Token/Token.sol\":20714:20725  _frozen_sub */\n      tag_272\n        /* \"contracts/Token/Token.sol\":20714:20742  _frozen_sub(account, amount) */\n      jump\t// in\n    tag_294:\n      pop\n        /* \"contracts/Token/Token.sol\":20768:20775  account */\n      dup2\n        /* \"contracts/Token/Token.sol\":20757:20784  MeltFrozen(account, amount) */\n      0xffffffffffffffffffffffffffffffffffffffff\n      and\n      0x36a0b989202af25b5d49a593a1dd43461453ef93a93a7846ea3dbb487e119800\n        /* \"contracts/Token/Token.sol\":20777:20783  amount */\n      dup3\n        /* \"contracts/Token/Token.sol\":20757:20784  MeltFrozen(account, amount) */\n      mload(0x40)\n      dup1\n      dup3\n      dup2\n      mstore\n      0x20\n      add\n      swap2\n      pop\n      pop\n      mload(0x40)\n      dup1\n      swap2\n      sub\n      swap1\n      log2\n        /* \"contracts/Token/Token.sol\":20824:20854  _balances[account].add(amount) */\n      tag_295\n        /* \"contracts/Token/Token.sol\":20847:20853  amount */\n      dup2\n        /* \"contracts/Token/Token.sol\":20824:20833  _balances */\n      0x05\n        /* \"contracts/Token/Token.sol\":20824:20842  _balances[account] */\n      0x00\n        /* \"contracts/Token/Token.sol\":20834:20841  account */\n      dup6\n        /* \"contracts/Token/Token.sol\":20824:20842  _balances[account] */\n      0xffffffffffffffffffffffffffffffffffffffff\n      and\n      0xffffffffffffffffffffffffffffffffffffffff\n      and\n      dup2\n      mstore\n      0x20\n      add\n      swap1\n      dup2\n      mstore\n      0x20\n      add\n      0x00\n      keccak256\n      sload\n        /* \"contracts/Token/Token.sol\":20824:20846  _balances[account].add */\n      tag_202\n      swap1\n        /* \"contracts/Token/Token.sol\":20824:20854  _balances[account].add(amount) */\n      swap2\n      swap1\n      0xffffffff\n      and\n      jump\t// in\n    tag_295:\n        /* \"contracts/Token/Token.sol\":20803:20812  _balances */\n      0x05\n        /* \"contracts/Token/Token.sol\":20803:20821  _balances[account] */\n      0x00\n        /* \"contracts/Token/Token.sol\":20813:20820  account */\n      dup5\n        /* \"contracts/Token/Token.sol\":20803:20821  _balances[account] */\n      0xffffffffffffffffffffffffffffffffffffffff\n      and\n      0xffffffffffffffffffffffffffffffffffffffff\n      and\n      dup2\n      mstore\n      0x20\n      add\n      swap1\n      dup2\n      mstore\n      0x20\n      add\n      0x00\n      keccak256\n        /* \"contracts/Token/Token.sol\":20803:20854  _balances[account] = _balances[account].add(amount) */\n      dup2\n      swap1\n      sstore\n      pop\n        /* \"contracts/Token/Token.sol\":20382:20919  function _melt(address account, uint256 amount) internal {... */\n      pop\n      pop\n      jump\t// out\n        /* \"contracts/Token/Token.sol\":20929:21227  function _burnFrozen(address account, uint256 amount) internal {... */\n    tag_177:\n        /* \"contracts/Token/Token.sol\":21029:21030  0 */\n      0x00\n        /* \"contracts/Token/Token.sol\":21010:21031  account != address(0) */\n      0xffffffffffffffffffffffffffffffffffffffff\n      and\n        /* \"contracts/Token/Token.sol\":21010:21017  account */\n      dup3\n        /* \"contracts/Token/Token.sol\":21010:21031  account != address(0) */\n      0xffffffffffffffffffffffffffffffffffffffff\n      and\n      eq\n      iszero\n        /* \"contracts/Token/Token.sol\":21002:21076  require(account != address(0), \"ERC20: frozen burn from the zero address\") */\n      tag_297\n      jumpi\n      mload(0x40)\n      0x08c379a000000000000000000000000000000000000000000000000000000000\n      dup2\n      mstore\n      0x04\n      add\n      dup1\n      dup1\n      0x20\n      add\n      dup3\n      dup2\n      sub\n      dup3\n      mstore\n      0x28\n      dup2\n      mstore\n      0x20\n      add\n      dup1\n      data_b7b21078a467b814181da2d09cb3afdeca16ec86fc8c1496bf091b24158c0663\n      0x28\n      swap2\n      codecopy\n      0x40\n      add\n      swap2\n      pop\n      pop\n      mload(0x40)\n      dup1\n      swap2\n      sub\n      swap1\n      revert\n    tag_297:\n        /* \"contracts/Token/Token.sol\":21102:21126  _totalSupply.sub(amount) */\n      tag_298\n        /* \"contracts/Token/Token.sol\":21119:21125  amount */\n      dup2\n        /* \"contracts/Token/Token.sol\":21102:21114  _totalSupply */\n      sload(0x07)\n        /* \"contracts/Token/Token.sol\":21102:21118  _totalSupply.sub */\n      tag_299\n      swap1\n        /* \"contracts/Token/Token.sol\":21102:21126  _totalSupply.sub(amount) */\n      swap2\n      swap1\n      0xffffffff\n      and\n      jump\t// in\n    tag_298:\n        /* \"contracts/Token/Token.sol\":21087:21099  _totalSupply */\n      0x07\n        /* \"contracts/Token/Token.sol\":21087:21126  _totalSupply = _totalSupply.sub(amount) */\n      dup2\n      swap1\n      sstore\n      pop\n        /* \"contracts/Token/Token.sol\":21136:21164  _frozen_sub(account, amount) */\n      tag_300\n        /* \"contracts/Token/Token.sol\":21148:21155  account */\n      dup3\n        /* \"contracts/Token/Token.sol\":21157:21163  amount */\n      dup3\n        /* \"contracts/Token/Token.sol\":21136:21147  _frozen_sub */\n      tag_272\n        /* \"contracts/Token/Token.sol\":21136:21164  _frozen_sub(account, amount) */\n      jump\t// in\n    tag_300:\n      pop\n        /* \"contracts/Token/Token.sol\":21206:21210  this */\n      address\n        /* \"contracts/Token/Token.sol\":21180:21220  Transfer(account, address(this), amount) */\n      0xffffffffffffffffffffffffffffffffffffffff\n      and\n        /* \"contracts/Token/Token.sol\":21189:21196  account */\n      dup3\n        /* \"contracts/Token/Token.sol\":21180:21220  Transfer(account, address(this), amount) */\n      0xffffffffffffffffffffffffffffffffffffffff\n      and\n      0xddf252ad1be2c89b69c2b068fc378daa952ba7f163c4a11628f55a4df523b3ef\n        /* \"contracts/Token/Token.sol\":21213:21219  amount */\n      dup4\n        /* \"contracts/Token/Token.sol\":21180:21220  Transfer(account, address(this), amount) */\n      mload(0x40)\n      dup1\n      dup3\n      dup2\n      mstore\n      0x20\n      add\n      swap2\n      pop\n      pop\n      mload(0x40)\n      dup1\n      swap2\n      sub\n      swap1\n      log3\n        /* \"contracts/Token/Token.sol\":20929:21227  function _burnFrozen(address account, uint256 amount) internal {... */\n      pop\n      pop\n      jump\t// out\n        /* \"contracts/Token/Token.sol\":23200:23644  function _transferSell(address sender, address recipient, uint256 amount) internal virtual{... */\n    tag_187:\n        /* \"contracts/Token/Token.sol\":23322:23323  0 */\n      0x00\n        /* \"contracts/Token/Token.sol\":23301:23319  transferFeeSellRWP */\n      sload(0x10)\n        /* \"contracts/Token/Token.sol\":23301:23323  transferFeeSellRWP > 0 */\n      gt\n        /* \"contracts/Token/Token.sol\":23301:23350  transferFeeSellRWP > 0 && recipient != address(0) */\n      dup1\n      iszero\n      tag_302\n      jumpi\n      pop\n        /* \"contracts/Token/Token.sol\":23348:23349  0 */\n      0x00\n        /* \"contracts/Token/Token.sol\":23327:23350  recipient != address(0) */\n      0xffffffffffffffffffffffffffffffffffffffff\n      and\n        /* \"contracts/Token/Token.sol\":23327:23336  recipient */\n      dup3\n        /* \"contracts/Token/Token.sol\":23327:23350  recipient != address(0) */\n      0xffffffffffffffffffffffffffffffffffffffff\n      and\n      eq\n      iszero\n        /* \"contracts/Token/Token.sol\":23301:23350  transferFeeSellRWP > 0 && recipient != address(0) */\n    tag_302:\n        /* \"contracts/Token/Token.sol\":23301:23379  transferFeeSellRWP > 0 && recipient != address(0) && _rewardPool != address(0) */\n      dup1\n      iszero\n      tag_303\n      jumpi\n      pop\n        /* \"contracts/Token/Token.sol\":23377:23378  0 */\n      0x00\n        /* \"contracts/Token/Token.sol\":23354:23379  _rewardPool != address(0) */\n      0xffffffffffffffffffffffffffffffffffffffff\n      and\n        /* \"contracts/Token/Token.sol\":23354:23365  _rewardPool */\n      0x0d\n      0x00\n      swap1\n      sload\n      swap1\n      0x0100\n      exp\n      swap1\n      div\n      0xffffffffffffffffffffffffffffffffffffffff\n      and\n        /* \"contracts/Token/Token.sol\":23354:23379  _rewardPool != address(0) */\n      0xffffffffffffffffffffffffffffffffffffffff\n      and\n      eq\n      iszero\n        /* \"contracts/Token/Token.sol\":23301:23379  transferFeeSellRWP > 0 && recipient != address(0) && _rewardPool != address(0) */\n    tag_303:\n        /* \"contracts/Token/Token.sol\":23297:23595  if (transferFeeSellRWP > 0 && recipient != address(0) && _rewardPool != address(0)) {... */\n      iszero\n      tag_304\n      jumpi\n        /* \"contracts/Token/Token.sol\":23386:23421  _beforeTokenTransfer(sender,amount) */\n      tag_305\n        /* \"contracts/Token/Token.sol\":23407:23413  sender */\n      dup4\n        /* \"contracts/Token/Token.sol\":23414:23420  amount */\n      dup3\n        /* \"contracts/Token/Token.sol\":23386:23406  _beforeTokenTransfer */\n      tag_306\n        /* \"contracts/Token/Token.sol\":23386:23421  _beforeTokenTransfer(sender,amount) */\n      jump\t// in\n    tag_305:\n        /* \"contracts/Token/Token.sol\":23426:23444  uint256 _feeamount */\n      0x00\n        /* \"contracts/Token/Token.sol\":23447:23486  amount.mul(transferFeeSellRWP).div(100) */\n      tag_307\n        /* \"contracts/Token/Token.sol\":23482:23485  100 */\n      0x64\n        /* \"contracts/Token/Token.sol\":23447:23477  amount.mul(transferFeeSellRWP) */\n      tag_308\n        /* \"contracts/Token/Token.sol\":23458:23476  transferFeeSellRWP */\n      sload(0x10)\n        /* \"contracts/Token/Token.sol\":23447:23453  amount */\n      dup6\n        /* \"contracts/Token/Token.sol\":23447:23457  amount.mul */\n      tag_309\n      swap1\n        /* \"contracts/Token/Token.sol\":23447:23477  amount.mul(transferFeeSellRWP) */\n      swap2\n      swap1\n      0xffffffff\n      and\n      jump\t// in\n    tag_308:\n        /* \"contracts/Token/Token.sol\":23447:23481  amount.mul(transferFeeSellRWP).div */\n      tag_310\n      swap1\n        /* \"contracts/Token/Token.sol\":23447:23486  amount.mul(transferFeeSellRWP).div(100) */\n      swap2\n      swap1\n      0xffffffff\n      and\n      jump\t// in\n    tag_307:\n        /* \"contracts/Token/Token.sol\":23426:23486  uint256 _feeamount = amount.mul(transferFeeSellRWP).div(100) */\n      swap1\n      pop\n        /* \"contracts/Token/Token.sol\":23491:23539  super._transfer(sender, _rewardPool, _feeamount) */\n      tag_311\n        /* \"contracts/Token/Token.sol\":23507:23513  sender */\n      dup5\n        /* \"contracts/Token/Token.sol\":23515:23526  _rewardPool */\n      0x0d\n      0x00\n      swap1\n      sload\n      swap1\n      0x0100\n      exp\n      swap1\n      div\n      0xffffffffffffffffffffffffffffffffffffffff\n      and\n        /* \"contracts/Token/Token.sol\":23528:23538  _feeamount */\n      dup4\n        /* \"contracts/Token/Token.sol\":23491:23506  super._transfer */\n      tag_312\n        /* \"contracts/Token/Token.sol\":23491:23539  super._transfer(sender, _rewardPool, _feeamount) */\n      jump\t// in\n    tag_311:\n        /* \"contracts/Token/Token.sol\":23568:23590  amount.sub(_feeamount) */\n      tag_313\n        /* \"contracts/Token/Token.sol\":23579:23589  _feeamount */\n      dup2\n        /* \"contracts/Token/Token.sol\":23568:23574  amount */\n      dup4\n        /* \"contracts/Token/Token.sol\":23568:23578  amount.sub */\n      tag_299\n      swap1\n        /* \"contracts/Token/Token.sol\":23568:23590  amount.sub(_feeamount) */\n      swap2\n      swap1\n      0xffffffff\n      and\n      jump\t// in\n    tag_313:\n        /* \"contracts/Token/Token.sol\":23559:23590  amount = amount.sub(_feeamount) */\n      swap2\n      pop\n        /* \"contracts/Token/Token.sol\":23297:23595  if (transferFeeSellRWP > 0 && recipient != address(0) && _rewardPool != address(0)) {... */\n      pop\n    tag_304:\n        /* \"contracts/Token/Token.sol\":23598:23640  super._transfer(sender, recipient, amount) */\n      tag_314\n        /* \"contracts/Token/Token.sol\":23614:23620  sender */\n      dup4\n        /* \"contracts/Token/Token.sol\":23622:23631  recipient */\n      dup4\n        /* \"contracts/Token/Token.sol\":23633:23639  amount */\n      dup4\n        /* \"contracts/Token/Token.sol\":23598:23613  super._transfer */\n      tag_312\n        /* \"contracts/Token/Token.sol\":23598:23640  super._transfer(sender, recipient, amount) */\n      jump\t// in\n    tag_314:\n        /* \"contracts/Token/Token.sol\":23200:23644  function _transferSell(address sender, address recipient, uint256 amount) internal virtual{... */\n      pop\n      pop\n      pop\n      jump\t// out\n        /* \"contracts/Token/Token.sol\":22738:23197  function _transfer(address sender, address recipient, uint256 amount) internal virtual override {... */\n    tag_190:\n        /* \"contracts/Token/Token.sol\":22863:22864  0 */\n      0x00\n        /* \"contracts/Token/Token.sol\":22845:22860  transferFeeRate */\n      sload(0x0f)\n        /* \"contracts/Token/Token.sol\":22845:22864  transferFeeRate > 0 */\n      gt\n        /* \"contracts/Token/Token.sol\":22845:22902  transferFeeRate > 0 && _transactionFee[recipient] == true */\n      dup1\n      iszero\n      tag_316\n      jumpi\n      pop\n        /* \"contracts/Token/Token.sol\":22898:22902  true */\n      0x01\n        /* \"contracts/Token/Token.sol\":22868:22902  _transactionFee[recipient] == true */\n      iszero\n      iszero\n        /* \"contracts/Token/Token.sol\":22868:22883  _transactionFee */\n      0x15\n        /* \"contracts/Token/Token.sol\":22868:22894  _transactionFee[recipient] */\n      0x00\n        /* \"contracts/Token/Token.sol\":22884:22893  recipient */\n      dup5\n        /* \"contracts/Token/Token.sol\":22868:22894  _transactionFee[recipient] */\n      0xffffffffffffffffffffffffffffffffffffffff\n      and\n      0xffffffffffffffffffffffffffffffffffffffff\n      and\n      dup2\n      mstore\n      0x20\n      add\n      swap1\n      dup2\n      mstore\n      0x20\n      add\n      0x00\n      keccak256\n      0x00\n      swap1\n      sload\n      swap1\n      0x0100\n      exp\n      swap1\n      div\n      0xff\n      and\n        /* \"contracts/Token/Token.sol\":22868:22902  _transactionFee[recipient] == true */\n      iszero\n      iszero\n      eq\n        /* \"contracts/Token/Token.sol\":22845:22902  transferFeeRate > 0 && _transactionFee[recipient] == true */\n    tag_316:\n        /* \"contracts/Token/Token.sol\":22845:22929  transferFeeRate > 0 && _transactionFee[recipient] == true && recipient != address(0) */\n      dup1\n      iszero\n      tag_317\n      jumpi\n      pop\n        /* \"contracts/Token/Token.sol\":22927:22928  0 */\n      0x00\n        /* \"contracts/Token/Token.sol\":22906:22929  recipient != address(0) */\n      0xffffffffffffffffffffffffffffffffffffffff\n      and\n        /* \"contracts/Token/Token.sol\":22906:22915  recipient */\n      dup3\n        /* \"contracts/Token/Token.sol\":22906:22929  recipient != address(0) */\n      0xffffffffffffffffffffffffffffffffffffffff\n      and\n      eq\n      iszero\n        /* \"contracts/Token/Token.sol\":22845:22929  transferFeeRate > 0 && _transactionFee[recipient] == true && recipient != address(0) */\n    tag_317:\n        /* \"contracts/Token/Token.sol\":22845:22966  transferFeeRate > 0 && _transactionFee[recipient] == true && recipient != address(0) && _developmentAddress != address(0) */\n      dup1\n      iszero\n      tag_318\n      jumpi\n      pop\n        /* \"contracts/Token/Token.sol\":22964:22965  0 */\n      0x00\n        /* \"contracts/Token/Token.sol\":22933:22966  _developmentAddress != address(0) */\n      0xffffffffffffffffffffffffffffffffffffffff\n      and\n        /* \"contracts/Token/Token.sol\":22933:22952  _developmentAddress */\n      0x0b\n      0x01\n      swap1\n      sload\n      swap1\n      0x0100\n      exp\n      swap1\n      div\n      0xffffffffffffffffffffffffffffffffffffffff\n      and\n        /* \"contracts/Token/Token.sol\":22933:22966  _developmentAddress != address(0) */\n      0xffffffffffffffffffffffffffffffffffffffff\n      and\n      eq\n      iszero\n        /* \"contracts/Token/Token.sol\":22845:22966  transferFeeRate > 0 && _transactionFee[recipient] == true && recipient != address(0) && _developmentAddress != address(0) */\n    tag_318:\n        /* \"contracts/Token/Token.sol\":22841:23147  if (transferFeeRate > 0 && _transactionFee[recipient] == true && recipient != address(0) && _developmentAddress != address(0)) {... */\n      iszero\n      tag_319\n      jumpi\n        /* \"contracts/Token/Token.sol\":22973:22991  uint256 _feeamount */\n      0x00\n        /* \"contracts/Token/Token.sol\":22994:23030  amount.mul(transferFeeRate).div(100) */\n      tag_320\n        /* \"contracts/Token/Token.sol\":23026:23029  100 */\n      0x64\n        /* \"contracts/Token/Token.sol\":22994:23021  amount.mul(transferFeeRate) */\n      tag_321\n        /* \"contracts/Token/Token.sol\":23005:23020  transferFeeRate */\n      sload(0x0f)\n        /* \"contracts/Token/Token.sol\":22994:23000  amount */\n      dup6\n        /* \"contracts/Token/Token.sol\":22994:23004  amount.mul */\n      tag_309\n      swap1\n        /* \"contracts/Token/Token.sol\":22994:23021  amount.mul(transferFeeRate) */\n      swap2\n      swap1\n      0xffffffff\n      and\n      jump\t// in\n    tag_321:\n        /* \"contracts/Token/Token.sol\":22994:23025  amount.mul(transferFeeRate).div */\n      tag_310\n      swap1\n        /* \"contracts/Token/Token.sol\":22994:23030  amount.mul(transferFeeRate).div(100) */\n      swap2\n      swap1\n      0xffffffff\n      and\n      jump\t// in\n    tag_320:\n        /* \"contracts/Token/Token.sol\":22973:23030  uint256 _feeamount = amount.mul(transferFeeRate).div(100) */\n      swap1\n      pop\n        /* \"contracts/Token/Token.sol\":23035:23091  super._transfer(sender, _developmentAddress, _feeamount) */\n      tag_322\n        /* \"contracts/Token/Token.sol\":23051:23057  sender */\n      dup5\n        /* \"contracts/Token/Token.sol\":23059:23078  _developmentAddress */\n      0x0b\n      0x01\n      swap1\n      sload\n      swap1\n      0x0100\n      exp\n      swap1\n      div\n      0xffffffffffffffffffffffffffffffffffffffff\n      and\n        /* \"contracts/Token/Token.sol\":23080:23090  _feeamount */\n      dup4\n        /* \"contracts/Token/Token.sol\":23035:23050  super._transfer */\n      tag_312\n        /* \"contracts/Token/Token.sol\":23035:23091  super._transfer(sender, _developmentAddress, _feeamount) */\n      jump\t// in\n    tag_322:\n        /* \"contracts/Token/Token.sol\":23120:23142  amount.sub(_feeamount) */\n      tag_323\n        /* \"contracts/Token/Token.sol\":23131:23141  _feeamount */\n      dup2\n        /* \"contracts/Token/Token.sol\":23120:23126  amount */\n      dup4\n        /* \"contracts/Token/Token.sol\":23120:23130  amount.sub */\n      tag_299\n      swap1\n        /* \"contracts/Token/Token.sol\":23120:23142  amount.sub(_feeamount) */\n      swap2\n      swap1\n      0xffffffff\n      and\n      jump\t// in\n    tag_323:\n        /* \"contracts/Token/Token.sol\":23111:23142  amount = amount.sub(_feeamount) */\n      swap2\n      pop\n        /* \"contracts/Token/Token.sol\":22841:23147  if (transferFeeRate > 0 && _transactionFee[recipient] == true && recipient != address(0) && _developmentAddress != address(0)) {... */\n      pop\n    tag_319:\n        /* \"contracts/Token/Token.sol\":23151:23193  super._transfer(sender, recipient, amount) */\n      tag_324\n        /* \"contracts/Token/Token.sol\":23167:23173  sender */\n      dup4\n        /* \"contracts/Token/Token.sol\":23175:23184  recipient */\n      dup4\n        /* \"contracts/Token/Token.sol\":23186:23192  amount */\n      dup4\n        /* \"contracts/Token/Token.sol\":23151:23166  super._transfer */\n      tag_312\n        /* \"contracts/Token/Token.sol\":23151:23193  super._transfer(sender, recipient, amount) */\n      jump\t// in\n    tag_324:\n        /* \"contracts/Token/Token.sol\":22738:23197  function _transfer(address sender, address recipient, uint256 amount) internal virtual override {... */\n      pop\n      pop\n      pop\n      jump\t// out\n        /* \"contracts/Token/Token.sol\":3025:3190  function sub(uint256 a, uint256 b, string memory errorMessage) internal pure returns (uint256) {... */\n    tag_195:\n        /* \"contracts/Token/Token.sol\":3111:3118  uint256 */\n      0x00\n        /* \"contracts/Token/Token.sol\":3137:3138  a */\n      dup4\n        /* \"contracts/Token/Token.sol\":3132:3133  b */\n      dup4\n        /* \"contracts/Token/Token.sol\":3132:3138  b <= a */\n      gt\n      iszero\n        /* \"contracts/Token/Token.sol\":3140:3152  errorMessage */\n      dup3\n        /* \"contracts/Token/Token.sol\":3124:3153  require(b <= a, errorMessage) */\n      swap1\n      tag_326\n      jumpi\n      mload(0x40)\n      0x08c379a000000000000000000000000000000000000000000000000000000000\n      dup2\n      mstore\n      0x04\n      add\n      dup1\n      dup1\n      0x20\n      add\n      dup3\n      dup2\n      sub\n      dup3\n      mstore\n      dup4\n      dup2\n      dup2\n      mload\n      dup2\n      mstore\n      0x20\n      add\n      swap2\n      pop\n      dup1\n      mload\n      swap1\n      0x20\n      add\n      swap1\n      dup1\n      dup4\n      dup4\n      0x00\n    tag_327:\n      dup4\n      dup2\n      lt\n      iszero\n      tag_329\n      jumpi\n      dup1\n      dup3\n      add\n      mload\n      dup2\n      dup5\n      add\n      mstore\n      0x20\n      dup2\n      add\n      swap1\n      pop\n      jump(tag_327)\n    tag_329:\n      pop\n      pop\n      pop\n      pop\n      swap1\n      pop\n      swap1\n      dup2\n      add\n      swap1\n      0x1f\n      and\n      dup1\n      iszero\n      tag_330\n      jumpi\n      dup1\n      dup3\n      sub\n      dup1\n      mload\n      0x01\n      dup4\n      0x20\n      sub\n      0x0100\n      exp\n      sub\n      not\n      and\n      dup2\n      mstore\n      0x20\n      add\n      swap2\n      pop\n    tag_330:\n      pop\n      swap3\n      pop\n      pop\n      pop\n      mload(0x40)\n      dup1\n      swap2\n      sub\n      swap1\n      revert\n    tag_326:\n      pop\n        /* \"contracts/Token/Token.sol\":3157:3166  uint256 c */\n      0x00\n        /* \"contracts/Token/Token.sol\":3173:3174  b */\n      dup4\n        /* \"contracts/Token/Token.sol\":3169:3170  a */\n      dup6\n        /* \"contracts/Token/Token.sol\":3169:3174  a - b */\n      sub\n        /* \"contracts/Token/Token.sol\":3157:3174  uint256 c = a - b */\n      swap1\n      pop\n        /* \"contracts/Token/Token.sol\":3185:3186  c */\n      dup1\n        /* \"contracts/Token/Token.sol\":3178:3186  return c */\n      swap2\n      pop\n      pop\n        /* \"contracts/Token/Token.sol\":3025:3190  function sub(uint256 a, uint256 b, string memory errorMessage) internal pure returns (uint256) {... */\n      swap4\n      swap3\n      pop\n      pop\n      pop\n      jump\t// out\n        /* \"contracts/Token/Token.sol\":2249:2404  function add(uint256 a, uint256 b) internal pure returns (uint256) {... */\n    tag_202:\n        /* \"contracts/Token/Token.sol\":2307:2314  uint256 */\n      0x00\n        /* \"contracts/Token/Token.sol\":2320:2329  uint256 c */\n      dup1\n        /* \"contracts/Token/Token.sol\":2336:2337  b */\n      dup3\n        /* \"contracts/Token/Token.sol\":2332:2333  a */\n      dup5\n        /* \"contracts/Token/Token.sol\":2332:2337  a + b */\n      add\n        /* \"contracts/Token/Token.sol\":2320:2337  uint256 c = a + b */\n      swap1\n      pop\n        /* \"contracts/Token/Token.sol\":2354:2355  a */\n      dup4\n        /* \"contracts/Token/Token.sol\":2349:2350  c */\n      dup2\n        /* \"contracts/Token/Token.sol\":2349:2355  c >= a */\n      lt\n      iszero\n        /* \"contracts/Token/Token.sol\":2341:2387  require(c >= a, \"SafeMath: addition overflow\") */\n      tag_332\n      jumpi\n      mload(0x40)\n      0x08c379a000000000000000000000000000000000000000000000000000000000\n      dup2\n      mstore\n      0x04\n      add\n      dup1\n      dup1\n      0x20\n      add\n      dup3\n      dup2\n      sub\n      dup3\n      mstore\n      0x1b\n      dup2\n      mstore\n      0x20\n      add\n      dup1\n      0x536166654d6174683a206164646974696f6e206f766572666c6f770000000000\n      dup2\n      mstore\n      pop\n      0x20\n      add\n      swap2\n      pop\n      pop\n      mload(0x40)\n      dup1\n      swap2\n      sub\n      swap1\n      revert\n    tag_332:\n        /* \"contracts/Token/Token.sol\":2399:2400  c */\n      dup1\n        /* \"contracts/Token/Token.sol\":2392:2400  return c */\n      swap2\n      pop\n      pop\n        /* \"contracts/Token/Token.sol\":2249:2404  function add(uint256 a, uint256 b) internal pure returns (uint256) {... */\n      swap3\n      swap2\n      pop\n      pop\n      jump\t// out\n        /* \"contracts/Token/Token.sol\":18510:18841  function _mint(address account, uint256 amount) internal virtual {... */\n    tag_208:\n        /* \"contracts/Token/Token.sol\":18606:18607  0 */\n      0x00\n        /* \"contracts/Token/Token.sol\":18587:18608  account != address(0) */\n      0xffffffffffffffffffffffffffffffffffffffff\n      and\n        /* \"contracts/Token/Token.sol\":18587:18594  account */\n      dup3\n        /* \"contracts/Token/Token.sol\":18587:18608  account != address(0) */\n      0xffffffffffffffffffffffffffffffffffffffff\n      and\n      eq\n      iszero\n        /* \"contracts/Token/Token.sol\":18579:18644  require(account != address(0), \"ERC20: mint to the zero address\") */\n      tag_334\n      jumpi\n      mload(0x40)\n      0x08c379a000000000000000000000000000000000000000000000000000000000\n      dup2\n      mstore\n      0x04\n      add\n      dup1\n      dup1\n      0x20\n      add\n      dup3\n      dup2\n      sub\n      dup3\n      mstore\n      0x1f\n      dup2\n      mstore\n      0x20\n      add\n      dup1\n      0x45524332303a206d696e7420746f20746865207a65726f206164647265737300\n      dup2\n      mstore\n      pop\n      0x20\n      add\n      swap2\n      pop\n      pop\n      mload(0x40)\n      dup1\n      swap2\n      sub\n      swap1\n      revert\n    tag_334:\n        /* \"contracts/Token/Token.sol\":18712:18736  _totalSupply.add(amount) */\n      tag_335\n        /* \"contracts/Token/Token.sol\":18729:18735  amount */\n      dup2\n        /* \"contracts/Token/Token.sol\":18712:18724  _totalSupply */\n      sload(0x07)\n        /* \"contracts/Token/Token.sol\":18712:18728  _totalSupply.add */\n      tag_202\n      swap1\n        /* \"contracts/Token/Token.sol\":18712:18736  _totalSupply.add(amount) */\n      swap2\n      swap1\n      0xffffffff\n      and\n      jump\t// in\n    tag_335:\n        /* \"contracts/Token/Token.sol\":18697:18709  _totalSupply */\n      0x07\n        /* \"contracts/Token/Token.sol\":18697:18736  _totalSupply = _totalSupply.add(amount) */\n      dup2\n      swap1\n      sstore\n      pop\n        /* \"contracts/Token/Token.sol\":18761:18791  _balances[account].add(amount) */\n      tag_336\n        /* \"contracts/Token/Token.sol\":18784:18790  amount */\n      dup2\n        /* \"contracts/Token/Token.sol\":18761:18770  _balances */\n      0x05\n        /* \"contracts/Token/Token.sol\":18761:18779  _balances[account] */\n      0x00\n        /* \"contracts/Token/Token.sol\":18771:18778  account */\n      dup6\n        /* \"contracts/Token/Token.sol\":18761:18779  _balances[account] */\n      0xffffffffffffffffffffffffffffffffffffffff\n      and\n      0xffffffffffffffffffffffffffffffffffffffff\n      and\n      dup2\n      mstore\n      0x20\n      add\n      swap1\n      dup2\n      mstore\n      0x20\n      add\n      0x00\n      keccak256\n      sload\n        /* \"contracts/Token/Token.sol\":18761:18783  _balances[account].add */\n      tag_202\n      swap1\n        /* \"contracts/Token/Token.sol\":18761:18791  _balances[account].add(amount) */\n      swap2\n      swap1\n      0xffffffff\n      and\n      jump\t// in\n    tag_336:\n        /* \"contracts/Token/Token.sol\":18740:18749  _balances */\n      0x05\n        /* \"contracts/Token/Token.sol\":18740:18758  _balances[account] */\n      0x00\n        /* \"contracts/Token/Token.sol\":18750:18757  account */\n      dup5\n        /* \"contracts/Token/Token.sol\":18740:18758  _balances[account] */\n      0xffffffffffffffffffffffffffffffffffffffff\n      and\n      0xffffffffffffffffffffffffffffffffffffffff\n      and\n      dup2\n      mstore\n      0x20\n      add\n      swap1\n      dup2\n      mstore\n      0x20\n      add\n      0x00\n      keccak256\n        /* \"contracts/Token/Token.sol\":18740:18791  _balances[account] = _balances[account].add(amount) */\n      dup2\n      swap1\n      sstore\n      pop\n        /* \"contracts/Token/Token.sol\":18821:18828  account */\n      dup2\n        /* \"contracts/Token/Token.sol\":18800:18837  Transfer(address(0), account, amount) */\n      0xffffffffffffffffffffffffffffffffffffffff\n      and\n        /* \"contracts/Token/Token.sol\":18817:18818  0 */\n      0x00\n        /* \"contracts/Token/Token.sol\":18800:18837  Transfer(address(0), account, amount) */\n      0xffffffffffffffffffffffffffffffffffffffff\n      and\n      0xddf252ad1be2c89b69c2b068fc378daa952ba7f163c4a11628f55a4df523b3ef\n        /* \"contracts/Token/Token.sol\":18830:18836  amount */\n      dup4\n        /* \"contracts/Token/Token.sol\":18800:18837  Transfer(address(0), account, amount) */\n      mload(0x40)\n      dup1\n      dup3\n      dup2\n      mstore\n      0x20\n      add\n      swap2\n      pop\n      pop\n      mload(0x40)\n      dup1\n      swap2\n      sub\n      swap1\n      log3\n        /* \"contracts/Token/Token.sol\":18510:18841  function _mint(address account, uint256 amount) internal virtual {... */\n      pop\n      pop\n      jump\t// out\n        /* \"contracts/Token/Token.sol\":18844:19210  function _burn(address account, uint256 amount) internal virtual {... */\n    tag_212:\n        /* \"contracts/Token/Token.sol\":18940:18941  0 */\n      0x00\n        /* \"contracts/Token/Token.sol\":18921:18942  account != address(0) */\n      0xffffffffffffffffffffffffffffffffffffffff\n      and\n        /* \"contracts/Token/Token.sol\":18921:18928  account */\n      dup3\n        /* \"contracts/Token/Token.sol\":18921:18942  account != address(0) */\n      0xffffffffffffffffffffffffffffffffffffffff\n      and\n      eq\n      iszero\n        /* \"contracts/Token/Token.sol\":18913:18980  require(account != address(0), \"ERC20: burn from the zero address\") */\n      tag_338\n      jumpi\n      mload(0x40)\n      0x08c379a000000000000000000000000000000000000000000000000000000000\n      dup2\n      mstore\n      0x04\n      add\n      dup1\n      dup1\n      0x20\n      add\n      dup3\n      dup2\n      sub\n      dup3\n      mstore\n      0x21\n      dup2\n      mstore\n      0x20\n      add\n      dup1\n      data_b16788493b576042bb52c50ed56189e0b250db113c7bfb1c3897d25cf9632d7f\n      0x21\n      swap2\n      codecopy\n      0x40\n      add\n      swap2\n      pop\n      pop\n      mload(0x40)\n      dup1\n      swap2\n      sub\n      swap1\n      revert\n    tag_338:\n        /* \"contracts/Token/Token.sol\":18985:19023  _beforeTokenTransfer(account,  amount) */\n      tag_339\n        /* \"contracts/Token/Token.sol\":19006:19013  account */\n      dup3\n        /* \"contracts/Token/Token.sol\":19016:19022  amount */\n      dup3\n        /* \"contracts/Token/Token.sol\":18985:19005  _beforeTokenTransfer */\n      tag_306\n        /* \"contracts/Token/Token.sol\":18985:19023  _beforeTokenTransfer(account,  amount) */\n      jump\t// in\n    tag_339:\n        /* \"contracts/Token/Token.sol\":19049:19117  _balances[account].sub(amount, \"ERC20: burn amount exceeds balance\") */\n      tag_340\n        /* \"contracts/Token/Token.sol\":19072:19078  amount */\n      dup2\n        /* \"contracts/Token/Token.sol\":19049:19117  _balances[account].sub(amount, \"ERC20: burn amount exceeds balance\") */\n      mload(0x40)\n      dup1\n      0x60\n      add\n      0x40\n      mstore\n      dup1\n      0x22\n      dup2\n      mstore\n      0x20\n      add\n      data_149b126e7125232b4200af45303d04fba8b74653b1a295a6a561a528c33fefdd\n      0x22\n      swap2\n      codecopy\n        /* \"contracts/Token/Token.sol\":19049:19058  _balances */\n      0x05\n        /* \"contracts/Token/Token.sol\":19049:19067  _balances[account] */\n      0x00\n        /* \"contracts/Token/Token.sol\":19059:19066  account */\n      dup7\n        /* \"contracts/Token/Token.sol\":19049:19067  _balances[account] */\n      0xffffffffffffffffffffffffffffffffffffffff\n      and\n      0xffffffffffffffffffffffffffffffffffffffff\n      and\n      dup2\n      mstore\n      0x20\n      add\n      swap1\n      dup2\n      mstore\n      0x20\n      add\n      0x00\n      keccak256\n      sload\n        /* \"contracts/Token/Token.sol\":19049:19071  _balances[account].sub */\n      tag_195\n      swap1\n        /* \"contracts/Token/Token.sol\":19049:19117  _balances[account].sub(amount, \"ERC20: burn amount exceeds balance\") */\n      swap3\n      swap2\n      swap1\n      0xffffffff\n      and\n      jump\t// in\n    tag_340:\n        /* \"contracts/Token/Token.sol\":19028:19037  _balances */\n      0x05\n        /* \"contracts/Token/Token.sol\":19028:19046  _balances[account] */\n      0x00\n        /* \"contracts/Token/Token.sol\":19038:19045  account */\n      dup5\n        /* \"contracts/Token/Token.sol\":19028:19046  _balances[account] */\n      0xffffffffffffffffffffffffffffffffffffffff\n      and\n      0xffffffffffffffffffffffffffffffffffffffff\n      and\n      dup2\n      mstore\n      0x20\n      add\n      swap1\n      dup2\n      mstore\n      0x20\n      add\n      0x00\n      keccak256\n        /* \"contracts/Token/Token.sol\":19028:19117  _balances[account] = _balances[account].sub(amount, \"ERC20: burn amount exceeds balance\") */\n      dup2\n      swap1\n      sstore\n      pop\n        /* \"contracts/Token/Token.sol\":19136:19160  _totalSupply.sub(amount) */\n      tag_341\n        /* \"contracts/Token/Token.sol\":19153:19159  amount */\n      dup2\n        /* \"contracts/Token/Token.sol\":19136:19148  _totalSupply */\n      sload(0x07)\n        /* \"contracts/Token/Token.sol\":19136:19152  _totalSupply.sub */\n      tag_299\n      swap1\n        /* \"contracts/Token/Token.sol\":19136:19160  _totalSupply.sub(amount) */\n      swap2\n      swap1\n      0xffffffff\n      and\n      jump\t// in\n    tag_341:\n        /* \"contracts/Token/Token.sol\":19121:19133  _totalSupply */\n      0x07\n        /* \"contracts/Token/Token.sol\":19121:19160  _totalSupply = _totalSupply.sub(amount) */\n      dup2\n      swap1\n      sstore\n      pop\n        /* \"contracts/Token/Token.sol\":19195:19196  0 */\n      0x00\n        /* \"contracts/Token/Token.sol\":19169:19206  Transfer(account, address(0), amount) */\n      0xffffffffffffffffffffffffffffffffffffffff\n      and\n        /* \"contracts/Token/Token.sol\":19178:19185  account */\n      dup3\n        /* \"contracts/Token/Token.sol\":19169:19206  Transfer(account, address(0), amount) */\n      0xffffffffffffffffffffffffffffffffffffffff\n      and\n      0xddf252ad1be2c89b69c2b068fc378daa952ba7f163c4a11628f55a4df523b3ef\n        /* \"contracts/Token/Token.sol\":19199:19205  amount */\n      dup4\n        /* \"contracts/Token/Token.sol\":19169:19206  Transfer(account, address(0), amount) */\n      mload(0x40)\n      dup1\n      dup3\n      dup2\n      mstore\n      0x20\n      add\n      swap2\n      pop\n      pop\n      mload(0x40)\n      dup1\n      swap2\n      sub\n      swap1\n      log3\n        /* \"contracts/Token/Token.sol\":18844:19210  function _burn(address account, uint256 amount) internal virtual {... */\n      pop\n      pop\n      jump\t// out\n        /* \"contracts/Token/Token.sol\":13618:13741  function _frozen_balanceOf(address _account) internal view returns (uint) {... */\n    tag_219:\n        /* \"contracts/Token/Token.sol\":13686:13690  uint */\n      0x00\n        /* \"contracts/Token/Token.sol\":13709:13724  frozen_balances */\n      dup1\n        /* \"contracts/Token/Token.sol\":13709:13734  frozen_balances[_account] */\n      0x00\n        /* \"contracts/Token/Token.sol\":13725:13733  _account */\n      dup4\n        /* \"contracts/Token/Token.sol\":13709:13734  frozen_balances[_account] */\n      0xffffffffffffffffffffffffffffffffffffffff\n      and\n      0xffffffffffffffffffffffffffffffffffffffff\n      and\n      dup2\n      mstore\n      0x20\n      add\n      swap1\n      dup2\n      mstore\n      0x20\n      add\n      0x00\n      keccak256\n      sload\n        /* \"contracts/Token/Token.sol\":13702:13734  return frozen_balances[_account] */\n      swap1\n      pop\n        /* \"contracts/Token/Token.sol\":13618:13741  function _frozen_balanceOf(address _account) internal view returns (uint) {... */\n      swap2\n      swap1\n      pop\n      jump\t// out\n        /* \"contracts/Token/Token.sol\":19778:20372  function _mintfrozen(address account, uint256 amount) internal {... */\n    tag_260:\n        /* \"contracts/Token/Token.sol\":19878:19879  0 */\n      0x00\n        /* \"contracts/Token/Token.sol\":19859:19880  account != address(0) */\n      0xffffffffffffffffffffffffffffffffffffffff\n      and\n        /* \"contracts/Token/Token.sol\":19859:19866  account */\n      dup3\n        /* \"contracts/Token/Token.sol\":19859:19880  account != address(0) */\n      0xffffffffffffffffffffffffffffffffffffffff\n      and\n      eq\n      iszero\n        /* \"contracts/Token/Token.sol\":19851:19923  require(account != address(0), \"ERC20: mint frozen to the zero address\") */\n      tag_344\n      jumpi\n      mload(0x40)\n      0x08c379a000000000000000000000000000000000000000000000000000000000\n      dup2\n      mstore\n      0x04\n      add\n      dup1\n      dup1\n      0x20\n      add\n      dup3\n      dup2\n      sub\n      dup3\n      mstore\n      0x26\n      dup2\n      mstore\n      0x20\n      add\n      dup1\n      data_1c85aa0d8454e1548e88ea9f2bb8a0c43a1bd6e50657077b5d1b08b8d2a4db7b\n      0x26\n      swap2\n      codecopy\n      0x40\n      add\n      swap2\n      pop\n      pop\n      mload(0x40)\n      dup1\n      swap2\n      sub\n      swap1\n      revert\n    tag_344:\n        /* \"contracts/Token/Token.sol\":19960:19964  this */\n      address\n        /* \"contracts/Token/Token.sol\":19941:19965  account != address(this) */\n      0xffffffffffffffffffffffffffffffffffffffff\n      and\n        /* \"contracts/Token/Token.sol\":19941:19948  account */\n      dup3\n        /* \"contracts/Token/Token.sol\":19941:19965  account != address(this) */\n      0xffffffffffffffffffffffffffffffffffffffff\n      and\n      eq\n      iszero\n        /* \"contracts/Token/Token.sol\":19933:20012  require(account != address(this), \"ERC20: mint frozen to the contract address\") */\n      tag_345\n      jumpi\n      mload(0x40)\n      0x08c379a000000000000000000000000000000000000000000000000000000000\n      dup2\n      mstore\n      0x04\n      add\n      dup1\n      dup1\n      0x20\n      add\n      dup3\n      dup2\n      sub\n      dup3\n      mstore\n      0x2a\n      dup2\n      mstore\n      0x20\n      add\n      dup1\n      data_25a82e711965e24b472dea6cec5774ce13441ffeaf1c79cde67f510141497dff\n      0x2a\n      swap2\n      codecopy\n      0x40\n      add\n      swap2\n      pop\n      pop\n      mload(0x40)\n      dup1\n      swap2\n      sub\n      swap1\n      revert\n    tag_345:\n        /* \"contracts/Token/Token.sol\":20039:20040  0 */\n      0x00\n        /* \"contracts/Token/Token.sol\":20030:20036  amount */\n      dup2\n        /* \"contracts/Token/Token.sol\":20030:20040  amount > 0 */\n      gt\n        /* \"contracts/Token/Token.sol\":20022:20084  require(amount > 0, \"ERC20: mint frozen amount should be > 0\") */\n      tag_346\n      jumpi\n      mload(0x40)\n      0x08c379a000000000000000000000000000000000000000000000000000000000\n      dup2\n      mstore\n      0x04\n      add\n      dup1\n      dup1\n      0x20\n      add\n      dup3\n      dup2\n      sub\n      dup3\n      mstore\n      0x27\n      dup2\n      mstore\n      0x20\n      add\n      dup1\n      data_631213ea213f1c5b9a2a47b03459ea7035848ced11625b3e078a63e304817988\n      0x27\n      swap2\n      codecopy\n      0x40\n      add\n      swap2\n      pop\n      pop\n      mload(0x40)\n      dup1\n      swap2\n      sub\n      swap1\n      revert\n    tag_346:\n        /* \"contracts/Token/Token.sol\":20130:20140  _maxSupply */\n      sload(0x08)\n        /* \"contracts/Token/Token.sol\":20102:20126  _totalSupply.add(amount) */\n      tag_347\n        /* \"contracts/Token/Token.sol\":20119:20125  amount */\n      dup3\n        /* \"contracts/Token/Token.sol\":20102:20114  _totalSupply */\n      sload(0x07)\n        /* \"contracts/Token/Token.sol\":20102:20118  _totalSupply.add */\n      tag_202\n      swap1\n        /* \"contracts/Token/Token.sol\":20102:20126  _totalSupply.add(amount) */\n      swap2\n      swap1\n      0xffffffff\n      and\n      jump\t// in\n    tag_347:\n        /* \"contracts/Token/Token.sol\":20102:20140  _totalSupply.add(amount) <= _maxSupply */\n      gt\n      iszero\n        /* \"contracts/Token/Token.sol\":20094:20177  require(_totalSupply.add(amount) <= _maxSupply, \"ERC20Capped: max supply exceeded\") */\n      tag_348\n      jumpi\n      mload(0x40)\n      0x08c379a000000000000000000000000000000000000000000000000000000000\n      dup2\n      mstore\n      0x04\n      add\n      dup1\n      dup1\n      0x20\n      add\n      dup3\n      dup2\n      sub\n      dup3\n      mstore\n      0x20\n      dup2\n      mstore\n      0x20\n      add\n      dup1\n      0x45524332304361707065643a206d617820737570706c79206578636565646564\n      dup2\n      mstore\n      pop\n      0x20\n      add\n      swap2\n      pop\n      pop\n      mload(0x40)\n      dup1\n      swap2\n      sub\n      swap1\n      revert\n    tag_348:\n        /* \"contracts/Token/Token.sol\":20203:20227  _totalSupply.add(amount) */\n      tag_349\n        /* \"contracts/Token/Token.sol\":20220:20226  amount */\n      dup2\n        /* \"contracts/Token/Token.sol\":20203:20215  _totalSupply */\n      sload(0x07)\n        /* \"contracts/Token/Token.sol\":20203:20219  _totalSupply.add */\n      tag_202\n      swap1\n        /* \"contracts/Token/Token.sol\":20203:20227  _totalSupply.add(amount) */\n      swap2\n      swap1\n      0xffffffff\n      and\n      jump\t// in\n    tag_349:\n        /* \"contracts/Token/Token.sol\":20188:20200  _totalSupply */\n      0x07\n        /* \"contracts/Token/Token.sol\":20188:20227  _totalSupply = _totalSupply.add(amount) */\n      dup2\n      swap1\n      sstore\n      pop\n        /* \"contracts/Token/Token.sol\":20267:20274  account */\n      dup2\n        /* \"contracts/Token/Token.sol\":20243:20283  Transfer(address(this), account, amount) */\n      0xffffffffffffffffffffffffffffffffffffffff\n      and\n        /* \"contracts/Token/Token.sol\":20260:20264  this */\n      address\n        /* \"contracts/Token/Token.sol\":20243:20283  Transfer(address(this), account, amount) */\n      0xffffffffffffffffffffffffffffffffffffffff\n      and\n      0xddf252ad1be2c89b69c2b068fc378daa952ba7f163c4a11628f55a4df523b3ef\n        /* \"contracts/Token/Token.sol\":20276:20282  amount */\n      dup4\n        /* \"contracts/Token/Token.sol\":20243:20283  Transfer(address(this), account, amount) */\n      mload(0x40)\n      dup1\n      dup3\n      dup2\n      mstore\n      0x20\n      add\n      swap2\n      pop\n      pop\n      mload(0x40)\n      dup1\n      swap2\n      sub\n      swap1\n      log3\n        /* \"contracts/Token/Token.sol\":20294:20322  _frozen_add(account, amount) */\n      tag_350\n        /* \"contracts/Token/Token.sol\":20306:20313  account */\n      dup3\n        /* \"contracts/Token/Token.sol\":20315:20321  amount */\n      dup3\n        /* \"contracts/Token/Token.sol\":20294:20305  _frozen_add */\n      tag_274\n        /* \"contracts/Token/Token.sol\":20294:20322  _frozen_add(account, amount) */\n      jump\t// in\n    tag_350:\n      pop\n        /* \"contracts/Token/Token.sol\":20349:20356  account */\n      dup2\n        /* \"contracts/Token/Token.sol\":20338:20365  MintFrozen(account, amount) */\n      0xffffffffffffffffffffffffffffffffffffffff\n      and\n      0xba89ad6709373f454c31524e8c39cef3cdd4b0e8cfde0ccddbd419a2e488be6b\n        /* \"contracts/Token/Token.sol\":20358:20364  amount */\n      dup3\n        /* \"contracts/Token/Token.sol\":20338:20365  MintFrozen(account, amount) */\n      mload(0x40)\n      dup1\n      dup3\n      dup2\n      mstore\n      0x20\n      add\n      swap2\n      pop\n      pop\n      mload(0x40)\n      dup1\n      swap2\n      sub\n      swap1\n      log2\n        /* \"contracts/Token/Token.sol\":19778:20372  function _mintfrozen(address account, uint256 amount) internal {... */\n      pop\n      pop\n      jump\t// out\n        /* \"contracts/Token/Token.sol\":13428:13612  function _frozen_sub(address _account, uint256 _amount) internal returns (bool) {... */\n    tag_272:\n        /* \"contracts/Token/Token.sol\":13502:13506  bool */\n      0x00\n        /* \"contracts/Token/Token.sol\":13546:13584  frozen_balances[_account].sub(_amount) */\n      tag_352\n        /* \"contracts/Token/Token.sol\":13576:13583  _amount */\n      dup3\n        /* \"contracts/Token/Token.sol\":13546:13561  frozen_balances */\n      0x00\n        /* \"contracts/Token/Token.sol\":13546:13571  frozen_balances[_account] */\n      dup1\n        /* \"contracts/Token/Token.sol\":13562:13570  _account */\n      dup7\n        /* \"contracts/Token/Token.sol\":13546:13571  frozen_balances[_account] */\n      0xffffffffffffffffffffffffffffffffffffffff\n      and\n      0xffffffffffffffffffffffffffffffffffffffff\n      and\n      dup2\n      mstore\n      0x20\n      add\n      swap1\n      dup2\n      mstore\n      0x20\n      add\n      0x00\n      keccak256\n      sload\n        /* \"contracts/Token/Token.sol\":13546:13575  frozen_balances[_account].sub */\n      tag_299\n      swap1\n        /* \"contracts/Token/Token.sol\":13546:13584  frozen_balances[_account].sub(_amount) */\n      swap2\n      swap1\n      0xffffffff\n      and\n      jump\t// in\n    tag_352:\n        /* \"contracts/Token/Token.sol\":13518:13533  frozen_balances */\n      0x00\n        /* \"contracts/Token/Token.sol\":13518:13543  frozen_balances[_account] */\n      dup1\n        /* \"contracts/Token/Token.sol\":13534:13542  _account */\n      dup6\n        /* \"contracts/Token/Token.sol\":13518:13543  frozen_balances[_account] */\n      0xffffffffffffffffffffffffffffffffffffffff\n      and\n      0xffffffffffffffffffffffffffffffffffffffff\n      and\n      dup2\n      mstore\n      0x20\n      add\n      swap1\n      dup2\n      mstore\n      0x20\n      add\n      0x00\n      keccak256\n        /* \"contracts/Token/Token.sol\":13518:13584  frozen_balances[_account] = frozen_balances[_account].sub(_amount) */\n      dup2\n      swap1\n      sstore\n      pop\n        /* \"contracts/Token/Token.sol\":13601:13605  true */\n      0x01\n        /* \"contracts/Token/Token.sol\":13594:13605  return true */\n      swap1\n      pop\n        /* \"contracts/Token/Token.sol\":13428:13612  function _frozen_sub(address _account, uint256 _amount) internal returns (bool) {... */\n      swap3\n      swap2\n      pop\n      pop\n      jump\t// out\n        /* \"contracts/Token/Token.sol\":13238:13422  function _frozen_add(address _account, uint256 _amount) internal returns (bool) {... */\n    tag_274:\n        /* \"contracts/Token/Token.sol\":13312:13316  bool */\n      0x00\n        /* \"contracts/Token/Token.sol\":13356:13394  frozen_balances[_account].add(_amount) */\n      tag_354\n        /* \"contracts/Token/Token.sol\":13386:13393  _amount */\n      dup3\n        /* \"contracts/Token/Token.sol\":13356:13371  frozen_balances */\n      0x00\n        /* \"contracts/Token/Token.sol\":13356:13381  frozen_balances[_account] */\n      dup1\n        /* \"contracts/Token/Token.sol\":13372:13380  _account */\n      dup7\n        /* \"contracts/Token/Token.sol\":13356:13381  frozen_balances[_account] */\n      0xffffffffffffffffffffffffffffffffffffffff\n      and\n      0xffffffffffffffffffffffffffffffffffffffff\n      and\n      dup2\n      mstore\n      0x20\n      add\n      swap1\n      dup2\n      mstore\n      0x20\n      add\n      0x00\n      keccak256\n      sload\n        /* \"contracts/Token/Token.sol\":13356:13385  frozen_balances[_account].add */\n      tag_202\n      swap1\n        /* \"contracts/Token/Token.sol\":13356:13394  frozen_balances[_account].add(_amount) */\n      swap2\n      swap1\n      0xffffffff\n      and\n      jump\t// in\n    tag_354:\n        /* \"contracts/Token/Token.sol\":13328:13343  frozen_balances */\n      0x00\n        /* \"contracts/Token/Token.sol\":13328:13353  frozen_balances[_account] */\n      dup1\n        /* \"contracts/Token/Token.sol\":13344:13352  _account */\n      dup6\n        /* \"contracts/Token/Token.sol\":13328:13353  frozen_balances[_account] */\n      0xffffffffffffffffffffffffffffffffffffffff\n      and\n      0xffffffffffffffffffffffffffffffffffffffff\n      and\n      dup2\n      mstore\n      0x20\n      add\n      swap1\n      dup2\n      mstore\n      0x20\n      add\n      0x00\n      keccak256\n        /* \"contracts/Token/Token.sol\":13328:13394  frozen_balances[_account] = frozen_balances[_account].add(_amount) */\n      dup2\n      swap1\n      sstore\n      pop\n        /* \"contracts/Token/Token.sol\":13411:13415  true */\n      0x01\n        /* \"contracts/Token/Token.sol\":13404:13415  return true */\n      swap1\n      pop\n        /* \"contracts/Token/Token.sol\":13238:13422  function _frozen_add(address _account, uint256 _amount) internal returns (bool) {... */\n      swap3\n      swap2\n      pop\n      pop\n      jump\t// out\n        /* \"contracts/Token/Token.sol\":23647:25191  function _transferBuy(uint256 amount) internal virtual {... */\n    tag_284:\n        /* \"contracts/Token/Token.sol\":23707:23724  uint256 taxAmount */\n      0x00\n        /* \"contracts/Token/Token.sol\":23758:23759  0 */\n      dup1\n        /* \"contracts/Token/Token.sol\":23739:23755  transferFeeBuyLP */\n      sload(0x11)\n        /* \"contracts/Token/Token.sol\":23739:23759  transferFeeBuyLP > 0 */\n      gt\n        /* \"contracts/Token/Token.sol\":23739:23796  transferFeeBuyLP > 0 && address(msg.sender) != address(0) */\n      dup1\n      iszero\n      tag_356\n      jumpi\n      pop\n        /* \"contracts/Token/Token.sol\":23794:23795  0 */\n      0x00\n        /* \"contracts/Token/Token.sol\":23763:23796  address(msg.sender) != address(0) */\n      0xffffffffffffffffffffffffffffffffffffffff\n      and\n        /* \"contracts/Token/Token.sol\":23771:23781  msg.sender */\n      caller\n        /* \"contracts/Token/Token.sol\":23763:23796  address(msg.sender) != address(0) */\n      0xffffffffffffffffffffffffffffffffffffffff\n      and\n      eq\n      iszero\n        /* \"contracts/Token/Token.sol\":23739:23796  transferFeeBuyLP > 0 && address(msg.sender) != address(0) */\n    tag_356:\n        /* \"contracts/Token/Token.sol\":23739:23828  transferFeeBuyLP > 0 && address(msg.sender) != address(0) && _liquidityPool != address(0) */\n      dup1\n      iszero\n      tag_357\n      jumpi\n      pop\n        /* \"contracts/Token/Token.sol\":23826:23827  0 */\n      0x00\n        /* \"contracts/Token/Token.sol\":23800:23828  _liquidityPool != address(0) */\n      0xffffffffffffffffffffffffffffffffffffffff\n      and\n        /* \"contracts/Token/Token.sol\":23800:23814  _liquidityPool */\n      0x0e\n      0x00\n      swap1\n      sload\n      swap1\n      0x0100\n      exp\n      swap1\n      div\n      0xffffffffffffffffffffffffffffffffffffffff\n      and\n        /* \"contracts/Token/Token.sol\":23800:23828  _liquidityPool != address(0) */\n      0xffffffffffffffffffffffffffffffffffffffff\n      and\n      eq\n      iszero\n        /* \"contracts/Token/Token.sol\":23739:23828  transferFeeBuyLP > 0 && address(msg.sender) != address(0) && _liquidityPool != address(0) */\n    tag_357:\n        /* \"contracts/Token/Token.sol\":23735:24059  if (transferFeeBuyLP > 0 && address(msg.sender) != address(0) && _liquidityPool != address(0)) {... */\n      iszero\n      tag_358\n      jumpi\n        /* \"contracts/Token/Token.sol\":23835:23855  uint256 _feeamountLP */\n      0x00\n        /* \"contracts/Token/Token.sol\":23858:23895  amount.mul(transferFeeBuyLP).div(100) */\n      tag_359\n        /* \"contracts/Token/Token.sol\":23891:23894  100 */\n      0x64\n        /* \"contracts/Token/Token.sol\":23858:23886  amount.mul(transferFeeBuyLP) */\n      tag_360\n        /* \"contracts/Token/Token.sol\":23869:23885  transferFeeBuyLP */\n      sload(0x11)\n        /* \"contracts/Token/Token.sol\":23858:23864  amount */\n      dup7\n        /* \"contracts/Token/Token.sol\":23858:23868  amount.mul */\n      tag_309\n      swap1\n        /* \"contracts/Token/Token.sol\":23858:23886  amount.mul(transferFeeBuyLP) */\n      swap2\n      swap1\n      0xffffffff\n      and\n      jump\t// in\n    tag_360:\n        /* \"contracts/Token/Token.sol\":23858:23890  amount.mul(transferFeeBuyLP).div */\n      tag_310\n      swap1\n        /* \"contracts/Token/Token.sol\":23858:23895  amount.mul(transferFeeBuyLP).div(100) */\n      swap2\n      swap1\n      0xffffffff\n      and\n      jump\t// in\n    tag_359:\n        /* \"contracts/Token/Token.sol\":23835:23895  uint256 _feeamountLP = amount.mul(transferFeeBuyLP).div(100) */\n      swap1\n      pop\n        /* \"contracts/Token/Token.sol\":23976:24010  _mint(_liquidityPool,_feeamountLP) */\n      tag_361\n        /* \"contracts/Token/Token.sol\":23982:23996  _liquidityPool */\n      0x0e\n      0x00\n      swap1\n      sload\n      swap1\n      0x0100\n      exp\n      swap1\n      div\n      0xffffffffffffffffffffffffffffffffffffffff\n      and\n        /* \"contracts/Token/Token.sol\":23997:24009  _feeamountLP */\n      dup3\n        /* \"contracts/Token/Token.sol\":23976:23981  _mint */\n      tag_208\n        /* \"contracts/Token/Token.sol\":23976:24010  _mint(_liquidityPool,_feeamountLP) */\n      jump\t// in\n    tag_361:\n        /* \"contracts/Token/Token.sol\":24027:24054  taxAmount.add(_feeamountLP) */\n      tag_362\n        /* \"contracts/Token/Token.sol\":24041:24053  _feeamountLP */\n      dup2\n        /* \"contracts/Token/Token.sol\":24027:24036  taxAmount */\n      dup4\n        /* \"contracts/Token/Token.sol\":24027:24040  taxAmount.add */\n      tag_202\n      swap1\n        /* \"contracts/Token/Token.sol\":24027:24054  taxAmount.add(_feeamountLP) */\n      swap2\n      swap1\n      0xffffffff\n      and\n      jump\t// in\n    tag_362:\n        /* \"contracts/Token/Token.sol\":24015:24054  taxAmount = taxAmount.add(_feeamountLP) */\n      swap2\n      pop\n        /* \"contracts/Token/Token.sol\":23735:24059  if (transferFeeBuyLP > 0 && address(msg.sender) != address(0) && _liquidityPool != address(0)) {... */\n      pop\n    tag_358:\n        /* \"contracts/Token/Token.sol\":24087:24088  0 */\n      0x00\n        /* \"contracts/Token/Token.sol\":24067:24084  transferFeeBuyDEV */\n      sload(0x13)\n        /* \"contracts/Token/Token.sol\":24067:24088  transferFeeBuyDEV > 0 */\n      gt\n        /* \"contracts/Token/Token.sol\":24067:24125  transferFeeBuyDEV > 0 && address(msg.sender) != address(0) */\n      dup1\n      iszero\n      tag_363\n      jumpi\n      pop\n        /* \"contracts/Token/Token.sol\":24123:24124  0 */\n      0x00\n        /* \"contracts/Token/Token.sol\":24092:24125  address(msg.sender) != address(0) */\n      0xffffffffffffffffffffffffffffffffffffffff\n      and\n        /* \"contracts/Token/Token.sol\":24100:24110  msg.sender */\n      caller\n        /* \"contracts/Token/Token.sol\":24092:24125  address(msg.sender) != address(0) */\n      0xffffffffffffffffffffffffffffffffffffffff\n      and\n      eq\n      iszero\n        /* \"contracts/Token/Token.sol\":24067:24125  transferFeeBuyDEV > 0 && address(msg.sender) != address(0) */\n    tag_363:\n        /* \"contracts/Token/Token.sol\":24067:24162  transferFeeBuyDEV > 0 && address(msg.sender) != address(0) && _developmentAddress != address(0) */\n      dup1\n      iszero\n      tag_364\n      jumpi\n      pop\n        /* \"contracts/Token/Token.sol\":24160:24161  0 */\n      0x00\n        /* \"contracts/Token/Token.sol\":24129:24162  _developmentAddress != address(0) */\n      0xffffffffffffffffffffffffffffffffffffffff\n      and\n        /* \"contracts/Token/Token.sol\":24129:24148  _developmentAddress */\n      0x0b\n      0x01\n      swap1\n      sload\n      swap1\n      0x0100\n      exp\n      swap1\n      div\n      0xffffffffffffffffffffffffffffffffffffffff\n      and\n        /* \"contracts/Token/Token.sol\":24129:24162  _developmentAddress != address(0) */\n      0xffffffffffffffffffffffffffffffffffffffff\n      and\n      eq\n      iszero\n        /* \"contracts/Token/Token.sol\":24067:24162  transferFeeBuyDEV > 0 && address(msg.sender) != address(0) && _developmentAddress != address(0) */\n    tag_364:\n        /* \"contracts/Token/Token.sol\":24063:24409  if (transferFeeBuyDEV > 0 && address(msg.sender) != address(0) && _developmentAddress != address(0)) {... */\n      iszero\n      tag_365\n      jumpi\n        /* \"contracts/Token/Token.sol\":24169:24190  uint256 _feeamountDEV */\n      0x00\n        /* \"contracts/Token/Token.sol\":24193:24231  amount.mul(transferFeeBuyDEV).div(100) */\n      tag_366\n        /* \"contracts/Token/Token.sol\":24227:24230  100 */\n      0x64\n        /* \"contracts/Token/Token.sol\":24193:24222  amount.mul(transferFeeBuyDEV) */\n      tag_367\n        /* \"contracts/Token/Token.sol\":24204:24221  transferFeeBuyDEV */\n      sload(0x13)\n        /* \"contracts/Token/Token.sol\":24193:24199  amount */\n      dup7\n        /* \"contracts/Token/Token.sol\":24193:24203  amount.mul */\n      tag_309\n      swap1\n        /* \"contracts/Token/Token.sol\":24193:24222  amount.mul(transferFeeBuyDEV) */\n      swap2\n      swap1\n      0xffffffff\n      and\n      jump\t// in\n    tag_367:\n        /* \"contracts/Token/Token.sol\":24193:24226  amount.mul(transferFeeBuyDEV).div */\n      tag_310\n      swap1\n        /* \"contracts/Token/Token.sol\":24193:24231  amount.mul(transferFeeBuyDEV).div(100) */\n      swap2\n      swap1\n      0xffffffff\n      and\n      jump\t// in\n    tag_366:\n        /* \"contracts/Token/Token.sol\":24169:24231  uint256 _feeamountDEV = amount.mul(transferFeeBuyDEV).div(100) */\n      swap1\n      pop\n        /* \"contracts/Token/Token.sol\":24318:24358  _mint(_developmentAddress,_feeamountDEV) */\n      tag_368\n        /* \"contracts/Token/Token.sol\":24324:24343  _developmentAddress */\n      0x0b\n      0x01\n      swap1\n      sload\n      swap1\n      0x0100\n      exp\n      swap1\n      div\n      0xffffffffffffffffffffffffffffffffffffffff\n      and\n        /* \"contracts/Token/Token.sol\":24344:24357  _feeamountDEV */\n      dup3\n        /* \"contracts/Token/Token.sol\":24318:24323  _mint */\n      tag_208\n        /* \"contracts/Token/Token.sol\":24318:24358  _mint(_developmentAddress,_feeamountDEV) */\n      jump\t// in\n    tag_368:\n        /* \"contracts/Token/Token.sol\":24375:24403  taxAmount.add(_feeamountDEV) */\n      tag_369\n        /* \"contracts/Token/Token.sol\":24389:24402  _feeamountDEV */\n      dup2\n        /* \"contracts/Token/Token.sol\":24375:24384  taxAmount */\n      dup4\n        /* \"contracts/Token/Token.sol\":24375:24388  taxAmount.add */\n      tag_202\n      swap1\n        /* \"contracts/Token/Token.sol\":24375:24403  taxAmount.add(_feeamountDEV) */\n      swap2\n      swap1\n      0xffffffff\n      and\n      jump\t// in\n    tag_369:\n        /* \"contracts/Token/Token.sol\":24363:24403  taxAmount = taxAmount.add(_feeamountDEV) */\n      swap2\n      pop\n        /* \"contracts/Token/Token.sol\":24063:24409  if (transferFeeBuyDEV > 0 && address(msg.sender) != address(0) && _developmentAddress != address(0)) {... */\n      pop\n    tag_365:\n        /* \"contracts/Token/Token.sol\":24437:24438  0 */\n      0x00\n        /* \"contracts/Token/Token.sol\":24417:24434  transferFeeBuyMKT */\n      sload(0x12)\n        /* \"contracts/Token/Token.sol\":24417:24438  transferFeeBuyMKT > 0 */\n      gt\n        /* \"contracts/Token/Token.sol\":24417:24475  transferFeeBuyMKT > 0 && address(msg.sender) != address(0) */\n      dup1\n      iszero\n      tag_370\n      jumpi\n      pop\n        /* \"contracts/Token/Token.sol\":24473:24474  0 */\n      0x00\n        /* \"contracts/Token/Token.sol\":24442:24475  address(msg.sender) != address(0) */\n      0xffffffffffffffffffffffffffffffffffffffff\n      and\n        /* \"contracts/Token/Token.sol\":24450:24460  msg.sender */\n      caller\n        /* \"contracts/Token/Token.sol\":24442:24475  address(msg.sender) != address(0) */\n      0xffffffffffffffffffffffffffffffffffffffff\n      and\n      eq\n      iszero\n        /* \"contracts/Token/Token.sol\":24417:24475  transferFeeBuyMKT > 0 && address(msg.sender) != address(0) */\n    tag_370:\n        /* \"contracts/Token/Token.sol\":24417:24510  transferFeeBuyMKT > 0 && address(msg.sender) != address(0) && _marketingAddress != address(0) */\n      dup1\n      iszero\n      tag_371\n      jumpi\n      pop\n        /* \"contracts/Token/Token.sol\":24508:24509  0 */\n      0x00\n        /* \"contracts/Token/Token.sol\":24479:24510  _marketingAddress != address(0) */\n      0xffffffffffffffffffffffffffffffffffffffff\n      and\n        /* \"contracts/Token/Token.sol\":24479:24496  _marketingAddress */\n      0x0c\n      0x00\n      swap1\n      sload\n      swap1\n      0x0100\n      exp\n      swap1\n      div\n      0xffffffffffffffffffffffffffffffffffffffff\n      and\n        /* \"contracts/Token/Token.sol\":24479:24510  _marketingAddress != address(0) */\n      0xffffffffffffffffffffffffffffffffffffffff\n      and\n      eq\n      iszero\n        /* \"contracts/Token/Token.sol\":24417:24510  transferFeeBuyMKT > 0 && address(msg.sender) != address(0) && _marketingAddress != address(0) */\n    tag_371:\n        /* \"contracts/Token/Token.sol\":24413:24752  if (transferFeeBuyMKT > 0 && address(msg.sender) != address(0) && _marketingAddress != address(0)) {... */\n      iszero\n      tag_372\n      jumpi\n        /* \"contracts/Token/Token.sol\":24517:24538  uint256 _feeamountMKT */\n      0x00\n        /* \"contracts/Token/Token.sol\":24541:24579  amount.mul(transferFeeBuyMKT).div(100) */\n      tag_373\n        /* \"contracts/Token/Token.sol\":24575:24578  100 */\n      0x64\n        /* \"contracts/Token/Token.sol\":24541:24570  amount.mul(transferFeeBuyMKT) */\n      tag_374\n        /* \"contracts/Token/Token.sol\":24552:24569  transferFeeBuyMKT */\n      sload(0x12)\n        /* \"contracts/Token/Token.sol\":24541:24547  amount */\n      dup7\n        /* \"contracts/Token/Token.sol\":24541:24551  amount.mul */\n      tag_309\n      swap1\n        /* \"contracts/Token/Token.sol\":24541:24570  amount.mul(transferFeeBuyMKT) */\n      swap2\n      swap1\n      0xffffffff\n      and\n      jump\t// in\n    tag_374:\n        /* \"contracts/Token/Token.sol\":24541:24574  amount.mul(transferFeeBuyMKT).div */\n      tag_310\n      swap1\n        /* \"contracts/Token/Token.sol\":24541:24579  amount.mul(transferFeeBuyMKT).div(100) */\n      swap2\n      swap1\n      0xffffffff\n      and\n      jump\t// in\n    tag_373:\n        /* \"contracts/Token/Token.sol\":24517:24579  uint256 _feeamountMKT = amount.mul(transferFeeBuyMKT).div(100) */\n      swap1\n      pop\n        /* \"contracts/Token/Token.sol\":24664:24702  _mint(_marketingAddress,_feeamountMKT) */\n      tag_375\n        /* \"contracts/Token/Token.sol\":24670:24687  _marketingAddress */\n      0x0c\n      0x00\n      swap1\n      sload\n      swap1\n      0x0100\n      exp\n      swap1\n      div\n      0xffffffffffffffffffffffffffffffffffffffff\n      and\n        /* \"contracts/Token/Token.sol\":24688:24701  _feeamountMKT */\n      dup3\n        /* \"contracts/Token/Token.sol\":24664:24669  _mint */\n      tag_208\n        /* \"contracts/Token/Token.sol\":24664:24702  _mint(_marketingAddress,_feeamountMKT) */\n      jump\t// in\n    tag_375:\n        /* \"contracts/Token/Token.sol\":24719:24747  taxAmount.add(_feeamountMKT) */\n      tag_376\n        /* \"contracts/Token/Token.sol\":24733:24746  _feeamountMKT */\n      dup2\n        /* \"contracts/Token/Token.sol\":24719:24728  taxAmount */\n      dup4\n        /* \"contracts/Token/Token.sol\":24719:24732  taxAmount.add */\n      tag_202\n      swap1\n        /* \"contracts/Token/Token.sol\":24719:24747  taxAmount.add(_feeamountMKT) */\n      swap2\n      swap1\n      0xffffffff\n      and\n      jump\t// in\n    tag_376:\n        /* \"contracts/Token/Token.sol\":24707:24747  taxAmount = taxAmount.add(_feeamountMKT) */\n      swap2\n      pop\n        /* \"contracts/Token/Token.sol\":24413:24752  if (transferFeeBuyMKT > 0 && address(msg.sender) != address(0) && _marketingAddress != address(0)) {... */\n      pop\n    tag_372:\n        /* \"contracts/Token/Token.sol\":24780:24781  0 */\n      0x00\n        /* \"contracts/Token/Token.sol\":24760:24777  transferFeeBuyRWP */\n      sload(0x14)\n        /* \"contracts/Token/Token.sol\":24760:24781  transferFeeBuyRWP > 0 */\n      gt\n        /* \"contracts/Token/Token.sol\":24760:24818  transferFeeBuyRWP > 0 && address(msg.sender) != address(0) */\n      dup1\n      iszero\n      tag_377\n      jumpi\n      pop\n        /* \"contracts/Token/Token.sol\":24816:24817  0 */\n      0x00\n        /* \"contracts/Token/Token.sol\":24785:24818  address(msg.sender) != address(0) */\n      0xffffffffffffffffffffffffffffffffffffffff\n      and\n        /* \"contracts/Token/Token.sol\":24793:24803  msg.sender */\n      caller\n        /* \"contracts/Token/Token.sol\":24785:24818  address(msg.sender) != address(0) */\n      0xffffffffffffffffffffffffffffffffffffffff\n      and\n      eq\n      iszero\n        /* \"contracts/Token/Token.sol\":24760:24818  transferFeeBuyRWP > 0 && address(msg.sender) != address(0) */\n    tag_377:\n        /* \"contracts/Token/Token.sol\":24760:24847  transferFeeBuyRWP > 0 && address(msg.sender) != address(0) && _rewardPool != address(0) */\n      dup1\n      iszero\n      tag_378\n      jumpi\n      pop\n        /* \"contracts/Token/Token.sol\":24845:24846  0 */\n      0x00\n        /* \"contracts/Token/Token.sol\":24822:24847  _rewardPool != address(0) */\n      0xffffffffffffffffffffffffffffffffffffffff\n      and\n        /* \"contracts/Token/Token.sol\":24822:24833  _rewardPool */\n      0x0d\n      0x00\n      swap1\n      sload\n      swap1\n      0x0100\n      exp\n      swap1\n      div\n      0xffffffffffffffffffffffffffffffffffffffff\n      and\n        /* \"contracts/Token/Token.sol\":24822:24847  _rewardPool != address(0) */\n      0xffffffffffffffffffffffffffffffffffffffff\n      and\n      eq\n      iszero\n        /* \"contracts/Token/Token.sol\":24760:24847  transferFeeBuyRWP > 0 && address(msg.sender) != address(0) && _rewardPool != address(0) */\n    tag_378:\n        /* \"contracts/Token/Token.sol\":24756:25077  if (transferFeeBuyRWP > 0 && address(msg.sender) != address(0) && _rewardPool != address(0)) {... */\n      iszero\n      tag_379\n      jumpi\n        /* \"contracts/Token/Token.sol\":24854:24875  uint256 _feeamountRWP */\n      0x00\n        /* \"contracts/Token/Token.sol\":24878:24916  amount.mul(transferFeeBuyRWP).div(100) */\n      tag_380\n        /* \"contracts/Token/Token.sol\":24912:24915  100 */\n      0x64\n        /* \"contracts/Token/Token.sol\":24878:24907  amount.mul(transferFeeBuyRWP) */\n      tag_381\n        /* \"contracts/Token/Token.sol\":24889:24906  transferFeeBuyRWP */\n      sload(0x14)\n        /* \"contracts/Token/Token.sol\":24878:24884  amount */\n      dup7\n        /* \"contracts/Token/Token.sol\":24878:24888  amount.mul */\n      tag_309\n      swap1\n        /* \"contracts/Token/Token.sol\":24878:24907  amount.mul(transferFeeBuyRWP) */\n      swap2\n      swap1\n      0xffffffff\n      and\n      jump\t// in\n    tag_381:\n        /* \"contracts/Token/Token.sol\":24878:24911  amount.mul(transferFeeBuyRWP).div */\n      tag_310\n      swap1\n        /* \"contracts/Token/Token.sol\":24878:24916  amount.mul(transferFeeBuyRWP).div(100) */\n      swap2\n      swap1\n      0xffffffff\n      and\n      jump\t// in\n    tag_380:\n        /* \"contracts/Token/Token.sol\":24854:24916  uint256 _feeamountRWP = amount.mul(transferFeeBuyRWP).div(100) */\n      swap1\n      pop\n        /* \"contracts/Token/Token.sol\":24995:25027  _mint(_rewardPool,_feeamountRWP) */\n      tag_382\n        /* \"contracts/Token/Token.sol\":25001:25012  _rewardPool */\n      0x0d\n      0x00\n      swap1\n      sload\n      swap1\n      0x0100\n      exp\n      swap1\n      div\n      0xffffffffffffffffffffffffffffffffffffffff\n      and\n        /* \"contracts/Token/Token.sol\":25013:25026  _feeamountRWP */\n      dup3\n        /* \"contracts/Token/Token.sol\":24995:25000  _mint */\n      tag_208\n        /* \"contracts/Token/Token.sol\":24995:25027  _mint(_rewardPool,_feeamountRWP) */\n      jump\t// in\n    tag_382:\n        /* \"contracts/Token/Token.sol\":25044:25072  taxAmount.add(_feeamountRWP) */\n      tag_383\n        /* \"contracts/Token/Token.sol\":25058:25071  _feeamountRWP */\n      dup2\n        /* \"contracts/Token/Token.sol\":25044:25053  taxAmount */\n      dup4\n        /* \"contracts/Token/Token.sol\":25044:25057  taxAmount.add */\n      tag_202\n      swap1\n        /* \"contracts/Token/Token.sol\":25044:25072  taxAmount.add(_feeamountRWP) */\n      swap2\n      swap1\n      0xffffffff\n      and\n      jump\t// in\n    tag_383:\n        /* \"contracts/Token/Token.sol\":25032:25072  taxAmount = taxAmount.add(_feeamountRWP) */\n      swap2\n      pop\n        /* \"contracts/Token/Token.sol\":24756:25077  if (transferFeeBuyRWP > 0 && address(msg.sender) != address(0) && _rewardPool != address(0)) {... */\n      pop\n    tag_379:\n        /* \"contracts/Token/Token.sol\":25089:25110  amount.sub(taxAmount) */\n      tag_384\n        /* \"contracts/Token/Token.sol\":25100:25109  taxAmount */\n      dup2\n        /* \"contracts/Token/Token.sol\":25089:25095  amount */\n      dup4\n        /* \"contracts/Token/Token.sol\":25089:25099  amount.sub */\n      tag_299\n      swap1\n        /* \"contracts/Token/Token.sol\":25089:25110  amount.sub(taxAmount) */\n      swap2\n      swap1\n      0xffffffff\n      and\n      jump\t// in\n    tag_384:\n        /* \"contracts/Token/Token.sol\":25080:25110  amount = amount.sub(taxAmount) */\n      swap2\n      pop\n        /* \"contracts/Token/Token.sol\":25163:25187  _mint(msg.sender,amount) */\n      tag_385\n        /* \"contracts/Token/Token.sol\":25169:25179  msg.sender */\n      caller\n        /* \"contracts/Token/Token.sol\":25180:25186  amount */\n      dup4\n        /* \"contracts/Token/Token.sol\":25163:25168  _mint */\n      tag_208\n        /* \"contracts/Token/Token.sol\":25163:25187  _mint(msg.sender,amount) */\n      jump\t// in\n    tag_385:\n        /* \"contracts/Token/Token.sol\":23647:25191  function _transferBuy(uint256 amount) internal virtual {... */\n      pop\n      pop\n      jump\t// out\n        /* \"contracts/Token/Token.sol\":2642:2767  function sub(uint256 a, uint256 b) internal pure returns (uint256) {... */\n    tag_299:\n        /* \"contracts/Token/Token.sol\":2700:2707  uint256 */\n      0x00\n        /* \"contracts/Token/Token.sol\":2720:2763  sub(a, b, \"SafeMath: subtraction overflow\") */\n      tag_387\n        /* \"contracts/Token/Token.sol\":2724:2725  a */\n      dup4\n        /* \"contracts/Token/Token.sol\":2727:2728  b */\n      dup4\n        /* \"contracts/Token/Token.sol\":2720:2763  sub(a, b, \"SafeMath: subtraction overflow\") */\n      mload(0x40)\n      dup1\n      0x40\n      add\n      0x40\n      mstore\n      dup1\n      0x1e\n      dup2\n      mstore\n      0x20\n      add\n      0x536166654d6174683a207375627472616374696f6e206f766572666c6f770000\n      dup2\n      mstore\n      pop\n        /* \"contracts/Token/Token.sol\":2720:2723  sub */\n      tag_195\n        /* \"contracts/Token/Token.sol\":2720:2763  sub(a, b, \"SafeMath: subtraction overflow\") */\n      jump\t// in\n    tag_387:\n        /* \"contracts/Token/Token.sol\":2713:2763  return sub(a, b, \"SafeMath: subtraction overflow\") */\n      swap1\n      pop\n        /* \"contracts/Token/Token.sol\":2642:2767  function sub(uint256 a, uint256 b) internal pure returns (uint256) {... */\n      swap3\n      swap2\n      pop\n      pop\n      jump\t// out\n        /* \"contracts/Token/Token.sol\":22447:22735  function _beforeTokenTransfer(address from,  uint256 amount) internal virtual override {... */\n    tag_306:\n        /* \"contracts/Token/Token.sol\":22538:22579  super._beforeTokenTransfer(from,  amount) */\n      tag_389\n        /* \"contracts/Token/Token.sol\":22565:22569  from */\n      dup3\n        /* \"contracts/Token/Token.sol\":22572:22578  amount */\n      dup3\n        /* \"contracts/Token/Token.sol\":22538:22564  super._beforeTokenTransfer */\n      tag_390\n        /* \"contracts/Token/Token.sol\":22538:22579  super._beforeTokenTransfer(from,  amount) */\n      jump\t// in\n    tag_389:\n        /* \"contracts/Token/Token.sol\":22609:22610  0 */\n      0x00\n        /* \"contracts/Token/Token.sol\":22593:22611  from == address(0) */\n      0xffffffffffffffffffffffffffffffffffffffff\n      and\n        /* \"contracts/Token/Token.sol\":22593:22597  from */\n      dup3\n        /* \"contracts/Token/Token.sol\":22593:22611  from == address(0) */\n      0xffffffffffffffffffffffffffffffffffffffff\n      and\n      eq\n        /* \"contracts/Token/Token.sol\":22589:22731  if (from == address(0)) { // When minting tokens... */\n      iszero\n      tag_391\n      jumpi\n        /* \"contracts/Token/Token.sol\":22678:22689  maxSupply() */\n      tag_392\n        /* \"contracts/Token/Token.sol\":22678:22687  maxSupply */\n      tag_142\n        /* \"contracts/Token/Token.sol\":22678:22689  maxSupply() */\n      jump\t// in\n    tag_392:\n        /* \"contracts/Token/Token.sol\":22649:22674  totalSupply().add(amount) */\n      tag_393\n        /* \"contracts/Token/Token.sol\":22667:22673  amount */\n      dup3\n        /* \"contracts/Token/Token.sol\":22649:22662  totalSupply() */\n      tag_394\n        /* \"contracts/Token/Token.sol\":22649:22660  totalSupply */\n      tag_67\n        /* \"contracts/Token/Token.sol\":22649:22662  totalSupply() */\n      jump\t// in\n    tag_394:\n        /* \"contracts/Token/Token.sol\":22649:22666  totalSupply().add */\n      tag_202\n      swap1\n        /* \"contracts/Token/Token.sol\":22649:22674  totalSupply().add(amount) */\n      swap2\n      swap1\n      0xffffffff\n      and\n      jump\t// in\n    tag_393:\n        /* \"contracts/Token/Token.sol\":22649:22689  totalSupply().add(amount) <= maxSupply() */\n      gt\n      iszero\n        /* \"contracts/Token/Token.sol\":22641:22726  require(totalSupply().add(amount) <= maxSupply(), \"ERC20Capped: max supply exceeded\") */\n      tag_395\n      jumpi\n      mload(0x40)\n      0x08c379a000000000000000000000000000000000000000000000000000000000\n      dup2\n      mstore\n      0x04\n      add\n      dup1\n      dup1\n      0x20\n      add\n      dup3\n      dup2\n      sub\n      dup3\n      mstore\n      0x20\n      dup2\n      mstore\n      0x20\n      add\n      dup1\n      0x45524332304361707065643a206d617820737570706c79206578636565646564\n      dup2\n      mstore\n      pop\n      0x20\n      add\n      swap2\n      pop\n      pop\n      mload(0x40)\n      dup1\n      swap2\n      sub\n      swap1\n      revert\n    tag_395:\n        /* \"contracts/Token/Token.sol\":22589:22731  if (from == address(0)) { // When minting tokens... */\n    tag_391:\n        /* \"contracts/Token/Token.sol\":22447:22735  function _beforeTokenTransfer(address from,  uint256 amount) internal virtual override {... */\n      pop\n      pop\n      jump\t// out\n        /* \"contracts/Token/Token.sol\":3404:3803  function mul(uint256 a, uint256 b) internal pure returns (uint256) {... */\n    tag_309:\n        /* \"contracts/Token/Token.sol\":3462:3469  uint256 */\n      0x00\n        /* \"contracts/Token/Token.sol\":3684:3685  0 */\n      dup1\n        /* \"contracts/Token/Token.sol\":3679:3680  a */\n      dup4\n        /* \"contracts/Token/Token.sol\":3679:3685  a == 0 */\n      eq\n        /* \"contracts/Token/Token.sol\":3675:3705  if (a == 0) {... */\n      iszero\n      tag_397\n      jumpi\n        /* \"contracts/Token/Token.sol\":3699:3700  0 */\n      0x00\n        /* \"contracts/Token/Token.sol\":3692:3700  return 0 */\n      swap1\n      pop\n      jump(tag_396)\n        /* \"contracts/Token/Token.sol\":3675:3705  if (a == 0) {... */\n    tag_397:\n        /* \"contracts/Token/Token.sol\":3709:3718  uint256 c */\n      0x00\n        /* \"contracts/Token/Token.sol\":3725:3726  b */\n      dup3\n        /* \"contracts/Token/Token.sol\":3721:3722  a */\n      dup5\n        /* \"contracts/Token/Token.sol\":3721:3726  a * b */\n      mul\n        /* \"contracts/Token/Token.sol\":3709:3726  uint256 c = a * b */\n      swap1\n      pop\n        /* \"contracts/Token/Token.sol\":3747:3748  b */\n      dup3\n        /* \"contracts/Token/Token.sol\":3742:3743  a */\n      dup5\n        /* \"contracts/Token/Token.sol\":3738:3739  c */\n      dup3\n        /* \"contracts/Token/Token.sol\":3738:3743  c / a */\n      dup2\n      tag_398\n      jumpi\n      invalid\n    tag_398:\n      div\n        /* \"contracts/Token/Token.sol\":3738:3748  c / a == b */\n      eq\n        /* \"contracts/Token/Token.sol\":3730:3786  require(c / a == b, \"SafeMath: multiplication overflow\") */\n      tag_399\n      jumpi\n      mload(0x40)\n      0x08c379a000000000000000000000000000000000000000000000000000000000\n      dup2\n      mstore\n      0x04\n      add\n      dup1\n      dup1\n      0x20\n      add\n      dup3\n      dup2\n      sub\n      dup3\n      mstore\n      0x21\n      dup2\n      mstore\n      0x20\n      add\n      dup1\n      data_9113bb53c2876a3805b2c9242029423fc540a728243ce887ab24c82cf119fba3\n      0x21\n      swap2\n      codecopy\n      0x40\n      add\n      swap2\n      pop\n      pop\n      mload(0x40)\n      dup1\n      swap2\n      sub\n      swap1\n      revert\n    tag_399:\n        /* \"contracts/Token/Token.sol\":3798:3799  c */\n      dup1\n        /* \"contracts/Token/Token.sol\":3791:3799  return c */\n      swap2\n      pop\n      pop\n        /* \"contracts/Token/Token.sol\":3404:3803  function mul(uint256 a, uint256 b) internal pure returns (uint256) {... */\n    tag_396:\n      swap3\n      swap2\n      pop\n      pop\n      jump\t// out\n        /* \"contracts/Token/Token.sol\":4226:4347  function div(uint256 a, uint256 b) internal pure returns (uint256) {... */\n    tag_310:\n        /* \"contracts/Token/Token.sol\":4284:4291  uint256 */\n      0x00\n        /* \"contracts/Token/Token.sol\":4304:4343  div(a, b, \"SafeMath: division by zero\") */\n      tag_401\n        /* \"contracts/Token/Token.sol\":4308:4309  a */\n      dup4\n        /* \"contracts/Token/Token.sol\":4311:4312  b */\n      dup4\n        /* \"contracts/Token/Token.sol\":4304:4343  div(a, b, \"SafeMath: division by zero\") */\n      mload(0x40)\n      dup1\n      0x40\n      add\n      0x40\n      mstore\n      dup1\n      0x1a\n      dup2\n      mstore\n      0x20\n      add\n      0x536166654d6174683a206469766973696f6e206279207a65726f000000000000\n      dup2\n      mstore\n      pop\n        /* \"contracts/Token/Token.sol\":4304:4307  div */\n      tag_402\n        /* \"contracts/Token/Token.sol\":4304:4343  div(a, b, \"SafeMath: division by zero\") */\n      jump\t// in\n    tag_401:\n        /* \"contracts/Token/Token.sol\":4297:4343  return div(a, b, \"SafeMath: division by zero\") */\n      swap1\n      pop\n        /* \"contracts/Token/Token.sol\":4226:4347  function div(uint256 a, uint256 b) internal pure returns (uint256) {... */\n      swap3\n      swap2\n      pop\n      pop\n      jump\t// out\n        /* \"contracts/Token/Token.sol\":18029:18507  function _transfer(address sender, address recipient, uint256 amount) internal virtual {... */\n    tag_312:\n        /* \"contracts/Token/Token.sol\":18146:18147  0 */\n      0x00\n        /* \"contracts/Token/Token.sol\":18128:18148  sender != address(0) */\n      0xffffffffffffffffffffffffffffffffffffffff\n      and\n        /* \"contracts/Token/Token.sol\":18128:18134  sender */\n      dup4\n        /* \"contracts/Token/Token.sol\":18128:18148  sender != address(0) */\n      0xffffffffffffffffffffffffffffffffffffffff\n      and\n      eq\n      iszero\n        /* \"contracts/Token/Token.sol\":18120:18190  require(sender != address(0), \"ERC20: transfer from the zero address\") */\n      tag_404\n      jumpi\n      mload(0x40)\n      0x08c379a000000000000000000000000000000000000000000000000000000000\n      dup2\n      mstore\n      0x04\n      add\n      dup1\n      dup1\n      0x20\n      add\n      dup3\n      dup2\n      sub\n      dup3\n      mstore\n      0x25\n      dup2\n      mstore\n      0x20\n      add\n      dup1\n      data_baecc556b46f4ed0f2b4cb599d60785ac8563dd2dc0a5bf12edea1c39e5e1fea\n      0x25\n      swap2\n      codecopy\n      0x40\n      add\n      swap2\n      pop\n      pop\n      mload(0x40)\n      dup1\n      swap2\n      sub\n      swap1\n      revert\n    tag_404:\n        /* \"contracts/Token/Token.sol\":18223:18224  0 */\n      0x00\n        /* \"contracts/Token/Token.sol\":18202:18225  recipient != address(0) */\n      0xffffffffffffffffffffffffffffffffffffffff\n      and\n        /* \"contracts/Token/Token.sol\":18202:18211  recipient */\n      dup3\n        /* \"contracts/Token/Token.sol\":18202:18225  recipient != address(0) */\n      0xffffffffffffffffffffffffffffffffffffffff\n      and\n      eq\n      iszero\n        /* \"contracts/Token/Token.sol\":18194:18265  require(recipient != address(0), \"ERC20: transfer to the zero address\") */\n      tag_405\n      jumpi\n      mload(0x40)\n      0x08c379a000000000000000000000000000000000000000000000000000000000\n      dup2\n      mstore\n      0x04\n      add\n      dup1\n      dup1\n      0x20\n      add\n      dup3\n      dup2\n      sub\n      dup3\n      mstore\n      0x23\n      dup2\n      mstore\n      0x20\n      add\n      dup1\n      data_0557e210f7a69a685100a7e4e3d0a7024c546085cee28910fd17d0b081d9516f\n      0x23\n      swap2\n      codecopy\n      0x40\n      add\n      swap2\n      pop\n      pop\n      mload(0x40)\n      dup1\n      swap2\n      sub\n      swap1\n      revert\n    tag_405:\n        /* \"contracts/Token/Token.sol\":18269:18305  _beforeTokenTransfer(sender, amount) */\n      tag_406\n        /* \"contracts/Token/Token.sol\":18290:18296  sender */\n      dup4\n        /* \"contracts/Token/Token.sol\":18298:18304  amount */\n      dup3\n        /* \"contracts/Token/Token.sol\":18269:18289  _beforeTokenTransfer */\n      tag_306\n        /* \"contracts/Token/Token.sol\":18269:18305  _beforeTokenTransfer(sender, amount) */\n      jump\t// in\n    tag_406:\n        /* \"contracts/Token/Token.sol\":18329:18400  _balances[sender].sub(amount, \"ERC20: transfer amount exceeds balance\") */\n      tag_407\n        /* \"contracts/Token/Token.sol\":18351:18357  amount */\n      dup2\n        /* \"contracts/Token/Token.sol\":18329:18400  _balances[sender].sub(amount, \"ERC20: transfer amount exceeds balance\") */\n      mload(0x40)\n      dup1\n      0x60\n      add\n      0x40\n      mstore\n      dup1\n      0x26\n      dup2\n      mstore\n      0x20\n      add\n      data_4107e8a8b9e94bf8ff83080ddec1c0bffe897ebc2241b89d44f66b3d274088b6\n      0x26\n      swap2\n      codecopy\n        /* \"contracts/Token/Token.sol\":18329:18338  _balances */\n      0x05\n        /* \"contracts/Token/Token.sol\":18329:18346  _balances[sender] */\n      0x00\n        /* \"contracts/Token/Token.sol\":18339:18345  sender */\n      dup8\n        /* \"contracts/Token/Token.sol\":18329:18346  _balances[sender] */\n      0xffffffffffffffffffffffffffffffffffffffff\n      and\n      0xffffffffffffffffffffffffffffffffffffffff\n      and\n      dup2\n      mstore\n      0x20\n      add\n      swap1\n      dup2\n      mstore\n      0x20\n      add\n      0x00\n      keccak256\n      sload\n        /* \"contracts/Token/Token.sol\":18329:18350  _balances[sender].sub */\n      tag_195\n      swap1\n        /* \"contracts/Token/Token.sol\":18329:18400  _balances[sender].sub(amount, \"ERC20: transfer amount exceeds balance\") */\n      swap3\n      swap2\n      swap1\n      0xffffffff\n      and\n      jump\t// in\n    tag_407:\n        /* \"contracts/Token/Token.sol\":18309:18318  _balances */\n      0x05\n        /* \"contracts/Token/Token.sol\":18309:18326  _balances[sender] */\n      0x00\n        /* \"contracts/Token/Token.sol\":18319:18325  sender */\n      dup6\n        /* \"contracts/Token/Token.sol\":18309:18326  _balances[sender] */\n      0xffffffffffffffffffffffffffffffffffffffff\n      and\n      0xffffffffffffffffffffffffffffffffffffffff\n      and\n      dup2\n      mstore\n      0x20\n      add\n      swap1\n      dup2\n      mstore\n      0x20\n      add\n      0x00\n      keccak256\n        /* \"contracts/Token/Token.sol\":18309:18400  _balances[sender] = _balances[sender].sub(amount, \"ERC20: transfer amount exceeds balance\") */\n      dup2\n      swap1\n      sstore\n      pop\n        /* \"contracts/Token/Token.sol\":18427:18459  _balances[recipient].add(amount) */\n      tag_408\n        /* \"contracts/Token/Token.sol\":18452:18458  amount */\n      dup2\n        /* \"contracts/Token/Token.sol\":18427:18436  _balances */\n      0x05\n        /* \"contracts/Token/Token.sol\":18427:18447  _balances[recipient] */\n      0x00\n        /* \"contracts/Token/Token.sol\":18437:18446  recipient */\n      dup6\n        /* \"contracts/Token/Token.sol\":18427:18447  _balances[recipient] */\n      0xffffffffffffffffffffffffffffffffffffffff\n      and\n      0xffffffffffffffffffffffffffffffffffffffff\n      and\n      dup2\n      mstore\n      0x20\n      add\n      swap1\n      dup2\n      mstore\n      0x20\n      add\n      0x00\n      keccak256\n      sload\n        /* \"contracts/Token/Token.sol\":18427:18451  _balances[recipient].add */\n      tag_202\n      swap1\n        /* \"contracts/Token/Token.sol\":18427:18459  _balances[recipient].add(amount) */\n      swap2\n      swap1\n      0xffffffff\n      and\n      jump\t// in\n    tag_408:\n        /* \"contracts/Token/Token.sol\":18404:18413  _balances */\n      0x05\n        /* \"contracts/Token/Token.sol\":18404:18424  _balances[recipient] */\n      0x00\n        /* \"contracts/Token/Token.sol\":18414:18423  recipient */\n      dup5\n        /* \"contracts/Token/Token.sol\":18404:18424  _balances[recipient] */\n      0xffffffffffffffffffffffffffffffffffffffff\n      and\n      0xffffffffffffffffffffffffffffffffffffffff\n      and\n      dup2\n      mstore\n      0x20\n      add\n      swap1\n      dup2\n      mstore\n      0x20\n      add\n      0x00\n      keccak256\n        /* \"contracts/Token/Token.sol\":18404:18459  _balances[recipient] = _balances[recipient].add(amount) */\n      dup2\n      swap1\n      sstore\n      pop\n        /* \"contracts/Token/Token.sol\":18485:18494  recipient */\n      dup2\n        /* \"contracts/Token/Token.sol\":18468:18503  Transfer(sender, recipient, amount) */\n      0xffffffffffffffffffffffffffffffffffffffff\n      and\n        /* \"contracts/Token/Token.sol\":18477:18483  sender */\n      dup4\n        /* \"contracts/Token/Token.sol\":18468:18503  Transfer(sender, recipient, amount) */\n      0xffffffffffffffffffffffffffffffffffffffff\n      and\n      0xddf252ad1be2c89b69c2b068fc378daa952ba7f163c4a11628f55a4df523b3ef\n        /* \"contracts/Token/Token.sol\":18496:18502  amount */\n      dup4\n        /* \"contracts/Token/Token.sol\":18468:18503  Transfer(sender, recipient, amount) */\n      mload(0x40)\n      dup1\n      dup3\n      dup2\n      mstore\n      0x20\n      add\n      swap2\n      pop\n      pop\n      mload(0x40)\n      dup1\n      swap2\n      sub\n      swap1\n      log3\n        /* \"contracts/Token/Token.sol\":18029:18507  function _transfer(address sender, address recipient, uint256 amount) internal virtual {... */\n      pop\n      pop\n      pop\n      jump\t// out\n        /* \"contracts/Token/Token.sol\":19611:19772  function _beforeTokenTransfer(address from, uint256 amount) internal virtual {... */\n    tag_390:\n        /* \"contracts/Token/Token.sol\":19719:19725  amount */\n      dup1\n        /* \"contracts/Token/Token.sol\":19700:19709  _balances */\n      0x05\n        /* \"contracts/Token/Token.sol\":19700:19715  _balances[from] */\n      0x00\n        /* \"contracts/Token/Token.sol\":19710:19714  from */\n      dup5\n        /* \"contracts/Token/Token.sol\":19700:19715  _balances[from] */\n      0xffffffffffffffffffffffffffffffffffffffff\n      and\n      0xffffffffffffffffffffffffffffffffffffffff\n      and\n      dup2\n      mstore\n      0x20\n      add\n      swap1\n      dup2\n      mstore\n      0x20\n      add\n      0x00\n      keccak256\n      sload\n        /* \"contracts/Token/Token.sol\":19700:19725  _balances[from] >= amount */\n      lt\n      iszero\n        /* \"contracts/Token/Token.sol\":19692:19768  require(_balances[from] >= amount, \"ERC20: transfer amount exceeds balance\") */\n      tag_410\n      jumpi\n      mload(0x40)\n      0x08c379a000000000000000000000000000000000000000000000000000000000\n      dup2\n      mstore\n      0x04\n      add\n      dup1\n      dup1\n      0x20\n      add\n      dup3\n      dup2\n      sub\n      dup3\n      mstore\n      0x26\n      dup2\n      mstore\n      0x20\n      add\n      dup1\n      data_4107e8a8b9e94bf8ff83080ddec1c0bffe897ebc2241b89d44f66b3d274088b6\n      0x26\n      swap2\n      codecopy\n      0x40\n      add\n      swap2\n      pop\n      pop\n      mload(0x40)\n      dup1\n      swap2\n      sub\n      swap1\n      revert\n    tag_410:\n        /* \"contracts/Token/Token.sol\":19611:19772  function _beforeTokenTransfer(address from, uint256 amount) internal virtual {... */\n      pop\n      pop\n      jump\t// out\n        /* \"contracts/Token/Token.sol\":4790:5035  function div(uint256 a, uint256 b, string memory errorMessage) internal pure returns (uint256) {... */\n    tag_402:\n        /* \"contracts/Token/Token.sol\":4876:4883  uint256 */\n      0x00\n        /* \"contracts/Token/Token.sol\":4901:4902  0 */\n      dup1\n        /* \"contracts/Token/Token.sol\":4897:4898  b */\n      dup4\n        /* \"contracts/Token/Token.sol\":4897:4902  b > 0 */\n      gt\n        /* \"contracts/Token/Token.sol\":4904:4916  errorMessage */\n      dup3\n        /* \"contracts/Token/Token.sol\":4889:4917  require(b > 0, errorMessage) */\n      swap1\n      tag_412\n      jumpi\n      mload(0x40)\n      0x08c379a000000000000000000000000000000000000000000000000000000000\n      dup2\n      mstore\n      0x04\n      add\n      dup1\n      dup1\n      0x20\n      add\n      dup3\n      dup2\n      sub\n      dup3\n      mstore\n      dup4\n      dup2\n      dup2\n      mload\n      dup2\n      mstore\n      0x20\n      add\n      swap2\n      pop\n      dup1\n      mload\n      swap1\n      0x20\n      add\n      swap1\n      dup1\n      dup4\n      dup4\n      0x00\n    tag_413:\n      dup4\n      dup2\n      lt\n      iszero\n      tag_415\n      jumpi\n      dup1\n      dup3\n      add\n      mload\n      dup2\n      dup5\n      add\n      mstore\n      0x20\n      dup2\n      add\n      swap1\n      pop\n      jump(tag_413)\n    tag_415:\n      pop\n      pop\n      pop\n      pop\n      swap1\n      pop\n      swap1\n      dup2\n      add\n      swap1\n      0x1f\n      and\n      dup1\n      iszero\n      tag_416\n      jumpi\n      dup1\n      dup3\n      sub\n      dup1\n      mload\n      0x01\n      dup4\n      0x20\n      sub\n      0x0100\n      exp\n      sub\n      not\n      and\n      dup2\n      mstore\n      0x20\n      add\n      swap2\n      pop\n    tag_416:\n      pop\n      swap3\n      pop\n      pop\n      pop\n      mload(0x40)\n      dup1\n      swap2\n      sub\n      swap1\n      revert\n    tag_412:\n      pop\n        /* \"contracts/Token/Token.sol\":4921:4930  uint256 c */\n      0x00\n        /* \"contracts/Token/Token.sol\":4937:4938  b */\n      dup4\n        /* \"contracts/Token/Token.sol\":4933:4934  a */\n      dup6\n        /* \"contracts/Token/Token.sol\":4933:4938  a / b */\n      dup2\n      tag_417\n      jumpi\n      invalid\n    tag_417:\n      div\n        /* \"contracts/Token/Token.sol\":4921:4938  uint256 c = a / b */\n      swap1\n      pop\n        /* \"contracts/Token/Token.sol\":5030:5031  c */\n      dup1\n        /* \"contracts/Token/Token.sol\":5023:5031  return c */\n      swap2\n      pop\n      pop\n        /* \"contracts/Token/Token.sol\":4790:5035  function div(uint256 a, uint256 b, string memory errorMessage) internal pure returns (uint256) {... */\n      swap4\n      swap3\n      pop\n      pop\n      pop\n      jump\t// out\n    stop\n    data_0557e210f7a69a685100a7e4e3d0a7024c546085cee28910fd17d0b081d9516f 45524332303a207472616e7366657220746f20746865207a65726f2061646472657373\n    data_083eca151a4ced7bf5544a897b9e8b3e2620a9b6dc6feb44e1e78751a86936c5 45524332303a206d656c742066726f6d2074686520616464726573733a2062616c616e6365203c20616d6f756e74\n    data_149b126e7125232b4200af45303d04fba8b74653b1a295a6a561a528c33fefdd 45524332303a206275726e20616d6f756e7420657863656564732062616c616e6365\n    data_1c85aa0d8454e1548e88ea9f2bb8a0c43a1bd6e50657077b5d1b08b8d2a4db7b 45524332303a206d696e742066726f7a656e20746f20746865207a65726f2061646472657373\n    data_245f15ff17f551913a7a18385165551503906a406f905ac1c2437281a7cd0cfe 4f776e61626c653a206e6577206f776e657220697320746865207a65726f2061646472657373\n    data_24883cc5fe64ace9d0df1893501ecb93c77180f0ff69cca79affb3c316dc8029 45524332303a20617070726f766520746f20746865207a65726f2061646472657373\n    data_25a82e711965e24b472dea6cec5774ce13441ffeaf1c79cde67f510141497dff 45524332303a206d696e742066726f7a656e20746f2074686520636f6e74726163742061646472657373\n    data_4107e8a8b9e94bf8ff83080ddec1c0bffe897ebc2241b89d44f66b3d274088b6 45524332303a207472616e7366657220616d6f756e7420657863656564732062616c616e6365\n    data_5b7675e6fbaaaa420cafac78b556823238257a970a02bf57ab4957860eac80bc 45524332303a206d656c742066726f6d2074686520616464726573733a2076616c75652073686f756c64206265203e2030\n    data_631213ea213f1c5b9a2a47b03459ea7035848ced11625b3e078a63e304817988 45524332303a206d696e742066726f7a656e20616d6f756e742073686f756c64206265203e2030\n    data_9113bb53c2876a3805b2c9242029423fc540a728243ce887ab24c82cf119fba3 536166654d6174683a206d756c7469706c69636174696f6e206f766572666c6f77\n    data_974d1b4421da69cc60b481194f0dad36a5bb4e23da810da7a7fb30cdba178330 45524332303a207472616e7366657220616d6f756e74206578636565647320616c6c6f77616e6365\n    data_a287c363786607a1457a2d9d12fa61c0073358e02d76b4035fc2c2d86a19c0db 45524332303a206275726e20616d6f756e74206578636565647320616c6c6f77616e6365\n    data_ae19d5a04ea56a14e1c0edb4dc7bdb92df00299e61ae2aaa6c13d35ea071495b 45524332303a206d656c742066726f6d20746865207a65726f2061646472657373\n    data_b16788493b576042bb52c50ed56189e0b250db113c7bfb1c3897d25cf9632d7f 45524332303a206275726e2066726f6d20746865207a65726f2061646472657373\n    data_b7b21078a467b814181da2d09cb3afdeca16ec86fc8c1496bf091b24158c0663 45524332303a2066726f7a656e206275726e2066726f6d20746865207a65726f2061646472657373\n    data_baecc556b46f4ed0f2b4cb599d60785ac8563dd2dc0a5bf12edea1c39e5e1fea 45524332303a207472616e736665722066726f6d20746865207a65726f2061646472657373\n    data_c953f4879035ed60e766b34720f656aab5c697b141d924c283124ecedb91c208 45524332303a20617070726f76652066726f6d20746865207a65726f2061646472657373\n    data_dcdad2652796fc64e805bbf7adf0bc0a565a5d4a577f7ae44ee7ec82e235ba99 63616c6c6572206e6f7420612070656e64696e67206d656c7465722061646d696e\n    data_f8b476f7d28209d77d4a4ac1fe36b9f8259aa1bb6bddfa6e89de7e51615cf8a8 45524332303a2064656372656173656420616c6c6f77616e63652062656c6f77207a65726f\n\n    auxdata: 0xa264697066735822122050aa164b020df17c4c39cbfc5c9728715f7b99e5f18003a54abd80b2eb6fb7ae64736f6c634300060c0033\n}\n",
				"bytecode": {
					"linkReferences": {},
					"object": "608060405273ab8483f64d9c6d1ecf9b849ae677dd3315835cb2600b60016101000a81548173ffffffffffffffffffffffffffffffffffffffff021916908373ffffffffffffffffffffffffffffffffffffffff160217905550734b20993bc481177ec7e8f571cecae8a9e22c02db600c60006101000a81548173ffffffffffffffffffffffffffffffffffffffff021916908373ffffffffffffffffffffffffffffffffffffffff1602179055507378731d3ca6b7e34ac0f824c42a7cc18a495cabab600d60006101000a81548173ffffffffffffffffffffffffffffffffffffffff021916908373ffffffffffffffffffffffffffffffffffffffff16021790555073617f2e2fd72fd9d5503197092ac168c91465e7f2600e60006101000a81548173ffffffffffffffffffffffffffffffffffffffff021916908373ffffffffffffffffffffffffffffffffffffffff1602179055503480156200016557600080fd5b506040518060400160405280600a81526020017f576f726c642053746570000000000000000000000000000000000000000000008152506040518060400160405280600381526020017f5753500000000000000000000000000000000000000000000000000000000000815250678ac7230489e8000066038d7ea4c680006000620001f5620005ba60201b60201c565b905080600160006101000a81548173ffffffffffffffffffffffffffffffffffffffff021916908373ffffffffffffffffffffffffffffffffffffffff1602179055508073ffffffffffffffffffffffffffffffffffffffff16600073ffffffffffffffffffffffffffffffffffffffff167f8be0079c531659141344cd1fd0a4f28419497f9722a3daafe3b4186f6b6457e060405160405180910390a35033600360006101000a81548173ffffffffffffffffffffffffffffffffffffffff021916908373ffffffffffffffffffffffffffffffffffffffff1602179055506001600260003373ffffffffffffffffffffffffffffffffffffffff1673ffffffffffffffffffffffffffffffffffffffff16815260200190815260200160002060006101000a81548160ff021916908315150217905550836009908051906020019062000345929190620005ec565b5082600a90805190602001906200035e929190620005ec565b506009600b60006101000a81548160ff021916908360ff160217905550816008819055508060078190555080600560003373ffffffffffffffffffffffffffffffffffffffff1673ffffffffffffffffffffffffffffffffffffffff16815260200190815260200160002081905550505050506000600f819055506001601181905550600160138190555060016012819055506001601481905550600160108190555060016016600062000417620005c260201b60201c565b73ffffffffffffffffffffffffffffffffffffffff1673ffffffffffffffffffffffffffffffffffffffff16815260200190815260200160002060006101000a81548160ff0219169083151502179055506001601660003073ffffffffffffffffffffffffffffffffffffffff1673ffffffffffffffffffffffffffffffffffffffff16815260200190815260200160002060006101000a81548160ff021916908315150217905550600160166000600b60019054906101000a900473ffffffffffffffffffffffffffffffffffffffff1673ffffffffffffffffffffffffffffffffffffffff1673ffffffffffffffffffffffffffffffffffffffff16815260200190815260200160002060006101000a81548160ff021916908315150217905550600160166000600c60009054906101000a900473ffffffffffffffffffffffffffffffffffffffff1673ffffffffffffffffffffffffffffffffffffffff1673ffffffffffffffffffffffffffffffffffffffff16815260200190815260200160002060006101000a81548160ff02191690831515021790555062000692565b600033905090565b6000600160009054906101000a900473ffffffffffffffffffffffffffffffffffffffff16905090565b828054600181600116156101000203166002900490600052602060002090601f016020900481019282601f106200062f57805160ff191683800117855562000660565b8280016001018555821562000660579182015b828111156200065f57825182559160200191906001019062000642565b5b5090506200066f919062000673565b5090565b5b808211156200068e57600081600090555060010162000674565b5090565b6144c380620006a26000396000f3fe608060405234801561001057600080fd5b506004361061023d5760003560e01c80638482ad341161013b578063b7c076f9116100b8578063dba03d811161007c578063dba03d8114610b37578063dd62ed3e14610b7b578063e50d318014610bf3578063f2fde38b14610c77578063f3d566a214610cbb5761023d565b8063b7c076f914610a45578063c4157b2914610a63578063c7d6e61814610ac7578063ce1d82f514610ae5578063d5abeb0114610b195761023d565b8063a0821be3116100ff578063a0821be3146108c3578063a15c15af1461091b578063a23247ef1461095f578063a457c2d71461097d578063a9059cbb146109e15761023d565b80638482ad34146107665780638da5cb5b146107845780638fe8cf24146107b857806391116d67146107fc57806395d89b41146108405761023d565b8063313ce567116101c957806364fcc5de1161018d57806364fcc5de1461063e5780636e7229201461065c57806370a08231146106a0578063715018a6146106f857806379cc6790146107025761023d565b8063313ce56714610509578063351bf5181461052a578063395093511461054857806340c10f19146105ac57806342966c68146105fa5761023d565b8063171177b311610210578063171177b3146103c157806318160ddd1461040f5780631d2c0b3d1461042d5780632291c5d41461043757806323b872dd146104855761023d565b806306fdde031461024257806308c985bf146102c5578063095ea7b3146102f95780630c15f6011461035d575b600080fd5b61024a610ce9565b6040518080602001828103825283818151815260200191508051906020019080838360005b8381101561028a57808201518184015260208101905061026f565b50505050905090810190601f1680156102b75780820380516001836020036101000a031916815260200191505b509250505060405180910390f35b6102cd610d8b565b604051808273ffffffffffffffffffffffffffffffffffffffff16815260200191505060405180910390f35b6103456004803603604081101561030f57600080fd5b81019080803573ffffffffffffffffffffffffffffffffffffffff16906020019092919080359060200190929190505050610db5565b60405180821515815260200191505060405180910390f35b6103a96004803603604081101561037357600080fd5b81019080803573ffffffffffffffffffffffffffffffffffffffff16906020019092919080359060200190929190505050610dd3565b60405180821515815260200191505060405180910390f35b61040d600480360360408110156103d757600080fd5b81019080803573ffffffffffffffffffffffffffffffffffffffff16906020019092919080359060200190929190505050610eaf565b005b610417610f83565b6040518082815260200191505060405180910390f35b610435610f8d565b005b6104836004803603604081101561044d57600080fd5b81019080803573ffffffffffffffffffffffffffffffffffffffff16906020019092919080359060200190929190505050611178565b005b6104f16004803603606081101561049b57600080fd5b81019080803573ffffffffffffffffffffffffffffffffffffffff169060200190929190803573ffffffffffffffffffffffffffffffffffffffff16906020019092919080359060200190929190505050611258565b60405180821515815260200191505060405180910390f35b610511611331565b604051808260ff16815260200191505060405180910390f35b610532611348565b6040518082815260200191505060405180910390f35b6105946004803603604081101561055e57600080fd5b81019080803573ffffffffffffffffffffffffffffffffffffffff1690602001909291908035906020019092919050505061134e565b60405180821515815260200191505060405180910390f35b6105f8600480360360408110156105c257600080fd5b81019080803573ffffffffffffffffffffffffffffffffffffffff16906020019092919080359060200190929190505050611401565b005b6106266004803603602081101561061057600080fd5b81019080803590602001909291905050506114d9565b60405180821515815260200191505060405180910390f35b6106466114f5565b6040518082815260200191505060405180910390f35b61069e6004803603602081101561067257600080fd5b81019080803573ffffffffffffffffffffffffffffffffffffffff1690602001909291905050506114fb565b005b6106e2600480360360208110156106b657600080fd5b81019080803573ffffffffffffffffffffffffffffffffffffffff169060200190929190505050611619565b6040518082815260200191505060405180910390f35b61070061167c565b005b61074e6004803603604081101561071857600080fd5b81019080803573ffffffffffffffffffffffffffffffffffffffff16906020019092919080359060200190929190505050611807565b60405180821515815260200191505060405180910390f35b61076e611870565b6040518082815260200191505060405180910390f35b61078c611876565b604051808273ffffffffffffffffffffffffffffffffffffffff16815260200191505060405180910390f35b6107fa600480360360208110156107ce57600080fd5b81019080803573ffffffffffffffffffffffffffffffffffffffff1690602001909291905050506118a0565b005b61083e6004803603602081101561081257600080fd5b81019080803573ffffffffffffffffffffffffffffffffffffffff1690602001909291905050506119bc565b005b610848611ae1565b6040518080602001828103825283818151815260200191508051906020019080838360005b8381101561088857808201518184015260208101905061086d565b50505050905090810190601f1680156108b55780820380516001836020036101000a031916815260200191505b509250505060405180910390f35b610905600480360360208110156108d957600080fd5b81019080803573ffffffffffffffffffffffffffffffffffffffff169060200190929190505050611b83565b6040518082815260200191505060405180910390f35b61095d6004803603602081101561093157600080fd5b81019080803573ffffffffffffffffffffffffffffffffffffffff169060200190929190505050611bcc565b005b610967611cea565b6040518082815260200191505060405180910390f35b6109c96004803603604081101561099357600080fd5b81019080803573ffffffffffffffffffffffffffffffffffffffff16906020019092919080359060200190929190505050611cf0565b60405180821515815260200191505060405180910390f35b610a2d600480360360408110156109f757600080fd5b81019080803573ffffffffffffffffffffffffffffffffffffffff16906020019092919080359060200190929190505050611dbd565b60405180821515815260200191505060405180910390f35b610a4d611ddb565b6040518082815260200191505060405180910390f35b610aaf60048036036040811015610a7957600080fd5b81019080803573ffffffffffffffffffffffffffffffffffffffff16906020019092919080359060200190929190505050611de1565b60405180821515815260200191505060405180910390f35b610acf611ebd565b6040518082815260200191505060405180910390f35b610aed611ec3565b604051808273ffffffffffffffffffffffffffffffffffffffff16815260200191505060405180910390f35b610b21611ee9565b6040518082815260200191505060405180910390f35b610b7960048036036020811015610b4d57600080fd5b81019080803573ffffffffffffffffffffffffffffffffffffffff169060200190929190505050611ef3565b005b610bdd60048036036040811015610b9157600080fd5b81019080803573ffffffffffffffffffffffffffffffffffffffff169060200190929190803573ffffffffffffffffffffffffffffffffffffffff169060200190929190505050611ffa565b6040518082815260200191505060405180910390f35b610c5f60048036036060811015610c0957600080fd5b81019080803573ffffffffffffffffffffffffffffffffffffffff169060200190929190803573ffffffffffffffffffffffffffffffffffffffff16906020019092919080359060200190929190505050612081565b60405180821515815260200191505060405180910390f35b610cb960048036036020811015610c8d57600080fd5b81019080803573ffffffffffffffffffffffffffffffffffffffff169060200190929190505050612340565b005b610ce760048036036020811015610cd157600080fd5b8101908080359060200190929190505050612550565b005b606060098054600181600116156101000203166002900480601f016020809104026020016040519081016040528092919081815260200182805460018160011615610100020316600290048015610d815780601f10610d5657610100808354040283529160200191610d81565b820191906000526020600020905b815481529060010190602001808311610d6457829003601f168201915b5050505050905090565b6000600360009054906101000a900473ffffffffffffffffffffffffffffffffffffffff16905090565b6000610dc9610dc2612622565b848461262a565b6001905092915050565b600060011515600260003373ffffffffffffffffffffffffffffffffffffffff1673ffffffffffffffffffffffffffffffffffffffff16815260200190815260200160002060009054906101000a900460ff16151514610e9b576040517f08c379a00000000000000000000000000000000000000000000000000000000081526004018080602001828103825260128152602001807f63616e277420706572666f726d206d656c74000000000000000000000000000081525060200191505060405180910390fd5b610ea58383612821565b6001905092915050565b60011515600260003373ffffffffffffffffffffffffffffffffffffffff1673ffffffffffffffffffffffffffffffffffffffff16815260200190815260200160002060009054906101000a900460ff16151514610f75576040517f08c379a00000000000000000000000000000000000000000000000000000000081526004018080602001828103825260128152602001807f63616e277420706572666f726d206d656c74000000000000000000000000000081525060200191505060405180910390fd5b610f7f8282612a53565b5050565b6000600754905090565b600460009054906101000a900473ffffffffffffffffffffffffffffffffffffffff1673ffffffffffffffffffffffffffffffffffffffff163373ffffffffffffffffffffffffffffffffffffffff1614611033576040517f08c379a00000000000000000000000000000000000000000000000000000000081526004018080602001828103825260218152602001806144486021913960400191505060405180910390fd5b600460009054906101000a900473ffffffffffffffffffffffffffffffffffffffff1673ffffffffffffffffffffffffffffffffffffffff16600360009054906101000a900473ffffffffffffffffffffffffffffffffffffffff1673ffffffffffffffffffffffffffffffffffffffff167f02ad39e5173f89bdd5497202bd74024b5da045106c3163ddb078d2e89ff6d6de60405160405180910390a3600460009054906101000a900473ffffffffffffffffffffffffffffffffffffffff16600360006101000a81548173ffffffffffffffffffffffffffffffffffffffff021916908373ffffffffffffffffffffffffffffffffffffffff1602179055506000600460006101000a81548173ffffffffffffffffffffffffffffffffffffffff021916908373ffffffffffffffffffffffffffffffffffffffff160217905550565b60011515600260003373ffffffffffffffffffffffffffffffffffffffff1673ffffffffffffffffffffffffffffffffffffffff16815260200190815260200160002060009054906101000a900460ff1615151461123e576040517f08c379a00000000000000000000000000000000000000000000000000000000081526004018080602001828103825260128152602001807f63616e277420706572666f726d206d656c74000000000000000000000000000081525060200191505060405180910390fd5b61124933838361262a565b611254338383612b68565b5050565b6000611265848484612c91565b61132684611271612622565b6113218560405180606001604052806028815260200161434960289139600660008b73ffffffffffffffffffffffffffffffffffffffff1673ffffffffffffffffffffffffffffffffffffffff16815260200190815260200160002060006112d7612622565b73ffffffffffffffffffffffffffffffffffffffff1673ffffffffffffffffffffffffffffffffffffffff16815260200190815260200160002054612e0c9092919063ffffffff16565b61262a565b600190509392505050565b6000600b60009054906101000a900460ff16905090565b600f5481565b60006113f761135b612622565b846113f2856006600061136c612622565b73ffffffffffffffffffffffffffffffffffffffff1673ffffffffffffffffffffffffffffffffffffffff16815260200190815260200160002060008973ffffffffffffffffffffffffffffffffffffffff1673ffffffffffffffffffffffffffffffffffffffff16815260200190815260200160002054612ecc90919063ffffffff16565b61262a565b6001905092915050565b611409612622565b73ffffffffffffffffffffffffffffffffffffffff16600160009054906101000a900473ffffffffffffffffffffffffffffffffffffffff1673ffffffffffffffffffffffffffffffffffffffff16146114cb576040517f08c379a00000000000000000000000000000000000000000000000000000000081526004018080602001828103825260208152602001807f4f776e61626c653a2063616c6c6572206973206e6f7420746865206f776e657281525060200191505060405180910390fd5b6114d58282612f54565b5050565b60006114ec6114e6612622565b83613111565b60019050919050565b60135481565b600360009054906101000a900473ffffffffffffffffffffffffffffffffffffffff1673ffffffffffffffffffffffffffffffffffffffff163373ffffffffffffffffffffffffffffffffffffffff16146115be576040517f08c379a00000000000000000000000000000000000000000000000000000000081526004018080602001828103825260198152602001807f63616c6c6572206e6f742061206d656c7465722061646d696e0000000000000081525060200191505060405180910390fd5b6000600260008373ffffffffffffffffffffffffffffffffffffffff1673ffffffffffffffffffffffffffffffffffffffff16815260200190815260200160002060006101000a81548160ff02191690831515021790555050565b6000611675611627836132d5565b600560008573ffffffffffffffffffffffffffffffffffffffff1673ffffffffffffffffffffffffffffffffffffffff16815260200190815260200160002054612ecc90919063ffffffff16565b9050919050565b611684612622565b73ffffffffffffffffffffffffffffffffffffffff16600160009054906101000a900473ffffffffffffffffffffffffffffffffffffffff1673ffffffffffffffffffffffffffffffffffffffff1614611746576040517f08c379a00000000000000000000000000000000000000000000000000000000081526004018080602001828103825260208152602001807f4f776e61626c653a2063616c6c6572206973206e6f7420746865206f776e657281525060200191505060405180910390fd5b600073ffffffffffffffffffffffffffffffffffffffff16600160009054906101000a900473ffffffffffffffffffffffffffffffffffffffff1673ffffffffffffffffffffffffffffffffffffffff167f8be0079c531659141344cd1fd0a4f28419497f9722a3daafe3b4186f6b6457e060405160405180910390a36000600160006101000a81548173ffffffffffffffffffffffffffffffffffffffff021916908373ffffffffffffffffffffffffffffffffffffffff160217905550565b600080611847836040518060600160405280602481526020016143716024913961183887611833612622565b611ffa565b612e0c9092919063ffffffff16565b905061185b84611855612622565b8361262a565b6118658484613111565b600191505092915050565b60105481565b6000600160009054906101000a900473ffffffffffffffffffffffffffffffffffffffff16905090565b6118a8612622565b73ffffffffffffffffffffffffffffffffffffffff16600160009054906101000a900473ffffffffffffffffffffffffffffffffffffffff1673ffffffffffffffffffffffffffffffffffffffff161461196a576040517f08c379a00000000000000000000000000000000000000000000000000000000081526004018080602001828103825260208152602001807f4f776e61626c653a2063616c6c6572206973206e6f7420746865206f776e657281525060200191505060405180910390fd5b601560008273ffffffffffffffffffffffffffffffffffffffff1673ffffffffffffffffffffffffffffffffffffffff16815260200190815260200160002060006101000a81549060ff021916905550565b6119c4612622565b73ffffffffffffffffffffffffffffffffffffffff16600160009054906101000a900473ffffffffffffffffffffffffffffffffffffffff1673ffffffffffffffffffffffffffffffffffffffff1614611a86576040517f08c379a00000000000000000000000000000000000000000000000000000000081526004018080602001828103825260208152602001807f4f776e61626c653a2063616c6c6572206973206e6f7420746865206f776e657281525060200191505060405180910390fd5b6001601560008373ffffffffffffffffffffffffffffffffffffffff1673ffffffffffffffffffffffffffffffffffffffff16815260200190815260200160002060006101000a81548160ff02191690831515021790555050565b6060600a8054600181600116156101000203166002900480601f016020809104026020016040519081016040528092919081815260200182805460018160011615610100020316600290048015611b795780601f10611b4e57610100808354040283529160200191611b79565b820191906000526020600020905b815481529060010190602001808311611b5c57829003601f168201915b5050505050905090565b6000600560008373ffffffffffffffffffffffffffffffffffffffff1673ffffffffffffffffffffffffffffffffffffffff168152602001908152602001600020549050919050565b600360009054906101000a900473ffffffffffffffffffffffffffffffffffffffff1673ffffffffffffffffffffffffffffffffffffffff163373ffffffffffffffffffffffffffffffffffffffff1614611c8f576040517f08c379a00000000000000000000000000000000000000000000000000000000081526004018080602001828103825260198152602001807f63616c6c6572206e6f742061206d656c7465722061646d696e0000000000000081525060200191505060405180910390fd5b6001600260008373ffffffffffffffffffffffffffffffffffffffff1673ffffffffffffffffffffffffffffffffffffffff16815260200190815260200160002060006101000a81548160ff02191690831515021790555050565b60115481565b6000611db3611cfd612622565b84611dae856040518060600160405280602581526020016144696025913960066000611d27612622565b73ffffffffffffffffffffffffffffffffffffffff1673ffffffffffffffffffffffffffffffffffffffff16815260200190815260200160002060008a73ffffffffffffffffffffffffffffffffffffffff1673ffffffffffffffffffffffffffffffffffffffff16815260200190815260200160002054612e0c9092919063ffffffff16565b61262a565b6001905092915050565b6000611dd1611dca612622565b8484612c91565b6001905092915050565b60145481565b600060011515600260003373ffffffffffffffffffffffffffffffffffffffff1673ffffffffffffffffffffffffffffffffffffffff16815260200190815260200160002060009054906101000a900460ff16151514611ea9576040517f08c379a00000000000000000000000000000000000000000000000000000000081526004018080602001828103825260128152602001807f63616e277420706572666f726d206d656c74000000000000000000000000000081525060200191505060405180910390fd5b611eb3838361331d565b6001905092915050565b60125481565b600460009054906101000a900473ffffffffffffffffffffffffffffffffffffffff1681565b6000600854905090565b600360009054906101000a900473ffffffffffffffffffffffffffffffffffffffff1673ffffffffffffffffffffffffffffffffffffffff163373ffffffffffffffffffffffffffffffffffffffff1614611fb6576040517f08c379a00000000000000000000000000000000000000000000000000000000081526004018080602001828103825260198152602001807f63616c6c6572206e6f742061206d656c7465722061646d696e0000000000000081525060200191505060405180910390fd5b80600460006101000a81548173ffffffffffffffffffffffffffffffffffffffff021916908373ffffffffffffffffffffffffffffffffffffffff16021790555050565b6000600660008473ffffffffffffffffffffffffffffffffffffffff1673ffffffffffffffffffffffffffffffffffffffff16815260200190815260200160002060008373ffffffffffffffffffffffffffffffffffffffff1673ffffffffffffffffffffffffffffffffffffffff16815260200190815260200160002054905092915050565b600060011515600260003373ffffffffffffffffffffffffffffffffffffffff1673ffffffffffffffffffffffffffffffffffffffff16815260200190815260200160002060009054906101000a900460ff16151514612149576040517f08c379a00000000000000000000000000000000000000000000000000000000081526004018080602001828103825260128152602001807f63616e277420706572666f726d206d656c74000000000000000000000000000081525060200191505060405180910390fd5b600073ffffffffffffffffffffffffffffffffffffffff168473ffffffffffffffffffffffffffffffffffffffff1614156121cf576040517f08c379a00000000000000000000000000000000000000000000000000000000081526004018080602001828103825260258152602001806143ff6025913960400191505060405180910390fd5b600073ffffffffffffffffffffffffffffffffffffffff168373ffffffffffffffffffffffffffffffffffffffff161415612255576040517f08c379a000000000000000000000000000000000000000000000000000000000815260040180806020018281038252602381526020018061419f6023913960400191505060405180910390fd5b61225f84836135ea565b5061226a8383613689565b508273ffffffffffffffffffffffffffffffffffffffff168473ffffffffffffffffffffffffffffffffffffffff167f9958976925baa403abf86afa44976a9effff3e01931eafd0ea2689f40852fd59846040518082815260200191505060405180910390a38273ffffffffffffffffffffffffffffffffffffffff168473ffffffffffffffffffffffffffffffffffffffff167fddf252ad1be2c89b69c2b068fc378daa952ba7f163c4a11628f55a4df523b3ef846040518082815260200191505060405180910390a3600190509392505050565b612348612622565b73ffffffffffffffffffffffffffffffffffffffff16600160009054906101000a900473ffffffffffffffffffffffffffffffffffffffff1673ffffffffffffffffffffffffffffffffffffffff161461240a576040517f08c379a00000000000000000000000000000000000000000000000000000000081526004018080602001828103825260208152602001807f4f776e61626c653a2063616c6c6572206973206e6f7420746865206f776e657281525060200191505060405180910390fd5b600073ffffffffffffffffffffffffffffffffffffffff168173ffffffffffffffffffffffffffffffffffffffff161415612490576040517f08c379a00000000000000000000000000000000000000000000000000000000081526004018080602001828103825260268152602001806142386026913960400191505060405180910390fd5b8073ffffffffffffffffffffffffffffffffffffffff16600160009054906101000a900473ffffffffffffffffffffffffffffffffffffffff1673ffffffffffffffffffffffffffffffffffffffff167f8be0079c531659141344cd1fd0a4f28419497f9722a3daafe3b4186f6b6457e060405160405180910390a380600160006101000a81548173ffffffffffffffffffffffffffffffffffffffff021916908373ffffffffffffffffffffffffffffffffffffffff16021790555050565b60011515600260003373ffffffffffffffffffffffffffffffffffffffff1673ffffffffffffffffffffffffffffffffffffffff16815260200190815260200160002060009054906101000a900460ff16151514612616576040517f08c379a00000000000000000000000000000000000000000000000000000000081526004018080602001828103825260128152602001807f63616e277420706572666f726d206d656c74000000000000000000000000000081525060200191505060405180910390fd5b61261f81613728565b50565b600033905090565b600073ffffffffffffffffffffffffffffffffffffffff168373ffffffffffffffffffffffffffffffffffffffff1614156126b0576040517f08c379a00000000000000000000000000000000000000000000000000000000081526004018080602001828103825260248152602001806144246024913960400191505060405180910390fd5b600073ffffffffffffffffffffffffffffffffffffffff168273ffffffffffffffffffffffffffffffffffffffff161415612736576040517f08c379a000000000000000000000000000000000000000000000000000000000815260040180806020018281038252602281526020018061425e6022913960400191505060405180910390fd5b80600660008573ffffffffffffffffffffffffffffffffffffffff1673ffffffffffffffffffffffffffffffffffffffff16815260200190815260200160002060008473ffffffffffffffffffffffffffffffffffffffff1673ffffffffffffffffffffffffffffffffffffffff168152602001908152602001600020819055508173ffffffffffffffffffffffffffffffffffffffff168373ffffffffffffffffffffffffffffffffffffffff167f8c5be1e5ebec7d5bd14f71427d1e84f3dd0314c0f7b2291e5b200ac8c7c3b925836040518082815260200191505060405180910390a3505050565b600073ffffffffffffffffffffffffffffffffffffffff168273ffffffffffffffffffffffffffffffffffffffff1614156128a7576040517f08c379a00000000000000000000000000000000000000000000000000000000081526004018080602001828103825260218152602001806143956021913960400191505060405180910390fd5b60008111612900576040517f08c379a00000000000000000000000000000000000000000000000000000000081526004018080602001828103825260318152602001806142d06031913960400191505060405180910390fd5b8061290a836132d5565b1015612961576040517f08c379a000000000000000000000000000000000000000000000000000000000815260040180806020018281038252602e8152602001806141c2602e913960400191505060405180910390fd5b61296b82826135ea565b508173ffffffffffffffffffffffffffffffffffffffff167f36a0b989202af25b5d49a593a1dd43461453ef93a93a7846ea3dbb487e119800826040518082815260200191505060405180910390a2612a0c81600560008573ffffffffffffffffffffffffffffffffffffffff1673ffffffffffffffffffffffffffffffffffffffff16815260200190815260200160002054612ecc90919063ffffffff16565b600560008473ffffffffffffffffffffffffffffffffffffffff1673ffffffffffffffffffffffffffffffffffffffff168152602001908152602001600020819055505050565b600073ffffffffffffffffffffffffffffffffffffffff168273ffffffffffffffffffffffffffffffffffffffff161415612ad9576040517f08c379a00000000000000000000000000000000000000000000000000000000081526004018080602001828103825260288152602001806143d76028913960400191505060405180910390fd5b612aee81600754613b8490919063ffffffff16565b600781905550612afe82826135ea565b503073ffffffffffffffffffffffffffffffffffffffff168273ffffffffffffffffffffffffffffffffffffffff167fddf252ad1be2c89b69c2b068fc378daa952ba7f163c4a11628f55a4df523b3ef836040518082815260200191505060405180910390a35050565b6000601054118015612ba75750600073ffffffffffffffffffffffffffffffffffffffff168273ffffffffffffffffffffffffffffffffffffffff1614155b8015612c025750600073ffffffffffffffffffffffffffffffffffffffff16600d60009054906101000a900473ffffffffffffffffffffffffffffffffffffffff1673ffffffffffffffffffffffffffffffffffffffff1614155b15612c8157612c118382613bce565b6000612c3b6064612c2d60105485613ca890919063ffffffff16565b613d2e90919063ffffffff16565b9050612c6a84600d60009054906101000a900473ffffffffffffffffffffffffffffffffffffffff1683613d78565b612c7d8183613b8490919063ffffffff16565b9150505b612c8c838383613d78565b505050565b6000600f54118015612cf3575060011515601560008473ffffffffffffffffffffffffffffffffffffffff1673ffffffffffffffffffffffffffffffffffffffff16815260200190815260200160002060009054906101000a900460ff161515145b8015612d2c5750600073ffffffffffffffffffffffffffffffffffffffff168273ffffffffffffffffffffffffffffffffffffffff1614155b8015612d875750600073ffffffffffffffffffffffffffffffffffffffff16600b60019054906101000a900473ffffffffffffffffffffffffffffffffffffffff1673ffffffffffffffffffffffffffffffffffffffff1614155b15612dfc576000612db66064612da8600f5485613ca890919063ffffffff16565b613d2e90919063ffffffff16565b9050612de584600b60019054906101000a900473ffffffffffffffffffffffffffffffffffffffff1683613d78565b612df88183613b8490919063ffffffff16565b9150505b612e07838383613d78565b505050565b6000838311158290612eb9576040517f08c379a00000000000000000000000000000000000000000000000000000000081526004018080602001828103825283818151815260200191508051906020019080838360005b83811015612e7e578082015181840152602081019050612e63565b50505050905090810190601f168015612eab5780820380516001836020036101000a031916815260200191505b509250505060405180910390fd5b5060008385039050809150509392505050565b600080828401905083811015612f4a576040517f08c379a000000000000000000000000000000000000000000000000000000000815260040180806020018281038252601b8152602001807f536166654d6174683a206164646974696f6e206f766572666c6f77000000000081525060200191505060405180910390fd5b8091505092915050565b600073ffffffffffffffffffffffffffffffffffffffff168273ffffffffffffffffffffffffffffffffffffffff161415612ff7576040517f08c379a000000000000000000000000000000000000000000000000000000000815260040180806020018281038252601f8152602001807f45524332303a206d696e7420746f20746865207a65726f20616464726573730081525060200191505060405180910390fd5b61300c81600754612ecc90919063ffffffff16565b60078190555061306481600560008573ffffffffffffffffffffffffffffffffffffffff1673ffffffffffffffffffffffffffffffffffffffff16815260200190815260200160002054612ecc90919063ffffffff16565b600560008473ffffffffffffffffffffffffffffffffffffffff1673ffffffffffffffffffffffffffffffffffffffff168152602001908152602001600020819055508173ffffffffffffffffffffffffffffffffffffffff16600073ffffffffffffffffffffffffffffffffffffffff167fddf252ad1be2c89b69c2b068fc378daa952ba7f163c4a11628f55a4df523b3ef836040518082815260200191505060405180910390a35050565b600073ffffffffffffffffffffffffffffffffffffffff168273ffffffffffffffffffffffffffffffffffffffff161415613197576040517f08c379a00000000000000000000000000000000000000000000000000000000081526004018080602001828103825260218152602001806143b66021913960400191505060405180910390fd5b6131a18282613bce565b61320d816040518060600160405280602281526020016141f060229139600560008673ffffffffffffffffffffffffffffffffffffffff1673ffffffffffffffffffffffffffffffffffffffff16815260200190815260200160002054612e0c9092919063ffffffff16565b600560008473ffffffffffffffffffffffffffffffffffffffff1673ffffffffffffffffffffffffffffffffffffffff1681526020019081526020016000208190555061326581600754613b8490919063ffffffff16565b600781905550600073ffffffffffffffffffffffffffffffffffffffff168273ffffffffffffffffffffffffffffffffffffffff167fddf252ad1be2c89b69c2b068fc378daa952ba7f163c4a11628f55a4df523b3ef836040518082815260200191505060405180910390a35050565b60008060008373ffffffffffffffffffffffffffffffffffffffff1673ffffffffffffffffffffffffffffffffffffffff168152602001908152602001600020549050919050565b600073ffffffffffffffffffffffffffffffffffffffff168273ffffffffffffffffffffffffffffffffffffffff1614156133a3576040517f08c379a00000000000000000000000000000000000000000000000000000000081526004018080602001828103825260268152602001806142126026913960400191505060405180910390fd5b3073ffffffffffffffffffffffffffffffffffffffff168273ffffffffffffffffffffffffffffffffffffffff161415613428576040517f08c379a000000000000000000000000000000000000000000000000000000000815260040180806020018281038252602a815260200180614280602a913960400191505060405180910390fd5b60008111613481576040517f08c379a00000000000000000000000000000000000000000000000000000000081526004018080602001828103825260278152602001806143016027913960400191505060405180910390fd5b60085461349982600754612ecc90919063ffffffff16565b111561350d576040517f08c379a00000000000000000000000000000000000000000000000000000000081526004018080602001828103825260208152602001807f45524332304361707065643a206d617820737570706c7920657863656564656481525060200191505060405180910390fd5b61352281600754612ecc90919063ffffffff16565b6007819055508173ffffffffffffffffffffffffffffffffffffffff163073ffffffffffffffffffffffffffffffffffffffff167fddf252ad1be2c89b69c2b068fc378daa952ba7f163c4a11628f55a4df523b3ef836040518082815260200191505060405180910390a36135978282613689565b508173ffffffffffffffffffffffffffffffffffffffff167fba89ad6709373f454c31524e8c39cef3cdd4b0e8cfde0ccddbd419a2e488be6b826040518082815260200191505060405180910390a25050565b600061363d826000808673ffffffffffffffffffffffffffffffffffffffff1673ffffffffffffffffffffffffffffffffffffffff16815260200190815260200160002054613b8490919063ffffffff16565b6000808573ffffffffffffffffffffffffffffffffffffffff1673ffffffffffffffffffffffffffffffffffffffff168152602001908152602001600020819055506001905092915050565b60006136dc826000808673ffffffffffffffffffffffffffffffffffffffff1673ffffffffffffffffffffffffffffffffffffffff16815260200190815260200160002054612ecc90919063ffffffff16565b6000808573ffffffffffffffffffffffffffffffffffffffff1673ffffffffffffffffffffffffffffffffffffffff168152602001908152602001600020819055506001905092915050565b6000806011541180156137685750600073ffffffffffffffffffffffffffffffffffffffff163373ffffffffffffffffffffffffffffffffffffffff1614155b80156137c35750600073ffffffffffffffffffffffffffffffffffffffff16600e60009054906101000a900473ffffffffffffffffffffffffffffffffffffffff1673ffffffffffffffffffffffffffffffffffffffff1614155b156138375760006137f260646137e460115486613ca890919063ffffffff16565b613d2e90919063ffffffff16565b9050613820600e60009054906101000a900473ffffffffffffffffffffffffffffffffffffffff1682612f54565b6138338183612ecc90919063ffffffff16565b9150505b60006013541180156138765750600073ffffffffffffffffffffffffffffffffffffffff163373ffffffffffffffffffffffffffffffffffffffff1614155b80156138d15750600073ffffffffffffffffffffffffffffffffffffffff16600b60019054906101000a900473ffffffffffffffffffffffffffffffffffffffff1673ffffffffffffffffffffffffffffffffffffffff1614155b1561394557600061390060646138f260135486613ca890919063ffffffff16565b613d2e90919063ffffffff16565b905061392e600b60019054906101000a900473ffffffffffffffffffffffffffffffffffffffff1682612f54565b6139418183612ecc90919063ffffffff16565b9150505b60006012541180156139845750600073ffffffffffffffffffffffffffffffffffffffff163373ffffffffffffffffffffffffffffffffffffffff1614155b80156139df5750600073ffffffffffffffffffffffffffffffffffffffff16600c60009054906101000a900473ffffffffffffffffffffffffffffffffffffffff1673ffffffffffffffffffffffffffffffffffffffff1614155b15613a53576000613a0e6064613a0060125486613ca890919063ffffffff16565b613d2e90919063ffffffff16565b9050613a3c600c60009054906101000a900473ffffffffffffffffffffffffffffffffffffffff1682612f54565b613a4f8183612ecc90919063ffffffff16565b9150505b6000601454118015613a925750600073ffffffffffffffffffffffffffffffffffffffff163373ffffffffffffffffffffffffffffffffffffffff1614155b8015613aed5750600073ffffffffffffffffffffffffffffffffffffffff16600d60009054906101000a900473ffffffffffffffffffffffffffffffffffffffff1673ffffffffffffffffffffffffffffffffffffffff1614155b15613b61576000613b1c6064613b0e60145486613ca890919063ffffffff16565b613d2e90919063ffffffff16565b9050613b4a600d60009054906101000a900473ffffffffffffffffffffffffffffffffffffffff1682612f54565b613b5d8183612ecc90919063ffffffff16565b9150505b613b748183613b8490919063ffffffff16565b9150613b803383612f54565b5050565b6000613bc683836040518060400160405280601e81526020017f536166654d6174683a207375627472616374696f6e206f766572666c6f770000815250612e0c565b905092915050565b613bd8828261403c565b600073ffffffffffffffffffffffffffffffffffffffff168273ffffffffffffffffffffffffffffffffffffffff161415613ca457613c15611ee9565b613c2f82613c21610f83565b612ecc90919063ffffffff16565b1115613ca3576040517f08c379a00000000000000000000000000000000000000000000000000000000081526004018080602001828103825260208152602001807f45524332304361707065643a206d617820737570706c7920657863656564656481525060200191505060405180910390fd5b5b5050565b600080831415613cbb5760009050613d28565b6000828402905082848281613ccc57fe5b0414613d23576040517f08c379a00000000000000000000000000000000000000000000000000000000081526004018080602001828103825260218152602001806143286021913960400191505060405180910390fd5b809150505b92915050565b6000613d7083836040518060400160405280601a81526020017f536166654d6174683a206469766973696f6e206279207a65726f0000000000008152506140d8565b905092915050565b600073ffffffffffffffffffffffffffffffffffffffff168373ffffffffffffffffffffffffffffffffffffffff161415613dfe576040517f08c379a00000000000000000000000000000000000000000000000000000000081526004018080602001828103825260258152602001806143ff6025913960400191505060405180910390fd5b600073ffffffffffffffffffffffffffffffffffffffff168273ffffffffffffffffffffffffffffffffffffffff161415613e84576040517f08c379a000000000000000000000000000000000000000000000000000000000815260040180806020018281038252602381526020018061419f6023913960400191505060405180910390fd5b613e8e8382613bce565b613efa816040518060600160405280602681526020016142aa60269139600560008773ffffffffffffffffffffffffffffffffffffffff1673ffffffffffffffffffffffffffffffffffffffff16815260200190815260200160002054612e0c9092919063ffffffff16565b600560008573ffffffffffffffffffffffffffffffffffffffff1673ffffffffffffffffffffffffffffffffffffffff16815260200190815260200160002081905550613f8f81600560008573ffffffffffffffffffffffffffffffffffffffff1673ffffffffffffffffffffffffffffffffffffffff16815260200190815260200160002054612ecc90919063ffffffff16565b600560008473ffffffffffffffffffffffffffffffffffffffff1673ffffffffffffffffffffffffffffffffffffffff168152602001908152602001600020819055508173ffffffffffffffffffffffffffffffffffffffff168373ffffffffffffffffffffffffffffffffffffffff167fddf252ad1be2c89b69c2b068fc378daa952ba7f163c4a11628f55a4df523b3ef836040518082815260200191505060405180910390a3505050565b80600560008473ffffffffffffffffffffffffffffffffffffffff1673ffffffffffffffffffffffffffffffffffffffff1681526020019081526020016000205410156140d4576040517f08c379a00000000000000000000000000000000000000000000000000000000081526004018080602001828103825260268152602001806142aa6026913960400191505060405180910390fd5b5050565b60008083118290614184576040517f08c379a00000000000000000000000000000000000000000000000000000000081526004018080602001828103825283818151815260200191508051906020019080838360005b8381101561414957808201518184015260208101905061412e565b50505050905090810190601f1680156141765780820380516001836020036101000a031916815260200191505b509250505060405180910390fd5b50600083858161419057fe5b04905080915050939250505056fe45524332303a207472616e7366657220746f20746865207a65726f206164647265737345524332303a206d656c742066726f6d2074686520616464726573733a2062616c616e6365203c20616d6f756e7445524332303a206275726e20616d6f756e7420657863656564732062616c616e636545524332303a206d696e742066726f7a656e20746f20746865207a65726f20616464726573734f776e61626c653a206e6577206f776e657220697320746865207a65726f206164647265737345524332303a20617070726f766520746f20746865207a65726f206164647265737345524332303a206d696e742066726f7a656e20746f2074686520636f6e7472616374206164647265737345524332303a207472616e7366657220616d6f756e7420657863656564732062616c616e636545524332303a206d656c742066726f6d2074686520616464726573733a2076616c75652073686f756c64206265203e203045524332303a206d696e742066726f7a656e20616d6f756e742073686f756c64206265203e2030536166654d6174683a206d756c7469706c69636174696f6e206f766572666c6f7745524332303a207472616e7366657220616d6f756e74206578636565647320616c6c6f77616e636545524332303a206275726e20616d6f756e74206578636565647320616c6c6f77616e636545524332303a206d656c742066726f6d20746865207a65726f206164647265737345524332303a206275726e2066726f6d20746865207a65726f206164647265737345524332303a2066726f7a656e206275726e2066726f6d20746865207a65726f206164647265737345524332303a207472616e736665722066726f6d20746865207a65726f206164647265737345524332303a20617070726f76652066726f6d20746865207a65726f206164647265737363616c6c6572206e6f7420612070656e64696e67206d656c7465722061646d696e45524332303a2064656372656173656420616c6c6f77616e63652062656c6f77207a65726fa264697066735822122050aa164b020df17c4c39cbfc5c9728715f7b99e5f18003a54abd80b2eb6fb7ae64736f6c634300060c0033",
					"opcodes": "PUSH1 0x80 PUSH1 0x40 MSTORE PUSH20 0xAB8483F64D9C6D1ECF9B849AE677DD3315835CB2 PUSH1 0xB PUSH1 0x1 PUSH2 0x100 EXP DUP2 SLOAD DUP2 PUSH20 0xFFFFFFFFFFFFFFFFFFFFFFFFFFFFFFFFFFFFFFFF MUL NOT AND SWAP1 DUP4 PUSH20 0xFFFFFFFFFFFFFFFFFFFFFFFFFFFFFFFFFFFFFFFF AND MUL OR SWAP1 SSTORE POP PUSH20 0x4B20993BC481177EC7E8F571CECAE8A9E22C02DB PUSH1 0xC PUSH1 0x0 PUSH2 0x100 EXP DUP2 SLOAD DUP2 PUSH20 0xFFFFFFFFFFFFFFFFFFFFFFFFFFFFFFFFFFFFFFFF MUL NOT AND SWAP1 DUP4 PUSH20 0xFFFFFFFFFFFFFFFFFFFFFFFFFFFFFFFFFFFFFFFF AND MUL OR SWAP1 SSTORE POP PUSH20 0x78731D3CA6B7E34AC0F824C42A7CC18A495CABAB PUSH1 0xD PUSH1 0x0 PUSH2 0x100 EXP DUP2 SLOAD DUP2 PUSH20 0xFFFFFFFFFFFFFFFFFFFFFFFFFFFFFFFFFFFFFFFF MUL NOT AND SWAP1 DUP4 PUSH20 0xFFFFFFFFFFFFFFFFFFFFFFFFFFFFFFFFFFFFFFFF AND MUL OR SWAP1 SSTORE POP PUSH20 0x617F2E2FD72FD9D5503197092AC168C91465E7F2 PUSH1 0xE PUSH1 0x0 PUSH2 0x100 EXP DUP2 SLOAD DUP2 PUSH20 0xFFFFFFFFFFFFFFFFFFFFFFFFFFFFFFFFFFFFFFFF MUL NOT AND SWAP1 DUP4 PUSH20 0xFFFFFFFFFFFFFFFFFFFFFFFFFFFFFFFFFFFFFFFF AND MUL OR SWAP1 SSTORE POP CALLVALUE DUP1 ISZERO PUSH3 0x165 JUMPI PUSH1 0x0 DUP1 REVERT JUMPDEST POP PUSH1 0x40 MLOAD DUP1 PUSH1 0x40 ADD PUSH1 0x40 MSTORE DUP1 PUSH1 0xA DUP2 MSTORE PUSH1 0x20 ADD PUSH32 0x576F726C64205374657000000000000000000000000000000000000000000000 DUP2 MSTORE POP PUSH1 0x40 MLOAD DUP1 PUSH1 0x40 ADD PUSH1 0x40 MSTORE DUP1 PUSH1 0x3 DUP2 MSTORE PUSH1 0x20 ADD PUSH32 0x5753500000000000000000000000000000000000000000000000000000000000 DUP2 MSTORE POP PUSH8 0x8AC7230489E80000 PUSH7 0x38D7EA4C68000 PUSH1 0x0 PUSH3 0x1F5 PUSH3 0x5BA PUSH1 0x20 SHL PUSH1 0x20 SHR JUMP JUMPDEST SWAP1 POP DUP1 PUSH1 0x1 PUSH1 0x0 PUSH2 0x100 EXP DUP2 SLOAD DUP2 PUSH20 0xFFFFFFFFFFFFFFFFFFFFFFFFFFFFFFFFFFFFFFFF MUL NOT AND SWAP1 DUP4 PUSH20 0xFFFFFFFFFFFFFFFFFFFFFFFFFFFFFFFFFFFFFFFF AND MUL OR SWAP1 SSTORE POP DUP1 PUSH20 0xFFFFFFFFFFFFFFFFFFFFFFFFFFFFFFFFFFFFFFFF AND PUSH1 0x0 PUSH20 0xFFFFFFFFFFFFFFFFFFFFFFFFFFFFFFFFFFFFFFFF AND PUSH32 0x8BE0079C531659141344CD1FD0A4F28419497F9722A3DAAFE3B4186F6B6457E0 PUSH1 0x40 MLOAD PUSH1 0x40 MLOAD DUP1 SWAP2 SUB SWAP1 LOG3 POP CALLER PUSH1 0x3 PUSH1 0x0 PUSH2 0x100 EXP DUP2 SLOAD DUP2 PUSH20 0xFFFFFFFFFFFFFFFFFFFFFFFFFFFFFFFFFFFFFFFF MUL NOT AND SWAP1 DUP4 PUSH20 0xFFFFFFFFFFFFFFFFFFFFFFFFFFFFFFFFFFFFFFFF AND MUL OR SWAP1 SSTORE POP PUSH1 0x1 PUSH1 0x2 PUSH1 0x0 CALLER PUSH20 0xFFFFFFFFFFFFFFFFFFFFFFFFFFFFFFFFFFFFFFFF AND PUSH20 0xFFFFFFFFFFFFFFFFFFFFFFFFFFFFFFFFFFFFFFFF AND DUP2 MSTORE PUSH1 0x20 ADD SWAP1 DUP2 MSTORE PUSH1 0x20 ADD PUSH1 0x0 KECCAK256 PUSH1 0x0 PUSH2 0x100 EXP DUP2 SLOAD DUP2 PUSH1 0xFF MUL NOT AND SWAP1 DUP4 ISZERO ISZERO MUL OR SWAP1 SSTORE POP DUP4 PUSH1 0x9 SWAP1 DUP1 MLOAD SWAP1 PUSH1 0x20 ADD SWAP1 PUSH3 0x345 SWAP3 SWAP2 SWAP1 PUSH3 0x5EC JUMP JUMPDEST POP DUP3 PUSH1 0xA SWAP1 DUP1 MLOAD SWAP1 PUSH1 0x20 ADD SWAP1 PUSH3 0x35E SWAP3 SWAP2 SWAP1 PUSH3 0x5EC JUMP JUMPDEST POP PUSH1 0x9 PUSH1 0xB PUSH1 0x0 PUSH2 0x100 EXP DUP2 SLOAD DUP2 PUSH1 0xFF MUL NOT AND SWAP1 DUP4 PUSH1 0xFF AND MUL OR SWAP1 SSTORE POP DUP2 PUSH1 0x8 DUP2 SWAP1 SSTORE POP DUP1 PUSH1 0x7 DUP2 SWAP1 SSTORE POP DUP1 PUSH1 0x5 PUSH1 0x0 CALLER PUSH20 0xFFFFFFFFFFFFFFFFFFFFFFFFFFFFFFFFFFFFFFFF AND PUSH20 0xFFFFFFFFFFFFFFFFFFFFFFFFFFFFFFFFFFFFFFFF AND DUP2 MSTORE PUSH1 0x20 ADD SWAP1 DUP2 MSTORE PUSH1 0x20 ADD PUSH1 0x0 KECCAK256 DUP2 SWAP1 SSTORE POP POP POP POP POP PUSH1 0x0 PUSH1 0xF DUP2 SWAP1 SSTORE POP PUSH1 0x1 PUSH1 0x11 DUP2 SWAP1 SSTORE POP PUSH1 0x1 PUSH1 0x13 DUP2 SWAP1 SSTORE POP PUSH1 0x1 PUSH1 0x12 DUP2 SWAP1 SSTORE POP PUSH1 0x1 PUSH1 0x14 DUP2 SWAP1 SSTORE POP PUSH1 0x1 PUSH1 0x10 DUP2 SWAP1 SSTORE POP PUSH1 0x1 PUSH1 0x16 PUSH1 0x0 PUSH3 0x417 PUSH3 0x5C2 PUSH1 0x20 SHL PUSH1 0x20 SHR JUMP JUMPDEST PUSH20 0xFFFFFFFFFFFFFFFFFFFFFFFFFFFFFFFFFFFFFFFF AND PUSH20 0xFFFFFFFFFFFFFFFFFFFFFFFFFFFFFFFFFFFFFFFF AND DUP2 MSTORE PUSH1 0x20 ADD SWAP1 DUP2 MSTORE PUSH1 0x20 ADD PUSH1 0x0 KECCAK256 PUSH1 0x0 PUSH2 0x100 EXP DUP2 SLOAD DUP2 PUSH1 0xFF MUL NOT AND SWAP1 DUP4 ISZERO ISZERO MUL OR SWAP1 SSTORE POP PUSH1 0x1 PUSH1 0x16 PUSH1 0x0 ADDRESS PUSH20 0xFFFFFFFFFFFFFFFFFFFFFFFFFFFFFFFFFFFFFFFF AND PUSH20 0xFFFFFFFFFFFFFFFFFFFFFFFFFFFFFFFFFFFFFFFF AND DUP2 MSTORE PUSH1 0x20 ADD SWAP1 DUP2 MSTORE PUSH1 0x20 ADD PUSH1 0x0 KECCAK256 PUSH1 0x0 PUSH2 0x100 EXP DUP2 SLOAD DUP2 PUSH1 0xFF MUL NOT AND SWAP1 DUP4 ISZERO ISZERO MUL OR SWAP1 SSTORE POP PUSH1 0x1 PUSH1 0x16 PUSH1 0x0 PUSH1 0xB PUSH1 0x1 SWAP1 SLOAD SWAP1 PUSH2 0x100 EXP SWAP1 DIV PUSH20 0xFFFFFFFFFFFFFFFFFFFFFFFFFFFFFFFFFFFFFFFF AND PUSH20 0xFFFFFFFFFFFFFFFFFFFFFFFFFFFFFFFFFFFFFFFF AND PUSH20 0xFFFFFFFFFFFFFFFFFFFFFFFFFFFFFFFFFFFFFFFF AND DUP2 MSTORE PUSH1 0x20 ADD SWAP1 DUP2 MSTORE PUSH1 0x20 ADD PUSH1 0x0 KECCAK256 PUSH1 0x0 PUSH2 0x100 EXP DUP2 SLOAD DUP2 PUSH1 0xFF MUL NOT AND SWAP1 DUP4 ISZERO ISZERO MUL OR SWAP1 SSTORE POP PUSH1 0x1 PUSH1 0x16 PUSH1 0x0 PUSH1 0xC PUSH1 0x0 SWAP1 SLOAD SWAP1 PUSH2 0x100 EXP SWAP1 DIV PUSH20 0xFFFFFFFFFFFFFFFFFFFFFFFFFFFFFFFFFFFFFFFF AND PUSH20 0xFFFFFFFFFFFFFFFFFFFFFFFFFFFFFFFFFFFFFFFF AND PUSH20 0xFFFFFFFFFFFFFFFFFFFFFFFFFFFFFFFFFFFFFFFF AND DUP2 MSTORE PUSH1 0x20 ADD SWAP1 DUP2 MSTORE PUSH1 0x20 ADD PUSH1 0x0 KECCAK256 PUSH1 0x0 PUSH2 0x100 EXP DUP2 SLOAD DUP2 PUSH1 0xFF MUL NOT AND SWAP1 DUP4 ISZERO ISZERO MUL OR SWAP1 SSTORE POP PUSH3 0x692 JUMP JUMPDEST PUSH1 0x0 CALLER SWAP1 POP SWAP1 JUMP JUMPDEST PUSH1 0x0 PUSH1 0x1 PUSH1 0x0 SWAP1 SLOAD SWAP1 PUSH2 0x100 EXP SWAP1 DIV PUSH20 0xFFFFFFFFFFFFFFFFFFFFFFFFFFFFFFFFFFFFFFFF AND SWAP1 POP SWAP1 JUMP JUMPDEST DUP3 DUP1 SLOAD PUSH1 0x1 DUP2 PUSH1 0x1 AND ISZERO PUSH2 0x100 MUL SUB AND PUSH1 0x2 SWAP1 DIV SWAP1 PUSH1 0x0 MSTORE PUSH1 0x20 PUSH1 0x0 KECCAK256 SWAP1 PUSH1 0x1F ADD PUSH1 0x20 SWAP1 DIV DUP2 ADD SWAP3 DUP3 PUSH1 0x1F LT PUSH3 0x62F JUMPI DUP1 MLOAD PUSH1 0xFF NOT AND DUP4 DUP1 ADD OR DUP6 SSTORE PUSH3 0x660 JUMP JUMPDEST DUP3 DUP1 ADD PUSH1 0x1 ADD DUP6 SSTORE DUP3 ISZERO PUSH3 0x660 JUMPI SWAP2 DUP3 ADD JUMPDEST DUP3 DUP2 GT ISZERO PUSH3 0x65F JUMPI DUP3 MLOAD DUP3 SSTORE SWAP2 PUSH1 0x20 ADD SWAP2 SWAP1 PUSH1 0x1 ADD SWAP1 PUSH3 0x642 JUMP JUMPDEST JUMPDEST POP SWAP1 POP PUSH3 0x66F SWAP2 SWAP1 PUSH3 0x673 JUMP JUMPDEST POP SWAP1 JUMP JUMPDEST JUMPDEST DUP1 DUP3 GT ISZERO PUSH3 0x68E JUMPI PUSH1 0x0 DUP2 PUSH1 0x0 SWAP1 SSTORE POP PUSH1 0x1 ADD PUSH3 0x674 JUMP JUMPDEST POP SWAP1 JUMP JUMPDEST PUSH2 0x44C3 DUP1 PUSH3 0x6A2 PUSH1 0x0 CODECOPY PUSH1 0x0 RETURN INVALID PUSH1 0x80 PUSH1 0x40 MSTORE CALLVALUE DUP1 ISZERO PUSH2 0x10 JUMPI PUSH1 0x0 DUP1 REVERT JUMPDEST POP PUSH1 0x4 CALLDATASIZE LT PUSH2 0x23D JUMPI PUSH1 0x0 CALLDATALOAD PUSH1 0xE0 SHR DUP1 PUSH4 0x8482AD34 GT PUSH2 0x13B JUMPI DUP1 PUSH4 0xB7C076F9 GT PUSH2 0xB8 JUMPI DUP1 PUSH4 0xDBA03D81 GT PUSH2 0x7C JUMPI DUP1 PUSH4 0xDBA03D81 EQ PUSH2 0xB37 JUMPI DUP1 PUSH4 0xDD62ED3E EQ PUSH2 0xB7B JUMPI DUP1 PUSH4 0xE50D3180 EQ PUSH2 0xBF3 JUMPI DUP1 PUSH4 0xF2FDE38B EQ PUSH2 0xC77 JUMPI DUP1 PUSH4 0xF3D566A2 EQ PUSH2 0xCBB JUMPI PUSH2 0x23D JUMP JUMPDEST DUP1 PUSH4 0xB7C076F9 EQ PUSH2 0xA45 JUMPI DUP1 PUSH4 0xC4157B29 EQ PUSH2 0xA63 JUMPI DUP1 PUSH4 0xC7D6E618 EQ PUSH2 0xAC7 JUMPI DUP1 PUSH4 0xCE1D82F5 EQ PUSH2 0xAE5 JUMPI DUP1 PUSH4 0xD5ABEB01 EQ PUSH2 0xB19 JUMPI PUSH2 0x23D JUMP JUMPDEST DUP1 PUSH4 0xA0821BE3 GT PUSH2 0xFF JUMPI DUP1 PUSH4 0xA0821BE3 EQ PUSH2 0x8C3 JUMPI DUP1 PUSH4 0xA15C15AF EQ PUSH2 0x91B JUMPI DUP1 PUSH4 0xA23247EF EQ PUSH2 0x95F JUMPI DUP1 PUSH4 0xA457C2D7 EQ PUSH2 0x97D JUMPI DUP1 PUSH4 0xA9059CBB EQ PUSH2 0x9E1 JUMPI PUSH2 0x23D JUMP JUMPDEST DUP1 PUSH4 0x8482AD34 EQ PUSH2 0x766 JUMPI DUP1 PUSH4 0x8DA5CB5B EQ PUSH2 0x784 JUMPI DUP1 PUSH4 0x8FE8CF24 EQ PUSH2 0x7B8 JUMPI DUP1 PUSH4 0x91116D67 EQ PUSH2 0x7FC JUMPI DUP1 PUSH4 0x95D89B41 EQ PUSH2 0x840 JUMPI PUSH2 0x23D JUMP JUMPDEST DUP1 PUSH4 0x313CE567 GT PUSH2 0x1C9 JUMPI DUP1 PUSH4 0x64FCC5DE GT PUSH2 0x18D JUMPI DUP1 PUSH4 0x64FCC5DE EQ PUSH2 0x63E JUMPI DUP1 PUSH4 0x6E722920 EQ PUSH2 0x65C JUMPI DUP1 PUSH4 0x70A08231 EQ PUSH2 0x6A0 JUMPI DUP1 PUSH4 0x715018A6 EQ PUSH2 0x6F8 JUMPI DUP1 PUSH4 0x79CC6790 EQ PUSH2 0x702 JUMPI PUSH2 0x23D JUMP JUMPDEST DUP1 PUSH4 0x313CE567 EQ PUSH2 0x509 JUMPI DUP1 PUSH4 0x351BF518 EQ PUSH2 0x52A JUMPI DUP1 PUSH4 0x39509351 EQ PUSH2 0x548 JUMPI DUP1 PUSH4 0x40C10F19 EQ PUSH2 0x5AC JUMPI DUP1 PUSH4 0x42966C68 EQ PUSH2 0x5FA JUMPI PUSH2 0x23D JUMP JUMPDEST DUP1 PUSH4 0x171177B3 GT PUSH2 0x210 JUMPI DUP1 PUSH4 0x171177B3 EQ PUSH2 0x3C1 JUMPI DUP1 PUSH4 0x18160DDD EQ PUSH2 0x40F JUMPI DUP1 PUSH4 0x1D2C0B3D EQ PUSH2 0x42D JUMPI DUP1 PUSH4 0x2291C5D4 EQ PUSH2 0x437 JUMPI DUP1 PUSH4 0x23B872DD EQ PUSH2 0x485 JUMPI PUSH2 0x23D JUMP JUMPDEST DUP1 PUSH4 0x6FDDE03 EQ PUSH2 0x242 JUMPI DUP1 PUSH4 0x8C985BF EQ PUSH2 0x2C5 JUMPI DUP1 PUSH4 0x95EA7B3 EQ PUSH2 0x2F9 JUMPI DUP1 PUSH4 0xC15F601 EQ PUSH2 0x35D JUMPI JUMPDEST PUSH1 0x0 DUP1 REVERT JUMPDEST PUSH2 0x24A PUSH2 0xCE9 JUMP JUMPDEST PUSH1 0x40 MLOAD DUP1 DUP1 PUSH1 0x20 ADD DUP3 DUP2 SUB DUP3 MSTORE DUP4 DUP2 DUP2 MLOAD DUP2 MSTORE PUSH1 0x20 ADD SWAP2 POP DUP1 MLOAD SWAP1 PUSH1 0x20 ADD SWAP1 DUP1 DUP4 DUP4 PUSH1 0x0 JUMPDEST DUP4 DUP2 LT ISZERO PUSH2 0x28A JUMPI DUP1 DUP3 ADD MLOAD DUP2 DUP5 ADD MSTORE PUSH1 0x20 DUP2 ADD SWAP1 POP PUSH2 0x26F JUMP JUMPDEST POP POP POP POP SWAP1 POP SWAP1 DUP2 ADD SWAP1 PUSH1 0x1F AND DUP1 ISZERO PUSH2 0x2B7 JUMPI DUP1 DUP3 SUB DUP1 MLOAD PUSH1 0x1 DUP4 PUSH1 0x20 SUB PUSH2 0x100 EXP SUB NOT AND DUP2 MSTORE PUSH1 0x20 ADD SWAP2 POP JUMPDEST POP SWAP3 POP POP POP PUSH1 0x40 MLOAD DUP1 SWAP2 SUB SWAP1 RETURN JUMPDEST PUSH2 0x2CD PUSH2 0xD8B JUMP JUMPDEST PUSH1 0x40 MLOAD DUP1 DUP3 PUSH20 0xFFFFFFFFFFFFFFFFFFFFFFFFFFFFFFFFFFFFFFFF AND DUP2 MSTORE PUSH1 0x20 ADD SWAP2 POP POP PUSH1 0x40 MLOAD DUP1 SWAP2 SUB SWAP1 RETURN JUMPDEST PUSH2 0x345 PUSH1 0x4 DUP1 CALLDATASIZE SUB PUSH1 0x40 DUP2 LT ISZERO PUSH2 0x30F JUMPI PUSH1 0x0 DUP1 REVERT JUMPDEST DUP2 ADD SWAP1 DUP1 DUP1 CALLDATALOAD PUSH20 0xFFFFFFFFFFFFFFFFFFFFFFFFFFFFFFFFFFFFFFFF AND SWAP1 PUSH1 0x20 ADD SWAP1 SWAP3 SWAP2 SWAP1 DUP1 CALLDATALOAD SWAP1 PUSH1 0x20 ADD SWAP1 SWAP3 SWAP2 SWAP1 POP POP POP PUSH2 0xDB5 JUMP JUMPDEST PUSH1 0x40 MLOAD DUP1 DUP3 ISZERO ISZERO DUP2 MSTORE PUSH1 0x20 ADD SWAP2 POP POP PUSH1 0x40 MLOAD DUP1 SWAP2 SUB SWAP1 RETURN JUMPDEST PUSH2 0x3A9 PUSH1 0x4 DUP1 CALLDATASIZE SUB PUSH1 0x40 DUP2 LT ISZERO PUSH2 0x373 JUMPI PUSH1 0x0 DUP1 REVERT JUMPDEST DUP2 ADD SWAP1 DUP1 DUP1 CALLDATALOAD PUSH20 0xFFFFFFFFFFFFFFFFFFFFFFFFFFFFFFFFFFFFFFFF AND SWAP1 PUSH1 0x20 ADD SWAP1 SWAP3 SWAP2 SWAP1 DUP1 CALLDATALOAD SWAP1 PUSH1 0x20 ADD SWAP1 SWAP3 SWAP2 SWAP1 POP POP POP PUSH2 0xDD3 JUMP JUMPDEST PUSH1 0x40 MLOAD DUP1 DUP3 ISZERO ISZERO DUP2 MSTORE PUSH1 0x20 ADD SWAP2 POP POP PUSH1 0x40 MLOAD DUP1 SWAP2 SUB SWAP1 RETURN JUMPDEST PUSH2 0x40D PUSH1 0x4 DUP1 CALLDATASIZE SUB PUSH1 0x40 DUP2 LT ISZERO PUSH2 0x3D7 JUMPI PUSH1 0x0 DUP1 REVERT JUMPDEST DUP2 ADD SWAP1 DUP1 DUP1 CALLDATALOAD PUSH20 0xFFFFFFFFFFFFFFFFFFFFFFFFFFFFFFFFFFFFFFFF AND SWAP1 PUSH1 0x20 ADD SWAP1 SWAP3 SWAP2 SWAP1 DUP1 CALLDATALOAD SWAP1 PUSH1 0x20 ADD SWAP1 SWAP3 SWAP2 SWAP1 POP POP POP PUSH2 0xEAF JUMP JUMPDEST STOP JUMPDEST PUSH2 0x417 PUSH2 0xF83 JUMP JUMPDEST PUSH1 0x40 MLOAD DUP1 DUP3 DUP2 MSTORE PUSH1 0x20 ADD SWAP2 POP POP PUSH1 0x40 MLOAD DUP1 SWAP2 SUB SWAP1 RETURN JUMPDEST PUSH2 0x435 PUSH2 0xF8D JUMP JUMPDEST STOP JUMPDEST PUSH2 0x483 PUSH1 0x4 DUP1 CALLDATASIZE SUB PUSH1 0x40 DUP2 LT ISZERO PUSH2 0x44D JUMPI PUSH1 0x0 DUP1 REVERT JUMPDEST DUP2 ADD SWAP1 DUP1 DUP1 CALLDATALOAD PUSH20 0xFFFFFFFFFFFFFFFFFFFFFFFFFFFFFFFFFFFFFFFF AND SWAP1 PUSH1 0x20 ADD SWAP1 SWAP3 SWAP2 SWAP1 DUP1 CALLDATALOAD SWAP1 PUSH1 0x20 ADD SWAP1 SWAP3 SWAP2 SWAP1 POP POP POP PUSH2 0x1178 JUMP JUMPDEST STOP JUMPDEST PUSH2 0x4F1 PUSH1 0x4 DUP1 CALLDATASIZE SUB PUSH1 0x60 DUP2 LT ISZERO PUSH2 0x49B JUMPI PUSH1 0x0 DUP1 REVERT JUMPDEST DUP2 ADD SWAP1 DUP1 DUP1 CALLDATALOAD PUSH20 0xFFFFFFFFFFFFFFFFFFFFFFFFFFFFFFFFFFFFFFFF AND SWAP1 PUSH1 0x20 ADD SWAP1 SWAP3 SWAP2 SWAP1 DUP1 CALLDATALOAD PUSH20 0xFFFFFFFFFFFFFFFFFFFFFFFFFFFFFFFFFFFFFFFF AND SWAP1 PUSH1 0x20 ADD SWAP1 SWAP3 SWAP2 SWAP1 DUP1 CALLDATALOAD SWAP1 PUSH1 0x20 ADD SWAP1 SWAP3 SWAP2 SWAP1 POP POP POP PUSH2 0x1258 JUMP JUMPDEST PUSH1 0x40 MLOAD DUP1 DUP3 ISZERO ISZERO DUP2 MSTORE PUSH1 0x20 ADD SWAP2 POP POP PUSH1 0x40 MLOAD DUP1 SWAP2 SUB SWAP1 RETURN JUMPDEST PUSH2 0x511 PUSH2 0x1331 JUMP JUMPDEST PUSH1 0x40 MLOAD DUP1 DUP3 PUSH1 0xFF AND DUP2 MSTORE PUSH1 0x20 ADD SWAP2 POP POP PUSH1 0x40 MLOAD DUP1 SWAP2 SUB SWAP1 RETURN JUMPDEST PUSH2 0x532 PUSH2 0x1348 JUMP JUMPDEST PUSH1 0x40 MLOAD DUP1 DUP3 DUP2 MSTORE PUSH1 0x20 ADD SWAP2 POP POP PUSH1 0x40 MLOAD DUP1 SWAP2 SUB SWAP1 RETURN JUMPDEST PUSH2 0x594 PUSH1 0x4 DUP1 CALLDATASIZE SUB PUSH1 0x40 DUP2 LT ISZERO PUSH2 0x55E JUMPI PUSH1 0x0 DUP1 REVERT JUMPDEST DUP2 ADD SWAP1 DUP1 DUP1 CALLDATALOAD PUSH20 0xFFFFFFFFFFFFFFFFFFFFFFFFFFFFFFFFFFFFFFFF AND SWAP1 PUSH1 0x20 ADD SWAP1 SWAP3 SWAP2 SWAP1 DUP1 CALLDATALOAD SWAP1 PUSH1 0x20 ADD SWAP1 SWAP3 SWAP2 SWAP1 POP POP POP PUSH2 0x134E JUMP JUMPDEST PUSH1 0x40 MLOAD DUP1 DUP3 ISZERO ISZERO DUP2 MSTORE PUSH1 0x20 ADD SWAP2 POP POP PUSH1 0x40 MLOAD DUP1 SWAP2 SUB SWAP1 RETURN JUMPDEST PUSH2 0x5F8 PUSH1 0x4 DUP1 CALLDATASIZE SUB PUSH1 0x40 DUP2 LT ISZERO PUSH2 0x5C2 JUMPI PUSH1 0x0 DUP1 REVERT JUMPDEST DUP2 ADD SWAP1 DUP1 DUP1 CALLDATALOAD PUSH20 0xFFFFFFFFFFFFFFFFFFFFFFFFFFFFFFFFFFFFFFFF AND SWAP1 PUSH1 0x20 ADD SWAP1 SWAP3 SWAP2 SWAP1 DUP1 CALLDATALOAD SWAP1 PUSH1 0x20 ADD SWAP1 SWAP3 SWAP2 SWAP1 POP POP POP PUSH2 0x1401 JUMP JUMPDEST STOP JUMPDEST PUSH2 0x626 PUSH1 0x4 DUP1 CALLDATASIZE SUB PUSH1 0x20 DUP2 LT ISZERO PUSH2 0x610 JUMPI PUSH1 0x0 DUP1 REVERT JUMPDEST DUP2 ADD SWAP1 DUP1 DUP1 CALLDATALOAD SWAP1 PUSH1 0x20 ADD SWAP1 SWAP3 SWAP2 SWAP1 POP POP POP PUSH2 0x14D9 JUMP JUMPDEST PUSH1 0x40 MLOAD DUP1 DUP3 ISZERO ISZERO DUP2 MSTORE PUSH1 0x20 ADD SWAP2 POP POP PUSH1 0x40 MLOAD DUP1 SWAP2 SUB SWAP1 RETURN JUMPDEST PUSH2 0x646 PUSH2 0x14F5 JUMP JUMPDEST PUSH1 0x40 MLOAD DUP1 DUP3 DUP2 MSTORE PUSH1 0x20 ADD SWAP2 POP POP PUSH1 0x40 MLOAD DUP1 SWAP2 SUB SWAP1 RETURN JUMPDEST PUSH2 0x69E PUSH1 0x4 DUP1 CALLDATASIZE SUB PUSH1 0x20 DUP2 LT ISZERO PUSH2 0x672 JUMPI PUSH1 0x0 DUP1 REVERT JUMPDEST DUP2 ADD SWAP1 DUP1 DUP1 CALLDATALOAD PUSH20 0xFFFFFFFFFFFFFFFFFFFFFFFFFFFFFFFFFFFFFFFF AND SWAP1 PUSH1 0x20 ADD SWAP1 SWAP3 SWAP2 SWAP1 POP POP POP PUSH2 0x14FB JUMP JUMPDEST STOP JUMPDEST PUSH2 0x6E2 PUSH1 0x4 DUP1 CALLDATASIZE SUB PUSH1 0x20 DUP2 LT ISZERO PUSH2 0x6B6 JUMPI PUSH1 0x0 DUP1 REVERT JUMPDEST DUP2 ADD SWAP1 DUP1 DUP1 CALLDATALOAD PUSH20 0xFFFFFFFFFFFFFFFFFFFFFFFFFFFFFFFFFFFFFFFF AND SWAP1 PUSH1 0x20 ADD SWAP1 SWAP3 SWAP2 SWAP1 POP POP POP PUSH2 0x1619 JUMP JUMPDEST PUSH1 0x40 MLOAD DUP1 DUP3 DUP2 MSTORE PUSH1 0x20 ADD SWAP2 POP POP PUSH1 0x40 MLOAD DUP1 SWAP2 SUB SWAP1 RETURN JUMPDEST PUSH2 0x700 PUSH2 0x167C JUMP JUMPDEST STOP JUMPDEST PUSH2 0x74E PUSH1 0x4 DUP1 CALLDATASIZE SUB PUSH1 0x40 DUP2 LT ISZERO PUSH2 0x718 JUMPI PUSH1 0x0 DUP1 REVERT JUMPDEST DUP2 ADD SWAP1 DUP1 DUP1 CALLDATALOAD PUSH20 0xFFFFFFFFFFFFFFFFFFFFFFFFFFFFFFFFFFFFFFFF AND SWAP1 PUSH1 0x20 ADD SWAP1 SWAP3 SWAP2 SWAP1 DUP1 CALLDATALOAD SWAP1 PUSH1 0x20 ADD SWAP1 SWAP3 SWAP2 SWAP1 POP POP POP PUSH2 0x1807 JUMP JUMPDEST PUSH1 0x40 MLOAD DUP1 DUP3 ISZERO ISZERO DUP2 MSTORE PUSH1 0x20 ADD SWAP2 POP POP PUSH1 0x40 MLOAD DUP1 SWAP2 SUB SWAP1 RETURN JUMPDEST PUSH2 0x76E PUSH2 0x1870 JUMP JUMPDEST PUSH1 0x40 MLOAD DUP1 DUP3 DUP2 MSTORE PUSH1 0x20 ADD SWAP2 POP POP PUSH1 0x40 MLOAD DUP1 SWAP2 SUB SWAP1 RETURN JUMPDEST PUSH2 0x78C PUSH2 0x1876 JUMP JUMPDEST PUSH1 0x40 MLOAD DUP1 DUP3 PUSH20 0xFFFFFFFFFFFFFFFFFFFFFFFFFFFFFFFFFFFFFFFF AND DUP2 MSTORE PUSH1 0x20 ADD SWAP2 POP POP PUSH1 0x40 MLOAD DUP1 SWAP2 SUB SWAP1 RETURN JUMPDEST PUSH2 0x7FA PUSH1 0x4 DUP1 CALLDATASIZE SUB PUSH1 0x20 DUP2 LT ISZERO PUSH2 0x7CE JUMPI PUSH1 0x0 DUP1 REVERT JUMPDEST DUP2 ADD SWAP1 DUP1 DUP1 CALLDATALOAD PUSH20 0xFFFFFFFFFFFFFFFFFFFFFFFFFFFFFFFFFFFFFFFF AND SWAP1 PUSH1 0x20 ADD SWAP1 SWAP3 SWAP2 SWAP1 POP POP POP PUSH2 0x18A0 JUMP JUMPDEST STOP JUMPDEST PUSH2 0x83E PUSH1 0x4 DUP1 CALLDATASIZE SUB PUSH1 0x20 DUP2 LT ISZERO PUSH2 0x812 JUMPI PUSH1 0x0 DUP1 REVERT JUMPDEST DUP2 ADD SWAP1 DUP1 DUP1 CALLDATALOAD PUSH20 0xFFFFFFFFFFFFFFFFFFFFFFFFFFFFFFFFFFFFFFFF AND SWAP1 PUSH1 0x20 ADD SWAP1 SWAP3 SWAP2 SWAP1 POP POP POP PUSH2 0x19BC JUMP JUMPDEST STOP JUMPDEST PUSH2 0x848 PUSH2 0x1AE1 JUMP JUMPDEST PUSH1 0x40 MLOAD DUP1 DUP1 PUSH1 0x20 ADD DUP3 DUP2 SUB DUP3 MSTORE DUP4 DUP2 DUP2 MLOAD DUP2 MSTORE PUSH1 0x20 ADD SWAP2 POP DUP1 MLOAD SWAP1 PUSH1 0x20 ADD SWAP1 DUP1 DUP4 DUP4 PUSH1 0x0 JUMPDEST DUP4 DUP2 LT ISZERO PUSH2 0x888 JUMPI DUP1 DUP3 ADD MLOAD DUP2 DUP5 ADD MSTORE PUSH1 0x20 DUP2 ADD SWAP1 POP PUSH2 0x86D JUMP JUMPDEST POP POP POP POP SWAP1 POP SWAP1 DUP2 ADD SWAP1 PUSH1 0x1F AND DUP1 ISZERO PUSH2 0x8B5 JUMPI DUP1 DUP3 SUB DUP1 MLOAD PUSH1 0x1 DUP4 PUSH1 0x20 SUB PUSH2 0x100 EXP SUB NOT AND DUP2 MSTORE PUSH1 0x20 ADD SWAP2 POP JUMPDEST POP SWAP3 POP POP POP PUSH1 0x40 MLOAD DUP1 SWAP2 SUB SWAP1 RETURN JUMPDEST PUSH2 0x905 PUSH1 0x4 DUP1 CALLDATASIZE SUB PUSH1 0x20 DUP2 LT ISZERO PUSH2 0x8D9 JUMPI PUSH1 0x0 DUP1 REVERT JUMPDEST DUP2 ADD SWAP1 DUP1 DUP1 CALLDATALOAD PUSH20 0xFFFFFFFFFFFFFFFFFFFFFFFFFFFFFFFFFFFFFFFF AND SWAP1 PUSH1 0x20 ADD SWAP1 SWAP3 SWAP2 SWAP1 POP POP POP PUSH2 0x1B83 JUMP JUMPDEST PUSH1 0x40 MLOAD DUP1 DUP3 DUP2 MSTORE PUSH1 0x20 ADD SWAP2 POP POP PUSH1 0x40 MLOAD DUP1 SWAP2 SUB SWAP1 RETURN JUMPDEST PUSH2 0x95D PUSH1 0x4 DUP1 CALLDATASIZE SUB PUSH1 0x20 DUP2 LT ISZERO PUSH2 0x931 JUMPI PUSH1 0x0 DUP1 REVERT JUMPDEST DUP2 ADD SWAP1 DUP1 DUP1 CALLDATALOAD PUSH20 0xFFFFFFFFFFFFFFFFFFFFFFFFFFFFFFFFFFFFFFFF AND SWAP1 PUSH1 0x20 ADD SWAP1 SWAP3 SWAP2 SWAP1 POP POP POP PUSH2 0x1BCC JUMP JUMPDEST STOP JUMPDEST PUSH2 0x967 PUSH2 0x1CEA JUMP JUMPDEST PUSH1 0x40 MLOAD DUP1 DUP3 DUP2 MSTORE PUSH1 0x20 ADD SWAP2 POP POP PUSH1 0x40 MLOAD DUP1 SWAP2 SUB SWAP1 RETURN JUMPDEST PUSH2 0x9C9 PUSH1 0x4 DUP1 CALLDATASIZE SUB PUSH1 0x40 DUP2 LT ISZERO PUSH2 0x993 JUMPI PUSH1 0x0 DUP1 REVERT JUMPDEST DUP2 ADD SWAP1 DUP1 DUP1 CALLDATALOAD PUSH20 0xFFFFFFFFFFFFFFFFFFFFFFFFFFFFFFFFFFFFFFFF AND SWAP1 PUSH1 0x20 ADD SWAP1 SWAP3 SWAP2 SWAP1 DUP1 CALLDATALOAD SWAP1 PUSH1 0x20 ADD SWAP1 SWAP3 SWAP2 SWAP1 POP POP POP PUSH2 0x1CF0 JUMP JUMPDEST PUSH1 0x40 MLOAD DUP1 DUP3 ISZERO ISZERO DUP2 MSTORE PUSH1 0x20 ADD SWAP2 POP POP PUSH1 0x40 MLOAD DUP1 SWAP2 SUB SWAP1 RETURN JUMPDEST PUSH2 0xA2D PUSH1 0x4 DUP1 CALLDATASIZE SUB PUSH1 0x40 DUP2 LT ISZERO PUSH2 0x9F7 JUMPI PUSH1 0x0 DUP1 REVERT JUMPDEST DUP2 ADD SWAP1 DUP1 DUP1 CALLDATALOAD PUSH20 0xFFFFFFFFFFFFFFFFFFFFFFFFFFFFFFFFFFFFFFFF AND SWAP1 PUSH1 0x20 ADD SWAP1 SWAP3 SWAP2 SWAP1 DUP1 CALLDATALOAD SWAP1 PUSH1 0x20 ADD SWAP1 SWAP3 SWAP2 SWAP1 POP POP POP PUSH2 0x1DBD JUMP JUMPDEST PUSH1 0x40 MLOAD DUP1 DUP3 ISZERO ISZERO DUP2 MSTORE PUSH1 0x20 ADD SWAP2 POP POP PUSH1 0x40 MLOAD DUP1 SWAP2 SUB SWAP1 RETURN JUMPDEST PUSH2 0xA4D PUSH2 0x1DDB JUMP JUMPDEST PUSH1 0x40 MLOAD DUP1 DUP3 DUP2 MSTORE PUSH1 0x20 ADD SWAP2 POP POP PUSH1 0x40 MLOAD DUP1 SWAP2 SUB SWAP1 RETURN JUMPDEST PUSH2 0xAAF PUSH1 0x4 DUP1 CALLDATASIZE SUB PUSH1 0x40 DUP2 LT ISZERO PUSH2 0xA79 JUMPI PUSH1 0x0 DUP1 REVERT JUMPDEST DUP2 ADD SWAP1 DUP1 DUP1 CALLDATALOAD PUSH20 0xFFFFFFFFFFFFFFFFFFFFFFFFFFFFFFFFFFFFFFFF AND SWAP1 PUSH1 0x20 ADD SWAP1 SWAP3 SWAP2 SWAP1 DUP1 CALLDATALOAD SWAP1 PUSH1 0x20 ADD SWAP1 SWAP3 SWAP2 SWAP1 POP POP POP PUSH2 0x1DE1 JUMP JUMPDEST PUSH1 0x40 MLOAD DUP1 DUP3 ISZERO ISZERO DUP2 MSTORE PUSH1 0x20 ADD SWAP2 POP POP PUSH1 0x40 MLOAD DUP1 SWAP2 SUB SWAP1 RETURN JUMPDEST PUSH2 0xACF PUSH2 0x1EBD JUMP JUMPDEST PUSH1 0x40 MLOAD DUP1 DUP3 DUP2 MSTORE PUSH1 0x20 ADD SWAP2 POP POP PUSH1 0x40 MLOAD DUP1 SWAP2 SUB SWAP1 RETURN JUMPDEST PUSH2 0xAED PUSH2 0x1EC3 JUMP JUMPDEST PUSH1 0x40 MLOAD DUP1 DUP3 PUSH20 0xFFFFFFFFFFFFFFFFFFFFFFFFFFFFFFFFFFFFFFFF AND DUP2 MSTORE PUSH1 0x20 ADD SWAP2 POP POP PUSH1 0x40 MLOAD DUP1 SWAP2 SUB SWAP1 RETURN JUMPDEST PUSH2 0xB21 PUSH2 0x1EE9 JUMP JUMPDEST PUSH1 0x40 MLOAD DUP1 DUP3 DUP2 MSTORE PUSH1 0x20 ADD SWAP2 POP POP PUSH1 0x40 MLOAD DUP1 SWAP2 SUB SWAP1 RETURN JUMPDEST PUSH2 0xB79 PUSH1 0x4 DUP1 CALLDATASIZE SUB PUSH1 0x20 DUP2 LT ISZERO PUSH2 0xB4D JUMPI PUSH1 0x0 DUP1 REVERT JUMPDEST DUP2 ADD SWAP1 DUP1 DUP1 CALLDATALOAD PUSH20 0xFFFFFFFFFFFFFFFFFFFFFFFFFFFFFFFFFFFFFFFF AND SWAP1 PUSH1 0x20 ADD SWAP1 SWAP3 SWAP2 SWAP1 POP POP POP PUSH2 0x1EF3 JUMP JUMPDEST STOP JUMPDEST PUSH2 0xBDD PUSH1 0x4 DUP1 CALLDATASIZE SUB PUSH1 0x40 DUP2 LT ISZERO PUSH2 0xB91 JUMPI PUSH1 0x0 DUP1 REVERT JUMPDEST DUP2 ADD SWAP1 DUP1 DUP1 CALLDATALOAD PUSH20 0xFFFFFFFFFFFFFFFFFFFFFFFFFFFFFFFFFFFFFFFF AND SWAP1 PUSH1 0x20 ADD SWAP1 SWAP3 SWAP2 SWAP1 DUP1 CALLDATALOAD PUSH20 0xFFFFFFFFFFFFFFFFFFFFFFFFFFFFFFFFFFFFFFFF AND SWAP1 PUSH1 0x20 ADD SWAP1 SWAP3 SWAP2 SWAP1 POP POP POP PUSH2 0x1FFA JUMP JUMPDEST PUSH1 0x40 MLOAD DUP1 DUP3 DUP2 MSTORE PUSH1 0x20 ADD SWAP2 POP POP PUSH1 0x40 MLOAD DUP1 SWAP2 SUB SWAP1 RETURN JUMPDEST PUSH2 0xC5F PUSH1 0x4 DUP1 CALLDATASIZE SUB PUSH1 0x60 DUP2 LT ISZERO PUSH2 0xC09 JUMPI PUSH1 0x0 DUP1 REVERT JUMPDEST DUP2 ADD SWAP1 DUP1 DUP1 CALLDATALOAD PUSH20 0xFFFFFFFFFFFFFFFFFFFFFFFFFFFFFFFFFFFFFFFF AND SWAP1 PUSH1 0x20 ADD SWAP1 SWAP3 SWAP2 SWAP1 DUP1 CALLDATALOAD PUSH20 0xFFFFFFFFFFFFFFFFFFFFFFFFFFFFFFFFFFFFFFFF AND SWAP1 PUSH1 0x20 ADD SWAP1 SWAP3 SWAP2 SWAP1 DUP1 CALLDATALOAD SWAP1 PUSH1 0x20 ADD SWAP1 SWAP3 SWAP2 SWAP1 POP POP POP PUSH2 0x2081 JUMP JUMPDEST PUSH1 0x40 MLOAD DUP1 DUP3 ISZERO ISZERO DUP2 MSTORE PUSH1 0x20 ADD SWAP2 POP POP PUSH1 0x40 MLOAD DUP1 SWAP2 SUB SWAP1 RETURN JUMPDEST PUSH2 0xCB9 PUSH1 0x4 DUP1 CALLDATASIZE SUB PUSH1 0x20 DUP2 LT ISZERO PUSH2 0xC8D JUMPI PUSH1 0x0 DUP1 REVERT JUMPDEST DUP2 ADD SWAP1 DUP1 DUP1 CALLDATALOAD PUSH20 0xFFFFFFFFFFFFFFFFFFFFFFFFFFFFFFFFFFFFFFFF AND SWAP1 PUSH1 0x20 ADD SWAP1 SWAP3 SWAP2 SWAP1 POP POP POP PUSH2 0x2340 JUMP JUMPDEST STOP JUMPDEST PUSH2 0xCE7 PUSH1 0x4 DUP1 CALLDATASIZE SUB PUSH1 0x20 DUP2 LT ISZERO PUSH2 0xCD1 JUMPI PUSH1 0x0 DUP1 REVERT JUMPDEST DUP2 ADD SWAP1 DUP1 DUP1 CALLDATALOAD SWAP1 PUSH1 0x20 ADD SWAP1 SWAP3 SWAP2 SWAP1 POP POP POP PUSH2 0x2550 JUMP JUMPDEST STOP JUMPDEST PUSH1 0x60 PUSH1 0x9 DUP1 SLOAD PUSH1 0x1 DUP2 PUSH1 0x1 AND ISZERO PUSH2 0x100 MUL SUB AND PUSH1 0x2 SWAP1 DIV DUP1 PUSH1 0x1F ADD PUSH1 0x20 DUP1 SWAP2 DIV MUL PUSH1 0x20 ADD PUSH1 0x40 MLOAD SWAP1 DUP2 ADD PUSH1 0x40 MSTORE DUP1 SWAP3 SWAP2 SWAP1 DUP2 DUP2 MSTORE PUSH1 0x20 ADD DUP3 DUP1 SLOAD PUSH1 0x1 DUP2 PUSH1 0x1 AND ISZERO PUSH2 0x100 MUL SUB AND PUSH1 0x2 SWAP1 DIV DUP1 ISZERO PUSH2 0xD81 JUMPI DUP1 PUSH1 0x1F LT PUSH2 0xD56 JUMPI PUSH2 0x100 DUP1 DUP4 SLOAD DIV MUL DUP4 MSTORE SWAP2 PUSH1 0x20 ADD SWAP2 PUSH2 0xD81 JUMP JUMPDEST DUP3 ADD SWAP2 SWAP1 PUSH1 0x0 MSTORE PUSH1 0x20 PUSH1 0x0 KECCAK256 SWAP1 JUMPDEST DUP2 SLOAD DUP2 MSTORE SWAP1 PUSH1 0x1 ADD SWAP1 PUSH1 0x20 ADD DUP1 DUP4 GT PUSH2 0xD64 JUMPI DUP3 SWAP1 SUB PUSH1 0x1F AND DUP3 ADD SWAP2 JUMPDEST POP POP POP POP POP SWAP1 POP SWAP1 JUMP JUMPDEST PUSH1 0x0 PUSH1 0x3 PUSH1 0x0 SWAP1 SLOAD SWAP1 PUSH2 0x100 EXP SWAP1 DIV PUSH20 0xFFFFFFFFFFFFFFFFFFFFFFFFFFFFFFFFFFFFFFFF AND SWAP1 POP SWAP1 JUMP JUMPDEST PUSH1 0x0 PUSH2 0xDC9 PUSH2 0xDC2 PUSH2 0x2622 JUMP JUMPDEST DUP5 DUP5 PUSH2 0x262A JUMP JUMPDEST PUSH1 0x1 SWAP1 POP SWAP3 SWAP2 POP POP JUMP JUMPDEST PUSH1 0x0 PUSH1 0x1 ISZERO ISZERO PUSH1 0x2 PUSH1 0x0 CALLER PUSH20 0xFFFFFFFFFFFFFFFFFFFFFFFFFFFFFFFFFFFFFFFF AND PUSH20 0xFFFFFFFFFFFFFFFFFFFFFFFFFFFFFFFFFFFFFFFF AND DUP2 MSTORE PUSH1 0x20 ADD SWAP1 DUP2 MSTORE PUSH1 0x20 ADD PUSH1 0x0 KECCAK256 PUSH1 0x0 SWAP1 SLOAD SWAP1 PUSH2 0x100 EXP SWAP1 DIV PUSH1 0xFF AND ISZERO ISZERO EQ PUSH2 0xE9B JUMPI PUSH1 0x40 MLOAD PUSH32 0x8C379A000000000000000000000000000000000000000000000000000000000 DUP2 MSTORE PUSH1 0x4 ADD DUP1 DUP1 PUSH1 0x20 ADD DUP3 DUP2 SUB DUP3 MSTORE PUSH1 0x12 DUP2 MSTORE PUSH1 0x20 ADD DUP1 PUSH32 0x63616E277420706572666F726D206D656C740000000000000000000000000000 DUP2 MSTORE POP PUSH1 0x20 ADD SWAP2 POP POP PUSH1 0x40 MLOAD DUP1 SWAP2 SUB SWAP1 REVERT JUMPDEST PUSH2 0xEA5 DUP4 DUP4 PUSH2 0x2821 JUMP JUMPDEST PUSH1 0x1 SWAP1 POP SWAP3 SWAP2 POP POP JUMP JUMPDEST PUSH1 0x1 ISZERO ISZERO PUSH1 0x2 PUSH1 0x0 CALLER PUSH20 0xFFFFFFFFFFFFFFFFFFFFFFFFFFFFFFFFFFFFFFFF AND PUSH20 0xFFFFFFFFFFFFFFFFFFFFFFFFFFFFFFFFFFFFFFFF AND DUP2 MSTORE PUSH1 0x20 ADD SWAP1 DUP2 MSTORE PUSH1 0x20 ADD PUSH1 0x0 KECCAK256 PUSH1 0x0 SWAP1 SLOAD SWAP1 PUSH2 0x100 EXP SWAP1 DIV PUSH1 0xFF AND ISZERO ISZERO EQ PUSH2 0xF75 JUMPI PUSH1 0x40 MLOAD PUSH32 0x8C379A000000000000000000000000000000000000000000000000000000000 DUP2 MSTORE PUSH1 0x4 ADD DUP1 DUP1 PUSH1 0x20 ADD DUP3 DUP2 SUB DUP3 MSTORE PUSH1 0x12 DUP2 MSTORE PUSH1 0x20 ADD DUP1 PUSH32 0x63616E277420706572666F726D206D656C740000000000000000000000000000 DUP2 MSTORE POP PUSH1 0x20 ADD SWAP2 POP POP PUSH1 0x40 MLOAD DUP1 SWAP2 SUB SWAP1 REVERT JUMPDEST PUSH2 0xF7F DUP3 DUP3 PUSH2 0x2A53 JUMP JUMPDEST POP POP JUMP JUMPDEST PUSH1 0x0 PUSH1 0x7 SLOAD SWAP1 POP SWAP1 JUMP JUMPDEST PUSH1 0x4 PUSH1 0x0 SWAP1 SLOAD SWAP1 PUSH2 0x100 EXP SWAP1 DIV PUSH20 0xFFFFFFFFFFFFFFFFFFFFFFFFFFFFFFFFFFFFFFFF AND PUSH20 0xFFFFFFFFFFFFFFFFFFFFFFFFFFFFFFFFFFFFFFFF AND CALLER PUSH20 0xFFFFFFFFFFFFFFFFFFFFFFFFFFFFFFFFFFFFFFFF AND EQ PUSH2 0x1033 JUMPI PUSH1 0x40 MLOAD PUSH32 0x8C379A000000000000000000000000000000000000000000000000000000000 DUP2 MSTORE PUSH1 0x4 ADD DUP1 DUP1 PUSH1 0x20 ADD DUP3 DUP2 SUB DUP3 MSTORE PUSH1 0x21 DUP2 MSTORE PUSH1 0x20 ADD DUP1 PUSH2 0x4448 PUSH1 0x21 SWAP2 CODECOPY PUSH1 0x40 ADD SWAP2 POP POP PUSH1 0x40 MLOAD DUP1 SWAP2 SUB SWAP1 REVERT JUMPDEST PUSH1 0x4 PUSH1 0x0 SWAP1 SLOAD SWAP1 PUSH2 0x100 EXP SWAP1 DIV PUSH20 0xFFFFFFFFFFFFFFFFFFFFFFFFFFFFFFFFFFFFFFFF AND PUSH20 0xFFFFFFFFFFFFFFFFFFFFFFFFFFFFFFFFFFFFFFFF AND PUSH1 0x3 PUSH1 0x0 SWAP1 SLOAD SWAP1 PUSH2 0x100 EXP SWAP1 DIV PUSH20 0xFFFFFFFFFFFFFFFFFFFFFFFFFFFFFFFFFFFFFFFF AND PUSH20 0xFFFFFFFFFFFFFFFFFFFFFFFFFFFFFFFFFFFFFFFF AND PUSH32 0x2AD39E5173F89BDD5497202BD74024B5DA045106C3163DDB078D2E89FF6D6DE PUSH1 0x40 MLOAD PUSH1 0x40 MLOAD DUP1 SWAP2 SUB SWAP1 LOG3 PUSH1 0x4 PUSH1 0x0 SWAP1 SLOAD SWAP1 PUSH2 0x100 EXP SWAP1 DIV PUSH20 0xFFFFFFFFFFFFFFFFFFFFFFFFFFFFFFFFFFFFFFFF AND PUSH1 0x3 PUSH1 0x0 PUSH2 0x100 EXP DUP2 SLOAD DUP2 PUSH20 0xFFFFFFFFFFFFFFFFFFFFFFFFFFFFFFFFFFFFFFFF MUL NOT AND SWAP1 DUP4 PUSH20 0xFFFFFFFFFFFFFFFFFFFFFFFFFFFFFFFFFFFFFFFF AND MUL OR SWAP1 SSTORE POP PUSH1 0x0 PUSH1 0x4 PUSH1 0x0 PUSH2 0x100 EXP DUP2 SLOAD DUP2 PUSH20 0xFFFFFFFFFFFFFFFFFFFFFFFFFFFFFFFFFFFFFFFF MUL NOT AND SWAP1 DUP4 PUSH20 0xFFFFFFFFFFFFFFFFFFFFFFFFFFFFFFFFFFFFFFFF AND MUL OR SWAP1 SSTORE POP JUMP JUMPDEST PUSH1 0x1 ISZERO ISZERO PUSH1 0x2 PUSH1 0x0 CALLER PUSH20 0xFFFFFFFFFFFFFFFFFFFFFFFFFFFFFFFFFFFFFFFF AND PUSH20 0xFFFFFFFFFFFFFFFFFFFFFFFFFFFFFFFFFFFFFFFF AND DUP2 MSTORE PUSH1 0x20 ADD SWAP1 DUP2 MSTORE PUSH1 0x20 ADD PUSH1 0x0 KECCAK256 PUSH1 0x0 SWAP1 SLOAD SWAP1 PUSH2 0x100 EXP SWAP1 DIV PUSH1 0xFF AND ISZERO ISZERO EQ PUSH2 0x123E JUMPI PUSH1 0x40 MLOAD PUSH32 0x8C379A000000000000000000000000000000000000000000000000000000000 DUP2 MSTORE PUSH1 0x4 ADD DUP1 DUP1 PUSH1 0x20 ADD DUP3 DUP2 SUB DUP3 MSTORE PUSH1 0x12 DUP2 MSTORE PUSH1 0x20 ADD DUP1 PUSH32 0x63616E277420706572666F726D206D656C740000000000000000000000000000 DUP2 MSTORE POP PUSH1 0x20 ADD SWAP2 POP POP PUSH1 0x40 MLOAD DUP1 SWAP2 SUB SWAP1 REVERT JUMPDEST PUSH2 0x1249 CALLER DUP4 DUP4 PUSH2 0x262A JUMP JUMPDEST PUSH2 0x1254 CALLER DUP4 DUP4 PUSH2 0x2B68 JUMP JUMPDEST POP POP JUMP JUMPDEST PUSH1 0x0 PUSH2 0x1265 DUP5 DUP5 DUP5 PUSH2 0x2C91 JUMP JUMPDEST PUSH2 0x1326 DUP5 PUSH2 0x1271 PUSH2 0x2622 JUMP JUMPDEST PUSH2 0x1321 DUP6 PUSH1 0x40 MLOAD DUP1 PUSH1 0x60 ADD PUSH1 0x40 MSTORE DUP1 PUSH1 0x28 DUP2 MSTORE PUSH1 0x20 ADD PUSH2 0x4349 PUSH1 0x28 SWAP2 CODECOPY PUSH1 0x6 PUSH1 0x0 DUP12 PUSH20 0xFFFFFFFFFFFFFFFFFFFFFFFFFFFFFFFFFFFFFFFF AND PUSH20 0xFFFFFFFFFFFFFFFFFFFFFFFFFFFFFFFFFFFFFFFF AND DUP2 MSTORE PUSH1 0x20 ADD SWAP1 DUP2 MSTORE PUSH1 0x20 ADD PUSH1 0x0 KECCAK256 PUSH1 0x0 PUSH2 0x12D7 PUSH2 0x2622 JUMP JUMPDEST PUSH20 0xFFFFFFFFFFFFFFFFFFFFFFFFFFFFFFFFFFFFFFFF AND PUSH20 0xFFFFFFFFFFFFFFFFFFFFFFFFFFFFFFFFFFFFFFFF AND DUP2 MSTORE PUSH1 0x20 ADD SWAP1 DUP2 MSTORE PUSH1 0x20 ADD PUSH1 0x0 KECCAK256 SLOAD PUSH2 0x2E0C SWAP1 SWAP3 SWAP2 SWAP1 PUSH4 0xFFFFFFFF AND JUMP JUMPDEST PUSH2 0x262A JUMP JUMPDEST PUSH1 0x1 SWAP1 POP SWAP4 SWAP3 POP POP POP JUMP JUMPDEST PUSH1 0x0 PUSH1 0xB PUSH1 0x0 SWAP1 SLOAD SWAP1 PUSH2 0x100 EXP SWAP1 DIV PUSH1 0xFF AND SWAP1 POP SWAP1 JUMP JUMPDEST PUSH1 0xF SLOAD DUP2 JUMP JUMPDEST PUSH1 0x0 PUSH2 0x13F7 PUSH2 0x135B PUSH2 0x2622 JUMP JUMPDEST DUP5 PUSH2 0x13F2 DUP6 PUSH1 0x6 PUSH1 0x0 PUSH2 0x136C PUSH2 0x2622 JUMP JUMPDEST PUSH20 0xFFFFFFFFFFFFFFFFFFFFFFFFFFFFFFFFFFFFFFFF AND PUSH20 0xFFFFFFFFFFFFFFFFFFFFFFFFFFFFFFFFFFFFFFFF AND DUP2 MSTORE PUSH1 0x20 ADD SWAP1 DUP2 MSTORE PUSH1 0x20 ADD PUSH1 0x0 KECCAK256 PUSH1 0x0 DUP10 PUSH20 0xFFFFFFFFFFFFFFFFFFFFFFFFFFFFFFFFFFFFFFFF AND PUSH20 0xFFFFFFFFFFFFFFFFFFFFFFFFFFFFFFFFFFFFFFFF AND DUP2 MSTORE PUSH1 0x20 ADD SWAP1 DUP2 MSTORE PUSH1 0x20 ADD PUSH1 0x0 KECCAK256 SLOAD PUSH2 0x2ECC SWAP1 SWAP2 SWAP1 PUSH4 0xFFFFFFFF AND JUMP JUMPDEST PUSH2 0x262A JUMP JUMPDEST PUSH1 0x1 SWAP1 POP SWAP3 SWAP2 POP POP JUMP JUMPDEST PUSH2 0x1409 PUSH2 0x2622 JUMP JUMPDEST PUSH20 0xFFFFFFFFFFFFFFFFFFFFFFFFFFFFFFFFFFFFFFFF AND PUSH1 0x1 PUSH1 0x0 SWAP1 SLOAD SWAP1 PUSH2 0x100 EXP SWAP1 DIV PUSH20 0xFFFFFFFFFFFFFFFFFFFFFFFFFFFFFFFFFFFFFFFF AND PUSH20 0xFFFFFFFFFFFFFFFFFFFFFFFFFFFFFFFFFFFFFFFF AND EQ PUSH2 0x14CB JUMPI PUSH1 0x40 MLOAD PUSH32 0x8C379A000000000000000000000000000000000000000000000000000000000 DUP2 MSTORE PUSH1 0x4 ADD DUP1 DUP1 PUSH1 0x20 ADD DUP3 DUP2 SUB DUP3 MSTORE PUSH1 0x20 DUP2 MSTORE PUSH1 0x20 ADD DUP1 PUSH32 0x4F776E61626C653A2063616C6C6572206973206E6F7420746865206F776E6572 DUP2 MSTORE POP PUSH1 0x20 ADD SWAP2 POP POP PUSH1 0x40 MLOAD DUP1 SWAP2 SUB SWAP1 REVERT JUMPDEST PUSH2 0x14D5 DUP3 DUP3 PUSH2 0x2F54 JUMP JUMPDEST POP POP JUMP JUMPDEST PUSH1 0x0 PUSH2 0x14EC PUSH2 0x14E6 PUSH2 0x2622 JUMP JUMPDEST DUP4 PUSH2 0x3111 JUMP JUMPDEST PUSH1 0x1 SWAP1 POP SWAP2 SWAP1 POP JUMP JUMPDEST PUSH1 0x13 SLOAD DUP2 JUMP JUMPDEST PUSH1 0x3 PUSH1 0x0 SWAP1 SLOAD SWAP1 PUSH2 0x100 EXP SWAP1 DIV PUSH20 0xFFFFFFFFFFFFFFFFFFFFFFFFFFFFFFFFFFFFFFFF AND PUSH20 0xFFFFFFFFFFFFFFFFFFFFFFFFFFFFFFFFFFFFFFFF AND CALLER PUSH20 0xFFFFFFFFFFFFFFFFFFFFFFFFFFFFFFFFFFFFFFFF AND EQ PUSH2 0x15BE JUMPI PUSH1 0x40 MLOAD PUSH32 0x8C379A000000000000000000000000000000000000000000000000000000000 DUP2 MSTORE PUSH1 0x4 ADD DUP1 DUP1 PUSH1 0x20 ADD DUP3 DUP2 SUB DUP3 MSTORE PUSH1 0x19 DUP2 MSTORE PUSH1 0x20 ADD DUP1 PUSH32 0x63616C6C6572206E6F742061206D656C7465722061646D696E00000000000000 DUP2 MSTORE POP PUSH1 0x20 ADD SWAP2 POP POP PUSH1 0x40 MLOAD DUP1 SWAP2 SUB SWAP1 REVERT JUMPDEST PUSH1 0x0 PUSH1 0x2 PUSH1 0x0 DUP4 PUSH20 0xFFFFFFFFFFFFFFFFFFFFFFFFFFFFFFFFFFFFFFFF AND PUSH20 0xFFFFFFFFFFFFFFFFFFFFFFFFFFFFFFFFFFFFFFFF AND DUP2 MSTORE PUSH1 0x20 ADD SWAP1 DUP2 MSTORE PUSH1 0x20 ADD PUSH1 0x0 KECCAK256 PUSH1 0x0 PUSH2 0x100 EXP DUP2 SLOAD DUP2 PUSH1 0xFF MUL NOT AND SWAP1 DUP4 ISZERO ISZERO MUL OR SWAP1 SSTORE POP POP JUMP JUMPDEST PUSH1 0x0 PUSH2 0x1675 PUSH2 0x1627 DUP4 PUSH2 0x32D5 JUMP JUMPDEST PUSH1 0x5 PUSH1 0x0 DUP6 PUSH20 0xFFFFFFFFFFFFFFFFFFFFFFFFFFFFFFFFFFFFFFFF AND PUSH20 0xFFFFFFFFFFFFFFFFFFFFFFFFFFFFFFFFFFFFFFFF AND DUP2 MSTORE PUSH1 0x20 ADD SWAP1 DUP2 MSTORE PUSH1 0x20 ADD PUSH1 0x0 KECCAK256 SLOAD PUSH2 0x2ECC SWAP1 SWAP2 SWAP1 PUSH4 0xFFFFFFFF AND JUMP JUMPDEST SWAP1 POP SWAP2 SWAP1 POP JUMP JUMPDEST PUSH2 0x1684 PUSH2 0x2622 JUMP JUMPDEST PUSH20 0xFFFFFFFFFFFFFFFFFFFFFFFFFFFFFFFFFFFFFFFF AND PUSH1 0x1 PUSH1 0x0 SWAP1 SLOAD SWAP1 PUSH2 0x100 EXP SWAP1 DIV PUSH20 0xFFFFFFFFFFFFFFFFFFFFFFFFFFFFFFFFFFFFFFFF AND PUSH20 0xFFFFFFFFFFFFFFFFFFFFFFFFFFFFFFFFFFFFFFFF AND EQ PUSH2 0x1746 JUMPI PUSH1 0x40 MLOAD PUSH32 0x8C379A000000000000000000000000000000000000000000000000000000000 DUP2 MSTORE PUSH1 0x4 ADD DUP1 DUP1 PUSH1 0x20 ADD DUP3 DUP2 SUB DUP3 MSTORE PUSH1 0x20 DUP2 MSTORE PUSH1 0x20 ADD DUP1 PUSH32 0x4F776E61626C653A2063616C6C6572206973206E6F7420746865206F776E6572 DUP2 MSTORE POP PUSH1 0x20 ADD SWAP2 POP POP PUSH1 0x40 MLOAD DUP1 SWAP2 SUB SWAP1 REVERT JUMPDEST PUSH1 0x0 PUSH20 0xFFFFFFFFFFFFFFFFFFFFFFFFFFFFFFFFFFFFFFFF AND PUSH1 0x1 PUSH1 0x0 SWAP1 SLOAD SWAP1 PUSH2 0x100 EXP SWAP1 DIV PUSH20 0xFFFFFFFFFFFFFFFFFFFFFFFFFFFFFFFFFFFFFFFF AND PUSH20 0xFFFFFFFFFFFFFFFFFFFFFFFFFFFFFFFFFFFFFFFF AND PUSH32 0x8BE0079C531659141344CD1FD0A4F28419497F9722A3DAAFE3B4186F6B6457E0 PUSH1 0x40 MLOAD PUSH1 0x40 MLOAD DUP1 SWAP2 SUB SWAP1 LOG3 PUSH1 0x0 PUSH1 0x1 PUSH1 0x0 PUSH2 0x100 EXP DUP2 SLOAD DUP2 PUSH20 0xFFFFFFFFFFFFFFFFFFFFFFFFFFFFFFFFFFFFFFFF MUL NOT AND SWAP1 DUP4 PUSH20 0xFFFFFFFFFFFFFFFFFFFFFFFFFFFFFFFFFFFFFFFF AND MUL OR SWAP1 SSTORE POP JUMP JUMPDEST PUSH1 0x0 DUP1 PUSH2 0x1847 DUP4 PUSH1 0x40 MLOAD DUP1 PUSH1 0x60 ADD PUSH1 0x40 MSTORE DUP1 PUSH1 0x24 DUP2 MSTORE PUSH1 0x20 ADD PUSH2 0x4371 PUSH1 0x24 SWAP2 CODECOPY PUSH2 0x1838 DUP8 PUSH2 0x1833 PUSH2 0x2622 JUMP JUMPDEST PUSH2 0x1FFA JUMP JUMPDEST PUSH2 0x2E0C SWAP1 SWAP3 SWAP2 SWAP1 PUSH4 0xFFFFFFFF AND JUMP JUMPDEST SWAP1 POP PUSH2 0x185B DUP5 PUSH2 0x1855 PUSH2 0x2622 JUMP JUMPDEST DUP4 PUSH2 0x262A JUMP JUMPDEST PUSH2 0x1865 DUP5 DUP5 PUSH2 0x3111 JUMP JUMPDEST PUSH1 0x1 SWAP2 POP POP SWAP3 SWAP2 POP POP JUMP JUMPDEST PUSH1 0x10 SLOAD DUP2 JUMP JUMPDEST PUSH1 0x0 PUSH1 0x1 PUSH1 0x0 SWAP1 SLOAD SWAP1 PUSH2 0x100 EXP SWAP1 DIV PUSH20 0xFFFFFFFFFFFFFFFFFFFFFFFFFFFFFFFFFFFFFFFF AND SWAP1 POP SWAP1 JUMP JUMPDEST PUSH2 0x18A8 PUSH2 0x2622 JUMP JUMPDEST PUSH20 0xFFFFFFFFFFFFFFFFFFFFFFFFFFFFFFFFFFFFFFFF AND PUSH1 0x1 PUSH1 0x0 SWAP1 SLOAD SWAP1 PUSH2 0x100 EXP SWAP1 DIV PUSH20 0xFFFFFFFFFFFFFFFFFFFFFFFFFFFFFFFFFFFFFFFF AND PUSH20 0xFFFFFFFFFFFFFFFFFFFFFFFFFFFFFFFFFFFFFFFF AND EQ PUSH2 0x196A JUMPI PUSH1 0x40 MLOAD PUSH32 0x8C379A000000000000000000000000000000000000000000000000000000000 DUP2 MSTORE PUSH1 0x4 ADD DUP1 DUP1 PUSH1 0x20 ADD DUP3 DUP2 SUB DUP3 MSTORE PUSH1 0x20 DUP2 MSTORE PUSH1 0x20 ADD DUP1 PUSH32 0x4F776E61626C653A2063616C6C6572206973206E6F7420746865206F776E6572 DUP2 MSTORE POP PUSH1 0x20 ADD SWAP2 POP POP PUSH1 0x40 MLOAD DUP1 SWAP2 SUB SWAP1 REVERT JUMPDEST PUSH1 0x15 PUSH1 0x0 DUP3 PUSH20 0xFFFFFFFFFFFFFFFFFFFFFFFFFFFFFFFFFFFFFFFF AND PUSH20 0xFFFFFFFFFFFFFFFFFFFFFFFFFFFFFFFFFFFFFFFF AND DUP2 MSTORE PUSH1 0x20 ADD SWAP1 DUP2 MSTORE PUSH1 0x20 ADD PUSH1 0x0 KECCAK256 PUSH1 0x0 PUSH2 0x100 EXP DUP2 SLOAD SWAP1 PUSH1 0xFF MUL NOT AND SWAP1 SSTORE POP JUMP JUMPDEST PUSH2 0x19C4 PUSH2 0x2622 JUMP JUMPDEST PUSH20 0xFFFFFFFFFFFFFFFFFFFFFFFFFFFFFFFFFFFFFFFF AND PUSH1 0x1 PUSH1 0x0 SWAP1 SLOAD SWAP1 PUSH2 0x100 EXP SWAP1 DIV PUSH20 0xFFFFFFFFFFFFFFFFFFFFFFFFFFFFFFFFFFFFFFFF AND PUSH20 0xFFFFFFFFFFFFFFFFFFFFFFFFFFFFFFFFFFFFFFFF AND EQ PUSH2 0x1A86 JUMPI PUSH1 0x40 MLOAD PUSH32 0x8C379A000000000000000000000000000000000000000000000000000000000 DUP2 MSTORE PUSH1 0x4 ADD DUP1 DUP1 PUSH1 0x20 ADD DUP3 DUP2 SUB DUP3 MSTORE PUSH1 0x20 DUP2 MSTORE PUSH1 0x20 ADD DUP1 PUSH32 0x4F776E61626C653A2063616C6C6572206973206E6F7420746865206F776E6572 DUP2 MSTORE POP PUSH1 0x20 ADD SWAP2 POP POP PUSH1 0x40 MLOAD DUP1 SWAP2 SUB SWAP1 REVERT JUMPDEST PUSH1 0x1 PUSH1 0x15 PUSH1 0x0 DUP4 PUSH20 0xFFFFFFFFFFFFFFFFFFFFFFFFFFFFFFFFFFFFFFFF AND PUSH20 0xFFFFFFFFFFFFFFFFFFFFFFFFFFFFFFFFFFFFFFFF AND DUP2 MSTORE PUSH1 0x20 ADD SWAP1 DUP2 MSTORE PUSH1 0x20 ADD PUSH1 0x0 KECCAK256 PUSH1 0x0 PUSH2 0x100 EXP DUP2 SLOAD DUP2 PUSH1 0xFF MUL NOT AND SWAP1 DUP4 ISZERO ISZERO MUL OR SWAP1 SSTORE POP POP JUMP JUMPDEST PUSH1 0x60 PUSH1 0xA DUP1 SLOAD PUSH1 0x1 DUP2 PUSH1 0x1 AND ISZERO PUSH2 0x100 MUL SUB AND PUSH1 0x2 SWAP1 DIV DUP1 PUSH1 0x1F ADD PUSH1 0x20 DUP1 SWAP2 DIV MUL PUSH1 0x20 ADD PUSH1 0x40 MLOAD SWAP1 DUP2 ADD PUSH1 0x40 MSTORE DUP1 SWAP3 SWAP2 SWAP1 DUP2 DUP2 MSTORE PUSH1 0x20 ADD DUP3 DUP1 SLOAD PUSH1 0x1 DUP2 PUSH1 0x1 AND ISZERO PUSH2 0x100 MUL SUB AND PUSH1 0x2 SWAP1 DIV DUP1 ISZERO PUSH2 0x1B79 JUMPI DUP1 PUSH1 0x1F LT PUSH2 0x1B4E JUMPI PUSH2 0x100 DUP1 DUP4 SLOAD DIV MUL DUP4 MSTORE SWAP2 PUSH1 0x20 ADD SWAP2 PUSH2 0x1B79 JUMP JUMPDEST DUP3 ADD SWAP2 SWAP1 PUSH1 0x0 MSTORE PUSH1 0x20 PUSH1 0x0 KECCAK256 SWAP1 JUMPDEST DUP2 SLOAD DUP2 MSTORE SWAP1 PUSH1 0x1 ADD SWAP1 PUSH1 0x20 ADD DUP1 DUP4 GT PUSH2 0x1B5C JUMPI DUP3 SWAP1 SUB PUSH1 0x1F AND DUP3 ADD SWAP2 JUMPDEST POP POP POP POP POP SWAP1 POP SWAP1 JUMP JUMPDEST PUSH1 0x0 PUSH1 0x5 PUSH1 0x0 DUP4 PUSH20 0xFFFFFFFFFFFFFFFFFFFFFFFFFFFFFFFFFFFFFFFF AND PUSH20 0xFFFFFFFFFFFFFFFFFFFFFFFFFFFFFFFFFFFFFFFF AND DUP2 MSTORE PUSH1 0x20 ADD SWAP1 DUP2 MSTORE PUSH1 0x20 ADD PUSH1 0x0 KECCAK256 SLOAD SWAP1 POP SWAP2 SWAP1 POP JUMP JUMPDEST PUSH1 0x3 PUSH1 0x0 SWAP1 SLOAD SWAP1 PUSH2 0x100 EXP SWAP1 DIV PUSH20 0xFFFFFFFFFFFFFFFFFFFFFFFFFFFFFFFFFFFFFFFF AND PUSH20 0xFFFFFFFFFFFFFFFFFFFFFFFFFFFFFFFFFFFFFFFF AND CALLER PUSH20 0xFFFFFFFFFFFFFFFFFFFFFFFFFFFFFFFFFFFFFFFF AND EQ PUSH2 0x1C8F JUMPI PUSH1 0x40 MLOAD PUSH32 0x8C379A000000000000000000000000000000000000000000000000000000000 DUP2 MSTORE PUSH1 0x4 ADD DUP1 DUP1 PUSH1 0x20 ADD DUP3 DUP2 SUB DUP3 MSTORE PUSH1 0x19 DUP2 MSTORE PUSH1 0x20 ADD DUP1 PUSH32 0x63616C6C6572206E6F742061206D656C7465722061646D696E00000000000000 DUP2 MSTORE POP PUSH1 0x20 ADD SWAP2 POP POP PUSH1 0x40 MLOAD DUP1 SWAP2 SUB SWAP1 REVERT JUMPDEST PUSH1 0x1 PUSH1 0x2 PUSH1 0x0 DUP4 PUSH20 0xFFFFFFFFFFFFFFFFFFFFFFFFFFFFFFFFFFFFFFFF AND PUSH20 0xFFFFFFFFFFFFFFFFFFFFFFFFFFFFFFFFFFFFFFFF AND DUP2 MSTORE PUSH1 0x20 ADD SWAP1 DUP2 MSTORE PUSH1 0x20 ADD PUSH1 0x0 KECCAK256 PUSH1 0x0 PUSH2 0x100 EXP DUP2 SLOAD DUP2 PUSH1 0xFF MUL NOT AND SWAP1 DUP4 ISZERO ISZERO MUL OR SWAP1 SSTORE POP POP JUMP JUMPDEST PUSH1 0x11 SLOAD DUP2 JUMP JUMPDEST PUSH1 0x0 PUSH2 0x1DB3 PUSH2 0x1CFD PUSH2 0x2622 JUMP JUMPDEST DUP5 PUSH2 0x1DAE DUP6 PUSH1 0x40 MLOAD DUP1 PUSH1 0x60 ADD PUSH1 0x40 MSTORE DUP1 PUSH1 0x25 DUP2 MSTORE PUSH1 0x20 ADD PUSH2 0x4469 PUSH1 0x25 SWAP2 CODECOPY PUSH1 0x6 PUSH1 0x0 PUSH2 0x1D27 PUSH2 0x2622 JUMP JUMPDEST PUSH20 0xFFFFFFFFFFFFFFFFFFFFFFFFFFFFFFFFFFFFFFFF AND PUSH20 0xFFFFFFFFFFFFFFFFFFFFFFFFFFFFFFFFFFFFFFFF AND DUP2 MSTORE PUSH1 0x20 ADD SWAP1 DUP2 MSTORE PUSH1 0x20 ADD PUSH1 0x0 KECCAK256 PUSH1 0x0 DUP11 PUSH20 0xFFFFFFFFFFFFFFFFFFFFFFFFFFFFFFFFFFFFFFFF AND PUSH20 0xFFFFFFFFFFFFFFFFFFFFFFFFFFFFFFFFFFFFFFFF AND DUP2 MSTORE PUSH1 0x20 ADD SWAP1 DUP2 MSTORE PUSH1 0x20 ADD PUSH1 0x0 KECCAK256 SLOAD PUSH2 0x2E0C SWAP1 SWAP3 SWAP2 SWAP1 PUSH4 0xFFFFFFFF AND JUMP JUMPDEST PUSH2 0x262A JUMP JUMPDEST PUSH1 0x1 SWAP1 POP SWAP3 SWAP2 POP POP JUMP JUMPDEST PUSH1 0x0 PUSH2 0x1DD1 PUSH2 0x1DCA PUSH2 0x2622 JUMP JUMPDEST DUP5 DUP5 PUSH2 0x2C91 JUMP JUMPDEST PUSH1 0x1 SWAP1 POP SWAP3 SWAP2 POP POP JUMP JUMPDEST PUSH1 0x14 SLOAD DUP2 JUMP JUMPDEST PUSH1 0x0 PUSH1 0x1 ISZERO ISZERO PUSH1 0x2 PUSH1 0x0 CALLER PUSH20 0xFFFFFFFFFFFFFFFFFFFFFFFFFFFFFFFFFFFFFFFF AND PUSH20 0xFFFFFFFFFFFFFFFFFFFFFFFFFFFFFFFFFFFFFFFF AND DUP2 MSTORE PUSH1 0x20 ADD SWAP1 DUP2 MSTORE PUSH1 0x20 ADD PUSH1 0x0 KECCAK256 PUSH1 0x0 SWAP1 SLOAD SWAP1 PUSH2 0x100 EXP SWAP1 DIV PUSH1 0xFF AND ISZERO ISZERO EQ PUSH2 0x1EA9 JUMPI PUSH1 0x40 MLOAD PUSH32 0x8C379A000000000000000000000000000000000000000000000000000000000 DUP2 MSTORE PUSH1 0x4 ADD DUP1 DUP1 PUSH1 0x20 ADD DUP3 DUP2 SUB DUP3 MSTORE PUSH1 0x12 DUP2 MSTORE PUSH1 0x20 ADD DUP1 PUSH32 0x63616E277420706572666F726D206D656C740000000000000000000000000000 DUP2 MSTORE POP PUSH1 0x20 ADD SWAP2 POP POP PUSH1 0x40 MLOAD DUP1 SWAP2 SUB SWAP1 REVERT JUMPDEST PUSH2 0x1EB3 DUP4 DUP4 PUSH2 0x331D JUMP JUMPDEST PUSH1 0x1 SWAP1 POP SWAP3 SWAP2 POP POP JUMP JUMPDEST PUSH1 0x12 SLOAD DUP2 JUMP JUMPDEST PUSH1 0x4 PUSH1 0x0 SWAP1 SLOAD SWAP1 PUSH2 0x100 EXP SWAP1 DIV PUSH20 0xFFFFFFFFFFFFFFFFFFFFFFFFFFFFFFFFFFFFFFFF AND DUP2 JUMP JUMPDEST PUSH1 0x0 PUSH1 0x8 SLOAD SWAP1 POP SWAP1 JUMP JUMPDEST PUSH1 0x3 PUSH1 0x0 SWAP1 SLOAD SWAP1 PUSH2 0x100 EXP SWAP1 DIV PUSH20 0xFFFFFFFFFFFFFFFFFFFFFFFFFFFFFFFFFFFFFFFF AND PUSH20 0xFFFFFFFFFFFFFFFFFFFFFFFFFFFFFFFFFFFFFFFF AND CALLER PUSH20 0xFFFFFFFFFFFFFFFFFFFFFFFFFFFFFFFFFFFFFFFF AND EQ PUSH2 0x1FB6 JUMPI PUSH1 0x40 MLOAD PUSH32 0x8C379A000000000000000000000000000000000000000000000000000000000 DUP2 MSTORE PUSH1 0x4 ADD DUP1 DUP1 PUSH1 0x20 ADD DUP3 DUP2 SUB DUP3 MSTORE PUSH1 0x19 DUP2 MSTORE PUSH1 0x20 ADD DUP1 PUSH32 0x63616C6C6572206E6F742061206D656C7465722061646D696E00000000000000 DUP2 MSTORE POP PUSH1 0x20 ADD SWAP2 POP POP PUSH1 0x40 MLOAD DUP1 SWAP2 SUB SWAP1 REVERT JUMPDEST DUP1 PUSH1 0x4 PUSH1 0x0 PUSH2 0x100 EXP DUP2 SLOAD DUP2 PUSH20 0xFFFFFFFFFFFFFFFFFFFFFFFFFFFFFFFFFFFFFFFF MUL NOT AND SWAP1 DUP4 PUSH20 0xFFFFFFFFFFFFFFFFFFFFFFFFFFFFFFFFFFFFFFFF AND MUL OR SWAP1 SSTORE POP POP JUMP JUMPDEST PUSH1 0x0 PUSH1 0x6 PUSH1 0x0 DUP5 PUSH20 0xFFFFFFFFFFFFFFFFFFFFFFFFFFFFFFFFFFFFFFFF AND PUSH20 0xFFFFFFFFFFFFFFFFFFFFFFFFFFFFFFFFFFFFFFFF AND DUP2 MSTORE PUSH1 0x20 ADD SWAP1 DUP2 MSTORE PUSH1 0x20 ADD PUSH1 0x0 KECCAK256 PUSH1 0x0 DUP4 PUSH20 0xFFFFFFFFFFFFFFFFFFFFFFFFFFFFFFFFFFFFFFFF AND PUSH20 0xFFFFFFFFFFFFFFFFFFFFFFFFFFFFFFFFFFFFFFFF AND DUP2 MSTORE PUSH1 0x20 ADD SWAP1 DUP2 MSTORE PUSH1 0x20 ADD PUSH1 0x0 KECCAK256 SLOAD SWAP1 POP SWAP3 SWAP2 POP POP JUMP JUMPDEST PUSH1 0x0 PUSH1 0x1 ISZERO ISZERO PUSH1 0x2 PUSH1 0x0 CALLER PUSH20 0xFFFFFFFFFFFFFFFFFFFFFFFFFFFFFFFFFFFFFFFF AND PUSH20 0xFFFFFFFFFFFFFFFFFFFFFFFFFFFFFFFFFFFFFFFF AND DUP2 MSTORE PUSH1 0x20 ADD SWAP1 DUP2 MSTORE PUSH1 0x20 ADD PUSH1 0x0 KECCAK256 PUSH1 0x0 SWAP1 SLOAD SWAP1 PUSH2 0x100 EXP SWAP1 DIV PUSH1 0xFF AND ISZERO ISZERO EQ PUSH2 0x2149 JUMPI PUSH1 0x40 MLOAD PUSH32 0x8C379A000000000000000000000000000000000000000000000000000000000 DUP2 MSTORE PUSH1 0x4 ADD DUP1 DUP1 PUSH1 0x20 ADD DUP3 DUP2 SUB DUP3 MSTORE PUSH1 0x12 DUP2 MSTORE PUSH1 0x20 ADD DUP1 PUSH32 0x63616E277420706572666F726D206D656C740000000000000000000000000000 DUP2 MSTORE POP PUSH1 0x20 ADD SWAP2 POP POP PUSH1 0x40 MLOAD DUP1 SWAP2 SUB SWAP1 REVERT JUMPDEST PUSH1 0x0 PUSH20 0xFFFFFFFFFFFFFFFFFFFFFFFFFFFFFFFFFFFFFFFF AND DUP5 PUSH20 0xFFFFFFFFFFFFFFFFFFFFFFFFFFFFFFFFFFFFFFFF AND EQ ISZERO PUSH2 0x21CF JUMPI PUSH1 0x40 MLOAD PUSH32 0x8C379A000000000000000000000000000000000000000000000000000000000 DUP2 MSTORE PUSH1 0x4 ADD DUP1 DUP1 PUSH1 0x20 ADD DUP3 DUP2 SUB DUP3 MSTORE PUSH1 0x25 DUP2 MSTORE PUSH1 0x20 ADD DUP1 PUSH2 0x43FF PUSH1 0x25 SWAP2 CODECOPY PUSH1 0x40 ADD SWAP2 POP POP PUSH1 0x40 MLOAD DUP1 SWAP2 SUB SWAP1 REVERT JUMPDEST PUSH1 0x0 PUSH20 0xFFFFFFFFFFFFFFFFFFFFFFFFFFFFFFFFFFFFFFFF AND DUP4 PUSH20 0xFFFFFFFFFFFFFFFFFFFFFFFFFFFFFFFFFFFFFFFF AND EQ ISZERO PUSH2 0x2255 JUMPI PUSH1 0x40 MLOAD PUSH32 0x8C379A000000000000000000000000000000000000000000000000000000000 DUP2 MSTORE PUSH1 0x4 ADD DUP1 DUP1 PUSH1 0x20 ADD DUP3 DUP2 SUB DUP3 MSTORE PUSH1 0x23 DUP2 MSTORE PUSH1 0x20 ADD DUP1 PUSH2 0x419F PUSH1 0x23 SWAP2 CODECOPY PUSH1 0x40 ADD SWAP2 POP POP PUSH1 0x40 MLOAD DUP1 SWAP2 SUB SWAP1 REVERT JUMPDEST PUSH2 0x225F DUP5 DUP4 PUSH2 0x35EA JUMP JUMPDEST POP PUSH2 0x226A DUP4 DUP4 PUSH2 0x3689 JUMP JUMPDEST POP DUP3 PUSH20 0xFFFFFFFFFFFFFFFFFFFFFFFFFFFFFFFFFFFFFFFF AND DUP5 PUSH20 0xFFFFFFFFFFFFFFFFFFFFFFFFFFFFFFFFFFFFFFFF AND PUSH32 0x9958976925BAA403ABF86AFA44976A9EFFFF3E01931EAFD0EA2689F40852FD59 DUP5 PUSH1 0x40 MLOAD DUP1 DUP3 DUP2 MSTORE PUSH1 0x20 ADD SWAP2 POP POP PUSH1 0x40 MLOAD DUP1 SWAP2 SUB SWAP1 LOG3 DUP3 PUSH20 0xFFFFFFFFFFFFFFFFFFFFFFFFFFFFFFFFFFFFFFFF AND DUP5 PUSH20 0xFFFFFFFFFFFFFFFFFFFFFFFFFFFFFFFFFFFFFFFF AND PUSH32 0xDDF252AD1BE2C89B69C2B068FC378DAA952BA7F163C4A11628F55A4DF523B3EF DUP5 PUSH1 0x40 MLOAD DUP1 DUP3 DUP2 MSTORE PUSH1 0x20 ADD SWAP2 POP POP PUSH1 0x40 MLOAD DUP1 SWAP2 SUB SWAP1 LOG3 PUSH1 0x1 SWAP1 POP SWAP4 SWAP3 POP POP POP JUMP JUMPDEST PUSH2 0x2348 PUSH2 0x2622 JUMP JUMPDEST PUSH20 0xFFFFFFFFFFFFFFFFFFFFFFFFFFFFFFFFFFFFFFFF AND PUSH1 0x1 PUSH1 0x0 SWAP1 SLOAD SWAP1 PUSH2 0x100 EXP SWAP1 DIV PUSH20 0xFFFFFFFFFFFFFFFFFFFFFFFFFFFFFFFFFFFFFFFF AND PUSH20 0xFFFFFFFFFFFFFFFFFFFFFFFFFFFFFFFFFFFFFFFF AND EQ PUSH2 0x240A JUMPI PUSH1 0x40 MLOAD PUSH32 0x8C379A000000000000000000000000000000000000000000000000000000000 DUP2 MSTORE PUSH1 0x4 ADD DUP1 DUP1 PUSH1 0x20 ADD DUP3 DUP2 SUB DUP3 MSTORE PUSH1 0x20 DUP2 MSTORE PUSH1 0x20 ADD DUP1 PUSH32 0x4F776E61626C653A2063616C6C6572206973206E6F7420746865206F776E6572 DUP2 MSTORE POP PUSH1 0x20 ADD SWAP2 POP POP PUSH1 0x40 MLOAD DUP1 SWAP2 SUB SWAP1 REVERT JUMPDEST PUSH1 0x0 PUSH20 0xFFFFFFFFFFFFFFFFFFFFFFFFFFFFFFFFFFFFFFFF AND DUP2 PUSH20 0xFFFFFFFFFFFFFFFFFFFFFFFFFFFFFFFFFFFFFFFF AND EQ ISZERO PUSH2 0x2490 JUMPI PUSH1 0x40 MLOAD PUSH32 0x8C379A000000000000000000000000000000000000000000000000000000000 DUP2 MSTORE PUSH1 0x4 ADD DUP1 DUP1 PUSH1 0x20 ADD DUP3 DUP2 SUB DUP3 MSTORE PUSH1 0x26 DUP2 MSTORE PUSH1 0x20 ADD DUP1 PUSH2 0x4238 PUSH1 0x26 SWAP2 CODECOPY PUSH1 0x40 ADD SWAP2 POP POP PUSH1 0x40 MLOAD DUP1 SWAP2 SUB SWAP1 REVERT JUMPDEST DUP1 PUSH20 0xFFFFFFFFFFFFFFFFFFFFFFFFFFFFFFFFFFFFFFFF AND PUSH1 0x1 PUSH1 0x0 SWAP1 SLOAD SWAP1 PUSH2 0x100 EXP SWAP1 DIV PUSH20 0xFFFFFFFFFFFFFFFFFFFFFFFFFFFFFFFFFFFFFFFF AND PUSH20 0xFFFFFFFFFFFFFFFFFFFFFFFFFFFFFFFFFFFFFFFF AND PUSH32 0x8BE0079C531659141344CD1FD0A4F28419497F9722A3DAAFE3B4186F6B6457E0 PUSH1 0x40 MLOAD PUSH1 0x40 MLOAD DUP1 SWAP2 SUB SWAP1 LOG3 DUP1 PUSH1 0x1 PUSH1 0x0 PUSH2 0x100 EXP DUP2 SLOAD DUP2 PUSH20 0xFFFFFFFFFFFFFFFFFFFFFFFFFFFFFFFFFFFFFFFF MUL NOT AND SWAP1 DUP4 PUSH20 0xFFFFFFFFFFFFFFFFFFFFFFFFFFFFFFFFFFFFFFFF AND MUL OR SWAP1 SSTORE POP POP JUMP JUMPDEST PUSH1 0x1 ISZERO ISZERO PUSH1 0x2 PUSH1 0x0 CALLER PUSH20 0xFFFFFFFFFFFFFFFFFFFFFFFFFFFFFFFFFFFFFFFF AND PUSH20 0xFFFFFFFFFFFFFFFFFFFFFFFFFFFFFFFFFFFFFFFF AND DUP2 MSTORE PUSH1 0x20 ADD SWAP1 DUP2 MSTORE PUSH1 0x20 ADD PUSH1 0x0 KECCAK256 PUSH1 0x0 SWAP1 SLOAD SWAP1 PUSH2 0x100 EXP SWAP1 DIV PUSH1 0xFF AND ISZERO ISZERO EQ PUSH2 0x2616 JUMPI PUSH1 0x40 MLOAD PUSH32 0x8C379A000000000000000000000000000000000000000000000000000000000 DUP2 MSTORE PUSH1 0x4 ADD DUP1 DUP1 PUSH1 0x20 ADD DUP3 DUP2 SUB DUP3 MSTORE PUSH1 0x12 DUP2 MSTORE PUSH1 0x20 ADD DUP1 PUSH32 0x63616E277420706572666F726D206D656C740000000000000000000000000000 DUP2 MSTORE POP PUSH1 0x20 ADD SWAP2 POP POP PUSH1 0x40 MLOAD DUP1 SWAP2 SUB SWAP1 REVERT JUMPDEST PUSH2 0x261F DUP2 PUSH2 0x3728 JUMP JUMPDEST POP JUMP JUMPDEST PUSH1 0x0 CALLER SWAP1 POP SWAP1 JUMP JUMPDEST PUSH1 0x0 PUSH20 0xFFFFFFFFFFFFFFFFFFFFFFFFFFFFFFFFFFFFFFFF AND DUP4 PUSH20 0xFFFFFFFFFFFFFFFFFFFFFFFFFFFFFFFFFFFFFFFF AND EQ ISZERO PUSH2 0x26B0 JUMPI PUSH1 0x40 MLOAD PUSH32 0x8C379A000000000000000000000000000000000000000000000000000000000 DUP2 MSTORE PUSH1 0x4 ADD DUP1 DUP1 PUSH1 0x20 ADD DUP3 DUP2 SUB DUP3 MSTORE PUSH1 0x24 DUP2 MSTORE PUSH1 0x20 ADD DUP1 PUSH2 0x4424 PUSH1 0x24 SWAP2 CODECOPY PUSH1 0x40 ADD SWAP2 POP POP PUSH1 0x40 MLOAD DUP1 SWAP2 SUB SWAP1 REVERT JUMPDEST PUSH1 0x0 PUSH20 0xFFFFFFFFFFFFFFFFFFFFFFFFFFFFFFFFFFFFFFFF AND DUP3 PUSH20 0xFFFFFFFFFFFFFFFFFFFFFFFFFFFFFFFFFFFFFFFF AND EQ ISZERO PUSH2 0x2736 JUMPI PUSH1 0x40 MLOAD PUSH32 0x8C379A000000000000000000000000000000000000000000000000000000000 DUP2 MSTORE PUSH1 0x4 ADD DUP1 DUP1 PUSH1 0x20 ADD DUP3 DUP2 SUB DUP3 MSTORE PUSH1 0x22 DUP2 MSTORE PUSH1 0x20 ADD DUP1 PUSH2 0x425E PUSH1 0x22 SWAP2 CODECOPY PUSH1 0x40 ADD SWAP2 POP POP PUSH1 0x40 MLOAD DUP1 SWAP2 SUB SWAP1 REVERT JUMPDEST DUP1 PUSH1 0x6 PUSH1 0x0 DUP6 PUSH20 0xFFFFFFFFFFFFFFFFFFFFFFFFFFFFFFFFFFFFFFFF AND PUSH20 0xFFFFFFFFFFFFFFFFFFFFFFFFFFFFFFFFFFFFFFFF AND DUP2 MSTORE PUSH1 0x20 ADD SWAP1 DUP2 MSTORE PUSH1 0x20 ADD PUSH1 0x0 KECCAK256 PUSH1 0x0 DUP5 PUSH20 0xFFFFFFFFFFFFFFFFFFFFFFFFFFFFFFFFFFFFFFFF AND PUSH20 0xFFFFFFFFFFFFFFFFFFFFFFFFFFFFFFFFFFFFFFFF AND DUP2 MSTORE PUSH1 0x20 ADD SWAP1 DUP2 MSTORE PUSH1 0x20 ADD PUSH1 0x0 KECCAK256 DUP2 SWAP1 SSTORE POP DUP2 PUSH20 0xFFFFFFFFFFFFFFFFFFFFFFFFFFFFFFFFFFFFFFFF AND DUP4 PUSH20 0xFFFFFFFFFFFFFFFFFFFFFFFFFFFFFFFFFFFFFFFF AND PUSH32 0x8C5BE1E5EBEC7D5BD14F71427D1E84F3DD0314C0F7B2291E5B200AC8C7C3B925 DUP4 PUSH1 0x40 MLOAD DUP1 DUP3 DUP2 MSTORE PUSH1 0x20 ADD SWAP2 POP POP PUSH1 0x40 MLOAD DUP1 SWAP2 SUB SWAP1 LOG3 POP POP POP JUMP JUMPDEST PUSH1 0x0 PUSH20 0xFFFFFFFFFFFFFFFFFFFFFFFFFFFFFFFFFFFFFFFF AND DUP3 PUSH20 0xFFFFFFFFFFFFFFFFFFFFFFFFFFFFFFFFFFFFFFFF AND EQ ISZERO PUSH2 0x28A7 JUMPI PUSH1 0x40 MLOAD PUSH32 0x8C379A000000000000000000000000000000000000000000000000000000000 DUP2 MSTORE PUSH1 0x4 ADD DUP1 DUP1 PUSH1 0x20 ADD DUP3 DUP2 SUB DUP3 MSTORE PUSH1 0x21 DUP2 MSTORE PUSH1 0x20 ADD DUP1 PUSH2 0x4395 PUSH1 0x21 SWAP2 CODECOPY PUSH1 0x40 ADD SWAP2 POP POP PUSH1 0x40 MLOAD DUP1 SWAP2 SUB SWAP1 REVERT JUMPDEST PUSH1 0x0 DUP2 GT PUSH2 0x2900 JUMPI PUSH1 0x40 MLOAD PUSH32 0x8C379A000000000000000000000000000000000000000000000000000000000 DUP2 MSTORE PUSH1 0x4 ADD DUP1 DUP1 PUSH1 0x20 ADD DUP3 DUP2 SUB DUP3 MSTORE PUSH1 0x31 DUP2 MSTORE PUSH1 0x20 ADD DUP1 PUSH2 0x42D0 PUSH1 0x31 SWAP2 CODECOPY PUSH1 0x40 ADD SWAP2 POP POP PUSH1 0x40 MLOAD DUP1 SWAP2 SUB SWAP1 REVERT JUMPDEST DUP1 PUSH2 0x290A DUP4 PUSH2 0x32D5 JUMP JUMPDEST LT ISZERO PUSH2 0x2961 JUMPI PUSH1 0x40 MLOAD PUSH32 0x8C379A000000000000000000000000000000000000000000000000000000000 DUP2 MSTORE PUSH1 0x4 ADD DUP1 DUP1 PUSH1 0x20 ADD DUP3 DUP2 SUB DUP3 MSTORE PUSH1 0x2E DUP2 MSTORE PUSH1 0x20 ADD DUP1 PUSH2 0x41C2 PUSH1 0x2E SWAP2 CODECOPY PUSH1 0x40 ADD SWAP2 POP POP PUSH1 0x40 MLOAD DUP1 SWAP2 SUB SWAP1 REVERT JUMPDEST PUSH2 0x296B DUP3 DUP3 PUSH2 0x35EA JUMP JUMPDEST POP DUP2 PUSH20 0xFFFFFFFFFFFFFFFFFFFFFFFFFFFFFFFFFFFFFFFF AND PUSH32 0x36A0B989202AF25B5D49A593A1DD43461453EF93A93A7846EA3DBB487E119800 DUP3 PUSH1 0x40 MLOAD DUP1 DUP3 DUP2 MSTORE PUSH1 0x20 ADD SWAP2 POP POP PUSH1 0x40 MLOAD DUP1 SWAP2 SUB SWAP1 LOG2 PUSH2 0x2A0C DUP2 PUSH1 0x5 PUSH1 0x0 DUP6 PUSH20 0xFFFFFFFFFFFFFFFFFFFFFFFFFFFFFFFFFFFFFFFF AND PUSH20 0xFFFFFFFFFFFFFFFFFFFFFFFFFFFFFFFFFFFFFFFF AND DUP2 MSTORE PUSH1 0x20 ADD SWAP1 DUP2 MSTORE PUSH1 0x20 ADD PUSH1 0x0 KECCAK256 SLOAD PUSH2 0x2ECC SWAP1 SWAP2 SWAP1 PUSH4 0xFFFFFFFF AND JUMP JUMPDEST PUSH1 0x5 PUSH1 0x0 DUP5 PUSH20 0xFFFFFFFFFFFFFFFFFFFFFFFFFFFFFFFFFFFFFFFF AND PUSH20 0xFFFFFFFFFFFFFFFFFFFFFFFFFFFFFFFFFFFFFFFF AND DUP2 MSTORE PUSH1 0x20 ADD SWAP1 DUP2 MSTORE PUSH1 0x20 ADD PUSH1 0x0 KECCAK256 DUP2 SWAP1 SSTORE POP POP POP JUMP JUMPDEST PUSH1 0x0 PUSH20 0xFFFFFFFFFFFFFFFFFFFFFFFFFFFFFFFFFFFFFFFF AND DUP3 PUSH20 0xFFFFFFFFFFFFFFFFFFFFFFFFFFFFFFFFFFFFFFFF AND EQ ISZERO PUSH2 0x2AD9 JUMPI PUSH1 0x40 MLOAD PUSH32 0x8C379A000000000000000000000000000000000000000000000000000000000 DUP2 MSTORE PUSH1 0x4 ADD DUP1 DUP1 PUSH1 0x20 ADD DUP3 DUP2 SUB DUP3 MSTORE PUSH1 0x28 DUP2 MSTORE PUSH1 0x20 ADD DUP1 PUSH2 0x43D7 PUSH1 0x28 SWAP2 CODECOPY PUSH1 0x40 ADD SWAP2 POP POP PUSH1 0x40 MLOAD DUP1 SWAP2 SUB SWAP1 REVERT JUMPDEST PUSH2 0x2AEE DUP2 PUSH1 0x7 SLOAD PUSH2 0x3B84 SWAP1 SWAP2 SWAP1 PUSH4 0xFFFFFFFF AND JUMP JUMPDEST PUSH1 0x7 DUP2 SWAP1 SSTORE POP PUSH2 0x2AFE DUP3 DUP3 PUSH2 0x35EA JUMP JUMPDEST POP ADDRESS PUSH20 0xFFFFFFFFFFFFFFFFFFFFFFFFFFFFFFFFFFFFFFFF AND DUP3 PUSH20 0xFFFFFFFFFFFFFFFFFFFFFFFFFFFFFFFFFFFFFFFF AND PUSH32 0xDDF252AD1BE2C89B69C2B068FC378DAA952BA7F163C4A11628F55A4DF523B3EF DUP4 PUSH1 0x40 MLOAD DUP1 DUP3 DUP2 MSTORE PUSH1 0x20 ADD SWAP2 POP POP PUSH1 0x40 MLOAD DUP1 SWAP2 SUB SWAP1 LOG3 POP POP JUMP JUMPDEST PUSH1 0x0 PUSH1 0x10 SLOAD GT DUP1 ISZERO PUSH2 0x2BA7 JUMPI POP PUSH1 0x0 PUSH20 0xFFFFFFFFFFFFFFFFFFFFFFFFFFFFFFFFFFFFFFFF AND DUP3 PUSH20 0xFFFFFFFFFFFFFFFFFFFFFFFFFFFFFFFFFFFFFFFF AND EQ ISZERO JUMPDEST DUP1 ISZERO PUSH2 0x2C02 JUMPI POP PUSH1 0x0 PUSH20 0xFFFFFFFFFFFFFFFFFFFFFFFFFFFFFFFFFFFFFFFF AND PUSH1 0xD PUSH1 0x0 SWAP1 SLOAD SWAP1 PUSH2 0x100 EXP SWAP1 DIV PUSH20 0xFFFFFFFFFFFFFFFFFFFFFFFFFFFFFFFFFFFFFFFF AND PUSH20 0xFFFFFFFFFFFFFFFFFFFFFFFFFFFFFFFFFFFFFFFF AND EQ ISZERO JUMPDEST ISZERO PUSH2 0x2C81 JUMPI PUSH2 0x2C11 DUP4 DUP3 PUSH2 0x3BCE JUMP JUMPDEST PUSH1 0x0 PUSH2 0x2C3B PUSH1 0x64 PUSH2 0x2C2D PUSH1 0x10 SLOAD DUP6 PUSH2 0x3CA8 SWAP1 SWAP2 SWAP1 PUSH4 0xFFFFFFFF AND JUMP JUMPDEST PUSH2 0x3D2E SWAP1 SWAP2 SWAP1 PUSH4 0xFFFFFFFF AND JUMP JUMPDEST SWAP1 POP PUSH2 0x2C6A DUP5 PUSH1 0xD PUSH1 0x0 SWAP1 SLOAD SWAP1 PUSH2 0x100 EXP SWAP1 DIV PUSH20 0xFFFFFFFFFFFFFFFFFFFFFFFFFFFFFFFFFFFFFFFF AND DUP4 PUSH2 0x3D78 JUMP JUMPDEST PUSH2 0x2C7D DUP2 DUP4 PUSH2 0x3B84 SWAP1 SWAP2 SWAP1 PUSH4 0xFFFFFFFF AND JUMP JUMPDEST SWAP2 POP POP JUMPDEST PUSH2 0x2C8C DUP4 DUP4 DUP4 PUSH2 0x3D78 JUMP JUMPDEST POP POP POP JUMP JUMPDEST PUSH1 0x0 PUSH1 0xF SLOAD GT DUP1 ISZERO PUSH2 0x2CF3 JUMPI POP PUSH1 0x1 ISZERO ISZERO PUSH1 0x15 PUSH1 0x0 DUP5 PUSH20 0xFFFFFFFFFFFFFFFFFFFFFFFFFFFFFFFFFFFFFFFF AND PUSH20 0xFFFFFFFFFFFFFFFFFFFFFFFFFFFFFFFFFFFFFFFF AND DUP2 MSTORE PUSH1 0x20 ADD SWAP1 DUP2 MSTORE PUSH1 0x20 ADD PUSH1 0x0 KECCAK256 PUSH1 0x0 SWAP1 SLOAD SWAP1 PUSH2 0x100 EXP SWAP1 DIV PUSH1 0xFF AND ISZERO ISZERO EQ JUMPDEST DUP1 ISZERO PUSH2 0x2D2C JUMPI POP PUSH1 0x0 PUSH20 0xFFFFFFFFFFFFFFFFFFFFFFFFFFFFFFFFFFFFFFFF AND DUP3 PUSH20 0xFFFFFFFFFFFFFFFFFFFFFFFFFFFFFFFFFFFFFFFF AND EQ ISZERO JUMPDEST DUP1 ISZERO PUSH2 0x2D87 JUMPI POP PUSH1 0x0 PUSH20 0xFFFFFFFFFFFFFFFFFFFFFFFFFFFFFFFFFFFFFFFF AND PUSH1 0xB PUSH1 0x1 SWAP1 SLOAD SWAP1 PUSH2 0x100 EXP SWAP1 DIV PUSH20 0xFFFFFFFFFFFFFFFFFFFFFFFFFFFFFFFFFFFFFFFF AND PUSH20 0xFFFFFFFFFFFFFFFFFFFFFFFFFFFFFFFFFFFFFFFF AND EQ ISZERO JUMPDEST ISZERO PUSH2 0x2DFC JUMPI PUSH1 0x0 PUSH2 0x2DB6 PUSH1 0x64 PUSH2 0x2DA8 PUSH1 0xF SLOAD DUP6 PUSH2 0x3CA8 SWAP1 SWAP2 SWAP1 PUSH4 0xFFFFFFFF AND JUMP JUMPDEST PUSH2 0x3D2E SWAP1 SWAP2 SWAP1 PUSH4 0xFFFFFFFF AND JUMP JUMPDEST SWAP1 POP PUSH2 0x2DE5 DUP5 PUSH1 0xB PUSH1 0x1 SWAP1 SLOAD SWAP1 PUSH2 0x100 EXP SWAP1 DIV PUSH20 0xFFFFFFFFFFFFFFFFFFFFFFFFFFFFFFFFFFFFFFFF AND DUP4 PUSH2 0x3D78 JUMP JUMPDEST PUSH2 0x2DF8 DUP2 DUP4 PUSH2 0x3B84 SWAP1 SWAP2 SWAP1 PUSH4 0xFFFFFFFF AND JUMP JUMPDEST SWAP2 POP POP JUMPDEST PUSH2 0x2E07 DUP4 DUP4 DUP4 PUSH2 0x3D78 JUMP JUMPDEST POP POP POP JUMP JUMPDEST PUSH1 0x0 DUP4 DUP4 GT ISZERO DUP3 SWAP1 PUSH2 0x2EB9 JUMPI PUSH1 0x40 MLOAD PUSH32 0x8C379A000000000000000000000000000000000000000000000000000000000 DUP2 MSTORE PUSH1 0x4 ADD DUP1 DUP1 PUSH1 0x20 ADD DUP3 DUP2 SUB DUP3 MSTORE DUP4 DUP2 DUP2 MLOAD DUP2 MSTORE PUSH1 0x20 ADD SWAP2 POP DUP1 MLOAD SWAP1 PUSH1 0x20 ADD SWAP1 DUP1 DUP4 DUP4 PUSH1 0x0 JUMPDEST DUP4 DUP2 LT ISZERO PUSH2 0x2E7E JUMPI DUP1 DUP3 ADD MLOAD DUP2 DUP5 ADD MSTORE PUSH1 0x20 DUP2 ADD SWAP1 POP PUSH2 0x2E63 JUMP JUMPDEST POP POP POP POP SWAP1 POP SWAP1 DUP2 ADD SWAP1 PUSH1 0x1F AND DUP1 ISZERO PUSH2 0x2EAB JUMPI DUP1 DUP3 SUB DUP1 MLOAD PUSH1 0x1 DUP4 PUSH1 0x20 SUB PUSH2 0x100 EXP SUB NOT AND DUP2 MSTORE PUSH1 0x20 ADD SWAP2 POP JUMPDEST POP SWAP3 POP POP POP PUSH1 0x40 MLOAD DUP1 SWAP2 SUB SWAP1 REVERT JUMPDEST POP PUSH1 0x0 DUP4 DUP6 SUB SWAP1 POP DUP1 SWAP2 POP POP SWAP4 SWAP3 POP POP POP JUMP JUMPDEST PUSH1 0x0 DUP1 DUP3 DUP5 ADD SWAP1 POP DUP4 DUP2 LT ISZERO PUSH2 0x2F4A JUMPI PUSH1 0x40 MLOAD PUSH32 0x8C379A000000000000000000000000000000000000000000000000000000000 DUP2 MSTORE PUSH1 0x4 ADD DUP1 DUP1 PUSH1 0x20 ADD DUP3 DUP2 SUB DUP3 MSTORE PUSH1 0x1B DUP2 MSTORE PUSH1 0x20 ADD DUP1 PUSH32 0x536166654D6174683A206164646974696F6E206F766572666C6F770000000000 DUP2 MSTORE POP PUSH1 0x20 ADD SWAP2 POP POP PUSH1 0x40 MLOAD DUP1 SWAP2 SUB SWAP1 REVERT JUMPDEST DUP1 SWAP2 POP POP SWAP3 SWAP2 POP POP JUMP JUMPDEST PUSH1 0x0 PUSH20 0xFFFFFFFFFFFFFFFFFFFFFFFFFFFFFFFFFFFFFFFF AND DUP3 PUSH20 0xFFFFFFFFFFFFFFFFFFFFFFFFFFFFFFFFFFFFFFFF AND EQ ISZERO PUSH2 0x2FF7 JUMPI PUSH1 0x40 MLOAD PUSH32 0x8C379A000000000000000000000000000000000000000000000000000000000 DUP2 MSTORE PUSH1 0x4 ADD DUP1 DUP1 PUSH1 0x20 ADD DUP3 DUP2 SUB DUP3 MSTORE PUSH1 0x1F DUP2 MSTORE PUSH1 0x20 ADD DUP1 PUSH32 0x45524332303A206D696E7420746F20746865207A65726F206164647265737300 DUP2 MSTORE POP PUSH1 0x20 ADD SWAP2 POP POP PUSH1 0x40 MLOAD DUP1 SWAP2 SUB SWAP1 REVERT JUMPDEST PUSH2 0x300C DUP2 PUSH1 0x7 SLOAD PUSH2 0x2ECC SWAP1 SWAP2 SWAP1 PUSH4 0xFFFFFFFF AND JUMP JUMPDEST PUSH1 0x7 DUP2 SWAP1 SSTORE POP PUSH2 0x3064 DUP2 PUSH1 0x5 PUSH1 0x0 DUP6 PUSH20 0xFFFFFFFFFFFFFFFFFFFFFFFFFFFFFFFFFFFFFFFF AND PUSH20 0xFFFFFFFFFFFFFFFFFFFFFFFFFFFFFFFFFFFFFFFF AND DUP2 MSTORE PUSH1 0x20 ADD SWAP1 DUP2 MSTORE PUSH1 0x20 ADD PUSH1 0x0 KECCAK256 SLOAD PUSH2 0x2ECC SWAP1 SWAP2 SWAP1 PUSH4 0xFFFFFFFF AND JUMP JUMPDEST PUSH1 0x5 PUSH1 0x0 DUP5 PUSH20 0xFFFFFFFFFFFFFFFFFFFFFFFFFFFFFFFFFFFFFFFF AND PUSH20 0xFFFFFFFFFFFFFFFFFFFFFFFFFFFFFFFFFFFFFFFF AND DUP2 MSTORE PUSH1 0x20 ADD SWAP1 DUP2 MSTORE PUSH1 0x20 ADD PUSH1 0x0 KECCAK256 DUP2 SWAP1 SSTORE POP DUP2 PUSH20 0xFFFFFFFFFFFFFFFFFFFFFFFFFFFFFFFFFFFFFFFF AND PUSH1 0x0 PUSH20 0xFFFFFFFFFFFFFFFFFFFFFFFFFFFFFFFFFFFFFFFF AND PUSH32 0xDDF252AD1BE2C89B69C2B068FC378DAA952BA7F163C4A11628F55A4DF523B3EF DUP4 PUSH1 0x40 MLOAD DUP1 DUP3 DUP2 MSTORE PUSH1 0x20 ADD SWAP2 POP POP PUSH1 0x40 MLOAD DUP1 SWAP2 SUB SWAP1 LOG3 POP POP JUMP JUMPDEST PUSH1 0x0 PUSH20 0xFFFFFFFFFFFFFFFFFFFFFFFFFFFFFFFFFFFFFFFF AND DUP3 PUSH20 0xFFFFFFFFFFFFFFFFFFFFFFFFFFFFFFFFFFFFFFFF AND EQ ISZERO PUSH2 0x3197 JUMPI PUSH1 0x40 MLOAD PUSH32 0x8C379A000000000000000000000000000000000000000000000000000000000 DUP2 MSTORE PUSH1 0x4 ADD DUP1 DUP1 PUSH1 0x20 ADD DUP3 DUP2 SUB DUP3 MSTORE PUSH1 0x21 DUP2 MSTORE PUSH1 0x20 ADD DUP1 PUSH2 0x43B6 PUSH1 0x21 SWAP2 CODECOPY PUSH1 0x40 ADD SWAP2 POP POP PUSH1 0x40 MLOAD DUP1 SWAP2 SUB SWAP1 REVERT JUMPDEST PUSH2 0x31A1 DUP3 DUP3 PUSH2 0x3BCE JUMP JUMPDEST PUSH2 0x320D DUP2 PUSH1 0x40 MLOAD DUP1 PUSH1 0x60 ADD PUSH1 0x40 MSTORE DUP1 PUSH1 0x22 DUP2 MSTORE PUSH1 0x20 ADD PUSH2 0x41F0 PUSH1 0x22 SWAP2 CODECOPY PUSH1 0x5 PUSH1 0x0 DUP7 PUSH20 0xFFFFFFFFFFFFFFFFFFFFFFFFFFFFFFFFFFFFFFFF AND PUSH20 0xFFFFFFFFFFFFFFFFFFFFFFFFFFFFFFFFFFFFFFFF AND DUP2 MSTORE PUSH1 0x20 ADD SWAP1 DUP2 MSTORE PUSH1 0x20 ADD PUSH1 0x0 KECCAK256 SLOAD PUSH2 0x2E0C SWAP1 SWAP3 SWAP2 SWAP1 PUSH4 0xFFFFFFFF AND JUMP JUMPDEST PUSH1 0x5 PUSH1 0x0 DUP5 PUSH20 0xFFFFFFFFFFFFFFFFFFFFFFFFFFFFFFFFFFFFFFFF AND PUSH20 0xFFFFFFFFFFFFFFFFFFFFFFFFFFFFFFFFFFFFFFFF AND DUP2 MSTORE PUSH1 0x20 ADD SWAP1 DUP2 MSTORE PUSH1 0x20 ADD PUSH1 0x0 KECCAK256 DUP2 SWAP1 SSTORE POP PUSH2 0x3265 DUP2 PUSH1 0x7 SLOAD PUSH2 0x3B84 SWAP1 SWAP2 SWAP1 PUSH4 0xFFFFFFFF AND JUMP JUMPDEST PUSH1 0x7 DUP2 SWAP1 SSTORE POP PUSH1 0x0 PUSH20 0xFFFFFFFFFFFFFFFFFFFFFFFFFFFFFFFFFFFFFFFF AND DUP3 PUSH20 0xFFFFFFFFFFFFFFFFFFFFFFFFFFFFFFFFFFFFFFFF AND PUSH32 0xDDF252AD1BE2C89B69C2B068FC378DAA952BA7F163C4A11628F55A4DF523B3EF DUP4 PUSH1 0x40 MLOAD DUP1 DUP3 DUP2 MSTORE PUSH1 0x20 ADD SWAP2 POP POP PUSH1 0x40 MLOAD DUP1 SWAP2 SUB SWAP1 LOG3 POP POP JUMP JUMPDEST PUSH1 0x0 DUP1 PUSH1 0x0 DUP4 PUSH20 0xFFFFFFFFFFFFFFFFFFFFFFFFFFFFFFFFFFFFFFFF AND PUSH20 0xFFFFFFFFFFFFFFFFFFFFFFFFFFFFFFFFFFFFFFFF AND DUP2 MSTORE PUSH1 0x20 ADD SWAP1 DUP2 MSTORE PUSH1 0x20 ADD PUSH1 0x0 KECCAK256 SLOAD SWAP1 POP SWAP2 SWAP1 POP JUMP JUMPDEST PUSH1 0x0 PUSH20 0xFFFFFFFFFFFFFFFFFFFFFFFFFFFFFFFFFFFFFFFF AND DUP3 PUSH20 0xFFFFFFFFFFFFFFFFFFFFFFFFFFFFFFFFFFFFFFFF AND EQ ISZERO PUSH2 0x33A3 JUMPI PUSH1 0x40 MLOAD PUSH32 0x8C379A000000000000000000000000000000000000000000000000000000000 DUP2 MSTORE PUSH1 0x4 ADD DUP1 DUP1 PUSH1 0x20 ADD DUP3 DUP2 SUB DUP3 MSTORE PUSH1 0x26 DUP2 MSTORE PUSH1 0x20 ADD DUP1 PUSH2 0x4212 PUSH1 0x26 SWAP2 CODECOPY PUSH1 0x40 ADD SWAP2 POP POP PUSH1 0x40 MLOAD DUP1 SWAP2 SUB SWAP1 REVERT JUMPDEST ADDRESS PUSH20 0xFFFFFFFFFFFFFFFFFFFFFFFFFFFFFFFFFFFFFFFF AND DUP3 PUSH20 0xFFFFFFFFFFFFFFFFFFFFFFFFFFFFFFFFFFFFFFFF AND EQ ISZERO PUSH2 0x3428 JUMPI PUSH1 0x40 MLOAD PUSH32 0x8C379A000000000000000000000000000000000000000000000000000000000 DUP2 MSTORE PUSH1 0x4 ADD DUP1 DUP1 PUSH1 0x20 ADD DUP3 DUP2 SUB DUP3 MSTORE PUSH1 0x2A DUP2 MSTORE PUSH1 0x20 ADD DUP1 PUSH2 0x4280 PUSH1 0x2A SWAP2 CODECOPY PUSH1 0x40 ADD SWAP2 POP POP PUSH1 0x40 MLOAD DUP1 SWAP2 SUB SWAP1 REVERT JUMPDEST PUSH1 0x0 DUP2 GT PUSH2 0x3481 JUMPI PUSH1 0x40 MLOAD PUSH32 0x8C379A000000000000000000000000000000000000000000000000000000000 DUP2 MSTORE PUSH1 0x4 ADD DUP1 DUP1 PUSH1 0x20 ADD DUP3 DUP2 SUB DUP3 MSTORE PUSH1 0x27 DUP2 MSTORE PUSH1 0x20 ADD DUP1 PUSH2 0x4301 PUSH1 0x27 SWAP2 CODECOPY PUSH1 0x40 ADD SWAP2 POP POP PUSH1 0x40 MLOAD DUP1 SWAP2 SUB SWAP1 REVERT JUMPDEST PUSH1 0x8 SLOAD PUSH2 0x3499 DUP3 PUSH1 0x7 SLOAD PUSH2 0x2ECC SWAP1 SWAP2 SWAP1 PUSH4 0xFFFFFFFF AND JUMP JUMPDEST GT ISZERO PUSH2 0x350D JUMPI PUSH1 0x40 MLOAD PUSH32 0x8C379A000000000000000000000000000000000000000000000000000000000 DUP2 MSTORE PUSH1 0x4 ADD DUP1 DUP1 PUSH1 0x20 ADD DUP3 DUP2 SUB DUP3 MSTORE PUSH1 0x20 DUP2 MSTORE PUSH1 0x20 ADD DUP1 PUSH32 0x45524332304361707065643A206D617820737570706C79206578636565646564 DUP2 MSTORE POP PUSH1 0x20 ADD SWAP2 POP POP PUSH1 0x40 MLOAD DUP1 SWAP2 SUB SWAP1 REVERT JUMPDEST PUSH2 0x3522 DUP2 PUSH1 0x7 SLOAD PUSH2 0x2ECC SWAP1 SWAP2 SWAP1 PUSH4 0xFFFFFFFF AND JUMP JUMPDEST PUSH1 0x7 DUP2 SWAP1 SSTORE POP DUP2 PUSH20 0xFFFFFFFFFFFFFFFFFFFFFFFFFFFFFFFFFFFFFFFF AND ADDRESS PUSH20 0xFFFFFFFFFFFFFFFFFFFFFFFFFFFFFFFFFFFFFFFF AND PUSH32 0xDDF252AD1BE2C89B69C2B068FC378DAA952BA7F163C4A11628F55A4DF523B3EF DUP4 PUSH1 0x40 MLOAD DUP1 DUP3 DUP2 MSTORE PUSH1 0x20 ADD SWAP2 POP POP PUSH1 0x40 MLOAD DUP1 SWAP2 SUB SWAP1 LOG3 PUSH2 0x3597 DUP3 DUP3 PUSH2 0x3689 JUMP JUMPDEST POP DUP2 PUSH20 0xFFFFFFFFFFFFFFFFFFFFFFFFFFFFFFFFFFFFFFFF AND PUSH32 0xBA89AD6709373F454C31524E8C39CEF3CDD4B0E8CFDE0CCDDBD419A2E488BE6B DUP3 PUSH1 0x40 MLOAD DUP1 DUP3 DUP2 MSTORE PUSH1 0x20 ADD SWAP2 POP POP PUSH1 0x40 MLOAD DUP1 SWAP2 SUB SWAP1 LOG2 POP POP JUMP JUMPDEST PUSH1 0x0 PUSH2 0x363D DUP3 PUSH1 0x0 DUP1 DUP7 PUSH20 0xFFFFFFFFFFFFFFFFFFFFFFFFFFFFFFFFFFFFFFFF AND PUSH20 0xFFFFFFFFFFFFFFFFFFFFFFFFFFFFFFFFFFFFFFFF AND DUP2 MSTORE PUSH1 0x20 ADD SWAP1 DUP2 MSTORE PUSH1 0x20 ADD PUSH1 0x0 KECCAK256 SLOAD PUSH2 0x3B84 SWAP1 SWAP2 SWAP1 PUSH4 0xFFFFFFFF AND JUMP JUMPDEST PUSH1 0x0 DUP1 DUP6 PUSH20 0xFFFFFFFFFFFFFFFFFFFFFFFFFFFFFFFFFFFFFFFF AND PUSH20 0xFFFFFFFFFFFFFFFFFFFFFFFFFFFFFFFFFFFFFFFF AND DUP2 MSTORE PUSH1 0x20 ADD SWAP1 DUP2 MSTORE PUSH1 0x20 ADD PUSH1 0x0 KECCAK256 DUP2 SWAP1 SSTORE POP PUSH1 0x1 SWAP1 POP SWAP3 SWAP2 POP POP JUMP JUMPDEST PUSH1 0x0 PUSH2 0x36DC DUP3 PUSH1 0x0 DUP1 DUP7 PUSH20 0xFFFFFFFFFFFFFFFFFFFFFFFFFFFFFFFFFFFFFFFF AND PUSH20 0xFFFFFFFFFFFFFFFFFFFFFFFFFFFFFFFFFFFFFFFF AND DUP2 MSTORE PUSH1 0x20 ADD SWAP1 DUP2 MSTORE PUSH1 0x20 ADD PUSH1 0x0 KECCAK256 SLOAD PUSH2 0x2ECC SWAP1 SWAP2 SWAP1 PUSH4 0xFFFFFFFF AND JUMP JUMPDEST PUSH1 0x0 DUP1 DUP6 PUSH20 0xFFFFFFFFFFFFFFFFFFFFFFFFFFFFFFFFFFFFFFFF AND PUSH20 0xFFFFFFFFFFFFFFFFFFFFFFFFFFFFFFFFFFFFFFFF AND DUP2 MSTORE PUSH1 0x20 ADD SWAP1 DUP2 MSTORE PUSH1 0x20 ADD PUSH1 0x0 KECCAK256 DUP2 SWAP1 SSTORE POP PUSH1 0x1 SWAP1 POP SWAP3 SWAP2 POP POP JUMP JUMPDEST PUSH1 0x0 DUP1 PUSH1 0x11 SLOAD GT DUP1 ISZERO PUSH2 0x3768 JUMPI POP PUSH1 0x0 PUSH20 0xFFFFFFFFFFFFFFFFFFFFFFFFFFFFFFFFFFFFFFFF AND CALLER PUSH20 0xFFFFFFFFFFFFFFFFFFFFFFFFFFFFFFFFFFFFFFFF AND EQ ISZERO JUMPDEST DUP1 ISZERO PUSH2 0x37C3 JUMPI POP PUSH1 0x0 PUSH20 0xFFFFFFFFFFFFFFFFFFFFFFFFFFFFFFFFFFFFFFFF AND PUSH1 0xE PUSH1 0x0 SWAP1 SLOAD SWAP1 PUSH2 0x100 EXP SWAP1 DIV PUSH20 0xFFFFFFFFFFFFFFFFFFFFFFFFFFFFFFFFFFFFFFFF AND PUSH20 0xFFFFFFFFFFFFFFFFFFFFFFFFFFFFFFFFFFFFFFFF AND EQ ISZERO JUMPDEST ISZERO PUSH2 0x3837 JUMPI PUSH1 0x0 PUSH2 0x37F2 PUSH1 0x64 PUSH2 0x37E4 PUSH1 0x11 SLOAD DUP7 PUSH2 0x3CA8 SWAP1 SWAP2 SWAP1 PUSH4 0xFFFFFFFF AND JUMP JUMPDEST PUSH2 0x3D2E SWAP1 SWAP2 SWAP1 PUSH4 0xFFFFFFFF AND JUMP JUMPDEST SWAP1 POP PUSH2 0x3820 PUSH1 0xE PUSH1 0x0 SWAP1 SLOAD SWAP1 PUSH2 0x100 EXP SWAP1 DIV PUSH20 0xFFFFFFFFFFFFFFFFFFFFFFFFFFFFFFFFFFFFFFFF AND DUP3 PUSH2 0x2F54 JUMP JUMPDEST PUSH2 0x3833 DUP2 DUP4 PUSH2 0x2ECC SWAP1 SWAP2 SWAP1 PUSH4 0xFFFFFFFF AND JUMP JUMPDEST SWAP2 POP POP JUMPDEST PUSH1 0x0 PUSH1 0x13 SLOAD GT DUP1 ISZERO PUSH2 0x3876 JUMPI POP PUSH1 0x0 PUSH20 0xFFFFFFFFFFFFFFFFFFFFFFFFFFFFFFFFFFFFFFFF AND CALLER PUSH20 0xFFFFFFFFFFFFFFFFFFFFFFFFFFFFFFFFFFFFFFFF AND EQ ISZERO JUMPDEST DUP1 ISZERO PUSH2 0x38D1 JUMPI POP PUSH1 0x0 PUSH20 0xFFFFFFFFFFFFFFFFFFFFFFFFFFFFFFFFFFFFFFFF AND PUSH1 0xB PUSH1 0x1 SWAP1 SLOAD SWAP1 PUSH2 0x100 EXP SWAP1 DIV PUSH20 0xFFFFFFFFFFFFFFFFFFFFFFFFFFFFFFFFFFFFFFFF AND PUSH20 0xFFFFFFFFFFFFFFFFFFFFFFFFFFFFFFFFFFFFFFFF AND EQ ISZERO JUMPDEST ISZERO PUSH2 0x3945 JUMPI PUSH1 0x0 PUSH2 0x3900 PUSH1 0x64 PUSH2 0x38F2 PUSH1 0x13 SLOAD DUP7 PUSH2 0x3CA8 SWAP1 SWAP2 SWAP1 PUSH4 0xFFFFFFFF AND JUMP JUMPDEST PUSH2 0x3D2E SWAP1 SWAP2 SWAP1 PUSH4 0xFFFFFFFF AND JUMP JUMPDEST SWAP1 POP PUSH2 0x392E PUSH1 0xB PUSH1 0x1 SWAP1 SLOAD SWAP1 PUSH2 0x100 EXP SWAP1 DIV PUSH20 0xFFFFFFFFFFFFFFFFFFFFFFFFFFFFFFFFFFFFFFFF AND DUP3 PUSH2 0x2F54 JUMP JUMPDEST PUSH2 0x3941 DUP2 DUP4 PUSH2 0x2ECC SWAP1 SWAP2 SWAP1 PUSH4 0xFFFFFFFF AND JUMP JUMPDEST SWAP2 POP POP JUMPDEST PUSH1 0x0 PUSH1 0x12 SLOAD GT DUP1 ISZERO PUSH2 0x3984 JUMPI POP PUSH1 0x0 PUSH20 0xFFFFFFFFFFFFFFFFFFFFFFFFFFFFFFFFFFFFFFFF AND CALLER PUSH20 0xFFFFFFFFFFFFFFFFFFFFFFFFFFFFFFFFFFFFFFFF AND EQ ISZERO JUMPDEST DUP1 ISZERO PUSH2 0x39DF JUMPI POP PUSH1 0x0 PUSH20 0xFFFFFFFFFFFFFFFFFFFFFFFFFFFFFFFFFFFFFFFF AND PUSH1 0xC PUSH1 0x0 SWAP1 SLOAD SWAP1 PUSH2 0x100 EXP SWAP1 DIV PUSH20 0xFFFFFFFFFFFFFFFFFFFFFFFFFFFFFFFFFFFFFFFF AND PUSH20 0xFFFFFFFFFFFFFFFFFFFFFFFFFFFFFFFFFFFFFFFF AND EQ ISZERO JUMPDEST ISZERO PUSH2 0x3A53 JUMPI PUSH1 0x0 PUSH2 0x3A0E PUSH1 0x64 PUSH2 0x3A00 PUSH1 0x12 SLOAD DUP7 PUSH2 0x3CA8 SWAP1 SWAP2 SWAP1 PUSH4 0xFFFFFFFF AND JUMP JUMPDEST PUSH2 0x3D2E SWAP1 SWAP2 SWAP1 PUSH4 0xFFFFFFFF AND JUMP JUMPDEST SWAP1 POP PUSH2 0x3A3C PUSH1 0xC PUSH1 0x0 SWAP1 SLOAD SWAP1 PUSH2 0x100 EXP SWAP1 DIV PUSH20 0xFFFFFFFFFFFFFFFFFFFFFFFFFFFFFFFFFFFFFFFF AND DUP3 PUSH2 0x2F54 JUMP JUMPDEST PUSH2 0x3A4F DUP2 DUP4 PUSH2 0x2ECC SWAP1 SWAP2 SWAP1 PUSH4 0xFFFFFFFF AND JUMP JUMPDEST SWAP2 POP POP JUMPDEST PUSH1 0x0 PUSH1 0x14 SLOAD GT DUP1 ISZERO PUSH2 0x3A92 JUMPI POP PUSH1 0x0 PUSH20 0xFFFFFFFFFFFFFFFFFFFFFFFFFFFFFFFFFFFFFFFF AND CALLER PUSH20 0xFFFFFFFFFFFFFFFFFFFFFFFFFFFFFFFFFFFFFFFF AND EQ ISZERO JUMPDEST DUP1 ISZERO PUSH2 0x3AED JUMPI POP PUSH1 0x0 PUSH20 0xFFFFFFFFFFFFFFFFFFFFFFFFFFFFFFFFFFFFFFFF AND PUSH1 0xD PUSH1 0x0 SWAP1 SLOAD SWAP1 PUSH2 0x100 EXP SWAP1 DIV PUSH20 0xFFFFFFFFFFFFFFFFFFFFFFFFFFFFFFFFFFFFFFFF AND PUSH20 0xFFFFFFFFFFFFFFFFFFFFFFFFFFFFFFFFFFFFFFFF AND EQ ISZERO JUMPDEST ISZERO PUSH2 0x3B61 JUMPI PUSH1 0x0 PUSH2 0x3B1C PUSH1 0x64 PUSH2 0x3B0E PUSH1 0x14 SLOAD DUP7 PUSH2 0x3CA8 SWAP1 SWAP2 SWAP1 PUSH4 0xFFFFFFFF AND JUMP JUMPDEST PUSH2 0x3D2E SWAP1 SWAP2 SWAP1 PUSH4 0xFFFFFFFF AND JUMP JUMPDEST SWAP1 POP PUSH2 0x3B4A PUSH1 0xD PUSH1 0x0 SWAP1 SLOAD SWAP1 PUSH2 0x100 EXP SWAP1 DIV PUSH20 0xFFFFFFFFFFFFFFFFFFFFFFFFFFFFFFFFFFFFFFFF AND DUP3 PUSH2 0x2F54 JUMP JUMPDEST PUSH2 0x3B5D DUP2 DUP4 PUSH2 0x2ECC SWAP1 SWAP2 SWAP1 PUSH4 0xFFFFFFFF AND JUMP JUMPDEST SWAP2 POP POP JUMPDEST PUSH2 0x3B74 DUP2 DUP4 PUSH2 0x3B84 SWAP1 SWAP2 SWAP1 PUSH4 0xFFFFFFFF AND JUMP JUMPDEST SWAP2 POP PUSH2 0x3B80 CALLER DUP4 PUSH2 0x2F54 JUMP JUMPDEST POP POP JUMP JUMPDEST PUSH1 0x0 PUSH2 0x3BC6 DUP4 DUP4 PUSH1 0x40 MLOAD DUP1 PUSH1 0x40 ADD PUSH1 0x40 MSTORE DUP1 PUSH1 0x1E DUP2 MSTORE PUSH1 0x20 ADD PUSH32 0x536166654D6174683A207375627472616374696F6E206F766572666C6F770000 DUP2 MSTORE POP PUSH2 0x2E0C JUMP JUMPDEST SWAP1 POP SWAP3 SWAP2 POP POP JUMP JUMPDEST PUSH2 0x3BD8 DUP3 DUP3 PUSH2 0x403C JUMP JUMPDEST PUSH1 0x0 PUSH20 0xFFFFFFFFFFFFFFFFFFFFFFFFFFFFFFFFFFFFFFFF AND DUP3 PUSH20 0xFFFFFFFFFFFFFFFFFFFFFFFFFFFFFFFFFFFFFFFF AND EQ ISZERO PUSH2 0x3CA4 JUMPI PUSH2 0x3C15 PUSH2 0x1EE9 JUMP JUMPDEST PUSH2 0x3C2F DUP3 PUSH2 0x3C21 PUSH2 0xF83 JUMP JUMPDEST PUSH2 0x2ECC SWAP1 SWAP2 SWAP1 PUSH4 0xFFFFFFFF AND JUMP JUMPDEST GT ISZERO PUSH2 0x3CA3 JUMPI PUSH1 0x40 MLOAD PUSH32 0x8C379A000000000000000000000000000000000000000000000000000000000 DUP2 MSTORE PUSH1 0x4 ADD DUP1 DUP1 PUSH1 0x20 ADD DUP3 DUP2 SUB DUP3 MSTORE PUSH1 0x20 DUP2 MSTORE PUSH1 0x20 ADD DUP1 PUSH32 0x45524332304361707065643A206D617820737570706C79206578636565646564 DUP2 MSTORE POP PUSH1 0x20 ADD SWAP2 POP POP PUSH1 0x40 MLOAD DUP1 SWAP2 SUB SWAP1 REVERT JUMPDEST JUMPDEST POP POP JUMP JUMPDEST PUSH1 0x0 DUP1 DUP4 EQ ISZERO PUSH2 0x3CBB JUMPI PUSH1 0x0 SWAP1 POP PUSH2 0x3D28 JUMP JUMPDEST PUSH1 0x0 DUP3 DUP5 MUL SWAP1 POP DUP3 DUP5 DUP3 DUP2 PUSH2 0x3CCC JUMPI INVALID JUMPDEST DIV EQ PUSH2 0x3D23 JUMPI PUSH1 0x40 MLOAD PUSH32 0x8C379A000000000000000000000000000000000000000000000000000000000 DUP2 MSTORE PUSH1 0x4 ADD DUP1 DUP1 PUSH1 0x20 ADD DUP3 DUP2 SUB DUP3 MSTORE PUSH1 0x21 DUP2 MSTORE PUSH1 0x20 ADD DUP1 PUSH2 0x4328 PUSH1 0x21 SWAP2 CODECOPY PUSH1 0x40 ADD SWAP2 POP POP PUSH1 0x40 MLOAD DUP1 SWAP2 SUB SWAP1 REVERT JUMPDEST DUP1 SWAP2 POP POP JUMPDEST SWAP3 SWAP2 POP POP JUMP JUMPDEST PUSH1 0x0 PUSH2 0x3D70 DUP4 DUP4 PUSH1 0x40 MLOAD DUP1 PUSH1 0x40 ADD PUSH1 0x40 MSTORE DUP1 PUSH1 0x1A DUP2 MSTORE PUSH1 0x20 ADD PUSH32 0x536166654D6174683A206469766973696F6E206279207A65726F000000000000 DUP2 MSTORE POP PUSH2 0x40D8 JUMP JUMPDEST SWAP1 POP SWAP3 SWAP2 POP POP JUMP JUMPDEST PUSH1 0x0 PUSH20 0xFFFFFFFFFFFFFFFFFFFFFFFFFFFFFFFFFFFFFFFF AND DUP4 PUSH20 0xFFFFFFFFFFFFFFFFFFFFFFFFFFFFFFFFFFFFFFFF AND EQ ISZERO PUSH2 0x3DFE JUMPI PUSH1 0x40 MLOAD PUSH32 0x8C379A000000000000000000000000000000000000000000000000000000000 DUP2 MSTORE PUSH1 0x4 ADD DUP1 DUP1 PUSH1 0x20 ADD DUP3 DUP2 SUB DUP3 MSTORE PUSH1 0x25 DUP2 MSTORE PUSH1 0x20 ADD DUP1 PUSH2 0x43FF PUSH1 0x25 SWAP2 CODECOPY PUSH1 0x40 ADD SWAP2 POP POP PUSH1 0x40 MLOAD DUP1 SWAP2 SUB SWAP1 REVERT JUMPDEST PUSH1 0x0 PUSH20 0xFFFFFFFFFFFFFFFFFFFFFFFFFFFFFFFFFFFFFFFF AND DUP3 PUSH20 0xFFFFFFFFFFFFFFFFFFFFFFFFFFFFFFFFFFFFFFFF AND EQ ISZERO PUSH2 0x3E84 JUMPI PUSH1 0x40 MLOAD PUSH32 0x8C379A000000000000000000000000000000000000000000000000000000000 DUP2 MSTORE PUSH1 0x4 ADD DUP1 DUP1 PUSH1 0x20 ADD DUP3 DUP2 SUB DUP3 MSTORE PUSH1 0x23 DUP2 MSTORE PUSH1 0x20 ADD DUP1 PUSH2 0x419F PUSH1 0x23 SWAP2 CODECOPY PUSH1 0x40 ADD SWAP2 POP POP PUSH1 0x40 MLOAD DUP1 SWAP2 SUB SWAP1 REVERT JUMPDEST PUSH2 0x3E8E DUP4 DUP3 PUSH2 0x3BCE JUMP JUMPDEST PUSH2 0x3EFA DUP2 PUSH1 0x40 MLOAD DUP1 PUSH1 0x60 ADD PUSH1 0x40 MSTORE DUP1 PUSH1 0x26 DUP2 MSTORE PUSH1 0x20 ADD PUSH2 0x42AA PUSH1 0x26 SWAP2 CODECOPY PUSH1 0x5 PUSH1 0x0 DUP8 PUSH20 0xFFFFFFFFFFFFFFFFFFFFFFFFFFFFFFFFFFFFFFFF AND PUSH20 0xFFFFFFFFFFFFFFFFFFFFFFFFFFFFFFFFFFFFFFFF AND DUP2 MSTORE PUSH1 0x20 ADD SWAP1 DUP2 MSTORE PUSH1 0x20 ADD PUSH1 0x0 KECCAK256 SLOAD PUSH2 0x2E0C SWAP1 SWAP3 SWAP2 SWAP1 PUSH4 0xFFFFFFFF AND JUMP JUMPDEST PUSH1 0x5 PUSH1 0x0 DUP6 PUSH20 0xFFFFFFFFFFFFFFFFFFFFFFFFFFFFFFFFFFFFFFFF AND PUSH20 0xFFFFFFFFFFFFFFFFFFFFFFFFFFFFFFFFFFFFFFFF AND DUP2 MSTORE PUSH1 0x20 ADD SWAP1 DUP2 MSTORE PUSH1 0x20 ADD PUSH1 0x0 KECCAK256 DUP2 SWAP1 SSTORE POP PUSH2 0x3F8F DUP2 PUSH1 0x5 PUSH1 0x0 DUP6 PUSH20 0xFFFFFFFFFFFFFFFFFFFFFFFFFFFFFFFFFFFFFFFF AND PUSH20 0xFFFFFFFFFFFFFFFFFFFFFFFFFFFFFFFFFFFFFFFF AND DUP2 MSTORE PUSH1 0x20 ADD SWAP1 DUP2 MSTORE PUSH1 0x20 ADD PUSH1 0x0 KECCAK256 SLOAD PUSH2 0x2ECC SWAP1 SWAP2 SWAP1 PUSH4 0xFFFFFFFF AND JUMP JUMPDEST PUSH1 0x5 PUSH1 0x0 DUP5 PUSH20 0xFFFFFFFFFFFFFFFFFFFFFFFFFFFFFFFFFFFFFFFF AND PUSH20 0xFFFFFFFFFFFFFFFFFFFFFFFFFFFFFFFFFFFFFFFF AND DUP2 MSTORE PUSH1 0x20 ADD SWAP1 DUP2 MSTORE PUSH1 0x20 ADD PUSH1 0x0 KECCAK256 DUP2 SWAP1 SSTORE POP DUP2 PUSH20 0xFFFFFFFFFFFFFFFFFFFFFFFFFFFFFFFFFFFFFFFF AND DUP4 PUSH20 0xFFFFFFFFFFFFFFFFFFFFFFFFFFFFFFFFFFFFFFFF AND PUSH32 0xDDF252AD1BE2C89B69C2B068FC378DAA952BA7F163C4A11628F55A4DF523B3EF DUP4 PUSH1 0x40 MLOAD DUP1 DUP3 DUP2 MSTORE PUSH1 0x20 ADD SWAP2 POP POP PUSH1 0x40 MLOAD DUP1 SWAP2 SUB SWAP1 LOG3 POP POP POP JUMP JUMPDEST DUP1 PUSH1 0x5 PUSH1 0x0 DUP5 PUSH20 0xFFFFFFFFFFFFFFFFFFFFFFFFFFFFFFFFFFFFFFFF AND PUSH20 0xFFFFFFFFFFFFFFFFFFFFFFFFFFFFFFFFFFFFFFFF AND DUP2 MSTORE PUSH1 0x20 ADD SWAP1 DUP2 MSTORE PUSH1 0x20 ADD PUSH1 0x0 KECCAK256 SLOAD LT ISZERO PUSH2 0x40D4 JUMPI PUSH1 0x40 MLOAD PUSH32 0x8C379A000000000000000000000000000000000000000000000000000000000 DUP2 MSTORE PUSH1 0x4 ADD DUP1 DUP1 PUSH1 0x20 ADD DUP3 DUP2 SUB DUP3 MSTORE PUSH1 0x26 DUP2 MSTORE PUSH1 0x20 ADD DUP1 PUSH2 0x42AA PUSH1 0x26 SWAP2 CODECOPY PUSH1 0x40 ADD SWAP2 POP POP PUSH1 0x40 MLOAD DUP1 SWAP2 SUB SWAP1 REVERT JUMPDEST POP POP JUMP JUMPDEST PUSH1 0x0 DUP1 DUP4 GT DUP3 SWAP1 PUSH2 0x4184 JUMPI PUSH1 0x40 MLOAD PUSH32 0x8C379A000000000000000000000000000000000000000000000000000000000 DUP2 MSTORE PUSH1 0x4 ADD DUP1 DUP1 PUSH1 0x20 ADD DUP3 DUP2 SUB DUP3 MSTORE DUP4 DUP2 DUP2 MLOAD DUP2 MSTORE PUSH1 0x20 ADD SWAP2 POP DUP1 MLOAD SWAP1 PUSH1 0x20 ADD SWAP1 DUP1 DUP4 DUP4 PUSH1 0x0 JUMPDEST DUP4 DUP2 LT ISZERO PUSH2 0x4149 JUMPI DUP1 DUP3 ADD MLOAD DUP2 DUP5 ADD MSTORE PUSH1 0x20 DUP2 ADD SWAP1 POP PUSH2 0x412E JUMP JUMPDEST POP POP POP POP SWAP1 POP SWAP1 DUP2 ADD SWAP1 PUSH1 0x1F AND DUP1 ISZERO PUSH2 0x4176 JUMPI DUP1 DUP3 SUB DUP1 MLOAD PUSH1 0x1 DUP4 PUSH1 0x20 SUB PUSH2 0x100 EXP SUB NOT AND DUP2 MSTORE PUSH1 0x20 ADD SWAP2 POP JUMPDEST POP SWAP3 POP POP POP PUSH1 0x40 MLOAD DUP1 SWAP2 SUB SWAP1 REVERT JUMPDEST POP PUSH1 0x0 DUP4 DUP6 DUP2 PUSH2 0x4190 JUMPI INVALID JUMPDEST DIV SWAP1 POP DUP1 SWAP2 POP POP SWAP4 SWAP3 POP POP POP JUMP INVALID GASLIMIT MSTORE NUMBER ORIGIN ADDRESS GASPRICE KECCAK256 PUSH21 0x72616E7366657220746F20746865207A65726F2061 PUSH5 0x6472657373 GASLIMIT MSTORE NUMBER ORIGIN ADDRESS GASPRICE KECCAK256 PUSH14 0x656C742066726F6D207468652061 PUSH5 0x6472657373 GASPRICE KECCAK256 PUSH3 0x616C61 PUSH15 0x6365203C20616D6F756E7445524332 ADDRESS GASPRICE KECCAK256 PUSH3 0x75726E KECCAK256 PUSH2 0x6D6F PUSH22 0x6E7420657863656564732062616C616E636545524332 ADDRESS GASPRICE KECCAK256 PUSH14 0x696E742066726F7A656E20746F20 PUSH21 0x6865207A65726F20616464726573734F776E61626C PUSH6 0x3A206E657720 PUSH16 0x776E657220697320746865207A65726F KECCAK256 PUSH2 0x6464 PUSH19 0x65737345524332303A20617070726F76652074 PUSH16 0x20746865207A65726F20616464726573 PUSH20 0x45524332303A206D696E742066726F7A656E2074 PUSH16 0x2074686520636F6E7472616374206164 PUSH5 0x7265737345 MSTORE NUMBER ORIGIN ADDRESS GASPRICE KECCAK256 PUSH21 0x72616E7366657220616D6F756E7420657863656564 PUSH20 0x2062616C616E636545524332303A206D656C7420 PUSH7 0x726F6D20746865 KECCAK256 PUSH2 0x6464 PUSH19 0x6573733A2076616C75652073686F756C642062 PUSH6 0x203E20304552 NUMBER ORIGIN ADDRESS GASPRICE KECCAK256 PUSH14 0x696E742066726F7A656E20616D6F PUSH22 0x6E742073686F756C64206265203E2030536166654D61 PUSH21 0x683A206D756C7469706C69636174696F6E206F7665 PUSH19 0x666C6F7745524332303A207472616E73666572 KECCAK256 PUSH2 0x6D6F PUSH22 0x6E74206578636565647320616C6C6F77616E63654552 NUMBER ORIGIN ADDRESS GASPRICE KECCAK256 PUSH3 0x75726E KECCAK256 PUSH2 0x6D6F PUSH22 0x6E74206578636565647320616C6C6F77616E63654552 NUMBER ORIGIN ADDRESS GASPRICE KECCAK256 PUSH14 0x656C742066726F6D20746865207A PUSH6 0x726F20616464 PUSH19 0x65737345524332303A206275726E2066726F6D KECCAK256 PUSH21 0x6865207A65726F206164647265737345524332303A KECCAK256 PUSH7 0x726F7A656E2062 PUSH22 0x726E2066726F6D20746865207A65726F206164647265 PUSH20 0x7345524332303A207472616E736665722066726F PUSH14 0x20746865207A65726F2061646472 PUSH6 0x737345524332 ADDRESS GASPRICE KECCAK256 PUSH2 0x7070 PUSH19 0x6F76652066726F6D20746865207A65726F2061 PUSH5 0x6472657373 PUSH4 0x616C6C65 PUSH19 0x206E6F7420612070656E64696E67206D656C74 PUSH6 0x722061646D69 PUSH15 0x45524332303A206465637265617365 PUSH5 0x20616C6C6F PUSH24 0x616E63652062656C6F77207A65726FA26469706673582212 KECCAK256 POP 0xAA AND 0x4B MUL 0xD CALL PUSH29 0x4C39CBFC5C9728715F7B99E5F18003A54ABD80B2EB6FB7AE64736F6C63 NUMBER STOP MOD 0xC STOP CALLER "
				},
				"gasEstimates": {
					"creation": {
						"codeDepositCost": "3520600",
						"executionCost": "infinite",
						"totalCost": "infinite"
					},
					"external": {
						"BuyTest(uint256)": "infinite",
						"SellTest(address,uint256)": "infinite",
						"addToMinters(address)": "22128",
						"addTransferFeeAddress(address)": "22208",
						"allowance(address,address)": "1387",
						"approve(address,uint256)": "infinite",
						"availableBalance(address)": "1241",
						"balanceOf(address)": "infinite",
						"burn(uint256)": "infinite",
						"burnFrom(address,uint256)": "infinite",
						"claimMinterAdmin()": "infinite",
						"decimals()": "1101",
						"decreaseAllowance(address,uint256)": "infinite",
						"destroyFrozen(address,uint256)": "infinite",
						"increaseAllowance(address,uint256)": "infinite",
						"maxSupply()": "1146",
						"meltTokens(address,uint256)": "infinite",
						"mint(address,uint256)": "infinite",
						"mintFrozenTokens(address,uint256)": "infinite",
						"minteradmin()": "1124",
						"name()": "infinite",
						"owner()": "1123",
						"pendingMinterAdmin()": "1158",
						"removeFromMinters(address)": "22128",
						"removeTransferBurnAddress(address)": "22161",
						"renounceOwnership()": "24408",
						"symbol()": "infinite",
						"totalSupply()": "1081",
						"transfer(address,uint256)": "infinite",
						"transferFeeBuyDEV()": "1050",
						"transferFeeBuyLP()": "1094",
						"transferFeeBuyMKT()": "1094",
						"transferFeeBuyRWP()": "1050",
						"transferFeeRate()": "1073",
						"transferFeeSellRWP()": "1051",
						"transferFrom(address,address,uint256)": "infinite",
						"transferFrozenToken(address,address,uint256)": "infinite",
						"transferMinterAdmin(address)": "22015",
						"transferOwnership(address)": "infinite"
					},
					"internal": {
						"_beforeTokenTransfer(address,uint256)": "infinite",
						"_transfer(address,address,uint256)": "infinite",
						"_transferBuy(uint256)": "infinite",
						"_transferSell(address,address,uint256)": "infinite"
					}
				},
				"methodIdentifiers": {
					"BuyTest(uint256)": "f3d566a2",
					"SellTest(address,uint256)": "2291c5d4",
					"addToMinters(address)": "a15c15af",
					"addTransferFeeAddress(address)": "91116d67",
					"allowance(address,address)": "dd62ed3e",
					"approve(address,uint256)": "095ea7b3",
					"availableBalance(address)": "a0821be3",
					"balanceOf(address)": "70a08231",
					"burn(uint256)": "42966c68",
					"burnFrom(address,uint256)": "79cc6790",
					"claimMinterAdmin()": "1d2c0b3d",
					"decimals()": "313ce567",
					"decreaseAllowance(address,uint256)": "a457c2d7",
					"destroyFrozen(address,uint256)": "171177b3",
					"increaseAllowance(address,uint256)": "39509351",
					"maxSupply()": "d5abeb01",
					"meltTokens(address,uint256)": "0c15f601",
					"mint(address,uint256)": "40c10f19",
					"mintFrozenTokens(address,uint256)": "c4157b29",
					"minteradmin()": "08c985bf",
					"name()": "06fdde03",
					"owner()": "8da5cb5b",
					"pendingMinterAdmin()": "ce1d82f5",
					"removeFromMinters(address)": "6e722920",
					"removeTransferBurnAddress(address)": "8fe8cf24",
					"renounceOwnership()": "715018a6",
					"symbol()": "95d89b41",
					"totalSupply()": "18160ddd",
					"transfer(address,uint256)": "a9059cbb",
					"transferFeeBuyDEV()": "64fcc5de",
					"transferFeeBuyLP()": "a23247ef",
					"transferFeeBuyMKT()": "c7d6e618",
					"transferFeeBuyRWP()": "b7c076f9",
					"transferFeeRate()": "351bf518",
					"transferFeeSellRWP()": "8482ad34",
					"transferFrom(address,address,uint256)": "23b872dd",
					"transferFrozenToken(address,address,uint256)": "e50d3180",
					"transferMinterAdmin(address)": "dba03d81",
					"transferOwnership(address)": "f2fde38b"
				}
			},
			"storageLayout": {
				"storage": [
					{
						"astId": 649,
						"contract": "contracts/Token/Token.sol:World_Step",
						"label": "frozen_balances",
						"offset": 0,
						"slot": "0",
						"type": "t_mapping(t_address,t_uint256)"
					},
					{
						"astId": 540,
						"contract": "contracts/Token/Token.sol:World_Step",
						"label": "_owner",
						"offset": 0,
						"slot": "1",
						"type": "t_address"
					},
					{
						"astId": 713,
						"contract": "contracts/Token/Token.sol:World_Step",
						"label": "_minters",
						"offset": 0,
						"slot": "2",
						"type": "t_mapping(t_address,t_bool)"
					},
					{
						"astId": 715,
						"contract": "contracts/Token/Token.sol:World_Step",
						"label": "_minterAdmin",
						"offset": 0,
						"slot": "3",
						"type": "t_address"
					},
					{
						"astId": 717,
						"contract": "contracts/Token/Token.sol:World_Step",
						"label": "pendingMinterAdmin",
						"offset": 0,
						"slot": "4",
						"type": "t_address"
					},
					{
						"astId": 869,
						"contract": "contracts/Token/Token.sol:World_Step",
						"label": "_balances",
						"offset": 0,
						"slot": "5",
						"type": "t_mapping(t_address,t_uint256)"
					},
					{
						"astId": 875,
						"contract": "contracts/Token/Token.sol:World_Step",
						"label": "_allowances",
						"offset": 0,
						"slot": "6",
						"type": "t_mapping(t_address,t_mapping(t_address,t_uint256))"
					},
					{
						"astId": 877,
						"contract": "contracts/Token/Token.sol:World_Step",
						"label": "_totalSupply",
						"offset": 0,
						"slot": "7",
						"type": "t_uint256"
					},
					{
						"astId": 879,
						"contract": "contracts/Token/Token.sol:World_Step",
						"label": "_maxSupply",
						"offset": 0,
						"slot": "8",
						"type": "t_uint256"
					},
					{
						"astId": 881,
						"contract": "contracts/Token/Token.sol:World_Step",
						"label": "_name",
						"offset": 0,
						"slot": "9",
						"type": "t_string_storage"
					},
					{
						"astId": 883,
						"contract": "contracts/Token/Token.sol:World_Step",
						"label": "_symbol",
						"offset": 0,
						"slot": "10",
						"type": "t_string_storage"
					},
					{
						"astId": 885,
						"contract": "contracts/Token/Token.sol:World_Step",
						"label": "_decimals",
						"offset": 0,
						"slot": "11",
						"type": "t_uint8"
					},
					{
						"astId": 1603,
						"contract": "contracts/Token/Token.sol:World_Step",
						"label": "_developmentAddress",
						"offset": 1,
						"slot": "11",
						"type": "t_address_payable"
					},
					{
						"astId": 1612,
						"contract": "contracts/Token/Token.sol:World_Step",
						"label": "_marketingAddress",
						"offset": 0,
						"slot": "12",
						"type": "t_address_payable"
					},
					{
						"astId": 1621,
						"contract": "contracts/Token/Token.sol:World_Step",
						"label": "_rewardPool",
						"offset": 0,
						"slot": "13",
						"type": "t_address_payable"
					},
					{
						"astId": 1630,
						"contract": "contracts/Token/Token.sol:World_Step",
						"label": "_liquidityPool",
						"offset": 0,
						"slot": "14",
						"type": "t_address_payable"
					},
					{
						"astId": 1632,
						"contract": "contracts/Token/Token.sol:World_Step",
						"label": "transferFeeRate",
						"offset": 0,
						"slot": "15",
						"type": "t_uint256"
					},
					{
						"astId": 1634,
						"contract": "contracts/Token/Token.sol:World_Step",
						"label": "transferFeeSellRWP",
						"offset": 0,
						"slot": "16",
						"type": "t_uint256"
					},
					{
						"astId": 1636,
						"contract": "contracts/Token/Token.sol:World_Step",
						"label": "transferFeeBuyLP",
						"offset": 0,
						"slot": "17",
						"type": "t_uint256"
					},
					{
						"astId": 1638,
						"contract": "contracts/Token/Token.sol:World_Step",
						"label": "transferFeeBuyMKT",
						"offset": 0,
						"slot": "18",
						"type": "t_uint256"
					},
					{
						"astId": 1640,
						"contract": "contracts/Token/Token.sol:World_Step",
						"label": "transferFeeBuyDEV",
						"offset": 0,
						"slot": "19",
						"type": "t_uint256"
					},
					{
						"astId": 1642,
						"contract": "contracts/Token/Token.sol:World_Step",
						"label": "transferFeeBuyRWP",
						"offset": 0,
						"slot": "20",
						"type": "t_uint256"
					},
					{
						"astId": 1646,
						"contract": "contracts/Token/Token.sol:World_Step",
						"label": "_transactionFee",
						"offset": 0,
						"slot": "21",
						"type": "t_mapping(t_address,t_bool)"
					},
					{
						"astId": 1650,
						"contract": "contracts/Token/Token.sol:World_Step",
						"label": "_isExcludedFromFee",
						"offset": 0,
						"slot": "22",
						"type": "t_mapping(t_address,t_bool)"
					}
				],
				"types": {
					"t_address": {
						"encoding": "inplace",
						"label": "address",
						"numberOfBytes": "20"
					},
					"t_address_payable": {
						"encoding": "inplace",
						"label": "address payable",
						"numberOfBytes": "20"
					},
					"t_bool": {
						"encoding": "inplace",
						"label": "bool",
						"numberOfBytes": "1"
					},
					"t_mapping(t_address,t_bool)": {
						"encoding": "mapping",
						"key": "t_address",
						"label": "mapping(address => bool)",
						"numberOfBytes": "32",
						"value": "t_bool"
					},
					"t_mapping(t_address,t_mapping(t_address,t_uint256))": {
						"encoding": "mapping",
						"key": "t_address",
						"label": "mapping(address => mapping(address => uint256))",
						"numberOfBytes": "32",
						"value": "t_mapping(t_address,t_uint256)"
					},
					"t_mapping(t_address,t_uint256)": {
						"encoding": "mapping",
						"key": "t_address",
						"label": "mapping(address => uint256)",
						"numberOfBytes": "32",
						"value": "t_uint256"
					},
					"t_string_storage": {
						"encoding": "bytes",
						"label": "string",
						"numberOfBytes": "32"
					},
					"t_uint256": {
						"encoding": "inplace",
						"label": "uint256",
						"numberOfBytes": "32"
					},
					"t_uint8": {
						"encoding": "inplace",
						"label": "uint8",
						"numberOfBytes": "1"
					}
				}
			},
			"userdoc": {
				"kind": "user",
				"methods": {
					"mint(address,uint256)": {
						"notice": "Creates `_amount` token to `_to`. Must only be called by the owner (MasterChef)."
					}
				},
				"version": 1
			}
		}
	}
}