{
	"contracts/Token/Token.sol": {
		"World_Step": {
			"abi": [
				{
					"inputs": [],
					"stateMutability": "nonpayable",
					"type": "constructor"
				},
				{
					"anonymous": false,
					"inputs": [
						{
							"indexed": true,
							"internalType": "address",
							"name": "owner",
							"type": "address"
						},
						{
							"indexed": true,
							"internalType": "address",
							"name": "spender",
							"type": "address"
						},
						{
							"indexed": false,
							"internalType": "uint256",
							"name": "value",
							"type": "uint256"
						}
					],
					"name": "Approval",
					"type": "event"
				},
				{
					"anonymous": false,
					"inputs": [
						{
							"indexed": true,
							"internalType": "address",
							"name": "from",
							"type": "address"
						},
						{
							"indexed": false,
							"internalType": "uint256",
							"name": "amount",
							"type": "uint256"
						}
					],
					"name": "Freeze",
					"type": "event"
				},
				{
					"anonymous": false,
					"inputs": [
						{
							"indexed": true,
							"internalType": "address",
							"name": "from",
							"type": "address"
						},
						{
							"indexed": true,
							"internalType": "address",
							"name": "to",
							"type": "address"
						},
						{
							"indexed": false,
							"internalType": "uint256",
							"name": "value",
							"type": "uint256"
						}
					],
					"name": "FrozenTransfer",
					"type": "event"
				},
				{
					"anonymous": false,
					"inputs": [
						{
							"indexed": true,
							"internalType": "address",
							"name": "from",
							"type": "address"
						},
						{
							"indexed": false,
							"internalType": "uint256",
							"name": "amount",
							"type": "uint256"
						}
					],
					"name": "MeltFrozen",
					"type": "event"
				},
				{
					"anonymous": false,
					"inputs": [
						{
							"indexed": true,
							"internalType": "address",
							"name": "previousMelter",
							"type": "address"
						},
						{
							"indexed": true,
							"internalType": "address",
							"name": "newMelter",
							"type": "address"
						}
					],
					"name": "MelterTransferred",
					"type": "event"
				},
				{
					"anonymous": false,
					"inputs": [
						{
							"indexed": true,
							"internalType": "address",
							"name": "to",
							"type": "address"
						},
						{
							"indexed": false,
							"internalType": "uint256",
							"name": "amount",
							"type": "uint256"
						}
					],
					"name": "MintFrozen",
					"type": "event"
				},
				{
					"anonymous": false,
					"inputs": [
						{
							"indexed": true,
							"internalType": "address",
							"name": "previousOwner",
							"type": "address"
						},
						{
							"indexed": true,
							"internalType": "address",
							"name": "newOwner",
							"type": "address"
						}
					],
					"name": "OwnershipTransferred",
					"type": "event"
				},
				{
					"anonymous": false,
					"inputs": [
						{
							"indexed": true,
							"internalType": "address",
							"name": "from",
							"type": "address"
						},
						{
							"indexed": true,
							"internalType": "address",
							"name": "to",
							"type": "address"
						},
						{
							"indexed": false,
							"internalType": "uint256",
							"name": "value",
							"type": "uint256"
						}
					],
					"name": "Transfer",
					"type": "event"
				},
				{
					"inputs": [],
					"name": "_factory",
					"outputs": [
						{
							"internalType": "address",
							"name": "",
							"type": "address"
						}
					],
					"stateMutability": "view",
					"type": "function"
				},
				{
					"inputs": [
						{
							"internalType": "address",
							"name": "account",
							"type": "address"
						}
					],
					"name": "addToMelters",
					"outputs": [],
					"stateMutability": "nonpayable",
					"type": "function"
				},
				{
					"inputs": [
						{
							"internalType": "address",
							"name": "_transferFeeAddress",
							"type": "address"
						}
					],
					"name": "addTransferFeeAddress",
					"outputs": [],
					"stateMutability": "nonpayable",
					"type": "function"
				},
				{
					"inputs": [
						{
							"internalType": "address",
							"name": "owner",
							"type": "address"
						},
						{
							"internalType": "address",
							"name": "spender",
							"type": "address"
						}
					],
					"name": "allowance",
					"outputs": [
						{
							"internalType": "uint256",
							"name": "",
							"type": "uint256"
						}
					],
					"stateMutability": "view",
					"type": "function"
				},
				{
					"inputs": [
						{
							"internalType": "address",
							"name": "spender",
							"type": "address"
						},
						{
							"internalType": "uint256",
							"name": "amount",
							"type": "uint256"
						}
					],
					"name": "approve",
					"outputs": [
						{
							"internalType": "bool",
							"name": "",
							"type": "bool"
						}
					],
					"stateMutability": "nonpayable",
					"type": "function"
				},
				{
					"inputs": [
						{
							"internalType": "address",
							"name": "account",
							"type": "address"
						}
					],
					"name": "availableBalance",
					"outputs": [
						{
							"internalType": "uint256",
							"name": "",
							"type": "uint256"
						}
					],
					"stateMutability": "view",
					"type": "function"
				},
				{
					"inputs": [
						{
							"internalType": "address",
							"name": "account",
							"type": "address"
						}
					],
					"name": "balanceOf",
					"outputs": [
						{
							"internalType": "uint256",
							"name": "",
							"type": "uint256"
						}
					],
					"stateMutability": "view",
					"type": "function"
				},
				{
					"inputs": [
						{
							"internalType": "uint256",
							"name": "amount",
							"type": "uint256"
						}
					],
					"name": "burn",
					"outputs": [
						{
							"internalType": "bool",
							"name": "",
							"type": "bool"
						}
					],
					"stateMutability": "nonpayable",
					"type": "function"
				},
				{
					"inputs": [
						{
							"internalType": "address",
							"name": "account",
							"type": "address"
						},
						{
							"internalType": "uint256",
							"name": "amount",
							"type": "uint256"
						}
					],
					"name": "burnFrom",
					"outputs": [
						{
							"internalType": "bool",
							"name": "",
							"type": "bool"
						}
					],
					"stateMutability": "nonpayable",
					"type": "function"
				},
				{
					"inputs": [],
					"name": "claimMelterAdmin",
					"outputs": [],
					"stateMutability": "nonpayable",
					"type": "function"
				},
				{
					"inputs": [],
					"name": "decimals",
					"outputs": [
						{
							"internalType": "uint8",
							"name": "",
							"type": "uint8"
						}
					],
					"stateMutability": "view",
					"type": "function"
				},
				{
					"inputs": [
						{
							"internalType": "address",
							"name": "spender",
							"type": "address"
						},
						{
							"internalType": "uint256",
							"name": "subtractedValue",
							"type": "uint256"
						}
					],
					"name": "decreaseAllowance",
					"outputs": [
						{
							"internalType": "bool",
							"name": "",
							"type": "bool"
						}
					],
					"stateMutability": "nonpayable",
					"type": "function"
				},
				{
					"inputs": [
						{
							"internalType": "address",
							"name": "account",
							"type": "address"
						},
						{
							"internalType": "uint256",
							"name": "amount",
							"type": "uint256"
						}
					],
					"name": "destroyFrozen",
					"outputs": [],
					"stateMutability": "nonpayable",
					"type": "function"
				},
				{
					"inputs": [
						{
							"internalType": "address",
							"name": "spender",
							"type": "address"
						},
						{
							"internalType": "uint256",
							"name": "addedValue",
							"type": "uint256"
						}
					],
					"name": "increaseAllowance",
					"outputs": [
						{
							"internalType": "bool",
							"name": "",
							"type": "bool"
						}
					],
					"stateMutability": "nonpayable",
					"type": "function"
				},
				{
					"inputs": [],
					"name": "maxSupply",
					"outputs": [
						{
							"internalType": "uint256",
							"name": "",
							"type": "uint256"
						}
					],
					"stateMutability": "view",
					"type": "function"
				},
				{
					"inputs": [
						{
							"internalType": "address",
							"name": "account",
							"type": "address"
						},
						{
							"internalType": "uint256",
							"name": "amount",
							"type": "uint256"
						}
					],
					"name": "meltTokens",
					"outputs": [
						{
							"internalType": "bool",
							"name": "",
							"type": "bool"
						}
					],
					"stateMutability": "nonpayable",
					"type": "function"
				},
				{
					"inputs": [],
					"name": "melteradmin",
					"outputs": [
						{
							"internalType": "address",
							"name": "",
							"type": "address"
						}
					],
					"stateMutability": "view",
					"type": "function"
				},
				{
					"inputs": [
						{
							"internalType": "address",
							"name": "_to",
							"type": "address"
						},
						{
							"internalType": "uint256",
							"name": "_amount",
							"type": "uint256"
						}
					],
					"name": "mint",
					"outputs": [],
					"stateMutability": "nonpayable",
					"type": "function"
				},
				{
					"inputs": [
						{
							"internalType": "address",
							"name": "account",
							"type": "address"
						},
						{
							"internalType": "uint256",
							"name": "amount",
							"type": "uint256"
						}
					],
					"name": "mintFrozenTokens",
					"outputs": [
						{
							"internalType": "bool",
							"name": "",
							"type": "bool"
						}
					],
					"stateMutability": "nonpayable",
					"type": "function"
				},
				{
					"inputs": [],
					"name": "name",
					"outputs": [
						{
							"internalType": "string",
							"name": "",
							"type": "string"
						}
					],
					"stateMutability": "view",
					"type": "function"
				},
				{
					"inputs": [],
					"name": "owner",
					"outputs": [
						{
							"internalType": "address",
							"name": "",
							"type": "address"
						}
					],
					"stateMutability": "view",
					"type": "function"
				},
				{
					"inputs": [],
					"name": "pendingMelterAdmin",
					"outputs": [
						{
							"internalType": "address",
							"name": "",
							"type": "address"
						}
					],
					"stateMutability": "view",
					"type": "function"
				},
				{
					"inputs": [
						{
							"internalType": "address",
							"name": "account",
							"type": "address"
						}
					],
					"name": "removeFromMelters",
					"outputs": [],
					"stateMutability": "nonpayable",
					"type": "function"
				},
				{
					"inputs": [
						{
							"internalType": "address",
							"name": "_transferFeeAddress",
							"type": "address"
						}
					],
					"name": "removeTransferBurnAddress",
					"outputs": [],
					"stateMutability": "nonpayable",
					"type": "function"
				},
				{
					"inputs": [],
					"name": "renounceOwnership",
					"outputs": [],
					"stateMutability": "nonpayable",
					"type": "function"
				},
				{
					"inputs": [
						{
							"internalType": "uint256",
							"name": "_rate",
							"type": "uint256"
						}
					],
					"name": "setTransferFeeRateBuy",
					"outputs": [],
					"stateMutability": "nonpayable",
					"type": "function"
				},
				{
					"inputs": [
						{
							"internalType": "uint256",
							"name": "_rate",
							"type": "uint256"
						}
					],
					"name": "setTransferFeeRateSeel",
					"outputs": [],
					"stateMutability": "nonpayable",
					"type": "function"
				},
				{
					"inputs": [],
					"name": "symbol",
					"outputs": [
						{
							"internalType": "string",
							"name": "",
							"type": "string"
						}
					],
					"stateMutability": "view",
					"type": "function"
				},
				{
					"inputs": [],
					"name": "totalSupply",
					"outputs": [
						{
							"internalType": "uint256",
							"name": "",
							"type": "uint256"
						}
					],
					"stateMutability": "view",
					"type": "function"
				},
				{
					"inputs": [
						{
							"internalType": "address",
							"name": "recipient",
							"type": "address"
						},
						{
							"internalType": "uint256",
							"name": "amount",
							"type": "uint256"
						}
					],
					"name": "transfer",
					"outputs": [
						{
							"internalType": "bool",
							"name": "",
							"type": "bool"
						}
					],
					"stateMutability": "nonpayable",
					"type": "function"
				},
				{
					"inputs": [],
					"name": "transferFeeRateBuy",
					"outputs": [
						{
							"internalType": "uint256",
							"name": "",
							"type": "uint256"
						}
					],
					"stateMutability": "view",
					"type": "function"
				},
				{
					"inputs": [],
					"name": "transferFeeRateSell",
					"outputs": [
						{
							"internalType": "uint256",
							"name": "",
							"type": "uint256"
						}
					],
					"stateMutability": "view",
					"type": "function"
				},
				{
					"inputs": [
						{
							"internalType": "address",
							"name": "sender",
							"type": "address"
						},
						{
							"internalType": "address",
							"name": "recipient",
							"type": "address"
						},
						{
							"internalType": "uint256",
							"name": "amount",
							"type": "uint256"
						}
					],
					"name": "transferFrom",
					"outputs": [
						{
							"internalType": "bool",
							"name": "",
							"type": "bool"
						}
					],
					"stateMutability": "nonpayable",
					"type": "function"
				},
				{
					"inputs": [
						{
							"internalType": "address",
							"name": "from",
							"type": "address"
						},
						{
							"internalType": "address",
							"name": "to",
							"type": "address"
						},
						{
							"internalType": "uint256",
							"name": "amount",
							"type": "uint256"
						}
					],
					"name": "transferFrozenToken",
					"outputs": [
						{
							"internalType": "bool",
							"name": "",
							"type": "bool"
						}
					],
					"stateMutability": "nonpayable",
					"type": "function"
				},
				{
					"inputs": [
						{
							"internalType": "address",
							"name": "newMelter",
							"type": "address"
						}
					],
					"name": "transferMelterAdmin",
					"outputs": [],
					"stateMutability": "nonpayable",
					"type": "function"
				},
				{
					"inputs": [
						{
							"internalType": "address",
							"name": "newOwner",
							"type": "address"
						}
					],
					"name": "transferOwnership",
					"outputs": [],
					"stateMutability": "nonpayable",
					"type": "function"
				},
				{
					"inputs": [],
					"name": "uniswapV2Factory",
					"outputs": [
						{
							"internalType": "contract IUniswapV2Factory",
							"name": "",
							"type": "address"
						}
					],
					"stateMutability": "view",
					"type": "function"
				},
				{
					"inputs": [],
					"name": "uniswapV2Pair",
					"outputs": [
						{
							"internalType": "address",
							"name": "",
							"type": "address"
						}
					],
					"stateMutability": "view",
					"type": "function"
				},
				{
					"inputs": [],
					"name": "uniswapV2Router",
					"outputs": [
						{
							"internalType": "contract IUniswapV2Router02",
							"name": "",
							"type": "address"
						}
					],
					"stateMutability": "view",
					"type": "function"
				}
			],
			"devdoc": {
				"kind": "dev",
				"methods": {
					"owner()": {
						"details": "Returns the address of the current owner."
					},
					"renounceOwnership()": {
						"details": "Leaves the contract without owner. It will not be possible to call `onlyOwner` functions anymore. Can only be called by the current owner. NOTE: Renouncing ownership will leave the contract without an owner, thereby removing any functionality that is only available to the owner."
					},
					"transferOwnership(address)": {
						"details": "Transfers ownership of the contract to a new account (`newOwner`). Can only be called by the current owner."
					}
				},
				"version": 1
			},
			"evm": {
				"assembly": "    /* \"contracts/Token/Token.sol\":21589:25820  contract World_Step is ERC20(\"World Step\", \"WSP\", 1*10**9*10**6, 1*10**9*10**6) {... */\n  mstore(0x40, 0x80)\n    /* \"contracts/Token/Token.sol\":21731:21773  0x8492cbd894686D7e98214541903c7BA6f94928D6 */\n  0x8492cbd894686d7e98214541903c7ba6f94928d6\n    /* \"contracts/Token/Token.sol\":21677:21774  address payable private _developmentAddress = payable(0x8492cbd894686D7e98214541903c7BA6f94928D6) */\n  0x0b\n  exp(0x0100, 0x01)\n  dup2\n  sload\n  dup2\n  0xffffffffffffffffffffffffffffffffffffffff\n  mul\n  not\n  and\n  swap1\n  dup4\n  0xffffffffffffffffffffffffffffffffffffffff\n  and\n  mul\n  or\n  swap1\n  sstore\n  pop\n    /* \"contracts/Token/Token.sol\":21832:21874  0xa4eD7aa4eF5deB0A63e97d9Cb77445aE553feb1d */\n  0xa4ed7aa4ef5deb0a63e97d9cb77445ae553feb1d\n    /* \"contracts/Token/Token.sol\":21780:21875  address payable private _marketingAddress = payable(0xa4eD7aa4eF5deB0A63e97d9Cb77445aE553feb1d) */\n  0x0c\n  exp(0x0100, 0x00)\n  dup2\n  sload\n  dup2\n  0xffffffffffffffffffffffffffffffffffffffff\n  mul\n  not\n  and\n  swap1\n  dup4\n  0xffffffffffffffffffffffffffffffffffffffff\n  and\n  mul\n  or\n  swap1\n  sstore\n  pop\n    /* \"contracts/Token/Token.sol\":21927:21969  0xe061915592536656a92B9fd59e46b19eF920692F */\n  0xe061915592536656a92b9fd59e46b19ef920692f\n    /* \"contracts/Token/Token.sol\":21881:21970  address payable private _rewardPool = payable(0xe061915592536656a92B9fd59e46b19eF920692F) */\n  0x0d\n  exp(0x0100, 0x00)\n  dup2\n  sload\n  dup2\n  0xffffffffffffffffffffffffffffffffffffffff\n  mul\n  not\n  and\n  swap1\n  dup4\n  0xffffffffffffffffffffffffffffffffffffffff\n  and\n  mul\n  or\n  swap1\n  sstore\n  pop\n    /* \"contracts/Token/Token.sol\":25230:25818  constructor() public {... */\n  callvalue\n  dup1\n  iszero\n  tag_1\n  jumpi\n  0x00\n  dup1\n  revert\ntag_1:\n  pop\n    /* \"contracts/Token/Token.sol\":15929:16159  constructor (string memory name, string memory symbol, uint256 max, uint total) public {... */\n  mload(0x40)\n  dup1\n  0x40\n  add\n  0x40\n  mstore\n  dup1\n  0x0a\n  dup2\n  mstore\n  0x20\n  add\n  0x576f726c64205374657000000000000000000000000000000000000000000000\n  dup2\n  mstore\n  pop\n  mload(0x40)\n  dup1\n  0x40\n  add\n  0x40\n  mstore\n  dup1\n  0x03\n  dup2\n  mstore\n  0x20\n  add\n  0x5753500000000000000000000000000000000000000000000000000000000000\n  dup2\n  mstore\n  pop\n    /* \"contracts/Token/Token.sol\":21639:21652  1*10**9*10**6 */\n  0x038d7ea4c68000\n    /* \"contracts/Token/Token.sol\":21654:21667  1*10**9*10**6 */\n  dup1\n    /* \"contracts/Token/Token.sol\":11861:11878  address msgSender */\n  0x00\n    /* \"contracts/Token/Token.sol\":11881:11893  _msgSender() */\n  tag_7\n    /* \"contracts/Token/Token.sol\":11881:11891  _msgSender */\n  shl(0x20, tag_8)\n    /* \"contracts/Token/Token.sol\":11881:11893  _msgSender() */\n  0x20\n  shr\n  jump\t// in\ntag_7:\n    /* \"contracts/Token/Token.sol\":11861:11893  address msgSender = _msgSender() */\n  swap1\n  pop\n    /* \"contracts/Token/Token.sol\":11906:11915  msgSender */\n  dup1\n    /* \"contracts/Token/Token.sol\":11897:11903  _owner */\n  0x01\n  0x00\n    /* \"contracts/Token/Token.sol\":11897:11915  _owner = msgSender */\n  0x0100\n  exp\n  dup2\n  sload\n  dup2\n  0xffffffffffffffffffffffffffffffffffffffff\n  mul\n  not\n  and\n  swap1\n  dup4\n  0xffffffffffffffffffffffffffffffffffffffff\n  and\n  mul\n  or\n  swap1\n  sstore\n  pop\n    /* \"contracts/Token/Token.sol\":11957:11966  msgSender */\n  dup1\n    /* \"contracts/Token/Token.sol\":11924:11967  OwnershipTransferred(address(0), msgSender) */\n  0xffffffffffffffffffffffffffffffffffffffff\n  and\n    /* \"contracts/Token/Token.sol\":11953:11954  0 */\n  0x00\n    /* \"contracts/Token/Token.sol\":11924:11967  OwnershipTransferred(address(0), msgSender) */\n  0xffffffffffffffffffffffffffffffffffffffff\n  and\n  0x8be0079c531659141344cd1fd0a4f28419497f9722a3daafe3b4186f6b6457e0\n  mload(0x40)\n  mload(0x40)\n  dup1\n  swap2\n  sub\n  swap1\n  log3\n    /* \"contracts/Token/Token.sol\":11833:11971  constructor () internal {... */\n  pop\n    /* \"contracts/Token/Token.sol\":14441:14451  msg.sender */\n  caller\n    /* \"contracts/Token/Token.sol\":14426:14438  _melteradmin */\n  0x03\n  0x00\n    /* \"contracts/Token/Token.sol\":14426:14451  _melteradmin = msg.sender */\n  0x0100\n  exp\n  dup2\n  sload\n  dup2\n  0xffffffffffffffffffffffffffffffffffffffff\n  mul\n  not\n  and\n  swap1\n  dup4\n  0xffffffffffffffffffffffffffffffffffffffff\n  and\n  mul\n  or\n  swap1\n  sstore\n  pop\n    /* \"contracts/Token/Token.sol\":14484:14488  true */\n  0x01\n    /* \"contracts/Token/Token.sol\":14461:14469  _melters */\n  0x02\n    /* \"contracts/Token/Token.sol\":14461:14481  _melters[msg.sender] */\n  0x00\n    /* \"contracts/Token/Token.sol\":14470:14480  msg.sender */\n  caller\n    /* \"contracts/Token/Token.sol\":14461:14481  _melters[msg.sender] */\n  0xffffffffffffffffffffffffffffffffffffffff\n  and\n  0xffffffffffffffffffffffffffffffffffffffff\n  and\n  dup2\n  mstore\n  0x20\n  add\n  swap1\n  dup2\n  mstore\n  0x20\n  add\n  0x00\n  keccak256\n  0x00\n    /* \"contracts/Token/Token.sol\":14461:14488  _melters[msg.sender] = true */\n  0x0100\n  exp\n  dup2\n  sload\n  dup2\n  0xff\n  mul\n  not\n  and\n  swap1\n  dup4\n  iszero\n  iszero\n  mul\n  or\n  swap1\n  sstore\n  pop\n    /* \"contracts/Token/Token.sol\":16028:16032  name */\n  dup4\n    /* \"contracts/Token/Token.sol\":16020:16025  _name */\n  0x09\n    /* \"contracts/Token/Token.sol\":16020:16032  _name = name */\n  swap1\n  dup1\n  mload\n  swap1\n  0x20\n  add\n  swap1\n  tag_11\n  swap3\n  swap2\n  swap1\n  tag_12\n  jump\t// in\ntag_11:\n  pop\n    /* \"contracts/Token/Token.sol\":16046:16052  symbol */\n  dup3\n    /* \"contracts/Token/Token.sol\":16036:16043  _symbol */\n  0x0a\n    /* \"contracts/Token/Token.sol\":16036:16052  _symbol = symbol */\n  swap1\n  dup1\n  mload\n  swap1\n  0x20\n  add\n  swap1\n  tag_13\n  swap3\n  swap2\n  swap1\n  tag_12\n  jump\t// in\ntag_13:\n  pop\n    /* \"contracts/Token/Token.sol\":16068:16069  6 */\n  0x06\n    /* \"contracts/Token/Token.sol\":16056:16065  _decimals */\n  0x0b\n  0x00\n    /* \"contracts/Token/Token.sol\":16056:16069  _decimals = 6 */\n  0x0100\n  exp\n  dup2\n  sload\n  dup2\n  0xff\n  mul\n  not\n  and\n  swap1\n  dup4\n  0xff\n  and\n  mul\n  or\n  swap1\n  sstore\n  pop\n    /* \"contracts/Token/Token.sol\":16086:16089  max */\n  dup2\n    /* \"contracts/Token/Token.sol\":16073:16083  _maxSupply */\n  0x08\n    /* \"contracts/Token/Token.sol\":16073:16089  _maxSupply = max */\n  dup2\n  swap1\n  sstore\n  pop\n    /* \"contracts/Token/Token.sol\":16108:16113  total */\n  dup1\n    /* \"contracts/Token/Token.sol\":16093:16105  _totalSupply */\n  0x07\n    /* \"contracts/Token/Token.sol\":16093:16113  _totalSupply = total */\n  dup2\n  swap1\n  sstore\n  pop\n    /* \"contracts/Token/Token.sol\":16150:16155  total */\n  dup1\n    /* \"contracts/Token/Token.sol\":16117:16126  _balances */\n  0x05\n    /* \"contracts/Token/Token.sol\":16117:16147  _balances[address(msg.sender)] */\n  0x00\n    /* \"contracts/Token/Token.sol\":16135:16145  msg.sender */\n  caller\n    /* \"contracts/Token/Token.sol\":16117:16147  _balances[address(msg.sender)] */\n  0xffffffffffffffffffffffffffffffffffffffff\n  and\n  0xffffffffffffffffffffffffffffffffffffffff\n  and\n  dup2\n  mstore\n  0x20\n  add\n  swap1\n  dup2\n  mstore\n  0x20\n  add\n  0x00\n  keccak256\n    /* \"contracts/Token/Token.sol\":16117:16155  _balances[address(msg.sender)] = total */\n  dup2\n  swap1\n  sstore\n  pop\n    /* \"contracts/Token/Token.sol\":15929:16159  constructor (string memory name, string memory symbol, uint256 max, uint total) public {... */\n  pop\n  pop\n  pop\n  pop\n    /* \"contracts/Token/Token.sol\":25276:25277  4 */\n  0x04\n    /* \"contracts/Token/Token.sol\":25255:25273  transferFeeRateBuy */\n  0x0e\n    /* \"contracts/Token/Token.sol\":25255:25277  transferFeeRateBuy = 4 */\n  dup2\n  swap1\n  sstore\n  pop\n    /* \"contracts/Token/Token.sol\":25303:25304  1 */\n  0x01\n    /* \"contracts/Token/Token.sol\":25281:25300  transferFeeRateSell */\n  0x0f\n    /* \"contracts/Token/Token.sol\":25281:25304  transferFeeRateSell = 1 */\n  dup2\n  swap1\n  sstore\n  pop\n    /* \"contracts/Token/Token.sol\":25650:25654  true */\n  0x01\n    /* \"contracts/Token/Token.sol\":25620:25638  _isExcludedFromFee */\n  0x11\n    /* \"contracts/Token/Token.sol\":25620:25647  _isExcludedFromFee[owner()] */\n  0x00\n    /* \"contracts/Token/Token.sol\":25639:25646  owner() */\n  tag_15\n    /* \"contracts/Token/Token.sol\":25639:25644  owner */\n  shl(0x20, tag_16)\n    /* \"contracts/Token/Token.sol\":25639:25646  owner() */\n  0x20\n  shr\n  jump\t// in\ntag_15:\n    /* \"contracts/Token/Token.sol\":25620:25647  _isExcludedFromFee[owner()] */\n  0xffffffffffffffffffffffffffffffffffffffff\n  and\n  0xffffffffffffffffffffffffffffffffffffffff\n  and\n  dup2\n  mstore\n  0x20\n  add\n  swap1\n  dup2\n  mstore\n  0x20\n  add\n  0x00\n  keccak256\n  0x00\n    /* \"contracts/Token/Token.sol\":25620:25654  _isExcludedFromFee[owner()] = true */\n  0x0100\n  exp\n  dup2\n  sload\n  dup2\n  0xff\n  mul\n  not\n  and\n  swap1\n  dup4\n  iszero\n  iszero\n  mul\n  or\n  swap1\n  sstore\n  pop\n    /* \"contracts/Token/Token.sol\":25700:25704  true */\n  0x01\n    /* \"contracts/Token/Token.sol\":25664:25682  _isExcludedFromFee */\n  0x11\n    /* \"contracts/Token/Token.sol\":25664:25697  _isExcludedFromFee[address(this)] */\n  0x00\n    /* \"contracts/Token/Token.sol\":25691:25695  this */\n  address\n    /* \"contracts/Token/Token.sol\":25664:25697  _isExcludedFromFee[address(this)] */\n  0xffffffffffffffffffffffffffffffffffffffff\n  and\n  0xffffffffffffffffffffffffffffffffffffffff\n  and\n  dup2\n  mstore\n  0x20\n  add\n  swap1\n  dup2\n  mstore\n  0x20\n  add\n  0x00\n  keccak256\n  0x00\n    /* \"contracts/Token/Token.sol\":25664:25704  _isExcludedFromFee[address(this)] = true */\n  0x0100\n  exp\n  dup2\n  sload\n  dup2\n  0xff\n  mul\n  not\n  and\n  swap1\n  dup4\n  iszero\n  iszero\n  mul\n  or\n  swap1\n  sstore\n  pop\n    /* \"contracts/Token/Token.sol\":25756:25760  true */\n  0x01\n    /* \"contracts/Token/Token.sol\":25714:25732  _isExcludedFromFee */\n  0x11\n    /* \"contracts/Token/Token.sol\":25714:25753  _isExcludedFromFee[_developmentAddress] */\n  0x00\n    /* \"contracts/Token/Token.sol\":25733:25752  _developmentAddress */\n  0x0b\n  0x01\n  swap1\n  sload\n  swap1\n  0x0100\n  exp\n  swap1\n  div\n  0xffffffffffffffffffffffffffffffffffffffff\n  and\n    /* \"contracts/Token/Token.sol\":25714:25753  _isExcludedFromFee[_developmentAddress] */\n  0xffffffffffffffffffffffffffffffffffffffff\n  and\n  0xffffffffffffffffffffffffffffffffffffffff\n  and\n  dup2\n  mstore\n  0x20\n  add\n  swap1\n  dup2\n  mstore\n  0x20\n  add\n  0x00\n  keccak256\n  0x00\n    /* \"contracts/Token/Token.sol\":25714:25760  _isExcludedFromFee[_developmentAddress] = true */\n  0x0100\n  exp\n  dup2\n  sload\n  dup2\n  0xff\n  mul\n  not\n  and\n  swap1\n  dup4\n  iszero\n  iszero\n  mul\n  or\n  swap1\n  sstore\n  pop\n    /* \"contracts/Token/Token.sol\":25810:25814  true */\n  0x01\n    /* \"contracts/Token/Token.sol\":25770:25788  _isExcludedFromFee */\n  0x11\n    /* \"contracts/Token/Token.sol\":25770:25807  _isExcludedFromFee[_marketingAddress] */\n  0x00\n    /* \"contracts/Token/Token.sol\":25789:25806  _marketingAddress */\n  0x0c\n  0x00\n  swap1\n  sload\n  swap1\n  0x0100\n  exp\n  swap1\n  div\n  0xffffffffffffffffffffffffffffffffffffffff\n  and\n    /* \"contracts/Token/Token.sol\":25770:25807  _isExcludedFromFee[_marketingAddress] */\n  0xffffffffffffffffffffffffffffffffffffffff\n  and\n  0xffffffffffffffffffffffffffffffffffffffff\n  and\n  dup2\n  mstore\n  0x20\n  add\n  swap1\n  dup2\n  mstore\n  0x20\n  add\n  0x00\n  keccak256\n  0x00\n    /* \"contracts/Token/Token.sol\":25770:25814  _isExcludedFromFee[_marketingAddress] = true */\n  0x0100\n  exp\n  dup2\n  sload\n  dup2\n  0xff\n  mul\n  not\n  and\n  swap1\n  dup4\n  iszero\n  iszero\n  mul\n  or\n  swap1\n  sstore\n  pop\n    /* \"contracts/Token/Token.sol\":21589:25820  contract World_Step is ERC20(\"World Step\", \"WSP\", 1*10**9*10**6, 1*10**9*10**6) {... */\n  jump(tag_17)\n    /* \"contracts/Token/Token.sol\":833:928  function _msgSender() internal view virtual returns (address payable) {... */\ntag_8:\n    /* \"contracts/Token/Token.sol\":886:901  address payable */\n  0x00\n    /* \"contracts/Token/Token.sol\":914:924  msg.sender */\n  caller\n    /* \"contracts/Token/Token.sol\":907:924  return msg.sender */\n  swap1\n  pop\n    /* \"contracts/Token/Token.sol\":833:928  function _msgSender() internal view virtual returns (address payable) {... */\n  swap1\n  jump\t// out\n    /* \"contracts/Token/Token.sol\":12035:12103  function owner() public view returns (address) {... */\ntag_16:\n    /* \"contracts/Token/Token.sol\":12073:12080  address */\n  0x00\n    /* \"contracts/Token/Token.sol\":12093:12099  _owner */\n  0x01\n  0x00\n  swap1\n  sload\n  swap1\n  0x0100\n  exp\n  swap1\n  div\n  0xffffffffffffffffffffffffffffffffffffffff\n  and\n    /* \"contracts/Token/Token.sol\":12086:12099  return _owner */\n  swap1\n  pop\n    /* \"contracts/Token/Token.sol\":12035:12103  function owner() public view returns (address) {... */\n  swap1\n  jump\t// out\n    /* \"contracts/Token/Token.sol\":21589:25820  contract World_Step is ERC20(\"World Step\", \"WSP\", 1*10**9*10**6, 1*10**9*10**6) {... */\ntag_12:\n  dup3\n  dup1\n  sload\n  0x01\n  dup2\n  0x01\n  and\n  iszero\n  0x0100\n  mul\n  sub\n  and\n  0x02\n  swap1\n  div\n  swap1\n  0x00\n  mstore\n  keccak256(0x00, 0x20)\n  swap1\n  0x1f\n  add\n  0x20\n  swap1\n  div\n  dup2\n  add\n  swap3\n  dup3\n  0x1f\n  lt\n  tag_21\n  jumpi\n  dup1\n  mload\n  not(0xff)\n  and\n  dup4\n  dup1\n  add\n  or\n  dup6\n  sstore\n  jump(tag_20)\ntag_21:\n  dup3\n  dup1\n  add\n  0x01\n  add\n  dup6\n  sstore\n  dup3\n  iszero\n  tag_20\n  jumpi\n  swap2\n  dup3\n  add\ntag_22:\n  dup3\n  dup2\n  gt\n  iszero\n  tag_23\n  jumpi\n  dup3\n  mload\n  dup3\n  sstore\n  swap2\n  0x20\n  add\n  swap2\n  swap1\n  0x01\n  add\n  swap1\n  jump(tag_22)\ntag_23:\ntag_20:\n  pop\n  swap1\n  pop\n  tag_24\n  swap2\n  swap1\n  tag_25\n  jump\t// in\ntag_24:\n  pop\n  swap1\n  jump\t// out\ntag_25:\ntag_26:\n  dup1\n  dup3\n  gt\n  iszero\n  tag_27\n  jumpi\n  0x00\n  dup2\n  0x00\n  swap1\n  sstore\n  pop\n  0x01\n  add\n  jump(tag_26)\ntag_27:\n  pop\n  swap1\n  jump\t// out\ntag_17:\n  dataSize(sub_0)\n  dup1\n  dataOffset(sub_0)\n  0x00\n  codecopy\n  0x00\n  return\nstop\n\nsub_0: assembly {\n        /* \"contracts/Token/Token.sol\":21589:25820  contract World_Step is ERC20(\"World Step\", \"WSP\", 1*10**9*10**6, 1*10**9*10**6) {... */\n      mstore(0x40, 0x80)\n      callvalue\n      dup1\n      iszero\n      tag_1\n      jumpi\n      0x00\n      dup1\n      revert\n    tag_1:\n      pop\n      jumpi(tag_2, lt(calldatasize, 0x04))\n      shr(0xe0, calldataload(0x00))\n      dup1\n      0x59d0f713\n      gt\n      tag_42\n      jumpi\n      dup1\n      0xa457c2d7\n      gt\n      tag_43\n      jumpi\n      dup1\n      0xd5abeb01\n      gt\n      tag_44\n      jumpi\n      dup1\n      0xd5abeb01\n      eq\n      tag_37\n      jumpi\n      dup1\n      0xd8da5ce9\n      eq\n      tag_38\n      jumpi\n      dup1\n      0xdd62ed3e\n      eq\n      tag_39\n      jumpi\n      dup1\n      0xe50d3180\n      eq\n      tag_40\n      jumpi\n      dup1\n      0xf2fde38b\n      eq\n      tag_41\n      jumpi\n      jump(tag_2)\n    tag_44:\n      dup1\n      0xa457c2d7\n      eq\n      tag_32\n      jumpi\n      dup1\n      0xa9059cbb\n      eq\n      tag_33\n      jumpi\n      dup1\n      0xc4157b29\n      eq\n      tag_34\n      jumpi\n      dup1\n      0xc5cc6b6a\n      eq\n      tag_35\n      jumpi\n      dup1\n      0xc9c5179c\n      eq\n      tag_36\n      jumpi\n      jump(tag_2)\n    tag_43:\n      dup1\n      0x8da5cb5b\n      gt\n      tag_45\n      jumpi\n      dup1\n      0x8da5cb5b\n      eq\n      tag_27\n      jumpi\n      dup1\n      0x8fe8cf24\n      eq\n      tag_28\n      jumpi\n      dup1\n      0x91116d67\n      eq\n      tag_29\n      jumpi\n      dup1\n      0x95d89b41\n      eq\n      tag_30\n      jumpi\n      dup1\n      0xa0821be3\n      eq\n      tag_31\n      jumpi\n      jump(tag_2)\n    tag_45:\n      dup1\n      0x59d0f713\n      eq\n      tag_22\n      jumpi\n      dup1\n      0x70766280\n      eq\n      tag_23\n      jumpi\n      dup1\n      0x70a08231\n      eq\n      tag_24\n      jumpi\n      dup1\n      0x715018a6\n      eq\n      tag_25\n      jumpi\n      dup1\n      0x79cc6790\n      eq\n      tag_26\n      jumpi\n      jump(tag_2)\n    tag_42:\n      dup1\n      0x23b872dd\n      gt\n      tag_46\n      jumpi\n      dup1\n      0x40c10f19\n      gt\n      tag_47\n      jumpi\n      dup1\n      0x40c10f19\n      eq\n      tag_17\n      jumpi\n      dup1\n      0x42966c68\n      eq\n      tag_18\n      jumpi\n      dup1\n      0x483a8df9\n      eq\n      tag_19\n      jumpi\n      dup1\n      0x49bd5a5e\n      eq\n      tag_20\n      jumpi\n      dup1\n      0x52ea6e02\n      eq\n      tag_21\n      jumpi\n      jump(tag_2)\n    tag_47:\n      dup1\n      0x23b872dd\n      eq\n      tag_12\n      jumpi\n      dup1\n      0x313ce567\n      eq\n      tag_13\n      jumpi\n      dup1\n      0x35cde1ce\n      eq\n      tag_14\n      jumpi\n      dup1\n      0x3727a426\n      eq\n      tag_15\n      jumpi\n      dup1\n      0x39509351\n      eq\n      tag_16\n      jumpi\n      jump(tag_2)\n    tag_46:\n      dup1\n      0x1694505e\n      gt\n      tag_48\n      jumpi\n      dup1\n      0x1694505e\n      eq\n      tag_7\n      jumpi\n      dup1\n      0x171177b3\n      eq\n      tag_8\n      jumpi\n      dup1\n      0x18160ddd\n      eq\n      tag_9\n      jumpi\n      dup1\n      0x1e57a2b2\n      eq\n      tag_10\n      jumpi\n      dup1\n      0x238fd731\n      eq\n      tag_11\n      jumpi\n      jump(tag_2)\n    tag_48:\n      dup1\n      0x06fdde03\n      eq\n      tag_3\n      jumpi\n      dup1\n      0x095ea7b3\n      eq\n      tag_4\n      jumpi\n      dup1\n      0x0a9adf05\n      eq\n      tag_5\n      jumpi\n      dup1\n      0x0c15f601\n      eq\n      tag_6\n      jumpi\n    tag_2:\n      0x00\n      dup1\n      revert\n        /* \"contracts/Token/Token.sol\":16162:16234  function name() public view returns (string memory) {... */\n    tag_3:\n      tag_49\n      tag_50\n      jump\t// in\n    tag_49:\n      mload(0x40)\n      dup1\n      dup1\n      0x20\n      add\n      dup3\n      dup2\n      sub\n      dup3\n      mstore\n      dup4\n      dup2\n      dup2\n      mload\n      dup2\n      mstore\n      0x20\n      add\n      swap2\n      pop\n      dup1\n      mload\n      swap1\n      0x20\n      add\n      swap1\n      dup1\n      dup4\n      dup4\n      0x00\n    tag_51:\n      dup4\n      dup2\n      lt\n      iszero\n      tag_53\n      jumpi\n      dup1\n      dup3\n      add\n      mload\n      dup2\n      dup5\n      add\n      mstore\n      0x20\n      dup2\n      add\n      swap1\n      pop\n      jump(tag_51)\n    tag_53:\n      pop\n      pop\n      pop\n      pop\n      swap1\n      pop\n      swap1\n      dup2\n      add\n      swap1\n      0x1f\n      and\n      dup1\n      iszero\n      tag_54\n      jumpi\n      dup1\n      dup3\n      sub\n      dup1\n      mload\n      0x01\n      dup4\n      0x20\n      sub\n      0x0100\n      exp\n      sub\n      not\n      and\n      dup2\n      mstore\n      0x20\n      add\n      swap2\n      pop\n    tag_54:\n      pop\n      swap3\n      pop\n      pop\n      pop\n      mload(0x40)\n      dup1\n      swap2\n      sub\n      swap1\n      return\n        /* \"contracts/Token/Token.sol\":17118:17269  function approve(address spender, uint256 amount) public virtual override returns (bool) {... */\n    tag_4:\n      tag_55\n      0x04\n      dup1\n      calldatasize\n      sub\n      0x40\n      dup2\n      lt\n      iszero\n      tag_56\n      jumpi\n      0x00\n      dup1\n      revert\n    tag_56:\n      dup2\n      add\n      swap1\n      dup1\n      dup1\n      calldataload\n      0xffffffffffffffffffffffffffffffffffffffff\n      and\n      swap1\n      0x20\n      add\n      swap1\n      swap3\n      swap2\n      swap1\n      dup1\n      calldataload\n      swap1\n      0x20\n      add\n      swap1\n      swap3\n      swap2\n      swap1\n      pop\n      pop\n      pop\n      tag_57\n      jump\t// in\n    tag_55:\n      mload(0x40)\n      dup1\n      dup3\n      iszero\n      iszero\n      dup2\n      mstore\n      0x20\n      add\n      swap2\n      pop\n      pop\n      mload(0x40)\n      dup1\n      swap2\n      sub\n      swap1\n      return\n        /* \"contracts/Token/Token.sol\":21974:22007  uint256 public transferFeeRateBuy */\n    tag_5:\n      tag_58\n      tag_59\n      jump\t// in\n    tag_58:\n      mload(0x40)\n      dup1\n      dup3\n      dup2\n      mstore\n      0x20\n      add\n      swap2\n      pop\n      pop\n      mload(0x40)\n      dup1\n      swap2\n      sub\n      swap1\n      return\n        /* \"contracts/Token/Token.sol\":24364:24510  function meltTokens(address account, uint256 amount) public onlyMelter returns (bool) {... */\n    tag_6:\n      tag_60\n      0x04\n      dup1\n      calldatasize\n      sub\n      0x40\n      dup2\n      lt\n      iszero\n      tag_61\n      jumpi\n      0x00\n      dup1\n      revert\n    tag_61:\n      dup2\n      add\n      swap1\n      dup1\n      dup1\n      calldataload\n      0xffffffffffffffffffffffffffffffffffffffff\n      and\n      swap1\n      0x20\n      add\n      swap1\n      swap3\n      swap2\n      swap1\n      dup1\n      calldataload\n      swap1\n      0x20\n      add\n      swap1\n      swap3\n      swap2\n      swap1\n      pop\n      pop\n      pop\n      tag_62\n      jump\t// in\n    tag_60:\n      mload(0x40)\n      dup1\n      dup3\n      iszero\n      iszero\n      dup2\n      mstore\n      0x20\n      add\n      swap2\n      pop\n      pop\n      mload(0x40)\n      dup1\n      swap2\n      sub\n      swap1\n      return\n        /* \"contracts/Token/Token.sol\":22165:22206  IUniswapV2Router02 public uniswapV2Router */\n    tag_7:\n      tag_63\n      tag_64\n      jump\t// in\n    tag_63:\n      mload(0x40)\n      dup1\n      dup3\n      0xffffffffffffffffffffffffffffffffffffffff\n      and\n      dup2\n      mstore\n      0x20\n      add\n      swap2\n      pop\n      pop\n      mload(0x40)\n      dup1\n      swap2\n      sub\n      swap1\n      return\n        /* \"contracts/Token/Token.sol\":24520:24639  function destroyFrozen(address account, uint256 amount) public onlyMelter {... */\n    tag_8:\n      tag_65\n      0x04\n      dup1\n      calldatasize\n      sub\n      0x40\n      dup2\n      lt\n      iszero\n      tag_66\n      jumpi\n      0x00\n      dup1\n      revert\n    tag_66:\n      dup2\n      add\n      swap1\n      dup1\n      dup1\n      calldataload\n      0xffffffffffffffffffffffffffffffffffffffff\n      and\n      swap1\n      0x20\n      add\n      swap1\n      swap3\n      swap2\n      swap1\n      dup1\n      calldataload\n      swap1\n      0x20\n      add\n      swap1\n      swap3\n      swap2\n      swap1\n      pop\n      pop\n      pop\n      tag_67\n      jump\t// in\n    tag_65:\n      stop\n        /* \"contracts/Token/Token.sol\":16391:16480  function totalSupply() public view override returns (uint256) {... */\n    tag_9:\n      tag_68\n      tag_69\n      jump\t// in\n    tag_68:\n      mload(0x40)\n      dup1\n      dup3\n      dup2\n      mstore\n      0x20\n      add\n      swap2\n      pop\n      pop\n      mload(0x40)\n      dup1\n      swap2\n      sub\n      swap1\n      return\n        /* \"contracts/Token/Token.sol\":14944:15159  function claimMelterAdmin() public onlyPendingMelterAdmin {... */\n    tag_10:\n      tag_70\n      tag_71\n      jump\t// in\n    tag_70:\n      stop\n        /* \"contracts/Token/Token.sol\":14705:14814  function removeFromMelters(address account) public onlyMelterAdmin {... */\n    tag_11:\n      tag_72\n      0x04\n      dup1\n      calldatasize\n      sub\n      0x20\n      dup2\n      lt\n      iszero\n      tag_73\n      jumpi\n      0x00\n      dup1\n      revert\n    tag_73:\n      dup2\n      add\n      swap1\n      dup1\n      dup1\n      calldataload\n      0xffffffffffffffffffffffffffffffffffffffff\n      and\n      swap1\n      0x20\n      add\n      swap1\n      swap3\n      swap2\n      swap1\n      pop\n      pop\n      pop\n      tag_74\n      jump\t// in\n    tag_72:\n      stop\n        /* \"contracts/Token/Token.sol\":17272:17568  function transferFrom(address sender, address recipient, uint256 amount) public virtual override returns (bool) {... */\n    tag_12:\n      tag_75\n      0x04\n      dup1\n      calldatasize\n      sub\n      0x60\n      dup2\n      lt\n      iszero\n      tag_76\n      jumpi\n      0x00\n      dup1\n      revert\n    tag_76:\n      dup2\n      add\n      swap1\n      dup1\n      dup1\n      calldataload\n      0xffffffffffffffffffffffffffffffffffffffff\n      and\n      swap1\n      0x20\n      add\n      swap1\n      swap3\n      swap2\n      swap1\n      dup1\n      calldataload\n      0xffffffffffffffffffffffffffffffffffffffff\n      and\n      swap1\n      0x20\n      add\n      swap1\n      swap3\n      swap2\n      swap1\n      dup1\n      calldataload\n      swap1\n      0x20\n      add\n      swap1\n      swap3\n      swap2\n      swap1\n      pop\n      pop\n      pop\n      tag_77\n      jump\t// in\n    tag_75:\n      mload(0x40)\n      dup1\n      dup3\n      iszero\n      iszero\n      dup2\n      mstore\n      0x20\n      add\n      swap2\n      pop\n      pop\n      mload(0x40)\n      dup1\n      swap2\n      sub\n      swap1\n      return\n        /* \"contracts/Token/Token.sol\":16316:16388  function decimals() public view returns (uint8) {... */\n    tag_13:\n      tag_78\n      tag_79\n      jump\t// in\n    tag_78:\n      mload(0x40)\n      dup1\n      dup3\n      0xff\n      and\n      dup2\n      mstore\n      0x20\n      add\n      swap2\n      pop\n      pop\n      mload(0x40)\n      dup1\n      swap2\n      sub\n      swap1\n      return\n        /* \"contracts/Token/Token.sol\":14501:14590  function melteradmin() public view returns (address) {... */\n    tag_14:\n      tag_80\n      tag_81\n      jump\t// in\n    tag_80:\n      mload(0x40)\n      dup1\n      dup3\n      0xffffffffffffffffffffffffffffffffffffffff\n      and\n      dup2\n      mstore\n      0x20\n      add\n      swap2\n      pop\n      pop\n      mload(0x40)\n      dup1\n      swap2\n      sub\n      swap1\n      return\n        /* \"contracts/Token/Token.sol\":25125:25227  function setTransferFeeRateSeel(uint256 _rate) public onlyOwner {... */\n    tag_15:\n      tag_82\n      0x04\n      dup1\n      calldatasize\n      sub\n      0x20\n      dup2\n      lt\n      iszero\n      tag_83\n      jumpi\n      0x00\n      dup1\n      revert\n    tag_83:\n      dup2\n      add\n      swap1\n      dup1\n      dup1\n      calldataload\n      swap1\n      0x20\n      add\n      swap1\n      swap3\n      swap2\n      swap1\n      pop\n      pop\n      pop\n      tag_84\n      jump\t// in\n    tag_82:\n      stop\n        /* \"contracts/Token/Token.sol\":17571:17771  function increaseAllowance(address spender, uint256 addedValue) public virtual returns (bool) {... */\n    tag_16:\n      tag_85\n      0x04\n      dup1\n      calldatasize\n      sub\n      0x40\n      dup2\n      lt\n      iszero\n      tag_86\n      jumpi\n      0x00\n      dup1\n      revert\n    tag_86:\n      dup2\n      add\n      swap1\n      dup1\n      dup1\n      calldataload\n      0xffffffffffffffffffffffffffffffffffffffff\n      and\n      swap1\n      0x20\n      add\n      swap1\n      swap3\n      swap2\n      swap1\n      dup1\n      calldataload\n      swap1\n      0x20\n      add\n      swap1\n      swap3\n      swap2\n      swap1\n      pop\n      pop\n      pop\n      tag_87\n      jump\t// in\n    tag_85:\n      mload(0x40)\n      dup1\n      dup3\n      iszero\n      iszero\n      dup2\n      mstore\n      0x20\n      add\n      swap2\n      pop\n      pop\n      mload(0x40)\n      dup1\n      swap2\n      sub\n      swap1\n      return\n        /* \"contracts/Token/Token.sol\":23242:23330  function mint(address _to, uint256 _amount) public onlyOwner {... */\n    tag_17:\n      tag_88\n      0x04\n      dup1\n      calldatasize\n      sub\n      0x40\n      dup2\n      lt\n      iszero\n      tag_89\n      jumpi\n      0x00\n      dup1\n      revert\n    tag_89:\n      dup2\n      add\n      swap1\n      dup1\n      dup1\n      calldataload\n      0xffffffffffffffffffffffffffffffffffffffff\n      and\n      swap1\n      0x20\n      add\n      swap1\n      swap3\n      swap2\n      swap1\n      dup1\n      calldataload\n      swap1\n      0x20\n      add\n      swap1\n      swap3\n      swap2\n      swap1\n      pop\n      pop\n      pop\n      tag_90\n      jump\t// in\n    tag_88:\n      stop\n        /* \"contracts/Token/Token.sol\":23333:23443  function burn(uint256 amount) public virtual returns (bool) {... */\n    tag_18:\n      tag_91\n      0x04\n      dup1\n      calldatasize\n      sub\n      0x20\n      dup2\n      lt\n      iszero\n      tag_92\n      jumpi\n      0x00\n      dup1\n      revert\n    tag_92:\n      dup2\n      add\n      swap1\n      dup1\n      dup1\n      calldataload\n      swap1\n      0x20\n      add\n      swap1\n      swap3\n      swap2\n      swap1\n      pop\n      pop\n      pop\n      tag_93\n      jump\t// in\n    tag_91:\n      mload(0x40)\n      dup1\n      dup3\n      iszero\n      iszero\n      dup2\n      mstore\n      0x20\n      add\n      swap2\n      pop\n      pop\n      mload(0x40)\n      dup1\n      swap2\n      sub\n      swap1\n      return\n        /* \"contracts/Token/Token.sol\":14820:14938  function transferMelterAdmin(address newMelter) public onlyMelterAdmin {... */\n    tag_19:\n      tag_94\n      0x04\n      dup1\n      calldatasize\n      sub\n      0x20\n      dup2\n      lt\n      iszero\n      tag_95\n      jumpi\n      0x00\n      dup1\n      revert\n    tag_95:\n      dup2\n      add\n      swap1\n      dup1\n      dup1\n      calldataload\n      0xffffffffffffffffffffffffffffffffffffffff\n      and\n      swap1\n      0x20\n      add\n      swap1\n      swap3\n      swap2\n      swap1\n      pop\n      pop\n      pop\n      tag_96\n      jump\t// in\n    tag_94:\n      stop\n        /* \"contracts/Token/Token.sol\":22289:22317  address public uniswapV2Pair */\n    tag_20:\n      tag_97\n      tag_98\n      jump\t// in\n    tag_97:\n      mload(0x40)\n      dup1\n      dup3\n      0xffffffffffffffffffffffffffffffffffffffff\n      and\n      dup2\n      mstore\n      0x20\n      add\n      swap2\n      pop\n      pop\n      mload(0x40)\n      dup1\n      swap2\n      sub\n      swap1\n      return\n        /* \"contracts/Token/Token.sol\":22010:22044  uint256 public transferFeeRateSell */\n    tag_21:\n      tag_99\n      tag_100\n      jump\t// in\n    tag_99:\n      mload(0x40)\n      dup1\n      dup3\n      dup2\n      mstore\n      0x20\n      add\n      swap2\n      pop\n      pop\n      mload(0x40)\n      dup1\n      swap2\n      sub\n      swap1\n      return\n        /* \"contracts/Token/Token.sol\":22212:22253  IUniswapV2Factory public uniswapV2Factory */\n    tag_22:\n      tag_101\n      tag_102\n      jump\t// in\n    tag_101:\n      mload(0x40)\n      dup1\n      dup3\n      0xffffffffffffffffffffffffffffffffffffffff\n      and\n      dup2\n      mstore\n      0x20\n      add\n      swap2\n      pop\n      pop\n      mload(0x40)\n      dup1\n      swap2\n      sub\n      swap1\n      return\n        /* \"contracts/Token/Token.sol\":13875:13908  address public pendingMelterAdmin */\n    tag_23:\n      tag_103\n      tag_104\n      jump\t// in\n    tag_103:\n      mload(0x40)\n      dup1\n      dup3\n      0xffffffffffffffffffffffffffffffffffffffff\n      and\n      dup2\n      mstore\n      0x20\n      add\n      swap2\n      pop\n      pop\n      mload(0x40)\n      dup1\n      swap2\n      sub\n      swap1\n      return\n        /* \"contracts/Token/Token.sol\":16672:16812  function balanceOf(address account) public view override returns (uint256) {... */\n    tag_24:\n      tag_105\n      0x04\n      dup1\n      calldatasize\n      sub\n      0x20\n      dup2\n      lt\n      iszero\n      tag_106\n      jumpi\n      0x00\n      dup1\n      revert\n    tag_106:\n      dup2\n      add\n      swap1\n      dup1\n      dup1\n      calldataload\n      0xffffffffffffffffffffffffffffffffffffffff\n      and\n      swap1\n      0x20\n      add\n      swap1\n      swap3\n      swap2\n      swap1\n      pop\n      pop\n      pop\n      tag_107\n      jump\t// in\n    tag_105:\n      mload(0x40)\n      dup1\n      dup3\n      dup2\n      mstore\n      0x20\n      add\n      swap2\n      pop\n      pop\n      mload(0x40)\n      dup1\n      swap2\n      sub\n      swap1\n      return\n        /* \"contracts/Token/Token.sol\":12598:12728  function renounceOwnership() public virtual onlyOwner {... */\n    tag_25:\n      tag_108\n      tag_109\n      jump\t// in\n    tag_108:\n      stop\n        /* \"contracts/Token/Token.sol\":23446:23745  function burnFrom(address account, uint256 amount) public virtual returns (bool) {... */\n    tag_26:\n      tag_110\n      0x04\n      dup1\n      calldatasize\n      sub\n      0x40\n      dup2\n      lt\n      iszero\n      tag_111\n      jumpi\n      0x00\n      dup1\n      revert\n    tag_111:\n      dup2\n      add\n      swap1\n      dup1\n      dup1\n      calldataload\n      0xffffffffffffffffffffffffffffffffffffffff\n      and\n      swap1\n      0x20\n      add\n      swap1\n      swap3\n      swap2\n      swap1\n      dup1\n      calldataload\n      swap1\n      0x20\n      add\n      swap1\n      swap3\n      swap2\n      swap1\n      pop\n      pop\n      pop\n      tag_112\n      jump\t// in\n    tag_110:\n      mload(0x40)\n      dup1\n      dup3\n      iszero\n      iszero\n      dup2\n      mstore\n      0x20\n      add\n      swap2\n      pop\n      pop\n      mload(0x40)\n      dup1\n      swap2\n      sub\n      swap1\n      return\n        /* \"contracts/Token/Token.sol\":12035:12103  function owner() public view returns (address) {... */\n    tag_27:\n      tag_113\n      tag_114\n      jump\t// in\n    tag_113:\n      mload(0x40)\n      dup1\n      dup3\n      0xffffffffffffffffffffffffffffffffffffffff\n      and\n      dup2\n      mstore\n      0x20\n      add\n      swap2\n      pop\n      pop\n      mload(0x40)\n      dup1\n      swap2\n      sub\n      swap1\n      return\n        /* \"contracts/Token/Token.sol\":24780:24912  function removeTransferBurnAddress(address _transferFeeAddress) public onlyOwner {... */\n    tag_28:\n      tag_115\n      0x04\n      dup1\n      calldatasize\n      sub\n      0x20\n      dup2\n      lt\n      iszero\n      tag_116\n      jumpi\n      0x00\n      dup1\n      revert\n    tag_116:\n      dup2\n      add\n      swap1\n      dup1\n      dup1\n      calldataload\n      0xffffffffffffffffffffffffffffffffffffffff\n      and\n      swap1\n      0x20\n      add\n      swap1\n      swap3\n      swap2\n      swap1\n      pop\n      pop\n      pop\n      tag_117\n      jump\t// in\n    tag_115:\n      stop\n        /* \"contracts/Token/Token.sol\":24649:24777  function addTransferFeeAddress(address _transferFeeAddress) public onlyOwner {... */\n    tag_29:\n      tag_118\n      0x04\n      dup1\n      calldatasize\n      sub\n      0x20\n      dup2\n      lt\n      iszero\n      tag_119\n      jumpi\n      0x00\n      dup1\n      revert\n    tag_119:\n      dup2\n      add\n      swap1\n      dup1\n      dup1\n      calldataload\n      0xffffffffffffffffffffffffffffffffffffffff\n      and\n      swap1\n      0x20\n      add\n      swap1\n      swap3\n      swap2\n      swap1\n      pop\n      pop\n      pop\n      tag_120\n      jump\t// in\n    tag_118:\n      stop\n        /* \"contracts/Token/Token.sol\":16237:16313  function symbol() public view returns (string memory) {... */\n    tag_30:\n      tag_121\n      tag_122\n      jump\t// in\n    tag_121:\n      mload(0x40)\n      dup1\n      dup1\n      0x20\n      add\n      dup3\n      dup2\n      sub\n      dup3\n      mstore\n      dup4\n      dup2\n      dup2\n      mload\n      dup2\n      mstore\n      0x20\n      add\n      swap2\n      pop\n      dup1\n      mload\n      swap1\n      0x20\n      add\n      swap1\n      dup1\n      dup4\n      dup4\n      0x00\n    tag_123:\n      dup4\n      dup2\n      lt\n      iszero\n      tag_125\n      jumpi\n      dup1\n      dup3\n      add\n      mload\n      dup2\n      dup5\n      add\n      mstore\n      0x20\n      dup2\n      add\n      swap1\n      pop\n      jump(tag_123)\n    tag_125:\n      pop\n      pop\n      pop\n      pop\n      swap1\n      pop\n      swap1\n      dup2\n      add\n      swap1\n      0x1f\n      and\n      dup1\n      iszero\n      tag_126\n      jumpi\n      dup1\n      dup3\n      sub\n      dup1\n      mload\n      0x01\n      dup4\n      0x20\n      sub\n      0x0100\n      exp\n      sub\n      not\n      and\n      dup2\n      mstore\n      0x20\n      add\n      swap2\n      pop\n    tag_126:\n      pop\n      swap3\n      pop\n      pop\n      pop\n      mload(0x40)\n      dup1\n      swap2\n      sub\n      swap1\n      return\n        /* \"contracts/Token/Token.sol\":16563:16669  function availableBalance(address account) public view returns (uint256) {... */\n    tag_31:\n      tag_127\n      0x04\n      dup1\n      calldatasize\n      sub\n      0x20\n      dup2\n      lt\n      iszero\n      tag_128\n      jumpi\n      0x00\n      dup1\n      revert\n    tag_128:\n      dup2\n      add\n      swap1\n      dup1\n      dup1\n      calldataload\n      0xffffffffffffffffffffffffffffffffffffffff\n      and\n      swap1\n      0x20\n      add\n      swap1\n      swap3\n      swap2\n      swap1\n      pop\n      pop\n      pop\n      tag_129\n      jump\t// in\n    tag_127:\n      mload(0x40)\n      dup1\n      dup3\n      dup2\n      mstore\n      0x20\n      add\n      swap2\n      pop\n      pop\n      mload(0x40)\n      dup1\n      swap2\n      sub\n      swap1\n      return\n        /* \"contracts/Token/Token.sol\":17774:18025  function decreaseAllowance(address spender, uint256 subtractedValue) public virtual returns (bool) {... */\n    tag_32:\n      tag_130\n      0x04\n      dup1\n      calldatasize\n      sub\n      0x40\n      dup2\n      lt\n      iszero\n      tag_131\n      jumpi\n      0x00\n      dup1\n      revert\n    tag_131:\n      dup2\n      add\n      swap1\n      dup1\n      dup1\n      calldataload\n      0xffffffffffffffffffffffffffffffffffffffff\n      and\n      swap1\n      0x20\n      add\n      swap1\n      swap3\n      swap2\n      swap1\n      dup1\n      calldataload\n      swap1\n      0x20\n      add\n      swap1\n      swap3\n      swap2\n      swap1\n      pop\n      pop\n      pop\n      tag_132\n      jump\t// in\n    tag_130:\n      mload(0x40)\n      dup1\n      dup3\n      iszero\n      iszero\n      dup2\n      mstore\n      0x20\n      add\n      swap2\n      pop\n      pop\n      mload(0x40)\n      dup1\n      swap2\n      sub\n      swap1\n      return\n        /* \"contracts/Token/Token.sol\":16815:16972  function transfer(address recipient, uint256 amount) public virtual override returns (bool) {... */\n    tag_33:\n      tag_133\n      0x04\n      dup1\n      calldatasize\n      sub\n      0x40\n      dup2\n      lt\n      iszero\n      tag_134\n      jumpi\n      0x00\n      dup1\n      revert\n    tag_134:\n      dup2\n      add\n      swap1\n      dup1\n      dup1\n      calldataload\n      0xffffffffffffffffffffffffffffffffffffffff\n      and\n      swap1\n      0x20\n      add\n      swap1\n      swap3\n      swap2\n      swap1\n      dup1\n      calldataload\n      swap1\n      0x20\n      add\n      swap1\n      swap3\n      swap2\n      swap1\n      pop\n      pop\n      pop\n      tag_135\n      jump\t// in\n    tag_133:\n      mload(0x40)\n      dup1\n      dup3\n      iszero\n      iszero\n      dup2\n      mstore\n      0x20\n      add\n      swap2\n      pop\n      pop\n      mload(0x40)\n      dup1\n      swap2\n      sub\n      swap1\n      return\n        /* \"contracts/Token/Token.sol\":23749:23907  function mintFrozenTokens(address account, uint256 amount) public onlyMelter returns (bool) {... */\n    tag_34:\n      tag_136\n      0x04\n      dup1\n      calldatasize\n      sub\n      0x40\n      dup2\n      lt\n      iszero\n      tag_137\n      jumpi\n      0x00\n      dup1\n      revert\n    tag_137:\n      dup2\n      add\n      swap1\n      dup1\n      dup1\n      calldataload\n      0xffffffffffffffffffffffffffffffffffffffff\n      and\n      swap1\n      0x20\n      add\n      swap1\n      swap3\n      swap2\n      swap1\n      dup1\n      calldataload\n      swap1\n      0x20\n      add\n      swap1\n      swap3\n      swap2\n      swap1\n      pop\n      pop\n      pop\n      tag_138\n      jump\t// in\n    tag_136:\n      mload(0x40)\n      dup1\n      dup3\n      iszero\n      iszero\n      dup2\n      mstore\n      0x20\n      add\n      swap2\n      pop\n      pop\n      mload(0x40)\n      dup1\n      swap2\n      sub\n      swap1\n      return\n        /* \"contracts/Token/Token.sol\":22260:22283  address public _factory */\n    tag_35:\n      tag_139\n      tag_140\n      jump\t// in\n    tag_139:\n      mload(0x40)\n      dup1\n      dup3\n      0xffffffffffffffffffffffffffffffffffffffff\n      and\n      dup2\n      mstore\n      0x20\n      add\n      swap2\n      pop\n      pop\n      mload(0x40)\n      dup1\n      swap2\n      sub\n      swap1\n      return\n        /* \"contracts/Token/Token.sol\":25021:25121  function setTransferFeeRateBuy(uint256 _rate) public onlyOwner {... */\n    tag_36:\n      tag_141\n      0x04\n      dup1\n      calldatasize\n      sub\n      0x20\n      dup2\n      lt\n      iszero\n      tag_142\n      jumpi\n      0x00\n      dup1\n      revert\n    tag_142:\n      dup2\n      add\n      swap1\n      dup1\n      dup1\n      calldataload\n      swap1\n      0x20\n      add\n      swap1\n      swap3\n      swap2\n      swap1\n      pop\n      pop\n      pop\n      tag_143\n      jump\t// in\n    tag_141:\n      stop\n        /* \"contracts/Token/Token.sol\":16484:16560  function maxSupply() public view returns (uint256) {... */\n    tag_37:\n      tag_144\n      tag_145\n      jump\t// in\n    tag_144:\n      mload(0x40)\n      dup1\n      dup3\n      dup2\n      mstore\n      0x20\n      add\n      swap2\n      pop\n      pop\n      mload(0x40)\n      dup1\n      swap2\n      sub\n      swap1\n      return\n        /* \"contracts/Token/Token.sol\":14596:14699  function addToMelters(address account) public onlyMelterAdmin {... */\n    tag_38:\n      tag_146\n      0x04\n      dup1\n      calldatasize\n      sub\n      0x20\n      dup2\n      lt\n      iszero\n      tag_147\n      jumpi\n      0x00\n      dup1\n      revert\n    tag_147:\n      dup2\n      add\n      swap1\n      dup1\n      dup1\n      calldataload\n      0xffffffffffffffffffffffffffffffffffffffff\n      and\n      swap1\n      0x20\n      add\n      swap1\n      swap3\n      swap2\n      swap1\n      pop\n      pop\n      pop\n      tag_148\n      jump\t// in\n    tag_146:\n      stop\n        /* \"contracts/Token/Token.sol\":16975:17115  function allowance(address owner, address spender) public view virtual override returns (uint256) {... */\n    tag_39:\n      tag_149\n      0x04\n      dup1\n      calldatasize\n      sub\n      0x40\n      dup2\n      lt\n      iszero\n      tag_150\n      jumpi\n      0x00\n      dup1\n      revert\n    tag_150:\n      dup2\n      add\n      swap1\n      dup1\n      dup1\n      calldataload\n      0xffffffffffffffffffffffffffffffffffffffff\n      and\n      swap1\n      0x20\n      add\n      swap1\n      swap3\n      swap2\n      swap1\n      dup1\n      calldataload\n      0xffffffffffffffffffffffffffffffffffffffff\n      and\n      swap1\n      0x20\n      add\n      swap1\n      swap3\n      swap2\n      swap1\n      pop\n      pop\n      pop\n      tag_151\n      jump\t// in\n    tag_149:\n      mload(0x40)\n      dup1\n      dup3\n      dup2\n      mstore\n      0x20\n      add\n      swap2\n      pop\n      pop\n      mload(0x40)\n      dup1\n      swap2\n      sub\n      swap1\n      return\n        /* \"contracts/Token/Token.sol\":23911:24354  function transferFrozenToken(address from, address to, uint256 amount) public onlyMelter returns (bool) {... */\n    tag_40:\n      tag_152\n      0x04\n      dup1\n      calldatasize\n      sub\n      0x60\n      dup2\n      lt\n      iszero\n      tag_153\n      jumpi\n      0x00\n      dup1\n      revert\n    tag_153:\n      dup2\n      add\n      swap1\n      dup1\n      dup1\n      calldataload\n      0xffffffffffffffffffffffffffffffffffffffff\n      and\n      swap1\n      0x20\n      add\n      swap1\n      swap3\n      swap2\n      swap1\n      dup1\n      calldataload\n      0xffffffffffffffffffffffffffffffffffffffff\n      and\n      swap1\n      0x20\n      add\n      swap1\n      swap3\n      swap2\n      swap1\n      dup1\n      calldataload\n      swap1\n      0x20\n      add\n      swap1\n      swap3\n      swap2\n      swap1\n      pop\n      pop\n      pop\n      tag_154\n      jump\t// in\n    tag_152:\n      mload(0x40)\n      dup1\n      dup3\n      iszero\n      iszero\n      dup2\n      mstore\n      0x20\n      add\n      swap2\n      pop\n      pop\n      mload(0x40)\n      dup1\n      swap2\n      sub\n      swap1\n      return\n        /* \"contracts/Token/Token.sol\":12862:13081  function transferOwnership(address newOwner) public virtual onlyOwner {... */\n    tag_41:\n      tag_155\n      0x04\n      dup1\n      calldatasize\n      sub\n      0x20\n      dup2\n      lt\n      iszero\n      tag_156\n      jumpi\n      0x00\n      dup1\n      revert\n    tag_156:\n      dup2\n      add\n      swap1\n      dup1\n      dup1\n      calldataload\n      0xffffffffffffffffffffffffffffffffffffffff\n      and\n      swap1\n      0x20\n      add\n      swap1\n      swap3\n      swap2\n      swap1\n      pop\n      pop\n      pop\n      tag_157\n      jump\t// in\n    tag_155:\n      stop\n        /* \"contracts/Token/Token.sol\":16162:16234  function name() public view returns (string memory) {... */\n    tag_50:\n        /* \"contracts/Token/Token.sol\":16199:16212  string memory */\n      0x60\n        /* \"contracts/Token/Token.sol\":16225:16230  _name */\n      0x09\n        /* \"contracts/Token/Token.sol\":16218:16230  return _name */\n      dup1\n      sload\n      0x01\n      dup2\n      0x01\n      and\n      iszero\n      0x0100\n      mul\n      sub\n      and\n      0x02\n      swap1\n      div\n      dup1\n      0x1f\n      add\n      0x20\n      dup1\n      swap2\n      div\n      mul\n      0x20\n      add\n      mload(0x40)\n      swap1\n      dup2\n      add\n      0x40\n      mstore\n      dup1\n      swap3\n      swap2\n      swap1\n      dup2\n      dup2\n      mstore\n      0x20\n      add\n      dup3\n      dup1\n      sload\n      0x01\n      dup2\n      0x01\n      and\n      iszero\n      0x0100\n      mul\n      sub\n      and\n      0x02\n      swap1\n      div\n      dup1\n      iszero\n      tag_159\n      jumpi\n      dup1\n      0x1f\n      lt\n      tag_160\n      jumpi\n      0x0100\n      dup1\n      dup4\n      sload\n      div\n      mul\n      dup4\n      mstore\n      swap2\n      0x20\n      add\n      swap2\n      jump(tag_159)\n    tag_160:\n      dup3\n      add\n      swap2\n      swap1\n      0x00\n      mstore\n      keccak256(0x00, 0x20)\n      swap1\n    tag_161:\n      dup2\n      sload\n      dup2\n      mstore\n      swap1\n      0x01\n      add\n      swap1\n      0x20\n      add\n      dup1\n      dup4\n      gt\n      tag_161\n      jumpi\n      dup3\n      swap1\n      sub\n      0x1f\n      and\n      dup3\n      add\n      swap2\n    tag_159:\n      pop\n      pop\n      pop\n      pop\n      pop\n      swap1\n      pop\n        /* \"contracts/Token/Token.sol\":16162:16234  function name() public view returns (string memory) {... */\n      swap1\n      jump\t// out\n        /* \"contracts/Token/Token.sol\":17118:17269  function approve(address spender, uint256 amount) public virtual override returns (bool) {... */\n    tag_57:\n        /* \"contracts/Token/Token.sol\":17201:17205  bool */\n      0x00\n        /* \"contracts/Token/Token.sol\":17211:17250  _approve(_msgSender(), spender, amount) */\n      tag_163\n        /* \"contracts/Token/Token.sol\":17220:17232  _msgSender() */\n      tag_164\n        /* \"contracts/Token/Token.sol\":17220:17230  _msgSender */\n      tag_165\n        /* \"contracts/Token/Token.sol\":17220:17232  _msgSender() */\n      jump\t// in\n    tag_164:\n        /* \"contracts/Token/Token.sol\":17234:17241  spender */\n      dup5\n        /* \"contracts/Token/Token.sol\":17243:17249  amount */\n      dup5\n        /* \"contracts/Token/Token.sol\":17211:17219  _approve */\n      tag_166\n        /* \"contracts/Token/Token.sol\":17211:17250  _approve(_msgSender(), spender, amount) */\n      jump\t// in\n    tag_163:\n        /* \"contracts/Token/Token.sol\":17261:17265  true */\n      0x01\n        /* \"contracts/Token/Token.sol\":17254:17265  return true */\n      swap1\n      pop\n        /* \"contracts/Token/Token.sol\":17118:17269  function approve(address spender, uint256 amount) public virtual override returns (bool) {... */\n      swap3\n      swap2\n      pop\n      pop\n      jump\t// out\n        /* \"contracts/Token/Token.sol\":21974:22007  uint256 public transferFeeRateBuy */\n    tag_59:\n      sload(0x0e)\n      dup2\n      jump\t// out\n        /* \"contracts/Token/Token.sol\":24364:24510  function meltTokens(address account, uint256 amount) public onlyMelter returns (bool) {... */\n    tag_62:\n        /* \"contracts/Token/Token.sol\":24444:24448  bool */\n      0x00\n        /* \"contracts/Token/Token.sol\":14106:14110  true */\n      0x01\n        /* \"contracts/Token/Token.sol\":14082:14110  _melters[msg.sender] == true */\n      iszero\n      iszero\n        /* \"contracts/Token/Token.sol\":14082:14090  _melters */\n      0x02\n        /* \"contracts/Token/Token.sol\":14082:14102  _melters[msg.sender] */\n      0x00\n        /* \"contracts/Token/Token.sol\":14091:14101  msg.sender */\n      caller\n        /* \"contracts/Token/Token.sol\":14082:14102  _melters[msg.sender] */\n      0xffffffffffffffffffffffffffffffffffffffff\n      and\n      0xffffffffffffffffffffffffffffffffffffffff\n      and\n      dup2\n      mstore\n      0x20\n      add\n      swap1\n      dup2\n      mstore\n      0x20\n      add\n      0x00\n      keccak256\n      0x00\n      swap1\n      sload\n      swap1\n      0x0100\n      exp\n      swap1\n      div\n      0xff\n      and\n        /* \"contracts/Token/Token.sol\":14082:14110  _melters[msg.sender] == true */\n      iszero\n      iszero\n      eq\n        /* \"contracts/Token/Token.sol\":14073:14133  require (_melters[msg.sender] == true, \"can't perform melt\") */\n      tag_168\n      jumpi\n      mload(0x40)\n      0x08c379a000000000000000000000000000000000000000000000000000000000\n      dup2\n      mstore\n      0x04\n      add\n      dup1\n      dup1\n      0x20\n      add\n      dup3\n      dup2\n      sub\n      dup3\n      mstore\n      0x12\n      dup2\n      mstore\n      0x20\n      add\n      dup1\n      0x63616e277420706572666f726d206d656c740000000000000000000000000000\n      dup2\n      mstore\n      pop\n      0x20\n      add\n      swap2\n      pop\n      pop\n      mload(0x40)\n      dup1\n      swap2\n      sub\n      swap1\n      revert\n    tag_168:\n        /* \"contracts/Token/Token.sol\":24460:24482  _melt(account, amount) */\n      tag_170\n        /* \"contracts/Token/Token.sol\":24466:24473  account */\n      dup4\n        /* \"contracts/Token/Token.sol\":24475:24481  amount */\n      dup4\n        /* \"contracts/Token/Token.sol\":24460:24465  _melt */\n      tag_171\n        /* \"contracts/Token/Token.sol\":24460:24482  _melt(account, amount) */\n      jump\t// in\n    tag_170:\n        /* \"contracts/Token/Token.sol\":24499:24503  true */\n      0x01\n        /* \"contracts/Token/Token.sol\":24492:24503  return true */\n      swap1\n      pop\n        /* \"contracts/Token/Token.sol\":24364:24510  function meltTokens(address account, uint256 amount) public onlyMelter returns (bool) {... */\n      swap3\n      swap2\n      pop\n      pop\n      jump\t// out\n        /* \"contracts/Token/Token.sol\":22165:22206  IUniswapV2Router02 public uniswapV2Router */\n    tag_64:\n      0x12\n      0x00\n      swap1\n      sload\n      swap1\n      0x0100\n      exp\n      swap1\n      div\n      0xffffffffffffffffffffffffffffffffffffffff\n      and\n      dup2\n      jump\t// out\n        /* \"contracts/Token/Token.sol\":24520:24639  function destroyFrozen(address account, uint256 amount) public onlyMelter {... */\n    tag_67:\n        /* \"contracts/Token/Token.sol\":14106:14110  true */\n      0x01\n        /* \"contracts/Token/Token.sol\":14082:14110  _melters[msg.sender] == true */\n      iszero\n      iszero\n        /* \"contracts/Token/Token.sol\":14082:14090  _melters */\n      0x02\n        /* \"contracts/Token/Token.sol\":14082:14102  _melters[msg.sender] */\n      0x00\n        /* \"contracts/Token/Token.sol\":14091:14101  msg.sender */\n      caller\n        /* \"contracts/Token/Token.sol\":14082:14102  _melters[msg.sender] */\n      0xffffffffffffffffffffffffffffffffffffffff\n      and\n      0xffffffffffffffffffffffffffffffffffffffff\n      and\n      dup2\n      mstore\n      0x20\n      add\n      swap1\n      dup2\n      mstore\n      0x20\n      add\n      0x00\n      keccak256\n      0x00\n      swap1\n      sload\n      swap1\n      0x0100\n      exp\n      swap1\n      div\n      0xff\n      and\n        /* \"contracts/Token/Token.sol\":14082:14110  _melters[msg.sender] == true */\n      iszero\n      iszero\n      eq\n        /* \"contracts/Token/Token.sol\":14073:14133  require (_melters[msg.sender] == true, \"can't perform melt\") */\n      tag_173\n      jumpi\n      mload(0x40)\n      0x08c379a000000000000000000000000000000000000000000000000000000000\n      dup2\n      mstore\n      0x04\n      add\n      dup1\n      dup1\n      0x20\n      add\n      dup3\n      dup2\n      sub\n      dup3\n      mstore\n      0x12\n      dup2\n      mstore\n      0x20\n      add\n      dup1\n      0x63616e277420706572666f726d206d656c740000000000000000000000000000\n      dup2\n      mstore\n      pop\n      0x20\n      add\n      swap2\n      pop\n      pop\n      mload(0x40)\n      dup1\n      swap2\n      sub\n      swap1\n      revert\n    tag_173:\n        /* \"contracts/Token/Token.sol\":24604:24632  _burnFrozen(account, amount) */\n      tag_175\n        /* \"contracts/Token/Token.sol\":24616:24623  account */\n      dup3\n        /* \"contracts/Token/Token.sol\":24625:24631  amount */\n      dup3\n        /* \"contracts/Token/Token.sol\":24604:24615  _burnFrozen */\n      tag_176\n        /* \"contracts/Token/Token.sol\":24604:24632  _burnFrozen(account, amount) */\n      jump\t// in\n    tag_175:\n        /* \"contracts/Token/Token.sol\":24520:24639  function destroyFrozen(address account, uint256 amount) public onlyMelter {... */\n      pop\n      pop\n      jump\t// out\n        /* \"contracts/Token/Token.sol\":16391:16480  function totalSupply() public view override returns (uint256) {... */\n    tag_69:\n        /* \"contracts/Token/Token.sol\":16444:16451  uint256 */\n      0x00\n        /* \"contracts/Token/Token.sol\":16464:16476  _totalSupply */\n      sload(0x07)\n        /* \"contracts/Token/Token.sol\":16457:16476  return _totalSupply */\n      swap1\n      pop\n        /* \"contracts/Token/Token.sol\":16391:16480  function totalSupply() public view override returns (uint256) {... */\n      swap1\n      jump\t// out\n        /* \"contracts/Token/Token.sol\":14944:15159  function claimMelterAdmin() public onlyPendingMelterAdmin {... */\n    tag_71:\n        /* \"contracts/Token/Token.sol\":14223:14241  pendingMelterAdmin */\n      0x04\n      0x00\n      swap1\n      sload\n      swap1\n      0x0100\n      exp\n      swap1\n      div\n      0xffffffffffffffffffffffffffffffffffffffff\n      and\n        /* \"contracts/Token/Token.sol\":14209:14241  msg.sender == pendingMelterAdmin */\n      0xffffffffffffffffffffffffffffffffffffffff\n      and\n        /* \"contracts/Token/Token.sol\":14209:14219  msg.sender */\n      caller\n        /* \"contracts/Token/Token.sol\":14209:14241  msg.sender == pendingMelterAdmin */\n      0xffffffffffffffffffffffffffffffffffffffff\n      and\n      eq\n        /* \"contracts/Token/Token.sol\":14201:14279  require(msg.sender == pendingMelterAdmin, \"caller not a pending melter admin\") */\n      tag_179\n      jumpi\n      mload(0x40)\n      0x08c379a000000000000000000000000000000000000000000000000000000000\n      dup2\n      mstore\n      0x04\n      add\n      dup1\n      dup1\n      0x20\n      add\n      dup3\n      dup2\n      sub\n      dup3\n      mstore\n      0x21\n      dup2\n      mstore\n      0x20\n      add\n      dup1\n      data_dcdad2652796fc64e805bbf7adf0bc0a565a5d4a577f7ae44ee7ec82e235ba99\n      0x21\n      swap2\n      codecopy\n      0x40\n      add\n      swap2\n      pop\n      pop\n      mload(0x40)\n      dup1\n      swap2\n      sub\n      swap1\n      revert\n    tag_179:\n        /* \"contracts/Token/Token.sol\":15049:15067  pendingMelterAdmin */\n      0x04\n      0x00\n      swap1\n      sload\n      swap1\n      0x0100\n      exp\n      swap1\n      div\n      0xffffffffffffffffffffffffffffffffffffffff\n      and\n        /* \"contracts/Token/Token.sol\":15017:15068  MelterTransferred(_melteradmin, pendingMelterAdmin) */\n      0xffffffffffffffffffffffffffffffffffffffff\n      and\n        /* \"contracts/Token/Token.sol\":15035:15047  _melteradmin */\n      0x03\n      0x00\n      swap1\n      sload\n      swap1\n      0x0100\n      exp\n      swap1\n      div\n      0xffffffffffffffffffffffffffffffffffffffff\n      and\n        /* \"contracts/Token/Token.sol\":15017:15068  MelterTransferred(_melteradmin, pendingMelterAdmin) */\n      0xffffffffffffffffffffffffffffffffffffffff\n      and\n      0x2e564b778e0bd386914daff857c4db4480f555c393032a2f0ab2d62de42c2977\n      mload(0x40)\n      mload(0x40)\n      dup1\n      swap2\n      sub\n      swap1\n      log3\n        /* \"contracts/Token/Token.sol\":15093:15111  pendingMelterAdmin */\n      0x04\n      0x00\n      swap1\n      sload\n      swap1\n      0x0100\n      exp\n      swap1\n      div\n      0xffffffffffffffffffffffffffffffffffffffff\n      and\n        /* \"contracts/Token/Token.sol\":15078:15090  _melteradmin */\n      0x03\n      0x00\n        /* \"contracts/Token/Token.sol\":15078:15111  _melteradmin = pendingMelterAdmin */\n      0x0100\n      exp\n      dup2\n      sload\n      dup2\n      0xffffffffffffffffffffffffffffffffffffffff\n      mul\n      not\n      and\n      swap1\n      dup4\n      0xffffffffffffffffffffffffffffffffffffffff\n      and\n      mul\n      or\n      swap1\n      sstore\n      pop\n        /* \"contracts/Token/Token.sol\":15150:15151  0 */\n      0x00\n        /* \"contracts/Token/Token.sol\":15121:15139  pendingMelterAdmin */\n      0x04\n      0x00\n        /* \"contracts/Token/Token.sol\":15121:15152  pendingMelterAdmin = address(0) */\n      0x0100\n      exp\n      dup2\n      sload\n      dup2\n      0xffffffffffffffffffffffffffffffffffffffff\n      mul\n      not\n      and\n      swap1\n      dup4\n      0xffffffffffffffffffffffffffffffffffffffff\n      and\n      mul\n      or\n      swap1\n      sstore\n      pop\n        /* \"contracts/Token/Token.sol\":14944:15159  function claimMelterAdmin() public onlyPendingMelterAdmin {... */\n      jump\t// out\n        /* \"contracts/Token/Token.sol\":14705:14814  function removeFromMelters(address account) public onlyMelterAdmin {... */\n    tag_74:\n        /* \"contracts/Token/Token.sol\":13975:13987  _melteradmin */\n      0x03\n      0x00\n      swap1\n      sload\n      swap1\n      0x0100\n      exp\n      swap1\n      div\n      0xffffffffffffffffffffffffffffffffffffffff\n      and\n        /* \"contracts/Token/Token.sol\":13961:13987  msg.sender == _melteradmin */\n      0xffffffffffffffffffffffffffffffffffffffff\n      and\n        /* \"contracts/Token/Token.sol\":13961:13971  msg.sender */\n      caller\n        /* \"contracts/Token/Token.sol\":13961:13987  msg.sender == _melteradmin */\n      0xffffffffffffffffffffffffffffffffffffffff\n      and\n      eq\n        /* \"contracts/Token/Token.sol\":13952:14017  require (msg.sender == _melteradmin, \"caller not a melter admin\") */\n      tag_182\n      jumpi\n      mload(0x40)\n      0x08c379a000000000000000000000000000000000000000000000000000000000\n      dup2\n      mstore\n      0x04\n      add\n      dup1\n      dup1\n      0x20\n      add\n      dup3\n      dup2\n      sub\n      dup3\n      mstore\n      0x19\n      dup2\n      mstore\n      0x20\n      add\n      dup1\n      0x63616c6c6572206e6f742061206d656c7465722061646d696e00000000000000\n      dup2\n      mstore\n      pop\n      0x20\n      add\n      swap2\n      pop\n      pop\n      mload(0x40)\n      dup1\n      swap2\n      sub\n      swap1\n      revert\n    tag_182:\n        /* \"contracts/Token/Token.sol\":14802:14807  false */\n      0x00\n        /* \"contracts/Token/Token.sol\":14782:14790  _melters */\n      0x02\n        /* \"contracts/Token/Token.sol\":14782:14799  _melters[account] */\n      0x00\n        /* \"contracts/Token/Token.sol\":14791:14798  account */\n      dup4\n        /* \"contracts/Token/Token.sol\":14782:14799  _melters[account] */\n      0xffffffffffffffffffffffffffffffffffffffff\n      and\n      0xffffffffffffffffffffffffffffffffffffffff\n      and\n      dup2\n      mstore\n      0x20\n      add\n      swap1\n      dup2\n      mstore\n      0x20\n      add\n      0x00\n      keccak256\n      0x00\n        /* \"contracts/Token/Token.sol\":14782:14807  _melters[account] = false */\n      0x0100\n      exp\n      dup2\n      sload\n      dup2\n      0xff\n      mul\n      not\n      and\n      swap1\n      dup4\n      iszero\n      iszero\n      mul\n      or\n      swap1\n      sstore\n      pop\n        /* \"contracts/Token/Token.sol\":14705:14814  function removeFromMelters(address account) public onlyMelterAdmin {... */\n      pop\n      jump\t// out\n        /* \"contracts/Token/Token.sol\":17272:17568  function transferFrom(address sender, address recipient, uint256 amount) public virtual override returns (bool) {... */\n    tag_77:\n        /* \"contracts/Token/Token.sol\":17378:17382  bool */\n      0x00\n        /* \"contracts/Token/Token.sol\":17388:17424  _transfer(sender, recipient, amount) */\n      tag_185\n        /* \"contracts/Token/Token.sol\":17398:17404  sender */\n      dup5\n        /* \"contracts/Token/Token.sol\":17406:17415  recipient */\n      dup5\n        /* \"contracts/Token/Token.sol\":17417:17423  amount */\n      dup5\n        /* \"contracts/Token/Token.sol\":17388:17397  _transfer */\n      tag_186\n        /* \"contracts/Token/Token.sol\":17388:17424  _transfer(sender, recipient, amount) */\n      jump\t// in\n    tag_185:\n        /* \"contracts/Token/Token.sol\":17428:17549  _approve(sender, _msgSender(), _allowances[sender][_msgSender()].sub(amount, \"ERC20: transfer amount exceeds allowance\")) */\n      tag_187\n        /* \"contracts/Token/Token.sol\":17437:17443  sender */\n      dup5\n        /* \"contracts/Token/Token.sol\":17445:17457  _msgSender() */\n      tag_188\n        /* \"contracts/Token/Token.sol\":17445:17455  _msgSender */\n      tag_165\n        /* \"contracts/Token/Token.sol\":17445:17457  _msgSender() */\n      jump\t// in\n    tag_188:\n        /* \"contracts/Token/Token.sol\":17459:17548  _allowances[sender][_msgSender()].sub(amount, \"ERC20: transfer amount exceeds allowance\") */\n      tag_189\n        /* \"contracts/Token/Token.sol\":17497:17503  amount */\n      dup6\n        /* \"contracts/Token/Token.sol\":17459:17548  _allowances[sender][_msgSender()].sub(amount, \"ERC20: transfer amount exceeds allowance\") */\n      mload(0x40)\n      dup1\n      0x60\n      add\n      0x40\n      mstore\n      dup1\n      0x28\n      dup2\n      mstore\n      0x20\n      add\n      data_974d1b4421da69cc60b481194f0dad36a5bb4e23da810da7a7fb30cdba178330\n      0x28\n      swap2\n      codecopy\n        /* \"contracts/Token/Token.sol\":17459:17470  _allowances */\n      0x06\n        /* \"contracts/Token/Token.sol\":17459:17478  _allowances[sender] */\n      0x00\n        /* \"contracts/Token/Token.sol\":17471:17477  sender */\n      dup12\n        /* \"contracts/Token/Token.sol\":17459:17478  _allowances[sender] */\n      0xffffffffffffffffffffffffffffffffffffffff\n      and\n      0xffffffffffffffffffffffffffffffffffffffff\n      and\n      dup2\n      mstore\n      0x20\n      add\n      swap1\n      dup2\n      mstore\n      0x20\n      add\n      0x00\n      keccak256\n        /* \"contracts/Token/Token.sol\":17459:17492  _allowances[sender][_msgSender()] */\n      0x00\n        /* \"contracts/Token/Token.sol\":17479:17491  _msgSender() */\n      tag_190\n        /* \"contracts/Token/Token.sol\":17479:17489  _msgSender */\n      tag_165\n        /* \"contracts/Token/Token.sol\":17479:17491  _msgSender() */\n      jump\t// in\n    tag_190:\n        /* \"contracts/Token/Token.sol\":17459:17492  _allowances[sender][_msgSender()] */\n      0xffffffffffffffffffffffffffffffffffffffff\n      and\n      0xffffffffffffffffffffffffffffffffffffffff\n      and\n      dup2\n      mstore\n      0x20\n      add\n      swap1\n      dup2\n      mstore\n      0x20\n      add\n      0x00\n      keccak256\n      sload\n        /* \"contracts/Token/Token.sol\":17459:17496  _allowances[sender][_msgSender()].sub */\n      tag_191\n      swap1\n        /* \"contracts/Token/Token.sol\":17459:17548  _allowances[sender][_msgSender()].sub(amount, \"ERC20: transfer amount exceeds allowance\") */\n      swap3\n      swap2\n      swap1\n      0xffffffff\n      and\n      jump\t// in\n    tag_189:\n        /* \"contracts/Token/Token.sol\":17428:17436  _approve */\n      tag_166\n        /* \"contracts/Token/Token.sol\":17428:17549  _approve(sender, _msgSender(), _allowances[sender][_msgSender()].sub(amount, \"ERC20: transfer amount exceeds allowance\")) */\n      jump\t// in\n    tag_187:\n        /* \"contracts/Token/Token.sol\":17560:17564  true */\n      0x01\n        /* \"contracts/Token/Token.sol\":17553:17564  return true */\n      swap1\n      pop\n        /* \"contracts/Token/Token.sol\":17272:17568  function transferFrom(address sender, address recipient, uint256 amount) public virtual override returns (bool) {... */\n      swap4\n      swap3\n      pop\n      pop\n      pop\n      jump\t// out\n        /* \"contracts/Token/Token.sol\":16316:16388  function decimals() public view returns (uint8) {... */\n    tag_79:\n        /* \"contracts/Token/Token.sol\":16357:16362  uint8 */\n      0x00\n        /* \"contracts/Token/Token.sol\":16375:16384  _decimals */\n      0x0b\n      0x00\n      swap1\n      sload\n      swap1\n      0x0100\n      exp\n      swap1\n      div\n      0xff\n      and\n        /* \"contracts/Token/Token.sol\":16368:16384  return _decimals */\n      swap1\n      pop\n        /* \"contracts/Token/Token.sol\":16316:16388  function decimals() public view returns (uint8) {... */\n      swap1\n      jump\t// out\n        /* \"contracts/Token/Token.sol\":14501:14590  function melteradmin() public view returns (address) {... */\n    tag_81:\n        /* \"contracts/Token/Token.sol\":14545:14552  address */\n      0x00\n        /* \"contracts/Token/Token.sol\":14571:14583  _melteradmin */\n      0x03\n      0x00\n      swap1\n      sload\n      swap1\n      0x0100\n      exp\n      swap1\n      div\n      0xffffffffffffffffffffffffffffffffffffffff\n      and\n        /* \"contracts/Token/Token.sol\":14564:14583  return _melteradmin */\n      swap1\n      pop\n        /* \"contracts/Token/Token.sol\":14501:14590  function melteradmin() public view returns (address) {... */\n      swap1\n      jump\t// out\n        /* \"contracts/Token/Token.sol\":25125:25227  function setTransferFeeRateSeel(uint256 _rate) public onlyOwner {... */\n    tag_84:\n        /* \"contracts/Token/Token.sol\":12222:12234  _msgSender() */\n      tag_195\n        /* \"contracts/Token/Token.sol\":12222:12232  _msgSender */\n      tag_165\n        /* \"contracts/Token/Token.sol\":12222:12234  _msgSender() */\n      jump\t// in\n    tag_195:\n        /* \"contracts/Token/Token.sol\":12212:12234  _owner == _msgSender() */\n      0xffffffffffffffffffffffffffffffffffffffff\n      and\n        /* \"contracts/Token/Token.sol\":12212:12218  _owner */\n      0x01\n      0x00\n      swap1\n      sload\n      swap1\n      0x0100\n      exp\n      swap1\n      div\n      0xffffffffffffffffffffffffffffffffffffffff\n      and\n        /* \"contracts/Token/Token.sol\":12212:12234  _owner == _msgSender() */\n      0xffffffffffffffffffffffffffffffffffffffff\n      and\n      eq\n        /* \"contracts/Token/Token.sol\":12204:12271  require(_owner == _msgSender(), \"Ownable: caller is not the owner\") */\n      tag_196\n      jumpi\n      mload(0x40)\n      0x08c379a000000000000000000000000000000000000000000000000000000000\n      dup2\n      mstore\n      0x04\n      add\n      dup1\n      dup1\n      0x20\n      add\n      dup3\n      dup2\n      sub\n      dup3\n      mstore\n      0x20\n      dup2\n      mstore\n      0x20\n      add\n      dup1\n      0x4f776e61626c653a2063616c6c6572206973206e6f7420746865206f776e6572\n      dup2\n      mstore\n      pop\n      0x20\n      add\n      swap2\n      pop\n      pop\n      mload(0x40)\n      dup1\n      swap2\n      sub\n      swap1\n      revert\n    tag_196:\n        /* \"contracts/Token/Token.sol\":25215:25220  _rate */\n      dup1\n        /* \"contracts/Token/Token.sol\":25193:25212  transferFeeRateSell */\n      0x0f\n        /* \"contracts/Token/Token.sol\":25193:25220  transferFeeRateSell = _rate */\n      dup2\n      swap1\n      sstore\n      pop\n        /* \"contracts/Token/Token.sol\":25125:25227  function setTransferFeeRateSeel(uint256 _rate) public onlyOwner {... */\n      pop\n      jump\t// out\n        /* \"contracts/Token/Token.sol\":17571:17771  function increaseAllowance(address spender, uint256 addedValue) public virtual returns (bool) {... */\n    tag_87:\n        /* \"contracts/Token/Token.sol\":17659:17663  bool */\n      0x00\n        /* \"contracts/Token/Token.sol\":17669:17752  _approve(_msgSender(), spender, _allowances[_msgSender()][spender].add(addedValue)) */\n      tag_199\n        /* \"contracts/Token/Token.sol\":17678:17690  _msgSender() */\n      tag_200\n        /* \"contracts/Token/Token.sol\":17678:17688  _msgSender */\n      tag_165\n        /* \"contracts/Token/Token.sol\":17678:17690  _msgSender() */\n      jump\t// in\n    tag_200:\n        /* \"contracts/Token/Token.sol\":17692:17699  spender */\n      dup5\n        /* \"contracts/Token/Token.sol\":17701:17751  _allowances[_msgSender()][spender].add(addedValue) */\n      tag_201\n        /* \"contracts/Token/Token.sol\":17740:17750  addedValue */\n      dup6\n        /* \"contracts/Token/Token.sol\":17701:17712  _allowances */\n      0x06\n        /* \"contracts/Token/Token.sol\":17701:17726  _allowances[_msgSender()] */\n      0x00\n        /* \"contracts/Token/Token.sol\":17713:17725  _msgSender() */\n      tag_202\n        /* \"contracts/Token/Token.sol\":17713:17723  _msgSender */\n      tag_165\n        /* \"contracts/Token/Token.sol\":17713:17725  _msgSender() */\n      jump\t// in\n    tag_202:\n        /* \"contracts/Token/Token.sol\":17701:17726  _allowances[_msgSender()] */\n      0xffffffffffffffffffffffffffffffffffffffff\n      and\n      0xffffffffffffffffffffffffffffffffffffffff\n      and\n      dup2\n      mstore\n      0x20\n      add\n      swap1\n      dup2\n      mstore\n      0x20\n      add\n      0x00\n      keccak256\n        /* \"contracts/Token/Token.sol\":17701:17735  _allowances[_msgSender()][spender] */\n      0x00\n        /* \"contracts/Token/Token.sol\":17727:17734  spender */\n      dup10\n        /* \"contracts/Token/Token.sol\":17701:17735  _allowances[_msgSender()][spender] */\n      0xffffffffffffffffffffffffffffffffffffffff\n      and\n      0xffffffffffffffffffffffffffffffffffffffff\n      and\n      dup2\n      mstore\n      0x20\n      add\n      swap1\n      dup2\n      mstore\n      0x20\n      add\n      0x00\n      keccak256\n      sload\n        /* \"contracts/Token/Token.sol\":17701:17739  _allowances[_msgSender()][spender].add */\n      tag_203\n      swap1\n        /* \"contracts/Token/Token.sol\":17701:17751  _allowances[_msgSender()][spender].add(addedValue) */\n      swap2\n      swap1\n      0xffffffff\n      and\n      jump\t// in\n    tag_201:\n        /* \"contracts/Token/Token.sol\":17669:17677  _approve */\n      tag_166\n        /* \"contracts/Token/Token.sol\":17669:17752  _approve(_msgSender(), spender, _allowances[_msgSender()][spender].add(addedValue)) */\n      jump\t// in\n    tag_199:\n        /* \"contracts/Token/Token.sol\":17763:17767  true */\n      0x01\n        /* \"contracts/Token/Token.sol\":17756:17767  return true */\n      swap1\n      pop\n        /* \"contracts/Token/Token.sol\":17571:17771  function increaseAllowance(address spender, uint256 addedValue) public virtual returns (bool) {... */\n      swap3\n      swap2\n      pop\n      pop\n      jump\t// out\n        /* \"contracts/Token/Token.sol\":23242:23330  function mint(address _to, uint256 _amount) public onlyOwner {... */\n    tag_90:\n        /* \"contracts/Token/Token.sol\":12222:12234  _msgSender() */\n      tag_205\n        /* \"contracts/Token/Token.sol\":12222:12232  _msgSender */\n      tag_165\n        /* \"contracts/Token/Token.sol\":12222:12234  _msgSender() */\n      jump\t// in\n    tag_205:\n        /* \"contracts/Token/Token.sol\":12212:12234  _owner == _msgSender() */\n      0xffffffffffffffffffffffffffffffffffffffff\n      and\n        /* \"contracts/Token/Token.sol\":12212:12218  _owner */\n      0x01\n      0x00\n      swap1\n      sload\n      swap1\n      0x0100\n      exp\n      swap1\n      div\n      0xffffffffffffffffffffffffffffffffffffffff\n      and\n        /* \"contracts/Token/Token.sol\":12212:12234  _owner == _msgSender() */\n      0xffffffffffffffffffffffffffffffffffffffff\n      and\n      eq\n        /* \"contracts/Token/Token.sol\":12204:12271  require(_owner == _msgSender(), \"Ownable: caller is not the owner\") */\n      tag_206\n      jumpi\n      mload(0x40)\n      0x08c379a000000000000000000000000000000000000000000000000000000000\n      dup2\n      mstore\n      0x04\n      add\n      dup1\n      dup1\n      0x20\n      add\n      dup3\n      dup2\n      sub\n      dup3\n      mstore\n      0x20\n      dup2\n      mstore\n      0x20\n      add\n      dup1\n      0x4f776e61626c653a2063616c6c6572206973206e6f7420746865206f776e6572\n      dup2\n      mstore\n      pop\n      0x20\n      add\n      swap2\n      pop\n      pop\n      mload(0x40)\n      dup1\n      swap2\n      sub\n      swap1\n      revert\n    tag_206:\n        /* \"contracts/Token/Token.sol\":23307:23326  _mint(_to, _amount) */\n      tag_208\n        /* \"contracts/Token/Token.sol\":23313:23316  _to */\n      dup3\n        /* \"contracts/Token/Token.sol\":23318:23325  _amount */\n      dup3\n        /* \"contracts/Token/Token.sol\":23307:23312  _mint */\n      tag_209\n        /* \"contracts/Token/Token.sol\":23307:23326  _mint(_to, _amount) */\n      jump\t// in\n    tag_208:\n        /* \"contracts/Token/Token.sol\":23242:23330  function mint(address _to, uint256 _amount) public onlyOwner {... */\n      pop\n      pop\n      jump\t// out\n        /* \"contracts/Token/Token.sol\":23333:23443  function burn(uint256 amount) public virtual returns (bool) {... */\n    tag_93:\n        /* \"contracts/Token/Token.sol\":23387:23391  bool */\n      0x00\n        /* \"contracts/Token/Token.sol\":23397:23424  _burn(_msgSender(), amount) */\n      tag_211\n        /* \"contracts/Token/Token.sol\":23403:23415  _msgSender() */\n      tag_212\n        /* \"contracts/Token/Token.sol\":23403:23413  _msgSender */\n      tag_165\n        /* \"contracts/Token/Token.sol\":23403:23415  _msgSender() */\n      jump\t// in\n    tag_212:\n        /* \"contracts/Token/Token.sol\":23417:23423  amount */\n      dup4\n        /* \"contracts/Token/Token.sol\":23397:23402  _burn */\n      tag_213\n        /* \"contracts/Token/Token.sol\":23397:23424  _burn(_msgSender(), amount) */\n      jump\t// in\n    tag_211:\n        /* \"contracts/Token/Token.sol\":23435:23439  true */\n      0x01\n        /* \"contracts/Token/Token.sol\":23428:23439  return true */\n      swap1\n      pop\n        /* \"contracts/Token/Token.sol\":23333:23443  function burn(uint256 amount) public virtual returns (bool) {... */\n      swap2\n      swap1\n      pop\n      jump\t// out\n        /* \"contracts/Token/Token.sol\":14820:14938  function transferMelterAdmin(address newMelter) public onlyMelterAdmin {... */\n    tag_96:\n        /* \"contracts/Token/Token.sol\":13975:13987  _melteradmin */\n      0x03\n      0x00\n      swap1\n      sload\n      swap1\n      0x0100\n      exp\n      swap1\n      div\n      0xffffffffffffffffffffffffffffffffffffffff\n      and\n        /* \"contracts/Token/Token.sol\":13961:13987  msg.sender == _melteradmin */\n      0xffffffffffffffffffffffffffffffffffffffff\n      and\n        /* \"contracts/Token/Token.sol\":13961:13971  msg.sender */\n      caller\n        /* \"contracts/Token/Token.sol\":13961:13987  msg.sender == _melteradmin */\n      0xffffffffffffffffffffffffffffffffffffffff\n      and\n      eq\n        /* \"contracts/Token/Token.sol\":13952:14017  require (msg.sender == _melteradmin, \"caller not a melter admin\") */\n      tag_215\n      jumpi\n      mload(0x40)\n      0x08c379a000000000000000000000000000000000000000000000000000000000\n      dup2\n      mstore\n      0x04\n      add\n      dup1\n      dup1\n      0x20\n      add\n      dup3\n      dup2\n      sub\n      dup3\n      mstore\n      0x19\n      dup2\n      mstore\n      0x20\n      add\n      dup1\n      0x63616c6c6572206e6f742061206d656c7465722061646d696e00000000000000\n      dup2\n      mstore\n      pop\n      0x20\n      add\n      swap2\n      pop\n      pop\n      mload(0x40)\n      dup1\n      swap2\n      sub\n      swap1\n      revert\n    tag_215:\n        /* \"contracts/Token/Token.sol\":14922:14931  newMelter */\n      dup1\n        /* \"contracts/Token/Token.sol\":14901:14919  pendingMelterAdmin */\n      0x04\n      0x00\n        /* \"contracts/Token/Token.sol\":14901:14931  pendingMelterAdmin = newMelter */\n      0x0100\n      exp\n      dup2\n      sload\n      dup2\n      0xffffffffffffffffffffffffffffffffffffffff\n      mul\n      not\n      and\n      swap1\n      dup4\n      0xffffffffffffffffffffffffffffffffffffffff\n      and\n      mul\n      or\n      swap1\n      sstore\n      pop\n        /* \"contracts/Token/Token.sol\":14820:14938  function transferMelterAdmin(address newMelter) public onlyMelterAdmin {... */\n      pop\n      jump\t// out\n        /* \"contracts/Token/Token.sol\":22289:22317  address public uniswapV2Pair */\n    tag_98:\n      0x15\n      0x00\n      swap1\n      sload\n      swap1\n      0x0100\n      exp\n      swap1\n      div\n      0xffffffffffffffffffffffffffffffffffffffff\n      and\n      dup2\n      jump\t// out\n        /* \"contracts/Token/Token.sol\":22010:22044  uint256 public transferFeeRateSell */\n    tag_100:\n      sload(0x0f)\n      dup2\n      jump\t// out\n        /* \"contracts/Token/Token.sol\":22212:22253  IUniswapV2Factory public uniswapV2Factory */\n    tag_102:\n      0x13\n      0x00\n      swap1\n      sload\n      swap1\n      0x0100\n      exp\n      swap1\n      div\n      0xffffffffffffffffffffffffffffffffffffffff\n      and\n      dup2\n      jump\t// out\n        /* \"contracts/Token/Token.sol\":13875:13908  address public pendingMelterAdmin */\n    tag_104:\n      0x04\n      0x00\n      swap1\n      sload\n      swap1\n      0x0100\n      exp\n      swap1\n      div\n      0xffffffffffffffffffffffffffffffffffffffff\n      and\n      dup2\n      jump\t// out\n        /* \"contracts/Token/Token.sol\":16672:16812  function balanceOf(address account) public view override returns (uint256) {... */\n    tag_107:\n        /* \"contracts/Token/Token.sol\":16738:16745  uint256 */\n      0x00\n        /* \"contracts/Token/Token.sol\":16758:16808  _balances[account].add(_frozen_balanceOf(account)) */\n      tag_218\n        /* \"contracts/Token/Token.sol\":16781:16807  _frozen_balanceOf(account) */\n      tag_219\n        /* \"contracts/Token/Token.sol\":16799:16806  account */\n      dup4\n        /* \"contracts/Token/Token.sol\":16781:16798  _frozen_balanceOf */\n      tag_220\n        /* \"contracts/Token/Token.sol\":16781:16807  _frozen_balanceOf(account) */\n      jump\t// in\n    tag_219:\n        /* \"contracts/Token/Token.sol\":16758:16767  _balances */\n      0x05\n        /* \"contracts/Token/Token.sol\":16758:16776  _balances[account] */\n      0x00\n        /* \"contracts/Token/Token.sol\":16768:16775  account */\n      dup6\n        /* \"contracts/Token/Token.sol\":16758:16776  _balances[account] */\n      0xffffffffffffffffffffffffffffffffffffffff\n      and\n      0xffffffffffffffffffffffffffffffffffffffff\n      and\n      dup2\n      mstore\n      0x20\n      add\n      swap1\n      dup2\n      mstore\n      0x20\n      add\n      0x00\n      keccak256\n      sload\n        /* \"contracts/Token/Token.sol\":16758:16780  _balances[account].add */\n      tag_203\n      swap1\n        /* \"contracts/Token/Token.sol\":16758:16808  _balances[account].add(_frozen_balanceOf(account)) */\n      swap2\n      swap1\n      0xffffffff\n      and\n      jump\t// in\n    tag_218:\n        /* \"contracts/Token/Token.sol\":16751:16808  return _balances[account].add(_frozen_balanceOf(account)) */\n      swap1\n      pop\n        /* \"contracts/Token/Token.sol\":16672:16812  function balanceOf(address account) public view override returns (uint256) {... */\n      swap2\n      swap1\n      pop\n      jump\t// out\n        /* \"contracts/Token/Token.sol\":12598:12728  function renounceOwnership() public virtual onlyOwner {... */\n    tag_109:\n        /* \"contracts/Token/Token.sol\":12222:12234  _msgSender() */\n      tag_222\n        /* \"contracts/Token/Token.sol\":12222:12232  _msgSender */\n      tag_165\n        /* \"contracts/Token/Token.sol\":12222:12234  _msgSender() */\n      jump\t// in\n    tag_222:\n        /* \"contracts/Token/Token.sol\":12212:12234  _owner == _msgSender() */\n      0xffffffffffffffffffffffffffffffffffffffff\n      and\n        /* \"contracts/Token/Token.sol\":12212:12218  _owner */\n      0x01\n      0x00\n      swap1\n      sload\n      swap1\n      0x0100\n      exp\n      swap1\n      div\n      0xffffffffffffffffffffffffffffffffffffffff\n      and\n        /* \"contracts/Token/Token.sol\":12212:12234  _owner == _msgSender() */\n      0xffffffffffffffffffffffffffffffffffffffff\n      and\n      eq\n        /* \"contracts/Token/Token.sol\":12204:12271  require(_owner == _msgSender(), \"Ownable: caller is not the owner\") */\n      tag_223\n      jumpi\n      mload(0x40)\n      0x08c379a000000000000000000000000000000000000000000000000000000000\n      dup2\n      mstore\n      0x04\n      add\n      dup1\n      dup1\n      0x20\n      add\n      dup3\n      dup2\n      sub\n      dup3\n      mstore\n      0x20\n      dup2\n      mstore\n      0x20\n      add\n      dup1\n      0x4f776e61626c653a2063616c6c6572206973206e6f7420746865206f776e6572\n      dup2\n      mstore\n      pop\n      0x20\n      add\n      swap2\n      pop\n      pop\n      mload(0x40)\n      dup1\n      swap2\n      sub\n      swap1\n      revert\n    tag_223:\n        /* \"contracts/Token/Token.sol\":12698:12699  0 */\n      0x00\n        /* \"contracts/Token/Token.sol\":12661:12701  OwnershipTransferred(_owner, address(0)) */\n      0xffffffffffffffffffffffffffffffffffffffff\n      and\n        /* \"contracts/Token/Token.sol\":12682:12688  _owner */\n      0x01\n      0x00\n      swap1\n      sload\n      swap1\n      0x0100\n      exp\n      swap1\n      div\n      0xffffffffffffffffffffffffffffffffffffffff\n      and\n        /* \"contracts/Token/Token.sol\":12661:12701  OwnershipTransferred(_owner, address(0)) */\n      0xffffffffffffffffffffffffffffffffffffffff\n      and\n      0x8be0079c531659141344cd1fd0a4f28419497f9722a3daafe3b4186f6b6457e0\n      mload(0x40)\n      mload(0x40)\n      dup1\n      swap2\n      sub\n      swap1\n      log3\n        /* \"contracts/Token/Token.sol\":12722:12723  0 */\n      0x00\n        /* \"contracts/Token/Token.sol\":12705:12711  _owner */\n      0x01\n      0x00\n        /* \"contracts/Token/Token.sol\":12705:12724  _owner = address(0) */\n      0x0100\n      exp\n      dup2\n      sload\n      dup2\n      0xffffffffffffffffffffffffffffffffffffffff\n      mul\n      not\n      and\n      swap1\n      dup4\n      0xffffffffffffffffffffffffffffffffffffffff\n      and\n      mul\n      or\n      swap1\n      sstore\n      pop\n        /* \"contracts/Token/Token.sol\":12598:12728  function renounceOwnership() public virtual onlyOwner {... */\n      jump\t// out\n        /* \"contracts/Token/Token.sol\":23446:23745  function burnFrom(address account, uint256 amount) public virtual returns (bool) {... */\n    tag_112:\n        /* \"contracts/Token/Token.sol\":23521:23525  bool */\n      0x00\n        /* \"contracts/Token/Token.sol\":23531:23557  uint256 decreasedAllowance */\n      dup1\n        /* \"contracts/Token/Token.sol\":23560:23644  allowance(account, _msgSender()).sub(amount, \"ERC20: burn amount exceeds allowance\") */\n      tag_226\n        /* \"contracts/Token/Token.sol\":23597:23603  amount */\n      dup4\n        /* \"contracts/Token/Token.sol\":23560:23644  allowance(account, _msgSender()).sub(amount, \"ERC20: burn amount exceeds allowance\") */\n      mload(0x40)\n      dup1\n      0x60\n      add\n      0x40\n      mstore\n      dup1\n      0x24\n      dup2\n      mstore\n      0x20\n      add\n      data_a287c363786607a1457a2d9d12fa61c0073358e02d76b4035fc2c2d86a19c0db\n      0x24\n      swap2\n      codecopy\n        /* \"contracts/Token/Token.sol\":23560:23592  allowance(account, _msgSender()) */\n      tag_227\n        /* \"contracts/Token/Token.sol\":23570:23577  account */\n      dup8\n        /* \"contracts/Token/Token.sol\":23579:23591  _msgSender() */\n      tag_228\n        /* \"contracts/Token/Token.sol\":23579:23589  _msgSender */\n      tag_165\n        /* \"contracts/Token/Token.sol\":23579:23591  _msgSender() */\n      jump\t// in\n    tag_228:\n        /* \"contracts/Token/Token.sol\":23560:23569  allowance */\n      tag_151\n        /* \"contracts/Token/Token.sol\":23560:23592  allowance(account, _msgSender()) */\n      jump\t// in\n    tag_227:\n        /* \"contracts/Token/Token.sol\":23560:23596  allowance(account, _msgSender()).sub */\n      tag_191\n      swap1\n        /* \"contracts/Token/Token.sol\":23560:23644  allowance(account, _msgSender()).sub(amount, \"ERC20: burn amount exceeds allowance\") */\n      swap3\n      swap2\n      swap1\n      0xffffffff\n      and\n      jump\t// in\n    tag_226:\n        /* \"contracts/Token/Token.sol\":23531:23644  uint256 decreasedAllowance = allowance(account, _msgSender()).sub(amount, \"ERC20: burn amount exceeds allowance\") */\n      swap1\n      pop\n        /* \"contracts/Token/Token.sol\":23649:23700  _approve(account, _msgSender(), decreasedAllowance) */\n      tag_229\n        /* \"contracts/Token/Token.sol\":23658:23665  account */\n      dup5\n        /* \"contracts/Token/Token.sol\":23667:23679  _msgSender() */\n      tag_230\n        /* \"contracts/Token/Token.sol\":23667:23677  _msgSender */\n      tag_165\n        /* \"contracts/Token/Token.sol\":23667:23679  _msgSender() */\n      jump\t// in\n    tag_230:\n        /* \"contracts/Token/Token.sol\":23681:23699  decreasedAllowance */\n      dup4\n        /* \"contracts/Token/Token.sol\":23649:23657  _approve */\n      tag_166\n        /* \"contracts/Token/Token.sol\":23649:23700  _approve(account, _msgSender(), decreasedAllowance) */\n      jump\t// in\n    tag_229:\n        /* \"contracts/Token/Token.sol\":23704:23726  _burn(account, amount) */\n      tag_231\n        /* \"contracts/Token/Token.sol\":23710:23717  account */\n      dup5\n        /* \"contracts/Token/Token.sol\":23719:23725  amount */\n      dup5\n        /* \"contracts/Token/Token.sol\":23704:23709  _burn */\n      tag_213\n        /* \"contracts/Token/Token.sol\":23704:23726  _burn(account, amount) */\n      jump\t// in\n    tag_231:\n        /* \"contracts/Token/Token.sol\":23737:23741  true */\n      0x01\n        /* \"contracts/Token/Token.sol\":23730:23741  return true */\n      swap2\n      pop\n      pop\n        /* \"contracts/Token/Token.sol\":23446:23745  function burnFrom(address account, uint256 amount) public virtual returns (bool) {... */\n      swap3\n      swap2\n      pop\n      pop\n      jump\t// out\n        /* \"contracts/Token/Token.sol\":12035:12103  function owner() public view returns (address) {... */\n    tag_114:\n        /* \"contracts/Token/Token.sol\":12073:12080  address */\n      0x00\n        /* \"contracts/Token/Token.sol\":12093:12099  _owner */\n      0x01\n      0x00\n      swap1\n      sload\n      swap1\n      0x0100\n      exp\n      swap1\n      div\n      0xffffffffffffffffffffffffffffffffffffffff\n      and\n        /* \"contracts/Token/Token.sol\":12086:12099  return _owner */\n      swap1\n      pop\n        /* \"contracts/Token/Token.sol\":12035:12103  function owner() public view returns (address) {... */\n      swap1\n      jump\t// out\n        /* \"contracts/Token/Token.sol\":24780:24912  function removeTransferBurnAddress(address _transferFeeAddress) public onlyOwner {... */\n    tag_117:\n        /* \"contracts/Token/Token.sol\":12222:12234  _msgSender() */\n      tag_234\n        /* \"contracts/Token/Token.sol\":12222:12232  _msgSender */\n      tag_165\n        /* \"contracts/Token/Token.sol\":12222:12234  _msgSender() */\n      jump\t// in\n    tag_234:\n        /* \"contracts/Token/Token.sol\":12212:12234  _owner == _msgSender() */\n      0xffffffffffffffffffffffffffffffffffffffff\n      and\n        /* \"contracts/Token/Token.sol\":12212:12218  _owner */\n      0x01\n      0x00\n      swap1\n      sload\n      swap1\n      0x0100\n      exp\n      swap1\n      div\n      0xffffffffffffffffffffffffffffffffffffffff\n      and\n        /* \"contracts/Token/Token.sol\":12212:12234  _owner == _msgSender() */\n      0xffffffffffffffffffffffffffffffffffffffff\n      and\n      eq\n        /* \"contracts/Token/Token.sol\":12204:12271  require(_owner == _msgSender(), \"Ownable: caller is not the owner\") */\n      tag_235\n      jumpi\n      mload(0x40)\n      0x08c379a000000000000000000000000000000000000000000000000000000000\n      dup2\n      mstore\n      0x04\n      add\n      dup1\n      dup1\n      0x20\n      add\n      dup3\n      dup2\n      sub\n      dup3\n      mstore\n      0x20\n      dup2\n      mstore\n      0x20\n      add\n      dup1\n      0x4f776e61626c653a2063616c6c6572206973206e6f7420746865206f776e6572\n      dup2\n      mstore\n      pop\n      0x20\n      add\n      swap2\n      pop\n      pop\n      mload(0x40)\n      dup1\n      swap2\n      sub\n      swap1\n      revert\n    tag_235:\n        /* \"contracts/Token/Token.sol\":24872:24887  _transactionFee */\n      0x10\n        /* \"contracts/Token/Token.sol\":24872:24908  _transactionFee[_transferFeeAddress] */\n      0x00\n        /* \"contracts/Token/Token.sol\":24888:24907  _transferFeeAddress */\n      dup3\n        /* \"contracts/Token/Token.sol\":24872:24908  _transactionFee[_transferFeeAddress] */\n      0xffffffffffffffffffffffffffffffffffffffff\n      and\n      0xffffffffffffffffffffffffffffffffffffffff\n      and\n      dup2\n      mstore\n      0x20\n      add\n      swap1\n      dup2\n      mstore\n      0x20\n      add\n      0x00\n      keccak256\n      0x00\n        /* \"contracts/Token/Token.sol\":24865:24908  delete _transactionFee[_transferFeeAddress] */\n      0x0100\n      exp\n      dup2\n      sload\n      swap1\n      0xff\n      mul\n      not\n      and\n      swap1\n      sstore\n        /* \"contracts/Token/Token.sol\":24780:24912  function removeTransferBurnAddress(address _transferFeeAddress) public onlyOwner {... */\n      pop\n      jump\t// out\n        /* \"contracts/Token/Token.sol\":24649:24777  function addTransferFeeAddress(address _transferFeeAddress) public onlyOwner {... */\n    tag_120:\n        /* \"contracts/Token/Token.sol\":12222:12234  _msgSender() */\n      tag_238\n        /* \"contracts/Token/Token.sol\":12222:12232  _msgSender */\n      tag_165\n        /* \"contracts/Token/Token.sol\":12222:12234  _msgSender() */\n      jump\t// in\n    tag_238:\n        /* \"contracts/Token/Token.sol\":12212:12234  _owner == _msgSender() */\n      0xffffffffffffffffffffffffffffffffffffffff\n      and\n        /* \"contracts/Token/Token.sol\":12212:12218  _owner */\n      0x01\n      0x00\n      swap1\n      sload\n      swap1\n      0x0100\n      exp\n      swap1\n      div\n      0xffffffffffffffffffffffffffffffffffffffff\n      and\n        /* \"contracts/Token/Token.sol\":12212:12234  _owner == _msgSender() */\n      0xffffffffffffffffffffffffffffffffffffffff\n      and\n      eq\n        /* \"contracts/Token/Token.sol\":12204:12271  require(_owner == _msgSender(), \"Ownable: caller is not the owner\") */\n      tag_239\n      jumpi\n      mload(0x40)\n      0x08c379a000000000000000000000000000000000000000000000000000000000\n      dup2\n      mstore\n      0x04\n      add\n      dup1\n      dup1\n      0x20\n      add\n      dup3\n      dup2\n      sub\n      dup3\n      mstore\n      0x20\n      dup2\n      mstore\n      0x20\n      add\n      dup1\n      0x4f776e61626c653a2063616c6c6572206973206e6f7420746865206f776e6572\n      dup2\n      mstore\n      pop\n      0x20\n      add\n      swap2\n      pop\n      pop\n      mload(0x40)\n      dup1\n      swap2\n      sub\n      swap1\n      revert\n    tag_239:\n        /* \"contracts/Token/Token.sol\":24769:24773  true */\n      0x01\n        /* \"contracts/Token/Token.sol\":24730:24745  _transactionFee */\n      0x10\n        /* \"contracts/Token/Token.sol\":24730:24766  _transactionFee[_transferFeeAddress] */\n      0x00\n        /* \"contracts/Token/Token.sol\":24746:24765  _transferFeeAddress */\n      dup4\n        /* \"contracts/Token/Token.sol\":24730:24766  _transactionFee[_transferFeeAddress] */\n      0xffffffffffffffffffffffffffffffffffffffff\n      and\n      0xffffffffffffffffffffffffffffffffffffffff\n      and\n      dup2\n      mstore\n      0x20\n      add\n      swap1\n      dup2\n      mstore\n      0x20\n      add\n      0x00\n      keccak256\n      0x00\n        /* \"contracts/Token/Token.sol\":24730:24773  _transactionFee[_transferFeeAddress] = true */\n      0x0100\n      exp\n      dup2\n      sload\n      dup2\n      0xff\n      mul\n      not\n      and\n      swap1\n      dup4\n      iszero\n      iszero\n      mul\n      or\n      swap1\n      sstore\n      pop\n        /* \"contracts/Token/Token.sol\":24649:24777  function addTransferFeeAddress(address _transferFeeAddress) public onlyOwner {... */\n      pop\n      jump\t// out\n        /* \"contracts/Token/Token.sol\":16237:16313  function symbol() public view returns (string memory) {... */\n    tag_122:\n        /* \"contracts/Token/Token.sol\":16276:16289  string memory */\n      0x60\n        /* \"contracts/Token/Token.sol\":16302:16309  _symbol */\n      0x0a\n        /* \"contracts/Token/Token.sol\":16295:16309  return _symbol */\n      dup1\n      sload\n      0x01\n      dup2\n      0x01\n      and\n      iszero\n      0x0100\n      mul\n      sub\n      and\n      0x02\n      swap1\n      div\n      dup1\n      0x1f\n      add\n      0x20\n      dup1\n      swap2\n      div\n      mul\n      0x20\n      add\n      mload(0x40)\n      swap1\n      dup2\n      add\n      0x40\n      mstore\n      dup1\n      swap3\n      swap2\n      swap1\n      dup2\n      dup2\n      mstore\n      0x20\n      add\n      dup3\n      dup1\n      sload\n      0x01\n      dup2\n      0x01\n      and\n      iszero\n      0x0100\n      mul\n      sub\n      and\n      0x02\n      swap1\n      div\n      dup1\n      iszero\n      tag_242\n      jumpi\n      dup1\n      0x1f\n      lt\n      tag_243\n      jumpi\n      0x0100\n      dup1\n      dup4\n      sload\n      div\n      mul\n      dup4\n      mstore\n      swap2\n      0x20\n      add\n      swap2\n      jump(tag_242)\n    tag_243:\n      dup3\n      add\n      swap2\n      swap1\n      0x00\n      mstore\n      keccak256(0x00, 0x20)\n      swap1\n    tag_244:\n      dup2\n      sload\n      dup2\n      mstore\n      swap1\n      0x01\n      add\n      swap1\n      0x20\n      add\n      dup1\n      dup4\n      gt\n      tag_244\n      jumpi\n      dup3\n      swap1\n      sub\n      0x1f\n      and\n      dup3\n      add\n      swap2\n    tag_242:\n      pop\n      pop\n      pop\n      pop\n      pop\n      swap1\n      pop\n        /* \"contracts/Token/Token.sol\":16237:16313  function symbol() public view returns (string memory) {... */\n      swap1\n      jump\t// out\n        /* \"contracts/Token/Token.sol\":16563:16669  function availableBalance(address account) public view returns (uint256) {... */\n    tag_129:\n        /* \"contracts/Token/Token.sol\":16627:16634  uint256 */\n      0x00\n        /* \"contracts/Token/Token.sol\":16647:16656  _balances */\n      0x05\n        /* \"contracts/Token/Token.sol\":16647:16665  _balances[account] */\n      0x00\n        /* \"contracts/Token/Token.sol\":16657:16664  account */\n      dup4\n        /* \"contracts/Token/Token.sol\":16647:16665  _balances[account] */\n      0xffffffffffffffffffffffffffffffffffffffff\n      and\n      0xffffffffffffffffffffffffffffffffffffffff\n      and\n      dup2\n      mstore\n      0x20\n      add\n      swap1\n      dup2\n      mstore\n      0x20\n      add\n      0x00\n      keccak256\n      sload\n        /* \"contracts/Token/Token.sol\":16640:16665  return _balances[account] */\n      swap1\n      pop\n        /* \"contracts/Token/Token.sol\":16563:16669  function availableBalance(address account) public view returns (uint256) {... */\n      swap2\n      swap1\n      pop\n      jump\t// out\n        /* \"contracts/Token/Token.sol\":17774:18025  function decreaseAllowance(address spender, uint256 subtractedValue) public virtual returns (bool) {... */\n    tag_132:\n        /* \"contracts/Token/Token.sol\":17867:17871  bool */\n      0x00\n        /* \"contracts/Token/Token.sol\":17877:18006  _approve(_msgSender(), spender, _allowances[_msgSender()][spender].sub(subtractedValue, \"ERC20: decreased allowance below zero\")) */\n      tag_247\n        /* \"contracts/Token/Token.sol\":17886:17898  _msgSender() */\n      tag_248\n        /* \"contracts/Token/Token.sol\":17886:17896  _msgSender */\n      tag_165\n        /* \"contracts/Token/Token.sol\":17886:17898  _msgSender() */\n      jump\t// in\n    tag_248:\n        /* \"contracts/Token/Token.sol\":17900:17907  spender */\n      dup5\n        /* \"contracts/Token/Token.sol\":17909:18005  _allowances[_msgSender()][spender].sub(subtractedValue, \"ERC20: decreased allowance below zero\") */\n      tag_249\n        /* \"contracts/Token/Token.sol\":17948:17963  subtractedValue */\n      dup6\n        /* \"contracts/Token/Token.sol\":17909:18005  _allowances[_msgSender()][spender].sub(subtractedValue, \"ERC20: decreased allowance below zero\") */\n      mload(0x40)\n      dup1\n      0x60\n      add\n      0x40\n      mstore\n      dup1\n      0x25\n      dup2\n      mstore\n      0x20\n      add\n      data_f8b476f7d28209d77d4a4ac1fe36b9f8259aa1bb6bddfa6e89de7e51615cf8a8\n      0x25\n      swap2\n      codecopy\n        /* \"contracts/Token/Token.sol\":17909:17920  _allowances */\n      0x06\n        /* \"contracts/Token/Token.sol\":17909:17934  _allowances[_msgSender()] */\n      0x00\n        /* \"contracts/Token/Token.sol\":17921:17933  _msgSender() */\n      tag_250\n        /* \"contracts/Token/Token.sol\":17921:17931  _msgSender */\n      tag_165\n        /* \"contracts/Token/Token.sol\":17921:17933  _msgSender() */\n      jump\t// in\n    tag_250:\n        /* \"contracts/Token/Token.sol\":17909:17934  _allowances[_msgSender()] */\n      0xffffffffffffffffffffffffffffffffffffffff\n      and\n      0xffffffffffffffffffffffffffffffffffffffff\n      and\n      dup2\n      mstore\n      0x20\n      add\n      swap1\n      dup2\n      mstore\n      0x20\n      add\n      0x00\n      keccak256\n        /* \"contracts/Token/Token.sol\":17909:17943  _allowances[_msgSender()][spender] */\n      0x00\n        /* \"contracts/Token/Token.sol\":17935:17942  spender */\n      dup11\n        /* \"contracts/Token/Token.sol\":17909:17943  _allowances[_msgSender()][spender] */\n      0xffffffffffffffffffffffffffffffffffffffff\n      and\n      0xffffffffffffffffffffffffffffffffffffffff\n      and\n      dup2\n      mstore\n      0x20\n      add\n      swap1\n      dup2\n      mstore\n      0x20\n      add\n      0x00\n      keccak256\n      sload\n        /* \"contracts/Token/Token.sol\":17909:17947  _allowances[_msgSender()][spender].sub */\n      tag_191\n      swap1\n        /* \"contracts/Token/Token.sol\":17909:18005  _allowances[_msgSender()][spender].sub(subtractedValue, \"ERC20: decreased allowance below zero\") */\n      swap3\n      swap2\n      swap1\n      0xffffffff\n      and\n      jump\t// in\n    tag_249:\n        /* \"contracts/Token/Token.sol\":17877:17885  _approve */\n      tag_166\n        /* \"contracts/Token/Token.sol\":17877:18006  _approve(_msgSender(), spender, _allowances[_msgSender()][spender].sub(subtractedValue, \"ERC20: decreased allowance below zero\")) */\n      jump\t// in\n    tag_247:\n        /* \"contracts/Token/Token.sol\":18017:18021  true */\n      0x01\n        /* \"contracts/Token/Token.sol\":18010:18021  return true */\n      swap1\n      pop\n        /* \"contracts/Token/Token.sol\":17774:18025  function decreaseAllowance(address spender, uint256 subtractedValue) public virtual returns (bool) {... */\n      swap3\n      swap2\n      pop\n      pop\n      jump\t// out\n        /* \"contracts/Token/Token.sol\":16815:16972  function transfer(address recipient, uint256 amount) public virtual override returns (bool) {... */\n    tag_135:\n        /* \"contracts/Token/Token.sol\":16901:16905  bool */\n      0x00\n        /* \"contracts/Token/Token.sol\":16911:16953  _transfer(_msgSender(), recipient, amount) */\n      tag_252\n        /* \"contracts/Token/Token.sol\":16921:16933  _msgSender() */\n      tag_253\n        /* \"contracts/Token/Token.sol\":16921:16931  _msgSender */\n      tag_165\n        /* \"contracts/Token/Token.sol\":16921:16933  _msgSender() */\n      jump\t// in\n    tag_253:\n        /* \"contracts/Token/Token.sol\":16935:16944  recipient */\n      dup5\n        /* \"contracts/Token/Token.sol\":16946:16952  amount */\n      dup5\n        /* \"contracts/Token/Token.sol\":16911:16920  _transfer */\n      tag_186\n        /* \"contracts/Token/Token.sol\":16911:16953  _transfer(_msgSender(), recipient, amount) */\n      jump\t// in\n    tag_252:\n        /* \"contracts/Token/Token.sol\":16964:16968  true */\n      0x01\n        /* \"contracts/Token/Token.sol\":16957:16968  return true */\n      swap1\n      pop\n        /* \"contracts/Token/Token.sol\":16815:16972  function transfer(address recipient, uint256 amount) public virtual override returns (bool) {... */\n      swap3\n      swap2\n      pop\n      pop\n      jump\t// out\n        /* \"contracts/Token/Token.sol\":23749:23907  function mintFrozenTokens(address account, uint256 amount) public onlyMelter returns (bool) {... */\n    tag_138:\n        /* \"contracts/Token/Token.sol\":23835:23839  bool */\n      0x00\n        /* \"contracts/Token/Token.sol\":14106:14110  true */\n      0x01\n        /* \"contracts/Token/Token.sol\":14082:14110  _melters[msg.sender] == true */\n      iszero\n      iszero\n        /* \"contracts/Token/Token.sol\":14082:14090  _melters */\n      0x02\n        /* \"contracts/Token/Token.sol\":14082:14102  _melters[msg.sender] */\n      0x00\n        /* \"contracts/Token/Token.sol\":14091:14101  msg.sender */\n      caller\n        /* \"contracts/Token/Token.sol\":14082:14102  _melters[msg.sender] */\n      0xffffffffffffffffffffffffffffffffffffffff\n      and\n      0xffffffffffffffffffffffffffffffffffffffff\n      and\n      dup2\n      mstore\n      0x20\n      add\n      swap1\n      dup2\n      mstore\n      0x20\n      add\n      0x00\n      keccak256\n      0x00\n      swap1\n      sload\n      swap1\n      0x0100\n      exp\n      swap1\n      div\n      0xff\n      and\n        /* \"contracts/Token/Token.sol\":14082:14110  _melters[msg.sender] == true */\n      iszero\n      iszero\n      eq\n        /* \"contracts/Token/Token.sol\":14073:14133  require (_melters[msg.sender] == true, \"can't perform melt\") */\n      tag_255\n      jumpi\n      mload(0x40)\n      0x08c379a000000000000000000000000000000000000000000000000000000000\n      dup2\n      mstore\n      0x04\n      add\n      dup1\n      dup1\n      0x20\n      add\n      dup3\n      dup2\n      sub\n      dup3\n      mstore\n      0x12\n      dup2\n      mstore\n      0x20\n      add\n      dup1\n      0x63616e277420706572666f726d206d656c740000000000000000000000000000\n      dup2\n      mstore\n      pop\n      0x20\n      add\n      swap2\n      pop\n      pop\n      mload(0x40)\n      dup1\n      swap2\n      sub\n      swap1\n      revert\n    tag_255:\n        /* \"contracts/Token/Token.sol\":23851:23879  _mintfrozen(account, amount) */\n      tag_257\n        /* \"contracts/Token/Token.sol\":23863:23870  account */\n      dup4\n        /* \"contracts/Token/Token.sol\":23872:23878  amount */\n      dup4\n        /* \"contracts/Token/Token.sol\":23851:23862  _mintfrozen */\n      tag_258\n        /* \"contracts/Token/Token.sol\":23851:23879  _mintfrozen(account, amount) */\n      jump\t// in\n    tag_257:\n        /* \"contracts/Token/Token.sol\":23896:23900  true */\n      0x01\n        /* \"contracts/Token/Token.sol\":23889:23900  return true */\n      swap1\n      pop\n        /* \"contracts/Token/Token.sol\":23749:23907  function mintFrozenTokens(address account, uint256 amount) public onlyMelter returns (bool) {... */\n      swap3\n      swap2\n      pop\n      pop\n      jump\t// out\n        /* \"contracts/Token/Token.sol\":22260:22283  address public _factory */\n    tag_140:\n      0x14\n      0x00\n      swap1\n      sload\n      swap1\n      0x0100\n      exp\n      swap1\n      div\n      0xffffffffffffffffffffffffffffffffffffffff\n      and\n      dup2\n      jump\t// out\n        /* \"contracts/Token/Token.sol\":25021:25121  function setTransferFeeRateBuy(uint256 _rate) public onlyOwner {... */\n    tag_143:\n        /* \"contracts/Token/Token.sol\":12222:12234  _msgSender() */\n      tag_260\n        /* \"contracts/Token/Token.sol\":12222:12232  _msgSender */\n      tag_165\n        /* \"contracts/Token/Token.sol\":12222:12234  _msgSender() */\n      jump\t// in\n    tag_260:\n        /* \"contracts/Token/Token.sol\":12212:12234  _owner == _msgSender() */\n      0xffffffffffffffffffffffffffffffffffffffff\n      and\n        /* \"contracts/Token/Token.sol\":12212:12218  _owner */\n      0x01\n      0x00\n      swap1\n      sload\n      swap1\n      0x0100\n      exp\n      swap1\n      div\n      0xffffffffffffffffffffffffffffffffffffffff\n      and\n        /* \"contracts/Token/Token.sol\":12212:12234  _owner == _msgSender() */\n      0xffffffffffffffffffffffffffffffffffffffff\n      and\n      eq\n        /* \"contracts/Token/Token.sol\":12204:12271  require(_owner == _msgSender(), \"Ownable: caller is not the owner\") */\n      tag_261\n      jumpi\n      mload(0x40)\n      0x08c379a000000000000000000000000000000000000000000000000000000000\n      dup2\n      mstore\n      0x04\n      add\n      dup1\n      dup1\n      0x20\n      add\n      dup3\n      dup2\n      sub\n      dup3\n      mstore\n      0x20\n      dup2\n      mstore\n      0x20\n      add\n      dup1\n      0x4f776e61626c653a2063616c6c6572206973206e6f7420746865206f776e6572\n      dup2\n      mstore\n      pop\n      0x20\n      add\n      swap2\n      pop\n      pop\n      mload(0x40)\n      dup1\n      swap2\n      sub\n      swap1\n      revert\n    tag_261:\n        /* \"contracts/Token/Token.sol\":25109:25114  _rate */\n      dup1\n        /* \"contracts/Token/Token.sol\":25088:25106  transferFeeRateBuy */\n      0x0e\n        /* \"contracts/Token/Token.sol\":25088:25114  transferFeeRateBuy = _rate */\n      dup2\n      swap1\n      sstore\n      pop\n        /* \"contracts/Token/Token.sol\":25021:25121  function setTransferFeeRateBuy(uint256 _rate) public onlyOwner {... */\n      pop\n      jump\t// out\n        /* \"contracts/Token/Token.sol\":16484:16560  function maxSupply() public view returns (uint256) {... */\n    tag_145:\n        /* \"contracts/Token/Token.sol\":16526:16533  uint256 */\n      0x00\n        /* \"contracts/Token/Token.sol\":16546:16556  _maxSupply */\n      sload(0x08)\n        /* \"contracts/Token/Token.sol\":16539:16556  return _maxSupply */\n      swap1\n      pop\n        /* \"contracts/Token/Token.sol\":16484:16560  function maxSupply() public view returns (uint256) {... */\n      swap1\n      jump\t// out\n        /* \"contracts/Token/Token.sol\":14596:14699  function addToMelters(address account) public onlyMelterAdmin {... */\n    tag_148:\n        /* \"contracts/Token/Token.sol\":13975:13987  _melteradmin */\n      0x03\n      0x00\n      swap1\n      sload\n      swap1\n      0x0100\n      exp\n      swap1\n      div\n      0xffffffffffffffffffffffffffffffffffffffff\n      and\n        /* \"contracts/Token/Token.sol\":13961:13987  msg.sender == _melteradmin */\n      0xffffffffffffffffffffffffffffffffffffffff\n      and\n        /* \"contracts/Token/Token.sol\":13961:13971  msg.sender */\n      caller\n        /* \"contracts/Token/Token.sol\":13961:13987  msg.sender == _melteradmin */\n      0xffffffffffffffffffffffffffffffffffffffff\n      and\n      eq\n        /* \"contracts/Token/Token.sol\":13952:14017  require (msg.sender == _melteradmin, \"caller not a melter admin\") */\n      tag_265\n      jumpi\n      mload(0x40)\n      0x08c379a000000000000000000000000000000000000000000000000000000000\n      dup2\n      mstore\n      0x04\n      add\n      dup1\n      dup1\n      0x20\n      add\n      dup3\n      dup2\n      sub\n      dup3\n      mstore\n      0x19\n      dup2\n      mstore\n      0x20\n      add\n      dup1\n      0x63616c6c6572206e6f742061206d656c7465722061646d696e00000000000000\n      dup2\n      mstore\n      pop\n      0x20\n      add\n      swap2\n      pop\n      pop\n      mload(0x40)\n      dup1\n      swap2\n      sub\n      swap1\n      revert\n    tag_265:\n        /* \"contracts/Token/Token.sol\":14688:14692  true */\n      0x01\n        /* \"contracts/Token/Token.sol\":14668:14676  _melters */\n      0x02\n        /* \"contracts/Token/Token.sol\":14668:14685  _melters[account] */\n      0x00\n        /* \"contracts/Token/Token.sol\":14677:14684  account */\n      dup4\n        /* \"contracts/Token/Token.sol\":14668:14685  _melters[account] */\n      0xffffffffffffffffffffffffffffffffffffffff\n      and\n      0xffffffffffffffffffffffffffffffffffffffff\n      and\n      dup2\n      mstore\n      0x20\n      add\n      swap1\n      dup2\n      mstore\n      0x20\n      add\n      0x00\n      keccak256\n      0x00\n        /* \"contracts/Token/Token.sol\":14668:14692  _melters[account] = true */\n      0x0100\n      exp\n      dup2\n      sload\n      dup2\n      0xff\n      mul\n      not\n      and\n      swap1\n      dup4\n      iszero\n      iszero\n      mul\n      or\n      swap1\n      sstore\n      pop\n        /* \"contracts/Token/Token.sol\":14596:14699  function addToMelters(address account) public onlyMelterAdmin {... */\n      pop\n      jump\t// out\n        /* \"contracts/Token/Token.sol\":16975:17115  function allowance(address owner, address spender) public view virtual override returns (uint256) {... */\n    tag_151:\n        /* \"contracts/Token/Token.sol\":17064:17071  uint256 */\n      0x00\n        /* \"contracts/Token/Token.sol\":17084:17095  _allowances */\n      0x06\n        /* \"contracts/Token/Token.sol\":17084:17102  _allowances[owner] */\n      0x00\n        /* \"contracts/Token/Token.sol\":17096:17101  owner */\n      dup5\n        /* \"contracts/Token/Token.sol\":17084:17102  _allowances[owner] */\n      0xffffffffffffffffffffffffffffffffffffffff\n      and\n      0xffffffffffffffffffffffffffffffffffffffff\n      and\n      dup2\n      mstore\n      0x20\n      add\n      swap1\n      dup2\n      mstore\n      0x20\n      add\n      0x00\n      keccak256\n        /* \"contracts/Token/Token.sol\":17084:17111  _allowances[owner][spender] */\n      0x00\n        /* \"contracts/Token/Token.sol\":17103:17110  spender */\n      dup4\n        /* \"contracts/Token/Token.sol\":17084:17111  _allowances[owner][spender] */\n      0xffffffffffffffffffffffffffffffffffffffff\n      and\n      0xffffffffffffffffffffffffffffffffffffffff\n      and\n      dup2\n      mstore\n      0x20\n      add\n      swap1\n      dup2\n      mstore\n      0x20\n      add\n      0x00\n      keccak256\n      sload\n        /* \"contracts/Token/Token.sol\":17077:17111  return _allowances[owner][spender] */\n      swap1\n      pop\n        /* \"contracts/Token/Token.sol\":16975:17115  function allowance(address owner, address spender) public view virtual override returns (uint256) {... */\n      swap3\n      swap2\n      pop\n      pop\n      jump\t// out\n        /* \"contracts/Token/Token.sol\":23911:24354  function transferFrozenToken(address from, address to, uint256 amount) public onlyMelter returns (bool) {... */\n    tag_154:\n        /* \"contracts/Token/Token.sol\":24009:24013  bool */\n      0x00\n        /* \"contracts/Token/Token.sol\":14106:14110  true */\n      0x01\n        /* \"contracts/Token/Token.sol\":14082:14110  _melters[msg.sender] == true */\n      iszero\n      iszero\n        /* \"contracts/Token/Token.sol\":14082:14090  _melters */\n      0x02\n        /* \"contracts/Token/Token.sol\":14082:14102  _melters[msg.sender] */\n      0x00\n        /* \"contracts/Token/Token.sol\":14091:14101  msg.sender */\n      caller\n        /* \"contracts/Token/Token.sol\":14082:14102  _melters[msg.sender] */\n      0xffffffffffffffffffffffffffffffffffffffff\n      and\n      0xffffffffffffffffffffffffffffffffffffffff\n      and\n      dup2\n      mstore\n      0x20\n      add\n      swap1\n      dup2\n      mstore\n      0x20\n      add\n      0x00\n      keccak256\n      0x00\n      swap1\n      sload\n      swap1\n      0x0100\n      exp\n      swap1\n      div\n      0xff\n      and\n        /* \"contracts/Token/Token.sol\":14082:14110  _melters[msg.sender] == true */\n      iszero\n      iszero\n      eq\n        /* \"contracts/Token/Token.sol\":14073:14133  require (_melters[msg.sender] == true, \"can't perform melt\") */\n      tag_269\n      jumpi\n      mload(0x40)\n      0x08c379a000000000000000000000000000000000000000000000000000000000\n      dup2\n      mstore\n      0x04\n      add\n      dup1\n      dup1\n      0x20\n      add\n      dup3\n      dup2\n      sub\n      dup3\n      mstore\n      0x12\n      dup2\n      mstore\n      0x20\n      add\n      dup1\n      0x63616e277420706572666f726d206d656c740000000000000000000000000000\n      dup2\n      mstore\n      pop\n      0x20\n      add\n      swap2\n      pop\n      pop\n      mload(0x40)\n      dup1\n      swap2\n      sub\n      swap1\n      revert\n    tag_269:\n        /* \"contracts/Token/Token.sol\":24049:24050  0 */\n      0x00\n        /* \"contracts/Token/Token.sol\":24033:24051  from != address(0) */\n      0xffffffffffffffffffffffffffffffffffffffff\n      and\n        /* \"contracts/Token/Token.sol\":24033:24037  from */\n      dup5\n        /* \"contracts/Token/Token.sol\":24033:24051  from != address(0) */\n      0xffffffffffffffffffffffffffffffffffffffff\n      and\n      eq\n      iszero\n        /* \"contracts/Token/Token.sol\":24025:24093  require(from != address(0), \"ERC20: transfer from the zero address\") */\n      tag_271\n      jumpi\n      mload(0x40)\n      0x08c379a000000000000000000000000000000000000000000000000000000000\n      dup2\n      mstore\n      0x04\n      add\n      dup1\n      dup1\n      0x20\n      add\n      dup3\n      dup2\n      sub\n      dup3\n      mstore\n      0x25\n      dup2\n      mstore\n      0x20\n      add\n      dup1\n      data_baecc556b46f4ed0f2b4cb599d60785ac8563dd2dc0a5bf12edea1c39e5e1fea\n      0x25\n      swap2\n      codecopy\n      0x40\n      add\n      swap2\n      pop\n      pop\n      mload(0x40)\n      dup1\n      swap2\n      sub\n      swap1\n      revert\n    tag_271:\n        /* \"contracts/Token/Token.sol\":24125:24126  0 */\n      0x00\n        /* \"contracts/Token/Token.sol\":24111:24127  to != address(0) */\n      0xffffffffffffffffffffffffffffffffffffffff\n      and\n        /* \"contracts/Token/Token.sol\":24111:24113  to */\n      dup4\n        /* \"contracts/Token/Token.sol\":24111:24127  to != address(0) */\n      0xffffffffffffffffffffffffffffffffffffffff\n      and\n      eq\n      iszero\n        /* \"contracts/Token/Token.sol\":24103:24167  require(to != address(0), \"ERC20: transfer to the zero address\") */\n      tag_272\n      jumpi\n      mload(0x40)\n      0x08c379a000000000000000000000000000000000000000000000000000000000\n      dup2\n      mstore\n      0x04\n      add\n      dup1\n      dup1\n      0x20\n      add\n      dup3\n      dup2\n      sub\n      dup3\n      mstore\n      0x23\n      dup2\n      mstore\n      0x20\n      add\n      dup1\n      data_0557e210f7a69a685100a7e4e3d0a7024c546085cee28910fd17d0b081d9516f\n      0x23\n      swap2\n      codecopy\n      0x40\n      add\n      swap2\n      pop\n      pop\n      mload(0x40)\n      dup1\n      swap2\n      sub\n      swap1\n      revert\n    tag_272:\n        /* \"contracts/Token/Token.sol\":24178:24203  _frozen_sub(from, amount) */\n      tag_273\n        /* \"contracts/Token/Token.sol\":24190:24194  from */\n      dup5\n        /* \"contracts/Token/Token.sol\":24196:24202  amount */\n      dup4\n        /* \"contracts/Token/Token.sol\":24178:24189  _frozen_sub */\n      tag_274\n        /* \"contracts/Token/Token.sol\":24178:24203  _frozen_sub(from, amount) */\n      jump\t// in\n    tag_273:\n      pop\n        /* \"contracts/Token/Token.sol\":24213:24236  _frozen_add(to, amount) */\n      tag_275\n        /* \"contracts/Token/Token.sol\":24225:24227  to */\n      dup4\n        /* \"contracts/Token/Token.sol\":24229:24235  amount */\n      dup4\n        /* \"contracts/Token/Token.sol\":24213:24224  _frozen_add */\n      tag_276\n        /* \"contracts/Token/Token.sol\":24213:24236  _frozen_add(to, amount) */\n      jump\t// in\n    tag_275:\n      pop\n        /* \"contracts/Token/Token.sol\":24273:24275  to */\n      dup3\n        /* \"contracts/Token/Token.sol\":24252:24284  FrozenTransfer(from, to, amount) */\n      0xffffffffffffffffffffffffffffffffffffffff\n      and\n        /* \"contracts/Token/Token.sol\":24267:24271  from */\n      dup5\n        /* \"contracts/Token/Token.sol\":24252:24284  FrozenTransfer(from, to, amount) */\n      0xffffffffffffffffffffffffffffffffffffffff\n      and\n      0x9958976925baa403abf86afa44976a9effff3e01931eafd0ea2689f40852fd59\n        /* \"contracts/Token/Token.sol\":24277:24283  amount */\n      dup5\n        /* \"contracts/Token/Token.sol\":24252:24284  FrozenTransfer(from, to, amount) */\n      mload(0x40)\n      dup1\n      dup3\n      dup2\n      mstore\n      0x20\n      add\n      swap2\n      pop\n      pop\n      mload(0x40)\n      dup1\n      swap2\n      sub\n      swap1\n      log3\n        /* \"contracts/Token/Token.sol\":24314:24316  to */\n      dup3\n        /* \"contracts/Token/Token.sol\":24299:24325  Transfer(from, to, amount) */\n      0xffffffffffffffffffffffffffffffffffffffff\n      and\n        /* \"contracts/Token/Token.sol\":24308:24312  from */\n      dup5\n        /* \"contracts/Token/Token.sol\":24299:24325  Transfer(from, to, amount) */\n      0xffffffffffffffffffffffffffffffffffffffff\n      and\n      0xddf252ad1be2c89b69c2b068fc378daa952ba7f163c4a11628f55a4df523b3ef\n        /* \"contracts/Token/Token.sol\":24318:24324  amount */\n      dup5\n        /* \"contracts/Token/Token.sol\":24299:24325  Transfer(from, to, amount) */\n      mload(0x40)\n      dup1\n      dup3\n      dup2\n      mstore\n      0x20\n      add\n      swap2\n      pop\n      pop\n      mload(0x40)\n      dup1\n      swap2\n      sub\n      swap1\n      log3\n        /* \"contracts/Token/Token.sol\":24343:24347  true */\n      0x01\n        /* \"contracts/Token/Token.sol\":24336:24347  return true */\n      swap1\n      pop\n        /* \"contracts/Token/Token.sol\":23911:24354  function transferFrozenToken(address from, address to, uint256 amount) public onlyMelter returns (bool) {... */\n      swap4\n      swap3\n      pop\n      pop\n      pop\n      jump\t// out\n        /* \"contracts/Token/Token.sol\":12862:13081  function transferOwnership(address newOwner) public virtual onlyOwner {... */\n    tag_157:\n        /* \"contracts/Token/Token.sol\":12222:12234  _msgSender() */\n      tag_278\n        /* \"contracts/Token/Token.sol\":12222:12232  _msgSender */\n      tag_165\n        /* \"contracts/Token/Token.sol\":12222:12234  _msgSender() */\n      jump\t// in\n    tag_278:\n        /* \"contracts/Token/Token.sol\":12212:12234  _owner == _msgSender() */\n      0xffffffffffffffffffffffffffffffffffffffff\n      and\n        /* \"contracts/Token/Token.sol\":12212:12218  _owner */\n      0x01\n      0x00\n      swap1\n      sload\n      swap1\n      0x0100\n      exp\n      swap1\n      div\n      0xffffffffffffffffffffffffffffffffffffffff\n      and\n        /* \"contracts/Token/Token.sol\":12212:12234  _owner == _msgSender() */\n      0xffffffffffffffffffffffffffffffffffffffff\n      and\n      eq\n        /* \"contracts/Token/Token.sol\":12204:12271  require(_owner == _msgSender(), \"Ownable: caller is not the owner\") */\n      tag_279\n      jumpi\n      mload(0x40)\n      0x08c379a000000000000000000000000000000000000000000000000000000000\n      dup2\n      mstore\n      0x04\n      add\n      dup1\n      dup1\n      0x20\n      add\n      dup3\n      dup2\n      sub\n      dup3\n      mstore\n      0x20\n      dup2\n      mstore\n      0x20\n      add\n      dup1\n      0x4f776e61626c653a2063616c6c6572206973206e6f7420746865206f776e6572\n      dup2\n      mstore\n      pop\n      0x20\n      add\n      swap2\n      pop\n      pop\n      mload(0x40)\n      dup1\n      swap2\n      sub\n      swap1\n      revert\n    tag_279:\n        /* \"contracts/Token/Token.sol\":12964:12965  0 */\n      0x00\n        /* \"contracts/Token/Token.sol\":12944:12966  newOwner != address(0) */\n      0xffffffffffffffffffffffffffffffffffffffff\n      and\n        /* \"contracts/Token/Token.sol\":12944:12952  newOwner */\n      dup2\n        /* \"contracts/Token/Token.sol\":12944:12966  newOwner != address(0) */\n      0xffffffffffffffffffffffffffffffffffffffff\n      and\n      eq\n      iszero\n        /* \"contracts/Token/Token.sol\":12936:13009  require(newOwner != address(0), \"Ownable: new owner is the zero address\") */\n      tag_281\n      jumpi\n      mload(0x40)\n      0x08c379a000000000000000000000000000000000000000000000000000000000\n      dup2\n      mstore\n      0x04\n      add\n      dup1\n      dup1\n      0x20\n      add\n      dup3\n      dup2\n      sub\n      dup3\n      mstore\n      0x26\n      dup2\n      mstore\n      0x20\n      add\n      dup1\n      data_245f15ff17f551913a7a18385165551503906a406f905ac1c2437281a7cd0cfe\n      0x26\n      swap2\n      codecopy\n      0x40\n      add\n      swap2\n      pop\n      pop\n      mload(0x40)\n      dup1\n      swap2\n      sub\n      swap1\n      revert\n    tag_281:\n        /* \"contracts/Token/Token.sol\":13047:13055  newOwner */\n      dup1\n        /* \"contracts/Token/Token.sol\":13018:13056  OwnershipTransferred(_owner, newOwner) */\n      0xffffffffffffffffffffffffffffffffffffffff\n      and\n        /* \"contracts/Token/Token.sol\":13039:13045  _owner */\n      0x01\n      0x00\n      swap1\n      sload\n      swap1\n      0x0100\n      exp\n      swap1\n      div\n      0xffffffffffffffffffffffffffffffffffffffff\n      and\n        /* \"contracts/Token/Token.sol\":13018:13056  OwnershipTransferred(_owner, newOwner) */\n      0xffffffffffffffffffffffffffffffffffffffff\n      and\n      0x8be0079c531659141344cd1fd0a4f28419497f9722a3daafe3b4186f6b6457e0\n      mload(0x40)\n      mload(0x40)\n      dup1\n      swap2\n      sub\n      swap1\n      log3\n        /* \"contracts/Token/Token.sol\":13069:13077  newOwner */\n      dup1\n        /* \"contracts/Token/Token.sol\":13060:13066  _owner */\n      0x01\n      0x00\n        /* \"contracts/Token/Token.sol\":13060:13077  _owner = newOwner */\n      0x0100\n      exp\n      dup2\n      sload\n      dup2\n      0xffffffffffffffffffffffffffffffffffffffff\n      mul\n      not\n      and\n      swap1\n      dup4\n      0xffffffffffffffffffffffffffffffffffffffff\n      and\n      mul\n      or\n      swap1\n      sstore\n      pop\n        /* \"contracts/Token/Token.sol\":12862:13081  function transferOwnership(address newOwner) public virtual onlyOwner {... */\n      pop\n      jump\t// out\n        /* \"contracts/Token/Token.sol\":833:928  function _msgSender() internal view virtual returns (address payable) {... */\n    tag_165:\n        /* \"contracts/Token/Token.sol\":886:901  address payable */\n      0x00\n        /* \"contracts/Token/Token.sol\":914:924  msg.sender */\n      caller\n        /* \"contracts/Token/Token.sol\":907:924  return msg.sender */\n      swap1\n      pop\n        /* \"contracts/Token/Token.sol\":833:928  function _msgSender() internal view virtual returns (address payable) {... */\n      swap1\n      jump\t// out\n        /* \"contracts/Token/Token.sol\":19242:19555  function _approve(address owner, address spender, uint256 amount) internal virtual {... */\n    tag_166:\n        /* \"contracts/Token/Token.sol\":19354:19355  0 */\n      0x00\n        /* \"contracts/Token/Token.sol\":19337:19356  owner != address(0) */\n      0xffffffffffffffffffffffffffffffffffffffff\n      and\n        /* \"contracts/Token/Token.sol\":19337:19342  owner */\n      dup4\n        /* \"contracts/Token/Token.sol\":19337:19356  owner != address(0) */\n      0xffffffffffffffffffffffffffffffffffffffff\n      and\n      eq\n      iszero\n        /* \"contracts/Token/Token.sol\":19329:19397  require(owner != address(0), \"ERC20: approve from the zero address\") */\n      tag_284\n      jumpi\n      mload(0x40)\n      0x08c379a000000000000000000000000000000000000000000000000000000000\n      dup2\n      mstore\n      0x04\n      add\n      dup1\n      dup1\n      0x20\n      add\n      dup3\n      dup2\n      sub\n      dup3\n      mstore\n      0x24\n      dup2\n      mstore\n      0x20\n      add\n      dup1\n      data_c953f4879035ed60e766b34720f656aab5c697b141d924c283124ecedb91c208\n      0x24\n      swap2\n      codecopy\n      0x40\n      add\n      swap2\n      pop\n      pop\n      mload(0x40)\n      dup1\n      swap2\n      sub\n      swap1\n      revert\n    tag_284:\n        /* \"contracts/Token/Token.sol\":19428:19429  0 */\n      0x00\n        /* \"contracts/Token/Token.sol\":19409:19430  spender != address(0) */\n      0xffffffffffffffffffffffffffffffffffffffff\n      and\n        /* \"contracts/Token/Token.sol\":19409:19416  spender */\n      dup3\n        /* \"contracts/Token/Token.sol\":19409:19430  spender != address(0) */\n      0xffffffffffffffffffffffffffffffffffffffff\n      and\n      eq\n      iszero\n        /* \"contracts/Token/Token.sol\":19401:19469  require(spender != address(0), \"ERC20: approve to the zero address\") */\n      tag_285\n      jumpi\n      mload(0x40)\n      0x08c379a000000000000000000000000000000000000000000000000000000000\n      dup2\n      mstore\n      0x04\n      add\n      dup1\n      dup1\n      0x20\n      add\n      dup3\n      dup2\n      sub\n      dup3\n      mstore\n      0x22\n      dup2\n      mstore\n      0x20\n      add\n      dup1\n      data_24883cc5fe64ace9d0df1893501ecb93c77180f0ff69cca79affb3c316dc8029\n      0x22\n      swap2\n      codecopy\n      0x40\n      add\n      swap2\n      pop\n      pop\n      mload(0x40)\n      dup1\n      swap2\n      sub\n      swap1\n      revert\n    tag_285:\n        /* \"contracts/Token/Token.sol\":19504:19510  amount */\n      dup1\n        /* \"contracts/Token/Token.sol\":19474:19485  _allowances */\n      0x06\n        /* \"contracts/Token/Token.sol\":19474:19492  _allowances[owner] */\n      0x00\n        /* \"contracts/Token/Token.sol\":19486:19491  owner */\n      dup6\n        /* \"contracts/Token/Token.sol\":19474:19492  _allowances[owner] */\n      0xffffffffffffffffffffffffffffffffffffffff\n      and\n      0xffffffffffffffffffffffffffffffffffffffff\n      and\n      dup2\n      mstore\n      0x20\n      add\n      swap1\n      dup2\n      mstore\n      0x20\n      add\n      0x00\n      keccak256\n        /* \"contracts/Token/Token.sol\":19474:19501  _allowances[owner][spender] */\n      0x00\n        /* \"contracts/Token/Token.sol\":19493:19500  spender */\n      dup5\n        /* \"contracts/Token/Token.sol\":19474:19501  _allowances[owner][spender] */\n      0xffffffffffffffffffffffffffffffffffffffff\n      and\n      0xffffffffffffffffffffffffffffffffffffffff\n      and\n      dup2\n      mstore\n      0x20\n      add\n      swap1\n      dup2\n      mstore\n      0x20\n      add\n      0x00\n      keccak256\n        /* \"contracts/Token/Token.sol\":19474:19510  _allowances[owner][spender] = amount */\n      dup2\n      swap1\n      sstore\n      pop\n        /* \"contracts/Token/Token.sol\":19535:19542  spender */\n      dup2\n        /* \"contracts/Token/Token.sol\":19519:19551  Approval(owner, spender, amount) */\n      0xffffffffffffffffffffffffffffffffffffffff\n      and\n        /* \"contracts/Token/Token.sol\":19528:19533  owner */\n      dup4\n        /* \"contracts/Token/Token.sol\":19519:19551  Approval(owner, spender, amount) */\n      0xffffffffffffffffffffffffffffffffffffffff\n      and\n      0x8c5be1e5ebec7d5bd14f71427d1e84f3dd0314c0f7b2291e5b200ac8c7c3b925\n        /* \"contracts/Token/Token.sol\":19544:19550  amount */\n      dup4\n        /* \"contracts/Token/Token.sol\":19519:19551  Approval(owner, spender, amount) */\n      mload(0x40)\n      dup1\n      dup3\n      dup2\n      mstore\n      0x20\n      add\n      swap2\n      pop\n      pop\n      mload(0x40)\n      dup1\n      swap2\n      sub\n      swap1\n      log3\n        /* \"contracts/Token/Token.sol\":19242:19555  function _approve(address owner, address spender, uint256 amount) internal virtual {... */\n      pop\n      pop\n      pop\n      jump\t// out\n        /* \"contracts/Token/Token.sol\":20423:20960  function _melt(address account, uint256 amount) internal {... */\n    tag_171:\n        /* \"contracts/Token/Token.sol\":20517:20518  0 */\n      0x00\n        /* \"contracts/Token/Token.sol\":20498:20519  account != address(0) */\n      0xffffffffffffffffffffffffffffffffffffffff\n      and\n        /* \"contracts/Token/Token.sol\":20498:20505  account */\n      dup3\n        /* \"contracts/Token/Token.sol\":20498:20519  account != address(0) */\n      0xffffffffffffffffffffffffffffffffffffffff\n      and\n      eq\n      iszero\n        /* \"contracts/Token/Token.sol\":20490:20557  require(account != address(0), \"ERC20: melt from the zero address\") */\n      tag_287\n      jumpi\n      mload(0x40)\n      0x08c379a000000000000000000000000000000000000000000000000000000000\n      dup2\n      mstore\n      0x04\n      add\n      dup1\n      dup1\n      0x20\n      add\n      dup3\n      dup2\n      sub\n      dup3\n      mstore\n      0x21\n      dup2\n      mstore\n      0x20\n      add\n      dup1\n      data_ae19d5a04ea56a14e1c0edb4dc7bdb92df00299e61ae2aaa6c13d35ea071495b\n      0x21\n      swap2\n      codecopy\n      0x40\n      add\n      swap2\n      pop\n      pop\n      mload(0x40)\n      dup1\n      swap2\n      sub\n      swap1\n      revert\n    tag_287:\n        /* \"contracts/Token/Token.sol\":20584:20585  0 */\n      0x00\n        /* \"contracts/Token/Token.sol\":20575:20581  amount */\n      dup2\n        /* \"contracts/Token/Token.sol\":20575:20585  amount > 0 */\n      gt\n        /* \"contracts/Token/Token.sol\":20567:20639  require(amount > 0, \"ERC20: melt from the address: value should be > 0\") */\n      tag_288\n      jumpi\n      mload(0x40)\n      0x08c379a000000000000000000000000000000000000000000000000000000000\n      dup2\n      mstore\n      0x04\n      add\n      dup1\n      dup1\n      0x20\n      add\n      dup3\n      dup2\n      sub\n      dup3\n      mstore\n      0x31\n      dup2\n      mstore\n      0x20\n      add\n      dup1\n      data_5b7675e6fbaaaa420cafac78b556823238257a970a02bf57ab4957860eac80bc\n      0x31\n      swap2\n      codecopy\n      0x40\n      add\n      swap2\n      pop\n      pop\n      mload(0x40)\n      dup1\n      swap2\n      sub\n      swap1\n      revert\n    tag_288:\n        /* \"contracts/Token/Token.sol\":20687:20693  amount */\n      dup1\n        /* \"contracts/Token/Token.sol\":20657:20683  _frozen_balanceOf(account) */\n      tag_289\n        /* \"contracts/Token/Token.sol\":20675:20682  account */\n      dup4\n        /* \"contracts/Token/Token.sol\":20657:20674  _frozen_balanceOf */\n      tag_220\n        /* \"contracts/Token/Token.sol\":20657:20683  _frozen_balanceOf(account) */\n      jump\t// in\n    tag_289:\n        /* \"contracts/Token/Token.sol\":20657:20693  _frozen_balanceOf(account) >= amount */\n      lt\n      iszero\n        /* \"contracts/Token/Token.sol\":20649:20744  require(_frozen_balanceOf(account) >= amount, \"ERC20: melt from the address: balance < amount\") */\n      tag_290\n      jumpi\n      mload(0x40)\n      0x08c379a000000000000000000000000000000000000000000000000000000000\n      dup2\n      mstore\n      0x04\n      add\n      dup1\n      dup1\n      0x20\n      add\n      dup3\n      dup2\n      sub\n      dup3\n      mstore\n      0x2e\n      dup2\n      mstore\n      0x20\n      add\n      dup1\n      data_083eca151a4ced7bf5544a897b9e8b3e2620a9b6dc6feb44e1e78751a86936c5\n      0x2e\n      swap2\n      codecopy\n      0x40\n      add\n      swap2\n      pop\n      pop\n      mload(0x40)\n      dup1\n      swap2\n      sub\n      swap1\n      revert\n    tag_290:\n        /* \"contracts/Token/Token.sol\":20755:20783  _frozen_sub(account, amount) */\n      tag_291\n        /* \"contracts/Token/Token.sol\":20767:20774  account */\n      dup3\n        /* \"contracts/Token/Token.sol\":20776:20782  amount */\n      dup3\n        /* \"contracts/Token/Token.sol\":20755:20766  _frozen_sub */\n      tag_274\n        /* \"contracts/Token/Token.sol\":20755:20783  _frozen_sub(account, amount) */\n      jump\t// in\n    tag_291:\n      pop\n        /* \"contracts/Token/Token.sol\":20809:20816  account */\n      dup2\n        /* \"contracts/Token/Token.sol\":20798:20825  MeltFrozen(account, amount) */\n      0xffffffffffffffffffffffffffffffffffffffff\n      and\n      0x36a0b989202af25b5d49a593a1dd43461453ef93a93a7846ea3dbb487e119800\n        /* \"contracts/Token/Token.sol\":20818:20824  amount */\n      dup3\n        /* \"contracts/Token/Token.sol\":20798:20825  MeltFrozen(account, amount) */\n      mload(0x40)\n      dup1\n      dup3\n      dup2\n      mstore\n      0x20\n      add\n      swap2\n      pop\n      pop\n      mload(0x40)\n      dup1\n      swap2\n      sub\n      swap1\n      log2\n        /* \"contracts/Token/Token.sol\":20865:20895  _balances[account].add(amount) */\n      tag_292\n        /* \"contracts/Token/Token.sol\":20888:20894  amount */\n      dup2\n        /* \"contracts/Token/Token.sol\":20865:20874  _balances */\n      0x05\n        /* \"contracts/Token/Token.sol\":20865:20883  _balances[account] */\n      0x00\n        /* \"contracts/Token/Token.sol\":20875:20882  account */\n      dup6\n        /* \"contracts/Token/Token.sol\":20865:20883  _balances[account] */\n      0xffffffffffffffffffffffffffffffffffffffff\n      and\n      0xffffffffffffffffffffffffffffffffffffffff\n      and\n      dup2\n      mstore\n      0x20\n      add\n      swap1\n      dup2\n      mstore\n      0x20\n      add\n      0x00\n      keccak256\n      sload\n        /* \"contracts/Token/Token.sol\":20865:20887  _balances[account].add */\n      tag_203\n      swap1\n        /* \"contracts/Token/Token.sol\":20865:20895  _balances[account].add(amount) */\n      swap2\n      swap1\n      0xffffffff\n      and\n      jump\t// in\n    tag_292:\n        /* \"contracts/Token/Token.sol\":20844:20853  _balances */\n      0x05\n        /* \"contracts/Token/Token.sol\":20844:20862  _balances[account] */\n      0x00\n        /* \"contracts/Token/Token.sol\":20854:20861  account */\n      dup5\n        /* \"contracts/Token/Token.sol\":20844:20862  _balances[account] */\n      0xffffffffffffffffffffffffffffffffffffffff\n      and\n      0xffffffffffffffffffffffffffffffffffffffff\n      and\n      dup2\n      mstore\n      0x20\n      add\n      swap1\n      dup2\n      mstore\n      0x20\n      add\n      0x00\n      keccak256\n        /* \"contracts/Token/Token.sol\":20844:20895  _balances[account] = _balances[account].add(amount) */\n      dup2\n      swap1\n      sstore\n      pop\n        /* \"contracts/Token/Token.sol\":20423:20960  function _melt(address account, uint256 amount) internal {... */\n      pop\n      pop\n      jump\t// out\n        /* \"contracts/Token/Token.sol\":20970:21268  function _burnFrozen(address account, uint256 amount) internal {... */\n    tag_176:\n        /* \"contracts/Token/Token.sol\":21070:21071  0 */\n      0x00\n        /* \"contracts/Token/Token.sol\":21051:21072  account != address(0) */\n      0xffffffffffffffffffffffffffffffffffffffff\n      and\n        /* \"contracts/Token/Token.sol\":21051:21058  account */\n      dup3\n        /* \"contracts/Token/Token.sol\":21051:21072  account != address(0) */\n      0xffffffffffffffffffffffffffffffffffffffff\n      and\n      eq\n      iszero\n        /* \"contracts/Token/Token.sol\":21043:21117  require(account != address(0), \"ERC20: frozen burn from the zero address\") */\n      tag_294\n      jumpi\n      mload(0x40)\n      0x08c379a000000000000000000000000000000000000000000000000000000000\n      dup2\n      mstore\n      0x04\n      add\n      dup1\n      dup1\n      0x20\n      add\n      dup3\n      dup2\n      sub\n      dup3\n      mstore\n      0x28\n      dup2\n      mstore\n      0x20\n      add\n      dup1\n      data_b7b21078a467b814181da2d09cb3afdeca16ec86fc8c1496bf091b24158c0663\n      0x28\n      swap2\n      codecopy\n      0x40\n      add\n      swap2\n      pop\n      pop\n      mload(0x40)\n      dup1\n      swap2\n      sub\n      swap1\n      revert\n    tag_294:\n        /* \"contracts/Token/Token.sol\":21143:21167  _totalSupply.sub(amount) */\n      tag_295\n        /* \"contracts/Token/Token.sol\":21160:21166  amount */\n      dup2\n        /* \"contracts/Token/Token.sol\":21143:21155  _totalSupply */\n      sload(0x07)\n        /* \"contracts/Token/Token.sol\":21143:21159  _totalSupply.sub */\n      tag_296\n      swap1\n        /* \"contracts/Token/Token.sol\":21143:21167  _totalSupply.sub(amount) */\n      swap2\n      swap1\n      0xffffffff\n      and\n      jump\t// in\n    tag_295:\n        /* \"contracts/Token/Token.sol\":21128:21140  _totalSupply */\n      0x07\n        /* \"contracts/Token/Token.sol\":21128:21167  _totalSupply = _totalSupply.sub(amount) */\n      dup2\n      swap1\n      sstore\n      pop\n        /* \"contracts/Token/Token.sol\":21177:21205  _frozen_sub(account, amount) */\n      tag_297\n        /* \"contracts/Token/Token.sol\":21189:21196  account */\n      dup3\n        /* \"contracts/Token/Token.sol\":21198:21204  amount */\n      dup3\n        /* \"contracts/Token/Token.sol\":21177:21188  _frozen_sub */\n      tag_274\n        /* \"contracts/Token/Token.sol\":21177:21205  _frozen_sub(account, amount) */\n      jump\t// in\n    tag_297:\n      pop\n        /* \"contracts/Token/Token.sol\":21247:21251  this */\n      address\n        /* \"contracts/Token/Token.sol\":21221:21261  Transfer(account, address(this), amount) */\n      0xffffffffffffffffffffffffffffffffffffffff\n      and\n        /* \"contracts/Token/Token.sol\":21230:21237  account */\n      dup3\n        /* \"contracts/Token/Token.sol\":21221:21261  Transfer(account, address(this), amount) */\n      0xffffffffffffffffffffffffffffffffffffffff\n      and\n      0xddf252ad1be2c89b69c2b068fc378daa952ba7f163c4a11628f55a4df523b3ef\n        /* \"contracts/Token/Token.sol\":21254:21260  amount */\n      dup4\n        /* \"contracts/Token/Token.sol\":21221:21261  Transfer(account, address(this), amount) */\n      mload(0x40)\n      dup1\n      dup3\n      dup2\n      mstore\n      0x20\n      add\n      swap2\n      pop\n      pop\n      mload(0x40)\n      dup1\n      swap2\n      sub\n      swap1\n      log3\n        /* \"contracts/Token/Token.sol\":20970:21268  function _burnFrozen(address account, uint256 amount) internal {... */\n      pop\n      pop\n      jump\t// out\n        /* \"contracts/Token/Token.sol\":22680:23145  function _transfer(address sender, address recipient, uint256 amount) internal virtual override {... */\n    tag_186:\n        /* \"contracts/Token/Token.sol\":22808:22809  0 */\n      0x00\n        /* \"contracts/Token/Token.sol\":22787:22805  transferFeeRateBuy */\n      sload(0x0e)\n        /* \"contracts/Token/Token.sol\":22787:22809  transferFeeRateBuy > 0 */\n      gt\n        /* \"contracts/Token/Token.sol\":22787:22847  transferFeeRateBuy > 0 && _transactionFee[recipient] == true */\n      dup1\n      iszero\n      tag_299\n      jumpi\n      pop\n        /* \"contracts/Token/Token.sol\":22843:22847  true */\n      0x01\n        /* \"contracts/Token/Token.sol\":22813:22847  _transactionFee[recipient] == true */\n      iszero\n      iszero\n        /* \"contracts/Token/Token.sol\":22813:22828  _transactionFee */\n      0x10\n        /* \"contracts/Token/Token.sol\":22813:22839  _transactionFee[recipient] */\n      0x00\n        /* \"contracts/Token/Token.sol\":22829:22838  recipient */\n      dup5\n        /* \"contracts/Token/Token.sol\":22813:22839  _transactionFee[recipient] */\n      0xffffffffffffffffffffffffffffffffffffffff\n      and\n      0xffffffffffffffffffffffffffffffffffffffff\n      and\n      dup2\n      mstore\n      0x20\n      add\n      swap1\n      dup2\n      mstore\n      0x20\n      add\n      0x00\n      keccak256\n      0x00\n      swap1\n      sload\n      swap1\n      0x0100\n      exp\n      swap1\n      div\n      0xff\n      and\n        /* \"contracts/Token/Token.sol\":22813:22847  _transactionFee[recipient] == true */\n      iszero\n      iszero\n      eq\n        /* \"contracts/Token/Token.sol\":22787:22847  transferFeeRateBuy > 0 && _transactionFee[recipient] == true */\n    tag_299:\n        /* \"contracts/Token/Token.sol\":22787:22874  transferFeeRateBuy > 0 && _transactionFee[recipient] == true && recipient != address(0) */\n      dup1\n      iszero\n      tag_300\n      jumpi\n      pop\n        /* \"contracts/Token/Token.sol\":22872:22873  0 */\n      0x00\n        /* \"contracts/Token/Token.sol\":22851:22874  recipient != address(0) */\n      0xffffffffffffffffffffffffffffffffffffffff\n      and\n        /* \"contracts/Token/Token.sol\":22851:22860  recipient */\n      dup3\n        /* \"contracts/Token/Token.sol\":22851:22874  recipient != address(0) */\n      0xffffffffffffffffffffffffffffffffffffffff\n      and\n      eq\n      iszero\n        /* \"contracts/Token/Token.sol\":22787:22874  transferFeeRateBuy > 0 && _transactionFee[recipient] == true && recipient != address(0) */\n    tag_300:\n        /* \"contracts/Token/Token.sol\":22787:22911  transferFeeRateBuy > 0 && _transactionFee[recipient] == true && recipient != address(0) && _developmentAddress != address(0) */\n      dup1\n      iszero\n      tag_301\n      jumpi\n      pop\n        /* \"contracts/Token/Token.sol\":22909:22910  0 */\n      0x00\n        /* \"contracts/Token/Token.sol\":22878:22911  _developmentAddress != address(0) */\n      0xffffffffffffffffffffffffffffffffffffffff\n      and\n        /* \"contracts/Token/Token.sol\":22878:22897  _developmentAddress */\n      0x0b\n      0x01\n      swap1\n      sload\n      swap1\n      0x0100\n      exp\n      swap1\n      div\n      0xffffffffffffffffffffffffffffffffffffffff\n      and\n        /* \"contracts/Token/Token.sol\":22878:22911  _developmentAddress != address(0) */\n      0xffffffffffffffffffffffffffffffffffffffff\n      and\n      eq\n      iszero\n        /* \"contracts/Token/Token.sol\":22787:22911  transferFeeRateBuy > 0 && _transactionFee[recipient] == true && recipient != address(0) && _developmentAddress != address(0) */\n    tag_301:\n        /* \"contracts/Token/Token.sol\":22783:23095  if (transferFeeRateBuy > 0 && _transactionFee[recipient] == true && recipient != address(0) && _developmentAddress != address(0)) {... */\n      iszero\n      tag_302\n      jumpi\n        /* \"contracts/Token/Token.sol\":22918:22936  uint256 _feeamount */\n      0x00\n        /* \"contracts/Token/Token.sol\":22939:22978  amount.mul(transferFeeRateBuy).div(100) */\n      tag_303\n        /* \"contracts/Token/Token.sol\":22974:22977  100 */\n      0x64\n        /* \"contracts/Token/Token.sol\":22939:22969  amount.mul(transferFeeRateBuy) */\n      tag_304\n        /* \"contracts/Token/Token.sol\":22950:22968  transferFeeRateBuy */\n      sload(0x0e)\n        /* \"contracts/Token/Token.sol\":22939:22945  amount */\n      dup6\n        /* \"contracts/Token/Token.sol\":22939:22949  amount.mul */\n      tag_305\n      swap1\n        /* \"contracts/Token/Token.sol\":22939:22969  amount.mul(transferFeeRateBuy) */\n      swap2\n      swap1\n      0xffffffff\n      and\n      jump\t// in\n    tag_304:\n        /* \"contracts/Token/Token.sol\":22939:22973  amount.mul(transferFeeRateBuy).div */\n      tag_306\n      swap1\n        /* \"contracts/Token/Token.sol\":22939:22978  amount.mul(transferFeeRateBuy).div(100) */\n      swap2\n      swap1\n      0xffffffff\n      and\n      jump\t// in\n    tag_303:\n        /* \"contracts/Token/Token.sol\":22918:22978  uint256 _feeamount = amount.mul(transferFeeRateBuy).div(100) */\n      swap1\n      pop\n        /* \"contracts/Token/Token.sol\":22983:23039  super._transfer(sender, _developmentAddress, _feeamount) */\n      tag_307\n        /* \"contracts/Token/Token.sol\":22999:23005  sender */\n      dup5\n        /* \"contracts/Token/Token.sol\":23007:23026  _developmentAddress */\n      0x0b\n      0x01\n      swap1\n      sload\n      swap1\n      0x0100\n      exp\n      swap1\n      div\n      0xffffffffffffffffffffffffffffffffffffffff\n      and\n        /* \"contracts/Token/Token.sol\":23028:23038  _feeamount */\n      dup4\n        /* \"contracts/Token/Token.sol\":22983:22998  super._transfer */\n      tag_308\n        /* \"contracts/Token/Token.sol\":22983:23039  super._transfer(sender, _developmentAddress, _feeamount) */\n      jump\t// in\n    tag_307:\n        /* \"contracts/Token/Token.sol\":23068:23090  amount.sub(_feeamount) */\n      tag_309\n        /* \"contracts/Token/Token.sol\":23079:23089  _feeamount */\n      dup2\n        /* \"contracts/Token/Token.sol\":23068:23074  amount */\n      dup4\n        /* \"contracts/Token/Token.sol\":23068:23078  amount.sub */\n      tag_296\n      swap1\n        /* \"contracts/Token/Token.sol\":23068:23090  amount.sub(_feeamount) */\n      swap2\n      swap1\n      0xffffffff\n      and\n      jump\t// in\n    tag_309:\n        /* \"contracts/Token/Token.sol\":23059:23090  amount = amount.sub(_feeamount) */\n      swap2\n      pop\n        /* \"contracts/Token/Token.sol\":22783:23095  if (transferFeeRateBuy > 0 && _transactionFee[recipient] == true && recipient != address(0) && _developmentAddress != address(0)) {... */\n      pop\n    tag_302:\n        /* \"contracts/Token/Token.sol\":23099:23141  super._transfer(sender, recipient, amount) */\n      tag_310\n        /* \"contracts/Token/Token.sol\":23115:23121  sender */\n      dup4\n        /* \"contracts/Token/Token.sol\":23123:23132  recipient */\n      dup4\n        /* \"contracts/Token/Token.sol\":23134:23140  amount */\n      dup4\n        /* \"contracts/Token/Token.sol\":23099:23114  super._transfer */\n      tag_308\n        /* \"contracts/Token/Token.sol\":23099:23141  super._transfer(sender, recipient, amount) */\n      jump\t// in\n    tag_310:\n        /* \"contracts/Token/Token.sol\":22680:23145  function _transfer(address sender, address recipient, uint256 amount) internal virtual override {... */\n      pop\n      pop\n      pop\n      jump\t// out\n        /* \"contracts/Token/Token.sol\":3025:3190  function sub(uint256 a, uint256 b, string memory errorMessage) internal pure returns (uint256) {... */\n    tag_191:\n        /* \"contracts/Token/Token.sol\":3111:3118  uint256 */\n      0x00\n        /* \"contracts/Token/Token.sol\":3137:3138  a */\n      dup4\n        /* \"contracts/Token/Token.sol\":3132:3133  b */\n      dup4\n        /* \"contracts/Token/Token.sol\":3132:3138  b <= a */\n      gt\n      iszero\n        /* \"contracts/Token/Token.sol\":3140:3152  errorMessage */\n      dup3\n        /* \"contracts/Token/Token.sol\":3124:3153  require(b <= a, errorMessage) */\n      swap1\n      tag_312\n      jumpi\n      mload(0x40)\n      0x08c379a000000000000000000000000000000000000000000000000000000000\n      dup2\n      mstore\n      0x04\n      add\n      dup1\n      dup1\n      0x20\n      add\n      dup3\n      dup2\n      sub\n      dup3\n      mstore\n      dup4\n      dup2\n      dup2\n      mload\n      dup2\n      mstore\n      0x20\n      add\n      swap2\n      pop\n      dup1\n      mload\n      swap1\n      0x20\n      add\n      swap1\n      dup1\n      dup4\n      dup4\n      0x00\n    tag_313:\n      dup4\n      dup2\n      lt\n      iszero\n      tag_315\n      jumpi\n      dup1\n      dup3\n      add\n      mload\n      dup2\n      dup5\n      add\n      mstore\n      0x20\n      dup2\n      add\n      swap1\n      pop\n      jump(tag_313)\n    tag_315:\n      pop\n      pop\n      pop\n      pop\n      swap1\n      pop\n      swap1\n      dup2\n      add\n      swap1\n      0x1f\n      and\n      dup1\n      iszero\n      tag_316\n      jumpi\n      dup1\n      dup3\n      sub\n      dup1\n      mload\n      0x01\n      dup4\n      0x20\n      sub\n      0x0100\n      exp\n      sub\n      not\n      and\n      dup2\n      mstore\n      0x20\n      add\n      swap2\n      pop\n    tag_316:\n      pop\n      swap3\n      pop\n      pop\n      pop\n      mload(0x40)\n      dup1\n      swap2\n      sub\n      swap1\n      revert\n    tag_312:\n      pop\n        /* \"contracts/Token/Token.sol\":3157:3166  uint256 c */\n      0x00\n        /* \"contracts/Token/Token.sol\":3173:3174  b */\n      dup4\n        /* \"contracts/Token/Token.sol\":3169:3170  a */\n      dup6\n        /* \"contracts/Token/Token.sol\":3169:3174  a - b */\n      sub\n        /* \"contracts/Token/Token.sol\":3157:3174  uint256 c = a - b */\n      swap1\n      pop\n        /* \"contracts/Token/Token.sol\":3185:3186  c */\n      dup1\n        /* \"contracts/Token/Token.sol\":3178:3186  return c */\n      swap2\n      pop\n      pop\n        /* \"contracts/Token/Token.sol\":3025:3190  function sub(uint256 a, uint256 b, string memory errorMessage) internal pure returns (uint256) {... */\n      swap4\n      swap3\n      pop\n      pop\n      pop\n      jump\t// out\n        /* \"contracts/Token/Token.sol\":2249:2404  function add(uint256 a, uint256 b) internal pure returns (uint256) {... */\n    tag_203:\n        /* \"contracts/Token/Token.sol\":2307:2314  uint256 */\n      0x00\n        /* \"contracts/Token/Token.sol\":2320:2329  uint256 c */\n      dup1\n        /* \"contracts/Token/Token.sol\":2336:2337  b */\n      dup3\n        /* \"contracts/Token/Token.sol\":2332:2333  a */\n      dup5\n        /* \"contracts/Token/Token.sol\":2332:2337  a + b */\n      add\n        /* \"contracts/Token/Token.sol\":2320:2337  uint256 c = a + b */\n      swap1\n      pop\n        /* \"contracts/Token/Token.sol\":2354:2355  a */\n      dup4\n        /* \"contracts/Token/Token.sol\":2349:2350  c */\n      dup2\n        /* \"contracts/Token/Token.sol\":2349:2355  c >= a */\n      lt\n      iszero\n        /* \"contracts/Token/Token.sol\":2341:2387  require(c >= a, \"SafeMath: addition overflow\") */\n      tag_318\n      jumpi\n      mload(0x40)\n      0x08c379a000000000000000000000000000000000000000000000000000000000\n      dup2\n      mstore\n      0x04\n      add\n      dup1\n      dup1\n      0x20\n      add\n      dup3\n      dup2\n      sub\n      dup3\n      mstore\n      0x1b\n      dup2\n      mstore\n      0x20\n      add\n      dup1\n      0x536166654d6174683a206164646974696f6e206f766572666c6f770000000000\n      dup2\n      mstore\n      pop\n      0x20\n      add\n      swap2\n      pop\n      pop\n      mload(0x40)\n      dup1\n      swap2\n      sub\n      swap1\n      revert\n    tag_318:\n        /* \"contracts/Token/Token.sol\":2399:2400  c */\n      dup1\n        /* \"contracts/Token/Token.sol\":2392:2400  return c */\n      swap2\n      pop\n      pop\n        /* \"contracts/Token/Token.sol\":2249:2404  function add(uint256 a, uint256 b) internal pure returns (uint256) {... */\n      swap3\n      swap2\n      pop\n      pop\n      jump\t// out\n        /* \"contracts/Token/Token.sol\":18522:18859  function _mint(address account, uint256 amount) internal virtual {... */\n    tag_209:\n        /* \"contracts/Token/Token.sol\":18618:18619  0 */\n      0x00\n        /* \"contracts/Token/Token.sol\":18599:18620  account != address(0) */\n      0xffffffffffffffffffffffffffffffffffffffff\n      and\n        /* \"contracts/Token/Token.sol\":18599:18606  account */\n      dup3\n        /* \"contracts/Token/Token.sol\":18599:18620  account != address(0) */\n      0xffffffffffffffffffffffffffffffffffffffff\n      and\n      eq\n      iszero\n        /* \"contracts/Token/Token.sol\":18591:18656  require(account != address(0), \"ERC20: mint to the zero address\") */\n      tag_320\n      jumpi\n      mload(0x40)\n      0x08c379a000000000000000000000000000000000000000000000000000000000\n      dup2\n      mstore\n      0x04\n      add\n      dup1\n      dup1\n      0x20\n      add\n      dup3\n      dup2\n      sub\n      dup3\n      mstore\n      0x1f\n      dup2\n      mstore\n      0x20\n      add\n      dup1\n      0x45524332303a206d696e7420746f20746865207a65726f206164647265737300\n      dup2\n      mstore\n      pop\n      0x20\n      add\n      swap2\n      pop\n      pop\n      mload(0x40)\n      dup1\n      swap2\n      sub\n      swap1\n      revert\n    tag_320:\n        /* \"contracts/Token/Token.sol\":18661:18710  _beforeTokenTransfer(address(0), account, amount) */\n      tag_321\n        /* \"contracts/Token/Token.sol\":18690:18691  0 */\n      0x00\n        /* \"contracts/Token/Token.sol\":18694:18701  account */\n      dup4\n        /* \"contracts/Token/Token.sol\":18703:18709  amount */\n      dup4\n        /* \"contracts/Token/Token.sol\":18661:18681  _beforeTokenTransfer */\n      tag_322\n        /* \"contracts/Token/Token.sol\":18661:18710  _beforeTokenTransfer(address(0), account, amount) */\n      jump\t// in\n    tag_321:\n        /* \"contracts/Token/Token.sol\":18730:18754  _totalSupply.add(amount) */\n      tag_323\n        /* \"contracts/Token/Token.sol\":18747:18753  amount */\n      dup2\n        /* \"contracts/Token/Token.sol\":18730:18742  _totalSupply */\n      sload(0x07)\n        /* \"contracts/Token/Token.sol\":18730:18746  _totalSupply.add */\n      tag_203\n      swap1\n        /* \"contracts/Token/Token.sol\":18730:18754  _totalSupply.add(amount) */\n      swap2\n      swap1\n      0xffffffff\n      and\n      jump\t// in\n    tag_323:\n        /* \"contracts/Token/Token.sol\":18715:18727  _totalSupply */\n      0x07\n        /* \"contracts/Token/Token.sol\":18715:18754  _totalSupply = _totalSupply.add(amount) */\n      dup2\n      swap1\n      sstore\n      pop\n        /* \"contracts/Token/Token.sol\":18779:18809  _balances[account].add(amount) */\n      tag_324\n        /* \"contracts/Token/Token.sol\":18802:18808  amount */\n      dup2\n        /* \"contracts/Token/Token.sol\":18779:18788  _balances */\n      0x05\n        /* \"contracts/Token/Token.sol\":18779:18797  _balances[account] */\n      0x00\n        /* \"contracts/Token/Token.sol\":18789:18796  account */\n      dup6\n        /* \"contracts/Token/Token.sol\":18779:18797  _balances[account] */\n      0xffffffffffffffffffffffffffffffffffffffff\n      and\n      0xffffffffffffffffffffffffffffffffffffffff\n      and\n      dup2\n      mstore\n      0x20\n      add\n      swap1\n      dup2\n      mstore\n      0x20\n      add\n      0x00\n      keccak256\n      sload\n        /* \"contracts/Token/Token.sol\":18779:18801  _balances[account].add */\n      tag_203\n      swap1\n        /* \"contracts/Token/Token.sol\":18779:18809  _balances[account].add(amount) */\n      swap2\n      swap1\n      0xffffffff\n      and\n      jump\t// in\n    tag_324:\n        /* \"contracts/Token/Token.sol\":18758:18767  _balances */\n      0x05\n        /* \"contracts/Token/Token.sol\":18758:18776  _balances[account] */\n      0x00\n        /* \"contracts/Token/Token.sol\":18768:18775  account */\n      dup5\n        /* \"contracts/Token/Token.sol\":18758:18776  _balances[account] */\n      0xffffffffffffffffffffffffffffffffffffffff\n      and\n      0xffffffffffffffffffffffffffffffffffffffff\n      and\n      dup2\n      mstore\n      0x20\n      add\n      swap1\n      dup2\n      mstore\n      0x20\n      add\n      0x00\n      keccak256\n        /* \"contracts/Token/Token.sol\":18758:18809  _balances[account] = _balances[account].add(amount) */\n      dup2\n      swap1\n      sstore\n      pop\n        /* \"contracts/Token/Token.sol\":18839:18846  account */\n      dup2\n        /* \"contracts/Token/Token.sol\":18818:18855  Transfer(address(0), account, amount) */\n      0xffffffffffffffffffffffffffffffffffffffff\n      and\n        /* \"contracts/Token/Token.sol\":18835:18836  0 */\n      0x00\n        /* \"contracts/Token/Token.sol\":18818:18855  Transfer(address(0), account, amount) */\n      0xffffffffffffffffffffffffffffffffffffffff\n      and\n      0xddf252ad1be2c89b69c2b068fc378daa952ba7f163c4a11628f55a4df523b3ef\n        /* \"contracts/Token/Token.sol\":18848:18854  amount */\n      dup4\n        /* \"contracts/Token/Token.sol\":18818:18855  Transfer(address(0), account, amount) */\n      mload(0x40)\n      dup1\n      dup3\n      dup2\n      mstore\n      0x20\n      add\n      swap2\n      pop\n      pop\n      mload(0x40)\n      dup1\n      swap2\n      sub\n      swap1\n      log3\n        /* \"contracts/Token/Token.sol\":18522:18859  function _mint(address account, uint256 amount) internal virtual {... */\n      pop\n      pop\n      jump\t// out\n        /* \"contracts/Token/Token.sol\":18862:19239  function _burn(address account, uint256 amount) internal virtual {... */\n    tag_213:\n        /* \"contracts/Token/Token.sol\":18958:18959  0 */\n      0x00\n        /* \"contracts/Token/Token.sol\":18939:18960  account != address(0) */\n      0xffffffffffffffffffffffffffffffffffffffff\n      and\n        /* \"contracts/Token/Token.sol\":18939:18946  account */\n      dup3\n        /* \"contracts/Token/Token.sol\":18939:18960  account != address(0) */\n      0xffffffffffffffffffffffffffffffffffffffff\n      and\n      eq\n      iszero\n        /* \"contracts/Token/Token.sol\":18931:18998  require(account != address(0), \"ERC20: burn from the zero address\") */\n      tag_326\n      jumpi\n      mload(0x40)\n      0x08c379a000000000000000000000000000000000000000000000000000000000\n      dup2\n      mstore\n      0x04\n      add\n      dup1\n      dup1\n      0x20\n      add\n      dup3\n      dup2\n      sub\n      dup3\n      mstore\n      0x21\n      dup2\n      mstore\n      0x20\n      add\n      dup1\n      data_b16788493b576042bb52c50ed56189e0b250db113c7bfb1c3897d25cf9632d7f\n      0x21\n      swap2\n      codecopy\n      0x40\n      add\n      swap2\n      pop\n      pop\n      mload(0x40)\n      dup1\n      swap2\n      sub\n      swap1\n      revert\n    tag_326:\n        /* \"contracts/Token/Token.sol\":19003:19052  _beforeTokenTransfer(account, address(0), amount) */\n      tag_327\n        /* \"contracts/Token/Token.sol\":19024:19031  account */\n      dup3\n        /* \"contracts/Token/Token.sol\":19041:19042  0 */\n      0x00\n        /* \"contracts/Token/Token.sol\":19045:19051  amount */\n      dup4\n        /* \"contracts/Token/Token.sol\":19003:19023  _beforeTokenTransfer */\n      tag_322\n        /* \"contracts/Token/Token.sol\":19003:19052  _beforeTokenTransfer(account, address(0), amount) */\n      jump\t// in\n    tag_327:\n        /* \"contracts/Token/Token.sol\":19078:19146  _balances[account].sub(amount, \"ERC20: burn amount exceeds balance\") */\n      tag_328\n        /* \"contracts/Token/Token.sol\":19101:19107  amount */\n      dup2\n        /* \"contracts/Token/Token.sol\":19078:19146  _balances[account].sub(amount, \"ERC20: burn amount exceeds balance\") */\n      mload(0x40)\n      dup1\n      0x60\n      add\n      0x40\n      mstore\n      dup1\n      0x22\n      dup2\n      mstore\n      0x20\n      add\n      data_149b126e7125232b4200af45303d04fba8b74653b1a295a6a561a528c33fefdd\n      0x22\n      swap2\n      codecopy\n        /* \"contracts/Token/Token.sol\":19078:19087  _balances */\n      0x05\n        /* \"contracts/Token/Token.sol\":19078:19096  _balances[account] */\n      0x00\n        /* \"contracts/Token/Token.sol\":19088:19095  account */\n      dup7\n        /* \"contracts/Token/Token.sol\":19078:19096  _balances[account] */\n      0xffffffffffffffffffffffffffffffffffffffff\n      and\n      0xffffffffffffffffffffffffffffffffffffffff\n      and\n      dup2\n      mstore\n      0x20\n      add\n      swap1\n      dup2\n      mstore\n      0x20\n      add\n      0x00\n      keccak256\n      sload\n        /* \"contracts/Token/Token.sol\":19078:19100  _balances[account].sub */\n      tag_191\n      swap1\n        /* \"contracts/Token/Token.sol\":19078:19146  _balances[account].sub(amount, \"ERC20: burn amount exceeds balance\") */\n      swap3\n      swap2\n      swap1\n      0xffffffff\n      and\n      jump\t// in\n    tag_328:\n        /* \"contracts/Token/Token.sol\":19057:19066  _balances */\n      0x05\n        /* \"contracts/Token/Token.sol\":19057:19075  _balances[account] */\n      0x00\n        /* \"contracts/Token/Token.sol\":19067:19074  account */\n      dup5\n        /* \"contracts/Token/Token.sol\":19057:19075  _balances[account] */\n      0xffffffffffffffffffffffffffffffffffffffff\n      and\n      0xffffffffffffffffffffffffffffffffffffffff\n      and\n      dup2\n      mstore\n      0x20\n      add\n      swap1\n      dup2\n      mstore\n      0x20\n      add\n      0x00\n      keccak256\n        /* \"contracts/Token/Token.sol\":19057:19146  _balances[account] = _balances[account].sub(amount, \"ERC20: burn amount exceeds balance\") */\n      dup2\n      swap1\n      sstore\n      pop\n        /* \"contracts/Token/Token.sol\":19165:19189  _totalSupply.sub(amount) */\n      tag_329\n        /* \"contracts/Token/Token.sol\":19182:19188  amount */\n      dup2\n        /* \"contracts/Token/Token.sol\":19165:19177  _totalSupply */\n      sload(0x07)\n        /* \"contracts/Token/Token.sol\":19165:19181  _totalSupply.sub */\n      tag_296\n      swap1\n        /* \"contracts/Token/Token.sol\":19165:19189  _totalSupply.sub(amount) */\n      swap2\n      swap1\n      0xffffffff\n      and\n      jump\t// in\n    tag_329:\n        /* \"contracts/Token/Token.sol\":19150:19162  _totalSupply */\n      0x07\n        /* \"contracts/Token/Token.sol\":19150:19189  _totalSupply = _totalSupply.sub(amount) */\n      dup2\n      swap1\n      sstore\n      pop\n        /* \"contracts/Token/Token.sol\":19224:19225  0 */\n      0x00\n        /* \"contracts/Token/Token.sol\":19198:19235  Transfer(account, address(0), amount) */\n      0xffffffffffffffffffffffffffffffffffffffff\n      and\n        /* \"contracts/Token/Token.sol\":19207:19214  account */\n      dup3\n        /* \"contracts/Token/Token.sol\":19198:19235  Transfer(account, address(0), amount) */\n      0xffffffffffffffffffffffffffffffffffffffff\n      and\n      0xddf252ad1be2c89b69c2b068fc378daa952ba7f163c4a11628f55a4df523b3ef\n        /* \"contracts/Token/Token.sol\":19228:19234  amount */\n      dup4\n        /* \"contracts/Token/Token.sol\":19198:19235  Transfer(account, address(0), amount) */\n      mload(0x40)\n      dup1\n      dup3\n      dup2\n      mstore\n      0x20\n      add\n      swap2\n      pop\n      pop\n      mload(0x40)\n      dup1\n      swap2\n      sub\n      swap1\n      log3\n        /* \"contracts/Token/Token.sol\":18862:19239  function _burn(address account, uint256 amount) internal virtual {... */\n      pop\n      pop\n      jump\t// out\n        /* \"contracts/Token/Token.sol\":13618:13741  function _frozen_balanceOf(address _account) internal view returns (uint) {... */\n    tag_220:\n        /* \"contracts/Token/Token.sol\":13686:13690  uint */\n      0x00\n        /* \"contracts/Token/Token.sol\":13709:13724  frozen_balances */\n      dup1\n        /* \"contracts/Token/Token.sol\":13709:13734  frozen_balances[_account] */\n      0x00\n        /* \"contracts/Token/Token.sol\":13725:13733  _account */\n      dup4\n        /* \"contracts/Token/Token.sol\":13709:13734  frozen_balances[_account] */\n      0xffffffffffffffffffffffffffffffffffffffff\n      and\n      0xffffffffffffffffffffffffffffffffffffffff\n      and\n      dup2\n      mstore\n      0x20\n      add\n      swap1\n      dup2\n      mstore\n      0x20\n      add\n      0x00\n      keccak256\n      sload\n        /* \"contracts/Token/Token.sol\":13702:13734  return frozen_balances[_account] */\n      swap1\n      pop\n        /* \"contracts/Token/Token.sol\":13618:13741  function _frozen_balanceOf(address _account) internal view returns (uint) {... */\n      swap2\n      swap1\n      pop\n      jump\t// out\n        /* \"contracts/Token/Token.sol\":19819:20413  function _mintfrozen(address account, uint256 amount) internal {... */\n    tag_258:\n        /* \"contracts/Token/Token.sol\":19919:19920  0 */\n      0x00\n        /* \"contracts/Token/Token.sol\":19900:19921  account != address(0) */\n      0xffffffffffffffffffffffffffffffffffffffff\n      and\n        /* \"contracts/Token/Token.sol\":19900:19907  account */\n      dup3\n        /* \"contracts/Token/Token.sol\":19900:19921  account != address(0) */\n      0xffffffffffffffffffffffffffffffffffffffff\n      and\n      eq\n      iszero\n        /* \"contracts/Token/Token.sol\":19892:19964  require(account != address(0), \"ERC20: mint frozen to the zero address\") */\n      tag_332\n      jumpi\n      mload(0x40)\n      0x08c379a000000000000000000000000000000000000000000000000000000000\n      dup2\n      mstore\n      0x04\n      add\n      dup1\n      dup1\n      0x20\n      add\n      dup3\n      dup2\n      sub\n      dup3\n      mstore\n      0x26\n      dup2\n      mstore\n      0x20\n      add\n      dup1\n      data_1c85aa0d8454e1548e88ea9f2bb8a0c43a1bd6e50657077b5d1b08b8d2a4db7b\n      0x26\n      swap2\n      codecopy\n      0x40\n      add\n      swap2\n      pop\n      pop\n      mload(0x40)\n      dup1\n      swap2\n      sub\n      swap1\n      revert\n    tag_332:\n        /* \"contracts/Token/Token.sol\":20001:20005  this */\n      address\n        /* \"contracts/Token/Token.sol\":19982:20006  account != address(this) */\n      0xffffffffffffffffffffffffffffffffffffffff\n      and\n        /* \"contracts/Token/Token.sol\":19982:19989  account */\n      dup3\n        /* \"contracts/Token/Token.sol\":19982:20006  account != address(this) */\n      0xffffffffffffffffffffffffffffffffffffffff\n      and\n      eq\n      iszero\n        /* \"contracts/Token/Token.sol\":19974:20053  require(account != address(this), \"ERC20: mint frozen to the contract address\") */\n      tag_333\n      jumpi\n      mload(0x40)\n      0x08c379a000000000000000000000000000000000000000000000000000000000\n      dup2\n      mstore\n      0x04\n      add\n      dup1\n      dup1\n      0x20\n      add\n      dup3\n      dup2\n      sub\n      dup3\n      mstore\n      0x2a\n      dup2\n      mstore\n      0x20\n      add\n      dup1\n      data_25a82e711965e24b472dea6cec5774ce13441ffeaf1c79cde67f510141497dff\n      0x2a\n      swap2\n      codecopy\n      0x40\n      add\n      swap2\n      pop\n      pop\n      mload(0x40)\n      dup1\n      swap2\n      sub\n      swap1\n      revert\n    tag_333:\n        /* \"contracts/Token/Token.sol\":20080:20081  0 */\n      0x00\n        /* \"contracts/Token/Token.sol\":20071:20077  amount */\n      dup2\n        /* \"contracts/Token/Token.sol\":20071:20081  amount > 0 */\n      gt\n        /* \"contracts/Token/Token.sol\":20063:20125  require(amount > 0, \"ERC20: mint frozen amount should be > 0\") */\n      tag_334\n      jumpi\n      mload(0x40)\n      0x08c379a000000000000000000000000000000000000000000000000000000000\n      dup2\n      mstore\n      0x04\n      add\n      dup1\n      dup1\n      0x20\n      add\n      dup3\n      dup2\n      sub\n      dup3\n      mstore\n      0x27\n      dup2\n      mstore\n      0x20\n      add\n      dup1\n      data_631213ea213f1c5b9a2a47b03459ea7035848ced11625b3e078a63e304817988\n      0x27\n      swap2\n      codecopy\n      0x40\n      add\n      swap2\n      pop\n      pop\n      mload(0x40)\n      dup1\n      swap2\n      sub\n      swap1\n      revert\n    tag_334:\n        /* \"contracts/Token/Token.sol\":20171:20181  _maxSupply */\n      sload(0x08)\n        /* \"contracts/Token/Token.sol\":20143:20167  _totalSupply.add(amount) */\n      tag_335\n        /* \"contracts/Token/Token.sol\":20160:20166  amount */\n      dup3\n        /* \"contracts/Token/Token.sol\":20143:20155  _totalSupply */\n      sload(0x07)\n        /* \"contracts/Token/Token.sol\":20143:20159  _totalSupply.add */\n      tag_203\n      swap1\n        /* \"contracts/Token/Token.sol\":20143:20167  _totalSupply.add(amount) */\n      swap2\n      swap1\n      0xffffffff\n      and\n      jump\t// in\n    tag_335:\n        /* \"contracts/Token/Token.sol\":20143:20181  _totalSupply.add(amount) <= _maxSupply */\n      gt\n      iszero\n        /* \"contracts/Token/Token.sol\":20135:20218  require(_totalSupply.add(amount) <= _maxSupply, \"ERC20Capped: max supply exceeded\") */\n      tag_336\n      jumpi\n      mload(0x40)\n      0x08c379a000000000000000000000000000000000000000000000000000000000\n      dup2\n      mstore\n      0x04\n      add\n      dup1\n      dup1\n      0x20\n      add\n      dup3\n      dup2\n      sub\n      dup3\n      mstore\n      0x20\n      dup2\n      mstore\n      0x20\n      add\n      dup1\n      0x45524332304361707065643a206d617820737570706c79206578636565646564\n      dup2\n      mstore\n      pop\n      0x20\n      add\n      swap2\n      pop\n      pop\n      mload(0x40)\n      dup1\n      swap2\n      sub\n      swap1\n      revert\n    tag_336:\n        /* \"contracts/Token/Token.sol\":20244:20268  _totalSupply.add(amount) */\n      tag_337\n        /* \"contracts/Token/Token.sol\":20261:20267  amount */\n      dup2\n        /* \"contracts/Token/Token.sol\":20244:20256  _totalSupply */\n      sload(0x07)\n        /* \"contracts/Token/Token.sol\":20244:20260  _totalSupply.add */\n      tag_203\n      swap1\n        /* \"contracts/Token/Token.sol\":20244:20268  _totalSupply.add(amount) */\n      swap2\n      swap1\n      0xffffffff\n      and\n      jump\t// in\n    tag_337:\n        /* \"contracts/Token/Token.sol\":20229:20241  _totalSupply */\n      0x07\n        /* \"contracts/Token/Token.sol\":20229:20268  _totalSupply = _totalSupply.add(amount) */\n      dup2\n      swap1\n      sstore\n      pop\n        /* \"contracts/Token/Token.sol\":20308:20315  account */\n      dup2\n        /* \"contracts/Token/Token.sol\":20284:20324  Transfer(address(this), account, amount) */\n      0xffffffffffffffffffffffffffffffffffffffff\n      and\n        /* \"contracts/Token/Token.sol\":20301:20305  this */\n      address\n        /* \"contracts/Token/Token.sol\":20284:20324  Transfer(address(this), account, amount) */\n      0xffffffffffffffffffffffffffffffffffffffff\n      and\n      0xddf252ad1be2c89b69c2b068fc378daa952ba7f163c4a11628f55a4df523b3ef\n        /* \"contracts/Token/Token.sol\":20317:20323  amount */\n      dup4\n        /* \"contracts/Token/Token.sol\":20284:20324  Transfer(address(this), account, amount) */\n      mload(0x40)\n      dup1\n      dup3\n      dup2\n      mstore\n      0x20\n      add\n      swap2\n      pop\n      pop\n      mload(0x40)\n      dup1\n      swap2\n      sub\n      swap1\n      log3\n        /* \"contracts/Token/Token.sol\":20335:20363  _frozen_add(account, amount) */\n      tag_338\n        /* \"contracts/Token/Token.sol\":20347:20354  account */\n      dup3\n        /* \"contracts/Token/Token.sol\":20356:20362  amount */\n      dup3\n        /* \"contracts/Token/Token.sol\":20335:20346  _frozen_add */\n      tag_276\n        /* \"contracts/Token/Token.sol\":20335:20363  _frozen_add(account, amount) */\n      jump\t// in\n    tag_338:\n      pop\n        /* \"contracts/Token/Token.sol\":20390:20397  account */\n      dup2\n        /* \"contracts/Token/Token.sol\":20379:20406  MintFrozen(account, amount) */\n      0xffffffffffffffffffffffffffffffffffffffff\n      and\n      0xba89ad6709373f454c31524e8c39cef3cdd4b0e8cfde0ccddbd419a2e488be6b\n        /* \"contracts/Token/Token.sol\":20399:20405  amount */\n      dup3\n        /* \"contracts/Token/Token.sol\":20379:20406  MintFrozen(account, amount) */\n      mload(0x40)\n      dup1\n      dup3\n      dup2\n      mstore\n      0x20\n      add\n      swap2\n      pop\n      pop\n      mload(0x40)\n      dup1\n      swap2\n      sub\n      swap1\n      log2\n        /* \"contracts/Token/Token.sol\":19819:20413  function _mintfrozen(address account, uint256 amount) internal {... */\n      pop\n      pop\n      jump\t// out\n        /* \"contracts/Token/Token.sol\":13428:13612  function _frozen_sub(address _account, uint256 _amount) internal returns (bool) {... */\n    tag_274:\n        /* \"contracts/Token/Token.sol\":13502:13506  bool */\n      0x00\n        /* \"contracts/Token/Token.sol\":13546:13584  frozen_balances[_account].sub(_amount) */\n      tag_340\n        /* \"contracts/Token/Token.sol\":13576:13583  _amount */\n      dup3\n        /* \"contracts/Token/Token.sol\":13546:13561  frozen_balances */\n      0x00\n        /* \"contracts/Token/Token.sol\":13546:13571  frozen_balances[_account] */\n      dup1\n        /* \"contracts/Token/Token.sol\":13562:13570  _account */\n      dup7\n        /* \"contracts/Token/Token.sol\":13546:13571  frozen_balances[_account] */\n      0xffffffffffffffffffffffffffffffffffffffff\n      and\n      0xffffffffffffffffffffffffffffffffffffffff\n      and\n      dup2\n      mstore\n      0x20\n      add\n      swap1\n      dup2\n      mstore\n      0x20\n      add\n      0x00\n      keccak256\n      sload\n        /* \"contracts/Token/Token.sol\":13546:13575  frozen_balances[_account].sub */\n      tag_296\n      swap1\n        /* \"contracts/Token/Token.sol\":13546:13584  frozen_balances[_account].sub(_amount) */\n      swap2\n      swap1\n      0xffffffff\n      and\n      jump\t// in\n    tag_340:\n        /* \"contracts/Token/Token.sol\":13518:13533  frozen_balances */\n      0x00\n        /* \"contracts/Token/Token.sol\":13518:13543  frozen_balances[_account] */\n      dup1\n        /* \"contracts/Token/Token.sol\":13534:13542  _account */\n      dup6\n        /* \"contracts/Token/Token.sol\":13518:13543  frozen_balances[_account] */\n      0xffffffffffffffffffffffffffffffffffffffff\n      and\n      0xffffffffffffffffffffffffffffffffffffffff\n      and\n      dup2\n      mstore\n      0x20\n      add\n      swap1\n      dup2\n      mstore\n      0x20\n      add\n      0x00\n      keccak256\n        /* \"contracts/Token/Token.sol\":13518:13584  frozen_balances[_account] = frozen_balances[_account].sub(_amount) */\n      dup2\n      swap1\n      sstore\n      pop\n        /* \"contracts/Token/Token.sol\":13601:13605  true */\n      0x01\n        /* \"contracts/Token/Token.sol\":13594:13605  return true */\n      swap1\n      pop\n        /* \"contracts/Token/Token.sol\":13428:13612  function _frozen_sub(address _account, uint256 _amount) internal returns (bool) {... */\n      swap3\n      swap2\n      pop\n      pop\n      jump\t// out\n        /* \"contracts/Token/Token.sol\":13238:13422  function _frozen_add(address _account, uint256 _amount) internal returns (bool) {... */\n    tag_276:\n        /* \"contracts/Token/Token.sol\":13312:13316  bool */\n      0x00\n        /* \"contracts/Token/Token.sol\":13356:13394  frozen_balances[_account].add(_amount) */\n      tag_342\n        /* \"contracts/Token/Token.sol\":13386:13393  _amount */\n      dup3\n        /* \"contracts/Token/Token.sol\":13356:13371  frozen_balances */\n      0x00\n        /* \"contracts/Token/Token.sol\":13356:13381  frozen_balances[_account] */\n      dup1\n        /* \"contracts/Token/Token.sol\":13372:13380  _account */\n      dup7\n        /* \"contracts/Token/Token.sol\":13356:13381  frozen_balances[_account] */\n      0xffffffffffffffffffffffffffffffffffffffff\n      and\n      0xffffffffffffffffffffffffffffffffffffffff\n      and\n      dup2\n      mstore\n      0x20\n      add\n      swap1\n      dup2\n      mstore\n      0x20\n      add\n      0x00\n      keccak256\n      sload\n        /* \"contracts/Token/Token.sol\":13356:13385  frozen_balances[_account].add */\n      tag_203\n      swap1\n        /* \"contracts/Token/Token.sol\":13356:13394  frozen_balances[_account].add(_amount) */\n      swap2\n      swap1\n      0xffffffff\n      and\n      jump\t// in\n    tag_342:\n        /* \"contracts/Token/Token.sol\":13328:13343  frozen_balances */\n      0x00\n        /* \"contracts/Token/Token.sol\":13328:13353  frozen_balances[_account] */\n      dup1\n        /* \"contracts/Token/Token.sol\":13344:13352  _account */\n      dup6\n        /* \"contracts/Token/Token.sol\":13328:13353  frozen_balances[_account] */\n      0xffffffffffffffffffffffffffffffffffffffff\n      and\n      0xffffffffffffffffffffffffffffffffffffffff\n      and\n      dup2\n      mstore\n      0x20\n      add\n      swap1\n      dup2\n      mstore\n      0x20\n      add\n      0x00\n      keccak256\n        /* \"contracts/Token/Token.sol\":13328:13394  frozen_balances[_account] = frozen_balances[_account].add(_amount) */\n      dup2\n      swap1\n      sstore\n      pop\n        /* \"contracts/Token/Token.sol\":13411:13415  true */\n      0x01\n        /* \"contracts/Token/Token.sol\":13404:13415  return true */\n      swap1\n      pop\n        /* \"contracts/Token/Token.sol\":13238:13422  function _frozen_add(address _account, uint256 _amount) internal returns (bool) {... */\n      swap3\n      swap2\n      pop\n      pop\n      jump\t// out\n        /* \"contracts/Token/Token.sol\":2642:2767  function sub(uint256 a, uint256 b) internal pure returns (uint256) {... */\n    tag_296:\n        /* \"contracts/Token/Token.sol\":2700:2707  uint256 */\n      0x00\n        /* \"contracts/Token/Token.sol\":2720:2763  sub(a, b, \"SafeMath: subtraction overflow\") */\n      tag_344\n        /* \"contracts/Token/Token.sol\":2724:2725  a */\n      dup4\n        /* \"contracts/Token/Token.sol\":2727:2728  b */\n      dup4\n        /* \"contracts/Token/Token.sol\":2720:2763  sub(a, b, \"SafeMath: subtraction overflow\") */\n      mload(0x40)\n      dup1\n      0x40\n      add\n      0x40\n      mstore\n      dup1\n      0x1e\n      dup2\n      mstore\n      0x20\n      add\n      0x536166654d6174683a207375627472616374696f6e206f766572666c6f770000\n      dup2\n      mstore\n      pop\n        /* \"contracts/Token/Token.sol\":2720:2723  sub */\n      tag_191\n        /* \"contracts/Token/Token.sol\":2720:2763  sub(a, b, \"SafeMath: subtraction overflow\") */\n      jump\t// in\n    tag_344:\n        /* \"contracts/Token/Token.sol\":2713:2763  return sub(a, b, \"SafeMath: subtraction overflow\") */\n      swap1\n      pop\n        /* \"contracts/Token/Token.sol\":2642:2767  function sub(uint256 a, uint256 b) internal pure returns (uint256) {... */\n      swap3\n      swap2\n      pop\n      pop\n      jump\t// out\n        /* \"contracts/Token/Token.sol\":3404:3803  function mul(uint256 a, uint256 b) internal pure returns (uint256) {... */\n    tag_305:\n        /* \"contracts/Token/Token.sol\":3462:3469  uint256 */\n      0x00\n        /* \"contracts/Token/Token.sol\":3684:3685  0 */\n      dup1\n        /* \"contracts/Token/Token.sol\":3679:3680  a */\n      dup4\n        /* \"contracts/Token/Token.sol\":3679:3685  a == 0 */\n      eq\n        /* \"contracts/Token/Token.sol\":3675:3705  if (a == 0) {... */\n      iszero\n      tag_346\n      jumpi\n        /* \"contracts/Token/Token.sol\":3699:3700  0 */\n      0x00\n        /* \"contracts/Token/Token.sol\":3692:3700  return 0 */\n      swap1\n      pop\n      jump(tag_345)\n        /* \"contracts/Token/Token.sol\":3675:3705  if (a == 0) {... */\n    tag_346:\n        /* \"contracts/Token/Token.sol\":3709:3718  uint256 c */\n      0x00\n        /* \"contracts/Token/Token.sol\":3725:3726  b */\n      dup3\n        /* \"contracts/Token/Token.sol\":3721:3722  a */\n      dup5\n        /* \"contracts/Token/Token.sol\":3721:3726  a * b */\n      mul\n        /* \"contracts/Token/Token.sol\":3709:3726  uint256 c = a * b */\n      swap1\n      pop\n        /* \"contracts/Token/Token.sol\":3747:3748  b */\n      dup3\n        /* \"contracts/Token/Token.sol\":3742:3743  a */\n      dup5\n        /* \"contracts/Token/Token.sol\":3738:3739  c */\n      dup3\n        /* \"contracts/Token/Token.sol\":3738:3743  c / a */\n      dup2\n      tag_347\n      jumpi\n      invalid\n    tag_347:\n      div\n        /* \"contracts/Token/Token.sol\":3738:3748  c / a == b */\n      eq\n        /* \"contracts/Token/Token.sol\":3730:3786  require(c / a == b, \"SafeMath: multiplication overflow\") */\n      tag_348\n      jumpi\n      mload(0x40)\n      0x08c379a000000000000000000000000000000000000000000000000000000000\n      dup2\n      mstore\n      0x04\n      add\n      dup1\n      dup1\n      0x20\n      add\n      dup3\n      dup2\n      sub\n      dup3\n      mstore\n      0x21\n      dup2\n      mstore\n      0x20\n      add\n      dup1\n      data_9113bb53c2876a3805b2c9242029423fc540a728243ce887ab24c82cf119fba3\n      0x21\n      swap2\n      codecopy\n      0x40\n      add\n      swap2\n      pop\n      pop\n      mload(0x40)\n      dup1\n      swap2\n      sub\n      swap1\n      revert\n    tag_348:\n        /* \"contracts/Token/Token.sol\":3798:3799  c */\n      dup1\n        /* \"contracts/Token/Token.sol\":3791:3799  return c */\n      swap2\n      pop\n      pop\n        /* \"contracts/Token/Token.sol\":3404:3803  function mul(uint256 a, uint256 b) internal pure returns (uint256) {... */\n    tag_345:\n      swap3\n      swap2\n      pop\n      pop\n      jump\t// out\n        /* \"contracts/Token/Token.sol\":4226:4347  function div(uint256 a, uint256 b) internal pure returns (uint256) {... */\n    tag_306:\n        /* \"contracts/Token/Token.sol\":4284:4291  uint256 */\n      0x00\n        /* \"contracts/Token/Token.sol\":4304:4343  div(a, b, \"SafeMath: division by zero\") */\n      tag_350\n        /* \"contracts/Token/Token.sol\":4308:4309  a */\n      dup4\n        /* \"contracts/Token/Token.sol\":4311:4312  b */\n      dup4\n        /* \"contracts/Token/Token.sol\":4304:4343  div(a, b, \"SafeMath: division by zero\") */\n      mload(0x40)\n      dup1\n      0x40\n      add\n      0x40\n      mstore\n      dup1\n      0x1a\n      dup2\n      mstore\n      0x20\n      add\n      0x536166654d6174683a206469766973696f6e206279207a65726f000000000000\n      dup2\n      mstore\n      pop\n        /* \"contracts/Token/Token.sol\":4304:4307  div */\n      tag_351\n        /* \"contracts/Token/Token.sol\":4304:4343  div(a, b, \"SafeMath: division by zero\") */\n      jump\t// in\n    tag_350:\n        /* \"contracts/Token/Token.sol\":4297:4343  return div(a, b, \"SafeMath: division by zero\") */\n      swap1\n      pop\n        /* \"contracts/Token/Token.sol\":4226:4347  function div(uint256 a, uint256 b) internal pure returns (uint256) {... */\n      swap3\n      swap2\n      pop\n      pop\n      jump\t// out\n        /* \"contracts/Token/Token.sol\":18028:18519  function _transfer(address sender, address recipient, uint256 amount) internal virtual {... */\n    tag_308:\n        /* \"contracts/Token/Token.sol\":18145:18146  0 */\n      0x00\n        /* \"contracts/Token/Token.sol\":18127:18147  sender != address(0) */\n      0xffffffffffffffffffffffffffffffffffffffff\n      and\n        /* \"contracts/Token/Token.sol\":18127:18133  sender */\n      dup4\n        /* \"contracts/Token/Token.sol\":18127:18147  sender != address(0) */\n      0xffffffffffffffffffffffffffffffffffffffff\n      and\n      eq\n      iszero\n        /* \"contracts/Token/Token.sol\":18119:18189  require(sender != address(0), \"ERC20: transfer from the zero address\") */\n      tag_353\n      jumpi\n      mload(0x40)\n      0x08c379a000000000000000000000000000000000000000000000000000000000\n      dup2\n      mstore\n      0x04\n      add\n      dup1\n      dup1\n      0x20\n      add\n      dup3\n      dup2\n      sub\n      dup3\n      mstore\n      0x25\n      dup2\n      mstore\n      0x20\n      add\n      dup1\n      data_baecc556b46f4ed0f2b4cb599d60785ac8563dd2dc0a5bf12edea1c39e5e1fea\n      0x25\n      swap2\n      codecopy\n      0x40\n      add\n      swap2\n      pop\n      pop\n      mload(0x40)\n      dup1\n      swap2\n      sub\n      swap1\n      revert\n    tag_353:\n        /* \"contracts/Token/Token.sol\":18222:18223  0 */\n      0x00\n        /* \"contracts/Token/Token.sol\":18201:18224  recipient != address(0) */\n      0xffffffffffffffffffffffffffffffffffffffff\n      and\n        /* \"contracts/Token/Token.sol\":18201:18210  recipient */\n      dup3\n        /* \"contracts/Token/Token.sol\":18201:18224  recipient != address(0) */\n      0xffffffffffffffffffffffffffffffffffffffff\n      and\n      eq\n      iszero\n        /* \"contracts/Token/Token.sol\":18193:18264  require(recipient != address(0), \"ERC20: transfer to the zero address\") */\n      tag_354\n      jumpi\n      mload(0x40)\n      0x08c379a000000000000000000000000000000000000000000000000000000000\n      dup2\n      mstore\n      0x04\n      add\n      dup1\n      dup1\n      0x20\n      add\n      dup3\n      dup2\n      sub\n      dup3\n      mstore\n      0x23\n      dup2\n      mstore\n      0x20\n      add\n      dup1\n      data_0557e210f7a69a685100a7e4e3d0a7024c546085cee28910fd17d0b081d9516f\n      0x23\n      swap2\n      codecopy\n      0x40\n      add\n      swap2\n      pop\n      pop\n      mload(0x40)\n      dup1\n      swap2\n      sub\n      swap1\n      revert\n    tag_354:\n        /* \"contracts/Token/Token.sol\":18269:18316  _beforeTokenTransfer(sender, recipient, amount) */\n      tag_355\n        /* \"contracts/Token/Token.sol\":18290:18296  sender */\n      dup4\n        /* \"contracts/Token/Token.sol\":18298:18307  recipient */\n      dup4\n        /* \"contracts/Token/Token.sol\":18309:18315  amount */\n      dup4\n        /* \"contracts/Token/Token.sol\":18269:18289  _beforeTokenTransfer */\n      tag_322\n        /* \"contracts/Token/Token.sol\":18269:18316  _beforeTokenTransfer(sender, recipient, amount) */\n      jump\t// in\n    tag_355:\n        /* \"contracts/Token/Token.sol\":18341:18412  _balances[sender].sub(amount, \"ERC20: transfer amount exceeds balance\") */\n      tag_356\n        /* \"contracts/Token/Token.sol\":18363:18369  amount */\n      dup2\n        /* \"contracts/Token/Token.sol\":18341:18412  _balances[sender].sub(amount, \"ERC20: transfer amount exceeds balance\") */\n      mload(0x40)\n      dup1\n      0x60\n      add\n      0x40\n      mstore\n      dup1\n      0x26\n      dup2\n      mstore\n      0x20\n      add\n      data_4107e8a8b9e94bf8ff83080ddec1c0bffe897ebc2241b89d44f66b3d274088b6\n      0x26\n      swap2\n      codecopy\n        /* \"contracts/Token/Token.sol\":18341:18350  _balances */\n      0x05\n        /* \"contracts/Token/Token.sol\":18341:18358  _balances[sender] */\n      0x00\n        /* \"contracts/Token/Token.sol\":18351:18357  sender */\n      dup8\n        /* \"contracts/Token/Token.sol\":18341:18358  _balances[sender] */\n      0xffffffffffffffffffffffffffffffffffffffff\n      and\n      0xffffffffffffffffffffffffffffffffffffffff\n      and\n      dup2\n      mstore\n      0x20\n      add\n      swap1\n      dup2\n      mstore\n      0x20\n      add\n      0x00\n      keccak256\n      sload\n        /* \"contracts/Token/Token.sol\":18341:18362  _balances[sender].sub */\n      tag_191\n      swap1\n        /* \"contracts/Token/Token.sol\":18341:18412  _balances[sender].sub(amount, \"ERC20: transfer amount exceeds balance\") */\n      swap3\n      swap2\n      swap1\n      0xffffffff\n      and\n      jump\t// in\n    tag_356:\n        /* \"contracts/Token/Token.sol\":18321:18330  _balances */\n      0x05\n        /* \"contracts/Token/Token.sol\":18321:18338  _balances[sender] */\n      0x00\n        /* \"contracts/Token/Token.sol\":18331:18337  sender */\n      dup6\n        /* \"contracts/Token/Token.sol\":18321:18338  _balances[sender] */\n      0xffffffffffffffffffffffffffffffffffffffff\n      and\n      0xffffffffffffffffffffffffffffffffffffffff\n      and\n      dup2\n      mstore\n      0x20\n      add\n      swap1\n      dup2\n      mstore\n      0x20\n      add\n      0x00\n      keccak256\n        /* \"contracts/Token/Token.sol\":18321:18412  _balances[sender] = _balances[sender].sub(amount, \"ERC20: transfer amount exceeds balance\") */\n      dup2\n      swap1\n      sstore\n      pop\n        /* \"contracts/Token/Token.sol\":18439:18471  _balances[recipient].add(amount) */\n      tag_357\n        /* \"contracts/Token/Token.sol\":18464:18470  amount */\n      dup2\n        /* \"contracts/Token/Token.sol\":18439:18448  _balances */\n      0x05\n        /* \"contracts/Token/Token.sol\":18439:18459  _balances[recipient] */\n      0x00\n        /* \"contracts/Token/Token.sol\":18449:18458  recipient */\n      dup6\n        /* \"contracts/Token/Token.sol\":18439:18459  _balances[recipient] */\n      0xffffffffffffffffffffffffffffffffffffffff\n      and\n      0xffffffffffffffffffffffffffffffffffffffff\n      and\n      dup2\n      mstore\n      0x20\n      add\n      swap1\n      dup2\n      mstore\n      0x20\n      add\n      0x00\n      keccak256\n      sload\n        /* \"contracts/Token/Token.sol\":18439:18463  _balances[recipient].add */\n      tag_203\n      swap1\n        /* \"contracts/Token/Token.sol\":18439:18471  _balances[recipient].add(amount) */\n      swap2\n      swap1\n      0xffffffff\n      and\n      jump\t// in\n    tag_357:\n        /* \"contracts/Token/Token.sol\":18416:18425  _balances */\n      0x05\n        /* \"contracts/Token/Token.sol\":18416:18436  _balances[recipient] */\n      0x00\n        /* \"contracts/Token/Token.sol\":18426:18435  recipient */\n      dup5\n        /* \"contracts/Token/Token.sol\":18416:18436  _balances[recipient] */\n      0xffffffffffffffffffffffffffffffffffffffff\n      and\n      0xffffffffffffffffffffffffffffffffffffffff\n      and\n      dup2\n      mstore\n      0x20\n      add\n      swap1\n      dup2\n      mstore\n      0x20\n      add\n      0x00\n      keccak256\n        /* \"contracts/Token/Token.sol\":18416:18471  _balances[recipient] = _balances[recipient].add(amount) */\n      dup2\n      swap1\n      sstore\n      pop\n        /* \"contracts/Token/Token.sol\":18497:18506  recipient */\n      dup2\n        /* \"contracts/Token/Token.sol\":18480:18515  Transfer(sender, recipient, amount) */\n      0xffffffffffffffffffffffffffffffffffffffff\n      and\n        /* \"contracts/Token/Token.sol\":18489:18495  sender */\n      dup4\n        /* \"contracts/Token/Token.sol\":18480:18515  Transfer(sender, recipient, amount) */\n      0xffffffffffffffffffffffffffffffffffffffff\n      and\n      0xddf252ad1be2c89b69c2b068fc378daa952ba7f163c4a11628f55a4df523b3ef\n        /* \"contracts/Token/Token.sol\":18508:18514  amount */\n      dup4\n        /* \"contracts/Token/Token.sol\":18480:18515  Transfer(sender, recipient, amount) */\n      mload(0x40)\n      dup1\n      dup3\n      dup2\n      mstore\n      0x20\n      add\n      swap2\n      pop\n      pop\n      mload(0x40)\n      dup1\n      swap2\n      sub\n      swap1\n      log3\n        /* \"contracts/Token/Token.sol\":18028:18519  function _transfer(address sender, address recipient, uint256 amount) internal virtual {... */\n      pop\n      pop\n      pop\n      jump\t// out\n        /* \"contracts/Token/Token.sol\":22375:22677  function _beforeTokenTransfer(address from, address to, uint256 amount) internal virtual override {... */\n    tag_322:\n        /* \"contracts/Token/Token.sol\":22477:22521  super._beforeTokenTransfer(from, to, amount) */\n      tag_359\n        /* \"contracts/Token/Token.sol\":22504:22508  from */\n      dup4\n        /* \"contracts/Token/Token.sol\":22510:22512  to */\n      dup4\n        /* \"contracts/Token/Token.sol\":22514:22520  amount */\n      dup4\n        /* \"contracts/Token/Token.sol\":22477:22503  super._beforeTokenTransfer */\n      tag_360\n        /* \"contracts/Token/Token.sol\":22477:22521  super._beforeTokenTransfer(from, to, amount) */\n      jump\t// in\n    tag_359:\n        /* \"contracts/Token/Token.sol\":22551:22552  0 */\n      0x00\n        /* \"contracts/Token/Token.sol\":22535:22553  from == address(0) */\n      0xffffffffffffffffffffffffffffffffffffffff\n      and\n        /* \"contracts/Token/Token.sol\":22535:22539  from */\n      dup4\n        /* \"contracts/Token/Token.sol\":22535:22553  from == address(0) */\n      0xffffffffffffffffffffffffffffffffffffffff\n      and\n      eq\n        /* \"contracts/Token/Token.sol\":22531:22673  if (from == address(0)) { // When minting tokens... */\n      iszero\n      tag_361\n      jumpi\n        /* \"contracts/Token/Token.sol\":22620:22631  maxSupply() */\n      tag_362\n        /* \"contracts/Token/Token.sol\":22620:22629  maxSupply */\n      tag_145\n        /* \"contracts/Token/Token.sol\":22620:22631  maxSupply() */\n      jump\t// in\n    tag_362:\n        /* \"contracts/Token/Token.sol\":22591:22616  totalSupply().add(amount) */\n      tag_363\n        /* \"contracts/Token/Token.sol\":22609:22615  amount */\n      dup3\n        /* \"contracts/Token/Token.sol\":22591:22604  totalSupply() */\n      tag_364\n        /* \"contracts/Token/Token.sol\":22591:22602  totalSupply */\n      tag_69\n        /* \"contracts/Token/Token.sol\":22591:22604  totalSupply() */\n      jump\t// in\n    tag_364:\n        /* \"contracts/Token/Token.sol\":22591:22608  totalSupply().add */\n      tag_203\n      swap1\n        /* \"contracts/Token/Token.sol\":22591:22616  totalSupply().add(amount) */\n      swap2\n      swap1\n      0xffffffff\n      and\n      jump\t// in\n    tag_363:\n        /* \"contracts/Token/Token.sol\":22591:22631  totalSupply().add(amount) <= maxSupply() */\n      gt\n      iszero\n        /* \"contracts/Token/Token.sol\":22583:22668  require(totalSupply().add(amount) <= maxSupply(), \"ERC20Capped: max supply exceeded\") */\n      tag_365\n      jumpi\n      mload(0x40)\n      0x08c379a000000000000000000000000000000000000000000000000000000000\n      dup2\n      mstore\n      0x04\n      add\n      dup1\n      dup1\n      0x20\n      add\n      dup3\n      dup2\n      sub\n      dup3\n      mstore\n      0x20\n      dup2\n      mstore\n      0x20\n      add\n      dup1\n      0x45524332304361707065643a206d617820737570706c79206578636565646564\n      dup2\n      mstore\n      pop\n      0x20\n      add\n      swap2\n      pop\n      pop\n      mload(0x40)\n      dup1\n      swap2\n      sub\n      swap1\n      revert\n    tag_365:\n        /* \"contracts/Token/Token.sol\":22531:22673  if (from == address(0)) { // When minting tokens... */\n    tag_361:\n        /* \"contracts/Token/Token.sol\":22375:22677  function _beforeTokenTransfer(address from, address to, uint256 amount) internal virtual override {... */\n      pop\n      pop\n      pop\n      jump\t// out\n        /* \"contracts/Token/Token.sol\":4790:5035  function div(uint256 a, uint256 b, string memory errorMessage) internal pure returns (uint256) {... */\n    tag_351:\n        /* \"contracts/Token/Token.sol\":4876:4883  uint256 */\n      0x00\n        /* \"contracts/Token/Token.sol\":4901:4902  0 */\n      dup1\n        /* \"contracts/Token/Token.sol\":4897:4898  b */\n      dup4\n        /* \"contracts/Token/Token.sol\":4897:4902  b > 0 */\n      gt\n        /* \"contracts/Token/Token.sol\":4904:4916  errorMessage */\n      dup3\n        /* \"contracts/Token/Token.sol\":4889:4917  require(b > 0, errorMessage) */\n      swap1\n      tag_367\n      jumpi\n      mload(0x40)\n      0x08c379a000000000000000000000000000000000000000000000000000000000\n      dup2\n      mstore\n      0x04\n      add\n      dup1\n      dup1\n      0x20\n      add\n      dup3\n      dup2\n      sub\n      dup3\n      mstore\n      dup4\n      dup2\n      dup2\n      mload\n      dup2\n      mstore\n      0x20\n      add\n      swap2\n      pop\n      dup1\n      mload\n      swap1\n      0x20\n      add\n      swap1\n      dup1\n      dup4\n      dup4\n      0x00\n    tag_368:\n      dup4\n      dup2\n      lt\n      iszero\n      tag_370\n      jumpi\n      dup1\n      dup3\n      add\n      mload\n      dup2\n      dup5\n      add\n      mstore\n      0x20\n      dup2\n      add\n      swap1\n      pop\n      jump(tag_368)\n    tag_370:\n      pop\n      pop\n      pop\n      pop\n      swap1\n      pop\n      swap1\n      dup2\n      add\n      swap1\n      0x1f\n      and\n      dup1\n      iszero\n      tag_371\n      jumpi\n      dup1\n      dup3\n      sub\n      dup1\n      mload\n      0x01\n      dup4\n      0x20\n      sub\n      0x0100\n      exp\n      sub\n      not\n      and\n      dup2\n      mstore\n      0x20\n      add\n      swap2\n      pop\n    tag_371:\n      pop\n      swap3\n      pop\n      pop\n      pop\n      mload(0x40)\n      dup1\n      swap2\n      sub\n      swap1\n      revert\n    tag_367:\n      pop\n        /* \"contracts/Token/Token.sol\":4921:4930  uint256 c */\n      0x00\n        /* \"contracts/Token/Token.sol\":4937:4938  b */\n      dup4\n        /* \"contracts/Token/Token.sol\":4933:4934  a */\n      dup6\n        /* \"contracts/Token/Token.sol\":4933:4938  a / b */\n      dup2\n      tag_372\n      jumpi\n      invalid\n    tag_372:\n      div\n        /* \"contracts/Token/Token.sol\":4921:4938  uint256 c = a / b */\n      swap1\n      pop\n        /* \"contracts/Token/Token.sol\":5030:5031  c */\n      dup1\n        /* \"contracts/Token/Token.sol\":5023:5031  return c */\n      swap2\n      pop\n      pop\n        /* \"contracts/Token/Token.sol\":4790:5035  function div(uint256 a, uint256 b, string memory errorMessage) internal pure returns (uint256) {... */\n      swap4\n      swap3\n      pop\n      pop\n      pop\n      jump\t// out\n        /* \"contracts/Token/Token.sol\":19640:19813  function _beforeTokenTransfer(address from, address to, uint256 amount) internal virtual {... */\n    tag_360:\n        /* \"contracts/Token/Token.sol\":19760:19766  amount */\n      dup1\n        /* \"contracts/Token/Token.sol\":19741:19750  _balances */\n      0x05\n        /* \"contracts/Token/Token.sol\":19741:19756  _balances[from] */\n      0x00\n        /* \"contracts/Token/Token.sol\":19751:19755  from */\n      dup6\n        /* \"contracts/Token/Token.sol\":19741:19756  _balances[from] */\n      0xffffffffffffffffffffffffffffffffffffffff\n      and\n      0xffffffffffffffffffffffffffffffffffffffff\n      and\n      dup2\n      mstore\n      0x20\n      add\n      swap1\n      dup2\n      mstore\n      0x20\n      add\n      0x00\n      keccak256\n      sload\n        /* \"contracts/Token/Token.sol\":19741:19766  _balances[from] >= amount */\n      lt\n      iszero\n        /* \"contracts/Token/Token.sol\":19733:19809  require(_balances[from] >= amount, \"ERC20: transfer amount exceeds balance\") */\n      tag_374\n      jumpi\n      mload(0x40)\n      0x08c379a000000000000000000000000000000000000000000000000000000000\n      dup2\n      mstore\n      0x04\n      add\n      dup1\n      dup1\n      0x20\n      add\n      dup3\n      dup2\n      sub\n      dup3\n      mstore\n      0x26\n      dup2\n      mstore\n      0x20\n      add\n      dup1\n      data_4107e8a8b9e94bf8ff83080ddec1c0bffe897ebc2241b89d44f66b3d274088b6\n      0x26\n      swap2\n      codecopy\n      0x40\n      add\n      swap2\n      pop\n      pop\n      mload(0x40)\n      dup1\n      swap2\n      sub\n      swap1\n      revert\n    tag_374:\n        /* \"contracts/Token/Token.sol\":19640:19813  function _beforeTokenTransfer(address from, address to, uint256 amount) internal virtual {... */\n      pop\n      pop\n      pop\n      jump\t// out\n    stop\n    data_0557e210f7a69a685100a7e4e3d0a7024c546085cee28910fd17d0b081d9516f 45524332303a207472616e7366657220746f20746865207a65726f2061646472657373\n    data_083eca151a4ced7bf5544a897b9e8b3e2620a9b6dc6feb44e1e78751a86936c5 45524332303a206d656c742066726f6d2074686520616464726573733a2062616c616e6365203c20616d6f756e74\n    data_149b126e7125232b4200af45303d04fba8b74653b1a295a6a561a528c33fefdd 45524332303a206275726e20616d6f756e7420657863656564732062616c616e6365\n    data_1c85aa0d8454e1548e88ea9f2bb8a0c43a1bd6e50657077b5d1b08b8d2a4db7b 45524332303a206d696e742066726f7a656e20746f20746865207a65726f2061646472657373\n    data_245f15ff17f551913a7a18385165551503906a406f905ac1c2437281a7cd0cfe 4f776e61626c653a206e6577206f776e657220697320746865207a65726f2061646472657373\n    data_24883cc5fe64ace9d0df1893501ecb93c77180f0ff69cca79affb3c316dc8029 45524332303a20617070726f766520746f20746865207a65726f2061646472657373\n    data_25a82e711965e24b472dea6cec5774ce13441ffeaf1c79cde67f510141497dff 45524332303a206d696e742066726f7a656e20746f2074686520636f6e74726163742061646472657373\n    data_4107e8a8b9e94bf8ff83080ddec1c0bffe897ebc2241b89d44f66b3d274088b6 45524332303a207472616e7366657220616d6f756e7420657863656564732062616c616e6365\n    data_5b7675e6fbaaaa420cafac78b556823238257a970a02bf57ab4957860eac80bc 45524332303a206d656c742066726f6d2074686520616464726573733a2076616c75652073686f756c64206265203e2030\n    data_631213ea213f1c5b9a2a47b03459ea7035848ced11625b3e078a63e304817988 45524332303a206d696e742066726f7a656e20616d6f756e742073686f756c64206265203e2030\n    data_9113bb53c2876a3805b2c9242029423fc540a728243ce887ab24c82cf119fba3 536166654d6174683a206d756c7469706c69636174696f6e206f766572666c6f77\n    data_974d1b4421da69cc60b481194f0dad36a5bb4e23da810da7a7fb30cdba178330 45524332303a207472616e7366657220616d6f756e74206578636565647320616c6c6f77616e6365\n    data_a287c363786607a1457a2d9d12fa61c0073358e02d76b4035fc2c2d86a19c0db 45524332303a206275726e20616d6f756e74206578636565647320616c6c6f77616e6365\n    data_ae19d5a04ea56a14e1c0edb4dc7bdb92df00299e61ae2aaa6c13d35ea071495b 45524332303a206d656c742066726f6d20746865207a65726f2061646472657373\n    data_b16788493b576042bb52c50ed56189e0b250db113c7bfb1c3897d25cf9632d7f 45524332303a206275726e2066726f6d20746865207a65726f2061646472657373\n    data_b7b21078a467b814181da2d09cb3afdeca16ec86fc8c1496bf091b24158c0663 45524332303a2066726f7a656e206275726e2066726f6d20746865207a65726f2061646472657373\n    data_baecc556b46f4ed0f2b4cb599d60785ac8563dd2dc0a5bf12edea1c39e5e1fea 45524332303a207472616e736665722066726f6d20746865207a65726f2061646472657373\n    data_c953f4879035ed60e766b34720f656aab5c697b141d924c283124ecedb91c208 45524332303a20617070726f76652066726f6d20746865207a65726f2061646472657373\n    data_dcdad2652796fc64e805bbf7adf0bc0a565a5d4a577f7ae44ee7ec82e235ba99 63616c6c6572206e6f7420612070656e64696e67206d656c7465722061646d696e\n    data_f8b476f7d28209d77d4a4ac1fe36b9f8259aa1bb6bddfa6e89de7e51615cf8a8 45524332303a2064656372656173656420616c6c6f77616e63652062656c6f77207a65726f\n\n    auxdata: 0xa2646970667358221220a79615b4a5f1ed52e14c4afe310ae33a27efe058b32534cc62c63c73169efe9364736f6c634300060c0033\n}\n",
				"bytecode": {
					"linkReferences": {},
					"object": "6080604052738492cbd894686d7e98214541903c7ba6f94928d6600b60016101000a81548173ffffffffffffffffffffffffffffffffffffffff021916908373ffffffffffffffffffffffffffffffffffffffff16021790555073a4ed7aa4ef5deb0a63e97d9cb77445ae553feb1d600c60006101000a81548173ffffffffffffffffffffffffffffffffffffffff021916908373ffffffffffffffffffffffffffffffffffffffff16021790555073e061915592536656a92b9fd59e46b19ef920692f600d60006101000a81548173ffffffffffffffffffffffffffffffffffffffff021916908373ffffffffffffffffffffffffffffffffffffffff1602179055503480156200011057600080fd5b506040518060400160405280600a81526020017f576f726c642053746570000000000000000000000000000000000000000000008152506040518060400160405280600381526020017f575350000000000000000000000000000000000000000000000000000000000081525066038d7ea4c68000806000620001986200053d60201b60201c565b905080600160006101000a81548173ffffffffffffffffffffffffffffffffffffffff021916908373ffffffffffffffffffffffffffffffffffffffff1602179055508073ffffffffffffffffffffffffffffffffffffffff16600073ffffffffffffffffffffffffffffffffffffffff167f8be0079c531659141344cd1fd0a4f28419497f9722a3daafe3b4186f6b6457e060405160405180910390a35033600360006101000a81548173ffffffffffffffffffffffffffffffffffffffff021916908373ffffffffffffffffffffffffffffffffffffffff1602179055506001600260003373ffffffffffffffffffffffffffffffffffffffff1673ffffffffffffffffffffffffffffffffffffffff16815260200190815260200160002060006101000a81548160ff0219169083151502179055508360099080519060200190620002e89291906200056f565b5082600a9080519060200190620003019291906200056f565b506006600b60006101000a81548160ff021916908360ff160217905550816008819055508060078190555080600560003373ffffffffffffffffffffffffffffffffffffffff1673ffffffffffffffffffffffffffffffffffffffff16815260200190815260200160002081905550505050506004600e819055506001600f819055506001601160006200039a6200054560201b60201c565b73ffffffffffffffffffffffffffffffffffffffff1673ffffffffffffffffffffffffffffffffffffffff16815260200190815260200160002060006101000a81548160ff0219169083151502179055506001601160003073ffffffffffffffffffffffffffffffffffffffff1673ffffffffffffffffffffffffffffffffffffffff16815260200190815260200160002060006101000a81548160ff021916908315150217905550600160116000600b60019054906101000a900473ffffffffffffffffffffffffffffffffffffffff1673ffffffffffffffffffffffffffffffffffffffff1673ffffffffffffffffffffffffffffffffffffffff16815260200190815260200160002060006101000a81548160ff021916908315150217905550600160116000600c60009054906101000a900473ffffffffffffffffffffffffffffffffffffffff1673ffffffffffffffffffffffffffffffffffffffff1673ffffffffffffffffffffffffffffffffffffffff16815260200190815260200160002060006101000a81548160ff02191690831515021790555062000615565b600033905090565b6000600160009054906101000a900473ffffffffffffffffffffffffffffffffffffffff16905090565b828054600181600116156101000203166002900490600052602060002090601f016020900481019282601f10620005b257805160ff1916838001178555620005e3565b82800160010185558215620005e3579182015b82811115620005e2578251825591602001919060010190620005c5565b5b509050620005f29190620005f6565b5090565b5b8082111562000611576000816000905550600101620005f7565b5090565b613ffe80620006256000396000f3fe608060405234801561001057600080fd5b506004361061023d5760003560e01c806359d0f7131161013b578063a457c2d7116100b8578063d5abeb011161007c578063d5abeb0114610b7f578063d8da5ce914610b9d578063dd62ed3e14610be1578063e50d318014610c59578063f2fde38b14610cdd5761023d565b8063a457c2d7146109f1578063a9059cbb14610a55578063c4157b2914610ab9578063c5cc6b6a14610b1d578063c9c5179c14610b515761023d565b80638da5cb5b116100ff5780638da5cb5b1461085a5780638fe8cf241461088e57806391116d67146108d257806395d89b4114610916578063a0821be3146109995761023d565b806359d0f7131461072c578063707662801461076057806370a0823114610794578063715018a6146107ec57806379cc6790146107f65761023d565b806323b872dd116101c957806340c10f191161018d57806340c10f191461060457806342966c6814610652578063483a8df91461069657806349bd5a5e146106da57806352ea6e021461070e5761023d565b806323b872dd14610499578063313ce5671461051d57806335cde1ce1461053e5780633727a4261461057257806339509351146105a05761023d565b80631694505e116102105780631694505e146103ab578063171177b3146103df57806318160ddd1461042d5780631e57a2b21461044b578063238fd731146104555761023d565b806306fdde0314610242578063095ea7b3146102c55780630a9adf05146103295780630c15f60114610347575b600080fd5b61024a610d21565b6040518080602001828103825283818151815260200191508051906020019080838360005b8381101561028a57808201518184015260208101905061026f565b50505050905090810190601f1680156102b75780820380516001836020036101000a031916815260200191505b509250505060405180910390f35b610311600480360360408110156102db57600080fd5b81019080803573ffffffffffffffffffffffffffffffffffffffff16906020019092919080359060200190929190505050610dc3565b60405180821515815260200191505060405180910390f35b610331610de1565b6040518082815260200191505060405180910390f35b6103936004803603604081101561035d57600080fd5b81019080803573ffffffffffffffffffffffffffffffffffffffff16906020019092919080359060200190929190505050610de7565b60405180821515815260200191505060405180910390f35b6103b3610ec3565b604051808273ffffffffffffffffffffffffffffffffffffffff16815260200191505060405180910390f35b61042b600480360360408110156103f557600080fd5b81019080803573ffffffffffffffffffffffffffffffffffffffff16906020019092919080359060200190929190505050610ee9565b005b610435610fbd565b6040518082815260200191505060405180910390f35b610453610fc7565b005b6104976004803603602081101561046b57600080fd5b81019080803573ffffffffffffffffffffffffffffffffffffffff1690602001909291905050506111b2565b005b610505600480360360608110156104af57600080fd5b81019080803573ffffffffffffffffffffffffffffffffffffffff169060200190929190803573ffffffffffffffffffffffffffffffffffffffff169060200190929190803590602001909291905050506112d0565b60405180821515815260200191505060405180910390f35b6105256113a9565b604051808260ff16815260200191505060405180910390f35b6105466113c0565b604051808273ffffffffffffffffffffffffffffffffffffffff16815260200191505060405180910390f35b61059e6004803603602081101561058857600080fd5b81019080803590602001909291905050506113ea565b005b6105ec600480360360408110156105b657600080fd5b81019080803573ffffffffffffffffffffffffffffffffffffffff169060200190929190803590602001909291905050506114be565b60405180821515815260200191505060405180910390f35b6106506004803603604081101561061a57600080fd5b81019080803573ffffffffffffffffffffffffffffffffffffffff16906020019092919080359060200190929190505050611571565b005b61067e6004803603602081101561066857600080fd5b8101908080359060200190929190505050611649565b60405180821515815260200191505060405180910390f35b6106d8600480360360208110156106ac57600080fd5b81019080803573ffffffffffffffffffffffffffffffffffffffff169060200190929190505050611665565b005b6106e261176c565b604051808273ffffffffffffffffffffffffffffffffffffffff16815260200191505060405180910390f35b610716611792565b6040518082815260200191505060405180910390f35b610734611798565b604051808273ffffffffffffffffffffffffffffffffffffffff16815260200191505060405180910390f35b6107686117be565b604051808273ffffffffffffffffffffffffffffffffffffffff16815260200191505060405180910390f35b6107d6600480360360208110156107aa57600080fd5b81019080803573ffffffffffffffffffffffffffffffffffffffff1690602001909291905050506117e4565b6040518082815260200191505060405180910390f35b6107f4611847565b005b6108426004803603604081101561080c57600080fd5b81019080803573ffffffffffffffffffffffffffffffffffffffff169060200190929190803590602001909291905050506119d2565b60405180821515815260200191505060405180910390f35b610862611a3b565b604051808273ffffffffffffffffffffffffffffffffffffffff16815260200191505060405180910390f35b6108d0600480360360208110156108a457600080fd5b81019080803573ffffffffffffffffffffffffffffffffffffffff169060200190929190505050611a65565b005b610914600480360360208110156108e857600080fd5b81019080803573ffffffffffffffffffffffffffffffffffffffff169060200190929190505050611b81565b005b61091e611ca6565b6040518080602001828103825283818151815260200191508051906020019080838360005b8381101561095e578082015181840152602081019050610943565b50505050905090810190601f16801561098b5780820380516001836020036101000a031916815260200191505b509250505060405180910390f35b6109db600480360360208110156109af57600080fd5b81019080803573ffffffffffffffffffffffffffffffffffffffff169060200190929190505050611d48565b6040518082815260200191505060405180910390f35b610a3d60048036036040811015610a0757600080fd5b81019080803573ffffffffffffffffffffffffffffffffffffffff16906020019092919080359060200190929190505050611d91565b60405180821515815260200191505060405180910390f35b610aa160048036036040811015610a6b57600080fd5b81019080803573ffffffffffffffffffffffffffffffffffffffff16906020019092919080359060200190929190505050611e5e565b60405180821515815260200191505060405180910390f35b610b0560048036036040811015610acf57600080fd5b81019080803573ffffffffffffffffffffffffffffffffffffffff16906020019092919080359060200190929190505050611e7c565b60405180821515815260200191505060405180910390f35b610b25611f58565b604051808273ffffffffffffffffffffffffffffffffffffffff16815260200191505060405180910390f35b610b7d60048036036020811015610b6757600080fd5b8101908080359060200190929190505050611f7e565b005b610b87612052565b6040518082815260200191505060405180910390f35b610bdf60048036036020811015610bb357600080fd5b81019080803573ffffffffffffffffffffffffffffffffffffffff16906020019092919050505061205c565b005b610c4360048036036040811015610bf757600080fd5b81019080803573ffffffffffffffffffffffffffffffffffffffff169060200190929190803573ffffffffffffffffffffffffffffffffffffffff16906020019092919050505061217a565b6040518082815260200191505060405180910390f35b610cc560048036036060811015610c6f57600080fd5b81019080803573ffffffffffffffffffffffffffffffffffffffff169060200190929190803573ffffffffffffffffffffffffffffffffffffffff16906020019092919080359060200190929190505050612201565b60405180821515815260200191505060405180910390f35b610d1f60048036036020811015610cf357600080fd5b81019080803573ffffffffffffffffffffffffffffffffffffffff1690602001909291905050506124c0565b005b606060098054600181600116156101000203166002900480601f016020809104026020016040519081016040528092919081815260200182805460018160011615610100020316600290048015610db95780601f10610d8e57610100808354040283529160200191610db9565b820191906000526020600020905b815481529060010190602001808311610d9c57829003601f168201915b5050505050905090565b6000610dd7610dd06126d0565b84846126d8565b6001905092915050565b600e5481565b600060011515600260003373ffffffffffffffffffffffffffffffffffffffff1673ffffffffffffffffffffffffffffffffffffffff16815260200190815260200160002060009054906101000a900460ff16151514610eaf576040517f08c379a00000000000000000000000000000000000000000000000000000000081526004018080602001828103825260128152602001807f63616e277420706572666f726d206d656c74000000000000000000000000000081525060200191505060405180910390fd5b610eb983836128cf565b6001905092915050565b601260009054906101000a900473ffffffffffffffffffffffffffffffffffffffff1681565b60011515600260003373ffffffffffffffffffffffffffffffffffffffff1673ffffffffffffffffffffffffffffffffffffffff16815260200190815260200160002060009054906101000a900460ff16151514610faf576040517f08c379a00000000000000000000000000000000000000000000000000000000081526004018080602001828103825260128152602001807f63616e277420706572666f726d206d656c74000000000000000000000000000081525060200191505060405180910390fd5b610fb98282612b01565b5050565b6000600754905090565b600460009054906101000a900473ffffffffffffffffffffffffffffffffffffffff1673ffffffffffffffffffffffffffffffffffffffff163373ffffffffffffffffffffffffffffffffffffffff161461106d576040517f08c379a0000000000000000000000000000000000000000000000000000000008152600401808060200182810382526021815260200180613f836021913960400191505060405180910390fd5b600460009054906101000a900473ffffffffffffffffffffffffffffffffffffffff1673ffffffffffffffffffffffffffffffffffffffff16600360009054906101000a900473ffffffffffffffffffffffffffffffffffffffff1673ffffffffffffffffffffffffffffffffffffffff167f2e564b778e0bd386914daff857c4db4480f555c393032a2f0ab2d62de42c297760405160405180910390a3600460009054906101000a900473ffffffffffffffffffffffffffffffffffffffff16600360006101000a81548173ffffffffffffffffffffffffffffffffffffffff021916908373ffffffffffffffffffffffffffffffffffffffff1602179055506000600460006101000a81548173ffffffffffffffffffffffffffffffffffffffff021916908373ffffffffffffffffffffffffffffffffffffffff160217905550565b600360009054906101000a900473ffffffffffffffffffffffffffffffffffffffff1673ffffffffffffffffffffffffffffffffffffffff163373ffffffffffffffffffffffffffffffffffffffff1614611275576040517f08c379a00000000000000000000000000000000000000000000000000000000081526004018080602001828103825260198152602001807f63616c6c6572206e6f742061206d656c7465722061646d696e0000000000000081525060200191505060405180910390fd5b6000600260008373ffffffffffffffffffffffffffffffffffffffff1673ffffffffffffffffffffffffffffffffffffffff16815260200190815260200160002060006101000a81548160ff02191690831515021790555050565b60006112dd848484612c16565b61139e846112e96126d0565b61139985604051806060016040528060288152602001613e8460289139600660008b73ffffffffffffffffffffffffffffffffffffffff1673ffffffffffffffffffffffffffffffffffffffff168152602001908152602001600020600061134f6126d0565b73ffffffffffffffffffffffffffffffffffffffff1673ffffffffffffffffffffffffffffffffffffffff16815260200190815260200160002054612d919092919063ffffffff16565b6126d8565b600190509392505050565b6000600b60009054906101000a900460ff16905090565b6000600360009054906101000a900473ffffffffffffffffffffffffffffffffffffffff16905090565b6113f26126d0565b73ffffffffffffffffffffffffffffffffffffffff16600160009054906101000a900473ffffffffffffffffffffffffffffffffffffffff1673ffffffffffffffffffffffffffffffffffffffff16146114b4576040517f08c379a00000000000000000000000000000000000000000000000000000000081526004018080602001828103825260208152602001807f4f776e61626c653a2063616c6c6572206973206e6f7420746865206f776e657281525060200191505060405180910390fd5b80600f8190555050565b60006115676114cb6126d0565b8461156285600660006114dc6126d0565b73ffffffffffffffffffffffffffffffffffffffff1673ffffffffffffffffffffffffffffffffffffffff16815260200190815260200160002060008973ffffffffffffffffffffffffffffffffffffffff1673ffffffffffffffffffffffffffffffffffffffff16815260200190815260200160002054612e5190919063ffffffff16565b6126d8565b6001905092915050565b6115796126d0565b73ffffffffffffffffffffffffffffffffffffffff16600160009054906101000a900473ffffffffffffffffffffffffffffffffffffffff1673ffffffffffffffffffffffffffffffffffffffff161461163b576040517f08c379a00000000000000000000000000000000000000000000000000000000081526004018080602001828103825260208152602001807f4f776e61626c653a2063616c6c6572206973206e6f7420746865206f776e657281525060200191505060405180910390fd5b6116458282612ed9565b5050565b600061165c6116566126d0565b836130a2565b60019050919050565b600360009054906101000a900473ffffffffffffffffffffffffffffffffffffffff1673ffffffffffffffffffffffffffffffffffffffff163373ffffffffffffffffffffffffffffffffffffffff1614611728576040517f08c379a00000000000000000000000000000000000000000000000000000000081526004018080602001828103825260198152602001807f63616c6c6572206e6f742061206d656c7465722061646d696e0000000000000081525060200191505060405180910390fd5b80600460006101000a81548173ffffffffffffffffffffffffffffffffffffffff021916908373ffffffffffffffffffffffffffffffffffffffff16021790555050565b601560009054906101000a900473ffffffffffffffffffffffffffffffffffffffff1681565b600f5481565b601360009054906101000a900473ffffffffffffffffffffffffffffffffffffffff1681565b600460009054906101000a900473ffffffffffffffffffffffffffffffffffffffff1681565b60006118406117f283613268565b600560008573ffffffffffffffffffffffffffffffffffffffff1673ffffffffffffffffffffffffffffffffffffffff16815260200190815260200160002054612e5190919063ffffffff16565b9050919050565b61184f6126d0565b73ffffffffffffffffffffffffffffffffffffffff16600160009054906101000a900473ffffffffffffffffffffffffffffffffffffffff1673ffffffffffffffffffffffffffffffffffffffff1614611911576040517f08c379a00000000000000000000000000000000000000000000000000000000081526004018080602001828103825260208152602001807f4f776e61626c653a2063616c6c6572206973206e6f7420746865206f776e657281525060200191505060405180910390fd5b600073ffffffffffffffffffffffffffffffffffffffff16600160009054906101000a900473ffffffffffffffffffffffffffffffffffffffff1673ffffffffffffffffffffffffffffffffffffffff167f8be0079c531659141344cd1fd0a4f28419497f9722a3daafe3b4186f6b6457e060405160405180910390a36000600160006101000a81548173ffffffffffffffffffffffffffffffffffffffff021916908373ffffffffffffffffffffffffffffffffffffffff160217905550565b600080611a1283604051806060016040528060248152602001613eac60249139611a03876119fe6126d0565b61217a565b612d919092919063ffffffff16565b9050611a2684611a206126d0565b836126d8565b611a3084846130a2565b600191505092915050565b6000600160009054906101000a900473ffffffffffffffffffffffffffffffffffffffff16905090565b611a6d6126d0565b73ffffffffffffffffffffffffffffffffffffffff16600160009054906101000a900473ffffffffffffffffffffffffffffffffffffffff1673ffffffffffffffffffffffffffffffffffffffff1614611b2f576040517f08c379a00000000000000000000000000000000000000000000000000000000081526004018080602001828103825260208152602001807f4f776e61626c653a2063616c6c6572206973206e6f7420746865206f776e657281525060200191505060405180910390fd5b601060008273ffffffffffffffffffffffffffffffffffffffff1673ffffffffffffffffffffffffffffffffffffffff16815260200190815260200160002060006101000a81549060ff021916905550565b611b896126d0565b73ffffffffffffffffffffffffffffffffffffffff16600160009054906101000a900473ffffffffffffffffffffffffffffffffffffffff1673ffffffffffffffffffffffffffffffffffffffff1614611c4b576040517f08c379a00000000000000000000000000000000000000000000000000000000081526004018080602001828103825260208152602001807f4f776e61626c653a2063616c6c6572206973206e6f7420746865206f776e657281525060200191505060405180910390fd5b6001601060008373ffffffffffffffffffffffffffffffffffffffff1673ffffffffffffffffffffffffffffffffffffffff16815260200190815260200160002060006101000a81548160ff02191690831515021790555050565b6060600a8054600181600116156101000203166002900480601f016020809104026020016040519081016040528092919081815260200182805460018160011615610100020316600290048015611d3e5780601f10611d1357610100808354040283529160200191611d3e565b820191906000526020600020905b815481529060010190602001808311611d2157829003601f168201915b5050505050905090565b6000600560008373ffffffffffffffffffffffffffffffffffffffff1673ffffffffffffffffffffffffffffffffffffffff168152602001908152602001600020549050919050565b6000611e54611d9e6126d0565b84611e4f85604051806060016040528060258152602001613fa46025913960066000611dc86126d0565b73ffffffffffffffffffffffffffffffffffffffff1673ffffffffffffffffffffffffffffffffffffffff16815260200190815260200160002060008a73ffffffffffffffffffffffffffffffffffffffff1673ffffffffffffffffffffffffffffffffffffffff16815260200190815260200160002054612d919092919063ffffffff16565b6126d8565b6001905092915050565b6000611e72611e6b6126d0565b8484612c16565b6001905092915050565b600060011515600260003373ffffffffffffffffffffffffffffffffffffffff1673ffffffffffffffffffffffffffffffffffffffff16815260200190815260200160002060009054906101000a900460ff16151514611f44576040517f08c379a00000000000000000000000000000000000000000000000000000000081526004018080602001828103825260128152602001807f63616e277420706572666f726d206d656c74000000000000000000000000000081525060200191505060405180910390fd5b611f4e83836132b0565b6001905092915050565b601460009054906101000a900473ffffffffffffffffffffffffffffffffffffffff1681565b611f866126d0565b73ffffffffffffffffffffffffffffffffffffffff16600160009054906101000a900473ffffffffffffffffffffffffffffffffffffffff1673ffffffffffffffffffffffffffffffffffffffff1614612048576040517f08c379a00000000000000000000000000000000000000000000000000000000081526004018080602001828103825260208152602001807f4f776e61626c653a2063616c6c6572206973206e6f7420746865206f776e657281525060200191505060405180910390fd5b80600e8190555050565b6000600854905090565b600360009054906101000a900473ffffffffffffffffffffffffffffffffffffffff1673ffffffffffffffffffffffffffffffffffffffff163373ffffffffffffffffffffffffffffffffffffffff161461211f576040517f08c379a00000000000000000000000000000000000000000000000000000000081526004018080602001828103825260198152602001807f63616c6c6572206e6f742061206d656c7465722061646d696e0000000000000081525060200191505060405180910390fd5b6001600260008373ffffffffffffffffffffffffffffffffffffffff1673ffffffffffffffffffffffffffffffffffffffff16815260200190815260200160002060006101000a81548160ff02191690831515021790555050565b6000600660008473ffffffffffffffffffffffffffffffffffffffff1673ffffffffffffffffffffffffffffffffffffffff16815260200190815260200160002060008373ffffffffffffffffffffffffffffffffffffffff1673ffffffffffffffffffffffffffffffffffffffff16815260200190815260200160002054905092915050565b600060011515600260003373ffffffffffffffffffffffffffffffffffffffff1673ffffffffffffffffffffffffffffffffffffffff16815260200190815260200160002060009054906101000a900460ff161515146122c9576040517f08c379a00000000000000000000000000000000000000000000000000000000081526004018080602001828103825260128152602001807f63616e277420706572666f726d206d656c74000000000000000000000000000081525060200191505060405180910390fd5b600073ffffffffffffffffffffffffffffffffffffffff168473ffffffffffffffffffffffffffffffffffffffff16141561234f576040517f08c379a0000000000000000000000000000000000000000000000000000000008152600401808060200182810382526025815260200180613f3a6025913960400191505060405180910390fd5b600073ffffffffffffffffffffffffffffffffffffffff168373ffffffffffffffffffffffffffffffffffffffff1614156123d5576040517f08c379a0000000000000000000000000000000000000000000000000000000008152600401808060200182810382526023815260200180613cda6023913960400191505060405180910390fd5b6123df848361357d565b506123ea838361361c565b508273ffffffffffffffffffffffffffffffffffffffff168473ffffffffffffffffffffffffffffffffffffffff167f9958976925baa403abf86afa44976a9effff3e01931eafd0ea2689f40852fd59846040518082815260200191505060405180910390a38273ffffffffffffffffffffffffffffffffffffffff168473ffffffffffffffffffffffffffffffffffffffff167fddf252ad1be2c89b69c2b068fc378daa952ba7f163c4a11628f55a4df523b3ef846040518082815260200191505060405180910390a3600190509392505050565b6124c86126d0565b73ffffffffffffffffffffffffffffffffffffffff16600160009054906101000a900473ffffffffffffffffffffffffffffffffffffffff1673ffffffffffffffffffffffffffffffffffffffff161461258a576040517f08c379a00000000000000000000000000000000000000000000000000000000081526004018080602001828103825260208152602001807f4f776e61626c653a2063616c6c6572206973206e6f7420746865206f776e657281525060200191505060405180910390fd5b600073ffffffffffffffffffffffffffffffffffffffff168173ffffffffffffffffffffffffffffffffffffffff161415612610576040517f08c379a0000000000000000000000000000000000000000000000000000000008152600401808060200182810382526026815260200180613d736026913960400191505060405180910390fd5b8073ffffffffffffffffffffffffffffffffffffffff16600160009054906101000a900473ffffffffffffffffffffffffffffffffffffffff1673ffffffffffffffffffffffffffffffffffffffff167f8be0079c531659141344cd1fd0a4f28419497f9722a3daafe3b4186f6b6457e060405160405180910390a380600160006101000a81548173ffffffffffffffffffffffffffffffffffffffff021916908373ffffffffffffffffffffffffffffffffffffffff16021790555050565b600033905090565b600073ffffffffffffffffffffffffffffffffffffffff168373ffffffffffffffffffffffffffffffffffffffff16141561275e576040517f08c379a0000000000000000000000000000000000000000000000000000000008152600401808060200182810382526024815260200180613f5f6024913960400191505060405180910390fd5b600073ffffffffffffffffffffffffffffffffffffffff168273ffffffffffffffffffffffffffffffffffffffff1614156127e4576040517f08c379a0000000000000000000000000000000000000000000000000000000008152600401808060200182810382526022815260200180613d996022913960400191505060405180910390fd5b80600660008573ffffffffffffffffffffffffffffffffffffffff1673ffffffffffffffffffffffffffffffffffffffff16815260200190815260200160002060008473ffffffffffffffffffffffffffffffffffffffff1673ffffffffffffffffffffffffffffffffffffffff168152602001908152602001600020819055508173ffffffffffffffffffffffffffffffffffffffff168373ffffffffffffffffffffffffffffffffffffffff167f8c5be1e5ebec7d5bd14f71427d1e84f3dd0314c0f7b2291e5b200ac8c7c3b925836040518082815260200191505060405180910390a3505050565b600073ffffffffffffffffffffffffffffffffffffffff168273ffffffffffffffffffffffffffffffffffffffff161415612955576040517f08c379a0000000000000000000000000000000000000000000000000000000008152600401808060200182810382526021815260200180613ed06021913960400191505060405180910390fd5b600081116129ae576040517f08c379a0000000000000000000000000000000000000000000000000000000008152600401808060200182810382526031815260200180613e0b6031913960400191505060405180910390fd5b806129b883613268565b1015612a0f576040517f08c379a000000000000000000000000000000000000000000000000000000000815260040180806020018281038252602e815260200180613cfd602e913960400191505060405180910390fd5b612a19828261357d565b508173ffffffffffffffffffffffffffffffffffffffff167f36a0b989202af25b5d49a593a1dd43461453ef93a93a7846ea3dbb487e119800826040518082815260200191505060405180910390a2612aba81600560008573ffffffffffffffffffffffffffffffffffffffff1673ffffffffffffffffffffffffffffffffffffffff16815260200190815260200160002054612e5190919063ffffffff16565b600560008473ffffffffffffffffffffffffffffffffffffffff1673ffffffffffffffffffffffffffffffffffffffff168152602001908152602001600020819055505050565b600073ffffffffffffffffffffffffffffffffffffffff168273ffffffffffffffffffffffffffffffffffffffff161415612b87576040517f08c379a0000000000000000000000000000000000000000000000000000000008152600401808060200182810382526028815260200180613f126028913960400191505060405180910390fd5b612b9c816007546136bb90919063ffffffff16565b600781905550612bac828261357d565b503073ffffffffffffffffffffffffffffffffffffffff168273ffffffffffffffffffffffffffffffffffffffff167fddf252ad1be2c89b69c2b068fc378daa952ba7f163c4a11628f55a4df523b3ef836040518082815260200191505060405180910390a35050565b6000600e54118015612c78575060011515601060008473ffffffffffffffffffffffffffffffffffffffff1673ffffffffffffffffffffffffffffffffffffffff16815260200190815260200160002060009054906101000a900460ff161515145b8015612cb15750600073ffffffffffffffffffffffffffffffffffffffff168273ffffffffffffffffffffffffffffffffffffffff1614155b8015612d0c5750600073ffffffffffffffffffffffffffffffffffffffff16600b60019054906101000a900473ffffffffffffffffffffffffffffffffffffffff1673ffffffffffffffffffffffffffffffffffffffff1614155b15612d81576000612d3b6064612d2d600e548561370590919063ffffffff16565b61378b90919063ffffffff16565b9050612d6a84600b60019054906101000a900473ffffffffffffffffffffffffffffffffffffffff16836137d5565b612d7d81836136bb90919063ffffffff16565b9150505b612d8c8383836137d5565b505050565b6000838311158290612e3e576040517f08c379a00000000000000000000000000000000000000000000000000000000081526004018080602001828103825283818151815260200191508051906020019080838360005b83811015612e03578082015181840152602081019050612de8565b50505050905090810190601f168015612e305780820380516001836020036101000a031916815260200191505b509250505060405180910390fd5b5060008385039050809150509392505050565b600080828401905083811015612ecf576040517f08c379a000000000000000000000000000000000000000000000000000000000815260040180806020018281038252601b8152602001807f536166654d6174683a206164646974696f6e206f766572666c6f77000000000081525060200191505060405180910390fd5b8091505092915050565b600073ffffffffffffffffffffffffffffffffffffffff168273ffffffffffffffffffffffffffffffffffffffff161415612f7c576040517f08c379a000000000000000000000000000000000000000000000000000000000815260040180806020018281038252601f8152602001807f45524332303a206d696e7420746f20746865207a65726f20616464726573730081525060200191505060405180910390fd5b612f8860008383613a9a565b612f9d81600754612e5190919063ffffffff16565b600781905550612ff581600560008573ffffffffffffffffffffffffffffffffffffffff1673ffffffffffffffffffffffffffffffffffffffff16815260200190815260200160002054612e5190919063ffffffff16565b600560008473ffffffffffffffffffffffffffffffffffffffff1673ffffffffffffffffffffffffffffffffffffffff168152602001908152602001600020819055508173ffffffffffffffffffffffffffffffffffffffff16600073ffffffffffffffffffffffffffffffffffffffff167fddf252ad1be2c89b69c2b068fc378daa952ba7f163c4a11628f55a4df523b3ef836040518082815260200191505060405180910390a35050565b600073ffffffffffffffffffffffffffffffffffffffff168273ffffffffffffffffffffffffffffffffffffffff161415613128576040517f08c379a0000000000000000000000000000000000000000000000000000000008152600401808060200182810382526021815260200180613ef16021913960400191505060405180910390fd5b61313482600083613a9a565b6131a081604051806060016040528060228152602001613d2b60229139600560008673ffffffffffffffffffffffffffffffffffffffff1673ffffffffffffffffffffffffffffffffffffffff16815260200190815260200160002054612d919092919063ffffffff16565b600560008473ffffffffffffffffffffffffffffffffffffffff1673ffffffffffffffffffffffffffffffffffffffff168152602001908152602001600020819055506131f8816007546136bb90919063ffffffff16565b600781905550600073ffffffffffffffffffffffffffffffffffffffff168273ffffffffffffffffffffffffffffffffffffffff167fddf252ad1be2c89b69c2b068fc378daa952ba7f163c4a11628f55a4df523b3ef836040518082815260200191505060405180910390a35050565b60008060008373ffffffffffffffffffffffffffffffffffffffff1673ffffffffffffffffffffffffffffffffffffffff168152602001908152602001600020549050919050565b600073ffffffffffffffffffffffffffffffffffffffff168273ffffffffffffffffffffffffffffffffffffffff161415613336576040517f08c379a0000000000000000000000000000000000000000000000000000000008152600401808060200182810382526026815260200180613d4d6026913960400191505060405180910390fd5b3073ffffffffffffffffffffffffffffffffffffffff168273ffffffffffffffffffffffffffffffffffffffff1614156133bb576040517f08c379a000000000000000000000000000000000000000000000000000000000815260040180806020018281038252602a815260200180613dbb602a913960400191505060405180910390fd5b60008111613414576040517f08c379a0000000000000000000000000000000000000000000000000000000008152600401808060200182810382526027815260200180613e3c6027913960400191505060405180910390fd5b60085461342c82600754612e5190919063ffffffff16565b11156134a0576040517f08c379a00000000000000000000000000000000000000000000000000000000081526004018080602001828103825260208152602001807f45524332304361707065643a206d617820737570706c7920657863656564656481525060200191505060405180910390fd5b6134b581600754612e5190919063ffffffff16565b6007819055508173ffffffffffffffffffffffffffffffffffffffff163073ffffffffffffffffffffffffffffffffffffffff167fddf252ad1be2c89b69c2b068fc378daa952ba7f163c4a11628f55a4df523b3ef836040518082815260200191505060405180910390a361352a828261361c565b508173ffffffffffffffffffffffffffffffffffffffff167fba89ad6709373f454c31524e8c39cef3cdd4b0e8cfde0ccddbd419a2e488be6b826040518082815260200191505060405180910390a25050565b60006135d0826000808673ffffffffffffffffffffffffffffffffffffffff1673ffffffffffffffffffffffffffffffffffffffff168152602001908152602001600020546136bb90919063ffffffff16565b6000808573ffffffffffffffffffffffffffffffffffffffff1673ffffffffffffffffffffffffffffffffffffffff168152602001908152602001600020819055506001905092915050565b600061366f826000808673ffffffffffffffffffffffffffffffffffffffff1673ffffffffffffffffffffffffffffffffffffffff16815260200190815260200160002054612e5190919063ffffffff16565b6000808573ffffffffffffffffffffffffffffffffffffffff1673ffffffffffffffffffffffffffffffffffffffff168152602001908152602001600020819055506001905092915050565b60006136fd83836040518060400160405280601e81526020017f536166654d6174683a207375627472616374696f6e206f766572666c6f770000815250612d91565b905092915050565b6000808314156137185760009050613785565b600082840290508284828161372957fe5b0414613780576040517f08c379a0000000000000000000000000000000000000000000000000000000008152600401808060200182810382526021815260200180613e636021913960400191505060405180910390fd5b809150505b92915050565b60006137cd83836040518060400160405280601a81526020017f536166654d6174683a206469766973696f6e206279207a65726f000000000000815250613b76565b905092915050565b600073ffffffffffffffffffffffffffffffffffffffff168373ffffffffffffffffffffffffffffffffffffffff16141561385b576040517f08c379a0000000000000000000000000000000000000000000000000000000008152600401808060200182810382526025815260200180613f3a6025913960400191505060405180910390fd5b600073ffffffffffffffffffffffffffffffffffffffff168273ffffffffffffffffffffffffffffffffffffffff1614156138e1576040517f08c379a0000000000000000000000000000000000000000000000000000000008152600401808060200182810382526023815260200180613cda6023913960400191505060405180910390fd5b6138ec838383613a9a565b61395881604051806060016040528060268152602001613de560269139600560008773ffffffffffffffffffffffffffffffffffffffff1673ffffffffffffffffffffffffffffffffffffffff16815260200190815260200160002054612d919092919063ffffffff16565b600560008573ffffffffffffffffffffffffffffffffffffffff1673ffffffffffffffffffffffffffffffffffffffff168152602001908152602001600020819055506139ed81600560008573ffffffffffffffffffffffffffffffffffffffff1673ffffffffffffffffffffffffffffffffffffffff16815260200190815260200160002054612e5190919063ffffffff16565b600560008473ffffffffffffffffffffffffffffffffffffffff1673ffffffffffffffffffffffffffffffffffffffff168152602001908152602001600020819055508173ffffffffffffffffffffffffffffffffffffffff168373ffffffffffffffffffffffffffffffffffffffff167fddf252ad1be2c89b69c2b068fc378daa952ba7f163c4a11628f55a4df523b3ef836040518082815260200191505060405180910390a3505050565b613aa5838383613c3c565b600073ffffffffffffffffffffffffffffffffffffffff168373ffffffffffffffffffffffffffffffffffffffff161415613b7157613ae2612052565b613afc82613aee610fbd565b612e5190919063ffffffff16565b1115613b70576040517f08c379a00000000000000000000000000000000000000000000000000000000081526004018080602001828103825260208152602001807f45524332304361707065643a206d617820737570706c7920657863656564656481525060200191505060405180910390fd5b5b505050565b60008083118290613c22576040517f08c379a00000000000000000000000000000000000000000000000000000000081526004018080602001828103825283818151815260200191508051906020019080838360005b83811015613be7578082015181840152602081019050613bcc565b50505050905090810190601f168015613c145780820380516001836020036101000a031916815260200191505b509250505060405180910390fd5b506000838581613c2e57fe5b049050809150509392505050565b80600560008573ffffffffffffffffffffffffffffffffffffffff1673ffffffffffffffffffffffffffffffffffffffff168152602001908152602001600020541015613cd4576040517f08c379a0000000000000000000000000000000000000000000000000000000008152600401808060200182810382526026815260200180613de56026913960400191505060405180910390fd5b50505056fe45524332303a207472616e7366657220746f20746865207a65726f206164647265737345524332303a206d656c742066726f6d2074686520616464726573733a2062616c616e6365203c20616d6f756e7445524332303a206275726e20616d6f756e7420657863656564732062616c616e636545524332303a206d696e742066726f7a656e20746f20746865207a65726f20616464726573734f776e61626c653a206e6577206f776e657220697320746865207a65726f206164647265737345524332303a20617070726f766520746f20746865207a65726f206164647265737345524332303a206d696e742066726f7a656e20746f2074686520636f6e7472616374206164647265737345524332303a207472616e7366657220616d6f756e7420657863656564732062616c616e636545524332303a206d656c742066726f6d2074686520616464726573733a2076616c75652073686f756c64206265203e203045524332303a206d696e742066726f7a656e20616d6f756e742073686f756c64206265203e2030536166654d6174683a206d756c7469706c69636174696f6e206f766572666c6f7745524332303a207472616e7366657220616d6f756e74206578636565647320616c6c6f77616e636545524332303a206275726e20616d6f756e74206578636565647320616c6c6f77616e636545524332303a206d656c742066726f6d20746865207a65726f206164647265737345524332303a206275726e2066726f6d20746865207a65726f206164647265737345524332303a2066726f7a656e206275726e2066726f6d20746865207a65726f206164647265737345524332303a207472616e736665722066726f6d20746865207a65726f206164647265737345524332303a20617070726f76652066726f6d20746865207a65726f206164647265737363616c6c6572206e6f7420612070656e64696e67206d656c7465722061646d696e45524332303a2064656372656173656420616c6c6f77616e63652062656c6f77207a65726fa2646970667358221220a79615b4a5f1ed52e14c4afe310ae33a27efe058b32534cc62c63c73169efe9364736f6c634300060c0033",
					"opcodes": "PUSH1 0x80 PUSH1 0x40 MSTORE PUSH20 0x8492CBD894686D7E98214541903C7BA6F94928D6 PUSH1 0xB PUSH1 0x1 PUSH2 0x100 EXP DUP2 SLOAD DUP2 PUSH20 0xFFFFFFFFFFFFFFFFFFFFFFFFFFFFFFFFFFFFFFFF MUL NOT AND SWAP1 DUP4 PUSH20 0xFFFFFFFFFFFFFFFFFFFFFFFFFFFFFFFFFFFFFFFF AND MUL OR SWAP1 SSTORE POP PUSH20 0xA4ED7AA4EF5DEB0A63E97D9CB77445AE553FEB1D PUSH1 0xC PUSH1 0x0 PUSH2 0x100 EXP DUP2 SLOAD DUP2 PUSH20 0xFFFFFFFFFFFFFFFFFFFFFFFFFFFFFFFFFFFFFFFF MUL NOT AND SWAP1 DUP4 PUSH20 0xFFFFFFFFFFFFFFFFFFFFFFFFFFFFFFFFFFFFFFFF AND MUL OR SWAP1 SSTORE POP PUSH20 0xE061915592536656A92B9FD59E46B19EF920692F PUSH1 0xD PUSH1 0x0 PUSH2 0x100 EXP DUP2 SLOAD DUP2 PUSH20 0xFFFFFFFFFFFFFFFFFFFFFFFFFFFFFFFFFFFFFFFF MUL NOT AND SWAP1 DUP4 PUSH20 0xFFFFFFFFFFFFFFFFFFFFFFFFFFFFFFFFFFFFFFFF AND MUL OR SWAP1 SSTORE POP CALLVALUE DUP1 ISZERO PUSH3 0x110 JUMPI PUSH1 0x0 DUP1 REVERT JUMPDEST POP PUSH1 0x40 MLOAD DUP1 PUSH1 0x40 ADD PUSH1 0x40 MSTORE DUP1 PUSH1 0xA DUP2 MSTORE PUSH1 0x20 ADD PUSH32 0x576F726C64205374657000000000000000000000000000000000000000000000 DUP2 MSTORE POP PUSH1 0x40 MLOAD DUP1 PUSH1 0x40 ADD PUSH1 0x40 MSTORE DUP1 PUSH1 0x3 DUP2 MSTORE PUSH1 0x20 ADD PUSH32 0x5753500000000000000000000000000000000000000000000000000000000000 DUP2 MSTORE POP PUSH7 0x38D7EA4C68000 DUP1 PUSH1 0x0 PUSH3 0x198 PUSH3 0x53D PUSH1 0x20 SHL PUSH1 0x20 SHR JUMP JUMPDEST SWAP1 POP DUP1 PUSH1 0x1 PUSH1 0x0 PUSH2 0x100 EXP DUP2 SLOAD DUP2 PUSH20 0xFFFFFFFFFFFFFFFFFFFFFFFFFFFFFFFFFFFFFFFF MUL NOT AND SWAP1 DUP4 PUSH20 0xFFFFFFFFFFFFFFFFFFFFFFFFFFFFFFFFFFFFFFFF AND MUL OR SWAP1 SSTORE POP DUP1 PUSH20 0xFFFFFFFFFFFFFFFFFFFFFFFFFFFFFFFFFFFFFFFF AND PUSH1 0x0 PUSH20 0xFFFFFFFFFFFFFFFFFFFFFFFFFFFFFFFFFFFFFFFF AND PUSH32 0x8BE0079C531659141344CD1FD0A4F28419497F9722A3DAAFE3B4186F6B6457E0 PUSH1 0x40 MLOAD PUSH1 0x40 MLOAD DUP1 SWAP2 SUB SWAP1 LOG3 POP CALLER PUSH1 0x3 PUSH1 0x0 PUSH2 0x100 EXP DUP2 SLOAD DUP2 PUSH20 0xFFFFFFFFFFFFFFFFFFFFFFFFFFFFFFFFFFFFFFFF MUL NOT AND SWAP1 DUP4 PUSH20 0xFFFFFFFFFFFFFFFFFFFFFFFFFFFFFFFFFFFFFFFF AND MUL OR SWAP1 SSTORE POP PUSH1 0x1 PUSH1 0x2 PUSH1 0x0 CALLER PUSH20 0xFFFFFFFFFFFFFFFFFFFFFFFFFFFFFFFFFFFFFFFF AND PUSH20 0xFFFFFFFFFFFFFFFFFFFFFFFFFFFFFFFFFFFFFFFF AND DUP2 MSTORE PUSH1 0x20 ADD SWAP1 DUP2 MSTORE PUSH1 0x20 ADD PUSH1 0x0 KECCAK256 PUSH1 0x0 PUSH2 0x100 EXP DUP2 SLOAD DUP2 PUSH1 0xFF MUL NOT AND SWAP1 DUP4 ISZERO ISZERO MUL OR SWAP1 SSTORE POP DUP4 PUSH1 0x9 SWAP1 DUP1 MLOAD SWAP1 PUSH1 0x20 ADD SWAP1 PUSH3 0x2E8 SWAP3 SWAP2 SWAP1 PUSH3 0x56F JUMP JUMPDEST POP DUP3 PUSH1 0xA SWAP1 DUP1 MLOAD SWAP1 PUSH1 0x20 ADD SWAP1 PUSH3 0x301 SWAP3 SWAP2 SWAP1 PUSH3 0x56F JUMP JUMPDEST POP PUSH1 0x6 PUSH1 0xB PUSH1 0x0 PUSH2 0x100 EXP DUP2 SLOAD DUP2 PUSH1 0xFF MUL NOT AND SWAP1 DUP4 PUSH1 0xFF AND MUL OR SWAP1 SSTORE POP DUP2 PUSH1 0x8 DUP2 SWAP1 SSTORE POP DUP1 PUSH1 0x7 DUP2 SWAP1 SSTORE POP DUP1 PUSH1 0x5 PUSH1 0x0 CALLER PUSH20 0xFFFFFFFFFFFFFFFFFFFFFFFFFFFFFFFFFFFFFFFF AND PUSH20 0xFFFFFFFFFFFFFFFFFFFFFFFFFFFFFFFFFFFFFFFF AND DUP2 MSTORE PUSH1 0x20 ADD SWAP1 DUP2 MSTORE PUSH1 0x20 ADD PUSH1 0x0 KECCAK256 DUP2 SWAP1 SSTORE POP POP POP POP POP PUSH1 0x4 PUSH1 0xE DUP2 SWAP1 SSTORE POP PUSH1 0x1 PUSH1 0xF DUP2 SWAP1 SSTORE POP PUSH1 0x1 PUSH1 0x11 PUSH1 0x0 PUSH3 0x39A PUSH3 0x545 PUSH1 0x20 SHL PUSH1 0x20 SHR JUMP JUMPDEST PUSH20 0xFFFFFFFFFFFFFFFFFFFFFFFFFFFFFFFFFFFFFFFF AND PUSH20 0xFFFFFFFFFFFFFFFFFFFFFFFFFFFFFFFFFFFFFFFF AND DUP2 MSTORE PUSH1 0x20 ADD SWAP1 DUP2 MSTORE PUSH1 0x20 ADD PUSH1 0x0 KECCAK256 PUSH1 0x0 PUSH2 0x100 EXP DUP2 SLOAD DUP2 PUSH1 0xFF MUL NOT AND SWAP1 DUP4 ISZERO ISZERO MUL OR SWAP1 SSTORE POP PUSH1 0x1 PUSH1 0x11 PUSH1 0x0 ADDRESS PUSH20 0xFFFFFFFFFFFFFFFFFFFFFFFFFFFFFFFFFFFFFFFF AND PUSH20 0xFFFFFFFFFFFFFFFFFFFFFFFFFFFFFFFFFFFFFFFF AND DUP2 MSTORE PUSH1 0x20 ADD SWAP1 DUP2 MSTORE PUSH1 0x20 ADD PUSH1 0x0 KECCAK256 PUSH1 0x0 PUSH2 0x100 EXP DUP2 SLOAD DUP2 PUSH1 0xFF MUL NOT AND SWAP1 DUP4 ISZERO ISZERO MUL OR SWAP1 SSTORE POP PUSH1 0x1 PUSH1 0x11 PUSH1 0x0 PUSH1 0xB PUSH1 0x1 SWAP1 SLOAD SWAP1 PUSH2 0x100 EXP SWAP1 DIV PUSH20 0xFFFFFFFFFFFFFFFFFFFFFFFFFFFFFFFFFFFFFFFF AND PUSH20 0xFFFFFFFFFFFFFFFFFFFFFFFFFFFFFFFFFFFFFFFF AND PUSH20 0xFFFFFFFFFFFFFFFFFFFFFFFFFFFFFFFFFFFFFFFF AND DUP2 MSTORE PUSH1 0x20 ADD SWAP1 DUP2 MSTORE PUSH1 0x20 ADD PUSH1 0x0 KECCAK256 PUSH1 0x0 PUSH2 0x100 EXP DUP2 SLOAD DUP2 PUSH1 0xFF MUL NOT AND SWAP1 DUP4 ISZERO ISZERO MUL OR SWAP1 SSTORE POP PUSH1 0x1 PUSH1 0x11 PUSH1 0x0 PUSH1 0xC PUSH1 0x0 SWAP1 SLOAD SWAP1 PUSH2 0x100 EXP SWAP1 DIV PUSH20 0xFFFFFFFFFFFFFFFFFFFFFFFFFFFFFFFFFFFFFFFF AND PUSH20 0xFFFFFFFFFFFFFFFFFFFFFFFFFFFFFFFFFFFFFFFF AND PUSH20 0xFFFFFFFFFFFFFFFFFFFFFFFFFFFFFFFFFFFFFFFF AND DUP2 MSTORE PUSH1 0x20 ADD SWAP1 DUP2 MSTORE PUSH1 0x20 ADD PUSH1 0x0 KECCAK256 PUSH1 0x0 PUSH2 0x100 EXP DUP2 SLOAD DUP2 PUSH1 0xFF MUL NOT AND SWAP1 DUP4 ISZERO ISZERO MUL OR SWAP1 SSTORE POP PUSH3 0x615 JUMP JUMPDEST PUSH1 0x0 CALLER SWAP1 POP SWAP1 JUMP JUMPDEST PUSH1 0x0 PUSH1 0x1 PUSH1 0x0 SWAP1 SLOAD SWAP1 PUSH2 0x100 EXP SWAP1 DIV PUSH20 0xFFFFFFFFFFFFFFFFFFFFFFFFFFFFFFFFFFFFFFFF AND SWAP1 POP SWAP1 JUMP JUMPDEST DUP3 DUP1 SLOAD PUSH1 0x1 DUP2 PUSH1 0x1 AND ISZERO PUSH2 0x100 MUL SUB AND PUSH1 0x2 SWAP1 DIV SWAP1 PUSH1 0x0 MSTORE PUSH1 0x20 PUSH1 0x0 KECCAK256 SWAP1 PUSH1 0x1F ADD PUSH1 0x20 SWAP1 DIV DUP2 ADD SWAP3 DUP3 PUSH1 0x1F LT PUSH3 0x5B2 JUMPI DUP1 MLOAD PUSH1 0xFF NOT AND DUP4 DUP1 ADD OR DUP6 SSTORE PUSH3 0x5E3 JUMP JUMPDEST DUP3 DUP1 ADD PUSH1 0x1 ADD DUP6 SSTORE DUP3 ISZERO PUSH3 0x5E3 JUMPI SWAP2 DUP3 ADD JUMPDEST DUP3 DUP2 GT ISZERO PUSH3 0x5E2 JUMPI DUP3 MLOAD DUP3 SSTORE SWAP2 PUSH1 0x20 ADD SWAP2 SWAP1 PUSH1 0x1 ADD SWAP1 PUSH3 0x5C5 JUMP JUMPDEST JUMPDEST POP SWAP1 POP PUSH3 0x5F2 SWAP2 SWAP1 PUSH3 0x5F6 JUMP JUMPDEST POP SWAP1 JUMP JUMPDEST JUMPDEST DUP1 DUP3 GT ISZERO PUSH3 0x611 JUMPI PUSH1 0x0 DUP2 PUSH1 0x0 SWAP1 SSTORE POP PUSH1 0x1 ADD PUSH3 0x5F7 JUMP JUMPDEST POP SWAP1 JUMP JUMPDEST PUSH2 0x3FFE DUP1 PUSH3 0x625 PUSH1 0x0 CODECOPY PUSH1 0x0 RETURN INVALID PUSH1 0x80 PUSH1 0x40 MSTORE CALLVALUE DUP1 ISZERO PUSH2 0x10 JUMPI PUSH1 0x0 DUP1 REVERT JUMPDEST POP PUSH1 0x4 CALLDATASIZE LT PUSH2 0x23D JUMPI PUSH1 0x0 CALLDATALOAD PUSH1 0xE0 SHR DUP1 PUSH4 0x59D0F713 GT PUSH2 0x13B JUMPI DUP1 PUSH4 0xA457C2D7 GT PUSH2 0xB8 JUMPI DUP1 PUSH4 0xD5ABEB01 GT PUSH2 0x7C JUMPI DUP1 PUSH4 0xD5ABEB01 EQ PUSH2 0xB7F JUMPI DUP1 PUSH4 0xD8DA5CE9 EQ PUSH2 0xB9D JUMPI DUP1 PUSH4 0xDD62ED3E EQ PUSH2 0xBE1 JUMPI DUP1 PUSH4 0xE50D3180 EQ PUSH2 0xC59 JUMPI DUP1 PUSH4 0xF2FDE38B EQ PUSH2 0xCDD JUMPI PUSH2 0x23D JUMP JUMPDEST DUP1 PUSH4 0xA457C2D7 EQ PUSH2 0x9F1 JUMPI DUP1 PUSH4 0xA9059CBB EQ PUSH2 0xA55 JUMPI DUP1 PUSH4 0xC4157B29 EQ PUSH2 0xAB9 JUMPI DUP1 PUSH4 0xC5CC6B6A EQ PUSH2 0xB1D JUMPI DUP1 PUSH4 0xC9C5179C EQ PUSH2 0xB51 JUMPI PUSH2 0x23D JUMP JUMPDEST DUP1 PUSH4 0x8DA5CB5B GT PUSH2 0xFF JUMPI DUP1 PUSH4 0x8DA5CB5B EQ PUSH2 0x85A JUMPI DUP1 PUSH4 0x8FE8CF24 EQ PUSH2 0x88E JUMPI DUP1 PUSH4 0x91116D67 EQ PUSH2 0x8D2 JUMPI DUP1 PUSH4 0x95D89B41 EQ PUSH2 0x916 JUMPI DUP1 PUSH4 0xA0821BE3 EQ PUSH2 0x999 JUMPI PUSH2 0x23D JUMP JUMPDEST DUP1 PUSH4 0x59D0F713 EQ PUSH2 0x72C JUMPI DUP1 PUSH4 0x70766280 EQ PUSH2 0x760 JUMPI DUP1 PUSH4 0x70A08231 EQ PUSH2 0x794 JUMPI DUP1 PUSH4 0x715018A6 EQ PUSH2 0x7EC JUMPI DUP1 PUSH4 0x79CC6790 EQ PUSH2 0x7F6 JUMPI PUSH2 0x23D JUMP JUMPDEST DUP1 PUSH4 0x23B872DD GT PUSH2 0x1C9 JUMPI DUP1 PUSH4 0x40C10F19 GT PUSH2 0x18D JUMPI DUP1 PUSH4 0x40C10F19 EQ PUSH2 0x604 JUMPI DUP1 PUSH4 0x42966C68 EQ PUSH2 0x652 JUMPI DUP1 PUSH4 0x483A8DF9 EQ PUSH2 0x696 JUMPI DUP1 PUSH4 0x49BD5A5E EQ PUSH2 0x6DA JUMPI DUP1 PUSH4 0x52EA6E02 EQ PUSH2 0x70E JUMPI PUSH2 0x23D JUMP JUMPDEST DUP1 PUSH4 0x23B872DD EQ PUSH2 0x499 JUMPI DUP1 PUSH4 0x313CE567 EQ PUSH2 0x51D JUMPI DUP1 PUSH4 0x35CDE1CE EQ PUSH2 0x53E JUMPI DUP1 PUSH4 0x3727A426 EQ PUSH2 0x572 JUMPI DUP1 PUSH4 0x39509351 EQ PUSH2 0x5A0 JUMPI PUSH2 0x23D JUMP JUMPDEST DUP1 PUSH4 0x1694505E GT PUSH2 0x210 JUMPI DUP1 PUSH4 0x1694505E EQ PUSH2 0x3AB JUMPI DUP1 PUSH4 0x171177B3 EQ PUSH2 0x3DF JUMPI DUP1 PUSH4 0x18160DDD EQ PUSH2 0x42D JUMPI DUP1 PUSH4 0x1E57A2B2 EQ PUSH2 0x44B JUMPI DUP1 PUSH4 0x238FD731 EQ PUSH2 0x455 JUMPI PUSH2 0x23D JUMP JUMPDEST DUP1 PUSH4 0x6FDDE03 EQ PUSH2 0x242 JUMPI DUP1 PUSH4 0x95EA7B3 EQ PUSH2 0x2C5 JUMPI DUP1 PUSH4 0xA9ADF05 EQ PUSH2 0x329 JUMPI DUP1 PUSH4 0xC15F601 EQ PUSH2 0x347 JUMPI JUMPDEST PUSH1 0x0 DUP1 REVERT JUMPDEST PUSH2 0x24A PUSH2 0xD21 JUMP JUMPDEST PUSH1 0x40 MLOAD DUP1 DUP1 PUSH1 0x20 ADD DUP3 DUP2 SUB DUP3 MSTORE DUP4 DUP2 DUP2 MLOAD DUP2 MSTORE PUSH1 0x20 ADD SWAP2 POP DUP1 MLOAD SWAP1 PUSH1 0x20 ADD SWAP1 DUP1 DUP4 DUP4 PUSH1 0x0 JUMPDEST DUP4 DUP2 LT ISZERO PUSH2 0x28A JUMPI DUP1 DUP3 ADD MLOAD DUP2 DUP5 ADD MSTORE PUSH1 0x20 DUP2 ADD SWAP1 POP PUSH2 0x26F JUMP JUMPDEST POP POP POP POP SWAP1 POP SWAP1 DUP2 ADD SWAP1 PUSH1 0x1F AND DUP1 ISZERO PUSH2 0x2B7 JUMPI DUP1 DUP3 SUB DUP1 MLOAD PUSH1 0x1 DUP4 PUSH1 0x20 SUB PUSH2 0x100 EXP SUB NOT AND DUP2 MSTORE PUSH1 0x20 ADD SWAP2 POP JUMPDEST POP SWAP3 POP POP POP PUSH1 0x40 MLOAD DUP1 SWAP2 SUB SWAP1 RETURN JUMPDEST PUSH2 0x311 PUSH1 0x4 DUP1 CALLDATASIZE SUB PUSH1 0x40 DUP2 LT ISZERO PUSH2 0x2DB JUMPI PUSH1 0x0 DUP1 REVERT JUMPDEST DUP2 ADD SWAP1 DUP1 DUP1 CALLDATALOAD PUSH20 0xFFFFFFFFFFFFFFFFFFFFFFFFFFFFFFFFFFFFFFFF AND SWAP1 PUSH1 0x20 ADD SWAP1 SWAP3 SWAP2 SWAP1 DUP1 CALLDATALOAD SWAP1 PUSH1 0x20 ADD SWAP1 SWAP3 SWAP2 SWAP1 POP POP POP PUSH2 0xDC3 JUMP JUMPDEST PUSH1 0x40 MLOAD DUP1 DUP3 ISZERO ISZERO DUP2 MSTORE PUSH1 0x20 ADD SWAP2 POP POP PUSH1 0x40 MLOAD DUP1 SWAP2 SUB SWAP1 RETURN JUMPDEST PUSH2 0x331 PUSH2 0xDE1 JUMP JUMPDEST PUSH1 0x40 MLOAD DUP1 DUP3 DUP2 MSTORE PUSH1 0x20 ADD SWAP2 POP POP PUSH1 0x40 MLOAD DUP1 SWAP2 SUB SWAP1 RETURN JUMPDEST PUSH2 0x393 PUSH1 0x4 DUP1 CALLDATASIZE SUB PUSH1 0x40 DUP2 LT ISZERO PUSH2 0x35D JUMPI PUSH1 0x0 DUP1 REVERT JUMPDEST DUP2 ADD SWAP1 DUP1 DUP1 CALLDATALOAD PUSH20 0xFFFFFFFFFFFFFFFFFFFFFFFFFFFFFFFFFFFFFFFF AND SWAP1 PUSH1 0x20 ADD SWAP1 SWAP3 SWAP2 SWAP1 DUP1 CALLDATALOAD SWAP1 PUSH1 0x20 ADD SWAP1 SWAP3 SWAP2 SWAP1 POP POP POP PUSH2 0xDE7 JUMP JUMPDEST PUSH1 0x40 MLOAD DUP1 DUP3 ISZERO ISZERO DUP2 MSTORE PUSH1 0x20 ADD SWAP2 POP POP PUSH1 0x40 MLOAD DUP1 SWAP2 SUB SWAP1 RETURN JUMPDEST PUSH2 0x3B3 PUSH2 0xEC3 JUMP JUMPDEST PUSH1 0x40 MLOAD DUP1 DUP3 PUSH20 0xFFFFFFFFFFFFFFFFFFFFFFFFFFFFFFFFFFFFFFFF AND DUP2 MSTORE PUSH1 0x20 ADD SWAP2 POP POP PUSH1 0x40 MLOAD DUP1 SWAP2 SUB SWAP1 RETURN JUMPDEST PUSH2 0x42B PUSH1 0x4 DUP1 CALLDATASIZE SUB PUSH1 0x40 DUP2 LT ISZERO PUSH2 0x3F5 JUMPI PUSH1 0x0 DUP1 REVERT JUMPDEST DUP2 ADD SWAP1 DUP1 DUP1 CALLDATALOAD PUSH20 0xFFFFFFFFFFFFFFFFFFFFFFFFFFFFFFFFFFFFFFFF AND SWAP1 PUSH1 0x20 ADD SWAP1 SWAP3 SWAP2 SWAP1 DUP1 CALLDATALOAD SWAP1 PUSH1 0x20 ADD SWAP1 SWAP3 SWAP2 SWAP1 POP POP POP PUSH2 0xEE9 JUMP JUMPDEST STOP JUMPDEST PUSH2 0x435 PUSH2 0xFBD JUMP JUMPDEST PUSH1 0x40 MLOAD DUP1 DUP3 DUP2 MSTORE PUSH1 0x20 ADD SWAP2 POP POP PUSH1 0x40 MLOAD DUP1 SWAP2 SUB SWAP1 RETURN JUMPDEST PUSH2 0x453 PUSH2 0xFC7 JUMP JUMPDEST STOP JUMPDEST PUSH2 0x497 PUSH1 0x4 DUP1 CALLDATASIZE SUB PUSH1 0x20 DUP2 LT ISZERO PUSH2 0x46B JUMPI PUSH1 0x0 DUP1 REVERT JUMPDEST DUP2 ADD SWAP1 DUP1 DUP1 CALLDATALOAD PUSH20 0xFFFFFFFFFFFFFFFFFFFFFFFFFFFFFFFFFFFFFFFF AND SWAP1 PUSH1 0x20 ADD SWAP1 SWAP3 SWAP2 SWAP1 POP POP POP PUSH2 0x11B2 JUMP JUMPDEST STOP JUMPDEST PUSH2 0x505 PUSH1 0x4 DUP1 CALLDATASIZE SUB PUSH1 0x60 DUP2 LT ISZERO PUSH2 0x4AF JUMPI PUSH1 0x0 DUP1 REVERT JUMPDEST DUP2 ADD SWAP1 DUP1 DUP1 CALLDATALOAD PUSH20 0xFFFFFFFFFFFFFFFFFFFFFFFFFFFFFFFFFFFFFFFF AND SWAP1 PUSH1 0x20 ADD SWAP1 SWAP3 SWAP2 SWAP1 DUP1 CALLDATALOAD PUSH20 0xFFFFFFFFFFFFFFFFFFFFFFFFFFFFFFFFFFFFFFFF AND SWAP1 PUSH1 0x20 ADD SWAP1 SWAP3 SWAP2 SWAP1 DUP1 CALLDATALOAD SWAP1 PUSH1 0x20 ADD SWAP1 SWAP3 SWAP2 SWAP1 POP POP POP PUSH2 0x12D0 JUMP JUMPDEST PUSH1 0x40 MLOAD DUP1 DUP3 ISZERO ISZERO DUP2 MSTORE PUSH1 0x20 ADD SWAP2 POP POP PUSH1 0x40 MLOAD DUP1 SWAP2 SUB SWAP1 RETURN JUMPDEST PUSH2 0x525 PUSH2 0x13A9 JUMP JUMPDEST PUSH1 0x40 MLOAD DUP1 DUP3 PUSH1 0xFF AND DUP2 MSTORE PUSH1 0x20 ADD SWAP2 POP POP PUSH1 0x40 MLOAD DUP1 SWAP2 SUB SWAP1 RETURN JUMPDEST PUSH2 0x546 PUSH2 0x13C0 JUMP JUMPDEST PUSH1 0x40 MLOAD DUP1 DUP3 PUSH20 0xFFFFFFFFFFFFFFFFFFFFFFFFFFFFFFFFFFFFFFFF AND DUP2 MSTORE PUSH1 0x20 ADD SWAP2 POP POP PUSH1 0x40 MLOAD DUP1 SWAP2 SUB SWAP1 RETURN JUMPDEST PUSH2 0x59E PUSH1 0x4 DUP1 CALLDATASIZE SUB PUSH1 0x20 DUP2 LT ISZERO PUSH2 0x588 JUMPI PUSH1 0x0 DUP1 REVERT JUMPDEST DUP2 ADD SWAP1 DUP1 DUP1 CALLDATALOAD SWAP1 PUSH1 0x20 ADD SWAP1 SWAP3 SWAP2 SWAP1 POP POP POP PUSH2 0x13EA JUMP JUMPDEST STOP JUMPDEST PUSH2 0x5EC PUSH1 0x4 DUP1 CALLDATASIZE SUB PUSH1 0x40 DUP2 LT ISZERO PUSH2 0x5B6 JUMPI PUSH1 0x0 DUP1 REVERT JUMPDEST DUP2 ADD SWAP1 DUP1 DUP1 CALLDATALOAD PUSH20 0xFFFFFFFFFFFFFFFFFFFFFFFFFFFFFFFFFFFFFFFF AND SWAP1 PUSH1 0x20 ADD SWAP1 SWAP3 SWAP2 SWAP1 DUP1 CALLDATALOAD SWAP1 PUSH1 0x20 ADD SWAP1 SWAP3 SWAP2 SWAP1 POP POP POP PUSH2 0x14BE JUMP JUMPDEST PUSH1 0x40 MLOAD DUP1 DUP3 ISZERO ISZERO DUP2 MSTORE PUSH1 0x20 ADD SWAP2 POP POP PUSH1 0x40 MLOAD DUP1 SWAP2 SUB SWAP1 RETURN JUMPDEST PUSH2 0x650 PUSH1 0x4 DUP1 CALLDATASIZE SUB PUSH1 0x40 DUP2 LT ISZERO PUSH2 0x61A JUMPI PUSH1 0x0 DUP1 REVERT JUMPDEST DUP2 ADD SWAP1 DUP1 DUP1 CALLDATALOAD PUSH20 0xFFFFFFFFFFFFFFFFFFFFFFFFFFFFFFFFFFFFFFFF AND SWAP1 PUSH1 0x20 ADD SWAP1 SWAP3 SWAP2 SWAP1 DUP1 CALLDATALOAD SWAP1 PUSH1 0x20 ADD SWAP1 SWAP3 SWAP2 SWAP1 POP POP POP PUSH2 0x1571 JUMP JUMPDEST STOP JUMPDEST PUSH2 0x67E PUSH1 0x4 DUP1 CALLDATASIZE SUB PUSH1 0x20 DUP2 LT ISZERO PUSH2 0x668 JUMPI PUSH1 0x0 DUP1 REVERT JUMPDEST DUP2 ADD SWAP1 DUP1 DUP1 CALLDATALOAD SWAP1 PUSH1 0x20 ADD SWAP1 SWAP3 SWAP2 SWAP1 POP POP POP PUSH2 0x1649 JUMP JUMPDEST PUSH1 0x40 MLOAD DUP1 DUP3 ISZERO ISZERO DUP2 MSTORE PUSH1 0x20 ADD SWAP2 POP POP PUSH1 0x40 MLOAD DUP1 SWAP2 SUB SWAP1 RETURN JUMPDEST PUSH2 0x6D8 PUSH1 0x4 DUP1 CALLDATASIZE SUB PUSH1 0x20 DUP2 LT ISZERO PUSH2 0x6AC JUMPI PUSH1 0x0 DUP1 REVERT JUMPDEST DUP2 ADD SWAP1 DUP1 DUP1 CALLDATALOAD PUSH20 0xFFFFFFFFFFFFFFFFFFFFFFFFFFFFFFFFFFFFFFFF AND SWAP1 PUSH1 0x20 ADD SWAP1 SWAP3 SWAP2 SWAP1 POP POP POP PUSH2 0x1665 JUMP JUMPDEST STOP JUMPDEST PUSH2 0x6E2 PUSH2 0x176C JUMP JUMPDEST PUSH1 0x40 MLOAD DUP1 DUP3 PUSH20 0xFFFFFFFFFFFFFFFFFFFFFFFFFFFFFFFFFFFFFFFF AND DUP2 MSTORE PUSH1 0x20 ADD SWAP2 POP POP PUSH1 0x40 MLOAD DUP1 SWAP2 SUB SWAP1 RETURN JUMPDEST PUSH2 0x716 PUSH2 0x1792 JUMP JUMPDEST PUSH1 0x40 MLOAD DUP1 DUP3 DUP2 MSTORE PUSH1 0x20 ADD SWAP2 POP POP PUSH1 0x40 MLOAD DUP1 SWAP2 SUB SWAP1 RETURN JUMPDEST PUSH2 0x734 PUSH2 0x1798 JUMP JUMPDEST PUSH1 0x40 MLOAD DUP1 DUP3 PUSH20 0xFFFFFFFFFFFFFFFFFFFFFFFFFFFFFFFFFFFFFFFF AND DUP2 MSTORE PUSH1 0x20 ADD SWAP2 POP POP PUSH1 0x40 MLOAD DUP1 SWAP2 SUB SWAP1 RETURN JUMPDEST PUSH2 0x768 PUSH2 0x17BE JUMP JUMPDEST PUSH1 0x40 MLOAD DUP1 DUP3 PUSH20 0xFFFFFFFFFFFFFFFFFFFFFFFFFFFFFFFFFFFFFFFF AND DUP2 MSTORE PUSH1 0x20 ADD SWAP2 POP POP PUSH1 0x40 MLOAD DUP1 SWAP2 SUB SWAP1 RETURN JUMPDEST PUSH2 0x7D6 PUSH1 0x4 DUP1 CALLDATASIZE SUB PUSH1 0x20 DUP2 LT ISZERO PUSH2 0x7AA JUMPI PUSH1 0x0 DUP1 REVERT JUMPDEST DUP2 ADD SWAP1 DUP1 DUP1 CALLDATALOAD PUSH20 0xFFFFFFFFFFFFFFFFFFFFFFFFFFFFFFFFFFFFFFFF AND SWAP1 PUSH1 0x20 ADD SWAP1 SWAP3 SWAP2 SWAP1 POP POP POP PUSH2 0x17E4 JUMP JUMPDEST PUSH1 0x40 MLOAD DUP1 DUP3 DUP2 MSTORE PUSH1 0x20 ADD SWAP2 POP POP PUSH1 0x40 MLOAD DUP1 SWAP2 SUB SWAP1 RETURN JUMPDEST PUSH2 0x7F4 PUSH2 0x1847 JUMP JUMPDEST STOP JUMPDEST PUSH2 0x842 PUSH1 0x4 DUP1 CALLDATASIZE SUB PUSH1 0x40 DUP2 LT ISZERO PUSH2 0x80C JUMPI PUSH1 0x0 DUP1 REVERT JUMPDEST DUP2 ADD SWAP1 DUP1 DUP1 CALLDATALOAD PUSH20 0xFFFFFFFFFFFFFFFFFFFFFFFFFFFFFFFFFFFFFFFF AND SWAP1 PUSH1 0x20 ADD SWAP1 SWAP3 SWAP2 SWAP1 DUP1 CALLDATALOAD SWAP1 PUSH1 0x20 ADD SWAP1 SWAP3 SWAP2 SWAP1 POP POP POP PUSH2 0x19D2 JUMP JUMPDEST PUSH1 0x40 MLOAD DUP1 DUP3 ISZERO ISZERO DUP2 MSTORE PUSH1 0x20 ADD SWAP2 POP POP PUSH1 0x40 MLOAD DUP1 SWAP2 SUB SWAP1 RETURN JUMPDEST PUSH2 0x862 PUSH2 0x1A3B JUMP JUMPDEST PUSH1 0x40 MLOAD DUP1 DUP3 PUSH20 0xFFFFFFFFFFFFFFFFFFFFFFFFFFFFFFFFFFFFFFFF AND DUP2 MSTORE PUSH1 0x20 ADD SWAP2 POP POP PUSH1 0x40 MLOAD DUP1 SWAP2 SUB SWAP1 RETURN JUMPDEST PUSH2 0x8D0 PUSH1 0x4 DUP1 CALLDATASIZE SUB PUSH1 0x20 DUP2 LT ISZERO PUSH2 0x8A4 JUMPI PUSH1 0x0 DUP1 REVERT JUMPDEST DUP2 ADD SWAP1 DUP1 DUP1 CALLDATALOAD PUSH20 0xFFFFFFFFFFFFFFFFFFFFFFFFFFFFFFFFFFFFFFFF AND SWAP1 PUSH1 0x20 ADD SWAP1 SWAP3 SWAP2 SWAP1 POP POP POP PUSH2 0x1A65 JUMP JUMPDEST STOP JUMPDEST PUSH2 0x914 PUSH1 0x4 DUP1 CALLDATASIZE SUB PUSH1 0x20 DUP2 LT ISZERO PUSH2 0x8E8 JUMPI PUSH1 0x0 DUP1 REVERT JUMPDEST DUP2 ADD SWAP1 DUP1 DUP1 CALLDATALOAD PUSH20 0xFFFFFFFFFFFFFFFFFFFFFFFFFFFFFFFFFFFFFFFF AND SWAP1 PUSH1 0x20 ADD SWAP1 SWAP3 SWAP2 SWAP1 POP POP POP PUSH2 0x1B81 JUMP JUMPDEST STOP JUMPDEST PUSH2 0x91E PUSH2 0x1CA6 JUMP JUMPDEST PUSH1 0x40 MLOAD DUP1 DUP1 PUSH1 0x20 ADD DUP3 DUP2 SUB DUP3 MSTORE DUP4 DUP2 DUP2 MLOAD DUP2 MSTORE PUSH1 0x20 ADD SWAP2 POP DUP1 MLOAD SWAP1 PUSH1 0x20 ADD SWAP1 DUP1 DUP4 DUP4 PUSH1 0x0 JUMPDEST DUP4 DUP2 LT ISZERO PUSH2 0x95E JUMPI DUP1 DUP3 ADD MLOAD DUP2 DUP5 ADD MSTORE PUSH1 0x20 DUP2 ADD SWAP1 POP PUSH2 0x943 JUMP JUMPDEST POP POP POP POP SWAP1 POP SWAP1 DUP2 ADD SWAP1 PUSH1 0x1F AND DUP1 ISZERO PUSH2 0x98B JUMPI DUP1 DUP3 SUB DUP1 MLOAD PUSH1 0x1 DUP4 PUSH1 0x20 SUB PUSH2 0x100 EXP SUB NOT AND DUP2 MSTORE PUSH1 0x20 ADD SWAP2 POP JUMPDEST POP SWAP3 POP POP POP PUSH1 0x40 MLOAD DUP1 SWAP2 SUB SWAP1 RETURN JUMPDEST PUSH2 0x9DB PUSH1 0x4 DUP1 CALLDATASIZE SUB PUSH1 0x20 DUP2 LT ISZERO PUSH2 0x9AF JUMPI PUSH1 0x0 DUP1 REVERT JUMPDEST DUP2 ADD SWAP1 DUP1 DUP1 CALLDATALOAD PUSH20 0xFFFFFFFFFFFFFFFFFFFFFFFFFFFFFFFFFFFFFFFF AND SWAP1 PUSH1 0x20 ADD SWAP1 SWAP3 SWAP2 SWAP1 POP POP POP PUSH2 0x1D48 JUMP JUMPDEST PUSH1 0x40 MLOAD DUP1 DUP3 DUP2 MSTORE PUSH1 0x20 ADD SWAP2 POP POP PUSH1 0x40 MLOAD DUP1 SWAP2 SUB SWAP1 RETURN JUMPDEST PUSH2 0xA3D PUSH1 0x4 DUP1 CALLDATASIZE SUB PUSH1 0x40 DUP2 LT ISZERO PUSH2 0xA07 JUMPI PUSH1 0x0 DUP1 REVERT JUMPDEST DUP2 ADD SWAP1 DUP1 DUP1 CALLDATALOAD PUSH20 0xFFFFFFFFFFFFFFFFFFFFFFFFFFFFFFFFFFFFFFFF AND SWAP1 PUSH1 0x20 ADD SWAP1 SWAP3 SWAP2 SWAP1 DUP1 CALLDATALOAD SWAP1 PUSH1 0x20 ADD SWAP1 SWAP3 SWAP2 SWAP1 POP POP POP PUSH2 0x1D91 JUMP JUMPDEST PUSH1 0x40 MLOAD DUP1 DUP3 ISZERO ISZERO DUP2 MSTORE PUSH1 0x20 ADD SWAP2 POP POP PUSH1 0x40 MLOAD DUP1 SWAP2 SUB SWAP1 RETURN JUMPDEST PUSH2 0xAA1 PUSH1 0x4 DUP1 CALLDATASIZE SUB PUSH1 0x40 DUP2 LT ISZERO PUSH2 0xA6B JUMPI PUSH1 0x0 DUP1 REVERT JUMPDEST DUP2 ADD SWAP1 DUP1 DUP1 CALLDATALOAD PUSH20 0xFFFFFFFFFFFFFFFFFFFFFFFFFFFFFFFFFFFFFFFF AND SWAP1 PUSH1 0x20 ADD SWAP1 SWAP3 SWAP2 SWAP1 DUP1 CALLDATALOAD SWAP1 PUSH1 0x20 ADD SWAP1 SWAP3 SWAP2 SWAP1 POP POP POP PUSH2 0x1E5E JUMP JUMPDEST PUSH1 0x40 MLOAD DUP1 DUP3 ISZERO ISZERO DUP2 MSTORE PUSH1 0x20 ADD SWAP2 POP POP PUSH1 0x40 MLOAD DUP1 SWAP2 SUB SWAP1 RETURN JUMPDEST PUSH2 0xB05 PUSH1 0x4 DUP1 CALLDATASIZE SUB PUSH1 0x40 DUP2 LT ISZERO PUSH2 0xACF JUMPI PUSH1 0x0 DUP1 REVERT JUMPDEST DUP2 ADD SWAP1 DUP1 DUP1 CALLDATALOAD PUSH20 0xFFFFFFFFFFFFFFFFFFFFFFFFFFFFFFFFFFFFFFFF AND SWAP1 PUSH1 0x20 ADD SWAP1 SWAP3 SWAP2 SWAP1 DUP1 CALLDATALOAD SWAP1 PUSH1 0x20 ADD SWAP1 SWAP3 SWAP2 SWAP1 POP POP POP PUSH2 0x1E7C JUMP JUMPDEST PUSH1 0x40 MLOAD DUP1 DUP3 ISZERO ISZERO DUP2 MSTORE PUSH1 0x20 ADD SWAP2 POP POP PUSH1 0x40 MLOAD DUP1 SWAP2 SUB SWAP1 RETURN JUMPDEST PUSH2 0xB25 PUSH2 0x1F58 JUMP JUMPDEST PUSH1 0x40 MLOAD DUP1 DUP3 PUSH20 0xFFFFFFFFFFFFFFFFFFFFFFFFFFFFFFFFFFFFFFFF AND DUP2 MSTORE PUSH1 0x20 ADD SWAP2 POP POP PUSH1 0x40 MLOAD DUP1 SWAP2 SUB SWAP1 RETURN JUMPDEST PUSH2 0xB7D PUSH1 0x4 DUP1 CALLDATASIZE SUB PUSH1 0x20 DUP2 LT ISZERO PUSH2 0xB67 JUMPI PUSH1 0x0 DUP1 REVERT JUMPDEST DUP2 ADD SWAP1 DUP1 DUP1 CALLDATALOAD SWAP1 PUSH1 0x20 ADD SWAP1 SWAP3 SWAP2 SWAP1 POP POP POP PUSH2 0x1F7E JUMP JUMPDEST STOP JUMPDEST PUSH2 0xB87 PUSH2 0x2052 JUMP JUMPDEST PUSH1 0x40 MLOAD DUP1 DUP3 DUP2 MSTORE PUSH1 0x20 ADD SWAP2 POP POP PUSH1 0x40 MLOAD DUP1 SWAP2 SUB SWAP1 RETURN JUMPDEST PUSH2 0xBDF PUSH1 0x4 DUP1 CALLDATASIZE SUB PUSH1 0x20 DUP2 LT ISZERO PUSH2 0xBB3 JUMPI PUSH1 0x0 DUP1 REVERT JUMPDEST DUP2 ADD SWAP1 DUP1 DUP1 CALLDATALOAD PUSH20 0xFFFFFFFFFFFFFFFFFFFFFFFFFFFFFFFFFFFFFFFF AND SWAP1 PUSH1 0x20 ADD SWAP1 SWAP3 SWAP2 SWAP1 POP POP POP PUSH2 0x205C JUMP JUMPDEST STOP JUMPDEST PUSH2 0xC43 PUSH1 0x4 DUP1 CALLDATASIZE SUB PUSH1 0x40 DUP2 LT ISZERO PUSH2 0xBF7 JUMPI PUSH1 0x0 DUP1 REVERT JUMPDEST DUP2 ADD SWAP1 DUP1 DUP1 CALLDATALOAD PUSH20 0xFFFFFFFFFFFFFFFFFFFFFFFFFFFFFFFFFFFFFFFF AND SWAP1 PUSH1 0x20 ADD SWAP1 SWAP3 SWAP2 SWAP1 DUP1 CALLDATALOAD PUSH20 0xFFFFFFFFFFFFFFFFFFFFFFFFFFFFFFFFFFFFFFFF AND SWAP1 PUSH1 0x20 ADD SWAP1 SWAP3 SWAP2 SWAP1 POP POP POP PUSH2 0x217A JUMP JUMPDEST PUSH1 0x40 MLOAD DUP1 DUP3 DUP2 MSTORE PUSH1 0x20 ADD SWAP2 POP POP PUSH1 0x40 MLOAD DUP1 SWAP2 SUB SWAP1 RETURN JUMPDEST PUSH2 0xCC5 PUSH1 0x4 DUP1 CALLDATASIZE SUB PUSH1 0x60 DUP2 LT ISZERO PUSH2 0xC6F JUMPI PUSH1 0x0 DUP1 REVERT JUMPDEST DUP2 ADD SWAP1 DUP1 DUP1 CALLDATALOAD PUSH20 0xFFFFFFFFFFFFFFFFFFFFFFFFFFFFFFFFFFFFFFFF AND SWAP1 PUSH1 0x20 ADD SWAP1 SWAP3 SWAP2 SWAP1 DUP1 CALLDATALOAD PUSH20 0xFFFFFFFFFFFFFFFFFFFFFFFFFFFFFFFFFFFFFFFF AND SWAP1 PUSH1 0x20 ADD SWAP1 SWAP3 SWAP2 SWAP1 DUP1 CALLDATALOAD SWAP1 PUSH1 0x20 ADD SWAP1 SWAP3 SWAP2 SWAP1 POP POP POP PUSH2 0x2201 JUMP JUMPDEST PUSH1 0x40 MLOAD DUP1 DUP3 ISZERO ISZERO DUP2 MSTORE PUSH1 0x20 ADD SWAP2 POP POP PUSH1 0x40 MLOAD DUP1 SWAP2 SUB SWAP1 RETURN JUMPDEST PUSH2 0xD1F PUSH1 0x4 DUP1 CALLDATASIZE SUB PUSH1 0x20 DUP2 LT ISZERO PUSH2 0xCF3 JUMPI PUSH1 0x0 DUP1 REVERT JUMPDEST DUP2 ADD SWAP1 DUP1 DUP1 CALLDATALOAD PUSH20 0xFFFFFFFFFFFFFFFFFFFFFFFFFFFFFFFFFFFFFFFF AND SWAP1 PUSH1 0x20 ADD SWAP1 SWAP3 SWAP2 SWAP1 POP POP POP PUSH2 0x24C0 JUMP JUMPDEST STOP JUMPDEST PUSH1 0x60 PUSH1 0x9 DUP1 SLOAD PUSH1 0x1 DUP2 PUSH1 0x1 AND ISZERO PUSH2 0x100 MUL SUB AND PUSH1 0x2 SWAP1 DIV DUP1 PUSH1 0x1F ADD PUSH1 0x20 DUP1 SWAP2 DIV MUL PUSH1 0x20 ADD PUSH1 0x40 MLOAD SWAP1 DUP2 ADD PUSH1 0x40 MSTORE DUP1 SWAP3 SWAP2 SWAP1 DUP2 DUP2 MSTORE PUSH1 0x20 ADD DUP3 DUP1 SLOAD PUSH1 0x1 DUP2 PUSH1 0x1 AND ISZERO PUSH2 0x100 MUL SUB AND PUSH1 0x2 SWAP1 DIV DUP1 ISZERO PUSH2 0xDB9 JUMPI DUP1 PUSH1 0x1F LT PUSH2 0xD8E JUMPI PUSH2 0x100 DUP1 DUP4 SLOAD DIV MUL DUP4 MSTORE SWAP2 PUSH1 0x20 ADD SWAP2 PUSH2 0xDB9 JUMP JUMPDEST DUP3 ADD SWAP2 SWAP1 PUSH1 0x0 MSTORE PUSH1 0x20 PUSH1 0x0 KECCAK256 SWAP1 JUMPDEST DUP2 SLOAD DUP2 MSTORE SWAP1 PUSH1 0x1 ADD SWAP1 PUSH1 0x20 ADD DUP1 DUP4 GT PUSH2 0xD9C JUMPI DUP3 SWAP1 SUB PUSH1 0x1F AND DUP3 ADD SWAP2 JUMPDEST POP POP POP POP POP SWAP1 POP SWAP1 JUMP JUMPDEST PUSH1 0x0 PUSH2 0xDD7 PUSH2 0xDD0 PUSH2 0x26D0 JUMP JUMPDEST DUP5 DUP5 PUSH2 0x26D8 JUMP JUMPDEST PUSH1 0x1 SWAP1 POP SWAP3 SWAP2 POP POP JUMP JUMPDEST PUSH1 0xE SLOAD DUP2 JUMP JUMPDEST PUSH1 0x0 PUSH1 0x1 ISZERO ISZERO PUSH1 0x2 PUSH1 0x0 CALLER PUSH20 0xFFFFFFFFFFFFFFFFFFFFFFFFFFFFFFFFFFFFFFFF AND PUSH20 0xFFFFFFFFFFFFFFFFFFFFFFFFFFFFFFFFFFFFFFFF AND DUP2 MSTORE PUSH1 0x20 ADD SWAP1 DUP2 MSTORE PUSH1 0x20 ADD PUSH1 0x0 KECCAK256 PUSH1 0x0 SWAP1 SLOAD SWAP1 PUSH2 0x100 EXP SWAP1 DIV PUSH1 0xFF AND ISZERO ISZERO EQ PUSH2 0xEAF JUMPI PUSH1 0x40 MLOAD PUSH32 0x8C379A000000000000000000000000000000000000000000000000000000000 DUP2 MSTORE PUSH1 0x4 ADD DUP1 DUP1 PUSH1 0x20 ADD DUP3 DUP2 SUB DUP3 MSTORE PUSH1 0x12 DUP2 MSTORE PUSH1 0x20 ADD DUP1 PUSH32 0x63616E277420706572666F726D206D656C740000000000000000000000000000 DUP2 MSTORE POP PUSH1 0x20 ADD SWAP2 POP POP PUSH1 0x40 MLOAD DUP1 SWAP2 SUB SWAP1 REVERT JUMPDEST PUSH2 0xEB9 DUP4 DUP4 PUSH2 0x28CF JUMP JUMPDEST PUSH1 0x1 SWAP1 POP SWAP3 SWAP2 POP POP JUMP JUMPDEST PUSH1 0x12 PUSH1 0x0 SWAP1 SLOAD SWAP1 PUSH2 0x100 EXP SWAP1 DIV PUSH20 0xFFFFFFFFFFFFFFFFFFFFFFFFFFFFFFFFFFFFFFFF AND DUP2 JUMP JUMPDEST PUSH1 0x1 ISZERO ISZERO PUSH1 0x2 PUSH1 0x0 CALLER PUSH20 0xFFFFFFFFFFFFFFFFFFFFFFFFFFFFFFFFFFFFFFFF AND PUSH20 0xFFFFFFFFFFFFFFFFFFFFFFFFFFFFFFFFFFFFFFFF AND DUP2 MSTORE PUSH1 0x20 ADD SWAP1 DUP2 MSTORE PUSH1 0x20 ADD PUSH1 0x0 KECCAK256 PUSH1 0x0 SWAP1 SLOAD SWAP1 PUSH2 0x100 EXP SWAP1 DIV PUSH1 0xFF AND ISZERO ISZERO EQ PUSH2 0xFAF JUMPI PUSH1 0x40 MLOAD PUSH32 0x8C379A000000000000000000000000000000000000000000000000000000000 DUP2 MSTORE PUSH1 0x4 ADD DUP1 DUP1 PUSH1 0x20 ADD DUP3 DUP2 SUB DUP3 MSTORE PUSH1 0x12 DUP2 MSTORE PUSH1 0x20 ADD DUP1 PUSH32 0x63616E277420706572666F726D206D656C740000000000000000000000000000 DUP2 MSTORE POP PUSH1 0x20 ADD SWAP2 POP POP PUSH1 0x40 MLOAD DUP1 SWAP2 SUB SWAP1 REVERT JUMPDEST PUSH2 0xFB9 DUP3 DUP3 PUSH2 0x2B01 JUMP JUMPDEST POP POP JUMP JUMPDEST PUSH1 0x0 PUSH1 0x7 SLOAD SWAP1 POP SWAP1 JUMP JUMPDEST PUSH1 0x4 PUSH1 0x0 SWAP1 SLOAD SWAP1 PUSH2 0x100 EXP SWAP1 DIV PUSH20 0xFFFFFFFFFFFFFFFFFFFFFFFFFFFFFFFFFFFFFFFF AND PUSH20 0xFFFFFFFFFFFFFFFFFFFFFFFFFFFFFFFFFFFFFFFF AND CALLER PUSH20 0xFFFFFFFFFFFFFFFFFFFFFFFFFFFFFFFFFFFFFFFF AND EQ PUSH2 0x106D JUMPI PUSH1 0x40 MLOAD PUSH32 0x8C379A000000000000000000000000000000000000000000000000000000000 DUP2 MSTORE PUSH1 0x4 ADD DUP1 DUP1 PUSH1 0x20 ADD DUP3 DUP2 SUB DUP3 MSTORE PUSH1 0x21 DUP2 MSTORE PUSH1 0x20 ADD DUP1 PUSH2 0x3F83 PUSH1 0x21 SWAP2 CODECOPY PUSH1 0x40 ADD SWAP2 POP POP PUSH1 0x40 MLOAD DUP1 SWAP2 SUB SWAP1 REVERT JUMPDEST PUSH1 0x4 PUSH1 0x0 SWAP1 SLOAD SWAP1 PUSH2 0x100 EXP SWAP1 DIV PUSH20 0xFFFFFFFFFFFFFFFFFFFFFFFFFFFFFFFFFFFFFFFF AND PUSH20 0xFFFFFFFFFFFFFFFFFFFFFFFFFFFFFFFFFFFFFFFF AND PUSH1 0x3 PUSH1 0x0 SWAP1 SLOAD SWAP1 PUSH2 0x100 EXP SWAP1 DIV PUSH20 0xFFFFFFFFFFFFFFFFFFFFFFFFFFFFFFFFFFFFFFFF AND PUSH20 0xFFFFFFFFFFFFFFFFFFFFFFFFFFFFFFFFFFFFFFFF AND PUSH32 0x2E564B778E0BD386914DAFF857C4DB4480F555C393032A2F0AB2D62DE42C2977 PUSH1 0x40 MLOAD PUSH1 0x40 MLOAD DUP1 SWAP2 SUB SWAP1 LOG3 PUSH1 0x4 PUSH1 0x0 SWAP1 SLOAD SWAP1 PUSH2 0x100 EXP SWAP1 DIV PUSH20 0xFFFFFFFFFFFFFFFFFFFFFFFFFFFFFFFFFFFFFFFF AND PUSH1 0x3 PUSH1 0x0 PUSH2 0x100 EXP DUP2 SLOAD DUP2 PUSH20 0xFFFFFFFFFFFFFFFFFFFFFFFFFFFFFFFFFFFFFFFF MUL NOT AND SWAP1 DUP4 PUSH20 0xFFFFFFFFFFFFFFFFFFFFFFFFFFFFFFFFFFFFFFFF AND MUL OR SWAP1 SSTORE POP PUSH1 0x0 PUSH1 0x4 PUSH1 0x0 PUSH2 0x100 EXP DUP2 SLOAD DUP2 PUSH20 0xFFFFFFFFFFFFFFFFFFFFFFFFFFFFFFFFFFFFFFFF MUL NOT AND SWAP1 DUP4 PUSH20 0xFFFFFFFFFFFFFFFFFFFFFFFFFFFFFFFFFFFFFFFF AND MUL OR SWAP1 SSTORE POP JUMP JUMPDEST PUSH1 0x3 PUSH1 0x0 SWAP1 SLOAD SWAP1 PUSH2 0x100 EXP SWAP1 DIV PUSH20 0xFFFFFFFFFFFFFFFFFFFFFFFFFFFFFFFFFFFFFFFF AND PUSH20 0xFFFFFFFFFFFFFFFFFFFFFFFFFFFFFFFFFFFFFFFF AND CALLER PUSH20 0xFFFFFFFFFFFFFFFFFFFFFFFFFFFFFFFFFFFFFFFF AND EQ PUSH2 0x1275 JUMPI PUSH1 0x40 MLOAD PUSH32 0x8C379A000000000000000000000000000000000000000000000000000000000 DUP2 MSTORE PUSH1 0x4 ADD DUP1 DUP1 PUSH1 0x20 ADD DUP3 DUP2 SUB DUP3 MSTORE PUSH1 0x19 DUP2 MSTORE PUSH1 0x20 ADD DUP1 PUSH32 0x63616C6C6572206E6F742061206D656C7465722061646D696E00000000000000 DUP2 MSTORE POP PUSH1 0x20 ADD SWAP2 POP POP PUSH1 0x40 MLOAD DUP1 SWAP2 SUB SWAP1 REVERT JUMPDEST PUSH1 0x0 PUSH1 0x2 PUSH1 0x0 DUP4 PUSH20 0xFFFFFFFFFFFFFFFFFFFFFFFFFFFFFFFFFFFFFFFF AND PUSH20 0xFFFFFFFFFFFFFFFFFFFFFFFFFFFFFFFFFFFFFFFF AND DUP2 MSTORE PUSH1 0x20 ADD SWAP1 DUP2 MSTORE PUSH1 0x20 ADD PUSH1 0x0 KECCAK256 PUSH1 0x0 PUSH2 0x100 EXP DUP2 SLOAD DUP2 PUSH1 0xFF MUL NOT AND SWAP1 DUP4 ISZERO ISZERO MUL OR SWAP1 SSTORE POP POP JUMP JUMPDEST PUSH1 0x0 PUSH2 0x12DD DUP5 DUP5 DUP5 PUSH2 0x2C16 JUMP JUMPDEST PUSH2 0x139E DUP5 PUSH2 0x12E9 PUSH2 0x26D0 JUMP JUMPDEST PUSH2 0x1399 DUP6 PUSH1 0x40 MLOAD DUP1 PUSH1 0x60 ADD PUSH1 0x40 MSTORE DUP1 PUSH1 0x28 DUP2 MSTORE PUSH1 0x20 ADD PUSH2 0x3E84 PUSH1 0x28 SWAP2 CODECOPY PUSH1 0x6 PUSH1 0x0 DUP12 PUSH20 0xFFFFFFFFFFFFFFFFFFFFFFFFFFFFFFFFFFFFFFFF AND PUSH20 0xFFFFFFFFFFFFFFFFFFFFFFFFFFFFFFFFFFFFFFFF AND DUP2 MSTORE PUSH1 0x20 ADD SWAP1 DUP2 MSTORE PUSH1 0x20 ADD PUSH1 0x0 KECCAK256 PUSH1 0x0 PUSH2 0x134F PUSH2 0x26D0 JUMP JUMPDEST PUSH20 0xFFFFFFFFFFFFFFFFFFFFFFFFFFFFFFFFFFFFFFFF AND PUSH20 0xFFFFFFFFFFFFFFFFFFFFFFFFFFFFFFFFFFFFFFFF AND DUP2 MSTORE PUSH1 0x20 ADD SWAP1 DUP2 MSTORE PUSH1 0x20 ADD PUSH1 0x0 KECCAK256 SLOAD PUSH2 0x2D91 SWAP1 SWAP3 SWAP2 SWAP1 PUSH4 0xFFFFFFFF AND JUMP JUMPDEST PUSH2 0x26D8 JUMP JUMPDEST PUSH1 0x1 SWAP1 POP SWAP4 SWAP3 POP POP POP JUMP JUMPDEST PUSH1 0x0 PUSH1 0xB PUSH1 0x0 SWAP1 SLOAD SWAP1 PUSH2 0x100 EXP SWAP1 DIV PUSH1 0xFF AND SWAP1 POP SWAP1 JUMP JUMPDEST PUSH1 0x0 PUSH1 0x3 PUSH1 0x0 SWAP1 SLOAD SWAP1 PUSH2 0x100 EXP SWAP1 DIV PUSH20 0xFFFFFFFFFFFFFFFFFFFFFFFFFFFFFFFFFFFFFFFF AND SWAP1 POP SWAP1 JUMP JUMPDEST PUSH2 0x13F2 PUSH2 0x26D0 JUMP JUMPDEST PUSH20 0xFFFFFFFFFFFFFFFFFFFFFFFFFFFFFFFFFFFFFFFF AND PUSH1 0x1 PUSH1 0x0 SWAP1 SLOAD SWAP1 PUSH2 0x100 EXP SWAP1 DIV PUSH20 0xFFFFFFFFFFFFFFFFFFFFFFFFFFFFFFFFFFFFFFFF AND PUSH20 0xFFFFFFFFFFFFFFFFFFFFFFFFFFFFFFFFFFFFFFFF AND EQ PUSH2 0x14B4 JUMPI PUSH1 0x40 MLOAD PUSH32 0x8C379A000000000000000000000000000000000000000000000000000000000 DUP2 MSTORE PUSH1 0x4 ADD DUP1 DUP1 PUSH1 0x20 ADD DUP3 DUP2 SUB DUP3 MSTORE PUSH1 0x20 DUP2 MSTORE PUSH1 0x20 ADD DUP1 PUSH32 0x4F776E61626C653A2063616C6C6572206973206E6F7420746865206F776E6572 DUP2 MSTORE POP PUSH1 0x20 ADD SWAP2 POP POP PUSH1 0x40 MLOAD DUP1 SWAP2 SUB SWAP1 REVERT JUMPDEST DUP1 PUSH1 0xF DUP2 SWAP1 SSTORE POP POP JUMP JUMPDEST PUSH1 0x0 PUSH2 0x1567 PUSH2 0x14CB PUSH2 0x26D0 JUMP JUMPDEST DUP5 PUSH2 0x1562 DUP6 PUSH1 0x6 PUSH1 0x0 PUSH2 0x14DC PUSH2 0x26D0 JUMP JUMPDEST PUSH20 0xFFFFFFFFFFFFFFFFFFFFFFFFFFFFFFFFFFFFFFFF AND PUSH20 0xFFFFFFFFFFFFFFFFFFFFFFFFFFFFFFFFFFFFFFFF AND DUP2 MSTORE PUSH1 0x20 ADD SWAP1 DUP2 MSTORE PUSH1 0x20 ADD PUSH1 0x0 KECCAK256 PUSH1 0x0 DUP10 PUSH20 0xFFFFFFFFFFFFFFFFFFFFFFFFFFFFFFFFFFFFFFFF AND PUSH20 0xFFFFFFFFFFFFFFFFFFFFFFFFFFFFFFFFFFFFFFFF AND DUP2 MSTORE PUSH1 0x20 ADD SWAP1 DUP2 MSTORE PUSH1 0x20 ADD PUSH1 0x0 KECCAK256 SLOAD PUSH2 0x2E51 SWAP1 SWAP2 SWAP1 PUSH4 0xFFFFFFFF AND JUMP JUMPDEST PUSH2 0x26D8 JUMP JUMPDEST PUSH1 0x1 SWAP1 POP SWAP3 SWAP2 POP POP JUMP JUMPDEST PUSH2 0x1579 PUSH2 0x26D0 JUMP JUMPDEST PUSH20 0xFFFFFFFFFFFFFFFFFFFFFFFFFFFFFFFFFFFFFFFF AND PUSH1 0x1 PUSH1 0x0 SWAP1 SLOAD SWAP1 PUSH2 0x100 EXP SWAP1 DIV PUSH20 0xFFFFFFFFFFFFFFFFFFFFFFFFFFFFFFFFFFFFFFFF AND PUSH20 0xFFFFFFFFFFFFFFFFFFFFFFFFFFFFFFFFFFFFFFFF AND EQ PUSH2 0x163B JUMPI PUSH1 0x40 MLOAD PUSH32 0x8C379A000000000000000000000000000000000000000000000000000000000 DUP2 MSTORE PUSH1 0x4 ADD DUP1 DUP1 PUSH1 0x20 ADD DUP3 DUP2 SUB DUP3 MSTORE PUSH1 0x20 DUP2 MSTORE PUSH1 0x20 ADD DUP1 PUSH32 0x4F776E61626C653A2063616C6C6572206973206E6F7420746865206F776E6572 DUP2 MSTORE POP PUSH1 0x20 ADD SWAP2 POP POP PUSH1 0x40 MLOAD DUP1 SWAP2 SUB SWAP1 REVERT JUMPDEST PUSH2 0x1645 DUP3 DUP3 PUSH2 0x2ED9 JUMP JUMPDEST POP POP JUMP JUMPDEST PUSH1 0x0 PUSH2 0x165C PUSH2 0x1656 PUSH2 0x26D0 JUMP JUMPDEST DUP4 PUSH2 0x30A2 JUMP JUMPDEST PUSH1 0x1 SWAP1 POP SWAP2 SWAP1 POP JUMP JUMPDEST PUSH1 0x3 PUSH1 0x0 SWAP1 SLOAD SWAP1 PUSH2 0x100 EXP SWAP1 DIV PUSH20 0xFFFFFFFFFFFFFFFFFFFFFFFFFFFFFFFFFFFFFFFF AND PUSH20 0xFFFFFFFFFFFFFFFFFFFFFFFFFFFFFFFFFFFFFFFF AND CALLER PUSH20 0xFFFFFFFFFFFFFFFFFFFFFFFFFFFFFFFFFFFFFFFF AND EQ PUSH2 0x1728 JUMPI PUSH1 0x40 MLOAD PUSH32 0x8C379A000000000000000000000000000000000000000000000000000000000 DUP2 MSTORE PUSH1 0x4 ADD DUP1 DUP1 PUSH1 0x20 ADD DUP3 DUP2 SUB DUP3 MSTORE PUSH1 0x19 DUP2 MSTORE PUSH1 0x20 ADD DUP1 PUSH32 0x63616C6C6572206E6F742061206D656C7465722061646D696E00000000000000 DUP2 MSTORE POP PUSH1 0x20 ADD SWAP2 POP POP PUSH1 0x40 MLOAD DUP1 SWAP2 SUB SWAP1 REVERT JUMPDEST DUP1 PUSH1 0x4 PUSH1 0x0 PUSH2 0x100 EXP DUP2 SLOAD DUP2 PUSH20 0xFFFFFFFFFFFFFFFFFFFFFFFFFFFFFFFFFFFFFFFF MUL NOT AND SWAP1 DUP4 PUSH20 0xFFFFFFFFFFFFFFFFFFFFFFFFFFFFFFFFFFFFFFFF AND MUL OR SWAP1 SSTORE POP POP JUMP JUMPDEST PUSH1 0x15 PUSH1 0x0 SWAP1 SLOAD SWAP1 PUSH2 0x100 EXP SWAP1 DIV PUSH20 0xFFFFFFFFFFFFFFFFFFFFFFFFFFFFFFFFFFFFFFFF AND DUP2 JUMP JUMPDEST PUSH1 0xF SLOAD DUP2 JUMP JUMPDEST PUSH1 0x13 PUSH1 0x0 SWAP1 SLOAD SWAP1 PUSH2 0x100 EXP SWAP1 DIV PUSH20 0xFFFFFFFFFFFFFFFFFFFFFFFFFFFFFFFFFFFFFFFF AND DUP2 JUMP JUMPDEST PUSH1 0x4 PUSH1 0x0 SWAP1 SLOAD SWAP1 PUSH2 0x100 EXP SWAP1 DIV PUSH20 0xFFFFFFFFFFFFFFFFFFFFFFFFFFFFFFFFFFFFFFFF AND DUP2 JUMP JUMPDEST PUSH1 0x0 PUSH2 0x1840 PUSH2 0x17F2 DUP4 PUSH2 0x3268 JUMP JUMPDEST PUSH1 0x5 PUSH1 0x0 DUP6 PUSH20 0xFFFFFFFFFFFFFFFFFFFFFFFFFFFFFFFFFFFFFFFF AND PUSH20 0xFFFFFFFFFFFFFFFFFFFFFFFFFFFFFFFFFFFFFFFF AND DUP2 MSTORE PUSH1 0x20 ADD SWAP1 DUP2 MSTORE PUSH1 0x20 ADD PUSH1 0x0 KECCAK256 SLOAD PUSH2 0x2E51 SWAP1 SWAP2 SWAP1 PUSH4 0xFFFFFFFF AND JUMP JUMPDEST SWAP1 POP SWAP2 SWAP1 POP JUMP JUMPDEST PUSH2 0x184F PUSH2 0x26D0 JUMP JUMPDEST PUSH20 0xFFFFFFFFFFFFFFFFFFFFFFFFFFFFFFFFFFFFFFFF AND PUSH1 0x1 PUSH1 0x0 SWAP1 SLOAD SWAP1 PUSH2 0x100 EXP SWAP1 DIV PUSH20 0xFFFFFFFFFFFFFFFFFFFFFFFFFFFFFFFFFFFFFFFF AND PUSH20 0xFFFFFFFFFFFFFFFFFFFFFFFFFFFFFFFFFFFFFFFF AND EQ PUSH2 0x1911 JUMPI PUSH1 0x40 MLOAD PUSH32 0x8C379A000000000000000000000000000000000000000000000000000000000 DUP2 MSTORE PUSH1 0x4 ADD DUP1 DUP1 PUSH1 0x20 ADD DUP3 DUP2 SUB DUP3 MSTORE PUSH1 0x20 DUP2 MSTORE PUSH1 0x20 ADD DUP1 PUSH32 0x4F776E61626C653A2063616C6C6572206973206E6F7420746865206F776E6572 DUP2 MSTORE POP PUSH1 0x20 ADD SWAP2 POP POP PUSH1 0x40 MLOAD DUP1 SWAP2 SUB SWAP1 REVERT JUMPDEST PUSH1 0x0 PUSH20 0xFFFFFFFFFFFFFFFFFFFFFFFFFFFFFFFFFFFFFFFF AND PUSH1 0x1 PUSH1 0x0 SWAP1 SLOAD SWAP1 PUSH2 0x100 EXP SWAP1 DIV PUSH20 0xFFFFFFFFFFFFFFFFFFFFFFFFFFFFFFFFFFFFFFFF AND PUSH20 0xFFFFFFFFFFFFFFFFFFFFFFFFFFFFFFFFFFFFFFFF AND PUSH32 0x8BE0079C531659141344CD1FD0A4F28419497F9722A3DAAFE3B4186F6B6457E0 PUSH1 0x40 MLOAD PUSH1 0x40 MLOAD DUP1 SWAP2 SUB SWAP1 LOG3 PUSH1 0x0 PUSH1 0x1 PUSH1 0x0 PUSH2 0x100 EXP DUP2 SLOAD DUP2 PUSH20 0xFFFFFFFFFFFFFFFFFFFFFFFFFFFFFFFFFFFFFFFF MUL NOT AND SWAP1 DUP4 PUSH20 0xFFFFFFFFFFFFFFFFFFFFFFFFFFFFFFFFFFFFFFFF AND MUL OR SWAP1 SSTORE POP JUMP JUMPDEST PUSH1 0x0 DUP1 PUSH2 0x1A12 DUP4 PUSH1 0x40 MLOAD DUP1 PUSH1 0x60 ADD PUSH1 0x40 MSTORE DUP1 PUSH1 0x24 DUP2 MSTORE PUSH1 0x20 ADD PUSH2 0x3EAC PUSH1 0x24 SWAP2 CODECOPY PUSH2 0x1A03 DUP8 PUSH2 0x19FE PUSH2 0x26D0 JUMP JUMPDEST PUSH2 0x217A JUMP JUMPDEST PUSH2 0x2D91 SWAP1 SWAP3 SWAP2 SWAP1 PUSH4 0xFFFFFFFF AND JUMP JUMPDEST SWAP1 POP PUSH2 0x1A26 DUP5 PUSH2 0x1A20 PUSH2 0x26D0 JUMP JUMPDEST DUP4 PUSH2 0x26D8 JUMP JUMPDEST PUSH2 0x1A30 DUP5 DUP5 PUSH2 0x30A2 JUMP JUMPDEST PUSH1 0x1 SWAP2 POP POP SWAP3 SWAP2 POP POP JUMP JUMPDEST PUSH1 0x0 PUSH1 0x1 PUSH1 0x0 SWAP1 SLOAD SWAP1 PUSH2 0x100 EXP SWAP1 DIV PUSH20 0xFFFFFFFFFFFFFFFFFFFFFFFFFFFFFFFFFFFFFFFF AND SWAP1 POP SWAP1 JUMP JUMPDEST PUSH2 0x1A6D PUSH2 0x26D0 JUMP JUMPDEST PUSH20 0xFFFFFFFFFFFFFFFFFFFFFFFFFFFFFFFFFFFFFFFF AND PUSH1 0x1 PUSH1 0x0 SWAP1 SLOAD SWAP1 PUSH2 0x100 EXP SWAP1 DIV PUSH20 0xFFFFFFFFFFFFFFFFFFFFFFFFFFFFFFFFFFFFFFFF AND PUSH20 0xFFFFFFFFFFFFFFFFFFFFFFFFFFFFFFFFFFFFFFFF AND EQ PUSH2 0x1B2F JUMPI PUSH1 0x40 MLOAD PUSH32 0x8C379A000000000000000000000000000000000000000000000000000000000 DUP2 MSTORE PUSH1 0x4 ADD DUP1 DUP1 PUSH1 0x20 ADD DUP3 DUP2 SUB DUP3 MSTORE PUSH1 0x20 DUP2 MSTORE PUSH1 0x20 ADD DUP1 PUSH32 0x4F776E61626C653A2063616C6C6572206973206E6F7420746865206F776E6572 DUP2 MSTORE POP PUSH1 0x20 ADD SWAP2 POP POP PUSH1 0x40 MLOAD DUP1 SWAP2 SUB SWAP1 REVERT JUMPDEST PUSH1 0x10 PUSH1 0x0 DUP3 PUSH20 0xFFFFFFFFFFFFFFFFFFFFFFFFFFFFFFFFFFFFFFFF AND PUSH20 0xFFFFFFFFFFFFFFFFFFFFFFFFFFFFFFFFFFFFFFFF AND DUP2 MSTORE PUSH1 0x20 ADD SWAP1 DUP2 MSTORE PUSH1 0x20 ADD PUSH1 0x0 KECCAK256 PUSH1 0x0 PUSH2 0x100 EXP DUP2 SLOAD SWAP1 PUSH1 0xFF MUL NOT AND SWAP1 SSTORE POP JUMP JUMPDEST PUSH2 0x1B89 PUSH2 0x26D0 JUMP JUMPDEST PUSH20 0xFFFFFFFFFFFFFFFFFFFFFFFFFFFFFFFFFFFFFFFF AND PUSH1 0x1 PUSH1 0x0 SWAP1 SLOAD SWAP1 PUSH2 0x100 EXP SWAP1 DIV PUSH20 0xFFFFFFFFFFFFFFFFFFFFFFFFFFFFFFFFFFFFFFFF AND PUSH20 0xFFFFFFFFFFFFFFFFFFFFFFFFFFFFFFFFFFFFFFFF AND EQ PUSH2 0x1C4B JUMPI PUSH1 0x40 MLOAD PUSH32 0x8C379A000000000000000000000000000000000000000000000000000000000 DUP2 MSTORE PUSH1 0x4 ADD DUP1 DUP1 PUSH1 0x20 ADD DUP3 DUP2 SUB DUP3 MSTORE PUSH1 0x20 DUP2 MSTORE PUSH1 0x20 ADD DUP1 PUSH32 0x4F776E61626C653A2063616C6C6572206973206E6F7420746865206F776E6572 DUP2 MSTORE POP PUSH1 0x20 ADD SWAP2 POP POP PUSH1 0x40 MLOAD DUP1 SWAP2 SUB SWAP1 REVERT JUMPDEST PUSH1 0x1 PUSH1 0x10 PUSH1 0x0 DUP4 PUSH20 0xFFFFFFFFFFFFFFFFFFFFFFFFFFFFFFFFFFFFFFFF AND PUSH20 0xFFFFFFFFFFFFFFFFFFFFFFFFFFFFFFFFFFFFFFFF AND DUP2 MSTORE PUSH1 0x20 ADD SWAP1 DUP2 MSTORE PUSH1 0x20 ADD PUSH1 0x0 KECCAK256 PUSH1 0x0 PUSH2 0x100 EXP DUP2 SLOAD DUP2 PUSH1 0xFF MUL NOT AND SWAP1 DUP4 ISZERO ISZERO MUL OR SWAP1 SSTORE POP POP JUMP JUMPDEST PUSH1 0x60 PUSH1 0xA DUP1 SLOAD PUSH1 0x1 DUP2 PUSH1 0x1 AND ISZERO PUSH2 0x100 MUL SUB AND PUSH1 0x2 SWAP1 DIV DUP1 PUSH1 0x1F ADD PUSH1 0x20 DUP1 SWAP2 DIV MUL PUSH1 0x20 ADD PUSH1 0x40 MLOAD SWAP1 DUP2 ADD PUSH1 0x40 MSTORE DUP1 SWAP3 SWAP2 SWAP1 DUP2 DUP2 MSTORE PUSH1 0x20 ADD DUP3 DUP1 SLOAD PUSH1 0x1 DUP2 PUSH1 0x1 AND ISZERO PUSH2 0x100 MUL SUB AND PUSH1 0x2 SWAP1 DIV DUP1 ISZERO PUSH2 0x1D3E JUMPI DUP1 PUSH1 0x1F LT PUSH2 0x1D13 JUMPI PUSH2 0x100 DUP1 DUP4 SLOAD DIV MUL DUP4 MSTORE SWAP2 PUSH1 0x20 ADD SWAP2 PUSH2 0x1D3E JUMP JUMPDEST DUP3 ADD SWAP2 SWAP1 PUSH1 0x0 MSTORE PUSH1 0x20 PUSH1 0x0 KECCAK256 SWAP1 JUMPDEST DUP2 SLOAD DUP2 MSTORE SWAP1 PUSH1 0x1 ADD SWAP1 PUSH1 0x20 ADD DUP1 DUP4 GT PUSH2 0x1D21 JUMPI DUP3 SWAP1 SUB PUSH1 0x1F AND DUP3 ADD SWAP2 JUMPDEST POP POP POP POP POP SWAP1 POP SWAP1 JUMP JUMPDEST PUSH1 0x0 PUSH1 0x5 PUSH1 0x0 DUP4 PUSH20 0xFFFFFFFFFFFFFFFFFFFFFFFFFFFFFFFFFFFFFFFF AND PUSH20 0xFFFFFFFFFFFFFFFFFFFFFFFFFFFFFFFFFFFFFFFF AND DUP2 MSTORE PUSH1 0x20 ADD SWAP1 DUP2 MSTORE PUSH1 0x20 ADD PUSH1 0x0 KECCAK256 SLOAD SWAP1 POP SWAP2 SWAP1 POP JUMP JUMPDEST PUSH1 0x0 PUSH2 0x1E54 PUSH2 0x1D9E PUSH2 0x26D0 JUMP JUMPDEST DUP5 PUSH2 0x1E4F DUP6 PUSH1 0x40 MLOAD DUP1 PUSH1 0x60 ADD PUSH1 0x40 MSTORE DUP1 PUSH1 0x25 DUP2 MSTORE PUSH1 0x20 ADD PUSH2 0x3FA4 PUSH1 0x25 SWAP2 CODECOPY PUSH1 0x6 PUSH1 0x0 PUSH2 0x1DC8 PUSH2 0x26D0 JUMP JUMPDEST PUSH20 0xFFFFFFFFFFFFFFFFFFFFFFFFFFFFFFFFFFFFFFFF AND PUSH20 0xFFFFFFFFFFFFFFFFFFFFFFFFFFFFFFFFFFFFFFFF AND DUP2 MSTORE PUSH1 0x20 ADD SWAP1 DUP2 MSTORE PUSH1 0x20 ADD PUSH1 0x0 KECCAK256 PUSH1 0x0 DUP11 PUSH20 0xFFFFFFFFFFFFFFFFFFFFFFFFFFFFFFFFFFFFFFFF AND PUSH20 0xFFFFFFFFFFFFFFFFFFFFFFFFFFFFFFFFFFFFFFFF AND DUP2 MSTORE PUSH1 0x20 ADD SWAP1 DUP2 MSTORE PUSH1 0x20 ADD PUSH1 0x0 KECCAK256 SLOAD PUSH2 0x2D91 SWAP1 SWAP3 SWAP2 SWAP1 PUSH4 0xFFFFFFFF AND JUMP JUMPDEST PUSH2 0x26D8 JUMP JUMPDEST PUSH1 0x1 SWAP1 POP SWAP3 SWAP2 POP POP JUMP JUMPDEST PUSH1 0x0 PUSH2 0x1E72 PUSH2 0x1E6B PUSH2 0x26D0 JUMP JUMPDEST DUP5 DUP5 PUSH2 0x2C16 JUMP JUMPDEST PUSH1 0x1 SWAP1 POP SWAP3 SWAP2 POP POP JUMP JUMPDEST PUSH1 0x0 PUSH1 0x1 ISZERO ISZERO PUSH1 0x2 PUSH1 0x0 CALLER PUSH20 0xFFFFFFFFFFFFFFFFFFFFFFFFFFFFFFFFFFFFFFFF AND PUSH20 0xFFFFFFFFFFFFFFFFFFFFFFFFFFFFFFFFFFFFFFFF AND DUP2 MSTORE PUSH1 0x20 ADD SWAP1 DUP2 MSTORE PUSH1 0x20 ADD PUSH1 0x0 KECCAK256 PUSH1 0x0 SWAP1 SLOAD SWAP1 PUSH2 0x100 EXP SWAP1 DIV PUSH1 0xFF AND ISZERO ISZERO EQ PUSH2 0x1F44 JUMPI PUSH1 0x40 MLOAD PUSH32 0x8C379A000000000000000000000000000000000000000000000000000000000 DUP2 MSTORE PUSH1 0x4 ADD DUP1 DUP1 PUSH1 0x20 ADD DUP3 DUP2 SUB DUP3 MSTORE PUSH1 0x12 DUP2 MSTORE PUSH1 0x20 ADD DUP1 PUSH32 0x63616E277420706572666F726D206D656C740000000000000000000000000000 DUP2 MSTORE POP PUSH1 0x20 ADD SWAP2 POP POP PUSH1 0x40 MLOAD DUP1 SWAP2 SUB SWAP1 REVERT JUMPDEST PUSH2 0x1F4E DUP4 DUP4 PUSH2 0x32B0 JUMP JUMPDEST PUSH1 0x1 SWAP1 POP SWAP3 SWAP2 POP POP JUMP JUMPDEST PUSH1 0x14 PUSH1 0x0 SWAP1 SLOAD SWAP1 PUSH2 0x100 EXP SWAP1 DIV PUSH20 0xFFFFFFFFFFFFFFFFFFFFFFFFFFFFFFFFFFFFFFFF AND DUP2 JUMP JUMPDEST PUSH2 0x1F86 PUSH2 0x26D0 JUMP JUMPDEST PUSH20 0xFFFFFFFFFFFFFFFFFFFFFFFFFFFFFFFFFFFFFFFF AND PUSH1 0x1 PUSH1 0x0 SWAP1 SLOAD SWAP1 PUSH2 0x100 EXP SWAP1 DIV PUSH20 0xFFFFFFFFFFFFFFFFFFFFFFFFFFFFFFFFFFFFFFFF AND PUSH20 0xFFFFFFFFFFFFFFFFFFFFFFFFFFFFFFFFFFFFFFFF AND EQ PUSH2 0x2048 JUMPI PUSH1 0x40 MLOAD PUSH32 0x8C379A000000000000000000000000000000000000000000000000000000000 DUP2 MSTORE PUSH1 0x4 ADD DUP1 DUP1 PUSH1 0x20 ADD DUP3 DUP2 SUB DUP3 MSTORE PUSH1 0x20 DUP2 MSTORE PUSH1 0x20 ADD DUP1 PUSH32 0x4F776E61626C653A2063616C6C6572206973206E6F7420746865206F776E6572 DUP2 MSTORE POP PUSH1 0x20 ADD SWAP2 POP POP PUSH1 0x40 MLOAD DUP1 SWAP2 SUB SWAP1 REVERT JUMPDEST DUP1 PUSH1 0xE DUP2 SWAP1 SSTORE POP POP JUMP JUMPDEST PUSH1 0x0 PUSH1 0x8 SLOAD SWAP1 POP SWAP1 JUMP JUMPDEST PUSH1 0x3 PUSH1 0x0 SWAP1 SLOAD SWAP1 PUSH2 0x100 EXP SWAP1 DIV PUSH20 0xFFFFFFFFFFFFFFFFFFFFFFFFFFFFFFFFFFFFFFFF AND PUSH20 0xFFFFFFFFFFFFFFFFFFFFFFFFFFFFFFFFFFFFFFFF AND CALLER PUSH20 0xFFFFFFFFFFFFFFFFFFFFFFFFFFFFFFFFFFFFFFFF AND EQ PUSH2 0x211F JUMPI PUSH1 0x40 MLOAD PUSH32 0x8C379A000000000000000000000000000000000000000000000000000000000 DUP2 MSTORE PUSH1 0x4 ADD DUP1 DUP1 PUSH1 0x20 ADD DUP3 DUP2 SUB DUP3 MSTORE PUSH1 0x19 DUP2 MSTORE PUSH1 0x20 ADD DUP1 PUSH32 0x63616C6C6572206E6F742061206D656C7465722061646D696E00000000000000 DUP2 MSTORE POP PUSH1 0x20 ADD SWAP2 POP POP PUSH1 0x40 MLOAD DUP1 SWAP2 SUB SWAP1 REVERT JUMPDEST PUSH1 0x1 PUSH1 0x2 PUSH1 0x0 DUP4 PUSH20 0xFFFFFFFFFFFFFFFFFFFFFFFFFFFFFFFFFFFFFFFF AND PUSH20 0xFFFFFFFFFFFFFFFFFFFFFFFFFFFFFFFFFFFFFFFF AND DUP2 MSTORE PUSH1 0x20 ADD SWAP1 DUP2 MSTORE PUSH1 0x20 ADD PUSH1 0x0 KECCAK256 PUSH1 0x0 PUSH2 0x100 EXP DUP2 SLOAD DUP2 PUSH1 0xFF MUL NOT AND SWAP1 DUP4 ISZERO ISZERO MUL OR SWAP1 SSTORE POP POP JUMP JUMPDEST PUSH1 0x0 PUSH1 0x6 PUSH1 0x0 DUP5 PUSH20 0xFFFFFFFFFFFFFFFFFFFFFFFFFFFFFFFFFFFFFFFF AND PUSH20 0xFFFFFFFFFFFFFFFFFFFFFFFFFFFFFFFFFFFFFFFF AND DUP2 MSTORE PUSH1 0x20 ADD SWAP1 DUP2 MSTORE PUSH1 0x20 ADD PUSH1 0x0 KECCAK256 PUSH1 0x0 DUP4 PUSH20 0xFFFFFFFFFFFFFFFFFFFFFFFFFFFFFFFFFFFFFFFF AND PUSH20 0xFFFFFFFFFFFFFFFFFFFFFFFFFFFFFFFFFFFFFFFF AND DUP2 MSTORE PUSH1 0x20 ADD SWAP1 DUP2 MSTORE PUSH1 0x20 ADD PUSH1 0x0 KECCAK256 SLOAD SWAP1 POP SWAP3 SWAP2 POP POP JUMP JUMPDEST PUSH1 0x0 PUSH1 0x1 ISZERO ISZERO PUSH1 0x2 PUSH1 0x0 CALLER PUSH20 0xFFFFFFFFFFFFFFFFFFFFFFFFFFFFFFFFFFFFFFFF AND PUSH20 0xFFFFFFFFFFFFFFFFFFFFFFFFFFFFFFFFFFFFFFFF AND DUP2 MSTORE PUSH1 0x20 ADD SWAP1 DUP2 MSTORE PUSH1 0x20 ADD PUSH1 0x0 KECCAK256 PUSH1 0x0 SWAP1 SLOAD SWAP1 PUSH2 0x100 EXP SWAP1 DIV PUSH1 0xFF AND ISZERO ISZERO EQ PUSH2 0x22C9 JUMPI PUSH1 0x40 MLOAD PUSH32 0x8C379A000000000000000000000000000000000000000000000000000000000 DUP2 MSTORE PUSH1 0x4 ADD DUP1 DUP1 PUSH1 0x20 ADD DUP3 DUP2 SUB DUP3 MSTORE PUSH1 0x12 DUP2 MSTORE PUSH1 0x20 ADD DUP1 PUSH32 0x63616E277420706572666F726D206D656C740000000000000000000000000000 DUP2 MSTORE POP PUSH1 0x20 ADD SWAP2 POP POP PUSH1 0x40 MLOAD DUP1 SWAP2 SUB SWAP1 REVERT JUMPDEST PUSH1 0x0 PUSH20 0xFFFFFFFFFFFFFFFFFFFFFFFFFFFFFFFFFFFFFFFF AND DUP5 PUSH20 0xFFFFFFFFFFFFFFFFFFFFFFFFFFFFFFFFFFFFFFFF AND EQ ISZERO PUSH2 0x234F JUMPI PUSH1 0x40 MLOAD PUSH32 0x8C379A000000000000000000000000000000000000000000000000000000000 DUP2 MSTORE PUSH1 0x4 ADD DUP1 DUP1 PUSH1 0x20 ADD DUP3 DUP2 SUB DUP3 MSTORE PUSH1 0x25 DUP2 MSTORE PUSH1 0x20 ADD DUP1 PUSH2 0x3F3A PUSH1 0x25 SWAP2 CODECOPY PUSH1 0x40 ADD SWAP2 POP POP PUSH1 0x40 MLOAD DUP1 SWAP2 SUB SWAP1 REVERT JUMPDEST PUSH1 0x0 PUSH20 0xFFFFFFFFFFFFFFFFFFFFFFFFFFFFFFFFFFFFFFFF AND DUP4 PUSH20 0xFFFFFFFFFFFFFFFFFFFFFFFFFFFFFFFFFFFFFFFF AND EQ ISZERO PUSH2 0x23D5 JUMPI PUSH1 0x40 MLOAD PUSH32 0x8C379A000000000000000000000000000000000000000000000000000000000 DUP2 MSTORE PUSH1 0x4 ADD DUP1 DUP1 PUSH1 0x20 ADD DUP3 DUP2 SUB DUP3 MSTORE PUSH1 0x23 DUP2 MSTORE PUSH1 0x20 ADD DUP1 PUSH2 0x3CDA PUSH1 0x23 SWAP2 CODECOPY PUSH1 0x40 ADD SWAP2 POP POP PUSH1 0x40 MLOAD DUP1 SWAP2 SUB SWAP1 REVERT JUMPDEST PUSH2 0x23DF DUP5 DUP4 PUSH2 0x357D JUMP JUMPDEST POP PUSH2 0x23EA DUP4 DUP4 PUSH2 0x361C JUMP JUMPDEST POP DUP3 PUSH20 0xFFFFFFFFFFFFFFFFFFFFFFFFFFFFFFFFFFFFFFFF AND DUP5 PUSH20 0xFFFFFFFFFFFFFFFFFFFFFFFFFFFFFFFFFFFFFFFF AND PUSH32 0x9958976925BAA403ABF86AFA44976A9EFFFF3E01931EAFD0EA2689F40852FD59 DUP5 PUSH1 0x40 MLOAD DUP1 DUP3 DUP2 MSTORE PUSH1 0x20 ADD SWAP2 POP POP PUSH1 0x40 MLOAD DUP1 SWAP2 SUB SWAP1 LOG3 DUP3 PUSH20 0xFFFFFFFFFFFFFFFFFFFFFFFFFFFFFFFFFFFFFFFF AND DUP5 PUSH20 0xFFFFFFFFFFFFFFFFFFFFFFFFFFFFFFFFFFFFFFFF AND PUSH32 0xDDF252AD1BE2C89B69C2B068FC378DAA952BA7F163C4A11628F55A4DF523B3EF DUP5 PUSH1 0x40 MLOAD DUP1 DUP3 DUP2 MSTORE PUSH1 0x20 ADD SWAP2 POP POP PUSH1 0x40 MLOAD DUP1 SWAP2 SUB SWAP1 LOG3 PUSH1 0x1 SWAP1 POP SWAP4 SWAP3 POP POP POP JUMP JUMPDEST PUSH2 0x24C8 PUSH2 0x26D0 JUMP JUMPDEST PUSH20 0xFFFFFFFFFFFFFFFFFFFFFFFFFFFFFFFFFFFFFFFF AND PUSH1 0x1 PUSH1 0x0 SWAP1 SLOAD SWAP1 PUSH2 0x100 EXP SWAP1 DIV PUSH20 0xFFFFFFFFFFFFFFFFFFFFFFFFFFFFFFFFFFFFFFFF AND PUSH20 0xFFFFFFFFFFFFFFFFFFFFFFFFFFFFFFFFFFFFFFFF AND EQ PUSH2 0x258A JUMPI PUSH1 0x40 MLOAD PUSH32 0x8C379A000000000000000000000000000000000000000000000000000000000 DUP2 MSTORE PUSH1 0x4 ADD DUP1 DUP1 PUSH1 0x20 ADD DUP3 DUP2 SUB DUP3 MSTORE PUSH1 0x20 DUP2 MSTORE PUSH1 0x20 ADD DUP1 PUSH32 0x4F776E61626C653A2063616C6C6572206973206E6F7420746865206F776E6572 DUP2 MSTORE POP PUSH1 0x20 ADD SWAP2 POP POP PUSH1 0x40 MLOAD DUP1 SWAP2 SUB SWAP1 REVERT JUMPDEST PUSH1 0x0 PUSH20 0xFFFFFFFFFFFFFFFFFFFFFFFFFFFFFFFFFFFFFFFF AND DUP2 PUSH20 0xFFFFFFFFFFFFFFFFFFFFFFFFFFFFFFFFFFFFFFFF AND EQ ISZERO PUSH2 0x2610 JUMPI PUSH1 0x40 MLOAD PUSH32 0x8C379A000000000000000000000000000000000000000000000000000000000 DUP2 MSTORE PUSH1 0x4 ADD DUP1 DUP1 PUSH1 0x20 ADD DUP3 DUP2 SUB DUP3 MSTORE PUSH1 0x26 DUP2 MSTORE PUSH1 0x20 ADD DUP1 PUSH2 0x3D73 PUSH1 0x26 SWAP2 CODECOPY PUSH1 0x40 ADD SWAP2 POP POP PUSH1 0x40 MLOAD DUP1 SWAP2 SUB SWAP1 REVERT JUMPDEST DUP1 PUSH20 0xFFFFFFFFFFFFFFFFFFFFFFFFFFFFFFFFFFFFFFFF AND PUSH1 0x1 PUSH1 0x0 SWAP1 SLOAD SWAP1 PUSH2 0x100 EXP SWAP1 DIV PUSH20 0xFFFFFFFFFFFFFFFFFFFFFFFFFFFFFFFFFFFFFFFF AND PUSH20 0xFFFFFFFFFFFFFFFFFFFFFFFFFFFFFFFFFFFFFFFF AND PUSH32 0x8BE0079C531659141344CD1FD0A4F28419497F9722A3DAAFE3B4186F6B6457E0 PUSH1 0x40 MLOAD PUSH1 0x40 MLOAD DUP1 SWAP2 SUB SWAP1 LOG3 DUP1 PUSH1 0x1 PUSH1 0x0 PUSH2 0x100 EXP DUP2 SLOAD DUP2 PUSH20 0xFFFFFFFFFFFFFFFFFFFFFFFFFFFFFFFFFFFFFFFF MUL NOT AND SWAP1 DUP4 PUSH20 0xFFFFFFFFFFFFFFFFFFFFFFFFFFFFFFFFFFFFFFFF AND MUL OR SWAP1 SSTORE POP POP JUMP JUMPDEST PUSH1 0x0 CALLER SWAP1 POP SWAP1 JUMP JUMPDEST PUSH1 0x0 PUSH20 0xFFFFFFFFFFFFFFFFFFFFFFFFFFFFFFFFFFFFFFFF AND DUP4 PUSH20 0xFFFFFFFFFFFFFFFFFFFFFFFFFFFFFFFFFFFFFFFF AND EQ ISZERO PUSH2 0x275E JUMPI PUSH1 0x40 MLOAD PUSH32 0x8C379A000000000000000000000000000000000000000000000000000000000 DUP2 MSTORE PUSH1 0x4 ADD DUP1 DUP1 PUSH1 0x20 ADD DUP3 DUP2 SUB DUP3 MSTORE PUSH1 0x24 DUP2 MSTORE PUSH1 0x20 ADD DUP1 PUSH2 0x3F5F PUSH1 0x24 SWAP2 CODECOPY PUSH1 0x40 ADD SWAP2 POP POP PUSH1 0x40 MLOAD DUP1 SWAP2 SUB SWAP1 REVERT JUMPDEST PUSH1 0x0 PUSH20 0xFFFFFFFFFFFFFFFFFFFFFFFFFFFFFFFFFFFFFFFF AND DUP3 PUSH20 0xFFFFFFFFFFFFFFFFFFFFFFFFFFFFFFFFFFFFFFFF AND EQ ISZERO PUSH2 0x27E4 JUMPI PUSH1 0x40 MLOAD PUSH32 0x8C379A000000000000000000000000000000000000000000000000000000000 DUP2 MSTORE PUSH1 0x4 ADD DUP1 DUP1 PUSH1 0x20 ADD DUP3 DUP2 SUB DUP3 MSTORE PUSH1 0x22 DUP2 MSTORE PUSH1 0x20 ADD DUP1 PUSH2 0x3D99 PUSH1 0x22 SWAP2 CODECOPY PUSH1 0x40 ADD SWAP2 POP POP PUSH1 0x40 MLOAD DUP1 SWAP2 SUB SWAP1 REVERT JUMPDEST DUP1 PUSH1 0x6 PUSH1 0x0 DUP6 PUSH20 0xFFFFFFFFFFFFFFFFFFFFFFFFFFFFFFFFFFFFFFFF AND PUSH20 0xFFFFFFFFFFFFFFFFFFFFFFFFFFFFFFFFFFFFFFFF AND DUP2 MSTORE PUSH1 0x20 ADD SWAP1 DUP2 MSTORE PUSH1 0x20 ADD PUSH1 0x0 KECCAK256 PUSH1 0x0 DUP5 PUSH20 0xFFFFFFFFFFFFFFFFFFFFFFFFFFFFFFFFFFFFFFFF AND PUSH20 0xFFFFFFFFFFFFFFFFFFFFFFFFFFFFFFFFFFFFFFFF AND DUP2 MSTORE PUSH1 0x20 ADD SWAP1 DUP2 MSTORE PUSH1 0x20 ADD PUSH1 0x0 KECCAK256 DUP2 SWAP1 SSTORE POP DUP2 PUSH20 0xFFFFFFFFFFFFFFFFFFFFFFFFFFFFFFFFFFFFFFFF AND DUP4 PUSH20 0xFFFFFFFFFFFFFFFFFFFFFFFFFFFFFFFFFFFFFFFF AND PUSH32 0x8C5BE1E5EBEC7D5BD14F71427D1E84F3DD0314C0F7B2291E5B200AC8C7C3B925 DUP4 PUSH1 0x40 MLOAD DUP1 DUP3 DUP2 MSTORE PUSH1 0x20 ADD SWAP2 POP POP PUSH1 0x40 MLOAD DUP1 SWAP2 SUB SWAP1 LOG3 POP POP POP JUMP JUMPDEST PUSH1 0x0 PUSH20 0xFFFFFFFFFFFFFFFFFFFFFFFFFFFFFFFFFFFFFFFF AND DUP3 PUSH20 0xFFFFFFFFFFFFFFFFFFFFFFFFFFFFFFFFFFFFFFFF AND EQ ISZERO PUSH2 0x2955 JUMPI PUSH1 0x40 MLOAD PUSH32 0x8C379A000000000000000000000000000000000000000000000000000000000 DUP2 MSTORE PUSH1 0x4 ADD DUP1 DUP1 PUSH1 0x20 ADD DUP3 DUP2 SUB DUP3 MSTORE PUSH1 0x21 DUP2 MSTORE PUSH1 0x20 ADD DUP1 PUSH2 0x3ED0 PUSH1 0x21 SWAP2 CODECOPY PUSH1 0x40 ADD SWAP2 POP POP PUSH1 0x40 MLOAD DUP1 SWAP2 SUB SWAP1 REVERT JUMPDEST PUSH1 0x0 DUP2 GT PUSH2 0x29AE JUMPI PUSH1 0x40 MLOAD PUSH32 0x8C379A000000000000000000000000000000000000000000000000000000000 DUP2 MSTORE PUSH1 0x4 ADD DUP1 DUP1 PUSH1 0x20 ADD DUP3 DUP2 SUB DUP3 MSTORE PUSH1 0x31 DUP2 MSTORE PUSH1 0x20 ADD DUP1 PUSH2 0x3E0B PUSH1 0x31 SWAP2 CODECOPY PUSH1 0x40 ADD SWAP2 POP POP PUSH1 0x40 MLOAD DUP1 SWAP2 SUB SWAP1 REVERT JUMPDEST DUP1 PUSH2 0x29B8 DUP4 PUSH2 0x3268 JUMP JUMPDEST LT ISZERO PUSH2 0x2A0F JUMPI PUSH1 0x40 MLOAD PUSH32 0x8C379A000000000000000000000000000000000000000000000000000000000 DUP2 MSTORE PUSH1 0x4 ADD DUP1 DUP1 PUSH1 0x20 ADD DUP3 DUP2 SUB DUP3 MSTORE PUSH1 0x2E DUP2 MSTORE PUSH1 0x20 ADD DUP1 PUSH2 0x3CFD PUSH1 0x2E SWAP2 CODECOPY PUSH1 0x40 ADD SWAP2 POP POP PUSH1 0x40 MLOAD DUP1 SWAP2 SUB SWAP1 REVERT JUMPDEST PUSH2 0x2A19 DUP3 DUP3 PUSH2 0x357D JUMP JUMPDEST POP DUP2 PUSH20 0xFFFFFFFFFFFFFFFFFFFFFFFFFFFFFFFFFFFFFFFF AND PUSH32 0x36A0B989202AF25B5D49A593A1DD43461453EF93A93A7846EA3DBB487E119800 DUP3 PUSH1 0x40 MLOAD DUP1 DUP3 DUP2 MSTORE PUSH1 0x20 ADD SWAP2 POP POP PUSH1 0x40 MLOAD DUP1 SWAP2 SUB SWAP1 LOG2 PUSH2 0x2ABA DUP2 PUSH1 0x5 PUSH1 0x0 DUP6 PUSH20 0xFFFFFFFFFFFFFFFFFFFFFFFFFFFFFFFFFFFFFFFF AND PUSH20 0xFFFFFFFFFFFFFFFFFFFFFFFFFFFFFFFFFFFFFFFF AND DUP2 MSTORE PUSH1 0x20 ADD SWAP1 DUP2 MSTORE PUSH1 0x20 ADD PUSH1 0x0 KECCAK256 SLOAD PUSH2 0x2E51 SWAP1 SWAP2 SWAP1 PUSH4 0xFFFFFFFF AND JUMP JUMPDEST PUSH1 0x5 PUSH1 0x0 DUP5 PUSH20 0xFFFFFFFFFFFFFFFFFFFFFFFFFFFFFFFFFFFFFFFF AND PUSH20 0xFFFFFFFFFFFFFFFFFFFFFFFFFFFFFFFFFFFFFFFF AND DUP2 MSTORE PUSH1 0x20 ADD SWAP1 DUP2 MSTORE PUSH1 0x20 ADD PUSH1 0x0 KECCAK256 DUP2 SWAP1 SSTORE POP POP POP JUMP JUMPDEST PUSH1 0x0 PUSH20 0xFFFFFFFFFFFFFFFFFFFFFFFFFFFFFFFFFFFFFFFF AND DUP3 PUSH20 0xFFFFFFFFFFFFFFFFFFFFFFFFFFFFFFFFFFFFFFFF AND EQ ISZERO PUSH2 0x2B87 JUMPI PUSH1 0x40 MLOAD PUSH32 0x8C379A000000000000000000000000000000000000000000000000000000000 DUP2 MSTORE PUSH1 0x4 ADD DUP1 DUP1 PUSH1 0x20 ADD DUP3 DUP2 SUB DUP3 MSTORE PUSH1 0x28 DUP2 MSTORE PUSH1 0x20 ADD DUP1 PUSH2 0x3F12 PUSH1 0x28 SWAP2 CODECOPY PUSH1 0x40 ADD SWAP2 POP POP PUSH1 0x40 MLOAD DUP1 SWAP2 SUB SWAP1 REVERT JUMPDEST PUSH2 0x2B9C DUP2 PUSH1 0x7 SLOAD PUSH2 0x36BB SWAP1 SWAP2 SWAP1 PUSH4 0xFFFFFFFF AND JUMP JUMPDEST PUSH1 0x7 DUP2 SWAP1 SSTORE POP PUSH2 0x2BAC DUP3 DUP3 PUSH2 0x357D JUMP JUMPDEST POP ADDRESS PUSH20 0xFFFFFFFFFFFFFFFFFFFFFFFFFFFFFFFFFFFFFFFF AND DUP3 PUSH20 0xFFFFFFFFFFFFFFFFFFFFFFFFFFFFFFFFFFFFFFFF AND PUSH32 0xDDF252AD1BE2C89B69C2B068FC378DAA952BA7F163C4A11628F55A4DF523B3EF DUP4 PUSH1 0x40 MLOAD DUP1 DUP3 DUP2 MSTORE PUSH1 0x20 ADD SWAP2 POP POP PUSH1 0x40 MLOAD DUP1 SWAP2 SUB SWAP1 LOG3 POP POP JUMP JUMPDEST PUSH1 0x0 PUSH1 0xE SLOAD GT DUP1 ISZERO PUSH2 0x2C78 JUMPI POP PUSH1 0x1 ISZERO ISZERO PUSH1 0x10 PUSH1 0x0 DUP5 PUSH20 0xFFFFFFFFFFFFFFFFFFFFFFFFFFFFFFFFFFFFFFFF AND PUSH20 0xFFFFFFFFFFFFFFFFFFFFFFFFFFFFFFFFFFFFFFFF AND DUP2 MSTORE PUSH1 0x20 ADD SWAP1 DUP2 MSTORE PUSH1 0x20 ADD PUSH1 0x0 KECCAK256 PUSH1 0x0 SWAP1 SLOAD SWAP1 PUSH2 0x100 EXP SWAP1 DIV PUSH1 0xFF AND ISZERO ISZERO EQ JUMPDEST DUP1 ISZERO PUSH2 0x2CB1 JUMPI POP PUSH1 0x0 PUSH20 0xFFFFFFFFFFFFFFFFFFFFFFFFFFFFFFFFFFFFFFFF AND DUP3 PUSH20 0xFFFFFFFFFFFFFFFFFFFFFFFFFFFFFFFFFFFFFFFF AND EQ ISZERO JUMPDEST DUP1 ISZERO PUSH2 0x2D0C JUMPI POP PUSH1 0x0 PUSH20 0xFFFFFFFFFFFFFFFFFFFFFFFFFFFFFFFFFFFFFFFF AND PUSH1 0xB PUSH1 0x1 SWAP1 SLOAD SWAP1 PUSH2 0x100 EXP SWAP1 DIV PUSH20 0xFFFFFFFFFFFFFFFFFFFFFFFFFFFFFFFFFFFFFFFF AND PUSH20 0xFFFFFFFFFFFFFFFFFFFFFFFFFFFFFFFFFFFFFFFF AND EQ ISZERO JUMPDEST ISZERO PUSH2 0x2D81 JUMPI PUSH1 0x0 PUSH2 0x2D3B PUSH1 0x64 PUSH2 0x2D2D PUSH1 0xE SLOAD DUP6 PUSH2 0x3705 SWAP1 SWAP2 SWAP1 PUSH4 0xFFFFFFFF AND JUMP JUMPDEST PUSH2 0x378B SWAP1 SWAP2 SWAP1 PUSH4 0xFFFFFFFF AND JUMP JUMPDEST SWAP1 POP PUSH2 0x2D6A DUP5 PUSH1 0xB PUSH1 0x1 SWAP1 SLOAD SWAP1 PUSH2 0x100 EXP SWAP1 DIV PUSH20 0xFFFFFFFFFFFFFFFFFFFFFFFFFFFFFFFFFFFFFFFF AND DUP4 PUSH2 0x37D5 JUMP JUMPDEST PUSH2 0x2D7D DUP2 DUP4 PUSH2 0x36BB SWAP1 SWAP2 SWAP1 PUSH4 0xFFFFFFFF AND JUMP JUMPDEST SWAP2 POP POP JUMPDEST PUSH2 0x2D8C DUP4 DUP4 DUP4 PUSH2 0x37D5 JUMP JUMPDEST POP POP POP JUMP JUMPDEST PUSH1 0x0 DUP4 DUP4 GT ISZERO DUP3 SWAP1 PUSH2 0x2E3E JUMPI PUSH1 0x40 MLOAD PUSH32 0x8C379A000000000000000000000000000000000000000000000000000000000 DUP2 MSTORE PUSH1 0x4 ADD DUP1 DUP1 PUSH1 0x20 ADD DUP3 DUP2 SUB DUP3 MSTORE DUP4 DUP2 DUP2 MLOAD DUP2 MSTORE PUSH1 0x20 ADD SWAP2 POP DUP1 MLOAD SWAP1 PUSH1 0x20 ADD SWAP1 DUP1 DUP4 DUP4 PUSH1 0x0 JUMPDEST DUP4 DUP2 LT ISZERO PUSH2 0x2E03 JUMPI DUP1 DUP3 ADD MLOAD DUP2 DUP5 ADD MSTORE PUSH1 0x20 DUP2 ADD SWAP1 POP PUSH2 0x2DE8 JUMP JUMPDEST POP POP POP POP SWAP1 POP SWAP1 DUP2 ADD SWAP1 PUSH1 0x1F AND DUP1 ISZERO PUSH2 0x2E30 JUMPI DUP1 DUP3 SUB DUP1 MLOAD PUSH1 0x1 DUP4 PUSH1 0x20 SUB PUSH2 0x100 EXP SUB NOT AND DUP2 MSTORE PUSH1 0x20 ADD SWAP2 POP JUMPDEST POP SWAP3 POP POP POP PUSH1 0x40 MLOAD DUP1 SWAP2 SUB SWAP1 REVERT JUMPDEST POP PUSH1 0x0 DUP4 DUP6 SUB SWAP1 POP DUP1 SWAP2 POP POP SWAP4 SWAP3 POP POP POP JUMP JUMPDEST PUSH1 0x0 DUP1 DUP3 DUP5 ADD SWAP1 POP DUP4 DUP2 LT ISZERO PUSH2 0x2ECF JUMPI PUSH1 0x40 MLOAD PUSH32 0x8C379A000000000000000000000000000000000000000000000000000000000 DUP2 MSTORE PUSH1 0x4 ADD DUP1 DUP1 PUSH1 0x20 ADD DUP3 DUP2 SUB DUP3 MSTORE PUSH1 0x1B DUP2 MSTORE PUSH1 0x20 ADD DUP1 PUSH32 0x536166654D6174683A206164646974696F6E206F766572666C6F770000000000 DUP2 MSTORE POP PUSH1 0x20 ADD SWAP2 POP POP PUSH1 0x40 MLOAD DUP1 SWAP2 SUB SWAP1 REVERT JUMPDEST DUP1 SWAP2 POP POP SWAP3 SWAP2 POP POP JUMP JUMPDEST PUSH1 0x0 PUSH20 0xFFFFFFFFFFFFFFFFFFFFFFFFFFFFFFFFFFFFFFFF AND DUP3 PUSH20 0xFFFFFFFFFFFFFFFFFFFFFFFFFFFFFFFFFFFFFFFF AND EQ ISZERO PUSH2 0x2F7C JUMPI PUSH1 0x40 MLOAD PUSH32 0x8C379A000000000000000000000000000000000000000000000000000000000 DUP2 MSTORE PUSH1 0x4 ADD DUP1 DUP1 PUSH1 0x20 ADD DUP3 DUP2 SUB DUP3 MSTORE PUSH1 0x1F DUP2 MSTORE PUSH1 0x20 ADD DUP1 PUSH32 0x45524332303A206D696E7420746F20746865207A65726F206164647265737300 DUP2 MSTORE POP PUSH1 0x20 ADD SWAP2 POP POP PUSH1 0x40 MLOAD DUP1 SWAP2 SUB SWAP1 REVERT JUMPDEST PUSH2 0x2F88 PUSH1 0x0 DUP4 DUP4 PUSH2 0x3A9A JUMP JUMPDEST PUSH2 0x2F9D DUP2 PUSH1 0x7 SLOAD PUSH2 0x2E51 SWAP1 SWAP2 SWAP1 PUSH4 0xFFFFFFFF AND JUMP JUMPDEST PUSH1 0x7 DUP2 SWAP1 SSTORE POP PUSH2 0x2FF5 DUP2 PUSH1 0x5 PUSH1 0x0 DUP6 PUSH20 0xFFFFFFFFFFFFFFFFFFFFFFFFFFFFFFFFFFFFFFFF AND PUSH20 0xFFFFFFFFFFFFFFFFFFFFFFFFFFFFFFFFFFFFFFFF AND DUP2 MSTORE PUSH1 0x20 ADD SWAP1 DUP2 MSTORE PUSH1 0x20 ADD PUSH1 0x0 KECCAK256 SLOAD PUSH2 0x2E51 SWAP1 SWAP2 SWAP1 PUSH4 0xFFFFFFFF AND JUMP JUMPDEST PUSH1 0x5 PUSH1 0x0 DUP5 PUSH20 0xFFFFFFFFFFFFFFFFFFFFFFFFFFFFFFFFFFFFFFFF AND PUSH20 0xFFFFFFFFFFFFFFFFFFFFFFFFFFFFFFFFFFFFFFFF AND DUP2 MSTORE PUSH1 0x20 ADD SWAP1 DUP2 MSTORE PUSH1 0x20 ADD PUSH1 0x0 KECCAK256 DUP2 SWAP1 SSTORE POP DUP2 PUSH20 0xFFFFFFFFFFFFFFFFFFFFFFFFFFFFFFFFFFFFFFFF AND PUSH1 0x0 PUSH20 0xFFFFFFFFFFFFFFFFFFFFFFFFFFFFFFFFFFFFFFFF AND PUSH32 0xDDF252AD1BE2C89B69C2B068FC378DAA952BA7F163C4A11628F55A4DF523B3EF DUP4 PUSH1 0x40 MLOAD DUP1 DUP3 DUP2 MSTORE PUSH1 0x20 ADD SWAP2 POP POP PUSH1 0x40 MLOAD DUP1 SWAP2 SUB SWAP1 LOG3 POP POP JUMP JUMPDEST PUSH1 0x0 PUSH20 0xFFFFFFFFFFFFFFFFFFFFFFFFFFFFFFFFFFFFFFFF AND DUP3 PUSH20 0xFFFFFFFFFFFFFFFFFFFFFFFFFFFFFFFFFFFFFFFF AND EQ ISZERO PUSH2 0x3128 JUMPI PUSH1 0x40 MLOAD PUSH32 0x8C379A000000000000000000000000000000000000000000000000000000000 DUP2 MSTORE PUSH1 0x4 ADD DUP1 DUP1 PUSH1 0x20 ADD DUP3 DUP2 SUB DUP3 MSTORE PUSH1 0x21 DUP2 MSTORE PUSH1 0x20 ADD DUP1 PUSH2 0x3EF1 PUSH1 0x21 SWAP2 CODECOPY PUSH1 0x40 ADD SWAP2 POP POP PUSH1 0x40 MLOAD DUP1 SWAP2 SUB SWAP1 REVERT JUMPDEST PUSH2 0x3134 DUP3 PUSH1 0x0 DUP4 PUSH2 0x3A9A JUMP JUMPDEST PUSH2 0x31A0 DUP2 PUSH1 0x40 MLOAD DUP1 PUSH1 0x60 ADD PUSH1 0x40 MSTORE DUP1 PUSH1 0x22 DUP2 MSTORE PUSH1 0x20 ADD PUSH2 0x3D2B PUSH1 0x22 SWAP2 CODECOPY PUSH1 0x5 PUSH1 0x0 DUP7 PUSH20 0xFFFFFFFFFFFFFFFFFFFFFFFFFFFFFFFFFFFFFFFF AND PUSH20 0xFFFFFFFFFFFFFFFFFFFFFFFFFFFFFFFFFFFFFFFF AND DUP2 MSTORE PUSH1 0x20 ADD SWAP1 DUP2 MSTORE PUSH1 0x20 ADD PUSH1 0x0 KECCAK256 SLOAD PUSH2 0x2D91 SWAP1 SWAP3 SWAP2 SWAP1 PUSH4 0xFFFFFFFF AND JUMP JUMPDEST PUSH1 0x5 PUSH1 0x0 DUP5 PUSH20 0xFFFFFFFFFFFFFFFFFFFFFFFFFFFFFFFFFFFFFFFF AND PUSH20 0xFFFFFFFFFFFFFFFFFFFFFFFFFFFFFFFFFFFFFFFF AND DUP2 MSTORE PUSH1 0x20 ADD SWAP1 DUP2 MSTORE PUSH1 0x20 ADD PUSH1 0x0 KECCAK256 DUP2 SWAP1 SSTORE POP PUSH2 0x31F8 DUP2 PUSH1 0x7 SLOAD PUSH2 0x36BB SWAP1 SWAP2 SWAP1 PUSH4 0xFFFFFFFF AND JUMP JUMPDEST PUSH1 0x7 DUP2 SWAP1 SSTORE POP PUSH1 0x0 PUSH20 0xFFFFFFFFFFFFFFFFFFFFFFFFFFFFFFFFFFFFFFFF AND DUP3 PUSH20 0xFFFFFFFFFFFFFFFFFFFFFFFFFFFFFFFFFFFFFFFF AND PUSH32 0xDDF252AD1BE2C89B69C2B068FC378DAA952BA7F163C4A11628F55A4DF523B3EF DUP4 PUSH1 0x40 MLOAD DUP1 DUP3 DUP2 MSTORE PUSH1 0x20 ADD SWAP2 POP POP PUSH1 0x40 MLOAD DUP1 SWAP2 SUB SWAP1 LOG3 POP POP JUMP JUMPDEST PUSH1 0x0 DUP1 PUSH1 0x0 DUP4 PUSH20 0xFFFFFFFFFFFFFFFFFFFFFFFFFFFFFFFFFFFFFFFF AND PUSH20 0xFFFFFFFFFFFFFFFFFFFFFFFFFFFFFFFFFFFFFFFF AND DUP2 MSTORE PUSH1 0x20 ADD SWAP1 DUP2 MSTORE PUSH1 0x20 ADD PUSH1 0x0 KECCAK256 SLOAD SWAP1 POP SWAP2 SWAP1 POP JUMP JUMPDEST PUSH1 0x0 PUSH20 0xFFFFFFFFFFFFFFFFFFFFFFFFFFFFFFFFFFFFFFFF AND DUP3 PUSH20 0xFFFFFFFFFFFFFFFFFFFFFFFFFFFFFFFFFFFFFFFF AND EQ ISZERO PUSH2 0x3336 JUMPI PUSH1 0x40 MLOAD PUSH32 0x8C379A000000000000000000000000000000000000000000000000000000000 DUP2 MSTORE PUSH1 0x4 ADD DUP1 DUP1 PUSH1 0x20 ADD DUP3 DUP2 SUB DUP3 MSTORE PUSH1 0x26 DUP2 MSTORE PUSH1 0x20 ADD DUP1 PUSH2 0x3D4D PUSH1 0x26 SWAP2 CODECOPY PUSH1 0x40 ADD SWAP2 POP POP PUSH1 0x40 MLOAD DUP1 SWAP2 SUB SWAP1 REVERT JUMPDEST ADDRESS PUSH20 0xFFFFFFFFFFFFFFFFFFFFFFFFFFFFFFFFFFFFFFFF AND DUP3 PUSH20 0xFFFFFFFFFFFFFFFFFFFFFFFFFFFFFFFFFFFFFFFF AND EQ ISZERO PUSH2 0x33BB JUMPI PUSH1 0x40 MLOAD PUSH32 0x8C379A000000000000000000000000000000000000000000000000000000000 DUP2 MSTORE PUSH1 0x4 ADD DUP1 DUP1 PUSH1 0x20 ADD DUP3 DUP2 SUB DUP3 MSTORE PUSH1 0x2A DUP2 MSTORE PUSH1 0x20 ADD DUP1 PUSH2 0x3DBB PUSH1 0x2A SWAP2 CODECOPY PUSH1 0x40 ADD SWAP2 POP POP PUSH1 0x40 MLOAD DUP1 SWAP2 SUB SWAP1 REVERT JUMPDEST PUSH1 0x0 DUP2 GT PUSH2 0x3414 JUMPI PUSH1 0x40 MLOAD PUSH32 0x8C379A000000000000000000000000000000000000000000000000000000000 DUP2 MSTORE PUSH1 0x4 ADD DUP1 DUP1 PUSH1 0x20 ADD DUP3 DUP2 SUB DUP3 MSTORE PUSH1 0x27 DUP2 MSTORE PUSH1 0x20 ADD DUP1 PUSH2 0x3E3C PUSH1 0x27 SWAP2 CODECOPY PUSH1 0x40 ADD SWAP2 POP POP PUSH1 0x40 MLOAD DUP1 SWAP2 SUB SWAP1 REVERT JUMPDEST PUSH1 0x8 SLOAD PUSH2 0x342C DUP3 PUSH1 0x7 SLOAD PUSH2 0x2E51 SWAP1 SWAP2 SWAP1 PUSH4 0xFFFFFFFF AND JUMP JUMPDEST GT ISZERO PUSH2 0x34A0 JUMPI PUSH1 0x40 MLOAD PUSH32 0x8C379A000000000000000000000000000000000000000000000000000000000 DUP2 MSTORE PUSH1 0x4 ADD DUP1 DUP1 PUSH1 0x20 ADD DUP3 DUP2 SUB DUP3 MSTORE PUSH1 0x20 DUP2 MSTORE PUSH1 0x20 ADD DUP1 PUSH32 0x45524332304361707065643A206D617820737570706C79206578636565646564 DUP2 MSTORE POP PUSH1 0x20 ADD SWAP2 POP POP PUSH1 0x40 MLOAD DUP1 SWAP2 SUB SWAP1 REVERT JUMPDEST PUSH2 0x34B5 DUP2 PUSH1 0x7 SLOAD PUSH2 0x2E51 SWAP1 SWAP2 SWAP1 PUSH4 0xFFFFFFFF AND JUMP JUMPDEST PUSH1 0x7 DUP2 SWAP1 SSTORE POP DUP2 PUSH20 0xFFFFFFFFFFFFFFFFFFFFFFFFFFFFFFFFFFFFFFFF AND ADDRESS PUSH20 0xFFFFFFFFFFFFFFFFFFFFFFFFFFFFFFFFFFFFFFFF AND PUSH32 0xDDF252AD1BE2C89B69C2B068FC378DAA952BA7F163C4A11628F55A4DF523B3EF DUP4 PUSH1 0x40 MLOAD DUP1 DUP3 DUP2 MSTORE PUSH1 0x20 ADD SWAP2 POP POP PUSH1 0x40 MLOAD DUP1 SWAP2 SUB SWAP1 LOG3 PUSH2 0x352A DUP3 DUP3 PUSH2 0x361C JUMP JUMPDEST POP DUP2 PUSH20 0xFFFFFFFFFFFFFFFFFFFFFFFFFFFFFFFFFFFFFFFF AND PUSH32 0xBA89AD6709373F454C31524E8C39CEF3CDD4B0E8CFDE0CCDDBD419A2E488BE6B DUP3 PUSH1 0x40 MLOAD DUP1 DUP3 DUP2 MSTORE PUSH1 0x20 ADD SWAP2 POP POP PUSH1 0x40 MLOAD DUP1 SWAP2 SUB SWAP1 LOG2 POP POP JUMP JUMPDEST PUSH1 0x0 PUSH2 0x35D0 DUP3 PUSH1 0x0 DUP1 DUP7 PUSH20 0xFFFFFFFFFFFFFFFFFFFFFFFFFFFFFFFFFFFFFFFF AND PUSH20 0xFFFFFFFFFFFFFFFFFFFFFFFFFFFFFFFFFFFFFFFF AND DUP2 MSTORE PUSH1 0x20 ADD SWAP1 DUP2 MSTORE PUSH1 0x20 ADD PUSH1 0x0 KECCAK256 SLOAD PUSH2 0x36BB SWAP1 SWAP2 SWAP1 PUSH4 0xFFFFFFFF AND JUMP JUMPDEST PUSH1 0x0 DUP1 DUP6 PUSH20 0xFFFFFFFFFFFFFFFFFFFFFFFFFFFFFFFFFFFFFFFF AND PUSH20 0xFFFFFFFFFFFFFFFFFFFFFFFFFFFFFFFFFFFFFFFF AND DUP2 MSTORE PUSH1 0x20 ADD SWAP1 DUP2 MSTORE PUSH1 0x20 ADD PUSH1 0x0 KECCAK256 DUP2 SWAP1 SSTORE POP PUSH1 0x1 SWAP1 POP SWAP3 SWAP2 POP POP JUMP JUMPDEST PUSH1 0x0 PUSH2 0x366F DUP3 PUSH1 0x0 DUP1 DUP7 PUSH20 0xFFFFFFFFFFFFFFFFFFFFFFFFFFFFFFFFFFFFFFFF AND PUSH20 0xFFFFFFFFFFFFFFFFFFFFFFFFFFFFFFFFFFFFFFFF AND DUP2 MSTORE PUSH1 0x20 ADD SWAP1 DUP2 MSTORE PUSH1 0x20 ADD PUSH1 0x0 KECCAK256 SLOAD PUSH2 0x2E51 SWAP1 SWAP2 SWAP1 PUSH4 0xFFFFFFFF AND JUMP JUMPDEST PUSH1 0x0 DUP1 DUP6 PUSH20 0xFFFFFFFFFFFFFFFFFFFFFFFFFFFFFFFFFFFFFFFF AND PUSH20 0xFFFFFFFFFFFFFFFFFFFFFFFFFFFFFFFFFFFFFFFF AND DUP2 MSTORE PUSH1 0x20 ADD SWAP1 DUP2 MSTORE PUSH1 0x20 ADD PUSH1 0x0 KECCAK256 DUP2 SWAP1 SSTORE POP PUSH1 0x1 SWAP1 POP SWAP3 SWAP2 POP POP JUMP JUMPDEST PUSH1 0x0 PUSH2 0x36FD DUP4 DUP4 PUSH1 0x40 MLOAD DUP1 PUSH1 0x40 ADD PUSH1 0x40 MSTORE DUP1 PUSH1 0x1E DUP2 MSTORE PUSH1 0x20 ADD PUSH32 0x536166654D6174683A207375627472616374696F6E206F766572666C6F770000 DUP2 MSTORE POP PUSH2 0x2D91 JUMP JUMPDEST SWAP1 POP SWAP3 SWAP2 POP POP JUMP JUMPDEST PUSH1 0x0 DUP1 DUP4 EQ ISZERO PUSH2 0x3718 JUMPI PUSH1 0x0 SWAP1 POP PUSH2 0x3785 JUMP JUMPDEST PUSH1 0x0 DUP3 DUP5 MUL SWAP1 POP DUP3 DUP5 DUP3 DUP2 PUSH2 0x3729 JUMPI INVALID JUMPDEST DIV EQ PUSH2 0x3780 JUMPI PUSH1 0x40 MLOAD PUSH32 0x8C379A000000000000000000000000000000000000000000000000000000000 DUP2 MSTORE PUSH1 0x4 ADD DUP1 DUP1 PUSH1 0x20 ADD DUP3 DUP2 SUB DUP3 MSTORE PUSH1 0x21 DUP2 MSTORE PUSH1 0x20 ADD DUP1 PUSH2 0x3E63 PUSH1 0x21 SWAP2 CODECOPY PUSH1 0x40 ADD SWAP2 POP POP PUSH1 0x40 MLOAD DUP1 SWAP2 SUB SWAP1 REVERT JUMPDEST DUP1 SWAP2 POP POP JUMPDEST SWAP3 SWAP2 POP POP JUMP JUMPDEST PUSH1 0x0 PUSH2 0x37CD DUP4 DUP4 PUSH1 0x40 MLOAD DUP1 PUSH1 0x40 ADD PUSH1 0x40 MSTORE DUP1 PUSH1 0x1A DUP2 MSTORE PUSH1 0x20 ADD PUSH32 0x536166654D6174683A206469766973696F6E206279207A65726F000000000000 DUP2 MSTORE POP PUSH2 0x3B76 JUMP JUMPDEST SWAP1 POP SWAP3 SWAP2 POP POP JUMP JUMPDEST PUSH1 0x0 PUSH20 0xFFFFFFFFFFFFFFFFFFFFFFFFFFFFFFFFFFFFFFFF AND DUP4 PUSH20 0xFFFFFFFFFFFFFFFFFFFFFFFFFFFFFFFFFFFFFFFF AND EQ ISZERO PUSH2 0x385B JUMPI PUSH1 0x40 MLOAD PUSH32 0x8C379A000000000000000000000000000000000000000000000000000000000 DUP2 MSTORE PUSH1 0x4 ADD DUP1 DUP1 PUSH1 0x20 ADD DUP3 DUP2 SUB DUP3 MSTORE PUSH1 0x25 DUP2 MSTORE PUSH1 0x20 ADD DUP1 PUSH2 0x3F3A PUSH1 0x25 SWAP2 CODECOPY PUSH1 0x40 ADD SWAP2 POP POP PUSH1 0x40 MLOAD DUP1 SWAP2 SUB SWAP1 REVERT JUMPDEST PUSH1 0x0 PUSH20 0xFFFFFFFFFFFFFFFFFFFFFFFFFFFFFFFFFFFFFFFF AND DUP3 PUSH20 0xFFFFFFFFFFFFFFFFFFFFFFFFFFFFFFFFFFFFFFFF AND EQ ISZERO PUSH2 0x38E1 JUMPI PUSH1 0x40 MLOAD PUSH32 0x8C379A000000000000000000000000000000000000000000000000000000000 DUP2 MSTORE PUSH1 0x4 ADD DUP1 DUP1 PUSH1 0x20 ADD DUP3 DUP2 SUB DUP3 MSTORE PUSH1 0x23 DUP2 MSTORE PUSH1 0x20 ADD DUP1 PUSH2 0x3CDA PUSH1 0x23 SWAP2 CODECOPY PUSH1 0x40 ADD SWAP2 POP POP PUSH1 0x40 MLOAD DUP1 SWAP2 SUB SWAP1 REVERT JUMPDEST PUSH2 0x38EC DUP4 DUP4 DUP4 PUSH2 0x3A9A JUMP JUMPDEST PUSH2 0x3958 DUP2 PUSH1 0x40 MLOAD DUP1 PUSH1 0x60 ADD PUSH1 0x40 MSTORE DUP1 PUSH1 0x26 DUP2 MSTORE PUSH1 0x20 ADD PUSH2 0x3DE5 PUSH1 0x26 SWAP2 CODECOPY PUSH1 0x5 PUSH1 0x0 DUP8 PUSH20 0xFFFFFFFFFFFFFFFFFFFFFFFFFFFFFFFFFFFFFFFF AND PUSH20 0xFFFFFFFFFFFFFFFFFFFFFFFFFFFFFFFFFFFFFFFF AND DUP2 MSTORE PUSH1 0x20 ADD SWAP1 DUP2 MSTORE PUSH1 0x20 ADD PUSH1 0x0 KECCAK256 SLOAD PUSH2 0x2D91 SWAP1 SWAP3 SWAP2 SWAP1 PUSH4 0xFFFFFFFF AND JUMP JUMPDEST PUSH1 0x5 PUSH1 0x0 DUP6 PUSH20 0xFFFFFFFFFFFFFFFFFFFFFFFFFFFFFFFFFFFFFFFF AND PUSH20 0xFFFFFFFFFFFFFFFFFFFFFFFFFFFFFFFFFFFFFFFF AND DUP2 MSTORE PUSH1 0x20 ADD SWAP1 DUP2 MSTORE PUSH1 0x20 ADD PUSH1 0x0 KECCAK256 DUP2 SWAP1 SSTORE POP PUSH2 0x39ED DUP2 PUSH1 0x5 PUSH1 0x0 DUP6 PUSH20 0xFFFFFFFFFFFFFFFFFFFFFFFFFFFFFFFFFFFFFFFF AND PUSH20 0xFFFFFFFFFFFFFFFFFFFFFFFFFFFFFFFFFFFFFFFF AND DUP2 MSTORE PUSH1 0x20 ADD SWAP1 DUP2 MSTORE PUSH1 0x20 ADD PUSH1 0x0 KECCAK256 SLOAD PUSH2 0x2E51 SWAP1 SWAP2 SWAP1 PUSH4 0xFFFFFFFF AND JUMP JUMPDEST PUSH1 0x5 PUSH1 0x0 DUP5 PUSH20 0xFFFFFFFFFFFFFFFFFFFFFFFFFFFFFFFFFFFFFFFF AND PUSH20 0xFFFFFFFFFFFFFFFFFFFFFFFFFFFFFFFFFFFFFFFF AND DUP2 MSTORE PUSH1 0x20 ADD SWAP1 DUP2 MSTORE PUSH1 0x20 ADD PUSH1 0x0 KECCAK256 DUP2 SWAP1 SSTORE POP DUP2 PUSH20 0xFFFFFFFFFFFFFFFFFFFFFFFFFFFFFFFFFFFFFFFF AND DUP4 PUSH20 0xFFFFFFFFFFFFFFFFFFFFFFFFFFFFFFFFFFFFFFFF AND PUSH32 0xDDF252AD1BE2C89B69C2B068FC378DAA952BA7F163C4A11628F55A4DF523B3EF DUP4 PUSH1 0x40 MLOAD DUP1 DUP3 DUP2 MSTORE PUSH1 0x20 ADD SWAP2 POP POP PUSH1 0x40 MLOAD DUP1 SWAP2 SUB SWAP1 LOG3 POP POP POP JUMP JUMPDEST PUSH2 0x3AA5 DUP4 DUP4 DUP4 PUSH2 0x3C3C JUMP JUMPDEST PUSH1 0x0 PUSH20 0xFFFFFFFFFFFFFFFFFFFFFFFFFFFFFFFFFFFFFFFF AND DUP4 PUSH20 0xFFFFFFFFFFFFFFFFFFFFFFFFFFFFFFFFFFFFFFFF AND EQ ISZERO PUSH2 0x3B71 JUMPI PUSH2 0x3AE2 PUSH2 0x2052 JUMP JUMPDEST PUSH2 0x3AFC DUP3 PUSH2 0x3AEE PUSH2 0xFBD JUMP JUMPDEST PUSH2 0x2E51 SWAP1 SWAP2 SWAP1 PUSH4 0xFFFFFFFF AND JUMP JUMPDEST GT ISZERO PUSH2 0x3B70 JUMPI PUSH1 0x40 MLOAD PUSH32 0x8C379A000000000000000000000000000000000000000000000000000000000 DUP2 MSTORE PUSH1 0x4 ADD DUP1 DUP1 PUSH1 0x20 ADD DUP3 DUP2 SUB DUP3 MSTORE PUSH1 0x20 DUP2 MSTORE PUSH1 0x20 ADD DUP1 PUSH32 0x45524332304361707065643A206D617820737570706C79206578636565646564 DUP2 MSTORE POP PUSH1 0x20 ADD SWAP2 POP POP PUSH1 0x40 MLOAD DUP1 SWAP2 SUB SWAP1 REVERT JUMPDEST JUMPDEST POP POP POP JUMP JUMPDEST PUSH1 0x0 DUP1 DUP4 GT DUP3 SWAP1 PUSH2 0x3C22 JUMPI PUSH1 0x40 MLOAD PUSH32 0x8C379A000000000000000000000000000000000000000000000000000000000 DUP2 MSTORE PUSH1 0x4 ADD DUP1 DUP1 PUSH1 0x20 ADD DUP3 DUP2 SUB DUP3 MSTORE DUP4 DUP2 DUP2 MLOAD DUP2 MSTORE PUSH1 0x20 ADD SWAP2 POP DUP1 MLOAD SWAP1 PUSH1 0x20 ADD SWAP1 DUP1 DUP4 DUP4 PUSH1 0x0 JUMPDEST DUP4 DUP2 LT ISZERO PUSH2 0x3BE7 JUMPI DUP1 DUP3 ADD MLOAD DUP2 DUP5 ADD MSTORE PUSH1 0x20 DUP2 ADD SWAP1 POP PUSH2 0x3BCC JUMP JUMPDEST POP POP POP POP SWAP1 POP SWAP1 DUP2 ADD SWAP1 PUSH1 0x1F AND DUP1 ISZERO PUSH2 0x3C14 JUMPI DUP1 DUP3 SUB DUP1 MLOAD PUSH1 0x1 DUP4 PUSH1 0x20 SUB PUSH2 0x100 EXP SUB NOT AND DUP2 MSTORE PUSH1 0x20 ADD SWAP2 POP JUMPDEST POP SWAP3 POP POP POP PUSH1 0x40 MLOAD DUP1 SWAP2 SUB SWAP1 REVERT JUMPDEST POP PUSH1 0x0 DUP4 DUP6 DUP2 PUSH2 0x3C2E JUMPI INVALID JUMPDEST DIV SWAP1 POP DUP1 SWAP2 POP POP SWAP4 SWAP3 POP POP POP JUMP JUMPDEST DUP1 PUSH1 0x5 PUSH1 0x0 DUP6 PUSH20 0xFFFFFFFFFFFFFFFFFFFFFFFFFFFFFFFFFFFFFFFF AND PUSH20 0xFFFFFFFFFFFFFFFFFFFFFFFFFFFFFFFFFFFFFFFF AND DUP2 MSTORE PUSH1 0x20 ADD SWAP1 DUP2 MSTORE PUSH1 0x20 ADD PUSH1 0x0 KECCAK256 SLOAD LT ISZERO PUSH2 0x3CD4 JUMPI PUSH1 0x40 MLOAD PUSH32 0x8C379A000000000000000000000000000000000000000000000000000000000 DUP2 MSTORE PUSH1 0x4 ADD DUP1 DUP1 PUSH1 0x20 ADD DUP3 DUP2 SUB DUP3 MSTORE PUSH1 0x26 DUP2 MSTORE PUSH1 0x20 ADD DUP1 PUSH2 0x3DE5 PUSH1 0x26 SWAP2 CODECOPY PUSH1 0x40 ADD SWAP2 POP POP PUSH1 0x40 MLOAD DUP1 SWAP2 SUB SWAP1 REVERT JUMPDEST POP POP POP JUMP INVALID GASLIMIT MSTORE NUMBER ORIGIN ADDRESS GASPRICE KECCAK256 PUSH21 0x72616E7366657220746F20746865207A65726F2061 PUSH5 0x6472657373 GASLIMIT MSTORE NUMBER ORIGIN ADDRESS GASPRICE KECCAK256 PUSH14 0x656C742066726F6D207468652061 PUSH5 0x6472657373 GASPRICE KECCAK256 PUSH3 0x616C61 PUSH15 0x6365203C20616D6F756E7445524332 ADDRESS GASPRICE KECCAK256 PUSH3 0x75726E KECCAK256 PUSH2 0x6D6F PUSH22 0x6E7420657863656564732062616C616E636545524332 ADDRESS GASPRICE KECCAK256 PUSH14 0x696E742066726F7A656E20746F20 PUSH21 0x6865207A65726F20616464726573734F776E61626C PUSH6 0x3A206E657720 PUSH16 0x776E657220697320746865207A65726F KECCAK256 PUSH2 0x6464 PUSH19 0x65737345524332303A20617070726F76652074 PUSH16 0x20746865207A65726F20616464726573 PUSH20 0x45524332303A206D696E742066726F7A656E2074 PUSH16 0x2074686520636F6E7472616374206164 PUSH5 0x7265737345 MSTORE NUMBER ORIGIN ADDRESS GASPRICE KECCAK256 PUSH21 0x72616E7366657220616D6F756E7420657863656564 PUSH20 0x2062616C616E636545524332303A206D656C7420 PUSH7 0x726F6D20746865 KECCAK256 PUSH2 0x6464 PUSH19 0x6573733A2076616C75652073686F756C642062 PUSH6 0x203E20304552 NUMBER ORIGIN ADDRESS GASPRICE KECCAK256 PUSH14 0x696E742066726F7A656E20616D6F PUSH22 0x6E742073686F756C64206265203E2030536166654D61 PUSH21 0x683A206D756C7469706C69636174696F6E206F7665 PUSH19 0x666C6F7745524332303A207472616E73666572 KECCAK256 PUSH2 0x6D6F PUSH22 0x6E74206578636565647320616C6C6F77616E63654552 NUMBER ORIGIN ADDRESS GASPRICE KECCAK256 PUSH3 0x75726E KECCAK256 PUSH2 0x6D6F PUSH22 0x6E74206578636565647320616C6C6F77616E63654552 NUMBER ORIGIN ADDRESS GASPRICE KECCAK256 PUSH14 0x656C742066726F6D20746865207A PUSH6 0x726F20616464 PUSH19 0x65737345524332303A206275726E2066726F6D KECCAK256 PUSH21 0x6865207A65726F206164647265737345524332303A KECCAK256 PUSH7 0x726F7A656E2062 PUSH22 0x726E2066726F6D20746865207A65726F206164647265 PUSH20 0x7345524332303A207472616E736665722066726F PUSH14 0x20746865207A65726F2061646472 PUSH6 0x737345524332 ADDRESS GASPRICE KECCAK256 PUSH2 0x7070 PUSH19 0x6F76652066726F6D20746865207A65726F2061 PUSH5 0x6472657373 PUSH4 0x616C6C65 PUSH19 0x206E6F7420612070656E64696E67206D656C74 PUSH6 0x722061646D69 PUSH15 0x45524332303A206465637265617365 PUSH5 0x20616C6C6F PUSH24 0x616E63652062656C6F77207A65726FA26469706673582212 KECCAK256 0xA7 SWAP7 ISZERO 0xB4 0xA5 CALL 0xED MSTORE 0xE1 0x4C 0x4A INVALID BALANCE EXP 0xE3 GASPRICE 0x27 0xEF 0xE0 PC 0xB3 0x25 CALLVALUE 0xCC PUSH3 0xC63C73 AND SWAP15 INVALID SWAP4 PUSH5 0x736F6C6343 STOP MOD 0xC STOP CALLER "
				},
				"gasEstimates": {
					"creation": {
						"codeDepositCost": "3276400",
						"executionCost": "infinite",
						"totalCost": "infinite"
					},
					"external": {
						"_factory()": "1158",
						"addToMelters(address)": "22127",
						"addTransferFeeAddress(address)": "22185",
						"allowance(address,address)": "1409",
						"approve(address,uint256)": "infinite",
						"availableBalance(address)": "1329",
						"balanceOf(address)": "infinite",
						"burn(uint256)": "infinite",
						"burnFrom(address,uint256)": "infinite",
						"claimMelterAdmin()": "infinite",
						"decimals()": "1123",
						"decreaseAllowance(address,uint256)": "infinite",
						"destroyFrozen(address,uint256)": "infinite",
						"increaseAllowance(address,uint256)": "infinite",
						"maxSupply()": "1057",
						"meltTokens(address,uint256)": "infinite",
						"melteradmin()": "1145",
						"mint(address,uint256)": "infinite",
						"mintFrozenTokens(address,uint256)": "infinite",
						"name()": "infinite",
						"owner()": "1100",
						"pendingMelterAdmin()": "1115",
						"removeFromMelters(address)": "22195",
						"removeTransferBurnAddress(address)": "22138",
						"renounceOwnership()": "24409",
						"setTransferFeeRateBuy(uint256)": "21280",
						"setTransferFeeRateSeel(uint256)": "21259",
						"symbol()": "infinite",
						"totalSupply()": "1103",
						"transfer(address,uint256)": "infinite",
						"transferFeeRateBuy()": "1096",
						"transferFeeRateSell()": "1138",
						"transferFrom(address,address,uint256)": "infinite",
						"transferFrozenToken(address,address,uint256)": "infinite",
						"transferMelterAdmin(address)": "22060",
						"transferOwnership(address)": "infinite",
						"uniswapV2Factory()": "1093",
						"uniswapV2Pair()": "1158",
						"uniswapV2Router()": "1093"
					},
					"internal": {
						"_beforeTokenTransfer(address,address,uint256)": "infinite",
						"_transfer(address,address,uint256)": "infinite"
					}
				},
				"methodIdentifiers": {
					"_factory()": "c5cc6b6a",
					"addToMelters(address)": "d8da5ce9",
					"addTransferFeeAddress(address)": "91116d67",
					"allowance(address,address)": "dd62ed3e",
					"approve(address,uint256)": "095ea7b3",
					"availableBalance(address)": "a0821be3",
					"balanceOf(address)": "70a08231",
					"burn(uint256)": "42966c68",
					"burnFrom(address,uint256)": "79cc6790",
					"claimMelterAdmin()": "1e57a2b2",
					"decimals()": "313ce567",
					"decreaseAllowance(address,uint256)": "a457c2d7",
					"destroyFrozen(address,uint256)": "171177b3",
					"increaseAllowance(address,uint256)": "39509351",
					"maxSupply()": "d5abeb01",
					"meltTokens(address,uint256)": "0c15f601",
					"melteradmin()": "35cde1ce",
					"mint(address,uint256)": "40c10f19",
					"mintFrozenTokens(address,uint256)": "c4157b29",
					"name()": "06fdde03",
					"owner()": "8da5cb5b",
					"pendingMelterAdmin()": "70766280",
					"removeFromMelters(address)": "238fd731",
					"removeTransferBurnAddress(address)": "8fe8cf24",
					"renounceOwnership()": "715018a6",
					"setTransferFeeRateBuy(uint256)": "c9c5179c",
					"setTransferFeeRateSeel(uint256)": "3727a426",
					"symbol()": "95d89b41",
					"totalSupply()": "18160ddd",
					"transfer(address,uint256)": "a9059cbb",
					"transferFeeRateBuy()": "0a9adf05",
					"transferFeeRateSell()": "52ea6e02",
					"transferFrom(address,address,uint256)": "23b872dd",
					"transferFrozenToken(address,address,uint256)": "e50d3180",
					"transferMelterAdmin(address)": "483a8df9",
					"transferOwnership(address)": "f2fde38b",
					"uniswapV2Factory()": "59d0f713",
					"uniswapV2Pair()": "49bd5a5e",
					"uniswapV2Router()": "1694505e"
				}
			},
			"storageLayout": {
				"storage": [
					{
						"astId": 649,
						"contract": "contracts/Token/Token.sol:World_Step",
						"label": "frozen_balances",
						"offset": 0,
						"slot": "0",
						"type": "t_mapping(t_address,t_uint256)"
					},
					{
						"astId": 540,
						"contract": "contracts/Token/Token.sol:World_Step",
						"label": "_owner",
						"offset": 0,
						"slot": "1",
						"type": "t_address"
					},
					{
						"astId": 713,
						"contract": "contracts/Token/Token.sol:World_Step",
						"label": "_melters",
						"offset": 0,
						"slot": "2",
						"type": "t_mapping(t_address,t_bool)"
					},
					{
						"astId": 715,
						"contract": "contracts/Token/Token.sol:World_Step",
						"label": "_melteradmin",
						"offset": 0,
						"slot": "3",
						"type": "t_address"
					},
					{
						"astId": 717,
						"contract": "contracts/Token/Token.sol:World_Step",
						"label": "pendingMelterAdmin",
						"offset": 0,
						"slot": "4",
						"type": "t_address"
					},
					{
						"astId": 869,
						"contract": "contracts/Token/Token.sol:World_Step",
						"label": "_balances",
						"offset": 0,
						"slot": "5",
						"type": "t_mapping(t_address,t_uint256)"
					},
					{
						"astId": 875,
						"contract": "contracts/Token/Token.sol:World_Step",
						"label": "_allowances",
						"offset": 0,
						"slot": "6",
						"type": "t_mapping(t_address,t_mapping(t_address,t_uint256))"
					},
					{
						"astId": 877,
						"contract": "contracts/Token/Token.sol:World_Step",
						"label": "_totalSupply",
						"offset": 0,
						"slot": "7",
						"type": "t_uint256"
					},
					{
						"astId": 879,
						"contract": "contracts/Token/Token.sol:World_Step",
						"label": "_maxSupply",
						"offset": 0,
						"slot": "8",
						"type": "t_uint256"
					},
					{
						"astId": 881,
						"contract": "contracts/Token/Token.sol:World_Step",
						"label": "_name",
						"offset": 0,
						"slot": "9",
						"type": "t_string_storage"
					},
					{
						"astId": 883,
						"contract": "contracts/Token/Token.sol:World_Step",
						"label": "_symbol",
						"offset": 0,
						"slot": "10",
						"type": "t_string_storage"
					},
					{
						"astId": 885,
						"contract": "contracts/Token/Token.sol:World_Step",
						"label": "_decimals",
						"offset": 0,
						"slot": "11",
						"type": "t_uint8"
					},
					{
						"astId": 1616,
						"contract": "contracts/Token/Token.sol:World_Step",
						"label": "_developmentAddress",
						"offset": 1,
						"slot": "11",
						"type": "t_address_payable"
					},
					{
						"astId": 1622,
						"contract": "contracts/Token/Token.sol:World_Step",
						"label": "_marketingAddress",
						"offset": 0,
						"slot": "12",
						"type": "t_address_payable"
					},
					{
						"astId": 1628,
						"contract": "contracts/Token/Token.sol:World_Step",
						"label": "_rewardPool",
						"offset": 0,
						"slot": "13",
						"type": "t_address_payable"
					},
					{
						"astId": 1630,
						"contract": "contracts/Token/Token.sol:World_Step",
						"label": "transferFeeRateBuy",
						"offset": 0,
						"slot": "14",
						"type": "t_uint256"
					},
					{
						"astId": 1632,
						"contract": "contracts/Token/Token.sol:World_Step",
						"label": "transferFeeRateSell",
						"offset": 0,
						"slot": "15",
						"type": "t_uint256"
					},
					{
						"astId": 1636,
						"contract": "contracts/Token/Token.sol:World_Step",
						"label": "_transactionFee",
						"offset": 0,
						"slot": "16",
						"type": "t_mapping(t_address,t_bool)"
					},
					{
						"astId": 1640,
						"contract": "contracts/Token/Token.sol:World_Step",
						"label": "_isExcludedFromFee",
						"offset": 0,
						"slot": "17",
						"type": "t_mapping(t_address,t_bool)"
					},
					{
						"astId": 1642,
						"contract": "contracts/Token/Token.sol:World_Step",
						"label": "uniswapV2Router",
						"offset": 0,
						"slot": "18",
						"type": "t_contract(IUniswapV2Router02)57"
					},
					{
						"astId": 1644,
						"contract": "contracts/Token/Token.sol:World_Step",
						"label": "uniswapV2Factory",
						"offset": 0,
						"slot": "19",
						"type": "t_contract(IUniswapV2Factory)11"
					},
					{
						"astId": 1646,
						"contract": "contracts/Token/Token.sol:World_Step",
						"label": "_factory",
						"offset": 0,
						"slot": "20",
						"type": "t_address"
					},
					{
						"astId": 1648,
						"contract": "contracts/Token/Token.sol:World_Step",
						"label": "uniswapV2Pair",
						"offset": 0,
						"slot": "21",
						"type": "t_address"
					}
				],
				"types": {
					"t_address": {
						"encoding": "inplace",
						"label": "address",
						"numberOfBytes": "20"
					},
					"t_address_payable": {
						"encoding": "inplace",
						"label": "address payable",
						"numberOfBytes": "20"
					},
					"t_bool": {
						"encoding": "inplace",
						"label": "bool",
						"numberOfBytes": "1"
					},
					"t_contract(IUniswapV2Factory)11": {
						"encoding": "inplace",
						"label": "contract IUniswapV2Factory",
						"numberOfBytes": "20"
					},
					"t_contract(IUniswapV2Router02)57": {
						"encoding": "inplace",
						"label": "contract IUniswapV2Router02",
						"numberOfBytes": "20"
					},
					"t_mapping(t_address,t_bool)": {
						"encoding": "mapping",
						"key": "t_address",
						"label": "mapping(address => bool)",
						"numberOfBytes": "32",
						"value": "t_bool"
					},
					"t_mapping(t_address,t_mapping(t_address,t_uint256))": {
						"encoding": "mapping",
						"key": "t_address",
						"label": "mapping(address => mapping(address => uint256))",
						"numberOfBytes": "32",
						"value": "t_mapping(t_address,t_uint256)"
					},
					"t_mapping(t_address,t_uint256)": {
						"encoding": "mapping",
						"key": "t_address",
						"label": "mapping(address => uint256)",
						"numberOfBytes": "32",
						"value": "t_uint256"
					},
					"t_string_storage": {
						"encoding": "bytes",
						"label": "string",
						"numberOfBytes": "32"
					},
					"t_uint256": {
						"encoding": "inplace",
						"label": "uint256",
						"numberOfBytes": "32"
					},
					"t_uint8": {
						"encoding": "inplace",
						"label": "uint8",
						"numberOfBytes": "1"
					}
				}
			},
			"userdoc": {
				"kind": "user",
				"methods": {
					"mint(address,uint256)": {
						"notice": "Creates `_amount` token to `_to`. Must only be called by the owner (MasterChef)."
					}
				},
				"version": 1
			}
		}
	}
}