{
	"contracts/Token/Token.sol": {
		"SQFToken": {
			"abi": [
				{
					"inputs": [],
					"stateMutability": "nonpayable",
					"type": "constructor"
				},
				{
					"anonymous": false,
					"inputs": [
						{
							"indexed": true,
							"internalType": "address",
							"name": "owner",
							"type": "address"
						},
						{
							"indexed": true,
							"internalType": "address",
							"name": "spender",
							"type": "address"
						},
						{
							"indexed": false,
							"internalType": "uint256",
							"name": "value",
							"type": "uint256"
						}
					],
					"name": "Approval",
					"type": "event"
				},
				{
					"anonymous": false,
					"inputs": [
						{
							"indexed": true,
							"internalType": "address",
							"name": "from",
							"type": "address"
						},
						{
							"indexed": false,
							"internalType": "uint256",
							"name": "amount",
							"type": "uint256"
						}
					],
					"name": "Freeze",
					"type": "event"
				},
				{
					"anonymous": false,
					"inputs": [
						{
							"indexed": true,
							"internalType": "address",
							"name": "from",
							"type": "address"
						},
						{
							"indexed": true,
							"internalType": "address",
							"name": "to",
							"type": "address"
						},
						{
							"indexed": false,
							"internalType": "uint256",
							"name": "value",
							"type": "uint256"
						}
					],
					"name": "FrozenTransfer",
					"type": "event"
				},
				{
					"anonymous": false,
					"inputs": [
						{
							"indexed": true,
							"internalType": "address",
							"name": "from",
							"type": "address"
						},
						{
							"indexed": false,
							"internalType": "uint256",
							"name": "amount",
							"type": "uint256"
						}
					],
					"name": "MeltFrozen",
					"type": "event"
				},
				{
					"anonymous": false,
					"inputs": [
						{
							"indexed": true,
							"internalType": "address",
							"name": "previousMelter",
							"type": "address"
						},
						{
							"indexed": true,
							"internalType": "address",
							"name": "newMelter",
							"type": "address"
						}
					],
					"name": "MelterTransferred",
					"type": "event"
				},
				{
					"anonymous": false,
					"inputs": [
						{
							"indexed": true,
							"internalType": "address",
							"name": "to",
							"type": "address"
						},
						{
							"indexed": false,
							"internalType": "uint256",
							"name": "amount",
							"type": "uint256"
						}
					],
					"name": "MintFrozen",
					"type": "event"
				},
				{
					"anonymous": false,
					"inputs": [
						{
							"indexed": true,
							"internalType": "address",
							"name": "previousOwner",
							"type": "address"
						},
						{
							"indexed": true,
							"internalType": "address",
							"name": "newOwner",
							"type": "address"
						}
					],
					"name": "OwnershipTransferred",
					"type": "event"
				},
				{
					"anonymous": false,
					"inputs": [
						{
							"indexed": true,
							"internalType": "address",
							"name": "from",
							"type": "address"
						},
						{
							"indexed": true,
							"internalType": "address",
							"name": "to",
							"type": "address"
						},
						{
							"indexed": false,
							"internalType": "uint256",
							"name": "value",
							"type": "uint256"
						}
					],
					"name": "Transfer",
					"type": "event"
				},
				{
					"inputs": [
						{
							"internalType": "address",
							"name": "account",
							"type": "address"
						}
					],
					"name": "addToMelters",
					"outputs": [],
					"stateMutability": "nonpayable",
					"type": "function"
				},
				{
					"inputs": [
						{
							"internalType": "address",
							"name": "_transferFeeAddress",
							"type": "address"
						}
					],
					"name": "addTransferFeeAddress",
					"outputs": [],
					"stateMutability": "nonpayable",
					"type": "function"
				},
				{
					"inputs": [
						{
							"internalType": "address",
							"name": "owner",
							"type": "address"
						},
						{
							"internalType": "address",
							"name": "spender",
							"type": "address"
						}
					],
					"name": "allowance",
					"outputs": [
						{
							"internalType": "uint256",
							"name": "",
							"type": "uint256"
						}
					],
					"stateMutability": "view",
					"type": "function"
				},
				{
					"inputs": [
						{
							"internalType": "address",
							"name": "spender",
							"type": "address"
						},
						{
							"internalType": "uint256",
							"name": "amount",
							"type": "uint256"
						}
					],
					"name": "approve",
					"outputs": [
						{
							"internalType": "bool",
							"name": "",
							"type": "bool"
						}
					],
					"stateMutability": "nonpayable",
					"type": "function"
				},
				{
					"inputs": [
						{
							"internalType": "address",
							"name": "account",
							"type": "address"
						}
					],
					"name": "availableBalance",
					"outputs": [
						{
							"internalType": "uint256",
							"name": "",
							"type": "uint256"
						}
					],
					"stateMutability": "view",
					"type": "function"
				},
				{
					"inputs": [
						{
							"internalType": "address",
							"name": "account",
							"type": "address"
						}
					],
					"name": "balanceOf",
					"outputs": [
						{
							"internalType": "uint256",
							"name": "",
							"type": "uint256"
						}
					],
					"stateMutability": "view",
					"type": "function"
				},
				{
					"inputs": [
						{
							"internalType": "uint256",
							"name": "amount",
							"type": "uint256"
						}
					],
					"name": "burn",
					"outputs": [
						{
							"internalType": "bool",
							"name": "",
							"type": "bool"
						}
					],
					"stateMutability": "nonpayable",
					"type": "function"
				},
				{
					"inputs": [
						{
							"internalType": "address",
							"name": "account",
							"type": "address"
						},
						{
							"internalType": "uint256",
							"name": "amount",
							"type": "uint256"
						}
					],
					"name": "burnFrom",
					"outputs": [
						{
							"internalType": "bool",
							"name": "",
							"type": "bool"
						}
					],
					"stateMutability": "nonpayable",
					"type": "function"
				},
				{
					"inputs": [],
					"name": "claimMelterAdmin",
					"outputs": [],
					"stateMutability": "nonpayable",
					"type": "function"
				},
				{
					"inputs": [],
					"name": "decimals",
					"outputs": [
						{
							"internalType": "uint8",
							"name": "",
							"type": "uint8"
						}
					],
					"stateMutability": "view",
					"type": "function"
				},
				{
					"inputs": [
						{
							"internalType": "address",
							"name": "spender",
							"type": "address"
						},
						{
							"internalType": "uint256",
							"name": "subtractedValue",
							"type": "uint256"
						}
					],
					"name": "decreaseAllowance",
					"outputs": [
						{
							"internalType": "bool",
							"name": "",
							"type": "bool"
						}
					],
					"stateMutability": "nonpayable",
					"type": "function"
				},
				{
					"inputs": [
						{
							"internalType": "address",
							"name": "account",
							"type": "address"
						},
						{
							"internalType": "uint256",
							"name": "amount",
							"type": "uint256"
						}
					],
					"name": "destroyFrozen",
					"outputs": [],
					"stateMutability": "nonpayable",
					"type": "function"
				},
				{
					"inputs": [],
					"name": "feeaddr",
					"outputs": [
						{
							"internalType": "address",
							"name": "",
							"type": "address"
						}
					],
					"stateMutability": "view",
					"type": "function"
				},
				{
					"inputs": [
						{
							"internalType": "address",
							"name": "spender",
							"type": "address"
						},
						{
							"internalType": "uint256",
							"name": "addedValue",
							"type": "uint256"
						}
					],
					"name": "increaseAllowance",
					"outputs": [
						{
							"internalType": "bool",
							"name": "",
							"type": "bool"
						}
					],
					"stateMutability": "nonpayable",
					"type": "function"
				},
				{
					"inputs": [],
					"name": "maxSupply",
					"outputs": [
						{
							"internalType": "uint256",
							"name": "",
							"type": "uint256"
						}
					],
					"stateMutability": "view",
					"type": "function"
				},
				{
					"inputs": [
						{
							"internalType": "address",
							"name": "account",
							"type": "address"
						},
						{
							"internalType": "uint256",
							"name": "amount",
							"type": "uint256"
						}
					],
					"name": "meltTokens",
					"outputs": [
						{
							"internalType": "bool",
							"name": "",
							"type": "bool"
						}
					],
					"stateMutability": "nonpayable",
					"type": "function"
				},
				{
					"inputs": [],
					"name": "melteradmin",
					"outputs": [
						{
							"internalType": "address",
							"name": "",
							"type": "address"
						}
					],
					"stateMutability": "view",
					"type": "function"
				},
				{
					"inputs": [
						{
							"internalType": "address",
							"name": "_to",
							"type": "address"
						},
						{
							"internalType": "uint256",
							"name": "_amount",
							"type": "uint256"
						}
					],
					"name": "mint",
					"outputs": [],
					"stateMutability": "nonpayable",
					"type": "function"
				},
				{
					"inputs": [
						{
							"internalType": "address",
							"name": "account",
							"type": "address"
						},
						{
							"internalType": "uint256",
							"name": "amount",
							"type": "uint256"
						}
					],
					"name": "mintFrozenTokens",
					"outputs": [
						{
							"internalType": "bool",
							"name": "",
							"type": "bool"
						}
					],
					"stateMutability": "nonpayable",
					"type": "function"
				},
				{
					"inputs": [],
					"name": "name",
					"outputs": [
						{
							"internalType": "string",
							"name": "",
							"type": "string"
						}
					],
					"stateMutability": "view",
					"type": "function"
				},
				{
					"inputs": [],
					"name": "owner",
					"outputs": [
						{
							"internalType": "address",
							"name": "",
							"type": "address"
						}
					],
					"stateMutability": "view",
					"type": "function"
				},
				{
					"inputs": [],
					"name": "pendingMelterAdmin",
					"outputs": [
						{
							"internalType": "address",
							"name": "",
							"type": "address"
						}
					],
					"stateMutability": "view",
					"type": "function"
				},
				{
					"inputs": [
						{
							"internalType": "address",
							"name": "account",
							"type": "address"
						}
					],
					"name": "removeFromMelters",
					"outputs": [],
					"stateMutability": "nonpayable",
					"type": "function"
				},
				{
					"inputs": [
						{
							"internalType": "address",
							"name": "_transferFeeAddress",
							"type": "address"
						}
					],
					"name": "removeTransferBurnAddress",
					"outputs": [],
					"stateMutability": "nonpayable",
					"type": "function"
				},
				{
					"inputs": [],
					"name": "renounceOwnership",
					"outputs": [],
					"stateMutability": "nonpayable",
					"type": "function"
				},
				{
					"inputs": [
						{
							"internalType": "address",
							"name": "_feeaddr",
							"type": "address"
						}
					],
					"name": "setFeeAddr",
					"outputs": [],
					"stateMutability": "nonpayable",
					"type": "function"
				},
				{
					"inputs": [
						{
							"internalType": "uint256",
							"name": "_rate",
							"type": "uint256"
						}
					],
					"name": "setTransferFeeRate",
					"outputs": [],
					"stateMutability": "nonpayable",
					"type": "function"
				},
				{
					"inputs": [],
					"name": "symbol",
					"outputs": [
						{
							"internalType": "string",
							"name": "",
							"type": "string"
						}
					],
					"stateMutability": "view",
					"type": "function"
				},
				{
					"inputs": [],
					"name": "totalSupply",
					"outputs": [
						{
							"internalType": "uint256",
							"name": "",
							"type": "uint256"
						}
					],
					"stateMutability": "view",
					"type": "function"
				},
				{
					"inputs": [
						{
							"internalType": "address",
							"name": "recipient",
							"type": "address"
						},
						{
							"internalType": "uint256",
							"name": "amount",
							"type": "uint256"
						}
					],
					"name": "transfer",
					"outputs": [
						{
							"internalType": "bool",
							"name": "",
							"type": "bool"
						}
					],
					"stateMutability": "nonpayable",
					"type": "function"
				},
				{
					"inputs": [],
					"name": "transferFeeRate",
					"outputs": [
						{
							"internalType": "uint256",
							"name": "",
							"type": "uint256"
						}
					],
					"stateMutability": "view",
					"type": "function"
				},
				{
					"inputs": [
						{
							"internalType": "address",
							"name": "sender",
							"type": "address"
						},
						{
							"internalType": "address",
							"name": "recipient",
							"type": "address"
						},
						{
							"internalType": "uint256",
							"name": "amount",
							"type": "uint256"
						}
					],
					"name": "transferFrom",
					"outputs": [
						{
							"internalType": "bool",
							"name": "",
							"type": "bool"
						}
					],
					"stateMutability": "nonpayable",
					"type": "function"
				},
				{
					"inputs": [
						{
							"internalType": "address",
							"name": "from",
							"type": "address"
						},
						{
							"internalType": "address",
							"name": "to",
							"type": "address"
						},
						{
							"internalType": "uint256",
							"name": "amount",
							"type": "uint256"
						}
					],
					"name": "transferFrozenToken",
					"outputs": [
						{
							"internalType": "bool",
							"name": "",
							"type": "bool"
						}
					],
					"stateMutability": "nonpayable",
					"type": "function"
				},
				{
					"inputs": [
						{
							"internalType": "address",
							"name": "newMelter",
							"type": "address"
						}
					],
					"name": "transferMelterAdmin",
					"outputs": [],
					"stateMutability": "nonpayable",
					"type": "function"
				},
				{
					"inputs": [
						{
							"internalType": "address",
							"name": "newOwner",
							"type": "address"
						}
					],
					"name": "transferOwnership",
					"outputs": [],
					"stateMutability": "nonpayable",
					"type": "function"
				}
			],
			"devdoc": {
				"kind": "dev",
				"methods": {
					"burn(uint256)": {
						"details": "Destroys `amount` tokens from the caller. See {ERC20-_burn}."
					},
					"burnFrom(address,uint256)": {
						"details": "Destroys `amount` tokens from `account`, deducting from the caller's allowance. See {ERC20-_burn} and {ERC20-allowance}. Requirements: - the caller must have allowance for ``accounts``'s tokens of at least `amount`."
					},
					"owner()": {
						"details": "Returns the address of the current owner."
					},
					"renounceOwnership()": {
						"details": "Leaves the contract without owner. It will not be possible to call `onlyOwner` functions anymore. Can only be called by the current owner. NOTE: Renouncing ownership will leave the contract without an owner, thereby removing any functionality that is only available to the owner."
					},
					"transferOwnership(address)": {
						"details": "Transfers ownership of the contract to a new account (`newOwner`). Can only be called by the current owner."
					}
				},
				"version": 1
			},
			"evm": {
				"assembly": "    /* \"contracts/Token/Token.sol\":21190:25051  contract SQFToken is ERC20(\"Sancti Quest On Frontline\", \"SQF\", 333.333333333*10**9*10**18, 255.466666666*10**9*10**18) {... */\n  mstore(0x40, 0x80)\n    /* \"contracts/Token/Token.sol\":24974:25049  constructor() public {... */\n  callvalue\n  dup1\n  iszero\n  tag_1\n  jumpi\n  0x00\n  dup1\n  revert\ntag_1:\n  pop\n    /* \"contracts/Token/Token.sol\":15151:15382  constructor (string memory name, string memory symbol, uint256 max, uint total) public {... */\n  mload(0x40)\n  dup1\n  0x40\n  add\n  0x40\n  mstore\n  dup1\n  0x19\n  dup2\n  mstore\n  0x20\n  add\n  0x53616e637469205175657374204f6e2046726f6e746c696e6500000000000000\n  dup2\n  mstore\n  pop\n  mload(0x40)\n  dup1\n  0x40\n  add\n  0x40\n  mstore\n  dup1\n  0x03\n  dup2\n  mstore\n  0x20\n  add\n  0x5351460000000000000000000000000000000000000000000000000000000000\n  dup2\n  mstore\n  pop\n    /* \"contracts/Token/Token.sol\":21253:21279  333.333333333*10**9*10**18 */\n  0x04350edef012dc126788340000\n    /* \"contracts/Token/Token.sol\":21281:21307  255.466666666*10**9*10**18 */\n  0x03397512e5d86a2960d0680000\n    /* \"contracts/Token/Token.sol\":11083:11100  address msgSender */\n  0x00\n    /* \"contracts/Token/Token.sol\":11103:11115  _msgSender() */\n  tag_7\n    /* \"contracts/Token/Token.sol\":11103:11113  _msgSender */\n  shl(0x20, tag_8)\n    /* \"contracts/Token/Token.sol\":11103:11115  _msgSender() */\n  0x20\n  shr\n  jump\t// in\ntag_7:\n    /* \"contracts/Token/Token.sol\":11083:11115  address msgSender = _msgSender() */\n  swap1\n  pop\n    /* \"contracts/Token/Token.sol\":11128:11137  msgSender */\n  dup1\n    /* \"contracts/Token/Token.sol\":11119:11125  _owner */\n  0x01\n  0x00\n    /* \"contracts/Token/Token.sol\":11119:11137  _owner = msgSender */\n  0x0100\n  exp\n  dup2\n  sload\n  dup2\n  0xffffffffffffffffffffffffffffffffffffffff\n  mul\n  not\n  and\n  swap1\n  dup4\n  0xffffffffffffffffffffffffffffffffffffffff\n  and\n  mul\n  or\n  swap1\n  sstore\n  pop\n    /* \"contracts/Token/Token.sol\":11179:11188  msgSender */\n  dup1\n    /* \"contracts/Token/Token.sol\":11146:11189  OwnershipTransferred(address(0), msgSender) */\n  0xffffffffffffffffffffffffffffffffffffffff\n  and\n    /* \"contracts/Token/Token.sol\":11175:11176  0 */\n  0x00\n    /* \"contracts/Token/Token.sol\":11146:11189  OwnershipTransferred(address(0), msgSender) */\n  0xffffffffffffffffffffffffffffffffffffffff\n  and\n  0x8be0079c531659141344cd1fd0a4f28419497f9722a3daafe3b4186f6b6457e0\n  mload(0x40)\n  mload(0x40)\n  dup1\n  swap2\n  sub\n  swap1\n  log3\n    /* \"contracts/Token/Token.sol\":11055:11193  constructor () internal {... */\n  pop\n    /* \"contracts/Token/Token.sol\":13663:13673  msg.sender */\n  caller\n    /* \"contracts/Token/Token.sol\":13648:13660  _melteradmin */\n  0x03\n  0x00\n    /* \"contracts/Token/Token.sol\":13648:13673  _melteradmin = msg.sender */\n  0x0100\n  exp\n  dup2\n  sload\n  dup2\n  0xffffffffffffffffffffffffffffffffffffffff\n  mul\n  not\n  and\n  swap1\n  dup4\n  0xffffffffffffffffffffffffffffffffffffffff\n  and\n  mul\n  or\n  swap1\n  sstore\n  pop\n    /* \"contracts/Token/Token.sol\":13706:13710  true */\n  0x01\n    /* \"contracts/Token/Token.sol\":13683:13691  _melters */\n  0x02\n    /* \"contracts/Token/Token.sol\":13683:13703  _melters[msg.sender] */\n  0x00\n    /* \"contracts/Token/Token.sol\":13692:13702  msg.sender */\n  caller\n    /* \"contracts/Token/Token.sol\":13683:13703  _melters[msg.sender] */\n  0xffffffffffffffffffffffffffffffffffffffff\n  and\n  0xffffffffffffffffffffffffffffffffffffffff\n  and\n  dup2\n  mstore\n  0x20\n  add\n  swap1\n  dup2\n  mstore\n  0x20\n  add\n  0x00\n  keccak256\n  0x00\n    /* \"contracts/Token/Token.sol\":13683:13710  _melters[msg.sender] = true */\n  0x0100\n  exp\n  dup2\n  sload\n  dup2\n  0xff\n  mul\n  not\n  and\n  swap1\n  dup4\n  iszero\n  iszero\n  mul\n  or\n  swap1\n  sstore\n  pop\n    /* \"contracts/Token/Token.sol\":15250:15254  name */\n  dup4\n    /* \"contracts/Token/Token.sol\":15242:15247  _name */\n  0x09\n    /* \"contracts/Token/Token.sol\":15242:15254  _name = name */\n  swap1\n  dup1\n  mload\n  swap1\n  0x20\n  add\n  swap1\n  tag_11\n  swap3\n  swap2\n  swap1\n  tag_12\n  jump\t// in\ntag_11:\n  pop\n    /* \"contracts/Token/Token.sol\":15268:15274  symbol */\n  dup3\n    /* \"contracts/Token/Token.sol\":15258:15265  _symbol */\n  0x0a\n    /* \"contracts/Token/Token.sol\":15258:15274  _symbol = symbol */\n  swap1\n  dup1\n  mload\n  swap1\n  0x20\n  add\n  swap1\n  tag_13\n  swap3\n  swap2\n  swap1\n  tag_12\n  jump\t// in\ntag_13:\n  pop\n    /* \"contracts/Token/Token.sol\":15290:15292  18 */\n  0x12\n    /* \"contracts/Token/Token.sol\":15278:15287  _decimals */\n  0x0b\n  0x00\n    /* \"contracts/Token/Token.sol\":15278:15292  _decimals = 18 */\n  0x0100\n  exp\n  dup2\n  sload\n  dup2\n  0xff\n  mul\n  not\n  and\n  swap1\n  dup4\n  0xff\n  and\n  mul\n  or\n  swap1\n  sstore\n  pop\n    /* \"contracts/Token/Token.sol\":15309:15312  max */\n  dup2\n    /* \"contracts/Token/Token.sol\":15296:15306  _maxSupply */\n  0x08\n    /* \"contracts/Token/Token.sol\":15296:15312  _maxSupply = max */\n  dup2\n  swap1\n  sstore\n  pop\n    /* \"contracts/Token/Token.sol\":15331:15336  total */\n  dup1\n    /* \"contracts/Token/Token.sol\":15316:15328  _totalSupply */\n  0x07\n    /* \"contracts/Token/Token.sol\":15316:15336  _totalSupply = total */\n  dup2\n  swap1\n  sstore\n  pop\n    /* \"contracts/Token/Token.sol\":15373:15378  total */\n  dup1\n    /* \"contracts/Token/Token.sol\":15340:15349  _balances */\n  0x05\n    /* \"contracts/Token/Token.sol\":15340:15370  _balances[address(msg.sender)] */\n  0x00\n    /* \"contracts/Token/Token.sol\":15358:15368  msg.sender */\n  caller\n    /* \"contracts/Token/Token.sol\":15340:15370  _balances[address(msg.sender)] */\n  0xffffffffffffffffffffffffffffffffffffffff\n  and\n  0xffffffffffffffffffffffffffffffffffffffff\n  and\n  dup2\n  mstore\n  0x20\n  add\n  swap1\n  dup2\n  mstore\n  0x20\n  add\n  0x00\n  keccak256\n    /* \"contracts/Token/Token.sol\":15340:15378  _balances[address(msg.sender)] = total */\n  dup2\n  swap1\n  sstore\n  pop\n    /* \"contracts/Token/Token.sol\":15151:15382  constructor (string memory name, string memory symbol, uint256 max, uint total) public {... */\n  pop\n  pop\n  pop\n  pop\n    /* \"contracts/Token/Token.sol\":25012:25022  msg.sender */\n  caller\n    /* \"contracts/Token/Token.sol\":25002:25009  feeaddr */\n  0x0b\n  0x01\n    /* \"contracts/Token/Token.sol\":25002:25022  feeaddr = msg.sender */\n  0x0100\n  exp\n  dup2\n  sload\n  dup2\n  0xffffffffffffffffffffffffffffffffffffffff\n  mul\n  not\n  and\n  swap1\n  dup4\n  0xffffffffffffffffffffffffffffffffffffffff\n  and\n  mul\n  or\n  swap1\n  sstore\n  pop\n    /* \"contracts/Token/Token.sol\":25044:25045  0 */\n  0x00\n    /* \"contracts/Token/Token.sol\":25026:25041  transferFeeRate */\n  0x0c\n    /* \"contracts/Token/Token.sol\":25026:25045  transferFeeRate = 0 */\n  dup2\n  swap1\n  sstore\n  pop\n    /* \"contracts/Token/Token.sol\":21190:25051  contract SQFToken is ERC20(\"Sancti Quest On Frontline\", \"SQF\", 333.333333333*10**9*10**18, 255.466666666*10**9*10**18) {... */\n  jump(tag_15)\n    /* \"contracts/Token/Token.sol\":55:150  function _msgSender() internal view virtual returns (address payable) {... */\ntag_8:\n    /* \"contracts/Token/Token.sol\":108:123  address payable */\n  0x00\n    /* \"contracts/Token/Token.sol\":136:146  msg.sender */\n  caller\n    /* \"contracts/Token/Token.sol\":129:146  return msg.sender */\n  swap1\n  pop\n    /* \"contracts/Token/Token.sol\":55:150  function _msgSender() internal view virtual returns (address payable) {... */\n  swap1\n  jump\t// out\n    /* \"contracts/Token/Token.sol\":21190:25051  contract SQFToken is ERC20(\"Sancti Quest On Frontline\", \"SQF\", 333.333333333*10**9*10**18, 255.466666666*10**9*10**18) {... */\ntag_12:\n  dup3\n  dup1\n  sload\n  0x01\n  dup2\n  0x01\n  and\n  iszero\n  0x0100\n  mul\n  sub\n  and\n  0x02\n  swap1\n  div\n  swap1\n  0x00\n  mstore\n  keccak256(0x00, 0x20)\n  swap1\n  0x1f\n  add\n  0x20\n  swap1\n  div\n  dup2\n  add\n  swap3\n  dup3\n  0x1f\n  lt\n  tag_18\n  jumpi\n  dup1\n  mload\n  not(0xff)\n  and\n  dup4\n  dup1\n  add\n  or\n  dup6\n  sstore\n  jump(tag_17)\ntag_18:\n  dup3\n  dup1\n  add\n  0x01\n  add\n  dup6\n  sstore\n  dup3\n  iszero\n  tag_17\n  jumpi\n  swap2\n  dup3\n  add\ntag_19:\n  dup3\n  dup2\n  gt\n  iszero\n  tag_20\n  jumpi\n  dup3\n  mload\n  dup3\n  sstore\n  swap2\n  0x20\n  add\n  swap2\n  swap1\n  0x01\n  add\n  swap1\n  jump(tag_19)\ntag_20:\ntag_17:\n  pop\n  swap1\n  pop\n  tag_21\n  swap2\n  swap1\n  tag_22\n  jump\t// in\ntag_21:\n  pop\n  swap1\n  jump\t// out\ntag_22:\ntag_23:\n  dup1\n  dup3\n  gt\n  iszero\n  tag_24\n  jumpi\n  0x00\n  dup2\n  0x00\n  swap1\n  sstore\n  pop\n  0x01\n  add\n  jump(tag_23)\ntag_24:\n  pop\n  swap1\n  jump\t// out\ntag_15:\n  dataSize(sub_0)\n  dup1\n  dataOffset(sub_0)\n  0x00\n  codecopy\n  0x00\n  return\nstop\n\nsub_0: assembly {\n        /* \"contracts/Token/Token.sol\":21190:25051  contract SQFToken is ERC20(\"Sancti Quest On Frontline\", \"SQF\", 333.333333333*10**9*10**18, 255.466666666*10**9*10**18) {... */\n      mstore(0x40, 0x80)\n      callvalue\n      dup1\n      iszero\n      tag_1\n      jumpi\n      0x00\n      dup1\n      revert\n    tag_1:\n      pop\n      jumpi(tag_2, lt(calldatasize, 0x04))\n      shr(0xe0, calldataload(0x00))\n      dup1\n      0x715018a6\n      gt\n      tag_38\n      jumpi\n      dup1\n      0xa9059cbb\n      gt\n      tag_39\n      jumpi\n      dup1\n      0xd5abeb01\n      gt\n      tag_40\n      jumpi\n      dup1\n      0xd5abeb01\n      eq\n      tag_33\n      jumpi\n      dup1\n      0xd8da5ce9\n      eq\n      tag_34\n      jumpi\n      dup1\n      0xdd62ed3e\n      eq\n      tag_35\n      jumpi\n      dup1\n      0xe50d3180\n      eq\n      tag_36\n      jumpi\n      dup1\n      0xf2fde38b\n      eq\n      tag_37\n      jumpi\n      jump(tag_2)\n    tag_40:\n      dup1\n      0xa9059cbb\n      eq\n      tag_29\n      jumpi\n      dup1\n      0xb2855b4f\n      eq\n      tag_30\n      jumpi\n      dup1\n      0xc4157b29\n      eq\n      tag_31\n      jumpi\n      dup1\n      0xc894e1e5\n      eq\n      tag_32\n      jumpi\n      jump(tag_2)\n    tag_39:\n      dup1\n      0x91116d67\n      gt\n      tag_41\n      jumpi\n      dup1\n      0x91116d67\n      eq\n      tag_24\n      jumpi\n      dup1\n      0x95d89b41\n      eq\n      tag_25\n      jumpi\n      dup1\n      0xa0821be3\n      eq\n      tag_26\n      jumpi\n      dup1\n      0xa457c2d7\n      eq\n      tag_27\n      jumpi\n      dup1\n      0xa64f714c\n      eq\n      tag_28\n      jumpi\n      jump(tag_2)\n    tag_41:\n      dup1\n      0x715018a6\n      eq\n      tag_20\n      jumpi\n      dup1\n      0x79cc6790\n      eq\n      tag_21\n      jumpi\n      dup1\n      0x8da5cb5b\n      eq\n      tag_22\n      jumpi\n      dup1\n      0x8fe8cf24\n      eq\n      tag_23\n      jumpi\n      jump(tag_2)\n    tag_38:\n      dup1\n      0x313ce567\n      gt\n      tag_42\n      jumpi\n      dup1\n      0x40c10f19\n      gt\n      tag_43\n      jumpi\n      dup1\n      0x40c10f19\n      eq\n      tag_15\n      jumpi\n      dup1\n      0x42966c68\n      eq\n      tag_16\n      jumpi\n      dup1\n      0x483a8df9\n      eq\n      tag_17\n      jumpi\n      dup1\n      0x70766280\n      eq\n      tag_18\n      jumpi\n      dup1\n      0x70a08231\n      eq\n      tag_19\n      jumpi\n      jump(tag_2)\n    tag_43:\n      dup1\n      0x313ce567\n      eq\n      tag_11\n      jumpi\n      dup1\n      0x351bf518\n      eq\n      tag_12\n      jumpi\n      dup1\n      0x35cde1ce\n      eq\n      tag_13\n      jumpi\n      dup1\n      0x39509351\n      eq\n      tag_14\n      jumpi\n      jump(tag_2)\n    tag_42:\n      dup1\n      0x18160ddd\n      gt\n      tag_44\n      jumpi\n      dup1\n      0x18160ddd\n      eq\n      tag_7\n      jumpi\n      dup1\n      0x1e57a2b2\n      eq\n      tag_8\n      jumpi\n      dup1\n      0x238fd731\n      eq\n      tag_9\n      jumpi\n      dup1\n      0x23b872dd\n      eq\n      tag_10\n      jumpi\n      jump(tag_2)\n    tag_44:\n      dup1\n      0x06fdde03\n      eq\n      tag_3\n      jumpi\n      dup1\n      0x095ea7b3\n      eq\n      tag_4\n      jumpi\n      dup1\n      0x0c15f601\n      eq\n      tag_5\n      jumpi\n      dup1\n      0x171177b3\n      eq\n      tag_6\n      jumpi\n    tag_2:\n      0x00\n      dup1\n      revert\n        /* \"contracts/Token/Token.sol\":15385:15457  function name() public view returns (string memory) {... */\n    tag_3:\n      tag_45\n      tag_46\n      jump\t// in\n    tag_45:\n      mload(0x40)\n      dup1\n      dup1\n      0x20\n      add\n      dup3\n      dup2\n      sub\n      dup3\n      mstore\n      dup4\n      dup2\n      dup2\n      mload\n      dup2\n      mstore\n      0x20\n      add\n      swap2\n      pop\n      dup1\n      mload\n      swap1\n      0x20\n      add\n      swap1\n      dup1\n      dup4\n      dup4\n      0x00\n    tag_47:\n      dup4\n      dup2\n      lt\n      iszero\n      tag_49\n      jumpi\n      dup1\n      dup3\n      add\n      mload\n      dup2\n      dup5\n      add\n      mstore\n      0x20\n      dup2\n      add\n      swap1\n      pop\n      jump(tag_47)\n    tag_49:\n      pop\n      pop\n      pop\n      pop\n      swap1\n      pop\n      swap1\n      dup2\n      add\n      swap1\n      0x1f\n      and\n      dup1\n      iszero\n      tag_50\n      jumpi\n      dup1\n      dup3\n      sub\n      dup1\n      mload\n      0x01\n      dup4\n      0x20\n      sub\n      0x0100\n      exp\n      sub\n      not\n      and\n      dup2\n      mstore\n      0x20\n      add\n      swap2\n      pop\n    tag_50:\n      pop\n      swap3\n      pop\n      pop\n      pop\n      mload(0x40)\n      dup1\n      swap2\n      sub\n      swap1\n      return\n        /* \"contracts/Token/Token.sol\":16341:16492  function approve(address spender, uint256 amount) public virtual override returns (bool) {... */\n    tag_4:\n      tag_51\n      0x04\n      dup1\n      calldatasize\n      sub\n      0x40\n      dup2\n      lt\n      iszero\n      tag_52\n      jumpi\n      0x00\n      dup1\n      revert\n    tag_52:\n      dup2\n      add\n      swap1\n      dup1\n      dup1\n      calldataload\n      0xffffffffffffffffffffffffffffffffffffffff\n      and\n      swap1\n      0x20\n      add\n      swap1\n      swap3\n      swap2\n      swap1\n      dup1\n      calldataload\n      swap1\n      0x20\n      add\n      swap1\n      swap3\n      swap2\n      swap1\n      pop\n      pop\n      pop\n      tag_53\n      jump\t// in\n    tag_51:\n      mload(0x40)\n      dup1\n      dup3\n      iszero\n      iszero\n      dup2\n      mstore\n      0x20\n      add\n      swap2\n      pop\n      pop\n      mload(0x40)\n      dup1\n      swap2\n      sub\n      swap1\n      return\n        /* \"contracts/Token/Token.sol\":24219:24365  function meltTokens(address account, uint256 amount) public onlyMelter returns (bool) {... */\n    tag_5:\n      tag_54\n      0x04\n      dup1\n      calldatasize\n      sub\n      0x40\n      dup2\n      lt\n      iszero\n      tag_55\n      jumpi\n      0x00\n      dup1\n      revert\n    tag_55:\n      dup2\n      add\n      swap1\n      dup1\n      dup1\n      calldataload\n      0xffffffffffffffffffffffffffffffffffffffff\n      and\n      swap1\n      0x20\n      add\n      swap1\n      swap3\n      swap2\n      swap1\n      dup1\n      calldataload\n      swap1\n      0x20\n      add\n      swap1\n      swap3\n      swap2\n      swap1\n      pop\n      pop\n      pop\n      tag_56\n      jump\t// in\n    tag_54:\n      mload(0x40)\n      dup1\n      dup3\n      iszero\n      iszero\n      dup2\n      mstore\n      0x20\n      add\n      swap2\n      pop\n      pop\n      mload(0x40)\n      dup1\n      swap2\n      sub\n      swap1\n      return\n        /* \"contracts/Token/Token.sol\":24375:24494  function destroyFrozen(address account, uint256 amount) public onlyMelter {... */\n    tag_6:\n      tag_57\n      0x04\n      dup1\n      calldatasize\n      sub\n      0x40\n      dup2\n      lt\n      iszero\n      tag_58\n      jumpi\n      0x00\n      dup1\n      revert\n    tag_58:\n      dup2\n      add\n      swap1\n      dup1\n      dup1\n      calldataload\n      0xffffffffffffffffffffffffffffffffffffffff\n      and\n      swap1\n      0x20\n      add\n      swap1\n      swap3\n      swap2\n      swap1\n      dup1\n      calldataload\n      swap1\n      0x20\n      add\n      swap1\n      swap3\n      swap2\n      swap1\n      pop\n      pop\n      pop\n      tag_59\n      jump\t// in\n    tag_57:\n      stop\n        /* \"contracts/Token/Token.sol\":15614:15703  function totalSupply() public view override returns (uint256) {... */\n    tag_7:\n      tag_60\n      tag_61\n      jump\t// in\n    tag_60:\n      mload(0x40)\n      dup1\n      dup3\n      dup2\n      mstore\n      0x20\n      add\n      swap2\n      pop\n      pop\n      mload(0x40)\n      dup1\n      swap2\n      sub\n      swap1\n      return\n        /* \"contracts/Token/Token.sol\":14166:14381  function claimMelterAdmin() public onlyPendingMelterAdmin {... */\n    tag_8:\n      tag_62\n      tag_63\n      jump\t// in\n    tag_62:\n      stop\n        /* \"contracts/Token/Token.sol\":13927:14036  function removeFromMelters(address account) public onlyMelterAdmin {... */\n    tag_9:\n      tag_64\n      0x04\n      dup1\n      calldatasize\n      sub\n      0x20\n      dup2\n      lt\n      iszero\n      tag_65\n      jumpi\n      0x00\n      dup1\n      revert\n    tag_65:\n      dup2\n      add\n      swap1\n      dup1\n      dup1\n      calldataload\n      0xffffffffffffffffffffffffffffffffffffffff\n      and\n      swap1\n      0x20\n      add\n      swap1\n      swap3\n      swap2\n      swap1\n      pop\n      pop\n      pop\n      tag_66\n      jump\t// in\n    tag_64:\n      stop\n        /* \"contracts/Token/Token.sol\":16495:16791  function transferFrom(address sender, address recipient, uint256 amount) public virtual override returns (bool) {... */\n    tag_10:\n      tag_67\n      0x04\n      dup1\n      calldatasize\n      sub\n      0x60\n      dup2\n      lt\n      iszero\n      tag_68\n      jumpi\n      0x00\n      dup1\n      revert\n    tag_68:\n      dup2\n      add\n      swap1\n      dup1\n      dup1\n      calldataload\n      0xffffffffffffffffffffffffffffffffffffffff\n      and\n      swap1\n      0x20\n      add\n      swap1\n      swap3\n      swap2\n      swap1\n      dup1\n      calldataload\n      0xffffffffffffffffffffffffffffffffffffffff\n      and\n      swap1\n      0x20\n      add\n      swap1\n      swap3\n      swap2\n      swap1\n      dup1\n      calldataload\n      swap1\n      0x20\n      add\n      swap1\n      swap3\n      swap2\n      swap1\n      pop\n      pop\n      pop\n      tag_69\n      jump\t// in\n    tag_67:\n      mload(0x40)\n      dup1\n      dup3\n      iszero\n      iszero\n      dup2\n      mstore\n      0x20\n      add\n      swap2\n      pop\n      pop\n      mload(0x40)\n      dup1\n      swap2\n      sub\n      swap1\n      return\n        /* \"contracts/Token/Token.sol\":15539:15611  function decimals() public view returns (uint8) {... */\n    tag_11:\n      tag_70\n      tag_71\n      jump\t// in\n    tag_70:\n      mload(0x40)\n      dup1\n      dup3\n      0xff\n      and\n      dup2\n      mstore\n      0x20\n      add\n      swap2\n      pop\n      pop\n      mload(0x40)\n      dup1\n      swap2\n      sub\n      swap1\n      return\n        /* \"contracts/Token/Token.sol\":21337:21367  uint256 public transferFeeRate */\n    tag_12:\n      tag_72\n      tag_73\n      jump\t// in\n    tag_72:\n      mload(0x40)\n      dup1\n      dup3\n      dup2\n      mstore\n      0x20\n      add\n      swap2\n      pop\n      pop\n      mload(0x40)\n      dup1\n      swap2\n      sub\n      swap1\n      return\n        /* \"contracts/Token/Token.sol\":13723:13812  function melteradmin() public view returns (address) {... */\n    tag_13:\n      tag_74\n      tag_75\n      jump\t// in\n    tag_74:\n      mload(0x40)\n      dup1\n      dup3\n      0xffffffffffffffffffffffffffffffffffffffff\n      and\n      dup2\n      mstore\n      0x20\n      add\n      swap2\n      pop\n      pop\n      mload(0x40)\n      dup1\n      swap2\n      sub\n      swap1\n      return\n        /* \"contracts/Token/Token.sol\":16794:16994  function increaseAllowance(address spender, uint256 addedValue) public virtual returns (bool) {... */\n    tag_14:\n      tag_76\n      0x04\n      dup1\n      calldatasize\n      sub\n      0x40\n      dup2\n      lt\n      iszero\n      tag_77\n      jumpi\n      0x00\n      dup1\n      revert\n    tag_77:\n      dup2\n      add\n      swap1\n      dup1\n      dup1\n      calldataload\n      0xffffffffffffffffffffffffffffffffffffffff\n      and\n      swap1\n      0x20\n      add\n      swap1\n      swap3\n      swap2\n      swap1\n      dup1\n      calldataload\n      swap1\n      0x20\n      add\n      swap1\n      swap3\n      swap2\n      swap1\n      pop\n      pop\n      pop\n      tag_78\n      jump\t// in\n    tag_76:\n      mload(0x40)\n      dup1\n      dup3\n      iszero\n      iszero\n      dup2\n      mstore\n      0x20\n      add\n      swap2\n      pop\n      pop\n      mload(0x40)\n      dup1\n      swap2\n      sub\n      swap1\n      return\n        /* \"contracts/Token/Token.sol\":22742:22830  function mint(address _to, uint256 _amount) public onlyOwner {... */\n    tag_15:\n      tag_79\n      0x04\n      dup1\n      calldatasize\n      sub\n      0x40\n      dup2\n      lt\n      iszero\n      tag_80\n      jumpi\n      0x00\n      dup1\n      revert\n    tag_80:\n      dup2\n      add\n      swap1\n      dup1\n      dup1\n      calldataload\n      0xffffffffffffffffffffffffffffffffffffffff\n      and\n      swap1\n      0x20\n      add\n      swap1\n      swap3\n      swap2\n      swap1\n      dup1\n      calldataload\n      swap1\n      0x20\n      add\n      swap1\n      swap3\n      swap2\n      swap1\n      pop\n      pop\n      pop\n      tag_81\n      jump\t// in\n    tag_79:\n      stop\n        /* \"contracts/Token/Token.sol\":22921:23031  function burn(uint256 amount) public virtual returns (bool) {... */\n    tag_16:\n      tag_82\n      0x04\n      dup1\n      calldatasize\n      sub\n      0x20\n      dup2\n      lt\n      iszero\n      tag_83\n      jumpi\n      0x00\n      dup1\n      revert\n    tag_83:\n      dup2\n      add\n      swap1\n      dup1\n      dup1\n      calldataload\n      swap1\n      0x20\n      add\n      swap1\n      swap3\n      swap2\n      swap1\n      pop\n      pop\n      pop\n      tag_84\n      jump\t// in\n    tag_82:\n      mload(0x40)\n      dup1\n      dup3\n      iszero\n      iszero\n      dup2\n      mstore\n      0x20\n      add\n      swap2\n      pop\n      pop\n      mload(0x40)\n      dup1\n      swap2\n      sub\n      swap1\n      return\n        /* \"contracts/Token/Token.sol\":14042:14160  function transferMelterAdmin(address newMelter) public onlyMelterAdmin {... */\n    tag_17:\n      tag_85\n      0x04\n      dup1\n      calldatasize\n      sub\n      0x20\n      dup2\n      lt\n      iszero\n      tag_86\n      jumpi\n      0x00\n      dup1\n      revert\n    tag_86:\n      dup2\n      add\n      swap1\n      dup1\n      dup1\n      calldataload\n      0xffffffffffffffffffffffffffffffffffffffff\n      and\n      swap1\n      0x20\n      add\n      swap1\n      swap3\n      swap2\n      swap1\n      pop\n      pop\n      pop\n      tag_87\n      jump\t// in\n    tag_85:\n      stop\n        /* \"contracts/Token/Token.sol\":13097:13130  address public pendingMelterAdmin */\n    tag_18:\n      tag_88\n      tag_89\n      jump\t// in\n    tag_88:\n      mload(0x40)\n      dup1\n      dup3\n      0xffffffffffffffffffffffffffffffffffffffff\n      and\n      dup2\n      mstore\n      0x20\n      add\n      swap2\n      pop\n      pop\n      mload(0x40)\n      dup1\n      swap2\n      sub\n      swap1\n      return\n        /* \"contracts/Token/Token.sol\":15895:16035  function balanceOf(address account) public view override returns (uint256) {... */\n    tag_19:\n      tag_90\n      0x04\n      dup1\n      calldatasize\n      sub\n      0x20\n      dup2\n      lt\n      iszero\n      tag_91\n      jumpi\n      0x00\n      dup1\n      revert\n    tag_91:\n      dup2\n      add\n      swap1\n      dup1\n      dup1\n      calldataload\n      0xffffffffffffffffffffffffffffffffffffffff\n      and\n      swap1\n      0x20\n      add\n      swap1\n      swap3\n      swap2\n      swap1\n      pop\n      pop\n      pop\n      tag_92\n      jump\t// in\n    tag_90:\n      mload(0x40)\n      dup1\n      dup3\n      dup2\n      mstore\n      0x20\n      add\n      swap2\n      pop\n      pop\n      mload(0x40)\n      dup1\n      swap2\n      sub\n      swap1\n      return\n        /* \"contracts/Token/Token.sol\":11820:11950  function renounceOwnership() public virtual onlyOwner {... */\n    tag_20:\n      tag_93\n      tag_94\n      jump\t// in\n    tag_93:\n      stop\n        /* \"contracts/Token/Token.sol\":23301:23600  function burnFrom(address account, uint256 amount) public virtual returns (bool) {... */\n    tag_21:\n      tag_95\n      0x04\n      dup1\n      calldatasize\n      sub\n      0x40\n      dup2\n      lt\n      iszero\n      tag_96\n      jumpi\n      0x00\n      dup1\n      revert\n    tag_96:\n      dup2\n      add\n      swap1\n      dup1\n      dup1\n      calldataload\n      0xffffffffffffffffffffffffffffffffffffffff\n      and\n      swap1\n      0x20\n      add\n      swap1\n      swap3\n      swap2\n      swap1\n      dup1\n      calldataload\n      swap1\n      0x20\n      add\n      swap1\n      swap3\n      swap2\n      swap1\n      pop\n      pop\n      pop\n      tag_97\n      jump\t// in\n    tag_95:\n      mload(0x40)\n      dup1\n      dup3\n      iszero\n      iszero\n      dup2\n      mstore\n      0x20\n      add\n      swap2\n      pop\n      pop\n      mload(0x40)\n      dup1\n      swap2\n      sub\n      swap1\n      return\n        /* \"contracts/Token/Token.sol\":11257:11325  function owner() public view returns (address) {... */\n    tag_22:\n      tag_98\n      tag_99\n      jump\t// in\n    tag_98:\n      mload(0x40)\n      dup1\n      dup3\n      0xffffffffffffffffffffffffffffffffffffffff\n      and\n      dup2\n      mstore\n      0x20\n      add\n      swap2\n      pop\n      pop\n      mload(0x40)\n      dup1\n      swap2\n      sub\n      swap1\n      return\n        /* \"contracts/Token/Token.sol\":24635:24767  function removeTransferBurnAddress(address _transferFeeAddress) public onlyOwner {... */\n    tag_23:\n      tag_100\n      0x04\n      dup1\n      calldatasize\n      sub\n      0x20\n      dup2\n      lt\n      iszero\n      tag_101\n      jumpi\n      0x00\n      dup1\n      revert\n    tag_101:\n      dup2\n      add\n      swap1\n      dup1\n      dup1\n      calldataload\n      0xffffffffffffffffffffffffffffffffffffffff\n      and\n      swap1\n      0x20\n      add\n      swap1\n      swap3\n      swap2\n      swap1\n      pop\n      pop\n      pop\n      tag_102\n      jump\t// in\n    tag_100:\n      stop\n        /* \"contracts/Token/Token.sol\":24504:24632  function addTransferFeeAddress(address _transferFeeAddress) public onlyOwner {... */\n    tag_24:\n      tag_103\n      0x04\n      dup1\n      calldatasize\n      sub\n      0x20\n      dup2\n      lt\n      iszero\n      tag_104\n      jumpi\n      0x00\n      dup1\n      revert\n    tag_104:\n      dup2\n      add\n      swap1\n      dup1\n      dup1\n      calldataload\n      0xffffffffffffffffffffffffffffffffffffffff\n      and\n      swap1\n      0x20\n      add\n      swap1\n      swap3\n      swap2\n      swap1\n      pop\n      pop\n      pop\n      tag_105\n      jump\t// in\n    tag_103:\n      stop\n        /* \"contracts/Token/Token.sol\":15460:15536  function symbol() public view returns (string memory) {... */\n    tag_25:\n      tag_106\n      tag_107\n      jump\t// in\n    tag_106:\n      mload(0x40)\n      dup1\n      dup1\n      0x20\n      add\n      dup3\n      dup2\n      sub\n      dup3\n      mstore\n      dup4\n      dup2\n      dup2\n      mload\n      dup2\n      mstore\n      0x20\n      add\n      swap2\n      pop\n      dup1\n      mload\n      swap1\n      0x20\n      add\n      swap1\n      dup1\n      dup4\n      dup4\n      0x00\n    tag_108:\n      dup4\n      dup2\n      lt\n      iszero\n      tag_110\n      jumpi\n      dup1\n      dup3\n      add\n      mload\n      dup2\n      dup5\n      add\n      mstore\n      0x20\n      dup2\n      add\n      swap1\n      pop\n      jump(tag_108)\n    tag_110:\n      pop\n      pop\n      pop\n      pop\n      swap1\n      pop\n      swap1\n      dup2\n      add\n      swap1\n      0x1f\n      and\n      dup1\n      iszero\n      tag_111\n      jumpi\n      dup1\n      dup3\n      sub\n      dup1\n      mload\n      0x01\n      dup4\n      0x20\n      sub\n      0x0100\n      exp\n      sub\n      not\n      and\n      dup2\n      mstore\n      0x20\n      add\n      swap2\n      pop\n    tag_111:\n      pop\n      swap3\n      pop\n      pop\n      pop\n      mload(0x40)\n      dup1\n      swap2\n      sub\n      swap1\n      return\n        /* \"contracts/Token/Token.sol\":15786:15892  function availableBalance(address account) public view returns (uint256) {... */\n    tag_26:\n      tag_112\n      0x04\n      dup1\n      calldatasize\n      sub\n      0x20\n      dup2\n      lt\n      iszero\n      tag_113\n      jumpi\n      0x00\n      dup1\n      revert\n    tag_113:\n      dup2\n      add\n      swap1\n      dup1\n      dup1\n      calldataload\n      0xffffffffffffffffffffffffffffffffffffffff\n      and\n      swap1\n      0x20\n      add\n      swap1\n      swap3\n      swap2\n      swap1\n      pop\n      pop\n      pop\n      tag_114\n      jump\t// in\n    tag_112:\n      mload(0x40)\n      dup1\n      dup3\n      dup2\n      mstore\n      0x20\n      add\n      swap2\n      pop\n      pop\n      mload(0x40)\n      dup1\n      swap2\n      sub\n      swap1\n      return\n        /* \"contracts/Token/Token.sol\":16997:17248  function decreaseAllowance(address spender, uint256 subtractedValue) public virtual returns (bool) {... */\n    tag_27:\n      tag_115\n      0x04\n      dup1\n      calldatasize\n      sub\n      0x40\n      dup2\n      lt\n      iszero\n      tag_116\n      jumpi\n      0x00\n      dup1\n      revert\n    tag_116:\n      dup2\n      add\n      swap1\n      dup1\n      dup1\n      calldataload\n      0xffffffffffffffffffffffffffffffffffffffff\n      and\n      swap1\n      0x20\n      add\n      swap1\n      swap3\n      swap2\n      swap1\n      dup1\n      calldataload\n      swap1\n      0x20\n      add\n      swap1\n      swap3\n      swap2\n      swap1\n      pop\n      pop\n      pop\n      tag_117\n      jump\t// in\n    tag_115:\n      mload(0x40)\n      dup1\n      dup3\n      iszero\n      iszero\n      dup2\n      mstore\n      0x20\n      add\n      swap2\n      pop\n      pop\n      mload(0x40)\n      dup1\n      swap2\n      sub\n      swap1\n      return\n        /* \"contracts/Token/Token.sol\":21312:21334  address public feeaddr */\n    tag_28:\n      tag_118\n      tag_119\n      jump\t// in\n    tag_118:\n      mload(0x40)\n      dup1\n      dup3\n      0xffffffffffffffffffffffffffffffffffffffff\n      and\n      dup2\n      mstore\n      0x20\n      add\n      swap2\n      pop\n      pop\n      mload(0x40)\n      dup1\n      swap2\n      sub\n      swap1\n      return\n        /* \"contracts/Token/Token.sol\":16038:16195  function transfer(address recipient, uint256 amount) public virtual override returns (bool) {... */\n    tag_29:\n      tag_120\n      0x04\n      dup1\n      calldatasize\n      sub\n      0x40\n      dup2\n      lt\n      iszero\n      tag_121\n      jumpi\n      0x00\n      dup1\n      revert\n    tag_121:\n      dup2\n      add\n      swap1\n      dup1\n      dup1\n      calldataload\n      0xffffffffffffffffffffffffffffffffffffffff\n      and\n      swap1\n      0x20\n      add\n      swap1\n      swap3\n      swap2\n      swap1\n      dup1\n      calldataload\n      swap1\n      0x20\n      add\n      swap1\n      swap3\n      swap2\n      swap1\n      pop\n      pop\n      pop\n      tag_122\n      jump\t// in\n    tag_120:\n      mload(0x40)\n      dup1\n      dup3\n      iszero\n      iszero\n      dup2\n      mstore\n      0x20\n      add\n      swap2\n      pop\n      pop\n      mload(0x40)\n      dup1\n      swap2\n      sub\n      swap1\n      return\n        /* \"contracts/Token/Token.sol\":24773:24857  function setFeeAddr(address _feeaddr) public onlyOwner {... */\n    tag_30:\n      tag_123\n      0x04\n      dup1\n      calldatasize\n      sub\n      0x20\n      dup2\n      lt\n      iszero\n      tag_124\n      jumpi\n      0x00\n      dup1\n      revert\n    tag_124:\n      dup2\n      add\n      swap1\n      dup1\n      dup1\n      calldataload\n      0xffffffffffffffffffffffffffffffffffffffff\n      and\n      swap1\n      0x20\n      add\n      swap1\n      swap3\n      swap2\n      swap1\n      pop\n      pop\n      pop\n      tag_125\n      jump\t// in\n    tag_123:\n      stop\n        /* \"contracts/Token/Token.sol\":23604:23762  function mintFrozenTokens(address account, uint256 amount) public onlyMelter returns (bool) {... */\n    tag_31:\n      tag_126\n      0x04\n      dup1\n      calldatasize\n      sub\n      0x40\n      dup2\n      lt\n      iszero\n      tag_127\n      jumpi\n      0x00\n      dup1\n      revert\n    tag_127:\n      dup2\n      add\n      swap1\n      dup1\n      dup1\n      calldataload\n      0xffffffffffffffffffffffffffffffffffffffff\n      and\n      swap1\n      0x20\n      add\n      swap1\n      swap3\n      swap2\n      swap1\n      dup1\n      calldataload\n      swap1\n      0x20\n      add\n      swap1\n      swap3\n      swap2\n      swap1\n      pop\n      pop\n      pop\n      tag_128\n      jump\t// in\n    tag_126:\n      mload(0x40)\n      dup1\n      dup3\n      iszero\n      iszero\n      dup2\n      mstore\n      0x20\n      add\n      swap2\n      pop\n      pop\n      mload(0x40)\n      dup1\n      swap2\n      sub\n      swap1\n      return\n        /* \"contracts/Token/Token.sol\":24867:24961  function setTransferFeeRate(uint256 _rate) public onlyOwner {... */\n    tag_32:\n      tag_129\n      0x04\n      dup1\n      calldatasize\n      sub\n      0x20\n      dup2\n      lt\n      iszero\n      tag_130\n      jumpi\n      0x00\n      dup1\n      revert\n    tag_130:\n      dup2\n      add\n      swap1\n      dup1\n      dup1\n      calldataload\n      swap1\n      0x20\n      add\n      swap1\n      swap3\n      swap2\n      swap1\n      pop\n      pop\n      pop\n      tag_131\n      jump\t// in\n    tag_129:\n      stop\n        /* \"contracts/Token/Token.sol\":15707:15783  function maxSupply() public view returns (uint256) {... */\n    tag_33:\n      tag_132\n      tag_133\n      jump\t// in\n    tag_132:\n      mload(0x40)\n      dup1\n      dup3\n      dup2\n      mstore\n      0x20\n      add\n      swap2\n      pop\n      pop\n      mload(0x40)\n      dup1\n      swap2\n      sub\n      swap1\n      return\n        /* \"contracts/Token/Token.sol\":13818:13921  function addToMelters(address account) public onlyMelterAdmin {... */\n    tag_34:\n      tag_134\n      0x04\n      dup1\n      calldatasize\n      sub\n      0x20\n      dup2\n      lt\n      iszero\n      tag_135\n      jumpi\n      0x00\n      dup1\n      revert\n    tag_135:\n      dup2\n      add\n      swap1\n      dup1\n      dup1\n      calldataload\n      0xffffffffffffffffffffffffffffffffffffffff\n      and\n      swap1\n      0x20\n      add\n      swap1\n      swap3\n      swap2\n      swap1\n      pop\n      pop\n      pop\n      tag_136\n      jump\t// in\n    tag_134:\n      stop\n        /* \"contracts/Token/Token.sol\":16198:16338  function allowance(address owner, address spender) public view virtual override returns (uint256) {... */\n    tag_35:\n      tag_137\n      0x04\n      dup1\n      calldatasize\n      sub\n      0x40\n      dup2\n      lt\n      iszero\n      tag_138\n      jumpi\n      0x00\n      dup1\n      revert\n    tag_138:\n      dup2\n      add\n      swap1\n      dup1\n      dup1\n      calldataload\n      0xffffffffffffffffffffffffffffffffffffffff\n      and\n      swap1\n      0x20\n      add\n      swap1\n      swap3\n      swap2\n      swap1\n      dup1\n      calldataload\n      0xffffffffffffffffffffffffffffffffffffffff\n      and\n      swap1\n      0x20\n      add\n      swap1\n      swap3\n      swap2\n      swap1\n      pop\n      pop\n      pop\n      tag_139\n      jump\t// in\n    tag_137:\n      mload(0x40)\n      dup1\n      dup3\n      dup2\n      mstore\n      0x20\n      add\n      swap2\n      pop\n      pop\n      mload(0x40)\n      dup1\n      swap2\n      sub\n      swap1\n      return\n        /* \"contracts/Token/Token.sol\":23766:24209  function transferFrozenToken(address from, address to, uint256 amount) public onlyMelter returns (bool) {... */\n    tag_36:\n      tag_140\n      0x04\n      dup1\n      calldatasize\n      sub\n      0x60\n      dup2\n      lt\n      iszero\n      tag_141\n      jumpi\n      0x00\n      dup1\n      revert\n    tag_141:\n      dup2\n      add\n      swap1\n      dup1\n      dup1\n      calldataload\n      0xffffffffffffffffffffffffffffffffffffffff\n      and\n      swap1\n      0x20\n      add\n      swap1\n      swap3\n      swap2\n      swap1\n      dup1\n      calldataload\n      0xffffffffffffffffffffffffffffffffffffffff\n      and\n      swap1\n      0x20\n      add\n      swap1\n      swap3\n      swap2\n      swap1\n      dup1\n      calldataload\n      swap1\n      0x20\n      add\n      swap1\n      swap3\n      swap2\n      swap1\n      pop\n      pop\n      pop\n      tag_142\n      jump\t// in\n    tag_140:\n      mload(0x40)\n      dup1\n      dup3\n      iszero\n      iszero\n      dup2\n      mstore\n      0x20\n      add\n      swap2\n      pop\n      pop\n      mload(0x40)\n      dup1\n      swap2\n      sub\n      swap1\n      return\n        /* \"contracts/Token/Token.sol\":12084:12303  function transferOwnership(address newOwner) public virtual onlyOwner {... */\n    tag_37:\n      tag_143\n      0x04\n      dup1\n      calldatasize\n      sub\n      0x20\n      dup2\n      lt\n      iszero\n      tag_144\n      jumpi\n      0x00\n      dup1\n      revert\n    tag_144:\n      dup2\n      add\n      swap1\n      dup1\n      dup1\n      calldataload\n      0xffffffffffffffffffffffffffffffffffffffff\n      and\n      swap1\n      0x20\n      add\n      swap1\n      swap3\n      swap2\n      swap1\n      pop\n      pop\n      pop\n      tag_145\n      jump\t// in\n    tag_143:\n      stop\n        /* \"contracts/Token/Token.sol\":15385:15457  function name() public view returns (string memory) {... */\n    tag_46:\n        /* \"contracts/Token/Token.sol\":15422:15435  string memory */\n      0x60\n        /* \"contracts/Token/Token.sol\":15448:15453  _name */\n      0x09\n        /* \"contracts/Token/Token.sol\":15441:15453  return _name */\n      dup1\n      sload\n      0x01\n      dup2\n      0x01\n      and\n      iszero\n      0x0100\n      mul\n      sub\n      and\n      0x02\n      swap1\n      div\n      dup1\n      0x1f\n      add\n      0x20\n      dup1\n      swap2\n      div\n      mul\n      0x20\n      add\n      mload(0x40)\n      swap1\n      dup2\n      add\n      0x40\n      mstore\n      dup1\n      swap3\n      swap2\n      swap1\n      dup2\n      dup2\n      mstore\n      0x20\n      add\n      dup3\n      dup1\n      sload\n      0x01\n      dup2\n      0x01\n      and\n      iszero\n      0x0100\n      mul\n      sub\n      and\n      0x02\n      swap1\n      div\n      dup1\n      iszero\n      tag_147\n      jumpi\n      dup1\n      0x1f\n      lt\n      tag_148\n      jumpi\n      0x0100\n      dup1\n      dup4\n      sload\n      div\n      mul\n      dup4\n      mstore\n      swap2\n      0x20\n      add\n      swap2\n      jump(tag_147)\n    tag_148:\n      dup3\n      add\n      swap2\n      swap1\n      0x00\n      mstore\n      keccak256(0x00, 0x20)\n      swap1\n    tag_149:\n      dup2\n      sload\n      dup2\n      mstore\n      swap1\n      0x01\n      add\n      swap1\n      0x20\n      add\n      dup1\n      dup4\n      gt\n      tag_149\n      jumpi\n      dup3\n      swap1\n      sub\n      0x1f\n      and\n      dup3\n      add\n      swap2\n    tag_147:\n      pop\n      pop\n      pop\n      pop\n      pop\n      swap1\n      pop\n        /* \"contracts/Token/Token.sol\":15385:15457  function name() public view returns (string memory) {... */\n      swap1\n      jump\t// out\n        /* \"contracts/Token/Token.sol\":16341:16492  function approve(address spender, uint256 amount) public virtual override returns (bool) {... */\n    tag_53:\n        /* \"contracts/Token/Token.sol\":16424:16428  bool */\n      0x00\n        /* \"contracts/Token/Token.sol\":16434:16473  _approve(_msgSender(), spender, amount) */\n      tag_151\n        /* \"contracts/Token/Token.sol\":16443:16455  _msgSender() */\n      tag_152\n        /* \"contracts/Token/Token.sol\":16443:16453  _msgSender */\n      tag_153\n        /* \"contracts/Token/Token.sol\":16443:16455  _msgSender() */\n      jump\t// in\n    tag_152:\n        /* \"contracts/Token/Token.sol\":16457:16464  spender */\n      dup5\n        /* \"contracts/Token/Token.sol\":16466:16472  amount */\n      dup5\n        /* \"contracts/Token/Token.sol\":16434:16442  _approve */\n      tag_154\n        /* \"contracts/Token/Token.sol\":16434:16473  _approve(_msgSender(), spender, amount) */\n      jump\t// in\n    tag_151:\n        /* \"contracts/Token/Token.sol\":16484:16488  true */\n      0x01\n        /* \"contracts/Token/Token.sol\":16477:16488  return true */\n      swap1\n      pop\n        /* \"contracts/Token/Token.sol\":16341:16492  function approve(address spender, uint256 amount) public virtual override returns (bool) {... */\n      swap3\n      swap2\n      pop\n      pop\n      jump\t// out\n        /* \"contracts/Token/Token.sol\":24219:24365  function meltTokens(address account, uint256 amount) public onlyMelter returns (bool) {... */\n    tag_56:\n        /* \"contracts/Token/Token.sol\":24299:24303  bool */\n      0x00\n        /* \"contracts/Token/Token.sol\":13328:13332  true */\n      0x01\n        /* \"contracts/Token/Token.sol\":13304:13332  _melters[msg.sender] == true */\n      iszero\n      iszero\n        /* \"contracts/Token/Token.sol\":13304:13312  _melters */\n      0x02\n        /* \"contracts/Token/Token.sol\":13304:13324  _melters[msg.sender] */\n      0x00\n        /* \"contracts/Token/Token.sol\":13313:13323  msg.sender */\n      caller\n        /* \"contracts/Token/Token.sol\":13304:13324  _melters[msg.sender] */\n      0xffffffffffffffffffffffffffffffffffffffff\n      and\n      0xffffffffffffffffffffffffffffffffffffffff\n      and\n      dup2\n      mstore\n      0x20\n      add\n      swap1\n      dup2\n      mstore\n      0x20\n      add\n      0x00\n      keccak256\n      0x00\n      swap1\n      sload\n      swap1\n      0x0100\n      exp\n      swap1\n      div\n      0xff\n      and\n        /* \"contracts/Token/Token.sol\":13304:13332  _melters[msg.sender] == true */\n      iszero\n      iszero\n      eq\n        /* \"contracts/Token/Token.sol\":13295:13355  require (_melters[msg.sender] == true, \"can't perform melt\") */\n      tag_156\n      jumpi\n      mload(0x40)\n      0x08c379a000000000000000000000000000000000000000000000000000000000\n      dup2\n      mstore\n      0x04\n      add\n      dup1\n      dup1\n      0x20\n      add\n      dup3\n      dup2\n      sub\n      dup3\n      mstore\n      0x12\n      dup2\n      mstore\n      0x20\n      add\n      dup1\n      0x63616e277420706572666f726d206d656c740000000000000000000000000000\n      dup2\n      mstore\n      pop\n      0x20\n      add\n      swap2\n      pop\n      pop\n      mload(0x40)\n      dup1\n      swap2\n      sub\n      swap1\n      revert\n    tag_156:\n        /* \"contracts/Token/Token.sol\":24315:24337  _melt(account, amount) */\n      tag_158\n        /* \"contracts/Token/Token.sol\":24321:24328  account */\n      dup4\n        /* \"contracts/Token/Token.sol\":24330:24336  amount */\n      dup4\n        /* \"contracts/Token/Token.sol\":24315:24320  _melt */\n      tag_159\n        /* \"contracts/Token/Token.sol\":24315:24337  _melt(account, amount) */\n      jump\t// in\n    tag_158:\n        /* \"contracts/Token/Token.sol\":24354:24358  true */\n      0x01\n        /* \"contracts/Token/Token.sol\":24347:24358  return true */\n      swap1\n      pop\n        /* \"contracts/Token/Token.sol\":24219:24365  function meltTokens(address account, uint256 amount) public onlyMelter returns (bool) {... */\n      swap3\n      swap2\n      pop\n      pop\n      jump\t// out\n        /* \"contracts/Token/Token.sol\":24375:24494  function destroyFrozen(address account, uint256 amount) public onlyMelter {... */\n    tag_59:\n        /* \"contracts/Token/Token.sol\":13328:13332  true */\n      0x01\n        /* \"contracts/Token/Token.sol\":13304:13332  _melters[msg.sender] == true */\n      iszero\n      iszero\n        /* \"contracts/Token/Token.sol\":13304:13312  _melters */\n      0x02\n        /* \"contracts/Token/Token.sol\":13304:13324  _melters[msg.sender] */\n      0x00\n        /* \"contracts/Token/Token.sol\":13313:13323  msg.sender */\n      caller\n        /* \"contracts/Token/Token.sol\":13304:13324  _melters[msg.sender] */\n      0xffffffffffffffffffffffffffffffffffffffff\n      and\n      0xffffffffffffffffffffffffffffffffffffffff\n      and\n      dup2\n      mstore\n      0x20\n      add\n      swap1\n      dup2\n      mstore\n      0x20\n      add\n      0x00\n      keccak256\n      0x00\n      swap1\n      sload\n      swap1\n      0x0100\n      exp\n      swap1\n      div\n      0xff\n      and\n        /* \"contracts/Token/Token.sol\":13304:13332  _melters[msg.sender] == true */\n      iszero\n      iszero\n      eq\n        /* \"contracts/Token/Token.sol\":13295:13355  require (_melters[msg.sender] == true, \"can't perform melt\") */\n      tag_161\n      jumpi\n      mload(0x40)\n      0x08c379a000000000000000000000000000000000000000000000000000000000\n      dup2\n      mstore\n      0x04\n      add\n      dup1\n      dup1\n      0x20\n      add\n      dup3\n      dup2\n      sub\n      dup3\n      mstore\n      0x12\n      dup2\n      mstore\n      0x20\n      add\n      dup1\n      0x63616e277420706572666f726d206d656c740000000000000000000000000000\n      dup2\n      mstore\n      pop\n      0x20\n      add\n      swap2\n      pop\n      pop\n      mload(0x40)\n      dup1\n      swap2\n      sub\n      swap1\n      revert\n    tag_161:\n        /* \"contracts/Token/Token.sol\":24459:24487  _burnFrozen(account, amount) */\n      tag_163\n        /* \"contracts/Token/Token.sol\":24471:24478  account */\n      dup3\n        /* \"contracts/Token/Token.sol\":24480:24486  amount */\n      dup3\n        /* \"contracts/Token/Token.sol\":24459:24470  _burnFrozen */\n      tag_164\n        /* \"contracts/Token/Token.sol\":24459:24487  _burnFrozen(account, amount) */\n      jump\t// in\n    tag_163:\n        /* \"contracts/Token/Token.sol\":24375:24494  function destroyFrozen(address account, uint256 amount) public onlyMelter {... */\n      pop\n      pop\n      jump\t// out\n        /* \"contracts/Token/Token.sol\":15614:15703  function totalSupply() public view override returns (uint256) {... */\n    tag_61:\n        /* \"contracts/Token/Token.sol\":15667:15674  uint256 */\n      0x00\n        /* \"contracts/Token/Token.sol\":15687:15699  _totalSupply */\n      sload(0x07)\n        /* \"contracts/Token/Token.sol\":15680:15699  return _totalSupply */\n      swap1\n      pop\n        /* \"contracts/Token/Token.sol\":15614:15703  function totalSupply() public view override returns (uint256) {... */\n      swap1\n      jump\t// out\n        /* \"contracts/Token/Token.sol\":14166:14381  function claimMelterAdmin() public onlyPendingMelterAdmin {... */\n    tag_63:\n        /* \"contracts/Token/Token.sol\":13445:13463  pendingMelterAdmin */\n      0x04\n      0x00\n      swap1\n      sload\n      swap1\n      0x0100\n      exp\n      swap1\n      div\n      0xffffffffffffffffffffffffffffffffffffffff\n      and\n        /* \"contracts/Token/Token.sol\":13431:13463  msg.sender == pendingMelterAdmin */\n      0xffffffffffffffffffffffffffffffffffffffff\n      and\n        /* \"contracts/Token/Token.sol\":13431:13441  msg.sender */\n      caller\n        /* \"contracts/Token/Token.sol\":13431:13463  msg.sender == pendingMelterAdmin */\n      0xffffffffffffffffffffffffffffffffffffffff\n      and\n      eq\n        /* \"contracts/Token/Token.sol\":13423:13501  require(msg.sender == pendingMelterAdmin, \"caller not a pending melter admin\") */\n      tag_167\n      jumpi\n      mload(0x40)\n      0x08c379a000000000000000000000000000000000000000000000000000000000\n      dup2\n      mstore\n      0x04\n      add\n      dup1\n      dup1\n      0x20\n      add\n      dup3\n      dup2\n      sub\n      dup3\n      mstore\n      0x21\n      dup2\n      mstore\n      0x20\n      add\n      dup1\n      data_dcdad2652796fc64e805bbf7adf0bc0a565a5d4a577f7ae44ee7ec82e235ba99\n      0x21\n      swap2\n      codecopy\n      0x40\n      add\n      swap2\n      pop\n      pop\n      mload(0x40)\n      dup1\n      swap2\n      sub\n      swap1\n      revert\n    tag_167:\n        /* \"contracts/Token/Token.sol\":14271:14289  pendingMelterAdmin */\n      0x04\n      0x00\n      swap1\n      sload\n      swap1\n      0x0100\n      exp\n      swap1\n      div\n      0xffffffffffffffffffffffffffffffffffffffff\n      and\n        /* \"contracts/Token/Token.sol\":14239:14290  MelterTransferred(_melteradmin, pendingMelterAdmin) */\n      0xffffffffffffffffffffffffffffffffffffffff\n      and\n        /* \"contracts/Token/Token.sol\":14257:14269  _melteradmin */\n      0x03\n      0x00\n      swap1\n      sload\n      swap1\n      0x0100\n      exp\n      swap1\n      div\n      0xffffffffffffffffffffffffffffffffffffffff\n      and\n        /* \"contracts/Token/Token.sol\":14239:14290  MelterTransferred(_melteradmin, pendingMelterAdmin) */\n      0xffffffffffffffffffffffffffffffffffffffff\n      and\n      0x2e564b778e0bd386914daff857c4db4480f555c393032a2f0ab2d62de42c2977\n      mload(0x40)\n      mload(0x40)\n      dup1\n      swap2\n      sub\n      swap1\n      log3\n        /* \"contracts/Token/Token.sol\":14315:14333  pendingMelterAdmin */\n      0x04\n      0x00\n      swap1\n      sload\n      swap1\n      0x0100\n      exp\n      swap1\n      div\n      0xffffffffffffffffffffffffffffffffffffffff\n      and\n        /* \"contracts/Token/Token.sol\":14300:14312  _melteradmin */\n      0x03\n      0x00\n        /* \"contracts/Token/Token.sol\":14300:14333  _melteradmin = pendingMelterAdmin */\n      0x0100\n      exp\n      dup2\n      sload\n      dup2\n      0xffffffffffffffffffffffffffffffffffffffff\n      mul\n      not\n      and\n      swap1\n      dup4\n      0xffffffffffffffffffffffffffffffffffffffff\n      and\n      mul\n      or\n      swap1\n      sstore\n      pop\n        /* \"contracts/Token/Token.sol\":14372:14373  0 */\n      0x00\n        /* \"contracts/Token/Token.sol\":14343:14361  pendingMelterAdmin */\n      0x04\n      0x00\n        /* \"contracts/Token/Token.sol\":14343:14374  pendingMelterAdmin = address(0) */\n      0x0100\n      exp\n      dup2\n      sload\n      dup2\n      0xffffffffffffffffffffffffffffffffffffffff\n      mul\n      not\n      and\n      swap1\n      dup4\n      0xffffffffffffffffffffffffffffffffffffffff\n      and\n      mul\n      or\n      swap1\n      sstore\n      pop\n        /* \"contracts/Token/Token.sol\":14166:14381  function claimMelterAdmin() public onlyPendingMelterAdmin {... */\n      jump\t// out\n        /* \"contracts/Token/Token.sol\":13927:14036  function removeFromMelters(address account) public onlyMelterAdmin {... */\n    tag_66:\n        /* \"contracts/Token/Token.sol\":13197:13209  _melteradmin */\n      0x03\n      0x00\n      swap1\n      sload\n      swap1\n      0x0100\n      exp\n      swap1\n      div\n      0xffffffffffffffffffffffffffffffffffffffff\n      and\n        /* \"contracts/Token/Token.sol\":13183:13209  msg.sender == _melteradmin */\n      0xffffffffffffffffffffffffffffffffffffffff\n      and\n        /* \"contracts/Token/Token.sol\":13183:13193  msg.sender */\n      caller\n        /* \"contracts/Token/Token.sol\":13183:13209  msg.sender == _melteradmin */\n      0xffffffffffffffffffffffffffffffffffffffff\n      and\n      eq\n        /* \"contracts/Token/Token.sol\":13174:13239  require (msg.sender == _melteradmin, \"caller not a melter admin\") */\n      tag_170\n      jumpi\n      mload(0x40)\n      0x08c379a000000000000000000000000000000000000000000000000000000000\n      dup2\n      mstore\n      0x04\n      add\n      dup1\n      dup1\n      0x20\n      add\n      dup3\n      dup2\n      sub\n      dup3\n      mstore\n      0x19\n      dup2\n      mstore\n      0x20\n      add\n      dup1\n      0x63616c6c6572206e6f742061206d656c7465722061646d696e00000000000000\n      dup2\n      mstore\n      pop\n      0x20\n      add\n      swap2\n      pop\n      pop\n      mload(0x40)\n      dup1\n      swap2\n      sub\n      swap1\n      revert\n    tag_170:\n        /* \"contracts/Token/Token.sol\":14024:14029  false */\n      0x00\n        /* \"contracts/Token/Token.sol\":14004:14012  _melters */\n      0x02\n        /* \"contracts/Token/Token.sol\":14004:14021  _melters[account] */\n      0x00\n        /* \"contracts/Token/Token.sol\":14013:14020  account */\n      dup4\n        /* \"contracts/Token/Token.sol\":14004:14021  _melters[account] */\n      0xffffffffffffffffffffffffffffffffffffffff\n      and\n      0xffffffffffffffffffffffffffffffffffffffff\n      and\n      dup2\n      mstore\n      0x20\n      add\n      swap1\n      dup2\n      mstore\n      0x20\n      add\n      0x00\n      keccak256\n      0x00\n        /* \"contracts/Token/Token.sol\":14004:14029  _melters[account] = false */\n      0x0100\n      exp\n      dup2\n      sload\n      dup2\n      0xff\n      mul\n      not\n      and\n      swap1\n      dup4\n      iszero\n      iszero\n      mul\n      or\n      swap1\n      sstore\n      pop\n        /* \"contracts/Token/Token.sol\":13927:14036  function removeFromMelters(address account) public onlyMelterAdmin {... */\n      pop\n      jump\t// out\n        /* \"contracts/Token/Token.sol\":16495:16791  function transferFrom(address sender, address recipient, uint256 amount) public virtual override returns (bool) {... */\n    tag_69:\n        /* \"contracts/Token/Token.sol\":16601:16605  bool */\n      0x00\n        /* \"contracts/Token/Token.sol\":16611:16647  _transfer(sender, recipient, amount) */\n      tag_173\n        /* \"contracts/Token/Token.sol\":16621:16627  sender */\n      dup5\n        /* \"contracts/Token/Token.sol\":16629:16638  recipient */\n      dup5\n        /* \"contracts/Token/Token.sol\":16640:16646  amount */\n      dup5\n        /* \"contracts/Token/Token.sol\":16611:16620  _transfer */\n      tag_174\n        /* \"contracts/Token/Token.sol\":16611:16647  _transfer(sender, recipient, amount) */\n      jump\t// in\n    tag_173:\n        /* \"contracts/Token/Token.sol\":16651:16772  _approve(sender, _msgSender(), _allowances[sender][_msgSender()].sub(amount, \"ERC20: transfer amount exceeds allowance\")) */\n      tag_175\n        /* \"contracts/Token/Token.sol\":16660:16666  sender */\n      dup5\n        /* \"contracts/Token/Token.sol\":16668:16680  _msgSender() */\n      tag_176\n        /* \"contracts/Token/Token.sol\":16668:16678  _msgSender */\n      tag_153\n        /* \"contracts/Token/Token.sol\":16668:16680  _msgSender() */\n      jump\t// in\n    tag_176:\n        /* \"contracts/Token/Token.sol\":16682:16771  _allowances[sender][_msgSender()].sub(amount, \"ERC20: transfer amount exceeds allowance\") */\n      tag_177\n        /* \"contracts/Token/Token.sol\":16720:16726  amount */\n      dup6\n        /* \"contracts/Token/Token.sol\":16682:16771  _allowances[sender][_msgSender()].sub(amount, \"ERC20: transfer amount exceeds allowance\") */\n      mload(0x40)\n      dup1\n      0x60\n      add\n      0x40\n      mstore\n      dup1\n      0x28\n      dup2\n      mstore\n      0x20\n      add\n      data_974d1b4421da69cc60b481194f0dad36a5bb4e23da810da7a7fb30cdba178330\n      0x28\n      swap2\n      codecopy\n        /* \"contracts/Token/Token.sol\":16682:16693  _allowances */\n      0x06\n        /* \"contracts/Token/Token.sol\":16682:16701  _allowances[sender] */\n      0x00\n        /* \"contracts/Token/Token.sol\":16694:16700  sender */\n      dup12\n        /* \"contracts/Token/Token.sol\":16682:16701  _allowances[sender] */\n      0xffffffffffffffffffffffffffffffffffffffff\n      and\n      0xffffffffffffffffffffffffffffffffffffffff\n      and\n      dup2\n      mstore\n      0x20\n      add\n      swap1\n      dup2\n      mstore\n      0x20\n      add\n      0x00\n      keccak256\n        /* \"contracts/Token/Token.sol\":16682:16715  _allowances[sender][_msgSender()] */\n      0x00\n        /* \"contracts/Token/Token.sol\":16702:16714  _msgSender() */\n      tag_178\n        /* \"contracts/Token/Token.sol\":16702:16712  _msgSender */\n      tag_153\n        /* \"contracts/Token/Token.sol\":16702:16714  _msgSender() */\n      jump\t// in\n    tag_178:\n        /* \"contracts/Token/Token.sol\":16682:16715  _allowances[sender][_msgSender()] */\n      0xffffffffffffffffffffffffffffffffffffffff\n      and\n      0xffffffffffffffffffffffffffffffffffffffff\n      and\n      dup2\n      mstore\n      0x20\n      add\n      swap1\n      dup2\n      mstore\n      0x20\n      add\n      0x00\n      keccak256\n      sload\n        /* \"contracts/Token/Token.sol\":16682:16719  _allowances[sender][_msgSender()].sub */\n      tag_179\n      swap1\n        /* \"contracts/Token/Token.sol\":16682:16771  _allowances[sender][_msgSender()].sub(amount, \"ERC20: transfer amount exceeds allowance\") */\n      swap3\n      swap2\n      swap1\n      0xffffffff\n      and\n      jump\t// in\n    tag_177:\n        /* \"contracts/Token/Token.sol\":16651:16659  _approve */\n      tag_154\n        /* \"contracts/Token/Token.sol\":16651:16772  _approve(sender, _msgSender(), _allowances[sender][_msgSender()].sub(amount, \"ERC20: transfer amount exceeds allowance\")) */\n      jump\t// in\n    tag_175:\n        /* \"contracts/Token/Token.sol\":16783:16787  true */\n      0x01\n        /* \"contracts/Token/Token.sol\":16776:16787  return true */\n      swap1\n      pop\n        /* \"contracts/Token/Token.sol\":16495:16791  function transferFrom(address sender, address recipient, uint256 amount) public virtual override returns (bool) {... */\n      swap4\n      swap3\n      pop\n      pop\n      pop\n      jump\t// out\n        /* \"contracts/Token/Token.sol\":15539:15611  function decimals() public view returns (uint8) {... */\n    tag_71:\n        /* \"contracts/Token/Token.sol\":15580:15585  uint8 */\n      0x00\n        /* \"contracts/Token/Token.sol\":15598:15607  _decimals */\n      0x0b\n      0x00\n      swap1\n      sload\n      swap1\n      0x0100\n      exp\n      swap1\n      div\n      0xff\n      and\n        /* \"contracts/Token/Token.sol\":15591:15607  return _decimals */\n      swap1\n      pop\n        /* \"contracts/Token/Token.sol\":15539:15611  function decimals() public view returns (uint8) {... */\n      swap1\n      jump\t// out\n        /* \"contracts/Token/Token.sol\":21337:21367  uint256 public transferFeeRate */\n    tag_73:\n      sload(0x0c)\n      dup2\n      jump\t// out\n        /* \"contracts/Token/Token.sol\":13723:13812  function melteradmin() public view returns (address) {... */\n    tag_75:\n        /* \"contracts/Token/Token.sol\":13767:13774  address */\n      0x00\n        /* \"contracts/Token/Token.sol\":13793:13805  _melteradmin */\n      0x03\n      0x00\n      swap1\n      sload\n      swap1\n      0x0100\n      exp\n      swap1\n      div\n      0xffffffffffffffffffffffffffffffffffffffff\n      and\n        /* \"contracts/Token/Token.sol\":13786:13805  return _melteradmin */\n      swap1\n      pop\n        /* \"contracts/Token/Token.sol\":13723:13812  function melteradmin() public view returns (address) {... */\n      swap1\n      jump\t// out\n        /* \"contracts/Token/Token.sol\":16794:16994  function increaseAllowance(address spender, uint256 addedValue) public virtual returns (bool) {... */\n    tag_78:\n        /* \"contracts/Token/Token.sol\":16882:16886  bool */\n      0x00\n        /* \"contracts/Token/Token.sol\":16892:16975  _approve(_msgSender(), spender, _allowances[_msgSender()][spender].add(addedValue)) */\n      tag_183\n        /* \"contracts/Token/Token.sol\":16901:16913  _msgSender() */\n      tag_184\n        /* \"contracts/Token/Token.sol\":16901:16911  _msgSender */\n      tag_153\n        /* \"contracts/Token/Token.sol\":16901:16913  _msgSender() */\n      jump\t// in\n    tag_184:\n        /* \"contracts/Token/Token.sol\":16915:16922  spender */\n      dup5\n        /* \"contracts/Token/Token.sol\":16924:16974  _allowances[_msgSender()][spender].add(addedValue) */\n      tag_185\n        /* \"contracts/Token/Token.sol\":16963:16973  addedValue */\n      dup6\n        /* \"contracts/Token/Token.sol\":16924:16935  _allowances */\n      0x06\n        /* \"contracts/Token/Token.sol\":16924:16949  _allowances[_msgSender()] */\n      0x00\n        /* \"contracts/Token/Token.sol\":16936:16948  _msgSender() */\n      tag_186\n        /* \"contracts/Token/Token.sol\":16936:16946  _msgSender */\n      tag_153\n        /* \"contracts/Token/Token.sol\":16936:16948  _msgSender() */\n      jump\t// in\n    tag_186:\n        /* \"contracts/Token/Token.sol\":16924:16949  _allowances[_msgSender()] */\n      0xffffffffffffffffffffffffffffffffffffffff\n      and\n      0xffffffffffffffffffffffffffffffffffffffff\n      and\n      dup2\n      mstore\n      0x20\n      add\n      swap1\n      dup2\n      mstore\n      0x20\n      add\n      0x00\n      keccak256\n        /* \"contracts/Token/Token.sol\":16924:16958  _allowances[_msgSender()][spender] */\n      0x00\n        /* \"contracts/Token/Token.sol\":16950:16957  spender */\n      dup10\n        /* \"contracts/Token/Token.sol\":16924:16958  _allowances[_msgSender()][spender] */\n      0xffffffffffffffffffffffffffffffffffffffff\n      and\n      0xffffffffffffffffffffffffffffffffffffffff\n      and\n      dup2\n      mstore\n      0x20\n      add\n      swap1\n      dup2\n      mstore\n      0x20\n      add\n      0x00\n      keccak256\n      sload\n        /* \"contracts/Token/Token.sol\":16924:16962  _allowances[_msgSender()][spender].add */\n      tag_187\n      swap1\n        /* \"contracts/Token/Token.sol\":16924:16974  _allowances[_msgSender()][spender].add(addedValue) */\n      swap2\n      swap1\n      0xffffffff\n      and\n      jump\t// in\n    tag_185:\n        /* \"contracts/Token/Token.sol\":16892:16900  _approve */\n      tag_154\n        /* \"contracts/Token/Token.sol\":16892:16975  _approve(_msgSender(), spender, _allowances[_msgSender()][spender].add(addedValue)) */\n      jump\t// in\n    tag_183:\n        /* \"contracts/Token/Token.sol\":16986:16990  true */\n      0x01\n        /* \"contracts/Token/Token.sol\":16979:16990  return true */\n      swap1\n      pop\n        /* \"contracts/Token/Token.sol\":16794:16994  function increaseAllowance(address spender, uint256 addedValue) public virtual returns (bool) {... */\n      swap3\n      swap2\n      pop\n      pop\n      jump\t// out\n        /* \"contracts/Token/Token.sol\":22742:22830  function mint(address _to, uint256 _amount) public onlyOwner {... */\n    tag_81:\n        /* \"contracts/Token/Token.sol\":11444:11456  _msgSender() */\n      tag_189\n        /* \"contracts/Token/Token.sol\":11444:11454  _msgSender */\n      tag_153\n        /* \"contracts/Token/Token.sol\":11444:11456  _msgSender() */\n      jump\t// in\n    tag_189:\n        /* \"contracts/Token/Token.sol\":11434:11456  _owner == _msgSender() */\n      0xffffffffffffffffffffffffffffffffffffffff\n      and\n        /* \"contracts/Token/Token.sol\":11434:11440  _owner */\n      0x01\n      0x00\n      swap1\n      sload\n      swap1\n      0x0100\n      exp\n      swap1\n      div\n      0xffffffffffffffffffffffffffffffffffffffff\n      and\n        /* \"contracts/Token/Token.sol\":11434:11456  _owner == _msgSender() */\n      0xffffffffffffffffffffffffffffffffffffffff\n      and\n      eq\n        /* \"contracts/Token/Token.sol\":11426:11493  require(_owner == _msgSender(), \"Ownable: caller is not the owner\") */\n      tag_190\n      jumpi\n      mload(0x40)\n      0x08c379a000000000000000000000000000000000000000000000000000000000\n      dup2\n      mstore\n      0x04\n      add\n      dup1\n      dup1\n      0x20\n      add\n      dup3\n      dup2\n      sub\n      dup3\n      mstore\n      0x20\n      dup2\n      mstore\n      0x20\n      add\n      dup1\n      0x4f776e61626c653a2063616c6c6572206973206e6f7420746865206f776e6572\n      dup2\n      mstore\n      pop\n      0x20\n      add\n      swap2\n      pop\n      pop\n      mload(0x40)\n      dup1\n      swap2\n      sub\n      swap1\n      revert\n    tag_190:\n        /* \"contracts/Token/Token.sol\":22807:22826  _mint(_to, _amount) */\n      tag_192\n        /* \"contracts/Token/Token.sol\":22813:22816  _to */\n      dup3\n        /* \"contracts/Token/Token.sol\":22818:22825  _amount */\n      dup3\n        /* \"contracts/Token/Token.sol\":22807:22812  _mint */\n      tag_193\n        /* \"contracts/Token/Token.sol\":22807:22826  _mint(_to, _amount) */\n      jump\t// in\n    tag_192:\n        /* \"contracts/Token/Token.sol\":22742:22830  function mint(address _to, uint256 _amount) public onlyOwner {... */\n      pop\n      pop\n      jump\t// out\n        /* \"contracts/Token/Token.sol\":22921:23031  function burn(uint256 amount) public virtual returns (bool) {... */\n    tag_84:\n        /* \"contracts/Token/Token.sol\":22975:22979  bool */\n      0x00\n        /* \"contracts/Token/Token.sol\":22985:23012  _burn(_msgSender(), amount) */\n      tag_195\n        /* \"contracts/Token/Token.sol\":22991:23003  _msgSender() */\n      tag_196\n        /* \"contracts/Token/Token.sol\":22991:23001  _msgSender */\n      tag_153\n        /* \"contracts/Token/Token.sol\":22991:23003  _msgSender() */\n      jump\t// in\n    tag_196:\n        /* \"contracts/Token/Token.sol\":23005:23011  amount */\n      dup4\n        /* \"contracts/Token/Token.sol\":22985:22990  _burn */\n      tag_197\n        /* \"contracts/Token/Token.sol\":22985:23012  _burn(_msgSender(), amount) */\n      jump\t// in\n    tag_195:\n        /* \"contracts/Token/Token.sol\":23023:23027  true */\n      0x01\n        /* \"contracts/Token/Token.sol\":23016:23027  return true */\n      swap1\n      pop\n        /* \"contracts/Token/Token.sol\":22921:23031  function burn(uint256 amount) public virtual returns (bool) {... */\n      swap2\n      swap1\n      pop\n      jump\t// out\n        /* \"contracts/Token/Token.sol\":14042:14160  function transferMelterAdmin(address newMelter) public onlyMelterAdmin {... */\n    tag_87:\n        /* \"contracts/Token/Token.sol\":13197:13209  _melteradmin */\n      0x03\n      0x00\n      swap1\n      sload\n      swap1\n      0x0100\n      exp\n      swap1\n      div\n      0xffffffffffffffffffffffffffffffffffffffff\n      and\n        /* \"contracts/Token/Token.sol\":13183:13209  msg.sender == _melteradmin */\n      0xffffffffffffffffffffffffffffffffffffffff\n      and\n        /* \"contracts/Token/Token.sol\":13183:13193  msg.sender */\n      caller\n        /* \"contracts/Token/Token.sol\":13183:13209  msg.sender == _melteradmin */\n      0xffffffffffffffffffffffffffffffffffffffff\n      and\n      eq\n        /* \"contracts/Token/Token.sol\":13174:13239  require (msg.sender == _melteradmin, \"caller not a melter admin\") */\n      tag_199\n      jumpi\n      mload(0x40)\n      0x08c379a000000000000000000000000000000000000000000000000000000000\n      dup2\n      mstore\n      0x04\n      add\n      dup1\n      dup1\n      0x20\n      add\n      dup3\n      dup2\n      sub\n      dup3\n      mstore\n      0x19\n      dup2\n      mstore\n      0x20\n      add\n      dup1\n      0x63616c6c6572206e6f742061206d656c7465722061646d696e00000000000000\n      dup2\n      mstore\n      pop\n      0x20\n      add\n      swap2\n      pop\n      pop\n      mload(0x40)\n      dup1\n      swap2\n      sub\n      swap1\n      revert\n    tag_199:\n        /* \"contracts/Token/Token.sol\":14144:14153  newMelter */\n      dup1\n        /* \"contracts/Token/Token.sol\":14123:14141  pendingMelterAdmin */\n      0x04\n      0x00\n        /* \"contracts/Token/Token.sol\":14123:14153  pendingMelterAdmin = newMelter */\n      0x0100\n      exp\n      dup2\n      sload\n      dup2\n      0xffffffffffffffffffffffffffffffffffffffff\n      mul\n      not\n      and\n      swap1\n      dup4\n      0xffffffffffffffffffffffffffffffffffffffff\n      and\n      mul\n      or\n      swap1\n      sstore\n      pop\n        /* \"contracts/Token/Token.sol\":14042:14160  function transferMelterAdmin(address newMelter) public onlyMelterAdmin {... */\n      pop\n      jump\t// out\n        /* \"contracts/Token/Token.sol\":13097:13130  address public pendingMelterAdmin */\n    tag_89:\n      0x04\n      0x00\n      swap1\n      sload\n      swap1\n      0x0100\n      exp\n      swap1\n      div\n      0xffffffffffffffffffffffffffffffffffffffff\n      and\n      dup2\n      jump\t// out\n        /* \"contracts/Token/Token.sol\":15895:16035  function balanceOf(address account) public view override returns (uint256) {... */\n    tag_92:\n        /* \"contracts/Token/Token.sol\":15961:15968  uint256 */\n      0x00\n        /* \"contracts/Token/Token.sol\":15981:16031  _balances[account].add(_frozen_balanceOf(account)) */\n      tag_202\n        /* \"contracts/Token/Token.sol\":16004:16030  _frozen_balanceOf(account) */\n      tag_203\n        /* \"contracts/Token/Token.sol\":16022:16029  account */\n      dup4\n        /* \"contracts/Token/Token.sol\":16004:16021  _frozen_balanceOf */\n      tag_204\n        /* \"contracts/Token/Token.sol\":16004:16030  _frozen_balanceOf(account) */\n      jump\t// in\n    tag_203:\n        /* \"contracts/Token/Token.sol\":15981:15990  _balances */\n      0x05\n        /* \"contracts/Token/Token.sol\":15981:15999  _balances[account] */\n      0x00\n        /* \"contracts/Token/Token.sol\":15991:15998  account */\n      dup6\n        /* \"contracts/Token/Token.sol\":15981:15999  _balances[account] */\n      0xffffffffffffffffffffffffffffffffffffffff\n      and\n      0xffffffffffffffffffffffffffffffffffffffff\n      and\n      dup2\n      mstore\n      0x20\n      add\n      swap1\n      dup2\n      mstore\n      0x20\n      add\n      0x00\n      keccak256\n      sload\n        /* \"contracts/Token/Token.sol\":15981:16003  _balances[account].add */\n      tag_187\n      swap1\n        /* \"contracts/Token/Token.sol\":15981:16031  _balances[account].add(_frozen_balanceOf(account)) */\n      swap2\n      swap1\n      0xffffffff\n      and\n      jump\t// in\n    tag_202:\n        /* \"contracts/Token/Token.sol\":15974:16031  return _balances[account].add(_frozen_balanceOf(account)) */\n      swap1\n      pop\n        /* \"contracts/Token/Token.sol\":15895:16035  function balanceOf(address account) public view override returns (uint256) {... */\n      swap2\n      swap1\n      pop\n      jump\t// out\n        /* \"contracts/Token/Token.sol\":11820:11950  function renounceOwnership() public virtual onlyOwner {... */\n    tag_94:\n        /* \"contracts/Token/Token.sol\":11444:11456  _msgSender() */\n      tag_206\n        /* \"contracts/Token/Token.sol\":11444:11454  _msgSender */\n      tag_153\n        /* \"contracts/Token/Token.sol\":11444:11456  _msgSender() */\n      jump\t// in\n    tag_206:\n        /* \"contracts/Token/Token.sol\":11434:11456  _owner == _msgSender() */\n      0xffffffffffffffffffffffffffffffffffffffff\n      and\n        /* \"contracts/Token/Token.sol\":11434:11440  _owner */\n      0x01\n      0x00\n      swap1\n      sload\n      swap1\n      0x0100\n      exp\n      swap1\n      div\n      0xffffffffffffffffffffffffffffffffffffffff\n      and\n        /* \"contracts/Token/Token.sol\":11434:11456  _owner == _msgSender() */\n      0xffffffffffffffffffffffffffffffffffffffff\n      and\n      eq\n        /* \"contracts/Token/Token.sol\":11426:11493  require(_owner == _msgSender(), \"Ownable: caller is not the owner\") */\n      tag_207\n      jumpi\n      mload(0x40)\n      0x08c379a000000000000000000000000000000000000000000000000000000000\n      dup2\n      mstore\n      0x04\n      add\n      dup1\n      dup1\n      0x20\n      add\n      dup3\n      dup2\n      sub\n      dup3\n      mstore\n      0x20\n      dup2\n      mstore\n      0x20\n      add\n      dup1\n      0x4f776e61626c653a2063616c6c6572206973206e6f7420746865206f776e6572\n      dup2\n      mstore\n      pop\n      0x20\n      add\n      swap2\n      pop\n      pop\n      mload(0x40)\n      dup1\n      swap2\n      sub\n      swap1\n      revert\n    tag_207:\n        /* \"contracts/Token/Token.sol\":11920:11921  0 */\n      0x00\n        /* \"contracts/Token/Token.sol\":11883:11923  OwnershipTransferred(_owner, address(0)) */\n      0xffffffffffffffffffffffffffffffffffffffff\n      and\n        /* \"contracts/Token/Token.sol\":11904:11910  _owner */\n      0x01\n      0x00\n      swap1\n      sload\n      swap1\n      0x0100\n      exp\n      swap1\n      div\n      0xffffffffffffffffffffffffffffffffffffffff\n      and\n        /* \"contracts/Token/Token.sol\":11883:11923  OwnershipTransferred(_owner, address(0)) */\n      0xffffffffffffffffffffffffffffffffffffffff\n      and\n      0x8be0079c531659141344cd1fd0a4f28419497f9722a3daafe3b4186f6b6457e0\n      mload(0x40)\n      mload(0x40)\n      dup1\n      swap2\n      sub\n      swap1\n      log3\n        /* \"contracts/Token/Token.sol\":11944:11945  0 */\n      0x00\n        /* \"contracts/Token/Token.sol\":11927:11933  _owner */\n      0x01\n      0x00\n        /* \"contracts/Token/Token.sol\":11927:11946  _owner = address(0) */\n      0x0100\n      exp\n      dup2\n      sload\n      dup2\n      0xffffffffffffffffffffffffffffffffffffffff\n      mul\n      not\n      and\n      swap1\n      dup4\n      0xffffffffffffffffffffffffffffffffffffffff\n      and\n      mul\n      or\n      swap1\n      sstore\n      pop\n        /* \"contracts/Token/Token.sol\":11820:11950  function renounceOwnership() public virtual onlyOwner {... */\n      jump\t// out\n        /* \"contracts/Token/Token.sol\":23301:23600  function burnFrom(address account, uint256 amount) public virtual returns (bool) {... */\n    tag_97:\n        /* \"contracts/Token/Token.sol\":23376:23380  bool */\n      0x00\n        /* \"contracts/Token/Token.sol\":23386:23412  uint256 decreasedAllowance */\n      dup1\n        /* \"contracts/Token/Token.sol\":23415:23499  allowance(account, _msgSender()).sub(amount, \"ERC20: burn amount exceeds allowance\") */\n      tag_210\n        /* \"contracts/Token/Token.sol\":23452:23458  amount */\n      dup4\n        /* \"contracts/Token/Token.sol\":23415:23499  allowance(account, _msgSender()).sub(amount, \"ERC20: burn amount exceeds allowance\") */\n      mload(0x40)\n      dup1\n      0x60\n      add\n      0x40\n      mstore\n      dup1\n      0x24\n      dup2\n      mstore\n      0x20\n      add\n      data_a287c363786607a1457a2d9d12fa61c0073358e02d76b4035fc2c2d86a19c0db\n      0x24\n      swap2\n      codecopy\n        /* \"contracts/Token/Token.sol\":23415:23447  allowance(account, _msgSender()) */\n      tag_211\n        /* \"contracts/Token/Token.sol\":23425:23432  account */\n      dup8\n        /* \"contracts/Token/Token.sol\":23434:23446  _msgSender() */\n      tag_212\n        /* \"contracts/Token/Token.sol\":23434:23444  _msgSender */\n      tag_153\n        /* \"contracts/Token/Token.sol\":23434:23446  _msgSender() */\n      jump\t// in\n    tag_212:\n        /* \"contracts/Token/Token.sol\":23415:23424  allowance */\n      tag_139\n        /* \"contracts/Token/Token.sol\":23415:23447  allowance(account, _msgSender()) */\n      jump\t// in\n    tag_211:\n        /* \"contracts/Token/Token.sol\":23415:23451  allowance(account, _msgSender()).sub */\n      tag_179\n      swap1\n        /* \"contracts/Token/Token.sol\":23415:23499  allowance(account, _msgSender()).sub(amount, \"ERC20: burn amount exceeds allowance\") */\n      swap3\n      swap2\n      swap1\n      0xffffffff\n      and\n      jump\t// in\n    tag_210:\n        /* \"contracts/Token/Token.sol\":23386:23499  uint256 decreasedAllowance = allowance(account, _msgSender()).sub(amount, \"ERC20: burn amount exceeds allowance\") */\n      swap1\n      pop\n        /* \"contracts/Token/Token.sol\":23504:23555  _approve(account, _msgSender(), decreasedAllowance) */\n      tag_213\n        /* \"contracts/Token/Token.sol\":23513:23520  account */\n      dup5\n        /* \"contracts/Token/Token.sol\":23522:23534  _msgSender() */\n      tag_214\n        /* \"contracts/Token/Token.sol\":23522:23532  _msgSender */\n      tag_153\n        /* \"contracts/Token/Token.sol\":23522:23534  _msgSender() */\n      jump\t// in\n    tag_214:\n        /* \"contracts/Token/Token.sol\":23536:23554  decreasedAllowance */\n      dup4\n        /* \"contracts/Token/Token.sol\":23504:23512  _approve */\n      tag_154\n        /* \"contracts/Token/Token.sol\":23504:23555  _approve(account, _msgSender(), decreasedAllowance) */\n      jump\t// in\n    tag_213:\n        /* \"contracts/Token/Token.sol\":23559:23581  _burn(account, amount) */\n      tag_215\n        /* \"contracts/Token/Token.sol\":23565:23572  account */\n      dup5\n        /* \"contracts/Token/Token.sol\":23574:23580  amount */\n      dup5\n        /* \"contracts/Token/Token.sol\":23559:23564  _burn */\n      tag_197\n        /* \"contracts/Token/Token.sol\":23559:23581  _burn(account, amount) */\n      jump\t// in\n    tag_215:\n        /* \"contracts/Token/Token.sol\":23592:23596  true */\n      0x01\n        /* \"contracts/Token/Token.sol\":23585:23596  return true */\n      swap2\n      pop\n      pop\n        /* \"contracts/Token/Token.sol\":23301:23600  function burnFrom(address account, uint256 amount) public virtual returns (bool) {... */\n      swap3\n      swap2\n      pop\n      pop\n      jump\t// out\n        /* \"contracts/Token/Token.sol\":11257:11325  function owner() public view returns (address) {... */\n    tag_99:\n        /* \"contracts/Token/Token.sol\":11295:11302  address */\n      0x00\n        /* \"contracts/Token/Token.sol\":11315:11321  _owner */\n      0x01\n      0x00\n      swap1\n      sload\n      swap1\n      0x0100\n      exp\n      swap1\n      div\n      0xffffffffffffffffffffffffffffffffffffffff\n      and\n        /* \"contracts/Token/Token.sol\":11308:11321  return _owner */\n      swap1\n      pop\n        /* \"contracts/Token/Token.sol\":11257:11325  function owner() public view returns (address) {... */\n      swap1\n      jump\t// out\n        /* \"contracts/Token/Token.sol\":24635:24767  function removeTransferBurnAddress(address _transferFeeAddress) public onlyOwner {... */\n    tag_102:\n        /* \"contracts/Token/Token.sol\":11444:11456  _msgSender() */\n      tag_218\n        /* \"contracts/Token/Token.sol\":11444:11454  _msgSender */\n      tag_153\n        /* \"contracts/Token/Token.sol\":11444:11456  _msgSender() */\n      jump\t// in\n    tag_218:\n        /* \"contracts/Token/Token.sol\":11434:11456  _owner == _msgSender() */\n      0xffffffffffffffffffffffffffffffffffffffff\n      and\n        /* \"contracts/Token/Token.sol\":11434:11440  _owner */\n      0x01\n      0x00\n      swap1\n      sload\n      swap1\n      0x0100\n      exp\n      swap1\n      div\n      0xffffffffffffffffffffffffffffffffffffffff\n      and\n        /* \"contracts/Token/Token.sol\":11434:11456  _owner == _msgSender() */\n      0xffffffffffffffffffffffffffffffffffffffff\n      and\n      eq\n        /* \"contracts/Token/Token.sol\":11426:11493  require(_owner == _msgSender(), \"Ownable: caller is not the owner\") */\n      tag_219\n      jumpi\n      mload(0x40)\n      0x08c379a000000000000000000000000000000000000000000000000000000000\n      dup2\n      mstore\n      0x04\n      add\n      dup1\n      dup1\n      0x20\n      add\n      dup3\n      dup2\n      sub\n      dup3\n      mstore\n      0x20\n      dup2\n      mstore\n      0x20\n      add\n      dup1\n      0x4f776e61626c653a2063616c6c6572206973206e6f7420746865206f776e6572\n      dup2\n      mstore\n      pop\n      0x20\n      add\n      swap2\n      pop\n      pop\n      mload(0x40)\n      dup1\n      swap2\n      sub\n      swap1\n      revert\n    tag_219:\n        /* \"contracts/Token/Token.sol\":24727:24742  _transactionFee */\n      0x0d\n        /* \"contracts/Token/Token.sol\":24727:24763  _transactionFee[_transferFeeAddress] */\n      0x00\n        /* \"contracts/Token/Token.sol\":24743:24762  _transferFeeAddress */\n      dup3\n        /* \"contracts/Token/Token.sol\":24727:24763  _transactionFee[_transferFeeAddress] */\n      0xffffffffffffffffffffffffffffffffffffffff\n      and\n      0xffffffffffffffffffffffffffffffffffffffff\n      and\n      dup2\n      mstore\n      0x20\n      add\n      swap1\n      dup2\n      mstore\n      0x20\n      add\n      0x00\n      keccak256\n      0x00\n        /* \"contracts/Token/Token.sol\":24720:24763  delete _transactionFee[_transferFeeAddress] */\n      0x0100\n      exp\n      dup2\n      sload\n      swap1\n      0xff\n      mul\n      not\n      and\n      swap1\n      sstore\n        /* \"contracts/Token/Token.sol\":24635:24767  function removeTransferBurnAddress(address _transferFeeAddress) public onlyOwner {... */\n      pop\n      jump\t// out\n        /* \"contracts/Token/Token.sol\":24504:24632  function addTransferFeeAddress(address _transferFeeAddress) public onlyOwner {... */\n    tag_105:\n        /* \"contracts/Token/Token.sol\":11444:11456  _msgSender() */\n      tag_222\n        /* \"contracts/Token/Token.sol\":11444:11454  _msgSender */\n      tag_153\n        /* \"contracts/Token/Token.sol\":11444:11456  _msgSender() */\n      jump\t// in\n    tag_222:\n        /* \"contracts/Token/Token.sol\":11434:11456  _owner == _msgSender() */\n      0xffffffffffffffffffffffffffffffffffffffff\n      and\n        /* \"contracts/Token/Token.sol\":11434:11440  _owner */\n      0x01\n      0x00\n      swap1\n      sload\n      swap1\n      0x0100\n      exp\n      swap1\n      div\n      0xffffffffffffffffffffffffffffffffffffffff\n      and\n        /* \"contracts/Token/Token.sol\":11434:11456  _owner == _msgSender() */\n      0xffffffffffffffffffffffffffffffffffffffff\n      and\n      eq\n        /* \"contracts/Token/Token.sol\":11426:11493  require(_owner == _msgSender(), \"Ownable: caller is not the owner\") */\n      tag_223\n      jumpi\n      mload(0x40)\n      0x08c379a000000000000000000000000000000000000000000000000000000000\n      dup2\n      mstore\n      0x04\n      add\n      dup1\n      dup1\n      0x20\n      add\n      dup3\n      dup2\n      sub\n      dup3\n      mstore\n      0x20\n      dup2\n      mstore\n      0x20\n      add\n      dup1\n      0x4f776e61626c653a2063616c6c6572206973206e6f7420746865206f776e6572\n      dup2\n      mstore\n      pop\n      0x20\n      add\n      swap2\n      pop\n      pop\n      mload(0x40)\n      dup1\n      swap2\n      sub\n      swap1\n      revert\n    tag_223:\n        /* \"contracts/Token/Token.sol\":24624:24628  true */\n      0x01\n        /* \"contracts/Token/Token.sol\":24585:24600  _transactionFee */\n      0x0d\n        /* \"contracts/Token/Token.sol\":24585:24621  _transactionFee[_transferFeeAddress] */\n      0x00\n        /* \"contracts/Token/Token.sol\":24601:24620  _transferFeeAddress */\n      dup4\n        /* \"contracts/Token/Token.sol\":24585:24621  _transactionFee[_transferFeeAddress] */\n      0xffffffffffffffffffffffffffffffffffffffff\n      and\n      0xffffffffffffffffffffffffffffffffffffffff\n      and\n      dup2\n      mstore\n      0x20\n      add\n      swap1\n      dup2\n      mstore\n      0x20\n      add\n      0x00\n      keccak256\n      0x00\n        /* \"contracts/Token/Token.sol\":24585:24628  _transactionFee[_transferFeeAddress] = true */\n      0x0100\n      exp\n      dup2\n      sload\n      dup2\n      0xff\n      mul\n      not\n      and\n      swap1\n      dup4\n      iszero\n      iszero\n      mul\n      or\n      swap1\n      sstore\n      pop\n        /* \"contracts/Token/Token.sol\":24504:24632  function addTransferFeeAddress(address _transferFeeAddress) public onlyOwner {... */\n      pop\n      jump\t// out\n        /* \"contracts/Token/Token.sol\":15460:15536  function symbol() public view returns (string memory) {... */\n    tag_107:\n        /* \"contracts/Token/Token.sol\":15499:15512  string memory */\n      0x60\n        /* \"contracts/Token/Token.sol\":15525:15532  _symbol */\n      0x0a\n        /* \"contracts/Token/Token.sol\":15518:15532  return _symbol */\n      dup1\n      sload\n      0x01\n      dup2\n      0x01\n      and\n      iszero\n      0x0100\n      mul\n      sub\n      and\n      0x02\n      swap1\n      div\n      dup1\n      0x1f\n      add\n      0x20\n      dup1\n      swap2\n      div\n      mul\n      0x20\n      add\n      mload(0x40)\n      swap1\n      dup2\n      add\n      0x40\n      mstore\n      dup1\n      swap3\n      swap2\n      swap1\n      dup2\n      dup2\n      mstore\n      0x20\n      add\n      dup3\n      dup1\n      sload\n      0x01\n      dup2\n      0x01\n      and\n      iszero\n      0x0100\n      mul\n      sub\n      and\n      0x02\n      swap1\n      div\n      dup1\n      iszero\n      tag_226\n      jumpi\n      dup1\n      0x1f\n      lt\n      tag_227\n      jumpi\n      0x0100\n      dup1\n      dup4\n      sload\n      div\n      mul\n      dup4\n      mstore\n      swap2\n      0x20\n      add\n      swap2\n      jump(tag_226)\n    tag_227:\n      dup3\n      add\n      swap2\n      swap1\n      0x00\n      mstore\n      keccak256(0x00, 0x20)\n      swap1\n    tag_228:\n      dup2\n      sload\n      dup2\n      mstore\n      swap1\n      0x01\n      add\n      swap1\n      0x20\n      add\n      dup1\n      dup4\n      gt\n      tag_228\n      jumpi\n      dup3\n      swap1\n      sub\n      0x1f\n      and\n      dup3\n      add\n      swap2\n    tag_226:\n      pop\n      pop\n      pop\n      pop\n      pop\n      swap1\n      pop\n        /* \"contracts/Token/Token.sol\":15460:15536  function symbol() public view returns (string memory) {... */\n      swap1\n      jump\t// out\n        /* \"contracts/Token/Token.sol\":15786:15892  function availableBalance(address account) public view returns (uint256) {... */\n    tag_114:\n        /* \"contracts/Token/Token.sol\":15850:15857  uint256 */\n      0x00\n        /* \"contracts/Token/Token.sol\":15870:15879  _balances */\n      0x05\n        /* \"contracts/Token/Token.sol\":15870:15888  _balances[account] */\n      0x00\n        /* \"contracts/Token/Token.sol\":15880:15887  account */\n      dup4\n        /* \"contracts/Token/Token.sol\":15870:15888  _balances[account] */\n      0xffffffffffffffffffffffffffffffffffffffff\n      and\n      0xffffffffffffffffffffffffffffffffffffffff\n      and\n      dup2\n      mstore\n      0x20\n      add\n      swap1\n      dup2\n      mstore\n      0x20\n      add\n      0x00\n      keccak256\n      sload\n        /* \"contracts/Token/Token.sol\":15863:15888  return _balances[account] */\n      swap1\n      pop\n        /* \"contracts/Token/Token.sol\":15786:15892  function availableBalance(address account) public view returns (uint256) {... */\n      swap2\n      swap1\n      pop\n      jump\t// out\n        /* \"contracts/Token/Token.sol\":16997:17248  function decreaseAllowance(address spender, uint256 subtractedValue) public virtual returns (bool) {... */\n    tag_117:\n        /* \"contracts/Token/Token.sol\":17090:17094  bool */\n      0x00\n        /* \"contracts/Token/Token.sol\":17100:17229  _approve(_msgSender(), spender, _allowances[_msgSender()][spender].sub(subtractedValue, \"ERC20: decreased allowance below zero\")) */\n      tag_231\n        /* \"contracts/Token/Token.sol\":17109:17121  _msgSender() */\n      tag_232\n        /* \"contracts/Token/Token.sol\":17109:17119  _msgSender */\n      tag_153\n        /* \"contracts/Token/Token.sol\":17109:17121  _msgSender() */\n      jump\t// in\n    tag_232:\n        /* \"contracts/Token/Token.sol\":17123:17130  spender */\n      dup5\n        /* \"contracts/Token/Token.sol\":17132:17228  _allowances[_msgSender()][spender].sub(subtractedValue, \"ERC20: decreased allowance below zero\") */\n      tag_233\n        /* \"contracts/Token/Token.sol\":17171:17186  subtractedValue */\n      dup6\n        /* \"contracts/Token/Token.sol\":17132:17228  _allowances[_msgSender()][spender].sub(subtractedValue, \"ERC20: decreased allowance below zero\") */\n      mload(0x40)\n      dup1\n      0x60\n      add\n      0x40\n      mstore\n      dup1\n      0x25\n      dup2\n      mstore\n      0x20\n      add\n      data_f8b476f7d28209d77d4a4ac1fe36b9f8259aa1bb6bddfa6e89de7e51615cf8a8\n      0x25\n      swap2\n      codecopy\n        /* \"contracts/Token/Token.sol\":17132:17143  _allowances */\n      0x06\n        /* \"contracts/Token/Token.sol\":17132:17157  _allowances[_msgSender()] */\n      0x00\n        /* \"contracts/Token/Token.sol\":17144:17156  _msgSender() */\n      tag_234\n        /* \"contracts/Token/Token.sol\":17144:17154  _msgSender */\n      tag_153\n        /* \"contracts/Token/Token.sol\":17144:17156  _msgSender() */\n      jump\t// in\n    tag_234:\n        /* \"contracts/Token/Token.sol\":17132:17157  _allowances[_msgSender()] */\n      0xffffffffffffffffffffffffffffffffffffffff\n      and\n      0xffffffffffffffffffffffffffffffffffffffff\n      and\n      dup2\n      mstore\n      0x20\n      add\n      swap1\n      dup2\n      mstore\n      0x20\n      add\n      0x00\n      keccak256\n        /* \"contracts/Token/Token.sol\":17132:17166  _allowances[_msgSender()][spender] */\n      0x00\n        /* \"contracts/Token/Token.sol\":17158:17165  spender */\n      dup11\n        /* \"contracts/Token/Token.sol\":17132:17166  _allowances[_msgSender()][spender] */\n      0xffffffffffffffffffffffffffffffffffffffff\n      and\n      0xffffffffffffffffffffffffffffffffffffffff\n      and\n      dup2\n      mstore\n      0x20\n      add\n      swap1\n      dup2\n      mstore\n      0x20\n      add\n      0x00\n      keccak256\n      sload\n        /* \"contracts/Token/Token.sol\":17132:17170  _allowances[_msgSender()][spender].sub */\n      tag_179\n      swap1\n        /* \"contracts/Token/Token.sol\":17132:17228  _allowances[_msgSender()][spender].sub(subtractedValue, \"ERC20: decreased allowance below zero\") */\n      swap3\n      swap2\n      swap1\n      0xffffffff\n      and\n      jump\t// in\n    tag_233:\n        /* \"contracts/Token/Token.sol\":17100:17108  _approve */\n      tag_154\n        /* \"contracts/Token/Token.sol\":17100:17229  _approve(_msgSender(), spender, _allowances[_msgSender()][spender].sub(subtractedValue, \"ERC20: decreased allowance below zero\")) */\n      jump\t// in\n    tag_231:\n        /* \"contracts/Token/Token.sol\":17240:17244  true */\n      0x01\n        /* \"contracts/Token/Token.sol\":17233:17244  return true */\n      swap1\n      pop\n        /* \"contracts/Token/Token.sol\":16997:17248  function decreaseAllowance(address spender, uint256 subtractedValue) public virtual returns (bool) {... */\n      swap3\n      swap2\n      pop\n      pop\n      jump\t// out\n        /* \"contracts/Token/Token.sol\":21312:21334  address public feeaddr */\n    tag_119:\n      0x0b\n      0x01\n      swap1\n      sload\n      swap1\n      0x0100\n      exp\n      swap1\n      div\n      0xffffffffffffffffffffffffffffffffffffffff\n      and\n      dup2\n      jump\t// out\n        /* \"contracts/Token/Token.sol\":16038:16195  function transfer(address recipient, uint256 amount) public virtual override returns (bool) {... */\n    tag_122:\n        /* \"contracts/Token/Token.sol\":16124:16128  bool */\n      0x00\n        /* \"contracts/Token/Token.sol\":16134:16176  _transfer(_msgSender(), recipient, amount) */\n      tag_236\n        /* \"contracts/Token/Token.sol\":16144:16156  _msgSender() */\n      tag_237\n        /* \"contracts/Token/Token.sol\":16144:16154  _msgSender */\n      tag_153\n        /* \"contracts/Token/Token.sol\":16144:16156  _msgSender() */\n      jump\t// in\n    tag_237:\n        /* \"contracts/Token/Token.sol\":16158:16167  recipient */\n      dup5\n        /* \"contracts/Token/Token.sol\":16169:16175  amount */\n      dup5\n        /* \"contracts/Token/Token.sol\":16134:16143  _transfer */\n      tag_174\n        /* \"contracts/Token/Token.sol\":16134:16176  _transfer(_msgSender(), recipient, amount) */\n      jump\t// in\n    tag_236:\n        /* \"contracts/Token/Token.sol\":16187:16191  true */\n      0x01\n        /* \"contracts/Token/Token.sol\":16180:16191  return true */\n      swap1\n      pop\n        /* \"contracts/Token/Token.sol\":16038:16195  function transfer(address recipient, uint256 amount) public virtual override returns (bool) {... */\n      swap3\n      swap2\n      pop\n      pop\n      jump\t// out\n        /* \"contracts/Token/Token.sol\":24773:24857  function setFeeAddr(address _feeaddr) public onlyOwner {... */\n    tag_125:\n        /* \"contracts/Token/Token.sol\":11444:11456  _msgSender() */\n      tag_239\n        /* \"contracts/Token/Token.sol\":11444:11454  _msgSender */\n      tag_153\n        /* \"contracts/Token/Token.sol\":11444:11456  _msgSender() */\n      jump\t// in\n    tag_239:\n        /* \"contracts/Token/Token.sol\":11434:11456  _owner == _msgSender() */\n      0xffffffffffffffffffffffffffffffffffffffff\n      and\n        /* \"contracts/Token/Token.sol\":11434:11440  _owner */\n      0x01\n      0x00\n      swap1\n      sload\n      swap1\n      0x0100\n      exp\n      swap1\n      div\n      0xffffffffffffffffffffffffffffffffffffffff\n      and\n        /* \"contracts/Token/Token.sol\":11434:11456  _owner == _msgSender() */\n      0xffffffffffffffffffffffffffffffffffffffff\n      and\n      eq\n        /* \"contracts/Token/Token.sol\":11426:11493  require(_owner == _msgSender(), \"Ownable: caller is not the owner\") */\n      tag_240\n      jumpi\n      mload(0x40)\n      0x08c379a000000000000000000000000000000000000000000000000000000000\n      dup2\n      mstore\n      0x04\n      add\n      dup1\n      dup1\n      0x20\n      add\n      dup3\n      dup2\n      sub\n      dup3\n      mstore\n      0x20\n      dup2\n      mstore\n      0x20\n      add\n      dup1\n      0x4f776e61626c653a2063616c6c6572206973206e6f7420746865206f776e6572\n      dup2\n      mstore\n      pop\n      0x20\n      add\n      swap2\n      pop\n      pop\n      mload(0x40)\n      dup1\n      swap2\n      sub\n      swap1\n      revert\n    tag_240:\n        /* \"contracts/Token/Token.sol\":24842:24850  _feeaddr */\n      dup1\n        /* \"contracts/Token/Token.sol\":24832:24839  feeaddr */\n      0x0b\n      0x01\n        /* \"contracts/Token/Token.sol\":24832:24850  feeaddr = _feeaddr */\n      0x0100\n      exp\n      dup2\n      sload\n      dup2\n      0xffffffffffffffffffffffffffffffffffffffff\n      mul\n      not\n      and\n      swap1\n      dup4\n      0xffffffffffffffffffffffffffffffffffffffff\n      and\n      mul\n      or\n      swap1\n      sstore\n      pop\n        /* \"contracts/Token/Token.sol\":24773:24857  function setFeeAddr(address _feeaddr) public onlyOwner {... */\n      pop\n      jump\t// out\n        /* \"contracts/Token/Token.sol\":23604:23762  function mintFrozenTokens(address account, uint256 amount) public onlyMelter returns (bool) {... */\n    tag_128:\n        /* \"contracts/Token/Token.sol\":23690:23694  bool */\n      0x00\n        /* \"contracts/Token/Token.sol\":13328:13332  true */\n      0x01\n        /* \"contracts/Token/Token.sol\":13304:13332  _melters[msg.sender] == true */\n      iszero\n      iszero\n        /* \"contracts/Token/Token.sol\":13304:13312  _melters */\n      0x02\n        /* \"contracts/Token/Token.sol\":13304:13324  _melters[msg.sender] */\n      0x00\n        /* \"contracts/Token/Token.sol\":13313:13323  msg.sender */\n      caller\n        /* \"contracts/Token/Token.sol\":13304:13324  _melters[msg.sender] */\n      0xffffffffffffffffffffffffffffffffffffffff\n      and\n      0xffffffffffffffffffffffffffffffffffffffff\n      and\n      dup2\n      mstore\n      0x20\n      add\n      swap1\n      dup2\n      mstore\n      0x20\n      add\n      0x00\n      keccak256\n      0x00\n      swap1\n      sload\n      swap1\n      0x0100\n      exp\n      swap1\n      div\n      0xff\n      and\n        /* \"contracts/Token/Token.sol\":13304:13332  _melters[msg.sender] == true */\n      iszero\n      iszero\n      eq\n        /* \"contracts/Token/Token.sol\":13295:13355  require (_melters[msg.sender] == true, \"can't perform melt\") */\n      tag_243\n      jumpi\n      mload(0x40)\n      0x08c379a000000000000000000000000000000000000000000000000000000000\n      dup2\n      mstore\n      0x04\n      add\n      dup1\n      dup1\n      0x20\n      add\n      dup3\n      dup2\n      sub\n      dup3\n      mstore\n      0x12\n      dup2\n      mstore\n      0x20\n      add\n      dup1\n      0x63616e277420706572666f726d206d656c740000000000000000000000000000\n      dup2\n      mstore\n      pop\n      0x20\n      add\n      swap2\n      pop\n      pop\n      mload(0x40)\n      dup1\n      swap2\n      sub\n      swap1\n      revert\n    tag_243:\n        /* \"contracts/Token/Token.sol\":23706:23734  _mintfrozen(account, amount) */\n      tag_245\n        /* \"contracts/Token/Token.sol\":23718:23725  account */\n      dup4\n        /* \"contracts/Token/Token.sol\":23727:23733  amount */\n      dup4\n        /* \"contracts/Token/Token.sol\":23706:23717  _mintfrozen */\n      tag_246\n        /* \"contracts/Token/Token.sol\":23706:23734  _mintfrozen(account, amount) */\n      jump\t// in\n    tag_245:\n        /* \"contracts/Token/Token.sol\":23751:23755  true */\n      0x01\n        /* \"contracts/Token/Token.sol\":23744:23755  return true */\n      swap1\n      pop\n        /* \"contracts/Token/Token.sol\":23604:23762  function mintFrozenTokens(address account, uint256 amount) public onlyMelter returns (bool) {... */\n      swap3\n      swap2\n      pop\n      pop\n      jump\t// out\n        /* \"contracts/Token/Token.sol\":24867:24961  function setTransferFeeRate(uint256 _rate) public onlyOwner {... */\n    tag_131:\n        /* \"contracts/Token/Token.sol\":11444:11456  _msgSender() */\n      tag_248\n        /* \"contracts/Token/Token.sol\":11444:11454  _msgSender */\n      tag_153\n        /* \"contracts/Token/Token.sol\":11444:11456  _msgSender() */\n      jump\t// in\n    tag_248:\n        /* \"contracts/Token/Token.sol\":11434:11456  _owner == _msgSender() */\n      0xffffffffffffffffffffffffffffffffffffffff\n      and\n        /* \"contracts/Token/Token.sol\":11434:11440  _owner */\n      0x01\n      0x00\n      swap1\n      sload\n      swap1\n      0x0100\n      exp\n      swap1\n      div\n      0xffffffffffffffffffffffffffffffffffffffff\n      and\n        /* \"contracts/Token/Token.sol\":11434:11456  _owner == _msgSender() */\n      0xffffffffffffffffffffffffffffffffffffffff\n      and\n      eq\n        /* \"contracts/Token/Token.sol\":11426:11493  require(_owner == _msgSender(), \"Ownable: caller is not the owner\") */\n      tag_249\n      jumpi\n      mload(0x40)\n      0x08c379a000000000000000000000000000000000000000000000000000000000\n      dup2\n      mstore\n      0x04\n      add\n      dup1\n      dup1\n      0x20\n      add\n      dup3\n      dup2\n      sub\n      dup3\n      mstore\n      0x20\n      dup2\n      mstore\n      0x20\n      add\n      dup1\n      0x4f776e61626c653a2063616c6c6572206973206e6f7420746865206f776e6572\n      dup2\n      mstore\n      pop\n      0x20\n      add\n      swap2\n      pop\n      pop\n      mload(0x40)\n      dup1\n      swap2\n      sub\n      swap1\n      revert\n    tag_249:\n        /* \"contracts/Token/Token.sol\":24949:24954  _rate */\n      dup1\n        /* \"contracts/Token/Token.sol\":24931:24946  transferFeeRate */\n      0x0c\n        /* \"contracts/Token/Token.sol\":24931:24954  transferFeeRate = _rate */\n      dup2\n      swap1\n      sstore\n      pop\n        /* \"contracts/Token/Token.sol\":24867:24961  function setTransferFeeRate(uint256 _rate) public onlyOwner {... */\n      pop\n      jump\t// out\n        /* \"contracts/Token/Token.sol\":15707:15783  function maxSupply() public view returns (uint256) {... */\n    tag_133:\n        /* \"contracts/Token/Token.sol\":15749:15756  uint256 */\n      0x00\n        /* \"contracts/Token/Token.sol\":15769:15779  _maxSupply */\n      sload(0x08)\n        /* \"contracts/Token/Token.sol\":15762:15779  return _maxSupply */\n      swap1\n      pop\n        /* \"contracts/Token/Token.sol\":15707:15783  function maxSupply() public view returns (uint256) {... */\n      swap1\n      jump\t// out\n        /* \"contracts/Token/Token.sol\":13818:13921  function addToMelters(address account) public onlyMelterAdmin {... */\n    tag_136:\n        /* \"contracts/Token/Token.sol\":13197:13209  _melteradmin */\n      0x03\n      0x00\n      swap1\n      sload\n      swap1\n      0x0100\n      exp\n      swap1\n      div\n      0xffffffffffffffffffffffffffffffffffffffff\n      and\n        /* \"contracts/Token/Token.sol\":13183:13209  msg.sender == _melteradmin */\n      0xffffffffffffffffffffffffffffffffffffffff\n      and\n        /* \"contracts/Token/Token.sol\":13183:13193  msg.sender */\n      caller\n        /* \"contracts/Token/Token.sol\":13183:13209  msg.sender == _melteradmin */\n      0xffffffffffffffffffffffffffffffffffffffff\n      and\n      eq\n        /* \"contracts/Token/Token.sol\":13174:13239  require (msg.sender == _melteradmin, \"caller not a melter admin\") */\n      tag_253\n      jumpi\n      mload(0x40)\n      0x08c379a000000000000000000000000000000000000000000000000000000000\n      dup2\n      mstore\n      0x04\n      add\n      dup1\n      dup1\n      0x20\n      add\n      dup3\n      dup2\n      sub\n      dup3\n      mstore\n      0x19\n      dup2\n      mstore\n      0x20\n      add\n      dup1\n      0x63616c6c6572206e6f742061206d656c7465722061646d696e00000000000000\n      dup2\n      mstore\n      pop\n      0x20\n      add\n      swap2\n      pop\n      pop\n      mload(0x40)\n      dup1\n      swap2\n      sub\n      swap1\n      revert\n    tag_253:\n        /* \"contracts/Token/Token.sol\":13910:13914  true */\n      0x01\n        /* \"contracts/Token/Token.sol\":13890:13898  _melters */\n      0x02\n        /* \"contracts/Token/Token.sol\":13890:13907  _melters[account] */\n      0x00\n        /* \"contracts/Token/Token.sol\":13899:13906  account */\n      dup4\n        /* \"contracts/Token/Token.sol\":13890:13907  _melters[account] */\n      0xffffffffffffffffffffffffffffffffffffffff\n      and\n      0xffffffffffffffffffffffffffffffffffffffff\n      and\n      dup2\n      mstore\n      0x20\n      add\n      swap1\n      dup2\n      mstore\n      0x20\n      add\n      0x00\n      keccak256\n      0x00\n        /* \"contracts/Token/Token.sol\":13890:13914  _melters[account] = true */\n      0x0100\n      exp\n      dup2\n      sload\n      dup2\n      0xff\n      mul\n      not\n      and\n      swap1\n      dup4\n      iszero\n      iszero\n      mul\n      or\n      swap1\n      sstore\n      pop\n        /* \"contracts/Token/Token.sol\":13818:13921  function addToMelters(address account) public onlyMelterAdmin {... */\n      pop\n      jump\t// out\n        /* \"contracts/Token/Token.sol\":16198:16338  function allowance(address owner, address spender) public view virtual override returns (uint256) {... */\n    tag_139:\n        /* \"contracts/Token/Token.sol\":16287:16294  uint256 */\n      0x00\n        /* \"contracts/Token/Token.sol\":16307:16318  _allowances */\n      0x06\n        /* \"contracts/Token/Token.sol\":16307:16325  _allowances[owner] */\n      0x00\n        /* \"contracts/Token/Token.sol\":16319:16324  owner */\n      dup5\n        /* \"contracts/Token/Token.sol\":16307:16325  _allowances[owner] */\n      0xffffffffffffffffffffffffffffffffffffffff\n      and\n      0xffffffffffffffffffffffffffffffffffffffff\n      and\n      dup2\n      mstore\n      0x20\n      add\n      swap1\n      dup2\n      mstore\n      0x20\n      add\n      0x00\n      keccak256\n        /* \"contracts/Token/Token.sol\":16307:16334  _allowances[owner][spender] */\n      0x00\n        /* \"contracts/Token/Token.sol\":16326:16333  spender */\n      dup4\n        /* \"contracts/Token/Token.sol\":16307:16334  _allowances[owner][spender] */\n      0xffffffffffffffffffffffffffffffffffffffff\n      and\n      0xffffffffffffffffffffffffffffffffffffffff\n      and\n      dup2\n      mstore\n      0x20\n      add\n      swap1\n      dup2\n      mstore\n      0x20\n      add\n      0x00\n      keccak256\n      sload\n        /* \"contracts/Token/Token.sol\":16300:16334  return _allowances[owner][spender] */\n      swap1\n      pop\n        /* \"contracts/Token/Token.sol\":16198:16338  function allowance(address owner, address spender) public view virtual override returns (uint256) {... */\n      swap3\n      swap2\n      pop\n      pop\n      jump\t// out\n        /* \"contracts/Token/Token.sol\":23766:24209  function transferFrozenToken(address from, address to, uint256 amount) public onlyMelter returns (bool) {... */\n    tag_142:\n        /* \"contracts/Token/Token.sol\":23864:23868  bool */\n      0x00\n        /* \"contracts/Token/Token.sol\":13328:13332  true */\n      0x01\n        /* \"contracts/Token/Token.sol\":13304:13332  _melters[msg.sender] == true */\n      iszero\n      iszero\n        /* \"contracts/Token/Token.sol\":13304:13312  _melters */\n      0x02\n        /* \"contracts/Token/Token.sol\":13304:13324  _melters[msg.sender] */\n      0x00\n        /* \"contracts/Token/Token.sol\":13313:13323  msg.sender */\n      caller\n        /* \"contracts/Token/Token.sol\":13304:13324  _melters[msg.sender] */\n      0xffffffffffffffffffffffffffffffffffffffff\n      and\n      0xffffffffffffffffffffffffffffffffffffffff\n      and\n      dup2\n      mstore\n      0x20\n      add\n      swap1\n      dup2\n      mstore\n      0x20\n      add\n      0x00\n      keccak256\n      0x00\n      swap1\n      sload\n      swap1\n      0x0100\n      exp\n      swap1\n      div\n      0xff\n      and\n        /* \"contracts/Token/Token.sol\":13304:13332  _melters[msg.sender] == true */\n      iszero\n      iszero\n      eq\n        /* \"contracts/Token/Token.sol\":13295:13355  require (_melters[msg.sender] == true, \"can't perform melt\") */\n      tag_257\n      jumpi\n      mload(0x40)\n      0x08c379a000000000000000000000000000000000000000000000000000000000\n      dup2\n      mstore\n      0x04\n      add\n      dup1\n      dup1\n      0x20\n      add\n      dup3\n      dup2\n      sub\n      dup3\n      mstore\n      0x12\n      dup2\n      mstore\n      0x20\n      add\n      dup1\n      0x63616e277420706572666f726d206d656c740000000000000000000000000000\n      dup2\n      mstore\n      pop\n      0x20\n      add\n      swap2\n      pop\n      pop\n      mload(0x40)\n      dup1\n      swap2\n      sub\n      swap1\n      revert\n    tag_257:\n        /* \"contracts/Token/Token.sol\":23904:23905  0 */\n      0x00\n        /* \"contracts/Token/Token.sol\":23888:23906  from != address(0) */\n      0xffffffffffffffffffffffffffffffffffffffff\n      and\n        /* \"contracts/Token/Token.sol\":23888:23892  from */\n      dup5\n        /* \"contracts/Token/Token.sol\":23888:23906  from != address(0) */\n      0xffffffffffffffffffffffffffffffffffffffff\n      and\n      eq\n      iszero\n        /* \"contracts/Token/Token.sol\":23880:23948  require(from != address(0), \"ERC20: transfer from the zero address\") */\n      tag_259\n      jumpi\n      mload(0x40)\n      0x08c379a000000000000000000000000000000000000000000000000000000000\n      dup2\n      mstore\n      0x04\n      add\n      dup1\n      dup1\n      0x20\n      add\n      dup3\n      dup2\n      sub\n      dup3\n      mstore\n      0x25\n      dup2\n      mstore\n      0x20\n      add\n      dup1\n      data_baecc556b46f4ed0f2b4cb599d60785ac8563dd2dc0a5bf12edea1c39e5e1fea\n      0x25\n      swap2\n      codecopy\n      0x40\n      add\n      swap2\n      pop\n      pop\n      mload(0x40)\n      dup1\n      swap2\n      sub\n      swap1\n      revert\n    tag_259:\n        /* \"contracts/Token/Token.sol\":23980:23981  0 */\n      0x00\n        /* \"contracts/Token/Token.sol\":23966:23982  to != address(0) */\n      0xffffffffffffffffffffffffffffffffffffffff\n      and\n        /* \"contracts/Token/Token.sol\":23966:23968  to */\n      dup4\n        /* \"contracts/Token/Token.sol\":23966:23982  to != address(0) */\n      0xffffffffffffffffffffffffffffffffffffffff\n      and\n      eq\n      iszero\n        /* \"contracts/Token/Token.sol\":23958:24022  require(to != address(0), \"ERC20: transfer to the zero address\") */\n      tag_260\n      jumpi\n      mload(0x40)\n      0x08c379a000000000000000000000000000000000000000000000000000000000\n      dup2\n      mstore\n      0x04\n      add\n      dup1\n      dup1\n      0x20\n      add\n      dup3\n      dup2\n      sub\n      dup3\n      mstore\n      0x23\n      dup2\n      mstore\n      0x20\n      add\n      dup1\n      data_0557e210f7a69a685100a7e4e3d0a7024c546085cee28910fd17d0b081d9516f\n      0x23\n      swap2\n      codecopy\n      0x40\n      add\n      swap2\n      pop\n      pop\n      mload(0x40)\n      dup1\n      swap2\n      sub\n      swap1\n      revert\n    tag_260:\n        /* \"contracts/Token/Token.sol\":24033:24058  _frozen_sub(from, amount) */\n      tag_261\n        /* \"contracts/Token/Token.sol\":24045:24049  from */\n      dup5\n        /* \"contracts/Token/Token.sol\":24051:24057  amount */\n      dup4\n        /* \"contracts/Token/Token.sol\":24033:24044  _frozen_sub */\n      tag_262\n        /* \"contracts/Token/Token.sol\":24033:24058  _frozen_sub(from, amount) */\n      jump\t// in\n    tag_261:\n      pop\n        /* \"contracts/Token/Token.sol\":24068:24091  _frozen_add(to, amount) */\n      tag_263\n        /* \"contracts/Token/Token.sol\":24080:24082  to */\n      dup4\n        /* \"contracts/Token/Token.sol\":24084:24090  amount */\n      dup4\n        /* \"contracts/Token/Token.sol\":24068:24079  _frozen_add */\n      tag_264\n        /* \"contracts/Token/Token.sol\":24068:24091  _frozen_add(to, amount) */\n      jump\t// in\n    tag_263:\n      pop\n        /* \"contracts/Token/Token.sol\":24128:24130  to */\n      dup3\n        /* \"contracts/Token/Token.sol\":24107:24139  FrozenTransfer(from, to, amount) */\n      0xffffffffffffffffffffffffffffffffffffffff\n      and\n        /* \"contracts/Token/Token.sol\":24122:24126  from */\n      dup5\n        /* \"contracts/Token/Token.sol\":24107:24139  FrozenTransfer(from, to, amount) */\n      0xffffffffffffffffffffffffffffffffffffffff\n      and\n      0x9958976925baa403abf86afa44976a9effff3e01931eafd0ea2689f40852fd59\n        /* \"contracts/Token/Token.sol\":24132:24138  amount */\n      dup5\n        /* \"contracts/Token/Token.sol\":24107:24139  FrozenTransfer(from, to, amount) */\n      mload(0x40)\n      dup1\n      dup3\n      dup2\n      mstore\n      0x20\n      add\n      swap2\n      pop\n      pop\n      mload(0x40)\n      dup1\n      swap2\n      sub\n      swap1\n      log3\n        /* \"contracts/Token/Token.sol\":24169:24171  to */\n      dup3\n        /* \"contracts/Token/Token.sol\":24154:24180  Transfer(from, to, amount) */\n      0xffffffffffffffffffffffffffffffffffffffff\n      and\n        /* \"contracts/Token/Token.sol\":24163:24167  from */\n      dup5\n        /* \"contracts/Token/Token.sol\":24154:24180  Transfer(from, to, amount) */\n      0xffffffffffffffffffffffffffffffffffffffff\n      and\n      0xddf252ad1be2c89b69c2b068fc378daa952ba7f163c4a11628f55a4df523b3ef\n        /* \"contracts/Token/Token.sol\":24173:24179  amount */\n      dup5\n        /* \"contracts/Token/Token.sol\":24154:24180  Transfer(from, to, amount) */\n      mload(0x40)\n      dup1\n      dup3\n      dup2\n      mstore\n      0x20\n      add\n      swap2\n      pop\n      pop\n      mload(0x40)\n      dup1\n      swap2\n      sub\n      swap1\n      log3\n        /* \"contracts/Token/Token.sol\":24198:24202  true */\n      0x01\n        /* \"contracts/Token/Token.sol\":24191:24202  return true */\n      swap1\n      pop\n        /* \"contracts/Token/Token.sol\":23766:24209  function transferFrozenToken(address from, address to, uint256 amount) public onlyMelter returns (bool) {... */\n      swap4\n      swap3\n      pop\n      pop\n      pop\n      jump\t// out\n        /* \"contracts/Token/Token.sol\":12084:12303  function transferOwnership(address newOwner) public virtual onlyOwner {... */\n    tag_145:\n        /* \"contracts/Token/Token.sol\":11444:11456  _msgSender() */\n      tag_266\n        /* \"contracts/Token/Token.sol\":11444:11454  _msgSender */\n      tag_153\n        /* \"contracts/Token/Token.sol\":11444:11456  _msgSender() */\n      jump\t// in\n    tag_266:\n        /* \"contracts/Token/Token.sol\":11434:11456  _owner == _msgSender() */\n      0xffffffffffffffffffffffffffffffffffffffff\n      and\n        /* \"contracts/Token/Token.sol\":11434:11440  _owner */\n      0x01\n      0x00\n      swap1\n      sload\n      swap1\n      0x0100\n      exp\n      swap1\n      div\n      0xffffffffffffffffffffffffffffffffffffffff\n      and\n        /* \"contracts/Token/Token.sol\":11434:11456  _owner == _msgSender() */\n      0xffffffffffffffffffffffffffffffffffffffff\n      and\n      eq\n        /* \"contracts/Token/Token.sol\":11426:11493  require(_owner == _msgSender(), \"Ownable: caller is not the owner\") */\n      tag_267\n      jumpi\n      mload(0x40)\n      0x08c379a000000000000000000000000000000000000000000000000000000000\n      dup2\n      mstore\n      0x04\n      add\n      dup1\n      dup1\n      0x20\n      add\n      dup3\n      dup2\n      sub\n      dup3\n      mstore\n      0x20\n      dup2\n      mstore\n      0x20\n      add\n      dup1\n      0x4f776e61626c653a2063616c6c6572206973206e6f7420746865206f776e6572\n      dup2\n      mstore\n      pop\n      0x20\n      add\n      swap2\n      pop\n      pop\n      mload(0x40)\n      dup1\n      swap2\n      sub\n      swap1\n      revert\n    tag_267:\n        /* \"contracts/Token/Token.sol\":12186:12187  0 */\n      0x00\n        /* \"contracts/Token/Token.sol\":12166:12188  newOwner != address(0) */\n      0xffffffffffffffffffffffffffffffffffffffff\n      and\n        /* \"contracts/Token/Token.sol\":12166:12174  newOwner */\n      dup2\n        /* \"contracts/Token/Token.sol\":12166:12188  newOwner != address(0) */\n      0xffffffffffffffffffffffffffffffffffffffff\n      and\n      eq\n      iszero\n        /* \"contracts/Token/Token.sol\":12158:12231  require(newOwner != address(0), \"Ownable: new owner is the zero address\") */\n      tag_269\n      jumpi\n      mload(0x40)\n      0x08c379a000000000000000000000000000000000000000000000000000000000\n      dup2\n      mstore\n      0x04\n      add\n      dup1\n      dup1\n      0x20\n      add\n      dup3\n      dup2\n      sub\n      dup3\n      mstore\n      0x26\n      dup2\n      mstore\n      0x20\n      add\n      dup1\n      data_245f15ff17f551913a7a18385165551503906a406f905ac1c2437281a7cd0cfe\n      0x26\n      swap2\n      codecopy\n      0x40\n      add\n      swap2\n      pop\n      pop\n      mload(0x40)\n      dup1\n      swap2\n      sub\n      swap1\n      revert\n    tag_269:\n        /* \"contracts/Token/Token.sol\":12269:12277  newOwner */\n      dup1\n        /* \"contracts/Token/Token.sol\":12240:12278  OwnershipTransferred(_owner, newOwner) */\n      0xffffffffffffffffffffffffffffffffffffffff\n      and\n        /* \"contracts/Token/Token.sol\":12261:12267  _owner */\n      0x01\n      0x00\n      swap1\n      sload\n      swap1\n      0x0100\n      exp\n      swap1\n      div\n      0xffffffffffffffffffffffffffffffffffffffff\n      and\n        /* \"contracts/Token/Token.sol\":12240:12278  OwnershipTransferred(_owner, newOwner) */\n      0xffffffffffffffffffffffffffffffffffffffff\n      and\n      0x8be0079c531659141344cd1fd0a4f28419497f9722a3daafe3b4186f6b6457e0\n      mload(0x40)\n      mload(0x40)\n      dup1\n      swap2\n      sub\n      swap1\n      log3\n        /* \"contracts/Token/Token.sol\":12291:12299  newOwner */\n      dup1\n        /* \"contracts/Token/Token.sol\":12282:12288  _owner */\n      0x01\n      0x00\n        /* \"contracts/Token/Token.sol\":12282:12299  _owner = newOwner */\n      0x0100\n      exp\n      dup2\n      sload\n      dup2\n      0xffffffffffffffffffffffffffffffffffffffff\n      mul\n      not\n      and\n      swap1\n      dup4\n      0xffffffffffffffffffffffffffffffffffffffff\n      and\n      mul\n      or\n      swap1\n      sstore\n      pop\n        /* \"contracts/Token/Token.sol\":12084:12303  function transferOwnership(address newOwner) public virtual onlyOwner {... */\n      pop\n      jump\t// out\n        /* \"contracts/Token/Token.sol\":55:150  function _msgSender() internal view virtual returns (address payable) {... */\n    tag_153:\n        /* \"contracts/Token/Token.sol\":108:123  address payable */\n      0x00\n        /* \"contracts/Token/Token.sol\":136:146  msg.sender */\n      caller\n        /* \"contracts/Token/Token.sol\":129:146  return msg.sender */\n      swap1\n      pop\n        /* \"contracts/Token/Token.sol\":55:150  function _msgSender() internal view virtual returns (address payable) {... */\n      swap1\n      jump\t// out\n        /* \"contracts/Token/Token.sol\":18465:18778  function _approve(address owner, address spender, uint256 amount) internal virtual {... */\n    tag_154:\n        /* \"contracts/Token/Token.sol\":18577:18578  0 */\n      0x00\n        /* \"contracts/Token/Token.sol\":18560:18579  owner != address(0) */\n      0xffffffffffffffffffffffffffffffffffffffff\n      and\n        /* \"contracts/Token/Token.sol\":18560:18565  owner */\n      dup4\n        /* \"contracts/Token/Token.sol\":18560:18579  owner != address(0) */\n      0xffffffffffffffffffffffffffffffffffffffff\n      and\n      eq\n      iszero\n        /* \"contracts/Token/Token.sol\":18552:18620  require(owner != address(0), \"ERC20: approve from the zero address\") */\n      tag_272\n      jumpi\n      mload(0x40)\n      0x08c379a000000000000000000000000000000000000000000000000000000000\n      dup2\n      mstore\n      0x04\n      add\n      dup1\n      dup1\n      0x20\n      add\n      dup3\n      dup2\n      sub\n      dup3\n      mstore\n      0x24\n      dup2\n      mstore\n      0x20\n      add\n      dup1\n      data_c953f4879035ed60e766b34720f656aab5c697b141d924c283124ecedb91c208\n      0x24\n      swap2\n      codecopy\n      0x40\n      add\n      swap2\n      pop\n      pop\n      mload(0x40)\n      dup1\n      swap2\n      sub\n      swap1\n      revert\n    tag_272:\n        /* \"contracts/Token/Token.sol\":18651:18652  0 */\n      0x00\n        /* \"contracts/Token/Token.sol\":18632:18653  spender != address(0) */\n      0xffffffffffffffffffffffffffffffffffffffff\n      and\n        /* \"contracts/Token/Token.sol\":18632:18639  spender */\n      dup3\n        /* \"contracts/Token/Token.sol\":18632:18653  spender != address(0) */\n      0xffffffffffffffffffffffffffffffffffffffff\n      and\n      eq\n      iszero\n        /* \"contracts/Token/Token.sol\":18624:18692  require(spender != address(0), \"ERC20: approve to the zero address\") */\n      tag_273\n      jumpi\n      mload(0x40)\n      0x08c379a000000000000000000000000000000000000000000000000000000000\n      dup2\n      mstore\n      0x04\n      add\n      dup1\n      dup1\n      0x20\n      add\n      dup3\n      dup2\n      sub\n      dup3\n      mstore\n      0x22\n      dup2\n      mstore\n      0x20\n      add\n      dup1\n      data_24883cc5fe64ace9d0df1893501ecb93c77180f0ff69cca79affb3c316dc8029\n      0x22\n      swap2\n      codecopy\n      0x40\n      add\n      swap2\n      pop\n      pop\n      mload(0x40)\n      dup1\n      swap2\n      sub\n      swap1\n      revert\n    tag_273:\n        /* \"contracts/Token/Token.sol\":18727:18733  amount */\n      dup1\n        /* \"contracts/Token/Token.sol\":18697:18708  _allowances */\n      0x06\n        /* \"contracts/Token/Token.sol\":18697:18715  _allowances[owner] */\n      0x00\n        /* \"contracts/Token/Token.sol\":18709:18714  owner */\n      dup6\n        /* \"contracts/Token/Token.sol\":18697:18715  _allowances[owner] */\n      0xffffffffffffffffffffffffffffffffffffffff\n      and\n      0xffffffffffffffffffffffffffffffffffffffff\n      and\n      dup2\n      mstore\n      0x20\n      add\n      swap1\n      dup2\n      mstore\n      0x20\n      add\n      0x00\n      keccak256\n        /* \"contracts/Token/Token.sol\":18697:18724  _allowances[owner][spender] */\n      0x00\n        /* \"contracts/Token/Token.sol\":18716:18723  spender */\n      dup5\n        /* \"contracts/Token/Token.sol\":18697:18724  _allowances[owner][spender] */\n      0xffffffffffffffffffffffffffffffffffffffff\n      and\n      0xffffffffffffffffffffffffffffffffffffffff\n      and\n      dup2\n      mstore\n      0x20\n      add\n      swap1\n      dup2\n      mstore\n      0x20\n      add\n      0x00\n      keccak256\n        /* \"contracts/Token/Token.sol\":18697:18733  _allowances[owner][spender] = amount */\n      dup2\n      swap1\n      sstore\n      pop\n        /* \"contracts/Token/Token.sol\":18758:18765  spender */\n      dup2\n        /* \"contracts/Token/Token.sol\":18742:18774  Approval(owner, spender, amount) */\n      0xffffffffffffffffffffffffffffffffffffffff\n      and\n        /* \"contracts/Token/Token.sol\":18751:18756  owner */\n      dup4\n        /* \"contracts/Token/Token.sol\":18742:18774  Approval(owner, spender, amount) */\n      0xffffffffffffffffffffffffffffffffffffffff\n      and\n      0x8c5be1e5ebec7d5bd14f71427d1e84f3dd0314c0f7b2291e5b200ac8c7c3b925\n        /* \"contracts/Token/Token.sol\":18767:18773  amount */\n      dup4\n        /* \"contracts/Token/Token.sol\":18742:18774  Approval(owner, spender, amount) */\n      mload(0x40)\n      dup1\n      dup3\n      dup2\n      mstore\n      0x20\n      add\n      swap2\n      pop\n      pop\n      mload(0x40)\n      dup1\n      swap2\n      sub\n      swap1\n      log3\n        /* \"contracts/Token/Token.sol\":18465:18778  function _approve(address owner, address spender, uint256 amount) internal virtual {... */\n      pop\n      pop\n      pop\n      jump\t// out\n        /* \"contracts/Token/Token.sol\":20024:20561  function _melt(address account, uint256 amount) internal {... */\n    tag_159:\n        /* \"contracts/Token/Token.sol\":20118:20119  0 */\n      0x00\n        /* \"contracts/Token/Token.sol\":20099:20120  account != address(0) */\n      0xffffffffffffffffffffffffffffffffffffffff\n      and\n        /* \"contracts/Token/Token.sol\":20099:20106  account */\n      dup3\n        /* \"contracts/Token/Token.sol\":20099:20120  account != address(0) */\n      0xffffffffffffffffffffffffffffffffffffffff\n      and\n      eq\n      iszero\n        /* \"contracts/Token/Token.sol\":20091:20158  require(account != address(0), \"ERC20: melt from the zero address\") */\n      tag_275\n      jumpi\n      mload(0x40)\n      0x08c379a000000000000000000000000000000000000000000000000000000000\n      dup2\n      mstore\n      0x04\n      add\n      dup1\n      dup1\n      0x20\n      add\n      dup3\n      dup2\n      sub\n      dup3\n      mstore\n      0x21\n      dup2\n      mstore\n      0x20\n      add\n      dup1\n      data_ae19d5a04ea56a14e1c0edb4dc7bdb92df00299e61ae2aaa6c13d35ea071495b\n      0x21\n      swap2\n      codecopy\n      0x40\n      add\n      swap2\n      pop\n      pop\n      mload(0x40)\n      dup1\n      swap2\n      sub\n      swap1\n      revert\n    tag_275:\n        /* \"contracts/Token/Token.sol\":20185:20186  0 */\n      0x00\n        /* \"contracts/Token/Token.sol\":20176:20182  amount */\n      dup2\n        /* \"contracts/Token/Token.sol\":20176:20186  amount > 0 */\n      gt\n        /* \"contracts/Token/Token.sol\":20168:20240  require(amount > 0, \"ERC20: melt from the address: value should be > 0\") */\n      tag_276\n      jumpi\n      mload(0x40)\n      0x08c379a000000000000000000000000000000000000000000000000000000000\n      dup2\n      mstore\n      0x04\n      add\n      dup1\n      dup1\n      0x20\n      add\n      dup3\n      dup2\n      sub\n      dup3\n      mstore\n      0x31\n      dup2\n      mstore\n      0x20\n      add\n      dup1\n      data_5b7675e6fbaaaa420cafac78b556823238257a970a02bf57ab4957860eac80bc\n      0x31\n      swap2\n      codecopy\n      0x40\n      add\n      swap2\n      pop\n      pop\n      mload(0x40)\n      dup1\n      swap2\n      sub\n      swap1\n      revert\n    tag_276:\n        /* \"contracts/Token/Token.sol\":20288:20294  amount */\n      dup1\n        /* \"contracts/Token/Token.sol\":20258:20284  _frozen_balanceOf(account) */\n      tag_277\n        /* \"contracts/Token/Token.sol\":20276:20283  account */\n      dup4\n        /* \"contracts/Token/Token.sol\":20258:20275  _frozen_balanceOf */\n      tag_204\n        /* \"contracts/Token/Token.sol\":20258:20284  _frozen_balanceOf(account) */\n      jump\t// in\n    tag_277:\n        /* \"contracts/Token/Token.sol\":20258:20294  _frozen_balanceOf(account) >= amount */\n      lt\n      iszero\n        /* \"contracts/Token/Token.sol\":20250:20345  require(_frozen_balanceOf(account) >= amount, \"ERC20: melt from the address: balance < amount\") */\n      tag_278\n      jumpi\n      mload(0x40)\n      0x08c379a000000000000000000000000000000000000000000000000000000000\n      dup2\n      mstore\n      0x04\n      add\n      dup1\n      dup1\n      0x20\n      add\n      dup3\n      dup2\n      sub\n      dup3\n      mstore\n      0x2e\n      dup2\n      mstore\n      0x20\n      add\n      dup1\n      data_083eca151a4ced7bf5544a897b9e8b3e2620a9b6dc6feb44e1e78751a86936c5\n      0x2e\n      swap2\n      codecopy\n      0x40\n      add\n      swap2\n      pop\n      pop\n      mload(0x40)\n      dup1\n      swap2\n      sub\n      swap1\n      revert\n    tag_278:\n        /* \"contracts/Token/Token.sol\":20356:20384  _frozen_sub(account, amount) */\n      tag_279\n        /* \"contracts/Token/Token.sol\":20368:20375  account */\n      dup3\n        /* \"contracts/Token/Token.sol\":20377:20383  amount */\n      dup3\n        /* \"contracts/Token/Token.sol\":20356:20367  _frozen_sub */\n      tag_262\n        /* \"contracts/Token/Token.sol\":20356:20384  _frozen_sub(account, amount) */\n      jump\t// in\n    tag_279:\n      pop\n        /* \"contracts/Token/Token.sol\":20410:20417  account */\n      dup2\n        /* \"contracts/Token/Token.sol\":20399:20426  MeltFrozen(account, amount) */\n      0xffffffffffffffffffffffffffffffffffffffff\n      and\n      0x36a0b989202af25b5d49a593a1dd43461453ef93a93a7846ea3dbb487e119800\n        /* \"contracts/Token/Token.sol\":20419:20425  amount */\n      dup3\n        /* \"contracts/Token/Token.sol\":20399:20426  MeltFrozen(account, amount) */\n      mload(0x40)\n      dup1\n      dup3\n      dup2\n      mstore\n      0x20\n      add\n      swap2\n      pop\n      pop\n      mload(0x40)\n      dup1\n      swap2\n      sub\n      swap1\n      log2\n        /* \"contracts/Token/Token.sol\":20466:20496  _balances[account].add(amount) */\n      tag_280\n        /* \"contracts/Token/Token.sol\":20489:20495  amount */\n      dup2\n        /* \"contracts/Token/Token.sol\":20466:20475  _balances */\n      0x05\n        /* \"contracts/Token/Token.sol\":20466:20484  _balances[account] */\n      0x00\n        /* \"contracts/Token/Token.sol\":20476:20483  account */\n      dup6\n        /* \"contracts/Token/Token.sol\":20466:20484  _balances[account] */\n      0xffffffffffffffffffffffffffffffffffffffff\n      and\n      0xffffffffffffffffffffffffffffffffffffffff\n      and\n      dup2\n      mstore\n      0x20\n      add\n      swap1\n      dup2\n      mstore\n      0x20\n      add\n      0x00\n      keccak256\n      sload\n        /* \"contracts/Token/Token.sol\":20466:20488  _balances[account].add */\n      tag_187\n      swap1\n        /* \"contracts/Token/Token.sol\":20466:20496  _balances[account].add(amount) */\n      swap2\n      swap1\n      0xffffffff\n      and\n      jump\t// in\n    tag_280:\n        /* \"contracts/Token/Token.sol\":20445:20454  _balances */\n      0x05\n        /* \"contracts/Token/Token.sol\":20445:20463  _balances[account] */\n      0x00\n        /* \"contracts/Token/Token.sol\":20455:20462  account */\n      dup5\n        /* \"contracts/Token/Token.sol\":20445:20463  _balances[account] */\n      0xffffffffffffffffffffffffffffffffffffffff\n      and\n      0xffffffffffffffffffffffffffffffffffffffff\n      and\n      dup2\n      mstore\n      0x20\n      add\n      swap1\n      dup2\n      mstore\n      0x20\n      add\n      0x00\n      keccak256\n        /* \"contracts/Token/Token.sol\":20445:20496  _balances[account] = _balances[account].add(amount) */\n      dup2\n      swap1\n      sstore\n      pop\n        /* \"contracts/Token/Token.sol\":20024:20561  function _melt(address account, uint256 amount) internal {... */\n      pop\n      pop\n      jump\t// out\n        /* \"contracts/Token/Token.sol\":20571:20869  function _burnFrozen(address account, uint256 amount) internal {... */\n    tag_164:\n        /* \"contracts/Token/Token.sol\":20671:20672  0 */\n      0x00\n        /* \"contracts/Token/Token.sol\":20652:20673  account != address(0) */\n      0xffffffffffffffffffffffffffffffffffffffff\n      and\n        /* \"contracts/Token/Token.sol\":20652:20659  account */\n      dup3\n        /* \"contracts/Token/Token.sol\":20652:20673  account != address(0) */\n      0xffffffffffffffffffffffffffffffffffffffff\n      and\n      eq\n      iszero\n        /* \"contracts/Token/Token.sol\":20644:20718  require(account != address(0), \"ERC20: frozen burn from the zero address\") */\n      tag_282\n      jumpi\n      mload(0x40)\n      0x08c379a000000000000000000000000000000000000000000000000000000000\n      dup2\n      mstore\n      0x04\n      add\n      dup1\n      dup1\n      0x20\n      add\n      dup3\n      dup2\n      sub\n      dup3\n      mstore\n      0x28\n      dup2\n      mstore\n      0x20\n      add\n      dup1\n      data_b7b21078a467b814181da2d09cb3afdeca16ec86fc8c1496bf091b24158c0663\n      0x28\n      swap2\n      codecopy\n      0x40\n      add\n      swap2\n      pop\n      pop\n      mload(0x40)\n      dup1\n      swap2\n      sub\n      swap1\n      revert\n    tag_282:\n        /* \"contracts/Token/Token.sol\":20744:20768  _totalSupply.sub(amount) */\n      tag_283\n        /* \"contracts/Token/Token.sol\":20761:20767  amount */\n      dup2\n        /* \"contracts/Token/Token.sol\":20744:20756  _totalSupply */\n      sload(0x07)\n        /* \"contracts/Token/Token.sol\":20744:20760  _totalSupply.sub */\n      tag_284\n      swap1\n        /* \"contracts/Token/Token.sol\":20744:20768  _totalSupply.sub(amount) */\n      swap2\n      swap1\n      0xffffffff\n      and\n      jump\t// in\n    tag_283:\n        /* \"contracts/Token/Token.sol\":20729:20741  _totalSupply */\n      0x07\n        /* \"contracts/Token/Token.sol\":20729:20768  _totalSupply = _totalSupply.sub(amount) */\n      dup2\n      swap1\n      sstore\n      pop\n        /* \"contracts/Token/Token.sol\":20778:20806  _frozen_sub(account, amount) */\n      tag_285\n        /* \"contracts/Token/Token.sol\":20790:20797  account */\n      dup3\n        /* \"contracts/Token/Token.sol\":20799:20805  amount */\n      dup3\n        /* \"contracts/Token/Token.sol\":20778:20789  _frozen_sub */\n      tag_262\n        /* \"contracts/Token/Token.sol\":20778:20806  _frozen_sub(account, amount) */\n      jump\t// in\n    tag_285:\n      pop\n        /* \"contracts/Token/Token.sol\":20848:20852  this */\n      address\n        /* \"contracts/Token/Token.sol\":20822:20862  Transfer(account, address(this), amount) */\n      0xffffffffffffffffffffffffffffffffffffffff\n      and\n        /* \"contracts/Token/Token.sol\":20831:20838  account */\n      dup3\n        /* \"contracts/Token/Token.sol\":20822:20862  Transfer(account, address(this), amount) */\n      0xffffffffffffffffffffffffffffffffffffffff\n      and\n      0xddf252ad1be2c89b69c2b068fc378daa952ba7f163c4a11628f55a4df523b3ef\n        /* \"contracts/Token/Token.sol\":20855:20861  amount */\n      dup4\n        /* \"contracts/Token/Token.sol\":20822:20862  Transfer(account, address(this), amount) */\n      mload(0x40)\n      dup1\n      dup3\n      dup2\n      mstore\n      0x20\n      add\n      swap2\n      pop\n      pop\n      mload(0x40)\n      dup1\n      swap2\n      sub\n      swap1\n      log3\n        /* \"contracts/Token/Token.sol\":20571:20869  function _burnFrozen(address account, uint256 amount) internal {... */\n      pop\n      pop\n      jump\t// out\n        /* \"contracts/Token/Token.sol\":22210:22645  function _transfer(address sender, address recipient, uint256 amount) internal virtual override {... */\n    tag_174:\n        /* \"contracts/Token/Token.sol\":22335:22336  0 */\n      0x00\n        /* \"contracts/Token/Token.sol\":22317:22332  transferFeeRate */\n      sload(0x0c)\n        /* \"contracts/Token/Token.sol\":22317:22336  transferFeeRate > 0 */\n      gt\n        /* \"contracts/Token/Token.sol\":22317:22374  transferFeeRate > 0 && _transactionFee[recipient] == true */\n      dup1\n      iszero\n      tag_287\n      jumpi\n      pop\n        /* \"contracts/Token/Token.sol\":22370:22374  true */\n      0x01\n        /* \"contracts/Token/Token.sol\":22340:22374  _transactionFee[recipient] == true */\n      iszero\n      iszero\n        /* \"contracts/Token/Token.sol\":22340:22355  _transactionFee */\n      0x0d\n        /* \"contracts/Token/Token.sol\":22340:22366  _transactionFee[recipient] */\n      0x00\n        /* \"contracts/Token/Token.sol\":22356:22365  recipient */\n      dup5\n        /* \"contracts/Token/Token.sol\":22340:22366  _transactionFee[recipient] */\n      0xffffffffffffffffffffffffffffffffffffffff\n      and\n      0xffffffffffffffffffffffffffffffffffffffff\n      and\n      dup2\n      mstore\n      0x20\n      add\n      swap1\n      dup2\n      mstore\n      0x20\n      add\n      0x00\n      keccak256\n      0x00\n      swap1\n      sload\n      swap1\n      0x0100\n      exp\n      swap1\n      div\n      0xff\n      and\n        /* \"contracts/Token/Token.sol\":22340:22374  _transactionFee[recipient] == true */\n      iszero\n      iszero\n      eq\n        /* \"contracts/Token/Token.sol\":22317:22374  transferFeeRate > 0 && _transactionFee[recipient] == true */\n    tag_287:\n        /* \"contracts/Token/Token.sol\":22317:22401  transferFeeRate > 0 && _transactionFee[recipient] == true && recipient != address(0) */\n      dup1\n      iszero\n      tag_288\n      jumpi\n      pop\n        /* \"contracts/Token/Token.sol\":22399:22400  0 */\n      0x00\n        /* \"contracts/Token/Token.sol\":22378:22401  recipient != address(0) */\n      0xffffffffffffffffffffffffffffffffffffffff\n      and\n        /* \"contracts/Token/Token.sol\":22378:22387  recipient */\n      dup3\n        /* \"contracts/Token/Token.sol\":22378:22401  recipient != address(0) */\n      0xffffffffffffffffffffffffffffffffffffffff\n      and\n      eq\n      iszero\n        /* \"contracts/Token/Token.sol\":22317:22401  transferFeeRate > 0 && _transactionFee[recipient] == true && recipient != address(0) */\n    tag_288:\n        /* \"contracts/Token/Token.sol\":22317:22426  transferFeeRate > 0 && _transactionFee[recipient] == true && recipient != address(0) && feeaddr != address(0) */\n      dup1\n      iszero\n      tag_289\n      jumpi\n      pop\n        /* \"contracts/Token/Token.sol\":22424:22425  0 */\n      0x00\n        /* \"contracts/Token/Token.sol\":22405:22426  feeaddr != address(0) */\n      0xffffffffffffffffffffffffffffffffffffffff\n      and\n        /* \"contracts/Token/Token.sol\":22405:22412  feeaddr */\n      0x0b\n      0x01\n      swap1\n      sload\n      swap1\n      0x0100\n      exp\n      swap1\n      div\n      0xffffffffffffffffffffffffffffffffffffffff\n      and\n        /* \"contracts/Token/Token.sol\":22405:22426  feeaddr != address(0) */\n      0xffffffffffffffffffffffffffffffffffffffff\n      and\n      eq\n      iszero\n        /* \"contracts/Token/Token.sol\":22317:22426  transferFeeRate > 0 && _transactionFee[recipient] == true && recipient != address(0) && feeaddr != address(0) */\n    tag_289:\n        /* \"contracts/Token/Token.sol\":22313:22595  if (transferFeeRate > 0 && _transactionFee[recipient] == true && recipient != address(0) && feeaddr != address(0)) {... */\n      iszero\n      tag_290\n      jumpi\n        /* \"contracts/Token/Token.sol\":22433:22451  uint256 _feeamount */\n      0x00\n        /* \"contracts/Token/Token.sol\":22454:22490  amount.mul(transferFeeRate).div(100) */\n      tag_291\n        /* \"contracts/Token/Token.sol\":22486:22489  100 */\n      0x64\n        /* \"contracts/Token/Token.sol\":22454:22481  amount.mul(transferFeeRate) */\n      tag_292\n        /* \"contracts/Token/Token.sol\":22465:22480  transferFeeRate */\n      sload(0x0c)\n        /* \"contracts/Token/Token.sol\":22454:22460  amount */\n      dup6\n        /* \"contracts/Token/Token.sol\":22454:22464  amount.mul */\n      tag_293\n      swap1\n        /* \"contracts/Token/Token.sol\":22454:22481  amount.mul(transferFeeRate) */\n      swap2\n      swap1\n      0xffffffff\n      and\n      jump\t// in\n    tag_292:\n        /* \"contracts/Token/Token.sol\":22454:22485  amount.mul(transferFeeRate).div */\n      tag_294\n      swap1\n        /* \"contracts/Token/Token.sol\":22454:22490  amount.mul(transferFeeRate).div(100) */\n      swap2\n      swap1\n      0xffffffff\n      and\n      jump\t// in\n    tag_291:\n        /* \"contracts/Token/Token.sol\":22433:22490  uint256 _feeamount = amount.mul(transferFeeRate).div(100) */\n      swap1\n      pop\n        /* \"contracts/Token/Token.sol\":22495:22539  super._transfer(sender, feeaddr, _feeamount) */\n      tag_295\n        /* \"contracts/Token/Token.sol\":22511:22517  sender */\n      dup5\n        /* \"contracts/Token/Token.sol\":22519:22526  feeaddr */\n      0x0b\n      0x01\n      swap1\n      sload\n      swap1\n      0x0100\n      exp\n      swap1\n      div\n      0xffffffffffffffffffffffffffffffffffffffff\n      and\n        /* \"contracts/Token/Token.sol\":22528:22538  _feeamount */\n      dup4\n        /* \"contracts/Token/Token.sol\":22495:22510  super._transfer */\n      tag_296\n        /* \"contracts/Token/Token.sol\":22495:22539  super._transfer(sender, feeaddr, _feeamount) */\n      jump\t// in\n    tag_295:\n        /* \"contracts/Token/Token.sol\":22568:22590  amount.sub(_feeamount) */\n      tag_297\n        /* \"contracts/Token/Token.sol\":22579:22589  _feeamount */\n      dup2\n        /* \"contracts/Token/Token.sol\":22568:22574  amount */\n      dup4\n        /* \"contracts/Token/Token.sol\":22568:22578  amount.sub */\n      tag_284\n      swap1\n        /* \"contracts/Token/Token.sol\":22568:22590  amount.sub(_feeamount) */\n      swap2\n      swap1\n      0xffffffff\n      and\n      jump\t// in\n    tag_297:\n        /* \"contracts/Token/Token.sol\":22559:22590  amount = amount.sub(_feeamount) */\n      swap2\n      pop\n        /* \"contracts/Token/Token.sol\":22313:22595  if (transferFeeRate > 0 && _transactionFee[recipient] == true && recipient != address(0) && feeaddr != address(0)) {... */\n      pop\n    tag_290:\n        /* \"contracts/Token/Token.sol\":22599:22641  super._transfer(sender, recipient, amount) */\n      tag_298\n        /* \"contracts/Token/Token.sol\":22615:22621  sender */\n      dup4\n        /* \"contracts/Token/Token.sol\":22623:22632  recipient */\n      dup4\n        /* \"contracts/Token/Token.sol\":22634:22640  amount */\n      dup4\n        /* \"contracts/Token/Token.sol\":22599:22614  super._transfer */\n      tag_296\n        /* \"contracts/Token/Token.sol\":22599:22641  super._transfer(sender, recipient, amount) */\n      jump\t// in\n    tag_298:\n        /* \"contracts/Token/Token.sol\":22210:22645  function _transfer(address sender, address recipient, uint256 amount) internal virtual override {... */\n      pop\n      pop\n      pop\n      jump\t// out\n        /* \"contracts/Token/Token.sol\":2247:2412  function sub(uint256 a, uint256 b, string memory errorMessage) internal pure returns (uint256) {... */\n    tag_179:\n        /* \"contracts/Token/Token.sol\":2333:2340  uint256 */\n      0x00\n        /* \"contracts/Token/Token.sol\":2359:2360  a */\n      dup4\n        /* \"contracts/Token/Token.sol\":2354:2355  b */\n      dup4\n        /* \"contracts/Token/Token.sol\":2354:2360  b <= a */\n      gt\n      iszero\n        /* \"contracts/Token/Token.sol\":2362:2374  errorMessage */\n      dup3\n        /* \"contracts/Token/Token.sol\":2346:2375  require(b <= a, errorMessage) */\n      swap1\n      tag_300\n      jumpi\n      mload(0x40)\n      0x08c379a000000000000000000000000000000000000000000000000000000000\n      dup2\n      mstore\n      0x04\n      add\n      dup1\n      dup1\n      0x20\n      add\n      dup3\n      dup2\n      sub\n      dup3\n      mstore\n      dup4\n      dup2\n      dup2\n      mload\n      dup2\n      mstore\n      0x20\n      add\n      swap2\n      pop\n      dup1\n      mload\n      swap1\n      0x20\n      add\n      swap1\n      dup1\n      dup4\n      dup4\n      0x00\n    tag_301:\n      dup4\n      dup2\n      lt\n      iszero\n      tag_303\n      jumpi\n      dup1\n      dup3\n      add\n      mload\n      dup2\n      dup5\n      add\n      mstore\n      0x20\n      dup2\n      add\n      swap1\n      pop\n      jump(tag_301)\n    tag_303:\n      pop\n      pop\n      pop\n      pop\n      swap1\n      pop\n      swap1\n      dup2\n      add\n      swap1\n      0x1f\n      and\n      dup1\n      iszero\n      tag_304\n      jumpi\n      dup1\n      dup3\n      sub\n      dup1\n      mload\n      0x01\n      dup4\n      0x20\n      sub\n      0x0100\n      exp\n      sub\n      not\n      and\n      dup2\n      mstore\n      0x20\n      add\n      swap2\n      pop\n    tag_304:\n      pop\n      swap3\n      pop\n      pop\n      pop\n      mload(0x40)\n      dup1\n      swap2\n      sub\n      swap1\n      revert\n    tag_300:\n      pop\n        /* \"contracts/Token/Token.sol\":2379:2388  uint256 c */\n      0x00\n        /* \"contracts/Token/Token.sol\":2395:2396  b */\n      dup4\n        /* \"contracts/Token/Token.sol\":2391:2392  a */\n      dup6\n        /* \"contracts/Token/Token.sol\":2391:2396  a - b */\n      sub\n        /* \"contracts/Token/Token.sol\":2379:2396  uint256 c = a - b */\n      swap1\n      pop\n        /* \"contracts/Token/Token.sol\":2407:2408  c */\n      dup1\n        /* \"contracts/Token/Token.sol\":2400:2408  return c */\n      swap2\n      pop\n      pop\n        /* \"contracts/Token/Token.sol\":2247:2412  function sub(uint256 a, uint256 b, string memory errorMessage) internal pure returns (uint256) {... */\n      swap4\n      swap3\n      pop\n      pop\n      pop\n      jump\t// out\n        /* \"contracts/Token/Token.sol\":1471:1626  function add(uint256 a, uint256 b) internal pure returns (uint256) {... */\n    tag_187:\n        /* \"contracts/Token/Token.sol\":1529:1536  uint256 */\n      0x00\n        /* \"contracts/Token/Token.sol\":1542:1551  uint256 c */\n      dup1\n        /* \"contracts/Token/Token.sol\":1558:1559  b */\n      dup3\n        /* \"contracts/Token/Token.sol\":1554:1555  a */\n      dup5\n        /* \"contracts/Token/Token.sol\":1554:1559  a + b */\n      add\n        /* \"contracts/Token/Token.sol\":1542:1559  uint256 c = a + b */\n      swap1\n      pop\n        /* \"contracts/Token/Token.sol\":1576:1577  a */\n      dup4\n        /* \"contracts/Token/Token.sol\":1571:1572  c */\n      dup2\n        /* \"contracts/Token/Token.sol\":1571:1577  c >= a */\n      lt\n      iszero\n        /* \"contracts/Token/Token.sol\":1563:1609  require(c >= a, \"SafeMath: addition overflow\") */\n      tag_306\n      jumpi\n      mload(0x40)\n      0x08c379a000000000000000000000000000000000000000000000000000000000\n      dup2\n      mstore\n      0x04\n      add\n      dup1\n      dup1\n      0x20\n      add\n      dup3\n      dup2\n      sub\n      dup3\n      mstore\n      0x1b\n      dup2\n      mstore\n      0x20\n      add\n      dup1\n      0x536166654d6174683a206164646974696f6e206f766572666c6f770000000000\n      dup2\n      mstore\n      pop\n      0x20\n      add\n      swap2\n      pop\n      pop\n      mload(0x40)\n      dup1\n      swap2\n      sub\n      swap1\n      revert\n    tag_306:\n        /* \"contracts/Token/Token.sol\":1621:1622  c */\n      dup1\n        /* \"contracts/Token/Token.sol\":1614:1622  return c */\n      swap2\n      pop\n      pop\n        /* \"contracts/Token/Token.sol\":1471:1626  function add(uint256 a, uint256 b) internal pure returns (uint256) {... */\n      swap3\n      swap2\n      pop\n      pop\n      jump\t// out\n        /* \"contracts/Token/Token.sol\":17745:18082  function _mint(address account, uint256 amount) internal virtual {... */\n    tag_193:\n        /* \"contracts/Token/Token.sol\":17841:17842  0 */\n      0x00\n        /* \"contracts/Token/Token.sol\":17822:17843  account != address(0) */\n      0xffffffffffffffffffffffffffffffffffffffff\n      and\n        /* \"contracts/Token/Token.sol\":17822:17829  account */\n      dup3\n        /* \"contracts/Token/Token.sol\":17822:17843  account != address(0) */\n      0xffffffffffffffffffffffffffffffffffffffff\n      and\n      eq\n      iszero\n        /* \"contracts/Token/Token.sol\":17814:17879  require(account != address(0), \"ERC20: mint to the zero address\") */\n      tag_308\n      jumpi\n      mload(0x40)\n      0x08c379a000000000000000000000000000000000000000000000000000000000\n      dup2\n      mstore\n      0x04\n      add\n      dup1\n      dup1\n      0x20\n      add\n      dup3\n      dup2\n      sub\n      dup3\n      mstore\n      0x1f\n      dup2\n      mstore\n      0x20\n      add\n      dup1\n      0x45524332303a206d696e7420746f20746865207a65726f206164647265737300\n      dup2\n      mstore\n      pop\n      0x20\n      add\n      swap2\n      pop\n      pop\n      mload(0x40)\n      dup1\n      swap2\n      sub\n      swap1\n      revert\n    tag_308:\n        /* \"contracts/Token/Token.sol\":17884:17933  _beforeTokenTransfer(address(0), account, amount) */\n      tag_309\n        /* \"contracts/Token/Token.sol\":17913:17914  0 */\n      0x00\n        /* \"contracts/Token/Token.sol\":17917:17924  account */\n      dup4\n        /* \"contracts/Token/Token.sol\":17926:17932  amount */\n      dup4\n        /* \"contracts/Token/Token.sol\":17884:17904  _beforeTokenTransfer */\n      tag_310\n        /* \"contracts/Token/Token.sol\":17884:17933  _beforeTokenTransfer(address(0), account, amount) */\n      jump\t// in\n    tag_309:\n        /* \"contracts/Token/Token.sol\":17953:17977  _totalSupply.add(amount) */\n      tag_311\n        /* \"contracts/Token/Token.sol\":17970:17976  amount */\n      dup2\n        /* \"contracts/Token/Token.sol\":17953:17965  _totalSupply */\n      sload(0x07)\n        /* \"contracts/Token/Token.sol\":17953:17969  _totalSupply.add */\n      tag_187\n      swap1\n        /* \"contracts/Token/Token.sol\":17953:17977  _totalSupply.add(amount) */\n      swap2\n      swap1\n      0xffffffff\n      and\n      jump\t// in\n    tag_311:\n        /* \"contracts/Token/Token.sol\":17938:17950  _totalSupply */\n      0x07\n        /* \"contracts/Token/Token.sol\":17938:17977  _totalSupply = _totalSupply.add(amount) */\n      dup2\n      swap1\n      sstore\n      pop\n        /* \"contracts/Token/Token.sol\":18002:18032  _balances[account].add(amount) */\n      tag_312\n        /* \"contracts/Token/Token.sol\":18025:18031  amount */\n      dup2\n        /* \"contracts/Token/Token.sol\":18002:18011  _balances */\n      0x05\n        /* \"contracts/Token/Token.sol\":18002:18020  _balances[account] */\n      0x00\n        /* \"contracts/Token/Token.sol\":18012:18019  account */\n      dup6\n        /* \"contracts/Token/Token.sol\":18002:18020  _balances[account] */\n      0xffffffffffffffffffffffffffffffffffffffff\n      and\n      0xffffffffffffffffffffffffffffffffffffffff\n      and\n      dup2\n      mstore\n      0x20\n      add\n      swap1\n      dup2\n      mstore\n      0x20\n      add\n      0x00\n      keccak256\n      sload\n        /* \"contracts/Token/Token.sol\":18002:18024  _balances[account].add */\n      tag_187\n      swap1\n        /* \"contracts/Token/Token.sol\":18002:18032  _balances[account].add(amount) */\n      swap2\n      swap1\n      0xffffffff\n      and\n      jump\t// in\n    tag_312:\n        /* \"contracts/Token/Token.sol\":17981:17990  _balances */\n      0x05\n        /* \"contracts/Token/Token.sol\":17981:17999  _balances[account] */\n      0x00\n        /* \"contracts/Token/Token.sol\":17991:17998  account */\n      dup5\n        /* \"contracts/Token/Token.sol\":17981:17999  _balances[account] */\n      0xffffffffffffffffffffffffffffffffffffffff\n      and\n      0xffffffffffffffffffffffffffffffffffffffff\n      and\n      dup2\n      mstore\n      0x20\n      add\n      swap1\n      dup2\n      mstore\n      0x20\n      add\n      0x00\n      keccak256\n        /* \"contracts/Token/Token.sol\":17981:18032  _balances[account] = _balances[account].add(amount) */\n      dup2\n      swap1\n      sstore\n      pop\n        /* \"contracts/Token/Token.sol\":18062:18069  account */\n      dup2\n        /* \"contracts/Token/Token.sol\":18041:18078  Transfer(address(0), account, amount) */\n      0xffffffffffffffffffffffffffffffffffffffff\n      and\n        /* \"contracts/Token/Token.sol\":18058:18059  0 */\n      0x00\n        /* \"contracts/Token/Token.sol\":18041:18078  Transfer(address(0), account, amount) */\n      0xffffffffffffffffffffffffffffffffffffffff\n      and\n      0xddf252ad1be2c89b69c2b068fc378daa952ba7f163c4a11628f55a4df523b3ef\n        /* \"contracts/Token/Token.sol\":18071:18077  amount */\n      dup4\n        /* \"contracts/Token/Token.sol\":18041:18078  Transfer(address(0), account, amount) */\n      mload(0x40)\n      dup1\n      dup3\n      dup2\n      mstore\n      0x20\n      add\n      swap2\n      pop\n      pop\n      mload(0x40)\n      dup1\n      swap2\n      sub\n      swap1\n      log3\n        /* \"contracts/Token/Token.sol\":17745:18082  function _mint(address account, uint256 amount) internal virtual {... */\n      pop\n      pop\n      jump\t// out\n        /* \"contracts/Token/Token.sol\":18085:18462  function _burn(address account, uint256 amount) internal virtual {... */\n    tag_197:\n        /* \"contracts/Token/Token.sol\":18181:18182  0 */\n      0x00\n        /* \"contracts/Token/Token.sol\":18162:18183  account != address(0) */\n      0xffffffffffffffffffffffffffffffffffffffff\n      and\n        /* \"contracts/Token/Token.sol\":18162:18169  account */\n      dup3\n        /* \"contracts/Token/Token.sol\":18162:18183  account != address(0) */\n      0xffffffffffffffffffffffffffffffffffffffff\n      and\n      eq\n      iszero\n        /* \"contracts/Token/Token.sol\":18154:18221  require(account != address(0), \"ERC20: burn from the zero address\") */\n      tag_314\n      jumpi\n      mload(0x40)\n      0x08c379a000000000000000000000000000000000000000000000000000000000\n      dup2\n      mstore\n      0x04\n      add\n      dup1\n      dup1\n      0x20\n      add\n      dup3\n      dup2\n      sub\n      dup3\n      mstore\n      0x21\n      dup2\n      mstore\n      0x20\n      add\n      dup1\n      data_b16788493b576042bb52c50ed56189e0b250db113c7bfb1c3897d25cf9632d7f\n      0x21\n      swap2\n      codecopy\n      0x40\n      add\n      swap2\n      pop\n      pop\n      mload(0x40)\n      dup1\n      swap2\n      sub\n      swap1\n      revert\n    tag_314:\n        /* \"contracts/Token/Token.sol\":18226:18275  _beforeTokenTransfer(account, address(0), amount) */\n      tag_315\n        /* \"contracts/Token/Token.sol\":18247:18254  account */\n      dup3\n        /* \"contracts/Token/Token.sol\":18264:18265  0 */\n      0x00\n        /* \"contracts/Token/Token.sol\":18268:18274  amount */\n      dup4\n        /* \"contracts/Token/Token.sol\":18226:18246  _beforeTokenTransfer */\n      tag_310\n        /* \"contracts/Token/Token.sol\":18226:18275  _beforeTokenTransfer(account, address(0), amount) */\n      jump\t// in\n    tag_315:\n        /* \"contracts/Token/Token.sol\":18301:18369  _balances[account].sub(amount, \"ERC20: burn amount exceeds balance\") */\n      tag_316\n        /* \"contracts/Token/Token.sol\":18324:18330  amount */\n      dup2\n        /* \"contracts/Token/Token.sol\":18301:18369  _balances[account].sub(amount, \"ERC20: burn amount exceeds balance\") */\n      mload(0x40)\n      dup1\n      0x60\n      add\n      0x40\n      mstore\n      dup1\n      0x22\n      dup2\n      mstore\n      0x20\n      add\n      data_149b126e7125232b4200af45303d04fba8b74653b1a295a6a561a528c33fefdd\n      0x22\n      swap2\n      codecopy\n        /* \"contracts/Token/Token.sol\":18301:18310  _balances */\n      0x05\n        /* \"contracts/Token/Token.sol\":18301:18319  _balances[account] */\n      0x00\n        /* \"contracts/Token/Token.sol\":18311:18318  account */\n      dup7\n        /* \"contracts/Token/Token.sol\":18301:18319  _balances[account] */\n      0xffffffffffffffffffffffffffffffffffffffff\n      and\n      0xffffffffffffffffffffffffffffffffffffffff\n      and\n      dup2\n      mstore\n      0x20\n      add\n      swap1\n      dup2\n      mstore\n      0x20\n      add\n      0x00\n      keccak256\n      sload\n        /* \"contracts/Token/Token.sol\":18301:18323  _balances[account].sub */\n      tag_179\n      swap1\n        /* \"contracts/Token/Token.sol\":18301:18369  _balances[account].sub(amount, \"ERC20: burn amount exceeds balance\") */\n      swap3\n      swap2\n      swap1\n      0xffffffff\n      and\n      jump\t// in\n    tag_316:\n        /* \"contracts/Token/Token.sol\":18280:18289  _balances */\n      0x05\n        /* \"contracts/Token/Token.sol\":18280:18298  _balances[account] */\n      0x00\n        /* \"contracts/Token/Token.sol\":18290:18297  account */\n      dup5\n        /* \"contracts/Token/Token.sol\":18280:18298  _balances[account] */\n      0xffffffffffffffffffffffffffffffffffffffff\n      and\n      0xffffffffffffffffffffffffffffffffffffffff\n      and\n      dup2\n      mstore\n      0x20\n      add\n      swap1\n      dup2\n      mstore\n      0x20\n      add\n      0x00\n      keccak256\n        /* \"contracts/Token/Token.sol\":18280:18369  _balances[account] = _balances[account].sub(amount, \"ERC20: burn amount exceeds balance\") */\n      dup2\n      swap1\n      sstore\n      pop\n        /* \"contracts/Token/Token.sol\":18388:18412  _totalSupply.sub(amount) */\n      tag_317\n        /* \"contracts/Token/Token.sol\":18405:18411  amount */\n      dup2\n        /* \"contracts/Token/Token.sol\":18388:18400  _totalSupply */\n      sload(0x07)\n        /* \"contracts/Token/Token.sol\":18388:18404  _totalSupply.sub */\n      tag_284\n      swap1\n        /* \"contracts/Token/Token.sol\":18388:18412  _totalSupply.sub(amount) */\n      swap2\n      swap1\n      0xffffffff\n      and\n      jump\t// in\n    tag_317:\n        /* \"contracts/Token/Token.sol\":18373:18385  _totalSupply */\n      0x07\n        /* \"contracts/Token/Token.sol\":18373:18412  _totalSupply = _totalSupply.sub(amount) */\n      dup2\n      swap1\n      sstore\n      pop\n        /* \"contracts/Token/Token.sol\":18447:18448  0 */\n      0x00\n        /* \"contracts/Token/Token.sol\":18421:18458  Transfer(account, address(0), amount) */\n      0xffffffffffffffffffffffffffffffffffffffff\n      and\n        /* \"contracts/Token/Token.sol\":18430:18437  account */\n      dup3\n        /* \"contracts/Token/Token.sol\":18421:18458  Transfer(account, address(0), amount) */\n      0xffffffffffffffffffffffffffffffffffffffff\n      and\n      0xddf252ad1be2c89b69c2b068fc378daa952ba7f163c4a11628f55a4df523b3ef\n        /* \"contracts/Token/Token.sol\":18451:18457  amount */\n      dup4\n        /* \"contracts/Token/Token.sol\":18421:18458  Transfer(account, address(0), amount) */\n      mload(0x40)\n      dup1\n      dup3\n      dup2\n      mstore\n      0x20\n      add\n      swap2\n      pop\n      pop\n      mload(0x40)\n      dup1\n      swap2\n      sub\n      swap1\n      log3\n        /* \"contracts/Token/Token.sol\":18085:18462  function _burn(address account, uint256 amount) internal virtual {... */\n      pop\n      pop\n      jump\t// out\n        /* \"contracts/Token/Token.sol\":12840:12963  function _frozen_balanceOf(address _account) internal view returns (uint) {... */\n    tag_204:\n        /* \"contracts/Token/Token.sol\":12908:12912  uint */\n      0x00\n        /* \"contracts/Token/Token.sol\":12931:12946  frozen_balances */\n      dup1\n        /* \"contracts/Token/Token.sol\":12931:12956  frozen_balances[_account] */\n      0x00\n        /* \"contracts/Token/Token.sol\":12947:12955  _account */\n      dup4\n        /* \"contracts/Token/Token.sol\":12931:12956  frozen_balances[_account] */\n      0xffffffffffffffffffffffffffffffffffffffff\n      and\n      0xffffffffffffffffffffffffffffffffffffffff\n      and\n      dup2\n      mstore\n      0x20\n      add\n      swap1\n      dup2\n      mstore\n      0x20\n      add\n      0x00\n      keccak256\n      sload\n        /* \"contracts/Token/Token.sol\":12924:12956  return frozen_balances[_account] */\n      swap1\n      pop\n        /* \"contracts/Token/Token.sol\":12840:12963  function _frozen_balanceOf(address _account) internal view returns (uint) {... */\n      swap2\n      swap1\n      pop\n      jump\t// out\n        /* \"contracts/Token/Token.sol\":19042:19636  function _mintfrozen(address account, uint256 amount) internal {... */\n    tag_246:\n        /* \"contracts/Token/Token.sol\":19142:19143  0 */\n      0x00\n        /* \"contracts/Token/Token.sol\":19123:19144  account != address(0) */\n      0xffffffffffffffffffffffffffffffffffffffff\n      and\n        /* \"contracts/Token/Token.sol\":19123:19130  account */\n      dup3\n        /* \"contracts/Token/Token.sol\":19123:19144  account != address(0) */\n      0xffffffffffffffffffffffffffffffffffffffff\n      and\n      eq\n      iszero\n        /* \"contracts/Token/Token.sol\":19115:19187  require(account != address(0), \"ERC20: mint frozen to the zero address\") */\n      tag_320\n      jumpi\n      mload(0x40)\n      0x08c379a000000000000000000000000000000000000000000000000000000000\n      dup2\n      mstore\n      0x04\n      add\n      dup1\n      dup1\n      0x20\n      add\n      dup3\n      dup2\n      sub\n      dup3\n      mstore\n      0x26\n      dup2\n      mstore\n      0x20\n      add\n      dup1\n      data_1c85aa0d8454e1548e88ea9f2bb8a0c43a1bd6e50657077b5d1b08b8d2a4db7b\n      0x26\n      swap2\n      codecopy\n      0x40\n      add\n      swap2\n      pop\n      pop\n      mload(0x40)\n      dup1\n      swap2\n      sub\n      swap1\n      revert\n    tag_320:\n        /* \"contracts/Token/Token.sol\":19224:19228  this */\n      address\n        /* \"contracts/Token/Token.sol\":19205:19229  account != address(this) */\n      0xffffffffffffffffffffffffffffffffffffffff\n      and\n        /* \"contracts/Token/Token.sol\":19205:19212  account */\n      dup3\n        /* \"contracts/Token/Token.sol\":19205:19229  account != address(this) */\n      0xffffffffffffffffffffffffffffffffffffffff\n      and\n      eq\n      iszero\n        /* \"contracts/Token/Token.sol\":19197:19276  require(account != address(this), \"ERC20: mint frozen to the contract address\") */\n      tag_321\n      jumpi\n      mload(0x40)\n      0x08c379a000000000000000000000000000000000000000000000000000000000\n      dup2\n      mstore\n      0x04\n      add\n      dup1\n      dup1\n      0x20\n      add\n      dup3\n      dup2\n      sub\n      dup3\n      mstore\n      0x2a\n      dup2\n      mstore\n      0x20\n      add\n      dup1\n      data_25a82e711965e24b472dea6cec5774ce13441ffeaf1c79cde67f510141497dff\n      0x2a\n      swap2\n      codecopy\n      0x40\n      add\n      swap2\n      pop\n      pop\n      mload(0x40)\n      dup1\n      swap2\n      sub\n      swap1\n      revert\n    tag_321:\n        /* \"contracts/Token/Token.sol\":19303:19304  0 */\n      0x00\n        /* \"contracts/Token/Token.sol\":19294:19300  amount */\n      dup2\n        /* \"contracts/Token/Token.sol\":19294:19304  amount > 0 */\n      gt\n        /* \"contracts/Token/Token.sol\":19286:19348  require(amount > 0, \"ERC20: mint frozen amount should be > 0\") */\n      tag_322\n      jumpi\n      mload(0x40)\n      0x08c379a000000000000000000000000000000000000000000000000000000000\n      dup2\n      mstore\n      0x04\n      add\n      dup1\n      dup1\n      0x20\n      add\n      dup3\n      dup2\n      sub\n      dup3\n      mstore\n      0x27\n      dup2\n      mstore\n      0x20\n      add\n      dup1\n      data_631213ea213f1c5b9a2a47b03459ea7035848ced11625b3e078a63e304817988\n      0x27\n      swap2\n      codecopy\n      0x40\n      add\n      swap2\n      pop\n      pop\n      mload(0x40)\n      dup1\n      swap2\n      sub\n      swap1\n      revert\n    tag_322:\n        /* \"contracts/Token/Token.sol\":19394:19404  _maxSupply */\n      sload(0x08)\n        /* \"contracts/Token/Token.sol\":19366:19390  _totalSupply.add(amount) */\n      tag_323\n        /* \"contracts/Token/Token.sol\":19383:19389  amount */\n      dup3\n        /* \"contracts/Token/Token.sol\":19366:19378  _totalSupply */\n      sload(0x07)\n        /* \"contracts/Token/Token.sol\":19366:19382  _totalSupply.add */\n      tag_187\n      swap1\n        /* \"contracts/Token/Token.sol\":19366:19390  _totalSupply.add(amount) */\n      swap2\n      swap1\n      0xffffffff\n      and\n      jump\t// in\n    tag_323:\n        /* \"contracts/Token/Token.sol\":19366:19404  _totalSupply.add(amount) <= _maxSupply */\n      gt\n      iszero\n        /* \"contracts/Token/Token.sol\":19358:19441  require(_totalSupply.add(amount) <= _maxSupply, \"ERC20Capped: max supply exceeded\") */\n      tag_324\n      jumpi\n      mload(0x40)\n      0x08c379a000000000000000000000000000000000000000000000000000000000\n      dup2\n      mstore\n      0x04\n      add\n      dup1\n      dup1\n      0x20\n      add\n      dup3\n      dup2\n      sub\n      dup3\n      mstore\n      0x20\n      dup2\n      mstore\n      0x20\n      add\n      dup1\n      0x45524332304361707065643a206d617820737570706c79206578636565646564\n      dup2\n      mstore\n      pop\n      0x20\n      add\n      swap2\n      pop\n      pop\n      mload(0x40)\n      dup1\n      swap2\n      sub\n      swap1\n      revert\n    tag_324:\n        /* \"contracts/Token/Token.sol\":19467:19491  _totalSupply.add(amount) */\n      tag_325\n        /* \"contracts/Token/Token.sol\":19484:19490  amount */\n      dup2\n        /* \"contracts/Token/Token.sol\":19467:19479  _totalSupply */\n      sload(0x07)\n        /* \"contracts/Token/Token.sol\":19467:19483  _totalSupply.add */\n      tag_187\n      swap1\n        /* \"contracts/Token/Token.sol\":19467:19491  _totalSupply.add(amount) */\n      swap2\n      swap1\n      0xffffffff\n      and\n      jump\t// in\n    tag_325:\n        /* \"contracts/Token/Token.sol\":19452:19464  _totalSupply */\n      0x07\n        /* \"contracts/Token/Token.sol\":19452:19491  _totalSupply = _totalSupply.add(amount) */\n      dup2\n      swap1\n      sstore\n      pop\n        /* \"contracts/Token/Token.sol\":19531:19538  account */\n      dup2\n        /* \"contracts/Token/Token.sol\":19507:19547  Transfer(address(this), account, amount) */\n      0xffffffffffffffffffffffffffffffffffffffff\n      and\n        /* \"contracts/Token/Token.sol\":19524:19528  this */\n      address\n        /* \"contracts/Token/Token.sol\":19507:19547  Transfer(address(this), account, amount) */\n      0xffffffffffffffffffffffffffffffffffffffff\n      and\n      0xddf252ad1be2c89b69c2b068fc378daa952ba7f163c4a11628f55a4df523b3ef\n        /* \"contracts/Token/Token.sol\":19540:19546  amount */\n      dup4\n        /* \"contracts/Token/Token.sol\":19507:19547  Transfer(address(this), account, amount) */\n      mload(0x40)\n      dup1\n      dup3\n      dup2\n      mstore\n      0x20\n      add\n      swap2\n      pop\n      pop\n      mload(0x40)\n      dup1\n      swap2\n      sub\n      swap1\n      log3\n        /* \"contracts/Token/Token.sol\":19558:19586  _frozen_add(account, amount) */\n      tag_326\n        /* \"contracts/Token/Token.sol\":19570:19577  account */\n      dup3\n        /* \"contracts/Token/Token.sol\":19579:19585  amount */\n      dup3\n        /* \"contracts/Token/Token.sol\":19558:19569  _frozen_add */\n      tag_264\n        /* \"contracts/Token/Token.sol\":19558:19586  _frozen_add(account, amount) */\n      jump\t// in\n    tag_326:\n      pop\n        /* \"contracts/Token/Token.sol\":19613:19620  account */\n      dup2\n        /* \"contracts/Token/Token.sol\":19602:19629  MintFrozen(account, amount) */\n      0xffffffffffffffffffffffffffffffffffffffff\n      and\n      0xba89ad6709373f454c31524e8c39cef3cdd4b0e8cfde0ccddbd419a2e488be6b\n        /* \"contracts/Token/Token.sol\":19622:19628  amount */\n      dup3\n        /* \"contracts/Token/Token.sol\":19602:19629  MintFrozen(account, amount) */\n      mload(0x40)\n      dup1\n      dup3\n      dup2\n      mstore\n      0x20\n      add\n      swap2\n      pop\n      pop\n      mload(0x40)\n      dup1\n      swap2\n      sub\n      swap1\n      log2\n        /* \"contracts/Token/Token.sol\":19042:19636  function _mintfrozen(address account, uint256 amount) internal {... */\n      pop\n      pop\n      jump\t// out\n        /* \"contracts/Token/Token.sol\":12650:12834  function _frozen_sub(address _account, uint256 _amount) internal returns (bool) {... */\n    tag_262:\n        /* \"contracts/Token/Token.sol\":12724:12728  bool */\n      0x00\n        /* \"contracts/Token/Token.sol\":12768:12806  frozen_balances[_account].sub(_amount) */\n      tag_328\n        /* \"contracts/Token/Token.sol\":12798:12805  _amount */\n      dup3\n        /* \"contracts/Token/Token.sol\":12768:12783  frozen_balances */\n      0x00\n        /* \"contracts/Token/Token.sol\":12768:12793  frozen_balances[_account] */\n      dup1\n        /* \"contracts/Token/Token.sol\":12784:12792  _account */\n      dup7\n        /* \"contracts/Token/Token.sol\":12768:12793  frozen_balances[_account] */\n      0xffffffffffffffffffffffffffffffffffffffff\n      and\n      0xffffffffffffffffffffffffffffffffffffffff\n      and\n      dup2\n      mstore\n      0x20\n      add\n      swap1\n      dup2\n      mstore\n      0x20\n      add\n      0x00\n      keccak256\n      sload\n        /* \"contracts/Token/Token.sol\":12768:12797  frozen_balances[_account].sub */\n      tag_284\n      swap1\n        /* \"contracts/Token/Token.sol\":12768:12806  frozen_balances[_account].sub(_amount) */\n      swap2\n      swap1\n      0xffffffff\n      and\n      jump\t// in\n    tag_328:\n        /* \"contracts/Token/Token.sol\":12740:12755  frozen_balances */\n      0x00\n        /* \"contracts/Token/Token.sol\":12740:12765  frozen_balances[_account] */\n      dup1\n        /* \"contracts/Token/Token.sol\":12756:12764  _account */\n      dup6\n        /* \"contracts/Token/Token.sol\":12740:12765  frozen_balances[_account] */\n      0xffffffffffffffffffffffffffffffffffffffff\n      and\n      0xffffffffffffffffffffffffffffffffffffffff\n      and\n      dup2\n      mstore\n      0x20\n      add\n      swap1\n      dup2\n      mstore\n      0x20\n      add\n      0x00\n      keccak256\n        /* \"contracts/Token/Token.sol\":12740:12806  frozen_balances[_account] = frozen_balances[_account].sub(_amount) */\n      dup2\n      swap1\n      sstore\n      pop\n        /* \"contracts/Token/Token.sol\":12823:12827  true */\n      0x01\n        /* \"contracts/Token/Token.sol\":12816:12827  return true */\n      swap1\n      pop\n        /* \"contracts/Token/Token.sol\":12650:12834  function _frozen_sub(address _account, uint256 _amount) internal returns (bool) {... */\n      swap3\n      swap2\n      pop\n      pop\n      jump\t// out\n        /* \"contracts/Token/Token.sol\":12460:12644  function _frozen_add(address _account, uint256 _amount) internal returns (bool) {... */\n    tag_264:\n        /* \"contracts/Token/Token.sol\":12534:12538  bool */\n      0x00\n        /* \"contracts/Token/Token.sol\":12578:12616  frozen_balances[_account].add(_amount) */\n      tag_330\n        /* \"contracts/Token/Token.sol\":12608:12615  _amount */\n      dup3\n        /* \"contracts/Token/Token.sol\":12578:12593  frozen_balances */\n      0x00\n        /* \"contracts/Token/Token.sol\":12578:12603  frozen_balances[_account] */\n      dup1\n        /* \"contracts/Token/Token.sol\":12594:12602  _account */\n      dup7\n        /* \"contracts/Token/Token.sol\":12578:12603  frozen_balances[_account] */\n      0xffffffffffffffffffffffffffffffffffffffff\n      and\n      0xffffffffffffffffffffffffffffffffffffffff\n      and\n      dup2\n      mstore\n      0x20\n      add\n      swap1\n      dup2\n      mstore\n      0x20\n      add\n      0x00\n      keccak256\n      sload\n        /* \"contracts/Token/Token.sol\":12578:12607  frozen_balances[_account].add */\n      tag_187\n      swap1\n        /* \"contracts/Token/Token.sol\":12578:12616  frozen_balances[_account].add(_amount) */\n      swap2\n      swap1\n      0xffffffff\n      and\n      jump\t// in\n    tag_330:\n        /* \"contracts/Token/Token.sol\":12550:12565  frozen_balances */\n      0x00\n        /* \"contracts/Token/Token.sol\":12550:12575  frozen_balances[_account] */\n      dup1\n        /* \"contracts/Token/Token.sol\":12566:12574  _account */\n      dup6\n        /* \"contracts/Token/Token.sol\":12550:12575  frozen_balances[_account] */\n      0xffffffffffffffffffffffffffffffffffffffff\n      and\n      0xffffffffffffffffffffffffffffffffffffffff\n      and\n      dup2\n      mstore\n      0x20\n      add\n      swap1\n      dup2\n      mstore\n      0x20\n      add\n      0x00\n      keccak256\n        /* \"contracts/Token/Token.sol\":12550:12616  frozen_balances[_account] = frozen_balances[_account].add(_amount) */\n      dup2\n      swap1\n      sstore\n      pop\n        /* \"contracts/Token/Token.sol\":12633:12637  true */\n      0x01\n        /* \"contracts/Token/Token.sol\":12626:12637  return true */\n      swap1\n      pop\n        /* \"contracts/Token/Token.sol\":12460:12644  function _frozen_add(address _account, uint256 _amount) internal returns (bool) {... */\n      swap3\n      swap2\n      pop\n      pop\n      jump\t// out\n        /* \"contracts/Token/Token.sol\":1864:1989  function sub(uint256 a, uint256 b) internal pure returns (uint256) {... */\n    tag_284:\n        /* \"contracts/Token/Token.sol\":1922:1929  uint256 */\n      0x00\n        /* \"contracts/Token/Token.sol\":1942:1985  sub(a, b, \"SafeMath: subtraction overflow\") */\n      tag_332\n        /* \"contracts/Token/Token.sol\":1946:1947  a */\n      dup4\n        /* \"contracts/Token/Token.sol\":1949:1950  b */\n      dup4\n        /* \"contracts/Token/Token.sol\":1942:1985  sub(a, b, \"SafeMath: subtraction overflow\") */\n      mload(0x40)\n      dup1\n      0x40\n      add\n      0x40\n      mstore\n      dup1\n      0x1e\n      dup2\n      mstore\n      0x20\n      add\n      0x536166654d6174683a207375627472616374696f6e206f766572666c6f770000\n      dup2\n      mstore\n      pop\n        /* \"contracts/Token/Token.sol\":1942:1945  sub */\n      tag_179\n        /* \"contracts/Token/Token.sol\":1942:1985  sub(a, b, \"SafeMath: subtraction overflow\") */\n      jump\t// in\n    tag_332:\n        /* \"contracts/Token/Token.sol\":1935:1985  return sub(a, b, \"SafeMath: subtraction overflow\") */\n      swap1\n      pop\n        /* \"contracts/Token/Token.sol\":1864:1989  function sub(uint256 a, uint256 b) internal pure returns (uint256) {... */\n      swap3\n      swap2\n      pop\n      pop\n      jump\t// out\n        /* \"contracts/Token/Token.sol\":2626:3025  function mul(uint256 a, uint256 b) internal pure returns (uint256) {... */\n    tag_293:\n        /* \"contracts/Token/Token.sol\":2684:2691  uint256 */\n      0x00\n        /* \"contracts/Token/Token.sol\":2906:2907  0 */\n      dup1\n        /* \"contracts/Token/Token.sol\":2901:2902  a */\n      dup4\n        /* \"contracts/Token/Token.sol\":2901:2907  a == 0 */\n      eq\n        /* \"contracts/Token/Token.sol\":2897:2927  if (a == 0) {... */\n      iszero\n      tag_334\n      jumpi\n        /* \"contracts/Token/Token.sol\":2921:2922  0 */\n      0x00\n        /* \"contracts/Token/Token.sol\":2914:2922  return 0 */\n      swap1\n      pop\n      jump(tag_333)\n        /* \"contracts/Token/Token.sol\":2897:2927  if (a == 0) {... */\n    tag_334:\n        /* \"contracts/Token/Token.sol\":2931:2940  uint256 c */\n      0x00\n        /* \"contracts/Token/Token.sol\":2947:2948  b */\n      dup3\n        /* \"contracts/Token/Token.sol\":2943:2944  a */\n      dup5\n        /* \"contracts/Token/Token.sol\":2943:2948  a * b */\n      mul\n        /* \"contracts/Token/Token.sol\":2931:2948  uint256 c = a * b */\n      swap1\n      pop\n        /* \"contracts/Token/Token.sol\":2969:2970  b */\n      dup3\n        /* \"contracts/Token/Token.sol\":2964:2965  a */\n      dup5\n        /* \"contracts/Token/Token.sol\":2960:2961  c */\n      dup3\n        /* \"contracts/Token/Token.sol\":2960:2965  c / a */\n      dup2\n      tag_335\n      jumpi\n      invalid\n    tag_335:\n      div\n        /* \"contracts/Token/Token.sol\":2960:2970  c / a == b */\n      eq\n        /* \"contracts/Token/Token.sol\":2952:3008  require(c / a == b, \"SafeMath: multiplication overflow\") */\n      tag_336\n      jumpi\n      mload(0x40)\n      0x08c379a000000000000000000000000000000000000000000000000000000000\n      dup2\n      mstore\n      0x04\n      add\n      dup1\n      dup1\n      0x20\n      add\n      dup3\n      dup2\n      sub\n      dup3\n      mstore\n      0x21\n      dup2\n      mstore\n      0x20\n      add\n      dup1\n      data_9113bb53c2876a3805b2c9242029423fc540a728243ce887ab24c82cf119fba3\n      0x21\n      swap2\n      codecopy\n      0x40\n      add\n      swap2\n      pop\n      pop\n      mload(0x40)\n      dup1\n      swap2\n      sub\n      swap1\n      revert\n    tag_336:\n        /* \"contracts/Token/Token.sol\":3020:3021  c */\n      dup1\n        /* \"contracts/Token/Token.sol\":3013:3021  return c */\n      swap2\n      pop\n      pop\n        /* \"contracts/Token/Token.sol\":2626:3025  function mul(uint256 a, uint256 b) internal pure returns (uint256) {... */\n    tag_333:\n      swap3\n      swap2\n      pop\n      pop\n      jump\t// out\n        /* \"contracts/Token/Token.sol\":3448:3569  function div(uint256 a, uint256 b) internal pure returns (uint256) {... */\n    tag_294:\n        /* \"contracts/Token/Token.sol\":3506:3513  uint256 */\n      0x00\n        /* \"contracts/Token/Token.sol\":3526:3565  div(a, b, \"SafeMath: division by zero\") */\n      tag_338\n        /* \"contracts/Token/Token.sol\":3530:3531  a */\n      dup4\n        /* \"contracts/Token/Token.sol\":3533:3534  b */\n      dup4\n        /* \"contracts/Token/Token.sol\":3526:3565  div(a, b, \"SafeMath: division by zero\") */\n      mload(0x40)\n      dup1\n      0x40\n      add\n      0x40\n      mstore\n      dup1\n      0x1a\n      dup2\n      mstore\n      0x20\n      add\n      0x536166654d6174683a206469766973696f6e206279207a65726f000000000000\n      dup2\n      mstore\n      pop\n        /* \"contracts/Token/Token.sol\":3526:3529  div */\n      tag_339\n        /* \"contracts/Token/Token.sol\":3526:3565  div(a, b, \"SafeMath: division by zero\") */\n      jump\t// in\n    tag_338:\n        /* \"contracts/Token/Token.sol\":3519:3565  return div(a, b, \"SafeMath: division by zero\") */\n      swap1\n      pop\n        /* \"contracts/Token/Token.sol\":3448:3569  function div(uint256 a, uint256 b) internal pure returns (uint256) {... */\n      swap3\n      swap2\n      pop\n      pop\n      jump\t// out\n        /* \"contracts/Token/Token.sol\":17251:17742  function _transfer(address sender, address recipient, uint256 amount) internal virtual {... */\n    tag_296:\n        /* \"contracts/Token/Token.sol\":17368:17369  0 */\n      0x00\n        /* \"contracts/Token/Token.sol\":17350:17370  sender != address(0) */\n      0xffffffffffffffffffffffffffffffffffffffff\n      and\n        /* \"contracts/Token/Token.sol\":17350:17356  sender */\n      dup4\n        /* \"contracts/Token/Token.sol\":17350:17370  sender != address(0) */\n      0xffffffffffffffffffffffffffffffffffffffff\n      and\n      eq\n      iszero\n        /* \"contracts/Token/Token.sol\":17342:17412  require(sender != address(0), \"ERC20: transfer from the zero address\") */\n      tag_341\n      jumpi\n      mload(0x40)\n      0x08c379a000000000000000000000000000000000000000000000000000000000\n      dup2\n      mstore\n      0x04\n      add\n      dup1\n      dup1\n      0x20\n      add\n      dup3\n      dup2\n      sub\n      dup3\n      mstore\n      0x25\n      dup2\n      mstore\n      0x20\n      add\n      dup1\n      data_baecc556b46f4ed0f2b4cb599d60785ac8563dd2dc0a5bf12edea1c39e5e1fea\n      0x25\n      swap2\n      codecopy\n      0x40\n      add\n      swap2\n      pop\n      pop\n      mload(0x40)\n      dup1\n      swap2\n      sub\n      swap1\n      revert\n    tag_341:\n        /* \"contracts/Token/Token.sol\":17445:17446  0 */\n      0x00\n        /* \"contracts/Token/Token.sol\":17424:17447  recipient != address(0) */\n      0xffffffffffffffffffffffffffffffffffffffff\n      and\n        /* \"contracts/Token/Token.sol\":17424:17433  recipient */\n      dup3\n        /* \"contracts/Token/Token.sol\":17424:17447  recipient != address(0) */\n      0xffffffffffffffffffffffffffffffffffffffff\n      and\n      eq\n      iszero\n        /* \"contracts/Token/Token.sol\":17416:17487  require(recipient != address(0), \"ERC20: transfer to the zero address\") */\n      tag_342\n      jumpi\n      mload(0x40)\n      0x08c379a000000000000000000000000000000000000000000000000000000000\n      dup2\n      mstore\n      0x04\n      add\n      dup1\n      dup1\n      0x20\n      add\n      dup3\n      dup2\n      sub\n      dup3\n      mstore\n      0x23\n      dup2\n      mstore\n      0x20\n      add\n      dup1\n      data_0557e210f7a69a685100a7e4e3d0a7024c546085cee28910fd17d0b081d9516f\n      0x23\n      swap2\n      codecopy\n      0x40\n      add\n      swap2\n      pop\n      pop\n      mload(0x40)\n      dup1\n      swap2\n      sub\n      swap1\n      revert\n    tag_342:\n        /* \"contracts/Token/Token.sol\":17492:17539  _beforeTokenTransfer(sender, recipient, amount) */\n      tag_343\n        /* \"contracts/Token/Token.sol\":17513:17519  sender */\n      dup4\n        /* \"contracts/Token/Token.sol\":17521:17530  recipient */\n      dup4\n        /* \"contracts/Token/Token.sol\":17532:17538  amount */\n      dup4\n        /* \"contracts/Token/Token.sol\":17492:17512  _beforeTokenTransfer */\n      tag_310\n        /* \"contracts/Token/Token.sol\":17492:17539  _beforeTokenTransfer(sender, recipient, amount) */\n      jump\t// in\n    tag_343:\n        /* \"contracts/Token/Token.sol\":17564:17635  _balances[sender].sub(amount, \"ERC20: transfer amount exceeds balance\") */\n      tag_344\n        /* \"contracts/Token/Token.sol\":17586:17592  amount */\n      dup2\n        /* \"contracts/Token/Token.sol\":17564:17635  _balances[sender].sub(amount, \"ERC20: transfer amount exceeds balance\") */\n      mload(0x40)\n      dup1\n      0x60\n      add\n      0x40\n      mstore\n      dup1\n      0x26\n      dup2\n      mstore\n      0x20\n      add\n      data_4107e8a8b9e94bf8ff83080ddec1c0bffe897ebc2241b89d44f66b3d274088b6\n      0x26\n      swap2\n      codecopy\n        /* \"contracts/Token/Token.sol\":17564:17573  _balances */\n      0x05\n        /* \"contracts/Token/Token.sol\":17564:17581  _balances[sender] */\n      0x00\n        /* \"contracts/Token/Token.sol\":17574:17580  sender */\n      dup8\n        /* \"contracts/Token/Token.sol\":17564:17581  _balances[sender] */\n      0xffffffffffffffffffffffffffffffffffffffff\n      and\n      0xffffffffffffffffffffffffffffffffffffffff\n      and\n      dup2\n      mstore\n      0x20\n      add\n      swap1\n      dup2\n      mstore\n      0x20\n      add\n      0x00\n      keccak256\n      sload\n        /* \"contracts/Token/Token.sol\":17564:17585  _balances[sender].sub */\n      tag_179\n      swap1\n        /* \"contracts/Token/Token.sol\":17564:17635  _balances[sender].sub(amount, \"ERC20: transfer amount exceeds balance\") */\n      swap3\n      swap2\n      swap1\n      0xffffffff\n      and\n      jump\t// in\n    tag_344:\n        /* \"contracts/Token/Token.sol\":17544:17553  _balances */\n      0x05\n        /* \"contracts/Token/Token.sol\":17544:17561  _balances[sender] */\n      0x00\n        /* \"contracts/Token/Token.sol\":17554:17560  sender */\n      dup6\n        /* \"contracts/Token/Token.sol\":17544:17561  _balances[sender] */\n      0xffffffffffffffffffffffffffffffffffffffff\n      and\n      0xffffffffffffffffffffffffffffffffffffffff\n      and\n      dup2\n      mstore\n      0x20\n      add\n      swap1\n      dup2\n      mstore\n      0x20\n      add\n      0x00\n      keccak256\n        /* \"contracts/Token/Token.sol\":17544:17635  _balances[sender] = _balances[sender].sub(amount, \"ERC20: transfer amount exceeds balance\") */\n      dup2\n      swap1\n      sstore\n      pop\n        /* \"contracts/Token/Token.sol\":17662:17694  _balances[recipient].add(amount) */\n      tag_345\n        /* \"contracts/Token/Token.sol\":17687:17693  amount */\n      dup2\n        /* \"contracts/Token/Token.sol\":17662:17671  _balances */\n      0x05\n        /* \"contracts/Token/Token.sol\":17662:17682  _balances[recipient] */\n      0x00\n        /* \"contracts/Token/Token.sol\":17672:17681  recipient */\n      dup6\n        /* \"contracts/Token/Token.sol\":17662:17682  _balances[recipient] */\n      0xffffffffffffffffffffffffffffffffffffffff\n      and\n      0xffffffffffffffffffffffffffffffffffffffff\n      and\n      dup2\n      mstore\n      0x20\n      add\n      swap1\n      dup2\n      mstore\n      0x20\n      add\n      0x00\n      keccak256\n      sload\n        /* \"contracts/Token/Token.sol\":17662:17686  _balances[recipient].add */\n      tag_187\n      swap1\n        /* \"contracts/Token/Token.sol\":17662:17694  _balances[recipient].add(amount) */\n      swap2\n      swap1\n      0xffffffff\n      and\n      jump\t// in\n    tag_345:\n        /* \"contracts/Token/Token.sol\":17639:17648  _balances */\n      0x05\n        /* \"contracts/Token/Token.sol\":17639:17659  _balances[recipient] */\n      0x00\n        /* \"contracts/Token/Token.sol\":17649:17658  recipient */\n      dup5\n        /* \"contracts/Token/Token.sol\":17639:17659  _balances[recipient] */\n      0xffffffffffffffffffffffffffffffffffffffff\n      and\n      0xffffffffffffffffffffffffffffffffffffffff\n      and\n      dup2\n      mstore\n      0x20\n      add\n      swap1\n      dup2\n      mstore\n      0x20\n      add\n      0x00\n      keccak256\n        /* \"contracts/Token/Token.sol\":17639:17694  _balances[recipient] = _balances[recipient].add(amount) */\n      dup2\n      swap1\n      sstore\n      pop\n        /* \"contracts/Token/Token.sol\":17720:17729  recipient */\n      dup2\n        /* \"contracts/Token/Token.sol\":17703:17738  Transfer(sender, recipient, amount) */\n      0xffffffffffffffffffffffffffffffffffffffff\n      and\n        /* \"contracts/Token/Token.sol\":17712:17718  sender */\n      dup4\n        /* \"contracts/Token/Token.sol\":17703:17738  Transfer(sender, recipient, amount) */\n      0xffffffffffffffffffffffffffffffffffffffff\n      and\n      0xddf252ad1be2c89b69c2b068fc378daa952ba7f163c4a11628f55a4df523b3ef\n        /* \"contracts/Token/Token.sol\":17731:17737  amount */\n      dup4\n        /* \"contracts/Token/Token.sol\":17703:17738  Transfer(sender, recipient, amount) */\n      mload(0x40)\n      dup1\n      dup3\n      dup2\n      mstore\n      0x20\n      add\n      swap2\n      pop\n      pop\n      mload(0x40)\n      dup1\n      swap2\n      sub\n      swap1\n      log3\n        /* \"contracts/Token/Token.sol\":17251:17742  function _transfer(address sender, address recipient, uint256 amount) internal virtual {... */\n      pop\n      pop\n      pop\n      jump\t// out\n        /* \"contracts/Token/Token.sol\":21479:21781  function _beforeTokenTransfer(address from, address to, uint256 amount) internal virtual override {... */\n    tag_310:\n        /* \"contracts/Token/Token.sol\":21581:21625  super._beforeTokenTransfer(from, to, amount) */\n      tag_347\n        /* \"contracts/Token/Token.sol\":21608:21612  from */\n      dup4\n        /* \"contracts/Token/Token.sol\":21614:21616  to */\n      dup4\n        /* \"contracts/Token/Token.sol\":21618:21624  amount */\n      dup4\n        /* \"contracts/Token/Token.sol\":21581:21607  super._beforeTokenTransfer */\n      tag_348\n        /* \"contracts/Token/Token.sol\":21581:21625  super._beforeTokenTransfer(from, to, amount) */\n      jump\t// in\n    tag_347:\n        /* \"contracts/Token/Token.sol\":21655:21656  0 */\n      0x00\n        /* \"contracts/Token/Token.sol\":21639:21657  from == address(0) */\n      0xffffffffffffffffffffffffffffffffffffffff\n      and\n        /* \"contracts/Token/Token.sol\":21639:21643  from */\n      dup4\n        /* \"contracts/Token/Token.sol\":21639:21657  from == address(0) */\n      0xffffffffffffffffffffffffffffffffffffffff\n      and\n      eq\n        /* \"contracts/Token/Token.sol\":21635:21777  if (from == address(0)) { // When minting tokens... */\n      iszero\n      tag_349\n      jumpi\n        /* \"contracts/Token/Token.sol\":21724:21735  maxSupply() */\n      tag_350\n        /* \"contracts/Token/Token.sol\":21724:21733  maxSupply */\n      tag_133\n        /* \"contracts/Token/Token.sol\":21724:21735  maxSupply() */\n      jump\t// in\n    tag_350:\n        /* \"contracts/Token/Token.sol\":21695:21720  totalSupply().add(amount) */\n      tag_351\n        /* \"contracts/Token/Token.sol\":21713:21719  amount */\n      dup3\n        /* \"contracts/Token/Token.sol\":21695:21708  totalSupply() */\n      tag_352\n        /* \"contracts/Token/Token.sol\":21695:21706  totalSupply */\n      tag_61\n        /* \"contracts/Token/Token.sol\":21695:21708  totalSupply() */\n      jump\t// in\n    tag_352:\n        /* \"contracts/Token/Token.sol\":21695:21712  totalSupply().add */\n      tag_187\n      swap1\n        /* \"contracts/Token/Token.sol\":21695:21720  totalSupply().add(amount) */\n      swap2\n      swap1\n      0xffffffff\n      and\n      jump\t// in\n    tag_351:\n        /* \"contracts/Token/Token.sol\":21695:21735  totalSupply().add(amount) <= maxSupply() */\n      gt\n      iszero\n        /* \"contracts/Token/Token.sol\":21687:21772  require(totalSupply().add(amount) <= maxSupply(), \"ERC20Capped: max supply exceeded\") */\n      tag_353\n      jumpi\n      mload(0x40)\n      0x08c379a000000000000000000000000000000000000000000000000000000000\n      dup2\n      mstore\n      0x04\n      add\n      dup1\n      dup1\n      0x20\n      add\n      dup3\n      dup2\n      sub\n      dup3\n      mstore\n      0x20\n      dup2\n      mstore\n      0x20\n      add\n      dup1\n      0x45524332304361707065643a206d617820737570706c79206578636565646564\n      dup2\n      mstore\n      pop\n      0x20\n      add\n      swap2\n      pop\n      pop\n      mload(0x40)\n      dup1\n      swap2\n      sub\n      swap1\n      revert\n    tag_353:\n        /* \"contracts/Token/Token.sol\":21635:21777  if (from == address(0)) { // When minting tokens... */\n    tag_349:\n        /* \"contracts/Token/Token.sol\":21479:21781  function _beforeTokenTransfer(address from, address to, uint256 amount) internal virtual override {... */\n      pop\n      pop\n      pop\n      jump\t// out\n        /* \"contracts/Token/Token.sol\":4012:4257  function div(uint256 a, uint256 b, string memory errorMessage) internal pure returns (uint256) {... */\n    tag_339:\n        /* \"contracts/Token/Token.sol\":4098:4105  uint256 */\n      0x00\n        /* \"contracts/Token/Token.sol\":4123:4124  0 */\n      dup1\n        /* \"contracts/Token/Token.sol\":4119:4120  b */\n      dup4\n        /* \"contracts/Token/Token.sol\":4119:4124  b > 0 */\n      gt\n        /* \"contracts/Token/Token.sol\":4126:4138  errorMessage */\n      dup3\n        /* \"contracts/Token/Token.sol\":4111:4139  require(b > 0, errorMessage) */\n      swap1\n      tag_355\n      jumpi\n      mload(0x40)\n      0x08c379a000000000000000000000000000000000000000000000000000000000\n      dup2\n      mstore\n      0x04\n      add\n      dup1\n      dup1\n      0x20\n      add\n      dup3\n      dup2\n      sub\n      dup3\n      mstore\n      dup4\n      dup2\n      dup2\n      mload\n      dup2\n      mstore\n      0x20\n      add\n      swap2\n      pop\n      dup1\n      mload\n      swap1\n      0x20\n      add\n      swap1\n      dup1\n      dup4\n      dup4\n      0x00\n    tag_356:\n      dup4\n      dup2\n      lt\n      iszero\n      tag_358\n      jumpi\n      dup1\n      dup3\n      add\n      mload\n      dup2\n      dup5\n      add\n      mstore\n      0x20\n      dup2\n      add\n      swap1\n      pop\n      jump(tag_356)\n    tag_358:\n      pop\n      pop\n      pop\n      pop\n      swap1\n      pop\n      swap1\n      dup2\n      add\n      swap1\n      0x1f\n      and\n      dup1\n      iszero\n      tag_359\n      jumpi\n      dup1\n      dup3\n      sub\n      dup1\n      mload\n      0x01\n      dup4\n      0x20\n      sub\n      0x0100\n      exp\n      sub\n      not\n      and\n      dup2\n      mstore\n      0x20\n      add\n      swap2\n      pop\n    tag_359:\n      pop\n      swap3\n      pop\n      pop\n      pop\n      mload(0x40)\n      dup1\n      swap2\n      sub\n      swap1\n      revert\n    tag_355:\n      pop\n        /* \"contracts/Token/Token.sol\":4143:4152  uint256 c */\n      0x00\n        /* \"contracts/Token/Token.sol\":4159:4160  b */\n      dup4\n        /* \"contracts/Token/Token.sol\":4155:4156  a */\n      dup6\n        /* \"contracts/Token/Token.sol\":4155:4160  a / b */\n      dup2\n      tag_360\n      jumpi\n      invalid\n    tag_360:\n      div\n        /* \"contracts/Token/Token.sol\":4143:4160  uint256 c = a / b */\n      swap1\n      pop\n        /* \"contracts/Token/Token.sol\":4252:4253  c */\n      dup1\n        /* \"contracts/Token/Token.sol\":4245:4253  return c */\n      swap2\n      pop\n      pop\n        /* \"contracts/Token/Token.sol\":4012:4257  function div(uint256 a, uint256 b, string memory errorMessage) internal pure returns (uint256) {... */\n      swap4\n      swap3\n      pop\n      pop\n      pop\n      jump\t// out\n        /* \"contracts/Token/Token.sol\":18863:19036  function _beforeTokenTransfer(address from, address to, uint256 amount) internal virtual {... */\n    tag_348:\n        /* \"contracts/Token/Token.sol\":18983:18989  amount */\n      dup1\n        /* \"contracts/Token/Token.sol\":18964:18973  _balances */\n      0x05\n        /* \"contracts/Token/Token.sol\":18964:18979  _balances[from] */\n      0x00\n        /* \"contracts/Token/Token.sol\":18974:18978  from */\n      dup6\n        /* \"contracts/Token/Token.sol\":18964:18979  _balances[from] */\n      0xffffffffffffffffffffffffffffffffffffffff\n      and\n      0xffffffffffffffffffffffffffffffffffffffff\n      and\n      dup2\n      mstore\n      0x20\n      add\n      swap1\n      dup2\n      mstore\n      0x20\n      add\n      0x00\n      keccak256\n      sload\n        /* \"contracts/Token/Token.sol\":18964:18989  _balances[from] >= amount */\n      lt\n      iszero\n        /* \"contracts/Token/Token.sol\":18956:19032  require(_balances[from] >= amount, \"ERC20: transfer amount exceeds balance\") */\n      tag_362\n      jumpi\n      mload(0x40)\n      0x08c379a000000000000000000000000000000000000000000000000000000000\n      dup2\n      mstore\n      0x04\n      add\n      dup1\n      dup1\n      0x20\n      add\n      dup3\n      dup2\n      sub\n      dup3\n      mstore\n      0x26\n      dup2\n      mstore\n      0x20\n      add\n      dup1\n      data_4107e8a8b9e94bf8ff83080ddec1c0bffe897ebc2241b89d44f66b3d274088b6\n      0x26\n      swap2\n      codecopy\n      0x40\n      add\n      swap2\n      pop\n      pop\n      mload(0x40)\n      dup1\n      swap2\n      sub\n      swap1\n      revert\n    tag_362:\n        /* \"contracts/Token/Token.sol\":18863:19036  function _beforeTokenTransfer(address from, address to, uint256 amount) internal virtual {... */\n      pop\n      pop\n      pop\n      jump\t// out\n    stop\n    data_0557e210f7a69a685100a7e4e3d0a7024c546085cee28910fd17d0b081d9516f 45524332303a207472616e7366657220746f20746865207a65726f2061646472657373\n    data_083eca151a4ced7bf5544a897b9e8b3e2620a9b6dc6feb44e1e78751a86936c5 45524332303a206d656c742066726f6d2074686520616464726573733a2062616c616e6365203c20616d6f756e74\n    data_149b126e7125232b4200af45303d04fba8b74653b1a295a6a561a528c33fefdd 45524332303a206275726e20616d6f756e7420657863656564732062616c616e6365\n    data_1c85aa0d8454e1548e88ea9f2bb8a0c43a1bd6e50657077b5d1b08b8d2a4db7b 45524332303a206d696e742066726f7a656e20746f20746865207a65726f2061646472657373\n    data_245f15ff17f551913a7a18385165551503906a406f905ac1c2437281a7cd0cfe 4f776e61626c653a206e6577206f776e657220697320746865207a65726f2061646472657373\n    data_24883cc5fe64ace9d0df1893501ecb93c77180f0ff69cca79affb3c316dc8029 45524332303a20617070726f766520746f20746865207a65726f2061646472657373\n    data_25a82e711965e24b472dea6cec5774ce13441ffeaf1c79cde67f510141497dff 45524332303a206d696e742066726f7a656e20746f2074686520636f6e74726163742061646472657373\n    data_4107e8a8b9e94bf8ff83080ddec1c0bffe897ebc2241b89d44f66b3d274088b6 45524332303a207472616e7366657220616d6f756e7420657863656564732062616c616e6365\n    data_5b7675e6fbaaaa420cafac78b556823238257a970a02bf57ab4957860eac80bc 45524332303a206d656c742066726f6d2074686520616464726573733a2076616c75652073686f756c64206265203e2030\n    data_631213ea213f1c5b9a2a47b03459ea7035848ced11625b3e078a63e304817988 45524332303a206d696e742066726f7a656e20616d6f756e742073686f756c64206265203e2030\n    data_9113bb53c2876a3805b2c9242029423fc540a728243ce887ab24c82cf119fba3 536166654d6174683a206d756c7469706c69636174696f6e206f766572666c6f77\n    data_974d1b4421da69cc60b481194f0dad36a5bb4e23da810da7a7fb30cdba178330 45524332303a207472616e7366657220616d6f756e74206578636565647320616c6c6f77616e6365\n    data_a287c363786607a1457a2d9d12fa61c0073358e02d76b4035fc2c2d86a19c0db 45524332303a206275726e20616d6f756e74206578636565647320616c6c6f77616e6365\n    data_ae19d5a04ea56a14e1c0edb4dc7bdb92df00299e61ae2aaa6c13d35ea071495b 45524332303a206d656c742066726f6d20746865207a65726f2061646472657373\n    data_b16788493b576042bb52c50ed56189e0b250db113c7bfb1c3897d25cf9632d7f 45524332303a206275726e2066726f6d20746865207a65726f2061646472657373\n    data_b7b21078a467b814181da2d09cb3afdeca16ec86fc8c1496bf091b24158c0663 45524332303a2066726f7a656e206275726e2066726f6d20746865207a65726f2061646472657373\n    data_baecc556b46f4ed0f2b4cb599d60785ac8563dd2dc0a5bf12edea1c39e5e1fea 45524332303a207472616e736665722066726f6d20746865207a65726f2061646472657373\n    data_c953f4879035ed60e766b34720f656aab5c697b141d924c283124ecedb91c208 45524332303a20617070726f76652066726f6d20746865207a65726f2061646472657373\n    data_dcdad2652796fc64e805bbf7adf0bc0a565a5d4a577f7ae44ee7ec82e235ba99 63616c6c6572206e6f7420612070656e64696e67206d656c7465722061646d696e\n    data_f8b476f7d28209d77d4a4ac1fe36b9f8259aa1bb6bddfa6e89de7e51615cf8a8 45524332303a2064656372656173656420616c6c6f77616e63652062656c6f77207a65726f\n\n    auxdata: 0xa264697066735822122003591561f6e763bf96d2d6ac3b8afc183383e7dc463c073b1081a0b710b46eff64736f6c634300060c0033\n}\n",
				"bytecode": {
					"linkReferences": {},
					"object": "60806040523480156200001157600080fd5b506040518060400160405280601981526020017f53616e637469205175657374204f6e2046726f6e746c696e65000000000000008152506040518060400160405280600381526020017f53514600000000000000000000000000000000000000000000000000000000008152506c04350edef012dc1267883400006c03397512e5d86a2960d06800006000620000ac620002d760201b60201c565b905080600160006101000a81548173ffffffffffffffffffffffffffffffffffffffff021916908373ffffffffffffffffffffffffffffffffffffffff1602179055508073ffffffffffffffffffffffffffffffffffffffff16600073ffffffffffffffffffffffffffffffffffffffff167f8be0079c531659141344cd1fd0a4f28419497f9722a3daafe3b4186f6b6457e060405160405180910390a35033600360006101000a81548173ffffffffffffffffffffffffffffffffffffffff021916908373ffffffffffffffffffffffffffffffffffffffff1602179055506001600260003373ffffffffffffffffffffffffffffffffffffffff1673ffffffffffffffffffffffffffffffffffffffff16815260200190815260200160002060006101000a81548160ff0219169083151502179055508360099080519060200190620001fc929190620002df565b5082600a908051906020019062000215929190620002df565b506012600b60006101000a81548160ff021916908360ff160217905550816008819055508060078190555080600560003373ffffffffffffffffffffffffffffffffffffffff1673ffffffffffffffffffffffffffffffffffffffff168152602001908152602001600020819055505050505033600b60016101000a81548173ffffffffffffffffffffffffffffffffffffffff021916908373ffffffffffffffffffffffffffffffffffffffff1602179055506000600c8190555062000385565b600033905090565b828054600181600116156101000203166002900490600052602060002090601f016020900481019282601f106200032257805160ff191683800117855562000353565b8280016001018555821562000353579182015b828111156200035257825182559160200191906001019062000335565b5b50905062000362919062000366565b5090565b5b808211156200038157600081600090555060010162000367565b5090565b613ef080620003956000396000f3fe608060405234801561001057600080fd5b50600436106102115760003560e01c8063715018a611610125578063a9059cbb116100ad578063d5abeb011161007c578063d5abeb0114610aaf578063d8da5ce914610acd578063dd62ed3e14610b11578063e50d318014610b89578063f2fde38b14610c0d57610211565b8063a9059cbb14610975578063b2855b4f146109d9578063c4157b2914610a1d578063c894e1e514610a8157610211565b806391116d67116100f457806391116d67146107be57806395d89b4114610802578063a0821be314610885578063a457c2d7146108dd578063a64f714c1461094157610211565b8063715018a6146106d857806379cc6790146106e25780638da5cb5b146107465780638fe8cf241461077a57610211565b8063313ce567116101a857806340c10f191161017757806340c10f191461057657806342966c68146105c4578063483a8df914610608578063707662801461064c57806370a082311461068057610211565b8063313ce5671461049f578063351bf518146104c057806335cde1ce146104de578063395093511461051257610211565b806318160ddd116101e457806318160ddd146103af5780631e57a2b2146103cd578063238fd731146103d757806323b872dd1461041b57610211565b806306fdde0314610216578063095ea7b3146102995780630c15f601146102fd578063171177b314610361575b600080fd5b61021e610c51565b6040518080602001828103825283818151815260200191508051906020019080838360005b8381101561025e578082015181840152602081019050610243565b50505050905090810190601f16801561028b5780820380516001836020036101000a031916815260200191505b509250505060405180910390f35b6102e5600480360360408110156102af57600080fd5b81019080803573ffffffffffffffffffffffffffffffffffffffff16906020019092919080359060200190929190505050610cf3565b60405180821515815260200191505060405180910390f35b6103496004803603604081101561031357600080fd5b81019080803573ffffffffffffffffffffffffffffffffffffffff16906020019092919080359060200190929190505050610d11565b60405180821515815260200191505060405180910390f35b6103ad6004803603604081101561037757600080fd5b81019080803573ffffffffffffffffffffffffffffffffffffffff16906020019092919080359060200190929190505050610ded565b005b6103b7610ec1565b6040518082815260200191505060405180910390f35b6103d5610ecb565b005b610419600480360360208110156103ed57600080fd5b81019080803573ffffffffffffffffffffffffffffffffffffffff1690602001909291905050506110b6565b005b6104876004803603606081101561043157600080fd5b81019080803573ffffffffffffffffffffffffffffffffffffffff169060200190929190803573ffffffffffffffffffffffffffffffffffffffff169060200190929190803590602001909291905050506111d4565b60405180821515815260200191505060405180910390f35b6104a76112ad565b604051808260ff16815260200191505060405180910390f35b6104c86112c4565b6040518082815260200191505060405180910390f35b6104e66112ca565b604051808273ffffffffffffffffffffffffffffffffffffffff16815260200191505060405180910390f35b61055e6004803603604081101561052857600080fd5b81019080803573ffffffffffffffffffffffffffffffffffffffff169060200190929190803590602001909291905050506112f4565b60405180821515815260200191505060405180910390f35b6105c26004803603604081101561058c57600080fd5b81019080803573ffffffffffffffffffffffffffffffffffffffff169060200190929190803590602001909291905050506113a7565b005b6105f0600480360360208110156105da57600080fd5b810190808035906020019092919050505061147f565b60405180821515815260200191505060405180910390f35b61064a6004803603602081101561061e57600080fd5b81019080803573ffffffffffffffffffffffffffffffffffffffff16906020019092919050505061149b565b005b6106546115a2565b604051808273ffffffffffffffffffffffffffffffffffffffff16815260200191505060405180910390f35b6106c26004803603602081101561069657600080fd5b81019080803573ffffffffffffffffffffffffffffffffffffffff1690602001909291905050506115c8565b6040518082815260200191505060405180910390f35b6106e061162b565b005b61072e600480360360408110156106f857600080fd5b81019080803573ffffffffffffffffffffffffffffffffffffffff169060200190929190803590602001909291905050506117b6565b60405180821515815260200191505060405180910390f35b61074e61181f565b604051808273ffffffffffffffffffffffffffffffffffffffff16815260200191505060405180910390f35b6107bc6004803603602081101561079057600080fd5b81019080803573ffffffffffffffffffffffffffffffffffffffff169060200190929190505050611849565b005b610800600480360360208110156107d457600080fd5b81019080803573ffffffffffffffffffffffffffffffffffffffff169060200190929190505050611965565b005b61080a611a8a565b6040518080602001828103825283818151815260200191508051906020019080838360005b8381101561084a57808201518184015260208101905061082f565b50505050905090810190601f1680156108775780820380516001836020036101000a031916815260200191505b509250505060405180910390f35b6108c76004803603602081101561089b57600080fd5b81019080803573ffffffffffffffffffffffffffffffffffffffff169060200190929190505050611b2c565b6040518082815260200191505060405180910390f35b610929600480360360408110156108f357600080fd5b81019080803573ffffffffffffffffffffffffffffffffffffffff16906020019092919080359060200190929190505050611b75565b60405180821515815260200191505060405180910390f35b610949611c42565b604051808273ffffffffffffffffffffffffffffffffffffffff16815260200191505060405180910390f35b6109c16004803603604081101561098b57600080fd5b81019080803573ffffffffffffffffffffffffffffffffffffffff16906020019092919080359060200190929190505050611c68565b60405180821515815260200191505060405180910390f35b610a1b600480360360208110156109ef57600080fd5b81019080803573ffffffffffffffffffffffffffffffffffffffff169060200190929190505050611c86565b005b610a6960048036036040811015610a3357600080fd5b81019080803573ffffffffffffffffffffffffffffffffffffffff16906020019092919080359060200190929190505050611d94565b60405180821515815260200191505060405180910390f35b610aad60048036036020811015610a9757600080fd5b8101908080359060200190929190505050611e70565b005b610ab7611f44565b6040518082815260200191505060405180910390f35b610b0f60048036036020811015610ae357600080fd5b81019080803573ffffffffffffffffffffffffffffffffffffffff169060200190929190505050611f4e565b005b610b7360048036036040811015610b2757600080fd5b81019080803573ffffffffffffffffffffffffffffffffffffffff169060200190929190803573ffffffffffffffffffffffffffffffffffffffff16906020019092919050505061206c565b6040518082815260200191505060405180910390f35b610bf560048036036060811015610b9f57600080fd5b81019080803573ffffffffffffffffffffffffffffffffffffffff169060200190929190803573ffffffffffffffffffffffffffffffffffffffff169060200190929190803590602001909291905050506120f3565b60405180821515815260200191505060405180910390f35b610c4f60048036036020811015610c2357600080fd5b81019080803573ffffffffffffffffffffffffffffffffffffffff1690602001909291905050506123b2565b005b606060098054600181600116156101000203166002900480601f016020809104026020016040519081016040528092919081815260200182805460018160011615610100020316600290048015610ce95780601f10610cbe57610100808354040283529160200191610ce9565b820191906000526020600020905b815481529060010190602001808311610ccc57829003601f168201915b5050505050905090565b6000610d07610d006125c2565b84846125ca565b6001905092915050565b600060011515600260003373ffffffffffffffffffffffffffffffffffffffff1673ffffffffffffffffffffffffffffffffffffffff16815260200190815260200160002060009054906101000a900460ff16151514610dd9576040517f08c379a00000000000000000000000000000000000000000000000000000000081526004018080602001828103825260128152602001807f63616e277420706572666f726d206d656c74000000000000000000000000000081525060200191505060405180910390fd5b610de383836127c1565b6001905092915050565b60011515600260003373ffffffffffffffffffffffffffffffffffffffff1673ffffffffffffffffffffffffffffffffffffffff16815260200190815260200160002060009054906101000a900460ff16151514610eb3576040517f08c379a00000000000000000000000000000000000000000000000000000000081526004018080602001828103825260128152602001807f63616e277420706572666f726d206d656c74000000000000000000000000000081525060200191505060405180910390fd5b610ebd82826129f3565b5050565b6000600754905090565b600460009054906101000a900473ffffffffffffffffffffffffffffffffffffffff1673ffffffffffffffffffffffffffffffffffffffff163373ffffffffffffffffffffffffffffffffffffffff1614610f71576040517f08c379a0000000000000000000000000000000000000000000000000000000008152600401808060200182810382526021815260200180613e756021913960400191505060405180910390fd5b600460009054906101000a900473ffffffffffffffffffffffffffffffffffffffff1673ffffffffffffffffffffffffffffffffffffffff16600360009054906101000a900473ffffffffffffffffffffffffffffffffffffffff1673ffffffffffffffffffffffffffffffffffffffff167f2e564b778e0bd386914daff857c4db4480f555c393032a2f0ab2d62de42c297760405160405180910390a3600460009054906101000a900473ffffffffffffffffffffffffffffffffffffffff16600360006101000a81548173ffffffffffffffffffffffffffffffffffffffff021916908373ffffffffffffffffffffffffffffffffffffffff1602179055506000600460006101000a81548173ffffffffffffffffffffffffffffffffffffffff021916908373ffffffffffffffffffffffffffffffffffffffff160217905550565b600360009054906101000a900473ffffffffffffffffffffffffffffffffffffffff1673ffffffffffffffffffffffffffffffffffffffff163373ffffffffffffffffffffffffffffffffffffffff1614611179576040517f08c379a00000000000000000000000000000000000000000000000000000000081526004018080602001828103825260198152602001807f63616c6c6572206e6f742061206d656c7465722061646d696e0000000000000081525060200191505060405180910390fd5b6000600260008373ffffffffffffffffffffffffffffffffffffffff1673ffffffffffffffffffffffffffffffffffffffff16815260200190815260200160002060006101000a81548160ff02191690831515021790555050565b60006111e1848484612b08565b6112a2846111ed6125c2565b61129d85604051806060016040528060288152602001613d7660289139600660008b73ffffffffffffffffffffffffffffffffffffffff1673ffffffffffffffffffffffffffffffffffffffff16815260200190815260200160002060006112536125c2565b73ffffffffffffffffffffffffffffffffffffffff1673ffffffffffffffffffffffffffffffffffffffff16815260200190815260200160002054612c839092919063ffffffff16565b6125ca565b600190509392505050565b6000600b60009054906101000a900460ff16905090565b600c5481565b6000600360009054906101000a900473ffffffffffffffffffffffffffffffffffffffff16905090565b600061139d6113016125c2565b8461139885600660006113126125c2565b73ffffffffffffffffffffffffffffffffffffffff1673ffffffffffffffffffffffffffffffffffffffff16815260200190815260200160002060008973ffffffffffffffffffffffffffffffffffffffff1673ffffffffffffffffffffffffffffffffffffffff16815260200190815260200160002054612d4390919063ffffffff16565b6125ca565b6001905092915050565b6113af6125c2565b73ffffffffffffffffffffffffffffffffffffffff16600160009054906101000a900473ffffffffffffffffffffffffffffffffffffffff1673ffffffffffffffffffffffffffffffffffffffff1614611471576040517f08c379a00000000000000000000000000000000000000000000000000000000081526004018080602001828103825260208152602001807f4f776e61626c653a2063616c6c6572206973206e6f7420746865206f776e657281525060200191505060405180910390fd5b61147b8282612dcb565b5050565b600061149261148c6125c2565b83612f94565b60019050919050565b600360009054906101000a900473ffffffffffffffffffffffffffffffffffffffff1673ffffffffffffffffffffffffffffffffffffffff163373ffffffffffffffffffffffffffffffffffffffff161461155e576040517f08c379a00000000000000000000000000000000000000000000000000000000081526004018080602001828103825260198152602001807f63616c6c6572206e6f742061206d656c7465722061646d696e0000000000000081525060200191505060405180910390fd5b80600460006101000a81548173ffffffffffffffffffffffffffffffffffffffff021916908373ffffffffffffffffffffffffffffffffffffffff16021790555050565b600460009054906101000a900473ffffffffffffffffffffffffffffffffffffffff1681565b60006116246115d68361315a565b600560008573ffffffffffffffffffffffffffffffffffffffff1673ffffffffffffffffffffffffffffffffffffffff16815260200190815260200160002054612d4390919063ffffffff16565b9050919050565b6116336125c2565b73ffffffffffffffffffffffffffffffffffffffff16600160009054906101000a900473ffffffffffffffffffffffffffffffffffffffff1673ffffffffffffffffffffffffffffffffffffffff16146116f5576040517f08c379a00000000000000000000000000000000000000000000000000000000081526004018080602001828103825260208152602001807f4f776e61626c653a2063616c6c6572206973206e6f7420746865206f776e657281525060200191505060405180910390fd5b600073ffffffffffffffffffffffffffffffffffffffff16600160009054906101000a900473ffffffffffffffffffffffffffffffffffffffff1673ffffffffffffffffffffffffffffffffffffffff167f8be0079c531659141344cd1fd0a4f28419497f9722a3daafe3b4186f6b6457e060405160405180910390a36000600160006101000a81548173ffffffffffffffffffffffffffffffffffffffff021916908373ffffffffffffffffffffffffffffffffffffffff160217905550565b6000806117f683604051806060016040528060248152602001613d9e602491396117e7876117e26125c2565b61206c565b612c839092919063ffffffff16565b905061180a846118046125c2565b836125ca565b6118148484612f94565b600191505092915050565b6000600160009054906101000a900473ffffffffffffffffffffffffffffffffffffffff16905090565b6118516125c2565b73ffffffffffffffffffffffffffffffffffffffff16600160009054906101000a900473ffffffffffffffffffffffffffffffffffffffff1673ffffffffffffffffffffffffffffffffffffffff1614611913576040517f08c379a00000000000000000000000000000000000000000000000000000000081526004018080602001828103825260208152602001807f4f776e61626c653a2063616c6c6572206973206e6f7420746865206f776e657281525060200191505060405180910390fd5b600d60008273ffffffffffffffffffffffffffffffffffffffff1673ffffffffffffffffffffffffffffffffffffffff16815260200190815260200160002060006101000a81549060ff021916905550565b61196d6125c2565b73ffffffffffffffffffffffffffffffffffffffff16600160009054906101000a900473ffffffffffffffffffffffffffffffffffffffff1673ffffffffffffffffffffffffffffffffffffffff1614611a2f576040517f08c379a00000000000000000000000000000000000000000000000000000000081526004018080602001828103825260208152602001807f4f776e61626c653a2063616c6c6572206973206e6f7420746865206f776e657281525060200191505060405180910390fd5b6001600d60008373ffffffffffffffffffffffffffffffffffffffff1673ffffffffffffffffffffffffffffffffffffffff16815260200190815260200160002060006101000a81548160ff02191690831515021790555050565b6060600a8054600181600116156101000203166002900480601f016020809104026020016040519081016040528092919081815260200182805460018160011615610100020316600290048015611b225780601f10611af757610100808354040283529160200191611b22565b820191906000526020600020905b815481529060010190602001808311611b0557829003601f168201915b5050505050905090565b6000600560008373ffffffffffffffffffffffffffffffffffffffff1673ffffffffffffffffffffffffffffffffffffffff168152602001908152602001600020549050919050565b6000611c38611b826125c2565b84611c3385604051806060016040528060258152602001613e966025913960066000611bac6125c2565b73ffffffffffffffffffffffffffffffffffffffff1673ffffffffffffffffffffffffffffffffffffffff16815260200190815260200160002060008a73ffffffffffffffffffffffffffffffffffffffff1673ffffffffffffffffffffffffffffffffffffffff16815260200190815260200160002054612c839092919063ffffffff16565b6125ca565b6001905092915050565b600b60019054906101000a900473ffffffffffffffffffffffffffffffffffffffff1681565b6000611c7c611c756125c2565b8484612b08565b6001905092915050565b611c8e6125c2565b73ffffffffffffffffffffffffffffffffffffffff16600160009054906101000a900473ffffffffffffffffffffffffffffffffffffffff1673ffffffffffffffffffffffffffffffffffffffff1614611d50576040517f08c379a00000000000000000000000000000000000000000000000000000000081526004018080602001828103825260208152602001807f4f776e61626c653a2063616c6c6572206973206e6f7420746865206f776e657281525060200191505060405180910390fd5b80600b60016101000a81548173ffffffffffffffffffffffffffffffffffffffff021916908373ffffffffffffffffffffffffffffffffffffffff16021790555050565b600060011515600260003373ffffffffffffffffffffffffffffffffffffffff1673ffffffffffffffffffffffffffffffffffffffff16815260200190815260200160002060009054906101000a900460ff16151514611e5c576040517f08c379a00000000000000000000000000000000000000000000000000000000081526004018080602001828103825260128152602001807f63616e277420706572666f726d206d656c74000000000000000000000000000081525060200191505060405180910390fd5b611e6683836131a2565b6001905092915050565b611e786125c2565b73ffffffffffffffffffffffffffffffffffffffff16600160009054906101000a900473ffffffffffffffffffffffffffffffffffffffff1673ffffffffffffffffffffffffffffffffffffffff1614611f3a576040517f08c379a00000000000000000000000000000000000000000000000000000000081526004018080602001828103825260208152602001807f4f776e61626c653a2063616c6c6572206973206e6f7420746865206f776e657281525060200191505060405180910390fd5b80600c8190555050565b6000600854905090565b600360009054906101000a900473ffffffffffffffffffffffffffffffffffffffff1673ffffffffffffffffffffffffffffffffffffffff163373ffffffffffffffffffffffffffffffffffffffff1614612011576040517f08c379a00000000000000000000000000000000000000000000000000000000081526004018080602001828103825260198152602001807f63616c6c6572206e6f742061206d656c7465722061646d696e0000000000000081525060200191505060405180910390fd5b6001600260008373ffffffffffffffffffffffffffffffffffffffff1673ffffffffffffffffffffffffffffffffffffffff16815260200190815260200160002060006101000a81548160ff02191690831515021790555050565b6000600660008473ffffffffffffffffffffffffffffffffffffffff1673ffffffffffffffffffffffffffffffffffffffff16815260200190815260200160002060008373ffffffffffffffffffffffffffffffffffffffff1673ffffffffffffffffffffffffffffffffffffffff16815260200190815260200160002054905092915050565b600060011515600260003373ffffffffffffffffffffffffffffffffffffffff1673ffffffffffffffffffffffffffffffffffffffff16815260200190815260200160002060009054906101000a900460ff161515146121bb576040517f08c379a00000000000000000000000000000000000000000000000000000000081526004018080602001828103825260128152602001807f63616e277420706572666f726d206d656c74000000000000000000000000000081525060200191505060405180910390fd5b600073ffffffffffffffffffffffffffffffffffffffff168473ffffffffffffffffffffffffffffffffffffffff161415612241576040517f08c379a0000000000000000000000000000000000000000000000000000000008152600401808060200182810382526025815260200180613e2c6025913960400191505060405180910390fd5b600073ffffffffffffffffffffffffffffffffffffffff168373ffffffffffffffffffffffffffffffffffffffff1614156122c7576040517f08c379a0000000000000000000000000000000000000000000000000000000008152600401808060200182810382526023815260200180613bcc6023913960400191505060405180910390fd5b6122d1848361346f565b506122dc838361350e565b508273ffffffffffffffffffffffffffffffffffffffff168473ffffffffffffffffffffffffffffffffffffffff167f9958976925baa403abf86afa44976a9effff3e01931eafd0ea2689f40852fd59846040518082815260200191505060405180910390a38273ffffffffffffffffffffffffffffffffffffffff168473ffffffffffffffffffffffffffffffffffffffff167fddf252ad1be2c89b69c2b068fc378daa952ba7f163c4a11628f55a4df523b3ef846040518082815260200191505060405180910390a3600190509392505050565b6123ba6125c2565b73ffffffffffffffffffffffffffffffffffffffff16600160009054906101000a900473ffffffffffffffffffffffffffffffffffffffff1673ffffffffffffffffffffffffffffffffffffffff161461247c576040517f08c379a00000000000000000000000000000000000000000000000000000000081526004018080602001828103825260208152602001807f4f776e61626c653a2063616c6c6572206973206e6f7420746865206f776e657281525060200191505060405180910390fd5b600073ffffffffffffffffffffffffffffffffffffffff168173ffffffffffffffffffffffffffffffffffffffff161415612502576040517f08c379a0000000000000000000000000000000000000000000000000000000008152600401808060200182810382526026815260200180613c656026913960400191505060405180910390fd5b8073ffffffffffffffffffffffffffffffffffffffff16600160009054906101000a900473ffffffffffffffffffffffffffffffffffffffff1673ffffffffffffffffffffffffffffffffffffffff167f8be0079c531659141344cd1fd0a4f28419497f9722a3daafe3b4186f6b6457e060405160405180910390a380600160006101000a81548173ffffffffffffffffffffffffffffffffffffffff021916908373ffffffffffffffffffffffffffffffffffffffff16021790555050565b600033905090565b600073ffffffffffffffffffffffffffffffffffffffff168373ffffffffffffffffffffffffffffffffffffffff161415612650576040517f08c379a0000000000000000000000000000000000000000000000000000000008152600401808060200182810382526024815260200180613e516024913960400191505060405180910390fd5b600073ffffffffffffffffffffffffffffffffffffffff168273ffffffffffffffffffffffffffffffffffffffff1614156126d6576040517f08c379a0000000000000000000000000000000000000000000000000000000008152600401808060200182810382526022815260200180613c8b6022913960400191505060405180910390fd5b80600660008573ffffffffffffffffffffffffffffffffffffffff1673ffffffffffffffffffffffffffffffffffffffff16815260200190815260200160002060008473ffffffffffffffffffffffffffffffffffffffff1673ffffffffffffffffffffffffffffffffffffffff168152602001908152602001600020819055508173ffffffffffffffffffffffffffffffffffffffff168373ffffffffffffffffffffffffffffffffffffffff167f8c5be1e5ebec7d5bd14f71427d1e84f3dd0314c0f7b2291e5b200ac8c7c3b925836040518082815260200191505060405180910390a3505050565b600073ffffffffffffffffffffffffffffffffffffffff168273ffffffffffffffffffffffffffffffffffffffff161415612847576040517f08c379a0000000000000000000000000000000000000000000000000000000008152600401808060200182810382526021815260200180613dc26021913960400191505060405180910390fd5b600081116128a0576040517f08c379a0000000000000000000000000000000000000000000000000000000008152600401808060200182810382526031815260200180613cfd6031913960400191505060405180910390fd5b806128aa8361315a565b1015612901576040517f08c379a000000000000000000000000000000000000000000000000000000000815260040180806020018281038252602e815260200180613bef602e913960400191505060405180910390fd5b61290b828261346f565b508173ffffffffffffffffffffffffffffffffffffffff167f36a0b989202af25b5d49a593a1dd43461453ef93a93a7846ea3dbb487e119800826040518082815260200191505060405180910390a26129ac81600560008573ffffffffffffffffffffffffffffffffffffffff1673ffffffffffffffffffffffffffffffffffffffff16815260200190815260200160002054612d4390919063ffffffff16565b600560008473ffffffffffffffffffffffffffffffffffffffff1673ffffffffffffffffffffffffffffffffffffffff168152602001908152602001600020819055505050565b600073ffffffffffffffffffffffffffffffffffffffff168273ffffffffffffffffffffffffffffffffffffffff161415612a79576040517f08c379a0000000000000000000000000000000000000000000000000000000008152600401808060200182810382526028815260200180613e046028913960400191505060405180910390fd5b612a8e816007546135ad90919063ffffffff16565b600781905550612a9e828261346f565b503073ffffffffffffffffffffffffffffffffffffffff168273ffffffffffffffffffffffffffffffffffffffff167fddf252ad1be2c89b69c2b068fc378daa952ba7f163c4a11628f55a4df523b3ef836040518082815260200191505060405180910390a35050565b6000600c54118015612b6a575060011515600d60008473ffffffffffffffffffffffffffffffffffffffff1673ffffffffffffffffffffffffffffffffffffffff16815260200190815260200160002060009054906101000a900460ff161515145b8015612ba35750600073ffffffffffffffffffffffffffffffffffffffff168273ffffffffffffffffffffffffffffffffffffffff1614155b8015612bfe5750600073ffffffffffffffffffffffffffffffffffffffff16600b60019054906101000a900473ffffffffffffffffffffffffffffffffffffffff1673ffffffffffffffffffffffffffffffffffffffff1614155b15612c73576000612c2d6064612c1f600c54856135f790919063ffffffff16565b61367d90919063ffffffff16565b9050612c5c84600b60019054906101000a900473ffffffffffffffffffffffffffffffffffffffff16836136c7565b612c6f81836135ad90919063ffffffff16565b9150505b612c7e8383836136c7565b505050565b6000838311158290612d30576040517f08c379a00000000000000000000000000000000000000000000000000000000081526004018080602001828103825283818151815260200191508051906020019080838360005b83811015612cf5578082015181840152602081019050612cda565b50505050905090810190601f168015612d225780820380516001836020036101000a031916815260200191505b509250505060405180910390fd5b5060008385039050809150509392505050565b600080828401905083811015612dc1576040517f08c379a000000000000000000000000000000000000000000000000000000000815260040180806020018281038252601b8152602001807f536166654d6174683a206164646974696f6e206f766572666c6f77000000000081525060200191505060405180910390fd5b8091505092915050565b600073ffffffffffffffffffffffffffffffffffffffff168273ffffffffffffffffffffffffffffffffffffffff161415612e6e576040517f08c379a000000000000000000000000000000000000000000000000000000000815260040180806020018281038252601f8152602001807f45524332303a206d696e7420746f20746865207a65726f20616464726573730081525060200191505060405180910390fd5b612e7a6000838361398c565b612e8f81600754612d4390919063ffffffff16565b600781905550612ee781600560008573ffffffffffffffffffffffffffffffffffffffff1673ffffffffffffffffffffffffffffffffffffffff16815260200190815260200160002054612d4390919063ffffffff16565b600560008473ffffffffffffffffffffffffffffffffffffffff1673ffffffffffffffffffffffffffffffffffffffff168152602001908152602001600020819055508173ffffffffffffffffffffffffffffffffffffffff16600073ffffffffffffffffffffffffffffffffffffffff167fddf252ad1be2c89b69c2b068fc378daa952ba7f163c4a11628f55a4df523b3ef836040518082815260200191505060405180910390a35050565b600073ffffffffffffffffffffffffffffffffffffffff168273ffffffffffffffffffffffffffffffffffffffff16141561301a576040517f08c379a0000000000000000000000000000000000000000000000000000000008152600401808060200182810382526021815260200180613de36021913960400191505060405180910390fd5b6130268260008361398c565b61309281604051806060016040528060228152602001613c1d60229139600560008673ffffffffffffffffffffffffffffffffffffffff1673ffffffffffffffffffffffffffffffffffffffff16815260200190815260200160002054612c839092919063ffffffff16565b600560008473ffffffffffffffffffffffffffffffffffffffff1673ffffffffffffffffffffffffffffffffffffffff168152602001908152602001600020819055506130ea816007546135ad90919063ffffffff16565b600781905550600073ffffffffffffffffffffffffffffffffffffffff168273ffffffffffffffffffffffffffffffffffffffff167fddf252ad1be2c89b69c2b068fc378daa952ba7f163c4a11628f55a4df523b3ef836040518082815260200191505060405180910390a35050565b60008060008373ffffffffffffffffffffffffffffffffffffffff1673ffffffffffffffffffffffffffffffffffffffff168152602001908152602001600020549050919050565b600073ffffffffffffffffffffffffffffffffffffffff168273ffffffffffffffffffffffffffffffffffffffff161415613228576040517f08c379a0000000000000000000000000000000000000000000000000000000008152600401808060200182810382526026815260200180613c3f6026913960400191505060405180910390fd5b3073ffffffffffffffffffffffffffffffffffffffff168273ffffffffffffffffffffffffffffffffffffffff1614156132ad576040517f08c379a000000000000000000000000000000000000000000000000000000000815260040180806020018281038252602a815260200180613cad602a913960400191505060405180910390fd5b60008111613306576040517f08c379a0000000000000000000000000000000000000000000000000000000008152600401808060200182810382526027815260200180613d2e6027913960400191505060405180910390fd5b60085461331e82600754612d4390919063ffffffff16565b1115613392576040517f08c379a00000000000000000000000000000000000000000000000000000000081526004018080602001828103825260208152602001807f45524332304361707065643a206d617820737570706c7920657863656564656481525060200191505060405180910390fd5b6133a781600754612d4390919063ffffffff16565b6007819055508173ffffffffffffffffffffffffffffffffffffffff163073ffffffffffffffffffffffffffffffffffffffff167fddf252ad1be2c89b69c2b068fc378daa952ba7f163c4a11628f55a4df523b3ef836040518082815260200191505060405180910390a361341c828261350e565b508173ffffffffffffffffffffffffffffffffffffffff167fba89ad6709373f454c31524e8c39cef3cdd4b0e8cfde0ccddbd419a2e488be6b826040518082815260200191505060405180910390a25050565b60006134c2826000808673ffffffffffffffffffffffffffffffffffffffff1673ffffffffffffffffffffffffffffffffffffffff168152602001908152602001600020546135ad90919063ffffffff16565b6000808573ffffffffffffffffffffffffffffffffffffffff1673ffffffffffffffffffffffffffffffffffffffff168152602001908152602001600020819055506001905092915050565b6000613561826000808673ffffffffffffffffffffffffffffffffffffffff1673ffffffffffffffffffffffffffffffffffffffff16815260200190815260200160002054612d4390919063ffffffff16565b6000808573ffffffffffffffffffffffffffffffffffffffff1673ffffffffffffffffffffffffffffffffffffffff168152602001908152602001600020819055506001905092915050565b60006135ef83836040518060400160405280601e81526020017f536166654d6174683a207375627472616374696f6e206f766572666c6f770000815250612c83565b905092915050565b60008083141561360a5760009050613677565b600082840290508284828161361b57fe5b0414613672576040517f08c379a0000000000000000000000000000000000000000000000000000000008152600401808060200182810382526021815260200180613d556021913960400191505060405180910390fd5b809150505b92915050565b60006136bf83836040518060400160405280601a81526020017f536166654d6174683a206469766973696f6e206279207a65726f000000000000815250613a68565b905092915050565b600073ffffffffffffffffffffffffffffffffffffffff168373ffffffffffffffffffffffffffffffffffffffff16141561374d576040517f08c379a0000000000000000000000000000000000000000000000000000000008152600401808060200182810382526025815260200180613e2c6025913960400191505060405180910390fd5b600073ffffffffffffffffffffffffffffffffffffffff168273ffffffffffffffffffffffffffffffffffffffff1614156137d3576040517f08c379a0000000000000000000000000000000000000000000000000000000008152600401808060200182810382526023815260200180613bcc6023913960400191505060405180910390fd5b6137de83838361398c565b61384a81604051806060016040528060268152602001613cd760269139600560008773ffffffffffffffffffffffffffffffffffffffff1673ffffffffffffffffffffffffffffffffffffffff16815260200190815260200160002054612c839092919063ffffffff16565b600560008573ffffffffffffffffffffffffffffffffffffffff1673ffffffffffffffffffffffffffffffffffffffff168152602001908152602001600020819055506138df81600560008573ffffffffffffffffffffffffffffffffffffffff1673ffffffffffffffffffffffffffffffffffffffff16815260200190815260200160002054612d4390919063ffffffff16565b600560008473ffffffffffffffffffffffffffffffffffffffff1673ffffffffffffffffffffffffffffffffffffffff168152602001908152602001600020819055508173ffffffffffffffffffffffffffffffffffffffff168373ffffffffffffffffffffffffffffffffffffffff167fddf252ad1be2c89b69c2b068fc378daa952ba7f163c4a11628f55a4df523b3ef836040518082815260200191505060405180910390a3505050565b613997838383613b2e565b600073ffffffffffffffffffffffffffffffffffffffff168373ffffffffffffffffffffffffffffffffffffffff161415613a63576139d4611f44565b6139ee826139e0610ec1565b612d4390919063ffffffff16565b1115613a62576040517f08c379a00000000000000000000000000000000000000000000000000000000081526004018080602001828103825260208152602001807f45524332304361707065643a206d617820737570706c7920657863656564656481525060200191505060405180910390fd5b5b505050565b60008083118290613b14576040517f08c379a00000000000000000000000000000000000000000000000000000000081526004018080602001828103825283818151815260200191508051906020019080838360005b83811015613ad9578082015181840152602081019050613abe565b50505050905090810190601f168015613b065780820380516001836020036101000a031916815260200191505b509250505060405180910390fd5b506000838581613b2057fe5b049050809150509392505050565b80600560008573ffffffffffffffffffffffffffffffffffffffff1673ffffffffffffffffffffffffffffffffffffffff168152602001908152602001600020541015613bc6576040517f08c379a0000000000000000000000000000000000000000000000000000000008152600401808060200182810382526026815260200180613cd76026913960400191505060405180910390fd5b50505056fe45524332303a207472616e7366657220746f20746865207a65726f206164647265737345524332303a206d656c742066726f6d2074686520616464726573733a2062616c616e6365203c20616d6f756e7445524332303a206275726e20616d6f756e7420657863656564732062616c616e636545524332303a206d696e742066726f7a656e20746f20746865207a65726f20616464726573734f776e61626c653a206e6577206f776e657220697320746865207a65726f206164647265737345524332303a20617070726f766520746f20746865207a65726f206164647265737345524332303a206d696e742066726f7a656e20746f2074686520636f6e7472616374206164647265737345524332303a207472616e7366657220616d6f756e7420657863656564732062616c616e636545524332303a206d656c742066726f6d2074686520616464726573733a2076616c75652073686f756c64206265203e203045524332303a206d696e742066726f7a656e20616d6f756e742073686f756c64206265203e2030536166654d6174683a206d756c7469706c69636174696f6e206f766572666c6f7745524332303a207472616e7366657220616d6f756e74206578636565647320616c6c6f77616e636545524332303a206275726e20616d6f756e74206578636565647320616c6c6f77616e636545524332303a206d656c742066726f6d20746865207a65726f206164647265737345524332303a206275726e2066726f6d20746865207a65726f206164647265737345524332303a2066726f7a656e206275726e2066726f6d20746865207a65726f206164647265737345524332303a207472616e736665722066726f6d20746865207a65726f206164647265737345524332303a20617070726f76652066726f6d20746865207a65726f206164647265737363616c6c6572206e6f7420612070656e64696e67206d656c7465722061646d696e45524332303a2064656372656173656420616c6c6f77616e63652062656c6f77207a65726fa264697066735822122003591561f6e763bf96d2d6ac3b8afc183383e7dc463c073b1081a0b710b46eff64736f6c634300060c0033",
					"opcodes": "PUSH1 0x80 PUSH1 0x40 MSTORE CALLVALUE DUP1 ISZERO PUSH3 0x11 JUMPI PUSH1 0x0 DUP1 REVERT JUMPDEST POP PUSH1 0x40 MLOAD DUP1 PUSH1 0x40 ADD PUSH1 0x40 MSTORE DUP1 PUSH1 0x19 DUP2 MSTORE PUSH1 0x20 ADD PUSH32 0x53616E637469205175657374204F6E2046726F6E746C696E6500000000000000 DUP2 MSTORE POP PUSH1 0x40 MLOAD DUP1 PUSH1 0x40 ADD PUSH1 0x40 MSTORE DUP1 PUSH1 0x3 DUP2 MSTORE PUSH1 0x20 ADD PUSH32 0x5351460000000000000000000000000000000000000000000000000000000000 DUP2 MSTORE POP PUSH13 0x4350EDEF012DC126788340000 PUSH13 0x3397512E5D86A2960D0680000 PUSH1 0x0 PUSH3 0xAC PUSH3 0x2D7 PUSH1 0x20 SHL PUSH1 0x20 SHR JUMP JUMPDEST SWAP1 POP DUP1 PUSH1 0x1 PUSH1 0x0 PUSH2 0x100 EXP DUP2 SLOAD DUP2 PUSH20 0xFFFFFFFFFFFFFFFFFFFFFFFFFFFFFFFFFFFFFFFF MUL NOT AND SWAP1 DUP4 PUSH20 0xFFFFFFFFFFFFFFFFFFFFFFFFFFFFFFFFFFFFFFFF AND MUL OR SWAP1 SSTORE POP DUP1 PUSH20 0xFFFFFFFFFFFFFFFFFFFFFFFFFFFFFFFFFFFFFFFF AND PUSH1 0x0 PUSH20 0xFFFFFFFFFFFFFFFFFFFFFFFFFFFFFFFFFFFFFFFF AND PUSH32 0x8BE0079C531659141344CD1FD0A4F28419497F9722A3DAAFE3B4186F6B6457E0 PUSH1 0x40 MLOAD PUSH1 0x40 MLOAD DUP1 SWAP2 SUB SWAP1 LOG3 POP CALLER PUSH1 0x3 PUSH1 0x0 PUSH2 0x100 EXP DUP2 SLOAD DUP2 PUSH20 0xFFFFFFFFFFFFFFFFFFFFFFFFFFFFFFFFFFFFFFFF MUL NOT AND SWAP1 DUP4 PUSH20 0xFFFFFFFFFFFFFFFFFFFFFFFFFFFFFFFFFFFFFFFF AND MUL OR SWAP1 SSTORE POP PUSH1 0x1 PUSH1 0x2 PUSH1 0x0 CALLER PUSH20 0xFFFFFFFFFFFFFFFFFFFFFFFFFFFFFFFFFFFFFFFF AND PUSH20 0xFFFFFFFFFFFFFFFFFFFFFFFFFFFFFFFFFFFFFFFF AND DUP2 MSTORE PUSH1 0x20 ADD SWAP1 DUP2 MSTORE PUSH1 0x20 ADD PUSH1 0x0 KECCAK256 PUSH1 0x0 PUSH2 0x100 EXP DUP2 SLOAD DUP2 PUSH1 0xFF MUL NOT AND SWAP1 DUP4 ISZERO ISZERO MUL OR SWAP1 SSTORE POP DUP4 PUSH1 0x9 SWAP1 DUP1 MLOAD SWAP1 PUSH1 0x20 ADD SWAP1 PUSH3 0x1FC SWAP3 SWAP2 SWAP1 PUSH3 0x2DF JUMP JUMPDEST POP DUP3 PUSH1 0xA SWAP1 DUP1 MLOAD SWAP1 PUSH1 0x20 ADD SWAP1 PUSH3 0x215 SWAP3 SWAP2 SWAP1 PUSH3 0x2DF JUMP JUMPDEST POP PUSH1 0x12 PUSH1 0xB PUSH1 0x0 PUSH2 0x100 EXP DUP2 SLOAD DUP2 PUSH1 0xFF MUL NOT AND SWAP1 DUP4 PUSH1 0xFF AND MUL OR SWAP1 SSTORE POP DUP2 PUSH1 0x8 DUP2 SWAP1 SSTORE POP DUP1 PUSH1 0x7 DUP2 SWAP1 SSTORE POP DUP1 PUSH1 0x5 PUSH1 0x0 CALLER PUSH20 0xFFFFFFFFFFFFFFFFFFFFFFFFFFFFFFFFFFFFFFFF AND PUSH20 0xFFFFFFFFFFFFFFFFFFFFFFFFFFFFFFFFFFFFFFFF AND DUP2 MSTORE PUSH1 0x20 ADD SWAP1 DUP2 MSTORE PUSH1 0x20 ADD PUSH1 0x0 KECCAK256 DUP2 SWAP1 SSTORE POP POP POP POP POP CALLER PUSH1 0xB PUSH1 0x1 PUSH2 0x100 EXP DUP2 SLOAD DUP2 PUSH20 0xFFFFFFFFFFFFFFFFFFFFFFFFFFFFFFFFFFFFFFFF MUL NOT AND SWAP1 DUP4 PUSH20 0xFFFFFFFFFFFFFFFFFFFFFFFFFFFFFFFFFFFFFFFF AND MUL OR SWAP1 SSTORE POP PUSH1 0x0 PUSH1 0xC DUP2 SWAP1 SSTORE POP PUSH3 0x385 JUMP JUMPDEST PUSH1 0x0 CALLER SWAP1 POP SWAP1 JUMP JUMPDEST DUP3 DUP1 SLOAD PUSH1 0x1 DUP2 PUSH1 0x1 AND ISZERO PUSH2 0x100 MUL SUB AND PUSH1 0x2 SWAP1 DIV SWAP1 PUSH1 0x0 MSTORE PUSH1 0x20 PUSH1 0x0 KECCAK256 SWAP1 PUSH1 0x1F ADD PUSH1 0x20 SWAP1 DIV DUP2 ADD SWAP3 DUP3 PUSH1 0x1F LT PUSH3 0x322 JUMPI DUP1 MLOAD PUSH1 0xFF NOT AND DUP4 DUP1 ADD OR DUP6 SSTORE PUSH3 0x353 JUMP JUMPDEST DUP3 DUP1 ADD PUSH1 0x1 ADD DUP6 SSTORE DUP3 ISZERO PUSH3 0x353 JUMPI SWAP2 DUP3 ADD JUMPDEST DUP3 DUP2 GT ISZERO PUSH3 0x352 JUMPI DUP3 MLOAD DUP3 SSTORE SWAP2 PUSH1 0x20 ADD SWAP2 SWAP1 PUSH1 0x1 ADD SWAP1 PUSH3 0x335 JUMP JUMPDEST JUMPDEST POP SWAP1 POP PUSH3 0x362 SWAP2 SWAP1 PUSH3 0x366 JUMP JUMPDEST POP SWAP1 JUMP JUMPDEST JUMPDEST DUP1 DUP3 GT ISZERO PUSH3 0x381 JUMPI PUSH1 0x0 DUP2 PUSH1 0x0 SWAP1 SSTORE POP PUSH1 0x1 ADD PUSH3 0x367 JUMP JUMPDEST POP SWAP1 JUMP JUMPDEST PUSH2 0x3EF0 DUP1 PUSH3 0x395 PUSH1 0x0 CODECOPY PUSH1 0x0 RETURN INVALID PUSH1 0x80 PUSH1 0x40 MSTORE CALLVALUE DUP1 ISZERO PUSH2 0x10 JUMPI PUSH1 0x0 DUP1 REVERT JUMPDEST POP PUSH1 0x4 CALLDATASIZE LT PUSH2 0x211 JUMPI PUSH1 0x0 CALLDATALOAD PUSH1 0xE0 SHR DUP1 PUSH4 0x715018A6 GT PUSH2 0x125 JUMPI DUP1 PUSH4 0xA9059CBB GT PUSH2 0xAD JUMPI DUP1 PUSH4 0xD5ABEB01 GT PUSH2 0x7C JUMPI DUP1 PUSH4 0xD5ABEB01 EQ PUSH2 0xAAF JUMPI DUP1 PUSH4 0xD8DA5CE9 EQ PUSH2 0xACD JUMPI DUP1 PUSH4 0xDD62ED3E EQ PUSH2 0xB11 JUMPI DUP1 PUSH4 0xE50D3180 EQ PUSH2 0xB89 JUMPI DUP1 PUSH4 0xF2FDE38B EQ PUSH2 0xC0D JUMPI PUSH2 0x211 JUMP JUMPDEST DUP1 PUSH4 0xA9059CBB EQ PUSH2 0x975 JUMPI DUP1 PUSH4 0xB2855B4F EQ PUSH2 0x9D9 JUMPI DUP1 PUSH4 0xC4157B29 EQ PUSH2 0xA1D JUMPI DUP1 PUSH4 0xC894E1E5 EQ PUSH2 0xA81 JUMPI PUSH2 0x211 JUMP JUMPDEST DUP1 PUSH4 0x91116D67 GT PUSH2 0xF4 JUMPI DUP1 PUSH4 0x91116D67 EQ PUSH2 0x7BE JUMPI DUP1 PUSH4 0x95D89B41 EQ PUSH2 0x802 JUMPI DUP1 PUSH4 0xA0821BE3 EQ PUSH2 0x885 JUMPI DUP1 PUSH4 0xA457C2D7 EQ PUSH2 0x8DD JUMPI DUP1 PUSH4 0xA64F714C EQ PUSH2 0x941 JUMPI PUSH2 0x211 JUMP JUMPDEST DUP1 PUSH4 0x715018A6 EQ PUSH2 0x6D8 JUMPI DUP1 PUSH4 0x79CC6790 EQ PUSH2 0x6E2 JUMPI DUP1 PUSH4 0x8DA5CB5B EQ PUSH2 0x746 JUMPI DUP1 PUSH4 0x8FE8CF24 EQ PUSH2 0x77A JUMPI PUSH2 0x211 JUMP JUMPDEST DUP1 PUSH4 0x313CE567 GT PUSH2 0x1A8 JUMPI DUP1 PUSH4 0x40C10F19 GT PUSH2 0x177 JUMPI DUP1 PUSH4 0x40C10F19 EQ PUSH2 0x576 JUMPI DUP1 PUSH4 0x42966C68 EQ PUSH2 0x5C4 JUMPI DUP1 PUSH4 0x483A8DF9 EQ PUSH2 0x608 JUMPI DUP1 PUSH4 0x70766280 EQ PUSH2 0x64C JUMPI DUP1 PUSH4 0x70A08231 EQ PUSH2 0x680 JUMPI PUSH2 0x211 JUMP JUMPDEST DUP1 PUSH4 0x313CE567 EQ PUSH2 0x49F JUMPI DUP1 PUSH4 0x351BF518 EQ PUSH2 0x4C0 JUMPI DUP1 PUSH4 0x35CDE1CE EQ PUSH2 0x4DE JUMPI DUP1 PUSH4 0x39509351 EQ PUSH2 0x512 JUMPI PUSH2 0x211 JUMP JUMPDEST DUP1 PUSH4 0x18160DDD GT PUSH2 0x1E4 JUMPI DUP1 PUSH4 0x18160DDD EQ PUSH2 0x3AF JUMPI DUP1 PUSH4 0x1E57A2B2 EQ PUSH2 0x3CD JUMPI DUP1 PUSH4 0x238FD731 EQ PUSH2 0x3D7 JUMPI DUP1 PUSH4 0x23B872DD EQ PUSH2 0x41B JUMPI PUSH2 0x211 JUMP JUMPDEST DUP1 PUSH4 0x6FDDE03 EQ PUSH2 0x216 JUMPI DUP1 PUSH4 0x95EA7B3 EQ PUSH2 0x299 JUMPI DUP1 PUSH4 0xC15F601 EQ PUSH2 0x2FD JUMPI DUP1 PUSH4 0x171177B3 EQ PUSH2 0x361 JUMPI JUMPDEST PUSH1 0x0 DUP1 REVERT JUMPDEST PUSH2 0x21E PUSH2 0xC51 JUMP JUMPDEST PUSH1 0x40 MLOAD DUP1 DUP1 PUSH1 0x20 ADD DUP3 DUP2 SUB DUP3 MSTORE DUP4 DUP2 DUP2 MLOAD DUP2 MSTORE PUSH1 0x20 ADD SWAP2 POP DUP1 MLOAD SWAP1 PUSH1 0x20 ADD SWAP1 DUP1 DUP4 DUP4 PUSH1 0x0 JUMPDEST DUP4 DUP2 LT ISZERO PUSH2 0x25E JUMPI DUP1 DUP3 ADD MLOAD DUP2 DUP5 ADD MSTORE PUSH1 0x20 DUP2 ADD SWAP1 POP PUSH2 0x243 JUMP JUMPDEST POP POP POP POP SWAP1 POP SWAP1 DUP2 ADD SWAP1 PUSH1 0x1F AND DUP1 ISZERO PUSH2 0x28B JUMPI DUP1 DUP3 SUB DUP1 MLOAD PUSH1 0x1 DUP4 PUSH1 0x20 SUB PUSH2 0x100 EXP SUB NOT AND DUP2 MSTORE PUSH1 0x20 ADD SWAP2 POP JUMPDEST POP SWAP3 POP POP POP PUSH1 0x40 MLOAD DUP1 SWAP2 SUB SWAP1 RETURN JUMPDEST PUSH2 0x2E5 PUSH1 0x4 DUP1 CALLDATASIZE SUB PUSH1 0x40 DUP2 LT ISZERO PUSH2 0x2AF JUMPI PUSH1 0x0 DUP1 REVERT JUMPDEST DUP2 ADD SWAP1 DUP1 DUP1 CALLDATALOAD PUSH20 0xFFFFFFFFFFFFFFFFFFFFFFFFFFFFFFFFFFFFFFFF AND SWAP1 PUSH1 0x20 ADD SWAP1 SWAP3 SWAP2 SWAP1 DUP1 CALLDATALOAD SWAP1 PUSH1 0x20 ADD SWAP1 SWAP3 SWAP2 SWAP1 POP POP POP PUSH2 0xCF3 JUMP JUMPDEST PUSH1 0x40 MLOAD DUP1 DUP3 ISZERO ISZERO DUP2 MSTORE PUSH1 0x20 ADD SWAP2 POP POP PUSH1 0x40 MLOAD DUP1 SWAP2 SUB SWAP1 RETURN JUMPDEST PUSH2 0x349 PUSH1 0x4 DUP1 CALLDATASIZE SUB PUSH1 0x40 DUP2 LT ISZERO PUSH2 0x313 JUMPI PUSH1 0x0 DUP1 REVERT JUMPDEST DUP2 ADD SWAP1 DUP1 DUP1 CALLDATALOAD PUSH20 0xFFFFFFFFFFFFFFFFFFFFFFFFFFFFFFFFFFFFFFFF AND SWAP1 PUSH1 0x20 ADD SWAP1 SWAP3 SWAP2 SWAP1 DUP1 CALLDATALOAD SWAP1 PUSH1 0x20 ADD SWAP1 SWAP3 SWAP2 SWAP1 POP POP POP PUSH2 0xD11 JUMP JUMPDEST PUSH1 0x40 MLOAD DUP1 DUP3 ISZERO ISZERO DUP2 MSTORE PUSH1 0x20 ADD SWAP2 POP POP PUSH1 0x40 MLOAD DUP1 SWAP2 SUB SWAP1 RETURN JUMPDEST PUSH2 0x3AD PUSH1 0x4 DUP1 CALLDATASIZE SUB PUSH1 0x40 DUP2 LT ISZERO PUSH2 0x377 JUMPI PUSH1 0x0 DUP1 REVERT JUMPDEST DUP2 ADD SWAP1 DUP1 DUP1 CALLDATALOAD PUSH20 0xFFFFFFFFFFFFFFFFFFFFFFFFFFFFFFFFFFFFFFFF AND SWAP1 PUSH1 0x20 ADD SWAP1 SWAP3 SWAP2 SWAP1 DUP1 CALLDATALOAD SWAP1 PUSH1 0x20 ADD SWAP1 SWAP3 SWAP2 SWAP1 POP POP POP PUSH2 0xDED JUMP JUMPDEST STOP JUMPDEST PUSH2 0x3B7 PUSH2 0xEC1 JUMP JUMPDEST PUSH1 0x40 MLOAD DUP1 DUP3 DUP2 MSTORE PUSH1 0x20 ADD SWAP2 POP POP PUSH1 0x40 MLOAD DUP1 SWAP2 SUB SWAP1 RETURN JUMPDEST PUSH2 0x3D5 PUSH2 0xECB JUMP JUMPDEST STOP JUMPDEST PUSH2 0x419 PUSH1 0x4 DUP1 CALLDATASIZE SUB PUSH1 0x20 DUP2 LT ISZERO PUSH2 0x3ED JUMPI PUSH1 0x0 DUP1 REVERT JUMPDEST DUP2 ADD SWAP1 DUP1 DUP1 CALLDATALOAD PUSH20 0xFFFFFFFFFFFFFFFFFFFFFFFFFFFFFFFFFFFFFFFF AND SWAP1 PUSH1 0x20 ADD SWAP1 SWAP3 SWAP2 SWAP1 POP POP POP PUSH2 0x10B6 JUMP JUMPDEST STOP JUMPDEST PUSH2 0x487 PUSH1 0x4 DUP1 CALLDATASIZE SUB PUSH1 0x60 DUP2 LT ISZERO PUSH2 0x431 JUMPI PUSH1 0x0 DUP1 REVERT JUMPDEST DUP2 ADD SWAP1 DUP1 DUP1 CALLDATALOAD PUSH20 0xFFFFFFFFFFFFFFFFFFFFFFFFFFFFFFFFFFFFFFFF AND SWAP1 PUSH1 0x20 ADD SWAP1 SWAP3 SWAP2 SWAP1 DUP1 CALLDATALOAD PUSH20 0xFFFFFFFFFFFFFFFFFFFFFFFFFFFFFFFFFFFFFFFF AND SWAP1 PUSH1 0x20 ADD SWAP1 SWAP3 SWAP2 SWAP1 DUP1 CALLDATALOAD SWAP1 PUSH1 0x20 ADD SWAP1 SWAP3 SWAP2 SWAP1 POP POP POP PUSH2 0x11D4 JUMP JUMPDEST PUSH1 0x40 MLOAD DUP1 DUP3 ISZERO ISZERO DUP2 MSTORE PUSH1 0x20 ADD SWAP2 POP POP PUSH1 0x40 MLOAD DUP1 SWAP2 SUB SWAP1 RETURN JUMPDEST PUSH2 0x4A7 PUSH2 0x12AD JUMP JUMPDEST PUSH1 0x40 MLOAD DUP1 DUP3 PUSH1 0xFF AND DUP2 MSTORE PUSH1 0x20 ADD SWAP2 POP POP PUSH1 0x40 MLOAD DUP1 SWAP2 SUB SWAP1 RETURN JUMPDEST PUSH2 0x4C8 PUSH2 0x12C4 JUMP JUMPDEST PUSH1 0x40 MLOAD DUP1 DUP3 DUP2 MSTORE PUSH1 0x20 ADD SWAP2 POP POP PUSH1 0x40 MLOAD DUP1 SWAP2 SUB SWAP1 RETURN JUMPDEST PUSH2 0x4E6 PUSH2 0x12CA JUMP JUMPDEST PUSH1 0x40 MLOAD DUP1 DUP3 PUSH20 0xFFFFFFFFFFFFFFFFFFFFFFFFFFFFFFFFFFFFFFFF AND DUP2 MSTORE PUSH1 0x20 ADD SWAP2 POP POP PUSH1 0x40 MLOAD DUP1 SWAP2 SUB SWAP1 RETURN JUMPDEST PUSH2 0x55E PUSH1 0x4 DUP1 CALLDATASIZE SUB PUSH1 0x40 DUP2 LT ISZERO PUSH2 0x528 JUMPI PUSH1 0x0 DUP1 REVERT JUMPDEST DUP2 ADD SWAP1 DUP1 DUP1 CALLDATALOAD PUSH20 0xFFFFFFFFFFFFFFFFFFFFFFFFFFFFFFFFFFFFFFFF AND SWAP1 PUSH1 0x20 ADD SWAP1 SWAP3 SWAP2 SWAP1 DUP1 CALLDATALOAD SWAP1 PUSH1 0x20 ADD SWAP1 SWAP3 SWAP2 SWAP1 POP POP POP PUSH2 0x12F4 JUMP JUMPDEST PUSH1 0x40 MLOAD DUP1 DUP3 ISZERO ISZERO DUP2 MSTORE PUSH1 0x20 ADD SWAP2 POP POP PUSH1 0x40 MLOAD DUP1 SWAP2 SUB SWAP1 RETURN JUMPDEST PUSH2 0x5C2 PUSH1 0x4 DUP1 CALLDATASIZE SUB PUSH1 0x40 DUP2 LT ISZERO PUSH2 0x58C JUMPI PUSH1 0x0 DUP1 REVERT JUMPDEST DUP2 ADD SWAP1 DUP1 DUP1 CALLDATALOAD PUSH20 0xFFFFFFFFFFFFFFFFFFFFFFFFFFFFFFFFFFFFFFFF AND SWAP1 PUSH1 0x20 ADD SWAP1 SWAP3 SWAP2 SWAP1 DUP1 CALLDATALOAD SWAP1 PUSH1 0x20 ADD SWAP1 SWAP3 SWAP2 SWAP1 POP POP POP PUSH2 0x13A7 JUMP JUMPDEST STOP JUMPDEST PUSH2 0x5F0 PUSH1 0x4 DUP1 CALLDATASIZE SUB PUSH1 0x20 DUP2 LT ISZERO PUSH2 0x5DA JUMPI PUSH1 0x0 DUP1 REVERT JUMPDEST DUP2 ADD SWAP1 DUP1 DUP1 CALLDATALOAD SWAP1 PUSH1 0x20 ADD SWAP1 SWAP3 SWAP2 SWAP1 POP POP POP PUSH2 0x147F JUMP JUMPDEST PUSH1 0x40 MLOAD DUP1 DUP3 ISZERO ISZERO DUP2 MSTORE PUSH1 0x20 ADD SWAP2 POP POP PUSH1 0x40 MLOAD DUP1 SWAP2 SUB SWAP1 RETURN JUMPDEST PUSH2 0x64A PUSH1 0x4 DUP1 CALLDATASIZE SUB PUSH1 0x20 DUP2 LT ISZERO PUSH2 0x61E JUMPI PUSH1 0x0 DUP1 REVERT JUMPDEST DUP2 ADD SWAP1 DUP1 DUP1 CALLDATALOAD PUSH20 0xFFFFFFFFFFFFFFFFFFFFFFFFFFFFFFFFFFFFFFFF AND SWAP1 PUSH1 0x20 ADD SWAP1 SWAP3 SWAP2 SWAP1 POP POP POP PUSH2 0x149B JUMP JUMPDEST STOP JUMPDEST PUSH2 0x654 PUSH2 0x15A2 JUMP JUMPDEST PUSH1 0x40 MLOAD DUP1 DUP3 PUSH20 0xFFFFFFFFFFFFFFFFFFFFFFFFFFFFFFFFFFFFFFFF AND DUP2 MSTORE PUSH1 0x20 ADD SWAP2 POP POP PUSH1 0x40 MLOAD DUP1 SWAP2 SUB SWAP1 RETURN JUMPDEST PUSH2 0x6C2 PUSH1 0x4 DUP1 CALLDATASIZE SUB PUSH1 0x20 DUP2 LT ISZERO PUSH2 0x696 JUMPI PUSH1 0x0 DUP1 REVERT JUMPDEST DUP2 ADD SWAP1 DUP1 DUP1 CALLDATALOAD PUSH20 0xFFFFFFFFFFFFFFFFFFFFFFFFFFFFFFFFFFFFFFFF AND SWAP1 PUSH1 0x20 ADD SWAP1 SWAP3 SWAP2 SWAP1 POP POP POP PUSH2 0x15C8 JUMP JUMPDEST PUSH1 0x40 MLOAD DUP1 DUP3 DUP2 MSTORE PUSH1 0x20 ADD SWAP2 POP POP PUSH1 0x40 MLOAD DUP1 SWAP2 SUB SWAP1 RETURN JUMPDEST PUSH2 0x6E0 PUSH2 0x162B JUMP JUMPDEST STOP JUMPDEST PUSH2 0x72E PUSH1 0x4 DUP1 CALLDATASIZE SUB PUSH1 0x40 DUP2 LT ISZERO PUSH2 0x6F8 JUMPI PUSH1 0x0 DUP1 REVERT JUMPDEST DUP2 ADD SWAP1 DUP1 DUP1 CALLDATALOAD PUSH20 0xFFFFFFFFFFFFFFFFFFFFFFFFFFFFFFFFFFFFFFFF AND SWAP1 PUSH1 0x20 ADD SWAP1 SWAP3 SWAP2 SWAP1 DUP1 CALLDATALOAD SWAP1 PUSH1 0x20 ADD SWAP1 SWAP3 SWAP2 SWAP1 POP POP POP PUSH2 0x17B6 JUMP JUMPDEST PUSH1 0x40 MLOAD DUP1 DUP3 ISZERO ISZERO DUP2 MSTORE PUSH1 0x20 ADD SWAP2 POP POP PUSH1 0x40 MLOAD DUP1 SWAP2 SUB SWAP1 RETURN JUMPDEST PUSH2 0x74E PUSH2 0x181F JUMP JUMPDEST PUSH1 0x40 MLOAD DUP1 DUP3 PUSH20 0xFFFFFFFFFFFFFFFFFFFFFFFFFFFFFFFFFFFFFFFF AND DUP2 MSTORE PUSH1 0x20 ADD SWAP2 POP POP PUSH1 0x40 MLOAD DUP1 SWAP2 SUB SWAP1 RETURN JUMPDEST PUSH2 0x7BC PUSH1 0x4 DUP1 CALLDATASIZE SUB PUSH1 0x20 DUP2 LT ISZERO PUSH2 0x790 JUMPI PUSH1 0x0 DUP1 REVERT JUMPDEST DUP2 ADD SWAP1 DUP1 DUP1 CALLDATALOAD PUSH20 0xFFFFFFFFFFFFFFFFFFFFFFFFFFFFFFFFFFFFFFFF AND SWAP1 PUSH1 0x20 ADD SWAP1 SWAP3 SWAP2 SWAP1 POP POP POP PUSH2 0x1849 JUMP JUMPDEST STOP JUMPDEST PUSH2 0x800 PUSH1 0x4 DUP1 CALLDATASIZE SUB PUSH1 0x20 DUP2 LT ISZERO PUSH2 0x7D4 JUMPI PUSH1 0x0 DUP1 REVERT JUMPDEST DUP2 ADD SWAP1 DUP1 DUP1 CALLDATALOAD PUSH20 0xFFFFFFFFFFFFFFFFFFFFFFFFFFFFFFFFFFFFFFFF AND SWAP1 PUSH1 0x20 ADD SWAP1 SWAP3 SWAP2 SWAP1 POP POP POP PUSH2 0x1965 JUMP JUMPDEST STOP JUMPDEST PUSH2 0x80A PUSH2 0x1A8A JUMP JUMPDEST PUSH1 0x40 MLOAD DUP1 DUP1 PUSH1 0x20 ADD DUP3 DUP2 SUB DUP3 MSTORE DUP4 DUP2 DUP2 MLOAD DUP2 MSTORE PUSH1 0x20 ADD SWAP2 POP DUP1 MLOAD SWAP1 PUSH1 0x20 ADD SWAP1 DUP1 DUP4 DUP4 PUSH1 0x0 JUMPDEST DUP4 DUP2 LT ISZERO PUSH2 0x84A JUMPI DUP1 DUP3 ADD MLOAD DUP2 DUP5 ADD MSTORE PUSH1 0x20 DUP2 ADD SWAP1 POP PUSH2 0x82F JUMP JUMPDEST POP POP POP POP SWAP1 POP SWAP1 DUP2 ADD SWAP1 PUSH1 0x1F AND DUP1 ISZERO PUSH2 0x877 JUMPI DUP1 DUP3 SUB DUP1 MLOAD PUSH1 0x1 DUP4 PUSH1 0x20 SUB PUSH2 0x100 EXP SUB NOT AND DUP2 MSTORE PUSH1 0x20 ADD SWAP2 POP JUMPDEST POP SWAP3 POP POP POP PUSH1 0x40 MLOAD DUP1 SWAP2 SUB SWAP1 RETURN JUMPDEST PUSH2 0x8C7 PUSH1 0x4 DUP1 CALLDATASIZE SUB PUSH1 0x20 DUP2 LT ISZERO PUSH2 0x89B JUMPI PUSH1 0x0 DUP1 REVERT JUMPDEST DUP2 ADD SWAP1 DUP1 DUP1 CALLDATALOAD PUSH20 0xFFFFFFFFFFFFFFFFFFFFFFFFFFFFFFFFFFFFFFFF AND SWAP1 PUSH1 0x20 ADD SWAP1 SWAP3 SWAP2 SWAP1 POP POP POP PUSH2 0x1B2C JUMP JUMPDEST PUSH1 0x40 MLOAD DUP1 DUP3 DUP2 MSTORE PUSH1 0x20 ADD SWAP2 POP POP PUSH1 0x40 MLOAD DUP1 SWAP2 SUB SWAP1 RETURN JUMPDEST PUSH2 0x929 PUSH1 0x4 DUP1 CALLDATASIZE SUB PUSH1 0x40 DUP2 LT ISZERO PUSH2 0x8F3 JUMPI PUSH1 0x0 DUP1 REVERT JUMPDEST DUP2 ADD SWAP1 DUP1 DUP1 CALLDATALOAD PUSH20 0xFFFFFFFFFFFFFFFFFFFFFFFFFFFFFFFFFFFFFFFF AND SWAP1 PUSH1 0x20 ADD SWAP1 SWAP3 SWAP2 SWAP1 DUP1 CALLDATALOAD SWAP1 PUSH1 0x20 ADD SWAP1 SWAP3 SWAP2 SWAP1 POP POP POP PUSH2 0x1B75 JUMP JUMPDEST PUSH1 0x40 MLOAD DUP1 DUP3 ISZERO ISZERO DUP2 MSTORE PUSH1 0x20 ADD SWAP2 POP POP PUSH1 0x40 MLOAD DUP1 SWAP2 SUB SWAP1 RETURN JUMPDEST PUSH2 0x949 PUSH2 0x1C42 JUMP JUMPDEST PUSH1 0x40 MLOAD DUP1 DUP3 PUSH20 0xFFFFFFFFFFFFFFFFFFFFFFFFFFFFFFFFFFFFFFFF AND DUP2 MSTORE PUSH1 0x20 ADD SWAP2 POP POP PUSH1 0x40 MLOAD DUP1 SWAP2 SUB SWAP1 RETURN JUMPDEST PUSH2 0x9C1 PUSH1 0x4 DUP1 CALLDATASIZE SUB PUSH1 0x40 DUP2 LT ISZERO PUSH2 0x98B JUMPI PUSH1 0x0 DUP1 REVERT JUMPDEST DUP2 ADD SWAP1 DUP1 DUP1 CALLDATALOAD PUSH20 0xFFFFFFFFFFFFFFFFFFFFFFFFFFFFFFFFFFFFFFFF AND SWAP1 PUSH1 0x20 ADD SWAP1 SWAP3 SWAP2 SWAP1 DUP1 CALLDATALOAD SWAP1 PUSH1 0x20 ADD SWAP1 SWAP3 SWAP2 SWAP1 POP POP POP PUSH2 0x1C68 JUMP JUMPDEST PUSH1 0x40 MLOAD DUP1 DUP3 ISZERO ISZERO DUP2 MSTORE PUSH1 0x20 ADD SWAP2 POP POP PUSH1 0x40 MLOAD DUP1 SWAP2 SUB SWAP1 RETURN JUMPDEST PUSH2 0xA1B PUSH1 0x4 DUP1 CALLDATASIZE SUB PUSH1 0x20 DUP2 LT ISZERO PUSH2 0x9EF JUMPI PUSH1 0x0 DUP1 REVERT JUMPDEST DUP2 ADD SWAP1 DUP1 DUP1 CALLDATALOAD PUSH20 0xFFFFFFFFFFFFFFFFFFFFFFFFFFFFFFFFFFFFFFFF AND SWAP1 PUSH1 0x20 ADD SWAP1 SWAP3 SWAP2 SWAP1 POP POP POP PUSH2 0x1C86 JUMP JUMPDEST STOP JUMPDEST PUSH2 0xA69 PUSH1 0x4 DUP1 CALLDATASIZE SUB PUSH1 0x40 DUP2 LT ISZERO PUSH2 0xA33 JUMPI PUSH1 0x0 DUP1 REVERT JUMPDEST DUP2 ADD SWAP1 DUP1 DUP1 CALLDATALOAD PUSH20 0xFFFFFFFFFFFFFFFFFFFFFFFFFFFFFFFFFFFFFFFF AND SWAP1 PUSH1 0x20 ADD SWAP1 SWAP3 SWAP2 SWAP1 DUP1 CALLDATALOAD SWAP1 PUSH1 0x20 ADD SWAP1 SWAP3 SWAP2 SWAP1 POP POP POP PUSH2 0x1D94 JUMP JUMPDEST PUSH1 0x40 MLOAD DUP1 DUP3 ISZERO ISZERO DUP2 MSTORE PUSH1 0x20 ADD SWAP2 POP POP PUSH1 0x40 MLOAD DUP1 SWAP2 SUB SWAP1 RETURN JUMPDEST PUSH2 0xAAD PUSH1 0x4 DUP1 CALLDATASIZE SUB PUSH1 0x20 DUP2 LT ISZERO PUSH2 0xA97 JUMPI PUSH1 0x0 DUP1 REVERT JUMPDEST DUP2 ADD SWAP1 DUP1 DUP1 CALLDATALOAD SWAP1 PUSH1 0x20 ADD SWAP1 SWAP3 SWAP2 SWAP1 POP POP POP PUSH2 0x1E70 JUMP JUMPDEST STOP JUMPDEST PUSH2 0xAB7 PUSH2 0x1F44 JUMP JUMPDEST PUSH1 0x40 MLOAD DUP1 DUP3 DUP2 MSTORE PUSH1 0x20 ADD SWAP2 POP POP PUSH1 0x40 MLOAD DUP1 SWAP2 SUB SWAP1 RETURN JUMPDEST PUSH2 0xB0F PUSH1 0x4 DUP1 CALLDATASIZE SUB PUSH1 0x20 DUP2 LT ISZERO PUSH2 0xAE3 JUMPI PUSH1 0x0 DUP1 REVERT JUMPDEST DUP2 ADD SWAP1 DUP1 DUP1 CALLDATALOAD PUSH20 0xFFFFFFFFFFFFFFFFFFFFFFFFFFFFFFFFFFFFFFFF AND SWAP1 PUSH1 0x20 ADD SWAP1 SWAP3 SWAP2 SWAP1 POP POP POP PUSH2 0x1F4E JUMP JUMPDEST STOP JUMPDEST PUSH2 0xB73 PUSH1 0x4 DUP1 CALLDATASIZE SUB PUSH1 0x40 DUP2 LT ISZERO PUSH2 0xB27 JUMPI PUSH1 0x0 DUP1 REVERT JUMPDEST DUP2 ADD SWAP1 DUP1 DUP1 CALLDATALOAD PUSH20 0xFFFFFFFFFFFFFFFFFFFFFFFFFFFFFFFFFFFFFFFF AND SWAP1 PUSH1 0x20 ADD SWAP1 SWAP3 SWAP2 SWAP1 DUP1 CALLDATALOAD PUSH20 0xFFFFFFFFFFFFFFFFFFFFFFFFFFFFFFFFFFFFFFFF AND SWAP1 PUSH1 0x20 ADD SWAP1 SWAP3 SWAP2 SWAP1 POP POP POP PUSH2 0x206C JUMP JUMPDEST PUSH1 0x40 MLOAD DUP1 DUP3 DUP2 MSTORE PUSH1 0x20 ADD SWAP2 POP POP PUSH1 0x40 MLOAD DUP1 SWAP2 SUB SWAP1 RETURN JUMPDEST PUSH2 0xBF5 PUSH1 0x4 DUP1 CALLDATASIZE SUB PUSH1 0x60 DUP2 LT ISZERO PUSH2 0xB9F JUMPI PUSH1 0x0 DUP1 REVERT JUMPDEST DUP2 ADD SWAP1 DUP1 DUP1 CALLDATALOAD PUSH20 0xFFFFFFFFFFFFFFFFFFFFFFFFFFFFFFFFFFFFFFFF AND SWAP1 PUSH1 0x20 ADD SWAP1 SWAP3 SWAP2 SWAP1 DUP1 CALLDATALOAD PUSH20 0xFFFFFFFFFFFFFFFFFFFFFFFFFFFFFFFFFFFFFFFF AND SWAP1 PUSH1 0x20 ADD SWAP1 SWAP3 SWAP2 SWAP1 DUP1 CALLDATALOAD SWAP1 PUSH1 0x20 ADD SWAP1 SWAP3 SWAP2 SWAP1 POP POP POP PUSH2 0x20F3 JUMP JUMPDEST PUSH1 0x40 MLOAD DUP1 DUP3 ISZERO ISZERO DUP2 MSTORE PUSH1 0x20 ADD SWAP2 POP POP PUSH1 0x40 MLOAD DUP1 SWAP2 SUB SWAP1 RETURN JUMPDEST PUSH2 0xC4F PUSH1 0x4 DUP1 CALLDATASIZE SUB PUSH1 0x20 DUP2 LT ISZERO PUSH2 0xC23 JUMPI PUSH1 0x0 DUP1 REVERT JUMPDEST DUP2 ADD SWAP1 DUP1 DUP1 CALLDATALOAD PUSH20 0xFFFFFFFFFFFFFFFFFFFFFFFFFFFFFFFFFFFFFFFF AND SWAP1 PUSH1 0x20 ADD SWAP1 SWAP3 SWAP2 SWAP1 POP POP POP PUSH2 0x23B2 JUMP JUMPDEST STOP JUMPDEST PUSH1 0x60 PUSH1 0x9 DUP1 SLOAD PUSH1 0x1 DUP2 PUSH1 0x1 AND ISZERO PUSH2 0x100 MUL SUB AND PUSH1 0x2 SWAP1 DIV DUP1 PUSH1 0x1F ADD PUSH1 0x20 DUP1 SWAP2 DIV MUL PUSH1 0x20 ADD PUSH1 0x40 MLOAD SWAP1 DUP2 ADD PUSH1 0x40 MSTORE DUP1 SWAP3 SWAP2 SWAP1 DUP2 DUP2 MSTORE PUSH1 0x20 ADD DUP3 DUP1 SLOAD PUSH1 0x1 DUP2 PUSH1 0x1 AND ISZERO PUSH2 0x100 MUL SUB AND PUSH1 0x2 SWAP1 DIV DUP1 ISZERO PUSH2 0xCE9 JUMPI DUP1 PUSH1 0x1F LT PUSH2 0xCBE JUMPI PUSH2 0x100 DUP1 DUP4 SLOAD DIV MUL DUP4 MSTORE SWAP2 PUSH1 0x20 ADD SWAP2 PUSH2 0xCE9 JUMP JUMPDEST DUP3 ADD SWAP2 SWAP1 PUSH1 0x0 MSTORE PUSH1 0x20 PUSH1 0x0 KECCAK256 SWAP1 JUMPDEST DUP2 SLOAD DUP2 MSTORE SWAP1 PUSH1 0x1 ADD SWAP1 PUSH1 0x20 ADD DUP1 DUP4 GT PUSH2 0xCCC JUMPI DUP3 SWAP1 SUB PUSH1 0x1F AND DUP3 ADD SWAP2 JUMPDEST POP POP POP POP POP SWAP1 POP SWAP1 JUMP JUMPDEST PUSH1 0x0 PUSH2 0xD07 PUSH2 0xD00 PUSH2 0x25C2 JUMP JUMPDEST DUP5 DUP5 PUSH2 0x25CA JUMP JUMPDEST PUSH1 0x1 SWAP1 POP SWAP3 SWAP2 POP POP JUMP JUMPDEST PUSH1 0x0 PUSH1 0x1 ISZERO ISZERO PUSH1 0x2 PUSH1 0x0 CALLER PUSH20 0xFFFFFFFFFFFFFFFFFFFFFFFFFFFFFFFFFFFFFFFF AND PUSH20 0xFFFFFFFFFFFFFFFFFFFFFFFFFFFFFFFFFFFFFFFF AND DUP2 MSTORE PUSH1 0x20 ADD SWAP1 DUP2 MSTORE PUSH1 0x20 ADD PUSH1 0x0 KECCAK256 PUSH1 0x0 SWAP1 SLOAD SWAP1 PUSH2 0x100 EXP SWAP1 DIV PUSH1 0xFF AND ISZERO ISZERO EQ PUSH2 0xDD9 JUMPI PUSH1 0x40 MLOAD PUSH32 0x8C379A000000000000000000000000000000000000000000000000000000000 DUP2 MSTORE PUSH1 0x4 ADD DUP1 DUP1 PUSH1 0x20 ADD DUP3 DUP2 SUB DUP3 MSTORE PUSH1 0x12 DUP2 MSTORE PUSH1 0x20 ADD DUP1 PUSH32 0x63616E277420706572666F726D206D656C740000000000000000000000000000 DUP2 MSTORE POP PUSH1 0x20 ADD SWAP2 POP POP PUSH1 0x40 MLOAD DUP1 SWAP2 SUB SWAP1 REVERT JUMPDEST PUSH2 0xDE3 DUP4 DUP4 PUSH2 0x27C1 JUMP JUMPDEST PUSH1 0x1 SWAP1 POP SWAP3 SWAP2 POP POP JUMP JUMPDEST PUSH1 0x1 ISZERO ISZERO PUSH1 0x2 PUSH1 0x0 CALLER PUSH20 0xFFFFFFFFFFFFFFFFFFFFFFFFFFFFFFFFFFFFFFFF AND PUSH20 0xFFFFFFFFFFFFFFFFFFFFFFFFFFFFFFFFFFFFFFFF AND DUP2 MSTORE PUSH1 0x20 ADD SWAP1 DUP2 MSTORE PUSH1 0x20 ADD PUSH1 0x0 KECCAK256 PUSH1 0x0 SWAP1 SLOAD SWAP1 PUSH2 0x100 EXP SWAP1 DIV PUSH1 0xFF AND ISZERO ISZERO EQ PUSH2 0xEB3 JUMPI PUSH1 0x40 MLOAD PUSH32 0x8C379A000000000000000000000000000000000000000000000000000000000 DUP2 MSTORE PUSH1 0x4 ADD DUP1 DUP1 PUSH1 0x20 ADD DUP3 DUP2 SUB DUP3 MSTORE PUSH1 0x12 DUP2 MSTORE PUSH1 0x20 ADD DUP1 PUSH32 0x63616E277420706572666F726D206D656C740000000000000000000000000000 DUP2 MSTORE POP PUSH1 0x20 ADD SWAP2 POP POP PUSH1 0x40 MLOAD DUP1 SWAP2 SUB SWAP1 REVERT JUMPDEST PUSH2 0xEBD DUP3 DUP3 PUSH2 0x29F3 JUMP JUMPDEST POP POP JUMP JUMPDEST PUSH1 0x0 PUSH1 0x7 SLOAD SWAP1 POP SWAP1 JUMP JUMPDEST PUSH1 0x4 PUSH1 0x0 SWAP1 SLOAD SWAP1 PUSH2 0x100 EXP SWAP1 DIV PUSH20 0xFFFFFFFFFFFFFFFFFFFFFFFFFFFFFFFFFFFFFFFF AND PUSH20 0xFFFFFFFFFFFFFFFFFFFFFFFFFFFFFFFFFFFFFFFF AND CALLER PUSH20 0xFFFFFFFFFFFFFFFFFFFFFFFFFFFFFFFFFFFFFFFF AND EQ PUSH2 0xF71 JUMPI PUSH1 0x40 MLOAD PUSH32 0x8C379A000000000000000000000000000000000000000000000000000000000 DUP2 MSTORE PUSH1 0x4 ADD DUP1 DUP1 PUSH1 0x20 ADD DUP3 DUP2 SUB DUP3 MSTORE PUSH1 0x21 DUP2 MSTORE PUSH1 0x20 ADD DUP1 PUSH2 0x3E75 PUSH1 0x21 SWAP2 CODECOPY PUSH1 0x40 ADD SWAP2 POP POP PUSH1 0x40 MLOAD DUP1 SWAP2 SUB SWAP1 REVERT JUMPDEST PUSH1 0x4 PUSH1 0x0 SWAP1 SLOAD SWAP1 PUSH2 0x100 EXP SWAP1 DIV PUSH20 0xFFFFFFFFFFFFFFFFFFFFFFFFFFFFFFFFFFFFFFFF AND PUSH20 0xFFFFFFFFFFFFFFFFFFFFFFFFFFFFFFFFFFFFFFFF AND PUSH1 0x3 PUSH1 0x0 SWAP1 SLOAD SWAP1 PUSH2 0x100 EXP SWAP1 DIV PUSH20 0xFFFFFFFFFFFFFFFFFFFFFFFFFFFFFFFFFFFFFFFF AND PUSH20 0xFFFFFFFFFFFFFFFFFFFFFFFFFFFFFFFFFFFFFFFF AND PUSH32 0x2E564B778E0BD386914DAFF857C4DB4480F555C393032A2F0AB2D62DE42C2977 PUSH1 0x40 MLOAD PUSH1 0x40 MLOAD DUP1 SWAP2 SUB SWAP1 LOG3 PUSH1 0x4 PUSH1 0x0 SWAP1 SLOAD SWAP1 PUSH2 0x100 EXP SWAP1 DIV PUSH20 0xFFFFFFFFFFFFFFFFFFFFFFFFFFFFFFFFFFFFFFFF AND PUSH1 0x3 PUSH1 0x0 PUSH2 0x100 EXP DUP2 SLOAD DUP2 PUSH20 0xFFFFFFFFFFFFFFFFFFFFFFFFFFFFFFFFFFFFFFFF MUL NOT AND SWAP1 DUP4 PUSH20 0xFFFFFFFFFFFFFFFFFFFFFFFFFFFFFFFFFFFFFFFF AND MUL OR SWAP1 SSTORE POP PUSH1 0x0 PUSH1 0x4 PUSH1 0x0 PUSH2 0x100 EXP DUP2 SLOAD DUP2 PUSH20 0xFFFFFFFFFFFFFFFFFFFFFFFFFFFFFFFFFFFFFFFF MUL NOT AND SWAP1 DUP4 PUSH20 0xFFFFFFFFFFFFFFFFFFFFFFFFFFFFFFFFFFFFFFFF AND MUL OR SWAP1 SSTORE POP JUMP JUMPDEST PUSH1 0x3 PUSH1 0x0 SWAP1 SLOAD SWAP1 PUSH2 0x100 EXP SWAP1 DIV PUSH20 0xFFFFFFFFFFFFFFFFFFFFFFFFFFFFFFFFFFFFFFFF AND PUSH20 0xFFFFFFFFFFFFFFFFFFFFFFFFFFFFFFFFFFFFFFFF AND CALLER PUSH20 0xFFFFFFFFFFFFFFFFFFFFFFFFFFFFFFFFFFFFFFFF AND EQ PUSH2 0x1179 JUMPI PUSH1 0x40 MLOAD PUSH32 0x8C379A000000000000000000000000000000000000000000000000000000000 DUP2 MSTORE PUSH1 0x4 ADD DUP1 DUP1 PUSH1 0x20 ADD DUP3 DUP2 SUB DUP3 MSTORE PUSH1 0x19 DUP2 MSTORE PUSH1 0x20 ADD DUP1 PUSH32 0x63616C6C6572206E6F742061206D656C7465722061646D696E00000000000000 DUP2 MSTORE POP PUSH1 0x20 ADD SWAP2 POP POP PUSH1 0x40 MLOAD DUP1 SWAP2 SUB SWAP1 REVERT JUMPDEST PUSH1 0x0 PUSH1 0x2 PUSH1 0x0 DUP4 PUSH20 0xFFFFFFFFFFFFFFFFFFFFFFFFFFFFFFFFFFFFFFFF AND PUSH20 0xFFFFFFFFFFFFFFFFFFFFFFFFFFFFFFFFFFFFFFFF AND DUP2 MSTORE PUSH1 0x20 ADD SWAP1 DUP2 MSTORE PUSH1 0x20 ADD PUSH1 0x0 KECCAK256 PUSH1 0x0 PUSH2 0x100 EXP DUP2 SLOAD DUP2 PUSH1 0xFF MUL NOT AND SWAP1 DUP4 ISZERO ISZERO MUL OR SWAP1 SSTORE POP POP JUMP JUMPDEST PUSH1 0x0 PUSH2 0x11E1 DUP5 DUP5 DUP5 PUSH2 0x2B08 JUMP JUMPDEST PUSH2 0x12A2 DUP5 PUSH2 0x11ED PUSH2 0x25C2 JUMP JUMPDEST PUSH2 0x129D DUP6 PUSH1 0x40 MLOAD DUP1 PUSH1 0x60 ADD PUSH1 0x40 MSTORE DUP1 PUSH1 0x28 DUP2 MSTORE PUSH1 0x20 ADD PUSH2 0x3D76 PUSH1 0x28 SWAP2 CODECOPY PUSH1 0x6 PUSH1 0x0 DUP12 PUSH20 0xFFFFFFFFFFFFFFFFFFFFFFFFFFFFFFFFFFFFFFFF AND PUSH20 0xFFFFFFFFFFFFFFFFFFFFFFFFFFFFFFFFFFFFFFFF AND DUP2 MSTORE PUSH1 0x20 ADD SWAP1 DUP2 MSTORE PUSH1 0x20 ADD PUSH1 0x0 KECCAK256 PUSH1 0x0 PUSH2 0x1253 PUSH2 0x25C2 JUMP JUMPDEST PUSH20 0xFFFFFFFFFFFFFFFFFFFFFFFFFFFFFFFFFFFFFFFF AND PUSH20 0xFFFFFFFFFFFFFFFFFFFFFFFFFFFFFFFFFFFFFFFF AND DUP2 MSTORE PUSH1 0x20 ADD SWAP1 DUP2 MSTORE PUSH1 0x20 ADD PUSH1 0x0 KECCAK256 SLOAD PUSH2 0x2C83 SWAP1 SWAP3 SWAP2 SWAP1 PUSH4 0xFFFFFFFF AND JUMP JUMPDEST PUSH2 0x25CA JUMP JUMPDEST PUSH1 0x1 SWAP1 POP SWAP4 SWAP3 POP POP POP JUMP JUMPDEST PUSH1 0x0 PUSH1 0xB PUSH1 0x0 SWAP1 SLOAD SWAP1 PUSH2 0x100 EXP SWAP1 DIV PUSH1 0xFF AND SWAP1 POP SWAP1 JUMP JUMPDEST PUSH1 0xC SLOAD DUP2 JUMP JUMPDEST PUSH1 0x0 PUSH1 0x3 PUSH1 0x0 SWAP1 SLOAD SWAP1 PUSH2 0x100 EXP SWAP1 DIV PUSH20 0xFFFFFFFFFFFFFFFFFFFFFFFFFFFFFFFFFFFFFFFF AND SWAP1 POP SWAP1 JUMP JUMPDEST PUSH1 0x0 PUSH2 0x139D PUSH2 0x1301 PUSH2 0x25C2 JUMP JUMPDEST DUP5 PUSH2 0x1398 DUP6 PUSH1 0x6 PUSH1 0x0 PUSH2 0x1312 PUSH2 0x25C2 JUMP JUMPDEST PUSH20 0xFFFFFFFFFFFFFFFFFFFFFFFFFFFFFFFFFFFFFFFF AND PUSH20 0xFFFFFFFFFFFFFFFFFFFFFFFFFFFFFFFFFFFFFFFF AND DUP2 MSTORE PUSH1 0x20 ADD SWAP1 DUP2 MSTORE PUSH1 0x20 ADD PUSH1 0x0 KECCAK256 PUSH1 0x0 DUP10 PUSH20 0xFFFFFFFFFFFFFFFFFFFFFFFFFFFFFFFFFFFFFFFF AND PUSH20 0xFFFFFFFFFFFFFFFFFFFFFFFFFFFFFFFFFFFFFFFF AND DUP2 MSTORE PUSH1 0x20 ADD SWAP1 DUP2 MSTORE PUSH1 0x20 ADD PUSH1 0x0 KECCAK256 SLOAD PUSH2 0x2D43 SWAP1 SWAP2 SWAP1 PUSH4 0xFFFFFFFF AND JUMP JUMPDEST PUSH2 0x25CA JUMP JUMPDEST PUSH1 0x1 SWAP1 POP SWAP3 SWAP2 POP POP JUMP JUMPDEST PUSH2 0x13AF PUSH2 0x25C2 JUMP JUMPDEST PUSH20 0xFFFFFFFFFFFFFFFFFFFFFFFFFFFFFFFFFFFFFFFF AND PUSH1 0x1 PUSH1 0x0 SWAP1 SLOAD SWAP1 PUSH2 0x100 EXP SWAP1 DIV PUSH20 0xFFFFFFFFFFFFFFFFFFFFFFFFFFFFFFFFFFFFFFFF AND PUSH20 0xFFFFFFFFFFFFFFFFFFFFFFFFFFFFFFFFFFFFFFFF AND EQ PUSH2 0x1471 JUMPI PUSH1 0x40 MLOAD PUSH32 0x8C379A000000000000000000000000000000000000000000000000000000000 DUP2 MSTORE PUSH1 0x4 ADD DUP1 DUP1 PUSH1 0x20 ADD DUP3 DUP2 SUB DUP3 MSTORE PUSH1 0x20 DUP2 MSTORE PUSH1 0x20 ADD DUP1 PUSH32 0x4F776E61626C653A2063616C6C6572206973206E6F7420746865206F776E6572 DUP2 MSTORE POP PUSH1 0x20 ADD SWAP2 POP POP PUSH1 0x40 MLOAD DUP1 SWAP2 SUB SWAP1 REVERT JUMPDEST PUSH2 0x147B DUP3 DUP3 PUSH2 0x2DCB JUMP JUMPDEST POP POP JUMP JUMPDEST PUSH1 0x0 PUSH2 0x1492 PUSH2 0x148C PUSH2 0x25C2 JUMP JUMPDEST DUP4 PUSH2 0x2F94 JUMP JUMPDEST PUSH1 0x1 SWAP1 POP SWAP2 SWAP1 POP JUMP JUMPDEST PUSH1 0x3 PUSH1 0x0 SWAP1 SLOAD SWAP1 PUSH2 0x100 EXP SWAP1 DIV PUSH20 0xFFFFFFFFFFFFFFFFFFFFFFFFFFFFFFFFFFFFFFFF AND PUSH20 0xFFFFFFFFFFFFFFFFFFFFFFFFFFFFFFFFFFFFFFFF AND CALLER PUSH20 0xFFFFFFFFFFFFFFFFFFFFFFFFFFFFFFFFFFFFFFFF AND EQ PUSH2 0x155E JUMPI PUSH1 0x40 MLOAD PUSH32 0x8C379A000000000000000000000000000000000000000000000000000000000 DUP2 MSTORE PUSH1 0x4 ADD DUP1 DUP1 PUSH1 0x20 ADD DUP3 DUP2 SUB DUP3 MSTORE PUSH1 0x19 DUP2 MSTORE PUSH1 0x20 ADD DUP1 PUSH32 0x63616C6C6572206E6F742061206D656C7465722061646D696E00000000000000 DUP2 MSTORE POP PUSH1 0x20 ADD SWAP2 POP POP PUSH1 0x40 MLOAD DUP1 SWAP2 SUB SWAP1 REVERT JUMPDEST DUP1 PUSH1 0x4 PUSH1 0x0 PUSH2 0x100 EXP DUP2 SLOAD DUP2 PUSH20 0xFFFFFFFFFFFFFFFFFFFFFFFFFFFFFFFFFFFFFFFF MUL NOT AND SWAP1 DUP4 PUSH20 0xFFFFFFFFFFFFFFFFFFFFFFFFFFFFFFFFFFFFFFFF AND MUL OR SWAP1 SSTORE POP POP JUMP JUMPDEST PUSH1 0x4 PUSH1 0x0 SWAP1 SLOAD SWAP1 PUSH2 0x100 EXP SWAP1 DIV PUSH20 0xFFFFFFFFFFFFFFFFFFFFFFFFFFFFFFFFFFFFFFFF AND DUP2 JUMP JUMPDEST PUSH1 0x0 PUSH2 0x1624 PUSH2 0x15D6 DUP4 PUSH2 0x315A JUMP JUMPDEST PUSH1 0x5 PUSH1 0x0 DUP6 PUSH20 0xFFFFFFFFFFFFFFFFFFFFFFFFFFFFFFFFFFFFFFFF AND PUSH20 0xFFFFFFFFFFFFFFFFFFFFFFFFFFFFFFFFFFFFFFFF AND DUP2 MSTORE PUSH1 0x20 ADD SWAP1 DUP2 MSTORE PUSH1 0x20 ADD PUSH1 0x0 KECCAK256 SLOAD PUSH2 0x2D43 SWAP1 SWAP2 SWAP1 PUSH4 0xFFFFFFFF AND JUMP JUMPDEST SWAP1 POP SWAP2 SWAP1 POP JUMP JUMPDEST PUSH2 0x1633 PUSH2 0x25C2 JUMP JUMPDEST PUSH20 0xFFFFFFFFFFFFFFFFFFFFFFFFFFFFFFFFFFFFFFFF AND PUSH1 0x1 PUSH1 0x0 SWAP1 SLOAD SWAP1 PUSH2 0x100 EXP SWAP1 DIV PUSH20 0xFFFFFFFFFFFFFFFFFFFFFFFFFFFFFFFFFFFFFFFF AND PUSH20 0xFFFFFFFFFFFFFFFFFFFFFFFFFFFFFFFFFFFFFFFF AND EQ PUSH2 0x16F5 JUMPI PUSH1 0x40 MLOAD PUSH32 0x8C379A000000000000000000000000000000000000000000000000000000000 DUP2 MSTORE PUSH1 0x4 ADD DUP1 DUP1 PUSH1 0x20 ADD DUP3 DUP2 SUB DUP3 MSTORE PUSH1 0x20 DUP2 MSTORE PUSH1 0x20 ADD DUP1 PUSH32 0x4F776E61626C653A2063616C6C6572206973206E6F7420746865206F776E6572 DUP2 MSTORE POP PUSH1 0x20 ADD SWAP2 POP POP PUSH1 0x40 MLOAD DUP1 SWAP2 SUB SWAP1 REVERT JUMPDEST PUSH1 0x0 PUSH20 0xFFFFFFFFFFFFFFFFFFFFFFFFFFFFFFFFFFFFFFFF AND PUSH1 0x1 PUSH1 0x0 SWAP1 SLOAD SWAP1 PUSH2 0x100 EXP SWAP1 DIV PUSH20 0xFFFFFFFFFFFFFFFFFFFFFFFFFFFFFFFFFFFFFFFF AND PUSH20 0xFFFFFFFFFFFFFFFFFFFFFFFFFFFFFFFFFFFFFFFF AND PUSH32 0x8BE0079C531659141344CD1FD0A4F28419497F9722A3DAAFE3B4186F6B6457E0 PUSH1 0x40 MLOAD PUSH1 0x40 MLOAD DUP1 SWAP2 SUB SWAP1 LOG3 PUSH1 0x0 PUSH1 0x1 PUSH1 0x0 PUSH2 0x100 EXP DUP2 SLOAD DUP2 PUSH20 0xFFFFFFFFFFFFFFFFFFFFFFFFFFFFFFFFFFFFFFFF MUL NOT AND SWAP1 DUP4 PUSH20 0xFFFFFFFFFFFFFFFFFFFFFFFFFFFFFFFFFFFFFFFF AND MUL OR SWAP1 SSTORE POP JUMP JUMPDEST PUSH1 0x0 DUP1 PUSH2 0x17F6 DUP4 PUSH1 0x40 MLOAD DUP1 PUSH1 0x60 ADD PUSH1 0x40 MSTORE DUP1 PUSH1 0x24 DUP2 MSTORE PUSH1 0x20 ADD PUSH2 0x3D9E PUSH1 0x24 SWAP2 CODECOPY PUSH2 0x17E7 DUP8 PUSH2 0x17E2 PUSH2 0x25C2 JUMP JUMPDEST PUSH2 0x206C JUMP JUMPDEST PUSH2 0x2C83 SWAP1 SWAP3 SWAP2 SWAP1 PUSH4 0xFFFFFFFF AND JUMP JUMPDEST SWAP1 POP PUSH2 0x180A DUP5 PUSH2 0x1804 PUSH2 0x25C2 JUMP JUMPDEST DUP4 PUSH2 0x25CA JUMP JUMPDEST PUSH2 0x1814 DUP5 DUP5 PUSH2 0x2F94 JUMP JUMPDEST PUSH1 0x1 SWAP2 POP POP SWAP3 SWAP2 POP POP JUMP JUMPDEST PUSH1 0x0 PUSH1 0x1 PUSH1 0x0 SWAP1 SLOAD SWAP1 PUSH2 0x100 EXP SWAP1 DIV PUSH20 0xFFFFFFFFFFFFFFFFFFFFFFFFFFFFFFFFFFFFFFFF AND SWAP1 POP SWAP1 JUMP JUMPDEST PUSH2 0x1851 PUSH2 0x25C2 JUMP JUMPDEST PUSH20 0xFFFFFFFFFFFFFFFFFFFFFFFFFFFFFFFFFFFFFFFF AND PUSH1 0x1 PUSH1 0x0 SWAP1 SLOAD SWAP1 PUSH2 0x100 EXP SWAP1 DIV PUSH20 0xFFFFFFFFFFFFFFFFFFFFFFFFFFFFFFFFFFFFFFFF AND PUSH20 0xFFFFFFFFFFFFFFFFFFFFFFFFFFFFFFFFFFFFFFFF AND EQ PUSH2 0x1913 JUMPI PUSH1 0x40 MLOAD PUSH32 0x8C379A000000000000000000000000000000000000000000000000000000000 DUP2 MSTORE PUSH1 0x4 ADD DUP1 DUP1 PUSH1 0x20 ADD DUP3 DUP2 SUB DUP3 MSTORE PUSH1 0x20 DUP2 MSTORE PUSH1 0x20 ADD DUP1 PUSH32 0x4F776E61626C653A2063616C6C6572206973206E6F7420746865206F776E6572 DUP2 MSTORE POP PUSH1 0x20 ADD SWAP2 POP POP PUSH1 0x40 MLOAD DUP1 SWAP2 SUB SWAP1 REVERT JUMPDEST PUSH1 0xD PUSH1 0x0 DUP3 PUSH20 0xFFFFFFFFFFFFFFFFFFFFFFFFFFFFFFFFFFFFFFFF AND PUSH20 0xFFFFFFFFFFFFFFFFFFFFFFFFFFFFFFFFFFFFFFFF AND DUP2 MSTORE PUSH1 0x20 ADD SWAP1 DUP2 MSTORE PUSH1 0x20 ADD PUSH1 0x0 KECCAK256 PUSH1 0x0 PUSH2 0x100 EXP DUP2 SLOAD SWAP1 PUSH1 0xFF MUL NOT AND SWAP1 SSTORE POP JUMP JUMPDEST PUSH2 0x196D PUSH2 0x25C2 JUMP JUMPDEST PUSH20 0xFFFFFFFFFFFFFFFFFFFFFFFFFFFFFFFFFFFFFFFF AND PUSH1 0x1 PUSH1 0x0 SWAP1 SLOAD SWAP1 PUSH2 0x100 EXP SWAP1 DIV PUSH20 0xFFFFFFFFFFFFFFFFFFFFFFFFFFFFFFFFFFFFFFFF AND PUSH20 0xFFFFFFFFFFFFFFFFFFFFFFFFFFFFFFFFFFFFFFFF AND EQ PUSH2 0x1A2F JUMPI PUSH1 0x40 MLOAD PUSH32 0x8C379A000000000000000000000000000000000000000000000000000000000 DUP2 MSTORE PUSH1 0x4 ADD DUP1 DUP1 PUSH1 0x20 ADD DUP3 DUP2 SUB DUP3 MSTORE PUSH1 0x20 DUP2 MSTORE PUSH1 0x20 ADD DUP1 PUSH32 0x4F776E61626C653A2063616C6C6572206973206E6F7420746865206F776E6572 DUP2 MSTORE POP PUSH1 0x20 ADD SWAP2 POP POP PUSH1 0x40 MLOAD DUP1 SWAP2 SUB SWAP1 REVERT JUMPDEST PUSH1 0x1 PUSH1 0xD PUSH1 0x0 DUP4 PUSH20 0xFFFFFFFFFFFFFFFFFFFFFFFFFFFFFFFFFFFFFFFF AND PUSH20 0xFFFFFFFFFFFFFFFFFFFFFFFFFFFFFFFFFFFFFFFF AND DUP2 MSTORE PUSH1 0x20 ADD SWAP1 DUP2 MSTORE PUSH1 0x20 ADD PUSH1 0x0 KECCAK256 PUSH1 0x0 PUSH2 0x100 EXP DUP2 SLOAD DUP2 PUSH1 0xFF MUL NOT AND SWAP1 DUP4 ISZERO ISZERO MUL OR SWAP1 SSTORE POP POP JUMP JUMPDEST PUSH1 0x60 PUSH1 0xA DUP1 SLOAD PUSH1 0x1 DUP2 PUSH1 0x1 AND ISZERO PUSH2 0x100 MUL SUB AND PUSH1 0x2 SWAP1 DIV DUP1 PUSH1 0x1F ADD PUSH1 0x20 DUP1 SWAP2 DIV MUL PUSH1 0x20 ADD PUSH1 0x40 MLOAD SWAP1 DUP2 ADD PUSH1 0x40 MSTORE DUP1 SWAP3 SWAP2 SWAP1 DUP2 DUP2 MSTORE PUSH1 0x20 ADD DUP3 DUP1 SLOAD PUSH1 0x1 DUP2 PUSH1 0x1 AND ISZERO PUSH2 0x100 MUL SUB AND PUSH1 0x2 SWAP1 DIV DUP1 ISZERO PUSH2 0x1B22 JUMPI DUP1 PUSH1 0x1F LT PUSH2 0x1AF7 JUMPI PUSH2 0x100 DUP1 DUP4 SLOAD DIV MUL DUP4 MSTORE SWAP2 PUSH1 0x20 ADD SWAP2 PUSH2 0x1B22 JUMP JUMPDEST DUP3 ADD SWAP2 SWAP1 PUSH1 0x0 MSTORE PUSH1 0x20 PUSH1 0x0 KECCAK256 SWAP1 JUMPDEST DUP2 SLOAD DUP2 MSTORE SWAP1 PUSH1 0x1 ADD SWAP1 PUSH1 0x20 ADD DUP1 DUP4 GT PUSH2 0x1B05 JUMPI DUP3 SWAP1 SUB PUSH1 0x1F AND DUP3 ADD SWAP2 JUMPDEST POP POP POP POP POP SWAP1 POP SWAP1 JUMP JUMPDEST PUSH1 0x0 PUSH1 0x5 PUSH1 0x0 DUP4 PUSH20 0xFFFFFFFFFFFFFFFFFFFFFFFFFFFFFFFFFFFFFFFF AND PUSH20 0xFFFFFFFFFFFFFFFFFFFFFFFFFFFFFFFFFFFFFFFF AND DUP2 MSTORE PUSH1 0x20 ADD SWAP1 DUP2 MSTORE PUSH1 0x20 ADD PUSH1 0x0 KECCAK256 SLOAD SWAP1 POP SWAP2 SWAP1 POP JUMP JUMPDEST PUSH1 0x0 PUSH2 0x1C38 PUSH2 0x1B82 PUSH2 0x25C2 JUMP JUMPDEST DUP5 PUSH2 0x1C33 DUP6 PUSH1 0x40 MLOAD DUP1 PUSH1 0x60 ADD PUSH1 0x40 MSTORE DUP1 PUSH1 0x25 DUP2 MSTORE PUSH1 0x20 ADD PUSH2 0x3E96 PUSH1 0x25 SWAP2 CODECOPY PUSH1 0x6 PUSH1 0x0 PUSH2 0x1BAC PUSH2 0x25C2 JUMP JUMPDEST PUSH20 0xFFFFFFFFFFFFFFFFFFFFFFFFFFFFFFFFFFFFFFFF AND PUSH20 0xFFFFFFFFFFFFFFFFFFFFFFFFFFFFFFFFFFFFFFFF AND DUP2 MSTORE PUSH1 0x20 ADD SWAP1 DUP2 MSTORE PUSH1 0x20 ADD PUSH1 0x0 KECCAK256 PUSH1 0x0 DUP11 PUSH20 0xFFFFFFFFFFFFFFFFFFFFFFFFFFFFFFFFFFFFFFFF AND PUSH20 0xFFFFFFFFFFFFFFFFFFFFFFFFFFFFFFFFFFFFFFFF AND DUP2 MSTORE PUSH1 0x20 ADD SWAP1 DUP2 MSTORE PUSH1 0x20 ADD PUSH1 0x0 KECCAK256 SLOAD PUSH2 0x2C83 SWAP1 SWAP3 SWAP2 SWAP1 PUSH4 0xFFFFFFFF AND JUMP JUMPDEST PUSH2 0x25CA JUMP JUMPDEST PUSH1 0x1 SWAP1 POP SWAP3 SWAP2 POP POP JUMP JUMPDEST PUSH1 0xB PUSH1 0x1 SWAP1 SLOAD SWAP1 PUSH2 0x100 EXP SWAP1 DIV PUSH20 0xFFFFFFFFFFFFFFFFFFFFFFFFFFFFFFFFFFFFFFFF AND DUP2 JUMP JUMPDEST PUSH1 0x0 PUSH2 0x1C7C PUSH2 0x1C75 PUSH2 0x25C2 JUMP JUMPDEST DUP5 DUP5 PUSH2 0x2B08 JUMP JUMPDEST PUSH1 0x1 SWAP1 POP SWAP3 SWAP2 POP POP JUMP JUMPDEST PUSH2 0x1C8E PUSH2 0x25C2 JUMP JUMPDEST PUSH20 0xFFFFFFFFFFFFFFFFFFFFFFFFFFFFFFFFFFFFFFFF AND PUSH1 0x1 PUSH1 0x0 SWAP1 SLOAD SWAP1 PUSH2 0x100 EXP SWAP1 DIV PUSH20 0xFFFFFFFFFFFFFFFFFFFFFFFFFFFFFFFFFFFFFFFF AND PUSH20 0xFFFFFFFFFFFFFFFFFFFFFFFFFFFFFFFFFFFFFFFF AND EQ PUSH2 0x1D50 JUMPI PUSH1 0x40 MLOAD PUSH32 0x8C379A000000000000000000000000000000000000000000000000000000000 DUP2 MSTORE PUSH1 0x4 ADD DUP1 DUP1 PUSH1 0x20 ADD DUP3 DUP2 SUB DUP3 MSTORE PUSH1 0x20 DUP2 MSTORE PUSH1 0x20 ADD DUP1 PUSH32 0x4F776E61626C653A2063616C6C6572206973206E6F7420746865206F776E6572 DUP2 MSTORE POP PUSH1 0x20 ADD SWAP2 POP POP PUSH1 0x40 MLOAD DUP1 SWAP2 SUB SWAP1 REVERT JUMPDEST DUP1 PUSH1 0xB PUSH1 0x1 PUSH2 0x100 EXP DUP2 SLOAD DUP2 PUSH20 0xFFFFFFFFFFFFFFFFFFFFFFFFFFFFFFFFFFFFFFFF MUL NOT AND SWAP1 DUP4 PUSH20 0xFFFFFFFFFFFFFFFFFFFFFFFFFFFFFFFFFFFFFFFF AND MUL OR SWAP1 SSTORE POP POP JUMP JUMPDEST PUSH1 0x0 PUSH1 0x1 ISZERO ISZERO PUSH1 0x2 PUSH1 0x0 CALLER PUSH20 0xFFFFFFFFFFFFFFFFFFFFFFFFFFFFFFFFFFFFFFFF AND PUSH20 0xFFFFFFFFFFFFFFFFFFFFFFFFFFFFFFFFFFFFFFFF AND DUP2 MSTORE PUSH1 0x20 ADD SWAP1 DUP2 MSTORE PUSH1 0x20 ADD PUSH1 0x0 KECCAK256 PUSH1 0x0 SWAP1 SLOAD SWAP1 PUSH2 0x100 EXP SWAP1 DIV PUSH1 0xFF AND ISZERO ISZERO EQ PUSH2 0x1E5C JUMPI PUSH1 0x40 MLOAD PUSH32 0x8C379A000000000000000000000000000000000000000000000000000000000 DUP2 MSTORE PUSH1 0x4 ADD DUP1 DUP1 PUSH1 0x20 ADD DUP3 DUP2 SUB DUP3 MSTORE PUSH1 0x12 DUP2 MSTORE PUSH1 0x20 ADD DUP1 PUSH32 0x63616E277420706572666F726D206D656C740000000000000000000000000000 DUP2 MSTORE POP PUSH1 0x20 ADD SWAP2 POP POP PUSH1 0x40 MLOAD DUP1 SWAP2 SUB SWAP1 REVERT JUMPDEST PUSH2 0x1E66 DUP4 DUP4 PUSH2 0x31A2 JUMP JUMPDEST PUSH1 0x1 SWAP1 POP SWAP3 SWAP2 POP POP JUMP JUMPDEST PUSH2 0x1E78 PUSH2 0x25C2 JUMP JUMPDEST PUSH20 0xFFFFFFFFFFFFFFFFFFFFFFFFFFFFFFFFFFFFFFFF AND PUSH1 0x1 PUSH1 0x0 SWAP1 SLOAD SWAP1 PUSH2 0x100 EXP SWAP1 DIV PUSH20 0xFFFFFFFFFFFFFFFFFFFFFFFFFFFFFFFFFFFFFFFF AND PUSH20 0xFFFFFFFFFFFFFFFFFFFFFFFFFFFFFFFFFFFFFFFF AND EQ PUSH2 0x1F3A JUMPI PUSH1 0x40 MLOAD PUSH32 0x8C379A000000000000000000000000000000000000000000000000000000000 DUP2 MSTORE PUSH1 0x4 ADD DUP1 DUP1 PUSH1 0x20 ADD DUP3 DUP2 SUB DUP3 MSTORE PUSH1 0x20 DUP2 MSTORE PUSH1 0x20 ADD DUP1 PUSH32 0x4F776E61626C653A2063616C6C6572206973206E6F7420746865206F776E6572 DUP2 MSTORE POP PUSH1 0x20 ADD SWAP2 POP POP PUSH1 0x40 MLOAD DUP1 SWAP2 SUB SWAP1 REVERT JUMPDEST DUP1 PUSH1 0xC DUP2 SWAP1 SSTORE POP POP JUMP JUMPDEST PUSH1 0x0 PUSH1 0x8 SLOAD SWAP1 POP SWAP1 JUMP JUMPDEST PUSH1 0x3 PUSH1 0x0 SWAP1 SLOAD SWAP1 PUSH2 0x100 EXP SWAP1 DIV PUSH20 0xFFFFFFFFFFFFFFFFFFFFFFFFFFFFFFFFFFFFFFFF AND PUSH20 0xFFFFFFFFFFFFFFFFFFFFFFFFFFFFFFFFFFFFFFFF AND CALLER PUSH20 0xFFFFFFFFFFFFFFFFFFFFFFFFFFFFFFFFFFFFFFFF AND EQ PUSH2 0x2011 JUMPI PUSH1 0x40 MLOAD PUSH32 0x8C379A000000000000000000000000000000000000000000000000000000000 DUP2 MSTORE PUSH1 0x4 ADD DUP1 DUP1 PUSH1 0x20 ADD DUP3 DUP2 SUB DUP3 MSTORE PUSH1 0x19 DUP2 MSTORE PUSH1 0x20 ADD DUP1 PUSH32 0x63616C6C6572206E6F742061206D656C7465722061646D696E00000000000000 DUP2 MSTORE POP PUSH1 0x20 ADD SWAP2 POP POP PUSH1 0x40 MLOAD DUP1 SWAP2 SUB SWAP1 REVERT JUMPDEST PUSH1 0x1 PUSH1 0x2 PUSH1 0x0 DUP4 PUSH20 0xFFFFFFFFFFFFFFFFFFFFFFFFFFFFFFFFFFFFFFFF AND PUSH20 0xFFFFFFFFFFFFFFFFFFFFFFFFFFFFFFFFFFFFFFFF AND DUP2 MSTORE PUSH1 0x20 ADD SWAP1 DUP2 MSTORE PUSH1 0x20 ADD PUSH1 0x0 KECCAK256 PUSH1 0x0 PUSH2 0x100 EXP DUP2 SLOAD DUP2 PUSH1 0xFF MUL NOT AND SWAP1 DUP4 ISZERO ISZERO MUL OR SWAP1 SSTORE POP POP JUMP JUMPDEST PUSH1 0x0 PUSH1 0x6 PUSH1 0x0 DUP5 PUSH20 0xFFFFFFFFFFFFFFFFFFFFFFFFFFFFFFFFFFFFFFFF AND PUSH20 0xFFFFFFFFFFFFFFFFFFFFFFFFFFFFFFFFFFFFFFFF AND DUP2 MSTORE PUSH1 0x20 ADD SWAP1 DUP2 MSTORE PUSH1 0x20 ADD PUSH1 0x0 KECCAK256 PUSH1 0x0 DUP4 PUSH20 0xFFFFFFFFFFFFFFFFFFFFFFFFFFFFFFFFFFFFFFFF AND PUSH20 0xFFFFFFFFFFFFFFFFFFFFFFFFFFFFFFFFFFFFFFFF AND DUP2 MSTORE PUSH1 0x20 ADD SWAP1 DUP2 MSTORE PUSH1 0x20 ADD PUSH1 0x0 KECCAK256 SLOAD SWAP1 POP SWAP3 SWAP2 POP POP JUMP JUMPDEST PUSH1 0x0 PUSH1 0x1 ISZERO ISZERO PUSH1 0x2 PUSH1 0x0 CALLER PUSH20 0xFFFFFFFFFFFFFFFFFFFFFFFFFFFFFFFFFFFFFFFF AND PUSH20 0xFFFFFFFFFFFFFFFFFFFFFFFFFFFFFFFFFFFFFFFF AND DUP2 MSTORE PUSH1 0x20 ADD SWAP1 DUP2 MSTORE PUSH1 0x20 ADD PUSH1 0x0 KECCAK256 PUSH1 0x0 SWAP1 SLOAD SWAP1 PUSH2 0x100 EXP SWAP1 DIV PUSH1 0xFF AND ISZERO ISZERO EQ PUSH2 0x21BB JUMPI PUSH1 0x40 MLOAD PUSH32 0x8C379A000000000000000000000000000000000000000000000000000000000 DUP2 MSTORE PUSH1 0x4 ADD DUP1 DUP1 PUSH1 0x20 ADD DUP3 DUP2 SUB DUP3 MSTORE PUSH1 0x12 DUP2 MSTORE PUSH1 0x20 ADD DUP1 PUSH32 0x63616E277420706572666F726D206D656C740000000000000000000000000000 DUP2 MSTORE POP PUSH1 0x20 ADD SWAP2 POP POP PUSH1 0x40 MLOAD DUP1 SWAP2 SUB SWAP1 REVERT JUMPDEST PUSH1 0x0 PUSH20 0xFFFFFFFFFFFFFFFFFFFFFFFFFFFFFFFFFFFFFFFF AND DUP5 PUSH20 0xFFFFFFFFFFFFFFFFFFFFFFFFFFFFFFFFFFFFFFFF AND EQ ISZERO PUSH2 0x2241 JUMPI PUSH1 0x40 MLOAD PUSH32 0x8C379A000000000000000000000000000000000000000000000000000000000 DUP2 MSTORE PUSH1 0x4 ADD DUP1 DUP1 PUSH1 0x20 ADD DUP3 DUP2 SUB DUP3 MSTORE PUSH1 0x25 DUP2 MSTORE PUSH1 0x20 ADD DUP1 PUSH2 0x3E2C PUSH1 0x25 SWAP2 CODECOPY PUSH1 0x40 ADD SWAP2 POP POP PUSH1 0x40 MLOAD DUP1 SWAP2 SUB SWAP1 REVERT JUMPDEST PUSH1 0x0 PUSH20 0xFFFFFFFFFFFFFFFFFFFFFFFFFFFFFFFFFFFFFFFF AND DUP4 PUSH20 0xFFFFFFFFFFFFFFFFFFFFFFFFFFFFFFFFFFFFFFFF AND EQ ISZERO PUSH2 0x22C7 JUMPI PUSH1 0x40 MLOAD PUSH32 0x8C379A000000000000000000000000000000000000000000000000000000000 DUP2 MSTORE PUSH1 0x4 ADD DUP1 DUP1 PUSH1 0x20 ADD DUP3 DUP2 SUB DUP3 MSTORE PUSH1 0x23 DUP2 MSTORE PUSH1 0x20 ADD DUP1 PUSH2 0x3BCC PUSH1 0x23 SWAP2 CODECOPY PUSH1 0x40 ADD SWAP2 POP POP PUSH1 0x40 MLOAD DUP1 SWAP2 SUB SWAP1 REVERT JUMPDEST PUSH2 0x22D1 DUP5 DUP4 PUSH2 0x346F JUMP JUMPDEST POP PUSH2 0x22DC DUP4 DUP4 PUSH2 0x350E JUMP JUMPDEST POP DUP3 PUSH20 0xFFFFFFFFFFFFFFFFFFFFFFFFFFFFFFFFFFFFFFFF AND DUP5 PUSH20 0xFFFFFFFFFFFFFFFFFFFFFFFFFFFFFFFFFFFFFFFF AND PUSH32 0x9958976925BAA403ABF86AFA44976A9EFFFF3E01931EAFD0EA2689F40852FD59 DUP5 PUSH1 0x40 MLOAD DUP1 DUP3 DUP2 MSTORE PUSH1 0x20 ADD SWAP2 POP POP PUSH1 0x40 MLOAD DUP1 SWAP2 SUB SWAP1 LOG3 DUP3 PUSH20 0xFFFFFFFFFFFFFFFFFFFFFFFFFFFFFFFFFFFFFFFF AND DUP5 PUSH20 0xFFFFFFFFFFFFFFFFFFFFFFFFFFFFFFFFFFFFFFFF AND PUSH32 0xDDF252AD1BE2C89B69C2B068FC378DAA952BA7F163C4A11628F55A4DF523B3EF DUP5 PUSH1 0x40 MLOAD DUP1 DUP3 DUP2 MSTORE PUSH1 0x20 ADD SWAP2 POP POP PUSH1 0x40 MLOAD DUP1 SWAP2 SUB SWAP1 LOG3 PUSH1 0x1 SWAP1 POP SWAP4 SWAP3 POP POP POP JUMP JUMPDEST PUSH2 0x23BA PUSH2 0x25C2 JUMP JUMPDEST PUSH20 0xFFFFFFFFFFFFFFFFFFFFFFFFFFFFFFFFFFFFFFFF AND PUSH1 0x1 PUSH1 0x0 SWAP1 SLOAD SWAP1 PUSH2 0x100 EXP SWAP1 DIV PUSH20 0xFFFFFFFFFFFFFFFFFFFFFFFFFFFFFFFFFFFFFFFF AND PUSH20 0xFFFFFFFFFFFFFFFFFFFFFFFFFFFFFFFFFFFFFFFF AND EQ PUSH2 0x247C JUMPI PUSH1 0x40 MLOAD PUSH32 0x8C379A000000000000000000000000000000000000000000000000000000000 DUP2 MSTORE PUSH1 0x4 ADD DUP1 DUP1 PUSH1 0x20 ADD DUP3 DUP2 SUB DUP3 MSTORE PUSH1 0x20 DUP2 MSTORE PUSH1 0x20 ADD DUP1 PUSH32 0x4F776E61626C653A2063616C6C6572206973206E6F7420746865206F776E6572 DUP2 MSTORE POP PUSH1 0x20 ADD SWAP2 POP POP PUSH1 0x40 MLOAD DUP1 SWAP2 SUB SWAP1 REVERT JUMPDEST PUSH1 0x0 PUSH20 0xFFFFFFFFFFFFFFFFFFFFFFFFFFFFFFFFFFFFFFFF AND DUP2 PUSH20 0xFFFFFFFFFFFFFFFFFFFFFFFFFFFFFFFFFFFFFFFF AND EQ ISZERO PUSH2 0x2502 JUMPI PUSH1 0x40 MLOAD PUSH32 0x8C379A000000000000000000000000000000000000000000000000000000000 DUP2 MSTORE PUSH1 0x4 ADD DUP1 DUP1 PUSH1 0x20 ADD DUP3 DUP2 SUB DUP3 MSTORE PUSH1 0x26 DUP2 MSTORE PUSH1 0x20 ADD DUP1 PUSH2 0x3C65 PUSH1 0x26 SWAP2 CODECOPY PUSH1 0x40 ADD SWAP2 POP POP PUSH1 0x40 MLOAD DUP1 SWAP2 SUB SWAP1 REVERT JUMPDEST DUP1 PUSH20 0xFFFFFFFFFFFFFFFFFFFFFFFFFFFFFFFFFFFFFFFF AND PUSH1 0x1 PUSH1 0x0 SWAP1 SLOAD SWAP1 PUSH2 0x100 EXP SWAP1 DIV PUSH20 0xFFFFFFFFFFFFFFFFFFFFFFFFFFFFFFFFFFFFFFFF AND PUSH20 0xFFFFFFFFFFFFFFFFFFFFFFFFFFFFFFFFFFFFFFFF AND PUSH32 0x8BE0079C531659141344CD1FD0A4F28419497F9722A3DAAFE3B4186F6B6457E0 PUSH1 0x40 MLOAD PUSH1 0x40 MLOAD DUP1 SWAP2 SUB SWAP1 LOG3 DUP1 PUSH1 0x1 PUSH1 0x0 PUSH2 0x100 EXP DUP2 SLOAD DUP2 PUSH20 0xFFFFFFFFFFFFFFFFFFFFFFFFFFFFFFFFFFFFFFFF MUL NOT AND SWAP1 DUP4 PUSH20 0xFFFFFFFFFFFFFFFFFFFFFFFFFFFFFFFFFFFFFFFF AND MUL OR SWAP1 SSTORE POP POP JUMP JUMPDEST PUSH1 0x0 CALLER SWAP1 POP SWAP1 JUMP JUMPDEST PUSH1 0x0 PUSH20 0xFFFFFFFFFFFFFFFFFFFFFFFFFFFFFFFFFFFFFFFF AND DUP4 PUSH20 0xFFFFFFFFFFFFFFFFFFFFFFFFFFFFFFFFFFFFFFFF AND EQ ISZERO PUSH2 0x2650 JUMPI PUSH1 0x40 MLOAD PUSH32 0x8C379A000000000000000000000000000000000000000000000000000000000 DUP2 MSTORE PUSH1 0x4 ADD DUP1 DUP1 PUSH1 0x20 ADD DUP3 DUP2 SUB DUP3 MSTORE PUSH1 0x24 DUP2 MSTORE PUSH1 0x20 ADD DUP1 PUSH2 0x3E51 PUSH1 0x24 SWAP2 CODECOPY PUSH1 0x40 ADD SWAP2 POP POP PUSH1 0x40 MLOAD DUP1 SWAP2 SUB SWAP1 REVERT JUMPDEST PUSH1 0x0 PUSH20 0xFFFFFFFFFFFFFFFFFFFFFFFFFFFFFFFFFFFFFFFF AND DUP3 PUSH20 0xFFFFFFFFFFFFFFFFFFFFFFFFFFFFFFFFFFFFFFFF AND EQ ISZERO PUSH2 0x26D6 JUMPI PUSH1 0x40 MLOAD PUSH32 0x8C379A000000000000000000000000000000000000000000000000000000000 DUP2 MSTORE PUSH1 0x4 ADD DUP1 DUP1 PUSH1 0x20 ADD DUP3 DUP2 SUB DUP3 MSTORE PUSH1 0x22 DUP2 MSTORE PUSH1 0x20 ADD DUP1 PUSH2 0x3C8B PUSH1 0x22 SWAP2 CODECOPY PUSH1 0x40 ADD SWAP2 POP POP PUSH1 0x40 MLOAD DUP1 SWAP2 SUB SWAP1 REVERT JUMPDEST DUP1 PUSH1 0x6 PUSH1 0x0 DUP6 PUSH20 0xFFFFFFFFFFFFFFFFFFFFFFFFFFFFFFFFFFFFFFFF AND PUSH20 0xFFFFFFFFFFFFFFFFFFFFFFFFFFFFFFFFFFFFFFFF AND DUP2 MSTORE PUSH1 0x20 ADD SWAP1 DUP2 MSTORE PUSH1 0x20 ADD PUSH1 0x0 KECCAK256 PUSH1 0x0 DUP5 PUSH20 0xFFFFFFFFFFFFFFFFFFFFFFFFFFFFFFFFFFFFFFFF AND PUSH20 0xFFFFFFFFFFFFFFFFFFFFFFFFFFFFFFFFFFFFFFFF AND DUP2 MSTORE PUSH1 0x20 ADD SWAP1 DUP2 MSTORE PUSH1 0x20 ADD PUSH1 0x0 KECCAK256 DUP2 SWAP1 SSTORE POP DUP2 PUSH20 0xFFFFFFFFFFFFFFFFFFFFFFFFFFFFFFFFFFFFFFFF AND DUP4 PUSH20 0xFFFFFFFFFFFFFFFFFFFFFFFFFFFFFFFFFFFFFFFF AND PUSH32 0x8C5BE1E5EBEC7D5BD14F71427D1E84F3DD0314C0F7B2291E5B200AC8C7C3B925 DUP4 PUSH1 0x40 MLOAD DUP1 DUP3 DUP2 MSTORE PUSH1 0x20 ADD SWAP2 POP POP PUSH1 0x40 MLOAD DUP1 SWAP2 SUB SWAP1 LOG3 POP POP POP JUMP JUMPDEST PUSH1 0x0 PUSH20 0xFFFFFFFFFFFFFFFFFFFFFFFFFFFFFFFFFFFFFFFF AND DUP3 PUSH20 0xFFFFFFFFFFFFFFFFFFFFFFFFFFFFFFFFFFFFFFFF AND EQ ISZERO PUSH2 0x2847 JUMPI PUSH1 0x40 MLOAD PUSH32 0x8C379A000000000000000000000000000000000000000000000000000000000 DUP2 MSTORE PUSH1 0x4 ADD DUP1 DUP1 PUSH1 0x20 ADD DUP3 DUP2 SUB DUP3 MSTORE PUSH1 0x21 DUP2 MSTORE PUSH1 0x20 ADD DUP1 PUSH2 0x3DC2 PUSH1 0x21 SWAP2 CODECOPY PUSH1 0x40 ADD SWAP2 POP POP PUSH1 0x40 MLOAD DUP1 SWAP2 SUB SWAP1 REVERT JUMPDEST PUSH1 0x0 DUP2 GT PUSH2 0x28A0 JUMPI PUSH1 0x40 MLOAD PUSH32 0x8C379A000000000000000000000000000000000000000000000000000000000 DUP2 MSTORE PUSH1 0x4 ADD DUP1 DUP1 PUSH1 0x20 ADD DUP3 DUP2 SUB DUP3 MSTORE PUSH1 0x31 DUP2 MSTORE PUSH1 0x20 ADD DUP1 PUSH2 0x3CFD PUSH1 0x31 SWAP2 CODECOPY PUSH1 0x40 ADD SWAP2 POP POP PUSH1 0x40 MLOAD DUP1 SWAP2 SUB SWAP1 REVERT JUMPDEST DUP1 PUSH2 0x28AA DUP4 PUSH2 0x315A JUMP JUMPDEST LT ISZERO PUSH2 0x2901 JUMPI PUSH1 0x40 MLOAD PUSH32 0x8C379A000000000000000000000000000000000000000000000000000000000 DUP2 MSTORE PUSH1 0x4 ADD DUP1 DUP1 PUSH1 0x20 ADD DUP3 DUP2 SUB DUP3 MSTORE PUSH1 0x2E DUP2 MSTORE PUSH1 0x20 ADD DUP1 PUSH2 0x3BEF PUSH1 0x2E SWAP2 CODECOPY PUSH1 0x40 ADD SWAP2 POP POP PUSH1 0x40 MLOAD DUP1 SWAP2 SUB SWAP1 REVERT JUMPDEST PUSH2 0x290B DUP3 DUP3 PUSH2 0x346F JUMP JUMPDEST POP DUP2 PUSH20 0xFFFFFFFFFFFFFFFFFFFFFFFFFFFFFFFFFFFFFFFF AND PUSH32 0x36A0B989202AF25B5D49A593A1DD43461453EF93A93A7846EA3DBB487E119800 DUP3 PUSH1 0x40 MLOAD DUP1 DUP3 DUP2 MSTORE PUSH1 0x20 ADD SWAP2 POP POP PUSH1 0x40 MLOAD DUP1 SWAP2 SUB SWAP1 LOG2 PUSH2 0x29AC DUP2 PUSH1 0x5 PUSH1 0x0 DUP6 PUSH20 0xFFFFFFFFFFFFFFFFFFFFFFFFFFFFFFFFFFFFFFFF AND PUSH20 0xFFFFFFFFFFFFFFFFFFFFFFFFFFFFFFFFFFFFFFFF AND DUP2 MSTORE PUSH1 0x20 ADD SWAP1 DUP2 MSTORE PUSH1 0x20 ADD PUSH1 0x0 KECCAK256 SLOAD PUSH2 0x2D43 SWAP1 SWAP2 SWAP1 PUSH4 0xFFFFFFFF AND JUMP JUMPDEST PUSH1 0x5 PUSH1 0x0 DUP5 PUSH20 0xFFFFFFFFFFFFFFFFFFFFFFFFFFFFFFFFFFFFFFFF AND PUSH20 0xFFFFFFFFFFFFFFFFFFFFFFFFFFFFFFFFFFFFFFFF AND DUP2 MSTORE PUSH1 0x20 ADD SWAP1 DUP2 MSTORE PUSH1 0x20 ADD PUSH1 0x0 KECCAK256 DUP2 SWAP1 SSTORE POP POP POP JUMP JUMPDEST PUSH1 0x0 PUSH20 0xFFFFFFFFFFFFFFFFFFFFFFFFFFFFFFFFFFFFFFFF AND DUP3 PUSH20 0xFFFFFFFFFFFFFFFFFFFFFFFFFFFFFFFFFFFFFFFF AND EQ ISZERO PUSH2 0x2A79 JUMPI PUSH1 0x40 MLOAD PUSH32 0x8C379A000000000000000000000000000000000000000000000000000000000 DUP2 MSTORE PUSH1 0x4 ADD DUP1 DUP1 PUSH1 0x20 ADD DUP3 DUP2 SUB DUP3 MSTORE PUSH1 0x28 DUP2 MSTORE PUSH1 0x20 ADD DUP1 PUSH2 0x3E04 PUSH1 0x28 SWAP2 CODECOPY PUSH1 0x40 ADD SWAP2 POP POP PUSH1 0x40 MLOAD DUP1 SWAP2 SUB SWAP1 REVERT JUMPDEST PUSH2 0x2A8E DUP2 PUSH1 0x7 SLOAD PUSH2 0x35AD SWAP1 SWAP2 SWAP1 PUSH4 0xFFFFFFFF AND JUMP JUMPDEST PUSH1 0x7 DUP2 SWAP1 SSTORE POP PUSH2 0x2A9E DUP3 DUP3 PUSH2 0x346F JUMP JUMPDEST POP ADDRESS PUSH20 0xFFFFFFFFFFFFFFFFFFFFFFFFFFFFFFFFFFFFFFFF AND DUP3 PUSH20 0xFFFFFFFFFFFFFFFFFFFFFFFFFFFFFFFFFFFFFFFF AND PUSH32 0xDDF252AD1BE2C89B69C2B068FC378DAA952BA7F163C4A11628F55A4DF523B3EF DUP4 PUSH1 0x40 MLOAD DUP1 DUP3 DUP2 MSTORE PUSH1 0x20 ADD SWAP2 POP POP PUSH1 0x40 MLOAD DUP1 SWAP2 SUB SWAP1 LOG3 POP POP JUMP JUMPDEST PUSH1 0x0 PUSH1 0xC SLOAD GT DUP1 ISZERO PUSH2 0x2B6A JUMPI POP PUSH1 0x1 ISZERO ISZERO PUSH1 0xD PUSH1 0x0 DUP5 PUSH20 0xFFFFFFFFFFFFFFFFFFFFFFFFFFFFFFFFFFFFFFFF AND PUSH20 0xFFFFFFFFFFFFFFFFFFFFFFFFFFFFFFFFFFFFFFFF AND DUP2 MSTORE PUSH1 0x20 ADD SWAP1 DUP2 MSTORE PUSH1 0x20 ADD PUSH1 0x0 KECCAK256 PUSH1 0x0 SWAP1 SLOAD SWAP1 PUSH2 0x100 EXP SWAP1 DIV PUSH1 0xFF AND ISZERO ISZERO EQ JUMPDEST DUP1 ISZERO PUSH2 0x2BA3 JUMPI POP PUSH1 0x0 PUSH20 0xFFFFFFFFFFFFFFFFFFFFFFFFFFFFFFFFFFFFFFFF AND DUP3 PUSH20 0xFFFFFFFFFFFFFFFFFFFFFFFFFFFFFFFFFFFFFFFF AND EQ ISZERO JUMPDEST DUP1 ISZERO PUSH2 0x2BFE JUMPI POP PUSH1 0x0 PUSH20 0xFFFFFFFFFFFFFFFFFFFFFFFFFFFFFFFFFFFFFFFF AND PUSH1 0xB PUSH1 0x1 SWAP1 SLOAD SWAP1 PUSH2 0x100 EXP SWAP1 DIV PUSH20 0xFFFFFFFFFFFFFFFFFFFFFFFFFFFFFFFFFFFFFFFF AND PUSH20 0xFFFFFFFFFFFFFFFFFFFFFFFFFFFFFFFFFFFFFFFF AND EQ ISZERO JUMPDEST ISZERO PUSH2 0x2C73 JUMPI PUSH1 0x0 PUSH2 0x2C2D PUSH1 0x64 PUSH2 0x2C1F PUSH1 0xC SLOAD DUP6 PUSH2 0x35F7 SWAP1 SWAP2 SWAP1 PUSH4 0xFFFFFFFF AND JUMP JUMPDEST PUSH2 0x367D SWAP1 SWAP2 SWAP1 PUSH4 0xFFFFFFFF AND JUMP JUMPDEST SWAP1 POP PUSH2 0x2C5C DUP5 PUSH1 0xB PUSH1 0x1 SWAP1 SLOAD SWAP1 PUSH2 0x100 EXP SWAP1 DIV PUSH20 0xFFFFFFFFFFFFFFFFFFFFFFFFFFFFFFFFFFFFFFFF AND DUP4 PUSH2 0x36C7 JUMP JUMPDEST PUSH2 0x2C6F DUP2 DUP4 PUSH2 0x35AD SWAP1 SWAP2 SWAP1 PUSH4 0xFFFFFFFF AND JUMP JUMPDEST SWAP2 POP POP JUMPDEST PUSH2 0x2C7E DUP4 DUP4 DUP4 PUSH2 0x36C7 JUMP JUMPDEST POP POP POP JUMP JUMPDEST PUSH1 0x0 DUP4 DUP4 GT ISZERO DUP3 SWAP1 PUSH2 0x2D30 JUMPI PUSH1 0x40 MLOAD PUSH32 0x8C379A000000000000000000000000000000000000000000000000000000000 DUP2 MSTORE PUSH1 0x4 ADD DUP1 DUP1 PUSH1 0x20 ADD DUP3 DUP2 SUB DUP3 MSTORE DUP4 DUP2 DUP2 MLOAD DUP2 MSTORE PUSH1 0x20 ADD SWAP2 POP DUP1 MLOAD SWAP1 PUSH1 0x20 ADD SWAP1 DUP1 DUP4 DUP4 PUSH1 0x0 JUMPDEST DUP4 DUP2 LT ISZERO PUSH2 0x2CF5 JUMPI DUP1 DUP3 ADD MLOAD DUP2 DUP5 ADD MSTORE PUSH1 0x20 DUP2 ADD SWAP1 POP PUSH2 0x2CDA JUMP JUMPDEST POP POP POP POP SWAP1 POP SWAP1 DUP2 ADD SWAP1 PUSH1 0x1F AND DUP1 ISZERO PUSH2 0x2D22 JUMPI DUP1 DUP3 SUB DUP1 MLOAD PUSH1 0x1 DUP4 PUSH1 0x20 SUB PUSH2 0x100 EXP SUB NOT AND DUP2 MSTORE PUSH1 0x20 ADD SWAP2 POP JUMPDEST POP SWAP3 POP POP POP PUSH1 0x40 MLOAD DUP1 SWAP2 SUB SWAP1 REVERT JUMPDEST POP PUSH1 0x0 DUP4 DUP6 SUB SWAP1 POP DUP1 SWAP2 POP POP SWAP4 SWAP3 POP POP POP JUMP JUMPDEST PUSH1 0x0 DUP1 DUP3 DUP5 ADD SWAP1 POP DUP4 DUP2 LT ISZERO PUSH2 0x2DC1 JUMPI PUSH1 0x40 MLOAD PUSH32 0x8C379A000000000000000000000000000000000000000000000000000000000 DUP2 MSTORE PUSH1 0x4 ADD DUP1 DUP1 PUSH1 0x20 ADD DUP3 DUP2 SUB DUP3 MSTORE PUSH1 0x1B DUP2 MSTORE PUSH1 0x20 ADD DUP1 PUSH32 0x536166654D6174683A206164646974696F6E206F766572666C6F770000000000 DUP2 MSTORE POP PUSH1 0x20 ADD SWAP2 POP POP PUSH1 0x40 MLOAD DUP1 SWAP2 SUB SWAP1 REVERT JUMPDEST DUP1 SWAP2 POP POP SWAP3 SWAP2 POP POP JUMP JUMPDEST PUSH1 0x0 PUSH20 0xFFFFFFFFFFFFFFFFFFFFFFFFFFFFFFFFFFFFFFFF AND DUP3 PUSH20 0xFFFFFFFFFFFFFFFFFFFFFFFFFFFFFFFFFFFFFFFF AND EQ ISZERO PUSH2 0x2E6E JUMPI PUSH1 0x40 MLOAD PUSH32 0x8C379A000000000000000000000000000000000000000000000000000000000 DUP2 MSTORE PUSH1 0x4 ADD DUP1 DUP1 PUSH1 0x20 ADD DUP3 DUP2 SUB DUP3 MSTORE PUSH1 0x1F DUP2 MSTORE PUSH1 0x20 ADD DUP1 PUSH32 0x45524332303A206D696E7420746F20746865207A65726F206164647265737300 DUP2 MSTORE POP PUSH1 0x20 ADD SWAP2 POP POP PUSH1 0x40 MLOAD DUP1 SWAP2 SUB SWAP1 REVERT JUMPDEST PUSH2 0x2E7A PUSH1 0x0 DUP4 DUP4 PUSH2 0x398C JUMP JUMPDEST PUSH2 0x2E8F DUP2 PUSH1 0x7 SLOAD PUSH2 0x2D43 SWAP1 SWAP2 SWAP1 PUSH4 0xFFFFFFFF AND JUMP JUMPDEST PUSH1 0x7 DUP2 SWAP1 SSTORE POP PUSH2 0x2EE7 DUP2 PUSH1 0x5 PUSH1 0x0 DUP6 PUSH20 0xFFFFFFFFFFFFFFFFFFFFFFFFFFFFFFFFFFFFFFFF AND PUSH20 0xFFFFFFFFFFFFFFFFFFFFFFFFFFFFFFFFFFFFFFFF AND DUP2 MSTORE PUSH1 0x20 ADD SWAP1 DUP2 MSTORE PUSH1 0x20 ADD PUSH1 0x0 KECCAK256 SLOAD PUSH2 0x2D43 SWAP1 SWAP2 SWAP1 PUSH4 0xFFFFFFFF AND JUMP JUMPDEST PUSH1 0x5 PUSH1 0x0 DUP5 PUSH20 0xFFFFFFFFFFFFFFFFFFFFFFFFFFFFFFFFFFFFFFFF AND PUSH20 0xFFFFFFFFFFFFFFFFFFFFFFFFFFFFFFFFFFFFFFFF AND DUP2 MSTORE PUSH1 0x20 ADD SWAP1 DUP2 MSTORE PUSH1 0x20 ADD PUSH1 0x0 KECCAK256 DUP2 SWAP1 SSTORE POP DUP2 PUSH20 0xFFFFFFFFFFFFFFFFFFFFFFFFFFFFFFFFFFFFFFFF AND PUSH1 0x0 PUSH20 0xFFFFFFFFFFFFFFFFFFFFFFFFFFFFFFFFFFFFFFFF AND PUSH32 0xDDF252AD1BE2C89B69C2B068FC378DAA952BA7F163C4A11628F55A4DF523B3EF DUP4 PUSH1 0x40 MLOAD DUP1 DUP3 DUP2 MSTORE PUSH1 0x20 ADD SWAP2 POP POP PUSH1 0x40 MLOAD DUP1 SWAP2 SUB SWAP1 LOG3 POP POP JUMP JUMPDEST PUSH1 0x0 PUSH20 0xFFFFFFFFFFFFFFFFFFFFFFFFFFFFFFFFFFFFFFFF AND DUP3 PUSH20 0xFFFFFFFFFFFFFFFFFFFFFFFFFFFFFFFFFFFFFFFF AND EQ ISZERO PUSH2 0x301A JUMPI PUSH1 0x40 MLOAD PUSH32 0x8C379A000000000000000000000000000000000000000000000000000000000 DUP2 MSTORE PUSH1 0x4 ADD DUP1 DUP1 PUSH1 0x20 ADD DUP3 DUP2 SUB DUP3 MSTORE PUSH1 0x21 DUP2 MSTORE PUSH1 0x20 ADD DUP1 PUSH2 0x3DE3 PUSH1 0x21 SWAP2 CODECOPY PUSH1 0x40 ADD SWAP2 POP POP PUSH1 0x40 MLOAD DUP1 SWAP2 SUB SWAP1 REVERT JUMPDEST PUSH2 0x3026 DUP3 PUSH1 0x0 DUP4 PUSH2 0x398C JUMP JUMPDEST PUSH2 0x3092 DUP2 PUSH1 0x40 MLOAD DUP1 PUSH1 0x60 ADD PUSH1 0x40 MSTORE DUP1 PUSH1 0x22 DUP2 MSTORE PUSH1 0x20 ADD PUSH2 0x3C1D PUSH1 0x22 SWAP2 CODECOPY PUSH1 0x5 PUSH1 0x0 DUP7 PUSH20 0xFFFFFFFFFFFFFFFFFFFFFFFFFFFFFFFFFFFFFFFF AND PUSH20 0xFFFFFFFFFFFFFFFFFFFFFFFFFFFFFFFFFFFFFFFF AND DUP2 MSTORE PUSH1 0x20 ADD SWAP1 DUP2 MSTORE PUSH1 0x20 ADD PUSH1 0x0 KECCAK256 SLOAD PUSH2 0x2C83 SWAP1 SWAP3 SWAP2 SWAP1 PUSH4 0xFFFFFFFF AND JUMP JUMPDEST PUSH1 0x5 PUSH1 0x0 DUP5 PUSH20 0xFFFFFFFFFFFFFFFFFFFFFFFFFFFFFFFFFFFFFFFF AND PUSH20 0xFFFFFFFFFFFFFFFFFFFFFFFFFFFFFFFFFFFFFFFF AND DUP2 MSTORE PUSH1 0x20 ADD SWAP1 DUP2 MSTORE PUSH1 0x20 ADD PUSH1 0x0 KECCAK256 DUP2 SWAP1 SSTORE POP PUSH2 0x30EA DUP2 PUSH1 0x7 SLOAD PUSH2 0x35AD SWAP1 SWAP2 SWAP1 PUSH4 0xFFFFFFFF AND JUMP JUMPDEST PUSH1 0x7 DUP2 SWAP1 SSTORE POP PUSH1 0x0 PUSH20 0xFFFFFFFFFFFFFFFFFFFFFFFFFFFFFFFFFFFFFFFF AND DUP3 PUSH20 0xFFFFFFFFFFFFFFFFFFFFFFFFFFFFFFFFFFFFFFFF AND PUSH32 0xDDF252AD1BE2C89B69C2B068FC378DAA952BA7F163C4A11628F55A4DF523B3EF DUP4 PUSH1 0x40 MLOAD DUP1 DUP3 DUP2 MSTORE PUSH1 0x20 ADD SWAP2 POP POP PUSH1 0x40 MLOAD DUP1 SWAP2 SUB SWAP1 LOG3 POP POP JUMP JUMPDEST PUSH1 0x0 DUP1 PUSH1 0x0 DUP4 PUSH20 0xFFFFFFFFFFFFFFFFFFFFFFFFFFFFFFFFFFFFFFFF AND PUSH20 0xFFFFFFFFFFFFFFFFFFFFFFFFFFFFFFFFFFFFFFFF AND DUP2 MSTORE PUSH1 0x20 ADD SWAP1 DUP2 MSTORE PUSH1 0x20 ADD PUSH1 0x0 KECCAK256 SLOAD SWAP1 POP SWAP2 SWAP1 POP JUMP JUMPDEST PUSH1 0x0 PUSH20 0xFFFFFFFFFFFFFFFFFFFFFFFFFFFFFFFFFFFFFFFF AND DUP3 PUSH20 0xFFFFFFFFFFFFFFFFFFFFFFFFFFFFFFFFFFFFFFFF AND EQ ISZERO PUSH2 0x3228 JUMPI PUSH1 0x40 MLOAD PUSH32 0x8C379A000000000000000000000000000000000000000000000000000000000 DUP2 MSTORE PUSH1 0x4 ADD DUP1 DUP1 PUSH1 0x20 ADD DUP3 DUP2 SUB DUP3 MSTORE PUSH1 0x26 DUP2 MSTORE PUSH1 0x20 ADD DUP1 PUSH2 0x3C3F PUSH1 0x26 SWAP2 CODECOPY PUSH1 0x40 ADD SWAP2 POP POP PUSH1 0x40 MLOAD DUP1 SWAP2 SUB SWAP1 REVERT JUMPDEST ADDRESS PUSH20 0xFFFFFFFFFFFFFFFFFFFFFFFFFFFFFFFFFFFFFFFF AND DUP3 PUSH20 0xFFFFFFFFFFFFFFFFFFFFFFFFFFFFFFFFFFFFFFFF AND EQ ISZERO PUSH2 0x32AD JUMPI PUSH1 0x40 MLOAD PUSH32 0x8C379A000000000000000000000000000000000000000000000000000000000 DUP2 MSTORE PUSH1 0x4 ADD DUP1 DUP1 PUSH1 0x20 ADD DUP3 DUP2 SUB DUP3 MSTORE PUSH1 0x2A DUP2 MSTORE PUSH1 0x20 ADD DUP1 PUSH2 0x3CAD PUSH1 0x2A SWAP2 CODECOPY PUSH1 0x40 ADD SWAP2 POP POP PUSH1 0x40 MLOAD DUP1 SWAP2 SUB SWAP1 REVERT JUMPDEST PUSH1 0x0 DUP2 GT PUSH2 0x3306 JUMPI PUSH1 0x40 MLOAD PUSH32 0x8C379A000000000000000000000000000000000000000000000000000000000 DUP2 MSTORE PUSH1 0x4 ADD DUP1 DUP1 PUSH1 0x20 ADD DUP3 DUP2 SUB DUP3 MSTORE PUSH1 0x27 DUP2 MSTORE PUSH1 0x20 ADD DUP1 PUSH2 0x3D2E PUSH1 0x27 SWAP2 CODECOPY PUSH1 0x40 ADD SWAP2 POP POP PUSH1 0x40 MLOAD DUP1 SWAP2 SUB SWAP1 REVERT JUMPDEST PUSH1 0x8 SLOAD PUSH2 0x331E DUP3 PUSH1 0x7 SLOAD PUSH2 0x2D43 SWAP1 SWAP2 SWAP1 PUSH4 0xFFFFFFFF AND JUMP JUMPDEST GT ISZERO PUSH2 0x3392 JUMPI PUSH1 0x40 MLOAD PUSH32 0x8C379A000000000000000000000000000000000000000000000000000000000 DUP2 MSTORE PUSH1 0x4 ADD DUP1 DUP1 PUSH1 0x20 ADD DUP3 DUP2 SUB DUP3 MSTORE PUSH1 0x20 DUP2 MSTORE PUSH1 0x20 ADD DUP1 PUSH32 0x45524332304361707065643A206D617820737570706C79206578636565646564 DUP2 MSTORE POP PUSH1 0x20 ADD SWAP2 POP POP PUSH1 0x40 MLOAD DUP1 SWAP2 SUB SWAP1 REVERT JUMPDEST PUSH2 0x33A7 DUP2 PUSH1 0x7 SLOAD PUSH2 0x2D43 SWAP1 SWAP2 SWAP1 PUSH4 0xFFFFFFFF AND JUMP JUMPDEST PUSH1 0x7 DUP2 SWAP1 SSTORE POP DUP2 PUSH20 0xFFFFFFFFFFFFFFFFFFFFFFFFFFFFFFFFFFFFFFFF AND ADDRESS PUSH20 0xFFFFFFFFFFFFFFFFFFFFFFFFFFFFFFFFFFFFFFFF AND PUSH32 0xDDF252AD1BE2C89B69C2B068FC378DAA952BA7F163C4A11628F55A4DF523B3EF DUP4 PUSH1 0x40 MLOAD DUP1 DUP3 DUP2 MSTORE PUSH1 0x20 ADD SWAP2 POP POP PUSH1 0x40 MLOAD DUP1 SWAP2 SUB SWAP1 LOG3 PUSH2 0x341C DUP3 DUP3 PUSH2 0x350E JUMP JUMPDEST POP DUP2 PUSH20 0xFFFFFFFFFFFFFFFFFFFFFFFFFFFFFFFFFFFFFFFF AND PUSH32 0xBA89AD6709373F454C31524E8C39CEF3CDD4B0E8CFDE0CCDDBD419A2E488BE6B DUP3 PUSH1 0x40 MLOAD DUP1 DUP3 DUP2 MSTORE PUSH1 0x20 ADD SWAP2 POP POP PUSH1 0x40 MLOAD DUP1 SWAP2 SUB SWAP1 LOG2 POP POP JUMP JUMPDEST PUSH1 0x0 PUSH2 0x34C2 DUP3 PUSH1 0x0 DUP1 DUP7 PUSH20 0xFFFFFFFFFFFFFFFFFFFFFFFFFFFFFFFFFFFFFFFF AND PUSH20 0xFFFFFFFFFFFFFFFFFFFFFFFFFFFFFFFFFFFFFFFF AND DUP2 MSTORE PUSH1 0x20 ADD SWAP1 DUP2 MSTORE PUSH1 0x20 ADD PUSH1 0x0 KECCAK256 SLOAD PUSH2 0x35AD SWAP1 SWAP2 SWAP1 PUSH4 0xFFFFFFFF AND JUMP JUMPDEST PUSH1 0x0 DUP1 DUP6 PUSH20 0xFFFFFFFFFFFFFFFFFFFFFFFFFFFFFFFFFFFFFFFF AND PUSH20 0xFFFFFFFFFFFFFFFFFFFFFFFFFFFFFFFFFFFFFFFF AND DUP2 MSTORE PUSH1 0x20 ADD SWAP1 DUP2 MSTORE PUSH1 0x20 ADD PUSH1 0x0 KECCAK256 DUP2 SWAP1 SSTORE POP PUSH1 0x1 SWAP1 POP SWAP3 SWAP2 POP POP JUMP JUMPDEST PUSH1 0x0 PUSH2 0x3561 DUP3 PUSH1 0x0 DUP1 DUP7 PUSH20 0xFFFFFFFFFFFFFFFFFFFFFFFFFFFFFFFFFFFFFFFF AND PUSH20 0xFFFFFFFFFFFFFFFFFFFFFFFFFFFFFFFFFFFFFFFF AND DUP2 MSTORE PUSH1 0x20 ADD SWAP1 DUP2 MSTORE PUSH1 0x20 ADD PUSH1 0x0 KECCAK256 SLOAD PUSH2 0x2D43 SWAP1 SWAP2 SWAP1 PUSH4 0xFFFFFFFF AND JUMP JUMPDEST PUSH1 0x0 DUP1 DUP6 PUSH20 0xFFFFFFFFFFFFFFFFFFFFFFFFFFFFFFFFFFFFFFFF AND PUSH20 0xFFFFFFFFFFFFFFFFFFFFFFFFFFFFFFFFFFFFFFFF AND DUP2 MSTORE PUSH1 0x20 ADD SWAP1 DUP2 MSTORE PUSH1 0x20 ADD PUSH1 0x0 KECCAK256 DUP2 SWAP1 SSTORE POP PUSH1 0x1 SWAP1 POP SWAP3 SWAP2 POP POP JUMP JUMPDEST PUSH1 0x0 PUSH2 0x35EF DUP4 DUP4 PUSH1 0x40 MLOAD DUP1 PUSH1 0x40 ADD PUSH1 0x40 MSTORE DUP1 PUSH1 0x1E DUP2 MSTORE PUSH1 0x20 ADD PUSH32 0x536166654D6174683A207375627472616374696F6E206F766572666C6F770000 DUP2 MSTORE POP PUSH2 0x2C83 JUMP JUMPDEST SWAP1 POP SWAP3 SWAP2 POP POP JUMP JUMPDEST PUSH1 0x0 DUP1 DUP4 EQ ISZERO PUSH2 0x360A JUMPI PUSH1 0x0 SWAP1 POP PUSH2 0x3677 JUMP JUMPDEST PUSH1 0x0 DUP3 DUP5 MUL SWAP1 POP DUP3 DUP5 DUP3 DUP2 PUSH2 0x361B JUMPI INVALID JUMPDEST DIV EQ PUSH2 0x3672 JUMPI PUSH1 0x40 MLOAD PUSH32 0x8C379A000000000000000000000000000000000000000000000000000000000 DUP2 MSTORE PUSH1 0x4 ADD DUP1 DUP1 PUSH1 0x20 ADD DUP3 DUP2 SUB DUP3 MSTORE PUSH1 0x21 DUP2 MSTORE PUSH1 0x20 ADD DUP1 PUSH2 0x3D55 PUSH1 0x21 SWAP2 CODECOPY PUSH1 0x40 ADD SWAP2 POP POP PUSH1 0x40 MLOAD DUP1 SWAP2 SUB SWAP1 REVERT JUMPDEST DUP1 SWAP2 POP POP JUMPDEST SWAP3 SWAP2 POP POP JUMP JUMPDEST PUSH1 0x0 PUSH2 0x36BF DUP4 DUP4 PUSH1 0x40 MLOAD DUP1 PUSH1 0x40 ADD PUSH1 0x40 MSTORE DUP1 PUSH1 0x1A DUP2 MSTORE PUSH1 0x20 ADD PUSH32 0x536166654D6174683A206469766973696F6E206279207A65726F000000000000 DUP2 MSTORE POP PUSH2 0x3A68 JUMP JUMPDEST SWAP1 POP SWAP3 SWAP2 POP POP JUMP JUMPDEST PUSH1 0x0 PUSH20 0xFFFFFFFFFFFFFFFFFFFFFFFFFFFFFFFFFFFFFFFF AND DUP4 PUSH20 0xFFFFFFFFFFFFFFFFFFFFFFFFFFFFFFFFFFFFFFFF AND EQ ISZERO PUSH2 0x374D JUMPI PUSH1 0x40 MLOAD PUSH32 0x8C379A000000000000000000000000000000000000000000000000000000000 DUP2 MSTORE PUSH1 0x4 ADD DUP1 DUP1 PUSH1 0x20 ADD DUP3 DUP2 SUB DUP3 MSTORE PUSH1 0x25 DUP2 MSTORE PUSH1 0x20 ADD DUP1 PUSH2 0x3E2C PUSH1 0x25 SWAP2 CODECOPY PUSH1 0x40 ADD SWAP2 POP POP PUSH1 0x40 MLOAD DUP1 SWAP2 SUB SWAP1 REVERT JUMPDEST PUSH1 0x0 PUSH20 0xFFFFFFFFFFFFFFFFFFFFFFFFFFFFFFFFFFFFFFFF AND DUP3 PUSH20 0xFFFFFFFFFFFFFFFFFFFFFFFFFFFFFFFFFFFFFFFF AND EQ ISZERO PUSH2 0x37D3 JUMPI PUSH1 0x40 MLOAD PUSH32 0x8C379A000000000000000000000000000000000000000000000000000000000 DUP2 MSTORE PUSH1 0x4 ADD DUP1 DUP1 PUSH1 0x20 ADD DUP3 DUP2 SUB DUP3 MSTORE PUSH1 0x23 DUP2 MSTORE PUSH1 0x20 ADD DUP1 PUSH2 0x3BCC PUSH1 0x23 SWAP2 CODECOPY PUSH1 0x40 ADD SWAP2 POP POP PUSH1 0x40 MLOAD DUP1 SWAP2 SUB SWAP1 REVERT JUMPDEST PUSH2 0x37DE DUP4 DUP4 DUP4 PUSH2 0x398C JUMP JUMPDEST PUSH2 0x384A DUP2 PUSH1 0x40 MLOAD DUP1 PUSH1 0x60 ADD PUSH1 0x40 MSTORE DUP1 PUSH1 0x26 DUP2 MSTORE PUSH1 0x20 ADD PUSH2 0x3CD7 PUSH1 0x26 SWAP2 CODECOPY PUSH1 0x5 PUSH1 0x0 DUP8 PUSH20 0xFFFFFFFFFFFFFFFFFFFFFFFFFFFFFFFFFFFFFFFF AND PUSH20 0xFFFFFFFFFFFFFFFFFFFFFFFFFFFFFFFFFFFFFFFF AND DUP2 MSTORE PUSH1 0x20 ADD SWAP1 DUP2 MSTORE PUSH1 0x20 ADD PUSH1 0x0 KECCAK256 SLOAD PUSH2 0x2C83 SWAP1 SWAP3 SWAP2 SWAP1 PUSH4 0xFFFFFFFF AND JUMP JUMPDEST PUSH1 0x5 PUSH1 0x0 DUP6 PUSH20 0xFFFFFFFFFFFFFFFFFFFFFFFFFFFFFFFFFFFFFFFF AND PUSH20 0xFFFFFFFFFFFFFFFFFFFFFFFFFFFFFFFFFFFFFFFF AND DUP2 MSTORE PUSH1 0x20 ADD SWAP1 DUP2 MSTORE PUSH1 0x20 ADD PUSH1 0x0 KECCAK256 DUP2 SWAP1 SSTORE POP PUSH2 0x38DF DUP2 PUSH1 0x5 PUSH1 0x0 DUP6 PUSH20 0xFFFFFFFFFFFFFFFFFFFFFFFFFFFFFFFFFFFFFFFF AND PUSH20 0xFFFFFFFFFFFFFFFFFFFFFFFFFFFFFFFFFFFFFFFF AND DUP2 MSTORE PUSH1 0x20 ADD SWAP1 DUP2 MSTORE PUSH1 0x20 ADD PUSH1 0x0 KECCAK256 SLOAD PUSH2 0x2D43 SWAP1 SWAP2 SWAP1 PUSH4 0xFFFFFFFF AND JUMP JUMPDEST PUSH1 0x5 PUSH1 0x0 DUP5 PUSH20 0xFFFFFFFFFFFFFFFFFFFFFFFFFFFFFFFFFFFFFFFF AND PUSH20 0xFFFFFFFFFFFFFFFFFFFFFFFFFFFFFFFFFFFFFFFF AND DUP2 MSTORE PUSH1 0x20 ADD SWAP1 DUP2 MSTORE PUSH1 0x20 ADD PUSH1 0x0 KECCAK256 DUP2 SWAP1 SSTORE POP DUP2 PUSH20 0xFFFFFFFFFFFFFFFFFFFFFFFFFFFFFFFFFFFFFFFF AND DUP4 PUSH20 0xFFFFFFFFFFFFFFFFFFFFFFFFFFFFFFFFFFFFFFFF AND PUSH32 0xDDF252AD1BE2C89B69C2B068FC378DAA952BA7F163C4A11628F55A4DF523B3EF DUP4 PUSH1 0x40 MLOAD DUP1 DUP3 DUP2 MSTORE PUSH1 0x20 ADD SWAP2 POP POP PUSH1 0x40 MLOAD DUP1 SWAP2 SUB SWAP1 LOG3 POP POP POP JUMP JUMPDEST PUSH2 0x3997 DUP4 DUP4 DUP4 PUSH2 0x3B2E JUMP JUMPDEST PUSH1 0x0 PUSH20 0xFFFFFFFFFFFFFFFFFFFFFFFFFFFFFFFFFFFFFFFF AND DUP4 PUSH20 0xFFFFFFFFFFFFFFFFFFFFFFFFFFFFFFFFFFFFFFFF AND EQ ISZERO PUSH2 0x3A63 JUMPI PUSH2 0x39D4 PUSH2 0x1F44 JUMP JUMPDEST PUSH2 0x39EE DUP3 PUSH2 0x39E0 PUSH2 0xEC1 JUMP JUMPDEST PUSH2 0x2D43 SWAP1 SWAP2 SWAP1 PUSH4 0xFFFFFFFF AND JUMP JUMPDEST GT ISZERO PUSH2 0x3A62 JUMPI PUSH1 0x40 MLOAD PUSH32 0x8C379A000000000000000000000000000000000000000000000000000000000 DUP2 MSTORE PUSH1 0x4 ADD DUP1 DUP1 PUSH1 0x20 ADD DUP3 DUP2 SUB DUP3 MSTORE PUSH1 0x20 DUP2 MSTORE PUSH1 0x20 ADD DUP1 PUSH32 0x45524332304361707065643A206D617820737570706C79206578636565646564 DUP2 MSTORE POP PUSH1 0x20 ADD SWAP2 POP POP PUSH1 0x40 MLOAD DUP1 SWAP2 SUB SWAP1 REVERT JUMPDEST JUMPDEST POP POP POP JUMP JUMPDEST PUSH1 0x0 DUP1 DUP4 GT DUP3 SWAP1 PUSH2 0x3B14 JUMPI PUSH1 0x40 MLOAD PUSH32 0x8C379A000000000000000000000000000000000000000000000000000000000 DUP2 MSTORE PUSH1 0x4 ADD DUP1 DUP1 PUSH1 0x20 ADD DUP3 DUP2 SUB DUP3 MSTORE DUP4 DUP2 DUP2 MLOAD DUP2 MSTORE PUSH1 0x20 ADD SWAP2 POP DUP1 MLOAD SWAP1 PUSH1 0x20 ADD SWAP1 DUP1 DUP4 DUP4 PUSH1 0x0 JUMPDEST DUP4 DUP2 LT ISZERO PUSH2 0x3AD9 JUMPI DUP1 DUP3 ADD MLOAD DUP2 DUP5 ADD MSTORE PUSH1 0x20 DUP2 ADD SWAP1 POP PUSH2 0x3ABE JUMP JUMPDEST POP POP POP POP SWAP1 POP SWAP1 DUP2 ADD SWAP1 PUSH1 0x1F AND DUP1 ISZERO PUSH2 0x3B06 JUMPI DUP1 DUP3 SUB DUP1 MLOAD PUSH1 0x1 DUP4 PUSH1 0x20 SUB PUSH2 0x100 EXP SUB NOT AND DUP2 MSTORE PUSH1 0x20 ADD SWAP2 POP JUMPDEST POP SWAP3 POP POP POP PUSH1 0x40 MLOAD DUP1 SWAP2 SUB SWAP1 REVERT JUMPDEST POP PUSH1 0x0 DUP4 DUP6 DUP2 PUSH2 0x3B20 JUMPI INVALID JUMPDEST DIV SWAP1 POP DUP1 SWAP2 POP POP SWAP4 SWAP3 POP POP POP JUMP JUMPDEST DUP1 PUSH1 0x5 PUSH1 0x0 DUP6 PUSH20 0xFFFFFFFFFFFFFFFFFFFFFFFFFFFFFFFFFFFFFFFF AND PUSH20 0xFFFFFFFFFFFFFFFFFFFFFFFFFFFFFFFFFFFFFFFF AND DUP2 MSTORE PUSH1 0x20 ADD SWAP1 DUP2 MSTORE PUSH1 0x20 ADD PUSH1 0x0 KECCAK256 SLOAD LT ISZERO PUSH2 0x3BC6 JUMPI PUSH1 0x40 MLOAD PUSH32 0x8C379A000000000000000000000000000000000000000000000000000000000 DUP2 MSTORE PUSH1 0x4 ADD DUP1 DUP1 PUSH1 0x20 ADD DUP3 DUP2 SUB DUP3 MSTORE PUSH1 0x26 DUP2 MSTORE PUSH1 0x20 ADD DUP1 PUSH2 0x3CD7 PUSH1 0x26 SWAP2 CODECOPY PUSH1 0x40 ADD SWAP2 POP POP PUSH1 0x40 MLOAD DUP1 SWAP2 SUB SWAP1 REVERT JUMPDEST POP POP POP JUMP INVALID GASLIMIT MSTORE NUMBER ORIGIN ADDRESS GASPRICE KECCAK256 PUSH21 0x72616E7366657220746F20746865207A65726F2061 PUSH5 0x6472657373 GASLIMIT MSTORE NUMBER ORIGIN ADDRESS GASPRICE KECCAK256 PUSH14 0x656C742066726F6D207468652061 PUSH5 0x6472657373 GASPRICE KECCAK256 PUSH3 0x616C61 PUSH15 0x6365203C20616D6F756E7445524332 ADDRESS GASPRICE KECCAK256 PUSH3 0x75726E KECCAK256 PUSH2 0x6D6F PUSH22 0x6E7420657863656564732062616C616E636545524332 ADDRESS GASPRICE KECCAK256 PUSH14 0x696E742066726F7A656E20746F20 PUSH21 0x6865207A65726F20616464726573734F776E61626C PUSH6 0x3A206E657720 PUSH16 0x776E657220697320746865207A65726F KECCAK256 PUSH2 0x6464 PUSH19 0x65737345524332303A20617070726F76652074 PUSH16 0x20746865207A65726F20616464726573 PUSH20 0x45524332303A206D696E742066726F7A656E2074 PUSH16 0x2074686520636F6E7472616374206164 PUSH5 0x7265737345 MSTORE NUMBER ORIGIN ADDRESS GASPRICE KECCAK256 PUSH21 0x72616E7366657220616D6F756E7420657863656564 PUSH20 0x2062616C616E636545524332303A206D656C7420 PUSH7 0x726F6D20746865 KECCAK256 PUSH2 0x6464 PUSH19 0x6573733A2076616C75652073686F756C642062 PUSH6 0x203E20304552 NUMBER ORIGIN ADDRESS GASPRICE KECCAK256 PUSH14 0x696E742066726F7A656E20616D6F PUSH22 0x6E742073686F756C64206265203E2030536166654D61 PUSH21 0x683A206D756C7469706C69636174696F6E206F7665 PUSH19 0x666C6F7745524332303A207472616E73666572 KECCAK256 PUSH2 0x6D6F PUSH22 0x6E74206578636565647320616C6C6F77616E63654552 NUMBER ORIGIN ADDRESS GASPRICE KECCAK256 PUSH3 0x75726E KECCAK256 PUSH2 0x6D6F PUSH22 0x6E74206578636565647320616C6C6F77616E63654552 NUMBER ORIGIN ADDRESS GASPRICE KECCAK256 PUSH14 0x656C742066726F6D20746865207A PUSH6 0x726F20616464 PUSH19 0x65737345524332303A206275726E2066726F6D KECCAK256 PUSH21 0x6865207A65726F206164647265737345524332303A KECCAK256 PUSH7 0x726F7A656E2062 PUSH22 0x726E2066726F6D20746865207A65726F206164647265 PUSH20 0x7345524332303A207472616E736665722066726F PUSH14 0x20746865207A65726F2061646472 PUSH6 0x737345524332 ADDRESS GASPRICE KECCAK256 PUSH2 0x7070 PUSH19 0x6F76652066726F6D20746865207A65726F2061 PUSH5 0x6472657373 PUSH4 0x616C6C65 PUSH19 0x206E6F7420612070656E64696E67206D656C74 PUSH6 0x722061646D69 PUSH15 0x45524332303A206465637265617365 PUSH5 0x20616C6C6F PUSH24 0x616E63652062656C6F77207A65726FA26469706673582212 KECCAK256 SUB MSIZE ISZERO PUSH2 0xF6E7 PUSH4 0xBF96D2D6 0xAC EXTCODESIZE DUP11 0xFC XOR CALLER DUP4 0xE7 0xDC CHAINID EXTCODECOPY SMOD EXTCODESIZE LT DUP2 LOG0 0xB7 LT 0xB4 PUSH15 0xFF64736F6C634300060C0033000000 "
				},
				"gasEstimates": {
					"creation": {
						"codeDepositCost": "3222400",
						"executionCost": "infinite",
						"totalCost": "infinite"
					},
					"external": {
						"addToMelters(address)": "22127",
						"addTransferFeeAddress(address)": "22141",
						"allowance(address,address)": "1409",
						"approve(address,uint256)": "infinite",
						"availableBalance(address)": "1285",
						"balanceOf(address)": "infinite",
						"burn(uint256)": "infinite",
						"burnFrom(address,uint256)": "infinite",
						"claimMelterAdmin()": "infinite",
						"decimals()": "1101",
						"decreaseAllowance(address,uint256)": "infinite",
						"destroyFrozen(address,uint256)": "infinite",
						"feeaddr()": "1230",
						"increaseAllowance(address,uint256)": "infinite",
						"maxSupply()": "1057",
						"meltTokens(address,uint256)": "infinite",
						"melteradmin()": "1145",
						"mint(address,uint256)": "infinite",
						"mintFrozenTokens(address,uint256)": "infinite",
						"name()": "infinite",
						"owner()": "1145",
						"pendingMelterAdmin()": "1158",
						"removeFromMelters(address)": "22151",
						"removeTransferBurnAddress(address)": "22183",
						"renounceOwnership()": "24343",
						"setFeeAddr(address)": "22123",
						"setTransferFeeRate(uint256)": "21258",
						"symbol()": "infinite",
						"totalSupply()": "1059",
						"transfer(address,uint256)": "infinite",
						"transferFeeRate()": "1073",
						"transferFrom(address,address,uint256)": "infinite",
						"transferFrozenToken(address,address,uint256)": "infinite",
						"transferMelterAdmin(address)": "22060",
						"transferOwnership(address)": "infinite"
					},
					"internal": {
						"_beforeTokenTransfer(address,address,uint256)": "infinite",
						"_transfer(address,address,uint256)": "infinite"
					}
				},
				"methodIdentifiers": {
					"addToMelters(address)": "d8da5ce9",
					"addTransferFeeAddress(address)": "91116d67",
					"allowance(address,address)": "dd62ed3e",
					"approve(address,uint256)": "095ea7b3",
					"availableBalance(address)": "a0821be3",
					"balanceOf(address)": "70a08231",
					"burn(uint256)": "42966c68",
					"burnFrom(address,uint256)": "79cc6790",
					"claimMelterAdmin()": "1e57a2b2",
					"decimals()": "313ce567",
					"decreaseAllowance(address,uint256)": "a457c2d7",
					"destroyFrozen(address,uint256)": "171177b3",
					"feeaddr()": "a64f714c",
					"increaseAllowance(address,uint256)": "39509351",
					"maxSupply()": "d5abeb01",
					"meltTokens(address,uint256)": "0c15f601",
					"melteradmin()": "35cde1ce",
					"mint(address,uint256)": "40c10f19",
					"mintFrozenTokens(address,uint256)": "c4157b29",
					"name()": "06fdde03",
					"owner()": "8da5cb5b",
					"pendingMelterAdmin()": "70766280",
					"removeFromMelters(address)": "238fd731",
					"removeTransferBurnAddress(address)": "8fe8cf24",
					"renounceOwnership()": "715018a6",
					"setFeeAddr(address)": "b2855b4f",
					"setTransferFeeRate(uint256)": "c894e1e5",
					"symbol()": "95d89b41",
					"totalSupply()": "18160ddd",
					"transfer(address,uint256)": "a9059cbb",
					"transferFeeRate()": "351bf518",
					"transferFrom(address,address,uint256)": "23b872dd",
					"transferFrozenToken(address,address,uint256)": "e50d3180",
					"transferMelterAdmin(address)": "483a8df9",
					"transferOwnership(address)": "f2fde38b"
				}
			},
			"storageLayout": {
				"storage": [
					{
						"astId": 593,
						"contract": "contracts/Token/Token.sol:SQFToken",
						"label": "frozen_balances",
						"offset": 0,
						"slot": "0",
						"type": "t_mapping(t_address,t_uint256)"
					},
					{
						"astId": 484,
						"contract": "contracts/Token/Token.sol:SQFToken",
						"label": "_owner",
						"offset": 0,
						"slot": "1",
						"type": "t_address"
					},
					{
						"astId": 657,
						"contract": "contracts/Token/Token.sol:SQFToken",
						"label": "_melters",
						"offset": 0,
						"slot": "2",
						"type": "t_mapping(t_address,t_bool)"
					},
					{
						"astId": 659,
						"contract": "contracts/Token/Token.sol:SQFToken",
						"label": "_melteradmin",
						"offset": 0,
						"slot": "3",
						"type": "t_address"
					},
					{
						"astId": 661,
						"contract": "contracts/Token/Token.sol:SQFToken",
						"label": "pendingMelterAdmin",
						"offset": 0,
						"slot": "4",
						"type": "t_address"
					},
					{
						"astId": 813,
						"contract": "contracts/Token/Token.sol:SQFToken",
						"label": "_balances",
						"offset": 0,
						"slot": "5",
						"type": "t_mapping(t_address,t_uint256)"
					},
					{
						"astId": 819,
						"contract": "contracts/Token/Token.sol:SQFToken",
						"label": "_allowances",
						"offset": 0,
						"slot": "6",
						"type": "t_mapping(t_address,t_mapping(t_address,t_uint256))"
					},
					{
						"astId": 821,
						"contract": "contracts/Token/Token.sol:SQFToken",
						"label": "_totalSupply",
						"offset": 0,
						"slot": "7",
						"type": "t_uint256"
					},
					{
						"astId": 823,
						"contract": "contracts/Token/Token.sol:SQFToken",
						"label": "_maxSupply",
						"offset": 0,
						"slot": "8",
						"type": "t_uint256"
					},
					{
						"astId": 825,
						"contract": "contracts/Token/Token.sol:SQFToken",
						"label": "_name",
						"offset": 0,
						"slot": "9",
						"type": "t_string_storage"
					},
					{
						"astId": 827,
						"contract": "contracts/Token/Token.sol:SQFToken",
						"label": "_symbol",
						"offset": 0,
						"slot": "10",
						"type": "t_string_storage"
					},
					{
						"astId": 829,
						"contract": "contracts/Token/Token.sol:SQFToken",
						"label": "_decimals",
						"offset": 0,
						"slot": "11",
						"type": "t_uint8"
					},
					{
						"astId": 1556,
						"contract": "contracts/Token/Token.sol:SQFToken",
						"label": "feeaddr",
						"offset": 1,
						"slot": "11",
						"type": "t_address"
					},
					{
						"astId": 1558,
						"contract": "contracts/Token/Token.sol:SQFToken",
						"label": "transferFeeRate",
						"offset": 0,
						"slot": "12",
						"type": "t_uint256"
					},
					{
						"astId": 1562,
						"contract": "contracts/Token/Token.sol:SQFToken",
						"label": "_transactionFee",
						"offset": 0,
						"slot": "13",
						"type": "t_mapping(t_address,t_bool)"
					}
				],
				"types": {
					"t_address": {
						"encoding": "inplace",
						"label": "address",
						"numberOfBytes": "20"
					},
					"t_bool": {
						"encoding": "inplace",
						"label": "bool",
						"numberOfBytes": "1"
					},
					"t_mapping(t_address,t_bool)": {
						"encoding": "mapping",
						"key": "t_address",
						"label": "mapping(address => bool)",
						"numberOfBytes": "32",
						"value": "t_bool"
					},
					"t_mapping(t_address,t_mapping(t_address,t_uint256))": {
						"encoding": "mapping",
						"key": "t_address",
						"label": "mapping(address => mapping(address => uint256))",
						"numberOfBytes": "32",
						"value": "t_mapping(t_address,t_uint256)"
					},
					"t_mapping(t_address,t_uint256)": {
						"encoding": "mapping",
						"key": "t_address",
						"label": "mapping(address => uint256)",
						"numberOfBytes": "32",
						"value": "t_uint256"
					},
					"t_string_storage": {
						"encoding": "bytes",
						"label": "string",
						"numberOfBytes": "32"
					},
					"t_uint256": {
						"encoding": "inplace",
						"label": "uint256",
						"numberOfBytes": "32"
					},
					"t_uint8": {
						"encoding": "inplace",
						"label": "uint8",
						"numberOfBytes": "1"
					}
				}
			},
			"userdoc": {
				"kind": "user",
				"methods": {
					"mint(address,uint256)": {
						"notice": "Creates `_amount` token to `_to`. Must only be called by the owner (MasterChef)."
					}
				},
				"version": 1
			}
		}
	}
}